{"abi":[{"type":"constructor","inputs":[{"name":"_hex","type":"address","internalType":"address"}],"stateMutability":"nonpayable"},{"type":"fallback","stateMutability":"payable"},{"type":"receive","stateMutability":"payable"},{"type":"function","name":"Burn","inputs":[{"name":"amount","type":"uint256","internalType":"uint256"}],"outputs":[],"stateMutability":"nonpayable"},{"type":"function","name":"_delegatorCount","inputs":[],"outputs":[{"name":"","type":"uint256","internalType":"uint256"}],"stateMutability":"view"},{"type":"function","name":"_getImplementation","inputs":[{"name":"clone","type":"address","internalType":"address"}],"outputs":[{"name":"impl","type":"address","internalType":"address"}],"stateMutability":"view"},{"type":"function","name":"_isDelegatorNode","inputs":[{"name":"sender","type":"address","internalType":"address"}],"outputs":[{"name":"","type":"bool","internalType":"bool"}],"stateMutability":"view"},{"type":"function","name":"_isSafe","inputs":[],"outputs":[{"name":"","type":"bool","internalType":"bool"}],"stateMutability":"view"},{"type":"function","name":"_isSecureBase","inputs":[{"name":"sender","type":"address","internalType":"address"}],"outputs":[{"name":"","type":"bool","internalType":"bool"}],"stateMutability":"view"},{"type":"function","name":"_isSigner","inputs":[{"name":"sender","type":"address","internalType":"address"}],"outputs":[{"name":"","type":"bool","internalType":"bool"}],"stateMutability":"view"},{"type":"function","name":"getBalance","inputs":[],"outputs":[{"name":"","type":"uint256","internalType":"uint256"}],"stateMutability":"view"},{"type":"function","name":"getHexbase","inputs":[],"outputs":[{"name":"","type":"address","internalType":"address"}],"stateMutability":"view"},{"type":"function","name":"onTokenTransfer","inputs":[{"name":"from","type":"address","internalType":"address"},{"name":"to","type":"address","internalType":"address"},{"name":"tokenId","type":"uint256","internalType":"uint256"},{"name":"amount","type":"uint256","internalType":"uint256"}],"outputs":[],"stateMutability":"nonpayable"},{"type":"function","name":"onTokenTransferBatch","inputs":[{"name":"from","type":"address","internalType":"address"},{"name":"to","type":"address","internalType":"address"},{"name":"tokenIds","type":"uint256[]","internalType":"uint256[]"},{"name":"amounts","type":"uint256[]","internalType":"uint256[]"}],"outputs":[],"stateMutability":"nonpayable"},{"type":"function","name":"owner","inputs":[],"outputs":[{"name":"","type":"address","internalType":"address"}],"stateMutability":"view"},{"type":"function","name":"systemAge","inputs":[],"outputs":[{"name":"","type":"uint256","internalType":"uint256"}],"stateMutability":"view"},{"type":"event","name":"EthBurned","inputs":[{"name":"sender","type":"address","indexed":true,"internalType":"address"},{"name":"amount","type":"uint256","indexed":false,"internalType":"uint256"}],"anonymous":false},{"type":"event","name":"EthTransferred","inputs":[{"name":"to","type":"address","indexed":true,"internalType":"address"},{"name":"amount","type":"uint256","indexed":false,"internalType":"uint256"}],"anonymous":false},{"type":"event","name":"HexBaseUpdated","inputs":[{"name":"previousHexBase","type":"address","indexed":true,"internalType":"address"},{"name":"newHexBase","type":"address","indexed":true,"internalType":"address"}],"anonymous":false},{"type":"event","name":"NFTTransfer","inputs":[{"name":"from","type":"address","indexed":true,"internalType":"address"},{"name":"to","type":"address","indexed":true,"internalType":"address"},{"name":"orc1155","type":"address","indexed":true,"internalType":"address"},{"name":"tokenId","type":"uint256","indexed":false,"internalType":"uint256"},{"name":"amount","type":"uint256","indexed":false,"internalType":"uint256"}],"anonymous":false},{"type":"event","name":"OwnerUpdated","inputs":[{"name":"previousOwner","type":"address","indexed":true,"internalType":"address"},{"name":"newOwner","type":"address","indexed":true,"internalType":"address"}],"anonymous":false},{"type":"error","name":"TargetCallFailed","inputs":[{"name":"selector","type":"bytes4","internalType":"bytes4"}]}],"bytecode":{"object":"0x6080346100c557601f6110dc38819003918201601f19168301916001600160401b038311848410176100ca578084926020946040528339810103126100c557516001600160a01b038116908190036100c55780156100805760018060a01b0319338160015416176001556000541617600055604051610ffb90816100e18239f35b60405162461bcd60e51b815260206004820152601360248201527f6f776e2e696e76616c69642e68657862617365000000000000000000000000006044820152606490fd5b600080fd5b634e487b7160e01b600052604160045260246000fdfe60806040526004361015610018575b361561001657005b005b60003560e01c806312065fe0146100e85780631f185d16146100e35780633b9b7955146100de5780636152b117146100d95780636930e471146100d45780638da5cb5b146100cf578063a1f7f539146100ca578063af484526146100c5578063b90306ad146100c0578063c54e44b0146100bb578063e01ad5fd146100b6578063e0a9bc2b146100b15763fdc10bc90361000e57610921565b61087f565b6107e0565b6107a7565b6106f4565b6106c3565b61060c565b6105e3565b6104d2565b610348565b610243565b61011a565b3461010457600036600319011261010457602047604051908152f35b600080fd5b6001600160a01b0381160361010457565b34610104576020806003193601126101045760049081359061013b82610109565b600054819061015a906001600160a01b03165b6001600160a01b031690565b604051634bf9c0ad60e11b815294859182905afa91821561023e576101b16101eb936101cd926101fd9660009261020b575b506040516001600160a01b0390911685820190815290926101bf918491602090910190565b03601f1981018452836102bf565b6101c7610c9f565b90610e3f565b919080610201575b6101de90610ccc565b8082518301019101610b5e565b60405190151581529081906020820190565b0390f35b50815181146101d5565b6101bf91925061023090863d8811610237575b61022881836102bf565b810190610a00565b919061018c565b503d61021e565b610a18565b34610104576000366003190112610104576000546040516001600160a01b039091168152602090f35b634e487b7160e01b600052604160045260246000fd5b6040810190811067ffffffffffffffff82111761029e57604052565b61026c565b6020810190811067ffffffffffffffff82111761029e57604052565b90601f8019910116810190811067ffffffffffffffff82111761029e57604052565b9080601f830112156101045781359067ffffffffffffffff821161029e578160051b60405193602093610316858401876102bf565b85528380860192820101928311610104578301905b828210610339575050505090565b8135815290830190830161032b565b346101045760803660031901126101045760043561036581610109565b6024359061037282610109565b67ffffffffffffffff91604435838111610104576103949036906004016102e1565b92606435908111610104576103ad9036906004016102e1565b906103b733610f53565b906001600160a01b036103cd81841615156109b4565b600054610417906020906103e9906001600160a01b031661014e565b604080516333ea87db60e21b81526001600160a01b0390971660048801529592839190829081906024820190565b03915afa90811561023e576104409161043b916000916104b4575b50969496610bf3565b610a24565b908116911660005b8551811015610016578061045f6104af9288610a95565b5184847f4e7f6ed89000d16d13620b4dba88005f5e1888d743498bc53afbf0ed10c512596104a7610490868b610a95565b518b51958652602086015233949081906040820190565b0390a4610a70565b610448565b6104cc915060203d81116102375761022881836102bf565b38610432565b34610104576080366003190112610104576004356104ef81610109565b602435906104fc82610109565b61050533610f53565b6001600160a01b03906105649060209061052281851615156109b4565b600054610537906001600160a01b031661014e565b6040516333ea87db60e21b81526001600160a01b0390921660048301529092839190829081906024820190565b03915afa90811561023e576105859161043b916000916105c5575b50610bf3565b60408051604435815260643560208201523394831693909216917f4e7f6ed89000d16d13620b4dba88005f5e1888d743498bc53afbf0ed10c512599190a4005b6105dd915060203d81116102375761022881836102bf565b3861057f565b34610104576000366003190112610104576001546040516001600160a01b039091168152602090f35b346101045760003660031901126101045760005460405163d1f956b160e01b815290602090829060049082906001600160a01b03165afa90811561023e576101fd91610695916000916106a5575b5060405161066781610282565b601381527267657464656c656761746f72436f756e74282960681b602082015261068f610adb565b91610f15565b6040519081529081906020820190565b6106bd915060203d81116102375761022881836102bf565b3861065a565b346101045760203660031901126101045760206106ea6004356106e581610109565b610bf3565b6040519015158152f35b3461010457602036600319011261010457600054604051630536340960e21b8152906001600160a01b03906020908390600490829085165afa91821561023e57600092610787575b503391160361075057610016600435610d6e565b60405162461bcd60e51b815260206004820152600f60248201526e6f776e2e6e6f6e617574682e44414f60881b6044820152606490fd5b6107a091925060203d81116102375761022881836102bf565b903861073c565b346101045760203660031901126101045760206107ce6004356107c981610109565b610f53565b6040516001600160a01b039091168152f35b346101045760208060031936011261010457600480356107ff81610109565b60005460405163d1f956b160e01b81526001600160a01b03949093909182918591829088165afa90811561023e576101fd946101eb94600093610860575b50604051931681840152825261085282610282565b61085a610d11565b90610ed9565b610878919350823d84116102375761022881836102bf565b913861083d565b3461010457600036600319011261010457600054604051634bf9c0ad60e11b8152906020908190839060049082906001600160a01b03165afa90811561023e576108e96101eb926101fd94600091610904575b506108db610aee565b6108e3610adb565b91610e3f565b9190806108fa575b6101de90610b12565b50815181146108f1565b61091b9150833d85116102375761022881836102bf565b386108d2565b346101045760003660031901126101045760005460405163111ea8c160e21b815290602090829060049082906001600160a01b03165afa90811561023e576101fd9161069591600091610996575b5060405161097c81610282565b6005815264616765282960d81b602082015261068f610adb565b6109ae915060203d81116102375761022881836102bf565b3861096f565b156109bb57565b60405162461bcd60e51b815260206004820152601c60248201527f4e4654417263686976652e6f7263313135352e6e6f74457869737473000000006044820152606490fd5b908160209103126101045751610a1581610109565b90565b6040513d6000823e3d90fd5b15610a2b57565b60405162461bcd60e51b815260206004820152601b60248201527f4e4654417263686976652e756e7365637572652e4f52433131353500000000006044820152606490fd5b6000198114610a7f5760010190565b634e487b7160e01b600052601160045260246000fd5b8051821015610aa95760209160051b010190565b634e487b7160e01b600052603260045260246000fd5b67ffffffffffffffff811161029e57601f01601f191660200190565b60405190610ae8826102a3565b60008252565b60405190610afb82610282565b6008825267697353616665282960c01b6020830152565b15610b1957565b60405162461bcd60e51b815260206004820152601960248201527f6f776e2e7361666567756172642e63616c6c2e6661696c6564000000000000006044820152606490fd5b90816020910312610104575180151581036101045790565b60405190610b8382610282565b601582527469735365637572654261736528616464726573732960581b6020830152565b15610bae57565b60405162461bcd60e51b815260206004820152601a60248201527f6f776e2e736563757265626173652e63616c6c2e6661696c65640000000000006044820152606490fd5b6000546001600160a01b0316604051918291634bf9c0ad60e11b835282600460209485935afa92831561023e57610a1593610c61926101b192600092610c7c575b506040516001600160a01b039091168582019081529092610c59918491602090910190565b6101c7610b76565b919080610c72575b6101de90610ba7565b5081518114610c69565b610c59919250610c9890863d88116102375761022881836102bf565b9190610c34565b60405190610cac82610282565b601182527069735369676e657228616464726573732960781b6020830152565b15610cd357565b60405162461bcd60e51b81526020600482015260166024820152751bdddb8b9cda59db995c8b98d85b1b0b99985a5b195960521b6044820152606490fd5b60405190610d1e82610282565b6011825270697364656c656761746f724e6f6465282960781b6020830152565b3d15610d69573d90610d4f82610abf565b91610d5d60405193846102bf565b82523d6000602084013e565b606090565b600080546040516311be646b60e21b815290602090829060049082906001600160a01b03165afa90811561023e578284819382938391610e21575b505af1610db4610d3e565b5015610dea5760405190815233907fcdcc745fe377b103b45fa0cec23ae3ef93d6fc6a84a01f0d18c40b354dd1d5d890602090a2565b60405162461bcd60e51b815260206004820152600f60248201526e1bdddb8b989d5c9b8b99985a5b1959608a1b6044820152606490fd5b610e39915060203d81116102375761022881836102bf565b38610da9565b9190823b15610ec0578051906020918263ffffffff60e01b92012016916040519180830193845281519160005b838110610eac575050509181610e99602482600097959688970187838201520360048101845201826102bf565b5191620dbba0fa610ea8610d3e565b9091565b818101830151858201602401528201610e6c565b505050600090604051610ed2816102a3565b6000815290565b9291610ee791600094610e3f565b9080610f0a575b610ef55750565b610a1591925060208082518301019101610b5e565b506020815114610eee565b9291610f2391600094610e3f565b9080610f48575b610f315750565b909150602081805181010312610104576020015190565b506020815114610f2a565b803b6000610f6082610abf565b92610f6e60405194856102bf565b82845260208401903c602d815110610f8a57602a015160601c90565b60405162461bcd60e51b81526020600482015260136024820152724e6f742061206d696e696d616c2070726f787960681b6044820152606490fdfea26469706673582212200fcdac9487b0c8f4a740ec70311f2bd46329229fd79d5a9cc254dd4480e83f0f64736f6c63430008140033","linkReferences":{}},"methodIdentifiers":{"Burn(uint256)":"b90306ad","_delegatorCount()":"a1f7f539","_getImplementation(address)":"c54e44b0","_isDelegatorNode(address)":"e01ad5fd","_isSafe()":"e0a9bc2b","_isSecureBase(address)":"af484526","_isSigner(address)":"1f185d16","getBalance()":"12065fe0","getHexbase()":"3b9b7955","onTokenTransfer(address,address,uint256,uint256)":"6930e471","onTokenTransferBatch(address,address,uint256[],uint256[])":"6152b117","owner()":"8da5cb5b","systemAge()":"fdc10bc9"},"id":27}