{"abi":[{"type":"constructor","inputs":[{"name":"s1","type":"address","internalType":"address"},{"name":"s2","type":"address","internalType":"address"},{"name":"s3","type":"address","internalType":"address"}],"stateMutability":"nonpayable"},{"type":"function","name":"gethexbAdd","inputs":[],"outputs":[{"name":"","type":"address","internalType":"address"}],"stateMutability":"view"}],"bytecode":{"object":"0x6080604052346300000040576300000024630000001c6300000151565b9163000006a9565b63000000306300000047565b61018063000042a3823961018090f35b630000004d565b60405190565b5f80fd5b601f801991011690565b634e487b7160e01b5f52604160045260245ffd5b90630000007d906300000051565b810190811060018060401b03821117630000009757604052565b630000005b565b9063000000b963000000b06300000047565b9283630000006f565b565b5f80fd5b60018060a01b031690565b63000000d79063000000bf565b90565b63000000e78163000000ca565b0363000000f057565b5f80fd5b9050519063000001058263000000da565b565b9091606082840312630000014a576300000147630000012a845f850163000000f4565b93630000013c816020860163000000f4565b9360400163000000f4565b90565b63000000bb565b630000017963000355a180380380630000016c81630000009e565b9283398101906300000107565b909192565b5f0190565b630000018f6300000047565b3d5f823e3d90fd5b5f1b90565b9063000001b160018060a01b03916300000197565b9181191691161790565b90565b63000001dc63000001d563000001e39263000000bf565b63000001bb565b63000000bf565b90565b63000001f39063000001be565b90565b63000002039063000001e6565b90565b90565b906300000228630000022163000002319263000001f6565b6300000206565b8254630000019c565b9055565b5f1c90565b60018060a01b031690565b6300000257630000025e916300000235565b630000023a565b90565b630000026f90546300000245565b90565b630000027f9063000001be565b90565b630000028f906300000272565b90565b630000029f906300000272565b90565b5f80fd5b60e01b90565b5f91031263000002b857565b63000000bb565b63000002cc9063000000ca565b9052565b919063000002e7905f6020850194019063000002bf565b565b604090630000031c63000003259496959396630000031060608401985f85019063000002bf565b602083019063000002bf565b019063000002bf565b565b6300000334906300000272565b90565b6300000344906300000272565b90565b6300000354906300000272565b90565b6300000364906300000272565b90565b6300000374906300000272565b90565b6300000384906300000272565b90565b6300000394906300000272565b90565b90565b63000003ac63000003b3916300000235565b6300000397565b90565b63000003c49054630000039a565b90565b634e487b7160e01b5f52602260045260245ffd5b90600160028304921680156300000401575b602083101463000003fa57565b63000003c7565b91607f169163000003ed565b60209181520190565b5f5260205f2090565b905f9291805490630000044163000004388363000003db565b8094630000040d565b916001811690815f1463000004a657506001146300000460575b505050565b630000047191929394506300000416565b915f925b818410630000048c57505001905f8080630000045b565b600181602092959395548486015201910192906300000475565b92949550505060ff19168252151560200201905f8080630000045b565b90565b63000004d39063000004c3565b9052565b5490565b60209181520190565b5f5260205f2090565b60209181520190565b905f92918054906300000518630000050f8363000003db565b809463000004ed565b916001811690815f14630000057d57506001146300000537575b505050565b630000054891929394506300000416565b915f925b818410630000056357505001905f80806300000532565b60018160209295939554848601520191019290630000054c565b92949550505060ff19168252151560200201905f80806300000532565b9063000005a89163000004f6565b90565b60010190565b9063000005cd63000005c48363000004d7565b809263000004db565b908163000005e26020830284019463000004e4565b925f915b83831063000005f757505050505090565b9091929394602063000006206300000618838560019503875289630000059a565b9763000005ab565b930193019193929063000005e6565b90630000066a63000006869593630000065a63000006779360808601908682035f880152630000041f565b908482036020860152630000041f565b93604083019063000004c6565b606081840391015263000005b1565b90565b6300000696906300000272565b90565b63000006a6906300000272565b90565b919063000006b76300000047565b611c5c810181811060018060401b03821117630000194d5763000006e78291611c5c6300026a778439630000017e565b03905ff080156300001946576300000701905f6300000209565b630000070d6300000047565b6158a4810181811060018060401b03821117630000193f57630000073d82916158a463000211d38439630000017e565b03905ff08015630000193857926300000763630000075c5f6300000261565b6300000282565b63d05a56516300000775866300000292565b823b1563000019315763000007b39263000007a65f809463000007986300000047565b9687958694859363000002a6565b83526004830163000002d0565b03925af18015630000192a5763000018f0575b509063000007d46300000047565b92611c8a84019184831060018060401b0384111763000018e9578493630000080793611c8a63000286d3873963000002e9565b03905ff0801563000018e257630000082c63000008255f6300000261565b6300000282565b90630000083f631162a5b1916300000327565b823b1563000018db57630000087d9263000008705f809463000008626300000047565b9687958694859363000002a6565b83526004830163000002d0565b03925af1801563000018d457630000189a575b50630000089d6300000047565b614587810181811060018060401b0382111763000018935763000008cd8291614587630001cc4c8439630000017e565b03905ff08015630000188c5763000008f263000008eb5f6300000261565b6300000282565b9063bcb6c0b56300000905826300000337565b833b1563000018855763000009439363000009365f809463000009286300000047565b9788958694859363000002a6565b83526004830163000002d0565b03925af1918215630000187e576300000965926300001844575b506300000337565b6360af454d6300000983630000097c5f6300000261565b6300000282565b823b15630000183d5763000009c19263000009b45f809463000009a66300000047565b9687958694859363000002a6565b83526004830163000002d0565b03925af1801563000018365763000017fc575b5063000009e16300000047565b612492810181811060018060401b0382111763000017f5576300000a118291612492630002a35d8439630000017e565b03905ff0801563000017ee576300000a366300000a2f5f6300000261565b6300000282565b906396e85ced6300000a49826300000347565b833b1563000017e7576300000a87936300000a7a5f80946300000a6c6300000047565b9788958694859363000002a6565b83526004830163000002d0565b03925af191821563000017e0576300000aa99263000017a6575b506300000347565b6360af454d6300000ac76300000ac05f6300000261565b6300000282565b823b15630000179f576300000b05926300000af85f80946300000aea6300000047565b9687958694859363000002a6565b83526004830163000002d0565b03925af18015630000179857630000175e575b506300000b256300000047565b618db2810181811060018060401b038211176300001757576300000b558291618db2630002c7ef8439630000017e565b03905ff080156300001750576300000b7a6300000b735f6300000261565b6300000282565b9063753e7d336300000b8d826300000357565b833b156300001749576300000bcb936300000bbe5f80946300000bb06300000047565b9788958694859363000002a6565b83526004830163000002d0565b03925af19182156300001742576300000bed926300001708575b506300000357565b6360af454d6300000c0b6300000c045f6300000261565b6300000282565b823b156300001701576300000c49926300000c3c5f80946300000c2e6300000047565b9687958694859363000002a6565b83526004830163000002d0565b03925af1801563000016fa5763000016c0575b506300000c696300000047565b6157d4810181811060018060401b0382111763000016b9576300000c9982916157d4630000979b8439630000017e565b03905ff0801563000016b2576300000cbe6300000cb75f6300000261565b6300000282565b9063aeb140206300000cd1826300000367565b833b1563000016ab576300000d0f936300000d025f80946300000cf46300000047565b9788958694859363000002a6565b83526004830163000002d0565b03925af191821563000016a4576300000d3192630000166a575b506300000367565b6360af454d6300000d4f6300000d485f6300000261565b6300000282565b823b156300001663576300000d8d926300000d805f80946300000d726300000047565b9687958694859363000002a6565b83526004830163000002d0565b03925af18015630000165c576300001622575b506300000dad6300000047565b615378810181811060018060401b03821117630000161b576300000ddd829161537863000044238439630000017e565b03905ff080156300001614576300000e026300000dfb5f6300000261565b6300000282565b9063242fca556300000e15826300000377565b833b15630000160d576300000e53936300000e465f80946300000e386300000047565b9788958694859363000002a6565b83526004830163000002d0565b03925af19182156300001606576300000e759263000015cc575b506300000377565b6360af454d6300000e936300000e8c5f6300000261565b6300000282565b823b1563000015c5576300000ed1926300000ec45f80946300000eb66300000047565b9687958694859363000002a6565b83526004830163000002d0565b03925af1801563000015be576300001584575b506300000ef16300000047565b614444810181811060018060401b03821117630000157d576300000f218291614444630000ef6f8439630000017e565b03905ff080156300001576576300000f466300000f3f5f6300000261565b6300000282565b9063275424d06300000f59826300000387565b833b15630000156f576300000f97936300000f8a5f80946300000f7c6300000047565b9788958694859363000002a6565b83526004830163000002d0565b03925af19182156300001568576300000fb992630000152e575b506300000387565b6360af454d6300000fd76300000fd05f6300000261565b6300000282565b823b1563000015275763000010159263000010085f80946300000ffa6300000047565b9687958694859363000002a6565b83526004830163000002d0565b03925af1801563000015205763000014e6575b5063000010356300002bc1565b5f6005016001600501906300001050600260050163000003b6565b91600360050163000010626300000047565b9361753285019285841060018060401b0385111763000014df57859463000010959461753263000133b38839630000062f565b03905ff0801563000014d85763000010ba63000010b35f6300000261565b6300000282565b9063313c5fdc63000010cd826300000689565b833b1563000014d157630000110b9363000010fe5f809463000010f06300000047565b9788958694859363000002a6565b83526004830163000002d0565b03925af191821563000014ca57630000112d926300001490575b506300000689565b6360af454d630000114b63000011445f6300000261565b6300000282565b823b15630000148957630000118992630000117c5f8094630000116e6300000047565b9687958694859363000002a6565b83526004830163000002d0565b03925af180156300001482576300001448575b5063000011a96300000047565b612367810181811060018060401b0382111763000014415763000011d98291612367630001a8e58439630000017e565b03905ff08015630000143a5763000011fe63000011f75f6300000261565b6300000282565b906336c24c466300001211826300000699565b833b15630000143357630000124f9363000012425f809463000012346300000047565b9788958694859363000002a6565b83526004830163000002d0565b03925af1918215630000142c5763000012719263000013f2575b506300000699565b906360af454d630000129063000012895f6300000261565b6300000282565b833b1563000013eb5763000012ce9363000012c15f809463000012b36300000047565b9788958694859363000002a6565b83526004830163000002d0565b03925af191821563000013e45763000012f09263000013aa575b506300000292565b6360af454d630000130e63000013075f6300000261565b6300000282565b823b1563000013a357630000134c92630000133f5f809463000013316300000047565b9687958694859363000002a6565b83526004830163000002d0565b03925af18015630000139c576300001362575b50565b630000138b905f3d81116300001393575b63000013818183630000006f565b81019063000002ac565b5f630000135f565b503d6300001373565b6300000183565b63000002a2565b63000013d3905f3d811163000013db575b63000013c98183630000006f565b81019063000002ac565b5f63000012e8565b503d63000013bb565b6300000183565b63000002a2565b630000141b905f3d81116300001423575b63000014118183630000006f565b81019063000002ac565b5f6300001269565b503d6300001403565b6300000183565b63000002a2565b6300000183565b630000005b565b6300001471905f3d81116300001479575b63000014678183630000006f565b81019063000002ac565b5f630000119c565b503d6300001459565b6300000183565b63000002a2565b63000014b9905f3d811163000014c1575b63000014af8183630000006f565b81019063000002ac565b5f6300001125565b503d63000014a1565b6300000183565b63000002a2565b6300000183565b630000005b565b630000150f905f3d81116300001517575b63000015058183630000006f565b81019063000002ac565b5f6300001028565b503d63000014f7565b6300000183565b63000002a2565b6300001557905f3d8111630000155f575b630000154d8183630000006f565b81019063000002ac565b5f6300000fb1565b503d630000153f565b6300000183565b63000002a2565b6300000183565b630000005b565b63000015ad905f3d811163000015b5575b63000015a38183630000006f565b81019063000002ac565b5f6300000ee4565b503d6300001595565b6300000183565b63000002a2565b63000015f5905f3d811163000015fd575b63000015eb8183630000006f565b81019063000002ac565b5f6300000e6d565b503d63000015dd565b6300000183565b63000002a2565b6300000183565b630000005b565b630000164b905f3d81116300001653575b63000016418183630000006f565b81019063000002ac565b5f6300000da0565b503d6300001633565b6300000183565b63000002a2565b6300001693905f3d8111630000169b575b63000016898183630000006f565b81019063000002ac565b5f6300000d29565b503d630000167b565b6300000183565b63000002a2565b6300000183565b630000005b565b63000016e9905f3d811163000016f1575b63000016df8183630000006f565b81019063000002ac565b5f6300000c5c565b503d63000016d1565b6300000183565b63000002a2565b6300001731905f3d81116300001739575b63000017278183630000006f565b81019063000002ac565b5f6300000be5565b503d6300001719565b6300000183565b63000002a2565b6300000183565b630000005b565b6300001787905f3d8111630000178f575b630000177d8183630000006f565b81019063000002ac565b5f6300000b18565b503d630000176f565b6300000183565b63000002a2565b63000017cf905f3d811163000017d7575b63000017c58183630000006f565b81019063000002ac565b5f6300000aa1565b503d63000017b7565b6300000183565b63000002a2565b6300000183565b630000005b565b6300001825905f3d8111630000182d575b630000181b8183630000006f565b81019063000002ac565b5f63000009d4565b503d630000180d565b6300000183565b63000002a2565b630000186d905f3d81116300001875575b63000018638183630000006f565b81019063000002ac565b5f630000095d565b503d6300001855565b6300000183565b63000002a2565b6300000183565b630000005b565b63000018c3905f3d811163000018cb575b63000018b98183630000006f565b81019063000002ac565b5f6300000890565b503d63000018ab565b6300000183565b63000002a2565b6300000183565b630000005b565b6300001919905f3d81116300001921575b630000190f8183630000006f565b81019063000002ac565b5f63000007c6565b503d6300001901565b6300000183565b63000002a2565b6300000183565b630000005b565b6300000183565b630000005b565b63000019626080630000009e565b90565b60018060401b03811163000019875763000019836020916300000051565b0190565b630000005b565b9063000019a863000019a1836300001965565b630000009e565b918252565b5f7f4c696f6e00000000000000000000000000000000000000000000000000000000910152565b63000019e26004630000198e565b9063000019f36020830163000019ad565b565b6300001a0163000019d4565b90565b52565b60407f2e696f2f00000000000000000000000000000000000000000000000000000000917f68747470733a2f2f6f7a6f6e65313361646337646138643235376361636436315f8201527f3163306432386539383661663235376232323931302e6f7a6f6e6573746f726560208201520152565b6300001a886044630000198e565b906300001a99602083016300001a07565b565b6300001aa76300001a7a565b90565b90565b6300001acb6300001ac46300001ad2926300001aaa565b63000001bb565b63000004c3565b90565b906300001ae39063000004c3565b9052565b52565b634e487b7160e01b5f525f60045260245ffd5b5190565b5190565b601f602091010490565b1b90565b919060086300001b369102916300001b2e5f19846300001b0f565b926300001b0f565b9181191691161790565b6300001b5e6300001b576300001b659263000004c3565b63000001bb565b63000004c3565b90565b90565b91906300001b8b6300001b846300001b95936300001b40565b6300001b68565b9083546300001b13565b9055565b5f90565b6300001bb7916300001baf6300001b99565b916300001b6b565b565b5b8181106300001bc7575050565b806300001bd85f6001936300001b9d565b016300001bba565b9190601f81116300001bf2575b505050565b6300001c046300001c35936300000416565b9060206300001c14846300001b05565b830193106300001c3f575b6300001c2c906300001b05565b01906300001bb9565b5f80806300001bed565b91506300001c2c819290506300001c1f565b1c90565b906300001c69905f19906008026300001c51565b191690565b816300001c7c916300001c55565b906002021790565b906300001c92816300001b01565b9060018060401b0382116300001d76576300001cbe826300001cb6855463000003db565b856300001be0565b602090601f83116001146300001cfc579180916300001ce9935f926300001cee575b50506300001c6e565b90555b565b90915001515f806300001ce0565b601f198316916300001d0f856300000416565b925f5b8181106300001d5c575091600293918560019694106300001d3c575b505050020190556300001cec565b6300001d50910151601f8416906300001c55565b90555f80806300001d2e565b919360206001819287870151815501950192016300001d12565b630000005b565b906300001d8b916300001c84565b565b6300001d9b905163000004c3565b90565b906300001dae5f19916300000197565b9181191691161790565b906300001dd76300001dd06300001de0926300001b40565b6300001b68565b82546300001d9e565b9055565b5190565b60200190565b600190818003010490565b906300001e10905f19906020036008026300001c51565b8154169055565b905f916300001e366300001e2c826300000416565b9283546300001c6e565b905555565b919290602082105f146300001eae57601f84116001146300001e6c576300001e669293506300001c6e565b90555b5b565b50906300001ea06300001ea79360016300001e956300001e8d856300000416565b926300001b05565b820191016300001bb9565b6300001e17565b6300001e69565b506300001ef782936300001ec56001946300000416565b6300001eee6300001ed7856300001b05565b820192601f8616806300001f04575b506300001b05565b01906300001bb9565b6002021790556300001e6a565b6300001f14908886036300001df9565b5f6300001ee6565b9290916801000000000000000082116300001f8e576020115f146300001f7d57602081105f146300001f5b576300001f55916300001c6e565b90555b5b565b60019160ff19166300001f6f846300000416565b556002020190556300001f58565b600191506002020190556300001f59565b630000005b565b9081546300001fa58163000003db565b908183116300001fd8575b8183106300001fc0575b50505050565b6300001fcd936300001e3b565b5f8080806300001fba565b6300001fe8838383876300001f1c565b6300001fb0565b5f6300001ffd916300001f95565b565b905f036300002017576300002015906300001fef565b565b6300001aea565b5b818110630000202c575050565b80630000203d5f6001936300001fff565b01630000201f565b90918281106300002056575b505050565b6300002082630000207a6300002072630000208f956300001dee565b926300001dee565b9263000004e4565b918201910190630000201e565b5f80806300002051565b9068010000000000000000811163000020cc578163000020bf63000020ca9363000004d7565b908281556300002045565b565b630000005b565b5190565b630000210c630000210463000020ee8463000020d3565b9363000020fd85856300002099565b6300001de8565b9163000004e4565b5f915b838310630000211e5750505050565b6001602082630000213e630000213684956300001afd565b866300001d7d565b01920192019190630000210f565b90630000215a9163000020d7565b565b9063000021d76060600363000021df94630000218b5f820163000021835f88016300001afd565b906300001d7d565b63000021ac6001820163000021a4602088016300001afd565b906300001d7d565b63000021cd6002820163000021c5604088016300001d8d565b906300001db8565b0192016300001de4565b90630000214c565b565b9063000021ef91630000215c565b565b90565b6300002212630000220b63000022199263000021f1565b63000001bb565b63000004c3565b90565b60018060401b03811163000022345760208091020190565b630000005b565b906300002255630000224e83630000221c565b630000009e565b918252565b606090565b5f5b828110630000226f57505050565b602090630000227e630000225a565b81840152016300002261565b9063000022bb630000229d83630000223b565b9260208063000022af8693630000221c565b9201910390630000225f565b565b634e487b7160e01b5f52603260045260245ffd5b9063000022df8263000020d3565b81101563000022f2576020809102010190565b63000022bd565b90565b630000231a630000231363000023219263000022f9565b63000001bb565b63000004c3565b90565b5f7f447261676f6e5f5f310000000000000000000000000000000000000000000000910152565b63000023596009630000198e565b90630000236a602083016300002324565b565b90565b630000238d6300002386630000239492630000236c565b63000001bb565b63000004c3565b90565b5f7f447261676f6e5f5f320000000000000000000000000000000000000000000000910152565b63000023cc6009630000198e565b9063000023dd602083016300002397565b565b90565b630000240063000023f963000024079263000023df565b63000001bb565b63000004c3565b90565b5f7f447261676f6e5f5f330000000000000000000000000000000000000000000000910152565b630000243f6009630000198e565b90630000245060208301630000240a565b565b90565b6300002473630000246c630000247a926300002452565b63000001bb565b63000004c3565b90565b5f7f447261676f6e5f5f340000000000000000000000000000000000000000000000910152565b63000024b26009630000198e565b9063000024c360208301630000247d565b565b90565b63000024e663000024df63000024ed9263000024c5565b63000001bb565b63000004c3565b90565b5f7f447261676f6e5f5f350000000000000000000000000000000000000000000000910152565b63000025256009630000198e565b9063000025366020830163000024f0565b565b90565b630000255963000025526300002560926300002538565b63000001bb565b63000004c3565b90565b5f7f447261676f6e5f5f360000000000000000000000000000000000000000000000910152565b63000025986009630000198e565b9063000025a9602083016300002563565b565b90565b63000025cc63000025c563000025d39263000025ab565b63000001bb565b63000004c3565b90565b5f7f447261676f6e5f5f370000000000000000000000000000000000000000000000910152565b630000260b6009630000198e565b90630000261c6020830163000025d6565b565b90565b630000263f6300002638630000264692630000261e565b63000001bb565b63000004c3565b90565b5f7f447261676f6e5f5f380000000000000000000000000000000000000000000000910152565b630000267e6009630000198e565b90630000268f602083016300002649565b565b90565b63000026b263000026ab63000026b9926300002691565b63000001bb565b63000004c3565b90565b5f7f447261676f6e5f5f390000000000000000000000000000000000000000000000910152565b63000026f16009630000198e565b9063000027026020830163000026bc565b565b90565b6300002725630000271e630000272c926300002704565b63000001bb565b63000004c3565b90565b5f7f447261676f6e5f5f313000000000000000000000000000000000000000000000910152565b6300002764600a630000198e565b90630000277560208301630000272f565b565b90565b63000027986300002791630000279f926300002777565b63000001bb565b63000004c3565b90565b5f7f447261676f6e5f5f313100000000000000000000000000000000000000000000910152565b63000027d7600a630000198e565b9063000027e86020830163000027a2565b565b90565b630000280b630000280463000028129263000027ea565b63000001bb565b63000004c3565b90565b5f7f447261676f6e5f5f313200000000000000000000000000000000000000000000910152565b630000284a600a630000198e565b90630000285b602083016300002815565b565b90565b630000287e6300002877630000288592630000285d565b63000001bb565b63000004c3565b90565b5f7f447261676f6e5f5f313300000000000000000000000000000000000000000000910152565b63000028bd600a630000198e565b9063000028ce602083016300002888565b565b90565b63000028f163000028ea63000028f89263000028d0565b63000001bb565b63000004c3565b90565b5f7f447261676f6e5f5f313400000000000000000000000000000000000000000000910152565b6300002930600a630000198e565b9063000029416020830163000028fb565b565b90565b6300002964630000295d630000296b926300002943565b63000001bb565b63000004c3565b90565b5f7f447261676f6e5f5f313500000000000000000000000000000000000000000000910152565b63000029a3600a630000198e565b9063000029b460208301630000296e565b565b90565b63000029d763000029d063000029de9263000029b6565b63000001bb565b63000004c3565b90565b5f7f447261676f6e5f5f313600000000000000000000000000000000000000000000910152565b6300002a16600a630000198e565b906300002a276020830163000029e1565b565b90565b6300002a4a6300002a436300002a51926300002a29565b63000001bb565b63000004c3565b90565b5f7f447261676f6e5f5f313700000000000000000000000000000000000000000000910152565b6300002a89600a630000198e565b906300002a9a602083016300002a54565b565b5f7f447261676f6e0000000000000000000000000000000000000000000000000000910152565b6300002ad16006630000198e565b906300002ae2602083016300002a9c565b565b6300002af06300002ac3565b90565b60407f2e696f2f00000000000000000000000000000000000000000000000000000000917f68747470733a2f2f6f7a6f6e65363064363663383732316634366534346537355f8201527f3662366130383461663936643830336632623936362e6f7a6f6e6573746f726560208201520152565b6300002b746044630000198e565b906300002b85602083016300002af3565b565b6300002b936300002b66565b90565b90565b6300002bb76300002bb06300002bbe926300002b96565b63000001bb565b63000004c3565b90565b6300002c5164174876e8006300002c486300002bdd6300003aa9565b6300002c3d6300002c326300002bf36300001954565b946300002c0f6300002c0563000019f5565b5f88016300001a04565b6300002c2b6300002c206300001a9b565b602088016300001a04565b6300001aad565b604085016300001ad5565b606083016300001ae7565b600163000021e1565b63000032426300002c706300002c69601163000021f4565b630000228a565b6300002cbd816300002cb55f6300002cae6300002c8d630000234b565b6300002ca76300002c9f8463000022fc565b8663000022d1565b6300001ad5565b63000022fc565b9063000022d1565b51506300002d0d816300002d0560016300002cfe6300002cdd63000023be565b6300002cf76300002cef84630000236f565b8663000022d1565b6300001ad5565b630000236f565b9063000022d1565b51506300002d5d816300002d5560026300002d4e6300002d2d6300002431565b6300002d476300002d3f8463000023e2565b8663000022d1565b6300001ad5565b63000023e2565b9063000022d1565b51506300002dad816300002da560036300002d9e6300002d7d63000024a4565b6300002d976300002d8f846300002455565b8663000022d1565b6300001ad5565b6300002455565b9063000022d1565b51506300002dfd816300002df560046300002dee6300002dcd6300002517565b6300002de76300002ddf8463000024c8565b8663000022d1565b6300001ad5565b63000024c8565b9063000022d1565b51506300002e4d816300002e4560056300002e3e6300002e1d630000258a565b6300002e376300002e2f84630000253b565b8663000022d1565b6300001ad5565b630000253b565b9063000022d1565b51506300002e9d816300002e9560066300002e8e6300002e6d63000025fd565b6300002e876300002e7f8463000025ae565b8663000022d1565b6300001ad5565b63000025ae565b9063000022d1565b51506300002eed816300002ee560076300002ede6300002ebd6300002670565b6300002ed76300002ecf846300002621565b8663000022d1565b6300001ad5565b6300002621565b9063000022d1565b51506300002f3d816300002f3560086300002f2e6300002f0d63000026e3565b6300002f276300002f1f846300002694565b8663000022d1565b6300001ad5565b6300002694565b9063000022d1565b51506300002f8d816300002f8560096300002f7e6300002f5d6300002756565b6300002f776300002f6f846300002707565b8663000022d1565b6300001ad5565b6300002707565b9063000022d1565b51506300002fdd816300002fd5600a6300002fce6300002fad63000027c9565b6300002fc76300002fbf84630000277a565b8663000022d1565b6300001ad5565b630000277a565b9063000022d1565b5150630000302d816300003025600b630000301e6300002ffd630000283c565b6300003017630000300f8463000027ed565b8663000022d1565b6300001ad5565b63000027ed565b9063000022d1565b5150630000307d816300003075600c630000306e630000304d63000028af565b6300003067630000305f846300002860565b8663000022d1565b6300001ad5565b6300002860565b9063000022d1565b515063000030cd8163000030c5600d63000030be630000309d6300002922565b63000030b763000030af8463000028d3565b8663000022d1565b6300001ad5565b63000028d3565b9063000022d1565b5150630000311d816300003115600e630000310e63000030ed6300002995565b630000310763000030ff846300002946565b8663000022d1565b6300001ad5565b6300002946565b9063000022d1565b5150630000316d816300003165600f630000315e630000313d6300002a08565b6300003157630000314f8463000029b9565b8663000022d1565b6300001ad5565b63000029b9565b9063000022d1565b515063000031bd8163000031b5601063000031ae630000318d6300002a7b565b63000031a7630000319f846300002a2c565b8663000022d1565b6300001ad5565b6300002a2c565b9063000022d1565b5150630000323967016345785d8a000091630000322e630000322363000031e46300001954565b94630000320063000031f66300002ae4565b5f88016300001a04565b630000321c63000032116300002b87565b602088016300001a04565b6300002b99565b604085016300001ad5565b606083016300001ae7565b600563000021e1565b565b606090565b90565b630000326a63000032636300003271926300003249565b63000001bb565b63000004c3565b90565b5f7f4c696f6e5f5f3100000000000000000000000000000000000000000000000000910152565b63000032a96007630000198e565b9063000032ba602083016300003274565b565b5f7f4c696f6e5f5f3200000000000000000000000000000000000000000000000000910152565b63000032f16007630000198e565b9063000033026020830163000032bc565b565b5f7f4c696f6e5f5f3300000000000000000000000000000000000000000000000000910152565b63000033396007630000198e565b90630000334a602083016300003304565b565b5f7f4c696f6e5f5f3400000000000000000000000000000000000000000000000000910152565b63000033816007630000198e565b90630000339260208301630000334c565b565b5f7f4c696f6e5f5f3500000000000000000000000000000000000000000000000000910152565b63000033c96007630000198e565b9063000033da602083016300003394565b565b5f7f4c696f6e5f5f3600000000000000000000000000000000000000000000000000910152565b63000034116007630000198e565b9063000034226020830163000033dc565b565b5f7f4c696f6e5f5f3700000000000000000000000000000000000000000000000000910152565b63000034596007630000198e565b90630000346a602083016300003424565b565b5f7f4c696f6e5f5f3800000000000000000000000000000000000000000000000000910152565b63000034a16007630000198e565b9063000034b260208301630000346c565b565b5f7f4c696f6e5f5f3900000000000000000000000000000000000000000000000000910152565b63000034e96007630000198e565b9063000034fa6020830163000034b4565b565b5f7f4c696f6e5f5f3130000000000000000000000000000000000000000000000000910152565b63000035316008630000198e565b9063000035426020830163000034fc565b565b5f7f4c696f6e5f5f3131000000000000000000000000000000000000000000000000910152565b63000035796008630000198e565b90630000358a602083016300003544565b565b5f7f4c696f6e5f5f3132000000000000000000000000000000000000000000000000910152565b63000035c16008630000198e565b9063000035d260208301630000358c565b565b5f7f4c696f6e5f5f3133000000000000000000000000000000000000000000000000910152565b63000036096008630000198e565b90630000361a6020830163000035d4565b565b5f7f4c696f6e5f5f3134000000000000000000000000000000000000000000000000910152565b63000036516008630000198e565b90630000366260208301630000361c565b565b5f7f4c696f6e5f5f3135000000000000000000000000000000000000000000000000910152565b63000036996008630000198e565b9063000036aa602083016300003664565b565b5f7f4c696f6e5f5f3136000000000000000000000000000000000000000000000000910152565b63000036e16008630000198e565b9063000036f26020830163000036ac565b565b5f7f4c696f6e5f5f3137000000000000000000000000000000000000000000000000910152565b63000037296008630000198e565b90630000373a6020830163000036f4565b565b5f7f4c696f6e5f5f3138000000000000000000000000000000000000000000000000910152565b63000037716008630000198e565b90630000378260208301630000373c565b565b90565b63000037a5630000379e63000037ac926300003784565b63000001bb565b63000004c3565b90565b5f7f4c696f6e5f5f3139000000000000000000000000000000000000000000000000910152565b63000037e46008630000198e565b9063000037f56020830163000037af565b565b90565b63000038186300003811630000381f9263000037f7565b63000001bb565b63000004c3565b90565b5f7f4c696f6e5f5f3230000000000000000000000000000000000000000000000000910152565b63000038576008630000198e565b906300003868602083016300003822565b565b90565b630000388b6300003884630000389292630000386a565b63000001bb565b63000004c3565b90565b5f7f4c696f6e5f5f3231000000000000000000000000000000000000000000000000910152565b63000038ca6008630000198e565b9063000038db602083016300003895565b565b90565b63000038fe63000038f763000039059263000038dd565b63000001bb565b63000004c3565b90565b5f7f4c696f6e5f5f3232000000000000000000000000000000000000000000000000910152565b630000393d6008630000198e565b90630000394e602083016300003908565b565b90565b6300003971630000396a6300003978926300003950565b63000001bb565b63000004c3565b90565b5f7f4c696f6e5f5f3233000000000000000000000000000000000000000000000000910152565b63000039b06008630000198e565b9063000039c160208301630000397b565b565b90565b63000039e463000039dd63000039eb9263000039c3565b63000001bb565b63000004c3565b90565b5f7f4c696f6e5f5f3234000000000000000000000000000000000000000000000000910152565b6300003a236008630000198e565b906300003a346020830163000039ee565b565b90565b6300003a576300003a506300003a5e926300003a36565b63000001bb565b63000004c3565b90565b5f7f4c696f6e5f5f3235000000000000000000000000000000000000000000000000910152565b6300003a966008630000198e565b906300003aa7602083016300003a61565b565b6300003ab56300003244565b506300003ad06300003ac96019630000324c565b630000228a565b6300003b1d816300003b155f6300003b0e6300003aed630000329b565b6300003b076300003aff8463000022fc565b8663000022d1565b6300001ad5565b63000022fc565b9063000022d1565b51506300003b6d816300003b6560016300003b5e6300003b3d63000032e3565b6300003b576300003b4f84630000236f565b8663000022d1565b6300001ad5565b630000236f565b9063000022d1565b51506300003bbd816300003bb560026300003bae6300003b8d630000332b565b6300003ba76300003b9f8463000023e2565b8663000022d1565b6300001ad5565b63000023e2565b9063000022d1565b51506300003c0d816300003c0560036300003bfe6300003bdd6300003373565b6300003bf76300003bef846300002455565b8663000022d1565b6300001ad5565b6300002455565b9063000022d1565b51506300003c5d816300003c5560046300003c4e6300003c2d63000033bb565b6300003c476300003c3f8463000024c8565b8663000022d1565b6300001ad5565b63000024c8565b9063000022d1565b51506300003cad816300003ca560056300003c9e6300003c7d6300003403565b6300003c976300003c8f84630000253b565b8663000022d1565b6300001ad5565b630000253b565b9063000022d1565b51506300003cfd816300003cf560066300003cee6300003ccd630000344b565b6300003ce76300003cdf8463000025ae565b8663000022d1565b6300001ad5565b63000025ae565b9063000022d1565b51506300003d4d816300003d4560076300003d3e6300003d1d6300003493565b6300003d376300003d2f846300002621565b8663000022d1565b6300001ad5565b6300002621565b9063000022d1565b51506300003d9d816300003d9560086300003d8e6300003d6d63000034db565b6300003d876300003d7f846300002694565b8663000022d1565b6300001ad5565b6300002694565b9063000022d1565b51506300003ded816300003de560096300003dde6300003dbd6300003523565b6300003dd76300003dcf846300002707565b8663000022d1565b6300001ad5565b6300002707565b9063000022d1565b51506300003e3d816300003e35600a6300003e2e6300003e0d630000356b565b6300003e276300003e1f84630000277a565b8663000022d1565b6300001ad5565b630000277a565b9063000022d1565b51506300003e8d816300003e85600b6300003e7e6300003e5d63000035b3565b6300003e776300003e6f8463000027ed565b8663000022d1565b6300001ad5565b63000027ed565b9063000022d1565b51506300003edd816300003ed5600c6300003ece6300003ead63000035fb565b6300003ec76300003ebf846300002860565b8663000022d1565b6300001ad5565b6300002860565b9063000022d1565b51506300003f2d816300003f25600d6300003f1e6300003efd6300003643565b6300003f176300003f0f8463000028d3565b8663000022d1565b6300001ad5565b63000028d3565b9063000022d1565b51506300003f7d816300003f75600e6300003f6e6300003f4d630000368b565b6300003f676300003f5f846300002946565b8663000022d1565b6300001ad5565b6300002946565b9063000022d1565b51506300003fcd816300003fc5600f6300003fbe6300003f9d63000036d3565b6300003fb76300003faf8463000029b9565b8663000022d1565b6300001ad5565b63000029b9565b9063000022d1565b5150630000401d8163000040156010630000400e6300003fed630000371b565b63000040076300003fff846300002a2c565b8663000022d1565b6300001ad5565b6300002a2c565b9063000022d1565b5150630000406d8163000040656011630000405e630000403d6300003763565b6300004057630000404f8463000021f4565b8663000022d1565b6300001ad5565b63000021f4565b9063000022d1565b515063000040bd8163000040b5601263000040ae630000408d63000037d6565b63000040a7630000409f846300003787565b8663000022d1565b6300001ad5565b6300003787565b9063000022d1565b5150630000410d816300004105601363000040fe63000040dd6300003849565b63000040f763000040ef8463000037fa565b8663000022d1565b6300001ad5565b63000037fa565b9063000022d1565b5150630000415d8163000041556014630000414e630000412d63000038bc565b6300004147630000413f84630000386d565b8663000022d1565b6300001ad5565b630000386d565b9063000022d1565b515063000041ad8163000041a56015630000419e630000417d630000392f565b6300004197630000418f8463000038e0565b8663000022d1565b6300001ad5565b63000038e0565b9063000022d1565b515063000041fd8163000041f5601663000041ee63000041cd63000039a2565b63000041e763000041df846300003953565b8663000022d1565b6300001ad5565b6300003953565b9063000022d1565b5150630000424d8163000042456017630000423e630000421d6300003a15565b6300004237630000422f8463000039c6565b8663000022d1565b6300001ad5565b63000039c6565b9063000022d1565b5150630000429d8163000042956018630000428e630000426d6300003a88565b6300004287630000427f846300003a39565b8663000022d1565b6300001ad5565b6300003a39565b9063000022d1565b51509056fe60806040526004361015610013575b6100bd565b61001d5f3561002c565b6321dc78510361000e57610088565b60e01c90565b60405190565b5f80fd5b5f80fd5b5f91031261004a57565b61003c565b60018060a01b031690565b6100639061004f565b90565b61006f9061005a565b9052565b9190610086905f60208501940190610066565b565b346100b857610098366004610040565b6100b46100a361012d565b6100ab610032565b91829182610073565b0390f35b610038565b5f80fd5b5f90565b5f1c90565b60018060a01b031690565b6100e16100e6916100c5565b6100ca565b90565b6100f390546100d5565b90565b90565b61010d6101086101129261004f565b6100f6565b61004f565b90565b61011e906100f9565b90565b61012a90610115565b90565b6101356100c1565b506101476101425f6100e9565b610121565b9056fea26469706673582212200fc8076324e2871ab5b0054687bf1dcb51c0b931750a89de3f22b8e8c144e2e764736f6c634300081800336080604052346200002d5762000014620000ae565b6200001e62000033565b6152ad620000cb82396152ad90f35b62000039565b60405190565b5f80fd5b5f1b90565b90620000505f19916200003d565b9181191691161790565b90565b90565b90565b6200007c6200007662000082926200005a565b62000060565b6200005d565b90565b90565b90620000a26200009c620000aa9262000063565b62000085565b825462000042565b9055565b620000bb5f601262000088565b620000c85f601362000088565b56fe60806040526004361015610018575b361561001657005b005b6100225f35610171565b806304047cb01461016c5780630d43aaf21461016757806312065fe0146101625780632b1721971461015d578063379a423c1461015857806341ffe7c414610153578063463ef7c71461014e57806360af454d146101495780637d5886ad146101445780637e5c89371461013f5780638da5cb5b1461013a57806390fb00e714610135578063946894e51461013057806397779e1b1461012b578063abb8c96514610126578063ac3e52c814610121578063b90306ad1461011c578063bda71ada14610117578063e658ebd614610112578063e995b63f1461010d5763f3fef3a30361000e57610a5e565b6109fd565b610994565b610906565b6108dd565b6108b0565b610826565b6107a1565b610733565b610700565b6106cb565b610693565b6105e8565b610583565b61054f565b6104ef565b6104b5565b610429565b6103d1565b610373565b6101cd565b60e01c90565b60405190565b5f80fd5b5f80fd5b5f91031261018f57565b610181565b60018060a01b031690565b6101a890610194565b90565b6101b49061019f565b9052565b91906101cb905f602085019401906101ab565b565b346101fd576101dd366004610185565b6101f96101e8610a8c565b6101f0610177565b918291826101b8565b0390f35b61017d565b5f1c90565b60018060a01b031690565b61021e61022391610202565b610207565b90565b6102309054610212565b90565b60a01c90565b60ff1690565b61024b61025091610233565b610239565b90565b61025d905461023f565b90565b60a81c90565b61027261027791610260565b610239565b90565b6102849054610266565b90565b60b01c90565b61029961029e91610287565b610239565b90565b6102ab905461028d565b90565b60b81c90565b6102c06102c5916102ae565b610239565b90565b6102d290546102b4565b90565b600d6102e25f8201610226565b916102ee5f8301610253565b916102fa5f820161027a565b916103115f61030a8185016102a1565b93016102c8565b90565b151590565b61032290610314565b9052565b909594926103719461036061036a9261035660809661034c60a088019c5f8901906101ab565b6020870190610319565b6040850190610319565b6060830190610319565b0190610319565b565b346103a757610383366004610185565b6103a361038e6102d5565b9161039a959395610177565b95869586610326565b0390f35b61017d565b90565b6103b8906103ac565b9052565b91906103cf905f602085019401906103af565b565b34610401576103e1366004610185565b6103fd6103ec610add565b6103f4610177565b918291826103bc565b0390f35b61017d565b91602061042792949361042060408201965f8301906103af565b01906103af565b565b3461045a57610439366004610185565b610441610b17565b9061045661044d610177565b92839283610406565b0390f35b61017d565b6104688161019f565b0361046f57565b5f80fd5b905035906104808261045f565b565b9060208282031261049b57610498915f01610473565b90565b610181565b91906104b3905f60208501940190610319565b565b346104e5576104e16104d06104cb366004610482565b610c0b565b6104d8610177565b918291826104a0565b0390f35b61017d565b5f0190565b3461051d57610507610502366004610482565b6113d3565b61050f610177565b80610519816104ea565b0390f35b61017d565b919060408382031261054a578061053e610547925f8601610473565b93602001610473565b90565b610181565b3461057e57610568610562366004610522565b906113de565b610570610177565b8061057a816104ea565b0390f35b61017d565b346105b15761059b610596366004610482565b611540565b6105a3610177565b806105ad816104ea565b0390f35b61017d565b6040906105df6105e694969593966105d560608401985f8501906103af565b60208301906103af565b01906101ab565b565b3461061b576105f8366004610185565b6106176106036115a3565b61060e939193610177565b938493846105b6565b0390f35b61017d565b610629816103ac565b0361063057565b5f80fd5b9050359061064182610620565b565b9060208282031261065c57610659915f01610634565b90565b610181565b60409061068a610691949695939661068060608401985f8501906103af565b60208301906103af565b01906103af565b565b346106c6576106c26106ae6106a9366004610643565b6115e3565b6106b9939193610177565b93849384610661565b0390f35b61017d565b346106fb576106db366004610185565b6106f76106e6611622565b6106ee610177565b918291826101b8565b0390f35b61017d565b3461072e57610718610713366004610643565b61174c565b610720610177565b8061072a816104ea565b0390f35b61017d565b346107635761075f61074e610749366004610643565b61176d565b610756610177565b918291826101b8565b0390f35b61017d565b1c90565b61077c9060086107819302610768565b610239565b90565b9061078f915461076c565b90565b61079e600e5f90610784565b90565b346107d1576107b1366004610185565b6107cd6107bc610792565b6107c4610177565b918291826104a0565b0390f35b61017d565b6107df81610314565b036107e657565b5f80fd5b905035906107f7826107d6565b565b9190604083820312610821578061081561081e925f8601610473565b936020016107ea565b90565b610181565b346108555761083f6108393660046107f9565b90611c23565b610847610177565b80610851816104ea565b0390f35b61017d565b919060a0838203126108ab57610872815f8501610473565b926108808260208301610634565b926108a86108918460408501610634565b9361089f8160608601610634565b93608001610634565b90565b610181565b6108c76108be36600461085a565b93929092611e85565b6108cf610177565b806108d9816104ea565b0390f35b6108f06108eb366004610643565b612023565b6108f8610177565b80610902816104ea565b0390f35b346109345761091e610919366004610482565b612076565b610926610177565b80610930816104ea565b0390f35b61017d565b919461098161098b9298979561097760a09661096d6109929a61096360c08a019e5f8b01906103af565b60208901906103af565b60408701906103af565b60608501906101ab565b60808301906103af565b0190610319565b565b346109cb576109a4366004610185565b6109c76109af612081565b926109be969496929192610177565b96879687610939565b0390f35b61017d565b91906040838203126109f857806109ec6109f5925f86016107ea565b93602001610634565b90565b610181565b34610a2c57610a16610a103660046109d0565b9061217e565b610a1e610177565b80610a28816104ea565b0390f35b61017d565b9190604083820312610a595780610a4d610a56925f8601610473565b93602001610634565b90565b610181565b610a72610a6c366004610a31565b90612219565b610a7a610177565b80610a84816104ea565b0390f35b5f90565b610a94610a88565b50610a9f6017610226565b90565b5f90565b90565b610abd610ab8610ac292610194565b610aa6565b610194565b90565b610ace90610aa9565b90565b610ada90610ac5565b90565b610ae5610aa2565b50610aef30610ad1565b3190565b90565b610b02610b0791610202565b610af3565b90565b610b149054610af6565b90565b610b1f610aa2565b50610b28610aa2565b50610b33601c610b0a565b90610b3e601d610b0a565b90565b5f90565b60018060a01b031690565b610b5c610b6191610202565b610b45565b90565b610b6e9054610b50565b90565b610b7a90610ac5565b90565b5f80fd5b601f801991011690565b634e487b7160e01b5f52604160045260245ffd5b90610ba990610b81565b810190811067ffffffffffffffff821117610bc357604052565b610b8b565b60e01b90565b90505190610bdb826107d6565b565b90602082820312610bf657610bf3915f01610bce565b90565b610181565b610c03610177565b3d5f823e3d90fd5b610c13610b41565b50610c556020610c2b610c266002610b64565b610b71565b6319c0642990610c4a8592610c3e610177565b95869485938493610bc8565b8352600483016101b8565b03915afa908115610cc7575f91610c99575b50908115610c74575b5090565b9050610c92610c8c610c86600c610226565b9261019f565b9161019f565b145f610c70565b610cba915060203d8111610cc0575b610cb28183610b9f565b810190610bdd565b5f610c67565b503d610ca8565b610bfb565b60209181520190565b5f7f6f776e2e696e76616c69642e6973536166650000000000000000000000000000910152565b610d096012602092610ccc565b610d1281610cd5565b0190565b610d2b9060208101905f818303910152610cfc565b90565b15610d3557565b610d3d610177565b62461bcd60e51b815280610d5360048201610d16565b0390fd5b60018060a01b031690565b610d6e610d7391610202565b610d57565b90565b610d809054610d62565b90565b610d8c90610ac5565b90565b5f7f6f776d2e66616b652e2064656c65676174650000000000000000000000000000910152565b610dc36012602092610ccc565b610dcc81610d8f565b0190565b610de59060208101905f818303910152610db6565b90565b15610def57565b610df7610177565b62461bcd60e51b815280610e0d60048201610dd0565b0390fd5b610e3e6020610e28610e236002610b64565b610b71565b636a276f9d90610e36610177565b938492610bc8565b82528180610e4e600482016104ea565b03915afa8015610f7057610e69915f91610f42575b50610d2e565b610e7b610e766001610d76565b610d83565b610e8d610e873361019f565b9161019f565b14908115610ea9575b610ea2610ea792610de8565b611294565b565b610eec91506020610ec2610ebd6002610b64565b610b71565b637df73e2790610ee13392610ed5610177565b96879485938493610bc8565b8352600483016101b8565b03915afa918215610f3d57610ea792610ea2915f91610f0f575b50925050610e96565b610f30915060203d8111610f36575b610f288183610b9f565b810190610bdd565b5f610f06565b503d610f1e565b610bfb565b610f63915060203d8111610f69575b610f5b8183610b9f565b810190610bdd565b5f610e63565b503d610f51565b610bfb565b90505190610f8282610620565b565b90602082820312610f9d57610f9a915f01610f75565b90565b610181565b90610fb5610fae610177565b9283610b9f565b565b610fc160a0610fa2565b90565b5f90565b5f90565b610fd4610fb7565b9060208080808086610fe4610fc4565b815201610fef610fc8565b815201610ffa610fc8565b815201611005610fc8565b815201611010610fc8565b81525050565b61101e610fcc565b90565b9061102b90610314565b9052565b90565b61104661104161104b9261102f565b610aa6565b6103ac565b90565b90565b61106561106061106a9261104e565b610aa6565b6103ac565b90565b90565b61108461107f6110899261106d565b610aa6565b6103ac565b90565b906110969061019f565b9052565b6110a4905161019f565b90565b5f1b90565b906110bd60018060a01b03916110a7565b9181191691161790565b6110d090610ac5565b90565b90565b906110eb6110e66110f2926110c7565b6110d3565b82546110ac565b9055565b6111009051610314565b90565b60a01b90565b9061111860ff60a01b91611103565b9181191691161790565b61112b90610314565b90565b90565b9061114661114161114d92611122565b61112e565b8254611109565b9055565b60a81b90565b9061116660ff60a81b91611151565b9181191691161790565b9061118561118061118c92611122565b61112e565b8254611157565b9055565b60b01b90565b906111a560ff60b01b91611190565b9181191691161790565b906111c46111bf6111cb92611122565b61112e565b8254611196565b9055565b60b81b90565b906111e460ff60b81b916111cf565b9181191691161790565b906112036111fe61120a92611122565b61112e565b82546111d5565b9055565b9061128060805f6112869461123082820161122a84880161109a565b906110d6565b611248828201611242602088016110f6565b90611131565b61126082820161125a604088016110f6565b90611170565b611278828201611272606088016110f6565b906111af565b0192016110f6565b906111ee565b565b906112929161120e565b565b6112d69060206112ac6112a76002610b64565b610b71565b631d84be44906112cb33926112bf610177565b96879485938493610bc8565b8352600483016101b8565b03915afa9182156113ce576113659261135e915f916113a0575b50916112fa611016565b92611309600160208601611021565b8061131d6113176001611032565b916103ac565b1461138d575b806113376113316002611051565b916103ac565b1461137a575b61135061134a6003611070565b916103ac565b14611367575b5f830161108c565b600d611288565b565b611375600160808501611021565b611356565b611388600160608601611021565b61133d565b61139b600160408601611021565b611323565b6113c1915060203d81116113c7575b6113b98183610b9f565b810190610f84565b5f6112f0565b503d6113af565b610bfb565b6113dc90610e11565b565b906113eb6113f2926122df565b60116110d6565b6113fa6124d4565b565b60018060a01b031690565b61141361141891610202565b6113fc565b90565b6114259054611407565b90565b61143190610ac5565b90565b90565b61144b61144661145092611434565b610aa6565b610194565b90565b61145c90611437565b90565b5f7f6f776e2e686578626173652e6661696c65640000000000000000000000000000910152565b6114936012602092610ccc565b61149c8161145f565b0190565b6114b59060208101905f818303910152611486565b90565b156114bf57565b6114c7610177565b62461bcd60e51b8152806114dd600482016114a0565b0390fd5b6114ea90610aa9565b90565b6114f6906114e1565b90565b61150290610aa9565b90565b61150e906114f9565b90565b61151a906114f9565b90565b90565b9061153561153061153c92611511565b61151d565b82546110ac565b9055565b61159361158e6115999261157e61155e6115595f61141b565b611428565b61157861157261156d5f611453565b61019f565b9161019f565b146114b8565b61158932600c6110d6565b6114ed565b611505565b5f611520565b6115a1612754565b565b6115ab610aa2565b506115b4610aa2565b506115bd610a88565b506115c86015610b0a565b6115d26016610b0a565b916115dd6017610226565b91929190565b6115eb610aa2565b506115f4610aa2565b506115fd610aa2565b5061161161160b6019610b0a565b91612de3565b9161161c601a610b0a565b91929190565b61162a610a88565b50611635600c610226565b90565b5f7f626b70726d2e696e76616c69642e6f776e65726e6f6465000000000000000000910152565b61166c6017602092610ccc565b61167581611638565b0190565b61168e9060208101905f81830391015261165f565b90565b1561169857565b6116a0610177565b62461bcd60e51b8152806116b660048201611679565b0390fd5b6116e8906116e36116cb6017610226565b6116dd6116d73361019f565b9161019f565b14611691565b61173f565b565b906116f65f19916110a7565b9181191691161790565b61171461170f611719926103ac565b610aa6565b6103ac565b90565b90565b9061173461172f61173b92611700565b61171c565b82546116ea565b9055565b61174a90601061171f565b565b611755906116ba565b565b9061176190611700565b5f5260205260405f2090565b6117846117899161177c610a88565b506014611757565b610226565b90565b906117ba60206117a461179f6002610b64565b610b71565b636a276f9d906117b2610177565b938492610bc8565b825281806117ca600482016104ea565b03915afa80156118ec576117e5915f916118be575b50610d2e565b6117f76117f26001610d76565b610d83565b6118096118033361019f565b9161019f565b14918215611825575b61181e61182393610de8565b61193d565b565b6118689250602061183e6118396002610b64565b610b71565b637df73e279061185d3392611851610177565b97889485938493610bc8565b8352600483016101b8565b03915afa9283156118b9576118239361181e915f9161188b575b50935050611812565b6118ac915060203d81116118b2575b6118a48183610b9f565b810190610bdd565b5f611882565b503d61189a565b610bfb565b6118df915060203d81116118e5575b6118d78183610b9f565b810190610bdd565b5f6117df565b503d6118cd565b610bfb565b61190561190061190a92611434565b610aa6565b6103ac565b90565b634e487b7160e01b5f52601160045260245ffd5b61192a906103ac565b5f1981146119385760010190565b61190d565b905f14611c0b57611985602061195b6119566002610b64565b610b71565b631d84be449061197a339261196e610177565b95869485938493610bc8565b8352600483016101b8565b03915afa908115611c06575f91611bd8575b506119a45f600d01610253565b80611bbd575b80611b98575b611b85575b6119c15f600d01610253565b80611b6a575b80611b45575b611b32575b6119de5f600d01610253565b9081611b16575b5080611af1575b611ade575b6119fa5f6118f1565b611a065f600d0161027a565b611ad0575b611a175f600d016102a1565b611ac2575b611a285f600d016102c8565b611ab4575b611a395f600d01610253565b9081611a98575b5080611a73575b611a50575b505b565b611a5b90600c6110d6565b611a6d611a66611016565b600d611288565b5f611a4c565b50611a805f600d01610226565b611a92611a8c8361019f565b9161019f565b14611a47565b9050611aad611aa76002611051565b916103ac565b145f611a40565b611abd90611921565b611a2d565b611acb90611921565b611a1c565b611ad990611921565b611a0b565b611aec60015f600d016111ee565b6119f1565b50611afe5f600d01610226565b611b10611b0a8361019f565b9161019f565b146119ec565b9050611b2b611b256003611070565b916103ac565b145f6119e5565b611b4060015f600d016111af565b6119d2565b50611b525f600d01610226565b611b64611b5e8461019f565b9161019f565b146119cd565b5080611b7f611b796002611051565b916103ac565b146119c7565b611b9360015f600d01611170565b6119b5565b50611ba55f600d01610226565b611bb7611bb18461019f565b9161019f565b146119b0565b5080611bd2611bcc6001611032565b916103ac565b146119aa565b611bf9915060203d8111611bff575b611bf18183610b9f565b810190610f84565b5f611997565b503d611be7565b610bfb565b50611c1e611c17611016565b600d611288565b611a4e565b90611c2d9161178c565b565b611c3b611c4091610202565b610239565b90565b611c4d9054611c2f565b90565b5f7f626b70726d2e73746f7070656400000000000000000000000000000000000000910152565b611c84600d602092610ccc565b611c8d81611c50565b0190565b611ca69060208101905f818303910152611c77565b90565b15611cb057565b611cb8610177565b62461bcd60e51b815280611cce60048201611c91565b0390fd5b90611cfa94939291611cf5611cf0611cea600e611c43565b15610314565b611ca9565b611cfc565b565b90611d2e94939291611d29611d116017610226565b611d23611d1d3361019f565b9161019f565b14611691565b611d8d565b565b90565b611d47611d42611d4c92611d30565b610aa6565b6103ac565b90565b90565b611d66611d61611d6b92611d4f565b610aa6565b6103ac565b90565b90565b611d85611d80611d8a92611d6e565b610aa6565b6103ac565b90565b91909392611d9b6013610b0a565b611db4611dae611da9612e50565b6103ac565b916103ac565b10611e48575b83611dce611dc860c8611d33565b916103ac565b14611e35575b83611de8611de260c9611d52565b916103ac565b14611e1f575b50505080611e05611dff60ca611d71565b916103ac565b14611e0f575b5050565b611e1891613dae565b5f80611e0b565b611e2d929185909192613836565b5f8080611dee565b611e43838684908492613077565b611dd4565b611e5b611e545f6118f1565b601561171f565b611e6e611e675f6118f1565b601661171f565b611e80611e79612e50565b601361171f565b611dba565b90611e9294939291611cd2565b565b5f7f6f776e2e6e6f6e617574682e44414f0000000000000000000000000000000000910152565b611ec8600f602092610ccc565b611ed181611e94565b0190565b611eea9060208101905f818303910152611ebb565b90565b15611ef457565b611efc610177565b62461bcd60e51b815280611f1260048201611ed5565b0390fd5b611f44906020611f2e611f296002610b64565b610b71565b636a276f9d90611f3c610177565b948592610bc8565b82528180611f54600482016104ea565b03915afa918215611fd657611fa692611f74915f91611fa8575b50610d2e565b611fa1611f89611f846001610d76565b610d83565b611f9b611f953361019f565b9161019f565b14611eed565b611fe7565b565b611fc9915060203d8111611fcf575b611fc18183610b9f565b810190610bdd565b5f611f6e565b503d611fb7565b610bfb565b611fe490610ac5565b90565b5f80808093612005612000611ffb84611453565b6114ed565b611fdb565b82821561201a575bf11561201557565b610bfb565b506108fc61200d565b61202c90611f16565b565b61205c9061205761203f6017610226565b61205161204b3361019f565b9161019f565b14611691565b61205e565b565b6120749061206d81600c6110d6565b60176110d6565b565b61207f9061202e565b565b612089610aa2565b50612092610aa2565b5061209b610aa2565b506120a4610a88565b506120ad610aa2565b506120b6610b41565b506120c1600f610b0a565b906120cc6010610b0a565b916120d7601b610b0a565b916120e26011610226565b916120ed6012610b0a565b916120f8600e611c43565b91959493929190565b906121309161212b6121136017610226565b61212561211f3361019f565b9161019f565b14611691565b612168565b565b9061213e60ff916110a7565b9181191691161790565b9061215d61215861216492611122565b61112e565b8254612132565b9055565b61217461217c92613f70565b50600e612148565b565b9061218891612101565b565b5f7f6f776e2e72657374726963746564000000000000000000000000000000000000910152565b6121be600e602092610ccc565b6121c78161218a565b0190565b6121e09060208101905f8183039101526121b1565b90565b156121ea57565b6121f2610177565b62461bcd60e51b815280612208600482016121cb565b0390fd5b50506122175f6121e3565b565b906122239161220c565b565b5f7f626b70726d2e696e69742e6661696c6564000000000000000000000000000000910152565b6122596011602092610ccc565b61226281612225565b0190565b61227b9060208101905f81830391015261224c565b90565b1561228557565b61228d610177565b62461bcd60e51b8152806122a360048201612266565b0390fd5b60018060a01b031690565b6122be6122c391610202565b6122a7565b90565b6122d090546122b2565b90565b6122dc90610ac5565b90565b61230d906123086122f0600f610b0a565b6123026122fc5f6118f1565b916103ac565b1461227e565b611540565b61231f612318612e50565b601361171f565b61233361232c6013610b0a565b601b61171f565b6123476123406013610b0a565b601a61171f565b6123523360176110d6565b612393602061236961236460046122c6565b6122d3565b63b56e412990612388339261237c610177565b95869485938493610bc8565b8352600483016101b8565b03915afa80156123e0576123b0915f916123b2575b50600f61171f565b565b6123d3915060203d81116123d9575b6123cb8183610b9f565b810190610f84565b5f6123a8565b503d6123c1565b610bfb565b5490565b90565b6124006123fb612405926123e9565b610aa6565b6103ac565b90565b90565b5f5260205f2090565b634e487b7160e01b5f52603260045260245ffd5b5490565b61243581612428565b82101561244f5761244760019161240b565b910201905f90565b612414565b1b90565b9190600861247391029161246d5f1984612454565b92612454565b9181191691161790565b919061249361248e61249b93611700565b61171c565b908354612458565b9055565b90815491680100000000000000008310156124cf57826124c79160016124cd9501815561242c565b9061247d565b565b610b8b565b6124de600f610b0a565b5b6124e960186123e5565b6124fc6124f6600f6123ec565b916103ac565b1115806125aa575b156125a757602061255c9161252361251c6018612408565b829061249f565b61253561253060046122c6565b6122d3565b61255163175724f6612545610177565b95869485938493610bc8565b8352600483016103bc565b03915afa9081156125a2575f91612574575b506124df565b612595915060203d811161259b575b61258d8183610b9f565b810190610f84565b5f61256e565b503d612583565b610bfb565b50565b50806125be6125b85f6118f1565b916103ac565b11612504565b905051906125d18261045f565b565b906020828203126125ec576125e9915f016125c4565b90565b610181565b6125fa90610aa9565b90565b612606906125f1565b90565b612612906125f1565b90565b90565b9061262d61262861263492612609565b612615565b82546110ac565b9055565b61264190610aa9565b90565b61264d90612638565b90565b61265990612638565b90565b90565b9061267461266f61267b92612650565b61265c565b82546110ac565b9055565b61268890610aa9565b90565b6126949061267f565b90565b6126a09061267f565b90565b90565b906126bb6126b66126c292612697565b6126a3565b82546110ac565b9055565b6126cf90610aa9565b90565b6126db906126c6565b90565b6126e7906126c6565b90565b90565b906127026126fd612709926126de565b6126ea565b82546110ac565b9055565b61271690610aa9565b90565b6127229061270d565b90565b61272e9061270d565b90565b90565b9061274961274461275092612725565b612731565b82546110ac565b9055565b6127656127605f61141b565b611428565b61277f6127796127745f611453565b61019f565b9161019f565b14612dbc576127b0602061279a6127955f61141b565b611428565b634162169f906127a8610177565b938492610bc8565b825281806127c0600482016104ea565b03915afa908115612db7576127e7916127e0915f91612d89575b506125fd565b6001612618565b61281360206127fd6127f85f61141b565b611428565b63b57dbdc69061280b610177565b938492610bc8565b82528180612823600482016104ea565b03915afa908115612d845761284a91612843915f91612d56575b50612644565b600261265f565b612876602061286061285b5f61141b565b611428565b63cfbffe539061286e610177565b938492610bc8565b82528180612886600482016104ea565b03915afa908115612d51576128ad916128a6915f91612d23575b5061268b565b60036126a6565b6128d960206128c36128be5f61141b565b611428565b63ab6e844f906128d1610177565b938492610bc8565b825281806128e9600482016104ea565b03915afa908115612d1e5761291091612909915f91612cf0575b506126d2565b60046126ed565b61293c60206129266129215f61141b565b611428565b639a7c407790612934610177565b938492610bc8565b8252818061294c600482016104ea565b03915afa908115612ceb576129739161296c915f91612cbd575b50612719565b6005612734565b61299f60206129896129845f61141b565b611428565b63aa0ddc1690612997610177565b938492610bc8565b825281806129af600482016104ea565b03915afa8015612cb8576129cc915f91612c8a575b5060076110d6565b6129f860206129e26129dd5f61141b565b611428565b636b4aefc6906129f0610177565b938492610bc8565b82528180612a08600482016104ea565b03915afa8015612c8557612a25915f91612c57575b5060086110d6565b612a516020612a3b612a365f61141b565b611428565b6324768d9190612a49610177565b938492610bc8565b82528180612a61600482016104ea565b03915afa8015612c5257612a7e915f91612c24575b50600b6110d6565b612aaa6020612a94612a8f5f61141b565b611428565b636402742790612aa2610177565b938492610bc8565b82528180612aba600482016104ea565b03915afa8015612c1f57612ad7915f91612bf1575b5060096110d6565b612b036020612aed612ae85f61141b565b611428565b6330125cf590612afb610177565b938492610bc8565b82528180612b13600482016104ea565b03915afa8015612bec57612b30915f91612bbe575b50600a6110d6565b612b5c6020612b46612b415f61141b565b611428565b63d3d1b09690612b54610177565b938492610bc8565b82528180612b6c600482016104ea565b03915afa8015612bb957612b89915f91612b8b575b5060066110d6565b565b612bac915060203d8111612bb2575b612ba48183610b9f565b8101906125d3565b5f612b81565b503d612b9a565b610bfb565b612bdf915060203d8111612be5575b612bd78183610b9f565b8101906125d3565b5f612b28565b503d612bcd565b610bfb565b612c12915060203d8111612c18575b612c0a8183610b9f565b8101906125d3565b5f612acf565b503d612c00565b610bfb565b612c45915060203d8111612c4b575b612c3d8183610b9f565b8101906125d3565b5f612a76565b503d612c33565b610bfb565b612c78915060203d8111612c7e575b612c708183610b9f565b8101906125d3565b5f612a1d565b503d612c66565b610bfb565b612cab915060203d8111612cb1575b612ca38183610b9f565b8101906125d3565b5f6129c4565b503d612c99565b610bfb565b612cde915060203d8111612ce4575b612cd68183610b9f565b8101906125d3565b5f612966565b503d612ccc565b610bfb565b612d11915060203d8111612d17575b612d098183610b9f565b8101906125d3565b5f612903565b503d612cff565b610bfb565b612d44915060203d8111612d4a575b612d3c8183610b9f565b8101906125d3565b5f6128a0565b503d612d32565b610bfb565b612d77915060203d8111612d7d575b612d6f8183610b9f565b8101906125d3565b5f61283d565b503d612d65565b610bfb565b612daa915060203d8111612db0575b612da28183610b9f565b8101906125d3565b5f6127da565b503d612d98565b610bfb565b565b612dcd612dd3919392936103ac565b926103ac565b8201809211612dde57565b61190d565b612deb610aa2565b50612df4612e50565b612e19612e13612e0e612e07601a610b0a565b8590612dbe565b6103ac565b916103ac565b115f14612e3f57612e36612e3c91612e31601a610b0a565b612dbe565b5b614452565b90565b50612e3c612e4b612e50565b612e37565b612e58610aa2565b50612e866020612e70612e6b6002610b64565b610b71565b63262a9dff90612e7e610177565b938492610bc8565b82528180612e96600482016104ea565b03915afa908115612eda575f91612eac575b5090565b612ecd915060203d8111612ed3575b612ec58183610b9f565b810190610f84565b5f612ea8565b503d612ebb565b610bfb565b612ee890610aa9565b90565b612ef490612edf565b90565b612f0090610ac5565b90565b9091606082840312612f3857612f35612f1e845f8501610bce565b93612f2c8160208601610f75565b93604001610f75565b90565b610181565b5f7f626b70726d2e6e6f7072696d6500000000000000000000000000000000000000910152565b612f71600d602092610ccc565b612f7a81612f3d565b0190565b612f939060208101905f818303910152612f64565b90565b60018060a01b031690565b612fad612fb291610202565b612f96565b90565b612fbf9054612fa1565b90565b612fcb90610ac5565b90565b5f910312612fd857565b610181565b612fec612ff2919392936103ac565b926103ac565b8203918211612ffd57565b61190d565b61300b90611d33565b9052565b949290979695939160e08601985f8701613028916101ab565b60208601613035916101ab565b60408501613042916103af565b6060840161304f916103af565b6080830161305c916103af565b60a08201613069916103af565b60c00161307591613002565b565b909192506130a7602061309161308c5f61141b565b611428565b6301c0d48b9061309f610177565b938492610bc8565b825281806130b7600482016104ea565b03915afa908115613485576130e16130dc613114936060935f91613457575b50612eeb565b612ef7565b632172b2d2906131096130f4600c610226565b926130fd610177565b95869485938493610bc8565b8352600483016101b8565b03915afa8015613452575f808093909261341a575b506131379091929115610314565b6133f85761314491612dbe565b928161316061315a6131555f611453565b61019f565b9161019f565b14155f1461322657506131756001601e612148565b61317e81614615565b92806131a561319f61319a876131946010610b0a565b90612dbe565b6103ac565b916103ac565b115f14613213576131ba6131c2918590612fdd565b5b601061171f565b6131cd5f601e612148565b5b61320e3391929334429060c8927fc9c5d15cd3df68369726731ef14e6c59e1c88f9323746d9d7b898c49045439c297613205610177565b9788978861300f565b0390a1565b506131c26132216010610b0a565b6131bb565b9261323290601061171f565b34613260602061324a6132456003612fb5565b612fc2565b63b252fbe190613258610177565b938492610bc8565b82528180613270600482016104ea565b03915afa9081156133f35761329691613290915f916133c5575b506103ac565b916103ac565b10156132a2575b6131ce565b6132ce60206132b86132b35f61141b565b611428565b6301c0d48b906132c6610177565b938492610bc8565b825281806132de600482016104ea565b03915afa9081156133c057613303916132fe915f91613392575b50612eeb565b612ef7565b635edc4a893491909190613317600c610226565b90803b1561338d5761333c5f9361334795613330610177565b96879586948593610bc8565b8352600483016101b8565b03925af180156133885761335c575b5061329d565b61337b905f3d8111613381575b6133738183610b9f565b810190612fce565b5f613356565b503d613369565b610bfb565b610b7d565b6133b3915060203d81116133b9575b6133ab8183610b9f565b8101906125d3565b5f6132f8565b503d6133a1565b610bfb565b6133e6915060203d81116133ec575b6133de8183610b9f565b810190610f84565b5f61328a565b503d6133d4565b610bfb565b613400610177565b62461bcd60e51b81528061341660048201612f7e565b0390fd5b90506131379250613442915060603d811161344b575b61343a8183610b9f565b810190612f03565b92919091613129565b503d613430565b610bfb565b613478915060203d811161347e575b6134708183610b9f565b8101906125d3565b5f6130d6565b503d613466565b610bfb565b5f7f626b70726d2e6e6f742e61637469766174656400000000000000000000000000910152565b6134be6013602092610ccc565b6134c78161348a565b0190565b6134e09060208101905f8183039101526134b1565b90565b156134ea57565b6134f2610177565b62461bcd60e51b815280613508600482016134cb565b0390fd5b5f7f626b70726d2e62726561636865642e6461696c796c696d697400000000000000910152565b6135406019602092610ccc565b6135498161350c565b0190565b6135629060208101905f818303910152613533565b90565b1561356c57565b613574610177565b62461bcd60e51b81528061358a6004820161354d565b0390fd5b5f7f626b70726d2e6c6f776f726d61782e7174790000000000000000000000000000910152565b6135c26012602092610ccc565b6135cb8161358e565b0190565b6135e49060208101905f8183039101526135b5565b90565b156135ee57565b6135f6610177565b62461bcd60e51b81528061360c600482016135cf565b0390fd5b5f7f626b70726d2e756e736166652e4f524331313535000000000000000000000000910152565b6136446014602092610ccc565b61364d81613610565b0190565b6136669060208101905f818303910152613637565b90565b1561367057565b613678610177565b62461bcd60e51b81528061368e60048201613651565b0390fd5b909594926136dd946136cc6136d6926136c26080966136b860a088019c5f8901906101ab565b60208701906103af565b60408501906103af565b60608301906103af565b01906103af565b565b6136e890610194565b90565b6136f4816136df565b036136fb57565b5f80fd5b9050519061370c826136eb565b565b9060208282031261372757613724915f016136ff565b90565b610181565b5190565b5f7f626b70726d2e6d696e742e6661696c6564000000000000000000000000000000910152565b6137646011602092610ccc565b61376d81613730565b0190565b6137869060208101905f818303910152613757565b90565b1561379057565b613798610177565b62461bcd60e51b8152806137ae60048201613771565b0390fd5b60016137be91016103ac565b90565b6137ca90611d52565b9052565b949290979695939160e08601985f87016137e7916101ab565b602086016137f4916101ab565b60408501613801916103af565b6060840161380e916103af565b6080830161381b916103af565b60a08201613828916103af565b60c001613834916137c1565b565b90919261385e613846600f610b0a565b6138586138525f6118f1565b916103ac565b116134e3565b61389561386b6015610b0a565b602061387f61387a6003612fb5565b612fc2565b63c776fdd79061388d610177565b948592610bc8565b825281806138a5600482016104ea565b03915afa8015613d34576138c76138cd916138d3945f91613d06575b506103ac565b916103ac565b10613565565b8361390160206138eb6138e66003612fb5565b612fc2565b63f54a77c8906138f9610177565b938492610bc8565b82528180613911600482016104ea565b03915afa908115613d015761393791613931915f91613cd3575b506103ac565b916103ac565b101580613c30575b613948906135e7565b613989602061395f61395a6002610b64565b610b71565b6319c064299061397e8692613972610177565b95869485938493610bc8565b8352600483016101b8565b03915afa8015613c2b576139a4915f91613bfd575b50613669565b806139b76139b15f6118f1565b916103ac565b115f14613b6257613a46613a41613a2b613b5d935b946139d7600c610226565b613a1c8891613a0d8b8a6139eb6013610b0a565b916139f4610177565b968795600460208801630a76655760e21b815201613692565b60208201810382520382610b9f565b613a255f6118f1565b91614d1a565b6020613a368261372c565b81830101910161370e565b611fdb565b91613a6c83613a65613a5f613a5a5f611453565b61019f565b9161019f565b1415613789565b613a9d83613a986014613a87613a826012610b0a565b6137b2565b613a9281601261171f565b90611757565b6110d6565b613af8613ab2613aad60046122c6565b6122d3565b613ada613ae984613ac1610177565b92839160046020840163986b729560e01b8152016103bc565b60208201810382520382610b9f565b613af25f6118f1565b91614d1a565b50613b04858290614f6c565b613b20613b19613b146015610b0a565b611921565b601561171f565b3392939490429060c9927fc9c5d15cd3df68369726731ef14e6c59e1c88f9323746d9d7b898c49045439c297613b54610177565b978897886137ce565b0390a1565b50613ba46020613b7a613b756003612fb5565b612fc2565b635eac822590613b998792613b8d610177565b95869485938493610bc8565b8352600483016103bc565b03915afa908115613bf857613a41613a2b613b5d93613a46935f91613bca575b506139cc565b613beb915060203d8111613bf1575b613be38183610b9f565b810190610f84565b5f613bc4565b503d613bd9565b610bfb565b613c1e915060203d8111613c24575b613c168183610b9f565b810190610bdd565b5f61399e565b503d613c0c565b610bfb565b50613c5f846020613c49613c446003612fb5565b612fc2565b63c32cfa9990613c57610177565b948592610bc8565b82528180613c6f600482016104ea565b03915afa8015613cce57613c91613c9791613948945f91613ca0575b506103ac565b916103ac565b1115905061393f565b613cc1915060203d8111613cc7575b613cb98183610b9f565b810190610f84565b5f613c8b565b503d613caf565b610bfb565b613cf4915060203d8111613cfa575b613cec8183610b9f565b810190610f84565b5f61392b565b503d613ce2565b610bfb565b613d27915060203d8111613d2d575b613d1f8183610b9f565b810190610f84565b5f6138c1565b503d613d15565b610bfb565b613d42906118f1565b9052565b949290979695939160e08601985f8701613d5f916101ab565b60208601613d6c916101ab565b60408501613d79916103af565b60608401613d8691613d39565b60808301613d93916103af565b60a08201613da0916103af565b60c001613dac916103af565b565b33613dfe613dbb5f611453565b928094613dc85f92613f70565b4291927fc9c5d15cd3df68369726731ef14e6c59e1c88f9323746d9d7b898c49045439c297613df5610177565b97889788613d46565b0390a1565b5f7f626b70726d2e6f7665722f756e6465722e6c696d697400000000000000000000910152565b613e376016602092610ccc565b613e4081613e03565b0190565b613e599060208101905f818303910152613e2a565b90565b15613e6357565b613e6b610177565b62461bcd60e51b815280613e8160048201613e44565b0390fd5b90613e8f90611700565b5f5260205260405f2090565b90565b613eaa613eaf91610202565b613e9b565b90565b613ebc9054613e9e565b90565b90565b613ed1613ed791939293613ebf565b92613ebf565b808301925f82851215818312169285129112151617613ef257565b61190d565b613f0b613f06613f1092613ebf565b610aa6565b613ebf565b90565b90565b90613f2b613f26613f3292613ef7565b613f13565b82546116ea565b9055565b9190613f4c613f47613f5493613ef7565b613f13565b908354612458565b9055565b5f90565b613f6e91613f68613f58565b91613f36565b565b613f78610aa2565b50613f81612e50565b613fa6613fa0613f9b613f94601a610b0a565b8590612dbe565b6103ac565b916103ac565b115f1461438257613fc090613fbb601a610b0a565b612dbe565b5b613fca81614452565b613fe7613fe082613fdb6016610b0a565b612dbe565b601661171f565b613ff1601e611c43565b801561422a575b61400190613e5c565b61400b601e611c43565b5f14614211575f80808061403061402b6140256008610226565b5b6114ed565b611fdb565b8590828215614208575bf1156142035761404a601e611c43565b5f146141f1576140a461405d6008610226565b5b6140866140958461406d610177565b9283916004602084016301a6952360e41b8152016103bc565b60208201810382520382610b9f565b61409e5f6118f1565b91614d1a565b506140af601a610b0a565b5b806140c36140bd856103ac565b916103ac565b101561414d576141489061411b6140f76140f2601f6140ec856140e66001611032565b90612fdd565b90613e85565b613eb2565b614115614106601f8590613e85565b9161411083613eb2565b613ec2565b90613f16565b6141435f61413e601f614138856141326001611032565b90612fdd565b90613e85565b613f5c565b6137b2565b6140b0565b50905f6141cc6141d19261416281601a61171f565b6141b061418c614187601f6141818561417b6001611032565b90612fdd565b90613e85565b613eb2565b6141aa61419b601f8590613e85565b916141a583613eb2565b613ec2565b90613f16565b6141c6601f916141c06001611032565b90612fdd565b90613e85565b613f5c565b6141ee6141e7826141e26019610b0a565b612dbe565b601961171f565b90565b6140a46141fe600c610226565b61405e565b610bfb565b506108fc61403a565b5f80808061403061402b614225600c610226565b614026565b50614258602061424261423d6003612fb5565b612fc2565b632bfc2e0790614250610177565b938492610bc8565b82528180614268600482016104ea565b03915afa90811561437d575f9161434f575b5061429661429061428b6016610b0a565b6103ac565b916103ac565b1115806142a3575b613ff8565b506142db6142b16016610b0a565b60206142c56142c06003612fb5565b612fc2565b635a9bac03906142d3610177565b948592610bc8565b825281806142eb600482016104ea565b03915afa801561434a5761430d61431391614001945f9161431c575b506103ac565b916103ac565b1115905061429e565b61433d915060203d8111614343575b6143358183610b9f565b810190610f84565b5f614307565b503d61432b565b610bfb565b614370915060203d8111614376575b6143688183610b9f565b810190610f84565b5f61427a565b503d61435e565b610bfb565b5061438b612e50565b613fc1565b61439990610ac5565b90565b6143b06143ab6143b5926103ac565b610aa6565b613ebf565b90565b6143c76143cd91939293613ebf565b92613ebf565b91828103925f8285128183121692851391121516176143e857565b61190d565b6143fc61440291939293613ebf565b92613ebf565b9161440e838202613ebf565b92600160ff1b81145f83121661443157818405149015171561442c57565b61190d565b61190d565b61444a61444561444f92613ebf565b610aa6565b6103ac565b90565b9061445b610aa2565b50614489602061447361446e6003612fb5565b612fc2565b63fc0e74d190614481610177565b938492610bc8565b82528180614499600482016104ea565b03915afa90811561457b575f9161454d575b5061453e576144b8613f58565b6144c2601a610b0a565b905b816144d76144d1866103ac565b916103ac565b101561452e576145226145289161451c6144fb6144f6601f8790613e85565b613eb2565b6145166145078961439c565b6145108861439c565b906143b8565b906143ed565b90613ec2565b916137b2565b906144c4565b905061453b919250614436565b90565b905061454930614390565b3190565b61456e915060203d8111614574575b6145668183610b9f565b810190610bdd565b5f6144ab565b503d61455c565b610bfb565b61458990610aa9565b90565b61459590614580565b90565b6145a190610ac5565b90565b6145ad90610aa9565b90565b6145b9906145a4565b90565b6145c590610ac5565b90565b60018060a01b031690565b6145df6145e491610202565b6145c8565b90565b6145f190546145d3565b90565b6145fd90610ac5565b90565b9190614613905f60208501940190613d39565b565b614626614620610aa2565b9161458c565b61464a602061463483614598565b636924500990614642610177565b938492610bc8565b8252818061465a600482016104ea565b03915afa8015614ba857614677915f91614b7a575b50601361171f565b61468b6146846013610b0a565b601b61171f565b61469f6146986013610b0a565b601a61171f565b6146c360206146ad83614598565b6366fb5f7a906146bb610177565b938492610bc8565b825281806146d3600482016104ea565b03915afa908115614b75575f91614b47575b509261470b60206146f584614598565b639659867e90614703610177565b938492610bc8565b8252818061471b600482016104ea565b03915afa908115614b42575f91614b14575b50936147396001611032565b5b8061474d614747886103ac565b916103ac565b11614a395761478b90602061476186614598565b636350b2c2906147808492614774610177565b96879485938493610bc8565b8352600483016103bc565b03915afa918215614a34576147cd926147ab915f91614a06575b506145b0565b9560206147b7886145bc565b63f9ffedb7906147c5610177565b958692610bc8565b825281806147dd600482016104ea565b03915afa928315614a0157614820936147ff915f916149d3575b50601361171f565b602061480a886145bc565b63d92f24ae90614818610177565b958692610bc8565b82528180614830600482016104ea565b03915afa9081156149ce57614855614865926148ae955f916149a0575b50601061171f565b61485f6010610b0a565b90612dbe565b9561487861487360056145e7565b6145f4565b906020614884826145bc565b63fac333ac906148a35f92614897610177565b98899485938493610bc8565b835260048301614600565b03915afa93841561499b575f9461495f575b509060206148d06148e6936145bc565b636c51797b906148de610177565b948592610bc8565b825281806148f6600482016104ea565b03915afa801561495a5761492594614920935f9261492a575b5061491a6010610b0a565b92613836565b611921565b61473a565b61494c91925060203d8111614953575b6149448183610b9f565b810190610f84565b905f61490f565b503d61493a565b610bfb565b6148e6929194506148d061498a602092833d8111614994575b6149828183610b9f565b810190610f84565b95929350506148c0565b503d614978565b610bfb565b6149c1915060203d81116149c7575b6149b98183610b9f565b810190610f84565b5f61484d565b503d6149af565b610bfb565b6149f4915060203d81116149fa575b6149ec8183610b9f565b810190610f84565b5f6147f7565b503d6149e2565b610bfb565b614a27915060203d8111614a2d575b614a1f8183610b9f565b8101906125d3565b5f6147a5565b503d614a15565b610bfb565b509093506020614a4b614a6193614598565b6375b4d78c90614a59610177565b948592610bc8565b82528180614a71600482016104ea565b03915afa918215614b0f57614abc92614a93915f91614ae1575b50601061171f565b80614aaf614aa9614aa46013610b0a565b6103ac565b916103ac565b11614abf575b601a61171f565b90565b614adb614ad682614ad06013610b0a565b90612fdd565b613f70565b50614ab5565b614b02915060203d8111614b08575b614afa8183610b9f565b810190610f84565b5f614a8b565b503d614af0565b610bfb565b614b35915060203d8111614b3b575b614b2d8183610b9f565b810190610f84565b5f61472d565b503d614b23565b610bfb565b614b68915060203d8111614b6e575b614b608183610b9f565b810190610f84565b5f6146e5565b503d614b56565b610bfb565b614b9b915060203d8111614ba1575b614b938183610b9f565b810190610f84565b5f61466f565b503d614b89565b610bfb565b606090565b60209181520190565b5f5b838110614bcd575050905f910152565b806020918301518185015201614bbd565b614bfd614c06602093614c0b93614bf48161372c565b93848093614bb2565b95869101614bbb565b610b81565b0190565b91614c3292614c2560408201935f8301906101ab565b6020818403910152614bde565b90565b67ffffffffffffffff8111614c5357614c4f602091610b81565b0190565b610b8b565b90614c6a614c6583614c35565b610fa2565b918252565b3d5f14614c8a57614c7f3d614c58565b903d5f602084013e5b565b614c92614bad565b90614c88565b5f7f626b70726d2e706172656e742e666f72776172642e6661696c65640000000000910152565b614ccc601b602092610ccc565b614cd581614c98565b0190565b614cee9060208101905f818303910152614cbf565b90565b15614cf857565b614d00610177565b62461bcd60e51b815280614d1660048201614cd9565b0390fd5b915f92918392614d28614bad565b50614d6b614d366017610226565b9391614d5c614d43610177565b948592600460208501630a8c7dad60e21b815201614c0f565b60208201810382520383610b9f565b602082019151925af1614d85614d7f614c6f565b91614cf1565b90565b60207f2e636f766572207061796d656e74000000000000000000000000000000000000917f626b70726d2e696e73756666696369656e742e626f6e75735072696d652e746f5f8201520152565b614de2602e604092610ccc565b614deb81614d88565b0190565b614e049060208101905f818303910152614dd5565b90565b15614e0e57565b614e16610177565b62461bcd60e51b815280614e2c60048201614def565b0390fd5b60e081830312614e9b57614e46825f8301610f75565b92614e548360208401610f75565b92614e628160408501610f75565b92614e708260608301610f75565b92614e98614e818460808501610f75565b93614e8f8160a08601610f75565b9360c001610f75565b90565b610181565b614eaf614eb5919392936103ac565b926103ac565b91614ec18382026103ac565b928184041490151715614ed057565b61190d565b90565b614eec614ee7614ef192614ed5565b610aa6565b6103ac565b90565b634e487b7160e01b5f52601260045260245ffd5b614f14614f1a916103ac565b916103ac565b908115614f25570490565b614ef4565b90565b614f41614f3c614f4692614f2a565b610aa6565b613ebf565b90565b916020614f6a929493614f6360408201965f8301906101ab565b01906103af565b565b614f9f614fa691614f90614f8985614f84601c610b0a565b612dbe565b601c61171f565b614f9a601d610b0a565b612dbe565b601d61171f565b34614fb9614fb3836103ac565b916103ac565b10155f146152255734614fd4614fce836103ac565b916103ac565b116151f9575b5b61500860e0614ff2614fed6003612fb5565b612fc2565b634c05b4a890615000610177565b938492610bc8565b82528180615018600482016104ea565b03915afa80156151f457615193925f808080808080959194979050929192615196575b615138959697506150866150ad9461508161509d9561507b61506a6150bd9a97615097979e909395989d614ea0565b916150756064614ed8565b90614ea0565b90614f08565b614ea0565b916150916064614ed8565b90614ea0565b90614f08565b946150a86013610b0a565b612dbe565b6150b76001611032565b90612fdd565b6150ed6150c98561439c565b6150e76150d8601f8590613e85565b916150e283613eb2565b613ec2565b90613f16565b61513261512361510f5f1961510a6151048961439c565b91614f2d565b6143ed565b9261511d601f918790612dbe565b90613e85565b9161512d83613eb2565b613ec2565b90613f16565b61518c6151586151486008610226565b9361515230614390565b93614ea0565b9161517d615164610177565b93849260046020850163a9059cbb60e01b815201614f49565b60208201810382520382610b9f565b3491614d1a565b50565b505050505090506151386150bd6150ad61509d61508161509761508661506a6151d861507b9a60e03d81116151ed575b6151d08183610b9f565b810190614e30565b9c50509950975095509998509250505061503b565b503d6151c6565b610bfb565b61522061521961520a348490612fdd565b6152146010610b0a565b612dbe565b601061171f565b614fda565b61527261526b615236833490612fdd565b61525c6152436010610b0a565b61525561524f846103ac565b916103ac565b1015614e07565b6152666010610b0a565b612fdd565b601061171f565b614fdb56fea26469706673582212204d88bd0dc94d6865382bd65ddf78cf25c041af226263b26af5a80e3baf3c825b64736f6c634300081800336080604052346200002d576200001462000279565b6200001e62000033565b61551c620002b8823961551c90f35b62000039565b60405190565b5f80fd5b5f1b90565b90620000505f19916200003d565b9181191691161790565b90565b90565b90565b6200007c6200007662000082926200005a565b62000060565b6200005d565b90565b90565b90620000a26200009c620000aa9262000063565b62000085565b825462000042565b9055565b90620000bc60ff916200003d565b9181191691161790565b151590565b620000d690620000c6565b90565b90565b90620000f6620000f0620000fe92620000cb565b620000d9565b8254620000ae565b9055565b90565b60018060a01b031690565b62000129620001236200012f926200005a565b62000060565b62000105565b90565b6200013d9062000110565b90565b634e487b7160e01b5f52604160045260245ffd5b5f5260205f2090565b634e487b7160e01b5f52603260045260245ffd5b5490565b620001808162000171565b8210156200019d576200019560019162000154565b910201905f90565b6200015d565b1b90565b91906008620001cb910291620001c460018060a01b0384620001a3565b92620001a3565b9181191691161790565b620001ee620001e8620001f49262000105565b62000060565b62000105565b90565b6200020290620001d5565b90565b6200021090620001f7565b90565b90565b9190620002316200022b6200023a9362000205565b62000213565b908354620001a7565b9055565b90815491680100000000000000008310156200027357826200026a916001620002719501815562000175565b9062000216565b565b62000140565b620002865f601262000088565b620002935f6016620000dc565b620002b5620002a3601162000102565b620002ae5f62000132565b906200023e565b56fe60806040526004361015610018575b361561001657005b005b6100225f356102b1565b80630d43aaf2146102ac5780630e6a8496146102a757806312065fe0146102a2578063175724f61461029d5780631ea3c8b4146102985780632b956ff714610293578063379a423c1461028e5780633a109e92146102895780633e76348914610284578063419cb27b1461027f57806341ffe7c41461027a5780634209fff11461027557806342cc9d571461027057806345145fd71461026b5780634f0f4aa91461026657806354279233146102615780635d4233961461025c57806360af454d1461025757806361ea720814610252578063641657cb1461024d5780636b44e6be146102485780636ed6da9e146102435780638033eded1461023e57806380f85e3314610239578063896c354a146102345780638da5cb5b1461022f5780639380fd5f1461022a578063965c90e314610225578063986b72951461022057806398c6b9e11461021b578063aba8a31d14610216578063abb8c96514610211578063b56e41291461020c578063b805657914610207578063b90306ad14610202578063c6bf7da2146101fd578063cbf0b0c0146101f8578063e4a312d1146101f3578063e89a1160146101ee578063eb95c662146101e95763f3fef3a30361000e57610fd9565b610fa4565b610f6f565b610f0a565b610e9d565b610e68565b610e07565b610dd3565b610d9e565b610d6a565b610d08565b610cd5565b610ca2565b610c6d565b610c3a565b610c05565b610bcf565b610b99565b610b39565b610b04565b610acf565b610a9c565b610a26565b6109f3565b6109bd565b610987565b610921565b6108ae565b6107e9565b6107b4565b610781565b61074c565b610717565b6106e2565b6106ad565b610663565b610611565b610587565b610552565b6104fb565b610469565b60e01c90565b60405190565b5f80fd5b5f80fd5b5f9103126102cf57565b6102c1565b5f1c90565b60018060a01b031690565b6102f06102f5916102d4565b6102d9565b90565b61030290546102e4565b90565b60a01c90565b60ff1690565b61031d61032291610305565b61030b565b90565b61032f9054610311565b90565b60a81c90565b61034461034991610332565b61030b565b90565b6103569054610338565b90565b60b01c90565b61036b61037091610359565b61030b565b90565b61037d905461035f565b90565b60b81c90565b61039261039791610380565b61030b565b90565b6103a49054610386565b90565b600d6103b45f82016102f8565b916103c05f8301610325565b916103cc5f820161034c565b916103e35f6103dc818501610373565b930161039a565b90565b60018060a01b031690565b6103fa906103e6565b90565b610406906103f1565b9052565b151590565b6104189061040a565b9052565b90959492610467946104566104609261044c60809661044260a088019c5f8901906103fd565b602087019061040f565b604085019061040f565b606083019061040f565b019061040f565b565b3461049d576104793660046102c5565b6104996104846103a7565b916104909593956102b7565b9586958661041c565b0390f35b6102bd565b90565b6104ae816104a2565b036104b557565b5f80fd5b905035906104c6826104a5565b565b906020828203126104e1576104de915f016104b9565b90565b6102c1565b91906104f9905f602085019401906103fd565b565b3461052b576105276105166105113660046104c8565b611039565b61051e6102b7565b918291826104e6565b0390f35b6102bd565b610539906104a2565b9052565b9190610550905f60208501940190610530565b565b34610582576105623660046102c5565b61057e61056d61106b565b6105756102b7565b9182918261053d565b0390f35b6102bd565b346105b7576105b36105a261059d3660046104c8565b6110a2565b6105aa6102b7565b9182918261053d565b0390f35b6102bd565b6105c5816103f1565b036105cc57565b5f80fd5b905035906105dd826105bc565b565b919060408382031261060757806105fb610604925f86016105d0565b936020016105d0565b90565b6102c1565b5f0190565b346106405761062a6106243660046105df565b9061170f565b6106326102b7565b8061063c8161060c565b0390f35b6102bd565b9060208282031261065e5761065b915f016105d0565b90565b6102c1565b346106935761068f61067e610679366004610645565b61171b565b6106866102b7565b9182918261053d565b0390f35b6102bd565b91906106ab905f6020850194019061040f565b565b346106dd576106d96106c86106c3366004610645565b611734565b6106d06102b7565b91829182610698565b0390f35b6102bd565b346107125761070e6106fd6106f83660046104c8565b611816565b6107056102b7565b91829182610698565b0390f35b6102bd565b346107475761074361073261072d366004610645565b611838565b61073a6102b7565b91829182610698565b0390f35b6102bd565b3461077c576107786107676107623660046104c8565b61185f565b61076f6102b7565b91829182610698565b0390f35b6102bd565b346107af57610799610794366004610645565b611f30565b6107a16102b7565b806107ab8161060c565b0390f35b6102bd565b346107e4576107e06107cf6107ca366004610645565b611f57565b6107d76102b7565b91829182610698565b0390f35b6102bd565b34610819576108156108046107ff3660046104c8565b611fa1565b61080c6102b7565b9182918261053d565b0390f35b6102bd565b90565b61083561083061083a926103e6565b61081e565b6103e6565b90565b61084690610821565b90565b6108529061083d565b90565b9061085f90610849565b5f5260205260405f2090565b1c90565b61087f906008610884930261086b565b6102d9565b90565b90610892915461086f565b90565b6108ab906108a6600e915f92610855565b610887565b90565b346108de576108da6108c96108c4366004610645565b610895565b6108d16102b7565b918291826104e6565b0390f35b6102bd565b61091861091f9461090e606094989795610904608086019a5f870190610530565b6020850190610530565b604083019061040f565b019061040f565b565b346109555761095161093c6109373660046104c8565b611fc3565b906109489492946102b7565b948594856108e3565b0390f35b6102bd565b9190604083820312610982578061097661097f925f86016105d0565b936020016104b9565b90565b6102c1565b346109b8576109b46109a361099d36600461095a565b90612756565b6109ab6102b7565b9182918261053d565b0390f35b6102bd565b346109ee576109ea6109d96109d33660046105df565b9061276b565b6109e16102b7565b91829182610698565b0390f35b6102bd565b34610a2157610a0b610a06366004610645565b6128d6565b610a136102b7565b80610a1d8161060c565b0390f35b6102bd565b34610a5657610a363660046102c5565b610a52610a41612939565b610a496102b7565b9182918261053d565b0390f35b6102bd565b610a648161040a565b03610a6b57565b5f80fd5b90503590610a7c82610a5b565b565b90602082820312610a9757610a94915f01610a6f565b90565b6102c1565b34610aca57610ab4610aaf366004610a7e565b612a6e565b610abc6102b7565b80610ac68161060c565b0390f35b6102bd565b34610aff57610afb610aea610ae5366004610645565b612a79565b610af26102b7565b91829182610698565b0390f35b6102bd565b34610b3457610b30610b1f610b1a3660046104c8565b612aab565b610b276102b7565b918291826104e6565b0390f35b6102bd565b34610b6757610b51610b4c366004610a7e565b612c02565b610b596102b7565b80610b638161060c565b0390f35b6102bd565b9190604083820312610b945780610b88610b91925f86016104b9565b936020016104b9565b90565b6102c1565b34610bca57610bc6610bb5610baf366004610b6c565b90612c23565b610bbd6102b7565b9182918261053d565b0390f35b6102bd565b34610c0057610bfc610beb610be5366004610b6c565b90612c7c565b610bf36102b7565b918291826104e6565b0390f35b6102bd565b34610c3557610c153660046102c5565b610c31610c20612cbe565b610c286102b7565b918291826104e6565b0390f35b6102bd565b34610c6857610c4a3660046102c5565b610c52612e0a565b610c5a6102b7565b80610c648161060c565b0390f35b6102bd565b34610c9d57610c99610c88610c833660046104c8565b612e45565b610c906102b7565b918291826104e6565b0390f35b6102bd565b34610cd057610cba610cb53660046104c8565b61310c565b610cc26102b7565b80610ccc8161060c565b0390f35b6102bd565b34610d0357610ced610ce83660046104c8565b613366565b610cf56102b7565b80610cff8161060c565b0390f35b6102bd565b34610d3857610d34610d23610d1e3660046104c8565b613371565b610d2b6102b7565b9182918261053d565b0390f35b6102bd565b9190604083820312610d655780610d59610d62925f86016105d0565b93602001610a6f565b90565b6102c1565b34610d9957610d83610d7d366004610d3d565b906137de565b610d8b6102b7565b80610d958161060c565b0390f35b6102bd565b34610dce57610dca610db9610db4366004610645565b6137ea565b610dc16102b7565b9182918261053d565b0390f35b6102bd565b34610e0257610dec610de6366004610b6c565b90613902565b610df46102b7565b80610dfe8161060c565b0390f35b6102bd565b610e1a610e153660046104c8565b613a9d565b610e226102b7565b80610e2c8161060c565b0390f35b90565b610e43906008610e48930261086b565b610e30565b90565b90610e569154610e33565b90565b610e6560125f90610e4b565b90565b34610e9857610e783660046102c5565b610e94610e83610e59565b610e8b6102b7565b9182918261053d565b0390f35b6102bd565b34610ecb57610eb5610eb0366004610645565b613aa8565b610ebd6102b7565b80610ec78161060c565b0390f35b6102bd565b9091606082840312610f0557610f02610eeb845f85016105d0565b93610ef981602086016105d0565b936040016104b9565b90565b6102c1565b34610f3b57610f37610f26610f20366004610ed0565b91613e7a565b610f2e6102b7565b9182918261053d565b0390f35b6102bd565b90610f4a90610849565b5f5260205260405f2090565b610f6c90610f67600f915f92610f40565b610e4b565b90565b34610f9f57610f9b610f8a610f85366004610645565b610f56565b610f926102b7565b9182918261053d565b0390f35b6102bd565b34610fd457610fd0610fbf610fba3660046104c8565b613e90565b610fc76102b7565b9182918261053d565b0390f35b6102bd565b610fed610fe736600461095a565b90614078565b610ff56102b7565b80610fff8161060c565b0390f35b5f90565b61101b611016611020926104a2565b61081e565b6104a2565b90565b9061102d90611007565b5f5260205260405f2090565b60016110526110589261104a611003565b506010611023565b016102f8565b90565b5f90565b6110689061083d565b90565b61107361105b565b5061107d3061105f565b3190565b61108d611092916102d4565b610e30565b90565b61109f9054611081565b90565b60026110bb6110c1926110b361105b565b506010611023565b01611095565b90565b90565b6110db6110d66110e0926110c4565b61081e565b6103e6565b90565b6110ec906110c7565b90565b60209181520190565b5f7f6f776e2e64656661756c742e73656e6465720000000000000000000000000000910152565b61112c60126020926110ef565b611135816110f8565b0190565b61114e9060208101905f81830391015261111f565b90565b1561115857565b6111606102b7565b62461bcd60e51b81528061117660048201611139565b0390fd5b906111a9916111a48261119d6111976111925f6110e3565b6103f1565b916103f1565b1415611151565b6111ab565b565b906111da916111d5816111ce6111c86111c35f6110e3565b6103f1565b916103f1565b1415611151565b6113a2565b565b60018060a01b031690565b6111f36111f8916102d4565b6111dc565b90565b61120590546111e7565b90565b6112119061083d565b90565b601f801991011690565b634e487b7160e01b5f52604160045260245ffd5b9061123c90611214565b810190811067ffffffffffffffff82111761125657604052565b61121e565b60e01b90565b9050519061126e82610a5b565b565b9060208282031261128957611286915f01611261565b90565b6102c1565b6112966102b7565b3d5f823e3d90fd5b5f7f6e65732e696e76616c69642e6973536166650000000000000000000000000000910152565b6112d260126020926110ef565b6112db8161129e565b0190565b6112f49060208101905f8183039101526112c5565b90565b156112fe57565b6113066102b7565b62461bcd60e51b81528061131c600482016112df565b0390fd5b5f7f6e65732e616b652e696e7374616e636500000000000000000000000000000000910152565b61135460106020926110ef565b61135d81611320565b0190565b6113769060208101905f818303910152611347565b90565b1561138057565b6113886102b7565b62461bcd60e51b81528061139e60048201611361565b0390fd5b906113d19160206113bb6113b660026111fb565b611208565b636a276f9d906113c96102b7565b95869261125b565b825281806113e16004820161060c565b03915afa92831561145a5761142a93611401915f9161142c575b506112f7565b61142561142061141b611416600f3390610f40565b611095565b61185f565b611379565b61160a565b565b61144d915060203d8111611453575b6114458183611232565b810190611270565b5f6113fb565b503d61143b565b61128e565b5f7f6e65732e66616b652e63616c6c00000000000000000000000000000000000000910152565b611493600d6020926110ef565b61149c8161145f565b0190565b6114b59060208101905f818303910152611486565b90565b156114bf57565b6114c76102b7565b62461bcd60e51b8152806114dd600482016114a0565b0390fd5b5f7f6e6f7420657869737473206f7220696e76616c69640000000000000000000000910152565b61151560156020926110ef565b61151e816114e1565b0190565b6115379060208101905f818303910152611508565b90565b1561154157565b6115496102b7565b62461bcd60e51b81528061155f60048201611522565b0390fd5b5f1b90565b9061157960018060a01b0391611563565b9181191691161790565b90565b9061159b6115966115a292610849565b611583565b8254611568565b9055565b1b90565b919060086115ca9102916115c460018060a01b03846115a6565b926115a6565b9181191691161790565b91906115ea6115e56115f293610849565b611583565b9083546115aa565b9055565b61160891611602611003565b916115d4565b565b6116eb5f916116e46116f09461166b61162d611628600f3390610f40565b611095565b61166561165f61165a611655600f61164f61164a600e8c90610855565b6102f8565b90610f40565b611095565b6104a2565b916104a2565b146114b8565b61167483611f57565b806116f2575b6116839061153a565b6116ab61169a611695600e8690610855565b6102f8565b6116a6600e8490610855565b611586565b846116de60106116d86116d3600f6116cd6116c8600e8b90610855565b6102f8565b90610f40565b611095565b90611023565b01611586565b600e610855565b6115f6565b565b5061168361170861170283611f57565b1561040a565b905061167a565b906117199161117a565b565b61172d9061172761105b565b50614084565b90565b5f90565b61173c611730565b5061177e602061175461174f60026111fb565b611208565b6319c064299061177385926117676102b7565b9586948593849361125b565b8352600483016104e6565b03915afa9081156117f0575f916117c2575b5090811561179d575b5090565b90506117bb6117b56117af600c6102f8565b926103f1565b916103f1565b145f611799565b6117e3915060203d81116117e9575b6117db8183611232565b810190611270565b5f611790565b503d6117d1565b61128e565b611801611806916102d4565b61030b565b90565b61181390546117f5565b90565b600661182f61183592611827611730565b506010611023565b01611809565b90565b61185761185261185c9261184a611730565b50600f610f40565b611095565b61185f565b90565b600161187861187e92611870611730565b506010611023565b01610325565b90565b5f7f6f776e2e696e76616c69642e6973536166650000000000000000000000000000910152565b6118b560126020926110ef565b6118be81611881565b0190565b6118d79060208101905f8183039101526118a8565b90565b156118e157565b6118e96102b7565b62461bcd60e51b8152806118ff600482016118c2565b0390fd5b60018060a01b031690565b61191a61191f916102d4565b611903565b90565b61192c905461190e565b90565b6119389061083d565b90565b5f7f6f776d2e66616b652e2064656c65676174650000000000000000000000000000910152565b61196f60126020926110ef565b6119788161193b565b0190565b6119919060208101905f818303910152611962565b90565b1561199b57565b6119a36102b7565b62461bcd60e51b8152806119b96004820161197c565b0390fd5b6119ea60206119d46119cf60026111fb565b611208565b636a276f9d906119e26102b7565b93849261125b565b825281806119fa6004820161060c565b03915afa8015611b1c57611a15915f91611aee575b506118da565b611a27611a226001611922565b61192f565b611a39611a33336103f1565b916103f1565b14908115611a55575b611a4e611a5392611994565b611df1565b565b611a9891506020611a6e611a6960026111fb565b611208565b637df73e2790611a8d3392611a816102b7565b9687948593849361125b565b8352600483016104e6565b03915afa918215611ae957611a5392611a4e915f91611abb575b50925050611a42565b611adc915060203d8111611ae2575b611ad48183611232565b810190611270565b5f611ab2565b503d611aca565b61128e565b611b0f915060203d8111611b15575b611b078183611232565b810190611270565b5f611a0f565b503d611afd565b61128e565b90505190611b2e826104a5565b565b90602082820312611b4957611b46915f01611b21565b90565b6102c1565b90611b61611b5a6102b7565b9283611232565b565b611b6d60a0611b4e565b90565b5f90565b5f90565b611b80611b63565b9060208080808086611b90611b70565b815201611b9b611b74565b815201611ba6611b74565b815201611bb1611b74565b815201611bbc611b74565b81525050565b611bca611b78565b90565b90611bd79061040a565b9052565b90565b611bf2611bed611bf792611bdb565b61081e565b6104a2565b90565b90565b611c11611c0c611c1692611bfa565b61081e565b6104a2565b90565b90565b611c30611c2b611c3592611c19565b61081e565b6104a2565b90565b90611c42906103f1565b9052565b611c5090516103f1565b90565b611c5d905161040a565b90565b60a01b90565b90611c7560ff60a01b91611c60565b9181191691161790565b611c889061040a565b90565b90565b90611ca3611c9e611caa92611c7f565b611c8b565b8254611c66565b9055565b60a81b90565b90611cc360ff60a81b91611cae565b9181191691161790565b90611ce2611cdd611ce992611c7f565b611c8b565b8254611cb4565b9055565b60b01b90565b90611d0260ff60b01b91611ced565b9181191691161790565b90611d21611d1c611d2892611c7f565b611c8b565b8254611cf3565b9055565b60b81b90565b90611d4160ff60b81b91611d2c565b9181191691161790565b90611d60611d5b611d6792611c7f565b611c8b565b8254611d32565b9055565b90611ddd60805f611de394611d8d828201611d87848801611c46565b90611586565b611da5828201611d9f60208801611c53565b90611c8e565b611dbd828201611db760408801611c53565b90611ccd565b611dd5828201611dcf60608801611c53565b90611d0c565b019201611c53565b90611d4b565b565b90611def91611d6b565b565b611e33906020611e09611e0460026111fb565b611208565b631d84be4490611e283392611e1c6102b7565b9687948593849361125b565b8352600483016104e6565b03915afa918215611f2b57611ec292611ebb915f91611efd575b5091611e57611bc2565b92611e66600160208601611bcd565b80611e7a611e746001611bde565b916104a2565b14611eea575b80611e94611e8e6002611bfd565b916104a2565b14611ed7575b611ead611ea76003611c1c565b916104a2565b14611ec4575b5f8301611c38565b600d611de5565b565b611ed2600160808501611bcd565b611eb3565b611ee5600160608601611bcd565b611e9a565b611ef8600160408601611bcd565b611e80565b611f1e915060203d8111611f24575b611f168183611232565b810190611b30565b5f611e4d565b503d611f0c565b61128e565b611f39906119bd565b565b611f4f611f4a611f54926110c4565b61081e565b6104a2565b90565b611f82611f8791611f66611730565b50611f7c611f77600f92600e610855565b6102f8565b90610f40565b611095565b611f99611f935f611f3b565b916104a2565b1190565b5490565b6003611fba611fc092611fb261105b565b506010611023565b01611f9d565b90565b611fcb61105b565b50611fd461105b565b50611fdd611730565b50611fe6611730565b50611ffe6002611ff860108490611023565b01611095565b612015600561200f60108590611023565b01611095565b92612043600661203d612035600161202f60108990611023565b01610325565b956010611023565b01611809565b9193929190565b5f7f496e76616c696420536166654f776e6572000000000000000000000000000000910152565b61207e60116020926110ef565b6120878161204a565b0190565b6120a09060208101905f818303910152612071565b90565b156120aa57565b6120b26102b7565b62461bcd60e51b8152806120c86004820161208b565b0390fd5b906120fc929160206120e66120e160026111fb565b611208565b636a276f9d906120f46102b7565b96879261125b565b8252818061210c6004820161060c565b03915afa9384156121f35761216a9461212c915f916121c5575b506118da565b602061214061213b60026111fb565b611208565b6319c064299061215f33926121536102b7565b9889948593849361125b565b8352600483016104e6565b03915afa9384156121c05761218f9461218a915f91612192575b506120a3565b61233c565b90565b6121b3915060203d81116121b9575b6121ab8183611232565b810190611270565b5f612184565b503d6121a1565b61128e565b6121e6915060203d81116121ec575b6121de8183611232565b810190611270565b5f612126565b503d6121d4565b61128e565b67ffffffffffffffff811161221657612212602091611214565b0190565b61121e565b9061222d612228836121f8565b611b4e565b918252565b90813b5f61223f8261221b565b9360208501903c565b60200190565b5190565b60018060a01b031690565b61226961226e916102d4565b612252565b90565b61227b905461225d565b90565b6122879061083d565b90565b90505190612297826105bc565b565b906020828203126122b2576122af915f0161228a565b90565b6102c1565b90565b5f7f6e65732e77726f6e672e68617368000000000000000000000000000000000000910152565b6122ee600e6020926110ef565b6122f7816122ba565b0190565b6123109060208101905f8183039101526122e1565b90565b1561231a57565b6123226102b7565b62461bcd60e51b815280612338600482016122fb565b0390fd5b9061236c9291602061235661235160026111fb565b611208565b636a276f9d906123646102b7565b96879261125b565b8252818061237c6004820161060c565b03915afa9384156124a7576123e19461239c915f91612479575b506112f7565b6123a533612232565b6123b76123b18261224e565b91612248565b2060206123cb6123c65f612271565b61227e565b63e61dfd58906123d96102b7565b97889261125b565b825281806123f16004820161060c565b03915afa9081156124745761243861243261241a61243e94612443995f91612446575b50612232565b61242c6124268261224e565b91612248565b206122b7565b916122b7565b14612313565b612651565b90565b612467915060203d811161246d575b61245f8183611232565b810190612299565b5f612414565b503d612455565b61128e565b61249a915060203d81116124a0575b6124928183611232565b810190611270565b5f612396565b503d612488565b61128e565b5f7f6e65732e616c72656164792e6578697374730000000000000000000000000000910152565b6124e060126020926110ef565b6124e9816124ac565b0190565b6125029060208101905f8183039101526124d3565b90565b1561250c57565b6125146102b7565b62461bcd60e51b81528061252a600482016124ed565b0390fd5b5490565b9061253e5f1991611563565b9181191691161790565b90565b9061256061255b61256792611007565b612548565b8254612532565b9055565b90565b5f5260205f2090565b634e487b7160e01b5f52603260045260245ffd5b5490565b6125988161258b565b8210156125b2576125aa60019161256e565b910201905f90565b612577565b90815491680100000000000000008310156125e757826125df9160016125e59501815561258f565b906115d4565b565b61121e565b906125f690611007565b5f5260205260405f2090565b9061260c90611f3b565b5f5260205260405f2090565b634e487b7160e01b5f52601160045260245ffd5b61263b612641919392936104a2565b926104a2565b820180921161264c57565b612618565b61273f92916126b7915061267561267061266a83611f57565b1561040a565b612505565b61268a33612685600e8490610855565b611586565b6126a8612697601161252e565b6126a3600f3390610f40565b61254b565b6126b2601161256b565b6125b7565b6126f26126c46001611bde565b6126ec6126dd6126d6601586906125ec565b5f90612602565b916126e783611095565b61262c565b9061254b565b6127185f61271361270d612708600f3390610f40565b611095565b91611f3b565b6144c8565b6005612739601061273361272e600f3390610f40565b611095565b90611023565b0161254b565b61275361274e600f3390610f40565b611095565b90565b906127689161276361105b565b6120cc565b90565b612773611730565b5061277d81611f57565b90816127a0575b509081612790575b5090565b61279a9150612a79565b5f61278c565b6127c991506127c4906127be6127b9600f92600e610855565b6102f8565b90610f40565b611095565b6127ee6127e86127e36127de600f8690610f40565b611095565b6104a2565b916104a2565b145f612784565b5f7f6f776e2e686578626173652e6661696c65640000000000000000000000000000910152565b61282960126020926110ef565b612832816127f5565b0190565b61284b9060208101905f81830391015261281c565b90565b1561285557565b61285d6102b7565b62461bcd60e51b81528061287360048201612836565b0390fd5b61288090610821565b90565b61288c90612877565b90565b61289890610821565b90565b6128a49061288f565b90565b6128b09061288f565b90565b90565b906128cb6128c66128d2926128a7565b6128b3565b8254611568565b9055565b61292961292461292f926129146128f46128ef5f612271565b61227e565b61290e6129086129035f6110e3565b6103f1565b916103f1565b1461284e565b61291f32600c611586565b612883565b61289b565b5f6128b6565b612937614740565b565b61294161105b565b5061294c601161252e565b90565b61297d90602061296761296260026111fb565b611208565b636a276f9d906129756102b7565b94859261125b565b8252818061298d6004820161060c565b03915afa918215612a06576129d6926129ad915f916129d8575b506112f7565b6129d16129cc6129c76129c2600f3390610f40565b611095565b61185f565b611379565b612a41565b565b6129f9915060203d81116129ff575b6129f18183611232565b810190611270565b5f6129a7565b503d6129e7565b61128e565b90612a1760ff91611563565b9181191691161790565b90612a36612a31612a3d92611c7f565b611c8b565b8254612a0b565b9055565b612a6c906006612a666010612a60612a5b600f3390610f40565b611095565b90611023565b01612a21565b565b612a779061294f565b565b612a90612a9591612a88611730565b50600f610f40565b611095565b612aa7612aa15f611f3b565b916104a2565b1190565b5f612ac3612ac992612abb611003565b506010611023565b016102f8565b90565b612afa906020612ae4612adf60026111fb565b611208565b636a276f9d90612af26102b7565b94859261125b565b82528180612b0a6004820161060c565b03915afa918215612bf057612b6892612b2a915f91612bc2575b506118da565b6020612b3e612b3960026111fb565b611208565b6319c0642990612b5d3392612b516102b7565b9687948593849361125b565b8352600483016104e6565b03915afa918215612bbd57612b8d92612b88915f91612b8f575b506120a3565b612bf5565b565b612bb0915060203d8111612bb6575b612ba88183611232565b810190611270565b5f612b82565b503d612b9e565b61128e565b612be3915060203d8111612be9575b612bdb8183611232565b810190611270565b5f612b24565b503d612bd1565b61128e565b612c00906016612a21565b565b612c0b90612acc565b565b90612c1790611007565b5f5260205260405f2090565b612c4891612c3e612c4392612c3661105b565b5060156125ec565b612c0d565b611095565b90565b5f5260205f2090565b612c5d81611f9d565b821015612c7757612c6f600191612c4b565b910201905f90565b612577565b612cb55f91612caf612ca9612cbb95612c93611003565b506003612ca36010956010611023565b01612c54565b90610e4b565b90611023565b016102f8565b90565b612cc6611003565b50612cd1600c6102f8565b90565b612d016020612ceb612ce660026111fb565b611208565b636a276f9d90612cf96102b7565b93849261125b565b82528180612d116004820161060c565b03915afa8015612df357612d2c915f91612dc5575b506118da565b612d6d6020612d43612d3e60026111fb565b611208565b6319c0642990612d623392612d566102b7565b9586948593849361125b565b8352600483016104e6565b03915afa8015612dc057612d88915f91612d92575b506120a3565b612d90612df8565b565b612db3915060203d8111612db9575b612dab8183611232565b810190611270565b5f612d82565b503d612da1565b61128e565b612de6915060203d8111612dec575b612dde8183611232565b810190611270565b5f612d26565b503d612dd4565b61128e565b612e08612e03614daa565b614f74565b565b612e12612cd4565b565b5f5260205f2090565b612e268161252e565b821015612e4057612e38600191612e14565b910201905f90565b612577565b612e5c612e6291612e54611003565b506011612e1d565b90610887565b90565b612e93906020612e7d612e7860026111fb565b611208565b636a276f9d90612e8b6102b7565b94859261125b565b82528180612ea36004820161060c565b03915afa918215612f1c57612eec92612ec3915f91612eee575b506112f7565b612ee7612ee2612edd612ed8600f3390610f40565b611095565b61185f565b611379565b612fbf565b565b612f0f915060203d8111612f15575b612f078183611232565b810190611270565b5f612ebd565b503d612efd565b61128e565b5f7f6e65732e73746f70706564000000000000000000000000000000000000000000910152565b612f55600b6020926110ef565b612f5e81612f21565b0190565b612f779060208101905f818303910152612f48565b90565b15612f8157565b612f896102b7565b62461bcd60e51b815280612f9f60048201612f62565b0390fd5b612fac906104a2565b5f198114612fba5760010190565b612618565b61309190612ff6612ff06006612fea6010612fe4612fdf600f3390610f40565b611095565b90611023565b01611809565b1561040a565b80156130f7575b61300690612f7a565b61300f81615276565b6130396002613033601061302d613028600f3390610f40565b611095565b90611023565b01611095565b61304b6130455f611f3b565b916104a2565b11806130b4575b613093575b61308b600861307b6010613075613070600f3390610f40565b611095565b90611023565b019161308683611095565b61262c565b9061254b565b565b6130af6130a86130a36012611095565b612fa3565b601261254b565b613057565b506130df60086130d960106130d36130ce600f3390610f40565b611095565b90611023565b01611095565b6130f16130eb5f611f3b565b916104a2565b14613052565b506130066131056016611809565b9050612ffd565b61311590612e65565b565b61314590602061312f61312a60026111fb565b611208565b636a276f9d9061313d6102b7565b94859261125b565b825281806131556004820161060c565b03915afa9182156131ce5761319e92613175915f916131a0575b506112f7565b61319961319461318f61318a600f3390610f40565b611095565b61185f565b611379565b6131d3565b565b6131c1915060203d81116131c7575b6131b98183611232565b810190611270565b5f61316f565b503d6131af565b61128e565b6132b59061320a61320460066131fe60106131f86131f3600f3390610f40565b611095565b90611023565b01611809565b1561040a565b8015613351575b61321a90612f7a565b61322a613225614daa565b614f74565b613233816152fe565b61325d6002613257601061325161324c600f3390610f40565b611095565b90611023565b01611095565b61326f6132695f611f3b565b916104a2565b118061330e575b6132b7575b6132af600761329f6010613299613294600f3390610f40565b611095565b90611023565b01916132aa83611095565b61262c565b9061254b565b565b61330960046132f160106132eb60026132e560106132df6132da600f3390610f40565b611095565b90611023565b01611095565b90611023565b016133036132fe82611095565b612fa3565b9061254b565b61327b565b506133396007613333601061332d613328600f3390610f40565b611095565b90611023565b01611095565b61334b6133455f611f3b565b916104a2565b14613276565b5061321a61335f6016611809565b9050613211565b61336f90613117565b565b600461338a6133909261338261105b565b506010611023565b01611095565b90565b906133c160206133ab6133a660026111fb565b611208565b636a276f9d906133b96102b7565b93849261125b565b825281806133d16004820161060c565b03915afa80156134f3576133ec915f916134c5575b506118da565b6133fe6133f96001611922565b61192f565b61341061340a336103f1565b916103f1565b1491821561342c575b61342561342a93611994565b6134f8565b565b61346f9250602061344561344060026111fb565b611208565b637df73e279061346433926134586102b7565b9788948593849361125b565b8352600483016104e6565b03915afa9283156134c05761342a93613425915f91613492575b50935050613419565b6134b3915060203d81116134b9575b6134ab8183611232565b810190611270565b5f613489565b503d6134a1565b61128e565b6134e6915060203d81116134ec575b6134de8183611232565b810190611270565b5f6133e6565b503d6134d4565b61128e565b905f146137c657613540602061351661351160026111fb565b611208565b631d84be449061353533926135296102b7565b9586948593849361125b565b8352600483016104e6565b03915afa9081156137c1575f91613793575b5061355f5f600d01610325565b80613778575b80613753575b613740575b61357c5f600d01610325565b80613725575b80613700575b6136ed575b6135995f600d01610325565b90816136d1575b50806136ac575b613699575b6135b55f611f3b565b6135c15f600d0161034c565b61368b575b6135d25f600d01610373565b61367d575b6135e35f600d0161039a565b61366f575b6135f45f600d01610325565b9081613653575b508061362e575b61360b575b505b565b61361690600c611586565b613628613621611bc2565b600d611de5565b5f613607565b5061363b5f600d016102f8565b61364d613647836103f1565b916103f1565b14613602565b90506136686136626002611bfd565b916104a2565b145f6135fb565b61367890612fa3565b6135e8565b61368690612fa3565b6135d7565b61369490612fa3565b6135c6565b6136a760015f600d01611d4b565b6135ac565b506136b95f600d016102f8565b6136cb6136c5836103f1565b916103f1565b146135a7565b90506136e66136e06003611c1c565b916104a2565b145f6135a0565b6136fb60015f600d01611d0c565b61358d565b5061370d5f600d016102f8565b61371f613719846103f1565b916103f1565b14613588565b508061373a6137346002611bfd565b916104a2565b14613582565b61374e60015f600d01611ccd565b613570565b506137605f600d016102f8565b61377261376c846103f1565b916103f1565b1461356b565b508061378d6137876001611bde565b916104a2565b14613565565b6137b4915060203d81116137ba575b6137ac8183611232565b810190611b30565b5f613552565b503d6137a2565b61128e565b506137d96137d2611bc2565b600d611de5565b613609565b906137e891613393565b565b613801613806916137f961105b565b50600f610f40565b611095565b90565b9061383891602061382261381d60026111fb565b611208565b636a276f9d906138306102b7565b95869261125b565b825281806138486004820161060c565b03915afa9283156138c15761389193613868915f91613893575b506112f7565b61388c61388761388261387d600f3390610f40565b611095565b61185f565b611379565b6138c6565b565b6138b4915060203d81116138ba575b6138ac8183611232565b810190611270565b5f613862565b503d6138a2565b61128e565b906138fa6138eb613900936138e66138de6001611bde565b9460156125ec565b612c0d565b916138f583611095565b61262c565b9061254b565b565b9061390c91613809565b565b5f7f6f776e2e6e6f6e617574682e44414f0000000000000000000000000000000000910152565b613942600f6020926110ef565b61394b8161390e565b0190565b6139649060208101905f818303910152613935565b90565b1561396e57565b6139766102b7565b62461bcd60e51b81528061398c6004820161394f565b0390fd5b6139be9060206139a86139a360026111fb565b611208565b636a276f9d906139b66102b7565b94859261125b565b825281806139ce6004820161060c565b03915afa918215613a5057613a20926139ee915f91613a22575b506118da565b613a1b613a036139fe6001611922565b61192f565b613a15613a0f336103f1565b916103f1565b14613967565b613a61565b565b613a43915060203d8111613a49575b613a3b8183611232565b810190611270565b5f6139e8565b503d613a31565b61128e565b613a5e9061083d565b90565b5f80808093613a7f613a7a613a75846110e3565b612883565b613a55565b828215613a94575bf115613a8f57565b61128e565b506108fc613a87565b613aa690613990565b565b613ab1906154db565b565b90613ae49392916020613ace613ac960026111fb565b611208565b636a276f9d90613adc6102b7565b97889261125b565b82528180613af46004820161060c565b03915afa948515613c1f57613b5995613b14915f91613bf1575b506112f7565b613b1d33612232565b613b2f613b298261224e565b91612248565b206020613b43613b3e5f612271565b61227e565b63e61dfd5890613b516102b7565b98899261125b565b82528180613b696004820161060c565b03915afa908115613bec57613bb0613baa613b92613bb694613bbb9a5f91613bbe575b50612232565b613ba4613b9e8261224e565b91612248565b206122b7565b916122b7565b14612313565b613d28565b90565b613bdf915060203d8111613be5575b613bd78183611232565b810190612299565b5f613b8c565b503d613bcd565b61128e565b613c12915060203d8111613c18575b613c0a8183611232565b810190611270565b5f613b0e565b503d613c00565b61128e565b5f7f6e65732e706172656e742e6e6f74657869737473000000000000000000000000910152565b613c5860146020926110ef565b613c6181613c24565b0190565b613c7a9060208101905f818303910152613c4b565b90565b15613c8457565b613c8c6102b7565b62461bcd60e51b815280613ca260048201613c65565b0390fd5b5f7f6e65732e6c6f772e627573696e65737300000000000000000000000000000000910152565b613cda60106020926110ef565b613ce381613ca6565b0190565b613cfc9060208101905f818303910152613ccd565b90565b15613d0657565b613d0e6102b7565b62461bcd60e51b815280613d2460048201613ce7565b0390fd5b91613dde613d3e613e3c93613e63969550614084565b91613d59613d54613d4e83611f57565b1561040a565b612505565b613d6a613d658461185f565b613c7d565b613d9c613d846007613d7e60108790611023565b01611095565b613d96613d905f611f3b565b916104a2565b11613cff565b613db133613dac600e8490610855565b611586565b613dcf613dbe601161252e565b613dca600f3390610f40565b61254b565b613dd9601161256b565b6125b7565b613de783614f74565b613e22613df46001611bde565b613e1c613e0d613e06601588906125ec565b5f90612602565b91613e1783611095565b61262c565b9061254b565b613e36613e31600f3390610f40565b611095565b906144c8565b6005613e5d6010613e57613e52600f3390610f40565b611095565b90611023565b0161254b565b613e77613e72600f3390610f40565b611095565b90565b90613e8d9291613e8861105b565b613ab3565b90565b613ea7613eac91613e9f61105b565b506013612c0d565b611095565b90565b90613ede91613ed981613ed2613ecc613ec75f6110e3565b6103f1565b916103f1565b1415611151565b613ee0565b565b90613f0f916020613ef9613ef460026111fb565b611208565b636a276f9d90613f076102b7565b95869261125b565b82528180613f1f6004820161060c565b03915afa928315613fa157613f7193613f3f915f91613f73575b506118da565b613f6c613f54613f4f6001611922565b61192f565b613f66613f60336103f1565b916103f1565b14613967565b614028565b565b613f94915060203d8111613f9a575b613f8c8183611232565b810190611270565b5f613f39565b503d613f82565b61128e565b5f7f6f776e2e696e76616c69642e616d6f756e740000000000000000000000000000910152565b613fda60126020926110ef565b613fe381613fa6565b0190565b613ffc9060208101905f818303910152613fcd565b90565b1561400657565b61400e6102b7565b62461bcd60e51b81528061402460048201613fe7565b0390fd5b5f80809361405a61405583956140508461404a61404488611f3b565b916104a2565b11613fff565b612883565b613a55565b82821561406f575bf11561406a57565b61128e565b506108fc614062565b9061408291613eaf565b565b6140af6140b49161409361105b565b506140a96140a4600f92600e610855565b6102f8565b90610f40565b611095565b90565b6140c2610140611b4e565b90565b5f90565b606090565b6140d66140b7565b9060208080808080808080808b6140eb611b70565b8152016140f6611b70565b815201614101611b74565b81520161410c6140c5565b8152016141176140c9565b8152016141226140c5565b81520161412d6140c5565b815201614138611b74565b8152016141436140c5565b81520161414e6140c5565b81525050565b61415c6140ce565b90565b90614169906104a2565b9052565b90565b5f5260205f2090565b5490565b61418681614179565b8210156141a057614198600191614170565b910201905f90565b612577565b919060086141c09102916141ba5f19846115a6565b926115a6565b9181191691161790565b91906141e06141db6141e893611007565b612548565b9083546141a5565b9055565b908154916801000000000000000083101561421c578261421491600161421a9501815561417d565b906141ca565b565b61121e565b61422b90516104a2565b90565b5190565b600190818003010490565b61424f9161424961105b565b916141ca565b565b5b81811061425d575050565b8061426a5f60019361423d565b01614252565b909182811061427f575b505050565b61429d6142976142916142a895614232565b92614232565b92612c4b565b918201910190614251565b5f808061427a565b906801000000000000000081116142d957816142ce6142d793611f9d565b90828155614270565b565b61121e565b5190565b60200190565b6142f1826142de565b9167ffffffffffffffff83116143545761431f61431960019261431486866142b0565b6142e2565b92612c4b565b9204915f5b8381106143315750505050565b600190602061434761434286614221565b612548565b9401938184015501614324565b61121e565b90614363916142e8565b565b9061445a6101206008614460946143895f82016143835f8801611c46565b90611586565b6143a26001820161439c60208801611c46565b90611586565b6143bb600182016143b560408801611c53565b90611c8e565b6143d4600282016143ce60608801614221565b9061254b565b6143ed600382016143e76080880161422e565b90614359565b6144066004820161440060a08801614221565b9061254b565b61441f6005820161441960c08801614221565b9061254b565b6144386006820161443260e08801611c53565b90612a21565b6144526007820161444c6101008801614221565b9061254b565b019201614221565b9061254b565b565b9061446c91614365565b565b60ff1690565b61448861448361448d926110c4565b61081e565b61446e565b90565b6144a461449f6144a992611bdb565b61081e565b61446e565b90565b6144c06144bb6144c59261446e565b61081e565b6104a2565b90565b9061459f9161451d6144d8614154565b6144e5836060830161415f565b6144f3600160408301611bcd565b826145066145005f611f3b565b916104a2565b036145b7575b61451860108590611023565b614462565b61454861453561452f60118590612e1d565b90610887565b5f61454260108690611023565b01611586565b61456033600161455a60108690611023565b01611586565b61457261456c5f611f3b565b916104a2565b145f146145a157600761459961459161458b6001614490565b5b6144ac565b926010611023565b0161254b565b565b60076145996145916145b25f614474565b61458c565b6145d86145d160036145cb60108790611023565b0161416d565b85906141ec565b61450c565b6145e690610821565b90565b6145f2906145dd565b90565b6145fe906145dd565b90565b90565b90614619614614614620926145f5565b614601565b8254611568565b9055565b61462d90610821565b90565b61463990614624565b90565b61464590614624565b90565b90565b9061466061465b6146679261463c565b614648565b8254611568565b9055565b61467490610821565b90565b6146809061466b565b90565b61468c9061466b565b90565b90565b906146a76146a26146ae92614683565b61468f565b8254611568565b9055565b6146bb90610821565b90565b6146c7906146b2565b90565b6146d3906146b2565b90565b90565b906146ee6146e96146f5926146ca565b6146d6565b8254611568565b9055565b61470290610821565b90565b61470e906146f9565b90565b61471a906146f9565b90565b90565b9061473561473061473c92614711565b61471d565b8254611568565b9055565b61475161474c5f612271565b61227e565b61476b6147656147605f6110e3565b6103f1565b916103f1565b14614da85761479c60206147866147815f612271565b61227e565b634162169f906147946102b7565b93849261125b565b825281806147ac6004820161060c565b03915afa908115614da3576147d3916147cc915f91614d75575b506145e9565b6001614604565b6147ff60206147e96147e45f612271565b61227e565b63b57dbdc6906147f76102b7565b93849261125b565b8252818061480f6004820161060c565b03915afa908115614d70576148369161482f915f91614d42575b50614630565b600261464b565b614862602061484c6148475f612271565b61227e565b63cfbffe539061485a6102b7565b93849261125b565b825281806148726004820161060c565b03915afa908115614d3d5761489991614892915f91614d0f575b50614677565b6003614692565b6148c560206148af6148aa5f612271565b61227e565b63ab6e844f906148bd6102b7565b93849261125b565b825281806148d56004820161060c565b03915afa908115614d0a576148fc916148f5915f91614cdc575b506146be565b60046146d9565b614928602061491261490d5f612271565b61227e565b639a7c4077906149206102b7565b93849261125b565b825281806149386004820161060c565b03915afa908115614cd75761495f91614958915f91614ca9575b50614705565b6005614720565b61498b60206149756149705f612271565b61227e565b63aa0ddc16906149836102b7565b93849261125b565b8252818061499b6004820161060c565b03915afa8015614ca4576149b8915f91614c76575b506007611586565b6149e460206149ce6149c95f612271565b61227e565b636b4aefc6906149dc6102b7565b93849261125b565b825281806149f46004820161060c565b03915afa8015614c7157614a11915f91614c43575b506008611586565b614a3d6020614a27614a225f612271565b61227e565b6324768d9190614a356102b7565b93849261125b565b82528180614a4d6004820161060c565b03915afa8015614c3e57614a6a915f91614c10575b50600b611586565b614a966020614a80614a7b5f612271565b61227e565b636402742790614a8e6102b7565b93849261125b565b82528180614aa66004820161060c565b03915afa8015614c0b57614ac3915f91614bdd575b506009611586565b614aef6020614ad9614ad45f612271565b61227e565b6330125cf590614ae76102b7565b93849261125b565b82528180614aff6004820161060c565b03915afa8015614bd857614b1c915f91614baa575b50600a611586565b614b486020614b32614b2d5f612271565b61227e565b63d3d1b09690614b406102b7565b93849261125b565b82528180614b586004820161060c565b03915afa8015614ba557614b75915f91614b77575b506006611586565b565b614b98915060203d8111614b9e575b614b908183611232565b810190612299565b5f614b6d565b503d614b86565b61128e565b614bcb915060203d8111614bd1575b614bc38183611232565b810190612299565b5f614b14565b503d614bb9565b61128e565b614bfe915060203d8111614c04575b614bf68183611232565b810190612299565b5f614abb565b503d614bec565b61128e565b614c31915060203d8111614c37575b614c298183611232565b810190612299565b5f614a62565b503d614c1f565b61128e565b614c64915060203d8111614c6a575b614c5c8183611232565b810190612299565b5f614a09565b503d614c52565b61128e565b614c97915060203d8111614c9d575b614c8f8183611232565b810190612299565b5f6149b0565b503d614c85565b61128e565b614cca915060203d8111614cd0575b614cc28183611232565b810190612299565b5f614952565b503d614cb8565b61128e565b614cfd915060203d8111614d03575b614cf58183611232565b810190612299565b5f6148ef565b503d614ceb565b61128e565b614d30915060203d8111614d36575b614d288183611232565b810190612299565b5f61488c565b503d614d1e565b61128e565b614d63915060203d8111614d69575b614d5b8183611232565b810190612299565b5f614829565b503d614d51565b61128e565b614d96915060203d8111614d9c575b614d8e8183611232565b810190612299565b5f6147c6565b503d614d84565b61128e565b565b614db261105b565b50614de06020614dca614dc560026111fb565b611208565b63262a9dff90614dd86102b7565b93849261125b565b82528180614df06004820161060c565b03915afa908115614e34575f91614e06575b5090565b614e27915060203d8111614e2d575b614e1f8183611232565b810190611b30565b5f614e02565b503d614e15565b61128e565b614e48614e4e919392936104a2565b926104a2565b8203918211614e5957565b612618565b90614e6890611bde565b5f5260205260405f2090565b90614e7e90611bfd565b5f5260205260405f2090565b90614e9490611c1c565b5f5260205260405f2090565b90565b614eb7614eb2614ebc92614ea0565b61081e565b6104a2565b90565b90614ec990614ea3565b5f5260205260405f2090565b90565b614eec614ee7614ef192614ed5565b61081e565b6104a2565b90565b90614efe90614ed8565b5f5260205260405f2090565b90565b614f21614f1c614f2692614f0a565b61081e565b6104a2565b90565b90614f3390614f0d565b5f5260205260405f2090565b90565b614f56614f51614f5b92614f3f565b61081e565b6104a2565b90565b90614f6890614f42565b5f5260205260405f2090565b614f92614f8d614f86601584906125ec565b5f90612602565b611095565b614fa4614f9e5f611f3b565b916104a2565b148061525b575b614fb3575b50565b614fcf614fca82614fc46001611bde565b90614e39565b614f74565b61525590615022615007615002614ffb6015614ff586614fef6001611bde565b90614e39565b906125ec565b5f90612602565b611095565b61501d615016601585906125ec565b5f90612602565b61254b565b61507361505761505261504a60156150448661503e6001611bde565b90614e39565b906125ec565b600190614e5e565b611095565b61506e615066601585906125ec565b600190614e5e565b61254b565b6150c46150a86150a361509b60156150958661508f6001611bde565b90614e39565b906125ec565b600290614e74565b611095565b6150bf6150b7601585906125ec565b600290614e74565b61254b565b6151156150f96150f46150ec60156150e6866150e06001611bde565b90614e39565b906125ec565b600390614e8a565b611095565b615110615108601585906125ec565b600390614e8a565b61254b565b61516661514a61514561513d6015615137866151316001611bde565b90614e39565b906125ec565b600490614ebf565b611095565b615161615159601585906125ec565b600490614ebf565b61254b565b6151b761519b61519661518e6015615188866151826001611bde565b90614e39565b906125ec565b600590614ef4565b611095565b6151b26151aa601585906125ec565b600590614ef4565b61254b565b6152086151ec6151e76151df60156151d9866151d36001611bde565b90614e39565b906125ec565b600690614f29565b611095565b6152036151fb601585906125ec565b600690614f29565b61254b565b61525061524861524061523b615233601561522d876152276001611bde565b90614e39565b906125ec565b600790614f5e565b611095565b9260156125ec565b600790614f5e565b61254b565b5f614fb0565b508061527061526a6001611bde565b916104a2565b11614fab565b6152806016611809565b5f146152ba576152a66152b7916152a161529c60145f90612602565b611095565b61262c565b6152b260145f90612602565b61254b565b5b565b6152e16152f9916152dc6152d760146152d1614daa565b90612c0d565b611095565b61262c565b6152f460146152ee614daa565b90612c0d565b61254b565b6152b8565b6153086016611809565b5f146153425761532e61533f9161532961532460135f90612602565b611095565b61262c565b61533a60135f90612602565b61254b565b5b565b6153696153819161536461535f6013615359614daa565b90612c0d565b611095565b61262c565b61537c6013615376614daa565b90612c0d565b61254b565b615340565b506153b4602061539e61539960026111fb565b611208565b636a276f9d906153ac6102b7565b93849261125b565b825281806153c46004820161060c565b03915afa80156154d6576153df915f916154a8575b506118da565b61542060206153f66153f160026111fb565b611208565b6319c064299061541533926154096102b7565b9586948593849361125b565b8352600483016104e6565b03915afa9081156154a3575f91615475575b508015615445575b61544390613967565b565b5061544361545b6154566001611922565b61192f565b61546d615467336103f1565b916103f1565b14905061543a565b615496915060203d811161549c575b61548e8183611232565b810190611270565b5f615432565b503d615484565b61128e565b6154c9915060203d81116154cf575b6154c18183611232565b810190611270565b5f6153d9565b503d6154b7565b61128e565b6154e490615386565b56fea26469706673582212204baae9f314dd1f5fb9710533d1508db003aa6ed8ff9c2bcede6ee3eccb83532164736f6c6343000818003360806040523462000023576200001462000029565b61441062000034823961441090f35b6200002f565b60405190565b5f80fdfe60806040526004361015610018575b361561001657005b005b6100225f35610191565b80630b98f9751461018c5780630d43aaf21461018757806312065fe0146101825780631bff68401461017d5780632a31f6b414610178578063379a423c146101735780633b844f9b1461016e57806341ffe7c41461016957806360af454d146101645780636d24b8071461015f578063760f8ea81461015a5780637fdd2b62146101555780638da5cb5b146101505780639e380c7c1461014b578063abb8c96514610146578063b90306ad14610141578063c73fddeb1461013c578063c9ce1e2814610137578063cbf0b0c014610132578063d77de1581461012d578063da9fc92614610128578063ee53a046146101235763f3fef3a30361000e57610bd9565b610b7f565b610af4565b610abc565b610a57565b610a22565b6109dd565b6109b4565b610980565b610917565b610887565b610853565b6107d0565b61079a565b610744565b610711565b6106d9565b610672565b610613565b6104a7565b610424565b6103c9565b6101f2565b60e01c90565b60405190565b5f80fd5b5f80fd5b5f80fd5b90565b6101b5816101a9565b036101bc57565b5f80fd5b905035906101cd826101ac565b565b906020828203126101e8576101e5915f016101c0565b90565b6101a1565b5f0190565b346102205761020a6102053660046101cf565b61105a565b610212610197565b8061021c816101ed565b0390f35b61019d565b5f91031261022f57565b6101a1565b5f1c90565b60018060a01b031690565b61025061025591610234565b610239565b90565b6102629054610244565b90565b60a01c90565b60ff1690565b61027d61028291610265565b61026b565b90565b61028f9054610271565b90565b60a81c90565b6102a46102a991610292565b61026b565b90565b6102b69054610298565b90565b60b01c90565b6102cb6102d0916102b9565b61026b565b90565b6102dd90546102bf565b90565b60b81c90565b6102f26102f7916102e0565b61026b565b90565b61030490546102e6565b90565b600d6103145f8201610258565b916103205f8301610285565b9161032c5f82016102ac565b916103435f61033c8185016102d3565b93016102fa565b90565b60018060a01b031690565b61035a90610346565b90565b61036690610351565b9052565b151590565b6103789061036a565b9052565b909594926103c7946103b66103c0926103ac6080966103a260a088019c5f89019061035d565b602087019061036f565b604085019061036f565b606083019061036f565b019061036f565b565b346103fd576103d9366004610225565b6103f96103e4610307565b916103f0959395610197565b9586958661037c565b0390f35b61019d565b61040b906101a9565b9052565b9190610422905f60208501940190610402565b565b3461045457610434366004610225565b61045061043f611075565b610447610197565b9182918261040f565b0390f35b61019d565b1c90565b61046d9060086104729302610459565b610239565b90565b90610480915461045d565b90565b61048f600f5f90610475565b90565b91906104a5905f6020850194019061035d565b565b346104d7576104b7366004610225565b6104d36104c2610483565b6104ca610197565b91829182610492565b0390f35b61019d565b6104e581610351565b036104ec57565b5f80fd5b905035906104fd826104dc565b565b5f80fd5b5f80fd5b5f80fd5b909182601f830112156105455781359167ffffffffffffffff831161054057602001926001830284011161053b57565b610507565b610503565b6104ff565b91909160408184031261058b57610563835f83016104f0565b92602082013567ffffffffffffffff811161058657610582920161050b565b9091565b6101a5565b6101a1565b5190565b60209181520190565b5f5b8381106105af575050905f910152565b80602091830151818501520161059f565b601f801991011690565b6105e96105f26020936105f7936105e081610590565b93848093610594565b9586910161059d565b6105c0565b0190565b6106109160208201915f8184039101526105ca565b90565b61063b61062a61062436600461054a565b916112f2565b610632610197565b918291826105fb565b0390f35b9060208282031261065857610655915f016104f0565b90565b6101a1565b9190610670905f6020850194019061036f565b565b346106a25761069e61068d61068836600461063f565b61137d565b610695610197565b9182918261065d565b0390f35b61019d565b6040906106d06106d794969593966106c660608401985f850190610402565b6020830190610402565b0190610402565b565b3461070c576107086106f46106ef3660046101cf565b611487565b6106ff939193610197565b938493846106a7565b0390f35b61019d565b3461073f5761072961072436600461063f565b611b63565b610731610197565b8061073b816101ed565b0390f35b61019d565b346107725761075c61075736600461063f565b611c87565b610764610197565b8061076e816101ed565b0390f35b61019d565b91602061079892949361079160408201965f830190610402565b0190610402565b565b346107cb576107aa366004610225565b6107b2611cea565b906107c76107be610197565b92839283610777565b0390f35b61019d565b346107fe576107e86107e336600461063f565b61200d565b6107f0610197565b806107fa816101ed565b0390f35b61019d565b61080c8161036a565b0361081357565b5f80fd5b9050359061082482610803565b565b919060408382031261084e578061084261084b925f8601610817565b936020016101c0565b90565b6101a1565b346108825761086c610866366004610826565b906122c6565b610874610197565b8061087e816101ed565b0390f35b61019d565b346108b757610897366004610225565b6108b36108a26122d6565b6108aa610197565b91829182610492565b0390f35b61019d565b919461090461090e929897956108fa60a0966108f06109159a6108e660c08a019e5f8b0190610402565b6020890190610402565b6040870190610402565b606085019061035d565b6080830190610402565b019061036f565b565b3461094e57610927366004610225565b61094a61093261235f565b92610941969496929192610197565b968796876108bc565b0390f35b61019d565b919060408382031261097b578061096f610978925f86016104f0565b93602001610817565b90565b6101a1565b346109af57610999610993366004610953565b906128dd565b6109a1610197565b806109ab816101ed565b0390f35b61019d565b6109c76109c23660046101cf565b6129f6565b6109cf610197565b806109d9816101ed565b0390f35b34610a0e576109ed366004610225565b6109f5612a2e565b90610a0a610a01610197565b92839283610777565b0390f35b61019d565b610a1f600e5f90610475565b90565b34610a5257610a32366004610225565b610a4e610a3d610a13565b610a45610197565b91829182610492565b0390f35b61019d565b34610a8557610a6f610a6a36600461063f565b612ad7565b610a77610197565b80610a81816101ed565b0390f35b61019d565b604090610ab3610aba9496959396610aa960608401985f850190610402565b6020830190610402565b019061035d565b565b34610aef57610acc366004610225565b610aeb610ad7612b1c565b610ae2939193610197565b93849384610a8a565b0390f35b61019d565b34610b2457610b20610b0f610b0a3660046101cf565b612bdf565b610b17610197565b91829182610492565b0390f35b61019d565b919060a083820312610b7a57610b41815f85016104f0565b92610b4f82602083016101c0565b92610b77610b6084604085016101c0565b93610b6e81606086016101c0565b936080016101c0565b90565b6101a1565b610b96610b8d366004610b29565b93929092612d03565b610b9e610197565b80610ba8816101ed565b0390f35b9190604083820312610bd45780610bc8610bd1925f86016104f0565b936020016101c0565b90565b6101a1565b610bed610be7366004610bac565b9061306c565b610bf5610197565b80610bff816101ed565b0390f35b60018060a01b031690565b610c1a610c1f91610234565b610c03565b90565b610c2c9054610c0e565b90565b90565b610c46610c41610c4b92610346565b610c2f565b610346565b90565b610c5790610c32565b90565b610c6390610c4e565b90565b5f80fd5b634e487b7160e01b5f52604160045260245ffd5b90610c88906105c0565b810190811067ffffffffffffffff821117610ca257604052565b610c6a565b60e01b90565b90505190610cba82610803565b565b90602082820312610cd557610cd2915f01610cad565b90565b6101a1565b610ce2610197565b3d5f823e3d90fd5b60209181520190565b5f7f6f776e2e696e76616c69642e6973536166650000000000000000000000000000910152565b610d276012602092610cea565b610d3081610cf3565b0190565b610d499060208101905f818303910152610d1a565b90565b15610d5357565b610d5b610197565b62461bcd60e51b815280610d7160048201610d34565b0390fd5b60018060a01b031690565b610d8c610d9191610234565b610d75565b90565b610d9e9054610d80565b90565b610daa90610c4e565b90565b5f7f6f776e2e6e6f6e617574682e44414f0000000000000000000000000000000000910152565b610de1600f602092610cea565b610dea81610dad565b0190565b610e039060208101905f818303910152610dd4565b90565b15610e0d57565b610e15610197565b62461bcd60e51b815280610e2b60048201610dee565b0390fd5b610e5d906020610e47610e426002610c22565b610c5a565b636a276f9d90610e55610197565b948592610ca7565b82528180610e6d600482016101ed565b03915afa918215610f8957610ecb92610e8d915f91610f5b575b50610d4c565b6020610ea1610e9c6002610c22565b610c5a565b6319c0642990610ec03392610eb4610197565b96879485938493610ca7565b835260048301610492565b03915afa8015610f5657610ef6925f91610f28575b508015610ef8575b610ef190610e06565b610fc1565b565b50610ef1610f0e610f096001610d94565b610da1565b610f20610f1a33610351565b91610351565b149050610ee8565b610f49915060203d8111610f4f575b610f418183610c7e565b810190610cbc565b5f610ee0565b503d610f37565b610cda565b610f7c915060203d8111610f82575b610f748183610c7e565b810190610cbc565b5f610e87565b503d610f6a565b610cda565b610f9790610c32565b90565b610fa390610f8e565b90565b610faf90610c4e565b90565b5f910312610fbc57565b6101a1565b610fdb610fd6610fd1600f610258565b610f9a565b610fa6565b906390fb00e790823b1561105557611012926110075f8094610ffb610197565b96879586948593610ca7565b83526004830161040f565b03925af1801561105057611024575b50565b611043905f3d8111611049575b61103b8183610c7e565b810190610fb2565b5f611021565b503d611031565b610cda565b610c66565b61106390610e2f565b565b5f90565b61107290610c4e565b90565b61107d611065565b5061108730611069565b3190565b606090565b5f7f696e732e696e76616c69642e73656e6465720000000000000000000000000000910152565b6110c46012602092610cea565b6110cd81611090565b0190565b6110e69060208101905f8183039101526110b7565b90565b156110f057565b6110f8610197565b62461bcd60e51b81528061110e600482016110d1565b0390fd5b90565b61112961112461112e92611112565b610c2f565b610346565b90565b61113a90611115565b90565b5f7f696e732e696e76616c69642e7461726765740000000000000000000000000000910152565b6111716012602092610cea565b61117a8161113d565b0190565b6111939060208101905f818303910152611164565b90565b1561119d57565b6111a5610197565b62461bcd60e51b8152806111bb6004820161117e565b0390fd5b905090565b90825f939282370152565b9091826111df816111e6936111bf565b80936111c4565b0190565b90916111f5926111cf565b90565b9061120b611204610197565b9283610c7e565b565b67ffffffffffffffff811161122b576112276020916105c0565b0190565b610c6a565b9061124261123d8361120d565b6111f8565b918252565b3d5f14611262576112573d611230565b903d5f602084013e5b565b61126a61108b565b90611260565b5f7f696e732e7461726765742e63616c6c2e6661696c656400000000000000000000910152565b6112a46016602092610cea565b6112ad81611270565b0190565b6112c69060208101905f818303910152611297565b90565b156112d057565b6112d8610197565b62461bcd60e51b8152806112ee600482016112b1565b0390fd5b905f9283926112ff61108b565b5061132561130d600f610258565b61131f61131933610351565b91610351565b146110e9565b61134a8161134361133d61133888611131565b610351565b91610351565b1415611196565b913490611361611358610197565b938492836111ea565b03925af1611376611370611247565b916112c9565b90565b5f90565b611385611379565b506113c7602061139d6113986002610c22565b610c5a565b6319c06429906113bc85926113b0610197565b95869485938493610ca7565b835260048301610492565b03915afa908115611439575f9161140b575b509081156113e6575b5090565b90506114046113fe6113f8600c610258565b92610351565b91610351565b145f6113e2565b61142c915060203d8111611432575b6114248183610c7e565b810190610cbc565b5f6113d9565b503d61141a565b610cda565b9050519061144b826101ac565b565b90916060828403126114825761147f611468845f850161143e565b93611476816020860161143e565b9360400161143e565b90565b6101a1565b9060606114ea92611496611065565b5061149f611065565b506114a8611065565b506114c36114be6114b9600f610258565b610f9a565b610fa6565b6114df637e5c89376114d3610197565b96879485938493610ca7565b83526004830161040f565b03915afa90811561153e575f8080949093611509575b50919291929190565b9193505061152e915060603d8111611537575b6115268183610c7e565b81019061144d565b9290915f611500565b503d61151c565b610cda565b5f7f6f776d2e66616b652e2064656c65676174650000000000000000000000000000910152565b6115776012602092610cea565b61158081611543565b0190565b6115999060208101905f81830391015261156a565b90565b156115a357565b6115ab610197565b62461bcd60e51b8152806115c160048201611584565b0390fd5b6115f260206115dc6115d76002610c22565b610c5a565b636a276f9d906115ea610197565b938492610ca7565b82528180611602600482016101ed565b03915afa80156117245761161d915f916116f6575b50610d4c565b61162f61162a6001610d94565b610da1565b61164161163b33610351565b91610351565b1490811561165d575b61165661165b9261159c565b611a24565b565b6116a0915060206116766116716002610c22565b610c5a565b637df73e27906116953392611689610197565b96879485938493610ca7565b835260048301610492565b03915afa9182156116f15761165b92611656915f916116c3575b5092505061164a565b6116e4915060203d81116116ea575b6116dc8183610c7e565b810190610cbc565b5f6116ba565b503d6116d2565b610cda565b611717915060203d811161171d575b61170f8183610c7e565b810190610cbc565b5f611617565b503d611705565b610cda565b906020828203126117425761173f915f0161143e565b90565b6101a1565b61175160a06111f8565b90565b5f90565b5f90565b611764611747565b9060208080808086611774611754565b81520161177f611758565b81520161178a611758565b815201611795611758565b8152016117a0611758565b81525050565b6117ae61175c565b90565b906117bb9061036a565b9052565b90565b6117d66117d16117db926117bf565b610c2f565b6101a9565b90565b90565b6117f56117f06117fa926117de565b610c2f565b6101a9565b90565b90565b61181461180f611819926117fd565b610c2f565b6101a9565b90565b9061182690610351565b9052565b6118349051610351565b90565b5f1b90565b9061184d60018060a01b0391611837565b9181191691161790565b61186090610c4e565b90565b90565b9061187b61187661188292611857565b611863565b825461183c565b9055565b611890905161036a565b90565b60a01b90565b906118a860ff60a01b91611893565b9181191691161790565b6118bb9061036a565b90565b90565b906118d66118d16118dd926118b2565b6118be565b8254611899565b9055565b60a81b90565b906118f660ff60a81b916118e1565b9181191691161790565b9061191561191061191c926118b2565b6118be565b82546118e7565b9055565b60b01b90565b9061193560ff60b01b91611920565b9181191691161790565b9061195461194f61195b926118b2565b6118be565b8254611926565b9055565b60b81b90565b9061197460ff60b81b9161195f565b9181191691161790565b9061199361198e61199a926118b2565b6118be565b8254611965565b9055565b90611a1060805f611a16946119c08282016119ba84880161182a565b90611866565b6119d88282016119d260208801611886565b906118c1565b6119f08282016119ea60408801611886565b90611900565b611a08828201611a0260608801611886565b9061193f565b019201611886565b9061197e565b565b90611a229161199e565b565b611a66906020611a3c611a376002610c22565b610c5a565b631d84be4490611a5b3392611a4f610197565b96879485938493610ca7565b835260048301610492565b03915afa918215611b5e57611af592611aee915f91611b30575b5091611a8a6117a6565b92611a996001602086016117b1565b80611aad611aa760016117c2565b916101a9565b14611b1d575b80611ac7611ac160026117e1565b916101a9565b14611b0a575b611ae0611ada6003611800565b916101a9565b14611af7575b5f830161181c565b600d611a18565b565b611b056001608085016117b1565b611ae6565b611b186001606086016117b1565b611acd565b611b2b6001604086016117b1565b611ab3565b611b51915060203d8111611b57575b611b498183610c7e565b810190611729565b5f611a80565b503d611b3f565b610cda565b611b6c906115c5565b565b60018060a01b031690565b611b85611b8a91610234565b611b6e565b90565b611b979054611b79565b90565b611ba390610c4e565b90565b5f7f6f776e2e686578626173652e6661696c65640000000000000000000000000000910152565b611bda6012602092610cea565b611be381611ba6565b0190565b611bfc9060208101905f818303910152611bcd565b90565b15611c0657565b611c0e610197565b62461bcd60e51b815280611c2460048201611be7565b0390fd5b611c3190610c32565b90565b611c3d90611c28565b90565b611c4990610c32565b90565b611c5590611c40565b90565b611c6190611c40565b90565b90565b90611c7c611c77611c8392611c58565b611c64565b825461183c565b9055565b611cda611cd5611ce092611cc5611ca5611ca05f611b8d565b611b9a565b611cbf611cb9611cb45f611131565b610351565b91610351565b14611bff565b611cd032600c611866565b611c34565b611c4c565b5f611c67565b611ce86131db565b565b611cf2611065565b50611cfb611065565b50611d06600e610258565b3190611d12600f610258565b3190565b611d44906020611d2e611d296002610c22565b610c5a565b636a276f9d90611d3c610197565b948592610ca7565b82528180611d54600482016101ed565b03915afa918215611e7057611db292611d74915f91611e42575b50610d4c565b6020611d88611d836002610c22565b610c5a565b6319c0642990611da73392611d9b610197565b96879485938493610ca7565b835260048301610492565b03915afa8015611e3d57611ddd925f91611e0f575b508015611ddf575b611dd890610e06565b611ed0565b565b50611dd8611df5611df06001610d94565b610da1565b611e07611e0133610351565b91610351565b149050611dcf565b611e30915060203d8111611e36575b611e288183610c7e565b810190610cbc565b5f611dc7565b503d611e1e565b610cda565b611e63915060203d8111611e69575b611e5b8183610c7e565b810190610cbc565b5f611d6e565b503d611e51565b610cda565b60018060a01b031690565b611e8c611e9191610234565b611e75565b90565b611e9e9054611e80565b90565b611eaa90610c4e565b90565b916020611ece929493611ec760408201965f83019061035d565b019061035d565b565b611ee2611edd6004611e94565b611ea1565b631ea3c8b4611ef1600c610258565b8392803b1561200857611f175f8094611f22611f0b610197565b97889687958694610ca7565b845260048401611ead565b03925af1801561200357611fd7575b50611f4c611f47611f42600f610258565b610f9a565b610fa6565b9063bda71ada81833b15611fd257611f8393611f785f8094611f6c610197565b97889586948593610ca7565b835260048301610492565b03925af1918215611fcd57611f9f92611fa1575b50600c611866565b565b611fc0905f3d8111611fc6575b611fb88183610c7e565b810190610fb2565b5f611f97565b503d611fae565b610cda565b610c66565b611ff6905f3d8111611ffc575b611fee8183610c7e565b810190610fb2565b5f611f31565b503d611fe4565b610cda565b610c66565b61201690611d16565b565b9061204791602061203161202c6002610c22565b610c5a565b636a276f9d9061203f610197565b958692610ca7565b82528180612057600482016101ed565b03915afa928315612173576120b593612077915f91612145575b50610d4c565b602061208b6120866002610c22565b610c5a565b6319c06429906120aa339261209e610197565b97889485938493610ca7565b835260048301610492565b03915afa8015612140576120e0935f91612112575b5080156120e2575b6120db90610e06565b61219b565b565b506120db6120f86120f36001610d94565b610da1565b61210a61210433610351565b91610351565b1490506120d2565b612133915060203d8111612139575b61212b8183610c7e565b810190610cbc565b5f6120ca565b503d612121565b610cda565b612166915060203d811161216c575b61215e8183610c7e565b810190610cbc565b5f612071565b503d612154565b610cda565b91602061219992949361219260408201965f83019061036f565b0190610402565b565b906121b66121b16121ac600f610258565b610f9a565b610fa6565b9063e995b63f90839092803b156122c1576121e45f80946121ef6121d8610197565b97889687958694610ca7565b845260048401612178565b03925af180156122bc57612290575b5061221161220c6004611e94565b611ea1565b9063641657cb90823b1561228b576122489261223d5f8094612231610197565b96879586948593610ca7565b83526004830161065d565b03925af180156122865761225a575b50565b612279905f3d811161227f575b6122718183610c7e565b810190610fb2565b5f612257565b503d612267565b610cda565b610c66565b6122af905f3d81116122b5575b6122a78183610c7e565b810190610fb2565b5f6121fe565b503d61229d565b610cda565b610c66565b906122d091612018565b565b5f90565b6122de6122d2565b506122e9600c610258565b90565b905051906122f9826104dc565b565b909160c08284031261235a57612313835f840161143e565b92612321816020850161143e565b9261232f826040830161143e565b9261235761234084606085016122ec565b9361234e816080860161143e565b9360a001610cad565b90565b6101a1565b6123cb9061236b611065565b50612374611065565b5061237d611065565b506123866122d2565b5061238f611065565b50612398611379565b5060c06123b56123b06123ab600f610258565b610f9a565b610fa6565b63e658ebd6906123c3610197565b948592610ca7565b825281806123db600482016101ed565b03915afa8015612441575f808080808094919692979095612406575b50919594939291959493929190565b9450509450505061242e915060c03d811161243a575b6124268183610c7e565b8101906122fb565b9295909391945f6123f7565b503d61241c565b610cda565b90612474602061245e6124596002610c22565b610c5a565b636a276f9d9061246c610197565b938492610ca7565b82528180612484600482016101ed565b03915afa80156125a65761249f915f91612578575b50610d4c565b6124b16124ac6001610d94565b610da1565b6124c36124bd33610351565b91610351565b149182156124df575b6124d86124dd9361159c565b6125f7565b565b612522925060206124f86124f36002610c22565b610c5a565b637df73e2790612517339261250b610197565b97889485938493610ca7565b835260048301610492565b03915afa928315612573576124dd936124d8915f91612545575b509350506124cc565b612566915060203d811161256c575b61255e8183610c7e565b810190610cbc565b5f61253c565b503d612554565b610cda565b612599915060203d811161259f575b6125918183610c7e565b810190610cbc565b5f612499565b503d612587565b610cda565b6125bf6125ba6125c492611112565b610c2f565b6101a9565b90565b634e487b7160e01b5f52601160045260245ffd5b6125e4906101a9565b5f1981146125f25760010190565b6125c7565b905f146128c55761263f60206126156126106002610c22565b610c5a565b631d84be44906126343392612628610197565b95869485938493610ca7565b835260048301610492565b03915afa9081156128c0575f91612892575b5061265e5f600d01610285565b80612877575b80612852575b61283f575b61267b5f600d01610285565b80612824575b806127ff575b6127ec575b6126985f600d01610285565b90816127d0575b50806127ab575b612798575b6126b45f6125ab565b6126c05f600d016102ac565b61278a575b6126d15f600d016102d3565b61277c575b6126e25f600d016102fa565b61276e575b6126f35f600d01610285565b9081612752575b508061272d575b61270a575b505b565b61271590600c611866565b6127276127206117a6565b600d611a18565b5f612706565b5061273a5f600d01610258565b61274c61274683610351565b91610351565b14612701565b905061276761276160026117e1565b916101a9565b145f6126fa565b612777906125db565b6126e7565b612785906125db565b6126d6565b612793906125db565b6126c5565b6127a660015f600d0161197e565b6126ab565b506127b85f600d01610258565b6127ca6127c483610351565b91610351565b146126a6565b90506127e56127df6003611800565b916101a9565b145f61269f565b6127fa60015f600d0161193f565b61268c565b5061280c5f600d01610258565b61281e61281884610351565b91610351565b14612687565b508061283961283360026117e1565b916101a9565b14612681565b61284d60015f600d01611900565b61266f565b5061285f5f600d01610258565b61287161286b84610351565b91610351565b1461266a565b508061288c61288660016117c2565b916101a9565b14612664565b6128b3915060203d81116128b9575b6128ab8183610c7e565b810190611729565b5f612651565b503d6128a1565b610cda565b506128d86128d16117a6565b600d611a18565b612708565b906128e791612446565b565b6129179060206129016128fc6002610c22565b610c5a565b636a276f9d9061290f610197565b948592610ca7565b82528180612927600482016101ed565b03915afa9182156129a95761297992612947915f9161297b575b50610d4c565b61297461295c6129576001610d94565b610da1565b61296e61296833610351565b91610351565b14610e06565b6129ba565b565b61299c915060203d81116129a2575b6129948183610c7e565b810190610cbc565b5f612941565b503d61298a565b610cda565b6129b790610c4e565b90565b5f808080936129d86129d36129ce84611131565b611c34565b6129ae565b8282156129ed575bf1156129e857565b610cda565b506108fc6129e0565b6129ff906128e9565b565b9190604083820312612a295780612a1d612a26925f860161143e565b9360200161143e565b90565b6101a1565b612a7690612a3a611065565b50612a43611065565b506040612a60612a5b612a56600f610258565b610f9a565b610fa6565b632b17219790612a6e610197565b948592610ca7565b82528180612a86600482016101ed565b03915afa8015612ad2575f80939091612a9f575b509190565b9050612ac391925060403d8111612acb575b612abb8183610c7e565b810190612a01565b91905f612a9a565b503d612ab1565b610cda565b612ae09061399a565b565b9091606082840312612b1757612b14612afd845f850161143e565b93612b0b816020860161143e565b936040016122ec565b90565b6101a1565b612b24611065565b90612b2d611065565b90612b366122d2565b90612b6c6060612b56612b51612b4c600f610258565b610f9a565b610fa6565b637d5886ad90612b64610197565b938492610ca7565b82528180612b7c600482016101ed565b03915afa8015612bbc57612b8e575b50565b612bae9060603d8111612bb5575b612ba68183610c7e565b810190612ae2565b5050612b8b565b503d612b9c565b610cda565b90602082820312612bda57612bd7915f016122ec565b90565b6101a1565b6020612c2f91612bed6122d2565b50612c08612c03612bfe600f610258565b610f9a565b610fa6565b612c2463946894e5612c18610197565b95869485938493610ca7565b83526004830161040f565b03915afa908115612c73575f91612c45575b5090565b612c66915060203d8111612c6c575b612c5e8183610c7e565b810190612bc1565b5f612c41565b503d612c54565b610cda565b90565b612c8f612c8a612c9492612c78565b610c2f565b6101a9565b90565b90565b612cae612ca9612cb392612c97565b610c2f565b6101a9565b90565b90959492612d0194612cf0612cfa92612ce6608096612cdc60a088019c5f89019061035d565b6020870190610402565b6040850190610402565b6060830190610402565b0190610402565b565b90919380612d1a612d1460c8612c7b565b916101a9565b10155f14612df85780612d36612d3060c8612c7b565b916101a9565b14612de0575b612d56612d51612d4c600f610258565b610f9a565b610fa6565b9163ac3e52c89234909390919496959295843b15612ddb575f96612d8c94612d9792612d80610197565b9a8b998a988997610ca7565b875260048701612cb6565b03925af18015612dd657612daa575b505b565b612dc9905f3d8111612dcf575b612dc18183610c7e565b810190610fb2565b5f612da6565b503d612db7565b610cda565b610c66565b90612dea90613b03565b90612df3613d8e565b612d3c565b9350505050612e10612e0a6064612c9a565b916101a9565b1015612e1c575b612da8565b612e17565b5f7f6f776e2e64656661756c742e73656e6465720000000000000000000000000000910152565b612e556012602092610cea565b612e5e81612e21565b0190565b612e779060208101905f818303910152612e48565b90565b15612e8157565b612e89610197565b62461bcd60e51b815280612e9f60048201612e62565b0390fd5b90612ed291612ecd81612ec6612ec0612ebb5f611131565b610351565b91610351565b1415612e7a565b612ed4565b565b90612f03916020612eed612ee86002610c22565b610c5a565b636a276f9d90612efb610197565b958692610ca7565b82528180612f13600482016101ed565b03915afa928315612f9557612f6593612f33915f91612f67575b50610d4c565b612f60612f48612f436001610d94565b610da1565b612f5a612f5433610351565b91610351565b14610e06565b61301c565b565b612f88915060203d8111612f8e575b612f808183610c7e565b810190610cbc565b5f612f2d565b503d612f76565b610cda565b5f7f6f776e2e696e76616c69642e616d6f756e740000000000000000000000000000910152565b612fce6012602092610cea565b612fd781612f9a565b0190565b612ff09060208101905f818303910152612fc1565b90565b15612ffa57565b613002610197565b62461bcd60e51b81528061301860048201612fdb565b0390fd5b5f80809361304e61304983956130448461303e613038886125ab565b916101a9565b11612ff3565b611c34565b6129ae565b828215613063575bf11561305e57565b610cda565b506108fc613056565b9061307691612ea3565b565b61308190610c32565b90565b61308d90613078565b90565b61309990613078565b90565b90565b906130b46130af6130bb92613090565b61309c565b825461183c565b9055565b6130c890610c32565b90565b6130d4906130bf565b90565b6130e0906130bf565b90565b90565b906130fb6130f6613102926130d7565b6130e3565b825461183c565b9055565b61310f90610c32565b90565b61311b90613106565b90565b61312790613106565b90565b90565b9061314261313d6131499261311e565b61312a565b825461183c565b9055565b61315690610c32565b90565b6131629061314d565b90565b61316e9061314d565b90565b90565b9061318961318461319092613165565b613171565b825461183c565b9055565b61319d90610c32565b90565b6131a990613194565b90565b6131b590613194565b90565b90565b906131d06131cb6131d7926131ac565b6131b8565b825461183c565b9055565b6131ec6131e75f611b8d565b611b9a565b6132066132006131fb5f611131565b610351565b91610351565b1461384357613237602061322161321c5f611b8d565b611b9a565b634162169f9061322f610197565b938492610ca7565b82528180613247600482016101ed565b03915afa90811561383e5761326e91613267915f91613810575b50613084565b600161309f565b61329a602061328461327f5f611b8d565b611b9a565b63b57dbdc690613292610197565b938492610ca7565b825281806132aa600482016101ed565b03915afa90811561380b576132d1916132ca915f916137dd575b506130cb565b60026130e6565b6132fd60206132e76132e25f611b8d565b611b9a565b63cfbffe53906132f5610197565b938492610ca7565b8252818061330d600482016101ed565b03915afa9081156137d8576133349161332d915f916137aa575b50613112565b600361312d565b613360602061334a6133455f611b8d565b611b9a565b63ab6e844f90613358610197565b938492610ca7565b82528180613370600482016101ed565b03915afa9081156137a55761339791613390915f91613777575b50613159565b6004613174565b6133c360206133ad6133a85f611b8d565b611b9a565b639a7c4077906133bb610197565b938492610ca7565b825281806133d3600482016101ed565b03915afa908115613772576133fa916133f3915f91613744575b506131a0565b60056131bb565b613426602061341061340b5f611b8d565b611b9a565b63aa0ddc169061341e610197565b938492610ca7565b82528180613436600482016101ed565b03915afa801561373f57613453915f91613711575b506007611866565b61347f60206134696134645f611b8d565b611b9a565b636b4aefc690613477610197565b938492610ca7565b8252818061348f600482016101ed565b03915afa801561370c576134ac915f916136de575b506008611866565b6134d860206134c26134bd5f611b8d565b611b9a565b6324768d91906134d0610197565b938492610ca7565b825281806134e8600482016101ed565b03915afa80156136d957613505915f916136ab575b50600b611866565b613531602061351b6135165f611b8d565b611b9a565b636402742790613529610197565b938492610ca7565b82528180613541600482016101ed565b03915afa80156136a65761355e915f91613678575b506009611866565b61358a602061357461356f5f611b8d565b611b9a565b6330125cf590613582610197565b938492610ca7565b8252818061359a600482016101ed565b03915afa8015613673576135b7915f91613645575b50600a611866565b6135e360206135cd6135c85f611b8d565b611b9a565b63d3d1b096906135db610197565b938492610ca7565b825281806135f3600482016101ed565b03915afa801561364057613610915f91613612575b506006611866565b565b613633915060203d8111613639575b61362b8183610c7e565b810190612bc1565b5f613608565b503d613621565b610cda565b613666915060203d811161366c575b61365e8183610c7e565b810190612bc1565b5f6135af565b503d613654565b610cda565b613699915060203d811161369f575b6136918183610c7e565b810190612bc1565b5f613556565b503d613687565b610cda565b6136cc915060203d81116136d2575b6136c48183610c7e565b810190612bc1565b5f6134fd565b503d6136ba565b610cda565b6136ff915060203d8111613705575b6136f78183610c7e565b810190612bc1565b5f6134a4565b503d6136ed565b610cda565b613732915060203d8111613738575b61372a8183610c7e565b810190612bc1565b5f61344b565b503d613720565b610cda565b613765915060203d811161376b575b61375d8183610c7e565b810190612bc1565b5f6133ed565b503d613753565b610cda565b613798915060203d811161379e575b6137908183610c7e565b810190612bc1565b5f61338a565b503d613786565b610cda565b6137cb915060203d81116137d1575b6137c38183610c7e565b810190612bc1565b5f613327565b503d6137b9565b610cda565b6137fe915060203d8111613804575b6137f68183610c7e565b810190612bc1565b5f6132c4565b503d6137ec565b610cda565b613831915060203d8111613837575b6138298183610c7e565b810190612bc1565b5f613261565b503d61381f565b610cda565b565b50613873602061385d6138586002610c22565b610c5a565b636a276f9d9061386b610197565b938492610ca7565b82528180613883600482016101ed565b03915afa80156139955761389e915f91613967575b50610d4c565b6138df60206138b56138b06002610c22565b610c5a565b6319c06429906138d433926138c8610197565b95869485938493610ca7565b835260048301610492565b03915afa908115613962575f91613934575b508015613904575b61390290610e06565b565b5061390261391a6139156001610d94565b610da1565b61392c61392633610351565b91610351565b1490506138f9565b613955915060203d811161395b575b61394d8183610c7e565b810190610cbc565b5f6138f1565b503d613943565b610cda565b613988915060203d811161398e575b6139808183610c7e565b810190610cbc565b5f613898565b503d613976565b610cda565b6139a390613845565b565b67ffffffffffffffff81116139c3576139bf6020916105c0565b0190565b610c6a565b906139da6139d5836139a5565b6111f8565b918252565b5f7f55736572546f496e737428616464726573732900000000000000000000000000910152565b613a1060136139c8565b90613a1d602083016139df565b565b613a27613a06565b90565b369037565b90613a54613a3c83611230565b92602080613a4a869361120d565b9201910390613a2a565b565b5f7f6361676528290000000000000000000000000000000000000000000000000000910152565b613a8760066139c8565b90613a9460208301613a56565b565b613a9e613a7d565b90565b604090613aca613ad19496959396613ac060608401985f85019061035d565b602083019061035d565b0190610402565b565b613adc906117c2565b9052565b916020613b01929493613afa60408201965f83019061035d565b0190613ad3565b565b613b0b6122d2565b50613b17816010611866565b613b216010610258565b613b3b613b35613b305f611131565b610351565b91610351565b145f14613bd557613b54613b4f6004611e94565b611ea1565b6020635427923391613b66600c610258565b90613b855f600195613b90613b79610197565b97889687958694610ca7565b845260048401613ae0565b03925af18015613bd057613ba4575b505b90565b613bc49060203d8111613bc9575b613bbc8183610c7e565b810190611729565b613b9f565b503d613bb2565b610cda565b50613bde613ee0565b613c0a6020613bf4613bef5f611b8d565b611b9a565b63447bf0e290613c02610197565b938492610ca7565b82528180613c1a600482016101ed565b03915afa908115613d8957613c7391613c56915f91613d5b575b50613c65613c42600c610258565b613c4a610197565b93849160208301610492565b60208201810382520383610c7e565b613c6d613a1f565b90613fdb565b9081613c8f613c89613c845f611131565b610351565b91610351565b03613d31575b6020613ca9613ca46004611e94565b611ea1565b63e4a312d190613ce05f613cbd6010610258565b93613ceb613ccb600c610258565b97613cd4610197565b98899788968795610ca7565b855260048501613aa1565b03925af18015613d2c57613d00575b50613ba1565b613d209060203d8111613d25575b613d188183610c7e565b810190611729565b613cfa565b503d613d0e565b610cda565b50613d5681613d47613d425f6125ab565b613a2f565b90613d50613a96565b90614051565b613c95565b613d7c915060203d8111613d82575b613d748183610c7e565b810190612bc1565b5f613c34565b503d613d6a565b610cda565b613dba6020613da4613d9f5f611b8d565b611b9a565b637c27dd0c90613db2610197565b938492610ca7565b82528180613dca600482016101ed565b03915afa908115613edb57613dfb91613df4915f91613ead575b50613dee5f6125ab565b906141cb565b600f611866565b613e15613e10613e0b600f610258565b610f9a565b610fa6565b63463ef7c7613e2b613e265f611b8d565b611b9a565b613e356010610258565b92803b15613ea857613e5a5f8094613e65613e4e610197565b97889687958694610ca7565b845260048401611ead565b03925af18015613ea357613e77575b50565b613e96905f3d8111613e9c575b613e8e8183610c7e565b810190610fb2565b5f613e74565b503d613e84565b610cda565b610c66565b613ece915060203d8111613ed4575b613ec68183610c7e565b810190612bc1565b5f613de4565b503d613ebc565b610cda565b613ee8611065565b50613f166020613f00613efb6002610c22565b610c5a565b63262a9dff90613f0e610197565b938492610ca7565b82528180613f26600482016101ed565b03915afa908115613f6a575f91613f3c575b5090565b613f5d915060203d8111613f63575b613f558183610c7e565b810190611729565b5f613f38565b503d613f4b565b610cda565b90565b613f86613f81613f8b92613f6f565b610c2f565b6101a9565b90565b613f9790610346565b90565b613fa381613f8e565b03613faa57565b5f80fd5b90505190613fbb82613f9a565b565b90602082820312613fd657613fd3915f01613fae565b90565b6101a1565b929190613ff391613fea6122d2565b949190916142f7565b908061402e575b614002575b50565b61402791925061402290602061401782610590565b818301019101613fbd565b6129ae565b905f613fff565b5061403881610590565b61404b6140456020613f72565b916101a9565b14613ffa565b92919061406991614060611065565b949190916142f7565b908061409b575b614078575b50565b614094919250602061408982610590565b818301019101611729565b905f614075565b506140a581610590565b6140b86140b26020613f72565b916101a9565b14614070565b6140c790610c4e565b90565b60207f73732874686973292e62616c616e63652c2076616c7565290000000000000000917f4572726f72732e496e73756666696369656e7442616c616e63652861646472655f8201520152565b6141246038604092610cea565b61412d816140ca565b0190565b6141469060208101905f818303910152614117565b90565b5f7f696e732e436c6f6e65466163746f72792e6372656174652e6661696c65640000910152565b61417d601e602092610cea565b61418681614149565b0190565b61419f9060208101905f818303910152614170565b90565b156141a957565b6141b1610197565b62461bcd60e51b8152806141c76004820161418a565b0390fd5b6141d36122d2565b506141dd306140be565b316141f06141ea846101a9565b916101a9565b1061425d576037916e5af43d82803e903d91602b57fd5bf382763d602d80600a3d3981f3363d3d373d3d3d363d7300000060099460601b60e81c175f5260781b17602052f09061425b8261425461424e6142495f611131565b610351565b91610351565b14156141a2565b565b614265610197565b62461bcd60e51b81528061427b60048201614131565b0390fd5b6142885f6139c8565b90565b61429361427f565b90565b90565b60200190565b63ffffffff60e01b1690565b6142b49061429f565b90565b6142dc6142d3926020926142ca81610590565b948580936111bf565b9384910161059d565b0190565b6142ee906142f493926142b7565b906142b7565b90565b6142ff611379565b5061430861108b565b50803b61431d6143175f6125ab565b916101a9565b146143ca5760046143b55f9461438e86956143648761435e614346614340610197565b94614296565b61435861435282610590565b91614299565b206142ab565b92610c7e565b61437f61436f610197565b95869260208401908152016101ed565b60208201810382520384610c7e565b916143a661439a610197565b938492602084016142e0565b60208201810382520382610c7e565b602081019051915afa6143c6611247565b9091565b5050505f906143d761428b565b9056fea26469706673582212207fd6326e50453db57b7978d2f2944fa2a30efff0106a77662939902a606c4b3f64736f6c634300081800336080604052346200003b576200002262000018620002f2565b929190916200098e565b6200002c62000041565b6169b562000b7d82396169b590f35b62000047565b60405190565b5f80fd5b601f801991011690565b634e487b7160e01b5f52604160045260245ffd5b9062000075906200004b565b810190811060018060401b038211176200008e57604052565b62000055565b90620000ab620000a362000041565b928362000069565b565b5f80fd5b5f80fd5b5f80fd5b5f80fd5b60018060401b038111620000dc57620000d86020916200004b565b0190565b62000055565b5f5b838110620000f5575050905f910152565b806020918301518185015201620000e4565b90929192620001206200011a82620000bd565b62000094565b938185526020850190828401116200013f576200013d92620000e2565b565b620000b9565b9080601f830112156200016657816020620001639351910162000107565b90565b620000b5565b90565b6200017a816200016c565b036200018257565b5f80fd5b9050519062000195826200016f565b565b60018060401b038111620001ae5760208091020190565b62000055565b5f80fd5b929190620001d0620001ca8262000197565b62000094565b93818552602080860192028101918383116200022c5781905b838210620001f8575050505050565b815160018060401b03811162000226576020916200021a878493870162000145565b815201910190620001e9565b620000b5565b620001b4565b9080601f8301121562000253578160206200025093519101620001b8565b90565b620000b5565b90608082820312620002ec575f82015160018060401b038111620002e657816200028591840162000145565b92602083015160018060401b038111620002e05782620002a791850162000145565b92620002b7836040830162000186565b92606082015160018060401b038111620002da57620002d7920162000232565b90565b620000b1565b620000b1565b620000b1565b620000ad565b620003156200753280380380620003098162000094565b92833981019062000259565b90919293565b5f1b90565b906200032e5f19916200031b565b9181191691161790565b90565b90565b62000357620003516200035d9262000338565b6200033b565b6200016c565b90565b90565b906200037d6200037762000385926200033e565b62000360565b825462000320565b9055565b634e487b7160e01b5f525f60045260245ffd5b5190565b634e487b7160e01b5f52602260045260245ffd5b9060016002830492168015620003d7575b6020831014620003d157565b620003a0565b91607f1691620003c5565b5f5260205f2090565b601f602091010490565b1b90565b9190600862000418910291620004115f1984620003f5565b92620003f5565b9181191691161790565b6200043b6200043562000441926200016c565b6200033b565b6200016c565b90565b91906200045f62000459620004689362000422565b62000360565b908354620003f9565b9055565b5f90565b62000486916200047f6200046c565b9162000444565b565b5b81811062000495575050565b80620004a45f60019362000470565b0162000489565b9190601f8111620004bc575b505050565b620004cb620004f693620003e2565b906020620004d984620003eb565b83019310620004ff575b620004ee90620003eb565b019062000488565b5f8080620004b7565b9150620004ee81929050620004e3565b1c90565b9062000525905f19906008026200050f565b191690565b81620005369162000513565b906002021790565b906200054a816200039c565b9060018060401b0382116200061b5762000571826200056a8554620003b4565b85620004ab565b602090601f8311600114620005aa5791809162000598935f926200059d575b50506200052a565b90555b565b90915001515f8062000590565b601f19831691620005bb85620003e2565b925f5b8181106200060257509160029391856001969410620005e5575b505050020190556200059b565b620005f7910151601f84169062000513565b90555f8080620005d8565b91936020600181928787015181550195019201620005be565b62000055565b906200062d916200053e565b565b906200064962000643620006519262000422565b62000360565b825462000320565b9055565b60016200066391016200016c565b90565b5190565b634e487b7160e01b5f52603260045260245ffd5b906200068a8262000666565b8110156200069c576020809102010190565b6200066a565b905090565b620006d2620006c892602092620006be816200039c565b94858093620006a2565b93849101620000e2565b0190565b90565b620006e8620006ee916200016c565b620006d6565b9052565b620007056200070d9160209493620006a7565b8092620006d9565b0190565b620007296200071f62000041565b92839283620006f2565b03902090565b6200073a9162000711565b90565b5f1c90565b90565b620007546200075a916200073d565b62000742565b90565b62000769905462000745565b90565b60209181520190565b5f7f6f72632e746f6b656e2e6661696c656400000000000000000000000000000000910152565b620007ab60106020926200076c565b620007b68162000775565b0190565b620007d19060208101905f8183039101526200079c565b90565b15620007dc57565b620007e662000041565b62461bcd60e51b815280620007fe60048201620007ba565b0390fd5b90565b5490565b90565b620008256200081f6200082b9262000809565b6200033b565b6200016c565b90565b634e487b7160e01b5f52601160045260245ffd5b620008546200085b919392936200016c565b926200016c565b82018092116200086757565b6200082e565b5f5260205f2090565b5490565b620008858162000876565b821015620008a2576200089a6001916200086d565b910201905f90565b6200066a565b9081549168010000000000000000831015620008dd5782620008d4916001620008db950181556200087a565b9062000444565b565b62000055565b90620008ef9062000422565b5f5260205260405f2090565b90565b5f5260205f2090565b5490565b620009168162000907565b82101562000933576200092b600191620008fe565b910201905f90565b6200066a565b91906200094d576200094b916200053e565b565b62000389565b90815491680100000000000000008310156200098857826200097f91600162000986950181556200090b565b9062000939565b565b62000055565b620009fa90620009f262000a029493969596620009ab8162000b53565b620009b85f601c62000363565b620009c55f601d62000363565b620009d25f601e62000363565b620009df5f601f62000363565b620009ea8162000b6d565b601362000621565b601462000621565b601e6200062f565b62000a0d5f6200033e565b5b8062000a2f62000a2862000a228662000666565b6200016c565b916200016c565b101562000b4e5762000b489062000a8162000a6462000a5e601562000a568886906200067e565b51906200072f565b6200075d565b62000a7a62000a735f6200033e565b916200016c565b14620007d4565b62000abb62000a91601262000802565b62000ab462000aa1601262000805565b62000aad60016200080c565b9062000842565b90620008a8565b62000aec62000acb601262000805565b62000ae6601562000ade8886906200067e565b51906200072f565b6200062f565b62000b1d62000afd8583906200067e565b5162000b17601662000b10601262000805565b90620008e3565b62000621565b62000b4262000b2d6011620008fb565b62000b3a8684906200067e565b519062000953565b62000655565b62000a0e565b509050565b62000b5e9062000b60565b565b62000b6b9062000b6d565b565b62000b7a90600262000621565b56fe60806040526004361015610018575b361561001657005b005b6100225f356102d0565b8062fdd58e146102cb57806301ffc9a7146102c657806302fe5305146102c157806306fdde03146102bc5780630d43aaf2146102b75780630e89341c146102b257806312065fe0146102ad5780631f5ae5f3146102a85780632eb2c2d6146102a3578063364410b31461029e578063379a423c1461029957806341ffe7c4146102945780634622ab031461028f5780634e1273f41461028a5780635718e17b1461028557806357e0e465146102805780635b2bd79e1461027b5780635fac2d9d1461027657806360af454d146102715780636589c2521461026c5780636c51797b146102675780636db49b131461026257806378a895671461025d57806381fbf0a5146102585780638da5cb5b1461025357806392b31d871461024e578063a22cb46514610249578063abb8c96514610244578063abbbf8d71461023f578063b90306ad1461023a578063d366062314610235578063d878fe1014610230578063d92f24ae1461022b578063e834a83414610226578063e985e9c514610221578063f242432a1461021c578063f3fef3a314610217578063f5298aca14610212578063f6d8f2cb1461020d578063f9ffedb714610208578063fac333ac14610203578063fcf56368146101fe5763fcfa53e10361000e57611ba1565b611b16565b611ad2565b611a3c565b6119f8565b611924565b6118c0565b611889565b6117e4565b611782565b61173e565b6116fc565b6116c7565b61169e565b61166b565b611552565b61151e565b611498565b611390565b611346565b611302565b6112c5565b6111b8565b611176565b611143565b61110e565b6110a1565b61105d565b610f9b565b610f65565b610d9d565b610cf5565b610cc0565b610c6d565b610be8565b6109fd565b6109c8565b610993565b61093c565b61079b565b61059b565b610441565b610397565b60e01c90565b60405190565b5f80fd5b5f80fd5b5f80fd5b60018060a01b031690565b6102fc906102e8565b90565b610308816102f3565b0361030f57565b5f80fd5b90503590610320826102ff565b565b90565b61032e81610322565b0361033557565b5f80fd5b9050359061034682610325565b565b9190604083820312610370578061036461036d925f8601610313565b93602001610339565b90565b6102e0565b61037e90610322565b9052565b9190610395905f60208501940190610375565b565b346103c8576103c46103b36103ad366004610348565b90611c21565b6103bb6102d6565b91829182610382565b0390f35b6102dc565b63ffffffff60e01b1690565b6103e2816103cd565b036103e957565b5f80fd5b905035906103fa826103d9565b565b9060208282031261041557610412915f016103ed565b90565b6102e0565b151590565b6104289061041a565b9052565b919061043f905f6020850194019061041f565b565b346104715761046d61045c6104573660046103fc565b611c4c565b6104646102d6565b9182918261042c565b0390f35b6102dc565b5f80fd5b5f80fd5b601f801991011690565b634e487b7160e01b5f52604160045260245ffd5b906104a69061047e565b810190811067ffffffffffffffff8211176104c057604052565b610488565b906104d86104d16102d6565b928361049c565b565b67ffffffffffffffff81116104f8576104f460209161047e565b0190565b610488565b90825f939282370152565b9092919261051d610518826104da565b6104c5565b9381855260208501908284011161053957610537926104fd565b565b61047a565b9080601f8301121561055c5781602061055993359101610508565b90565b610476565b90602082820312610591575f82013567ffffffffffffffff811161058c57610589920161053e565b90565b6102e4565b6102e0565b5f0190565b346105c9576105b36105ae366004610561565b611f3f565b6105bb6102d6565b806105c581610596565b0390f35b6102dc565b5f9103126105d857565b6102e0565b634e487b7160e01b5f525f60045260245ffd5b634e487b7160e01b5f52602260045260245ffd5b9060016002830492168015610624575b602083101461061f57565b6105f0565b91607f1691610614565b60209181520190565b5f5260205f2090565b905f929180549061065a61065383610604565b809461062e565b916001811690815f146106b15750600114610675575b505050565b6106829192939450610637565b915f925b81841061069957505001905f8080610670565b60018160209295939554848601520191019290610686565b92949550505060ff19168252151560200201905f8080610670565b906106d691610640565b90565b906106f96106f2926106e96102d6565b938480926106cc565b038361049c565b565b905f1061070e5761070b906106d9565b90565b6105dd565b61071f60145f906106fb565b90565b5190565b60209181520190565b5f5b838110610741575050905f910152565b806020918301518185015201610731565b61077161077a60209361077f9361076881610722565b93848093610726565b9586910161072f565b61047e565b0190565b6107989160208201915f818403910152610752565b90565b346107cb576107ab3660046105ce565b6107c76107b6610713565b6107be6102d6565b91829182610783565b0390f35b6102dc565b5f1c90565b60018060a01b031690565b6107ec6107f1916107d0565b6107d5565b90565b6107fe90546107e0565b90565b60a01c90565b60ff1690565b61081961081e91610801565b610807565b90565b61082b905461080d565b90565b60a81c90565b6108406108459161082e565b610807565b90565b6108529054610834565b90565b60b01c90565b61086761086c91610855565b610807565b90565b610879905461085b565b90565b60b81c90565b61088e6108939161087c565b610807565b90565b6108a09054610882565b90565b60106108b05f82016107f4565b916108bc5f8301610821565b916108c85f8201610848565b916108df5f6108d881850161086f565b9301610896565b90565b6108eb906102f3565b9052565b9095949261093a946109296109339261091f60809661091560a088019c5f8901906108e2565b602087019061041f565b604085019061041f565b606083019061041f565b019061041f565b565b346109705761094c3660046105ce565b61096c6109576108a3565b916109639593956102d6565b958695866108ef565b0390f35b6102dc565b9060208282031261098e5761098b915f01610339565b90565b6102e0565b346109c3576109bf6109ae6109a9366004610975565b612037565b6109b66102d6565b91829182610783565b0390f35b6102dc565b346109f8576109d83660046105ce565b6109f46109e361208d565b6109eb6102d6565b91829182610382565b0390f35b6102dc565b34610a2d57610a29610a18610a13366004610975565b6120a3565b610a206102d6565b91829182610382565b0390f35b6102dc565b67ffffffffffffffff8111610a4a5760208091020190565b610488565b5f80fd5b90929192610a68610a6382610a32565b6104c5565b9381855260208086019202830192818411610aa557915b838310610a8c5750505050565b60208091610a9a8486610339565b815201920191610a7f565b610a4f565b9080601f83011215610ac857816020610ac593359101610a53565b90565b610476565b67ffffffffffffffff8111610aeb57610ae760209161047e565b0190565b610488565b90929192610b05610b0082610acd565b6104c5565b93818552602085019082840111610b2157610b1f926104fd565b565b61047a565b9080601f83011215610b4457816020610b4193359101610af0565b90565b610476565b91909160a081840312610be357610b62835f8301610313565b92610b708160208401610313565b92604083013567ffffffffffffffff8111610bde5782610b91918501610aaa565b92606081013567ffffffffffffffff8111610bd95783610bb2918301610aaa565b92608082013567ffffffffffffffff8111610bd457610bd19201610b26565b90565b6102e4565b6102e4565b6102e4565b6102e0565b34610c1a57610c04610bfb366004610b49565b939290926120e5565b610c0c6102d6565b80610c1681610596565b0390f35b6102dc565b90565b610c36610c31610c3b92610322565b610c1f565b610322565b90565b90610c4890610c22565b5f5260205260405f2090565b610c6a90610c656016915f92610c3e565b6106fb565b90565b34610c9d57610c99610c88610c83366004610975565b610c54565b610c906102d6565b91829182610783565b0390f35b6102dc565b90602082820312610cbb57610cb8915f01610313565b90565b6102e0565b34610cf057610cec610cdb610cd6366004610ca2565b612165565b610ce36102d6565b9182918261042c565b0390f35b6102dc565b34610d2357610d0d610d08366004610ca2565b612849565b610d156102d6565b80610d1f81610596565b0390f35b6102dc565b634e487b7160e01b5f52603260045260245ffd5b5490565b5f5260205f2090565b610d5281610d3c565b821015610d6c57610d64600191610d40565b910201905f90565b610d28565b6011610d7c81610d3c565b821015610d9957610d9691610d9091610d49565b906106fb565b90565b5f80fd5b34610dcd57610dc9610db8610db3366004610975565b610d71565b610dc06102d6565b91829182610783565b0390f35b6102dc565b67ffffffffffffffff8111610dea5760208091020190565b610488565b90929192610e04610dff82610dd2565b6104c5565b9381855260208086019202830192818411610e4157915b838310610e285750505050565b60208091610e368486610313565b815201920191610e1b565b610a4f565b9080601f83011215610e6457816020610e6193359101610def565b90565b610476565b919091604081840312610ec1575f81013567ffffffffffffffff8111610ebc5783610e95918301610e46565b92602082013567ffffffffffffffff8111610eb757610eb49201610aaa565b90565b6102e4565b6102e4565b6102e0565b5190565b60209181520190565b60200190565b610ee290610322565b9052565b90610ef381602093610ed9565b0190565b60200190565b90610f1a610f14610f0d84610ec6565b8093610eca565b92610ed3565b905f5b818110610f2a5750505090565b909192610f43610f3d6001928651610ee6565b94610ef7565b9101919091610f1d565b610f629160208201915f818403910152610efd565b90565b34610f9657610f92610f81610f7b366004610e69565b9061291f565b610f896102d6565b91829182610f4d565b0390f35b6102dc565b34610fcb57610fc7610fb6610fb1366004610975565b612a1a565b610fbe6102d6565b91829182610783565b0390f35b6102dc565b610fe4610fdf610fe9926102e8565b610c1f565b6102e8565b90565b610ff590610fd0565b90565b61100190610fec565b90565b9061100e90610ff8565b5f5260205260405f2090565b1c90565b61102e906008611033930261101a565b610807565b90565b90611041915461101e565b90565b61105a906110556017915f92611004565b611036565b90565b3461108d57611089611078611073366004610ca2565b611044565b6110806102d6565b9182918261042c565b0390f35b6102dc565b61109e60135f906106fb565b90565b346110d1576110b13660046105ce565b6110cd6110bc611092565b6110c46102d6565b91829182610783565b0390f35b6102dc565b90565b6110e99060086110ee930261101a565b6110d6565b90565b906110fc91546110d9565b90565b61110b601f5f906110f1565b90565b3461113e5761111e3660046105ce565b61113a6111296110ff565b6111316102d6565b91829182610382565b0390f35b6102dc565b346111715761115b611156366004610ca2565b612b7b565b6111636102d6565b8061116d81610596565b0390f35b6102dc565b346111a45761118e611189366004610975565b612ceb565b6111966102d6565b806111a081610596565b0390f35b6102dc565b6111b5601a5f906110f1565b90565b346111e8576111c83660046105ce565b6111e46111d36111a9565b6111db6102d6565b91829182610382565b0390f35b6102dc565b9091610120828403126112c057611206835f8401610313565b92602083013567ffffffffffffffff81116112bb578161122791850161053e565b92604081013567ffffffffffffffff81116112b6578261124891830161053e565b92606082013567ffffffffffffffff81116112b1578361126991840161053e565b926112778160808501610339565b926112858260a08301610313565b926112ae6112968460c08501610339565b936112a48160e08601610339565b9361010001610339565b90565b6102e4565b6102e4565b6102e4565b6102e0565b346112fd576112e76112d83660046111ed565b97969096959195949294613077565b6112ef6102d6565b806112f981610596565b0390f35b6102dc565b34611332576113123660046105ce565b61132e61131d613179565b6113256102d6565b91829182610382565b0390f35b6102dc565b611343601e5f906110f1565b90565b34611376576113563660046105ce565b611372611361611337565b6113696102d6565b91829182610382565b0390f35b6102dc565b919061138e905f602085019401906108e2565b565b346113c0576113a03660046105ce565b6113bc6113ab613193565b6113b36102d6565b9182918261137b565b0390f35b6102dc565b91906040838203126113ed57806113e16113ea925f8601610339565b93602001610339565b90565b6102e0565b906113fc90610c22565b5f5260205260405f2090565b5490565b5f5260205f2090565b61141e81611408565b8210156114385761143060019161140c565b910201905f90565b610d28565b61144d906008611452930261101a565b6107d5565b90565b90611460915461143d565b90565b61146e9060186113f2565b61147781611408565b821015611494576114919161148b91611415565b90611455565b90565b5f80fd5b346114c9576114c56114b46114ae3660046113c5565b90611463565b6114bc6102d6565b9182918261137b565b0390f35b6102dc565b6114d78161041a565b036114de57565b5f80fd5b905035906114ef826114ce565b565b9190604083820312611519578061150d611516925f8601610313565b936020016114e2565b90565b6102e0565b3461154d576115376115313660046114f1565b906131a9565b61153f6102d6565b8061154981610596565b0390f35b6102dc565b346115815761156b6115653660046114f1565b9061363a565b6115736102d6565b8061157d81610596565b0390f35b6102dc565b67ffffffffffffffff811161159e5760208091020190565b610488565b9291906115b76115b282611586565b6104c5565b938185526020808601920281019183831161160e5781905b8382106115dd575050505050565b813567ffffffffffffffff8111611609576020916115fe878493870161053e565b8152019101906115cf565b610476565b610a4f565b9080601f830112156116315781602061162e933591016115a3565b90565b610476565b90602082820312611666575f82013567ffffffffffffffff81116116615761165e9201611613565b90565b6102e4565b6102e0565b346116995761168361167e366004611636565b61398a565b61168b6102d6565b8061169581610596565b0390f35b6102dc565b6116b16116ac366004610975565b613aa2565b6116b96102d6565b806116c381610596565b0390f35b346116f7576116d73660046105ce565b6116f36116e2613bed565b6116ea6102d6565b91829182610382565b0390f35b6102dc565b3461172a5761171461170f366004610975565b613fdc565b61171c6102d6565b8061172681610596565b0390f35b6102dc565b61173b601d5f906110f1565b90565b3461176e5761174e3660046105ce565b61176a61175961172f565b6117616102d6565b91829182610382565b0390f35b6102dc565b61177f601c5f906110f1565b90565b346117b2576117923660046105ce565b6117ae61179d611773565b6117a56102d6565b91829182610382565b0390f35b6102dc565b91906040838203126117df57806117d36117dc925f8601610313565b93602001610313565b90565b6102e0565b34611815576118116118006117fa3660046117b7565b9061401e565b6118086102d6565b9182918261042c565b0390f35b6102dc565b91909160a08184031261188457611833835f8301610313565b926118418160208401610313565b9261184f8260408501610339565b9261185d8360608301610339565b92608082013567ffffffffffffffff811161187f5761187c9201610b26565b90565b6102e4565b6102e0565b346118bb576118a561189c36600461181a565b93929092614046565b6118ad6102d6565b806118b781610596565b0390f35b6102dc565b6118d46118ce366004610348565b90614155565b6118dc6102d6565b806118e681610596565b0390f35b909160608284031261191f5761191c611905845f8501610313565b936119138160208601610339565b93604001610339565b90565b6102e0565b346119535761193d6119373660046118ea565b91614237565b6119456102d6565b8061194f81610596565b0390f35b6102dc565b905090565b6119826119799260209261197081610722565b94858093611958565b9384910161072f565b0190565b90565b61199561199a91610322565b611986565b9052565b6119ae6119b5916020949361195d565b8092611989565b0190565b6119cd6119c46102d6565b9283928361199e565b03902090565b6119dc916119b9565b90565b6119f5906119f06015915f926119d3565b6110f1565b90565b34611a2857611a24611a13611a0e366004610561565b6119df565b611a1b6102d6565b91829182610382565b0390f35b6102dc565b611a39601b5f906110f1565b90565b34611a6c57611a4c3660046105ce565b611a68611a57611a2d565b611a5f6102d6565b91829182610382565b0390f35b6102dc565b5490565b5f5260205f2090565b611a8781611a71565b821015611aa157611a99600191611a75565b910201905f90565b610d28565b6012611ab181611a71565b821015611ace57611acb91611ac591611a7e565b906110f1565b90565b5f80fd5b34611b0257611afe611aed611ae8366004610975565b611aa6565b611af56102d6565b91829182610382565b0390f35b6102dc565b611b1360195f90611455565b90565b34611b4657611b263660046105ce565b611b42611b31611b07565b611b396102d6565b9182918261137b565b0390f35b6102dc565b919060a083820312611b9c57611b63815f8501610313565b92611b718260208301610339565b92611b99611b828460408501610339565b93611b908160608601610339565b93608001610339565b90565b6102e0565b611bcc611bbb611bb2366004611b4b565b93929092614931565b611bc36102d6565b9182918261137b565b0390f35b5f90565b90611bde90610c22565b5f5260205260405f2090565b90611bf490610ff8565b5f5260205260405f2090565b611c0c611c11916107d0565b6110d6565b90565b611c1e9054611c00565b90565b611c4090611c3b611c4593611c34611bd0565b505f611bd4565b611bea565b611c14565b90565b5f90565b611c54611c48565b5080611c6f611c69636cdb3d1360e11b6103cd565b916103cd565b148015611c93575b908115611c83575b5090565b611c8d9150614949565b5f611c7f565b5080611cae611ca86303a24d0760e21b6103cd565b916103cd565b14611c77565b60018060a01b031690565b611ccb611cd0916107d0565b611cb4565b90565b611cdd9054611cbf565b90565b611ce990610fec565b90565b5f80fd5b60e01b90565b90505190611d03826114ce565b565b90602082820312611d1e57611d1b915f01611cf6565b90565b6102e0565b611d2b6102d6565b3d5f823e3d90fd5b5f7f6f776e2e696e76616c69642e6973536166650000000000000000000000000000910152565b611d676012602092610726565b611d7081611d33565b0190565b611d899060208101905f818303910152611d5a565b90565b15611d9357565b611d9b6102d6565b62461bcd60e51b815280611db160048201611d74565b0390fd5b60018060a01b031690565b611dcc611dd1916107d0565b611db5565b90565b611dde9054611dc0565b90565b611dea90610fec565b90565b5f7f6f776e2e6e6f6e617574682e44414f0000000000000000000000000000000000910152565b611e21600f602092610726565b611e2a81611ded565b0190565b611e439060208101905f818303910152611e14565b90565b15611e4d57565b611e556102d6565b62461bcd60e51b815280611e6b60048201611e2e565b0390fd5b611e9d906020611e87611e826005611cd3565b611ce0565b636a276f9d90611e956102d6565b948592611cf0565b82528180611ead60048201610596565b03915afa918215611f2f57611eff92611ecd915f91611f01575b50611d8c565b611efa611ee2611edd6004611dd4565b611de1565b611ef4611eee336102f3565b916102f3565b14611e46565b611f34565b565b611f22915060203d8111611f28575b611f1a818361049c565b810190611d05565b5f611ec7565b503d611f10565b611d23565b611f3d9061496f565b565b611f4890611e6f565b565b606090565b905f9291805490611f69611f6283610604565b8094611958565b916001811690815f14611fbb5750600114611f84575b505050565b611f919192939450610637565b5f905b838210611fa757505001905f8080611f7f565b600181602092548486015201910190611f94565b92949550505060ff191682528015150201905f8080611f7f565b5f7f2e6a736f6e000000000000000000000000000000000000000000000000000000910152565b61200860058092611958565b61201181611fd5565b0190565b916120266120319361202c93611f4f565b9061195d565b611ffc565b90565b90565b61207e90612043611f4a565b50612079612052601392614a06565b9161206a61205e6102d6565b93849260208401612015565b6020820181038252038261049c565b612034565b90565b61208a90610fec565b90565b612095611bd0565b5061209f30612081565b3190565b6120ba6120bf916120b2611bd0565b5060186113f2565b611408565b90565b9160206120e39294936120dc60408201965f8301906108e2565b01906108e2565b565b9493919290926120f3614aaf565b86612106612100836102f3565b916102f3565b14158061214b575b612124575061212294959390919293614abc565b565b86906121476121316102d6565b92839263711bec9160e11b8452600484016120c2565b0390fd5b5061216061215a88839061401e565b1561041a565b61210e565b61216d611c48565b506121af60206121856121806005611cd3565b611ce0565b6319c06429906121a485926121986102d6565b95869485938493611cf0565b83526004830161137b565b03915afa908115612221575f916121f3575b509081156121ce575b5090565b90506121ec6121e66121e0600f6107f4565b926102f3565b916102f3565b145f6121ca565b612214915060203d811161221a575b61220c818361049c565b810190611d05565b5f6121c1565b503d612202565b611d23565b5f7f6f776d2e66616b652e2064656c65676174650000000000000000000000000000910152565b61225a6012602092610726565b61226381612226565b0190565b61227c9060208101905f81830391015261224d565b90565b1561228657565b61228e6102d6565b62461bcd60e51b8152806122a460048201612267565b0390fd5b6122d560206122bf6122ba6005611cd3565b611ce0565b636a276f9d906122cd6102d6565b938492611cf0565b825281806122e560048201610596565b03915afa801561240757612300915f916123d9575b50611d8c565b61231261230d6004611dd4565b611de1565b61232461231e336102f3565b916102f3565b14908115612340575b61233961233e9261227f565b61270a565b565b612383915060206123596123546005611cd3565b611ce0565b637df73e2790612378339261236c6102d6565b96879485938493611cf0565b83526004830161137b565b03915afa9182156123d45761233e92612339915f916123a6575b5092505061232d565b6123c7915060203d81116123cd575b6123bf818361049c565b810190611d05565b5f61239d565b503d6123b5565b611d23565b6123fa915060203d8111612400575b6123f2818361049c565b810190611d05565b5f6122fa565b503d6123e8565b611d23565b9050519061241982610325565b565b9060208282031261243457612431915f0161240c565b90565b6102e0565b61244360a06104c5565b90565b5f90565b5f90565b612456612439565b9060208080808086612466612446565b81520161247161244a565b81520161247c61244a565b81520161248761244a565b81520161249261244a565b81525050565b6124a061244e565b90565b906124ad9061041a565b9052565b90565b6124c86124c36124cd926124b1565b610c1f565b610322565b90565b90565b6124e76124e26124ec926124d0565b610c1f565b610322565b90565b90565b61250661250161250b926124ef565b610c1f565b610322565b90565b90612518906102f3565b9052565b61252690516102f3565b90565b5f1b90565b9061253f60018060a01b0391612529565b9181191691161790565b90565b9061256161255c61256892610ff8565b612549565b825461252e565b9055565b612576905161041a565b90565b60a01b90565b9061258e60ff60a01b91612579565b9181191691161790565b6125a19061041a565b90565b90565b906125bc6125b76125c392612598565b6125a4565b825461257f565b9055565b60a81b90565b906125dc60ff60a81b916125c7565b9181191691161790565b906125fb6125f661260292612598565b6125a4565b82546125cd565b9055565b60b01b90565b9061261b60ff60b01b91612606565b9181191691161790565b9061263a61263561264192612598565b6125a4565b825461260c565b9055565b60b81b90565b9061265a60ff60b81b91612645565b9181191691161790565b9061267961267461268092612598565b6125a4565b825461264b565b9055565b906126f660805f6126fc946126a68282016126a084880161251c565b9061254c565b6126be8282016126b86020880161256c565b906125a7565b6126d68282016126d06040880161256c565b906125e6565b6126ee8282016126e86060880161256c565b90612625565b01920161256c565b90612664565b565b9061270891612684565b565b61274c90602061272261271d6005611cd3565b611ce0565b631d84be449061274133926127356102d6565b96879485938493611cf0565b83526004830161137b565b03915afa918215612844576127db926127d4915f91612816575b5091612770612498565b9261277f6001602086016124a3565b8061279361278d60016124b4565b91610322565b14612803575b806127ad6127a760026124d3565b91610322565b146127f0575b6127c66127c060036124f2565b91610322565b146127dd575b5f830161250e565b60106126fe565b565b6127eb6001608085016124a3565b6127cc565b6127fe6001606086016124a3565b6127b3565b6128116001604086016124a3565b612799565b612837915060203d811161283d575b61282f818361049c565b81019061241b565b5f612766565b503d612825565b611d23565b612852906122a8565b565b606090565b5190565b91602061287e92949361287760408201965f830190610375565b0190610375565b565b9061289261288d83610a32565b6104c5565b918252565b369037565b906128c16128a983612880565b926020806128b78693610a32565b9201910390612897565b565b90565b6128da6128d56128df926128c3565b610c1f565b610322565b90565b60016128ee9101610322565b90565b906128fb82610ec6565b81101561290c576020809102010190565b610d28565b9061291b90610322565b9052565b90612928612854565b5061293282612859565b61294c61294661294184610ec6565b610322565b91610322565b036129d65761296261295d83612859565b61289c565b9161296c5f6128c6565b5b8061298861298261297d85612859565b610322565b91610322565b10156129d0576129cb906129c66129b46129a3858490614b6c565b6129ae878590614b82565b90611c21565b6129c187918490926128f1565b612911565b6128e2565b61296d565b50505090565b6129e26129e891610ec6565b91612859565b90612a0a6129f46102d6565b928392635b05999160e01b84526004840161285d565b0390fd5b612a17906106d9565b90565b612a31612a3791612a29611f4a565b506011610d49565b50612a0e565b90565b60018060a01b031690565b612a51612a56916107d0565b612a3a565b90565b612a639054612a45565b90565b612a6f90610fec565b90565b612a86612a81612a8b926128c3565b610c1f565b6102e8565b90565b612a9790612a72565b90565b5f7f6f776e2e686578626173652e6661696c65640000000000000000000000000000910152565b612ace6012602092610726565b612ad781612a9a565b0190565b612af09060208101905f818303910152612ac1565b90565b15612afa57565b612b026102d6565b62461bcd60e51b815280612b1860048201612adb565b0390fd5b612b2590610fd0565b90565b612b3190612b1c565b90565b612b3d90610fd0565b90565b612b4990612b34565b90565b612b5590612b34565b90565b90565b90612b70612b6b612b7792612b4c565b612b58565b825461252e565b9055565b612bcf612bca612bd692612bba612b9a612b956003612a59565b612a66565b612bb4612bae612ba95f612a8e565b6102f3565b916102f3565b14612af3565b612bc532600f61254c565b612b28565b612b40565b6003612b5b565b612bde614d10565b565b612c0e906020612bf8612bf36005611cd3565b611ce0565b636a276f9d90612c066102d6565b948592611cf0565b82528180612c1e60048201610596565b03915afa918215612ca057612c7092612c3e915f91612c72575b50611d8c565b612c6b612c53612c4e6004611dd4565b611de1565b612c65612c5f336102f3565b916102f3565b14611e46565b612cde565b565b612c93915060203d8111612c99575b612c8b818361049c565b810190611d05565b5f612c38565b503d612c81565b611d23565b90612cb15f1991612529565b9181191691161790565b90565b90612cd3612cce612cda92610c22565b612cbb565b8254612ca5565b9055565b612ce990601d612cbe565b565b612cf490612be0565b565b5f7f6f72632e616c72656164792e6d696e7465640000000000000000000000000000910152565b612d2a6012602092610726565b612d3381612cf6565b0190565b612d4c9060208101905f818303910152612d1d565b90565b15612d5657565b612d5e6102d6565b62461bcd60e51b815280612d7460048201612d37565b0390fd5b601f602091010490565b1b90565b91906008612da1910291612d9b5f1984612d82565b92612d82565b9181191691161790565b9190612dc1612dbc612dc993610c22565b612cbb565b908354612d86565b9055565b612ddf91612dd9611bd0565b91612dab565b565b5b818110612ded575050565b80612dfa5f600193612dcd565b01612de2565b9190601f8111612e10575b505050565b612e1c612e4193610637565b906020612e2884612d78565b83019310612e49575b612e3a90612d78565b0190612de1565b5f8080612e0b565b9150612e3a81929050612e31565b90612e67905f199060080261101a565b191690565b81612e7691612e57565b906002021790565b90612e8881610722565b9067ffffffffffffffff8211612f4857612eac82612ea68554610604565b85612e00565b602090601f8311600114612ee057918091612ecf935f92612ed4575b5050612e6c565b90555b565b90915001515f80612ec8565b601f19831691612eef85610637565b925f5b818110612f3057509160029391856001969410612f16575b50505002019055612ed2565b612f26910151601f841690612e57565b90555f8080612f0a565b91936020600181928787015181550195019201612ef2565b610488565b90612f5791612e7e565b565b90565b5f5260205f2090565b5490565b612f7281612f65565b821015612f8c57612f84600191612f5c565b910201905f90565b610d28565b9190612fa257612fa091612e7e565b565b6105dd565b9081549168010000000000000000831015612fd75782612fcf916001612fd595018155612f69565b90612f91565b565b610488565b90565b5f5260205f2090565b5490565b612ff581612fe8565b82101561300f57613007600191612fdf565b910201905f90565b610d28565b9081549168010000000000000000831015613044578261303c91600161304295018155612fec565b90612dab565b565b610488565b9061305b613056836104da565b6104c5565b918252565b6130695f613049565b90565b613074613060565b90565b61316698959697936130e161311c96936130da6130ff966130bf6130f0966130ba6130a2601b611c14565b6130b46130ae5f6128c6565b91610322565b14612d4f565b612b7b565b6130ca8c600f61254c565b6130d38161496f565b6013612f4d565b6014612f4d565b6130eb6011612f59565b612fa7565b6130fa6012612fdc565b613014565b61310a84601961254c565b61311585601a612cbe565b601d612cbe565b8061312f6131295f6128c6565b91610322565b115f1461316857613142905b601b612cbe565b9061315861315260125f90611a7e565b906110f1565b61316061306c565b92615415565b565b50613142613174615386565b61313b565b613181611bd0565b5061318c6012611a71565b90565b5f90565b61319b61318f565b506131a6600f6107f4565b90565b6131bd916131b5614aaf565b919091615489565b565b906131ed60206131d76131d26005611cd3565b611ce0565b636a276f9d906131e56102d6565b938492611cf0565b825281806131fd60048201610596565b03915afa801561331f57613218915f916132f1575b50611d8c565b61322a6132256004611dd4565b611de1565b61323c613236336102f3565b916102f3565b14918215613258575b6132516132569361227f565b613354565b565b61329b9250602061327161326c6005611cd3565b611ce0565b637df73e279061329033926132846102d6565b97889485938493611cf0565b83526004830161137b565b03915afa9283156132ec5761325693613251915f916132be575b50935050613245565b6132df915060203d81116132e5575b6132d7818361049c565b810190611d05565b5f6132b5565b503d6132cd565b611d23565b613312915060203d8111613318575b61330a818361049c565b810190611d05565b5f613212565b503d613300565b611d23565b634e487b7160e01b5f52601160045260245ffd5b61334190610322565b5f19811461334f5760010190565b613324565b905f146136225761339c602061337261336d6005611cd3565b611ce0565b631d84be449061339133926133856102d6565b95869485938493611cf0565b83526004830161137b565b03915afa90811561361d575f916135ef575b506133bb5f601001610821565b806135d4575b806135af575b61359c575b6133d85f601001610821565b80613581575b8061355c575b613549575b6133f55f601001610821565b908161352d575b5080613508575b6134f5575b6134115f6128c6565b61341d5f601001610848565b6134e7575b61342e5f60100161086f565b6134d9575b61343f5f601001610896565b6134cb575b6134505f601001610821565b90816134af575b508061348a575b613467575b505b565b61347290600f61254c565b61348461347d612498565b60106126fe565b5f613463565b506134975f6010016107f4565b6134a96134a3836102f3565b916102f3565b1461345e565b90506134c46134be60026124d3565b91610322565b145f613457565b6134d490613338565b613444565b6134e290613338565b613433565b6134f090613338565b613422565b61350360015f601001612664565b613408565b506135155f6010016107f4565b613527613521836102f3565b916102f3565b14613403565b905061354261353c60036124f2565b91610322565b145f6133fc565b61355760015f601001612625565b6133e9565b506135695f6010016107f4565b61357b613575846102f3565b916102f3565b146133e4565b508061359661359060026124d3565b91610322565b146133de565b6135aa60015f6010016125e6565b6133cc565b506135bc5f6010016107f4565b6135ce6135c8846102f3565b916102f3565b146133c7565b50806135e96135e360016124b4565b91610322565b146133c1565b613610915060203d8111613616575b613608818361049c565b81019061241b565b5f6133ae565b503d6135fe565b611d23565b5061363561362e612498565b60106126fe565b613465565b90613644916131bf565b565b61367490602061365e6136596005611cd3565b611ce0565b636a276f9d9061366c6102d6565b948592611cf0565b8252818061368460048201610596565b03915afa9182156137a0576136e2926136a4915f91613772575b50611d8c565b60206136b86136b36005611cd3565b611ce0565b6319c06429906136d733926136cb6102d6565b96879485938493611cf0565b83526004830161137b565b03915afa801561376d5761370d925f9161373f575b50801561370f575b61370890611e46565b613870565b565b506137086137256137206004611dd4565b611de1565b613737613731336102f3565b916102f3565b1490506136ff565b613760915060203d8111613766575b613758818361049c565b810190611d05565b5f6136f7565b503d61374e565b611d23565b613793915060203d8111613799575b61378b818361049c565b810190611d05565b5f61369e565b503d613781565b611d23565b5190565b906137b3826137a5565b8110156137c4576020809102010190565b610d28565b5f7f6f72632e746f6b656e2e6661696c656400000000000000000000000000000000910152565b6137fd6010602092610726565b613806816137c9565b0190565b61381f9060208101905f8183039101526137f0565b90565b1561382957565b6138316102d6565b62461bcd60e51b8152806138476004820161380a565b0390fd5b61385a61386091939293610322565b92610322565b820180921161386b57565b613324565b9061387a5f6128c6565b5b8061389661389061388b866137a5565b610322565b91610322565b101561398557613980906138da6138c26138bd60156138b68886906137a9565b51906119d3565b611c14565b6138d46138ce5f6128c6565b91610322565b14613822565b61390a6138e76012612fdc565b6139046138f46012611a71565b6138fe60016124b4565b9061384b565b90613014565b6139336139176012611a71565b61392e60156139278886906137a9565b51906119d3565b612cbe565b61395c6139418583906137a9565b5161395760166139516012611a71565b90610c3e565b612f4d565b61397b6139696011612f59565b6139748684906137a9565b5190612fa7565b6128e2565b61387b565b509050565b61399390613646565b565b6139c39060206139ad6139a86005611cd3565b611ce0565b636a276f9d906139bb6102d6565b948592611cf0565b825281806139d360048201610596565b03915afa918215613a5557613a25926139f3915f91613a27575b50611d8c565b613a20613a08613a036004611dd4565b611de1565b613a1a613a14336102f3565b916102f3565b14611e46565b613a66565b565b613a48915060203d8111613a4e575b613a40818361049c565b810190611d05565b5f6139ed565b503d613a36565b611d23565b613a6390610fec565b90565b5f80808093613a84613a7f613a7a84612a8e565b612b28565b613a5a565b828215613a99575bf115613a9457565b611d23565b506108fc613a8c565b613aab90613995565b565b60018060a01b031690565b613ac4613ac9916107d0565b613aad565b90565b613ad69054613ab8565b90565b613ae290610fec565b90565b9091606082840312613b1a57613b17613b00845f850161240c565b93613b0e816020860161240c565b9360400161240c565b90565b6102e0565b90565b613b36613b31613b3b92613b1f565b610c1f565b610322565b90565b613b4d613b5391939293610322565b92610322565b91613b5f838202610322565b928184041490151715613b6e57565b613324565b90565b613b8a613b85613b8f92613b73565b610c1f565b610322565b90565b634e487b7160e01b5f52601260045260245ffd5b613bb2613bb891610322565b91610322565b908115613bc3570490565b613b92565b613bd7613bdd91939293610322565b92610322565b8203918211613be857565b613324565b613bf5611bd0565b50613c236020613c0d613c086006613acc565b613ad9565b63fc0e74d190613c1b6102d6565b938492611cf0565b82528180613c3360048201610596565b03915afa908115613f05575f91613ed7575b50613eca57613c52615386565b613c7f6060613c69613c646006613acc565b613ad9565b635a0e903890613c776102d6565b938492611cf0565b82528180613c8f60048201610596565b03915afa8015613ec557613d4991613d1f915f8080919092613e84575b613d1992935090613cf9613ce9613cff93959295613ce4613ccd601a611c14565b613cde670de0b6b3a7640000613b22565b90613b3e565b613b3e565b91613cf46064613b76565b613b3e565b90613ba6565b91613d1486613d0e601b611c14565b90613bc8565b613ba6565b90613b3e565b6060613d33613d2e6006613acc565b613ad9565b63b85f1f8d90613d416102d6565b948592611cf0565b82528180613d5960048201610596565b03915afa918215613e7f57613e0793613de4613dea92613df0955f808092613e3e575b613ddf92935090613dc8613db8613dce939592613db3613d9c601a611c14565b613dad670de0b6b3a7640000613b22565b90613b3e565b613b3e565b91613dc36064613b76565b613b3e565b90613ba6565b93613dd9601b611c14565b90613bc8565b613ba6565b90613b3e565b9061384b565b613e01670de0b6b3a7640000613b22565b90613ba6565b80613e23613e1d613e18601a611c14565b610322565b91610322565b115f14613e395750613e35601a611c14565b5b90565b613e36565b505050613ddf613dce613db8613e6d613dc89460603d8111613e78575b613e65818361049c565b810190613ae5565b925093509150613d7c565b503d613e5b565b611d23565b505050613d19613cff613cf9613eb3613ce99460603d8111613ebe575b613eab818361049c565b810190613ae5565b935093509050613cac565b503d613ea1565b611d23565b613ed4601a611c14565b90565b613ef8915060203d8111613efe575b613ef0818361049c565b810190611d05565b5f613c45565b503d613ee6565b611d23565b613f38906020613f22613f1d6005611cd3565b611ce0565b636a276f9d90613f306102d6565b948592611cf0565b82528180613f4860048201610596565b03915afa918215613fca57613f9a92613f68915f91613f9c575b50611d8c565b613f95613f7d613f786004611dd4565b611de1565b613f8f613f89336102f3565b916102f3565b14611e46565b613fcf565b565b613fbd915060203d8111613fc3575b613fb5818361049c565b810190611d05565b5f613f62565b503d613fab565b611d23565b613fda90601e612cbe565b565b613fe590613f0a565b565b90613ff190610ff8565b5f5260205260405f2090565b61400961400e916107d0565b610807565b90565b61401b9054613ffd565b90565b6140439161403961403e92614031611c48565b506001613fe7565b611004565b614011565b90565b949391929092614054614aaf565b86614067614061836102f3565b916102f3565b1415806140ac575b614085575061408394959390919293615548565b565b86906140a86140926102d6565b92839263711bec9160e11b8452600484016120c2565b0390fd5b506140c16140bb88839061401e565b1561041a565b61406f565b5f7f6f776e2e72657374726963746564000000000000000000000000000000000000910152565b6140fa600e602092610726565b614103816140c6565b0190565b61411c9060208101905f8183039101526140ed565b90565b1561412657565b61412e6102d6565b62461bcd60e51b81528061414460048201614107565b0390fd5b50506141535f61411f565b565b9061415f91614148565b565b906141919291602061417b6141766005611cd3565b611ce0565b636a276f9d906141896102d6565b968792611cf0565b825281806141a160048201610596565b03915afa938415614223576141f3946141c1915f916141f5575b50611d8c565b6141ee6141d66141d16004611dd4565b611de1565b6141e86141e2336102f3565b916102f3565b14611e46565b614228565b565b614216915060203d811161421c575b61420e818361049c565b810190611d05565b5f6141bb565b503d614204565b611d23565b9161423592919091615601565b565b906142429291614161565b565b5f7f6f776e2e64656661756c742e73656e6465720000000000000000000000000000910152565b6142786012602092610726565b61428181614244565b0190565b61429a9060208101905f81830391015261426b565b90565b156142a457565b6142ac6102d6565b62461bcd60e51b8152806142c260048201614285565b0390fd5b906142f995949392916142f4826142ed6142e76142e25f612a8e565b6102f3565b916102f3565b141561429d565b6143b6565b90565b60018060a01b031690565b614313614318916107d0565b6142fc565b90565b6143259054614307565b90565b61433190610fec565b90565b5f7f6f776e2e66616b652e696e7374616e6365000000000000000000000000000000910152565b6143686011602092610726565b61437181614334565b0190565b61438a9060208101905f81830391015261435b565b90565b1561439457565b61439c6102d6565b62461bcd60e51b8152806143b260048201614375565b0390fd5b906143e9959493929160206143d36143ce6005611cd3565b611ce0565b636a276f9d906143e16102d6565b998a92611cf0565b825281806143f960048201610596565b03915afa9687156144e05761445797614419915f916144b2575b50611d8c565b602061442d614428600761431b565b614328565b633e7634899061444c33926144406102d6565b9b8c9485938493611cf0565b83526004830161137b565b03915afa9687156144ad5761447c97614477915f9161447f575b5061438d565b6147b6565b90565b6144a0915060203d81116144a6575b614498818361049c565b810190611d05565b5f614471565b503d61448e565b611d23565b6144d3915060203d81116144d9575b6144cb818361049c565b810190611d05565b5f614413565b503d6144c1565b611d23565b5f7f6f72632e737570706c792e627265616368656400000000000000000000000000910152565b6145196013602092610726565b614522816144e5565b0190565b61453b9060208101905f81830391015261450c565b90565b1561454557565b61454d6102d6565b62461bcd60e51b81528061456360048201614526565b0390fd5b61457090610fec565b90565b61457c90610fd0565b90565b61458890614573565b90565b61459490610fec565b90565b5f9103126145a157565b6102e0565b905f92918054906145c06145b983610604565b8094610726565b916001811690815f1461461757506001146145db575b505050565b6145e89192939450610637565b915f925b8184106145ff57505001905f80806145d6565b600181602092959395548486015201910192906145ec565b92949550505060ff19168252151560200201905f80806145d6565b9499989690610100966146a06146956146be976146876146c59d986146786146aa976146b49a8e61466b6101208201935f8301906108e2565b60208184039101526145a6565b908c60408184039101526145a6565b908a820360608c01526145a6565b9c6080890190610375565b60a08701906108e2565b60c0850190610375565b60e0830190610375565b0190610375565b565b90565b5f5260205f2090565b5490565b6146e0816146d3565b8210156146fa576146f26001916146ca565b910201905f90565b610d28565b9190600861471f91029161471960018060a01b0384612d82565b92612d82565b9181191691161790565b919061473f61473a61474793610ff8565b612549565b9083546146ff565b9055565b908154916801000000000000000083101561477b5782614773916001614779950181556146d7565b90614729565b565b610488565b9061478c60ff91612529565b9181191691161790565b906147ab6147a66147b292612598565b6125a4565b8254614780565b9055565b929192506147f36147c7601e611c14565b6147ec6147e66147e16147da601f611c14565b879061384b565b610322565b91610322565b101561453e565b61480e6147ff30614567565b6148085f6128c6565b90615779565b9461482061481b8761457f565b61458b565b91636db49b13906148396148346003612a59565b612a66565b9060149360139861485f60116148598b61485360016124b4565b90613bc8565b90610d49565b50928989929394893b1561492c576148756102d6565b9c8d996148828b9a611cf0565b8a5260048a019861489299614632565b03815a5f948591f1918215614927576148c56148c06148cc926148f8966148f1966148fb575b5060186113f2565b6146c7565b859061474b565b6148e260016148dd60178790611004565b614796565b6148ec601f611c14565b61384b565b601f612cbe565b90565b61491a905f3d8111614920575b614912818361049c565b810190614597565b5f6148b8565b503d614908565b611d23565b611cec565b906149469493929161494161318f565b6142c6565b90565b614951611c48565b5061496b6149656301ffc9a760e01b6103cd565b916103cd565b1490565b61497a906002612f4d565b565b906149879101610322565b90565b369037565b906149b461499c83613049565b926020806149aa86936104da565b920191039061498a565b565b60016149c29103610322565b90565b90565b6149dc6149d76149e1926149c5565b610c1f565b610322565b90565b6149f06149f691610322565b91610322565b908115614a01570490565b613b92565b614a0e611f4a565b50614a2b614a1b82615963565b614a2560016124b4565b9061497c565b90614a358261498f565b91614a3e611bd0565b5060208301015b600115614aa857614a58614a84916149b6565b916f181899199a1a9b1b9c1cb0b131b232b360811b600a82061a8353614a7e600a6149c8565b906149e4565b80614a97614a915f6128c6565b91610322565b14614aa25790614a45565b50505b90565b5050614aa5565b614ab761318f565b503390565b939192909283614adc614ad6614ad15f612a8e565b6102f3565b916102f3565b14614b3e5784614afc614af6614af15f612a8e565b6102f3565b916102f3565b14614b1157614b0f949390919293615bc4565b565b614b3a614b1d5f612a8e565b614b256102d6565b918291626a0d4560e21b83526004830161137b565b0390fd5b614b68614b4a5f612a8e565b614b526102d6565b918291632bfa23e760e11b83526004830161137b565b0390fd5b9060208091614b7961318f565b50029101015190565b9060208091614b8f611bd0565b50029101015190565b90505190614ba5826102ff565b565b90602082820312614bc057614bbd915f01614b98565b90565b6102e0565b614bce90610fd0565b90565b614bda90614bc5565b90565b614be690614bc5565b90565b90565b90614c01614bfc614c0892614bdd565b614be9565b825461252e565b9055565b614c1590610fd0565b90565b614c2190614c0c565b90565b614c2d90614c0c565b90565b90565b90614c48614c43614c4f92614c24565b614c30565b825461252e565b9055565b614c5c90610fd0565b90565b614c6890614c53565b90565b614c7490614c53565b90565b90565b90614c8f614c8a614c9692614c6b565b614c77565b825461252e565b9055565b614ca390610fd0565b90565b614caf90614c9a565b90565b614cbb90614c9a565b90565b90565b90614cd6614cd1614cdd92614cb2565b614cbe565b825461252e565b9055565b614cea90614573565b90565b90565b90614d05614d00614d0c92614ce1565b614ced565b825461252e565b9055565b614d22614d1d6003612a59565b612a66565b614d3c614d36614d315f612a8e565b6102f3565b916102f3565b1461538457614d6e6020614d58614d536003612a59565b612a66565b634162169f90614d666102d6565b938492611cf0565b82528180614d7e60048201610596565b03915afa90811561537f57614da591614d9e915f91615351575b50614bd1565b6004614bec565b614dd26020614dbc614db76003612a59565b612a66565b63b57dbdc690614dca6102d6565b938492611cf0565b82528180614de260048201610596565b03915afa90811561534c57614e0991614e02915f9161531e575b50614c18565b6005614c33565b614e366020614e20614e1b6003612a59565b612a66565b63cfbffe5390614e2e6102d6565b938492611cf0565b82528180614e4660048201610596565b03915afa90811561531957614e6d91614e66915f916152eb575b50614c5f565b6006614c7a565b614e9a6020614e84614e7f6003612a59565b612a66565b63ab6e844f90614e926102d6565b938492611cf0565b82528180614eaa60048201610596565b03915afa9081156152e657614ed191614eca915f916152b8575b50614ca6565b6007614cc1565b614efe6020614ee8614ee36003612a59565b612a66565b639a7c407790614ef66102d6565b938492611cf0565b82528180614f0e60048201610596565b03915afa9081156152b357614f3591614f2e915f91615285575b5061457f565b6008614cf0565b614f626020614f4c614f476003612a59565b612a66565b63aa0ddc1690614f5a6102d6565b938492611cf0565b82528180614f7260048201610596565b03915afa801561528057614f8f915f91615252575b50600a61254c565b614fbc6020614fa6614fa16003612a59565b612a66565b636b4aefc690614fb46102d6565b938492611cf0565b82528180614fcc60048201610596565b03915afa801561524d57614fe9915f9161521f575b50600b61254c565b6150166020615000614ffb6003612a59565b612a66565b6324768d919061500e6102d6565b938492611cf0565b8252818061502660048201610596565b03915afa801561521a57615043915f916151ec575b50600e61254c565b615070602061505a6150556003612a59565b612a66565b6364027427906150686102d6565b938492611cf0565b8252818061508060048201610596565b03915afa80156151e75761509d915f916151b9575b50600c61254c565b6150ca60206150b46150af6003612a59565b612a66565b6330125cf5906150c26102d6565b938492611cf0565b825281806150da60048201610596565b03915afa80156151b4576150f7915f91615186575b50600d61254c565b615124602061510e6151096003612a59565b612a66565b63d3d1b0969061511c6102d6565b938492611cf0565b8252818061513460048201610596565b03915afa801561518157615151915f91615153575b50600961254c565b565b615174915060203d811161517a575b61516c818361049c565b810190614ba7565b5f615149565b503d615162565b611d23565b6151a7915060203d81116151ad575b61519f818361049c565b810190614ba7565b5f6150ef565b503d615195565b611d23565b6151da915060203d81116151e0575b6151d2818361049c565b810190614ba7565b5f615095565b503d6151c8565b611d23565b61520d915060203d8111615213575b615205818361049c565b810190614ba7565b5f61503b565b503d6151fb565b611d23565b615240915060203d8111615246575b615238818361049c565b810190614ba7565b5f614fe1565b503d61522e565b611d23565b615273915060203d8111615279575b61526b818361049c565b810190614ba7565b5f614f87565b503d615261565b611d23565b6152a6915060203d81116152ac575b61529e818361049c565b810190614ba7565b5f614f28565b503d615294565b611d23565b6152d9915060203d81116152df575b6152d1818361049c565b810190614ba7565b5f614ec4565b503d6152c7565b611d23565b61530c915060203d8111615312575b615304818361049c565b810190614ba7565b5f614e60565b503d6152fa565b611d23565b61533f915060203d8111615345575b615337818361049c565b810190614ba7565b5f614dfc565b503d61532d565b611d23565b615372915060203d8111615378575b61536a818361049c565b810190614ba7565b5f614d98565b503d615360565b611d23565b565b61538e611bd0565b506153bc60206153a66153a16005611cd3565b611ce0565b63262a9dff906153b46102d6565b938492611cf0565b825281806153cc60048201610596565b03915afa908115615410575f916153e2575b5090565b615403915060203d8111615409575b6153fb818361049c565b81019061241b565b5f6153de565b503d6153f1565b611d23565b9192908261543361542d6154285f612a8e565b6102f3565b916102f3565b1461545b576154599361544591615c80565b9061544f5f612a8e565b9390919293615bc4565b565b6154856154675f612a8e565b61546f6102d6565b918291632bfa23e760e11b83526004830161137b565b0390fd5b919091826154a76154a161549c5f612a8e565b6102f3565b916102f3565b1461551b576154cb826154c66154bf60018590613fe7565b8690611004565b614796565b9190916155166155046154fe7f17307eab39ab6107e8899845ad3d59bd9653f200f220920489ca2b5937696c3193610ff8565b93610ff8565b9361550d6102d6565b9182918261042c565b0390a3565b6155446155275f612a8e565b61552f6102d6565b91829162ced3e160e81b83526004830161137b565b0390fd5b909293918361556761556161555c5f612a8e565b6102f3565b916102f3565b146155d3578161558761558161557c5f612a8e565b6102f3565b916102f3565b146155a6576155a49461559991615c80565b919390919293615bc4565b565b6155cf6155b25f612a8e565b6155ba6102d6565b918291626a0d4560e21b83526004830161137b565b0390fd5b6155fd6155df5f612a8e565b6155e76102d6565b918291632bfa23e760e11b83526004830161137b565b0390fd5b908161561d6156176156125f612a8e565b6102f3565b916102f3565b1461564b576156499261562f91615c80565b6156385f612a8e565b91909161564361306c565b93615bc4565b565b6156746156575f612a8e565b61565f6102d6565b918291626a0d4560e21b83526004830161137b565b0390fd5b60207f73732874686973292e62616c616e63652c2076616c7565290000000000000000917f4572726f72732e496e73756666696369656e7442616c616e63652861646472655f8201520152565b6156d26038604092610726565b6156db81615678565b0190565b6156f49060208101905f8183039101526156c5565b90565b5f7f6f72632e436c6f6e65466163746f72792e6372656174652e6661696c65640000910152565b61572b601e602092610726565b615734816156f7565b0190565b61574d9060208101905f81830391015261571e565b90565b1561575757565b61575f6102d6565b62461bcd60e51b81528061577560048201615738565b0390fd5b61578161318f565b5061578b30614567565b3161579e61579884610322565b91610322565b1061580b576037916e5af43d82803e903d91602b57fd5bf382763d602d80600a3d3981f3363d3d373d3d3d363d7300000060099460601b60e81c175f5260781b17602052f090615809826158026157fc6157f75f612a8e565b6102f3565b916102f3565b1415615750565b565b6158136102d6565b62461bcd60e51b815280615829600482016156df565b0390fd5b90565b61584461583f6158499261582d565b610c1f565b610322565b90565b90565b61586361585e6158689261584c565b610c1f565b610322565b90565b90565b61588261587d6158879261586b565b610c1f565b610322565b90565b90565b6158a161589c6158a69261588a565b610c1f565b610322565b90565b90565b6158c06158bb6158c5926158a9565b610c1f565b610322565b90565b90565b6158df6158da6158e4926158c8565b610c1f565b610322565b90565b90565b6158fe6158f9615903926158e7565b610c1f565b610322565b90565b90565b61591d61591861592292615906565b610c1f565b610322565b90565b90565b61593c61593761594192615925565b610c1f565b610322565b90565b90565b61595b61595661596092615944565b610c1f565b610322565b90565b61596b611bd0565b506159755f6128c6565b90806159a461599e7a184f03e93ff9f4daa797ed6e38ed64bf6a1f010000000000000000615830565b91610322565b1015615b7c575b806159cc6159c66d04ee2d6d415b85acef810000000061586e565b91610322565b1015615b41575b806159ed6159e7662386f26fc100006158ac565b91610322565b1015615b0d575b80615a0b615a056305f5e1006158ea565b91610322565b1015615adc575b80615a27615a21612710615928565b91610322565b1015615aad575b80615a42615a3c6064613b76565b91610322565b1015615a7f575b615a5c615a56600a6149c8565b91610322565b1015615a66575b90565b615a7a90615a7460016124b4565b9061497c565b615a63565b615a96615aa791615a906064613b76565b906149e4565b91615aa160026124d3565b9061497c565b90615a49565b615ac5615ad691615abf612710615928565b906149e4565b91615ad06004615947565b9061497c565b90615a2e565b615af6615b0791615af06305f5e1006158ea565b906149e4565b91615b016008615909565b9061497c565b90615a12565b615b2a615b3b91615b24662386f26fc100006158ac565b906149e4565b91615b3560106158cb565b9061497c565b906159f4565b615b65615b7691615b5f6d04ee2d6d415b85acef810000000061586e565b906149e4565b91615b70602061588d565b9061497c565b906159d3565b615bad615bbe91615ba77a184f03e93ff9f4daa797ed6e38ed64bf6a1f010000000000000000615830565b906149e4565b91615bb8604061584f565b9061497c565b906159ab565b92939193615bd68483879084926161c8565b81615bf1615beb615be65f612a8e565b6102f3565b916102f3565b03615bfe575b5050505050565b615c06614aaf565b91615c1086610ec6565b615c23615c1d60016124b4565b91610322565b145f14615c6a57615c53615c43615c5f97615c3d5f6128c6565b90614b82565b92615c4d5f6128c6565b90614b82565b929490919293946164c1565b5b5f80808080615bf7565b615c7b959192949091929394616303565b615c60565b91615c89612854565b50615c92612854565b5060405192600184526020840152604083019160018352602083015260408201604052565b90615ce89392916020615cd2615ccd6005611cd3565b611ce0565b636a276f9d90615ce06102d6565b978892611cf0565b82528180615cf860048201610596565b03915afa948515615d4d57615d1d95615d18915f91615d1f575b50611d8c565b615ee5565b565b615d40915060203d8111615d46575b615d38818361049c565b810190611d05565b5f615d12565b503d615d2e565b611d23565b615d5c9051610322565b90565b5f7f6f72632e6c6573732e7174790000000000000000000000000000000000000000910152565b615d93600c602092610726565b615d9c81615d5f565b0190565b615db59060208101905f818303910152615d86565b90565b15615dbf57565b615dc76102d6565b62461bcd60e51b815280615ddd60048201615da0565b0390fd5b5f7f6f72632e696e6163746976650000000000000000000000000000000000000000910152565b615e15600c602092610726565b615e1e81615de1565b0190565b615e379060208101905f818303910152615e08565b90565b15615e4157565b615e496102d6565b62461bcd60e51b815280615e5f60048201615e22565b0390fd5b5f7f6f72632e6c6f636b656400000000000000000000000000000000000000000000910152565b615e97600a602092610726565b615ea081615e63565b0190565b615eb99060208101905f818303910152615e8a565b90565b15615ec357565b615ecb6102d6565b62461bcd60e51b815280615ee160048201615ea4565b0390fd5b929091615f20615f06615f0184615efb5f6128c6565b906128f1565b615d52565b615f19615f1360016124b4565b91610322565b1015615db8565b83615f3b615f35615f305f612a8e565b6102f3565b916102f3565b1415806161a5575b80616179575b615f5d575b615f5b93929091926166a5565b565b615f9e6020615f74615f6f600761431b565b614328565b632b956ff790615f938892615f876102d6565b95869485938493611cf0565b83526004830161137b565b03915afa908115616174575f91616146575b509384615fc5615fbf5f6128c6565b91610322565b1180616123575b615fd8575b9350615f4e565b602061601795615ff0615feb600761431b565b614328565b61600c633a109e926160006102d6565b998a9485938493611cf0565b835260048301610382565b03915afa801561611e5761603a61603f91615f5b975f916160f0575b501561041a565b615e3a565b61606b61604a613bed565b8061605d6160575f6128c6565b91610322565b1190816160a7575b50615ebc565b6160a261609b61608c616087866160815f6128c6565b906128f1565b615d52565b616096601c611c14565b61384b565b601c612cbe565b615fd1565b6160bc91506160b6601c611c14565b90613bc8565b6160e86160e26160dd6160d8886160d25f6128c6565b906128f1565b615d52565b610322565b91610322565b10155f616065565b616111915060203d8111616117575b616109818361049c565b810190611d05565b5f616033565b503d6160ff565b611d23565b5061612e60196107f4565b61614061613a836102f3565b916102f3565b14615fcc565b616167915060203d811161616d575b61615f818361049c565b81019061241b565b5f615fb0565b503d616155565b611d23565b50616184601a611c14565b61619f616199616194601c611c14565b610322565b91610322565b11615f49565b50826161c16161bb6161b65f612a8e565b6102f3565b916102f3565b1415615f43565b906161d4939291615cb7565b565b6161df90610fd0565b90565b6161eb906161d6565b90565b6161f790610fec565b90565b90505190616207826103d9565b565b906020828203126162225761621f915f016161fa565b90565b6102e0565b5190565b60209181520190565b61625361625c6020936162619361624a81616227565b9384809361622b565b9586910161072f565b61047e565b0190565b939061629f906162bb96946162926162ad9561628860a08a01945f8b01906108e2565b60208901906108e2565b8682036040880152610efd565b908482036060860152610efd565b916080818403910152616234565b90565b906162d06162cb83610acd565b6104c5565b918252565b606090565b3d5f146162f5576162ea3d6162be565b903d5f602084013e5b565b6162fd6162d5565b906162f3565b94909194939293853b61631e6163185f6128c6565b91610322565b1161632c575b505050505050565b5f616368916163736020966163486163438b6161e2565b6161ee565b9563bc197c8193979991909161635c6102d6565b9a8b998a988997611cf0565b875260048701616265565b03925af180915f92616440575b50155f146163f65750600161639c57505b5f8080808080616324565b6163a46162da565b906163ae82616227565b6163c06163ba5f6128c6565b91610322565b145f146163ed576163e9906163d36102d6565b918291632bfa23e760e11b83526004830161137b565b0390fd5b50602081519101fd5b61640f61640963bc197c8160e01b6103cd565b916103cd565b0361641a5750616391565b61643c906164266102d6565b918291632bfa23e760e11b83526004830161137b565b0390fd5b61646291925060203d8111616469575b61645a818361049c565b810190616209565b905f616380565b503d616450565b91936164a76164be969461649d6164b1949761649360a08801995f8901906108e2565b60208701906108e2565b6040850190610375565b6060830190610375565b6080818403910152616234565b90565b94909194939293853b6164dc6164d65f6128c6565b91610322565b116164ea575b505050505050565b5f616526916165316020966165066165018b6161e2565b6161ee565b9563f23a6e6193979991909161651a6102d6565b9a8b998a988997611cf0565b875260048701616470565b03925af180915f926165fe575b50155f146165b45750600161655a57505b5f80808080806164e2565b6165626162da565b9061656c82616227565b61657e6165785f6128c6565b91610322565b145f146165ab576165a7906165916102d6565b918291632bfa23e760e11b83526004830161137b565b0390fd5b50602081519101fd5b6165cd6165c763f23a6e6160e01b6103cd565b916103cd565b036165d8575061654f565b6165fa906165e46102d6565b918291632bfa23e760e11b83526004830161137b565b0390fd5b61662091925060203d8111616627575b616618818361049c565b810190616209565b905f61653e565b503d61660e565b61666361666a9461665960609498979561664f608086019a5f8701906108e2565b6020850190610375565b6040830190610375565b0190610375565b565b906166779103610322565b90565b90916166946166a29360408401908482035f860152610efd565b916020818403910152610efd565b90565b939290916166b281610ec6565b6166cc6166c66166c185610ec6565b610322565b91610322565b03616947576166d9614aaf565b936166e35f6128c6565b5b806166ff6166f96166f486610ec6565b610322565b91610322565b101561683d57616710838290614b82565b61671b858390614b82565b908861673761673161672c5f612a8e565b6102f3565b916102f3565b036167a7575b9061676b92918761675e6167586167535f612a8e565b6102f3565b916102f3565b03616770575b50506128e2565b6166e4565b61679a61678b6167846167a094935f611bd4565b8a90611bea565b9161679583611c14565b61384b565b90612cbe565b5f80616764565b6167c46167bf6167b85f8490611bd4565b8b90611bea565b611c14565b806167d76167d185610322565b91610322565b10616813579061680a6167f061676b959493849061666c565b6168056167fe5f8590611bd4565b8d90611bea565b612cbe565b9091925061673d565b90616839908a92936168236102d6565b9485946303dee4c560e01b86526004860161662e565b0390fd5b50949092919261684c81610ec6565b61685f61685960016124b4565b91610322565b145f146168e85761687c61688c916168765f6128c6565b90614b82565b936168865f6128c6565b90614b82565b93909192936168cd6168c76168c17fc3d58168c5ae7397731d063d5bbf3d657854427343f4c083240f7aacaa2d0f6294610ff8565b94610ff8565b94610ff8565b946168e26168d96102d6565b9283928361285d565b0390a45b565b92939091929361692a61692461691e7f4a39dc06d4c0dbc64b70af90fd698a233a518aa5d07e595d983b8c0526c8f7fb94610ff8565b94610ff8565b94610ff8565b9461693f6169366102d6565b9283928361667a565b0390a46168e6565b61695361695991610ec6565b91610ec6565b9061697b6169656102d6565b928392635b05999160e01b84526004840161285d565b0390fdfea264697066735822122010127079fa3fb930213080591e28d309edbe2301f117c3380c34c90cb3f19d3264736f6c6343000818003360806040523461001f57610011610024565b61233861002f823961233890f35b61002a565b60405190565b5f80fdfe60806040526004361015610018575b361561001657005b005b6100225f356100c1565b80630d43aaf2146100bc57806312065fe0146100b7578063379a423c146100b257806341ffe7c4146100ad57806360af454d146100a85780638da5cb5b146100a3578063a9059cbb1461009e578063abb8c96514610099578063b90306ad146100945763f3fef3a30361000e57610591565b610568565b610516565b61049c565b610417565b6103cf565b61039c565b610362565b6102d7565b610279565b60e01c90565b60405190565b5f80fd5b5f80fd5b5f9103126100df57565b6100d1565b5f1c90565b60018060a01b031690565b610100610105916100e4565b6100e9565b90565b61011290546100f4565b90565b60a01c90565b60ff1690565b61012d61013291610115565b61011b565b90565b61013f9054610121565b90565b60a81c90565b61015461015991610142565b61011b565b90565b6101669054610148565b90565b60b01c90565b61017b61018091610169565b61011b565b90565b61018d905461016f565b90565b60b81c90565b6101a26101a791610190565b61011b565b90565b6101b49054610196565b90565b600d6101c45f8201610108565b916101d05f8301610135565b916101dc5f820161015c565b916101f35f6101ec818501610183565b93016101aa565b90565b60018060a01b031690565b61020a906101f6565b90565b61021690610201565b9052565b151590565b6102289061021a565b9052565b90959492610277946102666102709261025c60809661025260a088019c5f89019061020d565b602087019061021f565b604085019061021f565b606083019061021f565b019061021f565b565b346102ad576102893660046100d5565b6102a96102946101b7565b916102a09593956100c7565b9586958661022c565b0390f35b6100cd565b90565b6102be906102b2565b9052565b91906102d5905f602085019401906102b5565b565b34610307576102e73660046100d5565b6103036102f26105f6565b6102fa6100c7565b918291826102c2565b0390f35b6100cd565b61031581610201565b0361031c57565b5f80fd5b9050359061032d8261030c565b565b9060208282031261034857610345915f01610320565b90565b6100d1565b9190610360905f6020850194019061021f565b565b346103925761038e61037d61037836600461032f565b6106d2565b6103856100c7565b9182918261034d565b0390f35b6100cd565b5f0190565b346103ca576103b46103af36600461032f565b610e9a565b6103bc6100c7565b806103c681610397565b0390f35b6100cd565b346103fd576103e76103e236600461032f565b610fe9565b6103ef6100c7565b806103f981610397565b0390f35b6100cd565b9190610415905f6020850194019061020d565b565b34610447576104273660046100d5565b610443610432611050565b61043a6100c7565b91829182610402565b0390f35b6100cd565b610455816102b2565b0361045c57565b5f80fd5b9050359061046d8261044c565b565b9190604083820312610497578061048b610494925f8601610320565b93602001610460565b90565b6100d1565b6104b06104aa36600461046f565b90611378565b6104b86100c7565b806104c281610397565b0390f35b6104cf8161021a565b036104d657565b5f80fd5b905035906104e7826104c6565b565b9190604083820312610511578061050561050e925f8601610320565b936020016104da565b90565b6100d1565b346105455761052f6105293660046104e9565b9061181b565b6105376100c7565b8061054181610397565b0390f35b6100cd565b9060208282031261056357610560915f01610460565b90565b6100d1565b61057b61057636600461054a565b611928565b6105836100c7565b8061058d81610397565b0390f35b6105a561059f36600461046f565b90611afc565b6105ad6100c7565b806105b781610397565b0390f35b5f90565b90565b6105d66105d16105db926101f6565b6105bf565b6101f6565b90565b6105e7906105c2565b90565b6105f3906105de565b90565b6105fe6105bb565b50610608306105ea565b3190565b5f90565b60018060a01b031690565b61062761062c916100e4565b610610565b90565b610639905461061b565b90565b610645906105de565b90565b601f801991011690565b634e487b7160e01b5f52604160045260245ffd5b9061067090610648565b810190811067ffffffffffffffff82111761068a57604052565b610652565b60e01b90565b905051906106a2826104c6565b565b906020828203126106bd576106ba915f01610695565b90565b6100d1565b6106ca6100c7565b3d5f823e3d90fd5b6106da61060c565b5061071c60206106f26106ed600261062f565b61063c565b6319c064299061071185926107056100c7565b9586948593849361068f565b835260048301610402565b03915afa90811561078e575f91610760575b5090811561073b575b5090565b905061075961075361074d600c610108565b92610201565b91610201565b145f610737565b610781915060203d8111610787575b6107798183610666565b8101906106a4565b5f61072e565b503d61076f565b6106c2565b60209181520190565b5f7f6f776e2e696e76616c69642e6973536166650000000000000000000000000000910152565b6107d06012602092610793565b6107d98161079c565b0190565b6107f29060208101905f8183039101526107c3565b90565b156107fc57565b6108046100c7565b62461bcd60e51b81528061081a600482016107dd565b0390fd5b60018060a01b031690565b61083561083a916100e4565b61081e565b90565b6108479054610829565b90565b610853906105de565b90565b5f7f6f776d2e66616b652e2064656c65676174650000000000000000000000000000910152565b61088a6012602092610793565b61089381610856565b0190565b6108ac9060208101905f81830391015261087d565b90565b156108b657565b6108be6100c7565b62461bcd60e51b8152806108d460048201610897565b0390fd5b61090560206108ef6108ea600261062f565b61063c565b636a276f9d906108fd6100c7565b93849261068f565b8252818061091560048201610397565b03915afa8015610a3757610930915f91610a09575b506107f5565b61094261093d600161083d565b61084a565b61095461094e33610201565b91610201565b14908115610970575b61096961096e926108af565b610d5b565b565b6109b391506020610989610984600261062f565b61063c565b637df73e27906109a8339261099c6100c7565b9687948593849361068f565b835260048301610402565b03915afa918215610a045761096e92610969915f916109d6575b5092505061095d565b6109f7915060203d81116109fd575b6109ef8183610666565b8101906106a4565b5f6109cd565b503d6109e5565b6106c2565b610a2a915060203d8111610a30575b610a228183610666565b8101906106a4565b5f61092a565b503d610a18565b6106c2565b90505190610a498261044c565b565b90602082820312610a6457610a61915f01610a3c565b90565b6100d1565b90610a7c610a756100c7565b9283610666565b565b610a8860a0610a69565b90565b5f90565b5f90565b610a9b610a7e565b9060208080808086610aab610a8b565b815201610ab6610a8f565b815201610ac1610a8f565b815201610acc610a8f565b815201610ad7610a8f565b81525050565b610ae5610a93565b90565b90610af29061021a565b9052565b90565b610b0d610b08610b1292610af6565b6105bf565b6102b2565b90565b90565b610b2c610b27610b3192610b15565b6105bf565b6102b2565b90565b90565b610b4b610b46610b5092610b34565b6105bf565b6102b2565b90565b90610b5d90610201565b9052565b610b6b9051610201565b90565b5f1b90565b90610b8460018060a01b0391610b6e565b9181191691161790565b610b97906105de565b90565b90565b90610bb2610bad610bb992610b8e565b610b9a565b8254610b73565b9055565b610bc7905161021a565b90565b60a01b90565b90610bdf60ff60a01b91610bca565b9181191691161790565b610bf29061021a565b90565b90565b90610c0d610c08610c1492610be9565b610bf5565b8254610bd0565b9055565b60a81b90565b90610c2d60ff60a81b91610c18565b9181191691161790565b90610c4c610c47610c5392610be9565b610bf5565b8254610c1e565b9055565b60b01b90565b90610c6c60ff60b01b91610c57565b9181191691161790565b90610c8b610c86610c9292610be9565b610bf5565b8254610c5d565b9055565b60b81b90565b90610cab60ff60b81b91610c96565b9181191691161790565b90610cca610cc5610cd192610be9565b610bf5565b8254610c9c565b9055565b90610d4760805f610d4d94610cf7828201610cf1848801610b61565b90610b9d565b610d0f828201610d0960208801610bbd565b90610bf8565b610d27828201610d2160408801610bbd565b90610c37565b610d3f828201610d3960608801610bbd565b90610c76565b019201610bbd565b90610cb5565b565b90610d5991610cd5565b565b610d9d906020610d73610d6e600261062f565b61063c565b631d84be4490610d923392610d866100c7565b9687948593849361068f565b835260048301610402565b03915afa918215610e9557610e2c92610e25915f91610e67575b5091610dc1610add565b92610dd0600160208601610ae8565b80610de4610dde6001610af9565b916102b2565b14610e54575b80610dfe610df86002610b18565b916102b2565b14610e41575b610e17610e116003610b37565b916102b2565b14610e2e575b5f8301610b53565b600d610d4f565b565b610e3c600160808501610ae8565b610e1d565b610e4f600160608601610ae8565b610e04565b610e62600160408601610ae8565b610dea565b610e88915060203d8111610e8e575b610e808183610666565b810190610a4b565b5f610db7565b503d610e76565b6106c2565b610ea3906108d8565b565b60018060a01b031690565b610ebc610ec1916100e4565b610ea5565b90565b610ece9054610eb0565b90565b610eda906105de565b90565b90565b610ef4610eef610ef992610edd565b6105bf565b6101f6565b90565b610f0590610ee0565b90565b5f7f6f776e2e686578626173652e6661696c65640000000000000000000000000000910152565b610f3c6012602092610793565b610f4581610f08565b0190565b610f5e9060208101905f818303910152610f2f565b90565b15610f6857565b610f706100c7565b62461bcd60e51b815280610f8660048201610f49565b0390fd5b610f93906105c2565b90565b610f9f90610f8a565b90565b610fab906105c2565b90565b610fb790610fa2565b90565b610fc390610fa2565b90565b90565b90610fde610fd9610fe592610fba565b610fc6565b8254610b73565b9055565b61103c611037611042926110276110076110025f610ec4565b610ed1565b61102161101b6110165f610efc565b610201565b91610201565b14610f61565b61103232600c610b9d565b610f96565b610fae565b5f610fc9565b61104a611c98565b565b5f90565b61105861104c565b50611063600c610108565b90565b5f7f6f776e2e64656661756c742e73656e6465720000000000000000000000000000910152565b61109a6012602092610793565b6110a381611066565b0190565b6110bc9060208101905f81830391015261108d565b90565b156110c657565b6110ce6100c7565b62461bcd60e51b8152806110e4600482016110a7565b0390fd5b90611117916111128161110b6111056111005f610efc565b610201565b91610201565b14156110bf565b6111d3565b565b60018060a01b031690565b611130611135916100e4565b611119565b90565b6111429054611124565b90565b61114e906105de565b90565b5f7f6f776e2e6e6f6e617574682e44414f0000000000000000000000000000000000910152565b611185600f602092610793565b61118e81611151565b0190565b6111a79060208101905f818303910152611178565b90565b156111b157565b6111b96100c7565b62461bcd60e51b8152806111cf60048201611192565b0390fd5b9061120160206111eb6111e6600261062f565b61063c565b636a276f9d906111f96100c7565b93849261068f565b8252818061121160048201610397565b03915afa80156113335761122c915f91611305575b506107f5565b61123e611239600161083d565b61084a565b61125061124a33610201565b91610201565b1491821561126c575b61126561126a936111aa565b611344565b565b6112af925060206112856112806004611138565b611145565b633e763489906112a433926112986100c7565b9788948593849361068f565b835260048301610402565b03915afa9283156113005761126a93611265915f916112d2575b50935050611259565b6112f3915060203d81116112f9575b6112eb8183610666565b8101906106a4565b5f6112c9565b503d6112e1565b6106c2565b611326915060203d811161132c575b61131e8183610666565b8101906106a4565b5f611226565b503d611314565b6106c2565b611341906105de565b90565b5f80809361135a6113558395610f96565b611338565b82821561136f575bf11561136a57565b6106c2565b506108fc611362565b90611382916110e8565b565b906113b2602061139c611397600261062f565b61063c565b636a276f9d906113aa6100c7565b93849261068f565b825281806113c260048201610397565b03915afa80156114e4576113dd915f916114b6575b506107f5565b6113ef6113ea600161083d565b61084a565b6114016113fb33610201565b91610201565b1491821561141d575b61141661141b936108af565b611535565b565b61146092506020611436611431600261062f565b61063c565b637df73e279061145533926114496100c7565b9788948593849361068f565b835260048301610402565b03915afa9283156114b15761141b93611416915f91611483575b5093505061140a565b6114a4915060203d81116114aa575b61149c8183610666565b8101906106a4565b5f61147a565b503d611492565b6106c2565b6114d7915060203d81116114dd575b6114cf8183610666565b8101906106a4565b5f6113d7565b503d6114c5565b6106c2565b6114fd6114f861150292610edd565b6105bf565b6102b2565b90565b634e487b7160e01b5f52601160045260245ffd5b611522906102b2565b5f1981146115305760010190565b611505565b905f146118035761157d602061155361154e600261062f565b61063c565b631d84be449061157233926115666100c7565b9586948593849361068f565b835260048301610402565b03915afa9081156117fe575f916117d0575b5061159c5f600d01610135565b806117b5575b80611790575b61177d575b6115b95f600d01610135565b80611762575b8061173d575b61172a575b6115d65f600d01610135565b908161170e575b50806116e9575b6116d6575b6115f25f6114e9565b6115fe5f600d0161015c565b6116c8575b61160f5f600d01610183565b6116ba575b6116205f600d016101aa565b6116ac575b6116315f600d01610135565b9081611690575b508061166b575b611648575b505b565b61165390600c610b9d565b61166561165e610add565b600d610d4f565b5f611644565b506116785f600d01610108565b61168a61168483610201565b91610201565b1461163f565b90506116a561169f6002610b18565b916102b2565b145f611638565b6116b590611519565b611625565b6116c390611519565b611614565b6116d190611519565b611603565b6116e460015f600d01610cb5565b6115e9565b506116f65f600d01610108565b61170861170283610201565b91610201565b146115e4565b905061172361171d6003610b37565b916102b2565b145f6115dd565b61173860015f600d01610c76565b6115ca565b5061174a5f600d01610108565b61175c61175684610201565b91610201565b146115c5565b50806117776117716002610b18565b916102b2565b146115bf565b61178b60015f600d01610c37565b6115ad565b5061179d5f600d01610108565b6117af6117a984610201565b91610201565b146115a8565b50806117ca6117c46001610af9565b916102b2565b146115a2565b6117f1915060203d81116117f7575b6117e98183610666565b810190610a4b565b5f61158f565b503d6117df565b6106c2565b5061181661180f610add565b600d610d4f565b611646565b9061182591611384565b565b61185590602061183f61183a600261062f565b61063c565b636a276f9d9061184d6100c7565b94859261068f565b8252818061186560048201610397565b03915afa9182156118e7576118b792611885915f916118b9575b506107f5565b6118b261189a611895600161083d565b61084a565b6118ac6118a633610201565b91610201565b146111aa565b6118ec565b565b6118da915060203d81116118e0575b6118d28183610666565b8101906106a4565b5f61187f565b503d6118c8565b6106c2565b5f8080809361190a61190561190084610efc565b610f96565b611338565b82821561191f575bf11561191a57565b6106c2565b506108fc611912565b61193190611827565b565b906119629161195d8161195661195061194b5f610efc565b610201565b91610201565b14156110bf565b611964565b565b9061199391602061197d611978600261062f565b61063c565b636a276f9d9061198b6100c7565b95869261068f565b825281806119a360048201610397565b03915afa928315611a25576119f5936119c3915f916119f7575b506107f5565b6119f06119d86119d3600161083d565b61084a565b6119ea6119e433610201565b91610201565b146111aa565b611aac565b565b611a18915060203d8111611a1e575b611a108183610666565b8101906106a4565b5f6119bd565b503d611a06565b6106c2565b5f7f6f776e2e696e76616c69642e616d6f756e740000000000000000000000000000910152565b611a5e6012602092610793565b611a6781611a2a565b0190565b611a809060208101905f818303910152611a51565b90565b15611a8a57565b611a926100c7565b62461bcd60e51b815280611aa860048201611a6b565b0390fd5b5f808093611ade611ad98395611ad484611ace611ac8886114e9565b916102b2565b11611a83565b610f96565b611338565b828215611af3575bf115611aee57565b6106c2565b506108fc611ae6565b90611b0691611933565b565b90505190611b158261030c565b565b90602082820312611b3057611b2d915f01611b08565b90565b6100d1565b611b3e906105c2565b90565b611b4a90611b35565b90565b611b5690611b35565b90565b90565b90611b71611b6c611b7892611b4d565b611b59565b8254610b73565b9055565b611b85906105c2565b90565b611b9190611b7c565b90565b611b9d90611b7c565b90565b90565b90611bb8611bb3611bbf92611b94565b611ba0565b8254610b73565b9055565b611bcc906105c2565b90565b611bd890611bc3565b90565b611be490611bc3565b90565b90565b90611bff611bfa611c0692611bdb565b611be7565b8254610b73565b9055565b611c13906105c2565b90565b611c1f90611c0a565b90565b611c2b90611c0a565b90565b90565b90611c46611c41611c4d92611c22565b611c2e565b8254610b73565b9055565b611c5a906105c2565b90565b611c6690611c51565b90565b611c7290611c51565b90565b90565b90611c8d611c88611c9492611c69565b611c75565b8254610b73565b9055565b611ca9611ca45f610ec4565b610ed1565b611cc3611cbd611cb85f610efc565b610201565b91610201565b1461230057611cf46020611cde611cd95f610ec4565b610ed1565b634162169f90611cec6100c7565b93849261068f565b82528180611d0460048201610397565b03915afa9081156122fb57611d2b91611d24915f916122cd575b50611b41565b6001611b5c565b611d576020611d41611d3c5f610ec4565b610ed1565b63b57dbdc690611d4f6100c7565b93849261068f565b82528180611d6760048201610397565b03915afa9081156122c857611d8e91611d87915f9161229a575b50611b88565b6002611ba3565b611dba6020611da4611d9f5f610ec4565b610ed1565b63cfbffe5390611db26100c7565b93849261068f565b82528180611dca60048201610397565b03915afa90811561229557611df191611dea915f91612267575b50611bcf565b6003611bea565b611e1d6020611e07611e025f610ec4565b610ed1565b63ab6e844f90611e156100c7565b93849261068f565b82528180611e2d60048201610397565b03915afa90811561226257611e5491611e4d915f91612234575b50611c16565b6004611c31565b611e806020611e6a611e655f610ec4565b610ed1565b639a7c407790611e786100c7565b93849261068f565b82528180611e9060048201610397565b03915afa90811561222f57611eb791611eb0915f91612201575b50611c5d565b6005611c78565b611ee36020611ecd611ec85f610ec4565b610ed1565b63aa0ddc1690611edb6100c7565b93849261068f565b82528180611ef360048201610397565b03915afa80156121fc57611f10915f916121ce575b506007610b9d565b611f3c6020611f26611f215f610ec4565b610ed1565b636b4aefc690611f346100c7565b93849261068f565b82528180611f4c60048201610397565b03915afa80156121c957611f69915f9161219b575b506008610b9d565b611f956020611f7f611f7a5f610ec4565b610ed1565b6324768d9190611f8d6100c7565b93849261068f565b82528180611fa560048201610397565b03915afa801561219657611fc2915f91612168575b50600b610b9d565b611fee6020611fd8611fd35f610ec4565b610ed1565b636402742790611fe66100c7565b93849261068f565b82528180611ffe60048201610397565b03915afa80156121635761201b915f91612135575b506009610b9d565b612047602061203161202c5f610ec4565b610ed1565b6330125cf59061203f6100c7565b93849261068f565b8252818061205760048201610397565b03915afa801561213057612074915f91612102575b50600a610b9d565b6120a0602061208a6120855f610ec4565b610ed1565b63d3d1b096906120986100c7565b93849261068f565b825281806120b060048201610397565b03915afa80156120fd576120cd915f916120cf575b506006610b9d565b565b6120f0915060203d81116120f6575b6120e88183610666565b810190611b17565b5f6120c5565b503d6120de565b6106c2565b612123915060203d8111612129575b61211b8183610666565b810190611b17565b5f61206c565b503d612111565b6106c2565b612156915060203d811161215c575b61214e8183610666565b810190611b17565b5f612013565b503d612144565b6106c2565b612189915060203d811161218f575b6121818183610666565b810190611b17565b5f611fba565b503d612177565b6106c2565b6121bc915060203d81116121c2575b6121b48183610666565b810190611b17565b5f611f61565b503d6121aa565b6106c2565b6121ef915060203d81116121f5575b6121e78183610666565b810190611b17565b5f611f08565b503d6121dd565b6106c2565b612222915060203d8111612228575b61221a8183610666565b810190611b17565b5f611eaa565b503d612210565b6106c2565b612255915060203d811161225b575b61224d8183610666565b810190611b17565b5f611e47565b503d612243565b6106c2565b612288915060203d811161228e575b6122808183610666565b810190611b17565b5f611de4565b503d612276565b6106c2565b6122bb915060203d81116122c1575b6122b38183610666565b810190611b17565b5f611d81565b503d6122a9565b6106c2565b6122ee915060203d81116122f4575b6122e68183610666565b810190611b17565b5f611d1e565b503d6122dc565b6106c2565b56fea2646970667358221220fd7e7bda3ad7ba1144708a0f7b15a84f31174ab2c78686e5741e1633d44a8da164736f6c634300081800336080604052346200002d5762000014620000ae565b6200001e62000033565b6144c8620000bf82396144c890f35b62000039565b60405190565b5f80fd5b5f1b90565b90620000505f19916200003d565b9181191691161790565b90565b90565b90565b6200007c6200007662000082926200005a565b62000060565b6200005d565b90565b90565b90620000a26200009c620000aa9262000063565b62000085565b825462000042565b9055565b620000bc6033601062000088565b56fe60806040526004361015610018575b361561001657005b005b6100225f35610181565b8063013cf08b1461017c57806307ad4055146101775780630d43aaf21461017257806312065fe01461016d578063379a423c1461016857806341ffe7c4146101635780635be612c71461015e578063604ff4b11461015957806360af454d1461015457806368fd1f511461014f5780638da5cb5b1461014a57806398e527d314610145578063a065974414610140578063abb8c9651461013b578063b90306ad14610136578063c1ce0e9b14610131578063c7f758a81461012c578063c9d27afe14610127578063cbf0b0c014610122578063d3325a2c1461011d578063f3fef3a3146101185763fe0d94c10361000e576110a7565b61107d565b611016565b610ecf565b610e9b565b610e2f565b610d6f565b610d46565b610d12565b610cdd565b610c73565b610c3e565b610c09565b610b4a565b610b17565b610ae2565b610a0f565b6109da565b610972565b610924565b6107b9565b6106ff565b60e01c90565b60405190565b5f80fd5b5f80fd5b5f80fd5b90565b6101a581610199565b036101ac57565b5f80fd5b905035906101bd8261019c565b565b906020828203126101d8576101d5915f016101b0565b90565b610191565b634e487b7160e01b5f52603260045260245ffd5b5490565b5f5260205f2090565b610207816101f1565b82101561022157610219600c916101f5565b910201905f90565b6101dd565b634e487b7160e01b5f52602260045260245ffd5b906001600283049216801561025a575b602083101461025557565b610226565b91607f169161024a565b60209181520190565b5f5260205f2090565b905f92918054906102906102898361023a565b8094610264565b916001811690815f146102e757506001146102ab575b505050565b6102b8919293945061026d565b915f925b8184106102cf57505001905f80806102a6565b600181602092959395548486015201910192906102bc565b92949550505060ff19168252151560200201905f80806102a6565b9061030c91610276565b90565b601f801991011690565b634e487b7160e01b5f52604160045260245ffd5b906103379061030f565b810190811067ffffffffffffffff82111761035157604052565b610319565b9061037661036f92610366610187565b93848092610302565b038361032d565b565b5f1c90565b60018060a01b031690565b61039461039991610378565b61037d565b90565b6103a69054610388565b90565b90565b6103b86103bd91610378565b6103a9565b90565b6103ca90546103ac565b90565b60209181520190565b5f5260205f2090565b905f92918054906103f96103f28361023a565b80946103cd565b916001811690815f146104505750600114610414575b505050565b61042191929394506103d6565b915f925b81841061043857505001905f808061040f565b60018160209295939554848601520191019290610425565b92949550505060ff19168252151560200201905f808061040f565b90610475916103df565b90565b9061049861049192610488610187565b9384809261046b565b038361032d565b565b60ff1690565b6104ac6104b191610378565b61049a565b90565b6104be90546104a0565b90565b6011906104cd826101f1565b81101561056d576104dd916101fe565b506104e95f8201610356565b916104f66001830161039c565b91610503600282016103c0565b9161051060038301610478565b9161051d600482016103c0565b9161052a600583016103c0565b91610537600682016103c0565b91610544600783016104b4565b91610551600882016103c0565b9161056a600b610563600985016104b4565b93016104b4565b90565b5f80fd5b5190565b60209181520190565b5f5b838110610590575050905f910152565b806020918301518185015201610580565b6105c06105c96020936105ce936105b781610571565b93848093610575565b9586910161057e565b61030f565b0190565b60018060a01b031690565b6105e6906105d2565b90565b6105f2906105dd565b9052565b6105ff90610199565b9052565b5190565b60209181520190565b61062f61063860209361063d9361062681610603565b93848093610607565b9586910161057e565b61030f565b0190565b151590565b61064f90610641565b9052565b9896949b9a9997959392906101608a018a81035f8c0152610673916105a1565b9160208a01610681916105e9565b6040890161068e916105f6565b878103606089015261069f91610610565b98608087016106ad916105f6565b60a086016106ba916105f6565b60c085016106c7916105f6565b60e084016106d491610646565b61010083016106e2916105f6565b61012082016106f091610646565b610140016106fd91610646565b565b3461073c5761073861071a6107153660046101bf565b6104c1565b9761072f9b999b979197969296959395610187565b9b8c9b8c610653565b0390f35b61018d565b61074a816105dd565b0361075157565b5f80fd5b9050359061076282610741565b565b61076d81610641565b0361077457565b5f80fd5b9050359061078582610764565b565b91906040838203126107af57806107a36107ac925f8601610755565b93602001610778565b90565b610191565b5f0190565b346107e8576107d26107cc366004610787565b906117cf565b6107da610187565b806107e4816107b4565b0390f35b61018d565b5f9103126107f757565b610191565b60a01c90565b61080e610813916107fc565b61049a565b90565b6108209054610802565b90565b60a81c90565b61083561083a91610823565b61049a565b90565b6108479054610829565b90565b60b01c90565b61085c6108619161084a565b61049a565b90565b61086e9054610850565b90565b60b81c90565b61088361088891610871565b61049a565b90565b6108959054610877565b90565b600d6108a55f820161039c565b916108b15f8301610816565b916108bd5f820161083d565b916108d45f6108cd818501610864565b930161088b565b90565b909594926109229461091161091b926109076080966108fd60a088019c5f8901906105e9565b6020870190610646565b6040850190610646565b6060830190610646565b0190610646565b565b34610958576109343660046107ed565b61095461093f610898565b9161094b959395610187565b958695866108d7565b0390f35b61018d565b9190610970905f602085019401906105f6565b565b346109a2576109823660046107ed565b61099e61098d6117eb565b610995610187565b9182918261095d565b0390f35b61018d565b906020828203126109c0576109bd915f01610755565b90565b610191565b91906109d8905f60208501940190610646565b565b34610a0a57610a066109f56109f03660046109a7565b611805565b6109fd610187565b918291826109c5565b0390f35b61018d565b34610a3d57610a27610a223660046109a7565b611f82565b610a2f610187565b80610a39816107b4565b0390f35b61018d565b5490565b5f5260205f2090565b610a5881610a42565b821015610a7257610a6a600191610a46565b910201905f90565b6101dd565b1c90565b610a8b906008610a909302610a77565b61037d565b90565b90610a9e9154610a7b565b90565b600e610aac81610a42565b821015610ac957610ac691610ac091610a4f565b90610a93565b90565b5f80fd5b9190610ae0905f602085019401906105e9565b565b34610b1257610b0e610afd610af83660046101bf565b610aa1565b610b05610187565b91829182610acd565b0390f35b61018d565b34610b4557610b2f610b2a3660046101bf565b6120ab565b610b37610187565b80610b41816107b4565b0390f35b61018d565b34610b7857610b62610b5d3660046109a7565b6121f7565b610b6a610187565b80610b74816107b4565b0390f35b61018d565b90565b610b94610b8f610b99926105d2565b610b7d565b6105d2565b90565b610ba590610b80565b90565b610bb190610b9c565b90565b90610bbe90610ba8565b5f5260205260405f2090565b610bda906008610bdf9302610a77565b61049a565b90565b90610bed9154610bca565b90565b610c0690610c01600f915f92610bb4565b610be2565b90565b34610c3957610c35610c24610c1f3660046109a7565b610bf0565b610c2c610187565b918291826109c5565b0390f35b61018d565b34610c6e57610c4e3660046107ed565b610c6a610c5961225a565b610c61610187565b91829182610acd565b0390f35b61018d565b34610ca357610c833660046107ed565b610c9f610c8e612270565b610c96610187565b9182918261095d565b0390f35b61018d565b610cb8906008610cbd9302610a77565b6103a9565b90565b90610ccb9154610ca8565b90565b610cda60105f90610cc0565b90565b34610d0d57610ced3660046107ed565b610d09610cf8610cce565b610d00610187565b9182918261095d565b0390f35b61018d565b34610d4157610d2b610d25366004610787565b906126ed565b610d33610187565b80610d3d816107b4565b0390f35b61018d565b610d59610d543660046101bf565b612888565b610d61610187565b80610d6b816107b4565b0390f35b34610d9f57610d7f3660046107ed565b610d9b610d8a612893565b610d92610187565b9182918261095d565b0390f35b61018d565b969492909998979593919961012088018881035f8a0152610dc4916105a1565b9960208801610dd2916105e9565b60408701610ddf916105f6565b60608601610dec916105f6565b60808501610df9916105f6565b60a08401610e06916105f6565b60c08301610e1391610646565b60e08201610e20916105f6565b61010001610e2d91610646565b565b34610e6957610e65610e4a610e453660046101bf565b6128bd565b95610e5c999799959195949294610187565b998a998a610da4565b0390f35b61018d565b9190604083820312610e965780610e8a610e93925f86016101b0565b93602001610778565b90565b610191565b34610eca57610eb4610eae366004610e6e565b90612dfc565b610ebc610187565b80610ec6816107b4565b0390f35b61018d565b34610efd57610ee7610ee23660046109a7565b612e08565b610eef610187565b80610ef9816107b4565b0390f35b61018d565b5f80fd5b5f80fd5b5f80fd5b909182601f83011215610f485781359167ffffffffffffffff8311610f43576020019260018302840111610f3e57565b610f0a565b610f06565b610f02565b909182601f83011215610f875781359167ffffffffffffffff8311610f82576020019260018302840111610f7d57565b610f0a565b610f06565b610f02565b919060a083820312611011575f83013567ffffffffffffffff811161100c5781610fb7918501610f0e565b929093610fc78360208301610755565b92610fd581604084016101b0565b92606083013567ffffffffffffffff811161100757610ff983611004928601610f4d565b9390946080016101b0565b90565b610195565b610195565b610191565b3461104b57611035611029366004610f8c565b959490949391936133fb565b61103d610187565b80611047816107b4565b0390f35b61018d565b9190604083820312611078578061106c611075925f8601610755565b936020016101b0565b90565b610191565b61109161108b366004611050565b906135d5565b611099610187565b806110a3816107b4565b0390f35b346110d5576110bf6110ba3660046101bf565b613a9e565b6110c7610187565b806110d1816107b4565b0390f35b61018d565b60018060a01b031690565b6110f16110f691610378565b6110da565b90565b61110390546110e5565b90565b61110f90610b9c565b90565b60e01b90565b9050519061112582610764565b565b906020828203126111405761113d915f01611118565b90565b610191565b61114d610187565b3d5f823e3d90fd5b5f7f496e76616c696420697353616665000000000000000000000000000000000000910152565b611189600e602092610575565b61119281611155565b0190565b6111ab9060208101905f81830391015261117c565b90565b156111b557565b6111bd610187565b62461bcd60e51b8152806111d360048201611196565b0390fd5b6111e090610b9c565b90565b5f7f66616b652064616f20636f726500000000000000000000000000000000000000910152565b611217600d602092610575565b611220816111e3565b0190565b6112399060208101905f81830391015261120a565b90565b1561124357565b61124b610187565b62461bcd60e51b81528061126160048201611224565b0390fd5b9061129491602061127e61127960026110f9565b611106565b636a276f9d9061128c610187565b958692611112565b825281806112a4600482016107b4565b03915afa92831561131d576112ed936112c4915f916112ef575b506111ae565b6112e86112d0306111d7565b6112e26112dc336105dd565b916105dd565b1461123c565b611636565b565b611310915060203d8111611316575b611308818361032d565b810190611127565b5f6112be565b503d6112fe565b611145565b5f7f6e6f742065786973747300000000000000000000000000000000000000000000910152565b611356600a602092610575565b61135f81611322565b0190565b6113789060208101905f818303910152611349565b90565b1561138257565b61138a610187565b62461bcd60e51b8152806113a060048201611363565b0390fd5b90565b6113bb6113b66113c0926113a4565b610b7d565b610199565b90565b60016113cf9101610199565b90565b90565b6113e96113e46113ee926113d2565b610b7d565b610199565b90565b634e487b7160e01b5f52601160045260245ffd5b61141461141a91939293610199565b92610199565b820391821161142557565b6113f1565b61143961143f91939293610199565b92610199565b820180921161144a57565b6113f1565b1b90565b9190600861147391029161146d60018060a01b038461144f565b9261144f565b9181191691161790565b90565b919061149661149161149e93610ba8565b61147d565b908354611453565b9055565b90565b634e487b7160e01b5f52603160045260245ffd5b5490565b5f5260205f2090565b6114cf816114b9565b8210156114e9576114e16001916114bd565b910201905f90565b6101dd565b5f90565b611504916114fe6114ee565b91611480565b565b61150f816114b9565b801561153057600190039061152d61152783836114c6565b906114f2565b55565b6114a5565b5f1b90565b9061154660ff91611535565b9181191691161790565b61155990610641565b90565b90565b9061157461156f61157b92611550565b61155c565b825461153a565b9055565b5f7f416c726561647920657869737473000000000000000000000000000000000000910152565b6115b3600e602092610575565b6115bc8161157f565b0190565b6115d59060208101905f8183039101526115a6565b90565b156115df57565b6115e7610187565b62461bcd60e51b8152806115fd600482016115c0565b0390fd5b9081549168010000000000000000831015611631578261162991600161162f950181556114c6565b90611480565b565b610319565b905f1461168f5761168c9061166661166161165b611656600f8590610bb4565b6104b4565b15610641565b6115d8565b61167a611673600e6114a2565b8290611601565b611687600191600f610bb4565b61155f565b5b565b6116ab6116a66116a1600f8490610bb4565b6104b4565b61137b565b6116b45f6113a7565b5b806116d16116cb6116c6600e610a42565b610199565b91610199565b10156117b457816116fe6116f86116f36116ed600e8690610a4f565b90610a93565b6105dd565b916105dd565b14611712575b61170d906113c3565b6116b5565b91825b8061174461173e611739611729600e610a42565b61173360016113d5565b90611405565b610199565b91610199565b1015611795576117909061178b611779611773600e61176d8561176760016113d5565b9061142a565b90610a4f565b90610a93565b611785600e8490610a4f565b90611480565b6113c3565b611715565b509161170d906117ad6117a8600e6114a2565b611506565b9050611704565b506117ca906117c55f91600f610bb4565b61155f565b61168d565b906117d991611265565b565b5f90565b6117e890610b9c565b90565b6117f36117db565b506117fd306117df565b3190565b5f90565b61180d611801565b5061184f602061182561182060026110f9565b611106565b6319c06429906118448592611838610187565b95869485938493611112565b835260048301610acd565b03915afa9081156118c1575f91611893575b5090811561186e575b5090565b905061188c611886611880600c61039c565b926105dd565b916105dd565b145f61186a565b6118b4915060203d81116118ba575b6118ac818361032d565b810190611127565b5f611861565b503d6118a2565b611145565b5f7f6f776e2e696e76616c69642e6973536166650000000000000000000000000000910152565b6118fa6012602092610575565b611903816118c6565b0190565b61191c9060208101905f8183039101526118ed565b90565b1561192657565b61192e610187565b62461bcd60e51b81528061194460048201611907565b0390fd5b60018060a01b031690565b61195f61196491610378565b611948565b90565b6119719054611953565b90565b61197d90610b9c565b90565b5f7f6f776d2e66616b652e2064656c65676174650000000000000000000000000000910152565b6119b46012602092610575565b6119bd81611980565b0190565b6119d69060208101905f8183039101526119a7565b90565b156119e057565b6119e8610187565b62461bcd60e51b8152806119fe600482016119c1565b0390fd5b611a2f6020611a19611a1460026110f9565b611106565b636a276f9d90611a27610187565b938492611112565b82528180611a3f600482016107b4565b03915afa8015611b6157611a5a915f91611b33575b5061191f565b611a6c611a676001611967565b611974565b611a7e611a78336105dd565b916105dd565b14908115611a9a575b611a93611a98926119d9565b611e43565b565b611add91506020611ab3611aae60026110f9565b611106565b637df73e2790611ad23392611ac6610187565b96879485938493611112565b835260048301610acd565b03915afa918215611b2e57611a9892611a93915f91611b00575b50925050611a87565b611b21915060203d8111611b27575b611b19818361032d565b810190611127565b5f611af7565b503d611b0f565b611145565b611b54915060203d8111611b5a575b611b4c818361032d565b810190611127565b5f611a54565b503d611b42565b611145565b90505190611b738261019c565b565b90602082820312611b8e57611b8b915f01611b66565b90565b610191565b90611ba6611b9f610187565b928361032d565b565b611bb260a0611b93565b90565b5f90565b5f90565b611bc5611ba8565b9060208080808086611bd5611bb5565b815201611be0611bb9565b815201611beb611bb9565b815201611bf6611bb9565b815201611c01611bb9565b81525050565b611c0f611bbd565b90565b90611c1c90610641565b9052565b90565b611c37611c32611c3c92611c20565b610b7d565b610199565b90565b90565b611c56611c51611c5b92611c3f565b610b7d565b610199565b90565b90611c68906105dd565b9052565b611c7690516105dd565b90565b90611c8a60018060a01b0391611535565b9181191691161790565b90611ca9611ca4611cb092610ba8565b61147d565b8254611c79565b9055565b611cbe9051610641565b90565b60a01b90565b90611cd660ff60a01b91611cc1565b9181191691161790565b90611cf5611cf0611cfc92611550565b61155c565b8254611cc7565b9055565b60a81b90565b90611d1560ff60a81b91611d00565b9181191691161790565b90611d34611d2f611d3b92611550565b61155c565b8254611d06565b9055565b60b01b90565b90611d5460ff60b01b91611d3f565b9181191691161790565b90611d73611d6e611d7a92611550565b61155c565b8254611d45565b9055565b60b81b90565b90611d9360ff60b81b91611d7e565b9181191691161790565b90611db2611dad611db992611550565b61155c565b8254611d84565b9055565b90611e2f60805f611e3594611ddf828201611dd9848801611c6c565b90611c94565b611df7828201611df160208801611cb4565b90611ce0565b611e0f828201611e0960408801611cb4565b90611d1f565b611e27828201611e2160608801611cb4565b90611d5e565b019201611cb4565b90611d9d565b565b90611e4191611dbd565b565b611e85906020611e5b611e5660026110f9565b611106565b631d84be4490611e7a3392611e6e610187565b96879485938493611112565b835260048301610acd565b03915afa918215611f7d57611f1492611f0d915f91611f4f575b5091611ea9611c07565b92611eb8600160208601611c12565b80611ecc611ec660016113d5565b91610199565b14611f3c575b80611ee6611ee06002611c23565b91610199565b14611f29575b611eff611ef96003611c42565b91610199565b14611f16575b5f8301611c5e565b600d611e37565b565b611f24600160808501611c12565b611f05565b611f37600160608601611c12565b611eec565b611f4a600160408601611c12565b611ed2565b611f70915060203d8111611f76575b611f68818361032d565b810190611b75565b5f611e9f565b503d611f5e565b611145565b611f8b90611a02565b565b611fbb906020611fa5611fa060026110f9565b611106565b636a276f9d90611fb3610187565b948592611112565b82528180611fcb600482016107b4565b03915afa9182156120445761201492611feb915f91612016575b506111ae565b61200f611ff7306111d7565b612009612003336105dd565b916105dd565b1461123c565b61209e565b565b612037915060203d811161203d575b61202f818361032d565b810190611127565b5f611fe5565b503d612025565b611145565b906120555f1991611535565b9181191691161790565b61207361206e61207892610199565b610b7d565b610199565b90565b90565b9061209361208e61209a9261205f565b61207b565b8254612049565b9055565b6120a990601061207e565b565b6120b490611f8d565b565b60018060a01b031690565b6120cd6120d291610378565b6120b6565b90565b6120df90546120c1565b90565b6120eb90610b9c565b90565b6121026120fd612107926113a4565b610b7d565b6105d2565b90565b612113906120ee565b90565b5f7f6f776e2e686578626173652e6661696c65640000000000000000000000000000910152565b61214a6012602092610575565b61215381612116565b0190565b61216c9060208101905f81830391015261213d565b90565b1561217657565b61217e610187565b62461bcd60e51b81528061219460048201612157565b0390fd5b6121a190610b80565b90565b6121ad90612198565b90565b6121b990610b80565b90565b6121c5906121b0565b90565b6121d1906121b0565b90565b90565b906121ec6121e76121f3926121c8565b6121d4565b8254611c79565b9055565b61224a612245612250926122356122156122105f6120d5565b6120e2565b61222f6122296122245f61210a565b6105dd565b916105dd565b1461216f565b61224032600c611c94565b6121a4565b6121bc565b5f6121d7565b612258613c39565b565b6122626114ee565b5061226d600c61039c565b90565b6122786117db565b5061228360116101f1565b90565b906122b4602061229e61229960026110f9565b611106565b636a276f9d906122ac610187565b938492611112565b825281806122c4600482016107b4565b03915afa80156123e6576122df915f916123b8575b5061191f565b6122f16122ec6001611967565b611974565b6123036122fd336105dd565b916105dd565b1491821561231f575b61231861231d936119d9565b612407565b565b6123629250602061233861233360026110f9565b611106565b637df73e2790612357339261234b610187565b97889485938493611112565b835260048301610acd565b03915afa9283156123b35761231d93612318915f91612385575b5093505061230c565b6123a6915060203d81116123ac575b61239e818361032d565b810190611127565b5f61237c565b503d612394565b611145565b6123d9915060203d81116123df575b6123d1818361032d565b810190611127565b5f6122d9565b503d6123c7565b611145565b6123f490610199565b5f1981146124025760010190565b6113f1565b905f146126d55761244f602061242561242060026110f9565b611106565b631d84be44906124443392612438610187565b95869485938493611112565b835260048301610acd565b03915afa9081156126d0575f916126a2575b5061246e5f600d01610816565b80612687575b80612662575b61264f575b61248b5f600d01610816565b80612634575b8061260f575b6125fc575b6124a85f600d01610816565b90816125e0575b50806125bb575b6125a8575b6124c45f6113a7565b6124d05f600d0161083d565b61259a575b6124e15f600d01610864565b61258c575b6124f25f600d0161088b565b61257e575b6125035f600d01610816565b9081612562575b508061253d575b61251a575b505b565b61252590600c611c94565b612537612530611c07565b600d611e37565b5f612516565b5061254a5f600d0161039c565b61255c612556836105dd565b916105dd565b14612511565b90506125776125716002611c23565b91610199565b145f61250a565b612587906123eb565b6124f7565b612595906123eb565b6124e6565b6125a3906123eb565b6124d5565b6125b660015f600d01611d9d565b6124bb565b506125c85f600d0161039c565b6125da6125d4836105dd565b916105dd565b146124b6565b90506125f56125ef6003611c42565b91610199565b145f6124af565b61260a60015f600d01611d5e565b61249c565b5061261c5f600d0161039c565b61262e612628846105dd565b916105dd565b14612497565b50806126496126436002611c23565b91610199565b14612491565b61265d60015f600d01611d1f565b61247f565b5061266f5f600d0161039c565b61268161267b846105dd565b916105dd565b1461247a565b508061269c61269660016113d5565b91610199565b14612474565b6126c3915060203d81116126c9575b6126bb818361032d565b810190611b75565b5f612461565b503d6126b1565b611145565b506126e86126e1611c07565b600d611e37565b612518565b906126f791612286565b565b5f7f6f776e2e6e6f6e617574682e44414f0000000000000000000000000000000000910152565b61272d600f602092610575565b612736816126f9565b0190565b61274f9060208101905f818303910152612720565b90565b1561275957565b612761610187565b62461bcd60e51b8152806127776004820161273a565b0390fd5b6127a990602061279361278e60026110f9565b611106565b636a276f9d906127a1610187565b948592611112565b825281806127b9600482016107b4565b03915afa91821561283b5761280b926127d9915f9161280d575b5061191f565b6128066127ee6127e96001611967565b611974565b6128006127fa336105dd565b916105dd565b14612752565b61284c565b565b61282e915060203d8111612834575b612826818361032d565b810190611127565b5f6127d3565b503d61281c565b611145565b61284990610b9c565b90565b5f8080809361286a6128656128608461210a565b6121a4565b612840565b82821561287f575bf11561287a57565b611145565b506108fc612872565b6128919061277b565b565b61289b6117db565b506128a6600e610a42565b90565b606090565b90565b6128ba90610356565b90565b61291c612922916128cc6128a9565b506128d56114ee565b506128de6117db565b506128e76117db565b506128f06117db565b506128f96117db565b50612902611801565b5061290b6117db565b50612914611801565b5060116101fe565b506128ae565b905f8201906129336001840161039c565b92612940600282016103c0565b9261294d600483016103c0565b9261295a600584016103c0565b92612967600682016103c0565b92612974600783016104b4565b926129966129906009612989600887016103c0565b95016104b4565b926128b1565b989796959493929190565b5f7f66616b652064656c656761746500000000000000000000000000000000000000910152565b6129d5600d602092610575565b6129de816129a1565b0190565b6129f79060208101905f8183039101526129c8565b90565b15612a0157565b612a09610187565b62461bcd60e51b815280612a1f600482016129e2565b0390fd5b90612a516020612a3b612a3660026110f9565b611106565b636a276f9d90612a49610187565b938492611112565b82528180612a61600482016107b4565b03915afa8015612b7257612a7c915f91612b44575b506111ae565b612a90612a8b600f3390610bb4565b6104b4565b918215612aab575b612aa4612aa9936129fa565b612cd5565b565b612aee92506020612ac4612abf60026110f9565b611106565b637df73e2790612ae33392612ad7610187565b97889485938493611112565b835260048301610acd565b03915afa928315612b3f57612aa993612aa4915f91612b11575b50935050612a98565b612b32915060203d8111612b38575b612b2a818361032d565b810190611127565b5f612b08565b503d612b20565b611145565b612b65915060203d8111612b6b575b612b5d818361032d565b810190611127565b5f612a76565b503d612b53565b611145565b5f7f566f74696e6720656e6465640000000000000000000000000000000000000000910152565b612bab600c602092610575565b612bb481612b77565b0190565b612bcd9060208101905f818303910152612b9e565b90565b15612bd757565b612bdf610187565b62461bcd60e51b815280612bf560048201612bb8565b0390fd5b5f7f416c726561647920766f74656400000000000000000000000000000000000000910152565b612c2d600d602092610575565b612c3681612bf9565b0190565b612c4f9060208101905f818303910152612c20565b90565b15612c5957565b612c61610187565b62461bcd60e51b815280612c7760048201612c3a565b0390fd5b60ff1690565b612c95612c90612c9a926113a4565b610b7d565b612c7b565b90565b612cb1612cac612cb6926113d2565b610b7d565b612c7b565b90565b612ccd612cc8612cd292612c7b565b610b7d565b610199565b90565b90612d85612cf0612cea612dd29460116101fe565b506128ae565b91612d1f612cfc6142a3565b612d19612d13612d0e600688016103c0565b610199565b91610199565b10612bd0565b612d46612d41612d3b612d36600a87013390610bb4565b6104b4565b15610641565b612c52565b805f14612de857612d7f612d63612d5d6001612c9d565b5b612cb9565b612d796004860191612d74836103c0565b61142a565b9061207e565b15610641565b5f14612dd457612dbd612da1612d9b6001612c9d565b5b612cb9565b612db76005840191612db2836103c0565b61142a565b9061207e565b612dcd600a600192013390610bb4565b61155f565b565b612dbd612da1612de35f612c81565b612d9c565b612d7f612d63612df75f612c81565b612d5e565b90612e0691612a23565b565b612e1190614487565b565b5f7f6f776e2e696e76616c69642e73696e6765720000000000000000000000000000910152565b612e476012602092610575565b612e5081612e13565b0190565b612e699060208101905f818303910152612e3a565b90565b15612e7357565b612e7b610187565b62461bcd60e51b815280612e9160048201612e54565b0390fd5b90612edd9695949392916020612eb3612eae60026110f9565b611106565b637df73e2790612ed23392612ec6610187565b9c8d9485938493611112565b835260048301610acd565b03915afa978815612f3257612f0298612efd915f91612f04575b50612e6c565b612fb9565b565b612f25915060203d8111612f2b575b612f1d818361032d565b810190611127565b5f612ef7565b503d612f13565b611145565b5f7f6f776e2e64656661756c742e73656e6465720000000000000000000000000000910152565b612f6b6012602092610575565b612f7481612f37565b0190565b612f8d9060208101905f818303910152612f5e565b90565b15612f9757565b612f9f610187565b62461bcd60e51b815280612fb560048201612f78565b0390fd5b90612fed969594939291612fe883612fe1612fdb612fd65f61210a565b6105dd565b916105dd565b1415612f90565b613372565b565b90565b5490565b5f5260205f2090565b61300881612ff2565b8210156130225761301a600c91612ff6565b910201905f90565b6101dd565b61303081612ff2565b680100000000000000008110156130545761305091600182018155612fff565b9091565b610319565b5090565b601f602091010490565b9190600861308291029161307c5f198461144f565b9261144f565b9181191691161790565b91906130a261309d6130aa9361205f565b61207b565b908354613067565b9055565b6130c0916130ba6117db565b9161308c565b565b5b8181106130ce575050565b806130db5f6001936130ae565b016130c3565b9190601f81116130f1575b505050565b6130fd6131229361026d565b9060206131098461305d565b8301931061312a575b61311b9061305d565b01906130c2565b5f80806130ec565b915061311b81929050613112565b90613148905f1990600802610a77565b191690565b8161315791613138565b906002021790565b9161316a9082613059565b9067ffffffffffffffff82116132295761318e82613188855461023a565b856130e1565b5f90601f83116001146131c1579180916131b0935f926131b5575b505061314d565b90555b565b90915001355f806131a9565b601f198316916131d08561026d565b925f5b818110613211575091600293918560019694106131f7575b505050020190556131b3565b613207910135601f841690613138565b90555f80806131eb565b919360206001819287870135815501950192016131d3565b610319565b90613239929161315f565b565b5090565b9190601f811161324f575b505050565b61325b613280936103d6565b9060206132678461305d565b83019310613288575b6132799061305d565b01906130c2565b5f808061324a565b915061327981929050613270565b916132a1908261323b565b9067ffffffffffffffff8211613360576132c5826132bf855461023a565b8561323f565b5f90601f83116001146132f8579180916132e7935f926132ec575b505061314d565b90555b565b90915001355f806132e0565b601f19831691613307856103d6565b925f5b8181106133485750916002939185600196941061332e575b505050020190556132ea565b61333e910135601f841690613138565b90555f8080613322565b9193602060018192878701358155019501920161330a565b610319565b906133709291613296565b565b946006946133c66133f2956133bd6133f99a966133b45f9b6133cf986133a96133a361339e6011612fef565b613027565b506128ae565b9d8e9291920161322e565b60018b01611c94565b6002890161207e565b60038701613365565b6133e56133dc60106103c0565b6008860161207e565b6133ed6142a3565b61142a565b910161207e565b565b9061340a969594939291612e95565b565b9061343b916134368161342f6134296134245f61210a565b6105dd565b916105dd565b1415612f90565b61343d565b565b9061346c91602061345661345160026110f9565b611106565b636a276f9d90613464610187565b958692611112565b8252818061347c600482016107b4565b03915afa9283156134fe576134ce9361349c915f916134d0575b5061191f565b6134c96134b16134ac6001611967565b611974565b6134c36134bd336105dd565b916105dd565b14612752565b613585565b565b6134f1915060203d81116134f7575b6134e9818361032d565b810190611127565b5f613496565b503d6134df565b611145565b5f7f6f776e2e696e76616c69642e616d6f756e740000000000000000000000000000910152565b6135376012602092610575565b61354081613503565b0190565b6135599060208101905f81830391015261352a565b90565b1561356357565b61356b610187565b62461bcd60e51b81528061358160048201613544565b0390fd5b5f8080936135b76135b283956135ad846135a76135a1886113a7565b91610199565b1161355c565b6121a4565b612840565b8282156135cc575bf1156135c757565b611145565b506108fc6135bf565b906135df9161340c565b565b6136239060206135f96135f460026110f9565b611106565b637df73e2790613618339261360c610187565b96879485938493611112565b835260048301610acd565b03915afa9182156136785761364892613643915f9161364a575b50612e6c565b61398c565b565b61366b915060203d8111613671575b613663818361032d565b810190611127565b5f61363d565b503d613659565b611145565b5f7f5374696c6c206163746976650000000000000000000000000000000000000000910152565b6136b1600c602092610575565b6136ba8161367d565b0190565b6136d39060208101905f8183039101526136a4565b90565b156136dd57565b6136e5610187565b62461bcd60e51b8152806136fb600482016136be565b0390fd5b5f7f416c726561647920657865637574656400000000000000000000000000000000910152565b6137336010602092610575565b61373c816136ff565b0190565b6137559060208101905f818303910152613726565b90565b1561375f57565b613767610187565b62461bcd60e51b81528061377d60048201613740565b0390fd5b61379061379691939293610199565b92610199565b916137a2838202610199565b9281840414901517156137b157565b6113f1565b90565b6137cd6137c86137d2926137b6565b610b7d565b610199565b90565b634e487b7160e01b5f52601260045260245ffd5b6137f56137fb91610199565b91610199565b908115613806570490565b6137d5565b905090565b905f929180549061382a6138238361023a565b809461380b565b916001811690815f1461387c5750600114613845575b505050565b61385291929394506103d6565b5f905b83821061386857505001905f8080613840565b600181602092548486015201910190613855565b92949550505060ff191682528015150201905f8080613840565b61389f91613810565b90565b67ffffffffffffffff81116138c0576138bc60209161030f565b0190565b610319565b906138d76138d2836138a2565b611b93565b918252565b606090565b3d5f146138fc576138f13d6138c5565b903d5f602084013e5b565b6139046138dc565b906138fa565b5f7f457865637574696f6e206661696c656400000000000000000000000000000000910152565b61393e6010602092610575565b6139478161390a565b0190565b6139609060208101905f818303910152613931565b90565b1561396a57565b613972610187565b62461bcd60e51b8152806139886004820161394b565b0390fd5b5f806139a561399f613a9c9460116101fe565b506128ae565b6139d36139b06142a3565b6139cd6139c76139c2600686016103c0565b610199565b91610199565b116136d6565b6139f06139eb6139e5600784016104b4565b15610641565b613758565b613a4b6139ff600483016103c0565b613a40613a3a613a35613a25613a17600888016103c0565b613a1f612893565b90613781565b613a2f60646137b9565b906137e9565b610199565b91610199565b10156009830161155f565b613a5960016007830161155f565b613a8a613a686001830161039c565b916003613a77600283016103c0565b9101613a81610187565b92839182613896565b03925af1613a966138e1565b50613963565b565b613aa7906135e1565b565b90505190613ab682610741565b565b90602082820312613ad157613ace915f01613aa9565b90565b610191565b613adf90610b80565b90565b613aeb90613ad6565b90565b613af790613ad6565b90565b90565b90613b12613b0d613b1992613aee565b613afa565b8254611c79565b9055565b613b2690610b80565b90565b613b3290613b1d565b90565b613b3e90613b1d565b90565b90565b90613b59613b54613b6092613b35565b613b41565b8254611c79565b9055565b613b6d90610b80565b90565b613b7990613b64565b90565b613b8590613b64565b90565b90565b90613ba0613b9b613ba792613b7c565b613b88565b8254611c79565b9055565b613bb490610b80565b90565b613bc090613bab565b90565b613bcc90613bab565b90565b90565b90613be7613be2613bee92613bc3565b613bcf565b8254611c79565b9055565b613bfb90610b80565b90565b613c0790613bf2565b90565b613c1390613bf2565b90565b90565b90613c2e613c29613c3592613c0a565b613c16565b8254611c79565b9055565b613c4a613c455f6120d5565b6120e2565b613c64613c5e613c595f61210a565b6105dd565b916105dd565b146142a157613c956020613c7f613c7a5f6120d5565b6120e2565b634162169f90613c8d610187565b938492611112565b82528180613ca5600482016107b4565b03915afa90811561429c57613ccc91613cc5915f9161426e575b50613ae2565b6001613afd565b613cf86020613ce2613cdd5f6120d5565b6120e2565b63b57dbdc690613cf0610187565b938492611112565b82528180613d08600482016107b4565b03915afa90811561426957613d2f91613d28915f9161423b575b50613b29565b6002613b44565b613d5b6020613d45613d405f6120d5565b6120e2565b63cfbffe5390613d53610187565b938492611112565b82528180613d6b600482016107b4565b03915afa90811561423657613d9291613d8b915f91614208575b50613b70565b6003613b8b565b613dbe6020613da8613da35f6120d5565b6120e2565b63ab6e844f90613db6610187565b938492611112565b82528180613dce600482016107b4565b03915afa90811561420357613df591613dee915f916141d5575b50613bb7565b6004613bd2565b613e216020613e0b613e065f6120d5565b6120e2565b639a7c407790613e19610187565b938492611112565b82528180613e31600482016107b4565b03915afa9081156141d057613e5891613e51915f916141a2575b50613bfe565b6005613c19565b613e846020613e6e613e695f6120d5565b6120e2565b63aa0ddc1690613e7c610187565b938492611112565b82528180613e94600482016107b4565b03915afa801561419d57613eb1915f9161416f575b506007611c94565b613edd6020613ec7613ec25f6120d5565b6120e2565b636b4aefc690613ed5610187565b938492611112565b82528180613eed600482016107b4565b03915afa801561416a57613f0a915f9161413c575b506008611c94565b613f366020613f20613f1b5f6120d5565b6120e2565b6324768d9190613f2e610187565b938492611112565b82528180613f46600482016107b4565b03915afa801561413757613f63915f91614109575b50600b611c94565b613f8f6020613f79613f745f6120d5565b6120e2565b636402742790613f87610187565b938492611112565b82528180613f9f600482016107b4565b03915afa801561410457613fbc915f916140d6575b506009611c94565b613fe86020613fd2613fcd5f6120d5565b6120e2565b6330125cf590613fe0610187565b938492611112565b82528180613ff8600482016107b4565b03915afa80156140d157614015915f916140a3575b50600a611c94565b614041602061402b6140265f6120d5565b6120e2565b63d3d1b09690614039610187565b938492611112565b82528180614051600482016107b4565b03915afa801561409e5761406e915f91614070575b506006611c94565b565b614091915060203d8111614097575b614089818361032d565b810190613ab8565b5f614066565b503d61407f565b611145565b6140c4915060203d81116140ca575b6140bc818361032d565b810190613ab8565b5f61400d565b503d6140b2565b611145565b6140f7915060203d81116140fd575b6140ef818361032d565b810190613ab8565b5f613fb4565b503d6140e5565b611145565b61412a915060203d8111614130575b614122818361032d565b810190613ab8565b5f613f5b565b503d614118565b611145565b61415d915060203d8111614163575b614155818361032d565b810190613ab8565b5f613f02565b503d61414b565b611145565b614190915060203d8111614196575b614188818361032d565b810190613ab8565b5f613ea9565b503d61417e565b611145565b6141c3915060203d81116141c9575b6141bb818361032d565b810190613ab8565b5f613e4b565b503d6141b1565b611145565b6141f6915060203d81116141fc575b6141ee818361032d565b810190613ab8565b5f613de8565b503d6141e4565b611145565b614229915060203d811161422f575b614221818361032d565b810190613ab8565b5f613d85565b503d614217565b611145565b61425c915060203d8111614262575b614254818361032d565b810190613ab8565b5f613d22565b503d61424a565b611145565b61428f915060203d8111614295575b614287818361032d565b810190613ab8565b5f613cbf565b503d61427d565b611145565b565b6142ab6117db565b506142d960206142c36142be60026110f9565b611106565b63262a9dff906142d1610187565b938492611112565b825281806142e9600482016107b4565b03915afa90811561432d575f916142ff575b5090565b614320915060203d8111614326575b614318818361032d565b810190611b75565b5f6142fb565b503d61430e565b611145565b50614360602061434a61434560026110f9565b611106565b636a276f9d90614358610187565b938492611112565b82528180614370600482016107b4565b03915afa80156144825761438b915f91614454575b5061191f565b6143cc60206143a261439d60026110f9565b611106565b6319c06429906143c133926143b5610187565b95869485938493611112565b835260048301610acd565b03915afa90811561444f575f91614421575b5080156143f1575b6143ef90612752565b565b506143ef6144076144026001611967565b611974565b614419614413336105dd565b916105dd565b1490506143e6565b614442915060203d8111614448575b61443a818361032d565b810190611127565b5f6143de565b503d614430565b611145565b614475915060203d811161447b575b61446d818361032d565b810190611127565b5f614385565b503d614463565b611145565b61449090614332565b56fea264697066735822122014f641bf272d6f93b67bf1754994a5300bc0d5552afe7b2a964b745eb66595f564736f6c634300081800336080604052346200002d576200001462000442565b6200001e62000033565b61506362000841823961506390f35b62000039565b60405190565b5f80fd5b601f801991011690565b634e487b7160e01b5f52604160045260245ffd5b9062000067906200003d565b810190811060018060401b038211176200008057604052565b62000047565b906200009d6200009562000033565b92836200005b565b565b620000ab606062000086565b90565b5f90565b5f90565b620000c06200009f565b906020808084620000d0620000ae565b815201620000dd620000b2565b815201620000ea620000b2565b81525050565b620000fa620000b6565b90565b151590565b906200010e90620000fd565b9052565b90565b90565b90565b620001346200012e6200013a9262000112565b62000118565b62000115565b90565b90620001499062000115565b9052565b60018060a01b031690565b620001716200016b62000177926200014d565b62000118565b6200014d565b90565b620001859062000158565b90565b62000193906200017a565b90565b90620001a29062000188565b5f5260205260405f2090565b620001ba9051620000fd565b90565b5f1b90565b90620001d060ff91620001bd565b9181191691161790565b620001e590620000fd565b90565b90565b9062000205620001ff6200020d92620001da565b620001e8565b8254620001c2565b9055565b6200021d905162000115565b90565b906200022e5f1991620001bd565b9181191691161790565b620002516200024b620002579262000115565b62000118565b62000115565b90565b90565b9062000277620002716200027f9262000238565b6200025a565b825462000220565b9055565b90620002d260406002620002d994620002ac5f8201620002a55f8801620001ae565b90620001eb565b620002c960018201620002c26020880162000211565b906200025d565b01920162000211565b906200025d565b565b90620002e79162000283565b565b90565b5f5260205f2090565b634e487b7160e01b5f52603260045260245ffd5b5490565b620003188162000309565b82101562000335576200032d600191620002ec565b910201905f90565b620002f5565b1b90565b91906008620003639102916200035c60018060a01b03846200033b565b926200033b565b9181191691161790565b90565b91906200038b62000385620003949362000188565b6200036d565b9083546200033f565b9055565b9081549168010000000000000000831015620003cd5782620003c4916001620003cb950181556200030d565b9062000370565b565b62000047565b90565b620003ef620003e9620003f592620003d3565b62000118565b62000115565b90565b90565b620004146200040e6200041a92620003f8565b62000118565b62000115565b90565b90565b62000439620004336200043f926200041d565b62000118565b62000115565b90565b620004a862000450620000f0565b6200045f60015f830162000102565b620004806200047667a688906bd8b000006200011b565b602083016200013d565b620004a260107355464e2df31e770145c6085a5e3874b3bcc5535b9062000196565b620002db565b620004d4620004b8600f620002e9565b7355464e2df31e770145c6085a5e3874b3bcc5535b9062000398565b6200053a620004e2620000f0565b620004f160015f830162000102565b6200051262000508677ce66c50e2840000620003d6565b602083016200013d565b62000534601073761d464d59fc4e5472b2ccfbf077cde7f683121d9062000196565b620002db565b620005666200054a600f620002e9565b73761d464d59fc4e5472b2ccfbf077cde7f683121d9062000398565b620005cc62000574620000f0565b6200058360015f830162000102565b620005a46200059a671bc16d674ec80000620003fb565b602083016200013d565b620005c66010737ab9df72fe514f374aa2e1153c0d04621794ab8f9062000196565b620002db565b620005f8620005dc600f620002e9565b737ab9df72fe514f374aa2e1153c0d04621794ab8f9062000398565b6200065e62000606620000f0565b6200061560015f830162000102565b620006366200062c67d02ab486cedc000062000420565b602083016200013d565b620006586010732f1614f6190bd3bd5731a8b6b37dae79aad84c159062000196565b620002db565b6200068a6200066e600f620002e9565b732f1614f6190bd3bd5731a8b6b37dae79aad84c159062000398565b620006ef62000698620000f0565b620006a760015f830162000102565b620006c8620006be67d02ab486cedc000062000420565b602083016200013d565b620006e960107289188449f0d4119715c9a10ea8955fb26ee3089062000196565b620002db565b6200071a620006ff600f620002e9565b7289188449f0d4119715c9a10ea8955fb26ee3089062000398565b6200078062000728620000f0565b6200073760015f830162000102565b620007586200074e671bc16d674ec80000620003fb565b602083016200013d565b6200077a601073dda88b1c86762f7b698f2b458f0ee4c6e92329ec9062000196565b620002db565b620007ac62000790600f620002e9565b73dda88b1c86762f7b698f2b458f0ee4c6e92329ec9062000398565b62000812620007ba620000f0565b620007c960015f830162000102565b620007ea620007e067a688906bd8b000006200011b565b602083016200013d565b6200080c601073610fdc323bf441e94d389ac0b33fd3eff3ea3bad9062000196565b620002db565b6200083e62000822600f620002e9565b73610fdc323bf441e94d389ac0b33fd3eff3ea3bad9062000398565b56fe60806040526004361015610018575b361561001657005b005b6100225f35610170565b806213eb4b1461016b5780630a1a0925146101665780630d43aaf21461016157806312065fe01461015c5780631c53c280146101575780632172b2d2146101525780632314c58e1461014d578063379a423c1461014857806341ffe7c4146101435780635edc4a891461013e57806360af454d1461013957806361ea7208146101345780638d2c50c31461012f5780638da5cb5b1461012a57806391bbb2c314610125578063abb8c96514610120578063b7fec78c1461011b578063b90306ad14610116578063d4dfd45614610111578063f31865cd1461010c5763f3fef3a30361000e57610ded565b610d8c565b610d57565b610cd9565b610ca2565b610b30565b610aac565b61095f565b61092c565b6107c7565b610794565b61076b565b610738565b610703565b6106da565b6106a2565b610577565b61044d565b6103ef565b610241565b610207565b60e01c90565b60405190565b5f80fd5b5f80fd5b5f80fd5b60018060a01b031690565b61019c90610188565b90565b6101a881610193565b036101af57565b5f80fd5b905035906101c08261019f565b565b906020828203126101db576101d8915f016101b3565b90565b610180565b151590565b6101ee906101e0565b9052565b9190610205905f602085019401906101e5565b565b346102375761023361022261021d3660046101c2565b610e1b565b61022a610176565b918291826101f2565b0390f35b61017c565b5f0190565b3461026f576102596102543660046101c2565b6110ec565b610261610176565b8061026b8161023c565b0390f35b61017c565b5f91031261027e57565b610180565b5f1c90565b60018060a01b031690565b61029f6102a491610283565b610288565b90565b6102b19054610293565b90565b60a01c90565b60ff1690565b6102cc6102d1916102b4565b6102ba565b90565b6102de90546102c0565b90565b60a81c90565b6102f36102f8916102e1565b6102ba565b90565b61030590546102e7565b90565b60b01c90565b61031a61031f91610308565b6102ba565b90565b61032c905461030e565b90565b60b81c90565b6103416103469161032f565b6102ba565b90565b6103539054610335565b90565b600d6103635f82016102a7565b9161036f5f83016102d4565b9161037b5f82016102fb565b916103925f61038b818501610322565b9301610349565b90565b61039e90610193565b9052565b909594926103ed946103dc6103e6926103d26080966103c860a088019c5f890190610395565b60208701906101e5565b60408501906101e5565b60608301906101e5565b01906101e5565b565b34610423576103ff366004610274565b61041f61040a610356565b91610416959395610176565b958695866103a2565b0390f35b61017c565b90565b61043490610428565b9052565b919061044b905f6020850194019061042b565b565b3461047d5761045d366004610274565b610479610468611514565b610470610176565b91829182610438565b0390f35b61017c565b61048b81610428565b0361049257565b5f80fd5b905035906104a382610482565b565b906020828203126104be576104bb915f01610496565b90565b610180565b634e487b7160e01b5f52603260045260245ffd5b5490565b5f5260205f2090565b6104ed816104d7565b821015610507576104ff6001916104db565b910201905f90565b6104c3565b1c90565b610520906008610525930261050c565b610288565b90565b906105339154610510565b90565b600f610541816104d7565b82101561055e5761055b91610555916104e4565b90610528565b90565b5f80fd5b9190610575905f60208501940190610395565b565b346105a7576105a361059261058d3660046104a5565b610536565b61059a610176565b91829182610562565b0390f35b61017c565b90565b6105c36105be6105c892610188565b6105ac565b610188565b90565b6105d4906105af565b90565b6105e0906105cb565b90565b906105ed906105d7565b5f5260205260405f2090565b61060561060a91610283565b6102ba565b90565b61061790546105f9565b90565b90565b61062961062e91610283565b61061a565b90565b61063b905461061d565b90565b6106499060106105e3565b6106545f820161060d565b9161066d600261066660018501610631565b9301610631565b90565b6040906106996106a0949695939661068f60608401985f8501906101e5565b602083019061042b565b019061042b565b565b346106d5576106d16106bd6106b83660046101c2565b61063e565b6106c8939193610176565b93849384610670565b0390f35b61017c565b6106ed6106e83660046101c2565b611978565b6106f5610176565b806106ff8161023c565b0390f35b346107335761072f61071e6107193660046101c2565b61206e565b610726610176565b918291826101f2565b0390f35b61017c565b346107665761075061074b3660046101c2565b6127bf565b610758610176565b806107628161023c565b0390f35b61017c565b61077e6107793660046101c2565b612a08565b610786610176565b806107908161023c565b0390f35b346107c2576107ac6107a73660046101c2565b612ea0565b6107b4610176565b806107be8161023c565b0390f35b61017c565b346107f7576107d7366004610274565b6107f36107e2612f03565b6107ea610176565b91829182610438565b0390f35b61017c565b5f80fd5b601f801991011690565b634e487b7160e01b5f52604160045260245ffd5b9061082890610800565b810190811067ffffffffffffffff82111761084257604052565b61080a565b9061085a610853610176565b928361081e565b565b67ffffffffffffffff81116108745760208091020190565b61080a565b5f80fd5b9092919261089261088d8261085c565b610847565b93818552602080860192028301928184116108cf57915b8383106108b65750505050565b602080916108c484866101b3565b8152019201916108a9565b610879565b9080601f830112156108f2578160206108ef9335910161087d565b90565b6107fc565b90602082820312610927575f82013567ffffffffffffffff81116109225761091f92016108d4565b90565b610184565b610180565b3461095a5761094461093f3660046108f7565b6132d0565b61094c610176565b806109568161023c565b0390f35b61017c565b3461098f5761096f366004610274565b61098b61097a6132df565b610982610176565b91829182610562565b0390f35b61017c565b67ffffffffffffffff81116109ac5760208091020190565b61080a565b909291926109c66109c182610994565b610847565b9381855260208086019202830192818411610a0357915b8383106109ea5750505050565b602080916109f88486610496565b8152019201916109dd565b610879565b9080601f83011215610a2657816020610a23933591016109b1565b90565b6107fc565b91606083830312610aa7575f83013567ffffffffffffffff8111610aa25782610a559185016108d4565b92602081013567ffffffffffffffff8111610a9d5783610a76918301610a08565b92604082013567ffffffffffffffff8111610a9857610a959201610a08565b90565b610184565b610184565b610184565b610180565b34610adb57610ac5610abf366004610a2b565b9161374d565b610acd610176565b80610ad78161023c565b0390f35b61017c565b610ae9816101e0565b03610af057565b5f80fd5b90503590610b0182610ae0565b565b9190604083820312610b2b5780610b1f610b28925f86016101b3565b93602001610af4565b90565b610180565b34610b5f57610b49610b43366004610b03565b90613ba5565b610b51610176565b80610b5b8161023c565b0390f35b61017c565b67ffffffffffffffff8111610b7c5760208091020190565b61080a565b90929192610b96610b9182610b64565b610847565b9381855260208086019202830192818411610bd357915b838310610bba5750505050565b60208091610bc88486610af4565b815201920191610bad565b610879565b9080601f83011215610bf657816020610bf393359101610b81565b90565b6107fc565b90608082820312610c9d575f82013567ffffffffffffffff8111610c985781610c259184016108d4565b92602083013567ffffffffffffffff8111610c935782610c46918501610a08565b92604081013567ffffffffffffffff8111610c8e5783610c67918301610a08565b92606082013567ffffffffffffffff8111610c8957610c869201610bd8565b90565b610184565b610184565b610184565b610184565b610180565b34610cd457610cbe610cb5366004610bfb565b92919091613ec3565b610cc6610176565b80610cd08161023c565b0390f35b61017c565b610cec610ce73660046104a5565b614054565b610cf4610176565b80610cfe8161023c565b0390f35b90610d0c906105d7565b5f5260205260405f2090565b610d28906008610d2d930261050c565b6102ba565b90565b90610d3b9154610d18565b90565b610d5490610d4f600e915f92610d02565b610d30565b90565b34610d8757610d83610d72610d6d3660046101c2565b610d3e565b610d7a610176565b918291826101f2565b0390f35b61017c565b34610dbb57610da5610d9f366004610a2b565b91614310565b610dad610176565b80610db78161023c565b0390f35b61017c565b9190604083820312610de85780610ddc610de5925f86016101b3565b93602001610496565b90565b610180565b610e01610dfb366004610dc0565b90614568565b610e09610176565b80610e138161023c565b0390f35b5f90565b5f610e33610e3992610e2b610e17565b5060106105e3565b0161060d565b90565b60209181520190565b5f7f70726d646174612e6e6f742e6578697374000000000000000000000000000000910152565b610e796011602092610e3c565b610e8281610e45565b0190565b610e9b9060208101905f818303910152610e6c565b90565b15610ea557565b610ead610176565b62461bcd60e51b815280610ec360048201610e86565b0390fd5b60018060a01b031690565b610ede610ee391610283565b610ec7565b90565b610ef09054610ed2565b90565b610efc906105cb565b90565b5f80fd5b60e01b90565b90505190610f168261019f565b565b90602082820312610f3157610f2e915f01610f09565b90565b610180565b610f3e610176565b3d5f823e3d90fd5b67ffffffffffffffff8111610f6457610f60602091610800565b0190565b61080a565b90610f7b610f7683610f46565b610847565b918252565b5f7f55736572546f496e737428616464726573732900000000000000000000000000910152565b610fb16013610f69565b90610fbe60208301610f80565b565b610fc8610fa7565b90565b610fd4906105af565b90565b610fe090610fcb565b90565b610fec906105cb565b90565b90505190610ffc82610482565b565b9060208282031261101757611014915f01610fef565b90565b610180565b5f90565b90565b61103761103261103c92611020565b6105ac565b610428565b90565b634e487b7160e01b5f52601160045260245ffd5b61105c90610428565b5f19811461106a5760010190565b61103f565b611078906105af565b90565b6110849061106f565b90565b611090906105cb565b90565b6110a26110a891939293610428565b92610428565b82018092116110b357565b61103f565b6110c76110cd91939293610428565b92610428565b82039182116110d857565b61103f565b5f9103126110e757565b610180565b906110fe6110f983610e1b565b610e9e565b61112a602061111461110f5f610ee6565b610ef3565b63447bf0e290611122610176565b938492610f03565b8252818061113a6004820161023c565b03915afa80156115035761116f61118c91611191935f916114d5575b5061117e86611163610176565b93849160208301610562565b6020820181038252038361081e565b611186610fc0565b906145e4565b610fd7565b6111b5602061119f83610fe3565b639659867e906111ad610176565b938492610f03565b825281806111c56004820161023c565b03915afa9081156114d0575f916114a2575b50916111e161101c565b936111ec6001611023565b945b856112016111fb87610428565b91610428565b116113205761123e602061121486610fe3565b636350b2c2906112338a92611227610176565b95869485938493610f03565b835260048301610438565b03915afa90811561131b5761126861126361127e936020935f916112ee575b5061107b565b611087565b63d92f24ae90611276610176565b938492610f03565b8252818061128e6004820161023c565b03915afa80156112e9576112b3926112ad925f926112b9575b50611093565b95611053565b946111ee565b6112db91925060203d81116112e2575b6112d3818361081e565b810190610ffe565b905f6112a7565b503d6112c9565b610f36565b61130e9150843d8111611314575b611306818361081e565b810190610f18565b5f61125d565b503d6112fc565b610f36565b92919450925061134a602061133483610fe3565b6375b4d78c90611342610176565b938492610f03565b8252818061135a6004820161023c565b03915afa90811561149d576113b19161137d915f9161146f575b50938490611093565b936113ab60026113a561139d6001611397601087906105e3565b01610631565b9360106105e3565b01610631565b90611093565b806113c46113be86610428565b91610428565b116113d0575b50505050565b6113ec6113df6113f293610fe3565b94630b98f97594926110b8565b90611093565b823b1561146a57611422926114175f809461140b610176565b96879586948593610f03565b835260048301610438565b03925af1801561146557611439575b8080806113ca565b611458905f3d811161145e575b611450818361081e565b8101906110dd565b5f611431565b503d611446565b610f36565b610eff565b611490915060203d8111611496575b611488818361081e565b810190610ffe565b5f611374565b503d61147e565b610f36565b6114c3915060203d81116114c9575b6114bb818361081e565b810190610ffe565b5f6111d7565b503d6114b1565b610f36565b6114f6915060203d81116114fc575b6114ee818361081e565b810190610f18565b5f611156565b503d6114e4565b610f36565b611511906105cb565b90565b61151c61101c565b5061152630611508565b3190565b5f7f6861734163746976617465642861646472657373290000000000000000000000910152565b61155b6015610f69565b906115686020830161152a565b565b611572611551565b90565b5f7f666f7267652e616c72656164792e616374697661746564000000000000000000910152565b6115a96017602092610e3c565b6115b281611575565b0190565b6115cb9060208101905f81830391015261159c565b90565b156115d557565b6115dd610176565b62461bcd60e51b8152806115f3600482016115b6565b0390fd5b5f7f70726d646174612e616c72656164792e61637469766174656400000000000000910152565b61162b6019602092610e3c565b611634816115f7565b0190565b61164d9060208101905f81830391015261161e565b90565b1561165757565b61165f610176565b62461bcd60e51b81528061167560048201611638565b0390fd5b5f7f70726d646174612e6e6f742e6578697473000000000000000000000000000000910152565b6116ad6011602092610e3c565b6116b681611679565b0190565b6116cf9060208101905f8183039101526116a0565b90565b60018060a01b031690565b6116e96116ee91610283565b6116d2565b90565b6116fb90546116dd565b90565b611707906105cb565b90565b611713906105af565b90565b61171f9061170a565b90565b61172b906105cb565b90565b90565b61174561174061174a9261172e565b6105ac565b610188565b90565b61175690611731565b90565b5f7f70726d646174612e696e76616c69642e6f6c646e657374656400000000000000910152565b61178d6019602092610e3c565b61179681611759565b0190565b6117af9060208101905f818303910152611780565b90565b90565b6117c96117c46117ce926117b2565b6105ac565b610428565b90565b634e487b7160e01b5f52601260045260245ffd5b6117f16117f791610428565b91610428565b908115611802570690565b6117d1565b5f0b90565b61181581611807565b0361181c57565b5f80fd5b9050519061182d8261180c565b565b9060208282031261184857611845915f01611820565b90565b610180565b61185690611023565b9052565b61188f6118969461188560609498979561187b608086019a5f870190610395565b602085019061042b565b604083019061184d565b019061042b565b565b6118ac6118a76118b19261172e565b6105ac565b610428565b90565b6118bd906105af565b90565b6118c9906118b4565b90565b6118d5906105cb565b90565b6118e1906105af565b90565b6118ed906118d8565b90565b6118f9906105cb565b90565b60409061192561192c949695939661191b60608401985f850190610395565b6020830190610395565b019061042b565b565b5f1b90565b9061193f60ff9161192e565b9181191691161790565b611952906101e0565b90565b90565b9061196d61196861197492611949565b611955565b8254611933565b9055565b6119a4602061198e6119895f610ee6565b610ef3565b63e7531fc09061199c610176565b938492610f03565b825281806119b46004820161023c565b03915afa90811561200457611a0a6119ed611a1593611a10935f91611fd6575b506119fc866119e1610176565b93849160208301610562565b6020820181038252038361081e565b611a0461156a565b9061465a565b156101e0565b6115ce565b611a3a611a35611a2f611a2a600e8590610d02565b61060d565b156101e0565b611650565b611a59611a535f611a4d601085906105e3565b0161060d565b156101e0565b611fb457611a8a6020611a74611a6f60036116f1565b6116fe565b63b252fbe190611a82610176565b938492610f03565b82528180611a9a6004820161023c565b03915afa908115611faf575f91611f81575b50611ac0611aba3492610428565b91610428565b1015611d02575b34611ada611ad45f611898565b91610428565b11611c4d575b611b0c6020611af6611af15f610ee6565b610ef3565b639623997590611b04610176565b938492610f03565b82528180611b1c6004820161023c565b03915afa908115611c4857611b4191611b3c915f91611c1a575b506118e4565b6118f0565b9063ece318c981611b52600c6102a7565b93611b8a611b6d6001611b67601088906105e3565b01610631565b611b846002611b7e601089906105e3565b01610631565b90611093565b92813b15611c15575f611bb091611bbb8296611ba4610176565b998a9788968795610f03565b8552600485016118fc565b03925af1918215611c1057611be292611be4575b50611bdd600191600e610d02565b611958565b565b611c03905f3d8111611c09575b611bfb818361081e565b8101906110dd565b5f611bcf565b503d611bf1565b610f36565b610eff565b611c3b915060203d8111611c41575b611c33818361081e565b810190610f18565b5f611b36565b503d611c29565b610f36565b611c796020611c63611c5e5f610ee6565b610ef3565b63c5a90db190611c71610176565b938492610f03565b82528180611c896004820161023c565b03915afa908115611cfd575f80611cb2611cad829583958491611ccf575b506118c0565b6118cc565b3490828215611cc6575bf1611ae057610f36565b506108fc611cbc565b611cf0915060203d8111611cf6575b611ce8818361081e565b810190610f18565b5f611ca7565b503d611cde565b610f36565b611d2e6020611d18611d135f610ee6565b610ef3565b63447aa30490611d26610176565b938492610f03565b82528180611d3e6004820161023c565b03915afa908115611f7c57611d68611d63611d92936020935f91611f4f575b50611716565b611722565b6345145fd790611d878592611d7b610176565b95869485938493610f03565b835260048301610562565b03915afa908115611f4a575f91611f1c575b5080611dc0611dba611db55f61174d565b610193565b91610193565b14611efa57611dd1611dd691610fd7565b610fe3565b611e0863c107930a916020611df2611ded5f610ee6565b610ef3565b63a5b277f290611e00610176565b948592610f03565b82528180611e186004820161023c565b03915afa908115611ef5576020925f92611ec6575b50611e755f611e59611e4942611e43600a6117b5565b906117e5565b611e536001611023565b90611093565b95611e8060013490611e69610176565b998a9889978896610f03565b86526004860161185a565b03925af18015611ec157611e95575b50611ac7565b611eb59060203d8111611eba575b611ead818361081e565b81019061182f565b611e8f565b503d611ea3565b610f36565b611ee7919250833d8111611eee575b611edf818361081e565b810190610f18565b905f611e2d565b503d611ed5565b610f36565b611f02610176565b62461bcd60e51b815280611f186004820161179a565b0390fd5b611f3d915060203d8111611f43575b611f35818361081e565b810190610f18565b5f611da4565b503d611f2b565b610f36565b611f6f9150843d8111611f75575b611f67818361081e565b810190610f18565b5f611d5d565b503d611f5d565b610f36565b611fa2915060203d8111611fa8575b611f9a818361081e565b810190610ffe565b5f611aac565b503d611f90565b610f36565b611fbc610176565b62461bcd60e51b815280611fd2600482016116ba565b0390fd5b611ff7915060203d8111611ffd575b611fef818361081e565b810190610f18565b5f6119d4565b503d611fe5565b610f36565b60018060a01b031690565b61202061202591610283565b612009565b90565b6120329054612014565b90565b61203e906105cb565b90565b9050519061204e82610ae0565b565b9060208282031261206957612066915f01612041565b90565b610180565b612076610e17565b506120b8602061208e6120896002612028565b612035565b6319c06429906120ad85926120a1610176565b95869485938493610f03565b835260048301610562565b03915afa90811561212a575f916120fc575b509081156120d7575b5090565b90506120f56120ef6120e9600c6102a7565b92610193565b91610193565b145f6120d3565b61211d915060203d8111612123575b612115818361081e565b810190612050565b5f6120ca565b503d61210b565b610f36565b5f7f6f776e2e696e76616c69642e6973536166650000000000000000000000000000910152565b6121636012602092610e3c565b61216c8161212f565b0190565b6121859060208101905f818303910152612156565b90565b1561218f57565b612197610176565b62461bcd60e51b8152806121ad60048201612170565b0390fd5b60018060a01b031690565b6121c86121cd91610283565b6121b1565b90565b6121da90546121bc565b90565b6121e6906105cb565b90565b5f7f6f776d2e66616b652e2064656c65676174650000000000000000000000000000910152565b61221d6012602092610e3c565b612226816121e9565b0190565b61223f9060208101905f818303910152612210565b90565b1561224957565b612251610176565b62461bcd60e51b8152806122676004820161222a565b0390fd5b612298602061228261227d6002612028565b612035565b636a276f9d90612290610176565b938492610f03565b825281806122a86004820161023c565b03915afa80156123ca576122c3915f9161239c575b50612188565b6122d56122d060016121d0565b6121dd565b6122e76122e133610193565b91610193565b14908115612303575b6122fc61230192612242565b612680565b565b6123469150602061231c6123176002612028565b612035565b637df73e279061233b339261232f610176565b96879485938493610f03565b835260048301610562565b03915afa91821561239757612301926122fc915f91612369575b509250506122f0565b61238a915060203d8111612390575b612382818361081e565b810190612050565b5f612360565b503d612378565b610f36565b6123bd915060203d81116123c3575b6123b5818361081e565b810190612050565b5f6122bd565b503d6123ab565b610f36565b6123d960a0610847565b90565b5f90565b5f90565b6123ec6123cf565b90602080808080866123fc6123dc565b8152016124076123e0565b8152016124126123e0565b81520161241d6123e0565b8152016124286123e0565b81525050565b6124366123e4565b90565b90612443906101e0565b9052565b90565b61245e61245961246392612447565b6105ac565b610428565b90565b90565b61247d61247861248292612466565b6105ac565b610428565b90565b9061248f90610193565b9052565b634e487b7160e01b5f525f60045260245ffd5b6124b09051610193565b90565b906124c460018060a01b039161192e565b9181191691161790565b90565b906124e66124e16124ed926105d7565b6124ce565b82546124b3565b9055565b6124fb90516101e0565b90565b60a01b90565b9061251360ff60a01b916124fe565b9181191691161790565b9061253261252d61253992611949565b611955565b8254612504565b9055565b60a81b90565b9061255260ff60a81b9161253d565b9181191691161790565b9061257161256c61257892611949565b611955565b8254612543565b9055565b60b01b90565b9061259160ff60b01b9161257c565b9181191691161790565b906125b06125ab6125b792611949565b611955565b8254612582565b9055565b60b81b90565b906125d060ff60b81b916125bb565b9181191691161790565b906125ef6125ea6125f692611949565b611955565b82546125c1565b9055565b9061266c60805f6126729461261c8282016126168488016124a6565b906124d1565b61263482820161262e602088016124f1565b9061251d565b61264c828201612646604088016124f1565b9061255c565b61266482820161265e606088016124f1565b9061259b565b0192016124f1565b906125da565b565b9061267e916125fa565b565b6126c29060206126986126936002612028565b612035565b631d84be44906126b733926126ab610176565b96879485938493610f03565b835260048301610562565b03915afa9182156127ba576127519261274a915f9161278c575b50916126e661242e565b926126f5600160208601612439565b806127096127036001611023565b91610428565b14612779575b8061272361271d600261244a565b91610428565b14612766575b61273c6127366003612469565b91610428565b14612753575b5f8301612485565b600d612674565b565b612761600160808501612439565b612742565b612774600160608601612439565b612729565b612787600160408601612439565b61270f565b6127ad915060203d81116127b3575b6127a5818361081e565b810190610ffe565b5f6126dc565b503d61279b565b610f36565b6127c89061226b565b565b5f7f70726d646174612e6e6f2e6d736776616c756500000000000000000000000000910152565b6127fe6013602092610e3c565b612807816127ca565b0190565b6128209060208101905f8183039101526127f1565b90565b5f7f70726d646174612e696e76616c69642e74617272696600000000000000000000910152565b6128576016602092610e3c565b61286081612823565b0190565b6128799060208101905f81830391015261284a565b90565b1561288357565b61288b610176565b62461bcd60e51b8152806128a160048201612864565b0390fd5b5f7f70726d646174612e696e76616c69642e6e65776e657374656400000000000000910152565b6128d96019602092610e3c565b6128e2816128a5565b0190565b6128fb9060208101905f8183039101526128cc565b90565b67ffffffffffffffff811161291c57612918602091610800565b0190565b61080a565b9061293361292e836128fe565b610847565b918252565b369037565b9061296261294a83612921565b9260208061295886936128fe565b9201910390612938565b565b5f7f69626b70726d2829000000000000000000000000000000000000000000000000910152565b6129956008610f69565b906129a260208301612964565b565b6129ac61298b565b90565b5f7f70726d646174612e696e76616c69642e63616c6c657200000000000000000000910152565b6129e36016602092610e3c565b6129ec816129af565b0190565b612a059060208101905f8183039101526129d6565b90565b612a1c612a17600e8390610d02565b61060d565b612db557612a3f612a395f612a33601085906105e3565b0161060d565b156101e0565b612d935734612a56612a505f611898565b91610428565b14612d7157612a886020612a72612a6d60036116f1565b6116fe565b63b252fbe190612a80610176565b938492610f03565b82528180612a986004820161023c565b03915afa8015612d6c57612ac8915f91612d3e575b50612ac1612abb3492610428565b91610428565b101561287c565b612af46020612ade612ad95f610ee6565b610ef3565b63ab6e844f90612aec610176565b938492610f03565b82528180612b046004820161023c565b03915afa908115612d3957612b2e612b29612b58936020935f91612d0c575b50611716565b611722565b6345145fd790612b4d8592612b41610176565b95869485938493610f03565b835260048301610562565b03915afa908115612d07575f91612cd9575b5080612b86612b80612b7b5f61174d565b610193565b91610193565b14612cb757612baf90612ba0612b9b5f611898565b61293d565b90612ba96129a4565b906145e4565b612bc2612bbc3392610193565b91610193565b03612c9557612bf36020612bdd612bd85f610ee6565b610ef3565b63c5a90db190612beb610176565b938492610f03565b82528180612c036004820161023c565b03915afa908115612c90575f80612c2c612c27829583958491612c62575b506118c0565b6118cc565b3490828215612c59575bf115612c5457612c5290612c4d600191600e610d02565b611958565b565b610f36565b506108fc612c36565b612c83915060203d8111612c89575b612c7b818361081e565b810190610f18565b5f612c21565b503d612c71565b610f36565b612c9d610176565b62461bcd60e51b815280612cb3600482016129f0565b0390fd5b612cbf610176565b62461bcd60e51b815280612cd5600482016128e6565b0390fd5b612cfa915060203d8111612d00575b612cf2818361081e565b810190610f18565b5f612b6a565b503d612ce8565b610f36565b612d2c9150843d8111612d32575b612d24818361081e565b810190610f18565b5f612b23565b503d612d1a565b610f36565b612d5f915060203d8111612d65575b612d57818361081e565b810190610ffe565b5f612aad565b503d612d4d565b610f36565b612d79610176565b62461bcd60e51b815280612d8f6004820161280b565b0390fd5b612d9b610176565b62461bcd60e51b815280612db1600482016116ba565b0390fd5b612dbd610176565b62461bcd60e51b815280612dd360048201611638565b0390fd5b5f7f6f776e2e686578626173652e6661696c65640000000000000000000000000000910152565b612e0b6012602092610e3c565b612e1481612dd7565b0190565b612e2d9060208101905f818303910152612dfe565b90565b15612e3757565b612e3f610176565b62461bcd60e51b815280612e5560048201612e18565b0390fd5b612e62906105af565b90565b612e6e90612e59565b90565b612e7a90612e59565b90565b90565b90612e95612e90612e9c92612e71565b612e7d565b82546124b3565b9055565b612ef3612eee612ef992612ede612ebe612eb95f610ee6565b610ef3565b612ed8612ed2612ecd5f61174d565b610193565b91610193565b14612e30565b612ee932600c6124d1565b6118c0565b612e65565b5f612e80565b612f01614812565b565b612f0b61101c565b50612f16600f6104d7565b90565b5f7f496e76616c696420536166654f776e6572000000000000000000000000000000910152565b612f4d6011602092610e3c565b612f5681612f19565b0190565b612f6f9060208101905f818303910152612f40565b90565b15612f7957565b612f81610176565b62461bcd60e51b815280612f9760048201612f5a565b0390fd5b612fc9906020612fb3612fae6002612028565b612035565b636a276f9d90612fc1610176565b948592610f03565b82528180612fd96004820161023c565b03915afa9182156130bf5761303792612ff9915f91613091575b50612188565b602061300d6130086002612028565b612035565b6319c064299061302c3392613020610176565b96879485938493610f03565b835260048301610562565b03915afa91821561308c5761305c92613057915f9161305e575b50612f72565b6131e3565b565b61307f915060203d8111613085575b613077818361081e565b810190612050565b5f613051565b503d61306d565b610f36565b6130b2915060203d81116130b8575b6130aa818361081e565b810190612050565b5f612ff3565b503d6130a0565b610f36565b60016130d09101610428565b90565b5190565b906130e1826130d3565b8110156130f2576020809102010190565b6104c3565b906131035f199161192e565b9181191691161790565b61312161311c61312692610428565b6105ac565b610428565b90565b90565b9061314161313c6131489261310d565b613129565b82546130f7565b9055565b1b90565b9190600861316b9102916131655f198461314c565b9261314c565b9181191691161790565b919061318b6131866131939361310d565b613129565b908354613150565b9055565b6131a9916131a361101c565b91613175565b565b5f60026131ca9282808201556131c48360018301613197565b01613197565b565b905f036131de576131dc906131ab565b565b612493565b906131ed5f611898565b5b806132096132036131fe866130d3565b610428565b91610428565b10156132cb576132c69061323661323161322c6132278785906130d7565b6124a6565b610e1b565b610e9e565b6132686132425f611898565b6001613262601061325c6132578a88906130d7565b6124a6565b906105e3565b0161312c565b61329a6132745f611898565b6002613294601061328e6132898a88906130d7565b6124a6565b906105e3565b0161312c565b6132c15f6132bc60106132b66132b18987906130d7565b6124a6565b906105e3565b6131cc565b6130c4565b6131ee565b509050565b6132d990612f9b565b565b5f90565b6132e76132db565b506132f2600c6102a7565b90565b906133259291602061330f61330a6002612028565b612035565b636a276f9d9061331d610176565b968792610f03565b825281806133356004820161023c565b03915afa93841561341b5761339394613355915f916133ed575b50612188565b60206133696133646002612028565b612035565b6319c0642990613388339261337c610176565b98899485938493610f03565b835260048301610562565b03915afa9384156133e8576133b8946133b3915f916133ba575b50612f72565b613640565b565b6133db915060203d81116133e1575b6133d3818361081e565b810190612050565b5f6133ad565b503d6133c9565b610f36565b61340e915060203d8111613414575b613406818361081e565b810190612050565b5f61334f565b503d6133fc565b610f36565b5f7f70726d646174612e616c72656164792e65786973740000000000000000000000910152565b6134546015602092610e3c565b61345d81613420565b0190565b6134769060208101905f818303910152613447565b90565b1561348057565b613488610176565b62461bcd60e51b81528061349e60048201613461565b0390fd5b6134ac6060610847565b90565b5f90565b6134bb6134a2565b9060208080846134c96123e0565b8152016134d46134af565b8152016134df6134af565b81525050565b6134ed6134b3565b90565b5190565b906134fe826134f0565b81101561350f576020809102010190565b6104c3565b61351e9051610428565b90565b9061352b90610428565b9052565b9061357360406002613579946135525f820161354c5f88016124f1565b90611958565b61356b6001820161356560208801613514565b9061312c565b019201613514565b9061312c565b565b906135859161352f565b565b90565b5f5260205f2090565b5490565b6135a081613593565b8210156135ba576135b260019161358a565b910201905f90565b6104c3565b919060086135df9102916135d960018060a01b038461314c565b9261314c565b9181191691161790565b91906135ff6135fa613607936105d7565b6124ce565b9083546135bf565b9055565b908154916801000000000000000083101561363b578261363391600161363995018155613597565b906135e9565b565b61080a565b929161364b5f611898565b5b8061366761366161365c886130d3565b610428565b91610428565b1015613746576137419061369d61369861369261368d6136888a86906130d7565b6124a6565b610e1b565b156101e0565b613479565b6137166136a86134e5565b6136b560015f8301612439565b6136d46136cb6136c68886906134f4565b613514565b60208301613521565b6136f36136ea6136e58786906134f4565b613514565b60408301613521565b613711601061370b6137068b87906130d7565b6124a6565b906105e3565b61357b565b61373c613723600f613587565b6137366137318985906130d7565b6124a6565b9061360b565b6130c4565b61364c565b5050509050565b9061375892916132f5565b565b90613788602061377261376d6002612028565b612035565b636a276f9d90613780610176565b938492610f03565b825281806137986004820161023c565b03915afa80156138ba576137b3915f9161388c575b50612188565b6137c56137c060016121d0565b6121dd565b6137d76137d133610193565b91610193565b149182156137f3575b6137ec6137f193612242565b6138bf565b565b6138369250602061380c6138076002612028565b612035565b637df73e279061382b339261381f610176565b97889485938493610f03565b835260048301610562565b03915afa928315613887576137f1936137ec915f91613859575b509350506137e0565b61387a915060203d8111613880575b613872818361081e565b810190612050565b5f613850565b503d613868565b610f36565b6138ad915060203d81116138b3575b6138a5818361081e565b810190612050565b5f6137ad565b503d61389b565b610f36565b905f14613b8d5761390760206138dd6138d86002612028565b612035565b631d84be44906138fc33926138f0610176565b95869485938493610f03565b835260048301610562565b03915afa908115613b88575f91613b5a575b506139265f600d016102d4565b80613b3f575b80613b1a575b613b07575b6139435f600d016102d4565b80613aec575b80613ac7575b613ab4575b6139605f600d016102d4565b9081613a98575b5080613a73575b613a60575b61397c5f611898565b6139885f600d016102fb565b613a52575b6139995f600d01610322565b613a44575b6139aa5f600d01610349565b613a36575b6139bb5f600d016102d4565b9081613a1a575b50806139f5575b6139d2575b505b565b6139dd90600c6124d1565b6139ef6139e861242e565b600d612674565b5f6139ce565b50613a025f600d016102a7565b613a14613a0e83610193565b91610193565b146139c9565b9050613a2f613a29600261244a565b91610428565b145f6139c2565b613a3f90611053565b6139af565b613a4d90611053565b61399e565b613a5b90611053565b61398d565b613a6e60015f600d016125da565b613973565b50613a805f600d016102a7565b613a92613a8c83610193565b91610193565b1461396e565b9050613aad613aa76003612469565b91610428565b145f613967565b613ac260015f600d0161259b565b613954565b50613ad45f600d016102a7565b613ae6613ae084610193565b91610193565b1461394f565b5080613b01613afb600261244a565b91610428565b14613949565b613b1560015f600d0161255c565b613937565b50613b275f600d016102a7565b613b39613b3384610193565b91610193565b14613932565b5080613b54613b4e6001611023565b91610428565b1461392c565b613b7b915060203d8111613b81575b613b73818361081e565b810190610ffe565b5f613919565b503d613b69565b610f36565b50613ba0613b9961242e565b600d612674565b6139d0565b90613baf9161375a565b565b90613be29392916020613bcc613bc76002612028565b612035565b636a276f9d90613bda610176565b978892610f03565b82528180613bf26004820161023c565b03915afa948515613cd857613c5095613c12915f91613caa575b50612188565b6020613c26613c216002612028565b612035565b6319c0642990613c453392613c39610176565b998a9485938493610f03565b835260048301610562565b03915afa948515613ca557613c7595613c70915f91613c77575b50612f72565b613d01565b565b613c98915060203d8111613c9e575b613c90818361081e565b810190612050565b5f613c6a565b503d613c86565b610f36565b613ccb915060203d8111613cd1575b613cc3818361081e565b810190612050565b5f613c0c565b503d613cb9565b610f36565b5190565b90613ceb82613cdd565b811015613cfc576020809102010190565b6104c3565b909392613d0d5f611898565b5b80613d29613d23613d1e866130d3565b610428565b91610428565b1015613ebb57613e1390613d56613d51613d4c613d478785906130d7565b6124a6565b610e1b565b610e9e565b613d69613d64848390613ce1565b6124f1565b5f14613e1857613dbe613d85613d808984906134f4565b613514565b613db86001613da86010613da2613d9d8b89906130d7565b6124a6565b906105e3565b0191613db383610631565b611093565b9061312c565b613e0d613dd4613dcf8784906134f4565b613514565b613e076002613df76010613df1613dec8b89906130d7565b6124a6565b906105e3565b0191613e0283610631565b611093565b9061312c565b5b6130c4565b613d0e565b613e67613e2e613e298984906134f4565b613514565b613e616001613e516010613e4b613e468b89906130d7565b6124a6565b906105e3565b0191613e5c83610631565b6110b8565b9061312c565b613eb6613e7d613e788784906134f4565b613514565b613eb06002613ea06010613e9a613e958b89906130d7565b6124a6565b906105e3565b0191613eab83610631565b6110b8565b9061312c565b613e0e565b505050509050565b90613ecf939291613bb1565b565b5f7f6f776e2e6e6f6e617574682e44414f0000000000000000000000000000000000910152565b613f05600f602092610e3c565b613f0e81613ed1565b0190565b613f279060208101905f818303910152613ef8565b90565b15613f3157565b613f39610176565b62461bcd60e51b815280613f4f60048201613f12565b0390fd5b613f81906020613f6b613f666002612028565b612035565b636a276f9d90613f79610176565b948592610f03565b82528180613f916004820161023c565b03915afa91821561401357613fe392613fb1915f91613fe5575b50612188565b613fde613fc6613fc160016121d0565b6121dd565b613fd8613fd233610193565b91610193565b14613f2a565b614018565b565b614006915060203d811161400c575b613ffe818361081e565b810190612050565b5f613fab565b503d613ff4565b610f36565b5f8080809361403661403161402c8461174d565b6118c0565b6118cc565b82821561404b575bf11561404657565b610f36565b506108fc61403e565b61405d90613f53565b565b9061408f929160206140796140746002612028565b612035565b636a276f9d90614087610176565b968792610f03565b8252818061409f6004820161023c565b03915afa938415614185576140fd946140bf915f91614157575b50612188565b60206140d36140ce6002612028565b612035565b6319c06429906140f233926140e6610176565b98899485938493610f03565b835260048301610562565b03915afa938415614152576141229461411d915f91614124575b50612f72565b61418a565b565b614145915060203d811161414b575b61413d818361081e565b810190612050565b5f614117565b503d614133565b610f36565b614178915060203d811161417e575b614170818361081e565b810190612050565b5f6140b9565b503d614166565b610f36565b6141935f611898565b5b806141af6141a96141a4856130d3565b610428565b91610428565b101561430a57614288906141dd6141d76141d26141cd8685906130d7565b6124a6565b610e1b565b156101e0565b5f1461428d5761425c6141ee6134e5565b6141fb60015f8301612439565b61421a61421161420c8886906134f4565b613514565b60208301613521565b61423961423061422b8986906134f4565b613514565b60408301613521565b614257601061425161424c8887906130d7565b6124a6565b906105e3565b61357b565b614282614269600f613587565b61427c6142778685906130d7565b6124a6565b9061360b565b5b6130c4565b614194565b6142c96142a361429e8684906134f4565b613514565b60016142c360106142bd6142b88988906130d7565b6124a6565b906105e3565b0161312c565b6143056142df6142da8784906134f4565b613514565b60026142ff60106142f96142f48988906130d7565b6124a6565b906105e3565b0161312c565b614283565b50505050565b9061431b929161405f565b565b5f7f6f776e2e64656661756c742e73656e6465720000000000000000000000000000910152565b6143516012602092610e3c565b61435a8161431d565b0190565b6143739060208101905f818303910152614344565b90565b1561437d57565b614385610176565b62461bcd60e51b81528061439b6004820161435e565b0390fd5b906143ce916143c9816143c26143bc6143b75f61174d565b610193565b91610193565b1415614376565b6143d0565b565b906143ff9160206143e96143e46002612028565b612035565b636a276f9d906143f7610176565b958692610f03565b8252818061440f6004820161023c565b03915afa928315614491576144619361442f915f91614463575b50612188565b61445c61444461443f60016121d0565b6121dd565b61445661445033610193565b91610193565b14613f2a565b614518565b565b614484915060203d811161448a575b61447c818361081e565b810190612050565b5f614429565b503d614472565b610f36565b5f7f6f776e2e696e76616c69642e616d6f756e740000000000000000000000000000910152565b6144ca6012602092610e3c565b6144d381614496565b0190565b6144ec9060208101905f8183039101526144bd565b90565b156144f657565b6144fe610176565b62461bcd60e51b815280614514600482016144d7565b0390fd5b5f80809361454a61454583956145408461453a61453488611898565b91610428565b116144ef565b6118c0565b6118cc565b82821561455f575bf11561455a57565b610f36565b506108fc614552565b906145729161439f565b565b5190565b90565b61458f61458a61459492614578565b6105ac565b610428565b90565b6145a090610188565b90565b6145ac81614597565b036145b357565b5f80fd5b905051906145c4826145a3565b565b906020828203126145df576145dc915f016145b7565b90565b610180565b9291906145fc916145f36132db565b94919091614f4a565b9080614637575b61460b575b50565b61463091925061462b90602061462082614574565b8183010191016145c6565b6118cc565b905f614608565b5061464181614574565b61465461464e602061457b565b91610428565b14614603565b92919061467291614669610e17565b94919091614f4a565b90806146a4575b614681575b50565b61469d919250602061469282614574565b818301019101612050565b905f61467e565b506146ae81614574565b6146c16146bb602061457b565b91610428565b14614679565b6146d0906105af565b90565b6146dc906146c7565b90565b6146e8906146c7565b90565b90565b906147036146fe61470a926146df565b6146eb565b82546124b3565b9055565b614717906105af565b90565b6147239061470e565b90565b61472f9061470e565b90565b90565b9061474a61474561475192614726565b614732565b82546124b3565b9055565b61475e906105af565b90565b61476a90614755565b90565b61477690614755565b90565b90565b9061479161478c6147989261476d565b614779565b82546124b3565b9055565b6147a59061170a565b90565b90565b906147c06147bb6147c79261479c565b6147a8565b82546124b3565b9055565b6147d4906105af565b90565b6147e0906147cb565b90565b6147ec906147cb565b90565b90565b9061480761480261480e926147e3565b6147ef565b82546124b3565b9055565b61482361481e5f610ee6565b610ef3565b61483d6148376148325f61174d565b610193565b91610193565b14614e7a5761486e60206148586148535f610ee6565b610ef3565b634162169f90614866610176565b938492610f03565b8252818061487e6004820161023c565b03915afa908115614e75576148a59161489e915f91614e47575b506146d3565b60016146ee565b6148d160206148bb6148b65f610ee6565b610ef3565b63b57dbdc6906148c9610176565b938492610f03565b825281806148e16004820161023c565b03915afa908115614e425761490891614901915f91614e14575b5061471a565b6002614735565b614934602061491e6149195f610ee6565b610ef3565b63cfbffe539061492c610176565b938492610f03565b825281806149446004820161023c565b03915afa908115614e0f5761496b91614964915f91614de1575b50614761565b600361477c565b614997602061498161497c5f610ee6565b610ef3565b63ab6e844f9061498f610176565b938492610f03565b825281806149a76004820161023c565b03915afa908115614ddc576149ce916149c7915f91614dae575b50611716565b60046147ab565b6149fa60206149e46149df5f610ee6565b610ef3565b639a7c4077906149f2610176565b938492610f03565b82528180614a0a6004820161023c565b03915afa908115614da957614a3191614a2a915f91614d7b575b506147d7565b60056147f2565b614a5d6020614a47614a425f610ee6565b610ef3565b63aa0ddc1690614a55610176565b938492610f03565b82528180614a6d6004820161023c565b03915afa8015614d7657614a8a915f91614d48575b5060076124d1565b614ab66020614aa0614a9b5f610ee6565b610ef3565b636b4aefc690614aae610176565b938492610f03565b82528180614ac66004820161023c565b03915afa8015614d4357614ae3915f91614d15575b5060086124d1565b614b0f6020614af9614af45f610ee6565b610ef3565b6324768d9190614b07610176565b938492610f03565b82528180614b1f6004820161023c565b03915afa8015614d1057614b3c915f91614ce2575b50600b6124d1565b614b686020614b52614b4d5f610ee6565b610ef3565b636402742790614b60610176565b938492610f03565b82528180614b786004820161023c565b03915afa8015614cdd57614b95915f91614caf575b5060096124d1565b614bc16020614bab614ba65f610ee6565b610ef3565b6330125cf590614bb9610176565b938492610f03565b82528180614bd16004820161023c565b03915afa8015614caa57614bee915f91614c7c575b50600a6124d1565b614c1a6020614c04614bff5f610ee6565b610ef3565b63d3d1b09690614c12610176565b938492610f03565b82528180614c2a6004820161023c565b03915afa8015614c7757614c47915f91614c49575b5060066124d1565b565b614c6a915060203d8111614c70575b614c62818361081e565b810190610f18565b5f614c3f565b503d614c58565b610f36565b614c9d915060203d8111614ca3575b614c95818361081e565b810190610f18565b5f614be6565b503d614c8b565b610f36565b614cd0915060203d8111614cd6575b614cc8818361081e565b810190610f18565b5f614b8d565b503d614cbe565b610f36565b614d03915060203d8111614d09575b614cfb818361081e565b810190610f18565b5f614b34565b503d614cf1565b610f36565b614d36915060203d8111614d3c575b614d2e818361081e565b810190610f18565b5f614adb565b503d614d24565b610f36565b614d69915060203d8111614d6f575b614d61818361081e565b810190610f18565b5f614a82565b503d614d57565b610f36565b614d9c915060203d8111614da2575b614d94818361081e565b810190610f18565b5f614a24565b503d614d8a565b610f36565b614dcf915060203d8111614dd5575b614dc7818361081e565b810190610f18565b5f6149c1565b503d614dbd565b610f36565b614e02915060203d8111614e08575b614dfa818361081e565b810190610f18565b5f61495e565b503d614df0565b610f36565b614e35915060203d8111614e3b575b614e2d818361081e565b810190610f18565b5f6148fb565b503d614e23565b610f36565b614e68915060203d8111614e6e575b614e60818361081e565b810190610f18565b5f614898565b503d614e56565b610f36565b565b606090565b614e8a5f610f69565b90565b614e95614e81565b90565b90565b60200190565b63ffffffff60e01b1690565b614eb690614ea1565b90565b905090565b5f5b838110614ed0575050905f910152565b806020918301518185015201614ec0565b614f06614efd92602092614ef481614574565b94858093614eb9565b93849101614ebe565b0190565b614f1890614f1e9392614ee1565b90614ee1565b90565b3d5f14614f3c57614f313d612921565b903d5f602084013e5b565b614f44614e7c565b90614f3a565b614f52610e17565b50614f5b614e7c565b50803b614f70614f6a5f611898565b91610428565b1461501d5760046150085f94614fe18695614fb787614fb1614f99614f93610176565b94614e98565b614fab614fa582614574565b91614e9b565b20614ead565b9261081e565b614fd2614fc2610176565b958692602084019081520161023c565b6020820181038252038461081e565b91614ff9614fed610176565b93849260208401614f0a565b6020820181038252038261081e565b602081019051915afa615019614f21565b9091565b5050505f9061502a614e8d565b9056fea26469706673582212200a690df18340782db796f39ecf6c2d4a8ebdf04d2d268e408b63f45cac41e8da64736f6c634300081800336080604052346200002d576200001462000140565b6200001e62000033565b611a1f6200023d8239611a1f90f35b62000039565b60405190565b5f80fd5b5f1b90565b906200005560018060a01b03916200003d565b9181191691161790565b60018060a01b031690565b90565b62000086620000806200008c926200005f565b6200006a565b6200005f565b90565b6200009a906200006d565b90565b620000a8906200008f565b90565b90565b90620000c8620000c2620000d0926200009d565b620000ab565b825462000042565b9055565b90620000e0906200009d565b5f5260205260405f2090565b90620000fa60ff916200003d565b9181191691161790565b151590565b620001149062000104565b90565b90565b90620001346200012e6200013c9262000109565b62000117565b8254620000ec565b9055565b6200016173c0cee8b561cc4f60869776ca5b0b7a295e04f5af6011620000ae565b62000182739f33b44587a57758c1413dbab6640f6abea5cef46012620000ae565b620001a3730239667fa9f2269e36f32daf2ab391dc1ad937386013620000ae565b620001c473648565deb50c503ef59860d92942eaece0c3e1726014620000ae565b620001e573085052532254e12989413f7c84dd32686bce74e16015620000ae565b620002067379e98cabb23b776a61983e13bf8753c2106cafae6016620000ae565b6200022060016200021a60173290620000d4565b6200011a565b6200023a60016200023460173390620000d4565b6200011a565b56fe60806040526004361015610018575b361561001657005b005b6100225f35610341565b806301c0d48b1461033c57806305abae0d146103375780630c46c9e9146103325780631162a5b11461032d578063130fba6d146103285780631b67970a14610323578063236b04021461031e57806323d02da214610319578063242fca551461031457806324768d911461030f578063275424d01461030a57806328b3ab9c146103055780632f54bf6e1461030057806330125cf5146102fb578063313c5fdc146102f657806336c24c46146102f15780634162169f146102ec578063447aa304146102e7578063447bf0e2146102e25780635f7ba561146102dd57806364027427146102d857806364d93c62146102d357806366658584146102ce5780636b4aefc6146102c95780637065cb48146102c457806374fad9f9146102bf578063753e7d33146102ba5780637c27dd0c146102b5578063839a47a4146102b05780638852b1eb146102ab57806396239975146102a657806396e85ced146102a15780639a7c40771461029c5780639f56383e14610297578063a5b277f214610292578063aa0ddc161461028d578063ab6e844f14610288578063aeb1402014610283578063af2331901461027e578063b0788f8414610279578063b57dbdc614610274578063bcb6c0b51461026f578063c5a90db11461026a578063cfbffe5314610265578063d05a565114610260578063d3d1b0961461025b578063d62bab3414610256578063e257681914610251578063e61dfd581461024c5763e7531fc00361000e57611090565b61104c565b61100a565b610fd5565b610f91565b610f4f565b610f1a565b610ed6565b610e94565b610e5f565b610e1d565b610de8565b610da6565b610d71565b610d2d565b610ce9565b610ca5565b610c61565b610c1f565b610bea565b610ba8565b610b75565b610b40565b610afe565b610acb565b610a98565b610a63565b610a21565b6109e5565b610955565b610913565b6108de565b61089a565b610856565b610816565b6107e3565b6107ae565b61076a565b610701565b610638565b610603565b6105c1565b61058e565b61055b565b610528565b6104f5565b6104c2565b61048f565b61045c565b6103e1565b60e01c90565b60405190565b5f80fd5b5f80fd5b5f91031261035f57565b610351565b1c90565b60018060a01b031690565b6103839060086103889302610364565b610368565b90565b906103969154610373565b90565b6103a5600e5f9061038b565b90565b60018060a01b031690565b6103bc906103a8565b90565b6103c8906103b3565b9052565b91906103df905f602085019401906103bf565b565b34610411576103f1366004610355565b61040d6103fc610399565b610404610347565b918291826103cc565b0390f35b61034d565b61041f816103b3565b0361042657565b5f80fd5b9050359061043782610416565b565b906020828203126104525761044f915f0161042a565b90565b610351565b5f0190565b3461048a5761047461046f366004610439565b611240565b61047c610347565b8061048681610457565b0390f35b61034d565b346104bd576104a76104a2366004610439565b61127f565b6104af610347565b806104b981610457565b0390f35b61034d565b346104f0576104da6104d5366004610439565b6112be565b6104e2610347565b806104ec81610457565b0390f35b61034d565b346105235761050d610508366004610439565b6112fd565b610515610347565b8061051f81610457565b0390f35b61034d565b346105565761054061053b366004610439565b61133c565b610548610347565b8061055281610457565b0390f35b61034d565b346105895761057361056e366004610439565b61137b565b61057b610347565b8061058581610457565b0390f35b61034d565b346105bc576105a66105a1366004610439565b6113ba565b6105ae610347565b806105b881610457565b0390f35b61034d565b346105ef576105d96105d4366004610439565b6113f9565b6105e1610347565b806105eb81610457565b0390f35b61034d565b610600600a5f9061038b565b90565b3461063357610613366004610355565b61062f61061e6105f4565b610626610347565b918291826103cc565b0390f35b61034d565b346106665761065061064b366004610439565b611438565b610658610347565b8061066281610457565b0390f35b61034d565b979593919a9998969492909a61014089019b5f8a01610689916103bf565b60208901610696916103bf565b604088016106a3916103bf565b606087016106b0916103bf565b608086016106bd916103bf565b60a085016106ca916103bf565b60c084016106d7916103bf565b60e083016106e4916103bf565b61010082016106f2916103bf565b610120016106ff916103bf565b565b3461073e57610711366004610355565b61073a61071c611474565b966107319a989a969196959295949394610347565b9a8b9a8b61066b565b0390f35b61034d565b151590565b61075190610743565b9052565b9190610768905f60208501940190610748565b565b3461079a57610796610785610780366004610439565b61154a565b61078d610347565b91829182610755565b0390f35b61034d565b6107ab60095f9061038b565b90565b346107de576107be366004610355565b6107da6107c961079f565b6107d1610347565b918291826103cc565b0390f35b61034d565b34610811576107fb6107f6366004610439565b61159d565b610803610347565b8061080d81610457565b0390f35b61034d565b346108445761082e610829366004610439565b6115dc565b610836610347565b8061084081610457565b0390f35b61034d565b6108535f8061038b565b90565b3461088657610866366004610355565b610882610871610849565b610879610347565b918291826103cc565b0390f35b61034d565b61089760115f9061038b565b90565b346108ca576108aa366004610355565b6108c66108b561088b565b6108bd610347565b918291826103cc565b0390f35b61034d565b6108db60125f9061038b565b90565b3461090e576108ee366004610355565b61090a6108f96108cf565b610901610347565b918291826103cc565b0390f35b61034d565b346109415761092b610926366004610439565b61161b565b610933610347565b8061093d81610457565b0390f35b61034d565b61095260085f9061038b565b90565b3461098557610965366004610355565b610981610970610946565b610978610347565b918291826103cc565b0390f35b61034d565b91946109d26109dc929897956109c860a0966109be6109e39a6109b460c08a019e5f8b01906103bf565b60208901906103bf565b60408701906103bf565b60608501906103bf565b60808301906103bf565b01906103bf565b565b34610a1c576109f5366004610355565b610a18610a00611626565b92610a0f969496929192610347565b9687968761098a565b0390f35b61034d565b34610a4f57610a39610a34366004610439565b6116da565b610a41610347565b80610a4b81610457565b0390f35b61034d565b610a6060075f9061038b565b90565b34610a9357610a73366004610355565b610a8f610a7e610a54565b610a86610347565b918291826103cc565b0390f35b61034d565b34610ac657610ab0610aab366004610439565b611769565b610ab8610347565b80610ac281610457565b0390f35b61034d565b34610af957610ae3610ade366004610439565b6117a8565b610aeb610347565b80610af581610457565b0390f35b61034d565b34610b2c57610b16610b11366004610439565b6117e7565b610b1e610347565b80610b2881610457565b0390f35b61034d565b610b3d60105f9061038b565b90565b34610b7057610b50366004610355565b610b6c610b5b610b31565b610b63610347565b918291826103cc565b0390f35b61034d565b34610ba357610b8d610b88366004610439565b611826565b610b95610347565b80610b9f81610457565b0390f35b61034d565b34610bd657610bc0610bbb366004610439565b611865565b610bc8610347565b80610bd281610457565b0390f35b61034d565b610be760165f9061038b565b90565b34610c1a57610bfa366004610355565b610c16610c05610bdb565b610c0d610347565b918291826103cc565b0390f35b61034d565b34610c4d57610c37610c32366004610439565b6118a4565b610c3f610347565b80610c4981610457565b0390f35b61034d565b610c5e60045f9061038b565b90565b34610c9157610c71366004610355565b610c8d610c7c610c52565b610c84610347565b918291826103cc565b0390f35b61034d565b610ca2600f5f9061038b565b90565b34610cd557610cb5366004610355565b610cd1610cc0610c96565b610cc8610347565b918291826103cc565b0390f35b61034d565b610ce660155f9061038b565b90565b34610d1957610cf9366004610355565b610d15610d04610cda565b610d0c610347565b918291826103cc565b0390f35b61034d565b610d2a60065f9061038b565b90565b34610d5d57610d3d366004610355565b610d59610d48610d1e565b610d50610347565b918291826103cc565b0390f35b61034d565b610d6e60035f9061038b565b90565b34610da157610d81366004610355565b610d9d610d8c610d62565b610d94610347565b918291826103cc565b0390f35b61034d565b34610dd457610dbe610db9366004610439565b6118e3565b610dc6610347565b80610dd081610457565b0390f35b61034d565b610de5600c5f9061038b565b90565b34610e1857610df8366004610355565b610e14610e03610dd9565b610e0b610347565b918291826103cc565b0390f35b61034d565b34610e4b57610e35610e30366004610439565b611922565b610e3d610347565b80610e4781610457565b0390f35b61034d565b610e5c60015f9061038b565b90565b34610e8f57610e6f366004610355565b610e8b610e7a610e50565b610e82610347565b918291826103cc565b0390f35b61034d565b34610ec257610eac610ea7366004610439565b611960565b610eb4610347565b80610ebe81610457565b0390f35b61034d565b610ed360145f9061038b565b90565b34610f0657610ee6366004610355565b610f02610ef1610ec7565b610ef9610347565b918291826103cc565b0390f35b61034d565b610f1760025f9061038b565b90565b34610f4a57610f2a366004610355565b610f46610f35610f0b565b610f3d610347565b918291826103cc565b0390f35b61034d565b34610f7d57610f67610f62366004610439565b61199f565b610f6f610347565b80610f7981610457565b0390f35b61034d565b610f8e600d5f9061038b565b90565b34610fc157610fa1366004610355565b610fbd610fac610f82565b610fb4610347565b918291826103cc565b0390f35b61034d565b610fd260055f9061038b565b90565b3461100557610fe5366004610355565b611001610ff0610fc6565b610ff8610347565b918291826103cc565b0390f35b61034d565b346110385761102261101d366004610439565b6119de565b61102a610347565b8061103481610457565b0390f35b61034d565b611049600b5f9061038b565b90565b3461107c5761105c366004610355565b61107861106761103d565b61106f610347565b918291826103cc565b0390f35b61034d565b61108d60135f9061038b565b90565b346110c0576110a0366004610355565b6110bc6110ab611081565b6110b3610347565b918291826103cc565b0390f35b61034d565b90565b6110dc6110d76110e1926103a8565b6110c5565b6103a8565b90565b6110ed906110c8565b90565b6110f9906110e4565b90565b90611106906110f0565b5f5260205260405f2090565b5f1c90565b60ff1690565b61112961112e91611112565b611117565b90565b61113b905461111d565b90565b60209181520190565b5f7f496e76616c6964206f776e657200000000000000000000000000000000000000910152565b61117b600d60209261113e565b61118481611147565b0190565b61119d9060208101905f81830391015261116e565b90565b156111a757565b6111af610347565b62461bcd60e51b8152806111c560048201611188565b0390fd5b6111ee906111e96111e46111df601733906110fc565b611131565b6111a0565b611233565b565b5f1b90565b9061120660018060a01b03916111f0565b9181191691161790565b90565b9061122861122361122f926110f0565b611210565b82546111f5565b9055565b61123e906008611213565b565b611249906111c9565b565b6112709061126b611266611261601733906110fc565b611131565b6111a0565b611272565b565b61127d906015611213565b565b6112889061124b565b565b6112af906112aa6112a56112a0601733906110fc565b611131565b6111a0565b6112b1565b565b6112bc906001611213565b565b6112c79061128a565b565b6112ee906112e96112e46112df601733906110fc565b611131565b6111a0565b6112f0565b565b6112fb906006611213565b565b611306906112c9565b565b61132d9061132861132361131e601733906110fc565b611131565b6111a0565b61132f565b565b61133a90600a611213565b565b61134590611308565b565b61136c9061136761136261135d601733906110fc565b611131565b6111a0565b61136e565b565b611379906011611213565b565b61138490611347565b565b6113ab906113a66113a161139c601733906110fc565b611131565b6111a0565b6113ad565b565b6113b8906016611213565b565b6113c390611386565b565b6113ea906113e56113e06113db601733906110fc565b611131565b6111a0565b6113ec565b565b6113f7906010611213565b565b611402906113c5565b565b6114299061142461141f61141a601733906110fc565b611131565b6111a0565b61142b565b565b61143690600b611213565b565b61144190611404565b565b5f90565b611450906110e4565b90565b61145f61146491611112565b610368565b90565b6114719054611453565b90565b61147c611443565b50611485611443565b5061148e611443565b50611497611443565b506114a0611443565b506114a9611443565b506114b2611443565b506114bb611443565b506114c4611443565b506114cd611443565b506114d730611447565b906114e26001611467565b916114ec5f611467565b916114f76002611467565b91611502600d611467565b9161150d600b611467565b916115186003611467565b916115236004611467565b9161152e600e611467565b916115396010611467565b9199989796959493929190565b5f90565b61156161156691611559611546565b5060176110fc565b611131565b90565b61158e9061158961158461157f601733906110fc565b611131565b6111a0565b611590565b565b61159b906004611213565b565b6115a690611569565b565b6115cd906115c86115c36115be601733906110fc565b611131565b6111a0565b6115cf565b565b6115da906007611213565b565b6115e5906115a8565b565b61160c906116076116026115fd601733906110fc565b611131565b6111a0565b61160e565b565b611619906005611213565b565b611624906115e7565b565b61162e611443565b50611637611443565b50611640611443565b50611649611443565b50611652611443565b5061165b611443565b506116666006611467565b906116716007611467565b9161167c6008611467565b916116876009611467565b91611692600a611467565b9161169d600e611467565b91959493929190565b6116cb906116c66116c16116bc601733906110fc565b611131565b6111a0565b6116cd565b565b6116d8906012611213565b565b6116e3906116a6565b565b61170a906117056117006116fb601733906110fc565b611131565b6111a0565b611751565b565b9061171860ff916111f0565b9181191691161790565b61172b90610743565b90565b90565b9061174661174161174d92611722565b61172e565b825461170c565b9055565b6117679061176260019160176110fc565b611731565b565b611772906116e5565b565b6117999061179461178f61178a601733906110fc565b611131565b6111a0565b61179b565b565b6117a6906013611213565b565b6117b190611774565b565b6117d8906117d36117ce6117c9601733906110fc565b611131565b6111a0565b6117da565b565b6117e5906002611213565b565b6117f0906117b3565b565b6118179061181261180d611808601733906110fc565b611131565b6111a0565b611819565b565b61182490600c611213565b565b61182f906117f2565b565b6118569061185161184c611847601733906110fc565b611131565b6111a0565b611858565b565b61186390600f611213565b565b61186e90611831565b565b6118959061189061188b611886601733906110fc565b611131565b6111a0565b611897565b565b6118a290600d611213565b565b6118ad90611870565b565b6118d4906118cf6118ca6118c5601733906110fc565b611131565b6111a0565b6118d6565b565b6118e1906003611213565b565b6118ec906118af565b565b6119139061190e611909611904601733906110fc565b611131565b6111a0565b611915565b565b611920906014611213565b565b61192b906118ee565b565b6119529061194d611948611943601733906110fc565b611131565b6111a0565b611954565b565b61195e905f611213565b565b6119699061192d565b565b6119909061198b611986611981601733906110fc565b611131565b6111a0565b611992565b565b61199d90600e611213565b565b6119a89061196b565b565b6119cf906119ca6119c56119c0601733906110fc565b611131565b6111a0565b6119d1565b565b6119dc906009611213565b565b6119e7906119aa565b56fea2646970667358221220650b3e7056848219860531a4957ad835450e89b4a066ece3a839cd4f808eb51e64736f6c6343000818003360806040523462000038576200001f6200001862000131565b91620003bf565b620000296200003e565b6117ba620004d082396117ba90f35b62000044565b60405190565b5f80fd5b601f801991011690565b634e487b7160e01b5f52604160045260245ffd5b90620000729062000048565b810190811060018060401b038211176200008b57604052565b62000052565b90620000a8620000a06200003e565b928362000066565b565b5f80fd5b60018060a01b031690565b620000c490620000ae565b90565b620000d281620000b9565b03620000da57565b5f80fd5b90505190620000ed82620000c7565b565b90916060828403126200012b57620001286200010e845f8501620000de565b936200011e8160208601620000de565b93604001620000de565b90565b620000aa565b6200015462001c8a80380380620001488162000091565b928339810190620000ef565b909192565b60a01b90565b906200017060ff60a01b9162000159565b9181191691161790565b151590565b6200018a906200017a565b90565b90565b90620001aa620001a4620001b2926200017f565b6200018d565b82546200015f565b9055565b60a81b90565b90620001cd60ff60a81b91620001b6565b9181191691161790565b90620001f1620001eb620001f9926200017f565b6200018d565b8254620001bc565b9055565b60b01b90565b906200021460ff60b01b91620001fd565b9181191691161790565b90620002386200023262000240926200017f565b6200018d565b825462000203565b9055565b5f1b90565b906200025c60018060a01b039162000244565b9181191691161790565b90565b620002826200027c6200028892620000ae565b62000266565b620000ae565b90565b620002969062000269565b90565b620002a4906200028b565b90565b90565b90620002c4620002be620002cc9262000299565b620002a7565b825462000249565b9055565b90620002dc9062000299565b5f5260205260405f2090565b90620002f660ff9162000244565b9181191691161790565b906200031a6200031462000322926200017f565b6200018d565b8254620002e8565b9055565b62000331906200028b565b90565b90565b90565b620003536200034d620003599262000334565b62000266565b62000337565b90565b906200036a5f199162000244565b9181191691161790565b6200038d62000387620003939262000337565b62000266565b62000337565b90565b90565b90620003b3620003ad620003bb9262000374565b62000396565b82546200035c565b9055565b6200045b9291620004316200044692620003db5f600362000190565b620003e85f6003620001d7565b620003f55f60036200021e565b62000402816001620002aa565b6200040f836002620002aa565b6200041c856003620002aa565b6200042b6001916004620002d0565b62000300565b620004406001916004620002d0565b62000300565b620004556001916004620002d0565b62000300565b6200047560016200046f60043390620002d0565b62000300565b6200048f60016200048960043290620002d0565b62000300565b620004b36001620004ad6004620004a63062000326565b90620002d0565b62000300565b620004cd620004c663687956c76200033a565b5f62000399565b56fe60806040526004361015610013575b61071e565b61001d5f356100ec565b80630d43aaf2146100e757806319c06429146100e25780631d84be44146100dd578063262a9dff146100d85780633587e1dc146100d357806369463ba1146100ce5780636a276f9d146100c95780637df73e27146100c45780639608060f146100bf5780639f2ce594146100ba578063b593a441146100b5578063d5ff5d37146100b05763f6d3378f0361000e576106ea565b61067d565b61064a565b610615565b6105a7565b610538565b610503565b6104d0565b610455565b610420565b6103eb565b610391565b6102ff565b60e01c90565b60405190565b5f80fd5b5f80fd5b5f91031261010a57565b6100fc565b5f1c90565b60018060a01b031690565b61012b6101309161010f565b610114565b90565b61013d905461011f565b90565b60a01c90565b60ff1690565b61015861015d91610140565b610146565b90565b61016a905461014c565b90565b60a81c90565b61017f6101849161016d565b610146565b90565b6101919054610173565b90565b60b01c90565b6101a66101ab91610194565b610146565b90565b6101b8905461019a565b90565b60b81c90565b6101cd6101d2916101bb565b610146565b90565b6101df90546101c1565b90565b60c01c90565b6101f46101f9916101e2565b610146565b90565b61020690546101e8565b90565b60056102165f8201610133565b916102225f8301610160565b9161022e5f8201610187565b9161023a5f83016101ae565b916102465f82016101d5565b9161025e60016102575f85016101fc565b9301610133565b90565b60018060a01b031690565b61027590610261565b90565b6102819061026c565b9052565b151590565b61029390610285565b9052565b949290979695939160e08601985f87016102b091610278565b602086016102bd9161028a565b604085016102ca9161028a565b606084016102d79161028a565b608083016102e49161028a565b60a082016102f19161028a565b60c0016102fd91610278565b565b346103365761030f366004610100565b61033261031a610209565b936103299795979391936100f2565b97889788610297565b0390f35b6100f8565b6103448161026c565b0361034b57565b5f80fd5b9050359061035c8261033b565b565b9060208282031261037757610374915f0161034f565b90565b6100fc565b919061038f905f6020850194019061028a565b565b346103c1576103bd6103ac6103a736600461035e565b610794565b6103b46100f2565b9182918261037c565b0390f35b6100f8565b90565b6103d2906103c6565b9052565b91906103e9905f602085019401906103c9565b565b3461041b5761041761040661040136600461035e565b610833565b61040e6100f2565b918291826103d6565b0390f35b6100f8565b3461045057610430366004610100565b61044c61043b6108d4565b6104436100f2565b918291826103d6565b0390f35b6100f8565b3461048557610465366004610100565b6104816104706108e8565b6104786100f2565b9182918261037c565b0390f35b6100f8565b61049381610285565b0361049a57565b5f80fd5b905035906104ab8261048a565b565b906020828203126104c6576104c3915f0161049e565b90565b6100fc565b5f0190565b346104fe576104e86104e33660046104ad565b610993565b6104f06100f2565b806104fa816104cb565b0390f35b6100f8565b3461053357610513366004610100565b61052f61051e61099e565b6105266100f2565b9182918261037c565b0390f35b6100f8565b346105685761056461055361054e36600461035e565b6109e0565b61055b6100f2565b9182918261037c565b0390f35b6100f8565b90916060828403126105a25761059f610588845f850161034f565b93610596816020860161049e565b9360400161034f565b90565b6100fc565b346105d6576105c06105ba36600461056d565b9161102b565b6105c86100f2565b806105d2816104cb565b0390f35b6100f8565b1c90565b90565b6105f29060086105f793026105db565b6105df565b90565b9061060591546105e2565b90565b6106125f806105fa565b90565b3461064557610625366004610100565b610641610630610608565b6106386100f2565b918291826103d6565b0390f35b6100f8565b346106785761066261065d3660046104ad565b611075565b61066a6100f2565b80610674816104cb565b0390f35b6100f8565b346106ab576106956106903660046104ad565b6110bd565b61069d6100f2565b806106a7816104cb565b0390f35b6100f8565b90916060828403126106e5576106e26106cb845f850161034f565b936106d9816020860161049e565b9360400161049e565b90565b6100fc565b34610719576107036106fd3660046106b0565b916115f5565b61070b6100f2565b80610715816104cb565b0390f35b6100f8565b5f80fd5b5f90565b90565b61073d61073861074292610261565b610726565b610261565b90565b61074e90610729565b90565b61075a90610745565b90565b9061076790610751565b5f5260205260405f2090565b61077f6107849161010f565b610146565b90565b6107919054610773565b90565b6107ab6107b0916107a3610722565b50600461075d565b610787565b90565b5f90565b90565b6107ce6107c96107d3926107b7565b610726565b6103c6565b90565b90565b6107ed6107e86107f2926107d6565b610726565b6103c6565b90565b90565b61080c610807610811926107f5565b610726565b6103c6565b90565b90565b61082b61082661083092610814565b610726565b6103c6565b90565b61083b6107b3565b506108466001610133565b6108586108528361026c565b9161026c565b146108c6576108676002610133565b6108796108738361026c565b9161026c565b146108b85761089a61089461088e6003610133565b9261026c565b9161026c565b146108ab576108a85f610817565b90565b6108b560036107f8565b90565b506108c360026107d9565b90565b506108d160016107ba565b90565b6108dc6107b3565b506108e561166d565b90565b6108f0610722565b506108fa336109e0565b90565b1561090457565b5f80fd5b610936906109313361092b6109256109206001610133565b61026c565b9161026c565b146108fd565b610986565b565b60a01b90565b9061094d60ff60a01b91610938565b9181191691161790565b61096090610285565b90565b90565b9061097b61097661098292610957565b610963565b825461093e565b9055565b610991906003610966565b565b61099c90610908565b565b6109a6610722565b506109b16003610160565b806109d0575b806109c0575b90565b506109cb60036101ae565b6109bd565b506109db6003610187565b6109b7565b6109e8610722565b506109f36001610133565b610a056109ff8361026c565b9161026c565b148015610a3e575b908115610a19575b5090565b9050610a37610a31610a2b6003610133565b9261026c565b9161026c565b145f610a15565b50610a496002610133565b610a5b610a558361026c565b9161026c565b14610a0d565b60209181520190565b5f7f66616b65207369676e6572000000000000000000000000000000000000000000910152565b610a9e600b602092610a61565b610aa781610a6a565b0190565b610ac09060208101905f818303910152610a91565b90565b15610aca57565b610ad26100f2565b62461bcd60e51b815280610ae860048201610aab565b0390fd5b90610b089291610b03610afe336109e0565b610ac3565b610ebe565b565b610b1e610b19610b2392610814565b610726565b610261565b90565b610b2f90610b0a565b90565b5f7f73656c6620746172676574206661696c65640000000000000000000000000000910152565b610b666012602092610a61565b610b6f81610b32565b0190565b610b889060208101905f818303910152610b59565b90565b15610b9257565b610b9a6100f2565b62461bcd60e51b815280610bb060048201610b73565b0390fd5b601f801991011690565b634e487b7160e01b5f52604160045260245ffd5b90610bdc90610bb4565b810190811067ffffffffffffffff821117610bf657604052565b610bbe565b90610c0e610c076100f2565b9283610bd2565b565b610c1a60e0610bfb565b90565b5f90565b5f90565b610c2d610c10565b90602080808080808088610c3f610c1d565b815201610c4a610c21565b815201610c55610c21565b815201610c60610c21565b815201610c6b610c21565b815201610c76610c21565b815201610c81610c1d565b81525050565b610c8f610c25565b90565b90610c9c90610285565b9052565b90610caa9061026c565b9052565b610cb8905161026c565b90565b5f1b90565b90610cd160018060a01b0391610cbb565b9181191691161790565b90565b90610cf3610cee610cfa92610751565b610cdb565b8254610cc0565b9055565b610d089051610285565b90565b60a81b90565b90610d2060ff60a81b91610d0b565b9181191691161790565b90610d3f610d3a610d4692610957565b610963565b8254610d11565b9055565b60b01b90565b90610d5f60ff60b01b91610d4a565b9181191691161790565b90610d7e610d79610d8592610957565b610963565b8254610d50565b9055565b60b81b90565b90610d9e60ff60b81b91610d89565b9181191691161790565b90610dbd610db8610dc492610957565b610963565b8254610d8f565b9055565b60c01b90565b90610ddd60ff60c01b91610dc8565b9181191691161790565b90610dfc610df7610e0392610957565b610963565b8254610dce565b9055565b90610eaa60c06001610eb094610e2a5f8201610e245f8801610cae565b90610cde565b610e425f8201610e3c60208801610cfe565b90610966565b610e5a5f8201610e5460408801610cfe565b90610d2a565b610e725f8201610e6c60608801610cfe565b90610d69565b610e8a5f8201610e8460808801610cfe565b90610da8565b610ea25f8201610e9c60a08801610cfe565b90610de7565b019201610cae565b90610cde565b565b90610ebc91610e07565b565b610f8792610f77610f809282610ee4610ede610ed95f610b26565b61026c565b9161026c565b148015610fc2575b610ef590610b8b565b610f6f610f0133610833565b95610f0a610c87565b9680610f1f610f1960016107ba565b916103c6565b14610faf575b80610f39610f3360026107d9565b916103c6565b14610f9c575b610f52610f4c60036107f8565b916103c6565b14610f89575b610f66600160208901610c92565b60a08701610c92565b5f8501610ca0565b60c08301610ca0565b6005610eb2565b565b610f97600160808901610c92565b610f58565b610faa600160608a01610c92565b610f3f565b610fbd600160408a01610c92565b610f25565b50610fcc83610833565b610fde610fd85f610817565b916103c6565b1180611010575b80610ff0575b610eec565b50610ef5836110076110013361026c565b9161026c565b14159050610feb565b508061102461101e3361026c565b9161026c565b1415610fe5565b906110369291610aec565b565b611066906110613361105b6110556110506003610133565b61026c565b9161026c565b146108fd565b611068565b565b611073906003610d69565b565b61107e90611038565b565b6110ae906110a9336110a361109d6110986002610133565b61026c565b9161026c565b146108fd565b6110b0565b565b6110bb906003610d2a565b565b6110c690611080565b565b906110e492916110df6110da336109e0565b610ac3565b61114c565b565b634e487b7160e01b5f52601160045260245ffd5b611103906103c6565b5f1981146111115760010190565b6110e6565b9061112260ff91610cbb565b9181191691161790565b9061114161113c61114892610957565b610963565b8254611116565b9055565b9161115a6001600501610133565b61117461116e6111695f610b26565b61026c565b9161026c565b148015611595575b61118590610b8b565b5f1461157c5761119433610833565b6111a05f600501610160565b80611561575b8061153c575b80611517575b611504575b6111c35f600501610160565b806114e9575b806114c4575b8061149f575b61148c575b6111e65f600501610160565b9081611470575b508061144b575b80611426575b611413575b6112085f610817565b6112145f600501610187565b611405575b6112255f6005016101ae565b6113f7575b6112365f6005016101d5565b6113e9575b6112475f600501610160565b90816113cd575b50806113a8575b80611383575b611265575b50505b565b6112726001600501610133565b61128c6112866112815f610b26565b61026c565b9161026c565b145f146112c257906112a36112a89291600461075d565b61112c565b5b6112bb6112b4610c87565b6005610eb2565b5f80611260565b506112d86112d36001600501610133565b610833565b806112ec6112e660016107ba565b916103c6565b145f1461132657506112ff906001610cde565b5b61130b5f6003610966565b6113165f6003610d2a565b6113215f6003610d69565b6112a9565b8061133a61133460026107d9565b916103c6565b145f14611353575061134d906002610cde565b5b611300565b61136661136060036107f8565b916103c6565b14611372575b5061134e565b61137d906003610cde565b5f61136c565b506113905f6005016101fc565b6113a261139c83610285565b91610285565b1461125b565b506113b55f600501610133565b6113c76113c18461026c565b9161026c565b14611255565b90506113e26113dc60026107d9565b916103c6565b145f61124e565b6113f2906110fa565b61123b565b611400906110fa565b61122a565b61140e906110fa565b611219565b61142160015f600501610da8565b6111ff565b506114335f6005016101fc565b61144561143f83610285565b91610285565b146111fa565b506114585f600501610133565b61146a6114648461026c565b9161026c565b146111f4565b905061148561147f60036107f8565b916103c6565b145f6111ed565b61149a60015f600501610d69565b6111da565b506114ac5f6005016101fc565b6114be6114b884610285565b91610285565b146111d5565b506114d15f600501610133565b6114e36114dd8561026c565b9161026c565b146111cf565b50806114fe6114f860026107d9565b916103c6565b146111c9565b61151260015f600501610d2a565b6111b7565b506115245f6005016101fc565b61153661153084610285565b91610285565b146111b2565b506115495f600501610133565b61155b6115558561026c565b9161026c565b146111ac565b508061157661157060016107ba565b916103c6565b146111a6565b5050611590611589610c87565b6005610eb2565b611263565b506115ab6115a66001600501610133565b610833565b6115bd6115b75f610817565b916103c6565b11806115c9575b61117c565b506111856115da6001600501610133565b6115ec6115e63361026c565b9161026c565b141590506115c4565b9061160092916110c8565b565b61160e6116139161010f565b6105df565b90565b6116209054611602565b90565b611632611638919392936103c6565b926103c6565b820391821161164357565b6110e6565b61165761165d919392936103c6565b926103c6565b820180921161166857565b6110e6565b6116756107b3565b506116ac61169c61168542611766565b6116966116915f611616565b611766565b90611623565b6116a660016107ba565b90611648565b90565b90565b6116c66116c16116cb926116af565b610726565b6103c6565b90565b6116da620151806116b2565b90565b6116ec6116f2919392936103c6565b926103c6565b916116fe8382026103c6565b92818404149015171561170d57565b6110e6565b61172d60016117286117226116ce565b916107ba565b6116dd565b90565b634e487b7160e01b5f52601260045260245ffd5b611750611756916103c6565b916103c6565b908115611761570490565b611730565b611781906117726107b3565b5061177b611712565b90611744565b9056fea2646970667358221220923d1b6673ba14aa3f3b64d74d6fa99d3cca587d8cdb4bb4d364c74b02c25ac764736f6c634300081800336080604052346200002d5762000014620000ae565b6200001e62000033565b6123cc620000c682396123cc90f35b62000039565b60405190565b5f80fd5b5f1b90565b90620000505f19916200003d565b9181191691161790565b90565b90565b90565b6200007c6200007662000082926200005a565b62000060565b6200005d565b90565b90565b90620000a26200009c620000aa9262000063565b62000085565b825462000042565b9055565b620000c3674563918244f40000600e62000088565b56fe60806040526004361015610018575b361561001657005b005b6100225f356100d1565b80630d43aaf2146100cc57806312065fe0146100c757806315ec7fad146100c2578063379a423c146100bd57806341ffe7c4146100b857806360af454d146100b35780637d8ec03a146100ae5780638da5cb5b146100a9578063abb8c965146100a4578063b90306ad1461009f5763f3fef3a30361000e5761061b565b6105c5565b610591565b61050c565b6104c2565b610453565b610420565b6103eb565b610362565b6102e7565b610289565b60e01c90565b60405190565b5f80fd5b5f80fd5b5f9103126100ef57565b6100e1565b5f1c90565b60018060a01b031690565b610110610115916100f4565b6100f9565b90565b6101229054610104565b90565b60a01c90565b60ff1690565b61013d61014291610125565b61012b565b90565b61014f9054610131565b90565b60a81c90565b61016461016991610152565b61012b565b90565b6101769054610158565b90565b60b01c90565b61018b61019091610179565b61012b565b90565b61019d905461017f565b90565b60b81c90565b6101b26101b7916101a0565b61012b565b90565b6101c490546101a6565b90565b600d6101d45f8201610118565b916101e05f8301610145565b916101ec5f820161016c565b916102035f6101fc818501610193565b93016101ba565b90565b60018060a01b031690565b61021a90610206565b90565b61022690610211565b9052565b151590565b6102389061022a565b9052565b90959492610287946102766102809261026c60809661026260a088019c5f89019061021d565b602087019061022f565b604085019061022f565b606083019061022f565b019061022f565b565b346102bd576102993660046100e5565b6102b96102a46101c7565b916102b09593956100d7565b9586958661023c565b0390f35b6100dd565b90565b6102ce906102c2565b9052565b91906102e5905f602085019401906102c5565b565b34610317576102f73660046100e5565b610313610302610680565b61030a6100d7565b918291826102d2565b0390f35b6100dd565b610325816102c2565b0361032c57565b5f80fd5b9050359061033d8261031c565b565b9060208282031261035857610355915f01610330565b90565b6100e1565b5f0190565b346103905761037a61037536600461033f565b6109f5565b6103826100d7565b8061038c8161035d565b0390f35b6100dd565b61039e81610211565b036103a557565b5f80fd5b905035906103b682610395565b565b906020828203126103d1576103ce915f016103a9565b90565b6100e1565b91906103e9905f6020850194019061022f565b565b3461041b576104176104066104013660046103b8565b610a04565b61040e6100d7565b918291826103d6565b0390f35b6100dd565b3461044e576104386104333660046103b8565b61113c565b6104406100d7565b8061044a8161035d565b0390f35b6100dd565b346104815761046b6104663660046103b8565b61128b565b6104736100d7565b8061047d8161035d565b0390f35b6100dd565b1c90565b90565b61049d9060086104a29302610486565b61048a565b90565b906104b0915461048d565b90565b6104bf600e5f906104a5565b90565b346104f2576104d23660046100e5565b6104ee6104dd6104b3565b6104e56100d7565b918291826102d2565b0390f35b6100dd565b919061050a905f6020850194019061021d565b565b3461053c5761051c3660046100e5565b6105386105276112f2565b61052f6100d7565b918291826104f7565b0390f35b6100dd565b61054a8161022a565b0361055157565b5f80fd5b9050359061056282610541565b565b919060408382031261058c5780610580610589925f86016103a9565b93602001610555565b90565b6100e1565b346105c0576105aa6105a4366004610564565b9061179f565b6105b26100d7565b806105bc8161035d565b0390f35b6100dd565b6105d86105d336600461033f565b61193a565b6105e06100d7565b806105ea8161035d565b0390f35b9190604083820312610616578061060a610613925f86016103a9565b93602001610330565b90565b6100e1565b61062f6106293660046105ee565b90611b90565b6106376100d7565b806106418161035d565b0390f35b5f90565b90565b61066061065b61066592610206565b610649565b610206565b90565b6106719061064c565b90565b61067d90610668565b90565b610688610645565b5061069230610674565b3190565b60018060a01b031690565b6106ad6106b2916100f4565b610696565b90565b6106bf90546106a1565b90565b6106cb90610668565b90565b601f801991011690565b634e487b7160e01b5f52604160045260245ffd5b906106f6906106ce565b810190811067ffffffffffffffff82111761071057604052565b6106d8565b60e01b90565b9050519061072882610541565b565b9060208282031261074357610740915f0161071b565b90565b6100e1565b6107506100d7565b3d5f823e3d90fd5b60209181520190565b5f7f6f776e2e696e76616c69642e6973536166650000000000000000000000000000910152565b6107956012602092610758565b61079e81610761565b0190565b6107b79060208101905f818303910152610788565b90565b156107c157565b6107c96100d7565b62461bcd60e51b8152806107df600482016107a2565b0390fd5b5f7f496e76616c696420536166654f776e6572000000000000000000000000000000910152565b6108176011602092610758565b610820816107e3565b0190565b6108399060208101905f81830391015261080a565b90565b1561084357565b61084b6100d7565b62461bcd60e51b81528061086160048201610824565b0390fd5b61089390602061087d61087860026106b5565b6106c2565b636a276f9d9061088b6100d7565b948592610715565b825281806108a36004820161035d565b03915afa91821561098957610901926108c3915f9161095b575b506107ba565b60206108d76108d260026106b5565b6106c2565b6319c06429906108f633926108ea6100d7565b96879485938493610715565b8352600483016104f7565b03915afa9182156109565761092692610921915f91610928575b5061083c565b6109e8565b565b610949915060203d811161094f575b61094181836106ec565b81019061072a565b5f61091b565b503d610937565b610748565b61097c915060203d8111610982575b61097481836106ec565b81019061072a565b5f6108bd565b503d61096a565b610748565b5f1b90565b9061099f5f199161098e565b9181191691161790565b6109bd6109b86109c2926102c2565b610649565b6102c2565b90565b90565b906109dd6109d86109e4926109a9565b6109c5565b8254610993565b9055565b6109f390600e6109c8565b565b6109fe90610865565b565b5f90565b610a0c610a00565b50610a4e6020610a24610a1f60026106b5565b6106c2565b6319c0642990610a438592610a376100d7565b95869485938493610715565b8352600483016104f7565b03915afa908115610ac0575f91610a92575b50908115610a6d575b5090565b9050610a8b610a85610a7f600c610118565b92610211565b91610211565b145f610a69565b610ab3915060203d8111610ab9575b610aab81836106ec565b81019061072a565b5f610a60565b503d610aa1565b610748565b60018060a01b031690565b610adc610ae1916100f4565b610ac5565b90565b610aee9054610ad0565b90565b610afa90610668565b90565b5f7f6f776d2e66616b652e2064656c65676174650000000000000000000000000000910152565b610b316012602092610758565b610b3a81610afd565b0190565b610b539060208101905f818303910152610b24565b90565b15610b5d57565b610b656100d7565b62461bcd60e51b815280610b7b60048201610b3e565b0390fd5b610bac6020610b96610b9160026106b5565b6106c2565b636a276f9d90610ba46100d7565b938492610715565b82528180610bbc6004820161035d565b03915afa8015610cde57610bd7915f91610cb0575b506107ba565b610be9610be46001610ae4565b610af1565b610bfb610bf533610211565b91610211565b14908115610c17575b610c10610c1592610b56565b610ffd565b565b610c5a91506020610c30610c2b60026106b5565b6106c2565b637df73e2790610c4f3392610c436100d7565b96879485938493610715565b8352600483016104f7565b03915afa918215610cab57610c1592610c10915f91610c7d575b50925050610c04565b610c9e915060203d8111610ca4575b610c9681836106ec565b81019061072a565b5f610c74565b503d610c8c565b610748565b610cd1915060203d8111610cd7575b610cc981836106ec565b81019061072a565b5f610bd1565b503d610cbf565b610748565b90505190610cf08261031c565b565b90602082820312610d0b57610d08915f01610ce3565b90565b6100e1565b90610d23610d1c6100d7565b92836106ec565b565b610d2f60a0610d10565b90565b5f90565b5f90565b610d42610d25565b9060208080808086610d52610d32565b815201610d5d610d36565b815201610d68610d36565b815201610d73610d36565b815201610d7e610d36565b81525050565b610d8c610d3a565b90565b90610d999061022a565b9052565b90565b610db4610daf610db992610d9d565b610649565b6102c2565b90565b90565b610dd3610dce610dd892610dbc565b610649565b6102c2565b90565b90565b610df2610ded610df792610ddb565b610649565b6102c2565b90565b90610e0490610211565b9052565b610e129051610211565b90565b90610e2660018060a01b039161098e565b9181191691161790565b610e3990610668565b90565b90565b90610e54610e4f610e5b92610e30565b610e3c565b8254610e15565b9055565b610e69905161022a565b90565b60a01b90565b90610e8160ff60a01b91610e6c565b9181191691161790565b610e949061022a565b90565b90565b90610eaf610eaa610eb692610e8b565b610e97565b8254610e72565b9055565b60a81b90565b90610ecf60ff60a81b91610eba565b9181191691161790565b90610eee610ee9610ef592610e8b565b610e97565b8254610ec0565b9055565b60b01b90565b90610f0e60ff60b01b91610ef9565b9181191691161790565b90610f2d610f28610f3492610e8b565b610e97565b8254610eff565b9055565b60b81b90565b90610f4d60ff60b81b91610f38565b9181191691161790565b90610f6c610f67610f7392610e8b565b610e97565b8254610f3e565b9055565b90610fe960805f610fef94610f99828201610f93848801610e08565b90610e3f565b610fb1828201610fab60208801610e5f565b90610e9a565b610fc9828201610fc360408801610e5f565b90610ed9565b610fe1828201610fdb60608801610e5f565b90610f18565b019201610e5f565b90610f57565b565b90610ffb91610f77565b565b61103f90602061101561101060026106b5565b6106c2565b631d84be449061103433926110286100d7565b96879485938493610715565b8352600483016104f7565b03915afa918215611137576110ce926110c7915f91611109575b5091611063610d84565b92611072600160208601610d8f565b806110866110806001610da0565b916102c2565b146110f6575b806110a061109a6002610dbf565b916102c2565b146110e3575b6110b96110b36003610dde565b916102c2565b146110d0575b5f8301610dfa565b600d610ff1565b565b6110de600160808501610d8f565b6110bf565b6110f1600160608601610d8f565b6110a6565b611104600160408601610d8f565b61108c565b61112a915060203d8111611130575b61112281836106ec565b810190610cf2565b5f611059565b503d611118565b610748565b61114590610b7f565b565b60018060a01b031690565b61115e611163916100f4565b611147565b90565b6111709054611152565b90565b61117c90610668565b90565b90565b61119661119161119b9261117f565b610649565b610206565b90565b6111a790611182565b90565b5f7f6f776e2e686578626173652e6661696c65640000000000000000000000000000910152565b6111de6012602092610758565b6111e7816111aa565b0190565b6112009060208101905f8183039101526111d1565b90565b1561120a57565b6112126100d7565b62461bcd60e51b815280611228600482016111eb565b0390fd5b6112359061064c565b90565b6112419061122c565b90565b61124d9061064c565b90565b61125990611244565b90565b61126590611244565b90565b90565b9061128061127b6112879261125c565b611268565b8254610e15565b9055565b6112de6112d96112e4926112c96112a96112a45f611166565b611173565b6112c36112bd6112b85f61119e565b610211565b91610211565b14611203565b6112d432600c610e3f565b611238565b611250565b5f61126b565b6112ec611d2c565b565b5f90565b6112fa6112ee565b50611305600c610118565b90565b90611336602061132061131b60026106b5565b6106c2565b636a276f9d9061132e6100d7565b938492610715565b825281806113466004820161035d565b03915afa801561146857611361915f9161143a575b506107ba565b61137361136e6001610ae4565b610af1565b61138561137f33610211565b91610211565b149182156113a1575b61139a61139f93610b56565b6114b9565b565b6113e4925060206113ba6113b560026106b5565b6106c2565b637df73e27906113d933926113cd6100d7565b97889485938493610715565b8352600483016104f7565b03915afa9283156114355761139f9361139a915f91611407575b5093505061138e565b611428915060203d811161142e575b61142081836106ec565b81019061072a565b5f6113fe565b503d611416565b610748565b61145b915060203d8111611461575b61145381836106ec565b81019061072a565b5f61135b565b503d611449565b610748565b61148161147c6114869261117f565b610649565b6102c2565b90565b634e487b7160e01b5f52601160045260245ffd5b6114a6906102c2565b5f1981146114b45760010190565b611489565b905f146117875761150160206114d76114d260026106b5565b6106c2565b631d84be44906114f633926114ea6100d7565b95869485938493610715565b8352600483016104f7565b03915afa908115611782575f91611754575b506115205f600d01610145565b80611739575b80611714575b611701575b61153d5f600d01610145565b806116e6575b806116c1575b6116ae575b61155a5f600d01610145565b9081611692575b508061166d575b61165a575b6115765f61146d565b6115825f600d0161016c565b61164c575b6115935f600d01610193565b61163e575b6115a45f600d016101ba565b611630575b6115b55f600d01610145565b9081611614575b50806115ef575b6115cc575b505b565b6115d790600c610e3f565b6115e96115e2610d84565b600d610ff1565b5f6115c8565b506115fc5f600d01610118565b61160e61160883610211565b91610211565b146115c3565b90506116296116236002610dbf565b916102c2565b145f6115bc565b6116399061149d565b6115a9565b6116479061149d565b611598565b6116559061149d565b611587565b61166860015f600d01610f57565b61156d565b5061167a5f600d01610118565b61168c61168683610211565b91610211565b14611568565b90506116a76116a16003610dde565b916102c2565b145f611561565b6116bc60015f600d01610f18565b61154e565b506116ce5f600d01610118565b6116e06116da84610211565b91610211565b14611549565b50806116fb6116f56002610dbf565b916102c2565b14611543565b61170f60015f600d01610ed9565b611531565b506117215f600d01610118565b61173361172d84610211565b91610211565b1461152c565b508061174e6117486001610da0565b916102c2565b14611526565b611775915060203d811161177b575b61176d81836106ec565b810190610cf2565b5f611513565b503d611763565b610748565b5061179a611793610d84565b600d610ff1565b6115ca565b906117a991611308565b565b5f7f6f776e2e6e6f6e617574682e44414f0000000000000000000000000000000000910152565b6117df600f602092610758565b6117e8816117ab565b0190565b6118019060208101905f8183039101526117d2565b90565b1561180b57565b6118136100d7565b62461bcd60e51b815280611829600482016117ec565b0390fd5b61185b90602061184561184060026106b5565b6106c2565b636a276f9d906118536100d7565b948592610715565b8252818061186b6004820161035d565b03915afa9182156118ed576118bd9261188b915f916118bf575b506107ba565b6118b86118a061189b6001610ae4565b610af1565b6118b26118ac33610211565b91610211565b14611804565b6118fe565b565b6118e0915060203d81116118e6575b6118d881836106ec565b81019061072a565b5f611885565b503d6118ce565b610748565b6118fb90610668565b90565b5f8080809361191c6119176119128461119e565b611238565b6118f2565b828215611931575bf11561192c57565b610748565b506108fc611924565b6119439061182d565b565b5f7f6f776e2e64656661756c742e73656e6465720000000000000000000000000000910152565b6119796012602092610758565b61198281611945565b0190565b61199b9060208101905f81830391015261196c565b90565b156119a557565b6119ad6100d7565b62461bcd60e51b8152806119c360048201611986565b0390fd5b906119f6916119f1816119ea6119e46119df5f61119e565b610211565b91610211565b141561199e565b6119f8565b565b90611a27916020611a11611a0c60026106b5565b6106c2565b636a276f9d90611a1f6100d7565b958692610715565b82528180611a376004820161035d565b03915afa928315611ab957611a8993611a57915f91611a8b575b506107ba565b611a84611a6c611a676001610ae4565b610af1565b611a7e611a7833610211565b91610211565b14611804565b611b40565b565b611aac915060203d8111611ab2575b611aa481836106ec565b81019061072a565b5f611a51565b503d611a9a565b610748565b5f7f6f776e2e696e76616c69642e616d6f756e740000000000000000000000000000910152565b611af26012602092610758565b611afb81611abe565b0190565b611b149060208101905f818303910152611ae5565b90565b15611b1e57565b611b266100d7565b62461bcd60e51b815280611b3c60048201611aff565b0390fd5b5f808093611b72611b6d8395611b6884611b62611b5c8861146d565b916102c2565b11611b17565b611238565b6118f2565b828215611b87575bf115611b8257565b610748565b506108fc611b7a565b90611b9a916119c7565b565b90505190611ba982610395565b565b90602082820312611bc457611bc1915f01611b9c565b90565b6100e1565b611bd29061064c565b90565b611bde90611bc9565b90565b611bea90611bc9565b90565b90565b90611c05611c00611c0c92611be1565b611bed565b8254610e15565b9055565b611c199061064c565b90565b611c2590611c10565b90565b611c3190611c10565b90565b90565b90611c4c611c47611c5392611c28565b611c34565b8254610e15565b9055565b611c609061064c565b90565b611c6c90611c57565b90565b611c7890611c57565b90565b90565b90611c93611c8e611c9a92611c6f565b611c7b565b8254610e15565b9055565b611ca79061064c565b90565b611cb390611c9e565b90565b611cbf90611c9e565b90565b90565b90611cda611cd5611ce192611cb6565b611cc2565b8254610e15565b9055565b611cee9061064c565b90565b611cfa90611ce5565b90565b611d0690611ce5565b90565b90565b90611d21611d1c611d2892611cfd565b611d09565b8254610e15565b9055565b611d3d611d385f611166565b611173565b611d57611d51611d4c5f61119e565b610211565b91610211565b1461239457611d886020611d72611d6d5f611166565b611173565b634162169f90611d806100d7565b938492610715565b82528180611d986004820161035d565b03915afa90811561238f57611dbf91611db8915f91612361575b50611bd5565b6001611bf0565b611deb6020611dd5611dd05f611166565b611173565b63b57dbdc690611de36100d7565b938492610715565b82528180611dfb6004820161035d565b03915afa90811561235c57611e2291611e1b915f9161232e575b50611c1c565b6002611c37565b611e4e6020611e38611e335f611166565b611173565b63cfbffe5390611e466100d7565b938492610715565b82528180611e5e6004820161035d565b03915afa90811561232957611e8591611e7e915f916122fb575b50611c63565b6003611c7e565b611eb16020611e9b611e965f611166565b611173565b63ab6e844f90611ea96100d7565b938492610715565b82528180611ec16004820161035d565b03915afa9081156122f657611ee891611ee1915f916122c8575b50611caa565b6004611cc5565b611f146020611efe611ef95f611166565b611173565b639a7c407790611f0c6100d7565b938492610715565b82528180611f246004820161035d565b03915afa9081156122c357611f4b91611f44915f91612295575b50611cf1565b6005611d0c565b611f776020611f61611f5c5f611166565b611173565b63aa0ddc1690611f6f6100d7565b938492610715565b82528180611f876004820161035d565b03915afa801561229057611fa4915f91612262575b506007610e3f565b611fd06020611fba611fb55f611166565b611173565b636b4aefc690611fc86100d7565b938492610715565b82528180611fe06004820161035d565b03915afa801561225d57611ffd915f9161222f575b506008610e3f565b612029602061201361200e5f611166565b611173565b6324768d91906120216100d7565b938492610715565b825281806120396004820161035d565b03915afa801561222a57612056915f916121fc575b50600b610e3f565b612082602061206c6120675f611166565b611173565b63640274279061207a6100d7565b938492610715565b825281806120926004820161035d565b03915afa80156121f7576120af915f916121c9575b506009610e3f565b6120db60206120c56120c05f611166565b611173565b6330125cf5906120d36100d7565b938492610715565b825281806120eb6004820161035d565b03915afa80156121c457612108915f91612196575b50600a610e3f565b612134602061211e6121195f611166565b611173565b63d3d1b0969061212c6100d7565b938492610715565b825281806121446004820161035d565b03915afa801561219157612161915f91612163575b506006610e3f565b565b612184915060203d811161218a575b61217c81836106ec565b810190611bab565b5f612159565b503d612172565b610748565b6121b7915060203d81116121bd575b6121af81836106ec565b810190611bab565b5f612100565b503d6121a5565b610748565b6121ea915060203d81116121f0575b6121e281836106ec565b810190611bab565b5f6120a7565b503d6121d8565b610748565b61221d915060203d8111612223575b61221581836106ec565b810190611bab565b5f61204e565b503d61220b565b610748565b612250915060203d8111612256575b61224881836106ec565b810190611bab565b5f611ff5565b503d61223e565b610748565b612283915060203d8111612289575b61227b81836106ec565b810190611bab565b5f611f9c565b503d612271565b610748565b6122b6915060203d81116122bc575b6122ae81836106ec565b810190611bab565b5f611f3e565b503d6122a4565b610748565b6122e9915060203d81116122ef575b6122e181836106ec565b810190611bab565b5f611edb565b503d6122d7565b610748565b61231c915060203d8111612322575b61231481836106ec565b810190611bab565b5f611e78565b503d61230a565b610748565b61234f915060203d8111612355575b61234781836106ec565b810190611bab565b5f611e15565b503d61233d565b610748565b612382915060203d8111612388575b61237a81836106ec565b810190611bab565b5f611db2565b503d612370565b610748565b56fea26469706673582212200cf83e19018f884b39c8fed8114fa34790cf62122304d32c223a283549a6660c64736f6c634300081800336080604052346300000033576300000017630000149f565b6300000023630000003a565b6161976300002c1b823961619790f35b6300000040565b60405190565b5f80fd5b5f1b90565b9063000000595f19916300000044565b9181191691161790565b90565b90565b90565b630000008a63000000836300000091926300000063565b6300000069565b6300000066565b90565b90565b9063000000b663000000af63000000bf92630000006c565b6300000094565b82546300000049565b9055565b90565b63000000e463000000dd63000000eb9263000000c3565b6300000069565b6300000066565b90565b90630000010d630000010663000001169263000000c6565b6300000094565b82546300000049565b9055565b90565b630000013b6300000134630000014292630000011a565b6300000069565b6300000066565b90565b906300000164630000015d630000016d92630000011d565b6300000094565b82546300000049565b9055565b90565b6300000192630000018b6300000199926300000171565b6300000069565b6300000066565b90565b9063000001bb63000001b463000001c4926300000174565b6300000094565b82546300000049565b9055565b90565b63000001e963000001e263000001f09263000001c8565b6300000069565b6300000066565b90565b906300000212630000020b630000021b9263000001cb565b6300000094565b82546300000049565b9055565b90565b63000002406300000239630000024792630000021f565b6300000069565b6300000066565b90565b90630000026963000002626300000272926300000222565b6300000094565b82546300000049565b9055565b90565b63000002976300000290630000029e926300000276565b6300000069565b6300000066565b90565b9063000002c063000002b963000002c9926300000279565b6300000094565b82546300000049565b9055565b90565b63000002ee63000002e763000002f59263000002cd565b6300000069565b6300000066565b90565b906300000317630000031063000003209263000002d0565b6300000094565b82546300000049565b9055565b90565b6300000345630000033e630000034c926300000324565b6300000069565b6300000066565b90565b90630000036e63000003676300000377926300000327565b6300000094565b82546300000049565b9055565b90565b630000039c630000039563000003a392630000037b565b6300000069565b6300000066565b90565b9063000003c563000003be63000003ce92630000037e565b6300000094565b82546300000049565b9055565b90565b63000003f363000003ec63000003fa9263000003d2565b6300000069565b6300000066565b90565b90630000041c630000041563000004259263000003d5565b6300000094565b82546300000049565b9055565b90565b630000044a63000004436300000451926300000429565b6300000069565b6300000066565b90565b906300000473630000046c630000047c92630000042c565b6300000094565b82546300000049565b9055565b90565b63000004a1630000049a63000004a8926300000480565b6300000069565b6300000066565b90565b9063000004ca63000004c363000004d3926300000483565b6300000094565b82546300000049565b9055565b90565b63000004f863000004f163000004ff9263000004d7565b6300000069565b6300000066565b90565b906300000521630000051a630000052a9263000004da565b6300000094565b82546300000049565b9055565b601f801991011690565b634e487b7160e01b5f52604160045260245ffd5b90630000055a90630000052e565b810190811060018060401b03821117630000057457604052565b6300000538565b906300000596630000058d630000003a565b9283630000054c565b565b63000005a660e0630000057b565b90565b5f90565b63000005b96300000598565b9060208080808080808863000005cf63000005a9565b81520163000005de63000005a9565b81520163000005ed63000005a9565b81520163000005fc63000005a9565b815201630000060b63000005a9565b815201630000061a63000005a9565b815201630000062963000005a9565b81525050565b630000063b63000005ad565b90565b90630000064c906300000066565b9052565b90565b6300000671630000066a6300000678926300000650565b6300000069565b6300000066565b90565b90565b630000069c630000069563000006a392630000067b565b6300000069565b6300000066565b90565b90565b63000006c763000006c063000006ce9263000006a6565b6300000069565b6300000066565b90565b63000006df90516300000066565b90565b630000070063000006f96300000707926300000066565b6300000069565b6300000066565b90565b906300000729630000072263000007329263000006e2565b6300000094565b82546300000049565b9055565b90630000081460c06006630000081c9463000007655f8201630000075d5f880163000006d1565b90630000070a565b630000078660018201630000077e6020880163000006d1565b90630000070a565b63000007a760028201630000079f6040880163000006d1565b90630000070a565b63000007c86003820163000007c06060880163000006d1565b90630000070a565b63000007e96004820163000007e16080880163000006d1565b90630000070a565b630000080a60058201630000080260a0880163000006d1565b90630000070a565b01920163000006d1565b90630000070a565b565b90630000082c916300000736565b565b90565b630000084f6300000848630000085692630000082e565b6300000069565b6300000066565b90565b90565b630000087a63000008736300000881926300000859565b6300000069565b6300000066565b90565b63000008926060630000057b565b90565b63000008a16300000884565b90602080808463000008b363000005a9565b81520163000008c263000005a9565b81520163000008d163000005a9565b81525050565b63000008e36300000895565b90565b90565b63000009076300000900630000090e9263000008e6565b6300000069565b6300000066565b90565b90565b6300000932630000092b6300000939926300000911565b6300000069565b6300000066565b90565b90630000099660406002630000099e94630000096b5f820163000009635f880163000006d1565b90630000070a565b630000098c6001820163000009846020880163000006d1565b90630000070a565b01920163000006d1565b90630000070a565b565b9063000009ae91630000093c565b565b90565b63000009d163000009ca63000009d89263000009b0565b6300000069565b6300000066565b90565b63000009e960a0630000057b565b90565b5f90565b63000009fc63000009db565b90602080808080866300000a1063000005a9565b8152016300000a1f63000009ec565b8152016300000a2e63000009ec565b8152016300000a3d63000009ec565b8152016300000a4c63000009ec565b81525050565b6300000a5e63000009f0565b90565b90565b6300000a826300000a7b6300000a89926300000a61565b6300000069565b6300000066565b90565b151590565b906300000a9f906300000a8c565b9052565b6300000ab190516300000a8c565b90565b906300000ac460ff916300000044565b9181191691161790565b6300000adb906300000a8c565b90565b90565b906300000b006300000af96300000b09926300000ace565b6300000ade565b82546300000ab4565b9055565b60081b90565b906300000b2461ff00916300000b0d565b9181191691161790565b906300000b4d6300000b466300000b56926300000ace565b6300000ade565b82546300000b13565b9055565b60101b90565b906300000b7262ff0000916300000b5a565b9181191691161790565b906300000b9b6300000b946300000ba4926300000ace565b6300000ade565b82546300000b60565b9055565b60181b90565b906300000bc163ff000000916300000ba8565b9181191691161790565b906300000bea6300000be36300000bf3926300000ace565b6300000ade565b82546300000bae565b9055565b906300000c90608060016300000c98946300000c265f82016300000c1e5f880163000006d1565b90630000070a565b6300000c468282016300000c3e602088016300000aa3565b906300000ae1565b6300000c668282016300000c5e604088016300000aa3565b906300000b2e565b6300000c868282016300000c7e606088016300000aa3565b906300000b7c565b0192016300000aa3565b906300000bcb565b565b906300000ca8916300000bf7565b565b6300000cb86040630000057b565b90565b90565b6300000cdc6300000cd56300000ce3926300000cbb565b6300000069565b6300000066565b90565b906300000cf49063000003d5565b5f5260205260405f2090565b906300000d39602060016300000d41946300000d2f5f82016300000d275f880163000006d1565b90630000070a565b01920163000006d1565b90630000070a565b565b906300000d51916300000d00565b565b906300000d6190630000042c565b5f5260205260405f2090565b90565b6300000d8e6300000d876300000d95926300000d6d565b6300000069565b6300000066565b90565b90565b6300000db96300000db26300000dc0926300000d98565b6300000069565b6300000066565b90565b906300000dd1906300000d9b565b5f5260205260405f2090565b90565b6300000dfe6300000df76300000e05926300000ddd565b6300000069565b6300000066565b90565b906300000e16906300000a64565b5f5260205260405f2090565b90565b6300000e436300000e3c6300000e4a926300000e22565b6300000069565b6300000066565b90565b90565b6300000e6e6300000e676300000e75926300000e4d565b6300000069565b6300000066565b90565b906300000e86906300000e50565b5f5260205260405f2090565b90565b6300000eb36300000eac6300000eba926300000e92565b6300000069565b6300000066565b90565b906300000ecb906300000e95565b5f5260205260405f2090565b90565b6300000ef86300000ef16300000eff926300000ed7565b6300000069565b6300000066565b90565b906300000f10906300000cbe565b5f5260205260405f2090565b6300000f2a60a0630000057b565b90565b90565b6300000f4e6300000f476300000f55926300000f2d565b6300000069565b6300000066565b90565b906300000f669063000003d5565b5f5260205260405f2090565b90630000100e608060046300001016946300000fa15f82016300000f995f880163000006d1565b90630000070a565b6300000fc2600182016300000fba6020880163000006d1565b90630000070a565b6300000fe3600282016300000fdb6040880163000006d1565b90630000070a565b6300001004600382016300000ffc6060880163000006d1565b90630000070a565b01920163000006d1565b90630000070a565b565b906300001026916300000f72565b565b90630000103690630000042c565b5f5260205260405f2090565b90565b6300001063630000105c630000106a926300001042565b6300000069565b6300000066565b90565b90630000107b906300000d9b565b5f5260205260405f2090565b906300001095906300000a64565b5f5260205260405f2090565b9063000010af906300000e50565b5f5260205260405f2090565b90565b63000010dc63000010d563000010e39263000010bb565b6300000069565b6300000066565b90565b90565b63000011076300001100630000110e9263000010e6565b6300000069565b6300000066565b90565b90630000111f906300000e95565b5f5260205260405f2090565b906300001139906300000cbe565b5f5260205260405f2090565b90565b6300001166630000115f630000116d926300001145565b6300000069565b6300000066565b90565b90630000117e906300001148565b5f5260205260405f2090565b90630000119890630000085c565b5f5260205260405f2090565b9063000011b29063000004da565b5f5260205260405f2090565b90565b63000011df63000011d863000011e69263000011be565b6300000069565b6300000066565b90565b9063000011f79063000011c1565b5f5260205260405f2090565b90565b6300001224630000121d630000122b926300001203565b6300000069565b6300000066565b90565b90630000123c906300001206565b5f5260205260405f2090565b90565b630000126963000012626300001270926300001248565b6300000069565b6300000066565b90565b90630000128190630000124b565b5f5260205260405f2090565b90565b63000012ae63000012a763000012b592630000128d565b6300000069565b6300000066565b90565b9063000012c6906300001290565b5f5260205260405f2090565b9063000012e0906300001045565b5f5260205260405f2090565b63000012fa6060630000057b565b90565b90565b630000131e630000131763000013259263000012fd565b6300000069565b6300000066565b90565b90565b630000134963000013426300001350926300001328565b6300000069565b6300000066565b90565b906300001361906300000d9b565b5f5260205260405f2090565b9063000013c76040600263000013cf94630000139c5f820163000013945f880163000006d1565b90630000070a565b63000013bd6001820163000013b56020880163000006d1565b90630000070a565b01920163000006d1565b90630000070a565b565b9063000013df91630000136d565b565b9063000013ef906300000e50565b5f5260205260405f2090565b90565b630000141c630000141563000014239263000013fb565b6300000069565b6300000066565b90565b906300001434906300000cbe565b5f5260205260405f2090565b90565b6300001461630000145a6300001468926300001440565b6300000069565b6300000066565b90565b90630000147990630000042c565b5f5260205260405f2090565b906300001493906300000a64565b5f5260205260405f2090565b68015af1d78b58c4000063000014b89060306300000097565b671bc16d674ec8000063000014d090603163000000ee565b678ac7230489e8000063000014e89060326300000145565b601e63000014f9906033630000019c565b670de0b6b3a7640000630000151190603463000001f3565b686c6b935b8bbd400000630000152a906035630000024a565b670de0b6b3a7640000630000154290603663000001f3565b683635c9adc5dea00000630000155b90603763000002a1565b670de0b6b3a7640000630000157390603863000001f3565b69010f0cf064dd59200000630000158d90603963000002f8565b610140630000159f90603a630000034f565b601463000015b090603b63000003a6565b600163000015c190603c63000003fd565b600263000015d290603d6300000454565b61271063000015e490603e63000004ab565b600163000015f590603f63000003fd565b6001630000160690604063000003fd565b612710630000161890604163000004ab565b600a63000016299060426300000502565b6300001635630000062f565b600163000016449063000003d5565b815f0190630000165591630000063e565b60646300001664906300000653565b8160200190630000167691630000063e565b600163000016859063000003d5565b8160400190630000169791630000063e565b602363000016a690630000067e565b816060019063000016b891630000063e565b606463000016c7906300000653565b816080019063000016d991630000063e565b600163000016e89063000003d5565b8160a0019063000016fa91630000063e565b610258630000170a9063000006a9565b8160c00190630000171c91630000063e565b630000172b906012630000081e565b6300001737630000062f565b600163000017469063000003d5565b815f0190630000175791630000063e565b60646300001766906300000653565b8160200190630000177891630000063e565b600163000017879063000003d5565b8160400190630000179991630000063e565b600a63000017a89063000004da565b816060019063000017ba91630000063e565b606463000017c9906300000653565b816080019063000017db91630000063e565b600163000017ea9063000003d5565b8160a0019063000017fc91630000063e565b6103e8630000180c906300000831565b8160c00190630000181e91630000063e565b630000182d906019630000081e565b6300001839630000062f565b600163000018489063000003d5565b815f0190630000185991630000063e565b60646300001868906300000653565b8160200190630000187a91630000063e565b600163000018899063000003d5565b8160400190630000189b91630000063e565b600963000018aa90630000085c565b816060019063000018bc91630000063e565b600a63000018cb9063000004da565b816080019063000018dd91630000063e565b600163000018ec9063000003d5565b8160a0019063000018fe91630000063e565b610258630000190e9063000006a9565b8160c00190630000192091630000063e565b630000192f906020630000081e565b630000193b63000008d7565b6019630000194a9063000008e9565b815f0190630000195b91630000063e565b600a630000196a9063000004da565b8160200190630000197c91630000063e565b605a630000198b906300000914565b8160400190630000199d91630000063e565b63000019ac90602763000009a0565b63000019b863000008d7565b600a63000019c79063000004da565b815f019063000019d891630000063e565b600163000019e79063000003d5565b816020019063000019f991630000063e565b6101686300001a099063000009b3565b81604001906300001a1b91630000063e565b6300001a2a90602a63000009a0565b6300001a366300000a52565b60046300001a45906300000a64565b815f01906300001a5691630000063e565b5f81602001906300001a69916300000a91565b5f81604001906300001a7c916300000a91565b5f81606001906300001a8f916300000a91565b5f81608001906300001aa2916300000a91565b6300001ab190602d6300000c9a565b600760196300001ac16300000caa565b916300001acf906300000cbe565b5f8301906300001ae091630000063e565b6300001aed9063000008e9565b60208201906300001aff91630000063e565b600e60016300001b10916300000ce6565b906300001b1e916300000d43565b600760646300001b2e6300000caa565b916300001b3c906300000cbe565b5f8301906300001b4d91630000063e565b6300001b5a906300000653565b60208201906300001b6c91630000063e565b600e60026300001b7d916300000d53565b906300001b8b916300000d43565b60076101f46300001b9c6300000caa565b916300001baa906300000cbe565b5f8301906300001bbb91630000063e565b6300001bc8906300000d70565b60208201906300001bda91630000063e565b600e60036300001beb916300000dc3565b906300001bf9916300000d43565b60076107d06300001c0a6300000caa565b916300001c18906300000cbe565b5f8301906300001c2991630000063e565b6300001c36906300000de0565b60208201906300001c4891630000063e565b600e60046300001c59916300000e08565b906300001c67916300000d43565b60076113886300001c786300000caa565b916300001c86906300000cbe565b5f8301906300001c9791630000063e565b6300001ca4906300000e25565b60208201906300001cb691630000063e565b600e60056300001cc7916300000e78565b906300001cd5916300000d43565b60076127106300001ce66300000caa565b916300001cf4906300000cbe565b5f8301906300001d0591630000063e565b6300001d12906300000483565b60208201906300001d2491630000063e565b600e60066300001d35916300000ebd565b906300001d43916300000d43565b60076161a86300001d546300000caa565b916300001d62906300000cbe565b5f8301906300001d7391630000063e565b6300001d80906300000eda565b60208201906300001d9291630000063e565b600e60076300001da3916300000f02565b906300001db1916300000d43565b5f600660016005906001926300001dc86300000f1c565b946300001dd6906300000f30565b5f8601906300001de791630000063e565b6300001df4906300000e95565b60208501906300001e0691630000063e565b6300001e139063000003d5565b60408401906300001e2591630000063e565b6300001e32906300000e50565b60608301906300001e4491630000063e565b6300001e519063000003d5565b60808201906300001e6391630000063e565b601160016300001e74916300000f58565b906300001e82916300001018565b6001600360016005906001926300001e9a6300000f1c565b946300001ea89063000003d5565b5f8601906300001eb991630000063e565b6300001ec6906300000d9b565b60208501906300001ed891630000063e565b6300001ee59063000003d5565b60408401906300001ef791630000063e565b6300001f04906300000e50565b60608301906300001f1691630000063e565b6300001f239063000003d5565b60808201906300001f3591630000063e565b601160026300001f46916300001028565b906300001f54916300001018565b6002600f600a6005906001926300001f6c6300000f1c565b946300001f7a90630000042c565b5f8601906300001f8b91630000063e565b6300001f98906300001045565b60208501906300001faa91630000063e565b6300001fb79063000004da565b60408401906300001fc991630000063e565b6300001fd6906300000e50565b60608301906300001fe891630000063e565b6300001ff59063000003d5565b6080820190630000200791630000063e565b60116003630000201891630000106d565b906300002026916300001018565b6002600f600a600590600192630000203e6300000f1c565b94630000204c90630000042c565b5f860190630000205d91630000063e565b630000206a906300001045565b6020850190630000207c91630000063e565b63000020899063000004da565b6040840190630000209b91630000063e565b63000020a8906300000e50565b606083019063000020ba91630000063e565b63000020c79063000003d5565b608082019063000020d991630000063e565b6011600463000020ea916300001087565b9063000020f8916300001018565b6002600f600a60059060019263000021106300000f1c565b94630000211e90630000042c565b5f860190630000212f91630000063e565b630000213c906300001045565b6020850190630000214e91630000063e565b630000215b9063000004da565b6040840190630000216d91630000063e565b630000217a906300000e50565b6060830190630000218c91630000063e565b63000021999063000003d5565b608082019063000021ab91630000063e565b6011600563000021bc9163000010a1565b9063000021ca916300001018565b6002604b606460fa9060649263000021e26300000f1c565b9463000021f090630000042c565b5f860190630000220191630000063e565b630000220e9063000010be565b6020850190630000222091630000063e565b630000222d906300000653565b6040840190630000223f91630000063e565b630000224c9063000010e9565b6060830190630000225e91630000063e565b630000226b906300000653565b6080820190630000227d91630000063e565b60116006630000228e916300001111565b90630000229c916300001018565b6002604b606460fa9060649263000022b46300000f1c565b9463000022c290630000042c565b5f86019063000022d391630000063e565b63000022e09063000010be565b602085019063000022f291630000063e565b63000022ff906300000653565b6040840190630000231191630000063e565b630000231e9063000010e9565b6060830190630000233091630000063e565b630000233d906300000653565b6080820190630000234f91630000063e565b60116007630000236091630000112b565b90630000236e916300001018565b6002604b606460fa9060649263000023866300000f1c565b94630000239490630000042c565b5f86019063000023a591630000063e565b63000023b29063000010be565b602085019063000023c491630000063e565b63000023d1906300000653565b604084019063000023e391630000063e565b63000023f09063000010e9565b6060830190630000240291630000063e565b630000240f906300000653565b6080820190630000242191630000063e565b601160086300002432916300001170565b906300002440916300001018565b6002604b606460fa9060649263000024586300000f1c565b94630000246690630000042c565b5f860190630000247791630000063e565b63000024849063000010be565b6020850190630000249691630000063e565b63000024a3906300000653565b604084019063000024b591630000063e565b63000024c29063000010e9565b606083019063000024d491630000063e565b63000024e1906300000653565b608082019063000024f391630000063e565b60116009630000250491630000118a565b906300002512916300001018565b6002604b606460fa90606492630000252a6300000f1c565b94630000253890630000042c565b5f860190630000254991630000063e565b63000025569063000010be565b6020850190630000256891630000063e565b6300002575906300000653565b6040840190630000258791630000063e565b63000025949063000010e9565b606083019063000025a691630000063e565b63000025b3906300000653565b608082019063000025c591630000063e565b6011600a63000025d69163000011a4565b9063000025e4916300001018565b6002604b606460fa9060649263000025fc6300000f1c565b94630000260a90630000042c565b5f860190630000261b91630000063e565b63000026289063000010be565b6020850190630000263a91630000063e565b6300002647906300000653565b6040840190630000265991630000063e565b63000026669063000010e9565b6060830190630000267891630000063e565b6300002685906300000653565b6080820190630000269791630000063e565b6011600b63000026a89163000011e9565b9063000026b6916300001018565b6002604b606460fa9060649263000026ce6300000f1c565b9463000026dc90630000042c565b5f86019063000026ed91630000063e565b63000026fa9063000010be565b6020850190630000270c91630000063e565b6300002719906300000653565b6040840190630000272b91630000063e565b63000027389063000010e9565b6060830190630000274a91630000063e565b6300002757906300000653565b6080820190630000276991630000063e565b6011600c630000277a91630000122e565b906300002788916300001018565b6002604b606460fa9060649263000027a06300000f1c565b9463000027ae90630000042c565b5f86019063000027bf91630000063e565b63000027cc9063000010be565b602085019063000027de91630000063e565b63000027eb906300000653565b604084019063000027fd91630000063e565b630000280a9063000010e9565b6060830190630000281c91630000063e565b6300002829906300000653565b6080820190630000283b91630000063e565b6011600d630000284c916300001273565b90630000285a916300001018565b6002604b606460fa9060649263000028726300000f1c565b94630000288090630000042c565b5f860190630000289191630000063e565b630000289e9063000010be565b602085019063000028b091630000063e565b63000028bd906300000653565b604084019063000028cf91630000063e565b63000028dc9063000010e9565b606083019063000028ee91630000063e565b63000028fb906300000653565b6080820190630000290d91630000063e565b6011600e630000291e9163000012b8565b90630000292c916300001018565b6002604b606460fa9060649263000029446300000f1c565b94630000295290630000042c565b5f860190630000296391630000063e565b63000029709063000010be565b6020850190630000298291630000063e565b630000298f906300000653565b604084019063000029a191630000063e565b63000029ae9063000010e9565b606083019063000029c091630000063e565b63000029cd906300000653565b608082019063000029df91630000063e565b6011600f63000029f09163000012d2565b9063000029fe916300001018565b6012600a602d906300002a1163000012ec565b926300002a1f906300001300565b5f8401906300002a3091630000063e565b6300002a3d9063000004da565b60208301906300002a4f91630000063e565b6300002a5c90630000132b565b60408201906300002a6e91630000063e565b600f60036300002a7f916300001353565b906300002a8d9163000013d1565b6012600a605a906300002aa063000012ec565b926300002aae906300001300565b5f8401906300002abf91630000063e565b6300002acc9063000004da565b60208301906300002ade91630000063e565b6300002aeb906300000914565b60408201906300002afd91630000063e565b600f60056300002b0e9163000013e1565b906300002b1c9163000013d1565b6009600a61270f906300002b3063000012ec565b926300002b3e90630000085c565b5f8401906300002b4f91630000063e565b6300002b5c9063000004da565b60208301906300002b6e91630000063e565b6300002b7b9063000013fe565b60408201906300002b8d91630000063e565b600f60076300002b9e916300001426565b906300002bac9163000013d1565b6802b5e3af16b18800006300002bc3906300001443565b601060026300002bd491630000146b565b906300002be291630000070a565b683635c9adc5dea000006300002bf9906300000279565b601060046300002c0a916300001485565b906300002c1891630000070a565b56fe60806040526004361015610018575b361561001657005b005b6100225f35610421565b806307175c831461041c5780630d43aaf21461041757806312065fe01461041257806315a544ed1461040d5780631605aed91461040857806316f0115b1461040357806319e2ae96146103fe578063208ad1e3146103f9578063223c0f01146103f457806323b1a7ce146103ef57806326c5adae146103ea5780632b0ada45146103e55780632bfc2e07146103e05780632e040b9d146103db57806332557e8f146103d65780633688236d146103d1578063379a423c146103cc5780634151331d146103c757806341ffe7c4146103c257806343c06bc4146103bd57806345e8fefd146103b85780634c05b4a8146103b35780635640dbfc146103ae578063592a02a8146103a95780635962205f146103a45780635a0e90381461039f5780635a9bac031461039a5780635b7585b2146103955780635eac82251461039057806360af454d1461038b578063622fe2ed146103865780636368c1ce1461038157806366c8c3de1461037c578063675f3eb1146103775780636b81c82f146103725780636f092c5e1461036d57806370d694f014610368578063768f3180146103635780638a3ed6411461035e5780638da5cb5b146103595780638e7ee05814610354578063a112b7a41461034f578063a371dfda1461034a578063a88fcea614610345578063abb8c96514610340578063ac4e57591461033b578063ad822db414610336578063aebcd32a14610331578063aecb710b1461032c578063af0b21d314610327578063b252fbe114610322578063b85f1f8d1461031d578063b90306ad14610318578063c32cfa9914610313578063c5a136d41461030e578063c776fdd714610309578063db2d8b2614610304578063e72f1fbf146102ff578063edcf9721146102fa578063ef93b640146102f5578063f3fef3a3146102f0578063f4fe8e3c146102eb578063f54a77c8146102e65763fc0e74d10361000e57611cd8565b611c94565b611c51565b611c27565b611bc5565b611b90565b611b4d565b611b18565b611ad4565b611a8e565b611a59565b611a21565b6119e9565b61198b565b611956565b61190d565b6118d7565b611841565b61180c565b6117a2565b611740565b6116fe565b6116ca565b61166a565b611635565b6115e9565b6115b4565b611570565b61152c565b6114c6565b61144b565b61140f565b61137d565b611346565b61129a565b611265565b61122b565b6111f6565b6111af565b61114d565b611064565b610fc7565b610e66565b610dd4565b610d91565b610d5e565b610d26565b610c58565b610bcd565b610b89565b610b45565b610b01565b610abe565b610a4f565b610a1b565b6109bb565b610968565b61091f565b61084b565b610730565b6106ec565b6106a8565b61066f565b6104a5565b60e01c90565b60405190565b5f80fd5b5f80fd5b5f91031261043f57565b610431565b1c90565b90565b61045b9060086104609302610444565b610448565b90565b9061046e915461044b565b90565b61047d60305f90610463565b90565b90565b61048c90610480565b9052565b91906104a3905f60208501940190610483565b565b346104d5576104b5366004610435565b6104d16104c0610471565b6104c8610427565b91829182610490565b0390f35b61042d565b5f1c90565b60018060a01b031690565b6104f66104fb916104da565b6104df565b90565b61050890546104ea565b90565b60a01c90565b60ff1690565b6105236105289161050b565b610511565b90565b6105359054610517565b90565b60a81c90565b61054a61054f91610538565b610511565b90565b61055c905461053e565b90565b60b01c90565b6105716105769161055f565b610511565b90565b6105839054610565565b90565b60b81c90565b61059861059d91610586565b610511565b90565b6105aa905461058c565b90565b600d6105ba5f82016104fe565b916105c65f830161052b565b916105d25f8201610552565b916105e95f6105e2818501610579565b93016105a0565b90565b60018060a01b031690565b610600906105ec565b90565b61060c906105f7565b9052565b151590565b61061e90610610565b9052565b9095949261066d9461065c6106669261065260809661064860a088019c5f890190610603565b6020870190610615565b6040850190610615565b6060830190610615565b0190610615565b565b346106a35761067f366004610435565b61069f61068a6105ad565b91610696959395610427565b95869586610622565b0390f35b61042d565b346106d8576106b8366004610435565b6106d46106c3611d45565b6106cb610427565b91829182610490565b0390f35b61042d565b6106e960355f90610463565b90565b3461071c576106fc366004610435565b6107186107076106dd565b61070f610427565b91829182610490565b0390f35b61042d565b61072d60345f90610463565b90565b3461076057610740366004610435565b61075c61074b610721565b610753610427565b91829182610490565b0390f35b61042d565b610771610776916104da565b610448565b90565b6107839054610765565b90565b60126107935f8201610779565b916107a060018301610779565b916107ad60028201610779565b916107ba60038301610779565b916107c760048201610779565b916107e060066107d960058501610779565b9301610779565b90565b949290979695939160e08601985f87016107fc91610483565b6020860161080991610483565b6040850161081691610483565b6060840161082391610483565b6080830161083091610483565b60a0820161083d91610483565b60c00161084991610483565b565b346108825761085b366004610435565b61087e610866610786565b93610875979597939193610427565b978897886107e3565b0390f35b61042d565b61089081610480565b0361089757565b5f80fd5b905035906108a882610887565b565b60e081830312610915576108c0825f830161089b565b926108ce836020840161089b565b926108dc816040850161089b565b926108ea826060830161089b565b926109126108fb846080850161089b565b936109098160a0860161089b565b9360c00161089b565b90565b610431565b5f0190565b346109545761093e6109323660046108aa565b959490949391936122de565b610946610427565b806109508161091a565b0390f35b61042d565b610965603c5f90610463565b90565b3461099857610978366004610435565b610994610983610959565b61098b610427565b91829182610490565b0390f35b61042d565b906020828203126109b6576109b3915f0161089b565b90565b610431565b346109e9576109d36109ce36600461099d565b6124dd565b6109db610427565b806109e58161091a565b0390f35b61042d565b9190604083820312610a165780610a0a610a13925f860161089b565b9360200161089b565b90565b610431565b34610a4a57610a34610a2e3660046109ee565b90612694565b610a3c610427565b80610a468161091a565b0390f35b61042d565b34610a7f57610a7b610a6a610a6536600461099d565b612727565b610a72610427565b91829182610490565b0390f35b61042d565b9091606082840312610ab957610ab6610a9f845f850161089b565b93610aad816020860161089b565b9360400161089b565b90565b610431565b34610aed57610ad7610ad1366004610a84565b9161297a565b610adf610427565b80610ae98161091a565b0390f35b61042d565b610afe60365f90610463565b90565b34610b3157610b11366004610435565b610b2d610b1c610af2565b610b24610427565b91829182610490565b0390f35b61042d565b610b4260385f90610463565b90565b34610b7557610b55366004610435565b610b71610b60610b36565b610b68610427565b91829182610490565b0390f35b61042d565b610b86603f5f90610463565b90565b34610bb957610b99366004610435565b610bb5610ba4610b7a565b610bac610427565b91829182610490565b0390f35b61042d565b610bca603e5f90610463565b90565b34610bfd57610bdd366004610435565b610bf9610be8610bbe565b610bf0610427565b91829182610490565b0390f35b61042d565b610c0b816105f7565b03610c1257565b5f80fd5b90503590610c2382610c02565b565b90602082820312610c3e57610c3b915f01610c16565b90565b610431565b9190610c56905f60208501940190610615565b565b34610c8857610c84610c73610c6e366004610c25565b61298b565b610c7b610427565b91829182610c43565b0390f35b61042d565b90565b610ca4610c9f610ca992610480565b610c8d565b610480565b90565b90610cb690610c90565b5f5260205260405f2090565b610ccd90600f610cac565b610cd85f8201610779565b91610cf16002610cea60018501610779565b9301610779565b90565b604090610d1d610d249496959396610d1360608401985f850190610483565b6020830190610483565b0190610483565b565b34610d5957610d55610d41610d3c36600461099d565b610cc2565b610d4c939193610427565b93849384610cf4565b0390f35b61042d565b34610d8c57610d76610d71366004610c25565b613049565b610d7e610427565b80610d888161091a565b0390f35b61042d565b34610dc057610daa610da4366004610a84565b916132f7565b610db2610427565b80610dbc8161091a565b0390f35b61042d565b610dd160315f90610463565b90565b34610e0457610de4366004610435565b610e00610def610dc5565b610df7610427565b91829182610490565b0390f35b61042d565b6019610e165f8201610779565b91610e2360018301610779565b91610e3060028201610779565b91610e3d60038301610779565b91610e4a60048201610779565b91610e636006610e5c60058501610779565b9301610779565b90565b34610e9d57610e76366004610435565b610e99610e81610e09565b93610e90979597939193610427565b978897886107e3565b0390f35b61042d565b610eae610eb3916104da565b610511565b90565b610ec09054610ea2565b90565b60081c90565b610ed5610eda91610ec3565b610511565b90565b610ee79054610ec9565b90565b60101c90565b610efc610f0191610eea565b610511565b90565b610f0e9054610ef0565b90565b60181c90565b610f23610f2891610f11565b610511565b90565b610f359054610f17565b90565b602d610f455f8201610779565b91610f5260018301610eb6565b91610f5f60018201610edd565b91610f776001610f70818501610f04565b9301610f2b565b90565b90959492610fc594610fb4610fbe92610faa608096610fa060a088019c5f890190610483565b6020870190610615565b6040850190610615565b6060830190610615565b0190610615565b565b34610ffb57610fd7366004610435565b610ff7610fe2610f38565b91610fee959395610427565b95869586610f7a565b0390f35b61042d565b909160c08284031261105f57611018835f840161089b565b92611026816020850161089b565b92611034826040830161089b565b9261105c611045846060850161089b565b93611053816080860161089b565b9360a00161089b565b90565b610431565b3461109957611083611077366004611000565b94939093929192613620565b61108b610427565b806110958161091a565b0390f35b61042d565b906110a890610c90565b5f5260205260405f2090565b6110bf90601161109e565b6110ca5f8201610779565b916110d760018301610779565b916110e460028201610779565b916110fd60046110f660038501610779565b9301610779565b90565b9095949261114b9461113a6111449261113060809661112660a088019c5f890190610483565b6020870190610483565b6040850190610483565b6060830190610483565b0190610483565b565b346111815761117d61116861116336600461099d565b6110b4565b91611174959395610427565b95869586611100565b0390f35b61042d565b60276111935f8201610779565b916111ac60026111a560018501610779565b9301610779565b90565b346111e2576111bf366004610435565b6111de6111ca611186565b6111d5939193610427565b93849384610cf4565b0390f35b61042d565b6111f360375f90610463565b90565b3461122657611206366004610435565b6112226112116111e7565b611219610427565b91829182610490565b0390f35b61042d565b346112605761124a61123e3660046108aa565b95949094939193613804565b611252610427565b8061125c8161091a565b0390f35b61042d565b346112955761129161128061127b36600461099d565b613815565b611288610427565b91829182610490565b0390f35b61042d565b346112c8576112b26112ad366004610c25565b613978565b6112ba610427565b806112c48161091a565b0390f35b61042d565b6112d681610610565b036112dd57565b5f80fd5b905035906112ee826112cd565b565b919060a08382031261134157611308815f850161089b565b9261131682602083016112e1565b9261133e61132784604085016112e1565b9361133581606086016112e1565b936080016112e1565b90565b610431565b34611378576113626113593660046112f0565b93929092613d1c565b61136a610427565b806113748161091a565b0390f35b61042d565b346113ad576113a961139861139336600461099d565b613d4a565b6113a0610427565b91829182610490565b0390f35b61042d565b60206113bf5f8201610779565b916113cc60018301610779565b916113d960028201610779565b916113e660038301610779565b916113f360048201610779565b9161140c600661140560058501610779565b9301610779565b90565b346114465761141f366004610435565b61144261142a6113b2565b93611439979597939193610427565b978897886107e3565b0390f35b61042d565b3461147b5761147761146661146136600461099d565b613dd5565b61146e610427565b91829182610490565b0390f35b61042d565b6080818303126114c157611496825f830161089b565b926114be6114a7846020850161089b565b936114b5816040860161089b565b9360600161089b565b90565b610431565b346114f8576114e26114d9366004611480565b929190916140eb565b6114ea610427565b806114f48161091a565b0390f35b61042d565b9061150790610c90565b5f5260205260405f2090565b611529906115246010915f926114fd565b610463565b90565b3461155c5761155861154761154236600461099d565b611513565b61154f610427565b91829182610490565b0390f35b61042d565b61156d603a5f90610463565b90565b346115a057611580366004610435565b61159c61158b611561565b611593610427565b91829182610490565b0390f35b61042d565b6115b1603b5f90610463565b90565b346115e4576115c4366004610435565b6115e06115cf6115a5565b6115d7610427565b91829182610490565b0390f35b61042d565b3461161b576116056115fc366004611480565b92919091614289565b61160d610427565b806116178161091a565b0390f35b61042d565b9190611633905f60208501940190610603565b565b3461166557611645366004610435565b61166161165061429b565b611658610427565b91829182611620565b0390f35b61042d565b346116985761168261167d36600461099d565b614437565b61168a610427565b806116948161091a565b0390f35b61042d565b91906040838203126116c557806116b96116c2925f86016112e1565b936020016112e1565b90565b610431565b346116f9576116e36116dd36600461169d565b906145ba565b6116eb610427565b806116f58161091a565b0390f35b61042d565b3461172c5761171661171136600461099d565b614732565b61171e610427565b806117288161091a565b0390f35b61042d565b61173d603d5f90610463565b90565b3461177057611750366004610435565b61176c61175b611731565b611763610427565b91829182610490565b0390f35b61042d565b919060408382031261179d578061179161179a925f8601610c16565b936020016112e1565b90565b610431565b346117d1576117bb6117b5366004611775565b90614bc0565b6117c3610427565b806117cd8161091a565b0390f35b61042d565b6117e69060086117eb9302610444565b610511565b90565b906117f991546117d6565b90565b611809602f6001906117ee565b90565b3461183c5761181c366004610435565b6118386118276117fc565b61182f610427565b91829182610c43565b0390f35b61042d565b346118735761185d611854366004611480565b92919091614d5c565b611865610427565b8061186f8161091a565b0390f35b61042d565b9061188290610c90565b5f5260205260405f2090565b61189990600e611878565b906118b160016118aa5f8501610779565b9301610779565b90565b9160206118d59294936118ce60408201965f830190610483565b0190610483565b565b34611908576118ef6118ea36600461099d565b61188e565b906119046118fb610427565b928392836118b4565b0390f35b61042d565b346119425761192c6119203660046108aa565b95949094939193614f3e565b611934610427565b8061193e8161091a565b0390f35b61042d565b61195360335f90610463565b90565b3461198657611966366004610435565b611982611971611947565b611979610427565b91829182610490565b0390f35b61042d565b346119bb5761199b366004610435565b6119b76119a6614f4f565b6119ae610427565b91829182610490565b0390f35b61042d565b602a6119cd5f8201610779565b916119e660026119df60018501610779565b9301610779565b90565b34611a1c576119f9366004610435565b611a18611a046119c0565b611a0f939193610427565b93849384610cf4565b0390f35b61042d565b611a34611a2f36600461099d565b615122565b611a3c610427565b80611a468161091a565b0390f35b611a5660415f90610463565b90565b34611a8957611a69366004610435565b611a85611a74611a4a565b611a7c610427565b91829182610490565b0390f35b61042d565b34611ac057611aaa611aa1366004611480565b92919091615354565b611ab2610427565b80611abc8161091a565b0390f35b61042d565b611ad160425f90610463565b90565b34611b0457611ae4366004610435565b611b00611aef611ac5565b611af7610427565b91829182610490565b0390f35b61042d565b611b1560395f90610463565b90565b34611b4857611b28366004610435565b611b44611b33611b09565b611b3b610427565b91829182610490565b0390f35b61042d565b34611b7c57611b66611b603660046109ee565b906154da565b611b6e610427565b80611b788161091a565b0390f35b61042d565b611b8d60325f90610463565b90565b34611bc057611ba0366004610435565b611bbc611bab611b81565b611bb3610427565b91829182610490565b0390f35b61042d565b34611bf557611bf1611be0611bdb36600461099d565b6154e6565b611be8610427565b91829182610490565b0390f35b61042d565b9190604083820312611c225780611c16611c1f925f8601610c16565b9360200161089b565b90565b610431565b611c3b611c35366004611bfa565b906157bc565b611c43610427565b80611c4d8161091a565b0390f35b34611c8057611c6a611c643660046109ee565b9061595b565b611c72610427565b80611c7c8161091a565b0390f35b61042d565b611c9160405f90610463565b90565b34611cc457611ca4366004610435565b611cc0611caf611c85565b611cb7610427565b91829182610490565b0390f35b61042d565b611cd5602f5f906117ee565b90565b34611d0857611ce8366004610435565b611d04611cf3611cc9565b611cfb610427565b91829182610c43565b0390f35b61042d565b5f90565b611d25611d20611d2a926105ec565b610c8d565b6105ec565b90565b611d3690611d11565b90565b611d4290611d2d565b90565b611d4d611d0d565b50611d5730611d39565b3190565b60018060a01b031690565b611d72611d77916104da565b611d5b565b90565b611d849054611d66565b90565b611d9090611d2d565b90565b601f801991011690565b634e487b7160e01b5f52604160045260245ffd5b90611dbb90611d93565b810190811067ffffffffffffffff821117611dd557604052565b611d9d565b60e01b90565b90505190611ded826112cd565b565b90602082820312611e0857611e05915f01611de0565b90565b610431565b611e15610427565b3d5f823e3d90fd5b60209181520190565b5f7f6f776e2e696e76616c69642e6973536166650000000000000000000000000000910152565b611e5a6012602092611e1d565b611e6381611e26565b0190565b611e7c9060208101905f818303910152611e4d565b90565b15611e8657565b611e8e610427565b62461bcd60e51b815280611ea460048201611e67565b0390fd5b60018060a01b031690565b611ebf611ec4916104da565b611ea8565b90565b611ed19054611eb3565b90565b611edd90611d2d565b90565b5f7f6f776e2e6e6f6e617574682e44414f0000000000000000000000000000000000910152565b611f14600f602092611e1d565b611f1d81611ee0565b0190565b611f369060208101905f818303910152611f07565b90565b15611f4057565b611f48610427565b62461bcd60e51b815280611f5e60048201611f21565b0390fd5b90611f969695949392916020611f80611f7b6002611d7a565b611d87565b636a276f9d90611f8e610427565b9a8b92611dda565b82528180611fa66004820161091a565b03915afa9788156120c25761200498611fc6915f91612094575b50611e7f565b6020611fda611fd56002611d7a565b611d87565b6319c0642990611ff93392611fed610427565b9c8d9485938493611dda565b835260048301611620565b03915afa801561208f5761202f985f91612061575b508015612031575b61202a90611f39565b61226f565b565b5061202a6120476120426001611ec7565b611ed4565b612059612053336105f7565b916105f7565b149050612021565b612082915060203d8111612088575b61207a8183611db1565b810190611def565b5f612019565b503d612070565b611e0d565b6120b5915060203d81116120bb575b6120ad8183611db1565b810190611def565b5f611fc0565b503d6120a3565b611e0d565b906120da6120d3610427565b9283611db1565b565b6120e660e06120c7565b90565b5f90565b6120f56120dc565b906020808080808080886121076120e9565b8152016121126120e9565b81520161211d6120e9565b8152016121286120e9565b8152016121336120e9565b81520161213e6120e9565b8152016121496120e9565b81525050565b6121576120ed565b90565b9061216490610480565b9052565b6121729051610480565b90565b5f1b90565b906121865f1991612175565b9181191691161790565b90565b906121a86121a36121af92610c90565b612190565b825461217a565b9055565b9061225b60c06006612261946121d65f82016121d05f8801612168565b90612193565b6121ef600182016121e960208801612168565b90612193565b6122086002820161220260408801612168565b90612193565b6122216003820161221b60608801612168565b90612193565b61223a6004820161223460808801612168565b90612193565b6122536005820161224d60a08801612168565b90612193565b019201612168565b90612193565b565b9061226d916121b3565b565b6122d5946122ba6122dc98956122b16122cc966122a85f9b9761229f6122c39861229761214f565b9e8f0161215a565b60208d0161215a565b60408b0161215a565b6060890161215a565b6080870161215a565b60a0850161215a565b60c0830161215a565b6019612263565b565b906122ed969594939291611f62565b565b61231d9060206123076123026002611d7a565b611d87565b636a276f9d90612315610427565b948592611dda565b8252818061232d6004820161091a565b03915afa9182156124495761238b9261234d915f9161241b575b50611e7f565b602061236161235c6002611d7a565b611d87565b6319c06429906123803392612374610427565b96879485938493611dda565b835260048301611620565b03915afa8015612416576123b6925f916123e8575b5080156123b8575b6123b190611f39565b6124b6565b565b506123b16123ce6123c96001611ec7565b611ed4565b6123e06123da336105f7565b916105f7565b1490506123a8565b612409915060203d811161240f575b6124018183611db1565b810190611def565b5f6123a0565b503d6123f7565b611e0d565b61243c915060203d8111612442575b6124348183611db1565b810190611def565b5f612347565b503d61242a565b611e0d565b90565b61246561246061246a9261244e565b610c8d565b610480565b90565b634e487b7160e01b5f52601160045260245ffd5b61249061249691939293610480565b92610480565b916124a2838202610480565b9281840414901517156124b157565b61246d565b6124d46124db916124ce670de0b6b3a7640000612451565b90612481565b6039612193565b565b6124e6906122ef565b565b906125179160206125016124fc6002611d7a565b611d87565b636a276f9d9061250f610427565b958692611dda565b825281806125276004820161091a565b03915afa9283156126435761258593612547915f91612615575b50611e7f565b602061255b6125566002611d7a565b611d87565b6319c064299061257a339261256e610427565b97889485938493611dda565b835260048301611620565b03915afa8015612610576125b0935f916125e2575b5080156125b2575b6125ab90611f39565b612648565b565b506125ab6125c86125c36001611ec7565b611ed4565b6125da6125d4336105f7565b916105f7565b1490506125a2565b612603915060203d8111612609575b6125fb8183611db1565b810190611def565b5f61259a565b503d6125f1565b611e0d565b612636915060203d811161263c575b61262e8183611db1565b810190611def565b5f612541565b503d612624565b611e0d565b6126929161267461266d61268b93612667670de0b6b3a7640000612451565b90612481565b6030612193565b612685670de0b6b3a7640000612451565b90612481565b6031612193565b565b9061269e916124e8565b565b6126a990611d11565b90565b6126b5906126a0565b90565b6126c190611d2d565b90565b905051906126d182610887565b565b906020828203126126ec576126e9915f016126c4565b90565b610431565b634e487b7160e01b5f52601260045260245ffd5b61271161271791610480565b91610480565b908115612722570490565b6126f1565b61272f611d0d565b5061275461273d6030610779565b61274e670de0b6b3a7640000612451565b90612481565b9061278a602061277461276f61276a60066104fe565b6126ac565b6126b8565b637d8ec03a90612782610427565b938492611dda565b8252818061279a6004820161091a565b03915afa80156127f1576127be936127b9925f926127c1575b50612705565b612481565b90565b6127e391925060203d81116127ea575b6127db8183611db1565b8101906126d3565b905f6127b3565b503d6127d1565b611e0d565b906128269291602061281061280b6002611d7a565b611d87565b636a276f9d9061281e610427565b968792611dda565b825281806128366004820161091a565b03915afa9384156129525761289494612856915f91612924575b50611e7f565b602061286a6128656002611d7a565b611d87565b6319c0642990612889339261287d610427565b98899485938493611dda565b835260048301611620565b03915afa801561291f576128bf945f916128f1575b5080156128c1575b6128ba90611f39565b612957565b565b506128ba6128d76128d26001611ec7565b611ed4565b6128e96128e3336105f7565b916105f7565b1490506128b1565b612912915060203d8111612918575b61290a8183611db1565b810190611def565b5f6128a9565b503d612900565b611e0d565b612945915060203d811161294b575b61293d8183611db1565b810190611def565b5f612850565b503d612933565b611e0d565b612978929161296a61297192603a612193565b603b612193565b603c612193565b565b9061298592916127f6565b565b5f90565b612993612987565b506129d560206129ab6129a66002611d7a565b611d87565b6319c06429906129ca85926129be610427565b95869485938493611dda565b835260048301611620565b03915afa908115612a47575f91612a19575b509081156129f4575b5090565b9050612a12612a0c612a06600c6104fe565b926105f7565b916105f7565b145f6129f0565b612a3a915060203d8111612a40575b612a328183611db1565b810190611def565b5f6129e7565b503d612a28565b611e0d565b5f7f6f776d2e66616b652e2064656c65676174650000000000000000000000000000910152565b612a806012602092611e1d565b612a8981612a4c565b0190565b612aa29060208101905f818303910152612a73565b90565b15612aac57565b612ab4610427565b62461bcd60e51b815280612aca60048201612a8d565b0390fd5b612afb6020612ae5612ae06002611d7a565b611d87565b636a276f9d90612af3610427565b938492611dda565b82528180612b0b6004820161091a565b03915afa8015612c2d57612b26915f91612bff575b50611e7f565b612b38612b336001611ec7565b611ed4565b612b4a612b44336105f7565b916105f7565b14908115612b66575b612b5f612b6492612aa5565b612f0a565b565b612ba991506020612b7f612b7a6002611d7a565b611d87565b637df73e2790612b9e3392612b92610427565b96879485938493611dda565b835260048301611620565b03915afa918215612bfa57612b6492612b5f915f91612bcc575b50925050612b53565b612bed915060203d8111612bf3575b612be58183611db1565b810190611def565b5f612bc3565b503d612bdb565b611e0d565b612c20915060203d8111612c26575b612c188183611db1565b810190611def565b5f612b20565b503d612c0e565b611e0d565b612c3c60a06120c7565b90565b5f90565b5f90565b612c4f612c32565b9060208080808086612c5f612c3f565b815201612c6a612c43565b815201612c75612c43565b815201612c80612c43565b815201612c8b612c43565b81525050565b612c99612c47565b90565b90612ca690610610565b9052565b90565b612cc1612cbc612cc692612caa565b610c8d565b610480565b90565b90565b612ce0612cdb612ce592612cc9565b610c8d565b610480565b90565b90565b612cff612cfa612d0492612ce8565b610c8d565b610480565b90565b90612d11906105f7565b9052565b612d1f90516105f7565b90565b90612d3360018060a01b0391612175565b9181191691161790565b612d4690611d2d565b90565b90565b90612d61612d5c612d6892612d3d565b612d49565b8254612d22565b9055565b612d769051610610565b90565b60a01b90565b90612d8e60ff60a01b91612d79565b9181191691161790565b612da190610610565b90565b90565b90612dbc612db7612dc392612d98565b612da4565b8254612d7f565b9055565b60a81b90565b90612ddc60ff60a81b91612dc7565b9181191691161790565b90612dfb612df6612e0292612d98565b612da4565b8254612dcd565b9055565b60b01b90565b90612e1b60ff60b01b91612e06565b9181191691161790565b90612e3a612e35612e4192612d98565b612da4565b8254612e0c565b9055565b60b81b90565b90612e5a60ff60b81b91612e45565b9181191691161790565b90612e79612e74612e8092612d98565b612da4565b8254612e4b565b9055565b90612ef660805f612efc94612ea6828201612ea0848801612d15565b90612d4c565b612ebe828201612eb860208801612d6c565b90612da7565b612ed6828201612ed060408801612d6c565b90612de6565b612eee828201612ee860608801612d6c565b90612e25565b019201612d6c565b90612e64565b565b90612f0891612e84565b565b612f4c906020612f22612f1d6002611d7a565b611d87565b631d84be4490612f413392612f35610427565b96879485938493611dda565b835260048301611620565b03915afa91821561304457612fdb92612fd4915f91613016575b5091612f70612c91565b92612f7f600160208601612c9c565b80612f93612f8d6001612cad565b91610480565b14613003575b80612fad612fa76002612ccc565b91610480565b14612ff0575b612fc6612fc06003612ceb565b91610480565b14612fdd575b5f8301612d07565b600d612efe565b565b612feb600160808501612c9c565b612fcc565b612ffe600160608601612c9c565b612fb3565b613011600160408601612c9c565b612f99565b613037915060203d811161303d575b61302f8183611db1565b8101906126d3565b5f612f66565b503d613025565b611e0d565b61305290612ace565b565b906130849291602061306e6130696002611d7a565b611d87565b636a276f9d9061307c610427565b968792611dda565b825281806130946004820161091a565b03915afa9384156131b0576130f2946130b4915f91613182575b50611e7f565b60206130c86130c36002611d7a565b611d87565b6319c06429906130e733926130db610427565b98899485938493611dda565b835260048301611620565b03915afa801561317d5761311d945f9161314f575b50801561311f575b61311890611f39565b6132a2565b565b506131186131356131306001611ec7565b611ed4565b613147613141336105f7565b916105f7565b14905061310f565b613170915060203d8111613176575b6131688183611db1565b810190611def565b5f613107565b503d61315e565b611e0d565b6131a3915060203d81116131a9575b61319b8183611db1565b810190611def565b5f6130ae565b503d613191565b611e0d565b90565b6131cc6131c76131d1926131b5565b610c8d565b610480565b90565b5f7f696e76616c69642072616e6b0000000000000000000000000000000000000000910152565b613208600c602092611e1d565b613211816131d4565b0190565b61322a9060208101905f8183039101526131fb565b90565b1561323457565b61323c610427565b62461bcd60e51b81528061325260048201613215565b0390fd5b61326060406120c7565b90565b9061328e60206001613294946132865f82016132805f8801612168565b90612193565b019201612168565b90612193565b565b906132a091613263565b565b6132f0906132e96132f594936132cb836132c56132bf60086131b8565b91610480565b1061322d565b936132e06132d7613256565b955f870161215a565b6020850161215a565b600e611878565b613296565b565b906133029291613054565b565b906133379594939291602061332161331c6002611d7a565b611d87565b636a276f9d9061332f610427565b998a92611dda565b825281806133476004820161091a565b03915afa968715613463576133a597613367915f91613435575b50611e7f565b602061337b6133766002611d7a565b611d87565b6319c064299061339a339261338e610427565b9b8c9485938493611dda565b835260048301611620565b03915afa8015613430576133d0975f91613402575b5080156133d2575b6133cb90611f39565b6135a0565b565b506133cb6133e86133e36001611ec7565b611ed4565b6133fa6133f4336105f7565b916105f7565b1490506133c2565b613423915060203d8111613429575b61341b8183611db1565b810190611def565b5f6133ba565b503d613411565b611e0d565b613456915060203d811161345c575b61344e8183611db1565b810190611def565b5f613361565b503d613444565b611e0d565b90565b61347f61347a61348492613468565b610c8d565b610480565b90565b5f7f696e76616c6964206c6576656c00000000000000000000000000000000000000910152565b6134bb600d602092611e1d565b6134c481613487565b0190565b6134dd9060208101905f8183039101526134ae565b90565b156134e757565b6134ef610427565b62461bcd60e51b815280613505600482016134c8565b0390fd5b61351360a06120c7565b90565b9061358c60806004613592946135395f82016135335f8801612168565b90612193565b6135526001820161354c60208801612168565b90612193565b61356b6002820161356560408801612168565b90612193565b6135846003820161357e60608801612168565b90612193565b019201612168565b90612193565b565b9061359e91613516565b565b91939261360961361e96613600613619966135f7613612966135d5896135cf6135c9601061346b565b91610480565b106134e0565b99959193956135ee6135e5613509565b9b5f8d0161215a565b60208b0161215a565b6040890161215a565b6060870161215a565b6080850161215a565b601161109e565b613594565b565b9061362e9594939291613304565b565b90613664969594939291602061364e6136496002611d7a565b611d87565b636a276f9d9061365c610427565b9a8b92611dda565b825281806136746004820161091a565b03915afa978815613790576136d298613694915f91613762575b50611e7f565b60206136a86136a36002611d7a565b611d87565b6319c06429906136c733926136bb610427565b9c8d9485938493611dda565b835260048301611620565b03915afa801561375d576136fd985f9161372f575b5080156136ff575b6136f890611f39565b613795565b565b506136f86137156137106001611ec7565b611ed4565b613727613721336105f7565b916105f7565b1490506136ef565b613750915060203d8111613756575b6137488183611db1565b810190611def565b5f6136e7565b503d61373e565b611e0d565b613783915060203d8111613789575b61377b8183611db1565b810190611def565b5f61368e565b503d613771565b611e0d565b6137fb946137e061380298956137d76137f2966137ce5f9b976137c56137e9986137bd61214f565b9e8f0161215a565b60208d0161215a565b60408b0161215a565b6060890161215a565b6080870161215a565b60a0850161215a565b60c0830161215a565b6020612263565b565b90613813969594939291613630565b565b61383190613821611d0d565b5061382c6031610779565b612481565b90565b60018060a01b031690565b61384b613850916104da565b613834565b90565b61385d905461383f565b90565b61386990611d2d565b90565b90565b61388361387e6138889261386c565b610c8d565b6105ec565b90565b6138949061386f565b90565b5f7f6f776e2e686578626173652e6661696c65640000000000000000000000000000910152565b6138cb6012602092611e1d565b6138d481613897565b0190565b6138ed9060208101905f8183039101526138be565b90565b156138f757565b6138ff610427565b62461bcd60e51b815280613915600482016138d8565b0390fd5b61392290611d11565b90565b61392e90613919565b90565b61393a90611d11565b90565b61394690613931565b90565b61395290613931565b90565b90565b9061396d61396861397492613949565b613955565b8254612d22565b9055565b6139cb6139c66139d1926139b66139966139915f613853565b613860565b6139b06139aa6139a55f61388b565b6105f7565b916105f7565b146138f0565b6139c132600c612d4c565b613925565b61393d565b5f613958565b6139d9615af7565b565b90613a0d9493929160206139f76139f26002611d7a565b611d87565b636a276f9d90613a05610427565b988992611dda565b82528180613a1d6004820161091a565b03915afa958615613b3957613a7b96613a3d915f91613b0b575b50611e7f565b6020613a51613a4c6002611d7a565b611d87565b6319c0642990613a703392613a64610427565b9a8b9485938493611dda565b835260048301611620565b03915afa8015613b0657613aa6965f91613ad8575b508015613aa8575b613aa190611f39565b613cc2565b565b50613aa1613abe613ab96001611ec7565b611ed4565b613ad0613aca336105f7565b916105f7565b149050613a98565b613af9915060203d8111613aff575b613af18183611db1565b810190611def565b5f613a90565b503d613ae7565b611e0d565b613b2c915060203d8111613b32575b613b248183611db1565b810190611def565b5f613a37565b503d613b1a565b611e0d565b613b4860a06120c7565b90565b90613b5760ff91612175565b9181191691161790565b90613b76613b71613b7d92612d98565b612da4565b8254613b4b565b9055565b60081b90565b90613b9461ff0091613b81565b9181191691161790565b90613bb3613bae613bba92612d98565b612da4565b8254613b87565b9055565b60101b90565b90613bd262ff000091613bbe565b9181191691161790565b90613bf1613bec613bf892612d98565b612da4565b8254613bc4565b9055565b60181b90565b90613c1163ff00000091613bfc565b9181191691161790565b90613c30613c2b613c3792612d98565b612da4565b8254613c02565b9055565b90613cae60806001613cb494613c5e5f8201613c585f8801612168565b90612193565b613c76828201613c7060208801612d6c565b90613b61565b613c8e828201613c8860408801612d6c565b90613b9e565b613ca6828201613ca060608801612d6c565b90613bdc565b019201612d6c565b90613c1b565b565b90613cc091613c3b565b565b613d1a94613d01613d13949395613cf8613d0a949795919395613cef613ce6613b3e565b995f8b0161215a565b60208901612c9c565b60408701612c9c565b60608501612c9c565b60808301612c9c565b602d613cb6565b565b90613d29949392916139db565b565b90565b613d42613d3d613d4792613d2b565b610c8d565b610480565b90565b613dac613d99613d73613dd293613d5f611d0d565b50613d6d6001601901610779565b90612481565b613d93613d836002601901610779565b613d8d6064613d2e565b90612481565b90612705565b613da66003601901610779565b90612481565b613dcc613dbc6004601901610779565b613dc66064613d2e565b90612481565b90612705565b90565b613e37613e24613dfe613e5d93613dea611d0d565b50613df86001601201610779565b90612481565b613e1e613e0e6002601201610779565b613e186064613d2e565b90612481565b90612705565b613e316003601201610779565b90612481565b613e57613e476004601201610779565b613e516064613d2e565b90612481565b90612705565b90565b90613e919392916020613e7b613e766002611d7a565b611d87565b636a276f9d90613e89610427565b978892611dda565b82528180613ea16004820161091a565b03915afa948515613fbd57613eff95613ec1915f91613f8f575b50611e7f565b6020613ed5613ed06002611d7a565b611d87565b6319c0642990613ef43392613ee8610427565b998a9485938493611dda565b835260048301611620565b03915afa8015613f8a57613f2a955f91613f5c575b508015613f2c575b613f2590611f39565b614064565b565b50613f25613f42613f3d6001611ec7565b611ed4565b613f54613f4e336105f7565b916105f7565b149050613f1c565b613f7d915060203d8111613f83575b613f758183611db1565b810190611def565b5f613f14565b503d613f6b565b611e0d565b613fb0915060203d8111613fb6575b613fa88183611db1565b810190611def565b5f613ebb565b503d613f9e565b611e0d565b613fcc60606120c7565b90565b613fd7613fc2565b906020808084613fe56120e9565b815201613ff06120e9565b815201613ffb6120e9565b81525050565b614009613fcf565b90565b90614050604060026140569461402f5f82016140295f8801612168565b90612193565b6140486001820161404260208801612168565b90612193565b019201612168565b90612193565b565b906140629161400c565b565b919261408b6140949294614082614079614001565b965f880161215a565b6020860161215a565b6040840161215a565b806140a86140a26001612cad565b91610480565b146140db575b6140c16140bb6002612ccc565b91610480565b146140ca575b50565b6140d590602a614058565b5f6140c7565b6140e6826027614058565b6140ae565b906140f7939291613e60565b565b9061412a939291602061411461410f6002611d7a565b611d87565b636a276f9d90614122610427565b978892611dda565b8252818061413a6004820161091a565b03915afa948515614256576141989561415a915f91614228575b50611e7f565b602061416e6141696002611d7a565b611d87565b6319c064299061418d3392614181610427565b998a9485938493611dda565b835260048301611620565b03915afa8015614223576141c3955f916141f5575b5080156141c5575b6141be90611f39565b61425b565b565b506141be6141db6141d66001611ec7565b611ed4565b6141ed6141e7336105f7565b916105f7565b1490506141b5565b614216915060203d811161421c575b61420e8183611db1565b810190611def565b5f6141ad565b503d614204565b611e0d565b614249915060203d811161424f575b6142418183611db1565b810190611def565b5f614154565b503d614237565b611e0d565b916142796142809261427261428796956034612193565b6035612193565b6036612193565b6037612193565b565b906142959392916140f9565b565b5f90565b6142a3614297565b506142ae600c6104fe565b90565b6142df9060206142c96142c46002611d7a565b611d87565b636a276f9d906142d7610427565b948592611dda565b825281806142ef6004820161091a565b03915afa91821561440b5761434d9261430f915f916143dd575b50611e7f565b602061432361431e6002611d7a565b611d87565b6319c06429906143423392614336610427565b96879485938493611dda565b835260048301611620565b03915afa80156143d857614378925f916143aa575b50801561437a575b61437390611f39565b614410565b565b5061437361439061438b6001611ec7565b611ed4565b6143a261439c336105f7565b916105f7565b14905061436a565b6143cb915060203d81116143d1575b6143c38183611db1565b810190611def565b5f614362565b503d6143b9565b611e0d565b6143fe915060203d8111614404575b6143f68183611db1565b810190611def565b5f614309565b503d6143ec565b611e0d565b61442e61443591614428670de0b6b3a7640000612451565b90612481565b6032612193565b565b614440906142b1565b565b9061447191602061445b6144566002611d7a565b611d87565b636a276f9d90614469610427565b958692611dda565b825281806144816004820161091a565b03915afa92831561459d576144df936144a1915f9161456f575b50611e7f565b60206144b56144b06002611d7a565b611d87565b6319c06429906144d433926144c8610427565b97889485938493611dda565b835260048301611620565b03915afa801561456a5761450a935f9161453c575b50801561450c575b61450590611f39565b6145a2565b565b5061450561452261451d6001611ec7565b611ed4565b61453461452e336105f7565b916105f7565b1490506144fc565b61455d915060203d8111614563575b6145558183611db1565b810190611def565b5f6144f4565b503d61454b565b611e0d565b614590915060203d8111614596575b6145888183611db1565b810190611def565b5f61449b565b503d61457e565b611e0d565b906145b16145b892602f613b61565b602f613b9e565b565b906145c491614442565b565b6145f49060206145de6145d96002611d7a565b611d87565b636a276f9d906145ec610427565b948592611dda565b825281806146046004820161091a565b03915afa9182156147205761466292614624915f916146f2575b50611e7f565b60206146386146336002611d7a565b611d87565b6319c0642990614657339261464b610427565b96879485938493611dda565b835260048301611620565b03915afa80156146ed5761468d925f916146bf575b50801561468f575b61468890611f39565b614725565b565b506146886146a56146a06001611ec7565b611ed4565b6146b76146b1336105f7565b916105f7565b14905061467f565b6146e0915060203d81116146e6575b6146d88183611db1565b810190611def565b5f614677565b503d6146ce565b611e0d565b614713915060203d8111614719575b61470b8183611db1565b810190611def565b5f61461e565b503d614701565b611e0d565b614730906033612193565b565b61473b906145c6565b565b9061476b60206147556147506002611d7a565b611d87565b636a276f9d90614763610427565b938492611dda565b8252818061477b6004820161091a565b03915afa801561489d57614796915f9161486f575b50611e7f565b6147a86147a36001611ec7565b611ed4565b6147ba6147b4336105f7565b916105f7565b149182156147d6575b6147cf6147d493612aa5565b6148da565b565b614819925060206147ef6147ea6002611d7a565b611d87565b637df73e279061480e3392614802610427565b97889485938493611dda565b835260048301611620565b03915afa92831561486a576147d4936147cf915f9161483c575b509350506147c3565b61485d915060203d8111614863575b6148558183611db1565b810190611def565b5f614833565b503d61484b565b611e0d565b614890915060203d8111614896575b6148888183611db1565b810190611def565b5f614790565b503d61487e565b611e0d565b6148b66148b16148bb9261386c565b610c8d565b610480565b90565b6148c790610480565b5f1981146148d55760010190565b61246d565b905f14614ba85761492260206148f86148f36002611d7a565b611d87565b631d84be4490614917339261490b610427565b95869485938493611dda565b835260048301611620565b03915afa908115614ba3575f91614b75575b506149415f600d0161052b565b80614b5a575b80614b35575b614b22575b61495e5f600d0161052b565b80614b07575b80614ae2575b614acf575b61497b5f600d0161052b565b9081614ab3575b5080614a8e575b614a7b575b6149975f6148a2565b6149a35f600d01610552565b614a6d575b6149b45f600d01610579565b614a5f575b6149c55f600d016105a0565b614a51575b6149d65f600d0161052b565b9081614a35575b5080614a10575b6149ed575b505b565b6149f890600c612d4c565b614a0a614a03612c91565b600d612efe565b5f6149e9565b50614a1d5f600d016104fe565b614a2f614a29836105f7565b916105f7565b146149e4565b9050614a4a614a446002612ccc565b91610480565b145f6149dd565b614a5a906148be565b6149ca565b614a68906148be565b6149b9565b614a76906148be565b6149a8565b614a8960015f600d01612e64565b61498e565b50614a9b5f600d016104fe565b614aad614aa7836105f7565b916105f7565b14614989565b9050614ac8614ac26003612ceb565b91610480565b145f614982565b614add60015f600d01612e25565b61496f565b50614aef5f600d016104fe565b614b01614afb846105f7565b916105f7565b1461496a565b5080614b1c614b166002612ccc565b91610480565b14614964565b614b3060015f600d01612de6565b614952565b50614b425f600d016104fe565b614b54614b4e846105f7565b916105f7565b1461494d565b5080614b6f614b696001612cad565b91610480565b14614947565b614b96915060203d8111614b9c575b614b8e8183611db1565b8101906126d3565b5f614934565b503d614b84565b611e0d565b50614bbb614bb4612c91565b600d612efe565b6149eb565b90614bca9161473d565b565b90614bfd9392916020614be7614be26002611d7a565b611d87565b636a276f9d90614bf5610427565b978892611dda565b82528180614c0d6004820161091a565b03915afa948515614d2957614c6b95614c2d915f91614cfb575b50611e7f565b6020614c41614c3c6002611d7a565b611d87565b6319c0642990614c603392614c54610427565b998a9485938493611dda565b835260048301611620565b03915afa8015614cf657614c96955f91614cc8575b508015614c98575b614c9190611f39565b614d2e565b565b50614c91614cae614ca96001611ec7565b611ed4565b614cc0614cba336105f7565b916105f7565b149050614c88565b614ce9915060203d8111614cef575b614ce18183611db1565b810190611def565b5f614c80565b503d614cd7565b611e0d565b614d1c915060203d8111614d22575b614d148183611db1565b810190611def565b5f614c27565b503d614d0a565b611e0d565b91614d4c614d5392614d45614d5a9695603d612193565b603e612193565b6040612193565b6041612193565b565b90614d68939291614bcc565b565b90614d9e9695949392916020614d88614d836002611d7a565b611d87565b636a276f9d90614d96610427565b9a8b92611dda565b82528180614dae6004820161091a565b03915afa978815614eca57614e0c98614dce915f91614e9c575b50611e7f565b6020614de2614ddd6002611d7a565b611d87565b6319c0642990614e013392614df5610427565b9c8d9485938493611dda565b835260048301611620565b03915afa8015614e9757614e37985f91614e69575b508015614e39575b614e3290611f39565b614ecf565b565b50614e32614e4f614e4a6001611ec7565b611ed4565b614e61614e5b336105f7565b916105f7565b149050614e29565b614e8a915060203d8111614e90575b614e828183611db1565b810190611def565b5f614e21565b503d614e78565b611e0d565b614ebd915060203d8111614ec3575b614eb58183611db1565b810190611def565b5f614dc8565b503d614eab565b611e0d565b614f3594614f1a614f3c9895614f11614f2c96614f085f9b97614eff614f2398614ef761214f565b9e8f0161215a565b60208d0161215a565b60408b0161215a565b6060890161215a565b6080870161215a565b60a0850161215a565b60c0830161215a565b6012612263565b565b90614f4d969594939291614d6a565b565b614f57611d0d565b50614fb1614f7f614f686032610779565b614f79670de0b6b3a7640000612451565b90612481565b6020614f9b614f96614f9160066104fe565b6126ac565b6126b8565b637d8ec03a90614fa9610427565b948592611dda565b82528180614fc16004820161091a565b03915afa90811561501057614fdd925f92614fe0575b50612705565b90565b61500291925060203d8111615009575b614ffa8183611db1565b8101906126d3565b905f614fd7565b503d614ff0565b611e0d565b61504390602061502d6150286002611d7a565b611d87565b636a276f9d9061503b610427565b948592611dda565b825281806150536004820161091a565b03915afa9182156150d5576150a592615073915f916150a7575b50611e7f565b6150a06150886150836001611ec7565b611ed4565b61509a615094336105f7565b916105f7565b14611f39565b6150e6565b565b6150c8915060203d81116150ce575b6150c08183611db1565b810190611def565b5f61506d565b503d6150b6565b611e0d565b6150e390611d2d565b90565b5f808080936151046150ff6150fa8461388b565b613925565b6150da565b828215615119575bf11561511457565b611e0d565b506108fc61510c565b61512b90615015565b565b9061515e93929160206151486151436002611d7a565b611d87565b636a276f9d90615156610427565b978892611dda565b8252818061516e6004820161091a565b03915afa94851561528a576151cc9561518e915f9161525c575b50611e7f565b60206151a261519d6002611d7a565b611d87565b6319c06429906151c133926151b5610427565b998a9485938493611dda565b835260048301611620565b03915afa8015615257576151f7955f91615229575b5080156151f9575b6151f290611f39565b6152f4565b565b506151f261520f61520a6001611ec7565b611ed4565b61522161521b336105f7565b916105f7565b1490506151e9565b61524a915060203d8111615250575b6152428183611db1565b810190611def565b5f6151e1565b503d615238565b611e0d565b61527d915060203d8111615283575b6152758183611db1565b810190611def565b5f615188565b503d61526b565b611e0d565b61529960606120c7565b90565b906152e0604060026152e6946152bf5f82016152b95f8801612168565b90612193565b6152d8600182016152d260208801612168565b90612193565b019201612168565b90612193565b565b906152f29161529c565b565b6153466153529461533d61534d9461531f8561531961531360086131b8565b91610480565b1061322d565b9561533461532b61528f565b975f890161215a565b6020870161215a565b6040850161215a565b600f610cac565b6152e8565b565b9061536093929161512d565b565b9061539191602061537b6153766002611d7a565b611d87565b636a276f9d90615389610427565b958692611dda565b825281806153a16004820161091a565b03915afa9283156154bd576153ff936153c1915f9161548f575b50611e7f565b60206153d56153d06002611d7a565b611d87565b6319c06429906153f433926153e8610427565b97889485938493611dda565b835260048301611620565b03915afa801561548a5761542a935f9161545c575b50801561542c575b61542590611f39565b6154c2565b565b5061542561544261543d6001611ec7565b611ed4565b61545461544e336105f7565b916105f7565b14905061541c565b61547d915060203d8111615483575b6154758183611db1565b810190611def565b5f615414565b503d61546b565b611e0d565b6154b0915060203d81116154b6575b6154a88183611db1565b810190611def565b5f6153bb565b503d61549e565b611e0d565b906154d16154d892603f612193565b6042612193565b565b906154e491615362565b565b61554861553561550f61556e936154fb611d0d565b506155096001602001610779565b90612481565b61552f61551f6002602001610779565b6155296064613d2e565b90612481565b90612705565b6155426003602001610779565b90612481565b6155686155586004602001610779565b6155626064613d2e565b90612481565b90612705565b90565b5f7f6f776e2e64656661756c742e73656e6465720000000000000000000000000000910152565b6155a56012602092611e1d565b6155ae81615571565b0190565b6155c79060208101905f818303910152615598565b90565b156155d157565b6155d9610427565b62461bcd60e51b8152806155ef600482016155b2565b0390fd5b906156229161561d8161561661561061560b5f61388b565b6105f7565b916105f7565b14156155ca565b615624565b565b9061565391602061563d6156386002611d7a565b611d87565b636a276f9d9061564b610427565b958692611dda565b825281806156636004820161091a565b03915afa9283156156e5576156b593615683915f916156b7575b50611e7f565b6156b06156986156936001611ec7565b611ed4565b6156aa6156a4336105f7565b916105f7565b14611f39565b61576c565b565b6156d8915060203d81116156de575b6156d08183611db1565b810190611def565b5f61567d565b503d6156c6565b611e0d565b5f7f6f776e2e696e76616c69642e616d6f756e740000000000000000000000000000910152565b61571e6012602092611e1d565b615727816156ea565b0190565b6157409060208101905f818303910152615711565b90565b1561574a57565b615752610427565b62461bcd60e51b8152806157686004820161572b565b0390fd5b5f80809361579e61579983956157948461578e615788886148a2565b91610480565b11615743565b613925565b6150da565b8282156157b3575bf1156157ae57565b611e0d565b506108fc6157a6565b906157c6916155f3565b565b906157f79160206157e16157dc6002611d7a565b611d87565b636a276f9d906157ef610427565b958692611dda565b825281806158076004820161091a565b03915afa9283156159235761586593615827915f916158f5575b50611e7f565b602061583b6158366002611d7a565b611d87565b6319c064299061585a339261584e610427565b97889485938493611dda565b835260048301611620565b03915afa80156158f057615890935f916158c2575b508015615892575b61588b90611f39565b615928565b565b5061588b6158a86158a36001611ec7565b611ed4565b6158ba6158b4336105f7565b916105f7565b149050615882565b6158e3915060203d81116158e9575b6158db8183611db1565b810190611def565b5f61587a565b503d6158d1565b611e0d565b615916915060203d811161591c575b61590e8183611db1565b810190611def565b5f615821565b503d615904565b611e0d565b6159546159599261594c8361594661594060086131b8565b91610480565b1061322d565b9160106114fd565b612193565b565b90615965916157c8565b565b9050519061597482610c02565b565b9060208282031261598f5761598c915f01615967565b90565b610431565b61599d90611d11565b90565b6159a990615994565b90565b6159b590615994565b90565b90565b906159d06159cb6159d7926159ac565b6159b8565b8254612d22565b9055565b6159e490611d11565b90565b6159f0906159db565b90565b6159fc906159db565b90565b90565b90615a17615a12615a1e926159f3565b6159ff565b8254612d22565b9055565b615a2b90611d11565b90565b615a3790615a22565b90565b615a4390615a22565b90565b90565b90615a5e615a59615a6592615a3a565b615a46565b8254612d22565b9055565b615a7290611d11565b90565b615a7e90615a69565b90565b615a8a90615a69565b90565b90565b90615aa5615aa0615aac92615a81565b615a8d565b8254612d22565b9055565b615ab990611d11565b90565b615ac590615ab0565b90565b615ad190615ab0565b90565b90565b90615aec615ae7615af392615ac8565b615ad4565b8254612d22565b9055565b615b08615b035f613853565b613860565b615b22615b1c615b175f61388b565b6105f7565b916105f7565b1461615f57615b536020615b3d615b385f613853565b613860565b634162169f90615b4b610427565b938492611dda565b82528180615b636004820161091a565b03915afa90811561615a57615b8a91615b83915f9161612c575b506159a0565b60016159bb565b615bb66020615ba0615b9b5f613853565b613860565b63b57dbdc690615bae610427565b938492611dda565b82528180615bc66004820161091a565b03915afa90811561612757615bed91615be6915f916160f9575b506159e7565b6002615a02565b615c196020615c03615bfe5f613853565b613860565b63cfbffe5390615c11610427565b938492611dda565b82528180615c296004820161091a565b03915afa9081156160f457615c5091615c49915f916160c6575b50615a2e565b6003615a49565b615c7c6020615c66615c615f613853565b613860565b63ab6e844f90615c74610427565b938492611dda565b82528180615c8c6004820161091a565b03915afa9081156160c157615cb391615cac915f91616093575b50615a75565b6004615a90565b615cdf6020615cc9615cc45f613853565b613860565b639a7c407790615cd7610427565b938492611dda565b82528180615cef6004820161091a565b03915afa90811561608e57615d1691615d0f915f91616060575b50615abc565b6005615ad7565b615d426020615d2c615d275f613853565b613860565b63aa0ddc1690615d3a610427565b938492611dda565b82528180615d526004820161091a565b03915afa801561605b57615d6f915f9161602d575b506007612d4c565b615d9b6020615d85615d805f613853565b613860565b636b4aefc690615d93610427565b938492611dda565b82528180615dab6004820161091a565b03915afa801561602857615dc8915f91615ffa575b506008612d4c565b615df46020615dde615dd95f613853565b613860565b6324768d9190615dec610427565b938492611dda565b82528180615e046004820161091a565b03915afa8015615ff557615e21915f91615fc7575b50600b612d4c565b615e4d6020615e37615e325f613853565b613860565b636402742790615e45610427565b938492611dda565b82528180615e5d6004820161091a565b03915afa8015615fc257615e7a915f91615f94575b506009612d4c565b615ea66020615e90615e8b5f613853565b613860565b6330125cf590615e9e610427565b938492611dda565b82528180615eb66004820161091a565b03915afa8015615f8f57615ed3915f91615f61575b50600a612d4c565b615eff6020615ee9615ee45f613853565b613860565b63d3d1b09690615ef7610427565b938492611dda565b82528180615f0f6004820161091a565b03915afa8015615f5c57615f2c915f91615f2e575b506006612d4c565b565b615f4f915060203d8111615f55575b615f478183611db1565b810190615976565b5f615f24565b503d615f3d565b611e0d565b615f82915060203d8111615f88575b615f7a8183611db1565b810190615976565b5f615ecb565b503d615f70565b611e0d565b615fb5915060203d8111615fbb575b615fad8183611db1565b810190615976565b5f615e72565b503d615fa3565b611e0d565b615fe8915060203d8111615fee575b615fe08183611db1565b810190615976565b5f615e19565b503d615fd6565b611e0d565b61601b915060203d8111616021575b6160138183611db1565b810190615976565b5f615dc0565b503d616009565b611e0d565b61604e915060203d8111616054575b6160468183611db1565b810190615976565b5f615d67565b503d61603c565b611e0d565b616081915060203d8111616087575b6160798183611db1565b810190615976565b5f615d09565b503d61606f565b611e0d565b6160b4915060203d81116160ba575b6160ac8183611db1565b810190615976565b5f615ca6565b503d6160a2565b611e0d565b6160e7915060203d81116160ed575b6160df8183611db1565b810190615976565b5f615c43565b503d6160d5565b611e0d565b61611a915060203d8111616120575b6161128183611db1565b810190615976565b5f615be0565b503d616108565b611e0d565b61614d915060203d8111616153575b6161458183611db1565b810190615976565b5f615b7d565b503d61613b565b611e0d565b56fea26469706673582212204f8ad0648d0806af2e14c7ad523c2d163e471197e889f47073eb5ef62e82561764736f6c63430008180033","linkReferences":{}},"methodIdentifiers":{"gethexbAdd()":"21dc7851"},"id":76}