{"abi":[{"type":"constructor","inputs":[{"name":"_hex","type":"address","internalType":"address"}],"stateMutability":"nonpayable"},{"type":"fallback","stateMutability":"payable"},{"type":"receive","stateMutability":"payable"},{"type":"function","name":"Burn","inputs":[{"name":"amount","type":"uint256","internalType":"uint256"}],"outputs":[],"stateMutability":"nonpayable"},{"type":"function","name":"UserToId","inputs":[{"name":"","type":"address","internalType":"address"}],"outputs":[{"name":"","type":"uint256","internalType":"uint256"}],"stateMutability":"view"},{"type":"function","name":"UserToInst","inputs":[{"name":"","type":"address","internalType":"address"}],"outputs":[{"name":"","type":"address","internalType":"address"}],"stateMutability":"view"},{"type":"function","name":"_addBusiness","inputs":[{"name":"_user","type":"address","internalType":"address"},{"name":"amount","type":"uint256","internalType":"uint256"},{"name":"qty","type":"uint256","internalType":"uint256"}],"outputs":[],"stateMutability":"nonpayable"},{"type":"function","name":"_delegatorCount","inputs":[],"outputs":[{"name":"","type":"uint256","internalType":"uint256"}],"stateMutability":"view"},{"type":"function","name":"_getImplementation","inputs":[{"name":"clone","type":"address","internalType":"address"}],"outputs":[{"name":"impl","type":"address","internalType":"address"}],"stateMutability":"view"},{"type":"function","name":"_isDelegatorNode","inputs":[{"name":"sender","type":"address","internalType":"address"}],"outputs":[{"name":"","type":"bool","internalType":"bool"}],"stateMutability":"view"},{"type":"function","name":"_isSafe","inputs":[],"outputs":[{"name":"","type":"bool","internalType":"bool"}],"stateMutability":"view"},{"type":"function","name":"_isSecureBase","inputs":[{"name":"sender","type":"address","internalType":"address"}],"outputs":[{"name":"","type":"bool","internalType":"bool"}],"stateMutability":"view"},{"type":"function","name":"_isSigner","inputs":[{"name":"sender","type":"address","internalType":"address"}],"outputs":[{"name":"","type":"bool","internalType":"bool"}],"stateMutability":"view"},{"type":"function","name":"_nested","inputs":[{"name":"parent","type":"address","internalType":"address"},{"name":"uinst","type":"address","internalType":"address"},{"name":"user","type":"address","internalType":"address"},{"name":"_cage","type":"uint256","internalType":"uint256"}],"outputs":[{"name":"","type":"uint256","internalType":"uint256"}],"stateMutability":"nonpayable"},{"type":"function","name":"_updateUsers","inputs":[{"name":"to","type":"address","internalType":"address"}],"outputs":[],"stateMutability":"nonpayable"},{"type":"function","name":"getBalance","inputs":[],"outputs":[{"name":"","type":"uint256","internalType":"uint256"}],"stateMutability":"view"},{"type":"function","name":"getNode","inputs":[{"name":"_id","type":"uint256","internalType":"uint256"}],"outputs":[{"name":"i","type":"uint256","internalType":"uint256"},{"name":"pid","type":"uint256","internalType":"uint256"},{"name":"cage","type":"uint256","internalType":"uint256"},{"name":"active","type":"bool","internalType":"bool"}],"stateMutability":"view"},{"type":"function","name":"getNodeByIndex","inputs":[{"name":"index","type":"uint256","internalType":"uint256"}],"outputs":[{"name":"node","type":"address","internalType":"address"}],"stateMutability":"view"},{"type":"function","name":"getNodeChild","inputs":[{"name":"_id","type":"uint256","internalType":"uint256"},{"name":"inx","type":"uint256","internalType":"uint256"}],"outputs":[{"name":"child","type":"uint256","internalType":"uint256"}],"stateMutability":"view"},{"type":"function","name":"getNodeDirectsCount","inputs":[{"name":"_id","type":"uint256","internalType":"uint256"}],"outputs":[{"name":"count","type":"uint256","internalType":"uint256"}],"stateMutability":"view"},{"type":"function","name":"getNodeLB","inputs":[{"name":"_id","type":"uint256","internalType":"uint256"},{"name":"lvl","type":"uint256","internalType":"uint256"}],"outputs":[{"name":"levelbusiness","type":"uint256","internalType":"uint256"},{"name":"levelqty","type":"uint256","internalType":"uint256"}],"stateMutability":"view"},{"type":"function","name":"getNodeLvlDepth","inputs":[{"name":"_id","type":"uint256","internalType":"uint256"}],"outputs":[{"name":"depth","type":"uint256","internalType":"uint256"}],"stateMutability":"view"},{"type":"function","name":"getNodeParent","inputs":[{"name":"_id","type":"uint256","internalType":"uint256"}],"outputs":[{"name":"","type":"uint256","internalType":"uint256"}],"stateMutability":"view"},{"type":"function","name":"getNodesCount","inputs":[],"outputs":[{"name":"nodesCount","type":"uint256","internalType":"uint256"}],"stateMutability":"view"},{"type":"function","name":"isNode","inputs":[{"name":"_id","type":"uint256","internalType":"uint256"}],"outputs":[{"name":"","type":"bool","internalType":"bool"}],"stateMutability":"view"},{"type":"function","name":"isNodeStopped","inputs":[{"name":"sender","type":"address","internalType":"address"}],"outputs":[{"name":"","type":"bool","internalType":"bool"}],"stateMutability":"view"},{"type":"function","name":"isUserExists","inputs":[{"name":"node","type":"address","internalType":"address"}],"outputs":[{"name":"","type":"bool","internalType":"bool"}],"stateMutability":"view"},{"type":"function","name":"owner","inputs":[],"outputs":[{"name":"","type":"address","internalType":"address"}],"stateMutability":"view"},{"type":"function","name":"systemAge","inputs":[],"outputs":[{"name":"","type":"uint256","internalType":"uint256"}],"stateMutability":"view"}],"bytecode":{"object":"0x608060405234801561001057600080fd5b50604051611fc0380380611fc083398101604081905261002f91610060565b600180546001600160a01b0319908116909155600080546001600160a01b0390931692909116919091179055610090565b60006020828403121561007257600080fd5b81516001600160a01b038116811461008957600080fd5b9392505050565b611f218061009f6000396000f3fe6080604052600436106101735760003560e01c8063629d671e116100c8578063b90306ad11610084578063c60c1ec611610061578063c60c1ec614610514578063e01ad5fd14610549578063e0a9bc2b14610569578063fdc10bc91461057e57005b8063b90306ad146104b4578063c4cf0e3f146104d4578063c54e44b0146104f457005b8063629d671e146103f4578063896c354a146104215780638da5cb5b14610441578063965c90e31461045f578063a1f7f5391461047f578063af4845261461049457005b806345ac4bc61161012f578063509222cd1161010c578063509222cd1461036757806351bfd3ae1461039f5780635c1d48b9146103bf57806361ea7208146103df57005b806345ac4bc6146102af57806345ca1257146102cf5780634f0f4aa9146102ff57005b806312065fe01461017c578063175724f61461019e5780631f185d16146101ce578063419cb27b146101fe57806342cc9d571461023157806345145fd71461026157005b3661017a57005b005b34801561018857600080fd5b50475b6040519081526020015b60405180910390f35b3480156101aa57600080fd5b5061018b6101b9366004611cc7565b60009081526005602052604090206002015490565b3480156101da57600080fd5b506101ee6101e9366004611cf8565b610593565b6040519015158152602001610195565b34801561020a57600080fd5b506101ee610219366004611cc7565b60009081526005602052604090206001015460ff1690565b34801561023d57600080fd5b5061018b61024c366004611cc7565b60009081526005602052604090206003015490565b34801561026d57600080fd5b5061029761027c366004611cf8565b6002602052600090815260409020546001600160a01b031681565b6040516001600160a01b039091168152602001610195565b3480156102bb57600080fd5b5061018b6102ca366004611d1c565b610667565b3480156102db57600080fd5b5061018b6102ea366004611cc7565b60009081526005602052604090206004015490565b34801561030b57600080fd5b5061034561031a366004611cc7565b6000908152600560205260409020805460028201546006830154600190930154919390929160ff1690565b6040805194855260208501939093529183015215156060820152608001610195565b34801561037357600080fd5b506101ee610382366004611cf8565b6001600160a01b0316600090815260036020526040902054151590565b3480156103ab57600080fd5b506101ee6103ba366004611cf8565b610876565b3480156103cb57600080fd5b5061017a6103da366004611cf8565b610a12565b3480156103eb57600080fd5b5060045461018b565b34801561040057600080fd5b5061018b61040f366004611cf8565b60036020526000908152604090205481565b34801561042d57600080fd5b5061018b61043c366004611d6d565b610d7d565b34801561044d57600080fd5b506001546001600160a01b0316610297565b34801561046b57600080fd5b5061029761047a366004611cc7565b610db3565b34801561048b57600080fd5b5061018b610de3565b3480156104a057600080fd5b506101ee6104af366004611cf8565b610f8f565b3480156104c057600080fd5b5061017a6104cf366004611cc7565b61104d565b3480156104e057600080fd5b5061017a6104ef366004611d8f565b611111565b34801561050057600080fd5b5061029761050f366004611cf8565b6113f2565b34801561052057600080fd5b5061053461052f366004611d6d565b611472565b60408051928352602083019190915201610195565b34801561055557600080fd5b506101ee610564366004611cf8565b6114e0565b34801561057557600080fd5b506101ee6117c0565b34801561058a57600080fd5b5061018b61186b565b600080546040805163af0deb9560e01b81529051610661926001600160a01b03169163af0deb959160048083019260209291908290030181865afa1580156105df573d6000803e3d6000fd5b505050506040513d601f19601f820116820180604052508101906106039190611dc4565b6040518060400160405280601181526020017069735369676e657228616464726573732960781b8152508460405160200161064d91906001600160a01b0391909116815260200190565b60405160208183030381529060405261190e565b92915050565b60006106716117c0565b6106b75760405162461bcd60e51b81526020600482015260126024820152716f776e2e696e76616c69642e69735361666560701b60448201526064015b60405180910390fd5b6106c033610f8f565b8061073e575060005460408051634162169f60e01b8152905133926001600160a01b031691634162169f9160048083019260209291908290030181865afa15801561070f573d6000803e3d6000fd5b505050506040513d601f19601f820116820180604052508101906107339190611dc4565b6001600160a01b0316145b61075a5760405162461bcd60e51b81526004016106ae90611de1565b6001600160a01b038316600090815260036020526040902054156107b85760405162461bcd60e51b81526020600482015260156024820152746e65737465642e616c72656164792e65786973747360581b60448201526064016106ae565b6001600160a01b03838116600081815260026020908152604080832080546001600160a01b03199081168b881617909155600480546001810182557f8a35acfbc15ff81a39ae7d344fd709f28e8600b4aa8c65c6b64bfe7fe36bd19b0180549092169095179055925460039091528282208190559288168152205461083d8183611955565b506001600160a01b0384166000908152600360209081526040808320849055838352600590915290206006018390559050949350505050565b60008061095160008054906101000a90046001600160a01b03166001600160a01b031663a66bcbe26040518163ffffffff1660e01b8152600401602060405180830381865afa1580156108cd573d6000803e3d6000fd5b505050506040513d601f19601f820116820180604052508101906108f19190611dc4565b6040518060400160405280601381526020017255736572546f496e737428616464726573732960681b8152508560405160200161093d91906001600160a01b0391909116815260200190565b604051602081830303815290604052611af7565b90506000806001600160a01b0316826001600160a01b03161415905060006109ac836040518060400160405280600b81526020016a697353757370656e64282960a81b8152506040518060200160405280600081525061190e565b905060006109ea846040518060400160405280600881526020016769734c6f636b282960c01b8152506040518060200160405280600081525061190e565b9050821580610a0857508180156109fe5750805b8015610a08575082155b9695505050505050565b60008054906101000a90046001600160a01b03166001600160a01b031663af2331906040518163ffffffff1660e01b8152600401602060405180830381865afa158015610a63573d6000803e3d6000fd5b505050506040513d601f19601f82011682018060405250810190610a879190611dc4565b6001600160a01b0316803b806020016040519081016040528181526000908060200190933c80519060200120336001600160a01b0316803b806020016040519081016040528181526000908060200190933c8051906020012014610b235760405162461bcd60e51b81526020600482015260136024820152726f776e2e756e617574682e696e7374616e636560681b60448201526064016106ae565b6000805460405163013cf08b60e01b815260048101839052610be9916001600160a01b03169063013cf08b90602401602060405180830381865afa158015610b6f573d6000803e3d6000fd5b505050506040513d601f19601f82011682018060405250810190610b939190611dc4565b6040518060400160405280601e81526020017f7265736f6c76655472616e7366657254617267657428616464726573732900008152508460405160200161093d91906001600160a01b0391909116815260200190565b90506001600160a01b038116610c415760405162461bcd60e51b815260206004820152601e60248201527f6e65737465642e757064617465557365727328307830292e6661696c6564000060448201526064016106ae565b6001600160a01b03811660009081526003602052604090205415158015610c995750816001600160a01b0316816001600160a01b03161480610c9957506001600160a01b038216600090815260036020526040902054155b610ce55760405162461bcd60e51b815260206004820152601860248201527f6e65737465642e6e6f746578697374732e696e76616c6964000000000000000060448201526064016106ae565b6001600160a01b038082166000818152600360205260408082205493861680835291209290925514610d18576000610d32565b6001600160a01b0381166000908152600360205260409020545b6001600160a01b039182166000908152600360209081526040808320939093556002905281812080546001600160a01b03199081169091559390921682529020805490911633179055565b6000828152600560205260408120600301805483908110610da057610da0611e0a565b9060005260206000200154905092915050565b600060048281548110610dc857610dc8611e0a565b6000918252602090912001546001600160a01b031692915050565b600080610e9860008054906101000a90046001600160a01b03166001600160a01b031663e1f4cd246040518163ffffffff1660e01b8152600401602060405180830381865afa158015610e3a573d6000803e3d6000fd5b505050506040513d601f19601f82011682018060405250810190610e5e9190611dc4565b6040518060400160405280600c81526020016b72616e6b666f7244414f282960a01b81525060405180602001604052806000815250611b32565b90506000610f7b60008054906101000a90046001600160a01b03166001600160a01b031663ab6e844f6040518163ffffffff1660e01b8152600401602060405180830381865afa158015610ef0573d6000803e3d6000fd5b505050506040513d601f19601f82011682018060405250810190610f149190611dc4565b6040518060400160405280601d81526020017f67657472616e6b636f756e742875696e743235362c75696e7432353629000000815250610f5261186b565b60408051602081019290925281018690526060015b604051602081830303815290604052611b32565b9050610f88816003611e20565b9250505090565b600080546040805163af0deb9560e01b81529051610661926001600160a01b03169163af0deb959160048083019260209291908290030181865afa158015610fdb573d6000803e3d6000fd5b505050506040513d601f19601f82011682018060405250810190610fff9190611dc4565b6040518060400160405280601581526020017469735365637572654261736528616464726573732960581b8152508460405160200161064d91906001600160a01b0391909116815260200190565b60005460408051634162169f60e01b8152905133926001600160a01b031691634162169f9160048083019260209291908290030181865afa158015611096573d6000803e3d6000fd5b505050506040513d601f19601f820116820180604052508101906110ba9190611dc4565b6001600160a01b0316146110e05760405162461bcd60e51b81526004016106ae90611de1565b60405160009082156108fc0290839083818181858288f1935050505015801561110d573d6000803e3d6000fd5b5050565b6111196117c0565b61115a5760405162461bcd60e51b81526020600482015260126024820152716f776e2e696e76616c69642e69735361666560701b60448201526064016106ae565b61116333610f8f565b806111e1575060005460408051634162169f60e01b8152905133926001600160a01b031691634162169f9160048083019260209291908290030181865afa1580156111b2573d6000803e3d6000fd5b505050506040513d601f19601f820116820180604052508101906111d69190611dc4565b6001600160a01b0316145b6111fd5760405162461bcd60e51b81526004016106ae90611de1565b6001600160a01b03831660009081526003602052604090205461125a5760405162461bcd60e51b81526020600482015260156024820152746e65737465642e757365722e6e6f7465786973747360581b60448201526064016106ae565b6001600160a01b03831660009081526003602090815260408083205480845260059092529091206001015460ff166112c85760405162461bcd60e51b81526020600482015260116024820152706e65737465642e6e6f742e61637469766560781b60448201526064016106ae565b600081815260056020526040812060040180548592906112ea576112ea611e0a565b9060005260206000200160008282546113039190611e20565b90915550506000818152600560208190526040822001805484929061132a5761132a611e0a565b9060005260206000200160008282546113439190611e20565b909155505060009081526005602052604090206002015480156113ec5760008181526005602052604090206004018054849190600190811061138757611387611e0a565b9060005260206000200160008282546113a09190611e20565b9091555050600081815260056020819052604090912001805483919060019081106113cd576113cd611e0a565b9060005260206000200160008282546113e69190611e20565b90915550505b50505050565b600080826001600160a01b0316803b806020016040519081016040528181526000908060200190933c9050602d815110156114655760405162461bcd60e51b81526020600482015260136024820152724e6f742061206d696e696d616c2070726f787960681b60448201526064016106ae565b602a015160601c92915050565b600082815260056020526040812060040180548291908490811061149857611498611e0a565b90600052602060002001546005600086815260200190815260200160002060050184815481106114ca576114ca611e0a565b9060005260206000200154915091509250929050565b60008061153760008054906101000a90046001600160a01b03166001600160a01b031663e1f4cd246040518163ffffffff1660e01b8152600401602060405180830381865afa158015610e3a573d6000803e3d6000fd5b905060006115ff60008054906101000a90046001600160a01b03166001600160a01b031663ab6e844f6040518163ffffffff1660e01b8152600401602060405180830381865afa15801561158f573d6000803e3d6000fd5b505050506040513d601f19601f820116820180604052508101906115b39190611dc4565b6040518060400160405280601381526020017255736572546f496e737428616464726573732960681b8152508660405160200161093d91906001600160a01b0391909116815260200190565b905060006116d160008054906101000a90046001600160a01b03166001600160a01b031663ab6e844f6040518163ffffffff1660e01b8152600401602060405180830381865afa158015611657573d6000803e3d6000fd5b505050506040513d601f19601f8201168201806040525081019061167b9190611dc4565b6040518060400160405280601981526020017f67657445666665637469766552616e6b2861646472657373290000000000000081525084604051602001610f6791906001600160a01b0391909116815260200190565b9050600061179560008054906101000a90046001600160a01b03166001600160a01b031663ab6e844f6040518163ffffffff1660e01b8152600401602060405180830381865afa158015611729573d6000803e3d6000fd5b505050506040513d601f19601f8201168201806040525081019061174d9190611dc4565b6040518060400160405280600f81526020016e697353746f7028616464726573732960881b8152508560405160200161064d91906001600160a01b0391909116815260200190565b90506001600160a01b038316158015906117af5750838210155b8015610a0857501595945050505050565b600080546040805163af0deb9560e01b81529051611866926001600160a01b03169163af0deb959160048083019260209291908290030181865afa15801561180c573d6000803e3d6000fd5b505050506040513d601f19601f820116820180604052508101906118309190611dc4565b60405180604001604052806008815260200167697353616665282960c01b8152506040518060200160405280600081525061190e565b905090565b600080546040805163223df87160e11b81529051611866926001600160a01b03169163447bf0e29160048083019260209291908290030181865afa1580156118b7573d6000803e3d6000fd5b505050506040513d601f19601f820116820180604052508101906118db9190611dc4565b60405180604001604052806005815260200164616765282960d81b81525060405180602001604052806000815250611b32565b600080600061191e868686611b6d565b91509150818015611930575080516020145b1561194c57808060200190518101906119499190611e41565b92505b50509392505050565b6119976040518060e001604052806000815260200160001515815260200160008152602001606081526020016060815260200160608152602001600081525090565b60408101839052600160208201528215611a1f5760008381526005602052604081206003015490036119fa576000838152600560208181526040832060048101805460018181018355918652838620018590559201805492830181558352822001555b6000838152600560209081526040822060030180546001810182559083529120018290555b600082815260056020908152604091829020835181558382015160018201805460ff191691151591909117905591830151600283015560608301518051849392611a70926003850192910190611c67565b5060808201518051611a8c916004840191602090910190611c67565b5060a08201518051611aa8916005840191602090910190611c67565b5060c09190910151600690910155506000818152600560208181526040832093845560048401805460018181018355918552828520018490559390910180549384018155825281209091015550565b6000806000611b07868686611b6d565b91509150818015611b19575080516020145b1561194c57808060200190518101906119499190611dc4565b6000806000611b42868686611b6d565b91509150818015611b54575080516020145b1561194c57808060200190518101906119499190611e63565b60006060846001600160a01b03163b600003611b9b5750506040805160208101909152600080825290611c5f565b604080516004815260248101918290526001600160a01b03871691611bc1908790611ea0565b60405180910390206001600160e01b0319166020820180516001600160e01b03838183161783525050505084604051602001611bfe929190611ebc565b60408051601f1981840301815290829052611c1891611ea0565b600060405180830381855afa9150503d8060008114611c53576040519150601f19603f3d011682016040523d82523d6000602084013e611c58565b606091505b5090925090505b935093915050565b828054828255906000526020600020908101928215611ca2579160200282015b82811115611ca2578251825591602001919060010190611c87565b50611cae929150611cb2565b5090565b5b80821115611cae5760008155600101611cb3565b600060208284031215611cd957600080fd5b5035919050565b6001600160a01b0381168114611cf557600080fd5b50565b600060208284031215611d0a57600080fd5b8135611d1581611ce0565b9392505050565b60008060008060808587031215611d3257600080fd5b8435611d3d81611ce0565b93506020850135611d4d81611ce0565b92506040850135611d5d81611ce0565b9396929550929360600135925050565b60008060408385031215611d8057600080fd5b50508035926020909101359150565b600080600060608486031215611da457600080fd5b8335611daf81611ce0565b95602085013595506040909401359392505050565b600060208284031215611dd657600080fd5b8151611d1581611ce0565b6020808252600f908201526e6f776e2e6e6f6e617574682e44414f60881b604082015260600190565b634e487b7160e01b600052603260045260246000fd5b8082018082111561066157634e487b7160e01b600052601160045260246000fd5b600060208284031215611e5357600080fd5b81518015158114611d1557600080fd5b600060208284031215611e7557600080fd5b5051919050565b60005b83811015611e97578181015183820152602001611e7f565b50506000910152565b60008251611eb2818460208701611e7c565b9190910192915050565b60008351611ece818460208801611e7c565b835190830190611ee2818360208801611e7c565b0194935050505056fea26469706673582212204c4be24323546fb4f100060f841e4b371c66fa23c174cf3ebecfee9f3db52b7164736f6c63430008140033","linkReferences":{}},"methodIdentifiers":{"Burn(uint256)":"b90306ad","UserToId(address)":"629d671e","UserToInst(address)":"45145fd7","_addBusiness(address,uint256,uint256)":"c4cf0e3f","_delegatorCount()":"a1f7f539","_getImplementation(address)":"c54e44b0","_isDelegatorNode(address)":"e01ad5fd","_isSafe()":"e0a9bc2b","_isSecureBase(address)":"af484526","_isSigner(address)":"1f185d16","_nested(address,address,address,uint256)":"45ac4bc6","_updateUsers(address)":"5c1d48b9","getBalance()":"12065fe0","getNode(uint256)":"4f0f4aa9","getNodeByIndex(uint256)":"965c90e3","getNodeChild(uint256,uint256)":"896c354a","getNodeDirectsCount(uint256)":"42cc9d57","getNodeLB(uint256,uint256)":"c60c1ec6","getNodeLvlDepth(uint256)":"45ca1257","getNodeParent(uint256)":"175724f6","getNodesCount()":"61ea7208","isNode(uint256)":"419cb27b","isNodeStopped(address)":"51bfd3ae","isUserExists(address)":"509222cd","owner()":"8da5cb5b","systemAge()":"fdc10bc9"},"id":28}