{"abi":[{"type":"constructor","inputs":[],"stateMutability":"nonpayable"},{"type":"fallback","stateMutability":"payable"},{"type":"receive","stateMutability":"payable"},{"type":"function","name":"Burn","inputs":[{"name":"amount","type":"uint256","internalType":"uint256"}],"outputs":[],"stateMutability":"payable"},{"type":"function","name":"InstToId","inputs":[{"name":"","type":"address","internalType":"address"}],"outputs":[{"name":"","type":"uint256","internalType":"uint256"}],"stateMutability":"view"},{"type":"function","name":"UserToInst","inputs":[{"name":"","type":"address","internalType":"address"}],"outputs":[{"name":"","type":"address","internalType":"address"}],"stateMutability":"view"},{"type":"function","name":"_addBusiness","inputs":[{"name":"amount","type":"uint256","internalType":"uint256"}],"outputs":[],"stateMutability":"nonpayable"},{"type":"function","name":"_addBusinessPrime","inputs":[{"name":"amount","type":"uint256","internalType":"uint256"}],"outputs":[],"stateMutability":"nonpayable"},{"type":"function","name":"_nested","inputs":[{"name":"parent","type":"address","internalType":"address"},{"name":"user","type":"address","internalType":"address"},{"name":"_ag","type":"uint256","internalType":"uint256"}],"outputs":[{"name":"","type":"uint256","internalType":"uint256"}],"stateMutability":"nonpayable"},{"type":"function","name":"_nestedRoot","inputs":[{"name":"user","type":"address","internalType":"address"},{"name":"_ag","type":"uint256","internalType":"uint256"}],"outputs":[{"name":"","type":"uint256","internalType":"uint256"}],"stateMutability":"nonpayable"},{"type":"function","name":"_resetuser","inputs":[{"name":"from","type":"address","internalType":"address"},{"name":"to","type":"address","internalType":"address"}],"outputs":[],"stateMutability":"nonpayable"},{"type":"function","name":"_setOwner","inputs":[{"name":"own","type":"address","internalType":"address"},{"name":"isApproved","type":"bool","internalType":"bool"}],"outputs":[],"stateMutability":"nonpayable"},{"type":"function","name":"_setReq","inputs":[{"name":"own","type":"address","internalType":"address"}],"outputs":[],"stateMutability":"nonpayable"},{"type":"function","name":"_setrankCount","inputs":[{"name":"_rnk","type":"uint256","internalType":"uint256"},{"name":"_ag","type":"uint256","internalType":"uint256"}],"outputs":[],"stateMutability":"nonpayable"},{"type":"function","name":"activePrime","inputs":[],"outputs":[{"name":"","type":"uint256","internalType":"uint256"}],"stateMutability":"view"},{"type":"function","name":"getBalance","inputs":[],"outputs":[{"name":"","type":"uint256","internalType":"uint256"}],"stateMutability":"view"},{"type":"function","name":"getNode","inputs":[{"name":"_id","type":"uint256","internalType":"uint256"}],"outputs":[{"name":"pid","type":"uint256","internalType":"uint256"},{"name":"cage","type":"uint256","internalType":"uint256"},{"name":"exist","type":"bool","internalType":"bool"},{"name":"stop","type":"bool","internalType":"bool"}],"stateMutability":"view"},{"type":"function","name":"getNodeActiveDirectsCount","inputs":[{"name":"_id","type":"uint256","internalType":"uint256"}],"outputs":[{"name":"count","type":"uint256","internalType":"uint256"}],"stateMutability":"view"},{"type":"function","name":"getNodeById","inputs":[{"name":"_id","type":"uint256","internalType":"uint256"}],"outputs":[{"name":"","type":"address","internalType":"address"}],"stateMutability":"view"},{"type":"function","name":"getNodeByIndex","inputs":[{"name":"index","type":"uint256","internalType":"uint256"}],"outputs":[{"name":"node","type":"address","internalType":"address"}],"stateMutability":"view"},{"type":"function","name":"getNodeChild","inputs":[{"name":"_id","type":"uint256","internalType":"uint256"},{"name":"inx","type":"uint256","internalType":"uint256"}],"outputs":[{"name":"child","type":"address","internalType":"address"}],"stateMutability":"view"},{"type":"function","name":"getNodeDirectsCount","inputs":[{"name":"_id","type":"uint256","internalType":"uint256"}],"outputs":[{"name":"count","type":"uint256","internalType":"uint256"}],"stateMutability":"view"},{"type":"function","name":"getNodeId","inputs":[{"name":"uinst","type":"address","internalType":"address"}],"outputs":[{"name":"","type":"uint256","internalType":"uint256"}],"stateMutability":"view"},{"type":"function","name":"getNodeParent","inputs":[{"name":"_id","type":"uint256","internalType":"uint256"}],"outputs":[{"name":"","type":"uint256","internalType":"uint256"}],"stateMutability":"view"},{"type":"function","name":"getNodesCount","inputs":[],"outputs":[{"name":"nodesCount","type":"uint256","internalType":"uint256"}],"stateMutability":"view"},{"type":"function","name":"getUserById","inputs":[{"name":"_id","type":"uint256","internalType":"uint256"}],"outputs":[{"name":"","type":"address","internalType":"address"}],"stateMutability":"view"},{"type":"function","name":"getUserId","inputs":[{"name":"user","type":"address","internalType":"address"}],"outputs":[{"name":"","type":"uint256","internalType":"uint256"}],"stateMutability":"view"},{"type":"function","name":"getbusiness","inputs":[{"name":"ag","type":"uint256","internalType":"uint256"}],"outputs":[{"name":"","type":"uint256","internalType":"uint256"}],"stateMutability":"view"},{"type":"function","name":"getrankCount","inputs":[{"name":"_ag","type":"uint256","internalType":"uint256"},{"name":"rnk","type":"uint256","internalType":"uint256"}],"outputs":[{"name":"count","type":"uint256","internalType":"uint256"}],"stateMutability":"view"},{"type":"function","name":"isInstance","inputs":[{"name":"uinst","type":"address","internalType":"address"}],"outputs":[{"name":"","type":"bool","internalType":"bool"}],"stateMutability":"view"},{"type":"function","name":"isNode","inputs":[{"name":"_i","type":"uint256","internalType":"uint256"}],"outputs":[{"name":"","type":"bool","internalType":"bool"}],"stateMutability":"view"},{"type":"function","name":"isNodeByInst","inputs":[{"name":"uinst","type":"address","internalType":"address"}],"outputs":[{"name":"","type":"bool","internalType":"bool"}],"stateMutability":"view"},{"type":"function","name":"isOwnerOrSafeOwner","inputs":[{"name":"sender","type":"address","internalType":"address"}],"outputs":[{"name":"","type":"bool","internalType":"bool"}],"stateMutability":"view"},{"type":"function","name":"isStop","inputs":[{"name":"_id","type":"uint256","internalType":"uint256"}],"outputs":[{"name":"","type":"bool","internalType":"bool"}],"stateMutability":"view"},{"type":"function","name":"isUser","inputs":[{"name":"node","type":"address","internalType":"address"}],"outputs":[{"name":"","type":"bool","internalType":"bool"}],"stateMutability":"view"},{"type":"function","name":"isUserInst","inputs":[{"name":"node","type":"address","internalType":"address"},{"name":"_ins","type":"address","internalType":"address"}],"outputs":[{"name":"isIndeed","type":"bool","internalType":"bool"}],"stateMutability":"view"},{"type":"function","name":"kill","inputs":[{"name":"_toSend","type":"address","internalType":"address"}],"outputs":[],"stateMutability":"nonpayable"},{"type":"function","name":"own_reinit","inputs":[{"name":"_h","type":"address","internalType":"address"}],"outputs":[],"stateMutability":"nonpayable"},{"type":"function","name":"owner","inputs":[],"outputs":[{"name":"","type":"address","internalType":"address"}],"stateMutability":"view"},{"type":"function","name":"req","inputs":[],"outputs":[{"name":"newowner","type":"address","internalType":"address"},{"name":"isReq","type":"bool","internalType":"bool"},{"name":"isVer1","type":"bool","internalType":"bool"},{"name":"isVer2","type":"bool","internalType":"bool"},{"name":"isVer3","type":"bool","internalType":"bool"}],"stateMutability":"view"},{"type":"function","name":"setDefaultRankCount","inputs":[],"outputs":[],"stateMutability":"nonpayable"},{"type":"function","name":"setImported","inputs":[{"name":"flg","type":"bool","internalType":"bool"}],"outputs":[],"stateMutability":"nonpayable"},{"type":"function","name":"setStop","inputs":[{"name":"flag","type":"bool","internalType":"bool"}],"outputs":[],"stateMutability":"nonpayable"},{"type":"function","name":"withdraw","inputs":[{"name":"to","type":"address","internalType":"address"},{"name":"amount","type":"uint256","internalType":"uint256"}],"outputs":[],"stateMutability":"payable"}],"bytecode":{"object":"0x608060405260006012556016805460ff191690553480156200002057600080fd5b5062000040739b3d18024fd51961230ef88d6a43babdf0f5e8d662000086565b601180546001810182556000919091527f31ecc21a745e3968a04e9570e4425bc18fa8019c68028196b546d1669c200c680180546001600160a01b03191690556200071f565b6000546001600160a01b031615620000d95760405162461bcd60e51b81526020600482015260126024820152711bdddb8b9a195e18985cd94b99985a5b195960721b604482015260640160405180910390fd5b600c8054326001600160a01b031991821617909155600080549091166001600160a01b0383161790556200010c6200010f565b50565b6000546001600160a01b03166200012257565b60008054906101000a90046001600160a01b03166001600160a01b0316634162169f6040518163ffffffff1660e01b8152600401602060405180830381865afa15801562000174573d6000803e3d6000fd5b505050506040513d601f19601f820116820180604052508101906200019a9190620006ed565b600180546001600160a01b0319166001600160a01b0392831617905560005460408051635abedee360e11b81529051919092169163b57dbdc69160048083019260209291908290030181865afa158015620001f9573d6000803e3d6000fd5b505050506040513d601f19601f820116820180604052508101906200021f9190620006ed565b600280546001600160a01b0319166001600160a01b039283161790556000546040805163cfbffe5360e01b81529051919092169163cfbffe539160048083019260209291908290030181865afa1580156200027e573d6000803e3d6000fd5b505050506040513d601f19601f82011682018060405250810190620002a49190620006ed565b600380546001600160a01b0319166001600160a01b039283161790556000546040805163ab6e844f60e01b81529051919092169163ab6e844f9160048083019260209291908290030181865afa15801562000303573d6000803e3d6000fd5b505050506040513d601f19601f82011682018060405250810190620003299190620006ed565b600480546001600160a01b0319166001600160a01b0392831617815560005460408051639a7c407760e01b815290519190931692639a7c407792818101926020929091908290030181865afa15801562000387573d6000803e3d6000fd5b505050506040513d601f19601f82011682018060405250810190620003ad9190620006ed565b600580546001600160a01b0319166001600160a01b0392831617905560005460408051635506ee0b60e11b81529051919092169163aa0ddc169160048083019260209291908290030181865afa1580156200040c573d6000803e3d6000fd5b505050506040513d601f19601f82011682018060405250810190620004329190620006ed565b600780546001600160a01b0319166001600160a01b03928316179055600054604080516335a577e360e11b815290519190921691636b4aefc69160048083019260209291908290030181865afa15801562000491573d6000803e3d6000fd5b505050506040513d601f19601f82011682018060405250810190620004b79190620006ed565b600880546001600160a01b0319166001600160a01b03928316179055600054604080516324768d9160e01b8152905191909216916324768d919160048083019260209291908290030181865afa15801562000516573d6000803e3d6000fd5b505050506040513d601f19601f820116820180604052508101906200053c9190620006ed565b600b80546001600160a01b0319166001600160a01b0392831617905560005460408051636402742760e01b81529051919092169163640274279160048083019260209291908290030181865afa1580156200059b573d6000803e3d6000fd5b505050506040513d601f19601f82011682018060405250810190620005c19190620006ed565b600980546001600160a01b0319166001600160a01b03928316179055600054604080516330125cf560e01b8152905191909216916330125cf59160048083019260209291908290030181865afa15801562000620573d6000803e3d6000fd5b505050506040513d601f19601f82011682018060405250810190620006469190620006ed565b600a80546001600160a01b0319166001600160a01b03928316179055600054604080516369e8d84b60e11b81529051919092169163d3d1b0969160048083019260209291908290030181865afa158015620006a5573d6000803e3d6000fd5b505050506040513d601f19601f82011682018060405250810190620006cb9190620006ed565b600680546001600160a01b0319166001600160a01b0392909216919091179055565b6000602082840312156200070057600080fd5b81516001600160a01b03811681146200071857600080fd5b9392505050565b61374a806200072f6000396000f3fe6080604052600436106102325760003560e01c80636b44e6be1161012d578063aba8a31d116100b0578063c6bf7da211610077578063c6bf7da21461082d578063cbf0b0c014610843578063e4a312d114610863578063e89a116014610883578063eb95c662146108b0578063f3fef3a3146108dd57005b8063aba8a31d14610774578063abb8c965146107a4578063b56e4129146107c4578063b8056579146107fa578063b90306ad1461081a57005b80638da5cb5b116100f45780638da5cb5b146106e15780639380fd5f146106ff578063965c90e314610714578063986b72951461073457806398c6b9e11461075457005b80636b44e6be146105fb5780636ed6da9e146106335780638033eded1461066957806380f85e3314610689578063896c354a146106c157005b806341ffe7c4116101b5578063542792331161017c57806354279233146105665780635d4233961461058657806360af454d146105a657806361ea7208146105c6578063641657cb146105db57005b806341ffe7c4146104455780634209fff11461046557806342cc9d571461048557806345145fd7146104b55780634f0f4aa9146104eb57005b80632b956ff7116101f95780632b956ff714610382578063379a423c146103a25780633a109e92146103d25780633e76348914610405578063419cb27b1461042557005b80630d43aaf21461023b5780630e6a8496146102c457806312065fe014610315578063175724f6146103325780631ea3c8b41461036257005b3661023957005b005b34801561024757600080fd5b50600d54610285906001600160a01b0381169060ff600160a01b8204811691600160a81b8104821691600160b01b8204811691600160b81b90041685565b604080516001600160a01b03909616865293151560208601529115159284019290925290151560608301521515608082015260a0015b60405180910390f35b3480156102d057600080fd5b506102fd6102df3660046133e8565b6000908152601060205260409020600101546001600160a01b031690565b6040516001600160a01b0390911681526020016102bb565b34801561032157600080fd5b50475b6040519081526020016102bb565b34801561033e57600080fd5b5061032461034d3660046133e8565b60009081526010602052604090206002015490565b34801561036e57600080fd5b5061023961037d366004613416565b6108f0565b34801561038e57600080fd5b5061032461039d36600461344f565b610b48565b3480156103ae57600080fd5b506103c26103bd36600461344f565b610b79565b60405190151581526020016102bb565b3480156103de57600080fd5b506103c26103ed3660046133e8565b60009081526010602052604090206006015460ff1690565b34801561041157600080fd5b506103c261042036600461344f565b610c03565b34801561043157600080fd5b506103c26104403660046133e8565b610c21565b34801561045157600080fd5b5061023961046036600461344f565b610c40565b34801561047157600080fd5b506103c261048036600461344f565b610ef7565b34801561049157600080fd5b506103246104a03660046133e8565b60009081526010602052604090206003015490565b3480156104c157600080fd5b506102fd6104d036600461344f565b600e602052600090815260409020546001600160a01b031681565b3480156104f757600080fd5b5061053e6105063660046133e8565b600090815260106020526040902060028101546005820154600183015460069093015491939092600160a01b900460ff908116921690565b60408051948552602085019390935290151591830191909152151560608201526080016102bb565b34801561057257600080fd5b5061032461058136600461346c565b610f24565b34801561059257600080fd5b506103c26105a1366004613416565b611309565b3480156105b257600080fd5b506102396105c136600461344f565b61137c565b3480156105d257600080fd5b50601154610324565b3480156105e757600080fd5b506102396105f63660046134a6565b6113fe565b34801561060757600080fd5b506103c261061636600461344f565b6001600160a01b03166000908152600f6020526040902054151590565b34801561063f57600080fd5b506102fd61064e3660046133e8565b6000908152601060205260409020546001600160a01b031690565b34801561067557600080fd5b506102396106843660046134a6565b6114f6565b34801561069557600080fd5b506103246106a43660046134c3565b600091825260156020908152604080842092845291905290205490565b3480156106cd57600080fd5b506102fd6106dc3660046134c3565b611624565b3480156106ed57600080fd5b50600c546001600160a01b03166102fd565b34801561070b57600080fd5b50610239611679565b34801561072057600080fd5b506102fd61072f3660046133e8565b6117a6565b34801561074057600080fd5b5061023961074f3660046133e8565b6117d6565b34801561076057600080fd5b5061023961076f3660046133e8565b6119af565b34801561078057600080fd5b5061032461078f3660046133e8565b60009081526010602052604090206004015490565b3480156107b057600080fd5b506102396107bf3660046134e5565b611baf565b3480156107d057600080fd5b506103246107df36600461344f565b6001600160a01b03166000908152600f602052604090205490565b34801561080657600080fd5b506102396108153660046134c3565b611f89565b6102396108283660046133e8565b612084565b34801561083957600080fd5b5061032460125481565b34801561084f57600080fd5b5061023961085e36600461344f565b61216e565b34801561086f57600080fd5b5061032461087e366004613513565b612177565b34801561088f57600080fd5b5061032461089e36600461344f565b600f6020526000908152604090205481565b3480156108bc57600080fd5b506103246108cb3660046133e8565b60009081526013602052604090205490565b6102396108eb36600461346c565b61251a565b806001600160a01b0381166109205760405162461bcd60e51b815260040161091790613554565b60405180910390fd5b826001600160a01b0381166109475760405162461bcd60e51b815260040161091790613554565b600260009054906101000a90046001600160a01b03166001600160a01b0316636a276f9d6040518163ffffffff1660e01b8152600401602060405180830381865afa15801561099a573d6000803e3d6000fd5b505050506040513d601f19601f820116820180604052508101906109be9190613580565b6109da5760405162461bcd60e51b81526004016109179061359d565b336000908152600f60205260409020546109f390610c21565b610a0f5760405162461bcd60e51b8152600401610917906135c9565b6001600160a01b038085166000908152600e60209081526040808320549093168252600f9052818120543382529190205414610a7d5760405162461bcd60e51b815260206004820152600d60248201526c1b995ccb99985ad94b98d85b1b609a1b6044820152606401610917565b610a8684610ef7565b8015610a985750610a9683610ef7565b155b610adc5760405162461bcd60e51b81526020600482015260156024820152741b9bdd08195e1a5cdd1cc81bdc881a5b9d985b1a59605a1b6044820152606401610917565b50506001600160a01b039182166000818152600e6020818152604080842080549688168086528286208054988a166001600160a01b0319998a1617905581549098168552600f835281852054855260108352908420805487169097179096559290915290528154169055565b6001600160a01b038082166000908152600e60209081526040808320549093168252600f9052908120545b92915050565b6002546040516319c0642960e01b81526001600160a01b03838116600483015260009216906319c0642990602401602060405180830381865afa158015610bc4573d6000803e3d6000fd5b505050506040513d601f19601f82011682018060405250810190610be89190613580565b80610b73575050600c546001600160a01b0391821691161490565b6001600160a01b0381166000908152600f6020526040812054610b73905b600090815260106020526040902060010154600160a01b900460ff1690565b600260009054906101000a90046001600160a01b03166001600160a01b0316636a276f9d6040518163ffffffff1660e01b8152600401602060405180830381865afa158015610c93573d6000803e3d6000fd5b505050506040513d601f19601f82011682018060405250810190610cb79190613580565b610cd35760405162461bcd60e51b8152600401610917906135f3565b6001546001600160a01b0316331480610d535750600254604051637df73e2760e01b81523360048201526001600160a01b0390911690637df73e2790602401602060405180830381865afa158015610d2f573d6000803e3d6000fd5b505050506040513d601f19601f82011682018060405250810190610d539190613580565b610d945760405162461bcd60e51b81526020600482015260126024820152716f776d2e66616b652e2064656c656761746560701b6044820152606401610917565b6002546040516307612f9160e21b81523360048201526000916001600160a01b031690631d84be4490602401602060405180830381865afa158015610ddd573d6000803e3d6000fd5b505050506040513d601f19601f82011682018060405250810190610e01919061361f565b9050610e346040805160a08101825260008082526020820181905291810182905260608101829052608081019190915290565b600160208201819052829003610e4c57600160408201525b81600203610e5c57600160608201525b81600303610e6c57600160808201525b6001600160a01b03909216808352600d80546020850151604086015160608701516080909701511515600160b81b0260ff60b81b19971515600160b01b0260ff60b01b19921515600160a81b029290921661ffff60a81b19931515600160a01b026001600160a81b031990951690961793909317919091169390931792909217939093161790915550565b6001600160a01b039081166000908152600e60209081526040808320549093168252600f90522054151590565b60025460408051636a276f9d60e01b815290516000926001600160a01b031691636a276f9d9160048083019260209291908290030181865afa158015610f6e573d6000803e3d6000fd5b505050506040513d601f19601f82011682018060405250810190610f929190613580565b610fae5760405162461bcd60e51b8152600401610917906135f3565b6002546040516319c0642960e01b81523360048201526001600160a01b03909116906319c0642990602401602060405180830381865afa158015610ff6573d6000803e3d6000fd5b505050506040513d601f19601f8201168201806040525081019061101a9190613580565b6110365760405162461bcd60e51b815260040161091790613638565b600260009054906101000a90046001600160a01b03166001600160a01b0316636a276f9d6040518163ffffffff1660e01b8152600401602060405180830381865afa158015611089573d6000803e3d6000fd5b505050506040513d601f19601f820116820180604052508101906110ad9190613580565b6110c95760405162461bcd60e51b81526004016109179061359d565b60008054906101000a90046001600160a01b03166001600160a01b031663e61dfd586040518163ffffffff1660e01b8152600401602060405180830381865afa15801561111a573d6000803e3d6000fd5b505050506040513d601f19601f8201168201806040525081019061113e9190613663565b6001600160a01b0316803b806020016040519081016040528181526000908060200190933c80519060200120336001600160a01b0316803b806020016040519081016040528181526000908060200190933c80519060200120146111d55760405162461bcd60e51b815260206004820152600e60248201526d0dccae65ceee4dedcce5cd0c2e6d60931b6044820152606401610917565b6111de83610ef7565b156112205760405162461bcd60e51b81526020600482015260126024820152716e65732e616c72656164792e65786973747360701b6044820152606401610917565b6001600160a01b0383166000818152600e602090815260408083208054336001600160a01b0319918216811790925560118054928652600f855283862083905560018381019091557f31ecc21a745e3968a04e9570e4425bc18fa8019c68028196b546d1669c200c68909201805490911690951790945585835260158252808320838052909152812080549091906112b9908490613696565b9091555050336000908152600f60205260408120546112d89190612679565b50336000818152600f6020818152604080842080548552601083529084206005018690559390925290525492915050565b600061131483610ef7565b801561135257506001600160a01b038083166000908152600f60208181526040808420548886168552600e8352818520549095168452919052902054145b801561137557506001600160a01b0382166000908152600f602052604090205415155b9392505050565b6000546001600160a01b0316156113ca5760405162461bcd60e51b81526020600482015260126024820152711bdddb8b9a195e18985cd94b99985a5b195960721b6044820152606401610917565b600c8054326001600160a01b031991821617909155600080549091166001600160a01b0383161790556113fb612872565b50565b600260009054906101000a90046001600160a01b03166001600160a01b0316636a276f9d6040518163ffffffff1660e01b8152600401602060405180830381865afa158015611451573d6000803e3d6000fd5b505050506040513d601f19601f820116820180604052508101906114759190613580565b6114915760405162461bcd60e51b81526004016109179061359d565b336000908152600f60205260409020546114aa90610c21565b6114c65760405162461bcd60e51b8152600401610917906135c9565b336000908152600f6020908152604080832054835260109091529020600601805460ff1916911515919091179055565b600260009054906101000a90046001600160a01b03166001600160a01b0316636a276f9d6040518163ffffffff1660e01b8152600401602060405180830381865afa158015611549573d6000803e3d6000fd5b505050506040513d601f19601f8201168201806040525081019061156d9190613580565b6115895760405162461bcd60e51b8152600401610917906135f3565b6002546040516319c0642960e01b81523360048201526001600160a01b03909116906319c0642990602401602060405180830381865afa1580156115d1573d6000803e3d6000fd5b505050506040513d601f19601f820116820180604052508101906115f59190613580565b6116115760405162461bcd60e51b815260040161091790613638565b6016805460ff1916911515919091179055565b6000828152601060208190526040822060030180548391908590811061164c5761164c6136a9565b600091825260208083209091015483528201929092526040019020546001600160a01b0316905092915050565b600260009054906101000a90046001600160a01b03166001600160a01b0316636a276f9d6040518163ffffffff1660e01b8152600401602060405180830381865afa1580156116cc573d6000803e3d6000fd5b505050506040513d601f19601f820116820180604052508101906116f09190613580565b61170c5760405162461bcd60e51b8152600401610917906135f3565b6002546040516319c0642960e01b81523360048201526001600160a01b03909116906319c0642990602401602060405180830381865afa158015611754573d6000803e3d6000fd5b505050506040513d601f19601f820116820180604052508101906117789190613580565b6117945760405162461bcd60e51b815260040161091790613638565b6117a461179f612e2e565b612ea1565b565b6000601182815481106117bb576117bb6136a9565b6000918252602090912001546001600160a01b031692915050565b600260009054906101000a90046001600160a01b03166001600160a01b0316636a276f9d6040518163ffffffff1660e01b8152600401602060405180830381865afa158015611829573d6000803e3d6000fd5b505050506040513d601f19601f8201168201806040525081019061184d9190613580565b6118695760405162461bcd60e51b81526004016109179061359d565b336000908152600f602052604090205461188290610c21565b61189e5760405162461bcd60e51b8152600401610917906135c9565b336000908152600f60209081526040808320548352601090915290206006015460ff1615806118cf575060165460ff165b6119095760405162461bcd60e51b815260206004820152600b60248201526a1b995ccb9cdd1bdc1c195960aa1b6044820152606401610917565b61191281613102565b336000908152600f6020908152604080832054835260109091529020600201541580159061195d5750336000908152600f602090815260408083205483526010909152902060080154155b156119785760128054906000611972836136bf565b91905055505b336000908152600f602090815260408083205483526010909152812060080180548392906119a7908490613696565b909155505050565b600260009054906101000a90046001600160a01b03166001600160a01b0316636a276f9d6040518163ffffffff1660e01b8152600401602060405180830381865afa158015611a02573d6000803e3d6000fd5b505050506040513d601f19601f82011682018060405250810190611a269190613580565b611a425760405162461bcd60e51b81526004016109179061359d565b336000908152600f6020526040902054611a5b90610c21565b611a775760405162461bcd60e51b8152600401610917906135c9565b336000908152600f60209081526040808320548352601090915290206006015460ff161580611aa8575060165460ff165b611ae25760405162461bcd60e51b815260206004820152600b60248201526a1b995ccb9cdd1bdc1c195960aa1b6044820152606401610917565b611aed61179f612e2e565b611af6816131b7565b336000908152600f60209081526040808320548352601090915290206002015415801590611b415750336000908152600f602090815260408083205483526010909152902060070154155b15611b8057336000908152600f6020908152604080832054835260109091528082206002015482528120600401805491611b7a836136bf565b91905055505b336000908152600f602090815260408083205483526010909152812060070180548392906119a7908490613696565b600260009054906101000a90046001600160a01b03166001600160a01b0316636a276f9d6040518163ffffffff1660e01b8152600401602060405180830381865afa158015611c02573d6000803e3d6000fd5b505050506040513d601f19601f82011682018060405250810190611c269190613580565b611c425760405162461bcd60e51b8152600401610917906135f3565b6001546001600160a01b0316331480611cc25750600254604051637df73e2760e01b81523360048201526001600160a01b0390911690637df73e2790602401602060405180830381865afa158015611c9e573d6000803e3d6000fd5b505050506040513d601f19601f82011682018060405250810190611cc29190613580565b611d035760405162461bcd60e51b81526020600482015260126024820152716f776d2e66616b652e2064656c656761746560701b6044820152606401610917565b8015611f4d576002546040516307612f9160e21b81523360048201526000916001600160a01b031690631d84be4490602401602060405180830381865afa158015611d52573d6000803e3d6000fd5b505050506040513d601f19601f82011682018060405250810190611d76919061361f565b600d54909150600160a01b900460ff168015611d925750806001145b8015611dab5750600d546001600160a01b038481169116145b15611dc457600d805460ff60a81b1916600160a81b1790555b600d54600160a01b900460ff168015611ddd5750806002145b8015611df65750600d546001600160a01b038481169116145b15611e0f57600d805460ff60b01b1916600160b01b1790555b600d54600160a01b900460ff168015611e285750806003145b8015611e415750600d546001600160a01b038481169116145b15611e5a57600d805460ff60b81b1916600160b81b1790555b600d54600090600160a81b900460ff1615611e7d5780611e79816136bf565b9150505b600d54600160b01b900460ff1615611e9d5780611e99816136bf565b9150505b600d54600160b81b900460ff1615611ebd5780611eb9816136bf565b9150505b600d54600160a01b900460ff168015611ed65750806002145b8015611eef5750600d546001600160a01b038581169116145b15611f4757600c80546001600160a01b0319166001600160a01b0386161790556040805160a0810182526000808252602082018190529181018290526060810182905260800152600d80546001600160c01b03191690555b50505050565b6040805160a0810182526000808252602082018190529181018290526060810182905260800152600d80546001600160c01b03191690555b5050565b600260009054906101000a90046001600160a01b03166001600160a01b0316636a276f9d6040518163ffffffff1660e01b8152600401602060405180830381865afa158015611fdc573d6000803e3d6000fd5b505050506040513d601f19601f820116820180604052508101906120009190613580565b61201c5760405162461bcd60e51b81526004016109179061359d565b336000908152600f602052604090205461203590610c21565b6120515760405162461bcd60e51b8152600401610917906135c9565b6000818152601560209081526040808320858452909152812080546001929061207b908490613696565b90915550505050565b600260009054906101000a90046001600160a01b03166001600160a01b0316636a276f9d6040518163ffffffff1660e01b8152600401602060405180830381865afa1580156120d7573d6000803e3d6000fd5b505050506040513d601f19601f820116820180604052508101906120fb9190613580565b6121175760405162461bcd60e51b8152600401610917906135f3565b6001546001600160a01b031633146121415760405162461bcd60e51b8152600401610917906136d8565b60405160009082156108fc0290839083818181858288f19350505050158015611f85573d6000803e3d6000fd5b6113fb81613258565b60025460408051636a276f9d60e01b815290516000926001600160a01b031691636a276f9d9160048083019260209291908290030181865afa1580156121c1573d6000803e3d6000fd5b505050506040513d601f19601f820116820180604052508101906121e59190613580565b6122015760405162461bcd60e51b81526004016109179061359d565b60008054906101000a90046001600160a01b03166001600160a01b031663e61dfd586040518163ffffffff1660e01b8152600401602060405180830381865afa158015612252573d6000803e3d6000fd5b505050506040513d601f19601f820116820180604052508101906122769190613663565b6001600160a01b0316803b806020016040519081016040528181526000908060200190933c80519060200120336001600160a01b0316803b806020016040519081016040528181526000908060200190933c805190602001201461230d5760405162461bcd60e51b815260206004820152600e60248201526d0dccae65ceee4dedcce5cd0c2e6d60931b6044820152606401610917565b6001600160a01b038481166000908152600e60209081526040808320549093168252600f9052205461233e84610ef7565b156123805760405162461bcd60e51b81526020600482015260126024820152716e65732e616c72656164792e65786973747360701b6044820152606401610917565b61238981610c21565b6123cc5760405162461bcd60e51b81526020600482015260146024820152736e65732e706172656e742e6e6f7465786973747360601b6044820152606401610917565b60008181526010602052604090206007015461241d5760405162461bcd60e51b815260206004820152601060248201526f6e65732e6c6f772e627573696e65737360801b6044820152606401610917565b6001600160a01b0384166000818152600e602090815260408083208054336001600160a01b0319918216811790925560118054928652600f909452918420819055600181018355919092527f31ecc21a745e3968a04e9570e4425bc18fa8019c68028196b546d1669c200c68018054909116909117905561249d83612ea1565b600083815260156020908152604080832083805290915281208054600192906124c7908490613696565b9091555050336000908152600f60205260409020546124e7908290612679565b5050336000818152600f602081815260408084208054855260108352908420600501869055939092529052549392505050565b816001600160a01b0381166125415760405162461bcd60e51b815260040161091790613554565b600260009054906101000a90046001600160a01b03166001600160a01b0316636a276f9d6040518163ffffffff1660e01b8152600401602060405180830381865afa158015612594573d6000803e3d6000fd5b505050506040513d601f19601f820116820180604052508101906125b89190613580565b6125d45760405162461bcd60e51b8152600401610917906135f3565b6001546001600160a01b031633146125fe5760405162461bcd60e51b8152600401610917906136d8565b600082116126435760405162461bcd60e51b81526020600482015260126024820152711bdddb8b9a5b9d985b1a590b985b5bdd5b9d60721b6044820152606401610917565b6040516001600160a01b0384169083156108fc029084906000818181858888f19350505050158015611f47573d6000803e3d6000fd5b6126e560405180610140016040528060006001600160a01b0316815260200160006001600160a01b031681526020016000151581526020016000815260200160608152602001600081526020016000815260200160001515815260200160008152602001600081525090565b6060810183905260016040820152821561271e576000838152601060209081526040822060030180546001810182559083529120018290555b600082815260106020908152604091829020835181546001600160a01b039182166001600160a01b031990911617825582850151600183018054958701511515600160a01b026001600160a81b031990961691909216179390931790925560608301516002830155608083015180518493926127a1926003850192910190613388565b5060a0820151600482015560c0820151600582015560e082015160068201805460ff191691151591909117905561010082015160078201556101209091015160089091015560118054839081106127fa576127fa6136a9565b60009182526020808320909101548483526010909152604090912080546001600160a01b03199081166001600160a01b03909316929092178155600101805490911633179055821561284d576000612850565b60015b60ff166010600084815260200190815260200160002060070181905550505050565b6000546001600160a01b031661288457565b60008054906101000a90046001600160a01b03166001600160a01b0316634162169f6040518163ffffffff1660e01b8152600401602060405180830381865afa1580156128d5573d6000803e3d6000fd5b505050506040513d601f19601f820116820180604052508101906128f99190613663565b600180546001600160a01b0319166001600160a01b0392831617905560005460408051635abedee360e11b81529051919092169163b57dbdc69160048083019260209291908290030181865afa158015612957573d6000803e3d6000fd5b505050506040513d601f19601f8201168201806040525081019061297b9190613663565b600280546001600160a01b0319166001600160a01b039283161790556000546040805163cfbffe5360e01b81529051919092169163cfbffe539160048083019260209291908290030181865afa1580156129d9573d6000803e3d6000fd5b505050506040513d601f19601f820116820180604052508101906129fd9190613663565b600380546001600160a01b0319166001600160a01b039283161790556000546040805163ab6e844f60e01b81529051919092169163ab6e844f9160048083019260209291908290030181865afa158015612a5b573d6000803e3d6000fd5b505050506040513d601f19601f82011682018060405250810190612a7f9190613663565b600480546001600160a01b0319166001600160a01b0392831617815560005460408051639a7c407760e01b815290519190931692639a7c407792818101926020929091908290030181865afa158015612adc573d6000803e3d6000fd5b505050506040513d601f19601f82011682018060405250810190612b009190613663565b600580546001600160a01b0319166001600160a01b0392831617905560005460408051635506ee0b60e11b81529051919092169163aa0ddc169160048083019260209291908290030181865afa158015612b5e573d6000803e3d6000fd5b505050506040513d601f19601f82011682018060405250810190612b829190613663565b600780546001600160a01b0319166001600160a01b03928316179055600054604080516335a577e360e11b815290519190921691636b4aefc69160048083019260209291908290030181865afa158015612be0573d6000803e3d6000fd5b505050506040513d601f19601f82011682018060405250810190612c049190613663565b600880546001600160a01b0319166001600160a01b03928316179055600054604080516324768d9160e01b8152905191909216916324768d919160048083019260209291908290030181865afa158015612c62573d6000803e3d6000fd5b505050506040513d601f19601f82011682018060405250810190612c869190613663565b600b80546001600160a01b0319166001600160a01b0392831617905560005460408051636402742760e01b81529051919092169163640274279160048083019260209291908290030181865afa158015612ce4573d6000803e3d6000fd5b505050506040513d601f19601f82011682018060405250810190612d089190613663565b600980546001600160a01b0319166001600160a01b03928316179055600054604080516330125cf560e01b8152905191909216916330125cf59160048083019260209291908290030181865afa158015612d66573d6000803e3d6000fd5b505050506040513d601f19601f82011682018060405250810190612d8a9190613663565b600a80546001600160a01b0319166001600160a01b03928316179055600054604080516369e8d84b60e11b81529051919092169163d3d1b0969160048083019260209291908290030181865afa158015612de8573d6000803e3d6000fd5b505050506040513d601f19601f82011682018060405250810190612e0c9190613663565b600680546001600160a01b0319166001600160a01b0392909216919091179055565b6002546040805163262a9dff60e01b815290516000926001600160a01b03169163262a9dff9160048083019260209291908290030181865afa158015612e78573d6000803e3d6000fd5b505050506040513d601f19601f82011682018060405250810190612e9c919061361f565b905090565b6000818152601560209081526040808320838052909152902054158015612ec85750600181115b156113fb57612edb61179f600183613701565b60156000612eea600184613701565b815260208082019290925260409081016000908120818052835281812054848252601580855283832083805290945291812091909155612f2b600184613701565b81526020808201929092526040908101600090812060018083529084528282205485835260158086528484208385529095529282209290925590612f6f9084613701565b8152602080820192909252604090810160009081206002808352908452828220548583526015808652848420928452919094529181209290925590612fb5600184613701565b8152602080820192909252604090810160009081206003808352908452828220548583526015808652848420928452919094529181209290925590612ffb600184613701565b8152602080820192909252604090810160009081206004808352908452828220548583526015808652848420928452919094529181209290925590613041600184613701565b8152602080820192909252604090810160009081206005808352908452828220548583526015808652848420928452919094529181209290925590613087600184613701565b81526020808201929092526040908101600090812060068083529084528282205485835260158086528484209284529190945291812092909255906130cd600184613701565b815260208082019290925260409081016000908120600780835290845282822054858352601585528383209183529352205550565b60165460ff1615613171576000805260146020527f4f26c3876aa9f4b92579780beea1161a61f87ebf1ec6ee865b299e447ecba99c54613143908290613696565b6000805260146020527f4f26c3876aa9f4b92579780beea1161a61f87ebf1ec6ee865b299e447ecba99c5550565b806014600061317e612e2e565b8152602001908152602001600020546131979190613696565b601460006131a3612e2e565b815260208101919091526040016000205550565b60165460ff1615613226576000805260136020527f8fa6efc3be94b5b348b21fea823fe8d100408cee9b7f90524494500445d8ff6c546131f8908290613696565b6000805260136020527f8fa6efc3be94b5b348b21fea823fe8d100408cee9b7f90524494500445d8ff6c5550565b8060136000613233612e2e565b81526020019081526020016000205461324c9190613696565b601360006131a3612e2e565b600260009054906101000a90046001600160a01b03166001600160a01b0316636a276f9d6040518163ffffffff1660e01b8152600401602060405180830381865afa1580156132ab573d6000803e3d6000fd5b505050506040513d601f19601f820116820180604052508101906132cf9190613580565b6132eb5760405162461bcd60e51b8152600401610917906135f3565b6002546040516319c0642960e01b81523360048201526001600160a01b03909116906319c0642990602401602060405180830381865afa158015613333573d6000803e3d6000fd5b505050506040513d601f19601f820116820180604052508101906133579190613580565b8061336c57506001546001600160a01b031633145b6113fb5760405162461bcd60e51b8152600401610917906136d8565b8280548282559060005260206000209081019282156133c3579160200282015b828111156133c35782518255916020019190600101906133a8565b506133cf9291506133d3565b5090565b5b808211156133cf57600081556001016133d4565b6000602082840312156133fa57600080fd5b5035919050565b6001600160a01b03811681146113fb57600080fd5b6000806040838503121561342957600080fd5b823561343481613401565b9150602083013561344481613401565b809150509250929050565b60006020828403121561346157600080fd5b813561137581613401565b6000806040838503121561347f57600080fd5b823561348a81613401565b946020939093013593505050565b80151581146113fb57600080fd5b6000602082840312156134b857600080fd5b813561137581613498565b600080604083850312156134d657600080fd5b50508035926020909101359150565b600080604083850312156134f857600080fd5b823561350381613401565b9150602083013561344481613498565b60008060006060848603121561352857600080fd5b833561353381613401565b9250602084013561354381613401565b929592945050506040919091013590565b60208082526012908201527137bbb7173232b330bab63a1739b2b73232b960711b604082015260600190565b60006020828403121561359257600080fd5b815161137581613498565b6020808252601290820152716e65732e696e76616c69642e69735361666560701b604082015260600190565b60208082526010908201526f6e65732e616b652e696e7374616e636560801b604082015260600190565b6020808252601290820152716f776e2e696e76616c69642e69735361666560701b604082015260600190565b60006020828403121561363157600080fd5b5051919050565b60208082526011908201527024b73b30b634b21029b0b332a7bbb732b960791b604082015260600190565b60006020828403121561367557600080fd5b815161137581613401565b634e487b7160e01b600052601160045260246000fd5b80820180821115610b7357610b73613680565b634e487b7160e01b600052603260045260246000fd5b6000600182016136d1576136d1613680565b5060010190565b6020808252600f908201526e6f776e2e6e6f6e617574682e44414f60881b604082015260600190565b81810381811115610b7357610b7361368056fea2646970667358221220b01de52aa2f56ec737cabc353a49ebfdf0c1b1661b4ba942fd547de0707fa34964736f6c63430008140033","linkReferences":{}},"methodIdentifiers":{"Burn(uint256)":"b90306ad","InstToId(address)":"e89a1160","UserToInst(address)":"45145fd7","_addBusiness(uint256)":"98c6b9e1","_addBusinessPrime(uint256)":"986b7295","_nested(address,address,uint256)":"e4a312d1","_nestedRoot(address,uint256)":"54279233","_resetuser(address,address)":"1ea3c8b4","_setOwner(address,bool)":"abb8c965","_setReq(address)":"41ffe7c4","_setrankCount(uint256,uint256)":"b8056579","activePrime()":"c6bf7da2","getBalance()":"12065fe0","getNode(uint256)":"4f0f4aa9","getNodeActiveDirectsCount(uint256)":"aba8a31d","getNodeById(uint256)":"0e6a8496","getNodeByIndex(uint256)":"965c90e3","getNodeChild(uint256,uint256)":"896c354a","getNodeDirectsCount(uint256)":"42cc9d57","getNodeId(address)":"b56e4129","getNodeParent(uint256)":"175724f6","getNodesCount()":"61ea7208","getUserById(uint256)":"6ed6da9e","getUserId(address)":"2b956ff7","getbusiness(uint256)":"eb95c662","getrankCount(uint256,uint256)":"80f85e33","isInstance(address)":"6b44e6be","isNode(uint256)":"419cb27b","isNodeByInst(address)":"3e763489","isOwnerOrSafeOwner(address)":"379a423c","isStop(uint256)":"3a109e92","isUser(address)":"4209fff1","isUserInst(address,address)":"5d423396","kill(address)":"cbf0b0c0","own_reinit(address)":"60af454d","owner()":"8da5cb5b","req()":"0d43aaf2","setDefaultRankCount()":"9380fd5f","setImported(bool)":"8033eded","setStop(bool)":"641657cb","withdraw(address,uint256)":"f3fef3a3"},"id":0}