{"abi":[{"type":"fallback","stateMutability":"payable"},{"type":"receive","stateMutability":"payable"},{"type":"function","name":"Burn","inputs":[{"name":"amount","type":"uint256","internalType":"uint256"}],"outputs":[],"stateMutability":"payable"},{"type":"function","name":"Txn","inputs":[{"name":"orc1155_refe","type":"address","internalType":"address"},{"name":"_id","type":"uint256","internalType":"uint256"},{"name":"_qty","type":"uint256","internalType":"uint256"},{"name":"_type","type":"uint256","internalType":"uint256"}],"outputs":[{"name":"","type":"int8","internalType":"int8"}],"stateMutability":"payable"},{"type":"function","name":"_computeRoyality","inputs":[],"outputs":[{"name":"param2","type":"uint256","internalType":"uint256"}],"stateMutability":"view"},{"type":"function","name":"_computeRwrdYei","inputs":[],"outputs":[{"name":"p1","type":"uint256","internalType":"uint256"},{"name":"p4","type":"uint256","internalType":"uint256"}],"stateMutability":"view"},{"type":"function","name":"_computeself","inputs":[],"outputs":[{"name":"p3","type":"uint256","internalType":"uint256"},{"name":"calLBS","type":"int256","internalType":"int256"}],"stateMutability":"view"},{"type":"function","name":"_computeselfOld","inputs":[],"outputs":[{"name":"p3","type":"uint256","internalType":"uint256"},{"name":"calLBS","type":"int256","internalType":"int256"}],"stateMutability":"view"},{"type":"function","name":"_setOwner","inputs":[{"name":"user","type":"address","internalType":"address"}],"outputs":[],"stateMutability":"nonpayable"},{"type":"function","name":"age","inputs":[],"outputs":[{"name":"","type":"uint256","internalType":"uint256"}],"stateMutability":"view"},{"type":"function","name":"at","inputs":[{"name":"_addr","type":"address","internalType":"address"}],"outputs":[{"name":"o_code","type":"bytes","internalType":"bytes"}],"stateMutability":"view"},{"type":"function","name":"bonus","inputs":[],"outputs":[{"name":"","type":"uint256","internalType":"uint256"}],"stateMutability":"view"},{"type":"function","name":"compute","inputs":[],"outputs":[{"name":"p1","type":"uint256","internalType":"uint256"},{"name":"p2","type":"uint256","internalType":"uint256"},{"name":"p3","type":"uint256","internalType":"uint256"},{"name":"p4","type":"uint256","internalType":"uint256"},{"name":"cap","type":"bool","internalType":"bool"},{"name":"calLBS","type":"int256","internalType":"int256"}],"stateMutability":"view"},{"type":"function","name":"computeOld","inputs":[],"outputs":[{"name":"p3","type":"uint256","internalType":"uint256"},{"name":"calLBS","type":"int256","internalType":"int256"}],"stateMutability":"view"},{"type":"function","name":"drawn","inputs":[],"outputs":[{"name":"p1","type":"uint256","internalType":"uint256"},{"name":"p2","type":"uint256","internalType":"uint256"},{"name":"p3","type":"uint256","internalType":"uint256"},{"name":"p4","type":"uint256","internalType":"uint256"}],"stateMutability":"view"},{"type":"function","name":"getAdd","inputs":[],"outputs":[{"name":"","type":"address","internalType":"address"}],"stateMutability":"view"},{"type":"function","name":"getBalance","inputs":[],"outputs":[{"name":"","type":"uint256","internalType":"uint256"}],"stateMutability":"view"},{"type":"function","name":"getmints","inputs":[{"name":"i","type":"uint256","internalType":"uint256"}],"outputs":[{"name":"","type":"address","internalType":"address"}],"stateMutability":"view"},{"type":"function","name":"id","inputs":[],"outputs":[{"name":"","type":"uint256","internalType":"uint256"}],"stateMutability":"view"},{"type":"function","name":"idOld","inputs":[],"outputs":[{"name":"","type":"uint256","internalType":"uint256"}],"stateMutability":"view"},{"type":"function","name":"init","inputs":[{"name":"_s","type":"address","internalType":"address"},{"name":"_r","type":"address","internalType":"address"},{"name":"_n","type":"address","internalType":"address"},{"name":"_n2","type":"address","internalType":"address"},{"name":"_u","type":"address","internalType":"address"},{"name":"_o","type":"address","internalType":"address"},{"name":"_type","type":"uint256","internalType":"uint256"}],"outputs":[],"stateMutability":"nonpayable"},{"type":"function","name":"mintCount","inputs":[],"outputs":[{"name":"","type":"uint256","internalType":"uint256"}],"stateMutability":"view"},{"type":"function","name":"owner","inputs":[],"outputs":[{"name":"","type":"address","internalType":"address"}],"stateMutability":"view"},{"type":"function","name":"setBonus","inputs":[{"name":"b","type":"uint256","internalType":"uint256"}],"outputs":[],"stateMutability":"payable"},{"type":"function","name":"setParam","inputs":[{"name":"s","type":"address","internalType":"address"},{"name":"r","type":"address","internalType":"address"},{"name":"m","type":"address","internalType":"address"},{"name":"f","type":"address","internalType":"address"},{"name":"cl","type":"address","internalType":"address"}],"outputs":[],"stateMutability":"nonpayable"},{"type":"function","name":"withdraw","inputs":[{"name":"amount","type":"uint256","internalType":"uint256"}],"outputs":[],"stateMutability":"payable"},{"type":"event","name":"LogTxns","inputs":[{"name":"from","type":"address","indexed":false,"internalType":"address"},{"name":"orc1155_refe","type":"address","indexed":false,"internalType":"address"},{"name":"_amt","type":"uint256","indexed":false,"internalType":"uint256"},{"name":"_time","type":"uint256","indexed":false,"internalType":"uint256"},{"name":"_type","type":"uint256","indexed":false,"internalType":"uint256"}],"anonymous":false}],"bytecode":{"object":"0x60806040525f80546001600160a01b0319908116734ba1c6ce515736036d50303827b36c5266241ca317825560018054821673902e066c1a020558509bbc139a943ac3290a39c517905560028054821673845d9685b4b17e261d7bd9395ab0fc50a1833d0b17905560038054821673a2c6cc8e283b6572fb210ae94afb762f5d28f45c179055600480548216735699480bb32eee487682be37bd0aa7fbbd76fd73179055600580548216733c3f4530595d75d194c9b071e307c404297aae7d17905560068054821673225f8b54006e04239d3ba378a132393109f4fac31790556007805490911673f73b2a6f34bad8fd50d57feebdc4d44ad64b18201790556009805460ff60a01b19169055600a55348015610119575f80fd5b50600880546001600160a01b03191632179055612883806101395f395ff3fe608060405260043610610142575f3560e01c80638f1e73f8116100af578063b90306ad1161006b578063b90306ad1461036e578063d14d42ba14610381578063dce4a4471461039d578063eba4e532146103c9578063fc201122146103dd578063fd915ef2146103fc57005b80638f1e73f8146102d75780639659867e146102ec578063a3e884b014610301578063adce2a5514610326578063af640d0f1461033a578063b07518231461034f57005b806342bdef75116100fe57806342bdef7514610212578063681cee651461022657806375b4d78c1461023a578063776868591461024f5780638769ba0b1461029b5780638da5cb5b146102ba57005b80630b98f9751461014b5780630df7f6cb1461015e57806312065fe01461018c5780631a43c338146101a8578063262a9dff146101eb5780632e1a7d4d146101ff57005b3661014957005b005b6101496101593660046122ba565b610434565b348015610169575f80fd5b50610172610511565b604080519283526020830191909152015b60405180910390f35b348015610197575f80fd5b50475b604051908152602001610183565b3480156101b3575f80fd5b506101bc610587565b6040805196875260208701959095529385019290925260608401521515608083015260a082015260c001610183565b3480156101f6575f80fd5b5061019a6105a8565b61014961020d3660046122ba565b6105b6565b34801561021d575f80fd5b5061019a610611565b348015610231575f80fd5b50610172610c2f565b348015610245575f80fd5b5061019a60185481565b34801561025a575f80fd5b506102836102693660046122ba565b5f908152600b60205260409020546001600160a01b031690565b6040516001600160a01b039091168152602001610183565b3480156102a6575f80fd5b506101496102b53660046122e8565b610d90565b3480156102c5575f80fd5b506008546001600160a01b0316610283565b3480156102e2575f80fd5b5061019a60175481565b3480156102f7575f80fd5b5061019a600a5481565b61031461030f366004612370565b610f12565b6040515f9190910b8152602001610183565b348015610331575f80fd5b5061017261172d565b348015610345575f80fd5b5061019a60165481565b34801561035a575f80fd5b506101496103693660046123a8565b61173f565b61014961037c3660046122ba565b6118b2565b34801561038c575f80fd5b505f546001600160a01b0316610283565b3480156103a8575f80fd5b506103bc6103b7366004612415565b6118e0565b6040516101839190612459565b3480156103d4575f80fd5b50610172611911565b3480156103e8575f80fd5b506101496103f7366004612415565b611a26565b348015610407575f80fd5b50600d54600e54601254601154604080519485526020850193909352918301526060820152608001610183565b5f546040516319c0642960e01b81523360048201819052916001600160a01b0316906319c0642990602401602060405180830381865afa15801561047a573d5f803e3d5ffd5b505050506040513d601f19601f8201168201806040525081019061049e919061249f565b6104c35760405162461bcd60e51b81526004016104ba906124b8565b60405180910390fd5b600954600160a01b900460ff1661050b5760405162461bcd60e51b815260206004820152600c60248201526b1d5b985d5d1a1bdc9a5e995960a21b60448201526064016104ba565b50601855565b6002546040516379ee54f760e01b81523060048201525f9182916001600160a01b03909116906379ee54f7906024016040805180830381865afa15801561055a573d5f803e3d5ffd5b505050506040513d601f19601f8201168201806040525081019061057e91906124e0565b90939092509050565b5f805f805f80610595611acf565b949b939a50919850965094509092509050565b5f6105b1611bea565b905090565b60085432906001600160a01b031681146105e25760405162461bcd60e51b81526004016104ba906124b8565b604051329083156108fc029084905f818181858888f1935050505015801561060c573d5f803e3d5ffd5b505050565b5f8061061b611bea565b6002546040516301c4fd6360e51b81523060048201529192505f916001600160a01b039091169063389fac6090602401602060405180830381865afa158015610666573d5f803e3d5ffd5b505050506040513d601f19601f8201168201806040525081019061068a9190612502565b905060028110610c2a5760028054604051633ddce00b60e01b815230600482015260248101929092525f916001600160a01b0390911690633ddce00b90604401602060405180830381865afa1580156106e5573d5f803e3d5ffd5b505050506040513d601f19601f820116820180604052508101906107099190612502565b600254604051633ddce00b60e01b81523060048083019190915260248201529192505f916001600160a01b0390911690633ddce00b90604401602060405180830381865afa15801561075d573d5f803e3d5ffd5b505050506040513d601f19601f820116820180604052508101906107819190612502565b600254604051633ddce00b60e01b8152306004820152600760248201529192505f916001600160a01b0390911690633ddce00b90604401602060405180830381865afa1580156107d3573d5f803e3d5ffd5b505050506040513d601f19601f820116820180604052508101906107f79190612502565b90505f60015f9054906101000a90046001600160a01b03166001600160a01b031663ca57e6bf6040518163ffffffff1660e01b8152600401602060405180830381865afa15801561084a573d5f803e3d5ffd5b505050506040513d601f19601f8201168201806040525081019061086e9190612502565b600154604051634151331d60e01b8152600260048201529192505f916001600160a01b0390911690634151331d90602401606060405180830381865afa1580156108ba573d5f803e3d5ffd5b505050506040513d601f19601f820116820180604052508101906108de9190612519565b600154604051634151331d60e01b81526004808201529194505f93506001600160a01b03169150634151331d90602401606060405180830381865afa158015610929573d5f803e3d5ffd5b505050506040513d601f19601f8201168201806040525081019061094d9190612519565b600154604051634151331d60e01b8152600760048201529194505f93506001600160a01b03169150634151331d90602401606060405180830381865afa158015610999573d5f803e3d5ffd5b505050506040513d601f19601f820116820180604052508101906109bd9190612519565b925050505f600f5488116109de57600f546109d9906001612558565b6109e0565b875b90505b898111610c21578781101580156109f957505f88115b8015610a0e5750610a0a8489612558565b8111155b15610aa257600280546001600160a01b0316906320808d4890610a3260018561256b565b6040516001600160e01b031960e085901b16815260048101929092526024820152604401602060405180830381865afa158015610a71573d5f803e3d5ffd5b505050506040513d601f19601f82011682018060405250810190610a959190612502565b610a9f908c612558565b9a505b868110158015610ab157505f87115b8015610ac65750610ac28388612558565b8111155b15610b59576002546001600160a01b03166320808d486004610ae960018561256b565b6040516001600160e01b031960e085901b16815260048101929092526024820152604401602060405180830381865afa158015610b28573d5f803e3d5ffd5b505050506040513d601f19601f82011682018060405250810190610b4c9190612502565b610b56908c612558565b9a505b858110158015610b6857505f86115b8015610b7d5750610b798287612558565b8111155b15610c10576002546001600160a01b03166320808d486007610ba060018561256b565b6040516001600160e01b031960e085901b16815260048101929092526024820152604401602060405180830381865afa158015610bdf573d5f803e3d5ffd5b505050506040513d601f19601f82011682018060405250810190610c039190612502565b610c0d908c612558565b9a505b610c1a8582612558565b90506109e3565b50505050505050505b505090565b5f805f610c3a611bea565b90505f805f8060015f9054906101000a90046001600160a01b03166001600160a01b031663d4a2aa336040518163ffffffff1660e01b815260040160e060405180830381865afa158015610c90573d5f803e3d5ffd5b505050506040513d601f19601f82011682018060405250810190610cb4919061257e565b505094509450945094505060105485610ccd91906125cd565b6010545f90815260156020526040902054610ce891906125f3565b95505f6010546001610cfa9190612558565b90505b858111610d4457610d0e81876125cd565b5f82815260156020526040902054610d2691906125f3565b610d309088612622565b965080610d3c81612649565b915050610cfd565b50610d508360646125f3565b610d5a85886125f3565b610d649190612675565b9650610d718160646126a1565b610d7b83896126a1565b610d8591906126b8565b965050505050509091565b600954600160a01b900460ff1615610de05760405162461bcd60e51b8152602060048201526013602482015272185b1c9958591e481a5b9a5d1a585b1a5e9959606a1b60448201526064016104ba565b5f80546001600160a01b03808a166001600160a01b031992831617909255600180548984169083161790556002805488841690831617905560038054878416908316179055600780548216331790556004805492851692909116919091179055610e4983611a26565b42600c556009805460ff60a01b1916600160a01b1790555f819003610e8957610e755f805f6005610f12565b50610e835f805f6006610f12565b50610f09565b80600603610f095760075460408051638da5cb5b60e01b81529051610f07926001600160a01b031691638da5cb5b9160048083019260209291908290030181865afa158015610eda573d5f803e3d5ffd5b505050506040513d601f19601f82011682018060405250810190610efe91906126cb565b5f806006610f12565b505b50505050505050565b5f80546040516319c0642960e01b81523360048201819052916001600160a01b0316906319c0642990602401602060405180830381865afa158015610f59573d5f803e3d5ffd5b505050506040513d601f19601f82011682018060405250810190610f7d919061249f565b80610f9557506008546001600160a01b038281169116145b610fb15760405162461bcd60e51b81526004016104ba906124b8565b600954600160a01b900460ff16610ff95760405162461bcd60e51b815260206004820152600c60248201526b1d5b985d5d1a1bdc9a5e995960a21b60448201526064016104ba565b8260010361121e575f841161103e5760405162461bcd60e51b815260206004820152600b60248201526a696e76616c69642071747960a81b60448201526064016104ba565b600a5461104c906001612558565b600a8190555f908152600b6020526040812080546001600160a01b0389166001600160a01b0319909116811790915563f92883a26110926008546001600160a01b031690565b8888600a54896040518663ffffffff1660e01b81526004016110b89594939291906126e6565b6020604051808303815f875af11580156110d4573d5f803e3d5ffd5b505050506040513d601f19601f820116820180604052508101906110f89190612502565b90505f601854473461110a9190612558565b6111149190612558565b90508181101561115c5760405162461bcd60e51b8152602060048201526013602482015272696e737566666963656e742062616c616e636560681b60448201526064016104ba565b6005546018546001600160a01b03909116906108fc90841061118a57601854611185908561256b565b611198565b83601854611198919061256b565b6040518115909202915f818181858888f193505050501580156111bd573d5f803e3d5ffd5b5081601854116111cd575f6111db565b816018546111db919061256b565b6018556111e782611c1a565b5f8051602061282e833981519152338988428960405161120b959493929190612714565b60405180910390a1600193505050611724565b8260020361140c575f84116112635760405162461bcd60e51b815260206004820152600b60248201526a696e76616c69642071747960a81b60448201526064016104ba565b600a54611271906001612558565b600a8190555f908152600b6020526040812080546001600160a01b0389166001600160a01b0319909116811790915563f92883a26112b76008546001600160a01b031690565b8888600a54896040518663ffffffff1660e01b81526004016112dd9594939291906126e6565b6020604051808303815f875af11580156112f9573d5f803e3d5ffd5b505050506040513d601f19601f8201168201806040525081019061131d9190612502565b90505f601854473461132f9190612558565b6113399190612558565b9050818110156113815760405162461bcd60e51b8152602060048201526013602482015272696e737566666963656e742062616c616e636560681b60448201526064016104ba565b6005546018546001600160a01b03909116906108fc9084106113af576018546113aa908561256b565b6113bd565b836018546113bd919061256b565b6040518115909202915f818181858888f193505050501580156113e2573d5f803e3d5ffd5b5081601854116113f2575f611400565b81601854611400919061256b565b6018556111e782611d2d565b8260050361157557601654156114555760405162461bcd60e51b815260206004820152600e60248201526d185b1c9958591e481a9bda5b995960921b60448201526064016104ba565b6002546040516345145fd760e01b81526001600160a01b0388811660048301529091169063e4a312d19082906345145fd790602401602060405180830381865afa1580156114a5573d5f803e3d5ffd5b505050506040513d601f19601f820116820180604052508101906114c991906126cb565b6040516001600160e01b031960e084901b1681526001600160a01b0390911660048201523060248201525f60448201526064016020604051808303815f875af1158015611518573d5f803e3d5ffd5b505050506040513d601f19601f8201168201806040525081019061153c9190612502565b6016556040515f8051602061282e833981519152906115649033908990889042908990612714565b60405180910390a160019150611724565b826006036116cd57601754156115be5760405162461bcd60e51b815260206004820152600e60248201526d185b1c9958591e481a9bda5b995960921b60448201526064016104ba565b6003546040516345145fd760e01b81526001600160a01b0388811660048301529091169063e4a312d19082906345145fd790602401602060405180830381865afa15801561160e573d5f803e3d5ffd5b505050506040513d601f19601f8201168201806040525081019061163291906126cb565b6040516001600160e01b031960e084901b1681526001600160a01b0390911660048201523060248201525f60448201526064016020604051808303815f875af1158015611681573d5f803e3d5ffd5b505050506040513d601f19601f820116820180604052508101906116a59190612502565b6017556040515f8051602061282e833981519152906115649033908990889042908990612714565b82600a03611700575f8051602061282e83398151915233876116ed611dfc565b4287604051611564959493929190612714565b82600b03611720575f8051602061282e83398151915233876116ed6120bc565b5f91505b50949350505050565b5f8061173761226f565b915091509091565b5f8054906101000a90046001600160a01b03166001600160a01b0316636a276f9d6040518163ffffffff1660e01b8152600401602060405180830381865afa15801561178d573d5f803e3d5ffd5b505050506040513d601f19601f820116820180604052508101906117b1919061249f565b6117cd5760405162461bcd60e51b81526004016104ba906124b8565b5f546040516319c0642960e01b81523360048201819052916001600160a01b0316906319c0642990602401602060405180830381865afa158015611813573d5f803e3d5ffd5b505050506040513d601f19601f82011682018060405250810190611837919061249f565b6118535760405162461bcd60e51b81526004016104ba906124b8565b505f80546001600160a01b03199081166001600160a01b03978816179091556001805482169587169590951790945560028054851693861693909317909255600780548416918516919091179055600680549092169216919091179055565b6040515f9082156108fc0290839083818181858288f193505050501580156118dc573d5f803e3d5ffd5b5050565b60606118eb82612279565b6040516020016118fb9190612745565b6040516020818303038152906040529050919050565b5f805f61191c611bea565b90505f805f8060015f9054906101000a90046001600160a01b03166001600160a01b031663cbbf425f6040518163ffffffff1660e01b815260040160e060405180830381865afa158015611972573d5f803e3d5ffd5b505050506040513d601f19601f82011682018060405250810190611996919061257e565b5050945094509450945050600f54856119af91906125cd565b600f545f908152601460205260409020546119ca91906125f3565b95505f600f5460016119dc9190612558565b90505b858111610d44576119f081876125cd565b5f82815260146020526040902054611a0891906125f3565b611a129088612622565b965080611a1e81612649565b9150506119df565b5f546040516319c0642960e01b81523360048201819052916001600160a01b0316906319c0642990602401602060405180830381865afa158015611a6c573d5f803e3d5ffd5b505050506040513d601f19601f82011682018060405250810190611a90919061249f565b611aac5760405162461bcd60e51b81526004016104ba906124b8565b50600880546001600160a01b0319166001600160a01b0392909216919091179055565b5f805f805f805f60015f9054906101000a90046001600160a01b03166001600160a01b0316635640dbfc6040518163ffffffff1660e01b815260040160a060405180830381865afa158015611b26573d5f803e3d5ffd5b505050506040513d601f19601f82011682018060405250810190611b4a91906127d3565b505050509050611b58610511565b9097509350611b65611911565b9095509150611b72610611565b9550611b7e82826126a1565b8460125487611b8d9190612558565b600e54611b9a908a612558565b611ba4908b612558565b611bae9190612558565b611bb89190612558565b119250600d5487611bc9919061256b565b868660115487611bd9919061256b565b965096509650965050909192939495565b5f62015180611c05600c5442611c00919061256b565b6122a6565b611c0f91906126b8565b6105b1906001612558565b5f8060015f9054906101000a90046001600160a01b03166001600160a01b031663cbbf425f6040518163ffffffff1660e01b815260040160e060405180830381865afa158015611c6c573d5f803e3d5ffd5b505050506040513d601f19601f82011682018060405250810190611c90919061257e565b9650505050505091508260145f84611ca6611bea565b611cb09190612558565b81526020019081526020015f205f828254611ccb9190612622565b90915550611cdc9050835f196125f3565b60145f8484611ce9611bea565b611cf39190612558565b611cfd9190612558565b611d08906001612558565b81526020019081526020015f205f828254611d239190612622565b9091555050505050565b5f8060015f9054906101000a90046001600160a01b03166001600160a01b031663d4a2aa336040518163ffffffff1660e01b815260040160e060405180830381865afa158015611d7f573d5f803e3d5ffd5b505050506040513d601f19601f82011682018060405250810190611da3919061257e565b9650505050505091508260155f84611db9611bea565b611dc39190612558565b81526020019081526020015f205f828254611dde9190612622565b90915550611def9050835f196125f3565b60155f8484611ce9611bea565b60025460405162ba80a960e11b81523060048201525f916001600160a01b031690630175015290602401602060405180830381865afa158015611e41573d5f803e3d5ffd5b505050506040513d601f19601f82011682018060405250810190611e65919061249f565b611e9c5760405162461bcd60e51b8152602060048201526008602482015267696e61637469766560c01b60448201526064016104ba565b5f805f805f80611eaa611acf565b9550955095509550955095508115611ec8575f965050505050505090565b85600d5f828254611ed99190612558565b9250508190555084600e5f828254611ef19190612558565b925050819055508360125f828254611f099190612558565b925050819055508260115f828254611f219190612558565b909155505f90508385611f34888a612558565b611f3e9190612558565b611f489190612558565b1115611fc3576007546001600160a01b031663a5468e0b611f716008546001600160a01b031690565b888888886040518663ffffffff1660e01b8152600401611f959594939291906126e6565b5f604051808303815f87803b158015611fac575f80fd5b505af1158015611fbe573d5f803e3d5ffd5b505050505b831561202357600254604051633746e62b60e21b8152600481018690526001600160a01b039091169063dd1b98ac906024015f604051808303815f87803b15801561200c575f80fd5b505af115801561201e573d5f803e3d5ffd5b505050505b5f61202c611bea565b90505f600f54600161203e9190612558565b90505b8181101561207a5760145f61205760018461256b565b81526020019081526020015f205f9055808061207290612649565b915050612041565b50600f8190555f818152601460205260409020829055838561209c888a612558565b6120a69190612558565b6120b09190612558565b97505050505050505090565b60035460405162ba80a960e11b81523060048201525f916001600160a01b031690630175015290602401602060405180830381865afa158015612101573d5f803e3d5ffd5b505050506040513d601f19601f82011682018060405250810190612125919061249f565b61215c5760405162461bcd60e51b8152602060048201526008602482015267696e61637469766560c01b60448201526064016104ba565b5f612165611bea565b90505f80612171610c2f565b915091508160125f8282546121869190612558565b90915550508115612206576007546001600160a01b031663a5468e0b6121b46008546001600160a01b031690565b845f805f6040518663ffffffff1660e01b81526004016121d89594939291906126e6565b5f604051808303815f87803b1580156121ef575f80fd5b505af1158015612201573d5f803e3d5ffd5b505050505b5f60105460016122169190612558565b90505b838110156122525760155f61222f60018461256b565b81526020019081526020015f205f9055808061224a90612649565b915050612219565b5060108390555f9283526015602052604090922091909155919050565b5f80611737610c2f565b6060816001600160a01b0316803b806020016040519081016040528181525f908060200190933c92915050565b5f6122b462015180836126b8565b92915050565b5f602082840312156122ca575f80fd5b5035919050565b6001600160a01b03811681146122e5575f80fd5b50565b5f805f805f805f60e0888a0312156122fe575f80fd5b8735612309816122d1565b96506020880135612319816122d1565b95506040880135612329816122d1565b94506060880135612339816122d1565b93506080880135612349816122d1565b925060a0880135612359816122d1565b8092505060c0880135905092959891949750929550565b5f805f8060808587031215612383575f80fd5b843561238e816122d1565b966020860135965060408601359560600135945092505050565b5f805f805f60a086880312156123bc575f80fd5b85356123c7816122d1565b945060208601356123d7816122d1565b935060408601356123e7816122d1565b925060608601356123f7816122d1565b91506080860135612407816122d1565b809150509295509295909350565b5f60208284031215612425575f80fd5b8135612430816122d1565b9392505050565b5f5b83811015612451578181015183820152602001612439565b50505f910152565b602081525f8251806020840152612477816040850160208701612437565b601f01601f19169190910160400192915050565b8051801515811461249a575f80fd5b919050565b5f602082840312156124af575f80fd5b6124308261248b565b6020808252600e908201526d24b73b30b634b21039b2b73232b960911b604082015260600190565b5f80604083850312156124f1575f80fd5b505080516020909101519092909150565b5f60208284031215612512575f80fd5b5051919050565b5f805f6060848603121561252b575f80fd5b8351925060208401519150604084015190509250925092565b634e487b7160e01b5f52601160045260245ffd5b808201808211156122b4576122b4612544565b818103818111156122b4576122b4612544565b5f805f805f805f60e0888a031215612594575f80fd5b5050855160208701516040880151606089015160808a015160a08b015160c0909b0151949c939b50919990985090965094509092509050565b8181035f8312801583831316838312821617156125ec576125ec612544565b5092915050565b8082025f8212600160ff1b8414161561260e5761260e612544565b81810583148215176122b4576122b4612544565b8082018281125f83128015821682158216171561264157612641612544565b505092915050565b5f6001820161265a5761265a612544565b5060010190565b634e487b7160e01b5f52601260045260245ffd5b5f8261268357612683612661565b600160ff1b82145f198414161561269c5761269c612544565b500590565b80820281158282048414176122b4576122b4612544565b5f826126c6576126c6612661565b500490565b5f602082840312156126db575f80fd5b8151612430816122d1565b6001600160a01b03959095168552602085019390935260408401919091526060830152608082015260a00190565b6001600160a01b03958616815293909416602084015260408301919091526060820152608081019190915260a00190565b5f8251612756818460208701612437565b730468e8dc225c4746454419c9dcccb59a581434b160631b92019182525073d416952dc46fce2775e90571d46a79565d04cb2560601b602082015273094c37fb9b5b2065409a5c7cb9bff71c4d49bf4160601b604082015273fe69687ce9c746c10e1c2af1e3f5d1475df4300f60601b6060820152607401919050565b5f805f805f60a086880312156127e7575f80fd5b855194506127f76020870161248b565b93506128056040870161248b565b92506128136060870161248b565b91506128216080870161248b565b9050929550929590935056fe48e7eb294d1541f4d087ba9167692860290193b467fc1eeb94b4c8e7f8833711a26469706673582212207e541a7dd16c1ad55a12f67999a6cf8565b8c4e01aebda39574763e21d5052ae64736f6c63430008140033","linkReferences":{}},"methodIdentifiers":{"Burn(uint256)":"b90306ad","Txn(address,uint256,uint256,uint256)":"a3e884b0","_computeRoyality()":"42bdef75","_computeRwrdYei()":"0df7f6cb","_computeself()":"eba4e532","_computeselfOld()":"681cee65","_setOwner(address)":"fc201122","age()":"262a9dff","at(address)":"dce4a447","bonus()":"75b4d78c","compute()":"1a43c338","computeOld()":"adce2a55","drawn()":"fd915ef2","getAdd()":"d14d42ba","getBalance()":"12065fe0","getmints(uint256)":"77686859","id()":"af640d0f","idOld()":"8f1e73f8","init(address,address,address,address,address,address,uint256)":"8769ba0b","mintCount()":"9659867e","owner()":"8da5cb5b","setBonus(uint256)":"0b98f975","setParam(address,address,address,address,address)":"b0751823","withdraw(uint256)":"2e1a7d4d"},"id":1}