{"abi":[{"type":"constructor","inputs":[{"name":"_hex","type":"address","internalType":"address"},{"name":"_price","type":"address","internalType":"address"},{"name":"_old741","type":"address","internalType":"address"}],"stateMutability":"nonpayable"},{"type":"function","name":"dAOAssembly","inputs":[],"outputs":[{"name":"","type":"address","internalType":"address"}],"stateMutability":"view"},{"type":"function","name":"daocore","inputs":[],"outputs":[{"name":"","type":"address","internalType":"address"}],"stateMutability":"view"},{"type":"function","name":"nested741","inputs":[],"outputs":[{"name":"","type":"address","internalType":"address"}],"stateMutability":"view"},{"type":"function","name":"old741","inputs":[],"outputs":[{"name":"","type":"address","internalType":"address"}],"stateMutability":"view"},{"type":"function","name":"price","inputs":[],"outputs":[{"name":"","type":"address","internalType":"address"}],"stateMutability":"view"}],"bytecode":{"object":"0x6080346101b757601f61883638819003918201601f19168301926001600160401b03929091838511838610176101a15781606092849260409788528339810103126101b75761004d816101bc565b6100648461005d602085016101bc565b93016101bc565b9160018060a01b03199273c0cee8b561cc4f60869776ca5b0b7a295e04f5af84600154161760015585516114319586820196828810828911176101a15761032c83396001600160a01b039485168088526000979092908190036020019088f080156101835785168660035416176003558751614850808201908282108483111761018d576020918391613fe6833985815203019088f08015610183578516866002541617600255875191612889808401928484109084111761016f5791839160209361175d8439815203019086f080156101655790838092168560045416176004551683600154161760015516908254161790555161015b90816101d18239f35b86513d87823e3d90fd5b634e487b7160e01b89526041600452602489fd5b88513d89823e3d90fd5b634e487b7160e01b8a52604160045260248afd5b634e487b7160e01b600052604160045260246000fd5b600080fd5b51906001600160a01b03821682036101b75756fe608080604052600436101561001357600080fd5b600090813560e01c90816314837455146100fc5750806314d8d024146100d357806345cff900146100aa5780635540c5ac146100815763a035b1fe1461005857600080fd5b3461007e578060031936011261007e57546040516001600160a01b039091168152602090f35b80fd5b503461007e578060031936011261007e576001546040516001600160a01b039091168152602090f35b503461007e578060031936011261007e576002546040516001600160a01b039091168152602090f35b503461007e578060031936011261007e576004546040516001600160a01b039091168152602090f35b9050346101215781600319360112610121576003546001600160a01b03168152602090f35b5080fdfea26469706673582212200b7ddf94353f1525575b81aaae5e2af2e510f8531be6b569b4894b99a874e30364736f6c6343000814003360803461009757601f61143138819003918201601f19168301916001600160401b0383118484101761009c5780849260209460405283398101031261009757516001600160a01b038116908190036100975780156100855760018060a01b03193381600154161760015560005416176000556000600e5560405161137e90816100b38239f35b60405163e6c4247b60e01b8152600490fd5b600080fd5b634e487b7160e01b600052604160045260246000fdfe60806040526004361015610018575b361561001657005b005b60003560e01c806312065fe0146101285780631f185d161461012357806325924f341461011e578063339459a6146101195780633b9b79551461011457806361b7fbd91461010f5780638da5cb5b1461010a578063a1f7f53914610105578063af48452614610100578063b90306ad146100fb578063be17fe62146100f6578063c54e44b0146100f1578063c89b84fd146100ec578063dbac26e9146100e7578063e01ad5fd146100e2578063e0a9bc2b146100dd5763fdc10bc90361000e57610bfe565b610be3565b610b1c565b610ada565b6109ce565b610972565b6108bf565b6107d7565b6107b0565b610746565b61071d565b61065e565b61062b565b61025e565b61022d565b610166565b3461014457600036600319011261014457602047604051908152f35b600080fd5b6001600160a01b031690565b6001600160a01b0381160361014457565b3461014457602080600319360112610144576101d960043561018781610155565b6002546040516001600160a01b039283168582015284815291166101aa82610c2f565b604051906101b782610c2f565b601182527069735369676e657228616464726573732960781b85830152611275565b919080610223575b156102115781816101fb9261020d94518301019101610cc0565b60405190151581529081906020820190565b0390f35b60405163baf3f0f760e01b8152600490fd5b50808251146101e1565b3461014457602036600319011261014457602061025460043561024f81610155565b610cd5565b6040519015158152f35b34610144576000806003193601126106285761028261027d8254610149565b610149565b60408051634bf9c0ad60e11b81529160049190602080858581855afa9485156104ef578695610609575b50825163cfbffe5360e01b81529281848681865afa9384156104ef5787946105ea575b50805163ab6e844f60e01b815282818781875afa9081156104ef5788916105cd575b508151630536340960e21b815283818881885afa9081156104ef5789916105b0575b50825163d1f956b160e01b81529084828981895afa9182156104ef578a92610591575b508351631cc3bfab60e31b81529285848a818a5afa9384156104ef578b94610572575b50845163e09d394d60e01b81529486868b818b5afa9586156104ef578c96610553575b5080516314ac1b5960e21b815298878a8c818c5afa9788156104ef576103c39a8e99610534575b50808c8451809d819263013cf08b60e01b83528201906000602083019252565b03818d5afa998a156104ef578c9b8f9b610515575b50818451809d635e09dbe760e01b825281845afa9b8c156104ef578f9c6104f4575b50819084519d8e8092635506ee0b60e11b82525afa9b8c156104ef578e9c6104c0575b50610426610ea3565b9c610431908e610ec3565b8c019061043d91610ec3565b8a019061044991610ec3565b6104569060608a01610ec3565b6104639060808901610ec3565b6104709060a08801610ec3565b61047d9060c08701610ec3565b61048a9060e08601610ec3565b610498906101008501610ec3565b6104a6906101208401610ec3565b6104b4906101408301610ec3565b6104bd90610ed2565b80f35b816104e1929d508d3d106104e8575b6104d98183610c6a565b810190610ca8565b9a3861041d565b503d6104cf565b610c9c565b82919c5061050e90823d84116104e8576104d98183610c6a565b9b906103fa565b61052d919b50823d84116104e8576104d98183610c6a565b99386103d8565b8161054c929a503d8b116104e8576104d98183610c6a565b97386103a3565b61056b919650873d89116104e8576104d98183610c6a565b943861037c565b61058a919450863d88116104e8576104d98183610c6a565b9238610359565b6105a9919250853d87116104e8576104d98183610c6a565b9038610336565b6105c79150843d86116104e8576104d98183610c6a565b38610313565b6105e49150833d85116104e8576104d98183610c6a565b386102f1565b610602919450823d84116104e8576104d98183610c6a565b92386102cf565b816106219296503d87116104e8576104d98183610c6a565b93386102ac565b80fd5b34610144576000366003190112610144576000546040516001600160a01b039091168152602090f35b8015150361014457565b346101445760403660031901126101445760043561067b81610155565b6024359061068882610654565b610690611115565b1561070b576005546001600160a01b039190821633036106f95716600052600d602052604060002060ff1981541660ff831515161790556000146106e757600e5460001981146106e257600101600e55005b610e8d565b600e5480156106e25760001901600e55005b60405163ea8e4eb560e01b8152600490fd5b604051634ee2123760e11b8152600490fd5b34610144576000366003190112610144576001546040516001600160a01b039091168152602090f35b346101445760003660031901126101445760206107a860018060a01b036006541660405161077381610c2f565b601381527267657464656c656761746f72436f756e74282960681b848201526040519161079f83610c4f565b6000835261130c565b604051908152f35b346101445760203660031901126101445760206102546004356107d281610155565b611187565b34610144576020366003190112610144576004356107f3611115565b1561070b576005546001600160a01b031633036106f9576000906004602061081e61027d8554610149565b6040516311be646b60e21b815292839182905afa80156104ef57838084819493829483916108a1575b505af1610852611245565b5015610211577fcdcc745fe377b103b45fa0cec23ae3ef93d6fc6a84a01f0d18c40b354dd1d5d861089b61088a61027d600b54610149565b604051938452929081906020820190565b0390a280f35b6108b9915060203d81116104e8576104d98183610c6a565b38610847565b34610144576020366003190112610144576004356108dc81610155565b6108e4611115565b1561070b576108f233611187565b801561095e575b156106f9576001600160a01b03908116801561094c57600080546001600160a01b03198116831782559092167fe939feee179e631422bcc8f6e6d7d908cb3f8af38f5372f17c77e15aea5c80ee8380a380f35b60405163e6c4247b60e01b8152600490fd5b506005546001600160a01b031633146108f9565b346101445760203660031901126101445760043561098f81610155565b803b600061099c826110fa565b926109aa6040519485610c6a565b82845260208401903c602d81511061021157602a602091015160601c604051908152f35b34610144576000366003190112610144576109f361027d61027d61027d600354610149565b60405180916305912f8d60e11b825281600460209485935afa9081156104ef57610a67918391600091610abd575b50610a3661027d61027d61027d600454610149565b610a3e611208565b6040518095819482936380f85e3360e01b84526004840160209093929193604081019481520152565b03915afa9081156104ef5761020d92600092610a90575b50506040519081529081906020820190565b610aaf9250803d10610ab6575b610aa78183610c6a565b810190610c8d565b3880610a7e565b503d610a9d565b610ad49150823d8411610ab657610aa78183610c6a565b38610a21565b3461014457602036600319011261014457600435610af781610155565b60018060a01b0316600052600d602052602060ff604060002054166040519015158152f35b34610144576020806003193601126101445761020d9060043590610b3f82610155565b6006546040516001600160a01b0393841683820152828152921691610b9f90610b6781610c2f565b604051610b7381610c2f565b6018815277697364656c656761746f724e6f646528616464726573732960401b84820152600094611275565b919080610bd9575b610bc0575b505060405190151581529081906020820190565b610bd292508082518301019101610cc0565b3880610bac565b5080825114610ba7565b34610144576000366003190112610144576020610254611115565b346101445760003660031901126101445760206107a8611208565b634e487b7160e01b600052604160045260246000fd5b604081019081106001600160401b03821117610c4a57604052565b610c19565b602081019081106001600160401b03821117610c4a57604052565b601f909101601f19168101906001600160401b03821190821017610c4a57604052565b90816020910312610144575190565b6040513d6000823e3d90fd5b908160209103126101445751610cbd81610155565b90565b908160209103126101445751610cbd81610654565b610ce961027d61027d61027d600354610149565b9060405180926305912f8d60e11b825281600460209586935afa9081156104ef57600091610e70575b50610d2761027d61027d61027d600454610149565b6040516376fe6c4560e01b81526001600160a01b0384166004820152908490829060249082905afa9081156104ef57600091610e53575b506001600160a01b03168015610e4a576040516349a104e760e11b81528481600481855afa9081156104ef578590600092610e2a575b506040516304ec6d1760e11b81529192829060049082905afa9485156104ef57600095610dfb575b505010159182610df2575b5081610dd1575090565b6001600160a01b03166000908152600d602052604090205460ff1615905090565b15915038610dc7565b610e1b929550803d10610e23575b610e138183610c6a565b810190610cc0565b923880610dbc565b503d610e09565b60049250610e4490823d8411610ab657610aa78183610c6a565b91610d94565b50505050600090565b610e6a9150843d86116104e8576104d98183610c6a565b38610d5e565b610e879150833d8511610ab657610aa78183610c6a565b38610d12565b634e487b7160e01b600052601160045260246000fd5b6040519061016082016001600160401b03811183821017610c4a57604052565b6001600160a01b039091169052565b6110d66101406110f892610f0b610ee98251610149565b600280546001600160a01b0319166001600160a01b0392909216919091179055565b610f3d610f1b6020830151610149565b600380546001600160a01b0319166001600160a01b0392909216919091179055565b610f6f610f4d6040830151610149565b600480546001600160a01b0319166001600160a01b0392909216919091179055565b610fa1610f7f6060830151610149565b600580546001600160a01b0319166001600160a01b0392909216919091179055565b610fd3610fb16080830151610149565b600680546001600160a01b0319166001600160a01b0392909216919091179055565b611005610fe360a0830151610149565b600780546001600160a01b0319166001600160a01b0392909216919091179055565b61103761101560c0830151610149565b600880546001600160a01b0319166001600160a01b0392909216919091179055565b61106961104760e0830151610149565b600980546001600160a01b0319166001600160a01b0392909216919091179055565b61109c61107a610100830151610149565b600a80546001600160a01b0319166001600160a01b0392909216919091179055565b6110cf6110ad610120830151610149565b600b80546001600160a01b0319166001600160a01b0392909216919091179055565b0151610149565b600c80546001600160a01b0319166001600160a01b0392909216919091179055565b565b6001600160401b038111610c4a57601f01601f191660200190565b60025460405161115d916001600160a01b03169061113281610c2f565b6008815267697353616665282960c01b60208201526040519161115483610c4f565b60008352611275565b908061117c575b156102115780602080610cbd93518301019101610cc0565b506020815114611164565b6111e160018060a01b0380600254166040519160209416848301528382526111ae82610c2f565b604051906111bb82610c2f565b601582527469735365637572654261736528616464726573732960581b85830152611275565b90806111fe575b156102115781610cbd9282518301019101610cc0565b50818151146111e8565b600354604051610cbd916001600160a01b03169061122581610c2f565b600681526569416765282960d01b60208201526040519161079f83610c4f565b3d15611270573d90611256826110fa565b916112646040519384610c6a565b82523d6000602084013e565b606090565b9190823b156112f3578051906020918263ffffffff60e01b92012016916040519180830193845281519160005b8381106112df5750505091816112cf60248260009795968897018783820152036004810184520182610c6a565b51915afa6112db611245565b9091565b8181018301518582016024015282016112a2565b50505060009060405161130581610c4f565b6000815290565b929161131a91600094611275565b908061133d575b6113285750565b610cbd91925060208082518301019101610c8d565b50602081511461132156fea26469706673582212207ea25d2d8d61a3d34413ebf5e911b8cad987d3496e962b5f49f319408a89060964736f6c6343000814003360803461009957601f6200288938819003918201601f19168301916001600160401b0383118484101761009e5780849260209460405283398101031261009957516001600160a01b038116908190036100995780156100875760018060a01b03193381600154161760015560005416176000556001600d556040516127d49081620000b58239f35b60405163e6c4247b60e01b8152600490fd5b600080fd5b634e487b7160e01b600052604160045260246000fdfe60806040526004361015610018575b361561001657005b005b60003560e01c8063013cf08b146101d857806312065fe0146101d35780631f185d16146101ce57806326705c3c146101c9578063339459a6146101c45780633b9b7955146101bf57806343859632146101ba57806345a257bc146101b55780635c622a0e146101b0578063604ff4b1146101ab578063896d6db1146101a65780638da5cb5b146101a157806398e527d31461019c578063995e433914610197578063a1f7f53914610192578063af4845261461018d578063b7ccfe3214610188578063b90306ad14610183578063be17fe621461017e578063c54e44b014610179578063c7f758a814610174578063c9d27afe1461016f578063cc48bf161461016a578063d3325a2c14610165578063e01ad5fd14610160578063e0a9bc2b1461015b578063eeebb3c3146101565763fdc10bc90361000e576119cc565b611723565b611708565b6116e1565b611653565b611507565b611342565b6112a6565b6111f3565b61115d565b611075565b610fd8565b610f11565b610eee565b610e6a565b610e4c565b610e23565b610d88565b610d0e565b610cc2565b610a34565b6109a6565b61097d565b61059d565b61057f565b61054e565b610521565b610465565b634e487b7160e01b600052603260045260246000fd5b600e5481101561021257600e600052600b602060002091020190600090565b6101dd565b90600182811c92168015610247575b602083101461023157565b634e487b7160e01b600052602260045260246000fd5b91607f1691610226565b906000929180549161026283610217565b9182825260019384811690816000146102c45750600114610284575b50505050565b90919394506000526020928360002092846000945b8386106102b057505050500101903880808061027e565b805485870183015294019385908201610299565b9294505050602093945060ff191683830152151560051b0101903880808061027e565b634e487b7160e01b600052604160045260246000fd5b604081019081106001600160401b0382111761031857604052565b6102e7565b602081019081106001600160401b0382111761031857604052565b601f909101601f19168101906001600160401b0382119082101761031857604052565b9061037661036f9260405193848092610251565b0383610338565b565b6001600160a01b031690565b60005b8381106103975750506000910152565b8181015183820152602001610387565b906020916103c081518092818552858086019101610384565b601f01601f1916010190565b99939561041d61044d969f9e9d99936101809d986104619c9660408f6103fe6104579e986101a08084528301906103a7565b6001600160a01b03909516602082015201528d820360608f01526103a7565b60808c019f909f5260a08b015260c08a015260e089015215156101008801526001600160a01b0316610120870152565b1515610140850152565b1515610160830152565b0152565b3461051c57602036600319011261051c57600435600e5481101561051c5761048c906101f3565b506040516104a58161049e8185610251565b0382610338565b6105186104b56001840154610378565b6002840154906104c76003860161035b565b93600486015495600581015493600682015460078301549060096008850154940154966040519a8b9a8b9560ff8860b01c169960ff8960a81c169960ff60018060a01b038b60081c169a16986103cc565b0390f35b600080fd5b3461051c57600036600319011261051c57602047604051908152f35b6001600160a01b0381160361051c57565b3461051c57602036600319011261051c5760206105756004356105708161053d565b612424565b6040519015158152f35b3461051c57600036600319011261051c576020601054604051908152f35b3461051c57600080600319360112610967576105c16105bc8254610378565b610378565b60408051634bf9c0ad60e11b81529160049190602080858581855afa94851561082e578695610948575b50825163cfbffe5360e01b81529281848681865afa93841561082e578794610929575b50805163ab6e844f60e01b815282818781875afa90811561082e57889161090c575b508151630536340960e21b815283818881885afa90811561082e5789916108ef575b50825163d1f956b160e01b81529084828981895afa91821561082e578a926108d0575b508351631cc3bfab60e31b81529285848a818a5afa93841561082e578b946108b1575b50845163e09d394d60e01b81529486868b818b5afa95861561082e578c96610892575b5080516314ac1b5960e21b815298878a8c818c5afa97881561082e576107029a8e99610873575b50808c8451809d819263013cf08b60e01b83528201906000602083019252565b03818d5afa998a1561082e578c9b8f9b610854575b50818451809d635e09dbe760e01b825281845afa9b8c1561082e578f9c610833575b50819084519d8e8092635506ee0b60e11b82525afa9b8c1561082e578e9c6107ff575b506107656115c2565b9c610770908e611bdb565b8c019061077c91611bdb565b8a019061078891611bdb565b6107959060608a01611bdb565b6107a29060808901611bdb565b6107af9060a08801611bdb565b6107bc9060c08701611bdb565b6107c99060e08601611bdb565b6107d7906101008501611bdb565b6107e5906101208401611bdb565b6107f3906101408301611bdb565b6107fc9061218c565b80f35b81610820929d508d3d10610827575b6108188183610338565b810190611e79565b9a3861075c565b503d61080e565b611e6d565b82919c5061084d90823d8411610827576108188183610338565b9b90610739565b61086c919b50823d8411610827576108188183610338565b9938610717565b8161088b929a503d8b11610827576108188183610338565b97386106e2565b6108aa919650873d8911610827576108188183610338565b94386106bb565b6108c9919450863d8811610827576108188183610338565b9238610698565b6108e8919250853d8711610827576108188183610338565b9038610675565b6109069150843d8611610827576108188183610338565b38610652565b6109239150833d8511610827576108188183610338565b38610630565b610941919450823d8411610827576108188183610338565b923861060e565b816109609296503d8711610827576108188183610338565b93386105eb565b80fd5b6001600160a01b03909116815260200190565b3461051c57600036600319011261051c576000546040516001600160a01b039091168152602090f35b3461051c57604036600319011261051c576004356024356109c68161053d565b60001982019182116109f8576109ec60ff91600a6109e56020956101f3565b5001612084565b54166040519015158152f35b6119e7565b9181601f8401121561051c578235916001600160401b03831161051c576020838186019501011161051c57565b8015150361051c57565b3461051c5760e036600319011261051c57600480356024356001600160401b03811161051c57610a6790369084016109fd565b604492919235610a768161053d565b606435926001600160e01b031984169081850361051c576084359060a4359760c43593610aa285610a2a565b610aab33612424565b15610cb2578615610ca25715610c9357881580610c82575b610c735781610b8f57505092610016969492610b647f0454182b30f1740c505634bb66f7f3001e232b3c8797a62b1db11b347a891ff493610b8a9896610b3e610b0a6115e2565b92610b1636888c61161c565b8452610b258660208601611bdb565b6001600160e01b03198916604085015215156060840152565b60808201528760a0820152610b5f601054600052600f602052604060002090565b611cb0565b610b8260105496879560405194859460018060a01b03169885611de2565b0390a3611e11565b601055565b6010989397969198548911610c64575093610c5f9593610c4a89947f74608b2c8ffedaacf37a0fda8ea5cb94ebae20dc104623eb2fabb1bcec211608948a98610c3160008051602061277f8339815191529c610bfd610bed8b6119fd565b600052600f602052604060002090565b610c08898d83611a60565b8560036001830192610c1a8b85611b27565b610c248785611b46565b8760028201550155611b69565b6040516001600160a01b03909516989495869586611ba7565b0390a360405191829182901515815260200190565b0390a2005b604051630a98a78560e21b8152fd5b604051635ae2d7ef60e11b8152fd5b506001600160a01b03851615610ac3565b604051633f1e175760e01b8152fd5b50604051632f12d8b360e21b8152fd5b5060405163ea8e4eb560e01b8152fd5b3461051c57602036600319011261051c5760043560001981019081116109f8576008610cef6040926101f3565b50015460ff825191818160a81c161515835260b01c1615156020820152f35b3461051c57602036600319011261051c57600435610d2a6123b2565b15610d7657333003610d645780158015610d5a575b610d4857600d55005b604051631f3b85d360e01b8152600490fd5b5060648111610d3f565b604051633a3cf02960e11b8152600490fd5b604051634ee2123760e11b8152600490fd5b3461051c57602036600319011261051c57600435600052600f602052610de5604060002060405190610dbe8261036f8184610251565b600181015490600360028201549101549060ff60405195869560c0875260c08701906103a7565b6001600160a01b0385166020870152604085811b6001600160e01b0319169087015260c09490941c1615156060850152608084015260a08301520390f35b3461051c57600036600319011261051c576001546040516001600160a01b039091168152602090f35b3461051c57600036600319011261051c576020600e54604051908152f35b3461051c57602036600319011261051c5760043560001981019081116109f857610e93906101f3565b50600481015460058201546006830154600784015460089094015460408051948552602085019390935291830152606082019290925260ff60a883901c81161515608083015260b09290921c909116151560a082015260c090f35b3461051c57600036600319011261051c576020610f09612575565b604051908152f35b3461051c5760208060031936011261051c57610f88600435610f328161053d565b6002546040516001600160a01b03928316858201528481529116610f55826102fd565b60405190610f62826102fd565b601582527469735365637572654261736528616464726573732960581b858301526125ef565b919080610fce575b15610fbc578181610faa9261051894518301019101611e58565b60405191829182901515815260200190565b60405163baf3f0f760e01b8152600490fd5b5080825114610f90565b3461051c57604036600319011261051c57600435602435610ff881610a2a565b61100133612424565b156110635760105482116110515760001982018281116109f85760008051602061277f83398151915291602091600052600f8252611046816001604060002001611b69565b6040519015158152a2005b604051630a98a78560e21b8152600490fd5b60405163ea8e4eb560e01b8152600490fd5b3461051c57602036600319011261051c576004356110916123b2565b15610d76576005546001600160a01b0316330361106357600090600460206110bc6105bc8554610378565b6040516311be646b60e21b815292839182905afa801561082e578380848194938294839161113f575b505af16110f06125bf565b5015610fbc577fcdcc745fe377b103b45fa0cec23ae3ef93d6fc6a84a01f0d18c40b354dd1d5d86111396111286105bc600b54610378565b604051938452929081906020820190565b0390a280f35b611157915060203d8111610827576108188183610338565b386110e5565b3461051c57602036600319011261051c5760043561117a8161053d565b6111826123b2565b15610d76576005546001600160a01b0391908216330361106357811680156111e157600080546001600160a01b03198116831782559092167fe939feee179e631422bcc8f6e6d7d908cb3f8af38f5372f17c77e15aea5c80ee8380a380f35b60405163e6c4247b60e01b8152600490fd5b3461051c57602036600319011261051c576004356112108161053d565b803b600061121d82611601565b9261122b6040519485610338565b82845260208401903c602d815110610fbc57602a602091015160601c604051908152f35b9361126b6112a39896939297949760e0875260e08701906103a7565b6001600160a01b03928316602087015260408601979097521660608401521515608083015260a082015280830360c0909101526103a7565b90565b3461051c57602036600319011261051c5760043560001981019081116109f8576112cf906101f3565b5060018101546002820154600883015460098401546040516001600160a01b039485169561051894600394929161132c906113158461130e8184610251565b0385610338565b6113256040518098819301610251565b0386610338565b60405197889760ff85169460081c16928861124f565b3461051c5760408060031936011261051c5760049081359160243561136681610a2a565b61136e6123b2565b156114f85761137c336124e7565b156114e957831580156114de575b6114cf5761139f61139a856119fd565b6101f3565b5092600884015460ff8116156114bf5760068501546113bc6124a1565b116114af5760b01c60ff166114a057600a84016113e36113dc3383612084565b5460ff1690565b6114905785916114256114187f0def80f9a3b4c7a4251442658ccf516bf33ea4acaf31638fc6da8ebdb0f64c72933390612084565b805460ff19166001179055565b831561147b578486016114388154611e11565b90555b5192151583523392602090a381015460078201548091109182159261146c575b505061146357005b6100169061209b565b6005015410159050388061145b565b600586016114898154611e11565b905561143b565b8151637c9a1cf960e01b81528490fd5b51634481832360e11b81529050fd5b8151637a19ed0560e01b81528490fd5b8151631104bc2760e21b81528490fd5b509051630992f7ad60e01b8152fd5b50600e54841161138a565b50905163ea8e4eb560e01b8152fd5b509051634ee2123760e11b8152fd5b3461051c57602036600319011261051c5760043561152433612424565b1561106357801580156115b7575b6115a55760001981018181116109f85761154d6008916101f3565b5001805460b01c60ff1661159357805460ff60b01b1916600160b01b1790557f4cf2797951877f41b38931a68643f9249273f32fd396532213aa4f1222c9d16b600080a2005b604051634481832360e11b8152600490fd5b604051630992f7ad60e01b8152600490fd5b50600e548111611532565b6040519061016082016001600160401b0381118382101761031857604052565b6040519060c082016001600160401b0381118382101761031857604052565b6001600160401b03811161031857601f01601f191660200190565b92919261162882611601565b916116366040519384610338565b82948184528183011161051c578281602093846000960137010152565b3461051c5760a036600319011261051c576001600160401b0360043581811161051c576116849036906004016109fd565b6024929192356116938161053d565b60643592831161051c573660238401121561051c57610518936116c36116d194369060248160040135910161161c565b916084359360443592611fba565b6040519081529081906020820190565b3461051c57602036600319011261051c5760206105756004356117038161053d565b6124e7565b3461051c57600036600319011261051c5760206105756123b2565b3461051c57608036600319011261051c57600460243581356117448261053d565b6044356001600160401b03811161051c5761176290369085016109fd565b909261176c6123b2565b156119bb5761177a336124e7565b156119aa57601054831161199957611794610bed846119fd565b9160018301549060ff8260c01c1615611988576040956117c1919083881b6001600160e01b031916611e20565b956117d26105bc6105bc8354610378565b60038501549283156119685750865163509222cd60e01b81526020936001600160a01b039290921692919084818061180c8982880161096a565b0381875afa90811561082e5760009161193b575b501561192c57600181146118d2575b60021461186b575b5050509361185c9291610518955b6002820154936118576064359361035b565b611f07565b90519081529081906020820190565b92829594929161188f98948851809a819482936376fe6c4560e01b8452830161096a565b03915afa801561082e576105189661185c956000926118b5575b50509195819394611837565b6118cb9250803d10610827576108188183610338565b38806118a9565b93836118f091895180938192630e5fd00b60e01b835286830161096a565b0381865afa801561082e5760029160009161190f575b5094905061182f565b6119269150853d8711610827576108188183610338565b38611906565b50865163ea8e4eb560e01b8152fd5b61195b9150853d8711611961575b6119538183610338565b810190611e58565b38611820565b503d611949565b6105189861185c979690955093506001600160a01b031691506118459050565b604051630fe92ce760e21b81528790fd5b604051630a98a78560e21b81528590fd5b60405163ea8e4eb560e01b81528590fd5b604051634ee2123760e11b81528590fd5b3461051c57600036600319011261051c576020610f096124a1565b634e487b7160e01b600052601160045260246000fd5b6000198101919082116109f857565b90601f8111611a1a57505050565b600091825260208220906020601f850160051c83019410611a56575b601f0160051c01915b828110611a4b57505050565b818155600101611a3f565b9092508290611a36565b9092916001600160401b03811161031857611a8581611a7f8454610217565b84611a0c565b6000601f8211600114611abf5781929394600092611ab4575b50508160011b916000199060031b1c1916179055565b013590503880611a9e565b601f19821694611ad484600052602060002090565b91805b878110611b0f575083600195969710611af5575b505050811b019055565b0135600019600384901b60f8161c19169055388080611aeb565b90926020600181928686013581550194019101611ad7565b80546001600160a01b0319166001600160a01b03909216919091179055565b805463ffffffff60a01b191660409290921c63ffffffff60a01b16919091179055565b805460ff60c01b191691151560c01b60ff60c01b16919091179055565b908060209392818452848401376000828201840152601f01601f1916010190565b9160609396959491611bc191608085526080850191611b86565b6001600160e01b0319909616602083015260408201520152565b6001600160a01b039091169052565b81519192916001600160401b03811161031857611c0b81611a7f8454610217565b602080601f8311600114611c46575081929394600092611c3b5750508160011b916000199060031b1c1916179055565b015190503880611a9e565b90601f19831695611c5c85600052602060002090565b926000905b888210611c9857505083600195969710611c7f57505050811b019055565b015160001960f88460031b161c19169055388080611aeb565b80600185968294968601518155019501930190611c61565b815180519192916001600160401b03811161031857611cd981611cd38654610217565b86611a0c565b6020918290601f8311600114611d6d57928260039593611d519360a096600092611d62575b50508160011b9160001990881b1c19161786555b611d2b611d256001880192850151610378565b82611b27565b6040830151611d44906001600160e01b03191682611b46565b6060830151151590611b69565b608081015160028501550151910155565b015190503880611cfe565b90601f19831691611d8387600052602060002090565b9260005b818110611dcb575093611d519360a096936001938360039a9810611db3575b505050811b018655611d12565b0151600019838a1b60f8161c19169055388080611da6565b929386600181928786015181550195019301611d87565b90611dfc9060409396959496606084526060840191611b86565b6001600160e01b031990951660208201520152565b60001981146109f85760010190565b6024906103769294938060405196879363ffffffff60e01b166020850152848401378101600083820152036004810185520183610338565b9081602091031261051c57516112a381610a2a565b6040513d6000823e3d90fd5b9081602091031261051c57516112a38161053d565b600e54600160401b811015610318576001810180600e5581101561021257600e600052600b602060002091020190600090565b818102929181159184041417156109f857565b90606382018092116109f857565b8054610100600160a81b03191660089290921b610100600160a81b0316919091179055565b9293611f3e91959294611f23611f1b611e8e565b509586611bea565b611f308660018701611b27565b600285015560038401611bea565b6064611f5c611f57611f4e612575565b600d5490611ec1565b611ed4565b046007830155611f6a6124a1565b9081018091116109f85781600991600686940155611f8f600882016114183382611ee2565b0155600e54918260008051602061275f83398151915260405180611fb433968261096a565b0390a490565b919390611fc633612424565b15611063576001600160a01b038516156111e15761201892611fe991369161161c565b92611ffd611ff5611e8e565b509485611bea565b61200a8560018601611b27565b600284015560038301611bea565b6064612028611f57611f4e612575565b0460078201556120366124a1565b9283018093116109f8576009926006820155612059600882016114183382611ee2565b6103e79283910155600e54918260008051602061275f83398151915260405180611fb433968261096a565b9060018060a01b0316600052602052604060002090565b7f948f4a9cd986f1118c3fbd459f7a22b23c0693e1ca3ef06a6a8be5aa7d39cc03612135610faa6120ce61139a856119fd565b5060088101805460ff60b01b1916600160b01b1781559061211760048201546007830154811015908161217e575b50835460ff60a81b191690151560a81b60ff60a81b16178355565b815460a81c60ff1680612169575b61213a575b505460a81c60ff1690565b0390a2565b8061214b6001612162930154610378565b61215c60036002840154930161035b565b906126d9565b503861212a565b506121776003820154610217565b1515612125565b9050600583015410386120fc565b612390610140610376926121c56121a38251610378565b600280546001600160a01b0319166001600160a01b0392909216919091179055565b6121f76121d56020830151610378565b600380546001600160a01b0319166001600160a01b0392909216919091179055565b6122296122076040830151610378565b600480546001600160a01b0319166001600160a01b0392909216919091179055565b61225b6122396060830151610378565b600580546001600160a01b0319166001600160a01b0392909216919091179055565b61228d61226b6080830151610378565b600680546001600160a01b0319166001600160a01b0392909216919091179055565b6122bf61229d60a0830151610378565b600780546001600160a01b0319166001600160a01b0392909216919091179055565b6122f16122cf60c0830151610378565b600880546001600160a01b0319166001600160a01b0392909216919091179055565b61232361230160e0830151610378565b600980546001600160a01b0319166001600160a01b0392909216919091179055565b612356612334610100830151610378565b600a80546001600160a01b0319166001600160a01b0392909216919091179055565b612389612367610120830151610378565b600b80546001600160a01b0319166001600160a01b0392909216919091179055565b0151610378565b600c80546001600160a01b0319166001600160a01b0392909216919091179055565b6002546040516123fa916001600160a01b0316906123cf816102fd565b6008815267697353616665282960c01b6020820152604051916123f18361031d565b600083526125ef565b9080612419575b15610fbc57806020806112a393518301019101611e58565b506020815114612401565b61247a60018060a01b03806002541660405191602094168483015283825261244b826102fd565b60405190612458826102fd565b601182527069735369676e657228616464726573732960781b858301526125ef565b9080612497575b15610fbc57816112a39282518301019101611e58565b5081815114612481565b6003546040516112a3916001600160a01b0316906124be816102fd565b600681526569416765282960d01b6020820152604051916124de8361031d565b6000835261266a565b60018060a01b0390612548826006541692604051906020931683820152828152612510816102fd565b60405161251c816102fd565b6018815277697364656c656761746f724e6f646528616464726573732960401b848201526000946125ef565b91908061256b575b61255957505090565b6112a392508082518301019101611e58565b5080825114612550565b6006546040516112a3916001600160a01b031690612592816102fd565b601381527267657464656c656761746f72436f756e74282960681b6020820152604051916124de8361031d565b3d156125ea573d906125d082611601565b916125de6040519384610338565b82523d6000602084013e565b606090565b803b1561265157600092839263ffffffff60e01b9060208151910120169061264160246040518093602082019586526126318151809260208686019101610384565b8101036004810184520182610338565b51915afa61264d6125bf565b9091565b5050506000906040516126638161031d565b6000815290565b9291612678916000946125ef565b908061269d575b6126865750565b90915060208180518101031261051c576020015190565b50602081511461267f565b906020825192015163ffffffff60e01b9081811693600481106126ca57505050565b60040360031b82901b16169150565b9091906001600160a01b038116156111e157600091829184519160208601915af1906127036125bf565b911561270d575090565b8051600091906004116127585761272491506126a8565b8151156127345750805190602001fd5b604051630870274d60e21b81526001600160e01b0319919091166004820152602490fd5b5061272456fe336735bcae5ee955b87e8b30bee52920223fa30a865b207ac6d9eee9f19589fb2dd3ae6155b13a46b2374a1f42e0733244754e572ec9f0034b698efefa8673a1a2646970667358221220d17e9d382b033696ad75299b4d46787472566bacf7a0ee4b973751f6e60a8ff864736f6c634300081400336080346200009e57601f6200485038819003918201601f19168301916001600160401b03831184841017620000a3578084926020946040528339810103126200009e57516001600160a01b038116908190036200009e5780156200008c5760018060a01b03193381600154161760015560005416176000556001600d556040516147969081620000ba8239f35b60405163e6c4247b60e01b8152600490fd5b600080fd5b634e487b7160e01b600052604160045260246000fdfe60806040526004361015610018575b361561001657005b005b60003560e01c8063033eeffb146103d35780630e5fd00b146103745780631157a849146103ce57806312065fe0146103c957806313508e37146103c45780631bb49f02146103bf5780631c53c280146103ba5780631f185d16146103b55780631f5fa838146103b05780632bbae52e146103ab5780632fefc0bf146103a6578063339459a6146103a157806333b59a5b1461039c5780633a7b55b8146103975780633b9b7955146103925780633baee0ea1461038d578063419cb27b1461038857806342cc9d5714610383578063445850971461037e57806344668f231461037957806345145fd7146103745780634d1ec4521461036f5780634f0f4aa91461036a578063509222cd1461036557806361ea720814610360578063629d671e1461035b57806365d2fbd3146103565780636a811244146103515780636b90905b1461034c5780636fb412ab1461034757806370a75f501461034257806376fe6c451461033d5780637818cdd71461033857806380f85e3314610333578063849c22ad1461032e578063896c354a146103295780638d92a51b146103245780638da5cb5b1461031f57806398b3f2151461031a5780639bdf305a14610315578063a1f7f53914610310578063a89d693b1461030b578063ab3980b114610306578063af48452614610301578063b1c49079146102fc578063b366335e146102f7578063b90306ad146102f2578063be17fe62146102ed578063c43792e3146102e8578063c54e44b0146102e3578063c871372b146102de578063cf359165146102d9578063d1e0bbc6146102d4578063dcb3fc4a146102cf578063e01ad5fd146102ca578063e0a9bc2b146102c5578063eb95c662146102c0578063f3ca7124146102bb578063fd38093b146102b65763fdc10bc90361000e5761298b565b61291d565b6128f1565b6128c5565b6128aa565b6127eb565b61262d565b6125f3565b612513565b61248e565b612432565b612406565b612353565b61226b565b6121f5565b612113565b6120e2565b612041565b611fd8565b611f3f565b611e9b565b611e6f565b611e46565b611da5565b611d65565b611d36565b611cfc565b611ca3565b611b5b565b611a96565b6118c6565b6117a4565b61161f565b61121f565b6111e2565b6111aa565b611157565b611096565b611035565b610434565b610ffe565b610fc7565b610f98565b610f64565b610c74565b610c23565b610ba9565b610914565b6108fb565b6108cb565b610886565b610767565b6106a0565b61066c565b6105b3565b61056a565b61054e565b610483565b346103ff5760203660031901126103ff5760043560005260156020526020604060002054604051908152f35b600080fd5b6001600160a01b031690565b6001600160a01b038116036103ff57565b6001600160a01b03909116815260200190565b346103ff5760203660031901126103ff57602060043561045381610410565b60018060a01b03809116600052600e82526040600020546000526011825260046040600020015416604051908152f35b346103ff5760203660031901126103ff5760043561049f6129e4565b8060005260116020526104c26104be600160406000200160ff90541690565b1590565b8015610530575b61051e576104e66104be60016104de8461060c565b015460ff1690565b61050c576104f66105029161060c565b60016000918281550155565b6100166001600d55565b604051632564805f60e11b8152600490fd5b604051635dab8f7760e01b8152600490fd5b5061053a336111c8565b548114156104c9565b60009103126103ff57565b346103ff5760003660031901126103ff57602047604051908152f35b346103ff5760203660031901126103ff57600435600052601a6020526060604060002060ff600182549201546040519283528181161515602084015260081c1615156040820152f35b346103ff5760203660031901126103ff5760206004356105d281610410565b6001600160a01b039081166000908152600e8352604080822054825260118452808220600201548252600f84529081902054905191168152f35b600052601a602052604060002090565b6000526012602052604060002090565b6000526011602052604060002090565b600052600f602052604060002090565b6000526014602052604060002090565b6000526015602052604060002090565b346103ff5760203660031901126103ff57600435600052600f602052602060018060a01b0360406000205416604051908152f35b346103ff576020806003193601126103ff576107136004356106c181610410565b6002546040516001600160a01b039283168582015284815291166106e482611bf3565b604051906106f182611bf3565b601182527069735369676e657228616464726573732960781b858301526145f6565b91908061075d575b1561074b5781816107359261074794518301019101613dfc565b60405190151581529081906020820190565b0390f35b60405163baf3f0f760e01b8152600490fd5b508082511461071b565b346103ff576020806003193601126103ff5760043561078581610410565b604051632ca05d7160e21b81526001600160a01b039183908290600490829086165afa9081156108285760009161083f575b5016801561082d5781600491604051928380926349a104e760e11b82525afa90811561082857610747926000926107fb575b50506040519081529081906020820190565b61081a9250803d10610821575b6108128183611c60565b81019061309f565b38806107e9565b503d610808565b612b08565b604051631a113ba560e21b8152600490fd5b61085f9150833d8511610865575b6108578183611c60565b810190612af3565b386107b7565b503d61084d565b6001600160a01b0391821681529116602082015260400190565b346103ff5760203660031901126103ff576004356000526011602052604060002060018060a01b0360058160048401541692015416906107476040519283928361086c565b346103ff5760203660031901126103ff5760206108e9600435612ca7565b6040516001600160a01b039091168152f35b346103ff5760003660031901126103ff576100166140f8565b346103ff576040806003193601126103ff57600480359060243590610937614496565b15610b6d5761094533614508565b8015610b59575b15610b4b576000936109666109618654610404565b610404565b918151809363111ea8c160e21b8252818360209687935afa908115610828578791610b2e575b506001600160a01b0316908515610b28576109a686612a37565b83516380f85e3360e01b80825283820192835260006020840152918690829081906040010381875afa908115610828578991610b0b575b50965b868111156109ec578880f35b84516375cae33160e11b81528381018281528790829081906020010381885afa908115610828578a91610aee575b50610a2f826000526016602052604060002090565b55885b60088110610a495750610a4490612cc5565b6109e0565b8551838152878180610a5e85878a840161160e565b0381895afa908115610828578b91610ad1575b508115610aa5575b90610aa091610a9a82610a8b8661061c565b90600052602052604060002090565b55612cc5565b610a32565b9890610ab4610aa0928b612a46565b610ac8846000526019602052604060002090565b55905088610a79565b610ae89150883d8a11610821576108128183611c60565b38610a71565b610b059150873d8911610821576108128183611c60565b38610a1a565b610b229150863d8811610821576108128183611c60565b386109dd565b866109a6565b610b459150843d8611610865576108578183611c60565b3861098c565b835163ea8e4eb560e01b8152fd5b506005546001600160a01b0316331461094c565b8351634ee2123760e11b8152fd5b60e0810192916000915b60078310610b9257505050565b600190825181526020809101920192019190610b85565b346103ff576020806003193601126103ff57600435604091825191610bcd83611c0e565b60e036843760005b60078110610bea578451806107478682610b7b565b816000526013835284600020906001810191828211610c1e57826000528452610c1886600020549186613da7565b52610bd5565b6129a6565b346103ff5760003660031901126103ff576000546040516001600160a01b039091168152602090f35b60409060031901126103ff57600435610c6481610410565b90602435610c7181610410565b90565b346103ff57610c8236610c4c565b610c8a6129e4565b610c926140f8565b610c9c8133612b14565b6001600160a01b03818116908115610f5257610cb7836111c8565b54151580610f46575b610f3457610ccd846111c8565b5415610f2257610cf66109616109616005610cf0610cea896111c8565b5461062c565b016129d7565b91823b156103ff5760409160008351809563880cdc3160e01b8252818381610d218b60048301610421565b03925af19384156108285761074794610f09575b50610d4a6109616004610cf0610cea8a6111c8565b610ecf575b610d58866111c8565b54610d62866111c8565b55610d7e85610d79610d73896111c8565b5461063c565b612cd4565b610d96336004610d90610cea896111c8565b01612cd4565b851614159081610ebe575b610e55610e16610db0866111c8565b5495610dc06005610cf08961062c565b9781610ddf610dda6002610dd38c61062c565b015461063c565b6129d7565b9615610e8657610e2991610e24610df7600954610404565b91610e16895194859263e3d1d5bf60e01b60208501526024840161086c565b03601f198101845283611c60565b6146de565b505b610e24610e39600a54610404565b918551938491634ef260a960e01b602084015260248301610421565b50610e606001600d55565b519283526001600160a01b03938416602084015290921660408201529081906060820190565b50610e16610eb891610e24610e9c600954610404565b918851938491639498d88b60e01b602084015260248301610421565b50610e2b565b6000610ec9866111c8565b55610da1565b610f03610ee36004610cf0610cea8a6111c8565b845162e6724f60e21b602082015290610e2482610e163360248301610421565b50610d4f565b80610f16610f1c92611bc0565b80610543565b38610d35565b60405163a7bc67af60e01b8152600490fd5b604051631bb220a360e21b8152600490fd5b50818185161415610cc0565b6040516398c534a160e01b8152600490fd5b346103ff5760203660031901126103ff576004356000526011602052602060ff600160406000200154166040519015158152f35b346103ff5760203660031901126103ff5760043560005260116020526020600360406000200154604051908152f35b346103ff5760203660031901126103ff576004356000526011602052602060018060a01b0360046040600020015416604051908152f35b346103ff5760003660031901126103ff576020601b54604051908152f35b9081526001600160a01b03909116602082015260400190565b346103ff5760203660031901126103ff5760043561105281610410565b60018060a01b0380600092168252600e60205260408220548252601160205260406002818420015492838152600f602052205416906107476040519283928361101c565b346103ff5760203660031901126103ff57600435806000526011602052604060002054600f60205261074760018060a01b03806040600020541693601160205260406000209160046002840154930154166110f56005610cf08461062c565b90600361110f61110960016104de8761062c565b9461062c565b0154604080519788526001600160a01b03988916602089015287019490945286166060860152909416608084015292151560a083015260c082019290925290819060e0820190565b346103ff5760203660031901126103ff5760043561117481610410565b60018060a01b0316600052600e6020526040600020546000526011602052602060ff600160406000200154166040519015158152f35b346103ff5760003660031901126103ff576020601054604051908152f35b6001600160a01b03166000908152600e6020526040902090565b346103ff5760203660031901126103ff576004356111ff81610410565b60018060a01b0316600052600e6020526020604060002054604051908152f35b346103ff5760203660031901126103ff57600480359061123d6129e4565b6001906112506104be836104de8661062c565b80156115fb575b6115ec576112648361060c565b91808301926112776104be855460ff1690565b6115db57611283612a07565b6112996112946005610cf08861062c565b612c34565b906112ac6104be865460ff9060081c1690565b156114805750600291826112bf8761062c565b01541561146f576000815b611391575b505061136b575b6112ea6109616109616005610cf08861062c565b803b156103ff57604051631867546560e21b8152600193810193845292600091849182908490829060200103925af18015610828576105029460009361134792611358575b5084546113429060081c60ff1682613277565b61062c565b0155805461ff001916610100179055565b80610f1661136592611bc0565b3861132f565b61138c6113876005610cf0846113808961062c565b015461062c565b6131e6565b6112d6565b6003806113a1866113808b61062c565b01548210156114695787806113d16113c785856113c18b6113808761062c565b01612f9a565b90549060031b1c90565b146113e75750506113e190612cc5565b816112ca565b61146293506114368293836113c1896113806114306113c78861142a876114238761138061144f9f61141c836113808961062c565b019561062c565b0154612a37565b90612f9a565b9661062c565b90919082549060031b91821b91600019901b1916179055565b61145c846113808961062c565b0161322a565b38806112cf565b506112cf565b604051634593d2d560e11b81528490fd5b929493915060026114908561062c565b01546115ca576114d7916114d1916114c28660036114bc88548060026114b58661062c565b015561062c565b01612fb7565b6115ae575b5460081c60ff1690565b83613277565b6001600160a01b036114ec84610cf08561062c565b16611567575b506115076109616109616005610cf08561062c565b803b156103ff57604051631867546560e21b81526000938101848152909391849182908490829060200103925af19081156108285761154f926104f692611554575b5061060c565b610502565b80610f1661156192611bc0565b38611549565b610e166115a791610e2461158b610dda61158488610cf08961062c565b935461063c565b604051630a4ce2c960e11b602082015293849160248301610421565b50386114f2565b6115c56115c06005610cf0875461062c565b613198565b6114c7565b60405163a937c68b60e01b81528590fd5b604051632564805f60e11b81528390fd5b604051635dab8f7760e01b8152fd5b50611605336111c8565b54831415611257565b908152602081019190915260400190565b346103ff576040806003193601126103ff576004359061163d6129e4565b61164e6104be60016104de8561062c565b611794576116636109616004610cf08561062c565b330361178457600090611674612a07565b60606116ae61168d6109616109616005610cf08961062c565b601b5484519586809481936350e12e4360e11b83526024356004840161160e565b03925af192831561082857600080938195611744575b50836107479392826116e16116dc846116ed966129ca565b613e69565b80611701575b506135a6565b6116f76001600d55565b519283928361160e565b61173d90611710600c54610404565b610e2461171f610dda8661063c565b610e16895194859263a9059cbb60e01b60208501526024840161317d565b50386116e7565b6116ed955061074793929450611771915060603d811161177d575b6117698183611c60565b81019061358b565b955093919250836116c4565b503d61175f565b5163e38a47bd60e01b8152600490fd5b5163bf22183960e01b8152600490fd5b346103ff576040806003193601126103ff5760049060243582356117c6614496565b156118b7576117d433614508565b80156118a3575b15611894576117e86129e4565b6117f96104be60016104de8461062c565b6118855761180e6104be60016104de8561062c565b611876576118236112946005610cf08561062c565b15611867576118319061060c565b6001810192611841845460ff1690565b611858575055805460ff1916600117905550610502565b516304d2a6fb60e21b81528490fd5b505051630771dfcd60e11b8152fd5b505051630500268160e01b8152fd5b50505163bf22183960e01b8152fd5b50505163ea8e4eb560e01b8152fd5b506005546001600160a01b031633146117db565b505051634ee2123760e11b8152fd5b346103ff576040806003193601126103ff57602435906004356118e76129e4565b6118f86104be60016104de8461062c565b611a5b5761190b610961610dda8361063c565b3303611a4a57600460206119296109616109616005610cf08761062c565b8451634b2cc33f60e11b815292839182905afa8015610828578491600091611a2c575b50101561195d576100166001600d55565b6080611996936119776109616109616005610cf08761062c565b845180809781946331a8596160e11b8352600483019190602083019252565b03915afa908115610828576119e3936000926119ec575b506119bd610dda610e249261063c565b610e166119c86130f1565b9451637a937b4560e11b60208201529485926024840161312c565b50388080610502565b610e24919250610dda611a186119bd9260803d8111611a25575b611a108183611c60565b8101906130ae565b92505050939250506119ad565b503d611a06565b611a44915060203d8111610821576108128183611c60565b3861194c565b8151635dab8f7760e01b8152600490fd5b815163bf22183960e01b8152600490fd5b801515036103ff57565b60609060031901126103ff576004359060243590604435610c7181611a6c565b346103ff57611aa436611a76565b611aac614496565b15611b4957611aba33614508565b8015611b35575b15611b235715611af757806000526016602052604060002054918201809211610c1e576000526016602052604060002055600080f35b806000526016602052604060002054918203918211610c1e576000526016602052604060002055600080f35b60405163ea8e4eb560e01b8152600490fd5b506005546001600160a01b03163314611ac1565b604051634ee2123760e11b8152600490fd5b346103ff5760203660031901126103ff576020600435611b7a81610410565b60018060a01b03809116600052600e82526040600020546000526011825260056040600020015416604051908152f35b634e487b7160e01b600052604160045260246000fd5b6001600160401b038111611bd357604052565b611baa565b606081019081106001600160401b03821117611bd357604052565b604081019081106001600160401b03821117611bd357604052565b60e081019081106001600160401b03821117611bd357604052565b602081019081106001600160401b03821117611bd357604052565b61010081019081106001600160401b03821117611bd357604052565b601f909101601f19168101906001600160401b03821190821017611bd357604052565b6040519061016082016001600160401b03811183821017611bd357604052565b346103ff576101003660031901126103ff5736604312156103ff57604051611cca81611c0e565b610104813682116103ff576024905b828210611cec5761001684600435613b9a565b8135815260209182019101611cd9565b346103ff5760403660031901126103ff57600435600052601260205260406000206024356000526020526020604060002054604051908152f35b346103ff5760203660031901126103ff5760043560005260116020526020600260406000200154604051908152f35b346103ff5760403660031901126103ff5760043560005260116020526020611d966024356003604060002001612f9a565b90549060031b1c604051908152f35b346103ff57611db336611a76565b611dbb614496565b15611b4957611dc933614508565b8015611e32575b15611b235715611e0657806000526018602052604060002054918201809211610c1e576000526018602052604060002055600080f35b806000526018602052604060002054918203918211610c1e576000526018602052604060002055600080f35b506005546001600160a01b03163314611dd0565b346103ff5760003660031901126103ff576001546040516001600160a01b039091168152602090f35b346103ff5760203660031901126103ff5760043560005260196020526020604060002054604051908152f35b346103ff5760603660031901126103ff57600435611eb881610410565b60243590611ec582610410565b611ecd614496565b15611b4957611edb33614508565b8015611f2b575b15611b2357611efc91611ef36129e4565b60443591612cf3565b80600052601160205260018060a01b0360056040600020015416906001600d556107476040519283928361101c565b506005546001600160a01b03163314611ee2565b346103ff5760003660031901126103ff576020611fa160018060a01b0360065416604051611f6c81611bf3565b601381527267657464656c656761746f72436f756e74282960681b8482015260405191611f9883611c29565b60008352614671565b604051908152f35b610100810192916000915b60088310611fc157505050565b600190825181526020809101920192019190611fb4565b346103ff576020806003193601126103ff57600435906040805191611ffc83611c44565b61010036843760005b6008811061201a578251806107478682611fa9565b60019085600052601283528360002081600052835283600020548160051b86015201612005565b346103ff5761204f36611a76565b612057614496565b15611b495761206533614508565b80156120ce575b15611b2357156120a257806000526019602052604060002054918201809211610c1e576000526019602052604060002055600080f35b806000526019602052604060002054918203918211610c1e576000526019602052604060002055600080f35b506005546001600160a01b0316331461206c565b346103ff5760203660031901126103ff57602061210960043561210481610410565b614508565b6040519015158152f35b346103ff5761212136610c4c565b6121296129e4565b6121338133612b14565b6121476104be60016104de610cea866111c8565b6121e35761216061129461215a846111c8565b54612ca7565b156121d15761217891612171612a07565b3390612e32565b612195612186601b5461061c565b60008052602052604060002090565b61219f81546129bc565b90556121a9613e95565b6121b76005610cf08361062c565b906121c26001600d55565b6107476040519283928361101c565b604051630771dfcd60e11b8152600490fd5b604051634eeadaa960e11b8152600490fd5b346103ff5760203660031901126103ff5761220e614496565b15611b495761221c33614508565b8015612257575b15611b2357612230614589565b601b5410612247575b610016600435601b54612a53565b61224f614589565b601b55612239565b506005546001600160a01b03163314612223565b346103ff5760203660031901126103ff57600435612287614496565b15611b49576005546001600160a01b03163303611b2357600090600460206122b26109618554610404565b6040516311be646b60e21b815292839182905afa80156108285783808481949382948391612335575b505af16122e66145c6565b501561074b577fcdcc745fe377b103b45fa0cec23ae3ef93d6fc6a84a01f0d18c40b354dd1d5d861232f61231e610961600b54610404565b604051938452929081906020820190565b0390a280f35b61234d915060203d8111610865576108578183611c60565b386122db565b346103ff5760203660031901126103ff5760043561237081610410565b612378614496565b15611b495761238633614508565b80156123f2575b15611b23576001600160a01b0390811680156123e057600080546001600160a01b03198116831782559092167fe939feee179e631422bcc8f6e6d7d908cb3f8af38f5372f17c77e15aea5c80ee8380a380f35b60405163e6c4247b60e01b8152600490fd5b506005546001600160a01b0316331461238d565b346103ff5760203660031901126103ff5760043560005260176020526020604060002054604051908152f35b346103ff5760203660031901126103ff5760043561244f81610410565b803b600061245c826130d6565b9261246a6040519485611c60565b82845260208401903c602d81511061074b57602a602091015160601c604051908152f35b60403660031901126103ff576004356124a56129e4565b80600052601160205260ff6001604060002001541615612501576124d06005610cf06124f69361062c565b60405163d3abb8a360e01b6020820152602480359082015290610e248260448101610e16565b506100166001600d55565b60405163bf22183960e01b8152600490fd5b346103ff576020806003193601126103ff5760043561253181610410565b604051632ca05d7160e21b81526001600160a01b039183908290600490829086165afa908115610828576000916125d6575b5016801561082d5781600491604051928380926304ec6d1760e11b82525afa90811561082857610747926000926125a9575b505060405190151581529081906020820190565b6125c89250803d106125cf575b6125c08183611c60565b810190613dfc565b3880612595565b503d6125b6565b6125ed9150833d8511610865576108578183611c60565b38612563565b346103ff5760403660031901126103ff57600435600052601460205260406000206024356000526020526020604060002054604051908152f35b346103ff5760c03660031901126103ff5760243560043561264d82610410565b606435906084359261265d6129e4565b61266e6104be60016104de8561062c565b612501576126836109616004610cf08561062c565b33036127d95761271493604091612698612a07565b6126a182613e11565b6126aa85613e3d565b6126be6109616109616005610cf08861062c565b601b5484516387acdff760e01b81526001600160a01b0390931660048401526044803560248501528301879052606483019390935260a480356084840152820192909252948591908290600090829060c4820190565b03925af1908115610828576105029360009081936127a6575b5061273f6112946005610cf08561062c565b1561278b575b80612751575b506137b9565b610e1661278491610e24612766600b54610404565b9160405193849163a9059cbb60e01b6020840152336024840161317d565b503861274b565b6127a16115c06005610cf060026113808761062c565b612745565b90506127ca91925060403d81116127d2575b6127c28183611c60565b810190613167565b91903861272d565b503d6127b8565b60405163e38a47bd60e01b8152600490fd5b346103ff576020806003193601126103ff57610747906004359061280e82610410565b6006546040516001600160a01b039384168382015282815292169161286e9061283681611bf3565b60405161284281611bf3565b6018815277697364656c656761746f724e6f646528616464726573732960401b848201526000946145f6565b9190806128a0575b61288e57505060405190151581529081906020820190565b6125c892508082518301019101613dfc565b5080825114612876565b346103ff5760003660031901126103ff576020612109614496565b346103ff5760203660031901126103ff5760043560005260166020526020604060002054604051908152f35b346103ff5760203660031901126103ff5760043560005260186020526020604060002054604051908152f35b346103ff576040806003193601126103ff5760043561293b81610410565b60018060a01b0316610747826000838152600e602052818120548152601560205281812054938152600e60205281812054815260146020528181206024358252602052205492519283928361160e565b346103ff5760003660031901126103ff576020611fa1614589565b634e487b7160e01b600052601160045260246000fd5b9060018201809211610c1e57565b91908201809211610c1e57565b546001600160a01b031690565b6002600d54146129f5576002600d55565b604051633ee5aeb560e01b8152600490fd5b612a0f614589565b601b5410612a27575b612a25600a601b54612a53565b565b612a2f614589565b601b55612a18565b600019810191908211610c1e57565b91908203918211610c1e57565b600091818352602092601284526040918282208280528552828220541580612ae9575b80612ae0575b612a88575b5050505050565b612aa490612a9e612a9886612a37565b91612a37565b90612a53565b805b6008811015612a8157600190612ac3612abe86612a37565b61061c565b818452865283832054612ad982610a8b8861061c565b5501612aa6565b50801515612a7c565b5060018411612a76565b908160209103126103ff5751610c7181610410565b6040513d6000823e3d90fd5b604051638da5cb5b60e01b81526020926001600160a01b03928316918481600481865afa918215610828578491600093612bc5575b5081169116036127d9578260049160405192838092633b9b795560e01b82525afa92831561082857600093612ba6575b5050612b8b6109618260005416610404565b911603612b9457565b6040516363ad7db960e11b8152600490fd5b612bbd929350803d10610865576108578183611c60565b903880612b79565b82919350612bdf90873d8911610865576108578183611c60565b9290612b49565b908160809103126103ff576040519060808201906001600160401b03821183831017611bd3576060916040528051835260208101516020840152604081015160408401520151606082015290565b6000906001600160a01b031680612c4c575050600090565b60806024916040519283809263da02133560e01b82528660048301525afa9182156108285791612c7b57505190565b612c9c915060803d8111612ca0575b612c948183611c60565b810190612be6565b5190565b503d612c8a565b6000908152601160205260409020600501546001600160a01b031690565b6000198114610c1e5760010190565b80546001600160a01b0319166001600160a01b03909216919091179055565b9190612d0660016104de610cea846111c8565b612e2057612d4d612d4793612d24612d1f601054612cc5565b601055565b601054948591612d3785610d798561063c565b82612d41866111c8565b556111c8565b54612fda565b612d6c6004612d5b8561062c565b0180546001600160a01b0319169055565b612d8d612d82612d7d600854610404565b612f1c565b6005610d908661062c565b612da16109616109616005610cf08761062c565b612daf610961600054610404565b90803b156103ff5760405163a93491f360e01b81526001600160a01b0392831660048201529190921660248201526044810184905260006064820181905260848201939093529190829081838160a481015b03925af1801561082857612e13575090565b80610f16610c7192611bc0565b604051634f710b4560e11b8152600490fd5b919091612e4660016104de610cea856111c8565b612e2057612d4792612e80612e8b92612e63612d1f601054612cc5565b601054958691612e7687610d798561063c565b82612d41886111c8565b6004610d908561062c565b612ea7612e9c612d7d600854610404565b6005610d908561062c565b612ebb6109616109616005610cf08661062c565b90612eca610961600054610404565b823b156103ff5760405163a93491f360e01b81526001600160a01b0391821660048201529116602482015260448101839052600160648201526000608482018190529091829081838160a48101612e01565b6e5af43d82803e903d91602b57fd5bf390763d602d80600a3d3981f3363d3d373d3d3d363d7300000062ffffff8260881c161760005260781b17602052603760096000f0906001600160a01b03821615612f7257565b60405163b06ebf3d60e01b8152600490fd5b634e487b7160e01b600052603260045260246000fd5b8054821015612fb25760005260206000200190600090565b612f84565b80549190600160401b831015611bd35782611436916001612a2595018155612f9a565b9190916000928084526020916011835260408086209560029483868901558460019861300f8a8201600160ff19825416179055565b558761301a8661064c565b83805282528489858520555b61303557505050505050509050565b61308261307c828b8a941461308b575b61304e8861064c565b818752855286862061306081546129bc565b905561306b8861065c565b61307581546129bc565b9055612cc5565b9561062c565b01549384613026565b61309a8960036114bc8b61062c565b613045565b908160209103126103ff575190565b91908260809103126103ff5781519160208101519160606040830151920151610c7181610410565b6001600160401b038111611bd357601f01601f191660200190565b6040516130fd81611c29565b60008152906000368137565b60005b83811061311c5750506000910152565b818101518382015260200161310c565b909160609260018060a01b031682526040602083015261315b8151809281604086015260208686019101613109565b601f01601f1916010190565b91908260409103126103ff576020825192015190565b6001600160a01b039091168152602081019190915260400190565b6001600160a01b0316806131a95750565b803b156103ff5760008091602460405180948193630711e58760e41b8352600160048401525af18015610828576131dd5750565b612a2590611bc0565b6001600160a01b0316806131f75750565b803b156103ff5760008091602460405180948193630711e58760e41b83528160048401525af18015610828576131dd5750565b805490811561325457600019918201916132448383612f9a565b909182549160031b1b1916905555565b634e487b7160e01b600052603160045260246000fd5b8015610c1e576000190190565b9061328a6132848361065c565b546129bc565b91600290816132988261062c565b0154906001938492835b6132b0575b50505050505050565b600f8085111580613582575b1561357c57859060056132d561096182610cf08761062c565b6132f7575b50506132e86132f09261062c565b015493612cc5565b92856132a2565b865b828111156133b0575050506132e86132f0928460001461336e5761333661331f8761064c565b61332889612a37565b600052602052604060002090565b5461334f61334789610a8b8561064c565b9182546129ca565b905561335a8161065c565b6133658b82546129ca565b90555b926132da565b61337a61331f8761064c565b5461339361338b89610a8b8561064c565b918254612a46565b905561339e8161065c565b6133a98b8254612a46565b9055613368565b909192506133c761096161096184610cf08a61062c565b6133d18883612a46565b6040805163da02133560e01b81526004808201939093526080939192918490829060249082905afa90811561082857899460009261355f575b5050858882511580613553575b6135445791613433610961610961879694610cf08b999761062c565b9060006020825192015193613481601b998a5488519a8b9889978896637b058ac160e01b8852870193909594919260809360a086019786526020860152604085015260608401521515910152565b03925af1918215610828576000918293613522575b505087156134e3575b8082116134bb575050506134b290612cc5565b908792916132f9565b6134c490612cc5565b6134d281610a8b855461061c565b6134dc81546129bc565b905561349f565b9190915b8281116134fa575050506134b290612cc5565b8061350c61351d92610a8b855461061c565b6135168154612a37565b905561326a565b6134e7565b61353c935080919250903d106127d2576127c28183611c60565b903880613496565b5050505050506134b290612cc5565b50602083015115613417565b6135759250803d10612ca057612c948183611c60565b388061340a565b506132a7565b508115156132bc565b908160609103126103ff578051916040602083015192015190565b9190600460206135c0610961610961610961600354610404565b60405163af0b21d360e01b815292839182905afa9081156108285760009161379a575b5060009081908283849185985b600f8a111580613791575b156137855761360e6005610cf08361062c565b6001600160a01b03811661363a575b50600261362c6136349261062c565b015499612cc5565b986135f0565b8a151590818061377c575b8015613774575b613657575b5061361d565b93909694919792600095869861370e575b601b5460405163208bffb160e21b8152600481018d905260006024820152604481018f905260648101919091526084810189905296151560a48801526020878060c48101038160006001600160a01b038b165af194851561082857613634998e61362c9860029a6136de996136ef575b50613a14565b939892975092949293909290613651565b6137079060203d602011610821576108128183611c60565b50386136d8565b604080516314f71a8760e11b8152979950909690816004816001600160a01b038a165afa9889156108285798613752575b5061374c8382888b6139cc565b95613668565b61376c91985060403d6040116127d2576127c28183611c60565b50963861373f565b50600061364c565b50891515613645565b50505050505050509050565b508015156135fb565b6137b3915060203d602011610821576108128183611c60565b386135e3565b929160049160206137d4610961610961610961600354610404565b60405163af0b21d360e01b815294859182905afa928315610828576000936139ab575b5060009182838491859386995b600f8b1115806139a2575b15613995576138226005610cf08361062c565b6001600160a01b03811661384e575b5060026138406138489261062c565b01549a612cc5565b99613804565b8b1515908c828061398c575b8015613983575b61386d575b5050613831565b94848a8d60009d979b969d9a959a99949990819b61390e575b601b5460405163208bffb160e21b815260048101949094526024840194909452604483019990995260648201929092526084810197909752151560a487015260208660c48160006001600160a01b038c165af194851561082857613840988f600299613848996138fa996136ef5750613a14565b97939492959196909695949992508c613866565b50604080516314f71a8760e11b8152949b509398509291508790506004816001600160a01b038b165afa801561082857898f978e928d918c9591613963575b508786829d61395b936139cc565b909192613886565b61397c915060403d6040116127d2576127c28183611c60565b503861394d565b50841515613861565b5089151561385a565b5050505050505050509050565b5080151561380f565b6139c591935060203d602011610821576108128183611c60565b91386137f7565b91929082109283918215946139e4575b505050501590565b159350909183613a09575b505081613a01575b50388080806139dc565b9050386139f7565b1015915038806139ef565b604080516314f71a8760e11b8152959992989697969592949391839060049082906001600160a01b03165afa908115610828576000928392613ae4575b50613a5b906129bc565b8083101580613adb575b15613a82578061306b613a7d92610a8b601b5461061c565b613a5b565b5090919293949596838311908115613ad2575b50613aa4575b50509493929190565b9550955050915050613ab583613b0c565b613ac9819593959492959693601b54612a46565b11913880613a9b565b90501538613a95565b50881515613a65565b613a5b9350613b0291925060403d81116127d2576127c28183611c60565b9290929190613a51565b60035460405163575e699560e11b8152600481019290925260a090829060249082906001600160a01b03165afa9081156108285760009182918391613b52575b50909192565b9291505060a0823d8211613b92575b81613b6e60a09383611c60565b81010312613b8f575060408101516080606083015192015190919038613b4c565b80fd5b3d9150613b61565b613ba2614496565b15611b4957613bb033614508565b8015613d16575b15611b2357613bc4612a07565b8015613d0457613bde610961610961610961600354610404565b916040518093634f5c5a2760e11b82528160046102a09687935afa93841561082857600094613cd5575b5050613c1e826000526016602052604060002090565b5460005b60078110613c31575050505050565b80613c3e60019285613da7565b51151580613cc1575b613c52575b01613c22565b613c9b613c6a613c628389613da7565b515185613dc9565b613c95613c846020613c7c868c613da7565b510151613db8565b613c8e8589613da7565b5190613dc9565b90613ddc565b613cbb613cb2876000526013602052604060002090565b613328846129bc565b55613c4c565b50613ccc8187613da7565b51511515613c47565b613cf5929450803d10613cfd575b613ced8183611c60565b810190613d2a565b913880613c08565b503d613ce3565b604051632acd142d60e21b8152600490fd5b506005546001600160a01b03163314613bb7565b6102a09081818403126103ff5782601f820112156103ff576040805193613d5085611c0e565b84938301928184116103ff57935b838510613d6d57505050505090565b6060858303126103ff578251606091613d8582611bd8565b8651825260209182880151838201528588015186820152815201940193613d5e565b906007811015612fb25760051b0190565b9081606402916064830403610c1e57565b81810292918115918404141715610c1e57565b8115613de6570490565b634e487b7160e01b600052601260045260246000fd5b908160209103126103ff5751610c7181611a6c565b601b54806000526016602052604060002054918201809211610c1e576000526016602052604060002055565b601b54806000526017602052604060002054918201809211610c1e576000526017602052604060002055565b601b54806000526018602052604060002054918201809211610c1e576000526018602052604060002055565b601b548060005260196020526040600020549060018201809211610c1e576000526019602052604060002055565b6001600160a01b039091169052565b6140d6610140612a2592613f0b613ee98251610404565b600280546001600160a01b0319166001600160a01b0392909216919091179055565b613f3d613f1b6020830151610404565b600380546001600160a01b0319166001600160a01b0392909216919091179055565b613f6f613f4d6040830151610404565b600480546001600160a01b0319166001600160a01b0392909216919091179055565b613fa1613f7f6060830151610404565b600580546001600160a01b0319166001600160a01b0392909216919091179055565b613fd3613fb16080830151610404565b600680546001600160a01b0319166001600160a01b0392909216919091179055565b614005613fe360a0830151610404565b600780546001600160a01b0319166001600160a01b0392909216919091179055565b61403761401560c0830151610404565b600880546001600160a01b0319166001600160a01b0392909216919091179055565b61406961404760e0830151610404565b600980546001600160a01b0319166001600160a01b0392909216919091179055565b61409c61407a610100830151610404565b600a80546001600160a01b0319166001600160a01b0392909216919091179055565b6140cf6140ad610120830151610404565b600b80546001600160a01b0319166001600160a01b0392909216919091179055565b0151610404565b600c80546001600160a01b0319166001600160a01b0392909216919091179055565b60006141076109618254610404565b60408051634bf9c0ad60e11b8152929190600490602080868481875afa958615610828578596614477575b50815163cfbffe5360e01b81529181838581885afa928315610828578693614458575b50805163ab6e844f60e01b815282818681895afa90811561082857879161443b575b508151630536340960e21b8152838187818a5afa90811561082857889161441e575b50825163d1f956b160e01b815291848388818b5afa9283156108285789936143ff575b508351631cc3bfab60e31b815293858589818c5afa948515610828578a956143e0575b50805163e09d394d60e01b81529686888a818d5afa9687156108285789988c986143c1575b5082516314ac1b5960e21b81529881908a90818e5afa988915610828578c996143a2575b5082519963013cf08b60e01b8b52818b8d818061424c868201906000602083019252565b03915afa9a8b15610828578d9b614383575b508351635e09dbe760e01b81529b828d8381845afa9c8d15610828578e9d614362575b508290855192838092635506ee0b60e11b82525afa9c8d15610828579c614343575b506142ac611c83565b9c6142b7908e613ec3565b8c01906142c391613ec3565b8a01906142cf91613ec3565b6142dc9060608a01613ec3565b6142e99060808901613ec3565b6142f69060a08801613ec3565b6143039060c08701613ec3565b6143109060e08601613ec3565b61431e906101008501613ec3565b61432c906101208401613ec3565b61433a906101408301613ec3565b612a2590613ed2565b8161435b929d508d3d10610865576108578183611c60565b9a386142a3565b83919d5061437c90823d8411610865576108578183611c60565b9c90614281565b61439b919b50823d8411610865576108578183611c60565b993861425e565b816143ba929a503d8b11610865576108578183611c60565b9738614228565b816143d99299503d8a11610865576108578183611c60565b9638614204565b6143f8919550863d8811610865576108578183611c60565b93386141df565b614417919350853d8711610865576108578183611c60565b91386141bc565b6144359150843d8611610865576108578183611c60565b38614199565b6144529150833d8511610865576108578183611c60565b38614177565b614470919350823d8411610865576108578183611c60565b9138614155565b8161448f9297503d8811610865576108578183611c60565b9438614132565b6002546040516144de916001600160a01b0316906144b381611bf3565b6008815267697353616665282960c01b6020820152604051916144d583611c29565b600083526145f6565b90806144fd575b1561074b5780602080610c7193518301019101613dfc565b5060208151146144e5565b61456260018060a01b03806002541660405191602094168483015283825261452f82611bf3565b6040519061453c82611bf3565b601582527469735365637572654261736528616464726573732960581b858301526145f6565b908061457f575b1561074b5781610c719282518301019101613dfc565b5081815114614569565b600354604051610c71916001600160a01b0316906145a681611bf3565b600681526569416765282960d01b602082015260405191611f9883611c29565b3d156145f1573d906145d7826130d6565b916145e56040519384611c60565b82523d6000602084013e565b606090565b803b1561465857600092839263ffffffff60e01b9060208151910120169061464860246040518093602082019586526146388151809260208686019101613109565b8101036004810184520182611c60565b51915afa6146546145c6565b9091565b50505060009060405161466a81611c29565b6000815290565b929161467f916000946145f6565b90806146a2575b61468d5750565b610c719192506020808251830101910161309f565b506020815114614686565b906020825192015163ffffffff60e01b9081811693600481106146cf57505050565b60040360031b82901b16169150565b6001600160a01b038116156123e057600080918351908260208601915af1906147056145c6565b911561470f575090565b80516000919060041161475a5761472691506146ad565b8151156147365750805190602001fd5b604051630870274d60e21b81526001600160e01b0319919091166004820152602490fd5b5061472656fea2646970667358221220ed9cd7169cb450d3553bb72849ca7456b1f673c3bafc5f85ee864f92142d2d4f64736f6c63430008140033","linkReferences":{}},"methodIdentifiers":{"dAOAssembly()":"14837455","daocore()":"14d8d024","nested741()":"45cff900","old741()":"5540c5ac","price()":"a035b1fe"},"id":38}