{"abi":[{"type":"constructor","inputs":[{"name":"_hex","type":"address","internalType":"address"}],"stateMutability":"nonpayable"},{"type":"fallback","stateMutability":"payable"},{"type":"receive","stateMutability":"payable"},{"type":"function","name":"Burn","inputs":[{"name":"amount","type":"uint256","internalType":"uint256"}],"outputs":[],"stateMutability":"nonpayable"},{"type":"function","name":"_delegatorCount","inputs":[],"outputs":[{"name":"","type":"uint256","internalType":"uint256"}],"stateMutability":"view"},{"type":"function","name":"_getImplementation","inputs":[{"name":"clone","type":"address","internalType":"address"}],"outputs":[{"name":"impl","type":"address","internalType":"address"}],"stateMutability":"view"},{"type":"function","name":"_isDelegatorNode","inputs":[{"name":"sender","type":"address","internalType":"address"}],"outputs":[{"name":"","type":"bool","internalType":"bool"}],"stateMutability":"view"},{"type":"function","name":"_isSafe","inputs":[],"outputs":[{"name":"","type":"bool","internalType":"bool"}],"stateMutability":"view"},{"type":"function","name":"_isSecureBase","inputs":[{"name":"sender","type":"address","internalType":"address"}],"outputs":[{"name":"","type":"bool","internalType":"bool"}],"stateMutability":"view"},{"type":"function","name":"_isSigner","inputs":[{"name":"sender","type":"address","internalType":"address"}],"outputs":[{"name":"","type":"bool","internalType":"bool"}],"stateMutability":"view"},{"type":"function","name":"getBalance","inputs":[],"outputs":[{"name":"","type":"uint256","internalType":"uint256"}],"stateMutability":"view"},{"type":"function","name":"isDaoSafe","inputs":[],"outputs":[{"name":"","type":"bool","internalType":"bool"}],"stateMutability":"view"},{"type":"function","name":"isNodeStopped","inputs":[{"name":"sender","type":"address","internalType":"address"}],"outputs":[{"name":"","type":"bool","internalType":"bool"}],"stateMutability":"view"},{"type":"function","name":"owner","inputs":[],"outputs":[{"name":"","type":"address","internalType":"address"}],"stateMutability":"view"},{"type":"function","name":"systemAge","inputs":[],"outputs":[{"name":"","type":"uint256","internalType":"uint256"}],"stateMutability":"view"},{"type":"function","name":"transfer","inputs":[{"name":"u","type":"address","internalType":"address"},{"name":"p","type":"uint256","internalType":"uint256"}],"outputs":[],"stateMutability":"payable"}],"bytecode":{"object":"0x60806040523462000037576200001e6200001862000110565b62000136565b620000286200003d565b6121db620002ab82396121db90f35b62000043565b60405190565b5f80fd5b601f801991011690565b634e487b7160e01b5f52604160045260245ffd5b90620000719062000047565b810190811060018060401b038211176200008a57604052565b62000051565b90620000a76200009f6200003d565b928362000065565b565b5f80fd5b60018060a01b031690565b620000c390620000ad565b90565b620000d181620000b8565b03620000d957565b5f80fd5b90505190620000ec82620000c6565b565b906020828203126200010a5762000107915f01620000dd565b90565b620000a9565b620001336200248680380380620001278162000090565b928339810190620000ee565b90565b620001419062000271565b565b90565b90565b620001626200015c620001689262000143565b62000146565b620000ad565b90565b620001769062000149565b90565b5f1b90565b906200019160018060a01b039162000179565b9181191691161790565b620001b4620001ae620001ba92620000ad565b62000146565b620000ad565b90565b620001c8906200019b565b90565b620001d690620001bd565b90565b90565b90620001f6620001f0620001fe92620001cb565b620001d9565b82546200017e565b9055565b6200020d906200019b565b90565b6200021b9062000202565b90565b62000229906200019b565b90565b62000237906200021e565b90565b62000245906200021e565b90565b90565b90620002656200025f6200026d926200023a565b62000248565b82546200017e565b9055565b620002a16200029b620002a892620002956200028d5f6200016b565b6001620001dc565b62000210565b6200022c565b5f6200024b565b56fe60806040526004361015610018575b361561001657005b005b6100225f356100f1565b806312065fe0146100ec5780631f185d16146100e757806351bfd3ae146100e25780635c1a494a146100dd5780638da5cb5b146100d8578063a1f7f539146100d3578063a9059cbb146100ce578063af484526146100c9578063b90306ad146100c4578063c54e44b0146100bf578063e01ad5fd146100ba578063e0a9bc2b146100b55763fdc10bc90361000e576104bc565b610487565b610452565b61041d565b6103ea565b610397565b61036d565b6102e3565b6102ae565b610257565b610222565b6101ed565b610139565b60e01c90565b60405190565b5f80fd5b5f80fd5b5f91031261010f57565b610101565b90565b61012090610114565b9052565b9190610137905f60208501940190610117565b565b3461016957610149366004610105565b61016561015461052c565b61015c6100f7565b91829182610124565b0390f35b6100fd565b60018060a01b031690565b6101829061016e565b90565b61018e81610179565b0361019557565b5f80fd5b905035906101a682610185565b565b906020828203126101c1576101be915f01610199565b90565b610101565b151590565b6101d4906101c6565b9052565b91906101eb905f602085019401906101cb565b565b3461021d576102196102086102033660046101a8565b6106a7565b6102106100f7565b918291826101d8565b0390f35b6100fd565b346102525761024e61023d6102383660046101a8565b61089a565b6102456100f7565b918291826101d8565b0390f35b6100fd565b3461028757610267366004610105565b610283610272610a50565b61027a6100f7565b918291826101d8565b0390f35b6100fd565b61029590610179565b9052565b91906102ac905f6020850194019061028c565b565b346102de576102be366004610105565b6102da6102c9610b4b565b6102d16100f7565b91829182610299565b0390f35b6100fd565b34610313576102f3366004610105565b61030f6102fe610c72565b6103066100f7565b91829182610124565b0390f35b6100fd565b61032181610114565b0361032857565b5f80fd5b9050359061033982610318565b565b91906040838203126103635780610357610360925f8601610199565b9360200161032c565b90565b610101565b5f0190565b61038161037b36600461033b565b90611280565b6103896100f7565b8061039381610368565b0390f35b346103c7576103c36103b26103ad3660046101a8565b6112d7565b6103ba6100f7565b918291826101d8565b0390f35b6100fd565b906020828203126103e5576103e2915f0161032c565b90565b610101565b34610418576104026103fd3660046103cc565b61150f565b61040a6100f7565b8061041481610368565b0390f35b6100fd565b3461044d576104496104386104333660046101a8565b611639565b6104406100f7565b91829182610299565b0390f35b6100fd565b346104825761047e61046d6104683660046101a8565b61171f565b6104756100f7565b918291826101d8565b0390f35b6100fd565b346104b757610497366004610105565b6104b36104a2611ab4565b6104aa6100f7565b918291826101d8565b0390f35b6100fd565b346104ec576104cc366004610105565b6104e86104d7611ba6565b6104df6100f7565b91829182610124565b0390f35b6100fd565b5f90565b90565b61050c6105076105119261016e565b6104f5565b61016e565b90565b61051d906104f8565b90565b61052990610514565b90565b6105346104f1565b5061053e30610520565b3190565b5f90565b5f1c90565b60018060a01b031690565b61056261056791610546565b61054b565b90565b6105749054610556565b90565b61058090610514565b90565b601f801991011690565b634e487b7160e01b5f52604160045260245ffd5b906105ab90610583565b810190811067ffffffffffffffff8211176105c557604052565b61058d565b60e01b90565b905051906105dd82610185565b565b906020828203126105f8576105f5915f016105d0565b90565b610101565b6106056100f7565b3d5f823e3d90fd5b906106206106196100f7565b92836105a1565b565b67ffffffffffffffff81116106405761063c602091610583565b0190565b61058d565b9061065761065283610622565b61060d565b918252565b5f7f69735369676e6572286164647265737329000000000000000000000000000000910152565b61068d6011610645565b9061069a6020830161065c565b565b6106a4610683565b90565b6106af610542565b506106dc60206106c66106c15f61056a565b610577565b6397f3815a906106d46100f7565b9384926105ca565b825281806106ec60048201610368565b03915afa80156107725761073b9261071e925f9261073e575b5061072d906107126100f7565b93849160208301610299565b602082018103825203836105a1565b61073561069c565b90611cad565b90565b61072d9192506107649060203d811161076b575b61075c81836105a1565b8101906105df565b9190610705565b503d610752565b6105fd565b5f7f55736572546f496e737428616464726573732900000000000000000000000000910152565b6107a86013610645565b906107b560208301610777565b565b6107bf61079e565b90565b90565b6107d96107d46107de926107c2565b6104f5565b61016e565b90565b6107ea906107c5565b90565b5f7f697353757370656e642829000000000000000000000000000000000000000000910152565b61081e600b610645565b9061082b602083016107ed565b565b610835610814565b90565b6108415f610645565b90565b61084c610838565b90565b5f7f69734c6f636b2829000000000000000000000000000000000000000000000000910152565b6108806008610645565b9061088d6020830161084f565b565b610897610876565b90565b6108a2610542565b506108cf60206108b96108b45f61056a565b610577565b63ab6e844f906108c76100f7565b9384926105ca565b825281806108df60048201610368565b03915afa8015610a005761092e92610911925f926109cc575b50610920906109056100f7565b93849160208301610299565b602082018103825203836105a1565b6109286107b7565b90611d67565b8061094961094361093e5f6107e1565b610179565b91610179565b141561097f6109688361095a61082d565b610962610844565b91611cad565b9261097161088f565b610979610844565b91611cad565b61098982156101c6565b928315610997575b50505090565b9091925090816109c4575b5090816109b3575b505f8080610991565b6109be9150156101c6565b5f6109aa565b90505f6109a2565b6109209192506109f29060203d81116109f9575b6109ea81836105a1565b8101906105df565b91906108f8565b503d6109e0565b6105fd565b5f7f64616f7361666561646472657373286164647265737329000000000000000000910152565b610a366017610645565b90610a4360208301610a05565b565b610a4d610a2c565b90565b610a58610542565b50610a856020610a6f610a6a5f61056a565b610577565b634162169f90610a7d6100f7565b9384926105ca565b82528180610a9560048201610368565b03915afa908115610b1657610ae591610ac8915f91610ae8575b50610ad733610abc6100f7565b93849160208301610299565b602082018103825203836105a1565b610adf610a45565b90611cad565b90565b610b09915060203d8111610b0f575b610b0181836105a1565b8101906105df565b5f610aaf565b503d610af7565b6105fd565b5f90565b60018060a01b031690565b610b36610b3b91610546565b610b1f565b90565b610b489054610b2a565b90565b610b53610b1b565b50610b5e6001610b3e565b90565b5f7f72616e6b666f7244414f28290000000000000000000000000000000000000000910152565b610b92600c610645565b90610b9f60208301610b61565b565b610ba9610b88565b90565b916020610bcd929493610bc660408201965f830190610117565b0190610117565b565b5f7f67657472616e6b636f756e742875696e743235362c75696e7432353629000000910152565b610c00601d610645565b90610c0d60208301610bcf565b565b610c17610bf6565b90565b90565b610c31610c2c610c3692610c1a565b6104f5565b610114565b90565b634e487b7160e01b5f52601160045260245ffd5b610c5c610c6291939293610114565b92610114565b8201809211610c6d57565b610c39565b610c7a6104f1565b50610ca76020610c91610c8c5f61056a565b610577565b63cfbffe5390610c9f6100f7565b9384926105ca565b82528180610cb760048201610368565b03915afa8015610ded57610ce3915f91610dbf575b50610cd5610ba1565b610cdd610844565b91611e0a565b610d0f6020610cf9610cf45f61056a565b610577565b63ab6e844f90610d076100f7565b9384926105ca565b82528180610d1f60048201610368565b03915afa918215610dba57610d8992610d79925f91610d8c575b50610d6b610d45611e77565b610d5c610d506100f7565b94859260208401610bac565b602082018103825203836105a1565b610d73610c0f565b90611e0a565b610d836003610c1d565b90610c4d565b90565b610dad915060203d8111610db3575b610da581836105a1565b8101906105df565b5f610d39565b503d610d9b565b6105fd565b610de0915060203d8111610de6575b610dd881836105a1565b8101906105df565b5f610ccc565b503d610dce565b6105fd565b60209181520190565b5f7f6f776e2e64656661756c742e73656e6465720000000000000000000000000000910152565b610e2f6012602092610df2565b610e3881610dfb565b0190565b610e519060208101905f818303910152610e22565b90565b15610e5b57565b610e636100f7565b62461bcd60e51b815280610e7960048201610e3c565b0390fd5b90610eac91610ea781610ea0610e9a610e955f6107e1565b610179565b91610179565b1415610e54565b610fb2565b565b5f7f6f776e2e696e76616c69642e6973536166650000000000000000000000000000910152565b610ee26012602092610df2565b610eeb81610eae565b0190565b610f049060208101905f818303910152610ed5565b90565b15610f0e57565b610f166100f7565b62461bcd60e51b815280610f2c60048201610eef565b0390fd5b5f7f6f776e2e6e6f6e617574682e44414f6f72536563757265626173650000000000910152565b610f64601b602092610df2565b610f6d81610f30565b0190565b610f869060208101905f818303910152610f57565b90565b15610f9057565b610f986100f7565b62461bcd60e51b815280610fae60048201610f71565b0390fd5b90610fc3610fbe611ab4565b610f07565b610fcc336112d7565b918215610fe7575b610fe0610fe593610f89565b61111c565b565b61101592506020610fff610ffa5f61056a565b610577565b634162169f9061100d6100f7565b9586926105ca565b8252818061102560048201610368565b03915afa92831561108957610fe593610fe0915f9161105b575b5061105261104c33610179565b91610179565b14935050610fd4565b61107c915060203d8111611082575b61107481836105a1565b8101906105df565b5f61103f565b503d61106a565b6105fd565b61109790610514565b90565b90565b6110b16110ac6110b69261109a565b6104f5565b610114565b90565b9160206110da9294936110d360408201965f83019061028c565b0190610117565b565b6110f06110eb6110f5926107c2565b6104f5565b610114565b90565b611101906104f8565b90565b61110d906110f8565b90565b61111990610514565b90565b6111253061108e565b3161113861113284610114565b91610114565b10611172575b5f80809361115461114f8395611104565b611110565b828215611169575bf11561116457565b6105fd565b506108fc61115c565b61119f9060206111896111845f61056a565b610577565b635e09dbe7906111976100f7565b9485926105ca565b825281806111af60048201610368565b03915afa90811561127b575f9361115461114f86959361123f87968796879161124d575b506111dd3061108e565b6112306111fc886111f668056bc75e2d6310000061109d565b90610c4d565b916112216112086100f7565b93849260046020850163a9059cbb60e01b8152016110b9565b602082018103825203826105a1565b611239886110dc565b91611f94565b50955050509350505061113e565b61126e915060203d8111611274575b61126681836105a1565b8101906105df565b5f6111d3565b503d61125c565b6105fd565b9061128a91610e7d565b565b5f7f6973536563757265426173652861646472657373290000000000000000000000910152565b6112bd6015610645565b906112ca6020830161128c565b565b6112d46112b3565b90565b6112df610542565b5061130c60206112f66112f15f61056a565b610577565b6397f3815a906113046100f7565b9384926105ca565b8252818061131c60048201610368565b03915afa80156113a25761136b9261134e925f9261136e575b5061135d906113426100f7565b93849160208301610299565b602082018103825203836105a1565b6113656112cc565b90611cad565b90565b61135d9192506113949060203d811161139b575b61138c81836105a1565b8101906105df565b9190611335565b503d611382565b6105fd565b5f7f6f776e2e6e6f6e617574682e44414f0000000000000000000000000000000000910152565b6113db600f602092610df2565b6113e4816113a7565b0190565b6113fd9060208101905f8183039101526113ce565b90565b1561140757565b61140f6100f7565b62461bcd60e51b815280611425600482016113e8565b0390fd5b61145690602061144061143b5f61056a565b610577565b634162169f9061144e6100f7565b9485926105ca565b8252818061146660048201610368565b03915afa9182156114ce5761149e92611499915f916114a0575b5061149361148d33610179565b91610179565b14611400565b6114d3565b565b6114c1915060203d81116114c7575b6114b981836105a1565b8101906105df565b5f611480565b503d6114af565b6105fd565b5f808080936114f16114ec6114e7846107e1565b611104565b611110565b828215611506575bf11561150157565b6105fd565b506108fc6114f9565b61151890611429565b565b67ffffffffffffffff811161153857611534602091610583565b0190565b61058d565b9061154f61154a8361151a565b61060d565b918252565b90813b5f6115618261153d565b9360208501903c565b5190565b90565b61158561158061158a9261156e565b6104f5565b610114565b90565b5f7f4e6f742061206d696e696d616c2070726f787900000000000000000000000000910152565b6115c16013602092610df2565b6115ca8161158d565b0190565b6115e39060208101905f8183039101526115b4565b90565b156115ed57565b6115f56100f7565b62461bcd60e51b81528061160b600482016115ce565b0390fd5b5f90565b60601c90565b61162561162a91611613565b6104f8565b90565b61163690611619565b90565b602a6116506116869261164a610b1b565b50611554565b61167661165c8261156a565b61166f611669602d611571565b91610114565b10156115e6565b61167e61160f565b50015161162d565b90565b5f7f67657445666665637469766552616e6b28616464726573732900000000000000910152565b6116ba6019610645565b906116c760208301611689565b565b6116d16116b0565b90565b5f7f697353746f702861646472657373290000000000000000000000000000000000910152565b611705600f610645565b90611712602083016116d4565b565b61171c6116fb565b90565b611727610542565b50611754602061173e6117395f61056a565b610577565b63cfbffe539061174c6100f7565b9384926105ca565b8252818061176460048201610368565b03915afa8015611a6457611790915f91611a36575b50611782610ba1565b61178a610844565b91611e0a565b906117bd60206117a76117a25f61056a565b610577565b63ab6e844f906117b56100f7565b9384926105ca565b825281806117cd60048201610368565b03915afa8015611a315761181c926117ff925f926119fd575b5061180e906117f36100f7565b93849160208301610299565b602082018103825203836105a1565b6118166107b7565b90611d67565b90611849602061183361182e5f61056a565b610577565b63ab6e844f906118416100f7565b9384926105ca565b8252818061185960048201610368565b03915afa9081156119f8576118a99161188c915f916119ca575b5061189b856118806100f7565b93849160208301610299565b602082018103825203836105a1565b6118a36116c9565b90611e0a565b906118d660206118c06118bb5f61056a565b610577565b63ab6e844f906118ce6100f7565b9384926105ca565b825281806118e660048201610368565b03915afa9081156119c55761193691611919915f91611997575b506119288661190d6100f7565b93849160208301610299565b602082018103825203836105a1565b611930611714565b90611cad565b9261195161194b6119465f6107e1565b610179565b91610179565b14159182611978575b50509081611967575b5090565b6119729150156101c6565b5f611963565b61198e9192506119889092610114565b91610114565b10155f8061195a565b6119b8915060203d81116119be575b6119b081836105a1565b8101906105df565b5f611900565b503d6119a6565b6105fd565b6119eb915060203d81116119f1575b6119e381836105a1565b8101906105df565b5f611873565b503d6119d9565b6105fd565b61180e919250611a239060203d8111611a2a575b611a1b81836105a1565b8101906105df565b91906117e6565b503d611a11565b6105fd565b611a57915060203d8111611a5d575b611a4f81836105a1565b8101906105df565b5f611779565b503d611a45565b6105fd565b5f7f6973536166652829000000000000000000000000000000000000000000000000910152565b611a9a6008610645565b90611aa760208301611a69565b565b611ab1611a90565b90565b611abc610542565b50611ae96020611ad3611ace5f61056a565b610577565b6397f3815a90611ae16100f7565b9384926105ca565b82528180611af960048201610368565b03915afa8015611b5657611b25915f91611b28575b50611b17611aa9565b611b1f610844565b91611cad565b90565b611b49915060203d8111611b4f575b611b4181836105a1565b8101906105df565b5f611b0e565b503d611b37565b6105fd565b5f7f6167652829000000000000000000000000000000000000000000000000000000910152565b611b8c6005610645565b90611b9960208301611b5b565b565b611ba3611b82565b90565b611bae6104f1565b50611bdb6020611bc5611bc05f61056a565b610577565b63447aa30490611bd36100f7565b9384926105ca565b82528180611beb60048201610368565b03915afa8015611c4857611c17915f91611c1a575b50611c09611b9b565b611c11610844565b91611e0a565b90565b611c3b915060203d8111611c41575b611c3381836105a1565b8101906105df565b5f611c00565b503d611c29565b6105fd565b90565b611c64611c5f611c6992611c4d565b6104f5565b610114565b90565b611c75816101c6565b03611c7c57565b5f80fd5b90505190611c8d82611c6c565b565b90602082820312611ca857611ca5915f01611c80565b90565b610101565b929190611cc591611cbc610542565b949190916120c0565b9080611cf7575b611cd4575b50565b611cf09192506020611ce58261156a565b818301019101611c8f565b905f611cd1565b50611d018161156a565b611d14611d0e6020611c50565b91610114565b14611ccc565b611d239061016e565b90565b611d2f81611d1a565b03611d3657565b5f80fd5b90505190611d4782611d26565b565b90602082820312611d6257611d5f915f01611d3a565b90565b610101565b929190611d7f91611d76610b1b565b949190916120c0565b9080611dba575b611d8e575b50565b611db3919250611dae906020611da38261156a565b818301019101611d49565b611110565b905f611d8b565b50611dc48161156a565b611dd7611dd16020611c50565b91610114565b14611d86565b90505190611dea82610318565b565b90602082820312611e0557611e02915f01611ddd565b90565b610101565b929190611e2291611e196104f1565b949190916120c0565b9080611e54575b611e31575b50565b611e4d9192506020611e428261156a565b818301019101611dec565b905f611e2e565b50611e5e8161156a565b611e71611e6b6020611c50565b91610114565b14611e29565b611e7f6104f1565b50611e88611ba6565b90565b606090565b5f7f6f776e2e696e76616c69642e7461726765740000000000000000000000000000910152565b611ec46012602092610df2565b611ecd81611e90565b0190565b611ee69060208101905f818303910152611eb7565b90565b15611ef057565b611ef86100f7565b62461bcd60e51b815280611f0e60048201611ed1565b0390fd5b3d5f14611f2d57611f223d61153d565b903d5f602084013e5b565b611f35611e8b565b90611f2b565b5f7f6f776e2e7461726765742e63616c6c2e6661696c656400000000000000000000910152565b611f6f6016602092610df2565b611f7881611f3b565b0190565b611f919060208101905f818303910152611f62565b90565b915f92918392611fa2611e8b565b50611fc881611fc1611fbb611fb6886107e1565b610179565b91610179565b1415611ee9565b91602082019151925af1611fe4611fdd611f12565b91156101c6565b611feb5790565b611ff48161156a565b6120066120005f6110dc565b91610114565b115f1461201557805190602001fd5b61201d6100f7565b62461bcd60e51b81528061203360048201611f7c565b0390fd5b90565b60200190565b63ffffffff60e01b1690565b61205590612040565b90565b905090565b5f5b83811061206f575050905f910152565b80602091830151818501520161205f565b6120a561209c926020926120938161156a565b94858093612058565b9384910161205d565b0190565b6120b7906120bd9392612080565b90612080565b90565b906120c9610542565b506120d2611e8b565b50813b6120e76120e15f6110dc565b91610114565b146121955760046121805f9461215986959461212f8761212961211161210b6100f7565b94612037565b61212361211d8261156a565b9161203a565b2061204c565b926105a1565b61214a61213a6100f7565b9586926020840190815201610368565b602082018103825203846105a1565b916121716121656100f7565b938492602084016120a9565b602082018103825203826105a1565b602081019051915afa612191611f12565b9091565b5050505f906121a2610844565b9056fea264697066735822122084322496fb2836185fb0dccf3fb27e7fecd2ec239392de1a395156f7aa6ca18c64736f6c63430008180033","linkReferences":{}},"methodIdentifiers":{"Burn(uint256)":"b90306ad","_delegatorCount()":"a1f7f539","_getImplementation(address)":"c54e44b0","_isDelegatorNode(address)":"e01ad5fd","_isSafe()":"e0a9bc2b","_isSecureBase(address)":"af484526","_isSigner(address)":"1f185d16","getBalance()":"12065fe0","isDaoSafe()":"5c1a494a","isNodeStopped(address)":"51bfd3ae","owner()":"8da5cb5b","systemAge()":"fdc10bc9","transfer(address,uint256)":"a9059cbb"},"id":46}