{"abi":[{"type":"constructor","inputs":[{"name":"v1","type":"address","internalType":"address"},{"name":"v2","type":"address","internalType":"address"},{"name":"v3","type":"address","internalType":"address"}],"stateMutability":"nonpayable"},{"type":"function","name":"addRemOwner","inputs":[{"name":"own","type":"address","internalType":"address"},{"name":"_action","type":"bool","internalType":"bool"},{"name":"isApproved","type":"bool","internalType":"bool"},{"name":"_type","type":"bool","internalType":"bool"}],"outputs":[],"stateMutability":"nonpayable"},{"type":"function","name":"approveByV1","inputs":[{"name":"flag","type":"bool","internalType":"bool"}],"outputs":[],"stateMutability":"nonpayable"},{"type":"function","name":"approveByV2","inputs":[{"name":"flag","type":"bool","internalType":"bool"}],"outputs":[],"stateMutability":"nonpayable"},{"type":"function","name":"approveByV3","inputs":[{"name":"flag","type":"bool","internalType":"bool"}],"outputs":[],"stateMutability":"nonpayable"},{"type":"function","name":"isSafe","inputs":[],"outputs":[{"name":"","type":"bool","internalType":"bool"}],"stateMutability":"view"},{"type":"function","name":"isSafeAccountOwner","inputs":[{"name":"o","type":"address","internalType":"address"}],"outputs":[{"name":"","type":"bool","internalType":"bool"}],"stateMutability":"view"},{"type":"function","name":"isSafeOwner","inputs":[{"name":"o","type":"address","internalType":"address"}],"outputs":[{"name":"","type":"bool","internalType":"bool"}],"stateMutability":"view"},{"type":"function","name":"isSigner","inputs":[{"name":"o","type":"address","internalType":"address"}],"outputs":[{"name":"","type":"bool","internalType":"bool"}],"stateMutability":"view"},{"type":"function","name":"req","inputs":[],"outputs":[{"name":"newowner","type":"address","internalType":"address"},{"name":"isReq","type":"bool","internalType":"bool"},{"name":"isVer1","type":"bool","internalType":"bool"},{"name":"isVer2","type":"bool","internalType":"bool"},{"name":"isVer3","type":"bool","internalType":"bool"},{"name":"action","type":"bool","internalType":"bool"},{"name":"_type","type":"bool","internalType":"bool"}],"stateMutability":"view"},{"type":"function","name":"setRequest","inputs":[{"name":"own","type":"address","internalType":"address"},{"name":"_action","type":"bool","internalType":"bool"},{"name":"_type","type":"bool","internalType":"bool"}],"outputs":[],"stateMutability":"nonpayable"},{"type":"function","name":"signerInx","inputs":[{"name":"o","type":"address","internalType":"address"}],"outputs":[{"name":"","type":"uint256","internalType":"uint256"}],"stateMutability":"view"}],"bytecode":{"object":"0x60806040526002805462ffffff60a01b1916905534801561001f57600080fd5b50604051610cd5380380610cd583398101604081905261003e916100f8565b600080546001600160a01b03199081166001600160a01b0395861690811783556001805483169587169590951785556002805490921693861693909317815591815260036020526040808220805460ff1990811686179091558454861683528183208054821686179055925490941681528381208054831684179055338152838120805483168417905530815292909220805490921617905561013b565b80516001600160a01b03811681146100f357600080fd5b919050565b60008060006060848603121561010d57600080fd5b610116846100dc565b9250610124602085016100dc565b9150610132604085016100dc565b90509250925092565b610b8b8061014a6000396000f3fe608060405234801561001057600080fd5b50600436106100a95760003560e01c80637df73e27116100715780637df73e27146101c75780637f2f1a3e146101da578063b593a44114610206578063cf3d82cc14610219578063d5ff5d371461022c578063d7ca6a1c1461023f57600080fd5b80630d43aaf2146100ae57806319c064291461014d5780631d84be441461018957806369463ba1146101aa5780636a276f9d146101bf575b600080fd5b6005546100ff906001600160a01b0381169060ff600160a01b8204811691600160a81b8104821691600160b01b8204811691600160b81b8104821691600160c01b8204811691600160c81b90041687565b604080516001600160a01b03909816885295151560208801529315159486019490945290151560608501521515608084015290151560a0830152151560c082015260e0015b60405180910390f35b61017961015b366004610a4a565b6001600160a01b031660009081526003602052604090205460ff1690565b6040519015158152602001610144565b61019c610197366004610a4a565b610252565b604051908152602001610144565b6101bd6101b8366004610a7c565b6102b2565b005b6101796102f3565b6101796101d5366004610a4a565b610332565b6101796101e8366004610a4a565b6001600160a01b031660009081526004602052604090205460ff1690565b6101bd610214366004610a7c565b61037a565b6101bd610227366004610a97565b6103bb565b6101bd61023a366004610a7c565b61050f565b6101bd61024d366004610ada565b610550565b600080546001600160a01b0380841691160361027057506001919050565b6001546001600160a01b0380841691160361028d57506002919050565b6002546001600160a01b038084169116036102aa57506003919050565b506000919050565b33806102bd57600080fd5b6000546001600160a01b031633146102d457600080fd5b5060028054911515600160a01b0260ff60a01b19909216919091179055565b600254600090600160a01b900460ff1680156103185750600254600160a81b900460ff165b801561032d5750600254600160b01b900460ff165b905090565b600080546001600160a01b038381169116148061035c57506001546001600160a01b038381169116145b8061037457506002546001600160a01b038381169116145b92915050565b338061038557600080fd5b6002546001600160a01b0316331461039c57600080fd5b5060028054911515600160b01b0260ff60b01b19909216919091179055565b60005433906001600160a01b03168114806103e357506001546001600160a01b038281169116145b806103fb57506002546001600160a01b038281169116145b61040457600080fd5b600061040f33610252565b90506104196109f2565b8160010361042957600160408201525b8160020361043957600160608201525b8160030361044957600160808201525b6001602082015293151560a085018190526001600160a01b0390951680855292151560c085018190526005805460408701516060880151608090980151600160c81b90940260ff60c81b19600160c01b909a0260ff60c01b19951515600160b81b029590951661ffff60b81b19991515600160b01b0260ff60b01b19931515600160a81b029390931661ffff60a81b196001600160a81b0319909516909917600160a01b1793909316979097171796909616959095171794909416919091179091555050565b338061051a57600080fd5b6001546001600160a01b0316331461053157600080fd5b5060028054911515600160a81b0260ff60a81b19909216919091179055565b60005433906001600160a01b031681148061057857506001546001600160a01b038281169116145b8061059057506002546001600160a01b038281169116145b61059957600080fd5b82156109275760006105aa33610252565b600554909150600160a01b900460ff1680156105c65750806001145b80156105df57506005546001600160a01b038781169116145b80156105fb575060055460ff600160c01b909104161515851515145b8015610617575060055460ff600160c81b909104161515831515145b15610630576005805460ff60a81b1916600160a81b1790555b600554600160a01b900460ff1680156106495750806002145b801561066257506005546001600160a01b038781169116145b801561067e575060055460ff600160c01b909104161515851515145b801561069a575060055460ff600160c81b909104161515831515145b156106b3576005805460ff60b01b1916600160b01b1790555b600554600160a01b900460ff1680156106cc5750806003145b80156106e557506005546001600160a01b038781169116145b8015610701575060055460ff600160c01b909104161515851515145b801561071d575060055460ff600160c81b909104161515831515145b15610736576005805460ff60b81b1916600160b81b1790555b600554600090600160a81b900460ff1615610759578061075581610b2e565b9150505b600554600160b01b900460ff1615610779578061077581610b2e565b9150505b600554600160b81b900460ff1615610799578061079581610b2e565b9150505b600554600160a01b900460ff1680156107b25750806002145b80156107cb57506005546001600160a01b038881169116145b80156107e7575060055460ff600160c01b909104161515861515145b8015610803575060055460ff600160c81b909104161515841515145b15610920578315610837576001600160a01b0387166000908152600460205260409020805460ff191687151517905561085c565b6001600160a01b0387166000908152600360205260409020805460ff19168715151790555b6108646109f2565b805160058054602084015160408501516060860151608087015160a088015160c0909801516001600160a01b039097166001600160a81b031990951694909417600160a01b931515939093029290921761ffff60a81b1916600160a81b9115159190910260ff60b01b191617600160b01b911515919091021761ffff60b81b1916600160b81b9115159190910260ff60c01b191617600160c01b931515939093029290921760ff60c81b1916600160c81b911515919091021790555b50506109eb565b61092f6109f2565b805160058054602084015160408501516060860151608087015160a088015160c0909801516001600160a01b039097166001600160a81b031990951694909417600160a01b931515939093029290921761ffff60a81b1916600160a81b9115159190910260ff60b01b191617600160b01b911515919091021761ffff60b81b1916600160b81b9115159190910260ff60c01b191617600160c01b931515939093029290921760ff60c81b1916600160c81b911515919091021790555b5050505050565b6040805160e081018252600080825260208201819052918101829052606081018290526080810182905260a0810182905260c081019190915290565b80356001600160a01b0381168114610a4557600080fd5b919050565b600060208284031215610a5c57600080fd5b610a6582610a2e565b9392505050565b80358015158114610a4557600080fd5b600060208284031215610a8e57600080fd5b610a6582610a6c565b600080600060608486031215610aac57600080fd5b610ab584610a2e565b9250610ac360208501610a6c565b9150610ad160408501610a6c565b90509250925092565b60008060008060808587031215610af057600080fd5b610af985610a2e565b9350610b0760208601610a6c565b9250610b1560408601610a6c565b9150610b2360608601610a6c565b905092959194509250565b600060018201610b4e57634e487b7160e01b600052601160045260246000fd5b506001019056fea26469706673582212204c17ee520fb2d52756d694d056ddd0127e91b34ef615cf1a2fa4692c8506813164736f6c63430008140033","linkReferences":{}},"methodIdentifiers":{"addRemOwner(address,bool,bool,bool)":"d7ca6a1c","approveByV1(bool)":"69463ba1","approveByV2(bool)":"d5ff5d37","approveByV3(bool)":"b593a441","isSafe()":"6a276f9d","isSafeAccountOwner(address)":"7f2f1a3e","isSafeOwner(address)":"19c06429","isSigner(address)":"7df73e27","req()":"0d43aaf2","setRequest(address,bool,bool)":"cf3d82cc","signerInx(address)":"1d84be44"},"id":0}