{"abi":[{"type":"constructor","inputs":[{"name":"_hex","type":"address","internalType":"address"}],"stateMutability":"nonpayable"},{"type":"fallback","stateMutability":"payable"},{"type":"receive","stateMutability":"payable"},{"type":"function","name":"Burn","inputs":[{"name":"amount","type":"uint256","internalType":"uint256"}],"outputs":[],"stateMutability":"nonpayable"},{"type":"function","name":"BurnCoin","inputs":[{"name":"_dollar","type":"uint256","internalType":"uint256"},{"name":"maxinterwal","type":"uint256","internalType":"uint256"}],"outputs":[],"stateMutability":"payable"},{"type":"function","name":"LSB","inputs":[{"name":"","type":"uint256","internalType":"uint256"},{"name":"","type":"uint256","internalType":"uint256"}],"outputs":[{"name":"","type":"int256","internalType":"int256"}],"stateMutability":"view"},{"type":"function","name":"_delegatorCount","inputs":[],"outputs":[{"name":"","type":"uint256","internalType":"uint256"}],"stateMutability":"view"},{"type":"function","name":"_getImplementation","inputs":[{"name":"clone","type":"address","internalType":"address"}],"outputs":[{"name":"impl","type":"address","internalType":"address"}],"stateMutability":"view"},{"type":"function","name":"_isDelegatorNode","inputs":[{"name":"sender","type":"address","internalType":"address"}],"outputs":[{"name":"","type":"bool","internalType":"bool"}],"stateMutability":"view"},{"type":"function","name":"_isSafe","inputs":[],"outputs":[{"name":"","type":"bool","internalType":"bool"}],"stateMutability":"view"},{"type":"function","name":"_isSecureBase","inputs":[{"name":"sender","type":"address","internalType":"address"}],"outputs":[{"name":"","type":"bool","internalType":"bool"}],"stateMutability":"view"},{"type":"function","name":"_isSigner","inputs":[{"name":"sender","type":"address","internalType":"address"}],"outputs":[{"name":"","type":"bool","internalType":"bool"}],"stateMutability":"view"},{"type":"function","name":"_txnType7","inputs":[{"name":"_maxint","type":"uint256","internalType":"uint256"},{"name":"_ag","type":"uint256","internalType":"uint256"}],"outputs":[{"name":"CALC_INC","type":"uint256[9]","internalType":"uint256[9]"}],"stateMutability":"payable"},{"type":"function","name":"_txnType_1_0","inputs":[{"name":"paramAdd","type":"address","internalType":"address"},{"name":"_id_maxint","type":"uint256","internalType":"uint256"},{"name":"_qty","type":"uint256","internalType":"uint256"},{"name":"_msgValue","type":"uint256","internalType":"uint256"},{"name":"_type","type":"uint256","internalType":"uint256"},{"name":"_ag","type":"uint256","internalType":"uint256"}],"outputs":[{"name":"_tvl","type":"uint256","internalType":"uint256"},{"name":"_amt","type":"uint256","internalType":"uint256"}],"stateMutability":"payable"},{"type":"function","name":"activedirectsCount","inputs":[],"outputs":[{"name":"","type":"uint256","internalType":"uint256"}],"stateMutability":"view"},{"type":"function","name":"addLevelnGetRank","inputs":[{"name":"_amount","type":"uint256","internalType":"uint256"},{"name":"_qty","type":"uint256","internalType":"uint256"},{"name":"_level","type":"uint256","internalType":"uint256"},{"name":"_epochAge","type":"uint256","internalType":"uint256"},{"name":"_free","type":"uint256","internalType":"uint256"},{"name":"_tobeSkipped","type":"bool","internalType":"bool"}],"outputs":[{"name":"currentrnk","type":"uint256","internalType":"uint256"}],"stateMutability":"nonpayable"},{"type":"function","name":"bonus","inputs":[],"outputs":[{"name":"","type":"uint256","internalType":"uint256"}],"stateMutability":"view"},{"type":"function","name":"cage","inputs":[],"outputs":[{"name":"","type":"uint256","internalType":"uint256"}],"stateMutability":"view"},{"type":"function","name":"currentCycle","inputs":[],"outputs":[{"name":"","type":"uint256","internalType":"uint256"}],"stateMutability":"view"},{"type":"function","name":"currentLSBversion","inputs":[],"outputs":[{"name":"","type":"uint256","internalType":"uint256"}],"stateMutability":"view"},{"type":"function","name":"dage","inputs":[],"outputs":[{"name":"","type":"uint256","internalType":"uint256"}],"stateMutability":"view"},{"type":"function","name":"getAllComputeData","inputs":[{"name":"maxinterwal","type":"uint256","internalType":"uint256"}],"outputs":[{"name":"cr","type":"tuple","internalType":"struct InstanceStor.ComputeResult","components":[{"name":"p1","type":"uint256","internalType":"uint256"},{"name":"p2","type":"uint256","internalType":"uint256"},{"name":"p3","type":"uint256","internalType":"uint256"},{"name":"p4","type":"uint256","internalType":"uint256"},{"name":"p5","type":"uint256","internalType":"uint256"},{"name":"p6","type":"uint256","internalType":"uint256"},{"name":"p7","type":"uint256","internalType":"uint256"},{"name":"f1","type":"uint256","internalType":"uint256"},{"name":"f2","type":"uint256","internalType":"uint256"},{"name":"f3","type":"uint256","internalType":"uint256"},{"name":"f4","type":"uint256","internalType":"uint256"},{"name":"f5","type":"uint256","internalType":"uint256"},{"name":"f6","type":"uint256","internalType":"uint256"},{"name":"f7","type":"uint256","internalType":"uint256"},{"name":"lsb","type":"int256","internalType":"int256"},{"name":"totInc","type":"uint256","internalType":"uint256"},{"name":"thresholdx","type":"uint256","internalType":"uint256"},{"name":"totIncdollar","type":"uint256","internalType":"uint256"},{"name":"thresholdollarx","type":"uint256","internalType":"uint256"},{"name":"minpay","type":"uint256","internalType":"uint256"},{"name":"minpaydollar","type":"uint256","internalType":"uint256"},{"name":"cap","type":"bool","internalType":"bool"},{"name":"capinc","type":"bool","internalType":"bool"},{"name":"capdollar","type":"bool","internalType":"bool"}]}],"stateMutability":"view"},{"type":"function","name":"getAllData","inputs":[{"name":"typeId","type":"uint256","internalType":"uint256"},{"name":"maxinterwal","type":"uint256","internalType":"uint256"}],"outputs":[{"name":"values","type":"uint256[7]","internalType":"uint256[7]"}],"stateMutability":"view"},{"type":"function","name":"getBalance","inputs":[],"outputs":[{"name":"","type":"uint256","internalType":"uint256"}],"stateMutability":"view"},{"type":"function","name":"getHexbase","inputs":[],"outputs":[{"name":"","type":"address","internalType":"address"}],"stateMutability":"view"},{"type":"function","name":"getNodeLB","inputs":[{"name":"_level","type":"uint256","internalType":"uint256"}],"outputs":[{"name":"","type":"tuple","internalType":"struct InstanceStor.LevelInfoStr","components":[{"name":"lvlbs","type":"uint256","internalType":"uint256"},{"name":"lvlqty","type":"uint256","internalType":"uint256"},{"name":"lvlrwrd","type":"uint256","internalType":"uint256"},{"name":"lvlyei","type":"uint256","internalType":"uint256"}]}],"stateMutability":"view"},{"type":"function","name":"getNodeLvlInfoBatch","inputs":[{"name":"from","type":"uint256","internalType":"uint256"},{"name":"to","type":"uint256","internalType":"uint256"}],"outputs":[{"name":"info","type":"tuple[]","internalType":"struct InstanceStor.LevelInfoStr[]","components":[{"name":"lvlbs","type":"uint256","internalType":"uint256"},{"name":"lvlqty","type":"uint256","internalType":"uint256"},{"name":"lvlrwrd","type":"uint256","internalType":"uint256"},{"name":"lvlyei","type":"uint256","internalType":"uint256"}]}],"stateMutability":"view"},{"type":"function","name":"getRankAgeInBatch","inputs":[],"outputs":[{"name":"rankagebatch","type":"uint256[]","internalType":"uint256[]"}],"stateMutability":"view"},{"type":"function","name":"getRankWithAgeValue","inputs":[],"outputs":[{"name":"","type":"uint256","internalType":"uint256"},{"name":"","type":"uint256","internalType":"uint256"}],"stateMutability":"view"},{"type":"function","name":"getToggleAgeCount","inputs":[{"name":"key","type":"uint256","internalType":"uint256"}],"outputs":[{"name":"","type":"uint256","internalType":"uint256"}],"stateMutability":"view"},{"type":"function","name":"getToggleAgeValue","inputs":[{"name":"key","type":"uint256","internalType":"uint256"},{"name":"index","type":"uint256","internalType":"uint256"}],"outputs":[{"name":"","type":"uint256","internalType":"uint256"}],"stateMutability":"view"},{"type":"function","name":"id","inputs":[],"outputs":[{"name":"","type":"uint256","internalType":"uint256"}],"stateMutability":"view"},{"type":"function","name":"importOld","inputs":[{"name":"limit","type":"uint256","internalType":"uint256"}],"outputs":[],"stateMutability":"payable"},{"type":"function","name":"isLock","inputs":[],"outputs":[{"name":"","type":"bool","internalType":"bool"}],"stateMutability":"view"},{"type":"function","name":"mintCount","inputs":[],"outputs":[{"name":"","type":"uint256","internalType":"uint256"}],"stateMutability":"view"},{"type":"function","name":"mints","inputs":[{"name":"","type":"uint256","internalType":"uint256"}],"outputs":[{"name":"amt","type":"uint256","internalType":"uint256"},{"name":"qty","type":"uint256","internalType":"uint256"},{"name":"mage","type":"uint256","internalType":"uint256"},{"name":"nft","type":"address","internalType":"address"}],"stateMutability":"view"},{"type":"function","name":"moveLvlIncome","inputs":[{"name":"_amount","type":"uint256","internalType":"uint256"},{"name":"_qty","type":"uint256","internalType":"uint256"},{"name":"_level","type":"uint256","internalType":"uint256"},{"name":"_epochAge","type":"uint256","internalType":"uint256"},{"name":"_op","type":"bool","internalType":"bool"}],"outputs":[{"name":"lastrnk","type":"uint256","internalType":"uint256"},{"name":"currentrnk","type":"uint256","internalType":"uint256"}],"stateMutability":"nonpayable"},{"type":"function","name":"owner","inputs":[],"outputs":[{"name":"","type":"address","internalType":"address"}],"stateMutability":"view"},{"type":"function","name":"postInit","inputs":[],"outputs":[{"name":"","type":"bool","internalType":"bool"}],"stateMutability":"view"},{"type":"function","name":"preinit","inputs":[{"name":"_hex","type":"address","internalType":"address"},{"name":"_own","type":"address","internalType":"address"},{"name":"_id","type":"uint256","internalType":"uint256"},{"name":"isnew","type":"bool","internalType":"bool"}],"outputs":[],"stateMutability":"nonpayable"},{"type":"function","name":"rank","inputs":[],"outputs":[{"name":"","type":"uint256","internalType":"uint256"}],"stateMutability":"view"},{"type":"function","name":"resetRank","inputs":[],"outputs":[],"stateMutability":"nonpayable"},{"type":"function","name":"setActivedirect","inputs":[{"name":"addremove","type":"bool","internalType":"bool"}],"outputs":[],"stateMutability":"nonpayable"},{"type":"function","name":"setBonus","inputs":[{"name":"b","type":"uint256","internalType":"uint256"}],"outputs":[],"stateMutability":"nonpayable"},{"type":"function","name":"setLock","inputs":[{"name":"flag","type":"bool","internalType":"bool"}],"outputs":[],"stateMutability":"nonpayable"},{"type":"function","name":"setSuspend","inputs":[{"name":"key","type":"uint256","internalType":"uint256"},{"name":"value","type":"bool","internalType":"bool"}],"outputs":[],"stateMutability":"nonpayable"},{"type":"function","name":"setburnclaimdollar","inputs":[{"name":"claim","type":"uint256","internalType":"uint256"},{"name":"claimdollar","type":"uint256","internalType":"uint256"}],"outputs":[],"stateMutability":"nonpayable"},{"type":"function","name":"storcache","inputs":[],"outputs":[],"stateMutability":"nonpayable"},{"type":"function","name":"syncBaseAddr","inputs":[],"outputs":[],"stateMutability":"nonpayable"},{"type":"function","name":"systemAge","inputs":[],"outputs":[{"name":"","type":"uint256","internalType":"uint256"}],"stateMutability":"view"},{"type":"function","name":"updateOwner","inputs":[{"name":"_newowner","type":"address","internalType":"address"}],"outputs":[],"stateMutability":"nonpayable"},{"type":"function","name":"userCycleMintCount","inputs":[{"name":"","type":"uint256","internalType":"uint256"}],"outputs":[{"name":"","type":"uint256","internalType":"uint256"}],"stateMutability":"view"},{"type":"function","name":"withdrawlDage","inputs":[],"outputs":[{"name":"","type":"uint256","internalType":"uint256"}],"stateMutability":"view"},{"type":"event","name":"CapReset","inputs":[{"name":"invested","type":"uint256","indexed":false,"internalType":"uint256"},{"name":"claimed","type":"uint256","indexed":false,"internalType":"uint256"},{"name":"claimedDollar","type":"uint256","indexed":false,"internalType":"uint256"},{"name":"investedDollar","type":"uint256","indexed":false,"internalType":"uint256"},{"name":"burned","type":"uint256","indexed":false,"internalType":"uint256"},{"name":"burnedDollar","type":"uint256","indexed":false,"internalType":"uint256"},{"name":"ag","type":"uint256","indexed":false,"internalType":"uint256"}],"anonymous":false},{"type":"event","name":"EthBurned","inputs":[{"name":"sender","type":"address","indexed":true,"internalType":"address"},{"name":"amount","type":"uint256","indexed":false,"internalType":"uint256"}],"anonymous":false},{"type":"event","name":"EthTransferred","inputs":[{"name":"to","type":"address","indexed":true,"internalType":"address"},{"name":"amount","type":"uint256","indexed":false,"internalType":"uint256"}],"anonymous":false},{"type":"event","name":"HexBaseUpdated","inputs":[{"name":"previousHexBase","type":"address","indexed":true,"internalType":"address"},{"name":"newHexBase","type":"address","indexed":true,"internalType":"address"}],"anonymous":false},{"type":"event","name":"LogTxns","inputs":[{"name":"from","type":"address","indexed":false,"internalType":"address"},{"name":"orc1155","type":"address","indexed":false,"internalType":"address"},{"name":"_amt","type":"uint256","indexed":false,"internalType":"uint256"},{"name":"_value","type":"uint256","indexed":false,"internalType":"uint256"},{"name":"_time","type":"uint256","indexed":false,"internalType":"uint256"},{"name":"_type","type":"uint256","indexed":false,"internalType":"uint256"}],"anonymous":false},{"type":"event","name":"OwnerUpdated","inputs":[{"name":"previousOwner","type":"address","indexed":true,"internalType":"address"},{"name":"newOwner","type":"address","indexed":true,"internalType":"address"}],"anonymous":false},{"type":"error","name":"CallFailed","inputs":[]},{"type":"error","name":"InvalidAddress","inputs":[]},{"type":"error","name":"InvalidState","inputs":[]},{"type":"error","name":"NotAuthorized","inputs":[]},{"type":"error","name":"NotSafe","inputs":[]},{"type":"error","name":"ReentrancyGuardReentrantCall","inputs":[]},{"type":"error","name":"TargetCallFailed","inputs":[{"name":"selector","type":"bytes4","internalType":"bytes4"}]}],"bytecode":{"object":"0x608034620000bf57601f6200607738819003918201601f19168301916001600160401b03831184841017620000c457808492602094604052833981010312620000bf57516001600160a01b03811690819003620000bf578015620000ad5760018060a01b03199033826001541617600155600091825416178155600160115580601255806013558060145580601555806016558060175580601855601955604051615f9c9081620000db8239f35b60405163e6c4247b60e01b8152600490fd5b600080fd5b634e487b7160e01b600052604160045260246000fdfe60806040526004361015610018575b361561001657005b005b60003560e01c806302a085f214610338578063043719b41461033357806309d8da2e1461032e5780630b98f9751461032957806312065fe014610324578063129641201461031f578063143ec3b71461031a5780631f185d16146103155780632697a77a1461031057806329ee350e1461030b578063339459a61461030657806339b4d61b146103015780633b9b7955146102fc57806343a1b5ab146102f75780634a65786c146102f25780635ecf6a8a146102ed578063619d5194146102e85780636350b2c2146102e3578063654c668e146102de57806369245009146102d95780636de97c66146102d45780636f493aad146102cf578063711e5870146102ca578063725b6fff146102c5578063759f22bd146102c057806375b4d78c146102bb578063799e4c45146102b65780637b058ac1146102b1578063822ffec4146102ac578063880cdc31146102a75780638da5cb5b146102a2578063934209ce1461029d5780639659867e14610298578063a1f7f53914610293578063a5d7cda41461028e578063a663030414610289578063a9bf285b14610284578063ab57c03a1461027f578063af4845261461027a578063af640d0f14610275578063b90306ad14610270578063b9f1a3941461026b578063bab2f55214610266578063c54e44b014610261578063c8ef7b1a1461025c578063d3abb8a314610257578063da02133514610252578063e01ad5fd1461024d578063e0a9bc2b146102485763fdc10bc90361000e57612376565b61235b565b6122e0565b612279565b61221d565b612140565b612107565b6120e9565b611f88565b611e86565b611e68565b611e37565b611d1b565b611cfd565b611799565b611422565b6113b8565b61139a565b61137c565b611353565b6112e8565b611015565b610f06565b610ee8565b610eca565b610de6565b610d5d565b610ce3565b610ca9565b610c17565b610bbf565b610b6a565b610b13565b610aab565b610a92565b610a6c565b610a4e565b610a25565b6109e6565b6107e2565b6107ab565b61067d565b6105b0565b610567565b61051e565b610502565b61048f565b61046c565b610430565b61036c565b610120810192916000915b6009831061035557505050565b600190825181526020809101920192019190610348565b60408060031936011261042b57805190610385826123dd565b61012036833760ff601a541661041b5761039d615a4f565b1561040b576103ab33615ac1565b80156103f7575b156103e7576103d36103e3926103c6612ab0565b6024359060043590612c0b565b906001601155519182918261033d565b0390f35b5163ea8e4eb560e01b8152600490fd5b506005546001600160a01b031633146103b2565b51634ee2123760e11b8152600490fd5b5163baf3f0f760e01b8152600490fd5b600080fd5b3461042b57604036600319011261042b576004356000526032602052602061045e6024356040600020612745565b90546040519160031b1c8152f35b3461042b57600036600319011261042b57602060ff601a54166040519015158152f35b3461042b57602036600319011261042b576104a8615a4f565b156104f0576104b633615ac1565b80156104dc575b156104ca57600435601b55005b60405163ea8e4eb560e01b8152600490fd5b506005546001600160a01b031633146104bd565b604051634ee2123760e11b8152600490fd5b3461042b57600036600319011261042b57602047604051908152f35b3461042b57604036600319011261042b5761053a600435615052565b60405190600090825b600783106105505760e084f35b600190825181526020809101920192019190610543565b3461042b57602036600319011261042b5760043560005260326020526020604060002054604051908152f35b6001600160a01b031690565b6001600160a01b0381160361042b57565b3461042b5760208060031936011261042b576106236004356105d18161059f565b6002546040516001600160a01b039283168582015284815291166105f4826123f9565b60405190610601826123f9565b601182527069735369676e657228616464726573732960781b85830152615c84565b919080610669575b15610657578181610645926103e394518301019101615a3a565b60405190151581529081906020820190565b604051633204506f60e01b8152600490fd5b508082511461062b565b8015150361042b57565b3461042b57608036600319011261042b5760043561069a8161059f565b6024356106a68161059f565b606435906106b382610673565b6001600160a01b03928316908115808015610790575b61077e5761076c57600080546001600160a01b0319811684178255909461071d9391167fe939feee179e631422bcc8f6e6d7d908cb3f8af38f5372f17c77e15aea5c80ee8680a3610718612632565b615b7f565b610728604435601d55565b61072f5780f35b61073f61073a615b42565b602055565b61074a602054601e55565b610755602054601f55565b61076961010061ff0019601a541617601a55565b80f35b60405163e6c4247b60e01b8152600490fd5b60405163baf3f0f760e01b8152600490fd5b50848216156106c9565b908152602081019190915260400190565b3461042b57600036600319011261042b5760215460088110156107dd578060230154906103e36040519283928361079a565b61272f565b3461042b57600036600319011261042b57610016615508565b6000526031602052604060002090565b6000805260316020527f346dc135129bcc5b8e8f6ff902940f16dc0729d02b27118b912aa326da88b83190565b6103e76000526032602052600080516020615f4783398151915290565b6001600052602d6020527f4ac3b22e31fa68474eb1c8f858cd447cf1ee3eef7de8984178a7afa8f4fe0cd090565b6004600052602d6020527faa2e4aefbe0e8a3f17f0ef1a62898433725e8346722aad5b9b38d3974d21608390565b600052602c602052604060002090565b600052602e602052604060002090565b6000526030602052604060002090565b6002600052602d6020527f3acd642f41c4abca13e6953c1b760d7f24daf271c41106e480dd1fea313ccc7290565b6003600052602d6020527f1d82e85504d8f49072f846129ecee69c763b08a82ee3d81cda62b57a7576d37b90565b6005600052602d6020527ff4e70c5971a4cc8cf9f9f8ecc4b5217b9d5f157385b05a56c54d37f26435621c90565b6006600052602d6020527fb166da6939c8546909795cbdc2ac7eb95e976cea31f094e55573dbb6ac49f74f90565b6007600052602d6020527f4d73f294a2cb7f5a471fde2e2c5652a46cf819d439af00ca2c7f02d5472b48b890565b600052602d602052604060002090565b90600052602052604060002090565b3461042b57602036600319011261042b57600435600052602c6020526020604060002054604051908152f35b6001600160a01b03909116815260200190565b3461042b57600036600319011261042b576000546040516001600160a01b039091168152602090f35b3461042b57600036600319011261042b576020602f54604051908152f35b3461042b57600036600319011261042b57602060ff601a5460081c166040519015158152f35b3461042b57600036600319011261042b57610016612632565b3461042b57602036600319011261042b57600435610ac881610673565b610ad0615a4f565b156104f057610ade33615ac1565b8015610aff575b156104ca5760ff8019601a54169115151617601a55600080f35b506005546001600160a01b03163314610ae5565b3461042b57602036600319011261042b57600435600052602e60205260806040600020805490600181015490600281015490600360018060a01b039101541691604051938452602084015260408301526060820152f35b3461042b57604036600319011261042b57610b83615a4f565b156104f057610b9133615ac1565b8015610bab575b156104ca57600435601455602435601655005b506005546001600160a01b03163314610b98565b3461042b57600036600319011261042b5760208054604051908152f35b6020908160408183019282815285518094520193019160005b828110610c03575050505090565b835185529381019392810192600101610bf5565b3461042b57600036600319011261042b576021546001810190818111610ca457610c40826151eb565b91610c4e604051938461244a565b808352610c5d601f19916151eb565b0136602084013760005b81811115610c7d57604051806103e38582610bdc565b60088110156107dd5780610c9f9160230154610c998286615202565b526127f3565b610c67565b6127dd565b3461042b57604036600319011261042b57600435600052603060205260406000206024356000526020526020604060002054604051908152f35b3461042b57602036600319011261042b57600435610d0081610673565b610d08615a4f565b156104f057610d1633615ac1565b8015610d49575b156104ca5715610d3757610d326022546127f3565b602255005b6022548015610ca45760001901602255005b506005546001600160a01b03163314610d1d565b3461042b57600036600319011261042b576020601e54604051908152f35b606080918051845260208101516020850152604081015160408501520151910152565b6020908160408183019282815285518094520193019160005b828110610dc5575050505090565b9091929382608082610dda6001948951610d7b565b01950193929101610db7565b3461042b57604036600319011261042b5760243560043581811161077e57808203918211610ca457600190818301809311610ca457610e24836151eb565b92610e32604051948561244a565b808452610e41601f19916151eb565b0160005b818110610eb3575050816000905b610e66575b604051806103e38682610d9e565b8351811015610eae5780610e8d610e88610e83610ea894866128d5565b6107fb565b6151b9565b610e978287615202565b52610ea28186615202565b506127f3565b82610e53565b610e58565b602090610ebe615194565b82828801015201610e45565b3461042b57600036600319011261042b576020601b54604051908152f35b3461042b57600036600319011261042b576020602254604051908152f35b3461042b5760a036600319011261042b57604435602435600435608435610f2c81610673565b610f34615a4f565b156104f057610f4233615ac1565b8015611001575b156104ca5760009260009480610f69575b604051806103e388888361079a565b90919293506021549483600014610fc457506001610fa382610fb796610f9c610f94610fac966107fb565b9182546128d5565b90556107fb565b019182546128d5565b90555b606435613cb3565b6021549038808080610f5a565b808260409252603160205220938454908103908111610ca457610ff1610ffa92600192610fb797556107fb565b019182546128f1565b9055610faf565b506005546001600160a01b03163314610f49565b3461042b5760c036600319011261042b5760443560643560a43560243560043561103e83610673565b611046615a4f565b156104f05761105433615ac1565b80156112d4575b156104ca57611069856107fb565b6110748282546128d5565b905560019384611083876107fb565b0161108f8482546128d5565b905561109961080b565b541515806112cb575b6110b5575b602154604051908152602090f35b61112c921593841592836112bd575b61111b61110c6110f06110d8600354610593565b6110fe8c604051938491602083019190602083019252565b03601f19810184528361244a565b611106613b4e565b90615c59565b60208082518301019101613b7e565b9591989096602094939454906128f1565b608435119182156112b0575b50816112a7575b5061114d575b5050506110a7565b6003956111ad956000901561129e575061117361116d6111799385612a13565b916129a2565b90612864565b955b60009015611294575061116d6111949361117392612a13565b945b60026111a1826107fb565b01610f9c8582546128d5565b016111b98482546128d5565b90556001600052603260205281807f0d07fe408fa264e656a9c06e272928e4d4bb400d93cd5b5e74ac592f6170c2fd5416148015611281575b61126c575b506004600052603260205280807f3f52cf82629296489b84e1dbb72f035157400392aa100335795b652755f8cdda541614908115611258575b50611243575b8080808080808080611145565b6112506002610fa3610883565b905538611236565b809150611263610838565b54161438611230565b6112796002610fa3610855565b9055386111f7565b50818061128c610838565b5416146111f2565b9250505094611196565b9150509561117b565b9050153861113f565b6021541015915038611138565b6112c683613bd4565b6110c4565b508515156110a2565b506005546001600160a01b0316331461105b565b3461042b57602036600319011261042b576004356113058161059f565b61130d615a4f565b156104f05761131b33615ac1565b801561133f575b156104ca576001600160a01b038116156104ca5761001690615b7f565b506005546001600160a01b03163314611322565b3461042b57600036600319011261042b576001546040516001600160a01b039091168152602090f35b3461042b57600036600319011261042b576020602154604051908152f35b3461042b57600036600319011261042b576020601c54604051908152f35b3461042b57600036600319011261042b57602061141a60018060a01b03600654166040516113e5816123f9565b601381527267657464656c656761746f72436f756e74282960681b848201526040519161141183612414565b60008352615da2565b604051908152f35b60408060031936011261042b576004803560243560ff601a541661178957611448612ab0565b611450615b42565b90601e5461145e82826128d5565b8311156117815761146f92506128d5565b925b6114a76114a261149c611485600354610593565b61148d612f53565b906114966124f7565b90615da2565b86612864565b602b55565b6114b2602b546108b1565b546114d26114c1600354610593565b6114c9612f53565b90611496612522565b11611772576114e18354610593565b601d548251602080820192909252908152601f1991611514919061150660408361244a565b61150e612802565b90615d1b565b6001600160a01b0394908581161561176357600180611531610838565b5416146116c7575b50611572611548600354610593565b845160208101879052604094850181529093611564908261244a565b61156c612f6b565b84615da2565b34036116b957509361165191846115ba6115ab600080516020615f078339815191529861159d612fa4565b6115a56124e4565b91615c59565b60208082518301019101612fca565b95919a90939416991692801515806116b0575b61168f575b505080151580611686575b61165e575b5050506115f96115f4346012546128d5565b601255565b61160d611608856015546128d5565b601555565b61161682612ad3565b513381526001600160a01b039094166020850152604084019290925234606084015260808301919091526103e860a0830152819060c0820190565b0390a16100166001601155565b61167e926111736116726116789334612a13565b916129b3565b90615bfd565b3880806115e2565b508115156115dd565b6116a9916111736116726116a39334612a13565b89615bfd565b38806115d2565b508915156115cd565b8251633204506f60e01b8152fd5b909592949293919031156116e557845163baf3f0f760e01b81528690fd5b909294600080516020615f278339815191526013959395546014549061171e8960165460175460125490601554928b5197889788612836565b0390a161172b6000601355565b6117356000601455565b61173f6000601655565b6117496000601755565b6117536000601255565b61175d6000601555565b38611539565b50825163baf3f0f760e01b8152fd5b51633204506f60e01b81529050fd5b505092611471565b835163baf3f0f760e01b81528390fd5b60c036600319011261042b5760048035906117b38261059f565b6064359160443560a4356084356117c8615a4f565b15611cec576117d633615ac1565b8015611cd8575b15611cc75760ff601a5416611cb6576117f4612ab0565b6117fe8554610593565b94601d549060409561183387518061181f6020968783019190602083019252565b0399611506601f199b8c810184528361244a565b6001600160a01b03811615611ca65760018061184d610838565b541614611c06575b5061186661186282615ac1565b1590565b611bf7576118796114a260335487612864565b602b54611885816108b1565b5460345411801590611be1575b611bd15761189f906108b1565b8054600101905560018414988915611bca576118eb6118bf600354610593565b8951906118e3826118d78c8a83019190602083019252565b038d810184528361244a565b611496612884565b995b611b85575b50601c5415611b6e575b601c54611908906127f3565b601c5561191361246d565b9789895286848a015285888a0152606089019860008a52601c54611936906108c1565b906119409161292c565b60015461194c90610593565b908851809263c85700fb60e01b87830152888d8b60243560248601946119719561295e565b039081018252611981908261244a565b61198a91615e4d565b8280825183010191019061199d9161298a565b6119a690610593565b6119b090886128fe565b86516119bb90610593565b6119c490610593565b15611b60575091611b498492611b0c611afc611a95611a90611aea611aa08e6111738f6103e39f9e600080516020615f078339815191529e611a5e611a59611a51611a4c611a8195611a2f611a1c611a9b9951610593565b6003611a29601c546108c1565b0161290d565b611a43611a3e8b6013546128d5565b601355565b60375490612a13565b6129c9565b6017546128d5565b601755565b611a74611a6c600354610593565b61159d612a26565b8051810182019101612a48565b9c9491959b9293989050612a13565b612a13565b93612a13565b6129e6565b91611abf611aaf602f546108d1565b611ab9838c6128d5565b906109d7565b611aca848254612a7b565b9055611ab984611ae5611ade602f546108d1565b938c6128d5565b6128d5565b611af5828254612a97565b9055612a13565b98611b0685612ad3565b51610593565b86513381526001600160a01b039091166020820152604081019490945260608401899052608084019290925260a0830191909152819060c0820190565b0390a1611b566001601155565b519283928361079a565b855163baf3f0f760e01b8152fd5b611b7785601e55565b611b8085601f55565b6118fc565b601b54908a611b9483836128d5565b10611bba578a611baa611bb493611baf936128d5565b6128f1565b601b55565b386118f2565b885163baf3f0f760e01b81528490fd5b80996118ed565b8751633204506f60e01b81528390fd5b5060355487108061189257506036548711611892565b50855163ea8e4eb560e01b8152fd5b9198969795949392913115611c2557875163baf3f0f760e01b81528990fd5b600080516020615f2783398151915260139992939495969897995460145490611c61888b60165460175460125491601554935197889788612836565b0390a1611c6e6000601355565b611c786000601455565b611c826000601655565b611c8c6000601755565b611c966000601255565b611ca06000601555565b38611855565b875163baf3f0f760e01b81528390fd5b60405163baf3f0f760e01b81528590fd5b60405163ea8e4eb560e01b81528590fd5b506005546001600160a01b031633146117dd565b604051634ee2123760e11b81528590fd5b3461042b57600036600319011261042b576020601f54604051908152f35b3461042b57600036600319011261042b576021611d3881546128b9565b60088110611d4257005b611dec90611d87611d54600354610593565b611d7a604051602092611d72826110f0888783019190602083019252565b611106613ba5565b8051810182019101613b7e565b5050509060225410159081611e20575b5080611e0e575b15611df157611de7611dbc611db2836132cc565b90549060031b1c90565b611dc583602155565b611dce836132cc565b90919082549060031b91821b91600019901b1916179055565b6127f3565b611d38565b611de7611dfd826132cc565b8154906000199060031b1b19169055565b508254611e1a826128e2565b14611d9e565b90506001611e2d836107fb565b0154101538611d97565b3461042b57602036600319011261042b576020611e5e600435611e598161059f565b615ac1565b6040519015158152f35b3461042b57600036600319011261042b576020601d54604051908152f35b3461042b57602036600319011261042b57600435611ea2615a4f565b156104f0576005546001600160a01b031633036104ca5760009060046020611ed2611ecd8554610593565b610593565b6040516311be646b60e21b815292839182905afa8015611f835783808481949382948391611f55575b505af1611f06615bcd565b5015610657577fcdcc745fe377b103b45fa0cec23ae3ef93d6fc6a84a01f0d18c40b354dd1d5d8611f4f611f3e611ecd600b54610593565b604051938452929081906020820190565b0390a280f35b611f76915060203d8111611f7c575b611f6e818361244a565b81019061298a565b38611efb565b503d611f64565b61300a565b3461042b57602036600319011261042b57611fa1614143565b50611faa615b42565b601e54906004358201809211610ca45761030091611fd091818111156120e2575061426f565b6120e060405191805183526020810151602084015260408101516040840152606081015160608401526080810151608084015260a081015160a084015260c081015160c084015260e081015160e0840152610100808201519084015261012080820151908401526101408082015190840152610160808201519084015261018080820151908401526101a080820151908401526101c080820151908401526101e08082015190840152610200808201519084015261022080820151908401526102408082015190840152610260808201519084015261028080820151908401526120c46102a0808301519085019015159052565b6102c0818101511515908401526102e090810151151590830152565bf35b905061426f565b3461042b57600036600319011261042b576020602b54604051908152f35b3461042b57602036600319011261042b57602061212e6004356121298161059f565b615ecf565b6040516001600160a01b039091168152f35b3461042b57604036600319011261042b5760243561215d81610673565b612165615a4f565b156104f05761217333615ac1565b8015612209575b156104ca57612187615b42565b906000916004358352603260205260408320805492831590811591612201575b816121e1575b506121b6578380f35b600160401b8310156121dc5782611dce9160016121d595018155612745565b3880808380f35b612391565b1590506121f85760ff845b166001841614386121ad565b60ff60016121ec565b9050806121a7565b506005546001600160a01b0316331461217a565b602036600319011261042b57612231615a4f565b156104f05761223f33615ac1565b8015612265575b156104ca57612253612ab0565b61225e60043561337f565b6001601155005b506005546001600160a01b03163314612246565b3461042b57602036600319011261042b57612292615194565b506004356000526031602052608060406000206003604051916122b4836123a7565b805483526001810154602084015260028101546040840152015460608201526120e06040518092610d7b565b3461042b57602036600319011261042b576020611e5e6004356123028161059f565b6006546040516001600160a01b03928316858201528481529116612325826123f9565b60405190612332826123f9565b6018825277697364656c656761746f724e6f646528616464726573732960401b85830152615d66565b3461042b57600036600319011261042b576020611e5e615a4f565b3461042b57600036600319011261042b57602061141a615b42565b634e487b7160e01b600052604160045260246000fd5b608081019081106001600160401b038211176121dc57604052565b606081019081106001600160401b038211176121dc57604052565b61012081019081106001600160401b038211176121dc57604052565b604081019081106001600160401b038211176121dc57604052565b602081019081106001600160401b038211176121dc57604052565b60e081019081106001600160401b038211176121dc57604052565b601f909101601f19168101906001600160401b038211908210176121dc57604052565b6040519061247a826123a7565b565b6040519061030082016001600160401b038111838210176121dc57604052565b604051906101e082016001600160401b038111838210176121dc57604052565b6040519061247a8261242f565b6001600160401b0381116121dc57601f01601f191660200190565b604051906124f182612414565b60008252565b60405190612504826123f9565b600f82526e6d696e744379636c6544617973282960881b6020830152565b6040519061252f826123f9565b60128252716d61784d696e74735065724379636c65282960701b6020830152565b6040519061255d826123f9565b600c82526b6d696e4d696e74517479282960a01b6020830152565b60405190612585826123f9565b600c82526b6d61784d696e74517479282960a01b6020830152565b604051906125ad826123f9565b600f82526e6d696e74466565506572517479282960881b6020830152565b604051906125d8826123f9565b601082526f65616368636c61696d4379636c65282960801b6020830152565b60405190612604826123f9565b600982526863617070696e67282960b81b6020830152565b919082604091031261042b576020825192015190565b61263a615508565b61247a61272a61272461271561270d600361267661267161265b8354610593565b6126636124f7565b61266b6124e4565b91615da2565b603355565b61269361268e6126868354610593565b612663612522565b603455565b6126b06126ab6126a38354610593565b612663612550565b603555565b6126cd6126c86126c08354610593565b612663612578565b603655565b6126ea6126e56126dd8354610593565b6126636125a0565b603755565b6127076127026126fa8354610593565b6126636125cb565b603855565b54610593565b61159d6125f7565b6020808251830101910161261c565b603a5590565b603955565b634e487b7160e01b600052603260045260246000fd5b80548210156107dd5760005260206000200190600090565b6103e76000526032602052600080516020615f478339815191528054928315801591906127d5575b816127b4575b5061279557505050565b600160401b8310156121dc5782611dce91600161247a95018155612745565b1590506127cc5760ff60005b1660018416143861278b565b60ff60016127c0565b905080612785565b634e487b7160e01b600052601160045260246000fd5b6000198114610ca45760010190565b6040519061280f826123f9565b6018825277676574557365724964546f496e73742875696e743235362960401b6020830152565b93909796959260c0959260e08601998652602086015260408501526060840152608083015260a08201520152565b811561286e570490565b634e487b7160e01b600052601260045260246000fd5b60405190612891826123f9565b6019825278636f6d707574654d696e7456616c75652875696e743235362960381b6020830152565b9060018201809211610ca457565b6046019081604611610ca457565b91908201809211610ca457565b600019810191908211610ca457565b91908203918211610ca457565b6001600160a01b039091169052565b80546001600160a01b0319166001600160a01b03909216919091179055565b600361247a92805183556020810151600184015560408101516002840155606060018060a01b0391015116910161290d565b9192608093969594919660a084019760018060a01b031684526020840152604083015260608201520152565b9081602091031261042b575161299f8161059f565b90565b9081606402916064830403610ca457565b90606482029180830460641490151715610ca457565b90670de0b6b3a764000091828102928184041490151715610ca457565b9061271091828102928184041490151715610ca457565b90601982029180830460191490151715610ca457565b81810292918115918404141715610ca457565b60405190612a33826123f9565b6006825265706f6f6c282960d01b6020830152565b908160e091031261042b5780519160208201519160408101519160608201519160808101519160c060a083015192015190565b91909160008382019384129112908015821691151617610ca457565b81810392916000138015828513169184121617610ca457565b600260115414612ac1576002601155565b604051633ee5aeb560e01b8152600490fd5b6013546012548101809111610ca457603954612aee91612a13565b60145411601754916015548301809311610ca457612b1261247a93603a5490612a13565b601654118215612b23575b5061275d565b915038612b1d565b60405190612b388261242f565b60e0368337565b60405190612b4c826123f9565b601082526f6d6178436c61696d506572446179282960801b6020830152565b60405190612b78826123f9565b601082526f6d696e436c61696d506572446179282960801b6020830152565b60405190612ba4826123f9565b60168252756d6178476c6f62616c436c61696d506572446179282960501b6020830152565b60405190612bd6826123f9565b601582527467657477697468647261776e2875696e743235362960581b6020830152565b9060098110156107dd5760051b0190565b929190838215612f4d5750601a54612c279060081c60ff161590565b612f3c57601e5490612c3981836128d5565b831115612f4057612c57612c4f603292846128d5565b925b836128f1565b11612f3c57612c6b603854601f54906128d5565b821015612c76575050565b612c7f90613def565b6003612c8b8154610593565b612ca5612c96612b3f565b612c9e6124e4565b9083615da2565b90612d01612cf8612cef612ce6612cdd612cd488612cc1610855565b015489612ccc610883565b0154906128d5565b88612ccc6108e1565b87612ccc61090f565b86612ccc61093d565b85612ccc61096b565b84612ccc610999565b90612d0d612c96612b6b565b821015612d49575b505050505060195480612d26575b50565b610100830152612d3f612d3a602f546127f3565b602f55565b61247a6000601955565b612d5590612663612b97565b91612d61600454610593565b92612d89604094855190612d81826110f08b602083019190602083019252565b611496612bc9565b1015612d155760009181811115612f3557612da492506128f1565b6001908160005b6007841115612ddf57505050505050612dd59060185460e0850152612dd06000601855565b601f55565b3880808080612d15565b85612de9856109c7565b015483612eb857612eb291612e4b9184612e02886109c7565b01612e0e8282546128d5565b9055600089612e1c896109c7565b0155612e30612e2a886128e2565b8d612bfa565b525b612e44612e3e876128e2565b8c612bfa565b51906128d5565b93600080516020615f0783398151915288612e68612e2a846128e2565b51612eaa612e75856128c7565b8a5133815260006020820181905260408201526060810193909352608083019390935260a082019290925290819060c0820190565b0390a16127f3565b92612dab565b9280841115612f1557612eb291612ef4612ed5612e4b93876128f1565b809686612ee18a6109c7565b01612eed8382546128d5565b90556128f1565b88612efe886109c7565b0155600094612f0f612e2a886128e2565b52612e32565b612f26612eb29294612e4b926128f1565b936000612f0f612e2a886128e2565b5050612da4565b5050565b506032612c578392612c51565b93505050565b604051612f5f81612414565b60008152906000368137565b60405190612f78826123f9565b601d82527f636f6d70757465446f6c6c6172546f4f7a6f6e652875696e74323536290000006020830152565b60405190612fb1826123f9565b600a8252696275726e636e6667282960b01b6020830152565b91908260c091031261042b578151612fe18161059f565b916020810151916040820151916060810151612ffc8161059f565b9160a0608083015192015190565b6040513d6000823e3d90fd5b60405190613023826123f9565b601382527255736572546f496e737428616464726573732960681b6020830152565b60405190613052826123f9565b600b82526a6d696e74436f756e74282960a81b6020830152565b60405190613079826123f9565b600e82526d6d696e74732875696e743235362960901b6020830152565b604051906130a3826123f9565b600b82526a6d696e746564416765282960a81b6020830152565b604051906130ca826123f9565b600b82526a6d696e746564717479282960a81b6020830152565b604051906130f1826123f9565b600c82526b6964732875696e743235362960a01b6020830152565b60405190613119826123f9565b60098252686d696e74416d74282960b81b6020830152565b6040519061313e826123f9565b600a825269647261776e616765282960b01b6020830152565b60405190613164826123f9565b600c82526b4c53422875696e743235362960a01b6020830152565b6040519061318c826123f9565b6007825266647261776e282960c81b6020830152565b91908260c091031261042b5781519160208101519160408201519160608101519160a0608083015192015190565b604051906131dd826123f9565b60138252726765745265776172647328616464726573732960681b6020830152565b6040519061320c826123f9565b6007825266626f6e7573282960c81b6020830152565b6040519061322f826123f9565b600682526563616765282960d01b6020830152565b60405190613251826123f9565b60188252776765744e6f64654c766c446570746828616464726573732960401b6020830152565b6001600160a01b039091168152602081019190915260400190565b604051906132a0826123f9565b601e82527f6765746e6f6465526e6b41676528616464726573732c75696e743235362900006020830152565b60088110156107dd5760230190600090565b604051906132eb826123f9565b601082526f6765744e6f646528616464726573732960801b6020830152565b908160a091031261042b5780519160208201516133268161059f565b916040810151916080606083015161333d81610673565b92015161299f81610673565b60405190613356826123f9565b601a82527977697468647261776e496e636f6d654f6628616464726573732960301b6020830152565b601a5460081c60ff16612d2357600490602061339f611ecd600054610593565b60405163111ea8c160e21b815293849182905afa918215611f8357600092613b2d575b506134026133e66133f46133d7600154610593565b60405192839160208301610a12565b03601f19810183528261244a565b6133fc613016565b84615d1b565b926001600160a01b03841615613b08576005821161065757613434613425613045565b61342d6124e4565b9086615da2565b91601c5461344281836128d5565b841115613afc57613452916128d5565b909291925b61345f61080b565b5493600161346b61080b565b0154935b601c54848110156137915761348661348b916127f3565b601c55565b60008052602c6020527f4bd6275b77b7e49eb0792b10b407951644bbdba590ba83c6764fe2c9da0b9bef6134bf81546127f3565b9055601c54956134ef6040516134e1816133e68b602083019190602083019252565b6134e961306c565b8a615d1b565b9061350a6134fb613096565b6135036124e4565b9084615da2565b91613516612c966130bd565b9161353b604051613533816133e660208201906000602083019252565b61156c6130e4565b9061355061354a61342561310c565b93615ecf565b9a6020613580613564611ecd600054610593565b6040519e8f809381926333ea87db60e21b835260048301610a12565b03915afa9b8c15611f835760009c613770575b506135a06118628d615ac1565b6104ca57613632926135ed866135e787611ecd96816135c1613623986108c1565b558360016135d0601c546108c1565b01558b60026135e0601c546108c1565b01556128d5565b9d6128d5565b9c61361e6135fc600154610593565b6110f08a898b60405197889563c85700fb60e01b60208801526024870161295e565b615e4d565b6020808251830101910161298a565b6001600160a01b0381161561077e57600080516020615f078339815191529361371a6137579261366a60039182611a29601c546108c1565b611a956136f46136ec611a90611ab96136b18a611173611a9b6136a2613693611a6c8c54610593565b60208082518301019101612a48565b9e9491959b9293989050612a13565b94611ae56136e5602f6136d28c611ab9886136cc85546108d1565b926128d5565b6136dd8a8254612a7b565b9055546108d1565b938a6128d5565b918254612a97565b90556001601c5414613762575b61370c601c546108c1565b01546001600160a01b031690565b604080513381526001600160a01b03909216602083015281019490945260608401929092526080830191909152600060a0830152819060c0820190565b0390a194939461346f565b61376b83601e55565b613701565b61378a919c5060203d602011611f7c57611f6e818361244a565b9a38613593565b509391959250936137a061080b565b5560016137ab61080b565b0155601c54838114938415613af2575b5060011015613817575b50506137cd57565b6137e7611a59611a4c60016137e061080b565b01546129fd565b6137f86137f261080b565b54601355565b613803601e54601f55565b61247a61010061ff0019601a541617601a55565b61382561073a6134fb613131565b602054601e548111613aa3575b5061385f61385061384161317f565b6138496124e4565b9084615c59565b602080825183010191016131a2565b946001613870959295949394610855565b0155600161387c6108e1565b0155600161388861090f565b01556001613894610883565b015560016138a061096b565b015560016138ac610999565b01556138d66127156040516138c8816133e68660208301610a12565b6138d06131d0565b85615c59565b906138df610855565b556138e8610883565b556138f7611baf6134fb6131ff565b61390561073a6134fb613222565b61392460405161391c816133e68560208301610a12565b61156c613244565b60005b818110613a135750506139586110f061397e936139506139679460405193849160208301610a12565b6111066132de565b6020808251830101910161330a565b935050505060ff8019601a54169115151617601a55565b60046020613990611ecd600054610593565b6040516318c9774160e21b815292839182905afa908115611f83576139e1916110f0916000916139f4575b506139d96139ca600154610593565b60405193849160208301610a12565b611496613349565b60016139eb61093d565b015538806137c5565b613a0d915060203d602011611f7c57611f6e818361244a565b386139bb565b80613a2a91613a58575b60088110613a2f576127f3565b613927565b611de7611dc5604051613a4a816133e6868a60208401613278565b613a52613293565b88615da2565b613a86612715604051632994ed6560e11b6020820152613a80816133e6868a60248401613278565b87615e4d565b90613a90836107fb565b556001613a9c836107fb565b0155613a1d565b601e55613ad46133e6613ac6602054604051928391602083019190602083019252565b613ace613157565b83615dde565b613aeb613ae2602f546108d1565b601e54906109d7565b5538613832565b15935060016137bb565b50508190929192613457565b92505050613b1761073a615b42565b613b22602054601e55565b613803602054601f55565b613b4791925060203d602011611f7c57611f6e818361244a565b90386133c2565b60405190613b5b826123f9565b60148252736c6576656c436c617573652875696e743235362960601b6020830152565b908160a091031261042b578051916020820151916040810151916080606083015192015190565b60405190613bb2826123f9565b601382527272616e6b436c617573652875696e743235362960681b6020830152565b602190613be182546128b9565b60088110613bee57505050565b613bf9600354610593565b613c1c604091611d7a8351602092611d72826110f0898783019190602083019252565b505050918315801590613cab575b80613c9b575b61041b575090613c57929160225410159081613c84575b5080613c72575b613c5c576127f3565b613be1565b613c6581602155565b611de783611dce836132cc565b508354613c7e826128e2565b14613c4e565b90506001613c91836107fb565b0154101538613c47565b50811580613c3057508215613c30565b506001613c2a565b90919060008315613d485750613cca6021546128b9565b8315613d9c57600881105b15613d9657613ce5600354610593565b613d08604091611d7a8351602092611d72826110f0898783019190602083019252565b505050918315801590613d8f575b80613d7f575b61041b575090613d48929160225410159081613d68575b508515613d5a5780613d4d57613c5c576127f3565b613cca565b50602154613c7e826128e2565b15611df157611de781602155565b90506001613d75836107fb565b0154101538613d33565b50811580613d1c57508215613d1c565b5086613d16565b50509050565b602154811115613cd5565b60405190613db4826123f9565b601d82527f636f6d707574654f7a6f6e65546f446f6c6c61722875696e74323536290000006020830152565b9081602091031261042b575190565b613df88161426f565b9081519160208101928351613e0c916128d5565b9060408101918251613e1d916128d5565b9160608201928351613e2e916128d5565b9060808301918251613e3f916128d5565b9160a08401928351613e50916128d5565b9060c08501918251613e61916128d5565b9060e086019485516101008801908151613e7a916128d5565b966101208901978851613e8c916128d5565b956101408a01968751613e9e916128d5565b936101608b01948551613eb0916128d5565b956101808c01968751613ec2916128d5565b976101a08d01988951613ed4916128d5565b613edd916128d5565b9e8c5160039e8f9182613eee610855565b0190815490613efc916128d5565b90555190613f08610883565b0190815490613f16916128d5565b9055518d613f226108e1565b0190815490613f30916128d5565b905589518d613f3d61090f565b0190815490613f4b916128d5565b9055518c613f5761093d565b0190815490613f65916128d5565b9055518b613f7161096b565b0190815490613f7f916128d5565b9055518a613f8b610999565b0190815490613f99916128d5565b9055519460029586613fa9610855565b0190815490613fb7916128d5565b90555185613fc3610883565b0190815490613fd1916128d5565b90555184613fdd6108e1565b0190815490613feb916128d5565b9055855184613ff861090f565b0190815490614006916128d5565b9055518361401261093d565b0190815490614020916128d5565b9055518261402c61096b565b019081549061403a916128d5565b90555190614046610999565b0190815490614054916128d5565b90556101c083015185602f54614069906108d1565b90614073916109d7565b9081549061408091612a7b565b90555160185490614090916128d5565b60185551601954906140a1916128d5565b6019556140ad83601e55565b60009084151560001461412a61247a9661412261411d614136976102a09761412f9661413c57506141066140e46141159254610593565b604051906140fe826110f089602083019190602083019252565b611106613da7565b60208082518301019101613de0565b6016546128d5565b601655565b6014546128d5565b601455565b0151151590565b9061275d565b9050614115565b61414b61247c565b9060008083528060208401528060408401528060608401528060808401528060a08401528060c08401528060e08401528061010084015280610120840152806101408401528061016084015280610180840152806101a0840152806101c0840152806101e08401528061020084015280610220840152806102408401528061026084015280610280840152806102a0840152806102c08401526102e0830152565b604051906141f9826123f9565b600a82526973687574646f776e282960b01b6020830152565b6040519061421f826123f9565b6011825270696e636f6d654f6628616464726573732960781b6020830152565b6040519061424c826123f9565b6014825273636f6d70757465546f75722875696e743235362960601b6020830152565b90614278614143565b91614284600354610593565b9061431d6142a26142936141ec565b61429b6124e4565b9085615d66565b80926142e36142af614fd3565b60608a01528089526142dd6142d360016142c7610855565b01546003612ccc610855565b6002612ccc610855565b906128f1565b875261431360608801516142dd61430960016142fd610883565b01546003612ccc610883565b6002612ccc610883565b6060880152614af5565b94929093916101c0890152610100880152602087015260001461491b5750506143676110f061434d600454610593565b611506601d54604051938491602083019190602083019252565b3160408401525b6143956110f061437f600954610593565b61438d6139ca600154610593565b611496614212565b6143bb6143b160016143a561093d565b01546002612ccc61093d565b6003612ccc61093d565b60808501818152918181111561490d576143d891508251906128f1565b815260046021546002811015806148e0575b6148ac575b10158061487f575b614851575b6005600052603260205260016144347ff1229d5c96a3de3bdb5814fe87c3432b211770fda268ddcd390c87c4a4feb8e75b5460011690565b14614833575b506006600052603260205260016144707f125f38041639e32c103ab47aba064e25405a1fb08d2d6ee74cd07eb22ba6e04061442d565b14614813575b6007600052603260205260016144ab7f46bf7effec7da617c09fb0f99690c7f788a904e44d0053fc402fa3db73b3672561442d565b146147f3575b6144dd6144d26144c785516020870151906128d5565b6040860151906128d5565b6060850151906128d5565b9061455c61451e60e086019361451861450c61450087516101008b0151906128d5565b6101208a0151906128d5565b610140890151906128d5565b90614ef1565b15156102a08c0190815295969594939291906102808c01526102408b01526102208a01526102608901526102008801526101e0870192835251151590565b61456557505050565b61458c6145796110f061434d600454610593565b31600361458461090f565b0154906128f1565b60408601526145c66141066110f0610260880151946145be6102808a0151604051938491602083019190602083019252565b611106612f6b565b9051610200860151106102c08601819052610220860151610240870151106102e0870190815281806147e1575b600092156147bb57505050808210156147b457505b905b83518280614775575061461e9082516128d5565b9052600083525b60208301518161472b5761463e906101008501516128d5565b610100840152600060208401525b6040830151816146e157614665906101208501516128d5565b610120840152600060408401525b6060830151908061469d575061468e906101408401516128d5565b61014083015260006060830152565b6146c96146be612d23938084116000146146da57805b8160608901526128f1565b6101408601516128d5565b6101408501526060840151906128f1565b83906146b3565b9061470e61470361471f9380841160001461472457805b8160408901526128f1565b6101208601516128d5565b6101208501526040840151906128f1565b614673565b83906146f8565b9061475861474d6147699380841160001461476e57805b8160208901526128f1565b6101008601516128d5565b6101008501526020840151906128f1565b61464c565b8390614742565b91906147a8935061479761479e918085116000146147ad57805b8189526128f1565b82516128d5565b90528351906128f1565b614625565b849061478f565b9050614608565b156147ca575050505b9061460a565b5191925090156147da57506147c4565b90506147c4565b91506147ed8151151590565b916145f3565b600060c08401805161480b6101a087019182516128d5565b9052526144b1565b600060a08401805161482b61018087019182516128d5565b905252614476565b806000915161484861016087019182516128d5565b9052523861443a565b61487560405161486d816133e660208201906004602083019252565b61156c61423f565b60c08501526143fc565b506148a661489c6001614890610999565b01546002612ccc610999565b6003612ccc610999565b156143f7565b6148d66040516148c8816133e660208201906002602083019252565b6148d061423f565b86615da2565b60a08701526143ef565b506149076148fd60016148f161096b565b01546002612ccc61096b565b6003612ccc61096b565b156143ea565b614916916128f1565b6143d8565b604085015261012084015261436e565b60408051919082016001600160401b038111838210176121dc5760405260006020838281520152565b60405190614961826123c2565b8161496a61492b565b815261497461492b565b6020820152604061498361492b565b910152565b60405190614995826123f9565b60188252776765744261746368526f79616c7479436c6175736573282960401b6020830152565b6102a090818184031261042b5782601f8201121561042b5760408051936149e28561242f565b849383019281841161042b57935b8385106149ff57505050505090565b60608583031261042b578251606091614a17826123c2565b86518252602091828801518382015285880151868201528152019401936149f0565b60405190614a46826123f9565b601f82527f676574526f79616c697479416d6f756e7442617463682875696e7432353629006020830152565b9060e08282031261042b5780601f8301121561042b5760405191614a958361242f565b829060e0810192831161042b57905b828210614ab15750505090565b8151815260209182019101614aa4565b9060078110156107dd5760051b0190565b818102929160008212600160ff1b821416610ca4578184051490151715610ca457565b91600092600092600092600092600092614b0d614954565b614b1683614e05565b825190602082015252614b2883614e7b565b602083015190602082015252614b3d83614eb6565b604083015190602082015252614b71614b62614b5a600354610593565b61159d614988565b602080825183010191016149bc565b92601e5492614b81600454610593565b93602154905b838110614b975750505050505050565b614bd3614bc4604051614bb6816133e686602083019190602083019252565b614bbe614a39565b89615c59565b60208082518301019101614a72565b6001905b83821115614cf05750508215614bf6575b614bf1906127f3565b614b87565b614c15614c0d82614c08602f546108d1565b6109d7565b54809c612a7b565b9a614c2082866128f1565b9060009160408801518051888110614c9a575b5050808311614c92575b82614c47916128f1565b9180614c7c575b5081614c5c575b5050614be8565b9a614c6e614c7492614bf1949d614ad2565b90612a7b565b999038614c55565b9a614c6e829c614c8b93614ad2565b9938614c4e565b915081614c3d565b80861115614ce75750602085915b01614cb381516128b9565b891015614cd85750875b81811115614c3357614cd09294506128f1565b913880614c33565b614ce290516128b9565b614cbd565b60209091614ca8565b909c614d04614cfe8f6128e2565b8a614ac1565b5151158015614daf575b614da557865180518410159081614d96575b508015614d6f575b15614d5357614d47614d4d918f614d41612e44916128e2565b85614ac1565b9d6127f3565b90614bd7565b9c9d614d698f91612e44614d41614d4d946128e2565b9e6127f3565b50602087015180518410159081614d87575b50614d28565b60209150015183111538614d81565b60209150015183111538614d20565b9c614d4d906127f3565b508d614dbd611db2826132cc565b8410159081614dce575b5015614d0e565b614dfc91506040614df3614ded614de7611db2856132cc565b936128e2565b8d614ac1565b510151906128d5565b8311158e614dc7565b906103e7600052603260205260406000208054908115614e75576001821615938415614e6c5760ff60025b168303838111610ca457614e449083612745565b90549060031b1c94600014614e665750614e60611db2926128e2565b90612745565b91505090565b60ff6001614e30565b50508190565b906002600052603260205260406000208054908115614e75576001821615938415614e6c576001198301838111610ca457614e449083612745565b906003600052603260205260406000208054908115614e75576001821615938415614e6c576001198301838111610ca457614e449083612745565b9190614f0e614f05601354601254906128d5565b60395490612a13565b91614f1f82611ae5866014546128d5565b938385118015614fca57614f9e855b94614f4a614f41601754601554906128d5565b603a5490612a13565b9360165491614f5981836128d5565b60009015614fc157506110f0614f98926140fe614f8461410694614f7e600354610593565b936128d5565b604051938491602083019190602083019252565b906128d5565b92828411918215614fbb57835b928115614fb6575090565b905090565b84614fab565b915050906128d5565b614f9e86614f2e565b600090816001815b600f82111561500c575050614fee610855565b548101809111610ca45761299f9092615005610883565b54906128d5565b9093848252603192602093808552604090600282862001548301809311610ca4576003929588865252832001548101809111610ca45761504c90946127f3565b90614fdb565b9061505b612b2b565b91600180821461511857506002808214615118575060038082146151185750600481146150cc5760051461508b57565b90506150956124bc565b6013548152601754602082015260145460408201526016546060820152601254608082015260155460a0820152600060c082015290565b5090506150d76124bc565b601854815260195460208201526150ec610855565b5460408201526150fa610883565b54606082015260006080820152600060a0820152600060c082015290565b919250506151246124bc565b908061512e610855565b015482528061513b6108e1565b015460208301528061514b61090f565b015460408301528061515b610883565b015460608301528061516b61093d565b015460808301528061517b61096b565b015460a083015261518a610999565b015460c082015290565b604051906151a1826123a7565b60006060838281528260208201528260408201520152565b906040516151c6816123a7565b6060600382948054845260018101546020850152600281015460408501520154910152565b6001600160401b0381116121dc5760051b60200190565b80518210156107dd5760209160051b010190565b6154e66101c061247a9261524f61522d8251610593565b600280546001600160a01b0319166001600160a01b0392909216919091179055565b61528161525f6020830151610593565b600380546001600160a01b0319166001600160a01b0392909216919091179055565b6152b36152916040830151610593565b600480546001600160a01b0319166001600160a01b0392909216919091179055565b6152e56152c36060830151610593565b600580546001600160a01b0319166001600160a01b0392909216919091179055565b6153176152f56080830151610593565b600680546001600160a01b0319166001600160a01b0392909216919091179055565b61534961532760a0830151610593565b600780546001600160a01b0319166001600160a01b0392909216919091179055565b61537b61535960c0830151610593565b600880546001600160a01b0319166001600160a01b0392909216919091179055565b6153ad61538b60e0830151610593565b600980546001600160a01b0319166001600160a01b0392909216919091179055565b6153e06153be610100830151610593565b600a80546001600160a01b0319166001600160a01b0392909216919091179055565b6154136153f1610120830151610593565b600b80546001600160a01b0319166001600160a01b0392909216919091179055565b615446615424610140830151610593565b600c80546001600160a01b0319166001600160a01b0392909216919091179055565b615479615457610160830151610593565b600d80546001600160a01b0319166001600160a01b0392909216919091179055565b6154ac61548a610180830151610593565b600e80546001600160a01b0319166001600160a01b0392909216919091179055565b6154df6154bd6101a0830151610593565b600f80546001600160a01b0319166001600160a01b0392909216919091179055565b0151610593565b601080546001600160a01b0319166001600160a01b0392909216919091179055565b615516611ecd600054610593565b604051634bf9c0ad60e11b815290602082600481845afa918215611f8357600092615a19575b5060405163cfbffe5360e01b815291602083600481855afa928315611f83576000936159f8575b5060405163ab6e844f60e01b815290602082600481865afa918215611f83576000926159d7575b50604051630536340960e21b815291602083600481875afa928315611f83576000936159b6575b5060405163d1f956b160e01b815292602084600481885afa938415611f8357600094615995575b50604051631cc3bfab60e31b815293602085600481895afa948515611f8357600095615974575b5060405163e09d394d60e01b81526020816004818a5afa908115611f8357600091615955575b506040516314ac1b5960e21b81526020816004818b5afa908115611f8357600091615936575b5060405163013cf08b60e01b815260006004820152916020836024818c5afa928315611f8357600093615915575b50604051635e09dbe760e01b8152976020896004818d5afa948515611f83576004996000966158f4575b50604051635506ee0b60e11b8152996020908b90818e5afa968715611f835760049a6000986158d3575b50604051636402742760e01b81529a6020908c90818f5afa988915611f835760049b60009a6158b2575b5060208d6040519d8e80926330125cf560e01b82525afa9a8b15611f83578d60049d60009d615890575b506020906040519e8f80926324768d9160e01b82525afa9c8d15611f835760009d61586f575b506040516313b92d3560e31b81529d8e9081905a92600491602094fa9d8e15611f835760009e61584e575b5061577b61249c565b9e8f9161578890836128fe565b61579590602083016128fe565b604001906157a2916128fe565b6157af9060608e016128fe565b6157bc9060808d016128fe565b6157c99060a08c016128fe565b6157d69060c08b016128fe565b6157e39060e08a016128fe565b6157f19061010089016128fe565b6157ff9061012088016128fe565b61580d9061014087016128fe565b61581b9061016086016128fe565b6158299061018085016128fe565b615837906101a084016128fe565b615845906101c083016128fe565b61247a90615216565b615868919e5060203d602011611f7c57611f6e818361244a565b9c38615772565b615889919d5060203d602011611f7c57611f6e818361244a565b9b38615747565b6020919d506158ab90823d8411611f7c57611f6e818361244a565b9c90615721565b6158cc919a5060203d602011611f7c57611f6e818361244a565b98386156f7565b6158ed91985060203d602011611f7c57611f6e818361244a565b96386156cd565b61590e91965060203d602011611f7c57611f6e818361244a565b94386156a3565b61592f91935060203d602011611f7c57611f6e818361244a565b9138615679565b61594f915060203d602011611f7c57611f6e818361244a565b3861564b565b61596e915060203d602011611f7c57611f6e818361244a565b38615625565b61598e91955060203d602011611f7c57611f6e818361244a565b93386155ff565b6159af91945060203d602011611f7c57611f6e818361244a565b92386155d8565b6159d091935060203d602011611f7c57611f6e818361244a565b91386155b1565b6159f191925060203d602011611f7c57611f6e818361244a565b903861558a565b615a1291935060203d602011611f7c57611f6e818361244a565b9138615563565b615a3391925060203d602011611f7c57611f6e818361244a565b903861553c565b9081602091031261042b575161299f81610673565b600254604051615a97916001600160a01b031690615a6c816123f9565b6008815267697353616665282960c01b602082015260405191615a8e83612414565b60008352615c84565b9080615ab6575b15610657578060208061299f93518301019101615a3a565b506020815114615a9e565b615b1b60018060a01b038060025416604051916020941684830152838252615ae8826123f9565b60405190615af5826123f9565b601582527469735365637572654261736528616464726573732960581b85830152615c84565b9080615b38575b15610657578161299f9282518301019101615a3a565b5081815114615b22565b60035460405161299f916001600160a01b031690615b5f816123f9565b600681526569416765282960d01b60208201526040519161141183612414565b6001600160a01b0390811690811561076c57600180546001600160a01b031981168417909155167f8292fce18fa69edf4db7b94ea2e58241df0ae57f97e0a6c9b29067028bf92d76600080a3565b3d15615bf8573d90615bde826124c9565b91615bec604051938461244a565b82523d6000602084013e565b606090565b908015612f3c576001600160a01b03821691821561076c57600080808481945af1615c26615bcd565b50156106575760207fcec1f18c3ab8ddaaa107a1591e3c369667eec613626611a8deaedef43069fcdd91604051908152a2565b90615c649291615c84565b9060009015615c71575090565b6040519150615c7f82612414565b815290565b9190823b15615d02578051906020918263ffffffff60e01b92012016916040519180830193845281519160005b838110615cee575050509181615cde6024826000979596889701878382015203600481018452018261244a565b51915afa615cea615bcd565b9091565b818101830151858201602401528201615cb1565b505050600090604051615d1481612414565b6000815290565b9291615d2991600094615c84565b9080615d5b575b615d375750565b80519192506001600160a01b0391615d579160209181018201910161298a565b1690565b506020815114615d30565b9291615d7491600094615c84565b9080615d97575b615d825750565b61299f91925060208082518301019101615a3a565b506020815114615d7b565b9291615db091600094615c84565b9080615dd3575b615dbe5750565b61299f91925060208082518301019101613de0565b506020815114615db7565b9291615dec91600094615c84565b9080615e11575b615dfa5750565b90915060208180518101031261042b576020015190565b506020815114615df3565b906020825192015163ffffffff60e01b908181169360048110615e3e57505050565b60040360031b82901b16169150565b6001600160a01b0381161561076c57600080918351908260208601915af190615e74615bcd565b9115615e7e575090565b805160009190600411615ec957615e959150615e1c565b815115615ea55750805190602001fd5b604051630870274d60e21b81526001600160e01b0319919091166004820152602490fd5b50615e95565b803b6000615edc826124c9565b92615eea604051948561244a565b82845260208401903c602d81511061077e57602a015160601c9056fe1517c86fcf2bfb8e3468afcc539b0004955da8027797c497ea51d1f1094ab898b359d8408cffc6b8788774a87b59f0d5be825576ea5fdd7b0917fed6a07e80304a392a5ba0654924db65f19538db6461a3d6763bf0797df25c3b2d5e7c8c7cefa2646970667358221220c9c1ca1f3277c82c724fae38f148b9e240a272856039a0f9e499804dd8756b7864736f6c63430008140033","linkReferences":{}},"methodIdentifiers":{"Burn(uint256)":"b90306ad","BurnCoin(uint256,uint256)":"a5d7cda4","LSB(uint256,uint256)":"6f493aad","_delegatorCount()":"a1f7f539","_getImplementation(address)":"c54e44b0","_isDelegatorNode(address)":"e01ad5fd","_isSafe()":"e0a9bc2b","_isSecureBase(address)":"af484526","_isSigner(address)":"1f185d16","_txnType7(uint256,uint256)":"02a085f2","_txnType_1_0(address,uint256,uint256,uint256,uint256,uint256)":"a6630304","activedirectsCount()":"799e4c45","addLevelnGetRank(uint256,uint256,uint256,uint256,uint256,bool)":"822ffec4","bonus()":"75b4d78c","cage()":"69245009","currentCycle()":"bab2f552","currentLSBversion()":"43a1b5ab","dage()":"725b6fff","getAllComputeData(uint256)":"b9f1a394","getAllData(uint256,uint256)":"12964120","getBalance()":"12065fe0","getHexbase()":"3b9b7955","getNodeLB(uint256)":"da021335","getNodeLvlInfoBatch(uint256,uint256)":"759f22bd","getRankAgeInBatch()":"6de97c66","getRankWithAgeValue()":"29ee350e","getToggleAgeCount(uint256)":"143ec3b7","getToggleAgeValue(uint256,uint256)":"043719b4","id()":"af640d0f","importOld(uint256)":"d3abb8a3","isLock()":"09d8da2e","mintCount()":"9659867e","mints(uint256)":"6350b2c2","moveLvlIncome(uint256,uint256,uint256,uint256,bool)":"7b058ac1","owner()":"8da5cb5b","postInit()":"4a65786c","preinit(address,address,uint256,bool)":"2697a77a","rank()":"934209ce","resetRank()":"ab57c03a","setActivedirect(bool)":"711e5870","setBonus(uint256)":"0b98f975","setLock(bool)":"619d5194","setSuspend(uint256,bool)":"c8ef7b1a","setburnclaimdollar(uint256,uint256)":"654c668e","storcache()":"5ecf6a8a","syncBaseAddr()":"339459a6","systemAge()":"fdc10bc9","updateOwner(address)":"880cdc31","userCycleMintCount(uint256)":"39b4d61b","withdrawlDage()":"a9bf285b"},"id":1}