{"abi":[{"type":"constructor","inputs":[{"name":"_f","type":"address","internalType":"address"}],"stateMutability":"nonpayable"},{"type":"function","name":"isImport","inputs":[{"name":"","type":"address","internalType":"address"}],"outputs":[{"name":"","type":"bool","internalType":"bool"}],"stateMutability":"view"},{"type":"function","name":"owner","inputs":[],"outputs":[{"name":"","type":"address","internalType":"address"}],"stateMutability":"view"},{"type":"function","name":"swap","inputs":[{"name":"user","type":"address[]","internalType":"address[]"},{"name":"parent","type":"address[]","internalType":"address[]"},{"name":"_bal","type":"uint256[]","internalType":"uint256[]"},{"name":"_nft","type":"uint256[]","internalType":"uint256[]"},{"name":"_stop","type":"bool[]","internalType":"bool[]"}],"outputs":[],"stateMutability":"payable"}],"bytecode":{"object":"0x608060405234801561001057600080fd5b506040516106eb3803806106eb83398101604081905261002f91610062565b60018054336001600160a01b031991821617909155600080549091166001600160a01b0392909216919091179055610092565b60006020828403121561007457600080fd5b81516001600160a01b038116811461008b57600080fd5b9392505050565b61064a806100a16000396000f3fe6080604052600436106100345760003560e01c80632b1f58441461003957806340bd08241461004e5780638da5cb5b14610093575b600080fd5b61004c6100473660046104e3565b6100cb565b005b34801561005a57600080fd5b5061007e6100693660046105b5565b60026020526000908152604090205460ff1681565b60405190151581526020015b60405180910390f35b34801561009f57600080fd5b506001546100b3906001600160a01b031681565b6040516001600160a01b03909116815260200161008a565b6001546001600160a01b031633146101195760405162461bcd60e51b815260206004820152600c60248201526b1d5b985d5d1a1bdc9a5e995960a21b60448201526064015b60405180910390fd5b60005b855181101561031d576002600087838151811061013b5761013b6105d7565b6020908102919091018101516001600160a01b031682528101919091526040016000205460ff16156101af5760405162461bcd60e51b815260206004820152601960248201527f616c726561647920696d706f7274656420696e20466f726765000000000000006044820152606401610110565b60005486516001600160a01b0390911690636c030c4f908890849081106101d8576101d86105d7565b60200260200101518784815181106101f2576101f26105d7565b602002602001015186858151811061020c5761020c6105d7565b6020026020010151888681518110610226576102266105d7565b6020026020010151878781518110610240576102406105d7565b60209081029190910101516040516001600160e01b031960e088901b1681526001600160a01b039586166004820152949093166024850152604484019190915260648301521515608482015260a401600060405180830381600087803b1580156102a957600080fd5b505af11580156102bd573d6000803e3d6000fd5b505050506001600260008884815181106102d9576102d96105d7565b6020908102919091018101516001600160a01b03168252810191909152604001600020805460ff191691151591909117905580610315816105ed565b91505061011c565b505050505050565b634e487b7160e01b600052604160045260246000fd5b604051601f8201601f1916810167ffffffffffffffff8111828210171561036457610364610325565b604052919050565b600067ffffffffffffffff82111561038657610386610325565b5060051b60200190565b80356001600160a01b03811681146103a757600080fd5b919050565b600082601f8301126103bd57600080fd5b813560206103d26103cd8361036c565b61033b565b82815260059290921b840181019181810190868411156103f157600080fd5b8286015b848110156104135761040681610390565b83529183019183016103f5565b509695505050505050565b600082601f83011261042f57600080fd5b8135602061043f6103cd8361036c565b82815260059290921b8401810191818101908684111561045e57600080fd5b8286015b848110156104135780358352918301918301610462565b600082601f83011261048a57600080fd5b8135602061049a6103cd8361036c565b82815260059290921b840181019181810190868411156104b957600080fd5b8286015b8481101561041357803580151581146104d65760008081fd5b83529183019183016104bd565b600080600080600060a086880312156104fb57600080fd5b853567ffffffffffffffff8082111561051357600080fd5b61051f89838a016103ac565b9650602088013591508082111561053557600080fd5b61054189838a016103ac565b9550604088013591508082111561055757600080fd5b61056389838a0161041e565b9450606088013591508082111561057957600080fd5b61058589838a0161041e565b9350608088013591508082111561059b57600080fd5b506105a888828901610479565b9150509295509295909350565b6000602082840312156105c757600080fd5b6105d082610390565b9392505050565b634e487b7160e01b600052603260045260246000fd5b60006001820161060d57634e487b7160e01b600052601160045260246000fd5b506001019056fea2646970667358221220303617e613dec702f013f9a5084624307f52832a7758113c0d11aba40564cfea64736f6c63430008140033","linkReferences":{}},"methodIdentifiers":{"isImport(address)":"40bd0824","owner()":"8da5cb5b","swap(address[],address[],uint256[],uint256[],bool[])":"2b1f5844"},"id":0}