{"abi":[{"type":"constructor","inputs":[{"name":"_hex","type":"address","internalType":"address"}],"stateMutability":"nonpayable"},{"type":"fallback","stateMutability":"payable"},{"type":"receive","stateMutability":"payable"},{"type":"function","name":"Burn","inputs":[{"name":"amount","type":"uint256","internalType":"uint256"}],"outputs":[],"stateMutability":"nonpayable"},{"type":"function","name":"UserToForm","inputs":[{"name":"","type":"address","internalType":"address"}],"outputs":[{"name":"","type":"uint256","internalType":"uint256"}],"stateMutability":"view"},{"type":"function","name":"Withdraw","inputs":[],"outputs":[],"stateMutability":"nonpayable"},{"type":"function","name":"_delegatorCount","inputs":[],"outputs":[{"name":"","type":"uint256","internalType":"uint256"}],"stateMutability":"view"},{"type":"function","name":"_getImplementation","inputs":[{"name":"clone","type":"address","internalType":"address"}],"outputs":[{"name":"impl","type":"address","internalType":"address"}],"stateMutability":"view"},{"type":"function","name":"_isDelegatorNode","inputs":[{"name":"sender","type":"address","internalType":"address"}],"outputs":[{"name":"","type":"bool","internalType":"bool"}],"stateMutability":"view"},{"type":"function","name":"_isSafe","inputs":[],"outputs":[{"name":"","type":"bool","internalType":"bool"}],"stateMutability":"view"},{"type":"function","name":"_isSecureBase","inputs":[{"name":"sender","type":"address","internalType":"address"}],"outputs":[{"name":"","type":"bool","internalType":"bool"}],"stateMutability":"view"},{"type":"function","name":"_isSigner","inputs":[{"name":"sender","type":"address","internalType":"address"}],"outputs":[{"name":"","type":"bool","internalType":"bool"}],"stateMutability":"view"},{"type":"function","name":"actualTVL","inputs":[],"outputs":[{"name":"","type":"uint256","internalType":"uint256"}],"stateMutability":"view"},{"type":"function","name":"closeTransferTarget","inputs":[{"name":"to","type":"address","internalType":"address"}],"outputs":[],"stateMutability":"nonpayable"},{"type":"function","name":"currentRefreshId","inputs":[],"outputs":[{"name":"","type":"uint256","internalType":"uint256"}],"stateMutability":"view"},{"type":"function","name":"forms","inputs":[{"name":"","type":"uint256","internalType":"uint256"}],"outputs":[{"name":"from","type":"address","internalType":"address"},{"name":"to","type":"address","internalType":"address"}],"stateMutability":"view"},{"type":"function","name":"getBalance","inputs":[],"outputs":[{"name":"","type":"uint256","internalType":"uint256"}],"stateMutability":"view"},{"type":"function","name":"getForm","inputs":[{"name":"formId","type":"uint256","internalType":"uint256"}],"outputs":[{"name":"from","type":"address","internalType":"address"},{"name":"to","type":"address","internalType":"address"}],"stateMutability":"view"},{"type":"function","name":"getFormsCount","inputs":[],"outputs":[{"name":"","type":"uint256","internalType":"uint256"}],"stateMutability":"view"},{"type":"function","name":"getHexbase","inputs":[],"outputs":[{"name":"","type":"address","internalType":"address"}],"stateMutability":"view"},{"type":"function","name":"getImportedNodeByIndex","inputs":[{"name":"index","type":"uint256","internalType":"uint256"}],"outputs":[{"name":"node","type":"address","internalType":"address"}],"stateMutability":"view"},{"type":"function","name":"getUserOldData","inputs":[{"name":"user","type":"address","internalType":"address"}],"outputs":[{"name":"uold","type":"tuple","internalType":"struct TransferRequests.UserOldDataStr","components":[{"name":"rwrd","type":"uint256","internalType":"uint256"},{"name":"royl","type":"uint256","internalType":"uint256"},{"name":"self","type":"uint256","internalType":"uint256"},{"name":"yei","type":"uint256","internalType":"uint256"},{"name":"tour1","type":"uint256","internalType":"uint256"},{"name":"tour2","type":"uint256","internalType":"uint256"},{"name":"tvl","type":"uint256","internalType":"uint256"},{"name":"claimeddollar","type":"uint256","internalType":"uint256"},{"name":"oldRWRD","type":"uint256","internalType":"uint256"},{"name":"oldYEILD","type":"uint256","internalType":"uint256"},{"name":"exists","type":"bool","internalType":"bool"}]}],"stateMutability":"view"},{"type":"function","name":"getimportedNodeCount","inputs":[],"outputs":[{"name":"nodesCount","type":"uint256","internalType":"uint256"}],"stateMutability":"view"},{"type":"function","name":"importRankBusiness","inputs":[{"name":"_fromAge","type":"uint256","internalType":"uint256"},{"name":"_toAge","type":"uint256","internalType":"uint256"}],"outputs":[],"stateMutability":"nonpayable"},{"type":"function","name":"importedNode","inputs":[{"name":"","type":"uint256","internalType":"uint256"}],"outputs":[{"name":"","type":"address","internalType":"address"}],"stateMutability":"view"},{"type":"function","name":"owner","inputs":[],"outputs":[{"name":"","type":"address","internalType":"address"}],"stateMutability":"view"},{"type":"function","name":"refreshusers","inputs":[{"name":"batchSize","type":"uint256","internalType":"uint256"},{"name":"maxintervals","type":"uint256","internalType":"uint256"},{"name":"lastdays","type":"uint256","internalType":"uint256"}],"outputs":[],"stateMutability":"nonpayable"},{"type":"function","name":"resolveParent","inputs":[{"name":"","type":"address","internalType":"address"}],"outputs":[{"name":"","type":"address","internalType":"address"}],"stateMutability":"view"},{"type":"function","name":"resolveTransferTarget","inputs":[{"name":"to","type":"address","internalType":"address"}],"outputs":[{"name":"","type":"address","internalType":"address"}],"stateMutability":"view"},{"type":"function","name":"setsysdata","inputs":[{"name":"price","type":"uint256","internalType":"uint256"},{"name":"prevAge","type":"uint256","internalType":"uint256"},{"name":"cnt","type":"uint256[7]","internalType":"uint256[7]"}],"outputs":[],"stateMutability":"nonpayable"},{"type":"function","name":"setsysdatawithrefresh","inputs":[{"name":"batchSize","type":"uint256","internalType":"uint256"},{"name":"maxintervals","type":"uint256","internalType":"uint256"},{"name":"lastdays","type":"uint256","internalType":"uint256"},{"name":"price","type":"uint256","internalType":"uint256"},{"name":"prevAge","type":"uint256","internalType":"uint256"},{"name":"cnt","type":"uint256[7]","internalType":"uint256[7]"}],"outputs":[],"stateMutability":"nonpayable"},{"type":"function","name":"submitTransferForm","inputs":[{"name":"_from","type":"address","internalType":"address"},{"name":"_to","type":"address","internalType":"address"}],"outputs":[],"stateMutability":"nonpayable"},{"type":"function","name":"syncBaseAddr","inputs":[],"outputs":[],"stateMutability":"nonpayable"},{"type":"function","name":"syncSystem","inputs":[],"outputs":[],"stateMutability":"nonpayable"},{"type":"function","name":"syncusers","inputs":[{"name":"batchSize","type":"uint256","internalType":"uint256"}],"outputs":[],"stateMutability":"nonpayable"},{"type":"function","name":"systemAge","inputs":[],"outputs":[{"name":"","type":"uint256","internalType":"uint256"}],"stateMutability":"view"},{"type":"function","name":"updateData1","inputs":[{"name":"users","type":"address[]","internalType":"address[]"},{"name":"tvls","type":"uint256[]","internalType":"uint256[]"},{"name":"claimdollar","type":"uint256[]","internalType":"uint256[]"},{"name":"tour1","type":"uint256[]","internalType":"uint256[]"},{"name":"tour2","type":"uint256[]","internalType":"uint256[]"},{"name":"action","type":"uint256","internalType":"uint256"}],"outputs":[],"stateMutability":"nonpayable"},{"type":"function","name":"updateData2","inputs":[{"name":"users","type":"address[]","internalType":"address[]"},{"name":"rwrd","type":"uint256[]","internalType":"uint256[]"},{"name":"royl","type":"uint256[]","internalType":"uint256[]"},{"name":"self","type":"uint256[]","internalType":"uint256[]"},{"name":"yei","type":"uint256[]","internalType":"uint256[]"},{"name":"action","type":"uint256","internalType":"uint256"}],"outputs":[],"stateMutability":"nonpayable"},{"type":"event","name":"EthBurned","inputs":[{"name":"sender","type":"address","indexed":true,"internalType":"address"},{"name":"amount","type":"uint256","indexed":false,"internalType":"uint256"}],"anonymous":false},{"type":"event","name":"EthTransferred","inputs":[{"name":"to","type":"address","indexed":true,"internalType":"address"},{"name":"amount","type":"uint256","indexed":false,"internalType":"uint256"}],"anonymous":false},{"type":"event","name":"HexBaseUpdated","inputs":[{"name":"previousHexBase","type":"address","indexed":true,"internalType":"address"},{"name":"newHexBase","type":"address","indexed":true,"internalType":"address"}],"anonymous":false},{"type":"event","name":"OwnerUpdated","inputs":[{"name":"previousOwner","type":"address","indexed":true,"internalType":"address"},{"name":"newOwner","type":"address","indexed":true,"internalType":"address"}],"anonymous":false},{"type":"error","name":"CallFailed","inputs":[]},{"type":"error","name":"InvalidAddress","inputs":[]},{"type":"error","name":"InvalidState","inputs":[]},{"type":"error","name":"NotAuthorized","inputs":[]},{"type":"error","name":"NotSafe","inputs":[]},{"type":"error","name":"ProposerInvalidFormId","inputs":[]},{"type":"error","name":"ProposerToExists","inputs":[]},{"type":"error","name":"ProxyInvalidInstance","inputs":[]},{"type":"error","name":"ProxyInvalidNode","inputs":[]},{"type":"error","name":"ProxyInvalidStor","inputs":[]},{"type":"error","name":"ReentrancyGuardReentrantCall","inputs":[]},{"type":"error","name":"TargetCallFailed","inputs":[{"name":"selector","type":"bytes4","internalType":"bytes4"}]},{"type":"error","name":"UtilityBatchInvalid","inputs":[]},{"type":"error","name":"UtilityBatchLimitExceeded","inputs":[]},{"type":"error","name":"UtilityImportDone","inputs":[]},{"type":"error","name":"UtilityUnsecureFailed","inputs":[]}],"bytecode":{"object":"0x608034620000a357601f620037d138819003918201601f19168301916001600160401b03831184841017620000a857808492602094604052833981010312620000a357516001600160a01b03811690819003620000a3578015620000915760018060a01b03193381600154161760015560005416176000556001600d5560016013556040516137129081620000bf8239f35b60405163e6c4247b60e01b8152600490fd5b600080fd5b634e487b7160e01b600052604160045260246000fdfe60806040526004361015610018575b361561001657005b005b60003560e01c8063083d69381461024857806312065fe0146102435780631480a85b1461023e57806318c864e3146102395780631f185d161461023457806323b0586f1461022f578063339459a61461022a5780633b9b795514610225578063479fa2c3146102205780634ef260a91461021b57806355ed5fee1461021657806357ea89b61461021157806385301b861461020c5780638d6edc14146102075780638da5cb5b1461020257806396970c96146101fd578063a1f7f539146101f8578063ab7e46ae146101f3578063ac233345146101ee578063add43bca146101e9578063af484526146101e4578063b3cea918146101df578063b8f1759a146101da578063b90306ad146101d5578063c1e6cec2146101d0578063c54e44b0146101cb578063c9a29150146101c6578063cab3cc8d146101c1578063e01ad5fd146101bc578063e0a9bc2b146101b7578063e846034a146101b2578063e981bcad146101ad578063ed6c1b58146101a8578063f245fe7a146101a35763fdc10bc90361000e576121a1565b611d08565b611bae565b611afb565b611add565b611ac2565b6119fb565b6119dd565b61197d565b61190f565b6118d2565b6117ea565b6117a1565b6116d1565b611621565b6115c0565b611587565b61153e565b6114d4565b611495565b61141e565b611400565b6112ad565b611090565b611072565b610fa6565b610f4e565b610f25565b610b5f565b61085c565b610799565b61074c565b6104ea565b6104b1565b61031c565b9181601f8401121561027d578235916001600160401b03831161027d576020808501948460051b01011161027d57565b600080fd5b60c060031982011261027d576004906001600160401b03823581811161027d57826102ae91850161024d565b9490949360243583811161027d57846102c891830161024d565b9490949360443581811161027d57826102e291850161024d565b9490949360643583811161027d57846102fc91830161024d565b9490949360843590811161027d57610314920161024d565b909160a43590565b3461027d5761032a36610282565b9661033b99919693989295996121e0565b6103436132c5565b156104945761035133613337565b8015610480575b1561046e5761036d61036930613337565b1590565b61045c5760049660206103896103846000546104cd565b6104cd565b60405163111ea8c160e21b8152998a9182905afa97881561045757600098610427575b5060005b8381106103c1576100166001600d55565b806104218b8f8f8f8b8f938f938f93998b8f938f8f9d61040c60019f61041a97610405888096936103ff6103fa8380976104139c612da9565b612db9565b9c612da9565b359a612da9565b3598612da9565b3596612da9565b3594612e78565b016103b0565b61044991985060203d8111610450575b61044181836111e6565b8101906121bc565b96386103ac565b503d610437565b6121d4565b6040516327e23e1560e11b8152600490fd5b60405163ea8e4eb560e01b8152600490fd5b506005546001600160a01b03163314610358565b604051634ee2123760e11b8152600490fd5b600091031261027d57565b3461027d57600036600319011261027d57602047604051908152f35b6001600160a01b031690565b6001600160a01b0381160361027d57565b3461027d5760408060031936011261027d5760049081359161050b836104d9565b60243591610518836104d9565b6001600160a01b0384811680156106e957818516156106e957331415806106d7575b806106c0575b6106b25761054d84611447565b546106a457600161055c612267565b50610567878261229a565b0194610573858761229a565b610585610384610384848754166104cd565b8351630dda4f8160e11b8152602095918690829081806105a788828901610f12565b03915afa80156104575761038487956105dc610384936105fe9b6105e496600092610681575b506105d790611461565b61229a565b8454166104cd565b908451809781948293630e5fd00b60e01b84528301610f12565b03915afa9081156104575761064993600092610662575b505163641657cb60e01b928101929092526001602483015261064482604481015b03601f1981018452836111e6565b613628565b5061065f61065a60115492546104cd565b611447565b55005b61067a919250833d85116104505761044181836111e6565b9038610615565b6105d791925061069d908b3d8d116104505761044181836111e6565b91906105cd565b50516314973f6d60e31b8152fd5b505163ea8e4eb560e01b8152fd5b50336106d06103846005546104cd565b1415610540565b506106e461036933613337565b61053a565b50505163e6c4247b60e01b8152fd5b634e487b7160e01b600052603260045260246000fd5b60115481101561072d57601160005260206000209060011b0190600090565b6106f8565b6001600160a01b0391821681529116602082015260400190565b3461027d57602036600319011261027d5760043560115481101561027d576107739061070e565b5060018060a01b03600181835416920154169061079560405192839283610732565b0390f35b3461027d5760208060031936011261027d5761080c6004356107ba816104d9565b6002546040516001600160a01b039283168582015284815291166107dd82611195565b604051906107ea82611195565b601182527069735369676e657228616464726573732960781b858301526134fc565b919080610852575b1561084057818161082e92610795945183010191016132b1565b60405190151581529081906020820190565b604051633204506f60e01b8152600490fd5b5080825114610814565b3461027d5761086a36610282565b61087f9a98919a9792979693969594956121e0565b6108876132c5565b156104945761089533613337565b8015610b4b575b1561046e576108b26108ad30613337565b612fca565b6108c06103846000546104cd565b6004602060409283519283809263111ea8c160e21b82525afa90811561045757600091610b2c575b5060005b8c81106108fd576100166001600d55565b61090b6103fa828f8f612da9565b6109406103848551610932816109248660208301610f12565b03601f1981018352826111e6565b61093a612dc3565b866135ad565b15610b1b5790818f92826109dc948f8f8f8f8f8f8f8f61096f610369600a6109678e61147b565b015460ff1690565b610af5575b806109e15750936109ae896109c1958199979560039d6109a86109a16109d49f6109cd9f9d99819b612da9565b359161147b565b55612da9565b3560016109ba8d61147b565b0155612da9565b3560026109ba8961147b565b359261147b565b01555b6123bc565b6108ec565b60019493929190858103610a61575094610a5a9a610a34610a3b9996610a42610a3b8e60039f9c9799610a429f9c99610a1f83610a4b9d819d612da9565b35610a34610a2c8a61147b565b9182546123af565b9055612da9565b359361147b565b019182546123af565b35610a346002610a428b61147b565b90556123bc565b93979492989599969a506002809414610a86575b5050505050505050505050506123bc565b610ade9a60039a8d610a34610a3496610aca610a3b610aca9f610a3b9f8f9991610ab58b610ad39d8195612da9565b35610a34610ac28a61147b565b9182546122de565b019182546122de565b3591610aca8b61147b565b9055388f8b8a8f8f9386908f92878f8f8190610a75565b610b16610b00612203565b6001610140820152610b118d61147b565b612df2565b610974565b835163ea8e4eb560e01b8152600490fd5b610b45915060203d6020116104505761044181836111e6565b386108e8565b506005546001600160a01b0316331461089c565b3461027d57600080600319360112610f0f57610b7e61038482546104cd565b60408051634bf9c0ad60e11b81529160049190602080858581855afa948515610457578695610ef0575b50825163cfbffe5360e01b81529281848681865afa938415610457578794610ed1575b50805163ab6e844f60e01b815282818781875afa908115610457578891610eb4575b508151630536340960e21b815283818881885afa908115610457578991610e97575b50825163d1f956b160e01b81529084828981895afa918215610457578a92610e78575b508351631cc3bfab60e31b81529285848a818a5afa938415610457578b94610e59575b50845163e09d394d60e01b81529486868b818b5afa958615610457578c96610e3a575b5080516314ac1b5960e21b815298878a8c818c5afa97881561045757610cbf9a8e99610e1b575b50808c8451809d819263013cf08b60e01b83528201906000602083019252565b03818d5afa998a15610457578c9b8f9b610dfc575b50818451809d635e09dbe760e01b825281845afa9b8c15610457578f9c610ddb575b50819084519d8e8092635506ee0b60e11b82525afa9b8c15610457578e9c610dbc575b50610d22611209565b9c610d2d908e61307c565b8c0190610d399161307c565b8a0190610d459161307c565b610d529060608a0161307c565b610d5f906080890161307c565b610d6c9060a0880161307c565b610d799060c0870161307c565b610d869060e0860161307c565b610d9490610100850161307c565b610da290610120840161307c565b610db090610140830161307c565b610db99061308b565b80f35b81610dd4929d508d3d106104505761044181836111e6565b9a38610d19565b82919c50610df590823d84116104505761044181836111e6565b9b90610cf6565b610e14919b50823d84116104505761044181836111e6565b9938610cd4565b81610e33929a503d8b116104505761044181836111e6565b9738610c9f565b610e52919650873d89116104505761044181836111e6565b9438610c78565b610e71919450863d88116104505761044181836111e6565b9238610c55565b610e90919250853d87116104505761044181836111e6565b9038610c32565b610eae9150843d86116104505761044181836111e6565b38610c0f565b610ecb9150833d85116104505761044181836111e6565b38610bed565b610ee9919450823d84116104505761044181836111e6565b9238610bcb565b81610f089296503d87116104505761044181836111e6565b9338610ba8565b80fd5b6001600160a01b03909116815260200190565b3461027d57600036600319011261027d576000546040516001600160a01b039091168152602090f35b3461027d57602036600319011261027d5760043580158015610f9b575b610f89576000198101908111610f84576107739061070e565b6122b9565b604051634ba3caa560e11b8152600490fd5b506011548111610f6b565b3461027d57602036600319011261027d57600435610fc3816104d9565b336001600160a01b038216141580611060575b80611049575b61046e57610fe981611447565b548015158061103d575b610ff957005b6100169161101161100c61102d936122cf565b61070e565b5050600061101e82611447565b5561102881612340565b611461565b80546001600160a01b0319169055565b50601154811115610ff3565b50336110596103846005546104cd565b1415610fdc565b5061106d61036933613337565b610fd6565b3461027d57600036600319011261027d576020601354604051908152f35b3461027d57600080600319360112610f0f576110aa6132c5565b15610494576110b833613337565b8015611153575b1561046e576110cc6121e0565b600460206110dd61038484546104cd565b60405163de433f1760e01b815292839182905afa908115610457578280809381938291611135575b5047908290821561112b575b6001600160a01b031690f11561045757610db96001600d55565b6108fc9150611111565b61114d915060203d81116104505761044181836111e6565b38611105565b506005546001600160a01b031633146110bf565b634e487b7160e01b600052604160045260246000fd5b6001600160401b03811161119057604052565b611167565b604081019081106001600160401b0382111761119057604052565b60e081019081106001600160401b0382111761119057604052565b602081019081106001600160401b0382111761119057604052565b601f909101601f19168101906001600160401b0382119082101761119057604052565b6040519061016082016001600160401b0381118382101761119057604052565b806063121561027d576040519061123f826111b0565b8161012491821161027d576044905b82821061125b5750505090565b813581526020918201910161124e565b8060c3121561027d5760405190611281826111b0565b8161018491821161027d5760a4905b82821061129d5750505090565b8135815260209182019101611290565b3461027d5761012036600319011261027d576112c836611229565b6112d06121e0565b6112d86132c5565b15610494576112e633613337565b80156113ec575b1561046e576004600091602061130661038485546104cd565b6040516369e8d84b60e11b815293849182905afa9182156104575783926113559184916113ce575b506040516315ec7fad60e01b60208201526004356024820152906106448260448101610636565b5061136a6103846103846103846004546104cd565b90813b156113ca57829161139791604051948580948193637818cdd760e01b835260243560048401613045565b03925af18015610457576113b1575b50610db96001600d55565b806113be6113c49261117d565b806104a6565b386113a6565b5050fd5b6113e6915060203d81116104505761044181836111e6565b3861132e565b506005546001600160a01b031633146112ed565b3461027d57600036600319011261027d576020601454604051908152f35b3461027d57600036600319011261027d576001546040516001600160a01b039091168152602090f35b6001600160a01b03166000908152600f6020526040902090565b6001600160a01b0316600090815260106020526040902090565b6001600160a01b03166000908152600e6020526040902090565b3461027d57602036600319011261027d5760206004356114b4816104d9565b60018060a01b038091166000526010825260406000205416604051908152f35b3461027d57600036600319011261027d57602061153660018060a01b036006541660405161150181611195565b601381527267657464656c656761746f72436f756e74282960681b848201526040519161152d836111cb565b600083526135bb565b604051908152f35b3461027d57602036600319011261027d5760043560125481101561027d5760126000526000805160206136bd83398151915201546040516001600160a01b039091168152602090f35b3461027d57602036600319011261027d5760206115ae6004356115a9816104d9565b6122eb565b6040516001600160a01b039091168152f35b3461027d57602036600319011261027d576115d96121e0565b6115e16132c5565b15610494576115ef33613337565b801561160d575b1561046e576116066004356127d0565b6001600d55005b506005546001600160a01b031633146115f6565b3461027d57602036600319011261027d576020611648600435611643816104d9565b613337565b6040519015158152f35b6116cf90929192610160810193805182526020810151602083015260408101516040830152606081015160608301526080810151608083015260a081015160a083015260c081015160c083015260e081015160e0830152610100808201519083015261012080820151908301526101408091015191019015159052565b565b3461027d57602036600319011261027d576004356116ee816104d9565b6116f6612203565b506001600160a01b03166000908152600e602052604090206107959061179561178b600a611722611209565b938054855260018101546020860152600281015460408601526003810154606086015260048101546080860152600581015460a0860152600681015460c0860152600781015460e086015260088101546101008601526009810154610120860152015460ff1690565b1515610140830152565b60405191829182611652565b3461027d57602036600319011261027d5760043560125481101561072d5760126000526000805160206136bd83398151915201546040516001600160a01b039091168152602090f35b3461027d57602036600319011261027d576004356118066132c5565b15610494576005546001600160a01b0316330361046e576000906004602061183161038485546104cd565b6040516311be646b60e21b815292839182905afa801561045757838084819493829483916118b4575b505af16118656133f5565b5015610840577fcdcc745fe377b103b45fa0cec23ae3ef93d6fc6a84a01f0d18c40b354dd1d5d86118ae61189d610384600b546104cd565b604051938452929081906020820190565b0390a280f35b6118cc915060203d81116104505761044181836111e6565b3861185a565b3461027d57602036600319011261027d576004356118ef816104d9565b60018060a01b0316600052600f6020526020604060002054604051908152f35b3461027d57602036600319011261027d5760043561192c816104d9565b803b600061193982612642565b9261194760405194856111e6565b82845260208401903c602d81511061196b57602a602091015160601c604051908152f35b60405163baf3f0f760e01b8152600490fd5b3461027d57606036600319011261027d576119966121e0565b61199e6132c5565b15610494576119ac33613337565b80156119c9575b1561046e576116066044356024356004356123f0565b506005546001600160a01b031633146119b3565b3461027d57600036600319011261027d576020601154604051908152f35b3461027d5760208060031936011261027d576107959060043590611a1e826104d9565b6006546040516001600160a01b0393841683820152828152921691611a7e90611a4681611195565b604051611a5281611195565b6018815277697364656c656761746f724e6f646528616464726573732960401b848201526000946134fc565b919080611ab8575b611a9f575b505060405190151581529081906020820190565b611ab1925080825183010191016132b1565b3880611a8b565b5080825114611a86565b3461027d57600036600319011261027d5760206116486132c5565b3461027d57600036600319011261027d576020601254604051908152f35b3461027d57604036600319011261027d57611b146121e0565b611b1c6132c5565b1561049457611b2a33613337565b8015611b9a575b1561046e576004546001600160a01b0316803b1561027d57600080916044604051809481936333b59a5b60e01b8352600435600484015260243560248401525af1801561045757611b87575b6100166001600d55565b806113be611b949261117d565b38611b7d565b506005546001600160a01b03163314611b31565b3461027d5761018036600319011261027d57611bc93661126b565b611bd16121e0565b611bd96132c5565b1561049457611be733613337565b8015611cf4575b1561046e5760046000916020611c0761038485546104cd565b6040516369e8d84b60e11b815293849182905afa918215610457578392611c56918491611cd6575b506040516315ec7fad60e01b60208201526064356024820152906106448260448101610636565b50611c6b6103846103846103846004546104cd565b90813b156113ca578291611c9891604051948580948193637818cdd760e01b835260843560048401613045565b03925af1801561045757611cc3575b50611cb96044356024356004356123f0565b610db96001600d55565b806113be611cd09261117d565b38611ca7565b611cee915060203d81116104505761044181836111e6565b38611c2f565b506005546001600160a01b03163314611bee565b3461027d57600080600319360112610f0f57611d226121e0565b611d2f61038482546104cd565b60408051634bf9c0ad60e11b8152602092600492919084908290859082905afa801561045757611d6691869161218a575b50613010565b8183611d7561038487546104cd565b83516369e8d84b60e11b815292839182905afa801561045757611d9e91869161218a5750613010565b8183611dad61038487546104cd565b835163ab6e844f60e01b815292839182905afa801561045757611dd691869161218a5750613010565b8183611de561038487546104cd565b835163cfbffe5360e01b815292839182905afa801561045757611e0e91869161218a5750613010565b8183611e1d61038487546104cd565b8351630536340960e21b815292839182905afa801561045757611e4691869161218a5750613010565b8183611e5561038487546104cd565b835163d1f956b160e01b815292839182905afa801561045757611e7e91869161218a5750613010565b8183611e8d61038487546104cd565b8351631cc3bfab60e31b815292839182905afa801561045757611eb691869161218a5750613010565b8183611ec561038487546104cd565b835163e09d394d60e01b815292839182905afa801561045757611eee91869161218a5750613010565b8183611efd61038487546104cd565b83516314ac1b5960e21b815292839182905afa801561045757611f2691869161218a5750613010565b611f3361038485546104cd565b838251809263013cf08b60e01b82528180611f55888201906000602083019252565b03915afa801561045757611f6f91869161218a5750613010565b611f7c61038485546104cd565b9080518481635bb8e44b60e11b948582528180611fa0898201906000602083019252565b03915afa801561045757611fba9187916121735750613010565b611fc761038486546104cd565b84825180928582528180611fe2898201906001602083019252565b03915afa801561045757611ffc9187916121735750613010565b61200961038486546104cd565b84825180928582528180612024898201906002602083019252565b03915afa80156104575761203e9187916121735750613010565b61204b61038486546104cd565b84825180928582528180612066898201906003602083019252565b03915afa8015610457576120809187916121735750613010565b8361208e61038487546104cd565b928251938491825281806120a9888201906004602083019252565b03915afa9182156104575783926120c69187916121735750613010565b836120d461038487546104cd565b8251635e09dbe760e01b815293849182905afa9182156104575784926121009187916121565750613010565b61210d61038486546104cd565b9051635506ee0b60e11b815292839182905afa90811561045757611cb9928492612139575b5050613010565b61214f9250803d106104505761044181836111e6565b3880612132565b61216d9150843d86116104505761044181836111e6565b38611d60565b61216d9150863d88116104505761044181836111e6565b61216d9150853d87116104505761044181836111e6565b3461027d57600036600319011261027d5760206115366133b8565b9081602091031261027d57516121d1816104d9565b90565b6040513d6000823e3d90fd5b6002600d54146121f1576002600d55565b604051633ee5aeb560e01b8152600490fd5b6040519061016082016001600160401b0381118382101761119057604052816101406000918281528260208201528260408201528260608201528260808201528260a08201528260c08201528260e082015282610100820152826101208201520152565b601154600160401b81101561119057600181018060115581101561072d57601160005260206000209060011b0190600090565b80546001600160a01b0319166001600160a01b03909216919091179055565b634e487b7160e01b600052601160045260246000fd5b600019810191908211610f8457565b91908203918211610f8457565b6001600160a01b039081166000908152600f602052604090205480151580612334575b612319575050600090565b6000198101908111610f845761232e9061070e565b50541690565b5060115481111561230e565b601254600160401b81101561119057600181018060125581101561072d5760126000526000805160206136bd8339815191520180546001600160a01b0319166001600160a01b03909216919091179055565b9081602091031261027d575190565b9060018201809211610f8457565b91908201809211610f8457565b6000198114610f845760010190565b919082604091031261027d57602082516123e4816104d9565b9201516121d1816104d9565b9081158015612638575b6126265760049061241461038461038461038485546104cd565b6040918251948592630c3d4e4160e31b8452838660209586935afa95861561045757600096612607575b5085156125fe5785601354116125ef575b61246461245f60135492836123af565b6122cf565b968688116125e5575b61247e906124796133b8565b6122de565b905b878111156124b4575050505050508110156000146124a357506116cf6001601355565b6124af6116cf916123a1565b601355565b6124c761038461038461038489546104cd565b9085805180936315dd729760e11b825281806124ea868d83019190602083019252565b03915afa9182156104575760009081936125b3575b506001600160a01b03928690828516156125a6578989518096819363725b6fff60e01b8352165afa80156104575761254793600091612579575b50841161254c575b506123bc565b612480565b8651639c75dd3560e01b8782015260248101869052612572916106448260448101610636565b5038612541565b6125999150873d891161259f575b61259181836111e6565b810190612392565b38612539565b503d612587565b50505061254791506123bc565b90506125d6919250863d88116125de575b6125ce81836111e6565b8101906123cb565b9190386124ff565b503d6125c4565b959650869561246d565b6125f96001601355565b61244f565b50505050505050565b61261f919650833d851161259f5761259181836111e6565b943861243e565b6040516337d5a83360e11b8152600490fd5b50606482116123fa565b6001600160401b03811161119057601f01601f191660200190565b6040519061266a82611195565b60178252766765744e6f64654279496e6465782875696e743235362960481b6020830152565b6040519061269d82611195565b6013825272496e7374546f5573657228616464726573732960681b6020830152565b604051906126cc82611195565b601082526f6765744e6f646528616464726573732960801b6020830152565b5190811515820361027d57565b908160a091031261027d578051916020820151612714816104d9565b916040810151916121d1608061272c606085016126eb565b93016126eb565b6040519061274082611195565b601682527567657455736572546f53746f7228616464726573732960501b6020830152565b9060e08282031261027d5780601f8301121561027d5760405191612788836111b0565b829060e0810192831161027d57905b8282106127a45750505090565b8151815260209182019101612797565b919082604091031261027d57602082519201516121d1816104d9565b60648111612d41576127e461036930613337565b61045c5760006127f761038482546104cd565b90604080518094819463111ea8c160e21b8352602095869160049485915afa958615610457578496612d22575b508251630c3d4e4160e31b80825290956001600160a01b0392909190828886818c88165afa978815610457578798612d03575b508715612cf8578261287261038461038461038489546104cd565b928688518095819382525afa918215610457578792612cd9575b5081881115612cc95761289f90826123af565b96808811612cc1575b505b8681106128bb575050505050505050565b8451906128f5826128d3838683019190602083019252565b03926128e7601f19948581018352826111e6565b6128ef61265d565b8b6135ad565b84811615612cb15780319261292f885161292181612915868a8301610f12565b038481018352826111e6565b612929612690565b8d6135ad565b9186831615612ca157612949610369600a6109678661147b565b612c91579061299261298461296a8e6129768b968e519384918d8301610f12565b038681018452836111e6565b61297e6126bf565b90613425565b8780825183010191016126f8565b50505092909216918015612c8157908c8a60018a94148015612c78575b612c38575b50506129f3906129c7846105d787611461565b6129e68b5191826129da888c8301610f12565b039081018352826111e6565b6129ee612733565b61356a565b168015612c285788516294b20960e51b81526004818a019081526000602082015260e09283918391908290819060400103915afa908115610457576060928c92612bfb575b5050898101516008612a498661147b565b015501516009612a588461147b565b0155612a648280612d53565b612a998883612a7c6103846103846103848d546104cd565b848d8c8551968795869485936350db85d160e01b85528401610732565b03925af18015610457578693600692612ab792612bcf575b5061147b565b0154151580612bc4575b612ae4575b50506109d7612ada612adf936014546123af565b601455565b6128aa565b90612b1591612afc6103846103846103848b546104cd565b895180809581946376fe6c4560e01b83528c8301610f12565b03915afa80156104575785918991612ba7575b50168015612b9757803b15612b93578787518092630711e58760e41b8252818381612b5a8c8201906001602083019252565b03925af1801561045757612adf936109d792612ada92612b80575b509350849150612ac6565b806113be612b8d9261117d565b38612b75565b8780fd5b865163216ef5cb60e11b81528690fd5b612bbe9150853d87116104505761044181836111e6565b38612b28565b508581161515612ac1565b612bee908c8d3d10612bf4575b612be681836111e6565b8101906127b4565b50612ab1565b503d612bdc565b612c1a9250803d10612c21575b612c1281836111e6565b810190612765565b3880612a38565b503d612c08565b885163216ef5cb60e11b81528890fd5b612c6e91612c606129f39496612c5493519384918d8301610f12565b038781018452836111e6565b612c68612690565b906135ad565b9290508c8a6129b4565b508415156129af565b895163486bd76360e11b81528990fd5b8851633204506f60e01b81528890fd5b885163486bd76360e11b81528890fd5b865163e7ef22d560e01b81528690fd5b9650386128a8565b855163017c784560e61b81528590fd5b612cf1919250833d851161259f5761259181836111e6565b903861288c565b505050505050505050565b612d1b919850833d851161259f5761259181836111e6565b9638612857565b612d3a919650853d87116104505761044181836111e6565b9438612824565b60405163bf2a1c8760e01b8152600490fd5b60115490600160401b8210156111905760018391612d84612d7c8584612d8a970160115561070e565b50918261229a565b0161229a565b6011546001600160a01b039091166000908152600f6020526040902055565b919081101561072d5760051b0190565b356121d1816104d9565b60405190612dd082611195565b601382527255736572546f496e737428616464726573732960681b6020830152565b600a612e656101406116cf94805185556020810151600186015560408101516002860155606081015160038601556080810151600486015560a0810151600586015560c0810151600686015560e08101516007860155610100810151600886015561012081015160098601550151151590565b91019060ff801983541691151516179055565b9590939495929192612ea8604051612e97816109248960208301610f12565b6001600160a01b0392612c68612dc3565b161561046e57612ebf610369600a6109678761147b565b612fa9575b80612f0357509282916005946007612ede612eff9661147b565b01556006612eeb8461147b565b01556004612ef88361147b565b015561147b565b0155565b60018103612f51575091612f4d93610a4292600594612f266007610a428661147b565b9055612f366006610a428561147b565b9055612f466004610a428461147b565b905561147b565b9055565b91929091600214612f64575b5050505050565b612f9d93600593610aca93612f7d6007610aca8661147b565b9055612f8d6006610aca8561147b565b9055612f466004610aca8461147b565b90553880808080612f5d565b612fc5612fb4612203565b6001610140820152610b118661147b565b612ec4565b15612fd157565b60405162461bcd60e51b81526020600482015260176024820152761d5d1a5b1a5d1e4b9d5b9cd958dd5c994b99985a5b1959604a1b6044820152606490fd5b6001600160a01b0381166130215750565b6040516319ca2cd360e11b6020820152600481526130429161064482611195565b50565b908152610100810192919060209060009082015b600782106130675750505050565b82806001928651815201940191019092613059565b6001600160a01b039091169052565b61328f6101406116cf926130c46130a282516104cd565b600280546001600160a01b0319166001600160a01b0392909216919091179055565b6130f66130d460208301516104cd565b600380546001600160a01b0319166001600160a01b0392909216919091179055565b61312861310660408301516104cd565b600480546001600160a01b0319166001600160a01b0392909216919091179055565b61315a61313860608301516104cd565b600580546001600160a01b0319166001600160a01b0392909216919091179055565b61318c61316a60808301516104cd565b600680546001600160a01b0319166001600160a01b0392909216919091179055565b6131be61319c60a08301516104cd565b600780546001600160a01b0319166001600160a01b0392909216919091179055565b6131f06131ce60c08301516104cd565b600880546001600160a01b0319166001600160a01b0392909216919091179055565b61322261320060e08301516104cd565b600980546001600160a01b0319166001600160a01b0392909216919091179055565b6132556132336101008301516104cd565b600a80546001600160a01b0319166001600160a01b0392909216919091179055565b6132886132666101208301516104cd565b600b80546001600160a01b0319166001600160a01b0392909216919091179055565b01516104cd565b600c80546001600160a01b0319166001600160a01b0392909216919091179055565b9081602091031261027d576121d1906126eb565b60025460405161330d916001600160a01b0316906132e281611195565b6008815267697353616665282960c01b602082015260405191613304836111cb565b600083526134fc565b908061332c575b1561084057806020806121d1935183010191016132b1565b506020815114613314565b61339160018060a01b03806002541660405191602094168483015283825261335e82611195565b6040519061336b82611195565b601582527469735365637572654261736528616464726573732960581b858301526134fc565b90806133ae575b1561084057816121d192825183010191016132b1565b5081815114613398565b6003546040516121d1916001600160a01b0316906133d581611195565b600681526569416765282960d01b60208201526040519161152d836111cb565b3d15613420573d9061340682612642565b9161341460405193846111e6565b82523d6000602084013e565b606090565b9061343092916134fc565b906000901561343d575090565b604051915061344b826111cb565b815290565b9073a4cb3f45f46b3c31780d70568b0627b3339eb76d91823b156134e3578051906020918263ffffffff60e01b92012016916040519180830193845281519160005b8381106134cf5750505091816134bf602482600097959688970187838201520360048101845201826111e6565b51915afa6134cb6133f5565b9091565b818101830151858201602401528201613492565b5050506000906040516134f5816111cb565b6000815290565b9190823b156134e3578051906020918263ffffffff60e01b92012016916040519180830193845281519160005b8381106135565750505091816134bf602482600097959688970187838201520360048101845201826111e6565b818101830151858201602401528201613529565b6000929161357791613450565b90806135a2575b6135855750565b90915060208180518101031261027d57602001516104cd816104d9565b50602081511461357e565b9291613577916000946134fc565b92916135c9916000946134fc565b90806135ec575b6135d75750565b6121d191925060208082518301019101612392565b5060208151146135d0565b906020825192015163ffffffff60e01b90818116936004811061361957505050565b60040360031b82901b16169150565b6001600160a01b038116156136aa57600080918351908260208601915af19061364f6133f5565b9115613659575090565b8051600091906004116136a45761367091506135f7565b8151156136805750805190602001fd5b604051630870274d60e21b81526001600160e01b0319919091166004820152602490fd5b50613670565b60405163e6c4247b60e01b8152600490fdfebb8a6a4669ba250d26cd7a459eca9d215f8307e33aebe50379bc5a3617ec3444a2646970667358221220ec56ec7a69560d6898f3b973e9019e5b17aea4f21ed2eedcf81a46dda1a07a2164736f6c63430008140033","linkReferences":{}},"methodIdentifiers":{"Burn(uint256)":"b90306ad","UserToForm(address)":"c1e6cec2","Withdraw()":"57ea89b6","_delegatorCount()":"a1f7f539","_getImplementation(address)":"c54e44b0","_isDelegatorNode(address)":"e01ad5fd","_isSafe()":"e0a9bc2b","_isSecureBase(address)":"af484526","_isSigner(address)":"1f185d16","actualTVL()":"8d6edc14","closeTransferTarget(address)":"4ef260a9","currentRefreshId()":"55ed5fee","forms(uint256)":"18c864e3","getBalance()":"12065fe0","getForm(uint256)":"479fa2c3","getFormsCount()":"cab3cc8d","getHexbase()":"3b9b7955","getImportedNodeByIndex(uint256)":"b8f1759a","getUserOldData(address)":"b3cea918","getimportedNodeCount()":"e846034a","importRankBusiness(uint256,uint256)":"e981bcad","importedNode(uint256)":"ab7e46ae","owner()":"8da5cb5b","refreshusers(uint256,uint256,uint256)":"c9a29150","resolveParent(address)":"96970c96","resolveTransferTarget(address)":"ac233345","setsysdata(uint256,uint256,uint256[7])":"85301b86","setsysdatawithrefresh(uint256,uint256,uint256,uint256,uint256,uint256[7])":"ed6c1b58","submitTransferForm(address,address)":"1480a85b","syncBaseAddr()":"339459a6","syncSystem()":"f245fe7a","syncusers(uint256)":"add43bca","systemAge()":"fdc10bc9","updateData1(address[],uint256[],uint256[],uint256[],uint256[],uint256)":"083d6938","updateData2(address[],uint256[],uint256[],uint256[],uint256[],uint256)":"23b0586f"},"id":24}