{"abi":[{"type":"constructor","inputs":[{"name":"_hex","type":"address","internalType":"address"}],"stateMutability":"nonpayable"},{"type":"fallback","stateMutability":"payable"},{"type":"receive","stateMutability":"payable"},{"type":"function","name":"Burn","inputs":[{"name":"amount","type":"uint256","internalType":"uint256"}],"outputs":[],"stateMutability":"nonpayable"},{"type":"function","name":"UserToForm","inputs":[{"name":"","type":"address","internalType":"address"}],"outputs":[{"name":"","type":"uint256","internalType":"uint256"}],"stateMutability":"view"},{"type":"function","name":"_delegatorCount","inputs":[],"outputs":[{"name":"","type":"uint256","internalType":"uint256"}],"stateMutability":"view"},{"type":"function","name":"_getImplementation","inputs":[{"name":"clone","type":"address","internalType":"address"}],"outputs":[{"name":"impl","type":"address","internalType":"address"}],"stateMutability":"view"},{"type":"function","name":"_isDelegatorNode","inputs":[{"name":"sender","type":"address","internalType":"address"}],"outputs":[{"name":"","type":"bool","internalType":"bool"}],"stateMutability":"view"},{"type":"function","name":"_isSafe","inputs":[],"outputs":[{"name":"","type":"bool","internalType":"bool"}],"stateMutability":"view"},{"type":"function","name":"_isSecureBase","inputs":[{"name":"sender","type":"address","internalType":"address"}],"outputs":[{"name":"","type":"bool","internalType":"bool"}],"stateMutability":"view"},{"type":"function","name":"_isSigner","inputs":[{"name":"sender","type":"address","internalType":"address"}],"outputs":[{"name":"","type":"bool","internalType":"bool"}],"stateMutability":"view"},{"type":"function","name":"closeTransferTarget","inputs":[{"name":"to","type":"address","internalType":"address"}],"outputs":[],"stateMutability":"nonpayable"},{"type":"function","name":"forms","inputs":[{"name":"","type":"uint256","internalType":"uint256"}],"outputs":[{"name":"from","type":"address","internalType":"address"},{"name":"to","type":"address","internalType":"address"},{"name":"proposalId","type":"uint256","internalType":"uint256"},{"name":"autoclosed","type":"bool","internalType":"bool"}],"stateMutability":"view"},{"type":"function","name":"getBalance","inputs":[],"outputs":[{"name":"","type":"uint256","internalType":"uint256"}],"stateMutability":"view"},{"type":"function","name":"getForm","inputs":[{"name":"formId","type":"uint256","internalType":"uint256"}],"outputs":[{"name":"from","type":"address","internalType":"address"},{"name":"to","type":"address","internalType":"address"},{"name":"proposalId","type":"uint256","internalType":"uint256"},{"name":"autoclosed","type":"bool","internalType":"bool"}],"stateMutability":"view"},{"type":"function","name":"getFormsCount","inputs":[],"outputs":[{"name":"","type":"uint256","internalType":"uint256"}],"stateMutability":"view"},{"type":"function","name":"getHexbase","inputs":[],"outputs":[{"name":"","type":"address","internalType":"address"}],"stateMutability":"view"},{"type":"function","name":"getImportedNodeByIndex","inputs":[{"name":"index","type":"uint256","internalType":"uint256"}],"outputs":[{"name":"node","type":"address","internalType":"address"}],"stateMutability":"view"},{"type":"function","name":"getimportedNodeCount","inputs":[],"outputs":[{"name":"nodesCount","type":"uint256","internalType":"uint256"}],"stateMutability":"view"},{"type":"function","name":"importRankBusiness","inputs":[{"name":"_fromAge","type":"uint256","internalType":"uint256"},{"name":"_toAge","type":"uint256","internalType":"uint256"}],"outputs":[],"stateMutability":"nonpayable"},{"type":"function","name":"importedNode","inputs":[{"name":"","type":"uint256","internalType":"uint256"}],"outputs":[{"name":"","type":"address","internalType":"address"}],"stateMutability":"view"},{"type":"function","name":"importuser","inputs":[{"name":"batchSize","type":"uint256","internalType":"uint256"}],"outputs":[],"stateMutability":"nonpayable"},{"type":"function","name":"owner","inputs":[],"outputs":[{"name":"","type":"address","internalType":"address"}],"stateMutability":"view"},{"type":"function","name":"resolveTransferTarget","inputs":[{"name":"to","type":"address","internalType":"address"}],"outputs":[{"name":"","type":"address","internalType":"address"}],"stateMutability":"view"},{"type":"function","name":"submitTransferForm","inputs":[{"name":"_from","type":"address","internalType":"address"},{"name":"_deadline","type":"uint256","internalType":"uint256"}],"outputs":[],"stateMutability":"nonpayable"},{"type":"function","name":"systemAge","inputs":[],"outputs":[{"name":"","type":"uint256","internalType":"uint256"}],"stateMutability":"view"},{"type":"function","name":"testTxnSys","inputs":[{"name":"paramAdd","type":"address","internalType":"address"},{"name":"_id_maxint","type":"uint256","internalType":"uint256"},{"name":"_qty","type":"uint256","internalType":"uint256"},{"name":"_amt","type":"uint256","internalType":"uint256"}],"outputs":[],"stateMutability":"payable"},{"type":"event","name":"EthBurned","inputs":[{"name":"sender","type":"address","indexed":true,"internalType":"address"},{"name":"amount","type":"uint256","indexed":false,"internalType":"uint256"}],"anonymous":false},{"type":"event","name":"EthTransferred","inputs":[{"name":"to","type":"address","indexed":true,"internalType":"address"},{"name":"amount","type":"uint256","indexed":false,"internalType":"uint256"}],"anonymous":false},{"type":"event","name":"HexBaseUpdated","inputs":[{"name":"previousHexBase","type":"address","indexed":true,"internalType":"address"},{"name":"newHexBase","type":"address","indexed":true,"internalType":"address"}],"anonymous":false},{"type":"event","name":"OwnerUpdated","inputs":[{"name":"previousOwner","type":"address","indexed":true,"internalType":"address"},{"name":"newOwner","type":"address","indexed":true,"internalType":"address"}],"anonymous":false},{"type":"error","name":"ReentrancyGuardReentrantCall","inputs":[]},{"type":"error","name":"TargetCallFailed","inputs":[{"name":"selector","type":"bytes4","internalType":"bytes4"}]}],"bytecode":{"object":"0x6080346100ca57601f61203d38819003918201601f19168301916001600160401b038311848410176100cf578084926020946040528339810103126100ca57516001600160a01b038116908190036100ca5780156100855760018060a01b03193381600154161760015560005416176000556001600355604051611f5790816100e68239f35b60405162461bcd60e51b815260206004820152601360248201527f6f776e2e696e76616c69642e68657862617365000000000000000000000000006044820152606490fd5b600080fd5b634e487b7160e01b600052604160045260246000fdfe60806040526004361015610018575b361561001657005b005b60003560e01c806312065fe01461019857806318c864e3146101935780631f185d161461018e5780633676bd1f146101895780633b9b795514610184578063479fa2c31461017f5780634ef260a91461017a5780638da5cb5b146101755780639fb3953b14610170578063a1f7f5391461016b578063ab7e46ae14610166578063ac23334514610161578063af4845261461015c578063b8f1759a14610157578063b90306ad14610152578063c1e6cec21461014d578063c54e44b014610148578063cab3cc8d14610143578063e01ad5fd1461013e578063e0a9bc2b14610139578063e846034a14610134578063e84adc131461012f578063e981bcad1461012a5763fdc10bc90361000e57610e5b565b610d9f565b610c14565b610bf6565b610b54565b610ab5565b610a97565b6109fb565b6109be565b6108f1565b6108a8565b610877565b61083e565b6107f5565b610723565b6105a8565b61057f565b6104bf565b610405565b6103dc565b61039e565b610296565b610229565b346101b45760003660031901126101b457602047604051908152f35b600080fd5b634e487b7160e01b600052603260045260246000fd5b6005548110156101ee57600560005260206000209060021b0190600090565b6101b9565b6001600160a01b031690565b6001600160a01b039182168152911660208201526040810191909152901515606082015260800190565b346101b45760203660031901126101b4576004356005548110156101b457610250906101cf565b5060018060a01b0361028181835416916001840154169260ff600360028301549201541690604051948594856101ff565b0390f35b6001600160a01b038116036101b457565b346101b4576020806003193601126101b4576004908135906102b782610285565b806102cb6102c66000546101f3565b6101f3565b604051634bf9c0ad60e11b815294859182905afa9182156103995761031061034a9361032c9261028196600092610366575b5061031e906040519384918783016103c9565b03601f198101845283610f8c565b610326611b09565b90611cdb565b91908061035c575b61033d90611b36565b80825183010191016119d8565b60405190151581529081906020820190565b5081518114610334565b61031e91925061038b90863d8811610392575b6103838183610f8c565b810190610ff5565b91906102fd565b503d610379565b61100d565b346101b45760203660031901126101b4576103b76118b2565b6103c26004356114cc565b6001600355005b6001600160a01b03909116815260200190565b346101b45760003660031901126101b4576000546040516001600160a01b039091168152602090f35b346101b45760203660031901126101b457600435801515806104b3575b1561047457610433610438916110f5565b6101cf565b5061044381546101f3565b61028161045360018401546101f3565b926104676003600283015492015460ff1690565b90604051948594856101ff565b60405162461bcd60e51b81526020600482015260176024820152761c1c9bdc1bdcd95c8b9a5b9d985b1a590b999bdc9b5a59604a1b6044820152606490fd5b50600554811115610422565b346101b45760203660031901126101b4576004356104dc81610285565b6001600160a01b039081166000818152600460205260408120549092919080151580610573575b61050b578380f35b600019810190811161056e57610520906101cf565b5050808352600460205260408320839055600654600160401b8110156105695780600161055092016006556107da565b909283549160031b92831b921b19161790553880808380f35b610eee565b6110df565b50600554811115610503565b346101b45760003660031901126101b4576001546040516001600160a01b039091168152602090f35b60803660031901126101b4576004356105c081610285565b6105c86118b2565b6105d66102c66000546101f3565b60405163ab6e844f60e01b815291906020908184600481845afa938415610399576000946106ff575b50816004916040519283809263de433f1760e01b82525afa9081156103995761065f9161063d916000916106e2575b506040519182918583016103c9565b0394610651601f1996878101845283610f8c565b61065961193a565b90611d59565b906001600160a01b038216610679575b6100166001600355565b604051636083c98560e11b918101919091526001600160a01b0390921660248084019190915235604480840191909152356064808401919091523560848301526106d8926106d3908360a481015b03908101845283610f8c565b611e46565b503880808061066f565b6106f99150843d8611610392576103838183610f8c565b3861062e565b600491945061071b8391823d8411610392576103838183610f8c565b9491506105ff565b346101b45760003660031901126101b45760005460405163d1f956b160e01b815290602090829060049082906001600160a01b03165afa90811561039957610281916107ac916000916107bc575b5060405161077e81610f56565b601381527267657464656c656761746f72436f756e74282960681b60208201526107a6610fca565b91611dd9565b6040519081529081906020820190565b6107d4915060203d8111610392576103838183610f8c565b38610771565b6006548110156101ee57600660005260206000200190600090565b346101b45760203660031901126101b4576004356006548110156101b4576006600052600080516020611f0283398151915201546040516001600160a01b039091168152602090f35b346101b45760203660031901126101b457602061086560043561086081610285565b611160565b6040516001600160a01b039091168152f35b346101b45760203660031901126101b457602061089e60043561089981610285565b611a66565b6040519015158152f35b346101b45760203660031901126101b4576004356006548110156101ee576006600052600080516020611f0283398151915201546040516001600160a01b039091168152602090f35b346101b45760203660031901126101b457600054604051630536340960e21b8152906001600160a01b03906020908390600490829085165afa91821561039957600092610984575b503391160361094d57610016600435611bdf565b60405162461bcd60e51b815260206004820152600f60248201526e6f776e2e6e6f6e617574682e44414f60881b6044820152606490fd5b61099d91925060203d8111610392576103838183610f8c565b9038610939565b6001600160a01b0316600090815260046020526040902090565b346101b45760203660031901126101b4576004356109db81610285565b60018060a01b031660005260046020526020604060002054604051908152f35b346101b45760203660031901126101b457600435610a1881610285565b803b6000610a2582610faf565b92610a336040519485610f8c565b82845260208401903c602d815110610a5c57602a61028191015160601c604051918291826103c9565b60405162461bcd60e51b81526020600482015260136024820152724e6f742061206d696e696d616c2070726f787960681b6044820152606490fd5b346101b45760003660031901126101b4576020600554604051908152f35b346101b4576020806003193601126101b45760048035610ad481610285565b60005460405163d1f956b160e01b81526001600160a01b03949093909182918591829088165afa908115610399576102819461034a94600093610b35575b506040519316818401528252610b2782610f56565b610b2f611b7b565b90611d9d565b610b4d919350823d8411610392576103838183610f8c565b9138610b12565b346101b45760003660031901126101b457600054604051634bf9c0ad60e11b8152906020908190839060049082906001600160a01b03165afa90811561039957610bbe61034a9261028194600091610bd9575b50610bb061196c565b610bb8610fca565b91611cdb565b919080610bcf575b61033d90611990565b5081518114610bc6565b610bf09150833d8511610392576103838183610f8c565b38610ba7565b346101b45760003660031901126101b4576020600654604051908152f35b346101b4576040806003193601126101b45760043590610c3382610285565b6001600160a01b03821615610d67576000913383526020916004835280842054610d2f57610c6a610c62610f04565b509283610f37565b60046001830193610c7b3386610f37565b610c83610fdd565b81610c916102c689546101f3565b8551630536340960e21b815294859182905afa92831561039957600294610cf294610ce593610310938b92610d0e575b506106d3919251938491630ffa734f60e41b8884015260243590306024850161103c565b80518101820191016110d0565b910155610d0a610d0560055492546101f3565b6109a4565b5580f35b6106d39250610d2990873d8911610392576103838183610f8c565b91610cc1565b5162461bcd60e51b815260048101839052601260248201527170726f706f7365722e746f2e65786973747360701b6044820152606490fd5b5162461bcd60e51b815260206004820152601260248201527137bbb7173232b330bab63a1739b2b73232b960711b6044820152606490fd5b346101b45760403660031901126101b457610db86118b2565b610dc9610dc430611a66565b6112b5565b60046020610ddb6102c66000546101f3565b60405163ab6e844f60e01b815292839182905afa801561039957610e3291600091610e3d575b506040516333b59a5b60e01b6020820152600435602480830191909152356044820152906106d38260648101610310565b506100166001600355565b610e55915060203d8111610392576103838183610f8c565b38610e01565b346101b45760003660031901126101b45760005460405163111ea8c160e21b815290602090829060049082906001600160a01b03165afa90811561039957610281916107ac91600091610ed0575b50604051610eb681610f56565b6005815264616765282960d81b60208201526107a6610fca565b610ee8915060203d8111610392576103838183610f8c565b38610ea9565b634e487b7160e01b600052604160045260246000fd5b600554600160401b8110156105695760018101806005558110156101ee57600560005260206000209060021b0190600090565b80546001600160a01b0319166001600160a01b03909216919091179055565b604081019081106001600160401b0382111761056957604052565b602081019081106001600160401b0382111761056957604052565b601f909101601f19168101906001600160401b0382119082101761056957604052565b6001600160401b03811161056957601f01601f191660200190565b60405190610fd782610f71565b60008252565b604051610fe981610f71565b60008152906000368137565b908160209103126101b4575161100a81610285565b90565b6040513d6000823e3d90fd5b60005b83811061102c5750506000910152565b818101518382015260200161101c565b60009260a09295949560c08352602660c08401527f547269676765722e496e7374616e63652e70726f706f73616c2e55736572547260e08401526530b739b332b960d11b610100840152600180851b03166020830152836040830152610120806060840152815180918401526110bc816101409360208587019101611019565b601f80199101168201019460808201520152565b908160209103126101b4575190565b634e487b7160e01b600052601160045260246000fd5b60001981019190821161056e57565b6040519061111182610f56565b60128252716765745374617475732875696e743235362960701b6020830152565b519081151582036101b457565b91908260409103126101b45761100a602061115984611132565b9301611132565b611169906109a4565b548015158061125e575b1561125857610433611184916110f5565b50600381015460ff1661124e5761119f6102c66000546101f3565b6040518091630536340960e21b825281600460209384935afa8015610399576103106111fb9161120894600091611231575b506111ed60028701546040519384918783019190602083019252565b6111f5611104565b90611cb0565b805181018201910161113f565b81929192611229575b50600091156112255761100a9150546101f3565b5090565b915038611211565b6112489150843d8611610392576103838183610f8c565b386111d1565b61100a90546101f3565b50600090565b50600554811115611173565b1561127157565b60405162461bcd60e51b815260206004820152601c60248201527b1d5d1a5b1a5d1e4b98985d18da0b9b1a5b5a5d0b995e18d95959195960221b6044820152606490fd5b156112bc57565b60405162461bcd60e51b81526020600482015260176024820152761d5d1a5b1a5d1e4b9d5b9cd958dd5c994b99985a5b1959604a1b6044820152606490fd5b6040519061130882610f56565b600f82526e6765744e6f646573436f756e74282960881b6020830152565b1561132d57565b60405162461bcd60e51b81526020600482015260136024820152727574696c6974792e696d706f72742e646f6e6560681b6044820152606490fd5b9190820180921161056e57565b600019811461056e5760010190565b6040519061139182610f56565b60178252766765744e6f64654279496e6465782875696e743235362960481b6020830152565b156113be57565b60405162461bcd60e51b815260206004820152601660248201527570726f78792e696e76616c69642e696e7374616e636560501b6044820152606490fd5b6040519061140982610f56565b6013825272496e7374546f5573657228616464726573732960681b6020830152565b1561143257565b60405162461bcd60e51b815260206004820152601260248201527170726f78792e696e76616c69642e6e6f646560701b6044820152606490fd5b6040519061147982610f56565b601082526f6765744e6f646528616464726573732960801b6020830152565b908160a09103126101b45780519160208201516114b481610285565b9160408101519161100a608061115960608501611132565b6114d9606482111561126a565b6114e5610dc430611a66565b6000906114f56102c683546101f3565b6040805163111ea8c160e21b808252600495939092916020919082818981855afa80156103995761153f91879161189b575b50611530610fdd565b906115396112fb565b90611dd9565b95861561189157835183818a8163ab6e844f60e01b968782525afa9081156103995761158a916115789189916118745750611530610fdd565b91611584838a11611326565b82611368565b9680881161186c575b505b8681106115a6575050505050505050565b6115b36102c687546101f3565b90845186815284818b81865afa928315610399578a91899461184d575b506116048751806115e8868a83019190602083019252565b03956115fc601f1997888101845283610f8c565b610659611384565b6001600160a01b039061161a81831615156113b7565b87895180958c825281865afa93841561039957818a8f968b8f946116669592611828575b5061165261165e92935194859283016103c9565b038a8101845283610f8c565b6106596113fc565b92611674838516151561142b565b888a5180968d825281845afa8015610399576116d68f966116b48f6001948f91978f98946116c89592611807575b506116c09192519384918a83016103c9565b038d8101845283610f8c565b6111f561146c565b848082518301019101611498565b50505094909416936116e981151561142b565b1480156117fe575b611793575b505061170282806118d5565b866117106102c68c546101f3565b8951948580928a82525afa80156103995761176d95611767948c92611772575b5089516350db85d160e01b8a8201526001600160a01b039384166024820152939092166044840152906106d39083606481016106c7565b50611375565b611595565b6106d3925061178d908a3d8c11610392576103838183610f8c565b91611730565b8951948580928d82525afa928315610399578c936117d4926117c8928d926117db575b5061165e908b519384918c83016103c9565b03888101845283610f8c565b86386116f6565b61165e9192506117f7908b3d8d11610392576103838183610f8c565b91906117b6565b508215156116f1565b6116c09250611822908a3d8c11610392576103838183610f8c565b916116a2565b61165e925061184661165291833d8511610392576103838183610f8c565b925061163e565b611865919450863d8811610392576103838183610f8c565b92386115d0565b965038611593565b61188b9150863d8811610392576103838183610f8c565b38611527565b5050505050505050565b61188b9150843d8611610392576103838183610f8c565b6002600354146118c3576002600355565b604051633ee5aeb560e01b8152600490fd5b60055490600160401b821015610569576119026118fa836001600395016005556101cf565b509182610f37565b61190f8360018301610f37565b01805460ff191660011790556005546001600160a01b03909116600090815260046020526040902055565b6040519061194782610f56565b601682527567657455736572546f496e737428616464726573732960501b6020830152565b6040519061197982610f56565b6008825267697353616665282960c01b6020830152565b1561199757565b60405162461bcd60e51b81526020600482015260196024820152781bdddb8b9cd8599959dd585c990b98d85b1b0b99985a5b1959603a1b6044820152606490fd5b908160209103126101b45761100a90611132565b604051906119f982610f56565b601582527469735365637572654261736528616464726573732960581b6020830152565b15611a2457565b60405162461bcd60e51b815260206004820152601a6024820152791bdddb8b9cd958dd5c9958985cd94b98d85b1b0b99985a5b195960321b6044820152606490fd5b600054611a7b906001600160a01b03166101f3565b604051918291634bf9c0ad60e11b835282600460209485935afa9283156103995761100a93611acb9261031092600092611ae6575b50611ac3906040519384918783016103c9565b6103266119ec565b919080611adc575b61033d90611a1d565b5081518114611ad3565b611ac3919250611b0290863d8811610392576103838183610f8c565b9190611ab0565b60405190611b1682610f56565b601182527069735369676e657228616464726573732960781b6020830152565b15611b3d57565b60405162461bcd60e51b81526020600482015260166024820152751bdddb8b9cda59db995c8b98d85b1b0b99985a5b195960521b6044820152606490fd5b60405190611b8882610f56565b6018825277697364656c656761746f724e6f646528616464726573732960401b6020830152565b3d15611bda573d90611bc082610faf565b91611bce6040519384610f8c565b82523d6000602084013e565b606090565b600080546040516311be646b60e21b815290602090829060049082906001600160a01b03165afa908115610399578284819382938391611c92575b505af1611c25611baf565b5015611c5b5760405190815233907fcdcc745fe377b103b45fa0cec23ae3ef93d6fc6a84a01f0d18c40b354dd1d5d890602090a2565b60405162461bcd60e51b815260206004820152600f60248201526e1bdddb8b989d5c9b8b99985a5b1959608a1b6044820152606490fd5b611caa915060203d8111610392576103838183610f8c565b38611c1a565b90611cbb9291611cdb565b9060009015611cc8575090565b6040519150611cd682610f71565b815290565b803b15611d4057600092839263ffffffff60e01b90602081519101201690611d2d6024604051809360208201958652611d1d8151809260208686019101611019565b8101036004810184520182610f8c565b5191620dbba0fa611d3c611baf565b9091565b505050600090604051611d5281610f71565b6000815290565b9291611d6791600094611cdb565b9080611d92575b611d755750565b9091506020818051810103126101b457602001516101f381610285565b506020815114611d6e565b9291611dab91600094611cdb565b9080611dce575b611db95750565b61100a919250602080825183010191016119d8565b506020815114611db2565b9291611de791600094611cdb565b9080611e0a575b611df55750565b61100a919250602080825183010191016110d0565b506020815114611dee565b906020825192015163ffffffff60e01b908181169360048110611e3757505050565b60040360031b82901b16169150565b6001600160a01b03811615611ec757600080918351908260208601915af190611e6d611baf565b9115611e77575090565b805160009190600411611ec157611e8e9150611e15565b815115611e9e5750805190602001fd5b604051630870274d60e21b81526001600160e01b03199091166004820152602490fd5b50611e8e565b60405162461bcd60e51b81526020600482015260126024820152711bdddb8b9a5b9d985b1a590b9d185c99d95d60721b6044820152606490fdfef652222313e28459528d920b65115c16c04f3efc82aaedc97be59f3f377c0d3fa2646970667358221220f55b7f1b321aa3eeae9f4d6d120edf9879b467d45143afe5dd6229fd0f9a398264736f6c63430008140033","linkReferences":{}},"methodIdentifiers":{"Burn(uint256)":"b90306ad","UserToForm(address)":"c1e6cec2","_delegatorCount()":"a1f7f539","_getImplementation(address)":"c54e44b0","_isDelegatorNode(address)":"e01ad5fd","_isSafe()":"e0a9bc2b","_isSecureBase(address)":"af484526","_isSigner(address)":"1f185d16","closeTransferTarget(address)":"4ef260a9","forms(uint256)":"18c864e3","getBalance()":"12065fe0","getForm(uint256)":"479fa2c3","getFormsCount()":"cab3cc8d","getHexbase()":"3b9b7955","getImportedNodeByIndex(uint256)":"b8f1759a","getimportedNodeCount()":"e846034a","importRankBusiness(uint256,uint256)":"e981bcad","importedNode(uint256)":"ab7e46ae","importuser(uint256)":"3676bd1f","owner()":"8da5cb5b","resolveTransferTarget(address)":"ac233345","submitTransferForm(address,uint256)":"e84adc13","systemAge()":"fdc10bc9","testTxnSys(address,uint256,uint256,uint256)":"9fb3953b"},"id":24}