{"abi":[{"type":"constructor","inputs":[{"name":"_hex","type":"address","internalType":"address"}],"stateMutability":"nonpayable"},{"type":"fallback","stateMutability":"payable"},{"type":"receive","stateMutability":"payable"},{"type":"function","name":"Burn","inputs":[{"name":"amount","type":"uint256","internalType":"uint256"}],"outputs":[],"stateMutability":"nonpayable"},{"type":"function","name":"UserToForm","inputs":[{"name":"","type":"address","internalType":"address"}],"outputs":[{"name":"","type":"uint256","internalType":"uint256"}],"stateMutability":"view"},{"type":"function","name":"_delegatorCount","inputs":[],"outputs":[{"name":"","type":"uint256","internalType":"uint256"}],"stateMutability":"view"},{"type":"function","name":"_getImplementation","inputs":[{"name":"clone","type":"address","internalType":"address"}],"outputs":[{"name":"impl","type":"address","internalType":"address"}],"stateMutability":"view"},{"type":"function","name":"_isDelegatorNode","inputs":[{"name":"sender","type":"address","internalType":"address"}],"outputs":[{"name":"","type":"bool","internalType":"bool"}],"stateMutability":"view"},{"type":"function","name":"_isSafe","inputs":[],"outputs":[{"name":"","type":"bool","internalType":"bool"}],"stateMutability":"view"},{"type":"function","name":"_isSecureBase","inputs":[{"name":"sender","type":"address","internalType":"address"}],"outputs":[{"name":"","type":"bool","internalType":"bool"}],"stateMutability":"view"},{"type":"function","name":"_isSigner","inputs":[{"name":"sender","type":"address","internalType":"address"}],"outputs":[{"name":"","type":"bool","internalType":"bool"}],"stateMutability":"view"},{"type":"function","name":"actualTVL","inputs":[],"outputs":[{"name":"","type":"uint256","internalType":"uint256"}],"stateMutability":"view"},{"type":"function","name":"closeTransferTarget","inputs":[{"name":"to","type":"address","internalType":"address"}],"outputs":[],"stateMutability":"nonpayable"},{"type":"function","name":"forms","inputs":[{"name":"","type":"uint256","internalType":"uint256"}],"outputs":[{"name":"from","type":"address","internalType":"address"},{"name":"to","type":"address","internalType":"address"},{"name":"proposalId","type":"uint256","internalType":"uint256"},{"name":"autoclosed","type":"bool","internalType":"bool"}],"stateMutability":"view"},{"type":"function","name":"getBalance","inputs":[],"outputs":[{"name":"","type":"uint256","internalType":"uint256"}],"stateMutability":"view"},{"type":"function","name":"getForm","inputs":[{"name":"formId","type":"uint256","internalType":"uint256"}],"outputs":[{"name":"from","type":"address","internalType":"address"},{"name":"to","type":"address","internalType":"address"},{"name":"proposalId","type":"uint256","internalType":"uint256"},{"name":"autoclosed","type":"bool","internalType":"bool"}],"stateMutability":"view"},{"type":"function","name":"getFormsCount","inputs":[],"outputs":[{"name":"","type":"uint256","internalType":"uint256"}],"stateMutability":"view"},{"type":"function","name":"getHexbase","inputs":[],"outputs":[{"name":"","type":"address","internalType":"address"}],"stateMutability":"view"},{"type":"function","name":"getImportedNodeByIndex","inputs":[{"name":"index","type":"uint256","internalType":"uint256"}],"outputs":[{"name":"node","type":"address","internalType":"address"}],"stateMutability":"view"},{"type":"function","name":"getimportedNodeCount","inputs":[],"outputs":[{"name":"nodesCount","type":"uint256","internalType":"uint256"}],"stateMutability":"view"},{"type":"function","name":"importRankBusiness","inputs":[{"name":"_fromAge","type":"uint256","internalType":"uint256"},{"name":"_toAge","type":"uint256","internalType":"uint256"}],"outputs":[],"stateMutability":"nonpayable"},{"type":"function","name":"importedNode","inputs":[{"name":"","type":"uint256","internalType":"uint256"}],"outputs":[{"name":"","type":"address","internalType":"address"}],"stateMutability":"view"},{"type":"function","name":"importuser","inputs":[{"name":"batchSize","type":"uint256","internalType":"uint256"}],"outputs":[],"stateMutability":"nonpayable"},{"type":"function","name":"owner","inputs":[],"outputs":[{"name":"","type":"address","internalType":"address"}],"stateMutability":"view"},{"type":"function","name":"resolveTransferTarget","inputs":[{"name":"to","type":"address","internalType":"address"}],"outputs":[{"name":"","type":"address","internalType":"address"}],"stateMutability":"view"},{"type":"function","name":"submitTransferForm","inputs":[{"name":"_from","type":"address","internalType":"address"},{"name":"_to","type":"address","internalType":"address"},{"name":"_deadline","type":"uint256","internalType":"uint256"}],"outputs":[],"stateMutability":"nonpayable"},{"type":"function","name":"syncBaseAddr","inputs":[],"outputs":[],"stateMutability":"nonpayable"},{"type":"function","name":"syncSystem","inputs":[],"outputs":[],"stateMutability":"nonpayable"},{"type":"function","name":"systemAge","inputs":[],"outputs":[{"name":"","type":"uint256","internalType":"uint256"}],"stateMutability":"view"},{"type":"function","name":"testTxnSys","inputs":[{"name":"paramAdd","type":"address","internalType":"address"},{"name":"_id_maxint","type":"uint256","internalType":"uint256"},{"name":"_qty","type":"uint256","internalType":"uint256"},{"name":"_amt","type":"uint256","internalType":"uint256"}],"outputs":[],"stateMutability":"payable"},{"type":"event","name":"EthBurned","inputs":[{"name":"sender","type":"address","indexed":true,"internalType":"address"},{"name":"amount","type":"uint256","indexed":false,"internalType":"uint256"}],"anonymous":false},{"type":"event","name":"EthTransferred","inputs":[{"name":"to","type":"address","indexed":true,"internalType":"address"},{"name":"amount","type":"uint256","indexed":false,"internalType":"uint256"}],"anonymous":false},{"type":"event","name":"HexBaseUpdated","inputs":[{"name":"previousHexBase","type":"address","indexed":true,"internalType":"address"},{"name":"newHexBase","type":"address","indexed":true,"internalType":"address"}],"anonymous":false},{"type":"event","name":"OwnerUpdated","inputs":[{"name":"previousOwner","type":"address","indexed":true,"internalType":"address"},{"name":"newOwner","type":"address","indexed":true,"internalType":"address"}],"anonymous":false},{"type":"error","name":"CallFailed","inputs":[]},{"type":"error","name":"InvalidAddress","inputs":[]},{"type":"error","name":"InvalidState","inputs":[]},{"type":"error","name":"NotAuthorized","inputs":[]},{"type":"error","name":"NotSafe","inputs":[]},{"type":"error","name":"ReentrancyGuardReentrantCall","inputs":[]},{"type":"error","name":"TargetCallFailed","inputs":[{"name":"selector","type":"bytes4","internalType":"bytes4"}]}],"bytecode":{"object":"0x6080346200009e57601f62002ed138819003918201601f19168301916001600160401b03831184841017620000a3578084926020946040528339810103126200009e57516001600160a01b038116908190036200009e5780156200008c5760018060a01b03193381600154161760015560005416176000556001601155604051612e179081620000ba8239f35b60405163e6c4247b60e01b8152600490fd5b600080fd5b634e487b7160e01b600052604160045260246000fdfe60806040526004361015610018575b361561001657005b005b60003560e01c806312065fe0146101c857806318c864e3146101c35780631f185d16146101be578063339459a6146101b95780633676bd1f146101b45780633b9b7955146101af578063479fa2c3146101aa5780634ef260a9146101a55780638d6edc14146101a05780638da5cb5b1461019b5780639932f81e146101965780639fb3953b14610191578063a1f7f5391461018c578063ab7e46ae14610187578063ac23334514610182578063af4845261461017d578063b8f1759a14610178578063b90306ad14610173578063c1e6cec21461016e578063c54e44b014610169578063cab3cc8d14610164578063e01ad5fd1461015f578063e0a9bc2b1461015a578063e846034a14610155578063e981bcad14610150578063f245fe7a1461014b5763fdc10bc90361000e57611cd5565b6114f3565b611454565b611436565b61139d565b6112d2565b6112b4565b61122e565b6111f0565b6110c5565b61106b565b61103a565b611002565b610fa8565b610efc565b610d7c565b610b69565b610b42565b610b24565b610a62565b610979565b610952565b610927565b6103a6565b6102bf565b61023e565b346101e45760003660031901126101e457602047604051908152f35b600080fd5b634e487b7160e01b600052603260045260246000fd5b60135481101561023957601360005260021b7f66de8ffda797e3de9c05e8fc57b3bf0ec28a930d40b0d285d93c06501cf6a0900190600090565b6101e9565b346101e45760203660031901126101e4576004356013548110156101e457610265906101ff565b50805460018201546002830154600390930154604080516001600160a01b0394851681529390921660208401529082019290925260ff90911615156060820152608090f35b0390f35b6001600160a01b038116036101e457565b346101e4576020806003193601126101e45761033e6004356102e0816102ae565b6001600160a01b0380600254169060405192168483015283825261030382611da2565b6040519061031082611da2565b601182527f69735369676e657228616464726573732900000000000000000000000000000085830152612bc4565b91908061039c575b15610372578181610360926102aa94518301019101612acb565b60405190151581529081906020820190565b60046040517f3204506f000000000000000000000000000000000000000000000000000000008152fd5b5080825114610346565b346101e45760003660031901126101e4576103d86103cc6000546001600160a01b031690565b6001600160a01b031690565b60405190634bf9c0ad60e11b8252602082600481845afa91821561075757600092610906575b506040519163cfbffe5360e01b8352602083600481855afa928315610757576000936108e5575b506040519063ab6e844f60e01b8252602082600481865afa918215610757576000926108c4575b5060405191630536340960e21b8352602083600481875afa928315610757576000936108a3575b506040519263d1f956b160e01b8452602084600481885afa93841561075757600094610882575b5060405193631cc3bfab60e31b8552602085600481895afa94851561075757600095610861575b5060405163e09d394d60e01b81526020816004818a5afa90811561075757600091610842575b506040516314ac1b5960e21b81526020816004818b5afa90811561075757600091610823575b5060405163013cf08b60e01b815260006004820152916020836024818c5afa92831561075757600093610802575b5060405197635e09dbe760e01b89526020896004818d5afa948515610757576004996000966107e1575b5060208b6040519b8c8092635506ee0b60e11b82525afa9687156107575760049a6000986107c0575b5060208c6040519c8d8092636402742760e01b82525afa9889156107575760049b60009a61079f575b5060208d6040519d8e80926330125cf560e01b82525afa9a8b15610757578d60049d60009d61077d575b506020906040519e8f80926324768d9160e01b82525afa9c8d156107575760009d61075c575b50604051809e81906313b92d3560e31b82525a92600491602094fa9d8e156107575760009e610726575b5061063a611dfc565b6001600160a01b0390911681529d8e906001600160a01b031660208201526040019061066e91906001600160a01b03169052565b6001600160a01b031660608d01526001600160a01b031660808c01526001600160a01b031660a08b01526001600160a01b031660c08a01526001600160a01b031660e08901526001600160a01b03166101008801526001600160a01b03166101208701526001600160a01b03166101408601526001600160a01b03166101608501526001600160a01b03166101808401526001600160a01b03166101a08301526001600160a01b03166101c0820152610016906127c8565b610749919e5060203d602011610750575b6107418183611dda565b810190611e51565b9c38610631565b503d610737565b611e69565b610776919d5060203d602011610750576107418183611dda565b9b38610607565b6020919d5061079890823d8411610750576107418183611dda565b9c906105e1565b6107b9919a5060203d602011610750576107418183611dda565b98386105b7565b6107da91985060203d602011610750576107418183611dda565b963861058e565b6107fb91965060203d602011610750576107418183611dda565b9438610565565b61081c91935060203d602011610750576107418183611dda565b913861053b565b61083c915060203d602011610750576107418183611dda565b3861050d565b61085b915060203d602011610750576107418183611dda565b386104e7565b61087b91955060203d602011610750576107418183611dda565b93386104c1565b61089c91945060203d602011610750576107418183611dda565b923861049a565b6108bd91935060203d602011610750576107418183611dda565b9138610473565b6108de91925060203d602011610750576107418183611dda565b903861044c565b6108ff91935060203d602011610750576107418183611dda565b9138610425565b61092091925060203d602011610750576107418183611dda565b90386103fe565b346101e45760203660031901126101e4576109406126c6565b61094b6004356123b7565b6001601155005b346101e45760003660031901126101e45760206001600160a01b0360005416604051908152f35b346101e45760203660031901126101e45760043580151580610a56575b15610a12576109a76109ac91611f6a565b6101ff565b5080546001600160a01b03166102aa6109cf60018401546001600160a01b031690565b926109e36003600283015492015460ff1690565b604080516001600160a01b03958616815295909416602086015292840152901515606083015281906080820190565b606460405162461bcd60e51b815260206004820152601760248201527f70726f706f7365722e696e76616c69642e666f726d69640000000000000000006044820152fd5b50601354811115610996565b346101e45760203660031901126101e457600435610a7f816102ae565b6001600160a01b03809116906000918083526012602052604083205480151580610b18575b610aac578380f35b6000198101908111610b1357610ac1906101ff565b5050808352601260205282604081205560145468010000000000000000811015610b0e57806001610af59201601455610f71565b909283549160031b92831b921b19161790553880808380f35b611d39565b611f54565b50601354811115610aa4565b346101e45760003660031901126101e4576020601554604051908152f35b346101e45760003660031901126101e45760206001600160a01b0360015416604051908152f35b346101e45760603660031901126101e457600435610b86816102ae565b602435610b92816102ae565b6001600160a01b039182811615610d5257600092821683526020601281526040842054610d0e57600490610be5610bc7611d4f565b509384906001600160a01b03166001600160a01b0319825416179055565b610c09600184019485906001600160a01b03166001600160a01b0319825416179055565b610c11611e39565b9080610c276103cc88546001600160a01b031690565b60405194858092630536340960e21b82525afa91821561075757610c94610cb493610ca7926002968a92610ceb575b50610ca2906040519384917fffa734f00000000000000000000000000000000000000000000000000000000088840152604435903060248501611e98565b03601f198101845283611dda565b612d2e565b8051810182019101611f45565b910155610ce7610cce60135492546001600160a01b031690565b6001600160a01b03166000526012602052604060002090565b5580f35b610ca2919250610d0790863d8811610750576107418183611dda565b9190610c56565b6064906040519062461bcd60e51b82526004820152601260248201527f70726f706f7365722e746f2e65786973747300000000000000000000000000006044820152fd5b60046040517fe6c4247b000000000000000000000000000000000000000000000000000000008152fd5b60803660031901126101e457600435610d94816102ae565b610d9c6126c6565b6004546001600160a01b031660046020610dc16103cc6000546001600160a01b031690565b604051928380927fde433f170000000000000000000000000000000000000000000000000000000082525afa90811561075757610e4491610e2291600091610ede575b50604080516001600160a01b03909216602083015290918291820190565b0392610e36601f1994858101845283611dda565b610e3e61278f565b90612c57565b6001600160a01b038116610e5d575b6100166001601155565b610ca2610ec992610ed5946040519485917fc107930a00000000000000000000000000000000000000000000000000000000602084015260643590604435906024359060248601909493926060926001600160a01b036080840197168352602083015260408201520152565b03908101845283611dda565b50388080610e53565b610ef6915060203d8111610750576107418183611dda565b38610e04565b346101e45760003660031901126101e4576020610f696001600160a01b0360065416604051610f2a81611da2565b601381527f67657464656c656761746f72436f756e742829000000000000000000000000008482015260405191610f6083611dbe565b60008352612ca8565b604051908152f35b6014548110156102395760146000527fce6d7b5282bd9a3661ae061feed1dbda4e52ab073b1f9285be6e155d9c38d4ec0190600090565b346101e45760203660031901126101e4576004356014548110156101e4576001600160a01b0360209160146000527fce6d7b5282bd9a3661ae061feed1dbda4e52ab073b1f9285be6e155d9c38d4ec015416604051908152f35b346101e45760203660031901126101e4576020611029600435611024816102ae565b611fe0565b6001600160a01b0360405191168152f35b346101e45760203660031901126101e457602061106160043561105c816102ae565b612adf565b6040519015158152f35b346101e45760203660031901126101e457600435601454811015610239576001600160a01b0360209160146000527fce6d7b5282bd9a3661ae061feed1dbda4e52ab073b1f9285be6e155d9c38d4ec015416604051908152f35b346101e45760203660031901126101e4576004356001600160a01b036005541633036111c657600090600460206111066103cc85546001600160a01b031690565b604051928380927f46f991ac0000000000000000000000000000000000000000000000000000000082525afa801561075757838084819493829483916111a8575b505af1611152612b69565b5015610372577fcdcc745fe377b103b45fa0cec23ae3ef93d6fc6a84a01f0d18c40b354dd1d5d86111a26111916103cc600b546001600160a01b031690565b604051938452929081906020820190565b0390a280f35b6111c0915060203d8111610750576107418183611dda565b38611147565b60046040517fea8e4eb5000000000000000000000000000000000000000000000000000000008152fd5b346101e45760203660031901126101e4576001600160a01b03600435611215816102ae565b1660005260126020526020604060002054604051908152f35b346101e45760203660031901126101e45760043561124b816102ae565b803b600061125882611e1d565b926112666040519485611dda565b82845260208401903c602d81511061128a57602a602091015160601c604051908152f35b60046040517fbaf3f0f7000000000000000000000000000000000000000000000000000000008152fd5b346101e45760003660031901126101e4576020601354604051908152f35b346101e4576020806003193601126101e4576102aa90600435906112f5826102ae565b6113596001600160a01b039283600654169360405191168382015282815261131c81611da2565b60405161132881611da2565b601881527f697364656c656761746f724e6f6465286164647265737329000000000000000084820152600094612bc4565b919080611393575b61137a575b505060405190151581529081906020820190565b61138c92508082518301019101612acb565b3880611366565b5080825114611361565b346101e45760003660031901126101e4576114096001600160a01b03600254166040516113c981611da2565b600881527f697353616665282900000000000000000000000000000000000000000000000060208201526040519161140083611dbe565b60008352612bc4565b908061142b575b1561037257610360816020806102aa94518301019101612acb565b506020815114611410565b346101e45760003660031901126101e4576020601454604051908152f35b346101e45760403660031901126101e45761146d6126c6565b61147e61147930612adf565b612157565b6001600160a01b03600454166040517f33b59a5b0000000000000000000000000000000000000000000000000000000060208201526004356024820152602435604482015260448152608081019181831067ffffffffffffffff841117610b0e576114eb92604052612d2e565b506001601155005b346101e457600080600319360112611cd25761150d6126c6565b6115216103cc82546001600160a01b031690565b604090815191828092634bf9c0ad60e11b8252602093849160049687915afa908115610757578591611cb5575b5061158782517f339459a600000000000000000000000000000000000000000000000000000000928386830152868252610ca282611da2565b50838361159e6103cc88546001600160a01b031690565b8451928380927fd3d1b0960000000000000000000000000000000000000000000000000000000082525afa8015610757576115ef918791611c98575b508351908386830152868252610ca282611da2565b5083836116066103cc88546001600160a01b031690565b84519283809263ab6e844f60e01b82525afa80156107575761163d918791611c9857508351908386830152868252610ca282611da2565b5083836116546103cc88546001600160a01b031690565b84519283809263cfbffe5360e01b82525afa80156107575761168b918791611c9857508351908386830152868252610ca282611da2565b5083836116a26103cc88546001600160a01b031690565b845192838092630536340960e21b82525afa8015610757576116d9918791611c9857508351908386830152868252610ca282611da2565b5083836116f06103cc88546001600160a01b031690565b84519283809263d1f956b160e01b82525afa801561075757611727918791611c9857508351908386830152868252610ca282611da2565b50838361173e6103cc88546001600160a01b031690565b845192838092631cc3bfab60e31b82525afa801561075757611775918791611c9857508351908386830152868252610ca282611da2565b50838361178c6103cc88546001600160a01b031690565b84519283809263e09d394d60e01b82525afa8015610757576117c3918791611c9857508351908386830152868252610ca282611da2565b5083836117da6103cc88546001600160a01b031690565b8451928380926314ac1b5960e21b82525afa801561075757611811918791611c9857508351908386830152868252610ca282611da2565b506118266103cc86546001600160a01b031690565b838351809263013cf08b60e01b825281806118488a8201906000602083019252565b03915afa801561075757611871918791611c9857508351908386830152868252610ca282611da2565b506118866103cc86546001600160a01b031690565b90825184817fb771c896000000000000000000000000000000000000000000000000000000009485825281806118c38b8201906000602083019252565b03915afa8015610757576118ed918891611c7b575b508451908387830152878252610ca282611da2565b506119026103cc87546001600160a01b031690565b8484518092858252818061191d8b8201906001602083019252565b03915afa801561075757611946918891611c7b57508451908387830152878252610ca282611da2565b5061195b6103cc87546001600160a01b031690565b848451809285825281806119768b8201906002602083019252565b03915afa80156107575761199f918891611c7b57508451908387830152878252610ca282611da2565b506119b46103cc87546001600160a01b031690565b848451809285825281806119cf8b8201906003602083019252565b03915afa8015610757576119f8918891611c7b57508451908387830152878252610ca282611da2565b5083611a0e6103cc88546001600160a01b031690565b92845193849182528180611a298a8201906004602083019252565b03915afa918215610757578592611a56918891611c5e575b508451908387830152848252610ca282611da2565b5083611a6c6103cc88546001600160a01b031690565b845193848092635e09dbe760e01b82525afa918215610757578592611aa6918891611c5e57508451908387830152848252610ca282611da2565b5083611abc6103cc88546001600160a01b031690565b845193848092635506ee0b60e11b82525afa918215610757578592611af6918891611c5e57508451908387830152848252610ca282611da2565b5083611b0c6103cc88546001600160a01b031690565b845193848092636402742760e01b82525afa918215610757578592611b46918891611c5e57508451908387830152848252610ca282611da2565b5083611b5c6103cc88546001600160a01b031690565b8451938480926330125cf560e01b82525afa918215610757578592611b96918891611c5e57508451908387830152848252610ca282611da2565b5083611bac6103cc88546001600160a01b031690565b8451938480926324768d9160e01b82525afa918215610757578592611be6918891611c5e57508451908387830152848252610ca282611da2565b5083611bfc6103cc88546001600160a01b031690565b8451968780926313b92d3560e31b82525afa92831561075757611c31958794611c3f575b5051938401528252610ca282611da2565b50611c3c6001601155565b80f35b611c57919450853d8711610750576107418183611dda565b9238611c20565b611c759150863d8811610750576107418183611dda565b38611a41565b611c929150863d8811610750576107418183611dda565b386118d8565b611caf9150853d8711610750576107418183611dda565b386115da565b611ccc9150833d8511610750576107418183611dda565b3861154e565b80fd5b346101e45760003660031901126101e4576020610f696001600160a01b0360035416604051611d0381611da2565b600681527f69416765282900000000000000000000000000000000000000000000000000008482015260405191610f6083611dbe565b634e487b7160e01b600052604160045260246000fd5b60135468010000000000000000811015610b0e57600181018060135581101561023957601360005260021b7f66de8ffda797e3de9c05e8fc57b3bf0ec28a930d40b0d285d93c06501cf6a0900190600090565b6040810190811067ffffffffffffffff821117610b0e57604052565b6020810190811067ffffffffffffffff821117610b0e57604052565b90601f8019910116810190811067ffffffffffffffff821117610b0e57604052565b604051906101e0820182811067ffffffffffffffff821117610b0e57604052565b67ffffffffffffffff8111610b0e57601f01601f191660200190565b604051611e4581611dbe565b60008152906000368137565b908160209103126101e45751611e66816102ae565b90565b6040513d6000823e3d90fd5b60005b838110611e885750506000910152565b8181015183820152602001611e78565b6000926001600160a01b0360a09396959660c08452602660c08501527f547269676765722e496e7374616e63652e70726f706f73616c2e55736572547260e08501527f616e73666572000000000000000000000000000000000000000000000000000061010085015216602083015283604083015261012080606084015281518091840152611f31816101409360208587019101611e75565b601f80199101168201019460808201520152565b908160209103126101e4575190565b634e487b7160e01b600052601160045260246000fd5b600019810191908211610b1357565b60405190611f8682611da2565b601282527f6765745374617475732875696e743235362900000000000000000000000000006020830152565b519081151582036101e457565b91908260409103126101e457611e666020611fd984611fb2565b9301611fb2565b611ffd906001600160a01b03166000526012602052604060002090565b5480151580612100575b156120fa576109a761201891611f6a565b50600381015460ff166120ed5761203a6103cc6000546001600160a01b031690565b6040518091630536340960e21b825281600460209384935afa801561075757610c94612096916120a3946000916120d0575b5061208860028701546040519384918783019190602083019252565b612090611f79565b90612b99565b8051810182019101611fbf565b819291926120c8575b50600091156120c457546001600160a01b0316905090565b5090565b9150386120ac565b6120e79150843d8611610750576107418183611dda565b3861206c565b546001600160a01b031690565b50600090565b50601354811115612007565b1561211357565b606460405162461bcd60e51b815260206004820152601c60248201527f7574696c6974792e62617463682e6c696d69742e6578636565646564000000006044820152fd5b1561215e57565b606460405162461bcd60e51b815260206004820152601760248201527f7574696c6974792e756e7365637572652e6661696c65640000000000000000006044820152fd5b604051906121af82611da2565b600f82527f6765744e6f646573436f756e74282900000000000000000000000000000000006020830152565b156121e257565b606460405162461bcd60e51b815260206004820152601360248201527f7574696c6974792e696d706f72742e646f6e65000000000000000000000000006044820152fd5b91908201809211610b1357565b6000198114610b135760010190565b6040519061224f82611da2565b601782527f6765744e6f64654279496e6465782875696e74323536290000000000000000006020830152565b1561228257565b606460405162461bcd60e51b815260206004820152601660248201527f70726f78792e696e76616c69642e696e7374616e6365000000000000000000006044820152fd5b604051906122d382611da2565b601382527f496e7374546f55736572286164647265737329000000000000000000000000006020830152565b1561230657565b606460405162461bcd60e51b815260206004820152601260248201527f70726f78792e696e76616c69642e6e6f646500000000000000000000000000006044820152fd5b6040519061235782611da2565b601082527f6765744e6f6465286164647265737329000000000000000000000000000000006020830152565b908160a09103126101e457805191602082015161239f816102ae565b91604081015191611e666080611fd960608501611fb2565b6123c4606482111561210c565b6123d061147930612adf565b6123e56103cc6000546001600160a01b031690565b60405180917f447aa30400000000000000000000000000000000000000000000000000000000825281600460209384935afa918215610757576000926126a7575b50612440612432611e39565b61243a6121a2565b84612ca8565b9283156126a15761248861247661245f6004546001600160a01b031690565b612467611e39565b906124706121a2565b90612ca8565b916124828387116121db565b82612226565b93808511612699575b505b8381106124a05750505050565b6126459061264061263b6040516126327f50db85d100000000000000000000000000000000000000000000000000000000612508836124e6888b83019190602083019252565b03936124fa601f1995868101835282611dda565b612502612242565b8b612c57565b6001600160a01b0361251d818316151561227b565b8131948a8c60016125c66125b861259e6125aa6125726125586125648c6040519283918c83019190916001600160a01b036020820193169052565b038b8101835282611dda565b61256c6122c6565b88612c57565b996125808a8c1615156122ff565b6040519283918983019190916001600160a01b036020820193169052565b03888101835282611dda565b6125b261234a565b85612b99565b848082518301019101612383565b50505095909516946125d98115156122ff565b148015612690575b61264a575b50610ec9846125f981610ca29697612701565b6004546001600160a01b031695604051978894850152602484019060209093929360408301946001600160a01b03809216845216910152565b50601554612226565b601555565b612233565b612493565b6040516001600160a01b03909416828501908152610ca294610ec9926126879261267f90839060200103878101845283611dda565b610e3e6122c6565b9350508c6125e6565b508315156125e1565b935038612491565b50505050565b816126bf9293503d8411610750576107418183611dda565b9038612426565b6002601154146126d7576002601155565b60046040517f3ee5aeb5000000000000000000000000000000000000000000000000000000008152fd5b6013549068010000000000000000821015610b0e5761274961272b836001600395016013556101ff565b509182906001600160a01b03166001600160a01b0319825416179055565b6001810180546001600160a01b0319166001600160a01b03851617905501600160ff198254161790556001600160a01b0360135491166000526012602052604060002055565b6040519061279c82611da2565b601682527f67657455736572546f496e7374286164647265737329000000000000000000006020830152565b612aad6101c0612ac9926128026127e682516001600160a01b031690565b6001600160a01b03166001600160a01b03196002541617600255565b61283561281960208301516001600160a01b031690565b6001600160a01b03166001600160a01b03196003541617600355565b61286861284c60408301516001600160a01b031690565b6001600160a01b03166001600160a01b03196004541617600455565b61289b61287f60608301516001600160a01b031690565b6001600160a01b03166001600160a01b03196005541617600555565b6128ce6128b260808301516001600160a01b031690565b6001600160a01b03166001600160a01b03196006541617600655565b6129016128e560a08301516001600160a01b031690565b6001600160a01b03166001600160a01b03196007541617600755565b61293461291860c08301516001600160a01b031690565b6001600160a01b03166001600160a01b03196008541617600855565b61296761294b60e08301516001600160a01b031690565b6001600160a01b03166001600160a01b03196009541617600955565b61299b61297f6101008301516001600160a01b031690565b6001600160a01b03166001600160a01b0319600a541617600a55565b6129cf6129b36101208301516001600160a01b031690565b6001600160a01b03166001600160a01b0319600b541617600b55565b612a036129e76101408301516001600160a01b031690565b6001600160a01b03166001600160a01b0319600c541617600c55565b612a37612a1b6101608301516001600160a01b031690565b6001600160a01b03166001600160a01b0319600d541617600d55565b612a6b612a4f6101808301516001600160a01b031690565b6001600160a01b03166001600160a01b0319600e541617600e55565b612a9f612a836101a08301516001600160a01b031690565b6001600160a01b03166001600160a01b0319600f541617600f55565b01516001600160a01b031690565b6001600160a01b03166001600160a01b03196010541617601055565b565b908160209103126101e457611e6690611fb2565b612b426001600160a01b038060025416604051916020941684830152838252612b0782611da2565b60405190612b1482611da2565b601582527f697353656375726542617365286164647265737329000000000000000000000085830152612bc4565b9080612b5f575b156103725781611e669282518301019101612acb565b5081815114612b49565b3d15612b94573d90612b7a82611e1d565b91612b886040519384611dda565b82523d6000602084013e565b606090565b90612ba49291612bc4565b9060009015612bb1575090565b6040519150612bbf82611dbe565b815290565b803b15612c3e576000927fffffffff000000000000000000000000000000000000000000000000000000008360208695519101201690612c2e6024604051809360208201958652612c1e8151809260208686019101611e75565b8101036004810184520182611dda565b51915afa612c3a612b69565b9091565b505050600090604051612c5081611dbe565b6000815290565b9291612c6591600094612bc4565b9080612c9d575b612c735750565b9091506020818051810103126101e45760206001600160a01b03910151612c99816102ae565b1690565b506020815114612c6c565b9291612cb691600094612bc4565b9080612cd9575b612cc45750565b611e6691925060208082518301019101611f45565b506020815114612cbd565b90602082519201517fffffffff00000000000000000000000000000000000000000000000000000000908181169360048110612d1f57505050565b60040360031b82901b16169150565b6001600160a01b03811615610d5257600080918351908260208601915af190612d55612b69565b9115612d5f575090565b805160009190600411612ddb57612d769150612ce4565b815115612d865750805190602001fd5b6040517f21c09d340000000000000000000000000000000000000000000000000000000081527fffffffff00000000000000000000000000000000000000000000000000000000919091166004820152602490fd5b50612d7656fea2646970667358221220456b10d5ba763a56603090aa3b9de7bbca0a7f18be8aa0e78e98013a58f8ece364736f6c63430008140033","linkReferences":{}},"methodIdentifiers":{"Burn(uint256)":"b90306ad","UserToForm(address)":"c1e6cec2","_delegatorCount()":"a1f7f539","_getImplementation(address)":"c54e44b0","_isDelegatorNode(address)":"e01ad5fd","_isSafe()":"e0a9bc2b","_isSecureBase(address)":"af484526","_isSigner(address)":"1f185d16","actualTVL()":"8d6edc14","closeTransferTarget(address)":"4ef260a9","forms(uint256)":"18c864e3","getBalance()":"12065fe0","getForm(uint256)":"479fa2c3","getFormsCount()":"cab3cc8d","getHexbase()":"3b9b7955","getImportedNodeByIndex(uint256)":"b8f1759a","getimportedNodeCount()":"e846034a","importRankBusiness(uint256,uint256)":"e981bcad","importedNode(uint256)":"ab7e46ae","importuser(uint256)":"3676bd1f","owner()":"8da5cb5b","resolveTransferTarget(address)":"ac233345","submitTransferForm(address,address,uint256)":"9932f81e","syncBaseAddr()":"339459a6","syncSystem()":"f245fe7a","systemAge()":"fdc10bc9","testTxnSys(address,uint256,uint256,uint256)":"9fb3953b"},"id":51}