{"abi":[{"type":"constructor","inputs":[{"name":"_hex","type":"address","internalType":"address"}],"stateMutability":"nonpayable"},{"type":"fallback","stateMutability":"payable"},{"type":"receive","stateMutability":"payable"},{"type":"function","name":"Burn","inputs":[{"name":"amount","type":"uint256","internalType":"uint256"}],"outputs":[],"stateMutability":"nonpayable"},{"type":"function","name":"UserToForm","inputs":[{"name":"","type":"address","internalType":"address"}],"outputs":[{"name":"","type":"uint256","internalType":"uint256"}],"stateMutability":"view"},{"type":"function","name":"_delegatorCount","inputs":[],"outputs":[{"name":"","type":"uint256","internalType":"uint256"}],"stateMutability":"view"},{"type":"function","name":"_getImplementation","inputs":[{"name":"clone","type":"address","internalType":"address"}],"outputs":[{"name":"impl","type":"address","internalType":"address"}],"stateMutability":"view"},{"type":"function","name":"_isDelegatorNode","inputs":[{"name":"sender","type":"address","internalType":"address"}],"outputs":[{"name":"","type":"bool","internalType":"bool"}],"stateMutability":"view"},{"type":"function","name":"_isSafe","inputs":[],"outputs":[{"name":"","type":"bool","internalType":"bool"}],"stateMutability":"view"},{"type":"function","name":"_isSecureBase","inputs":[{"name":"sender","type":"address","internalType":"address"}],"outputs":[{"name":"","type":"bool","internalType":"bool"}],"stateMutability":"view"},{"type":"function","name":"_isSigner","inputs":[{"name":"sender","type":"address","internalType":"address"}],"outputs":[{"name":"","type":"bool","internalType":"bool"}],"stateMutability":"view"},{"type":"function","name":"callback","inputs":[{"name":"formId","type":"uint256","internalType":"uint256"}],"outputs":[],"stateMutability":"nonpayable"},{"type":"function","name":"closeTransferTarget","inputs":[{"name":"to","type":"address","internalType":"address"}],"outputs":[],"stateMutability":"nonpayable"},{"type":"function","name":"forms","inputs":[{"name":"","type":"uint256","internalType":"uint256"}],"outputs":[{"name":"from","type":"address","internalType":"address"},{"name":"to","type":"address","internalType":"address"},{"name":"status","type":"bool","internalType":"bool"},{"name":"proposalId","type":"uint256","internalType":"uint256"},{"name":"resolved","type":"bool","internalType":"bool"},{"name":"closed","type":"bool","internalType":"bool"}],"stateMutability":"view"},{"type":"function","name":"getBalance","inputs":[],"outputs":[{"name":"","type":"uint256","internalType":"uint256"}],"stateMutability":"view"},{"type":"function","name":"getForm","inputs":[{"name":"formId","type":"uint256","internalType":"uint256"}],"outputs":[{"name":"from","type":"address","internalType":"address"},{"name":"to","type":"address","internalType":"address"},{"name":"resolved","type":"bool","internalType":"bool"},{"name":"closed","type":"bool","internalType":"bool"},{"name":"status","type":"bool","internalType":"bool"},{"name":"proposalId","type":"uint256","internalType":"uint256"}],"stateMutability":"view"},{"type":"function","name":"getFormsCount","inputs":[],"outputs":[{"name":"","type":"uint256","internalType":"uint256"}],"stateMutability":"view"},{"type":"function","name":"getHexbase","inputs":[],"outputs":[{"name":"","type":"address","internalType":"address"}],"stateMutability":"view"},{"type":"function","name":"getImportedNodeByIndex","inputs":[{"name":"index","type":"uint256","internalType":"uint256"}],"outputs":[{"name":"node","type":"address","internalType":"address"}],"stateMutability":"view"},{"type":"function","name":"getimportedNodeCount","inputs":[],"outputs":[{"name":"nodesCount","type":"uint256","internalType":"uint256"}],"stateMutability":"view"},{"type":"function","name":"importRankBusiness","inputs":[{"name":"_fromAge","type":"uint256","internalType":"uint256"},{"name":"_toAge","type":"uint256","internalType":"uint256"}],"outputs":[],"stateMutability":"nonpayable"},{"type":"function","name":"importedNode","inputs":[{"name":"","type":"uint256","internalType":"uint256"}],"outputs":[{"name":"","type":"address","internalType":"address"}],"stateMutability":"view"},{"type":"function","name":"importuser","inputs":[{"name":"batchSize","type":"uint256","internalType":"uint256"}],"outputs":[],"stateMutability":"nonpayable"},{"type":"function","name":"owner","inputs":[],"outputs":[{"name":"","type":"address","internalType":"address"}],"stateMutability":"view"},{"type":"function","name":"resolveTransferTarget","inputs":[{"name":"to","type":"address","internalType":"address"}],"outputs":[{"name":"from","type":"address","internalType":"address"}],"stateMutability":"view"},{"type":"function","name":"submitTransferForm","inputs":[{"name":"_from","type":"address","internalType":"address"}],"outputs":[],"stateMutability":"nonpayable"},{"type":"function","name":"systemAge","inputs":[],"outputs":[{"name":"","type":"uint256","internalType":"uint256"}],"stateMutability":"view"},{"type":"function","name":"testTxnSys","inputs":[{"name":"paramAdd","type":"address","internalType":"address"},{"name":"_id_maxint","type":"uint256","internalType":"uint256"},{"name":"_qty","type":"uint256","internalType":"uint256"},{"name":"_amt","type":"uint256","internalType":"uint256"}],"outputs":[],"stateMutability":"payable"},{"type":"event","name":"EthBurned","inputs":[{"name":"sender","type":"address","indexed":true,"internalType":"address"},{"name":"amount","type":"uint256","indexed":false,"internalType":"uint256"}],"anonymous":false},{"type":"event","name":"EthTransferred","inputs":[{"name":"to","type":"address","indexed":true,"internalType":"address"},{"name":"amount","type":"uint256","indexed":false,"internalType":"uint256"}],"anonymous":false},{"type":"event","name":"HexBaseUpdated","inputs":[{"name":"previousHexBase","type":"address","indexed":true,"internalType":"address"},{"name":"newHexBase","type":"address","indexed":true,"internalType":"address"}],"anonymous":false},{"type":"event","name":"OwnerUpdated","inputs":[{"name":"previousOwner","type":"address","indexed":true,"internalType":"address"},{"name":"newOwner","type":"address","indexed":true,"internalType":"address"}],"anonymous":false},{"type":"error","name":"ReentrancyGuardReentrantCall","inputs":[]},{"type":"error","name":"TargetCallFailed","inputs":[{"name":"selector","type":"bytes4","internalType":"bytes4"}]}],"bytecode":{"object":"0x6080346100ca57601f61255a38819003918201601f19168301916001600160401b038311848410176100cf578084926020946040528339810103126100ca57516001600160a01b038116908190036100ca5780156100855760018060a01b0319338160015416176001556000541617600055600160035560405161247490816100e68239f35b60405162461bcd60e51b815260206004820152601360248201527f6f776e2e696e76616c69642e68657862617365000000000000000000000000006044820152606490fd5b600080fd5b634e487b7160e01b600052604160045260246000fdfe60806040526004361015610018575b361561001657005b005b60003560e01c806312065fe0146101a857806318c864e3146101a35780631f185d161461019e5780633294adf0146101995780633676bd1f146101945780633b9b79551461018f578063479fa2c31461018a5780634ef260a9146101855780638da5cb5b146101805780639fb3953b1461017b578063a1f7f53914610176578063ab7e46ae14610171578063ac2333451461016c578063af48452614610167578063b8f1759a14610162578063b90306ad1461015d578063c1e6cec214610158578063c54e44b014610153578063cab3cc8d1461014e578063e01ad5fd14610149578063e0a9bc2b14610144578063e846034a1461013f578063e981bcad1461013a578063fdc10bc9146101355763ff585caf0361000e576110a5565b610ffd565b610f22565b610f04565b610e65565b610dcb565b610dad565b610d0b565b610ccd565b610bad565b610b53565b610b22565b610aea565b610a90565b6109d2565b61081c565b6107f5565b610721565b610672565b61064b565b610620565b6103e3565b6102be565b61021e565b346101c45760003660031901126101c457602047604051908152f35b600080fd5b634e487b7160e01b600052603260045260246000fd5b60055481101561021957600560005260021b7f036b6384b5eca791c62761152d0c79bb0604c104a5fb6f4eb0703f3154bb3db00190600090565b6101c9565b346101c45760203660031901126101c4576004356005548110156101c457610245906101df565b50805460018201546002830154600390930154604080516001600160a01b039485168152938316602085015260ff60a093841c811615159185019190915260608401949094528381161515608084015260081c90921615159181019190915260c090f35b0390f35b6001600160a01b038116036101c457565b346101c4576020806003193601126101c4576004908135906102df826102ad565b806103016102f56000546001600160a01b031690565b6001600160a01b031690565b60405194858092634bf9c0ad60e11b82525afa9182156103de5761035561038f93610371926102a9966000926103ab575b50610363906040519384918783019190916001600160a01b036020820193169052565b03601f198101845283611205565b61036b61203d565b906121a0565b9190806103a1575b61038290612076565b8082518301019101611efb565b60405190151581529081906020820190565b5081518114610379565b6103639192506103d090863d88116103d7575b6103c88183611205565b810190611227565b9190610332565b503d6103be565b61123f565b346101c4576020806003193601126101c457600435610401816102ad565b6001600160a01b038116156105dc57610437610430336001600160a01b03166000526004602052604060002090565b5415611119565b61046d61044261117a565b509182906001600160a01b031673ffffffffffffffffffffffffffffffffffffffff19825416179055565b60018101805473ffffffffffffffffffffffffffffffffffffffff191633178155916104d2906004906005546040519384917fff585caf0000000000000000000000000000000000000000000000000000000084840152602483019190602083019252565b036104e5601f1991828101865285611205565b816104fb6102f56000546001600160a01b031690565b60405194858092630536340960e21b82525afa9283156103de576002946105859461057893610567936000926105bb575b5061057391926040519485917fd3a308490000000000000000000000000000000000000000000000000000000089840152306024840161126e565b03908101845283611205565b612349565b80518101820191016112ee565b9101556105b861059f60055492546001600160a01b031690565b6001600160a01b03166000526004602052604060002090565b55005b61057392506105d690873d89116103d7576103c88183611205565b9161052c565b6064826040519062461bcd60e51b82526004820152601260248201527f6f776e2e64656661756c742e73656e64657200000000000000000000000000006044820152fd5b346101c45760203660031901126101c457610639611d65565b610644600435611934565b6001600355005b346101c45760003660031901126101c45760206001600160a01b0360005416604051908152f35b346101c45760203660031901126101c45760043580151580610715575b61069890611348565b6000198101908111610710576106ad906101df565b50805460018201546003830154600290930154604080516001600160a01b039485168152938316602085015260ff80861615159185019190915260089490941c84161515606084015260a091821c9093161515608083015281019190915260c090f35b611393565b5060055481111561068f565b346101c45760203660031901126101c4576001600160a01b03600435610746816102ad565b166000908082526004602052604082205460001981019081116107105761076e6003916101df565b500161010061ff00198254161790558082526004602052816040812055600654680100000000000000008110156107f0576001810180600655811015610219577ff652222313e28459528d920b65115c16c04f3efc82aaedc97be59f3f377c0d3f019073ffffffffffffffffffffffffffffffffffffffff1982541617905580f35b611164565b346101c45760003660031901126101c45760206001600160a01b0360015416604051908152f35b60803660031901126101c457600435610834816102ad565b61083c611d65565b6108516102f56000546001600160a01b031690565b6040519163ab6e844f60e01b83526020918284600481845afa9384156103de576000946109ae575b5082600491604051928380927fde433f170000000000000000000000000000000000000000000000000000000082525afa9081156103de57610902916108e091600091610991575b506040519182918683019190916001600160a01b036020820193169052565b03946108f4601f1996878101845283611205565b6108fc611e3e565b90612236565b906001600160a01b03821661091c575b6100166001600355565b610987937fc107930a00000000000000000000000000000000000000000000000000000000936105676105739360405196879384015260643590604435906024359060248601909493926060926001600160a01b036080840197168352602083015260408201520152565b5038808080610912565b6109a89150853d87116103d7576103c88183611205565b386108c1565b60049194506109ca8491823d84116103d7576103c88183611205565b949150610879565b346101c45760003660031901126101c457600460206001600160a01b03600054166040519283809263d1f956b160e01b82525afa9081156103de576102a991610a6291600091610a72575b50604051610a2a816111cd565b601381527f67657464656c656761746f72436f756e742829000000000000000000000000006020820152610a5c6113d4565b916122c3565b6040519081529081906020820190565b610a8a915060203d81116103d7576103c88183611205565b38610a1d565b346101c45760203660031901126101c4576004356006548110156101c4576001600160a01b0360209160066000527ff652222313e28459528d920b65115c16c04f3efc82aaedc97be59f3f377c0d3f015416604051908152f35b346101c45760203660031901126101c4576020610b11600435610b0c816102ad565b61159c565b6001600160a01b0360405191168152f35b346101c45760203660031901126101c4576020610b49600435610b44816102ad565b611f93565b6040519015158152f35b346101c45760203660031901126101c457600435600654811015610219576001600160a01b0360209160066000527ff652222313e28459528d920b65115c16c04f3efc82aaedc97be59f3f377c0d3f015416604051908152f35b346101c4576020806003193601126101c4576004356001600160a01b0391600092808454169060405191630536340960e21b83528383600481845afa9283156103de576004938593610c09928992610cae575b501633146112fd565b604051928380927f46f991ac0000000000000000000000000000000000000000000000000000000082525afa9182156103de57848085610c6095829583958492610c91575b50505af1610c5a6120fa565b5061212a565b60405190815233907fcdcc745fe377b103b45fa0cec23ae3ef93d6fc6a84a01f0d18c40b354dd1d5d890602090a280f35b610ca79250803d106103d7576103c88183611205565b3880610c4e565b610cc6919250853d87116103d7576103c88183611205565b9038610c00565b346101c45760203660031901126101c4576001600160a01b03600435610cf2816102ad565b1660005260046020526020604060002054604051908152f35b346101c45760203660031901126101c457600435610d28816102ad565b803b6000610d35826113b8565b92610d436040519485611205565b82845260208401903c602d815110610d6957602a015160405160609190911c8152602090f35b606460405162461bcd60e51b815260206004820152601360248201527f4e6f742061206d696e696d616c2070726f7879000000000000000000000000006044820152fd5b346101c45760003660031901126101c4576020600554604051908152f35b346101c4576020806003193601126101c45760048035610dea816102ad565b6001600160a01b03928084600054166040519485809263d1f956b160e01b82525afa9081156103de576102a99461038f94600093610e46575b506040519316818401528252610e38826111cd565b610e406120c1565b90612287565b610e5e919350823d84116103d7576103c88183611205565b9138610e23565b346101c45760003660031901126101c4576001600160a01b03600054166040518091634bf9c0ad60e11b825281600460209384935afa9081156103de57610ecc61038f926102a994600091610ee7575b50610ebe611e77565b610ec66113d4565b916121a0565b919080610edd575b61038290611eb0565b5081518114610ed4565b610efe9150833d85116103d7576103c88183611205565b38610eb5565b346101c45760003660031901126101c4576020600654604051908152f35b346101c45760403660031901126101c457610f3b611d65565b610f4c610f4730611f93565b6116bc565b60046020610f656102f56000546001600160a01b031690565b6040519283809263ab6e844f60e01b82525afa80156103de57610fd491600091610fdf575b506040517f33b59a5b000000000000000000000000000000000000000000000000000000006020820152600435602480830191909152356044820152906105738260648101610355565b506100166001600355565b610ff7915060203d81116103d7576103c88183611205565b38610f8a565b346101c45760003660031901126101c457600460206001600160a01b03600054166040519283809263111ea8c160e21b82525afa9081156103de576102a991610a6291600091611087575b50604051611055816111cd565b600581527f61676528290000000000000000000000000000000000000000000000000000006020820152610a5c6113d4565b61109f915060203d81116103d7576103c88183611205565b38611048565b346101c45760203660031901126101c45760046001600160a01b036020816000541660405193848092630536340960e21b82525afa9081156103de576110f59260009261110057501633146112fd565b610016600435611466565b610cc691925060203d81116103d7576103c88183611205565b1561112057565b606460405162461bcd60e51b815260206004820152601260248201527f70726f706f7365722e746f2e65786973747300000000000000000000000000006044820152fd5b634e487b7160e01b600052604160045260246000fd5b600554680100000000000000008110156107f057600181018060055581101561021957600560005260021b7f036b6384b5eca791c62761152d0c79bb0604c104a5fb6f4eb0703f3154bb3db00190600090565b6040810190811067ffffffffffffffff8211176107f057604052565b6020810190811067ffffffffffffffff8211176107f057604052565b90601f8019910116810190811067ffffffffffffffff8211176107f057604052565b908160209103126101c4575161123c816102ad565b90565b6040513d6000823e3d90fd5b60005b83811061125e5750506000910152565b818101518382015260200161124e565b92916080906001600160a01b03600a9360a08752600d60a08801527f55736572205472616e736665720000000000000000000000000000000000000060c08801521660208601526000604086015260e0606086015280518060e08701526112df81610100936020858a01910161124b565b601f8019910116850101930152565b908160209103126101c4575190565b1561130457565b606460405162461bcd60e51b815260206004820152600f60248201527f6f776e2e6e6f6e617574682e44414f00000000000000000000000000000000006044820152fd5b1561134f57565b606460405162461bcd60e51b815260206004820152601760248201527f70726f706f7365722e696e76616c69642e666f726d69640000000000000000006044820152fd5b634e487b7160e01b600052601160045260246000fd5b60001981019190821161071057565b67ffffffffffffffff81116107f057601f01601f191660200190565b604051906113e1826111e9565b60008252565b604051906113f4826111cd565b601282527f676574526573756c742875696e743235362900000000000000000000000000006020830152565b519081151582036101c457565b91908260c09103126101c45781519160208101519160408201519160608101519161123c60a061145f60808501611420565b9301611420565b80156115995761148661148b91611481600554821115611348565b6113a9565b6101df565b506114a16102f56000546001600160a01b031690565b604051918291630536340960e21b835282600460209485935afa9081156103de576115156115689361150861035560039561157a9860009161157c575b506114fa60028701546040519384918783019190602083019252565b6115026113e7565b90612175565b805181018201910161142d565b9794509250505060018301907fffffffffffffffffffffff00ffffffffffffffffffffffffffffffffffffffff74ff0000000000000000000000000000000000000000835492151560a01b169116179055565b019060ff801983541691151516179055565b565b6115939150843d86116103d7576103c88183611205565b386114de565b50565b6115b9816001600160a01b03166000526004602052604060002090565b548015159081611664575b501561165e576114866115ed6115f3926001600160a01b03166000526004602052604060002090565b546113a9565b50600181015460a01c60ff169081611648575b81611627575b6000911561162357546001600160a01b0316905090565b5090565b905061164261163e600383015460ff9060081c1690565b1590565b9061160c565b9050611658600382015460ff1690565b90611606565b50600090565b90506005541015386115c4565b1561167857565b606460405162461bcd60e51b815260206004820152601c60248201527f7574696c6974792e62617463682e6c696d69742e6578636565646564000000006044820152fd5b156116c357565b606460405162461bcd60e51b815260206004820152601760248201527f7574696c6974792e756e7365637572652e6661696c65640000000000000000006044820152fd5b604051611713816111e9565b60008152906000368137565b6040519061172c826111cd565b600f82527f6765744e6f646573436f756e74282900000000000000000000000000000000006020830152565b1561175f57565b606460405162461bcd60e51b815260206004820152601360248201527f7574696c6974792e696d706f72742e646f6e65000000000000000000000000006044820152fd5b9190820180921161071057565b60001981146107105760010190565b604051906117cc826111cd565b601782527f6765744e6f64654279496e6465782875696e74323536290000000000000000006020830152565b156117ff57565b606460405162461bcd60e51b815260206004820152601660248201527f70726f78792e696e76616c69642e696e7374616e6365000000000000000000006044820152fd5b60405190611850826111cd565b601382527f496e7374546f55736572286164647265737329000000000000000000000000006020830152565b1561188357565b606460405162461bcd60e51b815260206004820152601260248201527f70726f78792e696e76616c69642e6e6f646500000000000000000000000000006044820152fd5b604051906118d4826111cd565b601082527f6765744e6f6465286164647265737329000000000000000000000000000000006020830152565b908160a09103126101c457805191602082015161191c816102ad565b9160408101519161123c608061145f60608501611420565b6119416064821115611671565b61194d610f4730611f93565b6000906119646102f583546001600160a01b031690565b9160409081519163111ea8c160e21b9485845260209060049482818781855afa80156103de576119ad918691611d4e575b5061199e611707565b906119a761171f565b906122c3565b958615611d445783518381888163ab6e844f60e01b968782525afa9081156103de576119f8916119e6918891611d27575061199e611707565b916119f2838a11611758565b826117a3565b96808811611d1f575b505b868110611a14575050505050505050565b611a286102f586546001600160a01b031690565b9084519189835284838981845afa9283156103de578793611d00575b50611a78865180611a5c858983019190602083019252565b0394611a70601f1996878101845283611205565b6108fc6117bf565b906001600160a01b03611a8e81841615156117f8565b87518c815287818c81865afa80156103de57611ae3918b91611ce3575b50895190611adb82611acf888d83019190916001600160a01b036020820193169052565b03898101845283611205565b6108fc611843565b91611af1828416151561187c565b8851938d855288858d81855afa9485156103de57611b4e6001928c8f988f611b5c958f9192611cbe575b5091516001600160a01b0390931691830191825290611b469083906020015b038c8101845283611205565b6115026118c7565b8a8082518301019101611900565b5050509390931692611b6f81151561187c565b148015611cb5575b611c38575b50611b878280611da0565b86611b9c6102f58b546001600160a01b031690565b8951948580928a82525afa80156103de57611c1295611c0c948b92611c17575b5089517f50db85d1000000000000000000000000000000000000000000000000000000008a8201526001600160a01b03938416602482015293909216604484015290610573908360648101610567565b506117b0565b611a03565b6105739250611c32908a3d8c116103d7576103c88183611205565b91611bbc565b928c88918a518096819382525afa9283156103de578a93611c8c92611c80928c92611c92575b50611adb908b519384918c83019190916001600160a01b036020820193169052565b03888101845283611205565b38611b7c565b611adb919250611cae908b3d8d116103d7576103c88183611205565b9190611c5e565b50811515611b77565b611b469250611cdc611b3a91833d85116103d7576103c88183611205565b9250611b1b565b611cfa9150893d8b116103d7576103c88183611205565b38611aab565b611d18919350853d87116103d7576103c88183611205565b9138611a44565b965038611a01565b611d3e9150863d88116103d7576103c88183611205565b38611995565b5050505050505050565b611d3e9150843d86116103d7576103c88183611205565b600260035414611d76576002600355565b60046040517f3ee5aeb5000000000000000000000000000000000000000000000000000000008152fd5b60055490680100000000000000008210156107f057611dca610442836001600395016005556101df565b600181810180547fffffffffffffffffffffff000000000000000000000000000000000000000000166001600160a01b0395909516948517740100000000000000000000000000000000000000001790559101805461ffff1916909117905560055460009182526004602052604090912055565b60405190611e4b826111cd565b601682527f67657455736572546f496e7374286164647265737329000000000000000000006020830152565b60405190611e84826111cd565b600882527f69735361666528290000000000000000000000000000000000000000000000006020830152565b15611eb757565b606460405162461bcd60e51b815260206004820152601960248201527f6f776e2e7361666567756172642e63616c6c2e6661696c6564000000000000006044820152fd5b908160209103126101c45761123c90611420565b60405190611f1c826111cd565b601582527f69735365637572654261736528616464726573732900000000000000000000006020830152565b15611f4f57565b606460405162461bcd60e51b815260206004820152601a60248201527f6f776e2e736563757265626173652e63616c6c2e6661696c65640000000000006044820152fd5b6000546001600160a01b0316604051918291634bf9c0ad60e11b835282600460209485935afa9283156103de5761123c93611fff926103559260009261201a575b50611ff7906040519384918783019190916001600160a01b036020820193169052565b61036b611f0f565b919080612010575b61038290611f48565b5081518114612007565b611ff791925061203690863d88116103d7576103c88183611205565b9190611fd4565b6040519061204a826111cd565b601182527f69735369676e65722861646472657373290000000000000000000000000000006020830152565b1561207d57565b606460405162461bcd60e51b815260206004820152601660248201527f6f776e2e7369676e65722e63616c6c2e6661696c6564000000000000000000006044820152fd5b604051906120ce826111cd565b601882527f697364656c656761746f724e6f646528616464726573732900000000000000006020830152565b3d15612125573d9061210b826113b8565b916121196040519384611205565b82523d6000602084013e565b606090565b1561213157565b606460405162461bcd60e51b815260206004820152600f60248201527f6f776e2e6275726e2e6661696c656400000000000000000000000000000000006044820152fd5b9061218092916121a0565b906000901561218d575090565b604051915061219b826111e9565b815290565b803b1561221d576000927fffffffff00000000000000000000000000000000000000000000000000000000836020869551910120169061220a60246040518093602082019586526121fa815180926020868601910161124b565b8101036004810184520182611205565b5191620dbba0fa6122196120fa565b9091565b50505060009060405161222f816111e9565b6000815290565b9291612244916000946121a0565b908061227c575b6122525750565b9091506020818051810103126101c45760206001600160a01b03910151612278816102ad565b1690565b50602081511461224b565b9291612295916000946121a0565b90806122b8575b6122a35750565b61123c91925060208082518301019101611efb565b50602081511461229c565b92916122d1916000946121a0565b90806122f4575b6122df5750565b61123c919250602080825183010191016112ee565b5060208151146122d8565b90602082519201517fffffffff0000000000000000000000000000000000000000000000000000000090818116936004811061233a57505050565b60040360031b82901b16169150565b6001600160a01b038116156123fa57600080918351908260208601915af1906123706120fa565b911561237a575090565b8051600091906004116123f45761239191506122ff565b8151156123a15750805190602001fd5b6024907fffffffff00000000000000000000000000000000000000000000000000000000604051917f21c09d34000000000000000000000000000000000000000000000000000000008352166004820152fd5b50612391565b606460405162461bcd60e51b815260206004820152601260248201527f6f776e2e696e76616c69642e74617267657400000000000000000000000000006044820152fdfea2646970667358221220b6f653ff2cfb3f295a5513237f8577eebabc8aa6a1edaf6c59320b695e88ed2164736f6c63430008140033","linkReferences":{}},"methodIdentifiers":{"Burn(uint256)":"b90306ad","UserToForm(address)":"c1e6cec2","_delegatorCount()":"a1f7f539","_getImplementation(address)":"c54e44b0","_isDelegatorNode(address)":"e01ad5fd","_isSafe()":"e0a9bc2b","_isSecureBase(address)":"af484526","_isSigner(address)":"1f185d16","callback(uint256)":"ff585caf","closeTransferTarget(address)":"4ef260a9","forms(uint256)":"18c864e3","getBalance()":"12065fe0","getForm(uint256)":"479fa2c3","getFormsCount()":"cab3cc8d","getHexbase()":"3b9b7955","getImportedNodeByIndex(uint256)":"b8f1759a","getimportedNodeCount()":"e846034a","importRankBusiness(uint256,uint256)":"e981bcad","importedNode(uint256)":"ab7e46ae","importuser(uint256)":"3676bd1f","owner()":"8da5cb5b","resolveTransferTarget(address)":"ac233345","submitTransferForm(address)":"3294adf0","systemAge()":"fdc10bc9","testTxnSys(address,uint256,uint256,uint256)":"9fb3953b"},"id":52}