{"abi":[{"type":"constructor","inputs":[{"name":"_hex","type":"address","internalType":"address"}],"stateMutability":"nonpayable"},{"type":"fallback","stateMutability":"payable"},{"type":"receive","stateMutability":"payable"},{"type":"function","name":"Burn","inputs":[{"name":"amount","type":"uint256","internalType":"uint256"}],"outputs":[],"stateMutability":"nonpayable"},{"type":"function","name":"UserToForm","inputs":[{"name":"","type":"address","internalType":"address"}],"outputs":[{"name":"","type":"uint256","internalType":"uint256"}],"stateMutability":"view"},{"type":"function","name":"_delegatorCount","inputs":[],"outputs":[{"name":"","type":"uint256","internalType":"uint256"}],"stateMutability":"view"},{"type":"function","name":"_getImplementation","inputs":[{"name":"clone","type":"address","internalType":"address"}],"outputs":[{"name":"impl","type":"address","internalType":"address"}],"stateMutability":"view"},{"type":"function","name":"_isDelegatorNode","inputs":[{"name":"sender","type":"address","internalType":"address"}],"outputs":[{"name":"","type":"bool","internalType":"bool"}],"stateMutability":"view"},{"type":"function","name":"_isSafe","inputs":[],"outputs":[{"name":"","type":"bool","internalType":"bool"}],"stateMutability":"view"},{"type":"function","name":"_isSecureBase","inputs":[{"name":"sender","type":"address","internalType":"address"}],"outputs":[{"name":"","type":"bool","internalType":"bool"}],"stateMutability":"view"},{"type":"function","name":"_isSigner","inputs":[{"name":"sender","type":"address","internalType":"address"}],"outputs":[{"name":"","type":"bool","internalType":"bool"}],"stateMutability":"view"},{"type":"function","name":"actualTVL","inputs":[],"outputs":[{"name":"","type":"uint256","internalType":"uint256"}],"stateMutability":"view"},{"type":"function","name":"closeTransferTarget","inputs":[{"name":"to","type":"address","internalType":"address"}],"outputs":[],"stateMutability":"nonpayable"},{"type":"function","name":"forms","inputs":[{"name":"","type":"uint256","internalType":"uint256"}],"outputs":[{"name":"from","type":"address","internalType":"address"},{"name":"to","type":"address","internalType":"address"},{"name":"proposalId","type":"uint256","internalType":"uint256"}],"stateMutability":"view"},{"type":"function","name":"getBalance","inputs":[],"outputs":[{"name":"","type":"uint256","internalType":"uint256"}],"stateMutability":"view"},{"type":"function","name":"getForm","inputs":[{"name":"formId","type":"uint256","internalType":"uint256"}],"outputs":[{"name":"from","type":"address","internalType":"address"},{"name":"to","type":"address","internalType":"address"},{"name":"proposalId","type":"uint256","internalType":"uint256"}],"stateMutability":"view"},{"type":"function","name":"getFormsCount","inputs":[],"outputs":[{"name":"","type":"uint256","internalType":"uint256"}],"stateMutability":"view"},{"type":"function","name":"getHexbase","inputs":[],"outputs":[{"name":"","type":"address","internalType":"address"}],"stateMutability":"view"},{"type":"function","name":"getImportedNodeByIndex","inputs":[{"name":"index","type":"uint256","internalType":"uint256"}],"outputs":[{"name":"node","type":"address","internalType":"address"}],"stateMutability":"view"},{"type":"function","name":"getimportedNodeCount","inputs":[],"outputs":[{"name":"nodesCount","type":"uint256","internalType":"uint256"}],"stateMutability":"view"},{"type":"function","name":"importRankBusiness","inputs":[{"name":"_fromAge","type":"uint256","internalType":"uint256"},{"name":"_toAge","type":"uint256","internalType":"uint256"}],"outputs":[],"stateMutability":"nonpayable"},{"type":"function","name":"importedNode","inputs":[{"name":"","type":"uint256","internalType":"uint256"}],"outputs":[{"name":"","type":"address","internalType":"address"}],"stateMutability":"view"},{"type":"function","name":"importuser","inputs":[{"name":"batchSize","type":"uint256","internalType":"uint256"}],"outputs":[],"stateMutability":"nonpayable"},{"type":"function","name":"owner","inputs":[],"outputs":[{"name":"","type":"address","internalType":"address"}],"stateMutability":"view"},{"type":"function","name":"resolveTransferTarget","inputs":[{"name":"to","type":"address","internalType":"address"}],"outputs":[{"name":"","type":"address","internalType":"address"}],"stateMutability":"view"},{"type":"function","name":"setSysData","inputs":[{"name":"_price","type":"uint256","internalType":"uint256"},{"name":"prevAge","type":"uint256","internalType":"uint256"},{"name":"_cnt","type":"uint256[7]","internalType":"uint256[7]"}],"outputs":[],"stateMutability":"nonpayable"},{"type":"function","name":"submitTransferForm","inputs":[{"name":"_from","type":"address","internalType":"address"},{"name":"_to","type":"address","internalType":"address"},{"name":"proposalId","type":"uint256","internalType":"uint256"},{"name":"status","type":"bool","internalType":"bool"}],"outputs":[],"stateMutability":"nonpayable"},{"type":"function","name":"syncBaseAddr","inputs":[],"outputs":[],"stateMutability":"nonpayable"},{"type":"function","name":"syncSystem","inputs":[],"outputs":[],"stateMutability":"nonpayable"},{"type":"function","name":"systemAge","inputs":[],"outputs":[{"name":"","type":"uint256","internalType":"uint256"}],"stateMutability":"view"},{"type":"event","name":"EthBurned","inputs":[{"name":"sender","type":"address","indexed":true,"internalType":"address"},{"name":"amount","type":"uint256","indexed":false,"internalType":"uint256"}],"anonymous":false},{"type":"event","name":"EthTransferred","inputs":[{"name":"to","type":"address","indexed":true,"internalType":"address"},{"name":"amount","type":"uint256","indexed":false,"internalType":"uint256"}],"anonymous":false},{"type":"event","name":"HexBaseUpdated","inputs":[{"name":"previousHexBase","type":"address","indexed":true,"internalType":"address"},{"name":"newHexBase","type":"address","indexed":true,"internalType":"address"}],"anonymous":false},{"type":"event","name":"OwnerUpdated","inputs":[{"name":"previousOwner","type":"address","indexed":true,"internalType":"address"},{"name":"newOwner","type":"address","indexed":true,"internalType":"address"}],"anonymous":false},{"type":"error","name":"CallFailed","inputs":[]},{"type":"error","name":"InvalidAddress","inputs":[]},{"type":"error","name":"InvalidState","inputs":[]},{"type":"error","name":"NotAuthorized","inputs":[]},{"type":"error","name":"NotSafe","inputs":[]},{"type":"error","name":"ReentrancyGuardReentrantCall","inputs":[]},{"type":"error","name":"TargetCallFailed","inputs":[{"name":"selector","type":"bytes4","internalType":"bytes4"}]}],"bytecode":{"object":"0x6080346200009e57601f62002d0f38819003918201601f19168301916001600160401b03831184841017620000a3578084926020946040528339810103126200009e57516001600160a01b038116908190036200009e5780156200008c5760018060a01b03193381600154161760015560005416176000556001601155604051612c559081620000ba8239f35b60405163e6c4247b60e01b8152600490fd5b600080fd5b634e487b7160e01b600052604160045260246000fdfe60806040526004361015610018575b361561001657005b005b60003560e01c8063067943bc146101c857806312065fe0146101c357806318c864e3146101be5780631f185d16146101b9578063339459a6146101b45780633676bd1f146101af5780633b9b7955146101aa578063479fa2c3146101a55780634ef260a9146101a05780638d6edc141461019b5780638da5cb5b14610196578063a1f7f53914610191578063ab7e46ae1461018c578063ac23334514610187578063acacd12014610182578063af4845261461017d578063b8f1759a14610178578063b90306ad14610173578063c1e6cec21461016e578063c54e44b014610169578063cab3cc8d14610164578063e01ad5fd1461015f578063e0a9bc2b1461015a578063e846034a14610155578063e981bcad14610150578063f245fe7a1461014b5763fdc10bc90361000e57611be9565b611420565b61136b565b61134d565b611332565b611267565b611249565b6111c3565b611185565b611077565b61101d565b610fec565b610f90565b610e8f565b610e35565b610d89565b610d62565b610d44565b610c87565b610ba9565b610b82565b610acd565b61054c565b610465565b610406565b610394565b6101ed565b6001600160a01b038116036101de57565b600080fd5b801515036101de57565b346101de5760803660031901126101de5760043561020a816101cd565b60243590610217826101cd565b60443590606435610227816101e3565b6001600160a01b038083161561036a578416801561036a5783156103265760005260126020526040600020546102e25761025d57005b60029061028961026b611c4d565b509182906001600160a01b03166001600160a01b0319825416179055565b6102ad600182019485906001600160a01b03166001600160a01b0319825416179055565b01556102df6102c660135492546001600160a01b031690565b6001600160a01b03166000526012602052604060002090565b55005b606460405162461bcd60e51b815260206004820152601260248201527f70726f706f7365722e746f2e65786973747300000000000000000000000000006044820152fd5b606460405162461bcd60e51b815260206004820152601060248201527f70726f706f7365722e696e76616c6964000000000000000000000000000000006044820152fd5b60046040517fe6c4247b000000000000000000000000000000000000000000000000000000008152fd5b346101de5760003660031901126101de57602047604051908152f35b634e487b7160e01b600052603260045260246000fd5b601354811015610401576003906013600052027f66de8ffda797e3de9c05e8fc57b3bf0ec28a930d40b0d285d93c06501cf6a0900190600090565b6103b0565b346101de5760203660031901126101de576004356013548110156101de5761042d906103c6565b5080546001820154600290920154604080516001600160a01b03938416815292909316602083015291810191909152606090f35b0390f35b346101de576020806003193601126101de576104e4600435610486816101cd565b6001600160a01b038060025416906040519216848301528382526104a982610ef9565b604051906104b682610ef9565b601182527f69735369676e6572286164647265737329000000000000000000000000000000858301526129e5565b919080610542575b156105185781816105069261046194518301019101612866565b60405190151581529081906020820190565b60046040517f3204506f000000000000000000000000000000000000000000000000000000008152fd5b50808251146104ec565b346101de5760003660031901126101de5761057e6105726000546001600160a01b031690565b6001600160a01b031690565b60405190634bf9c0ad60e11b8252602082600481845afa9182156108fd57600092610aac575b506040519163cfbffe5360e01b8352602083600481855afa9283156108fd57600093610a8b575b506040519063ab6e844f60e01b8252602082600481865afa9182156108fd57600092610a6a575b5060405191630536340960e21b8352602083600481875afa9283156108fd57600093610a49575b506040519263d1f956b160e01b8452602084600481885afa9384156108fd57600094610a28575b5060405193631cc3bfab60e31b8552602085600481895afa9485156108fd57600095610a07575b5060405163e09d394d60e01b81526020816004818a5afa9081156108fd576000916109e8575b506040516314ac1b5960e21b81526020816004818b5afa9081156108fd576000916109c9575b5060405163013cf08b60e01b815260006004820152916020836024818c5afa9283156108fd576000936109a8575b5060405197635e09dbe760e01b89526020896004818d5afa9485156108fd57600499600096610987575b5060208b6040519b8c8092635506ee0b60e11b82525afa9687156108fd5760049a600098610966575b5060208c6040519c8d8092636402742760e01b82525afa9889156108fd5760049b60009a610945575b5060208d6040519d8e80926330125cf560e01b82525afa9a8b156108fd578d60049d60009d610923575b506020906040519e8f80926324768d9160e01b82525afa9c8d156108fd5760009d610902575b50604051809e81906313b92d3560e31b82525a92600491602094fa9d8e156108fd5760009e6108cc575b506107e0610f6f565b6001600160a01b0390911681529d8e906001600160a01b031660208201526040019061081491906001600160a01b03169052565b6001600160a01b031660608d01526001600160a01b031660808c01526001600160a01b031660a08b01526001600160a01b031660c08a01526001600160a01b031660e08901526001600160a01b03166101008801526001600160a01b03166101208701526001600160a01b03166101408601526001600160a01b03166101608501526001600160a01b03166101808401526001600160a01b03166101a08301526001600160a01b03166101c082015261001690612565565b6108ef919e5060203d6020116108f6575b6108e78183610f4d565b810190611da1565b9c386107d7565b503d6108dd565b611db9565b61091c919d5060203d6020116108f6576108e78183610f4d565b9b386107ad565b6020919d5061093e90823d84116108f6576108e78183610f4d565b9c90610787565b61095f919a5060203d6020116108f6576108e78183610f4d565b983861075d565b61098091985060203d6020116108f6576108e78183610f4d565b9638610734565b6109a191965060203d6020116108f6576108e78183610f4d565b943861070b565b6109c291935060203d6020116108f6576108e78183610f4d565b91386106e1565b6109e2915060203d6020116108f6576108e78183610f4d565b386106b3565b610a01915060203d6020116108f6576108e78183610f4d565b3861068d565b610a2191955060203d6020116108f6576108e78183610f4d565b9338610667565b610a4291945060203d6020116108f6576108e78183610f4d565b9238610640565b610a6391935060203d6020116108f6576108e78183610f4d565b9138610619565b610a8491925060203d6020116108f6576108e78183610f4d565b90386105f2565b610aa591935060203d6020116108f6576108e78183610f4d565b91386105cb565b610ac691925060203d6020116108f6576108e78183610f4d565b90386105a4565b346101de5760203660031901126101de57610ae661233f565b610aee61287b565b15610b5857610afc33612900565b8015610b44575b15610b1a57610b13600435612019565b6001601155005b60046040517fea8e4eb5000000000000000000000000000000000000000000000000000000008152fd5b50336001600160a01b036005541614610b03565b60046040517f9dc4246e000000000000000000000000000000000000000000000000000000008152fd5b346101de5760003660031901126101de5760206001600160a01b0360005416604051908152f35b346101de5760203660031901126101de5760043580151580610c7b575b15610c37576000198101908111610c3257610be0906103c6565b5080546001600160a01b03166104616002610c0560018501546001600160a01b031690565b930154604051938493846040919493929460608201956001600160a01b0380921683521660208201520152565b611ca1565b606460405162461bcd60e51b815260206004820152601760248201527f70726f706f7365722e696e76616c69642e666f726d69640000000000000000006044820152fd5b50601354811115610bc6565b346101de5760203660031901126101de57600435610ca4816101cd565b6001600160a01b03809116906000918083526012602052604083205480151580610d38575b610cd1578380f35b6000198101908111610c3257610ce6906103c6565b5050808352601260205282604081205560145468010000000000000000811015610d3357806001610d1a9201601455610dfe565b909283549160031b92831b921b19161790553880808380f35b610ec7565b50601354811115610cc9565b346101de5760003660031901126101de576020601554604051908152f35b346101de5760003660031901126101de5760206001600160a01b0360015416604051908152f35b346101de5760003660031901126101de576020610df66001600160a01b0360065416604051610db781610ef9565b601381527f67657464656c656761746f72436f756e742829000000000000000000000000008482015260405191610ded83610f15565b60008352612ae4565b604051908152f35b6014548110156104015760146000527fce6d7b5282bd9a3661ae061feed1dbda4e52ab073b1f9285be6e155d9c38d4ec0190600090565b346101de5760203660031901126101de576004356014548110156101de576001600160a01b0360209160146000527fce6d7b5282bd9a3661ae061feed1dbda4e52ab073b1f9285be6e155d9c38d4ec015416604051908152f35b346101de5760203660031901126101de576020610eb6600435610eb1816101cd565b611cb7565b6001600160a01b0360405191168152f35b634e487b7160e01b600052604160045260246000fd5b60e0810190811067ffffffffffffffff821117610d3357604052565b6040810190811067ffffffffffffffff821117610d3357604052565b6020810190811067ffffffffffffffff821117610d3357604052565b6080810190811067ffffffffffffffff821117610d3357604052565b90601f8019910116810190811067ffffffffffffffff821117610d3357604052565b604051906101e0820182811067ffffffffffffffff821117610d3357604052565b346101de576101203660031901126101de5736606312156101de57604051610fb781610edd565b610124813682116101de576044905b828210610fdc57610016846024356004356123e1565b8135815260209182019101610fc6565b346101de5760203660031901126101de57602061101360043561100e816101cd565b612900565b6040519015158152f35b346101de5760203660031901126101de57600435601454811015610401576001600160a01b0360209160146000527fce6d7b5282bd9a3661ae061feed1dbda4e52ab073b1f9285be6e155d9c38d4ec015416604051908152f35b346101de5760203660031901126101de5760043561109361287b565b15610b58576001600160a01b03600554163303610b1a57600090600460206110c561057285546001600160a01b031690565b604051928380927f46f991ac0000000000000000000000000000000000000000000000000000000082525afa80156108fd5783808481949382948391611167575b505af161111161298a565b5015610518577fcdcc745fe377b103b45fa0cec23ae3ef93d6fc6a84a01f0d18c40b354dd1d5d8611161611150610572600b546001600160a01b031690565b604051938452929081906020820190565b0390a280f35b61117f915060203d81116108f6576108e78183610f4d565b38611106565b346101de5760203660031901126101de576001600160a01b036004356111aa816101cd565b1660005260126020526020604060002054604051908152f35b346101de5760203660031901126101de576004356111e0816101cd565b803b60006111ed82611dc5565b926111fb6040519485610f4d565b82845260208401903c602d81511061121f57602a602091015160601c604051908152f35b60046040517fbaf3f0f7000000000000000000000000000000000000000000000000000000008152fd5b346101de5760003660031901126101de576020601354604051908152f35b346101de576020806003193601126101de57610461906004359061128a826101cd565b6112ee6001600160a01b03928360065416936040519116838201528281526112b181610ef9565b6040516112bd81610ef9565b601881527f697364656c656761746f724e6f64652861646472657373290000000000000000848201526000946129e5565b919080611328575b61130f575b505060405190151581529081906020820190565b61132192508082518301019101612866565b38806112fb565b50808251146112f6565b346101de5760003660031901126101de57602061101361287b565b346101de5760003660031901126101de576020601454604051908152f35b346101de5760403660031901126101de5761138461233f565b61138c61287b565b15610b585761139a33612900565b801561140c575b15610b1a576114016001600160a01b0360045416604051907f33b59a5b00000000000000000000000000000000000000000000000000000000602083015260043560248301526024356044830152604482526113fc82610f31565b612b6c565b506100166001601155565b50336001600160a01b0360055416146113a1565b346101de57600080600319360112611be65761143a61233f565b61144e61057282546001600160a01b031690565b604090815191828092634bf9c0ad60e11b8252602093849160049687915afa9081156108fd578591611bc9575b506114b482517f339459a6000000000000000000000000000000000000000000000000000000009283868301528682526113fc82610ef9565b5083836114cb61057288546001600160a01b031690565b8451928380926369e8d84b60e11b82525afa80156108fd57611503918791611bac575b5083519083868301528682526113fc82610ef9565b50838361151a61057288546001600160a01b031690565b84519283809263ab6e844f60e01b82525afa80156108fd57611551918791611bac575083519083868301528682526113fc82610ef9565b50838361156861057288546001600160a01b031690565b84519283809263cfbffe5360e01b82525afa80156108fd5761159f918791611bac575083519083868301528682526113fc82610ef9565b5083836115b661057288546001600160a01b031690565b845192838092630536340960e21b82525afa80156108fd576115ed918791611bac575083519083868301528682526113fc82610ef9565b50838361160461057288546001600160a01b031690565b84519283809263d1f956b160e01b82525afa80156108fd5761163b918791611bac575083519083868301528682526113fc82610ef9565b50838361165261057288546001600160a01b031690565b845192838092631cc3bfab60e31b82525afa80156108fd57611689918791611bac575083519083868301528682526113fc82610ef9565b5083836116a061057288546001600160a01b031690565b84519283809263e09d394d60e01b82525afa80156108fd576116d7918791611bac575083519083868301528682526113fc82610ef9565b5083836116ee61057288546001600160a01b031690565b8451928380926314ac1b5960e21b82525afa80156108fd57611725918791611bac575083519083868301528682526113fc82610ef9565b5061173a61057286546001600160a01b031690565b838351809263013cf08b60e01b8252818061175c8a8201906000602083019252565b03915afa80156108fd57611785918791611bac575083519083868301528682526113fc82610ef9565b5061179a61057286546001600160a01b031690565b90825184817fb771c896000000000000000000000000000000000000000000000000000000009485825281806117d78b8201906000602083019252565b03915afa80156108fd57611801918891611b8f575b5084519083878301528782526113fc82610ef9565b5061181661057287546001600160a01b031690565b848451809285825281806118318b8201906001602083019252565b03915afa80156108fd5761185a918891611b8f575084519083878301528782526113fc82610ef9565b5061186f61057287546001600160a01b031690565b8484518092858252818061188a8b8201906002602083019252565b03915afa80156108fd576118b3918891611b8f575084519083878301528782526113fc82610ef9565b506118c861057287546001600160a01b031690565b848451809285825281806118e38b8201906003602083019252565b03915afa80156108fd5761190c918891611b8f575084519083878301528782526113fc82610ef9565b508361192261057288546001600160a01b031690565b9284519384918252818061193d8a8201906004602083019252565b03915afa9182156108fd57859261196a918891611b72575b5084519083878301528482526113fc82610ef9565b508361198061057288546001600160a01b031690565b845193848092635e09dbe760e01b82525afa9182156108fd5785926119ba918891611b72575084519083878301528482526113fc82610ef9565b50836119d061057288546001600160a01b031690565b845193848092635506ee0b60e11b82525afa9182156108fd578592611a0a918891611b72575084519083878301528482526113fc82610ef9565b5083611a2061057288546001600160a01b031690565b845193848092636402742760e01b82525afa9182156108fd578592611a5a918891611b72575084519083878301528482526113fc82610ef9565b5083611a7061057288546001600160a01b031690565b8451938480926330125cf560e01b82525afa9182156108fd578592611aaa918891611b72575084519083878301528482526113fc82610ef9565b5083611ac061057288546001600160a01b031690565b8451938480926324768d9160e01b82525afa9182156108fd578592611afa918891611b72575084519083878301528482526113fc82610ef9565b5083611b1061057288546001600160a01b031690565b8451968780926313b92d3560e31b82525afa9283156108fd57611b45958794611b53575b50519384015282526113fc82610ef9565b50611b506001601155565b80f35b611b6b919450853d87116108f6576108e78183610f4d565b9238611b34565b611b899150863d88116108f6576108e78183610f4d565b38611955565b611ba69150863d88116108f6576108e78183610f4d565b386117ec565b611bc39150853d87116108f6576108e78183610f4d565b386114ee565b611be09150833d85116108f6576108e78183610f4d565b3861147b565b80fd5b346101de5760003660031901126101de576020610df66001600160a01b0360035416604051611c1781610ef9565b600681527f69416765282900000000000000000000000000000000000000000000000000008482015260405191610ded83610f15565b60135468010000000000000000811015610d33576001810180601355811015610401576003906013600052027f66de8ffda797e3de9c05e8fc57b3bf0ec28a930d40b0d285d93c06501cf6a0900190600090565b634e487b7160e01b600052601160045260246000fd5b6001600160a01b03809116600052601260205260406000205480151580611cff575b611ce4575050600090565b6000198101908111610c3257611cf9906103c6565b50541690565b50601354811115611cd9565b15611d1257565b606460405162461bcd60e51b815260206004820152601c60248201527f7574696c6974792e62617463682e6c696d69742e6578636565646564000000006044820152fd5b15611d5d57565b606460405162461bcd60e51b815260206004820152601760248201527f7574696c6974792e756e7365637572652e6661696c65640000000000000000006044820152fd5b908160209103126101de5751611db6816101cd565b90565b6040513d6000823e3d90fd5b67ffffffffffffffff8111610d3357601f01601f191660200190565b604051611ded81610f15565b60008152906000368137565b60405190611e0682610ef9565b600f82527f6765744e6f646573436f756e74282900000000000000000000000000000000006020830152565b15611e3957565b606460405162461bcd60e51b815260206004820152601360248201527f7574696c6974792e696d706f72742e646f6e65000000000000000000000000006044820152fd5b91908201809211610c3257565b6000198114610c325760010190565b60405190611ea682610ef9565b601782527f6765744e6f64654279496e6465782875696e74323536290000000000000000006020830152565b15611ed957565b606460405162461bcd60e51b815260206004820152601660248201527f70726f78792e696e76616c69642e696e7374616e6365000000000000000000006044820152fd5b60405190611f2a82610ef9565b601382527f496e7374546f55736572286164647265737329000000000000000000000000006020830152565b15611f5d57565b606460405162461bcd60e51b815260206004820152601260248201527f70726f78792e696e76616c69642e6e6f646500000000000000000000000000006044820152fd5b60405190611fae82610ef9565b601082527f6765744e6f6465286164647265737329000000000000000000000000000000006020830152565b908160a09103126101de578051916020820151611ff6816101cd565b916040810151916080606083015161200d816101e3565b920151611db6816101e3565b6120266064821115611d0b565b61203761203230612900565b611d56565b61204c6105726000546001600160a01b031690565b60405180917f447aa30400000000000000000000000000000000000000000000000000000000825281600460209384935afa9182156108fd57600092612320575b506120a7612099611de1565b6120a1611df9565b84612ae4565b92831561231a576120ef6120dd6120c66004546001600160a01b031690565b6120ce611de1565b906120d7611df9565b90612ae4565b916120e9838711611e32565b82611e7d565b93808511612312575b505b8381106121075750505050565b6122b8906122b36122ae6040516122a57f50db85d10000000000000000000000000000000000000000000000000000000061216f8361214d888b83019190602083019252565b0393612161601f1995868101835282610f4d565b612169611e99565b8b612a93565b6001600160a01b036121848183161515611ed2565b8131948a8c600161222d61221f6122056122116121d96121bf6121cb8c6040519283918c83019190916001600160a01b036020820193169052565b038b8101835282610f4d565b6121d3611f1d565b88612a93565b996121e78a8c161515611f56565b6040519283918983019190916001600160a01b036020820193169052565b03888101835282610f4d565b612219611fa1565b856129ba565b848082518301019101611fda565b5050509590951694612240811515611f56565b148015612309575b6122bd575b5061229984612260816113fc969761237a565b6004546001600160a01b031695604051978894850152602484019060209093929360408301946001600160a01b03809216845216910152565b03908101845283610f4d565b50601554611e7d565b601555565b611e8a565b6120fa565b6040516001600160a01b039094168285019081526113fc9461229992612300926122f290839060200103878101845283610f4d565b6122fa611f1d565b90612a93565b9350508c61224d565b50831515612248565b9350386120f8565b50505050565b816123389293503d84116108f6576108e78183610f4d565b903861208d565b600260115414612350576002601155565b60046040517f3ee5aeb5000000000000000000000000000000000000000000000000000000008152fd5b6013549068010000000000000000821015610d3357600183916123a861026b85846123c497016013556103c6565b01906001600160a01b03166001600160a01b0319825416179055565b6001600160a01b0360135491166000526012602052604060002055565b91906123eb61233f565b6123f361287b565b15610b585761240133612900565b801561251a575b15610b1a57600460206124266105726000546001600160a01b031690565b604051928380926369e8d84b60e11b82525afa80156108fd576124e5946113fc926000926124f2575b506040517f15ec7fad000000000000000000000000000000000000000000000000000000006020820152602481019190915261249f9080604481015b03926113fc601f1994858101845283610f4d565b506004546001600160a01b0316926122996040519586927f7818cdd70000000000000000000000000000000000000000000000000000000060208501526024840161252e565b506124f06001601155565b565b61249f91925061251261248b9160203d81116108f6576108e78183610f4d565b92915061244f565b50336001600160a01b036005541614612408565b908152610100810192919060209060009082015b600782106125505750505050565b82806001928651815201940191019092612542565b61284a6101c06124f09261259f61258382516001600160a01b031690565b6001600160a01b03166001600160a01b03196002541617600255565b6125d26125b660208301516001600160a01b031690565b6001600160a01b03166001600160a01b03196003541617600355565b6126056125e960408301516001600160a01b031690565b6001600160a01b03166001600160a01b03196004541617600455565b61263861261c60608301516001600160a01b031690565b6001600160a01b03166001600160a01b03196005541617600555565b61266b61264f60808301516001600160a01b031690565b6001600160a01b03166001600160a01b03196006541617600655565b61269e61268260a08301516001600160a01b031690565b6001600160a01b03166001600160a01b03196007541617600755565b6126d16126b560c08301516001600160a01b031690565b6001600160a01b03166001600160a01b03196008541617600855565b6127046126e860e08301516001600160a01b031690565b6001600160a01b03166001600160a01b03196009541617600955565b61273861271c6101008301516001600160a01b031690565b6001600160a01b03166001600160a01b0319600a541617600a55565b61276c6127506101208301516001600160a01b031690565b6001600160a01b03166001600160a01b0319600b541617600b55565b6127a06127846101408301516001600160a01b031690565b6001600160a01b03166001600160a01b0319600c541617600c55565b6127d46127b86101608301516001600160a01b031690565b6001600160a01b03166001600160a01b0319600d541617600d55565b6128086127ec6101808301516001600160a01b031690565b6001600160a01b03166001600160a01b0319600e541617600e55565b61283c6128206101a08301516001600160a01b031690565b6001600160a01b03166001600160a01b0319600f541617600f55565b01516001600160a01b031690565b6001600160a01b03166001600160a01b03196010541617601055565b908160209103126101de5751611db6816101e3565b6128d66001600160a01b036002541660405161289681610ef9565b600881527f69735361666528290000000000000000000000000000000000000000000000006020820152604051916128cd83610f15565b600083526129e5565b90806128f5575b156105185780602080611db693518301019101612866565b5060208151146128dd565b6129636001600160a01b03806002541660405191602094168483015283825261292882610ef9565b6040519061293582610ef9565b601582527f6973536563757265426173652861646472657373290000000000000000000000858301526129e5565b9080612980575b156105185781611db69282518301019101612866565b508181511461296a565b3d156129b5573d9061299b82611dc5565b916129a96040519384610f4d565b82523d6000602084013e565b606090565b906129c592916129e5565b90600090156129d2575090565b60405191506129e082610f15565b815290565b9190823b15612a7a577fffffffff00000000000000000000000000000000000000000000000000000000815160208093012016916040519180830193845281519160005b838110612a66575050509181612a5660248260009795968897018783820152036004810184520182610f4d565b51915afa612a6261298a565b9091565b818101830151858201602401528201612a29565b505050600090604051612a8c81610f15565b6000815290565b9291612aa1916000946129e5565b9080612ad9575b612aaf5750565b9091506020818051810103126101de5760206001600160a01b03910151612ad5816101cd565b1690565b506020815114612aa8565b9291612af2916000946129e5565b9080612b17575b612b005750565b9091506020818051810103126101de576020015190565b506020815114612af9565b90602082519201517fffffffff00000000000000000000000000000000000000000000000000000000908181169360048110612b5d57505050565b60040360031b82901b16169150565b6001600160a01b0381161561036a57600080918351908260208601915af190612b9361298a565b9115612b9d575090565b805160009190600411612c1957612bb49150612b22565b815115612bc45750805190602001fd5b6040517f21c09d340000000000000000000000000000000000000000000000000000000081527fffffffff00000000000000000000000000000000000000000000000000000000919091166004820152602490fd5b50612bb456fea264697066735822122097238144d7959a03ba2856464420a8d32c3b490be1a24f9cbe9b1902de2a3c6364736f6c63430008140033","linkReferences":{}},"methodIdentifiers":{"Burn(uint256)":"b90306ad","UserToForm(address)":"c1e6cec2","_delegatorCount()":"a1f7f539","_getImplementation(address)":"c54e44b0","_isDelegatorNode(address)":"e01ad5fd","_isSafe()":"e0a9bc2b","_isSecureBase(address)":"af484526","_isSigner(address)":"1f185d16","actualTVL()":"8d6edc14","closeTransferTarget(address)":"4ef260a9","forms(uint256)":"18c864e3","getBalance()":"12065fe0","getForm(uint256)":"479fa2c3","getFormsCount()":"cab3cc8d","getHexbase()":"3b9b7955","getImportedNodeByIndex(uint256)":"b8f1759a","getimportedNodeCount()":"e846034a","importRankBusiness(uint256,uint256)":"e981bcad","importedNode(uint256)":"ab7e46ae","importuser(uint256)":"3676bd1f","owner()":"8da5cb5b","resolveTransferTarget(address)":"ac233345","setSysData(uint256,uint256,uint256[7])":"acacd120","submitTransferForm(address,address,uint256,bool)":"067943bc","syncBaseAddr()":"339459a6","syncSystem()":"f245fe7a","systemAge()":"fdc10bc9"},"id":51}