{"abi":[{"type":"constructor","inputs":[{"name":"_hex","type":"address","internalType":"address"}],"stateMutability":"nonpayable"},{"type":"fallback","stateMutability":"payable"},{"type":"receive","stateMutability":"payable"},{"type":"function","name":"Burn","inputs":[{"name":"amount","type":"uint256","internalType":"uint256"}],"outputs":[],"stateMutability":"nonpayable"},{"type":"function","name":"UserToForm","inputs":[{"name":"","type":"address","internalType":"address"}],"outputs":[{"name":"","type":"uint256","internalType":"uint256"}],"stateMutability":"view"},{"type":"function","name":"_delegatorCount","inputs":[],"outputs":[{"name":"","type":"uint256","internalType":"uint256"}],"stateMutability":"view"},{"type":"function","name":"_getImplementation","inputs":[{"name":"clone","type":"address","internalType":"address"}],"outputs":[{"name":"impl","type":"address","internalType":"address"}],"stateMutability":"view"},{"type":"function","name":"_isDelegatorNode","inputs":[{"name":"sender","type":"address","internalType":"address"}],"outputs":[{"name":"","type":"bool","internalType":"bool"}],"stateMutability":"view"},{"type":"function","name":"_isSafe","inputs":[],"outputs":[{"name":"","type":"bool","internalType":"bool"}],"stateMutability":"view"},{"type":"function","name":"_isSecureBase","inputs":[{"name":"sender","type":"address","internalType":"address"}],"outputs":[{"name":"","type":"bool","internalType":"bool"}],"stateMutability":"view"},{"type":"function","name":"_isSigner","inputs":[{"name":"sender","type":"address","internalType":"address"}],"outputs":[{"name":"","type":"bool","internalType":"bool"}],"stateMutability":"view"},{"type":"function","name":"closeTransferTarget","inputs":[{"name":"to","type":"address","internalType":"address"}],"outputs":[],"stateMutability":"nonpayable"},{"type":"function","name":"forms","inputs":[{"name":"","type":"uint256","internalType":"uint256"}],"outputs":[{"name":"from","type":"address","internalType":"address"},{"name":"to","type":"address","internalType":"address"},{"name":"proposalId","type":"uint256","internalType":"uint256"},{"name":"autoclosed","type":"bool","internalType":"bool"}],"stateMutability":"view"},{"type":"function","name":"getBalance","inputs":[],"outputs":[{"name":"","type":"uint256","internalType":"uint256"}],"stateMutability":"view"},{"type":"function","name":"getForm","inputs":[{"name":"formId","type":"uint256","internalType":"uint256"}],"outputs":[{"name":"from","type":"address","internalType":"address"},{"name":"to","type":"address","internalType":"address"},{"name":"proposalId","type":"uint256","internalType":"uint256"},{"name":"autoclosed","type":"bool","internalType":"bool"}],"stateMutability":"view"},{"type":"function","name":"getFormsCount","inputs":[],"outputs":[{"name":"","type":"uint256","internalType":"uint256"}],"stateMutability":"view"},{"type":"function","name":"getHexbase","inputs":[],"outputs":[{"name":"","type":"address","internalType":"address"}],"stateMutability":"view"},{"type":"function","name":"getImportedNodeByIndex","inputs":[{"name":"index","type":"uint256","internalType":"uint256"}],"outputs":[{"name":"node","type":"address","internalType":"address"}],"stateMutability":"view"},{"type":"function","name":"getimportedNodeCount","inputs":[],"outputs":[{"name":"nodesCount","type":"uint256","internalType":"uint256"}],"stateMutability":"view"},{"type":"function","name":"importRankBusiness","inputs":[{"name":"_fromAge","type":"uint256","internalType":"uint256"},{"name":"_toAge","type":"uint256","internalType":"uint256"}],"outputs":[],"stateMutability":"nonpayable"},{"type":"function","name":"importedNode","inputs":[{"name":"","type":"uint256","internalType":"uint256"}],"outputs":[{"name":"","type":"address","internalType":"address"}],"stateMutability":"view"},{"type":"function","name":"importuser","inputs":[{"name":"batchSize","type":"uint256","internalType":"uint256"}],"outputs":[],"stateMutability":"nonpayable"},{"type":"function","name":"owner","inputs":[],"outputs":[{"name":"","type":"address","internalType":"address"}],"stateMutability":"view"},{"type":"function","name":"resolveTransferTarget","inputs":[{"name":"to","type":"address","internalType":"address"}],"outputs":[{"name":"","type":"address","internalType":"address"}],"stateMutability":"view"},{"type":"function","name":"submitTransferForm","inputs":[{"name":"_from","type":"address","internalType":"address"},{"name":"_deadline","type":"uint256","internalType":"uint256"}],"outputs":[],"stateMutability":"nonpayable"},{"type":"function","name":"systemAge","inputs":[],"outputs":[{"name":"","type":"uint256","internalType":"uint256"}],"stateMutability":"view"},{"type":"function","name":"testTxnSys","inputs":[{"name":"paramAdd","type":"address","internalType":"address"},{"name":"_id_maxint","type":"uint256","internalType":"uint256"},{"name":"_qty","type":"uint256","internalType":"uint256"},{"name":"_amt","type":"uint256","internalType":"uint256"}],"outputs":[],"stateMutability":"payable"},{"type":"event","name":"EthBurned","inputs":[{"name":"sender","type":"address","indexed":true,"internalType":"address"},{"name":"amount","type":"uint256","indexed":false,"internalType":"uint256"}],"anonymous":false},{"type":"event","name":"EthTransferred","inputs":[{"name":"to","type":"address","indexed":true,"internalType":"address"},{"name":"amount","type":"uint256","indexed":false,"internalType":"uint256"}],"anonymous":false},{"type":"event","name":"HexBaseUpdated","inputs":[{"name":"previousHexBase","type":"address","indexed":true,"internalType":"address"},{"name":"newHexBase","type":"address","indexed":true,"internalType":"address"}],"anonymous":false},{"type":"event","name":"OwnerUpdated","inputs":[{"name":"previousOwner","type":"address","indexed":true,"internalType":"address"},{"name":"newOwner","type":"address","indexed":true,"internalType":"address"}],"anonymous":false},{"type":"error","name":"CallFailed","inputs":[]},{"type":"error","name":"InvalidAddress","inputs":[]},{"type":"error","name":"InvalidState","inputs":[]},{"type":"error","name":"NotAuthorized","inputs":[]},{"type":"error","name":"NotSafe","inputs":[]},{"type":"error","name":"ReentrancyGuardReentrantCall","inputs":[]},{"type":"error","name":"TargetCallFailed","inputs":[{"name":"selector","type":"bytes4","internalType":"bytes4"}]}],"bytecode":{"object":"0x60803461009757601f61225c38819003918201601f19168301916001600160401b0383118484101761009c5780849260209460405283398101031261009757516001600160a01b038116908190036100975780156100855760018060a01b031933816001541617600155600054161760005560016003556040516121a990816100b38239f35b60405163e6c4247b60e01b8152600490fd5b600080fd5b634e487b7160e01b600052604160045260246000fdfe60806040526004361015610018575b361561001657005b005b60003560e01c806312065fe01461019857806318c864e3146101935780631f185d161461018e5780633676bd1f146101895780633b9b795514610184578063479fa2c31461017f5780634ef260a91461017a5780638da5cb5b146101755780639fb3953b14610170578063a1f7f5391461016b578063ab7e46ae14610166578063ac23334514610161578063af4845261461015c578063b8f1759a14610157578063b90306ad14610152578063c1e6cec21461014d578063c54e44b014610148578063cab3cc8d14610143578063e01ad5fd1461013e578063e0a9bc2b14610139578063e846034a14610134578063e84adc131461012f578063e981bcad1461012a5763fdc10bc90361000e57610f60565b610e85565b610ca6565b610c88565b610c03565b610b69565b610b4b565b610ac5565b610a87565b6109d6565b61097c565b61094b565b610913565b6108b9565b6107c4565b6105fd565b6105d6565b610514565b61042b565b610404565b6103d9565b61028f565b61020e565b346101b45760003660031901126101b457602047604051908152f35b600080fd5b634e487b7160e01b600052603260045260246000fd5b60055481101561020957600560005260021b7f036b6384b5eca791c62761152d0c79bb0604c104a5fb6f4eb0703f3154bb3db00190600090565b6101b9565b346101b45760203660031901126101b4576004356005548110156101b457610235906101cf565b50805460018201546002830154600390930154604080516001600160a01b0394851681529390921660208401529082019290925260ff90911615156060820152608090f35b0390f35b6001600160a01b038116036101b457565b346101b4576020806003193601126101b4576004356102ad8161027e565b6004826102d16102c56000546001600160a01b031690565b6001600160a01b031690565b60405192838092634bf9c0ad60e11b82525afa80156103d4576103399261031d926000926103a1575b5061032b906040519384918783019190916001600160a01b036020820193169052565b03601f1981018452836110a9565b610333611d05565b90611f06565b919080610397575b1561036d57818161035b9261027a94518301019101611bfe565b60405190151581529081906020820190565b60046040517f3204506f000000000000000000000000000000000000000000000000000000008152fd5b5080825114610341565b61032b9192506103c690863d88116103cd575b6103be81836110a9565b810190611112565b91906102fa565b503d6103b4565b61112a565b346101b45760203660031901126101b4576103f2611aa9565b6103fd600435611678565b6001600355005b346101b45760003660031901126101b45760206001600160a01b0360005416604051908152f35b346101b45760203660031901126101b45760043580151580610508575b156104c45761045961045e9161122b565b6101cf565b5080546001600160a01b031661027a61048160018401546001600160a01b031690565b926104956003600283015492015460ff1690565b604080516001600160a01b03958616815295909416602086015292840152901515606083015281906080820190565b606460405162461bcd60e51b815260206004820152601760248201527f70726f706f7365722e696e76616c69642e666f726d69640000000000000000006044820152fd5b50600554811115610448565b346101b45760203660031901126101b4576004356105318161027e565b6001600160a01b038091169060009180835260046020526040832054801515806105ca575b61055e578380f35b60001981019081116105c557610573906101cf565b50508083526004602052826040812055600654680100000000000000008110156105c0578060016105a79201600655610882565b909283549160031b92831b921b19161790553880808380f35b611008565b611215565b50600554811115610556565b346101b45760003660031901126101b45760206001600160a01b0360015416604051908152f35b60803660031901126101b4576004356106158161027e565b61061d611aa9565b6106326102c56000546001600160a01b031690565b6040519163ab6e844f60e01b83526020918284600481845afa9384156103d4576000946107a0575b5082600491604051928380927fde433f170000000000000000000000000000000000000000000000000000000082525afa9081156103d4576106e3916106c191600091610783575b506040519182918683019190916001600160a01b036020820193169052565b03946106d5601f19968781018452836110a9565b6106dd611b8c565b90611f9c565b906001600160a01b0382166106fd575b6100166001600355565b610779937fc107930a00000000000000000000000000000000000000000000000000000000936107686107749360405196879384015260643590604435906024359060248601909493926060926001600160a01b036080840197168352602083015260408201520152565b039081018452836110a9565b6120af565b50388080806106f3565b61079a9150853d87116103cd576103be81836110a9565b386106a2565b60049194506107bc8491823d84116103cd576103be81836110a9565b94915061065a565b346101b45760003660031901126101b457600460206001600160a01b03600054166040519283809263d1f956b160e01b82525afa9081156103d45761027a9161085491600091610864575b5060405161081c81611071565b601381527f67657464656c656761746f72436f756e74282900000000000000000000000000602082015261084e6110e7565b91612029565b6040519081529081906020820190565b61087c915060203d81116103cd576103be81836110a9565b3861080f565b6006548110156102095760066000527ff652222313e28459528d920b65115c16c04f3efc82aaedc97be59f3f377c0d3f0190600090565b346101b45760203660031901126101b4576004356006548110156101b4576001600160a01b0360209160066000527ff652222313e28459528d920b65115c16c04f3efc82aaedc97be59f3f377c0d3f015416604051908152f35b346101b45760203660031901126101b457602061093a6004356109358161027e565b6112a1565b6001600160a01b0360405191168152f35b346101b45760203660031901126101b457602061097260043561096d8161027e565b611c4b565b6040519015158152f35b346101b45760203660031901126101b457600435600654811015610209576001600160a01b0360209160066000527ff652222313e28459528d920b65115c16c04f3efc82aaedc97be59f3f377c0d3f015416604051908152f35b346101b45760203660031901126101b45760046001600160a01b036020610a0782600054166001600160a01b031690565b60405193848092630536340960e21b82525afa9182156103d457600092610a67575b5033911603610a3d57610016600435611da7565b60046040517fea8e4eb5000000000000000000000000000000000000000000000000000000008152fd5b610a8091925060203d81116103cd576103be81836110a9565b9038610a29565b346101b45760203660031901126101b4576001600160a01b03600435610aac8161027e565b1660005260046020526020604060002054604051908152f35b346101b45760203660031901126101b457600435610ae28161027e565b803b6000610aef826110cb565b92610afd60405194856110a9565b82845260208401903c602d815110610b2157602a602091015160601c604051908152f35b60046040517fbaf3f0f7000000000000000000000000000000000000000000000000000000008152fd5b346101b45760003660031901126101b4576020600554604051908152f35b346101b4576020806003193601126101b45760048035610b888161027e565b6001600160a01b03928084600054166040519485809263d1f956b160e01b82525afa9081156103d45761027a9461035b94600093610be4575b506040519316818401528252610bd682611071565b610bde611d3e565b90611fed565b610bfc919350823d84116103cd576103be81836110a9565b9138610bc1565b346101b45760003660031901126101b457610c296102c56000546001600160a01b031690565b6040518091634bf9c0ad60e11b825281600460209485935afa80156103d45761033991600091610c6b575b50610c5d611bc5565b610c656110e7565b91611f06565b610c829150833d85116103cd576103be81836110a9565b38610c54565b346101b45760003660031901126101b4576020600654604051908152f35b346101b4576040806003193601126101b45760043590610cc58261027e565b6001600160a01b03821615610e75576000913383526020916004835280842054610e3257610d1f610cf461101e565b509283906001600160a01b031673ffffffffffffffffffffffffffffffffffffffff19825416179055565b60018201805473ffffffffffffffffffffffffffffffffffffffff19163317815592600490610d4c6110fa565b81610d616102c589546001600160a01b031690565b855194858092630536340960e21b82525afa9283156103d457600294610dda94610dcd9361031d938b92610e11575b506107749192519384917fffa734f00000000000000000000000000000000000000000000000000000000088840152602435903060248501611159565b8051810182019101611206565b910155610e0d610df460055492546001600160a01b031690565b6001600160a01b03166000526004602052604060002090565b5580f35b6107749250610e2c90873d89116103cd576103be81836110a9565b91610d90565b82606491519062461bcd60e51b82526004820152601260248201527f70726f706f7365722e746f2e65786973747300000000000000000000000000006044820152fd5b6004905163e6c4247b60e01b8152fd5b346101b45760403660031901126101b457610e9e611aa9565b610eaf610eaa30611c4b565b611418565b60046020610ec86102c56000546001600160a01b031690565b6040519283809263ab6e844f60e01b82525afa80156103d457610f3791600091610f42575b506040517f33b59a5b00000000000000000000000000000000000000000000000000000000602082015260043560248083019190915235604482015290610774826064810161031d565b506100166001600355565b610f5a915060203d81116103cd576103be81836110a9565b38610eed565b346101b45760003660031901126101b457600460206001600160a01b03600054166040519283809263111ea8c160e21b82525afa9081156103d45761027a9161085491600091610fea575b50604051610fb881611071565b600581527f6167652829000000000000000000000000000000000000000000000000000000602082015261084e6110e7565b611002915060203d81116103cd576103be81836110a9565b38610fab565b634e487b7160e01b600052604160045260246000fd5b600554680100000000000000008110156105c057600181018060055581101561020957600560005260021b7f036b6384b5eca791c62761152d0c79bb0604c104a5fb6f4eb0703f3154bb3db00190600090565b6040810190811067ffffffffffffffff8211176105c057604052565b6020810190811067ffffffffffffffff8211176105c057604052565b90601f8019910116810190811067ffffffffffffffff8211176105c057604052565b67ffffffffffffffff81116105c057601f01601f191660200190565b604051906110f48261108d565b60008252565b6040516111068161108d565b60008152906000368137565b908160209103126101b457516111278161027e565b90565b6040513d6000823e3d90fd5b60005b8381106111495750506000910152565b8181015183820152602001611139565b6000926001600160a01b0360a09396959660c08452602660c08501527f547269676765722e496e7374616e63652e70726f706f73616c2e55736572547260e08501527f616e736665720000000000000000000000000000000000000000000000000000610100850152166020830152836040830152610120806060840152815180918401526111f2816101409360208587019101611136565b601f80199101168201019460808201520152565b908160209103126101b4575190565b634e487b7160e01b600052601160045260246000fd5b6000198101919082116105c557565b6040519061124782611071565b601282527f6765745374617475732875696e743235362900000000000000000000000000006020830152565b519081151582036101b457565b91908260409103126101b457611127602061129a84611273565b9301611273565b6112be906001600160a01b03166000526004602052604060002090565b54801515806113c1575b156113bb576104596112d99161122b565b50600381015460ff166113ae576112fb6102c56000546001600160a01b031690565b6040518091630536340960e21b825281600460209384935afa80156103d45761031d6113579161136494600091611391575b5061134960028701546040519384918783019190602083019252565b61135161123a565b90611edb565b8051810182019101611280565b81929192611389575b506000911561138557546001600160a01b0316905090565b5090565b91503861136d565b6113a89150843d86116103cd576103be81836110a9565b3861132d565b546001600160a01b031690565b50600090565b506005548111156112c8565b156113d457565b606460405162461bcd60e51b815260206004820152601c60248201527f7574696c6974792e62617463682e6c696d69742e6578636565646564000000006044820152fd5b1561141f57565b606460405162461bcd60e51b815260206004820152601760248201527f7574696c6974792e756e7365637572652e6661696c65640000000000000000006044820152fd5b6040519061147082611071565b600f82527f6765744e6f646573436f756e74282900000000000000000000000000000000006020830152565b156114a357565b606460405162461bcd60e51b815260206004820152601360248201527f7574696c6974792e696d706f72742e646f6e65000000000000000000000000006044820152fd5b919082018092116105c557565b60001981146105c55760010190565b6040519061151082611071565b601782527f6765744e6f64654279496e6465782875696e74323536290000000000000000006020830152565b1561154357565b606460405162461bcd60e51b815260206004820152601660248201527f70726f78792e696e76616c69642e696e7374616e6365000000000000000000006044820152fd5b6040519061159482611071565b601382527f496e7374546f55736572286164647265737329000000000000000000000000006020830152565b156115c757565b606460405162461bcd60e51b815260206004820152601260248201527f70726f78792e696e76616c69642e6e6f646500000000000000000000000000006044820152fd5b6040519061161882611071565b601082527f6765744e6f6465286164647265737329000000000000000000000000000000006020830152565b908160a09103126101b45780519160208201516116608161027e565b91604081015191611127608061129a60608501611273565b61168560648211156113cd565b611691610eaa30611c4b565b6000906116a86102c583546001600160a01b031690565b9160409081519163111ea8c160e21b9485845260209060049482818781855afa80156103d4576116f1918691611a92575b506116e26110fa565b906116eb611463565b90612029565b958615611a885783518381888163ab6e844f60e01b968782525afa9081156103d45761173c9161172a918891611a6b57506116e26110fa565b91611736838a1161149c565b826114e7565b96808811611a63575b505b868110611758575050505050505050565b61176c6102c586546001600160a01b031690565b9084519189835284838981845afa9283156103d4578793611a44575b506117bc8651806117a0858983019190602083019252565b03946117b4601f19968781018452836110a9565b6106dd611503565b906001600160a01b036117d2818416151561153c565b87518c815287818c81865afa80156103d457611827918b91611a27575b5089519061181f82611813888d83019190916001600160a01b036020820193169052565b038981018452836110a9565b6106dd611587565b9161183582841615156115c0565b8851938d855288858d81855afa9485156103d4576118926001928c8f988f6118a0958f9192611a02575b5091516001600160a01b039093169183019182529061188a9083906020015b038c81018452836110a9565b61135161160b565b8a8082518301019101611644565b50505093909316926118b38115156115c0565b1480156119f9575b61197c575b506118cb8280611ae4565b866118e06102c58b546001600160a01b031690565b8951948580928a82525afa80156103d45761195695611950948b9261195b575b5089517f50db85d1000000000000000000000000000000000000000000000000000000008a8201526001600160a01b03938416602482015293909216604484015290610774908360648101610768565b506114f4565b611747565b6107749250611976908a3d8c116103cd576103be81836110a9565b91611900565b928c88918a518096819382525afa9283156103d4578a936119d0926119c4928c926119d6575b5061181f908b519384918c83019190916001600160a01b036020820193169052565b038881018452836110a9565b386118c0565b61181f9192506119f2908b3d8d116103cd576103be81836110a9565b91906119a2565b508115156118bb565b61188a9250611a2061187e91833d85116103cd576103be81836110a9565b925061185f565b611a3e9150893d8b116103cd576103be81836110a9565b386117ef565b611a5c919350853d87116103cd576103be81836110a9565b9138611788565b965038611745565b611a829150863d88116103cd576103be81836110a9565b386116d9565b5050505050505050565b611a829150843d86116103cd576103be81836110a9565b600260035414611aba576002600355565b60046040517f3ee5aeb5000000000000000000000000000000000000000000000000000000008152fd5b60055490680100000000000000008210156105c057611b39611b0e836001600395016005556101cf565b509182906001600160a01b031673ffffffffffffffffffffffffffffffffffffffff19825416179055565b60018101805473ffffffffffffffffffffffffffffffffffffffff19166001600160a01b03851617905501600160ff198254161790556001600160a01b0360055491166000526004602052604060002055565b60405190611b9982611071565b601682527f67657455736572546f496e7374286164647265737329000000000000000000006020830152565b60405190611bd282611071565b600882527f69735361666528290000000000000000000000000000000000000000000000006020830152565b908160209103126101b45761112790611273565b60405190611c1f82611071565b601582527f69735365637572654261736528616464726573732900000000000000000000006020830152565b611c606102c56000546001600160a01b031690565b906040518092634bf9c0ad60e11b825281600460209586935afa80156103d457611cbb9261031d92600092611ce2575b50611cb3906040519384918783019190916001600160a01b036020820193169052565b610333611c12565b9080611cd8575b1561036d57816111279282518301019101611bfe565b5081815114611cc2565b611cb3919250611cfe90863d88116103cd576103be81836110a9565b9190611c90565b60405190611d1282611071565b601182527f69735369676e65722861646472657373290000000000000000000000000000006020830152565b60405190611d4b82611071565b601882527f697364656c656761746f724e6f646528616464726573732900000000000000006020830152565b3d15611da2573d90611d88826110cb565b91611d9660405193846110a9565b82523d6000602084013e565b606090565b6000611dbd6102c582546001600160a01b031690565b9060405180927f46f991ac00000000000000000000000000000000000000000000000000000000825281600460209586935afa80156103d45782808681949382948391611ebe575b505af1611e10611d77565b501561036d57600482611e2d6102c584546001600160a01b031690565b604051928380927f5e09dbe70000000000000000000000000000000000000000000000000000000082525afa9081156103d4577fcdcc745fe377b103b45fa0cec23ae3ef93d6fc6a84a01f0d18c40b354dd1d5d8936001600160a01b039392611ea1575b50506040519384521691602090a2565b611eb79250803d106103cd576103be81836110a9565b3880611e91565b611ed59150883d8a116103cd576103be81836110a9565b38611e05565b90611ee69291611f06565b9060009015611ef3575090565b6040519150611f018261108d565b815290565b803b15611f83576000927fffffffff000000000000000000000000000000000000000000000000000000008360208695519101201690611f706024604051809360208201958652611f608151809260208686019101611136565b81010360048101845201826110a9565b5191620dbba0fa611f7f611d77565b9091565b505050600090604051611f958161108d565b6000815290565b9291611faa91600094611f06565b9080611fe2575b611fb85750565b9091506020818051810103126101b45760206001600160a01b03910151611fde8161027e565b1690565b506020815114611fb1565b9291611ffb91600094611f06565b908061201e575b6120095750565b61112791925060208082518301019101611bfe565b506020815114612002565b929161203791600094611f06565b908061205a575b6120455750565b61112791925060208082518301019101611206565b50602081511461203e565b90602082519201517fffffffff000000000000000000000000000000000000000000000000000000009081811693600481106120a057505050565b60040360031b82901b16169150565b6001600160a01b0381161561216257600080918351908260208601915af1906120d6611d77565b91156120e0575090565b80516000919060041161215c576120f79150612065565b8151156121075750805190602001fd5b6040517f21c09d340000000000000000000000000000000000000000000000000000000081527fffffffff00000000000000000000000000000000000000000000000000000000919091166004820152602490fd5b506120f7565b600460405163e6c4247b60e01b8152fdfea2646970667358221220e7eb01d162c0e3a0b81ef14be422fea5a328c62f3bec94703eb851037f627d2b64736f6c63430008140033","linkReferences":{}},"methodIdentifiers":{"Burn(uint256)":"b90306ad","UserToForm(address)":"c1e6cec2","_delegatorCount()":"a1f7f539","_getImplementation(address)":"c54e44b0","_isDelegatorNode(address)":"e01ad5fd","_isSafe()":"e0a9bc2b","_isSecureBase(address)":"af484526","_isSigner(address)":"1f185d16","closeTransferTarget(address)":"4ef260a9","forms(uint256)":"18c864e3","getBalance()":"12065fe0","getForm(uint256)":"479fa2c3","getFormsCount()":"cab3cc8d","getHexbase()":"3b9b7955","getImportedNodeByIndex(uint256)":"b8f1759a","getimportedNodeCount()":"e846034a","importRankBusiness(uint256,uint256)":"e981bcad","importedNode(uint256)":"ab7e46ae","importuser(uint256)":"3676bd1f","owner()":"8da5cb5b","resolveTransferTarget(address)":"ac233345","submitTransferForm(address,uint256)":"e84adc13","systemAge()":"fdc10bc9","testTxnSys(address,uint256,uint256,uint256)":"9fb3953b"},"id":51}