{"abi":[{"type":"constructor","inputs":[{"name":"_hex","type":"address","internalType":"address"}],"stateMutability":"nonpayable"},{"type":"fallback","stateMutability":"payable"},{"type":"receive","stateMutability":"payable"},{"type":"function","name":"Burn","inputs":[{"name":"amount","type":"uint256","internalType":"uint256"}],"outputs":[],"stateMutability":"nonpayable"},{"type":"function","name":"UserToForm","inputs":[{"name":"","type":"address","internalType":"address"}],"outputs":[{"name":"","type":"uint256","internalType":"uint256"}],"stateMutability":"view"},{"type":"function","name":"_delegatorCount","inputs":[],"outputs":[{"name":"","type":"uint256","internalType":"uint256"}],"stateMutability":"view"},{"type":"function","name":"_getImplementation","inputs":[{"name":"clone","type":"address","internalType":"address"}],"outputs":[{"name":"impl","type":"address","internalType":"address"}],"stateMutability":"view"},{"type":"function","name":"_isDelegatorNode","inputs":[{"name":"sender","type":"address","internalType":"address"}],"outputs":[{"name":"","type":"bool","internalType":"bool"}],"stateMutability":"view"},{"type":"function","name":"_isSafe","inputs":[],"outputs":[{"name":"","type":"bool","internalType":"bool"}],"stateMutability":"view"},{"type":"function","name":"_isSecureBase","inputs":[{"name":"sender","type":"address","internalType":"address"}],"outputs":[{"name":"","type":"bool","internalType":"bool"}],"stateMutability":"view"},{"type":"function","name":"_isSigner","inputs":[{"name":"sender","type":"address","internalType":"address"}],"outputs":[{"name":"","type":"bool","internalType":"bool"}],"stateMutability":"view"},{"type":"function","name":"_lastAge","inputs":[],"outputs":[{"name":"","type":"uint256","internalType":"uint256"}],"stateMutability":"view"},{"type":"function","name":"callback","inputs":[{"name":"formId","type":"uint256","internalType":"uint256"}],"outputs":[],"stateMutability":"nonpayable"},{"type":"function","name":"closeTransferTarget","inputs":[{"name":"to","type":"address","internalType":"address"}],"outputs":[],"stateMutability":"nonpayable"},{"type":"function","name":"forms","inputs":[{"name":"","type":"uint256","internalType":"uint256"}],"outputs":[{"name":"from","type":"address","internalType":"address"},{"name":"to","type":"address","internalType":"address"},{"name":"status","type":"bool","internalType":"bool"},{"name":"proposalId","type":"uint256","internalType":"uint256"},{"name":"resolved","type":"bool","internalType":"bool"},{"name":"closed","type":"bool","internalType":"bool"}],"stateMutability":"view"},{"type":"function","name":"getBalance","inputs":[],"outputs":[{"name":"","type":"uint256","internalType":"uint256"}],"stateMutability":"view"},{"type":"function","name":"getForm","inputs":[{"name":"formId","type":"uint256","internalType":"uint256"}],"outputs":[{"name":"from","type":"address","internalType":"address"},{"name":"to","type":"address","internalType":"address"},{"name":"resolved","type":"bool","internalType":"bool"},{"name":"closed","type":"bool","internalType":"bool"},{"name":"status","type":"bool","internalType":"bool"},{"name":"proposalId","type":"uint256","internalType":"uint256"}],"stateMutability":"view"},{"type":"function","name":"getFormsCount","inputs":[],"outputs":[{"name":"","type":"uint256","internalType":"uint256"}],"stateMutability":"view"},{"type":"function","name":"getHexbase","inputs":[],"outputs":[{"name":"","type":"address","internalType":"address"}],"stateMutability":"view"},{"type":"function","name":"getImportedNodeByIndex","inputs":[{"name":"index","type":"uint256","internalType":"uint256"}],"outputs":[{"name":"node","type":"address","internalType":"address"}],"stateMutability":"view"},{"type":"function","name":"getMandatedVoters","inputs":[{"name":"formId","type":"uint256","internalType":"uint256"},{"name":"inx","type":"uint256","internalType":"uint256"}],"outputs":[{"name":"mandatedvoter","type":"address","internalType":"address"}],"stateMutability":"view"},{"type":"function","name":"getMandatedVotersCount","inputs":[{"name":"formId","type":"uint256","internalType":"uint256"}],"outputs":[{"name":"count","type":"uint256","internalType":"uint256"}],"stateMutability":"view"},{"type":"function","name":"getimportedNodeCount","inputs":[],"outputs":[{"name":"nodesCount","type":"uint256","internalType":"uint256"}],"stateMutability":"view"},{"type":"function","name":"importBusiness","inputs":[{"name":"batchSize","type":"uint256","internalType":"uint256"}],"outputs":[],"stateMutability":"nonpayable"},{"type":"function","name":"importedNode","inputs":[{"name":"","type":"uint256","internalType":"uint256"}],"outputs":[{"name":"","type":"address","internalType":"address"}],"stateMutability":"view"},{"type":"function","name":"importuser","inputs":[{"name":"batchSize","type":"uint256","internalType":"uint256"}],"outputs":[],"stateMutability":"nonpayable"},{"type":"function","name":"owner","inputs":[],"outputs":[{"name":"","type":"address","internalType":"address"}],"stateMutability":"view"},{"type":"function","name":"resolveTransferTarget","inputs":[{"name":"to","type":"address","internalType":"address"}],"outputs":[{"name":"from","type":"address","internalType":"address"}],"stateMutability":"view"},{"type":"function","name":"submitTransferForm","inputs":[{"name":"_from","type":"address","internalType":"address"},{"name":"_mandatedvoters","type":"address[]","internalType":"address[]"}],"outputs":[],"stateMutability":"nonpayable"},{"type":"function","name":"systemAge","inputs":[],"outputs":[{"name":"","type":"uint256","internalType":"uint256"}],"stateMutability":"view"},{"type":"event","name":"EthBurned","inputs":[{"name":"sender","type":"address","indexed":true,"internalType":"address"},{"name":"amount","type":"uint256","indexed":false,"internalType":"uint256"}],"anonymous":false},{"type":"event","name":"EthTransferred","inputs":[{"name":"to","type":"address","indexed":true,"internalType":"address"},{"name":"amount","type":"uint256","indexed":false,"internalType":"uint256"}],"anonymous":false},{"type":"event","name":"HexBaseUpdated","inputs":[{"name":"previousHexBase","type":"address","indexed":true,"internalType":"address"},{"name":"newHexBase","type":"address","indexed":true,"internalType":"address"}],"anonymous":false},{"type":"event","name":"OwnerUpdated","inputs":[{"name":"previousOwner","type":"address","indexed":true,"internalType":"address"},{"name":"newOwner","type":"address","indexed":true,"internalType":"address"}],"anonymous":false},{"type":"error","name":"ReentrancyGuardReentrantCall","inputs":[]},{"type":"error","name":"TargetCallFailed","inputs":[{"name":"selector","type":"bytes4","internalType":"bytes4"}]}],"bytecode":{"object":"0x6080346100ca57601f6124e838819003918201601f19168301916001600160401b038311848410176100cf578084926020946040528339810103126100ca57516001600160a01b038116908190036100ca5780156100855760018060a01b0319338160015416176001556000541617600055600160035560405161240290816100e68239f35b60405162461bcd60e51b815260206004820152601360248201527f6f776e2e696e76616c69642e68657862617365000000000000000000000000006044820152606490fd5b600080fd5b634e487b7160e01b600052604160045260246000fdfe60806040526004361015610018575b361561001657005b005b60003560e01c806312065fe0146101c857806313a52c8c146101c357806318c864e3146101be5780631f185d16146101b957806324480afe146101b45780633676bd1f146101af5780633b9b7955146101aa578063479fa2c3146101a557806349fbed12146101a05780634ef260a91461019b57806376e8217d146101965780638da5cb5b14610191578063a1f7f5391461018c578063ab7e46ae14610187578063ac23334514610182578063af4845261461017d578063b8f1759a14610178578063b90306ad14610173578063c1e6cec21461016e578063c54e44b014610169578063cab3cc8d14610164578063cb84b34b1461015f578063e01ad5fd1461015a578063e0a9bc2b14610155578063e846034a14610150578063fdc10bc91461014b5763ff585caf0361000e57610e9f565b610e7c565b610e5e565b610dbc565b610d1d565b610cc7565b610ca9565b610c10565b610bd3565b610acc565b610a71565b610a40565b610a07565b6109ac565b6108dd565b6108b4565b610842565b610782565b610653565b6105a2565b610579565b61054e565b610530565b61040b565b61037c565b610287565b346101e45760003660031901126101e457602047604051908152f35b600080fd5b6001600160a01b038116036101e457565b634e487b7160e01b600052604160045260246000fd5b6040810190811067ffffffffffffffff82111761022c57604052565b6101fa565b6020810190811067ffffffffffffffff82111761022c57604052565b90601f8019910116810190811067ffffffffffffffff82111761022c57604052565b67ffffffffffffffff811161022c5760051b60200190565b346101e45760403660031901126101e4576004356102a4816101e9565b60243567ffffffffffffffff81116101e457366023820112156101e45780600401356102cf8161026f565b916102dd604051938461024d565b81835260209160248385019160051b830101913683116101e457602401905b82821061030d576100168587610f17565b838091833561031b816101e9565b8152019101906102fc565b634e487b7160e01b600052603260045260246000fd5b600554811015610377576006906005600052027f036b6384b5eca791c62761152d0c79bb0604c104a5fb6f4eb0703f3154bb3db00190600090565b610326565b346101e45760203660031901126101e4576004356005548110156101e4576103a39061033c565b508054600182015460038301546004840154600590940154604080516001600160a01b03958616815294909316602085015260ff91821615159284019290925260608301939093528281161515608083015260081c909116151560a082015260c090f35b0390f35b346101e4576020806003193601126101e45760049081359061042c826101e9565b600054819061044b906001600160a01b03165b6001600160a01b031690565b604051634bf9c0ad60e11b815294859182905afa91821561052b576104a26104dc936104be92610407966000926104f8575b506040516001600160a01b0390911685820190815290926104b0918491602090910190565b03601f19810184528361024d565b6104b8611fe3565b906121a6565b9190806104ee575b6104cf90612010565b8082518301019101611ea6565b60405190151581529081906020820190565b50815181146104c6565b6104b091925061051d90863d8811610524575b610515818361024d565b81019061125c565b919061047d565b503d61050b565b611274565b346101e45760003660031901126101e4576020600754604051908152f35b346101e45760203660031901126101e457610567611cd7565b6105726004356118a4565b6001600355005b346101e45760003660031901126101e4576000546040516001600160a01b039091168152602090f35b346101e45760203660031901126101e45760043580151580610647575b6105c89061135f565b6000198101908111610642576105dd9061033c565b508054600182015460058301546003840154600490940154604080516001600160a01b03958616815294909316602085015260ff80831615159385019390935260089190911c82161515606084015292161515608082015260a081019190915260c090f35b611176565b506005548111156105bf565b346101e45760203660031901126101e45760043561066f611cd7565b61067c6064821115611609565b61068d61068830611f37565b611655565b6106ac6007916106a783546106a0612055565b1015611d76565b611db5565b9060005b82518110156106e5576106e0906106db6106d68454806106d08589611de7565b52611733565b600755565b611733565b6106b0565b6000548390600490602090610702906001600160a01b031661043f565b60405163ab6e844f60e01b815292839182905afa801561052b57610753926104a29260009261075e575b50604051637aefe0bb60e01b60208201529261074e9184919060248301611dfb565b612311565b506100166001600355565b61074e91925061077b9060203d811161052457610515818361024d565b919061072c565b346101e45760203660031901126101e45760043561079f816101e9565b6001600160a01b03166000818152600460205260408120549091906000198101908111610642576107d160059161033c565b500161010061ff00198254161790558082526004602052816040812055600654600160401b81101561022c576001810180600655811015610377577ff652222313e28459528d920b65115c16c04f3efc82aaedc97be59f3f377c0d3f0180546001600160a01b031916909117905580f35b346101e45760403660031901126101e457600435801515806108a8575b6108689061135f565b60001981019081116106425761088f61088260209261033c565b5060026024359101610994565b905460405160039290921b1c6001600160a01b03168152f35b5060055481111561085f565b346101e45760003660031901126101e4576001546040516001600160a01b039091168152602090f35b346101e45760003660031901126101e45760005460405163d1f956b160e01b815290602090829060049082906001600160a01b03165afa90811561052b576104079161096691600091610976575b5060405161093881610210565b601381527267657464656c656761746f72436f756e74282960681b60208201526109606113d6565b916122a4565b6040519081529081906020820190565b61098e915060203d811161052457610515818361024d565b3861092b565b80548210156103775760005260206000200190600090565b346101e45760203660031901126101e4576004356006548110156101e45760066000527ff652222313e28459528d920b65115c16c04f3efc82aaedc97be59f3f377c0d3f01546040516001600160a01b039091168152602090f35b346101e45760203660031901126101e4576020610a2e600435610a29816101e9565b611540565b6040516001600160a01b039091168152f35b346101e45760203660031901126101e4576020610a67600435610a62816101e9565b611f37565b6040519015158152f35b346101e45760203660031901126101e4576004356006548110156103775760066000527ff652222313e28459528d920b65115c16c04f3efc82aaedc97be59f3f377c0d3f01546040516001600160a01b039091168152602090f35b346101e4576020806003193601126101e45760043560018060a01b0391600092808454169060405191630536340960e21b83528383600481845afa92831561052b576004938593610b27928992610bb4575b50163314611321565b6040516311be646b60e21b815292839182905afa91821561052b57848085610b6695829583958492610b97575b50505af1610b6061210d565b5061213d565b60405190815233907fcdcc745fe377b103b45fa0cec23ae3ef93d6fc6a84a01f0d18c40b354dd1d5d890602090a280f35b610bad9250803d1061052457610515818361024d565b3880610b54565b610bcc919250853d871161052457610515818361024d565b9038610b1e565b346101e45760203660031901126101e457600435610bf0816101e9565b60018060a01b031660005260046020526020604060002054604051908152f35b346101e45760203660031901126101e457600435610c2d816101e9565b803b6000610c3a826113ba565b92610c48604051948561024d565b82845260208401903c602d815110610c6e57602a015160405160609190911c8152602090f35b60405162461bcd60e51b81526020600482015260136024820152724e6f742061206d696e696d616c2070726f787960681b6044820152606490fd5b346101e45760003660031901126101e4576020600554604051908152f35b346101e45760203660031901126101e45760043580151580610d11575b610ced9061135f565b6000198101908111610642576002610d0660209261033c565b500154604051908152f35b50600554811115610ce4565b346101e4576020806003193601126101e45760048035610d3c816101e9565b60005460405163d1f956b160e01b81526001600160a01b03949093909182918591829088165afa90811561052b57610407946104dc94600093610d9d575b506040519316818401528252610d8f82610210565b610d976120e0565b90612268565b610db5919350823d841161052457610515818361024d565b9138610d7a565b346101e45760003660031901126101e457600054604051634bf9c0ad60e11b8152906020908190839060049082906001600160a01b03165afa90811561052b57610e266104dc9261040794600091610e41575b50610e18611e36565b610e206113d6565b916121a6565b919080610e37575b6104cf90611e5a565b5081518114610e2e565b610e589150833d851161052457610515818361024d565b38610e0f565b346101e45760003660031901126101e4576020600654604051908152f35b346101e45760003660031901126101e4576020610e97612055565b604051908152f35b346101e45760203660031901126101e457600054604051630536340960e21b8152906001600160a01b03906020908390600490829085165afa90811561052b57610ef392600092610efe5750163314611321565b61001660043561143e565b610bcc91925060203d811161052457610515818361024d565b6001600160a01b038116156110ac57336000908152600460205260409020610f409054156110e6565b610f6b610f4b611127565b5080546001600160a01b0319166001600160a01b03909316929092178255565b6001810180546001600160a01b0319163317815591610fa490610f9260028401918261118c565b6001546001600160a01b031690611221565b60055460046040519182610fce60209263ff585caf60e01b84840152602483019190602083019252565b03610fe1601f199182810186528561024d565b6000548290610ff8906001600160a01b031661043f565b604051630536340960e21b815294859182905afa92831561052b57600494611066946110599361104d9360009261108b575b5060405163d3a3084960e01b8782015293919261074e92859130602484016112a3565b0390810184528361024d565b8051810182019101611312565b91015560055490546001600160a01b0316600090815260046020526040902055565b55565b61074e92506110a690873d891161052457610515818361024d565b9161102a565b60405162461bcd60e51b815260206004820152601260248201527137bbb7173232b330bab63a1739b2b73232b960711b6044820152606490fd5b156110ed57565b60405162461bcd60e51b815260206004820152601260248201527170726f706f7365722e746f2e65786973747360701b6044820152606490fd5b600554600160401b81101561022c576001810180600555811015610377576006906005600052027f036b6384b5eca791c62761152d0c79bb0604c104a5fb6f4eb0703f3154bb3db00190600090565b634e487b7160e01b600052601160045260246000fd5b81519167ffffffffffffffff831161022c57600160401b831161022c5781548383558084106111f8575b506111cb602080920192600052602060002090565b9060005b8481106111dd575050505050565b83516001600160a01b031683820155928101926001016111cf565b6000838152846020822092830192015b8281106112165750506111b6565b818155600101611208565b8054600160401b81101561022c5761123e91600182018155610994565b819291549060031b9160018060a01b03809116831b921b1916179055565b908160209103126101e45751611271816101e9565b90565b6040513d6000823e3d90fd5b60005b8381106112935750506000910152565b8181015183820152602001611283565b929160809060079260a08652600d60a08701526c2ab9b2b9102a3930b739b332b960991b60c087015260018060a01b031660208601526000604086015260e0606086015280518060e087015261130381610100936020858a019101611280565b601f8019910116850101930152565b908160209103126101e4575190565b1561132857565b60405162461bcd60e51b815260206004820152600f60248201526e6f776e2e6e6f6e617574682e44414f60881b6044820152606490fd5b1561136657565b60405162461bcd60e51b815260206004820152601760248201527f70726f706f7365722e696e76616c69642e666f726d69640000000000000000006044820152606490fd5b60001981019190821161064257565b67ffffffffffffffff811161022c57601f01601f191660200190565b604051906113e382610231565b60008252565b604051906113f682610210565b6012825271676574526573756c742875696e743235362960701b6020830152565b908160a09103126101e4578051916020820151916040810151916080606083015192015190565b801561153d5761145e6114639161145960055482111561135f565b6113ab565b61033c565b50600054611479906001600160a01b031661043f565b906040518092630536340960e21b825281600460209384935afa801561052b576114eb6005926114de6104a260039461151e98600091611520575b506114d060048901546040519384918783019190602083019252565b6114d86113e9565b9061217b565b8051810182019101611417565b858801805460ff19166004831460ff16179055935061150992505050565b101591019060ff801983541691151516179055565b565b6115379150843d861161052457610515818361024d565b386114b4565b50565b6001600160a01b03811660009081526004602052604090205480151590816115fc575b50156115f6576001600160a01b0316600090815260046020526040902061158e9061145e90546113ab565b50600381015460ff1690816115e0575b816115bf575b600091156115bb57546001600160a01b0316905090565b5090565b90506115da6115d6600583015460ff9060081c1690565b1590565b906115a4565b90506115f0600582015460ff1690565b9061159e565b50600090565b9050600554101538611563565b1561161057565b60405162461bcd60e51b815260206004820152601c60248201527f7574696c6974792e62617463682e6c696d69742e6578636565646564000000006044820152606490fd5b1561165c57565b60405162461bcd60e51b815260206004820152601760248201527f7574696c6974792e756e7365637572652e6661696c65640000000000000000006044820152606490fd5b6040516116ad81610231565b60008152906000368137565b604051906116c682610210565b600f82526e6765744e6f646573436f756e74282960881b6020830152565b156116eb57565b60405162461bcd60e51b81526020600482015260136024820152727574696c6974792e696d706f72742e646f6e6560681b6044820152606490fd5b9190820180921161064257565b60001981146106425760010190565b6040519061174f82610210565b601782527f6765744e6f64654279496e6465782875696e74323536290000000000000000006020830152565b1561178257565b60405162461bcd60e51b815260206004820152601660248201527570726f78792e696e76616c69642e696e7374616e636560501b6044820152606490fd5b604051906117cd82610210565b6013825272496e7374546f5573657228616464726573732960681b6020830152565b156117f657565b60405162461bcd60e51b815260206004820152601260248201527170726f78792e696e76616c69642e6e6f646560701b6044820152606490fd5b6040519061183d82610210565b601082526f6765744e6f646528616464726573732960801b6020830152565b519081151582036101e457565b908160a09103126101e4578051916020820151611885816101e9565b91604081015191611271608061189d6060850161185c565b930161185c565b6118b16064821115611609565b6118bd61068830611f37565b600080549091906118d6906001600160a01b031661043f565b6040805163111ea8c160e21b808252600495939092916020919082818981855afa801561052b57611920918791611cc0575b506119116116a1565b9061191a6116b9565b906122a4565b958615611cb657835183818a8163ab6e844f60e01b968782525afa90811561052b5761196b91611959918991611c9957506119116116a1565b91611965838a116116e4565b82611726565b96808811611c91575b505b868110611987575050505050505050565b855461199b906001600160a01b031661043f565b90845186815284818b81865afa92831561052b578a918994611c72575b506119f28751806119d0868a83019190602083019252565b03956119e4601f199788810184528361024d565b6119ec611742565b90612224565b6001600160a01b0390611a08818316151561177b565b87895180958c825281865afa93841561052b57818a8f968b8f94611a5f9592611c4d575b5091516001600160a01b0390931691830191825290611a579083906020015b038a810184528361024d565b6119ec6117c0565b92611a6d83851615156117ef565b888a5180968d825281845afa801561052b57611ae18f96611abf8f6001948f91978f9894611ad39592611c2c575b5091516001600160a01b0390921688830190815291929091611acb91849160200190565b038d810184528361024d565b6114d8611830565b848082518301019101611869565b5050509490941693611af48115156117ef565b148015611c23575b611ba6575b5050611b0d8280611cfa565b89548790611b23906001600160a01b031661043f565b8951948580928a82525afa801561052b57611b8095611b7a948c92611b85575b5089516350db85d160e01b8a8201526001600160a01b0393841660248201529390921660448401529061074e90836064810161104d565b50611733565b611976565b61074e9250611ba0908a3d8c1161052457610515818361024d565b91611b43565b8951948580928d82525afa92831561052b578c93611bf992611bed928d92611c00575b508a516001600160a01b039091168a82019081529092611a57918491602090910190565b0388810184528361024d565b8638611b01565b611a57919250611c1c908b3d8d1161052457610515818361024d565b9190611bc9565b50821515611afc565b611acb9250611c47908a3d8c1161052457610515818361024d565b91611a9b565b611a579250611c6b611a4b91833d851161052457610515818361024d565b9250611a2c565b611c8a919450863d881161052457610515818361024d565b92386119b8565b965038611974565b611cb09150863d881161052457610515818361024d565b38611908565b5050505050505050565b611cb09150843d861161052457610515818361024d565b600260035414611ce8576002600355565b604051633ee5aeb560e01b8152600490fd5b60055490600160401b82101561022c57611d1e610f4b83600160059501855561033c565b6001810180546001600160a01b0319166001600160a01b03851617905560038101600160ff1982541617905501600161ffff198254161790556110886005549160018060a01b03166000526004602052604060002090565b15611d7d57565b60405162461bcd60e51b815260206004820152601060248201526f7574696c6974792e6167652e646f6e6560801b6044820152606490fd5b90611dbf8261026f565b611dcc604051918261024d565b8281528092611ddd601f199161026f565b0190602036910137565b80518210156103775760209160051b010190565b6020908160408183019282815285518094520193019160005b828110611e22575050505090565b835185529381019392810192600101611e14565b60405190611e4382610210565b6008825267697353616665282960c01b6020830152565b15611e6157565b60405162461bcd60e51b815260206004820152601960248201527f6f776e2e7361666567756172642e63616c6c2e6661696c6564000000000000006044820152606490fd5b908160209103126101e4576112719061185c565b60405190611ec782610210565b601582527469735365637572654261736528616464726573732960581b6020830152565b15611ef257565b60405162461bcd60e51b815260206004820152601a60248201527f6f776e2e736563757265626173652e63616c6c2e6661696c65640000000000006044820152606490fd5b6000546001600160a01b0316604051918291634bf9c0ad60e11b835282600460209485935afa92831561052b5761127193611fa5926104a292600092611fc0575b506040516001600160a01b039091168582019081529092611f9d918491602090910190565b6104b8611eba565b919080611fb6575b6104cf90611eeb565b5081518114611fad565b611f9d919250611fdc90863d881161052457610515818361024d565b9190611f78565b60405190611ff082610210565b601182527069735369676e657228616464726573732960781b6020830152565b1561201757565b60405162461bcd60e51b81526020600482015260166024820152751bdddb8b9cda59db995c8b98d85b1b0b99985a5b195960521b6044820152606490fd5b60005460405163111ea8c160e21b815290602090829060049082906001600160a01b03165afa801561052b57611271916000916120c2575b5060405161209a81610210565b6005815264616765282960d81b6020820152604051916120b983610231565b600083526122a4565b6120da915060203d811161052457610515818361024d565b3861208d565b604051906120ed82610210565b6011825270697364656c656761746f724e6f6465282960781b6020830152565b3d15612138573d9061211e826113ba565b9161212c604051938461024d565b82523d6000602084013e565b606090565b1561214457565b60405162461bcd60e51b815260206004820152600f60248201526e1bdddb8b989d5c9b8b99985a5b1959608a1b6044820152606490fd5b9061218692916121a6565b9060009015612193575090565b60405191506121a182610231565b815290565b803b1561220b57600092839263ffffffff60e01b906020815191012016906121f860246040518093602082019586526121e88151809260208686019101611280565b810103600481018452018261024d565b5191620dbba0fa61220761210d565b9091565b50505060009060405161221d81610231565b6000815290565b9291612232916000946121a6565b908061225d575b6122405750565b9091506020818051810103126101e4576020015161043f816101e9565b506020815114612239565b9291612276916000946121a6565b9080612299575b6122845750565b61127191925060208082518301019101611ea6565b50602081511461227d565b92916122b2916000946121a6565b90806122d5575b6122c05750565b61127191925060208082518301019101611312565b5060208151146122b9565b906020825192015163ffffffff60e01b90818116936004811061230257505050565b60040360031b82901b16169150565b6001600160a01b0381161561239257600080918351908260208601915af19061233861210d565b9115612342575090565b80516000919060041161238c5761235991506122e0565b8151156123695750805190602001fd5b604051630870274d60e21b81526001600160e01b03199091166004820152602490fd5b50612359565b60405162461bcd60e51b81526020600482015260126024820152711bdddb8b9a5b9d985b1a590b9d185c99d95d60721b6044820152606490fdfea26469706673582212203772a7db1781d965aec4ce0c76072282e8ebfd3bbb2172b5f24bcca4253806e264736f6c63430008140033","linkReferences":{}},"methodIdentifiers":{"Burn(uint256)":"b90306ad","UserToForm(address)":"c1e6cec2","_delegatorCount()":"a1f7f539","_getImplementation(address)":"c54e44b0","_isDelegatorNode(address)":"e01ad5fd","_isSafe()":"e0a9bc2b","_isSecureBase(address)":"af484526","_isSigner(address)":"1f185d16","_lastAge()":"24480afe","callback(uint256)":"ff585caf","closeTransferTarget(address)":"4ef260a9","forms(uint256)":"18c864e3","getBalance()":"12065fe0","getForm(uint256)":"479fa2c3","getFormsCount()":"cab3cc8d","getHexbase()":"3b9b7955","getImportedNodeByIndex(uint256)":"b8f1759a","getMandatedVoters(uint256,uint256)":"76e8217d","getMandatedVotersCount(uint256)":"cb84b34b","getimportedNodeCount()":"e846034a","importBusiness(uint256)":"49fbed12","importedNode(uint256)":"ab7e46ae","importuser(uint256)":"3676bd1f","owner()":"8da5cb5b","resolveTransferTarget(address)":"ac233345","submitTransferForm(address,address[])":"13a52c8c","systemAge()":"fdc10bc9"},"id":43}