{"abi":[{"type":"constructor","inputs":[{"name":"_hex","type":"address","internalType":"address"}],"stateMutability":"nonpayable"},{"type":"fallback","stateMutability":"payable"},{"type":"receive","stateMutability":"payable"},{"type":"function","name":"Burn","inputs":[{"name":"amount","type":"uint256","internalType":"uint256"}],"outputs":[],"stateMutability":"nonpayable"},{"type":"function","name":"UserToForm","inputs":[{"name":"","type":"address","internalType":"address"}],"outputs":[{"name":"","type":"uint256","internalType":"uint256"}],"stateMutability":"view"},{"type":"function","name":"Withdraw","inputs":[],"outputs":[],"stateMutability":"nonpayable"},{"type":"function","name":"_delegatorCount","inputs":[],"outputs":[{"name":"","type":"uint256","internalType":"uint256"}],"stateMutability":"view"},{"type":"function","name":"_getImplementation","inputs":[{"name":"clone","type":"address","internalType":"address"}],"outputs":[{"name":"impl","type":"address","internalType":"address"}],"stateMutability":"view"},{"type":"function","name":"_isDelegatorNode","inputs":[{"name":"sender","type":"address","internalType":"address"}],"outputs":[{"name":"","type":"bool","internalType":"bool"}],"stateMutability":"view"},{"type":"function","name":"_isSafe","inputs":[],"outputs":[{"name":"","type":"bool","internalType":"bool"}],"stateMutability":"view"},{"type":"function","name":"_isSecureBase","inputs":[{"name":"sender","type":"address","internalType":"address"}],"outputs":[{"name":"","type":"bool","internalType":"bool"}],"stateMutability":"view"},{"type":"function","name":"_isSigner","inputs":[{"name":"sender","type":"address","internalType":"address"}],"outputs":[{"name":"","type":"bool","internalType":"bool"}],"stateMutability":"view"},{"type":"function","name":"actualTVL","inputs":[],"outputs":[{"name":"","type":"uint256","internalType":"uint256"}],"stateMutability":"view"},{"type":"function","name":"closeTransferTarget","inputs":[{"name":"to","type":"address","internalType":"address"}],"outputs":[],"stateMutability":"nonpayable"},{"type":"function","name":"currentRefreshId","inputs":[],"outputs":[{"name":"","type":"uint256","internalType":"uint256"}],"stateMutability":"view"},{"type":"function","name":"forms","inputs":[{"name":"","type":"uint256","internalType":"uint256"}],"outputs":[{"name":"from","type":"address","internalType":"address"},{"name":"to","type":"address","internalType":"address"}],"stateMutability":"view"},{"type":"function","name":"getBalance","inputs":[],"outputs":[{"name":"","type":"uint256","internalType":"uint256"}],"stateMutability":"view"},{"type":"function","name":"getForm","inputs":[{"name":"formId","type":"uint256","internalType":"uint256"}],"outputs":[{"name":"from","type":"address","internalType":"address"},{"name":"to","type":"address","internalType":"address"}],"stateMutability":"view"},{"type":"function","name":"getFormsCount","inputs":[],"outputs":[{"name":"","type":"uint256","internalType":"uint256"}],"stateMutability":"view"},{"type":"function","name":"getHexbase","inputs":[],"outputs":[{"name":"","type":"address","internalType":"address"}],"stateMutability":"view"},{"type":"function","name":"getImportedNodeByIndex","inputs":[{"name":"index","type":"uint256","internalType":"uint256"}],"outputs":[{"name":"node","type":"address","internalType":"address"}],"stateMutability":"view"},{"type":"function","name":"getUserOldData","inputs":[{"name":"user","type":"address","internalType":"address"}],"outputs":[{"name":"uold","type":"tuple","internalType":"struct TransferRequests.UserOldDataStr","components":[{"name":"rwrd","type":"uint256","internalType":"uint256"},{"name":"royl","type":"uint256","internalType":"uint256"},{"name":"self","type":"uint256","internalType":"uint256"},{"name":"yei","type":"uint256","internalType":"uint256"},{"name":"tour1","type":"uint256","internalType":"uint256"},{"name":"tour2","type":"uint256","internalType":"uint256"},{"name":"tvl","type":"uint256","internalType":"uint256"},{"name":"claimeddollar","type":"uint256","internalType":"uint256"},{"name":"oldRWRD","type":"uint256","internalType":"uint256"},{"name":"oldYEILD","type":"uint256","internalType":"uint256"},{"name":"exists","type":"bool","internalType":"bool"}]}],"stateMutability":"view"},{"type":"function","name":"getimportedNodeCount","inputs":[],"outputs":[{"name":"nodesCount","type":"uint256","internalType":"uint256"}],"stateMutability":"view"},{"type":"function","name":"importRankBusiness","inputs":[{"name":"_fromAge","type":"uint256","internalType":"uint256"},{"name":"_toAge","type":"uint256","internalType":"uint256"}],"outputs":[],"stateMutability":"nonpayable"},{"type":"function","name":"importedNode","inputs":[{"name":"","type":"uint256","internalType":"uint256"}],"outputs":[{"name":"","type":"address","internalType":"address"}],"stateMutability":"view"},{"type":"function","name":"owner","inputs":[],"outputs":[{"name":"","type":"address","internalType":"address"}],"stateMutability":"view"},{"type":"function","name":"refreshusers","inputs":[{"name":"batchSize","type":"uint256","internalType":"uint256"},{"name":"maxintervals","type":"uint256","internalType":"uint256"},{"name":"lastdays","type":"uint256","internalType":"uint256"}],"outputs":[],"stateMutability":"nonpayable"},{"type":"function","name":"resolveParent","inputs":[{"name":"","type":"address","internalType":"address"}],"outputs":[{"name":"","type":"address","internalType":"address"}],"stateMutability":"view"},{"type":"function","name":"resolveTransferTarget","inputs":[{"name":"to","type":"address","internalType":"address"}],"outputs":[{"name":"","type":"address","internalType":"address"}],"stateMutability":"view"},{"type":"function","name":"setBase","inputs":[{"name":"_f","type":"address","internalType":"address"}],"outputs":[],"stateMutability":"nonpayable"},{"type":"function","name":"setsysdata","inputs":[{"name":"price","type":"uint256","internalType":"uint256"},{"name":"prevAge","type":"uint256","internalType":"uint256"},{"name":"cnt","type":"uint256[7]","internalType":"uint256[7]"}],"outputs":[],"stateMutability":"nonpayable"},{"type":"function","name":"setsysdatawithrefresh","inputs":[{"name":"batchSize","type":"uint256","internalType":"uint256"},{"name":"maxintervals","type":"uint256","internalType":"uint256"},{"name":"lastdays","type":"uint256","internalType":"uint256"},{"name":"price","type":"uint256","internalType":"uint256"},{"name":"prevAge","type":"uint256","internalType":"uint256"},{"name":"cnt","type":"uint256[7]","internalType":"uint256[7]"}],"outputs":[],"stateMutability":"nonpayable"},{"type":"function","name":"submitTransferForm","inputs":[{"name":"_from","type":"address","internalType":"address"},{"name":"_to","type":"address","internalType":"address"}],"outputs":[],"stateMutability":"nonpayable"},{"type":"function","name":"syncBaseAddr","inputs":[],"outputs":[],"stateMutability":"nonpayable"},{"type":"function","name":"syncSystem","inputs":[],"outputs":[],"stateMutability":"nonpayable"},{"type":"function","name":"syncusers","inputs":[{"name":"batchSize","type":"uint256","internalType":"uint256"}],"outputs":[],"stateMutability":"nonpayable"},{"type":"function","name":"systemAge","inputs":[],"outputs":[{"name":"","type":"uint256","internalType":"uint256"}],"stateMutability":"view"},{"type":"function","name":"updateData1","inputs":[{"name":"users","type":"address[]","internalType":"address[]"},{"name":"tvls","type":"uint256[]","internalType":"uint256[]"},{"name":"claimdollar","type":"uint256[]","internalType":"uint256[]"},{"name":"tour1","type":"uint256[]","internalType":"uint256[]"},{"name":"tour2","type":"uint256[]","internalType":"uint256[]"},{"name":"action","type":"uint256","internalType":"uint256"}],"outputs":[],"stateMutability":"nonpayable"},{"type":"function","name":"updateData2","inputs":[{"name":"users","type":"address[]","internalType":"address[]"},{"name":"rwrd","type":"uint256[]","internalType":"uint256[]"},{"name":"royl","type":"uint256[]","internalType":"uint256[]"},{"name":"self","type":"uint256[]","internalType":"uint256[]"},{"name":"yei","type":"uint256[]","internalType":"uint256[]"},{"name":"action","type":"uint256","internalType":"uint256"}],"outputs":[],"stateMutability":"nonpayable"},{"type":"event","name":"EthBurned","inputs":[{"name":"sender","type":"address","indexed":true,"internalType":"address"},{"name":"amount","type":"uint256","indexed":false,"internalType":"uint256"}],"anonymous":false},{"type":"event","name":"EthTransferred","inputs":[{"name":"to","type":"address","indexed":true,"internalType":"address"},{"name":"amount","type":"uint256","indexed":false,"internalType":"uint256"}],"anonymous":false},{"type":"event","name":"HexBaseUpdated","inputs":[{"name":"previousHexBase","type":"address","indexed":true,"internalType":"address"},{"name":"newHexBase","type":"address","indexed":true,"internalType":"address"}],"anonymous":false},{"type":"event","name":"OwnerUpdated","inputs":[{"name":"previousOwner","type":"address","indexed":true,"internalType":"address"},{"name":"newOwner","type":"address","indexed":true,"internalType":"address"}],"anonymous":false},{"type":"error","name":"InvalidAddress","inputs":[]},{"type":"error","name":"InvalidState","inputs":[]},{"type":"error","name":"NotAuthorized","inputs":[]},{"type":"error","name":"NotSafe","inputs":[]},{"type":"error","name":"ProposerInvalidFormId","inputs":[]},{"type":"error","name":"ProposerToExists","inputs":[]},{"type":"error","name":"ProxyInvalidInstance","inputs":[]},{"type":"error","name":"ProxyInvalidNode","inputs":[]},{"type":"error","name":"ProxyInvalidStor","inputs":[]},{"type":"error","name":"ReentrancyGuardReentrantCall","inputs":[]},{"type":"error","name":"TargetCallFailed","inputs":[{"name":"selector","type":"bytes4","internalType":"bytes4"}]},{"type":"error","name":"UtilityBatchInvalid","inputs":[]},{"type":"error","name":"UtilityBatchLimitExceeded","inputs":[]},{"type":"error","name":"UtilityImportDone","inputs":[]},{"type":"error","name":"UtilityUnsecureFailed","inputs":[]}],"bytecode":{"object":"0x608034620000a357601f620038e438819003918201601f19168301916001600160401b03831184841017620000a857808492602094604052833981010312620000a357516001600160a01b03811690819003620000a3578015620000915760018060a01b03193381600154161760015560005416176000556001600d5560016013556040516138259081620000bf8239f35b60405163e6c4247b60e01b8152600490fd5b600080fd5b634e487b7160e01b600052604160045260246000fdfe60806040526004361015610018575b361561001657005b005b60003560e01c8063083d69381461025857806312065fe0146102535780631480a85b1461024e57806318c864e3146102495780631f185d161461024457806323b0586f1461023f578063339459a61461023a5780633b9b795514610235578063479fa2c3146102305780634ef260a91461022b57806355ed5fee1461022657806357ea89b61461022157806385301b861461021c5780638d6edc14146102175780638da5cb5b1461021257806396970c961461020d578063a1f7f53914610208578063ab7e46ae14610203578063ac233345146101fe578063add43bca146101f9578063af484526146101f4578063b3cea918146101ef578063b8f1759a146101ea578063b90306ad146101e5578063be17fe62146101e0578063c1e6cec2146101db578063c54e44b0146101d6578063c9a29150146101d1578063cab3cc8d146101cc578063e01ad5fd146101c7578063e0a9bc2b146101c2578063e846034a146101bd578063e981bcad146101b8578063ed6c1b58146101b3578063f245fe7a146101ae5763fdc10bc90361000e57612264565b611da3565b611c49565b611b96565b611b78565b611b5d565b611a96565b611a78565b611a18565b6119bc565b61197f565b6118cc565b6117e4565b61179b565b6116cb565b61161b565b6115ba565b611581565b611538565b6114ce565b61148f565b611418565b6113fa565b6112a7565b61108a565b61106c565b610fa0565b610f48565b610f1f565b610b59565b610856565b610793565b610742565b6104fa565b6104c1565b61032c565b9181601f8401121561028d578235916001600160401b03831161028d576020808501948460051b01011161028d57565b600080fd5b60c060031982011261028d576004906001600160401b03823581811161028d57826102be91850161025d565b9490949360243583811161028d57846102d891830161025d565b9490949360443581811161028d57826102f291850161025d565b9490949360643583811161028d578461030c91830161025d565b9490949360843590811161028d57610324920161025d565b909160a43590565b3461028d5761033a36610292565b9661034b99919693989295996122a3565b6103536133ea565b156104a4576103613361345c565b8015610490575b1561047e5761037d6103793061345c565b1590565b61046c5760049660206103996103946000546104dd565b6104dd565b60405163111ea8c160e21b8152998a9182905afa97881561046757600098610437575b5060005b8381106103d1576100166001600d55565b806104318b8f8f8f8b8f938f938f93998b8f938f8f9d61041c60019f61042a976104158880969361040f61040a8380976104239c612e9c565b612eac565b9c612e9c565b359a612e9c565b3598612e9c565b3596612e9c565b3594612f6b565b016103c0565b61045991985060203d8111610460575b61045181836111e0565b81019061227f565b96386103bc565b503d610447565b612297565b6040516327e23e1560e11b8152600490fd5b60405163ea8e4eb560e01b8152600490fd5b506005546001600160a01b03163314610368565b604051634ee2123760e11b8152600490fd5b600091031261028d57565b3461028d57600036600319011261028d57602047604051908152f35b6001600160a01b031690565b6001600160a01b0381160361028d57565b3461028d5760408060031936011261028d5760049081359161051b836104e9565b60243591610528836104e9565b6001600160a01b0384811680156106f957818516156106f957331415806106e7575b806106d0575b6106c25761055d84611441565b546106b457600161056c61232a565b50610577878261235d565b0194610583858761235d565b610595610394610394848754166104dd565b8351630dda4f8160e11b8152602095918690829081806105b788828901610f0c565b03915afa80156104675761039487956105ec6103949361060e9b6105f496600092610691575b506105e79061145b565b61235d565b8454166104dd565b908451809781948293630e5fd00b60e01b84528301610f0c565b03915afa9081156104675761065993600092610672575b505163641657cb60e01b928101929092526001602483015261065482604481015b03601f1981018452836111e0565b61374d565b5061066f61066a60115492546104dd565b611441565b55005b61068a919250833d85116104605761045181836111e0565b9038610625565b6105e79192506106ad908b3d8d116104605761045181836111e0565b91906105dd565b50516314973f6d60e31b8152fd5b505163ea8e4eb560e01b8152fd5b50336106e06103946005546104dd565b1415610550565b506106f46103793361345c565b61054a565b50505163e6c4247b60e01b8152fd5b634e487b7160e01b600052603260045260246000fd5b60115481101561073d57601160005260206000209060011b0190600090565b610708565b3461028d57602036600319011261028d5760043560115481101561028d576107699061071e565b508054600190910154604080516001600160a01b03938416815292909116602083015290f35b0390f35b3461028d5760208060031936011261028d576108066004356107b4816104e9565b6002546040516001600160a01b039283168582015284815291166107d78261118f565b604051906107e48261118f565b601182527069735369676e657228616464726573732960781b85830152613621565b91908061084c575b1561083a5781816108289261078f945183010191016133d6565b60405190151581529081906020820190565b60405163baf3f0f760e01b8152600490fd5b508082511461080e565b3461028d5761086436610292565b6108799a98919a9792979693969594956122a3565b6108816133ea565b156104a45761088f3361345c565b8015610b45575b1561047e576108ac6108a73061345c565b6130bd565b6108ba6103946000546104dd565b6004602060409283519283809263111ea8c160e21b82525afa90811561046757600091610b26575b5060005b8c81106108f7576100166001600d55565b61090561040a828f8f612e9c565b61093a610394855161092c8161091e8660208301610f0c565b03601f1981018352826111e0565b610934612eb6565b866136d2565b15610b155790818f92826109d6948f8f8f8f8f8f8f8f610969610379600a6109618e611475565b015460ff1690565b610aef575b806109db5750936109a8896109bb958199979560039d6109a261099b6109ce9f6109c79f9d99819b612e9c565b3591611475565b55612e9c565b3560016109b48d611475565b0155612e9c565b3560026109b489611475565b3592611475565b01555b61247f565b6108e6565b60019493929190858103610a5b575094610a549a610a2e610a359996610a3c610a358e60039f9c9799610a3c9f9c99610a1983610a459d819d612e9c565b35610a2e610a268a611475565b918254612472565b9055612e9c565b3593611475565b01918254612472565b35610a2e6002610a3c8b611475565b905561247f565b93979492989599969a506002809414610a80575b50505050505050505050505061247f565b610ad89a60039a8d610a2e610a2e96610ac4610a35610ac49f610a359f8f9991610aaf8b610acd9d8195612e9c565b35610a2e610abc8a611475565b9182546123a1565b019182546123a1565b3591610ac48b611475565b9055388f8b8a8f8f9386908f92878f8f8190610a6f565b610b10610afa6122c6565b6001610140820152610b0b8d611475565b612ee5565b61096e565b835163ea8e4eb560e01b8152600490fd5b610b3f915060203d6020116104605761045181836111e0565b386108e2565b506005546001600160a01b03163314610896565b3461028d57600080600319360112610f0957610b7861039482546104dd565b60408051634bf9c0ad60e11b81529160049190602080858581855afa948515610467578695610eea575b50825163cfbffe5360e01b81529281848681865afa938415610467578794610ecb575b50805163ab6e844f60e01b815282818781875afa908115610467578891610eae575b508151630536340960e21b815283818881885afa908115610467578991610e91575b50825163d1f956b160e01b81529084828981895afa918215610467578a92610e72575b508351631cc3bfab60e31b81529285848a818a5afa938415610467578b94610e53575b50845163e09d394d60e01b81529486868b818b5afa958615610467578c96610e34575b5080516314ac1b5960e21b815298878a8c818c5afa97881561046757610cb99a8e99610e15575b50808c8451809d819263013cf08b60e01b83528201906000602083019252565b03818d5afa998a15610467578c9b8f9b610df6575b50818451809d635e09dbe760e01b825281845afa9b8c15610467578f9c610dd5575b50819084519d8e8092635506ee0b60e11b82525afa9b8c15610467578e9c610db6575b50610d1c611203565b9c610d27908e6131a1565b8c0190610d33916131a1565b8a0190610d3f916131a1565b610d4c9060608a016131a1565b610d5990608089016131a1565b610d669060a088016131a1565b610d739060c087016131a1565b610d809060e086016131a1565b610d8e9061010085016131a1565b610d9c9061012084016131a1565b610daa9061014083016131a1565b610db3906131b0565b80f35b81610dce929d508d3d106104605761045181836111e0565b9a38610d13565b82919c50610def90823d84116104605761045181836111e0565b9b90610cf0565b610e0e919b50823d84116104605761045181836111e0565b9938610cce565b81610e2d929a503d8b116104605761045181836111e0565b9738610c99565b610e4c919650873d89116104605761045181836111e0565b9438610c72565b610e6b919450863d88116104605761045181836111e0565b9238610c4f565b610e8a919250853d87116104605761045181836111e0565b9038610c2c565b610ea89150843d86116104605761045181836111e0565b38610c09565b610ec59150833d85116104605761045181836111e0565b38610be7565b610ee3919450823d84116104605761045181836111e0565b9238610bc5565b81610f029296503d87116104605761045181836111e0565b9338610ba2565b80fd5b6001600160a01b03909116815260200190565b3461028d57600036600319011261028d576000546040516001600160a01b039091168152602090f35b3461028d57602036600319011261028d5760043580158015610f95575b610f83576000198101908111610f7e576107699061071e565b61237c565b604051634ba3caa560e11b8152600490fd5b506011548111610f65565b3461028d57602036600319011261028d57600435610fbd816104e9565b336001600160a01b03821614158061105a575b80611043575b61047e57610fe381611441565b5480151580611037575b610ff357005b6100169161100b61100661102793612392565b61071e565b5050600061101882611441565b5561102281612403565b61145b565b80546001600160a01b0319169055565b50601154811115610fed565b50336110536103946005546104dd565b1415610fd6565b506110676103793361345c565b610fd0565b3461028d57600036600319011261028d576020601354604051908152f35b3461028d57600080600319360112610f09576110a46133ea565b156104a4576110b23361345c565b801561114d575b1561047e576110c66122a3565b600460206110d761039484546104dd565b60405163de433f1760e01b815292839182905afa90811561046757828080938193829161112f575b50479082908215611125575b6001600160a01b031690f11561046757610db36001600d55565b6108fc915061110b565b611147915060203d81116104605761045181836111e0565b386110ff565b506005546001600160a01b031633146110b9565b634e487b7160e01b600052604160045260246000fd5b6001600160401b03811161118a57604052565b611161565b604081019081106001600160401b0382111761118a57604052565b60e081019081106001600160401b0382111761118a57604052565b602081019081106001600160401b0382111761118a57604052565b601f909101601f19168101906001600160401b0382119082101761118a57604052565b6040519061016082016001600160401b0381118382101761118a57604052565b806063121561028d5760405190611239826111aa565b8161012491821161028d576044905b8282106112555750505090565b8135815260209182019101611248565b8060c3121561028d576040519061127b826111aa565b8161018491821161028d5760a4905b8282106112975750505090565b813581526020918201910161128a565b3461028d5761012036600319011261028d576112c236611223565b6112ca6122a3565b6112d26133ea565b156104a4576112e03361345c565b80156113e6575b1561047e576004600091602061130061039485546104dd565b6040516369e8d84b60e11b815293849182905afa91821561046757839261134f9184916113c8575b506040516315ec7fad60e01b60208201526004356024820152906106548260448101610646565b506113646103946103946103946004546104dd565b90813b156113c457829161139191604051948580948193637818cdd760e01b83526024356004840161316a565b03925af18015610467576113ab575b50610db36001600d55565b806113b86113be92611177565b806104b6565b386113a0565b5050fd5b6113e0915060203d81116104605761045181836111e0565b38611328565b506005546001600160a01b031633146112e7565b3461028d57600036600319011261028d576020601454604051908152f35b3461028d57600036600319011261028d576001546040516001600160a01b039091168152602090f35b6001600160a01b03166000908152600f6020526040902090565b6001600160a01b0316600090815260106020526040902090565b6001600160a01b03166000908152600e6020526040902090565b3461028d57602036600319011261028d5760206004356114ae816104e9565b60018060a01b038091166000526010825260406000205416604051908152f35b3461028d57600036600319011261028d57602061153060018060a01b03600654166040516114fb8161118f565b601381527267657464656c656761746f72436f756e74282960681b8482015260405191611527836111c5565b600083526136e0565b604051908152f35b3461028d57602036600319011261028d5760043560125481101561028d5760126000526000805160206137d083398151915201546040516001600160a01b039091168152602090f35b3461028d57602036600319011261028d5760206115a86004356115a3816104e9565b6123ae565b6040516001600160a01b039091168152f35b3461028d57602036600319011261028d576115d36122a3565b6115db6133ea565b156104a4576115e93361345c565b8015611607575b1561047e57611600600435612893565b6001600d55005b506005546001600160a01b031633146115f0565b3461028d57602036600319011261028d57602061164260043561163d816104e9565b61345c565b6040519015158152f35b6116c990929192610160810193805182526020810151602083015260408101516040830152606081015160608301526080810151608083015260a081015160a083015260c081015160c083015260e081015160e0830152610100808201519083015261012080820151908301526101408091015191019015159052565b565b3461028d57602036600319011261028d576004356116e8816104e9565b6116f06122c6565b506001600160a01b03166000908152600e6020526040902061078f9061178f611785600a61171c611203565b938054855260018101546020860152600281015460408601526003810154606086015260048101546080860152600581015460a0860152600681015460c0860152600781015460e086015260088101546101008601526009810154610120860152015460ff1690565b1515610140830152565b6040519182918261164c565b3461028d57602036600319011261028d5760043560125481101561073d5760126000526000805160206137d083398151915201546040516001600160a01b039091168152602090f35b3461028d57602036600319011261028d576004356118006133ea565b156104a4576005546001600160a01b0316330361047e576000906004602061182b61039485546104dd565b6040516311be646b60e21b815292839182905afa801561046757838084819493829483916118ae575b505af161185f61351a565b501561083a577fcdcc745fe377b103b45fa0cec23ae3ef93d6fc6a84a01f0d18c40b354dd1d5d86118a8611897610394600b546104dd565b604051938452929081906020820190565b0390a280f35b6118c6915060203d81116104605761045181836111e0565b38611854565b3461028d57602036600319011261028d576004356118e9816104e9565b6118f16133ea565b156104a4576118ff3361345c565b801561196b575b1561047e576001600160a01b03908116801561195957600080546001600160a01b03198116831782559092167fe939feee179e631422bcc8f6e6d7d908cb3f8af38f5372f17c77e15aea5c80ee8380a380f35b60405163e6c4247b60e01b8152600490fd5b506005546001600160a01b03163314611906565b3461028d57602036600319011261028d5760043561199c816104e9565b60018060a01b0316600052600f6020526020604060002054604051908152f35b3461028d57602036600319011261028d576004356119d9816104e9565b803b60006119e682612705565b926119f460405194856111e0565b82845260208401903c602d81511061083a57602a602091015160601c604051908152f35b3461028d57606036600319011261028d57611a316122a3565b611a396133ea565b156104a457611a473361345c565b8015611a64575b1561047e576116006044356024356004356124b3565b506005546001600160a01b03163314611a4e565b3461028d57600036600319011261028d576020601154604051908152f35b3461028d5760208060031936011261028d5761078f9060043590611ab9826104e9565b6006546040516001600160a01b0393841683820152828152921691611b1990611ae18161118f565b604051611aed8161118f565b6018815277697364656c656761746f724e6f646528616464726573732960401b84820152600094613621565b919080611b53575b611b3a575b505060405190151581529081906020820190565b611b4c925080825183010191016133d6565b3880611b26565b5080825114611b21565b3461028d57600036600319011261028d5760206116426133ea565b3461028d57600036600319011261028d576020601254604051908152f35b3461028d57604036600319011261028d57611baf6122a3565b611bb76133ea565b156104a457611bc53361345c565b8015611c35575b1561047e576004546001600160a01b0316803b1561028d57600080916044604051809481936333b59a5b60e01b8352600435600484015260243560248401525af1801561046757611c22575b6100166001600d55565b806113b8611c2f92611177565b38611c18565b506005546001600160a01b03163314611bcc565b3461028d5761018036600319011261028d57611c6436611265565b611c6c6122a3565b611c746133ea565b156104a457611c823361345c565b8015611d8f575b1561047e5760046000916020611ca261039485546104dd565b6040516369e8d84b60e11b815293849182905afa918215610467578392611cf1918491611d71575b506040516315ec7fad60e01b60208201526064356024820152906106548260448101610646565b50611d066103946103946103946004546104dd565b90813b156113c4578291611d3391604051948580948193637818cdd760e01b83526084356004840161316a565b03925af1801561046757611d5e575b50611d546044356024356004356124b3565b610db36001600d55565b806113b8611d6b92611177565b38611d42565b611d89915060203d81116104605761045181836111e0565b38611cca565b506005546001600160a01b03163314611c89565b3461028d57600080600319360112610f0957611dbd6122a3565b611dca61039482546104dd565b60408051808093634bf9c0ad60e11b8252602094859160049485915afa801561046757611dfe918691612219575b50613103565b8083611e0d61039487546104dd565b84516369e8d84b60e11b815292839182905afa801561046757611e369186916122195750613103565b8083611e4561039487546104dd565b845163ab6e844f60e01b815292839182905afa801561046757611e6e9186916122195750613103565b611e7b61039485546104dd565b82518481848163cfbffe5360e01b958682525afa801561046757611ea59187916122365750613103565b8184611eb461039488546104dd565b8551630536340960e21b815292839182905afa801561046757611edd9187916122365750613103565b8184611eec61039488546104dd565b855163d1f956b160e01b815292839182905afa801561046757611f159187916122365750613103565b8184611f2461039488546104dd565b8551631cc3bfab60e31b815292839182905afa801561046757611f4d9187916122365750613103565b8184611f5c61039488546104dd565b855163e09d394d60e01b815292839182905afa801561046757611f859187916122365750613103565b8184611f9461039488546104dd565b85516314ac1b5960e21b815292839182905afa801561046757611fbd9187916122365750613103565b611fca61039486546104dd565b848451809263013cf08b60e01b82528180611fec888201906000602083019252565b03915afa8015610467576120069187916122365750613103565b61201361039486546104dd565b83518581635bb8e44b60e11b938482528180612036898201906000602083019252565b03915afa80156104675761205091889161224d5750613103565b61205d61039487546104dd565b85855180928482528180612078898201906001602083019252565b03915afa80156104675761209291889161224d5750613103565b61209f61039487546104dd565b858551809284825281806120ba898201906002602083019252565b03915afa8015610467576120d491889161224d5750613103565b6120e161039487546104dd565b858551809284825281806120fc898201906003602083019252565b03915afa80156104675761211691889161224d5750613103565b8461212461039488546104dd565b9185519283918252818061213f888201906004602083019252565b03915afa8015610467576121599187916122365750613103565b818461216861039488546104dd565b8551635e09dbe760e01b815292839182905afa8015610467576121919187916122365750613103565b81846121a061039488546104dd565b8551635506ee0b60e11b815294859182905afa9283156104675785936121cc9188916122195750613103565b6121d961039487546104dd565b93518094819382525afa90811561046757611d549284926121fc575b5050613138565b6122129250803d106104605761045181836111e0565b38806121f5565b6122309150853d87116104605761045181836111e0565b38611df8565b6122309150863d88116104605761045181836111e0565b6122309150873d89116104605761045181836111e0565b3461028d57600036600319011261028d5760206115306134dd565b9081602091031261028d5751612294816104e9565b90565b6040513d6000823e3d90fd5b6002600d54146122b4576002600d55565b604051633ee5aeb560e01b8152600490fd5b6040519061016082016001600160401b0381118382101761118a57604052816101406000918281528260208201528260408201528260608201528260808201528260a08201528260c08201528260e082015282610100820152826101208201520152565b601154600160401b81101561118a57600181018060115581101561073d57601160005260206000209060011b0190600090565b80546001600160a01b0319166001600160a01b03909216919091179055565b634e487b7160e01b600052601160045260246000fd5b600019810191908211610f7e57565b91908203918211610f7e57565b6001600160a01b039081166000908152600f6020526040902054801515806123f7575b6123dc575050600090565b6000198101908111610f7e576123f19061071e565b50541690565b506011548111156123d1565b601254600160401b81101561118a57600181018060125581101561073d5760126000526000805160206137d08339815191520180546001600160a01b0319166001600160a01b03909216919091179055565b9081602091031261028d575190565b9060018201809211610f7e57565b91908201809211610f7e57565b6000198114610f7e5760010190565b919082604091031261028d57602082516124a7816104e9565b920151612294816104e9565b90811580156126fb575b6126e9576004906124d761039461039461039485546104dd565b6040918251948592630c3d4e4160e31b8452838660209586935afa958615610467576000966126ca575b5085156126c15785601354116126b2575b6125276125226013549283612472565b612392565b968688116126a8575b6125419061253c6134dd565b6123a1565b905b878111156125775750505050505081101560001461256657506116c96001601355565b6125726116c991612464565b601355565b61258a61039461039461039489546104dd565b9085805180936315dd729760e11b825281806125ad868d83019190602083019252565b03915afa918215610467576000908193612676575b506001600160a01b0392869082851615612669578989518096819363725b6fff60e01b8352165afa80156104675761260a9360009161263c575b50841161260f575b5061247f565b612543565b8651639c75dd3560e01b8782015260248101869052612635916106548260448101610646565b5038612604565b61265c9150873d8911612662575b61265481836111e0565b810190612455565b386125fc565b503d61264a565b50505061260a915061247f565b9050612699919250863d88116126a1575b61269181836111e0565b81019061248e565b9190386125c2565b503d612687565b9596508695612530565b6126bc6001601355565b612512565b50505050505050565b6126e2919650833d85116126625761265481836111e0565b9438612501565b6040516337d5a83360e11b8152600490fd5b50606482116124bd565b6001600160401b03811161118a57601f01601f191660200190565b6040519061272d8261118f565b60178252766765744e6f64654279496e6465782875696e743235362960481b6020830152565b604051906127608261118f565b6013825272496e7374546f5573657228616464726573732960681b6020830152565b6040519061278f8261118f565b601082526f6765744e6f646528616464726573732960801b6020830152565b5190811515820361028d57565b908160a091031261028d5780519160208201516127d7816104e9565b9160408101519161229460806127ef606085016127ae565b93016127ae565b604051906128038261118f565b601682527567657455736572546f53746f7228616464726573732960501b6020830152565b9060e08282031261028d5780601f8301121561028d576040519161284b836111aa565b829060e0810192831161028d57905b8282106128675750505090565b815181526020918201910161285a565b919082604091031261028d5760208251920151612294816104e9565b60648111612e34576128a76103793061345c565b61046c5760006128ba61039482546104dd565b90604080518094819463111ea8c160e21b8352602095869160049485915afa958615610467578496612e15575b508251630c3d4e4160e31b80825290956001600160a01b0392909190828886818c88165afa978815610467578798612df6575b508715612deb578261293561039461039461039489546104dd565b928688518095819382525afa918215610467578792612dcc575b5081881115612dbc576129629082612472565b96808811612db4575b505b86811061297e575050505050505050565b8451906129b882612996838683019190602083019252565b03926129aa601f19948581018352826111e0565b6129b2612720565b8b6136d2565b84811615612da4578031926129f288516129e4816129d8868a8301610f0c565b038481018352826111e0565b6129ec612753565b8d6136d2565b9186831615612d9457612a0c610379600a61096186611475565b612d845790612a55612a47612a2d8e612a398b968e519384918d8301610f0c565b038681018452836111e0565b612a41612782565b9061354a565b8780825183010191016127bb565b50505092909216918015612d7457908c8a60018a94148015612d6b575b612d2b575b5050612ab690612a8a846105e78761145b565b612aa98b519182612a9d888c8301610f0c565b039081018352826111e0565b612ab16127f6565b61368f565b16918215612d1b57612aea888a5180956294b20960e51b8252818060e0958695820190600060206040840193600481520152565b03915afa8015610467578b946060928692612cee575b50508a8101516008612b1185611475565b015501516009612b2083611475565b0155612b2c8180612e46565b612b3f6103946103946103948b546104dd565b9089816006938585612b5084611475565b0154978d612b8e86519a8b9687958694634def982d60e11b8652850160409194939294606082019560018060a01b0380921683521660208201520152565b03925af1908115610467578794612baa92612cc2575b50611475565b0154151580612cb7575b612bd7575b50506109d1612bcd612bd293601454612472565b601455565b61296d565b90612c0891612bef6103946103946103948b546104dd565b895180809581946376fe6c4560e01b83528c8301610f0c565b03915afa80156104675785918991612c9a575b50168015612c8a57803b15612c86578787518092630711e58760e41b8252818381612c4d8c8201906001602083019252565b03925af1801561046757612bd2936109d192612bcd92612c73575b509350849150612bb9565b806113b8612c8092611177565b38612c68565b8780fd5b865163216ef5cb60e11b81528690fd5b612cb19150853d87116104605761045181836111e0565b38612c1b565b508581161515612bb4565b612ce1908c8d3d10612ce7575b612cd981836111e0565b810190612877565b50612ba4565b503d612ccf565b612d0d9250803d10612d14575b612d0581836111e0565b810190612828565b3880612b00565b503d612cfb565b885163216ef5cb60e11b81528890fd5b612d6191612d53612ab69496612d4793519384918d8301610f0c565b038781018452836111e0565b612d5b612753565b906136d2565b9290508c8a612a77565b50841515612a72565b895163486bd76360e11b81528990fd5b885163baf3f0f760e01b81528890fd5b885163486bd76360e11b81528890fd5b865163e7ef22d560e01b81528690fd5b96503861296b565b855163017c784560e61b81528590fd5b612de4919250833d85116126625761265481836111e0565b903861294f565b505050505050505050565b612e0e919850833d85116126625761265481836111e0565b963861291a565b612e2d919650853d87116104605761045181836111e0565b94386128e7565b60405163bf2a1c8760e01b8152600490fd5b60115490600160401b82101561118a5760018391612e77612e6f8584612e7d970160115561071e565b50918261235d565b0161235d565b6011546001600160a01b039091166000908152600f6020526040902055565b919081101561073d5760051b0190565b35612294816104e9565b60405190612ec38261118f565b601382527255736572546f496e737428616464726573732960681b6020830152565b600a612f586101406116c994805185556020810151600186015560408101516002860155606081015160038601556080810151600486015560a0810151600586015560c0810151600686015560e08101516007860155610100810151600886015561012081015160098601550151151590565b91019060ff801983541691151516179055565b9590939495929192612f9b604051612f8a8161091e8960208301610f0c565b6001600160a01b0392612d5b612eb6565b161561047e57612fb2610379600a61096187611475565b61309c575b80612ff657509282916005946007612fd1612ff296611475565b01556006612fde84611475565b01556004612feb83611475565b0155611475565b0155565b6001810361304457509161304093610a3c926005946130196007610a3c86611475565b90556130296006610a3c85611475565b90556130396004610a3c84611475565b9055611475565b9055565b91929091600214613057575b5050505050565b61309093600593610ac4936130706007610ac486611475565b90556130806006610ac485611475565b90556130396004610ac484611475565b90553880808080613050565b6130b86130a76122c6565b6001610140820152610b0b86611475565b612fb7565b156130c457565b60405162461bcd60e51b81526020600482015260176024820152761d5d1a5b1a5d1e4b9d5b9cd958dd5c994b99985a5b1959604a1b6044820152606490fd5b6001600160a01b0381166131145750565b6040516319ca2cd360e11b602082015260048152613135916106548261118f565b50565b6001600160a01b0381166131495750565b6040516361e1b05d60e11b602082015260048152613135916106548261118f565b908152610100810192919060209060009082015b6007821061318c5750505050565b8280600192865181520194019101909261317e565b6001600160a01b039091169052565b6133b46101406116c9926131e96131c782516104dd565b600280546001600160a01b0319166001600160a01b0392909216919091179055565b61321b6131f960208301516104dd565b600380546001600160a01b0319166001600160a01b0392909216919091179055565b61324d61322b60408301516104dd565b600480546001600160a01b0319166001600160a01b0392909216919091179055565b61327f61325d60608301516104dd565b600580546001600160a01b0319166001600160a01b0392909216919091179055565b6132b161328f60808301516104dd565b600680546001600160a01b0319166001600160a01b0392909216919091179055565b6132e36132c160a08301516104dd565b600780546001600160a01b0319166001600160a01b0392909216919091179055565b6133156132f360c08301516104dd565b600880546001600160a01b0319166001600160a01b0392909216919091179055565b61334761332560e08301516104dd565b600980546001600160a01b0319166001600160a01b0392909216919091179055565b61337a6133586101008301516104dd565b600a80546001600160a01b0319166001600160a01b0392909216919091179055565b6133ad61338b6101208301516104dd565b600b80546001600160a01b0319166001600160a01b0392909216919091179055565b01516104dd565b600c80546001600160a01b0319166001600160a01b0392909216919091179055565b9081602091031261028d57612294906127ae565b600254604051613432916001600160a01b0316906134078161118f565b6008815267697353616665282960c01b602082015260405191613429836111c5565b60008352613621565b9080613451575b1561083a5780602080612294935183010191016133d6565b506020815114613439565b6134b660018060a01b0380600254166040519160209416848301528382526134838261118f565b604051906134908261118f565b601582527469735365637572654261736528616464726573732960581b85830152613621565b90806134d3575b1561083a578161229492825183010191016133d6565b50818151146134bd565b600354604051612294916001600160a01b0316906134fa8161118f565b600681526569416765282960d01b602082015260405191611527836111c5565b3d15613545573d9061352b82612705565b9161353960405193846111e0565b82523d6000602084013e565b606090565b906135559291613621565b9060009015613562575090565b6040519150613570826111c5565b815290565b9073a4cb3f45f46b3c31780d70568b0627b3339eb76d91823b15613608578051906020918263ffffffff60e01b92012016916040519180830193845281519160005b8381106135f45750505091816135e4602482600097959688970187838201520360048101845201826111e0565b51915afa6135f061351a565b9091565b8181018301518582016024015282016135b7565b50505060009060405161361a816111c5565b6000815290565b9190823b15613608578051906020918263ffffffff60e01b92012016916040519180830193845281519160005b83811061367b5750505091816135e4602482600097959688970187838201520360048101845201826111e0565b81810183015185820160240152820161364e565b6000929161369c91613575565b90806136c7575b6136aa5750565b90915060208180518101031261028d57602001516104dd816104e9565b5060208151146136a3565b929161369c91600094613621565b92916136ee91600094613621565b9080613711575b6136fc5750565b61229491925060208082518301019101612455565b5060208151146136f5565b906020825192015163ffffffff60e01b90818116936004811061373e57505050565b60040360031b82901b16169150565b6001600160a01b0381161561195957600080918351908260208601915af19061377461351a565b911561377e575090565b8051600091906004116137c957613795915061371c565b8151156137a55750805190602001fd5b604051630870274d60e21b81526001600160e01b0319919091166004820152602490fd5b5061379556febb8a6a4669ba250d26cd7a459eca9d215f8307e33aebe50379bc5a3617ec3444a26469706673582212204379b34261658d24203d3f44da7f30be9e940dd87837b5a9f7c867f6aafc76dd64736f6c63430008140033","linkReferences":{}},"methodIdentifiers":{"Burn(uint256)":"b90306ad","UserToForm(address)":"c1e6cec2","Withdraw()":"57ea89b6","_delegatorCount()":"a1f7f539","_getImplementation(address)":"c54e44b0","_isDelegatorNode(address)":"e01ad5fd","_isSafe()":"e0a9bc2b","_isSecureBase(address)":"af484526","_isSigner(address)":"1f185d16","actualTVL()":"8d6edc14","closeTransferTarget(address)":"4ef260a9","currentRefreshId()":"55ed5fee","forms(uint256)":"18c864e3","getBalance()":"12065fe0","getForm(uint256)":"479fa2c3","getFormsCount()":"cab3cc8d","getHexbase()":"3b9b7955","getImportedNodeByIndex(uint256)":"b8f1759a","getUserOldData(address)":"b3cea918","getimportedNodeCount()":"e846034a","importRankBusiness(uint256,uint256)":"e981bcad","importedNode(uint256)":"ab7e46ae","owner()":"8da5cb5b","refreshusers(uint256,uint256,uint256)":"c9a29150","resolveParent(address)":"96970c96","resolveTransferTarget(address)":"ac233345","setBase(address)":"be17fe62","setsysdata(uint256,uint256,uint256[7])":"85301b86","setsysdatawithrefresh(uint256,uint256,uint256,uint256,uint256,uint256[7])":"ed6c1b58","submitTransferForm(address,address)":"1480a85b","syncBaseAddr()":"339459a6","syncSystem()":"f245fe7a","syncusers(uint256)":"add43bca","systemAge()":"fdc10bc9","updateData1(address[],uint256[],uint256[],uint256[],uint256[],uint256)":"083d6938","updateData2(address[],uint256[],uint256[],uint256[],uint256[],uint256)":"23b0586f"},"id":24}