{"abi":[{"type":"constructor","inputs":[{"name":"_hex","type":"address","internalType":"address"}],"stateMutability":"nonpayable"},{"type":"fallback","stateMutability":"payable"},{"type":"receive","stateMutability":"payable"},{"type":"function","name":"Burn","inputs":[{"name":"amount","type":"uint256","internalType":"uint256"}],"outputs":[],"stateMutability":"nonpayable"},{"type":"function","name":"UserToForm","inputs":[{"name":"","type":"address","internalType":"address"}],"outputs":[{"name":"","type":"uint256","internalType":"uint256"}],"stateMutability":"view"},{"type":"function","name":"_delegatorCount","inputs":[],"outputs":[{"name":"","type":"uint256","internalType":"uint256"}],"stateMutability":"view"},{"type":"function","name":"_getImplementation","inputs":[{"name":"clone","type":"address","internalType":"address"}],"outputs":[{"name":"impl","type":"address","internalType":"address"}],"stateMutability":"view"},{"type":"function","name":"_isDelegatorNode","inputs":[{"name":"sender","type":"address","internalType":"address"}],"outputs":[{"name":"","type":"bool","internalType":"bool"}],"stateMutability":"view"},{"type":"function","name":"_isSafe","inputs":[],"outputs":[{"name":"","type":"bool","internalType":"bool"}],"stateMutability":"view"},{"type":"function","name":"_isSecureBase","inputs":[{"name":"sender","type":"address","internalType":"address"}],"outputs":[{"name":"","type":"bool","internalType":"bool"}],"stateMutability":"view"},{"type":"function","name":"_isSigner","inputs":[{"name":"sender","type":"address","internalType":"address"}],"outputs":[{"name":"","type":"bool","internalType":"bool"}],"stateMutability":"view"},{"type":"function","name":"closeTransferTarget","inputs":[{"name":"to","type":"address","internalType":"address"}],"outputs":[],"stateMutability":"nonpayable"},{"type":"function","name":"forms","inputs":[{"name":"","type":"uint256","internalType":"uint256"}],"outputs":[{"name":"from","type":"address","internalType":"address"},{"name":"to","type":"address","internalType":"address"},{"name":"proposalId","type":"uint256","internalType":"uint256"},{"name":"autoclosed","type":"bool","internalType":"bool"}],"stateMutability":"view"},{"type":"function","name":"getBalance","inputs":[],"outputs":[{"name":"","type":"uint256","internalType":"uint256"}],"stateMutability":"view"},{"type":"function","name":"getForm","inputs":[{"name":"formId","type":"uint256","internalType":"uint256"}],"outputs":[{"name":"from","type":"address","internalType":"address"},{"name":"to","type":"address","internalType":"address"},{"name":"proposalId","type":"uint256","internalType":"uint256"},{"name":"autoclosed","type":"bool","internalType":"bool"}],"stateMutability":"view"},{"type":"function","name":"getFormsCount","inputs":[],"outputs":[{"name":"","type":"uint256","internalType":"uint256"}],"stateMutability":"view"},{"type":"function","name":"getHexbase","inputs":[],"outputs":[{"name":"","type":"address","internalType":"address"}],"stateMutability":"view"},{"type":"function","name":"getImportedNodeByIndex","inputs":[{"name":"index","type":"uint256","internalType":"uint256"}],"outputs":[{"name":"node","type":"address","internalType":"address"}],"stateMutability":"view"},{"type":"function","name":"getimportedNodeCount","inputs":[],"outputs":[{"name":"nodesCount","type":"uint256","internalType":"uint256"}],"stateMutability":"view"},{"type":"function","name":"importRankBusiness","inputs":[{"name":"_fromAge","type":"uint256","internalType":"uint256"},{"name":"_toAge","type":"uint256","internalType":"uint256"}],"outputs":[],"stateMutability":"nonpayable"},{"type":"function","name":"importedNode","inputs":[{"name":"","type":"uint256","internalType":"uint256"}],"outputs":[{"name":"","type":"address","internalType":"address"}],"stateMutability":"view"},{"type":"function","name":"importuser","inputs":[{"name":"batchSize","type":"uint256","internalType":"uint256"}],"outputs":[],"stateMutability":"nonpayable"},{"type":"function","name":"owner","inputs":[],"outputs":[{"name":"","type":"address","internalType":"address"}],"stateMutability":"view"},{"type":"function","name":"resolveTransferTarget","inputs":[{"name":"to","type":"address","internalType":"address"}],"outputs":[{"name":"","type":"address","internalType":"address"}],"stateMutability":"view"},{"type":"function","name":"submitTransferForm","inputs":[{"name":"_from","type":"address","internalType":"address"},{"name":"_to","type":"address","internalType":"address"},{"name":"_deadline","type":"uint256","internalType":"uint256"}],"outputs":[],"stateMutability":"nonpayable"},{"type":"function","name":"systemAge","inputs":[],"outputs":[{"name":"","type":"uint256","internalType":"uint256"}],"stateMutability":"view"},{"type":"function","name":"testTxnSys","inputs":[{"name":"paramAdd","type":"address","internalType":"address"},{"name":"_id_maxint","type":"uint256","internalType":"uint256"},{"name":"_qty","type":"uint256","internalType":"uint256"},{"name":"_amt","type":"uint256","internalType":"uint256"}],"outputs":[],"stateMutability":"payable"},{"type":"event","name":"EthBurned","inputs":[{"name":"sender","type":"address","indexed":true,"internalType":"address"},{"name":"amount","type":"uint256","indexed":false,"internalType":"uint256"}],"anonymous":false},{"type":"event","name":"EthTransferred","inputs":[{"name":"to","type":"address","indexed":true,"internalType":"address"},{"name":"amount","type":"uint256","indexed":false,"internalType":"uint256"}],"anonymous":false},{"type":"event","name":"HexBaseUpdated","inputs":[{"name":"previousHexBase","type":"address","indexed":true,"internalType":"address"},{"name":"newHexBase","type":"address","indexed":true,"internalType":"address"}],"anonymous":false},{"type":"event","name":"OwnerUpdated","inputs":[{"name":"previousOwner","type":"address","indexed":true,"internalType":"address"},{"name":"newOwner","type":"address","indexed":true,"internalType":"address"}],"anonymous":false},{"type":"error","name":"CallFailed","inputs":[]},{"type":"error","name":"InvalidAddress","inputs":[]},{"type":"error","name":"InvalidState","inputs":[]},{"type":"error","name":"NotAuthorized","inputs":[]},{"type":"error","name":"NotSafe","inputs":[]},{"type":"error","name":"ReentrancyGuardReentrantCall","inputs":[]},{"type":"error","name":"TargetCallFailed","inputs":[{"name":"selector","type":"bytes4","internalType":"bytes4"}]}],"bytecode":{"object":"0x60803461009757601f61228138819003918201601f19168301916001600160401b0383118484101761009c5780849260209460405283398101031261009757516001600160a01b038116908190036100975780156100855760018060a01b031933816001541617600155600054161760005560016002556040516121ce90816100b38239f35b60405163e6c4247b60e01b8152600490fd5b600080fd5b634e487b7160e01b600052604160045260246000fdfe60806040526004361015610018575b361561001657005b005b60003560e01c806312065fe01461019857806318c864e3146101935780631f185d161461018e5780633676bd1f146101895780633b9b795514610184578063479fa2c31461017f5780634ef260a91461017a5780638da5cb5b146101755780639932f81e146101705780639fb3953b1461016b578063a1f7f53914610166578063ab7e46ae14610161578063ac2333451461015c578063af48452614610157578063b8f1759a14610152578063b90306ad1461014d578063c1e6cec214610148578063c54e44b014610143578063cab3cc8d1461013e578063e01ad5fd14610139578063e0a9bc2b14610134578063e846034a1461012f578063e981bcad1461012a5763fdc10bc90361000e57610f9b565b610ec0565b610ea2565b610e1d565b610d83565b610d65565b610cdf565b610ca1565b610bf0565b610b96565b610b65565b610b2d565b610ad3565b6109de565b61081c565b6105fd565b6105d6565b610514565b61042b565b610404565b6103d9565b61028f565b61020e565b346101b45760003660031901126101b457602047604051908152f35b600080fd5b634e487b7160e01b600052603260045260246000fd5b60045481101561020957600460005260021b7f8a35acfbc15ff81a39ae7d344fd709f28e8600b4aa8c65c6b64bfe7fe36bd19b0190600090565b6101b9565b346101b45760203660031901126101b4576004356004548110156101b457610235906101cf565b50805460018201546002830154600390930154604080516001600160a01b0394851681529390921660208401529082019290925260ff90911615156060820152608090f35b0390f35b6001600160a01b038116036101b457565b346101b4576020806003193601126101b4576004356102ad8161027e565b6004826102d16102c56000546001600160a01b031690565b6001600160a01b031690565b60405192838092634bf9c0ad60e11b82525afa80156103d4576103399261031d926000926103a1575b5061032b906040519384918783019190916001600160a01b036020820193169052565b03601f1981018452836110e4565b610333611d3e565b90611f3f565b919080610397575b1561036d57818161035b9261027a94518301019101611c37565b60405190151581529081906020820190565b60046040517f3204506f000000000000000000000000000000000000000000000000000000008152fd5b5080825114610341565b61032b9192506103c690863d88116103cd575b6103be81836110e4565b81019061114d565b91906102fa565b503d6103b4565b611165565b346101b45760203660031901126101b4576103f2611ae4565b6103fd6004356116b3565b6001600255005b346101b45760003660031901126101b45760206001600160a01b0360005416604051908152f35b346101b45760203660031901126101b45760043580151580610508575b156104c45761045961045e91611266565b6101cf565b5080546001600160a01b031661027a61048160018401546001600160a01b031690565b926104956003600283015492015460ff1690565b604080516001600160a01b03958616815295909416602086015292840152901515606083015281906080820190565b606460405162461bcd60e51b815260206004820152601760248201527f70726f706f7365722e696e76616c69642e666f726d69640000000000000000006044820152fd5b50600454811115610448565b346101b45760203660031901126101b4576004356105318161027e565b6001600160a01b038091169060009180835260036020526040832054801515806105ca575b61055e578380f35b60001981019081116105c557610573906101cf565b50508083526003602052826040812055600554680100000000000000008110156105c0578060016105a79201600555610a9c565b909283549160031b92831b921b19161790553880808380f35b611043565b611250565b50600454811115610556565b346101b45760003660031901126101b45760206001600160a01b0360015416604051908152f35b346101b45760603660031901126101b45760043561061a8161027e565b6024356106268161027e565b6001600160a01b0391828116156107f2576000928216835260206003815260408420546107ae5760049061068661065b611059565b509384906001600160a01b031673ffffffffffffffffffffffffffffffffffffffff19825416179055565b6106b7600184019485906001600160a01b031673ffffffffffffffffffffffffffffffffffffffff19825416179055565b6106bf611135565b90806106d56102c588546001600160a01b031690565b60405194858092630536340960e21b82525afa9182156103d45761031d61075493610747926002968a9261078b575b50610742906040519384917fffa734f00000000000000000000000000000000000000000000000000000000088840152604435903060248501611194565b6120e5565b8051810182019101611241565b91015561078761076e60045492546001600160a01b031690565b6001600160a01b03166000526003602052604060002090565b5580f35b6107429192506107a790863d88116103cd576103be81836110e4565b9190610704565b6064906040519062461bcd60e51b82526004820152601260248201527f70726f706f7365722e746f2e65786973747300000000000000000000000000006044820152fd5b60046040517fe6c4247b000000000000000000000000000000000000000000000000000000008152fd5b60803660031901126101b4576004356108348161027e565b61083c611ae4565b6108516102c56000546001600160a01b031690565b6040519163ab6e844f60e01b83526020918284600481845afa9384156103d4576000946109ba575b5082600491604051928380927fde433f170000000000000000000000000000000000000000000000000000000082525afa9081156103d457610902916108e09160009161099d575b506040519182918683019190916001600160a01b036020820193169052565b03946108f4601f19968781018452836110e4565b6108fc611bc5565b90611fd2565b906001600160a01b03821661091c575b6100166001600255565b610993937fc107930a00000000000000000000000000000000000000000000000000000000936109876107429360405196879384015260643590604435906024359060248601909493926060926001600160a01b036080840197168352602083015260408201520152565b039081018452836110e4565b5038808080610912565b6109b49150853d87116103cd576103be81836110e4565b386108c1565b60049194506109d68491823d84116103cd576103be81836110e4565b949150610879565b346101b45760003660031901126101b457600460206001600160a01b03600054166040519283809263d1f956b160e01b82525afa9081156103d45761027a91610a6e91600091610a7e575b50604051610a36816110ac565b601381527f67657464656c656761746f72436f756e742829000000000000000000000000006020820152610a68611122565b9161205f565b6040519081529081906020820190565b610a96915060203d81116103cd576103be81836110e4565b38610a29565b6005548110156102095760056000527f036b6384b5eca791c62761152d0c79bb0604c104a5fb6f4eb0703f3154bb3db00190600090565b346101b45760203660031901126101b4576004356005548110156101b4576001600160a01b0360209160056000527f036b6384b5eca791c62761152d0c79bb0604c104a5fb6f4eb0703f3154bb3db0015416604051908152f35b346101b45760203660031901126101b4576020610b54600435610b4f8161027e565b6112dc565b6001600160a01b0360405191168152f35b346101b45760203660031901126101b4576020610b8c600435610b878161027e565b611c84565b6040519015158152f35b346101b45760203660031901126101b457600435600554811015610209576001600160a01b0360209160056000527f036b6384b5eca791c62761152d0c79bb0604c104a5fb6f4eb0703f3154bb3db0015416604051908152f35b346101b45760203660031901126101b45760046001600160a01b036020610c2182600054166001600160a01b031690565b60405193848092630536340960e21b82525afa9182156103d457600092610c81575b5033911603610c5757610016600435611de0565b60046040517fea8e4eb5000000000000000000000000000000000000000000000000000000008152fd5b610c9a91925060203d81116103cd576103be81836110e4565b9038610c43565b346101b45760203660031901126101b4576001600160a01b03600435610cc68161027e565b1660005260036020526020604060002054604051908152f35b346101b45760203660031901126101b457600435610cfc8161027e565b803b6000610d0982611106565b92610d1760405194856110e4565b82845260208401903c602d815110610d3b57602a602091015160601c604051908152f35b60046040517fbaf3f0f7000000000000000000000000000000000000000000000000000000008152fd5b346101b45760003660031901126101b4576020600454604051908152f35b346101b4576020806003193601126101b45760048035610da28161027e565b6001600160a01b03928084600054166040519485809263d1f956b160e01b82525afa9081156103d45761027a9461035b94600093610dfe575b506040519316818401528252610df0826110ac565b610df8611d77565b90612023565b610e16919350823d84116103cd576103be81836110e4565b9138610ddb565b346101b45760003660031901126101b457610e436102c56000546001600160a01b031690565b6040518091634bf9c0ad60e11b825281600460209485935afa80156103d45761033991600091610e85575b50610e77611bfe565b610e7f611122565b91611f3f565b610e9c9150833d85116103cd576103be81836110e4565b38610e6e565b346101b45760003660031901126101b4576020600554604051908152f35b346101b45760403660031901126101b457610ed9611ae4565b610eea610ee530611c84565b611453565b60046020610f036102c56000546001600160a01b031690565b6040519283809263ab6e844f60e01b82525afa80156103d457610f7291600091610f7d575b506040517f33b59a5b00000000000000000000000000000000000000000000000000000000602082015260043560248083019190915235604482015290610742826064810161031d565b506100166001600255565b610f95915060203d81116103cd576103be81836110e4565b38610f28565b346101b45760003660031901126101b457600460206001600160a01b03600054166040519283809263111ea8c160e21b82525afa9081156103d45761027a91610a6e91600091611025575b50604051610ff3816110ac565b600581527f61676528290000000000000000000000000000000000000000000000000000006020820152610a68611122565b61103d915060203d81116103cd576103be81836110e4565b38610fe6565b634e487b7160e01b600052604160045260246000fd5b600454680100000000000000008110156105c057600181018060045581101561020957600460005260021b7f8a35acfbc15ff81a39ae7d344fd709f28e8600b4aa8c65c6b64bfe7fe36bd19b0190600090565b6040810190811067ffffffffffffffff8211176105c057604052565b6020810190811067ffffffffffffffff8211176105c057604052565b90601f8019910116810190811067ffffffffffffffff8211176105c057604052565b67ffffffffffffffff81116105c057601f01601f191660200190565b6040519061112f826110c8565b60008252565b604051611141816110c8565b60008152906000368137565b908160209103126101b457516111628161027e565b90565b6040513d6000823e3d90fd5b60005b8381106111845750506000910152565b8181015183820152602001611174565b6000926001600160a01b0360a09396959660c08452602660c08501527f547269676765722e496e7374616e63652e70726f706f73616c2e55736572547260e08501527f616e7366657200000000000000000000000000000000000000000000000000006101008501521660208301528360408301526101208060608401528151809184015261122d816101409360208587019101611171565b601f80199101168201019460808201520152565b908160209103126101b4575190565b634e487b7160e01b600052601160045260246000fd5b6000198101919082116105c557565b60405190611282826110ac565b601282527f6765745374617475732875696e743235362900000000000000000000000000006020830152565b519081151582036101b457565b91908260409103126101b45761116260206112d5846112ae565b93016112ae565b6112f9906001600160a01b03166000526003602052604060002090565b54801515806113fc575b156113f65761045961131491611266565b50600381015460ff166113e9576113366102c56000546001600160a01b031690565b6040518091630536340960e21b825281600460209384935afa80156103d45761031d6113929161139f946000916113cc575b5061138460028701546040519384918783019190602083019252565b61138c611275565b90611f14565b80518101820191016112bb565b819291926113c4575b50600091156113c057546001600160a01b0316905090565b5090565b9150386113a8565b6113e39150843d86116103cd576103be81836110e4565b38611368565b546001600160a01b031690565b50600090565b50600454811115611303565b1561140f57565b606460405162461bcd60e51b815260206004820152601c60248201527f7574696c6974792e62617463682e6c696d69742e6578636565646564000000006044820152fd5b1561145a57565b606460405162461bcd60e51b815260206004820152601760248201527f7574696c6974792e756e7365637572652e6661696c65640000000000000000006044820152fd5b604051906114ab826110ac565b600f82527f6765744e6f646573436f756e74282900000000000000000000000000000000006020830152565b156114de57565b606460405162461bcd60e51b815260206004820152601360248201527f7574696c6974792e696d706f72742e646f6e65000000000000000000000000006044820152fd5b919082018092116105c557565b60001981146105c55760010190565b6040519061154b826110ac565b601782527f6765744e6f64654279496e6465782875696e74323536290000000000000000006020830152565b1561157e57565b606460405162461bcd60e51b815260206004820152601660248201527f70726f78792e696e76616c69642e696e7374616e6365000000000000000000006044820152fd5b604051906115cf826110ac565b601382527f496e7374546f55736572286164647265737329000000000000000000000000006020830152565b1561160257565b606460405162461bcd60e51b815260206004820152601260248201527f70726f78792e696e76616c69642e6e6f646500000000000000000000000000006044820152fd5b60405190611653826110ac565b601082527f6765744e6f6465286164647265737329000000000000000000000000000000006020830152565b908160a09103126101b457805191602082015161169b8161027e565b9160408101519161116260806112d5606085016112ae565b6116c06064821115611408565b6116cc610ee530611c84565b6000906116e36102c583546001600160a01b031690565b9160409081519163111ea8c160e21b9485845260209060049482818781855afa80156103d45761172c918691611acd575b5061171d611135565b9061172661149e565b9061205f565b958615611ac35783518381888163ab6e844f60e01b968782525afa9081156103d45761177791611765918891611aa6575061171d611135565b91611771838a116114d7565b82611522565b96808811611a9e575b505b868110611793575050505050505050565b6117a76102c586546001600160a01b031690565b9084519189835284838981845afa9283156103d4578793611a7f575b506117f78651806117db858983019190602083019252565b03946117ef601f19968781018452836110e4565b6108fc61153e565b906001600160a01b0361180d8184161515611577565b87518c815287818c81865afa80156103d457611862918b91611a62575b5089519061185a8261184e888d83019190916001600160a01b036020820193169052565b038981018452836110e4565b6108fc6115c2565b9161187082841615156115fb565b8851938d855288858d81855afa9485156103d4576118cd6001928c8f988f6118db958f9192611a3d575b5091516001600160a01b03909316918301918252906118c59083906020015b038c81018452836110e4565b61138c611646565b8a808251830101910161167f565b50505093909316926118ee8115156115fb565b148015611a34575b6119b7575b506119068280611b1d565b8661191b6102c58b546001600160a01b031690565b8951948580928a82525afa80156103d4576119919561198b948b92611996575b5089517f50db85d1000000000000000000000000000000000000000000000000000000008a8201526001600160a01b03938416602482015293909216604484015290610742908360648101610987565b5061152f565b611782565b61074292506119b1908a3d8c116103cd576103be81836110e4565b9161193b565b928c88918a518096819382525afa9283156103d4578a93611a0b926119ff928c92611a11575b5061185a908b519384918c83019190916001600160a01b036020820193169052565b038881018452836110e4565b386118fb565b61185a919250611a2d908b3d8d116103cd576103be81836110e4565b91906119dd565b508115156118f6565b6118c59250611a5b6118b991833d85116103cd576103be81836110e4565b925061189a565b611a799150893d8b116103cd576103be81836110e4565b3861182a565b611a97919350853d87116103cd576103be81836110e4565b91386117c3565b965038611780565b611abd9150863d88116103cd576103be81836110e4565b38611714565b5050505050505050565b611abd9150843d86116103cd576103be81836110e4565b6002805414611af35760028055565b60046040517f3ee5aeb5000000000000000000000000000000000000000000000000000000008152fd5b60045490680100000000000000008210156105c057611b72611b47836001600395016004556101cf565b509182906001600160a01b031673ffffffffffffffffffffffffffffffffffffffff19825416179055565b60018101805473ffffffffffffffffffffffffffffffffffffffff19166001600160a01b03851617905501600160ff198254161790556001600160a01b0360045491166000526003602052604060002055565b60405190611bd2826110ac565b601682527f67657455736572546f496e7374286164647265737329000000000000000000006020830152565b60405190611c0b826110ac565b600882527f69735361666528290000000000000000000000000000000000000000000000006020830152565b908160209103126101b457611162906112ae565b60405190611c58826110ac565b601582527f69735365637572654261736528616464726573732900000000000000000000006020830152565b611c996102c56000546001600160a01b031690565b906040518092634bf9c0ad60e11b825281600460209586935afa80156103d457611cf49261031d92600092611d1b575b50611cec906040519384918783019190916001600160a01b036020820193169052565b610333611c4b565b9080611d11575b1561036d57816111629282518301019101611c37565b5081815114611cfb565b611cec919250611d3790863d88116103cd576103be81836110e4565b9190611cc9565b60405190611d4b826110ac565b601182527f69735369676e65722861646472657373290000000000000000000000000000006020830152565b60405190611d84826110ac565b601882527f697364656c656761746f724e6f646528616464726573732900000000000000006020830152565b3d15611ddb573d90611dc182611106565b91611dcf60405193846110e4565b82523d6000602084013e565b606090565b6000611df66102c582546001600160a01b031690565b9060405180927f46f991ac00000000000000000000000000000000000000000000000000000000825281600460209586935afa80156103d45782808681949382948391611ef7575b505af1611e49611db0565b501561036d57600482611e666102c584546001600160a01b031690565b604051928380927f5e09dbe70000000000000000000000000000000000000000000000000000000082525afa9081156103d4577fcdcc745fe377b103b45fa0cec23ae3ef93d6fc6a84a01f0d18c40b354dd1d5d8936001600160a01b039392611eda575b50506040519384521691602090a2565b611ef09250803d106103cd576103be81836110e4565b3880611eca565b611f0e9150883d8a116103cd576103be81836110e4565b38611e3e565b90611f1f9291611f3f565b9060009015611f2c575090565b6040519150611f3a826110c8565b815290565b803b15611fb9576000927fffffffff000000000000000000000000000000000000000000000000000000008360208695519101201690611fa96024604051809360208201958652611f998151809260208686019101611171565b81010360048101845201826110e4565b51915afa611fb5611db0565b9091565b505050600090604051611fcb816110c8565b6000815290565b9291611fe091600094611f3f565b9080612018575b611fee5750565b9091506020818051810103126101b45760206001600160a01b039101516120148161027e565b1690565b506020815114611fe7565b929161203191600094611f3f565b9080612054575b61203f5750565b61116291925060208082518301019101611c37565b506020815114612038565b929161206d91600094611f3f565b9080612090575b61207b5750565b61116291925060208082518301019101611241565b506020815114612074565b90602082519201517fffffffff000000000000000000000000000000000000000000000000000000009081811693600481106120d657505050565b60040360031b82901b16169150565b6001600160a01b038116156107f257600080918351908260208601915af19061210c611db0565b9115612116575090565b8051600091906004116121925761212d915061209b565b81511561213d5750805190602001fd5b6040517f21c09d340000000000000000000000000000000000000000000000000000000081527fffffffff00000000000000000000000000000000000000000000000000000000919091166004820152602490fd5b5061212d56fea26469706673582212208c8812aa06ac9f8da36c115ffdb07ccff3d5451cfd7bf472636dbdb602500f8b64736f6c63430008140033","linkReferences":{}},"methodIdentifiers":{"Burn(uint256)":"b90306ad","UserToForm(address)":"c1e6cec2","_delegatorCount()":"a1f7f539","_getImplementation(address)":"c54e44b0","_isDelegatorNode(address)":"e01ad5fd","_isSafe()":"e0a9bc2b","_isSecureBase(address)":"af484526","_isSigner(address)":"1f185d16","closeTransferTarget(address)":"4ef260a9","forms(uint256)":"18c864e3","getBalance()":"12065fe0","getForm(uint256)":"479fa2c3","getFormsCount()":"cab3cc8d","getHexbase()":"3b9b7955","getImportedNodeByIndex(uint256)":"b8f1759a","getimportedNodeCount()":"e846034a","importRankBusiness(uint256,uint256)":"e981bcad","importedNode(uint256)":"ab7e46ae","importuser(uint256)":"3676bd1f","owner()":"8da5cb5b","resolveTransferTarget(address)":"ac233345","submitTransferForm(address,address,uint256)":"9932f81e","systemAge()":"fdc10bc9","testTxnSys(address,uint256,uint256,uint256)":"9fb3953b"},"id":51}