{"abi":[{"type":"constructor","inputs":[{"name":"_hex","type":"address","internalType":"address"}],"stateMutability":"nonpayable"},{"type":"fallback","stateMutability":"payable"},{"type":"receive","stateMutability":"payable"},{"type":"function","name":"Burn","inputs":[{"name":"amount","type":"uint256","internalType":"uint256"}],"outputs":[],"stateMutability":"nonpayable"},{"type":"function","name":"UserToForm","inputs":[{"name":"","type":"address","internalType":"address"}],"outputs":[{"name":"","type":"uint256","internalType":"uint256"}],"stateMutability":"view"},{"type":"function","name":"_delegatorCount","inputs":[],"outputs":[{"name":"","type":"uint256","internalType":"uint256"}],"stateMutability":"view"},{"type":"function","name":"_getImplementation","inputs":[{"name":"clone","type":"address","internalType":"address"}],"outputs":[{"name":"impl","type":"address","internalType":"address"}],"stateMutability":"view"},{"type":"function","name":"_isDelegatorNode","inputs":[{"name":"sender","type":"address","internalType":"address"}],"outputs":[{"name":"","type":"bool","internalType":"bool"}],"stateMutability":"view"},{"type":"function","name":"_isSafe","inputs":[],"outputs":[{"name":"","type":"bool","internalType":"bool"}],"stateMutability":"view"},{"type":"function","name":"_isSecureBase","inputs":[{"name":"sender","type":"address","internalType":"address"}],"outputs":[{"name":"","type":"bool","internalType":"bool"}],"stateMutability":"view"},{"type":"function","name":"_isSigner","inputs":[{"name":"sender","type":"address","internalType":"address"}],"outputs":[{"name":"","type":"bool","internalType":"bool"}],"stateMutability":"view"},{"type":"function","name":"actualTVL","inputs":[],"outputs":[{"name":"","type":"uint256","internalType":"uint256"}],"stateMutability":"view"},{"type":"function","name":"closeTransferTarget","inputs":[{"name":"to","type":"address","internalType":"address"}],"outputs":[],"stateMutability":"nonpayable"},{"type":"function","name":"currentRefreshId","inputs":[],"outputs":[{"name":"","type":"uint256","internalType":"uint256"}],"stateMutability":"view"},{"type":"function","name":"forms","inputs":[{"name":"","type":"uint256","internalType":"uint256"}],"outputs":[{"name":"from","type":"address","internalType":"address"},{"name":"to","type":"address","internalType":"address"}],"stateMutability":"view"},{"type":"function","name":"getBalance","inputs":[],"outputs":[{"name":"","type":"uint256","internalType":"uint256"}],"stateMutability":"view"},{"type":"function","name":"getForm","inputs":[{"name":"formId","type":"uint256","internalType":"uint256"}],"outputs":[{"name":"from","type":"address","internalType":"address"},{"name":"to","type":"address","internalType":"address"}],"stateMutability":"view"},{"type":"function","name":"getFormsCount","inputs":[],"outputs":[{"name":"","type":"uint256","internalType":"uint256"}],"stateMutability":"view"},{"type":"function","name":"getHexbase","inputs":[],"outputs":[{"name":"","type":"address","internalType":"address"}],"stateMutability":"view"},{"type":"function","name":"getImportedNodeByIndex","inputs":[{"name":"index","type":"uint256","internalType":"uint256"}],"outputs":[{"name":"node","type":"address","internalType":"address"}],"stateMutability":"view"},{"type":"function","name":"getimportedNodeCount","inputs":[],"outputs":[{"name":"nodesCount","type":"uint256","internalType":"uint256"}],"stateMutability":"view"},{"type":"function","name":"importRankBusiness","inputs":[{"name":"_fromAge","type":"uint256","internalType":"uint256"},{"name":"_toAge","type":"uint256","internalType":"uint256"}],"outputs":[],"stateMutability":"nonpayable"},{"type":"function","name":"importedNode","inputs":[{"name":"","type":"uint256","internalType":"uint256"}],"outputs":[{"name":"","type":"address","internalType":"address"}],"stateMutability":"view"},{"type":"function","name":"importuser","inputs":[{"name":"batchSize","type":"uint256","internalType":"uint256"}],"outputs":[],"stateMutability":"nonpayable"},{"type":"function","name":"owner","inputs":[],"outputs":[{"name":"","type":"address","internalType":"address"}],"stateMutability":"view"},{"type":"function","name":"refreshusers","inputs":[{"name":"batchSize","type":"uint256","internalType":"uint256"},{"name":"maxintervals","type":"uint256","internalType":"uint256"},{"name":"lastdays","type":"uint256","internalType":"uint256"}],"outputs":[],"stateMutability":"nonpayable"},{"type":"function","name":"resolveParent","inputs":[{"name":"","type":"address","internalType":"address"}],"outputs":[{"name":"","type":"address","internalType":"address"}],"stateMutability":"view"},{"type":"function","name":"resolveTransferTarget","inputs":[{"name":"to","type":"address","internalType":"address"}],"outputs":[{"name":"","type":"address","internalType":"address"}],"stateMutability":"view"},{"type":"function","name":"setsysdata","inputs":[{"name":"price","type":"uint256","internalType":"uint256"},{"name":"prevAge","type":"uint256","internalType":"uint256"},{"name":"cnt","type":"uint256[7]","internalType":"uint256[7]"}],"outputs":[],"stateMutability":"nonpayable"},{"type":"function","name":"setsysdatawithrefresh","inputs":[{"name":"batchSize","type":"uint256","internalType":"uint256"},{"name":"maxintervals","type":"uint256","internalType":"uint256"},{"name":"lastdays","type":"uint256","internalType":"uint256"},{"name":"price","type":"uint256","internalType":"uint256"},{"name":"prevAge","type":"uint256","internalType":"uint256"},{"name":"cnt","type":"uint256[7]","internalType":"uint256[7]"}],"outputs":[],"stateMutability":"nonpayable"},{"type":"function","name":"submitTransferForm","inputs":[{"name":"_from","type":"address","internalType":"address"},{"name":"_to","type":"address","internalType":"address"}],"outputs":[],"stateMutability":"nonpayable"},{"type":"function","name":"syncBaseAddr","inputs":[],"outputs":[],"stateMutability":"nonpayable"},{"type":"function","name":"syncSystem","inputs":[],"outputs":[],"stateMutability":"nonpayable"},{"type":"function","name":"systemAge","inputs":[],"outputs":[{"name":"","type":"uint256","internalType":"uint256"}],"stateMutability":"view"},{"type":"event","name":"EthBurned","inputs":[{"name":"sender","type":"address","indexed":true,"internalType":"address"},{"name":"amount","type":"uint256","indexed":false,"internalType":"uint256"}],"anonymous":false},{"type":"event","name":"EthTransferred","inputs":[{"name":"to","type":"address","indexed":true,"internalType":"address"},{"name":"amount","type":"uint256","indexed":false,"internalType":"uint256"}],"anonymous":false},{"type":"event","name":"HexBaseUpdated","inputs":[{"name":"previousHexBase","type":"address","indexed":true,"internalType":"address"},{"name":"newHexBase","type":"address","indexed":true,"internalType":"address"}],"anonymous":false},{"type":"event","name":"OwnerUpdated","inputs":[{"name":"previousOwner","type":"address","indexed":true,"internalType":"address"},{"name":"newOwner","type":"address","indexed":true,"internalType":"address"}],"anonymous":false},{"type":"error","name":"CallFailed","inputs":[]},{"type":"error","name":"InvalidAddress","inputs":[]},{"type":"error","name":"InvalidState","inputs":[]},{"type":"error","name":"NotAuthorized","inputs":[]},{"type":"error","name":"NotSafe","inputs":[]},{"type":"error","name":"ReentrancyGuardReentrantCall","inputs":[]},{"type":"error","name":"TargetCallFailed","inputs":[{"name":"selector","type":"bytes4","internalType":"bytes4"}]}],"bytecode":{"object":"0x608034620000a357601f620032a038819003918201601f19168301916001600160401b03831184841017620000a857808492602094604052833981010312620000a357516001600160a01b03811690819003620000a3578015620000915760018060a01b0319338160015416176001556000541617600055600160115560016016556040516131e19081620000bf8239f35b60405163e6c4247b60e01b8152600490fd5b600080fd5b634e487b7160e01b600052604160045260246000fdfe60806040526004361015610018575b361561001657005b005b60003560e01c806312065fe0146102085780631480a85b1461020357806318c864e3146101fe5780631f185d16146101f9578063339459a6146101f45780633676bd1f146101ef5780633b9b7955146101ea578063479fa2c3146101e55780634ef260a9146101e057806355ed5fee146101db57806385301b86146101d65780638d6edc14146101d15780638da5cb5b146101cc57806396970c96146101c7578063a1f7f539146101c2578063ab7e46ae146101bd578063ac233345146101b8578063af484526146101b3578063b8f1759a146101ae578063b90306ad146101a9578063c1e6cec2146101a4578063c54e44b01461019f578063c9a291501461019a578063cab3cc8d14610195578063e01ad5fd14610190578063e0a9bc2b1461018b578063e846034a14610186578063e981bcad14610181578063ed6c1b581461017c578063f245fe7a146101775763fdc10bc90361000e57611f02565b611739565b61160b565b611566565b611548565b61152d565b611462565b611444565b6113e4565b61135e565b611320565b611212565b6111b8565b611187565b61114f565b6110f5565b611080565b611040565b611019565b610ffb565b610ebd565b610d4d565b610c94565b610bc6565b610b9f565b610aea565b610569565b610482565b610431565b61023a565b3461022457600036600319011261022457602047604051908152f35b600080fd5b6001600160a01b0381160361022457565b34610224576040806003193601126102245760043561025881610229565b60243561026481610229565b6001600160a01b03808316156103cc57811680156103cc57600052601260205282600020546103895761033b610321610305610356949561031360016102a8611f1d565b5080546001600160a01b0319166001600160a01b038b161781550180546001600160a01b0319166001600160a01b038816178155976004546001600160a01b031692516001600160a01b0390911660208201529283906040820190565b03601f198101845283610df6565b61031b611f8c565b9061300e565b916001600160a01b03166000526013602052604060002090565b906001600160a01b03166001600160a01b0319825416179055565b61038661036d60145492546001600160a01b031690565b6001600160a01b03166000526012602052604060002090565b55005b6064835162461bcd60e51b815260206004820152601260248201527f70726f706f7365722e746f2e65786973747300000000000000000000000000006044820152fd5b6004845163e6c4247b60e01b8152fd5b634e487b7160e01b600052603260045260246000fd5b60145481101561042c57601460005260011b7fce6d7b5282bd9a3661ae061feed1dbda4e52ab073b1f9285be6e155d9c38d4ec0190600090565b6103dc565b346102245760203660031901126102245760043560145481101561022457610458906103f2565b508054600190910154604080516001600160a01b03938416815292909116602083015290f35b0390f35b3461022457602080600319360112610224576105016004356104a381610229565b6001600160a01b038060025416906040519216848301528382526104c682610da2565b604051906104d382610da2565b601182527f69735369676e657228616464726573732900000000000000000000000000000085830152612f60565b91908061055f575b156105355781816105239261047e94518301019101612d90565b60405190151581529081906020820190565b60046040517f3204506f000000000000000000000000000000000000000000000000000000008152fd5b5080825114610509565b346102245760003660031901126102245761059b61058f6000546001600160a01b031690565b6001600160a01b031690565b60405190634bf9c0ad60e11b8252602082600481845afa91821561091a57600092610ac9575b506040519163cfbffe5360e01b8352602083600481855afa92831561091a57600093610aa8575b506040519063ab6e844f60e01b8252602082600481865afa91821561091a57600092610a87575b5060405191630536340960e21b8352602083600481875afa92831561091a57600093610a66575b506040519263d1f956b160e01b8452602084600481885afa93841561091a57600094610a45575b5060405193631cc3bfab60e31b8552602085600481895afa94851561091a57600095610a24575b5060405163e09d394d60e01b81526020816004818a5afa90811561091a57600091610a05575b506040516314ac1b5960e21b81526020816004818b5afa90811561091a576000916109e6575b5060405163013cf08b60e01b815260006004820152916020836024818c5afa92831561091a576000936109c5575b5060405197635e09dbe760e01b89526020896004818d5afa94851561091a576004996000966109a4575b5060208b6040519b8c8092635506ee0b60e11b82525afa96871561091a5760049a600098610983575b5060208c6040519c8d8092636402742760e01b82525afa98891561091a5760049b60009a610962575b5060208d6040519d8e80926330125cf560e01b82525afa9a8b1561091a578d60049d60009d610940575b506020906040519e8f80926324768d9160e01b82525afa9c8d1561091a5760009d61091f575b50604051809e81906313b92d3560e31b82525a92600491602094fa9d8e1561091a5760009e6108e9575b506107fd610e18565b6001600160a01b0390911681529d8e906001600160a01b031660208201526040019061083191906001600160a01b03169052565b6001600160a01b031660608d01526001600160a01b031660808c01526001600160a01b031660a08b01526001600160a01b031660c08a01526001600160a01b031660e08901526001600160a01b03166101008801526001600160a01b03166101208701526001600160a01b03166101408601526001600160a01b03166101608501526001600160a01b03166101808401526001600160a01b03166101a08301526001600160a01b03166101c082015261001690612a8f565b61090c919e5060203d602011610913575b6109048183610df6565b8101906124c0565b9c386107f4565b503d6108fa565b6124d5565b610939919d5060203d602011610913576109048183610df6565b9b386107ca565b6020919d5061095b90823d8411610913576109048183610df6565b9c906107a4565b61097c919a5060203d602011610913576109048183610df6565b983861077a565b61099d91985060203d602011610913576109048183610df6565b9638610751565b6109be91965060203d602011610913576109048183610df6565b9438610728565b6109df91935060203d602011610913576109048183610df6565b91386106fe565b6109ff915060203d602011610913576109048183610df6565b386106d0565b610a1e915060203d602011610913576109048183610df6565b386106aa565b610a3e91955060203d602011610913576109048183610df6565b9338610684565b610a5f91945060203d602011610913576109048183610df6565b923861065d565b610a8091935060203d602011610913576109048183610df6565b9138610636565b610aa191925060203d602011610913576109048183610df6565b903861060f565b610ac291935060203d602011610913576109048183610df6565b91386105e8565b610ae391925060203d602011610913576109048183610df6565b90386105c1565b3461022457602036600319011261022457610b036120b1565b610b0b612da4565b15610b7557610b1933612e29565b8015610b61575b15610b3757610b306004356126b5565b6001601155005b60046040517fea8e4eb5000000000000000000000000000000000000000000000000000000008152fd5b50336001600160a01b036005541614610b20565b60046040517f9dc4246e000000000000000000000000000000000000000000000000000000008152fd5b346102245760003660031901126102245760206001600160a01b0360005416604051908152f35b346102245760203660031901126102245760043580151580610c88575b15610c44576000198101908111610c3f57610bfd906103f2565b50610c236001610c1483546001600160a01b031690565b9201546001600160a01b031690565b604080516001600160a01b039384168152919092166020820152f35b611fc5565b606460405162461bcd60e51b815260206004820152601760248201527f70726f706f7365722e696e76616c69642e666f726d69640000000000000000006044820152fd5b50601454811115610be3565b3461022457602036600319011261022457600435610cb181610229565b6001600160a01b038116600091818352601260205260408320549081151580610d41575b610cdd578380f35b6000198201918211610c3f57610d3a92610cf9610d2a936103f2565b505084526012602052836040812055610d118161204b565b6001600160a01b03166000526013602052604060002090565b6001600160a01b03198154169055565b3880808380f35b50601454821115610cd5565b34610224576000366003190112610224576020601654604051908152f35b634e487b7160e01b600052604160045260246000fd5b60e0810190811067ffffffffffffffff821117610d9d57604052565b610d6b565b6040810190811067ffffffffffffffff821117610d9d57604052565b6020810190811067ffffffffffffffff821117610d9d57604052565b6080810190811067ffffffffffffffff821117610d9d57604052565b90601f8019910116810190811067ffffffffffffffff821117610d9d57604052565b604051906101e0820182811067ffffffffffffffff821117610d9d57604052565b80606312156102245760405190610e4f82610d81565b81610124918211610224576044905b828210610e6b5750505090565b8135815260209182019101610e5e565b8060c312156102245760405190610e9182610d81565b816101849182116102245760a4905b828210610ead5750505090565b8135815260209182019101610ea0565b346102245761012036600319011261022457610ed836610e39565b610ee06120b1565b610ee8612da4565b15610b7557610ef633612e29565b8015610fe7575b15610b37576004906020610f1c61058f6000546001600160a01b031690565b604051938480926369e8d84b60e11b82525afa90811561091a57610f80610fb292610fbe94600091610fc9575b506040516315ec7fad60e01b60208201526004356024820152610f859080604481015b0392610f80601f1994858101845283610df6565b6130e7565b506004546001600160a01b031692604051948591637818cdd760e01b602084015260243560248401612a58565b03908101845283610df6565b506100166001601155565b610fe1915060203d8111610913576109048183610df6565b38610f49565b50336001600160a01b036005541614610efd565b34610224576000366003190112610224576020601754604051908152f35b346102245760003660031901126102245760206001600160a01b0360015416604051908152f35b3461022457602036600319011261022457602060043561105f81610229565b6001600160a01b038091166000526013825260406000205416604051908152f35b346102245760003660031901126102245760206110ed6001600160a01b03600654166040516110ae81610da2565b601381527f67657464656c656761746f72436f756e7428290000000000000000000000000084820152604051916110e483610dbe565b6000835261305f565b604051908152f35b3461022457602036600319011261022457600435601554811015610224576001600160a01b0360209160156000527f55f448fdea98c4d29eb340757ef0a66cd03dbb9538908a6a81d96026b71ec475015416604051908152f35b3461022457602036600319011261022457602061117660043561117181610229565b611ff7565b6001600160a01b0360405191168152f35b346102245760203660031901126102245760206111ae6004356111a981610229565b612e29565b6040519015158152f35b346102245760203660031901126102245760043560155481101561042c576001600160a01b0360209160156000527f55f448fdea98c4d29eb340757ef0a66cd03dbb9538908a6a81d96026b71ec475015416604051908152f35b346102245760203660031901126102245760043561122e612da4565b15610b75576001600160a01b03600554163303610b37576000906004602061126061058f85546001600160a01b031690565b604051928380927f46f991ac0000000000000000000000000000000000000000000000000000000082525afa801561091a5783808481949382948391611302575b505af16112ac612f05565b5015610535577fcdcc745fe377b103b45fa0cec23ae3ef93d6fc6a84a01f0d18c40b354dd1d5d86112fc6112eb61058f600b546001600160a01b031690565b604051938452929081906020820190565b0390a280f35b61131a915060203d8111610913576109048183610df6565b386112a1565b34610224576020366003190112610224576001600160a01b0360043561134581610229565b1660005260126020526020604060002054604051908152f35b346102245760203660031901126102245760043561137b81610229565b803b600061138882611f70565b926113966040519485610df6565b82845260208401903c602d8151106113ba57602a602091015160601c604051908152f35b60046040517fbaf3f0f7000000000000000000000000000000000000000000000000000000008152fd5b34610224576060366003190112610224576113fd6120b1565b611405612da4565b15610b755761141333612e29565b8015611430575b15610b3757610b3060443560243560043561224c565b50336001600160a01b03600554161461141a565b34610224576000366003190112610224576020601454604051908152f35b34610224576020806003193601126102245761047e906004359061148582610229565b6114e96001600160a01b03928360065416936040519116838201528281526114ac81610da2565b6040516114b881610da2565b601881527f697364656c656761746f724e6f6465286164647265737329000000000000000084820152600094612f60565b919080611523575b61150a575b505060405190151581529081906020820190565b61151c92508082518301019101612d90565b38806114f6565b50808251146114f1565b346102245760003660031901126102245760206111ae612da4565b34610224576000366003190112610224576020601554604051908152f35b346102245760403660031901126102245761157f6120b1565b611587612da4565b15610b755761159533612e29565b80156115f7575b15610b3757610fbe6001600160a01b0360045416604051907f33b59a5b0000000000000000000000000000000000000000000000000000000060208301526004356024830152602435604483015260448252610f8082610dda565b50336001600160a01b03600554161461159c565b34610224576101803660031901126102245761162636610e7b565b61162e6120b1565b611636612da4565b15610b755761164433612e29565b8015611725575b15610b3757600490602061166a61058f6000546001600160a01b031690565b604051938480926369e8d84b60e11b82525afa90811561091a57610f80610fb2926116eb94600091611707575b506040516315ec7fad60e01b602082015260643560248201526116be908060448101610f6c565b506004546001600160a01b031692604051948591637818cdd760e01b602084015260843560248401612a58565b506116fd60443560243560043561224c565b6100166001601155565b61171f915060203d8111610913576109048183610df6565b38611697565b50336001600160a01b03600554161461164b565b3461022457600080600319360112611eff576117536120b1565b61176761058f82546001600160a01b031690565b604090815191828092634bf9c0ad60e11b8252602093849160049687915afa90811561091a578591611ee2575b506117cd82517f339459a600000000000000000000000000000000000000000000000000000000928386830152868252610f8082610da2565b5083836117e461058f88546001600160a01b031690565b8451928380926369e8d84b60e11b82525afa801561091a5761181c918791611ec5575b508351908386830152868252610f8082610da2565b50838361183361058f88546001600160a01b031690565b84519283809263ab6e844f60e01b82525afa801561091a5761186a918791611ec557508351908386830152868252610f8082610da2565b50838361188161058f88546001600160a01b031690565b84519283809263cfbffe5360e01b82525afa801561091a576118b8918791611ec557508351908386830152868252610f8082610da2565b5083836118cf61058f88546001600160a01b031690565b845192838092630536340960e21b82525afa801561091a57611906918791611ec557508351908386830152868252610f8082610da2565b50838361191d61058f88546001600160a01b031690565b84519283809263d1f956b160e01b82525afa801561091a57611954918791611ec557508351908386830152868252610f8082610da2565b50838361196b61058f88546001600160a01b031690565b845192838092631cc3bfab60e31b82525afa801561091a576119a2918791611ec557508351908386830152868252610f8082610da2565b5083836119b961058f88546001600160a01b031690565b84519283809263e09d394d60e01b82525afa801561091a576119f0918791611ec557508351908386830152868252610f8082610da2565b508383611a0761058f88546001600160a01b031690565b8451928380926314ac1b5960e21b82525afa801561091a57611a3e918791611ec557508351908386830152868252610f8082610da2565b50611a5361058f86546001600160a01b031690565b838351809263013cf08b60e01b82528180611a758a8201906000602083019252565b03915afa801561091a57611a9e918791611ec557508351908386830152868252610f8082610da2565b50611ab361058f86546001600160a01b031690565b90825184817fb771c89600000000000000000000000000000000000000000000000000000000948582528180611af08b8201906000602083019252565b03915afa801561091a57611b1a918891611ea8575b508451908387830152878252610f8082610da2565b50611b2f61058f87546001600160a01b031690565b84845180928582528180611b4a8b8201906001602083019252565b03915afa801561091a57611b73918891611ea857508451908387830152878252610f8082610da2565b50611b8861058f87546001600160a01b031690565b84845180928582528180611ba38b8201906002602083019252565b03915afa801561091a57611bcc918891611ea857508451908387830152878252610f8082610da2565b50611be161058f87546001600160a01b031690565b84845180928582528180611bfc8b8201906003602083019252565b03915afa801561091a57611c25918891611ea857508451908387830152878252610f8082610da2565b5083611c3b61058f88546001600160a01b031690565b92845193849182528180611c568a8201906004602083019252565b03915afa91821561091a578592611c83918891611e8b575b508451908387830152848252610f8082610da2565b5083611c9961058f88546001600160a01b031690565b845193848092635e09dbe760e01b82525afa91821561091a578592611cd3918891611e8b57508451908387830152848252610f8082610da2565b5083611ce961058f88546001600160a01b031690565b845193848092635506ee0b60e11b82525afa91821561091a578592611d23918891611e8b57508451908387830152848252610f8082610da2565b5083611d3961058f88546001600160a01b031690565b845193848092636402742760e01b82525afa91821561091a578592611d73918891611e8b57508451908387830152848252610f8082610da2565b5083611d8961058f88546001600160a01b031690565b8451938480926330125cf560e01b82525afa91821561091a578592611dc3918891611e8b57508451908387830152848252610f8082610da2565b5083611dd961058f88546001600160a01b031690565b8451938480926324768d9160e01b82525afa91821561091a578592611e13918891611e8b57508451908387830152848252610f8082610da2565b5083611e2961058f88546001600160a01b031690565b8451968780926313b92d3560e31b82525afa92831561091a57611e5e958794611e6c575b5051938401528252610f8082610da2565b50611e696001601155565b80f35b611e84919450853d8711610913576109048183610df6565b9238611e4d565b611ea29150863d8811610913576109048183610df6565b38611c6e565b611ebf9150863d8811610913576109048183610df6565b38611b05565b611edc9150853d8711610913576109048183610df6565b38611807565b611ef99150833d8511610913576109048183610df6565b38611794565b80fd5b346102245760003660031901126102245760206110ed612eb3565b60145468010000000000000000811015610d9d57600181018060145581101561042c57601460005260011b7fce6d7b5282bd9a3661ae061feed1dbda4e52ab073b1f9285be6e155d9c38d4ec0190600090565b67ffffffffffffffff8111610d9d57601f01601f191660200190565b60405190611f9982610da2565b601682527f6765744e6f6465506172656e74286164647265737329000000000000000000006020830152565b634e487b7160e01b600052601160045260246000fd5b600019810191908211610c3f57565b91908203918211610c3f57565b6001600160a01b0380911660005260126020526040600020548015158061203f575b612024575050600090565b6000198101908111610c3f57612039906103f2565b50541690565b50601454811115612019565b60155468010000000000000000811015610d9d57600181018060155581101561042c576001600160a01b039060156000527f55f448fdea98c4d29eb340757ef0a66cd03dbb9538908a6a81d96026b71ec4750191166001600160a01b0319825416179055565b6002601154146120c2576002601155565b60046040517f3ee5aeb5000000000000000000000000000000000000000000000000000000008152fd5b156120f357565b606460405162461bcd60e51b815260206004820152601560248201527f7574696c6974792e62617463682e696e76616c696400000000000000000000006044820152fd5b60405161214381610dbe565b60008152906000368137565b6040519061215c82610da2565b600f82527f6765744e6f646573436f756e74282900000000000000000000000000000000006020830152565b9060018201809211610c3f57565b91908201809211610c3f57565b6000198114610c3f5760010190565b604051906121bf82610da2565b601882527f6765744e6f6465496e737453746f722875696e743235362900000000000000006020830152565b9190826040910312610224576020825161220481610229565b92015161221081610229565b90565b6040519061222082610da2565b600682527f64616765282900000000000000000000000000000000000000000000000000006020830152565b8015158061241f575b61225e906120ec565b60049061228c61227583546001600160a01b031690565b61227d612137565b9061228661214f565b9061305f565b928315612418578360165411612409575b6122b26122ad6016549384612196565b611fdb565b948486116123ff575b6122cc906122c7612eb3565b611fea565b915b858111156123005750505090821090506122ef57506122ed6001601655565b565b6122fb6122ed91612188565b601655565b6123a49061231585546001600160a01b031690565b604080519061236561235760209380612335888783019190602083019252565b0395612349601f1997888101845283610df6565b6123516121b2565b90612f35565b8380825183010191016121eb565b6001600160a01b03918216929183156123f45761239491612384612137565b9161238d612213565b911661305f565b88116123a9575b505050506121a3565b6122ce565b6123ea937f9c75dd3500000000000000000000000000000000000000000000000000000000610f8092519485015283610fb289602483019190602083019252565b503880808061239b565b5050505050506121a3565b93945084936122bb565b6124136001601655565b61229d565b5050505050565b506064811115612255565b1561243157565b606460405162461bcd60e51b815260206004820152601c60248201527f7574696c6974792e62617463682e6c696d69742e6578636565646564000000006044820152fd5b1561247c57565b606460405162461bcd60e51b815260206004820152601760248201527f7574696c6974792e756e7365637572652e6661696c65640000000000000000006044820152fd5b90816020910312610224575161221081610229565b6040513d6000823e3d90fd5b156124e857565b606460405162461bcd60e51b815260206004820152601360248201527f7574696c6974792e696d706f72742e646f6e65000000000000000000000000006044820152fd5b6040519061253982610da2565b601782527f6765744e6f64654279496e6465782875696e74323536290000000000000000006020830152565b1561256c57565b606460405162461bcd60e51b815260206004820152601660248201527f70726f78792e696e76616c69642e696e7374616e6365000000000000000000006044820152fd5b604051906125bd82610da2565b601382527f496e7374546f55736572286164647265737329000000000000000000000000006020830152565b156125f057565b606460405162461bcd60e51b815260206004820152601260248201527f70726f78792e696e76616c69642e6e6f646500000000000000000000000000006044820152fd5b6040519061264182610da2565b601082527f6765744e6f6465286164647265737329000000000000000000000000000000006020830152565b5190811515820361022457565b908160a091031261022457805191602082015161269681610229565b9160408101519161221060806126ae6060850161266d565b930161266d565b6126c2606482111561242a565b6126d36126ce30612e29565b612475565b6126e861058f6000546001600160a01b031690565b60405180917f447aa30400000000000000000000000000000000000000000000000000000000825281600460209384935afa91821561091a576000926129b4575b50612743612735612137565b61273d61214f565b8461305f565b9283156129ae576127746127626122756004546001600160a01b031690565b9161276e8387116124e1565b82612196565b938085116129a6575b505b83811061278c5750505050565b6129529061294d61294860405161293f7f50db85d1000000000000000000000000000000000000000000000000000000006127f4836127d2888b83019190602083019252565b03936127e6601f1995868101835282610df6565b6127ee61252c565b8b61300e565b6001600160a01b036128098183161515612565565b8131948a8c60016128b26128a461288a61289661285e6128446128508c6040519283918c83019190916001600160a01b036020820193169052565b038b8101835282610df6565b6128586125b0565b8861300e565b9961286c8a8c1615156125e9565b6040519283918983019190916001600160a01b036020820193169052565b03888101835282610df6565b61289e612634565b85612f35565b84808251830101910161267a565b50505095909516946128c58115156125e9565b14801561299d575b612957575b50610fb2846128fc8561033b610f8097986001600160a01b03166000526013602052604060002090565b61290681806129d3565b6004546001600160a01b031695604051978894850152602484019060209093929360408301946001600160a01b03809216845216910152565b50601754612196565b601755565b6121a3565b61277f565b6040516001600160a01b03909416828501908152610f8094610fb2926129949261298c90839060200103878101845283610df6565b61031b6125b0565b9350508c6128d2565b508315156128cd565b93503861277d565b50505050565b816129cc9293503d8411610913576109048183610df6565b9038612729565b6014549068010000000000000000821015610d9d5760018391612a1f612a018584612a3b97016014556103f2565b509182906001600160a01b03166001600160a01b0319825416179055565b01906001600160a01b03166001600160a01b0319825416179055565b6001600160a01b0360145491166000526012602052604060002055565b908152610100810192919060209060009082015b60078210612a7a5750505050565b82806001928651815201940191019092612a6c565b612d746101c06122ed92612ac9612aad82516001600160a01b031690565b6001600160a01b03166001600160a01b03196002541617600255565b612afc612ae060208301516001600160a01b031690565b6001600160a01b03166001600160a01b03196003541617600355565b612b2f612b1360408301516001600160a01b031690565b6001600160a01b03166001600160a01b03196004541617600455565b612b62612b4660608301516001600160a01b031690565b6001600160a01b03166001600160a01b03196005541617600555565b612b95612b7960808301516001600160a01b031690565b6001600160a01b03166001600160a01b03196006541617600655565b612bc8612bac60a08301516001600160a01b031690565b6001600160a01b03166001600160a01b03196007541617600755565b612bfb612bdf60c08301516001600160a01b031690565b6001600160a01b03166001600160a01b03196008541617600855565b612c2e612c1260e08301516001600160a01b031690565b6001600160a01b03166001600160a01b03196009541617600955565b612c62612c466101008301516001600160a01b031690565b6001600160a01b03166001600160a01b0319600a541617600a55565b612c96612c7a6101208301516001600160a01b031690565b6001600160a01b03166001600160a01b0319600b541617600b55565b612cca612cae6101408301516001600160a01b031690565b6001600160a01b03166001600160a01b0319600c541617600c55565b612cfe612ce26101608301516001600160a01b031690565b6001600160a01b03166001600160a01b0319600d541617600d55565b612d32612d166101808301516001600160a01b031690565b6001600160a01b03166001600160a01b0319600e541617600e55565b612d66612d4a6101a08301516001600160a01b031690565b6001600160a01b03166001600160a01b0319600f541617600f55565b01516001600160a01b031690565b6001600160a01b03166001600160a01b03196010541617601055565b90816020910312610224576122109061266d565b612dff6001600160a01b0360025416604051612dbf81610da2565b600881527f6973536166652829000000000000000000000000000000000000000000000000602082015260405191612df683610dbe565b60008352612f60565b9080612e1e575b15610535578060208061221093518301019101612d90565b506020815114612e06565b612e8c6001600160a01b038060025416604051916020941684830152838252612e5182610da2565b60405190612e5e82610da2565b601582527f697353656375726542617365286164647265737329000000000000000000000085830152612f60565b9080612ea9575b1561053557816122109282518301019101612d90565b5081815114612e93565b6122106001600160a01b0360035416604051612ece81610da2565b600681527f69416765282900000000000000000000000000000000000000000000000000006020820152604051916110e483610dbe565b3d15612f30573d90612f1682611f70565b91612f246040519384610df6565b82523d6000602084013e565b606090565b90612f409291612f60565b9060009015612f4d575090565b6040519150612f5b82610dbe565b815290565b9190823b15612ff5577fffffffff00000000000000000000000000000000000000000000000000000000815160208093012016916040519180830193845281519160005b838110612fe1575050509181612fd160248260009795968897018783820152036004810184520182610df6565b51915afa612fdd612f05565b9091565b818101830151858201602401528201612fa4565b50505060009060405161300781610dbe565b6000815290565b929161301c91600094612f60565b9080613054575b61302a5750565b9091506020818051810103126102245760206001600160a01b0391015161305081610229565b1690565b506020815114613023565b929161306d91600094612f60565b9080613092575b61307b5750565b909150602081805181010312610224576020015190565b506020815114613074565b90602082519201517fffffffff000000000000000000000000000000000000000000000000000000009081811693600481106130d857505050565b60040360031b82901b16169150565b6001600160a01b0381161561319a57600080918351908260208601915af19061310e612f05565b9115613118575090565b8051600091906004116131945761312f915061309d565b81511561313f5750805190602001fd5b6040517f21c09d340000000000000000000000000000000000000000000000000000000081527fffffffff00000000000000000000000000000000000000000000000000000000919091166004820152602490fd5b5061312f565b600460405163e6c4247b60e01b8152fdfea2646970667358221220a01cd44550c226994ec6e8f206d2eed1362d78fb21f65d47c43f9919c5da2eaf64736f6c63430008140033","linkReferences":{}},"methodIdentifiers":{"Burn(uint256)":"b90306ad","UserToForm(address)":"c1e6cec2","_delegatorCount()":"a1f7f539","_getImplementation(address)":"c54e44b0","_isDelegatorNode(address)":"e01ad5fd","_isSafe()":"e0a9bc2b","_isSecureBase(address)":"af484526","_isSigner(address)":"1f185d16","actualTVL()":"8d6edc14","closeTransferTarget(address)":"4ef260a9","currentRefreshId()":"55ed5fee","forms(uint256)":"18c864e3","getBalance()":"12065fe0","getForm(uint256)":"479fa2c3","getFormsCount()":"cab3cc8d","getHexbase()":"3b9b7955","getImportedNodeByIndex(uint256)":"b8f1759a","getimportedNodeCount()":"e846034a","importRankBusiness(uint256,uint256)":"e981bcad","importedNode(uint256)":"ab7e46ae","importuser(uint256)":"3676bd1f","owner()":"8da5cb5b","refreshusers(uint256,uint256,uint256)":"c9a29150","resolveParent(address)":"96970c96","resolveTransferTarget(address)":"ac233345","setsysdata(uint256,uint256,uint256[7])":"85301b86","setsysdatawithrefresh(uint256,uint256,uint256,uint256,uint256,uint256[7])":"ed6c1b58","submitTransferForm(address,address)":"1480a85b","syncBaseAddr()":"339459a6","syncSystem()":"f245fe7a","systemAge()":"fdc10bc9"},"id":51}