{"abi":[{"type":"constructor","inputs":[{"name":"_hex","type":"address","internalType":"address"}],"stateMutability":"nonpayable"},{"type":"fallback","stateMutability":"payable"},{"type":"receive","stateMutability":"payable"},{"type":"function","name":"Burn","inputs":[{"name":"amount","type":"uint256","internalType":"uint256"}],"outputs":[],"stateMutability":"nonpayable"},{"type":"function","name":"UserToForm","inputs":[{"name":"","type":"address","internalType":"address"}],"outputs":[{"name":"","type":"uint256","internalType":"uint256"}],"stateMutability":"view"},{"type":"function","name":"_delegatorCount","inputs":[],"outputs":[{"name":"","type":"uint256","internalType":"uint256"}],"stateMutability":"view"},{"type":"function","name":"_getImplementation","inputs":[{"name":"clone","type":"address","internalType":"address"}],"outputs":[{"name":"impl","type":"address","internalType":"address"}],"stateMutability":"view"},{"type":"function","name":"_isDelegatorNode","inputs":[{"name":"sender","type":"address","internalType":"address"}],"outputs":[{"name":"","type":"bool","internalType":"bool"}],"stateMutability":"view"},{"type":"function","name":"_isSafe","inputs":[],"outputs":[{"name":"","type":"bool","internalType":"bool"}],"stateMutability":"view"},{"type":"function","name":"_isSecureBase","inputs":[{"name":"sender","type":"address","internalType":"address"}],"outputs":[{"name":"","type":"bool","internalType":"bool"}],"stateMutability":"view"},{"type":"function","name":"_isSigner","inputs":[{"name":"sender","type":"address","internalType":"address"}],"outputs":[{"name":"","type":"bool","internalType":"bool"}],"stateMutability":"view"},{"type":"function","name":"callback","inputs":[{"name":"formId","type":"uint256","internalType":"uint256"}],"outputs":[],"stateMutability":"nonpayable"},{"type":"function","name":"closeTransferTarget","inputs":[{"name":"to","type":"address","internalType":"address"}],"outputs":[],"stateMutability":"nonpayable"},{"type":"function","name":"forms","inputs":[{"name":"","type":"uint256","internalType":"uint256"}],"outputs":[{"name":"from","type":"address","internalType":"address"},{"name":"to","type":"address","internalType":"address"},{"name":"status","type":"bool","internalType":"bool"},{"name":"proposalId","type":"uint256","internalType":"uint256"},{"name":"resolved","type":"bool","internalType":"bool"},{"name":"closed","type":"bool","internalType":"bool"}],"stateMutability":"view"},{"type":"function","name":"getBalance","inputs":[],"outputs":[{"name":"","type":"uint256","internalType":"uint256"}],"stateMutability":"view"},{"type":"function","name":"getForm","inputs":[{"name":"formId","type":"uint256","internalType":"uint256"}],"outputs":[{"name":"from","type":"address","internalType":"address"},{"name":"to","type":"address","internalType":"address"},{"name":"resolved","type":"bool","internalType":"bool"},{"name":"closed","type":"bool","internalType":"bool"},{"name":"status","type":"bool","internalType":"bool"},{"name":"proposalId","type":"uint256","internalType":"uint256"}],"stateMutability":"view"},{"type":"function","name":"getFormsCount","inputs":[],"outputs":[{"name":"","type":"uint256","internalType":"uint256"}],"stateMutability":"view"},{"type":"function","name":"getHexbase","inputs":[],"outputs":[{"name":"","type":"address","internalType":"address"}],"stateMutability":"view"},{"type":"function","name":"getImportedNodeByIndex","inputs":[{"name":"index","type":"uint256","internalType":"uint256"}],"outputs":[{"name":"node","type":"address","internalType":"address"}],"stateMutability":"view"},{"type":"function","name":"getimportedNodeCount","inputs":[],"outputs":[{"name":"nodesCount","type":"uint256","internalType":"uint256"}],"stateMutability":"view"},{"type":"function","name":"importRankBusiness","inputs":[{"name":"_fromAge","type":"uint256","internalType":"uint256"},{"name":"_toAge","type":"uint256","internalType":"uint256"}],"outputs":[],"stateMutability":"nonpayable"},{"type":"function","name":"importedNode","inputs":[{"name":"","type":"uint256","internalType":"uint256"}],"outputs":[{"name":"","type":"address","internalType":"address"}],"stateMutability":"view"},{"type":"function","name":"importuser","inputs":[{"name":"batchSize","type":"uint256","internalType":"uint256"}],"outputs":[],"stateMutability":"nonpayable"},{"type":"function","name":"owner","inputs":[],"outputs":[{"name":"","type":"address","internalType":"address"}],"stateMutability":"view"},{"type":"function","name":"resolveTransferTarget","inputs":[{"name":"to","type":"address","internalType":"address"}],"outputs":[{"name":"from","type":"address","internalType":"address"}],"stateMutability":"view"},{"type":"function","name":"submitTransferForm","inputs":[{"name":"_from","type":"address","internalType":"address"}],"outputs":[],"stateMutability":"nonpayable"},{"type":"function","name":"systemAge","inputs":[],"outputs":[{"name":"","type":"uint256","internalType":"uint256"}],"stateMutability":"view"},{"type":"function","name":"testTxnSys","inputs":[{"name":"paramAdd","type":"address","internalType":"address"},{"name":"_id_maxint","type":"uint256","internalType":"uint256"},{"name":"_qty","type":"uint256","internalType":"uint256"},{"name":"_amt","type":"uint256","internalType":"uint256"}],"outputs":[],"stateMutability":"payable"},{"type":"event","name":"EthBurned","inputs":[{"name":"sender","type":"address","indexed":true,"internalType":"address"},{"name":"amount","type":"uint256","indexed":false,"internalType":"uint256"}],"anonymous":false},{"type":"event","name":"EthTransferred","inputs":[{"name":"to","type":"address","indexed":true,"internalType":"address"},{"name":"amount","type":"uint256","indexed":false,"internalType":"uint256"}],"anonymous":false},{"type":"event","name":"HexBaseUpdated","inputs":[{"name":"previousHexBase","type":"address","indexed":true,"internalType":"address"},{"name":"newHexBase","type":"address","indexed":true,"internalType":"address"}],"anonymous":false},{"type":"event","name":"OwnerUpdated","inputs":[{"name":"previousOwner","type":"address","indexed":true,"internalType":"address"},{"name":"newOwner","type":"address","indexed":true,"internalType":"address"}],"anonymous":false},{"type":"error","name":"ReentrancyGuardReentrantCall","inputs":[]},{"type":"error","name":"TargetCallFailed","inputs":[{"name":"selector","type":"bytes4","internalType":"bytes4"}]}],"bytecode":{"object":"0x6080346100ca57601f6121b938819003918201601f19168301916001600160401b038311848410176100cf578084926020946040528339810103126100ca57516001600160a01b038116908190036100ca5780156100855760018060a01b031933816001541617600155600054161760005560016003556040516120d390816100e68239f35b60405162461bcd60e51b815260206004820152601360248201527f6f776e2e696e76616c69642e68657862617365000000000000000000000000006044820152606490fd5b600080fd5b634e487b7160e01b600052604160045260246000fdfe60806040526004361015610018575b361561001657005b005b60003560e01c806312065fe0146101a857806318c864e3146101a35780631f185d161461019e5780633294adf0146101995780633676bd1f146101945780633b9b79551461018f578063479fa2c31461018a5780634ef260a9146101855780638da5cb5b146101805780639fb3953b1461017b578063a1f7f53914610176578063ab7e46ae14610171578063ac2333451461016c578063af48452614610167578063b8f1759a14610162578063b90306ad1461015d578063c1e6cec214610158578063c54e44b014610153578063cab3cc8d1461014e578063e01ad5fd14610149578063e0a9bc2b14610144578063e846034a1461013f578063e981bcad1461013a578063fdc10bc9146101355763ff585caf0361000e57610f2e565b610e9b565b610ddf565b610dc1565b610d1f565b610c80565b610c62565b610bc6565b610b89565b610a68565b610a1f565b6109ee565b6109b5565b61096c565b6108b5565b610747565b61071e565b610666565b6105b7565b61058e565b610550565b6103b7565b6102af565b61020f565b346101c45760003660031901126101c457602047604051908152f35b600080fd5b634e487b7160e01b600052603260045260246000fd5b6005548110156101fe57600560005260206000209060021b0190600090565b6101c9565b6001600160a01b031690565b346101c45760203660031901126101c4576004356005548110156101c457610236906101df565b50805460018201546002830154600390930154604080516001600160a01b039485168152938316602085015260ff60a093841c811615159185019190915260608401949094528381161515608084015260081c90921615159181019190915260c090f35b0390f35b6001600160a01b038116036101c457565b346101c4576020806003193601126101c4576004908135906102d08261029e565b806102e46102df600054610203565b610203565b604051634bf9c0ad60e11b815294859182905afa9182156103b257610329610363936103459261029a9660009261037f575b506103379060405193849187830161057b565b03601f198101845283611085565b61033f611d18565b90611e57565b919080610375575b61035690611d45565b8082518301019101611be7565b60405190151581529081906020820190565b508151811461034d565b6103379192506103a490863d88116103ab575b61039c8183611085565b8101906110a8565b9190610316565b503d610392565b6110c0565b346101c4576020806003193601126101c4576004356103d58161029e565b6001600160a01b03811615610516576103f76103f033610b6f565b5415610fa6565b61040a610402610ffd565b509182611030565b6104456004600183019361041e3386611030565b600554604051600162a7a35160e01b03198382015260248101919091529283906044820190565b03610458601f1991828101865285611085565b816104676102df600054610203565b604051630536340960e21b815294859182905afa9283156103b2576002946104da946104cd936104bc936000926104f5575b5060405163d3a3084960e01b878201529391926104c892859130602484016110ef565b03908101845283611085565b611fc2565b805181018201910161115e565b9101556104f26104ed6005549254610203565b610b6f565b55005b6104c8925061051090873d89116103ab5761039c8183611085565b91610499565b60405162461bcd60e51b815260048101839052601260248201527137bbb7173232b330bab63a1739b2b73232b960711b6044820152606490fd5b346101c45760203660031901126101c457610569611ac5565b6105746004356116df565b6001600355005b6001600160a01b03909116815260200190565b346101c45760003660031901126101c4576000546040516001600160a01b039091168152602090f35b346101c45760203660031901126101c4576004358015158061065a575b6105dd906111ab565b6000198101908111610655576105f2906101df565b50805460018201546003830154600290930154604080516001600160a01b039485168152938316602085015260ff80861615159185019190915260089490941c84161515606084015260a091821c9093161515608083015281019190915260c090f35b6111f1565b506005548111156105d4565b346101c45760203660031901126101c4576004356106838161029e565b6001600160a01b03166000818152600460205260408120549091906000198101908111610655576106b56003916101df565b5001805461ff001916610100179055808252600460205260408220829055600654600160401b8110156107195760018101806006558110156101fe576006835260008051602061207e8339815191520180546001600160a01b031916909117905580f35b610fe7565b346101c45760003660031901126101c4576001546040516001600160a01b039091168152602090f35b60803660031901126101c45760043561075f8161029e565b610767611ac5565b6107756102df600054610203565b60405163ab6e844f60e01b815291906020908184600481845afa9384156103b257600094610891575b50816004916040519283809263de433f1760e01b82525afa9081156103b2576107fe916107dc91600091610874575b5060405191829185830161057b565b03946107f0601f1996878101845283611085565b6107f8611b49565b90611ed5565b906001600160a01b038216610818575b6100166001600355565b604051636083c98560e11b918101919091526001600160a01b03909216602480840191909152356044808401919091523560648084019190915235608483015261086a926104c8908360a481016104bc565b503880808061080e565b61088b9150843d86116103ab5761039c8183611085565b386107cd565b60049194506108ad8391823d84116103ab5761039c8183611085565b94915061079e565b346101c45760003660031901126101c45760005460405163d1f956b160e01b815290602090829060049082906001600160a01b03165afa9081156103b25761029a9161093e9160009161094e575b506040516109108161104f565b601381527267657464656c656761746f72436f756e74282960681b6020820152610938611231565b91611f55565b6040519081529081906020820190565b610966915060203d81116103ab5761039c8183611085565b38610903565b346101c45760203660031901126101c4576004356006548110156101c457600660005260008051602061207e83398151915201546040516001600160a01b039091168152602090f35b346101c45760203660031901126101c45760206109dc6004356109d78161029e565b6113bc565b6040516001600160a01b039091168152f35b346101c45760203660031901126101c4576020610a15600435610a108161029e565b611c75565b6040519015158152f35b346101c45760203660031901126101c4576004356006548110156101fe57600660005260008051602061207e83398151915201546040516001600160a01b039091168152602090f35b346101c4576020806003193601126101c45760043560018060a01b0391600092808454169060405191630536340960e21b83528383600481845afa9283156103b2576004938593610ac3928992610b50575b5016331461116d565b6040516311be646b60e21b815292839182905afa9182156103b257848085610b0295829583958492610b33575b50505af1610afc611dbe565b50611dee565b60405190815233907fcdcc745fe377b103b45fa0cec23ae3ef93d6fc6a84a01f0d18c40b354dd1d5d890602090a280f35b610b499250803d106103ab5761039c8183611085565b3880610af0565b610b68919250853d87116103ab5761039c8183611085565b9038610aba565b6001600160a01b0316600090815260046020526040902090565b346101c45760203660031901126101c457600435610ba68161029e565b60018060a01b031660005260046020526020604060002054604051908152f35b346101c45760203660031901126101c457600435610be38161029e565b803b6000610bf082611216565b92610bfe6040519485611085565b82845260208401903c602d815110610c2757602a61029a91015160601c6040519182918261057b565b60405162461bcd60e51b81526020600482015260136024820152724e6f742061206d696e696d616c2070726f787960681b6044820152606490fd5b346101c45760003660031901126101c4576020600554604051908152f35b346101c4576020806003193601126101c45760048035610c9f8161029e565b60005460405163d1f956b160e01b81526001600160a01b03949093909182918591829088165afa9081156103b25761029a9461036394600093610d00575b506040519316818401528252610cf28261104f565b610cfa611d8a565b90611f19565b610d18919350823d84116103ab5761039c8183611085565b9138610cdd565b346101c45760003660031901126101c457600054604051634bf9c0ad60e11b8152906020908190839060049082906001600160a01b03165afa9081156103b257610d896103639261029a94600091610da4575b50610d7b611b7b565b610d83611231565b91611e57565b919080610d9a575b61035690611b9f565b5081518114610d91565b610dbb9150833d85116103ab5761039c8183611085565b38610d72565b346101c45760003660031901126101c4576020600654604051908152f35b346101c45760403660031901126101c457610df8611ac5565b610e09610e0430611c75565b6114b0565b60046020610e1b6102df600054610203565b60405163ab6e844f60e01b815292839182905afa80156103b257610e7291600091610e7d575b506040516333b59a5b60e01b6020820152600435602480830191909152356044820152906104c88260648101610329565b506100166001600355565b610e95915060203d81116103ab5761039c8183611085565b38610e41565b346101c45760003660031901126101c45760005460405163111ea8c160e21b815290602090829060049082906001600160a01b03165afa9081156103b25761029a9161093e91600091610f10575b50604051610ef68161104f565b6005815264616765282960d81b6020820152610938611231565b610f28915060203d81116103ab5761039c8183611085565b38610ee9565b346101c45760203660031901126101c457600054604051630536340960e21b8152906001600160a01b03906020908390600490829085165afa9081156103b257610f8292600092610f8d575016331461116d565b6100166004356112b8565b610b6891925060203d81116103ab5761039c8183611085565b15610fad57565b60405162461bcd60e51b815260206004820152601260248201527170726f706f7365722e746f2e65786973747360701b6044820152606490fd5b634e487b7160e01b600052604160045260246000fd5b600554600160401b8110156107195760018101806005558110156101fe57600560005260206000209060021b0190600090565b80546001600160a01b0319166001600160a01b03909216919091179055565b604081019081106001600160401b0382111761071957604052565b602081019081106001600160401b0382111761071957604052565b601f909101601f19168101906001600160401b0382119082101761071957604052565b908160209103126101c457516110bd8161029e565b90565b6040513d6000823e3d90fd5b60005b8381106110df5750506000910152565b81810151838201526020016110cf565b9291608090600a9260a08652600d60a08701526c2ab9b2b9102a3930b739b332b960991b60c087015260018060a01b031660208601526000604086015260e0606086015280518060e087015261114f81610100936020858a0191016110cc565b601f8019910116850101930152565b908160209103126101c4575190565b1561117457565b60405162461bcd60e51b815260206004820152600f60248201526e6f776e2e6e6f6e617574682e44414f60881b6044820152606490fd5b156111b257565b60405162461bcd60e51b81526020600482015260176024820152761c1c9bdc1bdcd95c8b9a5b9d985b1a590b999bdc9b5a59604a1b6044820152606490fd5b634e487b7160e01b600052601160045260246000fd5b60001981019190821161065557565b6001600160401b03811161071957601f01601f191660200190565b6040519061123e8261106a565b60008252565b604051906112518261104f565b6012825271676574526573756c742875696e743235362960701b6020830152565b519081151582036101c457565b91908260c09103126101c4578151916020810151916040820151916060810151916110bd60a06112b160808501611272565b9301611272565b80156113b9576112d86112dd916112d36005548211156111ab565b611207565b6101df565b506112ec6102df600054610203565b604051918291630536340960e21b835282600460209485935afa9081156103b2576113606113889361135361032960039561139a9860009161139c575b5061134560028701546040519384918783019190602083019252565b61134d611244565b90611e2c565b805181018201910161127f565b60018701805460ff60a01b191692151560a01b60ff60a01b1692909217909155969350505050565b019060ff801983541691151516179055565b565b6113b39150843d86116103ab5761039c8183611085565b38611329565b50565b6113c581610b6f565b548015159081611458575b5015611452576112d86113e56113eb92610b6f565b54611207565b50600181015460a01c60ff16908161143c575b8161141b575b60009115611417576110bd915054610203565b5090565b9050611436611432600383015460ff9060081c1690565b1590565b90611404565b905061144c600382015460ff1690565b906113fe565b50600090565b90506005541015386113d0565b1561146c57565b60405162461bcd60e51b815260206004820152601c60248201527b1d5d1a5b1a5d1e4b98985d18da0b9b1a5b5a5d0b995e18d95959195960221b6044820152606490fd5b156114b757565b60405162461bcd60e51b81526020600482015260176024820152761d5d1a5b1a5d1e4b9d5b9cd958dd5c994b99985a5b1959604a1b6044820152606490fd5b6040516115028161106a565b60008152906000368137565b6040519061151b8261104f565b600f82526e6765744e6f646573436f756e74282960881b6020830152565b1561154057565b60405162461bcd60e51b81526020600482015260136024820152727574696c6974792e696d706f72742e646f6e6560681b6044820152606490fd5b9190820180921161065557565b60001981146106555760010190565b604051906115a48261104f565b60178252766765744e6f64654279496e6465782875696e743235362960481b6020830152565b156115d157565b60405162461bcd60e51b815260206004820152601660248201527570726f78792e696e76616c69642e696e7374616e636560501b6044820152606490fd5b6040519061161c8261104f565b6013825272496e7374546f5573657228616464726573732960681b6020830152565b1561164557565b60405162461bcd60e51b815260206004820152601260248201527170726f78792e696e76616c69642e6e6f646560701b6044820152606490fd5b6040519061168c8261104f565b601082526f6765744e6f646528616464726573732960801b6020830152565b908160a09103126101c45780519160208201516116c78161029e565b916040810151916110bd60806112b160608501611272565b6116ec6064821115611465565b6116f8610e0430611c75565b6000906117086102df8354610203565b6040805163111ea8c160e21b808252600495939092916020919082818981855afa80156103b257611752918791611aae575b506117436114f6565b9061174c61150e565b90611f55565b958615611aa457835183818a8163ab6e844f60e01b968782525afa9081156103b25761179d9161178b918991611a8757506117436114f6565b91611797838a11611539565b8261157b565b96808811611a7f575b505b8681106117b9575050505050505050565b6117c66102df8754610203565b90845186815284818b81865afa9283156103b2578a918994611a60575b506118178751806117fb868a83019190602083019252565b039561180f601f1997888101845283611085565b6107f8611597565b6001600160a01b039061182d81831615156115ca565b87895180958c825281865afa9384156103b257818a8f968b8f946118799592611a3b575b50611865611871929351948592830161057b565b038a8101845283611085565b6107f861160f565b92611887838516151561163e565b888a5180968d825281845afa80156103b2576118e98f966118c78f6001948f91978f98946118db9592611a1a575b506118d39192519384918a830161057b565b038d8101845283611085565b61134d61167f565b8480825183010191016116ab565b50505094909416936118fc81151561163e565b148015611a11575b6119a6575b50506119158280611ae8565b866119236102df8c54610203565b8951948580928a82525afa80156103b2576119809561197a948c92611985575b5089516350db85d160e01b8a8201526001600160a01b039384166024820152939092166044840152906104c89083606481016104bc565b50611588565b6117a8565b6104c892506119a0908a3d8c116103ab5761039c8183611085565b91611943565b8951948580928d82525afa9283156103b2578c936119e7926119db928d926119ee575b50611871908b519384918c830161057b565b03888101845283611085565b8638611909565b611871919250611a0a908b3d8d116103ab5761039c8183611085565b91906119c9565b50821515611904565b6118d39250611a35908a3d8c116103ab5761039c8183611085565b916118b5565b6118719250611a5961186591833d85116103ab5761039c8183611085565b9250611851565b611a78919450863d88116103ab5761039c8183611085565b92386117e3565b9650386117a6565b611a9e9150863d88116103ab5761039c8183611085565b3861173a565b5050505050505050565b611a9e9150843d86116103ab5761039c8183611085565b600260035414611ad6576002600355565b604051633ee5aeb560e01b8152600490fd5b60055490600160401b82101561071957611b0d610402836001600395016005556101df565b60018101611b1b8482611030565b805460ff60a01b1916600160a01b17905501805461ffff1916600117905560055490611b4690610b6f565b55565b60405190611b568261104f565b601682527567657455736572546f496e737428616464726573732960501b6020830152565b60405190611b888261104f565b6008825267697353616665282960c01b6020830152565b15611ba657565b60405162461bcd60e51b81526020600482015260196024820152781bdddb8b9cd8599959dd585c990b98d85b1b0b99985a5b1959603a1b6044820152606490fd5b908160209103126101c4576110bd90611272565b60405190611c088261104f565b601582527469735365637572654261736528616464726573732960581b6020830152565b15611c3357565b60405162461bcd60e51b815260206004820152601a6024820152791bdddb8b9cd958dd5c9958985cd94b98d85b1b0b99985a5b195960321b6044820152606490fd5b600054611c8a906001600160a01b0316610203565b604051918291634bf9c0ad60e11b835282600460209485935afa9283156103b2576110bd93611cda9261032992600092611cf5575b50611cd29060405193849187830161057b565b61033f611bfb565b919080611ceb575b61035690611c2c565b5081518114611ce2565b611cd2919250611d1190863d88116103ab5761039c8183611085565b9190611cbf565b60405190611d258261104f565b601182527069735369676e657228616464726573732960781b6020830152565b15611d4c57565b60405162461bcd60e51b81526020600482015260166024820152751bdddb8b9cda59db995c8b98d85b1b0b99985a5b195960521b6044820152606490fd5b60405190611d978261104f565b6018825277697364656c656761746f724e6f646528616464726573732960401b6020830152565b3d15611de9573d90611dcf82611216565b91611ddd6040519384611085565b82523d6000602084013e565b606090565b15611df557565b60405162461bcd60e51b815260206004820152600f60248201526e1bdddb8b989d5c9b8b99985a5b1959608a1b6044820152606490fd5b90611e379291611e57565b9060009015611e44575090565b6040519150611e528261106a565b815290565b803b15611ebc57600092839263ffffffff60e01b90602081519101201690611ea96024604051809360208201958652611e9981518092602086860191016110cc565b8101036004810184520182611085565b5191620dbba0fa611eb8611dbe565b9091565b505050600090604051611ece8161106a565b6000815290565b9291611ee391600094611e57565b9080611f0e575b611ef15750565b9091506020818051810103126101c457602001516102038161029e565b506020815114611eea565b9291611f2791600094611e57565b9080611f4a575b611f355750565b6110bd91925060208082518301019101611be7565b506020815114611f2e565b9291611f6391600094611e57565b9080611f86575b611f715750565b6110bd9192506020808251830101910161115e565b506020815114611f6a565b906020825192015163ffffffff60e01b908181169360048110611fb357505050565b60040360031b82901b16169150565b6001600160a01b0381161561204357600080918351908260208601915af190611fe9611dbe565b9115611ff3575090565b80516000919060041161203d5761200a9150611f91565b81511561201a5750805190602001fd5b604051630870274d60e21b81526001600160e01b03199091166004820152602490fd5b5061200a565b60405162461bcd60e51b81526020600482015260126024820152711bdddb8b9a5b9d985b1a590b9d185c99d95d60721b6044820152606490fdfef652222313e28459528d920b65115c16c04f3efc82aaedc97be59f3f377c0d3fa2646970667358221220346dfc7e24e29065a98bdf9650f79215c62b704d6befed8bd832b8512a31de2864736f6c63430008140033","linkReferences":{}},"methodIdentifiers":{"Burn(uint256)":"b90306ad","UserToForm(address)":"c1e6cec2","_delegatorCount()":"a1f7f539","_getImplementation(address)":"c54e44b0","_isDelegatorNode(address)":"e01ad5fd","_isSafe()":"e0a9bc2b","_isSecureBase(address)":"af484526","_isSigner(address)":"1f185d16","callback(uint256)":"ff585caf","closeTransferTarget(address)":"4ef260a9","forms(uint256)":"18c864e3","getBalance()":"12065fe0","getForm(uint256)":"479fa2c3","getFormsCount()":"cab3cc8d","getHexbase()":"3b9b7955","getImportedNodeByIndex(uint256)":"b8f1759a","getimportedNodeCount()":"e846034a","importRankBusiness(uint256,uint256)":"e981bcad","importedNode(uint256)":"ab7e46ae","importuser(uint256)":"3676bd1f","owner()":"8da5cb5b","resolveTransferTarget(address)":"ac233345","submitTransferForm(address)":"3294adf0","systemAge()":"fdc10bc9","testTxnSys(address,uint256,uint256,uint256)":"9fb3953b"},"id":24}