{"abi":[{"type":"constructor","inputs":[{"name":"_hex","type":"address","internalType":"address"}],"stateMutability":"nonpayable"},{"type":"fallback","stateMutability":"payable"},{"type":"receive","stateMutability":"payable"},{"type":"function","name":"Burn","inputs":[{"name":"amount","type":"uint256","internalType":"uint256"}],"outputs":[],"stateMutability":"nonpayable"},{"type":"function","name":"UserToForm","inputs":[{"name":"","type":"address","internalType":"address"}],"outputs":[{"name":"","type":"uint256","internalType":"uint256"}],"stateMutability":"view"},{"type":"function","name":"Withdraw","inputs":[],"outputs":[],"stateMutability":"nonpayable"},{"type":"function","name":"_delegatorCount","inputs":[],"outputs":[{"name":"","type":"uint256","internalType":"uint256"}],"stateMutability":"view"},{"type":"function","name":"_getImplementation","inputs":[{"name":"clone","type":"address","internalType":"address"}],"outputs":[{"name":"impl","type":"address","internalType":"address"}],"stateMutability":"view"},{"type":"function","name":"_isDelegatorNode","inputs":[{"name":"sender","type":"address","internalType":"address"}],"outputs":[{"name":"","type":"bool","internalType":"bool"}],"stateMutability":"view"},{"type":"function","name":"_isSafe","inputs":[],"outputs":[{"name":"","type":"bool","internalType":"bool"}],"stateMutability":"view"},{"type":"function","name":"_isSecureBase","inputs":[{"name":"sender","type":"address","internalType":"address"}],"outputs":[{"name":"","type":"bool","internalType":"bool"}],"stateMutability":"view"},{"type":"function","name":"_isSigner","inputs":[{"name":"sender","type":"address","internalType":"address"}],"outputs":[{"name":"","type":"bool","internalType":"bool"}],"stateMutability":"view"},{"type":"function","name":"actualTVL","inputs":[],"outputs":[{"name":"","type":"uint256","internalType":"uint256"}],"stateMutability":"view"},{"type":"function","name":"closeTransferTarget","inputs":[{"name":"to","type":"address","internalType":"address"}],"outputs":[],"stateMutability":"nonpayable"},{"type":"function","name":"currentRefreshId","inputs":[],"outputs":[{"name":"","type":"uint256","internalType":"uint256"}],"stateMutability":"view"},{"type":"function","name":"forms","inputs":[{"name":"","type":"uint256","internalType":"uint256"}],"outputs":[{"name":"from","type":"address","internalType":"address"},{"name":"to","type":"address","internalType":"address"}],"stateMutability":"view"},{"type":"function","name":"getBalance","inputs":[],"outputs":[{"name":"","type":"uint256","internalType":"uint256"}],"stateMutability":"view"},{"type":"function","name":"getForm","inputs":[{"name":"formId","type":"uint256","internalType":"uint256"}],"outputs":[{"name":"from","type":"address","internalType":"address"},{"name":"to","type":"address","internalType":"address"}],"stateMutability":"view"},{"type":"function","name":"getFormsCount","inputs":[],"outputs":[{"name":"","type":"uint256","internalType":"uint256"}],"stateMutability":"view"},{"type":"function","name":"getHexbase","inputs":[],"outputs":[{"name":"","type":"address","internalType":"address"}],"stateMutability":"view"},{"type":"function","name":"getImportedNodeByIndex","inputs":[{"name":"index","type":"uint256","internalType":"uint256"}],"outputs":[{"name":"node","type":"address","internalType":"address"}],"stateMutability":"view"},{"type":"function","name":"getUserOldData","inputs":[{"name":"user","type":"address","internalType":"address"}],"outputs":[{"name":"uold","type":"tuple","internalType":"struct TransferRequests.UserOldDataStr","components":[{"name":"rwrd","type":"uint256","internalType":"uint256"},{"name":"royl","type":"uint256","internalType":"uint256"},{"name":"self","type":"uint256","internalType":"uint256"},{"name":"yei","type":"uint256","internalType":"uint256"},{"name":"tour1","type":"uint256","internalType":"uint256"},{"name":"tour2","type":"uint256","internalType":"uint256"},{"name":"tvl","type":"uint256","internalType":"uint256"},{"name":"claimeddollar","type":"uint256","internalType":"uint256"},{"name":"oldRWRD","type":"uint256","internalType":"uint256"},{"name":"oldYEILD","type":"uint256","internalType":"uint256"},{"name":"exists","type":"bool","internalType":"bool"}]}],"stateMutability":"view"},{"type":"function","name":"getimportedNodeCount","inputs":[],"outputs":[{"name":"nodesCount","type":"uint256","internalType":"uint256"}],"stateMutability":"view"},{"type":"function","name":"importRankBusiness","inputs":[{"name":"_fromAge","type":"uint256","internalType":"uint256"},{"name":"_toAge","type":"uint256","internalType":"uint256"}],"outputs":[],"stateMutability":"nonpayable"},{"type":"function","name":"importStorActiveParent","inputs":[{"name":"users","type":"address[]","internalType":"address[]"}],"outputs":[],"stateMutability":"nonpayable"},{"type":"function","name":"importedNode","inputs":[{"name":"","type":"uint256","internalType":"uint256"}],"outputs":[{"name":"","type":"address","internalType":"address"}],"stateMutability":"view"},{"type":"function","name":"isStorActivateParentDone","inputs":[{"name":"","type":"address","internalType":"address"}],"outputs":[{"name":"","type":"bool","internalType":"bool"}],"stateMutability":"view"},{"type":"function","name":"owner","inputs":[],"outputs":[{"name":"","type":"address","internalType":"address"}],"stateMutability":"view"},{"type":"function","name":"refreshusers","inputs":[{"name":"batchSize","type":"uint256","internalType":"uint256"},{"name":"maxintervals","type":"uint256","internalType":"uint256"},{"name":"lastdays","type":"uint256","internalType":"uint256"}],"outputs":[],"stateMutability":"nonpayable"},{"type":"function","name":"resolveParent","inputs":[{"name":"","type":"address","internalType":"address"}],"outputs":[{"name":"","type":"address","internalType":"address"}],"stateMutability":"view"},{"type":"function","name":"resolveTransferTarget","inputs":[{"name":"to","type":"address","internalType":"address"}],"outputs":[{"name":"","type":"address","internalType":"address"}],"stateMutability":"view"},{"type":"function","name":"setsysdata","inputs":[{"name":"price","type":"uint256","internalType":"uint256"},{"name":"prevAge","type":"uint256","internalType":"uint256"},{"name":"cnt","type":"uint256[7]","internalType":"uint256[7]"}],"outputs":[],"stateMutability":"nonpayable"},{"type":"function","name":"setsysdatawithrefresh","inputs":[{"name":"batchSize","type":"uint256","internalType":"uint256"},{"name":"maxintervals","type":"uint256","internalType":"uint256"},{"name":"lastdays","type":"uint256","internalType":"uint256"},{"name":"price","type":"uint256","internalType":"uint256"},{"name":"prevAge","type":"uint256","internalType":"uint256"},{"name":"cnt","type":"uint256[7]","internalType":"uint256[7]"}],"outputs":[],"stateMutability":"nonpayable"},{"type":"function","name":"submitTransferForm","inputs":[{"name":"_from","type":"address","internalType":"address"},{"name":"_to","type":"address","internalType":"address"}],"outputs":[],"stateMutability":"nonpayable"},{"type":"function","name":"syncBaseAddr","inputs":[],"outputs":[],"stateMutability":"nonpayable"},{"type":"function","name":"syncSystem","inputs":[],"outputs":[],"stateMutability":"nonpayable"},{"type":"function","name":"syncusers","inputs":[{"name":"batchSize","type":"uint256","internalType":"uint256"}],"outputs":[],"stateMutability":"nonpayable"},{"type":"function","name":"systemAge","inputs":[],"outputs":[{"name":"","type":"uint256","internalType":"uint256"}],"stateMutability":"view"},{"type":"function","name":"updateData1","inputs":[{"name":"users","type":"address[]","internalType":"address[]"},{"name":"tvls","type":"uint256[]","internalType":"uint256[]"},{"name":"claimdollar","type":"uint256[]","internalType":"uint256[]"},{"name":"tour1","type":"uint256[]","internalType":"uint256[]"},{"name":"tour2","type":"uint256[]","internalType":"uint256[]"},{"name":"action","type":"uint256","internalType":"uint256"}],"outputs":[],"stateMutability":"nonpayable"},{"type":"function","name":"updateData2","inputs":[{"name":"users","type":"address[]","internalType":"address[]"},{"name":"rwrd","type":"uint256[]","internalType":"uint256[]"},{"name":"royl","type":"uint256[]","internalType":"uint256[]"},{"name":"self","type":"uint256[]","internalType":"uint256[]"},{"name":"yei","type":"uint256[]","internalType":"uint256[]"},{"name":"action","type":"uint256","internalType":"uint256"}],"outputs":[],"stateMutability":"nonpayable"},{"type":"event","name":"EthBurned","inputs":[{"name":"sender","type":"address","indexed":true,"internalType":"address"},{"name":"amount","type":"uint256","indexed":false,"internalType":"uint256"}],"anonymous":false},{"type":"event","name":"EthTransferred","inputs":[{"name":"to","type":"address","indexed":true,"internalType":"address"},{"name":"amount","type":"uint256","indexed":false,"internalType":"uint256"}],"anonymous":false},{"type":"event","name":"HexBaseUpdated","inputs":[{"name":"previousHexBase","type":"address","indexed":true,"internalType":"address"},{"name":"newHexBase","type":"address","indexed":true,"internalType":"address"}],"anonymous":false},{"type":"event","name":"OwnerUpdated","inputs":[{"name":"previousOwner","type":"address","indexed":true,"internalType":"address"},{"name":"newOwner","type":"address","indexed":true,"internalType":"address"}],"anonymous":false},{"type":"error","name":"CallFailed","inputs":[]},{"type":"error","name":"InvalidAddress","inputs":[]},{"type":"error","name":"InvalidState","inputs":[]},{"type":"error","name":"NotAuthorized","inputs":[]},{"type":"error","name":"NotSafe","inputs":[]},{"type":"error","name":"ProposerInvalidFormId","inputs":[]},{"type":"error","name":"ProposerToExists","inputs":[]},{"type":"error","name":"ProxyInvalidInstance","inputs":[]},{"type":"error","name":"ProxyInvalidNode","inputs":[]},{"type":"error","name":"ProxyInvalidStor","inputs":[]},{"type":"error","name":"ReentrancyGuardReentrantCall","inputs":[]},{"type":"error","name":"TargetCallFailed","inputs":[{"name":"selector","type":"bytes4","internalType":"bytes4"}]},{"type":"error","name":"UtilityBatchInvalid","inputs":[]},{"type":"error","name":"UtilityBatchLimitExceeded","inputs":[]},{"type":"error","name":"UtilityImportDone","inputs":[]},{"type":"error","name":"UtilityUnsecureFailed","inputs":[]}],"bytecode":{"object":"0x608034620000a357601f6200387d38819003918201601f19168301916001600160401b03831184841017620000a857808492602094604052833981010312620000a357516001600160a01b03811690819003620000a3578015620000915760018060a01b03193381600154161760015560005416176000556001600d5560016013556040516137be9081620000bf8239f35b60405163e6c4247b60e01b8152600490fd5b600080fd5b634e487b7160e01b600052604160045260246000fdfe60806040526004361015610018575b361561001657005b005b60003560e01c8063083d69381461026857806312065fe0146102635780631480a85b1461025e57806315f694eb1461025957806318c864e3146102545780631f185d161461024f57806323b0586f1461024a578063339459a6146102455780633b9b795514610240578063479fa2c31461023b5780634ef260a91461023657806355ed5fee1461023157806357ea89b61461022c57806385301b86146102275780638d6edc14146102225780638da5cb5b1461021d57806390a803ed1461021857806396970c9614610213578063a1f7f5391461020e578063ab7e46ae14610209578063ac23334514610204578063add43bca146101ff578063af484526146101fa578063b3cea918146101f5578063b8f1759a146101f0578063b90306ad146101eb578063c1e6cec2146101e6578063c54e44b0146101e1578063c9a29150146101dc578063cab3cc8d146101d7578063e01ad5fd146101d2578063e0a9bc2b146101cd578063e846034a146101c8578063e981bcad146101c3578063ed6c1b58146101be578063f245fe7a146101b95763fdc10bc90361000e576124b3565b61201a565b611ec0565b611e0d565b611def565b611dd4565b611d0d565b611cef565b611c8f565b611c21565b611be4565b611afc565b611ab3565b6119e3565b611933565b6118d2565b611899565b611850565b6117e6565b6117a7565b611765565b6116d4565b6116b6565b611569565b61134c565b61132e565b611262565b61120a565b6111e1565b610e1b565b610c0e565b610b4b565b610afe565b610817565b6105ef565b6105b6565b61033c565b9181601f8401121561029d578235916001600160401b03831161029d576020808501948460051b01011161029d57565b600080fd5b60c060031982011261029d576004906001600160401b03823581811161029d57826102ce91850161026d565b9490949360243583811161029d57846102e891830161026d565b9490949360443581811161029d578261030291850161026d565b9490949360643583811161029d578461031c91830161026d565b9490949360843590811161029d57610334920161026d565b909160a43590565b3461029d5761034a366102a2565b9961035b97919596979492946124f2565b610363613371565b1561059957610371336133e3565b8015610585575b156105615761038d610389306133e3565b1590565b6105735760005b8a81106103a5576100166001600d55565b6103b86103b3828d8561305c565b61306c565b906103d2610389600a6103ca856116fd565b015460ff1690565b61056157610452918a828f8e8d828a93156000146104575750836103f99161040c9661305c565b356007610405876116fd565b015561305c565b356006610418836116fd565b015561042582888861305c565b356004610431836116fd565b0155600561044a610443848c8c61305c565b35926116fd565b01555b6126ce565b610394565b600181036104db57508361046e9161048d9661305c565b35610486600761047d886116fd565b019182546126c1565b905561305c565b3561049c600661047d846116fd565b90556104a982888861305c565b356104b8600461047d846116fd565b90556104d4600561047d6104cd858d8d61305c565b35936116fd565b90556126ce565b6002146104ee575b5050505050506126ce565b836104fc916105149661305c565b35610486600761050b886116fd565b019182546125f0565b35610523600661050b846116fd565b905561053082888861305c565b3561053f600461050b846116fd565b9055610554600561050b6104cd858d8d61305c565b9055388a82868e8d6104e3565b60405163ea8e4eb560e01b8152600490fd5b6040516327e23e1560e11b8152600490fd5b506005546001600160a01b03163314610378565b604051634ee2123760e11b8152600490fd5b600091031261029d57565b3461029d57600036600319011261029d57602047604051908152f35b6001600160a01b031690565b6001600160a01b0381160361029d57565b3461029d5760408060031936011261029d57600490813591610610836105de565b6024359161061d836105de565b6001600160a01b038481168015610808578185161561080857331415806107f6575b806107df575b6107d15761065284611717565b546107c3576001610661612579565b5061066c87826125ac565b019461067885876125ac565b61068f61068a61068a848754166105d2565b6105d2565b8351630dda4f8160e11b8152602095918690829081806106b1888289016111ce565b03915afa801561079b5761068a87956106e661068a936107089b6106ee966000926107a0575b506106e190611731565b6125ac565b8454166105d2565b908451809781948293630e5fd00b60e01b845283016111ce565b03915afa90811561079b576107539360009261076c575b505163641657cb60e01b928101929092526001602483015261074e82604481015b03601f1981018452836114a2565b6136d4565b5061076961076460115492546105d2565b611717565b55005b61078d919250833d8511610794575b61078581836114a2565b8101906124ce565b903861071f565b503d61077b565b6124e6565b6106e19192506107bc908b3d8d116107945761078581836114a2565b91906106d7565b50516314973f6d60e31b8152fd5b505163ea8e4eb560e01b8152fd5b50336107ef61068a6005546105d2565b1415610645565b50610803610389336133e3565b61063f565b50505163e6c4247b60e01b8152fd5b3461029d5760208060031936011261029d57600480356001600160401b03811161029d57610848903690830161026d565b91906108526124f2565b61085a613371565b15610a9a57610868336133e3565b8015610a86575b15610a7657610880610389306133e3565b610a665761089461068a61068a84546105d2565b9060005b8481106108a9576100166001600d55565b6108b76103b382878561305c565b906108c9610389600a6103ca856116fd565b610a55576108e06108d98361174b565b5460ff1690565b610a55576108fd6108f08361174b565b805460ff19166001179055565b6006610908836116fd565b015461091e575b61091991506126ce565b610898565b60018060a01b0361094781861689604095865180948192630dda4f8160e11b83528c83016111ce565b0381845afa90811561079b578a92600092610a36575b5083821661096f575b5050505061090f565b9061098e9291865180809581946376fe6c4560e01b83528d83016111ce565b03915afa90811561079b57600091610a19575b5016918215610a0a57823b1561029d57600090518093630711e58760e41b82528183816109d58b8201906001602083019252565b03925af191821561079b57610919926109f1575b878180610966565b806109fe610a0492611439565b806105ab565b386109e9565b5163216ef5cb60e11b81528590fd5b610a309150893d8b116107945761078581836114a2565b386109a1565b610a4e919250833d85116107945761078581836114a2565b903861095d565b60405163ea8e4eb560e01b81528590fd5b506040516327e23e1560e11b8152fd5b5060405163ea8e4eb560e01b8152fd5b506005546001600160a01b0316331461086f565b50604051634ee2123760e11b8152fd5b634e487b7160e01b600052603260045260246000fd5b601154811015610adf57601160005260206000209060011b0190600090565b610aaa565b6001600160a01b0391821681529116602082015260400190565b3461029d57602036600319011261029d5760043560115481101561029d57610b2590610ac0565b5060018060a01b036001818354169201541690610b4760405192839283610ae4565b0390f35b3461029d5760208060031936011261029d57610bbe600435610b6c816105de565b6002546040516001600160a01b03928316858201528481529116610b8f82611451565b60405190610b9c82611451565b601182527069735369676e657228616464726573732960781b858301526135a8565b919080610c04575b15610bf2578181610be092610b479451830101910161335d565b60405190151581529081906020820190565b604051633204506f60e01b8152600490fd5b5080825114610bc6565b3461029d57610c1c366102a2565b95979699610c2e9591959492946124f2565b610c36613371565b1561059957610c44336133e3565b8015610e07575b1561056157610c61610c5c306133e3565b613076565b60005b8a8110610c75576100166001600d55565b610c836103b3828d8561305c565b90610c95610389600a6103ca856116fd565b61056157610d03918a828f8e88918e8015600014610d08575083610cbc91610ccc9661305c565b35610cc6866116fd565b5561305c565b356001610cd8836116fd565b0155610ce582888861305c565b356002610cf1836116fd565b0155600361044a610443848c8c61305c565b610c64565b60019590868103610d79575091610d2885610d3d9593610d48979561305c565b35610486610d35896116fd565b9182546126c1565b359161047d846116fd565b9055610d5582888861305c565b35610d64600261047d846116fd565b90556104d4600361047d6104cd858d8d61305c565b9594919390926002809714610d96575b50505050505050506126ce565b610da783610dc796610dbc9661305c565b35610486610db48a6116fd565b9182546125f0565b359161050b856116fd565b9055610de2610dd7848a8a61305c565b359161050b846116fd565b9055610df7600361050b6104cd858d8d61305c565b90553880808f8d8f898791610d89565b506005546001600160a01b03163314610c4b565b3461029d576000806003193601126111cb57610e3a61068a82546105d2565b60408051634bf9c0ad60e11b81529160049190602080858581855afa94851561079b5786956111ac575b50825163cfbffe5360e01b81529281848681865afa93841561079b57879461118d575b50805163ab6e844f60e01b815282818781875afa90811561079b578891611170575b508151630536340960e21b815283818881885afa90811561079b578991611153575b50825163d1f956b160e01b81529084828981895afa91821561079b578a92611134575b508351631cc3bfab60e31b81529285848a818a5afa93841561079b578b94611115575b50845163e09d394d60e01b81529486868b818b5afa95861561079b578c966110f6575b5080516314ac1b5960e21b815298878a8c818c5afa97881561079b57610f7b9a8e996110d7575b50808c8451809d819263013cf08b60e01b83528201906000602083019252565b03818d5afa998a1561079b578c9b8f9b6110b8575b50818451809d635e09dbe760e01b825281845afa9b8c1561079b578f9c611097575b50819084519d8e8092635506ee0b60e11b82525afa9b8c1561079b578e9c611078575b50610fde6114c5565b9c610fe9908e613128565b8c0190610ff591613128565b8a019061100191613128565b61100e9060608a01613128565b61101b9060808901613128565b6110289060a08801613128565b6110359060c08701613128565b6110429060e08601613128565b611050906101008501613128565b61105e906101208401613128565b61106c906101408301613128565b61107590613137565b80f35b81611090929d508d3d106107945761078581836114a2565b9a38610fd5565b82919c506110b190823d84116107945761078581836114a2565b9b90610fb2565b6110d0919b50823d84116107945761078581836114a2565b9938610f90565b816110ef929a503d8b116107945761078581836114a2565b9738610f5b565b61110e919650873d89116107945761078581836114a2565b9438610f34565b61112d919450863d88116107945761078581836114a2565b9238610f11565b61114c919250853d87116107945761078581836114a2565b9038610eee565b61116a9150843d86116107945761078581836114a2565b38610ecb565b6111879150833d85116107945761078581836114a2565b38610ea9565b6111a5919450823d84116107945761078581836114a2565b9238610e87565b816111c49296503d87116107945761078581836114a2565b9338610e64565b80fd5b6001600160a01b03909116815260200190565b3461029d57600036600319011261029d576000546040516001600160a01b039091168152602090f35b3461029d57602036600319011261029d5760043580158015611257575b61124557600019810190811161124057610b2590610ac0565b6125cb565b604051634ba3caa560e11b8152600490fd5b506011548111611227565b3461029d57602036600319011261029d5760043561127f816105de565b336001600160a01b03821614158061131c575b80611305575b610561576112a581611717565b54801515806112f9575b6112b557005b610016916112cd6112c86112e9936125e1565b610ac0565b505060006112da82611717565b556112e481612652565b611731565b80546001600160a01b0319169055565b506011548111156112af565b503361131561068a6005546105d2565b1415611298565b50611329610389336133e3565b611292565b3461029d57600036600319011261029d576020601354604051908152f35b3461029d576000806003193601126111cb57611366613371565b1561059957611374336133e3565b801561140f575b15610561576113886124f2565b6004602061139961068a84546105d2565b60405163de433f1760e01b815292839182905afa90811561079b5782808093819382916113f1575b504790829082156113e7575b6001600160a01b031690f11561079b576110756001600d55565b6108fc91506113cd565b611409915060203d81116107945761078581836114a2565b386113c1565b506005546001600160a01b0316331461137b565b634e487b7160e01b600052604160045260246000fd5b6001600160401b03811161144c57604052565b611423565b604081019081106001600160401b0382111761144c57604052565b60e081019081106001600160401b0382111761144c57604052565b602081019081106001600160401b0382111761144c57604052565b601f909101601f19168101906001600160401b0382119082101761144c57604052565b6040519061016082016001600160401b0381118382101761144c57604052565b806063121561029d57604051906114fb8261146c565b8161012491821161029d576044905b8282106115175750505090565b813581526020918201910161150a565b8060c3121561029d576040519061153d8261146c565b8161018491821161029d5760a4905b8282106115595750505090565b813581526020918201910161154c565b3461029d5761012036600319011261029d57611584366114e5565b61158c6124f2565b611594613371565b15610599576115a2336133e3565b80156116a2575b1561056157600460009160206115c261068a85546105d2565b6040516369e8d84b60e11b815293849182905afa91821561079b578392611611918491611684575b506040516315ec7fad60e01b602082015260043560248201529061074e8260448101610740565b5061162661068a61068a61068a6004546105d2565b90813b1561168057829161165391604051948580948193637818cdd760e01b8352602435600484016130f1565b03925af1801561079b5761166d575b506110756001600d55565b806109fe61167a92611439565b38611662565b5050fd5b61169c915060203d81116107945761078581836114a2565b386115ea565b506005546001600160a01b031633146115a9565b3461029d57600036600319011261029d576020601454604051908152f35b3461029d57600036600319011261029d576001546040516001600160a01b039091168152602090f35b6001600160a01b03166000908152600e6020526040902090565b6001600160a01b03166000908152600f6020526040902090565b6001600160a01b0316600090815260106020526040902090565b6001600160a01b0316600090815260156020526040902090565b3461029d57602036600319011261029d57600435611782816105de565b60018060a01b03166000526015602052602060ff604060002054166040519015158152f35b3461029d57602036600319011261029d5760206004356117c6816105de565b60018060a01b038091166000526010825260406000205416604051908152f35b3461029d57600036600319011261029d57602061184860018060a01b036006541660405161181381611451565b601381527267657464656c656761746f72436f756e74282960681b848201526040519161183f83611487565b60008352613667565b604051908152f35b3461029d57602036600319011261029d5760043560125481101561029d57601260005260008051602061376983398151915201546040516001600160a01b039091168152602090f35b3461029d57602036600319011261029d5760206118c06004356118bb816105de565b6125fd565b6040516001600160a01b039091168152f35b3461029d57602036600319011261029d576118eb6124f2565b6118f3613371565b1561059957611901336133e3565b801561191f575b1561056157611918600435612b68565b6001600d55005b506005546001600160a01b03163314611908565b3461029d57602036600319011261029d57602061195a600435611955816105de565b6133e3565b6040519015158152f35b6119e190929192610160810193805182526020810151602083015260408101516040830152606081015160608301526080810151608083015260a081015160a083015260c081015160c083015260e081015160e0830152610100808201519083015261012080820151908301526101408091015191019015159052565b565b3461029d57602036600319011261029d57600435611a00816105de565b611a08612515565b506001600160a01b03166000908152600e60205260409020610b4790611aa7611a9d600a611a346114c5565b938054855260018101546020860152600281015460408601526003810154606086015260048101546080860152600581015460a0860152600681015460c0860152600781015460e086015260088101546101008601526009810154610120860152015460ff1690565b1515610140830152565b60405191829182611964565b3461029d57602036600319011261029d57600435601254811015610adf57601260005260008051602061376983398151915201546040516001600160a01b039091168152602090f35b3461029d57602036600319011261029d57600435611b18613371565b15610599576005546001600160a01b031633036105615760009060046020611b4361068a85546105d2565b6040516311be646b60e21b815292839182905afa801561079b5783808481949382948391611bc6575b505af1611b776134a1565b5015610bf2577fcdcc745fe377b103b45fa0cec23ae3ef93d6fc6a84a01f0d18c40b354dd1d5d8611bc0611baf61068a600b546105d2565b604051938452929081906020820190565b0390a280f35b611bde915060203d81116107945761078581836114a2565b38611b6c565b3461029d57602036600319011261029d57600435611c01816105de565b60018060a01b0316600052600f6020526020604060002054604051908152f35b3461029d57602036600319011261029d57600435611c3e816105de565b803b6000611c4b82612954565b92611c5960405194856114a2565b82845260208401903c602d815110611c7d57602a602091015160601c604051908152f35b60405163baf3f0f760e01b8152600490fd5b3461029d57606036600319011261029d57611ca86124f2565b611cb0613371565b1561059957611cbe336133e3565b8015611cdb575b1561056157611918604435602435600435612702565b506005546001600160a01b03163314611cc5565b3461029d57600036600319011261029d576020601154604051908152f35b3461029d5760208060031936011261029d57610b479060043590611d30826105de565b6006546040516001600160a01b0393841683820152828152921691611d9090611d5881611451565b604051611d6481611451565b6018815277697364656c656761746f724e6f646528616464726573732960401b848201526000946135a8565b919080611dca575b611db1575b505060405190151581529081906020820190565b611dc39250808251830101910161335d565b3880611d9d565b5080825114611d98565b3461029d57600036600319011261029d57602061195a613371565b3461029d57600036600319011261029d576020601254604051908152f35b3461029d57604036600319011261029d57611e266124f2565b611e2e613371565b1561059957611e3c336133e3565b8015611eac575b15610561576004546001600160a01b0316803b1561029d57600080916044604051809481936333b59a5b60e01b8352600435600484015260243560248401525af1801561079b57611e99575b6100166001600d55565b806109fe611ea692611439565b38611e8f565b506005546001600160a01b03163314611e43565b3461029d5761018036600319011261029d57611edb36611527565b611ee36124f2565b611eeb613371565b1561059957611ef9336133e3565b8015612006575b156105615760046000916020611f1961068a85546105d2565b6040516369e8d84b60e11b815293849182905afa91821561079b578392611f68918491611fe8575b506040516315ec7fad60e01b602082015260643560248201529061074e8260448101610740565b50611f7d61068a61068a61068a6004546105d2565b90813b15611680578291611faa91604051948580948193637818cdd760e01b8352608435600484016130f1565b03925af1801561079b57611fd5575b50611fcb604435602435600435612702565b6110756001600d55565b806109fe611fe292611439565b38611fb9565b612000915060203d81116107945761078581836114a2565b38611f41565b506005546001600160a01b03163314611f00565b3461029d576000806003193601126111cb576120346124f2565b61204161068a82546105d2565b60408051634bf9c0ad60e11b8152602092600492919084908290859082905afa801561079b5761207891869161249c575b506130bc565b818361208761068a87546105d2565b83516369e8d84b60e11b815292839182905afa801561079b576120b091869161249c57506130bc565b81836120bf61068a87546105d2565b835163ab6e844f60e01b815292839182905afa801561079b576120e891869161249c57506130bc565b81836120f761068a87546105d2565b835163cfbffe5360e01b815292839182905afa801561079b5761212091869161249c57506130bc565b818361212f61068a87546105d2565b8351630536340960e21b815292839182905afa801561079b5761215891869161249c57506130bc565b818361216761068a87546105d2565b835163d1f956b160e01b815292839182905afa801561079b5761219091869161249c57506130bc565b818361219f61068a87546105d2565b8351631cc3bfab60e31b815292839182905afa801561079b576121c891869161249c57506130bc565b81836121d761068a87546105d2565b835163e09d394d60e01b815292839182905afa801561079b5761220091869161249c57506130bc565b818361220f61068a87546105d2565b83516314ac1b5960e21b815292839182905afa801561079b5761223891869161249c57506130bc565b61224561068a85546105d2565b838251809263013cf08b60e01b82528180612267888201906000602083019252565b03915afa801561079b5761228191869161249c57506130bc565b61228e61068a85546105d2565b9080518481635bb8e44b60e11b9485825281806122b2898201906000602083019252565b03915afa801561079b576122cc91879161248557506130bc565b6122d961068a86546105d2565b848251809285825281806122f4898201906001602083019252565b03915afa801561079b5761230e91879161248557506130bc565b61231b61068a86546105d2565b84825180928582528180612336898201906002602083019252565b03915afa801561079b5761235091879161248557506130bc565b61235d61068a86546105d2565b84825180928582528180612378898201906003602083019252565b03915afa801561079b5761239291879161248557506130bc565b836123a061068a87546105d2565b928251938491825281806123bb888201906004602083019252565b03915afa91821561079b5783926123d891879161248557506130bc565b836123e661068a87546105d2565b8251635e09dbe760e01b815293849182905afa91821561079b57849261241291879161246857506130bc565b61241f61068a86546105d2565b9051635506ee0b60e11b815292839182905afa90811561079b57611fcb92849261244b575b50506130bc565b6124619250803d106107945761078581836114a2565b3880612444565b61247f9150843d86116107945761078581836114a2565b38612072565b61247f9150863d88116107945761078581836114a2565b61247f9150853d87116107945761078581836114a2565b3461029d57600036600319011261029d576020611848613464565b9081602091031261029d57516124e3816105de565b90565b6040513d6000823e3d90fd5b6002600d5414612503576002600d55565b604051633ee5aeb560e01b8152600490fd5b6040519061016082016001600160401b0381118382101761144c57604052816101406000918281528260208201528260408201528260608201528260808201528260a08201528260c08201528260e082015282610100820152826101208201520152565b601154600160401b81101561144c576001810180601155811015610adf57601160005260206000209060011b0190600090565b80546001600160a01b0319166001600160a01b03909216919091179055565b634e487b7160e01b600052601160045260246000fd5b60001981019190821161124057565b9190820391821161124057565b6001600160a01b039081166000908152600f602052604090205480151580612646575b61262b575050600090565b60001981019081116112405761264090610ac0565b50541690565b50601154811115612620565b601254600160401b81101561144c576001810180601255811015610adf5760126000526000805160206137698339815191520180546001600160a01b0319166001600160a01b03909216919091179055565b9081602091031261029d575190565b906001820180921161124057565b9190820180921161124057565b60001981146112405760010190565b919082604091031261029d57602082516126f6816105de565b9201516124e3816105de565b908115801561294a575b6129385760049061272661068a61068a61068a85546105d2565b6040918251948592630c3d4e4160e31b8452838660209586935afa95861561079b57600096612919575b508515612910578560135411612901575b61277661277160135492836126c1565b6125e1565b968688116128f7575b6127909061278b613464565b6125f0565b905b878111156127c6575050505050508110156000146127b557506119e16001601355565b6127c16119e1916126b3565b601355565b6127d961068a61068a61068a89546105d2565b9085805180936315dd729760e11b825281806127fc868d83019190602083019252565b03915afa91821561079b5760009081936128c5575b506001600160a01b03928690828516156128b8578989518096819363725b6fff60e01b8352165afa801561079b576128599360009161288b575b50841161285e575b506126ce565b612792565b8651639c75dd3560e01b87820152602481018690526128849161074e8260448101610740565b5038612853565b6128ab9150873d89116128b1575b6128a381836114a2565b8101906126a4565b3861284b565b503d612899565b50505061285991506126ce565b90506128e8919250863d88116128f0575b6128e081836114a2565b8101906126dd565b919038612811565b503d6128d6565b959650869561277f565b61290b6001601355565b612761565b50505050505050565b612931919650833d85116128b1576128a381836114a2565b9438612750565b6040516337d5a83360e11b8152600490fd5b506064821161270c565b6001600160401b03811161144c57601f01601f191660200190565b6040519061297c82611451565b60178252766765744e6f64654279496e6465782875696e743235362960481b6020830152565b604051906129af82611451565b6013825272496e7374546f5573657228616464726573732960681b6020830152565b604051906129de82611451565b601082526f6765744e6f646528616464726573732960801b6020830152565b5190811515820361029d57565b908160a091031261029d578051916020820151612a26816105de565b916040810151916124e36080612a3e606085016129fd565b93016129fd565b60405190612a5282611451565b601682527567657455736572546f53746f7228616464726573732960501b6020830152565b9060e08282031261029d5780601f8301121561029d5760405191612a9a8361146c565b829060e0810192831161029d57905b828210612ab65750505090565b8151815260209182019101612aa9565b600a612b396101406119e194805185556020810151600186015560408101516002860155606081015160038601556080810151600486015560a0810151600586015560c0810151600686015560e08101516007860155610100810151600886015561012081015160098601550151151590565b91019060ff801983541691151516179055565b919082604091031261029d57602082519201516124e3816105de565b60648111612ff457612b7c610389306133e3565b61057357600090612b9061068a83546105d2565b91604092835180809263111ea8c160e21b8252602092839160049384915afa92831561079b578493612fd5575b508551630c3d4e4160e31b80825290956001600160a01b039190848885818987165afa97881561079b578798612fb6575b508715612fab5784612c0961068a61068a61068a88546105d2565b92858b518095819382525afa91821561079b578792612f8c575b5081881115612f7c57612c3690826126c1565b96808811612f74575b505b868110612c52575050505050505050565b875190612c8c82612c6a838883019190602083019252565b0392612c7e601f19948581018352826114a2565b612c8661296f565b88613659565b83811615612f6457803192612cc68b51612cb881612cac868c83016111ce565b038481018352826114a2565b612cc06129a2565b8a613659565b9185831615612f5457612cdd600a6103ca856116fd565b612f44578b9291612d2f612d218893612d138c612d07612cfb612515565b995193849283016111ce565b038581018352826114a2565b612d1b6129d1565b8d6134d1565b8a8082518301019101612a0a565b50505092909216918015612f345787918a8f8d60018895148015612f2b575b612ede575b5091612d8591612d798594612d6e896106e1612d9299611731565b5194859283016111ce565b039081018352826114a2565b612d8d612a45565b613616565b168015612ece578c516294b20960e51b81526004818a019081526000602082015260e09594939286918391908290819060400103915afa93841561079b5760808f95612e0e938f98612e479992612ea1575b50506001610140840152868101516101008401520151610120820152612e09846116fd565b612ac6565b612e188280613006565b612e2b61068a61068a61068a8b546105d2565b908b84518096819582946350db85d160e01b84528d8401610ae4565b03925af1801561079b57612e709361044d92612e6b92612e75575b506014546126c1565b601455565b612c41565b612e94908d803d10612e9a575b612e8c81836114a2565b810190612b4c565b50612e62565b503d612e82565b612ec09250803d10612ec7575b612eb881836114a2565b810190612a77565b3880612de4565b503d612eae565b8c5163216ef5cb60e11b81528890fd5b91612d79612f1d612f03612d8595612f0f869b612d929a9997519384918883016111ce565b038781018452836114a2565b612f176129a2565b90613659565b97929495505091508d612d53565b50861515612d4e565b8d5163486bd76360e11b81528990fd5b8b51633204506f60e01b81528790fd5b8b5163486bd76360e11b81528790fd5b895163e7ef22d560e01b81528590fd5b965038612c3f565b885163017c784560e61b81528490fd5b612fa4919250853d87116128b1576128a381836114a2565b9038612c23565b505050505050505050565b612fce919850853d87116128b1576128a381836114a2565b9638612bee565b612fed919350823d84116107945761078581836114a2565b9138612bbd565b60405163bf2a1c8760e01b8152600490fd5b60115490600160401b82101561144c576001839161303761302f858461303d9701601155610ac0565b5091826125ac565b016125ac565b6011546001600160a01b039091166000908152600f6020526040902055565b9190811015610adf5760051b0190565b356124e3816105de565b1561307d57565b60405162461bcd60e51b81526020600482015260176024820152761d5d1a5b1a5d1e4b9d5b9cd958dd5c994b99985a5b1959604a1b6044820152606490fd5b6001600160a01b0381166130cd5750565b6040516319ca2cd360e11b6020820152600481526130ee9161074e82611451565b50565b908152610100810192919060209060009082015b600782106131135750505050565b82806001928651815201940191019092613105565b6001600160a01b039091169052565b61333b6101406119e19261317061314e82516105d2565b600280546001600160a01b0319166001600160a01b0392909216919091179055565b6131a261318060208301516105d2565b600380546001600160a01b0319166001600160a01b0392909216919091179055565b6131d46131b260408301516105d2565b600480546001600160a01b0319166001600160a01b0392909216919091179055565b6132066131e460608301516105d2565b600580546001600160a01b0319166001600160a01b0392909216919091179055565b61323861321660808301516105d2565b600680546001600160a01b0319166001600160a01b0392909216919091179055565b61326a61324860a08301516105d2565b600780546001600160a01b0319166001600160a01b0392909216919091179055565b61329c61327a60c08301516105d2565b600880546001600160a01b0319166001600160a01b0392909216919091179055565b6132ce6132ac60e08301516105d2565b600980546001600160a01b0319166001600160a01b0392909216919091179055565b6133016132df6101008301516105d2565b600a80546001600160a01b0319166001600160a01b0392909216919091179055565b6133346133126101208301516105d2565b600b80546001600160a01b0319166001600160a01b0392909216919091179055565b01516105d2565b600c80546001600160a01b0319166001600160a01b0392909216919091179055565b9081602091031261029d576124e3906129fd565b6002546040516133b9916001600160a01b03169061338e81611451565b6008815267697353616665282960c01b6020820152604051916133b083611487565b600083526135a8565b90806133d8575b15610bf257806020806124e39351830101910161335d565b5060208151146133c0565b61343d60018060a01b03806002541660405191602094168483015283825261340a82611451565b6040519061341782611451565b601582527469735365637572654261736528616464726573732960581b858301526135a8565b908061345a575b15610bf257816124e3928251830101910161335d565b5081815114613444565b6003546040516124e3916001600160a01b03169061348181611451565b600681526569416765282960d01b60208201526040519161183f83611487565b3d156134cc573d906134b282612954565b916134c060405193846114a2565b82523d6000602084013e565b606090565b906134dc92916135a8565b90600090156134e9575090565b60405191506134f782611487565b815290565b9073a4cb3f45f46b3c31780d70568b0627b3339eb76d91823b1561358f578051906020918263ffffffff60e01b92012016916040519180830193845281519160005b83811061357b57505050918161356b602482600097959688970187838201520360048101845201826114a2565b51915afa6135776134a1565b9091565b81810183015185820160240152820161353e565b5050506000906040516135a181611487565b6000815290565b9190823b1561358f578051906020918263ffffffff60e01b92012016916040519180830193845281519160005b83811061360257505050918161356b602482600097959688970187838201520360048101845201826114a2565b8181018301518582016024015282016135d5565b60009291613623916134fc565b908061364e575b6136315750565b90915060208180518101031261029d57602001516105d2816105de565b50602081511461362a565b9291613623916000946135a8565b9291613675916000946135a8565b9080613698575b6136835750565b6124e3919250602080825183010191016126a4565b50602081511461367c565b906020825192015163ffffffff60e01b9081811693600481106136c557505050565b60040360031b82901b16169150565b6001600160a01b0381161561375657600080918351908260208601915af1906136fb6134a1565b9115613705575090565b8051600091906004116137505761371c91506136a3565b81511561372c5750805190602001fd5b604051630870274d60e21b81526001600160e01b0319919091166004820152602490fd5b5061371c565b60405163e6c4247b60e01b8152600490fdfebb8a6a4669ba250d26cd7a459eca9d215f8307e33aebe50379bc5a3617ec3444a264697066735822122022521810c216d1e5258971987b712829f8dd374b3a67c436bccd2667ac1b358a64736f6c63430008140033","linkReferences":{}},"methodIdentifiers":{"Burn(uint256)":"b90306ad","UserToForm(address)":"c1e6cec2","Withdraw()":"57ea89b6","_delegatorCount()":"a1f7f539","_getImplementation(address)":"c54e44b0","_isDelegatorNode(address)":"e01ad5fd","_isSafe()":"e0a9bc2b","_isSecureBase(address)":"af484526","_isSigner(address)":"1f185d16","actualTVL()":"8d6edc14","closeTransferTarget(address)":"4ef260a9","currentRefreshId()":"55ed5fee","forms(uint256)":"18c864e3","getBalance()":"12065fe0","getForm(uint256)":"479fa2c3","getFormsCount()":"cab3cc8d","getHexbase()":"3b9b7955","getImportedNodeByIndex(uint256)":"b8f1759a","getUserOldData(address)":"b3cea918","getimportedNodeCount()":"e846034a","importRankBusiness(uint256,uint256)":"e981bcad","importStorActiveParent(address[])":"15f694eb","importedNode(uint256)":"ab7e46ae","isStorActivateParentDone(address)":"90a803ed","owner()":"8da5cb5b","refreshusers(uint256,uint256,uint256)":"c9a29150","resolveParent(address)":"96970c96","resolveTransferTarget(address)":"ac233345","setsysdata(uint256,uint256,uint256[7])":"85301b86","setsysdatawithrefresh(uint256,uint256,uint256,uint256,uint256,uint256[7])":"ed6c1b58","submitTransferForm(address,address)":"1480a85b","syncBaseAddr()":"339459a6","syncSystem()":"f245fe7a","syncusers(uint256)":"add43bca","systemAge()":"fdc10bc9","updateData1(address[],uint256[],uint256[],uint256[],uint256[],uint256)":"083d6938","updateData2(address[],uint256[],uint256[],uint256[],uint256[],uint256)":"23b0586f"},"id":24}