{"abi":[{"type":"constructor","inputs":[{"name":"_f","type":"address","internalType":"address"}],"stateMutability":"nonpayable"},{"type":"fallback","stateMutability":"payable"},{"type":"receive","stateMutability":"payable"},{"type":"function","name":"Burn","inputs":[{"name":"amount","type":"uint256","internalType":"uint256"}],"outputs":[],"stateMutability":"nonpayable"},{"type":"function","name":"_delegatorCount","inputs":[],"outputs":[{"name":"","type":"uint256","internalType":"uint256"}],"stateMutability":"view"},{"type":"function","name":"_getImplementation","inputs":[{"name":"clone","type":"address","internalType":"address"}],"outputs":[{"name":"impl","type":"address","internalType":"address"}],"stateMutability":"view"},{"type":"function","name":"_isDelegatorNode","inputs":[{"name":"sender","type":"address","internalType":"address"}],"outputs":[{"name":"","type":"bool","internalType":"bool"}],"stateMutability":"view"},{"type":"function","name":"_isSafe","inputs":[],"outputs":[{"name":"","type":"bool","internalType":"bool"}],"stateMutability":"view"},{"type":"function","name":"_isSecureBase","inputs":[{"name":"sender","type":"address","internalType":"address"}],"outputs":[{"name":"","type":"bool","internalType":"bool"}],"stateMutability":"view"},{"type":"function","name":"_isSigner","inputs":[{"name":"sender","type":"address","internalType":"address"}],"outputs":[{"name":"","type":"bool","internalType":"bool"}],"stateMutability":"view"},{"type":"function","name":"getBalance","inputs":[],"outputs":[{"name":"","type":"uint256","internalType":"uint256"}],"stateMutability":"view"},{"type":"function","name":"isDaoSafe","inputs":[],"outputs":[{"name":"","type":"bool","internalType":"bool"}],"stateMutability":"view"},{"type":"function","name":"isNodeStopped","inputs":[{"name":"sender","type":"address","internalType":"address"}],"outputs":[{"name":"","type":"bool","internalType":"bool"}],"stateMutability":"view"},{"type":"function","name":"owner","inputs":[],"outputs":[{"name":"","type":"address","internalType":"address"}],"stateMutability":"view"},{"type":"function","name":"systemAge","inputs":[],"outputs":[{"name":"","type":"uint256","internalType":"uint256"}],"stateMutability":"view"}],"bytecode":{"object":"0x60806040523462000037576200001e6200001862000110565b62000264565b620000286200003d565b611ba56200029e8239611ba590f35b62000043565b60405190565b5f80fd5b601f801991011690565b634e487b7160e01b5f52604160045260245ffd5b90620000719062000047565b810190811060018060401b038211176200008a57604052565b62000051565b90620000a76200009f6200003d565b928362000065565b565b5f80fd5b60018060a01b031690565b620000c390620000ad565b90565b620000d181620000b8565b03620000d957565b5f80fd5b90505190620000ec82620000c6565b565b906020828203126200010a5762000107915f01620000dd565b90565b620000a9565b6200013362001e4380380380620001278162000090565b928339810190620000ee565b90565b90565b90565b620001556200014f6200015b9262000136565b62000139565b620000ad565b90565b62000169906200013c565b90565b5f1b90565b906200018460018060a01b03916200016c565b9181191691161790565b620001a7620001a1620001ad92620000ad565b62000139565b620000ad565b90565b620001bb906200018e565b90565b620001c990620001b0565b90565b90565b90620001e9620001e3620001f192620001be565b620001cc565b825462000171565b9055565b62000200906200018e565b90565b6200020e90620001f5565b90565b6200021c906200018e565b90565b6200022a9062000211565b90565b620002389062000211565b90565b90565b90620002586200025262000260926200022d565b6200023b565b825462000171565b9055565b620002946200028e6200029b9262000288620002805f6200015e565b6001620001cf565b62000203565b6200021f565b5f6200023e565b56fe60806040526004361015610018575b361561001657005b005b6100225f356100e1565b806312065fe0146100dc5780631f185d16146100d757806351bfd3ae146100d25780635c1a494a146100cd5780638da5cb5b146100c8578063a1f7f539146100c3578063af484526146100be578063b90306ad146100b9578063c54e44b0146100b4578063e01ad5fd146100af578063e0a9bc2b146100aa5763fdc10bc90361000e57610455565b610420565b6103eb565b6103b6565b610383565b610308565b6102d3565b61029e565b610247565b610212565b6101dd565b610129565b60e01c90565b60405190565b5f80fd5b5f80fd5b5f9103126100ff57565b6100f1565b90565b61011090610104565b9052565b9190610127905f60208501940190610107565b565b34610159576101393660046100f5565b6101556101446104c5565b61014c6100e7565b91829182610114565b0390f35b6100ed565b60018060a01b031690565b6101729061015e565b90565b61017e81610169565b0361018557565b5f80fd5b9050359061019682610175565b565b906020828203126101b1576101ae915f01610189565b90565b6100f1565b151590565b6101c4906101b6565b9052565b91906101db905f602085019401906101bb565b565b3461020d576102096101f86101f3366004610198565b610640565b6102006100e7565b918291826101c8565b0390f35b6100ed565b346102425761023e61022d610228366004610198565b610833565b6102356100e7565b918291826101c8565b0390f35b6100ed565b34610277576102573660046100f5565b6102736102626109e9565b61026a6100e7565b918291826101c8565b0390f35b6100ed565b61028590610169565b9052565b919061029c905f6020850194019061027c565b565b346102ce576102ae3660046100f5565b6102ca6102b9610ae4565b6102c16100e7565b91829182610289565b0390f35b6100ed565b34610303576102e33660046100f5565b6102ff6102ee610c0b565b6102f66100e7565b91829182610114565b0390f35b6100ed565b346103385761033461032361031e366004610198565b610dd6565b61032b6100e7565b918291826101c8565b0390f35b6100ed565b61034681610104565b0361034d57565b5f80fd5b9050359061035e8261033d565b565b9060208282031261037957610376915f01610351565b90565b6100f1565b5f0190565b346103b15761039b610396366004610360565b61103b565b6103a36100e7565b806103ad8161037e565b0390f35b6100ed565b346103e6576103e26103d16103cc366004610198565b611165565b6103d96100e7565b91829182610289565b0390f35b6100ed565b3461041b57610417610406610401366004610198565b61124b565b61040e6100e7565b918291826101c8565b0390f35b6100ed565b34610450576104303660046100f5565b61044c61043b6115e0565b6104436100e7565b918291826101c8565b0390f35b6100ed565b34610485576104653660046100f5565b6104816104706116d2565b6104786100e7565b91829182610114565b0390f35b6100ed565b5f90565b90565b6104a56104a06104aa9261015e565b61048e565b61015e565b90565b6104b690610491565b90565b6104c2906104ad565b90565b6104cd61048a565b506104d7306104b9565b3190565b5f90565b5f1c90565b60018060a01b031690565b6104fb610500916104df565b6104e4565b90565b61050d90546104ef565b90565b610519906104ad565b90565b601f801991011690565b634e487b7160e01b5f52604160045260245ffd5b906105449061051c565b810190811067ffffffffffffffff82111761055e57604052565b610526565b60e01b90565b9050519061057682610175565b565b906020828203126105915761058e915f01610569565b90565b6100f1565b61059e6100e7565b3d5f823e3d90fd5b906105b96105b26100e7565b928361053a565b565b67ffffffffffffffff81116105d9576105d560209161051c565b0190565b610526565b906105f06105eb836105bb565b6105a6565b918252565b5f7f69735369676e6572286164647265737329000000000000000000000000000000910152565b61062660116105de565b90610633602083016105f5565b565b61063d61061c565b90565b6106486104db565b50610675602061065f61065a5f610503565b610510565b6397f3815a9061066d6100e7565b938492610563565b825281806106856004820161037e565b03915afa801561070b576106d4926106b7925f926106d7575b506106c6906106ab6100e7565b93849160208301610289565b6020820181038252038361053a565b6106ce610635565b906117d9565b90565b6106c69192506106fd9060203d8111610704575b6106f5818361053a565b810190610578565b919061069e565b503d6106eb565b610596565b5f7f55736572546f496e737428616464726573732900000000000000000000000000910152565b61074160136105de565b9061074e60208301610710565b565b610758610737565b90565b90565b61077261076d6107779261075b565b61048e565b61015e565b90565b6107839061075e565b90565b5f7f697353757370656e642829000000000000000000000000000000000000000000910152565b6107b7600b6105de565b906107c460208301610786565b565b6107ce6107ad565b90565b6107da5f6105de565b90565b6107e56107d1565b90565b5f7f69734c6f636b2829000000000000000000000000000000000000000000000000910152565b61081960086105de565b90610826602083016107e8565b565b61083061080f565b90565b61083b6104db565b50610868602061085261084d5f610503565b610510565b63ab6e844f906108606100e7565b938492610563565b825281806108786004820161037e565b03915afa8015610999576108c7926108aa925f92610965575b506108b99061089e6100e7565b93849160208301610289565b6020820181038252038361053a565b6108c1610750565b90611893565b806108e26108dc6108d75f61077a565b610169565b91610169565b1415610918610901836108f36107c6565b6108fb6107dd565b916117d9565b9261090a610828565b6109126107dd565b916117d9565b61092282156101b6565b928315610930575b50505090565b90919250908161095d575b50908161094c575b505f808061092a565b6109579150156101b6565b5f610943565b90505f61093b565b6108b991925061098b9060203d8111610992575b610983818361053a565b810190610578565b9190610891565b503d610979565b610596565b5f7f64616f7361666561646472657373286164647265737329000000000000000000910152565b6109cf60176105de565b906109dc6020830161099e565b565b6109e66109c5565b90565b6109f16104db565b50610a1e6020610a08610a035f610503565b610510565b634162169f90610a166100e7565b938492610563565b82528180610a2e6004820161037e565b03915afa908115610aaf57610a7e91610a61915f91610a81575b50610a7033610a556100e7565b93849160208301610289565b6020820181038252038361053a565b610a786109de565b906117d9565b90565b610aa2915060203d8111610aa8575b610a9a818361053a565b810190610578565b5f610a48565b503d610a90565b610596565b5f90565b60018060a01b031690565b610acf610ad4916104df565b610ab8565b90565b610ae19054610ac3565b90565b610aec610ab4565b50610af76001610ad7565b90565b5f7f72616e6b666f7244414f28290000000000000000000000000000000000000000910152565b610b2b600c6105de565b90610b3860208301610afa565b565b610b42610b21565b90565b916020610b66929493610b5f60408201965f830190610107565b0190610107565b565b5f7f67657472616e6b636f756e742875696e743235362c75696e7432353629000000910152565b610b99601d6105de565b90610ba660208301610b68565b565b610bb0610b8f565b90565b90565b610bca610bc5610bcf92610bb3565b61048e565b610104565b90565b634e487b7160e01b5f52601160045260245ffd5b610bf5610bfb91939293610104565b92610104565b8201809211610c0657565b610bd2565b610c1361048a565b50610c406020610c2a610c255f610503565b610510565b63cfbffe5390610c386100e7565b938492610563565b82528180610c506004820161037e565b03915afa8015610d8657610c7c915f91610d58575b50610c6e610b3a565b610c766107dd565b91611936565b610ca86020610c92610c8d5f610503565b610510565b63ab6e844f90610ca06100e7565b938492610563565b82528180610cb86004820161037e565b03915afa918215610d5357610d2292610d12925f91610d25575b50610d04610cde6119a3565b610cf5610ce96100e7565b94859260208401610b45565b6020820181038252038361053a565b610d0c610ba8565b90611936565b610d1c6003610bb6565b90610be6565b90565b610d46915060203d8111610d4c575b610d3e818361053a565b810190610578565b5f610cd2565b503d610d34565b610596565b610d79915060203d8111610d7f575b610d71818361053a565b810190610578565b5f610c65565b503d610d67565b610596565b5f7f6973536563757265426173652861646472657373290000000000000000000000910152565b610dbc60156105de565b90610dc960208301610d8b565b565b610dd3610db2565b90565b610dde6104db565b50610e0b6020610df5610df05f610503565b610510565b6397f3815a90610e036100e7565b938492610563565b82528180610e1b6004820161037e565b03915afa8015610ea157610e6a92610e4d925f92610e6d575b50610e5c90610e416100e7565b93849160208301610289565b6020820181038252038361053a565b610e64610dcb565b906117d9565b90565b610e5c919250610e939060203d8111610e9a575b610e8b818361053a565b810190610578565b9190610e34565b503d610e81565b610596565b60209181520190565b5f7f6f776e2e6e6f6e617574682e44414f0000000000000000000000000000000000910152565b610ee3600f602092610ea6565b610eec81610eaf565b0190565b610f059060208101905f818303910152610ed6565b90565b15610f0f57565b610f176100e7565b62461bcd60e51b815280610f2d60048201610ef0565b0390fd5b610f5e906020610f48610f435f610503565b610510565b634162169f90610f566100e7565b948592610563565b82528180610f6e6004820161037e565b03915afa918215610fd657610fa692610fa1915f91610fa8575b50610f9b610f9533610169565b91610169565b14610f08565b610fff565b565b610fc9915060203d8111610fcf575b610fc1818361053a565b810190610578565b5f610f88565b503d610fb7565b610596565b610fe490610491565b90565b610ff090610fdb565b90565b610ffc906104ad565b90565b5f8080809361101d6110186110138461077a565b610fe7565b610ff3565b828215611032575bf11561102d57565b610596565b506108fc611025565b61104490610f31565b565b67ffffffffffffffff81116110645761106060209161051c565b0190565b610526565b9061107b61107683611046565b6105a6565b918252565b90813b5f61108d82611069565b9360208501903c565b5190565b90565b6110b16110ac6110b69261109a565b61048e565b610104565b90565b5f7f4e6f742061206d696e696d616c2070726f787900000000000000000000000000910152565b6110ed6013602092610ea6565b6110f6816110b9565b0190565b61110f9060208101905f8183039101526110e0565b90565b1561111957565b6111216100e7565b62461bcd60e51b815280611137600482016110fa565b0390fd5b5f90565b60601c90565b6111516111569161113f565b610491565b90565b61116290611145565b90565b602a61117c6111b292611176610ab4565b50611080565b6111a261118882611096565b61119b611195602d61109d565b91610104565b1015611112565b6111aa61113b565b500151611159565b90565b5f7f67657445666665637469766552616e6b28616464726573732900000000000000910152565b6111e660196105de565b906111f3602083016111b5565b565b6111fd6111dc565b90565b5f7f697353746f702861646472657373290000000000000000000000000000000000910152565b611231600f6105de565b9061123e60208301611200565b565b611248611227565b90565b6112536104db565b50611280602061126a6112655f610503565b610510565b63cfbffe53906112786100e7565b938492610563565b825281806112906004820161037e565b03915afa8015611590576112bc915f91611562575b506112ae610b3a565b6112b66107dd565b91611936565b906112e960206112d36112ce5f610503565b610510565b63ab6e844f906112e16100e7565b938492610563565b825281806112f96004820161037e565b03915afa801561155d576113489261132b925f92611529575b5061133a9061131f6100e7565b93849160208301610289565b6020820181038252038361053a565b611342610750565b90611893565b90611375602061135f61135a5f610503565b610510565b63ab6e844f9061136d6100e7565b938492610563565b825281806113856004820161037e565b03915afa908115611524576113d5916113b8915f916114f6575b506113c7856113ac6100e7565b93849160208301610289565b6020820181038252038361053a565b6113cf6111f5565b90611936565b9061140260206113ec6113e75f610503565b610510565b63ab6e844f906113fa6100e7565b938492610563565b825281806114126004820161037e565b03915afa9081156114f15761146291611445915f916114c3575b50611454866114396100e7565b93849160208301610289565b6020820181038252038361053a565b61145c611240565b906117d9565b9261147d6114776114725f61077a565b610169565b91610169565b141591826114a4575b50509081611493575b5090565b61149e9150156101b6565b5f61148f565b6114ba9192506114b49092610104565b91610104565b10155f80611486565b6114e4915060203d81116114ea575b6114dc818361053a565b810190610578565b5f61142c565b503d6114d2565b610596565b611517915060203d811161151d575b61150f818361053a565b810190610578565b5f61139f565b503d611505565b610596565b61133a91925061154f9060203d8111611556575b611547818361053a565b810190610578565b9190611312565b503d61153d565b610596565b611583915060203d8111611589575b61157b818361053a565b810190610578565b5f6112a5565b503d611571565b610596565b5f7f6973536166652829000000000000000000000000000000000000000000000000910152565b6115c660086105de565b906115d360208301611595565b565b6115dd6115bc565b90565b6115e86104db565b5061161560206115ff6115fa5f610503565b610510565b6397f3815a9061160d6100e7565b938492610563565b825281806116256004820161037e565b03915afa801561168257611651915f91611654575b506116436115d5565b61164b6107dd565b916117d9565b90565b611675915060203d811161167b575b61166d818361053a565b810190610578565b5f61163a565b503d611663565b610596565b5f7f6167652829000000000000000000000000000000000000000000000000000000910152565b6116b860056105de565b906116c560208301611687565b565b6116cf6116ae565b90565b6116da61048a565b5061170760206116f16116ec5f610503565b610510565b63447aa304906116ff6100e7565b938492610563565b825281806117176004820161037e565b03915afa801561177457611743915f91611746575b506117356116c7565b61173d6107dd565b91611936565b90565b611767915060203d811161176d575b61175f818361053a565b810190610578565b5f61172c565b503d611755565b610596565b90565b61179061178b61179592611779565b61048e565b610104565b90565b6117a1816101b6565b036117a857565b5f80fd5b905051906117b982611798565b565b906020828203126117d4576117d1915f016117ac565b90565b6100f1565b9291906117f1916117e86104db565b94919091611a8a565b9080611823575b611800575b50565b61181c919250602061181182611096565b8183010191016117bb565b905f6117fd565b5061182d81611096565b61184061183a602061177c565b91610104565b146117f8565b61184f9061015e565b90565b61185b81611846565b0361186257565b5f80fd5b9050519061187382611852565b565b9060208282031261188e5761188b915f01611866565b90565b6100f1565b9291906118ab916118a2610ab4565b94919091611a8a565b90806118e6575b6118ba575b50565b6118df9192506118da9060206118cf82611096565b818301019101611875565b610ff3565b905f6118b7565b506118f081611096565b6119036118fd602061177c565b91610104565b146118b2565b905051906119168261033d565b565b906020828203126119315761192e915f01611909565b90565b6100f1565b92919061194e9161194561048a565b94919091611a8a565b9080611980575b61195d575b50565b611979919250602061196e82611096565b818301019101611918565b905f61195a565b5061198a81611096565b61199d611997602061177c565b91610104565b14611955565b6119ab61048a565b506119b46116d2565b90565b606090565b6119d06119cb6119d59261075b565b61048e565b610104565b90565b90565b60200190565b63ffffffff60e01b1690565b6119f6906119e1565b90565b905090565b5f5b838110611a10575050905f910152565b806020918301518185015201611a00565b611a46611a3d92602092611a3481611096565b948580936119f9565b938491016119fe565b0190565b611a5890611a5e9392611a21565b90611a21565b90565b3d5f14611a7c57611a713d611069565b903d5f602084013e5b565b611a846119b7565b90611a7a565b90611a936104db565b50611a9c6119b7565b50813b611ab1611aab5f6119bc565b91610104565b14611b5f576004611b4a5f94611b23869594611af987611af3611adb611ad56100e7565b946119d8565b611aed611ae782611096565b916119db565b206119ed565b9261053a565b611b14611b046100e7565b958692602084019081520161037e565b6020820181038252038461053a565b91611b3b611b2f6100e7565b93849260208401611a4a565b6020820181038252038261053a565b602081019051915afa611b5b611a61565b9091565b5050505f90611b6c6107dd565b9056fea2646970667358221220e8ad7e02df6abf3aef8f498564c57183b578f5fff34196b6dfde1128a155035a64736f6c63430008180033","linkReferences":{}},"methodIdentifiers":{"Burn(uint256)":"b90306ad","_delegatorCount()":"a1f7f539","_getImplementation(address)":"c54e44b0","_isDelegatorNode(address)":"e01ad5fd","_isSafe()":"e0a9bc2b","_isSecureBase(address)":"af484526","_isSigner(address)":"1f185d16","getBalance()":"12065fe0","isDaoSafe()":"5c1a494a","isNodeStopped(address)":"51bfd3ae","owner()":"8da5cb5b","systemAge()":"fdc10bc9"},"id":48}