{"abi":[{"type":"constructor","inputs":[{"name":"_hex","type":"address","internalType":"address"}],"stateMutability":"nonpayable"},{"type":"function","name":"deployNFTCat","inputs":[],"outputs":[],"stateMutability":"nonpayable"},{"type":"function","name":"deployNFTLion","inputs":[],"outputs":[],"stateMutability":"nonpayable"},{"type":"function","name":"deployNFTMachineBull","inputs":[],"outputs":[],"stateMutability":"nonpayable"},{"type":"function","name":"deployNFTMonalisa","inputs":[],"outputs":[],"stateMutability":"nonpayable"},{"type":"function","name":"deployNFTNeonlit","inputs":[],"outputs":[],"stateMutability":"nonpayable"},{"type":"function","name":"hexb","inputs":[],"outputs":[{"name":"","type":"address","internalType":"address"}],"stateMutability":"view"},{"type":"function","name":"nFTCat","inputs":[],"outputs":[{"name":"","type":"address","internalType":"address"}],"stateMutability":"view"},{"type":"function","name":"nFTLion","inputs":[],"outputs":[{"name":"","type":"address","internalType":"address"}],"stateMutability":"view"},{"type":"function","name":"nFTMachineBull","inputs":[],"outputs":[{"name":"","type":"address","internalType":"address"}],"stateMutability":"view"},{"type":"function","name":"nFTMonalisa","inputs":[],"outputs":[{"name":"","type":"address","internalType":"address"}],"stateMutability":"view"},{"type":"function","name":"nFTNeonlit","inputs":[],"outputs":[{"name":"","type":"address","internalType":"address"}],"stateMutability":"view"},{"type":"function","name":"nFTProxy","inputs":[],"outputs":[{"name":"","type":"address","internalType":"address"}],"stateMutability":"view"},{"type":"function","name":"nftFactory","inputs":[],"outputs":[{"name":"","type":"address","internalType":"address"}],"stateMutability":"view"}],"bytecode":{"object":"0x60803461012457601f6177b738819003918201601f19168301926001600160401b039290918385118386101761010e57816020928492604097885283398101031261012457516001600160a01b038082169290918390036101245760018060a01b031992808460025416176002558451916159c292838101938185108386111761010e57611df5823980600094039084f080156101045784168584541617835585519161157380840192848410908411176100f0579183916020936108828439815203019082f09081156100e557501690600154161760015551610758908161012a8239f35b8451903d90823e3d90fd5b634e487b7160e01b85526041600452602485fd5b86513d85823e3d90fd5b634e487b7160e01b600052604160045260246000fd5b600080fdfe608060408181526004908136101561001657600080fd5b600092833560e01c9081631697db05146105d7575080631a1575a5146105ae5780631f281210146104f9578063209d197a146104d05780632e417d8e1461041b5780635f3ed2831461036657806361358ffe14610283578063a0f0e54f1461025a578063a4ac704e14610231578063bc9df3d714610208578063d63843cd146101e0578063de04dae4146101b35763ed4fe597146100b357600080fd5b346101af57826003193601126101af5782546002548251638cfa829d60e01b81526001600160a01b03949092851691851690869081858281875afa9485156101a55791610122959391602095938295610181575b50875163165fd13f60e01b81529687958694859384016106e7565b03925af19182156101785750839161014a575b501660018060a01b0319600654161760065580f35b61016b915060203d8111610171575b61016381836105fc565b8101906106c8565b38610135565b503d610159565b513d85823e3d90fd5b61019e9195503d8084833e61019681836105fc565b810190610658565b9338610107565b86513d84823e3d90fd5b8280fd5b8382346101dc57816003193601126101dc5760055490516001600160a01b039091168152602090f35b5080fd5b8382346101dc57816003193601126101dc57905490516001600160a01b039091168152602090f35b8382346101dc57816003193601126101dc5760025490516001600160a01b039091168152602090f35b8382346101dc57816003193601126101dc5760015490516001600160a01b039091168152602090f35b8382346101dc57816003193601126101dc5760065490516001600160a01b039091168152602090f35b50346101af57826003193601126101af578254600254825163062d856360e11b81526001600160a01b039392909190841690841686838781855afa92831561035c57916102f193916020938993610340575b5088865180968195829463165fd13f60e01b84528c84016106e7565b03925af191821561033757508491610319575b5082546001600160a01b031916911617905580f35b610331915060203d81116101715761016381836105fc565b38610304565b513d86823e3d90fd5b6103559193503d808b833e61019681836105fc565b91386102d5565b84513d89823e3d90fd5b50346101af57826003193601126101af5782546002548251631a24f64f60e31b81526001600160a01b03949092851691851690869081858281875afa9485156101a557916103d59593916020959382956101815750875163165fd13f60e01b81529687958694859384016106e7565b03925af1918215610178575083916103fd575b501660018060a01b0319600554161760055580f35b610415915060203d81116101715761016381836105fc565b386103e8565b50346101af57826003193601126101af5782546002548251634c54bc5560e01b81526001600160a01b03949092851691851690869081858281875afa9485156101a5579161048a9593916020959382956101815750875163165fd13f60e01b81529687958694859384016106e7565b03925af1918215610178575083916104b2575b501660018060a01b0319600754161760075580f35b6104ca915060203d81116101715761016381836105fc565b3861049d565b8382346101dc57816003193601126101dc5760075490516001600160a01b039091168152602090f35b50346101af57826003193601126101af578254600254825163f0ea449760e01b81526001600160a01b03949092851691851690869081858281875afa9485156101a557916105689593916020959382956101815750875163165fd13f60e01b81529687958694859384016106e7565b03925af191821561017857508391610590575b501660018060a01b0319600354161760035580f35b6105a8915060203d81116101715761016381836105fc565b3861057b565b8382346101dc57816003193601126101dc5760035490516001600160a01b039091168152602090f35b849084346101af57826003193601126101af57546001600160a01b0316815260209150f35b601f909101601f19168101906001600160401b0382119082101761061f57604052565b634e487b7160e01b600052604160045260246000fd5b60005b8381106106485750506000910152565b8181015183820152602001610638565b6020818303126106c35780516001600160401b03918282116106c357019082601f830112156106c357815190811161061f57604051926106a2601f8301601f1916602001856105fc565b818452602082840101116106c3576106c09160208085019101610635565b90565b600080fd5b908160209103126106c357516001600160a01b03811681036106c35790565b909160609260018060a01b03168252604060208301526107168151809281604086015260208686019101610635565b601f01601f191601019056fea26469706673582212205380c9883fd53240cb973881f2b39e1f7cbeb63047ffbfa8bd128fcb932267f964736f6c6343000814003360803461009257601f61157338819003918201601f19168301916001600160401b038311848410176100975780849260209460405283398101031261009257516001600160a01b038116908190036100925780156100805760018060a01b03193381600154161760015560005416176000556040516114c590816100ae8239f35b60405163e6c4247b60e01b8152600490fd5b600080fd5b634e487b7160e01b600052604160045260246000fdfe60806040526004361015610018575b361561001657005b005b60003560e01c806312065fe0146100e85780631f185d16146100e3578063339459a6146100de5780633b9b7955146100d95780638da5cb5b146100d45780639e6c4bd1146100cf578063a1f7f539146100ca578063af484526146100c5578063b90306ad146100c0578063c54e44b0146100bb578063e01ad5fd146100b6578063e0a9bc2b146100b15763fdc10bc90361000e57610b7f565b610b64565b610a9d565b610a64565b610958565b610927565b6108bd565b61084b565b610773565b61074a565b6101ed565b610126565b3461010457600036600319011261010457602047604051908152f35b600080fd5b6001600160a01b031690565b6001600160a01b0381160361010457565b34610104576020806003193601126101045761019960043561014781610115565b6002546040516001600160a01b0392831685820152848152911661016a826107b2565b60405190610177826107b2565b601182527069735369676e657228616464726573732960781b858301526113aa565b9190806101e3575b156101d15781816101bb926101cd9451830101910161129f565b60405190151581529081906020820190565b0390f35b604051633204506f60e01b8152600490fd5b50808251146101a1565b346101045760003660031901126101045761021161020c600054610109565b610109565b604051634bf9c0ad60e11b815290602082600481845afa91821561057a57600092610729575b5060405163cfbffe5360e01b815291602083600481855afa92831561057a57600093610708575b5060405163ab6e844f60e01b815290602082600481865afa91821561057a576000926106e7575b50604051630536340960e21b815291602083600481875afa92831561057a576000936106c6575b5060405163d1f956b160e01b815292602084600481885afa93841561057a576000946106a5575b50604051631cc3bfab60e31b815293602085600481895afa94851561057a57600095610684575b5060405163e09d394d60e01b81526020816004818a5afa90811561057a57600091610665575b506040516314ac1b5960e21b81526020816004818b5afa90811561057a57600091610646575b5060405163013cf08b60e01b815260006004820152916020836024818c5afa92831561057a57600093610625575b50604051635e09dbe760e01b8152976020896004818d5afa94851561057a57600499600096610604575b50604051635506ee0b60e11b8152996020908b90818e5afa96871561057a5760049a6000986105e3575b50604051636402742760e01b81529a6020908c90818f5afa98891561057a5760049b60009a6105c2575b5060208d6040519d8e80926330125cf560e01b82525afa9a8b1561057a578d60049d60009d6105a0575b506020906040519e8f80926324768d9160e01b82525afa9c8d1561057a5760009d61057f575b506040516313b92d3560e31b81529d8e9081905a92600491602094fa9d8e1561057a5760009e610549575b50610476610810565b9e8f916104839083610f9e565b6104909060208301610f9e565b6040019061049d91610f9e565b6104aa9060608e01610f9e565b6104b79060808d01610f9e565b6104c49060a08c01610f9e565b6104d19060c08b01610f9e565b6104de9060e08a01610f9e565b6104ec906101008901610f9e565b6104fa906101208801610f9e565b610508906101408701610f9e565b610516906101608601610f9e565b610524906101808501610f9e565b610532906101a08401610f9e565b610540906101c08301610f9e565b61001690610fad565b61056c919e5060203d602011610573575b61056481836107ed565b810190610bcb565b9c3861046d565b503d61055a565b610be3565b610599919d5060203d6020116105735761056481836107ed565b9b38610442565b6020919d506105bb90823d84116105735761056481836107ed565b9c9061041c565b6105dc919a5060203d6020116105735761056481836107ed565b98386103f2565b6105fd91985060203d6020116105735761056481836107ed565b96386103c8565b61061e91965060203d6020116105735761056481836107ed565b943861039e565b61063f91935060203d6020116105735761056481836107ed565b9138610374565b61065f915060203d6020116105735761056481836107ed565b38610346565b61067e915060203d6020116105735761056481836107ed565b38610320565b61069e91955060203d6020116105735761056481836107ed565b93386102fa565b6106bf91945060203d6020116105735761056481836107ed565b92386102d3565b6106e091935060203d6020116105735761056481836107ed565b91386102ac565b61070191925060203d6020116105735761056481836107ed565b9038610285565b61072291935060203d6020116105735761056481836107ed565b913861025e565b61074391925060203d6020116105735761056481836107ed565b9038610237565b34610104576000366003190112610104576000546040516001600160a01b039091168152602090f35b34610104576000366003190112610104576001546040516001600160a01b039091168152602090f35b634e487b7160e01b600052604160045260246000fd5b604081019081106001600160401b038211176107cd57604052565b61079c565b602081019081106001600160401b038211176107cd57604052565b601f909101601f19168101906001600160401b038211908210176107cd57604052565b604051906101e082016001600160401b038111838210176107cd57604052565b6001600160401b0381116107cd57601f01601f191660200190565b34610104576020366003190112610104576004356001600160401b038111610104573660238201121561010457806004013561088681610830565b9061089460405192836107ed565b808252366024828501011161010457602081600092602461001696018386013783010152610bef565b3461010457600036600319011261010457602061091f60018060a01b03600654166040516108ea816107b2565b601381527267657464656c656761746f72436f756e74282960681b8482015260405191610916836107d2565b60008352611408565b604051908152f35b3461010457602036600319011261010457602061094e60043561094981610115565b611329565b6040519015158152f35b34610104576020366003190112610104576004356109746112b7565b15610a52576005546001600160a01b03163303610a40576000906004602061099f61020c8554610109565b6040516311be646b60e21b815292839182905afa801561057a5783808481949382948391610a22575b505af16109d3610df7565b50156101d1577fcdcc745fe377b103b45fa0cec23ae3ef93d6fc6a84a01f0d18c40b354dd1d5d8610a1c610a0b61020c600b54610109565b604051938452929081906020820190565b0390a280f35b610a3a915060203d81116105735761056481836107ed565b386109c8565b60405163ea8e4eb560e01b8152600490fd5b604051634ee2123760e11b8152600490fd5b34610104576020366003190112610104576020610a8b600435610a8681610115565b611446565b6040516001600160a01b039091168152f35b3461010457602080600319360112610104576101cd9060043590610ac082610115565b6006546040516001600160a01b0393841683820152828152921691610b2090610ae8816107b2565b604051610af4816107b2565b6018815277697364656c656761746f724e6f646528616464726573732960401b848201526000946113aa565b919080610b5a575b610b41575b505060405190151581529081906020820190565b610b539250808251830101910161129f565b3880610b2d565b5080825114610b28565b3461010457600036600319011261010457602061094e6112b7565b3461010457600036600319011261010457602061091f60018060a01b0360035416604051610bac816107b2565b600681526569416765282960d01b8482015260405191610916836107d2565b908160209103126101045751610be081610115565b90565b6040513d6000823e3d90fd5b610c386020610bfd33611446565b610c0b61020c600054610109565b6040516333ea87db60e21b81526001600160a01b0390921660048301529092839190829081906024820190565b03915afa90811561057a57600091610cb9575b506001600160a01b03811615159081610ca9575b50610c97575b60405162461bcd60e51b815260206004820152600a6024820152690496e76616c6964204f760b41b6044820152606490fd5b805115610c6557610ca790610e65565b565b610cb39150611329565b38610c5f565b610cd1915060203d81116105735761056481836107ed565b38610c4b565b805160141015610ce75760340190565b634e487b7160e01b600052603260045260246000fd5b805160151015610ce75760350190565b805160161015610ce75760360190565b805160171015610ce75760370190565b908151811015610ce7570160200190565b634e487b7160e01b600052601160045260246000fd5b601719810191908211610d6357565b610d3e565b90610d7282610830565b610d7f60405191826107ed565b8281528092610d90601f1991610830565b0190602036910137565b6000198114610d635760010190565b9060188201809211610d6357565b6001600160e01b0319909116815281519160005b838110610de15750509060049101016000815290565b8060208092840101516004828601015201610dcb565b3d15610e22573d90610e0882610830565b91610e1660405193846107ed565b82523d6000602084013e565b606090565b15610e2e57565b60405162461bcd60e51b815260206004820152600f60248201526e18d85b1b189858dac819985a5b1959608a1b6044820152606490fd5b90602082015160601c91610ea9610e9c610e8f610e8184610cd7565b516001600160f81b03191690565b6001600160f81b03191690565b6001600160e01b03191690565b610ec9610ebb610e8f610e8185610cfd565b60081c62ffffff60e01b1690565b17610ee9610edc610e8f610e8185610d0d565b60101c61ffff60e01b1690565b17610f08610efc610e8f610e8185610d1d565b60181c60ff60e01b1690565b1791610f1c610f178351610d54565b610d68565b9360005b8551811015610f5a5780610f42610e81610f3c610f5594610da9565b87610d2d565b60001a610f4f8289610d2d565b53610d9a565b610f20565b5060009250610ca79383610f7e610f8c829598604051928391602083019687610db7565b03601f1981018352826107ed565b51925af1610f98610df7565b50610e27565b6001600160a01b039091169052565b61127d6101c0610ca792610fe6610fc48251610109565b600280546001600160a01b0319166001600160a01b0392909216919091179055565b611018610ff66020830151610109565b600380546001600160a01b0319166001600160a01b0392909216919091179055565b61104a6110286040830151610109565b600480546001600160a01b0319166001600160a01b0392909216919091179055565b61107c61105a6060830151610109565b600580546001600160a01b0319166001600160a01b0392909216919091179055565b6110ae61108c6080830151610109565b600680546001600160a01b0319166001600160a01b0392909216919091179055565b6110e06110be60a0830151610109565b600780546001600160a01b0319166001600160a01b0392909216919091179055565b6111126110f060c0830151610109565b600880546001600160a01b0319166001600160a01b0392909216919091179055565b61114461112260e0830151610109565b600980546001600160a01b0319166001600160a01b0392909216919091179055565b611177611155610100830151610109565b600a80546001600160a01b0319166001600160a01b0392909216919091179055565b6111aa611188610120830151610109565b600b80546001600160a01b0319166001600160a01b0392909216919091179055565b6111dd6111bb610140830151610109565b600c80546001600160a01b0319166001600160a01b0392909216919091179055565b6112106111ee610160830151610109565b600d80546001600160a01b0319166001600160a01b0392909216919091179055565b611243611221610180830151610109565b600e80546001600160a01b0319166001600160a01b0392909216919091179055565b6112766112546101a0830151610109565b600f80546001600160a01b0319166001600160a01b0392909216919091179055565b0151610109565b601080546001600160a01b0319166001600160a01b0392909216919091179055565b90816020910312610104575180151581036101045790565b6002546040516112ff916001600160a01b0316906112d4816107b2565b6008815267697353616665282960c01b6020820152604051916112f6836107d2565b600083526113aa565b908061131e575b156101d15780602080610be09351830101910161129f565b506020815114611306565b61138360018060a01b038060025416604051916020941684830152838252611350826107b2565b6040519061135d826107b2565b601582527469735365637572654261736528616464726573732960581b858301526113aa565b90806113a0575b156101d15781610be0928251830101910161129f565b508181511461138a565b803b156113ef57815160209283012060405160009485948201926113df918391610f7e91906001600160e01b03191686610db7565b51915afa6113eb610df7565b9091565b505050600090604051611401816107d2565b6000815290565b9291611416916000946113aa565b908061143b575b6114245750565b909150602081805181010312610104576020015190565b50602081511461141d565b803b600061145382610830565b9261146160405194856107ed565b82845260208401903c602d81511061147d57602a015160601c90565b60405163baf3f0f760e01b8152600490fdfea264697066735822122097f7d08038d307e147f83f06c3fcacd9666e7fefdd9a2872749dbfa73bad974e64736f6c6343000814003360808060405234610016576159a6908161001c8239f35b600080fdfe60808060405260043610156200001457600080fd5b60003560e01c9081630c5b0ac61462000b1f57508063145d523f1462000906578063165fd13f146200068a5780634c54bc55146200050e5780638cfa829d14620003a9578063d127b278146200023c5763f0ea4497146200007457600080fd5b3462000237576000366003190112620002375760405161034081016001600160401b038111828210176200022157604052601980825260005b61032081106200020f575060005b8181106200017657620001726200015d84604051620000da8162000cd7565b60048152632634b7b760e11b602082015260405190620000fa8262000cbb565b604482527f68747470733a2f2f6f7a6f6e653133616463376461386432353763616364363160208301527f3163306432386539383661663235376232323931302e6f7a6f6e6573746f72656040830152632e696f2f60e01b606083015262000e1b565b60405191829160208352602083019062000c94565b0390f35b6001810190818111620001f95762000192620001f39262000e88565b620001d36040519182602091654c696f6e5f5f60d01b83830152620001c281518092602695868601910162000c6f565b810103600681018452018262000cf3565b620001df828662000df0565b52620001ec818562000df0565b5062000de0565b620000bb565b634e487b7160e01b600052601160045260246000fd5b806060602080938601015201620000ad565b634e487b7160e01b600052604160045260246000fd5b600080fd5b346200023757600036600319011262000237576040516101e081016001600160401b038111828210176200022157604052600e80825260005b6101c0811062000397575060005b8181106200032d57620001726200015d84604051620002a28162000cd7565b600c81526b135858da1a5b9948109d5b1b60a21b602082015260405190620002ca8262000cbb565b604482527f68747470733a2f2f6f7a6f6e653561346630623564623737626637336239353460208301527f6461363430336162326433313138633463616436632e6f7a6f6e6573746f72656040830152632e696f2f60e01b606083015262000e1b565b6001810190818111620001f95762000349620003919262000e88565b620001d360405191826020916d4d616368696e652042756c6c5f5f60901b838301526200038181518092602e95868601910162000c6f565b8101038681018452018262000cf3565b62000283565b80606060208093860101520162000275565b3462000237576000366003190112620002375760405161020081016001600160401b038111828210176200022157604052600f80825260005b6101e08110620004fc575060005b8181106200049157620001726200015d846040516200040f8162000cd7565b600381526210d85d60ea1b6020820152604051906200042e8262000cbb565b604482527f68747470733a2f2f6f7a6f6e656338343331393131303766353165666536376260208301527f3736636637333932366563353831353232343461332e6f7a6f6e6573746f72656040830152632e696f2f60e01b606083015262000e1b565b6001810190818111620001f957620004ad620004f69262000e88565b620001d360405191826020916d02a34329029ba3cb6329021b0ba160951b83830152620004e581518092602e95868601910162000c6f565b810103600e81018452018262000cf3565b620003f0565b806060602080938601015201620003e2565b3462000237576000366003190112620002375760405160a081016001600160401b0381118282101762000221576040526004815260005b6080811062000678575060005b60048110620005f957620001726200015d83604051620005728162000cd7565b60088152674d6f6e616c69736160c01b602082015260405190620005968262000cbb565b604482527f68747470733a2f2f6f7a6f6e653364326232393831313465336463373261643660208301527f3636386366616635383931373433656562343237352e6f7a6f6e6573746f72656040830152632e696f2f60e01b606083015262000e1b565b6001810190818111620001f95762000615620006729262000e88565b62000659604051918260209168026b7b730b634b9b0960bd1b838301526200064881518092602995868601910162000c6f565b810103600981018452018262000cf3565b62000665828562000df0565b52620001ec818462000df0565b62000552565b80606060208093850101520162000545565b346200023757604036600319011262000237576004356001600160a01b038116908190036200023757602435906001600160401b038211620002375736602383011215620002375760048201356001600160401b0381116200023757820191366024840111620002375760208184031262000237576024810135906001600160401b03821162000237570191608083820312620002375760405191620007308362000cbb565b60248401356001600160401b0381116200023757620007589060248085019187010162000d33565b835260448401356001600160401b0381116200023757620007829060248085019187010162000d33565b60208401908152606485013560408501908152949093906084810135906001600160401b0382116200023757602485016043838301011215620002375780820160240135946001600160401b03861162000221578560051b9160405196620007ee602085018962000cf3565b87526020870190602483016044858784010101116200023757604485820101915b60448587840101018310620008cc5750505050506060820184905250519251935160405194614a1580870194919290916001600160401b03861188871017620002215762000888608094620008798a996200089c9662000f5c8c3960a08a5260a08a019062000c94565b9088820360208a015262000c94565b916040870152858203606087015262000d80565b92015203906000f08015620008c0576040516001600160a01b039091168152602090f35b6040513d6000823e3d90fd5b6001600160401b038335116200023757602080604492620008f8602488018588358c8901010162000d33565b81520193019290506200080f565b3462000237576000366003190112620002375760405161024081016001600160401b038111828210176200022157604052601180825260005b610220811062000b0d575060005b81811062000a935762000a3f8362000a7d6040516200096c8162000cd7565b6006815262000a6e60209365223930b3b7b760d11b85840152604051620009938162000cbb565b604481527f68747470733a2f2f6f7a6f6e6536306436366338373231663436653434653735868201527f3662366130383461663936643830336632623936362e6f7a6f6e6573746f72656040820152632e696f2f60e01b606082015260405193620009fe8562000cbb565b8452858401908152604084019167016345785d8a000083526060850190815262000a566040519889968980890152516080604089015260c088019062000c94565b925192603f19938488830301606089015262000c94565b9251608086015251908483030160a085015262000d80565b03601f19810184528362000cf3565b6200017260405192828493845283019062000c94565b6001810180821162000af8579062000aaf62000af29262000e88565b620001d3604051918260209167447261676f6e5f5f60c01b8383015262000ae181518092602895868601910162000c6f565b810103600881018452018262000cf3565b6200094d565b82634e487b7160e01b60005260045260246000fd5b8060606020809386010152016200093f565b3462000237576000366003190112620002375761032081016001600160401b038111828210176200022157604052601880825260005b610300811062000c5d575060005b81811062000c0857620001726200015d8460405162000b828162000cd7565b600781526613995bdb9b1a5d60ca1b60208201526040519062000ba58262000cbb565b604482527f68747470733a2f2f6f7a6f6e653962373834363336616238633665343162636360208301527f6464643336646136356234663461626334323736652e6f7a6f6e6573746f72656040830152632e696f2f60e01b606083015262000e1b565b6001810190818111620001f95762000c2462000c579262000e88565b620001d36040519182602091684e656f6e6c69745f5f60b81b838301526200064881518092602995868601910162000c6f565b62000b63565b80606060208093860101520162000b55565b60005b83811062000c835750506000910152565b818101518382015260200162000c72565b9060209162000caf8151809281855285808601910162000c6f565b601f01601f1916010190565b608081019081106001600160401b038211176200022157604052565b604081019081106001600160401b038211176200022157604052565b601f909101601f19168101906001600160401b038211908210176200022157604052565b6001600160401b0381116200022157601f01601f191660200190565b81601f82011215620002375780359062000d4d8262000d17565b9262000d5d604051948562000cf3565b828452602083830101116200023757816000926020809301838601378301015290565b908082519081815260208091019281808460051b8301019501936000915b84831062000daf5750505050505090565b909192939495848062000dcf600193601f198682030187528a5162000c94565b980193019301919493929062000d9e565b6000198114620001f95760010190565b805182101562000e055760209160051b010190565b634e487b7160e01b600052603260045260246000fd5b62000e7662000a3f9362000e85936040519362000e388562000cbb565b8452602084019081526040840191622625a083526060850190815262000a56604051978896602080890152516080604089015260c088019062000c94565b03601f19810183528262000cf3565b90565b801562000f3b57600081805b62000f24575062000ea58162000d17565b9062000eb5604051928362000cf3565b808252601f1962000ec68262000d17565b013660208401375b80831562000f1d578015620001f9576000190192600a9160308383068101809111620001f957845186101562000e055760f81b6001600160f81b03191660001a908401601f0153049162000ece565b5050905090565b9062000f32600a9162000de0565b91048062000e94565b5060405162000f4a8162000cd7565b60018152600360fc1b60208201529056fe608060405234620006575762004a15803803806200001d8162000685565b92833981019060a081830312620006575780516001600160401b03919082811162000657578362000050918301620006ab565b926020808301518481116200065757826200006d918501620006ab565b93604084015160608501518281116200065757850194601f908582880112156200065757865195848711620006415760059787891b8780620000b181840162000685565b809b81520191830101928084116200065757888301915b8483106200065c575050505050608001519460018060a01b0386168096036200065757875184811162000641576002546001998a82811c9216801562000636575b8883101462000620578185849311620005cb575b508790858311600114620005615760009262000555575b5050600019600383901b1c191690891b176002555b8515620005435760018060a01b03199260049633858954161788556003948554161784558860145589518581116200052e576017548a81811c9116801562000523575b888210146200050e57848111620004c4575b5086848211600114620004565781908b9c60009c9b9c926200044a575b505060001982871b1c191690891b176017559697965b601e556000985b620001ee575b6040516142f790816200071e8239f35b8051891015620004445760168054898101908181116200042f576801000000000000000092838210156200041a5782815582821015620004055760005287600020015581518a1015620003f057858a891b83010151906015805491821015620003c6578a8201808255821015620003db57600052866000200190805190868211620003c65782548b81811c91168015620003bb575b89821014620003a6578581116200035d575b508790858311600114620002f6576000919083620002ea575b505060001982871b1c1916908a1b1790555b6000198914620002d5579787019787620001d8565b601186634e487b7160e01b6000525260246000fd5b015190503880620002ae565b90601f1983169184600052896000209260005b81811062000347575090848e95949392106200032e575b505050811b019055620002c0565b015160001983891b60f8161c1916905538808062000320565b828401518555938e0193928b01928b0162000309565b8360005288600020868085018d1c8201928b86106200039c575b018c1c01908c905b8281106200038f57505062000295565b60008155018c906200037f565b9250819262000377565b60228a634e487b7160e01b6000525260246000fd5b90607f169062000283565b604189634e487b7160e01b6000525260246000fd5b603289634e487b7160e01b6000525260246000fd5b603287634e487b7160e01b6000525260246000fd5b60328a634e487b7160e01b6000525260246000fd5b60418a634e487b7160e01b6000525260246000fd5b601189634e487b7160e01b6000525260246000fd5b620001de565b015190503880620001bb565b601f1982169b6017600052886000209c60005b818110620004ae5750918c9d91848e9d9e95941062000495575b505050811b01601755979697620001d1565b015160001983891b60f8161c1916905538808062000483565b828401518f559d8d019d928a01928a0162000469565b601760005287600020858084018c1c8201928a851062000504575b018b1c01908b905b828110620004f75750506200019e565b60008155018b90620004e7565b92508192620004df565b602289634e487b7160e01b6000525260246000fd5b90607f16906200018c565b604188634e487b7160e01b6000525260246000fd5b60405163e6c4247b60e01b8152600490fd5b01519050388062000134565b908b9350601f198316916002600052896000209260005b8b828210620005b457505084116200059a575b505050811b0160025562000149565b015160001960f88460031b161c191690553880806200058b565b8385015186558f9790950194938401930162000578565b909150600260005287600020858085018c1c8201928a861062000616575b918d9186959493018d1c01915b828110620006065750506200011d565b600081558594508d9101620005f6565b92508192620005e9565b634e487b7160e01b600052602260045260246000fd5b91607f169162000109565b634e487b7160e01b600052604160045260246000fd5b600080fd5b825189811162000657578a916200067984848094890101620006ab565b815201920191620000c8565b6040519190601f01601f191682016001600160401b038111838210176200064157604052565b919080601f84011215620006575782516001600160401b0381116200064157602090620006e1601f8201601f1916830162000685565b92818452828287010111620006575760005b8181106200070957508260009394955001015290565b8581018301518482018401528201620006f356fe60806040526004361015610018575b361561001657005b005b60003560e01c8062fdd58e146102f757806301ffc9a7146102f257806302fe5305146102ed57806306eb36db146102e857806306fdde03146102e35780630dccc9ad146102de5780630e89341c146102d957806312065fe0146102d457806318dcfd71146102cf5780631f185d16146102ca5780632796f7c6146102c55780632defa859146102c05780632eb2c2d6146102bb578063339459a6146102b65780633b9b7955146102b15780634622ab03146102ac5780634e1273f4146102a75780635718e17b146102a25780635fac2d9d1461029d5780636c51797b1461029857806378a89567146102935780637eb1a7381461028e57806381fbf0a5146102895780638da5cb5b14610284578063a1f7f5391461027f578063a22cb4651461027a578063abbbf8d714610275578063af48452614610270578063b505c66d1461026b578063b90306ad14610266578063c3c916d914610261578063c54e44b01461025c578063c85700fb14610257578063d878fe1014610252578063e01ad5fd1461024d578063e0a9bc2b14610248578063e834a83414610243578063e985e9c51461023e578063edd38c0114610239578063f242432a14610234578063f356eedb1461022f578063f526f68a1461022a578063f9ffedb714610225578063fac333ac14610220578063fcf563681461021b5763fdc10bc90361000e576118fe565b6118d5565b611896565b611878565b6117f1565b6117d3565b611720565b6116d1565b611679565b61165b565b611640565b6115c5565b61158d565b611478565b61143f565b611421565b611321565b611295565b611264565b6111c5565b61111d565b6110b3565b61108a565b61106c565b610f53565b610f2b565b610f0d565b610eef565b610eaf565b610df4565b610d5b565b610cdb565b610cc2565b610ba7565b610b09565b610abe565b6109fb565b6109de565b6109c2565b610836565b6107a4565b6106d6565b61055f565b6104e3565b61037f565b61032e565b6001600160a01b031690565b6001600160a01b0381160361031957565b600080fd5b610104359061032c82610308565b565b3461031957604036600319011261031957602061036460043561035081610308565b602435600052600083526040600020611929565b54604051908152f35b6001600160e01b031981160361031957565b3461031957602036600319011261031957602060043561039e8161036d565b63ffffffff60e01b16636cdb3d1360e11b81149081156103dc575b81156103cb575b506040519015158152f35b6301ffc9a760e01b149050386103c0565b6303a24d0760e21b811491506103b9565b634e487b7160e01b600052604160045260246000fd5b604081019081106001600160401b0382111761041e57604052565b6103ed565b602081019081106001600160401b0382111761041e57604052565b601f909101601f19168101906001600160401b0382119082101761041e57604052565b604051906101e082016001600160401b0381118382101761041e57604052565b6001600160401b03811161041e57601f01601f191660200190565b81601f82011215610319578035906104b382610481565b926104c1604051948561043e565b8284526020838301011161031957816000926020809301838601378301015290565b34610319576020366003190112610319576004356001600160401b0381116103195761051390369060040161049c565b61051b613e23565b1561054d576008546001600160a01b0316330361053b5761001690612351565b60405163ea8e4eb560e01b8152600490fd5b604051634ee2123760e11b8152600490fd5b346103195760003660031901126103195761058061057b613f16565b612dca565b601d54810390811161059757602090604051908152f35b61196b565b90600182811c921680156105cc575b60208310146105b657565b634e487b7160e01b600052602260045260246000fd5b91607f16916105ab565b90604051918260008254926105ea8461059c565b9081845260019485811690816000146106575750600114610614575b505061032c9250038361043e565b9093915060005260209081600020936000915b81831061063f57505061032c93508201013880610606565b85548884018501529485019487945091830191610627565b91505061032c94506020925060ff191682840152151560051b8201013880610606565b60005b83811061068d5750506000910152565b818101518382015260200161067d565b906020916106b68151809281855285808601910161067a565b601f01601f1916010190565b9060206106d392818152019061069d565b90565b34610319576000806003193601126107a157604051816017546106f88161059c565b808452906001908181169081156107795750600114610732575b61072e846107228188038261043e565b604051918291826106c2565b0390f35b60178352602094506000805160206142828339815191525b828410610766575050508161072e936107229282010193610712565b805485850187015292850192810161074a565b61072e96506107229450602092508593915060ff191682840152151560051b82010193610712565b80fd5b34610319576000806003193601126107a157604051816002546107c68161059c565b8084529060019081811690811561077957506001146107ef5761072e846107228188038261043e565b60028352602094506000805160206142428339815191525b828410610823575050508161072e936107229282010193610712565b8054858501870152928501928101610807565b346103195760203660031901126103195760006004358072184f03e93ff9f4daa797ed6e38ed64bf6a1f0160401b808210156109b4575b506904ee2d6d415b85acef8160201b808310156109a5575b50662386f26fc1000080831015610996575b506305f5e10080831015610987575b5061271080831015610978575b506064821015610968575b600a8092101561095e575b6001908160216108da828701612157565b95860101905b610928575b60405161072e906107228161091a6109098a610903602085016120cc565b90612140565b64173539b7b760d91b815260050190565b03601f19810183528261043e565b600019019083906f181899199a1a9b1b9c1cb0b131b232b360811b8282061a835304918215610959579190826108e0565b6108e5565b91600101916108c9565b91906064600291049101916108be565b600491939204910191386108b3565b600891939204910191386108a6565b60109193920491019138610897565b60209193920491019138610885565b60409350810491503861086d565b3461031957600036600319011261031957602047604051908152f35b346103195760003660031901126103195760208054604051908152f35b346103195760208060031936011261031957610a6e600435610a1c81610308565b6005546040516001600160a01b03928316858201528481529116610a3f82610403565b60405190610a4c82610403565b601182527069735369676e657228616464726573732960781b85830152613fcc565b919080610ab4575b15610aa2578181610a909261072e9451830101910161307a565b60405190151581529081906020820190565b604051633204506f60e01b8152600490fd5b5080825114610a76565b3461031957602036600319011261031957610ad7613e23565b1561054d576008546001600160a01b0316330361053b57600435601f55005b6001600160a01b03909116815260200190565b34610319576000366003190112610319576018546040516001600160a01b039091168152602090f35b6001600160401b03811161041e5760051b60200190565b81601f8201121561031957803591610b6083610b32565b92610b6e604051948561043e565b808452602092838086019260051b820101928311610319578301905b828210610b98575050505090565b81358152908301908301610b8a565b346103195760a03660031901126103195760048035610bc581610308565b602435610bd181610308565b6001600160401b039060443582811161031957610bf19036908601610b49565b9060643583811161031957610c099036908701610b49565b9260843590811161031957610c21903690870161049c565b936001600160a01b03808216903382141580610ca0575b610c8157831615610c695715610c52576100169550611ad2565b604051626a0d4560e21b8152600081880152602490fd5b604051632bfa23e760e11b8152600081890152602490fd5b60405163711bec9160e11b815280610c9c8533838d01611a56565b0390fd5b5081600052600160205260ff610cba336040600020611929565b541615610c38565b34610319576000366003190112610319576100166138f1565b34610319576000366003190112610319576003546040516001600160a01b039091168152602090f35b634e487b7160e01b600052603260045260246000fd5b601554811015610d3557601560005260206000200190600090565b610d04565b60165415610d3557601660009081526000805160206142a283398151915291565b346103195760203660031901126103195760043560155481101561031957601560005261072e90610d9b90600080516020614262833981519152016105d6565b60405191829160208352602083019061069d565b90815180825260208080930193019160005b828110610dcf575050505090565b835185529381019392810192600101610dc1565b9060206106d3928181520190610daf565b34610319576040366003190112610319576004356001600160401b038082116103195736602383011215610319578160040135610e3081610b32565b92610e3e604051948561043e565b81845260209160248386019160051b8301019136831161031957602401905b828210610e9657856024358681116103195761072e91610e84610e8a923690600401610b49565b906119b1565b60405191829182610de3565b8380918335610ea481610308565b815201910190610e5d565b3461031957602036600319011261031957600435601554811015610d3557601560005261072e90610d9b90600080516020614262833981519152016105d6565b34610319576000366003190112610319576020601f54604051908152f35b34610319576000366003190112610319576020601a54604051908152f35b34610319576000366003190112610319576020601654604051908152f35b8015150361031957565b346103195760c036600319011261031957600435610f7081610308565b602435610f7c81610308565b6044356064359060843592610f9084610f49565b60a4356001600160401b03811161031957610faf90369060040161049c565b936001600160a01b03908282161561105a578187161561105a5715611050579061102b61101c6110449695949360065416610fe8612cf2565b9060405190610ff682610403565b6014825273616c6c6f77466f7263655472616e73666572282960601b6020830152613fa1565b6020808251830101910161307a565b15159560ff199660ff886022541691161760225561308f565b60225416602255600080f35b506100169461308f565b60405163e6c4247b60e01b8152600490fd5b34610319576000366003190112610319576020601e54604051908152f35b34610319576000366003190112610319576004546040516001600160a01b039091168152602090f35b3461031957600036600319011261031957602061111560018060a01b03600954166040516110e081610403565b601381527267657464656c656761746f72436f756e74282960681b848201526040519161110c83610423565b600083526140c7565b604051908152f35b346103195760403660031901126103195760043561113a81610308565b60243561114681610f49565b6001600160a01b0382169182156111ad5761116e903360005260016020526040600020611929565b9015159060ff1981541660ff83161790556040519081527f17307eab39ab6107e8899845ad3d59bd9653f200f220920489ca2b5937696c3160203392a3005b60405162ced3e160e81b815260006004820152602490fd5b3461031957602080600319360112610319576001600160401b03600435818111610319573660238201121561031957806004013561120281610b32565b92611210604051948561043e565b818452848401906024809360051b8501019336851161031957838101925b85841061123e57610016876121a9565b8335838111610319578891611259839288369187010161049c565b81520193019261122e565b3461031957602036600319011261031957602061128b60043561128681610308565b613e95565b6040519015158152f35b610120366003190112610319576001600160401b03600435818111610319576112c290369060040161049c565b602435828111610319576112da90369060040161049c565b90604435928311610319576112f661001693369060040161049c565b6084359261130384610308565b61130b61031e565b9360e4359360c4359360a435936064359261293e565b346103195760203660031901126103195760043561133d613e23565b1561054d576008546001600160a01b0316330361053b576004602061136b6113666003546102fc565b6102fc565b6040516311be646b60e21b815292839182905afa801561141c5760008084819493829483916113ee575b505af16113a0611e2b565b5015610aa2577fcdcc745fe377b103b45fa0cec23ae3ef93d6fc6a84a01f0d18c40b354dd1d5d86113e96113d8611366600e546102fc565b604051938452929081906020820190565b0390a2005b61140f915060203d8111611415575b611407818361043e565b810190613170565b38611395565b503d6113fd565b611e0c565b34610319576000366003190112610319576020602154604051908152f35b3461031957602036600319011261031957602061146660043561146181610308565b6141b8565b6040516001600160a01b039091168152f35b60a03660031901126103195760043561149081610308565b60243560443560018060a01b038060075416604051916114d081871693846020820152602081526114c081610403565b33936114ca6125ff565b90614047565b160361053b571561105a576114e361291b565b601e5490601f5493818501908186116105975761151d6115188461072e9861151361157096611576991015612631565b612212565b601f55565b61091a611529306128b3565b9561153b61153682612677565b610d1a565b509061154b6113666003546102fc565b9160405196879563b505c66d60e01b60208801526084359360643593602489016127ae565b82614136565b506115816001601455565b60405191829182610af6565b34610319576020366003190112610319576115a6613e23565b1561054d576008546001600160a01b0316330361053b57600435601e55005b3461031957602036600319011261031957602061128b6004356115e781610308565b6009546040516001600160a01b0392831685820152848152911661160a82610403565b6040519061161782610403565b6018825277697364656c656761746f724e6f646528616464726573732960401b8583015261408b565b3461031957600036600319011261031957602061128b613e23565b34610319576000366003190112610319576020601d54604051908152f35b3461031957604036600319011261031957602060ff6116c560043561169d81610308565b602435906116aa82610308565b6001600160a01b031660009081526001855260409020611929565b54166040519015158152f35b346103195760203660031901126103195760206116f360043561146181610308565b6001600160a01b0381161515908161171057506040519015158152f35b61171a9150613e95565b386103c0565b346103195760a03660031901126103195760043561173d81610308565b60243561174981610308565b6084356001600160401b0381116103195761176890369060040161049c565b906001600160a01b0383163381141590816117b0575b5061179457610016926064359160443591611a70565b60405163711bec9160e11b815280610c9c853360048401611a56565b9050600052600160205260ff6117ca336040600020611929565b5416153861177e565b34610319576000366003190112610319576020601b54604051908152f35b346103195760403660031901126103195760043561180e81610308565b6024356001600160401b0381116103195761182d90369060040161049c565b6001600160a01b038281161561105a57611845613e23565b1561054d5761185333613e95565b90811561186a575b501561053b5761001691612fc3565b60085416331490503861185b565b34610319576000366003190112610319576020601c54604051908152f35b34610319576020366003190112610319576004356016548110156103195760166000526000805160206142a28339815191520154604051908152602090f35b34610319576000366003190112610319576019546040516001600160a01b039091168152602090f35b34610319576000366003190112610319576020611115613f16565b6000526000602052604060002090565b9060018060a01b0316600052602052604060002090565b6119569160005260006020526040600020611929565b5490565b908152602081019190915260400190565b634e487b7160e01b600052601160045260246000fd5b60001981146105975760010190565b805115610d355760200190565b8051821015610d355760209160051b010190565b91909180518351808203611a3a5750508051906119cd82610b32565b916119db604051938461043e565b8083526119ea601f1991610b32565b0190602091368385013760005b8151811015611a325780611a1d611a2d9260051b85808287010151918a01015190611940565b611a27828761199d565b52611981565b6119f7565b509193505050565b610c9c604051928392635b05999160e01b84526004840161195a565b6001600160a01b0391821681529116602082015260400190565b92939290916001600160a01b0380841615611ab957821615611aa15761032c94611a9991611d6e565b929091611ad2565b604051626a0d4560e21b815260006004820152602490fd5b604051632bfa23e760e11b815260006004820152602490fd5b91939290611ae36001865114613216565b6001600160a01b038381168015159081611d57575b50611b4f575b611b0a8387848761343a565b8116611b18575b5050505050565b8451600103611b3e57602080611b349601519201519233611f49565b3880808080611b11565b611b4a94919233612095565b611b34565b601a54601d54809111611b63575b50611afe565b611b76611b7260225460ff1690565b1590565b15611d3b5750611bfb611bf6611b72611bbe611b936007546102fc565b60405190611bb682611ba88c60208301610af6565b03601f19810184528361043e565b6114ca6125ff565b611bcb858216151561325e565b611bdf611bd788611990565b5115156132a1565b611be7612cf2565b90611bf06132df565b9061408b565b613303565b611cb0611c06613f16565b611c26611c1282612dca565b611c1d811515613342565b601d5490612686565b90611c326006546102fc565b90611c72611c6a611c52611c44612cf2565b611c4c61337f565b866140c7565b93611c5b612cf2565b90611c646133a7565b906140c7565b602054612212565b811015611d28575b5060215481611c92611c8b89611990565b5183612212565b11611d0e575b50508015159081611cfa575b81611ce6575b506133d4565b611ccd611cc8611cbf85611990565b51601d54612212565b601d55565b611ce0611cdb602154611981565b602155565b38611b5d565b9050611cf185611990565b51111538611caa565b9050611d0585611990565b51151590611ca4565b611d1791612686565b611d2086611990565b523880611c98565b602055611d356000602155565b38611c7a565b611cc8611d5291611d4b86611990565b5190612212565b611ce0565b9050611d676113666019546102fc565b1438611af8565b9160405192600184526020840152604083019160018352606084015260808301604052565b9081602091031261031957516106d38161036d565b909260a0926106d39594600180861b031683526000602084015260408301526060820152816080820152019061069d565b91926106d395949160a094600180871b03809216855216602084015260408301526060820152816080820152019061069d565b6040513d6000823e3d90fd5b60405190611e2582610423565b60008252565b3d15611e56573d90611e3c82610481565b91611e4a604051938461043e565b82523d6000602084013e565b606090565b9293919093843b611e6d575050505050565b602091611e90604051948593849363f23a6e6160e01b9889865260048601611da8565b038160006001600160a01b0388165af160009181611f19575b50611ee25782611eb7611e2b565b8051919082611edb57604051632bfa23e760e11b815280610c9c8460048301610af6565b9050602001fd5b6001600160e01b03191603611efc57503880808080611b11565b604051632bfa23e760e11b8152908190610c9c9060048301610af6565b611f3b91925060203d8111611f42575b611f33818361043e565b810190611d93565b9038611ea9565b503d611f29565b939290949194853b611f5e575b505050505050565b611f81602093604051958694859463f23a6e6160e01b998a875260048701611dd9565b038160006001600160a01b0388165af160009181611fc3575b50611fa85782611eb7611e2b565b6001600160e01b03191603611efc5750388080808080611f56565b611fdc91925060203d8111611f4257611f33818361043e565b9038611f9a565b926120126106d395936120209360018060a01b031686526000602087015260a0604087015260a0860190610daf565b908482036060860152610daf565b91608081840391015261069d565b93906106d39593612012916120209460018060a01b03809216885216602087015260a0604087015260a0860190610daf565b9293919093843b612072575050505050565b602091611e90604051948593849363bc197c8160e01b9889865260048601611fe3565b939290949194853b6120a957505050505050565b611f81602093604051958694859463bc197c8160e01b998a87526004870161202e565b600254600092916120dc8261059c565b9160019081811690811561212d57506001146120f757505050565b9091929350600260005260209081600020906000915b85831061211c57505050500190565b80548584015291830191810161210d565b60ff191683525050811515909102019150565b906121536020928281519485920161067a565b0190565b9061216182610481565b61216e604051918261043e565b828152809261217f601f1991610481565b0190602036910137565b8115612193570490565b634e487b7160e01b600052601260045260246000fd5b906121b2613e23565b1561054d576008546001600160a01b0316330361053b5760005b825181101561220d576016549060018201809211610597576121f06122089261221f565b6122036121fd828661199d565b516124fb565b611981565b6121cc565b509050565b9190820180921161059757565b601654600160401b81101561041e576001810180601655811015610d355760166000526000805160206142a28339815191520155565b601f8111612261575050565b6000906002825260208220906020601f850160051c8301941061229f575b601f0160051c01915b82811061229457505050565b818155600101612288565b909250829061227f565b601f81116122b5575050565b6000906017825260208220906020601f850160051c830194106122f3575b601f0160051c01915b8281106122e857505050565b8181556001016122dc565b90925082906122d3565b90601f811161230b57505050565b600091825260208220906020601f850160051c83019410612347575b601f0160051c01915b82811061233c57505050565b818155600101612330565b9092508290612327565b80519091906001600160401b03811161041e576123788161237360025461059c565b612255565b602080601f83116001146123b457508192936000926123a9575b50508160011b916000199060031b1c191617600255565b015190503880612392565b6002600052601f19831694909190600080516020614242833981519152926000905b87821061240e5750508360019596106123f5575b505050811b01600255565b015160001960f88460031b161c191690553880806123ea565b806001859682949686015181550195019301906123d6565b80519091906001600160401b03811161041e5761244d8161244860175461059c565b6122a9565b602080601f8311600114612489575081929360009261247e575b50508160011b916000199060031b1c191617601755565b015190503880612467565b6017600052601f19831694909190600080516020614282833981519152926000905b8782106124e35750508360019596106124ca575b505050811b01601755565b015160001960f88460031b161c191690553880806124bf565b806001859682949686015181550195019301906124ab565b60155490600160401b82101561041e5760019081830180601555831015610d35576015600052805160008051602061426283398151915290930192906020906001600160401b03831161041e5761255c83612556875461059c565b876122fd565b81601f8411600114612595575092829391839260009461258a575b50501b916000199060031b1c1916179055565b015192503880612577565b919083601f1981166125ac88600052602060002090565b946000905b888383106125e557505050106125cc575b505050811b019055565b015160001960f88460031b161c191690553880806125c2565b8587015188559096019594850194879350908101906125b1565b6040519061260c82610403565b601682527567657455736572546f53746f7228616464726573732960501b6020830152565b1561263857565b60405162461bcd60e51b81526020600482015260176024820152761bdc98cc4c4d4d4b9cdd5c1c1b1e4b989c995858da1959604a1b6044820152606490fd5b60001981019190821161059757565b9190820391821161059757565b600254600092916126a38261059c565b9081815260019283811690816000146126fd57506001146126c357505050565b9092935060026000526020928360002092846000945b8386106126e95750505050010190565b8054858701830152940193859082016126d9565b91935050602093945060ff191683830152151560051b010190565b90600092918054916127298361059c565b91828252600193848116908160001461278b575060011461274b575b50505050565b90919394506000526020928360002092846000945b838610612777575050505001019038808080612745565b805485870183015294019385908201612760565b9294505050602093945060ff191683830152151560051b01019038808080612745565b94909795919692936101208087526000906017546127cb8161059c565b80928a0152600190818116908160001461288b5750600114612840575b5050869798996128058261010099612813940360208c0152612693565b9089820360408b0152612718565b60608801999099526001600160a01b03948516608088015260a087015260c086015260e085015216910152565b6017600090815292506020906000805160206142828339815191525b8385106128765750505050860161014001896128056127e8565b8054858c01610140015293820193810161285c565b60ff1916610140808c019190915292151560051b8a0190920192508b915061280590506127e8565b6e5af43d82803e903d91602b57fd5bf390763d602d80600a3d3981f3363d3d373d3d3d363d7300000062ffffff8260881c161760005260781b17602052603760096000f0906001600160a01b0382161561290957565b60405163b06ebf3d60e01b8152600490fd5b60026014541461292c576002601455565b604051633ee5aeb560e01b8152600490fd5b612a1a96936129e16129e6926129dc6129eb96956129d7612a159a612a499f8d9f9d9061299a6129b99261297061291b565b6001600160a01b03906129919061298a8584161515612a65565b1515612aaa565b84161515612ae9565b6129b46129ae6113666113666003546102fc565b15612b2c565b6135a2565b6129c16138f1565b6129d26129cd33613e95565b612b6f565b613f53565b612351565b612426565b61221f565b6124fb565b6129fe6129f96004546102fc565b612bb5565b612a0785601a55565b612a1083601c55565b601b55565b602055565b612a256004546102fc565b90612a3b612a31610d3a565b90549060031b1c90565b612a43611e18565b92612bd7565b601880546001600160a01b0319163317905561032c6001601455565b15612a6c57565b60405162461bcd60e51b81526020600482015260166024820152751bdc98cc4c4d4d4b9a195e18985cd94b99985a5b195960521b6044820152606490fd5b15612ab157565b60405162461bcd60e51b815260206004820152601060248201526f6f7263313135352e7174792e7a65726f60801b6044820152606490fd5b15612af057565b60405162461bcd60e51b81526020600482015260146024820152736f7263313135352e6163636f756e742e7a65726f60601b6044820152606490fd5b15612b3357565b60405162461bcd60e51b81526020600482015260146024820152731bdc98cc4c4d4d4b985b1c9958591e4b9a5b9a5d60621b6044820152606490fd5b15612b7657565b60405162461bcd60e51b81526020600482015260176024820152761bdc98cc4c4d4d4b9d5b9cd958dd5c994b99985a5b1959604a1b6044820152606490fd5b601980546001600160a01b0319166001600160a01b0392909216919091179055565b92916001600160a01b03841691908215611ab957612bf491611d6e565b91600190612c0482845114613216565b8251845190818103611a3a57505081806000905b612ca5575b50835103612c7b5760006020840151600080516020614222833981519152612c51602088015160405191829133958361195a565b0390a45b815103612c71579060208061032c959301519101519133611e5b565b61032c9333612060565b6000604051600080516020614202833981519152339180612c9d898983613415565b0390a4612c55565b8451811015612ced5780612ce79160051b612ce0612cd88b612cd3602080868d010151958d01015194611919565b611929565b918254612212565b9055611981565b81612c18565b612c1d565b604051612cfe81610423565b60008152906000368137565b60405190612d1782610403565b600a82526973687574646f776e282960b01b6020830152565b60405190612d3d82610403565b601b82527a6765744e6674506f6f6c2875696e743235362c75696e743235362960281b6020830152565b9190826080910312610319578151916020810151916060604083015192015190565b90670de0b6b3a76400009182810292818404149015171561059757565b908160640291606483040361059757565b8181029291811591840414171561059757565b612dd56006546102fc565b90612def612de1612cf2565b612de9612d0a565b8461408b565b612fbb576000601c54604051602090612e4d612e3f82612e1d86868301919060206040840193600181520152565b0392612e31601f199485810183528261043e565b612e39612d30565b89613fa1565b838082518301019101612d67565b612e5a84889b959b612212565b8910612fae57670de0b6b3a76400009981612f56575b50505050612ec49291612eb791612ea96040519283612e9d89888301919060206040840193600281520152565b0390810184528361043e565b612eb1612d30565b90613fa1565b8051810182019101612d67565b959192909386612eea575b5050505050905004601a54808211612ee5575090565b905090565b612f0a92612eff612f1b9893612f0593612212565b90612686565b612189565b9081612f2657505050600090612212565b803880808080612ecf565b612f5092612f4a612f44612f3f93612f3f601a54612d89565b612db7565b91612da6565b90612189565b90612212565b91612f79612ec497969492612f05612f73612eb7989c968c612212565b8d612686565b9182612f8e575050505b959181939438612e70565b612fa9935090612f4a612f44612f3f93612f3f601a54612d89565b612f83565b5050505050505091505090565b5050601a5490565b6019549091906001600160a01b0390811690831681146130755760165415610d355760166000526000805160206142a2833981519152546130049082611940565b92836130105750505050565b61304f8161305d9561305894600160ff196022541617602255613031610d3a565b9390546040519461304186610423565b6000865260031b1c91611a70565b6129d281612bb5565b613185565b61306c60ff1960225416602255565b38808080612745565b505050565b9081602091031261031957516106d381610f49565b9493929190816000526000602052826130ac876040600020611929565b5410613131576001600160a01b038616331415806130fe575b6130e2579161032c949591613058936130dc611e18565b93611a70565b60405163711bec9160e11b815280610c9c883360048401611a56565b5061312c611b7261312533612cd38a60018060a01b03166000526001602052604060002090565b5460ff1690565b6130c5565b60405162461bcd60e51b81526020600482015260176024820152761bdc98cc4c4d4d4b9d1c985b9cd9995c8b99985a5b1959604a1b6044820152606490fd5b9081602091031261031957516106d381610308565b8051156131ef576004602061319e6113666003546102fc565b6040516343af1d9d60e01b815292839182905afa801561141c576131ef92611ba8926000926131f2575b50604051639e6c4bd160e01b6020820152926131ea91849190602483016106c2565b614136565b50565b6131ea91925061320f9060203d811161141557611407818361043e565b91906131c8565b1561321d57565b60405162461bcd60e51b81526020600482015260196024820152781bdc98cc4c4d4d4b98985d18da0b9b9bdd0b985b1b1bddd959603a1b6044820152606490fd5b1561326557565b60405162461bcd60e51b81526020600482015260146024820152731bdc98cc4c4d4d4b9cdd1bdc8b9a5b9d985b1a5960621b6044820152606490fd5b156132a857565b60405162461bcd60e51b815260206004820152600f60248201526e6f7263313135352e6c65737351747960881b6044820152606490fd5b604051906132ec82610403565b600882526769734c6f636b282960c01b6020830152565b1561330a57565b60405162461bcd60e51b815260206004820152601060248201526f6f7263313135352e696e61637469766560801b6044820152606490fd5b1561334957565b60405162461bcd60e51b815260206004820152600e60248201526d1bdc98cc4c4d4d4b9b1bd8dad95960921b6044820152606490fd5b6040519061338c82610403565b600c82526b6d61784e465453656e64282960a01b6020830152565b604051906133b482610403565b60118252704e465453656e645065724379636c65282960781b6020830152565b156133db57565b60405162461bcd60e51b815260206004820152601260248201527137b93198989a9a973634b6b4ba1737bb32b960711b6044820152606490fd5b909161342c6106d393604084526040840190610daf565b916020818403910152610daf565b9392918051835190818103611a3a57505060005b815181101561352157600581901b82810160209081015191860101516001600160a01b03929185908985166134b0575b613491948216613496575b505050611981565b61344e565b6134a691612cd3612cd892611919565b9055388481613489565b91929390506134c289612cd384611919565b548381106134ea5791869184613491969594036134e28c612cd385611919565b55945061347e565b6040516303dee4c560e01b81526001600160a01b038b16600482015260248101919091526044810184905260648101839052608490fd5b508051939493919291600103613571576020908101519101516040516001600160a01b039384169490931692339260008051602061422283398151915292829161356c91908361195a565b0390a4565b6040516001600160a01b039384169490931692339260008051602061420283398151915292829161356c9183613415565b6001600160a01b0390811690811561105a57600380546001600160a01b031981168417909155167fe939feee179e631422bcc8f6e6d7d908cb3f8af38f5372f17c77e15aea5c80ee600080a3565b6001600160a01b039091169052565b6138cf6101c061032c9261363861361682516102fc565b600580546001600160a01b0319166001600160a01b0392909216919091179055565b61366a61364860208301516102fc565b600680546001600160a01b0319166001600160a01b0392909216919091179055565b61369c61367a60408301516102fc565b600780546001600160a01b0319166001600160a01b0392909216919091179055565b6136ce6136ac60608301516102fc565b600880546001600160a01b0319166001600160a01b0392909216919091179055565b6137006136de60808301516102fc565b600980546001600160a01b0319166001600160a01b0392909216919091179055565b61373261371060a08301516102fc565b600a80546001600160a01b0319166001600160a01b0392909216919091179055565b61376461374260c08301516102fc565b600b80546001600160a01b0319166001600160a01b0392909216919091179055565b61379661377460e08301516102fc565b600c80546001600160a01b0319166001600160a01b0392909216919091179055565b6137c96137a76101008301516102fc565b600d80546001600160a01b0319166001600160a01b0392909216919091179055565b6137fc6137da6101208301516102fc565b600e80546001600160a01b0319166001600160a01b0392909216919091179055565b61382f61380d6101408301516102fc565b600f80546001600160a01b0319166001600160a01b0392909216919091179055565b6138626138406101608301516102fc565b601080546001600160a01b0319166001600160a01b0392909216919091179055565b6138956138736101808301516102fc565b601180546001600160a01b0319166001600160a01b0392909216919091179055565b6138c86138a66101a08301516102fc565b601280546001600160a01b0319166001600160a01b0392909216919091179055565b01516102fc565b601380546001600160a01b0319166001600160a01b0392909216919091179055565b6138ff6113666003546102fc565b604051634bf9c0ad60e11b815290602082600481845afa91821561141c57600092613e02575b5060405163cfbffe5360e01b815291602083600481855afa92831561141c57600093613de1575b5060405163ab6e844f60e01b815290602082600481865afa91821561141c57600092613dc0575b50604051630536340960e21b815291602083600481875afa92831561141c57600093613d9f575b5060405163d1f956b160e01b815292602084600481885afa93841561141c57600094613d7e575b50604051631cc3bfab60e31b815293602085600481895afa94851561141c57600095613d5d575b5060405163e09d394d60e01b81526020816004818a5afa90811561141c57600091613d3e575b506040516314ac1b5960e21b81526020816004818b5afa90811561141c57600091613d1f575b5060405163013cf08b60e01b815260006004820152916020836024818c5afa92831561141c57600093613cfe575b50604051635e09dbe760e01b8152976020896004818d5afa94851561141c57600499600096613cdd575b50604051635506ee0b60e11b8152996020908b90818e5afa96871561141c5760049a600098613cbc575b50604051636402742760e01b81529a6020908c90818f5afa98891561141c5760049b60009a613c9b575b5060208d6040519d8e80926330125cf560e01b82525afa9a8b1561141c578d60049d60009d613c79575b506020906040519e8f80926324768d9160e01b82525afa9c8d1561141c5760009d613c58575b506040516313b92d3560e31b81529d8e9081905a92600491602094fa9d8e1561141c5760009e613c37575b50613b64610461565b9e8f91613b7190836135f0565b613b7e90602083016135f0565b60400190613b8b916135f0565b613b989060608e016135f0565b613ba59060808d016135f0565b613bb29060a08c016135f0565b613bbf9060c08b016135f0565b613bcc9060e08a016135f0565b613bda9061010089016135f0565b613be89061012088016135f0565b613bf69061014087016135f0565b613c049061016086016135f0565b613c129061018085016135f0565b613c20906101a084016135f0565b613c2e906101c083016135f0565b61032c906135ff565b613c51919e5060203d60201161141557611407818361043e565b9c38613b5b565b613c72919d5060203d60201161141557611407818361043e565b9b38613b30565b6020919d50613c9490823d841161141557611407818361043e565b9c90613b0a565b613cb5919a5060203d60201161141557611407818361043e565b9838613ae0565b613cd691985060203d60201161141557611407818361043e565b9638613ab6565b613cf791965060203d60201161141557611407818361043e565b9438613a8c565b613d1891935060203d60201161141557611407818361043e565b9138613a62565b613d38915060203d60201161141557611407818361043e565b38613a34565b613d57915060203d60201161141557611407818361043e565b38613a0e565b613d7791955060203d60201161141557611407818361043e565b93386139e8565b613d9891945060203d60201161141557611407818361043e565b92386139c1565b613db991935060203d60201161141557611407818361043e565b913861399a565b613dda91925060203d60201161141557611407818361043e565b9038613973565b613dfb91935060203d60201161141557611407818361043e565b913861394c565b613e1c91925060203d60201161141557611407818361043e565b9038613925565b600554604051613e6b916001600160a01b031690613e4081610403565b6008815267697353616665282960c01b602082015260405191613e6283610423565b60008352613fcc565b9080613e8a575b15610aa257806020806106d39351830101910161307a565b506020815114613e72565b613eef60018060a01b038060055416604051916020941684830152838252613ebc82610403565b60405190613ec982610403565b601582527469735365637572654261736528616464726573732960581b85830152613fcc565b9080613f0c575b15610aa257816106d3928251830101910161307a565b5081815114613ef6565b6006546040516106d3916001600160a01b031690613f3381610403565b600681526569416765282960d01b60208201526040519161110c83610423565b6001600160a01b0390811690811561105a57600480546001600160a01b031981168417909155167f8292fce18fa69edf4db7b94ea2e58241df0ae57f97e0a6c9b29067028bf92d76600080a3565b90613fac9291613fcc565b9060009015613fb9575090565b6040519150613fc782610423565b815290565b803b1561402e57600092839263ffffffff60e01b9060208151910120169061401e602460405180936020820195865261400e815180926020868601910161067a565b810103600481018452018261043e565b51915afa61402a611e2b565b9091565b50505060009060405161404081610423565b6000815290565b929161405591600094613fcc565b9080614080575b6140635750565b90915060208180518101031261031957602001516102fc81610308565b50602081511461405c565b929161409991600094613fcc565b90806140bc575b6140a75750565b6106d39192506020808251830101910161307a565b5060208151146140a0565b92916140d591600094613fcc565b90806140fa575b6140e35750565b909150602081805181010312610319576020015190565b5060208151146140dc565b906020825192015163ffffffff60e01b90818116936004811061412757505050565b60040360031b82901b16169150565b6001600160a01b0381161561105a57600080918351908260208601915af19061415d611e2b565b9115614167575090565b8051600091906004116141b25761417e9150614105565b81511561418e5750805190602001fd5b604051630870274d60e21b81526001600160e01b0319919091166004820152602490fd5b5061417e565b803b60006141c582610481565b926141d3604051948561043e565b82845260208401903c602d8151106141ef57602a015160601c90565b60405163baf3f0f760e01b8152600490fdfe4a39dc06d4c0dbc64b70af90fd698a233a518aa5d07e595d983b8c0526c8f7fbc3d58168c5ae7397731d063d5bbf3d657854427343f4c083240f7aacaa2d0f62405787fa12a823e0f2b7631cc41b3ba8828b3321ca811111fa75cd3aa3bb5ace55f448fdea98c4d29eb340757ef0a66cd03dbb9538908a6a81d96026b71ec475c624b66cc0138b8fabc209247f72d758e1cf3343756d543badbf24212bed8c15d833147d7dc355ba459fc788f669e58cfaf9dc25ddcd0702e87d69c7b5124289a2646970667358221220c3e1fc1f117a1831eca893eaec7405b353af41c1ff63e77778cef641cb74cba964736f6c63430008140033a26469706673582212209dab87d87dc085e605d149c2d715cd69b9591d8aab1912194680ad56fcea755464736f6c63430008140033","linkReferences":{}},"methodIdentifiers":{"deployNFTCat()":"ed4fe597","deployNFTLion()":"1f281210","deployNFTMachineBull()":"5f3ed283","deployNFTMonalisa()":"2e417d8e","deployNFTNeonlit()":"61358ffe","hexb()":"bc9df3d7","nFTCat()":"a0f0e54f","nFTLion()":"1a1575a5","nFTMachineBull()":"de04dae4","nFTMonalisa()":"209d197a","nFTNeonlit()":"1697db05","nFTProxy()":"a4ac704e","nftFactory()":"d63843cd"},"id":33}