{"abi":[{"type":"constructor","inputs":[{"name":"_hex","type":"address","internalType":"address"},{"name":"_price","type":"address","internalType":"address"},{"name":"_old741","type":"address","internalType":"address"}],"stateMutability":"nonpayable"},{"type":"function","name":"dAOAssembly","inputs":[],"outputs":[{"name":"","type":"address","internalType":"address"}],"stateMutability":"view"},{"type":"function","name":"daocore","inputs":[],"outputs":[{"name":"","type":"address","internalType":"address"}],"stateMutability":"view"},{"type":"function","name":"nested741","inputs":[],"outputs":[{"name":"","type":"address","internalType":"address"}],"stateMutability":"view"},{"type":"function","name":"old741","inputs":[],"outputs":[{"name":"","type":"address","internalType":"address"}],"stateMutability":"view"},{"type":"function","name":"price","inputs":[],"outputs":[{"name":"","type":"address","internalType":"address"}],"stateMutability":"view"}],"bytecode":{"object":"0x6080346101b757601f6196e238819003918201601f19168301926001600160401b03929091838511838610176101a15781606092849260409788528339810103126101b75761004d816101bc565b6100648461005d602085016101bc565b93016101bc565b9160018060a01b03199273c0cee8b561cc4f60869776ca5b0b7a295e04f5af846001541617600155855161156b9586820196828810828911176101a15761032c83396001600160a01b039485168088526000979092908190036020019088f080156101835785168660035416176003558751615158808201908282108483111761018d57602091839161458a833985815203019088f08015610183578516866002541617600255875191612cf3808401928484109084111761016f579183916020936118978439815203019086f080156101655790838092168560045416176004551683600154161760015516908254161790555161015b90816101d18239f35b86513d87823e3d90fd5b634e487b7160e01b89526041600452602489fd5b88513d89823e3d90fd5b634e487b7160e01b8a52604160045260248afd5b634e487b7160e01b600052604160045260246000fd5b600080fd5b51906001600160a01b03821682036101b75756fe608080604052600436101561001357600080fd5b600090813560e01c90816314837455146100fc5750806314d8d024146100d357806345cff900146100aa5780635540c5ac146100815763a035b1fe1461005857600080fd5b3461007e578060031936011261007e57546040516001600160a01b039091168152602090f35b80fd5b503461007e578060031936011261007e576001546040516001600160a01b039091168152602090f35b503461007e578060031936011261007e576002546040516001600160a01b039091168152602090f35b503461007e578060031936011261007e576004546040516001600160a01b039091168152602090f35b9050346101215781600319360112610121576003546001600160a01b03168152602090f35b5080fdfea264697066735822122082bb31787f6b5ef6c87a513aa20986cea33dc0f9dbd12de4dbb733fd817d53b764736f6c6343000814003360803461009757601f61156b38819003918201601f19168301916001600160401b0383118484101761009c5780849260209460405283398101031261009757516001600160a01b038116908190036100975780156100855760018060a01b031933816001541617600155600054161760005560006012556040516114b890816100b38239f35b60405163e6c4247b60e01b8152600490fd5b600080fd5b634e487b7160e01b600052604160045260246000fdfe60806040526004361015610018575b361561001657005b005b60003560e01c806312065fe0146101185780631f185d161461011357806325924f341461010e578063339459a6146101095780633b9b79551461010457806361b7fbd9146100ff5780638da5cb5b146100fa578063a1f7f539146100f5578063af484526146100f0578063b90306ad146100eb578063c54e44b0146100e6578063c89b84fd146100e1578063dbac26e9146100dc578063e01ad5fd146100d7578063e0a9bc2b146100d25763fdc10bc90361000e57610c99565b610c7e565b610c03565b610bc1565b610afd565b610a8f565b6109a7565b610930565b6108c6565b61089d565b6107de565b6107ab565b61024e565b61021d565b610156565b3461013457600036600319011261013457602047604051908152f35b600080fd5b6001600160a01b031690565b6001600160a01b0381160361013457565b3461013457602080600319360112610134576101c960043561017781610145565b6002546040516001600160a01b0392831685820152848152911661019a82610cca565b604051906101a782610cca565b601182527069735369676e657228616464726573732960781b8583015261132d565b919080610213575b156102015781816101eb926101fd94518301019101611239565b60405190151581529081906020820190565b0390f35b604051633204506f60e01b8152600490fd5b50808251146101d1565b3461013457602036600319011261013457602061024460043561023f81610145565b610e11565b6040519015158152f35b346101345760003660031901126101345761027261026d600054610139565b610139565b604051634bf9c0ad60e11b815290602082600481845afa9182156105db5760009261078a575b5060405163cfbffe5360e01b815291602083600481855afa9283156105db57600093610769575b5060405163ab6e844f60e01b815290602082600481865afa9182156105db57600092610748575b50604051630536340960e21b815291602083600481875afa9283156105db57600093610727575b5060405163d1f956b160e01b815292602084600481885afa9384156105db57600094610706575b50604051631cc3bfab60e31b815293602085600481895afa9485156105db576000956106e5575b5060405163e09d394d60e01b81526020816004818a5afa9081156105db576000916106c6575b506040516314ac1b5960e21b81526020816004818b5afa9081156105db576000916106a7575b5060405163013cf08b60e01b815260006004820152916020836024818c5afa9283156105db57600093610686575b50604051635e09dbe760e01b8152976020896004818d5afa9485156105db57600499600096610665575b50604051635506ee0b60e11b8152996020908b90818e5afa9687156105db5760049a600098610644575b50604051636402742760e01b81529a6020908c90818f5afa9889156105db5760049b60009a610623575b5060208d6040519d8e80926330125cf560e01b82525afa9a8b156105db578d60049d60009d610601575b506020906040519e8f80926324768d9160e01b82525afa9c8d156105db5760009d6105e0575b506040516313b92d3560e31b81529d8e9081905a92600491602094fa9d8e156105db5760009e6105aa575b506104d7610d23565b9e8f916104e49083610f36565b6104f19060208301610f36565b604001906104fe91610f36565b61050b9060608e01610f36565b6105189060808d01610f36565b6105259060a08c01610f36565b6105329060c08b01610f36565b61053f9060e08a01610f36565b61054d906101008901610f36565b61055b906101208801610f36565b610569906101408701610f36565b610577906101608601610f36565b610585906101808501610f36565b610593906101a08401610f36565b6105a1906101c08301610f36565b61001690610f45565b6105cd919e5060203d6020116105d4575b6105c58183610d00565b810190610f15565b9c386104ce565b503d6105bb565b610f2a565b6105fa919d5060203d6020116105d4576105c58183610d00565b9b386104a3565b6020919d5061061c90823d84116105d4576105c58183610d00565b9c9061047d565b61063d919a5060203d6020116105d4576105c58183610d00565b9838610453565b61065e91985060203d6020116105d4576105c58183610d00565b9638610429565b61067f91965060203d6020116105d4576105c58183610d00565b94386103ff565b6106a091935060203d6020116105d4576105c58183610d00565b91386103d5565b6106c0915060203d6020116105d4576105c58183610d00565b386103a7565b6106df915060203d6020116105d4576105c58183610d00565b38610381565b6106ff91955060203d6020116105d4576105c58183610d00565b933861035b565b61072091945060203d6020116105d4576105c58183610d00565b9238610334565b61074191935060203d6020116105d4576105c58183610d00565b913861030d565b61076291925060203d6020116105d4576105c58183610d00565b90386102e6565b61078391935060203d6020116105d4576105c58183610d00565b91386102bf565b6107a491925060203d6020116105d4576105c58183610d00565b9038610298565b34610134576000366003190112610134576000546040516001600160a01b039091168152602090f35b8015150361013457565b34610134576040366003190112610134576004356107fb81610145565b60243590610808826107d4565b61081061124e565b1561088b576005546001600160a01b0391908216330361087957166000526011602052604060002060ff1981541660ff8315151617905560001461086757601254600019811461086257600101601255005b610eff565b60125480156108625760001901601255005b60405163ea8e4eb560e01b8152600490fd5b604051634ee2123760e11b8152600490fd5b34610134576000366003190112610134576001546040516001600160a01b039091168152602090f35b3461013457600036600319011261013457602061092860018060a01b03600654166040516108f381610cca565b601381527267657464656c656761746f72436f756e74282960681b848201526040519161091f83610ce5565b60008352611444565b604051908152f35b3461013457602080600319360112610134576101c960043561095181610145565b6002546040516001600160a01b0392831685820152848152911661097482610cca565b6040519061098182610cca565b601582527469735365637572654261736528616464726573732960581b8583015261132d565b34610134576020366003190112610134576004356109c361124e565b1561088b576005546001600160a01b0316330361087957600090600460206109ee61026d8554610139565b6040516311be646b60e21b815292839182905afa80156105db5783808481949382948391610a71575b505af1610a226112fd565b5015610201577fcdcc745fe377b103b45fa0cec23ae3ef93d6fc6a84a01f0d18c40b354dd1d5d8610a6b610a5a61026d600b54610139565b604051938452929081906020820190565b0390a280f35b610a89915060203d81116105d4576105c58183610d00565b38610a17565b3461013457602036600319011261013457600435610aac81610145565b803b6000610ab982610d43565b92610ac76040519485610d00565b82845260208401903c602d815110610aeb57602a602091015160601c604051908152f35b60405163baf3f0f760e01b8152600490fd5b34610134576000366003190112610134576003546001600160a01b03908116610b37610b27610d71565b9160409283519161091f83610ce5565b9160045416610b446112c0565b92825193602085015282840152818352606083019280841060018060401b03851117610bbc5783610bad926101fd958552610b7e82610cca565b601d82527f67657472616e6b436f756e742875696e743235362c75696e74323536290000006080840152611444565b90519081529081906020820190565b610cb4565b3461013457602036600319011261013457600435610bde81610145565b60018060a01b03166000526011602052602060ff604060002054166040519015158152f35b34610134576020366003190112610134576020610244600435610c2581610145565b6006546040516001600160a01b03928316858201528481529116610c4882610cca565b60405190610c5582610cca565b6018825277697364656c656761746f724e6f646528616464726573732960401b85830152611408565b3461013457600036600319011261013457602061024461124e565b346101345760003660031901126101345760206109286112c0565b634e487b7160e01b600052604160045260246000fd5b604081019081106001600160401b03821117610bbc57604052565b602081019081106001600160401b03821117610bbc57604052565b601f909101601f19168101906001600160401b03821190821017610bbc57604052565b604051906101e082016001600160401b03811183821017610bbc57604052565b6001600160401b038111610bbc57601f01601f191660200190565b60405190610d6b82610ce5565b60008252565b60405190610d7e82610cca565b600c82526b72616e6b666f7244414f282960a01b6020830152565b60405190610da682610cca565b601682527567657455736572546f53746f7228616464726573732960501b6020830152565b60405190610dd882610cca565b600682526572616e6b282960d01b6020830152565b60405190610dfa82610cca565b600882526769734c6f636b282960c01b6020830152565b6003546001600160a01b039190610e39908316610e2c610d71565b6040519161091f83610ce5565b610e7a610e47600454610139565b604080516001600160a01b03861660208083019190915281529190610e6c9083610d00565b610e74610d99565b906113c4565b92831615610ef757610eb6610e9f610e90610dcb565b610e98610d5e565b9086611444565b93610ea8610ded565b610eb0610d5e565b91611408565b9210159182610eee575b5081610eca575090565b6001600160a01b031660009081526011602052604090205460ff1615905090565b90565b15915038610ec0565b505050600090565b634e487b7160e01b600052601160045260246000fd5b908160209103126101345751610eeb81610145565b6040513d6000823e3d90fd5b6001600160a01b039091169052565b6112156101c061123792610f7e610f5c8251610139565b600280546001600160a01b0319166001600160a01b0392909216919091179055565b610fb0610f8e6020830151610139565b600380546001600160a01b0319166001600160a01b0392909216919091179055565b610fe2610fc06040830151610139565b600480546001600160a01b0319166001600160a01b0392909216919091179055565b611014610ff26060830151610139565b600580546001600160a01b0319166001600160a01b0392909216919091179055565b6110466110246080830151610139565b600680546001600160a01b0319166001600160a01b0392909216919091179055565b61107861105660a0830151610139565b600780546001600160a01b0319166001600160a01b0392909216919091179055565b6110aa61108860c0830151610139565b600880546001600160a01b0319166001600160a01b0392909216919091179055565b6110dc6110ba60e0830151610139565b600980546001600160a01b0319166001600160a01b0392909216919091179055565b61110f6110ed610100830151610139565b600a80546001600160a01b0319166001600160a01b0392909216919091179055565b611142611120610120830151610139565b600b80546001600160a01b0319166001600160a01b0392909216919091179055565b611175611153610140830151610139565b600c80546001600160a01b0319166001600160a01b0392909216919091179055565b6111a8611186610160830151610139565b600d80546001600160a01b0319166001600160a01b0392909216919091179055565b6111db6111b9610180830151610139565b600e80546001600160a01b0319166001600160a01b0392909216919091179055565b61120e6111ec6101a0830151610139565b600f80546001600160a01b0319166001600160a01b0392909216919091179055565b0151610139565b601080546001600160a01b0319166001600160a01b0392909216919091179055565b565b908160209103126101345751610eeb816107d4565b600254604051611296916001600160a01b03169061126b81610cca565b6008815267697353616665282960c01b60208201526040519161128d83610ce5565b6000835261132d565b90806112b5575b156102015780602080610eeb93518301019101611239565b50602081511461129d565b600354604051610eeb916001600160a01b0316906112dd81610cca565b600681526569416765282960d01b60208201526040519161091f83610ce5565b3d15611328573d9061130e82610d43565b9161131c6040519384610d00565b82523d6000602084013e565b606090565b9190823b156113ab578051906020918263ffffffff60e01b92012016916040519180830193845281519160005b83811061139757505050918161138760248260009795968897018783820152036004810184520182610d00565b51915afa6113936112fd565b9091565b81810183015185820160240152820161135a565b5050506000906040516113bd81610ce5565b6000815290565b92916113d29160009461132d565b90806113fd575b6113e05750565b909150602081805181010312610134576020015161013981610145565b5060208151146113d9565b92916114169160009461132d565b9080611439575b6114245750565b610eeb91925060208082518301019101611239565b50602081511461141d565b92916114529160009461132d565b9080611477575b6114605750565b909150602081805181010312610134576020015190565b50602081511461145956fea2646970667358221220f502bffd59ae5532beac42b5d8b9b9523ce54bf99993b0d54b3ee288b463c7be64736f6c634300081400336080346200009e57601f62002cf338819003918201601f19168301916001600160401b03831184841017620000a3578084926020946040528339810103126200009e57516001600160a01b038116908190036200009e5780156200008c5760018060a01b03193381600154161760015560005416176000556046601155604051612c399081620000ba8239f35b60405163e6c4247b60e01b8152600490fd5b600080fd5b634e487b7160e01b600052604160045260246000fdfe60806040526004361015610018575b361561001657005b005b60003560e01c8063013cf08b146101c857806312065fe0146101c35780631f185d16146101be57806326705c3c146101b9578063339459a6146101b45780633b9b7955146101af57806343859632146101aa57806345a257bc146101a55780635c622a0e146101a0578063604ff4b11461019b578063896d6db1146101965780638da5cb5b1461019157806398e527d31461018c578063995e433914610187578063a1f7f53914610182578063af4845261461017d578063b7ccfe3214610178578063b90306ad14610173578063c54e44b01461016e578063c7f758a814610169578063c9d27afe14610164578063cc48bf161461015f578063d3325a2c1461015a578063e01ad5fd14610155578063e0a9bc2b14610150578063eeebb3c31461014b5763fdc10bc90361000e576119d0565b6117c3565b6117a8565b611781565b6116f3565b6115c1565b611442565b6113a6565b6112e1565b6111f9565b61117b565b6110b4565b611091565b61100d565b610fef565b610fc6565b610f2b565b610e60565b610e14565b610bb4565b610b26565b610afd565b61058d565b61056f565b61053e565b610511565b610455565b634e487b7160e01b600052603260045260246000fd5b601254811015610202576012600052600b602060002091020190600090565b6101cd565b90600182811c92168015610237575b602083101461022157565b634e487b7160e01b600052602260045260246000fd5b91607f1691610216565b906000929180549161025283610207565b9182825260019384811690816000146102b45750600114610274575b50505050565b90919394506000526020928360002092846000945b8386106102a057505050500101903880808061026e565b805485870183015294019385908201610289565b9294505050602093945060ff191683830152151560051b0101903880808061026e565b634e487b7160e01b600052604160045260246000fd5b604081019081106001600160401b0382111761030857604052565b6102d7565b602081019081106001600160401b0382111761030857604052565b601f909101601f19168101906001600160401b0382119082101761030857604052565b9061036661035f9260405193848092610241565b0383610328565b565b6001600160a01b031690565b60005b8381106103875750506000910152565b8181015183820152602001610377565b906020916103b081518092818552858086019101610374565b601f01601f1916010190565b99939561040d61043d969f9e9d99936101809d986104519c9660408f6103ee6104479e986101a0808452830190610397565b6001600160a01b03909516602082015201528d820360608f0152610397565b60808c019f909f5260a08b015260c08a015260e089015215156101008801526001600160a01b0316610120870152565b1515610140850152565b1515610160830152565b0152565b3461050c57602036600319011261050c5760043560125481101561050c5761047c906101e3565b506040516104958161048e8185610241565b0382610328565b6105086104a56001840154610368565b6002840154906104b76003860161034b565b93600486015495600581015493600682015460078301549060096008850154940154966040519a8b9a8b9560ff8860b01c169960ff8960a81c169960ff60018060a01b038b60081c169a16986103bc565b0390f35b600080fd5b3461050c57600036600319011261050c57602047604051908152f35b6001600160a01b0381160361050c57565b3461050c57602036600319011261050c5760206105656004356105608161052d565b612838565b6040519015158152f35b3461050c57600036600319011261050c576020601454604051908152f35b3461050c57600036600319011261050c576105b16105ac600054610368565b610368565b604051634bf9c0ad60e11b815290602082600481845afa91821561091a57600092610ac9575b5060405163cfbffe5360e01b815291602083600481855afa92831561091a57600093610aa8575b5060405163ab6e844f60e01b815290602082600481865afa91821561091a57600092610a87575b50604051630536340960e21b815291602083600481875afa92831561091a57600093610a66575b5060405163d1f956b160e01b815292602084600481885afa93841561091a57600094610a45575b50604051631cc3bfab60e31b815293602085600481895afa94851561091a57600095610a24575b5060405163e09d394d60e01b81526020816004818a5afa90811561091a57600091610a05575b506040516314ac1b5960e21b81526020816004818b5afa90811561091a576000916109e6575b5060405163013cf08b60e01b815260006004820152916020836024818c5afa92831561091a576000936109c5575b50604051635e09dbe760e01b8152976020896004818d5afa94851561091a576004996000966109a4575b50604051635506ee0b60e11b8152996020908b90818e5afa96871561091a5760049a600098610983575b50604051636402742760e01b81529a6020908c90818f5afa98891561091a5760049b60009a610962575b5060208d6040519d8e80926330125cf560e01b82525afa9a8b1561091a578d60049d60009d610940575b506020906040519e8f80926324768d9160e01b82525afa9c8d1561091a5760009d61091f575b506040516313b92d3560e31b81529d8e9081905a92600491602094fa9d8e1561091a5760009e6108e9575b50610816611662565b9e8f916108239083611cf8565b6108309060208301611cf8565b6040019061083d91611cf8565b61084a9060608e01611cf8565b6108579060808d01611cf8565b6108649060a08c01611cf8565b6108719060c08b01611cf8565b61087e9060e08a01611cf8565b61088c906101008901611cf8565b61089a906101208801611cf8565b6108a8906101408701611cf8565b6108b6906101608601611cf8565b6108c4906101808501611cf8565b6108d2906101a08401611cf8565b6108e0906101c08301611cf8565b610016906124bf565b61090c919e5060203d602011610913575b6109048183610328565b81019061249e565b9c3861080d565b503d6108fa565b6124b3565b610939919d5060203d602011610913576109048183610328565b9b386107e2565b6020919d5061095b90823d8411610913576109048183610328565b9c906107bc565b61097c919a5060203d602011610913576109048183610328565b9838610792565b61099d91985060203d602011610913576109048183610328565b9638610768565b6109be91965060203d602011610913576109048183610328565b943861073e565b6109df91935060203d602011610913576109048183610328565b9138610714565b6109ff915060203d602011610913576109048183610328565b386106e6565b610a1e915060203d602011610913576109048183610328565b386106c0565b610a3e91955060203d602011610913576109048183610328565b933861069a565b610a5f91945060203d602011610913576109048183610328565b9238610673565b610a8091935060203d602011610913576109048183610328565b913861064c565b610aa191925060203d602011610913576109048183610328565b9038610625565b610ac291935060203d602011610913576109048183610328565b91386105fe565b610ae391925060203d602011610913576109048183610328565b90386105d7565b6001600160a01b03909116815260200190565b3461050c57600036600319011261050c576000546040516001600160a01b039091168152602090f35b3461050c57604036600319011261050c57600435602435610b468161052d565b6000198201918211610b7857610b6c60ff91600a610b656020956101e3565b5001612356565b54166040519015158152f35b611b04565b9181601f8401121561050c578235916001600160401b03831161050c576020838186019501011161050c57565b8015150361050c57565b3461050c5760e036600319011261050c576004356024356001600160401b03811161050c57610be7903690600401610b7d565b9190604435610bf58161052d565b606435906001600160e01b0319821680830361050c5760843560a4359560c43592610c1f84610baa565b610c2833612838565b15610e0257610c4390610c3c8a15156119eb565b1515611a31565b8615801590610df0575b610c5690611a7a565b80610d1d575095610d1895949392610cf27f0454182b30f1740c505634bb66f7f3001e232b3c8797a62b1db11b347a891ff49361001699610ccc610c98611682565b92610ca436888c6116bc565b8452610cb38660208601611cf8565b6001600160e01b03198916604085015215156060840152565b60808201528760a0820152610ced6014546000526013602052604060002090565b611dcd565b610d1060145496879560405194859460018060a01b03169885611eff565b0390a3611f2e565b601455565b96610deb9593610dd6600080516020612be4833981519152987f74608b2c8ffedaacf37a0fda8ea5cb94ebae20dc104623eb2fabb1bcec211608948b9698610d69601454891115611ac1565b610dbd8a610d89610d798b611b1a565b6000526013602052604060002090565b610d94898d83611b7d565b8560036001830192610da68b85611c44565b610db08785611c63565b8760028201550155611c86565b6040516001600160a01b03909516989495869586611cc4565b0390a360405191829182901515815260200190565b0390a2005b506001600160a01b0384161515610c4d565b60405163ea8e4eb560e01b8152600490fd5b3461050c57602036600319011261050c576004356000198101908111610b78576008610e416040926101e3565b50015460ff825191818160a81c161515835260b01c1615156020820152f35b3461050c57602036600319011261050c57600435610e7c6127c6565b15610f1957333003610ee45780151580610ed9575b15610e9b57601155005b60405162461bcd60e51b815260206004820152601660248201527564616f2e696e76616c69642e70657263656e7461676560501b6044820152606490fd5b506064811115610e91565b60405162461bcd60e51b815260206004820152600d60248201526c64616f2e66616b652e636f726560981b6044820152606490fd5b604051634ee2123760e11b8152600490fd5b3461050c57602036600319011261050c576004356000526013602052610f88604060002060405190610f618261035f8184610241565b600181015490600360028201549101549060ff60405195869560c0875260c0870190610397565b6001600160a01b0385166020870152604085811b6001600160e01b0319169087015260c09490941c1615156060850152608084015260a08301520390f35b3461050c57600036600319011261050c576001546040516001600160a01b039091168152602090f35b3461050c57600036600319011261050c576020601254604051908152f35b3461050c57602036600319011261050c576004356000198101908111610b7857611036906101e3565b50600481015460058201546006830154600784015460089094015460408051948552602085019390935291830152606082019290925260ff60a883901c81161515608083015260b09290921c909116151560a082015260c090f35b3461050c57600036600319011261050c5760206110ac61295a565b604051908152f35b3461050c5760208060031936011261050c5761112b6004356110d58161052d565b6002546040516001600160a01b039283168582015284815291166110f8826102ed565b60405190611105826102ed565b601582527469735365637572654261736528616464726573732960581b858301526129d4565b919080611171575b1561115f57818161114d92610508945183010191016127b1565b60405191829182901515815260200190565b604051633204506f60e01b8152600490fd5b5080825114611133565b3461050c57604036600319011261050c5760043560243561119b81610baa565b6111a433612838565b15610e02576111b7601454831115611ac1565b6000198201828111610b7857600080516020612be483398151915291602091600052601382526111ee816001604060002001611c86565b6040519015158152a2005b3461050c57602036600319011261050c576004356112156127c6565b15610f19576005546001600160a01b03163303610e0257600090600460206112406105ac8554610368565b6040516311be646b60e21b815292839182905afa801561091a57838084819493829483916112c3575b505af16112746129a4565b501561115f577fcdcc745fe377b103b45fa0cec23ae3ef93d6fc6a84a01f0d18c40b354dd1d5d86112bd6112ac6105ac600b54610368565b604051938452929081906020820190565b0390a280f35b6112db915060203d8111610913576109048183610328565b38611269565b3461050c57602036600319011261050c576004356112fe8161052d565b803b600061130b826116a1565b926113196040519485610328565b82845260208401903c602d81511061133d57602a602091015160601c604051908152f35b60405163baf3f0f760e01b8152600490fd5b9361136b6113a39896939297949760e0875260e0870190610397565b6001600160a01b03928316602087015260408601979097521660608401521515608083015260a082015280830360c090910152610397565b90565b3461050c57602036600319011261050c576004356000198101908111610b78576113cf906101e3565b5060018101546002820154600883015460098401546040516001600160a01b039485169561050894600394929161142c906114158461140e8184610241565b0385610328565b6114256040518098819301610241565b0386610328565b60405197889760ff85169460081c16928861134f565b3461050c57604036600319011261050c5760043560243561146281610baa565b61146a6127c6565b15610f1957611478336128fb565b15610e0257811515806115b5575b61148f90612256565b6114a061149b83611b1a565b6101e3565b50906114d860ff60088401546114b7828216612293565b6114ce60068601546114c76128b5565b11156122d3565b60b01c1615612312565b61151961150c600a84016115056115006114fc6114f53385612356565b5460ff1690565b1590565b61236d565b3390612356565b805460ff19166001179055565b80156115a0576004820161152d8154611f2e565b90555b827f0def80f9a3b4c7a4251442658ccf516bf33ea4acaf31638fc6da8ebdb0f64c7260405180611567339582901515815260200190565b0390a36004810154600782015480911091821592611591575b505061158857005b610016906123ad565b60050154101590503880611580565b600582016115ae8154611f2e565b9055611530565b50601254821115611486565b3461050c57602036600319011261050c576004356115de33612838565b15610e025780151580611656575b6115f590612256565b6000198101818111610b785761160c6008916101e3565b5001805461162060ff8260b01c1615612312565b60ff60b01b1916600160b01b1790557f4cf2797951877f41b38931a68643f9249273f32fd396532213aa4f1222c9d16b600080a2005b506012548111156115ec565b604051906101e082016001600160401b0381118382101761030857604052565b6040519060c082016001600160401b0381118382101761030857604052565b6001600160401b03811161030857601f01601f191660200190565b9291926116c8826116a1565b916116d66040519384610328565b82948184528183011161050c578281602093846000960137010152565b3461050c5760a036600319011261050c576001600160401b0360043581811161050c57611724903690600401610b7d565b6024929192356117338161052d565b60643592831161050c573660238401121561050c57610508936117636117719436906024816004013591016116bc565b91608435936044359261217a565b6040519081529081906020820190565b3461050c57602036600319011261050c5760206105656004356117a38161052d565b6128fb565b3461050c57600036600319011261050c5760206105656127c6565b3461050c57608036600319011261050c576004803590602435906117e68261052d565b6044356001600160401b03811161050c576118049036908301610b7d565b909261180e6127c6565b156119bf5761181c336128fb565b156119ae5761182f601454861115611ac1565b61183b610d7986611b1a565b9161186960018401549161185460ff8460c01c16611f3d565b60409683881b6001600160e01b031916611f81565b600384015490949091821561198f57506118838154610368565b918651916118bd6114fc8461189b8860208301610aea565b03946118af601f1996878101835282610328565b6118b7611fb9565b87612a93565b6119815750916118fa9593918360016105089a979514611944575b600214611909575b50505b6002820154936118f56064359361034b565b6120c7565b90519081529081906020820190565b9061192f6119239261193d948a5194859160208301610aea565b03908101845283610328565b61193761201c565b90612a4f565b38806118e0565b9261197961195f61196b6002938c5192839160208301610aea565b03858101835282610328565b611973611fea565b85612a4f565b9390506118d8565b875163ea8e4eb560e01b8152fd5b610508976118fa96909590945092506001600160a01b031690506118e3565b60405163ea8e4eb560e01b81528390fd5b604051634ee2123760e11b81528390fd5b3461050c57600036600319011261050c5760206110ac6128b5565b156119f257565b60405162461bcd60e51b815260206004820152601760248201527664616f2e74656d706c6174652e656d7074792e6465736360481b6044820152606490fd5b15611a3857565b60405162461bcd60e51b815260206004820152601a6024820152793230b7973a32b6b83630ba32973d32b9379739b2b632b1ba37b960311b6044820152606490fd5b15611a8157565b60405162461bcd60e51b815260206004820152601860248201527719185bcb9d195b5c1b185d194b9e995c9bcb9d185c99d95d60421b6044820152606490fd5b15611ac857565b60405162461bcd60e51b815260206004820152601460248201527319185bcb9d195b5c1b185d194b9a5b9d985b1a5960621b6044820152606490fd5b634e487b7160e01b600052601160045260246000fd5b600019810191908211610b7857565b90601f8111611b3757505050565b600091825260208220906020601f850160051c83019410611b73575b601f0160051c01915b828110611b6857505050565b818155600101611b5c565b9092508290611b53565b9092916001600160401b03811161030857611ba281611b9c8454610207565b84611b29565b6000601f8211600114611bdc5781929394600092611bd1575b50508160011b916000199060031b1c1916179055565b013590503880611bbb565b601f19821694611bf184600052602060002090565b91805b878110611c2c575083600195969710611c12575b505050811b019055565b0135600019600384901b60f8161c19169055388080611c08565b90926020600181928686013581550194019101611bf4565b80546001600160a01b0319166001600160a01b03909216919091179055565b805463ffffffff60a01b191660409290921c63ffffffff60a01b16919091179055565b805460ff60c01b191691151560c01b60ff60c01b16919091179055565b908060209392818452848401376000828201840152601f01601f1916010190565b9160609396959491611cde91608085526080850191611ca3565b6001600160e01b0319909616602083015260408201520152565b6001600160a01b039091169052565b81519192916001600160401b03811161030857611d2881611b9c8454610207565b602080601f8311600114611d63575081929394600092611d585750508160011b916000199060031b1c1916179055565b015190503880611bbb565b90601f19831695611d7985600052602060002090565b926000905b888210611db557505083600195969710611d9c57505050811b019055565b015160001960f88460031b161c19169055388080611c08565b80600185968294968601518155019501930190611d7e565b815180519192916001600160401b03811161030857611df681611df08654610207565b86611b29565b6020918290601f8311600114611e8a57928260039593611e6e9360a096600092611e7f575b50508160011b9160001990881b1c19161786555b611e48611e426001880192850151610368565b82611c44565b6040830151611e61906001600160e01b03191682611c63565b6060830151151590611c86565b608081015160028501550151910155565b015190503880611e1b565b90601f19831691611ea087600052602060002090565b9260005b818110611ee8575093611e6e9360a096936001938360039a9810611ed0575b505050811b018655611e2f565b0151600019838a1b60f8161c19169055388080611ec3565b929386600181928786015181550195019301611ea4565b90611f199060409396959496606084526060840191611ca3565b6001600160e01b031990951660208201520152565b6000198114610b785760010190565b15611f4457565b60405162461bcd60e51b815260206004820152601560248201527419185bcb9d195b5c1b185d194b991a5cd8589b1959605a1b6044820152606490fd5b6024906103669294938060405196879363ffffffff60e01b166020850152848401378101600083820152036004810185520183610328565b60405190611fc6826102ed565b601582527469735573657245786973747328616464726573732960581b6020830152565b60405190611ff7826102ed565b601682527567657455736572546f496e737428616464726573732960501b6020830152565b60405190612029826102ed565b601682527567657455736572546f53746f7228616464726573732960501b6020830152565b601254600160401b811015610308576001810180601255811015610202576012600052600b602060002091020190600090565b81810292918115918404141715610b7857565b9060638201809211610b7857565b8054610100600160a81b03191660089290921b610100600160a81b0316919091179055565b92936120fe919592946120e36120db61204e565b509586611d07565b6120f08660018701611c44565b600285015560038401611d07565b606461211c61211761210e61295a565b60115490612081565b612094565b04600783015561212a6128b5565b908101809111610b78578160099160068694015561214f6008820161150c33826120a2565b01556012549182600080516020612bc483398151915260405180612174339682610aea565b0390a490565b91939061218633612838565b15610e02576001600160a01b03851615612244576121d8926121a99136916116bc565b926121bd6121b561204e565b509485611d07565b6121ca8560018601611c44565b600284015560038301611d07565b60646121e861211761210e61295a565b0460078201556121f66128b5565b928301809311610b785760099260068201556122196008820161150c33826120a2565b6103e792839101556012549182600080516020612bc483398151915260405180612174339682610aea565b60405163e6c4247b60e01b8152600490fd5b1561225d57565b60405162461bcd60e51b815260206004820152600e60248201526d19185bcb9a5b9d985b1a590b9a5960921b6044820152606490fd5b1561229a57565b60405162461bcd60e51b815260206004820152601160248201527019185bcb9c1c9bdc0b9b9bdd195e1a5cdd607a1b6044820152606490fd5b156122da57565b60405162461bcd60e51b815260206004820152601060248201526f19185bcb9d9bdd1a5b99cb995b99195960821b6044820152606490fd5b1561231957565b60405162461bcd60e51b815260206004820152601560248201527419185bcb985b1c9958591e4b98dbdb5c1b195d1959605a1b6044820152606490fd5b9060018060a01b0316600052602052604060002090565b1561237457565b60405162461bcd60e51b815260206004820152601160248201527019185bcb985b1c9958591e4b9d9bdd1959607a1b6044820152606490fd5b7f948f4a9cd986f1118c3fbd459f7a22b23c0693e1ca3ef06a6a8be5aa7d39cc0361244761114d6123e061149b85611b1a565b5060088101805460ff60b01b1916600160b01b17815590612429600482015460078301548110159081612490575b50835460ff60a81b191690151560a81b60ff60a81b16178355565b815460a81c60ff168061247b575b61244c575b505460a81c60ff1690565b0390a2565b8061245d6001612474930154610368565b61246e60036002840154930161034b565b90612b3e565b503861243c565b506124896003820154610207565b1515612437565b90506005830154103861240e565b9081602091031261050c57516113a38161052d565b6040513d6000823e3d90fd5b61278f6101c0610366926124f86124d68251610368565b600280546001600160a01b0319166001600160a01b0392909216919091179055565b61252a6125086020830151610368565b600380546001600160a01b0319166001600160a01b0392909216919091179055565b61255c61253a6040830151610368565b600480546001600160a01b0319166001600160a01b0392909216919091179055565b61258e61256c6060830151610368565b600580546001600160a01b0319166001600160a01b0392909216919091179055565b6125c061259e6080830151610368565b600680546001600160a01b0319166001600160a01b0392909216919091179055565b6125f26125d060a0830151610368565b600780546001600160a01b0319166001600160a01b0392909216919091179055565b61262461260260c0830151610368565b600880546001600160a01b0319166001600160a01b0392909216919091179055565b61265661263460e0830151610368565b600980546001600160a01b0319166001600160a01b0392909216919091179055565b612689612667610100830151610368565b600a80546001600160a01b0319166001600160a01b0392909216919091179055565b6126bc61269a610120830151610368565b600b80546001600160a01b0319166001600160a01b0392909216919091179055565b6126ef6126cd610140830151610368565b600c80546001600160a01b0319166001600160a01b0392909216919091179055565b612722612700610160830151610368565b600d80546001600160a01b0319166001600160a01b0392909216919091179055565b612755612733610180830151610368565b600e80546001600160a01b0319166001600160a01b0392909216919091179055565b6127886127666101a0830151610368565b600f80546001600160a01b0319166001600160a01b0392909216919091179055565b0151610368565b601080546001600160a01b0319166001600160a01b0392909216919091179055565b9081602091031261050c57516113a381610baa565b60025460405161280e916001600160a01b0316906127e3816102ed565b6008815267697353616665282960c01b6020820152604051916128058361030d565b600083526129d4565b908061282d575b1561115f57806020806113a3935183010191016127b1565b506020815114612815565b61288e60018060a01b03806002541660405191602094168483015283825261285f826102ed565b6040519061286c826102ed565b601182527069735369676e657228616464726573732960781b858301526129d4565b90806128ab575b1561115f57816113a392825183010191016127b1565b5081815114612895565b6003546040516113a3916001600160a01b0316906128d2816102ed565b600681526569416765282960d01b6020820152604051916128f28361030d565b60008352612acf565b6113a39060018060a01b038060065416906040519216602083015260208252612923826102ed565b60405190612930826102ed565b6018825277697364656c656761746f724e6f646528616464726573732960401b6020830152612a93565b6006546040516113a3916001600160a01b031690612977816102ed565b601381527267657464656c656761746f72436f756e74282960681b6020820152604051916128f28361030d565b3d156129cf573d906129b5826116a1565b916129c36040519384610328565b82523d6000602084013e565b606090565b803b15612a3657600092839263ffffffff60e01b90602081519101201690612a266024604051809360208201958652612a168151809260208686019101610374565b8101036004810184520182610328565b51915afa612a326129a4565b9091565b505050600090604051612a488161030d565b6000815290565b9291612a5d916000946129d4565b9080612a88575b612a6b5750565b90915060208180518101031261050c57602001516103688161052d565b506020815114612a64565b9291612aa1916000946129d4565b9080612ac4575b612aaf5750565b6113a3919250602080825183010191016127b1565b506020815114612aa8565b9291612add916000946129d4565b9080612b02575b612aeb5750565b90915060208180518101031261050c576020015190565b506020815114612ae4565b906020825192015163ffffffff60e01b908181169360048110612b2f57505050565b60040360031b82901b16169150565b9091906001600160a01b0381161561224457600091829184519160208601915af190612b686129a4565b9115612b72575090565b805160009190600411612bbd57612b899150612b0d565b815115612b995750805190602001fd5b604051630870274d60e21b81526001600160e01b0319919091166004820152602490fd5b50612b8956fe336735bcae5ee955b87e8b30bee52920223fa30a865b207ac6d9eee9f19589fb2dd3ae6155b13a46b2374a1f42e0733244754e572ec9f0034b698efefa8673a1a264697066735822122073528cf5ce6c9eadf90a0e8c0d44b0939d29159cf953c703f39bd02606c9370664736f6c634300081400336080346200009e57601f6200515838819003918201601f19168301916001600160401b03831184841017620000a3578084926020946040528339810103126200009e57516001600160a01b038116908190036200009e5780156200008c5760018060a01b0319338160015416176001556000541617600055600160115560405161509e9081620000ba8239f35b60405163e6c4247b60e01b8152600490fd5b600080fd5b634e487b7160e01b600052604160045260246000fdfe60806040526004361015610018575b361561001657005b005b60003560e01c8063033eeffb146103c35780630e5fd00b1461035a5780631157a849146103be57806312065fe0146103b957806313508e37146103b45780631bb49f02146103af5780631c53c280146103aa5780631f185d16146103a55780631f5fa838146103a05780632a687c871461039b5780632bbae52e146103965780632fefc0bf1461039157806332ff4eab1461038c578063339459a61461038757806333b59a5b146103825780633a7b55b81461037d5780633b9b7955146103785780633baee0ea14610373578063419cb27b1461036e57806342cc9d5714610369578063445850971461036457806344668f231461035f57806345145fd71461035a5780634d1ec452146103555780634f0f4aa914610350578063509222cd1461034b57806350db85d11461034657806361ea720814610341578063629d671e1461033c57806365d2fbd3146103375780636a811244146103325780636b90905b1461032d5780636fb412ab1461032857806376fe6c45146103235780637818cdd71461031e57806380f85e3314610319578063849c22ad14610314578063896c354a1461030f5780638da5cb5b1461030a57806395f72f491461030557806398b3f21514610300578063a1f7f539146102fb578063a89d693b146102f6578063af484526146102f1578063b1c49079146102ec578063b366335e146102e7578063b90306ad146102e2578063c43792e3146102dd578063c54e44b0146102d8578063c871372b146102d3578063cf359165146102ce578063d1e0bbc6146102c9578063dcb3fc4a146102c4578063e01ad5fd146102bf578063e0a9bc2b146102ba578063eb95c662146102b5578063f3ca7124146102b0578063fd38093b146102ab5763fdc10bc90361000e57612f80565b612f12565b612ee6565b612eba565b612e9f565b612e24565b612c3c565b612c02565b612b95565b612b17565b612aa9565b612a7d565b612995565b61291f565b612846565b612815565b61274e565b6126be565b612692565b61261c565b6125f3565b6125b3565b612584565b61254a565b6124f1565b6123d8565b612298565b612180565b611e7b565b6119fb565b6119be565b611986565b6117b7565b611764565b61169b565b61163a565b610424565b611603565b6115cc565b61159d565b611569565b6112a3565b611252565b611133565b610f43565b6109e6565b610970565b610939565b6108f4565b61083b565b610765565b61069e565b61066a565b6105a1565b610558565b61053c565b610473565b346103ef5760203660031901126103ef5760043560005260196020526020604060002054604051908152f35b600080fd5b6001600160a01b031690565b6001600160a01b038116036103ef57565b6001600160a01b03909116815260200190565b346103ef5760203660031901126103ef57602060043561044381610400565b60018060a01b03809116600052601282526040600020546000526015825260046040600020015416604051908152f35b346103ef5760203660031901126103ef5760043561048f6131d4565b60009080825260156020526104ad60ff60016040852001541661392e565b33825260126020526104c46040832054821461392e565b808252601e60205260ff60016040842001541615610501576104e86104f4916105fa565b60016000918281550155565b6104fe6001601155565b80f35b60405162461bcd60e51b81526020600482015260136024820152721b995cdd19590b9c995c4b9b9bdd195e1a5cdd606a1b6044820152606490fd5b346103ef5760003660031901126103ef57602047604051908152f35b346103ef5760203660031901126103ef57600435600052601e6020526060604060002060ff600182549201546040519283528181161515602084015260081c1615156040820152f35b346103ef5760203660031901126103ef5760206004356105c081610400565b6001600160a01b03908116600090815260128352604080822054825260158452808220600201548252601384529081902054905191168152f35b600052601e602052604060002090565b6000526016602052604060002090565b6000526017602052604060002090565b6000526015602052604060002090565b6000526013602052604060002090565b6000526018602052604060002090565b6000526019602052604060002090565b346103ef5760203660031901126103ef576004356000526013602052602060018060a01b0360406000205416604051908152f35b346103ef576020806003193601126103ef576107116004356106bf81610400565b6002546040516001600160a01b039283168582015284815291166106e28261245d565b604051906106ef8261245d565b601182527069735369676e657228616464726573732960781b85830152614ea5565b91908061075b575b156107495781816107339261074594518301019101614c68565b60405190151581529081906020820190565b0390f35b604051633204506f60e01b8152600490fd5b5080825114610719565b346103ef5760203660031901126103ef576107a360043561078581610400565b61078d6147e5565b6040519161079a83612478565b60008352614ee7565b6001600160a01b038116156107fe576107ee610745916040516107c58161245d565b600681526572616e6b282960d01b6020820152604051916107e583612478565b60008352614f67565b6040519081529081906020820190565b60405162461bcd60e51b81526020600482015260156024820152746e65737465642e73746f722e6e6f7465786973747360581b6044820152606490fd5b346103ef5760403660031901126103ef57602435610857614c80565b156108c85761086533614cf2565b80156108b4575b156108a257600090808252601a602052604082205490600435820180921161089d578252601a602052604082205580f35b6131a3565b60405163ea8e4eb560e01b8152600490fd5b506005546001600160a01b0316331461086c565b604051634ee2123760e11b8152600490fd5b6001600160a01b0391821681529116602082015260400190565b346103ef5760203660031901126103ef576004356000526015602052604060002060018060a01b036005816004840154169201541690610745604051928392836108da565b346103ef5760203660031901126103ef576004356000526015602052602060018060a01b0360056040600020015416604051908152f35b346103ef5760403660031901126103ef5760243561098c614c80565b156108c85761099a33614cf2565b80156109d2575b156108a257600090808252601d602052604082205490600435820180921161089d578252601d602052604082205580f35b506005546001600160a01b031633146109a1565b346103ef5760003660031901126103ef57610a0a610a056000546103f4565b6103f4565b604051634bf9c0ad60e11b815290602082600481845afa918215610d7357600092610f22575b5060405163cfbffe5360e01b815291602083600481855afa928315610d7357600093610f01575b5060405163ab6e844f60e01b815290602082600481865afa918215610d7357600092610ee0575b50604051630536340960e21b815291602083600481875afa928315610d7357600093610ebf575b5060405163d1f956b160e01b815292602084600481885afa938415610d7357600094610e9e575b50604051631cc3bfab60e31b815293602085600481895afa948515610d7357600095610e7d575b5060405163e09d394d60e01b81526020816004818a5afa908115610d7357600091610e5e575b506040516314ac1b5960e21b81526020816004818b5afa908115610d7357600091610e3f575b5060405163013cf08b60e01b815260006004820152916020836024818c5afa928315610d7357600093610e1e575b50604051635e09dbe760e01b8152976020896004818d5afa948515610d7357600499600096610dfd575b50604051635506ee0b60e11b8152996020908b90818e5afa968715610d735760049a600098610ddc575b50604051636402742760e01b81529a6020908c90818f5afa988915610d735760049b60009a610dbb575b5060208d6040519d8e80926330125cf560e01b82525afa9a8b15610d73578d60049d60009d610d99575b506020906040519e8f80926324768d9160e01b82525afa9c8d15610d735760009d610d78575b506040516313b92d3560e31b81529d8e9081905a92600491602094fa9d8e15610d735760009e610d42575b50610c6f6124d1565b9e8f91610c7c9083614967565b610c899060208301614967565b60400190610c9691614967565b610ca39060608e01614967565b610cb09060808d01614967565b610cbd9060a08c01614967565b610cca9060c08b01614967565b610cd79060e08a01614967565b610ce5906101008901614967565b610cf3906101208801614967565b610d01906101408701614967565b610d0f906101608601614967565b610d1d906101808501614967565b610d2b906101a08401614967565b610d39906101c08301614967565b61001690614976565b610d65919e5060203d602011610d6c575b610d5d81836124ae565b8101906148dd565b9c38610c66565b503d610d53565b6148f2565b610d92919d5060203d602011610d6c57610d5d81836124ae565b9b38610c3b565b6020919d50610db490823d8411610d6c57610d5d81836124ae565b9c90610c15565b610dd5919a5060203d602011610d6c57610d5d81836124ae565b9838610beb565b610df691985060203d602011610d6c57610d5d81836124ae565b9638610bc1565b610e1791965060203d602011610d6c57610d5d81836124ae565b9438610b97565b610e3891935060203d602011610d6c57610d5d81836124ae565b9138610b6d565b610e58915060203d602011610d6c57610d5d81836124ae565b38610b3f565b610e77915060203d602011610d6c57610d5d81836124ae565b38610b19565b610e9791955060203d602011610d6c57610d5d81836124ae565b9338610af3565b610eb891945060203d602011610d6c57610d5d81836124ae565b9238610acc565b610ed991935060203d602011610d6c57610d5d81836124ae565b9138610aa5565b610efa91925060203d602011610d6c57610d5d81836124ae565b9038610a7e565b610f1b91935060203d602011610d6c57610d5d81836124ae565b9138610a57565b610f3c91925060203d602011610d6c57610d5d81836124ae565b9038610a30565b346103ef576040806003193601126103ef57602435610f60614c80565b156110f457610f6e33614cf2565b80156110e0575b156110cf57600091610f8a610a0584546103f4565b8151809163111ea8c160e21b825281600460209485935afa908115610d735785916110b2575b5084916004355b85811115610fc3578680f35b8451828101828152819003808252601f1991610ff491610fe690602001826124ae565b610fee6148fe565b86614f67565b61100883600052601a602052604060002090565b55875b6008811061102357505061101e9061343d565b610fb7565b61105387516110458161103985888a8401611e6a565b038581018352826124ae565b61104d61492e565b87614f67565b8115611086575b906110819161107b8261106c8761060a565b90600052602052604060002090565b5561343d565b61100b565b959061109561108192886132ab565b6110a985600052601d602052604060002090565b5590508561105a565b6110c99150823d8411610d6c57610d5d81836124ae565b38610fb0565b815163ea8e4eb560e01b8152600490fd5b506005546001600160a01b03163314610f75565b8151634ee2123760e11b8152600490fd5b60e0810192916000915b6007831061111c57505050565b60019082518152602080910192019201919061110f565b346103ef5760203660031901126103ef576107456004356112406112306040519261115d84612493565b60e036853761117e61116e8261061a565b6001600052602052604060002090565b54845261119d61118d8261061a565b6002600052602052604060002090565b5460208501526111bf6111af8261061a565b6003600052602052604060002090565b5460408501526111e16111d18261061a565b6004600052602052604060002090565b5460608501526112036111f38261061a565b6005600052602052604060002090565b5460808501526112256112158261061a565b6006600052602052604060002090565b5460a085015261061a565b6007600052602052604060002090565b5460c082015260405191829182611105565b346103ef5760003660031901126103ef576000546040516001600160a01b039091168152602090f35b60409060031901126103ef5760043561129381610400565b906024356112a081610400565b90565b346103ef576112b13661127b565b6112b96131d4565b6107456113046112d86112ca612fc9565b6112d2612fe1565b33614ee7565b61131d6112ee6112e6612fc9565b6112d2613004565b6001600160a01b0393868516938516841461302c565b83611315610a0582600054166103f4565b911614613072565b611328811515613863565b611331846119a4565b5415801561155e575b611343906138a5565b61135761134f866119a4565b5415156138e8565b611374600561136e611368886119a4565b5461062a565b016130fe565b916113af60405163880cdc3160e01b6020820152806113968860248301610411565b03946113aa601f19968781018452836124ae565b614fd4565b506113c4610a05600461136e6113688a6119a4565b611517575b6113d2866119a4565b546113dc866119a4565b556113f8856113f36113ed896119a4565b5461063a565b61344c565b61141033600461140a611368896119a4565b0161344c565b851614159081611506575b611424846119a4565b5493611434600561136e8761062a565b9561145261144d60026114468961062a565b015461063a565b6130fe565b93156114cc576113aa6114969361146a6009546103f4565b9261148a60405195869263e3d1d5bf60e01b6020850152602484016108da565b039081018452836124ae565b505b6114a26001601155565b604080519384526001600160a01b0394851660208501529316928201929092529081906060820190565b61148a91506113aa611500936114e36009546103f4565b92604051948591639498d88b60e01b602084015260248301610411565b50611498565b6000611511866119a4565b5561141b565b61155861152b600461136e6113688a6119a4565b60405162e6724f60e21b6020820152906113aa8261154c3360248301610411565b038781018452836124ae565b506113c9565b50848216811461133a565b346103ef5760203660031901126103ef576004356000526015602052602060ff600160406000200154166040519015158152f35b346103ef5760203660031901126103ef5760043560005260156020526020600360406000200154604051908152f35b346103ef5760203660031901126103ef576004356000526015602052602060018060a01b0360046040600020015416604051908152f35b346103ef5760003660031901126103ef576020601f54604051908152f35b9081526001600160a01b03909116602082015260400190565b346103ef5760203660031901126103ef5760043561165781610400565b60018060a01b038060009216825260126020526040822054825260156020526040600281842001549283815260136020522054169061074560405192839283611621565b346103ef5760203660031901126103ef57600435806000526015602052604060002054601360205261074560018060a01b03806040600020541693601560205260406000209160046002840154930154166116fa600561136e8461062a565b90600361171c611716600161170e8761062a565b015460ff1690565b9461062a565b0154604080519788526001600160a01b03988916602089015287019490945286166060860152909416608084015292151560a083015260c082019290925290819060e0820190565b346103ef5760203660031901126103ef5760043561178181610400565b60018060a01b031660005260126020526040600020546000526015602052602060ff600160406000200154166040519015158152f35b346103ef576117c53661127b565b906117ce614c80565b156108c8576117dc33614cf2565b8015611972575b156108a257816117fa916117f56131d4565b61346b565b611808600561136e8361062a565b916040519061187d61187761185761184985611828602096878301610411565b039561183c601f19978881018352826124ae565b6118446131f7565b614de0565b848082518301019101613228565b6040516332a6334760e11b86820152929183916110399160248401611e6a565b85614fd4565b5061188783613802565b6118d06118c261189b600561136e8761062a565b604051906118b48261154c878201906000602083019252565b6118bc61310b565b90614e0a565b828082518301019101613139565b506001600160a01b0391506118f79050600561136e60026118f08961062a565b015461062a565b1615159081611968575b50611922575b50506119136001601155565b61074560405192839283611621565b611960916113aa61193c600561136e60026118f08961062a565b604051630711e58760e41b948101949094526001602485015291836044810161148a565b503880611907565b9050151538611901565b506005546001600160a01b031633146117e3565b346103ef5760003660031901126103ef576020601454604051908152f35b6001600160a01b0316600090815260126020526040902090565b346103ef5760203660031901126103ef576004356119db81610400565b60018060a01b031660005260126020526020604060002054604051908152f35b346103ef576020806003193601126103ef5760043590611a196131d4565b6001611a30611a2b8261170e8661062a565b6137be565b611a44611a3c336119a4565b54841461392e565b611a4d836105fa565b9281840192611a65611a60855460ff1690565b613b47565b611a6d61326e565b6005611a7c8161136e8561062a565b604091611abb611aad845180611a99888201906000602083019252565b03946118b4601f19968781018452836124ae565b858082518301019101613139565b50505097611ad5611ad1895460ff9060081c1690565b1590565b15611cf75750600295611af487611aeb8861062a565b01541515613bd1565b6000815b611be5575b50509284926113aa611b6b93611b4987611b949c8b9a611b30611b839b61136e60009f6118f060018060a01b039561062a565b1615159081611bdb575b50611b9e575b61136e8861062a565b9251631867546560e21b9481019490945260016024850152836044810161148a565b508454611b7e9060081c60ff1682613c69565b61062a565b0155805461ff001916610100179055565b6100166001601155565b611bd5611bb28261136e8d6118f08d61062a565b8651630711e58760e41b8982015260006024820152906113aa826044810161154c565b50611b40565b9050151538611b3a565b600380611bf58a6118f08b61062a565b0154821015611cf15787611c24611c1a8484611c148e6118f08761062a565b016136b9565b90549060031b1c90565b14611c395750611c339061343d565b81611af8565b8795925093611b4984611b949c88611b30611b839b9861136e60009f9e8f908d611cc7611b6b9f92611cae6113aa9e84611c14886118f0611ca8611c1a88611ca287611c9b611cda9f6118f08991611c94836118f08961062a565b019561062a565b015461329c565b906136b9565b9661062a565b90919082549060031b91821b91600019901b1916179055565b611cd4836118f08961062a565b01613c1c565b50505050509c509497505093508194969750611afd565b50611afd565b85965081611dab91611d8a611d846104e89b6113aa9796611dd39e611d508d611d30611dcd9f611d2860029161062a565b015415613b8a565b6003611d4a8954806002611d438661062a565b015561062a565b016136d6565b8554906001600160a01b03611d688461136e8561062a565b1615159081611e60575b50611e1f575b50505460081c60ff1690565b8a613c69565b88611d9c610a05600461136e8461062a565b611dd8575b61136e915061062a565b9251631867546560e21b9481019490945260006024850152836044810161148a565b506105fa565b611b94565b611e17916113aa611dfd61144d611df6600461136e61154c9761062a565b935461063a565b8951630a4ce2c960e11b8c82015293849160248301610411565b503888611da1565b611e589161136e611e2f9261062a565b8a51630711e58760e41b8d8201526001602482015260448a810182529091906113aa90836124ae565b508438611d78565b9050151538611d72565b908152602081019190915260400190565b346103ef576040806003193601126103ef57600435611e986131d4565b611ea9611a2b600161170e8461062a565b611ec4611ebd610a05600461136e8561062a565b3314613a58565b611ecc61326e565b610745610100611ee0600561136e8561062a565b611fe5601f5494865192611f32611f2460209563015042f960e11b8782015280611f1060249b8c358d8401611e6a565b03936113aa601f19958681018452836124ae565b858082518301019101613f1e565b968789815193611f47888401958651906131c7565b97611f57838501998a51906131c7565b611f6760608601918251906131c7565b90611f7860808701928351906131c7565b97611f8960a08801998a51906131c7565b96611fa2611f9d60c08301998a51906131c7565b614883565b8051612136575b5080516120e6575b5080516120a2575b508051612052575b50611fcf86518551906131c7565b611ffe575b50505050505060e08601519061402e565b5192015192611ff46001601155565b5192839283611e6a565b61148a6113aa936120469761202e612017600f546103f4565b9761202461144d8d61063a565b92519051906131c7565b915197889463a9059cbb60e01b908601528401613aa2565b50388080898180611fd4565b61209b906120616010546103f4565b6113aa61207061144d8c61063a565b9251875163a9059cbb60e01b8782015293849161208f918c8401613aa2565b038681018452836124ae565b5038611fc1565b6120df906120b1600c546103f4565b6113aa6120c061144d8d61063a565b9251885163a9059cbb60e01b8882015293849161154c918d8401613aa2565b5038611fb9565b61212f908a6113aa8a61212361210961144d612103600e546103f4565b9561063a565b94518b5163a9059cbb60e01b8b8201529586938401613aa2565b038881018452836124ae565b5038611fb1565b612179908b6113aa8b61216d61215361144d612103600d546103f4565b94518c5163a9059cbb60e01b8c8201529586938401613aa2565b038981018452836124ae565b508e611fa9565b346103ef5760403660031901126103ef5760043560243561219f614c80565b156108c8576121ad33614cf2565b8015612284575b156108a25761225a611b94926121c86131d4565b8060005260156020526121e7611a2b600160406000200160ff90541690565b6121fd6121f8600161170e8661062a565b613abd565b61225561224b61223c612214600561136e8861062a565b604051906118b48261222e60208201906000602083019252565b03601f1981018452836124ae565b60208082518301019101613139565b505050151561315b565b6105fa565b906001820191612276612271611ad1855460ff1690565b613b01565b55805460ff19166001179055565b506005546001600160a01b031633146121b4565b346103ef5760403660031901126103ef576024356004356122b76131d4565b6122c8611a2b600161170e8461062a565b6122e16122da610a0561144d8461063a565b331461392e565b6123086122f2600561136e8461062a565b6122fa613972565b612302612fb6565b91614e0a565b908261231e602093848082518301019101613999565b101561232e576100166001601155565b6123c16123cf9361239a61144d612390612382612366612352600561136e8a61062a565b956040519182918b83019190602083019252565b039561237a601f19978881018452836124ae565b6118bc6139a8565b8780825183010191016139d2565b979250505061063a565b9361148a6123a6612fc9565b604051968793637a937b4560e11b9085015260248401613a1d565b6001600160a01b0316614fd4565b50388080611b94565b346103ef5760203660031901126103ef5760206004356123f781610400565b60018060a01b03809116600052601282526040600020546000526015825260056040600020015416604051908152f35b634e487b7160e01b600052604160045260246000fd5b606081019081106001600160401b0382111761245857604052565b612427565b604081019081106001600160401b0382111761245857604052565b602081019081106001600160401b0382111761245857604052565b60e081019081106001600160401b0382111761245857604052565b601f909101601f19168101906001600160401b0382119082101761245857604052565b604051906101e082016001600160401b0381118382101761245857604052565b346103ef576101003660031901126103ef5736604312156103ef5760405161251881612493565b610104813682116103ef576024905b82821061253a5761001684600435614583565b8135815260209182019101612527565b346103ef5760403660031901126103ef57600435600052601660205260406000206024356000526020526020604060002054604051908152f35b346103ef5760203660031901126103ef5760043560005260156020526020600260406000200154604051908152f35b346103ef5760403660031901126103ef57600435600052601560205260206125e460243560036040600020016136b9565b90549060031b1c604051908152f35b346103ef5760003660031901126103ef576001546040516001600160a01b039091168152602090f35b346103ef5760403660031901126103ef57602435612638614c80565b156108c85761264633614cf2565b801561267e575b156108a257600090808252601c602052604082205490600435820180921161089d578252601c602052604082205580f35b506005546001600160a01b0316331461264d565b346103ef5760203660031901126103ef57600435600052601d6020526020604060002054604051908152f35b346103ef5760003660031901126103ef57602061271760018060a01b03600654166040516126eb8161245d565b601381527267657464656c656761746f72436f756e74282960681b84820152604051916107e583612478565b604051908152f35b610100810192916000915b6008831061273757505050565b60019082518152602080910192019201919061272a565b346103ef5760203660031901126103ef57610745600435612803611230612773614807565b9261278f6127808261060a565b60008052602052604060002090565b54845261279e61116e8261060a565b5460208501526127b061118d8261060a565b5460408501526127c26111af8261060a565b5460608501526127d46111d18261060a565b5460808501526127e66111f38261060a565b5460a08501526127f86112158261060a565b5460c085015261060a565b5460e08201526040519182918261271f565b346103ef5760203660031901126103ef57602061283c60043561283781610400565b614cf2565b6040519015158152f35b346103ef576128e46128573661127b565b906128606131d4565b6128a261286e6112ca612fc9565b6128796112e6612fc9565b906001600160a01b03906128929082168683161461302c565b611315610a0582600054166103f4565b6128bb6128b6600161170e611368856119a4565b6130b7565b6128d561224b61223c612214600561136e611368876119a4565b6128dd61323e565b3390613570565b6128f2612780601f5461060a565b6128fc81546131b9565b90556129066148af565b612914600561136e8361062a565b906119136001601155565b346103ef5760203660031901126103ef57612938614c80565b156108c85761294633614cf2565b8015612981575b156108a25761295a614d73565b601f5410612971575b610016600435601f546132b8565b612979614d73565b601f55612963565b506005546001600160a01b0316331461294d565b346103ef5760203660031901126103ef576004356129b1614c80565b156108c8576005546001600160a01b031633036108a257600090600460206129dc610a0585546103f4565b6040516311be646b60e21b815292839182905afa8015610d735783808481949382948391612a5f575b505af1612a10614db0565b5015610749577fcdcc745fe377b103b45fa0cec23ae3ef93d6fc6a84a01f0d18c40b354dd1d5d8612a59612a48610a05600b546103f4565b604051938452929081906020820190565b0390a280f35b612a77915060203d8111610d6c57610d5d81836124ae565b38612a05565b346103ef5760203660031901126103ef57600435600052601b6020526020604060002054604051908152f35b346103ef5760203660031901126103ef57600435612ac681610400565b803b6000612ad382612f9b565b92612ae160405194856124ae565b82845260208401903c602d815110612b0557602a602091015160601c604051908152f35b60405163baf3f0f760e01b8152600490fd5b60403660031901126103ef57600435612b2e6131d4565b6000908082526015602052612b4c60ff6001604085200154166137be565b81526015602052612b8c60018060a01b036005604084200154166040519063d3abb8a360e01b60208301526024356024830152602482526113aa8261243d565b50600160115580f35b346103ef5760203660031901126103ef57612bb560043561078581610400565b6001600160a01b038116156107fe5761073361074591604051612bd78161245d565b600881526769734c6f636b282960c01b602082015260405191612bf983612478565b60008352614f2b565b346103ef5760403660031901126103ef57600435600052601860205260406000206024356000526020526020604060002054604051908152f35b346103ef5760c03660031901126103ef57611b94600435602435612c5f81610400565b6064359160843591612c6f6131d4565b612c80611a2b600161170e8561062a565b612c94611ebd610a05600461136e8661062a565b612c9c61326e565b612ca58361482b565b612cae84614857565b612d91612d19612cc2600561136e8661062a565b601f54604051632998c0c160e21b6020808301919091526001600160a01b039096166024820152604480359082015260648101899052608481019790975260a480359088015260c487015292948060e48101611f10565b612d54612d46612d2d600561136e8861062a565b604051906118b4826121238b8201906000602083019252565b868082518301019101613139565b506001600160a01b039150612d749050600561136e60026118f08a61062a565b1615159081612e1b575b50612ddb57848082518301019101613228565b9381612da0575b505050614304565b6113aa612dd293612db2600b546103f4565b9261148a60405195869263a9059cbb60e01b908401523360248401613aa2565b50388080612d98565b612e15612df1600561136e60026118f08961062a565b604051630711e58760e41b8882015260016024820152906113aa826044810161154c565b50611849565b90501538612d7e565b346103ef5760203660031901126103ef57602061283c600435612e4681610400565b6006546040516001600160a01b03928316858201528481529116612e698261245d565b60405190612e768261245d565b6018825277697364656c656761746f724e6f646528616464726573732960401b85830152614f2b565b346103ef5760003660031901126103ef57602061283c614c80565b346103ef5760203660031901126103ef57600435600052601a6020526020604060002054604051908152f35b346103ef5760203660031901126103ef57600435600052601c6020526020604060002054604051908152f35b346103ef576040806003193601126103ef57600435612f3081610400565b60018060a01b031661074582600083815260126020528181205481526019602052818120549381526012602052818120548152601860205281812060243582526020522054925192839283611e6a565b346103ef5760003660031901126103ef576020612717614d73565b6001600160401b03811161245857601f01601f191660200190565b60405190612fc382612478565b60008252565b604051612fd581612478565b60008152906000368137565b60405190612fee8261245d565b60078252666f776e6572282960c81b6020830152565b604051906130118261245d565b600c82526b67657448657862617365282960a01b6020830152565b1561303357565b60405162461bcd60e51b81526020600482015260176024820152766e65737465642e696e76616c69642e696e7374616e636560481b6044820152606490fd5b1561307957565b60405162461bcd60e51b81526020600482015260166024820152756e65737465642e696e76616c69642e6865786261736560501b6044820152606490fd5b156130be57565b60405162461bcd60e51b81526020600482015260186024820152776e65737465642e706172656e742e6e6f742e65786973747360401b6044820152606490fd5b546001600160a01b031690565b604051906131188261245d565b60128252716765744e6f64654c422875696e743235362960701b6020830152565b91908260809103126103ef578151916020810151916060604083015192015190565b1561316257565b60405162461bcd60e51b81526020600482015260196024820152786e65737465642e706172656e742e6e6f2e627573696e65737360381b6044820152606490fd5b634e487b7160e01b600052601160045260246000fd5b906001820180921161089d57565b9190820180921161089d57565b6002601154146131e5576002601155565b604051633ee5aeb560e01b8152600490fd5b604051906132048261245d565b6015825274676574436c61696d496e666f28616464726573732960581b6020830152565b91908260409103126103ef576020825192015190565b613246614d73565b601f541061325e575b61325c6005601f546132b8565b565b613266614d73565b601f5561324f565b613276614d73565b601f541061328c575b61325c6002601f546132b8565b613294614d73565b601f5561327f565b60001981019190821161089d57565b9190820391821161089d57565b906132c56127808361060a565b5415806133ef575b806133e6575b6132db575050565b6132f7906132f16132eb8461329c565b9161329c565b906132b8565b61330b6127806133068361329c565b61060a565b546133186127808361060a565b5561332861116e6133068361329c565b5461333561116e8361060a565b5561334561118d6133068361329c565b5461335261118d8361060a565b556133626111af6133068361329c565b5461336f6111af8361060a565b5561337f6111d16133068361329c565b5461338c6111d18361060a565b5561339c6111f36133068361329c565b546133a96111f38361060a565b556133b96112156133068361329c565b546133c66112158361060a565b556133e36112306133dc6112306133068561329c565b549261060a565b55565b508015156132d3565b50600182116132cd565b1561340057565b60405162461bcd60e51b81526020600482015260156024820152746e65737465642e616c72656164792e65786973747360581b6044820152606490fd5b600019811461089d5760010190565b80546001600160a01b0319166001600160a01b03909216919091179055565b6134c8916134ce61356c9261349261348d611ad1600161170e611368886119a4565b6133f9565b6134a56134a060145461343d565b601455565b6014549485916134b8856113f38561063a565b826134c2866119a4565b556119a4565b546136f9565b6134ed60046134dc8561062a565b0180546001600160a01b0319169055565b61350e6135036134fe6008546103f4565b61363b565b600561140a8661062a565b61351c600561136e8561062a565b6113aa61352d610a056000546103f4565b60405163134bd3bd60e11b60208201526001600160a01b0391821660248201529316604484015260648301859052600060848401528260a4810161222e565b5090565b916135cc61356c926135c16134c89561359661348d611ad1600161170e6113688a6119a4565b6135a46134a060145461343d565b6014549687916135b7876113f38561063a565b826134c2886119a4565b600461140a8661062a565b6135dd6135036134fe6008546103f4565b6135eb600561136e8561062a565b6113aa6135fc610a056000546103f4565b60405163134bd3bd60e11b60208201526001600160a01b0391821660248201529316604484015260648301859052600160848401528260a4810161222e565b6e5af43d82803e903d91602b57fd5bf390763d602d80600a3d3981f3363d3d373d3d3d363d7300000062ffffff8260881c161760005260781b17602052603760096000f0906001600160a01b0382161561369157565b60405163b06ebf3d60e01b8152600490fd5b634e487b7160e01b600052603260045260246000fd5b80548210156136d15760005260206000200190600090565b6136a3565b80549190600160401b8310156124585782611cae91600161325c950181556136b9565b9190916000928084526020916015835260408086209560029483868901558460019861372e8a8201600160ff19825416179055565b55876137398661064a565b83805282528489858520555b61375457505050505050509050565b6137a161379b828b8a94146137aa575b61376d8861064a565b818752855286862061377f81546131b9565b905561378a8861065a565b61379481546131b9565b905561343d565b9561062a565b01549384613745565b6137b9896003611d4a8b61062a565b613764565b156137c557565b60405162461bcd60e51b81526020600482015260156024820152746e65737465642e757365722e6e6f7461637469766560581b6044820152606490fd5b80600052601560205261381f60ff600160406000200154166137be565b600052601560205261386060018060a01b03600560406000200154166040519063d3abb8a360e01b602083015260016024830152602482526113aa8261243d565b50565b1561386a57565b60405162461bcd60e51b81526020600482015260136024820152726e65737465642e7a65726f2e6164647265737360681b6044820152606490fd5b156138ac57565b60405162461bcd60e51b81526020600482015260146024820152736e65737465642e7461726765742e65786973747360601b6044820152606490fd5b156138ef57565b60405162461bcd60e51b81526020600482015260176024820152766e65737465642e736f757263652e6e6f7445786973747360481b6044820152606490fd5b1561393557565b60405162461bcd60e51b81526020600482015260156024820152743732b9ba32b21734b73b30b634b21739b2b73232b960591b6044820152606490fd5b6040519061397f8261245d565b600b82526a6d696e74436f756e74282960a81b6020830152565b908160209103126103ef575190565b604051906139b58261245d565b600e82526d6d696e74732875696e743235362960901b6020830152565b91908260809103126103ef57815191602081015191606060408301519201516112a081610400565b60005b838110613a0d5750506000910152565b81810151838201526020016139fd565b909160609260018060a01b0316825260406020830152613a4c81518092816040860152602086860191016139fa565b601f01601f1916010190565b15613a5f57565b60405162461bcd60e51b815260206004820152601b60248201527a6e65737465642e757365722e696e76616c6964696e7374616e636560281b6044820152606490fd5b6001600160a01b039091168152602081019190915260400190565b15613ac457565b60405162461bcd60e51b81526020600482015260156024820152741b995cdd19590b9a5b9d985b1a590b9c185c995b9d605a1b6044820152606490fd5b15613b0857565b60405162461bcd60e51b81526020600482015260176024820152761b995cdd19590b9c995c4b985b1c9958591e595e1a5cdd604a1b6044820152606490fd5b15613b4e57565b60405162461bcd60e51b81526020600482015260146024820152736e65737465642e7265712e6e6f7465786973747360601b6044820152606490fd5b15613b9157565b60405162461bcd60e51b81526020600482015260186024820152771b995cdd19590b9d5cd95c8b9b9bdd0b99195d1858da195960421b6044820152606490fd5b15613bd857565b60405162461bcd60e51b815260206004820152601c60248201527b1b995cdd19590b9d5cd95c8b985b1c9958591e4b99195d1858da195960221b6044820152606490fd5b8054908115613c465760001991820191613c3683836136b9565b909182549160031b1b1916905555565b634e487b7160e01b600052603160045260246000fd5b801561089d576000190190565b90613c7c613c768361065a565b546131b9565b9160029081613c8a8261062a565b0154906001938492835b613ca2575b50505050505050565b600f8085111580613f15575b15613f0f5785906005613cc7610a058261136e8761062a565b613ce9575b5050613cda613ce29261062a565b01549361343d565b9285613c94565b865b82811115613da257505050613cda613ce29284600014613d6057613d28613d118761064a565b613d1a8961329c565b600052602052604060002090565b54613d41613d398961106c8561064a565b9182546131c7565b9055613d4c8161065a565b613d578b82546131c7565b90555b92613ccc565b613d6c613d118761064a565b54613d85613d7d8961106c8561064a565b9182546132ab565b9055613d908161065a565b613d9b8b82546132ab565b9055613d5a565b90919250613db38261136e8861062a565b613dbd88836132ab565b60409187613deb613ddd855180611a996020978883019190602083019252565b848082518301019101613139565b50509290878a821580613f07575b613ef65792613e5d949261148a613e1b6113aa9461136e613e6a9b9a9861062a565b94601f9a8c8c549151988995637b058ac160e01b8d8801526024870193909594919260809360a086019786526020860152604085015260608401521515910152565b8051810182019101613228565b908715613eb7575b808211613e8f57505050613e86905b61343d565b90879291613ceb565b613e989061343d565b613ea68161106c855461060a565b613eb081546131b9565b9055613e72565b9190915b828111613ece57505050613e869061343d565b80613ee0613ef19261106c855461060a565b613eea815461329c565b9055613c5c565b613ebb565b5050505050505050613e869061343d565b508515613df9565b50613c99565b50811515613cae565b9061012080838303126103ef5781601f840112156103ef57604051928184016001600160401b0381118582101761245857604052839181019283116103ef57905b828210613f6c5750505090565b8151815260209182019101613f5f565b60405190613f898261245d565b600f82526e66726565496e74657276616c73282960881b6020830152565b60405190613fb48261245d565b601582527467657452616e6b5769746841676556616c7565282960581b6020830152565b60405190613fe58261245d565b601382527272616e6b436c617573652875696e743235362960681b6020830152565b908160a09103126103ef578051916020820151916040810151916080606083015192015190565b91909160039261405861404185546103f4565b614049612fc9565b90614052613f7c565b90614f67565b9360008092819082948392849185985b600f8a1115806142fb575b156142ed57600561408a610a058261136e8561062a565b6140ac575b50600261409e6140a69261062a565b01549961343d565b98614068565b8c6140c56140bd8361136e8661062a565b6122fa613fa7565b8c6140da602092838082518301019101613228565b82959195158061428b575b1580614282575b801561427a575b614102575b505050505061408f565b869e86979293949596036141c0575b50614188928b6113aa8c61222e61413261418e999761136e61417b9861062a565b93601f9a8b5460405197889563208bffb160e21b8c8801526024870193909594919260a09360c08601978652600060208701526040860152606085015260808401521515910152565b8051810182019101613999565b926131b9565b808310156141a957509098905060028c6140a68c38806140f8565b8061378a6141bb9261106c855461060a565b61418e565b9193929a50508a8511614213575b509087918c868610808015916141ea575b50159a929193614111565b8988101591508161420b575b5080614203575b386141df565b5088156141fd565b9050386141f6565b99509550935085925061425b61424d61422c8b546103f4565b604051906142458261222e888c83019190602083019252565b6118bc613fd8565b868082518301019101614007565b969350909691509594614271859b601f546132ab565b119690916141ce565b5060006140f3565b508a15156140ec565b99509b50955095509a506142cd6142bf838d6142456142aa8f546103f4565b6040519283019384529192839060200161222e565b8c8082518301019101614007565b9e9350909791509695849b859e6142e682601f546132ab565b11996140e5565b505050505050505050509050565b50801515614073565b909291926143166140416003546103f4565b93600091829083809481938280985b600f8a11158061457a575b156142ed57614346610a05600561136e8461062a565b61435f575b600261409e6143599261062a565b98614325565b8b8a6143846143756140bd600561136e8761062a565b60208082518301019101613228565b8293919315614524575b8215158061451b575b8015614512575b6143ac575b5050505061434b565b938394819d8d949503614463575b5061443592614188926113aa8c61222e8f6143dc600561136e6144269961062a565b94601f9a8b549060405198899663208bffb160e21b60208901526024880194919260a0949197969360c0870198875260208701526040860152606085015260808401521515910152565b60208082518301019101613999565b8083101561444c57509098905060028a8d386143a3565b8061378a61445e9261106c855461060a565b614435565b9350505097508282116144b5575b50898c878b8685108080159161448c575b50159a92916143ba565b898710159150816144ad575b50806144a5575b38614482565b50881561449f565b905038614498565b9350935050506144f56144e66144cc6003546103f4565b604051906142458261222e88602083019190602083019252565b60208082518301019101614007565b935090939150929161450a8592601f546132ab565b119338614471565b508b151561439e565b50891515614397565b975050509350975050506145596144e661453f6003546103f4565b604051906142458261222e87602083019190602083019252565b999350909391509291818a8d829b61457389601f546132ab565b119761438e565b50801515614330565b61458b614c80565b156108c85761459933614cf2565b801561468a575b156108a2576145ad61326e565b6145b881151561469e565b6145ce6145c66003546103f4565b6122fa6146df565b6145e2602091828082518301019101614713565b926145f783600052601a602052604060002090565b549160005b6007811061460c57505050505050565b8061461a61467d9285614790565b5115613e815761462a8188614790565b518051908482156146825761465161466291614649614668958b6147b2565b9301516147a1565b61465b8589614790565b51906147b2565b906147c5565b61107b6146748861061a565b613d1a846131b9565b6145fc565b50505061343d565b506005546001600160a01b031633146145a0565b156146a557565b60405162461bcd60e51b81526020600482015260126024820152716e65737465642e696e76616c69642e61676560701b6044820152606490fd5b604051906146ec8261245d565b60188252776765744261746368526f79616c7479436c6175736573282960401b6020830152565b6102a09081818403126103ef5782601f820112156103ef57604080519361473985612493565b84938301928184116103ef57935b83851061475657505050505090565b6060858303126103ef57825160609161476e8261243d565b8651825260209182880151838201528588015186820152815201940193614747565b9060078110156136d15760051b0190565b908160640291606483040361089d57565b8181029291811591840414171561089d57565b81156147cf570490565b634e487b7160e01b600052601260045260246000fd5b604051906147f28261245d565b600682526573746f72282960d01b6020830152565b604051906101008083016001600160401b0381118482101761245857604052368337565b601f5480600052601a60205260406000205491820180921161089d57600052601a602052604060002055565b601f5480600052601b60205260406000205491820180921161089d57600052601b602052604060002055565b601f5480600052601c60205260406000205491820180921161089d57600052601c602052604060002055565b601f5480600052601d602052604060002054906001820180921161089d57600052601d602052604060002055565b908160209103126103ef57516112a081610400565b6040513d6000823e3d90fd5b6040519061490b8261245d565b6014825273676574627573696e6573732875696e743235362960601b6020830152565b6040519061493b8261245d565b601d82527f67657472616e6b436f756e742875696e743235362c75696e74323536290000006020830152565b6001600160a01b039091169052565b614c466101c061325c926149af61498d82516103f4565b600280546001600160a01b0319166001600160a01b0392909216919091179055565b6149e16149bf60208301516103f4565b600380546001600160a01b0319166001600160a01b0392909216919091179055565b614a136149f160408301516103f4565b600480546001600160a01b0319166001600160a01b0392909216919091179055565b614a45614a2360608301516103f4565b600580546001600160a01b0319166001600160a01b0392909216919091179055565b614a77614a5560808301516103f4565b600680546001600160a01b0319166001600160a01b0392909216919091179055565b614aa9614a8760a08301516103f4565b600780546001600160a01b0319166001600160a01b0392909216919091179055565b614adb614ab960c08301516103f4565b600880546001600160a01b0319166001600160a01b0392909216919091179055565b614b0d614aeb60e08301516103f4565b600980546001600160a01b0319166001600160a01b0392909216919091179055565b614b40614b1e6101008301516103f4565b600a80546001600160a01b0319166001600160a01b0392909216919091179055565b614b73614b516101208301516103f4565b600b80546001600160a01b0319166001600160a01b0392909216919091179055565b614ba6614b846101408301516103f4565b600c80546001600160a01b0319166001600160a01b0392909216919091179055565b614bd9614bb76101608301516103f4565b600d80546001600160a01b0319166001600160a01b0392909216919091179055565b614c0c614bea6101808301516103f4565b600e80546001600160a01b0319166001600160a01b0392909216919091179055565b614c3f614c1d6101a08301516103f4565b600f80546001600160a01b0319166001600160a01b0392909216919091179055565b01516103f4565b601080546001600160a01b0319166001600160a01b0392909216919091179055565b908160209103126103ef575180151581036103ef5790565b600254604051614cc8916001600160a01b031690614c9d8161245d565b6008815267697353616665282960c01b602082015260405191614cbf83612478565b60008352614ea5565b9080614ce7575b1561074957806020806112a093518301019101614c68565b506020815114614ccf565b614d4c60018060a01b038060025416604051916020941684830152838252614d198261245d565b60405190614d268261245d565b601582527469735365637572654261736528616464726573732960581b85830152614ea5565b9080614d69575b1561074957816112a09282518301019101614c68565b5081815114614d53565b6003546040516112a0916001600160a01b031690614d908161245d565b600681526569416765282960d01b6020820152604051916107e583612478565b3d15614ddb573d90614dc182612f9b565b91614dcf60405193846124ae565b82523d6000602084013e565b606090565b90614dea91614e15565b9060009015614df7575090565b6040519150614e0582612478565b815290565b90614dea9291614ea5565b73c7aff2414b0436ddf2d5d72e582feb8930af67f1803b15614e8c57600092839263ffffffff60e01b90602081519101201690614e7c6024604051809360208201958652614e6c81518092602086860191016139fa565b81010360048101845201826124ae565b51915afa614e88614db0565b9091565b505050600090604051614e9e81612478565b6000815290565b803b15614e8c57600092839263ffffffff60e01b90602081519101201690614e7c6024604051809360208201958652614e6c81518092602086860191016139fa565b9291614ef591600094614ea5565b9080614f20575b614f035750565b9091506020818051810103126103ef57602001516103f481610400565b506020815114614efc565b9291614f3991600094614ea5565b9080614f5c575b614f475750565b6112a091925060208082518301019101614c68565b506020815114614f40565b9291614f7591600094614ea5565b9080614f98575b614f835750565b6112a091925060208082518301019101613999565b506020815114614f7c565b906020825192015163ffffffff60e01b908181169360048110614fc557505050565b60040360031b82901b16169150565b6001600160a01b0381161561505657600080918351908260208601915af190614ffb614db0565b9115615005575090565b8051600091906004116150505761501c9150614fa3565b81511561502c5750805190602001fd5b604051630870274d60e21b81526001600160e01b0319919091166004820152602490fd5b5061501c565b60405163e6c4247b60e01b8152600490fdfea2646970667358221220a687b74f7a028205dc6d118d098152072b2bf4e9462cf0a74cedce3ca0a31aeb64736f6c63430008140033","linkReferences":{}},"methodIdentifiers":{"dAOAssembly()":"14837455","daocore()":"14d8d024","nested741()":"45cff900","old741()":"5540c5ac","price()":"a035b1fe"},"id":33}