{"abi":[{"type":"constructor","inputs":[],"stateMutability":"nonpayable"},{"type":"function","name":"orc1155","inputs":[{"name":"","type":"string","internalType":"string"}],"outputs":[{"name":"","type":"address","internalType":"address"}],"stateMutability":"view"},{"type":"function","name":"orc1155Prime","inputs":[{"name":"","type":"string","internalType":"string"}],"outputs":[{"name":"","type":"address","internalType":"address"}],"stateMutability":"view"},{"type":"function","name":"setOrc","inputs":[{"name":"cname","type":"string","internalType":"string"},{"name":"newOrc","type":"address","internalType":"address"},{"name":"isPrime","type":"bool","internalType":"bool"}],"outputs":[],"stateMutability":"nonpayable"}],"bytecode":{"object":"0x60806040908082523461015d5780632634b7b760e11b60249252600160048201522060018060a01b03199073b8193c79fc3f1d7dfaa0bae85fe3b1bff0558abb82825416179055602782516613995bdb9b1a5d60ca1b81526001600782015220736e5aa0e705b69459e1525b2c720e820cf3322f1b82825416179055602c82516b135858da1a5b9948109d5b1b60a21b81526001600c8201522073ef8fe7c57b613624c06f5ede5ebd639f6d51081782825416179055602382516210d85d60ea1b81526001600382015220735f141ba4a79fdc86ec5c8c044f721ce873db91b98282541617905560288251674d6f6e616c69736160c01b81526001600882015220737117638c0dc12ffffdddf3630ac4ce5c9705e6ff82825416179055732463fc29b8b635c4120c4fe32aadc580d19934806026835165223930b3b7b760d11b81526000600682015220918254161790555161028990816101638239f35b600080fdfe608060405260048036101561001357600080fd5b600090813560e01c806304e1095e1461011c578063b1fbb7ec146100c85763cb9b15461461004057600080fd5b346100c45760603660031901126100c45780359067ffffffffffffffff82116100c05761006f91369101610163565b6024356001600160a01b03811691908290036100c05760443580151581036100bc57156100b35761009f9061021a565b80546001600160a01b031916909117905580f35b61009f906101e1565b8380fd5b8280fd5b5080fd5b5090346101195760203660031901126101195781359067ffffffffffffffff821161011957506020916001600160a01b039161010f9161010a91369101610163565b61021a565b5416604051908152f35b80fd5b5090346101195760203660031901126101195781359067ffffffffffffffff821161011957506020916001600160a01b039161010f9161015e91369101610163565b6101e1565b81601f820112156101c65780359067ffffffffffffffff928383116101cb5760405193601f8401601f19908116603f01168501908111858210176101cb57604052828452602083830101116101c657816000926020809301838601378301015290565b600080fd5b634e487b7160e01b600052604160045260246000fd5b604051908181519160005b8381106102055750506020918101600181520301902090565b602082820181015186830152859350016101ec565b604051908181519160005b83811061023e5750506020918101600081520301902090565b6020828201810151868301528593500161022556fea26469706673582212207e1da0c654b419baadfeb14887c802d18db8a379f9534ce73f09c5e450cd90f164736f6c63430008140033","linkReferences":{}},"methodIdentifiers":{"orc1155(string)":"04e1095e","orc1155Prime(string)":"b1fbb7ec","setOrc(string,address,bool)":"cb9b1546"},"id":0}