{"abi":[{"type":"constructor","inputs":[{"name":"n","type":"string","internalType":"string"},{"name":"s","type":"string","internalType":"string"}],"stateMutability":"nonpayable"},{"type":"function","name":"allowance","inputs":[{"name":"","type":"address","internalType":"address"},{"name":"","type":"address","internalType":"address"}],"outputs":[{"name":"","type":"uint256","internalType":"uint256"}],"stateMutability":"view"},{"type":"function","name":"approve","inputs":[{"name":"spender","type":"address","internalType":"address"},{"name":"amount","type":"uint256","internalType":"uint256"}],"outputs":[{"name":"","type":"bool","internalType":"bool"}],"stateMutability":"nonpayable"},{"type":"function","name":"balanceOf","inputs":[{"name":"","type":"address","internalType":"address"}],"outputs":[{"name":"","type":"uint256","internalType":"uint256"}],"stateMutability":"view"},{"type":"function","name":"decimals","inputs":[],"outputs":[{"name":"","type":"uint8","internalType":"uint8"}],"stateMutability":"view"},{"type":"function","name":"mint","inputs":[{"name":"to","type":"address","internalType":"address"},{"name":"amount","type":"uint256","internalType":"uint256"}],"outputs":[],"stateMutability":"nonpayable"},{"type":"function","name":"name","inputs":[],"outputs":[{"name":"","type":"string","internalType":"string"}],"stateMutability":"view"},{"type":"function","name":"symbol","inputs":[],"outputs":[{"name":"","type":"string","internalType":"string"}],"stateMutability":"view"},{"type":"function","name":"transfer","inputs":[{"name":"to","type":"address","internalType":"address"},{"name":"amount","type":"uint256","internalType":"uint256"}],"outputs":[{"name":"","type":"bool","internalType":"bool"}],"stateMutability":"nonpayable"},{"type":"function","name":"transferFrom","inputs":[{"name":"from","type":"address","internalType":"address"},{"name":"to","type":"address","internalType":"address"},{"name":"amount","type":"uint256","internalType":"uint256"}],"outputs":[{"name":"","type":"bool","internalType":"bool"}],"stateMutability":"nonpayable"}],"bytecode":{"object":"0x608060405234620003265762000a09803803806200001d816200032b565b928339810190604081830312620003265780516001600160401b03908181116200032657836200004f91840162000351565b916020938482015183811162000326576200006b920162000351565b601260ff196002541617600255825190828211620003105760008054926001958685811c9516801562000305575b88861014620002f1578190601f958681116200029e575b5088908683116001146200023a5784926200022e575b5050600019600383901b1c191690861b1781555b81519384116200021a5784548581811c911680156200020f575b87821014620001fb57838111620001b3575b50859284116001146200014e57839495509262000142575b5050600019600383901b1c191690821b1790555b6040516106459081620003c48239f35b0151905038806200011e565b9190601f1984169585845280842093905b8782106200019b5750508385961062000181575b505050811b01905562000132565b015160001960f88460031b161c1916905538808062000173565b8087859682949686015181550195019301906200015f565b8582528682208480870160051c820192898810620001f1575b0160051c019086905b828110620001e557505062000106565b838155018690620001d5565b92508192620001cc565b634e487b7160e01b82526022600452602482fd5b90607f1690620000f4565b634e487b7160e01b81526041600452602490fd5b015190503880620000c6565b8480528985208994509190601f198416865b8c8282106200028757505084116200026d575b505050811b018155620000da565b015160001960f88460031b161c191690553880806200025f565b8385015186558c979095019493840193016200024c565b9091508380528884208680850160051c8201928b8610620002e7575b918a91869594930160051c01915b828110620002d8575050620000b0565b8681558594508a9101620002c8565b92508192620002ba565b634e487b7160e01b83526022600452602483fd5b94607f169462000099565b634e487b7160e01b600052604160045260246000fd5b600080fd5b6040519190601f01601f191682016001600160401b038111838210176200031057604052565b919080601f84011215620003265782516001600160401b038111620003105760209062000387601f8201601f191683016200032b565b92818452828287010111620003265760005b818110620003af57508260009394955001015290565b85810183015184820184015282016200039956fe6080604081815260048036101561001557600080fd5b600092833560e01c90816306fdde031461042757508063095ea7b3146103e557806323b872dd14610301578063313ce567146102df57806340c10f19146102a157806370a082311461026a57806395d89b4114610149578063a9059cbb146100d15763dd62ed3e1461008657600080fd5b346100cd57816003193601126100cd5760209282916100a3610563565b6100ab61057e565b916001600160a01b038092168452865283832091168252845220549051908152f35b8280fd5b50503461014557806003193601126101455760209161013c826100f2610563565b926001600160a01b036024359433835260038852610115868585205410156105b7565b3383526003885283832061012a878254610602565b90551681526003865220918254610594565b90555160018152f35b5080fd5b5091903461014557816003193601126101455780519082600180549081811c90808316928315610260575b602093848410811461024d5783885290811561023157506001146101dc575b505050829003601f01601f191682019267ffffffffffffffff8411838510176101c957508291826101c592528261051a565b0390f35b80604186634e487b7160e01b6024945252fd5b8087529192508591837fb10e2d527612073b26eecdfd717e6a320cf44b4afac2b0732d9fcbe2b7fa0cf65b83851061021d5750505050830101388080610193565b805488860183015293019284908201610207565b60ff1916878501525050151560051b8401019050388080610193565b60248960228c634e487b7160e01b835252fd5b91607f1691610174565b50503461014557602036600319011261014557806020926001600160a01b03610291610563565b1681526003845220549051908152f35b5050346101455780600319360112610145576001600160a01b036102c3610563565b168252600360205281206102da6024358254610594565b905580f35b50503461014557816003193601126101455760209060ff600254169051908152f35b5091346103e25760603660031901126103e25761031c610563565b9061032561057e565b91604435926001600160a01b038092168084526020966003885261034e868887205410156105b7565b81855280885286852033865288528587862054106103a0579181859388959361013c97528952848420338552895284842061038a888254610602565b905583526003885283832061012a878254610602565b6064908888519162461bcd60e51b8352820152600960248201527f414c4c4f575f4c4f5700000000000000000000000000000000000000000000006044820152fd5b80fd5b50346100cd57816003193601126100cd5791602092610402610563565b9033835284526001600160a01b03838320911682528352816024359120555160018152f35b84915083346100cd57826003193601126100cd57828354600181811c90808316928315610510575b602093848410811461024d578388529081156104f4575060011461049f57505050829003601f01601f191682019267ffffffffffffffff8411838510176101c957508291826101c592528261051a565b8680529192508591837f290decd9548b62a8d60345a988386fc84ba6bc95484008f6362f93160ef3e5635b8385106104e05750505050830101858080610193565b8054888601830152930192849082016104ca565b60ff1916878501525050151560051b8401019050858080610193565b91607f169161044f565b6020808252825181830181905290939260005b82811061054f57505060409293506000838284010152601f8019910116010190565b81810186015184820160400152850161052d565b600435906001600160a01b038216820361057957565b600080fd5b602435906001600160a01b038216820361057957565b919082018092116105a157565b634e487b7160e01b600052601160045260246000fd5b156105be57565b606460405162461bcd60e51b815260206004820152600760248201527f42414c5f4c4f57000000000000000000000000000000000000000000000000006044820152fd5b919082039182116105a15756fea2646970667358221220b3fe506b498c309195e675940dd8dbef6d66b578ca4fe11bfa460d25472b4db964736f6c63430008140033","linkReferences":{}},"methodIdentifiers":{"allowance(address,address)":"dd62ed3e","approve(address,uint256)":"095ea7b3","balanceOf(address)":"70a08231","decimals()":"313ce567","mint(address,uint256)":"40c10f19","name()":"06fdde03","symbol()":"95d89b41","transfer(address,uint256)":"a9059cbb","transferFrom(address,address,uint256)":"23b872dd"},"id":83}