{"abi":[{"type":"constructor","inputs":[{"name":"_hex","type":"address","internalType":"address"},{"name":"cname","type":"string","internalType":"string"},{"name":"_orc1155","type":"address","internalType":"address"}],"stateMutability":"nonpayable"},{"type":"fallback","stateMutability":"payable"},{"type":"receive","stateMutability":"payable"},{"type":"function","name":"Burn","inputs":[{"name":"amount","type":"uint256","internalType":"uint256"}],"outputs":[],"stateMutability":"payable"},{"type":"function","name":"_delegatorCount","inputs":[],"outputs":[{"name":"","type":"uint256","internalType":"uint256"}],"stateMutability":"view"},{"type":"function","name":"_isDelegatorNode","inputs":[{"name":"sender","type":"address","internalType":"address"}],"outputs":[{"name":"","type":"bool","internalType":"bool"}],"stateMutability":"view"},{"type":"function","name":"_isSafe","inputs":[],"outputs":[{"name":"","type":"bool","internalType":"bool"}],"stateMutability":"view"},{"type":"function","name":"_isSecureBase","inputs":[{"name":"sender","type":"address","internalType":"address"}],"outputs":[{"name":"","type":"bool","internalType":"bool"}],"stateMutability":"view"},{"type":"function","name":"_isSigner","inputs":[{"name":"sender","type":"address","internalType":"address"}],"outputs":[{"name":"","type":"bool","internalType":"bool"}],"stateMutability":"view"},{"type":"function","name":"getBalance","inputs":[],"outputs":[{"name":"","type":"uint256","internalType":"uint256"}],"stateMutability":"view"},{"type":"function","name":"isNodeStopped","inputs":[{"name":"sender","type":"address","internalType":"address"}],"outputs":[{"name":"","type":"bool","internalType":"bool"}],"stateMutability":"view"},{"type":"function","name":"orc1155","inputs":[{"name":"","type":"string","internalType":"string"}],"outputs":[{"name":"","type":"address","internalType":"address"}],"stateMutability":"view"},{"type":"function","name":"orc1155Prime","inputs":[{"name":"","type":"string","internalType":"string"}],"outputs":[{"name":"","type":"address","internalType":"address"}],"stateMutability":"view"},{"type":"function","name":"owner","inputs":[],"outputs":[{"name":"","type":"address","internalType":"address"}],"stateMutability":"view"},{"type":"function","name":"setOrc","inputs":[{"name":"cname","type":"string","internalType":"string"},{"name":"newOrc","type":"address","internalType":"address"},{"name":"isPrime","type":"bool","internalType":"bool"}],"outputs":[],"stateMutability":"nonpayable"}],"bytecode":{"object":"0x60806040523480156200001157600080fd5b506040516200140838038062001408833981016040819052620000349162000102565b600180546001600160a01b0319908116909155600080549091166001600160a01b038516179055806002836040516200006e9190620001e2565b908152602001604051809103902060006101000a8154816001600160a01b0302191690836001600160a01b0316021790555050505062000200565b80516001600160a01b0381168114620000c157600080fd5b919050565b634e487b7160e01b600052604160045260246000fd5b60005b83811015620000f9578181015183820152602001620000df565b50506000910152565b6000806000606084860312156200011857600080fd5b6200012384620000a9565b60208501519093506001600160401b03808211156200014157600080fd5b818601915086601f8301126200015657600080fd5b8151818111156200016b576200016b620000c6565b604051601f8201601f19908116603f01168101908382118183101715620001965762000196620000c6565b81604052828152896020848701011115620001b057600080fd5b620001c3836020830160208801620000dc565b8096505050505050620001d960408501620000a9565b90509250925092565b60008251620001f6818460208701620000dc565b9190910192915050565b6111f880620002106000396000f3fe6080604052600436106100a55760003560e01c8063af48452611610061578063af484526146101ac578063b1fbb7ec146101cc578063b90306ad1461020d578063cb9b154614610220578063e01ad5fd14610240578063e0a9bc2b1461026057005b806304e1095e146100ae57806312065fe01461010c5780631f185d161461012957806351bfd3ae146101595780638da5cb5b14610179578063a1f7f5391461019757005b366100ac57005b005b3480156100ba57600080fd5b506100ef6100c9366004610fdb565b80516020818301810180516003825292820191909301209152546001600160a01b031681565b6040516001600160a01b0390911681526020015b60405180910390f35b34801561011857600080fd5b50475b604051908152602001610103565b34801561013557600080fd5b50610149610144366004611030565b610275565b6040519015158152602001610103565b34801561016557600080fd5b50610149610174366004611030565b610349565b34801561018557600080fd5b506001546001600160a01b03166100ef565b3480156101a357600080fd5b5061011b6104fd565b3480156101b857600080fd5b506101496101c7366004611030565b6106c8565b3480156101d857600080fd5b506100ef6101e7366004610fdb565b80516020818301810180516002825292820191909301209152546001600160a01b031681565b6100ac61021b366004611054565b610786565b34801561022c57600080fd5b506100ac61023b36600461107b565b610871565b34801561024c57600080fd5b5061014961025b366004611030565b61096b565b34801561026c57600080fd5b50610149610c4b565b600080546040805163af0deb9560e01b81529051610343926001600160a01b03169163af0deb959160048083019260209291908290030181865afa1580156102c1573d6000803e3d6000fd5b505050506040513d601f19601f820116820180604052508101906102e591906110df565b6040518060400160405280601181526020017069735369676e657228616464726573732960781b8152508460405160200161032f91906001600160a01b0391909116815260200190565b604051602081830303815290604052610ce6565b92915050565b60008061042460008054906101000a90046001600160a01b03166001600160a01b031663a66bcbe26040518163ffffffff1660e01b8152600401602060405180830381865afa1580156103a0573d6000803e3d6000fd5b505050506040513d601f19601f820116820180604052508101906103c491906110df565b6040518060400160405280601381526020017255736572546f496e737428616464726573732960681b8152508560405160200161041091906001600160a01b0391909116815260200190565b604051602081830303815290604052610d2d565b60408051808201909152600b81526a697353757370656e64282960a81b60208201529091506001600160a01b038216151590600090610491908490835b6040519080825280601f01601f19166020018201604052801561048b576020820181803683370190505b50610ce6565b905060006104d4846040518060400160405280600881526020016769734c6f636b282960c01b815250600067ffffffffffffffff81111561046157610461610f38565b90508180156104e05750805b80156104ea575082155b806104f3575082155b9695505050505050565b6000806105ce60008054906101000a90046001600160a01b03166001600160a01b031663e1f4cd246040518163ffffffff1660e01b8152600401602060405180830381865afa158015610554573d6000803e3d6000fd5b505050506040513d601f19601f8201168201806040525081019061057891906110df565b60408051808201909152600c81526b72616e6b666f7244414f282960a01b602082015260005b6040519080825280601f01601f1916602001820160405280156105c8576020820181803683370190505b50610d68565b905060006106b160008054906101000a90046001600160a01b03166001600160a01b031663ab6e844f6040518163ffffffff1660e01b8152600401602060405180830381865afa158015610626573d6000803e3d6000fd5b505050506040513d601f19601f8201168201806040525081019061064a91906110df565b6040518060400160405280601d81526020017f67657472616e6b636f756e742875696e743235362c75696e7432353629000000815250610688610da3565b60408051602081019290925281018690526060015b604051602081830303815290604052610d68565b50600090506106c18160036110fc565b9250505090565b600080546040805163af0deb9560e01b81529051610343926001600160a01b03169163af0deb959160048083019260209291908290030181865afa158015610714573d6000803e3d6000fd5b505050506040513d601f19601f8201168201806040525081019061073891906110df565b6040518060400160405280601581526020017469735365637572654261736528616464726573732960581b8152508460405160200161032f91906001600160a01b0391909116815260200190565b60005460408051634162169f60e01b8152905133926001600160a01b031691634162169f9160048083019260209291908290030181865afa1580156107cf573d6000803e3d6000fd5b505050506040513d601f19601f820116820180604052508101906107f391906110df565b6001600160a01b0316146108405760405162461bcd60e51b815260206004820152600f60248201526e6f776e2e6e6f6e617574682e44414f60881b60448201526064015b60405180910390fd5b60405160009082156108fc0290839083818181858288f1935050505015801561086d573d6000803e3d6000fd5b5050565b60005460408051634162169f60e01b8152905133926001600160a01b031691634162169f9160048083019260209291908290030181865afa1580156108ba573d6000803e3d6000fd5b505050506040513d601f19601f820116820180604052508101906108de91906110df565b6001600160a01b0316146109265760405162461bcd60e51b815260206004820152600f60248201526e6f776e2e6e6f6e617574682e44414f60881b6044820152606401610837565b816002846040516109379190611141565b90815260405190819003602001902080546001600160a01b03929092166001600160a01b0319909216919091179055505050565b6000806109c260008054906101000a90046001600160a01b03166001600160a01b031663e1f4cd246040518163ffffffff1660e01b8152600401602060405180830381865afa158015610554573d6000803e3d6000fd5b90506000610a8a60008054906101000a90046001600160a01b03166001600160a01b031663ab6e844f6040518163ffffffff1660e01b8152600401602060405180830381865afa158015610a1a573d6000803e3d6000fd5b505050506040513d601f19601f82011682018060405250810190610a3e91906110df565b6040518060400160405280601381526020017255736572546f496e737428616464726573732960681b8152508660405160200161041091906001600160a01b0391909116815260200190565b90506000610b5c60008054906101000a90046001600160a01b03166001600160a01b031663ab6e844f6040518163ffffffff1660e01b8152600401602060405180830381865afa158015610ae2573d6000803e3d6000fd5b505050506040513d601f19601f82011682018060405250810190610b0691906110df565b6040518060400160405280601981526020017f67657445666665637469766552616e6b286164647265737329000000000000008152508460405160200161069d91906001600160a01b0391909116815260200190565b90506000610c2060008054906101000a90046001600160a01b03166001600160a01b031663ab6e844f6040518163ffffffff1660e01b8152600401602060405180830381865afa158015610bb4573d6000803e3d6000fd5b505050506040513d601f19601f82011682018060405250810190610bd891906110df565b6040518060400160405280600f81526020016e697353746f7028616464726573732960881b8152508560405160200161032f91906001600160a01b0391909116815260200190565b90506001600160a01b03831615801590610c3a5750838210155b80156104f357501595945050505050565b600080546040805163af0deb9560e01b81529051610ce1926001600160a01b03169163af0deb959160048083019260209291908290030181865afa158015610c97573d6000803e3d6000fd5b505050506040513d601f19601f82011682018060405250810190610cbb91906110df565b604080518082019091526008815267697353616665282960c01b60208201526000610461565b905090565b6000806000610cf6868686610e36565b91509150818015610d08575080516020145b15610d245780806020019051810190610d21919061115d565b92505b50509392505050565b6000806000610d3d868686610e36565b91509150818015610d4f575080516020145b15610d245780806020019051810190610d2191906110df565b6000806000610d78868686610e36565b91509150818015610d8a575080516020145b15610d245780806020019051810190610d21919061117a565b600080546040805163223df87160e11b81529051610ce1926001600160a01b03169163447bf0e29160048083019260209291908290030181865afa158015610def573d6000803e3d6000fd5b505050506040513d601f19601f82011682018060405250810190610e1391906110df565b604080518082019091526005815264616765282960d81b6020820152600061059e565b60006060846001600160a01b03163b600003610e645750506040805160208101909152600080825290610f30565b60408051600481526024810191829052600091610e82908790611141565b60405180910390206001600160e01b0319166020820180516001600160e01b03838183161783525050505084604051602001610ebf929190611193565b6040516020818303038152906040529050856001600160a01b031681604051610ee89190611141565b600060405180830381855afa9150503d8060008114610f23576040519150601f19603f3d011682016040523d82523d6000602084013e610f28565b606091505b509093509150505b935093915050565b634e487b7160e01b600052604160045260246000fd5b600082601f830112610f5f57600080fd5b813567ffffffffffffffff80821115610f7a57610f7a610f38565b604051601f8301601f19908116603f01168101908282118183101715610fa257610fa2610f38565b81604052838152866020858801011115610fbb57600080fd5b836020870160208301376000602085830101528094505050505092915050565b600060208284031215610fed57600080fd5b813567ffffffffffffffff81111561100457600080fd5b61101084828501610f4e565b949350505050565b6001600160a01b038116811461102d57600080fd5b50565b60006020828403121561104257600080fd5b813561104d81611018565b9392505050565b60006020828403121561106657600080fd5b5035919050565b801515811461102d57600080fd5b60008060006060848603121561109057600080fd5b833567ffffffffffffffff8111156110a757600080fd5b6110b386828701610f4e565b93505060208401356110c481611018565b915060408401356110d48161106d565b809150509250925092565b6000602082840312156110f157600080fd5b815161104d81611018565b8082018082111561034357634e487b7160e01b600052601160045260246000fd5b60005b83811015611138578181015183820152602001611120565b50506000910152565b6000825161115381846020870161111d565b9190910192915050565b60006020828403121561116f57600080fd5b815161104d8161106d565b60006020828403121561118c57600080fd5b5051919050565b600083516111a581846020880161111d565b8351908301906111b981836020880161111d565b0194935050505056fea26469706673582212200cd8c0ae609c86aec6d3e039b5227f616a7efca232d4baad37cb505497bed2eb64736f6c63430008140033","linkReferences":{}},"methodIdentifiers":{"Burn(uint256)":"b90306ad","_delegatorCount()":"a1f7f539","_isDelegatorNode(address)":"e01ad5fd","_isSafe()":"e0a9bc2b","_isSecureBase(address)":"af484526","_isSigner(address)":"1f185d16","getBalance()":"12065fe0","isNodeStopped(address)":"51bfd3ae","orc1155(string)":"04e1095e","orc1155Prime(string)":"b1fbb7ec","owner()":"8da5cb5b","setOrc(string,address,bool)":"cb9b1546"},"id":26}