{"abi":[{"type":"constructor","inputs":[],"stateMutability":"nonpayable"},{"type":"fallback","stateMutability":"payable"},{"type":"receive","stateMutability":"payable"},{"type":"function","name":"addOwner","inputs":[{"name":"o","type":"address","internalType":"address"}],"outputs":[],"stateMutability":"nonpayable"},{"type":"function","name":"dao","inputs":[],"outputs":[{"name":"","type":"address","internalType":"address"}],"stateMutability":"view"},{"type":"function","name":"factoryprimeold","inputs":[],"outputs":[{"name":"","type":"address","internalType":"address"}],"stateMutability":"view"},{"type":"function","name":"getAllAddresses1","inputs":[],"outputs":[{"name":"hexbase_","type":"address","internalType":"address"},{"name":"safe_","type":"address","internalType":"address"},{"name":"dao_","type":"address","internalType":"address"},{"name":"rule_","type":"address","internalType":"address"},{"name":"price_","type":"address","internalType":"address"},{"name":"inst_","type":"address","internalType":"address"},{"name":"nested_","type":"address","internalType":"address"},{"name":"orc1155_","type":"address","internalType":"address"},{"name":"primeData_","type":"address","internalType":"address"},{"name":"inBackendPrime_","type":"address","internalType":"address"}],"stateMutability":"view"},{"type":"function","name":"getAllAddresses2","inputs":[],"outputs":[{"name":"TVLmining_","type":"address","internalType":"address"},{"name":"TVLminingPrime_","type":"address","internalType":"address"},{"name":"TVLreward_","type":"address","internalType":"address"},{"name":"TVLroyality_","type":"address","internalType":"address"},{"name":"TVLtour_","type":"address","internalType":"address"},{"name":"primedata_","type":"address","internalType":"address"}],"stateMutability":"view"},{"type":"function","name":"in741","inputs":[],"outputs":[{"name":"","type":"address","internalType":"address"}],"stateMutability":"view"},{"type":"function","name":"in741Old","inputs":[],"outputs":[{"name":"","type":"address","internalType":"address"}],"stateMutability":"view"},{"type":"function","name":"in741PrimeOld","inputs":[],"outputs":[{"name":"","type":"address","internalType":"address"}],"stateMutability":"view"},{"type":"function","name":"in741Rule","inputs":[],"outputs":[{"name":"","type":"address","internalType":"address"}],"stateMutability":"view"},{"type":"function","name":"inBackendPrime","inputs":[],"outputs":[{"name":"","type":"address","internalType":"address"}],"stateMutability":"view"},{"type":"function","name":"inImportForgePrimeold","inputs":[],"outputs":[{"name":"","type":"address","internalType":"address"}],"stateMutability":"view"},{"type":"function","name":"inInstance","inputs":[],"outputs":[{"name":"","type":"address","internalType":"address"}],"stateMutability":"view"},{"type":"function","name":"inInstancePrime","inputs":[],"outputs":[{"name":"","type":"address","internalType":"address"}],"stateMutability":"view"},{"type":"function","name":"inOrc1155","inputs":[],"outputs":[{"name":"","type":"address","internalType":"address"}],"stateMutability":"view"},{"type":"function","name":"inOrc1155Prime","inputs":[],"outputs":[{"name":"","type":"address","internalType":"address"}],"stateMutability":"view"},{"type":"function","name":"inOrc1155machinebullold","inputs":[],"outputs":[{"name":"","type":"address","internalType":"address"}],"stateMutability":"view"},{"type":"function","name":"inPrice","inputs":[],"outputs":[{"name":"","type":"address","internalType":"address"}],"stateMutability":"view"},{"type":"function","name":"inPrimeClaimQueue","inputs":[],"outputs":[{"name":"","type":"address","internalType":"address"}],"stateMutability":"view"},{"type":"function","name":"inPrimeData","inputs":[],"outputs":[{"name":"","type":"address","internalType":"address"}],"stateMutability":"view"},{"type":"function","name":"inTransferold","inputs":[],"outputs":[{"name":"","type":"address","internalType":"address"}],"stateMutability":"view"},{"type":"function","name":"inTreaseryTVLMining","inputs":[],"outputs":[{"name":"","type":"address","internalType":"address"}],"stateMutability":"view"},{"type":"function","name":"inTreaseryTVLMiningPrime","inputs":[],"outputs":[{"name":"","type":"address","internalType":"address"}],"stateMutability":"view"},{"type":"function","name":"inTreaseryTVLReward","inputs":[],"outputs":[{"name":"","type":"address","internalType":"address"}],"stateMutability":"view"},{"type":"function","name":"inTreaseryTVLRoyality","inputs":[],"outputs":[{"name":"","type":"address","internalType":"address"}],"stateMutability":"view"},{"type":"function","name":"inTreaseryTVLTour","inputs":[],"outputs":[{"name":"","type":"address","internalType":"address"}],"stateMutability":"view"},{"type":"function","name":"isOwner","inputs":[{"name":"o","type":"address","internalType":"address"}],"outputs":[{"name":"","type":"bool","internalType":"bool"}],"stateMutability":"view"},{"type":"function","name":"safeguard","inputs":[],"outputs":[{"name":"","type":"address","internalType":"address"}],"stateMutability":"view"},{"type":"function","name":"update741","inputs":[{"name":"nested_","type":"address","internalType":"address"}],"outputs":[],"stateMutability":"nonpayable"},{"type":"function","name":"update741Old","inputs":[{"name":"nested_","type":"address","internalType":"address"}],"outputs":[],"stateMutability":"nonpayable"},{"type":"function","name":"update741PrimeOld","inputs":[{"name":"nested_","type":"address","internalType":"address"}],"outputs":[],"stateMutability":"nonpayable"},{"type":"function","name":"update741Rule","inputs":[{"name":"rule_","type":"address","internalType":"address"}],"outputs":[],"stateMutability":"nonpayable"},{"type":"function","name":"updateBackendPrime","inputs":[{"name":"inBackendPrime_","type":"address","internalType":"address"}],"outputs":[],"stateMutability":"nonpayable"},{"type":"function","name":"updateDAO","inputs":[{"name":"dao_","type":"address","internalType":"address"}],"outputs":[],"stateMutability":"nonpayable"},{"type":"function","name":"updateImportForgePrimeold","inputs":[{"name":"inImportForgePrimeold_","type":"address","internalType":"address"}],"outputs":[],"stateMutability":"nonpayable"},{"type":"function","name":"updateInstance","inputs":[{"name":"instance_","type":"address","internalType":"address"}],"outputs":[],"stateMutability":"nonpayable"},{"type":"function","name":"updateInstancePrime","inputs":[{"name":"instancePrime_","type":"address","internalType":"address"}],"outputs":[],"stateMutability":"nonpayable"},{"type":"function","name":"updateORC1155","inputs":[{"name":"orc1155_","type":"address","internalType":"address"}],"outputs":[],"stateMutability":"nonpayable"},{"type":"function","name":"updateORC1155Prime","inputs":[{"name":"orc1155Prime_","type":"address","internalType":"address"}],"outputs":[],"stateMutability":"nonpayable"},{"type":"function","name":"updatePrice","inputs":[{"name":"price_","type":"address","internalType":"address"}],"outputs":[],"stateMutability":"nonpayable"},{"type":"function","name":"updatePrimeClaimQueue","inputs":[{"name":"prime_","type":"address","internalType":"address"}],"outputs":[],"stateMutability":"nonpayable"},{"type":"function","name":"updatePrimedata","inputs":[{"name":"prime_","type":"address","internalType":"address"}],"outputs":[],"stateMutability":"nonpayable"},{"type":"function","name":"updateSafeguard","inputs":[{"name":"safeguard_","type":"address","internalType":"address"}],"outputs":[],"stateMutability":"nonpayable"},{"type":"function","name":"updateTreasuryTVLMining","inputs":[{"name":"treasury_","type":"address","internalType":"address"}],"outputs":[],"stateMutability":"nonpayable"},{"type":"function","name":"updateTreasuryTVLMiningPrime","inputs":[{"name":"treasury_","type":"address","internalType":"address"}],"outputs":[],"stateMutability":"nonpayable"},{"type":"function","name":"updateTreasuryTVLReward","inputs":[{"name":"treasury_","type":"address","internalType":"address"}],"outputs":[],"stateMutability":"nonpayable"},{"type":"function","name":"updateTreasuryTVLRoyality","inputs":[{"name":"treasury_","type":"address","internalType":"address"}],"outputs":[],"stateMutability":"nonpayable"},{"type":"function","name":"updateTreasuryTVLTour","inputs":[{"name":"treasury_","type":"address","internalType":"address"}],"outputs":[],"stateMutability":"nonpayable"},{"type":"function","name":"updatefactoryprimeold","inputs":[{"name":"factoryprimeold_","type":"address","internalType":"address"}],"outputs":[],"stateMutability":"nonpayable"},{"type":"function","name":"updateinOrc1155machinebullold","inputs":[{"name":"inOrc1155machinebullold_","type":"address","internalType":"address"}],"outputs":[],"stateMutability":"nonpayable"},{"type":"function","name":"updateinTransferold","inputs":[{"name":"inTransferold_","type":"address","internalType":"address"}],"outputs":[],"stateMutability":"nonpayable"}],"bytecode":{"object":"0x6080604052601180546001600160a01b031990811673c0cee8b561cc4f60869776ca5b0b7a295e04f5af17909155601280548216739f33b44587a57758c1413dbab6640f6abea5cef4179055601380548216730239667fa9f2269e36f32daf2ab391dc1ad9373817905560148054821673648565deb50c503ef59860d92942eaece0c3e17217905560158054821673085052532254e12989413f7c84dd32686bce74e117905560168054909116739bfc2af8a5e49a72bfb58e22312ce07d61fe77391790553480156100d057600080fd5b50326000908152601760205260408082208054600160ff199182168117909255338452918320805490921617905561121790819061010e90396000f3fe6080604052600436106102af5760003560e01c806374fad9f911610166578063aeb14020116100d3578063cfbffe531161008f578063d62bab341161006c578063d62bab3414610967578063e257681914610987578063e61dfd58146109a7578063e7531fc0146109c757005b8063cfbffe5314610907578063d05a565114610927578063d3d1b0961461094757005b8063aeb1402014610847578063af23319014610867578063b0788f8414610887578063b57dbdc6146108a7578063bcb6c0b5146108c7578063c5a90db1146108e757005b806396e85ced1161012257806396e85ced146107875780639a7c4077146107a75780639f56383e146107c7578063a5b277f2146107e7578063aa0ddc1614610807578063ab6e844f1461082757005b806374fad9f9146106c7578063753e7d33146106e75780637c27dd0c14610707578063839a47a4146107275780638852b1eb14610747578063962399751461076757005b80632f54bf6e1161021c578063447bf0e2116101d857806364d93c62116101b557806364d93c621461060557806366658584146106675780636b4aefc6146106875780637065cb48146106a757005b8063447bf0e2146105a55780635f7ba561146105c557806364027427146105e557005b80632f54bf6e146104bc57806330125cf514610505578063313c5fdc1461052557806336c24c46146105455780634162169f14610565578063447aa3041461058557005b8063236b04021161026b578063236b04021461039557806323d02da2146103b5578063242fca55146103d557806324768d91146103f5578063275424d01461041557806328b3ab9c1461043557005b806301c0d48b146102b857806305abae0d146102f55780630c46c9e9146103155780631162a5b114610335578063130fba6d146103555780631b67970a1461037557005b366102b657005b005b3480156102c457600080fd5b50600e546102d8906001600160a01b031681565b6040516001600160a01b0390911681526020015b60405180910390f35b34801561030157600080fd5b506102b661031036600461118a565b6109e7565b34801561032157600080fd5b506102b661033036600461118a565b610a41565b34801561034157600080fd5b506102b661035036600461118a565b610a92565b34801561036157600080fd5b506102b661037036600461118a565b610ae3565b34801561038157600080fd5b506102b661039036600461118a565b610b34565b3480156103a157600080fd5b506102b66103b036600461118a565b610b85565b3480156103c157600080fd5b506102b66103d036600461118a565b610bd6565b3480156103e157600080fd5b506102b66103f036600461118a565b610c27565b34801561040157600080fd5b50600a546102d8906001600160a01b031681565b34801561042157600080fd5b506102b661043036600461118a565b610c78565b34801561044157600080fd5b50600154600054600254600d54600b54600354600454600e54601054604080513081526001600160a01b039a8b166020820152988a16908901529588166060880152938716608087015291861660a0860152851660c0850152841660e0840152831661010083015291909116610120820152610140016102ec565b3480156104c857600080fd5b506104f56104d736600461118a565b6001600160a01b031660009081526017602052604090205460ff1690565b60405190151581526020016102ec565b34801561051157600080fd5b506009546102d8906001600160a01b031681565b34801561053157600080fd5b506102b661054036600461118a565b610cc9565b34801561055157600080fd5b506102b661056036600461118a565b610d1a565b34801561057157600080fd5b506000546102d8906001600160a01b031681565b34801561059157600080fd5b506011546102d8906001600160a01b031681565b3480156105b157600080fd5b506012546102d8906001600160a01b031681565b3480156105d157600080fd5b506102b66105e036600461118a565b610d6b565b3480156105f157600080fd5b506008546102d8906001600160a01b031681565b34801561061157600080fd5b50600654600754600854600954600a54600e54604080516001600160a01b0397881681529587166020870152938616938501939093529084166060840152831660808301529190911660a082015260c0016102ec565b34801561067357600080fd5b506102b661068236600461118a565b610dbc565b34801561069357600080fd5b506007546102d8906001600160a01b031681565b3480156106b357600080fd5b506102b66106c236600461118a565b610e0d565b3480156106d357600080fd5b506102b66106e236600461118a565b610e60565b3480156106f357600080fd5b506102b661070236600461118a565b610eb1565b34801561071357600080fd5b506010546102d8906001600160a01b031681565b34801561073357600080fd5b506102b661074236600461118a565b610f02565b34801561075357600080fd5b506102b661076236600461118a565b610f53565b34801561077357600080fd5b506016546102d8906001600160a01b031681565b34801561079357600080fd5b506102b66107a236600461118a565b610fa4565b3480156107b357600080fd5b506004546102d8906001600160a01b031681565b3480156107d357600080fd5b50600f546102d8906001600160a01b031681565b3480156107f357600080fd5b506015546102d8906001600160a01b031681565b34801561081357600080fd5b506006546102d8906001600160a01b031681565b34801561083357600080fd5b506003546102d8906001600160a01b031681565b34801561085357600080fd5b506102b661086236600461118a565b610ff5565b34801561087357600080fd5b50600c546102d8906001600160a01b031681565b34801561089357600080fd5b506102b66108a236600461118a565b611046565b3480156108b357600080fd5b506001546102d8906001600160a01b031681565b3480156108d357600080fd5b506102b66108e236600461118a565b611097565b3480156108f357600080fd5b506014546102d8906001600160a01b031681565b34801561091357600080fd5b506002546102d8906001600160a01b031681565b34801561093357600080fd5b506102b661094236600461118a565b6110e8565b34801561095357600080fd5b50600d546102d8906001600160a01b031681565b34801561097357600080fd5b506005546102d8906001600160a01b031681565b34801561099357600080fd5b506102b66109a236600461118a565b611139565b3480156109b357600080fd5b50600b546102d8906001600160a01b031681565b3480156109d357600080fd5b506013546102d8906001600160a01b031681565b3360009081526017602052604090205460ff16610a1f5760405162461bcd60e51b8152600401610a16906111ba565b60405180910390fd5b600880546001600160a01b0319166001600160a01b0392909216919091179055565b3360009081526017602052604090205460ff16610a705760405162461bcd60e51b8152600401610a16906111ba565b601580546001600160a01b0319166001600160a01b0392909216919091179055565b3360009081526017602052604090205460ff16610ac15760405162461bcd60e51b8152600401610a16906111ba565b600180546001600160a01b0319166001600160a01b0392909216919091179055565b3360009081526017602052604090205460ff16610b125760405162461bcd60e51b8152600401610a16906111ba565b600680546001600160a01b0319166001600160a01b0392909216919091179055565b3360009081526017602052604090205460ff16610b635760405162461bcd60e51b8152600401610a16906111ba565b600a80546001600160a01b0319166001600160a01b0392909216919091179055565b3360009081526017602052604090205460ff16610bb45760405162461bcd60e51b8152600401610a16906111ba565b601180546001600160a01b0319166001600160a01b0392909216919091179055565b3360009081526017602052604090205460ff16610c055760405162461bcd60e51b8152600401610a16906111ba565b601680546001600160a01b0319166001600160a01b0392909216919091179055565b3360009081526017602052604090205460ff16610c565760405162461bcd60e51b8152600401610a16906111ba565b601080546001600160a01b0319166001600160a01b0392909216919091179055565b3360009081526017602052604090205460ff16610ca75760405162461bcd60e51b8152600401610a16906111ba565b600b80546001600160a01b0319166001600160a01b0392909216919091179055565b3360009081526017602052604090205460ff16610cf85760405162461bcd60e51b8152600401610a16906111ba565b600480546001600160a01b0319166001600160a01b0392909216919091179055565b3360009081526017602052604090205460ff16610d495760405162461bcd60e51b8152600401610a16906111ba565b600780546001600160a01b0319166001600160a01b0392909216919091179055565b3360009081526017602052604090205460ff16610d9a5760405162461bcd60e51b8152600401610a16906111ba565b600580546001600160a01b0319166001600160a01b0392909216919091179055565b3360009081526017602052604090205460ff16610deb5760405162461bcd60e51b8152600401610a16906111ba565b601280546001600160a01b0319166001600160a01b0392909216919091179055565b3360009081526017602052604090205460ff16610e3c5760405162461bcd60e51b8152600401610a16906111ba565b6001600160a01b03166000908152601760205260409020805460ff19166001179055565b3360009081526017602052604090205460ff16610e8f5760405162461bcd60e51b8152600401610a16906111ba565b601380546001600160a01b0319166001600160a01b0392909216919091179055565b3360009081526017602052604090205460ff16610ee05760405162461bcd60e51b8152600401610a16906111ba565b600280546001600160a01b0319166001600160a01b0392909216919091179055565b3360009081526017602052604090205460ff16610f315760405162461bcd60e51b8152600401610a16906111ba565b600c80546001600160a01b0319166001600160a01b0392909216919091179055565b3360009081526017602052604090205460ff16610f825760405162461bcd60e51b8152600401610a16906111ba565b600f80546001600160a01b0319166001600160a01b0392909216919091179055565b3360009081526017602052604090205460ff16610fd35760405162461bcd60e51b8152600401610a16906111ba565b600d80546001600160a01b0319166001600160a01b0392909216919091179055565b3360009081526017602052604090205460ff166110245760405162461bcd60e51b8152600401610a16906111ba565b600380546001600160a01b0319166001600160a01b0392909216919091179055565b3360009081526017602052604090205460ff166110755760405162461bcd60e51b8152600401610a16906111ba565b601480546001600160a01b0319166001600160a01b0392909216919091179055565b3360009081526017602052604090205460ff166110c65760405162461bcd60e51b8152600401610a16906111ba565b600080546001600160a01b0319166001600160a01b0392909216919091179055565b3360009081526017602052604090205460ff166111175760405162461bcd60e51b8152600401610a16906111ba565b600e80546001600160a01b0319166001600160a01b0392909216919091179055565b3360009081526017602052604090205460ff166111685760405162461bcd60e51b8152600401610a16906111ba565b600980546001600160a01b0319166001600160a01b0392909216919091179055565b60006020828403121561119c57600080fd5b81356001600160a01b03811681146111b357600080fd5b9392505050565b6020808252600d908201526c24b73b30b634b21037bbb732b960991b60408201526060019056fea2646970667358221220f9083b8879e5075b6711847413e8521800e94630223c98ef3452062bcd7cb1a364736f6c63430008140033","linkReferences":{}},"methodIdentifiers":{"addOwner(address)":"7065cb48","dao()":"4162169f","factoryprimeold()":"96239975","getAllAddresses1()":"28b3ab9c","getAllAddresses2()":"64d93c62","in741()":"ab6e844f","in741Old()":"447aa304","in741PrimeOld()":"447bf0e2","in741Rule()":"cfbffe53","inBackendPrime()":"7c27dd0c","inImportForgePrimeold()":"e7531fc0","inInstance()":"e61dfd58","inInstancePrime()":"af233190","inOrc1155()":"9a7c4077","inOrc1155Prime()":"d62bab34","inOrc1155machinebullold()":"a5b277f2","inPrice()":"d3d1b096","inPrimeClaimQueue()":"9f56383e","inPrimeData()":"01c0d48b","inTransferold()":"c5a90db1","inTreaseryTVLMining()":"aa0ddc16","inTreaseryTVLMiningPrime()":"6b4aefc6","inTreaseryTVLReward()":"64027427","inTreaseryTVLRoyality()":"30125cf5","inTreaseryTVLTour()":"24768d91","isOwner(address)":"2f54bf6e","safeguard()":"b57dbdc6","update741(address)":"aeb14020","update741Old(address)":"236b0402","update741PrimeOld(address)":"66658584","update741Rule(address)":"753e7d33","updateBackendPrime(address)":"242fca55","updateDAO(address)":"bcb6c0b5","updateImportForgePrimeold(address)":"74fad9f9","updateInstance(address)":"275424d0","updateInstancePrime(address)":"839a47a4","updateORC1155(address)":"313c5fdc","updateORC1155Prime(address)":"5f7ba561","updatePrice(address)":"96e85ced","updatePrimeClaimQueue(address)":"8852b1eb","updatePrimedata(address)":"d05a5651","updateSafeguard(address)":"1162a5b1","updateTreasuryTVLMining(address)":"130fba6d","updateTreasuryTVLMiningPrime(address)":"36c24c46","updateTreasuryTVLReward(address)":"05abae0d","updateTreasuryTVLRoyality(address)":"e2576819","updateTreasuryTVLTour(address)":"1b67970a","updatefactoryprimeold(address)":"23d02da2","updateinOrc1155machinebullold(address)":"0c46c9e9","updateinTransferold(address)":"b0788f84"},"id":0}