{"abi":[{"type":"constructor","inputs":[{"name":"_contractName","type":"string","internalType":"string"},{"name":"_uri","type":"string","internalType":"string"},{"name":"_fee","type":"uint256","internalType":"uint256"},{"name":"_supply","type":"uint256","internalType":"uint256"}],"stateMutability":"nonpayable"},{"type":"fallback","stateMutability":"payable"},{"type":"receive","stateMutability":"payable"},{"type":"function","name":"Burn","inputs":[{"name":"amount","type":"uint256","internalType":"uint256"}],"outputs":[],"stateMutability":"payable"},{"type":"function","name":"_computeDrawn","inputs":[{"name":"account","type":"address","internalType":"address"},{"name":"id","type":"uint256","internalType":"uint256"}],"outputs":[{"name":"transferable","type":"uint256","internalType":"uint256"}],"stateMutability":"view"},{"type":"function","name":"_computeMintNum","inputs":[{"name":"account","type":"address","internalType":"address"},{"name":"mintnum","type":"uint256","internalType":"uint256"}],"outputs":[{"name":"transferable","type":"uint256","internalType":"uint256"}],"stateMutability":"view"},{"type":"function","name":"_setOwner","inputs":[{"name":"user","type":"address","internalType":"address"}],"outputs":[],"stateMutability":"nonpayable"},{"type":"function","name":"addToken","inputs":[{"name":"_names","type":"string[]","internalType":"string[]"}],"outputs":[],"stateMutability":"nonpayable"},{"type":"function","name":"at","inputs":[{"name":"_addr","type":"address","internalType":"address"}],"outputs":[{"name":"o_code","type":"bytes","internalType":"bytes"}],"stateMutability":"view"},{"type":"function","name":"balanceOf","inputs":[{"name":"account","type":"address","internalType":"address"},{"name":"id","type":"uint256","internalType":"uint256"}],"outputs":[{"name":"","type":"uint256","internalType":"uint256"}],"stateMutability":"view"},{"type":"function","name":"balanceOfBatch","inputs":[{"name":"accounts","type":"address[]","internalType":"address[]"},{"name":"ids","type":"uint256[]","internalType":"uint256[]"}],"outputs":[{"name":"","type":"uint256[]","internalType":"uint256[]"}],"stateMutability":"view"},{"type":"function","name":"baseMetadataURI","inputs":[],"outputs":[{"name":"","type":"string","internalType":"string"}],"stateMutability":"view"},{"type":"function","name":"curSupply","inputs":[],"outputs":[{"name":"","type":"uint256","internalType":"uint256"}],"stateMutability":"view"},{"type":"function","name":"getAdd","inputs":[],"outputs":[{"name":"","type":"address","internalType":"address"}],"stateMutability":"view"},{"type":"function","name":"getBalance","inputs":[],"outputs":[{"name":"","type":"uint256","internalType":"uint256"}],"stateMutability":"view"},{"type":"function","name":"getMintInfo","inputs":[{"name":"account","type":"address","internalType":"address"},{"name":"mintnum","type":"uint256","internalType":"uint256"}],"outputs":[{"name":"amount","type":"uint256","internalType":"uint256"},{"name":"timestamp","type":"uint256","internalType":"uint256"},{"name":"claimed","type":"uint256","internalType":"uint256"},{"name":"value","type":"uint256","internalType":"uint256"},{"name":"mtype","type":"uint256","internalType":"uint256"}],"stateMutability":"view"},{"type":"function","name":"getNames","inputs":[{"name":"inx","type":"uint256","internalType":"uint256"}],"outputs":[{"name":"","type":"string","internalType":"string"}],"stateMutability":"view"},{"type":"function","name":"idToName","inputs":[{"name":"","type":"uint256","internalType":"uint256"}],"outputs":[{"name":"","type":"string","internalType":"string"}],"stateMutability":"view"},{"type":"function","name":"ids","inputs":[{"name":"","type":"uint256","internalType":"uint256"}],"outputs":[{"name":"","type":"uint256","internalType":"uint256"}],"stateMutability":"view"},{"type":"function","name":"isApprovedForAll","inputs":[{"name":"account","type":"address","internalType":"address"},{"name":"operator","type":"address","internalType":"address"}],"outputs":[{"name":"","type":"bool","internalType":"bool"}],"stateMutability":"view"},{"type":"function","name":"mint","inputs":[{"name":"account","type":"address","internalType":"address"},{"name":"_id","type":"uint256","internalType":"uint256"},{"name":"amount","type":"uint256","internalType":"uint256"},{"name":"_mintNum","type":"uint256","internalType":"uint256"},{"name":"_type","type":"uint256","internalType":"uint256"}],"outputs":[{"name":"","type":"uint256","internalType":"uint256"}],"stateMutability":"payable"},{"type":"function","name":"mintFee","inputs":[],"outputs":[{"name":"","type":"uint256","internalType":"uint256"}],"stateMutability":"view"},{"type":"function","name":"name","inputs":[],"outputs":[{"name":"","type":"string","internalType":"string"}],"stateMutability":"view"},{"type":"function","name":"nameToId","inputs":[{"name":"","type":"string","internalType":"string"}],"outputs":[{"name":"","type":"uint256","internalType":"uint256"}],"stateMutability":"view"},{"type":"function","name":"names","inputs":[{"name":"","type":"uint256","internalType":"uint256"}],"outputs":[{"name":"","type":"string","internalType":"string"}],"stateMutability":"view"},{"type":"function","name":"owner","inputs":[],"outputs":[{"name":"","type":"address","internalType":"address"}],"stateMutability":"view"},{"type":"function","name":"safeBatchTransferFrom","inputs":[{"name":"from","type":"address","internalType":"address"},{"name":"to","type":"address","internalType":"address"},{"name":"ids","type":"uint256[]","internalType":"uint256[]"},{"name":"values","type":"uint256[]","internalType":"uint256[]"},{"name":"data","type":"bytes","internalType":"bytes"}],"outputs":[],"stateMutability":"nonpayable"},{"type":"function","name":"safeTransferFrom","inputs":[{"name":"from","type":"address","internalType":"address"},{"name":"to","type":"address","internalType":"address"},{"name":"id","type":"uint256","internalType":"uint256"},{"name":"value","type":"uint256","internalType":"uint256"},{"name":"data","type":"bytes","internalType":"bytes"}],"outputs":[],"stateMutability":"nonpayable"},{"type":"function","name":"setApprovalForAll","inputs":[{"name":"operator","type":"address","internalType":"address"},{"name":"approved","type":"bool","internalType":"bool"}],"outputs":[],"stateMutability":"nonpayable"},{"type":"function","name":"setFee","inputs":[{"name":"_fee","type":"uint256","internalType":"uint256"}],"outputs":[],"stateMutability":"nonpayable"},{"type":"function","name":"setParam","inputs":[{"name":"s","type":"address","internalType":"address"},{"name":"r","type":"address","internalType":"address"},{"name":"m","type":"address","internalType":"address"},{"name":"f","type":"address","internalType":"address"},{"name":"cl","type":"address","internalType":"address"}],"outputs":[],"stateMutability":"nonpayable"},{"type":"function","name":"setURI","inputs":[{"name":"newuri","type":"string","internalType":"string"}],"outputs":[],"stateMutability":"nonpayable"},{"type":"function","name":"setsupply","inputs":[{"name":"_s","type":"uint256","internalType":"uint256"}],"outputs":[],"stateMutability":"nonpayable"},{"type":"function","name":"shutdown","inputs":[],"outputs":[{"name":"","type":"bool","internalType":"bool"}],"stateMutability":"view"},{"type":"function","name":"supportsInterface","inputs":[{"name":"interfaceId","type":"bytes4","internalType":"bytes4"}],"outputs":[{"name":"","type":"bool","internalType":"bool"}],"stateMutability":"view"},{"type":"function","name":"totSupply","inputs":[],"outputs":[{"name":"","type":"uint256","internalType":"uint256"}],"stateMutability":"view"},{"type":"function","name":"uri","inputs":[{"name":"_tokenid","type":"uint256","internalType":"uint256"}],"outputs":[{"name":"","type":"string","internalType":"string"}],"stateMutability":"view"},{"type":"function","name":"withdraw","inputs":[{"name":"amount","type":"uint256","internalType":"uint256"}],"outputs":[],"stateMutability":"payable"},{"type":"event","name":"ApprovalForAll","inputs":[{"name":"account","type":"address","indexed":true,"internalType":"address"},{"name":"operator","type":"address","indexed":true,"internalType":"address"},{"name":"approved","type":"bool","indexed":false,"internalType":"bool"}],"anonymous":false},{"type":"event","name":"TransferBatch","inputs":[{"name":"operator","type":"address","indexed":true,"internalType":"address"},{"name":"from","type":"address","indexed":true,"internalType":"address"},{"name":"to","type":"address","indexed":true,"internalType":"address"},{"name":"ids","type":"uint256[]","indexed":false,"internalType":"uint256[]"},{"name":"values","type":"uint256[]","indexed":false,"internalType":"uint256[]"}],"anonymous":false},{"type":"event","name":"TransferSingle","inputs":[{"name":"operator","type":"address","indexed":true,"internalType":"address"},{"name":"from","type":"address","indexed":true,"internalType":"address"},{"name":"to","type":"address","indexed":true,"internalType":"address"},{"name":"id","type":"uint256","indexed":false,"internalType":"uint256"},{"name":"value","type":"uint256","indexed":false,"internalType":"uint256"}],"anonymous":false},{"type":"event","name":"URI","inputs":[{"name":"value","type":"string","indexed":false,"internalType":"string"},{"name":"id","type":"uint256","indexed":true,"internalType":"uint256"}],"anonymous":false},{"type":"error","name":"ERC1155InsufficientBalance","inputs":[{"name":"sender","type":"address","internalType":"address"},{"name":"balance","type":"uint256","internalType":"uint256"},{"name":"needed","type":"uint256","internalType":"uint256"},{"name":"tokenId","type":"uint256","internalType":"uint256"}]},{"type":"error","name":"ERC1155InvalidApprover","inputs":[{"name":"approver","type":"address","internalType":"address"}]},{"type":"error","name":"ERC1155InvalidArrayLength","inputs":[{"name":"idsLength","type":"uint256","internalType":"uint256"},{"name":"valuesLength","type":"uint256","internalType":"uint256"}]},{"type":"error","name":"ERC1155InvalidOperator","inputs":[{"name":"operator","type":"address","internalType":"address"}]},{"type":"error","name":"ERC1155InvalidReceiver","inputs":[{"name":"receiver","type":"address","internalType":"address"}]},{"type":"error","name":"ERC1155InvalidSender","inputs":[{"name":"sender","type":"address","internalType":"address"}]},{"type":"error","name":"ERC1155MissingApprovalForAll","inputs":[{"name":"operator","type":"address","internalType":"address"},{"name":"owner","type":"address","internalType":"address"}]}],"bytecode":{"object":"0x6080604052600380546001600160a01b0319908116734ba1c6ce515736036d50303827b36c5266241ca31790915560048054821673902e066c1a020558509bbc139a943ac3290a39c517905560058054821673845d9685b4b17e261d7bd9395ab0fc50a1833d0b17905560068054821673a2c6cc8e283b6572fb210ae94afb762f5d28f45c17905560078054821673c3cc31756cd35552ca0289e77f02c92bfe03a436179055600880548216733c3f4530595d75d194c9b071e307c404297aae7d17905560098054821673225f8b54006e04239d3ba378a132393109f4fac3179055600a805490911673f73b2a6f34bad8fd50d57feebdc4d44ad64b18201790555f601481905560158190556016553480156200011a575f80fd5b506040516200348e3803806200348e8339810160408190526200013d916200033e565b8262000149816200019a565b50600b80546001600160a01b031916321790556200016783620001ac565b600e6200017584826200043f565b50600f6200018485826200043f565b506014919091556015555050426013556200052f565b6002620001a882826200043f565b5050565b6003546040516319c0642960e01b81523360048201819052916001600160a01b0316906319c0642990602401602060405180830381865afa158015620001f4573d5f803e3d5ffd5b505050506040513d601f19601f820116820180604052508101906200021a919062000507565b80620002335750600b546001600160a01b038281169116145b620002755760405162461bcd60e51b815260206004820152600e60248201526d24b73b30b634b21039b2b73232b960911b604482015260640160405180910390fd5b620001a8826200019a565b634e487b7160e01b5f52604160045260245ffd5b5f82601f830112620002a4575f80fd5b81516001600160401b0380821115620002c157620002c162000280565b604051601f8301601f19908116603f01168101908282118183101715620002ec57620002ec62000280565b8160405283815260209250868385880101111562000308575f80fd5b5f91505b838210156200032b57858201830151818301840152908201906200030c565b5f93810190920192909252949350505050565b5f805f806080858703121562000352575f80fd5b84516001600160401b038082111562000369575f80fd5b620003778883890162000294565b955060208701519150808211156200038d575f80fd5b506200039c8782880162000294565b604087015160609097015195989097509350505050565b600181811c90821680620003c857607f821691505b602082108103620003e757634e487b7160e01b5f52602260045260245ffd5b50919050565b601f8211156200043a575f81815260208120601f850160051c81016020861015620004155750805b601f850160051c820191505b81811015620004365782815560010162000421565b5050505b505050565b81516001600160401b038111156200045b576200045b62000280565b62000473816200046c8454620003b3565b84620003ed565b602080601f831160018114620004a9575f8415620004915750858301515b5f19600386901b1c1916600185901b17855562000436565b5f85815260208120601f198616915b82811015620004d957888601518255948401946001909101908401620004b8565b5085821015620004f757878501515f19600388901b60f8161c191681555b5050505050600190811b01905550565b5f6020828403121562000518575f80fd5b8151801515811462000528575f80fd5b9392505050565b612f51806200053d5f395ff3fe6080604052600436106101ee575f3560e01c806369fe0e2d1161010b578063d878fe1011610099578063f6d8f2cb1161006b578063f6d8f2cb146105f4578063f92883a21461062b578063fac333ac1461063e578063fc0e74d11461065d578063fc2011221461067657005b8063d878fe1014610578578063dce4a44714610597578063e985e9c5146105b6578063f242432a146105d557005b8063abbbf8d7116100dd578063abbbf8d7146104eb578063ad6d3d711461050a578063b075182314610529578063b90306ad14610548578063d14d42ba1461055b57005b806369fe0e2d1461046757806381fbf0a5146104865780638da5cb5b1461049b578063a22cb465146104cc57005b80632eb2c2d6116101885780634622ab031161015a5780634622ab03146103d45780634e1273f4146103f35780635718e17b1461041f5780635b2bd79e1461043e5780635fac2d9d1461045257005b80632eb2c2d6146102f15780633481767b14610310578063364410b31461039657806343edbaed146103b557005b80630e89341c116101c15780630e89341c1461029857806312065fe0146102b757806313966db5146102c95780632e1a7d4d146102de57005b8062fdd58e146101f757806301ffc9a71461022957806302fe53051461025857806306fdde031461027757005b366101f557005b005b348015610202575f80fd5b5061021661021136600461246c565b610695565b6040519081526020015b60405180910390f35b348015610234575f80fd5b506102486102433660046124ab565b6106bc565b6040519015158152602001610220565b348015610263575f80fd5b506101f561027236600461257e565b61070b565b348015610282575f80fd5b5061028b6107c0565b60405161022091906125fd565b3480156102a3575f80fd5b5061028b6102b236600461260f565b61084c565b3480156102c2575f80fd5b5047610216565b3480156102d4575f80fd5b5061021660145481565b6101f56102ec36600461260f565b610880565b3480156102fc575f80fd5b506101f561030b3660046126a6565b6108db565b34801561031b575f80fd5b5061036e61032a36600461246c565b6001600160a01b03919091165f9081526017602090815260408083209383529290522060018101546002820154600383015483546004909401549294919390929091565b604080519586526020860194909452928401919091526060830152608082015260a001610220565b3480156103a1575f80fd5b5061028b6103b036600461260f565b610942565b3480156103c0575f80fd5b506102166103cf36600461246c565b61095a565b3480156103df575f80fd5b5061028b6103ee36600461260f565b610a30565b3480156103fe575f80fd5b5061041261040d36600461274d565b610a57565b6040516102209190612842565b34801561042a575f80fd5b5061028b61043936600461260f565b610b2a565b348015610449575f80fd5b5061028b610bd5565b34801561045d575f80fd5b5061021660165481565b348015610472575f80fd5b506101f561048136600461260f565b610be2565b348015610491575f80fd5b5061021660155481565b3480156104a6575f80fd5b50600b546001600160a01b03165b6040516001600160a01b039091168152602001610220565b3480156104d7575f80fd5b506101f56104e6366004612861565b610c87565b3480156104f6575f80fd5b506101f5610505366004612898565b610c92565b348015610515575f80fd5b5061021661052436600461246c565b610ea2565b348015610534575f80fd5b506101f5610543366004612943565b6111b9565b6101f561055636600461260f565b611330565b348015610566575f80fd5b506003546001600160a01b03166104b4565b348015610583575f80fd5b506101f561059236600461260f565b61135a565b3480156105a2575f80fd5b5061028b6105b13660046129b0565b6113ff565b3480156105c1575f80fd5b506102486105d03660046129cb565b61141a565b3480156105e0575f80fd5b506101f56105ef3660046129f7565b611447565b3480156105ff575f80fd5b5061021661060e36600461257e565b805160208183018101805160118252928201919093012091525481565b610216610639366004612a5b565b6114a6565b348015610649575f80fd5b5061021661065836600461260f565b6116f8565b348015610668575f80fd5b506010546102489060ff1681565b348015610681575f80fd5b506101f56106903660046129b0565b611717565b5f818152602081815260408083206001600160a01b03861684529091529020545b92915050565b5f6001600160e01b03198216636cdb3d1360e11b14806106ec57506001600160e01b031982166303a24d0760e21b145b806106b657506301ffc9a760e01b6001600160e01b03198316146106b6565b6003546040516319c0642960e01b81523360048201819052916001600160a01b0316906319c0642990602401602060405180830381865afa158015610752573d5f803e3d5ffd5b505050506040513d601f19601f820116820180604052508101906107769190612a9b565b8061078e5750600b546001600160a01b038281169116145b6107b35760405162461bcd60e51b81526004016107aa90612ab6565b60405180910390fd5b6107bc826117c1565b5050565b600f80546107cd90612ade565b80601f01602080910402602001604051908101604052809291908181526020018280546107f990612ade565b80156108445780601f1061081b57610100808354040283529160200191610844565b820191905f5260205f20905b81548152906001019060200180831161082757829003601f168201915b505050505081565b6060600e610859836117cd565b60405160200161086a929190612b16565b6040516020818303038152906040529050919050565b600b5432906001600160a01b031681146108ac5760405162461bcd60e51b81526004016107aa90612ab6565b604051329083156108fc029084905f818181858888f193505050501580156108d6573d5f803e3d5ffd5b505050565b336001600160a01b03861681148015906108fc57506108fa868261141a565b155b1561092d5760405163711bec9160e11b81526001600160a01b038083166004830152871660248201526044016107aa565b61093a868686868661185d565b505050505050565b60126020525f9081526040902080546107cd90612ade565b5f806109668484610695565b1161097257505f6106b6565b6001600160a01b0383165f9081526018602090815260408083208584528252808320805482518185028101850190935280835291929091908301828280156109d757602002820191905f5260205f20905b8154815260200190600101908083116109c3575b505050505090505f5b8151811015610a2857610a0c858383815181106109ff576109ff612ba9565b6020026020010151610ea2565b610a169084612bd1565b9250610a2181612be4565b90506109e0565b505092915050565b600c8181548110610a3f575f80fd5b905f5260205f20015f9150905080546107cd90612ade565b60608151835114610a885781518351604051635b05999160e01b8152600481019290925260248201526044016107aa565b5f835167ffffffffffffffff811115610aa357610aa36124cd565b604051908082528060200260200182016040528015610acc578160200160208202803683370190505b5090505f5b8451811015610b2257602080820286010151610af590602080840287010151610695565b828281518110610b0757610b07612ba9565b6020908102919091010152610b1b81612be4565b9050610ad1565b509392505050565b6060600c8281548110610b3f57610b3f612ba9565b905f5260205f20018054610b5290612ade565b80601f0160208091040260200160405190810160405280929190818152602001828054610b7e90612ade565b8015610bc95780601f10610ba057610100808354040283529160200191610bc9565b820191905f5260205f20905b815481529060010190602001808311610bac57829003601f168201915b50505050509050919050565b600e80546107cd90612ade565b6003546040516319c0642960e01b81523360048201819052916001600160a01b0316906319c0642990602401602060405180830381865afa158015610c29573d5f803e3d5ffd5b505050506040513d601f19601f82011682018060405250810190610c4d9190612a9b565b80610c655750600b546001600160a01b038281169116145b610c815760405162461bcd60e51b81526004016107aa90612ab6565b50601455565b6107bc3383836118c2565b6003546040516319c0642960e01b81523360048201819052916001600160a01b0316906319c0642990602401602060405180830381865afa158015610cd9573d5f803e3d5ffd5b505050506040513d601f19601f82011682018060405250810190610cfd9190612a9b565b80610d155750600b546001600160a01b038281169116145b610d315760405162461bcd60e51b81526004016107aa90612ab6565b5f5b82518110156108d6576011838281518110610d5057610d50612ba9565b6020026020010151604051610d659190612bfc565b9081526020016040518091039020545f14610db15760405162461bcd60e51b815260206004820152600c60248201526b1d1bdad95b8819985a5b195960a21b60448201526064016107aa565b600d8054610dc0906001612bd1565b81546001810183555f928352602090922090910155600d548351601190859084908110610def57610def612ba9565b6020026020010151604051610e049190612bfc565b908152602001604051809103902081905550828181518110610e2857610e28612ba9565b602002602001015160125f600d8054905081526020019081526020015f209081610e529190612c5c565b50600c838281518110610e6757610e67612ba9565b60209081029190910181015182546001810184555f938452919092200190610e8f9082612c5c565b5080610e9a81612be4565b915050610d33565b6001600160a01b0382165f90815260176020908152604080832084845290915281206003810154600182015403610ede576001015490506106b6565b8060040154600103610ffb576005546040516345145fd760e01b81526001600160a01b0386811660048301529091169063017501529082906345145fd790602401602060405180830381865afa158015610f3a573d5f803e3d5ffd5b505050506040513d601f19601f82011682018060405250810190610f5e9190612d18565b6040516001600160e01b031960e084901b1681526001600160a01b039091166004820152602401602060405180830381865afa158015610fa0573d5f803e3d5ffd5b505050506040513d601f19601f82011682018060405250810190610fc49190612a9b565b610ffb5760405162461bcd60e51b8152602060048201526008602482015267696e61637469766560c01b60448201526064016107aa565b8060040154600203611118576006546040516345145fd760e01b81526001600160a01b0386811660048301529091169063017501529082906345145fd790602401602060405180830381865afa158015611057573d5f803e3d5ffd5b505050506040513d601f19601f8201168201806040525081019061107b9190612d18565b6040516001600160e01b031960e084901b1681526001600160a01b039091166004820152602401602060405180830381865afa1580156110bd573d5f803e3d5ffd5b505050506040513d601f19601f820116820180604052508101906110e19190612a9b565b6111185760405162461bcd60e51b8152602060048201526008602482015267696e61637469766560c01b60448201526064016107aa565b6003810154600480546040805163fc0e74d160e01b815290516001600160a01b039092169263fc0e74d19282820192602092908290030181865afa158015611162573d5f803e3d5ffd5b505050506040513d601f19601f820116820180604052508101906111869190612a9b565b6111a15761119c82600201548360010154611956565b6111a7565b81600101545b6111b19190612d33565b949350505050565b60035f9054906101000a90046001600160a01b03166001600160a01b0316636a276f9d6040518163ffffffff1660e01b8152600401602060405180830381865afa158015611209573d5f803e3d5ffd5b505050506040513d601f19601f8201168201806040525081019061122d9190612a9b565b6112495760405162461bcd60e51b81526004016107aa90612ab6565b6003546040516319c0642960e01b81523360048201819052916001600160a01b0316906319c0642990602401602060405180830381865afa158015611290573d5f803e3d5ffd5b505050506040513d601f19601f820116820180604052508101906112b49190612a9b565b6112d05760405162461bcd60e51b81526004016107aa90612ab6565b50600380546001600160a01b03199081166001600160a01b03978816179091556004805482169587169590951790945560058054851693861693909317909255600a80548416918516919091179055600980549092169216919091179055565b6040515f9082156108fc0290839083818181858288f193505050501580156107bc573d5f803e3d5ffd5b6003546040516319c0642960e01b81523360048201819052916001600160a01b0316906319c0642990602401602060405180830381865afa1580156113a1573d5f803e3d5ffd5b505050506040513d601f19601f820116820180604052508101906113c59190612a9b565b806113dd5750600b546001600160a01b038281169116145b6113f95760405162461bcd60e51b81526004016107aa90612ab6565b50601555565b606061140a82611a92565b60405160200161086a9190612d46565b6001600160a01b039182165f90815260016020908152604080832093909416825291909152205460ff1690565b336001600160a01b03861681148015906114685750611466868261141a565b155b156114995760405163711bec9160e11b81526001600160a01b038083166004830152871660248201526044016107aa565b61093a8686868686611abf565b5f836016546114b59190612bd1565b60155410156114f35760405162461bcd60e51b815260206004820152600a6024820152691bdd995c881b1a5b5a5d60b21b60448201526064016107aa565b81600114806115025750816002145b61153c5760405162461bcd60e51b815260206004820152600b60248201526a1c995d995c9d081b5a5b9d60aa1b60448201526064016107aa565b5f6014548561154b9190612dd4565b9050826001036115bc5760055460405163c4cf0e3f60e01b815233600482015260248101839052604481018790526001600160a01b039091169063c4cf0e3f906064015f604051808303815f87803b1580156115a5575f80fd5b505af11580156115b7573d5f803e3d5ffd5b505050505b8260020361162b5760065460405163c4cf0e3f60e01b815233600482015260248101839052604481018790526001600160a01b039091169063c4cf0e3f906064015f604051808303815f87803b158015611614575f80fd5b505af1158015611626573d5f803e3d5ffd5b505050505b61164587878760405180602001604052805f815250611b4b565b6040805160a0810182528281526020808201888152428385019081525f60608501818152608086018a81526001600160a01b038f16808452601787528884208d85528752888420975188559451600180890191909155935160028801559051600387015551600490950194909455908352601882528383208a845282529282208054938401815582528120909101859055601680548792906116e8908490612bd1565b9091555090979650505050505050565b600d8181548110611707575f80fd5b5f91825260209091200154905081565b6003546040516319c0642960e01b81523360048201819052916001600160a01b0316906319c0642990602401602060405180830381865afa15801561175e573d5f803e3d5ffd5b505050506040513d601f19601f820116820180604052508101906117829190612a9b565b61179e5760405162461bcd60e51b81526004016107aa90612ab6565b50600b80546001600160a01b0319166001600160a01b0392909216919091179055565b60026107bc8282612c5c565b60605f6117d983611ba6565b60010190505f8167ffffffffffffffff8111156117f8576117f86124cd565b6040519080825280601f01601f191660200182016040528015611822576020820181803683370190505b5090508181016020015b5f19016f181899199a1a9b1b9c1cb0b131b232b360811b600a86061a8153600a850494508461182c57509392505050565b6001600160a01b03841661188657604051632bfa23e760e11b81525f60048201526024016107aa565b6001600160a01b0385166118ae57604051626a0d4560e21b81525f60048201526024016107aa565b6118bb8585858585611c7d565b5050505050565b6001600160a01b0382166118ea5760405162ced3e160e81b81525f60048201526024016107aa565b6001600160a01b038381165f81815260016020908152604080832094871680845294825291829020805460ff191686151590811790915591519182527f17307eab39ab6107e8899845ad3d59bd9653f200f220920489ca2b5937696c31910160405180910390a3505050565b5f805f805f60045f9054906101000a90046001600160a01b03166001600160a01b0316635a0e90386040518163ffffffff1660e01b8152600401608060405180830381865afa1580156119ab573d5f803e3d5ffd5b505050506040513d601f19601f820116820180604052508101906119cf9190612deb565b93509350935093506119e5878786868686611cd0565b6119ef9086612bd1565b945060045f9054906101000a90046001600160a01b03166001600160a01b031663b85f1f8d6040518163ffffffff1660e01b8152600401608060405180830381865afa158015611a41573d5f803e3d5ffd5b505050506040513d601f19601f82011682018060405250810190611a659190612deb565b92965090945092509050611a7d878786868686611cd0565b611a879086612bd1565b979650505050505050565b6060816001600160a01b0316803b806020016040519081016040528181525f908060200190933c92915050565b6001600160a01b038416611ae857604051632bfa23e760e11b81525f60048201526024016107aa565b6001600160a01b038516611b1057604051626a0d4560e21b81525f60048201526024016107aa565b60408051600180825260208201869052818301908152606082018590526080820190925290611b428787848487611c7d565b50505050505050565b6001600160a01b038416611b7457604051632bfa23e760e11b81525f60048201526024016107aa565b6040805160018082526020820186905281830190815260608201859052608082019092529061093a5f87848487611c7d565b5f8072184f03e93ff9f4daa797ed6e38ed64bf6a1f0160401b8310611be45772184f03e93ff9f4daa797ed6e38ed64bf6a1f0160401b830492506040015b6d04ee2d6d415b85acef81000000008310611c10576d04ee2d6d415b85acef8100000000830492506020015b662386f26fc100008310611c2e57662386f26fc10000830492506010015b6305f5e1008310611c46576305f5e100830492506008015b6127108310611c5a57612710830492506004015b60648310611c6c576064830492506002015b600a83106106b65760010192915050565b611c8985858585611da7565b6001600160a01b038416156118bb5782513390600103611cc25760208481015190840151611cbb838989858589612035565b505061093a565b61093a818787878787612156565b5f80611cdc8842612d33565b9050611ceb8462015180612dd4565b811115611d9c575f611d008562015180612dd4565b611d0d8662015180612dd4565b611d179084612d33565b611d219190612e1e565b611d2c906001612bd1565b90505f611d3c8662015180612dd4565b611d498662015180612dd4565b611d539190612e1e565b905080821115611d61578091505b611d6c876064612dd4565b82611d778a8c612dd4565b611d819190612dd4565b611d8b9190612e1e565b935088841115611d99578893505b50505b509695505050505050565b6001600160a01b03841615801590611dc757506001600160a01b03831615155b15612023575f815f81518110611ddf57611ddf612ba9565b6020026020010151611e0a86855f81518110611dfd57611dfd612ba9565b6020026020010151610695565b1015611e625760405162461bcd60e51b815260206004820152602160248201527f5472616e73666572206e6f7420617070726f76656420666f7220616d6f756e746044820152607360f81b60648201526084016107aa565b6001600160a01b0385165f9081526018602052604081208451829086908290611e8d57611e8d612ba9565b602002602001015181526020019081526020015f20805480602002602001604051908101604052809291908181526020018280548015611eea57602002820191905f5260205f20905b815481526020019060010190808311611ed6575b505050505090505f8151111561202057825f81518110611f0c57611f0c612ba9565b602002602001015191505f5b8151811015611fc0575f611f38888484815181106109ff576109ff612ba9565b90508015611faf57611f4a8185612d33565b93508060175f8a6001600160a01b03166001600160a01b031681526020019081526020015f205f858581518110611f8357611f83612ba9565b602002602001015181526020019081526020015f206003015f828254611fa99190612bd1565b90915550505b50611fb981612be4565b9050611f18565b5081156120205760405162461bcd60e51b815260206004820152602860248201527f5472616e7366657220616d6f756e74206578636565647320756e6c6f636b65646044820152672062616c616e636560c01b60648201526084016107aa565b50505b61202f8484848461223d565b50505050565b6001600160a01b0384163b1561093a5760405163f23a6e6160e01b81526001600160a01b0385169063f23a6e61906120799089908990889088908890600401612e3d565b6020604051808303815f875af19250505080156120b3575060408051601f3d908101601f191682019092526120b091810190612e76565b60015b61211a573d8080156120e0576040519150601f19603f3d011682016040523d82523d5f602084013e6120e5565b606091505b5080515f0361211257604051632bfa23e760e11b81526001600160a01b03861660048201526024016107aa565b805181602001fd5b6001600160e01b0319811663f23a6e6160e01b14611b4257604051632bfa23e760e11b81526001600160a01b03861660048201526024016107aa565b6001600160a01b0384163b1561093a5760405163bc197c8160e01b81526001600160a01b0385169063bc197c819061219a9089908990889088908890600401612e91565b6020604051808303815f875af19250505080156121d4575060408051601f3d908101601f191682019092526121d191810190612e76565b60015b612201573d8080156120e0576040519150601f19603f3d011682016040523d82523d5f602084013e6120e5565b6001600160e01b0319811663bc197c8160e01b14611b4257604051632bfa23e760e11b81526001600160a01b03861660048201526024016107aa565b805182511461226c5781518151604051635b05999160e01b8152600481019290925260248201526044016107aa565b335f5b8351811015612377576020818102858101820151908501909101516001600160a01b03881615612320575f828152602081815260408083206001600160a01b038c168452909152902054818110156122fa576040516303dee4c560e01b81526001600160a01b038a1660048201526024810182905260448101839052606481018490526084016107aa565b5f838152602081815260408083206001600160a01b038d16845290915290209082900390555b6001600160a01b03871615612364575f828152602081815260408083206001600160a01b038b1684529091528120805483929061235e908490612bd1565b90915550505b50508061237090612be4565b905061226f565b5082516001036123f75760208301515f906020840151909150856001600160a01b0316876001600160a01b0316846001600160a01b03167fc3d58168c5ae7397731d063d5bbf3d657854427343f4c083240f7aacaa2d0f6285856040516123e8929190918252602082015260400190565b60405180910390a450506118bb565b836001600160a01b0316856001600160a01b0316826001600160a01b03167f4a39dc06d4c0dbc64b70af90fd698a233a518aa5d07e595d983b8c0526c8f7fb8686604051612446929190612eee565b60405180910390a45050505050565b6001600160a01b0381168114612469575f80fd5b50565b5f806040838503121561247d575f80fd5b823561248881612455565b946020939093013593505050565b6001600160e01b031981168114612469575f80fd5b5f602082840312156124bb575f80fd5b81356124c681612496565b9392505050565b634e487b7160e01b5f52604160045260245ffd5b604051601f8201601f1916810167ffffffffffffffff8111828210171561250a5761250a6124cd565b604052919050565b5f82601f830112612521575f80fd5b813567ffffffffffffffff81111561253b5761253b6124cd565b61254e601f8201601f19166020016124e1565b818152846020838601011115612562575f80fd5b816020850160208301375f918101602001919091529392505050565b5f6020828403121561258e575f80fd5b813567ffffffffffffffff8111156125a4575f80fd5b6111b184828501612512565b5f5b838110156125ca5781810151838201526020016125b2565b50505f910152565b5f81518084526125e98160208601602086016125b0565b601f01601f19169290920160200192915050565b602081525f6124c660208301846125d2565b5f6020828403121561261f575f80fd5b5035919050565b5f67ffffffffffffffff82111561263f5761263f6124cd565b5060051b60200190565b5f82601f830112612658575f80fd5b8135602061266d61266883612626565b6124e1565b82815260059290921b8401810191818101908684111561268b575f80fd5b8286015b84811015611d9c578035835291830191830161268f565b5f805f805f60a086880312156126ba575f80fd5b85356126c581612455565b945060208601356126d581612455565b9350604086013567ffffffffffffffff808211156126f1575f80fd5b6126fd89838a01612649565b94506060880135915080821115612712575f80fd5b61271e89838a01612649565b93506080880135915080821115612733575f80fd5b5061274088828901612512565b9150509295509295909350565b5f806040838503121561275e575f80fd5b823567ffffffffffffffff80821115612775575f80fd5b818501915085601f830112612788575f80fd5b8135602061279861266883612626565b82815260059290921b840181019181810190898411156127b6575f80fd5b948201945b838610156127dd5785356127ce81612455565b825294820194908201906127bb565b965050860135925050808211156127f2575f80fd5b506127ff85828601612649565b9150509250929050565b5f8151808452602080850194508084015f5b838110156128375781518752958201959082019060010161281b565b509495945050505050565b602081525f6124c66020830184612809565b8015158114612469575f80fd5b5f8060408385031215612872575f80fd5b823561287d81612455565b9150602083013561288d81612854565b809150509250929050565b5f60208083850312156128a9575f80fd5b823567ffffffffffffffff808211156128c0575f80fd5b818501915085601f8301126128d3575f80fd5b81356128e161266882612626565b81815260059190911b830184019084810190888311156128ff575f80fd5b8585015b838110156129365780358581111561291a575f8081fd5b6129288b89838a0101612512565b845250918601918601612903565b5098975050505050505050565b5f805f805f60a08688031215612957575f80fd5b853561296281612455565b9450602086013561297281612455565b9350604086013561298281612455565b9250606086013561299281612455565b915060808601356129a281612455565b809150509295509295909350565b5f602082840312156129c0575f80fd5b81356124c681612455565b5f80604083850312156129dc575f80fd5b82356129e781612455565b9150602083013561288d81612455565b5f805f805f60a08688031215612a0b575f80fd5b8535612a1681612455565b94506020860135612a2681612455565b93506040860135925060608601359150608086013567ffffffffffffffff811115612a4f575f80fd5b61274088828901612512565b5f805f805f60a08688031215612a6f575f80fd5b8535612a7a81612455565b97602087013597506040870135966060810135965060800135945092505050565b5f60208284031215612aab575f80fd5b81516124c681612854565b6020808252600e908201526d24b73b30b634b21039b2b73232b960911b604082015260600190565b600181811c90821680612af257607f821691505b602082108103612b1057634e487b7160e01b5f52602260045260245ffd5b50919050565b5f808454612b2381612ade565b60018281168015612b3b5760018114612b5057612b7c565b60ff1984168752821515830287019450612b7c565b885f526020805f205f5b85811015612b735781548a820152908401908201612b5a565b50505082870194505b505050508351612b908183602088016125b0565b64173539b7b760d91b9101908152600501949350505050565b634e487b7160e01b5f52603260045260245ffd5b634e487b7160e01b5f52601160045260245ffd5b808201808211156106b6576106b6612bbd565b5f60018201612bf557612bf5612bbd565b5060010190565b5f8251612c0d8184602087016125b0565b9190910192915050565b601f8211156108d6575f81815260208120601f850160051c81016020861015612c3d5750805b601f850160051c820191505b8181101561093a57828155600101612c49565b815167ffffffffffffffff811115612c7657612c766124cd565b612c8a81612c848454612ade565b84612c17565b602080601f831160018114612cbd575f8415612ca65750858301515b5f19600386901b1c1916600185901b17855561093a565b5f85815260208120601f198616915b82811015612ceb57888601518255948401946001909101908401612ccc565b5085821015612d0857878501515f19600388901b60f8161c191681555b5050505050600190811b01905550565b5f60208284031215612d28575f80fd5b81516124c681612455565b818103818111156106b6576106b6612bbd565b5f8251612d578184602087016125b0565b730468e8dc225c4746454419c9dcccb59a581434b160631b92019182525073d416952dc46fce2775e90571d46a79565d04cb2560601b602082015273094c37fb9b5b2065409a5c7cb9bff71c4d49bf4160601b604082015273fe69687ce9c746c10e1c2af1e3f5d1475df4300f60601b6060820152607401919050565b80820281158282048414176106b6576106b6612bbd565b5f805f8060808587031215612dfe575f80fd5b505082516020840151604085015160609095015191969095509092509050565b5f82612e3857634e487b7160e01b5f52601260045260245ffd5b500490565b6001600160a01b03868116825285166020820152604081018490526060810183905260a0608082018190525f90611a87908301846125d2565b5f60208284031215612e86575f80fd5b81516124c681612496565b6001600160a01b0386811682528516602082015260a0604082018190525f90612ebc90830186612809565b8281036060840152612ece8186612809565b90508281036080840152612ee281856125d2565b98975050505050505050565b604081525f612f006040830185612809565b8281036020840152612f128185612809565b9594505050505056fea264697066735822122045757255684cad12d3ed8ef414830e60c47c0b0402f6773d7e15cb1f5c7c112d64736f6c63430008140033","linkReferences":{}},"methodIdentifiers":{"Burn(uint256)":"b90306ad","_computeDrawn(address,uint256)":"43edbaed","_computeMintNum(address,uint256)":"ad6d3d71","_setOwner(address)":"fc201122","addToken(string[])":"abbbf8d7","at(address)":"dce4a447","balanceOf(address,uint256)":"00fdd58e","balanceOfBatch(address[],uint256[])":"4e1273f4","baseMetadataURI()":"5b2bd79e","curSupply()":"5fac2d9d","getAdd()":"d14d42ba","getBalance()":"12065fe0","getMintInfo(address,uint256)":"3481767b","getNames(uint256)":"5718e17b","idToName(uint256)":"364410b3","ids(uint256)":"fac333ac","isApprovedForAll(address,address)":"e985e9c5","mint(address,uint256,uint256,uint256,uint256)":"f92883a2","mintFee()":"13966db5","name()":"06fdde03","nameToId(string)":"f6d8f2cb","names(uint256)":"4622ab03","owner()":"8da5cb5b","safeBatchTransferFrom(address,address,uint256[],uint256[],bytes)":"2eb2c2d6","safeTransferFrom(address,address,uint256,uint256,bytes)":"f242432a","setApprovalForAll(address,bool)":"a22cb465","setFee(uint256)":"69fe0e2d","setParam(address,address,address,address,address)":"b0751823","setURI(string)":"02fe5305","setsupply(uint256)":"d878fe10","shutdown()":"fc0e74d1","supportsInterface(bytes4)":"01ffc9a7","totSupply()":"81fbf0a5","uri(uint256)":"0e89341c","withdraw(uint256)":"2e1a7d4d"},"id":19}