{"abi":[{"type":"constructor","inputs":[{"name":"_usdt","type":"address","internalType":"address"},{"name":"_liquidity","type":"address","internalType":"address"},{"name":"_expenses","type":"address","internalType":"address"},{"name":"_depositAmount","type":"uint256","internalType":"uint256"}],"stateMutability":"nonpayable"},{"type":"function","name":"deposit","inputs":[],"outputs":[],"stateMutability":"nonpayable"},{"type":"function","name":"depositAmount","inputs":[],"outputs":[{"name":"","type":"uint256","internalType":"uint256"}],"stateMutability":"view"},{"type":"function","name":"depositCounter","inputs":[],"outputs":[{"name":"","type":"uint256","internalType":"uint256"}],"stateMutability":"view"},{"type":"function","name":"expenses","inputs":[],"outputs":[{"name":"","type":"address","internalType":"contract ExpensesVault"}],"stateMutability":"view"},{"type":"function","name":"liquidity","inputs":[],"outputs":[{"name":"","type":"address","internalType":"contract LiquidityVault"}],"stateMutability":"view"},{"type":"function","name":"liquidityPercent","inputs":[],"outputs":[{"name":"","type":"uint256","internalType":"uint256"}],"stateMutability":"view"},{"type":"function","name":"owner","inputs":[],"outputs":[{"name":"","type":"address","internalType":"address"}],"stateMutability":"view"},{"type":"function","name":"renounceOwnership","inputs":[],"outputs":[],"stateMutability":"nonpayable"},{"type":"function","name":"setDepositAmount","inputs":[{"name":"newAmount","type":"uint256","internalType":"uint256"}],"outputs":[],"stateMutability":"nonpayable"},{"type":"function","name":"setLiquidityPercent","inputs":[{"name":"newPercent","type":"uint256","internalType":"uint256"}],"outputs":[],"stateMutability":"nonpayable"},{"type":"function","name":"transferOwnership","inputs":[{"name":"newOwner","type":"address","internalType":"address"}],"outputs":[],"stateMutability":"nonpayable"},{"type":"function","name":"usdt","inputs":[],"outputs":[{"name":"","type":"address","internalType":"contract IERC20"}],"stateMutability":"view"},{"type":"event","name":"DepositAmountUpdated","inputs":[{"name":"oldAmount","type":"uint256","indexed":false,"internalType":"uint256"},{"name":"newAmount","type":"uint256","indexed":false,"internalType":"uint256"}],"anonymous":false},{"type":"event","name":"Deposited","inputs":[{"name":"user","type":"address","indexed":true,"internalType":"address"},{"name":"amount","type":"uint256","indexed":false,"internalType":"uint256"},{"name":"depositId","type":"uint256","indexed":false,"internalType":"uint256"}],"anonymous":false},{"type":"event","name":"LiquidityPercentUpdated","inputs":[{"name":"oldPercent","type":"uint256","indexed":false,"internalType":"uint256"},{"name":"newPercent","type":"uint256","indexed":false,"internalType":"uint256"}],"anonymous":false},{"type":"event","name":"OwnershipTransferred","inputs":[{"name":"previousOwner","type":"address","indexed":true,"internalType":"address"},{"name":"newOwner","type":"address","indexed":true,"internalType":"address"}],"anonymous":false},{"type":"error","name":"InvalidAmount","inputs":[]},{"type":"error","name":"InvalidExpenses","inputs":[]},{"type":"error","name":"InvalidLiquidity","inputs":[]},{"type":"error","name":"InvalidPercent","inputs":[]},{"type":"error","name":"InvalidUsdt","inputs":[]},{"type":"error","name":"OwnableInvalidOwner","inputs":[{"name":"owner","type":"address","internalType":"address"}]},{"type":"error","name":"OwnableUnauthorizedAccount","inputs":[{"name":"account","type":"address","internalType":"address"}]},{"type":"error","name":"ReentrancyGuardReentrantCall","inputs":[]},{"type":"error","name":"SafeERC20FailedOperation","inputs":[{"name":"token","type":"address","internalType":"address"}]}],"bytecode":{"object":"0x60e03461018a57601f6107dd38819003918201601f191683019291906001600160401b0384118385101761018f57816080928492604096875283398101031261018a5761004b816101a5565b90610058602082016101a5565b9060606100668583016101a5565b9101519233156101725760008054336001600160a01b03198216811783558751956001600160a01b0394909385939192918416907f8be0079c531659141344cd1fd0a4f28419497f9722a3daafe3b4186f6b6457e09080a3600180556032600455169384156101635750811691821561015257169182156101415783156101305760805260a05260c0526002555161062390816101ba82396080518181816101e70152610407015260a051818181610216015261044b015260c05181818161015a01526102400152f35b845163162908e360e11b8152600490fd5b84516303816c2760e51b8152600490fd5b8551631fff968160e01b8152600490fd5b63161c508b60e11b8152600490fd5b8451631e4fbdf760e01b815260006004820152602490fd5b600080fd5b634e487b7160e01b600052604160045260246000fd5b51906001600160a01b038216820361018a5756fe60406080815260048036101561001457600080fd5b600091823560e01c80631a3f0cda1461047a5780631a686502146104365780632f48ab7d146103f2578063419759f5146103d35780636d8cee561461036a578063715018a61461031f5780638da5cb5b146102f7578063b0683755146102d9578063d0e30db014610189578063e4c5676c14610145578063ecb3dc88146101225763f2fde38b146100a457600080fd5b3461011e57602036600319011261011e576001600160a01b0382358181169391929084900361011a576100d56104e1565b831561010457505082546001600160a01b0319811683178455166000805160206105ce8339815191528380a380f35b51631e4fbdf760e01b8152908101849052602490fd5b8480fd5b8280fd5b8382346101415781600319360112610141576020906003549051908152f35b5080fd5b838234610141578160031936011261014157517f00000000000000000000000000000000000000000000000000000000000000006001600160a01b03168152602090f35b508290346101415781600319360112610141576002600154146102ca57600260015560035460001981146102b75760010160035560025483548082029082820414821517156102a457606490048082039182116102a45761026891907f0000000000000000000000000000000000000000000000000000000000000000906001600160a01b039061023e907f00000000000000000000000000000000000000000000000000000000000000008316338561050d565b7f00000000000000000000000000000000000000000000000000000000000000001690339061050d565b7f73a19dd210f1a7f902193214c0ee91dd35ee5b4d920cba8d519eca65a7b488ca60025491600354815193845260208401523392a26001805580f35b634e487b7160e01b845260118552602484fd5b634e487b7160e01b835260118452602483fd5b51633ee5aeb560e01b81529050fd5b50903461011e578260031936011261011e5760209250549051908152f35b838234610141578160031936011261014157905490516001600160a01b039091168152602090f35b83346103675780600319360112610367576103386104e1565b80546001600160a01b03198116825581906001600160a01b03166000805160206105ce8339815191528280a380f35b80fd5b503461011e57602036600319011261011e578135916103876104e1565b82156103c557507ffd021327d6433ee8f1950add99a55088902b53a5fdccc8efe490fbd38fe87059906002548151908152836020820152a160025580f35b905163162908e360e11b8152fd5b8382346101415781600319360112610141576020906002549051908152f35b838234610141578160031936011261014157517f00000000000000000000000000000000000000000000000000000000000000006001600160a01b03168152602090f35b838234610141578160031936011261014157517f00000000000000000000000000000000000000000000000000000000000000006001600160a01b03168152602090f35b50903461011e57602036600319011261011e578035916104986104e1565b606483116104d4577f6b530d67c68996304afb6db44f6d94d53daa1b4e09eb4a7f94ecfd990f2927759082548151908152846020820152a15580f35b51635c974e3d60e11b8152fd5b6000546001600160a01b031633036104f557565b60405163118cdaa760e01b8152336004820152602490fd5b6040516323b872dd60e01b602082019081526001600160a01b039384166024830152938316604482015260648082019590955293845292909160a08201906001600160401b038211838310176105b757602092600092604052519082865af1156105ab576000513d6105a257508082163b155b610588575050565b604051635274afe760e01b81529116600482015260249150fd5b60011415610580565b6040513d6000823e3d90fd5b634e487b7160e01b600052604160045260246000fdfe8be0079c531659141344cd1fd0a4f28419497f9722a3daafe3b4186f6b6457e0a26469706673582212207bc52e619d2b10214713e5071c64f4c7bba5d70074eb2b02970dfe4367036b5764736f6c63430008140033","linkReferences":{}},"methodIdentifiers":{"deposit()":"d0e30db0","depositAmount()":"419759f5","depositCounter()":"ecb3dc88","expenses()":"e4c5676c","liquidity()":"1a686502","liquidityPercent()":"b0683755","owner()":"8da5cb5b","renounceOwnership()":"715018a6","setDepositAmount(uint256)":"6d8cee56","setLiquidityPercent(uint256)":"1a3f0cda","transferOwnership(address)":"f2fde38b","usdt()":"2f48ab7d"},"id":88}