{"abi":[{"type":"function","name":"deployBatch","inputs":[{"name":"parent","type":"address","internalType":"address"}],"outputs":[{"name":"in741RulePrime","type":"address","internalType":"address"},{"name":"in741Prime","type":"address","internalType":"address"},{"name":"inTreaseryTVLMiningPrime","type":"address","internalType":"address"}],"stateMutability":"nonpayable"}],"bytecode":{"object":"0x608060405234801561001057600080fd5b5061559b806100206000396000f3fe608060405234801561001057600080fd5b506004361061002b5760003560e01c8063c9994e7714610030575b600080fd5b61004361003e366004610154565b61006e565b604080516001600160a01b039485168152928416602084015292168183015290519081900360600190f35b6000806000836040516100809061012d565b6001600160a01b039091168152602001604051809103906000f0801580156100ac573d6000803e3d6000fd5b509250836040516100bc9061013a565b6001600160a01b039091168152602001604051809103906000f0801580156100e8573d6000803e3d6000fd5b509150836040516100f890610147565b6001600160a01b039091168152602001604051809103906000f080158015610124573d6000803e3d6000fd5b50929491935050565b61232a8061018583390190565b611e6e806124af83390190565b6112498061431d83390190565b60006020828403121561016657600080fd5b81356001600160a01b038116811461017d57600080fd5b939250505056fe6080604052601e60125560026013556103e86014556002601555671bc16d674ec80000601655678ac7230489e80000601755680d8d726b7177a80000601855670de0b6b3a76400006019556007601a556005601b5534801561006057600080fd5b506040516200232a3803806200232a833981016040819052610081916101a0565b600180546001600160a01b03199081168255600080549091166001600160a01b03939093169290921782556040805160e081018252600280825260646020808401829052838501869052600a6060808601829052608080870185905260a08088018a90526103e860c0988901819052968055600386905560048a8155600585905560069690965560078a90556008969096558751808301895260198082528186018590526078918a01829052600955838055600b55875180830189528381528085018a9052610168908901819052600c93909355600d98909855600e919091558551948501865290840187905293830186905292820185905292810184905291820192909252819052600f556010805464ffffffffff191690556101d0565b6000602082840312156101b257600080fd5b81516001600160a01b03811681146101c957600080fd5b9392505050565b61214a80620001e06000396000f3fe6080604052600436106102275760003560e01c80638da9367f11610122578063c32cfa99116100a5578063e0a9bc2b1161006c578063e0a9bc2b1461070c578063edcf972114610721578063eddd0d9c14610737578063f54a77c814610757578063fc0e74d11461076d57005b8063c32cfa991461068a578063c54e44b0146106a0578063c776fdd7146106c0578063db2d8b26146106d6578063e01ad5fd146106ec57005b8063af0b21d3116100e9578063af0b21d314610600578063af48452614610616578063b252fbe114610636578063b85f1f8d1461064b578063b90306ad1461066a57005b80638da9367f1461056b5780638e7ee0581461058b578063a1f7f539146105ab578063a371dfda146105c0578063ace71f48146105e057005b806351bfd3ae116101aa5780637687e371116101715780637687e371146104b95780637b76180a146104d957806381f00153146104f95780638c62d086146105195780638da5cb5b1461053957005b806351bfd3ae146103a25780635640dbfc146103c25780635a0e90381461043f5780635eac8225146104795780636b81c82f1461049957005b8063203bab66116101ee578063203bab6614610316578063223c0f01146103365780633f43be121461035657806345e8fefd1461036c5780634b62954f1461038257005b80630b225f1a1461023057806312065fe01461025957806316f0115b1461026c57806318a7d283146102d05780631f185d16146102e657005b3661022e57005b005b34801561023c57600080fd5b50610246601b5481565b6040519081526020015b60405180910390f35b34801561026557600080fd5b5047610246565b34801561027857600080fd5b5060025460035460045460055460065460075460085461029b9695949392919087565b604080519788526020880196909652948601939093526060850191909152608084015260a083015260c082015260e001610250565b3480156102dc57600080fd5b5061024660195481565b3480156102f257600080fd5b50610306610301366004611e4d565b610787565b6040519015158152602001610250565b34801561032257600080fd5b5061022e610331366004611e6a565b61085b565b34801561034257600080fd5b5061022e610351366004611eb6565b610983565b34801561036257600080fd5b50610246601a5481565b34801561037857600080fd5b5061024660165481565b34801561038e57600080fd5b5061022e61039d366004611ecf565b610a2e565b3480156103ae57600080fd5b506103066103bd366004611e4d565b610acc565b3480156103ce57600080fd5b50600f54601054610408919060ff808216916101008104821691620100008204811691630100000081048216916401000000009091041686565b60408051968752941515602087015292151593850193909352151560608401529015156080830152151560a082015260c001610250565b34801561044b57600080fd5b50600954600a54600b5461045e92919083565b60408051938452602084019290925290820152606001610250565b34801561048557600080fd5b50610246610494366004611eb6565b610c68565b3480156104a557600080fd5b5061022e6104b4366004611ef1565b610c7f565b3480156104c557600080fd5b5061022e6104d4366004611f31565b610d8b565b3480156104e557600080fd5b5061022e6104f4366004611eb6565b610e31565b34801561050557600080fd5b5061022e610514366004611eb6565b610ec9565b34801561052557600080fd5b5061022e610534366004611f4e565b610f74565b34801561054557600080fd5b506001546001600160a01b03165b6040516001600160a01b039091168152602001610250565b34801561057757600080fd5b5061022e610586366004611eb6565b6110a2565b34801561059757600080fd5b5061022e6105a6366004611eb6565b61113a565b3480156105b757600080fd5b506102466111e5565b3480156105cc57600080fd5b5061022e6105db366004611eb6565b611391565b3480156105ec57600080fd5b5061022e6105fb366004611eb6565b611429565b34801561060c57600080fd5b5061024660125481565b34801561062257600080fd5b50610306610631366004611e4d565b6114c1565b34801561064257600080fd5b5061024661157f565b34801561065757600080fd5b50600c54600d54600e5461045e92919083565b34801561067657600080fd5b5061022e610685366004611eb6565b611661565b34801561069657600080fd5b5061024660145481565b3480156106ac57600080fd5b506105536106bb366004611e4d565b611725565b3480156106cc57600080fd5b5061024660155481565b3480156106e257600080fd5b5061024660185481565b3480156106f857600080fd5b50610306610707366004611e4d565b6117a5565b34801561071857600080fd5b50610306611a85565b34801561072d57600080fd5b5061024660175481565b34801561074357600080fd5b5061022e610752366004611eb6565b611b30565b34801561076357600080fd5b5061024660135481565b34801561077957600080fd5b506011546103069060ff1681565b600080546040805163af0deb9560e01b81529051610855926001600160a01b03169163af0deb959160048083019260209291908290030181865afa1580156107d3573d6000803e3d6000fd5b505050506040513d601f19601f820116820180604052508101906107f79190611fc7565b6040518060400160405280601181526020017069735369676e657228616464726573732960781b8152508460405160200161084191906001600160a01b0391909116815260200190565b604051602081830303815290604052611bdb565b92915050565b60005460408051634162169f60e01b8152905133926001600160a01b031691634162169f9160048083019260209291908290030181865afa1580156108a4573d6000803e3d6000fd5b505050506040513d601f19601f820116820180604052508101906108c89190611fc7565b6001600160a01b0316146108f75760405162461bcd60e51b81526004016108ee90611fe4565b60405180910390fd5b6109376040518060e00160405280600081526020016000815260200160008152602001600081526020016000815260200160008152602001600081525090565b8781526020810187905260408101869052606081018590526080810184905260a0810183905260c001819052600296909655600394909455600492909255600555600655600755600855565b60005460408051634162169f60e01b8152905133926001600160a01b031691634162169f9160048083019260209291908290030181865afa1580156109cc573d6000803e3d6000fd5b505050506040513d601f19601f820116820180604052508101906109f09190611fc7565b6001600160a01b031614610a165760405162461bcd60e51b81526004016108ee90611fe4565b610a2881670de0b6b3a7640000612023565b60185550565b60005460408051634162169f60e01b8152905133926001600160a01b031691634162169f9160048083019260209291908290030181865afa158015610a77573d6000803e3d6000fd5b505050506040513d601f19601f82011682018060405250810190610a9b9190611fc7565b6001600160a01b031614610ac15760405162461bcd60e51b81526004016108ee90611fe4565b601391909155601455565b600080610ba760008054906101000a90046001600160a01b03166001600160a01b031663a66bcbe26040518163ffffffff1660e01b8152600401602060405180830381865afa158015610b23573d6000803e3d6000fd5b505050506040513d601f19601f82011682018060405250810190610b479190611fc7565b6040518060400160405280601381526020017255736572546f496e737428616464726573732960681b81525085604051602001610b9391906001600160a01b0391909116815260200190565b604051602081830303815290604052611c22565b90506000806001600160a01b0316826001600160a01b0316141590506000610c02836040518060400160405280600b81526020016a697353757370656e64282960a81b81525060405180602001604052806000815250611bdb565b90506000610c40846040518060400160405280600881526020016769734c6f636b282960c01b81525060405180602001604052806000815250611bdb565b9050821580610c5e5750818015610c545750805b8015610c5e575082155b9695505050505050565b601654600090610c788382612023565b9392505050565b60005460408051634162169f60e01b8152905133926001600160a01b031691634162169f9160048083019260209291908290030181865afa158015610cc8573d6000803e3d6000fd5b505050506040513d601f19601f82011682018060405250810190610cec9190611fc7565b6001600160a01b031614610d125760405162461bcd60e51b81526004016108ee90611fe4565b610d3660405180606001604052806000815260200160008152602001600081525090565b83815260208101839052604081018290526001859003610d665780516009556020810151600a556040810151600b555b84600203610d84578051600c556020810151600d556040810151600e555b5050505050565b60005460408051634162169f60e01b8152905133926001600160a01b031691634162169f9160048083019260209291908290030181865afa158015610dd4573d6000803e3d6000fd5b505050506040513d601f19601f82011682018060405250810190610df89190611fc7565b6001600160a01b031614610e1e5760405162461bcd60e51b81526004016108ee90611fe4565b6011805460ff1916911515919091179055565b60005460408051634162169f60e01b8152905133926001600160a01b031691634162169f9160048083019260209291908290030181865afa158015610e7a573d6000803e3d6000fd5b505050506040513d601f19601f82011682018060405250810190610e9e9190611fc7565b6001600160a01b031614610ec45760405162461bcd60e51b81526004016108ee90611fe4565b601555565b60005460408051634162169f60e01b8152905133926001600160a01b031691634162169f9160048083019260209291908290030181865afa158015610f12573d6000803e3d6000fd5b505050506040513d601f19601f82011682018060405250810190610f369190611fc7565b6001600160a01b031614610f5c5760405162461bcd60e51b81526004016108ee90611fe4565b610f6e81670de0b6b3a7640000612023565b60195550565b60005460408051634162169f60e01b8152905133926001600160a01b031691634162169f9160048083019260209291908290030181865afa158015610fbd573d6000803e3d6000fd5b505050506040513d601f19601f82011682018060405250810190610fe19190611fc7565b6001600160a01b0316146110075760405162461bcd60e51b81526004016108ee90611fe4565b6040805160c08101825287815295151560208701819052941515908601819052921515606086018190529115156080860181905290151560a0909501859052600f959095556010805461ffff191661ff0019909416939093176101009092029190911763ffff000019166201000090910263ff00000019161763010000009093029290921764ff000000001916640100000000909102179055565b60005460408051634162169f60e01b8152905133926001600160a01b031691634162169f9160048083019260209291908290030181865afa1580156110eb573d6000803e3d6000fd5b505050506040513d601f19601f8201168201806040525081019061110f9190611fc7565b6001600160a01b0316146111355760405162461bcd60e51b81526004016108ee90611fe4565b601b55565b60005460408051634162169f60e01b8152905133926001600160a01b031691634162169f9160048083019260209291908290030181865afa158015611183573d6000803e3d6000fd5b505050506040513d601f19601f820116820180604052508101906111a79190611fc7565b6001600160a01b0316146111cd5760405162461bcd60e51b81526004016108ee90611fe4565b6111df81670de0b6b3a7640000612023565b60175550565b60008061129a60008054906101000a90046001600160a01b03166001600160a01b031663e1f4cd246040518163ffffffff1660e01b8152600401602060405180830381865afa15801561123c573d6000803e3d6000fd5b505050506040513d601f19601f820116820180604052508101906112609190611fc7565b6040518060400160405280600c81526020016b72616e6b666f7244414f282960a01b81525060405180602001604052806000815250611c5d565b9050600061137d60008054906101000a90046001600160a01b03166001600160a01b031663ab6e844f6040518163ffffffff1660e01b8152600401602060405180830381865afa1580156112f2573d6000803e3d6000fd5b505050506040513d601f19601f820116820180604052508101906113169190611fc7565b6040518060400160405280601d81526020017f67657472616e6b636f756e742875696e743235362c75696e7432353629000000815250611354611c98565b60408051602081019290925281018690526060015b604051602081830303815290604052611c5d565b905061138a81600361203a565b9250505090565b60005460408051634162169f60e01b8152905133926001600160a01b031691634162169f9160048083019260209291908290030181865afa1580156113da573d6000803e3d6000fd5b505050506040513d601f19601f820116820180604052508101906113fe9190611fc7565b6001600160a01b0316146114245760405162461bcd60e51b81526004016108ee90611fe4565b601255565b60005460408051634162169f60e01b8152905133926001600160a01b031691634162169f9160048083019260209291908290030181865afa158015611472573d6000803e3d6000fd5b505050506040513d601f19601f820116820180604052508101906114969190611fc7565b6001600160a01b0316146114bc5760405162461bcd60e51b81526004016108ee90611fe4565b601a55565b600080546040805163af0deb9560e01b81529051610855926001600160a01b03169163af0deb959160048083019260209291908290030181865afa15801561150d573d6000803e3d6000fd5b505050506040513d601f19601f820116820180604052508101906115319190611fc7565b6040518060400160405280601581526020017469735365637572654261736528616464726573732960581b8152508460405160200161084191906001600160a01b0391909116815260200190565b60008061163860008054906101000a90046001600160a01b03166001600160a01b031663d3d1b0966040518163ffffffff1660e01b8152600401602060405180830381865afa1580156115d6573d6000803e3d6000fd5b505050506040513d601f19601f820116820180604052508101906115fa9190611fc7565b60408051808201825260128152716f7a6f6e655072696365496e55534454282960701b60208083019190915282516000815290810190925290611c5d565b905080601754670de0b6b3a76400006116519190612023565b61165b919061204d565b91505090565b60005460408051634162169f60e01b8152905133926001600160a01b031691634162169f9160048083019260209291908290030181865afa1580156116aa573d6000803e3d6000fd5b505050506040513d601f19601f820116820180604052508101906116ce9190611fc7565b6001600160a01b0316146116f45760405162461bcd60e51b81526004016108ee90611fe4565b60405160009082156108fc0290839083818181858288f19350505050158015611721573d6000803e3d6000fd5b5050565b600080826001600160a01b0316803b806020016040519081016040528181526000908060200190933c9050602d815110156117985760405162461bcd60e51b81526020600482015260136024820152724e6f742061206d696e696d616c2070726f787960681b60448201526064016108ee565b602a015160601c92915050565b6000806117fc60008054906101000a90046001600160a01b03166001600160a01b031663e1f4cd246040518163ffffffff1660e01b8152600401602060405180830381865afa15801561123c573d6000803e3d6000fd5b905060006118c460008054906101000a90046001600160a01b03166001600160a01b031663ab6e844f6040518163ffffffff1660e01b8152600401602060405180830381865afa158015611854573d6000803e3d6000fd5b505050506040513d601f19601f820116820180604052508101906118789190611fc7565b6040518060400160405280601381526020017255736572546f496e737428616464726573732960681b81525086604051602001610b9391906001600160a01b0391909116815260200190565b9050600061199660008054906101000a90046001600160a01b03166001600160a01b031663ab6e844f6040518163ffffffff1660e01b8152600401602060405180830381865afa15801561191c573d6000803e3d6000fd5b505050506040513d601f19601f820116820180604052508101906119409190611fc7565b6040518060400160405280601981526020017f67657445666665637469766552616e6b286164647265737329000000000000008152508460405160200161136991906001600160a01b0391909116815260200190565b90506000611a5a60008054906101000a90046001600160a01b03166001600160a01b031663ab6e844f6040518163ffffffff1660e01b8152600401602060405180830381865afa1580156119ee573d6000803e3d6000fd5b505050506040513d601f19601f82011682018060405250810190611a129190611fc7565b6040518060400160405280600f81526020016e697353746f7028616464726573732960881b8152508560405160200161084191906001600160a01b0391909116815260200190565b90506001600160a01b03831615801590611a745750838210155b8015610c5e57501595945050505050565b600080546040805163af0deb9560e01b81529051611b2b926001600160a01b03169163af0deb959160048083019260209291908290030181865afa158015611ad1573d6000803e3d6000fd5b505050506040513d601f19601f82011682018060405250810190611af59190611fc7565b60405180604001604052806008815260200167697353616665282960c01b81525060405180602001604052806000815250611bdb565b905090565b60005460408051634162169f60e01b8152905133926001600160a01b031691634162169f9160048083019260209291908290030181865afa158015611b79573d6000803e3d6000fd5b505050506040513d601f19601f82011682018060405250810190611b9d9190611fc7565b6001600160a01b031614611bc35760405162461bcd60e51b81526004016108ee90611fe4565b611bd581670de0b6b3a7640000612023565b60165550565b6000806000611beb868686611d3b565b91509150818015611bfd575080516020145b15611c195780806020019051810190611c16919061206f565b92505b50509392505050565b6000806000611c32868686611d3b565b91509150818015611c44575080516020145b15611c195780806020019051810190611c169190611fc7565b6000806000611c6d868686611d3b565b91509150818015611c7f575080516020145b15611c195780806020019051810190611c16919061208c565b600080546040805163223df87160e11b81529051611b2b926001600160a01b03169163447bf0e29160048083019260209291908290030181865afa158015611ce4573d6000803e3d6000fd5b505050506040513d601f19601f82011682018060405250810190611d089190611fc7565b60405180604001604052806005815260200164616765282960d81b81525060405180602001604052806000815250611c5d565b60006060846001600160a01b03163b600003611d695750506040805160208101909152600080825290611e2d565b604080516004815260248101918290526001600160a01b03871691611d8f9087906120c9565b60405180910390206001600160e01b0319166020820180516001600160e01b03838183161783525050505084604051602001611dcc9291906120e5565b60408051601f1981840301815290829052611de6916120c9565b600060405180830381855afa9150503d8060008114611e21576040519150601f19603f3d011682016040523d82523d6000602084013e611e26565b606091505b5090925090505b935093915050565b6001600160a01b0381168114611e4a57600080fd5b50565b600060208284031215611e5f57600080fd5b8135610c7881611e35565b600080600080600080600060e0888a031215611e8557600080fd5b505085359760208701359750604087013596606081013596506080810135955060a0810135945060c0013592509050565b600060208284031215611ec857600080fd5b5035919050565b60008060408385031215611ee257600080fd5b50508035926020909101359150565b60008060008060808587031215611f0757600080fd5b5050823594602084013594506040840135936060013592509050565b8015158114611e4a57600080fd5b600060208284031215611f4357600080fd5b8135610c7881611f23565b60008060008060008060c08789031215611f6757600080fd5b863595506020870135611f7981611f23565b94506040870135611f8981611f23565b93506060870135611f9981611f23565b92506080870135611fa981611f23565b915060a0870135611fb981611f23565b809150509295509295509295565b600060208284031215611fd957600080fd5b8151610c7881611e35565b6020808252600f908201526e6f776e2e6e6f6e617574682e44414f60881b604082015260600190565b634e487b7160e01b600052601160045260246000fd5b80820281158282048414176108555761085561200d565b808201808211156108555761085561200d565b60008261206a57634e487b7160e01b600052601260045260246000fd5b500490565b60006020828403121561208157600080fd5b8151610c7881611f23565b60006020828403121561209e57600080fd5b5051919050565b60005b838110156120c05781810151838201526020016120a8565b50506000910152565b600082516120db8184602087016120a5565b9190910192915050565b600083516120f78184602088016120a5565b83519083019061210b8183602088016120a5565b0194935050505056fea2646970667358221220f931e4af52cfb0b9303b20eb0b05da918dab6fb8eb94ade722e8831a83b1828d64736f6c63430008140033608060405234801561001057600080fd5b50604051611e6e380380611e6e83398101604081905261002f91610060565b600180546001600160a01b0319908116909155600080546001600160a01b0390931692909116919091179055610090565b60006020828403121561007257600080fd5b81516001600160a01b038116811461008957600080fd5b9392505050565b611dcf8061009f6000396000f3fe60806040526004361061015b5760003560e01c8063629d671e116100c8578063af48452611610084578063c54e44b011610061578063c54e44b0146104d1578063c60c1ec6146104f1578063e01ad5fd14610526578063e0a9bc2b1461054657005b8063af48452614610471578063b90306ad14610491578063c4cf0e3f146104b157005b8063629d671e146103bc578063896c354a146103e95780638da5cb5b146104095780638f3a4f9414610427578063965c90e31461043c578063a1f7f5391461045c57005b806345ac4bc61161011757806345ac4bc61461029757806345ca1257146102b75780634f0f4aa9146102e7578063509222cd1461034f57806351bfd3ae1461038757806361ea7208146103a757005b806312065fe014610164578063175724f6146101865780631f185d16146101b6578063419cb27b146101e657806342cc9d571461021957806345145fd71461024957005b3661016257005b005b34801561017057600080fd5b50475b6040519081526020015b60405180910390f35b34801561019257600080fd5b506101736101a1366004611b75565b60009081526005602052604090206002015490565b3480156101c257600080fd5b506101d66101d1366004611ba6565b61055b565b604051901515815260200161017d565b3480156101f257600080fd5b506101d6610201366004611b75565b60009081526005602052604090206001015460ff1690565b34801561022557600080fd5b50610173610234366004611b75565b60009081526005602052604090206003015490565b34801561025557600080fd5b5061027f610264366004611ba6565b6002602052600090815260409020546001600160a01b031681565b6040516001600160a01b03909116815260200161017d565b3480156102a357600080fd5b506101736102b2366004611bca565b61062f565b3480156102c357600080fd5b506101736102d2366004611b75565b60009081526005602052604090206004015490565b3480156102f357600080fd5b5061032d610302366004611b75565b6000908152600560205260409020805460028201546006830154600190930154919390929160ff1690565b604080519485526020850193909352918301521515606082015260800161017d565b34801561035b57600080fd5b506101d661036a366004611ba6565b6001600160a01b0316600090815260036020526040902054151590565b34801561039357600080fd5b506101d66103a2366004611ba6565b61083e565b3480156103b357600080fd5b50600454610173565b3480156103c857600080fd5b506101736103d7366004611ba6565b60036020526000908152604090205481565b3480156103f557600080fd5b50610173610404366004611c1b565b6109da565b34801561041557600080fd5b506001546001600160a01b031661027f565b34801561043357600080fd5b50610162610a10565b34801561044857600080fd5b5061027f610457366004611b75565b610c61565b34801561046857600080fd5b50610173610c91565b34801561047d57600080fd5b506101d661048c366004611ba6565b610e3d565b34801561049d57600080fd5b506101626104ac366004611b75565b610efb565b3480156104bd57600080fd5b506101626104cc366004611c3d565b610fbf565b3480156104dd57600080fd5b5061027f6104ec366004611ba6565b6112a0565b3480156104fd57600080fd5b5061051161050c366004611c1b565b611320565b6040805192835260208301919091520161017d565b34801561053257600080fd5b506101d6610541366004611ba6565b61138e565b34801561055257600080fd5b506101d661166e565b600080546040805163af0deb9560e01b81529051610629926001600160a01b03169163af0deb959160048083019260209291908290030181865afa1580156105a7573d6000803e3d6000fd5b505050506040513d601f19601f820116820180604052508101906105cb9190611c72565b6040518060400160405280601181526020017069735369676e657228616464726573732960781b8152508460405160200161061591906001600160a01b0391909116815260200190565b604051602081830303815290604052611719565b92915050565b600061063961166e565b61067f5760405162461bcd60e51b81526020600482015260126024820152716f776e2e696e76616c69642e69735361666560701b60448201526064015b60405180910390fd5b61068833610e3d565b80610706575060005460408051634162169f60e01b8152905133926001600160a01b031691634162169f9160048083019260209291908290030181865afa1580156106d7573d6000803e3d6000fd5b505050506040513d601f19601f820116820180604052508101906106fb9190611c72565b6001600160a01b0316145b6107225760405162461bcd60e51b815260040161067690611c8f565b6001600160a01b038316600090815260036020526040902054156107805760405162461bcd60e51b81526020600482015260156024820152746e65737465642e616c72656164792e65786973747360581b6044820152606401610676565b6001600160a01b03838116600081815260026020908152604080832080546001600160a01b03199081168b881617909155600480546001810182557f8a35acfbc15ff81a39ae7d344fd709f28e8600b4aa8c65c6b64bfe7fe36bd19b018054909216909517905592546003909152828220819055928816815220546108058183611760565b506001600160a01b0384166000908152600360209081526040808320849055838352600590915290206006018390559050949350505050565b60008061091960008054906101000a90046001600160a01b03166001600160a01b031663a66bcbe26040518163ffffffff1660e01b8152600401602060405180830381865afa158015610895573d6000803e3d6000fd5b505050506040513d601f19601f820116820180604052508101906108b99190611c72565b6040518060400160405280601381526020017255736572546f496e737428616464726573732960681b8152508560405160200161090591906001600160a01b0391909116815260200190565b604051602081830303815290604052611902565b90506000806001600160a01b0316826001600160a01b0316141590506000610974836040518060400160405280600b81526020016a697353757370656e64282960a81b81525060405180602001604052806000815250611719565b905060006109b2846040518060400160405280600881526020016769734c6f636b282960c01b81525060405180602001604052806000815250611719565b90508215806109d057508180156109c65750805b80156109d0575082155b9695505050505050565b60008281526005602052604081206003018054839081106109fd576109fd611cb8565b9060005260206000200154905092915050565b6000805460405163013cf08b60e01b815260048101839052329291610adb916001600160a01b039091169063013cf08b90602401602060405180830381865afa158015610a61573d6000803e3d6000fd5b505050506040513d601f19601f82011682018060405250810190610a859190611c72565b6040518060400160405280601e81526020017f7265736f6c76655472616e7366657254617267657428616464726573732900008152508460405160200161090591906001600160a01b0391909116815260200190565b90506001600160a01b038116610b335760405162461bcd60e51b815260206004820152601e60248201527f6e65737465642e757064617465557365727328307830292e6661696c656400006044820152606401610676565b6001600160a01b03811660009081526003602052604090205415158015610b8b5750816001600160a01b0316816001600160a01b03161480610b8b57506001600160a01b038216600090815260036020526040902054155b610bd75760405162461bcd60e51b815260206004820152601860248201527f6e65737465642e6e6f746578697374732e696e76616c696400000000000000006044820152606401610676565b816001600160a01b0316816001600160a01b031614610bf7576000610c11565b6001600160a01b0381166000908152600360205260409020545b6001600160a01b03928316600081815260036020908152604080832094909455939094168452600290925280832080546001600160a01b0319908116909155918352909120805490911633179055565b600060048281548110610c7657610c76611cb8565b6000918252602090912001546001600160a01b031692915050565b600080610d4660008054906101000a90046001600160a01b03166001600160a01b031663e1f4cd246040518163ffffffff1660e01b8152600401602060405180830381865afa158015610ce8573d6000803e3d6000fd5b505050506040513d601f19601f82011682018060405250810190610d0c9190611c72565b6040518060400160405280600c81526020016b72616e6b666f7244414f282960a01b8152506040518060200160405280600081525061193d565b90506000610e2960008054906101000a90046001600160a01b03166001600160a01b031663ab6e844f6040518163ffffffff1660e01b8152600401602060405180830381865afa158015610d9e573d6000803e3d6000fd5b505050506040513d601f19601f82011682018060405250810190610dc29190611c72565b6040518060400160405280601d81526020017f67657472616e6b636f756e742875696e743235362c75696e7432353629000000815250610e00611978565b60408051602081019290925281018690526060015b60405160208183030381529060405261193d565b9050610e36816003611cce565b9250505090565b600080546040805163af0deb9560e01b81529051610629926001600160a01b03169163af0deb959160048083019260209291908290030181865afa158015610e89573d6000803e3d6000fd5b505050506040513d601f19601f82011682018060405250810190610ead9190611c72565b6040518060400160405280601581526020017469735365637572654261736528616464726573732960581b8152508460405160200161061591906001600160a01b0391909116815260200190565b60005460408051634162169f60e01b8152905133926001600160a01b031691634162169f9160048083019260209291908290030181865afa158015610f44573d6000803e3d6000fd5b505050506040513d601f19601f82011682018060405250810190610f689190611c72565b6001600160a01b031614610f8e5760405162461bcd60e51b815260040161067690611c8f565b60405160009082156108fc0290839083818181858288f19350505050158015610fbb573d6000803e3d6000fd5b5050565b610fc761166e565b6110085760405162461bcd60e51b81526020600482015260126024820152716f776e2e696e76616c69642e69735361666560701b6044820152606401610676565b61101133610e3d565b8061108f575060005460408051634162169f60e01b8152905133926001600160a01b031691634162169f9160048083019260209291908290030181865afa158015611060573d6000803e3d6000fd5b505050506040513d601f19601f820116820180604052508101906110849190611c72565b6001600160a01b0316145b6110ab5760405162461bcd60e51b815260040161067690611c8f565b6001600160a01b0383166000908152600360205260409020546111085760405162461bcd60e51b81526020600482015260156024820152746e65737465642e757365722e6e6f7465786973747360581b6044820152606401610676565b6001600160a01b03831660009081526003602090815260408083205480845260059092529091206001015460ff166111765760405162461bcd60e51b81526020600482015260116024820152706e65737465642e6e6f742e61637469766560781b6044820152606401610676565b6000818152600560205260408120600401805485929061119857611198611cb8565b9060005260206000200160008282546111b19190611cce565b9091555050600081815260056020819052604082200180548492906111d8576111d8611cb8565b9060005260206000200160008282546111f19190611cce565b9091555050600090815260056020526040902060020154801561129a5760008181526005602052604090206004018054849190600190811061123557611235611cb8565b90600052602060002001600082825461124e9190611cce565b90915550506000818152600560208190526040909120018054839190600190811061127b5761127b611cb8565b9060005260206000200160008282546112949190611cce565b90915550505b50505050565b600080826001600160a01b0316803b806020016040519081016040528181526000908060200190933c9050602d815110156113135760405162461bcd60e51b81526020600482015260136024820152724e6f742061206d696e696d616c2070726f787960681b6044820152606401610676565b602a015160601c92915050565b600082815260056020526040812060040180548291908490811061134657611346611cb8565b906000526020600020015460056000868152602001908152602001600020600501848154811061137857611378611cb8565b9060005260206000200154915091509250929050565b6000806113e560008054906101000a90046001600160a01b03166001600160a01b031663e1f4cd246040518163ffffffff1660e01b8152600401602060405180830381865afa158015610ce8573d6000803e3d6000fd5b905060006114ad60008054906101000a90046001600160a01b03166001600160a01b031663ab6e844f6040518163ffffffff1660e01b8152600401602060405180830381865afa15801561143d573d6000803e3d6000fd5b505050506040513d601f19601f820116820180604052508101906114619190611c72565b6040518060400160405280601381526020017255736572546f496e737428616464726573732960681b8152508660405160200161090591906001600160a01b0391909116815260200190565b9050600061157f60008054906101000a90046001600160a01b03166001600160a01b031663ab6e844f6040518163ffffffff1660e01b8152600401602060405180830381865afa158015611505573d6000803e3d6000fd5b505050506040513d601f19601f820116820180604052508101906115299190611c72565b6040518060400160405280601981526020017f67657445666665637469766552616e6b2861646472657373290000000000000081525084604051602001610e1591906001600160a01b0391909116815260200190565b9050600061164360008054906101000a90046001600160a01b03166001600160a01b031663ab6e844f6040518163ffffffff1660e01b8152600401602060405180830381865afa1580156115d7573d6000803e3d6000fd5b505050506040513d601f19601f820116820180604052508101906115fb9190611c72565b6040518060400160405280600f81526020016e697353746f7028616464726573732960881b8152508560405160200161061591906001600160a01b0391909116815260200190565b90506001600160a01b0383161580159061165d5750838210155b80156109d057501595945050505050565b600080546040805163af0deb9560e01b81529051611714926001600160a01b03169163af0deb959160048083019260209291908290030181865afa1580156116ba573d6000803e3d6000fd5b505050506040513d601f19601f820116820180604052508101906116de9190611c72565b60405180604001604052806008815260200167697353616665282960c01b81525060405180602001604052806000815250611719565b905090565b6000806000611729868686611a1b565b9150915081801561173b575080516020145b1561175757808060200190518101906117549190611cef565b92505b50509392505050565b6117a26040518060e001604052806000815260200160001515815260200160008152602001606081526020016060815260200160608152602001600081525090565b6040810183905260016020820152821561182a576000838152600560205260408120600301549003611805576000838152600560208181526040832060048101805460018181018355918652838620018590559201805492830181558352822001555b6000838152600560209081526040822060030180546001810182559083529120018290555b600082815260056020908152604091829020835181558382015160018201805460ff19169115159190911790559183015160028301556060830151805184939261187b926003850192910190611b15565b5060808201518051611897916004840191602090910190611b15565b5060a082015180516118b3916005840191602090910190611b15565b5060c09190910151600690910155506000818152600560208181526040832093845560048401805460018181018355918552828520018490559390910180549384018155825281209091015550565b6000806000611912868686611a1b565b91509150818015611924575080516020145b1561175757808060200190518101906117549190611c72565b600080600061194d868686611a1b565b9150915081801561195f575080516020145b1561175757808060200190518101906117549190611d11565b600080546040805163223df87160e11b81529051611714926001600160a01b03169163447bf0e29160048083019260209291908290030181865afa1580156119c4573d6000803e3d6000fd5b505050506040513d601f19601f820116820180604052508101906119e89190611c72565b60405180604001604052806005815260200164616765282960d81b8152506040518060200160405280600081525061193d565b60006060846001600160a01b03163b600003611a495750506040805160208101909152600080825290611b0d565b604080516004815260248101918290526001600160a01b03871691611a6f908790611d4e565b60405180910390206001600160e01b0319166020820180516001600160e01b03838183161783525050505084604051602001611aac929190611d6a565b60408051601f1981840301815290829052611ac691611d4e565b600060405180830381855afa9150503d8060008114611b01576040519150601f19603f3d011682016040523d82523d6000602084013e611b06565b606091505b5090925090505b935093915050565b828054828255906000526020600020908101928215611b50579160200282015b82811115611b50578251825591602001919060010190611b35565b50611b5c929150611b60565b5090565b5b80821115611b5c5760008155600101611b61565b600060208284031215611b8757600080fd5b5035919050565b6001600160a01b0381168114611ba357600080fd5b50565b600060208284031215611bb857600080fd5b8135611bc381611b8e565b9392505050565b60008060008060808587031215611be057600080fd5b8435611beb81611b8e565b93506020850135611bfb81611b8e565b92506040850135611c0b81611b8e565b9396929550929360600135925050565b60008060408385031215611c2e57600080fd5b50508035926020909101359150565b600080600060608486031215611c5257600080fd5b8335611c5d81611b8e565b95602085013595506040909401359392505050565b600060208284031215611c8457600080fd5b8151611bc381611b8e565b6020808252600f908201526e6f776e2e6e6f6e617574682e44414f60881b604082015260600190565b634e487b7160e01b600052603260045260246000fd5b8082018082111561062957634e487b7160e01b600052601160045260246000fd5b600060208284031215611d0157600080fd5b81518015158114611bc357600080fd5b600060208284031215611d2357600080fd5b5051919050565b60005b83811015611d45578181015183820152602001611d2d565b50506000910152565b60008251611d60818460208701611d2a565b9190910192915050565b60008351611d7c818460208801611d2a565b835190830190611d90818360208801611d2a565b0194935050505056fea2646970667358221220500061bfce779999ecd3885e41ba264eadfded94184f38464d98b351ceab3ab364736f6c63430008140033608060405234801561001057600080fd5b5060405161124938038061124983398101604081905261002f91610060565b600180546001600160a01b0319908116909155600080546001600160a01b0390931692909116919091179055610090565b60006020828403121561007257600080fd5b81516001600160a01b038116811461008957600080fd5b9392505050565b6111aa8061009f6000396000f3fe60806040526004361061009a5760003560e01c8063a9059cbb11610061578063a9059cbb1461015c578063af4845261461016f578063b90306ad1461018f578063c54e44b0146101af578063e01ad5fd146101cf578063e0a9bc2b146101ef57005b806312065fe0146100a35780631f185d16146100c557806351bfd3ae146100f55780638da5cb5b14610115578063a1f7f5391461014757005b366100a157005b005b3480156100af57600080fd5b50475b6040519081526020015b60405180910390f35b3480156100d157600080fd5b506100e56100e0366004611023565b610204565b60405190151581526020016100bc565b34801561010157600080fd5b506100e5610110366004611023565b6102d8565b34801561012157600080fd5b506001546001600160a01b03165b6040516001600160a01b0390911681526020016100bc565b34801561015357600080fd5b506100b2610474565b6100a161016a366004611047565b610620565b34801561017b57600080fd5b506100e561018a366004611023565b610802565b34801561019b57600080fd5b506100a16101aa366004611073565b6108c0565b3480156101bb57600080fd5b5061012f6101ca366004611023565b6109a6565b3480156101db57600080fd5b506100e56101ea366004611023565b610a26565b3480156101fb57600080fd5b506100e5610d06565b600080546040805163af0deb9560e01b815290516102d2926001600160a01b03169163af0deb959160048083019260209291908290030181865afa158015610250573d6000803e3d6000fd5b505050506040513d601f19601f82011682018060405250810190610274919061108c565b6040518060400160405280601181526020017069735369676e657228616464726573732960781b815250846040516020016102be91906001600160a01b0391909116815260200190565b604051602081830303815290604052610db1565b92915050565b6000806103b360008054906101000a90046001600160a01b03166001600160a01b031663a66bcbe26040518163ffffffff1660e01b8152600401602060405180830381865afa15801561032f573d6000803e3d6000fd5b505050506040513d601f19601f82011682018060405250810190610353919061108c565b6040518060400160405280601381526020017255736572546f496e737428616464726573732960681b8152508560405160200161039f91906001600160a01b0391909116815260200190565b604051602081830303815290604052610df8565b90506000806001600160a01b0316826001600160a01b031614159050600061040e836040518060400160405280600b81526020016a697353757370656e64282960a81b81525060405180602001604052806000815250610db1565b9050600061044c846040518060400160405280600881526020016769734c6f636b282960c01b81525060405180602001604052806000815250610db1565b905082158061046a57508180156104605750805b801561046a575082155b9695505050505050565b60008061052960008054906101000a90046001600160a01b03166001600160a01b031663e1f4cd246040518163ffffffff1660e01b8152600401602060405180830381865afa1580156104cb573d6000803e3d6000fd5b505050506040513d601f19601f820116820180604052508101906104ef919061108c565b6040518060400160405280600c81526020016b72616e6b666f7244414f282960a01b81525060405180602001604052806000815250610e33565b9050600061060c60008054906101000a90046001600160a01b03166001600160a01b031663ab6e844f6040518163ffffffff1660e01b8152600401602060405180830381865afa158015610581573d6000803e3d6000fd5b505050506040513d601f19601f820116820180604052508101906105a5919061108c565b6040518060400160405280601d81526020017f67657472616e6b636f756e742875696e743235362c75696e74323536290000008152506105e3610e6e565b60408051602081019290925281018690526060015b604051602081830303815290604052610e33565b90506106198160036110a9565b9250505090565b816001600160a01b0381166106715760405162461bcd60e51b815260206004820152601260248201527137bbb7173232b330bab63a1739b2b73232b960711b60448201526064015b60405180910390fd5b610679610d06565b6106ba5760405162461bcd60e51b81526020600482015260126024820152716f776e2e696e76616c69642e69735361666560701b6044820152606401610668565b6106c333610802565b80610741575060005460408051634162169f60e01b8152905133926001600160a01b031691634162169f9160048083019260209291908290030181865afa158015610712573d6000803e3d6000fd5b505050506040513d601f19601f82011682018060405250810190610736919061108c565b6001600160a01b0316145b61077f5760405162461bcd60e51b815260206004820152600f60248201526e6f776e2e6e6f6e617574682e44414f60881b6044820152606401610668565b814710156107c65760405162461bcd60e51b81526020600482015260146024820152731d1c99585cd95c9e4b9b195cdccb985b5bdd5b9d60621b6044820152606401610668565b6040516001600160a01b0384169083156108fc029084906000818181858888f193505050501580156107fc573d6000803e3d6000fd5b50505050565b600080546040805163af0deb9560e01b815290516102d2926001600160a01b03169163af0deb959160048083019260209291908290030181865afa15801561084e573d6000803e3d6000fd5b505050506040513d601f19601f82011682018060405250810190610872919061108c565b6040518060400160405280601581526020017469735365637572654261736528616464726573732960581b815250846040516020016102be91906001600160a01b0391909116815260200190565b60005460408051634162169f60e01b8152905133926001600160a01b031691634162169f9160048083019260209291908290030181865afa158015610909573d6000803e3d6000fd5b505050506040513d601f19601f8201168201806040525081019061092d919061108c565b6001600160a01b0316146109755760405162461bcd60e51b815260206004820152600f60248201526e6f776e2e6e6f6e617574682e44414f60881b6044820152606401610668565b60405160009082156108fc0290839083818181858288f193505050501580156109a2573d6000803e3d6000fd5b5050565b600080826001600160a01b0316803b806020016040519081016040528181526000908060200190933c9050602d81511015610a195760405162461bcd60e51b81526020600482015260136024820152724e6f742061206d696e696d616c2070726f787960681b6044820152606401610668565b602a015160601c92915050565b600080610a7d60008054906101000a90046001600160a01b03166001600160a01b031663e1f4cd246040518163ffffffff1660e01b8152600401602060405180830381865afa1580156104cb573d6000803e3d6000fd5b90506000610b4560008054906101000a90046001600160a01b03166001600160a01b031663ab6e844f6040518163ffffffff1660e01b8152600401602060405180830381865afa158015610ad5573d6000803e3d6000fd5b505050506040513d601f19601f82011682018060405250810190610af9919061108c565b6040518060400160405280601381526020017255736572546f496e737428616464726573732960681b8152508660405160200161039f91906001600160a01b0391909116815260200190565b90506000610c1760008054906101000a90046001600160a01b03166001600160a01b031663ab6e844f6040518163ffffffff1660e01b8152600401602060405180830381865afa158015610b9d573d6000803e3d6000fd5b505050506040513d601f19601f82011682018060405250810190610bc1919061108c565b6040518060400160405280601981526020017f67657445666665637469766552616e6b28616464726573732900000000000000815250846040516020016105f891906001600160a01b0391909116815260200190565b90506000610cdb60008054906101000a90046001600160a01b03166001600160a01b031663ab6e844f6040518163ffffffff1660e01b8152600401602060405180830381865afa158015610c6f573d6000803e3d6000fd5b505050506040513d601f19601f82011682018060405250810190610c93919061108c565b6040518060400160405280600f81526020016e697353746f7028616464726573732960881b815250856040516020016102be91906001600160a01b0391909116815260200190565b90506001600160a01b03831615801590610cf55750838210155b801561046a57501595945050505050565b600080546040805163af0deb9560e01b81529051610dac926001600160a01b03169163af0deb959160048083019260209291908290030181865afa158015610d52573d6000803e3d6000fd5b505050506040513d601f19601f82011682018060405250810190610d76919061108c565b60405180604001604052806008815260200167697353616665282960c01b81525060405180602001604052806000815250610db1565b905090565b6000806000610dc1868686610f11565b91509150818015610dd3575080516020145b15610def5780806020019051810190610dec91906110ca565b92505b50509392505050565b6000806000610e08868686610f11565b91509150818015610e1a575080516020145b15610def5780806020019051810190610dec919061108c565b6000806000610e43868686610f11565b91509150818015610e55575080516020145b15610def5780806020019051810190610dec91906110ec565b600080546040805163223df87160e11b81529051610dac926001600160a01b03169163447bf0e29160048083019260209291908290030181865afa158015610eba573d6000803e3d6000fd5b505050506040513d601f19601f82011682018060405250810190610ede919061108c565b60405180604001604052806005815260200164616765282960d81b81525060405180602001604052806000815250610e33565b60006060846001600160a01b03163b600003610f3f5750506040805160208101909152600080825290611003565b604080516004815260248101918290526001600160a01b03871691610f65908790611129565b60405180910390206001600160e01b0319166020820180516001600160e01b03838183161783525050505084604051602001610fa2929190611145565b60408051601f1981840301815290829052610fbc91611129565b600060405180830381855afa9150503d8060008114610ff7576040519150601f19603f3d011682016040523d82523d6000602084013e610ffc565b606091505b5090925090505b935093915050565b6001600160a01b038116811461102057600080fd5b50565b60006020828403121561103557600080fd5b81356110408161100b565b9392505050565b6000806040838503121561105a57600080fd5b82356110658161100b565b946020939093013593505050565b60006020828403121561108557600080fd5b5035919050565b60006020828403121561109e57600080fd5b81516110408161100b565b808201808211156102d257634e487b7160e01b600052601160045260246000fd5b6000602082840312156110dc57600080fd5b8151801515811461104057600080fd5b6000602082840312156110fe57600080fd5b5051919050565b60005b83811015611120578181015183820152602001611108565b50506000910152565b6000825161113b818460208701611105565b9190910192915050565b60008351611157818460208801611105565b83519083019061116b818360208801611105565b0194935050505056fea2646970667358221220e7ac5d7ba6baf70ebce1d40db94f6783c0949fb389faca9c37bdf364c06ce91864736f6c63430008140033a2646970667358221220c8b9845680872009ddc43adebabca2cdfd8c9a549f406a2f5688ab965c30709d64736f6c63430008140033","linkReferences":{}},"methodIdentifiers":{"deployBatch(address)":"c9994e77"},"id":3}