{"abi":[{"type":"constructor","inputs":[{"name":"_mock","type":"address","internalType":"address"}],"stateMutability":"payable"},{"type":"function","name":"addMockBatch","inputs":[],"outputs":[],"stateMutability":"payable"},{"type":"function","name":"addRootMock","inputs":[{"name":"user","type":"address","internalType":"address"}],"outputs":[],"stateMutability":"payable"},{"type":"function","name":"addRootMockBatch","inputs":[{"name":"users","type":"address[]","internalType":"address[]"}],"outputs":[],"stateMutability":"payable"},{"type":"function","name":"mock741","inputs":[],"outputs":[{"name":"","type":"address","internalType":"contract MockIn741Old"}],"stateMutability":"view"}],"bytecode":{"object":"0x6080601f61305038819003918201601f19168301916001600160401b038311848410176100755780849260209460405283398101031261007057516001600160a01b0381169081900361007057600060015560018060a01b03196000541617600055604051612fc4908161008c8239f35b600080fd5b634e487b7160e01b600052604160045260246000fdfe60808060405260043610156200001457600080fd5b60003560e01c908163505ab1e9146200246357508063619fca0f14620024385780638dcb968f14620000835763bca1f4ac146200005057600080fd5b60203660031901126200007e576004356001600160a01b03811681036200007e576200007c906200257a565b005b600080fd5b60003660031901126200007e5760006200009f60015462002554565b60015560405161080181018181106001600160401b0382111762001fb257816020916108016200278e83397289188449f0d4119715c9a10ea8955fb26ee30881520301906000f0801562001fa65760018060a01b0360005416600154813b156200007e576040516331ba984160e11b81526001600160a01b03841660048201527289188449f0d4119715c9a10ea8955fb26ee308602482015260006044820181905260648201929092526084810182905291829060a490829084905af1801562001fa65762002421575b5060015460028101811162001f7b5782906001600160a01b0383163b1562001f77576040516326ac2f0360e01b8152600291909101600482015281816024816402540be4006001600160a01b0388165af1801562001f3c5762002409575b505060018060a01b038254169060015490818060011b046002148215171562001f4b57908391833b1562001f47576064908360405195869485936324ba08fd60e01b855260018060a01b031660048501526501e8f1c10800602485015260011b60448401525af1801562001f3c57620023f1575b50506001546200024d60009162002554565b600155604051806108018101106001600160401b036108018301111762001fb2576108016200278e8239732242c969aafd0d61dd83e9a9c5e5db046eec922c61080182015260208161080181010301906000f0801562001fa65760018060a01b0360005416600154813b156200007e576040516331ba984160e11b81526001600160a01b0384166004820152732242c969aafd0d61dd83e9a9c5e5db046eec922c60248201527289188449f0d4119715c9a10ea8955fb26ee308604482015260648101919091526000608482018190529091829060a490829084905af1801562001fa657620023da575b5060015460028101811162001f7b5782906001600160a01b0383163b1562001f77576040516326ac2f0360e01b8152600291909101600482015281816024816402540be4006001600160a01b0388165af1801562001f3c57620023c2575b505060018060a01b038254169060015490818060011b046002148215171562001f4b57908391833b1562001f47576064908360405195869485936324ba08fd60e01b855260018060a01b031660048501526501e8f1c10800602485015260011b60448401525af1801562001f3c57620023aa575b50506001546200041b60009162002554565b600155604051806108018101106001600160401b036108018301111762001fb2576108016200278e8239739653e22e7de603e3f4f80d6e6964da487a4440bd61080182015260208161080181010301906000f0801562001fa65760018060a01b0360005416600154813b156200007e576040516331ba984160e11b81526001600160a01b0384166004820152739653e22e7de603e3f4f80d6e6964da487a4440bd6024820152732242c969aafd0d61dd83e9a9c5e5db046eec922c604482015260648101919091526000608482018190529091829060a490829084905af1801562001fa65762002393575b5060015460028101811162001f7b5782906001600160a01b0383163b1562001f77576040516326ac2f0360e01b8152600291909101600482015281816024816402540be4006001600160a01b0388165af1801562001f3c576200237b575b505060018060a01b038254169060015490818060011b046002148215171562001f4b57908391833b1562001f47576064908360405195869485936324ba08fd60e01b855260018060a01b031660048501526501e8f1c10800602485015260011b60448401525af1801562001f3c5762002363575b5050600154620005ea60009162002554565b600155604051806108018101106001600160401b036108018301111762001fb2576108016200278e82397365595a6f3f2c71d2daf9e816fba3bff80c8388c261080182015260208161080181010301906000f0801562001fa65760018060a01b0360005416600154813b156200007e576040516331ba984160e11b81526001600160a01b03841660048201527365595a6f3f2c71d2daf9e816fba3bff80c8388c26024820152732242c969aafd0d61dd83e9a9c5e5db046eec922c604482015260648101919091526000608482018190529091829060a490829084905af1801562001fa6576200234c575b5060015460028101811162001f7b5782906001600160a01b0383163b1562001f77576040516326ac2f0360e01b8152600291909101600482015281816024816402540be4006001600160a01b0388165af1801562001f3c5762002334575b505060018060a01b038254169060015490818060011b046002148215171562001f4b57908391833b1562001f47576064908360405195869485936324ba08fd60e01b855260018060a01b031660048501526501e8f1c10800602485015260011b60448401525af1801562001f3c576200231c575b5050600154620007b960009162002554565b600155604051806108018101106001600160401b036108018301111762001fb2576108016200278e8239738fbd8b80f831735b1d0f21c67600e2b29a43a14361080182015260208161080181010301906000f0801562001fa65760018060a01b0360005416600154813b156200007e576040516331ba984160e11b81526001600160a01b0384166004820152738fbd8b80f831735b1d0f21c67600e2b29a43a1436024820152732242c969aafd0d61dd83e9a9c5e5db046eec922c604482015260648101919091526000608482018190529091829060a490829084905af1801562001fa65762002305575b5060015460028101811162001f7b5782906001600160a01b0383163b1562001f77576040516326ac2f0360e01b8152600291909101600482015281816024816402540be4006001600160a01b0388165af1801562001f3c57620022ed575b505060018060a01b038254169060015490818060011b046002148215171562001f4b57908391833b1562001f47576064908360405195869485936324ba08fd60e01b855260018060a01b031660048501526501e8f1c10800602485015260011b60448401525af1801562001f3c57620022d5575b50506001546200098860009162002554565b600155604051806108018101106001600160401b036108018301111762001fb2576108016200278e8239733700ec1c787b382363f8cef7c6605f6d8d8cbbbb61080182015260208161080181010301906000f0801562001fa65760018060a01b0360005416600154813b156200007e576040516331ba984160e11b81526001600160a01b0384166004820152733700ec1c787b382363f8cef7c6605f6d8d8cbbbb6024820152739653e22e7de603e3f4f80d6e6964da487a4440bd604482015260648101919091526000608482018190529091829060a490829084905af1801562001fa657620022be575b5060015460028101811162001f7b5782906001600160a01b0383163b1562001f77576040516326ac2f0360e01b8152600291909101600482015281816024816402540be4006001600160a01b0388165af1801562001f3c57620022a6575b505060018060a01b038254169060015490818060011b046002148215171562001f4b57908391833b1562001f47576064908360405195869485936324ba08fd60e01b855260018060a01b031660048501526501e8f1c10800602485015260011b60448401525af1801562001f3c576200228e575b505060015462000b5760009162002554565b600155604051806108018101106001600160401b036108018301111762001fb2576108016200278e823973e77ab47de567b3a79849f38dbad1d321b3ace9d861080182015260208161080181010301906000f0801562001fa65760018060a01b0360005416600154813b156200007e576040516331ba984160e11b81526001600160a01b038416600482015273e77ab47de567b3a79849f38dbad1d321b3ace9d86024820152739653e22e7de603e3f4f80d6e6964da487a4440bd604482015260648101919091526000608482018190529091829060a490829084905af1801562001fa65762002277575b5060015460028101811162001f7b5782906001600160a01b0383163b1562001f77576040516326ac2f0360e01b8152600291909101600482015281816024816402540be4006001600160a01b0388165af1801562001f3c576200225f575b505060018060a01b038254169060015490818060011b046002148215171562001f4b57908391833b1562001f47576064908360405195869485936324ba08fd60e01b855260018060a01b031660048501526501e8f1c10800602485015260011b60448401525af1801562001f3c5762002247575b505060015462000d2660009162002554565b600155604051806108018101106001600160401b036108018301111762001fb2576108016200278e823973d2e355c594775d9ce44959c05879085c4fd9422961080182015260208161080181010301906000f0801562001fa65760018060a01b0360005416600154813b156200007e576040516331ba984160e11b81526001600160a01b038416600482015273d2e355c594775d9ce44959c05879085c4fd942296024820152739653e22e7de603e3f4f80d6e6964da487a4440bd604482015260648101919091526000608482018190529091829060a490829084905af1801562001fa65762002230575b5060015460028101811162001f7b5782906001600160a01b0383163b1562001f77576040516326ac2f0360e01b8152600291909101600482015281816024816402540be4006001600160a01b0388165af1801562001f3c5762002218575b505060018060a01b038254169060015490818060011b046002148215171562001f4b57908391833b1562001f47576064908360405195869485936324ba08fd60e01b855260018060a01b031660048501526501e8f1c10800602485015260011b60448401525af1801562001f3c5762002200575b505060015462000ef560009162002554565b600155604051806108018101106001600160401b036108018301111762001fb2576108016200278e8239733ceef41b4be666c5247e8200624ab15c88c4379d61080182015260208161080181010301906000f0801562001fa65760018060a01b0360005416600154813b156200007e576040516331ba984160e11b81526001600160a01b0384166004820152733ceef41b4be666c5247e8200624ab15c88c4379d60248201527365595a6f3f2c71d2daf9e816fba3bff80c8388c2604482015260648101919091526000608482018190529091829060a490829084905af1801562001fa657620021e9575b5060015460028101811162001f7b5782906001600160a01b0383163b1562001f77576040516326ac2f0360e01b8152600291909101600482015281816024816402540be4006001600160a01b0388165af1801562001f3c57620021d1575b505060018060a01b038254169060015490818060011b046002148215171562001f4b57908391833b1562001f47576064908360405195869485936324ba08fd60e01b855260018060a01b031660048501526501e8f1c10800602485015260011b60448401525af1801562001f3c57620021b9575b5050600154620010c460009162002554565b600155604051806108018101106001600160401b036108018301111762001fb2576108016200278e82397335312d50cf3c4ea8e997f2cb55c89b674e76916161080182015260208161080181010301906000f0801562001fa65760018060a01b0360005416600154813b156200007e576040516331ba984160e11b81526001600160a01b03841660048201527335312d50cf3c4ea8e997f2cb55c89b674e76916160248201527365595a6f3f2c71d2daf9e816fba3bff80c8388c2604482015260648101919091526000608482018190529091829060a490829084905af1801562001fa657620021a2575b5060015460028101811162001f7b5782906001600160a01b0383163b1562001f77576040516326ac2f0360e01b8152600291909101600482015281816024816402540be4006001600160a01b0388165af1801562001f3c576200218a575b505060018060a01b038254169060015490818060011b046002148215171562001f4b57908391833b1562001f47576064908360405195869485936324ba08fd60e01b855260018060a01b031660048501526501e8f1c10800602485015260011b60448401525af1801562001f3c5762002172575b50506001546200129360009162002554565b600155604051806108018101106001600160401b036108018301111762001fb2576108016200278e823973b4af859842b7ad0365db8398a5f51b08960385c161080182015260208161080181010301906000f0801562001fa65760018060a01b0360005416600154813b156200007e576040516331ba984160e11b81526001600160a01b038416600482015273b4af859842b7ad0365db8398a5f51b08960385c160248201527365595a6f3f2c71d2daf9e816fba3bff80c8388c2604482015260648101919091526000608482018190529091829060a490829084905af1801562001fa6576200215b575b5060015460028101811162001f7b5782906001600160a01b0383163b1562001f77576040516326ac2f0360e01b8152600291909101600482015281816024816402540be4006001600160a01b0388165af1801562001f3c5762002143575b505060018060a01b038254169060015490818060011b046002148215171562001f4b57908391833b1562001f47576064908360405195869485936324ba08fd60e01b855260018060a01b031660048501526501e8f1c10800602485015260011b60448401525af1801562001f3c576200212b575b50506001546200146260009162002554565b600155604051806108018101106001600160401b036108018301111762001fb2576108016200278e8239735436e18af6e3817a9e7d3165dc5e92cb982873c761080182015260208161080181010301906000f0801562001fa65760018060a01b0360005416600154813b156200007e576040516331ba984160e11b81526001600160a01b0384166004820152735436e18af6e3817a9e7d3165dc5e92cb982873c76024820152738fbd8b80f831735b1d0f21c67600e2b29a43a143604482015260648101919091526000608482018190529091829060a490829084905af1801562001fa65762002114575b5060015460028101811162001f7b5782906001600160a01b0383163b1562001f77576040516326ac2f0360e01b8152600291909101600482015281816024816402540be4006001600160a01b0388165af1801562001f3c57620020fc575b505060018060a01b038254169060015490818060011b046002148215171562001f4b57908391833b1562001f47576064908360405195869485936324ba08fd60e01b855260018060a01b031660048501526501e8f1c10800602485015260011b60448401525af1801562001f3c57620020e4575b50506001546200163160009162002554565b600155604051806108018101106001600160401b036108018301111762001fb2576108016200278e8239735824fef98427142bba7d7c9b20b29aef88ffa63361080182015260208161080181010301906000f0801562001fa65760018060a01b0360005416600154813b156200007e576040516331ba984160e11b81526001600160a01b0384166004820152735824fef98427142bba7d7c9b20b29aef88ffa6336024820152738fbd8b80f831735b1d0f21c67600e2b29a43a143604482015260648101919091526000608482018190529091829060a490829084905af1801562001fa657620020cd575b5060015460028101811162001f7b5782906001600160a01b0383163b1562001f77576040516326ac2f0360e01b8152600291909101600482015281816024816402540be4006001600160a01b0388165af1801562001f3c57620020b5575b505060018060a01b038254169060015490818060011b046002148215171562001f4b57908391833b1562001f47576064908360405195869485936324ba08fd60e01b855260018060a01b031660048501526501e8f1c10800602485015260011b60448401525af1801562001f3c576200209d575b50506001546200180060009162002554565b600155604051806108018101106001600160401b036108018301111762001fb2576108016200278e8239733a830f5e824b36429b92ffe7434ce761a6cefcbf61080182015260208161080181010301906000f0801562001fa65760018060a01b0360005416600154813b156200007e576040516331ba984160e11b81526001600160a01b0384166004820152733a830f5e824b36429b92ffe7434ce761a6cefcbf6024820152738fbd8b80f831735b1d0f21c67600e2b29a43a143604482015260648101919091526000608482018190529091829060a490829084905af1801562001fa65762002086575b5060015460028101811162001f7b5782906001600160a01b0383163b1562001f77576040516326ac2f0360e01b8152600291909101600482015281816024816402540be4006001600160a01b0388165af1801562001f3c576200206e575b505060018060a01b038254169060015490818060011b046002148215171562001f4b57908391833b1562001f47576064908360405195869485936324ba08fd60e01b855260018060a01b031660048501526501e8f1c10800602485015260011b60448401525af1801562001f3c5762002056575b5050600154620019cf60009162002554565b600155604051806108018101106001600160401b036108018301111762001fb2576108016200278e823973bc422c995f416c44fdcd2f755622f74e76c1782f61080182015260208161080181010301906000f0801562001fa65760018060a01b0360005416600154813b156200007e576040516331ba984160e11b81526001600160a01b038416600482015273bc422c995f416c44fdcd2f755622f74e76c1782f6024820152733700ec1c787b382363f8cef7c6605f6d8d8cbbbb604482015260648101919091526000608482018190529091829060a490829084905af1801562001fa6576200203f575b5060015460028101811162001f7b5782906001600160a01b0383163b1562001f77576040516326ac2f0360e01b8152600291909101600482015281816024816402540be4006001600160a01b0388165af1801562001f3c5762002027575b505060018060a01b038254169060015490818060011b046002148215171562001f4b57908391833b1562001f47576064908360405195869485936324ba08fd60e01b855260018060a01b031660048501526501e8f1c10800602485015260011b60448401525af1801562001f3c576200200f575b505060015462001b9e60009162002554565b600155604051806108018101106001600160401b036108018301111762001fb2576108016200278e823973fde1932de472188aa71c684dd05a9b37be34479a61080182015260208161080181010301906000f0801562001fa65760018060a01b0360005416600154813b156200007e576040516331ba984160e11b81526001600160a01b038416600482015273fde1932de472188aa71c684dd05a9b37be34479a6024820152733700ec1c787b382363f8cef7c6605f6d8d8cbbbb604482015260648101919091526000608482018190529091829060a490829084905af1801562001fa65762001ff8575b5060015460028101811162001f7b5782906001600160a01b0383163b1562001f77576040516326ac2f0360e01b8152600291909101600482015281816024816402540be4006001600160a01b0388165af1801562001f3c5762001fe0575b505060018060a01b038254169060015490818060011b046002148215171562001f4b57908391833b1562001f47576064908360405195869485936324ba08fd60e01b855260018060a01b031660048501526501e8f1c10800602485015260011b60448401525af1801562001f3c5762001fc8575b505060015462001d6d60009162002554565b600155604051806108018101106001600160401b036108018301111762001fb2576108016200278e8239722e175f72f6fb684c8c71f6ee81b712690ceba161080182015260208161080181010301906000f0801562001fa65760018060a01b0360005416600154813b156200007e576040516331ba984160e11b81526001600160a01b0384166004820152722e175f72f6fb684c8c71f6ee81b712690ceba16024820152733700ec1c787b382363f8cef7c6605f6d8d8cbbbb604482015260648101919091526000608482018190529091829060a490829084905af1801562001fa65762001f8f575b506001546002810180911162001f7b5782906001600160a01b0383163b1562001f77576040516326ac2f0360e01b8152600481019190915281816024816402540be4006001600160a01b0388165af1801562001f3c5762001f5f575b505060018060a01b0382541690600154908160011b918083046002149015171562001f4b57908391833b1562001f47576064908360405195869485936324ba08fd60e01b855260018060a01b031660048501526501e8f1c10800602485015260448401525af1801562001f3c5762001f2657005b62001f32829162002540565b62001f3957005b80fd5b6040513d84823e3d90fd5b8280fd5b634e487b7160e01b84526011600452602484fd5b62001f6a9062002540565b62001f7757818362001eb2565b5080fd5b634e487b7160e01b83526011600452602483fd5b62001f9c91925062002540565b6000908262001e56565b6040513d6000823e3d90fd5b634e487b7160e01b600052604160045260246000fd5b62001fd4829162002540565b62001f39578062001d5b565b62001feb9062002540565b62001f7757818362001ce7565b6200200591925062002540565b6000908262001c89565b6200201b829162002540565b62001f39578062001b8c565b620020329062002540565b62001f7757818362001b18565b6200204c91925062002540565b6000908262001aba565b62002062829162002540565b62001f395780620019bd565b620020799062002540565b62001f7757818362001949565b6200209391925062002540565b60009082620018eb565b620020a9829162002540565b62001f395780620017ee565b620020c09062002540565b62001f775781836200177a565b620020da91925062002540565b600090826200171c565b620020f0829162002540565b62001f3957806200161f565b620021079062002540565b62001f77578183620015ab565b6200212191925062002540565b600090826200154d565b62002137829162002540565b62001f39578062001450565b6200214e9062002540565b62001f77578183620013dc565b6200216891925062002540565b600090826200137e565b6200217e829162002540565b62001f39578062001281565b620021959062002540565b62001f775781836200120d565b620021af91925062002540565b60009082620011af565b620021c5829162002540565b62001f395780620010b2565b620021dc9062002540565b62001f775781836200103e565b620021f691925062002540565b6000908262000fe0565b6200220c829162002540565b62001f39578062000ee3565b620022239062002540565b62001f7757818362000e6f565b6200223d91925062002540565b6000908262000e11565b62002253829162002540565b62001f39578062000d14565b6200226a9062002540565b62001f7757818362000ca0565b6200228491925062002540565b6000908262000c42565b6200229a829162002540565b62001f39578062000b45565b620022b19062002540565b62001f7757818362000ad1565b620022cb91925062002540565b6000908262000a73565b620022e1829162002540565b62001f39578062000976565b620022f89062002540565b62001f7757818362000902565b6200231291925062002540565b60009082620008a4565b62002328829162002540565b62001f395780620007a7565b6200233f9062002540565b62001f7757818362000733565b6200235991925062002540565b60009082620006d5565b6200236f829162002540565b62001f395780620005d8565b620023869062002540565b62001f7757818362000564565b620023a091925062002540565b6000908262000506565b620023b6829162002540565b62001f39578062000409565b620023cd9062002540565b62001f7757818362000395565b620023e791925062002540565b6000908262000337565b620023fd829162002540565b62001f3957806200023b565b620024149062002540565b62001f77578183620001c7565b6200242e91925062002540565b6000908262000169565b346200007e5760003660031901126200007e576000546040516001600160a01b039091168152602090f35b602090816003193601126200007e576001600160401b03906004358281116200007e57366023820112156200007e5780600401359280841162001fb25760059380851b91603f8301601f191685019081118582101762001fb2576040528352602485840191830101913683116200007e57602401905b8282106200251f5750505060005b81518110156200007c5780831b820184015162002519919062002513906001600160a01b03166200257a565b62002554565b620024e7565b81356001600160a01b03811681036200007e578152908501908501620024d9565b6001600160401b03811162001fb257604052565b6000198114620025645760010190565b634e487b7160e01b600052601160045260246000fd5b6001908154916200258d60009362002554565b815560409081519261080193848101948186106001600160401b0387111762002779576200278e82396001600160a01b03918216808652948190036020019086f080156200276f578180875416911694835490823b156200276b579060a4889283885195869485936331ba984160e11b85528c600486015260248501527289188449f0d4119715c9a10ea8955fb26ee308604485015260648401528160848401525af18015620027335762002755575b508154600281018091116200274157843b156200273d578351906326ac2f0360e01b8252600482015285816024816402540be400895af1801562002733579086916200271b575b50541692815480921b91808304600214901517156200270757833b156200270357906064859283855196879485936324ba08fd60e01b855260048501526501e8f1c10800602485015260448401525af1908115620026fa5750620026e6575050565b620026f2829162002540565b62001f395750565b513d84823e3d90fd5b8480fd5b634e487b7160e01b85526011600452602485fd5b620027269062002540565b6200270357843862002684565b84513d88823e3d90fd5b8580fd5b634e487b7160e01b86526011600452602486fd5b620027639095919562002540565b93386200263d565b8780fd5b83513d87823e3d90fd5b634e487b7160e01b87526041600452602487fdfe60803461007457601f61080138819003918201601f19168301916001600160401b038311848410176100795780849260209460405283398101031261007457516001600160a01b0381169081900361007457600680546001600160a01b03191691909117905560405161077190816100908239f35b600080fd5b634e487b7160e01b600052604160045260246000fdfe608060408181526004918236101561001657600080fd5b600092833560e01c91826326ac2f0314610313575081634fb2e45d146102d55781636350b2c21461029457816366fb5f7a1461027557816368c6bb68146101d657816369245009146101f357816375b4d78c146102125781637dc0bf3f1461023157816383125b9e146102125781638407b8fb146101f35781639659867e146101d6578163a3e884b014610183578163a969ccef14610158578163a98bf4f91461012d57508063fcbff1351461010f5763fd915ef2146100d557600080fd5b3461010b578160031936011261010b578160c09282519281845281602085015283015280606083015280608083015260a0820152f35b5080fd5b503461010b578160031936011261010b576020906003549051908152f35b90503461015457602036600319011261015457602092818392358252845220549051908152f35b8280fd5b9190503461015457602036600319011261015457816302160ec0923580600355845260205282205580f35b5050608036600319011261010b5761019961047b565b508180808060018060a01b036006541647908282156101cd575bf1156101c3576020905160018152f35b51903d90823e3d90fd5b506108fc6101b3565b50503461010b578160031936011261010b57602091549051908152f35b50503461010b578160031936011261010b576020906002549051908152f35b50503461010b578160031936011261010b576020906001549051908152f35b905034610154576020366003190112610154573591600554831015610272575061025c602092610496565b905491519160018060a01b039160031b1c168152f35b80fd5b50503461010b578160031936011261010b576020906003549051908152f35b8284346102725760203660031901126102725782359260001984019384116102c25760208361025c86610496565b634e487b7160e01b825260119052602490fd5b8334610272576020366003190112610272576001600160a01b036102f761047b565b166bffffffffffffffffffffffff60a01b600654161760065580f35b9091506020366003190112610477578135906102588082019082821067ffffffffffffffff8311176104645760609183916104e483396001815260056020820152348782015203019085f092831561045b5760233402348104602314341517156104225761271090049160028101908181116104355781875284602052838388205583870393600160ff1b8114600116610448576000198505036104355761025a0180911161042257855282602052842055600554906801000000000000000082101561040f57508060016103eb9201600555610496565b819291549060031b9160018060a01b03809116831b921b1916179055600554815580f35b634e487b7160e01b845260419052602483fd5b634e487b7160e01b865260118452602486fd5b634e487b7160e01b875260118552602487fd5b634e487b7160e01b885260118652602488fd5b513d85823e3d90fd5b634e487b7160e01b875260418552602487fd5b8380fd5b600435906001600160a01b038216820361049157565b600080fd5b6005548110156104cd5760056000527f036b6384b5eca791c62761152d0c79bb0604c104a5fb6f4eb0703f3154bb3db00190600090565b634e487b7160e01b600052603260045260246000fdfe6080346100bd57601f61025838819003918201601f19168301916001600160401b038311848410176100c2578084926060946040528339810103126100bd5780519060406020820151910151906000928355600155600255600354680100000000000000008110156100a95760018101806003558110156100955760208260036002945220015560405161017f90816100d98239f35b634e487b7160e01b82526032600452602482fd5b634e487b7160e01b82526041600452602482fd5b600080fd5b634e487b7160e01b600052604160045260246000fdfe60806040818152600436101561001457600080fd5b600091823560e01c908163085a8cca1461012d575080636c51797b1461010f5780638c5164dc146100f1578063c3295006146100d5578063d92f24ae146100f1578063f9ffedb7146100d55763fac333ac1461006f57600080fd5b346100d15760203660031901126100d1576004356003548110156100bd576003602093527fc2575a0e9e593c00f959f8c92f12db2869c3395a3b0502d05e2516446f71f85b01549051908152f35b634e487b7160e01b83526032600452602483fd5b5080fd5b50346100d157816003193601126100d157602091549051908152f35b50346100d157816003193601126100d1576020906002549051908152f35b50346100d157816003193601126100d1576020906001549051908152f35b8390346100d157816003193601126100d1576020906001548152f3fea2646970667358221220385c98bc185e93f2292e4db85df7b401a491366d860c4081c69d0b5e33e4d42664736f6c63430008140033a2646970667358221220c3c56794538524ea7086045633016aa2aaae72e1b29b8217f08c320e034c133764736f6c63430008140033a26469706673582212202ed1b19593f76b17d75377a3e3bd90c8d6b486ca85ea41c3856ea63b73b9301a64736f6c63430008140033","linkReferences":{}},"methodIdentifiers":{"addMockBatch()":"8dcb968f","addRootMock(address)":"bca1f4ac","addRootMockBatch(address[])":"505ab1e9","mock741()":"619fca0f"},"id":0}