{"abi":[{"type":"constructor","inputs":[{"name":"_mock","type":"address","internalType":"address"}],"stateMutability":"payable"},{"type":"function","name":"addMockBatch","inputs":[],"outputs":[],"stateMutability":"payable"},{"type":"function","name":"addRootMock","inputs":[{"name":"user","type":"address","internalType":"address"}],"outputs":[],"stateMutability":"payable"},{"type":"function","name":"addRootMockBatch","inputs":[{"name":"users","type":"address[]","internalType":"address[]"}],"outputs":[],"stateMutability":"payable"},{"type":"function","name":"mock741","inputs":[],"outputs":[{"name":"","type":"address","internalType":"contract MockIn741Old"}],"stateMutability":"view"}],"bytecode":{"object":"0x6080601f6130e138819003918201601f19168301916001600160401b038311848410176100755780849260209460405283398101031261007057516001600160a01b0381169081900361007057600060015560018060a01b03196000541617600055604051613055908161008c8239f35b600080fd5b634e487b7160e01b600052604160045260246000fdfe60808060405260043610156200001457600080fd5b60003560e01c908163505ab1e9146200250d57508063619fca0f14620024e25780638dcb968f14620000835763bca1f4ac146200005057600080fd5b60203660031901126200007e576004356001600160a01b03811681036200007e576200007c9062002624565b005b600080fd5b60003660031901126200007e5760006200009f600154620025fe565b6001819055604051906107e38201906001600160401b038211838310176200205c5760409183916107e36200283d84397289188449f0d4119715c9a10ea8955fb26ee308825260208201520301906000f08015620020505760018060a01b0360005416600154813b156200007e576040516331ba984160e11b81526001600160a01b03841660048201527289188449f0d4119715c9a10ea8955fb26ee308602482015260006044820181905260648201929092526084810182905291829060a490829084905af180156200205057620024cb575b50600154600281018111620020255782906001600160a01b0383163b1562002021576040516326ac2f0360e01b8152600291909101600482015281816024816402540be4006001600160a01b0388165af1801562001fe657620024b3575b505060018060a01b038254169060015490818060011b046002148215171562001ff557908391833b1562001ff1576064908360405195869485936324ba08fd60e01b855260018060a01b031660048501526501e8f1c10800602485015260011b60448401525af1801562001fe6576200249b575b505060015462000257600091620025fe565b6001819055604051906001600160401b036107e38301908111908311176200205c576107e36200283d8339732242c969aafd0d61dd83e9a9c5e5db046eec922c6107e383015260206107e3830101526040816107e381010301906000f08015620020505760018060a01b0360005416600154813b156200007e576040516331ba984160e11b81526001600160a01b0384166004820152732242c969aafd0d61dd83e9a9c5e5db046eec922c60248201527289188449f0d4119715c9a10ea8955fb26ee308604482015260648101919091526000608482018190529091829060a490829084905af18015620020505762002484575b50600154600281018111620020255782906001600160a01b0383163b1562002021576040516326ac2f0360e01b8152600291909101600482015281816024816402540be4006001600160a01b0388165af1801562001fe6576200246c575b505060018060a01b038254169060015490818060011b046002148215171562001ff557908391833b1562001ff1576064908360405195869485936324ba08fd60e01b855260018060a01b031660048501526501e8f1c10800602485015260011b60448401525af1801562001fe65762002454575b50506001546200042f600091620025fe565b6001819055604051906001600160401b036107e38301908111908311176200205c576107e36200283d8339739653e22e7de603e3f4f80d6e6964da487a4440bd6107e383015260206107e3830101526040816107e381010301906000f08015620020505760018060a01b0360005416600154813b156200007e576040516331ba984160e11b81526001600160a01b0384166004820152739653e22e7de603e3f4f80d6e6964da487a4440bd6024820152732242c969aafd0d61dd83e9a9c5e5db046eec922c604482015260648101919091526000608482018190529091829060a490829084905af1801562002050576200243d575b50600154600281018111620020255782906001600160a01b0383163b1562002021576040516326ac2f0360e01b8152600291909101600482015281816024816402540be4006001600160a01b0388165af1801562001fe65762002425575b505060018060a01b038254169060015490818060011b046002148215171562001ff557908391833b1562001ff1576064908360405195869485936324ba08fd60e01b855260018060a01b031660048501526501e8f1c10800602485015260011b60448401525af1801562001fe6576200240d575b505060015462000608600091620025fe565b6001819055604051906001600160401b036107e38301908111908311176200205c576107e36200283d83397365595a6f3f2c71d2daf9e816fba3bff80c8388c26107e383015260206107e3830101526040816107e381010301906000f08015620020505760018060a01b0360005416600154813b156200007e576040516331ba984160e11b81526001600160a01b03841660048201527365595a6f3f2c71d2daf9e816fba3bff80c8388c26024820152732242c969aafd0d61dd83e9a9c5e5db046eec922c604482015260648101919091526000608482018190529091829060a490829084905af180156200205057620023f6575b50600154600281018111620020255782906001600160a01b0383163b1562002021576040516326ac2f0360e01b8152600291909101600482015281816024816402540be4006001600160a01b0388165af1801562001fe657620023de575b505060018060a01b038254169060015490818060011b046002148215171562001ff557908391833b1562001ff1576064908360405195869485936324ba08fd60e01b855260018060a01b031660048501526501e8f1c10800602485015260011b60448401525af1801562001fe657620023c6575b5050600154620007e1600091620025fe565b6001819055604051906001600160401b036107e38301908111908311176200205c576107e36200283d8339738fbd8b80f831735b1d0f21c67600e2b29a43a1436107e383015260206107e3830101526040816107e381010301906000f08015620020505760018060a01b0360005416600154813b156200007e576040516331ba984160e11b81526001600160a01b0384166004820152738fbd8b80f831735b1d0f21c67600e2b29a43a1436024820152732242c969aafd0d61dd83e9a9c5e5db046eec922c604482015260648101919091526000608482018190529091829060a490829084905af180156200205057620023af575b50600154600281018111620020255782906001600160a01b0383163b1562002021576040516326ac2f0360e01b8152600291909101600482015281816024816402540be4006001600160a01b0388165af1801562001fe65762002397575b505060018060a01b038254169060015490818060011b046002148215171562001ff557908391833b1562001ff1576064908360405195869485936324ba08fd60e01b855260018060a01b031660048501526501e8f1c10800602485015260011b60448401525af1801562001fe6576200237f575b5050600154620009ba600091620025fe565b6001819055604051906001600160401b036107e38301908111908311176200205c576107e36200283d8339733700ec1c787b382363f8cef7c6605f6d8d8cbbbb6107e383015260206107e3830101526040816107e381010301906000f08015620020505760018060a01b0360005416600154813b156200007e576040516331ba984160e11b81526001600160a01b0384166004820152733700ec1c787b382363f8cef7c6605f6d8d8cbbbb6024820152739653e22e7de603e3f4f80d6e6964da487a4440bd604482015260648101919091526000608482018190529091829060a490829084905af18015620020505762002368575b50600154600281018111620020255782906001600160a01b0383163b1562002021576040516326ac2f0360e01b8152600291909101600482015281816024816402540be4006001600160a01b0388165af1801562001fe65762002350575b505060018060a01b038254169060015490818060011b046002148215171562001ff557908391833b1562001ff1576064908360405195869485936324ba08fd60e01b855260018060a01b031660048501526501e8f1c10800602485015260011b60448401525af1801562001fe65762002338575b505060015462000b93600091620025fe565b6001819055604051906001600160401b036107e38301908111908311176200205c576107e36200283d833973e77ab47de567b3a79849f38dbad1d321b3ace9d86107e383015260206107e3830101526040816107e381010301906000f08015620020505760018060a01b0360005416600154813b156200007e576040516331ba984160e11b81526001600160a01b038416600482015273e77ab47de567b3a79849f38dbad1d321b3ace9d86024820152739653e22e7de603e3f4f80d6e6964da487a4440bd604482015260648101919091526000608482018190529091829060a490829084905af18015620020505762002321575b50600154600281018111620020255782906001600160a01b0383163b1562002021576040516326ac2f0360e01b8152600291909101600482015281816024816402540be4006001600160a01b0388165af1801562001fe65762002309575b505060018060a01b038254169060015490818060011b046002148215171562001ff557908391833b1562001ff1576064908360405195869485936324ba08fd60e01b855260018060a01b031660048501526501e8f1c10800602485015260011b60448401525af1801562001fe657620022f1575b505060015462000d6c600091620025fe565b6001819055604051906001600160401b036107e38301908111908311176200205c576107e36200283d833973d2e355c594775d9ce44959c05879085c4fd942296107e383015260206107e3830101526040816107e381010301906000f08015620020505760018060a01b0360005416600154813b156200007e576040516331ba984160e11b81526001600160a01b038416600482015273d2e355c594775d9ce44959c05879085c4fd942296024820152739653e22e7de603e3f4f80d6e6964da487a4440bd604482015260648101919091526000608482018190529091829060a490829084905af180156200205057620022da575b50600154600281018111620020255782906001600160a01b0383163b1562002021576040516326ac2f0360e01b8152600291909101600482015281816024816402540be4006001600160a01b0388165af1801562001fe657620022c2575b505060018060a01b038254169060015490818060011b046002148215171562001ff557908391833b1562001ff1576064908360405195869485936324ba08fd60e01b855260018060a01b031660048501526501e8f1c10800602485015260011b60448401525af1801562001fe657620022aa575b505060015462000f45600091620025fe565b6001819055604051906001600160401b036107e38301908111908311176200205c576107e36200283d8339733ceef41b4be666c5247e8200624ab15c88c4379d6107e383015260206107e3830101526040816107e381010301906000f08015620020505760018060a01b0360005416600154813b156200007e576040516331ba984160e11b81526001600160a01b0384166004820152733ceef41b4be666c5247e8200624ab15c88c4379d60248201527365595a6f3f2c71d2daf9e816fba3bff80c8388c2604482015260648101919091526000608482018190529091829060a490829084905af18015620020505762002293575b50600154600281018111620020255782906001600160a01b0383163b1562002021576040516326ac2f0360e01b8152600291909101600482015281816024816402540be4006001600160a01b0388165af1801562001fe6576200227b575b505060018060a01b038254169060015490818060011b046002148215171562001ff557908391833b1562001ff1576064908360405195869485936324ba08fd60e01b855260018060a01b031660048501526501e8f1c10800602485015260011b60448401525af1801562001fe65762002263575b50506001546200111e600091620025fe565b6001819055604051906001600160401b036107e38301908111908311176200205c576107e36200283d83397335312d50cf3c4ea8e997f2cb55c89b674e7691616107e383015260206107e3830101526040816107e381010301906000f08015620020505760018060a01b0360005416600154813b156200007e576040516331ba984160e11b81526001600160a01b03841660048201527335312d50cf3c4ea8e997f2cb55c89b674e76916160248201527365595a6f3f2c71d2daf9e816fba3bff80c8388c2604482015260648101919091526000608482018190529091829060a490829084905af1801562002050576200224c575b50600154600281018111620020255782906001600160a01b0383163b1562002021576040516326ac2f0360e01b8152600291909101600482015281816024816402540be4006001600160a01b0388165af1801562001fe65762002234575b505060018060a01b038254169060015490818060011b046002148215171562001ff557908391833b1562001ff1576064908360405195869485936324ba08fd60e01b855260018060a01b031660048501526501e8f1c10800602485015260011b60448401525af1801562001fe6576200221c575b5050600154620012f7600091620025fe565b6001819055604051906001600160401b036107e38301908111908311176200205c576107e36200283d833973b4af859842b7ad0365db8398a5f51b08960385c16107e383015260206107e3830101526040816107e381010301906000f08015620020505760018060a01b0360005416600154813b156200007e576040516331ba984160e11b81526001600160a01b038416600482015273b4af859842b7ad0365db8398a5f51b08960385c160248201527365595a6f3f2c71d2daf9e816fba3bff80c8388c2604482015260648101919091526000608482018190529091829060a490829084905af18015620020505762002205575b50600154600281018111620020255782906001600160a01b0383163b1562002021576040516326ac2f0360e01b8152600291909101600482015281816024816402540be4006001600160a01b0388165af1801562001fe657620021ed575b505060018060a01b038254169060015490818060011b046002148215171562001ff557908391833b1562001ff1576064908360405195869485936324ba08fd60e01b855260018060a01b031660048501526501e8f1c10800602485015260011b60448401525af1801562001fe657620021d5575b5050600154620014d0600091620025fe565b6001819055604051906001600160401b036107e38301908111908311176200205c576107e36200283d8339735436e18af6e3817a9e7d3165dc5e92cb982873c76107e383015260206107e3830101526040816107e381010301906000f08015620020505760018060a01b0360005416600154813b156200007e576040516331ba984160e11b81526001600160a01b0384166004820152735436e18af6e3817a9e7d3165dc5e92cb982873c76024820152738fbd8b80f831735b1d0f21c67600e2b29a43a143604482015260648101919091526000608482018190529091829060a490829084905af180156200205057620021be575b50600154600281018111620020255782906001600160a01b0383163b1562002021576040516326ac2f0360e01b8152600291909101600482015281816024816402540be4006001600160a01b0388165af1801562001fe657620021a6575b505060018060a01b038254169060015490818060011b046002148215171562001ff557908391833b1562001ff1576064908360405195869485936324ba08fd60e01b855260018060a01b031660048501526501e8f1c10800602485015260011b60448401525af1801562001fe6576200218e575b5050600154620016a9600091620025fe565b6001819055604051906001600160401b036107e38301908111908311176200205c576107e36200283d8339735824fef98427142bba7d7c9b20b29aef88ffa6336107e383015260206107e3830101526040816107e381010301906000f08015620020505760018060a01b0360005416600154813b156200007e576040516331ba984160e11b81526001600160a01b0384166004820152735824fef98427142bba7d7c9b20b29aef88ffa6336024820152738fbd8b80f831735b1d0f21c67600e2b29a43a143604482015260648101919091526000608482018190529091829060a490829084905af18015620020505762002177575b50600154600281018111620020255782906001600160a01b0383163b1562002021576040516326ac2f0360e01b8152600291909101600482015281816024816402540be4006001600160a01b0388165af1801562001fe6576200215f575b505060018060a01b038254169060015490818060011b046002148215171562001ff557908391833b1562001ff1576064908360405195869485936324ba08fd60e01b855260018060a01b031660048501526501e8f1c10800602485015260011b60448401525af1801562001fe65762002147575b505060015462001882600091620025fe565b6001819055604051906001600160401b036107e38301908111908311176200205c576107e36200283d8339733a830f5e824b36429b92ffe7434ce761a6cefcbf6107e383015260206107e3830101526040816107e381010301906000f08015620020505760018060a01b0360005416600154813b156200007e576040516331ba984160e11b81526001600160a01b0384166004820152733a830f5e824b36429b92ffe7434ce761a6cefcbf6024820152738fbd8b80f831735b1d0f21c67600e2b29a43a143604482015260648101919091526000608482018190529091829060a490829084905af18015620020505762002130575b50600154600281018111620020255782906001600160a01b0383163b1562002021576040516326ac2f0360e01b8152600291909101600482015281816024816402540be4006001600160a01b0388165af1801562001fe65762002118575b505060018060a01b038254169060015490818060011b046002148215171562001ff557908391833b1562001ff1576064908360405195869485936324ba08fd60e01b855260018060a01b031660048501526501e8f1c10800602485015260011b60448401525af1801562001fe65762002100575b505060015462001a5b600091620025fe565b6001819055604051906001600160401b036107e38301908111908311176200205c576107e36200283d833973bc422c995f416c44fdcd2f755622f74e76c1782f6107e383015260206107e3830101526040816107e381010301906000f08015620020505760018060a01b0360005416600154813b156200007e576040516331ba984160e11b81526001600160a01b038416600482015273bc422c995f416c44fdcd2f755622f74e76c1782f6024820152733700ec1c787b382363f8cef7c6605f6d8d8cbbbb604482015260648101919091526000608482018190529091829060a490829084905af180156200205057620020e9575b50600154600281018111620020255782906001600160a01b0383163b1562002021576040516326ac2f0360e01b8152600291909101600482015281816024816402540be4006001600160a01b0388165af1801562001fe657620020d1575b505060018060a01b038254169060015490818060011b046002148215171562001ff557908391833b1562001ff1576064908360405195869485936324ba08fd60e01b855260018060a01b031660048501526501e8f1c10800602485015260011b60448401525af1801562001fe657620020b9575b505060015462001c34600091620025fe565b6001819055604051906001600160401b036107e38301908111908311176200205c576107e36200283d833973fde1932de472188aa71c684dd05a9b37be34479a6107e383015260206107e3830101526040816107e381010301906000f08015620020505760018060a01b0360005416600154813b156200007e576040516331ba984160e11b81526001600160a01b038416600482015273fde1932de472188aa71c684dd05a9b37be34479a6024820152733700ec1c787b382363f8cef7c6605f6d8d8cbbbb604482015260648101919091526000608482018190529091829060a490829084905af180156200205057620020a2575b50600154600281018111620020255782906001600160a01b0383163b1562002021576040516326ac2f0360e01b8152600291909101600482015281816024816402540be4006001600160a01b0388165af1801562001fe6576200208a575b505060018060a01b038254169060015490818060011b046002148215171562001ff557908391833b1562001ff1576064908360405195869485936324ba08fd60e01b855260018060a01b031660048501526501e8f1c10800602485015260011b60448401525af1801562001fe65762002072575b505060015462001e0d600091620025fe565b6001819055604051906001600160401b036107e38301908111908311176200205c576107e36200283d8339722e175f72f6fb684c8c71f6ee81b712690ceba16107e383015260206107e3830101526040816107e381010301906000f08015620020505760018060a01b0360005416600154813b156200007e576040516331ba984160e11b81526001600160a01b0384166004820152722e175f72f6fb684c8c71f6ee81b712690ceba16024820152733700ec1c787b382363f8cef7c6605f6d8d8cbbbb604482015260648101919091526000608482018190529091829060a490829084905af18015620020505762002039575b5060015460028101809111620020255782906001600160a01b0383163b1562002021576040516326ac2f0360e01b8152600481019190915281816024816402540be4006001600160a01b0388165af1801562001fe65762002009575b505060018060a01b0382541690600154908160011b918083046002149015171562001ff557908391833b1562001ff1576064908360405195869485936324ba08fd60e01b855260018060a01b031660048501526501e8f1c10800602485015260448401525af1801562001fe65762001fd057005b62001fdc8291620025ea565b62001fe357005b80fd5b6040513d84823e3d90fd5b8280fd5b634e487b7160e01b84526011600452602484fd5b6200201490620025ea565b6200202157818362001f5c565b5080fd5b634e487b7160e01b83526011600452602483fd5b62002046919250620025ea565b6000908262001f00565b6040513d6000823e3d90fd5b634e487b7160e01b600052604160045260246000fd5b6200207e8291620025ea565b62001fe3578062001dfb565b6200209590620025ea565b6200202157818362001d87565b620020af919250620025ea565b6000908262001d29565b620020c58291620025ea565b62001fe3578062001c22565b620020dc90620025ea565b6200202157818362001bae565b620020f6919250620025ea565b6000908262001b50565b6200210c8291620025ea565b62001fe3578062001a49565b6200212390620025ea565b62002021578183620019d5565b6200213d919250620025ea565b6000908262001977565b620021538291620025ea565b62001fe3578062001870565b6200216a90620025ea565b62002021578183620017fc565b62002184919250620025ea565b600090826200179e565b6200219a8291620025ea565b62001fe3578062001697565b620021b190620025ea565b6200202157818362001623565b620021cb919250620025ea565b60009082620015c5565b620021e18291620025ea565b62001fe35780620014be565b620021f890620025ea565b620020215781836200144a565b62002212919250620025ea565b60009082620013ec565b620022288291620025ea565b62001fe35780620012e5565b6200223f90620025ea565b6200202157818362001271565b62002259919250620025ea565b6000908262001213565b6200226f8291620025ea565b62001fe357806200110c565b6200228690620025ea565b6200202157818362001098565b620022a0919250620025ea565b600090826200103a565b620022b68291620025ea565b62001fe3578062000f33565b620022cd90620025ea565b6200202157818362000ebf565b620022e7919250620025ea565b6000908262000e61565b620022fd8291620025ea565b62001fe3578062000d5a565b6200231490620025ea565b6200202157818362000ce6565b6200232e919250620025ea565b6000908262000c88565b620023448291620025ea565b62001fe3578062000b81565b6200235b90620025ea565b6200202157818362000b0d565b62002375919250620025ea565b6000908262000aaf565b6200238b8291620025ea565b62001fe35780620009a8565b620023a290620025ea565b6200202157818362000934565b620023bc919250620025ea565b60009082620008d6565b620023d28291620025ea565b62001fe35780620007cf565b620023e990620025ea565b620020215781836200075b565b62002403919250620025ea565b60009082620006fd565b620024198291620025ea565b62001fe35780620005f6565b6200243090620025ea565b6200202157818362000582565b6200244a919250620025ea565b6000908262000524565b620024608291620025ea565b62001fe357806200041d565b6200247790620025ea565b62002021578183620003a9565b62002491919250620025ea565b600090826200034b565b620024a78291620025ea565b62001fe3578062000245565b620024be90620025ea565b62002021578183620001d1565b620024d8919250620025ea565b6000908262000173565b346200007e5760003660031901126200007e576000546040516001600160a01b039091168152602090f35b602090816003193601126200007e576001600160401b03906004358281116200007e57366023820112156200007e578060040135928084116200205c5760059380851b91603f8301601f19168501908111858210176200205c576040528352602485840191830101913683116200007e57602401905b828210620025c95750505060005b81518110156200007c5780831b8201840151620025c39190620025bd906001600160a01b031662002624565b620025fe565b62002591565b81356001600160a01b03811681036200007e57815290850190850162002583565b6001600160401b0381116200205c57604052565b60001981146200260e5760010190565b634e487b7160e01b600052601160045260246000fd5b600180549162002636600093620025fe565b9182815560409182516107e38082019082821060018060401b038311176200282857859183916200283d83396001600160a01b03948516808252602082019890985203019086f080156200281e578180875416911694835490823b156200281a579060a4889283885195869485936331ba984160e11b85528c600486015260248501527289188449f0d4119715c9a10ea8955fb26ee308604485015260648401528160848401525af18015620027e25762002804575b50815460028101809111620027f057843b15620027ec578351906326ac2f0360e01b8252600482015285816024816402540be400895af18015620027e257908691620027ca575b50541692815480921b9180830460021490151715620027b657833b15620027b257906064859283855196879485936324ba08fd60e01b855260048501526501e8f1c10800602485015260448401525af1908115620027a9575062002795575050565b620027a18291620025ea565b62001fe35750565b513d84823e3d90fd5b8480fd5b634e487b7160e01b85526011600452602485fd5b620027d590620025ea565b620027b257843862002733565b84513d88823e3d90fd5b8580fd5b634e487b7160e01b86526011600452602486fd5b6200281290959195620025ea565b9338620026ec565b8780fd5b83513d87823e3d90fd5b634e487b7160e01b88526041600452602488fdfe60803461009d57601f6107e338819003918201601f19168301916001600160401b038311848410176100a257808492604094855283398101031261009d5780516001600160a01b038116919082900361009d5760200151600680546001600160a01b031916909217909155600181019081106100875760025560405161072a90816100b98239f35b634e487b7160e01b600052601160045260246000fd5b600080fd5b634e487b7160e01b600052604160045260246000fdfe608060408181526004918236101561001657600080fd5b600092833560e01c91826326ac2f031461030b575081634fb2e45d146102d55781636350b2c21461029457816366fb5f7a1461027557816368c6bb68146101d657816369245009146101f357816375b4d78c146102125781637dc0bf3f1461023157816383125b9e146102125781638407b8fb146101f35781639659867e146101d6578163a3e884b014610183578163a969ccef14610158578163a98bf4f91461012d57508063fcbff1351461010f5763fd915ef2146100d557600080fd5b3461010b578160031936011261010b578160c09282519281845281602085015283015280606083015280608083015260a0820152f35b5080fd5b503461010b578160031936011261010b576020906003549051908152f35b90503461015457602036600319011261015457602092818392358252845220549051908152f35b8280fd5b9190503461015457602036600319011261015457816302160ec0923580600355845260205282205580f35b5050608036600319011261010b5761019961046e565b508180808060018060a01b036006541647908282156101cd575bf1156101c3576020905160018152f35b51903d90823e3d90fd5b506108fc6101b3565b50503461010b578160031936011261010b57602091549051908152f35b50503461010b578160031936011261010b576020906002549051908152f35b50503461010b578160031936011261010b576020906001549051908152f35b905034610154576020366003190112610154573591600554831015610272575061025c602092610489565b905491519160018060a01b039160031b1c168152f35b80fd5b50503461010b578160031936011261010b576020906003549051908152f35b8284346102725760203660031901126102725782359260001984019384116102c25760208361025c86610489565b634e487b7160e01b825260119052602490fd5b8334610272576020366003190112610272576001600160a01b036102f761046e565b1660018060a01b0319600654161760065580f35b909150602036600319011261046a5781359061023a808201906001600160401b038211838310176104575760609183916104bb83396001815260056020820152348782015203019085f092831561044e5760233402348104602314341517156104155761271090049160028101908181116104285781875284602052838388205583870393600160ff1b811460011661043b576000198505036104285761025a01809111610415578552602083905284205560055490600160401b82101561040257508060016103de9201600555610489565b819291549060031b9160018060a01b03809116831b921b1916179055600554815580f35b634e487b7160e01b845260419052602483fd5b634e487b7160e01b865260118452602486fd5b634e487b7160e01b875260118552602487fd5b634e487b7160e01b885260118652602488fd5b513d85823e3d90fd5b634e487b7160e01b875260418552602487fd5b8380fd5b600435906001600160a01b038216820361048457565b600080fd5b6005548110156104a457600560005260206000200190600090565b634e487b7160e01b600052603260045260246000fdfe6080346100bd57601f61023a38819003918201601f19168301916001600160401b038311848410176100c2578084926060946040528339810103126100bd5780519060406020820151910151906000928355600155600255600354680100000000000000008110156100a95760018101806003558110156100955760208260036002945220015560405161016190816100d98239f35b634e487b7160e01b82526032600452602482fd5b634e487b7160e01b82526041600452602482fd5b600080fd5b634e487b7160e01b600052604160045260246000fdfe60806040818152600436101561001457600080fd5b600091823560e01c908163085a8cca1461010f575080636c51797b146100f15780638c5164dc146100d3578063c3295006146100b7578063d92f24ae146100d3578063f9ffedb7146100b75763fac333ac1461006f57600080fd5b346100b35760203660031901126100b35760043560035481101561009f5760208360038295522001549051908152f35b634e487b7160e01b83526032600452602483fd5b5080fd5b50346100b357816003193601126100b357602091549051908152f35b50346100b357816003193601126100b3576020906002549051908152f35b50346100b357816003193601126100b3576020906001549051908152f35b8390346100b357816003193601126100b3576020906001548152f3fea2646970667358221220c667250f6888fa43cb0fe7d8bd80159cb76c752d5af93901513cad2b461037da64736f6c63430008140033a26469706673582212201dfb8d5bf7fde0866f8ef8ff580520cf7e5b4a979c74e3bba9e74b3483b1791c64736f6c63430008140033a264697066735822122095451536291cd7c2363288226397e69cc5d7293658df4cc7632b37b027d15a7764736f6c63430008140033","linkReferences":{}},"methodIdentifiers":{"addMockBatch()":"8dcb968f","addRootMock(address)":"bca1f4ac","addRootMockBatch(address[])":"505ab1e9","mock741()":"619fca0f"},"id":0}