{"abi":[{"type":"constructor","inputs":[],"stateMutability":"nonpayable"},{"type":"function","name":"InstToUser","inputs":[{"name":"","type":"address","internalType":"address"}],"outputs":[{"name":"","type":"address","internalType":"address"}],"stateMutability":"view"},{"type":"function","name":"UserToInst","inputs":[{"name":"","type":"address","internalType":"address"}],"outputs":[{"name":"","type":"address","internalType":"address"}],"stateMutability":"view"},{"type":"function","name":"age","inputs":[],"outputs":[{"name":"","type":"uint256","internalType":"uint256"}],"stateMutability":"view"},{"type":"function","name":"business","inputs":[{"name":"","type":"uint256","internalType":"uint256"}],"outputs":[{"name":"","type":"uint256","internalType":"uint256"}],"stateMutability":"view"},{"type":"function","name":"effectiveRank","inputs":[{"name":"","type":"address","internalType":"address"}],"outputs":[{"name":"","type":"uint256","internalType":"uint256"}],"stateMutability":"view"},{"type":"function","name":"getEffectiveRank","inputs":[{"name":"uinst","type":"address","internalType":"address"}],"outputs":[{"name":"","type":"uint256","internalType":"uint256"}],"stateMutability":"view"},{"type":"function","name":"getNode","inputs":[{"name":"inst","type":"address","internalType":"address"}],"outputs":[{"name":"","type":"uint256","internalType":"uint256"},{"name":"","type":"address","internalType":"address"},{"name":"","type":"uint256","internalType":"uint256"},{"name":"","type":"bool","internalType":"bool"},{"name":"","type":"bool","internalType":"bool"}],"stateMutability":"view"},{"type":"function","name":"getNodeByIndex","inputs":[{"name":"index","type":"uint256","internalType":"uint256"}],"outputs":[{"name":"","type":"address","internalType":"address"}],"stateMutability":"view"},{"type":"function","name":"getNodeLB","inputs":[{"name":"uinst","type":"address","internalType":"address"},{"name":"lvl","type":"uint256","internalType":"uint256"}],"outputs":[{"name":"levelbusiness","type":"uint256","internalType":"uint256"},{"name":"levelqty","type":"uint256","internalType":"uint256"}],"stateMutability":"view"},{"type":"function","name":"getNodesCount","inputs":[],"outputs":[{"name":"","type":"uint256","internalType":"uint256"}],"stateMutability":"view"},{"type":"function","name":"getRewards","inputs":[{"name":"uinst","type":"address","internalType":"address"}],"outputs":[{"name":"rw","type":"uint256","internalType":"uint256"},{"name":"yei","type":"uint256","internalType":"uint256"}],"stateMutability":"view"},{"type":"function","name":"getbusiness","inputs":[{"name":"ag","type":"uint256","internalType":"uint256"}],"outputs":[{"name":"","type":"uint256","internalType":"uint256"}],"stateMutability":"view"},{"type":"function","name":"getnoderankage","inputs":[{"name":"uinst","type":"address","internalType":"address"},{"name":"r","type":"uint256","internalType":"uint256"}],"outputs":[{"name":"","type":"uint256","internalType":"uint256"}],"stateMutability":"view"},{"type":"function","name":"getrankCount","inputs":[{"name":"ag","type":"uint256","internalType":"uint256"},{"name":"rnk","type":"uint256","internalType":"uint256"}],"outputs":[{"name":"","type":"uint256","internalType":"uint256"}],"stateMutability":"view"},{"type":"function","name":"instances","inputs":[{"name":"","type":"uint256","internalType":"uint256"}],"outputs":[{"name":"","type":"address","internalType":"address"}],"stateMutability":"view"},{"type":"function","name":"lvlbs","inputs":[{"name":"","type":"address","internalType":"address"},{"name":"","type":"uint256","internalType":"uint256"}],"outputs":[{"name":"","type":"uint256","internalType":"uint256"}],"stateMutability":"view"},{"type":"function","name":"lvlqty","inputs":[{"name":"","type":"address","internalType":"address"},{"name":"","type":"uint256","internalType":"uint256"}],"outputs":[{"name":"","type":"uint256","internalType":"uint256"}],"stateMutability":"view"},{"type":"function","name":"mockAddNode","inputs":[{"name":"_instance","type":"address","internalType":"address"},{"name":"_user","type":"address","internalType":"address"},{"name":"_parent","type":"address","internalType":"address"},{"name":"_id","type":"uint256","internalType":"uint256"},{"name":"_stop","type":"bool","internalType":"bool"}],"outputs":[],"stateMutability":"nonpayable"},{"type":"function","name":"mockSetNodeLB","inputs":[{"name":"uinst","type":"address","internalType":"address"},{"name":"lb","type":"uint256","internalType":"uint256"},{"name":"qty","type":"uint256","internalType":"uint256"}],"outputs":[],"stateMutability":"nonpayable"},{"type":"function","name":"mockSetNodeRankAge","inputs":[{"name":"uinst","type":"address","internalType":"address"},{"name":"r","type":"uint256","internalType":"uint256"},{"name":"age_","type":"uint256","internalType":"uint256"}],"outputs":[],"stateMutability":"nonpayable"},{"type":"function","name":"nodeRankAge","inputs":[{"name":"","type":"address","internalType":"address"},{"name":"","type":"uint256","internalType":"uint256"}],"outputs":[{"name":"","type":"uint256","internalType":"uint256"}],"stateMutability":"view"},{"type":"function","name":"rankCount","inputs":[{"name":"","type":"uint256","internalType":"uint256"},{"name":"","type":"uint256","internalType":"uint256"}],"outputs":[{"name":"","type":"uint256","internalType":"uint256"}],"stateMutability":"view"}],"bytecode":{"object":"0x6080346100e35761010081016001600160401b038111828210176100cd576040526000908181526020601981830152606460408301526101f460608301526107d0608083015261138860a083015261271060c08301526161a860e0830152600b549160089283600b558084106100a7575b5090600b8452808420935b8381106100955742600a55604051610b6e90816100e98239f35b8251858201559181019160010161007b565b600b85528383862091820191015b8181106100c25750610070565b8581556001016100b5565b634e487b7160e01b600052604160045260246000fd5b600080fdfe6080604081815260048036101561001557600080fd5b600092833560e01c90816317b572c6146109f7575080631f5fa8381461027d578063247349d5146109bc57806324ba08fd146107c5578063262a9dff1461076557806326524621146101665780632fcf3eed1461072457806345145fd7146106eb578063492967931461067a5780635329daca1461061d578063591693fe146105dc57806361ea7208146105bf57806363753082146103a557806379ee54f7146102e157806380f85e33146102b557806394e3dc091461027d578063965c90e31461025d5780639d209048146101ed578063a2f7b3a5146101ab578063b3c1ad4e14610166578063ba7cf2791461013f5763eb95c6621461011557600080fd5b3461013b57602036600319011261013b5760209282913581526001845220549051908152f35b8280fd5b503461013b57602036600319011261013b5760209282913581526001845220549051908152f35b5050346101a757806003193601126101a75760209181906001600160a01b0361018d610a3b565b168152600984528181206024358252845220549051908152f35b5080fd5b503461013b57602036600319011261013b57359180548310156101ea57506101d4602092610a7b565b905491519160018060a01b039160031b1c168152f35b80fd5b50903461013b57602036600319011261013b5760a0926001600160a01b039260ff92909181908561021c610a3b565b1681526005602052209081549460018301541692600283015492015492815195865260208601528401528181161515606084015260081c1615156080820152f35b5091346101ea5760203660031901126101ea57506101d460209235610a7b565b5050346101a75760203660031901126101a75760209181906001600160a01b036102a5610a3b565b1681526008845220549051908152f35b5050346101a757806020926102c936610a20565b90825260028552828220908252845220549051908152f35b508290346101a7576020908160031936011261013b576102ff610a3b565b83906001906001600160a01b03165b600f821015610377575050808004600114811517156103645760649004926005840291848304600514851517156103515750506103e89084519384520490820152f35b634e487b7160e01b825260119052602490fd5b634e487b7160e01b845260118252602484fd5b909161039961039f918388526006875288882085895287528888205490610ac5565b92610b29565b9061030e565b50903461013b5760a036600319011261013b576103c0610a3b565b6001600160a01b03602435818116908190036105bb57604435928284168094036105b75760643595608435918215158093036105b3578416938489526020956005875261041560ff848a8d2001541615610ae8565b848a5282875281888b2054168a526005875261043960ff848a8d2001541615610ae8565b8954680100000000000000008110156105a05780600161045b92018c55610a7b565b81549060031b908489831b921b1916179055858a5260038752878a20946bffffffffffffffffffffffff60a01b9581878254161790558a52828752878a208686825416179055895280878a2054169060018901808a1161058d5788519260c0840184811067ffffffffffffffff82111761057a57908c9695949392918b528b84528984019081528a840191825260608401928784528b608086019860018a5260a087019889528b815260058d52209451855560018501915116809882541617905551600283015551600382015501915115159060ff61ff0084549251151560081b1692169061ffff191617179055855260038386200161055b8154610b29565b9055845260088152838281205560098152818420908480525282205580f35b634e487b7160e01b8d526041865260248dfd5b634e487b7160e01b8b526011845260248bfd5b634e487b7160e01b8b526041845260248bfd5b8880fd5b8680fd5b8580fd5b5050346101a757816003193601126101a757602091549051908152f35b5050346101a757806003193601126101a75760209181906001600160a01b03610603610a3b565b168152600684528181206024358252845220549051908152f35b8284346101ea57816003193601126101ea5781610638610a3b565b6001600160a01b031680835260066020908152828420602435808652908252838520549285526007825283852090855281529190922054835192835290820152f35b50903461013b5761068a36610a51565b909160018060a01b031685526008602052818386205560096020528285208286526020528083862055845260026020528184209084526020528220805491600183018093116106d857505580f35b634e487b7160e01b845260119052602483fd5b503461013b57602036600319011261013b576020926001600160a01b039183919083610715610a3b565b16825285522054169051908152f35b5050346101a757806003193601126101a75760209181906001600160a01b0361074b610a3b565b168152600784528181206024358252845220549051908152f35b509190346101a757816003193601126101a757600a5442034281116107b2576102589004916001830180931161079f576020838351908152f35b634e487b7160e01b815260118452602490fd5b634e487b7160e01b835260118452602483fd5b50903461013b5791906107d736610a51565b91909484805260019586936020908582528388206107f6848254610ac5565b905560018060a01b03809516808952600691828452858a208a80528452858a20610821868254610ac5565b9055818a52600791828552868b208b80528552868b20610842838254610ac5565b90558a526005948585528789888d20015416899c5b61085f578b80f35b88169b8c156109b8578c8c52848652878c20818d528652878c20610884838254610ac5565b90558c8c52838652878c20818d528652878c206108a2848254610ac5565b90558c8c52838652878c20818d528652878c2054600b548210156109a5578c898f92847f0175b7a638427703f0dbe7bb9bbf987a2551717b34e79f33b5b1008d1fa01db901541115918261098b575b50509050610922575b610918898b8e9f819e9f8c919d9e9d81528b8b522001541691610b29565b9c9b9a9998610857565b8c8c526008808752888d2054600019830190838211610977579b8e9f819e9f8c918e9f95849f956109189714610967575b509f5050505050509b9a999b9897986108fa565b8183528c52868383205538610953565b50634e487b7160e01b8e5260118d5260248efd5b6003925060029381528a8a5220015410158d90898e6108f1565b634e487b7160e01b8d5260328c5260248dfd5b8b80f35b5050346101a75760203660031901126101a7576020916001600160a01b03908290826109e6610a3b565b168152600385522054169051908152f35b8490843461013b57602092610a0b36610a20565b90825260028552828220908252845220548152f35b6040906003190112610a36576004359060243590565b600080fd5b600435906001600160a01b0382168203610a3657565b6060906003190112610a36576004356001600160a01b0381168103610a3657906024359060443590565b906000918254811015610ab1578280527f290decd9548b62a8d60345a988386fc84ba6bc95484008f6362f93160ef3e563019190565b634e487b7160e01b83526032600452602483fd5b91908201809211610ad257565b634e487b7160e01b600052601160045260246000fd5b15610aef57565b60405162461bcd60e51b81526020600482015260126024820152711b5bd8dacb985b1c9958591e4b985919195960721b6044820152606490fd5b6000198114610ad2576001019056fea2646970667358221220911fae40e37384a0a1bafba3418f1fca35921ab593901a6460766adbbce8542764736f6c63430008140033","linkReferences":{}},"methodIdentifiers":{"InstToUser(address)":"247349d5","UserToInst(address)":"45145fd7","age()":"262a9dff","business(uint256)":"ba7cf279","effectiveRank(address)":"94e3dc09","getEffectiveRank(address)":"1f5fa838","getNode(address)":"9d209048","getNodeByIndex(uint256)":"965c90e3","getNodeLB(address,uint256)":"5329daca","getNodesCount()":"61ea7208","getRewards(address)":"79ee54f7","getbusiness(uint256)":"eb95c662","getnoderankage(address,uint256)":"26524621","getrankCount(uint256,uint256)":"80f85e33","instances(uint256)":"a2f7b3a5","lvlbs(address,uint256)":"591693fe","lvlqty(address,uint256)":"2fcf3eed","mockAddNode(address,address,address,uint256,bool)":"63753082","mockSetNodeLB(address,uint256,uint256)":"24ba08fd","mockSetNodeRankAge(address,uint256,uint256)":"49296793","nodeRankAge(address,uint256)":"b3c1ad4e","rankCount(uint256,uint256)":"17b572c6"},"id":0}