{"abi":[{"type":"constructor","inputs":[{"name":"_mag","type":"address","internalType":"address"}],"stateMutability":"nonpayable"},{"type":"function","name":"InstToUser","inputs":[{"name":"","type":"address","internalType":"address"}],"outputs":[{"name":"","type":"address","internalType":"address"}],"stateMutability":"view"},{"type":"function","name":"UserToInst","inputs":[{"name":"","type":"address","internalType":"address"}],"outputs":[{"name":"","type":"address","internalType":"address"}],"stateMutability":"view"},{"type":"function","name":"age","inputs":[],"outputs":[{"name":"","type":"uint256","internalType":"uint256"}],"stateMutability":"view"},{"type":"function","name":"business","inputs":[{"name":"","type":"uint256","internalType":"uint256"}],"outputs":[{"name":"","type":"uint256","internalType":"uint256"}],"stateMutability":"view"},{"type":"function","name":"effectiveRank","inputs":[{"name":"","type":"address","internalType":"address"}],"outputs":[{"name":"","type":"uint256","internalType":"uint256"}],"stateMutability":"view"},{"type":"function","name":"getEffectiveRank","inputs":[{"name":"uinst","type":"address","internalType":"address"}],"outputs":[{"name":"","type":"uint256","internalType":"uint256"}],"stateMutability":"view"},{"type":"function","name":"getNode","inputs":[{"name":"inst","type":"address","internalType":"address"}],"outputs":[{"name":"","type":"uint256","internalType":"uint256"},{"name":"","type":"address","internalType":"address"},{"name":"","type":"uint256","internalType":"uint256"},{"name":"","type":"bool","internalType":"bool"},{"name":"","type":"bool","internalType":"bool"}],"stateMutability":"view"},{"type":"function","name":"getNodeByIndex","inputs":[{"name":"index","type":"uint256","internalType":"uint256"}],"outputs":[{"name":"","type":"address","internalType":"address"}],"stateMutability":"view"},{"type":"function","name":"getNodeLB","inputs":[{"name":"uinst","type":"address","internalType":"address"},{"name":"lvl","type":"uint256","internalType":"uint256"}],"outputs":[{"name":"levelbusiness","type":"uint256","internalType":"uint256"},{"name":"levelqty","type":"uint256","internalType":"uint256"}],"stateMutability":"view"},{"type":"function","name":"getNodesCount","inputs":[],"outputs":[{"name":"","type":"uint256","internalType":"uint256"}],"stateMutability":"view"},{"type":"function","name":"getRewards","inputs":[{"name":"uinst","type":"address","internalType":"address"}],"outputs":[{"name":"rw","type":"uint256","internalType":"uint256"},{"name":"yei","type":"uint256","internalType":"uint256"}],"stateMutability":"view"},{"type":"function","name":"getbusiness","inputs":[{"name":"ag","type":"uint256","internalType":"uint256"}],"outputs":[{"name":"","type":"uint256","internalType":"uint256"}],"stateMutability":"view"},{"type":"function","name":"getnoderankage","inputs":[{"name":"uinst","type":"address","internalType":"address"},{"name":"r","type":"uint256","internalType":"uint256"}],"outputs":[{"name":"","type":"uint256","internalType":"uint256"}],"stateMutability":"view"},{"type":"function","name":"getrankCount","inputs":[{"name":"ag","type":"uint256","internalType":"uint256"},{"name":"rnk","type":"uint256","internalType":"uint256"}],"outputs":[{"name":"","type":"uint256","internalType":"uint256"}],"stateMutability":"view"},{"type":"function","name":"instances","inputs":[{"name":"","type":"uint256","internalType":"uint256"}],"outputs":[{"name":"","type":"address","internalType":"address"}],"stateMutability":"view"},{"type":"function","name":"lvlbs","inputs":[{"name":"","type":"address","internalType":"address"},{"name":"","type":"uint256","internalType":"uint256"}],"outputs":[{"name":"","type":"uint256","internalType":"uint256"}],"stateMutability":"view"},{"type":"function","name":"lvlqty","inputs":[{"name":"","type":"address","internalType":"address"},{"name":"","type":"uint256","internalType":"uint256"}],"outputs":[{"name":"","type":"uint256","internalType":"uint256"}],"stateMutability":"view"},{"type":"function","name":"mockAddNode","inputs":[{"name":"_instance","type":"address","internalType":"address"},{"name":"_user","type":"address","internalType":"address"},{"name":"_parent","type":"address","internalType":"address"},{"name":"_id","type":"uint256","internalType":"uint256"},{"name":"_stop","type":"bool","internalType":"bool"},{"name":"_cage","type":"uint256","internalType":"uint256"}],"outputs":[],"stateMutability":"nonpayable"},{"type":"function","name":"mockSetNodeLB","inputs":[{"name":"uinst","type":"address","internalType":"address"},{"name":"lb","type":"uint256","internalType":"uint256"},{"name":"qty","type":"uint256","internalType":"uint256"}],"outputs":[],"stateMutability":"nonpayable"},{"type":"function","name":"mockSetNodeRankAge","inputs":[{"name":"uinst","type":"address","internalType":"address"},{"name":"r","type":"uint256","internalType":"uint256"},{"name":"age_","type":"uint256","internalType":"uint256"}],"outputs":[],"stateMutability":"nonpayable"},{"type":"function","name":"nodeRankAge","inputs":[{"name":"","type":"address","internalType":"address"},{"name":"","type":"uint256","internalType":"uint256"}],"outputs":[{"name":"","type":"uint256","internalType":"uint256"}],"stateMutability":"view"},{"type":"function","name":"rankCount","inputs":[{"name":"","type":"uint256","internalType":"uint256"},{"name":"","type":"uint256","internalType":"uint256"}],"outputs":[{"name":"","type":"uint256","internalType":"uint256"}],"stateMutability":"view"}],"bytecode":{"object":"0x60803461013d576001600160401b03610c9e38819003601f8101601f19168401838111858210176101275784928291604052833960209384918101031261013d57516001600160a01b038116929083900361013d5760405191610100830190811183821017610127576040526000808352601982840152606460408401526101f460608401526107d0608084015261138860a084015261271060c08401526161a860e0840152600c549260089384600c55808510610101575b5091600c8252808220915b8481106100ef5742600b55600680546001600160a01b03191687179055604051610b5b90816101438239f35b835183820155928101926001016100c3565b600c83528484842091820191015b81811061011c57506100b8565b83815560010161010f565b634e487b7160e01b600052604160045260246000fd5b600080fdfe6040608081526004908136101561001557600080fd5b600091823560e01c806311f252e71461083657806317b572c6146102b35780631f5fa8381461027b578063247349d5146107fb57806324ba08fd14610605578063262a9dff1461054957806326524621146101645780632fcf3eed1461050857806345145fd7146104cf578063492967931461045e5780635329daca14610401578063591693fe146103c057806361ea7208146103a357806379ee54f7146102df57806380f85e33146102b357806394e3dc091461027b578063965c90e31461025b5780639d209048146101eb578063a2f7b3a5146101a9578063b3c1ad4e14610164578063ba7cf2791461013d5763eb95c6621461011357600080fd5b346101395760203660031901126101395760209282913581526001845220549051908152f35b8280fd5b50346101395760203660031901126101395760209282913581526001845220549051908152f35b5050346101a557806003193601126101a55760209181906001600160a01b0361018b610a2a565b168152600a84528181206024358252845220549051908152f35b5080fd5b503461013957602036600319011261013957359180548310156101e857506101d2602092610a85565b905491519160018060a01b039160031b1c168152f35b80fd5b5090346101395760203660031901126101395760a0926001600160a01b039260ff92909181908561021a610a2a565b1681526005602052209081549460018301541692600283015492015492815195865260208601528401528181161515606084015260081c1615156080820152f35b5091346101e85760203660031901126101e857506101d260209235610a85565b5050346101a55760203660031901126101a55760209181906001600160a01b036102a3610a2a565b1681526009845220549051908152f35b5050346101a557806020926102c736610a45565b90825260028552828220908252845220549051908152f35b508290346101a55760209081600319360112610139576102fd610a2a565b83906001906001600160a01b03165b600f8210156103755750508080046001148115171561036257606490049260058402918483046005148515171561034f5750506103e89084519384520490820152f35b634e487b7160e01b825260119052602490fd5b634e487b7160e01b845260118252602484fd5b909161039761039d918388526007875288882085895287528888205490610b18565b92610af3565b9061030c565b5050346101a557816003193601126101a557602091549051908152f35b5050346101a557806003193601126101a55760209181906001600160a01b036103e7610a2a565b168152600784528181206024358252845220549051908152f35b8284346101e857816003193601126101e8578161041c610a2a565b6001600160a01b031680835260076020908152828420602435808652908252838520549285526008825283852090855281529190922054835192835290820152f35b5090346101395761046e36610a5b565b909160018060a01b0316855260096020528183862055600a6020528285208286526020528083862055845260026020528184209084526020528220805491600183018093116104bc57505580f35b634e487b7160e01b845260119052602483fd5b5034610139576020366003190112610139576020926001600160a01b0391839190836104f9610a2a565b16825285522054169051908152f35b5050346101a557806003193601126101a55760209181906001600160a01b0361052f610a2a565b168152600884528181206024358252845220549051908152f35b509034610139578260031936011261013957600654815163262a9dff60e01b8152906020908290859082906001600160a01b03165afa9283156105fb578493610597575b6020848451908152f35b909192506020903d82116105f3575b601f8201601f19168301906001600160401b038211848310176105e05750602091839185528101031261013957602092505190388061058d565b634e487b7160e01b865260419052602485fd5b3d91506105a6565b82513d86823e3d90fd5b50903461013957919061061736610a5b565b9190948480526001958693602090858252838820610636848254610b18565b905560018060a01b0380951690818952600791828452858a208a80528452858a20610662868254610b18565b9055808a52600890818552868b208b80528552868b20610683848254610b18565b90558a526005948585528789888d20015416899c5b6106a0578b80f35b88169b8c156107f7578c8c52848652878c20818d528652878c206106c5838254610b18565b90558c8c52828652878c20818d528652878c206106e3858254610b18565b90558c8c52828652878c20818d528652878c2054600c80548310156107e4578d52868d208201548e911015898e826107ca575b50509050610747575b61073d898b8e9f819e9f8c919d9e9d81528b8b522001541691610af3565b9c9b9a9998610698565b8c8c526009808752888d20546000198301908382116107b6579b8e9f819e9f8c918e9f95849f9561073d97146107a6575b818352600a8d52838320908d528383205483528c529190209188901c9091559e9d9c50999a995061071f9050565b818352808d528784842055610778565b50634e487b7160e01b8e5260118d5260248efd5b6003925060029381528a8a5220015410158d90898e610716565b634e487b7160e01b8e5260328d5260248efd5b8b80f35b5050346101a55760203660031901126101a5576020916001600160a01b0390829082610825610a2a565b168152600385522054169051908152f35b5090346101395760c036600319011261013957610851610a2a565b6001600160a01b0360243581811690819003610a265760443592828416809403610a22576064359560843591821515809303610a1e57841693848952602095600587526108a660ff848a8d2001541615610ab2565b848a5282875281888b2054168a52600587526108ca60ff848a8d2001541615610ab2565b8954600160401b811015610a0b578060016108e792018c55610a85565b8154600391821b85811b199091169089901b17909155868b528752878a2080546001600160a01b03199081168717909155948a52828752878a20805486168717905589528689205487519190811660c083016001600160401b038111848210176109f857908b95949392918a528a83528883019081528983019060a435825260608401928784528b608086019860018a5260a087019889528b815260058d52209451855560018501915116809882541617905551600283015551600382015501915115159060ff61ff0084549251151560081b1692169061ffff19161717905585526003838620016109d98154610af3565b90558452600981528382812055600a8152818420908480525282205580f35b634e487b7160e01b8c526041855260248cfd5b634e487b7160e01b8b526041845260248bfd5b8880fd5b8680fd5b8580fd5b600435906001600160a01b0382168203610a4057565b600080fd5b6040906003190112610a40576004359060243590565b6060906003190112610a40576004356001600160a01b0381168103610a4057906024359060443590565b906000918254811015610a9e5782805260208320019190565b634e487b7160e01b83526032600452602483fd5b15610ab957565b60405162461bcd60e51b81526020600482015260126024820152711b5bd8dacb985b1c9958591e4b985919195960721b6044820152606490fd5b6000198114610b025760010190565b634e487b7160e01b600052601160045260246000fd5b91908201809211610b025756fea2646970667358221220b6b3057fe73681e9e51beee0e9f2a0c71c289722fa459d949630aaa5c749bbc664736f6c63430008140033","linkReferences":{}},"methodIdentifiers":{"InstToUser(address)":"247349d5","UserToInst(address)":"45145fd7","age()":"262a9dff","business(uint256)":"ba7cf279","effectiveRank(address)":"94e3dc09","getEffectiveRank(address)":"1f5fa838","getNode(address)":"9d209048","getNodeByIndex(uint256)":"965c90e3","getNodeLB(address,uint256)":"5329daca","getNodesCount()":"61ea7208","getRewards(address)":"79ee54f7","getbusiness(uint256)":"eb95c662","getnoderankage(address,uint256)":"26524621","getrankCount(uint256,uint256)":"80f85e33","instances(uint256)":"a2f7b3a5","lvlbs(address,uint256)":"591693fe","lvlqty(address,uint256)":"2fcf3eed","mockAddNode(address,address,address,uint256,bool,uint256)":"11f252e7","mockSetNodeLB(address,uint256,uint256)":"24ba08fd","mockSetNodeRankAge(address,uint256,uint256)":"49296793","nodeRankAge(address,uint256)":"b3c1ad4e","rankCount(uint256,uint256)":"17b572c6"},"id":0}