{"abi":[{"type":"constructor","inputs":[{"name":"_mag","type":"address","internalType":"address"}],"stateMutability":"nonpayable"},{"type":"function","name":"InstToUser","inputs":[{"name":"","type":"address","internalType":"address"}],"outputs":[{"name":"","type":"address","internalType":"address"}],"stateMutability":"view"},{"type":"function","name":"UserToInst","inputs":[{"name":"","type":"address","internalType":"address"}],"outputs":[{"name":"","type":"address","internalType":"address"}],"stateMutability":"view"},{"type":"function","name":"age","inputs":[],"outputs":[{"name":"","type":"uint256","internalType":"uint256"}],"stateMutability":"view"},{"type":"function","name":"business","inputs":[{"name":"","type":"uint256","internalType":"uint256"}],"outputs":[{"name":"","type":"uint256","internalType":"uint256"}],"stateMutability":"view"},{"type":"function","name":"effectiveRank","inputs":[{"name":"","type":"address","internalType":"address"}],"outputs":[{"name":"","type":"uint256","internalType":"uint256"}],"stateMutability":"view"},{"type":"function","name":"getEffectiveRank","inputs":[{"name":"uinst","type":"address","internalType":"address"}],"outputs":[{"name":"","type":"uint256","internalType":"uint256"}],"stateMutability":"view"},{"type":"function","name":"getNode","inputs":[{"name":"inst","type":"address","internalType":"address"}],"outputs":[{"name":"","type":"uint256","internalType":"uint256"},{"name":"","type":"address","internalType":"address"},{"name":"","type":"uint256","internalType":"uint256"},{"name":"","type":"bool","internalType":"bool"},{"name":"","type":"bool","internalType":"bool"}],"stateMutability":"view"},{"type":"function","name":"getNodeByIndex","inputs":[{"name":"index","type":"uint256","internalType":"uint256"}],"outputs":[{"name":"","type":"address","internalType":"address"}],"stateMutability":"view"},{"type":"function","name":"getNodeLB","inputs":[{"name":"uinst","type":"address","internalType":"address"},{"name":"lvl","type":"uint256","internalType":"uint256"}],"outputs":[{"name":"levelbusiness","type":"uint256","internalType":"uint256"},{"name":"levelqty","type":"uint256","internalType":"uint256"}],"stateMutability":"view"},{"type":"function","name":"getNodesCount","inputs":[],"outputs":[{"name":"","type":"uint256","internalType":"uint256"}],"stateMutability":"view"},{"type":"function","name":"getRewards","inputs":[{"name":"uinst","type":"address","internalType":"address"}],"outputs":[{"name":"rw","type":"uint256","internalType":"uint256"},{"name":"yei","type":"uint256","internalType":"uint256"}],"stateMutability":"view"},{"type":"function","name":"getbusiness","inputs":[{"name":"ag","type":"uint256","internalType":"uint256"}],"outputs":[{"name":"","type":"uint256","internalType":"uint256"}],"stateMutability":"view"},{"type":"function","name":"getnoderankage","inputs":[{"name":"uinst","type":"address","internalType":"address"},{"name":"r","type":"uint256","internalType":"uint256"}],"outputs":[{"name":"","type":"uint256","internalType":"uint256"}],"stateMutability":"view"},{"type":"function","name":"getrankCount","inputs":[{"name":"ag","type":"uint256","internalType":"uint256"},{"name":"rnk","type":"uint256","internalType":"uint256"}],"outputs":[{"name":"","type":"uint256","internalType":"uint256"}],"stateMutability":"view"},{"type":"function","name":"instances","inputs":[{"name":"","type":"uint256","internalType":"uint256"}],"outputs":[{"name":"","type":"address","internalType":"address"}],"stateMutability":"view"},{"type":"function","name":"lvlbs","inputs":[{"name":"","type":"address","internalType":"address"},{"name":"","type":"uint256","internalType":"uint256"}],"outputs":[{"name":"","type":"uint256","internalType":"uint256"}],"stateMutability":"view"},{"type":"function","name":"lvlqty","inputs":[{"name":"","type":"address","internalType":"address"},{"name":"","type":"uint256","internalType":"uint256"}],"outputs":[{"name":"","type":"uint256","internalType":"uint256"}],"stateMutability":"view"},{"type":"function","name":"mockAddNode","inputs":[{"name":"_instance","type":"address","internalType":"address"},{"name":"_user","type":"address","internalType":"address"},{"name":"_parent","type":"address","internalType":"address"},{"name":"_id","type":"uint256","internalType":"uint256"},{"name":"_stop","type":"bool","internalType":"bool"},{"name":"_cage","type":"uint256","internalType":"uint256"}],"outputs":[],"stateMutability":"nonpayable"},{"type":"function","name":"mockSetNodeLB","inputs":[{"name":"uinst","type":"address","internalType":"address"},{"name":"lb","type":"uint256","internalType":"uint256"},{"name":"qty","type":"uint256","internalType":"uint256"}],"outputs":[],"stateMutability":"nonpayable"},{"type":"function","name":"mockSetNodeRankAge","inputs":[{"name":"uinst","type":"address","internalType":"address"},{"name":"r","type":"uint256","internalType":"uint256"},{"name":"age_","type":"uint256","internalType":"uint256"}],"outputs":[],"stateMutability":"nonpayable"},{"type":"function","name":"nodeRankAge","inputs":[{"name":"","type":"address","internalType":"address"},{"name":"","type":"uint256","internalType":"uint256"}],"outputs":[{"name":"","type":"uint256","internalType":"uint256"}],"stateMutability":"view"},{"type":"function","name":"rankCount","inputs":[{"name":"","type":"uint256","internalType":"uint256"},{"name":"","type":"uint256","internalType":"uint256"}],"outputs":[{"name":"","type":"uint256","internalType":"uint256"}],"stateMutability":"view"}],"bytecode":{"object":"0x60803461013d576001600160401b03610d3238819003601f8101601f19168401838111858210176101275784928291604052833960209384918101031261013d57516001600160a01b038116929083900361013d5760405191610100830190811183821017610127576040526000808352601982840152606460408401526101f460608401526107d0608084015261138860a084015261271060c08401526161a860e0840152600c549260089384600c55808510610101575b5091600c8252808220915b8481106100ef5742600b55600680546001600160a01b03191687179055604051610bef90816101438239f35b835183820155928101926001016100c3565b600c83528484842091820191015b81811061011c57506100b8565b83815560010161010f565b634e487b7160e01b600052604160045260246000fd5b600080fdfe6040608081526004908136101561001557600080fd5b600091823560e01c806311f252e71461086e57806317b572c6146102b85780631f5fa83814610281578063247349d51461083457806324ba08fd14610621578063262a9dff1461054e57806326524621146101645780632fcf3eed1461050e57806345145fd7146104d757806349296793146104635780635329daca14610405578063591693fe146103c557806361ea7208146103a857806379ee54f7146102e457806380f85e33146102b857806394e3dc0914610281578063965c90e3146102595780639d209048146101eb578063a2f7b3a5146101a8578063b3c1ad4e14610164578063ba7cf2791461013d5763eb95c6621461011357600080fd5b346101395760203660031901126101395760209282913581526001845220549051908152f35b8280fd5b50346101395760203660031901126101395760209282913581526001845220549051908152f35b5050346101a457806003193601126101a457806020926001600160a01b0361018a610a7d565b168152600a84528181206024358252845220549051908152f35b5080fd5b503461013957602036600319011261013957359180548310156101e857506001600160a01b036101d9602093610ad8565b92905490519260031b1c168152f35b80fd5b5090346101395760203660031901126101395760a092918160ff926001600160a01b039485610218610a7d565b1681526005602052209081549460018301541692600283015492015492815195865260208601528401528181161515606084015260081c1615156080820152f35b5091346101e85760203660031901126101e857506001600160a01b036101d960209335610ad8565b5050346101a45760203660031901126101a457806020926001600160a01b036102a8610a7d565b1681526009845220549051908152f35b5050346101a457806020926102cc36610a98565b90825260028552828220908252845220549051908152f35b508290346101a4576020908160031936011261013957610302610a7d565b83906001600160a01b03600191165b600f82101561037a575050808004600114811517156103675760649004926005840291848304600514851517156103545750506103e89084519384520490820152f35b906011602492634e487b7160e01b835252fd5b602484601184634e487b7160e01b835252fd5b909161039c6103a2918388526007875288882085895287528888205490610bac565b92610b87565b90610311565b5050346101a457816003193601126101a457602091549051908152f35b5050346101a457806003193601126101a457806020926001600160a01b036103eb610a7d565b168152600784528181206024358252845220549051908152f35b8284346101e857816003193601126101e85781610420610a7d565b916001600160a01b036024359316928382526007602052828220818352602052828220549382526008602052828220908252602052205482519182526020820152f35b509034610139576001600160a01b0361047b36610aae565b9192909216855260096020528183862055600a6020528285208286526020528083862055845260026020528184209084526020528220805491600183018093116104c457505580f35b836011602492634e487b7160e01b835252fd5b503461013957602036600319011261013957816020936001600160a01b0392836104ff610a7d565b16825285522054169051908152f35b5050346101a457806003193601126101a457806020926001600160a01b03610534610a7d565b168152600884528181206024358252845220549051908152f35b5090346101395782600319360112610139578160206001600160a01b03600654168351928380927f262a9dff0000000000000000000000000000000000000000000000000000000082525afa9283156106175784936105b2575b6020848451908152f35b909192506020903d821161060f575b601f8201601f191683019067ffffffffffffffff8211848310176105fc575060209183918552810103126101395760209250519038806105a8565b856041602492634e487b7160e01b835252fd5b3d91506105c1565b82513d86823e3d90fd5b50903461013957919061063336610aae565b9190948480526001958693602090858252838820610652848254610bac565b90556001600160a01b0380951690818952600791828452858a208a80528452858a2061067f868254610bac565b9055808a52600890818552868b208b80528552868b206106a0848254610bac565b90558a526005948585528789888d20015416899c5b6106bd578b80f35b88169b8c15610830578c8c52848652878c20818d528652878c206106e2838254610bac565b90558c8c52828652878c20818d528652878c20610700858254610bac565b90558c8c52828652878c20818d528652878c2054600c5482101561081d578c898f92847fdf6966c971051c3d54ec59162606531493a51404a002842f56009d7e5cf4a8c7015411159182610803575b50509050610780575b610776898b8e9f819e9f8c919d9e9d81528b8b522001541691610b87565b9c9b9a99986106b5565b8c8c526009808752888d20546000198301908382116107ef579b8e9f819e9f8c918e9f95849f9561077697146107df575b818352600a8d52838320908d528383205483528c529190209188901c9091559e9d9c50999a99506107589050565b818352808d5287848420556107b1565b5060248e60118f634e487b7160e01b835252fd5b6003925060029381528a8a5220015410158d90898e61074f565b60248d60328e634e487b7160e01b835252fd5b8b80f35b5050346101a45760203660031901126101a457602091816001600160a01b03918261085d610a7d565b168152600385522054169051908152f35b5090346101395760c036600319011261013957610889610a7d565b6024356001600160a01b0390818116809103610a795760443592828416809403610a75576064359560843591821515809303610a7157841693848952602095600587526108de60ff848a8d2001541615610b22565b848a5282875281888b2054168a526005875261090260ff848a8d2001541615610b22565b895468010000000000000000811015610a5e5780600161092492018c55610ad8565b81549060031b908489831b921b1916179055858a5260038752878a20947fffffffffffffffffffffffff00000000000000000000000000000000000000009581878254161790558a52828752878a208686825416179055895280878a2054169087519160c0830183811067ffffffffffffffff821117610a4b57908b95949392918a528a83528883019081528983019060a435825260608401928784528b608086019860018a5260a087019889528b815260058d52209451855560018501915116809882541617905551600283015551600382015501915115159060ff61ff0084549251151560081b1692169061ffff1916171790558552600383862001610a2c8154610b87565b90558452600981528382812055600a8152818420908480525282205580f35b60248c604187634e487b7160e01b835252fd5b60248b604186634e487b7160e01b835252fd5b8880fd5b8680fd5b8580fd5b600435906001600160a01b0382168203610a9357565b600080fd5b6040906003190112610a93576004359060243590565b6060906003190112610a93576004356001600160a01b0381168103610a9357906024359060443590565b906000918254811015610b0e578280527f290decd9548b62a8d60345a988386fc84ba6bc95484008f6362f93160ef3e563019190565b602483634e487b7160e01b81526032600452fd5b15610b2957565b60646040517f08c379a000000000000000000000000000000000000000000000000000000000815260206004820152601260248201527f6d6f636b2e616c72656164792e616464656400000000000000000000000000006044820152fd5b6000198114610b965760010190565b634e487b7160e01b600052601160045260246000fd5b91908201809211610b965756fea26469706673582212203712ecbf89ab0a24e51f2069b4404e7ab5da92ebec4640ad2151aad73af3b08364736f6c63430008140033","linkReferences":{}},"methodIdentifiers":{"InstToUser(address)":"247349d5","UserToInst(address)":"45145fd7","age()":"262a9dff","business(uint256)":"ba7cf279","effectiveRank(address)":"94e3dc09","getEffectiveRank(address)":"1f5fa838","getNode(address)":"9d209048","getNodeByIndex(uint256)":"965c90e3","getNodeLB(address,uint256)":"5329daca","getNodesCount()":"61ea7208","getRewards(address)":"79ee54f7","getbusiness(uint256)":"eb95c662","getnoderankage(address,uint256)":"26524621","getrankCount(uint256,uint256)":"80f85e33","instances(uint256)":"a2f7b3a5","lvlbs(address,uint256)":"591693fe","lvlqty(address,uint256)":"2fcf3eed","mockAddNode(address,address,address,uint256,bool,uint256)":"11f252e7","mockSetNodeLB(address,uint256,uint256)":"24ba08fd","mockSetNodeRankAge(address,uint256,uint256)":"49296793","nodeRankAge(address,uint256)":"b3c1ad4e","rankCount(uint256,uint256)":"17b572c6"},"id":74}