{"abi":[{"type":"constructor","inputs":[{"name":"age_","type":"uint256","internalType":"uint256"},{"name":"qty_","type":"uint256","internalType":"uint256"},{"name":"amt_","type":"uint256","internalType":"uint256"}],"stateMutability":"nonpayable"},{"type":"function","name":"_mintAmt","inputs":[],"outputs":[{"name":"","type":"uint256","internalType":"uint256"}],"stateMutability":"view"},{"type":"function","name":"_mintedAge","inputs":[],"outputs":[{"name":"","type":"uint256","internalType":"uint256"}],"stateMutability":"view"},{"type":"function","name":"_mintedQty","inputs":[],"outputs":[{"name":"","type":"uint256","internalType":"uint256"}],"stateMutability":"view"},{"type":"function","name":"ids","inputs":[{"name":"i","type":"uint256","internalType":"uint256"}],"outputs":[{"name":"","type":"uint256","internalType":"uint256"}],"stateMutability":"view"},{"type":"function","name":"mintAmt","inputs":[],"outputs":[{"name":"","type":"uint256","internalType":"uint256"}],"stateMutability":"view"},{"type":"function","name":"mintedAge","inputs":[],"outputs":[{"name":"","type":"uint256","internalType":"uint256"}],"stateMutability":"view"},{"type":"function","name":"mintedqty","inputs":[],"outputs":[{"name":"","type":"uint256","internalType":"uint256"}],"stateMutability":"view"}],"bytecode":{"object":"0x6080346100bd57601f61023a38819003918201601f19168301916001600160401b038311848410176100c2578084926060946040528339810103126100bd5780519060406020820151910151906000928355600155600255600354680100000000000000008110156100a95760018101806003558110156100955760208260036002945220015560405161016190816100d98239f35b634e487b7160e01b82526032600452602482fd5b634e487b7160e01b82526041600452602482fd5b600080fd5b634e487b7160e01b600052604160045260246000fdfe60806040818152600436101561001457600080fd5b600091823560e01c908163085a8cca1461010f575080636c51797b146100f15780638c5164dc146100d3578063c3295006146100b7578063d92f24ae146100d3578063f9ffedb7146100b75763fac333ac1461006f57600080fd5b346100b35760203660031901126100b35760043560035481101561009f5760208360038295522001549051908152f35b634e487b7160e01b83526032600452602483fd5b5080fd5b50346100b357816003193601126100b357602091549051908152f35b50346100b357816003193601126100b3576020906002549051908152f35b50346100b357816003193601126100b3576020906001549051908152f35b8390346100b357816003193601126100b3576020906001548152f3fea2646970667358221220fc12722a8a7305f7a5341e0ca20b1a0235039d2f061fd5dd5089506b3d39793464736f6c63430008140033","linkReferences":{}},"methodIdentifiers":{"_mintAmt()":"8c5164dc","_mintedAge()":"c3295006","_mintedQty()":"085a8cca","ids(uint256)":"fac333ac","mintAmt()":"d92f24ae","mintedAge()":"f9ffedb7","mintedqty()":"6c51797b"},"id":0}