{"abi":[{"type":"constructor","inputs":[{"name":"age_","type":"uint256","internalType":"uint256"},{"name":"qty_","type":"uint256","internalType":"uint256"},{"name":"amt_","type":"uint256","internalType":"uint256"}],"stateMutability":"nonpayable"},{"type":"function","name":"_mintAmt","inputs":[],"outputs":[{"name":"","type":"uint256","internalType":"uint256"}],"stateMutability":"view"},{"type":"function","name":"_mintedAge","inputs":[],"outputs":[{"name":"","type":"uint256","internalType":"uint256"}],"stateMutability":"view"},{"type":"function","name":"_mintedQty","inputs":[],"outputs":[{"name":"","type":"uint256","internalType":"uint256"}],"stateMutability":"view"},{"type":"function","name":"ids","inputs":[{"name":"i","type":"uint256","internalType":"uint256"}],"outputs":[{"name":"","type":"uint256","internalType":"uint256"}],"stateMutability":"view"},{"type":"function","name":"mintAmt","inputs":[],"outputs":[{"name":"","type":"uint256","internalType":"uint256"}],"stateMutability":"view"},{"type":"function","name":"mintedAge","inputs":[],"outputs":[{"name":"","type":"uint256","internalType":"uint256"}],"stateMutability":"view"},{"type":"function","name":"mintedqty","inputs":[],"outputs":[{"name":"","type":"uint256","internalType":"uint256"}],"stateMutability":"view"}],"bytecode":{"object":"0x6080346100bd57601f61027138819003918201601f19168301916001600160401b038311848410176100c2578084926060946040528339810103126100bd5780519060406020820151910151906000928355600155600255600354680100000000000000008110156100a95760018101806003558110156100955760208260036002945220015560405161019890816100d98239f35b634e487b7160e01b82526032600452602482fd5b634e487b7160e01b82526041600452602482fd5b600080fd5b634e487b7160e01b600052604160045260246000fdfe60806040818152600436101561001457600080fd5b600091823560e01c908163085a8cca14610146575080636c51797b146101285780638c5164dc1461010a578063c3295006146100ee578063d92f24ae1461010a578063f9ffedb7146100ee5763fac333ac1461006f57600080fd5b346100ea5760203660031901126100ea576004356003548110156100bd576003602093527fc2575a0e9e593c00f959f8c92f12db2869c3395a3b0502d05e2516446f71f85b01549051908152f35b6024837f4e487b710000000000000000000000000000000000000000000000000000000081526032600452fd5b5080fd5b50346100ea57816003193601126100ea57602091549051908152f35b50346100ea57816003193601126100ea576020906002549051908152f35b50346100ea57816003193601126100ea576020906001549051908152f35b8390346100ea57816003193601126100ea576020906001548152f3fea2646970667358221220015ab06ca451900e9422ac1329bb78e03db97848740ca8dcb99520143ad7e1ca64736f6c63430008140033","linkReferences":{}},"methodIdentifiers":{"_mintAmt()":"8c5164dc","_mintedAge()":"c3295006","_mintedQty()":"085a8cca","ids(uint256)":"fac333ac","mintAmt()":"d92f24ae","mintedAge()":"f9ffedb7","mintedqty()":"6c51797b"},"id":73}