{"abi":[{"type":"constructor","inputs":[{"name":"_own","type":"address","internalType":"address"},{"name":"_cage","type":"uint256","internalType":"uint256"}],"stateMutability":"nonpayable"},{"type":"function","name":"LSB","inputs":[{"name":"_cage","type":"uint256","internalType":"uint256"}],"outputs":[{"name":"","type":"int256","internalType":"int256"}],"stateMutability":"view"},{"type":"function","name":"Txn","inputs":[{"name":"","type":"address","internalType":"address"},{"name":"","type":"uint256","internalType":"uint256"},{"name":"","type":"uint256","internalType":"uint256"},{"name":"","type":"uint256","internalType":"uint256"}],"outputs":[{"name":"","type":"int8","internalType":"int8"}],"stateMutability":"payable"},{"type":"function","name":"bonus","inputs":[],"outputs":[{"name":"","type":"uint256","internalType":"uint256"}],"stateMutability":"view"},{"type":"function","name":"bonusVal","inputs":[],"outputs":[{"name":"","type":"uint256","internalType":"uint256"}],"stateMutability":"view"},{"type":"function","name":"cage","inputs":[],"outputs":[{"name":"","type":"uint256","internalType":"uint256"}],"stateMutability":"view"},{"type":"function","name":"cageVal","inputs":[],"outputs":[{"name":"","type":"uint256","internalType":"uint256"}],"stateMutability":"view"},{"type":"function","name":"drawn","inputs":[],"outputs":[{"name":"","type":"uint256","internalType":"uint256"},{"name":"","type":"uint256","internalType":"uint256"},{"name":"","type":"uint256","internalType":"uint256"},{"name":"","type":"uint256","internalType":"uint256"},{"name":"","type":"uint256","internalType":"uint256"},{"name":"","type":"uint256","internalType":"uint256"}],"stateMutability":"pure"},{"type":"function","name":"drawnAgeVal","inputs":[],"outputs":[{"name":"","type":"uint256","internalType":"uint256"}],"stateMutability":"view"},{"type":"function","name":"drawnage","inputs":[],"outputs":[{"name":"","type":"uint256","internalType":"uint256"}],"stateMutability":"view"},{"type":"function","name":"mintCount","inputs":[],"outputs":[{"name":"","type":"uint256","internalType":"uint256"}],"stateMutability":"view"},{"type":"function","name":"mintCountVal","inputs":[],"outputs":[{"name":"","type":"uint256","internalType":"uint256"}],"stateMutability":"view"},{"type":"function","name":"minted","inputs":[{"name":"","type":"uint256","internalType":"uint256"}],"outputs":[{"name":"","type":"address","internalType":"address"}],"stateMutability":"view"},{"type":"function","name":"mints","inputs":[{"name":"i","type":"uint256","internalType":"uint256"}],"outputs":[{"name":"","type":"address","internalType":"address"}],"stateMutability":"view"},{"type":"function","name":"mockClaim","inputs":[{"name":"_claimedAge","type":"uint256","internalType":"uint256"}],"outputs":[],"stateMutability":"nonpayable"},{"type":"function","name":"mockMint","inputs":[{"name":"_ag","type":"uint256","internalType":"uint256"}],"outputs":[],"stateMutability":"payable"},{"type":"function","name":"transferOwner","inputs":[{"name":"own","type":"address","internalType":"address"}],"outputs":[],"stateMutability":"nonpayable"}],"bytecode":{"object":"0x60803461009d57601f61082a38819003918201601f19168301916001600160401b038311848410176100a257808492604094855283398101031261009d5780516001600160a01b038116919082900361009d5760200151600680546001600160a01b031916909217909155600181019081106100875760025560405161077190816100b98239f35b634e487b7160e01b600052601160045260246000fd5b600080fd5b634e487b7160e01b600052604160045260246000fdfe608060408181526004918236101561001657600080fd5b600092833560e01c91826326ac2f0314610313575081634fb2e45d146102d55781636350b2c21461029457816366fb5f7a1461027557816368c6bb68146101d657816369245009146101f357816375b4d78c146102125781637dc0bf3f1461023157816383125b9e146102125781638407b8fb146101f35781639659867e146101d6578163a3e884b014610183578163a969ccef14610158578163a98bf4f91461012d57508063fcbff1351461010f5763fd915ef2146100d557600080fd5b3461010b578160031936011261010b578160c09282519281845281602085015283015280606083015280608083015260a0820152f35b5080fd5b503461010b578160031936011261010b576020906003549051908152f35b90503461015457602036600319011261015457602092818392358252845220549051908152f35b8280fd5b9190503461015457602036600319011261015457816302160ec0923580600355845260205282205580f35b5050608036600319011261010b5761019961047b565b508180808060018060a01b036006541647908282156101cd575bf1156101c3576020905160018152f35b51903d90823e3d90fd5b506108fc6101b3565b50503461010b578160031936011261010b57602091549051908152f35b50503461010b578160031936011261010b576020906002549051908152f35b50503461010b578160031936011261010b576020906001549051908152f35b905034610154576020366003190112610154573591600554831015610272575061025c602092610496565b905491519160018060a01b039160031b1c168152f35b80fd5b50503461010b578160031936011261010b576020906003549051908152f35b8284346102725760203660031901126102725782359260001984019384116102c25760208361025c86610496565b634e487b7160e01b825260119052602490fd5b8334610272576020366003190112610272576001600160a01b036102f761047b565b166bffffffffffffffffffffffff60a01b600654161760065580f35b9091506020366003190112610477578135906102588082019082821067ffffffffffffffff8311176104645760609183916104e483396001815260056020820152348782015203019085f092831561045b5760233402348104602314341517156104225761271090049160028101908181116104355781875284602052838388205583870393600160ff1b8114600116610448576000198505036104355761025a0180911161042257855282602052842055600554906801000000000000000082101561040f57508060016103eb9201600555610496565b819291549060031b9160018060a01b03809116831b921b1916179055600554815580f35b634e487b7160e01b845260419052602483fd5b634e487b7160e01b865260118452602486fd5b634e487b7160e01b875260118552602487fd5b634e487b7160e01b885260118652602488fd5b513d85823e3d90fd5b634e487b7160e01b875260418552602487fd5b8380fd5b600435906001600160a01b038216820361049157565b600080fd5b6005548110156104cd5760056000527f036b6384b5eca791c62761152d0c79bb0604c104a5fb6f4eb0703f3154bb3db00190600090565b634e487b7160e01b600052603260045260246000fdfe6080346100bd57601f61025838819003918201601f19168301916001600160401b038311848410176100c2578084926060946040528339810103126100bd5780519060406020820151910151906000928355600155600255600354680100000000000000008110156100a95760018101806003558110156100955760208260036002945220015560405161017f90816100d98239f35b634e487b7160e01b82526032600452602482fd5b634e487b7160e01b82526041600452602482fd5b600080fd5b634e487b7160e01b600052604160045260246000fdfe60806040818152600436101561001457600080fd5b600091823560e01c908163085a8cca1461012d575080636c51797b1461010f5780638c5164dc146100f1578063c3295006146100d5578063d92f24ae146100f1578063f9ffedb7146100d55763fac333ac1461006f57600080fd5b346100d15760203660031901126100d1576004356003548110156100bd576003602093527fc2575a0e9e593c00f959f8c92f12db2869c3395a3b0502d05e2516446f71f85b01549051908152f35b634e487b7160e01b83526032600452602483fd5b5080fd5b50346100d157816003193601126100d157602091549051908152f35b50346100d157816003193601126100d1576020906002549051908152f35b50346100d157816003193601126100d1576020906001549051908152f35b8390346100d157816003193601126100d1576020906001548152f3fea264697066735822122072e589806c44fa64f7457b6b5e47c4d8673462f5ca3fa84993c1f9ff2917290c64736f6c63430008140033a264697066735822122013245335b9ef3024eb957c4d3dde9db98f84850eae1647efb309c4316c07ea8564736f6c63430008140033","linkReferences":{}},"methodIdentifiers":{"LSB(uint256)":"a98bf4f9","Txn(address,uint256,uint256,uint256)":"a3e884b0","bonus()":"75b4d78c","bonusVal()":"83125b9e","cage()":"69245009","cageVal()":"8407b8fb","drawn()":"fd915ef2","drawnAgeVal()":"fcbff135","drawnage()":"66fb5f7a","mintCount()":"9659867e","mintCountVal()":"68c6bb68","minted(uint256)":"7dc0bf3f","mints(uint256)":"6350b2c2","mockClaim(uint256)":"a969ccef","mockMint(uint256)":"26ac2f03","transferOwner(address)":"4fb2e45d"},"id":0}