{"abi":[{"type":"function","name":"age","inputs":[],"outputs":[{"name":"","type":"uint256","internalType":"uint256"}],"stateMutability":"view"}],"bytecode":{"object":"0x60808060405234610019574260005560c4908161001f8239f35b600080fdfe6080806040526004361015601257600080fd5b600090813560e01c63262a9dff14602857600080fd5b34608a5781600319360112608a57815442034281116062576102589004600181019081811160765761011501809111606257602092508152f35b602483634e487b7160e01b81526011600452fd5b602484634e487b7160e01b81526011600452fd5b5080fdfea26469706673582212208502e0135ce50745997da912b77674b01a8bffe21e25505568d507f30bdb708864736f6c63430008140033","linkReferences":{}},"methodIdentifiers":{"age()":"262a9dff"},"id":74}