{"abi":[{"type":"constructor","inputs":[{"name":"_own","type":"address","internalType":"address"}],"stateMutability":"nonpayable"},{"type":"function","name":"LSB","inputs":[{"name":"_cage","type":"uint256","internalType":"uint256"}],"outputs":[{"name":"","type":"int256","internalType":"int256"}],"stateMutability":"view"},{"type":"function","name":"Txn","inputs":[{"name":"","type":"address","internalType":"address"},{"name":"","type":"uint256","internalType":"uint256"},{"name":"","type":"uint256","internalType":"uint256"},{"name":"","type":"uint256","internalType":"uint256"}],"outputs":[{"name":"","type":"int8","internalType":"int8"}],"stateMutability":"payable"},{"type":"function","name":"bonus","inputs":[],"outputs":[{"name":"","type":"uint256","internalType":"uint256"}],"stateMutability":"view"},{"type":"function","name":"bonusVal","inputs":[],"outputs":[{"name":"","type":"uint256","internalType":"uint256"}],"stateMutability":"view"},{"type":"function","name":"cage","inputs":[],"outputs":[{"name":"","type":"uint256","internalType":"uint256"}],"stateMutability":"view"},{"type":"function","name":"cageVal","inputs":[],"outputs":[{"name":"","type":"uint256","internalType":"uint256"}],"stateMutability":"view"},{"type":"function","name":"drawn","inputs":[],"outputs":[{"name":"","type":"uint256","internalType":"uint256"},{"name":"","type":"uint256","internalType":"uint256"},{"name":"","type":"uint256","internalType":"uint256"},{"name":"","type":"uint256","internalType":"uint256"},{"name":"","type":"uint256","internalType":"uint256"},{"name":"","type":"uint256","internalType":"uint256"}],"stateMutability":"pure"},{"type":"function","name":"drawnAgeVal","inputs":[],"outputs":[{"name":"","type":"uint256","internalType":"uint256"}],"stateMutability":"view"},{"type":"function","name":"drawnage","inputs":[],"outputs":[{"name":"","type":"uint256","internalType":"uint256"}],"stateMutability":"view"},{"type":"function","name":"mintCount","inputs":[],"outputs":[{"name":"","type":"uint256","internalType":"uint256"}],"stateMutability":"view"},{"type":"function","name":"mintCountVal","inputs":[],"outputs":[{"name":"","type":"uint256","internalType":"uint256"}],"stateMutability":"view"},{"type":"function","name":"minted","inputs":[{"name":"","type":"uint256","internalType":"uint256"}],"outputs":[{"name":"","type":"address","internalType":"address"}],"stateMutability":"view"},{"type":"function","name":"mints","inputs":[{"name":"i","type":"uint256","internalType":"uint256"}],"outputs":[{"name":"","type":"address","internalType":"address"}],"stateMutability":"view"},{"type":"function","name":"mockClaim","inputs":[{"name":"_claimedAge","type":"uint256","internalType":"uint256"}],"outputs":[],"stateMutability":"nonpayable"},{"type":"function","name":"mockMint","inputs":[],"outputs":[],"stateMutability":"payable"},{"type":"function","name":"transferOwner","inputs":[{"name":"own","type":"address","internalType":"address"}],"outputs":[],"stateMutability":"nonpayable"}],"bytecode":{"object":"0x60803461007457601f6107fe38819003918201601f19168301916001600160401b038311848410176100795780849260209460405283398101031261007457516001600160a01b0381169081900361007457600680546001600160a01b03191691909117905560405161076e90816100908239f35b600080fd5b634e487b7160e01b600052604160045260246000fdfe6040608081526004908136101561001557600080fd5b600091823560e01c9081634fb2e45d1461043a5781636350b2c2146103f957816366fb5f7a146103da57816368c6bb681461033b578163692450091461035857816375b4d78c146103775781637dc0bf3f1461039657816383125b9e146103775781638407b8fb146103585781639659867e1461033b578163a3e884b0146102e8578163a969ccef146102b9578163a98bf4f914610292578163db6f714a1461015357508063fcbff135146101355763fd915ef2146100d357600080fd5b3461013157816003193601126101315760c091671bc16d674ec8000082519267058d15e1762800008452670c7d713b49da0000602085015283015267013fbe85edc90000606083015267016345785d8a0000608083015260a0820152f35b5080fd5b50346101315781600319360112610131576020906003549051908152f35b90508260031936011261028e5781516102588082019082821067ffffffffffffffff83111761027b5760609183916104e183396001815260056020820152348682015203019084f091821561027257602334023481046023143415171561024c576127109004906002855282602052818186205581850391600160ff1b811460011661025f5760001983050361024c5761025a855282602052842055600554906801000000000000000082101561023957508060016102159201600555610493565b819291549060031b9160018060a01b03809116831b921b1916179055600554815580f35b634e487b7160e01b845260419052602483fd5b634e487b7160e01b855260118352602485fd5b634e487b7160e01b865260118452602486fd5b513d84823e3d90fd5b634e487b7160e01b865260418452602486fd5b8280fd5b90503461028e57602036600319011261028e57602092818392358252845220549051908152f35b9190503461028e57602036600319011261028e57816706f05b59d3b20000923580600355845260205282205580f35b50506080366003190112610131576102fe610478565b508180808060018060a01b03600654164790828215610332575bf115610328576020905160018152f35b51903d90823e3d90fd5b506108fc610318565b505034610131578160031936011261013157602091549051908152f35b5050346101315781600319360112610131576020906002549051908152f35b5050346101315781600319360112610131576020906001549051908152f35b90503461028e57602036600319011261028e5735916005548310156103d757506103c1602092610493565b905491519160018060a01b039160031b1c168152f35b80fd5b5050346101315781600319360112610131576020906003549051908152f35b8284346103d75760203660031901126103d7578235926000198401938411610427576020836103c186610493565b634e487b7160e01b825260119052602490fd5b83346103d75760203660031901126103d7576001600160a01b0361045c610478565b166bffffffffffffffffffffffff60a01b600654161760065580f35b600435906001600160a01b038216820361048e57565b600080fd5b6005548110156104ca5760056000527f036b6384b5eca791c62761152d0c79bb0604c104a5fb6f4eb0703f3154bb3db00190600090565b634e487b7160e01b600052603260045260246000fdfe6080346100bd57601f61025838819003918201601f19168301916001600160401b038311848410176100c2578084926060946040528339810103126100bd5780519060406020820151910151906000928355600155600255600354680100000000000000008110156100a95760018101806003558110156100955760208260036002945220015560405161017f90816100d98239f35b634e487b7160e01b82526032600452602482fd5b634e487b7160e01b82526041600452602482fd5b600080fd5b634e487b7160e01b600052604160045260246000fdfe60806040818152600436101561001457600080fd5b600091823560e01c908163085a8cca1461012d575080636c51797b1461010f5780638c5164dc146100f1578063c3295006146100d5578063d92f24ae146100f1578063f9ffedb7146100d55763fac333ac1461006f57600080fd5b346100d15760203660031901126100d1576004356003548110156100bd576003602093527fc2575a0e9e593c00f959f8c92f12db2869c3395a3b0502d05e2516446f71f85b01549051908152f35b634e487b7160e01b83526032600452602483fd5b5080fd5b50346100d157816003193601126100d157602091549051908152f35b50346100d157816003193601126100d1576020906002549051908152f35b50346100d157816003193601126100d1576020906001549051908152f35b8390346100d157816003193601126100d1576020906001548152f3fea26469706673582212206d7ba5788e9857c4695337193c261a3f967d6d0d9d1b9aec542b98ec2ddd49c964736f6c63430008140033a2646970667358221220005c4ecf637ca95bcabb3e750723b8c87ac06aa5056d028824ad6b6dacab7db464736f6c63430008140033","linkReferences":{}},"methodIdentifiers":{"LSB(uint256)":"a98bf4f9","Txn(address,uint256,uint256,uint256)":"a3e884b0","bonus()":"75b4d78c","bonusVal()":"83125b9e","cage()":"69245009","cageVal()":"8407b8fb","drawn()":"fd915ef2","drawnAgeVal()":"fcbff135","drawnage()":"66fb5f7a","mintCount()":"9659867e","mintCountVal()":"68c6bb68","minted(uint256)":"7dc0bf3f","mints(uint256)":"6350b2c2","mockClaim(uint256)":"a969ccef","mockMint()":"db6f714a","transferOwner(address)":"4fb2e45d"},"id":0}