{"abi":[{"type":"constructor","inputs":[{"name":"_own","type":"address","internalType":"address"},{"name":"_cage","type":"uint256","internalType":"uint256"}],"stateMutability":"nonpayable"},{"type":"function","name":"LSB","inputs":[{"name":"_cage","type":"uint256","internalType":"uint256"}],"outputs":[{"name":"","type":"int256","internalType":"int256"}],"stateMutability":"view"},{"type":"function","name":"Txn","inputs":[{"name":"","type":"address","internalType":"address"},{"name":"","type":"uint256","internalType":"uint256"},{"name":"","type":"uint256","internalType":"uint256"},{"name":"","type":"uint256","internalType":"uint256"}],"outputs":[{"name":"","type":"int8","internalType":"int8"}],"stateMutability":"payable"},{"type":"function","name":"bonus","inputs":[],"outputs":[{"name":"","type":"uint256","internalType":"uint256"}],"stateMutability":"view"},{"type":"function","name":"bonusVal","inputs":[],"outputs":[{"name":"","type":"uint256","internalType":"uint256"}],"stateMutability":"view"},{"type":"function","name":"cage","inputs":[],"outputs":[{"name":"","type":"uint256","internalType":"uint256"}],"stateMutability":"view"},{"type":"function","name":"cageVal","inputs":[],"outputs":[{"name":"","type":"uint256","internalType":"uint256"}],"stateMutability":"view"},{"type":"function","name":"drawn","inputs":[],"outputs":[{"name":"","type":"uint256","internalType":"uint256"},{"name":"","type":"uint256","internalType":"uint256"},{"name":"","type":"uint256","internalType":"uint256"},{"name":"","type":"uint256","internalType":"uint256"},{"name":"","type":"uint256","internalType":"uint256"},{"name":"","type":"uint256","internalType":"uint256"}],"stateMutability":"pure"},{"type":"function","name":"drawnAgeVal","inputs":[],"outputs":[{"name":"","type":"uint256","internalType":"uint256"}],"stateMutability":"view"},{"type":"function","name":"drawnage","inputs":[],"outputs":[{"name":"","type":"uint256","internalType":"uint256"}],"stateMutability":"view"},{"type":"function","name":"mintCount","inputs":[],"outputs":[{"name":"","type":"uint256","internalType":"uint256"}],"stateMutability":"view"},{"type":"function","name":"mintCountVal","inputs":[],"outputs":[{"name":"","type":"uint256","internalType":"uint256"}],"stateMutability":"view"},{"type":"function","name":"minted","inputs":[{"name":"","type":"uint256","internalType":"uint256"}],"outputs":[{"name":"","type":"address","internalType":"address"}],"stateMutability":"view"},{"type":"function","name":"mints","inputs":[{"name":"i","type":"uint256","internalType":"uint256"}],"outputs":[{"name":"","type":"address","internalType":"address"}],"stateMutability":"view"},{"type":"function","name":"mockClaim","inputs":[{"name":"_claimedAge","type":"uint256","internalType":"uint256"}],"outputs":[],"stateMutability":"nonpayable"},{"type":"function","name":"mockMint","inputs":[{"name":"_ag","type":"uint256","internalType":"uint256"}],"outputs":[],"stateMutability":"payable"},{"type":"function","name":"transferOwner","inputs":[{"name":"own","type":"address","internalType":"address"}],"outputs":[],"stateMutability":"nonpayable"}],"bytecode":{"object":"0x60803461007c57601f6107c138819003918201601f19168301916001600160401b0383118484101761008157808492604094855283398101031261007c5780516001600160a01b038116919082900361007c5760200151600680546001600160a01b03191690921790915560025560405161072990816100988239f35b600080fd5b634e487b7160e01b600052604160045260246000fdfe608060408181526004918236101561001657600080fd5b600092833560e01c91826326ac2f031461030b575081634fb2e45d146102d55781636350b2c21461029457816366fb5f7a1461027557816368c6bb68146101d657816369245009146101f357816375b4d78c146102125781637dc0bf3f1461023157816383125b9e146102125781638407b8fb146101f35781639659867e146101d6578163a3e884b014610183578163a969ccef14610158578163a98bf4f91461012d57508063fcbff1351461010f5763fd915ef2146100d557600080fd5b3461010b578160031936011261010b578160c09282519281845281602085015283015280606083015280608083015260a0820152f35b5080fd5b503461010b578160031936011261010b576020906003549051908152f35b90503461015457602036600319011261015457602092818392358252845220549051908152f35b8280fd5b9190503461015457602036600319011261015457816302160ec0923580600355845260205282205580f35b5050608036600319011261010b5761019961046d565b508180808060018060a01b036006541647908282156101cd575bf1156101c3576020905160018152f35b51903d90823e3d90fd5b506108fc6101b3565b50503461010b578160031936011261010b57602091549051908152f35b50503461010b578160031936011261010b576020906002549051908152f35b50503461010b578160031936011261010b576020906001549051908152f35b905034610154576020366003190112610154573591600554831015610272575061025c602092610488565b905491519160018060a01b039160031b1c168152f35b80fd5b50503461010b578160031936011261010b576020906003549051908152f35b8284346102725760203660031901126102725782359260001984019384116102c25760208361025c86610488565b634e487b7160e01b825260119052602490fd5b8334610272576020366003190112610272576001600160a01b036102f761046d565b1660018060a01b0319600654161760065580f35b90915060203660031901126104695781359061023a808201906001600160401b038211838310176104565760609183916104ba833984815260646020820152348782015203019085f092831561044d5760233402348104602314341517156104145761271090049160028101908181116104275781875284602052838388205583870393600160ff1b811460011661043a576000198505036104275761025a01809111610414578552602083905284205560055490600160401b82101561040157508060016103dd9201600555610488565b819291549060031b9160018060a01b03809116831b921b1916179055600554815580f35b634e487b7160e01b845260419052602483fd5b634e487b7160e01b865260118452602486fd5b634e487b7160e01b875260118552602487fd5b634e487b7160e01b885260118652602488fd5b513d85823e3d90fd5b634e487b7160e01b875260418552602487fd5b8380fd5b600435906001600160a01b038216820361048357565b600080fd5b6005548110156104a357600560005260206000200190600090565b634e487b7160e01b600052603260045260246000fdfe6080346100bd57601f61023a38819003918201601f19168301916001600160401b038311848410176100c2578084926060946040528339810103126100bd5780519060406020820151910151906000928355600155600255600354680100000000000000008110156100a95760018101806003558110156100955760208260036002945220015560405161016190816100d98239f35b634e487b7160e01b82526032600452602482fd5b634e487b7160e01b82526041600452602482fd5b600080fd5b634e487b7160e01b600052604160045260246000fdfe60806040818152600436101561001457600080fd5b600091823560e01c908163085a8cca1461010f575080636c51797b146100f15780638c5164dc146100d3578063c3295006146100b7578063d92f24ae146100d3578063f9ffedb7146100b75763fac333ac1461006f57600080fd5b346100b35760203660031901126100b35760043560035481101561009f5760208360038295522001549051908152f35b634e487b7160e01b83526032600452602483fd5b5080fd5b50346100b357816003193601126100b357602091549051908152f35b50346100b357816003193601126100b3576020906002549051908152f35b50346100b357816003193601126100b3576020906001549051908152f35b8390346100b357816003193601126100b3576020906001548152f3fea26469706673582212207f9a88c2b5edb4171cc2a943af0c8f815962c70e8695e69457f80e5d796ee97a64736f6c63430008140033a2646970667358221220583db24d9f0ec7e576bf1e90885afeb7719cfeca7004aa8c19d573faee18a2c264736f6c63430008140033","linkReferences":{}},"methodIdentifiers":{"LSB(uint256)":"a98bf4f9","Txn(address,uint256,uint256,uint256)":"a3e884b0","bonus()":"75b4d78c","bonusVal()":"83125b9e","cage()":"69245009","cageVal()":"8407b8fb","drawn()":"fd915ef2","drawnAgeVal()":"fcbff135","drawnage()":"66fb5f7a","mintCount()":"9659867e","mintCountVal()":"68c6bb68","minted(uint256)":"7dc0bf3f","mints(uint256)":"6350b2c2","mockClaim(uint256)":"a969ccef","mockMint(uint256)":"26ac2f03","transferOwner(address)":"4fb2e45d"},"id":84}