{"abi":[{"type":"constructor","inputs":[],"stateMutability":"nonpayable"},{"type":"function","name":"InstToUser","inputs":[{"name":"","type":"address","internalType":"address"}],"outputs":[{"name":"","type":"address","internalType":"address"}],"stateMutability":"view"},{"type":"function","name":"UserToInst","inputs":[{"name":"","type":"address","internalType":"address"}],"outputs":[{"name":"","type":"address","internalType":"address"}],"stateMutability":"view"},{"type":"function","name":"age","inputs":[],"outputs":[{"name":"","type":"uint256","internalType":"uint256"}],"stateMutability":"view"},{"type":"function","name":"business","inputs":[{"name":"","type":"uint256","internalType":"uint256"}],"outputs":[{"name":"","type":"uint256","internalType":"uint256"}],"stateMutability":"view"},{"type":"function","name":"effectiveRank","inputs":[{"name":"","type":"address","internalType":"address"}],"outputs":[{"name":"","type":"uint256","internalType":"uint256"}],"stateMutability":"view"},{"type":"function","name":"getEffectiveRank","inputs":[{"name":"uinst","type":"address","internalType":"address"}],"outputs":[{"name":"","type":"uint256","internalType":"uint256"}],"stateMutability":"view"},{"type":"function","name":"getNode","inputs":[{"name":"inst","type":"address","internalType":"address"}],"outputs":[{"name":"","type":"uint256","internalType":"uint256"},{"name":"","type":"address","internalType":"address"},{"name":"","type":"uint256","internalType":"uint256"},{"name":"","type":"bool","internalType":"bool"},{"name":"","type":"bool","internalType":"bool"}],"stateMutability":"view"},{"type":"function","name":"getNodeByIndex","inputs":[{"name":"index","type":"uint256","internalType":"uint256"}],"outputs":[{"name":"","type":"address","internalType":"address"}],"stateMutability":"view"},{"type":"function","name":"getNodeLB","inputs":[{"name":"uinst","type":"address","internalType":"address"},{"name":"lvl","type":"uint256","internalType":"uint256"}],"outputs":[{"name":"levelbusiness","type":"uint256","internalType":"uint256"},{"name":"levelqty","type":"uint256","internalType":"uint256"}],"stateMutability":"view"},{"type":"function","name":"getNodesCount","inputs":[],"outputs":[{"name":"","type":"uint256","internalType":"uint256"}],"stateMutability":"view"},{"type":"function","name":"getRewards","inputs":[{"name":"uinst","type":"address","internalType":"address"}],"outputs":[{"name":"rw","type":"uint256","internalType":"uint256"},{"name":"yei","type":"uint256","internalType":"uint256"}],"stateMutability":"pure"},{"type":"function","name":"getbusiness","inputs":[{"name":"ag","type":"uint256","internalType":"uint256"}],"outputs":[{"name":"","type":"uint256","internalType":"uint256"}],"stateMutability":"view"},{"type":"function","name":"getnoderankage","inputs":[{"name":"uinst","type":"address","internalType":"address"},{"name":"r","type":"uint256","internalType":"uint256"}],"outputs":[{"name":"","type":"uint256","internalType":"uint256"}],"stateMutability":"view"},{"type":"function","name":"getrankCount","inputs":[{"name":"ag","type":"uint256","internalType":"uint256"},{"name":"rnk","type":"uint256","internalType":"uint256"}],"outputs":[{"name":"","type":"uint256","internalType":"uint256"}],"stateMutability":"view"},{"type":"function","name":"instances","inputs":[{"name":"","type":"uint256","internalType":"uint256"}],"outputs":[{"name":"","type":"address","internalType":"address"}],"stateMutability":"view"},{"type":"function","name":"lvlbs","inputs":[{"name":"","type":"address","internalType":"address"},{"name":"","type":"uint256","internalType":"uint256"}],"outputs":[{"name":"","type":"uint256","internalType":"uint256"}],"stateMutability":"view"},{"type":"function","name":"lvlqty","inputs":[{"name":"","type":"address","internalType":"address"},{"name":"","type":"uint256","internalType":"uint256"}],"outputs":[{"name":"","type":"uint256","internalType":"uint256"}],"stateMutability":"view"},{"type":"function","name":"mockAddNode","inputs":[{"name":"_instance","type":"address","internalType":"address"},{"name":"_user","type":"address","internalType":"address"},{"name":"_parent","type":"address","internalType":"address"},{"name":"_id","type":"uint256","internalType":"uint256"},{"name":"_stop","type":"bool","internalType":"bool"}],"outputs":[],"stateMutability":"nonpayable"},{"type":"function","name":"mockSetNodeLB","inputs":[{"name":"uinst","type":"address","internalType":"address"},{"name":"lvl","type":"uint256","internalType":"uint256"},{"name":"lb","type":"uint256","internalType":"uint256"},{"name":"qty","type":"uint256","internalType":"uint256"}],"outputs":[],"stateMutability":"nonpayable"},{"type":"function","name":"mockSetNodeRankAge","inputs":[{"name":"uinst","type":"address","internalType":"address"},{"name":"r","type":"uint256","internalType":"uint256"},{"name":"age_","type":"uint256","internalType":"uint256"}],"outputs":[],"stateMutability":"nonpayable"},{"type":"function","name":"nodeRankAge","inputs":[{"name":"","type":"address","internalType":"address"},{"name":"","type":"uint256","internalType":"uint256"}],"outputs":[{"name":"","type":"uint256","internalType":"uint256"}],"stateMutability":"view"},{"type":"function","name":"rankCount","inputs":[{"name":"","type":"uint256","internalType":"uint256"},{"name":"","type":"uint256","internalType":"uint256"}],"outputs":[{"name":"","type":"uint256","internalType":"uint256"}],"stateMutability":"view"}],"bytecode":{"object":"0x6080806040523461001a5742600a556108f590816100208239f35b600080fdfe6080604081815260048036101561001557600080fd5b600092833560e01c90816317b572c6146107da575080631f5fa838146102d6578063247349d51461079f578063262a9dff1461073e57806326524621146101665780632fcf3eed146106fd57806345145fd7146106c457806349296793146106425780635329daca146105e5578063591693fe146105a457806361ea720814610587578063637530821461037457806379ee54f71461033a57806380f85e331461030e57806394e3dc09146102d65780639527dfcb1461027c578063965c90e31461025c5780639d209048146101ed578063a2f7b3a5146101ab578063b3c1ad4e14610166578063ba7cf2791461013f5763eb95c6621461011557600080fd5b3461013b57602036600319011261013b5760209282913581526001845220549051908152f35b8280fd5b503461013b57602036600319011261013b5760209282913581526001845220549051908152f35b5050346101a757806003193601126101a75760209181906001600160a01b0361018d61081e565b168152600984528181206024358252845220549051908152f35b5080fd5b503461013b57602036600319011261013b57359180548310156101ea57506101d4602092610834565b905491519160018060a01b039160031b1c168152f35b80fd5b5050346101a75760203660031901126101a75760a0916001600160a01b039160ff9181908461021a61081e565b168152600560205220805493600182015416916003600283015492015492815195865260208601528401528181161515606084015260081c1615156080820152f35b5091346101ea5760203660031901126101ea57506101d460209235610834565b5050346101a75760803660031901126101a75761029761081e565b6001600160a01b031680835260066020908152828420602435808652908252838520604435905591845260078152828420918452528120606435905580f35b5050346101a75760203660031901126101a75760209181906001600160a01b036102fe61081e565b1681526008845220549051908152f35b5050346101a7578060209261032236610803565b90825260028552828220908252845220549051908152f35b8284346101ea5760203660031901126101ea575061035661081e565b5080516706f05b59d3b20000815267058d15e1762800006020820152f35b509190346101a75760a03660031901126101a75761039061081e565b6024356001600160a01b03818116939291849003610583576044359181831680930361057f57606435946084359182151580930361057b57831692838852602094600586526103e860ff6003898c200154161561087e565b82895289865281878a20541689526005865261040d60ff6003898c200154161561087e565b8854680100000000000000008110156105685780600161042f92018b55610834565b81549060031b908488831b921b191617905584895260038652868920926bffffffffffffffffffffffff60a01b93818582541617905589528986528689208584825416179055885280868920541686519260a0840184811067ffffffffffffffff82111761055557906003949392918952898452878401918252888401928a8452606085019760018952608086019788528c5260058952898c2094518555600185019251169082541617905551600282015501915115159060ff61ff0084549251151560081b1692169061ffff1916171790556008815283828120556009815281842084805281528282852055670de0b6b3a7640000928381029381850414811517156105425784526001905282205580f35b634e487b7160e01b855260118652602485fd5b634e487b7160e01b8b5260418c5260248bfd5b634e487b7160e01b8a5260418b5260248afd5b8780fd5b8580fd5b8480fd5b5050346101a757816003193601126101a757602091549051908152f35b5050346101a757806003193601126101a75760209181906001600160a01b036105cb61081e565b168152600684528181206024358252845220549051908152f35b8284346101ea57816003193601126101ea578161060061081e565b6001600160a01b031680835260066020908152828420602435808652908252838520549285526007825283852090855281529190922054835192835290820152f35b50903461013b57606036600319011261013b5761065d61081e565b602435906044359060018060a01b031685526008602052818386205560096020528285208286526020528083862055845260026020528184209084526020528220805491600183018093116106b157505580f35b634e487b7160e01b845260119052602483fd5b503461013b57602036600319011261013b576020926001600160a01b0391839190836106ee61081e565b16825285522054169051908152f35b5050346101a757806003193601126101a75760209181906001600160a01b0361072461081e565b168152600784528181206024358252845220549051908152f35b509190346101a757816003193601126101a757600a54420342811161078c576201518090049160018301809311610779576020838351908152f35b634e487b7160e01b815260118452602490fd5b634e487b7160e01b835260118452602483fd5b5050346101a75760203660031901126101a7576020916001600160a01b03908290826107c961081e565b168152600385522054169051908152f35b8490843461013b576020926107ee36610803565b90825260028552828220908252845220548152f35b6040906003190112610819576004359060243590565b600080fd5b600435906001600160a01b038216820361081957565b90600091825481101561086a578280527f290decd9548b62a8d60345a988386fc84ba6bc95484008f6362f93160ef3e563019190565b634e487b7160e01b83526032600452602483fd5b1561088557565b60405162461bcd60e51b81526020600482015260126024820152711b5bd8dacb985b1c9958591e4b985919195960721b6044820152606490fdfea2646970667358221220767aa7b020d8a900debbfa42158286dd88793931e8fa8aaafbc16bb47052b5f964736f6c63430008140033","linkReferences":{}},"methodIdentifiers":{"InstToUser(address)":"247349d5","UserToInst(address)":"45145fd7","age()":"262a9dff","business(uint256)":"ba7cf279","effectiveRank(address)":"94e3dc09","getEffectiveRank(address)":"1f5fa838","getNode(address)":"9d209048","getNodeByIndex(uint256)":"965c90e3","getNodeLB(address,uint256)":"5329daca","getNodesCount()":"61ea7208","getRewards(address)":"79ee54f7","getbusiness(uint256)":"eb95c662","getnoderankage(address,uint256)":"26524621","getrankCount(uint256,uint256)":"80f85e33","instances(uint256)":"a2f7b3a5","lvlbs(address,uint256)":"591693fe","lvlqty(address,uint256)":"2fcf3eed","mockAddNode(address,address,address,uint256,bool)":"63753082","mockSetNodeLB(address,uint256,uint256,uint256)":"9527dfcb","mockSetNodeRankAge(address,uint256,uint256)":"49296793","nodeRankAge(address,uint256)":"b3c1ad4e","rankCount(uint256,uint256)":"17b572c6"},"id":19}