{"abi":[{"type":"constructor","inputs":[{"name":"_hex","type":"address","internalType":"address"},{"name":"_price","type":"address","internalType":"address"},{"name":"_old741","type":"address","internalType":"address"}],"stateMutability":"nonpayable"},{"type":"function","name":"dAOAssembly","inputs":[],"outputs":[{"name":"","type":"address","internalType":"address"}],"stateMutability":"view"},{"type":"function","name":"daocore","inputs":[],"outputs":[{"name":"","type":"address","internalType":"address"}],"stateMutability":"view"},{"type":"function","name":"nested741","inputs":[],"outputs":[{"name":"","type":"address","internalType":"address"}],"stateMutability":"view"},{"type":"function","name":"old741","inputs":[],"outputs":[{"name":"","type":"address","internalType":"address"}],"stateMutability":"view"},{"type":"function","name":"price","inputs":[],"outputs":[{"name":"","type":"address","internalType":"address"}],"stateMutability":"view"}],"bytecode":{"object":"0x6080346101b757601f61887438819003918201601f19168301926001600160401b03929091838511838610176101a15781606092849260409788528339810103126101b75761004d816101bc565b6100648461005d602085016101bc565b93016101bc565b9160018060a01b03199273c0cee8b561cc4f60869776ca5b0b7a295e04f5af84600154161760015585516114319586820196828810828911176101a15761032c83396001600160a01b039485168088526000979092908190036020019088f080156101835785168660035416176003558751614860808201908282108483111761018d576020918391614014833985815203019088f080156101835785168660025416176002558751916128b7808401928484109084111761016f5791839160209361175d8439815203019086f080156101655790838092168560045416176004551683600154161760015516908254161790555161015b90816101d18239f35b86513d87823e3d90fd5b634e487b7160e01b89526041600452602489fd5b88513d89823e3d90fd5b634e487b7160e01b8a52604160045260248afd5b634e487b7160e01b600052604160045260246000fd5b600080fd5b51906001600160a01b03821682036101b75756fe608080604052600436101561001357600080fd5b600090813560e01c90816314837455146100fc5750806314d8d024146100d357806345cff900146100aa5780635540c5ac146100815763a035b1fe1461005857600080fd5b3461007e578060031936011261007e57546040516001600160a01b039091168152602090f35b80fd5b503461007e578060031936011261007e576001546040516001600160a01b039091168152602090f35b503461007e578060031936011261007e576002546040516001600160a01b039091168152602090f35b503461007e578060031936011261007e576004546040516001600160a01b039091168152602090f35b9050346101215781600319360112610121576003546001600160a01b03168152602090f35b5080fdfea2646970667358221220ba693a864473b9a647884a6ca51274495203a64b9ab909e44f56e775ef6a811964736f6c6343000814003360803461009757601f61143138819003918201601f19168301916001600160401b0383118484101761009c5780849260209460405283398101031261009757516001600160a01b038116908190036100975780156100855760018060a01b03193381600154161760015560005416176000556000600e5560405161137e90816100b38239f35b60405163e6c4247b60e01b8152600490fd5b600080fd5b634e487b7160e01b600052604160045260246000fdfe60806040526004361015610018575b361561001657005b005b60003560e01c806312065fe0146101285780631f185d161461012357806325924f341461011e578063339459a6146101195780633b9b79551461011457806361b7fbd91461010f5780638da5cb5b1461010a578063a1f7f53914610105578063af48452614610100578063b90306ad146100fb578063be17fe62146100f6578063c54e44b0146100f1578063c89b84fd146100ec578063dbac26e9146100e7578063e01ad5fd146100e2578063e0a9bc2b146100dd5763fdc10bc90361000e57610bfe565b610be3565b610b1c565b610ada565b6109ce565b610972565b6108bf565b6107d7565b6107b0565b610746565b61071d565b61065e565b61062b565b61025e565b61022d565b610166565b3461014457600036600319011261014457602047604051908152f35b600080fd5b6001600160a01b031690565b6001600160a01b0381160361014457565b3461014457602080600319360112610144576101d960043561018781610155565b6002546040516001600160a01b039283168582015284815291166101aa82610c2f565b604051906101b782610c2f565b601182527069735369676e657228616464726573732960781b85830152611275565b919080610223575b156102115781816101fb9261020d94518301019101610cc0565b60405190151581529081906020820190565b0390f35b60405163baf3f0f760e01b8152600490fd5b50808251146101e1565b3461014457602036600319011261014457602061025460043561024f81610155565b610cd5565b6040519015158152f35b34610144576000806003193601126106285761028261027d8254610149565b610149565b60408051634bf9c0ad60e11b81529160049190602080858581855afa9485156104ef578695610609575b50825163cfbffe5360e01b81529281848681865afa9384156104ef5787946105ea575b50805163ab6e844f60e01b815282818781875afa9081156104ef5788916105cd575b508151630536340960e21b815283818881885afa9081156104ef5789916105b0575b50825163d1f956b160e01b81529084828981895afa9182156104ef578a92610591575b508351631cc3bfab60e31b81529285848a818a5afa9384156104ef578b94610572575b50845163e09d394d60e01b81529486868b818b5afa9586156104ef578c96610553575b5080516314ac1b5960e21b815298878a8c818c5afa9788156104ef576103c39a8e99610534575b50808c8451809d819263013cf08b60e01b83528201906000602083019252565b03818d5afa998a156104ef578c9b8f9b610515575b50818451809d635e09dbe760e01b825281845afa9b8c156104ef578f9c6104f4575b50819084519d8e8092635506ee0b60e11b82525afa9b8c156104ef578e9c6104c0575b50610426610ea3565b9c610431908e610ec3565b8c019061043d91610ec3565b8a019061044991610ec3565b6104569060608a01610ec3565b6104639060808901610ec3565b6104709060a08801610ec3565b61047d9060c08701610ec3565b61048a9060e08601610ec3565b610498906101008501610ec3565b6104a6906101208401610ec3565b6104b4906101408301610ec3565b6104bd90610ed2565b80f35b816104e1929d508d3d106104e8575b6104d98183610c6a565b810190610ca8565b9a3861041d565b503d6104cf565b610c9c565b82919c5061050e90823d84116104e8576104d98183610c6a565b9b906103fa565b61052d919b50823d84116104e8576104d98183610c6a565b99386103d8565b8161054c929a503d8b116104e8576104d98183610c6a565b97386103a3565b61056b919650873d89116104e8576104d98183610c6a565b943861037c565b61058a919450863d88116104e8576104d98183610c6a565b9238610359565b6105a9919250853d87116104e8576104d98183610c6a565b9038610336565b6105c79150843d86116104e8576104d98183610c6a565b38610313565b6105e49150833d85116104e8576104d98183610c6a565b386102f1565b610602919450823d84116104e8576104d98183610c6a565b92386102cf565b816106219296503d87116104e8576104d98183610c6a565b93386102ac565b80fd5b34610144576000366003190112610144576000546040516001600160a01b039091168152602090f35b8015150361014457565b346101445760403660031901126101445760043561067b81610155565b6024359061068882610654565b610690611115565b1561070b576005546001600160a01b039190821633036106f95716600052600d602052604060002060ff1981541660ff831515161790556000146106e757600e5460001981146106e257600101600e55005b610e8d565b600e5480156106e25760001901600e55005b60405163ea8e4eb560e01b8152600490fd5b604051634ee2123760e11b8152600490fd5b34610144576000366003190112610144576001546040516001600160a01b039091168152602090f35b346101445760003660031901126101445760206107a860018060a01b036006541660405161077381610c2f565b601381527267657464656c656761746f72436f756e74282960681b848201526040519161079f83610c4f565b6000835261130c565b604051908152f35b346101445760203660031901126101445760206102546004356107d281610155565b611187565b34610144576020366003190112610144576004356107f3611115565b1561070b576005546001600160a01b031633036106f9576000906004602061081e61027d8554610149565b6040516311be646b60e21b815292839182905afa80156104ef57838084819493829483916108a1575b505af1610852611245565b5015610211577fcdcc745fe377b103b45fa0cec23ae3ef93d6fc6a84a01f0d18c40b354dd1d5d861089b61088a61027d600b54610149565b604051938452929081906020820190565b0390a280f35b6108b9915060203d81116104e8576104d98183610c6a565b38610847565b34610144576020366003190112610144576004356108dc81610155565b6108e4611115565b1561070b576108f233611187565b801561095e575b156106f9576001600160a01b03908116801561094c57600080546001600160a01b03198116831782559092167fe939feee179e631422bcc8f6e6d7d908cb3f8af38f5372f17c77e15aea5c80ee8380a380f35b60405163e6c4247b60e01b8152600490fd5b506005546001600160a01b031633146108f9565b346101445760203660031901126101445760043561098f81610155565b803b600061099c826110fa565b926109aa6040519485610c6a565b82845260208401903c602d81511061021157602a602091015160601c604051908152f35b34610144576000366003190112610144576109f361027d61027d61027d600354610149565b60405180916305912f8d60e11b825281600460209485935afa9081156104ef57610a67918391600091610abd575b50610a3661027d61027d61027d600454610149565b610a3e611208565b6040518095819482936380f85e3360e01b84526004840160209093929193604081019481520152565b03915afa9081156104ef5761020d92600092610a90575b50506040519081529081906020820190565b610aaf9250803d10610ab6575b610aa78183610c6a565b810190610c8d565b3880610a7e565b503d610a9d565b610ad49150823d8411610ab657610aa78183610c6a565b38610a21565b3461014457602036600319011261014457600435610af781610155565b60018060a01b0316600052600d602052602060ff604060002054166040519015158152f35b34610144576020806003193601126101445761020d9060043590610b3f82610155565b6006546040516001600160a01b0393841683820152828152921691610b9f90610b6781610c2f565b604051610b7381610c2f565b6018815277697364656c656761746f724e6f646528616464726573732960401b84820152600094611275565b919080610bd9575b610bc0575b505060405190151581529081906020820190565b610bd292508082518301019101610cc0565b3880610bac565b5080825114610ba7565b34610144576000366003190112610144576020610254611115565b346101445760003660031901126101445760206107a8611208565b634e487b7160e01b600052604160045260246000fd5b604081019081106001600160401b03821117610c4a57604052565b610c19565b602081019081106001600160401b03821117610c4a57604052565b601f909101601f19168101906001600160401b03821190821017610c4a57604052565b90816020910312610144575190565b6040513d6000823e3d90fd5b908160209103126101445751610cbd81610155565b90565b908160209103126101445751610cbd81610654565b610ce961027d61027d61027d600354610149565b9060405180926305912f8d60e11b825281600460209586935afa9081156104ef57600091610e70575b50610d2761027d61027d61027d600454610149565b6040516376fe6c4560e01b81526001600160a01b0384166004820152908490829060249082905afa9081156104ef57600091610e53575b506001600160a01b03168015610e4a576040516349a104e760e11b81528481600481855afa9081156104ef578590600092610e2a575b506040516304ec6d1760e11b81529192829060049082905afa9485156104ef57600095610dfb575b505010159182610df2575b5081610dd1575090565b6001600160a01b03166000908152600d602052604090205460ff1615905090565b15915038610dc7565b610e1b929550803d10610e23575b610e138183610c6a565b810190610cc0565b923880610dbc565b503d610e09565b60049250610e4490823d8411610ab657610aa78183610c6a565b91610d94565b50505050600090565b610e6a9150843d86116104e8576104d98183610c6a565b38610d5e565b610e879150833d8511610ab657610aa78183610c6a565b38610d12565b634e487b7160e01b600052601160045260246000fd5b6040519061016082016001600160401b03811183821017610c4a57604052565b6001600160a01b039091169052565b6110d66101406110f892610f0b610ee98251610149565b600280546001600160a01b0319166001600160a01b0392909216919091179055565b610f3d610f1b6020830151610149565b600380546001600160a01b0319166001600160a01b0392909216919091179055565b610f6f610f4d6040830151610149565b600480546001600160a01b0319166001600160a01b0392909216919091179055565b610fa1610f7f6060830151610149565b600580546001600160a01b0319166001600160a01b0392909216919091179055565b610fd3610fb16080830151610149565b600680546001600160a01b0319166001600160a01b0392909216919091179055565b611005610fe360a0830151610149565b600780546001600160a01b0319166001600160a01b0392909216919091179055565b61103761101560c0830151610149565b600880546001600160a01b0319166001600160a01b0392909216919091179055565b61106961104760e0830151610149565b600980546001600160a01b0319166001600160a01b0392909216919091179055565b61109c61107a610100830151610149565b600a80546001600160a01b0319166001600160a01b0392909216919091179055565b6110cf6110ad610120830151610149565b600b80546001600160a01b0319166001600160a01b0392909216919091179055565b0151610149565b600c80546001600160a01b0319166001600160a01b0392909216919091179055565b565b6001600160401b038111610c4a57601f01601f191660200190565b60025460405161115d916001600160a01b03169061113281610c2f565b6008815267697353616665282960c01b60208201526040519161115483610c4f565b60008352611275565b908061117c575b156102115780602080610cbd93518301019101610cc0565b506020815114611164565b6111e160018060a01b0380600254166040519160209416848301528382526111ae82610c2f565b604051906111bb82610c2f565b601582527469735365637572654261736528616464726573732960581b85830152611275565b90806111fe575b156102115781610cbd9282518301019101610cc0565b50818151146111e8565b600354604051610cbd916001600160a01b03169061122581610c2f565b600681526569416765282960d01b60208201526040519161079f83610c4f565b3d15611270573d90611256826110fa565b916112646040519384610c6a565b82523d6000602084013e565b606090565b9190823b156112f3578051906020918263ffffffff60e01b92012016916040519180830193845281519160005b8381106112df5750505091816112cf60248260009795968897018783820152036004810184520182610c6a565b51915afa6112db611245565b9091565b8181018301518582016024015282016112a2565b50505060009060405161130581610c4f565b6000815290565b929161131a91600094611275565b908061133d575b6113285750565b610cbd91925060208082518301019101610c8d565b50602081511461132156fea26469706673582212209f6ecd29494a489faec0baffd6f1c986de4115a39b44c697b7e4e343932ce78864736f6c6343000814003360803461009957601f620028b738819003918201601f19168301916001600160401b0383118484101761009e5780849260209460405283398101031261009957516001600160a01b038116908190036100995780156100875760018060a01b0319338160015416176001556000541617600055601e600d556040516128029081620000b58239f35b60405163e6c4247b60e01b8152600490fd5b600080fd5b634e487b7160e01b600052604160045260246000fdfe60806040526004361015610018575b361561001657005b005b60003560e01c8063013cf08b146101e857806312065fe0146101e35780631f185d16146101de57806326705c3c146101d9578063339459a6146101d45780633b9b7955146101cf57806343859632146101ca57806345a257bc146101c55780635c622a0e146101c0578063604ff4b1146101bb578063896d6db1146101b65780638da5cb5b146101b157806398e527d3146101ac578063995e4339146101a7578063a1f7f539146101a2578063af4845261461019d578063b7ccfe3214610198578063b90306ad14610193578063be17fe621461018e578063c11134b114610189578063c54e44b014610184578063c7f758a81461017f578063c9d27afe1461017a578063cc48bf1614610175578063d3325a2c14610170578063e01ad5fd1461016b578063e0a9bc2b14610166578063eeebb3c3146101615763fdc10bc90361000e576119fa565b611751565b611736565b61170f565b611681565b611535565b611370565b6112d4565b611221565b611203565b61116d565b611085565b610fe8565b610f21565b610efe565b610e7a565b610e5c565b610e33565b610d98565b610d1e565b610cd2565b610a44565b6109b6565b61098d565b6105ad565b61058f565b61055e565b610531565b610475565b634e487b7160e01b600052603260045260246000fd5b600e5481101561022257600e600052600b602060002091020190600090565b6101ed565b90600182811c92168015610257575b602083101461024157565b634e487b7160e01b600052602260045260246000fd5b91607f1691610236565b906000929180549161027283610227565b9182825260019384811690816000146102d45750600114610294575b50505050565b90919394506000526020928360002092846000945b8386106102c057505050500101903880808061028e565b8054858701830152940193859082016102a9565b9294505050602093945060ff191683830152151560051b0101903880808061028e565b634e487b7160e01b600052604160045260246000fd5b604081019081106001600160401b0382111761032857604052565b6102f7565b602081019081106001600160401b0382111761032857604052565b601f909101601f19168101906001600160401b0382119082101761032857604052565b9061038661037f9260405193848092610261565b0383610348565b565b6001600160a01b031690565b60005b8381106103a75750506000910152565b8181015183820152602001610397565b906020916103d081518092818552858086019101610394565b601f01601f1916010190565b99939561042d61045d969f9e9d99936101809d986104719c9660408f61040e6104679e986101a08084528301906103b7565b6001600160a01b03909516602082015201528d820360608f01526103b7565b60808c019f909f5260a08b015260c08a015260e089015215156101008801526001600160a01b0316610120870152565b1515610140850152565b1515610160830152565b0152565b3461052c57602036600319011261052c57600435600e5481101561052c5761049c90610203565b506040516104b5816104ae8185610261565b0382610348565b6105286104c56001840154610388565b6002840154906104d76003860161036b565b93600486015495600581015493600682015460078301549060096008850154940154966040519a8b9a8b9560ff8860b01c169960ff8960a81c169960ff60018060a01b038b60081c169a16986103dc565b0390f35b600080fd5b3461052c57600036600319011261052c57602047604051908152f35b6001600160a01b0381160361052c57565b3461052c57602036600319011261052c5760206105856004356105808161054d565b612452565b6040519015158152f35b3461052c57600036600319011261052c576020601054604051908152f35b3461052c57600080600319360112610977576105d16105cc8254610388565b610388565b60408051634bf9c0ad60e11b81529160049190602080858581855afa94851561083e578695610958575b50825163cfbffe5360e01b81529281848681865afa93841561083e578794610939575b50805163ab6e844f60e01b815282818781875afa90811561083e57889161091c575b508151630536340960e21b815283818881885afa90811561083e5789916108ff575b50825163d1f956b160e01b81529084828981895afa91821561083e578a926108e0575b508351631cc3bfab60e31b81529285848a818a5afa93841561083e578b946108c1575b50845163e09d394d60e01b81529486868b818b5afa95861561083e578c966108a2575b5080516314ac1b5960e21b815298878a8c818c5afa97881561083e576107129a8e99610883575b50808c8451809d819263013cf08b60e01b83528201906000602083019252565b03818d5afa998a1561083e578c9b8f9b610864575b50818451809d635e09dbe760e01b825281845afa9b8c1561083e578f9c610843575b50819084519d8e8092635506ee0b60e11b82525afa9b8c1561083e578e9c61080f575b506107756115f0565b9c610780908e611c09565b8c019061078c91611c09565b8a019061079891611c09565b6107a59060608a01611c09565b6107b29060808901611c09565b6107bf9060a08801611c09565b6107cc9060c08701611c09565b6107d99060e08601611c09565b6107e7906101008501611c09565b6107f5906101208401611c09565b610803906101408301611c09565b61080c906121ba565b80f35b81610830929d508d3d10610837575b6108288183610348565b810190611ea7565b9a3861076c565b503d61081e565b611e9b565b82919c5061085d90823d8411610837576108288183610348565b9b90610749565b61087c919b50823d8411610837576108288183610348565b9938610727565b8161089b929a503d8b11610837576108288183610348565b97386106f2565b6108ba919650873d8911610837576108288183610348565b94386106cb565b6108d9919450863d8811610837576108288183610348565b92386106a8565b6108f8919250853d8711610837576108288183610348565b9038610685565b6109169150843d8611610837576108288183610348565b38610662565b6109339150833d8511610837576108288183610348565b38610640565b610951919450823d8411610837576108288183610348565b923861061e565b816109709296503d8711610837576108288183610348565b93386105fb565b80fd5b6001600160a01b03909116815260200190565b3461052c57600036600319011261052c576000546040516001600160a01b039091168152602090f35b3461052c57604036600319011261052c576004356024356109d68161054d565b6000198201918211610a08576109fc60ff91600a6109f5602095610203565b50016120b2565b54166040519015158152f35b611a15565b9181601f8401121561052c578235916001600160401b03831161052c576020838186019501011161052c57565b8015150361052c57565b3461052c5760e036600319011261052c57600480356024356001600160401b03811161052c57610a779036908401610a0d565b604492919235610a868161054d565b606435926001600160e01b031984169081850361052c576084359060a4359760c43593610ab285610a3a565b610abb33612452565b15610cc2578615610cb25715610ca357881580610c92575b610c835781610b9f57505092610016969492610b747f0454182b30f1740c505634bb66f7f3001e232b3c8797a62b1db11b347a891ff493610b9a9896610b4e610b1a611610565b92610b2636888c61164a565b8452610b358660208601611c09565b6001600160e01b03198916604085015215156060840152565b60808201528760a0820152610b6f601054600052600f602052604060002090565b611cde565b610b9260105496879560405194859460018060a01b03169885611e10565b0390a3611e3f565b601055565b6010989397969198548911610c74575093610c6f9593610c5a89947f74608b2c8ffedaacf37a0fda8ea5cb94ebae20dc104623eb2fabb1bcec211608948a98610c416000805160206127ad8339815191529c610c0d610bfd8b611a2b565b600052600f602052604060002090565b610c18898d83611a8e565b8560036001830192610c2a8b85611b55565b610c348785611b74565b8760028201550155611b97565b6040516001600160a01b03909516989495869586611bd5565b0390a360405191829182901515815260200190565b0390a2005b604051630a98a78560e21b8152fd5b604051635ae2d7ef60e11b8152fd5b506001600160a01b03851615610ad3565b604051633f1e175760e01b8152fd5b50604051632f12d8b360e21b8152fd5b5060405163ea8e4eb560e01b8152fd5b3461052c57602036600319011261052c576004356000198101908111610a08576008610cff604092610203565b50015460ff825191818160a81c161515835260b01c1615156020820152f35b3461052c57602036600319011261052c57600435610d3a6123e0565b15610d8657333003610d745780158015610d6a575b610d5857600d55005b604051631f3b85d360e01b8152600490fd5b5060648111610d4f565b604051633a3cf02960e11b8152600490fd5b604051634ee2123760e11b8152600490fd5b3461052c57602036600319011261052c57600435600052600f602052610df5604060002060405190610dce8261037f8184610261565b600181015490600360028201549101549060ff60405195869560c0875260c08701906103b7565b6001600160a01b0385166020870152604085811b6001600160e01b0319169087015260c09490941c1615156060850152608084015260a08301520390f35b3461052c57600036600319011261052c576001546040516001600160a01b039091168152602090f35b3461052c57600036600319011261052c576020600e54604051908152f35b3461052c57602036600319011261052c576004356000198101908111610a0857610ea390610203565b50600481015460058201546006830154600784015460089094015460408051948552602085019390935291830152606082019290925260ff60a883901c81161515608083015260b09290921c909116151560a082015260c090f35b3461052c57600036600319011261052c576020610f196125a3565b604051908152f35b3461052c5760208060031936011261052c57610f98600435610f428161054d565b6002546040516001600160a01b03928316858201528481529116610f658261030d565b60405190610f728261030d565b601582527469735365637572654261736528616464726573732960581b8583015261261d565b919080610fde575b15610fcc578181610fba9261052894518301019101611e86565b60405191829182901515815260200190565b60405163baf3f0f760e01b8152600490fd5b5080825114610fa0565b3461052c57604036600319011261052c5760043560243561100881610a3a565b61101133612452565b15611073576010548211611061576000198201828111610a08576000805160206127ad83398151915291602091600052600f8252611056816001604060002001611b97565b6040519015158152a2005b604051630a98a78560e21b8152600490fd5b60405163ea8e4eb560e01b8152600490fd5b3461052c57602036600319011261052c576004356110a16123e0565b15610d86576005546001600160a01b0316330361107357600090600460206110cc6105cc8554610388565b6040516311be646b60e21b815292839182905afa801561083e578380848194938294839161114f575b505af16111006125ed565b5015610fcc577fcdcc745fe377b103b45fa0cec23ae3ef93d6fc6a84a01f0d18c40b354dd1d5d86111496111386105cc600b54610388565b604051938452929081906020820190565b0390a280f35b611167915060203d8111610837576108288183610348565b386110f5565b3461052c57602036600319011261052c5760043561118a8161054d565b6111926123e0565b15610d86576005546001600160a01b0391908216330361107357811680156111f157600080546001600160a01b03198116831782559092167fe939feee179e631422bcc8f6e6d7d908cb3f8af38f5372f17c77e15aea5c80ee8380a380f35b60405163e6c4247b60e01b8152600490fd5b3461052c57600036600319011261052c576020600d54604051908152f35b3461052c57602036600319011261052c5760043561123e8161054d565b803b600061124b8261162f565b926112596040519485610348565b82845260208401903c602d815110610fcc57602a602091015160601c604051908152f35b936112996112d19896939297949760e0875260e08701906103b7565b6001600160a01b03928316602087015260408601979097521660608401521515608083015260a082015280830360c0909101526103b7565b90565b3461052c57602036600319011261052c576004356000198101908111610a08576112fd90610203565b5060018101546002820154600883015460098401546040516001600160a01b039485169561052894600394929161135a906113438461133c8184610261565b0385610348565b6113536040518098819301610261565b0386610348565b60405197889760ff85169460081c16928861127d565b3461052c5760408060031936011261052c5760049081359160243561139481610a3a565b61139c6123e0565b15611526576113aa33612515565b15611517578315801561150c575b6114fd576113cd6113c885611a2b565b610203565b5092600884015460ff8116156114ed5760068501546113ea6124cf565b116114dd5760b01c60ff166114ce57600a840161141161140a33836120b2565b5460ff1690565b6114be5785916114536114467f0def80f9a3b4c7a4251442658ccf516bf33ea4acaf31638fc6da8ebdb0f64c729333906120b2565b805460ff19166001179055565b83156114a9578486016114668154611e3f565b90555b5192151583523392602090a381015460078201548091109182159261149a575b505061149157005b610016906120c9565b60050154101590503880611489565b600586016114b78154611e3f565b9055611469565b8151637c9a1cf960e01b81528490fd5b51634481832360e11b81529050fd5b8151637a19ed0560e01b81528490fd5b8151631104bc2760e21b81528490fd5b509051630992f7ad60e01b8152fd5b50600e5484116113b8565b50905163ea8e4eb560e01b8152fd5b509051634ee2123760e11b8152fd5b3461052c57602036600319011261052c5760043561155233612452565b1561107357801580156115e5575b6115d3576000198101818111610a085761157b600891610203565b5001805460b01c60ff166115c157805460ff60b01b1916600160b01b1790557f4cf2797951877f41b38931a68643f9249273f32fd396532213aa4f1222c9d16b600080a2005b604051634481832360e11b8152600490fd5b604051630992f7ad60e01b8152600490fd5b50600e548111611560565b6040519061016082016001600160401b0381118382101761032857604052565b6040519060c082016001600160401b0381118382101761032857604052565b6001600160401b03811161032857601f01601f191660200190565b9291926116568261162f565b916116646040519384610348565b82948184528183011161052c578281602093846000960137010152565b3461052c5760a036600319011261052c576001600160401b0360043581811161052c576116b2903690600401610a0d565b6024929192356116c18161054d565b60643592831161052c573660238401121561052c57610528936116f16116ff94369060248160040135910161164a565b916084359360443592611fe8565b6040519081529081906020820190565b3461052c57602036600319011261052c5760206105856004356117318161054d565b612515565b3461052c57600036600319011261052c5760206105856123e0565b3461052c57608036600319011261052c57600460243581356117728261054d565b6044356001600160401b03811161052c576117909036908501610a0d565b909261179a6123e0565b156119e9576117a833612515565b156119d85760105483116119c7576117c2610bfd84611a2b565b9160018301549060ff8260c01c16156119b6576040956117ef919083881b6001600160e01b031916611e4e565b956118006105cc6105cc8354610388565b60038501549283156119965750865163509222cd60e01b81526020936001600160a01b039290921692919084818061183a8982880161097a565b0381875afa90811561083e57600091611969575b501561195a5760018114611900575b600214611899575b5050509361188a9291610528955b6002820154936118856064359361036b565b611f35565b90519081529081906020820190565b9282959492916118bd98948851809a819482936376fe6c4560e01b8452830161097a565b03915afa801561083e576105289661188a956000926118e3575b50509195819394611865565b6118f99250803d10610837576108288183610348565b38806118d7565b938361191e91895180938192630e5fd00b60e01b835286830161097a565b0381865afa801561083e5760029160009161193d575b5094905061185d565b6119549150853d8711610837576108288183610348565b38611934565b50865163ea8e4eb560e01b8152fd5b6119899150853d871161198f575b6119818183610348565b810190611e86565b3861184e565b503d611977565b6105289861188a979690955093506001600160a01b031691506118739050565b604051630fe92ce760e21b81528790fd5b604051630a98a78560e21b81528590fd5b60405163ea8e4eb560e01b81528590fd5b604051634ee2123760e11b81528590fd5b3461052c57600036600319011261052c576020610f196124cf565b634e487b7160e01b600052601160045260246000fd5b600019810191908211610a0857565b90601f8111611a4857505050565b600091825260208220906020601f850160051c83019410611a84575b601f0160051c01915b828110611a7957505050565b818155600101611a6d565b9092508290611a64565b9092916001600160401b03811161032857611ab381611aad8454610227565b84611a3a565b6000601f8211600114611aed5781929394600092611ae2575b50508160011b916000199060031b1c1916179055565b013590503880611acc565b601f19821694611b0284600052602060002090565b91805b878110611b3d575083600195969710611b23575b505050811b019055565b0135600019600384901b60f8161c19169055388080611b19565b90926020600181928686013581550194019101611b05565b80546001600160a01b0319166001600160a01b03909216919091179055565b805463ffffffff60a01b191660409290921c63ffffffff60a01b16919091179055565b805460ff60c01b191691151560c01b60ff60c01b16919091179055565b908060209392818452848401376000828201840152601f01601f1916010190565b9160609396959491611bef91608085526080850191611bb4565b6001600160e01b0319909616602083015260408201520152565b6001600160a01b039091169052565b81519192916001600160401b03811161032857611c3981611aad8454610227565b602080601f8311600114611c74575081929394600092611c695750508160011b916000199060031b1c1916179055565b015190503880611acc565b90601f19831695611c8a85600052602060002090565b926000905b888210611cc657505083600195969710611cad57505050811b019055565b015160001960f88460031b161c19169055388080611b19565b80600185968294968601518155019501930190611c8f565b815180519192916001600160401b03811161032857611d0781611d018654610227565b86611a3a565b6020918290601f8311600114611d9b57928260039593611d7f9360a096600092611d90575b50508160011b9160001990881b1c19161786555b611d59611d536001880192850151610388565b82611b55565b6040830151611d72906001600160e01b03191682611b74565b6060830151151590611b97565b608081015160028501550151910155565b015190503880611d2c565b90601f19831691611db187600052602060002090565b9260005b818110611df9575093611d7f9360a096936001938360039a9810611de1575b505050811b018655611d40565b0151600019838a1b60f8161c19169055388080611dd4565b929386600181928786015181550195019301611db5565b90611e2a9060409396959496606084526060840191611bb4565b6001600160e01b031990951660208201520152565b6000198114610a085760010190565b6024906103869294938060405196879363ffffffff60e01b166020850152848401378101600083820152036004810185520183610348565b9081602091031261052c57516112d181610a3a565b6040513d6000823e3d90fd5b9081602091031261052c57516112d18161054d565b600e54600160401b811015610328576001810180600e5581101561022257600e600052600b602060002091020190600090565b81810292918115918404141715610a0857565b9060638201809211610a0857565b8054610100600160a81b03191660089290921b610100600160a81b0316919091179055565b9293611f6c91959294611f51611f49611ebc565b509586611c18565b611f5e8660018701611b55565b600285015560038401611c18565b6064611f8a611f85611f7c6125a3565b600d5490611eef565b611f02565b046007830155611f986124cf565b908101809111610a085781600991600686940155611fbd600882016114463382611f10565b0155600e54918260008051602061278d83398151915260405180611fe233968261097a565b0390a490565b919390611ff433612452565b15611073576001600160a01b038516156111f1576120469261201791369161164a565b9261202b612023611ebc565b509485611c18565b6120388560018601611b55565b600284015560038301611c18565b6064612056611f85611f7c6125a3565b0460078201556120646124cf565b928301809311610a08576009926006820155612087600882016114463382611f10565b61270f9283910155600e54918260008051602061278d83398151915260405180611fe233968261097a565b9060018060a01b0316600052602052604060002090565b7f948f4a9cd986f1118c3fbd459f7a22b23c0693e1ca3ef06a6a8be5aa7d39cc03612163610fba6120fc6113c885611a2b565b5060088101805460ff60b01b1916600160b01b178155906121456004820154600783015481101590816121ac575b50835460ff60a81b191690151560a81b60ff60a81b16178355565b815460a81c60ff1680612197575b612168575b505460a81c60ff1690565b0390a2565b806121796001612190930154610388565b61218a60036002840154930161036b565b90612707565b5038612158565b506121a56003820154610227565b1515612153565b90506005830154103861212a565b6123be610140610386926121f36121d18251610388565b600280546001600160a01b0319166001600160a01b0392909216919091179055565b6122256122036020830151610388565b600380546001600160a01b0319166001600160a01b0392909216919091179055565b6122576122356040830151610388565b600480546001600160a01b0319166001600160a01b0392909216919091179055565b6122896122676060830151610388565b600580546001600160a01b0319166001600160a01b0392909216919091179055565b6122bb6122996080830151610388565b600680546001600160a01b0319166001600160a01b0392909216919091179055565b6122ed6122cb60a0830151610388565b600780546001600160a01b0319166001600160a01b0392909216919091179055565b61231f6122fd60c0830151610388565b600880546001600160a01b0319166001600160a01b0392909216919091179055565b61235161232f60e0830151610388565b600980546001600160a01b0319166001600160a01b0392909216919091179055565b612384612362610100830151610388565b600a80546001600160a01b0319166001600160a01b0392909216919091179055565b6123b7612395610120830151610388565b600b80546001600160a01b0319166001600160a01b0392909216919091179055565b0151610388565b600c80546001600160a01b0319166001600160a01b0392909216919091179055565b600254604051612428916001600160a01b0316906123fd8161030d565b6008815267697353616665282960c01b60208201526040519161241f8361032d565b6000835261261d565b9080612447575b15610fcc57806020806112d193518301019101611e86565b50602081511461242f565b6124a860018060a01b0380600254166040519160209416848301528382526124798261030d565b604051906124868261030d565b601182527069735369676e657228616464726573732960781b8583015261261d565b90806124c5575b15610fcc57816112d19282518301019101611e86565b50818151146124af565b6003546040516112d1916001600160a01b0316906124ec8161030d565b600681526569416765282960d01b60208201526040519161250c8361032d565b60008352612698565b60018060a01b039061257682600654169260405190602093168382015282815261253e8161030d565b60405161254a8161030d565b6018815277697364656c656761746f724e6f646528616464726573732960401b8482015260009461261d565b919080612599575b61258757505090565b6112d192508082518301019101611e86565b508082511461257e565b6006546040516112d1916001600160a01b0316906125c08161030d565b601381527267657464656c656761746f72436f756e74282960681b60208201526040519161250c8361032d565b3d15612618573d906125fe8261162f565b9161260c6040519384610348565b82523d6000602084013e565b606090565b803b1561267f57600092839263ffffffff60e01b9060208151910120169061266f602460405180936020820195865261265f8151809260208686019101610394565b8101036004810184520182610348565b51915afa61267b6125ed565b9091565b5050506000906040516126918161032d565b6000815290565b92916126a69160009461261d565b90806126cb575b6126b45750565b90915060208180518101031261052c576020015190565b5060208151146126ad565b906020825192015163ffffffff60e01b9081811693600481106126f857505050565b60040360031b82901b16169150565b9091906001600160a01b038116156111f157600091829184519160208601915af1906127316125ed565b911561273b575090565b8051600091906004116127865761275291506126d6565b8151156127625750805190602001fd5b604051630870274d60e21b81526001600160e01b0319919091166004820152602490fd5b5061275256fe336735bcae5ee955b87e8b30bee52920223fa30a865b207ac6d9eee9f19589fb2dd3ae6155b13a46b2374a1f42e0733244754e572ec9f0034b698efefa8673a1a264697066735822122017207caa75e977d78bd1362ad6400b108d77094b759f05307dae7dd4c47d6e2064736f6c634300081400336080346200009e57601f6200486038819003918201601f19168301916001600160401b03831184841017620000a3578084926020946040528339810103126200009e57516001600160a01b038116908190036200009e5780156200008c5760018060a01b03193381600154161760015560005416176000556001600d556040516147a69081620000ba8239f35b60405163e6c4247b60e01b8152600490fd5b600080fd5b634e487b7160e01b600052604160045260246000fdfe60806040526004361015610018575b361561001657005b005b60003560e01c8063033eeffb146103d35780630e5fd00b146103745780631157a849146103ce57806312065fe0146103c957806313508e37146103c45780631bb49f02146103bf5780631c53c280146103ba5780631f185d16146103b55780631f5fa838146103b05780632bbae52e146103ab5780632fefc0bf146103a6578063339459a6146103a157806333b59a5b1461039c5780633a7b55b8146103975780633b9b7955146103925780633baee0ea1461038d578063419cb27b1461038857806342cc9d5714610383578063445850971461037e57806344668f231461037957806345145fd7146103745780634d1ec4521461036f5780634f0f4aa91461036a578063509222cd1461036557806350db85d11461036057806361ea72081461035b578063629d671e1461035657806365d2fbd3146103515780636a8112441461034c5780636b90905b146103475780636fb412ab1461034257806370a75f501461033d57806376fe6c45146103385780637818cdd71461033357806380f85e331461032e578063849c22ad14610329578063896c354a146103245780638d92a51b1461031f5780638da5cb5b1461031a57806398b3f21514610315578063a1f7f53914610310578063a89d693b1461030b578063ab3980b114610306578063af48452614610301578063b1c49079146102fc578063b366335e146102f7578063b90306ad146102f2578063be17fe62146102ed578063c43792e3146102e8578063c54e44b0146102e3578063c871372b146102de578063cf359165146102d9578063d1e0bbc6146102d4578063dcb3fc4a146102cf578063e01ad5fd146102ca578063e0a9bc2b146102c5578063eb95c662146102c0578063f3ca7124146102bb578063fd38093b146102b65763fdc10bc90361000e576129b8565b61294a565b61291e565b6128f2565b6128d7565b612818565b61265a565b612620565b612540565b6124bb565b61245f565b612433565b612380565b612298565b612222565b61214f565b61211e565b61207d565b612014565b611f7b565b611f4f565b611f26565b611e85565b611e45565b611e16565b611ddc565b611d83565b611c3b565b611b9a565b6119ca565b6118a8565b611723565b61132f565b6112f2565b6112ba565b6111aa565b611157565b611096565b611035565b610434565b610ffe565b610fc7565b610f98565b610f64565b610c74565b610c23565b610ba9565b610914565b6108fb565b6108cb565b610886565b610767565b6106a0565b61066c565b6105b3565b61056a565b61054e565b610483565b346103ff5760203660031901126103ff5760043560005260156020526020604060002054604051908152f35b600080fd5b6001600160a01b031690565b6001600160a01b038116036103ff57565b6001600160a01b03909116815260200190565b346103ff5760203660031901126103ff57602060043561045381610410565b60018060a01b03809116600052600e82526040600020546000526011825260046040600020015416604051908152f35b346103ff5760203660031901126103ff5760043561049f612a11565b8060005260116020526104c26104be600160406000200160ff90541690565b1590565b8015610530575b61051e576104e66104be60016104de8461060c565b015460ff1690565b61050c576104f66105029161060c565b60016000918281550155565b6100166001600d55565b604051632564805f60e11b8152600490fd5b604051635dab8f7760e01b8152600490fd5b5061053a336112d8565b548114156104c9565b60009103126103ff57565b346103ff5760003660031901126103ff57602047604051908152f35b346103ff5760203660031901126103ff57600435600052601a6020526060604060002060ff600182549201546040519283528181161515602084015260081c1615156040820152f35b346103ff5760203660031901126103ff5760206004356105d281610410565b6001600160a01b039081166000908152600e8352604080822054825260118452808220600201548252600f84529081902054905191168152f35b600052601a602052604060002090565b6000526012602052604060002090565b6000526011602052604060002090565b600052600f602052604060002090565b6000526014602052604060002090565b6000526015602052604060002090565b346103ff5760203660031901126103ff57600435600052600f602052602060018060a01b0360406000205416604051908152f35b346103ff576020806003193601126103ff576107136004356106c181610410565b6002546040516001600160a01b039283168582015284815291166106e482611cd3565b604051906106f182611cd3565b601182527069735369676e657228616464726573732960781b85830152614606565b91908061075d575b1561074b5781816107359261074794518301019101613e0c565b60405190151581529081906020820190565b0390f35b60405163baf3f0f760e01b8152600490fd5b508082511461071b565b346103ff576020806003193601126103ff5760043561078581610410565b604051632ca05d7160e21b81526001600160a01b039183908290600490829086165afa9081156108285760009161083f575b5016801561082d5781600491604051928380926349a104e760e11b82525afa90811561082857610747926000926107fb575b50506040519081529081906020820190565b61081a9250803d10610821575b6108128183611d40565b810190613141565b38806107e9565b503d610808565b612b35565b604051631a113ba560e21b8152600490fd5b61085f9150833d8511610865575b6108578183611d40565b810190612b20565b386107b7565b503d61084d565b6001600160a01b0391821681529116602082015260400190565b346103ff5760203660031901126103ff576004356000526011602052604060002060018060a01b0360058160048401541692015416906107476040519283928361086c565b346103ff5760203660031901126103ff5760206108e9600435612d66565b6040516001600160a01b039091168152f35b346103ff5760003660031901126103ff57610016614108565b346103ff576040806003193601126103ff576004803590602435906109376144a6565b15610b6d5761094533614518565b8015610b59575b15610b4b576000936109666109618654610404565b610404565b918151809363111ea8c160e21b8252818360209687935afa908115610828578791610b2e575b506001600160a01b0316908515610b28576109a686612a64565b83516380f85e3360e01b80825283820192835260006020840152918690829081906040010381875afa908115610828578991610b0b575b50965b868111156109ec578880f35b84516375cae33160e11b81528381018281528790829081906020010381885afa908115610828578a91610aee575b50610a2f826000526016602052604060002090565b55885b60088110610a495750610a4490612d84565b6109e0565b8551838152878180610a5e85878a8401611712565b0381895afa908115610828578b91610ad1575b508115610aa5575b90610aa091610a9a82610a8b8661061c565b90600052602052604060002090565b55612d84565b610a32565b9890610ab4610aa0928b612a73565b610ac8846000526019602052604060002090565b55905088610a79565b610ae89150883d8a11610821576108128183611d40565b38610a71565b610b059150873d8911610821576108128183611d40565b38610a1a565b610b229150863d8811610821576108128183611d40565b386109dd565b866109a6565b610b459150843d8611610865576108578183611d40565b3861098c565b835163ea8e4eb560e01b8152fd5b506005546001600160a01b0316331461094c565b8351634ee2123760e11b8152fd5b60e0810192916000915b60078310610b9257505050565b600190825181526020809101920192019190610b85565b346103ff576020806003193601126103ff57600435604091825191610bcd83611cee565b60e036843760005b60078110610bea578451806107478682610b7b565b816000526013835284600020906001810191828211610c1e57826000528452610c1886600020549186613db7565b52610bd5565b6129d3565b346103ff5760003660031901126103ff576000546040516001600160a01b039091168152602090f35b60409060031901126103ff57600435610c6481610410565b90602435610c7181610410565b90565b346103ff57610c8236610c4c565b610c8a612a11565b610c92614108565b610c9c8133612b41565b6001600160a01b03818116908115610f5257610cb7836112d8565b54151580610f46575b610f3457610ccd846112d8565b5415610f2257610cf66109616109616005610cf0610cea896112d8565b5461062c565b01612a04565b91823b156103ff5760409160008351809563880cdc3160e01b8252818381610d218b60048301610421565b03925af19384156108285761074794610f09575b50610d4a6109616004610cf0610cea8a6112d8565b610ecf575b610d58866112d8565b54610d62866112d8565b55610d7e85610d79610d73896112d8565b5461063c565b612d93565b610d96336004610d90610cea896112d8565b01612d93565b851614159081610ebe575b610e55610e16610db0866112d8565b5495610dc06005610cf08961062c565b9781610ddf610dda6002610dd38c61062c565b015461063c565b612a04565b9615610e8657610e2991610e24610df7600954610404565b91610e16895194859263e3d1d5bf60e01b60208501526024840161086c565b03601f198101845283611d40565b6146ee565b505b610e24610e39600a54610404565b918551938491634ef260a960e01b602084015260248301610421565b50610e606001600d55565b519283526001600160a01b03938416602084015290921660408201529081906060820190565b50610e16610eb891610e24610e9c600954610404565b918851938491639498d88b60e01b602084015260248301610421565b50610e2b565b6000610ec9866112d8565b55610da1565b610f03610ee36004610cf0610cea8a6112d8565b845162e6724f60e21b602082015290610e2482610e163360248301610421565b50610d4f565b80610f16610f1c92611ca0565b80610543565b38610d35565b60405163a7bc67af60e01b8152600490fd5b604051631bb220a360e21b8152600490fd5b50818185161415610cc0565b6040516398c534a160e01b8152600490fd5b346103ff5760203660031901126103ff576004356000526011602052602060ff600160406000200154166040519015158152f35b346103ff5760203660031901126103ff5760043560005260116020526020600360406000200154604051908152f35b346103ff5760203660031901126103ff576004356000526011602052602060018060a01b0360046040600020015416604051908152f35b346103ff5760003660031901126103ff576020601b54604051908152f35b9081526001600160a01b03909116602082015260400190565b346103ff5760203660031901126103ff5760043561105281610410565b60018060a01b0380600092168252600e60205260408220548252601160205260406002818420015492838152600f602052205416906107476040519283928361101c565b346103ff5760203660031901126103ff57600435806000526011602052604060002054600f60205261074760018060a01b03806040600020541693601160205260406000209160046002840154930154166110f56005610cf08461062c565b90600361110f61110960016104de8761062c565b9461062c565b0154604080519788526001600160a01b03988916602089015287019490945286166060860152909416608084015292151560a083015260c082019290925290819060e0820190565b346103ff5760203660031901126103ff5760043561117481610410565b60018060a01b0316600052600e6020526040600020546000526011602052602060ff600160406000200154166040519015158152f35b346103ff576111b836610c4c565b6111c06144a6565b156112a8576111ce33614518565b8015611294575b15611282576111eb916111e6612a11565b612db2565b80600052601160205260018060a01b03600560406000200154169061123360405163d3abb8a360e01b6020820152600160248201526024815261122d81611cb8565b836146ee565b5061123d82612c61565b61125b575b61124c6001600d55565b6107476040519283928361101c565b61127d6112786005610cf060026112718661062c565b015461062c565b612cd4565b611242565b60405163ea8e4eb560e01b8152600490fd5b506005546001600160a01b031633146111d5565b604051634ee2123760e11b8152600490fd5b346103ff5760003660031901126103ff576020601054604051908152f35b6001600160a01b03166000908152600e6020526040902090565b346103ff5760203660031901126103ff5760043561130f81610410565b60018060a01b0316600052600e6020526020604060002054604051908152f35b346103ff5760203660031901126103ff57600480359061134d612a11565b6001906113606104be836104de8661062c565b80156116ff575b6116f0576113748361060c565b91808301926113876104be855460ff1690565b6116df57611393612a34565b6113a96113a46005610cf08861062c565b612c61565b906113bc6104be865460ff9060081c1690565b156115895750600291826113cf8761062c565b015415611578576000815b61149a575b505061147b575b6113fa6109616109616005610cf08861062c565b803b156103ff57604051631867546560e21b8152600193810193845292600091849182908490829060200103925af18015610828576105029460009361145792611468575b5084546114529060081c60ff1682613287565b61062c565b0155805461ff001916610100179055565b80610f1661147592611ca0565b3861143f565b6114956114906005610cf0846112718961062c565b612d22565b6113e6565b6003806114aa866112718b61062c565b01548210156115725787806114da6114d085856114ca8b6112718761062c565b0161303c565b90549060031b1c90565b146114f05750506114ea90612d84565b816113da565b61156b935061153f8293836114ca896112716115396114d0886115338761152c876112716115589f611525836112718961062c565b019561062c565b0154612a64565b9061303c565b9661062c565b90919082549060031b91821b91600019901b1916179055565b611565846112718961062c565b0161323a565b38806113df565b506113df565b604051634593d2d560e11b81528490fd5b929493915060026115998561062c565b01546116ce576115e0916115da916115cb8660036115c588548060026115be8661062c565b015561062c565b01613059565b6116b7575b5460081c60ff1690565b83613287565b6001600160a01b036115f584610cf08561062c565b16611670575b506116106109616109616005610cf08561062c565b803b156103ff57604051631867546560e21b81526000938101848152909391849182908490829060200103925af190811561082857611658926104f69261165d575b5061060c565b610502565b80610f1661166a92611ca0565b38611652565b610e166116b091610e24611694610dda61168d88610cf08961062c565b935461063c565b604051630a4ce2c960e11b602082015293849160248301610421565b50386115fb565b6116c96112786005610cf0875461062c565b6115d0565b60405163a937c68b60e01b81528590fd5b604051632564805f60e11b81528390fd5b604051635dab8f7760e01b8152fd5b50611709336112d8565b54831415611367565b908152602081019190915260400190565b346103ff576040806003193601126103ff5760043590611741612a11565b6117526104be60016104de8561062c565b611898576117676109616004610cf08561062c565b330361188857600090611778612a34565b60606117b26117916109616109616005610cf08961062c565b601b5484519586809481936350e12e4360e11b835260243560048401611712565b03925af192831561082857600080938195611848575b50836107479392826117e56117e0846117f1966129f7565b613e79565b80611805575b506135b6565b6117fb6001600d55565b5192839283611712565b61184190611814600c54610404565b610e24611823610dda8661063c565b610e16895194859263a9059cbb60e01b60208501526024840161321f565b50386117eb565b6117f1955061074793929450611875915060603d8111611881575b61186d8183611d40565b81019061359b565b955093919250836117c8565b503d611863565b5163e38a47bd60e01b8152600490fd5b5163bf22183960e01b8152600490fd5b346103ff576040806003193601126103ff5760049060243582356118ca6144a6565b156119bb576118d833614518565b80156119a7575b15611998576118ec612a11565b6118fd6104be60016104de8461062c565b611989576119126104be60016104de8561062c565b61197a576119276113a46005610cf08561062c565b1561196b576119359061060c565b6001810192611945845460ff1690565b61195c575055805460ff1916600117905550610502565b516304d2a6fb60e21b81528490fd5b505051630771dfcd60e11b8152fd5b505051630500268160e01b8152fd5b50505163bf22183960e01b8152fd5b50505163ea8e4eb560e01b8152fd5b506005546001600160a01b031633146118df565b505051634ee2123760e11b8152fd5b346103ff576040806003193601126103ff57602435906004356119eb612a11565b6119fc6104be60016104de8461062c565b611b5f57611a0f610961610dda8361063c565b3303611b4e5760046020611a2d6109616109616005610cf08761062c565b8451634b2cc33f60e11b815292839182905afa8015610828578491600091611b30575b501015611a61576100166001600d55565b6080611a9a93611a7b6109616109616005610cf08761062c565b845180809781946331a8596160e11b8352600483019190602083019252565b03915afa90811561082857611ae793600092611af0575b50611ac1610dda610e249261063c565b610e16611acc613193565b9451637a937b4560e11b6020820152948592602484016131ce565b50388080610502565b610e24919250610dda611b1c611ac19260803d8111611b29575b611b148183611d40565b810190613150565b9250505093925050611ab1565b503d611b0a565b611b48915060203d8111610821576108128183611d40565b38611a50565b8151635dab8f7760e01b8152600490fd5b815163bf22183960e01b8152600490fd5b801515036103ff57565b60609060031901126103ff576004359060243590604435610c7181611b70565b346103ff57611ba836611b7a565b611bb06144a6565b156112a857611bbe33614518565b8015611c27575b156112825715611bfb57806000526016602052604060002054918201809211610c1e576000526016602052604060002055600080f35b806000526016602052604060002054918203918211610c1e576000526016602052604060002055600080f35b506005546001600160a01b03163314611bc5565b346103ff5760203660031901126103ff576020600435611c5a81610410565b60018060a01b03809116600052600e82526040600020546000526011825260056040600020015416604051908152f35b634e487b7160e01b600052604160045260246000fd5b6001600160401b038111611cb357604052565b611c8a565b606081019081106001600160401b03821117611cb357604052565b604081019081106001600160401b03821117611cb357604052565b60e081019081106001600160401b03821117611cb357604052565b602081019081106001600160401b03821117611cb357604052565b61010081019081106001600160401b03821117611cb357604052565b601f909101601f19168101906001600160401b03821190821017611cb357604052565b6040519061016082016001600160401b03811183821017611cb357604052565b346103ff576101003660031901126103ff5736604312156103ff57604051611daa81611cee565b610104813682116103ff576024905b828210611dcc5761001684600435613baa565b8135815260209182019101611db9565b346103ff5760403660031901126103ff57600435600052601260205260406000206024356000526020526020604060002054604051908152f35b346103ff5760203660031901126103ff5760043560005260116020526020600260406000200154604051908152f35b346103ff5760403660031901126103ff5760043560005260116020526020611e76602435600360406000200161303c565b90549060031b1c604051908152f35b346103ff57611e9336611b7a565b611e9b6144a6565b156112a857611ea933614518565b8015611f12575b156112825715611ee657806000526018602052604060002054918201809211610c1e576000526018602052604060002055600080f35b806000526018602052604060002054918203918211610c1e576000526018602052604060002055600080f35b506005546001600160a01b03163314611eb0565b346103ff5760003660031901126103ff576001546040516001600160a01b039091168152602090f35b346103ff5760203660031901126103ff5760043560005260196020526020604060002054604051908152f35b346103ff5760003660031901126103ff576020611fdd60018060a01b0360065416604051611fa881611cd3565b601381527267657464656c656761746f72436f756e74282960681b8482015260405191611fd483611d09565b60008352614681565b604051908152f35b610100810192916000915b60088310611ffd57505050565b600190825181526020809101920192019190611ff0565b346103ff576020806003193601126103ff5760043590604080519161203883611d24565b61010036843760005b60088110612056578251806107478682611fe5565b60019085600052601283528360002081600052835283600020548160051b86015201612041565b346103ff5761208b36611b7a565b6120936144a6565b156112a8576120a133614518565b801561210a575b1561128257156120de57806000526019602052604060002054918201809211610c1e576000526019602052604060002055600080f35b806000526019602052604060002054918203918211610c1e576000526019602052604060002055600080f35b506005546001600160a01b031633146120a8565b346103ff5760203660031901126103ff57602061214560043561214081610410565b614518565b6040519015158152f35b346103ff5761215d36610c4c565b612165612a11565b61216f8133612b41565b6121836104be60016104de610cea866112d8565b6122105761219c6113a4612196846112d8565b54612d66565b156121fe576121b4916121ad612a34565b3390612ee6565b6121d16121c2601b5461061c565b60008052602052604060002090565b6121db81546129e9565b90556121e5613ea5565b6121f36005610cf08361062c565b9061124c6001600d55565b604051630771dfcd60e11b8152600490fd5b604051634eeadaa960e11b8152600490fd5b346103ff5760203660031901126103ff5761223b6144a6565b156112a85761224933614518565b8015612284575b156112825761225d614599565b601b5410612274575b610016600435601b54612a80565b61227c614599565b601b55612266565b506005546001600160a01b03163314612250565b346103ff5760203660031901126103ff576004356122b46144a6565b156112a8576005546001600160a01b0316330361128257600090600460206122df6109618554610404565b6040516311be646b60e21b815292839182905afa80156108285783808481949382948391612362575b505af16123136145d6565b501561074b577fcdcc745fe377b103b45fa0cec23ae3ef93d6fc6a84a01f0d18c40b354dd1d5d861235c61234b610961600b54610404565b604051938452929081906020820190565b0390a280f35b61237a915060203d8111610865576108578183611d40565b38612308565b346103ff5760203660031901126103ff5760043561239d81610410565b6123a56144a6565b156112a8576123b333614518565b801561241f575b15611282576001600160a01b03908116801561240d57600080546001600160a01b03198116831782559092167fe939feee179e631422bcc8f6e6d7d908cb3f8af38f5372f17c77e15aea5c80ee8380a380f35b60405163e6c4247b60e01b8152600490fd5b506005546001600160a01b031633146123ba565b346103ff5760203660031901126103ff5760043560005260176020526020604060002054604051908152f35b346103ff5760203660031901126103ff5760043561247c81610410565b803b600061248982613178565b926124976040519485611d40565b82845260208401903c602d81511061074b57602a602091015160601c604051908152f35b60403660031901126103ff576004356124d2612a11565b80600052601160205260ff600160406000200154161561252e576124fd6005610cf06125239361062c565b60405163d3abb8a360e01b6020820152602480359082015290610e248260448101610e16565b506100166001600d55565b60405163bf22183960e01b8152600490fd5b346103ff576020806003193601126103ff5760043561255e81610410565b604051632ca05d7160e21b81526001600160a01b039183908290600490829086165afa90811561082857600091612603575b5016801561082d5781600491604051928380926304ec6d1760e11b82525afa90811561082857610747926000926125d6575b505060405190151581529081906020820190565b6125f59250803d106125fc575b6125ed8183611d40565b810190613e0c565b38806125c2565b503d6125e3565b61261a9150833d8511610865576108578183611d40565b38612590565b346103ff5760403660031901126103ff57600435600052601460205260406000206024356000526020526020604060002054604051908152f35b346103ff5760c03660031901126103ff5760243560043561267a82610410565b606435906084359261268a612a11565b61269b6104be60016104de8561062c565b61252e576126b06109616004610cf08561062c565b330361280657612758936040916126c5612a34565b6126ce82613e21565b6126d785613e4d565b6126e86113a46005610cf08761062c565b156127eb575b6127026109616109616005610cf08861062c565b601b5484516387acdff760e01b81526001600160a01b0390931660048401526044803560248501528301879052606483019390935260a480356084840152820192909252948591908290600090829060c4820190565b03925af1908115610828576105029360009081936127b8575b508061277e575b506137c9565b610e166127b191610e24612793600b54610404565b9160405193849163a9059cbb60e01b6020840152336024840161321f565b5038612778565b90506127dc91925060403d81116127e4575b6127d48183611d40565b810190613209565b919038612771565b503d6127ca565b6128016112786005610cf060026112718961062c565b6126ee565b60405163e38a47bd60e01b8152600490fd5b346103ff576020806003193601126103ff57610747906004359061283b82610410565b6006546040516001600160a01b039384168382015282815292169161289b9061286381611cd3565b60405161286f81611cd3565b6018815277697364656c656761746f724e6f646528616464726573732960401b84820152600094614606565b9190806128cd575b6128bb57505060405190151581529081906020820190565b6125f592508082518301019101613e0c565b50808251146128a3565b346103ff5760003660031901126103ff5760206121456144a6565b346103ff5760203660031901126103ff5760043560005260166020526020604060002054604051908152f35b346103ff5760203660031901126103ff5760043560005260186020526020604060002054604051908152f35b346103ff576040806003193601126103ff5760043561296881610410565b60018060a01b0316610747826000838152600e602052818120548152601560205281812054938152600e602052818120548152601460205281812060243582526020522054925192839283611712565b346103ff5760003660031901126103ff576020611fdd614599565b634e487b7160e01b600052601160045260246000fd5b9060018201809211610c1e57565b91908201809211610c1e57565b546001600160a01b031690565b6002600d5414612a22576002600d55565b604051633ee5aeb560e01b8152600490fd5b612a3c614599565b601b5410612a54575b612a52600a601b54612a80565b565b612a5c614599565b601b55612a45565b600019810191908211610c1e57565b91908203918211610c1e57565b600091818352602092601284526040918282208280528552828220541580612b16575b80612b0d575b612ab5575b5050505050565b612ad190612acb612ac586612a64565b91612a64565b90612a80565b805b6008811015612aae57600190612af0612aeb86612a64565b61061c565b818452865283832054612b0682610a8b8861061c565b5501612ad3565b50801515612aa9565b5060018411612aa3565b908160209103126103ff5751610c7181610410565b6040513d6000823e3d90fd5b604051638da5cb5b60e01b81526020926001600160a01b03928316918481600481865afa918215610828578491600093612bf2575b508116911603612806578260049160405192838092633b9b795560e01b82525afa92831561082857600093612bd3575b5050612bb86109618260005416610404565b911603612bc157565b6040516363ad7db960e11b8152600490fd5b612bea929350803d10610865576108578183611d40565b903880612ba6565b82919350612c0c90873d8911610865576108578183611d40565b9290612b76565b908160809103126103ff576040519060808201906001600160401b03821183831017611cb3576060916040528051835260208101516020840152604081015160408401520151606082015290565b6000906001600160a01b031680612c79575050600090565b60806024916040519283809263da02133560e01b82528660048301525afa9182156108285791612ca857505190565b612cc9915060803d8111612ccd575b612cc18183611d40565b810190612c13565b5190565b503d612cb7565b6001600160a01b031680612ce55750565b803b156103ff5760008091602460405180948193630711e58760e41b8352600160048401525af1801561082857612d195750565b612a5290611ca0565b6001600160a01b031680612d335750565b803b156103ff5760008091602460405180948193630711e58760e41b83528160048401525af1801561082857612d195750565b6000908152601160205260409020600501546001600160a01b031690565b6000198114610c1e5760010190565b80546001600160a01b0319166001600160a01b03909216919091179055565b90612dc460016104de610cea846112d8565b612ed457612e0b612e0592612de2612ddd601054612d84565b601055565b601054938491612df585610d798561063c565b82612dff866112d8565b556112d8565b5461307c565b612e2a6004612e198461062c565b0180546001600160a01b0319169055565b612e4b612e40612e3b600854610404565b612fbe565b6005610d908561062c565b612e5f6109616109616005610cf08661062c565b90612e6e610961600054610404565b823b156103ff5760405163134bd3bd60e11b81526001600160a01b039182166004820152911660248201526044810183905260006064820181905290918290818381608481015b03925af1801561082857612ec7575090565b80610f16610c7192611ca0565b604051634f710b4560e11b8152600490fd5b919091612efa60016104de610cea856112d8565b612ed457612e0592612f34612f3f92612f17612ddd601054612d84565b601054958691612f2a87610d798561063c565b82612dff886112d8565b6004610d908561062c565b612f50612e40612e3b600854610404565b612f646109616109616005610cf08661062c565b90612f73610961600054610404565b823b156103ff5760405163134bd3bd60e11b81526001600160a01b03918216600482015291166024820152604481018390526001606482015290600090829081838160848101612eb5565b6e5af43d82803e903d91602b57fd5bf390763d602d80600a3d3981f3363d3d373d3d3d363d7300000062ffffff8260881c161760005260781b17602052603760096000f0906001600160a01b0382161561301457565b60405163b06ebf3d60e01b8152600490fd5b634e487b7160e01b600052603260045260246000fd5b80548210156130545760005260206000200190600090565b613026565b80549190600160401b831015611cb3578261153f916001612a529501815561303c565b919091600092808452602091601183526040808620956002948386890155846001986130b18a8201600160ff19825416179055565b55876130bc8661064c565b83805282528489858520555b6130d757505050505050509050565b61312461311e828b8a941461312d575b6130f08861064c565b818752855286862061310281546129e9565b905561310d8861065c565b61311781546129e9565b9055612d84565b9561062c565b015493846130c8565b61313c8960036115c58b61062c565b6130e7565b908160209103126103ff575190565b91908260809103126103ff5781519160208101519160606040830151920151610c7181610410565b6001600160401b038111611cb357601f01601f191660200190565b60405161319f81611d09565b60008152906000368137565b60005b8381106131be5750506000910152565b81810151838201526020016131ae565b909160609260018060a01b03168252604060208301526131fd81518092816040860152602086860191016131ab565b601f01601f1916010190565b91908260409103126103ff576020825192015190565b6001600160a01b039091168152602081019190915260400190565b80549081156132645760001991820191613254838361303c565b909182549160031b1b1916905555565b634e487b7160e01b600052603160045260246000fd5b8015610c1e576000190190565b9061329a6132948361065c565b546129e9565b91600290816132a88261062c565b0154906001938492835b6132c0575b50505050505050565b600f8085111580613592575b1561358c57859060056132e561096182610cf08761062c565b613307575b50506132f86133009261062c565b015493612d84565b92856132b2565b865b828111156133c0575050506132f8613300928460001461337e5761334661332f8761064c565b61333889612a64565b600052602052604060002090565b5461335f61335789610a8b8561064c565b9182546129f7565b905561336a8161065c565b6133758b82546129f7565b90555b926132ea565b61338a61332f8761064c565b546133a361339b89610a8b8561064c565b918254612a73565b90556133ae8161065c565b6133b98b8254612a73565b9055613378565b909192506133d761096161096184610cf08a61062c565b6133e18883612a73565b6040805163da02133560e01b81526004808201939093526080939192918490829060249082905afa90811561082857899460009261356f575b5050858882511580613563575b6135545791613443610961610961879694610cf08b999761062c565b9060006020825192015193613491601b998a5488519a8b9889978896637b058ac160e01b8852870193909594919260809360a086019786526020860152604085015260608401521515910152565b03925af1918215610828576000918293613532575b505087156134f3575b8082116134cb575050506134c290612d84565b90879291613309565b6134d490612d84565b6134e281610a8b855461061c565b6134ec81546129e9565b90556134af565b9190915b82811161350a575050506134c290612d84565b8061351c61352d92610a8b855461061c565b6135268154612a64565b905561327a565b6134f7565b61354c935080919250903d106127e4576127d48183611d40565b9038806134a6565b5050505050506134c290612d84565b50602083015115613427565b6135859250803d10612ccd57612cc18183611d40565b388061341a565b506132b7565b508115156132cc565b908160609103126103ff578051916040602083015192015190565b9190600460206135d0610961610961610961600354610404565b60405163af0b21d360e01b815292839182905afa908115610828576000916137aa575b5060009081908283849185985b600f8a1115806137a1575b156137955761361e6005610cf08361062c565b6001600160a01b03811661364a575b50600261363c6136449261062c565b015499612d84565b98613600565b8a151590818061378c575b8015613784575b613667575b5061362d565b93909694919792600095869861371e575b601b5460405163208bffb160e21b8152600481018d905260006024820152604481018f905260648101919091526084810189905296151560a48801526020878060c48101038160006001600160a01b038b165af194851561082857613644998e61363c9860029a6136ee996136ff575b50613a24565b939892975092949293909290613661565b6137179060203d602011610821576108128183611d40565b50386136e8565b604080516314f71a8760e11b8152979950909690816004816001600160a01b038a165afa9889156108285798613762575b5061375c8382888b6139dc565b95613678565b61377c91985060403d6040116127e4576127d48183611d40565b50963861374f565b50600061365c565b50891515613655565b50505050505050509050565b5080151561360b565b6137c3915060203d602011610821576108128183611d40565b386135f3565b929160049160206137e4610961610961610961600354610404565b60405163af0b21d360e01b815294859182905afa928315610828576000936139bb575b5060009182838491859386995b600f8b1115806139b2575b156139a5576138326005610cf08361062c565b6001600160a01b03811661385e575b5060026138506138589261062c565b01549a612d84565b99613814565b8b1515908c828061399c575b8015613993575b61387d575b5050613841565b94848a8d60009d979b969d9a959a99949990819b61391e575b601b5460405163208bffb160e21b815260048101949094526024840194909452604483019990995260648201929092526084810197909752151560a487015260208660c48160006001600160a01b038c165af194851561082857613850988f6002996138589961390a996136ff5750613a24565b97939492959196909695949992508c613876565b50604080516314f71a8760e11b8152949b509398509291508790506004816001600160a01b038b165afa801561082857898f978e928d918c9591613973575b508786829d61396b936139dc565b909192613896565b61398c915060403d6040116127e4576127d48183611d40565b503861395d565b50841515613871565b5089151561386a565b5050505050505050509050565b5080151561381f565b6139d591935060203d602011610821576108128183611d40565b9138613807565b91929082109283918215946139f4575b505050501590565b159350909183613a19575b505081613a11575b50388080806139ec565b905038613a07565b1015915038806139ff565b604080516314f71a8760e11b8152959992989697969592949391839060049082906001600160a01b03165afa908115610828576000928392613af4575b50613a6b906129e9565b8083101580613aeb575b15613a92578061310d613a8d92610a8b601b5461061c565b613a6b565b5090919293949596838311908115613ae2575b50613ab4575b50509493929190565b9550955050915050613ac583613b1c565b613ad9819593959492959693601b54612a73565b11913880613aab565b90501538613aa5565b50881515613a75565b613a6b9350613b1291925060403d81116127e4576127d48183611d40565b9290929190613a61565b60035460405163575e699560e11b8152600481019290925260a090829060249082906001600160a01b03165afa9081156108285760009182918391613b62575b50909192565b9291505060a0823d8211613ba2575b81613b7e60a09383611d40565b81010312613b9f575060408101516080606083015192015190919038613b5c565b80fd5b3d9150613b71565b613bb26144a6565b156112a857613bc033614518565b8015613d26575b1561128257613bd4612a34565b8015613d1457613bee610961610961610961600354610404565b916040518093634f5c5a2760e11b82528160046102a09687935afa93841561082857600094613ce5575b5050613c2e826000526016602052604060002090565b5460005b60078110613c41575050505050565b80613c4e60019285613db7565b51151580613cd1575b613c62575b01613c32565b613cab613c7a613c728389613db7565b515185613dd9565b613ca5613c946020613c8c868c613db7565b510151613dc8565b613c9e8589613db7565b5190613dd9565b90613dec565b613ccb613cc2876000526013602052604060002090565b613338846129e9565b55613c5c565b50613cdc8187613db7565b51511515613c57565b613d05929450803d10613d0d575b613cfd8183611d40565b810190613d3a565b913880613c18565b503d613cf3565b604051632acd142d60e21b8152600490fd5b506005546001600160a01b03163314613bc7565b6102a09081818403126103ff5782601f820112156103ff576040805193613d6085611cee565b84938301928184116103ff57935b838510613d7d57505050505090565b6060858303126103ff578251606091613d9582611cb8565b8651825260209182880151838201528588015186820152815201940193613d6e565b9060078110156130545760051b0190565b9081606402916064830403610c1e57565b81810292918115918404141715610c1e57565b8115613df6570490565b634e487b7160e01b600052601260045260246000fd5b908160209103126103ff5751610c7181611b70565b601b54806000526016602052604060002054918201809211610c1e576000526016602052604060002055565b601b54806000526017602052604060002054918201809211610c1e576000526017602052604060002055565b601b54806000526018602052604060002054918201809211610c1e576000526018602052604060002055565b601b548060005260196020526040600020549060018201809211610c1e576000526019602052604060002055565b6001600160a01b039091169052565b6140e6610140612a5292613f1b613ef98251610404565b600280546001600160a01b0319166001600160a01b0392909216919091179055565b613f4d613f2b6020830151610404565b600380546001600160a01b0319166001600160a01b0392909216919091179055565b613f7f613f5d6040830151610404565b600480546001600160a01b0319166001600160a01b0392909216919091179055565b613fb1613f8f6060830151610404565b600580546001600160a01b0319166001600160a01b0392909216919091179055565b613fe3613fc16080830151610404565b600680546001600160a01b0319166001600160a01b0392909216919091179055565b614015613ff360a0830151610404565b600780546001600160a01b0319166001600160a01b0392909216919091179055565b61404761402560c0830151610404565b600880546001600160a01b0319166001600160a01b0392909216919091179055565b61407961405760e0830151610404565b600980546001600160a01b0319166001600160a01b0392909216919091179055565b6140ac61408a610100830151610404565b600a80546001600160a01b0319166001600160a01b0392909216919091179055565b6140df6140bd610120830151610404565b600b80546001600160a01b0319166001600160a01b0392909216919091179055565b0151610404565b600c80546001600160a01b0319166001600160a01b0392909216919091179055565b60006141176109618254610404565b60408051634bf9c0ad60e11b8152929190600490602080868481875afa958615610828578596614487575b50815163cfbffe5360e01b81529181838581885afa928315610828578693614468575b50805163ab6e844f60e01b815282818681895afa90811561082857879161444b575b508151630536340960e21b8152838187818a5afa90811561082857889161442e575b50825163d1f956b160e01b815291848388818b5afa92831561082857899361440f575b508351631cc3bfab60e31b815293858589818c5afa948515610828578a956143f0575b50805163e09d394d60e01b81529686888a818d5afa9687156108285789988c986143d1575b5082516314ac1b5960e21b81529881908a90818e5afa988915610828578c996143b2575b5082519963013cf08b60e01b8b52818b8d818061425c868201906000602083019252565b03915afa9a8b15610828578d9b614393575b508351635e09dbe760e01b81529b828d8381845afa9c8d15610828578e9d614372575b508290855192838092635506ee0b60e11b82525afa9c8d15610828579c614353575b506142bc611d63565b9c6142c7908e613ed3565b8c01906142d391613ed3565b8a01906142df91613ed3565b6142ec9060608a01613ed3565b6142f99060808901613ed3565b6143069060a08801613ed3565b6143139060c08701613ed3565b6143209060e08601613ed3565b61432e906101008501613ed3565b61433c906101208401613ed3565b61434a906101408301613ed3565b612a5290613ee2565b8161436b929d508d3d10610865576108578183611d40565b9a386142b3565b83919d5061438c90823d8411610865576108578183611d40565b9c90614291565b6143ab919b50823d8411610865576108578183611d40565b993861426e565b816143ca929a503d8b11610865576108578183611d40565b9738614238565b816143e99299503d8a11610865576108578183611d40565b9638614214565b614408919550863d8811610865576108578183611d40565b93386141ef565b614427919350853d8711610865576108578183611d40565b91386141cc565b6144459150843d8611610865576108578183611d40565b386141a9565b6144629150833d8511610865576108578183611d40565b38614187565b614480919350823d8411610865576108578183611d40565b9138614165565b8161449f9297503d8811610865576108578183611d40565b9438614142565b6002546040516144ee916001600160a01b0316906144c381611cd3565b6008815267697353616665282960c01b6020820152604051916144e583611d09565b60008352614606565b908061450d575b1561074b5780602080610c7193518301019101613e0c565b5060208151146144f5565b61457260018060a01b03806002541660405191602094168483015283825261453f82611cd3565b6040519061454c82611cd3565b601582527469735365637572654261736528616464726573732960581b85830152614606565b908061458f575b1561074b5781610c719282518301019101613e0c565b5081815114614579565b600354604051610c71916001600160a01b0316906145b681611cd3565b600681526569416765282960d01b602082015260405191611fd483611d09565b3d15614601573d906145e782613178565b916145f56040519384611d40565b82523d6000602084013e565b606090565b803b1561466857600092839263ffffffff60e01b90602081519101201690614658602460405180936020820195865261464881518092602086860191016131ab565b8101036004810184520182611d40565b51915afa6146646145d6565b9091565b50505060009060405161467a81611d09565b6000815290565b929161468f91600094614606565b90806146b2575b61469d5750565b610c7191925060208082518301019101613141565b506020815114614696565b906020825192015163ffffffff60e01b9081811693600481106146df57505050565b60040360031b82901b16169150565b6001600160a01b0381161561240d57600080918351908260208601915af1906147156145d6565b911561471f575090565b80516000919060041161476a5761473691506146bd565b8151156147465750805190602001fd5b604051630870274d60e21b81526001600160e01b0319919091166004820152602490fd5b5061473656fea2646970667358221220a60dcf07e4fa13e201d9df2bbfe0f4851073fc944f5921d46a3608e84da0228d64736f6c63430008140033","linkReferences":{}},"methodIdentifiers":{"dAOAssembly()":"14837455","daocore()":"14d8d024","nested741()":"45cff900","old741()":"5540c5ac","price()":"a035b1fe"},"id":38}