{"abi":[{"type":"constructor","inputs":[{"name":"_hex","type":"address","internalType":"address"}],"stateMutability":"nonpayable"},{"type":"function","name":"instance","inputs":[],"outputs":[{"name":"","type":"address","internalType":"address"}],"stateMutability":"view"},{"type":"function","name":"tVLFactory","inputs":[],"outputs":[{"name":"","type":"address","internalType":"address"}],"stateMutability":"view"},{"type":"function","name":"tVLMining","inputs":[],"outputs":[{"name":"","type":"address","internalType":"address"}],"stateMutability":"view"}],"bytecode":{"object":"0x60803461016457601f613cdd38819003918201601f19168301926001600160401b039290918385118386101761014e57816020928492604097885283398101031261016457516001600160a01b0390818116908190036101645783519061280c91828101928184108685111761014e576102548239818352858160009485602082015203019083f09384156101445782549484166001600160a01b0319958616178355855161127d80820193918085108486111761012657602081612a60968488833985815203019086f0801561013a578616876001541617600155875193818501938585109085111761012657916020939185938439815203019082f090811561011b5750169060025416176002555160ea908161016a8239f35b8451903d90823e3d90fd5b634e487b7160e01b86526041600452602486fd5b88513d87823e3d90fd5b85513d84823e3d90fd5b634e487b7160e01b600052604160045260246000fd5b600080fdfe6080806040526004361015601257600080fd5b600090813560e01c908163022ec09514608e575080639ba540fb1460675763d795ff3814603e57600080fd5b34606457806003193601126064576002546040516001600160a01b039091168152602090f35b80fd5b5034606457806003193601126064576001546040516001600160a01b039091168152602090f35b90503460b0578160031936011260b05790546001600160a01b03168152602090f35b5080fdfea2646970667358221220ef0de30ae9760fda7c30fbb769f8bf3d2845df909ae7f4d30e7e59b632f6df0d64736f6c63430008140033608034620000c157601f6200280c38819003918201601f19168301916001600160401b03831184841017620000c6578084926040948552833981010312620000c1576200005a60206200005283620000dc565b9201620000dc565b6001600160a01b0391821691908215620000af5760018060a01b0319928360015416908460005416176000556001600d55339084331617176001551690600e541617600e5560405161271a9081620000f28239f35b60405163e6c4247b60e01b8152600490fd5b600080fd5b634e487b7160e01b600052604160045260246000fd5b51906001600160a01b0382168203620000c15756fe60806040526004361015610018575b361561001657005b005b60003560e01c80630399c93c1461020857806306fdde031461020357806312065fe0146101fe578063129d99c3146101f95780631499c592146101f45780631f185d16146101ef5780631f3c99c3146101ea578063339459a6146101e557806335718f6d146101e05780633b9b7955146101db57806360f96a8f146101d6578063641657cb146101d15780638129fc1c146101cc5780638da5cb5b146101c75780639c06f470146101c25780639c75dd35146101bd578063a1f7f539146101b8578063a3e884b0146101b3578063af484526146101ae578063af640d0f146101a9578063b28175c4146101a4578063b90306ad1461019f578063c107930a1461019a578063c46b5ce614610195578063c47f002714610190578063c54e44b01461018b578063cfcf2c2d14610186578063d4ace81b14610181578063e01ad5fd1461017c578063e0a9bc2b146101775763fdc10bc90361000e5761142a565b61140f565b611348565b611328565b611305565b6112a9565b611237565b61115d565b61100c565b610f14565b610eeb565b610ecd565b610e9c565b610da8565b610d17565b610cfb565b610a9b565b610a72565b6107bd565b61074d565b61071a565b6106f1565b6106c0565b6106a7565b61066e565b6105ab565b61051e565b610500565b6104e4565b610416565b61022f565b6001600160a01b031690565b6001600160a01b0381160361022a57565b600080fd5b3461022a57602036600319011261022a5760043561024c81610219565b6102546123fb565b156102e9576102623361246d565b80156102d5575b156102c357601154156102b15761027e6119a5565b6001600160a01b0381161561029f5761029890479061255b565b6001600d55005b604051631f2cdc6960e01b8152600490fd5b6040516301b3ca9d60e41b8152600490fd5b60405163ea8e4eb560e01b8152600490fd5b506005546001600160a01b03163314610269565b604051634ee2123760e11b8152600490fd5b600091031261022a57565b90600182811c92168015610336575b602083101461032057565b634e487b7160e01b600052602260045260246000fd5b91607f1691610315565b634e487b7160e01b600052604160045260246000fd5b6001600160401b03811161036957604052565b610340565b604081019081106001600160401b0382111761036957604052565b602081019081106001600160401b0382111761036957604052565b601f909101601f19168101906001600160401b0382119082101761036957604052565b60005b8381106103da5750506000910152565b81810151838201526020016103ca565b6040916020825261040a81518092816020860152602086860191016103c7565b601f01601f1916010190565b3461022a576000806003193601126104e1576040518160105461043881610306565b808452906001908181169081156104b95750600114610472575b61046e84610462818803826103a4565b604051918291826103ea565b0390f35b60108352602094506000805160206126c58339815191525b8284106104a6575050508161046e936104629282010193610452565b805485850187015292850192810161048a565b61046e96506104629450602092508593915060ff191682840152151560051b82010193610452565b80fd5b3461022a57600036600319011261022a57602047604051908152f35b3461022a57600036600319011261022a576020601554604051908152f35b3461022a57602036600319011261022a5760043561053b81610219565b6105436123fb565b156102e9576105513361246d565b8015610597575b156102c357601154156102b15761056d6119a5565b6001600160a01b0316801561029f57600e80546001600160a01b0319169190911790556001600d55005b506005546001600160a01b03163314610558565b3461022a5760208060031936011261022a5761061e6004356105cc81610219565b6002546040516001600160a01b039283168582015284815291166105ef8261036e565b604051906105fc8261036e565b601182527069735369676e657228616464726573732960781b858301526125c9565b919080610664575b156106525781816106409261046e94518301019101611452565b60405190151581529081906020820190565b60405163baf3f0f760e01b8152600490fd5b5080825114610626565b3461022a57600036600319011261022a576001546001600160a01b031633036102c35760001942014281116106a257601255005b6114e6565b3461022a57600036600319011261022a5761001661205d565b3461022a57600036600319011261022a576020601654604051908152f35b6001600160a01b03909116815260200190565b3461022a57600036600319011261022a576000546040516001600160a01b039091168152602090f35b3461022a57600036600319011261022a57600e546040516001600160a01b039091168152602090f35b8015150361022a57565b3461022a57602036600319011261022a5760043561076a81610743565b601154156102b15761077a6123fb565b156102e9576107883361246d565b80156107a9575b156102c35760ff8019601454169115151617601455600080f35b506005546001600160a01b0316331461078f565b6000806003193601126104e1576107d26119a5565b601154610a60576107e161205d565b6107fa6107f56107f56107f560035461020d565b61020d565b60c06040918251918280926395bf75fd60e01b825260049485915afa9081156109625784908592610a2a575b50610832600a5461020d565b61087161084060015461020d565b918651906108638261085586602083016106de565b03601f1981018452836103a4565b61086b6119c8565b90612644565b926001600160a01b03841615610976575050156109675791816108ca93856108a46107f56107f56107f56060985461020d565b926108b060015461020d565b9451631dd7707560e11b8152968795869485938401611a1d565b03925af19081156109625761091991839084908590610926575b600e80546001600160a01b0319166001600160a01b0390921691909117905590915061091490611a37565b611a37565b601155565b6109236001600d55565b80f35b50505061091461094f61090f9260603d811161095b575b61094781836103a4565b810190611a59565b919350839250906108e4565b503d61093d565b61146a565b50905163baf3f0f760e01b8152fd5b915092915015610a1c579180918361099a6107f56107f56107f56109c2985461020d565b90866109a7600e5461020d565b855163b1c4907960e01b815297889586948593908401611a1d565b03925af18015610962576109e492849285926109e9575b505061091490611a37565b610919565b6109149350610a0d9250803d10610a15575b610a0581836103a4565b810190611a01565b9091386109d9565b503d6109fb565b825163baf3f0f760e01b8152fd5b9050610a4d915060c03d8111610a59575b610a4581836103a4565b810190611476565b50935091505038610826565b503d610a3b565b6040516304223ebf60e11b8152600490fd5b3461022a57600036600319011261022a576001546040516001600160a01b039091168152602090f35b3461022a5760408060031936011261022a57602435610ab981610743565b60ff60145416610cea5760115415610cd957610ad660015461020d565b6001600160a01b033382821614801590610cc5575b610cb45792610b2793600492610b096107f56107f58487541661020d565b908351809263509222cd60e01b8252818060209a8b958a83016106de565b03915afa90811561096257600091610c97575b5015610c5c578285610b556107f56107f585600f541661020d565b84516312995e1b60e21b815292839182905afa90811561096257600091610c6a575b5015610c5c576107f56107f5610b90926003541661020d565b9080516395bf75fd60e01b815260c0818581865afa90811561096257600091610c39575b5015610c2a575162aa4b7560e41b81529084908290849082905afa9384156109625761001694610bf792610bf292600092610bfd575b5050426114fc565b601255565b356117c5565b610c1c9250803d10610c23575b610c1481836103a4565b8101906114d7565b3880610bea565b503d610c0a565b5163baf3f0f760e01b81529050fd5b610c51915060c03d8111610a5957610a4581836103a4565b505050505038610bb4565b505163ea8e4eb560e01b8152fd5b610c8a9150863d8811610c90575b610c8281836103a4565b810190611452565b38610b77565b503d610c78565b610cae9150863d8811610c9057610c8281836103a4565b38610b3a565b835163ea8e4eb560e01b8152600490fd5b5080610cd2600f5461020d565b1615610aeb565b81516301b3ca9d60e41b8152600490fd5b8151632100644360e11b8152600490fd5b3461022a57602036600319011261022a57610016600435611653565b3461022a57600036600319011261022a576020610d7960018060a01b0360065416604051610d448161036e565b601381527267657464656c656761746f72436f756e74282960681b8482015260405191610d7083610389565b60008352612688565b604051908152f35b608090600319011261022a57600435610d9981610219565b90602435906044359060643590565b610db136610d81565b601192919254156102b15760ff60145416610e8a57600490610dd1611a83565b610dd96119a5565b60c0610def6107f56107f56107f560035461020d565b6040516395bf75fd60e01b815293849182905afa908115610962576000928392610e61575b5060658103610e375750501561065257610e2d92611d61565b6100166001600d55565b929450925050606b14610e4c575b5050610e2d565b1561065257610e5a90611c1a565b3880610e45565b909250610e7c915060c03d8111610a5957610a4581836103a4565b505050929150919038610e14565b604051632100644360e11b8152600490fd5b3461022a57602036600319011261022a576020610ec3600435610ebe81610219565b61246d565b6040519015158152f35b3461022a57600036600319011261022a576020601154604051908152f35b3461022a57600036600319011261022a57600f546040516001600160a01b039091168152602090f35b3461022a57602036600319011261022a57600435610f306123fb565b156102e9576005546001600160a01b031633036102c35760009060046020610f5b6107f5855461020d565b6040516311be646b60e21b815292839182905afa80156109625783808481949382948391610fde575b505af1610f8f61252b565b5015610652577fcdcc745fe377b103b45fa0cec23ae3ef93d6fc6a84a01f0d18c40b354dd1d5d8610fd8610fc76107f5600b5461020d565b604051938452929081906020820190565b0390a280f35b610fff915060203d8111611005575b610ff781836103a4565b810190611e13565b38610f84565b503d610fed565b61101536610d81565b919092601154156102b1576110286123fb565b156102e9576110363361246d565b8015611149575b156102c35761104a6119a5565b6110526123fb565b156102e9576110603361246d565b8015611135575b156102c35761107c6110788261246d565b1590565b611123576110946107f56107f56107f560045461020d565b9060115493823b1561022a57604051636e59fe2560e11b815260048101959095526001600160a01b039190911660248501526044840192909252606480840194909452608483019190915260a482019290925290600090829060c490829084905af180156109625761110a576100166001600d55565b8061111761111d92610356565b806102fb565b38610e2d565b60405163667313f360e11b8152600490fd5b506005546001600160a01b03163314611067565b506005546001600160a01b0316331461103d565b3461022a57604036600319011261022a5760243561117a81610743565b6111826123fb565b156102e9576111903361246d565b80156111a8575b156102c357610016906004356117c5565b506005546001600160a01b03163314611197565b6040519061034082016001600160401b0381118382101761036957604052565b6040519061030082016001600160401b0381118382101761036957604052565b6040519061016082016001600160401b0381118382101761036957604052565b6001600160401b03811161036957601f01601f191660200190565b3461022a57602036600319011261022a576004356001600160401b03811161022a573660238201121561022a5780600401356112728161121c565b9061128060405192836103a4565b808252366024828501011161022a57602081600092602461001696018386013783010152611aa1565b3461022a57602036600319011261022a576004356112c681610219565b803b60006112d38261121c565b926112e160405194856103a4565b82845260208401903c602d81511061065257602a602091015160601c604051908152f35b3461022a57600036600319011261022a57602060ff601454166040519015158152f35b3461022a57600036600319011261022a5760206012544210604051908152f35b3461022a5760208060031936011261022a5761046e906004359061136b82610219565b6006546040516001600160a01b03938416838201528281529216916113cb906113938161036e565b60405161139f8161036e565b6018815277697364656c656761746f724e6f646528616464726573732960401b848201526000946125c9565b919080611405575b6113ec575b505060405190151581529081906020820190565b6113fe92508082518301019101611452565b38806113d8565b50808251146113d3565b3461022a57600036600319011261022a576020610ec36123fb565b3461022a57600036600319011261022a576020610d796124ee565b519061145082610743565b565b9081602091031261022a575161146781610743565b90565b6040513d6000823e3d90fd5b91908260c091031261022a57815161148d81610743565b91602081015161149c81610743565b9160408201516114ab81610743565b9160608101516114ba81610743565b9160a060808301516114cb81610743565b92015161146781610743565b9081602091031261022a575190565b634e487b7160e01b600052601160045260246000fd5b919082018092116106a257565b919082039182116106a257565b908161034091031261022a5761152a6111bc565b90805182526020810151602083015260408101516040830152606081015160608301526080810151608083015260a081015160a083015260c081015160c083015260e081015160e0830152610100808201519083015261012080820151908301526101408082015190830152610160808201519083015261018080820151908301526101a080820151908301526101c080820151908301526101e08082015190830152610200808201519083015261022080820151908301526102408082015190830152610260808201519083015261028080820151908301526102a080820151908301526102c080820151908301526102e0611628818301611445565b9083015261030061163a818301611445565b9083015261164c610320809201611445565b9082015290565b6116676107f56107f56107f5600f5461020d565b604051809163725b6fff60e01b825281600460209485935afa908115610962576000916117a8575b506116a18361169c6124ee565b611509565b1161179e576116ba6107f56107f56107f5600f5461020d565b60405163143ec3b760e01b81526103e760048201529091908181602481865afa90811561096257600192600092611781575b505016156116f8575050565b604051632e7c68e560e21b815260048101839052610340918290829060249082905afa91821561096257611744926102a09261173d92600092611754575b505061187a565b0151151590565b61174b5750565b61145090611c1a565b6117739250803d1061177a575b61176b81836103a4565b810190611516565b3880611736565b503d611761565b6117979250803d10610c2357610c1481836103a4565b38806116ec565b5061145090611c1a565b6117bf9150823d8411610c2357610c1481836103a4565b3861168f565b906116535750565b5050565b6117d96111dc565b9060008083528060208401528060408401528060608401528060808401528060a08401528060c08401528060e08401528061010084015280610120840152806101408401528061016084015280610180840152806101a0840152806101c0840152806101e08401528061020084015280610220840152806102408401528061026084015280610280840152806102a0840152806102c08401526102e0830152565b906114506118866117d1565b92805184526020810151602085015260408101516040850152606081015160608501526080810151608085015260a081015160a085015260c081015160c085015260e081015160e0850152610100808201519085015261012080820151908501526101408082015190850152610160808201519085015261018080820151908501526101a0808201519085015261199d61032061020092838101516101c088015261173d61022094858301516101e08a01526102409081840151908a01526102609586840151908a01526102809081840151908a01526102a09586840151908a01526102c09081840151908a015261198f6102e09661198788860151151590565b1515908b0152565b610300830151151590890152565b151590840152565b6002600d54146119b6576002600d55565b604051633ee5aeb560e01b8152600490fd5b604051906119d58261036e565b601e82527f7265736f6c76655472616e7366657254617267657428616464726573732900006020830152565b919082604091031261022a576020825192015161146781610219565b6001600160a01b0391821681529116602082015260400190565b600f80546001600160a01b0319166001600160a01b0392909216919091179055565b9081606091031261022a5780519160406020830151611a7781610219565b92015161146781610219565b601254421015611a8f57565b604051630fe82d2560e11b8152600490fd5b601154156102b157611ab1611a83565b60ff60145416610e8a57611ac36123fb565b156102e957600180549091906001600160a01b031633036102c3578051906001600160401b03821161036957611b0382611afe601054610306565b611bb0565b60209081601f8411600114611b405750928293918392600094611b35575b50501b916000199060031b1c191617601055565b015192503880611b21565b6010600052919083601f1981166000805160206126c5833981519152946000905b88838310611b965750505010611b7d575b505050811b01601055565b015160001960f88460031b161c19169055388080611b72565b858701518855909601959485019487935090810190611b61565b601f8111611bbc575050565b6000906010825260208220906020601f850160051c83019410611bfa575b601f0160051c01915b828110611bef57505050565b818155600101611be3565b9092508290611bda565b919082604091031261022a576020825192015190565b6040611c6191611c346107f56107f56107f560045461020d565b60115460008451809681958294631aa0449160e21b84526004840160209093929193604081019481520152565b03925af18015610962577f651be9e06b82f2bfd92524ddb5eab4f5bce9aec2963c2417fa0337eb9cdd65ee916000908192611d30575b5080611d08575b81611cdb575b611cd6611caf6124ee565b60408051308152602081019490945283019390935260608201929092529081906080820190565b0390a1565b611cef82611cea600c5461020d565b61255b565b611d03611cfe836016546114fc565b601655565b611ca4565b611d1781611cea60015461020d565b611d2b611d26826015546114fc565b601555565b611c9e565b9050611d53915060403d8111611d5a575b611d4b81836103a4565b810190611c04565b9038611c97565b503d611d41565b9091611d6f6110788361246d565b6111235734611d7d57505050565b611d8c34611cea600b5461020d565b611da06107f56107f56107f560045461020d565b60115493813b1561022a57604051636e59fe2560e11b815260048101959095526001600160a01b0393909316602485015260448401929092526064830152346084830152606560a4830152600090829060c490829084905af1801561096257611e065750565b8061111761145092610356565b9081602091031261022a575161146781610219565b6001600160a01b039091169052565b61203b61014061145092611e70611e4e825161020d565b600280546001600160a01b0319166001600160a01b0392909216919091179055565b611ea2611e80602083015161020d565b600380546001600160a01b0319166001600160a01b0392909216919091179055565b611ed4611eb2604083015161020d565b600480546001600160a01b0319166001600160a01b0392909216919091179055565b611f06611ee4606083015161020d565b600580546001600160a01b0319166001600160a01b0392909216919091179055565b611f38611f16608083015161020d565b600680546001600160a01b0319166001600160a01b0392909216919091179055565b611f6a611f4860a083015161020d565b600780546001600160a01b0319166001600160a01b0392909216919091179055565b611f9c611f7a60c083015161020d565b600880546001600160a01b0319166001600160a01b0392909216919091179055565b611fce611fac60e083015161020d565b600980546001600160a01b0319166001600160a01b0392909216919091179055565b612001611fdf61010083015161020d565b600a80546001600160a01b0319166001600160a01b0392909216919091179055565b61203461201261012083015161020d565b600b80546001600160a01b0319166001600160a01b0392909216919091179055565b015161020d565b600c80546001600160a01b0319166001600160a01b0392909216919091179055565b600061206c6107f5825461020d565b60408051634bf9c0ad60e11b8152929190600490602080868481875afa9586156109625785966123dc575b50815163cfbffe5360e01b81529181838581885afa9283156109625786936123bd575b50805163ab6e844f60e01b815282818681895afa9081156109625787916123a0575b508151630536340960e21b8152838187818a5afa908115610962578891612383575b50825163d1f956b160e01b815291848388818b5afa928315610962578993612364575b508351631cc3bfab60e31b815293858589818c5afa948515610962578a95612345575b50805163e09d394d60e01b81529686888a818d5afa9687156109625789988c98612326575b5082516314ac1b5960e21b81529881908a90818e5afa988915610962578c99612307575b5082519963013cf08b60e01b8b52818b8d81806121b1868201906000602083019252565b03915afa9a8b15610962578d9b6122e8575b508351635e09dbe760e01b81529b828d8381845afa9c8d15610962578e9d6122c7575b508290855192838092635506ee0b60e11b82525afa9c8d15610962579c6122a8575b506122116111fc565b9c61221c908e611e28565b8c019061222891611e28565b8a019061223491611e28565b6122419060608a01611e28565b61224e9060808901611e28565b61225b9060a08801611e28565b6122689060c08701611e28565b6122759060e08601611e28565b612283906101008501611e28565b612291906101208401611e28565b61229f906101408301611e28565b61145090611e37565b816122c0929d508d3d1061100557610ff781836103a4565b9a38612208565b83919d506122e190823d841161100557610ff781836103a4565b9c906121e6565b612300919b50823d841161100557610ff781836103a4565b99386121c3565b8161231f929a503d8b1161100557610ff781836103a4565b973861218d565b8161233e9299503d8a1161100557610ff781836103a4565b9638612169565b61235d919550863d881161100557610ff781836103a4565b9338612144565b61237c919350853d871161100557610ff781836103a4565b9138612121565b61239a9150843d861161100557610ff781836103a4565b386120fe565b6123b79150833d851161100557610ff781836103a4565b386120dc565b6123d5919350823d841161100557610ff781836103a4565b91386120ba565b816123f49297503d881161100557610ff781836103a4565b9438612097565b600254604051612443916001600160a01b0316906124188161036e565b6008815267697353616665282960c01b60208201526040519161243a83610389565b600083526125c9565b9080612462575b15610652578060208061146793518301019101611452565b50602081511461244a565b6124c760018060a01b0380600254166040519160209416848301528382526124948261036e565b604051906124a18261036e565b601582527469735365637572654261736528616464726573732960581b858301526125c9565b90806124e4575b1561065257816114679282518301019101611452565b50818151146124ce565b600354604051611467916001600160a01b03169061250b8161036e565b600681526569416765282960d01b602082015260405191610d7083610389565b3d15612556573d9061253c8261121c565b9161254a60405193846103a4565b82523d6000602084013e565b606090565b9080156117cd576001600160a01b0382169182156125b757600080808481945af161258461252b565b50156106525760207fcec1f18c3ab8ddaaa107a1591e3c369667eec613626611a8deaedef43069fcdd91604051908152a2565b60405163e6c4247b60e01b8152600490fd5b803b1561262b57600092839263ffffffff60e01b9060208151910120169061261b602460405180936020820195865261260b81518092602086860191016103c7565b81010360048101845201826103a4565b51915afa61262761252b565b9091565b50505060009060405161263d81610389565b6000815290565b9291612652916000946125c9565b908061267d575b6126605750565b90915060208180518101031261022a576020015161020d81610219565b506020815114612659565b9291612696916000946125c9565b90806126b9575b6126a45750565b611467919250602080825183010191016114d7565b50602081511461269d56fe1b6847dc741a1b0cd08d278845f9d819d87b734759afb55fe2de5cb82a9ae672a2646970667358221220c0a688df5709bae9d9fde2e3cae5a0bb2e3687d009ed79b4b1f2438c485925ea64736f6c6343000814003360803461009257601f61127d38819003918201601f19168301916001600160401b038311848410176100975780849260209460405283398101031261009257516001600160a01b038116908190036100925780156100805760018060a01b03193381600154161760015560005416176000556040516111cf90816100ae8239f35b60405163e6c4247b60e01b8152600490fd5b600080fd5b634e487b7160e01b600052604160045260246000fdfe60806040526004361015610018575b361561001657005b005b60003560e01c806312065fe0146100f85780631f185d16146100f3578063339459a6146100ee5780633b9b7955146100e95780638da5cb5b146100e4578063a1f7f539146100df578063a9059cbb146100da578063af484526146100d5578063b90306ad146100d0578063be17fe62146100cb578063c54e44b0146100c6578063e01ad5fd146100c1578063e0a9bc2b146100bc5763fdc10bc90361000e57610b00565b610ae5565b610a1e565b6109c2565b61092c565b610820565b6107ef565b610686565b61061c565b6105f3565b6105ca565b6101fd565b610136565b3461011457600036600319011261011457602047604051908152f35b600080fd5b6001600160a01b031690565b6001600160a01b0381160361011457565b3461011457602080600319360112610114576101a960043561015781610125565b6002546040516001600160a01b0392831685820152848152911661017a82610b62565b6040519061018782610b62565b601182527069735369676e657228616464726573732960781b85830152610ff1565b9190806101f3575b156101e15781816101cb926101dd94518301019101610e56565b60405190151581529081906020820190565b0390f35b60405163baf3f0f760e01b8152600490fd5b50808251146101b1565b34610114576000806003193601126105c75761022161021c8254610119565b610119565b60408051634bf9c0ad60e11b81529160049190602080858581855afa94851561048e5786956105a8575b50825163cfbffe5360e01b81529281848681865afa93841561048e578794610589575b50805163ab6e844f60e01b815282818781875afa90811561048e57889161056c575b508151630536340960e21b815283818881885afa90811561048e57899161054f575b50825163d1f956b160e01b81529084828981895afa91821561048e578a92610530575b508351631cc3bfab60e31b81529285848a818a5afa93841561048e578b94610511575b50845163e09d394d60e01b81529486868b818b5afa95861561048e578c966104f2575b5080516314ac1b5960e21b815298878a8c818c5afa97881561048e576103629a8e996104d3575b50808c8451809d819263013cf08b60e01b83528201906000602083019252565b03818d5afa998a1561048e578c9b8f9b6104b4575b50818451809d635e09dbe760e01b825281845afa9b8c1561048e578f9c610493575b50819084519d8e8092635506ee0b60e11b82525afa9b8c1561048e578e9c61045f575b506103c5610be4565b9c6103d0908e610c04565b8c01906103dc91610c04565b8a01906103e891610c04565b6103f59060608a01610c04565b6104029060808901610c04565b61040f9060a08801610c04565b61041c9060c08701610c04565b6104299060e08601610c04565b610437906101008501610c04565b610445906101208401610c04565b610453906101408301610c04565b61045c90610c13565b80f35b81610480929d508d3d10610487575b6104788183610b9d565b810190610bc0565b9a386103bc565b503d61046e565b610bd8565b82919c506104ad90823d8411610487576104788183610b9d565b9b90610399565b6104cc919b50823d8411610487576104788183610b9d565b9938610377565b816104eb929a503d8b11610487576104788183610b9d565b9738610342565b61050a919650873d8911610487576104788183610b9d565b943861031b565b610529919450863d8811610487576104788183610b9d565b92386102f8565b610548919250853d8711610487576104788183610b9d565b90386102d5565b6105669150843d8611610487576104788183610b9d565b386102b2565b6105839150833d8511610487576104788183610b9d565b38610290565b6105a1919450823d8411610487576104788183610b9d565b923861026e565b816105c09296503d8711610487576104788183610b9d565b933861024b565b80fd5b34610114576000366003190112610114576000546040516001600160a01b039091168152602090f35b34610114576000366003190112610114576001546040516001600160a01b039091168152602090f35b3461011457600036600319011261011457602061067e60018060a01b036006541660405161064981610b62565b601381527267657464656c656761746f72436f756e74282960681b848201526040519161067583610b82565b60008352611088565b604051908152f35b60408060031936011261011457600435906106a082610125565b602435916001600160a01b03808216929083156107de576106bf610e6e565b156107cd576106cd33610ee0565b9081156107bf575b50156107af5783804710610709575b6106fd9060008051602061117a83398151915293610f91565b519283523392602090a3005b506004602061071c61021c600054610119565b8351635e09dbe760e01b815292839182905afa801561048e5760008051602061117a8339815191529361078787926106fd94600091610791575b50855163a9059cbb60e01b60208201523060248201526044808201869052815290610782606483610b9d565b6110f7565b50935090506106e4565b6107a9915060203d8111610487576104788183610b9d565b38610756565b5163ea8e4eb560e01b8152600490fd5b6005541633149050386106d5565b8151634ee2123760e11b8152600490fd5b815163e6c4247b60e01b8152600490fd5b3461011457602036600319011261011457602061081660043561081181610125565b610ee0565b6040519015158152f35b346101145760203660031901126101145760043561083c610e6e565b1561091a576005546001600160a01b03163303610908576000906004602061086761021c8554610119565b6040516311be646b60e21b815292839182905afa801561048e57838084819493829483916108ea575b505af161089b610f61565b50156101e1577fcdcc745fe377b103b45fa0cec23ae3ef93d6fc6a84a01f0d18c40b354dd1d5d86108e46108d361021c600b54610119565b604051938452929081906020820190565b0390a280f35b610902915060203d8111610487576104788183610b9d565b38610890565b60405163ea8e4eb560e01b8152600490fd5b604051634ee2123760e11b8152600490fd5b346101145760203660031901126101145760043561094981610125565b610951610e6e565b1561091a576005546001600160a01b0391908216330361090857811680156109b057600080546001600160a01b03198116831782559092167fe939feee179e631422bcc8f6e6d7d908cb3f8af38f5372f17c77e15aea5c80ee8380a380f35b60405163e6c4247b60e01b8152600490fd5b34610114576020366003190112610114576004356109df81610125565b803b60006109ec82610e3b565b926109fa6040519485610b9d565b82845260208401903c602d8151106101e157602a602091015160601c604051908152f35b3461011457602080600319360112610114576101dd9060043590610a4182610125565b6006546040516001600160a01b0393841683820152828152921691610aa190610a6981610b62565b604051610a7581610b62565b6018815277697364656c656761746f724e6f646528616464726573732960401b84820152600094610ff1565b919080610adb575b610ac2575b505060405190151581529081906020820190565b610ad492508082518301019101610e56565b3880610aae565b5080825114610aa9565b34610114576000366003190112610114576020610816610e6e565b3461011457600036600319011261011457602061067e60018060a01b0360035416604051610b2d81610b62565b600681526569416765282960d01b848201526040519161067583610b82565b634e487b7160e01b600052604160045260246000fd5b604081019081106001600160401b03821117610b7d57604052565b610b4c565b602081019081106001600160401b03821117610b7d57604052565b601f909101601f19168101906001600160401b03821190821017610b7d57604052565b908160209103126101145751610bd581610125565b90565b6040513d6000823e3d90fd5b6040519061016082016001600160401b03811183821017610b7d57604052565b6001600160a01b039091169052565b610e17610140610e3992610c4c610c2a8251610119565b600280546001600160a01b0319166001600160a01b0392909216919091179055565b610c7e610c5c6020830151610119565b600380546001600160a01b0319166001600160a01b0392909216919091179055565b610cb0610c8e6040830151610119565b600480546001600160a01b0319166001600160a01b0392909216919091179055565b610ce2610cc06060830151610119565b600580546001600160a01b0319166001600160a01b0392909216919091179055565b610d14610cf26080830151610119565b600680546001600160a01b0319166001600160a01b0392909216919091179055565b610d46610d2460a0830151610119565b600780546001600160a01b0319166001600160a01b0392909216919091179055565b610d78610d5660c0830151610119565b600880546001600160a01b0319166001600160a01b0392909216919091179055565b610daa610d8860e0830151610119565b600980546001600160a01b0319166001600160a01b0392909216919091179055565b610ddd610dbb610100830151610119565b600a80546001600160a01b0319166001600160a01b0392909216919091179055565b610e10610dee610120830151610119565b600b80546001600160a01b0319166001600160a01b0392909216919091179055565b0151610119565b600c80546001600160a01b0319166001600160a01b0392909216919091179055565b565b6001600160401b038111610b7d57601f01601f191660200190565b90816020910312610114575180151581036101145790565b600254604051610eb6916001600160a01b031690610e8b81610b62565b6008815267697353616665282960c01b602082015260405191610ead83610b82565b60008352610ff1565b9080610ed5575b156101e15780602080610bd593518301019101610e56565b506020815114610ebd565b610f3a60018060a01b038060025416604051916020941684830152838252610f0782610b62565b60405190610f1482610b62565b601582527469735365637572654261736528616464726573732960581b85830152610ff1565b9080610f57575b156101e15781610bd59282518301019101610e56565b5081815114610f41565b3d15610f8c573d90610f7282610e3b565b91610f806040519384610b9d565b82523d6000602084013e565b606090565b908015610fed576001600160a01b0382169182156109b057600080808481945af1610fba610f61565b50156101e15760207fcec1f18c3ab8ddaaa107a1591e3c369667eec613626611a8deaedef43069fcdd91604051908152a2565b5050565b9190823b1561106f578051906020918263ffffffff60e01b92012016916040519180830193845281519160005b83811061105b57505050918161104b60248260009795968897018783820152036004810184520182610b9d565b51915afa611057610f61565b9091565b81810183015185820160240152820161101e565b50505060009060405161108181610b82565b6000815290565b929161109691600094610ff1565b90806110bb575b6110a45750565b909150602081805181010312610114576020015190565b50602081511461109d565b906020825192015163ffffffff60e01b9081811693600481106110e857505050565b60040360031b82901b16169150565b6001600160a01b038116156109b057600080918351908260208601915af19061111e610f61565b9115611128575090565b8051600091906004116111735761113f91506110c6565b81511561114f5750805190602001fd5b604051630870274d60e21b81526001600160e01b0319919091166004820152602490fd5b5061113f56fe1e70cf59d0c7a20c88704bfce5a47e636dfa577ebf52a7166641741cef343661a264697066735822122093c6abf7b2a651043e3ebd5dea18d098dd11b24abfd734809d522083cbf865b064736f6c63430008140033","linkReferences":{}},"methodIdentifiers":{"instance()":"022ec095","tVLFactory()":"9ba540fb","tVLMining()":"d795ff38"},"id":38}