{"abi":[{"type":"constructor","inputs":[{"name":"_f","type":"address","internalType":"address"}],"stateMutability":"nonpayable"},{"type":"fallback","stateMutability":"payable"},{"type":"receive","stateMutability":"payable"},{"type":"function","name":"Burn","inputs":[{"name":"amount","type":"uint256","internalType":"uint256"}],"outputs":[],"stateMutability":"nonpayable"},{"type":"function","name":"_delegatorCount","inputs":[],"outputs":[{"name":"","type":"uint256","internalType":"uint256"}],"stateMutability":"view"},{"type":"function","name":"_getImplementation","inputs":[{"name":"clone","type":"address","internalType":"address"}],"outputs":[{"name":"impl","type":"address","internalType":"address"}],"stateMutability":"view"},{"type":"function","name":"_isDelegatorNode","inputs":[{"name":"sender","type":"address","internalType":"address"}],"outputs":[{"name":"","type":"bool","internalType":"bool"}],"stateMutability":"view"},{"type":"function","name":"_isSafe","inputs":[],"outputs":[{"name":"","type":"bool","internalType":"bool"}],"stateMutability":"view"},{"type":"function","name":"_isSecureBase","inputs":[{"name":"sender","type":"address","internalType":"address"}],"outputs":[{"name":"","type":"bool","internalType":"bool"}],"stateMutability":"view"},{"type":"function","name":"_isSigner","inputs":[{"name":"sender","type":"address","internalType":"address"}],"outputs":[{"name":"","type":"bool","internalType":"bool"}],"stateMutability":"view"},{"type":"function","name":"getBalance","inputs":[],"outputs":[{"name":"","type":"uint256","internalType":"uint256"}],"stateMutability":"view"},{"type":"function","name":"getHexbase","inputs":[],"outputs":[{"name":"","type":"address","internalType":"address"}],"stateMutability":"view"},{"type":"function","name":"owner","inputs":[],"outputs":[{"name":"","type":"address","internalType":"address"}],"stateMutability":"view"},{"type":"function","name":"systemAge","inputs":[],"outputs":[{"name":"","type":"uint256","internalType":"uint256"}],"stateMutability":"view"},{"type":"event","name":"EthBurned","inputs":[{"name":"sender","type":"address","indexed":true,"internalType":"address"},{"name":"amount","type":"uint256","indexed":false,"internalType":"uint256"}],"anonymous":false},{"type":"event","name":"EthTransferred","inputs":[{"name":"to","type":"address","indexed":true,"internalType":"address"},{"name":"amount","type":"uint256","indexed":false,"internalType":"uint256"}],"anonymous":false},{"type":"event","name":"HexBaseUpdated","inputs":[{"name":"previousHexBase","type":"address","indexed":true,"internalType":"address"},{"name":"newHexBase","type":"address","indexed":true,"internalType":"address"}],"anonymous":false},{"type":"event","name":"OwnerUpdated","inputs":[{"name":"previousOwner","type":"address","indexed":true,"internalType":"address"},{"name":"newOwner","type":"address","indexed":true,"internalType":"address"}],"anonymous":false},{"type":"error","name":"CallFailed","inputs":[]},{"type":"error","name":"InvalidAddress","inputs":[]},{"type":"error","name":"InvalidState","inputs":[]},{"type":"error","name":"NotAuthorized","inputs":[]},{"type":"error","name":"NotSafe","inputs":[]},{"type":"error","name":"TargetCallFailed","inputs":[{"name":"selector","type":"bytes4","internalType":"bytes4"}]}],"bytecode":{"object":"0x60803461009257601f610b3c38819003918201601f19168301916001600160401b038311848410176100975780849260209460405283398101031261009257516001600160a01b038116908190036100925780156100805760018060a01b0319338160015416176001556000541617600055604051610a8e90816100ae8239f35b60405163e6c4247b60e01b8152600490fd5b600080fd5b634e487b7160e01b600052604160045260246000fdfe60806040526004361015610018575b361561001657005b005b60003560e01c806312065fe0146100c85780631f185d16146100c35780633b9b7955146100be5780638da5cb5b146100b9578063a1f7f539146100b4578063af484526146100af578063b90306ad146100aa578063c54e44b0146100a5578063e01ad5fd146100a0578063e0a9bc2b1461009b5763fdc10bc90361000e576105e3565b610565565b6104c6565b610458565b6103c6565b61032f565b610278565b61024f565b610226565b6100fa565b346100e45760003660031901126100e457602047604051908152f35b600080fd5b6001600160a01b038116036100e457565b346100e4576020806003193601126100e457600435610118816100e9565b60048261012e610129600054610676565b610676565b604051634bf9c0ad60e11b815292839182905afa801561020e576101879261016b926000926101db575b5061017990604051938491878301610213565b03601f1981018452836106d3565b6101816107b5565b90610947565b9190806101d1575b156101bf5781816101a9926101bb9451830101910161076c565b60405191829182901515815260200190565b0390f35b604051633204506f60e01b8152600490fd5b508082511461018f565b61017991925061020090863d8811610207575b6101f881836106d3565b8101906106f6565b9190610158565b503d6101ee565b61070e565b6001600160a01b03909116815260200190565b346100e45760003660031901126100e4576000546040516001600160a01b039091168152602090f35b346100e45760003660031901126100e4576001546040516001600160a01b039091168152602090f35b346100e45760003660031901126100e45760005460405163d1f956b160e01b815290602090829060049082906001600160a01b03165afa90811561020e576101bb9161030191600091610311575b506040516102d381610698565b601381527267657464656c656761746f72436f756e74282960681b60208201526102fb610735565b91610a1a565b6040519081529081906020820190565b610329915060203d8111610207576101f881836106d3565b386102c6565b346100e4576020806003193601126100e45760043561034d816100e9565b60048261035e610129600054610676565b604051634bf9c0ad60e11b815292839182905afa801561020e576101879261016b926000926103a3575b5061039b90604051938491878301610213565b610181610784565b61039b9192506103bf90863d8811610207576101f881836106d3565b9190610388565b346100e45760203660031901126100e457600460018060a01b0360206103ef8260005416610676565b604051630536340960e21b815293849182905afa91821561020e57600092610438575b503391160361042657610016600435610846565b60405163ea8e4eb560e01b8152600490fd5b61045191925060203d8111610207576101f881836106d3565b9038610412565b346100e45760203660031901126100e457600435610475816100e9565b803b60006104828261071a565b9261049060405194856106d3565b82845260208401903c602d8151106104b457602a602091015160601c604051908152f35b60405163baf3f0f760e01b8152600490fd5b346100e4576020806003193601126100e457600480356104e5816100e9565b60005460405163d1f956b160e01b81526001600160a01b03949093909182918591829088165afa90811561020e576101bb946101a994600093610546575b50604051931681840152825261053882610698565b6105406107e2565b906109de565b61055e919350823d8411610207576101f881836106d3565b9138610523565b346100e45760003660031901126100e457610584610129600054610676565b6040518091634bf9c0ad60e11b825281600460209485935afa801561020e57610187916000916105c6575b506105b8610748565b6105c0610735565b91610947565b6105dd9150833d8511610207576101f881836106d3565b386105af565b346100e45760003660031901126100e45760005460405163111ea8c160e21b815290602090829060049082906001600160a01b03165afa90811561020e576101bb9161030191600091610658575b5060405161063e81610698565b6005815264616765282960d81b60208201526102fb610735565b610670915060203d8111610207576101f881836106d3565b38610631565b6001600160a01b031690565b634e487b7160e01b600052604160045260246000fd5b604081019081106001600160401b038211176106b357604052565b610682565b602081019081106001600160401b038211176106b357604052565b601f909101601f19168101906001600160401b038211908210176106b357604052565b908160209103126100e4575161070b816100e9565b90565b6040513d6000823e3d90fd5b6001600160401b0381116106b357601f01601f191660200190565b60405190610742826106b8565b60008252565b6040519061075582610698565b6008825267697353616665282960c01b6020830152565b908160209103126100e4575180151581036100e45790565b6040519061079182610698565b601582527469735365637572654261736528616464726573732960581b6020830152565b604051906107c282610698565b601182527069735369676e657228616464726573732960781b6020830152565b604051906107ef82610698565b6018825277697364656c656761746f724e6f646528616464726573732960401b6020830152565b3d15610841573d906108278261071a565b9161083560405193846106d3565b82523d6000602084013e565b606090565b60006108556101298254610676565b9060405180926311be646b60e21b825281600460209586935afa801561020e578280868194938294839161092a575b505af161088f610816565b50156101bf576004826108a56101298454610676565b604051635e09dbe760e01b815292839182905afa90811561020e577fcdcc745fe377b103b45fa0cec23ae3ef93d6fc6a84a01f0d18c40b354dd1d5d893610908939261090d575b50506040519384526001600160a01b0316929081906020820190565b0390a2565b6109239250803d10610207576101f881836106d3565b38806108ec565b6109419150883d8a11610207576101f881836106d3565b38610884565b9190823b156109c5578051906020918263ffffffff60e01b92012016916040519180830193845281519160005b8381106109b15750505091816109a1602482600097959688970187838201520360048101845201826106d3565b51915afa6109ad610816565b9091565b818101830151858201602401528201610974565b5050506000906040516109d7816106b8565b6000815290565b92916109ec91600094610947565b9080610a0f575b6109fa5750565b61070b9192506020808251830101910161076c565b5060208151146109f3565b9291610a2891600094610947565b9080610a4d575b610a365750565b9091506020818051810103126100e4576020015190565b506020815114610a2f56fea264697066735822122023b876e2f90a1bbdb02528c3bbf351d9f158c715649afadb353e6fd04b37f46564736f6c63430008140033","linkReferences":{}},"methodIdentifiers":{"Burn(uint256)":"b90306ad","_delegatorCount()":"a1f7f539","_getImplementation(address)":"c54e44b0","_isDelegatorNode(address)":"e01ad5fd","_isSafe()":"e0a9bc2b","_isSecureBase(address)":"af484526","_isSigner(address)":"1f185d16","getBalance()":"12065fe0","getHexbase()":"3b9b7955","owner()":"8da5cb5b","systemAge()":"fdc10bc9"},"id":32}