{"abi":[{"type":"constructor","inputs":[{"name":"_f","type":"address","internalType":"address"}],"stateMutability":"nonpayable"},{"type":"fallback","stateMutability":"payable"},{"type":"receive","stateMutability":"payable"},{"type":"function","name":"Burn","inputs":[{"name":"amount","type":"uint256","internalType":"uint256"}],"outputs":[],"stateMutability":"nonpayable"},{"type":"function","name":"_delegatorCount","inputs":[],"outputs":[{"name":"","type":"uint256","internalType":"uint256"}],"stateMutability":"view"},{"type":"function","name":"_getImplementation","inputs":[{"name":"clone","type":"address","internalType":"address"}],"outputs":[{"name":"impl","type":"address","internalType":"address"}],"stateMutability":"view"},{"type":"function","name":"_isDelegatorNode","inputs":[{"name":"sender","type":"address","internalType":"address"}],"outputs":[{"name":"","type":"bool","internalType":"bool"}],"stateMutability":"view"},{"type":"function","name":"_isSafe","inputs":[],"outputs":[{"name":"","type":"bool","internalType":"bool"}],"stateMutability":"view"},{"type":"function","name":"_isSecureBase","inputs":[{"name":"sender","type":"address","internalType":"address"}],"outputs":[{"name":"","type":"bool","internalType":"bool"}],"stateMutability":"view"},{"type":"function","name":"_isSigner","inputs":[{"name":"sender","type":"address","internalType":"address"}],"outputs":[{"name":"","type":"bool","internalType":"bool"}],"stateMutability":"view"},{"type":"function","name":"getBalance","inputs":[],"outputs":[{"name":"","type":"uint256","internalType":"uint256"}],"stateMutability":"view"},{"type":"function","name":"getHexbase","inputs":[],"outputs":[{"name":"","type":"address","internalType":"address"}],"stateMutability":"view"},{"type":"function","name":"owner","inputs":[],"outputs":[{"name":"","type":"address","internalType":"address"}],"stateMutability":"view"},{"type":"function","name":"systemAge","inputs":[],"outputs":[{"name":"","type":"uint256","internalType":"uint256"}],"stateMutability":"view"},{"type":"event","name":"EthBurned","inputs":[{"name":"sender","type":"address","indexed":true,"internalType":"address"},{"name":"amount","type":"uint256","indexed":false,"internalType":"uint256"}],"anonymous":false},{"type":"event","name":"EthTransferred","inputs":[{"name":"to","type":"address","indexed":true,"internalType":"address"},{"name":"amount","type":"uint256","indexed":false,"internalType":"uint256"}],"anonymous":false},{"type":"event","name":"HexBaseUpdated","inputs":[{"name":"previousHexBase","type":"address","indexed":true,"internalType":"address"},{"name":"newHexBase","type":"address","indexed":true,"internalType":"address"}],"anonymous":false},{"type":"event","name":"OwnerUpdated","inputs":[{"name":"previousOwner","type":"address","indexed":true,"internalType":"address"},{"name":"newOwner","type":"address","indexed":true,"internalType":"address"}],"anonymous":false},{"type":"error","name":"CallFailed","inputs":[]},{"type":"error","name":"InvalidAddress","inputs":[]},{"type":"error","name":"InvalidState","inputs":[]},{"type":"error","name":"NotAuthorized","inputs":[]},{"type":"error","name":"NotSafe","inputs":[]},{"type":"error","name":"TargetCallFailed","inputs":[{"name":"selector","type":"bytes4","internalType":"bytes4"}]}],"bytecode":{"object":"0x60803461009257601f610c7e38819003918201601f19168301916001600160401b038311848410176100975780849260209460405283398101031261009257516001600160a01b038116908190036100925780156100805760018060a01b0319338160015416176001556000541617600055604051610bd090816100ae8239f35b60405163e6c4247b60e01b8152600490fd5b600080fd5b634e487b7160e01b600052604160045260246000fdfe60806040526004361015610018575b361561001657005b005b60003560e01c806312065fe0146100c85780631f185d16146100c35780633b9b7955146100be5780638da5cb5b146100b9578063a1f7f539146100b4578063af484526146100af578063b90306ad146100aa578063c54e44b0146100a5578063e01ad5fd146100a0578063e0a9bc2b1461009b5763fdc10bc90361000e57610670565b6105eb565b610551565b6104cb565b610401565b610354565b610296565b61026f565b610248565b6100fa565b346100e45760003660031901126100e457602047604051908152f35b600080fd5b6001600160a01b038116036100e457565b346100e4576020806003193601126100e457600435610118816100e9565b60048261013c6101306000546001600160a01b031690565b6001600160a01b031690565b60405192838092634bf9c0ad60e11b82525afa8015610243576101a49261018892600092610210575b50610196906040519384918783019190916001600160a01b036020820193169052565b03601f19810184528361079d565b61019e61089c565b90610a72565b919080610206575b156101dc5781816101c6926101d89451830101910161084b565b60405190151581529081906020820190565b0390f35b60046040517f3204506f000000000000000000000000000000000000000000000000000000008152fd5b50808251146101ac565b61019691925061023590863d881161023c575b61022d818361079d565b8101906107bf565b9190610165565b503d610223565b6107d7565b346100e45760003660031901126100e45760206001600160a01b0360005416604051908152f35b346100e45760003660031901126100e45760206001600160a01b0360015416604051908152f35b346100e45760003660031901126100e457600460206001600160a01b03600054166040519283809263d1f956b160e01b82525afa908115610243576101d89161032691600091610336575b506040516102ee81610760565b601381527f67657464656c656761746f72436f756e7428290000000000000000000000000060208201526103206107ff565b91610b5c565b6040519081529081906020820190565b61034e915060203d811161023c5761022d818361079d565b386102e1565b346100e4576020806003193601126100e457600435610372816100e9565b60048261038a6101306000546001600160a01b031690565b60405192838092634bf9c0ad60e11b82525afa8015610243576101a492610188926000926103de575b506103d6906040519384918783019190916001600160a01b036020820193169052565b61019e610863565b6103d69192506103fa90863d881161023c5761022d818361079d565b91906103b3565b346100e45760203660031901126100e45760046001600160a01b03602061043282600054166001600160a01b031690565b604051938480927f14d8d0240000000000000000000000000000000000000000000000000000000082525afa918215610243576000926104ab575b50339116036104815761001660043561093e565b60046040517fea8e4eb5000000000000000000000000000000000000000000000000000000008152fd5b6104c491925060203d811161023c5761022d818361079d565b903861046d565b346100e45760203660031901126100e4576004356104e8816100e9565b803b60006104f5826107e3565b92610503604051948561079d565b82845260208401903c602d81511061052757602a602091015160601c604051908152f35b60046040517fbaf3f0f7000000000000000000000000000000000000000000000000000000008152fd5b346100e4576020806003193601126100e45760048035610570816100e9565b6001600160a01b03928084600054166040519485809263d1f956b160e01b82525afa908115610243576101d8946101c6946000936105cc575b5060405193168184015282526105be82610760565b6105c66108d5565b90610b20565b6105e4919350823d841161023c5761022d818361079d565b91386105a9565b346100e45760003660031901126100e4576106116101306000546001600160a01b031690565b6040518091634bf9c0ad60e11b825281600460209485935afa8015610243576101a491600091610653575b50610645610812565b61064d6107ff565b91610a72565b61066a9150833d851161023c5761022d818361079d565b3861063c565b346100e45760003660031901126100e457600460206001600160a01b0360005416604051928380927f447aa3040000000000000000000000000000000000000000000000000000000082525afa908115610243576101d89161032691600091610713575b506040516106e181610760565b600581527f616765282900000000000000000000000000000000000000000000000000000060208201526103206107ff565b61072b915060203d811161023c5761022d818361079d565b386106d4565b7f4e487b7100000000000000000000000000000000000000000000000000000000600052604160045260246000fd5b6040810190811067ffffffffffffffff82111761077c57604052565b610731565b6020810190811067ffffffffffffffff82111761077c57604052565b90601f8019910116810190811067ffffffffffffffff82111761077c57604052565b908160209103126100e457516107d4816100e9565b90565b6040513d6000823e3d90fd5b67ffffffffffffffff811161077c57601f01601f191660200190565b6040519061080c82610781565b60008252565b6040519061081f82610760565b600882527f69735361666528290000000000000000000000000000000000000000000000006020830152565b908160209103126100e4575180151581036100e45790565b6040519061087082610760565b601582527f69735365637572654261736528616464726573732900000000000000000000006020830152565b604051906108a982610760565b601182527f69735369676e65722861646472657373290000000000000000000000000000006020830152565b604051906108e282610760565b601882527f697364656c656761746f724e6f646528616464726573732900000000000000006020830152565b3d15610939573d9061091f826107e3565b9161092d604051938461079d565b82523d6000602084013e565b606090565b600061095461013082546001600160a01b031690565b9060405180927f46f991ac00000000000000000000000000000000000000000000000000000000825281600460209586935afa80156102435782808681949382948391610a55575b505af16109a761090e565b50156101dc576004826109c461013084546001600160a01b031690565b604051928380927f5e09dbe70000000000000000000000000000000000000000000000000000000082525afa908115610243577fcdcc745fe377b103b45fa0cec23ae3ef93d6fc6a84a01f0d18c40b354dd1d5d8936001600160a01b039392610a38575b50506040519384521691602090a2565b610a4e9250803d1061023c5761022d818361079d565b3880610a28565b610a6c9150883d8a1161023c5761022d818361079d565b3861099c565b9190823b15610b07577fffffffff00000000000000000000000000000000000000000000000000000000815160208093012016916040519180830193845281519160005b838110610af3575050509181610ae36024826000979596889701878382015203600481018452018261079d565b51915afa610aef61090e565b9091565b818101830151858201602401528201610ab6565b505050600090604051610b1981610781565b6000815290565b9291610b2e91600094610a72565b9080610b51575b610b3c5750565b6107d49192506020808251830101910161084b565b506020815114610b35565b9291610b6a91600094610a72565b9080610b8f575b610b785750565b9091506020818051810103126100e4576020015190565b506020815114610b7156fea2646970667358221220d1a87706b65dc49f5d8049a8744a58a628fcf7f9c2c6f13b8ef8b1073a681b9964736f6c63430008140033","linkReferences":{}},"methodIdentifiers":{"Burn(uint256)":"b90306ad","_delegatorCount()":"a1f7f539","_getImplementation(address)":"c54e44b0","_isDelegatorNode(address)":"e01ad5fd","_isSafe()":"e0a9bc2b","_isSecureBase(address)":"af484526","_isSigner(address)":"1f185d16","getBalance()":"12065fe0","getHexbase()":"3b9b7955","owner()":"8da5cb5b","systemAge()":"fdc10bc9"},"id":60}