{"abi":[{"type":"constructor","inputs":[{"name":"_f","type":"address","internalType":"address"}],"stateMutability":"nonpayable"},{"type":"fallback","stateMutability":"payable"},{"type":"receive","stateMutability":"payable"},{"type":"function","name":"Burn","inputs":[{"name":"amount","type":"uint256","internalType":"uint256"}],"outputs":[],"stateMutability":"nonpayable"},{"type":"function","name":"_delegatorCount","inputs":[],"outputs":[{"name":"","type":"uint256","internalType":"uint256"}],"stateMutability":"view"},{"type":"function","name":"_getImplementation","inputs":[{"name":"clone","type":"address","internalType":"address"}],"outputs":[{"name":"impl","type":"address","internalType":"address"}],"stateMutability":"view"},{"type":"function","name":"_isDelegatorNode","inputs":[{"name":"sender","type":"address","internalType":"address"}],"outputs":[{"name":"","type":"bool","internalType":"bool"}],"stateMutability":"view"},{"type":"function","name":"_isSafe","inputs":[],"outputs":[{"name":"","type":"bool","internalType":"bool"}],"stateMutability":"view"},{"type":"function","name":"_isSecureBase","inputs":[{"name":"sender","type":"address","internalType":"address"}],"outputs":[{"name":"","type":"bool","internalType":"bool"}],"stateMutability":"view"},{"type":"function","name":"_isSigner","inputs":[{"name":"sender","type":"address","internalType":"address"}],"outputs":[{"name":"","type":"bool","internalType":"bool"}],"stateMutability":"view"},{"type":"function","name":"getBalance","inputs":[],"outputs":[{"name":"","type":"uint256","internalType":"uint256"}],"stateMutability":"view"},{"type":"function","name":"getHexbase","inputs":[],"outputs":[{"name":"","type":"address","internalType":"address"}],"stateMutability":"view"},{"type":"function","name":"owner","inputs":[],"outputs":[{"name":"","type":"address","internalType":"address"}],"stateMutability":"view"},{"type":"function","name":"syncBaseAddr","inputs":[],"outputs":[],"stateMutability":"nonpayable"},{"type":"function","name":"systemAge","inputs":[],"outputs":[{"name":"","type":"uint256","internalType":"uint256"}],"stateMutability":"view"},{"type":"event","name":"EthBurned","inputs":[{"name":"sender","type":"address","indexed":true,"internalType":"address"},{"name":"amount","type":"uint256","indexed":false,"internalType":"uint256"}],"anonymous":false},{"type":"event","name":"EthTransferred","inputs":[{"name":"to","type":"address","indexed":true,"internalType":"address"},{"name":"amount","type":"uint256","indexed":false,"internalType":"uint256"}],"anonymous":false},{"type":"event","name":"HexBaseUpdated","inputs":[{"name":"previousHexBase","type":"address","indexed":true,"internalType":"address"},{"name":"newHexBase","type":"address","indexed":true,"internalType":"address"}],"anonymous":false},{"type":"event","name":"OwnerUpdated","inputs":[{"name":"previousOwner","type":"address","indexed":true,"internalType":"address"},{"name":"newOwner","type":"address","indexed":true,"internalType":"address"}],"anonymous":false},{"type":"error","name":"CallFailed","inputs":[]},{"type":"error","name":"InvalidAddress","inputs":[]},{"type":"error","name":"InvalidState","inputs":[]},{"type":"error","name":"NotAuthorized","inputs":[]},{"type":"error","name":"NotSafe","inputs":[]},{"type":"error","name":"TargetCallFailed","inputs":[{"name":"selector","type":"bytes4","internalType":"bytes4"}]}],"bytecode":{"object":"0x60803461009257601f610f0c38819003918201601f19168301916001600160401b038311848410176100975780849260209460405283398101031261009257516001600160a01b038116908190036100925780156100805760018060a01b0319338160015416176001556000541617600055604051610e5e90816100ae8239f35b60405163e6c4247b60e01b8152600490fd5b600080fd5b634e487b7160e01b600052604160045260246000fdfe60806040526004361015610018575b361561001657005b005b60003560e01c806312065fe0146100d85780631f185d16146100d3578063339459a6146100ce5780633b9b7955146100c95780638da5cb5b146100c4578063a1f7f539146100bf578063af484526146100ba578063b90306ad146100b5578063c54e44b0146100b0578063e01ad5fd146100ab578063e0a9bc2b146100a65763fdc10bc90361000e57610943565b61091e565b610857565b6107e9565b6106dd565b610666565b6105fc565b6105d3565b6105aa565b6101dd565b610116565b346100f45760003660031901126100f457602047604051908152f35b600080fd5b6001600160a01b031690565b6001600160a01b038116036100f457565b346100f4576020806003193601126100f45761018960043561013781610105565b6002546040516001600160a01b0392831685820152848152911661015a826109a5565b60405190610167826109a5565b601182527069735369676e657228616464726573732960781b85830152610d53565b9190806101d3575b156101c15781816101ab926101bd94518301019101610c99565b60405190151581529081906020820190565b0390f35b604051633204506f60e01b8152600490fd5b5080825114610191565b346100f4576000806003193601126105a7576102016101fc82546100f9565b6100f9565b60408051634bf9c0ad60e11b81529160049190602080858581855afa94851561046e578695610588575b50825163cfbffe5360e01b81529281848681865afa93841561046e578794610569575b50805163ab6e844f60e01b815282818781875afa90811561046e57889161054c575b508151630536340960e21b815283818881885afa90811561046e57899161052f575b50825163d1f956b160e01b81529084828981895afa91821561046e578a92610510575b508351631cc3bfab60e31b81529285848a818a5afa93841561046e578b946104f1575b50845163e09d394d60e01b81529486868b818b5afa95861561046e578c966104d2575b5080516314ac1b5960e21b815298878a8c818c5afa97881561046e576103429a8e996104b3575b50808c8451809d819263013cf08b60e01b83528201906000602083019252565b03818d5afa998a1561046e578c9b8f9b610494575b50818451809d635e09dbe760e01b825281845afa9b8c1561046e578f9c610473575b50819084519d8e8092635506ee0b60e11b82525afa9b8c1561046e578e9c61043f575b506103a5610a27565b9c6103b0908e610a47565b8c01906103bc91610a47565b8a01906103c891610a47565b6103d59060608a01610a47565b6103e29060808901610a47565b6103ef9060a08801610a47565b6103fc9060c08701610a47565b6104099060e08601610a47565b610417906101008501610a47565b610425906101208401610a47565b610433906101408301610a47565b61043c90610a56565b80f35b81610460929d508d3d10610467575b61045881836109e0565b810190610a03565b9a3861039c565b503d61044e565b610a1b565b82919c5061048d90823d84116104675761045881836109e0565b9b90610379565b6104ac919b50823d84116104675761045881836109e0565b9938610357565b816104cb929a503d8b116104675761045881836109e0565b9738610322565b6104ea919650873d89116104675761045881836109e0565b94386102fb565b610509919450863d88116104675761045881836109e0565b92386102d8565b610528919250853d87116104675761045881836109e0565b90386102b5565b6105469150843d86116104675761045881836109e0565b38610292565b6105639150833d85116104675761045881836109e0565b38610270565b610581919450823d84116104675761045881836109e0565b923861024e565b816105a09296503d87116104675761045881836109e0565b933861022b565b80fd5b346100f45760003660031901126100f4576000546040516001600160a01b039091168152602090f35b346100f45760003660031901126100f4576001546040516001600160a01b039091168152602090f35b346100f45760003660031901126100f457602061065e60018060a01b0360065416604051610629816109a5565b601381527267657464656c656761746f72436f756e74282960681b8482015260405191610655836109c5565b60008352610dea565b604051908152f35b346100f4576020806003193601126100f45761018960043561068781610105565b6002546040516001600160a01b039283168582015284815291166106aa826109a5565b604051906106b7826109a5565b601582527469735365637572654261736528616464726573732960581b85830152610d53565b346100f45760203660031901126100f4576004356106f9610cb1565b156107d7576005546001600160a01b031633036107c557600090600460206107246101fc85546100f9565b6040516311be646b60e21b815292839182905afa801561046e57838084819493829483916107a7575b505af1610758610d23565b50156101c1577fcdcc745fe377b103b45fa0cec23ae3ef93d6fc6a84a01f0d18c40b354dd1d5d86107a16107906101fc600b546100f9565b604051938452929081906020820190565b0390a280f35b6107bf915060203d81116104675761045881836109e0565b3861074d565b60405163ea8e4eb560e01b8152600490fd5b604051634ee2123760e11b8152600490fd5b346100f45760203660031901126100f45760043561080681610105565b803b600061081382610c7e565b9261082160405194856109e0565b82845260208401903c602d81511061084557602a602091015160601c604051908152f35b60405163baf3f0f760e01b8152600490fd5b346100f4576020806003193601126100f4576101bd906004359061087a82610105565b6006546040516001600160a01b03938416838201528281529216916108da906108a2816109a5565b6040516108ae816109a5565b6018815277697364656c656761746f724e6f646528616464726573732960401b84820152600094610d53565b919080610914575b6108fb575b505060405190151581529081906020820190565b61090d92508082518301019101610c99565b38806108e7565b50808251146108e2565b346100f45760003660031901126100f4576020610939610cb1565b6040519015158152f35b346100f45760003660031901126100f457602061065e60018060a01b0360035416604051610970816109a5565b600681526569416765282960d01b8482015260405191610655836109c5565b634e487b7160e01b600052604160045260246000fd5b604081019081106001600160401b038211176109c057604052565b61098f565b602081019081106001600160401b038211176109c057604052565b601f909101601f19168101906001600160401b038211908210176109c057604052565b908160209103126100f45751610a1881610105565b90565b6040513d6000823e3d90fd5b6040519061016082016001600160401b038111838210176109c057604052565b6001600160a01b039091169052565b610c5a610140610c7c92610a8f610a6d82516100f9565b600280546001600160a01b0319166001600160a01b0392909216919091179055565b610ac1610a9f60208301516100f9565b600380546001600160a01b0319166001600160a01b0392909216919091179055565b610af3610ad160408301516100f9565b600480546001600160a01b0319166001600160a01b0392909216919091179055565b610b25610b0360608301516100f9565b600580546001600160a01b0319166001600160a01b0392909216919091179055565b610b57610b3560808301516100f9565b600680546001600160a01b0319166001600160a01b0392909216919091179055565b610b89610b6760a08301516100f9565b600780546001600160a01b0319166001600160a01b0392909216919091179055565b610bbb610b9960c08301516100f9565b600880546001600160a01b0319166001600160a01b0392909216919091179055565b610bed610bcb60e08301516100f9565b600980546001600160a01b0319166001600160a01b0392909216919091179055565b610c20610bfe6101008301516100f9565b600a80546001600160a01b0319166001600160a01b0392909216919091179055565b610c53610c316101208301516100f9565b600b80546001600160a01b0319166001600160a01b0392909216919091179055565b01516100f9565b600c80546001600160a01b0319166001600160a01b0392909216919091179055565b565b6001600160401b0381116109c057601f01601f191660200190565b908160209103126100f4575180151581036100f45790565b600254604051610cf9916001600160a01b031690610cce816109a5565b6008815267697353616665282960c01b602082015260405191610cf0836109c5565b60008352610d53565b9080610d18575b156101c15780602080610a1893518301019101610c99565b506020815114610d00565b3d15610d4e573d90610d3482610c7e565b91610d4260405193846109e0565b82523d6000602084013e565b606090565b9190823b15610dd1578051906020918263ffffffff60e01b92012016916040519180830193845281519160005b838110610dbd575050509181610dad602482600097959688970187838201520360048101845201826109e0565b51915afa610db9610d23565b9091565b818101830151858201602401528201610d80565b505050600090604051610de3816109c5565b6000815290565b9291610df891600094610d53565b9080610e1d575b610e065750565b9091506020818051810103126100f4576020015190565b506020815114610dff56fea2646970667358221220629cea1ac8c8864e064b82227dbccbaf974845dbb092645fe1865fb02077d87f64736f6c63430008140033","linkReferences":{}},"methodIdentifiers":{"Burn(uint256)":"b90306ad","_delegatorCount()":"a1f7f539","_getImplementation(address)":"c54e44b0","_isDelegatorNode(address)":"e01ad5fd","_isSafe()":"e0a9bc2b","_isSecureBase(address)":"af484526","_isSigner(address)":"1f185d16","getBalance()":"12065fe0","getHexbase()":"3b9b7955","owner()":"8da5cb5b","syncBaseAddr()":"339459a6","systemAge()":"fdc10bc9"},"id":0}