{"abi":[{"type":"constructor","inputs":[{"name":"_f","type":"address","internalType":"address"}],"stateMutability":"nonpayable"},{"type":"fallback","stateMutability":"payable"},{"type":"receive","stateMutability":"payable"},{"type":"function","name":"Burn","inputs":[{"name":"amount","type":"uint256","internalType":"uint256"}],"outputs":[],"stateMutability":"nonpayable"},{"type":"function","name":"_delegatorCount","inputs":[],"outputs":[{"name":"","type":"uint256","internalType":"uint256"}],"stateMutability":"view"},{"type":"function","name":"_getImplementation","inputs":[{"name":"clone","type":"address","internalType":"address"}],"outputs":[{"name":"impl","type":"address","internalType":"address"}],"stateMutability":"view"},{"type":"function","name":"_isDelegatorNode","inputs":[{"name":"sender","type":"address","internalType":"address"}],"outputs":[{"name":"","type":"bool","internalType":"bool"}],"stateMutability":"view"},{"type":"function","name":"_isSafe","inputs":[],"outputs":[{"name":"","type":"bool","internalType":"bool"}],"stateMutability":"view"},{"type":"function","name":"_isSecureBase","inputs":[{"name":"sender","type":"address","internalType":"address"}],"outputs":[{"name":"","type":"bool","internalType":"bool"}],"stateMutability":"view"},{"type":"function","name":"_isSigner","inputs":[{"name":"sender","type":"address","internalType":"address"}],"outputs":[{"name":"","type":"bool","internalType":"bool"}],"stateMutability":"view"},{"type":"function","name":"getBalance","inputs":[],"outputs":[{"name":"","type":"uint256","internalType":"uint256"}],"stateMutability":"view"},{"type":"function","name":"getHexbase","inputs":[],"outputs":[{"name":"","type":"address","internalType":"address"}],"stateMutability":"view"},{"type":"function","name":"owner","inputs":[],"outputs":[{"name":"","type":"address","internalType":"address"}],"stateMutability":"view"},{"type":"function","name":"syncBaseAddr","inputs":[],"outputs":[],"stateMutability":"nonpayable"},{"type":"function","name":"systemAge","inputs":[],"outputs":[{"name":"","type":"uint256","internalType":"uint256"}],"stateMutability":"view"},{"type":"event","name":"EthBurned","inputs":[{"name":"sender","type":"address","indexed":true,"internalType":"address"},{"name":"amount","type":"uint256","indexed":false,"internalType":"uint256"}],"anonymous":false},{"type":"event","name":"EthTransferred","inputs":[{"name":"to","type":"address","indexed":true,"internalType":"address"},{"name":"amount","type":"uint256","indexed":false,"internalType":"uint256"}],"anonymous":false},{"type":"event","name":"HexBaseUpdated","inputs":[{"name":"previousHexBase","type":"address","indexed":true,"internalType":"address"},{"name":"newHexBase","type":"address","indexed":true,"internalType":"address"}],"anonymous":false},{"type":"event","name":"OwnerUpdated","inputs":[{"name":"previousOwner","type":"address","indexed":true,"internalType":"address"},{"name":"newOwner","type":"address","indexed":true,"internalType":"address"}],"anonymous":false},{"type":"error","name":"CallFailed","inputs":[]},{"type":"error","name":"InvalidAddress","inputs":[]},{"type":"error","name":"InvalidState","inputs":[]},{"type":"error","name":"NotAuthorized","inputs":[]},{"type":"error","name":"NotSafe","inputs":[]},{"type":"error","name":"TargetCallFailed","inputs":[{"name":"selector","type":"bytes4","internalType":"bytes4"}]}],"bytecode":{"object":"0x60803461009257601f61113938819003918201601f19168301916001600160401b038311848410176100975780849260209460405283398101031261009257516001600160a01b038116908190036100925780156100805760018060a01b031933816001541617600155600054161760005560405161108b90816100ae8239f35b60405163e6c4247b60e01b8152600490fd5b600080fd5b634e487b7160e01b600052604160045260246000fdfe60806040526004361015610018575b361561001657005b005b60003560e01c806312065fe0146100d85780631f185d16146100d3578063339459a6146100ce5780633b9b7955146100c95780638da5cb5b146100c4578063a1f7f539146100bf578063af484526146100ba578063b90306ad146100b5578063c54e44b0146100b0578063e01ad5fd146100ab578063e0a9bc2b146100a65763fdc10bc90361000e57610b16565b610a90565b6109c9565b61095b565b61086d565b6107f6565b61078c565b610763565b61073a565b6101dd565b610116565b346100f45760003660031901126100f457602047604051908152f35b600080fd5b6001600160a01b031690565b6001600160a01b038116036100f457565b346100f4576020806003193601126100f45761018960043561013781610105565b6002546040516001600160a01b0392831685820152848152911661015a82610b78565b6040519061016782610b78565b601182527069735369676e657228616464726573732960781b85830152610f80565b9190806101d3575b156101c15781816101ab926101bd94518301019101610f38565b60405191829182901515815260200190565b0390f35b604051633204506f60e01b8152600490fd5b5080825114610191565b346100f45760003660031901126100f4576102016101fc6000546100f9565b6100f9565b604051634bf9c0ad60e11b815290602082600481845afa91821561056a57600092610719575b5060405163cfbffe5360e01b815291602083600481855afa92831561056a576000936106f8575b5060405163ab6e844f60e01b815290602082600481865afa91821561056a576000926106d7575b50604051630536340960e21b815291602083600481875afa92831561056a576000936106b6575b5060405163d1f956b160e01b815292602084600481885afa93841561056a57600094610695575b50604051631cc3bfab60e31b815293602085600481895afa94851561056a57600095610674575b5060405163e09d394d60e01b81526020816004818a5afa90811561056a57600091610655575b506040516314ac1b5960e21b81526020816004818b5afa90811561056a57600091610636575b5060405163013cf08b60e01b815260006004820152916020836024818c5afa92831561056a57600093610615575b50604051635e09dbe760e01b8152976020896004818d5afa94851561056a576004996000966105f4575b50604051635506ee0b60e11b8152996020908b90818e5afa96871561056a5760049a6000986105d3575b50604051636402742760e01b81529a6020908c90818f5afa98891561056a5760049b60009a6105b2575b5060208d6040519d8e80926330125cf560e01b82525afa9a8b1561056a578d60049d60009d610590575b506020906040519e8f80926324768d9160e01b82525afa9c8d1561056a5760009d61056f575b506040516313b92d3560e31b81529d8e9081905a92600491602094fa9d8e1561056a5760009e610539575b50610466610bfa565b9e8f916104739083610c1a565b6104809060208301610c1a565b6040019061048d91610c1a565b61049a9060608e01610c1a565b6104a79060808d01610c1a565b6104b49060a08c01610c1a565b6104c19060c08b01610c1a565b6104ce9060e08a01610c1a565b6104dc906101008901610c1a565b6104ea906101208801610c1a565b6104f8906101408701610c1a565b610506906101608601610c1a565b610514906101808501610c1a565b610522906101a08401610c1a565b610530906101c08301610c1a565b61001690610c29565b61055c919e5060203d602011610563575b6105548183610bb3565b810190610bd6565b9c3861045d565b503d61054a565b610bee565b610589919d5060203d602011610563576105548183610bb3565b9b38610432565b6020919d506105ab90823d8411610563576105548183610bb3565b9c9061040c565b6105cc919a5060203d602011610563576105548183610bb3565b98386103e2565b6105ed91985060203d602011610563576105548183610bb3565b96386103b8565b61060e91965060203d602011610563576105548183610bb3565b943861038e565b61062f91935060203d602011610563576105548183610bb3565b9138610364565b61064f915060203d602011610563576105548183610bb3565b38610336565b61066e915060203d602011610563576105548183610bb3565b38610310565b61068e91955060203d602011610563576105548183610bb3565b93386102ea565b6106af91945060203d602011610563576105548183610bb3565b92386102c3565b6106d091935060203d602011610563576105548183610bb3565b913861029c565b6106f191925060203d602011610563576105548183610bb3565b9038610275565b61071291935060203d602011610563576105548183610bb3565b913861024e565b61073391925060203d602011610563576105548183610bb3565b9038610227565b346100f45760003660031901126100f4576000546040516001600160a01b039091168152602090f35b346100f45760003660031901126100f4576001546040516001600160a01b039091168152602090f35b346100f45760003660031901126100f45760206107ee60018060a01b03600654166040516107b981610b78565b601381527267657464656c656761746f72436f756e74282960681b84820152604051916107e583610b98565b60008352611017565b604051908152f35b346100f4576020806003193601126100f45761018960043561081781610105565b6002546040516001600160a01b0392831685820152848152911661083a82610b78565b6040519061084782610b78565b601582527469735365637572654261736528616464726573732960581b85830152610f80565b346100f45760203660031901126100f457600554600435906001600160a01b0316330361094957600090600460206108a86101fc85546100f9565b6040516311be646b60e21b815292839182905afa801561056a578380848194938294839161092b575b505af16108dc610f50565b50156101c1577fcdcc745fe377b103b45fa0cec23ae3ef93d6fc6a84a01f0d18c40b354dd1d5d86109256109146101fc600b546100f9565b604051938452929081906020820190565b0390a280f35b610943915060203d8111610563576105548183610bb3565b386108d1565b60405163ea8e4eb560e01b8152600490fd5b346100f45760203660031901126100f45760043561097881610105565b803b600061098582610f1d565b926109936040519485610bb3565b82845260208401903c602d8151106109b757602a602091015160601c604051908152f35b60405163baf3f0f760e01b8152600490fd5b346100f4576020806003193601126100f4576101bd90600435906109ec82610105565b6006546040516001600160a01b0393841683820152828152921691610a4c90610a1481610b78565b604051610a2081610b78565b6018815277697364656c656761746f724e6f646528616464726573732960401b84820152600094610f80565b919080610a86575b610a6d575b505060405191829182901515815260200190565b610a7f92508082518301019101610f38565b3880610a59565b5080825114610a54565b346100f45760003660031901126100f457600254604051610ae9916001600160a01b031690610abe81610b78565b6008815267697353616665282960c01b602082015260405191610ae083610b98565b60008352610f80565b9080610b0b575b156101c1576101ab816020806101bd94518301019101610f38565b506020815114610af0565b346100f45760003660031901126100f45760206107ee60018060a01b0360035416604051610b4381610b78565b600681526569416765282960d01b84820152604051916107e583610b98565b634e487b7160e01b600052604160045260246000fd5b604081019081106001600160401b03821117610b9357604052565b610b62565b602081019081106001600160401b03821117610b9357604052565b601f909101601f19168101906001600160401b03821190821017610b9357604052565b908160209103126100f45751610beb81610105565b90565b6040513d6000823e3d90fd5b604051906101e082016001600160401b03811183821017610b9357604052565b6001600160a01b039091169052565b610ef96101c0610f1b92610c62610c4082516100f9565b600280546001600160a01b0319166001600160a01b0392909216919091179055565b610c94610c7260208301516100f9565b600380546001600160a01b0319166001600160a01b0392909216919091179055565b610cc6610ca460408301516100f9565b600480546001600160a01b0319166001600160a01b0392909216919091179055565b610cf8610cd660608301516100f9565b600580546001600160a01b0319166001600160a01b0392909216919091179055565b610d2a610d0860808301516100f9565b600680546001600160a01b0319166001600160a01b0392909216919091179055565b610d5c610d3a60a08301516100f9565b600780546001600160a01b0319166001600160a01b0392909216919091179055565b610d8e610d6c60c08301516100f9565b600880546001600160a01b0319166001600160a01b0392909216919091179055565b610dc0610d9e60e08301516100f9565b600980546001600160a01b0319166001600160a01b0392909216919091179055565b610df3610dd16101008301516100f9565b600a80546001600160a01b0319166001600160a01b0392909216919091179055565b610e26610e046101208301516100f9565b600b80546001600160a01b0319166001600160a01b0392909216919091179055565b610e59610e376101408301516100f9565b600c80546001600160a01b0319166001600160a01b0392909216919091179055565b610e8c610e6a6101608301516100f9565b600d80546001600160a01b0319166001600160a01b0392909216919091179055565b610ebf610e9d6101808301516100f9565b600e80546001600160a01b0319166001600160a01b0392909216919091179055565b610ef2610ed06101a08301516100f9565b600f80546001600160a01b0319166001600160a01b0392909216919091179055565b01516100f9565b601080546001600160a01b0319166001600160a01b0392909216919091179055565b565b6001600160401b038111610b9357601f01601f191660200190565b908160209103126100f4575180151581036100f45790565b3d15610f7b573d90610f6182610f1d565b91610f6f6040519384610bb3565b82523d6000602084013e565b606090565b9190823b15610ffe578051906020918263ffffffff60e01b92012016916040519180830193845281519160005b838110610fea575050509181610fda60248260009795968897018783820152036004810184520182610bb3565b51915afa610fe6610f50565b9091565b818101830151858201602401528201610fad565b50505060009060405161101081610b98565b6000815290565b929161102591600094610f80565b908061104a575b6110335750565b9091506020818051810103126100f4576020015190565b50602081511461102c56fea2646970667358221220f9603b1d8f3a2c9092de6bfd7468eb4cb5eab9e29aaec8ac72d5281021a7817664736f6c63430008140033","linkReferences":{}},"methodIdentifiers":{"Burn(uint256)":"b90306ad","_delegatorCount()":"a1f7f539","_getImplementation(address)":"c54e44b0","_isDelegatorNode(address)":"e01ad5fd","_isSafe()":"e0a9bc2b","_isSecureBase(address)":"af484526","_isSigner(address)":"1f185d16","getBalance()":"12065fe0","getHexbase()":"3b9b7955","owner()":"8da5cb5b","syncBaseAddr()":"339459a6","systemAge()":"fdc10bc9"},"id":0}