{"abi":[{"type":"constructor","inputs":[],"stateMutability":"nonpayable"},{"type":"fallback","stateMutability":"payable"},{"type":"receive","stateMutability":"payable"},{"type":"function","name":"Burn","inputs":[{"name":"amount","type":"uint256","internalType":"uint256"}],"outputs":[],"stateMutability":"payable"},{"type":"function","name":"_setOwner","inputs":[{"name":"own","type":"address","internalType":"address"},{"name":"isApproved","type":"bool","internalType":"bool"}],"outputs":[],"stateMutability":"nonpayable"},{"type":"function","name":"_setReq","inputs":[{"name":"own","type":"address","internalType":"address"}],"outputs":[],"stateMutability":"nonpayable"},{"type":"function","name":"addOrRemoveOrc1155","inputs":[{"name":"orc","type":"address","internalType":"address"},{"name":"flag","type":"bool","internalType":"bool"}],"outputs":[],"stateMutability":"nonpayable"},{"type":"function","name":"at","inputs":[{"name":"_addr","type":"address","internalType":"address"}],"outputs":[{"name":"o_code","type":"bytes","internalType":"bytes"}],"stateMutability":"view"},{"type":"function","name":"createInstance","inputs":[{"name":"user","type":"address","internalType":"address"},{"name":"parent","type":"address","internalType":"address"},{"name":"bonus","type":"uint256","internalType":"uint256"}],"outputs":[{"name":"","type":"address","internalType":"address"}],"stateMutability":"nonpayable"},{"type":"function","name":"curSupply","inputs":[],"outputs":[{"name":"","type":"uint256","internalType":"uint256"}],"stateMutability":"view"},{"type":"function","name":"getBalance","inputs":[],"outputs":[{"name":"","type":"uint256","internalType":"uint256"}],"stateMutability":"view"},{"type":"function","name":"getORC1155Count","inputs":[],"outputs":[{"name":"","type":"uint256","internalType":"uint256"}],"stateMutability":"view"},{"type":"function","name":"isAccountSafeOwner","inputs":[{"name":"sender","type":"address","internalType":"address"}],"outputs":[{"name":"","type":"bool","internalType":"bool"}],"stateMutability":"view"},{"type":"function","name":"isORC1155","inputs":[{"name":"","type":"address","internalType":"address"}],"outputs":[{"name":"","type":"bool","internalType":"bool"}],"stateMutability":"view"},{"type":"function","name":"isOwnerOrSafeOwner","inputs":[{"name":"sender","type":"address","internalType":"address"}],"outputs":[{"name":"","type":"bool","internalType":"bool"}],"stateMutability":"view"},{"type":"function","name":"isclone","inputs":[{"name":"","type":"address","internalType":"address"}],"outputs":[{"name":"","type":"bool","internalType":"bool"}],"stateMutability":"view"},{"type":"function","name":"isuser","inputs":[{"name":"","type":"address","internalType":"address"}],"outputs":[{"name":"","type":"bool","internalType":"bool"}],"stateMutability":"view"},{"type":"function","name":"owner","inputs":[],"outputs":[{"name":"","type":"address","internalType":"address"}],"stateMutability":"view"},{"type":"function","name":"req","inputs":[],"outputs":[{"name":"newowner","type":"address","internalType":"address"},{"name":"isReq","type":"bool","internalType":"bool"},{"name":"isVer1","type":"bool","internalType":"bool"},{"name":"isVer2","type":"bool","internalType":"bool"},{"name":"isVer3","type":"bool","internalType":"bool"}],"stateMutability":"view"},{"type":"function","name":"setCloneIns","inputs":[{"name":"cl","type":"address","internalType":"address"}],"outputs":[],"stateMutability":"nonpayable"},{"type":"function","name":"setParam","inputs":[{"name":"s","type":"address","internalType":"address"},{"name":"r","type":"address","internalType":"address"},{"name":"m","type":"address","internalType":"address"},{"name":"f","type":"address","internalType":"address"},{"name":"t","type":"address","internalType":"address"}],"outputs":[],"stateMutability":"nonpayable"},{"type":"function","name":"tokens","inputs":[{"name":"","type":"uint256","internalType":"uint256"}],"outputs":[{"name":"","type":"address","internalType":"address"}],"stateMutability":"view"},{"type":"function","name":"tranferowner","inputs":[{"name":"from","type":"address","internalType":"address"},{"name":"to","type":"address","internalType":"address"}],"outputs":[],"stateMutability":"nonpayable"},{"type":"function","name":"withdraw","inputs":[{"name":"to","type":"address","internalType":"address"},{"name":"amount","type":"uint256","internalType":"uint256"}],"outputs":[],"stateMutability":"payable"},{"type":"error","name":"FailedDeployment","inputs":[]},{"type":"error","name":"InsufficientBalance","inputs":[{"name":"balance","type":"uint256","internalType":"uint256"},{"name":"needed","type":"uint256","internalType":"uint256"}]}],"bytecode":{"object":"0x6080604052600060095534801561001557600080fd5b506100f9600080546001600160a01b03199081167308ff697696398fac0dcee979bb0f1fb7b7fc380b1790915560018054821673882bf41aa8e3fad0695be39e4434af54786eb24a179055600280548216739f33b44587a57758c1413dbab6640f6abea5cef417905560038054821673951a7bbd21b4a6f49e62e040b992eed7120fcdd9179055600480548216737e2baf007a3761d33afee572a7e7a08c1499b99d17905560058054821673a7f1431592f87df526a996259f90d034e6e1b0781790556006805490911673894f85898a6a6f72c67c6a6e22d4eee6fcbbf80e179055565b600780546001600160a01b0319908116321790915560038054600a805460018181019092557fc65a7bb8d6351c1cf70c95a316cc6a92839c986682d98bc35f958f4883f9d2a80180549094166001600160a01b03928316179093559054166000908152600b60205260409020805460ff19169091179055611cb38061017f6000396000f3fe6080604052600436106101225760003560e01c8063abb8c965116100a5578063c9d5c63f1161006c578063c9d5c63f146103a0578063dce4a447146103c0578063e437d5dd146103ed578063e702e7131461041d578063ece318c914610432578063f3fef3a31461045257005b8063abb8c965146102fd578063b07518231461031d578063b2a53a0c1461033d578063b90306ad1461036d578063c3bd18c31461038057005b806357e0e465116100e957806357e0e465146102595780635fac2d9d146102895780636ac35be61461029f5780636b2c4357146102bf5780638da5cb5b146102df57005b80630d43aaf21461012b57806312065fe0146101b4578063379a423c146101d157806341ffe7c4146102015780634f64b2be1461022157005b3661012957005b005b34801561013757600080fd5b50600854610175906001600160a01b0381169060ff600160a01b8204811691600160a81b8104821691600160b01b8204811691600160b81b90041685565b604080516001600160a01b03909616865293151560208601529115159284019290925290151560608301521515608082015260a0015b60405180910390f35b3480156101c057600080fd5b50475b6040519081526020016101ab565b3480156101dd57600080fd5b506101f16101ec3660046118dc565b610465565b60405190151581526020016101ab565b34801561020d57600080fd5b5061012961021c3660046118dc565b6104f2565b34801561022d57600080fd5b5061024161023c366004611900565b6106ea565b6040516001600160a01b0390911681526020016101ab565b34801561026557600080fd5b506101f16102743660046118dc565b600d6020526000908152604090205460ff1681565b34801561029557600080fd5b506101c360095481565b3480156102ab57600080fd5b506101296102ba3660046118dc565b610714565b3480156102cb57600080fd5b506101296102da366004611919565b610879565b3480156102eb57600080fd5b506007546001600160a01b0316610241565b34801561030957600080fd5b50610129610318366004611960565b610b2c565b34801561032957600080fd5b5061012961033836600461198e565b610e3f565b34801561034957600080fd5b506101f16103583660046118dc565b600b6020526000908152604090205460ff1681565b61012961037b366004611900565b610fb9565b34801561038c57600080fd5b506101f161039b3660046118dc565b61106f565b3480156103ac57600080fd5b506101296103bb366004611960565b6110de565b3480156103cc57600080fd5b506103e06103db3660046118dc565b61129e565b6040516101ab9190611a23565b3480156103f957600080fd5b506101f16104083660046118dc565b600c6020526000908152604090205460ff1681565b34801561042957600080fd5b50600a546101c3565b34801561043e57600080fd5b5061024161044d366004611a56565b6112cf565b610129610460366004611a97565b611470565b600080546040516319c0642960e01b81526001600160a01b038481166004830152909116906319c0642990602401602060405180830381865afa1580156104b0573d6000803e3d6000fd5b505050506040513d601f19601f820116820180604052508101906104d49190611ac3565b806104ec57506007546001600160a01b038381169116145b92915050565b600054604051637df73e2760e01b81523360048201819052916001600160a01b031690637df73e2790602401602060405180830381865afa15801561053b573d6000803e3d6000fd5b505050506040513d601f19601f8201168201806040525081019061055f9190611ac3565b6105845760405162461bcd60e51b815260040161057b90611ae0565b60405180910390fd5b600080546040516307612f9160e21b81523360048201526001600160a01b0390911690631d84be44906024016020604051808303816000875af11580156105cf573d6000803e3d6000fd5b505050506040513d601f19601f820116820180604052508101906105f39190611b07565b90506106266040805160a08101825260008082526020820181905291810182905260608101829052608081019190915290565b60016020820181905282900361063e57600160408201525b8160020361064e57600160608201525b8160030361065e57600160808201525b6001600160a01b03909316808452600880546020860151604087015160608801516080909801511515600160b81b0260ff60b81b19981515600160b01b0260ff60b01b19921515600160a81b029290921661ffff60a81b19931515600160a01b026001600160a81b03199095169096179390931791909116939093179290921794909416179092555050565b600a81815481106106fa57600080fd5b6000918252602090912001546001600160a01b0316905081565b60008054906101000a90046001600160a01b03166001600160a01b0316636a276f9d6040518163ffffffff1660e01b8152600401602060405180830381865afa158015610765573d6000803e3d6000fd5b505050506040513d601f19601f820116820180604052508101906107899190611ac3565b6107a55760405162461bcd60e51b815260040161057b90611b20565b806001600160a01b0381166107cc5760405162461bcd60e51b815260040161057b90611b57565b6000546040516319c0642960e01b81523360048201819052916001600160a01b0316906319c0642990602401602060405180830381865afa158015610815573d6000803e3d6000fd5b505050506040513d601f19601f820116820180604052508101906108399190611ac3565b6108555760405162461bcd60e51b815260040161057b90611b7f565b5050600580546001600160a01b0319166001600160a01b0392909216919091179055565b60008054906101000a90046001600160a01b03166001600160a01b0316636a276f9d6040518163ffffffff1660e01b8152600401602060405180830381865afa1580156108ca573d6000803e3d6000fd5b505050506040513d601f19601f820116820180604052508101906108ee9190611ac3565b61090a5760405162461bcd60e51b815260040161057b90611b20565b6000546040516319c0642960e01b81523260048201819052916001600160a01b0316906319c0642990602401602060405180830381865afa158015610953573d6000803e3d6000fd5b505050506040513d601f19601f820116820180604052508101906109779190611ac3565b6109935760405162461bcd60e51b815260040161057b90611b7f565b826001600160a01b0381166109ba5760405162461bcd60e51b815260040161057b90611b57565b826001600160a01b0381166109e15760405162461bcd60e51b815260040161057b90611b57565b6002546040516345145fd760e01b81526001600160a01b03878116600483015260009216906345145fd790602401602060405180830381865afa158015610a2c573d6000803e3d6000fd5b505050506040513d601f19601f82011682018060405250810190610a509190611baa565b90506001600160a01b03811615610b2457600254604051631c42937760e21b81526001600160a01b03888116600483015287811660248301529091169063710a4ddc90604401600060405180830381600087803b158015610ab057600080fd5b505af1158015610ac4573d6000803e3d6000fd5b5050604051634fb2e45d60e01b81526001600160a01b03888116600483015284169250634fb2e45d9150602401600060405180830381600087803b158015610b0b57600080fd5b505af1158015610b1f573d6000803e3d6000fd5b505050505b505050505050565b600054604051637df73e2760e01b81523360048201819052916001600160a01b031690637df73e2790602401602060405180830381865afa158015610b75573d6000803e3d6000fd5b505050506040513d601f19601f82011682018060405250810190610b999190611ac3565b610bb55760405162461bcd60e51b815260040161057b90611ae0565b8115610e0257600080546040516307612f9160e21b81523360048201526001600160a01b0390911690631d84be44906024016020604051808303816000875af1158015610c06573d6000803e3d6000fd5b505050506040513d601f19601f82011682018060405250810190610c2a9190611b07565b600854909150600160a01b900460ff168015610c465750806001145b8015610c5f57506008546001600160a01b038581169116145b15610c78576008805460ff60a81b1916600160a81b1790555b600854600160a01b900460ff168015610c915750806002145b8015610caa57506008546001600160a01b038581169116145b15610cc3576008805460ff60b01b1916600160b01b1790555b600854600160a01b900460ff168015610cdc5750806003145b8015610cf557506008546001600160a01b038581169116145b15610d0e576008805460ff60b81b1916600160b81b1790555b600854600090600160a81b900460ff1615610d315780610d2d81611bc7565b9150505b600854600160b01b900460ff1615610d515780610d4d81611bc7565b9150505b600854600160b81b900460ff1615610d715780610d6d81611bc7565b9150505b600854600160a01b900460ff168015610d8a5750806002145b8015610da357506008546001600160a01b038681169116145b15610dfb57600780546001600160a01b0319166001600160a01b0387161790556040805160a0810182526000808252602082018190529181018290526060810182905260800152600880546001600160c01b03191690555b5050505050565b6040805160a0810182526000808252602082018190529181018290526060810182905260800152600880546001600160c01b03191690555b505050565b60008054906101000a90046001600160a01b03166001600160a01b0316636a276f9d6040518163ffffffff1660e01b8152600401602060405180830381865afa158015610e90573d6000803e3d6000fd5b505050506040513d601f19601f82011682018060405250810190610eb49190611ac3565b610ed05760405162461bcd60e51b815260040161057b90611b20565b6000546040516319c0642960e01b81523360048201819052916001600160a01b0316906319c0642990602401602060405180830381865afa158015610f19573d6000803e3d6000fd5b505050506040513d601f19601f82011682018060405250810190610f3d9190611ac3565b610f595760405162461bcd60e51b815260040161057b90611b7f565b50600080546001600160a01b03199081166001600160a01b03978816179091556001805482169587169590951790945560028054851693861693909317909255600680548416918516919091179055600480549092169216919091179055565b6000546040516319c0642960e01b81523260048201819052916001600160a01b0316906319c0642990602401602060405180830381865afa158015611002573d6000803e3d6000fd5b505050506040513d601f19601f820116820180604052508101906110269190611ac3565b6110425760405162461bcd60e51b815260040161057b90611b7f565b60405160009083156108fc0290849083818181858288f19350505050158015610e3a573d6000803e3d6000fd5b60008054604051633f978d1f60e11b81526001600160a01b03848116600483015290911690637f2f1a3e90602401602060405180830381865afa1580156110ba573d6000803e3d6000fd5b505050506040513d601f19601f820116820180604052508101906104ec9190611ac3565b816001600160a01b0381166111055760405162461bcd60e51b815260040161057b90611b57565b60008054906101000a90046001600160a01b03166001600160a01b0316636a276f9d6040518163ffffffff1660e01b8152600401602060405180830381865afa158015611156573d6000803e3d6000fd5b505050506040513d601f19601f8201168201806040525081019061117a9190611ac3565b6111965760405162461bcd60e51b815260040161057b90611b20565b6000546040516319c0642960e01b81523360048201819052916001600160a01b0316906319c0642990602401602060405180830381865afa1580156111df573d6000803e3d6000fd5b505050506040513d601f19601f820116820180604052508101906112039190611ac3565b61121f5760405162461bcd60e51b815260040161057b90611b7f565b821561127157600a80546001810182556000919091527fc65a7bb8d6351c1cf70c95a316cc6a92839c986682d98bc35f958f4883f9d2a80180546001600160a01b0319166001600160a01b0386161790555b50506001600160a01b03919091166000908152600b60205260409020805460ff1916911515919091179055565b60606112a98261159b565b6040516020016112b99190611bee565b6040516020818303038152906040529050919050565b60008060009054906101000a90046001600160a01b03166001600160a01b0316636a276f9d6040518163ffffffff1660e01b8152600401602060405180830381865afa158015611323573d6000803e3d6000fd5b505050506040513d601f19601f820116820180604052508101906113479190611ac3565b6113635760405162461bcd60e51b815260040161057b90611b20565b6000546040516319c0642960e01b81523360048201819052916001600160a01b0316906319c0642990602401602060405180830381865afa1580156113ac573d6000803e3d6000fd5b505050506040513d601f19601f820116820180604052508101906113d09190611ac3565b806113e857506007546001600160a01b038281169116145b6114345760405162461bcd60e51b815260206004820152601860248201527f496e76616c6964204f776e65724f72536166654f776e65720000000000000000604482015260640161057b565b846001600160a01b03811661145b5760405162461bcd60e51b815260040161057b90611b57565b6114668686866115c9565b9695505050505050565b600054604051637df73e2760e01b81523260048201819052916001600160a01b031690637df73e2790602401602060405180830381865afa1580156114b9573d6000803e3d6000fd5b505050506040513d601f19601f820116820180604052508101906114dd9190611ac3565b6114f95760405162461bcd60e51b815260040161057b90611ae0565b826001600160a01b0381166115205760405162461bcd60e51b815260040161057b90611b57565b328061153e5760405162461bcd60e51b815260040161057b90611b57565b338061155c5760405162461bcd60e51b815260040161057b90611b57565b6040516001600160a01b0387169086156108fc029087906000818181858888f19350505050158015611592573d6000803e3d6000fd5b50505050505050565b6060816001600160a01b0316803b806020016040519081016040528181526000908060200190933c92915050565b6001600160a01b0383166000908152600c602052604081205460ff16156116235760405162461bcd60e51b815260206004820152600e60248201526d616c72656164792065786973747360901b604482015260640161057b565b6001600160a01b038316158061164657506007546001600160a01b038481169116145b6116835760405162461bcd60e51b815260206004820152600e60248201526d1a5b9d985b1a59081c185c995b9d60921b604482015260640161057b565b6001600160a01b0383166000908152600c602052604090205460ff16806116c657506001600160a01b0383161580156116c657506007546001600160a01b031633145b6117065760405162461bcd60e51b8152602060048201526011602482015270706172656e74206e6f742065786973747360781b604482015260640161057b565b60055460009061171e906001600160a01b0316611852565b6001600160a01b038681166000818152600c602090815260408083208054600160ff199182168117909255878716808652600d909452828520805490911690911790556002549051634a9abc1160e11b81528a8616600482015260248101929092526044820193909352939450929116906395357822906064016020604051808303816000875af11580156117b7573d6000803e3d6000fd5b505050506040513d601f19601f820116820180604052508101906117db9190611b07565b60405163525154fb60e11b81526001600160a01b03888116600483015260248201839052604482018790529192509083169063a4a2a9f690606401600060405180830381600087803b15801561183057600080fd5b505af1158015611844573d6000803e3d6000fd5b509398975050505050505050565b60006104ec828280763d602d80600a3d3981f3363d3d373d3d3d363d730000008360601b60e81c176000526e5af43d82803e903d91602b57fd5bf38360781b176020526037600983f090506001600160a01b0381166104ec5760405163b06ebf3d60e01b815260040160405180910390fd5b6001600160a01b03811681146118d957600080fd5b50565b6000602082840312156118ee57600080fd5b81356118f9816118c4565b9392505050565b60006020828403121561191257600080fd5b5035919050565b6000806040838503121561192c57600080fd5b8235611937816118c4565b91506020830135611947816118c4565b809150509250929050565b80151581146118d957600080fd5b6000806040838503121561197357600080fd5b823561197e816118c4565b9150602083013561194781611952565b600080600080600060a086880312156119a657600080fd5b85356119b1816118c4565b945060208601356119c1816118c4565b935060408601356119d1816118c4565b925060608601356119e1816118c4565b915060808601356119f1816118c4565b809150509295509295909350565b60005b83811015611a1a578181015183820152602001611a02565b50506000910152565b6020815260008251806020840152611a428160408501602087016119ff565b601f01601f19169190910160400192915050565b600080600060608486031215611a6b57600080fd5b8335611a76816118c4565b92506020840135611a86816118c4565b929592945050506040919091013590565b60008060408385031215611aaa57600080fd5b8235611ab5816118c4565b946020939093013593505050565b600060208284031215611ad557600080fd5b81516118f981611952565b6020808252600d908201526c24b73b30b634b21027bbb732b960991b604082015260600190565b600060208284031215611b1957600080fd5b5051919050565b6020808252601a908201527f496e76616c6964205361666567756172642e6973536166652829000000000000604082015260600190565b6020808252600e908201526d3232b330bab63a1039b2b73232b960911b604082015260600190565b60208082526011908201527024b73b30b634b21029b0b332a7bbb732b960791b604082015260600190565b600060208284031215611bbc57600080fd5b81516118f9816118c4565b600060018201611be757634e487b7160e01b600052601160045260246000fd5b5060010190565b60008251611c008184602087016119ff565b730468e8dc225c4746454419c9dcccb59a581434b160631b92019182525073d416952dc46fce2775e90571d46a79565d04cb2560601b602082015273094c37fb9b5b2065409a5c7cb9bff71c4d49bf4160601b604082015273fe69687ce9c746c10e1c2af1e3f5d1475df4300f60601b606082015260740191905056fea2646970667358221220a9c8268803c43949f190811f59a0442a09128506c10522ecfa2d1d4654716b6f64736f6c63430008140033","linkReferences":{}},"methodIdentifiers":{"Burn(uint256)":"b90306ad","_setOwner(address,bool)":"abb8c965","_setReq(address)":"41ffe7c4","addOrRemoveOrc1155(address,bool)":"c9d5c63f","at(address)":"dce4a447","createInstance(address,address,uint256)":"ece318c9","curSupply()":"5fac2d9d","getBalance()":"12065fe0","getORC1155Count()":"e702e713","isAccountSafeOwner(address)":"c3bd18c3","isORC1155(address)":"b2a53a0c","isOwnerOrSafeOwner(address)":"379a423c","isclone(address)":"57e0e465","isuser(address)":"e437d5dd","owner()":"8da5cb5b","req()":"0d43aaf2","setCloneIns(address)":"6ac35be6","setParam(address,address,address,address,address)":"b0751823","tokens(uint256)":"4f64b2be","tranferowner(address,address)":"6b2c4357","withdraw(address,uint256)":"f3fef3a3"},"id":3}