{"abi":[{"type":"constructor","inputs":[{"name":"_hex","type":"address","internalType":"address"}],"stateMutability":"nonpayable"},{"type":"fallback","stateMutability":"payable"},{"type":"receive","stateMutability":"payable"},{"type":"function","name":"Burn","inputs":[{"name":"amount","type":"uint256","internalType":"uint256"}],"outputs":[],"stateMutability":"nonpayable"},{"type":"function","name":"UserToForm","inputs":[{"name":"","type":"address","internalType":"address"}],"outputs":[{"name":"","type":"uint256","internalType":"uint256"}],"stateMutability":"view"},{"type":"function","name":"_delegatorCount","inputs":[],"outputs":[{"name":"","type":"uint256","internalType":"uint256"}],"stateMutability":"view"},{"type":"function","name":"_getImplementation","inputs":[{"name":"clone","type":"address","internalType":"address"}],"outputs":[{"name":"impl","type":"address","internalType":"address"}],"stateMutability":"view"},{"type":"function","name":"_isDelegatorNode","inputs":[{"name":"sender","type":"address","internalType":"address"}],"outputs":[{"name":"","type":"bool","internalType":"bool"}],"stateMutability":"view"},{"type":"function","name":"_isSafe","inputs":[],"outputs":[{"name":"","type":"bool","internalType":"bool"}],"stateMutability":"view"},{"type":"function","name":"_isSecureBase","inputs":[{"name":"sender","type":"address","internalType":"address"}],"outputs":[{"name":"","type":"bool","internalType":"bool"}],"stateMutability":"view"},{"type":"function","name":"_isSigner","inputs":[{"name":"sender","type":"address","internalType":"address"}],"outputs":[{"name":"","type":"bool","internalType":"bool"}],"stateMutability":"view"},{"type":"function","name":"callback","inputs":[{"name":"formId","type":"uint256","internalType":"uint256"}],"outputs":[],"stateMutability":"nonpayable"},{"type":"function","name":"closeTransferTarget","inputs":[{"name":"to","type":"address","internalType":"address"}],"outputs":[],"stateMutability":"nonpayable"},{"type":"function","name":"forms","inputs":[{"name":"","type":"uint256","internalType":"uint256"}],"outputs":[{"name":"from","type":"address","internalType":"address"},{"name":"to","type":"address","internalType":"address"},{"name":"status","type":"bool","internalType":"bool"},{"name":"proposalId","type":"uint256","internalType":"uint256"},{"name":"resolved","type":"bool","internalType":"bool"},{"name":"closed","type":"bool","internalType":"bool"}],"stateMutability":"view"},{"type":"function","name":"getBalance","inputs":[],"outputs":[{"name":"","type":"uint256","internalType":"uint256"}],"stateMutability":"view"},{"type":"function","name":"getForm","inputs":[{"name":"formId","type":"uint256","internalType":"uint256"}],"outputs":[{"name":"from","type":"address","internalType":"address"},{"name":"to","type":"address","internalType":"address"},{"name":"resolved","type":"bool","internalType":"bool"},{"name":"closed","type":"bool","internalType":"bool"},{"name":"status","type":"bool","internalType":"bool"},{"name":"proposalId","type":"uint256","internalType":"uint256"}],"stateMutability":"view"},{"type":"function","name":"getFormsCount","inputs":[],"outputs":[{"name":"","type":"uint256","internalType":"uint256"}],"stateMutability":"view"},{"type":"function","name":"getImportedNodeByIndex","inputs":[{"name":"index","type":"uint256","internalType":"uint256"}],"outputs":[{"name":"node","type":"address","internalType":"address"}],"stateMutability":"view"},{"type":"function","name":"getMandatedVoters","inputs":[{"name":"formId","type":"uint256","internalType":"uint256"},{"name":"inx","type":"uint256","internalType":"uint256"}],"outputs":[{"name":"mandatedvoter","type":"address","internalType":"address"}],"stateMutability":"view"},{"type":"function","name":"getMandatedVotersCount","inputs":[{"name":"formId","type":"uint256","internalType":"uint256"}],"outputs":[{"name":"count","type":"uint256","internalType":"uint256"}],"stateMutability":"view"},{"type":"function","name":"getimportedNodeCount","inputs":[],"outputs":[{"name":"nodesCount","type":"uint256","internalType":"uint256"}],"stateMutability":"view"},{"type":"function","name":"importPrimeuser","inputs":[{"name":"limit","type":"uint256","internalType":"uint256"}],"outputs":[],"stateMutability":"nonpayable"},{"type":"function","name":"importedNode","inputs":[{"name":"","type":"uint256","internalType":"uint256"}],"outputs":[{"name":"","type":"address","internalType":"address"}],"stateMutability":"view"},{"type":"function","name":"isNodeStopped","inputs":[{"name":"sender","type":"address","internalType":"address"}],"outputs":[{"name":"","type":"bool","internalType":"bool"}],"stateMutability":"view"},{"type":"function","name":"owner","inputs":[],"outputs":[{"name":"","type":"address","internalType":"address"}],"stateMutability":"view"},{"type":"function","name":"resolveTransferTarget","inputs":[{"name":"to","type":"address","internalType":"address"}],"outputs":[{"name":"from","type":"address","internalType":"address"}],"stateMutability":"view"},{"type":"function","name":"submitTransferForm","inputs":[{"name":"_from","type":"address","internalType":"address"},{"name":"_mandatedvoters","type":"address[]","internalType":"address[]"}],"outputs":[],"stateMutability":"nonpayable"},{"type":"function","name":"systemAge","inputs":[],"outputs":[{"name":"","type":"uint256","internalType":"uint256"}],"stateMutability":"view"}],"bytecode":{"object":"0x60806040523480156200001157600080fd5b5060405162002fd438038062002fd483398101604081905262000034916200027f565b600180546001600160a01b0319908116909155600080549091166001600160a01b03831617905562000278600280546001818101835560008390527f405787fa12a823e0f2b7631cc41b3ba8828b3321ca811111fa75cd3aa3bb5ace91820180546001600160a01b03199081167375c6f8e5306f5403b660ab73023e6dca1cad1c74179091558354808301855583018054821673dc49975b1218f8703bfa90a90aacfcae51dddead17905583548083018555830180548216737999e92e90815217512d45e23078b23e54106e3a179055835480830185558301805482167338e547f16821ef96576090244a7ee296aba22f3a1790558354808301855583018054821673b77f536cd9a66bb60ad8f969af7ccd7a32899e74179055835480830185558301805482167202033c8e5840d60105185d08269cc5f653016d17905583548083018555830180548216734e2e59c2f9222505fd4b61d77108c3c1540b1d53179055835480830185558301805482167306e5cc99c59a74cac85ddf6111d214f85f816ab31790558354808301855583018054821673d7d1874e597511dba70523dcf9345a2a28aa650217905583548083018555830180548216739b21bea411784aa99b1fe4979c08625ec6916a211790558354808301855583018054821673807b8bbb07ddca2cae110d412de615a3236b988617905583548083018555830180548216732253f37395cbafafa44d60c42e8264d90f935ccf179055835491820190935501805490911673deabad12f748300b1f44110e96a88f931f94f972179055565b50620002b1565b6000602082840312156200029257600080fd5b81516001600160a01b0381168114620002aa57600080fd5b9392505050565b612d1380620002c16000396000f3fe60806040526004361061015b5760003560e01c8063ac233345116100c8578063cab3cc8d11610084578063e0a9bc2b11610061578063e0a9bc2b146104a3578063e846034a146104b8578063fdc10bc9146104cd578063ff585caf146104e257005b8063cab3cc8d1461044e578063cb84b34b14610463578063e01ad5fd1461048357005b8063ac23334514610381578063af484526146103a1578063b8f1759a146103c1578063b90306ad146103e1578063c1e6cec214610401578063c54e44b01461042e57005b806351bfd3ae1161011757806351bfd3ae146102b657806376e8217d146102d65780638da5cb5b1461030e578063965a92d81461032c578063a1f7f5391461034c578063ab7e46ae1461036157005b806312065fe01461016457806313a52c8c1461018657806318c864e3146101a65780631f185d1614610206578063479fa2c3146102365780634ef260a91461029657005b3661016257005b005b34801561017057600080fd5b50475b6040519081526020015b60405180910390f35b34801561019257600080fd5b506101626101a13660046128f6565b610502565b3480156101b257600080fd5b506101c66101c13660046129d0565b6107dd565b604080516001600160a01b0397881681529690951660208701529215159385019390935260608401529015156080830152151560a082015260c00161017d565b34801561021257600080fd5b506102266102213660046129e9565b61083b565b604051901515815260200161017d565b34801561024257600080fd5b506102566102513660046129d0565b61090f565b604080516001600160a01b0397881681529690951660208701529215159385019390935215156060840152901515608083015260a082015260c00161017d565b3480156102a257600080fd5b506101626102b13660046129e9565b61098c565b3480156102c257600080fd5b506102266102d13660046129e9565b610a44565b3480156102e257600080fd5b506102f66102f1366004612a06565b610be0565b6040516001600160a01b03909116815260200161017d565b34801561031a57600080fd5b506001546001600160a01b03166102f6565b34801561033857600080fd5b506101626103473660046129d0565b610c42565b34801561035857600080fd5b50610173611943565b34801561036d57600080fd5b506102f661037c3660046129d0565b611adf565b34801561038d57600080fd5b506102f661039c3660046129e9565b611b09565b3480156103ad57600080fd5b506102266103bc3660046129e9565b611bc7565b3480156103cd57600080fd5b506102f66103dc3660046129d0565b611c85565b3480156103ed57600080fd5b506101626103fc3660046129d0565b611cb5565b34801561040d57600080fd5b5061017361041c3660046129e9565b60046020526000908152604090205481565b34801561043a57600080fd5b506102f66104493660046129e9565b611d9b565b34801561045a57600080fd5b50600554610173565b34801561046f57600080fd5b5061017361047e3660046129d0565b611e1b565b34801561048f57600080fd5b5061022661049e3660046129e9565b611e56565b3480156104af57600080fd5b50610226612136565b3480156104c457600080fd5b50600354610173565b3480156104d957600080fd5b506101736121e1565b3480156104ee57600080fd5b506101626104fd3660046129d0565b612284565b816001600160a01b0381166105535760405162461bcd60e51b815260206004820152601260248201527137bbb7173232b330bab63a1739b2b73232b960711b60448201526064015b60405180910390fd5b33600090815260046020526040902054156105a55760405162461bcd60e51b815260206004820152601260248201527170726f706f7365722e746f2e65786973747360701b604482015260640161054a565b600580546001810182556000919091526006027f036b6384b5eca791c62761152d0c79bb0604c104a5fb6f4eb0703f3154bb3db0810180546001600160a01b0386166001600160a01b03199182161782557f036b6384b5eca791c62761152d0c79bb0604c104a5fb6f4eb0703f3154bb3db1830180549091163317905583519091610659917f036b6384b5eca791c62761152d0c79bb0604c104a5fb6f4eb0703f3154bb3db2909101906020860190612841565b5060018054600283018054928301815560009081526020812090920180546001600160a01b0319166001600160a01b039092169190911790556005546040516106a9919060240190815260200190565b60408051601f19818403018152918152602080830180516001600160e01b0316600162a7a35160e01b0319179052600080548351634162169f60e01b815293519495509093610792936001600160a01b0390921692634162169f92600480820193918290030181865afa158015610724573d6000803e3d6000fd5b505050506040513d601f19601f820116820180604052508101906107489190612a28565b3060008560076040516024016107619493929190612a69565b60408051601f198184030181529190526020810180516001600160e01b031663d3a3084960e01b1790526000612472565b9050808060200190518101906107a89190612ae6565b6004808501919091556005546001909401546001600160a01b0316600090815260209190915260409020929092555050505050565b600581815481106107ed57600080fd5b6000918252602090912060069091020180546001820154600383015460048401546005909401546001600160a01b039384169550929091169260ff9182169290918082169161010090041686565b600080546040805163af0deb9560e01b81529051610909926001600160a01b03169163af0deb959160048083019260209291908290030181865afa158015610887573d6000803e3d6000fd5b505050506040513d601f19601f820116820180604052508101906108ab9190612a28565b6040518060400160405280601181526020017069735369676e657228616464726573732960781b815250846040516020016108f591906001600160a01b0391909116815260200190565b604051602081830303815290604052612580565b92915050565b6000808080808080600561092460018a612b15565b8154811061093457610934612b28565b6000918252602090912060069091020180546001820154600583015460038401546004909401546001600160a01b039384169d939092169b5060ff8082169b5061010090910481169950909216965090945092505050565b6001600160a01b0381166000908152600460205260408120546005906109b490600190612b15565b815481106109c4576109c4612b28565b60009182526020808320600560069093020191909101805461ff0019166101001790556001600160a01b039093168082526004909352604081208190556003805460018101825591527fc2575a0e9e593c00f959f8c92f12db2869c3395a3b0502d05e2516446f71f85b0180546001600160a01b03191690921790915550565b600080610b1f60008054906101000a90046001600160a01b03166001600160a01b031663a66bcbe26040518163ffffffff1660e01b8152600401602060405180830381865afa158015610a9b573d6000803e3d6000fd5b505050506040513d601f19601f82011682018060405250810190610abf9190612a28565b6040518060400160405280601381526020017255736572546f496e737428616464726573732960681b81525085604051602001610b0b91906001600160a01b0391909116815260200190565b6040516020818303038152906040526125c7565b90506000806001600160a01b0316826001600160a01b0316141590506000610b7a836040518060400160405280600b81526020016a697353757370656e64282960a81b81525060405180602001604052806000815250612580565b90506000610bb8846040518060400160405280600881526020016769734c6f636b282960c01b81525060405180602001604052806000815250612580565b9050821580610bd65750818015610bcc5750805b8015610bd6575082155b9695505050505050565b6000806005610bf0600186612b15565b81548110610c0057610c00612b28565b90600052602060002090600602019050806002018381548110610c2557610c25612b28565b6000918252602090912001546001600160a01b0316949350505050565b610c4b30611bc7565b610c975760405162461bcd60e51b815260206004820152601760248201527f7574696c6974792e756e7365637572652e6661696c6564000000000000000000604482015260640161054a565b600080546040805163223df87160e11b81529051610d42926001600160a01b03169163447bf0e29160048083019260209291908290030181865afa158015610ce3573d6000803e3d6000fd5b505050506040513d601f19601f82011682018060405250810190610d079190612a28565b604080518082018252600f81526e6765744e6f646573436f756e74282960881b60208083019190915282516000815290810190925290612602565b90506000610d9a60008054906101000a90046001600160a01b03166001600160a01b031663a66bcbe26040518163ffffffff1660e01b8152600401602060405180830381865afa158015610ce3573d6000803e3d6000fd5b600254909150610daa9082612b3e565b9050808211610df15760405162461bcd60e51b81526020600482015260136024820152727574696c6974792e696d706f72742e646f6e6560681b604482015260640161054a565b610dfb8184612b3e565b9250818311610e0a5782610e0c565b815b92506000808060008060008060005b888b118015610e2a57508a8a10155b156119365760009650600095506000925060009150888a1115611057576000546040805163223df87160e11b81529051610ef9926001600160a01b03169163447bf0e29160048083019260209291908290030181865afa158015610e92573d6000803e3d6000fd5b505050506040513d601f19601f82011682018060405250810190610eb69190612a28565b604051806040016040528060178152602001766765744e6f64654279496e6465782875696e743235362960481b8152508b604051602001610b0b91815260200190565b90506001600160a01b038116610f4a5760405162461bcd60e51b815260206004820152601660248201527570726f78792e696e76616c69642e696e7374616e636560501b604482015260640161054a565b6000546040805163223df87160e11b81529051611005926001600160a01b03169163447bf0e29160048083019260209291908290030181865afa158015610f95573d6000803e3d6000fd5b505050506040513d601f19601f82011682018060405250810190610fb99190612a28565b60405180604001604052806013815260200172496e7374546f5573657228616464726573732960681b81525083604051602001610b0b91906001600160a01b0391909116815260200190565b94506001600160a01b0385166110525760405162461bcd60e51b815260206004820152601260248201527170726f78792e696e76616c69642e6e6f646560701b604482015260640161054a565b61108b565b60026110638b8b612b15565b8154811061107357611073612b28565b6000918252602090912001546001600160a01b031694505b60005460408051635ec08de760e11b81529051611158926001600160a01b03169163bd811bce9160048083019260209291908290030181865afa1580156110d6573d6000803e3d6000fd5b505050506040513d601f19601f820116820180604052508101906110fa9190612a28565b6040518060400160405280601181526020017055736572546f496428616464726573732960781b8152508760405160200161114491906001600160a01b0391909116815260200190565b604051602081830303815290604052612602565b91508160000361141657600080546040805163223df87160e11b81529051611247926001600160a01b03169163447bf0e29160048083019260209291908290030181865afa1580156111ae573d6000803e3d6000fd5b505050506040513d601f19601f820116820180604052508101906111d29190612a28565b6040518060400160405280601a81526020017f6765744e6f64654c4228616464726573732c75696e74323536290000000000008152508460006040516020016112339291906001600160a01b0392909216825260ff16602082015260400190565b60405160208183030381529060405261263d565b80519091501561126b57808060200190518101906112659190612b51565b90985096505b600080546040805163223df87160e11b81529051611324926001600160a01b03169163447bf0e29160048083019260209291908290030181865afa1580156112b7573d6000803e3d6000fd5b505050506040513d601f19601f820116820180604052508101906112db9190612a28565b6040518060400160405280601081526020016f6765744e6f646528616464726573732960801b8152508560405160200161123391906001600160a01b0391909116815260200190565b90508080602001905181019061133a9190612b85565b50919850965050506001600160a01b0386161561140f576000546040805163223df87160e11b8152905161140c926001600160a01b03169163447bf0e29160048083019260209291908290030181865afa15801561139c573d6000803e3d6000fd5b505050506040513d601f19601f820116820180604052508101906113c09190612a28565b60405180604001604052806013815260200172496e7374546f5573657228616464726573732960681b81525085604051602001610b0b91906001600160a01b0391909116815260200190565b95505b505061168e565b6000805460408051635ec08de760e11b815290516114dc926001600160a01b03169163bd811bce9160048083019260209291908290030181865afa158015611462573d6000803e3d6000fd5b505050506040513d601f19601f820116820180604052508101906114869190612a28565b6040518060400160405280601a81526020017f6765744e6f64654c422875696e743235362c75696e743235362900000000000081525085600060405160200161123392919091825260ff16602082015260400190565b80519091501561150057808060200190518101906114fa9190612b51565b90985096505b6000805460408051635ec08de760e11b815290516115ac926001600160a01b03169163bd811bce9160048083019260209291908290030181865afa15801561154c573d6000803e3d6000fd5b505050506040513d601f19601f820116820180604052508101906115709190612a28565b6040518060400160405280601081526020016f6765744e6f64652875696e743235362960801b8152508660405160200161123391815260200190565b9050808060200190518101906115c29190612bdf565b509650945050831561168b5760005460408051635ec08de760e11b81529051611688926001600160a01b03169163bd811bce9160048083019260209291908290030181865afa158015611619573d6000803e3d6000fd5b505050506040513d601f19601f8201168201806040525081019061163d9190612a28565b6040805180820190915260178152766765744e6f64654279496e6465782875696e743235362960481b6020820152611676600188612b15565b604051602001610b0b91815260200190565b95505b50505b60005460408051635335e5f160e11b81529051611759926001600160a01b03169163a66bcbe29160048083019260209291908290030181865afa1580156116d9573d6000803e3d6000fd5b505050506040513d601f19601f820116820180604052508101906116fd9190612a28565b6040516001600160a01b03808816602483015260006044830152881660648201526084810186905260a40160408051601f198184030181529190526020810180516001600160e01b03166322d625e360e11b1790526000612472565b5086156118255760005460408051635335e5f160e11b81529051611823926001600160a01b03169163a66bcbe29160048083019260209291908290030181865afa1580156117ab573d6000803e3d6000fd5b505050506040513d601f19601f820116820180604052508101906117cf9190612a28565b6040516001600160a01b0388166024820152604481018a90526064810189905260840160408051601f198184030181529190526020810180516001600160e01b031663c4cf0e3f60e01b1790526000612472565b505b8761182f81612c1e565b600580546001808201835560069091027f036b6384b5eca791c62761152d0c79bb0604c104a5fb6f4eb0703f3154bb3db0810180546001600160a01b038c166001600160a01b031991821681179092557f036b6384b5eca791c62761152d0c79bb0604c104a5fb6f4eb0703f3154bb3db183018054909116821790557f036b6384b5eca791c62761152d0c79bb0604c104a5fb6f4eb0703f3154bb3db38201805460ff1916841790557f036b6384b5eca791c62761152d0c79bb0604c104a5fb6f4eb0703f3154bb3db5909101805461ffff191690921790915590546000918252600460205260409091205598506119249050565b8861192e81612c1e565b995050610e1b565b5050505050505050505050565b6000806119f860008054906101000a90046001600160a01b03166001600160a01b031663e1f4cd246040518163ffffffff1660e01b8152600401602060405180830381865afa15801561199a573d6000803e3d6000fd5b505050506040513d601f19601f820116820180604052508101906119be9190612a28565b6040518060400160405280600c81526020016b72616e6b666f7244414f282960a01b81525060405180602001604052806000815250612602565b90506000611acb60008054906101000a90046001600160a01b03166001600160a01b031663ab6e844f6040518163ffffffff1660e01b8152600401602060405180830381865afa158015611a50573d6000803e3d6000fd5b505050506040513d601f19601f82011682018060405250810190611a749190612a28565b6040518060400160405280601d81526020017f67657472616e6b636f756e742875696e743235362c75696e7432353629000000815250611ab26121e1565b6040805160208101929092528101869052606001611144565b9050611ad8816003612b3e565b9250505090565b60038181548110611aef57600080fd5b6000918252602090912001546001600160a01b0316905081565b6001600160a01b0381166000908152600460205260408120548103611b3057506000919050565b6001600160a01b038216600090815260046020526040812054600590611b5890600190612b15565b81548110611b6857611b68612b28565b60009182526020909120600690910201600381015490915060ff168015611b935750600581015460ff165b8015611ba957506005810154610100900460ff16155b611bb4576000611bc0565b80546001600160a01b03165b9392505050565b600080546040805163af0deb9560e01b81529051610909926001600160a01b03169163af0deb959160048083019260209291908290030181865afa158015611c13573d6000803e3d6000fd5b505050506040513d601f19601f82011682018060405250810190611c379190612a28565b6040518060400160405280601581526020017469735365637572654261736528616464726573732960581b815250846040516020016108f591906001600160a01b0391909116815260200190565b600060038281548110611c9a57611c9a612b28565b6000918252602090912001546001600160a01b031692915050565b60005460408051634162169f60e01b8152905133926001600160a01b031691634162169f9160048083019260209291908290030181865afa158015611cfe573d6000803e3d6000fd5b505050506040513d601f19601f82011682018060405250810190611d229190612a28565b6001600160a01b031614611d6a5760405162461bcd60e51b815260206004820152600f60248201526e6f776e2e6e6f6e617574682e44414f60881b604482015260640161054a565b60405160009082156108fc0290839083818181858288f19350505050158015611d97573d6000803e3d6000fd5b5050565b600080826001600160a01b0316803b806020016040519081016040528181526000908060200190933c9050602d81511015611e0e5760405162461bcd60e51b81526020600482015260136024820152724e6f742061206d696e696d616c2070726f787960681b604482015260640161054a565b602a015160601c92915050565b6000806005611e2b600185612b15565b81548110611e3b57611e3b612b28565b60009182526020909120600260069092020101549392505050565b600080611ead60008054906101000a90046001600160a01b03166001600160a01b031663e1f4cd246040518163ffffffff1660e01b8152600401602060405180830381865afa15801561199a573d6000803e3d6000fd5b90506000611f7560008054906101000a90046001600160a01b03166001600160a01b031663ab6e844f6040518163ffffffff1660e01b8152600401602060405180830381865afa158015611f05573d6000803e3d6000fd5b505050506040513d601f19601f82011682018060405250810190611f299190612a28565b6040518060400160405280601381526020017255736572546f496e737428616464726573732960681b81525086604051602001610b0b91906001600160a01b0391909116815260200190565b9050600061204760008054906101000a90046001600160a01b03166001600160a01b031663ab6e844f6040518163ffffffff1660e01b8152600401602060405180830381865afa158015611fcd573d6000803e3d6000fd5b505050506040513d601f19601f82011682018060405250810190611ff19190612a28565b6040518060400160405280601981526020017f67657445666665637469766552616e6b286164647265737329000000000000008152508460405160200161114491906001600160a01b0391909116815260200190565b9050600061210b60008054906101000a90046001600160a01b03166001600160a01b031663ab6e844f6040518163ffffffff1660e01b8152600401602060405180830381865afa15801561209f573d6000803e3d6000fd5b505050506040513d601f19601f820116820180604052508101906120c39190612a28565b6040518060400160405280600f81526020016e697353746f7028616464726573732960881b815250856040516020016108f591906001600160a01b0391909116815260200190565b90506001600160a01b038316158015906121255750838210155b8015610bd657501595945050505050565b600080546040805163af0deb9560e01b815290516121dc926001600160a01b03169163af0deb959160048083019260209291908290030181865afa158015612182573d6000803e3d6000fd5b505050506040513d601f19601f820116820180604052508101906121a69190612a28565b60405180604001604052806008815260200167697353616665282960c01b81525060405180602001604052806000815250612580565b905090565b600080546040805163223df87160e11b815290516121dc926001600160a01b03169163447bf0e29160048083019260209291908290030181865afa15801561222d573d6000803e3d6000fd5b505050506040513d601f19601f820116820180604052508101906122519190612a28565b60405180604001604052806005815260200164616765282960d81b81525060405180602001604052806000815250612602565b60005460408051634162169f60e01b8152905133926001600160a01b031691634162169f9160048083019260209291908290030181865afa1580156122cd573d6000803e3d6000fd5b505050506040513d601f19601f820116820180604052508101906122f19190612a28565b6001600160a01b0316146123395760405162461bcd60e51b815260206004820152600f60248201526e6f776e2e6e6f6e617574682e44414f60881b604482015260640161054a565b801561246f576000600561234e600184612b15565b8154811061235e5761235e612b28565b90600052602060002090600602019050600061242a60008054906101000a90046001600160a01b03166001600160a01b0316634162169f6040518163ffffffff1660e01b8152600401602060405180830381865afa1580156123c4573d6000803e3d6000fd5b505050506040513d601f19601f820116820180604052508101906123e89190612a28565b60405180604001604052806012815260200171676574526573756c742875696e743235362960701b815250846004015460405160200161123391815260200190565b90506000818060200190518101906124429190612c37565b6003808901805460ff19908116600485141790915560059099018054909916911015179096555050505050505b50565b60606001600160a01b0384166124bf5760405162461bcd60e51b81526020600482015260126024820152711bdddb8b9a5b9d985b1a590b9d185c99d95d60721b604482015260640161054a565b600080856001600160a01b031684866040516124db9190612c77565b60006040518083038185875af1925050503d8060008114612518576040519150601f19603f3d011682016040523d82523d6000602084013e61251d565b606091505b5091509150816125775780511561253657805181602001fd5b60405162461bcd60e51b81526020600482015260166024820152751bdddb8b9d185c99d95d0b98d85b1b0b99985a5b195960521b604482015260640161054a565b95945050505050565b6000806000612590868686612747565b915091508180156125a2575080516020145b156125be57808060200190518101906125bb9190612c93565b92505b50509392505050565b60008060006125d7868686612747565b915091508180156125e9575080516020145b156125be57808060200190518101906125bb9190612a28565b6000806000612612868686612747565b91509150818015612624575080516020145b156125be57808060200190518101906125bb9190612ae6565b6060836001600160a01b03163b6000036126665750604080516020810190915260008152611bc0565b6040805160048152602481019182905260009182916001600160a01b03881691612691908890612c77565b60405180910390206001600160e01b0319166020820180516001600160e01b038381831617835250505050856040516020016126ce929190612cae565b60408051601f19818403018152908290526126e891612c77565b600060405180830381855afa9150503d8060008114612723576040519150601f19603f3d011682016040523d82523d6000602084013e612728565b606091505b50915091508161257757604051806020016040528060008152506125bb565b60006060846001600160a01b03163b6000036127755750506040805160208101909152600080825290612839565b604080516004815260248101918290526001600160a01b0387169161279b908790612c77565b60405180910390206001600160e01b0319166020820180516001600160e01b038381831617835250505050846040516020016127d8929190612cae565b60408051601f19818403018152908290526127f291612c77565b600060405180830381855afa9150503d806000811461282d576040519150601f19603f3d011682016040523d82523d6000602084013e612832565b606091505b5090925090505b935093915050565b828054828255906000526020600020908101928215612896579160200282015b8281111561289657825182546001600160a01b0319166001600160a01b03909116178255602090920191600190910190612861565b506128a29291506128a6565b5090565b5b808211156128a257600081556001016128a7565b6001600160a01b038116811461246f57600080fd5b80356128db816128bb565b919050565b634e487b7160e01b600052604160045260246000fd5b6000806040838503121561290957600080fd5b8235612914816128bb565b915060208381013567ffffffffffffffff8082111561293257600080fd5b818601915086601f83011261294657600080fd5b813581811115612958576129586128e0565b8060051b604051601f19603f8301168101818110858211171561297d5761297d6128e0565b60405291825284820192508381018501918983111561299b57600080fd5b938501935b828510156129c0576129b1856128d0565b845293850193928501926129a0565b8096505050505050509250929050565b6000602082840312156129e257600080fd5b5035919050565b6000602082840312156129fb57600080fd5b8135611bc0816128bb565b60008060408385031215612a1957600080fd5b50508035926020909101359150565b600060208284031215612a3a57600080fd5b8151611bc0816128bb565b60005b83811015612a60578181015183820152602001612a48565b50506000910152565b60a08152600d60a08201526c2ab9b2b9102a3930b739b332b960991b60c082015260018060a01b038516602082015260ff8416604082015260e06060820152600083518060e0840152610100612ac58282860160208901612a45565b60ff949094166080840152601f01601f191691909101909101949350505050565b600060208284031215612af857600080fd5b5051919050565b634e487b7160e01b600052601160045260246000fd5b8181038181111561090957610909612aff565b634e487b7160e01b600052603260045260246000fd5b8082018082111561090957610909612aff565b60008060408385031215612b6457600080fd5b505080516020909101519092909150565b805180151581146128db57600080fd5b600080600080600060a08688031215612b9d57600080fd5b855194506020860151612baf816128bb565b60408701519094509250612bc560608701612b75565b9150612bd360808701612b75565b90509295509295909350565b60008060008060808587031215612bf557600080fd5b845193506020850151925060408501519150612c1360608601612b75565b905092959194509250565b600060018201612c3057612c30612aff565b5060010190565b600080600080600060a08688031215612c4f57600080fd5b5050835160208501516040860151606087015160809097015192989197509594509092509050565b60008251612c89818460208701612a45565b9190910192915050565b600060208284031215612ca557600080fd5b611bc082612b75565b60008351612cc0818460208801612a45565b835190830190612cd4818360208801612a45565b0194935050505056fea2646970667358221220ca4f9015348fe47839c0eae2d4cc425649fe6ae83b877f231c8dd4b4a2d18d8e64736f6c63430008140033","linkReferences":{}},"methodIdentifiers":{"Burn(uint256)":"b90306ad","UserToForm(address)":"c1e6cec2","_delegatorCount()":"a1f7f539","_getImplementation(address)":"c54e44b0","_isDelegatorNode(address)":"e01ad5fd","_isSafe()":"e0a9bc2b","_isSecureBase(address)":"af484526","_isSigner(address)":"1f185d16","callback(uint256)":"ff585caf","closeTransferTarget(address)":"4ef260a9","forms(uint256)":"18c864e3","getBalance()":"12065fe0","getForm(uint256)":"479fa2c3","getFormsCount()":"cab3cc8d","getImportedNodeByIndex(uint256)":"b8f1759a","getMandatedVoters(uint256,uint256)":"76e8217d","getMandatedVotersCount(uint256)":"cb84b34b","getimportedNodeCount()":"e846034a","importPrimeuser(uint256)":"965a92d8","importedNode(uint256)":"ab7e46ae","isNodeStopped(address)":"51bfd3ae","owner()":"8da5cb5b","resolveTransferTarget(address)":"ac233345","submitTransferForm(address,address[])":"13a52c8c","systemAge()":"fdc10bc9"},"id":23}