{"abi":[{"type":"constructor","inputs":[{"name":"_hex","type":"address","internalType":"address"},{"name":"_price","type":"address","internalType":"address"},{"name":"_old741","type":"address","internalType":"address"}],"stateMutability":"nonpayable"},{"type":"function","name":"dAOAssembly","inputs":[],"outputs":[{"name":"","type":"address","internalType":"address"}],"stateMutability":"view"},{"type":"function","name":"daocore","inputs":[],"outputs":[{"name":"","type":"address","internalType":"address"}],"stateMutability":"view"},{"type":"function","name":"nested741","inputs":[],"outputs":[{"name":"","type":"address","internalType":"address"}],"stateMutability":"view"},{"type":"function","name":"old741","inputs":[],"outputs":[{"name":"","type":"address","internalType":"address"}],"stateMutability":"view"},{"type":"function","name":"price","inputs":[],"outputs":[{"name":"","type":"address","internalType":"address"}],"stateMutability":"view"}],"bytecode":{"object":"0x6080346101b757601f619d5938819003918201601f19168301926001600160401b03929091838511838610176101a15781606092849260409788528339810103126101b75761004d816101bc565b6100648461005d602085016101bc565b93016101bc565b9160018060a01b03199273c0cee8b561cc4f60869776ca5b0b7a295e04f5af84600154161760015585516117fd9586820196828810828911176101a15761032583396001600160a01b039485168088526000979092908190036020019088f080156101835785168660035416176003558751615bb6808201908282108483111761018d5760209183916141a3833985815203019088f08015610183578516866002541617600255875191612681808401928484109084111761016f57918391602093611b228439815203019086f080156101655790838092168560045416176004551683600154161760015516908254161790555161015490816101d18239f35b86513d87823e3d90fd5b634e487b7160e01b89526041600452602489fd5b88513d89823e3d90fd5b634e487b7160e01b8a52604160045260248afd5b634e487b7160e01b600052604160045260246000fd5b600080fd5b51906001600160a01b03821682036101b75756fe608080604052600436101561001357600080fd5b600090813560e01c90816314837455146100f55750806314d8d024146100ce57806345cff900146100a75780635540c5ac146100805763a035b1fe1461005857600080fd5b3461007d578060031936011261007d576001600160a01b036020915416604051908152f35b80fd5b503461007d578060031936011261007d5760206001600160a01b0360015416604051908152f35b503461007d578060031936011261007d5760206001600160a01b0360025416604051908152f35b503461007d578060031936011261007d5760206001600160a01b0360045416604051908152f35b90503461011a578160031936011261011a576020906001600160a01b03600354168152f35b5080fdfea2646970667358221220b52171fad05a5fc5174f59a5daa8726b991ba1f264d9350ee4ddc38932ddfcc664736f6c6343000814003360803461009757601f6117fd38819003918201601f19168301916001600160401b0383118484101761009c5780849260209460405283398101031261009757516001600160a01b038116908190036100975780156100855760018060a01b0319338160015416176001556000541617600055600060125560405161174a90816100b38239f35b60405163e6c4247b60e01b8152600490fd5b600080fd5b634e487b7160e01b600052604160045260246000fdfe60806040526004361015610018575b361561001657005b005b60003560e01c806312065fe0146101185780631f185d161461011357806325924f341461010e578063339459a6146101095780633b9b79551461010457806361b7fbd9146100ff5780638da5cb5b146100fa578063a1f7f539146100f5578063af484526146100f0578063b90306ad146100eb578063c54e44b0146100e6578063c89b84fd146100e1578063dbac26e9146100dc578063e01ad5fd146100d7578063e0a9bc2b146100d25763fdc10bc90361000e57610f09565b610e70565b610df0565b610dad565b610ce8565b610c62565b610b61565b610ae2565b610a6d565b610a46565b61098f565b61095e565b610266565b610235565b61014a565b3461013457600036600319011261013457602047604051908152f35b600080fd5b6001600160a01b0381160361013457565b3461013457602080600319360112610134576101c960043561016b81610139565b6001600160a01b0380600254169060405192168483015283825261018e82610f3a565b6040519061019b82610f3a565b601182527f69735369676e65722861646472657373290000000000000000000000000000008583015261159b565b91908061022b575b156102015781816101eb926101fd94518301019101611504565b60405190151581529081906020820190565b0390f35b60046040517f3204506f000000000000000000000000000000000000000000000000000000008152fd5b50808251146101d1565b3461013457602036600319011261013457602061025c60043561025781610139565b6110c8565b6040519015158152f35b346101345760003660031901126101345761029861028c6000546001600160a01b031690565b6001600160a01b031690565b604051907f97f3815a000000000000000000000000000000000000000000000000000000008252602082600481845afa91821561078e5760009261093d575b50604051917fcfbffe53000000000000000000000000000000000000000000000000000000008352602083600481855afa92831561078e5760009361091c575b50604051907fab6e844f000000000000000000000000000000000000000000000000000000008252602082600481865afa91821561078e576000926108fb575b50604051917f14d8d024000000000000000000000000000000000000000000000000000000008352602083600481875afa92831561078e576000936108da575b50604051927fd1f956b1000000000000000000000000000000000000000000000000000000008452602084600481885afa93841561078e576000946108b9575b50604051937fe61dfd58000000000000000000000000000000000000000000000000000000008552602085600481895afa94851561078e57600095610898575b506040517fe09d394d0000000000000000000000000000000000000000000000000000000081526020816004818a5afa90811561078e57600091610879575b506040517f52b06d640000000000000000000000000000000000000000000000000000000081526020816004818b5afa90811561078e5760009161085a575b506040517f013cf08b00000000000000000000000000000000000000000000000000000000815260006004820152916020836024818c5afa92831561078e57600093610839575b50604051977f5e09dbe70000000000000000000000000000000000000000000000000000000089526020896004818d5afa94851561078e57600499600096610818575b5060208b6040519b8c80927faa0ddc160000000000000000000000000000000000000000000000000000000082525afa96871561078e5760049a6000986107f7575b5060208c6040519c8d80927f640274270000000000000000000000000000000000000000000000000000000082525afa98891561078e5760049b60009a6107d6575b5060208d6040519d8e80927f30125cf50000000000000000000000000000000000000000000000000000000082525afa9a8b1561078e578d60049d60009d6107b4575b506020906040519e8f80927f24768d910000000000000000000000000000000000000000000000000000000082525afa9c8d1561078e5760009d610793575b50604051809e81907f9dc969a80000000000000000000000000000000000000000000000000000000082525a92600491602094fa9d8e1561078e5760009e61075d575b50610671610f94565b6001600160a01b0390911681529d8e906001600160a01b03166020820152604001906106a591906001600160a01b03169052565b6001600160a01b031660608d01526001600160a01b031660808c01526001600160a01b031660a08b01526001600160a01b031660c08a01526001600160a01b031660e08901526001600160a01b03166101008801526001600160a01b03166101208701526001600160a01b03166101408601526001600160a01b03166101608501526001600160a01b03166101808401526001600160a01b03166101a08301526001600160a01b03166101c082015261001690611201565b610780919e5060203d602011610787575b6107788183610f72565b8101906111e0565b9c38610668565b503d61076e565b6111f5565b6107ad919d5060203d602011610787576107788183610f72565b9b38610625565b6020919d506107cf90823d8411610787576107788183610f72565b9c906105e6565b6107f0919a5060203d602011610787576107788183610f72565b98386105a3565b61081191985060203d602011610787576107788183610f72565b9638610561565b61083291965060203d602011610787576107788183610f72565b943861051f565b61085391935060203d602011610787576107788183610f72565b91386104dc565b610873915060203d602011610787576107788183610f72565b38610495565b610892915060203d602011610787576107788183610f72565b38610456565b6108b291955060203d602011610787576107788183610f72565b9338610417565b6108d391945060203d602011610787576107788183610f72565b92386103d7565b6108f491935060203d602011610787576107788183610f72565b9138610397565b61091591925060203d602011610787576107788183610f72565b9038610357565b61093691935060203d602011610787576107788183610f72565b9138610317565b61095791925060203d602011610787576107788183610f72565b90386102d7565b346101345760003660031901126101345760206001600160a01b0360005416604051908152f35b8015150361013457565b34610134576040366003190112610134576004356109ac81610139565b602435906109b982610985565b6001600160a01b039081600554163303610a1c57166000526011602052604060002060ff1981541660ff83151516179055600014610a0a576012546000198114610a0557600101601255005b6111ca565b6012548015610a055760001901601255005b60046040517fea8e4eb5000000000000000000000000000000000000000000000000000000008152fd5b346101345760003660031901126101345760206001600160a01b0360015416604051908152f35b34610134576000366003190112610134576020610ada6001600160a01b0360065416604051610a9b81610f3a565b601381527f67657464656c656761746f72436f756e742829000000000000000000000000008482015260405191610ad183610f56565b600083526116d6565b604051908152f35b3461013457602080600319360112610134576101c9600435610b0381610139565b6001600160a01b03806002541690604051921684830152838252610b2682610f3a565b60405190610b3382610f3a565b601582527f69735365637572654261736528616464726573732900000000000000000000008583015261159b565b34610134576020366003190112610134576004356001600160a01b03600554163303610a1c5760009060046020610ba261028c85546001600160a01b031690565b604051928380927f46f991ac0000000000000000000000000000000000000000000000000000000082525afa801561078e5783808481949382948391610c44575b505af1610bee61156b565b5015610201577fcdcc745fe377b103b45fa0cec23ae3ef93d6fc6a84a01f0d18c40b354dd1d5d8610c3e610c2d61028c600b546001600160a01b031690565b604051938452929081906020820190565b0390a280f35b610c5c915060203d8111610787576107788183610f72565b38610be3565b3461013457602036600319011261013457600435610c7f81610139565b803b6000610c8c82610fb5565b92610c9a6040519485610f72565b82845260208401903c602d815110610cbe57602a602091015160601c604051908152f35b60046040517fbaf3f0f7000000000000000000000000000000000000000000000000000000008152fd5b34610134576000366003190112610134576001600160a01b038060035416610d21610d11610fe4565b91604092835191610ad183610f56565b9160045416610d2e611519565b92825193602085015282840152818352606083019280841067ffffffffffffffff851117610da85783610d99926101fd958552610d6a82610f3a565b601d82527f67657472616e6b436f756e742875696e743235362c75696e743235362900000060808401526116d6565b90519081529081906020820190565b610f24565b34610134576020366003190112610134576001600160a01b03600435610dd281610139565b166000526011602052602060ff604060002054166040519015158152f35b3461013457602036600319011261013457602061025c600435610e1281610139565b6001600160a01b03806006541690604051921684830152838252610e3582610f3a565b60405190610e4282610f3a565b601882527f697364656c656761746f724e6f646528616464726573732900000000000000008583015261169a565b3461013457600036600319011261013457610edc6001600160a01b0360025416604051610e9c81610f3a565b600881527f6973536166652829000000000000000000000000000000000000000000000000602082015260405191610ed383610f56565b6000835261159b565b9080610efe575b15610201576101eb816020806101fd94518301019101611504565b506020815114610ee3565b34610134576000366003190112610134576020610ada611519565b634e487b7160e01b600052604160045260246000fd5b6040810190811067ffffffffffffffff821117610da857604052565b6020810190811067ffffffffffffffff821117610da857604052565b90601f8019910116810190811067ffffffffffffffff821117610da857604052565b604051906101e0820182811067ffffffffffffffff821117610da857604052565b67ffffffffffffffff8111610da857601f01601f191660200190565b60405190610fde82610f56565b60008252565b60405190610ff182610f3a565b600c82527f72616e6b666f7244414f282900000000000000000000000000000000000000006020830152565b6040519061102a82610f3a565b601682527f67657455736572546f53746f72286164647265737329000000000000000000006020830152565b6040519061106382610f3a565b600682527f72616e6b282900000000000000000000000000000000000000000000000000006020830152565b6040519061109c82610f3a565b600882527f69734c6f636b28290000000000000000000000000000000000000000000000006020830152565b6001600160a01b03906110ee82600354166110e1610fe4565b60405191610ad183610f56565b6111366111036004546001600160a01b031690565b604080516001600160a01b038616602080830191909152815291906111289083610f72565b61113061101d565b90611649565b928316156111c25761117261115b61114c611056565b611154610fd1565b90866116d6565b9361116461108f565b61116c610fd1565b9161169a565b92101591826111b9575b5081611186575090565b6111b691506111ab6111b2916001600160a01b03166000526011602052604060002090565b5460ff1690565b1590565b90565b1591503861117c565b505050600090565b634e487b7160e01b600052601160045260246000fd5b9081602091031261013457516111b681610139565b6040513d6000823e3d90fd5b6114e66101c06115029261123b61121f82516001600160a01b031690565b6001600160a01b03166001600160a01b03196002541617600255565b61126e61125260208301516001600160a01b031690565b6001600160a01b03166001600160a01b03196003541617600355565b6112a161128560408301516001600160a01b031690565b6001600160a01b03166001600160a01b03196004541617600455565b6112d46112b860608301516001600160a01b031690565b6001600160a01b03166001600160a01b03196005541617600555565b6113076112eb60808301516001600160a01b031690565b6001600160a01b03166001600160a01b03196006541617600655565b61133a61131e60a08301516001600160a01b031690565b6001600160a01b03166001600160a01b03196007541617600755565b61136d61135160c08301516001600160a01b031690565b6001600160a01b03166001600160a01b03196008541617600855565b6113a061138460e08301516001600160a01b031690565b6001600160a01b03166001600160a01b03196009541617600955565b6113d46113b86101008301516001600160a01b031690565b6001600160a01b03166001600160a01b0319600a541617600a55565b6114086113ec6101208301516001600160a01b031690565b6001600160a01b03166001600160a01b0319600b541617600b55565b61143c6114206101408301516001600160a01b031690565b6001600160a01b03166001600160a01b0319600c541617600c55565b6114706114546101608301516001600160a01b031690565b6001600160a01b03166001600160a01b0319600d541617600d55565b6114a46114886101808301516001600160a01b031690565b6001600160a01b03166001600160a01b0319600e541617600e55565b6114d86114bc6101a08301516001600160a01b031690565b6001600160a01b03166001600160a01b0319600f541617600f55565b01516001600160a01b031690565b6001600160a01b03166001600160a01b03196010541617601055565b565b9081602091031261013457516111b681610985565b6111b66001600160a01b036003541660405161153481610f3a565b600681527f6941676528290000000000000000000000000000000000000000000000000000602082015260405191610ad183610f56565b3d15611596573d9061157c82610fb5565b9161158a6040519384610f72565b82523d6000602084013e565b606090565b9190823b15611630577fffffffff00000000000000000000000000000000000000000000000000000000815160208093012016916040519180830193845281519160005b83811061161c57505050918161160c60248260009795968897018783820152036004810184520182610f72565b51915afa61161861156b565b9091565b8181018301518582016024015282016115df565b50505060009060405161164281610f56565b6000815290565b92916116579160009461159b565b908061168f575b6116655750565b9091506020818051810103126101345760206001600160a01b0391015161168b81610139565b1690565b50602081511461165e565b92916116a89160009461159b565b90806116cb575b6116b65750565b6111b691925060208082518301019101611504565b5060208151146116af565b92916116e49160009461159b565b9080611709575b6116f25750565b909150602081805181010312610134576020015190565b5060208151146116eb56fea264697066735822122063946717c846874aa5bf60633dc76ff60d38ec5798c8bab735b9a408499d80d264736f6c6343000814003360803461009e57601f6200268138819003918201601f19168301916001600160401b038311848410176100a35780849260209460405283398101031261009e57516001600160a01b0381169081900361009e57801561008c5760018060a01b0319338160015416176001556000541617600055603360115560036012556040516125c79081620000ba8239f35b60405163e6c4247b60e01b8152600490fd5b600080fd5b634e487b7160e01b600052604160045260246000fdfe60806040526004361015610018575b361561001657005b005b60003560e01c8063013cf08b1461019857806312065fe0146101935780631f185d161461018e578063339459a6146101895780633b9b7955146101845780634072265b1461017f578063438596321461017a5780635c622a0e1461017557806365153c4b14610170578063709df8d91461016b5780638da5cb5b1461016657806398e527d314610161578063995e43391461015c578063a1f7f53914610157578063af48452614610152578063b90306ad1461014d578063c54e44b014610148578063c7f758a814610143578063c9d27afe1461013e578063d153356b14610139578063e01ad5fd14610134578063e0a9bc2b1461012f578063fdc10bc91461012a5763ffa734f00361000e576115e2565b611599565b61157e565b611557565b6114b6565b61132d565b6112ad565b6111e1565b6110e0565b610ff9565b610fd6565b610f52565b610f34565b610f0d565b610ece565b610d6f565b610d19565b610cb4565b610c77565b610c50565b610558565b610527565b6104fa565b610435565b6013548110156101d857600c906013600052027f66de8ffda797e3de9c05e8fc57b3bf0ec28a930d40b0d285d93c06501cf6a0900190600090565b634e487b7160e01b600052603260045260246000fd5b90600182811c9216801561021e575b602083101461020857565b634e487b7160e01b600052602260045260246000fd5b91607f16916101fd565b9060009291805491610239836101ee565b91828252600193848116908160001461029b575060011461025b575b50505050565b90919394506000526020928360002092846000945b838610610287575050505001019038808080610255565b805485870183015294019385908201610270565b9294505050602093945060ff191683830152151560051b01019038808080610255565b634e487b7160e01b600052604160045260246000fd5b6040810190811067ffffffffffffffff8211176102f057604052565b6102be565b6020810190811067ffffffffffffffff8211176102f057604052565b90601f8019910116810190811067ffffffffffffffff8211176102f057604052565b9061034e6103479260405193848092610228565b0383610311565b565b60005b8381106103635750506000910152565b8181015183820152602001610353565b9060209161038c81518092818552858086019101610350565b601f01601f1916010190565b9b9997959392909e9d9c9a9896949e8c6101c08091528d016103b991610373565b916001600160a01b031660208d015260408c01528a810360608c01526103de91610373565b9b60808a015260a089015260c088015260e087015261010086015261012085016104089115159052565b15156101408401526001600160a01b031661016083015215156101808201526101a00161034e9115159052565b346104f55760203660031901126104f5576004356013548110156104f55761045c9061019d565b506040519061046f826103478184610228565b6104f161048660018301546001600160a01b031690565b60028301549061049860038501610333565b946004850154946005810154966006820154916007810154600a6008830154920154936040519a8b9a8b9560ff8860b81c169a60ff8960b01c169a6001600160a01b038a60101c169a60ff808c60081c169b1699610398565b0390f35b600080fd5b346104f55760003660031901126104f557602047604051908152f35b6001600160a01b038116036104f557565b346104f55760203660031901126104f557602061054e60043561054981610516565b6121c5565b6040519015158152f35b346104f55760003660031901126104f55761058a61057e6000546001600160a01b031690565b6001600160a01b031690565b604051907f97f3815a000000000000000000000000000000000000000000000000000000008252602082600481845afa918215610a8057600092610c2f575b50604051917fcfbffe53000000000000000000000000000000000000000000000000000000008352602083600481855afa928315610a8057600093610c0e575b50604051907fab6e844f000000000000000000000000000000000000000000000000000000008252602082600481865afa918215610a8057600092610bed575b50604051917f14d8d024000000000000000000000000000000000000000000000000000000008352602083600481875afa928315610a8057600093610bcc575b50604051927fd1f956b1000000000000000000000000000000000000000000000000000000008452602084600481885afa938415610a8057600094610bab575b50604051937fe61dfd58000000000000000000000000000000000000000000000000000000008552602085600481895afa948515610a8057600095610b8a575b506040517fe09d394d0000000000000000000000000000000000000000000000000000000081526020816004818a5afa908115610a8057600091610b6b575b506040517f52b06d640000000000000000000000000000000000000000000000000000000081526020816004818b5afa908115610a8057600091610b4c575b506040517f013cf08b00000000000000000000000000000000000000000000000000000000815260006004820152916020836024818c5afa928315610a8057600093610b2b575b50604051977f5e09dbe70000000000000000000000000000000000000000000000000000000089526020896004818d5afa948515610a8057600499600096610b0a575b5060208b6040519b8c80927faa0ddc160000000000000000000000000000000000000000000000000000000082525afa968715610a805760049a600098610ae9575b5060208c6040519c8d80927f640274270000000000000000000000000000000000000000000000000000000082525afa988915610a805760049b60009a610ac8575b5060208d6040519d8e80927f30125cf50000000000000000000000000000000000000000000000000000000082525afa9a8b15610a80578d60049d60009d610aa6575b506020906040519e8f80927f24768d910000000000000000000000000000000000000000000000000000000082525afa9c8d15610a805760009d610a85575b50604051809e81907f9dc969a80000000000000000000000000000000000000000000000000000000082525a92600491602094fa9d8e15610a805760009e610a4f575b50610963611ded565b6001600160a01b0390911681529d8e906001600160a01b031660208201526040019061099791906001600160a01b03169052565b6001600160a01b031660608d01526001600160a01b031660808c01526001600160a01b031660a08b01526001600160a01b031660c08a01526001600160a01b031660e08901526001600160a01b03166101008801526001600160a01b03166101208701526001600160a01b03166101408601526001600160a01b03166101608501526001600160a01b03166101808401526001600160a01b03166101a08301526001600160a01b03166101c082015261001690611e0e565b610a72919e5060203d602011610a79575b610a6a8183610311565b810190611dc9565b9c3861095a565b503d610a60565b611de1565b610a9f919d5060203d602011610a7957610a6a8183610311565b9b38610917565b6020919d50610ac190823d8411610a7957610a6a8183610311565b9c906108d8565b610ae2919a5060203d602011610a7957610a6a8183610311565b9838610895565b610b0391985060203d602011610a7957610a6a8183610311565b9638610853565b610b2491965060203d602011610a7957610a6a8183610311565b9438610811565b610b4591935060203d602011610a7957610a6a8183610311565b91386107ce565b610b65915060203d602011610a7957610a6a8183610311565b38610787565b610b84915060203d602011610a7957610a6a8183610311565b38610748565b610ba491955060203d602011610a7957610a6a8183610311565b9338610709565b610bc591945060203d602011610a7957610a6a8183610311565b92386106c9565b610be691935060203d602011610a7957610a6a8183610311565b9138610689565b610c0791925060203d602011610a7957610a6a8183610311565b9038610649565b610c2891935060203d602011610a7957610a6a8183610311565b9138610609565b610c4991925060203d602011610a7957610a6a8183610311565b90386105c9565b346104f55760003660031901126104f55760206001600160a01b0360005416604051908152f35b346104f55760203660031901126104f5576004356000198101908111610caf576005610ca460209261019d565b500154604051908152f35b61197d565b346104f55760403660031901126104f557600435602435610cd481610516565b6000198201918211610caf57610d0d60ff916009610cf360209561019d565b5001906001600160a01b0316600052602052604060002090565b54166040519015158152f35b346104f55760203660031901126104f5576004356000198101908111610caf57600a610d4660409261019d565b50015460ff825191818160b01c161515835260b81c1615156020820152f35b801515036104f557565b346104f55760403660031901126104f557600435602435610d8f81610d65565b610d98336121c5565b15610ea4576005610db0610dab84611a0c565b61019d565b50610e74610e67600b8301610df1610dec610de8610de13385906001600160a01b0316600052602052604060002090565b5460ff1690565b1590565b611b47565b610e4f600a850154610e0960ff8260b81c1615611ab1565b610e1860ff8260081c16611a1b565b610e2460ff8216611b92565b610e3b610e2f61224f565b60078801541115611bdd565b60101c6001600160a01b0316331415611c28565b336001600160a01b0316600052602052604060002090565b805460ff19166001179055565b01610e7f8154611c73565b809155601254148015610e9c575b610e9357005b61001691611d45565b508015610e8d565b60046040517fea8e4eb5000000000000000000000000000000000000000000000000000000008152fd5b346104f55760403660031901126104f557600435602435610eee81610516565b6000198201918211610caf57610d0d60ff91600b610cf360209561019d565b346104f55760003660031901126104f55760206001600160a01b0360015416604051908152f35b346104f55760003660031901126104f5576020601354604051908152f35b346104f55760203660031901126104f5576004356000198101908111610caf57610f7b9061019d565b506004810154600682015460078301546008840154600a9094015460408051948552602085019390935291830152606082019290925260ff60b083901c81161515608083015260b89290921c909116151560a082015260c090f35b346104f55760003660031901126104f5576020610ff161233e565b604051908152f35b346104f5576020806003193601126104f55761107860043561101a81610516565b6001600160a01b0380600254169060405192168483015283825261103d826102d4565b6040519061104a826102d4565b601582527f6973536563757265426173652861646472657373290000000000000000000000858301526123c0565b9190806110d6575b156110ac57818161109a926104f19451830101910161212b565b60405190151581529081906020820190565b60046040517f3204506f000000000000000000000000000000000000000000000000000000008152fd5b5080825114611080565b346104f55760203660031901126104f5576004356001600160a01b03600554163303610ea4576000906004602061112161057e85546001600160a01b031690565b604051928380927f46f991ac0000000000000000000000000000000000000000000000000000000082525afa8015610a8057838084819493829483916111c3575b505af161116d612390565b50156110ac577fcdcc745fe377b103b45fa0cec23ae3ef93d6fc6a84a01f0d18c40b354dd1d5d86111bd6111ac61057e600b546001600160a01b031690565b604051938452929081906020820190565b0390a280f35b6111db915060203d8111610a7957610a6a8183610311565b38611162565b346104f55760203660031901126104f5576004356111fe81610516565b803b600061120b8261210f565b926112196040519485610311565b82845260208401903c602d81511061123d57602a602091015160601c604051908152f35b60046040517fbaf3f0f7000000000000000000000000000000000000000000000000000000008152fd5b9491909361128360a0959897949860c0885260c0880190610373565b976001600160a01b0380931660208801526040870152166060850152151560808401521515910152565b346104f55760203660031901126104f5576004356000198101908111610caf576112d69061019d565b506001600160a01b036104f1816001840154169160028401549361130861130f600a8301549260405192838092610228565b0382610311565b60405195869560ff84169460ff8560081c169460101c169287611267565b346104f55760403660031901126104f55760043560243561134d81610d65565b611356336121c5565b8015611493575b611366906119c1565b611372610dab83611a0c565b50600a8101906113ae60ff835461138d828260081c16611a1b565b6113a4600785015461139d61224f565b1115611a66565b60b81c1615611ab1565b600860098201936113e06113db610de8610de13389906001600160a01b0316600052602052604060002090565b611afc565b6000811561148d57506001905b6113ff60ff60048601931683546119b4565b8255600090611480575061143f610e676001965b61142560ff60068801991689546119b4565b8855336001600160a01b0316600052602052604060002090565b5491015480911092831593611474575b505081611467575b5061145e57005b61001690611c82565b5460ff1615905038611457565b5410159150388061144f565b610e6761143f9196611413565b906113ed565b5061149c612140565b801561135d57506113666114af336122aa565b905061135d565b346104f55760403660031901126104f5576114cf612140565b1561152d573330036114e957600435601155602435601255005b606460405162461bcd60e51b815260206004820152600d60248201527f64616f2e66616b652e636f7265000000000000000000000000000000000000006044820152fd5b60046040517f9dc4246e000000000000000000000000000000000000000000000000000000008152fd5b346104f55760203660031901126104f557602061054e60043561157981610516565b6122aa565b346104f55760003660031901126104f557602061054e612140565b346104f55760003660031901126104f5576020610ff161224f565b9181601f840112156104f55782359167ffffffffffffffff83116104f557602083818601950101116104f557565b346104f55760c03660031901126104f55767ffffffffffffffff6004358181116104f5576116149036906004016115b4565b909160243561162281610516565b6064358281116104f55761163a9036906004016115b4565b9160a4359461164886610d65565b6001600160a01b038216156118375760135490680100000000000000008210156102f05761167d60019283810160135561019d565b509581116102f0576116998161169388546101ee565b88611861565b6000601f82116001146117bd57926117049492826116f393600a9998966117a49c6000926117b2575b5050600019600383901b1c191690821b1787555b8601906001600160a01b03166001600160a01b0319825416179055565b6044356002850155600384016118b5565b61172a61172361171e61171561233e565b60115490611993565b6119a6565b6064900490565b600882015561174260843561173d61224f565b6119b4565b60078201550180543360101b75ffffffffffffffffffffffffffffffffffffffff0000167fffffffffffffffffffff000000000000000000000000000000000000000000ff909116176101001760ff191660ff92151592909216919091179055565b601354604051908152602090f35b0135905038806116c2565b601f198216906117d288600052602060002090565b91815b81811061182157509383600a999896936117a49c83946116f3976117049b9910611807575b505050811b0187556116d6565b0135600019600384901b60f8161c191690553880806117fa565b8b830135845592850192602092830192016117d5565b60046040517fe6c4247b000000000000000000000000000000000000000000000000000000008152fd5b90601f811161186f57505050565b600091825260208220906020601f850160051c830194106118ab575b601f0160051c01915b8281106118a057505050565b818155600101611894565b909250829061188b565b90929167ffffffffffffffff81116102f0576118db816118d584546101ee565b84611861565b6000601f8211600114611915578192939460009261190a575b50508160011b916000199060031b1c1916179055565b0135905038806118f4565b601f1982169461192a84600052602060002090565b91805b87811061196557508360019596971061194b575b505050811b019055565b0135600019600384901b60f8161c19169055388080611941565b9092602060018192868601358155019401910161192d565b634e487b7160e01b600052601160045260246000fd5b81810292918115918404141715610caf57565b9060638201809211610caf57565b91908201809211610caf57565b156119c857565b606460405162461bcd60e51b815260206004820152601660248201527f64616f2e6e6f6e617574682e64656c656761746f7273000000000000000000006044820152fd5b600019810191908211610caf57565b15611a2257565b606460405162461bcd60e51b815260206004820152601160248201527f64616f2e70726f702e6e6f7465786973740000000000000000000000000000006044820152fd5b15611a6d57565b606460405162461bcd60e51b815260206004820152601060248201527f64616f2e766f74696e672e656e646564000000000000000000000000000000006044820152fd5b15611ab857565b606460405162461bcd60e51b815260206004820152601560248201527f64616f2e616c72656164792e636f6d706c6574656400000000000000000000006044820152fd5b15611b0357565b606460405162461bcd60e51b815260206004820152601160248201527f64616f2e616c72656164792e766f7465640000000000000000000000000000006044820152fd5b15611b4e57565b606460405162461bcd60e51b815260206004820152601260248201527f64616f2e616c72656164792e7369676e656400000000000000000000000000006044820152fd5b15611b9957565b606460405162461bcd60e51b815260206004820152601360248201527f64616f2e70726f702e6d7573747369676e6564000000000000000000000000006044820152fd5b15611be457565b606460405162461bcd60e51b815260206004820152601360248201527f64616f2e6265666f72652e646561646c696e65000000000000000000000000006044820152fd5b15611c2f57565b606460405162461bcd60e51b815260206004820152601260248201527f64616f2e766f7465722e726573747269637400000000000000000000000000006044820152fd5b6000198114610caf5760010190565b610dab611c8e91611a0c565b5060ff600a8201611cac81600160b81b60ff60b81b19825416179055565b611cde600484015460088501548110159081611d37575b50825460ff60b01b191690151560b01b60ff60b01b16178255565b5460b01c1680611d22575b611cf05750565b80611d086001611d1f9301546001600160a01b031690565b611d19600360028401549301610333565b906124db565b50565b50611d3060038201546101ee565b1515611ce9565b905060068501541038611cc3565b611d54610dab611d9a92611a0c565b50600a8101805460ff60b81b1916600160b81b178155909280611db7575b80611da6575b815460ff60b01b191690151560b01b60ff60b01b161781555460b01c60ff1690565b80611d2257611cf05750565b506004830154600684015410611d78565b50600483015460088401541115611d72565b908160209103126104f55751611dde81610516565b90565b6040513d6000823e3d90fd5b604051906101e0820182811067ffffffffffffffff8211176102f057604052565b6120f36101c061034e92611e48611e2c82516001600160a01b031690565b6001600160a01b03166001600160a01b03196002541617600255565b611e7b611e5f60208301516001600160a01b031690565b6001600160a01b03166001600160a01b03196003541617600355565b611eae611e9260408301516001600160a01b031690565b6001600160a01b03166001600160a01b03196004541617600455565b611ee1611ec560608301516001600160a01b031690565b6001600160a01b03166001600160a01b03196005541617600555565b611f14611ef860808301516001600160a01b031690565b6001600160a01b03166001600160a01b03196006541617600655565b611f47611f2b60a08301516001600160a01b031690565b6001600160a01b03166001600160a01b03196007541617600755565b611f7a611f5e60c08301516001600160a01b031690565b6001600160a01b03166001600160a01b03196008541617600855565b611fad611f9160e08301516001600160a01b031690565b6001600160a01b03166001600160a01b03196009541617600955565b611fe1611fc56101008301516001600160a01b031690565b6001600160a01b03166001600160a01b0319600a541617600a55565b612015611ff96101208301516001600160a01b031690565b6001600160a01b03166001600160a01b0319600b541617600b55565b61204961202d6101408301516001600160a01b031690565b6001600160a01b03166001600160a01b0319600c541617600c55565b61207d6120616101608301516001600160a01b031690565b6001600160a01b03166001600160a01b0319600d541617600d55565b6120b16120956101808301516001600160a01b031690565b6001600160a01b03166001600160a01b0319600e541617600e55565b6120e56120c96101a08301516001600160a01b031690565b6001600160a01b03166001600160a01b0319600f541617600f55565b01516001600160a01b031690565b6001600160a01b03166001600160a01b03196010541617601055565b67ffffffffffffffff81116102f057601f01601f191660200190565b908160209103126104f55751611dde81610d65565b61219b6001600160a01b036002541660405161215b816102d4565b600881527f6973536166652829000000000000000000000000000000000000000000000000602082015260405191612192836102f5565b600083526123c0565b90806121ba575b156110ac5780602080611dde9351830101910161212b565b5060208151146121a2565b6122286001600160a01b0380600254166040519160209416848301528382526121ed826102d4565b604051906121fa826102d4565b601182527f69735369676e6572286164647265737329000000000000000000000000000000858301526123c0565b9080612245575b156110ac5781611dde928251830101910161212b565b508181511461222f565b611dde6001600160a01b036003541660405161226a816102d4565b600681527f69416765282900000000000000000000000000000000000000000000000000006020820152604051916122a1836102f5565b60008352612453565b6001600160a01b03906123118260065416926040519060209316838201528281526122d4816102d4565b6040516122e0816102d4565b601881527f697364656c656761746f724e6f64652861646472657373290000000000000000848201526000946123c0565b919080612334575b61232257505090565b611dde9250808251830101910161212b565b5080825114612319565b611dde6001600160a01b0360065416604051612359816102d4565b601381527f67657464656c656761746f72436f756e742829000000000000000000000000006020820152604051916122a1836102f5565b3d156123bb573d906123a18261210f565b916123af6040519384610311565b82523d6000602084013e565b606090565b803b1561243a576000927fffffffff00000000000000000000000000000000000000000000000000000000836020869551910120169061242a602460405180936020820195865261241a8151809260208686019101610350565b8101036004810184520182610311565b51915afa612436612390565b9091565b50505060009060405161244c816102f5565b6000815290565b9291612461916000946123c0565b9080612486575b61246f5750565b9091506020818051810103126104f5576020015190565b506020815114612468565b90602082519201517fffffffff000000000000000000000000000000000000000000000000000000009081811693600481106124cc57505050565b60040360031b82901b16169150565b9190916001600160a01b0381161561183757600091829184519160208601915af190612505612390565b911561250f575090565b80516000919060041161258b576125269150612491565b8151156125365750805190602001fd5b6040517f21c09d340000000000000000000000000000000000000000000000000000000081527fffffffff00000000000000000000000000000000000000000000000000000000919091166004820152602490fd5b5061252656fea2646970667358221220e27301ebb6f3cbca52c08da2948d5fdea66a3f56fa568f46d1ea29911c1a13f264736f6c634300081400336080346200009e57601f62005bb638819003918201601f19168301916001600160401b03831184841017620000a3578084926020946040528339810103126200009e57516001600160a01b038116908190036200009e5780156200008c5760018060a01b03193381600154161760015560005416176000556001601155604051615afc9081620000ba8239f35b60405163e6c4247b60e01b8152600490fd5b600080fd5b634e487b7160e01b600052604160045260246000fdfe60806040526004361015610018575b361561001657005b005b60003560e01c8063033eeffb146103785780630e5fd00b1461037357806312065fe01461036e5780631bb49f02146103695780631c53c280146103645780631f185d161461035f5780632a687c871461035a5780632fefc0bf14610355578063307673e81461035057806332ff4eab1461034b578063339459a61461034657806333b59a5b146103415780633a7b55b81461033c5780633b9b7955146103375780633baee0ea14610332578063419cb27b1461032d57806342cc9d5714610328578063445850971461032357806344668f231461031e5780634f0f4aa914610319578063509222cd1461031457806350db85d11461030f57806361ea72081461030a578063629d671e1461030557806365d2fbd3146103005780636a811244146102fb5780636fb412ab146102f657806376fe6c45146102f15780637818cdd7146102ec5780637bb98498146102e757806380f85e33146102e2578063849c22ad146102dd578063896c354a146102d85780638da5cb5b146102d357806395f72f49146102ce57806398b3f215146102c9578063a1f7f539146102c4578063a89d693b146102bf578063af484526146102ba578063b1c49079146102b5578063b366335e146102b0578063b90306ad146102ab578063c43792e3146102a6578063c54e44b0146102a1578063c871372b1461029c578063d1e0bbc614610297578063dcb3fc4a14610292578063e01ad5fd1461028d578063e0a9bc2b14610288578063eb95c66214610283578063eb9e9e2c1461027e578063f3ca712414610279578063fd38093b146102745763fdc10bc90361000e576134f4565b613484565b613458565b613272565b613246565b61322b565b613160565b612fe1565b612fa7565b612f29565b612ea3565b612e77565b612d76565b612d00565b612b84565b612b53565b612a34565b612990565b612964565b6128ee565b6128c7565b612887565b612858565b61281e565b612711565b6126b8565b61259a565b6123f7565b611fcc565b611b43565b611b05565b611ae7565b611a4e565b6119fa565b61190d565b6118ef565b6118b7565b611888565b611854565b611223565b6111d4565b611068565b610e89565b610791565b61071b565b61067c565b610644565b6105a7565b6104c0565b61048b565b610426565b61040a565b6103ba565b346103a45760203660031901126103a45760043560005260196020526020604060002054604051908152f35b600080fd5b6001600160a01b038116036103a457565b346103a45760203660031901126103a45760206004356103d9816103a9565b6001600160a01b03809116600052601282526040600020546000526015825260046040600020015416604051908152f35b346103a45760003660031901126103a457602047604051908152f35b346103a45760203660031901126103a457600435610443816103a9565b6001600160a01b0390811660009081526012602090815260408083205483526015825280832060020154808452601383529281902054815193845290931690820152f35b0390f35b346103a45760203660031901126103a457600435600052601360205260206001600160a01b0360406000205416604051908152f35b346103a4576020806003193601126103a45761053f6004356104e1816103a9565b6001600160a01b0380600254169060405192168483015283825261050482612621565b6040519061051182612621565b601182527f69735369676e65722861646472657373290000000000000000000000000000008583015261587f565b91908061059d575b1561057357818161056192610487945183010191016156af565b60405190151581529081906020820190565b60046040517f3204506f000000000000000000000000000000000000000000000000000000008152fd5b5080825114610547565b346103a45760403660031901126103a4576024356105c36156c3565b15610633576105d133615748565b801561061f575b1561060e57600090808252601a6020526040822054906004358201809211610609578252601a602052604082205580f35b61374f565b600460405163ea8e4eb560e01b8152fd5b50336001600160a01b0360055416146105d8565b6004604051634ee2123760e11b8152fd5b346103a45760203660031901126103a457600435600052601560205260206001600160a01b0360056040600020015416604051908152f35b346103a45760203660031901126103a457600435610698613780565b61071361070160009280845260156020526106bc60ff6001604087200154166140a4565b33845260126020526106d3604085205482146140a4565b808452601e6020526106f160ff600260408720015460081c1661438b565b600052601e602052604060002090565b60026000918281558260018201550155565b600160115580f35b346103a45760403660031901126103a4576024356107376156c3565b156106335761074533615748565b801561077d575b1561060e57600090808252601d6020526040822054906004358201809211610609578252601d602052604082205580f35b50336001600160a01b03600554161461074c565b346103a45760003660031901126103a4576107c36107b76000546001600160a01b031690565b6001600160a01b031690565b604051907f97f3815a000000000000000000000000000000000000000000000000000000008252602082600481845afa918215610cb957600092610e68575b50604051917fcfbffe53000000000000000000000000000000000000000000000000000000008352602083600481855afa928315610cb957600093610e47575b50604051907fab6e844f000000000000000000000000000000000000000000000000000000008252602082600481865afa918215610cb957600092610e26575b50604051917f14d8d024000000000000000000000000000000000000000000000000000000008352602083600481875afa928315610cb957600093610e05575b50604051927fd1f956b1000000000000000000000000000000000000000000000000000000008452602084600481885afa938415610cb957600094610de4575b50604051937fe61dfd58000000000000000000000000000000000000000000000000000000008552602085600481895afa948515610cb957600095610dc3575b506040517fe09d394d0000000000000000000000000000000000000000000000000000000081526020816004818a5afa908115610cb957600091610da4575b506040517f52b06d640000000000000000000000000000000000000000000000000000000081526020816004818b5afa908115610cb957600091610d85575b506040517f013cf08b00000000000000000000000000000000000000000000000000000000815260006004820152916020836024818c5afa928315610cb957600093610d64575b50604051977f5e09dbe70000000000000000000000000000000000000000000000000000000089526020896004818d5afa948515610cb957600499600096610d43575b5060208b6040519b8c80927faa0ddc160000000000000000000000000000000000000000000000000000000082525afa968715610cb95760049a600098610d22575b5060208c6040519c8d80927f640274270000000000000000000000000000000000000000000000000000000082525afa988915610cb95760049b60009a610d01575b5060208d6040519d8e80927f30125cf50000000000000000000000000000000000000000000000000000000082525afa9a8b15610cb9578d60049d60009d610cdf575b506020906040519e8f80927f24768d910000000000000000000000000000000000000000000000000000000082525afa9c8d15610cb95760009d610cbe575b50604051809e81907f9dc969a80000000000000000000000000000000000000000000000000000000082525a92600491602094fa9d8e15610cb95760009e610c88575b50610b9c612697565b6001600160a01b0390911681529d8e906001600160a01b0316602082015260400190610bd091906001600160a01b03169052565b6001600160a01b031660608d01526001600160a01b031660808c01526001600160a01b031660a08b01526001600160a01b031660c08a01526001600160a01b031660e08901526001600160a01b03166101008801526001600160a01b03166101208701526001600160a01b03166101408601526001600160a01b03166101608501526001600160a01b03166101808401526001600160a01b03166101a08301526001600160a01b03166101c0820152610016906153ae565b610cab919e5060203d602011610cb2575b610ca38183612675565b81019061404a565b9c38610b93565b503d610c99565b61405f565b610cd8919d5060203d602011610cb257610ca38183612675565b9b38610b50565b6020919d50610cfa90823d8411610cb257610ca38183612675565b9c90610b11565b610d1b919a5060203d602011610cb257610ca38183612675565b9838610ace565b610d3c91985060203d602011610cb257610ca38183612675565b9638610a8c565b610d5d91965060203d602011610cb257610ca38183612675565b9438610a4a565b610d7e91935060203d602011610cb257610ca38183612675565b9138610a07565b610d9e915060203d602011610cb257610ca38183612675565b386109c0565b610dbd915060203d602011610cb257610ca38183612675565b38610981565b610ddd91955060203d602011610cb257610ca38183612675565b9338610942565b610dfe91945060203d602011610cb257610ca38183612675565b9238610902565b610e1f91935060203d602011610cb257610ca38183612675565b91386108c2565b610e4091925060203d602011610cb257610ca38183612675565b9038610882565b610e6191935060203d602011610cb257610ca38183612675565b9138610842565b610e8291925060203d602011610cb257610ca38183612675565b9038610802565b346103a4576040806003193601126103a457602435610ea66156c3565b1561102a57610eb433615748565b8015611016575b1561100657600091610ed76107b784546001600160a01b031690565b8151809163111ea8c160e21b825281600460209384935afa918215610cb9578592610fe7575b506004355b84811115610f0e578580f35b8351828101828152819003808252601f1991610f3f91610f319060200182612675565b610f3961533c565b86615963565b610f5e610f5684600052601a602052604060002090565b918254613773565b9055865b60088110610f7a575050610f7590613a2f565b610f02565b855184810184815260208101839052610fe29291610fb591610fa790829060400103868101835282612675565b610faf615375565b88615963565b610fdc82610fcd876000526016602052604060002090565b90600052602052604060002090565b55613a2f565b610f62565b81610fff9293503d8411610cb257610ca38183612675565b9038610efd565b6004825163ea8e4eb560e01b8152fd5b50336001600160a01b036005541614610ebb565b60048251634ee2123760e11b8152fd5b60e0810192916000915b6007831061105157505050565b600190825181526020809101920192019190611044565b346103a45760203660031901126103a4576104876004356111c26111b2604051926110928461263d565b60e03685376110be6110ae826000526017602052604060002090565b6001600052602052604060002090565b5484526110e86110d8826000526017602052604060002090565b6002600052602052604060002090565b546020850152611115611105826000526017602052604060002090565b6003600052602052604060002090565b546040850152611142611132826000526017602052604060002090565b6004600052602052604060002090565b54606085015261116f61115f826000526017602052604060002090565b6005600052602052604060002090565b54608085015261119c61118c826000526017602052604060002090565b6006600052602052604060002090565b5460a08501526000526017602052604060002090565b6007600052602052604060002090565b5460c08201526040519182918261103a565b346103a45760003660031901126103a45760206001600160a01b0360005416604051908152f35b60409060031901126103a457600435611213816103a9565b90602435611220816103a9565b90565b346103a457611285611234366111fb565b919061123e613780565b61125761124961353e565b611251613556565b33615912565b906112a561126e61126661353e565b61125161358f565b6001600160a01b03868116959094851686146135c8565b8361129d6107b782600054166001600160a01b031690565b911614613613565b6112b0831515613f69565b6112cd846001600160a01b03166000526012602052604060002090565b54158015611849575b6112df90613fb4565b6113076112ff826001600160a01b03166000526012602052604060002090565b541515613fff565b61134b600561133d61132c846001600160a01b03166000526012602052604060002090565b546000526015602052604060002090565b01546001600160a01b031690565b9060409081516020957f880cdc3100000000000000000000000000000000000000000000000000000000878301526113b56024928061139c8b8683019190916001600160a01b036020820193169052565b03966113b0601f1998898101845283612675565b6159e9565b506113de6107b7600461133d61132c876001600160a01b03166000526012602052604060002090565b156116e0576104879561145661140f600461133d61132c886001600160a01b03166000526012602052604060002090565b86517f0399c93c000000000000000000000000000000000000000000000000000000008b820152338682019081529091906113b09083906020015b038a8101845283612675565b505b611475846001600160a01b03166000526012602052604060002090565b546114938a6001600160a01b03166000526012602052604060002090565b556114e4896114c96114b8876001600160a01b03166000526012602052604060002090565b546000526013602052604060002090565b906001600160a01b03166001600160a01b0319825416179055565b61152633600461150a61132c8d6001600160a01b03166000526012602052604060002090565b01906001600160a01b03166001600160a01b0319825416179055565b8316141593846116bb575b61154e886001600160a01b03166000526012602052604060002090565b5496611569600561133d8a6000526015602052604060002090565b986115a561159860026115868c6000526015602052604060002090565b01546000526013602052604060002090565b546001600160a01b031690565b961561165457916113b0916116167fe3d1d5bf000000000000000000000000000000000000000000000000000000009594611622976115ec6009546001600160a01b031690565b968a5198899586015284019060209093929360408301946001600160a01b03809216845216910152565b03908101845283612675565b505b61162e6001601155565b519283526001600160a01b03938416602084015290921660408201529081906060820190565b507f9498d88b0000000000000000000000000000000000000000000000000000000092916113b0916116166116b5966116956009546001600160a01b031690565b95895197889485015283019190916001600160a01b036020820193169052565b50611624565b60006116da846001600160a01b03166000526012602052604060002090565b55611531565b600495876116f96107b76000546001600160a01b031690565b86519889809263111ea8c160e21b82525afa8015610cb95784611752916104879960009161182c575b5087516001600160a01b03909216828c0190815261174490839060200161144a565b61174c61406b565b90615912565b818116151580611822575b8061181a575b61176e575b50611458565b85517f4fb2e45d000000000000000000000000000000000000000000000000000000008a8201523385820190815261181392916117c0916117ba908290602001038b8101835282612675565b826159e9565b508651907fa3e884b0000000000000000000000000000000000000000000000000000000008b8301526113b08261144a888201906007606060808401936000815260006020820152600060408201520152565b5038611768565b506000611763565b508031151561175d565b61184391508b3d8d11610cb257610ca38183612675565b38611722565b5080821683146112d6565b346103a45760203660031901126103a4576004356000526015602052602060ff600160406000200154166040519015158152f35b346103a45760203660031901126103a45760043560005260156020526020600360406000200154604051908152f35b346103a45760203660031901126103a457600435600052601560205260206001600160a01b0360046040600020015416604051908152f35b346103a45760003660031901126103a4576020601f54604051908152f35b346103a45760203660031901126103a45760043580600052601560205260406000205460136020526104876001600160a01b0380604060002054169360156020526040600020916004600284015493015416611978600561133d846000526015602052604060002090565b9060036119b061199f6001611997876000526015602052604060002090565b015460ff1690565b946000526015602052604060002090565b01549360405197889788939160c09591989796939260e086019986526001600160a01b03938480931660208801526040870152166060850152166080830152151560a08201520152565b346103a45760203660031901126103a4576001600160a01b03600435611a1f816103a9565b1660005260126020526040600020546000526015602052602060ff600160406000200154166040519015158152f35b346103a457611a5c366111fb565b611a646156c3565b1561063357611a7233615748565b8015611ad3575b1561060e57611a8f91611a8a613780565b613a3e565b8060005260156020526001600160a01b036005604060002001541690611ab481613f08565b6001601155604080519182526001600160a01b03929092166020820152f35b50336001600160a01b036005541614611a79565b346103a45760003660031901126103a4576020601454604051908152f35b346103a45760203660031901126103a4576001600160a01b03600435611b2a816103a9565b1660005260126020526020604060002054604051908152f35b346103a45760203660031901126103a457600435611b5f613780565b6001611b81611b7c82611997856000526015602052604060002090565b613ebd565b611ba9611ba1336001600160a01b03166000526012602052604060002090565b5483146140a4565b611bbd82600052601e602052604060002090565b906002908183019260ff8454818160081c1680611fc3575b611bde9061443d565b60101c16611e195750611c0882611bff866000526015602052604060002090565b015415156144d3565b6000815b611cee575b505080611c7c846001600160a01b03611c54600561133d600097611c42611c8f9b6000526015602052604060002090565b01546000526015602052604060002090565b16611c99575b8454611c6c9060101c60ff168261456b565b6000526015602052604060002090565b0155805462ff0000191662010000179055565b6100166001601155565b611ce8611cb9600561133d86611c42866000526015602052604060002090565b604051636f58dd0f60e11b602082015260006024820152906113b082604481015b03601f198101845283612675565b50611c5a565b600380611d0985611c42896000526015602052604060002090565b0154821015611e135785611d43611d398484611d3389611c42876000526015602052604060002090565b01613d82565b90549060031b1c90565b14611d585750611d5290613a2f565b81611c0c565b83925094611e0986611deb611c7c94611dd2611db8611d39611c8f9c611d8e60009c611c428b6000526015602052604060002090565b01611db287611dab8d611c428d6000526015602052604060002090565b0154613819565b90613d82565b9184611d338a611c428a6000526015602052604060002090565b90919082549060031b91821b91600019901b1916179055565b611e0385611c42856000526015602052604060002090565b0161451e565b9450819250611c11565b50611c11565b611eb961070194611e85876003611e7f8897611ebf97611e53859b611e4b611ef19f6000526015602052604060002090565b015415614488565b019788548091611e6d866000526015602052604060002090565b01556000526015602052604060002090565b01613d9f565b83546001600160a01b03611ea8600561133d846000526015602052604060002090565b16611f7b575b505460101c60ff1690565b8361456b565b611edb6107b7600461133d856000526015602052604060002090565b611ef6575b50600052601e602052604060002090565b611c8f565b611cda611f74916113b0611f31611598611f1f600461133d896000526015602052604060002090565b93546000526013602052604060002090565b6040517f1499c5920000000000000000000000000000000000000000000000000000000060208201526001600160a01b0390911660248201529283906044820190565b5038611ee0565b611f97600561133d611fbc936000526015602052604060002090565b604051636f58dd0f60e11b602082015260016024820152906113b08260448101611cda565b5038611eae565b50808216611bd5565b346103a4576040806003193601126103a457600435611fe9613780565b612005611b7c6001611997846000526015602052604060002090565b61202b6120246107b7600461133d856000526015602052604060002090565b3314614200565b6120336137eb565b610487610100612052600561133d856000526015602052604060002090565b61218a601f549486805193826120cd6120bf6020977f02a085f20000000000000000000000000000000000000000000000000000000089820152806120ab60249d8e803590840160209093929193604081019481520152565b03946113b0601f1996878101845283612675565b8780825183010191016148de565b988951926120e0888c0194855190613773565b978b6120f18782019a8b5190613773565b6121016060830191825190613773565b906121126080840192835190613773565b97868a8961212660a088019c8d5190613773565b9661213f61213a60c08301998a5190613773565b6152e2565b888151612387575b5050909150825161230e575b505050805161229d575b50805161222c575b506121738651825190613773565b6121af575b5050505050505060e086015190614a0f565b51920151926121996001601155565b5191825260208201929092529081906040820190565b61221f9663a9059cbb60e01b966113b0956121fa611616946121f06115986121df600f546001600160a01b031690565b9b6000526013602052604060002090565b9351905190613773565b92519889958601528401602090939291936001600160a01b0360408201951681520152565b5086388281808080612178565b612296906122426010546001600160a01b031690565b6113b061225c6115988a6000526013602052604060002090565b92518b5163a9059cbb60e01b888201526001600160a01b039094168985019081526020810191909152839060400103878101845283612675565b5038612165565b612307906122b3600c546001600160a01b031690565b6113b06122cd6115988b6000526013602052604060002090565b92518c5163a9059cbb60e01b898201526001600160a01b039094168a85019081526020810191909152839060400103888101845283612675565b503861215d565b6113b061237e93612372612341611598612330600e546001600160a01b031690565b956000526013602052604060002090565b9151945194859263a9059cbb60e01b8c8501528d8401602090939291936001600160a01b0360408201951681520152565b03898101845283612675565b50388988612153565b61144a63a9059cbb60e01b946113b0936123eb976123c46115986123b3600d546001600160a01b031690565b986000526013602052604060002090565b915192519788958601528401602090939291936001600160a01b0360408201951681520152565b508f8a89899288612147565b346103a45760403660031901126103a457600435602435612416613780565b612432611b7c6001611997856000526015602052604060002090565b61245661244f6107b7611598856000526013602052604060002090565b33146140a4565b612488612472600561133d856000526015602052604060002090565b61247a6140ef565b61248261352b565b91615854565b908061249e602093848082518301019101614128565b10156124ae576100166001601155565b8261258b6001600160a01b03927ff526f68a000000000000000000000000000000000000000000000000000000009461257f61256461159861254f61254161251f61250b600561133d6125919f6000526015602052604060002090565b976040519182918983019190602083019252565b0397612533601f19998a8101845283612675565b61253b614137565b90615854565b858082518301019101614170565b99925050506000526013602052604060002090565b61256c61353e565b90604051988994850152602484016141e0565b03908101855284612675565b166159e9565b50388080611c8f565b346103a45760203660031901126103a45760206004356125b9816103a9565b6001600160a01b03809116600052601282526040600020546000526015825260056040600020015416604051908152f35b634e487b7160e01b600052604160045260246000fd5b6060810190811067ffffffffffffffff82111761261c57604052565b6125ea565b6040810190811067ffffffffffffffff82111761261c57604052565b60e0810190811067ffffffffffffffff82111761261c57604052565b6020810190811067ffffffffffffffff82111761261c57604052565b90601f8019910116810190811067ffffffffffffffff82111761261c57604052565b604051906101e0820182811067ffffffffffffffff82111761261c57604052565b346103a4576101003660031901126103a45736604312156103a4576040516126df8161263d565b610104813682116103a4576024905b8282106127015761001684600435614fed565b81358152602091820191016126ee565b346103a4576040806003193601126103a4576004359061272f6156c3565b1561280e5761273d33615748565b80156127fa575b156127ea576127e790600092808452601560205261276a60ff6001848720015416613ebd565b8352601e60205260026127d36127c4611cda84872094612791602435600188015414614261565b6127bc6127a66005546001600160a01b031690565b9187549051938491602083019190602083019252565b61253b6143d6565b6020808251830101910161441c565b5091019060ff801983541691151516179055565b80f35b6004905163ea8e4eb560e01b8152fd5b50336001600160a01b036005541614612744565b60049051634ee2123760e11b8152fd5b346103a45760403660031901126103a457600435600052601660205260406000206024356000526020526020604060002054604051908152f35b346103a45760203660031901126103a45760043560005260156020526020600260406000200154604051908152f35b346103a45760403660031901126103a457600435600052601560205260206128b86024356003604060002001613d82565b90549060031b1c604051908152f35b346103a45760003660031901126103a45760206001600160a01b0360015416604051908152f35b346103a45760403660031901126103a45760243561290a6156c3565b156106335761291833615748565b8015612950575b1561060e57600090808252601c6020526040822054906004358201809211610609578252601c602052604082205580f35b50336001600160a01b03600554161461291f565b346103a45760203660031901126103a457600435600052601d6020526020604060002054604051908152f35b346103a45760003660031901126103a45760206129fd6001600160a01b03600654166040516129be81612621565b601381527f67657464656c656761746f72436f756e7428290000000000000000000000000084820152604051916129f483612659565b60008352615963565b604051908152f35b610100810192916000915b60088310612a1d57505050565b600190825181526020809101920192019190612a10565b346103a45760203660031901126103a457610487600435612b416111b2612a59615265565b92612a80612a71826000526016602052604060002090565b60008052602052604060002090565b548452612a9a6110ae826000526016602052604060002090565b546020850152612ab76110d8826000526016602052604060002090565b546040850152612ad4611105826000526016602052604060002090565b546060850152612af1611132826000526016602052604060002090565b546080850152612b0e61115f826000526016602052604060002090565b5460a0850152612b2b61118c826000526016602052604060002090565b5460c08501526000526016602052604060002090565b5460e082015260405191829182612a05565b346103a45760203660031901126103a4576020612b7a600435612b75816103a9565b615748565b6040519015158152f35b346103a457612c8c612b95366111fb565b90612b9e613780565b612be7612bac61124961353e565b612bb761126661353e565b90612bd06001600160a01b0391828088169116146135c8565b61129d6107b782600054166001600160a01b031690565b612c14612c0f600161199761132c856001600160a01b03166000526012602052604060002090565b61365e565b612c7d612c73612c64612c42600561133d61132c876001600160a01b03166000526012602052604060002090565b60405190612c5c82611cda60208201906000602083019252565b61253b6136a9565b602080825183010191016136e2565b5050501515613704565b612c856137bb565b3390613c50565b612ca5612a71601f546000526016602052604060002090565b612caf8154613765565b9055612cb961530e565b612cd2600561133d836000526015602052604060002090565b90612cdc81613f08565b612ce66001601155565b604080519182526001600160a01b03929092166020820152f35b346103a45760203660031901126103a457612d196156c3565b1561063357612d2733615748565b8015612d62575b1561060e57612d3b6157d2565b601f5410612d52575b610016600435601f54613835565b612d5a6157d2565b601f55612d44565b50336001600160a01b036005541614612d2e565b346103a45760203660031901126103a4576004356001600160a01b0360055416330361060e5760009060046020612db76107b785546001600160a01b031690565b604051928380927f46f991ac0000000000000000000000000000000000000000000000000000000082525afa8015610cb95783808481949382948391612e59575b505af1612e03615824565b5015610573577fcdcc745fe377b103b45fa0cec23ae3ef93d6fc6a84a01f0d18c40b354dd1d5d8612e53612e426107b7600b546001600160a01b031690565b604051938452929081906020820190565b0390a280f35b612e71915060203d8111610cb257610ca38183612675565b38612df8565b346103a45760203660031901126103a457600435600052601b6020526020604060002054604051908152f35b346103a45760203660031901126103a457600435612ec0816103a9565b803b6000612ecd8261350f565b92612edb6040519485612675565b82845260208401903c602d815110612eff57602a602091015160601c604051908152f35b60046040517fbaf3f0f7000000000000000000000000000000000000000000000000000000008152fd5b60403660031901126103a457600435612f40613780565b6000908082526015602052612f5e60ff600160408520015416613ebd565b81526015602052612f9e6001600160a01b036005604084200154166040519062a0e53360e51b60208301526024356024830152602482526113b082612600565b50600160115580f35b346103a45760403660031901126103a457600435600052601860205260406000206024356000526020526020604060002054604051908152f35b346103a45760c03660031901126103a457611c8f600435602435613004816103a9565b606435916131046130f56084359361301a613780565b613036611b7c6001611997876000526015602052604060002090565b6130556120246107b7600461133d886000526015602052604060002090565b61305d6137eb565b6130668561528a565b61306f866152b6565b613088600561133d866000526015602052604060002090565b601f546040517fa66303040000000000000000000000000000000000000000000000000000000060208201526001600160a01b039093166024840152604480359084015260648301889052608483019690965260a480359083015260c48201959095528060e481016120ab565b6020808251830101910161424b565b9281613112575b5050614d31565b613158916113b06116169261312f600b546001600160a01b031690565b60405163a9059cbb60e01b60208201523360248201526044810194909452929384906064820190565b50388061310b565b346103a4576020806003193601126103a4576104879060043590613183826103a9565b6131e76001600160a01b03928360065416936040519116838201528281526131aa81612621565b6040516131b681612621565b601881527f697364656c656761746f724e6f646528616464726573732900000000000000008482015260009461587f565b919080613221575b613208575b505060405190151581529081906020820190565b61321a925080825183010191016156af565b38806131f4565b50808251146131ef565b346103a45760003660031901126103a4576020612b7a6156c3565b346103a45760203660031901126103a457600435600052601a6020526020604060002054604051908152f35b346103a4576040806003193601126103a457602435906004356132936156c3565b1561102a576132a133615748565b8015613444575b1561100657613433611c8f93613347613420611616613393966113b06002976132cf613780565b6132eb611b7c6001611997846000526015602052604060002090565b61330c61330760016119978a6000526015602052604060002090565b614261565b866133e0613329600561133d846000526015602052604060002090565b92613369612c7361335b88518060209d8e8201906000602083019252565b0397612c5c601f19998a8101845283612675565b8b80825183010191016136e2565b61339c61339761338383600052601e602052604060002090565b9d8e019e8f5460ff9060081c1690565b1590565b6142ac565b85517f7bb98498000000000000000000000000000000000000000000000000000000008a820152602481019190915260448101929092526064838101835282612675565b6005546001600160a01b031693519485917fffa734f0000000000000000000000000000000000000000000000000000000008984015230602484016142f7565b9160018501558082518301019101614128565b9055805461ff001916610100179055565b50336001600160a01b0360055416146132a8565b346103a45760203660031901126103a457600435600052601c6020526020604060002054604051908152f35b346103a4576040806003193601126103a4576001600160a01b036004356134aa816103a9565b166000818152601260208181528483205483526019815284832054938352908152838220548252601881528382206024358352815290839020549251918252810191909152604090f35b346103a45760003660031901126103a45760206129fd6157d2565b67ffffffffffffffff811161261c57601f01601f191660200190565b6040519061353882612659565b60008252565b60405161354a81612659565b60008152906000368137565b6040519061356382612621565b600782527f6f776e65722829000000000000000000000000000000000000000000000000006020830152565b6040519061359c82612621565b600c82527f67657448657862617365282900000000000000000000000000000000000000006020830152565b156135cf57565b606460405162461bcd60e51b815260206004820152601760248201527f6e65737465642e696e76616c69642e696e7374616e63650000000000000000006044820152fd5b1561361a57565b606460405162461bcd60e51b815260206004820152601660248201527f6e65737465642e696e76616c69642e68657862617365000000000000000000006044820152fd5b1561366557565b606460405162461bcd60e51b815260206004820152601860248201527f6e65737465642e706172656e742e6e6f742e65786973747300000000000000006044820152fd5b604051906136b682612621565b601282527f6765744e6f64654c422875696e743235362900000000000000000000000000006020830152565b91908260809103126103a4578151916020810151916060604083015192015190565b1561370b57565b606460405162461bcd60e51b815260206004820152601960248201527f6e65737465642e706172656e742e6e6f2e627573696e657373000000000000006044820152fd5b634e487b7160e01b600052601160045260246000fd5b906001820180921161060957565b9190820180921161060957565b600260115414613791576002601155565b60046040517f3ee5aeb5000000000000000000000000000000000000000000000000000000008152fd5b6137c36157d2565b601f54106137db575b6137d96005601f54613835565b565b6137e36157d2565b601f556137cc565b6137f36157d2565b601f5410613809575b6137d96002601f54613835565b6138116157d2565b601f556137fc565b60001981019190821161060957565b9190820391821161060957565b9061384d612a71836000526016602052604060002090565b5415806139da575b806139d1575b613863575050565b61387f9061387961387384613819565b91613819565b90613835565b61389e612a7161388e83613819565b6000526016602052604060002090565b546138b6612a71836000526016602052604060002090565b556138c66110ae61388e83613819565b546138de6110ae836000526016602052604060002090565b556138ee6110d861388e83613819565b546139066110d8836000526016602052604060002090565b5561391661110561388e83613819565b5461392e611105836000526016602052604060002090565b5561393e61113261388e83613819565b54613956611132836000526016602052604060002090565b5561396661115f61388e83613819565b5461397e61115f836000526016602052604060002090565b5561398e61118c61388e83613819565b546139a661118c836000526016602052604060002090565b556139ce6111b26139bc6111b261388e85613819565b54926000526016602052604060002090565b55565b5080151561385b565b5060018211613855565b156139eb57565b606460405162461bcd60e51b815260206004820152601560248201527f6e65737465642e616c72656164792e65786973747300000000000000000000006044820152fd5b60001981146106095760010190565b90613a6f613a6a613393600161199761132c866001600160a01b03166000526012602052604060002090565b6139e4565b613a82613a7d601454613a2f565b601455565b613ad960145492613aa1836114c9866000526013602052604060002090565b83613abf846001600160a01b03166000526012602052604060002090565b556001600160a01b03166000526012602052604060002090565b5490613ae58383613dc7565b613b0f6004613afe856000526015602052604060002090565b016001600160a01b03198154169055565b613b42613b2c613b276008546001600160a01b031690565b613cec565b600561150a866000526015602052604060002090565b613bcd613b5e600561133d866000526015602052604060002090565b91613b746107b76000546001600160a01b031690565b6040517f52902c590000000000000000000000000000000000000000000000000000000060208201526001600160a01b0391821660248201529116604482015260648082018690528152601f19926113b0608483612675565b5081151580613c26575b613be057505090565b613bfc600561133d613c22946000526015602052604060002090565b604051636f58dd0f60e11b602082015260016024820152916113b0908360448101611616565b5090565b506001600160a01b03613c48600561133d856000526015602052604060002090565b161515613bd7565b91613c7c613a6a613393600161199761132c866001600160a01b03166000526012602052604060002090565b613c8a613a7d601454613a2f565b613b0f613cca60145494613cac846114c9886000526013602052604060002090565b85613abf856001600160a01b03166000526012602052604060002090565b5492613cd68585613dc7565b600461150a866000526015602052604060002090565b6e5af43d82803e903d91602b57fd5bf390763d602d80600a3d3981f3363d3d373d3d3d363d7300000062ffffff8260881c161760005260781b17602052603760096000f0906001600160a01b03821615613d4257565b60046040517fb06ebf3d000000000000000000000000000000000000000000000000000000008152fd5b634e487b7160e01b600052603260045260246000fd5b8054821015613d9a5760005260206000200190600090565b613d6c565b908154916801000000000000000083101561261c5782611dd29160016137d995018155613d82565b919091600092808452602091601583526040808620956002948386890155846001988981018a60ff198254161790555587613e0c866000526018602052604060002090565b83805282528489858520555b613e2757505050505050509050565b613e95613e84828b8a9414613e9e575b613e4b886000526018602052604060002090565b8187528552868620613e5d8154613765565b9055613e73886000526019602052604060002090565b613e7d8154613765565b9055613a2f565b956000526015602052604060002090565b01549384613e18565b613eb8896003611e7f8b6000526015602052604060002090565b613e37565b15613ec457565b606460405162461bcd60e51b815260206004820152601560248201527f6e65737465642e757365722e6e6f7461637469766500000000000000000000006044820152fd5b806000526015602052613f2560ff60016040600020015416613ebd565b6000526015602052613f666001600160a01b03600560406000200154166040519062a0e53360e51b602083015260016024830152602482526113b082612600565b50565b15613f7057565b606460405162461bcd60e51b815260206004820152601360248201527f6e65737465642e7a65726f2e61646472657373000000000000000000000000006044820152fd5b15613fbb57565b606460405162461bcd60e51b815260206004820152601460248201527f6e65737465642e7461726765742e6578697374730000000000000000000000006044820152fd5b1561400657565b606460405162461bcd60e51b815260206004820152601760248201527f6e65737465642e736f757263652e6e6f744578697374730000000000000000006044820152fd5b908160209103126103a45751611220816103a9565b6040513d6000823e3d90fd5b6040519061407882612621565b601382527f55736572546f496e7374286164647265737329000000000000000000000000006020830152565b156140ab57565b606460405162461bcd60e51b815260206004820152601560248201527f6e65737465642e696e76616c69642e73656e64657200000000000000000000006044820152fd5b604051906140fc82612621565b600b82527f6d696e74436f756e7428290000000000000000000000000000000000000000006020830152565b908160209103126103a4575190565b6040519061414482612621565b600e82527f6d696e74732875696e74323536290000000000000000000000000000000000006020830152565b91908260809103126103a45781519160208101519160606040830151920151611220816103a9565b60005b8381106141ab5750506000910152565b818101518382015260200161419b565b906020916141d481518092818552858086019101614198565b601f01601f1916010190565b6040906001600160a01b03611220949316815281602082015201906141bb565b1561420757565b606460405162461bcd60e51b815260206004820152601b60248201527f6e65737465642e757365722e696e76616c6964696e7374616e636500000000006044820152fd5b91908260409103126103a4576020825192015190565b1561426857565b606460405162461bcd60e51b815260206004820152601560248201527f6e65737465642e696e76616c69642e706172656e7400000000000000000000006044820152fd5b156142b357565b606460405162461bcd60e51b815260206004820152601760248201527f6e65737465642e7265712e616c726561647965786973740000000000000000006044820152fd5b929161437f60a0916001600160a01b0360009460c08852602460c08901527f547269676765722e6e65737465642e70726f706f73616c2e6d6f7665646f776e60e08901527f6c696e65000000000000000000000000000000000000000000000000000000006101008901521660208701528360408701526101208060608801528601906141bb565b93600a60808201520152565b1561439257565b606460405162461bcd60e51b815260206004820152601360248201527f6e65737465642e7265712e6e6f746578697374000000000000000000000000006044820152fd5b604051906143e382612621565b601282527f6765745374617475732875696e743235362900000000000000000000000000006020830152565b519081151582036103a457565b91908260409103126103a45761122060206144368461440f565b930161440f565b1561444457565b606460405162461bcd60e51b815260206004820152601660248201527f6e65737465642e7265712e6e6f74617070726f766564000000000000000000006044820152fd5b1561448f57565b606460405162461bcd60e51b815260206004820152601860248201527f6e65737465642e757365722e6e6f742e646574616368656400000000000000006044820152fd5b156144da57565b606460405162461bcd60e51b815260206004820152601c60248201527f6e65737465642e757365722e616c72656164792e6465746163686564000000006044820152fd5b805490811561454857600019918201916145388383613d82565b909182549160031b1b1916905555565b634e487b7160e01b600052603160045260246000fd5b8015610609576000190190565b90614589614583836000526019602052604060002090565b54613765565b91600290816145a2826000526015602052604060002090565b0154906001938492835b6145ba575b50505050505050565b600f80851115806148d5575b156148cf57859060056145ea6107b78261133d876000526015602052604060002090565b614617575b5050614608614610926000526015602052604060002090565b015493613a2f565b92856145ac565b865b8281111561470a5750505061460861461092846000146146a75761466161464a876000526018602052604060002090565b61465389613819565b600052602052604060002090565b5461467d610f5689610fcd856000526018602052604060002090565b9055614693816000526019602052604060002090565b61469e8b8254613773565b90555b926145ef565b6146be61464a876000526018602052604060002090565b546146e26146da89610fcd856000526018602052604060002090565b918254613828565b90556146f8816000526019602052604060002090565b6147038b8254613828565b90556146a1565b909192506147268261133d886000526015602052604060002090565b6147308883613828565b604091876147726147648551806147506020978883019190602083019252565b0394612c5c601f1996878101845283612675565b8480825183010191016136e2565b50509290878a8215806148c7575b6148b6579261480894926116166147ad6113b09461133d6148159b9a986000526015602052604060002090565b94601f9a8c8c5491519889957f7b058ac1000000000000000000000000000000000000000000000000000000008d8801526024870193909594919260809360a086019786526020860152604085015260608401521515910152565b805181018201910161424b565b90871561486c575b8082116148395750505061483090613a2f565b90879291614619565b61484290613a2f565b61485b81610fcd85546000526016602052604060002090565b6148658154613765565b905561481d565b9190915b8281116148835750505061483090613a2f565b806148a06148b192610fcd85546000526016602052604060002090565b6148aa8154613819565b905561455e565b614870565b505050505050505061483090613a2f565b508515614780565b506145b1565b508115156145c6565b9061012080838303126103a45781601f840112156103a4576040519281840184811067ffffffffffffffff82111761261c57604052839181019283116103a457905b82821061492d5750505090565b8151815260209182019101614920565b6040519061494a82612621565b600f82527f66726565496e74657276616c73282900000000000000000000000000000000006020830152565b6040519061498382612621565b601582527f67657452616e6b5769746841676556616c7565282900000000000000000000006020830152565b604051906149bc82612621565b601382527f72616e6b436c617573652875696e7432353629000000000000000000000000006020830152565b908160a09103126103a4578051916020820151916040810151916080606083015192015190565b919091600392614a40614a2985546001600160a01b031690565b614a3161353e565b90614a3a61493d565b90615963565b9360008092819082948392849185985b600f8a111580614d28575b15614d1a576005614a7d6107b78261133d856000526015602052604060002090565b614aaa575b506002614a9c614aa4926000526015602052604060002090565b015499613a2f565b98614a50565b8c614ace614ac68361133d866000526015602052604060002090565b61247a614976565b8c614ae360209283808251830101910161424b565b829591951580614cb1575b1580614ca8575b8015614ca0575b614b0b575b5050505050614a82565b869e8697929394959603614bdf575b50614b9c928b6113b08c611cda614b46614ba2999761133d614b8f986000526015602052604060002090565b93601f9a8b5460405197889563208bffb160e21b8c8801526024870193909594919260a09360c08601978652600060208701526040860152606085015260808401521515910152565b8051810182019101614128565b92613765565b80831015614bbd57509098905060028c614aa48c3880614b01565b80613e73614bda92610fcd85546000526016602052604060002090565b614ba2565b9193929a50508a8511614c32575b509087918c86861080801591614c09575b50159a929193614b1a565b89881015915081614c2a575b5080614c22575b38614bfe565b508815614c1c565b905038614c15565b995095509350859250614c81614c73614c528b546001600160a01b031690565b60405190614c6b82611cda888c83019190602083019252565b61253b6149af565b8680825183010191016149e8565b969350909691509594614c97859b601f54613828565b11969091614bed565b506000614afc565b508a1515614af5565b99509b50955095509a50614cfa614cec838d614c6b614cd78f546001600160a01b031690565b60405192830193845291928390602001611cda565b8c80825183010191016149e8565b9e9350909791509695849b859e614d1382601f54613828565b1199614aee565b505050505050505050509050565b50801515614a5b565b90929192614d4a614a296003546001600160a01b031690565b93600091829083809481938280985b600f8a111580614fe4575b15614d1a57614d856107b7600561133d846000526015602052604060002090565b614da9575b6002614a9c614da3926000526015602052604060002090565b98614d59565b8b8a614dca6130f5614ac6600561133d876000526015602052604060002090565b8293919315614f87575b82151580614f7e575b8015614f75575b614df2575b50505050614d8a565b938394819d8d949503614ebf575b50614e8692614b9c926113b08c611cda8f614e2d600561133d614e77996000526015602052604060002090565b94601f9a8b549060405198899663208bffb160e21b60208901526024880194919260a0949197969360c0870198875260208701526040860152606085015260808401521515910152565b60208082518301019101614128565b80831015614e9d57509098905060028a8d38614de9565b80613e73614eba92610fcd85546000526016602052604060002090565b614e86565b935050509750828211614f11575b50898c878b86851080801591614ee8575b50159a9291614e00565b89871015915081614f09575b5080614f01575b38614ede565b508815614efb565b905038614ef4565b935093505050614f58614f49614f2f6003546001600160a01b031690565b60405190614c6b82611cda88602083019190602083019252565b602080825183010191016149e8565b9350909391509291614f6d8592601f54613828565b119338614ecd565b508b1515614de4565b50891515614ddd565b97505050935097505050614fc3614f49614fa96003546001600160a01b031690565b60405190614c6b82611cda87602083019190602083019252565b999350909391509291818a8d829b614fdd89601f54613828565b1197614dd4565b50801515614d64565b614ff56156c3565b156106335761500333615748565b80156150fb575b1561060e5761501a81151561510f565b61503761502f6003546001600160a01b031690565b61247a61515a565b61504b602091828082518301019101615193565b9061506083600052601a602052604060002090565b549060015b600781111561507657505050505050565b806150846150e79288615210565b5180156150f55761509d61509783613819565b87615210565b518481519283156150ec576150c46150c9926150bc6150cf968b615232565b940151615221565b615232565b90615245565b610fdc82610fcd896000526017602052604060002090565b615065565b50505050613a2f565b50613a2f565b50336001600160a01b03600554161461500a565b1561511657565b606460405162461bcd60e51b815260206004820152601260248201527f6e65737465642e696e76616c69642e61676500000000000000000000000000006044820152fd5b6040519061516782612621565b601882527f6765744261746368526f79616c7479436c6175736573282900000000000000006020830152565b6102a09081818403126103a45782601f820112156103a45760408051936151b98561263d565b84938301928184116103a457935b8385106151d657505050505090565b6060858303126103a45782516060916151ee82612600565b86518252602091828801518382015285880151868201528152019401936151c7565b906007811015613d9a5760051b0190565b908160640291606483040361060957565b8181029291811591840414171561060957565b811561524f570490565b634e487b7160e01b600052601260045260246000fd5b6040519061010080830183811067ffffffffffffffff82111761261c57604052368337565b601f5480600052601a60205260406000205491820180921161060957600052601a602052604060002055565b601f5480600052601b60205260406000205491820180921161060957600052601b602052604060002055565b601f5480600052601c60205260406000205491820180921161060957600052601c602052604060002055565b601f5480600052601d602052604060002054906001820180921161060957600052601d602052604060002055565b6040519061534982612621565b601482527f676574627573696e6573732875696e74323536290000000000000000000000006020830152565b6040519061538282612621565b601d82527f67657472616e6b436f756e742875696e743235362c75696e74323536290000006020830152565b6156936101c06137d9926153e86153cc82516001600160a01b031690565b6001600160a01b03166001600160a01b03196002541617600255565b61541b6153ff60208301516001600160a01b031690565b6001600160a01b03166001600160a01b03196003541617600355565b61544e61543260408301516001600160a01b031690565b6001600160a01b03166001600160a01b03196004541617600455565b61548161546560608301516001600160a01b031690565b6001600160a01b03166001600160a01b03196005541617600555565b6154b461549860808301516001600160a01b031690565b6001600160a01b03166001600160a01b03196006541617600655565b6154e76154cb60a08301516001600160a01b031690565b6001600160a01b03166001600160a01b03196007541617600755565b61551a6154fe60c08301516001600160a01b031690565b6001600160a01b03166001600160a01b03196008541617600855565b61554d61553160e08301516001600160a01b031690565b6001600160a01b03166001600160a01b03196009541617600955565b6155816155656101008301516001600160a01b031690565b6001600160a01b03166001600160a01b0319600a541617600a55565b6155b56155996101208301516001600160a01b031690565b6001600160a01b03166001600160a01b0319600b541617600b55565b6155e96155cd6101408301516001600160a01b031690565b6001600160a01b03166001600160a01b0319600c541617600c55565b61561d6156016101608301516001600160a01b031690565b6001600160a01b03166001600160a01b0319600d541617600d55565b6156516156356101808301516001600160a01b031690565b6001600160a01b03166001600160a01b0319600e541617600e55565b6156856156696101a08301516001600160a01b031690565b6001600160a01b03166001600160a01b0319600f541617600f55565b01516001600160a01b031690565b6001600160a01b03166001600160a01b03196010541617601055565b908160209103126103a4576112209061440f565b61571e6001600160a01b03600254166040516156de81612621565b600881527f697353616665282900000000000000000000000000000000000000000000000060208201526040519161571583612659565b6000835261587f565b908061573d575b156105735780602080611220935183010191016156af565b506020815114615725565b6157ab6001600160a01b03806002541660405191602094168483015283825261577082612621565b6040519061577d82612621565b601582527f69735365637572654261736528616464726573732900000000000000000000008583015261587f565b90806157c8575b15610573578161122092825183010191016156af565b50818151146157b2565b6112206001600160a01b03600354166040516157ed81612621565b600681527f69416765282900000000000000000000000000000000000000000000000000006020820152604051916129f483612659565b3d1561584f573d906158358261350f565b916158436040519384612675565b82523d6000602084013e565b606090565b9061585f929161587f565b906000901561586c575090565b604051915061587a82612659565b815290565b803b156158f9576000927fffffffff0000000000000000000000000000000000000000000000000000000083602086955191012016906158e960246040518093602082019586526158d98151809260208686019101614198565b8101036004810184520182612675565b51915afa6158f5615824565b9091565b50505060009060405161590b81612659565b6000815290565b92916159209160009461587f565b9080615958575b61592e5750565b9091506020818051810103126103a45760206001600160a01b03910151615954816103a9565b1690565b506020815114615927565b92916159719160009461587f565b9080615994575b61597f5750565b61122091925060208082518301019101614128565b506020815114615978565b90602082519201517fffffffff000000000000000000000000000000000000000000000000000000009081811693600481106159da57505050565b60040360031b82901b16169150565b6001600160a01b03811615615a9c57600080918351908260208601915af190615a10615824565b9115615a1a575090565b805160009190600411615a9657615a31915061599f565b815115615a415750805190602001fd5b6040517f21c09d340000000000000000000000000000000000000000000000000000000081527fffffffff00000000000000000000000000000000000000000000000000000000919091166004820152602490fd5b50615a31565b60046040517fe6c4247b000000000000000000000000000000000000000000000000000000008152fdfea2646970667358221220aa7ddda83c45b126a308fec32d163d10f953a811cd6adc798f4d4ac9ccd0b43064736f6c63430008140033","linkReferences":{}},"methodIdentifiers":{"dAOAssembly()":"14837455","daocore()":"14d8d024","nested741()":"45cff900","old741()":"5540c5ac","price()":"a035b1fe"},"id":77}