{"abi":[{"type":"constructor","inputs":[{"name":"_hex","type":"address","internalType":"address"}],"stateMutability":"nonpayable"},{"type":"function","name":"invalidator","inputs":[],"outputs":[{"name":"","type":"address","internalType":"address"}],"stateMutability":"view"},{"type":"function","name":"rule741","inputs":[],"outputs":[{"name":"","type":"address","internalType":"address"}],"stateMutability":"view"},{"type":"function","name":"transferRequest","inputs":[],"outputs":[{"name":"","type":"address","internalType":"address"}],"stateMutability":"view"}],"bytecode":{"object":"0x6080346200018657601f6200a39c38819003918201601f19168301926001600160401b0392909183851183861017620001705781602092849260409788528339810103126200018657516001600160a01b0390818116908190036200018657835190614c5e91828101928184108685111762000170576200573e823981835260208160009403019083f0938415620001665782549484166001600160a01b03199586161783558551612ed180820190828210848311176200015257602091839162000298833985815203019084f08015620001485784168560015416176001558551916125d580840192848410908411176200013457918391602093620031698439815203019082f0908115620001295750169060025416176002555161010c90816200018c8239f35b8451903d90823e3d90fd5b634e487b7160e01b85526041600452602485fd5b86513d85823e3d90fd5b634e487b7160e01b86526041600452602486fd5b85513d84823e3d90fd5b634e487b7160e01b600052604160045260246000fd5b600080fdfe6080806040526004361015601257600080fd5b600090813560e01c9081630a5b38ab1460a4575080633da8676f146072576352b06d6414603e57600080fd5b34606f5780600319360112606f57602073ffffffffffffffffffffffffffffffffffffffff60025416604051908152f35b80fd5b5034606f5780600319360112606f57602073ffffffffffffffffffffffffffffffffffffffff60015416604051908152f35b90503460d2578160031936011260d25773ffffffffffffffffffffffffffffffffffffffff60209254168152f35b5080fdfea2646970667358221220a341f13c2ccc0d262ebd7f9806a7f8c5495a4bbb764a9ac72ec8fe0613dbf8a664736f6c634300081400336080346200009e57601f62002ed138819003918201601f19168301916001600160401b03831184841017620000a3578084926020946040528339810103126200009e57516001600160a01b038116908190036200009e5780156200008c5760018060a01b03193381600154161760015560005416176000556001601155604051612e179081620000ba8239f35b60405163e6c4247b60e01b8152600490fd5b600080fd5b634e487b7160e01b600052604160045260246000fdfe60806040526004361015610018575b361561001657005b005b60003560e01c806312065fe0146101c857806318c864e3146101c35780631f185d16146101be578063339459a6146101b95780633676bd1f146101b45780633b9b7955146101af578063479fa2c3146101aa5780634ef260a9146101a55780638d6edc14146101a05780638da5cb5b1461019b5780639932f81e146101965780639fb3953b14610191578063a1f7f5391461018c578063ab7e46ae14610187578063ac23334514610182578063af4845261461017d578063b8f1759a14610178578063b90306ad14610173578063c1e6cec21461016e578063c54e44b014610169578063cab3cc8d14610164578063e01ad5fd1461015f578063e0a9bc2b1461015a578063e846034a14610155578063e981bcad14610150578063f245fe7a1461014b5763fdc10bc90361000e57611cd5565b6114f3565b611454565b611436565b61139d565b6112d2565b6112b4565b61122e565b6111f0565b6110c5565b61106b565b61103a565b611002565b610fa8565b610efc565b610d7c565b610b69565b610b42565b610b24565b610a62565b610979565b610952565b610927565b6103a6565b6102bf565b61023e565b346101e45760003660031901126101e457602047604051908152f35b600080fd5b634e487b7160e01b600052603260045260246000fd5b60135481101561023957601360005260021b7f66de8ffda797e3de9c05e8fc57b3bf0ec28a930d40b0d285d93c06501cf6a0900190600090565b6101e9565b346101e45760203660031901126101e4576004356013548110156101e457610265906101ff565b50805460018201546002830154600390930154604080516001600160a01b0394851681529390921660208401529082019290925260ff90911615156060820152608090f35b0390f35b6001600160a01b038116036101e457565b346101e4576020806003193601126101e45761033e6004356102e0816102ae565b6001600160a01b0380600254169060405192168483015283825261030382611da2565b6040519061031082611da2565b601182527f69735369676e657228616464726573732900000000000000000000000000000085830152612bc4565b91908061039c575b15610372578181610360926102aa94518301019101612acb565b60405190151581529081906020820190565b60046040517f3204506f000000000000000000000000000000000000000000000000000000008152fd5b5080825114610346565b346101e45760003660031901126101e4576103d86103cc6000546001600160a01b031690565b6001600160a01b031690565b60405190634bf9c0ad60e11b8252602082600481845afa91821561075757600092610906575b506040519163cfbffe5360e01b8352602083600481855afa928315610757576000936108e5575b506040519063ab6e844f60e01b8252602082600481865afa918215610757576000926108c4575b5060405191630536340960e21b8352602083600481875afa928315610757576000936108a3575b506040519263d1f956b160e01b8452602084600481885afa93841561075757600094610882575b5060405193631cc3bfab60e31b8552602085600481895afa94851561075757600095610861575b5060405163e09d394d60e01b81526020816004818a5afa90811561075757600091610842575b506040516314ac1b5960e21b81526020816004818b5afa90811561075757600091610823575b5060405163013cf08b60e01b815260006004820152916020836024818c5afa92831561075757600093610802575b5060405197635e09dbe760e01b89526020896004818d5afa948515610757576004996000966107e1575b5060208b6040519b8c8092635506ee0b60e11b82525afa9687156107575760049a6000986107c0575b5060208c6040519c8d8092636402742760e01b82525afa9889156107575760049b60009a61079f575b5060208d6040519d8e80926330125cf560e01b82525afa9a8b15610757578d60049d60009d61077d575b506020906040519e8f80926324768d9160e01b82525afa9c8d156107575760009d61075c575b50604051809e81906313b92d3560e31b82525a92600491602094fa9d8e156107575760009e610726575b5061063a611dfc565b6001600160a01b0390911681529d8e906001600160a01b031660208201526040019061066e91906001600160a01b03169052565b6001600160a01b031660608d01526001600160a01b031660808c01526001600160a01b031660a08b01526001600160a01b031660c08a01526001600160a01b031660e08901526001600160a01b03166101008801526001600160a01b03166101208701526001600160a01b03166101408601526001600160a01b03166101608501526001600160a01b03166101808401526001600160a01b03166101a08301526001600160a01b03166101c0820152610016906127c8565b610749919e5060203d602011610750575b6107418183611dda565b810190611e51565b9c38610631565b503d610737565b611e69565b610776919d5060203d602011610750576107418183611dda565b9b38610607565b6020919d5061079890823d8411610750576107418183611dda565b9c906105e1565b6107b9919a5060203d602011610750576107418183611dda565b98386105b7565b6107da91985060203d602011610750576107418183611dda565b963861058e565b6107fb91965060203d602011610750576107418183611dda565b9438610565565b61081c91935060203d602011610750576107418183611dda565b913861053b565b61083c915060203d602011610750576107418183611dda565b3861050d565b61085b915060203d602011610750576107418183611dda565b386104e7565b61087b91955060203d602011610750576107418183611dda565b93386104c1565b61089c91945060203d602011610750576107418183611dda565b923861049a565b6108bd91935060203d602011610750576107418183611dda565b9138610473565b6108de91925060203d602011610750576107418183611dda565b903861044c565b6108ff91935060203d602011610750576107418183611dda565b9138610425565b61092091925060203d602011610750576107418183611dda565b90386103fe565b346101e45760203660031901126101e4576109406126c6565b61094b6004356123b7565b6001601155005b346101e45760003660031901126101e45760206001600160a01b0360005416604051908152f35b346101e45760203660031901126101e45760043580151580610a56575b15610a12576109a76109ac91611f6a565b6101ff565b5080546001600160a01b03166102aa6109cf60018401546001600160a01b031690565b926109e36003600283015492015460ff1690565b604080516001600160a01b03958616815295909416602086015292840152901515606083015281906080820190565b606460405162461bcd60e51b815260206004820152601760248201527f70726f706f7365722e696e76616c69642e666f726d69640000000000000000006044820152fd5b50601354811115610996565b346101e45760203660031901126101e457600435610a7f816102ae565b6001600160a01b03809116906000918083526012602052604083205480151580610b18575b610aac578380f35b6000198101908111610b1357610ac1906101ff565b5050808352601260205282604081205560145468010000000000000000811015610b0e57806001610af59201601455610f71565b909283549160031b92831b921b19161790553880808380f35b611d39565b611f54565b50601354811115610aa4565b346101e45760003660031901126101e4576020601554604051908152f35b346101e45760003660031901126101e45760206001600160a01b0360015416604051908152f35b346101e45760603660031901126101e457600435610b86816102ae565b602435610b92816102ae565b6001600160a01b039182811615610d5257600092821683526020601281526040842054610d0e57600490610be5610bc7611d4f565b509384906001600160a01b03166001600160a01b0319825416179055565b610c09600184019485906001600160a01b03166001600160a01b0319825416179055565b610c11611e39565b9080610c276103cc88546001600160a01b031690565b60405194858092630536340960e21b82525afa91821561075757610c94610cb493610ca7926002968a92610ceb575b50610ca2906040519384917fffa734f00000000000000000000000000000000000000000000000000000000088840152604435903060248501611e98565b03601f198101845283611dda565b612d2e565b8051810182019101611f45565b910155610ce7610cce60135492546001600160a01b031690565b6001600160a01b03166000526012602052604060002090565b5580f35b610ca2919250610d0790863d8811610750576107418183611dda565b9190610c56565b6064906040519062461bcd60e51b82526004820152601260248201527f70726f706f7365722e746f2e65786973747300000000000000000000000000006044820152fd5b60046040517fe6c4247b000000000000000000000000000000000000000000000000000000008152fd5b60803660031901126101e457600435610d94816102ae565b610d9c6126c6565b6004546001600160a01b031660046020610dc16103cc6000546001600160a01b031690565b604051928380927fde433f170000000000000000000000000000000000000000000000000000000082525afa90811561075757610e4491610e2291600091610ede575b50604080516001600160a01b03909216602083015290918291820190565b0392610e36601f1994858101845283611dda565b610e3e61278f565b90612c57565b6001600160a01b038116610e5d575b6100166001601155565b610ca2610ec992610ed5946040519485917fc107930a00000000000000000000000000000000000000000000000000000000602084015260643590604435906024359060248601909493926060926001600160a01b036080840197168352602083015260408201520152565b03908101845283611dda565b50388080610e53565b610ef6915060203d8111610750576107418183611dda565b38610e04565b346101e45760003660031901126101e4576020610f696001600160a01b0360065416604051610f2a81611da2565b601381527f67657464656c656761746f72436f756e742829000000000000000000000000008482015260405191610f6083611dbe565b60008352612ca8565b604051908152f35b6014548110156102395760146000527fce6d7b5282bd9a3661ae061feed1dbda4e52ab073b1f9285be6e155d9c38d4ec0190600090565b346101e45760203660031901126101e4576004356014548110156101e4576001600160a01b0360209160146000527fce6d7b5282bd9a3661ae061feed1dbda4e52ab073b1f9285be6e155d9c38d4ec015416604051908152f35b346101e45760203660031901126101e4576020611029600435611024816102ae565b611fe0565b6001600160a01b0360405191168152f35b346101e45760203660031901126101e457602061106160043561105c816102ae565b612adf565b6040519015158152f35b346101e45760203660031901126101e457600435601454811015610239576001600160a01b0360209160146000527fce6d7b5282bd9a3661ae061feed1dbda4e52ab073b1f9285be6e155d9c38d4ec015416604051908152f35b346101e45760203660031901126101e4576004356001600160a01b036005541633036111c657600090600460206111066103cc85546001600160a01b031690565b604051928380927f46f991ac0000000000000000000000000000000000000000000000000000000082525afa801561075757838084819493829483916111a8575b505af1611152612b69565b5015610372577fcdcc745fe377b103b45fa0cec23ae3ef93d6fc6a84a01f0d18c40b354dd1d5d86111a26111916103cc600b546001600160a01b031690565b604051938452929081906020820190565b0390a280f35b6111c0915060203d8111610750576107418183611dda565b38611147565b60046040517fea8e4eb5000000000000000000000000000000000000000000000000000000008152fd5b346101e45760203660031901126101e4576001600160a01b03600435611215816102ae565b1660005260126020526020604060002054604051908152f35b346101e45760203660031901126101e45760043561124b816102ae565b803b600061125882611e1d565b926112666040519485611dda565b82845260208401903c602d81511061128a57602a602091015160601c604051908152f35b60046040517fbaf3f0f7000000000000000000000000000000000000000000000000000000008152fd5b346101e45760003660031901126101e4576020601354604051908152f35b346101e4576020806003193601126101e4576102aa90600435906112f5826102ae565b6113596001600160a01b039283600654169360405191168382015282815261131c81611da2565b60405161132881611da2565b601881527f697364656c656761746f724e6f6465286164647265737329000000000000000084820152600094612bc4565b919080611393575b61137a575b505060405190151581529081906020820190565b61138c92508082518301019101612acb565b3880611366565b5080825114611361565b346101e45760003660031901126101e4576114096001600160a01b03600254166040516113c981611da2565b600881527f697353616665282900000000000000000000000000000000000000000000000060208201526040519161140083611dbe565b60008352612bc4565b908061142b575b1561037257610360816020806102aa94518301019101612acb565b506020815114611410565b346101e45760003660031901126101e4576020601454604051908152f35b346101e45760403660031901126101e45761146d6126c6565b61147e61147930612adf565b612157565b6001600160a01b03600454166040517f33b59a5b0000000000000000000000000000000000000000000000000000000060208201526004356024820152602435604482015260448152608081019181831067ffffffffffffffff841117610b0e576114eb92604052612d2e565b506001601155005b346101e457600080600319360112611cd25761150d6126c6565b6115216103cc82546001600160a01b031690565b604090815191828092634bf9c0ad60e11b8252602093849160049687915afa908115610757578591611cb5575b5061158782517f339459a600000000000000000000000000000000000000000000000000000000928386830152868252610ca282611da2565b50838361159e6103cc88546001600160a01b031690565b8451928380927fd3d1b0960000000000000000000000000000000000000000000000000000000082525afa8015610757576115ef918791611c98575b508351908386830152868252610ca282611da2565b5083836116066103cc88546001600160a01b031690565b84519283809263ab6e844f60e01b82525afa80156107575761163d918791611c9857508351908386830152868252610ca282611da2565b5083836116546103cc88546001600160a01b031690565b84519283809263cfbffe5360e01b82525afa80156107575761168b918791611c9857508351908386830152868252610ca282611da2565b5083836116a26103cc88546001600160a01b031690565b845192838092630536340960e21b82525afa8015610757576116d9918791611c9857508351908386830152868252610ca282611da2565b5083836116f06103cc88546001600160a01b031690565b84519283809263d1f956b160e01b82525afa801561075757611727918791611c9857508351908386830152868252610ca282611da2565b50838361173e6103cc88546001600160a01b031690565b845192838092631cc3bfab60e31b82525afa801561075757611775918791611c9857508351908386830152868252610ca282611da2565b50838361178c6103cc88546001600160a01b031690565b84519283809263e09d394d60e01b82525afa8015610757576117c3918791611c9857508351908386830152868252610ca282611da2565b5083836117da6103cc88546001600160a01b031690565b8451928380926314ac1b5960e21b82525afa801561075757611811918791611c9857508351908386830152868252610ca282611da2565b506118266103cc86546001600160a01b031690565b838351809263013cf08b60e01b825281806118488a8201906000602083019252565b03915afa801561075757611871918791611c9857508351908386830152868252610ca282611da2565b506118866103cc86546001600160a01b031690565b90825184817fb771c896000000000000000000000000000000000000000000000000000000009485825281806118c38b8201906000602083019252565b03915afa8015610757576118ed918891611c7b575b508451908387830152878252610ca282611da2565b506119026103cc87546001600160a01b031690565b8484518092858252818061191d8b8201906001602083019252565b03915afa801561075757611946918891611c7b57508451908387830152878252610ca282611da2565b5061195b6103cc87546001600160a01b031690565b848451809285825281806119768b8201906002602083019252565b03915afa80156107575761199f918891611c7b57508451908387830152878252610ca282611da2565b506119b46103cc87546001600160a01b031690565b848451809285825281806119cf8b8201906003602083019252565b03915afa8015610757576119f8918891611c7b57508451908387830152878252610ca282611da2565b5083611a0e6103cc88546001600160a01b031690565b92845193849182528180611a298a8201906004602083019252565b03915afa918215610757578592611a56918891611c5e575b508451908387830152848252610ca282611da2565b5083611a6c6103cc88546001600160a01b031690565b845193848092635e09dbe760e01b82525afa918215610757578592611aa6918891611c5e57508451908387830152848252610ca282611da2565b5083611abc6103cc88546001600160a01b031690565b845193848092635506ee0b60e11b82525afa918215610757578592611af6918891611c5e57508451908387830152848252610ca282611da2565b5083611b0c6103cc88546001600160a01b031690565b845193848092636402742760e01b82525afa918215610757578592611b46918891611c5e57508451908387830152848252610ca282611da2565b5083611b5c6103cc88546001600160a01b031690565b8451938480926330125cf560e01b82525afa918215610757578592611b96918891611c5e57508451908387830152848252610ca282611da2565b5083611bac6103cc88546001600160a01b031690565b8451938480926324768d9160e01b82525afa918215610757578592611be6918891611c5e57508451908387830152848252610ca282611da2565b5083611bfc6103cc88546001600160a01b031690565b8451968780926313b92d3560e31b82525afa92831561075757611c31958794611c3f575b5051938401528252610ca282611da2565b50611c3c6001601155565b80f35b611c57919450853d8711610750576107418183611dda565b9238611c20565b611c759150863d8811610750576107418183611dda565b38611a41565b611c929150863d8811610750576107418183611dda565b386118d8565b611caf9150853d8711610750576107418183611dda565b386115da565b611ccc9150833d8511610750576107418183611dda565b3861154e565b80fd5b346101e45760003660031901126101e4576020610f696001600160a01b0360035416604051611d0381611da2565b600681527f69416765282900000000000000000000000000000000000000000000000000008482015260405191610f6083611dbe565b634e487b7160e01b600052604160045260246000fd5b60135468010000000000000000811015610b0e57600181018060135581101561023957601360005260021b7f66de8ffda797e3de9c05e8fc57b3bf0ec28a930d40b0d285d93c06501cf6a0900190600090565b6040810190811067ffffffffffffffff821117610b0e57604052565b6020810190811067ffffffffffffffff821117610b0e57604052565b90601f8019910116810190811067ffffffffffffffff821117610b0e57604052565b604051906101e0820182811067ffffffffffffffff821117610b0e57604052565b67ffffffffffffffff8111610b0e57601f01601f191660200190565b604051611e4581611dbe565b60008152906000368137565b908160209103126101e45751611e66816102ae565b90565b6040513d6000823e3d90fd5b60005b838110611e885750506000910152565b8181015183820152602001611e78565b6000926001600160a01b0360a09396959660c08452602660c08501527f547269676765722e496e7374616e63652e70726f706f73616c2e55736572547260e08501527f616e73666572000000000000000000000000000000000000000000000000000061010085015216602083015283604083015261012080606084015281518091840152611f31816101409360208587019101611e75565b601f80199101168201019460808201520152565b908160209103126101e4575190565b634e487b7160e01b600052601160045260246000fd5b600019810191908211610b1357565b60405190611f8682611da2565b601282527f6765745374617475732875696e743235362900000000000000000000000000006020830152565b519081151582036101e457565b91908260409103126101e457611e666020611fd984611fb2565b9301611fb2565b611ffd906001600160a01b03166000526012602052604060002090565b5480151580612100575b156120fa576109a761201891611f6a565b50600381015460ff166120ed5761203a6103cc6000546001600160a01b031690565b6040518091630536340960e21b825281600460209384935afa801561075757610c94612096916120a3946000916120d0575b5061208860028701546040519384918783019190602083019252565b612090611f79565b90612b99565b8051810182019101611fbf565b819291926120c8575b50600091156120c457546001600160a01b0316905090565b5090565b9150386120ac565b6120e79150843d8611610750576107418183611dda565b3861206c565b546001600160a01b031690565b50600090565b50601354811115612007565b1561211357565b606460405162461bcd60e51b815260206004820152601c60248201527f7574696c6974792e62617463682e6c696d69742e6578636565646564000000006044820152fd5b1561215e57565b606460405162461bcd60e51b815260206004820152601760248201527f7574696c6974792e756e7365637572652e6661696c65640000000000000000006044820152fd5b604051906121af82611da2565b600f82527f6765744e6f646573436f756e74282900000000000000000000000000000000006020830152565b156121e257565b606460405162461bcd60e51b815260206004820152601360248201527f7574696c6974792e696d706f72742e646f6e65000000000000000000000000006044820152fd5b91908201809211610b1357565b6000198114610b135760010190565b6040519061224f82611da2565b601782527f6765744e6f64654279496e6465782875696e74323536290000000000000000006020830152565b1561228257565b606460405162461bcd60e51b815260206004820152601660248201527f70726f78792e696e76616c69642e696e7374616e6365000000000000000000006044820152fd5b604051906122d382611da2565b601382527f496e7374546f55736572286164647265737329000000000000000000000000006020830152565b1561230657565b606460405162461bcd60e51b815260206004820152601260248201527f70726f78792e696e76616c69642e6e6f646500000000000000000000000000006044820152fd5b6040519061235782611da2565b601082527f6765744e6f6465286164647265737329000000000000000000000000000000006020830152565b908160a09103126101e457805191602082015161239f816102ae565b91604081015191611e666080611fd960608501611fb2565b6123c4606482111561210c565b6123d061147930612adf565b6123e56103cc6000546001600160a01b031690565b60405180917f447aa30400000000000000000000000000000000000000000000000000000000825281600460209384935afa918215610757576000926126a7575b50612440612432611e39565b61243a6121a2565b84612ca8565b9283156126a15761248861247661245f6004546001600160a01b031690565b612467611e39565b906124706121a2565b90612ca8565b916124828387116121db565b82612226565b93808511612699575b505b8381106124a05750505050565b6126459061264061263b6040516126327f50db85d100000000000000000000000000000000000000000000000000000000612508836124e6888b83019190602083019252565b03936124fa601f1995868101835282611dda565b612502612242565b8b612c57565b6001600160a01b0361251d818316151561227b565b8131948a8c60016125c66125b861259e6125aa6125726125586125648c6040519283918c83019190916001600160a01b036020820193169052565b038b8101835282611dda565b61256c6122c6565b88612c57565b996125808a8c1615156122ff565b6040519283918983019190916001600160a01b036020820193169052565b03888101835282611dda565b6125b261234a565b85612b99565b848082518301019101612383565b50505095909516946125d98115156122ff565b148015612690575b61264a575b50610ec9846125f981610ca29697612701565b6004546001600160a01b031695604051978894850152602484019060209093929360408301946001600160a01b03809216845216910152565b50601554612226565b601555565b612233565b612493565b6040516001600160a01b03909416828501908152610ca294610ec9926126879261267f90839060200103878101845283611dda565b610e3e6122c6565b9350508c6125e6565b508315156125e1565b935038612491565b50505050565b816126bf9293503d8411610750576107418183611dda565b9038612426565b6002601154146126d7576002601155565b60046040517f3ee5aeb5000000000000000000000000000000000000000000000000000000008152fd5b6013549068010000000000000000821015610b0e5761274961272b836001600395016013556101ff565b509182906001600160a01b03166001600160a01b0319825416179055565b6001810180546001600160a01b0319166001600160a01b03851617905501600160ff198254161790556001600160a01b0360135491166000526012602052604060002055565b6040519061279c82611da2565b601682527f67657455736572546f496e7374286164647265737329000000000000000000006020830152565b612aad6101c0612ac9926128026127e682516001600160a01b031690565b6001600160a01b03166001600160a01b03196002541617600255565b61283561281960208301516001600160a01b031690565b6001600160a01b03166001600160a01b03196003541617600355565b61286861284c60408301516001600160a01b031690565b6001600160a01b03166001600160a01b03196004541617600455565b61289b61287f60608301516001600160a01b031690565b6001600160a01b03166001600160a01b03196005541617600555565b6128ce6128b260808301516001600160a01b031690565b6001600160a01b03166001600160a01b03196006541617600655565b6129016128e560a08301516001600160a01b031690565b6001600160a01b03166001600160a01b03196007541617600755565b61293461291860c08301516001600160a01b031690565b6001600160a01b03166001600160a01b03196008541617600855565b61296761294b60e08301516001600160a01b031690565b6001600160a01b03166001600160a01b03196009541617600955565b61299b61297f6101008301516001600160a01b031690565b6001600160a01b03166001600160a01b0319600a541617600a55565b6129cf6129b36101208301516001600160a01b031690565b6001600160a01b03166001600160a01b0319600b541617600b55565b612a036129e76101408301516001600160a01b031690565b6001600160a01b03166001600160a01b0319600c541617600c55565b612a37612a1b6101608301516001600160a01b031690565b6001600160a01b03166001600160a01b0319600d541617600d55565b612a6b612a4f6101808301516001600160a01b031690565b6001600160a01b03166001600160a01b0319600e541617600e55565b612a9f612a836101a08301516001600160a01b031690565b6001600160a01b03166001600160a01b0319600f541617600f55565b01516001600160a01b031690565b6001600160a01b03166001600160a01b03196010541617601055565b565b908160209103126101e457611e6690611fb2565b612b426001600160a01b038060025416604051916020941684830152838252612b0782611da2565b60405190612b1482611da2565b601582527f697353656375726542617365286164647265737329000000000000000000000085830152612bc4565b9080612b5f575b156103725781611e669282518301019101612acb565b5081815114612b49565b3d15612b94573d90612b7a82611e1d565b91612b886040519384611dda565b82523d6000602084013e565b606090565b90612ba49291612bc4565b9060009015612bb1575090565b6040519150612bbf82611dbe565b815290565b803b15612c3e576000927fffffffff000000000000000000000000000000000000000000000000000000008360208695519101201690612c2e6024604051809360208201958652612c1e8151809260208686019101611e75565b8101036004810184520182611dda565b51915afa612c3a612b69565b9091565b505050600090604051612c5081611dbe565b6000815290565b9291612c6591600094612bc4565b9080612c9d575b612c735750565b9091506020818051810103126101e45760206001600160a01b03910151612c99816102ae565b1690565b506020815114612c6c565b9291612cb691600094612bc4565b9080612cd9575b612cc45750565b611e6691925060208082518301019101611f45565b506020815114612cbd565b90602082519201517fffffffff00000000000000000000000000000000000000000000000000000000908181169360048110612d1f57505050565b60040360031b82901b16169150565b6001600160a01b03811615610d5257600080918351908260208601915af190612d55612b69565b9115612d5f575090565b805160009190600411612ddb57612d769150612ce4565b815115612d865750805190602001fd5b6040517f21c09d340000000000000000000000000000000000000000000000000000000081527fffffffff00000000000000000000000000000000000000000000000000000000919091166004820152602490fd5b50612d7656fea2646970667358221220456b10d5ba763a56603090aa3b9de7bbca0a7f18be8aa0e78e98013a58f8ece364736f6c6343000814003360803461009957601f620025d538819003918201601f19168301916001600160401b0383118484101761009e5780849260209460405283398101031261009957516001600160a01b038116908190036100995780156100875760018060a01b031933816001541617600155600054161760005560016011556040516125209081620000b58239f35b60405163e6c4247b60e01b8152600490fd5b600080fd5b634e487b7160e01b600052604160045260246000fdfe60806040526004361015610018575b361561001657005b005b60003560e01c80631133b8861461018857806312065fe0146101835780631f185d161461017e578063339459a6146101795780633b9b7955146101745780633c00e40d1461016f5780636ec35cd51461016a5780638da5cb5b146101655780638dab13dc146101605780639498d88b1461015b5780639b03bea6146101565780639fb2726b14610151578063a1f7f5391461014c578063ae9568d714610147578063af48452614610142578063b90306ad1461013d578063c54e44b014610138578063d7a83fc614610133578063e01ad5fd1461012e578063e0a9bc2b14610129578063e3d1d5bf14610124578063f5caf38c1461011f5763fdc10bc90361000e576115d5565b611597565b61133c565b611321565b611256565b611216565b611190565b61108f565b61105e565b611014565b610f9f565b610dc0565b610d78565b610cfa565b610c57565b610c30565b610aaf565b610a40565b610a19565b610321565b610236565b61021a565b6101cb565b6001600160a01b0381160361019e57565b600080fd5b604090600319011261019e576004356101bb8161018d565b906024356101c88161018d565b90565b3461019e57602060ff61020e6001600160a01b036101e8366101a3565b9116600052601284526040600020906001600160a01b0316600052602052604060002090565b54166040519015158152f35b3461019e57600036600319011261019e57602047604051908152f35b3461019e5760208060031936011261019e576102b56004356102578161018d565b6001600160a01b0380600254169060405192168483015283825261027a82611686565b6040519061028782611686565b601182527f69735369676e657228616464726573732900000000000000000000000000000085830152612400565b919080610317575b156102ed5781816102d7926102e994518301019101612281565b60405190151581529081906020820190565b0390f35b60046040517f3204506f000000000000000000000000000000000000000000000000000000008152fd5b50808251146102bd565b3461019e57600036600319011261019e576103536103476000546001600160a01b031690565b6001600160a01b031690565b604051907f97f3815a000000000000000000000000000000000000000000000000000000008252602082600481845afa918215610849576000926109f8575b50604051917fcfbffe53000000000000000000000000000000000000000000000000000000008352602083600481855afa928315610849576000936109d7575b50604051907fab6e844f000000000000000000000000000000000000000000000000000000008252602082600481865afa918215610849576000926109b6575b50604051917f14d8d024000000000000000000000000000000000000000000000000000000008352602083600481875afa92831561084957600093610995575b50604051927fd1f956b1000000000000000000000000000000000000000000000000000000008452602084600481885afa93841561084957600094610974575b50604051937fe61dfd58000000000000000000000000000000000000000000000000000000008552602085600481895afa94851561084957600095610953575b506040517fe09d394d0000000000000000000000000000000000000000000000000000000081526020816004818a5afa90811561084957600091610934575b506040517f52b06d640000000000000000000000000000000000000000000000000000000081526020816004818b5afa90811561084957600091610915575b506040517f013cf08b00000000000000000000000000000000000000000000000000000000815260006004820152916020836024818c5afa928315610849576000936108f4575b50604051977f5e09dbe70000000000000000000000000000000000000000000000000000000089526020896004818d5afa948515610849576004996000966108d3575b5060208b6040519b8c80927faa0ddc160000000000000000000000000000000000000000000000000000000082525afa9687156108495760049a6000986108b2575b5060208c6040519c8d80927f640274270000000000000000000000000000000000000000000000000000000082525afa9889156108495760049b60009a610891575b5060208d6040519d8e80927f30125cf50000000000000000000000000000000000000000000000000000000082525afa9a8b15610849578d60049d60009d61086f575b506020906040519e8f80927f24768d910000000000000000000000000000000000000000000000000000000082525afa9c8d156108495760009d61084e575b50604051809e81907f9dc969a80000000000000000000000000000000000000000000000000000000082525a92600491602094fa9d8e156108495760009e610818575b5061072c6116e5565b6001600160a01b0390911681529d8e906001600160a01b031660208201526040019061076091906001600160a01b03169052565b6001600160a01b031660608d01526001600160a01b031660808c01526001600160a01b031660a08b01526001600160a01b031660c08a01526001600160a01b031660e08901526001600160a01b03166101008801526001600160a01b03166101208701526001600160a01b03166101408601526001600160a01b03166101608501526001600160a01b03166101808401526001600160a01b03166101a08301526001600160a01b03166101c082015261001690611f80565b61083b919e5060203d602011610842575b61083381836116c3565b81019061175b565b9c38610723565b503d610829565b611c1d565b610868919d5060203d6020116108425761083381836116c3565b9b386106e0565b6020919d5061088a90823d84116108425761083381836116c3565b9c906106a1565b6108ab919a5060203d6020116108425761083381836116c3565b983861065e565b6108cc91985060203d6020116108425761083381836116c3565b963861061c565b6108ed91965060203d6020116108425761083381836116c3565b94386105da565b61090e91935060203d6020116108425761083381836116c3565b9138610597565b61092e915060203d6020116108425761083381836116c3565b38610550565b61094d915060203d6020116108425761083381836116c3565b38610511565b61096d91955060203d6020116108425761083381836116c3565b93386104d2565b61098e91945060203d6020116108425761083381836116c3565b9238610492565b6109af91935060203d6020116108425761083381836116c3565b9138610452565b6109d091925060203d6020116108425761083381836116c3565b9038610412565b6109f191935060203d6020116108425761083381836116c3565b91386103d2565b610a1291925060203d6020116108425761083381836116c3565b9038610392565b3461019e57600036600319011261019e5760206001600160a01b0360005416604051908152f35b3461019e57602036600319011261019e576001600160a01b03600435610a658161018d565b1660005260186020526020604060002054604051908152f35b9181601f8401121561019e5782359167ffffffffffffffff831161019e576020808501948460051b01011161019e57565b3461019e57606036600319011261019e5767ffffffffffffffff6004803582811161019e57610ae19036908301610a7e565b919060243584811161019e57610afa9036908401610a7e565b909460443590811161019e57610b139036908501610a7e565b959093610b1e612296565b15610c2157610b2c3361231b565b8015610c0d575b15610bfe57868303610bd6575060005b828110610b4c57005b80610bd0610b5d6001938a89611bed565b35610b6781610db6565b6001600160a01b03610b7a848b8a611bed565b35610b848161018d565b166000526012602052610bbf6040600020610ba8610ba3868a8a611bed565b611c13565b6001600160a01b0316600052602052604060002090565b9060ff801983541691151516179055565b01610b43565b6040517fff633a38000000000000000000000000000000000000000000000000000000008152fd5b60405163ea8e4eb560e01b8152fd5b50336001600160a01b036005541614610b33565b604051634ee2123760e11b8152fd5b3461019e57600036600319011261019e5760206001600160a01b0360015416604051908152f35b3461019e57602036600319011261019e57600435610c748161018d565b6001600160a01b038091166000526015602052806040600020541690601660205260406000205416908060005260126020526102e960ff610ccc846040600020906001600160a01b0316600052602052604060002090565b54166040519384938491939260409160608401956001600160a01b0380921685521660208401521515910152565b3461019e57602036600319011261019e57600435610d178161018d565b610d1f612296565b15610d6757610d2d3361231b565b8015610d53575b15610d425761001690611d05565b600460405163ea8e4eb560e01b8152fd5b50336001600160a01b036005541614610d34565b6004604051634ee2123760e11b8152fd5b3461019e57602036600319011261019e576001600160a01b03600435610d9d8161018d565b1660005260176020526020604060002054604051908152f35b8015150361019e57565b3461019e57608036600319011261019e57600467ffffffffffffffff813581811161019e57610df29036908401610a7e565b9160243590811161019e57610e0a9036908501610a7e565b6044359391610e1885610db6565b606435610e23612296565b15610f8f57610e313361231b565b8015610f7b575b15610f6b57828403610f425760005b848110610e5057005b8615610f105781610e81610e68610ba384898b611bed565b6001600160a01b03166000526018602052604060002090565b5403610eb057876040517fe3913549000000000000000000000000000000000000000000000000000000008152fd5b8082610ec5610e68610ba36001958a8c611bed565b55610ed1818686611bed565b35610f07610eff610ee6610ba3858b8d611bed565b6001600160a01b03166000526017602052604060002090565b9182546117de565b90555b01610e47565b80610f1e6001928686611bed565b35610f3b610f33610ee6610ba3858b8d611bed565b918254611663565b9055610f0a565b866040517fff633a38000000000000000000000000000000000000000000000000000000008152fd5b8660405163ea8e4eb560e01b8152fd5b50336001600160a01b036005541614610e38565b86604051634ee2123760e11b8152fd5b3461019e57600036600319011261019e57602061100c6001600160a01b0360065416604051610fcd81611686565b601381527f67657464656c656761746f72436f756e742829000000000000000000000000008482015260405191611003836116a7565b600083526124ae565b604051908152f35b3461019e5760206110556001600160a01b0361102f366101a3565b9116600052601383526040600020906001600160a01b0316600052602052604060002090565b54604051908152f35b3461019e57602036600319011261019e5760206110856004356110808161018d565b61231b565b6040519015158152f35b3461019e57602036600319011261019e576004356001600160a01b03600554163303610d4257600090600460206110d061034785546001600160a01b031690565b604051928380927f46f991ac0000000000000000000000000000000000000000000000000000000082525afa80156108495783808481949382948391611172575b505af161111c6123a5565b50156102ed577fcdcc745fe377b103b45fa0cec23ae3ef93d6fc6a84a01f0d18c40b354dd1d5d861116c61115b610347600b546001600160a01b031690565b604051938452929081906020820190565b0390a280f35b61118a915060203d81116108425761083381836116c3565b38611111565b3461019e57602036600319011261019e576004356111ad8161018d565b803b60006111ba82611706565b926111c860405194856116c3565b82845260208401903c602d8151106111ec57602a602091015160601c604051908152f35b60046040517fbaf3f0f7000000000000000000000000000000000000000000000000000000008152fd5b3461019e57602036600319011261019e5760206004356112358161018d565b6001600160a01b038091166000526014825260406000205416604051908152f35b3461019e5760208060031936011261019e576102e990600435906112798261018d565b6112dd6001600160a01b03928360065416936040519116838201528281526112a081611686565b6040516112ac81611686565b601881527f697364656c656761746f724e6f6465286164647265737329000000000000000084820152600094612400565b919080611317575b6112fe575b505060405190151581529081906020820190565b61131092508082518301019101612281565b38806112ea565b50808251146112e5565b3461019e57600036600319011261019e576020611085612296565b3461019e5761134a366101a3565b611352612296565b15610d67576113603361231b565b8015611583575b15610d42576001600160a01b03918281168015611559578383168015611559570361138e57005b60009261152f926113c26113b5846001600160a01b03166000526016602052604060002090565b546001600160a01b031690565b916113e0846001600160a01b03166000526017602052604060002090565b546113fe836001600160a01b03166000526017602052604060002090565b5561145a6114226113b5866001600160a01b03166000526015602052604060002090565b61143f846001600160a01b03166000526015602052604060002090565b906001600160a01b03166001600160a01b0319825416179055565b61147b8361143f846001600160a01b03166000526016602052604060002090565b611498846001600160a01b03166000526018602052604060002090565b546114b6836001600160a01b03166000526018602052604060002090565b558216611532575b5050826114de826001600160a01b03166000526017602052604060002090565b5561150f6114ff826001600160a01b03166000526015602052604060002090565b6001600160a01b03198154169055565b610e686114ff826001600160a01b03166000526016602052604060002090565b55005b61143f611552926001600160a01b03166000526014602052604060002090565b38806114be565b60046040517fd92e233d000000000000000000000000000000000000000000000000000000008152fd5b50336001600160a01b036005541614611367565b3461019e57606036600319011261019e576100166004356115b78161018d565b6024356115c38161018d565b604435916115d083610db6565b6117eb565b3461019e57600036600319011261019e57602061100c6001600160a01b036003541660405161160381611686565b600681527f69416765282900000000000000000000000000000000000000000000000000008482015260405191611003836116a7565b634e487b7160e01b600052601160045260246000fd5b60001981019190821161165e57565b611639565b9190820391821161165e57565b634e487b7160e01b600052604160045260246000fd5b6040810190811067ffffffffffffffff8211176116a257604052565b611670565b6020810190811067ffffffffffffffff8211176116a257604052565b90601f8019910116810190811067ffffffffffffffff8211176116a257604052565b604051906101e0820182811067ffffffffffffffff8211176116a257604052565b67ffffffffffffffff81116116a257601f01601f191660200190565b6040519061172f82611686565b601682527f67657455736572546f496e7374286164647265737329000000000000000000006020830152565b9081602091031261019e57516101c88161018d565b60405161177c816116a7565b60008152906000368137565b6040519061179582611686565b601082527f6d61784d61707065644c696d69742829000000000000000000000000000000006020830152565b9081602091031261019e575190565b906001820180921161165e57565b9190820180921161165e57565b9161180c6113b5336001600160a01b03166000526014602052604060002090565b928115611aa0576001600160a01b0380821615611559578084169485156115595761187761187361186c33611854896001600160a01b03166000526012602052604060002090565b906001600160a01b0316600052602052604060002090565b5460ff1690565b1590565b611a76576118d86103476118c96118966004546001600160a01b031690565b604080516001600160a01b038916602080830191909152815291906118bb90836116c3565b6118c3611722565b906123d5565b6020808251830101910161175b565b156115595716611a4c5761194461191d61190e6118fd6003546001600160a01b031690565b611905611770565b906118c3611788565b602080825183010191016117c1565b61193e33611854876001600160a01b03166000526013602052604060002090565b54101590565b611a22576119ee8361198e7f73e162dc4d0165c5ab2c676b5ce1e58e8333a5e1b0e75ea3957f2ca0aa8abc2e9561143f856001600160a01b03166000526015602052604060002090565b6119af3361143f856001600160a01b03166000526016602052604060002090565b6119d08361143f336001600160a01b03166000526014602052604060002090565b61185433916001600160a01b03166000526013602052604060002090565b6119f881546117d0565b9055604080513381526001600160a01b0392909216602083015291151591810191909152606090a2565b60046040517fb111d8ef000000000000000000000000000000000000000000000000000000008152fd5b60046040517f548635ce000000000000000000000000000000000000000000000000000000008152fd5b60046040517f747845de000000000000000000000000000000000000000000000000000000008152fd5b5050506001600160a01b039081811615611be957611b606114ff611ada6113b5846001600160a01b03166000526015602052604060002090565b604080513381526001600160a01b038616602082015260009181019190915290948516939084907f73e162dc4d0165c5ab2c676b5ce1e58e8333a5e1b0e75ea3957f2ca0aa8abc2e90606090a2611b476114ff826001600160a01b03166000526015602052604060002090565b6001600160a01b03166000526016602052604060002090565b611b806114ff336001600160a01b03166000526014602052604060002090565b151580611bbf575b611b8f5750565b611bb19061185433916001600160a01b03166000526013602052604060002090565b611bbb815461164f565b9055565b50611be133611854836001600160a01b03166000526013602052604060002090565b541515611b88565b5050565b9190811015611bfd5760051b0190565b634e487b7160e01b600052603260045260246000fd5b356101c88161018d565b6040513d6000823e3d90fd5b604051906060820182811067ffffffffffffffff8211176116a257604052602482527f65737329000000000000000000000000000000000000000000000000000000006040837f67657456616c696461746f7244656c656761746f724f6655736572286164647260208201520152565b9081606091031261019e578051611caf8161018d565b9160406020830151611cc08161018d565b9201516101c881610db6565b60405190611cd982611686565b601182527f696e636f6d654f662861646472657373290000000000000000000000000000006020830152565b6001600160a01b039081811615611be957611d396103476113b5836001600160a01b03166000526015602052604060002090565b611be957611d526103476000546001600160a01b031690565b604051907f6325dd0400000000000000000000000000000000000000000000000000000000908183526020908184600481845afa918215610849578694600093611f61575b506040516001600160a01b038716828201908152611de291611dd49181906020010395611dcc601f19978881018452836116c3565b6118c3611c29565b828082518301019101611c99565b9890911697951693871580611f59575b611f4f57819060046040518095819382525afa96871561084957611eee61143f96611e6d8961185495611f2c9c611f07998b99600092611f2e575b50611e5f9192611e5360405195869283019190916001600160a01b036020820193169052565b039081018452836116c3565b611e67611ccc565b906124ae565b611e8a8a6001600160a01b03166000526017602052604060002090565b55611eac8361143f8b6001600160a01b03166000526015602052604060002090565b611ecd8561143f8b6001600160a01b03166000526016602052604060002090565b610bbf85611854856001600160a01b03166000526012602052604060002090565b6001600160a01b03166000526013602052604060002090565b611f1181546117d0565b90556001600160a01b03166000526014602052604060002090565b565b611e5f9250611f4990843d86116108425761083381836116c3565b91611e2d565b5050505050505050565b508415611df2565b81611f799294503d85116108425761083381836116c3565b9138611d97565b6122656101c0611f2c92611fba611f9e82516001600160a01b031690565b6001600160a01b03166001600160a01b03196002541617600255565b611fed611fd160208301516001600160a01b031690565b6001600160a01b03166001600160a01b03196003541617600355565b61202061200460408301516001600160a01b031690565b6001600160a01b03166001600160a01b03196004541617600455565b61205361203760608301516001600160a01b031690565b6001600160a01b03166001600160a01b03196005541617600555565b61208661206a60808301516001600160a01b031690565b6001600160a01b03166001600160a01b03196006541617600655565b6120b961209d60a08301516001600160a01b031690565b6001600160a01b03166001600160a01b03196007541617600755565b6120ec6120d060c08301516001600160a01b031690565b6001600160a01b03166001600160a01b03196008541617600855565b61211f61210360e08301516001600160a01b031690565b6001600160a01b03166001600160a01b03196009541617600955565b6121536121376101008301516001600160a01b031690565b6001600160a01b03166001600160a01b0319600a541617600a55565b61218761216b6101208301516001600160a01b031690565b6001600160a01b03166001600160a01b0319600b541617600b55565b6121bb61219f6101408301516001600160a01b031690565b6001600160a01b03166001600160a01b0319600c541617600c55565b6121ef6121d36101608301516001600160a01b031690565b6001600160a01b03166001600160a01b0319600d541617600d55565b6122236122076101808301516001600160a01b031690565b6001600160a01b03166001600160a01b0319600e541617600e55565b61225761223b6101a08301516001600160a01b031690565b6001600160a01b03166001600160a01b0319600f541617600f55565b01516001600160a01b031690565b6001600160a01b03166001600160a01b03196010541617601055565b9081602091031261019e57516101c881610db6565b6122f16001600160a01b03600254166040516122b181611686565b600881527f69735361666528290000000000000000000000000000000000000000000000006020820152604051916122e8836116a7565b60008352612400565b9080612310575b156102ed57806020806101c893518301019101612281565b5060208151146122f8565b61237e6001600160a01b03806002541660405191602094168483015283825261234382611686565b6040519061235082611686565b601582527f697353656375726542617365286164647265737329000000000000000000000085830152612400565b908061239b575b156102ed57816101c89282518301019101612281565b5081815114612385565b3d156123d0573d906123b682611706565b916123c460405193846116c3565b82523d6000602084013e565b606090565b906123e09291612400565b90600090156123ed575090565b60405191506123fb826116a7565b815290565b9190823b15612495577fffffffff00000000000000000000000000000000000000000000000000000000815160208093012016916040519180830193845281519160005b838110612481575050509181612471602482600097959688970187838201520360048101845201826116c3565b51915afa61247d6123a5565b9091565b818101830151858201602401528201612444565b5050506000906040516124a7816116a7565b6000815290565b92916124bc91600094612400565b90806124df575b6124ca5750565b6101c8919250602080825183010191016117c1565b5060208151146124c356fea2646970667358221220135d826849ca196e69f139d3a7ad42feb1c0585beb11a979a9ed1fbc482635f664736f6c634300081400336080806040523462001c1f576200003962004c5e91823803809362000025828462001c5c565b82396001600160a01b039281019062001c80565b16801562001c0d57600180546001600160a01b03199081163317825560008054909116831790554260115560a760255561010e602655601e602b55602c819055602d8190556002602e5561c350602f5561025860308190556003603155601960325568878678326eac900000603355670de0b6b3a764000060345569021e19e0c9bab240000060355560369190915561038460375560056046556047805460ff1916905560405160e081016001600160401b0381118282101762001bf757829160c0916040526002815260646020820152600160408201526023606082015260646080820152600160a0820152015260026016556064601755600160185560236019556064601a556001601b5580601c5560b460606200015862001ca1565b60198152600a6020820152605a604082015201526019601d55600a601e55605a601f5560b46020556200018a62001ca1565b600581526001602082015260b460606101689283604082015201526005602155600160225560235560b4602455600160a0620001c562001cd7565b6003815260036020820152826040820152826060820152826080820152015260036027556003602855630101010163ffffffff1960295416176029556200020b62001ca1565b81606061014092838152600b6020820152600a60408201520152603855600b603955600a603a5580603b558060606200024362001ca1565b60d28152600b6020820152600a6040820152015260d2603c55600b603d55600a603e55603f556200027362001cd7565b90604051635e09dbe760e01b8152602081600481855afa91821562001bc95760049260209260009162001bd5575b506001600160a01b03168452605f828501526001604080860191909152516311be646b60e21b815292839182905afa801562001bc95760409160009162001b93575b506001600160a01b0390811660608401819052600560808501819052600160a086018190528551855494166001600160a01b031994851617855560208601516041559390940151604255604380549092161790556044919091556045556040516200043490620003538162001c24565b60008082526020808301828152604084018381526060850184815261270f60808701908152948052601390935293517f8fa6efc3be94b5b348b21fea823fe8d100408cee9b7f90524494500445d8ff6c55517f8fa6efc3be94b5b348b21fea823fe8d100408cee9b7f90524494500445d8ff6d5591517f8fa6efc3be94b5b348b21fea823fe8d100408cee9b7f90524494500445d8ff6e5590517f8fa6efc3be94b5b348b21fea823fe8d100408cee9b7f90524494500445d8ff6f55517f8fa6efc3be94b5b348b21fea823fe8d100408cee9b7f90524494500445d8ff7055565b6200052d604051620004468162001c24565b60078152601960208083019182526000604084018181526060850182815261270f608087019081526001909352601390935293517f4155c2f711f2cdd34f8262ab8fb9b7020a700fe7b6948222152f7670d1fdf34d5591517f4155c2f711f2cdd34f8262ab8fb9b7020a700fe7b6948222152f7670d1fdf34e5591517f4155c2f711f2cdd34f8262ab8fb9b7020a700fe7b6948222152f7670d1fdf34f5590517f4155c2f711f2cdd34f8262ab8fb9b7020a700fe7b6948222152f7670d1fdf35055517f4155c2f711f2cdd34f8262ab8fb9b7020a700fe7b6948222152f7670d1fdf35155565b620006266040516200053f8162001c24565b60078152606460208083019182526000604084018181526060850182815261270f608087019081526002909352601390935293517f0b9d2c0c271bb30544eb78c59bdaebdae2728e5f65814c07768a0abe90ed19235591517f0b9d2c0c271bb30544eb78c59bdaebdae2728e5f65814c07768a0abe90ed19245591517f0b9d2c0c271bb30544eb78c59bdaebdae2728e5f65814c07768a0abe90ed19255590517f0b9d2c0c271bb30544eb78c59bdaebdae2728e5f65814c07768a0abe90ed192655517f0b9d2c0c271bb30544eb78c59bdaebdae2728e5f65814c07768a0abe90ed192755565b62000720604051620006388162001c24565b600781526101f46020808301918252600360408401818152600060608601818152601e6080880190815293909152601390935293517f0d2a6872ef858a7f8ead18dc4f3f2e8d35c853d47e2816cbb9cdd49202554e0c5591517f0d2a6872ef858a7f8ead18dc4f3f2e8d35c853d47e2816cbb9cdd49202554e0d5591517f0d2a6872ef858a7f8ead18dc4f3f2e8d35c853d47e2816cbb9cdd49202554e0e5590517f0d2a6872ef858a7f8ead18dc4f3f2e8d35c853d47e2816cbb9cdd49202554e0f55517f0d2a6872ef858a7f8ead18dc4f3f2e8d35c853d47e2816cbb9cdd49202554e1055565b6200081c604051620007328162001c24565b600781526107d06020808301918252600460408401818152600360608601908152601e60808701908152600093909352601390935293517f01413ff7a3b1d5b6c016c061d48e2c7014700c777a29fcd068fff04265813d5d5591517f01413ff7a3b1d5b6c016c061d48e2c7014700c777a29fcd068fff04265813d5e5591517f01413ff7a3b1d5b6c016c061d48e2c7014700c777a29fcd068fff04265813d5f5590517f01413ff7a3b1d5b6c016c061d48e2c7014700c777a29fcd068fff04265813d6055517f01413ff7a3b1d5b6c016c061d48e2c7014700c777a29fcd068fff04265813d6155565b620009156040516200082e8162001c24565b6007815261138860208083019182526004604084018181526060850191825261270f608086019081526005600052601390935293517ff4b2859895858d6aa26d656e4999d552f6a869b74c43bba7d2a941c4d22c35595591517ff4b2859895858d6aa26d656e4999d552f6a869b74c43bba7d2a941c4d22c355a5591517ff4b2859895858d6aa26d656e4999d552f6a869b74c43bba7d2a941c4d22c355b55517ff4b2859895858d6aa26d656e4999d552f6a869b74c43bba7d2a941c4d22c355c55517ff4b2859895858d6aa26d656e4999d552f6a869b74c43bba7d2a941c4d22c355d55565b62000a0e604051620009278162001c24565b6007815261271060208083019182526004604084018181526060850191825261270f608086019081526006600052601390935293517f709d0e3cf89777a1e1f9c99632e4494f29b0327befd0df15e277a12d948257955591517f709d0e3cf89777a1e1f9c99632e4494f29b0327befd0df15e277a12d948257965591517f709d0e3cf89777a1e1f9c99632e4494f29b0327befd0df15e277a12d9482579755517f709d0e3cf89777a1e1f9c99632e4494f29b0327befd0df15e277a12d9482579855517f709d0e3cf89777a1e1f9c99632e4494f29b0327befd0df15e277a12d9482579955565b62000b0960405162000a208162001c24565b60078082526161a860208084019182526004604085018181526060860191825261270f60808701908152600095909552601390925293517f8ba6fb577925b0796671c737df59b8aaae861b630513fb12823699e3e0e3ee605590517f8ba6fb577925b0796671c737df59b8aaae861b630513fb12823699e3e0e3ee6155517f8ba6fb577925b0796671c737df59b8aaae861b630513fb12823699e3e0e3ee625590517f8ba6fb577925b0796671c737df59b8aaae861b630513fb12823699e3e0e3ee6355517f8ba6fb577925b0796671c737df59b8aaae861b630513fb12823699e3e0e3ee6455565b62000bff60405162000b1b8162001c24565b6000808252600660208084019182526001604085018181526005606087019081526080870183815292909552601590925293517f27739e4bb5e6f8b5e4b57a047dca8767cc9b982a011081e086cbb0dfa9de818d5590517f27739e4bb5e6f8b5e4b57a047dca8767cc9b982a011081e086cbb0dfa9de818e55517f27739e4bb5e6f8b5e4b57a047dca8767cc9b982a011081e086cbb0dfa9de818f55517f27739e4bb5e6f8b5e4b57a047dca8767cc9b982a011081e086cbb0dfa9de819055517f27739e4bb5e6f8b5e4b57a047dca8767cc9b982a011081e086cbb0dfa9de819155565b62000cf660405162000c118162001c24565b600080825260036020808401918252600160408501818152600560608701908152608087019283526002909552601590925293517f07d4ff730d9753101d832555708a37d38c2c45fce8cacaefc99f06074e93fe0b5590517f07d4ff730d9753101d832555708a37d38c2c45fce8cacaefc99f06074e93fe0c55517f07d4ff730d9753101d832555708a37d38c2c45fce8cacaefc99f06074e93fe0d55517f07d4ff730d9753101d832555708a37d38c2c45fce8cacaefc99f06074e93fe0e55517f07d4ff730d9753101d832555708a37d38c2c45fce8cacaefc99f06074e93fe0f55565b62000df060405162000d088162001c24565b60028152600f6020808301918252600a604084019081526005606085019081526001608086019081526003600052601590935293517fb3a65e8276bd33b3e4f7d6081ebd9899187264822358758dca2e2bc37b2a9c275591517fb3a65e8276bd33b3e4f7d6081ebd9899187264822358758dca2e2bc37b2a9c285590517fb3a65e8276bd33b3e4f7d6081ebd9899187264822358758dca2e2bc37b2a9c295590517fb3a65e8276bd33b3e4f7d6081ebd9899187264822358758dca2e2bc37b2a9c2a55517fb3a65e8276bd33b3e4f7d6081ebd9899187264822358758dca2e2bc37b2a9c2b55565b62000eea60405162000e028162001c24565b60028152600f6020808301918252600a604084019081526005606085019081526001608086019081526004600052601590935293517f8191f4eb6b8bafbfe9a5389c8d07d7f5fd81137a7ee653fc4358269845ee1d2e5591517f8191f4eb6b8bafbfe9a5389c8d07d7f5fd81137a7ee653fc4358269845ee1d2f5590517f8191f4eb6b8bafbfe9a5389c8d07d7f5fd81137a7ee653fc4358269845ee1d305590517f8191f4eb6b8bafbfe9a5389c8d07d7f5fd81137a7ee653fc4358269845ee1d3155517f8191f4eb6b8bafbfe9a5389c8d07d7f5fd81137a7ee653fc4358269845ee1d3255565b62000fe460405162000efc8162001c24565b60028152600f6020808301918252600a60408401908152600560608501818152600160808701908152600092909252601590935293517fbab719002e4be320868650dc7456e9a1d245e4d5dd64765588e2f21529d871d35591517fbab719002e4be320868650dc7456e9a1d245e4d5dd64765588e2f21529d871d45590517fbab719002e4be320868650dc7456e9a1d245e4d5dd64765588e2f21529d871d555517fbab719002e4be320868650dc7456e9a1d245e4d5dd64765588e2f21529d871d655517fbab719002e4be320868650dc7456e9a1d245e4d5dd64765588e2f21529d871d755565b6200196260405162000ff68162001c24565b60028152604b602080830182815260646040850181815260fa60608701818152608088019384526006600052601590955295517f25847c9ccf691da811a9f934d6b3b92e6062ef92feb71bf4cb08cbb4fad8d6525591517f25847c9ccf691da811a9f934d6b3b92e6062ef92feb71bf4cb08cbb4fad8d6535590517f25847c9ccf691da811a9f934d6b3b92e6062ef92feb71bf4cb08cbb4fad8d6545590517f25847c9ccf691da811a9f934d6b3b92e6062ef92feb71bf4cb08cbb4fad8d65555517f25847c9ccf691da811a9f934d6b3b92e6062ef92feb71bf4cb08cbb4fad8d6565590620011ce604051620010ed8162001c24565b60028152602080820185815260646040840181815260608501878152608086019283526007600052601590945293517f5d0f48e37dc1225cdee8d6f2a0315d796f55423522fe638d7d95421802dfc0065590517f5d0f48e37dc1225cdee8d6f2a0315d796f55423522fe638d7d95421802dfc0075591517f5d0f48e37dc1225cdee8d6f2a0315d796f55423522fe638d7d95421802dfc00855517f5d0f48e37dc1225cdee8d6f2a0315d796f55423522fe638d7d95421802dfc00955517f5d0f48e37dc1225cdee8d6f2a0315d796f55423522fe638d7d95421802dfc00a55565b620012c1604051620011e08162001c24565b60028152602080820185815260646040840181815260608501878152608086019283526008600052601590945293517f2d0e46a571fdfbe57c7c718891a8a12999c102dfffa2b3314ea165dedd1684f55590517f2d0e46a571fdfbe57c7c718891a8a12999c102dfffa2b3314ea165dedd1684f65591517f2d0e46a571fdfbe57c7c718891a8a12999c102dfffa2b3314ea165dedd1684f755517f2d0e46a571fdfbe57c7c718891a8a12999c102dfffa2b3314ea165dedd1684f855517f2d0e46a571fdfbe57c7c718891a8a12999c102dfffa2b3314ea165dedd1684f955565b620013b4604051620012d38162001c24565b60028152602080820185815260646040840181815260608501878152608086019283526009600052601590945293517f497613c0658032a90a449a944031c57b1d03996c3a6148fe12146c45cf3214005590517f497613c0658032a90a449a944031c57b1d03996c3a6148fe12146c45cf3214015591517f497613c0658032a90a449a944031c57b1d03996c3a6148fe12146c45cf32140255517f497613c0658032a90a449a944031c57b1d03996c3a6148fe12146c45cf32140355517f497613c0658032a90a449a944031c57b1d03996c3a6148fe12146c45cf32140455565b620014a7604051620013c68162001c24565b6002815260208082018581526064604084018181526060850187815260808601928352600a600052601590945293517f0cfcac9f3767130657d3b01a9146da544eeb39eb9670066ace5e84da7fc4319f5590517f0cfcac9f3767130657d3b01a9146da544eeb39eb9670066ace5e84da7fc431a05591517f0cfcac9f3767130657d3b01a9146da544eeb39eb9670066ace5e84da7fc431a155517f0cfcac9f3767130657d3b01a9146da544eeb39eb9670066ace5e84da7fc431a255517f0cfcac9f3767130657d3b01a9146da544eeb39eb9670066ace5e84da7fc431a355565b6200159a604051620014b98162001c24565b6002815260208082018581526064604084018181526060850187815260808601928352600b600052601590945293517fcaeae41dfed97dfd8c41876ff591faa3e36cda388621c550caa3321a2a624e5f5590517fcaeae41dfed97dfd8c41876ff591faa3e36cda388621c550caa3321a2a624e605591517fcaeae41dfed97dfd8c41876ff591faa3e36cda388621c550caa3321a2a624e6155517fcaeae41dfed97dfd8c41876ff591faa3e36cda388621c550caa3321a2a624e6255517fcaeae41dfed97dfd8c41876ff591faa3e36cda388621c550caa3321a2a624e6355565b6200168d604051620015ac8162001c24565b6002815260208082018581526064604084018181526060850187815260808601928352600c600052601590945293517f74c10a04815bbeaf3165dab0bd11b69aae73edf00a48b27ec8c53ac5b61d47fd5590517f74c10a04815bbeaf3165dab0bd11b69aae73edf00a48b27ec8c53ac5b61d47fe5591517f74c10a04815bbeaf3165dab0bd11b69aae73edf00a48b27ec8c53ac5b61d47ff55517f74c10a04815bbeaf3165dab0bd11b69aae73edf00a48b27ec8c53ac5b61d480055517f74c10a04815bbeaf3165dab0bd11b69aae73edf00a48b27ec8c53ac5b61d480155565b620017806040516200169f8162001c24565b6002815260208082018581526064604084018181526060850187815260808601928352600d600052601590945293517fe3e3bb3f660b5aca6f44f8cdafd6456c07cd53888341ab748ffc02d532ccc70e5590517fe3e3bb3f660b5aca6f44f8cdafd6456c07cd53888341ab748ffc02d532ccc70f5591517fe3e3bb3f660b5aca6f44f8cdafd6456c07cd53888341ab748ffc02d532ccc71055517fe3e3bb3f660b5aca6f44f8cdafd6456c07cd53888341ab748ffc02d532ccc71155517fe3e3bb3f660b5aca6f44f8cdafd6456c07cd53888341ab748ffc02d532ccc71255565b62001873604051620017928162001c24565b6002815260208082018581526064604084018181526060850187815260808601928352600e600052601590945293517f39f65be0de5254440eb2b93b160b1af3a4f45fe0571eaea7ef454b27b7f02d185590517f39f65be0de5254440eb2b93b160b1af3a4f45fe0571eaea7ef454b27b7f02d195591517f39f65be0de5254440eb2b93b160b1af3a4f45fe0571eaea7ef454b27b7f02d1a55517f39f65be0de5254440eb2b93b160b1af3a4f45fe0571eaea7ef454b27b7f02d1b55517f39f65be0de5254440eb2b93b160b1af3a4f45fe0571eaea7ef454b27b7f02d1c55565b60405191620018828362001c24565b6002835260208084019182526064604085018181526060860194855260808601918252600f600052601590925293517f3bda72f6153f13a10a865b9a6397e1123f4aa6a1726e0e1349cd07eb0e24d8155590517f3bda72f6153f13a10a865b9a6397e1123f4aa6a1726e0e1349cd07eb0e24d81655517f3bda72f6153f13a10a865b9a6397e1123f4aa6a1726e0e1349cd07eb0e24d81755517f3bda72f6153f13a10a865b9a6397e1123f4aa6a1726e0e1349cd07eb0e24d81855517f3bda72f6153f13a10a865b9a6397e1123f4aa6a1726e0e1349cd07eb0e24d81955565b604051620019708162001c40565b60128152600a6020808301918252602d60408085019182526003600052601490925292517f63d87a887046e0430be80fdeb014107d7198c879cbf2cddf39a6df195c86cb385590517f63d87a887046e0430be80fdeb014107d7198c879cbf2cddf39a6df195c86cb395590517f63d87a887046e0430be80fdeb014107d7198c879cbf2cddf39a6df195c86cb3a555162001a0a8162001c40565b60128152600a6020808301918252605a60408085019182526005600052601490925292517f116126bec5aaa49b347e966c49378cf0c441de9121e306ea3d824584a9615aa25590517f116126bec5aaa49b347e966c49378cf0c441de9121e306ea3d824584a9615aa35590517f116126bec5aaa49b347e966c49378cf0c441de9121e306ea3d824584a9615aa4555162001aa48162001c40565b60098152600a602080830191825261270f6040808501918252600760009081526014845294517f904977a779b22381a36c6463d4166ef55ee8cb3392c83093cb1750f1a00c9d945592517f904977a779b22381a36c6463d4166ef55ee8cb3392c83093cb1750f1a00c9d9555517f904977a779b22381a36c6463d4166ef55ee8cb3392c83093cb1750f1a00c9d96556012905260327f8e1fee8c88a9e04123b21e90cae2727a7715bf522a1e46eb5934ccd05203a6b25560049091526101f47fb4fcd034df3d20faa1c133b66d862ce92732727d40916b48ffb4020cb00fe0535551612f43908162001d1b8239f35b62001bba915060203d60201162001bc1575b62001bb1818362001c5c565b81019062001c80565b38620002e3565b503d62001ba5565b6040513d6000823e3d90fd5b62001bf09150833d851162001bc15762001bb1818362001c5c565b38620002a1565b634e487b7160e01b600052604160045260246000fd5b60405163e6c4247b60e01b8152600490fd5b600080fd5b60a081019081106001600160401b0382111762001bf757604052565b606081019081106001600160401b0382111762001bf757604052565b601f909101601f19168101906001600160401b0382119082101762001bf757604052565b9081602091031262001c1f57516001600160a01b038116810362001c1f5790565b60405190608082016001600160401b0381118382101762001bf75760405260006060838281528260208201528260408201520152565b6040519060c082016001600160401b0381118382101762001bf7576040528160a0600091828152826020820152826040820152826060820152826080820152015256fe60806040526004361015610018575b361561001657005b005b60003560e01c806304ce9f80146104985780630609a0e31461049357806307175c831461048e57806309307c62146104895780630aa4b750146104845780630b225f1a1461047f5780630ea0d2221461047a57806312065fe01461047557806314be92a51461047057806315a544ed1461046b5780631605aed91461046657806316f0115b14610461578063179b570a1461045c578063192b48ee146104575780631ef6a864146104525780631f185d161461044d578063203bab661461044857806326c5adae14610443578063298fc4601461043e578063339459a6146104395780633688236d146104345780633b9b79551461042f5780633eb71c061461042a5780634151331d14610425578063438fe1921461042057806344ec16bc1461041b5780634b62954f1461041657806353423e8614610411578063541d76671461040c57806354541683146104075780635640dbfc14610402578063592a02a8146103fd5780635962205f146103f85780635a0e9038146103f35780636c7deb5d146103ee5780636f092c5e146103e95780637687e371146103e457806378ef376f146103df5780637bc908c6146103da57806382a3c503146103d5578063840bbc1e146103d05780638da5cb5b146103cb57806391fc8aa8146103c65780639319d0b5146103c15780639d80ab9b146103bc5780639eb8b44e146103b75780639f70207d146103b2578063a19841dd146103ad578063a1f7f539146103a8578063a88fcea6146103a3578063ac14611a1461039e578063aebcd32a14610399578063af0b21d314610394578063af4845261461038f578063b49c064c1461038a578063b85f1f8d14610385578063b90306ad14610380578063c54e44b01461037b578063c5a136d414610376578063d0bb2ddf14610371578063dbad649c1461036c578063e01ad5fd14610367578063e0a9bc2b14610362578063e19a5bcf1461035d578063e6a7791914610358578063eddd0d9c14610353578063f27c35c61461034e578063f2a6bbc714610349578063f4fe8e3c14610344578063f7a9783e1461033f578063fc0e74d11461033a5763fdc10bc90361000e576126b3565b612690565b612617565b6125ab565b61255c565b6124b1565b612462565b612368565b6122ac565b612291565b6121c6565b6121a8565b612152565b6120b5565b61202f565b611f2e565b611ef4565b611ed1565b611ea0565b611e82565b611e1a565b611dc8565b611daa565b611d35565b611cfb565b611cdd565b611b06565b611a87565b611a38565b611a1a565b6119f3565b61197a565b6118d6565b6118b8565b611869565b611801565b6117d5565b611786565b61174d565b6116e5565b6115e6565b611565565b611547565b6114d1565b6114b3565b61145e565b61140f565b6113f1565b6113ae565b61135f565b611338565b61131a565b610c37565b610bcf565b610ae5565b610a5a565b610973565b6108ac565b61081c565b6107c7565b610776565b610758565b61073a565b6106eb565b6106cf565b6106b1565b610693565b610675565b610620565b610602565b61055f565b3461055a57604036600319011261055a57600080808060243560043560018114610524575b6002146104f2575b50906104ee91604051948594859094939260609260808301968352602083015260408201520152565b0390f35b6021546022546023546025549297509095506104ee945092501161051c576026545b9290916104c5565b602454610514565b935093505050601d5491601e54601f54918060255411156000146105505760026026545b9490506104bd565b6002602054610548565b600080fd5b3461055a57602036600319011261055a57610578612b82565b156105d85761058633612c07565b80156105c4575b1561059a57600435602b55005b60046040517fea8e4eb5000000000000000000000000000000000000000000000000000000008152fd5b50336001600160a01b03600554161461058d565b60046040517f9dc4246e000000000000000000000000000000000000000000000000000000008152fd5b3461055a57600036600319011261055a576020603254604051908152f35b3461055a57604036600319011261055a57610639612b82565b156105d85761064733612c07565b8015610661575b1561059a57600435603455602435603555005b50336001600160a01b03600554161461064e565b3461055a57600036600319011261055a576020603754604051908152f35b3461055a57600036600319011261055a576020604654604051908152f35b3461055a57600036600319011261055a576020603054604051908152f35b3461055a57600036600319011261055a57602047604051908152f35b3461055a57602036600319011261055a57610704612b82565b156105d85761071233612c07565b8015610726575b1561059a57600435603055005b50336001600160a01b036005541614610719565b3461055a57600036600319011261055a576020603554604051908152f35b3461055a57600036600319011261055a576020603454604051908152f35b3461055a57600036600319011261055a5760e0601654601754601854601954601a5490601b5492601c5494604051968752602087015260408601526060850152608084015260a083015260c0820152f35b3461055a57604036600319011261055a576107e0612b82565b156105d8576107ee33612c07565b8015610808575b1561059a57600435602555602435602655005b50336001600160a01b0360055416146107f5565b3461055a57602036600319011261055a57600435610838612b82565b156105d85761084633612c07565b8015610876575b1561059a57670de0b6b3a76400009081810291818304149015171561087157603355005b612dad565b50336001600160a01b03600554161461084d565b60a090600319011261055a576004359060243590604435906064359060843590565b3461055a576108ba3661088a565b906108c794929394612b82565b156105d8576108d533612c07565b801561094e575b1561059a576002936108ec612e5e565b9586526020860152604085015260608401526001811461092c575b1461090e57005b8051603c556020810151603d556040810151603e5560600151603f55005b825160385560208301516039556040830151603a556060830151603b55610907565b50336001600160a01b0360055416146108dc565b6001600160a01b0381160361055a57565b3461055a5760208060031936011261055a576109f260043561099481610962565b6001600160a01b038060025416906040519216848301528382526109b7826127a2565b604051906109c4826127a2565b601182527f69735369676e657228616464726573732900000000000000000000000000000085830152612cc1565b919080610a50575b15610a26578181610a14926104ee94518301019101612b6d565b60405190151581529081906020820190565b60046040517f3204506f000000000000000000000000000000000000000000000000000000008152fd5b50808251146109fa565b3461055a5760e036600319011261055a57610a73612b82565b156105d857610a8133612c07565b8015610ad1575b1561059a57610a9860405161272d565b600435601655602435601755604435601855606435601955610abb608435601a55565b610ac660a435601b55565b61001660c435601c55565b50336001600160a01b036005541614610a88565b3461055a57602036600319011261055a57600460206001600160a01b0360005416604051928380926369e8d84b60e11b82525afa8015610bc057610b4391600091610b92575b50610b34612ebc565b90610b3d612ed4565b90612d6f565b60325490670de0b6b3a764000091828102928184041490151715610871576104ee91610b7d610b8292610b7860043593612dc3565b612df3565b612de0565b6040519081529081906020820190565b610bb3915060203d8111610bb9575b610bab81836127da565b8101906127fc565b38610b2b565b503d610ba1565b612814565b8015150361055a57565b3461055a57602036600319011261055a57600435610bec81610bc5565b610bf4612b82565b156105d857610c0233612c07565b8015610c23575b1561059a5760ff8019604754169115151617604755600080f35b50336001600160a01b036005541614610c09565b3461055a57600036600319011261055a57610c69610c5d6000546001600160a01b031690565b6001600160a01b031690565b604051907f97f3815a000000000000000000000000000000000000000000000000000000008252602082600481845afa918215610bc0576000926112f9575b50604051917fcfbffe53000000000000000000000000000000000000000000000000000000008352602083600481855afa928315610bc0576000936112d8575b50604051907fab6e844f000000000000000000000000000000000000000000000000000000008252602082600481865afa918215610bc0576000926112b7575b50604051917f14d8d024000000000000000000000000000000000000000000000000000000008352602083600481875afa928315610bc057600093611296575b50604051927fd1f956b1000000000000000000000000000000000000000000000000000000008452602084600481885afa938415610bc057600094611275575b50604051937fe61dfd58000000000000000000000000000000000000000000000000000000008552602085600481895afa948515610bc057600095611254575b506040517fe09d394d0000000000000000000000000000000000000000000000000000000081526020816004818a5afa908115610bc057600091611235575b506040517f52b06d640000000000000000000000000000000000000000000000000000000081526020816004818b5afa908115610bc057600091611216575b506040517f013cf08b00000000000000000000000000000000000000000000000000000000815260006004820152916020836024818c5afa928315610bc0576000936111f5575b50604051977f5e09dbe70000000000000000000000000000000000000000000000000000000089526020896004818d5afa948515610bc0576004996000966111d4575b5060208b6040519b8c80927faa0ddc160000000000000000000000000000000000000000000000000000000082525afa968715610bc05760049a6000986111b3575b5060208c6040519c8d80927f640274270000000000000000000000000000000000000000000000000000000082525afa988915610bc05760049b60009a611192575b5060208d6040519d8e80927f30125cf50000000000000000000000000000000000000000000000000000000082525afa9a8b15610bc0578d60049d60009d611170575b506020906040519e8f80927f24768d910000000000000000000000000000000000000000000000000000000082525afa9c8d15610bc05760009d61114f575b50604051809e81907f9dc969a80000000000000000000000000000000000000000000000000000000082525a92600491602094fa9d8e15610bc05760009e61112e575b50611042612820565b6001600160a01b0390911681529d8e906001600160a01b031660208201526040019061107691906001600160a01b03169052565b6001600160a01b031660608d01526001600160a01b031660808c01526001600160a01b031660a08b01526001600160a01b031660c08a01526001600160a01b031660e08901526001600160a01b03166101008801526001600160a01b03166101208701526001600160a01b03166101408601526001600160a01b03166101608501526001600160a01b03166101808401526001600160a01b03166101a08301526001600160a01b03166101c082015261001690612850565b611148919e5060203d602011610bb957610bab81836127da565b9c38611039565b611169919d5060203d602011610bb957610bab81836127da565b9b38610ff6565b6020919d5061118b90823d8411610bb957610bab81836127da565b9c90610fb7565b6111ac919a5060203d602011610bb957610bab81836127da565b9838610f74565b6111cd91985060203d602011610bb957610bab81836127da565b9638610f32565b6111ee91965060203d602011610bb957610bab81836127da565b9438610ef0565b61120f91935060203d602011610bb957610bab81836127da565b9138610ead565b61122f915060203d602011610bb957610bab81836127da565b38610e66565b61124e915060203d602011610bb957610bab81836127da565b38610e27565b61126e91955060203d602011610bb957610bab81836127da565b9338610de8565b61128f91945060203d602011610bb957610bab81836127da565b9238610da8565b6112b091935060203d602011610bb957610bab81836127da565b9138610d68565b6112d191925060203d602011610bb957610bab81836127da565b9038610d28565b6112f291935060203d602011610bb957610bab81836127da565b9138610ce8565b61131391925060203d602011610bb957610bab81836127da565b9038610ca8565b3461055a57600036600319011261055a576020602f54604051908152f35b3461055a57600036600319011261055a5760206001600160a01b0360005416604051908152f35b3461055a57602036600319011261055a57611378612b82565b156105d85761138633612c07565b801561139a575b1561059a57600435603755005b50336001600160a01b03600554161461138d565b3461055a57602036600319011261055a57600435600052601460205260606040600020805490600260018201549101549060405192835260208301526040820152f35b3461055a57600036600319011261055a576020602d54604051908152f35b3461055a57602036600319011261055a57611428612b82565b156105d85761143633612c07565b801561144a575b1561059a57600435602c55005b50336001600160a01b03600554161461143d565b3461055a57604036600319011261055a57611477612b82565b156105d85761148533612c07565b801561149f575b1561059a57600435602e55602435602f55005b50336001600160a01b03600554161461148c565b3461055a57600036600319011261055a576020603154604051908152f35b3461055a57602036600319011261055a57600460206001600160a01b0360005416604051928380926369e8d84b60e11b82525afa8015610bc057611526610b82916104ee93600091610b925750610b34612ebc565b6004356000526012602052610b78611542604060002054612dc3565b612dc3565b3461055a57600036600319011261055a576020602c54604051908152f35b3461055a57600036600319011261055a5760c060275460ff60285460295490604051938452602084015281811615156040840152818160081c1615156060840152818160101c161515608084015260181c16151560a0820152f35b60c090600319011261055a57600435906024359060443590606435906084359060a43590565b3461055a576115f4366115c0565b90611600959295612b82565b156105d85761160e33612c07565b80156116d1575b1561059a57601083101561168d576100169561165e94604051966116388861274e565b875260208701526040860152606085015260808401526000526015602052604060002090565b906080600491805184556020810151600185015560408101516002850155606081015160038501550151910155565b606460405162461bcd60e51b815260206004820152600d60248201527f696e76616c6964206c6576656c000000000000000000000000000000000000006044820152fd5b50336001600160a01b036005541614611615565b3461055a57602036600319011261055a576004356000526015602052604060002080546104ee6001830154926002810154906004600382015491015491604051958695869192608093969594919660a084019784526020840152604083015260608201520152565b3461055a57600036600319011261055a57601d54601e54601f546020805460408051958652918501939093528301526060820152608090f35b3461055a57602036600319011261055a5761179f612b82565b156105d8576117ad33612c07565b80156117c1575b1561059a57600435603155005b50336001600160a01b0360055416146117b4565b3461055a57602036600319011261055a5760043560005260126020526020604060002054604051908152f35b3461055a57602036600319011261055a5760043561181e81610bc5565b611826612b82565b156105d85761183433612c07565b8015611855575b1561059a5760ff8019602a54169115151617602a55600080f35b50336001600160a01b03600554161461183b565b3461055a57602036600319011261055a57611882612b82565b156105d85761189033612c07565b80156118a4575b1561059a57600435603655005b50336001600160a01b036005541614611897565b3461055a57600036600319011261055a576020603654604051908152f35b3461055a5760c036600319011261055a576004356118f381610962565b6064356118ff81610962565b611907612b82565b156105d85761191533612c07565b8015611966575b1561059a576001600160a01b0390816001600160a01b031993168360405416176040556024356041556044356042551690604354161760435560843560445560a435604555600080f35b50336001600160a01b03600554161461191c565b3461055a57602036600319011261055a57600460206001600160a01b0360005416604051928380926369e8d84b60e11b82525afa908115610bc0576119e16119d96104ee93670de0b6b3a764000093600091610b925750610b34612ebc565b600435612de0565b04604051918291829190602083019252565b3461055a57600036600319011261055a5760206001600160a01b0360015416604051908152f35b3461055a57600036600319011261055a576020603354604051908152f35b3461055a57602036600319011261055a57611a51612b82565b156105d857611a5f33612c07565b8015611a73575b1561059a57600435602d55005b50336001600160a01b036005541614611a66565b3461055a57600036600319011261055a57603854603954603a54603b54604080519485526020850193909352918301526060820152608090f35b6102a0810192916000915b60078310611ad957505050565b60019060608351918251815260209283810151848301526040809101519082015201920192019190611acc565b3461055a57600080600319360112611cda576040908151611b268161272d565b815b60e08110611cb5576104ee84611b3c612841565b6001600052601460205290611b757fb6c61a840592cc84133e4b25bd509abf4659307c57b160799b38490a5aa48f2c612e94565b612e94565b825260026000526014602052611baa7fa1930aa930426c54c34daad2b9ada7c5d0ef0c96078a3c5bb79f6fa6602c4a7a612e94565b6020830152611bc7611b7060036000526014602052604060002090565b8282015260046000526014602052611bfe7f52102136546d97ed3f65ec1070a32935d3048ea12f310d29c378dc9d6555c0d6612e94565b606083015260056000526014602052611c367f116126bec5aaa49b347e966c49378cf0c441de9121e306ea3d824584a9615aa2612e94565b608083015260066000526014602052611c6e7fe1f6b6a5fb7e47dad87547d4b0671e7e995a1dae22fbe5b3b5d10e2a77ed7aff612e94565b60a083015260076000526014602052611ca67f904977a779b22381a36c6463d4166ef55ee8cb3392c83093cb1750f1a00c9d94612e94565b60c08301525191829182611ac1565b6020908451611cc38161276a565b848152848382015284868201528184015201611b28565b80fd5b3461055a57600036600319011261055a576020602554604051908152f35b3461055a57600036600319011261055a57603c54603d54603e54603f54604080519485526020850193909352918301526060820152608090f35b3461055a57600036600319011261055a576020611da26001600160a01b0360065416604051611d63816127a2565b601381527f67657464656c656761746f72436f756e742829000000000000000000000000008482015260405191611d99836127be565b60008352612d6f565b604051908152f35b3461055a57600036600319011261055a576020602e54604051908152f35b3461055a57600036600319011261055a57601154614d588082018092116108715742018042116108715761012c809104910481039081116108715761011e810180911161087157602090604051908152f35b3461055a57602036600319011261055a576004356000526013602052604060002080546104ee6001830154926002810154906004600382015491015491604051958695869192608093969594919660a084019784526020840152604083015260608201520152565b3461055a57600036600319011261055a576020602b54604051908152f35b3461055a57602036600319011261055a576020611ec7600435611ec281610962565b612c07565b6040519015158152f35b3461055a57600036600319011261055a57602060ff604754166040519015158152f35b3461055a57600036600319011261055a57602154602254602354602454604080519485526020850193909352918301526060820152608090f35b3461055a57602036600319011261055a576004356001600160a01b0360055416330361059a5760009060046020611f6f610c5d85546001600160a01b031690565b604051928380927f46f991ac0000000000000000000000000000000000000000000000000000000082525afa8015610bc05783808481949382948391612011575b505af1611fbb612c91565b5015610a26577fcdcc745fe377b103b45fa0cec23ae3ef93d6fc6a84a01f0d18c40b354dd1d5d861200b611ffa610c5d600b546001600160a01b031690565b604051938452929081906020820190565b0390a280f35b612029915060203d8111610bb957610bab81836127da565b38611fb0565b3461055a57602036600319011261055a5760043561204c81610962565b803b600061205982612b51565b9261206760405194856127da565b82845260208401903c602d81511061208b57602a602091015160601c604051908152f35b60046040517fbaf3f0f7000000000000000000000000000000000000000000000000000000008152fd5b3461055a57608036600319011261055a576004356120d1612b82565b156105d8576120df33612c07565b801561213e575b1561059a576120f760088210612e13565b6002604051916121068361276a565b602435835260208301604435815260408401916064358352600052601460205260406000209351845551600184015551910155600080f35b50336001600160a01b0360055416146120e6565b3461055a57600036600319011261055a5760c06001600160a01b038060405416906041549060425490604354166044549160455493604051958652602086015260408501526060840152608083015260a0820152f35b3461055a57600036600319011261055a576020602654604051908152f35b3461055a5760208060031936011261055a576104ee90600435906121e982610962565b61224d6001600160a01b0392836006541693604051911683820152828152612210816127a2565b60405161221c816127a2565b601881527f697364656c656761746f724e6f6465286164647265737329000000000000000084820152600094612cc1565b919080612287575b61226e575b505060405190151581529081906020820190565b61228092508082518301019101612b6d565b388061225a565b5080825114612255565b3461055a57600036600319011261055a576020611ec7612b82565b3461055a576122ba3661088a565b906122c794929394612b82565b156105d8576122d533612c07565b8015612354575b1561059a576002936122ec612e5e565b9586526020860152604085015260608401526001811461232c575b1461230e57005b80516021556020810151602255604081015160235560600151602455005b61234f836060908051601d556020810151601e556040810151601f550151602055565b612307565b50336001600160a01b0360055416146122dc565b3461055a5760c036600319011261055a5760443561238581610bc5565b6064359061239282610bc5565b6084359061239f82610bc5565b60a435916123ac83610bc5565b6123b4612b82565b156105d8576123c233612c07565b801561244e575b1561059a576100169361240461242f936123e4604051612786565b600435602755602435602855151560ff8019602954169115151617602955565b6029805462ffff00191691151560081b61ff00169190911791151560101b62ff000016919091179055565b151563ff00000060295491151560181b169063ff000000191617602955565b50336001600160a01b0360055416146123c9565b3461055a57602036600319011261055a5761247b612b82565b156105d85761248933612c07565b801561249d575b1561059a57600435603255005b50336001600160a01b036005541614612490565b3461055a576124bf366115c0565b916124cb959395612b82565b156105d8576124d933612c07565b8015612548575b1561059a5761001695604051956124f68761274e565b8652602086015260408501526060840152608083015260005260136020526040600020906080600491805184556020810151600185015560408101516002850155606081015160038501550151910155565b50336001600160a01b0360055416146124e0565b3461055a57602036600319011261055a57612575612b82565b156105d85761258333612c07565b8015612597575b1561059a57600435604655005b50336001600160a01b03600554161461258a565b3461055a57604036600319011261055a576004356125c7612b82565b156105d8576125d533612c07565b8015612603575b1561059a576125ed60088210612e13565b6000526012602052602435604060002055600080f35b50336001600160a01b0360055416146125dc565b3461055a57602036600319011261055a57600435600460206001600160a01b0360005416604051928380926369e8d84b60e11b82525afa8015610bc05761266891600091610b925750610b34612ebc565b90670de0b6b3a764000090818102918183041490151715610871576104ee91610b8291612df3565b3461055a57600036600319011261055a57602060ff602a54166040519015158152f35b3461055a57600036600319011261055a576020611da26001600160a01b03600354166040516126e1816127a2565b600681527f69416765282900000000000000000000000000000000000000000000000000008482015260405191611d99836127be565b634e487b7160e01b600052604160045260246000fd5b60e0810190811067ffffffffffffffff82111761274957604052565b612717565b60a0810190811067ffffffffffffffff82111761274957604052565b6060810190811067ffffffffffffffff82111761274957604052565b60c0810190811067ffffffffffffffff82111761274957604052565b6040810190811067ffffffffffffffff82111761274957604052565b6020810190811067ffffffffffffffff82111761274957604052565b90601f8019910116810190811067ffffffffffffffff82111761274957604052565b9081602091031261055a575161281181610962565b90565b6040513d6000823e3d90fd5b604051906101e0820182811067ffffffffffffffff82111761274957604052565b6040519061284e8261272d565b565b612b356101c061284e9261288a61286e82516001600160a01b031690565b6001600160a01b03166001600160a01b03196002541617600255565b6128bd6128a160208301516001600160a01b031690565b6001600160a01b03166001600160a01b03196003541617600355565b6128f06128d460408301516001600160a01b031690565b6001600160a01b03166001600160a01b03196004541617600455565b61292361290760608301516001600160a01b031690565b6001600160a01b03166001600160a01b03196005541617600555565b61295661293a60808301516001600160a01b031690565b6001600160a01b03166001600160a01b03196006541617600655565b61298961296d60a08301516001600160a01b031690565b6001600160a01b03166001600160a01b03196007541617600755565b6129bc6129a060c08301516001600160a01b031690565b6001600160a01b03166001600160a01b03196008541617600855565b6129ef6129d360e08301516001600160a01b031690565b6001600160a01b03166001600160a01b03196009541617600955565b612a23612a076101008301516001600160a01b031690565b6001600160a01b03166001600160a01b0319600a541617600a55565b612a57612a3b6101208301516001600160a01b031690565b6001600160a01b03166001600160a01b0319600b541617600b55565b612a8b612a6f6101408301516001600160a01b031690565b6001600160a01b03166001600160a01b0319600c541617600c55565b612abf612aa36101608301516001600160a01b031690565b6001600160a01b03166001600160a01b0319600d541617600d55565b612af3612ad76101808301516001600160a01b031690565b6001600160a01b03166001600160a01b0319600e541617600e55565b612b27612b0b6101a08301516001600160a01b031690565b6001600160a01b03166001600160a01b0319600f541617600f55565b01516001600160a01b031690565b6001600160a01b03166001600160a01b03196010541617601055565b67ffffffffffffffff811161274957601f01601f191660200190565b9081602091031261055a575161281181610bc5565b612bdd6001600160a01b0360025416604051612b9d816127a2565b600881527f6973536166652829000000000000000000000000000000000000000000000000602082015260405191612bd4836127be565b60008352612cc1565b9080612bfc575b15610a26578060208061281193518301019101612b6d565b506020815114612be4565b612c6a6001600160a01b038060025416604051916020941684830152838252612c2f826127a2565b60405190612c3c826127a2565b601582527f697353656375726542617365286164647265737329000000000000000000000085830152612cc1565b9080612c87575b15610a2657816128119282518301019101612b6d565b5081815114612c71565b3d15612cbc573d90612ca282612b51565b91612cb060405193846127da565b82523d6000602084013e565b606090565b9190823b15612d56577fffffffff00000000000000000000000000000000000000000000000000000000815160208093012016916040519180830193845281519160005b838110612d42575050509181612d32602482600097959688970187838201520360048101845201826127da565b51915afa612d3e612c91565b9091565b818101830151858201602401528201612d05565b505050600090604051612d68816127be565b6000815290565b9291612d7d91600094612cc1565b9080612da2575b612d8b5750565b90915060208180518101031261055a576020015190565b506020815114612d84565b634e487b7160e01b600052601160045260246000fd5b90670de0b6b3a76400009182810292818404149015171561087157565b8181029291811591840414171561087157565b8115612dfd570490565b634e487b7160e01b600052601260045260246000fd5b15612e1a57565b606460405162461bcd60e51b815260206004820152600c60248201527f696e76616c69642072616e6b00000000000000000000000000000000000000006044820152fd5b604051906080820182811067ffffffffffffffff8211176127495760405260006060838281528260208201528260408201520152565b90604051612ea18161276a565b60406002829480548452600181015460208501520154910152565b604051612ec8816127be565b60008152906000368137565b60405190612ee1826127a2565b601282527f6f7a6f6e655072696365496e5553445428290000000000000000000000000000602083015256fea2646970667358221220e3e163765dd3d62497a6961941b426a8e108f91eb0ba174d3ad607560f65639d64736f6c63430008140033","linkReferences":{}},"methodIdentifiers":{"invalidator()":"52b06d64","rule741()":"0a5b38ab","transferRequest()":"3da8676f"},"id":77}