{"abi":[{"type":"constructor","inputs":[{"name":"_hex","type":"address","internalType":"address"},{"name":"_price","type":"address","internalType":"address"},{"name":"_old741","type":"address","internalType":"address"}],"stateMutability":"nonpayable"},{"type":"function","name":"dAOAssembly","inputs":[],"outputs":[{"name":"","type":"address","internalType":"address"}],"stateMutability":"view"},{"type":"function","name":"daocore","inputs":[],"outputs":[{"name":"","type":"address","internalType":"address"}],"stateMutability":"view"},{"type":"function","name":"nested741","inputs":[],"outputs":[{"name":"","type":"address","internalType":"address"}],"stateMutability":"view"},{"type":"function","name":"old741","inputs":[],"outputs":[{"name":"","type":"address","internalType":"address"}],"stateMutability":"view"},{"type":"function","name":"price","inputs":[],"outputs":[{"name":"","type":"address","internalType":"address"}],"stateMutability":"view"}],"bytecode":{"object":"0x6080346101b757601f61a87938819003918201601f19168301926001600160401b03929091838511838610176101a15781606092849260409788528339810103126101b75761004d816101bc565b6100648461005d602085016101bc565b93016101bc565b9160018060a01b03199273c0cee8b561cc4f60869776ca5b0b7a295e04f5af84600154161760015585516118489586820196828810828911176101a15761032583396001600160a01b039485168088526000979092908190036020019088f080156101835785168660035416176003558751615bdb808201908282108483111761018d576020918391614c9e833985815203019088f08015610183578516866002541617600255875191613131808401928484109084111761016f57918391602093611b6d8439815203019086f080156101655790838092168560045416176004551683600154161760015516908254161790555161015490816101d18239f35b86513d87823e3d90fd5b634e487b7160e01b89526041600452602489fd5b88513d89823e3d90fd5b634e487b7160e01b8a52604160045260248afd5b634e487b7160e01b600052604160045260246000fd5b600080fd5b51906001600160a01b03821682036101b75756fe608080604052600436101561001357600080fd5b600090813560e01c90816314837455146100f55750806314d8d024146100ce57806345cff900146100a75780635540c5ac146100805763a035b1fe1461005857600080fd5b3461007d578060031936011261007d576001600160a01b036020915416604051908152f35b80fd5b503461007d578060031936011261007d5760206001600160a01b0360015416604051908152f35b503461007d578060031936011261007d5760206001600160a01b0360025416604051908152f35b503461007d578060031936011261007d5760206001600160a01b0360045416604051908152f35b90503461011a578160031936011261011a576020906001600160a01b03600354168152f35b5080fdfea2646970667358221220f59782cb30a4c6eb42f0efb8277dfd2507d9fbcfbda329a0c18f4fed2b2b665164736f6c6343000814003360803461009757601f61184838819003918201601f19168301916001600160401b0383118484101761009c5780849260209460405283398101031261009757516001600160a01b038116908190036100975780156100855760018060a01b0319338160015416176001556000541617600055600060125560405161179590816100b38239f35b60405163e6c4247b60e01b8152600490fd5b600080fd5b634e487b7160e01b600052604160045260246000fdfe60806040526004361015610018575b361561001657005b005b60003560e01c806312065fe0146101185780631f185d161461011357806325924f341461010e578063339459a6146101095780633b9b79551461010457806361b7fbd9146100ff5780638da5cb5b146100fa578063a1f7f539146100f5578063af484526146100f0578063b90306ad146100eb578063c54e44b0146100e6578063c89b84fd146100e1578063dbac26e9146100dc578063e01ad5fd146100d7578063e0a9bc2b146100d25763fdc10bc90361000e57610ecf565b610eb4565b610e34565b610df1565b610d2c565b610ca6565b610b98565b610b19565b610aa4565b610a7d565b61098f565b61095e565b610266565b610235565b61014a565b3461013457600036600319011261013457602047604051908152f35b600080fd5b6001600160a01b0381160361013457565b3461013457602080600319360112610134576101c960043561016b81610139565b6001600160a01b0380600254169060405192168483015283825261018e82610f00565b6040519061019b82610f00565b601182527f69735369676e6572286164647265737329000000000000000000000000000000858301526115e6565b91908061022b575b156102015781816101eb926101fd945183010191016114ca565b60405190151581529081906020820190565b0390f35b60046040517f3204506f000000000000000000000000000000000000000000000000000000008152fd5b50808251146101d1565b3461013457602036600319011261013457602061025c60043561025781610139565b61108e565b6040519015158152f35b346101345760003660031901126101345761029861028c6000546001600160a01b031690565b6001600160a01b031690565b604051907f97f3815a000000000000000000000000000000000000000000000000000000008252602082600481845afa91821561078e5760009261093d575b50604051917fcfbffe53000000000000000000000000000000000000000000000000000000008352602083600481855afa92831561078e5760009361091c575b50604051907fab6e844f000000000000000000000000000000000000000000000000000000008252602082600481865afa91821561078e576000926108fb575b50604051917f14d8d024000000000000000000000000000000000000000000000000000000008352602083600481875afa92831561078e576000936108da575b50604051927fd1f956b1000000000000000000000000000000000000000000000000000000008452602084600481885afa93841561078e576000946108b9575b50604051937fe61dfd58000000000000000000000000000000000000000000000000000000008552602085600481895afa94851561078e57600095610898575b506040517fe09d394d0000000000000000000000000000000000000000000000000000000081526020816004818a5afa90811561078e57600091610879575b506040517f52b06d640000000000000000000000000000000000000000000000000000000081526020816004818b5afa90811561078e5760009161085a575b506040517f013cf08b00000000000000000000000000000000000000000000000000000000815260006004820152916020836024818c5afa92831561078e57600093610839575b50604051977f5e09dbe70000000000000000000000000000000000000000000000000000000089526020896004818d5afa94851561078e57600499600096610818575b5060208b6040519b8c80927faa0ddc160000000000000000000000000000000000000000000000000000000082525afa96871561078e5760049a6000986107f7575b5060208c6040519c8d80927f640274270000000000000000000000000000000000000000000000000000000082525afa98891561078e5760049b60009a6107d6575b5060208d6040519d8e80927f30125cf50000000000000000000000000000000000000000000000000000000082525afa9a8b1561078e578d60049d60009d6107b4575b506020906040519e8f80927f24768d910000000000000000000000000000000000000000000000000000000082525afa9c8d1561078e5760009d610793575b50604051809e81907f9dc969a80000000000000000000000000000000000000000000000000000000082525a92600491602094fa9d8e1561078e5760009e61075d575b50610671610f5a565b6001600160a01b0390911681529d8e906001600160a01b03166020820152604001906106a591906001600160a01b03169052565b6001600160a01b031660608d01526001600160a01b031660808c01526001600160a01b031660a08b01526001600160a01b031660c08a01526001600160a01b031660e08901526001600160a01b03166101008801526001600160a01b03166101208701526001600160a01b03166101408601526001600160a01b03166101608501526001600160a01b03166101808401526001600160a01b03166101a08301526001600160a01b03166101c0820152610016906111c7565b610780919e5060203d602011610787575b6107788183610f38565b8101906111a6565b9c38610668565b503d61076e565b6111bb565b6107ad919d5060203d602011610787576107788183610f38565b9b38610625565b6020919d506107cf90823d8411610787576107788183610f38565b9c906105e6565b6107f0919a5060203d602011610787576107788183610f38565b98386105a3565b61081191985060203d602011610787576107788183610f38565b9638610561565b61083291965060203d602011610787576107788183610f38565b943861051f565b61085391935060203d602011610787576107788183610f38565b91386104dc565b610873915060203d602011610787576107788183610f38565b38610495565b610892915060203d602011610787576107788183610f38565b38610456565b6108b291955060203d602011610787576107788183610f38565b9338610417565b6108d391945060203d602011610787576107788183610f38565b92386103d7565b6108f491935060203d602011610787576107788183610f38565b9138610397565b61091591925060203d602011610787576107788183610f38565b9038610357565b61093691935060203d602011610787576107788183610f38565b9138610317565b61095791925060203d602011610787576107788183610f38565b90386102d7565b346101345760003660031901126101345760206001600160a01b0360005416604051908152f35b8015150361013457565b34610134576040366003190112610134576004356109ac81610139565b602435906109b982610985565b6109c16114df565b15610a53576001600160a01b039081600554163303610a2957166000526011602052604060002060ff1981541660ff83151516179055600014610a17576012546000198114610a1257600101601255005b611190565b6012548015610a125760001901601255005b60046040517fea8e4eb5000000000000000000000000000000000000000000000000000000008152fd5b60046040517f9dc4246e000000000000000000000000000000000000000000000000000000008152fd5b346101345760003660031901126101345760206001600160a01b0360015416604051908152f35b34610134576000366003190112610134576020610b116001600160a01b0360065416604051610ad281610f00565b601381527f67657464656c656761746f72436f756e742829000000000000000000000000008482015260405191610b0883610f1c565b60008352611721565b604051908152f35b3461013457602080600319360112610134576101c9600435610b3a81610139565b6001600160a01b03806002541690604051921684830152838252610b5d82610f00565b60405190610b6a82610f00565b601582527f6973536563757265426173652861646472657373290000000000000000000000858301526115e6565b3461013457602036600319011261013457600435610bb46114df565b15610a53576001600160a01b03600554163303610a295760009060046020610be661028c85546001600160a01b031690565b604051928380927f46f991ac0000000000000000000000000000000000000000000000000000000082525afa801561078e5783808481949382948391610c88575b505af1610c326115b6565b5015610201577fcdcc745fe377b103b45fa0cec23ae3ef93d6fc6a84a01f0d18c40b354dd1d5d8610c82610c7161028c600b546001600160a01b031690565b604051938452929081906020820190565b0390a280f35b610ca0915060203d8111610787576107788183610f38565b38610c27565b3461013457602036600319011261013457600435610cc381610139565b803b6000610cd082610f7b565b92610cde6040519485610f38565b82845260208401903c602d815110610d0257602a602091015160601c604051908152f35b60046040517fbaf3f0f7000000000000000000000000000000000000000000000000000000008152fd5b34610134576000366003190112610134576001600160a01b038060035416610d65610d55610faa565b91604092835191610b0883610f1c565b9160045416610d72611564565b92825193602085015282840152818352606083019280841067ffffffffffffffff851117610dec5783610ddd926101fd958552610dae82610f00565b601d82527f67657472616e6b436f756e742875696e743235362c75696e74323536290000006080840152611721565b90519081529081906020820190565b610eea565b34610134576020366003190112610134576001600160a01b03600435610e1681610139565b166000526011602052602060ff604060002054166040519015158152f35b3461013457602036600319011261013457602061025c600435610e5681610139565b6001600160a01b03806006541690604051921684830152838252610e7982610f00565b60405190610e8682610f00565b601882527f697364656c656761746f724e6f64652861646472657373290000000000000000858301526116e5565b3461013457600036600319011261013457602061025c6114df565b34610134576000366003190112610134576020610b11611564565b634e487b7160e01b600052604160045260246000fd5b6040810190811067ffffffffffffffff821117610dec57604052565b6020810190811067ffffffffffffffff821117610dec57604052565b90601f8019910116810190811067ffffffffffffffff821117610dec57604052565b604051906101e0820182811067ffffffffffffffff821117610dec57604052565b67ffffffffffffffff8111610dec57601f01601f191660200190565b60405190610fa482610f1c565b60008252565b60405190610fb782610f00565b600c82527f72616e6b666f7244414f282900000000000000000000000000000000000000006020830152565b60405190610ff082610f00565b601682527f67657455736572546f53746f72286164647265737329000000000000000000006020830152565b6040519061102982610f00565b600682527f72616e6b282900000000000000000000000000000000000000000000000000006020830152565b6040519061106282610f00565b600882527f69734c6f636b28290000000000000000000000000000000000000000000000006020830152565b6001600160a01b03906110b482600354166110a7610faa565b60405191610b0883610f1c565b6110fc6110c96004546001600160a01b031690565b604080516001600160a01b038616602080830191909152815291906110ee9083610f38565b6110f6610fe3565b90611694565b928316156111885761113861112161111261101c565b61111a610f97565b9086611721565b9361112a611055565b611132610f97565b916116e5565b921015918261117f575b508161114c575090565b61117c9150611171611178916001600160a01b03166000526011602052604060002090565b5460ff1690565b1590565b90565b15915038611142565b505050600090565b634e487b7160e01b600052601160045260246000fd5b90816020910312610134575161117c81610139565b6040513d6000823e3d90fd5b6114ac6101c06114c8926112016111e582516001600160a01b031690565b6001600160a01b03166001600160a01b03196002541617600255565b61123461121860208301516001600160a01b031690565b6001600160a01b03166001600160a01b03196003541617600355565b61126761124b60408301516001600160a01b031690565b6001600160a01b03166001600160a01b03196004541617600455565b61129a61127e60608301516001600160a01b031690565b6001600160a01b03166001600160a01b03196005541617600555565b6112cd6112b160808301516001600160a01b031690565b6001600160a01b03166001600160a01b03196006541617600655565b6113006112e460a08301516001600160a01b031690565b6001600160a01b03166001600160a01b03196007541617600755565b61133361131760c08301516001600160a01b031690565b6001600160a01b03166001600160a01b03196008541617600855565b61136661134a60e08301516001600160a01b031690565b6001600160a01b03166001600160a01b03196009541617600955565b61139a61137e6101008301516001600160a01b031690565b6001600160a01b03166001600160a01b0319600a541617600a55565b6113ce6113b26101208301516001600160a01b031690565b6001600160a01b03166001600160a01b0319600b541617600b55565b6114026113e66101408301516001600160a01b031690565b6001600160a01b03166001600160a01b0319600c541617600c55565b61143661141a6101608301516001600160a01b031690565b6001600160a01b03166001600160a01b0319600d541617600d55565b61146a61144e6101808301516001600160a01b031690565b6001600160a01b03166001600160a01b0319600e541617600e55565b61149e6114826101a08301516001600160a01b031690565b6001600160a01b03166001600160a01b0319600f541617600f55565b01516001600160a01b031690565b6001600160a01b03166001600160a01b03196010541617601055565b565b90816020910312610134575161117c81610985565b61153a6001600160a01b03600254166040516114fa81610f00565b600881527f697353616665282900000000000000000000000000000000000000000000000060208201526040519161153183610f1c565b600083526115e6565b9080611559575b15610201578060208061117c935183010191016114ca565b506020815114611541565b61117c6001600160a01b036003541660405161157f81610f00565b600681527f6941676528290000000000000000000000000000000000000000000000000000602082015260405191610b0883610f1c565b3d156115e1573d906115c782610f7b565b916115d56040519384610f38565b82523d6000602084013e565b606090565b9190823b1561167b577fffffffff00000000000000000000000000000000000000000000000000000000815160208093012016916040519180830193845281519160005b83811061166757505050918161165760248260009795968897018783820152036004810184520182610f38565b51915afa6116636115b6565b9091565b81810183015185820160240152820161162a565b50505060009060405161168d81610f1c565b6000815290565b92916116a2916000946115e6565b90806116da575b6116b05750565b9091506020818051810103126101345760206001600160a01b039101516116d681610139565b1690565b5060208151146116a9565b92916116f3916000946115e6565b9080611716575b6117015750565b61117c919250602080825183010191016114ca565b5060208151146116fa565b929161172f916000946115e6565b9080611754575b61173d5750565b909150602081805181010312610134576020015190565b50602081511461173656fea264697066735822122047f727fcb9b02191f8f435da04f13ae8cabef0b29b8182794bf01dcd3ae2b86c64736f6c634300081400336080346200009e57601f6200313138819003918201601f19168301916001600160401b03831184841017620000a3578084926020946040528339810103126200009e57516001600160a01b038116908190036200009e5780156200008c5760018060a01b031933816001541617600155600054161760005560466011556040516130779081620000ba8239f35b60405163e6c4247b60e01b8152600490fd5b600080fd5b634e487b7160e01b600052604160045260246000fdfe60806040526004361015610018575b361561001657005b005b60003560e01c8063013cf08b146101c857806312065fe0146101c35780631f185d16146101be57806326705c3c146101b9578063339459a6146101b45780633b9b7955146101af57806343859632146101aa57806345a257bc146101a55780635c622a0e146101a0578063604ff4b11461019b578063896d6db1146101965780638da5cb5b1461019157806398e527d31461018c578063995e433914610187578063a1f7f53914610182578063af4845261461017d578063b7ccfe3214610178578063b90306ad14610173578063c54e44b01461016e578063c7f758a814610169578063c9d27afe14610164578063cc48bf161461015f578063d3325a2c1461015a578063e01ad5fd14610155578063e0a9bc2b14610150578063eeebb3c31461014b5763fdc10bc90361000e57611c8f565b611a79565b611a5e565b611a37565b6119a8565b611873565b6116d8565b61163e565b611564565b611456565b6113af565b6112c8565b6112a5565b611221565b611203565b6111dc565b611143565b611064565b611018565b610d66565b610cc4565b610c9d565b6105a5565b610587565b610556565b610529565b610465565b634e487b7160e01b600052603260045260246000fd5b60125481101561021e57600b906012600052027fbb8a6a4669ba250d26cd7a459eca9d215f8307e33aebe50379bc5a3617ec34440190600090565b6101cd565b90600182811c92168015610253575b602083101461023d57565b634e487b7160e01b600052602260045260246000fd5b91607f1691610232565b906000929180549161026e83610223565b9182825260019384811690816000146102d05750600114610290575b50505050565b90919394506000526020928360002092846000945b8386106102bc57505050500101903880808061028a565b8054858701830152940193859082016102a5565b9294505050602093945060ff191683830152151560051b0101903880808061028a565b634e487b7160e01b600052604160045260246000fd5b6040810190811067ffffffffffffffff82111761032557604052565b6102f3565b6020810190811067ffffffffffffffff82111761032557604052565b90601f8019910116810190811067ffffffffffffffff82111761032557604052565b9061038361037c926040519384809261025d565b0383610346565b565b60005b8381106103985750506000910152565b8181015183820152602001610388565b906020916103c181518092818552858086019101610385565b601f01601f1916010190565b99939561041d61044d969f9e9d99936101809d986104619c9660408f6001600160a01b036104076104579f996101a08085528401906103a8565b9516602082015201528d820360608f01526103a8565b9e60808c015260a08b015260c08a015260e089015215156101008801526101208701906001600160a01b03169052565b1515610140850152565b1515610160830152565b0152565b34610524576020366003190112610524576004356012548110156105245761048c906101e3565b506040516104a58161049e818561025d565b0382610346565b6105206104bc60018401546001600160a01b031690565b6002840154906104ce60038601610368565b93600486015495600581015493600682015460078301549060096008850154940154966040519a8b9a8b9560ff8860b01c169960ff8960a81c169960ff6001600160a01b038b60081c169a16986103cd565b0390f35b600080fd5b3461052457600036600319011261052457602047604051908152f35b6001600160a01b0381160361052457565b3461052457602036600319011261052457602061057d60043561057881610545565b612c5f565b6040519015158152f35b34610524576000366003190112610524576020601454604051908152f35b34610524576000366003190112610524576105d76105cb6000546001600160a01b031690565b6001600160a01b031690565b604051907f97f3815a000000000000000000000000000000000000000000000000000000008252602082600481845afa918215610acd57600092610c7c575b50604051917fcfbffe53000000000000000000000000000000000000000000000000000000008352602083600481855afa928315610acd57600093610c5b575b50604051907fab6e844f000000000000000000000000000000000000000000000000000000008252602082600481865afa918215610acd57600092610c3a575b50604051917f14d8d024000000000000000000000000000000000000000000000000000000008352602083600481875afa928315610acd57600093610c19575b50604051927fd1f956b1000000000000000000000000000000000000000000000000000000008452602084600481885afa938415610acd57600094610bf8575b50604051937fe61dfd58000000000000000000000000000000000000000000000000000000008552602085600481895afa948515610acd57600095610bd7575b506040517fe09d394d0000000000000000000000000000000000000000000000000000000081526020816004818a5afa908115610acd57600091610bb8575b506040517f52b06d640000000000000000000000000000000000000000000000000000000081526020816004818b5afa908115610acd57600091610b99575b506040517f013cf08b00000000000000000000000000000000000000000000000000000000815260006004820152916020836024818c5afa928315610acd57600093610b78575b50604051977f5e09dbe70000000000000000000000000000000000000000000000000000000089526020896004818d5afa948515610acd57600499600096610b57575b5060208b6040519b8c80927faa0ddc160000000000000000000000000000000000000000000000000000000082525afa968715610acd5760049a600098610b36575b5060208c6040519c8d80927f640274270000000000000000000000000000000000000000000000000000000082525afa988915610acd5760049b60009a610b15575b5060208d6040519d8e80927f30125cf50000000000000000000000000000000000000000000000000000000082525afa9a8b15610acd578d60049d60009d610af3575b506020906040519e8f80927f24768d910000000000000000000000000000000000000000000000000000000082525afa9c8d15610acd5760009d610ad2575b50604051809e81907f9dc969a80000000000000000000000000000000000000000000000000000000082525a92600491602094fa9d8e15610acd5760009e610a9c575b506109b0611914565b6001600160a01b0390911681529d8e906001600160a01b03166020820152604001906109e491906001600160a01b03169052565b6001600160a01b031660608d01526001600160a01b031660808c01526001600160a01b031660a08b01526001600160a01b031660c08a01526001600160a01b031660e08901526001600160a01b03166101008801526001600160a01b03166101208701526001600160a01b03166101408601526001600160a01b03166101608501526001600160a01b03166101808401526001600160a01b03166101a08301526001600160a01b03166101c0820152610016906128c4565b610abf919e5060203d602011610ac6575b610ab78183610346565b8101906128a3565b9c386109a7565b503d610aad565b6128b8565b610aec919d5060203d602011610ac657610ab78183610346565b9b38610964565b6020919d50610b0e90823d8411610ac657610ab78183610346565b9c90610925565b610b2f919a5060203d602011610ac657610ab78183610346565b98386108e2565b610b5091985060203d602011610ac657610ab78183610346565b96386108a0565b610b7191965060203d602011610ac657610ab78183610346565b943861085e565b610b9291935060203d602011610ac657610ab78183610346565b913861081b565b610bb2915060203d602011610ac657610ab78183610346565b386107d4565b610bd1915060203d602011610ac657610ab78183610346565b38610795565b610bf191955060203d602011610ac657610ab78183610346565b9338610756565b610c1291945060203d602011610ac657610ab78183610346565b9238610716565b610c3391935060203d602011610ac657610ab78183610346565b91386106d6565b610c5491925060203d602011610ac657610ab78183610346565b9038610696565b610c7591935060203d602011610ac657610ab78183610346565b9138610656565b610c9691925060203d602011610ac657610ab78183610346565b9038610616565b346105245760003660031901126105245760206001600160a01b0360005416604051908152f35b3461052457604036600319011261052457600435602435610ce481610545565b6000198201918211610d2957610d1d60ff91600a610d036020956101e3565b5001906001600160a01b0316600052602052604060002090565b54166040519015158152f35b611dd6565b9181601f840112156105245782359167ffffffffffffffff8311610524576020838186019501011161052457565b8015150361052457565b346105245760e03660031901126105245760043560243567ffffffffffffffff811161052457610d9a903690600401610d2e565b604435610da681610545565b606435936001600160e01b031985168086036105245760843560a4359260c43592610dd084610d5c565b610dd933612c5f565b1561100757610df490610ded881515611caa565b1515611cf5565b8315801590610ff5575b610e0790611d40565b80610ed15750610ecc9593610ec4610016989694610eb07f0454182b30f1740c505634bb66f7f3001e232b3c8797a62b1db11b347a891ff4956001600160a01b0395610e8a610e54611935565b92610e60368c8e611971565b84526001600160a01b03881660208501526001600160e01b03198d16604085015215156060840152565b60808201528260a0820152610eab6014546000526013602052604060002090565b612032565b6014549788966040519586951698856121b3565b0390a36121e1565b601455565b968294610fdb88957f74608b2c8ffedaacf37a0fda8ea5cb94ebae20dc104623eb2fabb1bcec211608946001600160a01b03948a610fcd8e997f2dd3ae6155b13a46b2374a1f42e0733244754e572ec9f0034b698efefa8673a19e610f64610ff09f610f5d610f4d8f610f48601454821115611d8b565b611dec565b6000526013602052604060002090565b9283611e4f565b8660036001830192610f8c8c85906001600160a01b03166001600160a01b0319825416179055565b835463ffffffff60a01b1916604089901c63ffffffff60a01b1617845588600282015501559060ff60c01b1960ff60c01b835492151560c01b169116179055565b604051968796169986611f38565b0390a360405190151581529081906020820190565b0390a2005b506001600160a01b0385161515610dfe565b600460405163ea8e4eb560e01b8152fd5b34610524576020366003190112610524576004356000198101908111610d295760086110456040926101e3565b50015460ff825191818160a81c161515835260b01c1615156020820152f35b3461052457602036600319011261052457600435611080612bda565b15611132573330036110ee57801515806110e3575b1561109f57601155005b606460405162461bcd60e51b815260206004820152601660248201527f64616f2e696e76616c69642e70657263656e74616765000000000000000000006044820152fd5b506064811115611095565b606460405162461bcd60e51b815260206004820152600d60248201527f64616f2e66616b652e636f7265000000000000000000000000000000000000006044820152fd5b6004604051634ee2123760e11b8152fd5b346105245760203660031901126105245760043560005260136020526111a06040600020604051906111798261037c818461025d565b600181015490600360028201549101549060ff60405195869560c0875260c08701906103a8565b936001600160a01b03811660208701526001600160e01b03198160401b16604087015260c01c1615156060850152608084015260a08301520390f35b346105245760003660031901126105245760206001600160a01b0360015416604051908152f35b34610524576000366003190112610524576020601254604051908152f35b34610524576020366003190112610524576004356000198101908111610d295761124a906101e3565b50600481015460058201546006830154600784015460089094015460408051948552602085019390935291830152606082019290925260ff60a883901c81161515608083015260b09290921c909116151560a082015260c090f35b346105245760003660031901126105245760206112c0612da9565b604051908152f35b3461052457602080600319360112610524576113476004356112e981610545565b6001600160a01b0380600254169060405192168483015283825261130c82610309565b6040519061131982610309565b601582527f697353656375726542617365286164647265737329000000000000000000000085830152612e2b565b9190806113a5575b1561137b5781816113699261052094518301019101612bc5565b60405190151581529081906020820190565b60046040517f3204506f000000000000000000000000000000000000000000000000000000008152fd5b508082511461134f565b34610524576040366003190112610524576004356024356113cf81610d5c565b6113d833612c5f565b15611007576113eb601454831115611d8b565b6000198201828111610d29577f2dd3ae6155b13a46b2374a1f42e0733244754e572ec9f0034b698efefa8673a1916020916000526013825261144b8160016040600020019060ff60c01b1960ff60c01b835492151560c01b169116179055565b6040519015158152a2005b3461052457602036600319011261052457600435611472612bda565b15611132576001600160a01b0360055416330361100757600090600460206114a46105cb85546001600160a01b031690565b604051928380927f46f991ac0000000000000000000000000000000000000000000000000000000082525afa8015610acd5783808481949382948391611546575b505af16114f0612dfb565b501561137b577fcdcc745fe377b103b45fa0cec23ae3ef93d6fc6a84a01f0d18c40b354dd1d5d861154061152f6105cb600b546001600160a01b031690565b604051938452929081906020820190565b0390a280f35b61155e915060203d8111610ac657610ab78183610346565b386114e5565b346105245760203660031901126105245760043561158181610545565b803b600061158e82611955565b9261159c6040519485610346565b82845260208401903c602d8151106115c057602a602091015160601c604051908152f35b60046040517fbaf3f0f7000000000000000000000000000000000000000000000000000000008152fd5b9361160661163b9896939297949760e0875260e08701906103a8565b966001600160a01b03809316602087015260408601521660608401521515608083015260a082015260c08184039101526103a8565b90565b34610524576020366003190112610524576004356000198101908111610d2957611667906101e3565b506001600160a01b03610520600382600185015416936002810154906008810154906009810154926116c2604051926116ab846116a4818461025d565b0385610346565b6116bb604051809881930161025d565b0386610346565b60405197889760ff85169460081c1692886115ea565b34610524576040366003190112610524576004356024356116f881610d5c565b611700612bda565b156111325761170e33612d44565b156110075781151580611867575b61172590612607565b61173661173183611dec565b6101e3565b509061176e60ff600884015461174d828216612652565b611764600686015461175d612ce9565b111561269d565b60b01c16156126e8565b6117d36117c6600a84016117ae6117a96117a561179e3385906001600160a01b0316600052602052604060002090565b5460ff1690565b1590565b612733565b336001600160a01b0316600052602052604060002090565b805460ff19166001179055565b801561185257600482016117e781546121e1565b90555b6040519015158152339083907f0def80f9a3b4c7a4251442658ccf516bf33ea4acaf31638fc6da8ebdb0f64c7290602090a36004810154600782015480911091821592611843575b505061183a57005b6100169061277e565b60050154101590503880611832565b6005820161186081546121e1565b90556117ea565b5060125482111561171c565b346105245760203660031901126105245760043561189033612c5f565b156110075780151580611908575b6118a790612607565b6000198101818111610d29576118be6008916101e3565b5001600160b01b60ff60b01b1982546118dd60ff8260b01c16156126e8565b161790557f4cf2797951877f41b38931a68643f9249273f32fd396532213aa4f1222c9d16b600080a2005b5060125481111561189e565b604051906101e0820182811067ffffffffffffffff82111761032557604052565b6040519060c0820182811067ffffffffffffffff82111761032557604052565b67ffffffffffffffff811161032557601f01601f191660200190565b92919261197d82611955565b9161198b6040519384610346565b829481845281830111610524578281602093846000960137010152565b346105245760a03660031901126105245767ffffffffffffffff600435818111610524576119da903690600401610d2e565b6024929192356119e981610545565b60643592831161052457366023840112156105245761052093611a19611a27943690602481600401359101611971565b9160843593604435926124ab565b6040519081529081906020820190565b3461052457602036600319011261052457602061057d600435611a5981610545565b612d44565b3461052457600036600319011261052457602061057d612bda565b3461052457608036600319011261052457600480359060243590611a9c82610545565b60443567ffffffffffffffff811161052457611abb9036908301610d2e565b9092611ac5612bda565b15611c7f57611ad333612d44565b15611c6f57611ae6601454861115611d8b565b611af2610f4d86611dec565b91611b20600184015491611b0b60ff8460c01c166121f0565b6040966001600160e01b031984891b1661223b565b6003840154909490918215611c525750805486516001600160a01b03858116602080840191909152825290911692601f19929091611b75906117a590611b67604082610346565b611b6f612274565b87612ef7565b611c44575091611bb29593918360016105209a979514611c00575b600214611bc1575b50505b600282015493611bad60643593610368565b612394565b90519081529081906020820190565b87516001600160a01b0393909316602084015260409081018352611bf9929190611beb9083610346565b611bf36122e6565b90612ea6565b3880611b98565b88516001600160a01b03909416602085015292600290611c3c90611c2e816040810103858101835282610346565b611c366122ad565b85612ea6565b939050611b90565b875163ea8e4eb560e01b8152fd5b611bb2959350610520979492506001600160a01b03915016611b9b565b8260405163ea8e4eb560e01b8152fd5b82604051634ee2123760e11b8152fd5b346105245760003660031901126105245760206112c0612ce9565b15611cb157565b606460405162461bcd60e51b815260206004820152601760248201527f64616f2e74656d706c6174652e656d7074792e646573630000000000000000006044820152fd5b15611cfc57565b606460405162461bcd60e51b815260206004820152601a60248201527f64616f2e74656d706c6174652e7a65726f2e73656c6563746f720000000000006044820152fd5b15611d4757565b606460405162461bcd60e51b815260206004820152601860248201527f64616f2e74656d706c6174652e7a65726f2e74617267657400000000000000006044820152fd5b15611d9257565b606460405162461bcd60e51b815260206004820152601460248201527f64616f2e74656d706c6174652e696e76616c69640000000000000000000000006044820152fd5b634e487b7160e01b600052601160045260246000fd5b600019810191908211610d2957565b90601f8111611e0957505050565b600091825260208220906020601f850160051c83019410611e45575b601f0160051c01915b828110611e3a57505050565b818155600101611e2e565b9092508290611e25565b90929167ffffffffffffffff811161032557611e7581611e6f8454610223565b84611dfb565b6000601f8211600114611eaf5781929394600092611ea4575b50508160011b916000199060031b1c1916179055565b013590503880611e8e565b601f19821694611ec484600052602060002090565b91805b878110611eff575083600195969710611ee5575b505050811b019055565b0135600019600384901b60f8161c19169055388080611edb565b90926020600181928686013581550194019101611ec7565b908060209392818452848401376000828201840152601f01601f1916010190565b91611f5b606094979695926001600160e01b031992608086526080860191611f17565b9616602083015260408201520152565b919091825167ffffffffffffffff811161032557611f8d81611e6f8454610223565b602080601f8311600114611fc8575081929394600092611fbd5750508160011b916000199060031b1c1916179055565b015190503880611e8e565b90601f19831695611fde85600052602060002090565b926000905b88821061201a5750508360019596971061200157505050811b019055565b015160001960f88460031b161c19169055388080611edb565b80600185968294968601518155019501930190611fe3565b908051805167ffffffffffffffff81116103255761205a816120548654610223565b86611dfb565b6020918290601f831160011461213e579282600395936121229360a096600092612133575b50508160011b9160001990881b1c19161786555b6120c96120ad60018801928501516001600160a01b031690565b82906001600160a01b03166001600160a01b0319825416179055565b6121016120e160408501516001600160e01b03191690565b825463ffffffff60a01b191660409190911c63ffffffff60a01b16178255565b60608301511515815460ff60c01b191690151560c01b60ff60c01b16179055565b608081015160028501550151910155565b01519050388061207f565b90601f1983169161215487600052602060002090565b9260005b81811061219c5750936121229360a096936001938360039a9810612184575b505050811b018655612093565b0151600019838a1b60f8161c19169055388080612177565b929386600181928786015181550195019301612158565b906121d66001600160e01b03199160409497969597606085526060850191611f17565b951660208201520152565b6000198114610d295760010190565b156121f757565b606460405162461bcd60e51b815260206004820152601560248201527f64616f2e74656d706c6174652e64697361626c656400000000000000000000006044820152fd5b602490836001600160e01b0319959461038394604051978894166020850152848401378101600083820152036004810185520183610346565b6040519061228182610309565b601582527f69735573657245786973747328616464726573732900000000000000000000006020830152565b604051906122ba82610309565b601682527f67657455736572546f496e7374286164647265737329000000000000000000006020830152565b604051906122f382610309565b601682527f67657455736572546f53746f72286164647265737329000000000000000000006020830152565b6012546801000000000000000081101561032557600181018060125581101561021e57600b906012600052027fbb8a6a4669ba250d26cd7a459eca9d215f8307e33aebe50379bc5a3617ec34440190600090565b81810292918115918404141715610d2957565b9060638201809211610d2957565b92936123db919592946123b06123a861231f565b509586611f6b565b6001850180546001600160a01b0319166001600160a01b038816179055600285015560038401611f6b565b60646123f96123f46123eb612da9565b60115490612373565b612386565b046007830155612407612ce9565b908101809111610d295781600991600686940155612463600882016117c633829074ffffffffffffffffffffffffffffffffffffffff001974ffffffffffffffffffffffffffffffffffffffff0083549260081b169116179055565b01556012546040516001600160a01b03909216825291339183907f336735bcae5ee955b87e8b30bee52920223fa30a865b207ac6d9eee9f19589fb9080602081015b0390a490565b9193906124b733612c5f565b15611007576001600160a01b038516156125dd57612519926124da913691611971565b926124ee6124e661231f565b509485611f6b565b6001840180546001600160a01b0319166001600160a01b038716179055600284015560038301611f6b565b60646125296123f46123eb612da9565b046007820155612537612ce9565b928301809311610d29576009926006820155612591600882016117c633829074ffffffffffffffffffffffffffffffffffffffff001974ffffffffffffffffffffffffffffffffffffffff0083549260081b169116179055565b6103e792018290556012546040516001600160a01b03909216825291339183907f336735bcae5ee955b87e8b30bee52920223fa30a865b207ac6d9eee9f19589fb9080602081016124a5565b60046040517fe6c4247b000000000000000000000000000000000000000000000000000000008152fd5b1561260e57565b606460405162461bcd60e51b815260206004820152600e60248201527f64616f2e696e76616c69642e69640000000000000000000000000000000000006044820152fd5b1561265957565b606460405162461bcd60e51b815260206004820152601160248201527f64616f2e70726f702e6e6f7465786973740000000000000000000000000000006044820152fd5b156126a457565b606460405162461bcd60e51b815260206004820152601060248201527f64616f2e766f74696e672e656e646564000000000000000000000000000000006044820152fd5b156126ef57565b606460405162461bcd60e51b815260206004820152601560248201527f64616f2e616c72656164792e636f6d706c6574656400000000000000000000006044820152fd5b1561273a57565b606460405162461bcd60e51b815260206004820152601160248201527f64616f2e616c72656164792e766f7465640000000000000000000000000000006044820152fd5b7f948f4a9cd986f1118c3fbd459f7a22b23c0693e1ca3ef06a6a8be5aa7d39cc036128456113696127b161173185611dec565b5060088101805460ff60b01b1916600160b01b17815590612827600482015460078301548110159081612895575b5083547fffffffffffffffffffff00ffffffffffffffffffffffffffffffffffffffffff1690151560a81b75ff00000000000000000000000000000000000000000016178355565b815460a81c60ff1680612880575b61284a575b505460a81c60ff1690565b0390a2565b8061286260016128799301546001600160a01b031690565b612873600360028401549301610368565b90612fa3565b503861283a565b5061288e6003820154610223565b1515612835565b9050600583015410386127df565b90816020910312610524575161163b81610545565b6040513d6000823e3d90fd5b612ba96101c0610383926128fe6128e282516001600160a01b031690565b6001600160a01b03166001600160a01b03196002541617600255565b61293161291560208301516001600160a01b031690565b6001600160a01b03166001600160a01b03196003541617600355565b61296461294860408301516001600160a01b031690565b6001600160a01b03166001600160a01b03196004541617600455565b61299761297b60608301516001600160a01b031690565b6001600160a01b03166001600160a01b03196005541617600555565b6129ca6129ae60808301516001600160a01b031690565b6001600160a01b03166001600160a01b03196006541617600655565b6129fd6129e160a08301516001600160a01b031690565b6001600160a01b03166001600160a01b03196007541617600755565b612a30612a1460c08301516001600160a01b031690565b6001600160a01b03166001600160a01b03196008541617600855565b612a63612a4760e08301516001600160a01b031690565b6001600160a01b03166001600160a01b03196009541617600955565b612a97612a7b6101008301516001600160a01b031690565b6001600160a01b03166001600160a01b0319600a541617600a55565b612acb612aaf6101208301516001600160a01b031690565b6001600160a01b03166001600160a01b0319600b541617600b55565b612aff612ae36101408301516001600160a01b031690565b6001600160a01b03166001600160a01b0319600c541617600c55565b612b33612b176101608301516001600160a01b031690565b6001600160a01b03166001600160a01b0319600d541617600d55565b612b67612b4b6101808301516001600160a01b031690565b6001600160a01b03166001600160a01b0319600e541617600e55565b612b9b612b7f6101a08301516001600160a01b031690565b6001600160a01b03166001600160a01b0319600f541617600f55565b01516001600160a01b031690565b6001600160a01b03166001600160a01b03196010541617601055565b90816020910312610524575161163b81610d5c565b612c356001600160a01b0360025416604051612bf581610309565b600881527f6973536166652829000000000000000000000000000000000000000000000000602082015260405191612c2c8361032a565b60008352612e2b565b9080612c54575b1561137b578060208061163b93518301019101612bc5565b506020815114612c3c565b612cc26001600160a01b038060025416604051916020941684830152838252612c8782610309565b60405190612c9482610309565b601182527f69735369676e657228616464726573732900000000000000000000000000000085830152612e2b565b9080612cdf575b1561137b578161163b9282518301019101612bc5565b5081815114612cc9565b61163b6001600160a01b0360035416604051612d0481610309565b600681527f6941676528290000000000000000000000000000000000000000000000000000602082015260405191612d3b8361032a565b60008352612f33565b61163b906001600160a01b038060065416906040519216602083015260208252612d6d82610309565b60405190612d7a82610309565b601882527f697364656c656761746f724e6f646528616464726573732900000000000000006020830152612ef7565b61163b6001600160a01b0360065416604051612dc481610309565b601381527f67657464656c656761746f72436f756e74282900000000000000000000000000602082015260405191612d3b8361032a565b3d15612e26573d90612e0c82611955565b91612e1a6040519384610346565b82523d6000602084013e565b606090565b803b15612e8d576000926001600160e01b03198360208695519101201690612e7d6024604051809360208201958652612e6d8151809260208686019101610385565b8101036004810184520182610346565b51915afa612e89612dfb565b9091565b505050600090604051612e9f8161032a565b6000815290565b9291612eb491600094612e2b565b9080612eec575b612ec25750565b9091506020818051810103126105245760206001600160a01b03910151612ee881610545565b1690565b506020815114612ebb565b9291612f0591600094612e2b565b9080612f28575b612f135750565b61163b91925060208082518301019101612bc5565b506020815114612f0c565b9291612f4191600094612e2b565b9080612f66575b612f4f5750565b909150602081805181010312610524576020015190565b506020815114612f48565b90602082519201516001600160e01b0319908181169360048110612f9457505050565b60040360031b82901b16169150565b9190916001600160a01b038116156125dd57600091829184519160208601915af190612fcd612dfb565b9115612fd7575090565b80516000919060041161303b57612fee9150612f71565b815115612ffe5750805190602001fd5b6040517f21c09d340000000000000000000000000000000000000000000000000000000081526001600160e01b0319919091166004820152602490fd5b50612fee56fea2646970667358221220c64d2f64d0a5fda266adc5a286853d25ed2e9b847cc92b6878032e6ab13a5f8a64736f6c634300081400336080346200009e57601f62005bdb38819003918201601f19168301916001600160401b03831184841017620000a3578084926020946040528339810103126200009e57516001600160a01b038116908190036200009e5780156200008c5760018060a01b03193381600154161760015560005416176000556001601155604051615b219081620000ba8239f35b60405163e6c4247b60e01b8152600490fd5b600080fd5b634e487b7160e01b600052604160045260246000fdfe60806040526004361015610018575b361561001657005b005b60003560e01c8063033eeffb146103c35780630e5fd00b1461035a5780631157a849146103be57806312065fe0146103b957806313508e37146103b45780631bb49f02146103af5780631c53c280146103aa5780631f185d16146103a55780631f5fa838146103a05780632a687c871461039b5780632bbae52e146103965780632fefc0bf1461039157806332ff4eab1461038c578063339459a61461038757806333b59a5b146103825780633a7b55b81461037d5780633b9b7955146103785780633baee0ea14610373578063419cb27b1461036e57806342cc9d5714610369578063445850971461036457806344668f231461035f57806345145fd71461035a5780634d1ec452146103555780634f0f4aa914610350578063509222cd1461034b57806350db85d11461034657806361ea720814610341578063629d671e1461033c57806365d2fbd3146103375780636a811244146103325780636b90905b1461032d5780636fb412ab1461032857806376fe6c45146103235780637818cdd71461031e57806380f85e3314610319578063849c22ad14610314578063896c354a1461030f5780638da5cb5b1461030a57806395f72f491461030557806398b3f21514610300578063a1f7f539146102fb578063a89d693b146102f6578063af484526146102f1578063b1c49079146102ec578063b366335e146102e7578063b90306ad146102e2578063c43792e3146102dd578063c54e44b0146102d8578063c871372b146102d3578063cf359165146102ce578063d1e0bbc6146102c9578063dcb3fc4a146102c4578063e01ad5fd146102bf578063e0a9bc2b146102ba578063eb95c662146102b5578063f3ca7124146102b0578063fd38093b146102ab5763fdc10bc90361000e5761356a565b6134fa565b6134ce565b6134a2565b613487565b613407565b613297565b61325d565b6131db565b61315c565b6130d6565b6130aa565b612f9c565b612f26565b612e08565b612dd7565b612cb8565b612c1d565b612bf1565b612b7b565b612b54565b612b14565b612ae5565b612aab565b612a52565b612934565b612797565b61265e565b612242565b611d23565b611ce5565b611cc7565b611b79565b611b25565b611a38565b6119d7565b610405565b6119b9565b611981565b611952565b61191e565b61146a565b61141b565b6112af565b61108f565b610997565b610921565b6108e9565b6108a0565b610803565b61070e565b610623565b6105ee565b610597565b61054e565b610532565b610455565b346103ef5760203660031901126103ef5760043560005260196020526020604060002054604051908152f35b600080fd5b6001600160a01b038116036103ef57565b346103ef5760203660031901126103ef576020600435610424816103f4565b6001600160a01b03809116600052601282526040600020546000526015825260046040600020015416604051908152f35b346103ef5760203660031901126103ef576004356104716137f6565b600090808252601560205261048f60ff600160408520015416614167565b33825260126020526104a660408320548214614167565b808252601e60205260ff600160408420015416156104ee576104d56104e191600052601e602052604060002090565b60016000918281550155565b6104eb6001601155565b80f35b606460405162461bcd60e51b815260206004820152601360248201527f6e65737465642e7265712e6e6f746578697374000000000000000000000000006044820152fd5b346103ef5760003660031901126103ef57602047604051908152f35b346103ef5760203660031901126103ef57600435600052601e6020526060604060002060ff600182549201546040519283528181161515602084015260081c1615156040820152f35b346103ef5760203660031901126103ef5760206004356105b6816103f4565b60406001600160a01b039182600091168152601284528181205481526015845260028282200154815260138452205416604051908152f35b346103ef5760203660031901126103ef57600435600052601360205260206001600160a01b0360406000205416604051908152f35b346103ef576020806003193601126103ef576106a2600435610644816103f4565b6001600160a01b03806002541690604051921684830152838252610667826129bb565b60405190610674826129bb565b601182527f69735369676e6572286164647265737329000000000000000000000000000000858301526158e9565b919080610704575b156106da5781816106c4926106d69451830101910161567b565b60405190151581529081906020820190565b0390f35b60046040517f3204506f000000000000000000000000000000000000000000000000000000008152fd5b50808251146106aa565b346103ef5760203660031901126103ef5761074c60043561072e816103f4565b6107366151d7565b60405191610743836129d7565b6000835261592b565b6001600160a01b038116156107be576107ae6106d69160405161076e816129bb565b600681527f72616e6b282900000000000000000000000000000000000000000000000000006020820152604051916107a5836129d7565b600083526159b8565b6040519081529081906020820190565b60405162461bcd60e51b815260206004820152601560248201527f6e65737465642e73746f722e6e6f7465786973747300000000000000000000006044820152606490fd5b346103ef5760403660031901126103ef5760243561081f615693565b1561088f5761082d33615718565b801561087b575b1561086a57600090808252601a6020526040822054906004358201809211610865578252601a602052604082205580f35b6137c5565b600460405163ea8e4eb560e01b8152fd5b50336001600160a01b036005541614610834565b6004604051634ee2123760e11b8152fd5b346103ef5760203660031901126103ef57600480356000908152601560209081526040918290209283015460059093015482516001600160a01b03948516815293169083015290f35b346103ef5760203660031901126103ef57600435600052601560205260206001600160a01b0360056040600020015416604051908152f35b346103ef5760403660031901126103ef5760243561093d615693565b1561088f5761094b33615718565b8015610983575b1561086a57600090808252601d6020526040822054906004358201809211610865578252601d602052604082205580f35b50336001600160a01b036005541614610952565b346103ef5760003660031901126103ef576109c96109bd6000546001600160a01b031690565b6001600160a01b031690565b604051907f97f3815a000000000000000000000000000000000000000000000000000000008252602082600481845afa918215610ebf5760009261106e575b50604051917fcfbffe53000000000000000000000000000000000000000000000000000000008352602083600481855afa928315610ebf5760009361104d575b50604051907fab6e844f000000000000000000000000000000000000000000000000000000008252602082600481865afa918215610ebf5760009261102c575b50604051917f14d8d024000000000000000000000000000000000000000000000000000000008352602083600481875afa928315610ebf5760009361100b575b50604051927fd1f956b1000000000000000000000000000000000000000000000000000000008452602084600481885afa938415610ebf57600094610fea575b50604051937fe61dfd58000000000000000000000000000000000000000000000000000000008552602085600481895afa948515610ebf57600095610fc9575b506040517fe09d394d0000000000000000000000000000000000000000000000000000000081526020816004818a5afa908115610ebf57600091610faa575b506040517f52b06d640000000000000000000000000000000000000000000000000000000081526020816004818b5afa908115610ebf57600091610f8b575b506040517f013cf08b00000000000000000000000000000000000000000000000000000000815260006004820152916020836024818c5afa928315610ebf57600093610f6a575b50604051977f5e09dbe70000000000000000000000000000000000000000000000000000000089526020896004818d5afa948515610ebf57600499600096610f49575b5060208b6040519b8c80927faa0ddc160000000000000000000000000000000000000000000000000000000082525afa968715610ebf5760049a600098610f28575b5060208c6040519c8d80927f640274270000000000000000000000000000000000000000000000000000000082525afa988915610ebf5760049b60009a610f07575b5060208d6040519d8e80927f30125cf50000000000000000000000000000000000000000000000000000000082525afa9a8b15610ebf578d60049d60009d610ee5575b506020906040519e8f80927f24768d910000000000000000000000000000000000000000000000000000000082525afa9c8d15610ebf5760009d610ec4575b50604051809e81907f9dc969a80000000000000000000000000000000000000000000000000000000082525a92600491602094fa9d8e15610ebf5760009e610e8e575b50610da2612a31565b6001600160a01b0390911681529d8e906001600160a01b0316602082015260400190610dd691906001600160a01b03169052565b6001600160a01b031660608d01526001600160a01b031660808c01526001600160a01b031660a08b01526001600160a01b031660c08a01526001600160a01b031660e08901526001600160a01b03166101008801526001600160a01b03166101208701526001600160a01b03166101408601526001600160a01b03166101608501526001600160a01b03166101808401526001600160a01b03166101a08301526001600160a01b03166101c08201526100169061537a565b610eb1919e5060203d602011610eb8575b610ea98183612a0f565b8101906152e7565b9c38610d99565b503d610e9f565b6152fc565b610ede919d5060203d602011610eb857610ea98183612a0f565b9b38610d56565b6020919d50610f0090823d8411610eb857610ea98183612a0f565b9c90610d17565b610f21919a5060203d602011610eb857610ea98183612a0f565b9838610cd4565b610f4291985060203d602011610eb857610ea98183612a0f565b9638610c92565b610f6391965060203d602011610eb857610ea98183612a0f565b9438610c50565b610f8491935060203d602011610eb857610ea98183612a0f565b9138610c0d565b610fa4915060203d602011610eb857610ea98183612a0f565b38610bc6565b610fc3915060203d602011610eb857610ea98183612a0f565b38610b87565b610fe391955060203d602011610eb857610ea98183612a0f565b9338610b48565b61100491945060203d602011610eb857610ea98183612a0f565b9238610b08565b61102591935060203d602011610eb857610ea98183612a0f565b9138610ac8565b61104691925060203d602011610eb857610ea98183612a0f565b9038610a88565b61106791935060203d602011610eb857610ea98183612a0f565b9138610a48565b61108891925060203d602011610eb857610ea98183612a0f565b9038610a08565b346103ef576040806003193601126103ef576024356110ac615693565b15611271576110ba33615718565b801561125d575b1561124d576000916110dd6109bd84546001600160a01b031690565b815180917f447aa30400000000000000000000000000000000000000000000000000000000825281600460209485935afa908115610ebf578591611230575b5084916004355b8581111561112f578680f35b8451828101828152819003808252601f1991611160916111529060200182612a0f565b61115a615308565b866159b8565b61117483600052601a602052604060002090565b55875b6008811061118f57505061118a90613ac6565b611123565b8651848101848152602081018390526111c691906111b890829060400103858101835282612a0f565b6111c0615341565b876159b8565b8115611204575b906111ff916111f9826111ea876000526016602052604060002090565b90600052602052604060002090565b55613ac6565b611177565b95906112136111ff92886138bf565b61122785600052601d602052604060002090565b559050856111cd565b6112479150823d8411610eb857610ea98183612a0f565b3861111c565b6004825163ea8e4eb560e01b8152fd5b50336001600160a01b0360055416146110c1565b60048251634ee2123760e11b8152fd5b60e0810192916000915b6007831061129857505050565b60019082518152602080910192019201919061128b565b346103ef5760203660031901126103ef576106d66004356114096113f9604051926112d9846129f3565b60e03685376113056112f5826000526017602052604060002090565b6001600052602052604060002090565b54845261132f61131f826000526017602052604060002090565b6002600052602052604060002090565b54602085015261135c61134c826000526017602052604060002090565b6003600052602052604060002090565b546040850152611389611379826000526017602052604060002090565b6004600052602052604060002090565b5460608501526113b66113a6826000526017602052604060002090565b6005600052602052604060002090565b5460808501526113e36113d3826000526017602052604060002090565b6006600052602052604060002090565b5460a08501526000526017602052604060002090565b6007600052602052604060002090565b5460c082015260405191829182611281565b346103ef5760003660031901126103ef5760206001600160a01b0360005416604051908152f35b60409060031901126103ef5760043561145a816103f4565b90602435611467816103f4565b90565b346103ef5761147836611442565b6114806137f6565b6106d66114cb61149f6114916135b4565b6114996135cc565b3361592b565b6114eb6114b56114ad6135b4565b611499613605565b6001600160a01b0393868516938516841461363e565b836114e36109bd82600054166001600160a01b031690565b911614613689565b6114f6811515614086565b611513846001600160a01b03166000526012602052604060002090565b54158015611913575b611525906140d1565b61154d611545866001600160a01b03166000526012602052604060002090565b54151561411c565b6115916005611583611572886001600160a01b03166000526012602052604060002090565b546000526015602052604060002090565b01546001600160a01b031690565b6040517f880cdc310000000000000000000000000000000000000000000000000000000060208201526001600160a01b03861660248201529092906115ef9080604481015b03946115ea601f1996878101845283612a0f565b615a26565b506116186109bd60046115836115728a6001600160a01b03166000526012602052604060002090565b6118a0575b61163a866001600160a01b03166000526012602052604060002090565b54611658866001600160a01b03166000526012602052604060002090565b556116a98561168e61167d896001600160a01b03166000526012602052604060002090565b546000526013602052604060002090565b906001600160a01b03166001600160a01b0319825416179055565b6116eb3360046116cf611572896001600160a01b03166000526012602052604060002090565b01906001600160a01b03166001600160a01b0319825416179055565b85161415908161187b575b611713846001600160a01b03166000526012602052604060002090565b549361172e6005611583876000526015602052604060002090565b9561176a61175d600261174b896000526015602052604060002090565b01546000526013602052604060002090565b546001600160a01b031690565b9315611813576115ea6117dd936117896009546001600160a01b031690565b6040517fe3d1d5bf0000000000000000000000000000000000000000000000000000000060208201526001600160a01b03948516602482015294909316604485015283606481015b03908101845283612a0f565b505b6117e96001601155565b60405193849384916040919493606084019584526001600160a01b03809216602085015216910152565b6117d191506115ea611875936118316009546001600160a01b031690565b6040517f9498d88b0000000000000000000000000000000000000000000000000000000060208201526001600160a01b039094166024850152929384906044820190565b506117df565b600061189a866001600160a01b03166000526012602052604060002090565b556116f6565b61190d6118c860046115836115728a6001600160a01b03166000526012602052604060002090565b6040517f0399c93c000000000000000000000000000000000000000000000000000000006020820152336024820152906115ea82604481015b03878101845283612a0f565b5061161d565b50848216811461151c565b346103ef5760203660031901126103ef576004356000526015602052602060ff600160406000200154166040519015158152f35b346103ef5760203660031901126103ef5760043560005260156020526020600360406000200154604051908152f35b346103ef5760203660031901126103ef57600435600052601560205260206001600160a01b0360046040600020015416604051908152f35b346103ef5760003660031901126103ef576020601f54604051908152f35b346103ef5760203660031901126103ef576004356119f4816103f4565b6001600160a01b0390811660009081526012602090815260408083205483526015825280832060020154808452601383529281902054815193845290931690820152f35b346103ef5760203660031901126103ef5760043580600052601560205260406000205460136020526106d66001600160a01b0380604060002054169360156020526040600020916004600284015493015416611aa36005611583846000526015602052604060002090565b906003611adb611aca6001611ac2876000526015602052604060002090565b015460ff1690565b946000526015602052604060002090565b01549360405197889788939160c09591989796939260e086019986526001600160a01b03938480931660208801526040870152166060850152166080830152151560a08201520152565b346103ef5760203660031901126103ef576001600160a01b03600435611b4a816103f4565b1660005260126020526040600020546000526015602052602060ff600160406000200154166040519015158152f35b346103ef57611b8736611442565b90611b90615693565b1561088f57611b9e33615718565b8015611cb3575b1561086a5781611bbc91611bb76137f6565b613ad5565b806000526015602052611c85611c0b611c7f611c3b611c2c611bed60056040600020016001600160a01b0390541690565b604080516001600160a01b0390991660208a01529097948591820190565b0393611c1f601f1995868101835282612a0f565b611c27613831565b615824565b6020808251830101910161386a565b6040517f654c668e00000000000000000000000000000000000000000000000000000000602082015260248101929092526044820152606492830181529182612a0f565b83615a26565b50611c8f81614024565b611c996001601155565b604080519182526001600160a01b03929092166020820152f35b50336001600160a01b036005541614611ba5565b346103ef5760003660031901126103ef576020601454604051908152f35b346103ef5760203660031901126103ef576001600160a01b03600435611d0a816103f4565b1660005260126020526020604060002054604051908152f35b346103ef576020806003193601126103ef57600435611d406137f6565b6001611d62611d5d82611ac2856000526015602052604060002090565b613fd9565b611d8a611d82336001600160a01b03166000526012602052604060002090565b548314614167565b611d9e82600052601e602052604060002090565b9181830192611db6611db1855460ff1690565b61439b565b611dbe613880565b8354611dd29060081c60ff161590565b1590565b156120575750600291611dfc83611df3846000526015602052604060002090565b01541515614431565b6000815b611f26575b505090611ec182611e9e611ed2966001600160a01b03611e4c600561158388611e3a60009b6000526015602052604060002090565b01546000526015602052604060002090565b16611edc575b611e6b6005611583856000526015602052604060002090565b631867546560e21b604051928301526115ea82611e9060248201906001602083019252565b03601f198101845283612a0f565b508454611eb19060081c60ff16826144c9565b6000526015602052604060002090565b0155805461ff001916610100179055565b6100166001601155565b611f20611efc600561158388611e3a886000526015602052604060002090565b604051636f58dd0f60e11b8482015260006024820152906115ea8260448101611e90565b50611e52565b600380611f4186611e3a876000526015602052604060002090565b01548210156120515783611f7b611f718484611f6b8a611e3a876000526015602052604060002090565b01613e98565b90549060031b1c90565b14611f905750611f8a90613ac6565b81611e00565b611ec19250611ed296612047826120298795612010611ff6611f7189611ff08760009f9e8f611e3a611e9e9e611fd783611e3a611fe9966000526015602052604060002090565b01956000526015602052604060002090565b01546138b0565b90613e98565b9184611f6b8c611e3a8c6000526015602052604060002090565b90919082549060031b91821b91600019901b1916179055565b61204187611e3a876000526015602052604060002090565b0161447c565b9650509192611e05565b50611e05565b81925093612172946121016120fb6104d59661208d6002612085612161986000526015602052604060002090565b0154156143e6565b6120c78760036120c187548060026120af866000526015602052604060002090565b01556000526015602052604060002090565b01613eb5565b83546001600160a01b036120ea6005611583846000526015602052604060002090565b166121fb575b505460081c60ff1690565b856144c9565b61211d6109bd6004611583876000526015602052604060002090565b612177575b5061213c6005611583856000526015602052604060002090565b631867546560e21b604051928301526115ea82611e9060248201906000602083019252565b50600052601e602052604060002090565b611ed2565b611e906121f4916115ea6121b261175d6121a060046115838b6000526015602052604060002090565b93546000526013602052604060002090565b6040517f1499c59200000000000000000000000000000000000000000000000000000000878201526001600160a01b0390911660248201529283906044820190565b5038612122565b612217600561158361223b936000526015602052604060002090565b604051636f58dd0f60e11b8882015260016024820152906115ea8260448101611e90565b50386120f0565b346103ef576040806003193601126103ef5760043561225f6137f6565b61227b611d5d6001611ac2846000526015602052604060002090565b6122a161229a6109bd6004611583856000526015602052604060002090565b33146142ba565b6122a9613880565b6106d66101006122c86005611583856000526015602052604060002090565b6123ec601f5494868051938261232f6123216020977f02a085f20000000000000000000000000000000000000000000000000000000089820152806115d660249d8e803590840160209093929193604081019481520152565b878082518301019101614845565b98895192612342888c01948551906137e9565b978b6123538782019a8b51906137e9565b61236360608301918251906137e9565b9061237460808401928351906137e9565b97868a8961238860a088019c8d51906137e9565b966123a161239c60c08301998a51906137e9565b61528d565b8881516125e2575b50509091508251612569575b50505080516124f8575b50805161248e575b506123d586518251906137e9565b612411575b5050505050505060e086015190614976565b51920151926123fb6001601155565b5191825260208201929092529081906040820190565b6124819663a9059cbb60e01b966115ea9561245c6117d19461245261175d612441600f546001600160a01b031690565b9b6000526013602052604060002090565b93519051906137e9565b92519889958601528401602090939291936001600160a01b0360408201951681520152565b50863882818080806123da565b6124f1906124a46010546001600160a01b031690565b6115ea6124be61175d8a6000526013602052604060002090565b92518b5163a9059cbb60e01b888201526001600160a01b0390941689850190815260208101919091528390604001611901565b50386123c7565b6125629061250e600c546001600160a01b031690565b6115ea61252861175d8b6000526013602052604060002090565b92518c5163a9059cbb60e01b898201526001600160a01b039094168a85019081526020810191909152839060400103888101845283612a0f565b50386123bf565b6115ea6125d9936125cd61259c61175d61258b600e546001600160a01b031690565b956000526013602052604060002090565b9151945194859263a9059cbb60e01b8c8501528d8401602090939291936001600160a01b0360408201951681520152565b03898101845283612a0f565b503889886123b5565b61264663a9059cbb60e01b946115ea936126529761261f61175d61260e600d546001600160a01b031690565b986000526013602052604060002090565b915192519788958601528401602090939291936001600160a01b0360408201951681520152565b038a8101845283612a0f565b508f8a898992886123a9565b346103ef5760403660031901126103ef5760043560243561267d615693565b1561088f5761268b33615718565b8015612783575b1561086a57612759611ed2926126a66137f6565b8060005260156020526126c5611d5d600160406000200160ff90541690565b6126e66126e16001611ac2866000526015602052604060002090565b614305565b61274961273f6127306127086005611583886000526015602052604060002090565b6040519061272282611e9060208201906000602083019252565b61272a61371f565b9061584e565b60208082518301019101613758565b505050151561377a565b600052601e602052604060002090565b906001820191612775612770611dce855460ff1690565b614350565b55805460ff19166001179055565b50336001600160a01b036005541614612692565b346103ef5760403660031901126103ef576004356024356127b66137f6565b6127d2611d5d6001611ac2856000526015602052604060002090565b6127f66127ef6109bd61175d856000526013602052604060002090565b3314614167565b6128286128126005611583856000526015602052604060002090565b61281a6141b2565b6128226135a1565b9161584e565b908061283e6020938480825183010191016141eb565b101561284e576100166001601155565b826129256001600160a01b03927ff526f68a00000000000000000000000000000000000000000000000000000000946129196128fe61175d6128e96128db6128bf6128ab600561158361292b9f6000526015602052604060002090565b976040519182918983019190602083019252565b03976128d3601f19998a8101845283612a0f565b61272a6141fa565b858082518301019101614233565b99925050506000526013602052604060002090565b6129066135b4565b906040519889948501526024840161427e565b03908101855284612a0f565b16615a26565b50388080611ed2565b346103ef5760203660031901126103ef576020600435612953816103f4565b6001600160a01b03809116600052601282526040600020546000526015825260056040600020015416604051908152f35b634e487b7160e01b600052604160045260246000fd5b6060810190811067ffffffffffffffff8211176129b657604052565b612984565b6040810190811067ffffffffffffffff8211176129b657604052565b6020810190811067ffffffffffffffff8211176129b657604052565b60e0810190811067ffffffffffffffff8211176129b657604052565b90601f8019910116810190811067ffffffffffffffff8211176129b657604052565b604051906101e0820182811067ffffffffffffffff8211176129b657604052565b346103ef576101003660031901126103ef5736604312156103ef57604051612a79816129f3565b610104813682116103ef576024905b828210612a9b5761001684600435614f54565b8135815260209182019101612a88565b346103ef5760403660031901126103ef57600435600052601660205260406000206024356000526020526020604060002054604051908152f35b346103ef5760203660031901126103ef5760043560005260156020526020600260406000200154604051908152f35b346103ef5760403660031901126103ef5760043560005260156020526020612b456024356003604060002001613e98565b90549060031b1c604051908152f35b346103ef5760003660031901126103ef5760206001600160a01b0360015416604051908152f35b346103ef5760403660031901126103ef57602435612b97615693565b1561088f57612ba533615718565b8015612bdd575b1561086a57600090808252601c6020526040822054906004358201809211610865578252601c602052604082205580f35b50336001600160a01b036005541614612bac565b346103ef5760203660031901126103ef57600435600052601d6020526020604060002054604051908152f35b346103ef5760003660031901126103ef576020612c816001600160a01b0360065416604051612c4b816129bb565b601381527f67657464656c656761746f72436f756e7428290000000000000000000000000084820152604051916107a5836129d7565b604051908152f35b610100810192916000915b60088310612ca157505050565b600190825181526020809101920192019190612c94565b346103ef5760203660031901126103ef576106d6600435612dc56113f9612cdd615210565b92612d04612cf5826000526016602052604060002090565b60008052602052604060002090565b548452612d1e6112f5826000526016602052604060002090565b546020850152612d3b61131f826000526016602052604060002090565b546040850152612d5861134c826000526016602052604060002090565b546060850152612d75611379826000526016602052604060002090565b546080850152612d926113a6826000526016602052604060002090565b5460a0850152612daf6113d3826000526016602052604060002090565b5460c08501526000526016602052604060002090565b5460e082015260405191829182612c89565b346103ef5760203660031901126103ef576020612dfe600435612df9816103f4565b615718565b6040519015158152f35b346103ef57612ed5612e1936611442565b90612e226137f6565b612e6b612e306114916135b4565b612e3b6114ad6135b4565b90612e546001600160a01b03918280881691161461363e565b6114e36109bd82600054166001600160a01b031690565b612e98612e936001611ac2611572856001600160a01b03166000526012602052604060002090565b6136d4565b612ec661273f6127306127086005611583611572876001600160a01b03166000526012602052604060002090565b612ece613880565b3390613cdd565b612eee612cf5601f546000526016602052604060002090565b612ef881546137db565b9055612f026152b9565b612f1b6005611583836000526015602052604060002090565b90611c996001601155565b346103ef5760203660031901126103ef57612f3f615693565b1561088f57612f4d33615718565b8015612f88575b1561086a57612f616157a2565b601f5410612f78575b610016600435601f546138cc565b612f806157a2565b601f55612f6a565b50336001600160a01b036005541614612f54565b346103ef5760203660031901126103ef57600435612fb8615693565b1561088f576001600160a01b0360055416330361086a5760009060046020612fea6109bd85546001600160a01b031690565b604051928380927f46f991ac0000000000000000000000000000000000000000000000000000000082525afa8015610ebf578380848194938294839161308c575b505af16130366157f4565b50156106da577fcdcc745fe377b103b45fa0cec23ae3ef93d6fc6a84a01f0d18c40b354dd1d5d86130866130756109bd600b546001600160a01b031690565b604051938452929081906020820190565b0390a280f35b6130a4915060203d8111610eb857610ea98183612a0f565b3861302b565b346103ef5760203660031901126103ef57600435600052601b6020526020604060002054604051908152f35b346103ef5760203660031901126103ef576004356130f3816103f4565b803b600061310082613585565b9261310e6040519485612a0f565b82845260208401903c602d81511061313257602a602091015160601c604051908152f35b60046040517fbaf3f0f7000000000000000000000000000000000000000000000000000000008152fd5b60403660031901126103ef576004356131736137f6565b600090808252601560205261319160ff600160408520015416613fd9565b815260156020526131d26001600160a01b036005604084200154166040519063d3abb8a360e01b60208301526024356024830152602482526115ea8261299a565b50600160115580f35b346103ef5760203660031901126103ef576131fb60043561072e816103f4565b6001600160a01b038116156107be576106c46106d69160405161321d816129bb565b600881527f69734c6f636b2829000000000000000000000000000000000000000000000000602082015260405191613254836129d7565b6000835261597c565b346103ef5760403660031901126103ef57600435600052601860205260406000206024356000526020526020604060002054604051908152f35b346103ef5760c03660031901126103ef57611ed26004356024356132ba816103f4565b606435916133ab611c2c608435936132d06137f6565b6132ec611d5d6001611ac2876000526015602052604060002090565b61330b61229a6109bd6004611583886000526015602052604060002090565b613313613880565b61331c85615235565b61332586615261565b61333e6005611583866000526015602052604060002090565b601f546040517fa66303040000000000000000000000000000000000000000000000000000000060208201526001600160a01b039093166024840152604480359084015260648301889052608483019690965260a480359083015260c48201959095528060e481016115d6565b92816133b9575b5050614c98565b6133ff916115ea6117d1926133d6600b546001600160a01b031690565b60405163a9059cbb60e01b60208201523360248201526044810194909452929384906064820190565b5038806133b2565b346103ef5760203660031901126103ef576020612dfe600435613429816103f4565b6001600160a01b0380600654169060405192168483015283825261344c826129bb565b60405190613459826129bb565b601882527f697364656c656761746f724e6f646528616464726573732900000000000000008583015261597c565b346103ef5760003660031901126103ef576020612dfe615693565b346103ef5760203660031901126103ef57600435600052601a6020526020604060002054604051908152f35b346103ef5760203660031901126103ef57600435600052601c6020526020604060002054604051908152f35b346103ef576040806003193601126103ef576001600160a01b03600435613520816103f4565b166000818152601260208181528483205483526019815284832054938352908152838220548252601881528382206024358352815290839020549251918252810191909152604090f35b346103ef5760003660031901126103ef576020612c816157a2565b67ffffffffffffffff81116129b657601f01601f191660200190565b604051906135ae826129d7565b60008252565b6040516135c0816129d7565b60008152906000368137565b604051906135d9826129bb565b600782527f6f776e65722829000000000000000000000000000000000000000000000000006020830152565b60405190613612826129bb565b600c82527f67657448657862617365282900000000000000000000000000000000000000006020830152565b1561364557565b606460405162461bcd60e51b815260206004820152601760248201527f6e65737465642e696e76616c69642e696e7374616e63650000000000000000006044820152fd5b1561369057565b606460405162461bcd60e51b815260206004820152601660248201527f6e65737465642e696e76616c69642e68657862617365000000000000000000006044820152fd5b156136db57565b606460405162461bcd60e51b815260206004820152601860248201527f6e65737465642e706172656e742e6e6f742e65786973747300000000000000006044820152fd5b6040519061372c826129bb565b601282527f6765744e6f64654c422875696e743235362900000000000000000000000000006020830152565b91908260809103126103ef578151916020810151916060604083015192015190565b1561378157565b606460405162461bcd60e51b815260206004820152601960248201527f6e65737465642e706172656e742e6e6f2e627573696e657373000000000000006044820152fd5b634e487b7160e01b600052601160045260246000fd5b906001820180921161086557565b9190820180921161086557565b600260115414613807576002601155565b60046040517f3ee5aeb5000000000000000000000000000000000000000000000000000000008152fd5b6040519061383e826129bb565b601582527f676574436c61696d496e666f28616464726573732900000000000000000000006020830152565b91908260409103126103ef576020825192015190565b6138886157a2565b601f54106138a0575b61389e6005601f546138cc565b565b6138a86157a2565b601f55613891565b60001981019190821161086557565b9190820391821161086557565b906138e4612cf5836000526016602052604060002090565b541580613a71575b80613a68575b6138fa575050565b6139169061391061390a846138b0565b916138b0565b906138cc565b613935612cf5613925836138b0565b6000526016602052604060002090565b5461394d612cf5836000526016602052604060002090565b5561395d6112f5613925836138b0565b546139756112f5836000526016602052604060002090565b5561398561131f613925836138b0565b5461399d61131f836000526016602052604060002090565b556139ad61134c613925836138b0565b546139c561134c836000526016602052604060002090565b556139d5611379613925836138b0565b546139ed611379836000526016602052604060002090565b556139fd6113a6613925836138b0565b54613a156113a6836000526016602052604060002090565b55613a256113d3613925836138b0565b54613a3d6113d3836000526016602052604060002090565b55613a656113f9613a536113f9613925856138b0565b54926000526016602052604060002090565b55565b508015156138f2565b50600182116138ec565b15613a8257565b606460405162461bcd60e51b815260206004820152601560248201527f6e65737465642e616c72656164792e65786973747300000000000000000000006044820152fd5b60001981146108655760010190565b90613b06613b01611dce6001611ac2611572866001600160a01b03166000526012602052604060002090565b613a7b565b613b19613b14601454613ac6565b601455565b613b7060145492613b388361168e866000526013602052604060002090565b83613b56846001600160a01b03166000526012602052604060002090565b556001600160a01b03166000526012602052604060002090565b5490613b7c8383613edd565b613ba66004613b95856000526015602052604060002090565b016001600160a01b03198154169055565b613bd9613bc3613bbe6008546001600160a01b031690565b613e02565b60056116cf866000526015602052604060002090565b613c5a613bf56005611583866000526015602052604060002090565b91613c0b6109bd6000546001600160a01b031690565b60405163134bd3bd60e11b60208201526001600160a01b0391821660248201529116604482015260648101859052600060848201528060a481015b03926115ea601f1994858101845283612a0f565b5081151580613cb3575b613c6d57505090565b613c896005611583613caf946000526015602052604060002090565b604051636f58dd0f60e11b602082015260016024820152916115ea9083604481016117d1565b5090565b506001600160a01b03613cd56005611583856000526015602052604060002090565b161515613c64565b91613d09613b01611dce6001611ac2611572866001600160a01b03166000526012602052604060002090565b613d17613b14601454613ac6565b613d79613d5760145494613d398461168e886000526013602052604060002090565b85613b56856001600160a01b03166000526012602052604060002090565b5492613d638585613edd565b60046116cf866000526015602052604060002090565b613d91613bc3613bbe6008546001600160a01b031690565b613c5a613dad6005611583866000526015602052604060002090565b91613dc36109bd6000546001600160a01b031690565b60405163134bd3bd60e11b60208201526001600160a01b0391821660248201529116604482015260648101859052600160848201528060a48101613c46565b6e5af43d82803e903d91602b57fd5bf390763d602d80600a3d3981f3363d3d373d3d3d363d7300000062ffffff8260881c161760005260781b17602052603760096000f0906001600160a01b03821615613e5857565b60046040517fb06ebf3d000000000000000000000000000000000000000000000000000000008152fd5b634e487b7160e01b600052603260045260246000fd5b8054821015613eb05760005260206000200190600090565b613e82565b90815491680100000000000000008310156129b6578261201091600161389e95018155613e98565b91909160009280845260209160158352604080862095600294838689015584600198613f128a8201600160ff19825416179055565b5587613f28866000526018602052604060002090565b83805282528489858520555b613f4357505050505050509050565b613fb1613fa0828b8a9414613fba575b613f67886000526018602052604060002090565b8187528552868620613f7981546137db565b9055613f8f886000526019602052604060002090565b613f9981546137db565b9055613ac6565b956000526015602052604060002090565b01549384613f34565b613fd48960036120c18b6000526015602052604060002090565b613f53565b15613fe057565b606460405162461bcd60e51b815260206004820152601560248201527f6e65737465642e757365722e6e6f7461637469766500000000000000000000006044820152fd5b80600052601560205261404160ff60016040600020015416613fd9565b60005260156020526140836001600160a01b03600560406000200154166040519063d3abb8a360e01b602083015260016024830152602482526115ea8261299a565b50565b1561408d57565b606460405162461bcd60e51b815260206004820152601360248201527f6e65737465642e7a65726f2e61646472657373000000000000000000000000006044820152fd5b156140d857565b606460405162461bcd60e51b815260206004820152601460248201527f6e65737465642e7461726765742e6578697374730000000000000000000000006044820152fd5b1561412357565b606460405162461bcd60e51b815260206004820152601760248201527f6e65737465642e736f757263652e6e6f744578697374730000000000000000006044820152fd5b1561416e57565b606460405162461bcd60e51b815260206004820152601560248201527f6e65737465642e696e76616c69642e73656e64657200000000000000000000006044820152fd5b604051906141bf826129bb565b600b82527f6d696e74436f756e7428290000000000000000000000000000000000000000006020830152565b908160209103126103ef575190565b60405190614207826129bb565b600e82527f6d696e74732875696e74323536290000000000000000000000000000000000006020830152565b91908260809103126103ef5781519160208101519160606040830151920151611467816103f4565b60005b83811061426e5750506000910152565b818101518382015260200161425e565b90916001600160a01b03606093168252604060208301526142ae815180928160408601526020868601910161425b565b601f01601f1916010190565b156142c157565b606460405162461bcd60e51b815260206004820152601b60248201527f6e65737465642e757365722e696e76616c6964696e7374616e636500000000006044820152fd5b1561430c57565b606460405162461bcd60e51b815260206004820152601560248201527f6e65737465642e696e76616c69642e706172656e7400000000000000000000006044820152fd5b1561435757565b606460405162461bcd60e51b815260206004820152601760248201527f6e65737465642e7265712e616c726561647965786973740000000000000000006044820152fd5b156143a257565b606460405162461bcd60e51b815260206004820152601460248201527f6e65737465642e7265712e6e6f746578697374730000000000000000000000006044820152fd5b156143ed57565b606460405162461bcd60e51b815260206004820152601860248201527f6e65737465642e757365722e6e6f742e646574616368656400000000000000006044820152fd5b1561443857565b606460405162461bcd60e51b815260206004820152601c60248201527f6e65737465642e757365722e616c72656164792e6465746163686564000000006044820152fd5b80549081156144a657600019918201916144968383613e98565b909182549160031b1b1916905555565b634e487b7160e01b600052603160045260246000fd5b8015610865576000190190565b906144e76144e1836000526019602052604060002090565b546137db565b9160029081614500826000526015602052604060002090565b0154906001938492835b614518575b50505050505050565b600f808511158061483c575b1561483657859060056145486109bd82611583876000526015602052604060002090565b614575575b505061456661456e926000526015602052604060002090565b015493613ac6565b928561450a565b865b828111156146705750505061456661456e928460001461460d576145bf6145a8876000526018602052604060002090565b6145b1896138b0565b600052602052604060002090565b546145e36145db896111ea856000526018602052604060002090565b9182546137e9565b90556145f9816000526019602052604060002090565b6146048b82546137e9565b90555b9261454d565b6146246145a8876000526018602052604060002090565b54614648614640896111ea856000526018602052604060002090565b9182546138bf565b905561465e816000526019602052604060002090565b6146698b82546138bf565b9055614607565b9091925061468c82611583886000526015602052604060002090565b61469688836138bf565b604091876146d86146ca8551806146b66020978883019190602083019252565b0394612722601f1996878101845283612a0f565b848082518301019101613758565b50509290878a82158061482e575b61481d579261476e94926117d16147136115ea9461158361477b9b9a986000526015602052604060002090565b94601f9a8c8c5491519889957f7b058ac1000000000000000000000000000000000000000000000000000000008d8801526024870193909594919260809360a086019786526020860152604085015260608401521515910152565b805181018201910161386a565b9087156147d3575b8082116147a057505050614797905b613ac6565b90879291614577565b6147a990613ac6565b6147c2816111ea85546000526016602052604060002090565b6147cc81546137db565b9055614783565b9190915b8281116147ea5750505061479790613ac6565b80614807614818926111ea85546000526016602052604060002090565b61481181546138b0565b90556144bc565b6147d7565b505050505050505061479790613ac6565b5085156146e6565b5061450f565b50811515614524565b9061012080838303126103ef5781601f840112156103ef576040519281840184811067ffffffffffffffff8211176129b657604052839181019283116103ef57905b8282106148945750505090565b8151815260209182019101614887565b604051906148b1826129bb565b600f82527f66726565496e74657276616c73282900000000000000000000000000000000006020830152565b604051906148ea826129bb565b601582527f67657452616e6b5769746841676556616c7565282900000000000000000000006020830152565b60405190614923826129bb565b601382527f72616e6b436c617573652875696e7432353629000000000000000000000000006020830152565b908160a09103126103ef578051916020820151916040810151916080606083015192015190565b9190916003926149a761499085546001600160a01b031690565b6149986135b4565b906149a16148a4565b906159b8565b9360008092819082948392849185985b600f8a111580614c8f575b15614c815760056149e46109bd82611583856000526015602052604060002090565b614a11575b506002614a03614a0b926000526015602052604060002090565b015499613ac6565b986149b7565b8c614a35614a2d83611583866000526015602052604060002090565b61281a6148dd565b8c614a4a60209283808251830101910161386a565b829591951580614c18575b1580614c0f575b8015614c07575b614a72575b50505050506149e9565b869e8697929394959603614b46575b50614b03928b6115ea8c611e90614aad614b099997611583614af6986000526015602052604060002090565b93601f9a8b5460405197889563208bffb160e21b8c8801526024870193909594919260a09360c08601978652600060208701526040860152606085015260808401521515910152565b80518101820191016141eb565b926137db565b80831015614b2457509098905060028c614a0b8c3880614a68565b80613f8f614b41926111ea85546000526016602052604060002090565b614b09565b9193929a50508a8511614b99575b509087918c86861080801591614b70575b50159a929193614a81565b89881015915081614b91575b5080614b89575b38614b65565b508815614b83565b905038614b7c565b995095509350859250614be8614bda614bb98b546001600160a01b031690565b60405190614bd282611e90888c83019190602083019252565b61272a614916565b86808251830101910161494f565b969350909691509594614bfe859b601f546138bf565b11969091614b54565b506000614a63565b508a1515614a5c565b99509b50955095509a50614c61614c53838d614bd2614c3e8f546001600160a01b031690565b60405192830193845291928390602001611e90565b8c808251830101910161494f565b9e9350909791509695849b859e614c7a82601f546138bf565b1199614a55565b505050505050505050509050565b508015156149c2565b90929192614cb16149906003546001600160a01b031690565b93600091829083809481938280985b600f8a111580614f4b575b15614c8157614cec6109bd6005611583846000526015602052604060002090565b614d10575b6002614a03614d0a926000526015602052604060002090565b98614cc0565b8b8a614d31611c2c614a2d6005611583876000526015602052604060002090565b8293919315614eee575b82151580614ee5575b8015614edc575b614d59575b50505050614cf1565b938394819d8d949503614e26575b50614ded92614b03926115ea8c611e908f614d946005611583614dde996000526015602052604060002090565b94601f9a8b549060405198899663208bffb160e21b60208901526024880194919260a0949197969360c0870198875260208701526040860152606085015260808401521515910152565b602080825183010191016141eb565b80831015614e0457509098905060028a8d38614d50565b80613f8f614e21926111ea85546000526016602052604060002090565b614ded565b935050509750828211614e78575b50898c878b86851080801591614e4f575b50159a9291614d67565b89871015915081614e70575b5080614e68575b38614e45565b508815614e62565b905038614e5b565b935093505050614ebf614eb0614e966003546001600160a01b031690565b60405190614bd282611e9088602083019190602083019252565b6020808251830101910161494f565b9350909391509291614ed48592601f546138bf565b119338614e34565b508b1515614d4b565b50891515614d44565b97505050935097505050614f2a614eb0614f106003546001600160a01b031690565b60405190614bd282611e9087602083019190602083019252565b999350909391509291818a8d829b614f4489601f546138bf565b1197614d3b565b50801515614ccb565b614f5c615693565b1561088f57614f6a33615718565b801561506d575b1561086a57614f7e613880565b614f89811515615081565b614fa6614f9e6003546001600160a01b031690565b61281a6150cc565b614fba602091828082518301019101615105565b92614fcf83600052601a602052604060002090565b549160005b60078110614fe457505050505050565b80614ff26150609285615182565b5115614792576150028188615182565b518051908482156150655761502961503a91615021615040958b6151a4565b930151615193565b6150338589615182565b51906151a4565b906151b7565b6111f9615057886000526017602052604060002090565b6145b1846137db565b614fd4565b505050613ac6565b50336001600160a01b036005541614614f71565b1561508857565b606460405162461bcd60e51b815260206004820152601260248201527f6e65737465642e696e76616c69642e61676500000000000000000000000000006044820152fd5b604051906150d9826129bb565b601882527f6765744261746368526f79616c7479436c6175736573282900000000000000006020830152565b6102a09081818403126103ef5782601f820112156103ef57604080519361512b856129f3565b84938301928184116103ef57935b83851061514857505050505090565b6060858303126103ef5782516060916151608261299a565b8651825260209182880151838201528588015186820152815201940193615139565b906007811015613eb05760051b0190565b908160640291606483040361086557565b8181029291811591840414171561086557565b81156151c1570490565b634e487b7160e01b600052601260045260246000fd5b604051906151e4826129bb565b600682527f73746f72282900000000000000000000000000000000000000000000000000006020830152565b6040519061010080830183811067ffffffffffffffff8211176129b657604052368337565b601f5480600052601a60205260406000205491820180921161086557600052601a602052604060002055565b601f5480600052601b60205260406000205491820180921161086557600052601b602052604060002055565b601f5480600052601c60205260406000205491820180921161086557600052601c602052604060002055565b601f5480600052601d602052604060002054906001820180921161086557600052601d602052604060002055565b908160209103126103ef5751611467816103f4565b6040513d6000823e3d90fd5b60405190615315826129bb565b601482527f676574627573696e6573732875696e74323536290000000000000000000000006020830152565b6040519061534e826129bb565b601d82527f67657472616e6b436f756e742875696e743235362c75696e74323536290000006020830152565b61565f6101c061389e926153b461539882516001600160a01b031690565b6001600160a01b03166001600160a01b03196002541617600255565b6153e76153cb60208301516001600160a01b031690565b6001600160a01b03166001600160a01b03196003541617600355565b61541a6153fe60408301516001600160a01b031690565b6001600160a01b03166001600160a01b03196004541617600455565b61544d61543160608301516001600160a01b031690565b6001600160a01b03166001600160a01b03196005541617600555565b61548061546460808301516001600160a01b031690565b6001600160a01b03166001600160a01b03196006541617600655565b6154b361549760a08301516001600160a01b031690565b6001600160a01b03166001600160a01b03196007541617600755565b6154e66154ca60c08301516001600160a01b031690565b6001600160a01b03166001600160a01b03196008541617600855565b6155196154fd60e08301516001600160a01b031690565b6001600160a01b03166001600160a01b03196009541617600955565b61554d6155316101008301516001600160a01b031690565b6001600160a01b03166001600160a01b0319600a541617600a55565b6155816155656101208301516001600160a01b031690565b6001600160a01b03166001600160a01b0319600b541617600b55565b6155b56155996101408301516001600160a01b031690565b6001600160a01b03166001600160a01b0319600c541617600c55565b6155e96155cd6101608301516001600160a01b031690565b6001600160a01b03166001600160a01b0319600d541617600d55565b61561d6156016101808301516001600160a01b031690565b6001600160a01b03166001600160a01b0319600e541617600e55565b6156516156356101a08301516001600160a01b031690565b6001600160a01b03166001600160a01b0319600f541617600f55565b01516001600160a01b031690565b6001600160a01b03166001600160a01b03196010541617601055565b908160209103126103ef575180151581036103ef5790565b6156ee6001600160a01b03600254166040516156ae816129bb565b600881527f69735361666528290000000000000000000000000000000000000000000000006020820152604051916156e5836129d7565b600083526158e9565b908061570d575b156106da57806020806114679351830101910161567b565b5060208151146156f5565b61577b6001600160a01b038060025416604051916020941684830152838252615740826129bb565b6040519061574d826129bb565b601582527f6973536563757265426173652861646472657373290000000000000000000000858301526158e9565b9080615798575b156106da5781611467928251830101910161567b565b5081815114615782565b6114676001600160a01b03600354166040516157bd816129bb565b600681527f69416765282900000000000000000000000000000000000000000000000000006020820152604051916107a5836129d7565b3d1561581f573d9061580582613585565b916158136040519384612a0f565b82523d6000602084013e565b606090565b9061582e91615859565b906000901561583b575090565b6040519150615849826129d7565b815290565b9061582e92916158e9565b73c7aff2414b0436ddf2d5d72e582feb8930af67f1803b156158d0576000926001600160e01b031983602086955191012016906158c060246040518093602082019586526158b0815180926020868601910161425b565b8101036004810184520182612a0f565b51915afa6158cc6157f4565b9091565b5050506000906040516158e2816129d7565b6000815290565b803b156158d0576000926001600160e01b031983602086955191012016906158c060246040518093602082019586526158b0815180926020868601910161425b565b9291615939916000946158e9565b9080615971575b6159475750565b9091506020818051810103126103ef5760206001600160a01b0391015161596d816103f4565b1690565b506020815114615940565b929161598a916000946158e9565b90806159ad575b6159985750565b6114679192506020808251830101910161567b565b506020815114615991565b92916159c6916000946158e9565b90806159e9575b6159d45750565b611467919250602080825183010191016141eb565b5060208151146159cd565b90602082519201516001600160e01b0319908181169360048110615a1757505050565b60040360031b82901b16169150565b6001600160a01b03811615615ac157600080918351908260208601915af190615a4d6157f4565b9115615a57575090565b805160009190600411615abb57615a6e91506159f4565b815115615a7e5750805190602001fd5b6040517f21c09d340000000000000000000000000000000000000000000000000000000081526001600160e01b0319919091166004820152602490fd5b50615a6e565b60046040517fe6c4247b000000000000000000000000000000000000000000000000000000008152fdfea2646970667358221220c72cbe022d244451e7c37c8c97d306e7b1b49bc5d3b5e7a592df4333581026f464736f6c63430008140033","linkReferences":{}},"methodIdentifiers":{"dAOAssembly()":"14837455","daocore()":"14d8d024","nested741()":"45cff900","old741()":"5540c5ac","price()":"a035b1fe"},"id":83}