{"abi":[{"type":"constructor","inputs":[{"name":"_hex","type":"address","internalType":"address"}],"stateMutability":"nonpayable"},{"type":"function","name":"instance","inputs":[],"outputs":[{"name":"","type":"address","internalType":"address"}],"stateMutability":"view"},{"type":"function","name":"tVLFactory","inputs":[],"outputs":[{"name":"","type":"address","internalType":"address"}],"stateMutability":"view"},{"type":"function","name":"tVLMining","inputs":[],"outputs":[{"name":"","type":"address","internalType":"address"}],"stateMutability":"view"},{"type":"function","name":"tVLReward","inputs":[],"outputs":[{"name":"","type":"address","internalType":"address"}],"stateMutability":"view"},{"type":"function","name":"tVLRoyality","inputs":[],"outputs":[{"name":"","type":"address","internalType":"address"}],"stateMutability":"view"},{"type":"function","name":"tVLTour","inputs":[],"outputs":[{"name":"","type":"address","internalType":"address"}],"stateMutability":"view"},{"type":"function","name":"tVLValidator","inputs":[],"outputs":[{"name":"","type":"address","internalType":"address"}],"stateMutability":"view"}],"bytecode":{"object":"0x60803461023957601f6142aa38819003918201601f19168301926001600160401b039290919083851183861017610223578083926040968752833960209283918101031261023957516001600160a01b03919082811690819003610239578451916127d9928381019381851087861117610223576103f482398284528681600095868582015203019084f09485156102195783549585166001600160a01b031996871617845586516116dd8082019491808610848711176101e7578481612bcd978489833985815203019087f080156101fb578716886001541617600155885181810181811085821117610205578186918489833985815203019087f080156101fb578716886002541617600255885181810181811085821117610205578186918489833985815203019087f080156101fb578716886003541617600355885181810181811085821117610205578186918489833985815203019087f080156101fb578716886004541617600455885181810181811085821117610205578186918489833985815203019087f080156101fb57871688600554161760055588519481860193868510908511176101e75790859392918439815203019082f09081156101dc575016906006541617600655516101b5908161023f8239f35b8451903d90823e3d90fd5b634e487b7160e01b87526041600452602487fd5b89513d88823e3d90fd5b634e487b7160e01b88526041600452602488fd5b86513d85823e3d90fd5b634e487b7160e01b600052604160045260246000fd5b600080fdfe60806040818152600436101561001457600080fd5b600091823560e01c908163022ec0951461015c575080639443767c146101355780639ba540fb1461010e578063a50c0bc0146100e7578063b85c9faf146100c0578063d795ff38146100995763dabf429d1461006f57600080fd5b346100955781600319360112610095576020906001600160a01b03600554169051908152f35b5080fd5b50346100955781600319360112610095576020906001600160a01b03600254169051908152f35b50346100955781600319360112610095576020906001600160a01b03600354169051908152f35b50346100955781600319360112610095576020906001600160a01b03600654169051908152f35b50346100955781600319360112610095576020906001600160a01b03600154169051908152f35b50346100955781600319360112610095576020906001600160a01b03600454169051908152f35b8390346100955781600319360112610095576001600160a01b0360209254168152f3fea264697066735822122065a7758f25ccc524151255dfadae62f8039f6018fc398d49b6bce8cd6752e40d64736f6c63430008140033608034620000c157601f620027d938819003918201601f19168301916001600160401b03831184841017620000c6578084926040948552833981010312620000c1576200005a60206200005283620000dc565b9201620000dc565b6001600160a01b0391821691908215620000af5760018060a01b031992836001541690846000541617600055600160115533908433161717600155169060125416176012556040516126e79081620000f28239f35b60405163e6c4247b60e01b8152600490fd5b600080fd5b634e487b7160e01b600052604160045260246000fd5b51906001600160a01b0382168203620000c15756fe60806040526004361015610018575b361561001657005b005b60003560e01c80630399c93c1461019857806306fdde031461019357806312065fe01461018e5780631499c592146101895780631f185d1614610184578063339459a61461017f5780633b9b79551461017a5780633dbfd97c1461017557806360f96a8f146101705780638129fc1c1461016b5780638da5cb5b14610166578063a1f7f53914610161578063a3e884b01461015c578063af48452614610157578063af640d0f14610152578063b28175c41461014d578063b90306ad14610148578063c107930a14610143578063c47f00271461013e578063c54e44b014610139578063d4ace81b14610134578063e01ad5fd1461012f578063e0a9bc2b1461012a5763fdc10bc90361000e57611170565b611155565b6110d5565b6110a1565b61101b565b610fa8565b610e76565b610d54565b610d2d565b610d0f565b610cde565b610b12565b610a76565b610a4f565b610754565b61072d565b610670565b610649565b610630565b610549565b6104b1565b610495565b6103b0565b6101b3565b6001600160a01b038116036101ae57565b600080fd5b346101ae5760203660031901126101ae576004356101d08161019d565b6101d861228d565b1561026b576101e633612312565b8015610257575b1561022d57610226906102036015541515611468565b61020b6113ab565b61021f6001600160a01b0382161515611840565b47906123cc565b6001601155005b60046040517fea8e4eb5000000000000000000000000000000000000000000000000000000008152fd5b50336001600160a01b0360055416146101ed565b60046040517f9dc4246e000000000000000000000000000000000000000000000000000000008152fd5b90600182811c921680156102c5575b60208310146102af57565b634e487b7160e01b600052602260045260246000fd5b91607f16916102a4565b634e487b7160e01b600052604160045260246000fd5b6040810190811067ffffffffffffffff82111761030157604052565b6102cf565b6020810190811067ffffffffffffffff82111761030157604052565b610100810190811067ffffffffffffffff82111761030157604052565b90601f8019910116810190811067ffffffffffffffff82111761030157604052565b60005b8381106103745750506000910152565b8181015183820152602001610364565b604091602082526103a48151809281602086015260208686019101610361565b601f01601f1916010190565b346101ae576000806003193601126104925760405190806014546103d381610295565b80855291600191808316908115610468575060011461040d575b610409856103fd8187038261033f565b60405191829182610384565b0390f35b9250601483527fce6d7b5282bd9a3661ae061feed1dbda4e52ab073b1f9285be6e155d9c38d4ec5b8284106104505750505081016020016103fd826104096103ed565b80546020858701810191909152909301928101610435565b869550610409969350602092506103fd94915060ff191682840152151560051b82010192936103ed565b80fd5b346101ae5760003660031901126101ae57602047604051908152f35b346101ae5760203660031901126101ae576004356104ce8161019d565b6104d661228d565b1561026b576104e433612312565b8015610535575b1561022d576001600160a01b03906105066015541515611468565b61050e6113ab565b1661051a811515611840565b6001600160a01b031960125416176012556001601155600080f35b50336001600160a01b0360055416146104eb565b346101ae576020806003193601126101ae576105c860043561056a8161019d565b6001600160a01b0380600254169060405192168483015283825261058d826102e5565b6040519061059a826102e5565b601182527f69735369676e657228616464726573732900000000000000000000000000000085830152612456565b919080610626575b156105fc5781816105ea9261040994518301019101612275565b60405190151581529081906020820190565b60046040517f3204506f000000000000000000000000000000000000000000000000000000008152fd5b50808251146105d0565b346101ae5760003660031901126101ae57610016611baf565b346101ae5760003660031901126101ae5760206001600160a01b0360005416604051908152f35b346101ae5760203660031901126101ae576001546001600160a01b031633819003610703576106f06106d46106f4926106e26106b46004546001600160a01b031690565b91604051938491602083019190916001600160a01b036020820193169052565b03601f19810184528361033f565b6106ea6111d4565b9061253a565b1590565b61070357610016600435611295565b60046040517f82b42900000000000000000000000000000000000000000000000000000000008152fd5b346101ae5760003660031901126101ae5760206001600160a01b0360125416604051908152f35b60003660031901126101ae576107686113ab565b601554610a0b57610777611baf565b600a546001600160a01b03166001546001600160a01b031690604051916107d9602093806107b7848783019190916001600160a01b036020820193169052565b03936107cb601f199586810184528361033f565b6107d36113e6565b906124e9565b906001600160a01b038216156109585750916108a87f4ef260a900000000000000000000000000000000000000000000000000000000926108fc6108db6108f76108bb6108ad7f3baee0ea0000000000000000000000000000000000000000000000000000000061094c9a6108a88a61089c61085d6004546001600160a01b031690565b936108706001546001600160a01b031690565b604051938401969096526001600160a01b03908116602484015290941660448201529283906064820190565b0389810184528361033f565b6125fe565b87808251830101910161143e565b939091936001600160a01b03166001600160a01b03196012541617601255565b6001600160a01b03166001600160a01b03196013541617601355565b601555565b600a546001600160a01b03169261094061091e6001546001600160a01b031690565b604051968793840152602483019190916001600160a01b036020820193169052565b0390810184528361033f565b505b6100166001601155565b6109e79150926109da610a06946108f7946108a861097e6004546001600160a01b031690565b916109916012546001600160a01b031690565b6040517fb1c4907900000000000000000000000000000000000000000000000000000000888201526001600160a01b039182166024820152941660448501528360648101610940565b805181018201910161141f565b9190916001600160a01b03166001600160a01b03196013541617601355565b61094e565b606460405162461bcd60e51b815260206004820152601660248201527f6d652e616c72656164792e696e697469616c697a6564000000000000000000006044820152fd5b346101ae5760003660031901126101ae5760206001600160a01b0360015416604051908152f35b346101ae5760003660031901126101ae576020610ae36001600160a01b0360065416604051610aa4816102e5565b601381527f67657464656c656761746f72436f756e742829000000000000000000000000008482015260405191610ada83610306565b60008352612576565b604051908152f35b60809060031901126101ae57600435610b038161019d565b90602435906044359060643590565b610b1b36610aeb565b92610b2c6015939293541515611468565b610b346114b3565b610b3c6113ab565b60018403610b4e5761094e9350611720565b50916007915014610b60575b5061094e565b610bc2610bd191610b796004546001600160a01b031690565b6015546040517f6a811244000000000000000000000000000000000000000000000000000000006020820152602481019190915260448101929092526108a882606481016106d4565b60208082518301019101611686565b9080471015610c5c575b81471015610bea575b50610b5a565b610c267f992e981f1f6d8cb3a32ce3b31107393c58fbd9a9052cb415a19d578833bf80d692610c21600c546001600160a01b031690565b6123cc565b600c54604080516001600160a01b0390921682526020820192909252429181019190915260006060820152608090a13880610be4565b610c7281610c216001546001600160a01b031690565b7f992e981f1f6d8cb3a32ce3b31107393c58fbd9a9052cb415a19d578833bf80d6610cd6610ca86001546001600160a01b031690565b604080516001600160a01b039092168252602082018590524290820152600060608201529081906080820190565b0390a1610bdb565b346101ae5760203660031901126101ae576020610d05600435610d008161019d565b612312565b6040519015158152f35b346101ae5760003660031901126101ae576020601554604051908152f35b346101ae5760003660031901126101ae5760206001600160a01b0360135416604051908152f35b346101ae5760203660031901126101ae576004356001600160a01b0360055416330361022d5760009060046020610da1610d9585546001600160a01b031690565b6001600160a01b031690565b604051928380927f46f991ac0000000000000000000000000000000000000000000000000000000082525afa8015610e715783808481949382948391610e43575b505af1610ded61239c565b50156105fc577fcdcc745fe377b103b45fa0cec23ae3ef93d6fc6a84a01f0d18c40b354dd1d5d8610e3d610e2c610d95600b546001600160a01b031690565b604051938452929081906020820190565b0390a280f35b610e64915060203d8111610e6a575b610e5c818361033f565b81019061188b565b38610de2565b503d610e52565b6118a0565b610e7f36610aeb565b610e90601594939294541515611468565b610e9861228d565b1561026b57610ea633612312565b8015610f57575b1561022d57610eba6113ab565b610ec261228d565b1561026b57610ed033612312565b8015610f43575b1561022d5761094c93610ef1610eec85612312565b61169c565b6001600160a01b03928360045416936015549560405196636e59fe2560e11b602089015260248801521660448601526064850152608484015260a4830152600060c483015260c482526108a882610322565b50336001600160a01b036005541614610ed7565b50336001600160a01b036005541614610ead565b604051906101e0820182811067ffffffffffffffff82111761030157604052565b67ffffffffffffffff811161030157601f01601f191660200190565b346101ae5760203660031901126101ae5760043567ffffffffffffffff81116101ae57366023820112156101ae578060040135610fe481610f8c565b90610ff2604051928361033f565b80825236602482850101116101ae576020816000926024610016960183860137830101526114fa565b346101ae5760203660031901126101ae576004356110388161019d565b803b600061104582610f8c565b92611053604051948561033f565b82845260208401903c602d81511061107757602a602091015160601c604051908152f35b60046040517fbaf3f0f7000000000000000000000000000000000000000000000000000000008152fd5b346101ae5760003660031901126101ae576016541515806110ca575b6020906040519015158152f35b5060175442106110bd565b346101ae5760203660031901126101ae576020610d056004356110f78161019d565b6001600160a01b0380600654169060405192168483015283825261111a826102e5565b60405190611127826102e5565b601882527f697364656c656761746f724e6f646528616464726573732900000000000000008583015261253a565b346101ae5760003660031901126101ae576020610d0561228d565b346101ae5760003660031901126101ae576020610ae36001600160a01b036003541660405161119e816102e5565b600681527f69416765282900000000000000000000000000000000000000000000000000008482015260405191610ada83610306565b604051906111e1826102e5565b601582527f69735573657245786973747328616464726573732900000000000000000000006020830152565b634e487b7160e01b600052601160045260246000fd5b60001981146112325760010190565b61120d565b60405161124381610306565b60008152906000368137565b6040519061125c826102e5565b601382527f73657373696f6e54544c5365636f6e64732829000000000000000000000000006020830152565b9190820180921161123257565b6109406113a8916108a86113086113246112b76001546001600160a01b031690565b6112c2601854611223565b6112cb81601855565b60408051466020820190815230928201929092526001600160a01b03909316606084015242608084015260a08301919091529092839060c0820190565b039261131c601f199485810183528261033f565b519020601655565b61136161135c61135661133f6003546001600160a01b031690565b611347611237565b9061135061124f565b90612576565b42611288565b601755565b6013546001600160a01b0316926040519485917f70878d04000000000000000000000000000000000000000000000000000000006020840152602483019190602083019252565b50565b6002601154146113bc576002601155565b60046040517f3ee5aeb5000000000000000000000000000000000000000000000000000000008152fd5b604051906113f3826102e5565b601e82527f7265736f6c76655472616e7366657254617267657428616464726573732900006020830152565b91908260409103126101ae576020825192015161143b8161019d565b90565b908160609103126101ae578051916040602083015161145c8161019d565b92015161143b8161019d565b1561146f57565b606460405162461bcd60e51b815260206004820152600f60248201527f6d652e696e76616c69642e696e697400000000000000000000000000000000006044820152fd5b6016541580156114ee575b6114c457565b60046040517f1fd05a4a000000000000000000000000000000000000000000000000000000008152fd5b506017544210156114be565b6115076015541515611468565b61150f6114b3565b61151761228d565b1561026b576001906001600160a01b03825416330361022d5780519067ffffffffffffffff82116103015761155682611551601454610295565b611615565b60209081601f84116001146115935750928293918392600094611588575b50501b916000199060031b1c191617601455565b015192503880611574565b6014600052919083601f1981167fce6d7b5282bd9a3661ae061feed1dbda4e52ab073b1f9285be6e155d9c38d4ec946000905b888383106115fb57505050106115e2575b505050811b01601455565b015160001960f88460031b161c191690553880806115d7565b8587015188559096019594850194879350908101906115c6565b601f8111611621575050565b600090601482527fce6d7b5282bd9a3661ae061feed1dbda4e52ab073b1f9285be6e155d9c38d4ec906020601f850160051c8301941061167c575b601f0160051c01915b82811061167157505050565b818155600101611665565b909250829061165c565b91908260409103126101ae576020825192015190565b156116a357565b606460405162461bcd60e51b815260206004820152601360248201527f6d652e756e7365637572652e4f524331313535000000000000000000000000006044820152fd5b9060158202918083046015149015171561123257565b90602d820291808304602d149015171561123257565b9190820391821161123257565b9161172d610eec84612312565b3461173757505050565b6108a86113a8936117d961175461174d346116e7565b6064900490565b6117c861176b611763346116fd565b6103e8900490565b6117b761177a611763346116fd565b936117a661179586611790866117908634611713565b611713565b600b546001600160a01b03166123cc565b600d546001600160a01b03166123cc565b600e546001600160a01b03166123cc565b600f546001600160a01b03166123cc565b6106d46117ee6004546001600160a01b031690565b9360155490604051968794636e59fe2560e11b6020870152349360248701919360a0936001600160a01b036001969897939860c086019986521660208501526040840152606083015260808201520152565b1561184757565b606460405162461bcd60e51b815260206004820152600f60248201527f6d652e7a65726f2e6164647265737300000000000000000000000000000000006044820152fd5b908160209103126101ae575161143b8161019d565b6040513d6000823e3d90fd5b611b916101c0611bad926118e66118ca82516001600160a01b031690565b6001600160a01b03166001600160a01b03196002541617600255565b6119196118fd60208301516001600160a01b031690565b6001600160a01b03166001600160a01b03196003541617600355565b61194c61193060408301516001600160a01b031690565b6001600160a01b03166001600160a01b03196004541617600455565b61197f61196360608301516001600160a01b031690565b6001600160a01b03166001600160a01b03196005541617600555565b6119b261199660808301516001600160a01b031690565b6001600160a01b03166001600160a01b03196006541617600655565b6119e56119c960a08301516001600160a01b031690565b6001600160a01b03166001600160a01b03196007541617600755565b611a186119fc60c08301516001600160a01b031690565b6001600160a01b03166001600160a01b03196008541617600855565b611a4b611a2f60e08301516001600160a01b031690565b6001600160a01b03166001600160a01b03196009541617600955565b611a7f611a636101008301516001600160a01b031690565b6001600160a01b03166001600160a01b0319600a541617600a55565b611ab3611a976101208301516001600160a01b031690565b6001600160a01b03166001600160a01b0319600b541617600b55565b611ae7611acb6101408301516001600160a01b031690565b6001600160a01b03166001600160a01b0319600c541617600c55565b611b1b611aff6101608301516001600160a01b031690565b6001600160a01b03166001600160a01b0319600d541617600d55565b611b4f611b336101808301516001600160a01b031690565b6001600160a01b03166001600160a01b0319600e541617600e55565b611b83611b676101a08301516001600160a01b031690565b6001600160a01b03166001600160a01b0319600f541617600f55565b01516001600160a01b031690565b6001600160a01b03166001600160a01b03196010541617601055565b565b611bc4610d956000546001600160a01b031690565b604051907f97f3815a000000000000000000000000000000000000000000000000000000008252602082600481845afa918215610e7157600092612254575b50604051917fcfbffe53000000000000000000000000000000000000000000000000000000008352602083600481855afa928315610e7157600093612233575b50604051907fab6e844f000000000000000000000000000000000000000000000000000000008252602082600481865afa918215610e7157600092612212575b50604051917f14d8d024000000000000000000000000000000000000000000000000000000008352602083600481875afa928315610e71576000936121f1575b50604051927fd1f956b1000000000000000000000000000000000000000000000000000000008452602084600481885afa938415610e71576000946121d0575b50604051937fe61dfd58000000000000000000000000000000000000000000000000000000008552602085600481895afa948515610e71576000956121af575b506040517fe09d394d0000000000000000000000000000000000000000000000000000000081526020816004818a5afa908115610e7157600091612190575b506040517f52b06d640000000000000000000000000000000000000000000000000000000081526020816004818b5afa908115610e7157600091612171575b506040517f013cf08b00000000000000000000000000000000000000000000000000000000815260006004820152916020836024818c5afa928315610e7157600093612150575b50604051977f5e09dbe70000000000000000000000000000000000000000000000000000000089526020896004818d5afa948515610e715760049960009661212f575b5060208b6040519b8c80927faa0ddc160000000000000000000000000000000000000000000000000000000082525afa968715610e715760049a60009861210e575b5060208c6040519c8d80927f640274270000000000000000000000000000000000000000000000000000000082525afa988915610e715760049b60009a6120ed575b5060208d6040519d8e80927f30125cf50000000000000000000000000000000000000000000000000000000082525afa9a8b15610e71578d60049d60009d6120cb575b506020906040519e8f80927f24768d910000000000000000000000000000000000000000000000000000000082525afa9c8d15610e715760009d6120aa575b50604051809e81907f9dc969a80000000000000000000000000000000000000000000000000000000082525a92600491602094fa9d8e15610e715760009e612089575b50611f9d610f6b565b6001600160a01b0390911681529d8e906001600160a01b0316602082015260400190611fd191906001600160a01b03169052565b6001600160a01b031660608d01526001600160a01b031660808c01526001600160a01b031660a08b01526001600160a01b031660c08a01526001600160a01b031660e08901526001600160a01b03166101008801526001600160a01b03166101208701526001600160a01b03166101408601526001600160a01b03166101608501526001600160a01b03166101808401526001600160a01b03166101a08301526001600160a01b03166101c0820152611bad906118ac565b6120a3919e5060203d602011610e6a57610e5c818361033f565b9c38611f94565b6120c4919d5060203d602011610e6a57610e5c818361033f565b9b38611f51565b6020919d506120e690823d8411610e6a57610e5c818361033f565b9c90611f12565b612107919a5060203d602011610e6a57610e5c818361033f565b9838611ecf565b61212891985060203d602011610e6a57610e5c818361033f565b9638611e8d565b61214991965060203d602011610e6a57610e5c818361033f565b9438611e4b565b61216a91935060203d602011610e6a57610e5c818361033f565b9138611e08565b61218a915060203d602011610e6a57610e5c818361033f565b38611dc1565b6121a9915060203d602011610e6a57610e5c818361033f565b38611d82565b6121c991955060203d602011610e6a57610e5c818361033f565b9338611d43565b6121ea91945060203d602011610e6a57610e5c818361033f565b9238611d03565b61220b91935060203d602011610e6a57610e5c818361033f565b9138611cc3565b61222c91925060203d602011610e6a57610e5c818361033f565b9038611c83565b61224d91935060203d602011610e6a57610e5c818361033f565b9138611c43565b61226e91925060203d602011610e6a57610e5c818361033f565b9038611c03565b908160209103126101ae575180151581036101ae5790565b6122e86001600160a01b03600254166040516122a8816102e5565b600881527f69735361666528290000000000000000000000000000000000000000000000006020820152604051916122df83610306565b60008352612456565b9080612307575b156105fc578060208061143b93518301019101612275565b5060208151146122ef565b6123756001600160a01b03806002541660405191602094168483015283825261233a826102e5565b60405190612347826102e5565b601582527f697353656375726542617365286164647265737329000000000000000000000085830152612456565b9080612392575b156105fc578161143b9282518301019101612275565b508181511461237c565b3d156123c7573d906123ad82610f8c565b916123bb604051938461033f565b82523d6000602084013e565b606090565b908015612452576001600160a01b03821691821561242857600080808481945af16123f561239c565b50156105fc5760207fcec1f18c3ab8ddaaa107a1591e3c369667eec613626611a8deaedef43069fcdd91604051908152a2565b60046040517fe6c4247b000000000000000000000000000000000000000000000000000000008152fd5b5050565b803b156124d0576000927fffffffff0000000000000000000000000000000000000000000000000000000083602086955191012016906124c060246040518093602082019586526124b08151809260208686019101610361565b810103600481018452018261033f565b51915afa6124cc61239c565b9091565b5050506000906040516124e281610306565b6000815290565b92916124f791600094612456565b908061252f575b6125055750565b9091506020818051810103126101ae5760206001600160a01b0391015161252b8161019d565b1690565b5060208151146124fe565b929161254891600094612456565b908061256b575b6125565750565b61143b91925060208082518301019101612275565b50602081511461254f565b929161258491600094612456565b90806125a9575b6125925750565b9091506020818051810103126101ae576020015190565b50602081511461258b565b90602082519201517fffffffff000000000000000000000000000000000000000000000000000000009081811693600481106125ef57505050565b60040360031b82901b16169150565b6001600160a01b0381161561242857600080918351908260208601915af19061262561239c565b911561262f575090565b8051600091906004116126ab5761264691506125b4565b8151156126565750805190602001fd5b6040517f21c09d340000000000000000000000000000000000000000000000000000000081527fffffffff00000000000000000000000000000000000000000000000000000000919091166004820152602490fd5b5061264656fea2646970667358221220779b63ed363eb9e9748a32f83dc2943ecbfaedb112d36e64c4e341e4bd1f36df64736f6c6343000814003360803461009257601f6116dd38819003918201601f19168301916001600160401b038311848410176100975780849260209460405283398101031261009257516001600160a01b038116908190036100925780156100805760018060a01b031933816001541617600155600054161760005560405161162f90816100ae8239f35b60405163e6c4247b60e01b8152600490fd5b600080fd5b634e487b7160e01b600052604160045260246000fdfe60806040526004361015610018575b361561001657005b005b60003560e01c806312065fe0146100e85780631f185d16146100e3578063339459a6146100de5780633b9b7955146100d95780638da5cb5b146100d4578063a1f7f539146100cf578063a9059cbb146100ca578063af484526146100c5578063b90306ad146100c0578063c54e44b0146100bb578063e01ad5fd146100b6578063e0a9bc2b146100b15763fdc10bc90361000e57610dce565b610db3565b610ce8565b610c62565b610b50565b610b1f565b6109c0565b61094b565b610924565b6108fd565b610205565b61011a565b3461010457600036600319011261010457602047604051908152f35b600080fd5b6001600160a01b0381160361010457565b34610104576020806003193601126101045761019960043561013b81610109565b6001600160a01b0380600254169060405192168483015283825261015e82610e89565b6040519061016b82610e89565b601182527f69735369676e657228616464726573732900000000000000000000000000000085830152611414565b9190806101fb575b156101d15781816101bb926101cd9451830101910161124c565b60405190151581529081906020820190565b0390f35b60046040517f3204506f000000000000000000000000000000000000000000000000000000008152fd5b50808251146101a1565b346101045760003660031901126101045761023761022b6000546001600160a01b031690565b6001600160a01b031690565b604051907f97f3815a000000000000000000000000000000000000000000000000000000008252602082600481845afa91821561072d576000926108dc575b50604051917fcfbffe53000000000000000000000000000000000000000000000000000000008352602083600481855afa92831561072d576000936108bb575b50604051907fab6e844f000000000000000000000000000000000000000000000000000000008252602082600481865afa91821561072d5760009261089a575b50604051917f14d8d024000000000000000000000000000000000000000000000000000000008352602083600481875afa92831561072d57600093610879575b50604051927fd1f956b1000000000000000000000000000000000000000000000000000000008452602084600481885afa93841561072d57600094610858575b50604051937fe61dfd58000000000000000000000000000000000000000000000000000000008552602085600481895afa94851561072d57600095610837575b506040517fe09d394d0000000000000000000000000000000000000000000000000000000081526020816004818a5afa90811561072d57600091610818575b506040517f52b06d640000000000000000000000000000000000000000000000000000000081526020816004818b5afa90811561072d576000916107f9575b506040517f013cf08b00000000000000000000000000000000000000000000000000000000815260006004820152916020836024818c5afa92831561072d576000936107d8575b50604051977f5e09dbe70000000000000000000000000000000000000000000000000000000089526020896004818d5afa94851561072d576004996000966107b7575b5060208b6040519b8c80927faa0ddc160000000000000000000000000000000000000000000000000000000082525afa96871561072d5760049a600098610796575b5060208c6040519c8d80927f640274270000000000000000000000000000000000000000000000000000000082525afa98891561072d5760049b60009a610775575b5060208d6040519d8e80927f30125cf50000000000000000000000000000000000000000000000000000000082525afa9a8b1561072d578d60049d60009d610753575b506020906040519e8f80927f24768d910000000000000000000000000000000000000000000000000000000082525afa9c8d1561072d5760009d610732575b50604051809e81907f9dc969a80000000000000000000000000000000000000000000000000000000082525a92600491602094fa9d8e1561072d5760009e6106fc575b50610610610f0c565b6001600160a01b0390911681529d8e906001600160a01b031660208201526040019061064491906001600160a01b03169052565b6001600160a01b031660608d01526001600160a01b031660808c01526001600160a01b031660a08b01526001600160a01b031660c08a01526001600160a01b031660e08901526001600160a01b03166101008801526001600160a01b03166101208701526001600160a01b03166101408601526001600160a01b03166101608501526001600160a01b03166101808401526001600160a01b03166101a08301526001600160a01b03166101c082015261001690610f2d565b61071f919e5060203d602011610726575b6107178183610ec6565b810190610ee8565b9c38610607565b503d61070d565b610f00565b61074c919d5060203d602011610726576107178183610ec6565b9b386105c4565b6020919d5061076e90823d8411610726576107178183610ec6565b9c90610585565b61078f919a5060203d602011610726576107178183610ec6565b9838610542565b6107b091985060203d602011610726576107178183610ec6565b9638610500565b6107d191965060203d602011610726576107178183610ec6565b94386104be565b6107f291935060203d602011610726576107178183610ec6565b913861047b565b610812915060203d602011610726576107178183610ec6565b38610434565b610831915060203d602011610726576107178183610ec6565b386103f5565b61085191955060203d602011610726576107178183610ec6565b93386103b6565b61087291945060203d602011610726576107178183610ec6565b9238610376565b61089391935060203d602011610726576107178183610ec6565b9138610336565b6108b491925060203d602011610726576107178183610ec6565b90386102f6565b6108d591935060203d602011610726576107178183610ec6565b91386102b6565b6108f691925060203d602011610726576107178183610ec6565b9038610276565b346101045760003660031901126101045760206001600160a01b0360005416604051908152f35b346101045760003660031901126101045760206001600160a01b0360015416604051908152f35b346101045760003660031901126101045760206109b86001600160a01b036006541660405161097981610e89565b601381527f67657464656c656761746f72436f756e7428290000000000000000000000000084820152604051916109af83610eaa565b600083526114c2565b604051908152f35b604080600319360112610104576004356109d981610109565b602435916001600160a01b0391828116928315610b0f576109f8611264565b15610ae657610a06336112e9565b908115610ad8575b5015610ac85790610a47847f1e70cf59d0c7a20c88704bfce5a47e636dfa577ebf52a7166641741cef34366193814710610a53576113a3565b519283523392602090a3005b610a5c82610e32565b50610ac2610aaf610abd610a6f85610e5e565b87517fa9059cbb00000000000000000000000000000000000000000000000000000000602082015230602482015260448101919091529182906064820190565b03601f198101835282610ec6565b611500565b506113a3565b6004825163ea8e4eb560e01b8152fd5b600554163314905038610a0e565b600483517f9dc4246e000000000000000000000000000000000000000000000000000000008152fd5b6004835163e6c4247b60e01b8152fd5b34610104576020366003190112610104576020610b46600435610b4181610109565b6112e9565b6040519015158152f35b34610104576020366003190112610104576004356001600160a01b03600554163303610c515760009060046020610b9161022b85546001600160a01b031690565b604051928380927f46f991ac0000000000000000000000000000000000000000000000000000000082525afa801561072d5783808481949382948391610c33575b505af1610bdd611373565b50156101d1577fcdcc745fe377b103b45fa0cec23ae3ef93d6fc6a84a01f0d18c40b354dd1d5d8610c2d610c1c61022b600b546001600160a01b031690565b604051938452929081906020820190565b0390a280f35b610c4b915060203d8111610726576107178183610ec6565b38610bd2565b600460405163ea8e4eb560e01b8152fd5b3461010457602036600319011261010457600435610c7f81610109565b803b6000610c8c82611230565b92610c9a6040519485610ec6565b82845260208401903c602d815110610cbe57602a602091015160601c604051908152f35b60046040517fbaf3f0f7000000000000000000000000000000000000000000000000000000008152fd5b3461010457602080600319360112610104576101cd9060043590610d0b82610109565b610d6f6001600160a01b0392836006541693604051911683820152828152610d3281610e89565b604051610d3e81610e89565b601881527f697364656c656761746f724e6f6465286164647265737329000000000000000084820152600094611414565b919080610da9575b610d90575b505060405190151581529081906020820190565b610da29250808251830101910161124c565b3880610d7c565b5080825114610d77565b34610104576000366003190112610104576020610b46611264565b346101045760003660031901126101045760206109b86001600160a01b0360035416604051610dfc81610e89565b600681527f694167652829000000000000000000000000000000000000000000000000000084820152604051916109af83610eaa565b9068056bc75e2d631000008201809211610e4857565b634e487b7160e01b600052601160045260246000fd5b90671bc16d674ec800008201809211610e4857565b634e487b7160e01b600052604160045260246000fd5b6040810190811067ffffffffffffffff821117610ea557604052565b610e73565b6020810190811067ffffffffffffffff821117610ea557604052565b90601f8019910116810190811067ffffffffffffffff821117610ea557604052565b908160209103126101045751610efd81610109565b90565b6040513d6000823e3d90fd5b604051906101e0820182811067ffffffffffffffff821117610ea557604052565b6112126101c061122e92610f67610f4b82516001600160a01b031690565b6001600160a01b03166001600160a01b03196002541617600255565b610f9a610f7e60208301516001600160a01b031690565b6001600160a01b03166001600160a01b03196003541617600355565b610fcd610fb160408301516001600160a01b031690565b6001600160a01b03166001600160a01b03196004541617600455565b611000610fe460608301516001600160a01b031690565b6001600160a01b03166001600160a01b03196005541617600555565b61103361101760808301516001600160a01b031690565b6001600160a01b03166001600160a01b03196006541617600655565b61106661104a60a08301516001600160a01b031690565b6001600160a01b03166001600160a01b03196007541617600755565b61109961107d60c08301516001600160a01b031690565b6001600160a01b03166001600160a01b03196008541617600855565b6110cc6110b060e08301516001600160a01b031690565b6001600160a01b03166001600160a01b03196009541617600955565b6111006110e46101008301516001600160a01b031690565b6001600160a01b03166001600160a01b0319600a541617600a55565b6111346111186101208301516001600160a01b031690565b6001600160a01b03166001600160a01b0319600b541617600b55565b61116861114c6101408301516001600160a01b031690565b6001600160a01b03166001600160a01b0319600c541617600c55565b61119c6111806101608301516001600160a01b031690565b6001600160a01b03166001600160a01b0319600d541617600d55565b6111d06111b46101808301516001600160a01b031690565b6001600160a01b03166001600160a01b0319600e541617600e55565b6112046111e86101a08301516001600160a01b031690565b6001600160a01b03166001600160a01b0319600f541617600f55565b01516001600160a01b031690565b6001600160a01b03166001600160a01b03196010541617601055565b565b67ffffffffffffffff8111610ea557601f01601f191660200190565b90816020910312610104575180151581036101045790565b6112bf6001600160a01b036002541660405161127f81610e89565b600881527f69735361666528290000000000000000000000000000000000000000000000006020820152604051916112b683610eaa565b60008352611414565b90806112de575b156101d15780602080610efd9351830101910161124c565b5060208151146112c6565b61134c6001600160a01b03806002541660405191602094168483015283825261131182610e89565b6040519061131e82610e89565b601582527f697353656375726542617365286164647265737329000000000000000000000085830152611414565b9080611369575b156101d15781610efd928251830101910161124c565b5081815114611353565b3d1561139e573d9061138482611230565b916113926040519384610ec6565b82523d6000602084013e565b606090565b908015611410576001600160a01b0382169182156113ff57600080808481945af16113cc611373565b50156101d15760207fcec1f18c3ab8ddaaa107a1591e3c369667eec613626611a8deaedef43069fcdd91604051908152a2565b600460405163e6c4247b60e01b8152fd5b5050565b9190823b156114a9577fffffffff00000000000000000000000000000000000000000000000000000000815160208093012016916040519180830193845281519160005b83811061149557505050918161148560248260009795968897018783820152036004810184520182610ec6565b51915afa611491611373565b9091565b818101830151858201602401528201611458565b5050506000906040516114bb81610eaa565b6000815290565b92916114d091600094611414565b90806114f5575b6114de5750565b909150602081805181010312610104576020015190565b5060208151146114d7565b602081016000808084518482732fb8b5508b072e1d0e0d2e7e4a1a1a7955589a9a5af19261152c611373565b93156115385750505090565b51916004831091826115f05750517fffffffff0000000000000000000000000000000000000000000000000000000092838216926115db575b505090505b8151156115865750805190602001fd5b6040517f21c09d340000000000000000000000000000000000000000000000000000000081527fffffffff00000000000000000000000000000000000000000000000000000000919091166004820152602490fd5b8391925060040360031b1b1616808380611571565b9250505061157656fea26469706673582212200057763a30ecd540b4259c7a665731b09a23b7e10aac0cb5b6d444565204812a64736f6c63430008140033","linkReferences":{}},"methodIdentifiers":{"instance()":"022ec095","tVLFactory()":"9ba540fb","tVLMining()":"d795ff38","tVLReward()":"b85c9faf","tVLRoyality()":"9443767c","tVLTour()":"dabf429d","tVLValidator()":"a50c0bc0"},"id":77}