{"abi":[{"type":"constructor","inputs":[{"name":"_hex","type":"address","internalType":"address"}],"stateMutability":"nonpayable"},{"type":"function","name":"invalidator","inputs":[],"outputs":[{"name":"","type":"address","internalType":"address"}],"stateMutability":"view"},{"type":"function","name":"rule741","inputs":[],"outputs":[{"name":"","type":"address","internalType":"address"}],"stateMutability":"view"},{"type":"function","name":"transferRequest","inputs":[],"outputs":[{"name":"","type":"address","internalType":"address"}],"stateMutability":"view"}],"bytecode":{"object":"0x6080346200018657601f62009ae438819003918201601f19168301926001600160401b0392909183851183861017620001705781602092849260409788528339810103126200018657516001600160a01b039081811690819003620001865783519061455b918281019281841086851117620001705762005589823981835260208160009403019083f0938415620001665782549484166001600160a01b03199586161783558551612d0f80820190828210848311176200015257602091839162000298833985815203019084f08015620001485784168560015416176001558551916125e28084019284841090841117620001345791839160209362002fa78439815203019082f0908115620001295750169060025416176002555161010c90816200018c8239f35b8451903d90823e3d90fd5b634e487b7160e01b85526041600452602485fd5b86513d85823e3d90fd5b634e487b7160e01b86526041600452602486fd5b85513d84823e3d90fd5b634e487b7160e01b600052604160045260246000fd5b600080fdfe6080806040526004361015601257600080fd5b600090813560e01c9081630a5b38ab1460a4575080633da8676f146072576352b06d6414603e57600080fd5b34606f5780600319360112606f57602073ffffffffffffffffffffffffffffffffffffffff60025416604051908152f35b80fd5b5034606f5780600319360112606f57602073ffffffffffffffffffffffffffffffffffffffff60015416604051908152f35b90503460d2578160031936011260d25773ffffffffffffffffffffffffffffffffffffffff60209254168152f35b5080fdfea26469706673582212209a234fbb4704481b1a23c29d4274fc8887cdfa16ce2a58f111aba31f94c1bef364736f6c634300081400336080346200009e57601f62002d0f38819003918201601f19168301916001600160401b03831184841017620000a3578084926020946040528339810103126200009e57516001600160a01b038116908190036200009e5780156200008c5760018060a01b03193381600154161760015560005416176000556001601155604051612c559081620000ba8239f35b60405163e6c4247b60e01b8152600490fd5b600080fd5b634e487b7160e01b600052604160045260246000fdfe60806040526004361015610018575b361561001657005b005b60003560e01c8063067943bc146101c857806312065fe0146101c357806318c864e3146101be5780631f185d16146101b9578063339459a6146101b45780633676bd1f146101af5780633b9b7955146101aa578063479fa2c3146101a55780634ef260a9146101a05780638d6edc141461019b5780638da5cb5b14610196578063a1f7f53914610191578063ab7e46ae1461018c578063ac23334514610187578063acacd12014610182578063af4845261461017d578063b8f1759a14610178578063b90306ad14610173578063c1e6cec21461016e578063c54e44b014610169578063cab3cc8d14610164578063e01ad5fd1461015f578063e0a9bc2b1461015a578063e846034a14610155578063e981bcad14610150578063f245fe7a1461014b5763fdc10bc90361000e57611be9565b611420565b61136b565b61134d565b611332565b611267565b611249565b6111c3565b611185565b611077565b61101d565b610fec565b610f90565b610e8f565b610e35565b610d89565b610d62565b610d44565b610c87565b610ba9565b610b82565b610acd565b61054c565b610465565b610406565b610394565b6101ed565b6001600160a01b038116036101de57565b600080fd5b801515036101de57565b346101de5760803660031901126101de5760043561020a816101cd565b60243590610217826101cd565b60443590606435610227816101e3565b6001600160a01b038083161561036a578416801561036a5783156103265760005260126020526040600020546102e25761025d57005b60029061028961026b611c4d565b509182906001600160a01b03166001600160a01b0319825416179055565b6102ad600182019485906001600160a01b03166001600160a01b0319825416179055565b01556102df6102c660135492546001600160a01b031690565b6001600160a01b03166000526012602052604060002090565b55005b606460405162461bcd60e51b815260206004820152601260248201527f70726f706f7365722e746f2e65786973747300000000000000000000000000006044820152fd5b606460405162461bcd60e51b815260206004820152601060248201527f70726f706f7365722e696e76616c6964000000000000000000000000000000006044820152fd5b60046040517fe6c4247b000000000000000000000000000000000000000000000000000000008152fd5b346101de5760003660031901126101de57602047604051908152f35b634e487b7160e01b600052603260045260246000fd5b601354811015610401576003906013600052027f66de8ffda797e3de9c05e8fc57b3bf0ec28a930d40b0d285d93c06501cf6a0900190600090565b6103b0565b346101de5760203660031901126101de576004356013548110156101de5761042d906103c6565b5080546001820154600290920154604080516001600160a01b03938416815292909316602083015291810191909152606090f35b0390f35b346101de576020806003193601126101de576104e4600435610486816101cd565b6001600160a01b038060025416906040519216848301528382526104a982610ef9565b604051906104b682610ef9565b601182527f69735369676e6572286164647265737329000000000000000000000000000000858301526129e5565b919080610542575b156105185781816105069261046194518301019101612866565b60405190151581529081906020820190565b60046040517f3204506f000000000000000000000000000000000000000000000000000000008152fd5b50808251146104ec565b346101de5760003660031901126101de5761057e6105726000546001600160a01b031690565b6001600160a01b031690565b60405190634bf9c0ad60e11b8252602082600481845afa9182156108fd57600092610aac575b506040519163cfbffe5360e01b8352602083600481855afa9283156108fd57600093610a8b575b506040519063ab6e844f60e01b8252602082600481865afa9182156108fd57600092610a6a575b5060405191630536340960e21b8352602083600481875afa9283156108fd57600093610a49575b506040519263d1f956b160e01b8452602084600481885afa9384156108fd57600094610a28575b5060405193631cc3bfab60e31b8552602085600481895afa9485156108fd57600095610a07575b5060405163e09d394d60e01b81526020816004818a5afa9081156108fd576000916109e8575b506040516314ac1b5960e21b81526020816004818b5afa9081156108fd576000916109c9575b5060405163013cf08b60e01b815260006004820152916020836024818c5afa9283156108fd576000936109a8575b5060405197635e09dbe760e01b89526020896004818d5afa9485156108fd57600499600096610987575b5060208b6040519b8c8092635506ee0b60e11b82525afa9687156108fd5760049a600098610966575b5060208c6040519c8d8092636402742760e01b82525afa9889156108fd5760049b60009a610945575b5060208d6040519d8e80926330125cf560e01b82525afa9a8b156108fd578d60049d60009d610923575b506020906040519e8f80926324768d9160e01b82525afa9c8d156108fd5760009d610902575b50604051809e81906313b92d3560e31b82525a92600491602094fa9d8e156108fd5760009e6108cc575b506107e0610f6f565b6001600160a01b0390911681529d8e906001600160a01b031660208201526040019061081491906001600160a01b03169052565b6001600160a01b031660608d01526001600160a01b031660808c01526001600160a01b031660a08b01526001600160a01b031660c08a01526001600160a01b031660e08901526001600160a01b03166101008801526001600160a01b03166101208701526001600160a01b03166101408601526001600160a01b03166101608501526001600160a01b03166101808401526001600160a01b03166101a08301526001600160a01b03166101c082015261001690612565565b6108ef919e5060203d6020116108f6575b6108e78183610f4d565b810190611da1565b9c386107d7565b503d6108dd565b611db9565b61091c919d5060203d6020116108f6576108e78183610f4d565b9b386107ad565b6020919d5061093e90823d84116108f6576108e78183610f4d565b9c90610787565b61095f919a5060203d6020116108f6576108e78183610f4d565b983861075d565b61098091985060203d6020116108f6576108e78183610f4d565b9638610734565b6109a191965060203d6020116108f6576108e78183610f4d565b943861070b565b6109c291935060203d6020116108f6576108e78183610f4d565b91386106e1565b6109e2915060203d6020116108f6576108e78183610f4d565b386106b3565b610a01915060203d6020116108f6576108e78183610f4d565b3861068d565b610a2191955060203d6020116108f6576108e78183610f4d565b9338610667565b610a4291945060203d6020116108f6576108e78183610f4d565b9238610640565b610a6391935060203d6020116108f6576108e78183610f4d565b9138610619565b610a8491925060203d6020116108f6576108e78183610f4d565b90386105f2565b610aa591935060203d6020116108f6576108e78183610f4d565b91386105cb565b610ac691925060203d6020116108f6576108e78183610f4d565b90386105a4565b346101de5760203660031901126101de57610ae661233f565b610aee61287b565b15610b5857610afc33612900565b8015610b44575b15610b1a57610b13600435612019565b6001601155005b60046040517fea8e4eb5000000000000000000000000000000000000000000000000000000008152fd5b50336001600160a01b036005541614610b03565b60046040517f9dc4246e000000000000000000000000000000000000000000000000000000008152fd5b346101de5760003660031901126101de5760206001600160a01b0360005416604051908152f35b346101de5760203660031901126101de5760043580151580610c7b575b15610c37576000198101908111610c3257610be0906103c6565b5080546001600160a01b03166104616002610c0560018501546001600160a01b031690565b930154604051938493846040919493929460608201956001600160a01b0380921683521660208201520152565b611ca1565b606460405162461bcd60e51b815260206004820152601760248201527f70726f706f7365722e696e76616c69642e666f726d69640000000000000000006044820152fd5b50601354811115610bc6565b346101de5760203660031901126101de57600435610ca4816101cd565b6001600160a01b03809116906000918083526012602052604083205480151580610d38575b610cd1578380f35b6000198101908111610c3257610ce6906103c6565b5050808352601260205282604081205560145468010000000000000000811015610d3357806001610d1a9201601455610dfe565b909283549160031b92831b921b19161790553880808380f35b610ec7565b50601354811115610cc9565b346101de5760003660031901126101de576020601554604051908152f35b346101de5760003660031901126101de5760206001600160a01b0360015416604051908152f35b346101de5760003660031901126101de576020610df66001600160a01b0360065416604051610db781610ef9565b601381527f67657464656c656761746f72436f756e742829000000000000000000000000008482015260405191610ded83610f15565b60008352612ae4565b604051908152f35b6014548110156104015760146000527fce6d7b5282bd9a3661ae061feed1dbda4e52ab073b1f9285be6e155d9c38d4ec0190600090565b346101de5760203660031901126101de576004356014548110156101de576001600160a01b0360209160146000527fce6d7b5282bd9a3661ae061feed1dbda4e52ab073b1f9285be6e155d9c38d4ec015416604051908152f35b346101de5760203660031901126101de576020610eb6600435610eb1816101cd565b611cb7565b6001600160a01b0360405191168152f35b634e487b7160e01b600052604160045260246000fd5b60e0810190811067ffffffffffffffff821117610d3357604052565b6040810190811067ffffffffffffffff821117610d3357604052565b6020810190811067ffffffffffffffff821117610d3357604052565b6080810190811067ffffffffffffffff821117610d3357604052565b90601f8019910116810190811067ffffffffffffffff821117610d3357604052565b604051906101e0820182811067ffffffffffffffff821117610d3357604052565b346101de576101203660031901126101de5736606312156101de57604051610fb781610edd565b610124813682116101de576044905b828210610fdc57610016846024356004356123e1565b8135815260209182019101610fc6565b346101de5760203660031901126101de57602061101360043561100e816101cd565b612900565b6040519015158152f35b346101de5760203660031901126101de57600435601454811015610401576001600160a01b0360209160146000527fce6d7b5282bd9a3661ae061feed1dbda4e52ab073b1f9285be6e155d9c38d4ec015416604051908152f35b346101de5760203660031901126101de5760043561109361287b565b15610b58576001600160a01b03600554163303610b1a57600090600460206110c561057285546001600160a01b031690565b604051928380927f46f991ac0000000000000000000000000000000000000000000000000000000082525afa80156108fd5783808481949382948391611167575b505af161111161298a565b5015610518577fcdcc745fe377b103b45fa0cec23ae3ef93d6fc6a84a01f0d18c40b354dd1d5d8611161611150610572600b546001600160a01b031690565b604051938452929081906020820190565b0390a280f35b61117f915060203d81116108f6576108e78183610f4d565b38611106565b346101de5760203660031901126101de576001600160a01b036004356111aa816101cd565b1660005260126020526020604060002054604051908152f35b346101de5760203660031901126101de576004356111e0816101cd565b803b60006111ed82611dc5565b926111fb6040519485610f4d565b82845260208401903c602d81511061121f57602a602091015160601c604051908152f35b60046040517fbaf3f0f7000000000000000000000000000000000000000000000000000000008152fd5b346101de5760003660031901126101de576020601354604051908152f35b346101de576020806003193601126101de57610461906004359061128a826101cd565b6112ee6001600160a01b03928360065416936040519116838201528281526112b181610ef9565b6040516112bd81610ef9565b601881527f697364656c656761746f724e6f64652861646472657373290000000000000000848201526000946129e5565b919080611328575b61130f575b505060405190151581529081906020820190565b61132192508082518301019101612866565b38806112fb565b50808251146112f6565b346101de5760003660031901126101de57602061101361287b565b346101de5760003660031901126101de576020601454604051908152f35b346101de5760403660031901126101de5761138461233f565b61138c61287b565b15610b585761139a33612900565b801561140c575b15610b1a576114016001600160a01b0360045416604051907f33b59a5b00000000000000000000000000000000000000000000000000000000602083015260043560248301526024356044830152604482526113fc82610f31565b612b6c565b506100166001601155565b50336001600160a01b0360055416146113a1565b346101de57600080600319360112611be65761143a61233f565b61144e61057282546001600160a01b031690565b604090815191828092634bf9c0ad60e11b8252602093849160049687915afa9081156108fd578591611bc9575b506114b482517f339459a6000000000000000000000000000000000000000000000000000000009283868301528682526113fc82610ef9565b5083836114cb61057288546001600160a01b031690565b8451928380926369e8d84b60e11b82525afa80156108fd57611503918791611bac575b5083519083868301528682526113fc82610ef9565b50838361151a61057288546001600160a01b031690565b84519283809263ab6e844f60e01b82525afa80156108fd57611551918791611bac575083519083868301528682526113fc82610ef9565b50838361156861057288546001600160a01b031690565b84519283809263cfbffe5360e01b82525afa80156108fd5761159f918791611bac575083519083868301528682526113fc82610ef9565b5083836115b661057288546001600160a01b031690565b845192838092630536340960e21b82525afa80156108fd576115ed918791611bac575083519083868301528682526113fc82610ef9565b50838361160461057288546001600160a01b031690565b84519283809263d1f956b160e01b82525afa80156108fd5761163b918791611bac575083519083868301528682526113fc82610ef9565b50838361165261057288546001600160a01b031690565b845192838092631cc3bfab60e31b82525afa80156108fd57611689918791611bac575083519083868301528682526113fc82610ef9565b5083836116a061057288546001600160a01b031690565b84519283809263e09d394d60e01b82525afa80156108fd576116d7918791611bac575083519083868301528682526113fc82610ef9565b5083836116ee61057288546001600160a01b031690565b8451928380926314ac1b5960e21b82525afa80156108fd57611725918791611bac575083519083868301528682526113fc82610ef9565b5061173a61057286546001600160a01b031690565b838351809263013cf08b60e01b8252818061175c8a8201906000602083019252565b03915afa80156108fd57611785918791611bac575083519083868301528682526113fc82610ef9565b5061179a61057286546001600160a01b031690565b90825184817fb771c896000000000000000000000000000000000000000000000000000000009485825281806117d78b8201906000602083019252565b03915afa80156108fd57611801918891611b8f575b5084519083878301528782526113fc82610ef9565b5061181661057287546001600160a01b031690565b848451809285825281806118318b8201906001602083019252565b03915afa80156108fd5761185a918891611b8f575084519083878301528782526113fc82610ef9565b5061186f61057287546001600160a01b031690565b8484518092858252818061188a8b8201906002602083019252565b03915afa80156108fd576118b3918891611b8f575084519083878301528782526113fc82610ef9565b506118c861057287546001600160a01b031690565b848451809285825281806118e38b8201906003602083019252565b03915afa80156108fd5761190c918891611b8f575084519083878301528782526113fc82610ef9565b508361192261057288546001600160a01b031690565b9284519384918252818061193d8a8201906004602083019252565b03915afa9182156108fd57859261196a918891611b72575b5084519083878301528482526113fc82610ef9565b508361198061057288546001600160a01b031690565b845193848092635e09dbe760e01b82525afa9182156108fd5785926119ba918891611b72575084519083878301528482526113fc82610ef9565b50836119d061057288546001600160a01b031690565b845193848092635506ee0b60e11b82525afa9182156108fd578592611a0a918891611b72575084519083878301528482526113fc82610ef9565b5083611a2061057288546001600160a01b031690565b845193848092636402742760e01b82525afa9182156108fd578592611a5a918891611b72575084519083878301528482526113fc82610ef9565b5083611a7061057288546001600160a01b031690565b8451938480926330125cf560e01b82525afa9182156108fd578592611aaa918891611b72575084519083878301528482526113fc82610ef9565b5083611ac061057288546001600160a01b031690565b8451938480926324768d9160e01b82525afa9182156108fd578592611afa918891611b72575084519083878301528482526113fc82610ef9565b5083611b1061057288546001600160a01b031690565b8451968780926313b92d3560e31b82525afa9283156108fd57611b45958794611b53575b50519384015282526113fc82610ef9565b50611b506001601155565b80f35b611b6b919450853d87116108f6576108e78183610f4d565b9238611b34565b611b899150863d88116108f6576108e78183610f4d565b38611955565b611ba69150863d88116108f6576108e78183610f4d565b386117ec565b611bc39150853d87116108f6576108e78183610f4d565b386114ee565b611be09150833d85116108f6576108e78183610f4d565b3861147b565b80fd5b346101de5760003660031901126101de576020610df66001600160a01b0360035416604051611c1781610ef9565b600681527f69416765282900000000000000000000000000000000000000000000000000008482015260405191610ded83610f15565b60135468010000000000000000811015610d33576001810180601355811015610401576003906013600052027f66de8ffda797e3de9c05e8fc57b3bf0ec28a930d40b0d285d93c06501cf6a0900190600090565b634e487b7160e01b600052601160045260246000fd5b6001600160a01b03809116600052601260205260406000205480151580611cff575b611ce4575050600090565b6000198101908111610c3257611cf9906103c6565b50541690565b50601354811115611cd9565b15611d1257565b606460405162461bcd60e51b815260206004820152601c60248201527f7574696c6974792e62617463682e6c696d69742e6578636565646564000000006044820152fd5b15611d5d57565b606460405162461bcd60e51b815260206004820152601760248201527f7574696c6974792e756e7365637572652e6661696c65640000000000000000006044820152fd5b908160209103126101de5751611db6816101cd565b90565b6040513d6000823e3d90fd5b67ffffffffffffffff8111610d3357601f01601f191660200190565b604051611ded81610f15565b60008152906000368137565b60405190611e0682610ef9565b600f82527f6765744e6f646573436f756e74282900000000000000000000000000000000006020830152565b15611e3957565b606460405162461bcd60e51b815260206004820152601360248201527f7574696c6974792e696d706f72742e646f6e65000000000000000000000000006044820152fd5b91908201809211610c3257565b6000198114610c325760010190565b60405190611ea682610ef9565b601782527f6765744e6f64654279496e6465782875696e74323536290000000000000000006020830152565b15611ed957565b606460405162461bcd60e51b815260206004820152601660248201527f70726f78792e696e76616c69642e696e7374616e6365000000000000000000006044820152fd5b60405190611f2a82610ef9565b601382527f496e7374546f55736572286164647265737329000000000000000000000000006020830152565b15611f5d57565b606460405162461bcd60e51b815260206004820152601260248201527f70726f78792e696e76616c69642e6e6f646500000000000000000000000000006044820152fd5b60405190611fae82610ef9565b601082527f6765744e6f6465286164647265737329000000000000000000000000000000006020830152565b908160a09103126101de578051916020820151611ff6816101cd565b916040810151916080606083015161200d816101e3565b920151611db6816101e3565b6120266064821115611d0b565b61203761203230612900565b611d56565b61204c6105726000546001600160a01b031690565b60405180917f447aa30400000000000000000000000000000000000000000000000000000000825281600460209384935afa9182156108fd57600092612320575b506120a7612099611de1565b6120a1611df9565b84612ae4565b92831561231a576120ef6120dd6120c66004546001600160a01b031690565b6120ce611de1565b906120d7611df9565b90612ae4565b916120e9838711611e32565b82611e7d565b93808511612312575b505b8381106121075750505050565b6122b8906122b36122ae6040516122a57f50db85d10000000000000000000000000000000000000000000000000000000061216f8361214d888b83019190602083019252565b0393612161601f1995868101835282610f4d565b612169611e99565b8b612a93565b6001600160a01b036121848183161515611ed2565b8131948a8c600161222d61221f6122056122116121d96121bf6121cb8c6040519283918c83019190916001600160a01b036020820193169052565b038b8101835282610f4d565b6121d3611f1d565b88612a93565b996121e78a8c161515611f56565b6040519283918983019190916001600160a01b036020820193169052565b03888101835282610f4d565b612219611fa1565b856129ba565b848082518301019101611fda565b5050509590951694612240811515611f56565b148015612309575b6122bd575b5061229984612260816113fc969761237a565b6004546001600160a01b031695604051978894850152602484019060209093929360408301946001600160a01b03809216845216910152565b03908101845283610f4d565b50601554611e7d565b601555565b611e8a565b6120fa565b6040516001600160a01b039094168285019081526113fc9461229992612300926122f290839060200103878101845283610f4d565b6122fa611f1d565b90612a93565b9350508c61224d565b50831515612248565b9350386120f8565b50505050565b816123389293503d84116108f6576108e78183610f4d565b903861208d565b600260115414612350576002601155565b60046040517f3ee5aeb5000000000000000000000000000000000000000000000000000000008152fd5b6013549068010000000000000000821015610d3357600183916123a861026b85846123c497016013556103c6565b01906001600160a01b03166001600160a01b0319825416179055565b6001600160a01b0360135491166000526012602052604060002055565b91906123eb61233f565b6123f361287b565b15610b585761240133612900565b801561251a575b15610b1a57600460206124266105726000546001600160a01b031690565b604051928380926369e8d84b60e11b82525afa80156108fd576124e5946113fc926000926124f2575b506040517f15ec7fad000000000000000000000000000000000000000000000000000000006020820152602481019190915261249f9080604481015b03926113fc601f1994858101845283610f4d565b506004546001600160a01b0316926122996040519586927f7818cdd70000000000000000000000000000000000000000000000000000000060208501526024840161252e565b506124f06001601155565b565b61249f91925061251261248b9160203d81116108f6576108e78183610f4d565b92915061244f565b50336001600160a01b036005541614612408565b908152610100810192919060209060009082015b600782106125505750505050565b82806001928651815201940191019092612542565b61284a6101c06124f09261259f61258382516001600160a01b031690565b6001600160a01b03166001600160a01b03196002541617600255565b6125d26125b660208301516001600160a01b031690565b6001600160a01b03166001600160a01b03196003541617600355565b6126056125e960408301516001600160a01b031690565b6001600160a01b03166001600160a01b03196004541617600455565b61263861261c60608301516001600160a01b031690565b6001600160a01b03166001600160a01b03196005541617600555565b61266b61264f60808301516001600160a01b031690565b6001600160a01b03166001600160a01b03196006541617600655565b61269e61268260a08301516001600160a01b031690565b6001600160a01b03166001600160a01b03196007541617600755565b6126d16126b560c08301516001600160a01b031690565b6001600160a01b03166001600160a01b03196008541617600855565b6127046126e860e08301516001600160a01b031690565b6001600160a01b03166001600160a01b03196009541617600955565b61273861271c6101008301516001600160a01b031690565b6001600160a01b03166001600160a01b0319600a541617600a55565b61276c6127506101208301516001600160a01b031690565b6001600160a01b03166001600160a01b0319600b541617600b55565b6127a06127846101408301516001600160a01b031690565b6001600160a01b03166001600160a01b0319600c541617600c55565b6127d46127b86101608301516001600160a01b031690565b6001600160a01b03166001600160a01b0319600d541617600d55565b6128086127ec6101808301516001600160a01b031690565b6001600160a01b03166001600160a01b0319600e541617600e55565b61283c6128206101a08301516001600160a01b031690565b6001600160a01b03166001600160a01b0319600f541617600f55565b01516001600160a01b031690565b6001600160a01b03166001600160a01b03196010541617601055565b908160209103126101de5751611db6816101e3565b6128d66001600160a01b036002541660405161289681610ef9565b600881527f69735361666528290000000000000000000000000000000000000000000000006020820152604051916128cd83610f15565b600083526129e5565b90806128f5575b156105185780602080611db693518301019101612866565b5060208151146128dd565b6129636001600160a01b03806002541660405191602094168483015283825261292882610ef9565b6040519061293582610ef9565b601582527f6973536563757265426173652861646472657373290000000000000000000000858301526129e5565b9080612980575b156105185781611db69282518301019101612866565b508181511461296a565b3d156129b5573d9061299b82611dc5565b916129a96040519384610f4d565b82523d6000602084013e565b606090565b906129c592916129e5565b90600090156129d2575090565b60405191506129e082610f15565b815290565b9190823b15612a7a577fffffffff00000000000000000000000000000000000000000000000000000000815160208093012016916040519180830193845281519160005b838110612a66575050509181612a5660248260009795968897018783820152036004810184520182610f4d565b51915afa612a6261298a565b9091565b818101830151858201602401528201612a29565b505050600090604051612a8c81610f15565b6000815290565b9291612aa1916000946129e5565b9080612ad9575b612aaf5750565b9091506020818051810103126101de5760206001600160a01b03910151612ad5816101cd565b1690565b506020815114612aa8565b9291612af2916000946129e5565b9080612b17575b612b005750565b9091506020818051810103126101de576020015190565b506020815114612af9565b90602082519201517fffffffff00000000000000000000000000000000000000000000000000000000908181169360048110612b5d57505050565b60040360031b82901b16169150565b6001600160a01b0381161561036a57600080918351908260208601915af190612b9361298a565b9115612b9d575090565b805160009190600411612c1957612bb49150612b22565b815115612bc45750805190602001fd5b6040517f21c09d340000000000000000000000000000000000000000000000000000000081527fffffffff00000000000000000000000000000000000000000000000000000000919091166004820152602490fd5b50612bb456fea264697066735822122097238144d7959a03ba2856464420a8d32c3b490be1a24f9cbe9b1902de2a3c6364736f6c6343000814003360803461009957601f620025e238819003918201601f19168301916001600160401b0383118484101761009e5780849260209460405283398101031261009957516001600160a01b038116908190036100995780156100875760018060a01b0319338160015416176001556000541617600055600160115560405161252d9081620000b58239f35b60405163e6c4247b60e01b8152600490fd5b600080fd5b634e487b7160e01b600052604160045260246000fdfe60806040526004361015610018575b361561001657005b005b60003560e01c80631133b8861461018857806312065fe0146101835780631f185d161461017e578063339459a6146101795780633b9b7955146101745780633c00e40d1461016f5780636ec35cd51461016a5780638da5cb5b146101655780638dab13dc146101605780639498d88b1461015b5780639b03bea6146101565780639fb2726b14610151578063a1f7f5391461014c578063ae9568d714610147578063af48452614610142578063b90306ad1461013d578063c54e44b014610138578063d7a83fc614610133578063e01ad5fd1461012e578063e0a9bc2b14610129578063e3d1d5bf14610124578063f5caf38c1461011f5763fdc10bc90361000e576115e2565b6115a4565b611349565b61132e565b611263565b611223565b61119d565b61108f565b61105e565b611014565b610f9f565b610dc0565b610d78565b610cfa565b610c57565b610c30565b610aaf565b610a40565b610a19565b610321565b610236565b61021a565b6101cb565b6001600160a01b0381160361019e57565b600080fd5b604090600319011261019e576004356101bb8161018d565b906024356101c88161018d565b90565b3461019e57602060ff61020e6001600160a01b036101e8366101a3565b9116600052601284526040600020906001600160a01b0316600052602052604060002090565b54166040519015158152f35b3461019e57600036600319011261019e57602047604051908152f35b3461019e5760208060031936011261019e576102b56004356102578161018d565b6001600160a01b0380600254169060405192168483015283825261027a82611693565b6040519061028782611693565b601182527f69735369676e65722861646472657373290000000000000000000000000000008583015261240d565b919080610317575b156102ed5781816102d7926102e99451830101910161228e565b60405190151581529081906020820190565b0390f35b60046040517f3204506f000000000000000000000000000000000000000000000000000000008152fd5b50808251146102bd565b3461019e57600036600319011261019e576103536103476000546001600160a01b031690565b6001600160a01b031690565b604051907f97f3815a000000000000000000000000000000000000000000000000000000008252602082600481845afa918215610849576000926109f8575b50604051917fcfbffe53000000000000000000000000000000000000000000000000000000008352602083600481855afa928315610849576000936109d7575b50604051907fab6e844f000000000000000000000000000000000000000000000000000000008252602082600481865afa918215610849576000926109b6575b50604051917f14d8d024000000000000000000000000000000000000000000000000000000008352602083600481875afa92831561084957600093610995575b50604051927fd1f956b1000000000000000000000000000000000000000000000000000000008452602084600481885afa93841561084957600094610974575b50604051937fe61dfd58000000000000000000000000000000000000000000000000000000008552602085600481895afa94851561084957600095610953575b506040517fe09d394d0000000000000000000000000000000000000000000000000000000081526020816004818a5afa90811561084957600091610934575b506040517f52b06d640000000000000000000000000000000000000000000000000000000081526020816004818b5afa90811561084957600091610915575b506040517f013cf08b00000000000000000000000000000000000000000000000000000000815260006004820152916020836024818c5afa928315610849576000936108f4575b50604051977f5e09dbe70000000000000000000000000000000000000000000000000000000089526020896004818d5afa948515610849576004996000966108d3575b5060208b6040519b8c80927faa0ddc160000000000000000000000000000000000000000000000000000000082525afa9687156108495760049a6000986108b2575b5060208c6040519c8d80927f640274270000000000000000000000000000000000000000000000000000000082525afa9889156108495760049b60009a610891575b5060208d6040519d8e80927f30125cf50000000000000000000000000000000000000000000000000000000082525afa9a8b15610849578d60049d60009d61086f575b506020906040519e8f80927f24768d910000000000000000000000000000000000000000000000000000000082525afa9c8d156108495760009d61084e575b50604051809e81907f9dc969a80000000000000000000000000000000000000000000000000000000082525a92600491602094fa9d8e156108495760009e610818575b5061072c6116f2565b6001600160a01b0390911681529d8e906001600160a01b031660208201526040019061076091906001600160a01b03169052565b6001600160a01b031660608d01526001600160a01b031660808c01526001600160a01b031660a08b01526001600160a01b031660c08a01526001600160a01b031660e08901526001600160a01b03166101008801526001600160a01b03166101208701526001600160a01b03166101408601526001600160a01b03166101608501526001600160a01b03166101808401526001600160a01b03166101a08301526001600160a01b03166101c082015261001690611f8d565b61083b919e5060203d602011610842575b61083381836116d0565b810190611768565b9c38610723565b503d610829565b611c2a565b610868919d5060203d6020116108425761083381836116d0565b9b386106e0565b6020919d5061088a90823d84116108425761083381836116d0565b9c906106a1565b6108ab919a5060203d6020116108425761083381836116d0565b983861065e565b6108cc91985060203d6020116108425761083381836116d0565b963861061c565b6108ed91965060203d6020116108425761083381836116d0565b94386105da565b61090e91935060203d6020116108425761083381836116d0565b9138610597565b61092e915060203d6020116108425761083381836116d0565b38610550565b61094d915060203d6020116108425761083381836116d0565b38610511565b61096d91955060203d6020116108425761083381836116d0565b93386104d2565b61098e91945060203d6020116108425761083381836116d0565b9238610492565b6109af91935060203d6020116108425761083381836116d0565b9138610452565b6109d091925060203d6020116108425761083381836116d0565b9038610412565b6109f191935060203d6020116108425761083381836116d0565b91386103d2565b610a1291925060203d6020116108425761083381836116d0565b9038610392565b3461019e57600036600319011261019e5760206001600160a01b0360005416604051908152f35b3461019e57602036600319011261019e576001600160a01b03600435610a658161018d565b1660005260186020526020604060002054604051908152f35b9181601f8401121561019e5782359167ffffffffffffffff831161019e576020808501948460051b01011161019e57565b3461019e57606036600319011261019e5767ffffffffffffffff6004803582811161019e57610ae19036908301610a7e565b919060243584811161019e57610afa9036908401610a7e565b909460443590811161019e57610b139036908501610a7e565b959093610b1e6122a3565b15610c2157610b2c33612328565b8015610c0d575b15610bfe57868303610bd6575060005b828110610b4c57005b80610bd0610b5d6001938a89611bfa565b35610b6781610db6565b6001600160a01b03610b7a848b8a611bfa565b35610b848161018d565b166000526012602052610bbf6040600020610ba8610ba3868a8a611bfa565b611c20565b6001600160a01b0316600052602052604060002090565b9060ff801983541691151516179055565b01610b43565b6040517fff633a38000000000000000000000000000000000000000000000000000000008152fd5b60405163ea8e4eb560e01b8152fd5b50336001600160a01b036005541614610b33565b604051634ee2123760e11b8152fd5b3461019e57600036600319011261019e5760206001600160a01b0360015416604051908152f35b3461019e57602036600319011261019e57600435610c748161018d565b6001600160a01b038091166000526015602052806040600020541690601660205260406000205416908060005260126020526102e960ff610ccc846040600020906001600160a01b0316600052602052604060002090565b54166040519384938491939260409160608401956001600160a01b0380921685521660208401521515910152565b3461019e57602036600319011261019e57600435610d178161018d565b610d1f6122a3565b15610d6757610d2d33612328565b8015610d53575b15610d425761001690611d12565b600460405163ea8e4eb560e01b8152fd5b50336001600160a01b036005541614610d34565b6004604051634ee2123760e11b8152fd5b3461019e57602036600319011261019e576001600160a01b03600435610d9d8161018d565b1660005260176020526020604060002054604051908152f35b8015150361019e57565b3461019e57608036600319011261019e57600467ffffffffffffffff813581811161019e57610df29036908401610a7e565b9160243590811161019e57610e0a9036908501610a7e565b6044359391610e1885610db6565b606435610e236122a3565b15610f8f57610e3133612328565b8015610f7b575b15610f6b57828403610f425760005b848110610e5057005b8615610f105781610e81610e68610ba384898b611bfa565b6001600160a01b03166000526018602052604060002090565b5403610eb057876040517fe3913549000000000000000000000000000000000000000000000000000000008152fd5b8082610ec5610e68610ba36001958a8c611bfa565b55610ed1818686611bfa565b35610f07610eff610ee6610ba3858b8d611bfa565b6001600160a01b03166000526017602052604060002090565b9182546117eb565b90555b01610e47565b80610f1e6001928686611bfa565b35610f3b610f33610ee6610ba3858b8d611bfa565b918254611670565b9055610f0a565b866040517fff633a38000000000000000000000000000000000000000000000000000000008152fd5b8660405163ea8e4eb560e01b8152fd5b50336001600160a01b036005541614610e38565b86604051634ee2123760e11b8152fd5b3461019e57600036600319011261019e57602061100c6001600160a01b0360065416604051610fcd81611693565b601381527f67657464656c656761746f72436f756e742829000000000000000000000000008482015260405191611003836116b4565b600083526124bb565b604051908152f35b3461019e5760206110556001600160a01b0361102f366101a3565b9116600052601383526040600020906001600160a01b0316600052602052604060002090565b54604051908152f35b3461019e57602036600319011261019e5760206110856004356110808161018d565b612328565b6040519015158152f35b3461019e57602036600319011261019e576004356110ab6122a3565b15610d67576001600160a01b03600554163303610d4257600090600460206110dd61034785546001600160a01b031690565b604051928380927f46f991ac0000000000000000000000000000000000000000000000000000000082525afa8015610849578380848194938294839161117f575b505af16111296123b2565b50156102ed577fcdcc745fe377b103b45fa0cec23ae3ef93d6fc6a84a01f0d18c40b354dd1d5d8611179611168610347600b546001600160a01b031690565b604051938452929081906020820190565b0390a280f35b611197915060203d81116108425761083381836116d0565b3861111e565b3461019e57602036600319011261019e576004356111ba8161018d565b803b60006111c782611713565b926111d560405194856116d0565b82845260208401903c602d8151106111f957602a602091015160601c604051908152f35b60046040517fbaf3f0f7000000000000000000000000000000000000000000000000000000008152fd5b3461019e57602036600319011261019e5760206004356112428161018d565b6001600160a01b038091166000526014825260406000205416604051908152f35b3461019e5760208060031936011261019e576102e990600435906112868261018d565b6112ea6001600160a01b03928360065416936040519116838201528281526112ad81611693565b6040516112b981611693565b601881527f697364656c656761746f724e6f646528616464726573732900000000000000008482015260009461240d565b919080611324575b61130b575b505060405190151581529081906020820190565b61131d9250808251830101910161228e565b38806112f7565b50808251146112f2565b3461019e57600036600319011261019e5760206110856122a3565b3461019e57611357366101a3565b61135f6122a3565b15610d675761136d33612328565b8015611590575b15610d42576001600160a01b03918281168015611566578383168015611566570361139b57005b60009261153c926113cf6113c2846001600160a01b03166000526016602052604060002090565b546001600160a01b031690565b916113ed846001600160a01b03166000526017602052604060002090565b5461140b836001600160a01b03166000526017602052604060002090565b5561146761142f6113c2866001600160a01b03166000526015602052604060002090565b61144c846001600160a01b03166000526015602052604060002090565b906001600160a01b03166001600160a01b0319825416179055565b6114888361144c846001600160a01b03166000526016602052604060002090565b6114a5846001600160a01b03166000526018602052604060002090565b546114c3836001600160a01b03166000526018602052604060002090565b55821661153f575b5050826114eb826001600160a01b03166000526017602052604060002090565b5561151c61150c826001600160a01b03166000526015602052604060002090565b6001600160a01b03198154169055565b610e6861150c826001600160a01b03166000526016602052604060002090565b55005b61144c61155f926001600160a01b03166000526014602052604060002090565b38806114cb565b60046040517fd92e233d000000000000000000000000000000000000000000000000000000008152fd5b50336001600160a01b036005541614611374565b3461019e57606036600319011261019e576100166004356115c48161018d565b6024356115d08161018d565b604435916115dd83610db6565b6117f8565b3461019e57600036600319011261019e57602061100c6001600160a01b036003541660405161161081611693565b600681527f69416765282900000000000000000000000000000000000000000000000000008482015260405191611003836116b4565b634e487b7160e01b600052601160045260246000fd5b60001981019190821161166b57565b611646565b9190820391821161166b57565b634e487b7160e01b600052604160045260246000fd5b6040810190811067ffffffffffffffff8211176116af57604052565b61167d565b6020810190811067ffffffffffffffff8211176116af57604052565b90601f8019910116810190811067ffffffffffffffff8211176116af57604052565b604051906101e0820182811067ffffffffffffffff8211176116af57604052565b67ffffffffffffffff81116116af57601f01601f191660200190565b6040519061173c82611693565b601682527f67657455736572546f496e7374286164647265737329000000000000000000006020830152565b9081602091031261019e57516101c88161018d565b604051611789816116b4565b60008152906000368137565b604051906117a282611693565b601082527f6d61784d61707065644c696d69742829000000000000000000000000000000006020830152565b9081602091031261019e575190565b906001820180921161166b57565b9190820180921161166b57565b916118196113c2336001600160a01b03166000526014602052604060002090565b928115611aad576001600160a01b0380821615611566578084169485156115665761188461188061187933611861896001600160a01b03166000526012602052604060002090565b906001600160a01b0316600052602052604060002090565b5460ff1690565b1590565b611a83576118e56103476118d66118a36004546001600160a01b031690565b604080516001600160a01b038916602080830191909152815291906118c890836116d0565b6118d061172f565b906123e2565b60208082518301019101611768565b156115665716611a595761195161192a61191b61190a6003546001600160a01b031690565b61191261177d565b906118d0611795565b602080825183010191016117ce565b61194b33611861876001600160a01b03166000526013602052604060002090565b54101590565b611a2f576119fb8361199b7f73e162dc4d0165c5ab2c676b5ce1e58e8333a5e1b0e75ea3957f2ca0aa8abc2e9561144c856001600160a01b03166000526015602052604060002090565b6119bc3361144c856001600160a01b03166000526016602052604060002090565b6119dd8361144c336001600160a01b03166000526014602052604060002090565b61186133916001600160a01b03166000526013602052604060002090565b611a0581546117dd565b9055604080513381526001600160a01b0392909216602083015291151591810191909152606090a2565b60046040517fb111d8ef000000000000000000000000000000000000000000000000000000008152fd5b60046040517f548635ce000000000000000000000000000000000000000000000000000000008152fd5b60046040517f747845de000000000000000000000000000000000000000000000000000000008152fd5b5050506001600160a01b039081811615611bf657611b6d61150c611ae76113c2846001600160a01b03166000526015602052604060002090565b604080513381526001600160a01b038616602082015260009181019190915290948516939084907f73e162dc4d0165c5ab2c676b5ce1e58e8333a5e1b0e75ea3957f2ca0aa8abc2e90606090a2611b5461150c826001600160a01b03166000526015602052604060002090565b6001600160a01b03166000526016602052604060002090565b611b8d61150c336001600160a01b03166000526014602052604060002090565b151580611bcc575b611b9c5750565b611bbe9061186133916001600160a01b03166000526013602052604060002090565b611bc8815461165c565b9055565b50611bee33611861836001600160a01b03166000526013602052604060002090565b541515611b95565b5050565b9190811015611c0a5760051b0190565b634e487b7160e01b600052603260045260246000fd5b356101c88161018d565b6040513d6000823e3d90fd5b604051906060820182811067ffffffffffffffff8211176116af57604052602482527f65737329000000000000000000000000000000000000000000000000000000006040837f67657456616c696461746f7244656c656761746f724f6655736572286164647260208201520152565b9081606091031261019e578051611cbc8161018d565b9160406020830151611ccd8161018d565b9201516101c881610db6565b60405190611ce682611693565b601182527f696e636f6d654f662861646472657373290000000000000000000000000000006020830152565b6001600160a01b039081811615611bf657611d466103476113c2836001600160a01b03166000526015602052604060002090565b611bf657611d5f6103476000546001600160a01b031690565b604051907f6325dd0400000000000000000000000000000000000000000000000000000000908183526020908184600481845afa918215610849578694600093611f6e575b506040516001600160a01b038716828201908152611def91611de19181906020010395611dd9601f19978881018452836116d0565b6118d0611c36565b828082518301019101611ca6565b9890911697951693871580611f66575b611f5c57819060046040518095819382525afa96871561084957611efb61144c96611e7a8961186195611f399c611f14998b99600092611f3b575b50611e6c9192611e6060405195869283019190916001600160a01b036020820193169052565b039081018452836116d0565b611e74611cd9565b906124bb565b611e978a6001600160a01b03166000526017602052604060002090565b55611eb98361144c8b6001600160a01b03166000526015602052604060002090565b611eda8561144c8b6001600160a01b03166000526016602052604060002090565b610bbf85611861856001600160a01b03166000526012602052604060002090565b6001600160a01b03166000526013602052604060002090565b611f1e81546117dd565b90556001600160a01b03166000526014602052604060002090565b565b611e6c9250611f5690843d86116108425761083381836116d0565b91611e3a565b5050505050505050565b508415611dff565b81611f869294503d85116108425761083381836116d0565b9138611da4565b6122726101c0611f3992611fc7611fab82516001600160a01b031690565b6001600160a01b03166001600160a01b03196002541617600255565b611ffa611fde60208301516001600160a01b031690565b6001600160a01b03166001600160a01b03196003541617600355565b61202d61201160408301516001600160a01b031690565b6001600160a01b03166001600160a01b03196004541617600455565b61206061204460608301516001600160a01b031690565b6001600160a01b03166001600160a01b03196005541617600555565b61209361207760808301516001600160a01b031690565b6001600160a01b03166001600160a01b03196006541617600655565b6120c66120aa60a08301516001600160a01b031690565b6001600160a01b03166001600160a01b03196007541617600755565b6120f96120dd60c08301516001600160a01b031690565b6001600160a01b03166001600160a01b03196008541617600855565b61212c61211060e08301516001600160a01b031690565b6001600160a01b03166001600160a01b03196009541617600955565b6121606121446101008301516001600160a01b031690565b6001600160a01b03166001600160a01b0319600a541617600a55565b6121946121786101208301516001600160a01b031690565b6001600160a01b03166001600160a01b0319600b541617600b55565b6121c86121ac6101408301516001600160a01b031690565b6001600160a01b03166001600160a01b0319600c541617600c55565b6121fc6121e06101608301516001600160a01b031690565b6001600160a01b03166001600160a01b0319600d541617600d55565b6122306122146101808301516001600160a01b031690565b6001600160a01b03166001600160a01b0319600e541617600e55565b6122646122486101a08301516001600160a01b031690565b6001600160a01b03166001600160a01b0319600f541617600f55565b01516001600160a01b031690565b6001600160a01b03166001600160a01b03196010541617601055565b9081602091031261019e57516101c881610db6565b6122fe6001600160a01b03600254166040516122be81611693565b600881527f69735361666528290000000000000000000000000000000000000000000000006020820152604051916122f5836116b4565b6000835261240d565b908061231d575b156102ed57806020806101c89351830101910161228e565b506020815114612305565b61238b6001600160a01b03806002541660405191602094168483015283825261235082611693565b6040519061235d82611693565b601582527f69735365637572654261736528616464726573732900000000000000000000008583015261240d565b90806123a8575b156102ed57816101c8928251830101910161228e565b5081815114612392565b3d156123dd573d906123c382611713565b916123d160405193846116d0565b82523d6000602084013e565b606090565b906123ed929161240d565b90600090156123fa575090565b6040519150612408826116b4565b815290565b9190823b156124a2577fffffffff00000000000000000000000000000000000000000000000000000000815160208093012016916040519180830193845281519160005b83811061248e57505050918161247e602482600097959688970187838201520360048101845201826116d0565b51915afa61248a6123b2565b9091565b818101830151858201602401528201612451565b5050506000906040516124b4816116b4565b6000815290565b92916124c99160009461240d565b90806124ec575b6124d75750565b6101c8919250602080825183010191016117ce565b5060208151146124d056fea26469706673582212209d9a67a1dadccccf7d0d5b69f641189bfdeb5b0a9bba95f7799a0f45b7340ae764736f6c6343000814003360a08060405234620014fc57620000396200455b91823803809362000025828462001539565b82396001600160a01b03928101906200155d565b168015620014ea573360018060a01b031960015416176001558060018060a01b031960005416176000554260115560a760255560b4602655601e602b556001602c556001602d556002602e5561c350602f556102586030556003603155601960325568878678326eac900000603355670de0b6b3a764000060345569021e19e0c9bab24000006035556001603655610384603755600560465560ff1960475416604755614d584201804211620014d45762015180900460805260405160e081016001600160401b03811182821017620014be576102589160c0916040526002815260646020820152600160408201526023606082015260646080820152600160a0820152015260026016556064601755600160185560236019556064601a556001601b55610258601c55605a6060620001716200157e565b60198152600a602082015282604082015201526019601d55600a601e55605a601f55605a602055620001a26200157e565b6005815260016020820152605a606061016892836040820152015260056021556001602255602355605a602455600160a0620001dd620015b4565b6003815260036020820152826040820152826060820152826080820152015260036027556003602855630101010163ffffffff196029541617602955620002236200157e565b610258606061014092838152600b6020820152600a60408201520152603855600b603955600a603a55610258603b556102586060620002616200157e565b60d28152600b6020820152600a6040820152015260d2603c55600b603d55600a603e55610258603f5562000294620015b4565b90604051635e09dbe760e01b8152602081600481855afa91821562001490576004926020926000916200149c575b506001600160a01b03168452605f828501526001604080860191909152516311be646b60e21b815292839182905afa801562001490576040916000916200145a575b506001600160a01b0390811660608401819052600560808501819052600160a086018190528551855494166001600160a01b031994851617855560208601516041559390940151604255604380549092161790556044919091556045556040516200045590620003748162001501565b60008082526020808301828152604084018381526060850184815261270f60808701908152948052601390935293517f8fa6efc3be94b5b348b21fea823fe8d100408cee9b7f90524494500445d8ff6c55517f8fa6efc3be94b5b348b21fea823fe8d100408cee9b7f90524494500445d8ff6d5591517f8fa6efc3be94b5b348b21fea823fe8d100408cee9b7f90524494500445d8ff6e5590517f8fa6efc3be94b5b348b21fea823fe8d100408cee9b7f90524494500445d8ff6f55517f8fa6efc3be94b5b348b21fea823fe8d100408cee9b7f90524494500445d8ff7055565b6200054e604051620004678162001501565b60078152601960208083019182526000604084018181526060850182815261270f608087019081526001909352601390935293517f4155c2f711f2cdd34f8262ab8fb9b7020a700fe7b6948222152f7670d1fdf34d5591517f4155c2f711f2cdd34f8262ab8fb9b7020a700fe7b6948222152f7670d1fdf34e5591517f4155c2f711f2cdd34f8262ab8fb9b7020a700fe7b6948222152f7670d1fdf34f5590517f4155c2f711f2cdd34f8262ab8fb9b7020a700fe7b6948222152f7670d1fdf35055517f4155c2f711f2cdd34f8262ab8fb9b7020a700fe7b6948222152f7670d1fdf35155565b62000647604051620005608162001501565b60078152606460208083019182526000604084018181526060850182815261270f608087019081526002909352601390935293517f0b9d2c0c271bb30544eb78c59bdaebdae2728e5f65814c07768a0abe90ed19235591517f0b9d2c0c271bb30544eb78c59bdaebdae2728e5f65814c07768a0abe90ed19245591517f0b9d2c0c271bb30544eb78c59bdaebdae2728e5f65814c07768a0abe90ed19255590517f0b9d2c0c271bb30544eb78c59bdaebdae2728e5f65814c07768a0abe90ed192655517f0b9d2c0c271bb30544eb78c59bdaebdae2728e5f65814c07768a0abe90ed192755565b62000741604051620006598162001501565b600781526101f46020808301918252600360408401818152600060608601818152601e6080880190815293909152601390935293517f0d2a6872ef858a7f8ead18dc4f3f2e8d35c853d47e2816cbb9cdd49202554e0c5591517f0d2a6872ef858a7f8ead18dc4f3f2e8d35c853d47e2816cbb9cdd49202554e0d5591517f0d2a6872ef858a7f8ead18dc4f3f2e8d35c853d47e2816cbb9cdd49202554e0e5590517f0d2a6872ef858a7f8ead18dc4f3f2e8d35c853d47e2816cbb9cdd49202554e0f55517f0d2a6872ef858a7f8ead18dc4f3f2e8d35c853d47e2816cbb9cdd49202554e1055565b6200083d604051620007538162001501565b600781526107d06020808301918252600460408401818152600360608601908152601e60808701908152600093909352601390935293517f01413ff7a3b1d5b6c016c061d48e2c7014700c777a29fcd068fff04265813d5d5591517f01413ff7a3b1d5b6c016c061d48e2c7014700c777a29fcd068fff04265813d5e5591517f01413ff7a3b1d5b6c016c061d48e2c7014700c777a29fcd068fff04265813d5f5590517f01413ff7a3b1d5b6c016c061d48e2c7014700c777a29fcd068fff04265813d6055517f01413ff7a3b1d5b6c016c061d48e2c7014700c777a29fcd068fff04265813d6155565b620009366040516200084f8162001501565b6007815261138860208083019182526004604084018181526060850191825261270f608086019081526005600052601390935293517ff4b2859895858d6aa26d656e4999d552f6a869b74c43bba7d2a941c4d22c35595591517ff4b2859895858d6aa26d656e4999d552f6a869b74c43bba7d2a941c4d22c355a5591517ff4b2859895858d6aa26d656e4999d552f6a869b74c43bba7d2a941c4d22c355b55517ff4b2859895858d6aa26d656e4999d552f6a869b74c43bba7d2a941c4d22c355c55517ff4b2859895858d6aa26d656e4999d552f6a869b74c43bba7d2a941c4d22c355d55565b62000a2f604051620009488162001501565b6007815261271060208083019182526004604084018181526060850191825261270f608086019081526006600052601390935293517f709d0e3cf89777a1e1f9c99632e4494f29b0327befd0df15e277a12d948257955591517f709d0e3cf89777a1e1f9c99632e4494f29b0327befd0df15e277a12d948257965591517f709d0e3cf89777a1e1f9c99632e4494f29b0327befd0df15e277a12d9482579755517f709d0e3cf89777a1e1f9c99632e4494f29b0327befd0df15e277a12d9482579855517f709d0e3cf89777a1e1f9c99632e4494f29b0327befd0df15e277a12d9482579955565b62000b2a60405162000a418162001501565b60078082526161a860208084019182526004604085018181526060860191825261270f60808701908152600095909552601390925293517f8ba6fb577925b0796671c737df59b8aaae861b630513fb12823699e3e0e3ee605590517f8ba6fb577925b0796671c737df59b8aaae861b630513fb12823699e3e0e3ee6155517f8ba6fb577925b0796671c737df59b8aaae861b630513fb12823699e3e0e3ee625590517f8ba6fb577925b0796671c737df59b8aaae861b630513fb12823699e3e0e3ee6355517f8ba6fb577925b0796671c737df59b8aaae861b630513fb12823699e3e0e3ee6455565b6200122060405162000b3c8162001501565b600080825260066020808401918252600160408501818152600560608701908152608087018381529290955260159283905294517f27739e4bb5e6f8b5e4b57a047dca8767cc9b982a011081e086cbb0dfa9de818d5591517f27739e4bb5e6f8b5e4b57a047dca8767cc9b982a011081e086cbb0dfa9de818e5592517f27739e4bb5e6f8b5e4b57a047dca8767cc9b982a011081e086cbb0dfa9de818f5590517f27739e4bb5e6f8b5e4b57a047dca8767cc9b982a011081e086cbb0dfa9de819055517f27739e4bb5e6f8b5e4b57a047dca8767cc9b982a011081e086cbb0dfa9de81915562000c9060405162000c338162001501565b60008152600360208201526001604082015260056060820152600160808201526002600052826020526040600020906080600491805184556020810151600185015560408101516002850155606081015160038501550151910155565b62000cff60405162000ca28162001501565b60028152600f6020820152600a604082015260056060820152600160808201526003600052826020526040600020906080600491805184556020810151600185015560408101516002850155606081015160038501550151910155565b62000d6e60405162000d118162001501565b60028152600f6020820152600a604082015260056060820152600160808201526004600052826020526040600020906080600491805184556020810151600185015560408101516002850155606081015160038501550151910155565b62000ddd60405162000d808162001501565b60028152600f6020820152600a604082015260056060820152600160808201526005600052826020526040600020906080600491805184556020810151600185015560408101516002850155606081015160038501550151910155565b6040519062000dec8262001501565b60028252604b918260208201526064604082015262000e5160fa91826060820152606460808201526006600052836020526040600020906080600491805184556020810151600185015560408101516002850155606081015160038501550151910155565b62000ebe60405162000e638162001501565b6002815284602082015260646040820152826060820152606460808201526007600052836020526040600020906080600491805184556020810151600185015560408101516002850155606081015160038501550151910155565b62000f2b60405162000ed08162001501565b6002815284602082015260646040820152826060820152606460808201526008600052836020526040600020906080600491805184556020810151600185015560408101516002850155606081015160038501550151910155565b62000f9860405162000f3d8162001501565b6002815284602082015260646040820152826060820152606460808201526009600052836020526040600020906080600491805184556020810151600185015560408101516002850155606081015160038501550151910155565b6200100560405162000faa8162001501565b600281528460208201526064604082015282606082015260646080820152600a600052836020526040600020906080600491805184556020810151600185015560408101516002850155606081015160038501550151910155565b62001072604051620010178162001501565b600281528460208201526064604082015282606082015260646080820152600b600052836020526040600020906080600491805184556020810151600185015560408101516002850155606081015160038501550151910155565b620010df604051620010848162001501565b600281528460208201526064604082015282606082015260646080820152600c600052836020526040600020906080600491805184556020810151600185015560408101516002850155606081015160038501550151910155565b6200114c604051620010f18162001501565b600281528460208201526064604082015282606082015260646080820152600d600052836020526040600020906080600491805184556020810151600185015560408101516002850155606081015160038501550151910155565b620011b96040516200115e8162001501565b600281528460208201526064604082015282606082015260646080820152600e600052836020526040600020906080600491805184556020810151600185015560408101516002850155606081015160038501550151910155565b60405192620011c88462001501565b60028452602084015260646040840152606083015260646080830152600f6000526020526040600020906080600491805184556020810151600185015560408101516002850155606081015160038501550151910155565b6040516200122e816200151d565b60128152600a6020808301918252602d60408085019182526003600052601490925292517f63d87a887046e0430be80fdeb014107d7198c879cbf2cddf39a6df195c86cb385590517f63d87a887046e0430be80fdeb014107d7198c879cbf2cddf39a6df195c86cb395590517f63d87a887046e0430be80fdeb014107d7198c879cbf2cddf39a6df195c86cb3a5551620012c8816200151d565b60128152600a6020808301918252605a60408085019182526005600052601490925292517f116126bec5aaa49b347e966c49378cf0c441de9121e306ea3d824584a9615aa25590517f116126bec5aaa49b347e966c49378cf0c441de9121e306ea3d824584a9615aa35590517f116126bec5aaa49b347e966c49378cf0c441de9121e306ea3d824584a9615aa4555162001362816200151d565b60098152600a602080830191825261270f6040808501918252600760009081526014845294517f904977a779b22381a36c6463d4166ef55ee8cb3392c83093cb1750f1a00c9d945592517f904977a779b22381a36c6463d4166ef55ee8cb3392c83093cb1750f1a00c9d9555517f904977a779b22381a36c6463d4166ef55ee8cb3392c83093cb1750f1a00c9d96556012905260327f8e1fee8c88a9e04123b21e90cae2727a7715bf522a1e46eb5934ccd05203a6b25560049091526101f47fb4fcd034df3d20faa1c133b66d862ce92732727d40916b48ffb4020cb00fe0535551612f639081620015f8823960805181611ded0152f35b62001481915060203d60201162001488575b62001478818362001539565b8101906200155d565b3862000304565b503d6200146c565b6040513d6000823e3d90fd5b620014b79150833d8511620014885762001478818362001539565b38620002c2565b634e487b7160e01b600052604160045260246000fd5b634e487b7160e01b600052601160045260246000fd5b60405163e6c4247b60e01b8152600490fd5b600080fd5b60a081019081106001600160401b03821117620014be57604052565b606081019081106001600160401b03821117620014be57604052565b601f909101601f19168101906001600160401b03821190821017620014be57604052565b90816020910312620014fc57516001600160a01b0381168103620014fc5790565b60405190608082016001600160401b03811183821017620014be5760405260006060838281528260208201528260408201520152565b6040519060c082016001600160401b03811183821017620014be576040528160a0600091828152826020820152826040820152826060820152826080820152015256fe60806040526004361015610018575b361561001657005b005b60003560e01c806304ce9f80146104985780630609a0e31461049357806307175c831461048e57806309307c62146104895780630aa4b750146104845780630b225f1a1461047f5780630ea0d2221461047a57806312065fe01461047557806314be92a51461047057806315a544ed1461046b5780631605aed91461046657806316f0115b14610461578063179b570a1461045c578063192b48ee146104575780631ef6a864146104525780631f185d161461044d578063203bab661461044857806326c5adae14610443578063298fc4601461043e578063339459a6146104395780633688236d146104345780633b9b79551461042f5780633eb71c061461042a5780634151331d14610425578063438fe1921461042057806344ec16bc1461041b5780634b62954f1461041657806353423e8614610411578063541d76671461040c57806354541683146104075780635640dbfc14610402578063592a02a8146103fd5780635962205f146103f85780635a0e9038146103f35780636c7deb5d146103ee5780636f092c5e146103e95780637687e371146103e457806378ef376f146103df5780637bc908c6146103da57806382a3c503146103d5578063840bbc1e146103d05780638da5cb5b146103cb57806391fc8aa8146103c65780639319d0b5146103c15780639d80ab9b146103bc5780639eb8b44e146103b75780639f70207d146103b2578063a19841dd146103ad578063a1f7f539146103a8578063a88fcea6146103a3578063ac14611a1461039e578063aebcd32a14610399578063af0b21d314610394578063af4845261461038f578063b49c064c1461038a578063b85f1f8d14610385578063b90306ad14610380578063c54e44b01461037b578063c5a136d414610376578063d0bb2ddf14610371578063dbad649c1461036c578063e01ad5fd14610367578063e0a9bc2b14610362578063e19a5bcf1461035d578063e6a7791914610358578063eddd0d9c14610353578063f27c35c61461034e578063f2a6bbc714610349578063f4fe8e3c14610344578063f7a9783e1461033f578063fc0e74d11461033a5763fdc10bc90361000e576126d3565b6126b0565b612637565b6125cb565b61257c565b6124d1565b612482565b612388565b6122cc565b6122b1565b6121e6565b6121c8565b612172565b6120d5565b61204f565b611f41565b611f07565b611ee4565b611eb3565b611e95565b611e2d565b611dc8565b611daa565b611d35565b611cfb565b611cdd565b611b06565b611a87565b611a38565b611a1a565b6119f3565b61197a565b6118d6565b6118b8565b611869565b611801565b6117d5565b611786565b61174d565b6116e5565b6115e6565b611565565b611547565b6114d1565b6114b3565b61145e565b61140f565b6113f1565b6113ae565b61135f565b611338565b61131a565b610c37565b610bcf565b610ae5565b610a5a565b610973565b6108ac565b61081c565b6107c7565b610776565b610758565b61073a565b6106eb565b6106cf565b6106b1565b610693565b610675565b610620565b610602565b61055f565b3461055a57604036600319011261055a57600080808060243560043560018114610524575b6002146104f2575b50906104ee91604051948594859094939260609260808301968352602083015260408201520152565b0390f35b6021546022546023546025549297509095506104ee945092501061051c576026545b9290916104c5565b602454610514565b935093505050601d5491601e54601f54918060255410156000146105505760026026545b9490506104bd565b6002602054610548565b600080fd5b3461055a57602036600319011261055a57610578612ba2565b156105d85761058633612c27565b80156105c4575b1561059a57600435602b55005b60046040517fea8e4eb5000000000000000000000000000000000000000000000000000000008152fd5b50336001600160a01b03600554161461058d565b60046040517f9dc4246e000000000000000000000000000000000000000000000000000000008152fd5b3461055a57600036600319011261055a576020603254604051908152f35b3461055a57604036600319011261055a57610639612ba2565b156105d85761064733612c27565b8015610661575b1561059a57600435603455602435603555005b50336001600160a01b03600554161461064e565b3461055a57600036600319011261055a576020603754604051908152f35b3461055a57600036600319011261055a576020604654604051908152f35b3461055a57600036600319011261055a576020603054604051908152f35b3461055a57600036600319011261055a57602047604051908152f35b3461055a57602036600319011261055a57610704612ba2565b156105d85761071233612c27565b8015610726575b1561059a57600435603055005b50336001600160a01b036005541614610719565b3461055a57600036600319011261055a576020603554604051908152f35b3461055a57600036600319011261055a576020603454604051908152f35b3461055a57600036600319011261055a5760e0601654601754601854601954601a5490601b5492601c5494604051968752602087015260408601526060850152608084015260a083015260c0820152f35b3461055a57604036600319011261055a576107e0612ba2565b156105d8576107ee33612c27565b8015610808575b1561059a57600435602555602435602655005b50336001600160a01b0360055416146107f5565b3461055a57602036600319011261055a57600435610838612ba2565b156105d85761084633612c27565b8015610876575b1561059a57670de0b6b3a76400009081810291818304149015171561087157603355005b612dcd565b50336001600160a01b03600554161461084d565b60a090600319011261055a576004359060243590604435906064359060843590565b3461055a576108ba3661088a565b906108c794929394612ba2565b156105d8576108d533612c27565b801561094e575b1561059a576002936108ec612e7e565b9586526020860152604085015260608401526001811461092c575b1461090e57005b8051603c556020810151603d556040810151603e5560600151603f55005b825160385560208301516039556040830151603a556060830151603b55610907565b50336001600160a01b0360055416146108dc565b6001600160a01b0381160361055a57565b3461055a5760208060031936011261055a576109f260043561099481610962565b6001600160a01b038060025416906040519216848301528382526109b7826127c2565b604051906109c4826127c2565b601182527f69735369676e657228616464726573732900000000000000000000000000000085830152612ce1565b919080610a50575b15610a26578181610a14926104ee94518301019101612b8d565b60405190151581529081906020820190565b60046040517f3204506f000000000000000000000000000000000000000000000000000000008152fd5b50808251146109fa565b3461055a5760e036600319011261055a57610a73612ba2565b156105d857610a8133612c27565b8015610ad1575b1561059a57610a9860405161274d565b600435601655602435601755604435601855606435601955610abb608435601a55565b610ac660a435601b55565b61001660c435601c55565b50336001600160a01b036005541614610a88565b3461055a57602036600319011261055a57600460206001600160a01b0360005416604051928380926369e8d84b60e11b82525afa8015610bc057610b4391600091610b92575b50610b34612edc565b90610b3d612ef4565b90612d8f565b60325490670de0b6b3a764000091828102928184041490151715610871576104ee91610b7d610b8292610b7860043593612e03565b612de3565b612e20565b6040519081529081906020820190565b610bb3915060203d8111610bb9575b610bab81836127fa565b81019061281c565b38610b2b565b503d610ba1565b612834565b8015150361055a57565b3461055a57602036600319011261055a57600435610bec81610bc5565b610bf4612ba2565b156105d857610c0233612c27565b8015610c23575b1561059a5760ff8019604754169115151617604755600080f35b50336001600160a01b036005541614610c09565b3461055a57600036600319011261055a57610c69610c5d6000546001600160a01b031690565b6001600160a01b031690565b604051907f97f3815a000000000000000000000000000000000000000000000000000000008252602082600481845afa918215610bc0576000926112f9575b50604051917fcfbffe53000000000000000000000000000000000000000000000000000000008352602083600481855afa928315610bc0576000936112d8575b50604051907fab6e844f000000000000000000000000000000000000000000000000000000008252602082600481865afa918215610bc0576000926112b7575b50604051917f14d8d024000000000000000000000000000000000000000000000000000000008352602083600481875afa928315610bc057600093611296575b50604051927fd1f956b1000000000000000000000000000000000000000000000000000000008452602084600481885afa938415610bc057600094611275575b50604051937fe61dfd58000000000000000000000000000000000000000000000000000000008552602085600481895afa948515610bc057600095611254575b506040517fe09d394d0000000000000000000000000000000000000000000000000000000081526020816004818a5afa908115610bc057600091611235575b506040517f52b06d640000000000000000000000000000000000000000000000000000000081526020816004818b5afa908115610bc057600091611216575b506040517f013cf08b00000000000000000000000000000000000000000000000000000000815260006004820152916020836024818c5afa928315610bc0576000936111f5575b50604051977f5e09dbe70000000000000000000000000000000000000000000000000000000089526020896004818d5afa948515610bc0576004996000966111d4575b5060208b6040519b8c80927faa0ddc160000000000000000000000000000000000000000000000000000000082525afa968715610bc05760049a6000986111b3575b5060208c6040519c8d80927f640274270000000000000000000000000000000000000000000000000000000082525afa988915610bc05760049b60009a611192575b5060208d6040519d8e80927f30125cf50000000000000000000000000000000000000000000000000000000082525afa9a8b15610bc0578d60049d60009d611170575b506020906040519e8f80927f24768d910000000000000000000000000000000000000000000000000000000082525afa9c8d15610bc05760009d61114f575b50604051809e81907f9dc969a80000000000000000000000000000000000000000000000000000000082525a92600491602094fa9d8e15610bc05760009e61112e575b50611042612840565b6001600160a01b0390911681529d8e906001600160a01b031660208201526040019061107691906001600160a01b03169052565b6001600160a01b031660608d01526001600160a01b031660808c01526001600160a01b031660a08b01526001600160a01b031660c08a01526001600160a01b031660e08901526001600160a01b03166101008801526001600160a01b03166101208701526001600160a01b03166101408601526001600160a01b03166101608501526001600160a01b03166101808401526001600160a01b03166101a08301526001600160a01b03166101c082015261001690612870565b611148919e5060203d602011610bb957610bab81836127fa565b9c38611039565b611169919d5060203d602011610bb957610bab81836127fa565b9b38610ff6565b6020919d5061118b90823d8411610bb957610bab81836127fa565b9c90610fb7565b6111ac919a5060203d602011610bb957610bab81836127fa565b9838610f74565b6111cd91985060203d602011610bb957610bab81836127fa565b9638610f32565b6111ee91965060203d602011610bb957610bab81836127fa565b9438610ef0565b61120f91935060203d602011610bb957610bab81836127fa565b9138610ead565b61122f915060203d602011610bb957610bab81836127fa565b38610e66565b61124e915060203d602011610bb957610bab81836127fa565b38610e27565b61126e91955060203d602011610bb957610bab81836127fa565b9338610de8565b61128f91945060203d602011610bb957610bab81836127fa565b9238610da8565b6112b091935060203d602011610bb957610bab81836127fa565b9138610d68565b6112d191925060203d602011610bb957610bab81836127fa565b9038610d28565b6112f291935060203d602011610bb957610bab81836127fa565b9138610ce8565b61131391925060203d602011610bb957610bab81836127fa565b9038610ca8565b3461055a57600036600319011261055a576020602f54604051908152f35b3461055a57600036600319011261055a5760206001600160a01b0360005416604051908152f35b3461055a57602036600319011261055a57611378612ba2565b156105d85761138633612c27565b801561139a575b1561059a57600435603755005b50336001600160a01b03600554161461138d565b3461055a57602036600319011261055a57600435600052601460205260606040600020805490600260018201549101549060405192835260208301526040820152f35b3461055a57600036600319011261055a576020602d54604051908152f35b3461055a57602036600319011261055a57611428612ba2565b156105d85761143633612c27565b801561144a575b1561059a57600435602c55005b50336001600160a01b03600554161461143d565b3461055a57604036600319011261055a57611477612ba2565b156105d85761148533612c27565b801561149f575b1561059a57600435602e55602435602f55005b50336001600160a01b03600554161461148c565b3461055a57600036600319011261055a576020603154604051908152f35b3461055a57602036600319011261055a57600460206001600160a01b0360005416604051928380926369e8d84b60e11b82525afa8015610bc057611526610b82916104ee93600091610b925750610b34612edc565b6004356000526012602052610b78611542604060002054612e03565b612e03565b3461055a57600036600319011261055a576020602c54604051908152f35b3461055a57600036600319011261055a5760c060275460ff60285460295490604051938452602084015281811615156040840152818160081c1615156060840152818160101c161515608084015260181c16151560a0820152f35b60c090600319011261055a57600435906024359060443590606435906084359060a43590565b3461055a576115f4366115c0565b90611600959295612ba2565b156105d85761160e33612c27565b80156116d1575b1561059a57601083101561168d576100169561165e94604051966116388861276e565b875260208701526040860152606085015260808401526000526015602052604060002090565b906080600491805184556020810151600185015560408101516002850155606081015160038501550151910155565b606460405162461bcd60e51b815260206004820152600d60248201527f696e76616c6964206c6576656c000000000000000000000000000000000000006044820152fd5b50336001600160a01b036005541614611615565b3461055a57602036600319011261055a576004356000526015602052604060002080546104ee6001830154926002810154906004600382015491015491604051958695869192608093969594919660a084019784526020840152604083015260608201520152565b3461055a57600036600319011261055a57601d54601e54601f546020805460408051958652918501939093528301526060820152608090f35b3461055a57602036600319011261055a5761179f612ba2565b156105d8576117ad33612c27565b80156117c1575b1561059a57600435603155005b50336001600160a01b0360055416146117b4565b3461055a57602036600319011261055a5760043560005260126020526020604060002054604051908152f35b3461055a57602036600319011261055a5760043561181e81610bc5565b611826612ba2565b156105d85761183433612c27565b8015611855575b1561059a5760ff8019602a54169115151617602a55600080f35b50336001600160a01b03600554161461183b565b3461055a57602036600319011261055a57611882612ba2565b156105d85761189033612c27565b80156118a4575b1561059a57600435603655005b50336001600160a01b036005541614611897565b3461055a57600036600319011261055a576020603654604051908152f35b3461055a5760c036600319011261055a576004356118f381610962565b6064356118ff81610962565b611907612ba2565b156105d85761191533612c27565b8015611966575b1561059a576001600160a01b0390816001600160a01b031993168360405416176040556024356041556044356042551690604354161760435560843560445560a435604555600080f35b50336001600160a01b03600554161461191c565b3461055a57602036600319011261055a57600460206001600160a01b0360005416604051928380926369e8d84b60e11b82525afa908115610bc0576119e16119d96104ee93670de0b6b3a764000093600091610b925750610b34612edc565b600435612e20565b04604051918291829190602083019252565b3461055a57600036600319011261055a5760206001600160a01b0360015416604051908152f35b3461055a57600036600319011261055a576020603354604051908152f35b3461055a57602036600319011261055a57611a51612ba2565b156105d857611a5f33612c27565b8015611a73575b1561059a57600435602d55005b50336001600160a01b036005541614611a66565b3461055a57600036600319011261055a57603854603954603a54603b54604080519485526020850193909352918301526060820152608090f35b6102a0810192916000915b60078310611ad957505050565b60019060608351918251815260209283810151848301526040809101519082015201920192019190611acc565b3461055a57600080600319360112611cda576040908151611b268161274d565b815b60e08110611cb5576104ee84611b3c612861565b6001600052601460205290611b757fb6c61a840592cc84133e4b25bd509abf4659307c57b160799b38490a5aa48f2c612eb4565b612eb4565b825260026000526014602052611baa7fa1930aa930426c54c34daad2b9ada7c5d0ef0c96078a3c5bb79f6fa6602c4a7a612eb4565b6020830152611bc7611b7060036000526014602052604060002090565b8282015260046000526014602052611bfe7f52102136546d97ed3f65ec1070a32935d3048ea12f310d29c378dc9d6555c0d6612eb4565b606083015260056000526014602052611c367f116126bec5aaa49b347e966c49378cf0c441de9121e306ea3d824584a9615aa2612eb4565b608083015260066000526014602052611c6e7fe1f6b6a5fb7e47dad87547d4b0671e7e995a1dae22fbe5b3b5d10e2a77ed7aff612eb4565b60a083015260076000526014602052611ca67f904977a779b22381a36c6463d4166ef55ee8cb3392c83093cb1750f1a00c9d94612eb4565b60c08301525191829182611ac1565b6020908451611cc38161278a565b848152848382015284868201528184015201611b28565b80fd5b3461055a57600036600319011261055a576020602554604051908152f35b3461055a57600036600319011261055a57603c54603d54603e54603f54604080519485526020850193909352918301526060820152608090f35b3461055a57600036600319011261055a576020611da26001600160a01b0360065416604051611d63816127c2565b601381527f67657464656c656761746f72436f756e742829000000000000000000000000008482015260405191611d99836127de565b60008352612d8f565b604051908152f35b3461055a57600036600319011261055a576020602e54604051908152f35b3461055a57600036600319011261055a57614d584201804211610871576201518090047f000000000000000000000000000000000000000000000000000000000000000081039081116108715761012a90810180911161087157602090604051908152f35b3461055a57602036600319011261055a576004356000526013602052604060002080546104ee6001830154926002810154906004600382015491015491604051958695869192608093969594919660a084019784526020840152604083015260608201520152565b3461055a57600036600319011261055a576020602b54604051908152f35b3461055a57602036600319011261055a576020611eda600435611ed581610962565b612c27565b6040519015158152f35b3461055a57600036600319011261055a57602060ff604754166040519015158152f35b3461055a57600036600319011261055a57602154602254602354602454604080519485526020850193909352918301526060820152608090f35b3461055a57602036600319011261055a57600435611f5d612ba2565b156105d8576001600160a01b0360055416330361059a5760009060046020611f8f610c5d85546001600160a01b031690565b604051928380927f46f991ac0000000000000000000000000000000000000000000000000000000082525afa8015610bc05783808481949382948391612031575b505af1611fdb612cb1565b5015610a26577fcdcc745fe377b103b45fa0cec23ae3ef93d6fc6a84a01f0d18c40b354dd1d5d861202b61201a610c5d600b546001600160a01b031690565b604051938452929081906020820190565b0390a280f35b612049915060203d8111610bb957610bab81836127fa565b38611fd0565b3461055a57602036600319011261055a5760043561206c81610962565b803b600061207982612b71565b9261208760405194856127fa565b82845260208401903c602d8151106120ab57602a602091015160601c604051908152f35b60046040517fbaf3f0f7000000000000000000000000000000000000000000000000000000008152fd5b3461055a57608036600319011261055a576004356120f1612ba2565b156105d8576120ff33612c27565b801561215e575b1561059a5761211760088210612e33565b6002604051916121268361278a565b602435835260208301604435815260408401916064358352600052601460205260406000209351845551600184015551910155600080f35b50336001600160a01b036005541614612106565b3461055a57600036600319011261055a5760c06001600160a01b038060405416906041549060425490604354166044549160455493604051958652602086015260408501526060840152608083015260a0820152f35b3461055a57600036600319011261055a576020602654604051908152f35b3461055a5760208060031936011261055a576104ee906004359061220982610962565b61226d6001600160a01b0392836006541693604051911683820152828152612230816127c2565b60405161223c816127c2565b601881527f697364656c656761746f724e6f6465286164647265737329000000000000000084820152600094612ce1565b9190806122a7575b61228e575b505060405190151581529081906020820190565b6122a092508082518301019101612b8d565b388061227a565b5080825114612275565b3461055a57600036600319011261055a576020611eda612ba2565b3461055a576122da3661088a565b906122e794929394612ba2565b156105d8576122f533612c27565b8015612374575b1561059a5760029361230c612e7e565b9586526020860152604085015260608401526001811461234c575b1461232e57005b80516021556020810151602255604081015160235560600151602455005b61236f836060908051601d556020810151601e556040810151601f550151602055565b612327565b50336001600160a01b0360055416146122fc565b3461055a5760c036600319011261055a576044356123a581610bc5565b606435906123b282610bc5565b608435906123bf82610bc5565b60a435916123cc83610bc5565b6123d4612ba2565b156105d8576123e233612c27565b801561246e575b1561059a576100169361242461244f936124046040516127a6565b600435602755602435602855151560ff8019602954169115151617602955565b6029805462ffff00191691151560081b61ff00169190911791151560101b62ff000016919091179055565b151563ff00000060295491151560181b169063ff000000191617602955565b50336001600160a01b0360055416146123e9565b3461055a57602036600319011261055a5761249b612ba2565b156105d8576124a933612c27565b80156124bd575b1561059a57600435603255005b50336001600160a01b0360055416146124b0565b3461055a576124df366115c0565b916124eb959395612ba2565b156105d8576124f933612c27565b8015612568575b1561059a5761001695604051956125168761276e565b8652602086015260408501526060840152608083015260005260136020526040600020906080600491805184556020810151600185015560408101516002850155606081015160038501550151910155565b50336001600160a01b036005541614612500565b3461055a57602036600319011261055a57612595612ba2565b156105d8576125a333612c27565b80156125b7575b1561059a57600435604655005b50336001600160a01b0360055416146125aa565b3461055a57604036600319011261055a576004356125e7612ba2565b156105d8576125f533612c27565b8015612623575b1561059a5761260d60088210612e33565b6000526012602052602435604060002055600080f35b50336001600160a01b0360055416146125fc565b3461055a57602036600319011261055a57600435600460206001600160a01b0360005416604051928380926369e8d84b60e11b82525afa8015610bc05761268891600091610b925750610b34612edc565b90670de0b6b3a764000090818102918183041490151715610871576104ee91610b8291612de3565b3461055a57600036600319011261055a57602060ff602a54166040519015158152f35b3461055a57600036600319011261055a576020611da26001600160a01b0360035416604051612701816127c2565b600681527f69416765282900000000000000000000000000000000000000000000000000008482015260405191611d99836127de565b634e487b7160e01b600052604160045260246000fd5b60e0810190811067ffffffffffffffff82111761276957604052565b612737565b60a0810190811067ffffffffffffffff82111761276957604052565b6060810190811067ffffffffffffffff82111761276957604052565b60c0810190811067ffffffffffffffff82111761276957604052565b6040810190811067ffffffffffffffff82111761276957604052565b6020810190811067ffffffffffffffff82111761276957604052565b90601f8019910116810190811067ffffffffffffffff82111761276957604052565b9081602091031261055a575161283181610962565b90565b6040513d6000823e3d90fd5b604051906101e0820182811067ffffffffffffffff82111761276957604052565b6040519061286e8261274d565b565b612b556101c061286e926128aa61288e82516001600160a01b031690565b6001600160a01b03166001600160a01b03196002541617600255565b6128dd6128c160208301516001600160a01b031690565b6001600160a01b03166001600160a01b03196003541617600355565b6129106128f460408301516001600160a01b031690565b6001600160a01b03166001600160a01b03196004541617600455565b61294361292760608301516001600160a01b031690565b6001600160a01b03166001600160a01b03196005541617600555565b61297661295a60808301516001600160a01b031690565b6001600160a01b03166001600160a01b03196006541617600655565b6129a961298d60a08301516001600160a01b031690565b6001600160a01b03166001600160a01b03196007541617600755565b6129dc6129c060c08301516001600160a01b031690565b6001600160a01b03166001600160a01b03196008541617600855565b612a0f6129f360e08301516001600160a01b031690565b6001600160a01b03166001600160a01b03196009541617600955565b612a43612a276101008301516001600160a01b031690565b6001600160a01b03166001600160a01b0319600a541617600a55565b612a77612a5b6101208301516001600160a01b031690565b6001600160a01b03166001600160a01b0319600b541617600b55565b612aab612a8f6101408301516001600160a01b031690565b6001600160a01b03166001600160a01b0319600c541617600c55565b612adf612ac36101608301516001600160a01b031690565b6001600160a01b03166001600160a01b0319600d541617600d55565b612b13612af76101808301516001600160a01b031690565b6001600160a01b03166001600160a01b0319600e541617600e55565b612b47612b2b6101a08301516001600160a01b031690565b6001600160a01b03166001600160a01b0319600f541617600f55565b01516001600160a01b031690565b6001600160a01b03166001600160a01b03196010541617601055565b67ffffffffffffffff811161276957601f01601f191660200190565b9081602091031261055a575161283181610bc5565b612bfd6001600160a01b0360025416604051612bbd816127c2565b600881527f6973536166652829000000000000000000000000000000000000000000000000602082015260405191612bf4836127de565b60008352612ce1565b9080612c1c575b15610a26578060208061283193518301019101612b8d565b506020815114612c04565b612c8a6001600160a01b038060025416604051916020941684830152838252612c4f826127c2565b60405190612c5c826127c2565b601582527f697353656375726542617365286164647265737329000000000000000000000085830152612ce1565b9080612ca7575b15610a2657816128319282518301019101612b8d565b5081815114612c91565b3d15612cdc573d90612cc282612b71565b91612cd060405193846127fa565b82523d6000602084013e565b606090565b9190823b15612d76577fffffffff00000000000000000000000000000000000000000000000000000000815160208093012016916040519180830193845281519160005b838110612d62575050509181612d52602482600097959688970187838201520360048101845201826127fa565b51915afa612d5e612cb1565b9091565b818101830151858201602401528201612d25565b505050600090604051612d88816127de565b6000815290565b9291612d9d91600094612ce1565b9080612dc2575b612dab5750565b90915060208180518101031261055a576020015190565b506020815114612da4565b634e487b7160e01b600052601160045260246000fd5b8115612ded570490565b634e487b7160e01b600052601260045260246000fd5b90670de0b6b3a76400009182810292818404149015171561087157565b8181029291811591840414171561087157565b15612e3a57565b606460405162461bcd60e51b815260206004820152600c60248201527f696e76616c69642072616e6b00000000000000000000000000000000000000006044820152fd5b604051906080820182811067ffffffffffffffff8211176127695760405260006060838281528260208201528260408201520152565b90604051612ec18161278a565b60406002829480548452600181015460208501520154910152565b604051612ee8816127de565b60008152906000368137565b60405190612f01826127c2565b601282527f6f7a6f6e655072696365496e5553445428290000000000000000000000000000602083015256fea264697066735822122095d8a04f55816a4be664095807f2e2549d8a6c9de93cad217d3a93b941475d5464736f6c63430008140033","linkReferences":{}},"methodIdentifiers":{"invalidator()":"52b06d64","rule741()":"0a5b38ab","transferRequest()":"3da8676f"},"id":77}