{"abi":[{"type":"constructor","inputs":[{"name":"_hex","type":"address","internalType":"address"},{"name":"_price","type":"address","internalType":"address"},{"name":"_old741","type":"address","internalType":"address"}],"stateMutability":"nonpayable"},{"type":"function","name":"dAOAssembly","inputs":[],"outputs":[{"name":"","type":"address","internalType":"address"}],"stateMutability":"view"},{"type":"function","name":"daocore","inputs":[],"outputs":[{"name":"","type":"address","internalType":"address"}],"stateMutability":"view"},{"type":"function","name":"nested741","inputs":[],"outputs":[{"name":"","type":"address","internalType":"address"}],"stateMutability":"view"},{"type":"function","name":"old741","inputs":[],"outputs":[{"name":"","type":"address","internalType":"address"}],"stateMutability":"view"},{"type":"function","name":"price","inputs":[],"outputs":[{"name":"","type":"address","internalType":"address"}],"stateMutability":"view"}],"bytecode":{"object":"0x6080346101b757601f61a74338819003918201601f19168301926001600160401b03929091838511838610176101a15781606092849260409788528339810103126101b75761004d816101bc565b6100648461005d602085016101bc565b93016101bc565b9160018060a01b03199273c0cee8b561cc4f60869776ca5b0b7a295e04f5af84600154161760015585516118489586820196828810828911176101a15761032583396001600160a01b039485168088526000979092908190036020019088f080156101835785168660035416176003558751615ad8808201908282108483111761018d576020918391614c6b833985815203019088f080156101835785168660025416176002558751916130fe808401928484109084111761016f57918391602093611b6d8439815203019086f080156101655790838092168560045416176004551683600154161760015516908254161790555161015490816101d18239f35b86513d87823e3d90fd5b634e487b7160e01b89526041600452602489fd5b88513d89823e3d90fd5b634e487b7160e01b8a52604160045260248afd5b634e487b7160e01b600052604160045260246000fd5b600080fd5b51906001600160a01b03821682036101b75756fe608080604052600436101561001357600080fd5b600090813560e01c90816314837455146100f55750806314d8d024146100ce57806345cff900146100a75780635540c5ac146100805763a035b1fe1461005857600080fd5b3461007d578060031936011261007d576001600160a01b036020915416604051908152f35b80fd5b503461007d578060031936011261007d5760206001600160a01b0360015416604051908152f35b503461007d578060031936011261007d5760206001600160a01b0360025416604051908152f35b503461007d578060031936011261007d5760206001600160a01b0360045416604051908152f35b90503461011a578160031936011261011a576020906001600160a01b03600354168152f35b5080fdfea26469706673582212201c099dc8421ce31be6001f18977b40868f92ffced6a126f86bc806d91e6dd16d64736f6c6343000814003360803461009757601f61184838819003918201601f19168301916001600160401b0383118484101761009c5780849260209460405283398101031261009757516001600160a01b038116908190036100975780156100855760018060a01b0319338160015416176001556000541617600055600060125560405161179590816100b38239f35b60405163e6c4247b60e01b8152600490fd5b600080fd5b634e487b7160e01b600052604160045260246000fdfe60806040526004361015610018575b361561001657005b005b60003560e01c806312065fe0146101185780631f185d161461011357806325924f341461010e578063339459a6146101095780633b9b79551461010457806361b7fbd9146100ff5780638da5cb5b146100fa578063a1f7f539146100f5578063af484526146100f0578063b90306ad146100eb578063c54e44b0146100e6578063c89b84fd146100e1578063dbac26e9146100dc578063e01ad5fd146100d7578063e0a9bc2b146100d25763fdc10bc90361000e57610ecf565b610eb4565b610e34565b610df1565b610d2c565b610ca6565b610b98565b610b19565b610aa4565b610a7d565b61098f565b61095e565b610266565b610235565b61014a565b3461013457600036600319011261013457602047604051908152f35b600080fd5b6001600160a01b0381160361013457565b3461013457602080600319360112610134576101c960043561016b81610139565b6001600160a01b0380600254169060405192168483015283825261018e82610f00565b6040519061019b82610f00565b601182527f69735369676e6572286164647265737329000000000000000000000000000000858301526115e6565b91908061022b575b156102015781816101eb926101fd945183010191016114ca565b60405190151581529081906020820190565b0390f35b60046040517f3204506f000000000000000000000000000000000000000000000000000000008152fd5b50808251146101d1565b3461013457602036600319011261013457602061025c60043561025781610139565b61108e565b6040519015158152f35b346101345760003660031901126101345761029861028c6000546001600160a01b031690565b6001600160a01b031690565b604051907f97f3815a000000000000000000000000000000000000000000000000000000008252602082600481845afa91821561078e5760009261093d575b50604051917fcfbffe53000000000000000000000000000000000000000000000000000000008352602083600481855afa92831561078e5760009361091c575b50604051907fab6e844f000000000000000000000000000000000000000000000000000000008252602082600481865afa91821561078e576000926108fb575b50604051917f14d8d024000000000000000000000000000000000000000000000000000000008352602083600481875afa92831561078e576000936108da575b50604051927fd1f956b1000000000000000000000000000000000000000000000000000000008452602084600481885afa93841561078e576000946108b9575b50604051937fe61dfd58000000000000000000000000000000000000000000000000000000008552602085600481895afa94851561078e57600095610898575b506040517fe09d394d0000000000000000000000000000000000000000000000000000000081526020816004818a5afa90811561078e57600091610879575b506040517f52b06d640000000000000000000000000000000000000000000000000000000081526020816004818b5afa90811561078e5760009161085a575b506040517f013cf08b00000000000000000000000000000000000000000000000000000000815260006004820152916020836024818c5afa92831561078e57600093610839575b50604051977f5e09dbe70000000000000000000000000000000000000000000000000000000089526020896004818d5afa94851561078e57600499600096610818575b5060208b6040519b8c80927faa0ddc160000000000000000000000000000000000000000000000000000000082525afa96871561078e5760049a6000986107f7575b5060208c6040519c8d80927f640274270000000000000000000000000000000000000000000000000000000082525afa98891561078e5760049b60009a6107d6575b5060208d6040519d8e80927f30125cf50000000000000000000000000000000000000000000000000000000082525afa9a8b1561078e578d60049d60009d6107b4575b506020906040519e8f80927f24768d910000000000000000000000000000000000000000000000000000000082525afa9c8d1561078e5760009d610793575b50604051809e81907f9dc969a80000000000000000000000000000000000000000000000000000000082525a92600491602094fa9d8e1561078e5760009e61075d575b50610671610f5a565b6001600160a01b0390911681529d8e906001600160a01b03166020820152604001906106a591906001600160a01b03169052565b6001600160a01b031660608d01526001600160a01b031660808c01526001600160a01b031660a08b01526001600160a01b031660c08a01526001600160a01b031660e08901526001600160a01b03166101008801526001600160a01b03166101208701526001600160a01b03166101408601526001600160a01b03166101608501526001600160a01b03166101808401526001600160a01b03166101a08301526001600160a01b03166101c0820152610016906111c7565b610780919e5060203d602011610787575b6107788183610f38565b8101906111a6565b9c38610668565b503d61076e565b6111bb565b6107ad919d5060203d602011610787576107788183610f38565b9b38610625565b6020919d506107cf90823d8411610787576107788183610f38565b9c906105e6565b6107f0919a5060203d602011610787576107788183610f38565b98386105a3565b61081191985060203d602011610787576107788183610f38565b9638610561565b61083291965060203d602011610787576107788183610f38565b943861051f565b61085391935060203d602011610787576107788183610f38565b91386104dc565b610873915060203d602011610787576107788183610f38565b38610495565b610892915060203d602011610787576107788183610f38565b38610456565b6108b291955060203d602011610787576107788183610f38565b9338610417565b6108d391945060203d602011610787576107788183610f38565b92386103d7565b6108f491935060203d602011610787576107788183610f38565b9138610397565b61091591925060203d602011610787576107788183610f38565b9038610357565b61093691935060203d602011610787576107788183610f38565b9138610317565b61095791925060203d602011610787576107788183610f38565b90386102d7565b346101345760003660031901126101345760206001600160a01b0360005416604051908152f35b8015150361013457565b34610134576040366003190112610134576004356109ac81610139565b602435906109b982610985565b6109c16114df565b15610a53576001600160a01b039081600554163303610a2957166000526011602052604060002060ff1981541660ff83151516179055600014610a17576012546000198114610a1257600101601255005b611190565b6012548015610a125760001901601255005b60046040517fea8e4eb5000000000000000000000000000000000000000000000000000000008152fd5b60046040517f9dc4246e000000000000000000000000000000000000000000000000000000008152fd5b346101345760003660031901126101345760206001600160a01b0360015416604051908152f35b34610134576000366003190112610134576020610b116001600160a01b0360065416604051610ad281610f00565b601381527f67657464656c656761746f72436f756e742829000000000000000000000000008482015260405191610b0883610f1c565b60008352611721565b604051908152f35b3461013457602080600319360112610134576101c9600435610b3a81610139565b6001600160a01b03806002541690604051921684830152838252610b5d82610f00565b60405190610b6a82610f00565b601582527f6973536563757265426173652861646472657373290000000000000000000000858301526115e6565b3461013457602036600319011261013457600435610bb46114df565b15610a53576001600160a01b03600554163303610a295760009060046020610be661028c85546001600160a01b031690565b604051928380927f46f991ac0000000000000000000000000000000000000000000000000000000082525afa801561078e5783808481949382948391610c88575b505af1610c326115b6565b5015610201577fcdcc745fe377b103b45fa0cec23ae3ef93d6fc6a84a01f0d18c40b354dd1d5d8610c82610c7161028c600b546001600160a01b031690565b604051938452929081906020820190565b0390a280f35b610ca0915060203d8111610787576107788183610f38565b38610c27565b3461013457602036600319011261013457600435610cc381610139565b803b6000610cd082610f7b565b92610cde6040519485610f38565b82845260208401903c602d815110610d0257602a602091015160601c604051908152f35b60046040517fbaf3f0f7000000000000000000000000000000000000000000000000000000008152fd5b34610134576000366003190112610134576001600160a01b038060035416610d65610d55610faa565b91604092835191610b0883610f1c565b9160045416610d72611564565b92825193602085015282840152818352606083019280841067ffffffffffffffff851117610dec5783610ddd926101fd958552610dae82610f00565b601d82527f67657472616e6b436f756e742875696e743235362c75696e74323536290000006080840152611721565b90519081529081906020820190565b610eea565b34610134576020366003190112610134576001600160a01b03600435610e1681610139565b166000526011602052602060ff604060002054166040519015158152f35b3461013457602036600319011261013457602061025c600435610e5681610139565b6001600160a01b03806006541690604051921684830152838252610e7982610f00565b60405190610e8682610f00565b601882527f697364656c656761746f724e6f64652861646472657373290000000000000000858301526116e5565b3461013457600036600319011261013457602061025c6114df565b34610134576000366003190112610134576020610b11611564565b634e487b7160e01b600052604160045260246000fd5b6040810190811067ffffffffffffffff821117610dec57604052565b6020810190811067ffffffffffffffff821117610dec57604052565b90601f8019910116810190811067ffffffffffffffff821117610dec57604052565b604051906101e0820182811067ffffffffffffffff821117610dec57604052565b67ffffffffffffffff8111610dec57601f01601f191660200190565b60405190610fa482610f1c565b60008252565b60405190610fb782610f00565b600c82527f72616e6b666f7244414f282900000000000000000000000000000000000000006020830152565b60405190610ff082610f00565b601682527f67657455736572546f53746f72286164647265737329000000000000000000006020830152565b6040519061102982610f00565b600682527f72616e6b282900000000000000000000000000000000000000000000000000006020830152565b6040519061106282610f00565b600882527f69734c6f636b28290000000000000000000000000000000000000000000000006020830152565b6001600160a01b03906110b482600354166110a7610faa565b60405191610b0883610f1c565b6110fc6110c96004546001600160a01b031690565b604080516001600160a01b038616602080830191909152815291906110ee9083610f38565b6110f6610fe3565b90611694565b928316156111885761113861112161111261101c565b61111a610f97565b9086611721565b9361112a611055565b611132610f97565b916116e5565b921015918261117f575b508161114c575090565b61117c9150611171611178916001600160a01b03166000526011602052604060002090565b5460ff1690565b1590565b90565b15915038611142565b505050600090565b634e487b7160e01b600052601160045260246000fd5b90816020910312610134575161117c81610139565b6040513d6000823e3d90fd5b6114ac6101c06114c8926112016111e582516001600160a01b031690565b6001600160a01b03166001600160a01b03196002541617600255565b61123461121860208301516001600160a01b031690565b6001600160a01b03166001600160a01b03196003541617600355565b61126761124b60408301516001600160a01b031690565b6001600160a01b03166001600160a01b03196004541617600455565b61129a61127e60608301516001600160a01b031690565b6001600160a01b03166001600160a01b03196005541617600555565b6112cd6112b160808301516001600160a01b031690565b6001600160a01b03166001600160a01b03196006541617600655565b6113006112e460a08301516001600160a01b031690565b6001600160a01b03166001600160a01b03196007541617600755565b61133361131760c08301516001600160a01b031690565b6001600160a01b03166001600160a01b03196008541617600855565b61136661134a60e08301516001600160a01b031690565b6001600160a01b03166001600160a01b03196009541617600955565b61139a61137e6101008301516001600160a01b031690565b6001600160a01b03166001600160a01b0319600a541617600a55565b6113ce6113b26101208301516001600160a01b031690565b6001600160a01b03166001600160a01b0319600b541617600b55565b6114026113e66101408301516001600160a01b031690565b6001600160a01b03166001600160a01b0319600c541617600c55565b61143661141a6101608301516001600160a01b031690565b6001600160a01b03166001600160a01b0319600d541617600d55565b61146a61144e6101808301516001600160a01b031690565b6001600160a01b03166001600160a01b0319600e541617600e55565b61149e6114826101a08301516001600160a01b031690565b6001600160a01b03166001600160a01b0319600f541617600f55565b01516001600160a01b031690565b6001600160a01b03166001600160a01b03196010541617601055565b565b90816020910312610134575161117c81610985565b61153a6001600160a01b03600254166040516114fa81610f00565b600881527f697353616665282900000000000000000000000000000000000000000000000060208201526040519161153183610f1c565b600083526115e6565b9080611559575b15610201578060208061117c935183010191016114ca565b506020815114611541565b61117c6001600160a01b036003541660405161157f81610f00565b600681527f6941676528290000000000000000000000000000000000000000000000000000602082015260405191610b0883610f1c565b3d156115e1573d906115c782610f7b565b916115d56040519384610f38565b82523d6000602084013e565b606090565b9190823b1561167b577fffffffff00000000000000000000000000000000000000000000000000000000815160208093012016916040519180830193845281519160005b83811061166757505050918161165760248260009795968897018783820152036004810184520182610f38565b51915afa6116636115b6565b9091565b81810183015185820160240152820161162a565b50505060009060405161168d81610f1c565b6000815290565b92916116a2916000946115e6565b90806116da575b6116b05750565b9091506020818051810103126101345760206001600160a01b039101516116d681610139565b1690565b5060208151146116a9565b92916116f3916000946115e6565b9080611716575b6117015750565b61117c919250602080825183010191016114ca565b5060208151146116fa565b929161172f916000946115e6565b9080611754575b61173d5750565b909150602081805181010312610134576020015190565b50602081511461173656fea264697066735822122047f727fcb9b02191f8f435da04f13ae8cabef0b29b8182794bf01dcd3ae2b86c64736f6c634300081400336080346200009e57601f620030fe38819003918201601f19168301916001600160401b03831184841017620000a3578084926020946040528339810103126200009e57516001600160a01b038116908190036200009e5780156200008c5760018060a01b031933816001541617600155600054161760005560016011556040516130449081620000ba8239f35b60405163e6c4247b60e01b8152600490fd5b600080fd5b634e487b7160e01b600052604160045260246000fdfe60806040526004361015610018575b361561001657005b005b60003560e01c8063013cf08b146101c857806312065fe0146101c35780631f185d16146101be57806326705c3c146101b9578063339459a6146101b45780633b9b7955146101af57806343859632146101aa57806345a257bc146101a55780635c622a0e146101a0578063604ff4b11461019b578063896d6db1146101965780638da5cb5b1461019157806398e527d31461018c578063995e433914610187578063a1f7f53914610182578063af4845261461017d578063b7ccfe3214610178578063b90306ad14610173578063c54e44b01461016e578063c7f758a814610169578063c9d27afe14610164578063cc48bf161461015f578063d3325a2c1461015a578063e01ad5fd14610155578063e0a9bc2b14610150578063eeebb3c31461014b5763fdc10bc90361000e57611c59565b611a43565b611a28565b611a01565b611972565b61183d565b6116a2565b61162c565b611564565b611456565b6113af565b6112c8565b6112a5565b611221565b611203565b6111dc565b611143565b611064565b611018565b610d66565b610cc4565b610c9d565b6105a5565b610587565b610556565b610529565b610465565b634e487b7160e01b600052603260045260246000fd5b60125481101561021e57600b906012600052027fbb8a6a4669ba250d26cd7a459eca9d215f8307e33aebe50379bc5a3617ec34440190600090565b6101cd565b90600182811c92168015610253575b602083101461023d57565b634e487b7160e01b600052602260045260246000fd5b91607f1691610232565b906000929180549161026e83610223565b9182825260019384811690816000146102d05750600114610290575b50505050565b90919394506000526020928360002092846000945b8386106102bc57505050500101903880808061028a565b8054858701830152940193859082016102a5565b9294505050602093945060ff191683830152151560051b0101903880808061028a565b634e487b7160e01b600052604160045260246000fd5b6040810190811067ffffffffffffffff82111761032557604052565b6102f3565b6020810190811067ffffffffffffffff82111761032557604052565b90601f8019910116810190811067ffffffffffffffff82111761032557604052565b9061038361037c926040519384809261025d565b0383610346565b565b60005b8381106103985750506000910152565b8181015183820152602001610388565b906020916103c181518092818552858086019101610385565b601f01601f1916010190565b99939561041d61044d969f9e9d99936101809d986104619c9660408f6001600160a01b036104076104579f996101a08085528401906103a8565b9516602082015201528d820360608f01526103a8565b9e60808c015260a08b015260c08a015260e089015215156101008801526101208701906001600160a01b03169052565b1515610140850152565b1515610160830152565b0152565b34610524576020366003190112610524576004356012548110156105245761048c906101e3565b506040516104a58161049e818561025d565b0382610346565b6105206104bc60018401546001600160a01b031690565b6002840154906104ce60038601610368565b93600486015495600581015493600682015460078301549060096008850154940154966040519a8b9a8b9560ff8860b01c169960ff8960a81c169960ff6001600160a01b038b60081c169a16986103cd565b0390f35b600080fd5b3461052457600036600319011261052457602047604051908152f35b6001600160a01b0381160361052457565b3461052457602036600319011261052457602061057d60043561057881610545565b612c2c565b6040519015158152f35b34610524576000366003190112610524576020601454604051908152f35b34610524576000366003190112610524576105d76105cb6000546001600160a01b031690565b6001600160a01b031690565b604051907f97f3815a000000000000000000000000000000000000000000000000000000008252602082600481845afa918215610acd57600092610c7c575b50604051917fcfbffe53000000000000000000000000000000000000000000000000000000008352602083600481855afa928315610acd57600093610c5b575b50604051907fab6e844f000000000000000000000000000000000000000000000000000000008252602082600481865afa918215610acd57600092610c3a575b50604051917f14d8d024000000000000000000000000000000000000000000000000000000008352602083600481875afa928315610acd57600093610c19575b50604051927fd1f956b1000000000000000000000000000000000000000000000000000000008452602084600481885afa938415610acd57600094610bf8575b50604051937fe61dfd58000000000000000000000000000000000000000000000000000000008552602085600481895afa948515610acd57600095610bd7575b506040517fe09d394d0000000000000000000000000000000000000000000000000000000081526020816004818a5afa908115610acd57600091610bb8575b506040517f52b06d640000000000000000000000000000000000000000000000000000000081526020816004818b5afa908115610acd57600091610b99575b506040517f013cf08b00000000000000000000000000000000000000000000000000000000815260006004820152916020836024818c5afa928315610acd57600093610b78575b50604051977f5e09dbe70000000000000000000000000000000000000000000000000000000089526020896004818d5afa948515610acd57600499600096610b57575b5060208b6040519b8c80927faa0ddc160000000000000000000000000000000000000000000000000000000082525afa968715610acd5760049a600098610b36575b5060208c6040519c8d80927f640274270000000000000000000000000000000000000000000000000000000082525afa988915610acd5760049b60009a610b15575b5060208d6040519d8e80927f30125cf50000000000000000000000000000000000000000000000000000000082525afa9a8b15610acd578d60049d60009d610af3575b506020906040519e8f80927f24768d910000000000000000000000000000000000000000000000000000000082525afa9c8d15610acd5760009d610ad2575b50604051809e81907f9dc969a80000000000000000000000000000000000000000000000000000000082525a92600491602094fa9d8e15610acd5760009e610a9c575b506109b06118de565b6001600160a01b0390911681529d8e906001600160a01b03166020820152604001906109e491906001600160a01b03169052565b6001600160a01b031660608d01526001600160a01b031660808c01526001600160a01b031660a08b01526001600160a01b031660c08a01526001600160a01b031660e08901526001600160a01b03166101008801526001600160a01b03166101208701526001600160a01b03166101408601526001600160a01b03166101608501526001600160a01b03166101808401526001600160a01b03166101a08301526001600160a01b03166101c082015261001690612891565b610abf919e5060203d602011610ac6575b610ab78183610346565b81019061286d565b9c386109a7565b503d610aad565b612885565b610aec919d5060203d602011610ac657610ab78183610346565b9b38610964565b6020919d50610b0e90823d8411610ac657610ab78183610346565b9c90610925565b610b2f919a5060203d602011610ac657610ab78183610346565b98386108e2565b610b5091985060203d602011610ac657610ab78183610346565b96386108a0565b610b7191965060203d602011610ac657610ab78183610346565b943861085e565b610b9291935060203d602011610ac657610ab78183610346565b913861081b565b610bb2915060203d602011610ac657610ab78183610346565b386107d4565b610bd1915060203d602011610ac657610ab78183610346565b38610795565b610bf191955060203d602011610ac657610ab78183610346565b9338610756565b610c1291945060203d602011610ac657610ab78183610346565b9238610716565b610c3391935060203d602011610ac657610ab78183610346565b91386106d6565b610c5491925060203d602011610ac657610ab78183610346565b9038610696565b610c7591935060203d602011610ac657610ab78183610346565b9138610656565b610c9691925060203d602011610ac657610ab78183610346565b9038610616565b346105245760003660031901126105245760206001600160a01b0360005416604051908152f35b3461052457604036600319011261052457600435602435610ce481610545565b6000198201918211610d2957610d1d60ff91600a610d036020956101e3565b5001906001600160a01b0316600052602052604060002090565b54166040519015158152f35b611da0565b9181601f840112156105245782359167ffffffffffffffff8311610524576020838186019501011161052457565b8015150361052457565b346105245760e03660031901126105245760043560243567ffffffffffffffff811161052457610d9a903690600401610d2e565b604435610da681610545565b606435936001600160e01b031985168086036105245760843560a4359260c43592610dd084610d5c565b610dd933612c2c565b1561100757610df490610ded881515611c74565b1515611cbf565b8315801590610ff5575b610e0790611d0a565b80610ed15750610ecc9593610ec4610016989694610eb07f0454182b30f1740c505634bb66f7f3001e232b3c8797a62b1db11b347a891ff4956001600160a01b0395610e8a610e546118ff565b92610e60368c8e61193b565b84526001600160a01b03881660208501526001600160e01b03198d16604085015215156060840152565b60808201528260a0820152610eab6014546000526013602052604060002090565b611ffc565b60145497889660405195869516988561217d565b0390a36121ab565b601455565b968294610fdb88957f74608b2c8ffedaacf37a0fda8ea5cb94ebae20dc104623eb2fabb1bcec211608946001600160a01b03948a610fcd8e997f2dd3ae6155b13a46b2374a1f42e0733244754e572ec9f0034b698efefa8673a19e610f64610ff09f610f5d610f4d8f610f48601454821115611d55565b611db6565b6000526013602052604060002090565b9283611e19565b8660036001830192610f8c8c85906001600160a01b03166001600160a01b0319825416179055565b835463ffffffff60a01b1916604089901c63ffffffff60a01b1617845588600282015501559060ff60c01b1960ff60c01b835492151560c01b169116179055565b604051968796169986611f02565b0390a360405190151581529081906020820190565b0390a2005b506001600160a01b0385161515610dfe565b600460405163ea8e4eb560e01b8152fd5b34610524576020366003190112610524576004356000198101908111610d295760086110456040926101e3565b50015460ff825191818160a81c161515835260b01c1615156020820152f35b3461052457602036600319011261052457600435611080612ba7565b15611132573330036110ee57801515806110e3575b1561109f57601155005b606460405162461bcd60e51b815260206004820152601660248201527f64616f2e696e76616c69642e70657263656e74616765000000000000000000006044820152fd5b506064811115611095565b606460405162461bcd60e51b815260206004820152600d60248201527f64616f2e66616b652e636f7265000000000000000000000000000000000000006044820152fd5b6004604051634ee2123760e11b8152fd5b346105245760203660031901126105245760043560005260136020526111a06040600020604051906111798261037c818461025d565b600181015490600360028201549101549060ff60405195869560c0875260c08701906103a8565b936001600160a01b03811660208701526001600160e01b03198160401b16604087015260c01c1615156060850152608084015260a08301520390f35b346105245760003660031901126105245760206001600160a01b0360015416604051908152f35b34610524576000366003190112610524576020601254604051908152f35b34610524576020366003190112610524576004356000198101908111610d295761124a906101e3565b50600481015460058201546006830154600784015460089094015460408051948552602085019390935291830152606082019290925260ff60a883901c81161515608083015260b09290921c909116151560a082015260c090f35b346105245760003660031901126105245760206112c0612d76565b604051908152f35b3461052457602080600319360112610524576113476004356112e981610545565b6001600160a01b0380600254169060405192168483015283825261130c82610309565b6040519061131982610309565b601582527f697353656375726542617365286164647265737329000000000000000000000085830152612df8565b9190806113a5575b1561137b5781816113699261052094518301019101612b92565b60405190151581529081906020820190565b60046040517f3204506f000000000000000000000000000000000000000000000000000000008152fd5b508082511461134f565b34610524576040366003190112610524576004356024356113cf81610d5c565b6113d833612c2c565b15611007576113eb601454831115611d55565b6000198201828111610d29577f2dd3ae6155b13a46b2374a1f42e0733244754e572ec9f0034b698efefa8673a1916020916000526013825261144b8160016040600020019060ff60c01b1960ff60c01b835492151560c01b169116179055565b6040519015158152a2005b3461052457602036600319011261052457600435611472612ba7565b15611132576001600160a01b0360055416330361100757600090600460206114a46105cb85546001600160a01b031690565b604051928380927f46f991ac0000000000000000000000000000000000000000000000000000000082525afa8015610acd5783808481949382948391611546575b505af16114f0612dc8565b501561137b577fcdcc745fe377b103b45fa0cec23ae3ef93d6fc6a84a01f0d18c40b354dd1d5d861154061152f6105cb600b546001600160a01b031690565b604051938452929081906020820190565b0390a280f35b61155e915060203d8111610ac657610ab78183610346565b386114e5565b346105245760203660031901126105245760043561158181610545565b803b600061158e8261191f565b9261159c6040519485610346565b82845260208401903c602d8151106115c057602a602091015160601c604051908152f35b60046040517fbaf3f0f7000000000000000000000000000000000000000000000000000000008152fd5b9296959491909361160560a09560c0865260c08601906103a8565b976001600160a01b0380931660208601526040850152166060830152151560808201520152565b34610524576020366003190112610524576004356000198101908111610d2957611655906101e3565b506001600160a01b036105208160018401541692600281015461037c60088301549161168c6009850154946040519384809261025d565b60405196879660ff85169460081c1692876115ea565b34610524576040366003190112610524576004356024356116c281610d5c565b6116ca612ba7565b15611132576116d833612d11565b156110075781151580611831575b6116ef906125d1565b6117006116fb83611db6565b6101e3565b509061173860ff600884015461171782821661261c565b61172e6006860154611727612cb6565b1115612667565b60b01c16156126b2565b61179d611790600a840161177861177361176f6117683385906001600160a01b0316600052602052604060002090565b5460ff1690565b1590565b6126fd565b336001600160a01b0316600052602052604060002090565b805460ff19166001179055565b801561181c57600482016117b181546121ab565b90555b6040519015158152339083907f0def80f9a3b4c7a4251442658ccf516bf33ea4acaf31638fc6da8ebdb0f64c7290602090a3600481015460078201548091109182159261180d575b505061180457005b61001690612748565b600501541015905038806117fc565b6005820161182a81546121ab565b90556117b4565b506012548211156116e6565b346105245760203660031901126105245760043561185a33612c2c565b1561100757801515806118d2575b611871906125d1565b6000198101818111610d29576118886008916101e3565b5001600160b01b60ff60b01b1982546118a760ff8260b01c16156126b2565b161790557f4cf2797951877f41b38931a68643f9249273f32fd396532213aa4f1222c9d16b600080a2005b50601254811115611868565b604051906101e0820182811067ffffffffffffffff82111761032557604052565b6040519060c0820182811067ffffffffffffffff82111761032557604052565b67ffffffffffffffff811161032557601f01601f191660200190565b9291926119478261191f565b916119556040519384610346565b829481845281830111610524578281602093846000960137010152565b346105245760a03660031901126105245767ffffffffffffffff600435818111610524576119a4903690600401610d2e565b6024929192356119b381610545565b606435928311610524573660238401121561052457610520936119e36119f194369060248160040135910161193b565b916084359360443592612475565b6040519081529081906020820190565b3461052457602036600319011261052457602061057d600435611a2381610545565b612d11565b3461052457600036600319011261052457602061057d612ba7565b3461052457608036600319011261052457600480359060243590611a6682610545565b60443567ffffffffffffffff811161052457611a859036908301610d2e565b9092611a8f612ba7565b15611c4957611a9d33612d11565b15611c3957611ab0601454861115611d55565b611abc610f4d86611db6565b91611aea600184015491611ad560ff8460c01c166121ba565b6040966001600160e01b031984891b16612205565b6003840154909490918215611c1c5750805486516001600160a01b03858116602080840191909152825290911692601f19929091611b3f9061176f90611b31604082610346565b611b3961223e565b87612ec4565b611c0e575091611b7c9593918360016105209a979514611bca575b600214611b8b575b50505b600282015493611b7760643593610368565b61235e565b90519081529081906020820190565b87516001600160a01b0393909316602084015260409081018352611bc3929190611bb59083610346565b611bbd6122b0565b90612e73565b3880611b62565b88516001600160a01b03909416602085015292600290611c0690611bf8816040810103858101835282610346565b611c00612277565b85612e73565b939050611b5a565b875163ea8e4eb560e01b8152fd5b611b7c959350610520979492506001600160a01b03915016611b65565b8260405163ea8e4eb560e01b8152fd5b82604051634ee2123760e11b8152fd5b346105245760003660031901126105245760206112c0612cb6565b15611c7b57565b606460405162461bcd60e51b815260206004820152601760248201527f64616f2e74656d706c6174652e656d7074792e646573630000000000000000006044820152fd5b15611cc657565b606460405162461bcd60e51b815260206004820152601a60248201527f64616f2e74656d706c6174652e7a65726f2e73656c6563746f720000000000006044820152fd5b15611d1157565b606460405162461bcd60e51b815260206004820152601860248201527f64616f2e74656d706c6174652e7a65726f2e74617267657400000000000000006044820152fd5b15611d5c57565b606460405162461bcd60e51b815260206004820152601460248201527f64616f2e74656d706c6174652e696e76616c69640000000000000000000000006044820152fd5b634e487b7160e01b600052601160045260246000fd5b600019810191908211610d2957565b90601f8111611dd357505050565b600091825260208220906020601f850160051c83019410611e0f575b601f0160051c01915b828110611e0457505050565b818155600101611df8565b9092508290611def565b90929167ffffffffffffffff811161032557611e3f81611e398454610223565b84611dc5565b6000601f8211600114611e795781929394600092611e6e575b50508160011b916000199060031b1c1916179055565b013590503880611e58565b601f19821694611e8e84600052602060002090565b91805b878110611ec9575083600195969710611eaf575b505050811b019055565b0135600019600384901b60f8161c19169055388080611ea5565b90926020600181928686013581550194019101611e91565b908060209392818452848401376000828201840152601f01601f1916010190565b91611f25606094979695926001600160e01b031992608086526080860191611ee1565b9616602083015260408201520152565b919091825167ffffffffffffffff811161032557611f5781611e398454610223565b602080601f8311600114611f92575081929394600092611f875750508160011b916000199060031b1c1916179055565b015190503880611e58565b90601f19831695611fa885600052602060002090565b926000905b888210611fe457505083600195969710611fcb57505050811b019055565b015160001960f88460031b161c19169055388080611ea5565b80600185968294968601518155019501930190611fad565b908051805167ffffffffffffffff8111610325576120248161201e8654610223565b86611dc5565b6020918290601f8311600114612108579282600395936120ec9360a0966000926120fd575b50508160011b9160001990881b1c19161786555b61209361207760018801928501516001600160a01b031690565b82906001600160a01b03166001600160a01b0319825416179055565b6120cb6120ab60408501516001600160e01b03191690565b825463ffffffff60a01b191660409190911c63ffffffff60a01b16178255565b60608301511515815460ff60c01b191690151560c01b60ff60c01b16179055565b608081015160028501550151910155565b015190503880612049565b90601f1983169161211e87600052602060002090565b9260005b8181106121665750936120ec9360a096936001938360039a981061214e575b505050811b01865561205d565b0151600019838a1b60f8161c19169055388080612141565b929386600181928786015181550195019301612122565b906121a06001600160e01b03199160409497969597606085526060850191611ee1565b951660208201520152565b6000198114610d295760010190565b156121c157565b606460405162461bcd60e51b815260206004820152601560248201527f64616f2e74656d706c6174652e64697361626c656400000000000000000000006044820152fd5b602490836001600160e01b0319959461038394604051978894166020850152848401378101600083820152036004810185520183610346565b6040519061224b82610309565b601582527f69735573657245786973747328616464726573732900000000000000000000006020830152565b6040519061228482610309565b601682527f67657455736572546f496e7374286164647265737329000000000000000000006020830152565b604051906122bd82610309565b601682527f67657455736572546f53746f72286164647265737329000000000000000000006020830152565b6012546801000000000000000081101561032557600181018060125581101561021e57600b906012600052027fbb8a6a4669ba250d26cd7a459eca9d215f8307e33aebe50379bc5a3617ec34440190600090565b81810292918115918404141715610d2957565b9060638201809211610d2957565b92936123a59195929461237a6123726122e9565b509586611f35565b6001850180546001600160a01b0319166001600160a01b038816179055600285015560038401611f35565b60646123c36123be6123b5612d76565b6011549061233d565b612350565b0460078301556123d1612cb6565b908101809111610d29578160099160068694015561242d6008820161179033829074ffffffffffffffffffffffffffffffffffffffff001974ffffffffffffffffffffffffffffffffffffffff0083549260081b169116179055565b01556012546040516001600160a01b03909216825291339183907f336735bcae5ee955b87e8b30bee52920223fa30a865b207ac6d9eee9f19589fb9080602081015b0390a490565b91939061248133612c2c565b15611007576001600160a01b038516156125a7576124e3926124a491369161193b565b926124b86124b06122e9565b509485611f35565b6001840180546001600160a01b0319166001600160a01b038716179055600284015560038301611f35565b60646124f36123be6123b5612d76565b046007820155612501612cb6565b928301809311610d2957600992600682015561255b6008820161179033829074ffffffffffffffffffffffffffffffffffffffff001974ffffffffffffffffffffffffffffffffffffffff0083549260081b169116179055565b6103e792018290556012546040516001600160a01b03909216825291339183907f336735bcae5ee955b87e8b30bee52920223fa30a865b207ac6d9eee9f19589fb90806020810161246f565b60046040517fe6c4247b000000000000000000000000000000000000000000000000000000008152fd5b156125d857565b606460405162461bcd60e51b815260206004820152600e60248201527f64616f2e696e76616c69642e69640000000000000000000000000000000000006044820152fd5b1561262357565b606460405162461bcd60e51b815260206004820152601160248201527f64616f2e70726f702e6e6f7465786973740000000000000000000000000000006044820152fd5b1561266e57565b606460405162461bcd60e51b815260206004820152601060248201527f64616f2e766f74696e672e656e646564000000000000000000000000000000006044820152fd5b156126b957565b606460405162461bcd60e51b815260206004820152601560248201527f64616f2e616c72656164792e636f6d706c6574656400000000000000000000006044820152fd5b1561270457565b606460405162461bcd60e51b815260206004820152601160248201527f64616f2e616c72656164792e766f7465640000000000000000000000000000006044820152fd5b7f948f4a9cd986f1118c3fbd459f7a22b23c0693e1ca3ef06a6a8be5aa7d39cc0361280f61136961277b6116fb85611db6565b5060088101805460ff60b01b1916600160b01b178155906127f160048201546007830154811015908161285f575b5083547fffffffffffffffffffff00ffffffffffffffffffffffffffffffffffffffffff1690151560a81b75ff00000000000000000000000000000000000000000016178355565b815460a81c60ff168061284a575b612814575b505460a81c60ff1690565b0390a2565b8061282c60016128439301546001600160a01b031690565b61283d600360028401549301610368565b90612f70565b5038612804565b506128586003820154610223565b15156127ff565b9050600583015410386127a9565b90816020910312610524575161288281610545565b90565b6040513d6000823e3d90fd5b612b766101c0610383926128cb6128af82516001600160a01b031690565b6001600160a01b03166001600160a01b03196002541617600255565b6128fe6128e260208301516001600160a01b031690565b6001600160a01b03166001600160a01b03196003541617600355565b61293161291560408301516001600160a01b031690565b6001600160a01b03166001600160a01b03196004541617600455565b61296461294860608301516001600160a01b031690565b6001600160a01b03166001600160a01b03196005541617600555565b61299761297b60808301516001600160a01b031690565b6001600160a01b03166001600160a01b03196006541617600655565b6129ca6129ae60a08301516001600160a01b031690565b6001600160a01b03166001600160a01b03196007541617600755565b6129fd6129e160c08301516001600160a01b031690565b6001600160a01b03166001600160a01b03196008541617600855565b612a30612a1460e08301516001600160a01b031690565b6001600160a01b03166001600160a01b03196009541617600955565b612a64612a486101008301516001600160a01b031690565b6001600160a01b03166001600160a01b0319600a541617600a55565b612a98612a7c6101208301516001600160a01b031690565b6001600160a01b03166001600160a01b0319600b541617600b55565b612acc612ab06101408301516001600160a01b031690565b6001600160a01b03166001600160a01b0319600c541617600c55565b612b00612ae46101608301516001600160a01b031690565b6001600160a01b03166001600160a01b0319600d541617600d55565b612b34612b186101808301516001600160a01b031690565b6001600160a01b03166001600160a01b0319600e541617600e55565b612b68612b4c6101a08301516001600160a01b031690565b6001600160a01b03166001600160a01b0319600f541617600f55565b01516001600160a01b031690565b6001600160a01b03166001600160a01b03196010541617601055565b90816020910312610524575161288281610d5c565b612c026001600160a01b0360025416604051612bc281610309565b600881527f6973536166652829000000000000000000000000000000000000000000000000602082015260405191612bf98361032a565b60008352612df8565b9080612c21575b1561137b578060208061288293518301019101612b92565b506020815114612c09565b612c8f6001600160a01b038060025416604051916020941684830152838252612c5482610309565b60405190612c6182610309565b601182527f69735369676e657228616464726573732900000000000000000000000000000085830152612df8565b9080612cac575b1561137b57816128829282518301019101612b92565b5081815114612c96565b6128826001600160a01b0360035416604051612cd181610309565b600681527f6941676528290000000000000000000000000000000000000000000000000000602082015260405191612d088361032a565b60008352612f00565b612882906001600160a01b038060065416906040519216602083015260208252612d3a82610309565b60405190612d4782610309565b601882527f697364656c656761746f724e6f646528616464726573732900000000000000006020830152612ec4565b6128826001600160a01b0360065416604051612d9181610309565b601381527f67657464656c656761746f72436f756e74282900000000000000000000000000602082015260405191612d088361032a565b3d15612df3573d90612dd98261191f565b91612de76040519384610346565b82523d6000602084013e565b606090565b803b15612e5a576000926001600160e01b03198360208695519101201690612e4a6024604051809360208201958652612e3a8151809260208686019101610385565b8101036004810184520182610346565b51915afa612e56612dc8565b9091565b505050600090604051612e6c8161032a565b6000815290565b9291612e8191600094612df8565b9080612eb9575b612e8f5750565b9091506020818051810103126105245760206001600160a01b03910151612eb581610545565b1690565b506020815114612e88565b9291612ed291600094612df8565b9080612ef5575b612ee05750565b61288291925060208082518301019101612b92565b506020815114612ed9565b9291612f0e91600094612df8565b9080612f33575b612f1c5750565b909150602081805181010312610524576020015190565b506020815114612f15565b90602082519201516001600160e01b0319908181169360048110612f6157505050565b60040360031b82901b16169150565b9190916001600160a01b038116156125a757600091829184519160208601915af190612f9a612dc8565b9115612fa4575090565b80516000919060041161300857612fbb9150612f3e565b815115612fcb5750805190602001fd5b6040517f21c09d340000000000000000000000000000000000000000000000000000000081526001600160e01b0319919091166004820152602490fd5b50612fbb56fea2646970667358221220aefca20f53cbd247c3a0e1838f87246a3a77a828b7c99820746a1056d8fd539564736f6c634300081400336080346200009e57601f62005ad838819003918201601f19168301916001600160401b03831184841017620000a3578084926020946040528339810103126200009e57516001600160a01b038116908190036200009e5780156200008c5760018060a01b03193381600154161760015560005416176000556001601155604051615a1e9081620000ba8239f35b60405163e6c4247b60e01b8152600490fd5b600080fd5b634e487b7160e01b600052604160045260246000fdfe60806040526004361015610018575b361561001657005b005b60003560e01c8063033eeffb146103985780630e5fd00b146103935780631157a8491461038e57806312065fe01461038957806313508e371461038457806313cf3d551461037f5780631bb49f021461037a5780631c53c280146103755780631f185d16146103705780632a687c871461036b5780632bbae52e146103665780632fefc0bf1461036157806332ff4eab1461035c578063339459a61461035757806333b59a5b146103525780633a7b55b81461034d5780633b9b7955146103485780633baee0ea14610343578063419cb27b1461033e57806342cc9d5714610339578063445850971461033457806344668f231461032f5780634f0f4aa91461032a578063509222cd1461032557806350db85d11461032057806361ea72081461031b578063629d671e1461031657806365d2fbd3146103115780636a8112441461030c5780636b90905b146103075780636fb412ab1461030257806376fe6c45146102fd5780637818cdd7146102f857806380f85e33146102f3578063849c22ad146102ee578063896c354a146102e95780638da5cb5b146102e457806395f72f49146102df57806398b3f215146102da578063a1f7f539146102d5578063a89d693b146102d0578063af484526146102cb578063b1c49079146102c6578063b366335e146102c1578063b90306ad146102bc578063c43792e3146102b7578063c54e44b0146102b2578063c871372b146102ad578063d1e0bbc6146102a8578063dcb3fc4a146102a3578063e01ad5fd1461029e578063e0a9bc2b14610299578063eb95c66214610294578063f3ca71241461028f578063fd38093b1461028a5763fdc10bc90361000e576134f7565b613487565b61345b565b61342f565b613414565b613349565b6131ca565b613190565b613112565b61308c565b613060565b612f52565b612edc565b612dbf565b612d8e565b612c6f565b612bcb565b612b9f565b612b29565b612b02565b612ac2565b612a93565b612a59565b612a00565b6128e2565b61274c565b61260f565b6121f3565b611d8f565b611d51565b611d33565b611c0a565b611bb6565b611ad1565b611ab3565b611a7b565b611a4c565b611a18565b61158c565b61153d565b6113d1565b6111ca565b610af3565b610a7d565b610a45565b6109fc565b61095f565b610878565b610843565b6107de565b61056c565b610523565b610507565b61042a565b6103da565b346103c45760203660031901126103c45760043560005260196020526020604060002054604051908152f35b600080fd5b6001600160a01b038116036103c457565b346103c45760203660031901126103c45760206004356103f9816103c9565b6001600160a01b03809116600052601282526040600020546000526015825260046040600020015416604051908152f35b346103c45760203660031901126103c457600435610446613783565b600090808252601560205261046460ff60016040852001541661408c565b338252601260205261047b6040832054821461408c565b808252601e60205260ff600160408420015416156104c3576104aa6104b691600052601e602052604060002090565b60016000918281550155565b6104c06001601155565b80f35b606460405162461bcd60e51b815260206004820152601360248201527f6e65737465642e7265712e6e6f746578697374000000000000000000000000006044820152fd5b346103c45760003660031901126103c457602047604051908152f35b346103c45760203660031901126103c457600435600052601e6020526060604060002060ff600182549201546040519283528181161515602084015260081c1615156040820152f35b346103c4576020806003193601126103c457600490813561058b613783565b6105b46105af60016105a7846000526015602052604060002090565b015460ff1690565b613eff565b6105f16105ea6105de6105d1846000526013602052604060002090565b546001600160a01b031690565b6001600160a01b031690565b331461408c565b816106076105de6000546001600160a01b031690565b6040519485809263111ea8c160e21b82525afa9283156107d9576000936107aa575b506106876106656106476105d1846000526013602052604060002090565b6040519182918683019190916001600160a01b036020820193169052565b0394610679601f19968781018452836129bd565b6106816140f8565b90615857565b906001600160a01b0382161515806107a0575b6106a9575b6100166001601155565b6107969361073461072261072e6106e060046106d2610791976000526015602052604060002090565b01546001600160a01b031690565b6040517f4fb2e45d00000000000000000000000000000000000000000000000000000000898201526001600160a01b0390911660248201529182906044820190565b038481018352826129bd565b84615923565b507fa3e884b000000000000000000000000000000000000000000000000000000000604051948501528361078560248201906007606060808401936000815260006020820152600060408201520152565b039081018452836129bd565b615923565b503880808061069f565b508131151561069a565b6107cb919350823d84116107d2575b6107c381836129bd565b8101906140d7565b9138610629565b503d6107b9565b6140ec565b346103c45760203660031901126103c4576004356107fb816103c9565b6001600160a01b0390811660009081526012602090815260408083205483526015825280832060020154808452601383529281902054815193845290931690820152f35b0390f35b346103c45760203660031901126103c457600435600052601360205260206001600160a01b0360406000205416604051908152f35b346103c4576020806003193601126103c4576108f7600435610899816103c9565b6001600160a01b038060025416906040519216848301528382526108bc82612969565b604051906108c982612969565b601182527f69735369676e657228616464726573732900000000000000000000000000000085830152615815565b919080610955575b1561092b5781816109199261083f945183010191016155b1565b60405190151581529081906020820190565b60046040517f3204506f000000000000000000000000000000000000000000000000000000008152fd5b50808251146108ff565b346103c45760403660031901126103c45760243561097b6155c9565b156109eb576109893361564e565b80156109d7575b156109c657600090808252601a60205260408220549060043582018092116109c1578252601a602052604082205580f35b613752565b600460405163ea8e4eb560e01b8152fd5b50336001600160a01b036005541614610990565b6004604051634ee2123760e11b8152fd5b346103c45760203660031901126103c457600480356000908152601560209081526040918290209283015460059093015482516001600160a01b03948516815293169083015290f35b346103c45760203660031901126103c457600435600052601560205260206001600160a01b0360056040600020015416604051908152f35b346103c45760403660031901126103c457602435610a996155c9565b156109eb57610aa73361564e565b8015610adf575b156109c657600090808252601d60205260408220549060043582018092116109c1578252601d602052604082205580f35b50336001600160a01b036005541614610aae565b346103c45760003660031901126103c457610b196105de6000546001600160a01b031690565b604051907f97f3815a000000000000000000000000000000000000000000000000000000008252602082600481845afa9182156107d9576000926111a9575b50604051917fcfbffe53000000000000000000000000000000000000000000000000000000008352602083600481855afa9283156107d957600093611188575b50604051907fab6e844f000000000000000000000000000000000000000000000000000000008252602082600481865afa9182156107d957600092611167575b50604051917f14d8d024000000000000000000000000000000000000000000000000000000008352602083600481875afa9283156107d957600093611146575b50604051927fd1f956b1000000000000000000000000000000000000000000000000000000008452602084600481885afa9384156107d957600094611125575b50604051937fe61dfd58000000000000000000000000000000000000000000000000000000008552602085600481895afa9485156107d957600095611104575b506040517fe09d394d0000000000000000000000000000000000000000000000000000000081526020816004818a5afa9081156107d9576000916110e5575b506040517f52b06d640000000000000000000000000000000000000000000000000000000081526020816004818b5afa9081156107d9576000916110c6575b506040517f013cf08b00000000000000000000000000000000000000000000000000000000815260006004820152916020836024818c5afa9283156107d9576000936110a5575b50604051977f5e09dbe70000000000000000000000000000000000000000000000000000000089526020896004818d5afa9485156107d957600499600096611084575b5060208b6040519b8c80927faa0ddc160000000000000000000000000000000000000000000000000000000082525afa9687156107d95760049a600098611063575b5060208c6040519c8d80927f640274270000000000000000000000000000000000000000000000000000000082525afa9889156107d95760049b60009a611042575b5060208d6040519d8e80927f30125cf50000000000000000000000000000000000000000000000000000000082525afa9a8b156107d9578d60049d60009d611020575b506020906040519e8f80927f24768d910000000000000000000000000000000000000000000000000000000082525afa9c8d156107d95760009d610fff575b50604051809e81907f9dc969a80000000000000000000000000000000000000000000000000000000082525a92600491602094fa9d8e156107d95760009e610fde575b50610ef26129df565b6001600160a01b0390911681529d8e906001600160a01b0316602082015260400190610f2691906001600160a01b03169052565b6001600160a01b031660608d01526001600160a01b031660808c01526001600160a01b031660a08b01526001600160a01b031660c08a01526001600160a01b031660e08901526001600160a01b03166101008801526001600160a01b03166101208701526001600160a01b03166101408601526001600160a01b03166101608501526001600160a01b03166101808401526001600160a01b03166101a08301526001600160a01b03166101c0820152610016906152b0565b610ff8919e5060203d6020116107d2576107c381836129bd565b9c38610ee9565b611019919d5060203d6020116107d2576107c381836129bd565b9b38610ea6565b6020919d5061103b90823d84116107d2576107c381836129bd565b9c90610e67565b61105c919a5060203d6020116107d2576107c381836129bd565b9838610e24565b61107d91985060203d6020116107d2576107c381836129bd565b9638610de2565b61109e91965060203d6020116107d2576107c381836129bd565b9438610da0565b6110bf91935060203d6020116107d2576107c381836129bd565b9138610d5d565b6110df915060203d6020116107d2576107c381836129bd565b38610d16565b6110fe915060203d6020116107d2576107c381836129bd565b38610cd7565b61111e91955060203d6020116107d2576107c381836129bd565b9338610c98565b61113f91945060203d6020116107d2576107c381836129bd565b9238610c58565b61116091935060203d6020116107d2576107c381836129bd565b9138610c18565b61118191925060203d6020116107d2576107c381836129bd565b9038610bd8565b6111a291935060203d6020116107d2576107c381836129bd565b9138610b98565b6111c391925060203d6020116107d2576107c381836129bd565b9038610b58565b346103c4576040806003193601126103c4576024356111e76155c9565b15611393576111f53361564e565b801561137f575b1561136f576000916112186105de84546001600160a01b031690565b8151809163111ea8c160e21b825281600460209485935afa9081156107d9578591611352575b5084916004355b85811115611251578680f35b8451828101828152819003808252601f19916112829161127490602001826129bd565b61127c61523e565b866158e3565b61129683600052601a602052604060002090565b55875b600881106112b15750506112ac90613a6b565b611245565b8651848101848152602081018390526112e891906112da908290604001038581018352826129bd565b6112e2615277565b876158e3565b8115611326575b906113219161131b8261130c876000526016602052604060002090565b90600052602052604060002090565b55613a6b565b611299565b95906113356113219288613864565b61134985600052601d602052604060002090565b559050856112ef565b6113699150823d84116107d2576107c381836129bd565b3861123e565b6004825163ea8e4eb560e01b8152fd5b50336001600160a01b0360055416146111fc565b60048251634ee2123760e11b8152fd5b60e0810192916000915b600783106113ba57505050565b6001908251815260208091019201920191906113ad565b346103c45760203660031901126103c45761083f60043561152b61151b604051926113fb84612985565b60e0368537611427611417826000526017602052604060002090565b6001600052602052604060002090565b548452611451611441826000526017602052604060002090565b6002600052602052604060002090565b54602085015261147e61146e826000526017602052604060002090565b6003600052602052604060002090565b5460408501526114ab61149b826000526017602052604060002090565b6004600052602052604060002090565b5460608501526114d86114c8826000526017602052604060002090565b6005600052602052604060002090565b5460808501526115056114f5826000526017602052604060002090565b6006600052602052604060002090565b5460a08501526000526017602052604060002090565b6007600052602052604060002090565b5460c0820152604051918291826113a3565b346103c45760003660031901126103c45760206001600160a01b0360005416604051908152f35b60409060031901126103c45760043561157c816103c9565b90602435611589816103c9565b90565b346103c45761159a36611564565b6115a2613783565b61083f6115ed6115c16115b3613541565b6115bb613559565b33615857565b61160d6115d76115cf613541565b6115bb613592565b6001600160a01b039386851693851684146135cb565b836116056105de82600054166001600160a01b031690565b911614613616565b611618811515613fab565b611635846001600160a01b03166000526012602052604060002090565b54158015611a0d575b61164790613ff6565b61166f611667866001600160a01b03166000526012602052604060002090565b541515614041565b6116a560056106d2611694886001600160a01b03166000526012602052604060002090565b546000526015602052604060002090565b6040517f880cdc310000000000000000000000000000000000000000000000000000000060208201526001600160a01b03861660248201529092906116fe9080604481015b0394610791601f19968781018452836129bd565b506117276105de60046106d26116948a6001600160a01b03166000526012602052604060002090565b61199a575b611749866001600160a01b03166000526012602052604060002090565b54611767866001600160a01b03166000526012602052604060002090565b556117b88561179d61178c896001600160a01b03166000526012602052604060002090565b546000526013602052604060002090565b906001600160a01b03166001600160a01b0319825416179055565b6117fa3360046117de611694896001600160a01b03166000526012602052604060002090565b01906001600160a01b03166001600160a01b0319825416179055565b851614159081611975575b611822846001600160a01b03166000526012602052604060002090565b549361183d60056106d2876000526015602052604060002090565b9561186c6105d1600261185a896000526015602052604060002090565b01546000526013602052604060002090565b931561190d576107916118d79361188b6009546001600160a01b031690565b6040517fe3d1d5bf0000000000000000000000000000000000000000000000000000000060208201526001600160a01b0394851660248201529490931660448501528360648101610785565b505b6118e36001601155565b60405193849384916040919493606084019584526001600160a01b03809216602085015216910152565b610785915061079161196f9361192b6009546001600160a01b031690565b6040517f9498d88b0000000000000000000000000000000000000000000000000000000060208201526001600160a01b039094166024850152929384906044820190565b506118d9565b6000611994866001600160a01b03166000526012602052604060002090565b55611805565b611a076119c260046106d26116948a6001600160a01b03166000526012602052604060002090565b6040517f0399c93c0000000000000000000000000000000000000000000000000000000060208201523360248201529061079182604481015b038781018452836129bd565b5061172c565b50848216811461163e565b346103c45760203660031901126103c4576004356000526015602052602060ff600160406000200154166040519015158152f35b346103c45760203660031901126103c45760043560005260156020526020600360406000200154604051908152f35b346103c45760203660031901126103c457600435600052601560205260206001600160a01b0360046040600020015416604051908152f35b346103c45760003660031901126103c4576020601f54604051908152f35b346103c45760203660031901126103c457600435806000526015602052604060002054601360205261083f6001600160a01b0380604060002054169360156020526040600020916004600284015493015416611b3c60056106d2846000526015602052604060002090565b906003611b6c611b5b60016105a7876000526015602052604060002090565b946000526015602052604060002090565b01549360405197889788939160c09591989796939260e086019986526001600160a01b03938480931660208801526040870152166060850152166080830152151560a08201520152565b346103c45760203660031901126103c4576001600160a01b03600435611bdb816103c9565b1660005260126020526040600020546000526015602052602060ff600160406000200154166040519015158152f35b346103c457611c1836611564565b90611c216155c9565b156109eb57611c2f3361564e565b8015611d1f575b156109c65781611c4d91611c48613783565b613a7a565b806000526015602052611cf1611cdd611ceb611c9b6001600160a01b03958660056040600020015416966040519116602082015260208152611c8e81612969565b611c966137be565b6158a8565b6040517f654c668e0000000000000000000000000000000000000000000000000000000060208201526024810191909152600060448201529182906064820190565b03601f1981018352826129bd565b83615923565b50611cfb81613f4a565b611d056001601155565b604080519182526001600160a01b03929092166020820152f35b50336001600160a01b036005541614611c36565b346103c45760003660031901126103c4576020601454604051908152f35b346103c45760203660031901126103c4576001600160a01b03600435611d76816103c9565b1660005260126020526020604060002054604051908152f35b346103c45760203660031901126103c457600435611dab613783565b6001611dc86105af826105a7856000526015602052604060002090565b611df0611de8336001600160a01b03166000526012602052604060002090565b54831461408c565b611e0482600052601e602052604060002090565b908082019160ff8354611e18828216614330565b60081c1661204a5750600290611e4582611e3c866000526015602052604060002090565b015415156143c6565b6000815b611f1f575b505080611eb9846001600160a01b03611e9160056106d2600097611e7f61069f9b6000526015602052604060002090565b01546000526015602052604060002090565b16611eca575b8454611ea99060081c60ff168261445e565b6000526015602052604060002090565b0155805461ff001916610100179055565b611f19611eea60056106d286611e7f866000526015602052604060002090565b604051636f58dd0f60e11b6020820152600060248201529061079182604481015b03601f1981018452836129bd565b50611e97565b600380611f3a85611e7f896000526015602052604060002090565b01548210156120445785611f74611f6a8484611f6489611e7f876000526015602052604060002090565b01613dbe565b90549060031b1c90565b14611f895750611f8390613a6b565b81611e49565b8392509461203a8661201c611eb994612003611fe9611f6a61069f9c611fbf60009c611e7f8b6000526015602052604060002090565b01611fe387611fdc8d611e7f8d6000526015602052604060002090565b0154613855565b90613dbe565b9184611f648a611e7f8a6000526015602052604060002090565b90919082549060031b91821b91600019901b1916179055565b61203485611e7f856000526015602052604060002090565b01614411565b9450819250611e4e565b50611e4e565b8391506120ef6120e96104aa9461207b6002612073612121996000526015602052604060002090565b01541561437b565b6120b58560036120af875480600261209d866000526015602052604060002090565b01556000526015602052604060002090565b01613ddb565b83546001600160a01b036120d860056106d2846000526015602052604060002090565b166121ab575b505460081c60ff1690565b8361445e565b61210b6105de60046106d2856000526015602052604060002090565b612126575b50600052601e602052604060002090565b61069f565b611f0b6121a4916107916121616105d161214f60046106d2896000526015602052604060002090565b93546000526013602052604060002090565b6040517f1499c5920000000000000000000000000000000000000000000000000000000060208201526001600160a01b0390911660248201529283906044820190565b5038612110565b6121c760056106d26121ec936000526015602052604060002090565b604051636f58dd0f60e11b602082015260016024820152906107918260448101611f0b565b50386120de565b346103c4576040806003193601126103c457600435612210613783565b61222c6105af60016105a7846000526015602052604060002090565b61225261224b6105de60046106d2856000526015602052604060002090565b3314614239565b61225a613827565b61083f61010061227960056106d2856000526015602052604060002090565b61239d601f549486805193826122e06122d26020977f02a085f20000000000000000000000000000000000000000000000000000000089820152806116ea60249d8e803590840160209093929193604081019481520152565b8780825183010191016147d9565b988951926122f3888c0194855190613776565b978b6123048782019a8b5190613776565b6123146060830191825190613776565b906123256080840192835190613776565b97868a8961233960a088019c8d5190613776565b9661235261234d60c08301998a5190613776565b6151e4565b888151612593575b5050909150825161251a575b50505080516124a9575b50805161243f575b506123868651825190613776565b6123c2575b5050505050505060e08601519061490a565b51920151926123ac6001601155565b5191825260208201929092529081906040820190565b6124329663a9059cbb60e01b966107919561240d610785946124036105d16123f2600f546001600160a01b031690565b9b6000526013602052604060002090565b9351905190613776565b92519889958601528401602090939291936001600160a01b0360408201951681520152565b508638828180808061238b565b6124a2906124556010546001600160a01b031690565b61079161246f6105d18a6000526013602052604060002090565b92518b5163a9059cbb60e01b888201526001600160a01b03909416898501908152602081019190915283906040016119fb565b5038612378565b612513906124bf600c546001600160a01b031690565b6107916124d96105d18b6000526013602052604060002090565b92518c5163a9059cbb60e01b898201526001600160a01b039094168a850190815260208101919091528390604001038881018452836129bd565b5038612370565b61079161258a9361257e61254d6105d161253c600e546001600160a01b031690565b956000526013602052604060002090565b9151945194859263a9059cbb60e01b8c8501528d8401602090939291936001600160a01b0360408201951681520152565b038981018452836129bd565b50388988612366565b6125f763a9059cbb60e01b9461079193612603976125d06105d16125bf600d546001600160a01b031690565b986000526013602052604060002090565b915192519788958601528401602090939291936001600160a01b0360408201951681520152565b038a81018452836129bd565b508f8a8989928861235a565b346103c45760403660031901126103c45760043560243561262e6155c9565b156109eb5761263c3361564e565b8015612738575b156109c65761270a61069f92612657613783565b8060005260156020526126766105af600160406000200160ff90541690565b61269761269260016105a7866000526015602052604060002090565b61429a565b6126fa6126f06126e16126b960056106d2886000526015602052604060002090565b604051906126d382611f0b60208201906000602083019252565b6126db6136ac565b9061575a565b602080825183010191016136e5565b5050501515613707565b600052601e602052604060002090565b90600182019161272a612725612721855460ff1690565b1590565b6142e5565b55805460ff19166001179055565b50336001600160a01b036005541614612643565b346103c45760403660031901126103c45760043560243561276b613783565b6127876105af60016105a7856000526015602052604060002090565b6127a46105ea6105de6105d1856000526013602052604060002090565b6127d66127c060056106d2856000526015602052604060002090565b6127c8614131565b6127d061352e565b9161575a565b90806127ec60209384808251830101910161416a565b10156127fc576100166001601155565b826128d36001600160a01b03927ff526f68a00000000000000000000000000000000000000000000000000000000946128c76128ac6105d161289761288961286d61285960056106d26128d99f6000526015602052604060002090565b976040519182918983019190602083019252565b0397612881601f19998a81018452836129bd565b6126db614179565b8580825183010191016141b2565b99925050506000526013602052604060002090565b6128b4613541565b90604051988994850152602484016141fd565b039081018552846129bd565b16615923565b5038808061069f565b346103c45760203660031901126103c4576020600435612901816103c9565b6001600160a01b03809116600052601282526040600020546000526015825260056040600020015416604051908152f35b634e487b7160e01b600052604160045260246000fd5b6060810190811067ffffffffffffffff82111761296457604052565b612932565b6040810190811067ffffffffffffffff82111761296457604052565b60e0810190811067ffffffffffffffff82111761296457604052565b6020810190811067ffffffffffffffff82111761296457604052565b90601f8019910116810190811067ffffffffffffffff82111761296457604052565b604051906101e0820182811067ffffffffffffffff82111761296457604052565b346103c4576101003660031901126103c45736604312156103c457604051612a2781612985565b610104813682116103c4576024905b828210612a495761001684600435614ee8565b8135815260209182019101612a36565b346103c45760403660031901126103c457600435600052601660205260406000206024356000526020526020604060002054604051908152f35b346103c45760203660031901126103c45760043560005260156020526020600260406000200154604051908152f35b346103c45760403660031901126103c45760043560005260156020526020612af36024356003604060002001613dbe565b90549060031b1c604051908152f35b346103c45760003660031901126103c45760206001600160a01b0360015416604051908152f35b346103c45760403660031901126103c457602435612b456155c9565b156109eb57612b533361564e565b8015612b8b575b156109c657600090808252601c60205260408220549060043582018092116109c1578252601c602052604082205580f35b50336001600160a01b036005541614612b5a565b346103c45760203660031901126103c457600435600052601d6020526020604060002054604051908152f35b346103c45760003660031901126103c4576020612c386001600160a01b0360065416604051612bf981612969565b601381527f67657464656c656761746f72436f756e742829000000000000000000000000008482015260405191612c2f836129a1565b600083526158e3565b604051908152f35b610100810192916000915b60088310612c5857505050565b600190825181526020809101920192019190612c4b565b346103c45760203660031901126103c45761083f600435612d7c61151b612c94615167565b92612cbb612cac826000526016602052604060002090565b60008052602052604060002090565b548452612cd5611417826000526016602052604060002090565b546020850152612cf2611441826000526016602052604060002090565b546040850152612d0f61146e826000526016602052604060002090565b546060850152612d2c61149b826000526016602052604060002090565b546080850152612d496114c8826000526016602052604060002090565b5460a0850152612d666114f5826000526016602052604060002090565b5460c08501526000526016602052604060002090565b5460e082015260405191829182612c40565b346103c45760203660031901126103c4576020612db5600435612db0816103c9565b61564e565b6040519015158152f35b346103c457612e8c612dd036611564565b90612dd9613783565b612e22612de76115b3613541565b612df26115cf613541565b90612e0b6001600160a01b0391828088169116146135cb565b6116056105de82600054166001600160a01b031690565b612e4f612e4a60016105a7611694856001600160a01b03166000526012602052604060002090565b613661565b612e7d6126f06126e16126b960056106d2611694876001600160a01b03166000526012602052604060002090565b612e856137f7565b3390613c8c565b612ea5612cac601f546000526016602052604060002090565b612eaf8154613768565b9055612eb9615210565b612ed260056106d2836000526015602052604060002090565b90611cfb81613f4a565b346103c45760203660031901126103c457612ef56155c9565b156109eb57612f033361564e565b8015612f3e575b156109c657612f176156d8565b601f5410612f2e575b610016600435601f54613871565b612f366156d8565b601f55612f20565b50336001600160a01b036005541614612f0a565b346103c45760203660031901126103c457600435612f6e6155c9565b156109eb576001600160a01b036005541633036109c65760009060046020612fa06105de85546001600160a01b031690565b604051928380927f46f991ac0000000000000000000000000000000000000000000000000000000082525afa80156107d95783808481949382948391613042575b505af1612fec61572a565b501561092b577fcdcc745fe377b103b45fa0cec23ae3ef93d6fc6a84a01f0d18c40b354dd1d5d861303c61302b6105de600b546001600160a01b031690565b604051938452929081906020820190565b0390a280f35b61305a915060203d81116107d2576107c381836129bd565b38612fe1565b346103c45760203660031901126103c457600435600052601b6020526020604060002054604051908152f35b346103c45760203660031901126103c4576004356130a9816103c9565b803b60006130b682613512565b926130c460405194856129bd565b82845260208401903c602d8151106130e857602a602091015160601c604051908152f35b60046040517fbaf3f0f7000000000000000000000000000000000000000000000000000000008152fd5b60403660031901126103c457600435613129613783565b600090808252601560205261314760ff600160408520015416613eff565b815260156020526131876001600160a01b036005604084200154166040519062a0e53360e51b602083015260243560248301526024825261079182612948565b50600160115580f35b346103c45760403660031901126103c457600435600052601860205260406000206024356000526020526020604060002054604051908152f35b346103c45760c03660031901126103c45761069f6004356024356131ed816103c9565b606435916132ed6132de60843593613203613783565b61321f6105af60016105a7876000526015602052604060002090565b61323e61224b6105de60046106d2886000526015602052604060002090565b613246613827565b61324f8561518c565b613258866151b8565b61327160056106d2866000526015602052604060002090565b601f546040517fa66303040000000000000000000000000000000000000000000000000000000060208201526001600160a01b039093166024840152604480359084015260648301889052608483019690965260a480359083015260c48201959095528060e481016116ea565b60208082518301019101614284565b92816132fb575b5050614c2c565b6133419161079161078592613318600b546001600160a01b031690565b60405163a9059cbb60e01b60208201523360248201526044810194909452929384906064820190565b5038806132f4565b346103c4576020806003193601126103c45761083f906004359061336c826103c9565b6133d06001600160a01b039283600654169360405191168382015282815261339381612969565b60405161339f81612969565b601881527f697364656c656761746f724e6f6465286164647265737329000000000000000084820152600094615815565b91908061340a575b6133f1575b505060405190151581529081906020820190565b613403925080825183010191016155b1565b38806133dd565b50808251146133d8565b346103c45760003660031901126103c4576020612db56155c9565b346103c45760203660031901126103c457600435600052601a6020526020604060002054604051908152f35b346103c45760203660031901126103c457600435600052601c6020526020604060002054604051908152f35b346103c4576040806003193601126103c4576001600160a01b036004356134ad816103c9565b166000818152601260208181528483205483526019815284832054938352908152838220548252601881528382206024358352815290839020549251918252810191909152604090f35b346103c45760003660031901126103c4576020612c386156d8565b67ffffffffffffffff811161296457601f01601f191660200190565b6040519061353b826129a1565b60008252565b60405161354d816129a1565b60008152906000368137565b6040519061356682612969565b600782527f6f776e65722829000000000000000000000000000000000000000000000000006020830152565b6040519061359f82612969565b600c82527f67657448657862617365282900000000000000000000000000000000000000006020830152565b156135d257565b606460405162461bcd60e51b815260206004820152601760248201527f6e65737465642e696e76616c69642e696e7374616e63650000000000000000006044820152fd5b1561361d57565b606460405162461bcd60e51b815260206004820152601660248201527f6e65737465642e696e76616c69642e68657862617365000000000000000000006044820152fd5b1561366857565b606460405162461bcd60e51b815260206004820152601860248201527f6e65737465642e706172656e742e6e6f742e65786973747300000000000000006044820152fd5b604051906136b982612969565b601282527f6765744e6f64654c422875696e743235362900000000000000000000000000006020830152565b91908260809103126103c4578151916020810151916060604083015192015190565b1561370e57565b606460405162461bcd60e51b815260206004820152601960248201527f6e65737465642e706172656e742e6e6f2e627573696e657373000000000000006044820152fd5b634e487b7160e01b600052601160045260246000fd5b90600182018092116109c157565b919082018092116109c157565b600260115414613794576002601155565b60046040517f3ee5aeb5000000000000000000000000000000000000000000000000000000008152fd5b604051906137cb82612969565b601d82527f55736572546f5769746864726177446f6c6c61722861646472657373290000006020830152565b6137ff6156d8565b601f5410613817575b6138156005601f54613871565b565b61381f6156d8565b601f55613808565b61382f6156d8565b601f5410613845575b6138156002601f54613871565b61384d6156d8565b601f55613838565b6000198101919082116109c157565b919082039182116109c157565b90613889612cac836000526016602052604060002090565b541580613a16575b80613a0d575b61389f575050565b6138bb906138b56138af84613855565b91613855565b90613871565b6138da612cac6138ca83613855565b6000526016602052604060002090565b546138f2612cac836000526016602052604060002090565b556139026114176138ca83613855565b5461391a611417836000526016602052604060002090565b5561392a6114416138ca83613855565b54613942611441836000526016602052604060002090565b5561395261146e6138ca83613855565b5461396a61146e836000526016602052604060002090565b5561397a61149b6138ca83613855565b5461399261149b836000526016602052604060002090565b556139a26114c86138ca83613855565b546139ba6114c8836000526016602052604060002090565b556139ca6114f56138ca83613855565b546139e26114f5836000526016602052604060002090565b55613a0a61151b6139f861151b6138ca85613855565b54926000526016602052604060002090565b55565b50801515613897565b5060018211613891565b15613a2757565b606460405162461bcd60e51b815260206004820152601560248201527f6e65737465642e616c72656164792e65786973747300000000000000000000006044820152fd5b60001981146109c15760010190565b90613aab613aa661272160016105a7611694866001600160a01b03166000526012602052604060002090565b613a20565b613abe613ab9601454613a6b565b601455565b613b1560145492613add8361179d866000526013602052604060002090565b83613afb846001600160a01b03166000526012602052604060002090565b556001600160a01b03166000526012602052604060002090565b5490613b218383613e03565b613b4b6004613b3a856000526015602052604060002090565b016001600160a01b03198154169055565b613b7e613b68613b636008546001600160a01b031690565b613d28565b60056117de866000526015602052604060002090565b613c09613b9a60056106d2866000526015602052604060002090565b91613bb06105de6000546001600160a01b031690565b6040517f52902c590000000000000000000000000000000000000000000000000000000060208201526001600160a01b0391821660248201529116604482015260648082018690528152601f19926107916084836129bd565b5081151580613c62575b613c1c57505090565b613c3860056106d2613c5e946000526015602052604060002090565b604051636f58dd0f60e11b60208201526001602482015291610791908360448101610785565b5090565b506001600160a01b03613c8460056106d2856000526015602052604060002090565b161515613c13565b91613cb8613aa661272160016105a7611694866001600160a01b03166000526012602052604060002090565b613cc6613ab9601454613a6b565b613b4b613d0660145494613ce88461179d886000526013602052604060002090565b85613afb856001600160a01b03166000526012602052604060002090565b5492613d128585613e03565b60046117de866000526015602052604060002090565b6e5af43d82803e903d91602b57fd5bf390763d602d80600a3d3981f3363d3d373d3d3d363d7300000062ffffff8260881c161760005260781b17602052603760096000f0906001600160a01b03821615613d7e57565b60046040517fb06ebf3d000000000000000000000000000000000000000000000000000000008152fd5b634e487b7160e01b600052603260045260246000fd5b8054821015613dd65760005260206000200190600090565b613da8565b9081549168010000000000000000831015612964578261200391600161381595018155613dbe565b91909160009280845260209160158352604080862095600294838689015584600198613e388a8201600160ff19825416179055565b5587613e4e866000526018602052604060002090565b83805282528489858520555b613e6957505050505050509050565b613ed7613ec6828b8a9414613ee0575b613e8d886000526018602052604060002090565b8187528552868620613e9f8154613768565b9055613eb5886000526019602052604060002090565b613ebf8154613768565b9055613a6b565b956000526015602052604060002090565b01549384613e5a565b613efa8960036120af8b6000526015602052604060002090565b613e79565b15613f0657565b606460405162461bcd60e51b815260206004820152601560248201527f6e65737465642e757365722e6e6f7461637469766500000000000000000000006044820152fd5b806000526015602052613f6760ff60016040600020015416613eff565b6000526015602052613fa86001600160a01b03600560406000200154166040519062a0e53360e51b6020830152600160248301526024825261079182612948565b50565b15613fb257565b606460405162461bcd60e51b815260206004820152601360248201527f6e65737465642e7a65726f2e61646472657373000000000000000000000000006044820152fd5b15613ffd57565b606460405162461bcd60e51b815260206004820152601460248201527f6e65737465642e7461726765742e6578697374730000000000000000000000006044820152fd5b1561404857565b606460405162461bcd60e51b815260206004820152601760248201527f6e65737465642e736f757263652e6e6f744578697374730000000000000000006044820152fd5b1561409357565b606460405162461bcd60e51b815260206004820152601560248201527f6e65737465642e696e76616c69642e73656e64657200000000000000000000006044820152fd5b908160209103126103c45751611589816103c9565b6040513d6000823e3d90fd5b6040519061410582612969565b601382527f55736572546f496e7374286164647265737329000000000000000000000000006020830152565b6040519061413e82612969565b600b82527f6d696e74436f756e7428290000000000000000000000000000000000000000006020830152565b908160209103126103c4575190565b6040519061418682612969565b600e82527f6d696e74732875696e74323536290000000000000000000000000000000000006020830152565b91908260809103126103c45781519160208101519160606040830151920151611589816103c9565b60005b8381106141ed5750506000910152565b81810151838201526020016141dd565b90916001600160a01b036060931682526040602083015261422d81518092816040860152602086860191016141da565b601f01601f1916010190565b1561424057565b606460405162461bcd60e51b815260206004820152601b60248201527f6e65737465642e757365722e696e76616c6964696e7374616e636500000000006044820152fd5b91908260409103126103c4576020825192015190565b156142a157565b606460405162461bcd60e51b815260206004820152601560248201527f6e65737465642e696e76616c69642e706172656e7400000000000000000000006044820152fd5b156142ec57565b606460405162461bcd60e51b815260206004820152601760248201527f6e65737465642e7265712e616c726561647965786973740000000000000000006044820152fd5b1561433757565b606460405162461bcd60e51b815260206004820152601460248201527f6e65737465642e7265712e6e6f746578697374730000000000000000000000006044820152fd5b1561438257565b606460405162461bcd60e51b815260206004820152601860248201527f6e65737465642e757365722e6e6f742e646574616368656400000000000000006044820152fd5b156143cd57565b606460405162461bcd60e51b815260206004820152601c60248201527f6e65737465642e757365722e616c72656164792e6465746163686564000000006044820152fd5b805490811561443b576000199182019161442b8383613dbe565b909182549160031b1b1916905555565b634e487b7160e01b600052603160045260246000fd5b80156109c1576000190190565b9061447c614476836000526019602052604060002090565b54613768565b9160029081614495826000526015602052604060002090565b0154906001938492835b6144ad575b50505050505050565b600f80851115806147d0575b156147ca57859060056144dd6105de826106d2876000526015602052604060002090565b61450a575b50506144fb614503926000526015602052604060002090565b015493613a6b565b928561449f565b865b82811115614605575050506144fb61450392846000146145a25761455461453d876000526018602052604060002090565b61454689613855565b600052602052604060002090565b546145786145708961130c856000526018602052604060002090565b918254613776565b905561458e816000526019602052604060002090565b6145998b8254613776565b90555b926144e2565b6145b961453d876000526018602052604060002090565b546145dd6145d58961130c856000526018602052604060002090565b918254613864565b90556145f3816000526019602052604060002090565b6145fe8b8254613864565b905561459c565b90919250614621826106d2886000526015602052604060002090565b61462b8883613864565b6040918761466d61465f85518061464b6020978883019190602083019252565b03946126d3601f19968781018452836129bd565b8480825183010191016136e5565b50509290878a8215806147c2575b6147b1579261470394926107856146a8610791946106d26147109b9a986000526015602052604060002090565b94601f9a8c8c5491519889957f7b058ac1000000000000000000000000000000000000000000000000000000008d8801526024870193909594919260809360a086019786526020860152604085015260608401521515910152565b8051810182019101614284565b908715614767575b8082116147345750505061472b90613a6b565b9087929161450c565b61473d90613a6b565b6147568161130c85546000526016602052604060002090565b6147608154613768565b9055614718565b9190915b82811161477e5750505061472b90613a6b565b8061479b6147ac9261130c85546000526016602052604060002090565b6147a58154613855565b9055614451565b61476b565b505050505050505061472b90613a6b565b50851561467b565b506144a4565b508115156144b9565b9061012080838303126103c45781601f840112156103c4576040519281840184811067ffffffffffffffff82111761296457604052839181019283116103c457905b8282106148285750505090565b815181526020918201910161481b565b6040519061484582612969565b600f82527f66726565496e74657276616c73282900000000000000000000000000000000006020830152565b6040519061487e82612969565b601582527f67657452616e6b5769746841676556616c7565282900000000000000000000006020830152565b604051906148b782612969565b601382527f72616e6b436c617573652875696e7432353629000000000000000000000000006020830152565b908160a09103126103c4578051916020820151916040810151916080606083015192015190565b91909160039261493b61492485546001600160a01b031690565b61492c613541565b90614935614838565b906158e3565b9360008092819082948392849185985b600f8a111580614c23575b15614c155760056149786105de826106d2856000526015602052604060002090565b6149a5575b50600261499761499f926000526015602052604060002090565b015499613a6b565b9861494b565b8c6149c96149c1836106d2866000526015602052604060002090565b6127c8614871565b8c6149de602092838082518301019101614284565b829591951580614bac575b1580614ba3575b8015614b9b575b614a06575b505050505061497d565b869e8697929394959603614ada575b50614a97928b6107918c611f0b614a41614a9d99976106d2614a8a986000526015602052604060002090565b93601f9a8b5460405197889563208bffb160e21b8c8801526024870193909594919260a09360c08601978652600060208701526040860152606085015260808401521515910152565b805181018201910161416a565b92613768565b80831015614ab857509098905060028c61499f8c38806149fc565b80613eb5614ad59261130c85546000526016602052604060002090565b614a9d565b9193929a50508a8511614b2d575b509087918c86861080801591614b04575b50159a929193614a15565b89881015915081614b25575b5080614b1d575b38614af9565b508815614b17565b905038614b10565b995095509350859250614b7c614b6e614b4d8b546001600160a01b031690565b60405190614b6682611f0b888c83019190602083019252565b6126db6148aa565b8680825183010191016148e3565b969350909691509594614b92859b601f54613864565b11969091614ae8565b5060006149f7565b508a15156149f0565b99509b50955095509a50614bf5614be7838d614b66614bd28f546001600160a01b031690565b60405192830193845291928390602001611f0b565b8c80825183010191016148e3565b9e9350909791509695849b859e614c0e82601f54613864565b11996149e9565b505050505050505050509050565b50801515614956565b90929192614c456149246003546001600160a01b031690565b93600091829083809481938280985b600f8a111580614edf575b15614c1557614c806105de60056106d2846000526015602052604060002090565b614ca4575b6002614997614c9e926000526015602052604060002090565b98614c54565b8b8a614cc56132de6149c160056106d2876000526015602052604060002090565b8293919315614e82575b82151580614e79575b8015614e70575b614ced575b50505050614c85565b938394819d8d949503614dba575b50614d8192614a97926107918c611f0b8f614d2860056106d2614d72996000526015602052604060002090565b94601f9a8b549060405198899663208bffb160e21b60208901526024880194919260a0949197969360c0870198875260208701526040860152606085015260808401521515910152565b6020808251830101910161416a565b80831015614d9857509098905060028a8d38614ce4565b80613eb5614db59261130c85546000526016602052604060002090565b614d81565b935050509750828211614e0c575b50898c878b86851080801591614de3575b50159a9291614cfb565b89871015915081614e04575b5080614dfc575b38614dd9565b508815614df6565b905038614def565b935093505050614e53614e44614e2a6003546001600160a01b031690565b60405190614b6682611f0b88602083019190602083019252565b602080825183010191016148e3565b9350909391509291614e688592601f54613864565b119338614dc8565b508b1515614cdf565b50891515614cd8565b97505050935097505050614ebe614e44614ea46003546001600160a01b031690565b60405190614b6682611f0b87602083019190602083019252565b999350909391509291818a8d829b614ed889601f54613864565b1197614ccf565b50801515614c5f565b614ef06155c9565b156109eb57614efe3361564e565b8015614ffd575b156109c657614f126137f7565b614f1d811515615011565b614f3a614f326003546001600160a01b031690565b6127c861505c565b614f4e602091828082518301019101615095565b90614f6383600052601a602052604060002090565b549060005b60078110614f7857505050505050565b80614f86614fe99288615112565b518015614ff757614f978287615112565b51848151928315614fee57614fbe614fc392614fb6614fc9968b615134565b940151615123565b615134565b90615147565b61131b614fe0886000526017602052604060002090565b61454684613768565b614f68565b50505050613a6b565b50613a6b565b50336001600160a01b036005541614614f05565b1561501857565b606460405162461bcd60e51b815260206004820152601260248201527f6e65737465642e696e76616c69642e61676500000000000000000000000000006044820152fd5b6040519061506982612969565b601882527f6765744261746368526f79616c7479436c6175736573282900000000000000006020830152565b6102a09081818403126103c45782601f820112156103c45760408051936150bb85612985565b84938301928184116103c457935b8385106150d857505050505090565b6060858303126103c45782516060916150f082612948565b86518252602091828801518382015285880151868201528152019401936150c9565b906007811015613dd65760051b0190565b90816064029160648304036109c157565b818102929181159184041417156109c157565b8115615151570490565b634e487b7160e01b600052601260045260246000fd5b6040519061010080830183811067ffffffffffffffff82111761296457604052368337565b601f5480600052601a6020526040600020549182018092116109c157600052601a602052604060002055565b601f5480600052601b6020526040600020549182018092116109c157600052601b602052604060002055565b601f5480600052601c6020526040600020549182018092116109c157600052601c602052604060002055565b601f5480600052601d60205260406000205490600182018092116109c157600052601d602052604060002055565b6040519061524b82612969565b601482527f676574627573696e6573732875696e74323536290000000000000000000000006020830152565b6040519061528482612969565b601d82527f67657472616e6b436f756e742875696e743235362c75696e74323536290000006020830152565b6155956101c0613815926152ea6152ce82516001600160a01b031690565b6001600160a01b03166001600160a01b03196002541617600255565b61531d61530160208301516001600160a01b031690565b6001600160a01b03166001600160a01b03196003541617600355565b61535061533460408301516001600160a01b031690565b6001600160a01b03166001600160a01b03196004541617600455565b61538361536760608301516001600160a01b031690565b6001600160a01b03166001600160a01b03196005541617600555565b6153b661539a60808301516001600160a01b031690565b6001600160a01b03166001600160a01b03196006541617600655565b6153e96153cd60a08301516001600160a01b031690565b6001600160a01b03166001600160a01b03196007541617600755565b61541c61540060c08301516001600160a01b031690565b6001600160a01b03166001600160a01b03196008541617600855565b61544f61543360e08301516001600160a01b031690565b6001600160a01b03166001600160a01b03196009541617600955565b6154836154676101008301516001600160a01b031690565b6001600160a01b03166001600160a01b0319600a541617600a55565b6154b761549b6101208301516001600160a01b031690565b6001600160a01b03166001600160a01b0319600b541617600b55565b6154eb6154cf6101408301516001600160a01b031690565b6001600160a01b03166001600160a01b0319600c541617600c55565b61551f6155036101608301516001600160a01b031690565b6001600160a01b03166001600160a01b0319600d541617600d55565b6155536155376101808301516001600160a01b031690565b6001600160a01b03166001600160a01b0319600e541617600e55565b61558761556b6101a08301516001600160a01b031690565b6001600160a01b03166001600160a01b0319600f541617600f55565b01516001600160a01b031690565b6001600160a01b03166001600160a01b03196010541617601055565b908160209103126103c4575180151581036103c45790565b6156246001600160a01b03600254166040516155e481612969565b600881527f697353616665282900000000000000000000000000000000000000000000000060208201526040519161561b836129a1565b60008352615815565b9080615643575b1561092b5780602080611589935183010191016155b1565b50602081511461562b565b6156b16001600160a01b03806002541660405191602094168483015283825261567682612969565b6040519061568382612969565b601582527f697353656375726542617365286164647265737329000000000000000000000085830152615815565b90806156ce575b1561092b578161158992825183010191016155b1565b50818151146156b8565b6115896001600160a01b03600354166040516156f381612969565b600681527f6941676528290000000000000000000000000000000000000000000000000000602082015260405191612c2f836129a1565b3d15615755573d9061573b82613512565b9161574960405193846129bd565b82523d6000602084013e565b606090565b906157659291615815565b9060009015615772575090565b6040519150615780826129a1565b815290565b732b835614fcaa301ddfb6e49896e898e272a67795803b156157fc576000926001600160e01b031983602086955191012016906157ec60246040518093602082019586526157dc81518092602086860191016141da565b81010360048101845201826129bd565b51915afa6157f861572a565b9091565b50505060009060405161580e816129a1565b6000815290565b803b156157fc576000926001600160e01b031983602086955191012016906157ec60246040518093602082019586526157dc81518092602086860191016141da565b929161586591600094615815565b908061589d575b6158735750565b9091506020818051810103126103c45760206001600160a01b03910151615899816103c9565b1690565b50602081511461586c565b600092916158b591615785565b90806158d8575b6158c35750565b6115899192506020808251830101910161416a565b5060208151146158bc565b92916158b591600094615815565b90602082519201516001600160e01b031990818116936004811061591457505050565b60040360031b82901b16169150565b6001600160a01b038116156159be57600080918351908260208601915af19061594a61572a565b9115615954575090565b8051600091906004116159b85761596b91506158f1565b81511561597b5750805190602001fd5b6040517f21c09d340000000000000000000000000000000000000000000000000000000081526001600160e01b0319919091166004820152602490fd5b5061596b565b60046040517fe6c4247b000000000000000000000000000000000000000000000000000000008152fdfea264697066735822122062564a8cdd3869aa4d549b91eab52581918aa28345aa27ef0eb0cd8ac1f9306664736f6c63430008140033","linkReferences":{}},"methodIdentifiers":{"dAOAssembly()":"14837455","daocore()":"14d8d024","nested741()":"45cff900","old741()":"5540c5ac","price()":"a035b1fe"},"id":80}