{"abi":[{"type":"constructor","inputs":[{"name":"_hex","type":"address","internalType":"address"}],"stateMutability":"nonpayable"},{"type":"function","name":"invalidator","inputs":[],"outputs":[{"name":"","type":"address","internalType":"address"}],"stateMutability":"view"},{"type":"function","name":"rule741","inputs":[],"outputs":[{"name":"","type":"address","internalType":"address"}],"stateMutability":"view"},{"type":"function","name":"transferRequest","inputs":[],"outputs":[{"name":"","type":"address","internalType":"address"}],"stateMutability":"view"}],"bytecode":{"object":"0x6080346200018657601f6200a2db38819003918201601f19168301926001600160401b0392909183851183861017620001705781602092849260409788528339810103126200018657516001600160a01b0390818116908190036200018657835190614d82918281019281841086851117620001705762005559823981835260208160009403019083f0938415620001665782549484166001600160a01b03199586161783558551612d1180820190828210848311176200015257602091839162000298833985815203019084f08015620001485784168560015416176001558551916125b08084019284841090841117620001345791839160209362002fa98439815203019082f0908115620001295750169060025416176002555161010c90816200018c8239f35b8451903d90823e3d90fd5b634e487b7160e01b85526041600452602485fd5b86513d85823e3d90fd5b634e487b7160e01b86526041600452602486fd5b85513d84823e3d90fd5b634e487b7160e01b600052604160045260246000fd5b600080fdfe6080806040526004361015601257600080fd5b600090813560e01c9081630a5b38ab1460a4575080633da8676f146072576352b06d6414603e57600080fd5b34606f5780600319360112606f57602073ffffffffffffffffffffffffffffffffffffffff60025416604051908152f35b80fd5b5034606f5780600319360112606f57602073ffffffffffffffffffffffffffffffffffffffff60015416604051908152f35b90503460d2578160031936011260d25773ffffffffffffffffffffffffffffffffffffffff60209254168152f35b5080fdfea264697066735822122013ec1a3ce820db4f268fe20bf3cc0aedad481edca234f57cfb7fcd13b8cc6fa864736f6c634300081400336080346200009e57601f62002d1138819003918201601f19168301916001600160401b03831184841017620000a3578084926020946040528339810103126200009e57516001600160a01b038116908190036200009e5780156200008c5760018060a01b03193381600154161760015560005416176000556001601155604051612c579081620000ba8239f35b60405163e6c4247b60e01b8152600490fd5b600080fd5b634e487b7160e01b600052604160045260246000fdfe60806040526004361015610018575b361561001657005b005b60003560e01c806312065fe0146101b857806318c864e3146101b35780631f185d16146101ae578063339459a6146101a95780633676bd1f146101a45780633b9b79551461019f578063479fa2c31461019a5780634ef260a9146101955780638da5cb5b146101905780639932f81e1461018b5780639fb3953b14610186578063a1f7f53914610181578063ab7e46ae1461017c578063ac23334514610177578063af48452614610172578063b8f1759a1461016d578063b90306ad14610168578063c1e6cec214610163578063c54e44b01461015e578063cab3cc8d14610159578063e01ad5fd14610154578063e0a9bc2b1461014f578063e846034a1461014a578063e981bcad14610145578063f245fe7a146101405763fdc10bc90361000e57611b23565b6114c5565b611426565b611408565b61136f565b6112a4565b611286565b611200565b6111c2565b611097565b61103d565b61100c565b610fd4565b610f7a565b610ece565b610d4e565b610b3b565b610b14565b610a52565b610969565b610942565b610917565b610396565b6102af565b61022e565b346101d45760003660031901126101d457602047604051908152f35b600080fd5b634e487b7160e01b600052603260045260246000fd5b60135481101561022957601360005260021b7f66de8ffda797e3de9c05e8fc57b3bf0ec28a930d40b0d285d93c06501cf6a0900190600090565b6101d9565b346101d45760203660031901126101d4576004356013548110156101d457610255906101ef565b50805460018201546002830154600390930154604080516001600160a01b0394851681529390921660208401529082019290925260ff90911615156060820152608090f35b0390f35b6001600160a01b038116036101d457565b346101d4576020806003193601126101d45761032e6004356102d08161029e565b6001600160a01b038060025416906040519216848301528382526102f382611bf0565b6040519061030082611bf0565b601182527f69735369676e657228616464726573732900000000000000000000000000000085830152612a04565b91908061038c575b156103625781816103509261029a9451830101910161290b565b60405190151581529081906020820190565b60046040517f3204506f000000000000000000000000000000000000000000000000000000008152fd5b5080825114610336565b346101d45760003660031901126101d4576103c86103bc6000546001600160a01b031690565b6001600160a01b031690565b60405190634bf9c0ad60e11b8252602082600481845afa918215610747576000926108f6575b506040519163cfbffe5360e01b8352602083600481855afa928315610747576000936108d5575b506040519063ab6e844f60e01b8252602082600481865afa918215610747576000926108b4575b5060405191630536340960e21b8352602083600481875afa92831561074757600093610893575b506040519263d1f956b160e01b8452602084600481885afa93841561074757600094610872575b5060405193631cc3bfab60e31b8552602085600481895afa94851561074757600095610851575b5060405163e09d394d60e01b81526020816004818a5afa90811561074757600091610832575b506040516314ac1b5960e21b81526020816004818b5afa90811561074757600091610813575b5060405163013cf08b60e01b815260006004820152916020836024818c5afa928315610747576000936107f2575b5060405197635e09dbe760e01b89526020896004818d5afa948515610747576004996000966107d1575b5060208b6040519b8c8092635506ee0b60e11b82525afa9687156107475760049a6000986107b0575b5060208c6040519c8d8092636402742760e01b82525afa9889156107475760049b60009a61078f575b5060208d6040519d8e80926330125cf560e01b82525afa9a8b15610747578d60049d60009d61076d575b506020906040519e8f80926324768d9160e01b82525afa9c8d156107475760009d61074c575b50604051809e81906313b92d3560e31b82525a92600491602094fa9d8e156107475760009e610716575b5061062a611c4a565b6001600160a01b0390911681529d8e906001600160a01b031660208201526040019061065e91906001600160a01b03169052565b6001600160a01b031660608d01526001600160a01b031660808c01526001600160a01b031660a08b01526001600160a01b031660c08a01526001600160a01b031660e08901526001600160a01b03166101008801526001600160a01b03166101208701526001600160a01b03166101408601526001600160a01b03166101608501526001600160a01b03166101808401526001600160a01b03166101a08301526001600160a01b03166101c082015261001690612608565b610739919e5060203d602011610740575b6107318183611c28565b810190611c9f565b9c38610621565b503d610727565b611cb7565b610766919d5060203d602011610740576107318183611c28565b9b386105f7565b6020919d5061078890823d8411610740576107318183611c28565b9c906105d1565b6107a9919a5060203d602011610740576107318183611c28565b98386105a7565b6107ca91985060203d602011610740576107318183611c28565b963861057e565b6107eb91965060203d602011610740576107318183611c28565b9438610555565b61080c91935060203d602011610740576107318183611c28565b913861052b565b61082c915060203d602011610740576107318183611c28565b386104fd565b61084b915060203d602011610740576107318183611c28565b386104d7565b61086b91955060203d602011610740576107318183611c28565b93386104b1565b61088c91945060203d602011610740576107318183611c28565b923861048a565b6108ad91935060203d602011610740576107318183611c28565b9138610463565b6108ce91925060203d602011610740576107318183611c28565b903861043c565b6108ef91935060203d602011610740576107318183611c28565b9138610415565b61091091925060203d602011610740576107318183611c28565b90386103ee565b346101d45760203660031901126101d457610930612506565b61093b600435612205565b6001601155005b346101d45760003660031901126101d45760206001600160a01b0360005416604051908152f35b346101d45760203660031901126101d45760043580151580610a46575b15610a025761099761099c91611db8565b6101ef565b5080546001600160a01b031661029a6109bf60018401546001600160a01b031690565b926109d36003600283015492015460ff1690565b604080516001600160a01b03958616815295909416602086015292840152901515606083015281906080820190565b606460405162461bcd60e51b815260206004820152601760248201527f70726f706f7365722e696e76616c69642e666f726d69640000000000000000006044820152fd5b50601354811115610986565b346101d45760203660031901126101d457600435610a6f8161029e565b6001600160a01b03809116906000918083526012602052604083205480151580610b08575b610a9c578380f35b6000198101908111610b0357610ab1906101ef565b5050808352601260205282604081205560145468010000000000000000811015610afe57806001610ae59201601455610f43565b909283549160031b92831b921b19161790553880808380f35b611b87565b611da2565b50601354811115610a94565b346101d45760003660031901126101d45760206001600160a01b0360015416604051908152f35b346101d45760603660031901126101d457600435610b588161029e565b602435610b648161029e565b6001600160a01b039182811615610d2457600092821683526020601281526040842054610ce057600490610bb7610b99611b9d565b509384906001600160a01b03166001600160a01b0319825416179055565b610bdb600184019485906001600160a01b03166001600160a01b0319825416179055565b610be3611c87565b9080610bf96103bc88546001600160a01b031690565b60405194858092630536340960e21b82525afa91821561074757610c66610c8693610c79926002968a92610cbd575b50610c74906040519384917fffa734f00000000000000000000000000000000000000000000000000000000088840152604435903060248501611ce6565b03601f198101845283611c28565b612b6e565b8051810182019101611d93565b910155610cb9610ca060135492546001600160a01b031690565b6001600160a01b03166000526012602052604060002090565b5580f35b610c74919250610cd990863d8811610740576107318183611c28565b9190610c28565b6064906040519062461bcd60e51b82526004820152601260248201527f70726f706f7365722e746f2e65786973747300000000000000000000000000006044820152fd5b60046040517fe6c4247b000000000000000000000000000000000000000000000000000000008152fd5b60803660031901126101d457600435610d668161029e565b610d6e612506565b6004546001600160a01b031660046020610d936103bc6000546001600160a01b031690565b604051928380927fde433f170000000000000000000000000000000000000000000000000000000082525afa90811561074757610e1691610df491600091610eb0575b50604080516001600160a01b03909216602083015290918291820190565b0392610e08601f1994858101845283611c28565b610e106125cf565b90612a97565b6001600160a01b038116610e2f575b6100166001601155565b610c74610e9b92610ea7946040519485917fc107930a00000000000000000000000000000000000000000000000000000000602084015260643590604435906024359060248601909493926060926001600160a01b036080840197168352602083015260408201520152565b03908101845283611c28565b50388080610e25565b610ec8915060203d8111610740576107318183611c28565b38610dd6565b346101d45760003660031901126101d4576020610f3b6001600160a01b0360065416604051610efc81611bf0565b601381527f67657464656c656761746f72436f756e742829000000000000000000000000008482015260405191610f3283611c0c565b60008352612ae8565b604051908152f35b6014548110156102295760146000527fce6d7b5282bd9a3661ae061feed1dbda4e52ab073b1f9285be6e155d9c38d4ec0190600090565b346101d45760203660031901126101d4576004356014548110156101d4576001600160a01b0360209160146000527fce6d7b5282bd9a3661ae061feed1dbda4e52ab073b1f9285be6e155d9c38d4ec015416604051908152f35b346101d45760203660031901126101d4576020610ffb600435610ff68161029e565b611e2e565b6001600160a01b0360405191168152f35b346101d45760203660031901126101d457602061103360043561102e8161029e565b61291f565b6040519015158152f35b346101d45760203660031901126101d457600435601454811015610229576001600160a01b0360209160146000527fce6d7b5282bd9a3661ae061feed1dbda4e52ab073b1f9285be6e155d9c38d4ec015416604051908152f35b346101d45760203660031901126101d4576004356001600160a01b0360055416330361119857600090600460206110d86103bc85546001600160a01b031690565b604051928380927f46f991ac0000000000000000000000000000000000000000000000000000000082525afa8015610747578380848194938294839161117a575b505af16111246129a9565b5015610362577fcdcc745fe377b103b45fa0cec23ae3ef93d6fc6a84a01f0d18c40b354dd1d5d86111746111636103bc600b546001600160a01b031690565b604051938452929081906020820190565b0390a280f35b611192915060203d8111610740576107318183611c28565b38611119565b60046040517fea8e4eb5000000000000000000000000000000000000000000000000000000008152fd5b346101d45760203660031901126101d4576001600160a01b036004356111e78161029e565b1660005260126020526020604060002054604051908152f35b346101d45760203660031901126101d45760043561121d8161029e565b803b600061122a82611c6b565b926112386040519485611c28565b82845260208401903c602d81511061125c57602a602091015160601c604051908152f35b60046040517fbaf3f0f7000000000000000000000000000000000000000000000000000000008152fd5b346101d45760003660031901126101d4576020601354604051908152f35b346101d4576020806003193601126101d45761029a90600435906112c78261029e565b61132b6001600160a01b03928360065416936040519116838201528281526112ee81611bf0565b6040516112fa81611bf0565b601881527f697364656c656761746f724e6f6465286164647265737329000000000000000084820152600094612a04565b919080611365575b61134c575b505060405190151581529081906020820190565b61135e9250808251830101910161290b565b3880611338565b5080825114611333565b346101d45760003660031901126101d4576113db6001600160a01b036002541660405161139b81611bf0565b600881527f69735361666528290000000000000000000000000000000000000000000000006020820152604051916113d283611c0c565b60008352612a04565b90806113fd575b15610362576103508160208061029a9451830101910161290b565b5060208151146113e2565b346101d45760003660031901126101d4576020601454604051908152f35b346101d45760403660031901126101d45761143f612506565b61145061144b3061291f565b611fa5565b6001600160a01b03600454166040517f33b59a5b0000000000000000000000000000000000000000000000000000000060208201526004356024820152602435604482015260448152608081019181831067ffffffffffffffff841117610afe576114bd92604052612b6e565b506001601155005b346101d457600080600319360112611b20576114df612506565b6114f36103bc82546001600160a01b031690565b604090815191828092634bf9c0ad60e11b8252602093849160049687915afa908115610747578591611b03575b5061155982517f339459a600000000000000000000000000000000000000000000000000000000928386830152868252610c7482611bf0565b5083836115706103bc88546001600160a01b031690565b8451928380927fd3d1b0960000000000000000000000000000000000000000000000000000000082525afa8015610747576115c1918791611ae6575b508351908386830152868252610c7482611bf0565b5083836115d86103bc88546001600160a01b031690565b84519283809263ab6e844f60e01b82525afa80156107475761160f918791611ae657508351908386830152868252610c7482611bf0565b5083836116266103bc88546001600160a01b031690565b84519283809263cfbffe5360e01b82525afa80156107475761165d918791611ae657508351908386830152868252610c7482611bf0565b5083836116746103bc88546001600160a01b031690565b845192838092630536340960e21b82525afa8015610747576116ab918791611ae657508351908386830152868252610c7482611bf0565b5083836116c26103bc88546001600160a01b031690565b84519283809263d1f956b160e01b82525afa8015610747576116f9918791611ae657508351908386830152868252610c7482611bf0565b5083836117106103bc88546001600160a01b031690565b845192838092631cc3bfab60e31b82525afa801561074757611747918791611ae657508351908386830152868252610c7482611bf0565b50838361175e6103bc88546001600160a01b031690565b84519283809263e09d394d60e01b82525afa801561074757611795918791611ae657508351908386830152868252610c7482611bf0565b5083836117ac6103bc88546001600160a01b031690565b8451928380926314ac1b5960e21b82525afa8015610747576117e3918791611ae657508351908386830152868252610c7482611bf0565b506117f86103bc86546001600160a01b031690565b838351809263013cf08b60e01b8252818061181a8a8201906000602083019252565b03915afa801561074757611843918791611ae657508351908386830152868252610c7482611bf0565b506118586103bc86546001600160a01b031690565b9083835180937fb771c89600000000000000000000000000000000000000000000000000000000825281806118948a8201906000602083019252565b03915afa9182156107475785926118c1918891611ac9575b508451908387830152848252610c7482611bf0565b50836118d76103bc88546001600160a01b031690565b845193848092635e09dbe760e01b82525afa918215610747578592611911918891611ac957508451908387830152848252610c7482611bf0565b50836119276103bc88546001600160a01b031690565b845193848092635506ee0b60e11b82525afa918215610747578592611961918891611ac957508451908387830152848252610c7482611bf0565b50836119776103bc88546001600160a01b031690565b845193848092636402742760e01b82525afa9182156107475785926119b1918891611ac957508451908387830152848252610c7482611bf0565b50836119c76103bc88546001600160a01b031690565b8451938480926330125cf560e01b82525afa918215610747578592611a01918891611ac957508451908387830152848252610c7482611bf0565b5083611a176103bc88546001600160a01b031690565b8451938480926324768d9160e01b82525afa918215610747578592611a51918891611ac957508451908387830152848252610c7482611bf0565b5083611a676103bc88546001600160a01b031690565b8451968780926313b92d3560e31b82525afa92831561074757611a9c958794611aaa575b5051938401528252610c7482611bf0565b50611aa76001601155565b80f35b611ac2919450853d8711610740576107318183611c28565b9238611a8b565b611ae09150863d8811610740576107318183611c28565b386118ac565b611afd9150853d8711610740576107318183611c28565b386115ac565b611b1a9150833d8511610740576107318183611c28565b38611520565b80fd5b346101d45760003660031901126101d4576020610f3b6001600160a01b0360035416604051611b5181611bf0565b600681527f69416765282900000000000000000000000000000000000000000000000000008482015260405191610f3283611c0c565b634e487b7160e01b600052604160045260246000fd5b60135468010000000000000000811015610afe57600181018060135581101561022957601360005260021b7f66de8ffda797e3de9c05e8fc57b3bf0ec28a930d40b0d285d93c06501cf6a0900190600090565b6040810190811067ffffffffffffffff821117610afe57604052565b6020810190811067ffffffffffffffff821117610afe57604052565b90601f8019910116810190811067ffffffffffffffff821117610afe57604052565b604051906101e0820182811067ffffffffffffffff821117610afe57604052565b67ffffffffffffffff8111610afe57601f01601f191660200190565b604051611c9381611c0c565b60008152906000368137565b908160209103126101d45751611cb48161029e565b90565b6040513d6000823e3d90fd5b60005b838110611cd65750506000910152565b8181015183820152602001611cc6565b6000926001600160a01b0360a09396959660c08452602660c08501527f547269676765722e496e7374616e63652e70726f706f73616c2e55736572547260e08501527f616e73666572000000000000000000000000000000000000000000000000000061010085015216602083015283604083015261012080606084015281518091840152611d7f816101409360208587019101611cc3565b601f80199101168201019460808201520152565b908160209103126101d4575190565b634e487b7160e01b600052601160045260246000fd5b600019810191908211610b0357565b60405190611dd482611bf0565b601282527f6765745374617475732875696e743235362900000000000000000000000000006020830152565b519081151582036101d457565b91908260409103126101d457611cb46020611e2784611e00565b9301611e00565b611e4b906001600160a01b03166000526012602052604060002090565b5480151580611f4e575b15611f4857610997611e6691611db8565b50600381015460ff16611f3b57611e886103bc6000546001600160a01b031690565b6040518091630536340960e21b825281600460209384935afa801561074757610c66611ee491611ef194600091611f1e575b50611ed660028701546040519384918783019190602083019252565b611ede611dc7565b906129d9565b8051810182019101611e0d565b81929192611f16575b5060009115611f1257546001600160a01b0316905090565b5090565b915038611efa565b611f359150843d8611610740576107318183611c28565b38611eba565b546001600160a01b031690565b50600090565b50601354811115611e55565b15611f6157565b606460405162461bcd60e51b815260206004820152601c60248201527f7574696c6974792e62617463682e6c696d69742e6578636565646564000000006044820152fd5b15611fac57565b606460405162461bcd60e51b815260206004820152601760248201527f7574696c6974792e756e7365637572652e6661696c65640000000000000000006044820152fd5b60405190611ffd82611bf0565b600f82527f6765744e6f646573436f756e74282900000000000000000000000000000000006020830152565b1561203057565b606460405162461bcd60e51b815260206004820152601360248201527f7574696c6974792e696d706f72742e646f6e65000000000000000000000000006044820152fd5b91908201809211610b0357565b6000198114610b035760010190565b6040519061209d82611bf0565b601782527f6765744e6f64654279496e6465782875696e74323536290000000000000000006020830152565b156120d057565b606460405162461bcd60e51b815260206004820152601660248201527f70726f78792e696e76616c69642e696e7374616e6365000000000000000000006044820152fd5b6040519061212182611bf0565b601382527f496e7374546f55736572286164647265737329000000000000000000000000006020830152565b1561215457565b606460405162461bcd60e51b815260206004820152601260248201527f70726f78792e696e76616c69642e6e6f646500000000000000000000000000006044820152fd5b604051906121a582611bf0565b601082527f6765744e6f6465286164647265737329000000000000000000000000000000006020830152565b908160a09103126101d45780519160208201516121ed8161029e565b91604081015191611cb46080611e2760608501611e00565b6122126064821115611f5a565b61221e61144b3061291f565b6122336103bc6000546001600160a01b031690565b906040918251809381927f447aa304000000000000000000000000000000000000000000000000000000008352602093849160049485915afa948515610747576000956124e7575b50612295612287611c87565b61228f611ff0565b87612ae8565b9384156124df576122dc6122ca6122b385546001600160a01b031690565b6122bb611c87565b906122c4611ff0565b90612ae8565b916122d6838811612029565b82612074565b948086116124d7575b505b8481106122f657505050505050565b6124849061247e7f50db85d100000000000000000000000000000000000000000000000000000000845161235781612335868b83019190602083019252565b0391612349601f1993848101835282611c28565b612351612090565b8c612a97565b906001600160a01b039061236e82841615156120c9565b898c8960016124136124056123eb6123f76123c06123a66123b28d89519283918d83019190916001600160a01b036020820193169052565b038c8101835282611c28565b6123ba612114565b89612a97565b9a6123ce8b8d16151561214d565b86519283918a83019190916001600160a01b036020820193169052565b03898101835282611c28565b6123ff612198565b866129d9565b8580825183010191016121d1565b505050969096169561242681151561214d565b1480156124ce575b612489575b5050610e9b8461244781610c749697612541565b8b546001600160a01b0316958b51978894850152602484019060209093929360408301946001600160a01b03809216845216910152565b50612081565b6122e7565b516001600160a01b03909416828501908152610c7494610e9b926124c4926124bc90839060200103878101845283611c28565b610e10612114565b9350508c89612433565b5084151561242e565b9450386122e5565b505050505050565b6124ff919550833d8511610740576107318183611c28565b933861227b565b600260115414612517576002601155565b60046040517f3ee5aeb5000000000000000000000000000000000000000000000000000000008152fd5b6013549068010000000000000000821015610afe5761258961256b836001600395016013556101ef565b509182906001600160a01b03166001600160a01b0319825416179055565b6001810180546001600160a01b0319166001600160a01b03851617905501600160ff198254161790556001600160a01b0360135491166000526012602052604060002055565b604051906125dc82611bf0565b601682527f67657455736572546f496e7374286164647265737329000000000000000000006020830152565b6128ed6101c06129099261264261262682516001600160a01b031690565b6001600160a01b03166001600160a01b03196002541617600255565b61267561265960208301516001600160a01b031690565b6001600160a01b03166001600160a01b03196003541617600355565b6126a861268c60408301516001600160a01b031690565b6001600160a01b03166001600160a01b03196004541617600455565b6126db6126bf60608301516001600160a01b031690565b6001600160a01b03166001600160a01b03196005541617600555565b61270e6126f260808301516001600160a01b031690565b6001600160a01b03166001600160a01b03196006541617600655565b61274161272560a08301516001600160a01b031690565b6001600160a01b03166001600160a01b03196007541617600755565b61277461275860c08301516001600160a01b031690565b6001600160a01b03166001600160a01b03196008541617600855565b6127a761278b60e08301516001600160a01b031690565b6001600160a01b03166001600160a01b03196009541617600955565b6127db6127bf6101008301516001600160a01b031690565b6001600160a01b03166001600160a01b0319600a541617600a55565b61280f6127f36101208301516001600160a01b031690565b6001600160a01b03166001600160a01b0319600b541617600b55565b6128436128276101408301516001600160a01b031690565b6001600160a01b03166001600160a01b0319600c541617600c55565b61287761285b6101608301516001600160a01b031690565b6001600160a01b03166001600160a01b0319600d541617600d55565b6128ab61288f6101808301516001600160a01b031690565b6001600160a01b03166001600160a01b0319600e541617600e55565b6128df6128c36101a08301516001600160a01b031690565b6001600160a01b03166001600160a01b0319600f541617600f55565b01516001600160a01b031690565b6001600160a01b03166001600160a01b03196010541617601055565b565b908160209103126101d457611cb490611e00565b6129826001600160a01b03806002541660405191602094168483015283825261294782611bf0565b6040519061295482611bf0565b601582527f697353656375726542617365286164647265737329000000000000000000000085830152612a04565b908061299f575b156103625781611cb4928251830101910161290b565b5081815114612989565b3d156129d4573d906129ba82611c6b565b916129c86040519384611c28565b82523d6000602084013e565b606090565b906129e49291612a04565b90600090156129f1575090565b60405191506129ff82611c0c565b815290565b803b15612a7e576000927fffffffff000000000000000000000000000000000000000000000000000000008360208695519101201690612a6e6024604051809360208201958652612a5e8151809260208686019101611cc3565b8101036004810184520182611c28565b51915afa612a7a6129a9565b9091565b505050600090604051612a9081611c0c565b6000815290565b9291612aa591600094612a04565b9080612add575b612ab35750565b9091506020818051810103126101d45760206001600160a01b03910151612ad98161029e565b1690565b506020815114612aac565b9291612af691600094612a04565b9080612b19575b612b045750565b611cb491925060208082518301019101611d93565b506020815114612afd565b90602082519201517fffffffff00000000000000000000000000000000000000000000000000000000908181169360048110612b5f57505050565b60040360031b82901b16169150565b6001600160a01b03811615610d2457600080918351908260208601915af190612b956129a9565b9115612b9f575090565b805160009190600411612c1b57612bb69150612b24565b815115612bc65750805190602001fd5b6040517f21c09d340000000000000000000000000000000000000000000000000000000081527fffffffff00000000000000000000000000000000000000000000000000000000919091166004820152602490fd5b50612bb656fea2646970667358221220e8adf50bb3179b5718d06b8f442b8feef1356da2184b02d63e445b4f75336c1b64736f6c6343000814003360803461009957601f620025b038819003918201601f19168301916001600160401b0383118484101761009e5780849260209460405283398101031261009957516001600160a01b038116908190036100995780156100875760018060a01b031933816001541617600155600054161760005560016011556040516124fb9081620000b58239f35b60405163e6c4247b60e01b8152600490fd5b600080fd5b634e487b7160e01b600052604160045260246000fdfe60806040526004361015610018575b361561001657005b005b60003560e01c80631133b8861461017857806312065fe0146101735780631f185d161461016e578063339459a6146101695780633b9b7955146101645780636ec35cd51461015f5780638da5cb5b1461015a5780638dab13dc146101555780639498d88b146101505780639b03bea61461014b5780639fb2726b14610146578063a1f7f53914610141578063ae9568d71461013c578063af48452614610137578063b90306ad14610132578063c54e44b01461012d578063d7a83fc614610128578063e01ad5fd14610123578063e0a9bc2b1461011e578063e3d1d5bf14610119578063f5caf38c146101145763fdc10bc90361000e57611821565b6117e3565b611578565b61155d565b611492565b611452565b6113cc565b6112ba565b611289565b61123f565b6111ca565b610feb565b610fa3565b610cac565b610c09565b610be2565b610a61565b610a09565b610311565b610226565b61020a565b6101bb565b6001600160a01b0381160361018e57565b600080fd5b604090600319011261018e576004356101ab8161017d565b906024356101b88161017d565b90565b3461018e57602060ff6101fe6001600160a01b036101d836610193565b9116600052601284526040600020906001600160a01b0316600052602052604060002090565b54166040519015158152f35b3461018e57600036600319011261018e57602047604051908152f35b3461018e5760208060031936011261018e576102a56004356102478161017d565b6001600160a01b0380600254169060405192168483015283825261026a8261189b565b604051906102778261189b565b601182527f69735369676e6572286164647265737329000000000000000000000000000000858301526123db565b919080610307575b156102dd5781816102c7926102d99451830101910161225c565b60405190151581529081906020820190565b0390f35b60046040517f3204506f000000000000000000000000000000000000000000000000000000008152fd5b50808251146102ad565b3461018e57600036600319011261018e576103436103376000546001600160a01b031690565b6001600160a01b031690565b604051907f97f3815a000000000000000000000000000000000000000000000000000000008252602082600481845afa918215610839576000926109e8575b50604051917fcfbffe53000000000000000000000000000000000000000000000000000000008352602083600481855afa928315610839576000936109c7575b50604051907fab6e844f000000000000000000000000000000000000000000000000000000008252602082600481865afa918215610839576000926109a6575b50604051917f14d8d024000000000000000000000000000000000000000000000000000000008352602083600481875afa92831561083957600093610985575b50604051927fd1f956b1000000000000000000000000000000000000000000000000000000008452602084600481885afa93841561083957600094610964575b50604051937fe61dfd58000000000000000000000000000000000000000000000000000000008552602085600481895afa94851561083957600095610943575b506040517fe09d394d0000000000000000000000000000000000000000000000000000000081526020816004818a5afa90811561083957600091610924575b506040517f52b06d640000000000000000000000000000000000000000000000000000000081526020816004818b5afa90811561083957600091610905575b506040517f013cf08b00000000000000000000000000000000000000000000000000000000815260006004820152916020836024818c5afa928315610839576000936108e4575b50604051977f5e09dbe70000000000000000000000000000000000000000000000000000000089526020896004818d5afa948515610839576004996000966108c3575b5060208b6040519b8c80927faa0ddc160000000000000000000000000000000000000000000000000000000082525afa9687156108395760049a6000986108a2575b5060208c6040519c8d80927f640274270000000000000000000000000000000000000000000000000000000082525afa9889156108395760049b60009a610881575b5060208d6040519d8e80927f30125cf50000000000000000000000000000000000000000000000000000000082525afa9a8b15610839578d60049d60009d61085f575b506020906040519e8f80927f24768d910000000000000000000000000000000000000000000000000000000082525afa9c8d156108395760009d61083e575b50604051809e81907f9dc969a80000000000000000000000000000000000000000000000000000000082525a92600491602094fa9d8e156108395760009e610808575b5061071c6118fa565b6001600160a01b0390911681529d8e906001600160a01b031660208201526040019061075091906001600160a01b03169052565b6001600160a01b031660608d01526001600160a01b031660808c01526001600160a01b031660a08b01526001600160a01b031660c08a01526001600160a01b031660e08901526001600160a01b03166101008801526001600160a01b03166101208701526001600160a01b03166101408601526001600160a01b03166101608501526001600160a01b03166101808401526001600160a01b03166101a08301526001600160a01b03166101c082015261001690611f59565b61082b919e5060203d602011610832575b61082381836118d8565b810190611970565b9c38610713565b503d610819565b611e71565b610858919d5060203d6020116108325761082381836118d8565b9b386106d0565b6020919d5061087a90823d84116108325761082381836118d8565b9c90610691565b61089b919a5060203d6020116108325761082381836118d8565b983861064e565b6108bc91985060203d6020116108325761082381836118d8565b963861060c565b6108dd91965060203d6020116108325761082381836118d8565b94386105ca565b6108fe91935060203d6020116108325761082381836118d8565b9138610587565b61091e915060203d6020116108325761082381836118d8565b38610540565b61093d915060203d6020116108325761082381836118d8565b38610501565b61095d91955060203d6020116108325761082381836118d8565b93386104c2565b61097e91945060203d6020116108325761082381836118d8565b9238610482565b61099f91935060203d6020116108325761082381836118d8565b9138610442565b6109c091925060203d6020116108325761082381836118d8565b9038610402565b6109e191935060203d6020116108325761082381836118d8565b91386103c2565b610a0291925060203d6020116108325761082381836118d8565b9038610382565b3461018e57600036600319011261018e5760206001600160a01b0360005416604051908152f35b9181601f8401121561018e5782359167ffffffffffffffff831161018e576020808501948460051b01011161018e57565b3461018e57606036600319011261018e5767ffffffffffffffff6004803582811161018e57610a939036908301610a30565b919060243584811161018e57610aac9036908401610a30565b909460443590811161018e57610ac59036908501610a30565b959093610ad0612271565b15610bd357610ade336122f6565b8015610bbf575b15610bb057868303610b88575060005b828110610afe57005b80610b82610b0f6001938a89611e41565b35610b1981610fe1565b6001600160a01b03610b2c848b8a611e41565b35610b368161017d565b166000526012602052610b716040600020610b5a610b55868a8a611e41565b611e67565b6001600160a01b0316600052602052604060002090565b9060ff801983541691151516179055565b01610af5565b6040517fff633a38000000000000000000000000000000000000000000000000000000008152fd5b60405163ea8e4eb560e01b8152fd5b50336001600160a01b036005541614610ae5565b604051634ee2123760e11b8152fd5b3461018e57600036600319011261018e5760206001600160a01b0360015416604051908152f35b3461018e57602036600319011261018e57600435610c268161017d565b6001600160a01b038091166000526015602052806040600020541690601660205260406000205416908060005260126020526102d960ff610c7e846040600020906001600160a01b0316600052602052604060002090565b54166040519384938491939260409160608401956001600160a01b0380921685521660208401521515910152565b3461018e5760208060031936011261018e57600490813590610ccd8261017d565b610cd5612271565b15610f9357610ce3336122f6565b8015610f7f575b15610f6f576001600160a01b039283831615610f6057610d156103376000546001600160a01b031690565b91604051927f6325dd04000000000000000000000000000000000000000000000000000000009182855280858581855afa928315610839578795600094610f3f575b508190610db0610da260405180610d808c8783019190916001600160a01b036020820193169052565b0397610d94601f19998a81018452836118d8565b610d9c611e7d565b906123b0565b838082518301019101611eed565b98919a909a169916956040518095819382525afa96871561083957610ee0610e6b96610e2c89610ec8956100169c610ef9998b99600092610f1e575b50610e1e9192610e1260405195869283019190916001600160a01b036020820193169052565b039081018452836118d8565b610e26611f20565b90612489565b610e498a6001600160a01b03166000526017602052604060002090565b55610e8683610e6b8b6001600160a01b03166000526015602052604060002090565b906001600160a01b03166001600160a01b0319825416179055565b610ea785610e6b8b6001600160a01b03166000526016602052604060002090565b610b7185610ec8856001600160a01b03166000526012602052604060002090565b906001600160a01b0316600052602052604060002090565b6001600160a01b03166000526013602052604060002090565b610f038154611a1c565b90556001600160a01b03166000526014602052604060002090565b610e1e9250610f3990843d86116108325761082381836118d8565b91610dec565b82919450610f5990823d84116108325761082381836118d8565b9390610d57565b60405163d92e233d60e01b8152fd5b8260405163ea8e4eb560e01b8152fd5b50336001600160a01b036005541614610cea565b82604051634ee2123760e11b8152fd5b3461018e57602036600319011261018e576001600160a01b03600435610fc88161017d565b1660005260176020526020604060002054604051908152f35b8015150361018e57565b3461018e57608036600319011261018e57600467ffffffffffffffff813581811161018e5761101d9036908401610a30565b9160243590811161018e576110359036908501610a30565b604435939161104385610fe1565b60643561104e612271565b156111ba5761105c336122f6565b80156111a6575b156111965782840361116d5760005b84811061107b57005b861561113b57816110ac611093610b5584898b611e41565b6001600160a01b03166000526018602052604060002090565b54036110db57876040517fe3913549000000000000000000000000000000000000000000000000000000008152fd5b80826110f0611093610b556001958a8c611e41565b556110fc818686611e41565b3561113261112a611111610b55858b8d611e41565b6001600160a01b03166000526017602052604060002090565b918254611a2a565b90555b01611072565b806111496001928686611e41565b3561116661115e611111610b55858b8d611e41565b9182546119af565b9055611135565b866040517fff633a38000000000000000000000000000000000000000000000000000000008152fd5b8660405163ea8e4eb560e01b8152fd5b50336001600160a01b036005541614611063565b86604051634ee2123760e11b8152fd5b3461018e57600036600319011261018e5760206112376001600160a01b03600654166040516111f88161189b565b601381527f67657464656c656761746f72436f756e74282900000000000000000000000000848201526040519161122e836118bc565b60008352612489565b604051908152f35b3461018e5760206112806001600160a01b0361125a36610193565b9116600052601383526040600020906001600160a01b0316600052602052604060002090565b54604051908152f35b3461018e57602036600319011261018e5760206112b06004356112ab8161017d565b6122f6565b6040519015158152f35b3461018e57602036600319011261018e576004356001600160a01b036005541633036113bb57600090600460206112fb61033785546001600160a01b031690565b604051928380927f46f991ac0000000000000000000000000000000000000000000000000000000082525afa8015610839578380848194938294839161139d575b505af1611347612380565b50156102dd577fcdcc745fe377b103b45fa0cec23ae3ef93d6fc6a84a01f0d18c40b354dd1d5d8611397611386610337600b546001600160a01b031690565b604051938452929081906020820190565b0390a280f35b6113b5915060203d81116108325761082381836118d8565b3861133c565b600460405163ea8e4eb560e01b8152fd5b3461018e57602036600319011261018e576004356113e98161017d565b803b60006113f68261191b565b9261140460405194856118d8565b82845260208401903c602d81511061142857602a602091015160601c604051908152f35b60046040517fbaf3f0f7000000000000000000000000000000000000000000000000000000008152fd5b3461018e57602036600319011261018e5760206004356114718161017d565b6001600160a01b038091166000526014825260406000205416604051908152f35b3461018e5760208060031936011261018e576102d990600435906114b58261017d565b6115196001600160a01b03928360065416936040519116838201528281526114dc8161189b565b6040516114e88161189b565b601881527f697364656c656761746f724e6f64652861646472657373290000000000000000848201526000946123db565b919080611553575b61153a575b505060405190151581529081906020820190565b61154c9250808251830101910161225c565b3880611526565b5080825114611521565b3461018e57600036600319011261018e5760206112b0612271565b3461018e5761158636610193565b61158e612271565b156117d25761159c336122f6565b80156117be575b156113bb576001600160a01b038083169081156117ad57821680156117ad57036115c957005b816117aa916115ed6000946001600160a01b03166000526017602052604060002090565b5461160b826001600160a01b03166000526017602052604060002090565b5561165961163c61162f846001600160a01b03166000526015602052604060002090565b546001600160a01b031690565b610e6b836001600160a01b03166000526015602052604060002090565b61169961167c61162f846001600160a01b03166000526016602052604060002090565b610e6b836001600160a01b03166000526016602052604060002090565b6116d981610e6b6116c061162f836001600160a01b03166000526016602052604060002090565b6001600160a01b03166000526014602052604060002090565b6117146116f9836001600160a01b03166000526018602052604060002090565b54916001600160a01b03166000526018602052604060002090565b5582611733826001600160a01b03166000526017602052604060002090565b5561176a61175a6116c061162f846001600160a01b03166000526016602052604060002090565b6001600160a01b03198154169055565b61178a61175a826001600160a01b03166000526015602052604060002090565b61109361175a826001600160a01b03166000526016602052604060002090565b55005b600460405163d92e233d60e01b8152fd5b50336001600160a01b0360055416146115a3565b6004604051634ee2123760e11b8152fd5b3461018e57606036600319011261018e576100166004356118038161017d565b60243561180f8161017d565b6044359161181c83610fe1565b611a37565b3461018e57600036600319011261018e5760206112376001600160a01b036003541660405161184f8161189b565b600681527f6941676528290000000000000000000000000000000000000000000000000000848201526040519161122e836118bc565b634e487b7160e01b600052604160045260246000fd5b6040810190811067ffffffffffffffff8211176118b757604052565b611885565b6020810190811067ffffffffffffffff8211176118b757604052565b90601f8019910116810190811067ffffffffffffffff8211176118b757604052565b604051906101e0820182811067ffffffffffffffff8211176118b757604052565b67ffffffffffffffff81116118b757601f01601f191660200190565b604051906119448261189b565b601682527f67657455736572546f496e7374286164647265737329000000000000000000006020830152565b9081602091031261018e57516101b88161017d565b634e487b7160e01b600052601160045260246000fd5b6000198101919082116119aa57565b611985565b919082039182116119aa57565b6040516119c8816118bc565b60008152906000368137565b604051906119e18261189b565b601082527f6d61784d61707065644c696d69742829000000000000000000000000000000006020830152565b9081602091031261018e575190565b90600182018092116119aa57565b919082018092116119aa57565b92916001600160a01b0393848116156117ad578483169283156117ad57611a86611a82611a7b33610ec8856001600160a01b03166000526012602052604060002090565b5460ff1690565b1590565b611e1757600454604080516001600160a01b038581166020808401919091528252919892611ada9261033792611acb92909116611ac38c836118d8565b610d9c611937565b60208082518301019101611970565b15611e0757611aff61162f336001600160a01b03166000526014602052604060002090565b8415611ca55716611c7c57611b6c611b45611b36611b256003546001600160a01b031690565b611b2d6119bc565b90610d9c6119d4565b60208082518301019101611a0d565b611b6633610ec8856001600160a01b03166000526013602052604060002090565b54101590565b611c53577f73e162dc4d0165c5ab2c676b5ce1e58e8333a5e1b0e75ea3957f2ca0aa8abc2e939495611c1c82611bbc611c4e94610e6b876001600160a01b03166000526015602052604060002090565b611bdd33610e6b876001600160a01b03166000526016602052604060002090565b611bfe85610e6b336001600160a01b03166000526014602052604060002090565b610ec833916001600160a01b03166000526013602052604060002090565b611c268154611a1c565b9055513381526001600160a01b03909216602083015291151560408201529081906060820190565b0390a2565b600486517fb111d8ef000000000000000000000000000000000000000000000000000000008152fd5b600486517f548635ce000000000000000000000000000000000000000000000000000000008152fd5b925092509394925081811615611e0157611d88927f73e162dc4d0165c5ab2c676b5ce1e58e8333a5e1b0e75ea3957f2ca0aa8abc2e61175a93611cfe61162f856001600160a01b03166000526015602052604060002090565b611d4c85611d2261162f826001600160a01b03166000526016602052604060002090565b95516001600160a01b03968716815295166020860152600060408601529116929081906060820190565b0390a2611d6f61175a826001600160a01b03166000526015602052604060002090565b6001600160a01b03166000526016602052604060002090565b611da861175a336001600160a01b03166000526014602052604060002090565b611dc933610ec8836001600160a01b03166000526013602052604060002090565b54611dd15750565b611df390610ec833916001600160a01b03166000526013602052604060002090565b611dfd815461199b565b9055565b50505050565b6004875163d92e233d60e01b8152fd5b60046040517f747845de000000000000000000000000000000000000000000000000000000008152fd5b9190811015611e515760051b0190565b634e487b7160e01b600052603260045260246000fd5b356101b88161017d565b6040513d6000823e3d90fd5b604051906060820182811067ffffffffffffffff8211176118b757604052602482527f65737329000000000000000000000000000000000000000000000000000000006040837f67657456616c696461746f7244656c656761746f724f6655736572286164647260208201520152565b9081606091031261018e578051611f038161017d565b9160406020830151611f148161017d565b9201516101b881610fe1565b60405190611f2d8261189b565b601182527f696e636f6d654f662861646472657373290000000000000000000000000000006020830152565b61223e6101c061225a92611f93611f7782516001600160a01b031690565b6001600160a01b03166001600160a01b03196002541617600255565b611fc6611faa60208301516001600160a01b031690565b6001600160a01b03166001600160a01b03196003541617600355565b611ff9611fdd60408301516001600160a01b031690565b6001600160a01b03166001600160a01b03196004541617600455565b61202c61201060608301516001600160a01b031690565b6001600160a01b03166001600160a01b03196005541617600555565b61205f61204360808301516001600160a01b031690565b6001600160a01b03166001600160a01b03196006541617600655565b61209261207660a08301516001600160a01b031690565b6001600160a01b03166001600160a01b03196007541617600755565b6120c56120a960c08301516001600160a01b031690565b6001600160a01b03166001600160a01b03196008541617600855565b6120f86120dc60e08301516001600160a01b031690565b6001600160a01b03166001600160a01b03196009541617600955565b61212c6121106101008301516001600160a01b031690565b6001600160a01b03166001600160a01b0319600a541617600a55565b6121606121446101208301516001600160a01b031690565b6001600160a01b03166001600160a01b0319600b541617600b55565b6121946121786101408301516001600160a01b031690565b6001600160a01b03166001600160a01b0319600c541617600c55565b6121c86121ac6101608301516001600160a01b031690565b6001600160a01b03166001600160a01b0319600d541617600d55565b6121fc6121e06101808301516001600160a01b031690565b6001600160a01b03166001600160a01b0319600e541617600e55565b6122306122146101a08301516001600160a01b031690565b6001600160a01b03166001600160a01b0319600f541617600f55565b01516001600160a01b031690565b6001600160a01b03166001600160a01b03196010541617601055565b565b9081602091031261018e57516101b881610fe1565b6122cc6001600160a01b036002541660405161228c8161189b565b600881527f69735361666528290000000000000000000000000000000000000000000000006020820152604051916122c3836118bc565b600083526123db565b90806122eb575b156102dd57806020806101b89351830101910161225c565b5060208151146122d3565b6123596001600160a01b03806002541660405191602094168483015283825261231e8261189b565b6040519061232b8261189b565b601582527f6973536563757265426173652861646472657373290000000000000000000000858301526123db565b9080612376575b156102dd57816101b8928251830101910161225c565b5081815114612360565b3d156123ab573d906123918261191b565b9161239f60405193846118d8565b82523d6000602084013e565b606090565b906123bb92916123db565b90600090156123c8575090565b60405191506123d6826118bc565b815290565b9190823b15612470577fffffffff00000000000000000000000000000000000000000000000000000000815160208093012016916040519180830193845281519160005b83811061245c57505050918161244c602482600097959688970187838201520360048101845201826118d8565b51915afa612458612380565b9091565b81810183015185820160240152820161241f565b505050600090604051612482816118bc565b6000815290565b9291612497916000946123db565b90806124ba575b6124a55750565b6101b891925060208082518301019101611a0d565b50602081511461249e56fea26469706673582212203a44ac4e8eeeb9c9c2aef181791e8e02cf4bba9c53c01284ea2aa266a0dd7b9264736f6c634300081400336080806040523462001c4c576200003962004d8291823803809362000025828462001c89565b82396001600160a01b039281019062001cad565b16801562001c3a57600180546001600160a01b03199081163317825560008054909116831790554260115560a760255561010e602655601e602b55602c819055602d8190556002602e5561c350602f55610258603081905560036031819055601960325568878678326eac900000603355670de0b6b3a764000060345569021e19e0c9bab240000060355560368390556037556038919091556007603955603a556005604955604a805460ff1916905560405160e081016001600160401b0381118282101762001c24576102589160c0916040526002815260646020820152600160408201526023606082015260646080820152600160a0820152015260026016556064601755600160185560236019556064601a556001601b55610258601c5560b460606200016862001cce565b60198152600a6020820152605a604082015201526019601d55600a601e55605a601f5560b46020556200019a62001cce565b600581526001602082015260b460606101689283604082015201526005602155600160225560235560b4602455600160a0620001d562001d04565b6003815260036020820152826040820152826060820152826080820152015260036027556003602855630101010163ffffffff1960295416176029556200021b62001cce565b610258606061014092838152600b6020820152600a60408201520152603b55600b603c55600a603d55610258603e5561025860606200025962001cce565b60d28152600b6020820152600a6040820152015260d2603f55600b604055600a6041556102586042556200028c62001d04565b90604051635e09dbe760e01b8152602081600481855afa91821562001bf65760049260209260009162001c02575b506001600160a01b03168452605f828501526001604080860191909152516311be646b60e21b815292839182905afa801562001bf65760409160009162001bc0575b5060018060a01b03169182606082015260056080820152600160a082015260018060a01b0381511660018060a01b031960435416176043556020810151604455015160455560018060a01b03196046541617604655600560475560016048556200044e6040516200036d8162001c51565b60008082526020808301828152604084018381526060850184815261270f60808701908152948052601390935293517f8fa6efc3be94b5b348b21fea823fe8d100408cee9b7f90524494500445d8ff6c55517f8fa6efc3be94b5b348b21fea823fe8d100408cee9b7f90524494500445d8ff6d5591517f8fa6efc3be94b5b348b21fea823fe8d100408cee9b7f90524494500445d8ff6e5590517f8fa6efc3be94b5b348b21fea823fe8d100408cee9b7f90524494500445d8ff6f55517f8fa6efc3be94b5b348b21fea823fe8d100408cee9b7f90524494500445d8ff7055565b62000547604051620004608162001c51565b60078152601960208083019182526000604084018181526060850182815261270f608087019081526001909352601390935293517f4155c2f711f2cdd34f8262ab8fb9b7020a700fe7b6948222152f7670d1fdf34d5591517f4155c2f711f2cdd34f8262ab8fb9b7020a700fe7b6948222152f7670d1fdf34e5591517f4155c2f711f2cdd34f8262ab8fb9b7020a700fe7b6948222152f7670d1fdf34f5590517f4155c2f711f2cdd34f8262ab8fb9b7020a700fe7b6948222152f7670d1fdf35055517f4155c2f711f2cdd34f8262ab8fb9b7020a700fe7b6948222152f7670d1fdf35155565b62000640604051620005598162001c51565b60078152606460208083019182526000604084018181526060850182815261270f608087019081526002909352601390935293517f0b9d2c0c271bb30544eb78c59bdaebdae2728e5f65814c07768a0abe90ed19235591517f0b9d2c0c271bb30544eb78c59bdaebdae2728e5f65814c07768a0abe90ed19245591517f0b9d2c0c271bb30544eb78c59bdaebdae2728e5f65814c07768a0abe90ed19255590517f0b9d2c0c271bb30544eb78c59bdaebdae2728e5f65814c07768a0abe90ed192655517f0b9d2c0c271bb30544eb78c59bdaebdae2728e5f65814c07768a0abe90ed192755565b6200073a604051620006528162001c51565b600781526101f46020808301918252600360408401818152600060608601818152601e6080880190815293909152601390935293517f0d2a6872ef858a7f8ead18dc4f3f2e8d35c853d47e2816cbb9cdd49202554e0c5591517f0d2a6872ef858a7f8ead18dc4f3f2e8d35c853d47e2816cbb9cdd49202554e0d5591517f0d2a6872ef858a7f8ead18dc4f3f2e8d35c853d47e2816cbb9cdd49202554e0e5590517f0d2a6872ef858a7f8ead18dc4f3f2e8d35c853d47e2816cbb9cdd49202554e0f55517f0d2a6872ef858a7f8ead18dc4f3f2e8d35c853d47e2816cbb9cdd49202554e1055565b620008366040516200074c8162001c51565b600781526107d06020808301918252600460408401818152600360608601908152601e60808701908152600093909352601390935293517f01413ff7a3b1d5b6c016c061d48e2c7014700c777a29fcd068fff04265813d5d5591517f01413ff7a3b1d5b6c016c061d48e2c7014700c777a29fcd068fff04265813d5e5591517f01413ff7a3b1d5b6c016c061d48e2c7014700c777a29fcd068fff04265813d5f5590517f01413ff7a3b1d5b6c016c061d48e2c7014700c777a29fcd068fff04265813d6055517f01413ff7a3b1d5b6c016c061d48e2c7014700c777a29fcd068fff04265813d6155565b6200092f604051620008488162001c51565b6007815261138860208083019182526004604084018181526060850191825261270f608086019081526005600052601390935293517ff4b2859895858d6aa26d656e4999d552f6a869b74c43bba7d2a941c4d22c35595591517ff4b2859895858d6aa26d656e4999d552f6a869b74c43bba7d2a941c4d22c355a5591517ff4b2859895858d6aa26d656e4999d552f6a869b74c43bba7d2a941c4d22c355b55517ff4b2859895858d6aa26d656e4999d552f6a869b74c43bba7d2a941c4d22c355c55517ff4b2859895858d6aa26d656e4999d552f6a869b74c43bba7d2a941c4d22c355d55565b62000a28604051620009418162001c51565b6007815261271060208083019182526004604084018181526060850191825261270f608086019081526006600052601390935293517f709d0e3cf89777a1e1f9c99632e4494f29b0327befd0df15e277a12d948257955591517f709d0e3cf89777a1e1f9c99632e4494f29b0327befd0df15e277a12d948257965591517f709d0e3cf89777a1e1f9c99632e4494f29b0327befd0df15e277a12d9482579755517f709d0e3cf89777a1e1f9c99632e4494f29b0327befd0df15e277a12d9482579855517f709d0e3cf89777a1e1f9c99632e4494f29b0327befd0df15e277a12d9482579955565b62000b2360405162000a3a8162001c51565b60078082526161a860208084019182526004604085018181526060860191825261270f60808701908152600095909552601390925293517f8ba6fb577925b0796671c737df59b8aaae861b630513fb12823699e3e0e3ee605590517f8ba6fb577925b0796671c737df59b8aaae861b630513fb12823699e3e0e3ee6155517f8ba6fb577925b0796671c737df59b8aaae861b630513fb12823699e3e0e3ee625590517f8ba6fb577925b0796671c737df59b8aaae861b630513fb12823699e3e0e3ee6355517f8ba6fb577925b0796671c737df59b8aaae861b630513fb12823699e3e0e3ee6455565b62000c1960405162000b358162001c51565b6000808252600660208084019182526001604085018181526005606087019081526080870183815292909552601590925293517f27739e4bb5e6f8b5e4b57a047dca8767cc9b982a011081e086cbb0dfa9de818d5590517f27739e4bb5e6f8b5e4b57a047dca8767cc9b982a011081e086cbb0dfa9de818e55517f27739e4bb5e6f8b5e4b57a047dca8767cc9b982a011081e086cbb0dfa9de818f55517f27739e4bb5e6f8b5e4b57a047dca8767cc9b982a011081e086cbb0dfa9de819055517f27739e4bb5e6f8b5e4b57a047dca8767cc9b982a011081e086cbb0dfa9de819155565b62000d1060405162000c2b8162001c51565b600080825260036020808401918252600160408501818152600560608701908152608087019283526002909552601590925293517f07d4ff730d9753101d832555708a37d38c2c45fce8cacaefc99f06074e93fe0b5590517f07d4ff730d9753101d832555708a37d38c2c45fce8cacaefc99f06074e93fe0c55517f07d4ff730d9753101d832555708a37d38c2c45fce8cacaefc99f06074e93fe0d55517f07d4ff730d9753101d832555708a37d38c2c45fce8cacaefc99f06074e93fe0e55517f07d4ff730d9753101d832555708a37d38c2c45fce8cacaefc99f06074e93fe0f55565b62000e0a60405162000d228162001c51565b60028152600f6020808301918252600a604084019081526005606085019081526001608086019081526003600052601590935293517fb3a65e8276bd33b3e4f7d6081ebd9899187264822358758dca2e2bc37b2a9c275591517fb3a65e8276bd33b3e4f7d6081ebd9899187264822358758dca2e2bc37b2a9c285590517fb3a65e8276bd33b3e4f7d6081ebd9899187264822358758dca2e2bc37b2a9c295590517fb3a65e8276bd33b3e4f7d6081ebd9899187264822358758dca2e2bc37b2a9c2a55517fb3a65e8276bd33b3e4f7d6081ebd9899187264822358758dca2e2bc37b2a9c2b55565b62000f0460405162000e1c8162001c51565b60028152600f6020808301918252600a604084019081526005606085019081526001608086019081526004600052601590935293517f8191f4eb6b8bafbfe9a5389c8d07d7f5fd81137a7ee653fc4358269845ee1d2e5591517f8191f4eb6b8bafbfe9a5389c8d07d7f5fd81137a7ee653fc4358269845ee1d2f5590517f8191f4eb6b8bafbfe9a5389c8d07d7f5fd81137a7ee653fc4358269845ee1d305590517f8191f4eb6b8bafbfe9a5389c8d07d7f5fd81137a7ee653fc4358269845ee1d3155517f8191f4eb6b8bafbfe9a5389c8d07d7f5fd81137a7ee653fc4358269845ee1d3255565b62000ffe60405162000f168162001c51565b60028152600f6020808301918252600a60408401908152600560608501818152600160808701908152600092909252601590935293517fbab719002e4be320868650dc7456e9a1d245e4d5dd64765588e2f21529d871d35591517fbab719002e4be320868650dc7456e9a1d245e4d5dd64765588e2f21529d871d45590517fbab719002e4be320868650dc7456e9a1d245e4d5dd64765588e2f21529d871d555517fbab719002e4be320868650dc7456e9a1d245e4d5dd64765588e2f21529d871d655517fbab719002e4be320868650dc7456e9a1d245e4d5dd64765588e2f21529d871d755565b6200197c604051620010108162001c51565b60028152604b602080830182815260646040850181815260fa60608701818152608088019384526006600052601590955295517f25847c9ccf691da811a9f934d6b3b92e6062ef92feb71bf4cb08cbb4fad8d6525591517f25847c9ccf691da811a9f934d6b3b92e6062ef92feb71bf4cb08cbb4fad8d6535590517f25847c9ccf691da811a9f934d6b3b92e6062ef92feb71bf4cb08cbb4fad8d6545590517f25847c9ccf691da811a9f934d6b3b92e6062ef92feb71bf4cb08cbb4fad8d65555517f25847c9ccf691da811a9f934d6b3b92e6062ef92feb71bf4cb08cbb4fad8d6565590620011e8604051620011078162001c51565b60028152602080820185815260646040840181815260608501878152608086019283526007600052601590945293517f5d0f48e37dc1225cdee8d6f2a0315d796f55423522fe638d7d95421802dfc0065590517f5d0f48e37dc1225cdee8d6f2a0315d796f55423522fe638d7d95421802dfc0075591517f5d0f48e37dc1225cdee8d6f2a0315d796f55423522fe638d7d95421802dfc00855517f5d0f48e37dc1225cdee8d6f2a0315d796f55423522fe638d7d95421802dfc00955517f5d0f48e37dc1225cdee8d6f2a0315d796f55423522fe638d7d95421802dfc00a55565b620012db604051620011fa8162001c51565b60028152602080820185815260646040840181815260608501878152608086019283526008600052601590945293517f2d0e46a571fdfbe57c7c718891a8a12999c102dfffa2b3314ea165dedd1684f55590517f2d0e46a571fdfbe57c7c718891a8a12999c102dfffa2b3314ea165dedd1684f65591517f2d0e46a571fdfbe57c7c718891a8a12999c102dfffa2b3314ea165dedd1684f755517f2d0e46a571fdfbe57c7c718891a8a12999c102dfffa2b3314ea165dedd1684f855517f2d0e46a571fdfbe57c7c718891a8a12999c102dfffa2b3314ea165dedd1684f955565b620013ce604051620012ed8162001c51565b60028152602080820185815260646040840181815260608501878152608086019283526009600052601590945293517f497613c0658032a90a449a944031c57b1d03996c3a6148fe12146c45cf3214005590517f497613c0658032a90a449a944031c57b1d03996c3a6148fe12146c45cf3214015591517f497613c0658032a90a449a944031c57b1d03996c3a6148fe12146c45cf32140255517f497613c0658032a90a449a944031c57b1d03996c3a6148fe12146c45cf32140355517f497613c0658032a90a449a944031c57b1d03996c3a6148fe12146c45cf32140455565b620014c1604051620013e08162001c51565b6002815260208082018581526064604084018181526060850187815260808601928352600a600052601590945293517f0cfcac9f3767130657d3b01a9146da544eeb39eb9670066ace5e84da7fc4319f5590517f0cfcac9f3767130657d3b01a9146da544eeb39eb9670066ace5e84da7fc431a05591517f0cfcac9f3767130657d3b01a9146da544eeb39eb9670066ace5e84da7fc431a155517f0cfcac9f3767130657d3b01a9146da544eeb39eb9670066ace5e84da7fc431a255517f0cfcac9f3767130657d3b01a9146da544eeb39eb9670066ace5e84da7fc431a355565b620015b4604051620014d38162001c51565b6002815260208082018581526064604084018181526060850187815260808601928352600b600052601590945293517fcaeae41dfed97dfd8c41876ff591faa3e36cda388621c550caa3321a2a624e5f5590517fcaeae41dfed97dfd8c41876ff591faa3e36cda388621c550caa3321a2a624e605591517fcaeae41dfed97dfd8c41876ff591faa3e36cda388621c550caa3321a2a624e6155517fcaeae41dfed97dfd8c41876ff591faa3e36cda388621c550caa3321a2a624e6255517fcaeae41dfed97dfd8c41876ff591faa3e36cda388621c550caa3321a2a624e6355565b620016a7604051620015c68162001c51565b6002815260208082018581526064604084018181526060850187815260808601928352600c600052601590945293517f74c10a04815bbeaf3165dab0bd11b69aae73edf00a48b27ec8c53ac5b61d47fd5590517f74c10a04815bbeaf3165dab0bd11b69aae73edf00a48b27ec8c53ac5b61d47fe5591517f74c10a04815bbeaf3165dab0bd11b69aae73edf00a48b27ec8c53ac5b61d47ff55517f74c10a04815bbeaf3165dab0bd11b69aae73edf00a48b27ec8c53ac5b61d480055517f74c10a04815bbeaf3165dab0bd11b69aae73edf00a48b27ec8c53ac5b61d480155565b6200179a604051620016b98162001c51565b6002815260208082018581526064604084018181526060850187815260808601928352600d600052601590945293517fe3e3bb3f660b5aca6f44f8cdafd6456c07cd53888341ab748ffc02d532ccc70e5590517fe3e3bb3f660b5aca6f44f8cdafd6456c07cd53888341ab748ffc02d532ccc70f5591517fe3e3bb3f660b5aca6f44f8cdafd6456c07cd53888341ab748ffc02d532ccc71055517fe3e3bb3f660b5aca6f44f8cdafd6456c07cd53888341ab748ffc02d532ccc71155517fe3e3bb3f660b5aca6f44f8cdafd6456c07cd53888341ab748ffc02d532ccc71255565b6200188d604051620017ac8162001c51565b6002815260208082018581526064604084018181526060850187815260808601928352600e600052601590945293517f39f65be0de5254440eb2b93b160b1af3a4f45fe0571eaea7ef454b27b7f02d185590517f39f65be0de5254440eb2b93b160b1af3a4f45fe0571eaea7ef454b27b7f02d195591517f39f65be0de5254440eb2b93b160b1af3a4f45fe0571eaea7ef454b27b7f02d1a55517f39f65be0de5254440eb2b93b160b1af3a4f45fe0571eaea7ef454b27b7f02d1b55517f39f65be0de5254440eb2b93b160b1af3a4f45fe0571eaea7ef454b27b7f02d1c55565b604051916200189c8362001c51565b6002835260208084019182526064604085018181526060860194855260808601918252600f600052601590925293517f3bda72f6153f13a10a865b9a6397e1123f4aa6a1726e0e1349cd07eb0e24d8155590517f3bda72f6153f13a10a865b9a6397e1123f4aa6a1726e0e1349cd07eb0e24d81655517f3bda72f6153f13a10a865b9a6397e1123f4aa6a1726e0e1349cd07eb0e24d81755517f3bda72f6153f13a10a865b9a6397e1123f4aa6a1726e0e1349cd07eb0e24d81855517f3bda72f6153f13a10a865b9a6397e1123f4aa6a1726e0e1349cd07eb0e24d81955565b6040516200198a8162001c6d565b60128152600a6020808301918252602d60408085019182526003600052601490925292517f63d87a887046e0430be80fdeb014107d7198c879cbf2cddf39a6df195c86cb385590517f63d87a887046e0430be80fdeb014107d7198c879cbf2cddf39a6df195c86cb395590517f63d87a887046e0430be80fdeb014107d7198c879cbf2cddf39a6df195c86cb3a555162001a248162001c6d565b60128152600a6020808301918252605a60408085019182526005600052601490925292517f116126bec5aaa49b347e966c49378cf0c441de9121e306ea3d824584a9615aa25590517f116126bec5aaa49b347e966c49378cf0c441de9121e306ea3d824584a9615aa35590517f116126bec5aaa49b347e966c49378cf0c441de9121e306ea3d824584a9615aa4555162001abe8162001c6d565b60098152600a602080830182815261270f6040808601918252600760009081526014855295517f904977a779b22381a36c6463d4166ef55ee8cb3392c83093cb1750f1a00c9d945591517f904977a779b22381a36c6463d4166ef55ee8cb3392c83093cb1750f1a00c9d9555517f904977a779b22381a36c6463d4166ef55ee8cb3392c83093cb1750f1a00c9d9655601290915260327f8e1fee8c88a9e04123b21e90cae2727a7715bf522a1e46eb5934ccd05203a6b25560049092526101f47fb4fcd034df3d20faa1c133b66d862ce92732727d40916b48ffb4020cb00fe053556005601f55602381905560a76025556026555161303a908162001d488239f35b62001be7915060203d60201162001bee575b62001bde818362001c89565b81019062001cad565b38620002fc565b503d62001bd2565b6040513d6000823e3d90fd5b62001c1d9150833d851162001bee5762001bde818362001c89565b38620002ba565b634e487b7160e01b600052604160045260246000fd5b60405163e6c4247b60e01b8152600490fd5b600080fd5b60a081019081106001600160401b0382111762001c2457604052565b606081019081106001600160401b0382111762001c2457604052565b601f909101601f19168101906001600160401b0382119082101762001c2457604052565b9081602091031262001c4c57516001600160a01b038116810362001c4c5790565b60405190608082016001600160401b0381118382101762001c245760405260006060838281528260208201528260408201520152565b6040519060c082016001600160401b0381118382101762001c24576040528160a0600091828152826020820152826040820152826060820152826080820152015256fe60806040526004361015610018575b361561001657005b005b60003560e01c806304ce9f80146104d85780630609a0e3146104d357806307175c83146104ce57806309307c62146104c95780630aa4b750146104c45780630b225f1a146104bf5780630ea0d222146104ba57806312065fe0146104b557806314be92a5146104b057806315a544ed146104ab5780631605aed9146104a657806316f0115b146104a1578063179b570a1461049c578063192b48ee146104975780631ef6a864146104925780631f185d161461048d578063203bab661461048857806326c5adae14610483578063298fc4601461047e578063339459a6146104795780633688236d146104745780633b9b79551461046f5780633eb71c061461046a5780634151331d14610465578063438fe1921461046057806344ec16bc1461045b5780634b62954f1461045657806353423e8614610451578063541d76671461044c57806354541683146104475780635640dbfc14610442578063592a02a81461043d5780635962205f146104385780635a0e90381461043357806368400cb31461042e5780636c7deb5d146104295780636f092c5e146104245780637687e3711461041f57806378ef376f1461041a5780637bc908c61461041557806382a3c50314610410578063840bbc1e1461040b5780638da5cb5b1461040657806391fc8aa8146104015780639319d0b5146103fc57806395cea094146103f75780639d80ab9b146103f25780639eb8b44e146103ed5780639f70207d146103e8578063a19841dd146103e3578063a1f7f539146103de578063a88fcea6146103d9578063ac14611a146103d4578063aebcd32a146103cf578063af0b21d3146103ca578063af484526146103c5578063b3386775146103c0578063b49c064c146103bb578063b85f1f8d146103b6578063b90306ad146103b1578063c54e44b0146103ac578063c5a136d4146103a7578063d0bb2ddf146103a2578063dbad649c1461039d578063e01ad5fd14610398578063e0a9bc2b14610393578063e19a5bcf1461038e578063e6a7791914610389578063eddd0d9c14610384578063f27c35c61461037f578063f2a6bbc71461037a578063f4fe8e3c14610375578063f5de7bd214610370578063f7a9783e1461036b578063fc0e74d1146103665763fdc10bc90361000e576127aa565b612787565b61270e565b6126b3565b612647565b6125f8565b61254d565b6124fe565b612404565b612348565b61232d565b612262565b612244565b6121ee565b612151565b6120cb565b611fca565b611f90565b611f6d565b611f4f565b611f1e565b611f00565b611e98565b611e46565b611e28565b611db3565b611d77565b611d59565b611b82565b611b03565b611ae5565b611a96565b611a78565b611a51565b6119d8565b611934565b611916565b6118c7565b61185f565b611833565b6117e4565b6117c6565b61178d565b611725565b611626565b6115a5565b611587565b611511565b6114f3565b61149e565b61144f565b611431565b6113ee565b61139f565b611378565b61135a565b610c77565b610c0f565b610b25565b610a9a565b6109b3565b6108ec565b61085c565b610807565b6107b6565b610798565b61077a565b61072b565b61070f565b6106f1565b6106d3565b6106b5565b610660565b610642565b61059f565b3461059a57604036600319011261059a57600080808060243560043560018114610564575b600214610532575b509061052e91604051948594859094939260609260808301968352602083015260408201520152565b0390f35b60215460225460235460255492975090955061052e945092501161055c576026545b929091610505565b602454610554565b935093505050601d5491601e54601f54918060255411156000146105905760026026545b9490506104fd565b6002602054610588565b600080fd5b3461059a57602036600319011261059a576105b8612c79565b15610618576105c633612cfe565b8015610604575b156105da57600435602b55005b60046040517fea8e4eb5000000000000000000000000000000000000000000000000000000008152fd5b50336001600160a01b0360055416146105cd565b60046040517f9dc4246e000000000000000000000000000000000000000000000000000000008152fd5b3461059a57600036600319011261059a576020603254604051908152f35b3461059a57604036600319011261059a57610679612c79565b156106185761068733612cfe565b80156106a1575b156105da57600435603455602435603555005b50336001600160a01b03600554161461068e565b3461059a57600036600319011261059a576020603a54604051908152f35b3461059a57600036600319011261059a576020604954604051908152f35b3461059a57600036600319011261059a576020603054604051908152f35b3461059a57600036600319011261059a57602047604051908152f35b3461059a57602036600319011261059a57610744612c79565b156106185761075233612cfe565b8015610766575b156105da57600435603055005b50336001600160a01b036005541614610759565b3461059a57600036600319011261059a576020603554604051908152f35b3461059a57600036600319011261059a576020603454604051908152f35b3461059a57600036600319011261059a5760e0601654601754601854601954601a5490601b5492601c5494604051968752602087015260408601526060850152608084015260a083015260c0820152f35b3461059a57604036600319011261059a57610820612c79565b156106185761082e33612cfe565b8015610848575b156105da57600435602555602435602655005b50336001600160a01b036005541614610835565b3461059a57602036600319011261059a57600435610878612c79565b156106185761088633612cfe565b80156108b6575b156105da57670de0b6b3a7640000908181029181830414901517156108b157603355005b612ea4565b50336001600160a01b03600554161461088d565b60a090600319011261059a576004359060243590604435906064359060843590565b3461059a576108fa366108ca565b9061090794929394612c79565b156106185761091533612cfe565b801561098e575b156105da5760029361092c612f55565b9586526020860152604085015260608401526001811461096c575b1461094e57005b8051603f556020810151604090815581015160415560600151604255005b8251603b556020830151603c556040830151603d556060830151603e55610947565b50336001600160a01b03600554161461091c565b6001600160a01b0381160361059a57565b3461059a5760208060031936011261059a57610a326004356109d4816109a2565b6001600160a01b038060025416906040519216848301528382526109f782612899565b60405190610a0482612899565b601182527f69735369676e657228616464726573732900000000000000000000000000000085830152612db8565b919080610a90575b15610a66578181610a549261052e94518301019101612c64565b60405190151581529081906020820190565b60046040517f3204506f000000000000000000000000000000000000000000000000000000008152fd5b5080825114610a3a565b3461059a5760e036600319011261059a57610ab3612c79565b1561061857610ac133612cfe565b8015610b11575b156105da57610ad8604051612824565b600435601655602435601755604435601855606435601955610afb608435601a55565b610b0660a435601b55565b61001660c435601c55565b50336001600160a01b036005541614610ac8565b3461059a57602036600319011261059a57600460206001600160a01b0360005416604051928380926369e8d84b60e11b82525afa8015610c0057610b8391600091610bd2575b50610b74612fb3565b90610b7d612fcb565b90612e66565b60325490670de0b6b3a7640000918281029281840414901517156108b15761052e91610bbd610bc292610bb860043593612eba565b612eea565b612ed7565b6040519081529081906020820190565b610bf3915060203d8111610bf9575b610beb81836128d1565b8101906128f3565b38610b6b565b503d610be1565b61290b565b8015150361059a57565b3461059a57602036600319011261059a57600435610c2c81610c05565b610c34612c79565b1561061857610c4233612cfe565b8015610c63575b156105da5760ff8019604a54169115151617604a55600080f35b50336001600160a01b036005541614610c49565b3461059a57600036600319011261059a57610ca9610c9d6000546001600160a01b031690565b6001600160a01b031690565b604051907f97f3815a000000000000000000000000000000000000000000000000000000008252602082600481845afa918215610c0057600092611339575b50604051917fcfbffe53000000000000000000000000000000000000000000000000000000008352602083600481855afa928315610c0057600093611318575b50604051907fab6e844f000000000000000000000000000000000000000000000000000000008252602082600481865afa918215610c00576000926112f7575b50604051917f14d8d024000000000000000000000000000000000000000000000000000000008352602083600481875afa928315610c00576000936112d6575b50604051927fd1f956b1000000000000000000000000000000000000000000000000000000008452602084600481885afa938415610c00576000946112b5575b50604051937fe61dfd58000000000000000000000000000000000000000000000000000000008552602085600481895afa948515610c0057600095611294575b506040517fe09d394d0000000000000000000000000000000000000000000000000000000081526020816004818a5afa908115610c0057600091611275575b506040517f52b06d640000000000000000000000000000000000000000000000000000000081526020816004818b5afa908115610c0057600091611256575b506040517f013cf08b00000000000000000000000000000000000000000000000000000000815260006004820152916020836024818c5afa928315610c0057600093611235575b50604051977f5e09dbe70000000000000000000000000000000000000000000000000000000089526020896004818d5afa948515610c0057600499600096611214575b5060208b6040519b8c80927faa0ddc160000000000000000000000000000000000000000000000000000000082525afa968715610c005760049a6000986111f3575b5060208c6040519c8d80927f640274270000000000000000000000000000000000000000000000000000000082525afa988915610c005760049b60009a6111d2575b5060208d6040519d8e80927f30125cf50000000000000000000000000000000000000000000000000000000082525afa9a8b15610c00578d60049d60009d6111b0575b506020906040519e8f80927f24768d910000000000000000000000000000000000000000000000000000000082525afa9c8d15610c005760009d61118f575b50604051809e81907f9dc969a80000000000000000000000000000000000000000000000000000000082525a92600491602094fa9d8e15610c005760009e61116e575b50611082612917565b6001600160a01b0390911681529d8e906001600160a01b03166020820152604001906110b691906001600160a01b03169052565b6001600160a01b031660608d01526001600160a01b031660808c01526001600160a01b031660a08b01526001600160a01b031660c08a01526001600160a01b031660e08901526001600160a01b03166101008801526001600160a01b03166101208701526001600160a01b03166101408601526001600160a01b03166101608501526001600160a01b03166101808401526001600160a01b03166101a08301526001600160a01b03166101c082015261001690612947565b611188919e5060203d602011610bf957610beb81836128d1565b9c38611079565b6111a9919d5060203d602011610bf957610beb81836128d1565b9b38611036565b6020919d506111cb90823d8411610bf957610beb81836128d1565b9c90610ff7565b6111ec919a5060203d602011610bf957610beb81836128d1565b9838610fb4565b61120d91985060203d602011610bf957610beb81836128d1565b9638610f72565b61122e91965060203d602011610bf957610beb81836128d1565b9438610f30565b61124f91935060203d602011610bf957610beb81836128d1565b9138610eed565b61126f915060203d602011610bf957610beb81836128d1565b38610ea6565b61128e915060203d602011610bf957610beb81836128d1565b38610e67565b6112ae91955060203d602011610bf957610beb81836128d1565b9338610e28565b6112cf91945060203d602011610bf957610beb81836128d1565b9238610de8565b6112f091935060203d602011610bf957610beb81836128d1565b9138610da8565b61131191925060203d602011610bf957610beb81836128d1565b9038610d68565b61133291935060203d602011610bf957610beb81836128d1565b9138610d28565b61135391925060203d602011610bf957610beb81836128d1565b9038610ce8565b3461059a57600036600319011261059a576020602f54604051908152f35b3461059a57600036600319011261059a5760206001600160a01b0360005416604051908152f35b3461059a57602036600319011261059a576113b8612c79565b15610618576113c633612cfe565b80156113da575b156105da57600435603a55005b50336001600160a01b0360055416146113cd565b3461059a57602036600319011261059a57600435600052601460205260606040600020805490600260018201549101549060405192835260208301526040820152f35b3461059a57600036600319011261059a576020602d54604051908152f35b3461059a57602036600319011261059a57611468612c79565b156106185761147633612cfe565b801561148a575b156105da57600435602c55005b50336001600160a01b03600554161461147d565b3461059a57604036600319011261059a576114b7612c79565b15610618576114c533612cfe565b80156114df575b156105da57600435602e55602435602f55005b50336001600160a01b0360055416146114cc565b3461059a57600036600319011261059a576020603154604051908152f35b3461059a57602036600319011261059a57600460206001600160a01b0360005416604051928380926369e8d84b60e11b82525afa8015610c0057611566610bc29161052e93600091610bd25750610b74612fb3565b6004356000526012602052610bb8611582604060002054612eba565b612eba565b3461059a57600036600319011261059a576020602c54604051908152f35b3461059a57600036600319011261059a5760c060275460ff60285460295490604051938452602084015281811615156040840152818160081c1615156060840152818160101c161515608084015260181c16151560a0820152f35b60c090600319011261059a57600435906024359060443590606435906084359060a43590565b3461059a5761163436611600565b90611640959295612c79565b156106185761164e33612cfe565b8015611711575b156105da5760108310156116cd576100169561169e946040519661167888612845565b875260208701526040860152606085015260808401526000526015602052604060002090565b906080600491805184556020810151600185015560408101516002850155606081015160038501550151910155565b606460405162461bcd60e51b815260206004820152600d60248201527f696e76616c6964206c6576656c000000000000000000000000000000000000006044820152fd5b50336001600160a01b036005541614611655565b3461059a57602036600319011261059a5760043560005260156020526040600020805461052e6001830154926002810154906004600382015491015491604051958695869192608093969594919660a084019784526020840152604083015260608201520152565b3461059a57600036600319011261059a57601d54601e54601f546020805460408051958652918501939093528301526060820152608090f35b3461059a57600036600319011261059a576020603854604051908152f35b3461059a57602036600319011261059a576117fd612c79565b156106185761180b33612cfe565b801561181f575b156105da57600435603155005b50336001600160a01b036005541614611812565b3461059a57602036600319011261059a5760043560005260126020526020604060002054604051908152f35b3461059a57602036600319011261059a5760043561187c81610c05565b611884612c79565b156106185761189233612cfe565b80156118b3575b156105da5760ff8019602a54169115151617602a55600080f35b50336001600160a01b036005541614611899565b3461059a57602036600319011261059a576118e0612c79565b15610618576118ee33612cfe565b8015611902575b156105da57600435603655005b50336001600160a01b0360055416146118f5565b3461059a57600036600319011261059a576020603654604051908152f35b3461059a5760c036600319011261059a57600435611951816109a2565b60643561195d816109a2565b611965612c79565b156106185761197333612cfe565b80156119c4575b156105da576001600160a01b0390816001600160a01b031993168360435416176043556024356044556044356045551690604654161760465560843560475560a435604855600080f35b50336001600160a01b03600554161461197a565b3461059a57602036600319011261059a57600460206001600160a01b0360005416604051928380926369e8d84b60e11b82525afa908115610c0057611a3f611a3761052e93670de0b6b3a764000093600091610bd25750610b74612fb3565b600435612ed7565b04604051918291829190602083019252565b3461059a57600036600319011261059a5760206001600160a01b0360015416604051908152f35b3461059a57600036600319011261059a576020603354604051908152f35b3461059a57602036600319011261059a57611aaf612c79565b1561061857611abd33612cfe565b8015611ad1575b156105da57600435602d55005b50336001600160a01b036005541614611ac4565b3461059a57600036600319011261059a576020603954604051908152f35b3461059a57600036600319011261059a57603b54603c54603d54603e54604080519485526020850193909352918301526060820152608090f35b6102a0810192916000915b60078310611b5557505050565b60019060608351918251815260209283810151848301526040809101519082015201920192019190611b48565b3461059a57600080600319360112611d56576040908151611ba281612824565b815b60e08110611d315761052e84611bb8612938565b6001600052601460205290611bf17fb6c61a840592cc84133e4b25bd509abf4659307c57b160799b38490a5aa48f2c612f8b565b612f8b565b825260026000526014602052611c267fa1930aa930426c54c34daad2b9ada7c5d0ef0c96078a3c5bb79f6fa6602c4a7a612f8b565b6020830152611c43611bec60036000526014602052604060002090565b8282015260046000526014602052611c7a7f52102136546d97ed3f65ec1070a32935d3048ea12f310d29c378dc9d6555c0d6612f8b565b606083015260056000526014602052611cb27f116126bec5aaa49b347e966c49378cf0c441de9121e306ea3d824584a9615aa2612f8b565b608083015260066000526014602052611cea7fe1f6b6a5fb7e47dad87547d4b0671e7e995a1dae22fbe5b3b5d10e2a77ed7aff612f8b565b60a083015260076000526014602052611d227f904977a779b22381a36c6463d4166ef55ee8cb3392c83093cb1750f1a00c9d94612f8b565b60c08301525191829182611b3d565b6020908451611d3f81612861565b848152848382015284868201528184015201611ba4565b80fd5b3461059a57600036600319011261059a576020602554604051908152f35b3461059a57600036600319011261059a57603f546040805460415460425483519485526020850192909252918301919091526060820152608090f35b3461059a57600036600319011261059a576020611e206001600160a01b0360065416604051611de181612899565b601381527f67657464656c656761746f72436f756e742829000000000000000000000000008482015260405191611e17836128b5565b60008352612e66565b604051908152f35b3461059a57600036600319011261059a576020602e54604051908152f35b3461059a57600036600319011261059a57601154614d588082018092116108b15742018042116108b15761012c809104910481039081116108b15761011e81018091116108b157602090604051908152f35b3461059a57602036600319011261059a5760043560005260136020526040600020805461052e6001830154926002810154906004600382015491015491604051958695869192608093969594919660a084019784526020840152604083015260608201520152565b3461059a57600036600319011261059a576020602b54604051908152f35b3461059a57602036600319011261059a576020611f45600435611f40816109a2565b612cfe565b6040519015158152f35b3461059a57600036600319011261059a576020603754604051908152f35b3461059a57600036600319011261059a57602060ff604a54166040519015158152f35b3461059a57600036600319011261059a57602154602254602354602454604080519485526020850193909352918301526060820152608090f35b3461059a57602036600319011261059a576004356001600160a01b036005541633036105da576000906004602061200b610c9d85546001600160a01b031690565b604051928380927f46f991ac0000000000000000000000000000000000000000000000000000000082525afa8015610c0057838084819493829483916120ad575b505af1612057612d88565b5015610a66577fcdcc745fe377b103b45fa0cec23ae3ef93d6fc6a84a01f0d18c40b354dd1d5d86120a7612096610c9d600b546001600160a01b031690565b604051938452929081906020820190565b0390a280f35b6120c5915060203d8111610bf957610beb81836128d1565b3861204c565b3461059a57602036600319011261059a576004356120e8816109a2565b803b60006120f582612c48565b9261210360405194856128d1565b82845260208401903c602d81511061212757602a602091015160601c604051908152f35b60046040517fbaf3f0f7000000000000000000000000000000000000000000000000000000008152fd5b3461059a57608036600319011261059a5760043561216d612c79565b156106185761217b33612cfe565b80156121da575b156105da5761219360088210612f0a565b6002604051916121a283612861565b602435835260208301604435815260408401916064358352600052601460205260406000209351845551600184015551910155600080f35b50336001600160a01b036005541614612182565b3461059a57600036600319011261059a5760c06001600160a01b038060435416906044549060455490604654166047549160485493604051958652602086015260408501526060840152608083015260a0820152f35b3461059a57600036600319011261059a576020602654604051908152f35b3461059a5760208060031936011261059a5761052e9060043590612285826109a2565b6122e96001600160a01b03928360065416936040519116838201528281526122ac81612899565b6040516122b881612899565b601881527f697364656c656761746f724e6f6465286164647265737329000000000000000084820152600094612db8565b919080612323575b61230a575b505060405190151581529081906020820190565b61231c92508082518301019101612c64565b38806122f6565b50808251146122f1565b3461059a57600036600319011261059a576020611f45612c79565b3461059a57612356366108ca565b9061236394929394612c79565b156106185761237133612cfe565b80156123f0575b156105da57600293612388612f55565b958652602086015260408501526060840152600181146123c8575b146123aa57005b80516021556020810151602255604081015160235560600151602455005b6123eb836060908051601d556020810151601e556040810151601f550151602055565b6123a3565b50336001600160a01b036005541614612378565b3461059a5760c036600319011261059a5760443561242181610c05565b6064359061242e82610c05565b6084359061243b82610c05565b60a4359161244883610c05565b612450612c79565b156106185761245e33612cfe565b80156124ea575b156105da57610016936124a06124cb9361248060405161287d565b600435602755602435602855151560ff8019602954169115151617602955565b6029805462ffff00191691151560081b61ff00169190911791151560101b62ff000016919091179055565b151563ff00000060295491151560181b169063ff000000191617602955565b50336001600160a01b036005541614612465565b3461059a57602036600319011261059a57612517612c79565b156106185761252533612cfe565b8015612539575b156105da57600435603255005b50336001600160a01b03600554161461252c565b3461059a5761255b36611600565b91612567959395612c79565b156106185761257533612cfe565b80156125e4575b156105da57610016956040519561259287612845565b8652602086015260408501526060840152608083015260005260136020526040600020906080600491805184556020810151600185015560408101516002850155606081015160038501550151910155565b50336001600160a01b03600554161461257c565b3461059a57602036600319011261059a57612611612c79565b156106185761261f33612cfe565b8015612633575b156105da57600435604955005b50336001600160a01b036005541614612626565b3461059a57604036600319011261059a57600435612663612c79565b156106185761267133612cfe565b801561269f575b156105da5761268960088210612f0a565b6000526012602052602435604060002055600080f35b50336001600160a01b036005541614612678565b3461059a57606036600319011261059a576126cc612c79565b15610618576126da33612cfe565b80156126fa575b156105da57600435603855602435603755604435603955005b50336001600160a01b0360055416146126e1565b3461059a57602036600319011261059a57600435600460206001600160a01b0360005416604051928380926369e8d84b60e11b82525afa8015610c005761275f91600091610bd25750610b74612fb3565b90670de0b6b3a7640000908181029181830414901517156108b15761052e91610bc291612eea565b3461059a57600036600319011261059a57602060ff602a54166040519015158152f35b3461059a57600036600319011261059a576020611e206001600160a01b03600354166040516127d881612899565b600681527f69416765282900000000000000000000000000000000000000000000000000008482015260405191611e17836128b5565b634e487b7160e01b600052604160045260246000fd5b60e0810190811067ffffffffffffffff82111761284057604052565b61280e565b60a0810190811067ffffffffffffffff82111761284057604052565b6060810190811067ffffffffffffffff82111761284057604052565b60c0810190811067ffffffffffffffff82111761284057604052565b6040810190811067ffffffffffffffff82111761284057604052565b6020810190811067ffffffffffffffff82111761284057604052565b90601f8019910116810190811067ffffffffffffffff82111761284057604052565b9081602091031261059a5751612908816109a2565b90565b6040513d6000823e3d90fd5b604051906101e0820182811067ffffffffffffffff82111761284057604052565b6040519061294582612824565b565b612c2c6101c06129459261298161296582516001600160a01b031690565b6001600160a01b03166001600160a01b03196002541617600255565b6129b461299860208301516001600160a01b031690565b6001600160a01b03166001600160a01b03196003541617600355565b6129e76129cb60408301516001600160a01b031690565b6001600160a01b03166001600160a01b03196004541617600455565b612a1a6129fe60608301516001600160a01b031690565b6001600160a01b03166001600160a01b03196005541617600555565b612a4d612a3160808301516001600160a01b031690565b6001600160a01b03166001600160a01b03196006541617600655565b612a80612a6460a08301516001600160a01b031690565b6001600160a01b03166001600160a01b03196007541617600755565b612ab3612a9760c08301516001600160a01b031690565b6001600160a01b03166001600160a01b03196008541617600855565b612ae6612aca60e08301516001600160a01b031690565b6001600160a01b03166001600160a01b03196009541617600955565b612b1a612afe6101008301516001600160a01b031690565b6001600160a01b03166001600160a01b0319600a541617600a55565b612b4e612b326101208301516001600160a01b031690565b6001600160a01b03166001600160a01b0319600b541617600b55565b612b82612b666101408301516001600160a01b031690565b6001600160a01b03166001600160a01b0319600c541617600c55565b612bb6612b9a6101608301516001600160a01b031690565b6001600160a01b03166001600160a01b0319600d541617600d55565b612bea612bce6101808301516001600160a01b031690565b6001600160a01b03166001600160a01b0319600e541617600e55565b612c1e612c026101a08301516001600160a01b031690565b6001600160a01b03166001600160a01b0319600f541617600f55565b01516001600160a01b031690565b6001600160a01b03166001600160a01b03196010541617601055565b67ffffffffffffffff811161284057601f01601f191660200190565b9081602091031261059a575161290881610c05565b612cd46001600160a01b0360025416604051612c9481612899565b600881527f6973536166652829000000000000000000000000000000000000000000000000602082015260405191612ccb836128b5565b60008352612db8565b9080612cf3575b15610a66578060208061290893518301019101612c64565b506020815114612cdb565b612d616001600160a01b038060025416604051916020941684830152838252612d2682612899565b60405190612d3382612899565b601582527f697353656375726542617365286164647265737329000000000000000000000085830152612db8565b9080612d7e575b15610a6657816129089282518301019101612c64565b5081815114612d68565b3d15612db3573d90612d9982612c48565b91612da760405193846128d1565b82523d6000602084013e565b606090565b9190823b15612e4d577fffffffff00000000000000000000000000000000000000000000000000000000815160208093012016916040519180830193845281519160005b838110612e39575050509181612e29602482600097959688970187838201520360048101845201826128d1565b51915afa612e35612d88565b9091565b818101830151858201602401528201612dfc565b505050600090604051612e5f816128b5565b6000815290565b9291612e7491600094612db8565b9080612e99575b612e825750565b90915060208180518101031261059a576020015190565b506020815114612e7b565b634e487b7160e01b600052601160045260246000fd5b90670de0b6b3a7640000918281029281840414901517156108b157565b818102929181159184041417156108b157565b8115612ef4570490565b634e487b7160e01b600052601260045260246000fd5b15612f1157565b606460405162461bcd60e51b815260206004820152600c60248201527f696e76616c69642072616e6b00000000000000000000000000000000000000006044820152fd5b604051906080820182811067ffffffffffffffff8211176128405760405260006060838281528260208201528260408201520152565b90604051612f9881612861565b60406002829480548452600181015460208501520154910152565b604051612fbf816128b5565b60008152906000368137565b60405190612fd882612899565b601282527f6f7a6f6e655072696365496e5553445428290000000000000000000000000000602083015256fea26469706673582212207a407f883bf4dcfdefa3f151e2a0350caa350a49641c5c745bd9103b3377983764736f6c63430008140033","linkReferences":{}},"methodIdentifiers":{"invalidator()":"52b06d64","rule741()":"0a5b38ab","transferRequest()":"3da8676f"},"id":77}