{"abi":[{"type":"constructor","inputs":[{"name":"_hex","type":"address","internalType":"address"}],"stateMutability":"nonpayable"},{"type":"function","name":"invalidator","inputs":[],"outputs":[{"name":"","type":"address","internalType":"address"}],"stateMutability":"view"},{"type":"function","name":"rule741","inputs":[],"outputs":[{"name":"","type":"address","internalType":"address"}],"stateMutability":"view"},{"type":"function","name":"transferRequest","inputs":[],"outputs":[{"name":"","type":"address","internalType":"address"}],"stateMutability":"view"}],"bytecode":{"object":"0x6080346200018657601f6200a07338819003918201601f19168301926001600160401b0392909183851183861017620001705781602092849260409788528339810103126200018657516001600160a01b0390818116908190036200018657835190614559918281019281841086851117620001705762005b1a823981835260208160009403019083f0938415620001665782549484166001600160a01b031995861617835585516132a080820190828210848311176200015257602091839162000298833985815203019084f08015620001485784168560015416176001558551916125e280840192848410908411176200013457918391602093620035388439815203019082f0908115620001295750169060025416176002555161010c90816200018c8239f35b8451903d90823e3d90fd5b634e487b7160e01b85526041600452602485fd5b86513d85823e3d90fd5b634e487b7160e01b86526041600452602486fd5b85513d84823e3d90fd5b634e487b7160e01b600052604160045260246000fd5b600080fdfe6080806040526004361015601257600080fd5b600090813560e01c9081630a5b38ab1460a4575080633da8676f146072576352b06d6414603e57600080fd5b34606f5780600319360112606f57602073ffffffffffffffffffffffffffffffffffffffff60025416604051908152f35b80fd5b5034606f5780600319360112606f57602073ffffffffffffffffffffffffffffffffffffffff60015416604051908152f35b90503460d2578160031936011260d25773ffffffffffffffffffffffffffffffffffffffff60209254168152f35b5080fdfea2646970667358221220ad7576492d9ded47e6dd7cd851f2c8abaaaf676a623739e6f11ba4a5a046534e64736f6c63430008140033608034620000a357601f620032a038819003918201601f19168301916001600160401b03831184841017620000a857808492602094604052833981010312620000a357516001600160a01b03811690819003620000a3578015620000915760018060a01b0319338160015416176001556000541617600055600160115560016016556040516131e19081620000bf8239f35b60405163e6c4247b60e01b8152600490fd5b600080fd5b634e487b7160e01b600052604160045260246000fdfe60806040526004361015610018575b361561001657005b005b60003560e01c806312065fe0146102085780631480a85b1461020357806318c864e3146101fe5780631f185d16146101f9578063339459a6146101f45780633676bd1f146101ef5780633b9b7955146101ea578063479fa2c3146101e55780634ef260a9146101e057806355ed5fee146101db57806385301b86146101d65780638d6edc14146101d15780638da5cb5b146101cc57806396970c96146101c7578063a1f7f539146101c2578063ab7e46ae146101bd578063ac233345146101b8578063af484526146101b3578063b8f1759a146101ae578063b90306ad146101a9578063c1e6cec2146101a4578063c54e44b01461019f578063c9a291501461019a578063cab3cc8d14610195578063e01ad5fd14610190578063e0a9bc2b1461018b578063e846034a14610186578063e981bcad14610181578063ed6c1b581461017c578063f245fe7a146101775763fdc10bc90361000e57611f02565b611739565b61160b565b611566565b611548565b61152d565b611462565b611444565b6113e4565b61135e565b611320565b611212565b6111b8565b611187565b61114f565b6110f5565b611080565b611040565b611019565b610ffb565b610ebd565b610d4d565b610c94565b610bc6565b610b9f565b610aea565b610569565b610482565b610431565b61023a565b3461022457600036600319011261022457602047604051908152f35b600080fd5b6001600160a01b0381160361022457565b34610224576040806003193601126102245760043561025881610229565b60243561026481610229565b6001600160a01b03808316156103cc57811680156103cc57600052601260205282600020546103895761033b610321610305610356949561031360016102a8611f1d565b5080546001600160a01b0319166001600160a01b038b161781550180546001600160a01b0319166001600160a01b038816178155976004546001600160a01b031692516001600160a01b0390911660208201529283906040820190565b03601f198101845283610df6565b61031b611f8c565b9061300e565b916001600160a01b03166000526013602052604060002090565b906001600160a01b03166001600160a01b0319825416179055565b61038661036d60145492546001600160a01b031690565b6001600160a01b03166000526012602052604060002090565b55005b6064835162461bcd60e51b815260206004820152601260248201527f70726f706f7365722e746f2e65786973747300000000000000000000000000006044820152fd5b6004845163e6c4247b60e01b8152fd5b634e487b7160e01b600052603260045260246000fd5b60145481101561042c57601460005260011b7fce6d7b5282bd9a3661ae061feed1dbda4e52ab073b1f9285be6e155d9c38d4ec0190600090565b6103dc565b346102245760203660031901126102245760043560145481101561022457610458906103f2565b508054600190910154604080516001600160a01b03938416815292909116602083015290f35b0390f35b3461022457602080600319360112610224576105016004356104a381610229565b6001600160a01b038060025416906040519216848301528382526104c682610da2565b604051906104d382610da2565b601182527f69735369676e657228616464726573732900000000000000000000000000000085830152612f60565b91908061055f575b156105355781816105239261047e94518301019101612d90565b60405190151581529081906020820190565b60046040517f3204506f000000000000000000000000000000000000000000000000000000008152fd5b5080825114610509565b346102245760003660031901126102245761059b61058f6000546001600160a01b031690565b6001600160a01b031690565b60405190634bf9c0ad60e11b8252602082600481845afa91821561091a57600092610ac9575b506040519163cfbffe5360e01b8352602083600481855afa92831561091a57600093610aa8575b506040519063ab6e844f60e01b8252602082600481865afa91821561091a57600092610a87575b5060405191630536340960e21b8352602083600481875afa92831561091a57600093610a66575b506040519263d1f956b160e01b8452602084600481885afa93841561091a57600094610a45575b5060405193631cc3bfab60e31b8552602085600481895afa94851561091a57600095610a24575b5060405163e09d394d60e01b81526020816004818a5afa90811561091a57600091610a05575b506040516314ac1b5960e21b81526020816004818b5afa90811561091a576000916109e6575b5060405163013cf08b60e01b815260006004820152916020836024818c5afa92831561091a576000936109c5575b5060405197635e09dbe760e01b89526020896004818d5afa94851561091a576004996000966109a4575b5060208b6040519b8c8092635506ee0b60e11b82525afa96871561091a5760049a600098610983575b5060208c6040519c8d8092636402742760e01b82525afa98891561091a5760049b60009a610962575b5060208d6040519d8e80926330125cf560e01b82525afa9a8b1561091a578d60049d60009d610940575b506020906040519e8f80926324768d9160e01b82525afa9c8d1561091a5760009d61091f575b50604051809e81906313b92d3560e31b82525a92600491602094fa9d8e1561091a5760009e6108e9575b506107fd610e18565b6001600160a01b0390911681529d8e906001600160a01b031660208201526040019061083191906001600160a01b03169052565b6001600160a01b031660608d01526001600160a01b031660808c01526001600160a01b031660a08b01526001600160a01b031660c08a01526001600160a01b031660e08901526001600160a01b03166101008801526001600160a01b03166101208701526001600160a01b03166101408601526001600160a01b03166101608501526001600160a01b03166101808401526001600160a01b03166101a08301526001600160a01b03166101c082015261001690612a8f565b61090c919e5060203d602011610913575b6109048183610df6565b8101906124c0565b9c386107f4565b503d6108fa565b6124d5565b610939919d5060203d602011610913576109048183610df6565b9b386107ca565b6020919d5061095b90823d8411610913576109048183610df6565b9c906107a4565b61097c919a5060203d602011610913576109048183610df6565b983861077a565b61099d91985060203d602011610913576109048183610df6565b9638610751565b6109be91965060203d602011610913576109048183610df6565b9438610728565b6109df91935060203d602011610913576109048183610df6565b91386106fe565b6109ff915060203d602011610913576109048183610df6565b386106d0565b610a1e915060203d602011610913576109048183610df6565b386106aa565b610a3e91955060203d602011610913576109048183610df6565b9338610684565b610a5f91945060203d602011610913576109048183610df6565b923861065d565b610a8091935060203d602011610913576109048183610df6565b9138610636565b610aa191925060203d602011610913576109048183610df6565b903861060f565b610ac291935060203d602011610913576109048183610df6565b91386105e8565b610ae391925060203d602011610913576109048183610df6565b90386105c1565b3461022457602036600319011261022457610b036120b1565b610b0b612da4565b15610b7557610b1933612e29565b8015610b61575b15610b3757610b306004356126b5565b6001601155005b60046040517fea8e4eb5000000000000000000000000000000000000000000000000000000008152fd5b50336001600160a01b036005541614610b20565b60046040517f9dc4246e000000000000000000000000000000000000000000000000000000008152fd5b346102245760003660031901126102245760206001600160a01b0360005416604051908152f35b346102245760203660031901126102245760043580151580610c88575b15610c44576000198101908111610c3f57610bfd906103f2565b50610c236001610c1483546001600160a01b031690565b9201546001600160a01b031690565b604080516001600160a01b039384168152919092166020820152f35b611fc5565b606460405162461bcd60e51b815260206004820152601760248201527f70726f706f7365722e696e76616c69642e666f726d69640000000000000000006044820152fd5b50601454811115610be3565b3461022457602036600319011261022457600435610cb181610229565b6001600160a01b038116600091818352601260205260408320549081151580610d41575b610cdd578380f35b6000198201918211610c3f57610d3a92610cf9610d2a936103f2565b505084526012602052836040812055610d118161204b565b6001600160a01b03166000526013602052604060002090565b6001600160a01b03198154169055565b3880808380f35b50601454821115610cd5565b34610224576000366003190112610224576020601654604051908152f35b634e487b7160e01b600052604160045260246000fd5b60e0810190811067ffffffffffffffff821117610d9d57604052565b610d6b565b6040810190811067ffffffffffffffff821117610d9d57604052565b6020810190811067ffffffffffffffff821117610d9d57604052565b6080810190811067ffffffffffffffff821117610d9d57604052565b90601f8019910116810190811067ffffffffffffffff821117610d9d57604052565b604051906101e0820182811067ffffffffffffffff821117610d9d57604052565b80606312156102245760405190610e4f82610d81565b81610124918211610224576044905b828210610e6b5750505090565b8135815260209182019101610e5e565b8060c312156102245760405190610e9182610d81565b816101849182116102245760a4905b828210610ead5750505090565b8135815260209182019101610ea0565b346102245761012036600319011261022457610ed836610e39565b610ee06120b1565b610ee8612da4565b15610b7557610ef633612e29565b8015610fe7575b15610b37576004906020610f1c61058f6000546001600160a01b031690565b604051938480926369e8d84b60e11b82525afa90811561091a57610f80610fb292610fbe94600091610fc9575b506040516315ec7fad60e01b60208201526004356024820152610f859080604481015b0392610f80601f1994858101845283610df6565b6130e7565b506004546001600160a01b031692604051948591637818cdd760e01b602084015260243560248401612a58565b03908101845283610df6565b506100166001601155565b610fe1915060203d8111610913576109048183610df6565b38610f49565b50336001600160a01b036005541614610efd565b34610224576000366003190112610224576020601754604051908152f35b346102245760003660031901126102245760206001600160a01b0360015416604051908152f35b3461022457602036600319011261022457602060043561105f81610229565b6001600160a01b038091166000526013825260406000205416604051908152f35b346102245760003660031901126102245760206110ed6001600160a01b03600654166040516110ae81610da2565b601381527f67657464656c656761746f72436f756e7428290000000000000000000000000084820152604051916110e483610dbe565b6000835261305f565b604051908152f35b3461022457602036600319011261022457600435601554811015610224576001600160a01b0360209160156000527f55f448fdea98c4d29eb340757ef0a66cd03dbb9538908a6a81d96026b71ec475015416604051908152f35b3461022457602036600319011261022457602061117660043561117181610229565b611ff7565b6001600160a01b0360405191168152f35b346102245760203660031901126102245760206111ae6004356111a981610229565b612e29565b6040519015158152f35b346102245760203660031901126102245760043560155481101561042c576001600160a01b0360209160156000527f55f448fdea98c4d29eb340757ef0a66cd03dbb9538908a6a81d96026b71ec475015416604051908152f35b346102245760203660031901126102245760043561122e612da4565b15610b75576001600160a01b03600554163303610b37576000906004602061126061058f85546001600160a01b031690565b604051928380927f46f991ac0000000000000000000000000000000000000000000000000000000082525afa801561091a5783808481949382948391611302575b505af16112ac612f05565b5015610535577fcdcc745fe377b103b45fa0cec23ae3ef93d6fc6a84a01f0d18c40b354dd1d5d86112fc6112eb61058f600b546001600160a01b031690565b604051938452929081906020820190565b0390a280f35b61131a915060203d8111610913576109048183610df6565b386112a1565b34610224576020366003190112610224576001600160a01b0360043561134581610229565b1660005260126020526020604060002054604051908152f35b346102245760203660031901126102245760043561137b81610229565b803b600061138882611f70565b926113966040519485610df6565b82845260208401903c602d8151106113ba57602a602091015160601c604051908152f35b60046040517fbaf3f0f7000000000000000000000000000000000000000000000000000000008152fd5b34610224576060366003190112610224576113fd6120b1565b611405612da4565b15610b755761141333612e29565b8015611430575b15610b3757610b3060443560243560043561224c565b50336001600160a01b03600554161461141a565b34610224576000366003190112610224576020601454604051908152f35b34610224576020806003193601126102245761047e906004359061148582610229565b6114e96001600160a01b03928360065416936040519116838201528281526114ac81610da2565b6040516114b881610da2565b601881527f697364656c656761746f724e6f6465286164647265737329000000000000000084820152600094612f60565b919080611523575b61150a575b505060405190151581529081906020820190565b61151c92508082518301019101612d90565b38806114f6565b50808251146114f1565b346102245760003660031901126102245760206111ae612da4565b34610224576000366003190112610224576020601554604051908152f35b346102245760403660031901126102245761157f6120b1565b611587612da4565b15610b755761159533612e29565b80156115f7575b15610b3757610fbe6001600160a01b0360045416604051907f33b59a5b0000000000000000000000000000000000000000000000000000000060208301526004356024830152602435604483015260448252610f8082610dda565b50336001600160a01b03600554161461159c565b34610224576101803660031901126102245761162636610e7b565b61162e6120b1565b611636612da4565b15610b755761164433612e29565b8015611725575b15610b3757600490602061166a61058f6000546001600160a01b031690565b604051938480926369e8d84b60e11b82525afa90811561091a57610f80610fb2926116eb94600091611707575b506040516315ec7fad60e01b602082015260643560248201526116be908060448101610f6c565b506004546001600160a01b031692604051948591637818cdd760e01b602084015260843560248401612a58565b506116fd60443560243560043561224c565b6100166001601155565b61171f915060203d8111610913576109048183610df6565b38611697565b50336001600160a01b03600554161461164b565b3461022457600080600319360112611eff576117536120b1565b61176761058f82546001600160a01b031690565b604090815191828092634bf9c0ad60e11b8252602093849160049687915afa90811561091a578591611ee2575b506117cd82517f339459a600000000000000000000000000000000000000000000000000000000928386830152868252610f8082610da2565b5083836117e461058f88546001600160a01b031690565b8451928380926369e8d84b60e11b82525afa801561091a5761181c918791611ec5575b508351908386830152868252610f8082610da2565b50838361183361058f88546001600160a01b031690565b84519283809263ab6e844f60e01b82525afa801561091a5761186a918791611ec557508351908386830152868252610f8082610da2565b50838361188161058f88546001600160a01b031690565b84519283809263cfbffe5360e01b82525afa801561091a576118b8918791611ec557508351908386830152868252610f8082610da2565b5083836118cf61058f88546001600160a01b031690565b845192838092630536340960e21b82525afa801561091a57611906918791611ec557508351908386830152868252610f8082610da2565b50838361191d61058f88546001600160a01b031690565b84519283809263d1f956b160e01b82525afa801561091a57611954918791611ec557508351908386830152868252610f8082610da2565b50838361196b61058f88546001600160a01b031690565b845192838092631cc3bfab60e31b82525afa801561091a576119a2918791611ec557508351908386830152868252610f8082610da2565b5083836119b961058f88546001600160a01b031690565b84519283809263e09d394d60e01b82525afa801561091a576119f0918791611ec557508351908386830152868252610f8082610da2565b508383611a0761058f88546001600160a01b031690565b8451928380926314ac1b5960e21b82525afa801561091a57611a3e918791611ec557508351908386830152868252610f8082610da2565b50611a5361058f86546001600160a01b031690565b838351809263013cf08b60e01b82528180611a758a8201906000602083019252565b03915afa801561091a57611a9e918791611ec557508351908386830152868252610f8082610da2565b50611ab361058f86546001600160a01b031690565b90825184817fb771c89600000000000000000000000000000000000000000000000000000000948582528180611af08b8201906000602083019252565b03915afa801561091a57611b1a918891611ea8575b508451908387830152878252610f8082610da2565b50611b2f61058f87546001600160a01b031690565b84845180928582528180611b4a8b8201906001602083019252565b03915afa801561091a57611b73918891611ea857508451908387830152878252610f8082610da2565b50611b8861058f87546001600160a01b031690565b84845180928582528180611ba38b8201906002602083019252565b03915afa801561091a57611bcc918891611ea857508451908387830152878252610f8082610da2565b50611be161058f87546001600160a01b031690565b84845180928582528180611bfc8b8201906003602083019252565b03915afa801561091a57611c25918891611ea857508451908387830152878252610f8082610da2565b5083611c3b61058f88546001600160a01b031690565b92845193849182528180611c568a8201906004602083019252565b03915afa91821561091a578592611c83918891611e8b575b508451908387830152848252610f8082610da2565b5083611c9961058f88546001600160a01b031690565b845193848092635e09dbe760e01b82525afa91821561091a578592611cd3918891611e8b57508451908387830152848252610f8082610da2565b5083611ce961058f88546001600160a01b031690565b845193848092635506ee0b60e11b82525afa91821561091a578592611d23918891611e8b57508451908387830152848252610f8082610da2565b5083611d3961058f88546001600160a01b031690565b845193848092636402742760e01b82525afa91821561091a578592611d73918891611e8b57508451908387830152848252610f8082610da2565b5083611d8961058f88546001600160a01b031690565b8451938480926330125cf560e01b82525afa91821561091a578592611dc3918891611e8b57508451908387830152848252610f8082610da2565b5083611dd961058f88546001600160a01b031690565b8451938480926324768d9160e01b82525afa91821561091a578592611e13918891611e8b57508451908387830152848252610f8082610da2565b5083611e2961058f88546001600160a01b031690565b8451968780926313b92d3560e31b82525afa92831561091a57611e5e958794611e6c575b5051938401528252610f8082610da2565b50611e696001601155565b80f35b611e84919450853d8711610913576109048183610df6565b9238611e4d565b611ea29150863d8811610913576109048183610df6565b38611c6e565b611ebf9150863d8811610913576109048183610df6565b38611b05565b611edc9150853d8711610913576109048183610df6565b38611807565b611ef99150833d8511610913576109048183610df6565b38611794565b80fd5b346102245760003660031901126102245760206110ed612eb3565b60145468010000000000000000811015610d9d57600181018060145581101561042c57601460005260011b7fce6d7b5282bd9a3661ae061feed1dbda4e52ab073b1f9285be6e155d9c38d4ec0190600090565b67ffffffffffffffff8111610d9d57601f01601f191660200190565b60405190611f9982610da2565b601682527f6765744e6f6465506172656e74286164647265737329000000000000000000006020830152565b634e487b7160e01b600052601160045260246000fd5b600019810191908211610c3f57565b91908203918211610c3f57565b6001600160a01b0380911660005260126020526040600020548015158061203f575b612024575050600090565b6000198101908111610c3f57612039906103f2565b50541690565b50601454811115612019565b60155468010000000000000000811015610d9d57600181018060155581101561042c576001600160a01b039060156000527f55f448fdea98c4d29eb340757ef0a66cd03dbb9538908a6a81d96026b71ec4750191166001600160a01b0319825416179055565b6002601154146120c2576002601155565b60046040517f3ee5aeb5000000000000000000000000000000000000000000000000000000008152fd5b156120f357565b606460405162461bcd60e51b815260206004820152601560248201527f7574696c6974792e62617463682e696e76616c696400000000000000000000006044820152fd5b60405161214381610dbe565b60008152906000368137565b6040519061215c82610da2565b600f82527f6765744e6f646573436f756e74282900000000000000000000000000000000006020830152565b9060018201809211610c3f57565b91908201809211610c3f57565b6000198114610c3f5760010190565b604051906121bf82610da2565b601882527f6765744e6f6465496e737453746f722875696e743235362900000000000000006020830152565b9190826040910312610224576020825161220481610229565b92015161221081610229565b90565b6040519061222082610da2565b600682527f64616765282900000000000000000000000000000000000000000000000000006020830152565b8015158061241f575b61225e906120ec565b60049061228c61227583546001600160a01b031690565b61227d612137565b9061228661214f565b9061305f565b928315612418578360165411612409575b6122b26122ad6016549384612196565b611fdb565b948486116123ff575b6122cc906122c7612eb3565b611fea565b915b858111156123005750505090821090506122ef57506122ed6001601655565b565b6122fb6122ed91612188565b601655565b6123a49061231585546001600160a01b031690565b604080519061236561235760209380612335888783019190602083019252565b0395612349601f1997888101845283610df6565b6123516121b2565b90612f35565b8380825183010191016121eb565b6001600160a01b03918216929183156123f45761239491612384612137565b9161238d612213565b911661305f565b88116123a9575b505050506121a3565b6122ce565b6123ea937f9c75dd3500000000000000000000000000000000000000000000000000000000610f8092519485015283610fb289602483019190602083019252565b503880808061239b565b5050505050506121a3565b93945084936122bb565b6124136001601655565b61229d565b5050505050565b506064811115612255565b1561243157565b606460405162461bcd60e51b815260206004820152601c60248201527f7574696c6974792e62617463682e6c696d69742e6578636565646564000000006044820152fd5b1561247c57565b606460405162461bcd60e51b815260206004820152601760248201527f7574696c6974792e756e7365637572652e6661696c65640000000000000000006044820152fd5b90816020910312610224575161221081610229565b6040513d6000823e3d90fd5b156124e857565b606460405162461bcd60e51b815260206004820152601360248201527f7574696c6974792e696d706f72742e646f6e65000000000000000000000000006044820152fd5b6040519061253982610da2565b601782527f6765744e6f64654279496e6465782875696e74323536290000000000000000006020830152565b1561256c57565b606460405162461bcd60e51b815260206004820152601660248201527f70726f78792e696e76616c69642e696e7374616e6365000000000000000000006044820152fd5b604051906125bd82610da2565b601382527f496e7374546f55736572286164647265737329000000000000000000000000006020830152565b156125f057565b606460405162461bcd60e51b815260206004820152601260248201527f70726f78792e696e76616c69642e6e6f646500000000000000000000000000006044820152fd5b6040519061264182610da2565b601082527f6765744e6f6465286164647265737329000000000000000000000000000000006020830152565b5190811515820361022457565b908160a091031261022457805191602082015161269681610229565b9160408101519161221060806126ae6060850161266d565b930161266d565b6126c2606482111561242a565b6126d36126ce30612e29565b612475565b6126e861058f6000546001600160a01b031690565b60405180917f447aa30400000000000000000000000000000000000000000000000000000000825281600460209384935afa91821561091a576000926129b4575b50612743612735612137565b61273d61214f565b8461305f565b9283156129ae576127746127626122756004546001600160a01b031690565b9161276e8387116124e1565b82612196565b938085116129a6575b505b83811061278c5750505050565b6129529061294d61294860405161293f7f50db85d1000000000000000000000000000000000000000000000000000000006127f4836127d2888b83019190602083019252565b03936127e6601f1995868101835282610df6565b6127ee61252c565b8b61300e565b6001600160a01b036128098183161515612565565b8131948a8c60016128b26128a461288a61289661285e6128446128508c6040519283918c83019190916001600160a01b036020820193169052565b038b8101835282610df6565b6128586125b0565b8861300e565b9961286c8a8c1615156125e9565b6040519283918983019190916001600160a01b036020820193169052565b03888101835282610df6565b61289e612634565b85612f35565b84808251830101910161267a565b50505095909516946128c58115156125e9565b14801561299d575b612957575b50610fb2846128fc8561033b610f8097986001600160a01b03166000526013602052604060002090565b61290681806129d3565b6004546001600160a01b031695604051978894850152602484019060209093929360408301946001600160a01b03809216845216910152565b50601754612196565b601755565b6121a3565b61277f565b6040516001600160a01b03909416828501908152610f8094610fb2926129949261298c90839060200103878101845283610df6565b61031b6125b0565b9350508c6128d2565b508315156128cd565b93503861277d565b50505050565b816129cc9293503d8411610913576109048183610df6565b9038612729565b6014549068010000000000000000821015610d9d5760018391612a1f612a018584612a3b97016014556103f2565b509182906001600160a01b03166001600160a01b0319825416179055565b01906001600160a01b03166001600160a01b0319825416179055565b6001600160a01b0360145491166000526012602052604060002055565b908152610100810192919060209060009082015b60078210612a7a5750505050565b82806001928651815201940191019092612a6c565b612d746101c06122ed92612ac9612aad82516001600160a01b031690565b6001600160a01b03166001600160a01b03196002541617600255565b612afc612ae060208301516001600160a01b031690565b6001600160a01b03166001600160a01b03196003541617600355565b612b2f612b1360408301516001600160a01b031690565b6001600160a01b03166001600160a01b03196004541617600455565b612b62612b4660608301516001600160a01b031690565b6001600160a01b03166001600160a01b03196005541617600555565b612b95612b7960808301516001600160a01b031690565b6001600160a01b03166001600160a01b03196006541617600655565b612bc8612bac60a08301516001600160a01b031690565b6001600160a01b03166001600160a01b03196007541617600755565b612bfb612bdf60c08301516001600160a01b031690565b6001600160a01b03166001600160a01b03196008541617600855565b612c2e612c1260e08301516001600160a01b031690565b6001600160a01b03166001600160a01b03196009541617600955565b612c62612c466101008301516001600160a01b031690565b6001600160a01b03166001600160a01b0319600a541617600a55565b612c96612c7a6101208301516001600160a01b031690565b6001600160a01b03166001600160a01b0319600b541617600b55565b612cca612cae6101408301516001600160a01b031690565b6001600160a01b03166001600160a01b0319600c541617600c55565b612cfe612ce26101608301516001600160a01b031690565b6001600160a01b03166001600160a01b0319600d541617600d55565b612d32612d166101808301516001600160a01b031690565b6001600160a01b03166001600160a01b0319600e541617600e55565b612d66612d4a6101a08301516001600160a01b031690565b6001600160a01b03166001600160a01b0319600f541617600f55565b01516001600160a01b031690565b6001600160a01b03166001600160a01b03196010541617601055565b90816020910312610224576122109061266d565b612dff6001600160a01b0360025416604051612dbf81610da2565b600881527f6973536166652829000000000000000000000000000000000000000000000000602082015260405191612df683610dbe565b60008352612f60565b9080612e1e575b15610535578060208061221093518301019101612d90565b506020815114612e06565b612e8c6001600160a01b038060025416604051916020941684830152838252612e5182610da2565b60405190612e5e82610da2565b601582527f697353656375726542617365286164647265737329000000000000000000000085830152612f60565b9080612ea9575b1561053557816122109282518301019101612d90565b5081815114612e93565b6122106001600160a01b0360035416604051612ece81610da2565b600681527f69416765282900000000000000000000000000000000000000000000000000006020820152604051916110e483610dbe565b3d15612f30573d90612f1682611f70565b91612f246040519384610df6565b82523d6000602084013e565b606090565b90612f409291612f60565b9060009015612f4d575090565b6040519150612f5b82610dbe565b815290565b9190823b15612ff5577fffffffff00000000000000000000000000000000000000000000000000000000815160208093012016916040519180830193845281519160005b838110612fe1575050509181612fd160248260009795968897018783820152036004810184520182610df6565b51915afa612fdd612f05565b9091565b818101830151858201602401528201612fa4565b50505060009060405161300781610dbe565b6000815290565b929161301c91600094612f60565b9080613054575b61302a5750565b9091506020818051810103126102245760206001600160a01b0391015161305081610229565b1690565b506020815114613023565b929161306d91600094612f60565b9080613092575b61307b5750565b909150602081805181010312610224576020015190565b506020815114613074565b90602082519201517fffffffff000000000000000000000000000000000000000000000000000000009081811693600481106130d857505050565b60040360031b82901b16169150565b6001600160a01b0381161561319a57600080918351908260208601915af19061310e612f05565b9115613118575090565b8051600091906004116131945761312f915061309d565b81511561313f5750805190602001fd5b6040517f21c09d340000000000000000000000000000000000000000000000000000000081527fffffffff00000000000000000000000000000000000000000000000000000000919091166004820152602490fd5b5061312f565b600460405163e6c4247b60e01b8152fdfea2646970667358221220a01cd44550c226994ec6e8f206d2eed1362d78fb21f65d47c43f9919c5da2eaf64736f6c6343000814003360803461009957601f620025e238819003918201601f19168301916001600160401b0383118484101761009e5780849260209460405283398101031261009957516001600160a01b038116908190036100995780156100875760018060a01b0319338160015416176001556000541617600055600160115560405161252d9081620000b58239f35b60405163e6c4247b60e01b8152600490fd5b600080fd5b634e487b7160e01b600052604160045260246000fdfe60806040526004361015610018575b361561001657005b005b60003560e01c80631133b8861461018857806312065fe0146101835780631f185d161461017e578063339459a6146101795780633b9b7955146101745780633c00e40d1461016f5780636ec35cd51461016a5780638da5cb5b146101655780638dab13dc146101605780639498d88b1461015b5780639b03bea6146101565780639fb2726b14610151578063a1f7f5391461014c578063ae9568d714610147578063af48452614610142578063b90306ad1461013d578063c54e44b014610138578063d7a83fc614610133578063e01ad5fd1461012e578063e0a9bc2b14610129578063e3d1d5bf14610124578063f5caf38c1461011f5763fdc10bc90361000e576115e2565b6115a4565b611349565b61132e565b611263565b611223565b61119d565b61108f565b61105e565b611014565b610f9f565b610dc0565b610d78565b610cfa565b610c57565b610c30565b610aaf565b610a40565b610a19565b610321565b610236565b61021a565b6101cb565b6001600160a01b0381160361019e57565b600080fd5b604090600319011261019e576004356101bb8161018d565b906024356101c88161018d565b90565b3461019e57602060ff61020e6001600160a01b036101e8366101a3565b9116600052601284526040600020906001600160a01b0316600052602052604060002090565b54166040519015158152f35b3461019e57600036600319011261019e57602047604051908152f35b3461019e5760208060031936011261019e576102b56004356102578161018d565b6001600160a01b0380600254169060405192168483015283825261027a82611693565b6040519061028782611693565b601182527f69735369676e65722861646472657373290000000000000000000000000000008583015261240d565b919080610317575b156102ed5781816102d7926102e99451830101910161228e565b60405190151581529081906020820190565b0390f35b60046040517f3204506f000000000000000000000000000000000000000000000000000000008152fd5b50808251146102bd565b3461019e57600036600319011261019e576103536103476000546001600160a01b031690565b6001600160a01b031690565b604051907f97f3815a000000000000000000000000000000000000000000000000000000008252602082600481845afa918215610849576000926109f8575b50604051917fcfbffe53000000000000000000000000000000000000000000000000000000008352602083600481855afa928315610849576000936109d7575b50604051907fab6e844f000000000000000000000000000000000000000000000000000000008252602082600481865afa918215610849576000926109b6575b50604051917f14d8d024000000000000000000000000000000000000000000000000000000008352602083600481875afa92831561084957600093610995575b50604051927fd1f956b1000000000000000000000000000000000000000000000000000000008452602084600481885afa93841561084957600094610974575b50604051937fe61dfd58000000000000000000000000000000000000000000000000000000008552602085600481895afa94851561084957600095610953575b506040517fe09d394d0000000000000000000000000000000000000000000000000000000081526020816004818a5afa90811561084957600091610934575b506040517f52b06d640000000000000000000000000000000000000000000000000000000081526020816004818b5afa90811561084957600091610915575b506040517f013cf08b00000000000000000000000000000000000000000000000000000000815260006004820152916020836024818c5afa928315610849576000936108f4575b50604051977f5e09dbe70000000000000000000000000000000000000000000000000000000089526020896004818d5afa948515610849576004996000966108d3575b5060208b6040519b8c80927faa0ddc160000000000000000000000000000000000000000000000000000000082525afa9687156108495760049a6000986108b2575b5060208c6040519c8d80927f640274270000000000000000000000000000000000000000000000000000000082525afa9889156108495760049b60009a610891575b5060208d6040519d8e80927f30125cf50000000000000000000000000000000000000000000000000000000082525afa9a8b15610849578d60049d60009d61086f575b506020906040519e8f80927f24768d910000000000000000000000000000000000000000000000000000000082525afa9c8d156108495760009d61084e575b50604051809e81907f9dc969a80000000000000000000000000000000000000000000000000000000082525a92600491602094fa9d8e156108495760009e610818575b5061072c6116f2565b6001600160a01b0390911681529d8e906001600160a01b031660208201526040019061076091906001600160a01b03169052565b6001600160a01b031660608d01526001600160a01b031660808c01526001600160a01b031660a08b01526001600160a01b031660c08a01526001600160a01b031660e08901526001600160a01b03166101008801526001600160a01b03166101208701526001600160a01b03166101408601526001600160a01b03166101608501526001600160a01b03166101808401526001600160a01b03166101a08301526001600160a01b03166101c082015261001690611f8d565b61083b919e5060203d602011610842575b61083381836116d0565b810190611768565b9c38610723565b503d610829565b611c2a565b610868919d5060203d6020116108425761083381836116d0565b9b386106e0565b6020919d5061088a90823d84116108425761083381836116d0565b9c906106a1565b6108ab919a5060203d6020116108425761083381836116d0565b983861065e565b6108cc91985060203d6020116108425761083381836116d0565b963861061c565b6108ed91965060203d6020116108425761083381836116d0565b94386105da565b61090e91935060203d6020116108425761083381836116d0565b9138610597565b61092e915060203d6020116108425761083381836116d0565b38610550565b61094d915060203d6020116108425761083381836116d0565b38610511565b61096d91955060203d6020116108425761083381836116d0565b93386104d2565b61098e91945060203d6020116108425761083381836116d0565b9238610492565b6109af91935060203d6020116108425761083381836116d0565b9138610452565b6109d091925060203d6020116108425761083381836116d0565b9038610412565b6109f191935060203d6020116108425761083381836116d0565b91386103d2565b610a1291925060203d6020116108425761083381836116d0565b9038610392565b3461019e57600036600319011261019e5760206001600160a01b0360005416604051908152f35b3461019e57602036600319011261019e576001600160a01b03600435610a658161018d565b1660005260186020526020604060002054604051908152f35b9181601f8401121561019e5782359167ffffffffffffffff831161019e576020808501948460051b01011161019e57565b3461019e57606036600319011261019e5767ffffffffffffffff6004803582811161019e57610ae19036908301610a7e565b919060243584811161019e57610afa9036908401610a7e565b909460443590811161019e57610b139036908501610a7e565b959093610b1e6122a3565b15610c2157610b2c33612328565b8015610c0d575b15610bfe57868303610bd6575060005b828110610b4c57005b80610bd0610b5d6001938a89611bfa565b35610b6781610db6565b6001600160a01b03610b7a848b8a611bfa565b35610b848161018d565b166000526012602052610bbf6040600020610ba8610ba3868a8a611bfa565b611c20565b6001600160a01b0316600052602052604060002090565b9060ff801983541691151516179055565b01610b43565b6040517fff633a38000000000000000000000000000000000000000000000000000000008152fd5b60405163ea8e4eb560e01b8152fd5b50336001600160a01b036005541614610b33565b604051634ee2123760e11b8152fd5b3461019e57600036600319011261019e5760206001600160a01b0360015416604051908152f35b3461019e57602036600319011261019e57600435610c748161018d565b6001600160a01b038091166000526015602052806040600020541690601660205260406000205416908060005260126020526102e960ff610ccc846040600020906001600160a01b0316600052602052604060002090565b54166040519384938491939260409160608401956001600160a01b0380921685521660208401521515910152565b3461019e57602036600319011261019e57600435610d178161018d565b610d1f6122a3565b15610d6757610d2d33612328565b8015610d53575b15610d425761001690611d12565b600460405163ea8e4eb560e01b8152fd5b50336001600160a01b036005541614610d34565b6004604051634ee2123760e11b8152fd5b3461019e57602036600319011261019e576001600160a01b03600435610d9d8161018d565b1660005260176020526020604060002054604051908152f35b8015150361019e57565b3461019e57608036600319011261019e57600467ffffffffffffffff813581811161019e57610df29036908401610a7e565b9160243590811161019e57610e0a9036908501610a7e565b6044359391610e1885610db6565b606435610e236122a3565b15610f8f57610e3133612328565b8015610f7b575b15610f6b57828403610f425760005b848110610e5057005b8615610f105781610e81610e68610ba384898b611bfa565b6001600160a01b03166000526018602052604060002090565b5403610eb057876040517fe3913549000000000000000000000000000000000000000000000000000000008152fd5b8082610ec5610e68610ba36001958a8c611bfa565b55610ed1818686611bfa565b35610f07610eff610ee6610ba3858b8d611bfa565b6001600160a01b03166000526017602052604060002090565b9182546117eb565b90555b01610e47565b80610f1e6001928686611bfa565b35610f3b610f33610ee6610ba3858b8d611bfa565b918254611670565b9055610f0a565b866040517fff633a38000000000000000000000000000000000000000000000000000000008152fd5b8660405163ea8e4eb560e01b8152fd5b50336001600160a01b036005541614610e38565b86604051634ee2123760e11b8152fd5b3461019e57600036600319011261019e57602061100c6001600160a01b0360065416604051610fcd81611693565b601381527f67657464656c656761746f72436f756e742829000000000000000000000000008482015260405191611003836116b4565b600083526124bb565b604051908152f35b3461019e5760206110556001600160a01b0361102f366101a3565b9116600052601383526040600020906001600160a01b0316600052602052604060002090565b54604051908152f35b3461019e57602036600319011261019e5760206110856004356110808161018d565b612328565b6040519015158152f35b3461019e57602036600319011261019e576004356110ab6122a3565b15610d67576001600160a01b03600554163303610d4257600090600460206110dd61034785546001600160a01b031690565b604051928380927f46f991ac0000000000000000000000000000000000000000000000000000000082525afa8015610849578380848194938294839161117f575b505af16111296123b2565b50156102ed577fcdcc745fe377b103b45fa0cec23ae3ef93d6fc6a84a01f0d18c40b354dd1d5d8611179611168610347600b546001600160a01b031690565b604051938452929081906020820190565b0390a280f35b611197915060203d81116108425761083381836116d0565b3861111e565b3461019e57602036600319011261019e576004356111ba8161018d565b803b60006111c782611713565b926111d560405194856116d0565b82845260208401903c602d8151106111f957602a602091015160601c604051908152f35b60046040517fbaf3f0f7000000000000000000000000000000000000000000000000000000008152fd5b3461019e57602036600319011261019e5760206004356112428161018d565b6001600160a01b038091166000526014825260406000205416604051908152f35b3461019e5760208060031936011261019e576102e990600435906112868261018d565b6112ea6001600160a01b03928360065416936040519116838201528281526112ad81611693565b6040516112b981611693565b601881527f697364656c656761746f724e6f646528616464726573732900000000000000008482015260009461240d565b919080611324575b61130b575b505060405190151581529081906020820190565b61131d9250808251830101910161228e565b38806112f7565b50808251146112f2565b3461019e57600036600319011261019e5760206110856122a3565b3461019e57611357366101a3565b61135f6122a3565b15610d675761136d33612328565b8015611590575b15610d42576001600160a01b03918281168015611566578383168015611566570361139b57005b60009261153c926113cf6113c2846001600160a01b03166000526016602052604060002090565b546001600160a01b031690565b916113ed846001600160a01b03166000526017602052604060002090565b5461140b836001600160a01b03166000526017602052604060002090565b5561146761142f6113c2866001600160a01b03166000526015602052604060002090565b61144c846001600160a01b03166000526015602052604060002090565b906001600160a01b03166001600160a01b0319825416179055565b6114888361144c846001600160a01b03166000526016602052604060002090565b6114a5846001600160a01b03166000526018602052604060002090565b546114c3836001600160a01b03166000526018602052604060002090565b55821661153f575b5050826114eb826001600160a01b03166000526017602052604060002090565b5561151c61150c826001600160a01b03166000526015602052604060002090565b6001600160a01b03198154169055565b610e6861150c826001600160a01b03166000526016602052604060002090565b55005b61144c61155f926001600160a01b03166000526014602052604060002090565b38806114cb565b60046040517fd92e233d000000000000000000000000000000000000000000000000000000008152fd5b50336001600160a01b036005541614611374565b3461019e57606036600319011261019e576100166004356115c48161018d565b6024356115d08161018d565b604435916115dd83610db6565b6117f8565b3461019e57600036600319011261019e57602061100c6001600160a01b036003541660405161161081611693565b600681527f69416765282900000000000000000000000000000000000000000000000000008482015260405191611003836116b4565b634e487b7160e01b600052601160045260246000fd5b60001981019190821161166b57565b611646565b9190820391821161166b57565b634e487b7160e01b600052604160045260246000fd5b6040810190811067ffffffffffffffff8211176116af57604052565b61167d565b6020810190811067ffffffffffffffff8211176116af57604052565b90601f8019910116810190811067ffffffffffffffff8211176116af57604052565b604051906101e0820182811067ffffffffffffffff8211176116af57604052565b67ffffffffffffffff81116116af57601f01601f191660200190565b6040519061173c82611693565b601682527f67657455736572546f496e7374286164647265737329000000000000000000006020830152565b9081602091031261019e57516101c88161018d565b604051611789816116b4565b60008152906000368137565b604051906117a282611693565b601082527f6d61784d61707065644c696d69742829000000000000000000000000000000006020830152565b9081602091031261019e575190565b906001820180921161166b57565b9190820180921161166b57565b916118196113c2336001600160a01b03166000526014602052604060002090565b928115611aad576001600160a01b0380821615611566578084169485156115665761188461188061187933611861896001600160a01b03166000526012602052604060002090565b906001600160a01b0316600052602052604060002090565b5460ff1690565b1590565b611a83576118e56103476118d66118a36004546001600160a01b031690565b604080516001600160a01b038916602080830191909152815291906118c890836116d0565b6118d061172f565b906123e2565b60208082518301019101611768565b156115665716611a595761195161192a61191b61190a6003546001600160a01b031690565b61191261177d565b906118d0611795565b602080825183010191016117ce565b61194b33611861876001600160a01b03166000526013602052604060002090565b54101590565b611a2f576119fb8361199b7f73e162dc4d0165c5ab2c676b5ce1e58e8333a5e1b0e75ea3957f2ca0aa8abc2e9561144c856001600160a01b03166000526015602052604060002090565b6119bc3361144c856001600160a01b03166000526016602052604060002090565b6119dd8361144c336001600160a01b03166000526014602052604060002090565b61186133916001600160a01b03166000526013602052604060002090565b611a0581546117dd565b9055604080513381526001600160a01b0392909216602083015291151591810191909152606090a2565b60046040517fb111d8ef000000000000000000000000000000000000000000000000000000008152fd5b60046040517f548635ce000000000000000000000000000000000000000000000000000000008152fd5b60046040517f747845de000000000000000000000000000000000000000000000000000000008152fd5b5050506001600160a01b039081811615611bf657611b6d61150c611ae76113c2846001600160a01b03166000526015602052604060002090565b604080513381526001600160a01b038616602082015260009181019190915290948516939084907f73e162dc4d0165c5ab2c676b5ce1e58e8333a5e1b0e75ea3957f2ca0aa8abc2e90606090a2611b5461150c826001600160a01b03166000526015602052604060002090565b6001600160a01b03166000526016602052604060002090565b611b8d61150c336001600160a01b03166000526014602052604060002090565b151580611bcc575b611b9c5750565b611bbe9061186133916001600160a01b03166000526013602052604060002090565b611bc8815461165c565b9055565b50611bee33611861836001600160a01b03166000526013602052604060002090565b541515611b95565b5050565b9190811015611c0a5760051b0190565b634e487b7160e01b600052603260045260246000fd5b356101c88161018d565b6040513d6000823e3d90fd5b604051906060820182811067ffffffffffffffff8211176116af57604052602482527f65737329000000000000000000000000000000000000000000000000000000006040837f67657456616c696461746f7244656c656761746f724f6655736572286164647260208201520152565b9081606091031261019e578051611cbc8161018d565b9160406020830151611ccd8161018d565b9201516101c881610db6565b60405190611ce682611693565b601182527f696e636f6d654f662861646472657373290000000000000000000000000000006020830152565b6001600160a01b039081811615611bf657611d466103476113c2836001600160a01b03166000526015602052604060002090565b611bf657611d5f6103476000546001600160a01b031690565b604051907f6325dd0400000000000000000000000000000000000000000000000000000000908183526020908184600481845afa918215610849578694600093611f6e575b506040516001600160a01b038716828201908152611def91611de19181906020010395611dd9601f19978881018452836116d0565b6118d0611c36565b828082518301019101611ca6565b9890911697951693871580611f66575b611f5c57819060046040518095819382525afa96871561084957611efb61144c96611e7a8961186195611f399c611f14998b99600092611f3b575b50611e6c9192611e6060405195869283019190916001600160a01b036020820193169052565b039081018452836116d0565b611e74611cd9565b906124bb565b611e978a6001600160a01b03166000526017602052604060002090565b55611eb98361144c8b6001600160a01b03166000526015602052604060002090565b611eda8561144c8b6001600160a01b03166000526016602052604060002090565b610bbf85611861856001600160a01b03166000526012602052604060002090565b6001600160a01b03166000526013602052604060002090565b611f1e81546117dd565b90556001600160a01b03166000526014602052604060002090565b565b611e6c9250611f5690843d86116108425761083381836116d0565b91611e3a565b5050505050505050565b508415611dff565b81611f869294503d85116108425761083381836116d0565b9138611da4565b6122726101c0611f3992611fc7611fab82516001600160a01b031690565b6001600160a01b03166001600160a01b03196002541617600255565b611ffa611fde60208301516001600160a01b031690565b6001600160a01b03166001600160a01b03196003541617600355565b61202d61201160408301516001600160a01b031690565b6001600160a01b03166001600160a01b03196004541617600455565b61206061204460608301516001600160a01b031690565b6001600160a01b03166001600160a01b03196005541617600555565b61209361207760808301516001600160a01b031690565b6001600160a01b03166001600160a01b03196006541617600655565b6120c66120aa60a08301516001600160a01b031690565b6001600160a01b03166001600160a01b03196007541617600755565b6120f96120dd60c08301516001600160a01b031690565b6001600160a01b03166001600160a01b03196008541617600855565b61212c61211060e08301516001600160a01b031690565b6001600160a01b03166001600160a01b03196009541617600955565b6121606121446101008301516001600160a01b031690565b6001600160a01b03166001600160a01b0319600a541617600a55565b6121946121786101208301516001600160a01b031690565b6001600160a01b03166001600160a01b0319600b541617600b55565b6121c86121ac6101408301516001600160a01b031690565b6001600160a01b03166001600160a01b0319600c541617600c55565b6121fc6121e06101608301516001600160a01b031690565b6001600160a01b03166001600160a01b0319600d541617600d55565b6122306122146101808301516001600160a01b031690565b6001600160a01b03166001600160a01b0319600e541617600e55565b6122646122486101a08301516001600160a01b031690565b6001600160a01b03166001600160a01b0319600f541617600f55565b01516001600160a01b031690565b6001600160a01b03166001600160a01b03196010541617601055565b9081602091031261019e57516101c881610db6565b6122fe6001600160a01b03600254166040516122be81611693565b600881527f69735361666528290000000000000000000000000000000000000000000000006020820152604051916122f5836116b4565b6000835261240d565b908061231d575b156102ed57806020806101c89351830101910161228e565b506020815114612305565b61238b6001600160a01b03806002541660405191602094168483015283825261235082611693565b6040519061235d82611693565b601582527f69735365637572654261736528616464726573732900000000000000000000008583015261240d565b90806123a8575b156102ed57816101c8928251830101910161228e565b5081815114612392565b3d156123dd573d906123c382611713565b916123d160405193846116d0565b82523d6000602084013e565b606090565b906123ed929161240d565b90600090156123fa575090565b6040519150612408826116b4565b815290565b9190823b156124a2577fffffffff00000000000000000000000000000000000000000000000000000000815160208093012016916040519180830193845281519160005b83811061248e57505050918161247e602482600097959688970187838201520360048101845201826116d0565b51915afa61248a6123b2565b9091565b818101830151858201602401528201612451565b5050506000906040516124b4816116b4565b6000815290565b92916124c99160009461240d565b90806124ec575b6124d75750565b6101c8919250602080825183010191016117ce565b5060208151146124d056fea26469706673582212209d9a67a1dadccccf7d0d5b69f641189bfdeb5b0a9bba95f7799a0f45b7340ae764736f6c6343000814003360a08060405234620014fb57620000396200455991823803809362000025828462001538565b82396001600160a01b03928101906200155c565b168015620014e9573360018060a01b031960015416176001558060018060a01b031960005416176000554260115560a760255560b4602655601e602b556001602c556001602d556002602e5561c350602f556102586030556003603155601960325568878678326eac900000603355670de0b6b3a764000060345569021e19e0c9bab24000006035556001603655610384603755600560465560ff1960475416604755614d584201804211620014d357610258900460805260405160e081016001600160401b03811182821017620014bd576102589160c0916040526002815260646020820152600160408201526023606082015260646080820152600160a0820152015260026016556064601755600160185560236019556064601a556001601b55610258601c55605a6060620001706200157d565b60198152600a602082015282604082015201526019601d55600a601e55605a601f55605a602055620001a16200157d565b6005815260016020820152605a606061016892836040820152015260056021556001602255602355605a602455600160a0620001dc620015b3565b6003815260036020820152826040820152826060820152826080820152015260036027556003602855630101010163ffffffff196029541617602955620002226200157d565b610258606061014092838152600b6020820152600a60408201520152603855600b603955600a603a55610258603b556102586060620002606200157d565b60d28152600b6020820152600a6040820152015260d2603c55600b603d55600a603e55610258603f5562000293620015b3565b90604051635e09dbe760e01b8152602081600481855afa9182156200148f576004926020926000916200149b575b506001600160a01b03168452605f828501526001604080860191909152516311be646b60e21b815292839182905afa80156200148f5760409160009162001459575b506001600160a01b0390811660608401819052600560808501819052600160a086018190528551855494166001600160a01b031994851617855560208601516041559390940151604255604380549092161790556044919091556045556040516200045490620003738162001500565b60008082526020808301828152604084018381526060850184815261270f60808701908152948052601390935293517f8fa6efc3be94b5b348b21fea823fe8d100408cee9b7f90524494500445d8ff6c55517f8fa6efc3be94b5b348b21fea823fe8d100408cee9b7f90524494500445d8ff6d5591517f8fa6efc3be94b5b348b21fea823fe8d100408cee9b7f90524494500445d8ff6e5590517f8fa6efc3be94b5b348b21fea823fe8d100408cee9b7f90524494500445d8ff6f55517f8fa6efc3be94b5b348b21fea823fe8d100408cee9b7f90524494500445d8ff7055565b6200054d604051620004668162001500565b60078152601960208083019182526000604084018181526060850182815261270f608087019081526001909352601390935293517f4155c2f711f2cdd34f8262ab8fb9b7020a700fe7b6948222152f7670d1fdf34d5591517f4155c2f711f2cdd34f8262ab8fb9b7020a700fe7b6948222152f7670d1fdf34e5591517f4155c2f711f2cdd34f8262ab8fb9b7020a700fe7b6948222152f7670d1fdf34f5590517f4155c2f711f2cdd34f8262ab8fb9b7020a700fe7b6948222152f7670d1fdf35055517f4155c2f711f2cdd34f8262ab8fb9b7020a700fe7b6948222152f7670d1fdf35155565b620006466040516200055f8162001500565b60078152606460208083019182526000604084018181526060850182815261270f608087019081526002909352601390935293517f0b9d2c0c271bb30544eb78c59bdaebdae2728e5f65814c07768a0abe90ed19235591517f0b9d2c0c271bb30544eb78c59bdaebdae2728e5f65814c07768a0abe90ed19245591517f0b9d2c0c271bb30544eb78c59bdaebdae2728e5f65814c07768a0abe90ed19255590517f0b9d2c0c271bb30544eb78c59bdaebdae2728e5f65814c07768a0abe90ed192655517f0b9d2c0c271bb30544eb78c59bdaebdae2728e5f65814c07768a0abe90ed192755565b62000740604051620006588162001500565b600781526101f46020808301918252600360408401818152600060608601818152601e6080880190815293909152601390935293517f0d2a6872ef858a7f8ead18dc4f3f2e8d35c853d47e2816cbb9cdd49202554e0c5591517f0d2a6872ef858a7f8ead18dc4f3f2e8d35c853d47e2816cbb9cdd49202554e0d5591517f0d2a6872ef858a7f8ead18dc4f3f2e8d35c853d47e2816cbb9cdd49202554e0e5590517f0d2a6872ef858a7f8ead18dc4f3f2e8d35c853d47e2816cbb9cdd49202554e0f55517f0d2a6872ef858a7f8ead18dc4f3f2e8d35c853d47e2816cbb9cdd49202554e1055565b6200083c604051620007528162001500565b600781526107d06020808301918252600460408401818152600360608601908152601e60808701908152600093909352601390935293517f01413ff7a3b1d5b6c016c061d48e2c7014700c777a29fcd068fff04265813d5d5591517f01413ff7a3b1d5b6c016c061d48e2c7014700c777a29fcd068fff04265813d5e5591517f01413ff7a3b1d5b6c016c061d48e2c7014700c777a29fcd068fff04265813d5f5590517f01413ff7a3b1d5b6c016c061d48e2c7014700c777a29fcd068fff04265813d6055517f01413ff7a3b1d5b6c016c061d48e2c7014700c777a29fcd068fff04265813d6155565b620009356040516200084e8162001500565b6007815261138860208083019182526004604084018181526060850191825261270f608086019081526005600052601390935293517ff4b2859895858d6aa26d656e4999d552f6a869b74c43bba7d2a941c4d22c35595591517ff4b2859895858d6aa26d656e4999d552f6a869b74c43bba7d2a941c4d22c355a5591517ff4b2859895858d6aa26d656e4999d552f6a869b74c43bba7d2a941c4d22c355b55517ff4b2859895858d6aa26d656e4999d552f6a869b74c43bba7d2a941c4d22c355c55517ff4b2859895858d6aa26d656e4999d552f6a869b74c43bba7d2a941c4d22c355d55565b62000a2e604051620009478162001500565b6007815261271060208083019182526004604084018181526060850191825261270f608086019081526006600052601390935293517f709d0e3cf89777a1e1f9c99632e4494f29b0327befd0df15e277a12d948257955591517f709d0e3cf89777a1e1f9c99632e4494f29b0327befd0df15e277a12d948257965591517f709d0e3cf89777a1e1f9c99632e4494f29b0327befd0df15e277a12d9482579755517f709d0e3cf89777a1e1f9c99632e4494f29b0327befd0df15e277a12d9482579855517f709d0e3cf89777a1e1f9c99632e4494f29b0327befd0df15e277a12d9482579955565b62000b2960405162000a408162001500565b60078082526161a860208084019182526004604085018181526060860191825261270f60808701908152600095909552601390925293517f8ba6fb577925b0796671c737df59b8aaae861b630513fb12823699e3e0e3ee605590517f8ba6fb577925b0796671c737df59b8aaae861b630513fb12823699e3e0e3ee6155517f8ba6fb577925b0796671c737df59b8aaae861b630513fb12823699e3e0e3ee625590517f8ba6fb577925b0796671c737df59b8aaae861b630513fb12823699e3e0e3ee6355517f8ba6fb577925b0796671c737df59b8aaae861b630513fb12823699e3e0e3ee6455565b6200121f60405162000b3b8162001500565b600080825260066020808401918252600160408501818152600560608701908152608087018381529290955260159283905294517f27739e4bb5e6f8b5e4b57a047dca8767cc9b982a011081e086cbb0dfa9de818d5591517f27739e4bb5e6f8b5e4b57a047dca8767cc9b982a011081e086cbb0dfa9de818e5592517f27739e4bb5e6f8b5e4b57a047dca8767cc9b982a011081e086cbb0dfa9de818f5590517f27739e4bb5e6f8b5e4b57a047dca8767cc9b982a011081e086cbb0dfa9de819055517f27739e4bb5e6f8b5e4b57a047dca8767cc9b982a011081e086cbb0dfa9de81915562000c8f60405162000c328162001500565b60008152600360208201526001604082015260056060820152600160808201526002600052826020526040600020906080600491805184556020810151600185015560408101516002850155606081015160038501550151910155565b62000cfe60405162000ca18162001500565b60028152600f6020820152600a604082015260056060820152600160808201526003600052826020526040600020906080600491805184556020810151600185015560408101516002850155606081015160038501550151910155565b62000d6d60405162000d108162001500565b60028152600f6020820152600a604082015260056060820152600160808201526004600052826020526040600020906080600491805184556020810151600185015560408101516002850155606081015160038501550151910155565b62000ddc60405162000d7f8162001500565b60028152600f6020820152600a604082015260056060820152600160808201526005600052826020526040600020906080600491805184556020810151600185015560408101516002850155606081015160038501550151910155565b6040519062000deb8262001500565b60028252604b918260208201526064604082015262000e5060fa91826060820152606460808201526006600052836020526040600020906080600491805184556020810151600185015560408101516002850155606081015160038501550151910155565b62000ebd60405162000e628162001500565b6002815284602082015260646040820152826060820152606460808201526007600052836020526040600020906080600491805184556020810151600185015560408101516002850155606081015160038501550151910155565b62000f2a60405162000ecf8162001500565b6002815284602082015260646040820152826060820152606460808201526008600052836020526040600020906080600491805184556020810151600185015560408101516002850155606081015160038501550151910155565b62000f9760405162000f3c8162001500565b6002815284602082015260646040820152826060820152606460808201526009600052836020526040600020906080600491805184556020810151600185015560408101516002850155606081015160038501550151910155565b6200100460405162000fa98162001500565b600281528460208201526064604082015282606082015260646080820152600a600052836020526040600020906080600491805184556020810151600185015560408101516002850155606081015160038501550151910155565b62001071604051620010168162001500565b600281528460208201526064604082015282606082015260646080820152600b600052836020526040600020906080600491805184556020810151600185015560408101516002850155606081015160038501550151910155565b620010de604051620010838162001500565b600281528460208201526064604082015282606082015260646080820152600c600052836020526040600020906080600491805184556020810151600185015560408101516002850155606081015160038501550151910155565b6200114b604051620010f08162001500565b600281528460208201526064604082015282606082015260646080820152600d600052836020526040600020906080600491805184556020810151600185015560408101516002850155606081015160038501550151910155565b620011b86040516200115d8162001500565b600281528460208201526064604082015282606082015260646080820152600e600052836020526040600020906080600491805184556020810151600185015560408101516002850155606081015160038501550151910155565b60405192620011c78462001500565b60028452602084015260646040840152606083015260646080830152600f6000526020526040600020906080600491805184556020810151600185015560408101516002850155606081015160038501550151910155565b6040516200122d816200151c565b60128152600a6020808301918252602d60408085019182526003600052601490925292517f63d87a887046e0430be80fdeb014107d7198c879cbf2cddf39a6df195c86cb385590517f63d87a887046e0430be80fdeb014107d7198c879cbf2cddf39a6df195c86cb395590517f63d87a887046e0430be80fdeb014107d7198c879cbf2cddf39a6df195c86cb3a5551620012c7816200151c565b60128152600a6020808301918252605a60408085019182526005600052601490925292517f116126bec5aaa49b347e966c49378cf0c441de9121e306ea3d824584a9615aa25590517f116126bec5aaa49b347e966c49378cf0c441de9121e306ea3d824584a9615aa35590517f116126bec5aaa49b347e966c49378cf0c441de9121e306ea3d824584a9615aa4555162001361816200151c565b60098152600a602080830191825261270f6040808501918252600760009081526014845294517f904977a779b22381a36c6463d4166ef55ee8cb3392c83093cb1750f1a00c9d945592517f904977a779b22381a36c6463d4166ef55ee8cb3392c83093cb1750f1a00c9d9555517f904977a779b22381a36c6463d4166ef55ee8cb3392c83093cb1750f1a00c9d96556012905260327f8e1fee8c88a9e04123b21e90cae2727a7715bf522a1e46eb5934ccd05203a6b25560049091526101f47fb4fcd034df3d20faa1c133b66d862ce92732727d40916b48ffb4020cb00fe0535551612f629081620015f7823960805181611dec0152f35b62001480915060203d60201162001487575b62001477818362001538565b8101906200155c565b3862000303565b503d6200146b565b6040513d6000823e3d90fd5b620014b69150833d8511620014875762001477818362001538565b38620002c1565b634e487b7160e01b600052604160045260246000fd5b634e487b7160e01b600052601160045260246000fd5b60405163e6c4247b60e01b8152600490fd5b600080fd5b60a081019081106001600160401b03821117620014bd57604052565b606081019081106001600160401b03821117620014bd57604052565b601f909101601f19168101906001600160401b03821190821017620014bd57604052565b90816020910312620014fb57516001600160a01b0381168103620014fb5790565b60405190608082016001600160401b03811183821017620014bd5760405260006060838281528260208201528260408201520152565b6040519060c082016001600160401b03811183821017620014bd576040528160a0600091828152826020820152826040820152826060820152826080820152015256fe60806040526004361015610018575b361561001657005b005b60003560e01c806304ce9f80146104985780630609a0e31461049357806307175c831461048e57806309307c62146104895780630aa4b750146104845780630b225f1a1461047f5780630ea0d2221461047a57806312065fe01461047557806314be92a51461047057806315a544ed1461046b5780631605aed91461046657806316f0115b14610461578063179b570a1461045c578063192b48ee146104575780631ef6a864146104525780631f185d161461044d578063203bab661461044857806326c5adae14610443578063298fc4601461043e578063339459a6146104395780633688236d146104345780633b9b79551461042f5780633eb71c061461042a5780634151331d14610425578063438fe1921461042057806344ec16bc1461041b5780634b62954f1461041657806353423e8614610411578063541d76671461040c57806354541683146104075780635640dbfc14610402578063592a02a8146103fd5780635962205f146103f85780635a0e9038146103f35780636c7deb5d146103ee5780636f092c5e146103e95780637687e371146103e457806378ef376f146103df5780637bc908c6146103da57806382a3c503146103d5578063840bbc1e146103d05780638da5cb5b146103cb57806391fc8aa8146103c65780639319d0b5146103c15780639d80ab9b146103bc5780639eb8b44e146103b75780639f70207d146103b2578063a19841dd146103ad578063a1f7f539146103a8578063a88fcea6146103a3578063ac14611a1461039e578063aebcd32a14610399578063af0b21d314610394578063af4845261461038f578063b49c064c1461038a578063b85f1f8d14610385578063b90306ad14610380578063c54e44b01461037b578063c5a136d414610376578063d0bb2ddf14610371578063dbad649c1461036c578063e01ad5fd14610367578063e0a9bc2b14610362578063e19a5bcf1461035d578063e6a7791914610358578063eddd0d9c14610353578063f27c35c61461034e578063f2a6bbc714610349578063f4fe8e3c14610344578063f7a9783e1461033f578063fc0e74d11461033a5763fdc10bc90361000e576126d2565b6126af565b612636565b6125ca565b61257b565b6124d0565b612481565b612387565b6122cb565b6122b0565b6121e5565b6121c7565b612171565b6120d4565b61204e565b611f40565b611f06565b611ee3565b611eb2565b611e94565b611e2c565b611dc8565b611daa565b611d35565b611cfb565b611cdd565b611b06565b611a87565b611a38565b611a1a565b6119f3565b61197a565b6118d6565b6118b8565b611869565b611801565b6117d5565b611786565b61174d565b6116e5565b6115e6565b611565565b611547565b6114d1565b6114b3565b61145e565b61140f565b6113f1565b6113ae565b61135f565b611338565b61131a565b610c37565b610bcf565b610ae5565b610a5a565b610973565b6108ac565b61081c565b6107c7565b610776565b610758565b61073a565b6106eb565b6106cf565b6106b1565b610693565b610675565b610620565b610602565b61055f565b3461055a57604036600319011261055a57600080808060243560043560018114610524575b6002146104f2575b50906104ee91604051948594859094939260609260808301968352602083015260408201520152565b0390f35b6021546022546023546025549297509095506104ee945092501061051c576026545b9290916104c5565b602454610514565b935093505050601d5491601e54601f54918060255410156000146105505760026026545b9490506104bd565b6002602054610548565b600080fd5b3461055a57602036600319011261055a57610578612ba1565b156105d85761058633612c26565b80156105c4575b1561059a57600435602b55005b60046040517fea8e4eb5000000000000000000000000000000000000000000000000000000008152fd5b50336001600160a01b03600554161461058d565b60046040517f9dc4246e000000000000000000000000000000000000000000000000000000008152fd5b3461055a57600036600319011261055a576020603254604051908152f35b3461055a57604036600319011261055a57610639612ba1565b156105d85761064733612c26565b8015610661575b1561059a57600435603455602435603555005b50336001600160a01b03600554161461064e565b3461055a57600036600319011261055a576020603754604051908152f35b3461055a57600036600319011261055a576020604654604051908152f35b3461055a57600036600319011261055a576020603054604051908152f35b3461055a57600036600319011261055a57602047604051908152f35b3461055a57602036600319011261055a57610704612ba1565b156105d85761071233612c26565b8015610726575b1561059a57600435603055005b50336001600160a01b036005541614610719565b3461055a57600036600319011261055a576020603554604051908152f35b3461055a57600036600319011261055a576020603454604051908152f35b3461055a57600036600319011261055a5760e0601654601754601854601954601a5490601b5492601c5494604051968752602087015260408601526060850152608084015260a083015260c0820152f35b3461055a57604036600319011261055a576107e0612ba1565b156105d8576107ee33612c26565b8015610808575b1561059a57600435602555602435602655005b50336001600160a01b0360055416146107f5565b3461055a57602036600319011261055a57600435610838612ba1565b156105d85761084633612c26565b8015610876575b1561059a57670de0b6b3a76400009081810291818304149015171561087157603355005b612dcc565b50336001600160a01b03600554161461084d565b60a090600319011261055a576004359060243590604435906064359060843590565b3461055a576108ba3661088a565b906108c794929394612ba1565b156105d8576108d533612c26565b801561094e575b1561059a576002936108ec612e7d565b9586526020860152604085015260608401526001811461092c575b1461090e57005b8051603c556020810151603d556040810151603e5560600151603f55005b825160385560208301516039556040830151603a556060830151603b55610907565b50336001600160a01b0360055416146108dc565b6001600160a01b0381160361055a57565b3461055a5760208060031936011261055a576109f260043561099481610962565b6001600160a01b038060025416906040519216848301528382526109b7826127c1565b604051906109c4826127c1565b601182527f69735369676e657228616464726573732900000000000000000000000000000085830152612ce0565b919080610a50575b15610a26578181610a14926104ee94518301019101612b8c565b60405190151581529081906020820190565b60046040517f3204506f000000000000000000000000000000000000000000000000000000008152fd5b50808251146109fa565b3461055a5760e036600319011261055a57610a73612ba1565b156105d857610a8133612c26565b8015610ad1575b1561059a57610a9860405161274c565b600435601655602435601755604435601855606435601955610abb608435601a55565b610ac660a435601b55565b61001660c435601c55565b50336001600160a01b036005541614610a88565b3461055a57602036600319011261055a57600460206001600160a01b0360005416604051928380926369e8d84b60e11b82525afa8015610bc057610b4391600091610b92575b50610b34612edb565b90610b3d612ef3565b90612d8e565b60325490670de0b6b3a764000091828102928184041490151715610871576104ee91610b7d610b8292610b7860043593612e02565b612de2565b612e1f565b6040519081529081906020820190565b610bb3915060203d8111610bb9575b610bab81836127f9565b81019061281b565b38610b2b565b503d610ba1565b612833565b8015150361055a57565b3461055a57602036600319011261055a57600435610bec81610bc5565b610bf4612ba1565b156105d857610c0233612c26565b8015610c23575b1561059a5760ff8019604754169115151617604755600080f35b50336001600160a01b036005541614610c09565b3461055a57600036600319011261055a57610c69610c5d6000546001600160a01b031690565b6001600160a01b031690565b604051907f97f3815a000000000000000000000000000000000000000000000000000000008252602082600481845afa918215610bc0576000926112f9575b50604051917fcfbffe53000000000000000000000000000000000000000000000000000000008352602083600481855afa928315610bc0576000936112d8575b50604051907fab6e844f000000000000000000000000000000000000000000000000000000008252602082600481865afa918215610bc0576000926112b7575b50604051917f14d8d024000000000000000000000000000000000000000000000000000000008352602083600481875afa928315610bc057600093611296575b50604051927fd1f956b1000000000000000000000000000000000000000000000000000000008452602084600481885afa938415610bc057600094611275575b50604051937fe61dfd58000000000000000000000000000000000000000000000000000000008552602085600481895afa948515610bc057600095611254575b506040517fe09d394d0000000000000000000000000000000000000000000000000000000081526020816004818a5afa908115610bc057600091611235575b506040517f52b06d640000000000000000000000000000000000000000000000000000000081526020816004818b5afa908115610bc057600091611216575b506040517f013cf08b00000000000000000000000000000000000000000000000000000000815260006004820152916020836024818c5afa928315610bc0576000936111f5575b50604051977f5e09dbe70000000000000000000000000000000000000000000000000000000089526020896004818d5afa948515610bc0576004996000966111d4575b5060208b6040519b8c80927faa0ddc160000000000000000000000000000000000000000000000000000000082525afa968715610bc05760049a6000986111b3575b5060208c6040519c8d80927f640274270000000000000000000000000000000000000000000000000000000082525afa988915610bc05760049b60009a611192575b5060208d6040519d8e80927f30125cf50000000000000000000000000000000000000000000000000000000082525afa9a8b15610bc0578d60049d60009d611170575b506020906040519e8f80927f24768d910000000000000000000000000000000000000000000000000000000082525afa9c8d15610bc05760009d61114f575b50604051809e81907f9dc969a80000000000000000000000000000000000000000000000000000000082525a92600491602094fa9d8e15610bc05760009e61112e575b5061104261283f565b6001600160a01b0390911681529d8e906001600160a01b031660208201526040019061107691906001600160a01b03169052565b6001600160a01b031660608d01526001600160a01b031660808c01526001600160a01b031660a08b01526001600160a01b031660c08a01526001600160a01b031660e08901526001600160a01b03166101008801526001600160a01b03166101208701526001600160a01b03166101408601526001600160a01b03166101608501526001600160a01b03166101808401526001600160a01b03166101a08301526001600160a01b03166101c08201526100169061286f565b611148919e5060203d602011610bb957610bab81836127f9565b9c38611039565b611169919d5060203d602011610bb957610bab81836127f9565b9b38610ff6565b6020919d5061118b90823d8411610bb957610bab81836127f9565b9c90610fb7565b6111ac919a5060203d602011610bb957610bab81836127f9565b9838610f74565b6111cd91985060203d602011610bb957610bab81836127f9565b9638610f32565b6111ee91965060203d602011610bb957610bab81836127f9565b9438610ef0565b61120f91935060203d602011610bb957610bab81836127f9565b9138610ead565b61122f915060203d602011610bb957610bab81836127f9565b38610e66565b61124e915060203d602011610bb957610bab81836127f9565b38610e27565b61126e91955060203d602011610bb957610bab81836127f9565b9338610de8565b61128f91945060203d602011610bb957610bab81836127f9565b9238610da8565b6112b091935060203d602011610bb957610bab81836127f9565b9138610d68565b6112d191925060203d602011610bb957610bab81836127f9565b9038610d28565b6112f291935060203d602011610bb957610bab81836127f9565b9138610ce8565b61131391925060203d602011610bb957610bab81836127f9565b9038610ca8565b3461055a57600036600319011261055a576020602f54604051908152f35b3461055a57600036600319011261055a5760206001600160a01b0360005416604051908152f35b3461055a57602036600319011261055a57611378612ba1565b156105d85761138633612c26565b801561139a575b1561059a57600435603755005b50336001600160a01b03600554161461138d565b3461055a57602036600319011261055a57600435600052601460205260606040600020805490600260018201549101549060405192835260208301526040820152f35b3461055a57600036600319011261055a576020602d54604051908152f35b3461055a57602036600319011261055a57611428612ba1565b156105d85761143633612c26565b801561144a575b1561059a57600435602c55005b50336001600160a01b03600554161461143d565b3461055a57604036600319011261055a57611477612ba1565b156105d85761148533612c26565b801561149f575b1561059a57600435602e55602435602f55005b50336001600160a01b03600554161461148c565b3461055a57600036600319011261055a576020603154604051908152f35b3461055a57602036600319011261055a57600460206001600160a01b0360005416604051928380926369e8d84b60e11b82525afa8015610bc057611526610b82916104ee93600091610b925750610b34612edb565b6004356000526012602052610b78611542604060002054612e02565b612e02565b3461055a57600036600319011261055a576020602c54604051908152f35b3461055a57600036600319011261055a5760c060275460ff60285460295490604051938452602084015281811615156040840152818160081c1615156060840152818160101c161515608084015260181c16151560a0820152f35b60c090600319011261055a57600435906024359060443590606435906084359060a43590565b3461055a576115f4366115c0565b90611600959295612ba1565b156105d85761160e33612c26565b80156116d1575b1561059a57601083101561168d576100169561165e94604051966116388861276d565b875260208701526040860152606085015260808401526000526015602052604060002090565b906080600491805184556020810151600185015560408101516002850155606081015160038501550151910155565b606460405162461bcd60e51b815260206004820152600d60248201527f696e76616c6964206c6576656c000000000000000000000000000000000000006044820152fd5b50336001600160a01b036005541614611615565b3461055a57602036600319011261055a576004356000526015602052604060002080546104ee6001830154926002810154906004600382015491015491604051958695869192608093969594919660a084019784526020840152604083015260608201520152565b3461055a57600036600319011261055a57601d54601e54601f546020805460408051958652918501939093528301526060820152608090f35b3461055a57602036600319011261055a5761179f612ba1565b156105d8576117ad33612c26565b80156117c1575b1561059a57600435603155005b50336001600160a01b0360055416146117b4565b3461055a57602036600319011261055a5760043560005260126020526020604060002054604051908152f35b3461055a57602036600319011261055a5760043561181e81610bc5565b611826612ba1565b156105d85761183433612c26565b8015611855575b1561059a5760ff8019602a54169115151617602a55600080f35b50336001600160a01b03600554161461183b565b3461055a57602036600319011261055a57611882612ba1565b156105d85761189033612c26565b80156118a4575b1561059a57600435603655005b50336001600160a01b036005541614611897565b3461055a57600036600319011261055a576020603654604051908152f35b3461055a5760c036600319011261055a576004356118f381610962565b6064356118ff81610962565b611907612ba1565b156105d85761191533612c26565b8015611966575b1561059a576001600160a01b0390816001600160a01b031993168360405416176040556024356041556044356042551690604354161760435560843560445560a435604555600080f35b50336001600160a01b03600554161461191c565b3461055a57602036600319011261055a57600460206001600160a01b0360005416604051928380926369e8d84b60e11b82525afa908115610bc0576119e16119d96104ee93670de0b6b3a764000093600091610b925750610b34612edb565b600435612e1f565b04604051918291829190602083019252565b3461055a57600036600319011261055a5760206001600160a01b0360015416604051908152f35b3461055a57600036600319011261055a576020603354604051908152f35b3461055a57602036600319011261055a57611a51612ba1565b156105d857611a5f33612c26565b8015611a73575b1561059a57600435602d55005b50336001600160a01b036005541614611a66565b3461055a57600036600319011261055a57603854603954603a54603b54604080519485526020850193909352918301526060820152608090f35b6102a0810192916000915b60078310611ad957505050565b60019060608351918251815260209283810151848301526040809101519082015201920192019190611acc565b3461055a57600080600319360112611cda576040908151611b268161274c565b815b60e08110611cb5576104ee84611b3c612860565b6001600052601460205290611b757fb6c61a840592cc84133e4b25bd509abf4659307c57b160799b38490a5aa48f2c612eb3565b612eb3565b825260026000526014602052611baa7fa1930aa930426c54c34daad2b9ada7c5d0ef0c96078a3c5bb79f6fa6602c4a7a612eb3565b6020830152611bc7611b7060036000526014602052604060002090565b8282015260046000526014602052611bfe7f52102136546d97ed3f65ec1070a32935d3048ea12f310d29c378dc9d6555c0d6612eb3565b606083015260056000526014602052611c367f116126bec5aaa49b347e966c49378cf0c441de9121e306ea3d824584a9615aa2612eb3565b608083015260066000526014602052611c6e7fe1f6b6a5fb7e47dad87547d4b0671e7e995a1dae22fbe5b3b5d10e2a77ed7aff612eb3565b60a083015260076000526014602052611ca67f904977a779b22381a36c6463d4166ef55ee8cb3392c83093cb1750f1a00c9d94612eb3565b60c08301525191829182611ac1565b6020908451611cc381612789565b848152848382015284868201528184015201611b28565b80fd5b3461055a57600036600319011261055a576020602554604051908152f35b3461055a57600036600319011261055a57603c54603d54603e54603f54604080519485526020850193909352918301526060820152608090f35b3461055a57600036600319011261055a576020611da26001600160a01b0360065416604051611d63816127c1565b601381527f67657464656c656761746f72436f756e742829000000000000000000000000008482015260405191611d99836127dd565b60008352612d8e565b604051908152f35b3461055a57600036600319011261055a576020602e54604051908152f35b3461055a57600036600319011261055a57614d5842018042116108715761025890047f000000000000000000000000000000000000000000000000000000000000000081039081116108715761012a90810180911161087157602090604051908152f35b3461055a57602036600319011261055a576004356000526013602052604060002080546104ee6001830154926002810154906004600382015491015491604051958695869192608093969594919660a084019784526020840152604083015260608201520152565b3461055a57600036600319011261055a576020602b54604051908152f35b3461055a57602036600319011261055a576020611ed9600435611ed481610962565b612c26565b6040519015158152f35b3461055a57600036600319011261055a57602060ff604754166040519015158152f35b3461055a57600036600319011261055a57602154602254602354602454604080519485526020850193909352918301526060820152608090f35b3461055a57602036600319011261055a57600435611f5c612ba1565b156105d8576001600160a01b0360055416330361059a5760009060046020611f8e610c5d85546001600160a01b031690565b604051928380927f46f991ac0000000000000000000000000000000000000000000000000000000082525afa8015610bc05783808481949382948391612030575b505af1611fda612cb0565b5015610a26577fcdcc745fe377b103b45fa0cec23ae3ef93d6fc6a84a01f0d18c40b354dd1d5d861202a612019610c5d600b546001600160a01b031690565b604051938452929081906020820190565b0390a280f35b612048915060203d8111610bb957610bab81836127f9565b38611fcf565b3461055a57602036600319011261055a5760043561206b81610962565b803b600061207882612b70565b9261208660405194856127f9565b82845260208401903c602d8151106120aa57602a602091015160601c604051908152f35b60046040517fbaf3f0f7000000000000000000000000000000000000000000000000000000008152fd5b3461055a57608036600319011261055a576004356120f0612ba1565b156105d8576120fe33612c26565b801561215d575b1561059a5761211660088210612e32565b60026040519161212583612789565b602435835260208301604435815260408401916064358352600052601460205260406000209351845551600184015551910155600080f35b50336001600160a01b036005541614612105565b3461055a57600036600319011261055a5760c06001600160a01b038060405416906041549060425490604354166044549160455493604051958652602086015260408501526060840152608083015260a0820152f35b3461055a57600036600319011261055a576020602654604051908152f35b3461055a5760208060031936011261055a576104ee906004359061220882610962565b61226c6001600160a01b039283600654169360405191168382015282815261222f816127c1565b60405161223b816127c1565b601881527f697364656c656761746f724e6f6465286164647265737329000000000000000084820152600094612ce0565b9190806122a6575b61228d575b505060405190151581529081906020820190565b61229f92508082518301019101612b8c565b3880612279565b5080825114612274565b3461055a57600036600319011261055a576020611ed9612ba1565b3461055a576122d93661088a565b906122e694929394612ba1565b156105d8576122f433612c26565b8015612373575b1561059a5760029361230b612e7d565b9586526020860152604085015260608401526001811461234b575b1461232d57005b80516021556020810151602255604081015160235560600151602455005b61236e836060908051601d556020810151601e556040810151601f550151602055565b612326565b50336001600160a01b0360055416146122fb565b3461055a5760c036600319011261055a576044356123a481610bc5565b606435906123b182610bc5565b608435906123be82610bc5565b60a435916123cb83610bc5565b6123d3612ba1565b156105d8576123e133612c26565b801561246d575b1561059a576100169361242361244e936124036040516127a5565b600435602755602435602855151560ff8019602954169115151617602955565b6029805462ffff00191691151560081b61ff00169190911791151560101b62ff000016919091179055565b151563ff00000060295491151560181b169063ff000000191617602955565b50336001600160a01b0360055416146123e8565b3461055a57602036600319011261055a5761249a612ba1565b156105d8576124a833612c26565b80156124bc575b1561059a57600435603255005b50336001600160a01b0360055416146124af565b3461055a576124de366115c0565b916124ea959395612ba1565b156105d8576124f833612c26565b8015612567575b1561059a5761001695604051956125158761276d565b8652602086015260408501526060840152608083015260005260136020526040600020906080600491805184556020810151600185015560408101516002850155606081015160038501550151910155565b50336001600160a01b0360055416146124ff565b3461055a57602036600319011261055a57612594612ba1565b156105d8576125a233612c26565b80156125b6575b1561059a57600435604655005b50336001600160a01b0360055416146125a9565b3461055a57604036600319011261055a576004356125e6612ba1565b156105d8576125f433612c26565b8015612622575b1561059a5761260c60088210612e32565b6000526012602052602435604060002055600080f35b50336001600160a01b0360055416146125fb565b3461055a57602036600319011261055a57600435600460206001600160a01b0360005416604051928380926369e8d84b60e11b82525afa8015610bc05761268791600091610b925750610b34612edb565b90670de0b6b3a764000090818102918183041490151715610871576104ee91610b8291612de2565b3461055a57600036600319011261055a57602060ff602a54166040519015158152f35b3461055a57600036600319011261055a576020611da26001600160a01b0360035416604051612700816127c1565b600681527f69416765282900000000000000000000000000000000000000000000000000008482015260405191611d99836127dd565b634e487b7160e01b600052604160045260246000fd5b60e0810190811067ffffffffffffffff82111761276857604052565b612736565b60a0810190811067ffffffffffffffff82111761276857604052565b6060810190811067ffffffffffffffff82111761276857604052565b60c0810190811067ffffffffffffffff82111761276857604052565b6040810190811067ffffffffffffffff82111761276857604052565b6020810190811067ffffffffffffffff82111761276857604052565b90601f8019910116810190811067ffffffffffffffff82111761276857604052565b9081602091031261055a575161283081610962565b90565b6040513d6000823e3d90fd5b604051906101e0820182811067ffffffffffffffff82111761276857604052565b6040519061286d8261274c565b565b612b546101c061286d926128a961288d82516001600160a01b031690565b6001600160a01b03166001600160a01b03196002541617600255565b6128dc6128c060208301516001600160a01b031690565b6001600160a01b03166001600160a01b03196003541617600355565b61290f6128f360408301516001600160a01b031690565b6001600160a01b03166001600160a01b03196004541617600455565b61294261292660608301516001600160a01b031690565b6001600160a01b03166001600160a01b03196005541617600555565b61297561295960808301516001600160a01b031690565b6001600160a01b03166001600160a01b03196006541617600655565b6129a861298c60a08301516001600160a01b031690565b6001600160a01b03166001600160a01b03196007541617600755565b6129db6129bf60c08301516001600160a01b031690565b6001600160a01b03166001600160a01b03196008541617600855565b612a0e6129f260e08301516001600160a01b031690565b6001600160a01b03166001600160a01b03196009541617600955565b612a42612a266101008301516001600160a01b031690565b6001600160a01b03166001600160a01b0319600a541617600a55565b612a76612a5a6101208301516001600160a01b031690565b6001600160a01b03166001600160a01b0319600b541617600b55565b612aaa612a8e6101408301516001600160a01b031690565b6001600160a01b03166001600160a01b0319600c541617600c55565b612ade612ac26101608301516001600160a01b031690565b6001600160a01b03166001600160a01b0319600d541617600d55565b612b12612af66101808301516001600160a01b031690565b6001600160a01b03166001600160a01b0319600e541617600e55565b612b46612b2a6101a08301516001600160a01b031690565b6001600160a01b03166001600160a01b0319600f541617600f55565b01516001600160a01b031690565b6001600160a01b03166001600160a01b03196010541617601055565b67ffffffffffffffff811161276857601f01601f191660200190565b9081602091031261055a575161283081610bc5565b612bfc6001600160a01b0360025416604051612bbc816127c1565b600881527f6973536166652829000000000000000000000000000000000000000000000000602082015260405191612bf3836127dd565b60008352612ce0565b9080612c1b575b15610a26578060208061283093518301019101612b8c565b506020815114612c03565b612c896001600160a01b038060025416604051916020941684830152838252612c4e826127c1565b60405190612c5b826127c1565b601582527f697353656375726542617365286164647265737329000000000000000000000085830152612ce0565b9080612ca6575b15610a2657816128309282518301019101612b8c565b5081815114612c90565b3d15612cdb573d90612cc182612b70565b91612ccf60405193846127f9565b82523d6000602084013e565b606090565b9190823b15612d75577fffffffff00000000000000000000000000000000000000000000000000000000815160208093012016916040519180830193845281519160005b838110612d61575050509181612d51602482600097959688970187838201520360048101845201826127f9565b51915afa612d5d612cb0565b9091565b818101830151858201602401528201612d24565b505050600090604051612d87816127dd565b6000815290565b9291612d9c91600094612ce0565b9080612dc1575b612daa5750565b90915060208180518101031261055a576020015190565b506020815114612da3565b634e487b7160e01b600052601160045260246000fd5b8115612dec570490565b634e487b7160e01b600052601260045260246000fd5b90670de0b6b3a76400009182810292818404149015171561087157565b8181029291811591840414171561087157565b15612e3957565b606460405162461bcd60e51b815260206004820152600c60248201527f696e76616c69642072616e6b00000000000000000000000000000000000000006044820152fd5b604051906080820182811067ffffffffffffffff8211176127685760405260006060838281528260208201528260408201520152565b90604051612ec081612789565b60406002829480548452600181015460208501520154910152565b604051612ee7816127dd565b60008152906000368137565b60405190612f00826127c1565b601282527f6f7a6f6e655072696365496e5553445428290000000000000000000000000000602083015256fea26469706673582212208e16ce2a0fa8619b71462f975ba46ab7780777127190f1fae0b1f468c23f4f2a64736f6c63430008140033","linkReferences":{}},"methodIdentifiers":{"invalidator()":"52b06d64","rule741()":"0a5b38ab","transferRequest()":"3da8676f"},"id":80}