{"abi":[{"type":"constructor","inputs":[{"name":"_hex","type":"address","internalType":"address"}],"stateMutability":"nonpayable"},{"type":"function","name":"invalidator","inputs":[],"outputs":[{"name":"","type":"address","internalType":"address"}],"stateMutability":"view"},{"type":"function","name":"rule741","inputs":[],"outputs":[{"name":"","type":"address","internalType":"address"}],"stateMutability":"view"},{"type":"function","name":"transferRequest","inputs":[],"outputs":[{"name":"","type":"address","internalType":"address"}],"stateMutability":"view"}],"bytecode":{"object":"0x6080346200018657601f6200a1a738819003918201601f19168301926001600160401b0392909183851183861017620001705781602092849260409788528339810103126200018657516001600160a01b0390818116908190036200018657835190614cea9182810192818410868511176200017057620054bd823981835260208160009403019083f0938415620001665782549484166001600160a01b03199586161783558551612c7580820190828210848311176200015257602091839162000298833985815203019084f08015620001485784168560015416176001558551916125b08084019284841090841117620001345791839160209362002f0d8439815203019082f0908115620001295750169060025416176002555161010c90816200018c8239f35b8451903d90823e3d90fd5b634e487b7160e01b85526041600452602485fd5b86513d85823e3d90fd5b634e487b7160e01b86526041600452602486fd5b85513d84823e3d90fd5b634e487b7160e01b600052604160045260246000fd5b600080fdfe6080806040526004361015601257600080fd5b600090813560e01c9081630a5b38ab1460a4575080633da8676f146072576352b06d6414603e57600080fd5b34606f5780600319360112606f57602073ffffffffffffffffffffffffffffffffffffffff60025416604051908152f35b80fd5b5034606f5780600319360112606f57602073ffffffffffffffffffffffffffffffffffffffff60015416604051908152f35b90503460d2578160031936011260d25773ffffffffffffffffffffffffffffffffffffffff60209254168152f35b5080fdfea26469706673582212207adc4a8f959977b437ad860b6257700f2b3be7758789c8100319ca95d61773ce64736f6c634300081400336080346200009e57601f62002c7538819003918201601f19168301916001600160401b03831184841017620000a3578084926020946040528339810103126200009e57516001600160a01b038116908190036200009e5780156200008c5760018060a01b03193381600154161760015560005416176000556001601155604051612bbb9081620000ba8239f35b60405163e6c4247b60e01b8152600490fd5b600080fd5b634e487b7160e01b600052604160045260246000fdfe60806040526004361015610018575b361561001657005b005b60003560e01c806312065fe0146101b857806318c864e3146101b35780631f185d16146101ae578063339459a6146101a95780633676bd1f146101a45780633b9b79551461019f578063479fa2c31461019a5780634ef260a9146101955780638da5cb5b146101905780639932f81e1461018b5780639fb3953b14610186578063a1f7f53914610181578063ab7e46ae1461017c578063ac23334514610177578063af48452614610172578063b8f1759a1461016d578063b90306ad14610168578063c1e6cec214610163578063c54e44b01461015e578063cab3cc8d14610159578063e01ad5fd14610154578063e0a9bc2b1461014f578063e846034a1461014a578063e981bcad14610145578063f245fe7a146101405763fdc10bc90361000e57611a87565b6114de565b61143f565b611421565b611388565b6112bd565b61129f565b611219565b6111db565b6110b0565b611056565b611025565b610fed565b610f93565b610ee7565b610d67565b610b54565b610b2d565b610a6b565b610982565b61095b565b610930565b610396565b6102af565b61022e565b346101d45760003660031901126101d457602047604051908152f35b600080fd5b634e487b7160e01b600052603260045260246000fd5b60135481101561022957601360005260021b7f66de8ffda797e3de9c05e8fc57b3bf0ec28a930d40b0d285d93c06501cf6a0900190600090565b6101d9565b346101d45760203660031901126101d4576004356013548110156101d457610255906101ef565b50805460018201546002830154600390930154604080516001600160a01b0394851681529390921660208401529082019290925260ff90911615156060820152608090f35b0390f35b6001600160a01b038116036101d457565b346101d4576020806003193601126101d45761032e6004356102d08161029e565b6001600160a01b038060025416906040519216848301528382526102f382611b54565b6040519061030082611b54565b601182527f69735369676e657228616464726573732900000000000000000000000000000085830152612968565b91908061038c575b156103625781816103509261029a9451830101910161286f565b60405190151581529081906020820190565b60046040517f3204506f000000000000000000000000000000000000000000000000000000008152fd5b5080825114610336565b346101d45760003660031901126101d4576103c86103bc6000546001600160a01b031690565b6001600160a01b031690565b604051907f97f3815a000000000000000000000000000000000000000000000000000000008252602082600481845afa9182156107605760009261090f575b506040519163cfbffe5360e01b8352602083600481855afa928315610760576000936108ee575b506040519063ab6e844f60e01b8252602082600481865afa918215610760576000926108cd575b5060405191630536340960e21b8352602083600481875afa928315610760576000936108ac575b506040519263d1f956b160e01b8452602084600481885afa9384156107605760009461088b575b5060405193631cc3bfab60e31b8552602085600481895afa9485156107605760009561086a575b5060405163e09d394d60e01b81526020816004818a5afa9081156107605760009161084b575b506040516314ac1b5960e21b81526020816004818b5afa9081156107605760009161082c575b5060405163013cf08b60e01b815260006004820152916020836024818c5afa9283156107605760009361080b575b5060405197635e09dbe760e01b89526020896004818d5afa948515610760576004996000966107ea575b5060208b6040519b8c8092635506ee0b60e11b82525afa9687156107605760049a6000986107c9575b5060208c6040519c8d8092636402742760e01b82525afa9889156107605760049b60009a6107a8575b5060208d6040519d8e80926330125cf560e01b82525afa9a8b15610760578d60049d60009d610786575b506020906040519e8f80926324768d9160e01b82525afa9c8d156107605760009d610765575b50604051809e81906313b92d3560e31b82525a92600491602094fa9d8e156107605760009e61072f575b50610643611bae565b6001600160a01b0390911681529d8e906001600160a01b031660208201526040019061067791906001600160a01b03169052565b6001600160a01b031660608d01526001600160a01b031660808c01526001600160a01b031660a08b01526001600160a01b031660c08a01526001600160a01b031660e08901526001600160a01b03166101008801526001600160a01b03166101208701526001600160a01b03166101408601526001600160a01b03166101608501526001600160a01b03166101808401526001600160a01b03166101a08301526001600160a01b03166101c08201526100169061256c565b610752919e5060203d602011610759575b61074a8183611b8c565b810190611c03565b9c3861063a565b503d610740565b611c1b565b61077f919d5060203d6020116107595761074a8183611b8c565b9b38610610565b6020919d506107a190823d84116107595761074a8183611b8c565b9c906105ea565b6107c2919a5060203d6020116107595761074a8183611b8c565b98386105c0565b6107e391985060203d6020116107595761074a8183611b8c565b9638610597565b61080491965060203d6020116107595761074a8183611b8c565b943861056e565b61082591935060203d6020116107595761074a8183611b8c565b9138610544565b610845915060203d6020116107595761074a8183611b8c565b38610516565b610864915060203d6020116107595761074a8183611b8c565b386104f0565b61088491955060203d6020116107595761074a8183611b8c565b93386104ca565b6108a591945060203d6020116107595761074a8183611b8c565b92386104a3565b6108c691935060203d6020116107595761074a8183611b8c565b913861047c565b6108e791925060203d6020116107595761074a8183611b8c565b9038610455565b61090891935060203d6020116107595761074a8183611b8c565b913861042e565b61092991925060203d6020116107595761074a8183611b8c565b9038610407565b346101d45760203660031901126101d45761094961246a565b610954600435612169565b6001601155005b346101d45760003660031901126101d45760206001600160a01b0360005416604051908152f35b346101d45760203660031901126101d45760043580151580610a5f575b15610a1b576109b06109b591611d1c565b6101ef565b5080546001600160a01b031661029a6109d860018401546001600160a01b031690565b926109ec6003600283015492015460ff1690565b604080516001600160a01b03958616815295909416602086015292840152901515606083015281906080820190565b606460405162461bcd60e51b815260206004820152601760248201527f70726f706f7365722e696e76616c69642e666f726d69640000000000000000006044820152fd5b5060135481111561099f565b346101d45760203660031901126101d457600435610a888161029e565b6001600160a01b03809116906000918083526012602052604083205480151580610b21575b610ab5578380f35b6000198101908111610b1c57610aca906101ef565b5050808352601260205282604081205560145468010000000000000000811015610b1757806001610afe9201601455610f5c565b909283549160031b92831b921b19161790553880808380f35b611aeb565b611d06565b50601354811115610aad565b346101d45760003660031901126101d45760206001600160a01b0360015416604051908152f35b346101d45760603660031901126101d457600435610b718161029e565b602435610b7d8161029e565b6001600160a01b039182811615610d3d57600092821683526020601281526040842054610cf957600490610bd0610bb2611b01565b509384906001600160a01b03166001600160a01b0319825416179055565b610bf4600184019485906001600160a01b03166001600160a01b0319825416179055565b610bfc611beb565b9080610c126103bc88546001600160a01b031690565b60405194858092630536340960e21b82525afa91821561076057610c7f610c9f93610c92926002968a92610cd6575b50610c8d906040519384917fffa734f00000000000000000000000000000000000000000000000000000000088840152604435903060248501611c4a565b03601f198101845283611b8c565b612ad2565b8051810182019101611cf7565b910155610cd2610cb960135492546001600160a01b031690565b6001600160a01b03166000526012602052604060002090565b5580f35b610c8d919250610cf290863d88116107595761074a8183611b8c565b9190610c41565b6064906040519062461bcd60e51b82526004820152601260248201527f70726f706f7365722e746f2e65786973747300000000000000000000000000006044820152fd5b60046040517fe6c4247b000000000000000000000000000000000000000000000000000000008152fd5b60803660031901126101d457600435610d7f8161029e565b610d8761246a565b6004546001600160a01b031660046020610dac6103bc6000546001600160a01b031690565b604051928380927fde433f170000000000000000000000000000000000000000000000000000000082525afa90811561076057610e2f91610e0d91600091610ec9575b50604080516001600160a01b03909216602083015290918291820190565b0392610e21601f1994858101845283611b8c565b610e29612533565b906129fb565b6001600160a01b038116610e48575b6100166001601155565b610c8d610eb492610ec0946040519485917fc107930a00000000000000000000000000000000000000000000000000000000602084015260643590604435906024359060248601909493926060926001600160a01b036080840197168352602083015260408201520152565b03908101845283611b8c565b50388080610e3e565b610ee1915060203d81116107595761074a8183611b8c565b38610def565b346101d45760003660031901126101d4576020610f546001600160a01b0360065416604051610f1581611b54565b601381527f67657464656c656761746f72436f756e742829000000000000000000000000008482015260405191610f4b83611b70565b60008352612a4c565b604051908152f35b6014548110156102295760146000527fce6d7b5282bd9a3661ae061feed1dbda4e52ab073b1f9285be6e155d9c38d4ec0190600090565b346101d45760203660031901126101d4576004356014548110156101d4576001600160a01b0360209160146000527fce6d7b5282bd9a3661ae061feed1dbda4e52ab073b1f9285be6e155d9c38d4ec015416604051908152f35b346101d45760203660031901126101d457602061101460043561100f8161029e565b611d92565b6001600160a01b0360405191168152f35b346101d45760203660031901126101d457602061104c6004356110478161029e565b612883565b6040519015158152f35b346101d45760203660031901126101d457600435601454811015610229576001600160a01b0360209160146000527fce6d7b5282bd9a3661ae061feed1dbda4e52ab073b1f9285be6e155d9c38d4ec015416604051908152f35b346101d45760203660031901126101d4576004356001600160a01b036005541633036111b157600090600460206110f16103bc85546001600160a01b031690565b604051928380927f46f991ac0000000000000000000000000000000000000000000000000000000082525afa80156107605783808481949382948391611193575b505af161113d61290d565b5015610362577fcdcc745fe377b103b45fa0cec23ae3ef93d6fc6a84a01f0d18c40b354dd1d5d861118d61117c6103bc600b546001600160a01b031690565b604051938452929081906020820190565b0390a280f35b6111ab915060203d81116107595761074a8183611b8c565b38611132565b60046040517fea8e4eb5000000000000000000000000000000000000000000000000000000008152fd5b346101d45760203660031901126101d4576001600160a01b036004356112008161029e565b1660005260126020526020604060002054604051908152f35b346101d45760203660031901126101d4576004356112368161029e565b803b600061124382611bcf565b926112516040519485611b8c565b82845260208401903c602d81511061127557602a602091015160601c604051908152f35b60046040517fbaf3f0f7000000000000000000000000000000000000000000000000000000008152fd5b346101d45760003660031901126101d4576020601354604051908152f35b346101d4576020806003193601126101d45761029a90600435906112e08261029e565b6113446001600160a01b039283600654169360405191168382015282815261130781611b54565b60405161131381611b54565b601881527f697364656c656761746f724e6f6465286164647265737329000000000000000084820152600094612968565b91908061137e575b611365575b505060405190151581529081906020820190565b6113779250808251830101910161286f565b3880611351565b508082511461134c565b346101d45760003660031901126101d4576113f46001600160a01b03600254166040516113b481611b54565b600881527f69735361666528290000000000000000000000000000000000000000000000006020820152604051916113eb83611b70565b60008352612968565b9080611416575b15610362576103508160208061029a9451830101910161286f565b5060208151146113fb565b346101d45760003660031901126101d4576020601454604051908152f35b346101d45760403660031901126101d45761145861246a565b61146961146430612883565b611f09565b6001600160a01b03600454166040517f33b59a5b0000000000000000000000000000000000000000000000000000000060208201526004356024820152602435604482015260448152608081019181831067ffffffffffffffff841117610b17576114d692604052612ad2565b506001601155005b346101d457600080600319360112611a84576114f861246a565b61150c6103bc82546001600160a01b031690565b60409081519182809263ab6e844f60e01b8252602093849160049687915afa908115610760578591611a67575b5061157282517f339459a600000000000000000000000000000000000000000000000000000000928386830152868252610c8d82611b54565b5083836115896103bc88546001600160a01b031690565b84519283809263cfbffe5360e01b82525afa8015610760576115c1918791611a4a575b508351908386830152868252610c8d82611b54565b5083836115d86103bc88546001600160a01b031690565b845192838092630536340960e21b82525afa80156107605761160f918791611a4a57508351908386830152868252610c8d82611b54565b5083836116266103bc88546001600160a01b031690565b84519283809263d1f956b160e01b82525afa80156107605761165d918791611a4a57508351908386830152868252610c8d82611b54565b5083836116746103bc88546001600160a01b031690565b845192838092631cc3bfab60e31b82525afa8015610760576116ab918791611a4a57508351908386830152868252610c8d82611b54565b5083836116c26103bc88546001600160a01b031690565b84519283809263e09d394d60e01b82525afa8015610760576116f9918791611a4a57508351908386830152868252610c8d82611b54565b5083836117106103bc88546001600160a01b031690565b8451928380926314ac1b5960e21b82525afa801561076057611747918791611a4a57508351908386830152868252610c8d82611b54565b5061175c6103bc86546001600160a01b031690565b838351809263013cf08b60e01b8252818061177e8a8201906000602083019252565b03915afa8015610760576117a7918791611a4a57508351908386830152868252610c8d82611b54565b506117bc6103bc86546001600160a01b031690565b9083835180937fb771c89600000000000000000000000000000000000000000000000000000000825281806117f88a8201906000602083019252565b03915afa918215610760578592611825918891611a2d575b508451908387830152848252610c8d82611b54565b508361183b6103bc88546001600160a01b031690565b845193848092635e09dbe760e01b82525afa918215610760578592611875918891611a2d57508451908387830152848252610c8d82611b54565b508361188b6103bc88546001600160a01b031690565b845193848092635506ee0b60e11b82525afa9182156107605785926118c5918891611a2d57508451908387830152848252610c8d82611b54565b50836118db6103bc88546001600160a01b031690565b845193848092636402742760e01b82525afa918215610760578592611915918891611a2d57508451908387830152848252610c8d82611b54565b508361192b6103bc88546001600160a01b031690565b8451938480926330125cf560e01b82525afa918215610760578592611965918891611a2d57508451908387830152848252610c8d82611b54565b508361197b6103bc88546001600160a01b031690565b8451938480926324768d9160e01b82525afa9182156107605785926119b5918891611a2d57508451908387830152848252610c8d82611b54565b50836119cb6103bc88546001600160a01b031690565b8451968780926313b92d3560e31b82525afa92831561076057611a00958794611a0e575b5051938401528252610c8d82611b54565b50611a0b6001601155565b80f35b611a26919450853d87116107595761074a8183611b8c565b92386119ef565b611a449150863d88116107595761074a8183611b8c565b38611810565b611a619150853d87116107595761074a8183611b8c565b386115ac565b611a7e9150833d85116107595761074a8183611b8c565b38611539565b80fd5b346101d45760003660031901126101d4576020610f546001600160a01b0360035416604051611ab581611b54565b600681527f69416765282900000000000000000000000000000000000000000000000000008482015260405191610f4b83611b70565b634e487b7160e01b600052604160045260246000fd5b60135468010000000000000000811015610b1757600181018060135581101561022957601360005260021b7f66de8ffda797e3de9c05e8fc57b3bf0ec28a930d40b0d285d93c06501cf6a0900190600090565b6040810190811067ffffffffffffffff821117610b1757604052565b6020810190811067ffffffffffffffff821117610b1757604052565b90601f8019910116810190811067ffffffffffffffff821117610b1757604052565b604051906101e0820182811067ffffffffffffffff821117610b1757604052565b67ffffffffffffffff8111610b1757601f01601f191660200190565b604051611bf781611b70565b60008152906000368137565b908160209103126101d45751611c188161029e565b90565b6040513d6000823e3d90fd5b60005b838110611c3a5750506000910152565b8181015183820152602001611c2a565b6000926001600160a01b0360a09396959660c08452602660c08501527f547269676765722e496e7374616e63652e70726f706f73616c2e55736572547260e08501527f616e73666572000000000000000000000000000000000000000000000000000061010085015216602083015283604083015261012080606084015281518091840152611ce3816101409360208587019101611c27565b601f80199101168201019460808201520152565b908160209103126101d4575190565b634e487b7160e01b600052601160045260246000fd5b600019810191908211610b1c57565b60405190611d3882611b54565b601282527f6765745374617475732875696e743235362900000000000000000000000000006020830152565b519081151582036101d457565b91908260409103126101d457611c186020611d8b84611d64565b9301611d64565b611daf906001600160a01b03166000526012602052604060002090565b5480151580611eb2575b15611eac576109b0611dca91611d1c565b50600381015460ff16611e9f57611dec6103bc6000546001600160a01b031690565b6040518091630536340960e21b825281600460209384935afa801561076057610c7f611e4891611e5594600091611e82575b50611e3a60028701546040519384918783019190602083019252565b611e42611d2b565b9061293d565b8051810182019101611d71565b81929192611e7a575b5060009115611e7657546001600160a01b0316905090565b5090565b915038611e5e565b611e999150843d86116107595761074a8183611b8c565b38611e1e565b546001600160a01b031690565b50600090565b50601354811115611db9565b15611ec557565b606460405162461bcd60e51b815260206004820152601c60248201527f7574696c6974792e62617463682e6c696d69742e6578636565646564000000006044820152fd5b15611f1057565b606460405162461bcd60e51b815260206004820152601760248201527f7574696c6974792e756e7365637572652e6661696c65640000000000000000006044820152fd5b60405190611f6182611b54565b600f82527f6765744e6f646573436f756e74282900000000000000000000000000000000006020830152565b15611f9457565b606460405162461bcd60e51b815260206004820152601360248201527f7574696c6974792e696d706f72742e646f6e65000000000000000000000000006044820152fd5b91908201809211610b1c57565b6000198114610b1c5760010190565b6040519061200182611b54565b601782527f6765744e6f64654279496e6465782875696e74323536290000000000000000006020830152565b1561203457565b606460405162461bcd60e51b815260206004820152601660248201527f70726f78792e696e76616c69642e696e7374616e6365000000000000000000006044820152fd5b6040519061208582611b54565b601382527f496e7374546f55736572286164647265737329000000000000000000000000006020830152565b156120b857565b606460405162461bcd60e51b815260206004820152601260248201527f70726f78792e696e76616c69642e6e6f646500000000000000000000000000006044820152fd5b6040519061210982611b54565b601082527f6765744e6f6465286164647265737329000000000000000000000000000000006020830152565b908160a09103126101d45780519160208201516121518161029e565b91604081015191611c186080611d8b60608501611d64565b6121766064821115611ebe565b61218261146430612883565b6121976103bc6000546001600160a01b031690565b906040918251809381927f447aa304000000000000000000000000000000000000000000000000000000008352602093849160049485915afa9485156107605760009561244b575b506121f96121eb611beb565b6121f3611f54565b87612a4c565b9384156124435761224061222e61221785546001600160a01b031690565b61221f611beb565b90612228611f54565b90612a4c565b9161223a838811611f8d565b82611fd8565b9480861161243b575b505b84811061225a57505050505050565b6123e8906123e27f50db85d10000000000000000000000000000000000000000000000000000000084516122bb81612299868b83019190602083019252565b03916122ad601f1993848101835282611b8c565b6122b5611ff4565b8c6129fb565b906001600160a01b03906122d2828416151561202d565b898c89600161237761236961234f61235b61232461230a6123168d89519283918d83019190916001600160a01b036020820193169052565b038c8101835282611b8c565b61231e612078565b896129fb565b9a6123328b8d1615156120b1565b86519283918a83019190916001600160a01b036020820193169052565b03898101835282611b8c565b6123636120fc565b8661293d565b858082518301019101612135565b505050969096169561238a8115156120b1565b148015612432575b6123ed575b5050610eb4846123ab81610c8d96976124a5565b8b546001600160a01b0316958b51978894850152602484019060209093929360408301946001600160a01b03809216845216910152565b50611fe5565b61224b565b516001600160a01b03909416828501908152610c8d94610eb4926124289261242090839060200103878101845283611b8c565b610e29612078565b9350508c89612397565b50841515612392565b945038612249565b505050505050565b612463919550833d85116107595761074a8183611b8c565b93386121df565b60026011541461247b576002601155565b60046040517f3ee5aeb5000000000000000000000000000000000000000000000000000000008152fd5b6013549068010000000000000000821015610b17576124ed6124cf836001600395016013556101ef565b509182906001600160a01b03166001600160a01b0319825416179055565b6001810180546001600160a01b0319166001600160a01b03851617905501600160ff198254161790556001600160a01b0360135491166000526012602052604060002055565b6040519061254082611b54565b601682527f67657455736572546f496e7374286164647265737329000000000000000000006020830152565b6128516101c061286d926125a661258a82516001600160a01b031690565b6001600160a01b03166001600160a01b03196002541617600255565b6125d96125bd60208301516001600160a01b031690565b6001600160a01b03166001600160a01b03196003541617600355565b61260c6125f060408301516001600160a01b031690565b6001600160a01b03166001600160a01b03196004541617600455565b61263f61262360608301516001600160a01b031690565b6001600160a01b03166001600160a01b03196005541617600555565b61267261265660808301516001600160a01b031690565b6001600160a01b03166001600160a01b03196006541617600655565b6126a561268960a08301516001600160a01b031690565b6001600160a01b03166001600160a01b03196007541617600755565b6126d86126bc60c08301516001600160a01b031690565b6001600160a01b03166001600160a01b03196008541617600855565b61270b6126ef60e08301516001600160a01b031690565b6001600160a01b03166001600160a01b03196009541617600955565b61273f6127236101008301516001600160a01b031690565b6001600160a01b03166001600160a01b0319600a541617600a55565b6127736127576101208301516001600160a01b031690565b6001600160a01b03166001600160a01b0319600b541617600b55565b6127a761278b6101408301516001600160a01b031690565b6001600160a01b03166001600160a01b0319600c541617600c55565b6127db6127bf6101608301516001600160a01b031690565b6001600160a01b03166001600160a01b0319600d541617600d55565b61280f6127f36101808301516001600160a01b031690565b6001600160a01b03166001600160a01b0319600e541617600e55565b6128436128276101a08301516001600160a01b031690565b6001600160a01b03166001600160a01b0319600f541617600f55565b01516001600160a01b031690565b6001600160a01b03166001600160a01b03196010541617601055565b565b908160209103126101d457611c1890611d64565b6128e66001600160a01b0380600254166040519160209416848301528382526128ab82611b54565b604051906128b882611b54565b601582527f697353656375726542617365286164647265737329000000000000000000000085830152612968565b9080612903575b156103625781611c18928251830101910161286f565b50818151146128ed565b3d15612938573d9061291e82611bcf565b9161292c6040519384611b8c565b82523d6000602084013e565b606090565b906129489291612968565b9060009015612955575090565b604051915061296382611b70565b815290565b803b156129e2576000927fffffffff0000000000000000000000000000000000000000000000000000000083602086955191012016906129d260246040518093602082019586526129c28151809260208686019101611c27565b8101036004810184520182611b8c565b51915afa6129de61290d565b9091565b5050506000906040516129f481611b70565b6000815290565b9291612a0991600094612968565b9080612a41575b612a175750565b9091506020818051810103126101d45760206001600160a01b03910151612a3d8161029e565b1690565b506020815114612a10565b9291612a5a91600094612968565b9080612a7d575b612a685750565b611c1891925060208082518301019101611cf7565b506020815114612a61565b90602082519201517fffffffff00000000000000000000000000000000000000000000000000000000908181169360048110612ac357505050565b60040360031b82901b16169150565b6001600160a01b03811615610d3d57600080918351908260208601915af190612af961290d565b9115612b03575090565b805160009190600411612b7f57612b1a9150612a88565b815115612b2a5750805190602001fd5b6040517f21c09d340000000000000000000000000000000000000000000000000000000081527fffffffff00000000000000000000000000000000000000000000000000000000919091166004820152602490fd5b50612b1a56fea2646970667358221220613d5b7be2a1f5a3b4a02751859a99c34095db6a275fb807d84203ad91f6f9bb64736f6c6343000814003360803461009957601f620025b038819003918201601f19168301916001600160401b0383118484101761009e5780849260209460405283398101031261009957516001600160a01b038116908190036100995780156100875760018060a01b031933816001541617600155600054161760005560016011556040516124fb9081620000b58239f35b60405163e6c4247b60e01b8152600490fd5b600080fd5b634e487b7160e01b600052604160045260246000fdfe60806040526004361015610018575b361561001657005b005b60003560e01c80631133b8861461017857806312065fe0146101735780631f185d161461016e578063339459a6146101695780633b9b7955146101645780636ec35cd51461015f5780638da5cb5b1461015a5780638dab13dc146101555780639498d88b146101505780639b03bea61461014b5780639fb2726b14610146578063a1f7f53914610141578063ae9568d71461013c578063af48452614610137578063b90306ad14610132578063c54e44b01461012d578063d7a83fc614610128578063e01ad5fd14610123578063e0a9bc2b1461011e578063e3d1d5bf14610119578063f5caf38c146101145763fdc10bc90361000e57611821565b6117e3565b611578565b61155d565b611492565b611452565b6113cc565b6112ba565b611289565b61123f565b6111ca565b610feb565b610fa3565b610cac565b610c09565b610be2565b610a61565b610a09565b610311565b610226565b61020a565b6101bb565b6001600160a01b0381160361018e57565b600080fd5b604090600319011261018e576004356101ab8161017d565b906024356101b88161017d565b90565b3461018e57602060ff6101fe6001600160a01b036101d836610193565b9116600052601284526040600020906001600160a01b0316600052602052604060002090565b54166040519015158152f35b3461018e57600036600319011261018e57602047604051908152f35b3461018e5760208060031936011261018e576102a56004356102478161017d565b6001600160a01b0380600254169060405192168483015283825261026a8261189b565b604051906102778261189b565b601182527f69735369676e6572286164647265737329000000000000000000000000000000858301526123db565b919080610307575b156102dd5781816102c7926102d99451830101910161225c565b60405190151581529081906020820190565b0390f35b60046040517f3204506f000000000000000000000000000000000000000000000000000000008152fd5b50808251146102ad565b3461018e57600036600319011261018e576103436103376000546001600160a01b031690565b6001600160a01b031690565b604051907f97f3815a000000000000000000000000000000000000000000000000000000008252602082600481845afa918215610839576000926109e8575b50604051917fcfbffe53000000000000000000000000000000000000000000000000000000008352602083600481855afa928315610839576000936109c7575b50604051907fab6e844f000000000000000000000000000000000000000000000000000000008252602082600481865afa918215610839576000926109a6575b50604051917f14d8d024000000000000000000000000000000000000000000000000000000008352602083600481875afa92831561083957600093610985575b50604051927fd1f956b1000000000000000000000000000000000000000000000000000000008452602084600481885afa93841561083957600094610964575b50604051937fe61dfd58000000000000000000000000000000000000000000000000000000008552602085600481895afa94851561083957600095610943575b506040517fe09d394d0000000000000000000000000000000000000000000000000000000081526020816004818a5afa90811561083957600091610924575b506040517f52b06d640000000000000000000000000000000000000000000000000000000081526020816004818b5afa90811561083957600091610905575b506040517f013cf08b00000000000000000000000000000000000000000000000000000000815260006004820152916020836024818c5afa928315610839576000936108e4575b50604051977f5e09dbe70000000000000000000000000000000000000000000000000000000089526020896004818d5afa948515610839576004996000966108c3575b5060208b6040519b8c80927faa0ddc160000000000000000000000000000000000000000000000000000000082525afa9687156108395760049a6000986108a2575b5060208c6040519c8d80927f640274270000000000000000000000000000000000000000000000000000000082525afa9889156108395760049b60009a610881575b5060208d6040519d8e80927f30125cf50000000000000000000000000000000000000000000000000000000082525afa9a8b15610839578d60049d60009d61085f575b506020906040519e8f80927f24768d910000000000000000000000000000000000000000000000000000000082525afa9c8d156108395760009d61083e575b50604051809e81907f9dc969a80000000000000000000000000000000000000000000000000000000082525a92600491602094fa9d8e156108395760009e610808575b5061071c6118fa565b6001600160a01b0390911681529d8e906001600160a01b031660208201526040019061075091906001600160a01b03169052565b6001600160a01b031660608d01526001600160a01b031660808c01526001600160a01b031660a08b01526001600160a01b031660c08a01526001600160a01b031660e08901526001600160a01b03166101008801526001600160a01b03166101208701526001600160a01b03166101408601526001600160a01b03166101608501526001600160a01b03166101808401526001600160a01b03166101a08301526001600160a01b03166101c082015261001690611f59565b61082b919e5060203d602011610832575b61082381836118d8565b810190611970565b9c38610713565b503d610819565b611e71565b610858919d5060203d6020116108325761082381836118d8565b9b386106d0565b6020919d5061087a90823d84116108325761082381836118d8565b9c90610691565b61089b919a5060203d6020116108325761082381836118d8565b983861064e565b6108bc91985060203d6020116108325761082381836118d8565b963861060c565b6108dd91965060203d6020116108325761082381836118d8565b94386105ca565b6108fe91935060203d6020116108325761082381836118d8565b9138610587565b61091e915060203d6020116108325761082381836118d8565b38610540565b61093d915060203d6020116108325761082381836118d8565b38610501565b61095d91955060203d6020116108325761082381836118d8565b93386104c2565b61097e91945060203d6020116108325761082381836118d8565b9238610482565b61099f91935060203d6020116108325761082381836118d8565b9138610442565b6109c091925060203d6020116108325761082381836118d8565b9038610402565b6109e191935060203d6020116108325761082381836118d8565b91386103c2565b610a0291925060203d6020116108325761082381836118d8565b9038610382565b3461018e57600036600319011261018e5760206001600160a01b0360005416604051908152f35b9181601f8401121561018e5782359167ffffffffffffffff831161018e576020808501948460051b01011161018e57565b3461018e57606036600319011261018e5767ffffffffffffffff6004803582811161018e57610a939036908301610a30565b919060243584811161018e57610aac9036908401610a30565b909460443590811161018e57610ac59036908501610a30565b959093610ad0612271565b15610bd357610ade336122f6565b8015610bbf575b15610bb057868303610b88575060005b828110610afe57005b80610b82610b0f6001938a89611e41565b35610b1981610fe1565b6001600160a01b03610b2c848b8a611e41565b35610b368161017d565b166000526012602052610b716040600020610b5a610b55868a8a611e41565b611e67565b6001600160a01b0316600052602052604060002090565b9060ff801983541691151516179055565b01610af5565b6040517fff633a38000000000000000000000000000000000000000000000000000000008152fd5b60405163ea8e4eb560e01b8152fd5b50336001600160a01b036005541614610ae5565b604051634ee2123760e11b8152fd5b3461018e57600036600319011261018e5760206001600160a01b0360015416604051908152f35b3461018e57602036600319011261018e57600435610c268161017d565b6001600160a01b038091166000526015602052806040600020541690601660205260406000205416908060005260126020526102d960ff610c7e846040600020906001600160a01b0316600052602052604060002090565b54166040519384938491939260409160608401956001600160a01b0380921685521660208401521515910152565b3461018e5760208060031936011261018e57600490813590610ccd8261017d565b610cd5612271565b15610f9357610ce3336122f6565b8015610f7f575b15610f6f576001600160a01b039283831615610f6057610d156103376000546001600160a01b031690565b91604051927f6325dd04000000000000000000000000000000000000000000000000000000009182855280858581855afa928315610839578795600094610f3f575b508190610db0610da260405180610d808c8783019190916001600160a01b036020820193169052565b0397610d94601f19998a81018452836118d8565b610d9c611e7d565b906123b0565b838082518301019101611eed565b98919a909a169916956040518095819382525afa96871561083957610ee0610e6b96610e2c89610ec8956100169c610ef9998b99600092610f1e575b50610e1e9192610e1260405195869283019190916001600160a01b036020820193169052565b039081018452836118d8565b610e26611f20565b90612489565b610e498a6001600160a01b03166000526017602052604060002090565b55610e8683610e6b8b6001600160a01b03166000526015602052604060002090565b906001600160a01b03166001600160a01b0319825416179055565b610ea785610e6b8b6001600160a01b03166000526016602052604060002090565b610b7185610ec8856001600160a01b03166000526012602052604060002090565b906001600160a01b0316600052602052604060002090565b6001600160a01b03166000526013602052604060002090565b610f038154611a1c565b90556001600160a01b03166000526014602052604060002090565b610e1e9250610f3990843d86116108325761082381836118d8565b91610dec565b82919450610f5990823d84116108325761082381836118d8565b9390610d57565b60405163d92e233d60e01b8152fd5b8260405163ea8e4eb560e01b8152fd5b50336001600160a01b036005541614610cea565b82604051634ee2123760e11b8152fd5b3461018e57602036600319011261018e576001600160a01b03600435610fc88161017d565b1660005260176020526020604060002054604051908152f35b8015150361018e57565b3461018e57608036600319011261018e57600467ffffffffffffffff813581811161018e5761101d9036908401610a30565b9160243590811161018e576110359036908501610a30565b604435939161104385610fe1565b60643561104e612271565b156111ba5761105c336122f6565b80156111a6575b156111965782840361116d5760005b84811061107b57005b861561113b57816110ac611093610b5584898b611e41565b6001600160a01b03166000526018602052604060002090565b54036110db57876040517fe3913549000000000000000000000000000000000000000000000000000000008152fd5b80826110f0611093610b556001958a8c611e41565b556110fc818686611e41565b3561113261112a611111610b55858b8d611e41565b6001600160a01b03166000526017602052604060002090565b918254611a2a565b90555b01611072565b806111496001928686611e41565b3561116661115e611111610b55858b8d611e41565b9182546119af565b9055611135565b866040517fff633a38000000000000000000000000000000000000000000000000000000008152fd5b8660405163ea8e4eb560e01b8152fd5b50336001600160a01b036005541614611063565b86604051634ee2123760e11b8152fd5b3461018e57600036600319011261018e5760206112376001600160a01b03600654166040516111f88161189b565b601381527f67657464656c656761746f72436f756e74282900000000000000000000000000848201526040519161122e836118bc565b60008352612489565b604051908152f35b3461018e5760206112806001600160a01b0361125a36610193565b9116600052601383526040600020906001600160a01b0316600052602052604060002090565b54604051908152f35b3461018e57602036600319011261018e5760206112b06004356112ab8161017d565b6122f6565b6040519015158152f35b3461018e57602036600319011261018e576004356001600160a01b036005541633036113bb57600090600460206112fb61033785546001600160a01b031690565b604051928380927f46f991ac0000000000000000000000000000000000000000000000000000000082525afa8015610839578380848194938294839161139d575b505af1611347612380565b50156102dd577fcdcc745fe377b103b45fa0cec23ae3ef93d6fc6a84a01f0d18c40b354dd1d5d8611397611386610337600b546001600160a01b031690565b604051938452929081906020820190565b0390a280f35b6113b5915060203d81116108325761082381836118d8565b3861133c565b600460405163ea8e4eb560e01b8152fd5b3461018e57602036600319011261018e576004356113e98161017d565b803b60006113f68261191b565b9261140460405194856118d8565b82845260208401903c602d81511061142857602a602091015160601c604051908152f35b60046040517fbaf3f0f7000000000000000000000000000000000000000000000000000000008152fd5b3461018e57602036600319011261018e5760206004356114718161017d565b6001600160a01b038091166000526014825260406000205416604051908152f35b3461018e5760208060031936011261018e576102d990600435906114b58261017d565b6115196001600160a01b03928360065416936040519116838201528281526114dc8161189b565b6040516114e88161189b565b601881527f697364656c656761746f724e6f64652861646472657373290000000000000000848201526000946123db565b919080611553575b61153a575b505060405190151581529081906020820190565b61154c9250808251830101910161225c565b3880611526565b5080825114611521565b3461018e57600036600319011261018e5760206112b0612271565b3461018e5761158636610193565b61158e612271565b156117d25761159c336122f6565b80156117be575b156113bb576001600160a01b038083169081156117ad57821680156117ad57036115c957005b816117aa916115ed6000946001600160a01b03166000526017602052604060002090565b5461160b826001600160a01b03166000526017602052604060002090565b5561165961163c61162f846001600160a01b03166000526015602052604060002090565b546001600160a01b031690565b610e6b836001600160a01b03166000526015602052604060002090565b61169961167c61162f846001600160a01b03166000526016602052604060002090565b610e6b836001600160a01b03166000526016602052604060002090565b6116d981610e6b6116c061162f836001600160a01b03166000526016602052604060002090565b6001600160a01b03166000526014602052604060002090565b6117146116f9836001600160a01b03166000526018602052604060002090565b54916001600160a01b03166000526018602052604060002090565b5582611733826001600160a01b03166000526017602052604060002090565b5561176a61175a6116c061162f846001600160a01b03166000526016602052604060002090565b6001600160a01b03198154169055565b61178a61175a826001600160a01b03166000526015602052604060002090565b61109361175a826001600160a01b03166000526016602052604060002090565b55005b600460405163d92e233d60e01b8152fd5b50336001600160a01b0360055416146115a3565b6004604051634ee2123760e11b8152fd5b3461018e57606036600319011261018e576100166004356118038161017d565b60243561180f8161017d565b6044359161181c83610fe1565b611a37565b3461018e57600036600319011261018e5760206112376001600160a01b036003541660405161184f8161189b565b600681527f6941676528290000000000000000000000000000000000000000000000000000848201526040519161122e836118bc565b634e487b7160e01b600052604160045260246000fd5b6040810190811067ffffffffffffffff8211176118b757604052565b611885565b6020810190811067ffffffffffffffff8211176118b757604052565b90601f8019910116810190811067ffffffffffffffff8211176118b757604052565b604051906101e0820182811067ffffffffffffffff8211176118b757604052565b67ffffffffffffffff81116118b757601f01601f191660200190565b604051906119448261189b565b601682527f67657455736572546f496e7374286164647265737329000000000000000000006020830152565b9081602091031261018e57516101b88161017d565b634e487b7160e01b600052601160045260246000fd5b6000198101919082116119aa57565b611985565b919082039182116119aa57565b6040516119c8816118bc565b60008152906000368137565b604051906119e18261189b565b601082527f6d61784d61707065644c696d69742829000000000000000000000000000000006020830152565b9081602091031261018e575190565b90600182018092116119aa57565b919082018092116119aa57565b92916001600160a01b0393848116156117ad578483169283156117ad57611a86611a82611a7b33610ec8856001600160a01b03166000526012602052604060002090565b5460ff1690565b1590565b611e1757600454604080516001600160a01b038581166020808401919091528252919892611ada9261033792611acb92909116611ac38c836118d8565b610d9c611937565b60208082518301019101611970565b15611e0757611aff61162f336001600160a01b03166000526014602052604060002090565b8415611ca55716611c7c57611b6c611b45611b36611b256003546001600160a01b031690565b611b2d6119bc565b90610d9c6119d4565b60208082518301019101611a0d565b611b6633610ec8856001600160a01b03166000526013602052604060002090565b54101590565b611c53577f73e162dc4d0165c5ab2c676b5ce1e58e8333a5e1b0e75ea3957f2ca0aa8abc2e939495611c1c82611bbc611c4e94610e6b876001600160a01b03166000526015602052604060002090565b611bdd33610e6b876001600160a01b03166000526016602052604060002090565b611bfe85610e6b336001600160a01b03166000526014602052604060002090565b610ec833916001600160a01b03166000526013602052604060002090565b611c268154611a1c565b9055513381526001600160a01b03909216602083015291151560408201529081906060820190565b0390a2565b600486517fb111d8ef000000000000000000000000000000000000000000000000000000008152fd5b600486517f548635ce000000000000000000000000000000000000000000000000000000008152fd5b925092509394925081811615611e0157611d88927f73e162dc4d0165c5ab2c676b5ce1e58e8333a5e1b0e75ea3957f2ca0aa8abc2e61175a93611cfe61162f856001600160a01b03166000526015602052604060002090565b611d4c85611d2261162f826001600160a01b03166000526016602052604060002090565b95516001600160a01b03968716815295166020860152600060408601529116929081906060820190565b0390a2611d6f61175a826001600160a01b03166000526015602052604060002090565b6001600160a01b03166000526016602052604060002090565b611da861175a336001600160a01b03166000526014602052604060002090565b611dc933610ec8836001600160a01b03166000526013602052604060002090565b54611dd15750565b611df390610ec833916001600160a01b03166000526013602052604060002090565b611dfd815461199b565b9055565b50505050565b6004875163d92e233d60e01b8152fd5b60046040517f747845de000000000000000000000000000000000000000000000000000000008152fd5b9190811015611e515760051b0190565b634e487b7160e01b600052603260045260246000fd5b356101b88161017d565b6040513d6000823e3d90fd5b604051906060820182811067ffffffffffffffff8211176118b757604052602482527f65737329000000000000000000000000000000000000000000000000000000006040837f67657456616c696461746f7244656c656761746f724f6655736572286164647260208201520152565b9081606091031261018e578051611f038161017d565b9160406020830151611f148161017d565b9201516101b881610fe1565b60405190611f2d8261189b565b601182527f696e636f6d654f662861646472657373290000000000000000000000000000006020830152565b61223e6101c061225a92611f93611f7782516001600160a01b031690565b6001600160a01b03166001600160a01b03196002541617600255565b611fc6611faa60208301516001600160a01b031690565b6001600160a01b03166001600160a01b03196003541617600355565b611ff9611fdd60408301516001600160a01b031690565b6001600160a01b03166001600160a01b03196004541617600455565b61202c61201060608301516001600160a01b031690565b6001600160a01b03166001600160a01b03196005541617600555565b61205f61204360808301516001600160a01b031690565b6001600160a01b03166001600160a01b03196006541617600655565b61209261207660a08301516001600160a01b031690565b6001600160a01b03166001600160a01b03196007541617600755565b6120c56120a960c08301516001600160a01b031690565b6001600160a01b03166001600160a01b03196008541617600855565b6120f86120dc60e08301516001600160a01b031690565b6001600160a01b03166001600160a01b03196009541617600955565b61212c6121106101008301516001600160a01b031690565b6001600160a01b03166001600160a01b0319600a541617600a55565b6121606121446101208301516001600160a01b031690565b6001600160a01b03166001600160a01b0319600b541617600b55565b6121946121786101408301516001600160a01b031690565b6001600160a01b03166001600160a01b0319600c541617600c55565b6121c86121ac6101608301516001600160a01b031690565b6001600160a01b03166001600160a01b0319600d541617600d55565b6121fc6121e06101808301516001600160a01b031690565b6001600160a01b03166001600160a01b0319600e541617600e55565b6122306122146101a08301516001600160a01b031690565b6001600160a01b03166001600160a01b0319600f541617600f55565b01516001600160a01b031690565b6001600160a01b03166001600160a01b03196010541617601055565b565b9081602091031261018e57516101b881610fe1565b6122cc6001600160a01b036002541660405161228c8161189b565b600881527f69735361666528290000000000000000000000000000000000000000000000006020820152604051916122c3836118bc565b600083526123db565b90806122eb575b156102dd57806020806101b89351830101910161225c565b5060208151146122d3565b6123596001600160a01b03806002541660405191602094168483015283825261231e8261189b565b6040519061232b8261189b565b601582527f6973536563757265426173652861646472657373290000000000000000000000858301526123db565b9080612376575b156102dd57816101b8928251830101910161225c565b5081815114612360565b3d156123ab573d906123918261191b565b9161239f60405193846118d8565b82523d6000602084013e565b606090565b906123bb92916123db565b90600090156123c8575090565b60405191506123d6826118bc565b815290565b9190823b15612470577fffffffff00000000000000000000000000000000000000000000000000000000815160208093012016916040519180830193845281519160005b83811061245c57505050918161244c602482600097959688970187838201520360048101845201826118d8565b51915afa612458612380565b9091565b81810183015185820160240152820161241f565b505050600090604051612482816118bc565b6000815290565b9291612497916000946123db565b90806124ba575b6124a55750565b6101b891925060208082518301019101611a0d565b50602081511461249e56fea26469706673582212203a44ac4e8eeeb9c9c2aef181791e8e02cf4bba9c53c01284ea2aa266a0dd7b9264736f6c634300081400336080806040523462001c44576200003962004cea91823803809362000025828462001c81565b82396001600160a01b039281019062001ca5565b16801562001c3257600180546001600160a01b03199081163317825560008054909116831790554260115560a760255561010e602655601e602b55602c819055602d8190556002602e5561c350602f5561025860305560036031819055601960325568878678326eac900000603355670de0b6b3a764000060345569021e19e0c9bab24000006035556036829055603755603855600760395560056048556049805460ff1916905560405160e081016001600160401b0381118282101762001c1c576102589160c0916040526002815260646020820152600160408201526023606082015260646080820152600160a0820152015260026016556064601755600160185560236019556064601a556001601b55610258601c5560b460606200016062001cc6565b60198152600a6020820152605a604082015201526019601d55600a601e55605a601f5560b46020556200019262001cc6565b600581526001602082015260b460606101689283604082015201526005602155600160225560235560b4602455600160a0620001cd62001cfc565b6003815260036020820152826040820152826060820152826080820152015260036027556003602855630101010163ffffffff1960295416176029556200021362001cc6565b610258606061014092838152600b6020820152600a60408201520152603a55600b603b55600a603c55610258603d5561025860606200025162001cc6565b60d28152600b6020820152600a6040820152015260d2603e55600b603f55600a6040556102586041556200028462001cfc565b90604051635e09dbe760e01b8152602081600481855afa91821562001bee5760049260209260009162001bfa575b506001600160a01b03168452605f828501526001604080860191909152516311be646b60e21b815292839182905afa801562001bee5760409160009162001bb8575b5060018060a01b03169182606082015260056080820152600160a082015260018060a01b0381511660018060a01b031960425416176042556020810151604355015160445560018060a01b031960455416176045556005604655600160475562000446604051620003658162001c49565b60008082526020808301828152604084018381526060850184815261270f60808701908152948052601390935293517f8fa6efc3be94b5b348b21fea823fe8d100408cee9b7f90524494500445d8ff6c55517f8fa6efc3be94b5b348b21fea823fe8d100408cee9b7f90524494500445d8ff6d5591517f8fa6efc3be94b5b348b21fea823fe8d100408cee9b7f90524494500445d8ff6e5590517f8fa6efc3be94b5b348b21fea823fe8d100408cee9b7f90524494500445d8ff6f55517f8fa6efc3be94b5b348b21fea823fe8d100408cee9b7f90524494500445d8ff7055565b6200053f604051620004588162001c49565b60078152601960208083019182526000604084018181526060850182815261270f608087019081526001909352601390935293517f4155c2f711f2cdd34f8262ab8fb9b7020a700fe7b6948222152f7670d1fdf34d5591517f4155c2f711f2cdd34f8262ab8fb9b7020a700fe7b6948222152f7670d1fdf34e5591517f4155c2f711f2cdd34f8262ab8fb9b7020a700fe7b6948222152f7670d1fdf34f5590517f4155c2f711f2cdd34f8262ab8fb9b7020a700fe7b6948222152f7670d1fdf35055517f4155c2f711f2cdd34f8262ab8fb9b7020a700fe7b6948222152f7670d1fdf35155565b62000638604051620005518162001c49565b60078152606460208083019182526000604084018181526060850182815261270f608087019081526002909352601390935293517f0b9d2c0c271bb30544eb78c59bdaebdae2728e5f65814c07768a0abe90ed19235591517f0b9d2c0c271bb30544eb78c59bdaebdae2728e5f65814c07768a0abe90ed19245591517f0b9d2c0c271bb30544eb78c59bdaebdae2728e5f65814c07768a0abe90ed19255590517f0b9d2c0c271bb30544eb78c59bdaebdae2728e5f65814c07768a0abe90ed192655517f0b9d2c0c271bb30544eb78c59bdaebdae2728e5f65814c07768a0abe90ed192755565b620007326040516200064a8162001c49565b600781526101f46020808301918252600360408401818152600060608601818152601e6080880190815293909152601390935293517f0d2a6872ef858a7f8ead18dc4f3f2e8d35c853d47e2816cbb9cdd49202554e0c5591517f0d2a6872ef858a7f8ead18dc4f3f2e8d35c853d47e2816cbb9cdd49202554e0d5591517f0d2a6872ef858a7f8ead18dc4f3f2e8d35c853d47e2816cbb9cdd49202554e0e5590517f0d2a6872ef858a7f8ead18dc4f3f2e8d35c853d47e2816cbb9cdd49202554e0f55517f0d2a6872ef858a7f8ead18dc4f3f2e8d35c853d47e2816cbb9cdd49202554e1055565b6200082e604051620007448162001c49565b600781526107d06020808301918252600460408401818152600360608601908152601e60808701908152600093909352601390935293517f01413ff7a3b1d5b6c016c061d48e2c7014700c777a29fcd068fff04265813d5d5591517f01413ff7a3b1d5b6c016c061d48e2c7014700c777a29fcd068fff04265813d5e5591517f01413ff7a3b1d5b6c016c061d48e2c7014700c777a29fcd068fff04265813d5f5590517f01413ff7a3b1d5b6c016c061d48e2c7014700c777a29fcd068fff04265813d6055517f01413ff7a3b1d5b6c016c061d48e2c7014700c777a29fcd068fff04265813d6155565b62000927604051620008408162001c49565b6007815261138860208083019182526004604084018181526060850191825261270f608086019081526005600052601390935293517ff4b2859895858d6aa26d656e4999d552f6a869b74c43bba7d2a941c4d22c35595591517ff4b2859895858d6aa26d656e4999d552f6a869b74c43bba7d2a941c4d22c355a5591517ff4b2859895858d6aa26d656e4999d552f6a869b74c43bba7d2a941c4d22c355b55517ff4b2859895858d6aa26d656e4999d552f6a869b74c43bba7d2a941c4d22c355c55517ff4b2859895858d6aa26d656e4999d552f6a869b74c43bba7d2a941c4d22c355d55565b62000a20604051620009398162001c49565b6007815261271060208083019182526004604084018181526060850191825261270f608086019081526006600052601390935293517f709d0e3cf89777a1e1f9c99632e4494f29b0327befd0df15e277a12d948257955591517f709d0e3cf89777a1e1f9c99632e4494f29b0327befd0df15e277a12d948257965591517f709d0e3cf89777a1e1f9c99632e4494f29b0327befd0df15e277a12d9482579755517f709d0e3cf89777a1e1f9c99632e4494f29b0327befd0df15e277a12d9482579855517f709d0e3cf89777a1e1f9c99632e4494f29b0327befd0df15e277a12d9482579955565b62000b1b60405162000a328162001c49565b60078082526161a860208084019182526004604085018181526060860191825261270f60808701908152600095909552601390925293517f8ba6fb577925b0796671c737df59b8aaae861b630513fb12823699e3e0e3ee605590517f8ba6fb577925b0796671c737df59b8aaae861b630513fb12823699e3e0e3ee6155517f8ba6fb577925b0796671c737df59b8aaae861b630513fb12823699e3e0e3ee625590517f8ba6fb577925b0796671c737df59b8aaae861b630513fb12823699e3e0e3ee6355517f8ba6fb577925b0796671c737df59b8aaae861b630513fb12823699e3e0e3ee6455565b62000c1160405162000b2d8162001c49565b6000808252600660208084019182526001604085018181526005606087019081526080870183815292909552601590925293517f27739e4bb5e6f8b5e4b57a047dca8767cc9b982a011081e086cbb0dfa9de818d5590517f27739e4bb5e6f8b5e4b57a047dca8767cc9b982a011081e086cbb0dfa9de818e55517f27739e4bb5e6f8b5e4b57a047dca8767cc9b982a011081e086cbb0dfa9de818f55517f27739e4bb5e6f8b5e4b57a047dca8767cc9b982a011081e086cbb0dfa9de819055517f27739e4bb5e6f8b5e4b57a047dca8767cc9b982a011081e086cbb0dfa9de819155565b62000d0860405162000c238162001c49565b600080825260036020808401918252600160408501818152600560608701908152608087019283526002909552601590925293517f07d4ff730d9753101d832555708a37d38c2c45fce8cacaefc99f06074e93fe0b5590517f07d4ff730d9753101d832555708a37d38c2c45fce8cacaefc99f06074e93fe0c55517f07d4ff730d9753101d832555708a37d38c2c45fce8cacaefc99f06074e93fe0d55517f07d4ff730d9753101d832555708a37d38c2c45fce8cacaefc99f06074e93fe0e55517f07d4ff730d9753101d832555708a37d38c2c45fce8cacaefc99f06074e93fe0f55565b62000e0260405162000d1a8162001c49565b60028152600f6020808301918252600a604084019081526005606085019081526001608086019081526003600052601590935293517fb3a65e8276bd33b3e4f7d6081ebd9899187264822358758dca2e2bc37b2a9c275591517fb3a65e8276bd33b3e4f7d6081ebd9899187264822358758dca2e2bc37b2a9c285590517fb3a65e8276bd33b3e4f7d6081ebd9899187264822358758dca2e2bc37b2a9c295590517fb3a65e8276bd33b3e4f7d6081ebd9899187264822358758dca2e2bc37b2a9c2a55517fb3a65e8276bd33b3e4f7d6081ebd9899187264822358758dca2e2bc37b2a9c2b55565b62000efc60405162000e148162001c49565b60028152600f6020808301918252600a604084019081526005606085019081526001608086019081526004600052601590935293517f8191f4eb6b8bafbfe9a5389c8d07d7f5fd81137a7ee653fc4358269845ee1d2e5591517f8191f4eb6b8bafbfe9a5389c8d07d7f5fd81137a7ee653fc4358269845ee1d2f5590517f8191f4eb6b8bafbfe9a5389c8d07d7f5fd81137a7ee653fc4358269845ee1d305590517f8191f4eb6b8bafbfe9a5389c8d07d7f5fd81137a7ee653fc4358269845ee1d3155517f8191f4eb6b8bafbfe9a5389c8d07d7f5fd81137a7ee653fc4358269845ee1d3255565b62000ff660405162000f0e8162001c49565b60028152600f6020808301918252600a60408401908152600560608501818152600160808701908152600092909252601590935293517fbab719002e4be320868650dc7456e9a1d245e4d5dd64765588e2f21529d871d35591517fbab719002e4be320868650dc7456e9a1d245e4d5dd64765588e2f21529d871d45590517fbab719002e4be320868650dc7456e9a1d245e4d5dd64765588e2f21529d871d555517fbab719002e4be320868650dc7456e9a1d245e4d5dd64765588e2f21529d871d655517fbab719002e4be320868650dc7456e9a1d245e4d5dd64765588e2f21529d871d755565b62001974604051620010088162001c49565b60028152604b602080830182815260646040850181815260fa60608701818152608088019384526006600052601590955295517f25847c9ccf691da811a9f934d6b3b92e6062ef92feb71bf4cb08cbb4fad8d6525591517f25847c9ccf691da811a9f934d6b3b92e6062ef92feb71bf4cb08cbb4fad8d6535590517f25847c9ccf691da811a9f934d6b3b92e6062ef92feb71bf4cb08cbb4fad8d6545590517f25847c9ccf691da811a9f934d6b3b92e6062ef92feb71bf4cb08cbb4fad8d65555517f25847c9ccf691da811a9f934d6b3b92e6062ef92feb71bf4cb08cbb4fad8d6565590620011e0604051620010ff8162001c49565b60028152602080820185815260646040840181815260608501878152608086019283526007600052601590945293517f5d0f48e37dc1225cdee8d6f2a0315d796f55423522fe638d7d95421802dfc0065590517f5d0f48e37dc1225cdee8d6f2a0315d796f55423522fe638d7d95421802dfc0075591517f5d0f48e37dc1225cdee8d6f2a0315d796f55423522fe638d7d95421802dfc00855517f5d0f48e37dc1225cdee8d6f2a0315d796f55423522fe638d7d95421802dfc00955517f5d0f48e37dc1225cdee8d6f2a0315d796f55423522fe638d7d95421802dfc00a55565b620012d3604051620011f28162001c49565b60028152602080820185815260646040840181815260608501878152608086019283526008600052601590945293517f2d0e46a571fdfbe57c7c718891a8a12999c102dfffa2b3314ea165dedd1684f55590517f2d0e46a571fdfbe57c7c718891a8a12999c102dfffa2b3314ea165dedd1684f65591517f2d0e46a571fdfbe57c7c718891a8a12999c102dfffa2b3314ea165dedd1684f755517f2d0e46a571fdfbe57c7c718891a8a12999c102dfffa2b3314ea165dedd1684f855517f2d0e46a571fdfbe57c7c718891a8a12999c102dfffa2b3314ea165dedd1684f955565b620013c6604051620012e58162001c49565b60028152602080820185815260646040840181815260608501878152608086019283526009600052601590945293517f497613c0658032a90a449a944031c57b1d03996c3a6148fe12146c45cf3214005590517f497613c0658032a90a449a944031c57b1d03996c3a6148fe12146c45cf3214015591517f497613c0658032a90a449a944031c57b1d03996c3a6148fe12146c45cf32140255517f497613c0658032a90a449a944031c57b1d03996c3a6148fe12146c45cf32140355517f497613c0658032a90a449a944031c57b1d03996c3a6148fe12146c45cf32140455565b620014b9604051620013d88162001c49565b6002815260208082018581526064604084018181526060850187815260808601928352600a600052601590945293517f0cfcac9f3767130657d3b01a9146da544eeb39eb9670066ace5e84da7fc4319f5590517f0cfcac9f3767130657d3b01a9146da544eeb39eb9670066ace5e84da7fc431a05591517f0cfcac9f3767130657d3b01a9146da544eeb39eb9670066ace5e84da7fc431a155517f0cfcac9f3767130657d3b01a9146da544eeb39eb9670066ace5e84da7fc431a255517f0cfcac9f3767130657d3b01a9146da544eeb39eb9670066ace5e84da7fc431a355565b620015ac604051620014cb8162001c49565b6002815260208082018581526064604084018181526060850187815260808601928352600b600052601590945293517fcaeae41dfed97dfd8c41876ff591faa3e36cda388621c550caa3321a2a624e5f5590517fcaeae41dfed97dfd8c41876ff591faa3e36cda388621c550caa3321a2a624e605591517fcaeae41dfed97dfd8c41876ff591faa3e36cda388621c550caa3321a2a624e6155517fcaeae41dfed97dfd8c41876ff591faa3e36cda388621c550caa3321a2a624e6255517fcaeae41dfed97dfd8c41876ff591faa3e36cda388621c550caa3321a2a624e6355565b6200169f604051620015be8162001c49565b6002815260208082018581526064604084018181526060850187815260808601928352600c600052601590945293517f74c10a04815bbeaf3165dab0bd11b69aae73edf00a48b27ec8c53ac5b61d47fd5590517f74c10a04815bbeaf3165dab0bd11b69aae73edf00a48b27ec8c53ac5b61d47fe5591517f74c10a04815bbeaf3165dab0bd11b69aae73edf00a48b27ec8c53ac5b61d47ff55517f74c10a04815bbeaf3165dab0bd11b69aae73edf00a48b27ec8c53ac5b61d480055517f74c10a04815bbeaf3165dab0bd11b69aae73edf00a48b27ec8c53ac5b61d480155565b62001792604051620016b18162001c49565b6002815260208082018581526064604084018181526060850187815260808601928352600d600052601590945293517fe3e3bb3f660b5aca6f44f8cdafd6456c07cd53888341ab748ffc02d532ccc70e5590517fe3e3bb3f660b5aca6f44f8cdafd6456c07cd53888341ab748ffc02d532ccc70f5591517fe3e3bb3f660b5aca6f44f8cdafd6456c07cd53888341ab748ffc02d532ccc71055517fe3e3bb3f660b5aca6f44f8cdafd6456c07cd53888341ab748ffc02d532ccc71155517fe3e3bb3f660b5aca6f44f8cdafd6456c07cd53888341ab748ffc02d532ccc71255565b62001885604051620017a48162001c49565b6002815260208082018581526064604084018181526060850187815260808601928352600e600052601590945293517f39f65be0de5254440eb2b93b160b1af3a4f45fe0571eaea7ef454b27b7f02d185590517f39f65be0de5254440eb2b93b160b1af3a4f45fe0571eaea7ef454b27b7f02d195591517f39f65be0de5254440eb2b93b160b1af3a4f45fe0571eaea7ef454b27b7f02d1a55517f39f65be0de5254440eb2b93b160b1af3a4f45fe0571eaea7ef454b27b7f02d1b55517f39f65be0de5254440eb2b93b160b1af3a4f45fe0571eaea7ef454b27b7f02d1c55565b60405191620018948362001c49565b6002835260208084019182526064604085018181526060860194855260808601918252600f600052601590925293517f3bda72f6153f13a10a865b9a6397e1123f4aa6a1726e0e1349cd07eb0e24d8155590517f3bda72f6153f13a10a865b9a6397e1123f4aa6a1726e0e1349cd07eb0e24d81655517f3bda72f6153f13a10a865b9a6397e1123f4aa6a1726e0e1349cd07eb0e24d81755517f3bda72f6153f13a10a865b9a6397e1123f4aa6a1726e0e1349cd07eb0e24d81855517f3bda72f6153f13a10a865b9a6397e1123f4aa6a1726e0e1349cd07eb0e24d81955565b604051620019828162001c65565b60128152600a6020808301918252602d60408085019182526003600052601490925292517f63d87a887046e0430be80fdeb014107d7198c879cbf2cddf39a6df195c86cb385590517f63d87a887046e0430be80fdeb014107d7198c879cbf2cddf39a6df195c86cb395590517f63d87a887046e0430be80fdeb014107d7198c879cbf2cddf39a6df195c86cb3a555162001a1c8162001c65565b60128152600a6020808301918252605a60408085019182526005600052601490925292517f116126bec5aaa49b347e966c49378cf0c441de9121e306ea3d824584a9615aa25590517f116126bec5aaa49b347e966c49378cf0c441de9121e306ea3d824584a9615aa35590517f116126bec5aaa49b347e966c49378cf0c441de9121e306ea3d824584a9615aa4555162001ab68162001c65565b60098152600a602080830182815261270f6040808601918252600760009081526014855295517f904977a779b22381a36c6463d4166ef55ee8cb3392c83093cb1750f1a00c9d945591517f904977a779b22381a36c6463d4166ef55ee8cb3392c83093cb1750f1a00c9d9555517f904977a779b22381a36c6463d4166ef55ee8cb3392c83093cb1750f1a00c9d9655601290915260327f8e1fee8c88a9e04123b21e90cae2727a7715bf522a1e46eb5934ccd05203a6b25560049092526101f47fb4fcd034df3d20faa1c133b66d862ce92732727d40916b48ffb4020cb00fe053556005601f55602381905560a760255560265551612faa908162001d408239f35b62001bdf915060203d60201162001be6575b62001bd6818362001c81565b81019062001ca5565b38620002f4565b503d62001bca565b6040513d6000823e3d90fd5b62001c159150833d851162001be65762001bd6818362001c81565b38620002b2565b634e487b7160e01b600052604160045260246000fd5b60405163e6c4247b60e01b8152600490fd5b600080fd5b60a081019081106001600160401b0382111762001c1c57604052565b606081019081106001600160401b0382111762001c1c57604052565b601f909101601f19168101906001600160401b0382119082101762001c1c57604052565b9081602091031262001c4457516001600160a01b038116810362001c445790565b60405190608082016001600160401b0381118382101762001c1c5760405260006060838281528260208201528260408201520152565b6040519060c082016001600160401b0381118382101762001c1c576040528160a0600091828152826020820152826040820152826060820152826080820152015256fe60806040526004361015610018575b361561001657005b005b60003560e01c806304ce9f80146104b85780630609a0e3146104b357806307175c83146104ae57806309307c62146104a95780630b225f1a146104a45780630ea0d2221461049f57806312065fe01461049a57806314be92a51461049557806315a544ed146104905780631605aed91461048b57806316f0115b14610486578063179b570a14610481578063192b48ee1461047c5780631ef6a864146104775780631f185d1614610472578063203bab661461046d57806326c5adae14610468578063298fc46014610463578063339459a61461045e5780633688236d146104595780633b9b7955146104545780634151331d1461044f578063438fe1921461044a57806344ec16bc146104455780634b62954f1461044057806353423e861461043b578063541d76671461043657806354541683146104315780635640dbfc1461042c578063592a02a8146104275780635962205f146104225780635a0e90381461041d57806368400cb3146104185780636c7deb5d146104135780636f092c5e1461040e5780637687e3711461040957806378ef376f146104045780637bc908c6146103ff57806382a3c503146103fa578063840bbc1e146103f55780638da5cb5b146103f057806391fc8aa8146103eb5780639319d0b5146103e657806395cea094146103e15780639d80ab9b146103dc5780639eb8b44e146103d75780639f70207d146103d2578063a19841dd146103cd578063a1f7f539146103c8578063a88fcea6146103c3578063ac14611a146103be578063aebcd32a146103b9578063af0b21d3146103b4578063af484526146103af578063b3386775146103aa578063b49c064c146103a5578063b85f1f8d146103a0578063b90306ad1461039b578063c54e44b014610396578063c5a136d414610391578063d0bb2ddf1461038c578063dbad649c14610387578063e01ad5fd14610382578063e0a9bc2b1461037d578063e19a5bcf14610378578063e6a7791914610373578063eddd0d9c1461036e578063f27c35c614610369578063f2a6bbc714610364578063f4fe8e3c1461035f578063f5de7bd21461035a578063f7a9783e14610355578063fc0e74d1146103505763fdc10bc90361000e5761271a565b6126f7565b61267e565b612623565b6125b7565b612568565b6124bd565b61246e565b612374565b6122b8565b61229d565b6121d2565b6121b4565b61215e565b6120c1565b61203b565b611f3a565b611f00565b611edd565b611ebf565b611e8e565b611e70565b611e08565b611db6565b611d98565b611d23565b611cea565b611ccc565b611af5565b611a76565b611a58565b611a09565b6119eb565b6119c4565b61194b565b6118a7565b611889565b61183a565b6117d2565b6117a6565b611757565b611739565b611700565b611698565b611599565b611518565b6114fa565b611484565b611466565b611411565b6113c2565b6113a4565b611361565b61133a565b61131c565b610c39565b610bd1565b610ae7565b610a5c565b610975565b6108ae565b61081e565b6107c9565b610778565b61075a565b61073c565b6106ed565b6106d1565b6106b3565b610695565b610640565b610622565b61057f565b3461057a57604036600319011261057a57600080808060243560043560018114610544575b600214610512575b509061050e91604051948594859094939260609260808301968352602083015260408201520152565b0390f35b60215460225460235460255492975090955061050e945092501161053c576026545b9290916104e5565b602454610534565b935093505050601d5491601e54601f54918060255411156000146105705760026026545b9490506104dd565b6002602054610568565b600080fd5b3461057a57602036600319011261057a57610598612be9565b156105f8576105a633612c6e565b80156105e4575b156105ba57600435602b55005b60046040517fea8e4eb5000000000000000000000000000000000000000000000000000000008152fd5b50336001600160a01b0360055416146105ad565b60046040517f9dc4246e000000000000000000000000000000000000000000000000000000008152fd5b3461057a57600036600319011261057a576020603254604051908152f35b3461057a57604036600319011261057a57610659612be9565b156105f85761066733612c6e565b8015610681575b156105ba57600435603455602435603555005b50336001600160a01b03600554161461066e565b3461057a57600036600319011261057a576020604854604051908152f35b3461057a57600036600319011261057a576020603054604051908152f35b3461057a57600036600319011261057a57602047604051908152f35b3461057a57602036600319011261057a57610706612be9565b156105f85761071433612c6e565b8015610728575b156105ba57600435603055005b50336001600160a01b03600554161461071b565b3461057a57600036600319011261057a576020603554604051908152f35b3461057a57600036600319011261057a576020603454604051908152f35b3461057a57600036600319011261057a5760e0601654601754601854601954601a5490601b5492601c5494604051968752602087015260408601526060850152608084015260a083015260c0820152f35b3461057a57604036600319011261057a576107e2612be9565b156105f8576107f033612c6e565b801561080a575b156105ba57600435602555602435602655005b50336001600160a01b0360055416146107f7565b3461057a57602036600319011261057a5760043561083a612be9565b156105f85761084833612c6e565b8015610878575b156105ba57670de0b6b3a76400009081810291818304149015171561087357603355005b612e14565b50336001600160a01b03600554161461084f565b60a090600319011261057a576004359060243590604435906064359060843590565b3461057a576108bc3661088c565b906108c994929394612be9565b156105f8576108d733612c6e565b8015610950575b156105ba576002936108ee612ec5565b9586526020860152604085015260608401526001811461092e575b1461091057005b8051603e556020810151603f55604080820151905560600151604155005b8251603a556020830151603b556040830151603c556060830151603d55610909565b50336001600160a01b0360055416146108de565b6001600160a01b0381160361057a57565b3461057a5760208060031936011261057a576109f460043561099681610964565b6001600160a01b038060025416906040519216848301528382526109b982612809565b604051906109c682612809565b601182527f69735369676e657228616464726573732900000000000000000000000000000085830152612d28565b919080610a52575b15610a28578181610a169261050e94518301019101612bd4565b60405190151581529081906020820190565b60046040517f3204506f000000000000000000000000000000000000000000000000000000008152fd5b50808251146109fc565b3461057a5760e036600319011261057a57610a75612be9565b156105f857610a8333612c6e565b8015610ad3575b156105ba57610a9a604051612794565b600435601655602435601755604435601855606435601955610abd608435601a55565b610ac860a435601b55565b61001660c435601c55565b50336001600160a01b036005541614610a8a565b3461057a57602036600319011261057a57600460206001600160a01b0360005416604051928380926369e8d84b60e11b82525afa8015610bc257610b4591600091610b94575b50610b36612f23565b90610b3f612f3b565b90612dd6565b60325490670de0b6b3a7640000918281029281840414901517156108735761050e91610b7f610b8492610b7a60043593612e2a565b612e5a565b612e47565b6040519081529081906020820190565b610bb5915060203d8111610bbb575b610bad8183612841565b810190612863565b38610b2d565b503d610ba3565b61287b565b8015150361057a57565b3461057a57602036600319011261057a57600435610bee81610bc7565b610bf6612be9565b156105f857610c0433612c6e565b8015610c25575b156105ba5760ff8019604954169115151617604955600080f35b50336001600160a01b036005541614610c0b565b3461057a57600036600319011261057a57610c6b610c5f6000546001600160a01b031690565b6001600160a01b031690565b604051907f97f3815a000000000000000000000000000000000000000000000000000000008252602082600481845afa918215610bc2576000926112fb575b50604051917fcfbffe53000000000000000000000000000000000000000000000000000000008352602083600481855afa928315610bc2576000936112da575b50604051907fab6e844f000000000000000000000000000000000000000000000000000000008252602082600481865afa918215610bc2576000926112b9575b50604051917f14d8d024000000000000000000000000000000000000000000000000000000008352602083600481875afa928315610bc257600093611298575b50604051927fd1f956b1000000000000000000000000000000000000000000000000000000008452602084600481885afa938415610bc257600094611277575b50604051937fe61dfd58000000000000000000000000000000000000000000000000000000008552602085600481895afa948515610bc257600095611256575b506040517fe09d394d0000000000000000000000000000000000000000000000000000000081526020816004818a5afa908115610bc257600091611237575b506040517f52b06d640000000000000000000000000000000000000000000000000000000081526020816004818b5afa908115610bc257600091611218575b506040517f013cf08b00000000000000000000000000000000000000000000000000000000815260006004820152916020836024818c5afa928315610bc2576000936111f7575b50604051977f5e09dbe70000000000000000000000000000000000000000000000000000000089526020896004818d5afa948515610bc2576004996000966111d6575b5060208b6040519b8c80927faa0ddc160000000000000000000000000000000000000000000000000000000082525afa968715610bc25760049a6000986111b5575b5060208c6040519c8d80927f640274270000000000000000000000000000000000000000000000000000000082525afa988915610bc25760049b60009a611194575b5060208d6040519d8e80927f30125cf50000000000000000000000000000000000000000000000000000000082525afa9a8b15610bc2578d60049d60009d611172575b506020906040519e8f80927f24768d910000000000000000000000000000000000000000000000000000000082525afa9c8d15610bc25760009d611151575b50604051809e81907f9dc969a80000000000000000000000000000000000000000000000000000000082525a92600491602094fa9d8e15610bc25760009e611130575b50611044612887565b6001600160a01b0390911681529d8e906001600160a01b031660208201526040019061107891906001600160a01b03169052565b6001600160a01b031660608d01526001600160a01b031660808c01526001600160a01b031660a08b01526001600160a01b031660c08a01526001600160a01b031660e08901526001600160a01b03166101008801526001600160a01b03166101208701526001600160a01b03166101408601526001600160a01b03166101608501526001600160a01b03166101808401526001600160a01b03166101a08301526001600160a01b03166101c0820152610016906128b7565b61114a919e5060203d602011610bbb57610bad8183612841565b9c3861103b565b61116b919d5060203d602011610bbb57610bad8183612841565b9b38610ff8565b6020919d5061118d90823d8411610bbb57610bad8183612841565b9c90610fb9565b6111ae919a5060203d602011610bbb57610bad8183612841565b9838610f76565b6111cf91985060203d602011610bbb57610bad8183612841565b9638610f34565b6111f091965060203d602011610bbb57610bad8183612841565b9438610ef2565b61121191935060203d602011610bbb57610bad8183612841565b9138610eaf565b611231915060203d602011610bbb57610bad8183612841565b38610e68565b611250915060203d602011610bbb57610bad8183612841565b38610e29565b61127091955060203d602011610bbb57610bad8183612841565b9338610dea565b61129191945060203d602011610bbb57610bad8183612841565b9238610daa565b6112b291935060203d602011610bbb57610bad8183612841565b9138610d6a565b6112d391925060203d602011610bbb57610bad8183612841565b9038610d2a565b6112f491935060203d602011610bbb57610bad8183612841565b9138610cea565b61131591925060203d602011610bbb57610bad8183612841565b9038610caa565b3461057a57600036600319011261057a576020602f54604051908152f35b3461057a57600036600319011261057a5760206001600160a01b0360005416604051908152f35b3461057a57602036600319011261057a57600435600052601460205260606040600020805490600260018201549101549060405192835260208301526040820152f35b3461057a57600036600319011261057a576020602d54604051908152f35b3461057a57602036600319011261057a576113db612be9565b156105f8576113e933612c6e565b80156113fd575b156105ba57600435602c55005b50336001600160a01b0360055416146113f0565b3461057a57604036600319011261057a5761142a612be9565b156105f85761143833612c6e565b8015611452575b156105ba57600435602e55602435602f55005b50336001600160a01b03600554161461143f565b3461057a57600036600319011261057a576020603154604051908152f35b3461057a57602036600319011261057a57600460206001600160a01b0360005416604051928380926369e8d84b60e11b82525afa8015610bc2576114d9610b849161050e93600091610b945750610b36612f23565b6004356000526012602052610b7a6114f5604060002054612e2a565b612e2a565b3461057a57600036600319011261057a576020602c54604051908152f35b3461057a57600036600319011261057a5760c060275460ff60285460295490604051938452602084015281811615156040840152818160081c1615156060840152818160101c161515608084015260181c16151560a0820152f35b60c090600319011261057a57600435906024359060443590606435906084359060a43590565b3461057a576115a736611573565b906115b3959295612be9565b156105f8576115c133612c6e565b8015611684575b156105ba576010831015611640576100169561161194604051966115eb886127b5565b875260208701526040860152606085015260808401526000526015602052604060002090565b906080600491805184556020810151600185015560408101516002850155606081015160038501550151910155565b606460405162461bcd60e51b815260206004820152600d60248201527f696e76616c6964206c6576656c000000000000000000000000000000000000006044820152fd5b50336001600160a01b0360055416146115c8565b3461057a57602036600319011261057a5760043560005260156020526040600020805461050e6001830154926002810154906004600382015491015491604051958695869192608093969594919660a084019784526020840152604083015260608201520152565b3461057a57600036600319011261057a57601d54601e54601f546020805460408051958652918501939093528301526060820152608090f35b3461057a57600036600319011261057a576020603854604051908152f35b3461057a57602036600319011261057a57611770612be9565b156105f85761177e33612c6e565b8015611792575b156105ba57600435603155005b50336001600160a01b036005541614611785565b3461057a57602036600319011261057a5760043560005260126020526020604060002054604051908152f35b3461057a57602036600319011261057a576004356117ef81610bc7565b6117f7612be9565b156105f85761180533612c6e565b8015611826575b156105ba5760ff8019602a54169115151617602a55600080f35b50336001600160a01b03600554161461180c565b3461057a57602036600319011261057a57611853612be9565b156105f85761186133612c6e565b8015611875575b156105ba57600435603655005b50336001600160a01b036005541614611868565b3461057a57600036600319011261057a576020603654604051908152f35b3461057a5760c036600319011261057a576004356118c481610964565b6064356118d081610964565b6118d8612be9565b156105f8576118e633612c6e565b8015611937575b156105ba576001600160a01b0390816001600160a01b031993168360425416176042556024356043556044356044551690604554161760455560843560465560a435604755600080f35b50336001600160a01b0360055416146118ed565b3461057a57602036600319011261057a57600460206001600160a01b0360005416604051928380926369e8d84b60e11b82525afa908115610bc2576119b26119aa61050e93670de0b6b3a764000093600091610b945750610b36612f23565b600435612e47565b04604051918291829190602083019252565b3461057a57600036600319011261057a5760206001600160a01b0360015416604051908152f35b3461057a57600036600319011261057a576020603354604051908152f35b3461057a57602036600319011261057a57611a22612be9565b156105f857611a3033612c6e565b8015611a44575b156105ba57600435602d55005b50336001600160a01b036005541614611a37565b3461057a57600036600319011261057a576020603954604051908152f35b3461057a57600036600319011261057a57603a54603b54603c54603d54604080519485526020850193909352918301526060820152608090f35b6102a0810192916000915b60078310611ac857505050565b60019060608351918251815260209283810151848301526040809101519082015201920192019190611abb565b3461057a57600080600319360112611cc9576040908151611b1581612794565b815b60e08110611ca45761050e84611b2b6128a8565b6001600052601460205290611b647fb6c61a840592cc84133e4b25bd509abf4659307c57b160799b38490a5aa48f2c612efb565b612efb565b825260026000526014602052611b997fa1930aa930426c54c34daad2b9ada7c5d0ef0c96078a3c5bb79f6fa6602c4a7a612efb565b6020830152611bb6611b5f60036000526014602052604060002090565b8282015260046000526014602052611bed7f52102136546d97ed3f65ec1070a32935d3048ea12f310d29c378dc9d6555c0d6612efb565b606083015260056000526014602052611c257f116126bec5aaa49b347e966c49378cf0c441de9121e306ea3d824584a9615aa2612efb565b608083015260066000526014602052611c5d7fe1f6b6a5fb7e47dad87547d4b0671e7e995a1dae22fbe5b3b5d10e2a77ed7aff612efb565b60a083015260076000526014602052611c957f904977a779b22381a36c6463d4166ef55ee8cb3392c83093cb1750f1a00c9d94612efb565b60c08301525191829182611ab0565b6020908451611cb2816127d1565b848152848382015284868201528184015201611b17565b80fd5b3461057a57600036600319011261057a576020602554604051908152f35b3461057a57600036600319011261057a57603e54603f546040805460415482519485526020850193909352908301526060820152608090f35b3461057a57600036600319011261057a576020611d906001600160a01b0360065416604051611d5181612809565b601381527f67657464656c656761746f72436f756e742829000000000000000000000000008482015260405191611d8783612825565b60008352612dd6565b604051908152f35b3461057a57600036600319011261057a576020602e54604051908152f35b3461057a57600036600319011261057a57601154614d588082018092116108735742018042116108735761012c809104910481039081116108735761011e810180911161087357602090604051908152f35b3461057a57602036600319011261057a5760043560005260136020526040600020805461050e6001830154926002810154906004600382015491015491604051958695869192608093969594919660a084019784526020840152604083015260608201520152565b3461057a57600036600319011261057a576020602b54604051908152f35b3461057a57602036600319011261057a576020611eb5600435611eb081610964565b612c6e565b6040519015158152f35b3461057a57600036600319011261057a576020603754604051908152f35b3461057a57600036600319011261057a57602060ff604954166040519015158152f35b3461057a57600036600319011261057a57602154602254602354602454604080519485526020850193909352918301526060820152608090f35b3461057a57602036600319011261057a576004356001600160a01b036005541633036105ba5760009060046020611f7b610c5f85546001600160a01b031690565b604051928380927f46f991ac0000000000000000000000000000000000000000000000000000000082525afa8015610bc2578380848194938294839161201d575b505af1611fc7612cf8565b5015610a28577fcdcc745fe377b103b45fa0cec23ae3ef93d6fc6a84a01f0d18c40b354dd1d5d8612017612006610c5f600b546001600160a01b031690565b604051938452929081906020820190565b0390a280f35b612035915060203d8111610bbb57610bad8183612841565b38611fbc565b3461057a57602036600319011261057a5760043561205881610964565b803b600061206582612bb8565b926120736040519485612841565b82845260208401903c602d81511061209757602a602091015160601c604051908152f35b60046040517fbaf3f0f7000000000000000000000000000000000000000000000000000000008152fd5b3461057a57608036600319011261057a576004356120dd612be9565b156105f8576120eb33612c6e565b801561214a575b156105ba5761210360088210612e7a565b600260405191612112836127d1565b602435835260208301604435815260408401916064358352600052601460205260406000209351845551600184015551910155600080f35b50336001600160a01b0360055416146120f2565b3461057a57600036600319011261057a5760c06001600160a01b038060425416906043549060445490604554166046549160475493604051958652602086015260408501526060840152608083015260a0820152f35b3461057a57600036600319011261057a576020602654604051908152f35b3461057a5760208060031936011261057a5761050e90600435906121f582610964565b6122596001600160a01b039283600654169360405191168382015282815261221c81612809565b60405161222881612809565b601881527f697364656c656761746f724e6f6465286164647265737329000000000000000084820152600094612d28565b919080612293575b61227a575b505060405190151581529081906020820190565b61228c92508082518301019101612bd4565b3880612266565b5080825114612261565b3461057a57600036600319011261057a576020611eb5612be9565b3461057a576122c63661088c565b906122d394929394612be9565b156105f8576122e133612c6e565b8015612360575b156105ba576002936122f8612ec5565b95865260208601526040850152606084015260018114612338575b1461231a57005b80516021556020810151602255604081015160235560600151602455005b61235b836060908051601d556020810151601e556040810151601f550151602055565b612313565b50336001600160a01b0360055416146122e8565b3461057a5760c036600319011261057a5760443561239181610bc7565b6064359061239e82610bc7565b608435906123ab82610bc7565b60a435916123b883610bc7565b6123c0612be9565b156105f8576123ce33612c6e565b801561245a575b156105ba576100169361241061243b936123f06040516127ed565b600435602755602435602855151560ff8019602954169115151617602955565b6029805462ffff00191691151560081b61ff00169190911791151560101b62ff000016919091179055565b151563ff00000060295491151560181b169063ff000000191617602955565b50336001600160a01b0360055416146123d5565b3461057a57602036600319011261057a57612487612be9565b156105f85761249533612c6e565b80156124a9575b156105ba57600435603255005b50336001600160a01b03600554161461249c565b3461057a576124cb36611573565b916124d7959395612be9565b156105f8576124e533612c6e565b8015612554575b156105ba576100169560405195612502876127b5565b8652602086015260408501526060840152608083015260005260136020526040600020906080600491805184556020810151600185015560408101516002850155606081015160038501550151910155565b50336001600160a01b0360055416146124ec565b3461057a57602036600319011261057a57612581612be9565b156105f85761258f33612c6e565b80156125a3575b156105ba57600435604855005b50336001600160a01b036005541614612596565b3461057a57604036600319011261057a576004356125d3612be9565b156105f8576125e133612c6e565b801561260f575b156105ba576125f960088210612e7a565b6000526012602052602435604060002055600080f35b50336001600160a01b0360055416146125e8565b3461057a57606036600319011261057a5761263c612be9565b156105f85761264a33612c6e565b801561266a575b156105ba57600435603855602435603755604435603955005b50336001600160a01b036005541614612651565b3461057a57602036600319011261057a57600435600460206001600160a01b0360005416604051928380926369e8d84b60e11b82525afa8015610bc2576126cf91600091610b945750610b36612f23565b90670de0b6b3a7640000908181029181830414901517156108735761050e91610b8491612e5a565b3461057a57600036600319011261057a57602060ff602a54166040519015158152f35b3461057a57600036600319011261057a576020611d906001600160a01b036003541660405161274881612809565b600681527f69416765282900000000000000000000000000000000000000000000000000008482015260405191611d8783612825565b634e487b7160e01b600052604160045260246000fd5b60e0810190811067ffffffffffffffff8211176127b057604052565b61277e565b60a0810190811067ffffffffffffffff8211176127b057604052565b6060810190811067ffffffffffffffff8211176127b057604052565b60c0810190811067ffffffffffffffff8211176127b057604052565b6040810190811067ffffffffffffffff8211176127b057604052565b6020810190811067ffffffffffffffff8211176127b057604052565b90601f8019910116810190811067ffffffffffffffff8211176127b057604052565b9081602091031261057a575161287881610964565b90565b6040513d6000823e3d90fd5b604051906101e0820182811067ffffffffffffffff8211176127b057604052565b604051906128b582612794565b565b612b9c6101c06128b5926128f16128d582516001600160a01b031690565b6001600160a01b03166001600160a01b03196002541617600255565b61292461290860208301516001600160a01b031690565b6001600160a01b03166001600160a01b03196003541617600355565b61295761293b60408301516001600160a01b031690565b6001600160a01b03166001600160a01b03196004541617600455565b61298a61296e60608301516001600160a01b031690565b6001600160a01b03166001600160a01b03196005541617600555565b6129bd6129a160808301516001600160a01b031690565b6001600160a01b03166001600160a01b03196006541617600655565b6129f06129d460a08301516001600160a01b031690565b6001600160a01b03166001600160a01b03196007541617600755565b612a23612a0760c08301516001600160a01b031690565b6001600160a01b03166001600160a01b03196008541617600855565b612a56612a3a60e08301516001600160a01b031690565b6001600160a01b03166001600160a01b03196009541617600955565b612a8a612a6e6101008301516001600160a01b031690565b6001600160a01b03166001600160a01b0319600a541617600a55565b612abe612aa26101208301516001600160a01b031690565b6001600160a01b03166001600160a01b0319600b541617600b55565b612af2612ad66101408301516001600160a01b031690565b6001600160a01b03166001600160a01b0319600c541617600c55565b612b26612b0a6101608301516001600160a01b031690565b6001600160a01b03166001600160a01b0319600d541617600d55565b612b5a612b3e6101808301516001600160a01b031690565b6001600160a01b03166001600160a01b0319600e541617600e55565b612b8e612b726101a08301516001600160a01b031690565b6001600160a01b03166001600160a01b0319600f541617600f55565b01516001600160a01b031690565b6001600160a01b03166001600160a01b03196010541617601055565b67ffffffffffffffff81116127b057601f01601f191660200190565b9081602091031261057a575161287881610bc7565b612c446001600160a01b0360025416604051612c0481612809565b600881527f6973536166652829000000000000000000000000000000000000000000000000602082015260405191612c3b83612825565b60008352612d28565b9080612c63575b15610a28578060208061287893518301019101612bd4565b506020815114612c4b565b612cd16001600160a01b038060025416604051916020941684830152838252612c9682612809565b60405190612ca382612809565b601582527f697353656375726542617365286164647265737329000000000000000000000085830152612d28565b9080612cee575b15610a2857816128789282518301019101612bd4565b5081815114612cd8565b3d15612d23573d90612d0982612bb8565b91612d176040519384612841565b82523d6000602084013e565b606090565b9190823b15612dbd577fffffffff00000000000000000000000000000000000000000000000000000000815160208093012016916040519180830193845281519160005b838110612da9575050509181612d9960248260009795968897018783820152036004810184520182612841565b51915afa612da5612cf8565b9091565b818101830151858201602401528201612d6c565b505050600090604051612dcf81612825565b6000815290565b9291612de491600094612d28565b9080612e09575b612df25750565b90915060208180518101031261057a576020015190565b506020815114612deb565b634e487b7160e01b600052601160045260246000fd5b90670de0b6b3a76400009182810292818404149015171561087357565b8181029291811591840414171561087357565b8115612e64570490565b634e487b7160e01b600052601260045260246000fd5b15612e8157565b606460405162461bcd60e51b815260206004820152600c60248201527f696e76616c69642072616e6b00000000000000000000000000000000000000006044820152fd5b604051906080820182811067ffffffffffffffff8211176127b05760405260006060838281528260208201528260408201520152565b90604051612f08816127d1565b60406002829480548452600181015460208501520154910152565b604051612f2f81612825565b60008152906000368137565b60405190612f4882612809565b601282527f6f7a6f6e655072696365496e5553445428290000000000000000000000000000602083015256fea26469706673582212200830c0a794d99e81039eb8e9dadd4ac005438c568ef1499859118274c503ad5264736f6c63430008140033","linkReferences":{}},"methodIdentifiers":{"invalidator()":"52b06d64","rule741()":"0a5b38ab","transferRequest()":"3da8676f"},"id":77}