{"abi":[{"type":"constructor","inputs":[{"name":"_hex","type":"address","internalType":"address"}],"stateMutability":"nonpayable"},{"type":"function","name":"instance","inputs":[],"outputs":[{"name":"","type":"address","internalType":"address"}],"stateMutability":"view"},{"type":"function","name":"tVLFactory","inputs":[],"outputs":[{"name":"","type":"address","internalType":"address"}],"stateMutability":"view"},{"type":"function","name":"tVLMining","inputs":[],"outputs":[{"name":"","type":"address","internalType":"address"}],"stateMutability":"view"},{"type":"function","name":"tVLReward","inputs":[],"outputs":[{"name":"","type":"address","internalType":"address"}],"stateMutability":"view"},{"type":"function","name":"tVLRoyality","inputs":[],"outputs":[{"name":"","type":"address","internalType":"address"}],"stateMutability":"view"},{"type":"function","name":"tVLTour","inputs":[],"outputs":[{"name":"","type":"address","internalType":"address"}],"stateMutability":"view"},{"type":"function","name":"tVLValidator","inputs":[],"outputs":[{"name":"","type":"address","internalType":"address"}],"stateMutability":"view"}],"bytecode":{"object":"0x60803461023957601f613fa238819003918201601f19168301926001600160401b039290919083851183861017610223578083926040968752833960209283918101031261023957516001600160a01b03919082811690819003610239578451916124d1928381019381851087861117610223576103f482398284528681600095868582015203019084f09485156102195783549585166001600160a01b031996871617845586516116dd8082019491808610848711176101e75784816128c5978489833985815203019087f080156101fb578716886001541617600155885181810181811085821117610205578186918489833985815203019087f080156101fb578716886002541617600255885181810181811085821117610205578186918489833985815203019087f080156101fb578716886003541617600355885181810181811085821117610205578186918489833985815203019087f080156101fb578716886004541617600455885181810181811085821117610205578186918489833985815203019087f080156101fb57871688600554161760055588519481860193868510908511176101e75790859392918439815203019082f09081156101dc575016906006541617600655516101b5908161023f8239f35b8451903d90823e3d90fd5b634e487b7160e01b87526041600452602487fd5b89513d88823e3d90fd5b634e487b7160e01b88526041600452602488fd5b86513d85823e3d90fd5b634e487b7160e01b600052604160045260246000fd5b600080fdfe60806040818152600436101561001457600080fd5b600091823560e01c908163022ec0951461015c575080639443767c146101355780639ba540fb1461010e578063a50c0bc0146100e7578063b85c9faf146100c0578063d795ff38146100995763dabf429d1461006f57600080fd5b346100955781600319360112610095576020906001600160a01b03600554169051908152f35b5080fd5b50346100955781600319360112610095576020906001600160a01b03600254169051908152f35b50346100955781600319360112610095576020906001600160a01b03600354169051908152f35b50346100955781600319360112610095576020906001600160a01b03600654169051908152f35b50346100955781600319360112610095576020906001600160a01b03600154169051908152f35b50346100955781600319360112610095576020906001600160a01b03600454169051908152f35b8390346100955781600319360112610095576001600160a01b0360209254168152f3fea264697066735822122089e8898cd37dfb96dceeba93989f2e7fdb3cda669e799fc635501f59b08ee73764736f6c63430008140033608034620000c157601f620024d138819003918201601f19168301916001600160401b03831184841017620000c6578084926040948552833981010312620000c1576200005a60206200005283620000dc565b9201620000dc565b6001600160a01b0391821691908215620000af5760018060a01b031992836001541690846000541617600055600160115533908433161717600155169060125416176012556040516123df9081620000f28239f35b60405163e6c4247b60e01b8152600490fd5b600080fd5b634e487b7160e01b600052604160045260246000fd5b51906001600160a01b0382168203620000c15756fe60806040526004361015610018575b361561001657005b005b60003560e01c80630399c93c1461017857806306fdde031461017357806312065fe01461016e5780631499c592146101695780631f185d1614610164578063339459a61461015f5780633b9b79551461015a57806360f96a8f146101555780638129fc1c146101505780638da5cb5b1461014b578063a1f7f53914610146578063a3e884b014610141578063af4845261461013c578063af640d0f14610137578063b28175c414610132578063b90306ad1461012d578063c107930a14610128578063c47f002714610123578063c54e44b01461011e578063e01ad5fd14610119578063e0a9bc2b146101145763fdc10bc90361000e576110ac565b611091565b610fc6565b610f40565b610ecd565b610d9b565b610c79565b610c52565b610c34565b610c03565b610a35565b610999565b610972565b610677565b610650565b610629565b610610565b610529565b610491565b610475565b610390565b610193565b6001600160a01b0381160361018e57565b600080fd5b3461018e57602036600319011261018e576004356101b08161017d565b6101b8611fc1565b1561024b576101c633612046565b8015610237575b1561020d57610206906101e360155415156111cd565b6101eb611110565b6101ff6001600160a01b0382161515611574565b4790612100565b6001601155005b60046040517fea8e4eb5000000000000000000000000000000000000000000000000000000008152fd5b50336001600160a01b0360055416146101cd565b60046040517f9dc4246e000000000000000000000000000000000000000000000000000000008152fd5b90600182811c921680156102a5575b602083101461028f57565b634e487b7160e01b600052602260045260246000fd5b91607f1691610284565b634e487b7160e01b600052604160045260246000fd5b6040810190811067ffffffffffffffff8211176102e157604052565b6102af565b6020810190811067ffffffffffffffff8211176102e157604052565b610100810190811067ffffffffffffffff8211176102e157604052565b90601f8019910116810190811067ffffffffffffffff8211176102e157604052565b60005b8381106103545750506000910152565b8181015183820152602001610344565b604091602082526103848151809281602086015260208686019101610341565b601f01601f1916010190565b3461018e576000806003193601126104725760405190806014546103b381610275565b8085529160019180831690811561044857506001146103ed575b6103e9856103dd8187038261031f565b60405191829182610364565b0390f35b9250601483527fce6d7b5282bd9a3661ae061feed1dbda4e52ab073b1f9285be6e155d9c38d4ec5b8284106104305750505081016020016103dd826103e96103cd565b80546020858701810191909152909301928101610415565b8695506103e9969350602092506103dd94915060ff191682840152151560051b82010192936103cd565b80fd5b3461018e57600036600319011261018e57602047604051908152f35b3461018e57602036600319011261018e576004356104ae8161017d565b6104b6611fc1565b1561024b576104c433612046565b8015610515575b1561020d576001600160a01b03906104e660155415156111cd565b6104ee611110565b166104fa811515611574565b6001600160a01b031960125416176012556001601155600080f35b50336001600160a01b0360055416146104cb565b3461018e5760208060031936011261018e576105a860043561054a8161017d565b6001600160a01b0380600254169060405192168483015283825261056d826102c5565b6040519061057a826102c5565b601182527f69735369676e65722861646472657373290000000000000000000000000000008583015261218a565b919080610606575b156105dc5781816105ca926103e994518301019101611fa9565b60405190151581529081906020820190565b60046040517f3204506f000000000000000000000000000000000000000000000000000000008152fd5b50808251146105b0565b3461018e57600036600319011261018e576100166118e3565b3461018e57600036600319011261018e5760206001600160a01b0360005416604051908152f35b3461018e57600036600319011261018e5760206001600160a01b0360125416604051908152f35b600036600319011261018e5761068b611110565b60155461092e5761069a6118e3565b600a546001600160a01b03166001546001600160a01b031690604051916106fc602093806106da848783019190916001600160a01b036020820193169052565b03936106ee601f199586810184528361031f565b6106f661114b565b9061221d565b906001600160a01b0382161561087b5750916107cb7f4ef260a9000000000000000000000000000000000000000000000000000000009261081f6107fe61081a6107de6107d07f3baee0ea0000000000000000000000000000000000000000000000000000000061086f9a6107cb8a6107bf6107806004546001600160a01b031690565b936107936001546001600160a01b031690565b604051938401969096526001600160a01b03908116602484015290941660448201529283906064820190565b0389810184528361031f565b6122f6565b8780825183010191016111a3565b939091936001600160a01b03166001600160a01b03196012541617601255565b6001600160a01b03166001600160a01b03196013541617601355565b601555565b600a546001600160a01b0316926108636108416001546001600160a01b031690565b604051968793840152602483019190916001600160a01b036020820193169052565b0390810184528361031f565b505b6100166001601155565b61090a9150926108fd6109299461081a946107cb6108a16004546001600160a01b031690565b916108b46012546001600160a01b031690565b6040517fb1c4907900000000000000000000000000000000000000000000000000000000888201526001600160a01b039182166024820152941660448501528360648101610863565b8051810182019101611184565b9190916001600160a01b03166001600160a01b03196013541617601355565b610871565b606460405162461bcd60e51b815260206004820152601660248201527f6d652e616c72656164792e696e697469616c697a6564000000000000000000006044820152fd5b3461018e57600036600319011261018e5760206001600160a01b0360015416604051908152f35b3461018e57600036600319011261018e576020610a066001600160a01b03600654166040516109c7816102c5565b601381527f67657464656c656761746f72436f756e7428290000000000000000000000000084820152604051916109fd836102e6565b6000835261226e565b604051908152f35b608090600319011261018e57600435610a268161017d565b90602435906044359060643590565b610a3e36610a0e565b92610a4f60159392935415156111cd565b610a57611110565b60018403610a69576108719350611451565b50916007915014610a7b575b50610871565b610ae7610af691610a946004546001600160a01b031690565b6015546040517f6a811244000000000000000000000000000000000000000000000000000000006020820152602481019190915260448101929092526107cb82606481015b03601f19810184528361031f565b602080825183010191016113e7565b9080471015610b81575b81471015610b0f575b50610a75565b610b4b7f992e981f1f6d8cb3a32ce3b31107393c58fbd9a9052cb415a19d578833bf80d692610b46600c546001600160a01b031690565b612100565b600c54604080516001600160a01b0390921682526020820192909252429181019190915260006060820152608090a13880610b09565b610b9781610b466001546001600160a01b031690565b7f992e981f1f6d8cb3a32ce3b31107393c58fbd9a9052cb415a19d578833bf80d6610bfb610bcd6001546001600160a01b031690565b604080516001600160a01b039092168252602082018590524290820152600060608201529081906080820190565b0390a1610b00565b3461018e57602036600319011261018e576020610c2a600435610c258161017d565b612046565b6040519015158152f35b3461018e57600036600319011261018e576020601554604051908152f35b3461018e57600036600319011261018e5760206001600160a01b0360135416604051908152f35b3461018e57602036600319011261018e576004356001600160a01b0360055416330361020d5760009060046020610cc6610cba85546001600160a01b031690565b6001600160a01b031690565b604051928380927f46f991ac0000000000000000000000000000000000000000000000000000000082525afa8015610d965783808481949382948391610d68575b505af1610d126120d0565b50156105dc577fcdcc745fe377b103b45fa0cec23ae3ef93d6fc6a84a01f0d18c40b354dd1d5d8610d62610d51610cba600b546001600160a01b031690565b604051938452929081906020820190565b0390a280f35b610d89915060203d8111610d8f575b610d81818361031f565b8101906115bf565b38610d07565b503d610d77565b6115d4565b610da436610a0e565b610db56015949392945415156111cd565b610dbd611fc1565b1561024b57610dcb33612046565b8015610e7c575b1561020d57610ddf611110565b610de7611fc1565b1561024b57610df533612046565b8015610e68575b1561020d5761086f93610e16610e1185612046565b61139c565b6001600160a01b03928360045416936015549560405196636e59fe2560e11b602089015260248801521660448601526064850152608484015260a4830152600060c483015260c482526107cb82610302565b50336001600160a01b036005541614610dfc565b50336001600160a01b036005541614610dd2565b604051906101e0820182811067ffffffffffffffff8211176102e157604052565b67ffffffffffffffff81116102e157601f01601f191660200190565b3461018e57602036600319011261018e5760043567ffffffffffffffff811161018e573660238201121561018e578060040135610f0981610eb1565b90610f17604051928361031f565b808252366024828501011161018e57602081600092602461001696018386013783010152611218565b3461018e57602036600319011261018e57600435610f5d8161017d565b803b6000610f6a82610eb1565b92610f78604051948561031f565b82845260208401903c602d815110610f9c57602a602091015160601c604051908152f35b60046040517fbaf3f0f7000000000000000000000000000000000000000000000000000000008152fd5b3461018e5760208060031936011261018e576103e99060043590610fe98261017d565b61104d6001600160a01b0392836006541693604051911683820152828152611010816102c5565b60405161101c816102c5565b601881527f697364656c656761746f724e6f646528616464726573732900000000000000008482015260009461218a565b919080611087575b61106e575b505060405190151581529081906020820190565b61108092508082518301019101611fa9565b388061105a565b5080825114611055565b3461018e57600036600319011261018e576020610c2a611fc1565b3461018e57600036600319011261018e576020610a066001600160a01b03600354166040516110da816102c5565b600681527f694167652829000000000000000000000000000000000000000000000000000084820152604051916109fd836102e6565b600260115414611121576002601155565b60046040517f3ee5aeb5000000000000000000000000000000000000000000000000000000008152fd5b60405190611158826102c5565b601e82527f7265736f6c76655472616e7366657254617267657428616464726573732900006020830152565b919082604091031261018e57602082519201516111a08161017d565b90565b9081606091031261018e57805191604060208301516111c18161017d565b9201516111a08161017d565b156111d457565b606460405162461bcd60e51b815260206004820152600f60248201527f6d652e696e76616c69642e696e697400000000000000000000000000000000006044820152fd5b61122560155415156111cd565b61122d611fc1565b1561024b576001906001600160a01b03825416330361020d5780519067ffffffffffffffff82116102e15761126c82611267601454610275565b61132b565b60209081601f84116001146112a9575092829391839260009461129e575b50501b916000199060031b1c191617601455565b01519250388061128a565b6014600052919083601f1981167fce6d7b5282bd9a3661ae061feed1dbda4e52ab073b1f9285be6e155d9c38d4ec946000905b8883831061131157505050106112f8575b505050811b01601455565b015160001960f88460031b161c191690553880806112ed565b8587015188559096019594850194879350908101906112dc565b601f8111611337575050565b600090601482527fce6d7b5282bd9a3661ae061feed1dbda4e52ab073b1f9285be6e155d9c38d4ec906020601f850160051c83019410611392575b601f0160051c01915b82811061138757505050565b81815560010161137b565b9092508290611372565b156113a357565b606460405162461bcd60e51b815260206004820152601360248201527f6d652e756e7365637572652e4f524331313535000000000000000000000000006044820152fd5b919082604091031261018e576020825192015190565b634e487b7160e01b600052601160045260246000fd5b9060158202918083046015149015171561142957565b6113fd565b90602d820291808304602d149015171561142957565b9190820391821161142957565b9161145e610e1184612046565b3461146857505050565b6107cb6115719361150a61148561147e34611413565b6064900490565b6114f961149c6114943461142e565b6103e8900490565b6114e86114ab6114943461142e565b936114d76114c6866114c1866114c18634611444565b611444565b600b546001600160a01b0316612100565b600d546001600160a01b0316612100565b600e546001600160a01b0316612100565b600f546001600160a01b0316612100565b610ad961151f6004546001600160a01b031690565b9360155490604051968794636e59fe2560e11b6020870152349360248701919360a0936001600160a01b036001969897939860c086019986521660208501526040840152606083015260808201520152565b50565b1561157b57565b606460405162461bcd60e51b815260206004820152600f60248201527f6d652e7a65726f2e6164647265737300000000000000000000000000000000006044820152fd5b9081602091031261018e57516111a08161017d565b6040513d6000823e3d90fd5b6118c56101c06118e19261161a6115fe82516001600160a01b031690565b6001600160a01b03166001600160a01b03196002541617600255565b61164d61163160208301516001600160a01b031690565b6001600160a01b03166001600160a01b03196003541617600355565b61168061166460408301516001600160a01b031690565b6001600160a01b03166001600160a01b03196004541617600455565b6116b361169760608301516001600160a01b031690565b6001600160a01b03166001600160a01b03196005541617600555565b6116e66116ca60808301516001600160a01b031690565b6001600160a01b03166001600160a01b03196006541617600655565b6117196116fd60a08301516001600160a01b031690565b6001600160a01b03166001600160a01b03196007541617600755565b61174c61173060c08301516001600160a01b031690565b6001600160a01b03166001600160a01b03196008541617600855565b61177f61176360e08301516001600160a01b031690565b6001600160a01b03166001600160a01b03196009541617600955565b6117b36117976101008301516001600160a01b031690565b6001600160a01b03166001600160a01b0319600a541617600a55565b6117e76117cb6101208301516001600160a01b031690565b6001600160a01b03166001600160a01b0319600b541617600b55565b61181b6117ff6101408301516001600160a01b031690565b6001600160a01b03166001600160a01b0319600c541617600c55565b61184f6118336101608301516001600160a01b031690565b6001600160a01b03166001600160a01b0319600d541617600d55565b6118836118676101808301516001600160a01b031690565b6001600160a01b03166001600160a01b0319600e541617600e55565b6118b761189b6101a08301516001600160a01b031690565b6001600160a01b03166001600160a01b0319600f541617600f55565b01516001600160a01b031690565b6001600160a01b03166001600160a01b03196010541617601055565b565b6118f8610cba6000546001600160a01b031690565b604051907f97f3815a000000000000000000000000000000000000000000000000000000008252602082600481845afa918215610d9657600092611f88575b50604051917fcfbffe53000000000000000000000000000000000000000000000000000000008352602083600481855afa928315610d9657600093611f67575b50604051907fab6e844f000000000000000000000000000000000000000000000000000000008252602082600481865afa918215610d9657600092611f46575b50604051917f14d8d024000000000000000000000000000000000000000000000000000000008352602083600481875afa928315610d9657600093611f25575b50604051927fd1f956b1000000000000000000000000000000000000000000000000000000008452602084600481885afa938415610d9657600094611f04575b50604051937fe61dfd58000000000000000000000000000000000000000000000000000000008552602085600481895afa948515610d9657600095611ee3575b506040517fe09d394d0000000000000000000000000000000000000000000000000000000081526020816004818a5afa908115610d9657600091611ec4575b506040517f52b06d640000000000000000000000000000000000000000000000000000000081526020816004818b5afa908115610d9657600091611ea5575b506040517f013cf08b00000000000000000000000000000000000000000000000000000000815260006004820152916020836024818c5afa928315610d9657600093611e84575b50604051977f5e09dbe70000000000000000000000000000000000000000000000000000000089526020896004818d5afa948515610d9657600499600096611e63575b5060208b6040519b8c80927faa0ddc160000000000000000000000000000000000000000000000000000000082525afa968715610d965760049a600098611e42575b5060208c6040519c8d80927f640274270000000000000000000000000000000000000000000000000000000082525afa988915610d965760049b60009a611e21575b5060208d6040519d8e80927f30125cf50000000000000000000000000000000000000000000000000000000082525afa9a8b15610d96578d60049d60009d611dff575b506020906040519e8f80927f24768d910000000000000000000000000000000000000000000000000000000082525afa9c8d15610d965760009d611dde575b50604051809e81907f9dc969a80000000000000000000000000000000000000000000000000000000082525a92600491602094fa9d8e15610d965760009e611dbd575b50611cd1610e90565b6001600160a01b0390911681529d8e906001600160a01b0316602082015260400190611d0591906001600160a01b03169052565b6001600160a01b031660608d01526001600160a01b031660808c01526001600160a01b031660a08b01526001600160a01b031660c08a01526001600160a01b031660e08901526001600160a01b03166101008801526001600160a01b03166101208701526001600160a01b03166101408601526001600160a01b03166101608501526001600160a01b03166101808401526001600160a01b03166101a08301526001600160a01b03166101c08201526118e1906115e0565b611dd7919e5060203d602011610d8f57610d81818361031f565b9c38611cc8565b611df8919d5060203d602011610d8f57610d81818361031f565b9b38611c85565b6020919d50611e1a90823d8411610d8f57610d81818361031f565b9c90611c46565b611e3b919a5060203d602011610d8f57610d81818361031f565b9838611c03565b611e5c91985060203d602011610d8f57610d81818361031f565b9638611bc1565b611e7d91965060203d602011610d8f57610d81818361031f565b9438611b7f565b611e9e91935060203d602011610d8f57610d81818361031f565b9138611b3c565b611ebe915060203d602011610d8f57610d81818361031f565b38611af5565b611edd915060203d602011610d8f57610d81818361031f565b38611ab6565b611efd91955060203d602011610d8f57610d81818361031f565b9338611a77565b611f1e91945060203d602011610d8f57610d81818361031f565b9238611a37565b611f3f91935060203d602011610d8f57610d81818361031f565b91386119f7565b611f6091925060203d602011610d8f57610d81818361031f565b90386119b7565b611f8191935060203d602011610d8f57610d81818361031f565b9138611977565b611fa291925060203d602011610d8f57610d81818361031f565b9038611937565b9081602091031261018e5751801515810361018e5790565b61201c6001600160a01b0360025416604051611fdc816102c5565b600881527f6973536166652829000000000000000000000000000000000000000000000000602082015260405191612013836102e6565b6000835261218a565b908061203b575b156105dc57806020806111a093518301019101611fa9565b506020815114612023565b6120a96001600160a01b03806002541660405191602094168483015283825261206e826102c5565b6040519061207b826102c5565b601582527f69735365637572654261736528616464726573732900000000000000000000008583015261218a565b90806120c6575b156105dc57816111a09282518301019101611fa9565b50818151146120b0565b3d156120fb573d906120e182610eb1565b916120ef604051938461031f565b82523d6000602084013e565b606090565b908015612186576001600160a01b03821691821561215c57600080808481945af16121296120d0565b50156105dc5760207fcec1f18c3ab8ddaaa107a1591e3c369667eec613626611a8deaedef43069fcdd91604051908152a2565b60046040517fe6c4247b000000000000000000000000000000000000000000000000000000008152fd5b5050565b803b15612204576000927fffffffff0000000000000000000000000000000000000000000000000000000083602086955191012016906121f460246040518093602082019586526121e48151809260208686019101610341565b810103600481018452018261031f565b51915afa6122006120d0565b9091565b505050600090604051612216816102e6565b6000815290565b929161222b9160009461218a565b9080612263575b6122395750565b90915060208180518101031261018e5760206001600160a01b0391015161225f8161017d565b1690565b506020815114612232565b929161227c9160009461218a565b90806122a1575b61228a5750565b90915060208180518101031261018e576020015190565b506020815114612283565b90602082519201517fffffffff000000000000000000000000000000000000000000000000000000009081811693600481106122e757505050565b60040360031b82901b16169150565b6001600160a01b0381161561215c57600080918351908260208601915af19061231d6120d0565b9115612327575090565b8051600091906004116123a35761233e91506122ac565b81511561234e5750805190602001fd5b6040517f21c09d340000000000000000000000000000000000000000000000000000000081527fffffffff00000000000000000000000000000000000000000000000000000000919091166004820152602490fd5b5061233e56fea2646970667358221220fb5dad85d9dd3bc3b8647ac2624d2445fdee97d914cd9658eae01d9035e6acae64736f6c6343000814003360803461009257601f6116dd38819003918201601f19168301916001600160401b038311848410176100975780849260209460405283398101031261009257516001600160a01b038116908190036100925780156100805760018060a01b031933816001541617600155600054161760005560405161162f90816100ae8239f35b60405163e6c4247b60e01b8152600490fd5b600080fd5b634e487b7160e01b600052604160045260246000fdfe60806040526004361015610018575b361561001657005b005b60003560e01c806312065fe0146100e85780631f185d16146100e3578063339459a6146100de5780633b9b7955146100d95780638da5cb5b146100d4578063a1f7f539146100cf578063a9059cbb146100ca578063af484526146100c5578063b90306ad146100c0578063c54e44b0146100bb578063e01ad5fd146100b6578063e0a9bc2b146100b15763fdc10bc90361000e57610dce565b610db3565b610ce8565b610c62565b610b50565b610b1f565b6109c0565b61094b565b610924565b6108fd565b610205565b61011a565b3461010457600036600319011261010457602047604051908152f35b600080fd5b6001600160a01b0381160361010457565b34610104576020806003193601126101045761019960043561013b81610109565b6001600160a01b0380600254169060405192168483015283825261015e82610e89565b6040519061016b82610e89565b601182527f69735369676e657228616464726573732900000000000000000000000000000085830152611414565b9190806101fb575b156101d15781816101bb926101cd9451830101910161124c565b60405190151581529081906020820190565b0390f35b60046040517f3204506f000000000000000000000000000000000000000000000000000000008152fd5b50808251146101a1565b346101045760003660031901126101045761023761022b6000546001600160a01b031690565b6001600160a01b031690565b604051907f97f3815a000000000000000000000000000000000000000000000000000000008252602082600481845afa91821561072d576000926108dc575b50604051917fcfbffe53000000000000000000000000000000000000000000000000000000008352602083600481855afa92831561072d576000936108bb575b50604051907fab6e844f000000000000000000000000000000000000000000000000000000008252602082600481865afa91821561072d5760009261089a575b50604051917f14d8d024000000000000000000000000000000000000000000000000000000008352602083600481875afa92831561072d57600093610879575b50604051927fd1f956b1000000000000000000000000000000000000000000000000000000008452602084600481885afa93841561072d57600094610858575b50604051937fe61dfd58000000000000000000000000000000000000000000000000000000008552602085600481895afa94851561072d57600095610837575b506040517fe09d394d0000000000000000000000000000000000000000000000000000000081526020816004818a5afa90811561072d57600091610818575b506040517f52b06d640000000000000000000000000000000000000000000000000000000081526020816004818b5afa90811561072d576000916107f9575b506040517f013cf08b00000000000000000000000000000000000000000000000000000000815260006004820152916020836024818c5afa92831561072d576000936107d8575b50604051977f5e09dbe70000000000000000000000000000000000000000000000000000000089526020896004818d5afa94851561072d576004996000966107b7575b5060208b6040519b8c80927faa0ddc160000000000000000000000000000000000000000000000000000000082525afa96871561072d5760049a600098610796575b5060208c6040519c8d80927f640274270000000000000000000000000000000000000000000000000000000082525afa98891561072d5760049b60009a610775575b5060208d6040519d8e80927f30125cf50000000000000000000000000000000000000000000000000000000082525afa9a8b1561072d578d60049d60009d610753575b506020906040519e8f80927f24768d910000000000000000000000000000000000000000000000000000000082525afa9c8d1561072d5760009d610732575b50604051809e81907f9dc969a80000000000000000000000000000000000000000000000000000000082525a92600491602094fa9d8e1561072d5760009e6106fc575b50610610610f0c565b6001600160a01b0390911681529d8e906001600160a01b031660208201526040019061064491906001600160a01b03169052565b6001600160a01b031660608d01526001600160a01b031660808c01526001600160a01b031660a08b01526001600160a01b031660c08a01526001600160a01b031660e08901526001600160a01b03166101008801526001600160a01b03166101208701526001600160a01b03166101408601526001600160a01b03166101608501526001600160a01b03166101808401526001600160a01b03166101a08301526001600160a01b03166101c082015261001690610f2d565b61071f919e5060203d602011610726575b6107178183610ec6565b810190610ee8565b9c38610607565b503d61070d565b610f00565b61074c919d5060203d602011610726576107178183610ec6565b9b386105c4565b6020919d5061076e90823d8411610726576107178183610ec6565b9c90610585565b61078f919a5060203d602011610726576107178183610ec6565b9838610542565b6107b091985060203d602011610726576107178183610ec6565b9638610500565b6107d191965060203d602011610726576107178183610ec6565b94386104be565b6107f291935060203d602011610726576107178183610ec6565b913861047b565b610812915060203d602011610726576107178183610ec6565b38610434565b610831915060203d602011610726576107178183610ec6565b386103f5565b61085191955060203d602011610726576107178183610ec6565b93386103b6565b61087291945060203d602011610726576107178183610ec6565b9238610376565b61089391935060203d602011610726576107178183610ec6565b9138610336565b6108b491925060203d602011610726576107178183610ec6565b90386102f6565b6108d591935060203d602011610726576107178183610ec6565b91386102b6565b6108f691925060203d602011610726576107178183610ec6565b9038610276565b346101045760003660031901126101045760206001600160a01b0360005416604051908152f35b346101045760003660031901126101045760206001600160a01b0360015416604051908152f35b346101045760003660031901126101045760206109b86001600160a01b036006541660405161097981610e89565b601381527f67657464656c656761746f72436f756e7428290000000000000000000000000084820152604051916109af83610eaa565b600083526114c2565b604051908152f35b604080600319360112610104576004356109d981610109565b602435916001600160a01b0391828116928315610b0f576109f8611264565b15610ae657610a06336112e9565b908115610ad8575b5015610ac85790610a47847f1e70cf59d0c7a20c88704bfce5a47e636dfa577ebf52a7166641741cef34366193814710610a53576113a3565b519283523392602090a3005b610a5c82610e32565b50610ac2610aaf610abd610a6f85610e5e565b87517fa9059cbb00000000000000000000000000000000000000000000000000000000602082015230602482015260448101919091529182906064820190565b03601f198101835282610ec6565b611500565b506113a3565b6004825163ea8e4eb560e01b8152fd5b600554163314905038610a0e565b600483517f9dc4246e000000000000000000000000000000000000000000000000000000008152fd5b6004835163e6c4247b60e01b8152fd5b34610104576020366003190112610104576020610b46600435610b4181610109565b6112e9565b6040519015158152f35b34610104576020366003190112610104576004356001600160a01b03600554163303610c515760009060046020610b9161022b85546001600160a01b031690565b604051928380927f46f991ac0000000000000000000000000000000000000000000000000000000082525afa801561072d5783808481949382948391610c33575b505af1610bdd611373565b50156101d1577fcdcc745fe377b103b45fa0cec23ae3ef93d6fc6a84a01f0d18c40b354dd1d5d8610c2d610c1c61022b600b546001600160a01b031690565b604051938452929081906020820190565b0390a280f35b610c4b915060203d8111610726576107178183610ec6565b38610bd2565b600460405163ea8e4eb560e01b8152fd5b3461010457602036600319011261010457600435610c7f81610109565b803b6000610c8c82611230565b92610c9a6040519485610ec6565b82845260208401903c602d815110610cbe57602a602091015160601c604051908152f35b60046040517fbaf3f0f7000000000000000000000000000000000000000000000000000000008152fd5b3461010457602080600319360112610104576101cd9060043590610d0b82610109565b610d6f6001600160a01b0392836006541693604051911683820152828152610d3281610e89565b604051610d3e81610e89565b601881527f697364656c656761746f724e6f6465286164647265737329000000000000000084820152600094611414565b919080610da9575b610d90575b505060405190151581529081906020820190565b610da29250808251830101910161124c565b3880610d7c565b5080825114610d77565b34610104576000366003190112610104576020610b46611264565b346101045760003660031901126101045760206109b86001600160a01b0360035416604051610dfc81610e89565b600681527f694167652829000000000000000000000000000000000000000000000000000084820152604051916109af83610eaa565b9068056bc75e2d631000008201809211610e4857565b634e487b7160e01b600052601160045260246000fd5b90671bc16d674ec800008201809211610e4857565b634e487b7160e01b600052604160045260246000fd5b6040810190811067ffffffffffffffff821117610ea557604052565b610e73565b6020810190811067ffffffffffffffff821117610ea557604052565b90601f8019910116810190811067ffffffffffffffff821117610ea557604052565b908160209103126101045751610efd81610109565b90565b6040513d6000823e3d90fd5b604051906101e0820182811067ffffffffffffffff821117610ea557604052565b6112126101c061122e92610f67610f4b82516001600160a01b031690565b6001600160a01b03166001600160a01b03196002541617600255565b610f9a610f7e60208301516001600160a01b031690565b6001600160a01b03166001600160a01b03196003541617600355565b610fcd610fb160408301516001600160a01b031690565b6001600160a01b03166001600160a01b03196004541617600455565b611000610fe460608301516001600160a01b031690565b6001600160a01b03166001600160a01b03196005541617600555565b61103361101760808301516001600160a01b031690565b6001600160a01b03166001600160a01b03196006541617600655565b61106661104a60a08301516001600160a01b031690565b6001600160a01b03166001600160a01b03196007541617600755565b61109961107d60c08301516001600160a01b031690565b6001600160a01b03166001600160a01b03196008541617600855565b6110cc6110b060e08301516001600160a01b031690565b6001600160a01b03166001600160a01b03196009541617600955565b6111006110e46101008301516001600160a01b031690565b6001600160a01b03166001600160a01b0319600a541617600a55565b6111346111186101208301516001600160a01b031690565b6001600160a01b03166001600160a01b0319600b541617600b55565b61116861114c6101408301516001600160a01b031690565b6001600160a01b03166001600160a01b0319600c541617600c55565b61119c6111806101608301516001600160a01b031690565b6001600160a01b03166001600160a01b0319600d541617600d55565b6111d06111b46101808301516001600160a01b031690565b6001600160a01b03166001600160a01b0319600e541617600e55565b6112046111e86101a08301516001600160a01b031690565b6001600160a01b03166001600160a01b0319600f541617600f55565b01516001600160a01b031690565b6001600160a01b03166001600160a01b03196010541617601055565b565b67ffffffffffffffff8111610ea557601f01601f191660200190565b90816020910312610104575180151581036101045790565b6112bf6001600160a01b036002541660405161127f81610e89565b600881527f69735361666528290000000000000000000000000000000000000000000000006020820152604051916112b683610eaa565b60008352611414565b90806112de575b156101d15780602080610efd9351830101910161124c565b5060208151146112c6565b61134c6001600160a01b03806002541660405191602094168483015283825261131182610e89565b6040519061131e82610e89565b601582527f697353656375726542617365286164647265737329000000000000000000000085830152611414565b9080611369575b156101d15781610efd928251830101910161124c565b5081815114611353565b3d1561139e573d9061138482611230565b916113926040519384610ec6565b82523d6000602084013e565b606090565b908015611410576001600160a01b0382169182156113ff57600080808481945af16113cc611373565b50156101d15760207fcec1f18c3ab8ddaaa107a1591e3c369667eec613626611a8deaedef43069fcdd91604051908152a2565b600460405163e6c4247b60e01b8152fd5b5050565b9190823b156114a9577fffffffff00000000000000000000000000000000000000000000000000000000815160208093012016916040519180830193845281519160005b83811061149557505050918161148560248260009795968897018783820152036004810184520182610ec6565b51915afa611491611373565b9091565b818101830151858201602401528201611458565b5050506000906040516114bb81610eaa565b6000815290565b92916114d091600094611414565b90806114f5575b6114de5750565b909150602081805181010312610104576020015190565b5060208151146114d7565b602081016000808084518482732fb8b5508b072e1d0e0d2e7e4a1a1a7955589a9a5af19261152c611373565b93156115385750505090565b51916004831091826115f05750517fffffffff0000000000000000000000000000000000000000000000000000000092838216926115db575b505090505b8151156115865750805190602001fd5b6040517f21c09d340000000000000000000000000000000000000000000000000000000081527fffffffff00000000000000000000000000000000000000000000000000000000919091166004820152602490fd5b8391925060040360031b1b1616808380611571565b9250505061157656fea26469706673582212200057763a30ecd540b4259c7a665731b09a23b7e10aac0cb5b6d444565204812a64736f6c63430008140033","linkReferences":{}},"methodIdentifiers":{"instance()":"022ec095","tVLFactory()":"9ba540fb","tVLMining()":"d795ff38","tVLReward()":"b85c9faf","tVLRoyality()":"9443767c","tVLTour()":"dabf429d","tVLValidator()":"a50c0bc0"},"id":77}