{"abi":[{"type":"constructor","inputs":[{"name":"_hex","type":"address","internalType":"address"},{"name":"_price","type":"address","internalType":"address"},{"name":"_old741","type":"address","internalType":"address"}],"stateMutability":"nonpayable"},{"type":"function","name":"dAOAssembly","inputs":[],"outputs":[{"name":"","type":"address","internalType":"address"}],"stateMutability":"view"},{"type":"function","name":"daocore","inputs":[],"outputs":[{"name":"","type":"address","internalType":"address"}],"stateMutability":"view"},{"type":"function","name":"nested741","inputs":[],"outputs":[{"name":"","type":"address","internalType":"address"}],"stateMutability":"view"},{"type":"function","name":"old741","inputs":[],"outputs":[{"name":"","type":"address","internalType":"address"}],"stateMutability":"view"},{"type":"function","name":"price","inputs":[],"outputs":[{"name":"","type":"address","internalType":"address"}],"stateMutability":"view"}],"bytecode":{"object":"0x6080346101b757601f61a81f38819003918201601f19168301926001600160401b03929091838511838610176101a15781606092849260409788528339810103126101b75761004d816101bc565b6100648461005d602085016101bc565b93016101bc565b9160018060a01b03199273c0cee8b561cc4f60869776ca5b0b7a295e04f5af84600154161760015585516118489586820196828810828911176101a15761032583396001600160a01b039485168088526000979092908190036020019088f080156101835785168660035416176003558751615bb4808201908282108483111761018d576020918391614c6b833985815203019088f080156101835785168660025416176002558751916130fe808401928484109084111761016f57918391602093611b6d8439815203019086f080156101655790838092168560045416176004551683600154161760015516908254161790555161015490816101d18239f35b86513d87823e3d90fd5b634e487b7160e01b89526041600452602489fd5b88513d89823e3d90fd5b634e487b7160e01b8a52604160045260248afd5b634e487b7160e01b600052604160045260246000fd5b600080fd5b51906001600160a01b03821682036101b75756fe608080604052600436101561001357600080fd5b600090813560e01c90816314837455146100f55750806314d8d024146100ce57806345cff900146100a75780635540c5ac146100805763a035b1fe1461005857600080fd5b3461007d578060031936011261007d576001600160a01b036020915416604051908152f35b80fd5b503461007d578060031936011261007d5760206001600160a01b0360015416604051908152f35b503461007d578060031936011261007d5760206001600160a01b0360025416604051908152f35b503461007d578060031936011261007d5760206001600160a01b0360045416604051908152f35b90503461011a578160031936011261011a576020906001600160a01b03600354168152f35b5080fdfea264697066735822122080ce985782ea1dfc06a32aac2580619a0722b8405f7397356f236f3ec9167afc64736f6c6343000814003360803461009757601f61184838819003918201601f19168301916001600160401b0383118484101761009c5780849260209460405283398101031261009757516001600160a01b038116908190036100975780156100855760018060a01b0319338160015416176001556000541617600055600060125560405161179590816100b38239f35b60405163e6c4247b60e01b8152600490fd5b600080fd5b634e487b7160e01b600052604160045260246000fdfe60806040526004361015610018575b361561001657005b005b60003560e01c806312065fe0146101185780631f185d161461011357806325924f341461010e578063339459a6146101095780633b9b79551461010457806361b7fbd9146100ff5780638da5cb5b146100fa578063a1f7f539146100f5578063af484526146100f0578063b90306ad146100eb578063c54e44b0146100e6578063c89b84fd146100e1578063dbac26e9146100dc578063e01ad5fd146100d7578063e0a9bc2b146100d25763fdc10bc90361000e57610ecf565b610eb4565b610e34565b610df1565b610d2c565b610ca6565b610b98565b610b19565b610aa4565b610a7d565b61098f565b61095e565b610266565b610235565b61014a565b3461013457600036600319011261013457602047604051908152f35b600080fd5b6001600160a01b0381160361013457565b3461013457602080600319360112610134576101c960043561016b81610139565b6001600160a01b0380600254169060405192168483015283825261018e82610f00565b6040519061019b82610f00565b601182527f69735369676e6572286164647265737329000000000000000000000000000000858301526115e6565b91908061022b575b156102015781816101eb926101fd945183010191016114ca565b60405190151581529081906020820190565b0390f35b60046040517f3204506f000000000000000000000000000000000000000000000000000000008152fd5b50808251146101d1565b3461013457602036600319011261013457602061025c60043561025781610139565b61108e565b6040519015158152f35b346101345760003660031901126101345761029861028c6000546001600160a01b031690565b6001600160a01b031690565b604051907f97f3815a000000000000000000000000000000000000000000000000000000008252602082600481845afa91821561078e5760009261093d575b50604051917fcfbffe53000000000000000000000000000000000000000000000000000000008352602083600481855afa92831561078e5760009361091c575b50604051907fab6e844f000000000000000000000000000000000000000000000000000000008252602082600481865afa91821561078e576000926108fb575b50604051917f14d8d024000000000000000000000000000000000000000000000000000000008352602083600481875afa92831561078e576000936108da575b50604051927fd1f956b1000000000000000000000000000000000000000000000000000000008452602084600481885afa93841561078e576000946108b9575b50604051937fe61dfd58000000000000000000000000000000000000000000000000000000008552602085600481895afa94851561078e57600095610898575b506040517fe09d394d0000000000000000000000000000000000000000000000000000000081526020816004818a5afa90811561078e57600091610879575b506040517f52b06d640000000000000000000000000000000000000000000000000000000081526020816004818b5afa90811561078e5760009161085a575b506040517f013cf08b00000000000000000000000000000000000000000000000000000000815260006004820152916020836024818c5afa92831561078e57600093610839575b50604051977f5e09dbe70000000000000000000000000000000000000000000000000000000089526020896004818d5afa94851561078e57600499600096610818575b5060208b6040519b8c80927faa0ddc160000000000000000000000000000000000000000000000000000000082525afa96871561078e5760049a6000986107f7575b5060208c6040519c8d80927f640274270000000000000000000000000000000000000000000000000000000082525afa98891561078e5760049b60009a6107d6575b5060208d6040519d8e80927f30125cf50000000000000000000000000000000000000000000000000000000082525afa9a8b1561078e578d60049d60009d6107b4575b506020906040519e8f80927f24768d910000000000000000000000000000000000000000000000000000000082525afa9c8d1561078e5760009d610793575b50604051809e81907f9dc969a80000000000000000000000000000000000000000000000000000000082525a92600491602094fa9d8e1561078e5760009e61075d575b50610671610f5a565b6001600160a01b0390911681529d8e906001600160a01b03166020820152604001906106a591906001600160a01b03169052565b6001600160a01b031660608d01526001600160a01b031660808c01526001600160a01b031660a08b01526001600160a01b031660c08a01526001600160a01b031660e08901526001600160a01b03166101008801526001600160a01b03166101208701526001600160a01b03166101408601526001600160a01b03166101608501526001600160a01b03166101808401526001600160a01b03166101a08301526001600160a01b03166101c0820152610016906111c7565b610780919e5060203d602011610787575b6107788183610f38565b8101906111a6565b9c38610668565b503d61076e565b6111bb565b6107ad919d5060203d602011610787576107788183610f38565b9b38610625565b6020919d506107cf90823d8411610787576107788183610f38565b9c906105e6565b6107f0919a5060203d602011610787576107788183610f38565b98386105a3565b61081191985060203d602011610787576107788183610f38565b9638610561565b61083291965060203d602011610787576107788183610f38565b943861051f565b61085391935060203d602011610787576107788183610f38565b91386104dc565b610873915060203d602011610787576107788183610f38565b38610495565b610892915060203d602011610787576107788183610f38565b38610456565b6108b291955060203d602011610787576107788183610f38565b9338610417565b6108d391945060203d602011610787576107788183610f38565b92386103d7565b6108f491935060203d602011610787576107788183610f38565b9138610397565b61091591925060203d602011610787576107788183610f38565b9038610357565b61093691935060203d602011610787576107788183610f38565b9138610317565b61095791925060203d602011610787576107788183610f38565b90386102d7565b346101345760003660031901126101345760206001600160a01b0360005416604051908152f35b8015150361013457565b34610134576040366003190112610134576004356109ac81610139565b602435906109b982610985565b6109c16114df565b15610a53576001600160a01b039081600554163303610a2957166000526011602052604060002060ff1981541660ff83151516179055600014610a17576012546000198114610a1257600101601255005b611190565b6012548015610a125760001901601255005b60046040517fea8e4eb5000000000000000000000000000000000000000000000000000000008152fd5b60046040517f9dc4246e000000000000000000000000000000000000000000000000000000008152fd5b346101345760003660031901126101345760206001600160a01b0360015416604051908152f35b34610134576000366003190112610134576020610b116001600160a01b0360065416604051610ad281610f00565b601381527f67657464656c656761746f72436f756e742829000000000000000000000000008482015260405191610b0883610f1c565b60008352611721565b604051908152f35b3461013457602080600319360112610134576101c9600435610b3a81610139565b6001600160a01b03806002541690604051921684830152838252610b5d82610f00565b60405190610b6a82610f00565b601582527f6973536563757265426173652861646472657373290000000000000000000000858301526115e6565b3461013457602036600319011261013457600435610bb46114df565b15610a53576001600160a01b03600554163303610a295760009060046020610be661028c85546001600160a01b031690565b604051928380927f46f991ac0000000000000000000000000000000000000000000000000000000082525afa801561078e5783808481949382948391610c88575b505af1610c326115b6565b5015610201577fcdcc745fe377b103b45fa0cec23ae3ef93d6fc6a84a01f0d18c40b354dd1d5d8610c82610c7161028c600b546001600160a01b031690565b604051938452929081906020820190565b0390a280f35b610ca0915060203d8111610787576107788183610f38565b38610c27565b3461013457602036600319011261013457600435610cc381610139565b803b6000610cd082610f7b565b92610cde6040519485610f38565b82845260208401903c602d815110610d0257602a602091015160601c604051908152f35b60046040517fbaf3f0f7000000000000000000000000000000000000000000000000000000008152fd5b34610134576000366003190112610134576001600160a01b038060035416610d65610d55610faa565b91604092835191610b0883610f1c565b9160045416610d72611564565b92825193602085015282840152818352606083019280841067ffffffffffffffff851117610dec5783610ddd926101fd958552610dae82610f00565b601d82527f67657472616e6b436f756e742875696e743235362c75696e74323536290000006080840152611721565b90519081529081906020820190565b610eea565b34610134576020366003190112610134576001600160a01b03600435610e1681610139565b166000526011602052602060ff604060002054166040519015158152f35b3461013457602036600319011261013457602061025c600435610e5681610139565b6001600160a01b03806006541690604051921684830152838252610e7982610f00565b60405190610e8682610f00565b601882527f697364656c656761746f724e6f64652861646472657373290000000000000000858301526116e5565b3461013457600036600319011261013457602061025c6114df565b34610134576000366003190112610134576020610b11611564565b634e487b7160e01b600052604160045260246000fd5b6040810190811067ffffffffffffffff821117610dec57604052565b6020810190811067ffffffffffffffff821117610dec57604052565b90601f8019910116810190811067ffffffffffffffff821117610dec57604052565b604051906101e0820182811067ffffffffffffffff821117610dec57604052565b67ffffffffffffffff8111610dec57601f01601f191660200190565b60405190610fa482610f1c565b60008252565b60405190610fb782610f00565b600c82527f72616e6b666f7244414f282900000000000000000000000000000000000000006020830152565b60405190610ff082610f00565b601682527f67657455736572546f53746f72286164647265737329000000000000000000006020830152565b6040519061102982610f00565b600682527f72616e6b282900000000000000000000000000000000000000000000000000006020830152565b6040519061106282610f00565b600882527f69734c6f636b28290000000000000000000000000000000000000000000000006020830152565b6001600160a01b03906110b482600354166110a7610faa565b60405191610b0883610f1c565b6110fc6110c96004546001600160a01b031690565b604080516001600160a01b038616602080830191909152815291906110ee9083610f38565b6110f6610fe3565b90611694565b928316156111885761113861112161111261101c565b61111a610f97565b9086611721565b9361112a611055565b611132610f97565b916116e5565b921015918261117f575b508161114c575090565b61117c9150611171611178916001600160a01b03166000526011602052604060002090565b5460ff1690565b1590565b90565b15915038611142565b505050600090565b634e487b7160e01b600052601160045260246000fd5b90816020910312610134575161117c81610139565b6040513d6000823e3d90fd5b6114ac6101c06114c8926112016111e582516001600160a01b031690565b6001600160a01b03166001600160a01b03196002541617600255565b61123461121860208301516001600160a01b031690565b6001600160a01b03166001600160a01b03196003541617600355565b61126761124b60408301516001600160a01b031690565b6001600160a01b03166001600160a01b03196004541617600455565b61129a61127e60608301516001600160a01b031690565b6001600160a01b03166001600160a01b03196005541617600555565b6112cd6112b160808301516001600160a01b031690565b6001600160a01b03166001600160a01b03196006541617600655565b6113006112e460a08301516001600160a01b031690565b6001600160a01b03166001600160a01b03196007541617600755565b61133361131760c08301516001600160a01b031690565b6001600160a01b03166001600160a01b03196008541617600855565b61136661134a60e08301516001600160a01b031690565b6001600160a01b03166001600160a01b03196009541617600955565b61139a61137e6101008301516001600160a01b031690565b6001600160a01b03166001600160a01b0319600a541617600a55565b6113ce6113b26101208301516001600160a01b031690565b6001600160a01b03166001600160a01b0319600b541617600b55565b6114026113e66101408301516001600160a01b031690565b6001600160a01b03166001600160a01b0319600c541617600c55565b61143661141a6101608301516001600160a01b031690565b6001600160a01b03166001600160a01b0319600d541617600d55565b61146a61144e6101808301516001600160a01b031690565b6001600160a01b03166001600160a01b0319600e541617600e55565b61149e6114826101a08301516001600160a01b031690565b6001600160a01b03166001600160a01b0319600f541617600f55565b01516001600160a01b031690565b6001600160a01b03166001600160a01b03196010541617601055565b565b90816020910312610134575161117c81610985565b61153a6001600160a01b03600254166040516114fa81610f00565b600881527f697353616665282900000000000000000000000000000000000000000000000060208201526040519161153183610f1c565b600083526115e6565b9080611559575b15610201578060208061117c935183010191016114ca565b506020815114611541565b61117c6001600160a01b036003541660405161157f81610f00565b600681527f6941676528290000000000000000000000000000000000000000000000000000602082015260405191610b0883610f1c565b3d156115e1573d906115c782610f7b565b916115d56040519384610f38565b82523d6000602084013e565b606090565b9190823b1561167b577fffffffff00000000000000000000000000000000000000000000000000000000815160208093012016916040519180830193845281519160005b83811061166757505050918161165760248260009795968897018783820152036004810184520182610f38565b51915afa6116636115b6565b9091565b81810183015185820160240152820161162a565b50505060009060405161168d81610f1c565b6000815290565b92916116a2916000946115e6565b90806116da575b6116b05750565b9091506020818051810103126101345760206001600160a01b039101516116d681610139565b1690565b5060208151146116a9565b92916116f3916000946115e6565b9080611716575b6117015750565b61117c919250602080825183010191016114ca565b5060208151146116fa565b929161172f916000946115e6565b9080611754575b61173d5750565b909150602081805181010312610134576020015190565b50602081511461173656fea264697066735822122047f727fcb9b02191f8f435da04f13ae8cabef0b29b8182794bf01dcd3ae2b86c64736f6c634300081400336080346200009e57601f620030fe38819003918201601f19168301916001600160401b03831184841017620000a3578084926020946040528339810103126200009e57516001600160a01b038116908190036200009e5780156200008c5760018060a01b031933816001541617600155600054161760005560016011556040516130449081620000ba8239f35b60405163e6c4247b60e01b8152600490fd5b600080fd5b634e487b7160e01b600052604160045260246000fdfe60806040526004361015610018575b361561001657005b005b60003560e01c8063013cf08b146101c857806312065fe0146101c35780631f185d16146101be57806326705c3c146101b9578063339459a6146101b45780633b9b7955146101af57806343859632146101aa57806345a257bc146101a55780635c622a0e146101a0578063604ff4b11461019b578063896d6db1146101965780638da5cb5b1461019157806398e527d31461018c578063995e433914610187578063a1f7f53914610182578063af4845261461017d578063b7ccfe3214610178578063b90306ad14610173578063c54e44b01461016e578063c7f758a814610169578063c9d27afe14610164578063cc48bf161461015f578063d3325a2c1461015a578063e01ad5fd14610155578063e0a9bc2b14610150578063eeebb3c31461014b5763fdc10bc90361000e57611c59565b611a43565b611a28565b611a01565b611972565b61183d565b6116a2565b61162c565b611564565b611456565b6113af565b6112c8565b6112a5565b611221565b611203565b6111dc565b611143565b611064565b611018565b610d66565b610cc4565b610c9d565b6105a5565b610587565b610556565b610529565b610465565b634e487b7160e01b600052603260045260246000fd5b60125481101561021e57600b906012600052027fbb8a6a4669ba250d26cd7a459eca9d215f8307e33aebe50379bc5a3617ec34440190600090565b6101cd565b90600182811c92168015610253575b602083101461023d57565b634e487b7160e01b600052602260045260246000fd5b91607f1691610232565b906000929180549161026e83610223565b9182825260019384811690816000146102d05750600114610290575b50505050565b90919394506000526020928360002092846000945b8386106102bc57505050500101903880808061028a565b8054858701830152940193859082016102a5565b9294505050602093945060ff191683830152151560051b0101903880808061028a565b634e487b7160e01b600052604160045260246000fd5b6040810190811067ffffffffffffffff82111761032557604052565b6102f3565b6020810190811067ffffffffffffffff82111761032557604052565b90601f8019910116810190811067ffffffffffffffff82111761032557604052565b9061038361037c926040519384809261025d565b0383610346565b565b60005b8381106103985750506000910152565b8181015183820152602001610388565b906020916103c181518092818552858086019101610385565b601f01601f1916010190565b99939561041d61044d969f9e9d99936101809d986104619c9660408f6001600160a01b036104076104579f996101a08085528401906103a8565b9516602082015201528d820360608f01526103a8565b9e60808c015260a08b015260c08a015260e089015215156101008801526101208701906001600160a01b03169052565b1515610140850152565b1515610160830152565b0152565b34610524576020366003190112610524576004356012548110156105245761048c906101e3565b506040516104a58161049e818561025d565b0382610346565b6105206104bc60018401546001600160a01b031690565b6002840154906104ce60038601610368565b93600486015495600581015493600682015460078301549060096008850154940154966040519a8b9a8b9560ff8860b01c169960ff8960a81c169960ff6001600160a01b038b60081c169a16986103cd565b0390f35b600080fd5b3461052457600036600319011261052457602047604051908152f35b6001600160a01b0381160361052457565b3461052457602036600319011261052457602061057d60043561057881610545565b612c2c565b6040519015158152f35b34610524576000366003190112610524576020601454604051908152f35b34610524576000366003190112610524576105d76105cb6000546001600160a01b031690565b6001600160a01b031690565b604051907f97f3815a000000000000000000000000000000000000000000000000000000008252602082600481845afa918215610acd57600092610c7c575b50604051917fcfbffe53000000000000000000000000000000000000000000000000000000008352602083600481855afa928315610acd57600093610c5b575b50604051907fab6e844f000000000000000000000000000000000000000000000000000000008252602082600481865afa918215610acd57600092610c3a575b50604051917f14d8d024000000000000000000000000000000000000000000000000000000008352602083600481875afa928315610acd57600093610c19575b50604051927fd1f956b1000000000000000000000000000000000000000000000000000000008452602084600481885afa938415610acd57600094610bf8575b50604051937fe61dfd58000000000000000000000000000000000000000000000000000000008552602085600481895afa948515610acd57600095610bd7575b506040517fe09d394d0000000000000000000000000000000000000000000000000000000081526020816004818a5afa908115610acd57600091610bb8575b506040517f52b06d640000000000000000000000000000000000000000000000000000000081526020816004818b5afa908115610acd57600091610b99575b506040517f013cf08b00000000000000000000000000000000000000000000000000000000815260006004820152916020836024818c5afa928315610acd57600093610b78575b50604051977f5e09dbe70000000000000000000000000000000000000000000000000000000089526020896004818d5afa948515610acd57600499600096610b57575b5060208b6040519b8c80927faa0ddc160000000000000000000000000000000000000000000000000000000082525afa968715610acd5760049a600098610b36575b5060208c6040519c8d80927f640274270000000000000000000000000000000000000000000000000000000082525afa988915610acd5760049b60009a610b15575b5060208d6040519d8e80927f30125cf50000000000000000000000000000000000000000000000000000000082525afa9a8b15610acd578d60049d60009d610af3575b506020906040519e8f80927f24768d910000000000000000000000000000000000000000000000000000000082525afa9c8d15610acd5760009d610ad2575b50604051809e81907f9dc969a80000000000000000000000000000000000000000000000000000000082525a92600491602094fa9d8e15610acd5760009e610a9c575b506109b06118de565b6001600160a01b0390911681529d8e906001600160a01b03166020820152604001906109e491906001600160a01b03169052565b6001600160a01b031660608d01526001600160a01b031660808c01526001600160a01b031660a08b01526001600160a01b031660c08a01526001600160a01b031660e08901526001600160a01b03166101008801526001600160a01b03166101208701526001600160a01b03166101408601526001600160a01b03166101608501526001600160a01b03166101808401526001600160a01b03166101a08301526001600160a01b03166101c082015261001690612891565b610abf919e5060203d602011610ac6575b610ab78183610346565b81019061286d565b9c386109a7565b503d610aad565b612885565b610aec919d5060203d602011610ac657610ab78183610346565b9b38610964565b6020919d50610b0e90823d8411610ac657610ab78183610346565b9c90610925565b610b2f919a5060203d602011610ac657610ab78183610346565b98386108e2565b610b5091985060203d602011610ac657610ab78183610346565b96386108a0565b610b7191965060203d602011610ac657610ab78183610346565b943861085e565b610b9291935060203d602011610ac657610ab78183610346565b913861081b565b610bb2915060203d602011610ac657610ab78183610346565b386107d4565b610bd1915060203d602011610ac657610ab78183610346565b38610795565b610bf191955060203d602011610ac657610ab78183610346565b9338610756565b610c1291945060203d602011610ac657610ab78183610346565b9238610716565b610c3391935060203d602011610ac657610ab78183610346565b91386106d6565b610c5491925060203d602011610ac657610ab78183610346565b9038610696565b610c7591935060203d602011610ac657610ab78183610346565b9138610656565b610c9691925060203d602011610ac657610ab78183610346565b9038610616565b346105245760003660031901126105245760206001600160a01b0360005416604051908152f35b3461052457604036600319011261052457600435602435610ce481610545565b6000198201918211610d2957610d1d60ff91600a610d036020956101e3565b5001906001600160a01b0316600052602052604060002090565b54166040519015158152f35b611da0565b9181601f840112156105245782359167ffffffffffffffff8311610524576020838186019501011161052457565b8015150361052457565b346105245760e03660031901126105245760043560243567ffffffffffffffff811161052457610d9a903690600401610d2e565b604435610da681610545565b606435936001600160e01b031985168086036105245760843560a4359260c43592610dd084610d5c565b610dd933612c2c565b1561100757610df490610ded881515611c74565b1515611cbf565b8315801590610ff5575b610e0790611d0a565b80610ed15750610ecc9593610ec4610016989694610eb07f0454182b30f1740c505634bb66f7f3001e232b3c8797a62b1db11b347a891ff4956001600160a01b0395610e8a610e546118ff565b92610e60368c8e61193b565b84526001600160a01b03881660208501526001600160e01b03198d16604085015215156060840152565b60808201528260a0820152610eab6014546000526013602052604060002090565b611ffc565b60145497889660405195869516988561217d565b0390a36121ab565b601455565b968294610fdb88957f74608b2c8ffedaacf37a0fda8ea5cb94ebae20dc104623eb2fabb1bcec211608946001600160a01b03948a610fcd8e997f2dd3ae6155b13a46b2374a1f42e0733244754e572ec9f0034b698efefa8673a19e610f64610ff09f610f5d610f4d8f610f48601454821115611d55565b611db6565b6000526013602052604060002090565b9283611e19565b8660036001830192610f8c8c85906001600160a01b03166001600160a01b0319825416179055565b835463ffffffff60a01b1916604089901c63ffffffff60a01b1617845588600282015501559060ff60c01b1960ff60c01b835492151560c01b169116179055565b604051968796169986611f02565b0390a360405190151581529081906020820190565b0390a2005b506001600160a01b0385161515610dfe565b600460405163ea8e4eb560e01b8152fd5b34610524576020366003190112610524576004356000198101908111610d295760086110456040926101e3565b50015460ff825191818160a81c161515835260b01c1615156020820152f35b3461052457602036600319011261052457600435611080612ba7565b15611132573330036110ee57801515806110e3575b1561109f57601155005b606460405162461bcd60e51b815260206004820152601660248201527f64616f2e696e76616c69642e70657263656e74616765000000000000000000006044820152fd5b506064811115611095565b606460405162461bcd60e51b815260206004820152600d60248201527f64616f2e66616b652e636f7265000000000000000000000000000000000000006044820152fd5b6004604051634ee2123760e11b8152fd5b346105245760203660031901126105245760043560005260136020526111a06040600020604051906111798261037c818461025d565b600181015490600360028201549101549060ff60405195869560c0875260c08701906103a8565b936001600160a01b03811660208701526001600160e01b03198160401b16604087015260c01c1615156060850152608084015260a08301520390f35b346105245760003660031901126105245760206001600160a01b0360015416604051908152f35b34610524576000366003190112610524576020601254604051908152f35b34610524576020366003190112610524576004356000198101908111610d295761124a906101e3565b50600481015460058201546006830154600784015460089094015460408051948552602085019390935291830152606082019290925260ff60a883901c81161515608083015260b09290921c909116151560a082015260c090f35b346105245760003660031901126105245760206112c0612d76565b604051908152f35b3461052457602080600319360112610524576113476004356112e981610545565b6001600160a01b0380600254169060405192168483015283825261130c82610309565b6040519061131982610309565b601582527f697353656375726542617365286164647265737329000000000000000000000085830152612df8565b9190806113a5575b1561137b5781816113699261052094518301019101612b92565b60405190151581529081906020820190565b60046040517f3204506f000000000000000000000000000000000000000000000000000000008152fd5b508082511461134f565b34610524576040366003190112610524576004356024356113cf81610d5c565b6113d833612c2c565b15611007576113eb601454831115611d55565b6000198201828111610d29577f2dd3ae6155b13a46b2374a1f42e0733244754e572ec9f0034b698efefa8673a1916020916000526013825261144b8160016040600020019060ff60c01b1960ff60c01b835492151560c01b169116179055565b6040519015158152a2005b3461052457602036600319011261052457600435611472612ba7565b15611132576001600160a01b0360055416330361100757600090600460206114a46105cb85546001600160a01b031690565b604051928380927f46f991ac0000000000000000000000000000000000000000000000000000000082525afa8015610acd5783808481949382948391611546575b505af16114f0612dc8565b501561137b577fcdcc745fe377b103b45fa0cec23ae3ef93d6fc6a84a01f0d18c40b354dd1d5d861154061152f6105cb600b546001600160a01b031690565b604051938452929081906020820190565b0390a280f35b61155e915060203d8111610ac657610ab78183610346565b386114e5565b346105245760203660031901126105245760043561158181610545565b803b600061158e8261191f565b9261159c6040519485610346565b82845260208401903c602d8151106115c057602a602091015160601c604051908152f35b60046040517fbaf3f0f7000000000000000000000000000000000000000000000000000000008152fd5b9296959491909361160560a09560c0865260c08601906103a8565b976001600160a01b0380931660208601526040850152166060830152151560808201520152565b34610524576020366003190112610524576004356000198101908111610d2957611655906101e3565b506001600160a01b036105208160018401541692600281015461037c60088301549161168c6009850154946040519384809261025d565b60405196879660ff85169460081c1692876115ea565b34610524576040366003190112610524576004356024356116c281610d5c565b6116ca612ba7565b15611132576116d833612d11565b156110075781151580611831575b6116ef906125d1565b6117006116fb83611db6565b6101e3565b509061173860ff600884015461171782821661261c565b61172e6006860154611727612cb6565b1115612667565b60b01c16156126b2565b61179d611790600a840161177861177361176f6117683385906001600160a01b0316600052602052604060002090565b5460ff1690565b1590565b6126fd565b336001600160a01b0316600052602052604060002090565b805460ff19166001179055565b801561181c57600482016117b181546121ab565b90555b6040519015158152339083907f0def80f9a3b4c7a4251442658ccf516bf33ea4acaf31638fc6da8ebdb0f64c7290602090a3600481015460078201548091109182159261180d575b505061180457005b61001690612748565b600501541015905038806117fc565b6005820161182a81546121ab565b90556117b4565b506012548211156116e6565b346105245760203660031901126105245760043561185a33612c2c565b1561100757801515806118d2575b611871906125d1565b6000198101818111610d29576118886008916101e3565b5001600160b01b60ff60b01b1982546118a760ff8260b01c16156126b2565b161790557f4cf2797951877f41b38931a68643f9249273f32fd396532213aa4f1222c9d16b600080a2005b50601254811115611868565b604051906101e0820182811067ffffffffffffffff82111761032557604052565b6040519060c0820182811067ffffffffffffffff82111761032557604052565b67ffffffffffffffff811161032557601f01601f191660200190565b9291926119478261191f565b916119556040519384610346565b829481845281830111610524578281602093846000960137010152565b346105245760a03660031901126105245767ffffffffffffffff600435818111610524576119a4903690600401610d2e565b6024929192356119b381610545565b606435928311610524573660238401121561052457610520936119e36119f194369060248160040135910161193b565b916084359360443592612475565b6040519081529081906020820190565b3461052457602036600319011261052457602061057d600435611a2381610545565b612d11565b3461052457600036600319011261052457602061057d612ba7565b3461052457608036600319011261052457600480359060243590611a6682610545565b60443567ffffffffffffffff811161052457611a859036908301610d2e565b9092611a8f612ba7565b15611c4957611a9d33612d11565b15611c3957611ab0601454861115611d55565b611abc610f4d86611db6565b91611aea600184015491611ad560ff8460c01c166121ba565b6040966001600160e01b031984891b16612205565b6003840154909490918215611c1c5750805486516001600160a01b03858116602080840191909152825290911692601f19929091611b3f9061176f90611b31604082610346565b611b3961223e565b87612ec4565b611c0e575091611b7c9593918360016105209a979514611bca575b600214611b8b575b50505b600282015493611b7760643593610368565b61235e565b90519081529081906020820190565b87516001600160a01b0393909316602084015260409081018352611bc3929190611bb59083610346565b611bbd6122b0565b90612e73565b3880611b62565b88516001600160a01b03909416602085015292600290611c0690611bf8816040810103858101835282610346565b611c00612277565b85612e73565b939050611b5a565b875163ea8e4eb560e01b8152fd5b611b7c959350610520979492506001600160a01b03915016611b65565b8260405163ea8e4eb560e01b8152fd5b82604051634ee2123760e11b8152fd5b346105245760003660031901126105245760206112c0612cb6565b15611c7b57565b606460405162461bcd60e51b815260206004820152601760248201527f64616f2e74656d706c6174652e656d7074792e646573630000000000000000006044820152fd5b15611cc657565b606460405162461bcd60e51b815260206004820152601a60248201527f64616f2e74656d706c6174652e7a65726f2e73656c6563746f720000000000006044820152fd5b15611d1157565b606460405162461bcd60e51b815260206004820152601860248201527f64616f2e74656d706c6174652e7a65726f2e74617267657400000000000000006044820152fd5b15611d5c57565b606460405162461bcd60e51b815260206004820152601460248201527f64616f2e74656d706c6174652e696e76616c69640000000000000000000000006044820152fd5b634e487b7160e01b600052601160045260246000fd5b600019810191908211610d2957565b90601f8111611dd357505050565b600091825260208220906020601f850160051c83019410611e0f575b601f0160051c01915b828110611e0457505050565b818155600101611df8565b9092508290611def565b90929167ffffffffffffffff811161032557611e3f81611e398454610223565b84611dc5565b6000601f8211600114611e795781929394600092611e6e575b50508160011b916000199060031b1c1916179055565b013590503880611e58565b601f19821694611e8e84600052602060002090565b91805b878110611ec9575083600195969710611eaf575b505050811b019055565b0135600019600384901b60f8161c19169055388080611ea5565b90926020600181928686013581550194019101611e91565b908060209392818452848401376000828201840152601f01601f1916010190565b91611f25606094979695926001600160e01b031992608086526080860191611ee1565b9616602083015260408201520152565b919091825167ffffffffffffffff811161032557611f5781611e398454610223565b602080601f8311600114611f92575081929394600092611f875750508160011b916000199060031b1c1916179055565b015190503880611e58565b90601f19831695611fa885600052602060002090565b926000905b888210611fe457505083600195969710611fcb57505050811b019055565b015160001960f88460031b161c19169055388080611ea5565b80600185968294968601518155019501930190611fad565b908051805167ffffffffffffffff8111610325576120248161201e8654610223565b86611dc5565b6020918290601f8311600114612108579282600395936120ec9360a0966000926120fd575b50508160011b9160001990881b1c19161786555b61209361207760018801928501516001600160a01b031690565b82906001600160a01b03166001600160a01b0319825416179055565b6120cb6120ab60408501516001600160e01b03191690565b825463ffffffff60a01b191660409190911c63ffffffff60a01b16178255565b60608301511515815460ff60c01b191690151560c01b60ff60c01b16179055565b608081015160028501550151910155565b015190503880612049565b90601f1983169161211e87600052602060002090565b9260005b8181106121665750936120ec9360a096936001938360039a981061214e575b505050811b01865561205d565b0151600019838a1b60f8161c19169055388080612141565b929386600181928786015181550195019301612122565b906121a06001600160e01b03199160409497969597606085526060850191611ee1565b951660208201520152565b6000198114610d295760010190565b156121c157565b606460405162461bcd60e51b815260206004820152601560248201527f64616f2e74656d706c6174652e64697361626c656400000000000000000000006044820152fd5b602490836001600160e01b0319959461038394604051978894166020850152848401378101600083820152036004810185520183610346565b6040519061224b82610309565b601582527f69735573657245786973747328616464726573732900000000000000000000006020830152565b6040519061228482610309565b601682527f67657455736572546f496e7374286164647265737329000000000000000000006020830152565b604051906122bd82610309565b601682527f67657455736572546f53746f72286164647265737329000000000000000000006020830152565b6012546801000000000000000081101561032557600181018060125581101561021e57600b906012600052027fbb8a6a4669ba250d26cd7a459eca9d215f8307e33aebe50379bc5a3617ec34440190600090565b81810292918115918404141715610d2957565b9060638201809211610d2957565b92936123a59195929461237a6123726122e9565b509586611f35565b6001850180546001600160a01b0319166001600160a01b038816179055600285015560038401611f35565b60646123c36123be6123b5612d76565b6011549061233d565b612350565b0460078301556123d1612cb6565b908101809111610d29578160099160068694015561242d6008820161179033829074ffffffffffffffffffffffffffffffffffffffff001974ffffffffffffffffffffffffffffffffffffffff0083549260081b169116179055565b01556012546040516001600160a01b03909216825291339183907f336735bcae5ee955b87e8b30bee52920223fa30a865b207ac6d9eee9f19589fb9080602081015b0390a490565b91939061248133612c2c565b15611007576001600160a01b038516156125a7576124e3926124a491369161193b565b926124b86124b06122e9565b509485611f35565b6001840180546001600160a01b0319166001600160a01b038716179055600284015560038301611f35565b60646124f36123be6123b5612d76565b046007820155612501612cb6565b928301809311610d2957600992600682015561255b6008820161179033829074ffffffffffffffffffffffffffffffffffffffff001974ffffffffffffffffffffffffffffffffffffffff0083549260081b169116179055565b6103e792018290556012546040516001600160a01b03909216825291339183907f336735bcae5ee955b87e8b30bee52920223fa30a865b207ac6d9eee9f19589fb90806020810161246f565b60046040517fe6c4247b000000000000000000000000000000000000000000000000000000008152fd5b156125d857565b606460405162461bcd60e51b815260206004820152600e60248201527f64616f2e696e76616c69642e69640000000000000000000000000000000000006044820152fd5b1561262357565b606460405162461bcd60e51b815260206004820152601160248201527f64616f2e70726f702e6e6f7465786973740000000000000000000000000000006044820152fd5b1561266e57565b606460405162461bcd60e51b815260206004820152601060248201527f64616f2e766f74696e672e656e646564000000000000000000000000000000006044820152fd5b156126b957565b606460405162461bcd60e51b815260206004820152601560248201527f64616f2e616c72656164792e636f6d706c6574656400000000000000000000006044820152fd5b1561270457565b606460405162461bcd60e51b815260206004820152601160248201527f64616f2e616c72656164792e766f7465640000000000000000000000000000006044820152fd5b7f948f4a9cd986f1118c3fbd459f7a22b23c0693e1ca3ef06a6a8be5aa7d39cc0361280f61136961277b6116fb85611db6565b5060088101805460ff60b01b1916600160b01b178155906127f160048201546007830154811015908161285f575b5083547fffffffffffffffffffff00ffffffffffffffffffffffffffffffffffffffffff1690151560a81b75ff00000000000000000000000000000000000000000016178355565b815460a81c60ff168061284a575b612814575b505460a81c60ff1690565b0390a2565b8061282c60016128439301546001600160a01b031690565b61283d600360028401549301610368565b90612f70565b5038612804565b506128586003820154610223565b15156127ff565b9050600583015410386127a9565b90816020910312610524575161288281610545565b90565b6040513d6000823e3d90fd5b612b766101c0610383926128cb6128af82516001600160a01b031690565b6001600160a01b03166001600160a01b03196002541617600255565b6128fe6128e260208301516001600160a01b031690565b6001600160a01b03166001600160a01b03196003541617600355565b61293161291560408301516001600160a01b031690565b6001600160a01b03166001600160a01b03196004541617600455565b61296461294860608301516001600160a01b031690565b6001600160a01b03166001600160a01b03196005541617600555565b61299761297b60808301516001600160a01b031690565b6001600160a01b03166001600160a01b03196006541617600655565b6129ca6129ae60a08301516001600160a01b031690565b6001600160a01b03166001600160a01b03196007541617600755565b6129fd6129e160c08301516001600160a01b031690565b6001600160a01b03166001600160a01b03196008541617600855565b612a30612a1460e08301516001600160a01b031690565b6001600160a01b03166001600160a01b03196009541617600955565b612a64612a486101008301516001600160a01b031690565b6001600160a01b03166001600160a01b0319600a541617600a55565b612a98612a7c6101208301516001600160a01b031690565b6001600160a01b03166001600160a01b0319600b541617600b55565b612acc612ab06101408301516001600160a01b031690565b6001600160a01b03166001600160a01b0319600c541617600c55565b612b00612ae46101608301516001600160a01b031690565b6001600160a01b03166001600160a01b0319600d541617600d55565b612b34612b186101808301516001600160a01b031690565b6001600160a01b03166001600160a01b0319600e541617600e55565b612b68612b4c6101a08301516001600160a01b031690565b6001600160a01b03166001600160a01b0319600f541617600f55565b01516001600160a01b031690565b6001600160a01b03166001600160a01b03196010541617601055565b90816020910312610524575161288281610d5c565b612c026001600160a01b0360025416604051612bc281610309565b600881527f6973536166652829000000000000000000000000000000000000000000000000602082015260405191612bf98361032a565b60008352612df8565b9080612c21575b1561137b578060208061288293518301019101612b92565b506020815114612c09565b612c8f6001600160a01b038060025416604051916020941684830152838252612c5482610309565b60405190612c6182610309565b601182527f69735369676e657228616464726573732900000000000000000000000000000085830152612df8565b9080612cac575b1561137b57816128829282518301019101612b92565b5081815114612c96565b6128826001600160a01b0360035416604051612cd181610309565b600681527f6941676528290000000000000000000000000000000000000000000000000000602082015260405191612d088361032a565b60008352612f00565b612882906001600160a01b038060065416906040519216602083015260208252612d3a82610309565b60405190612d4782610309565b601882527f697364656c656761746f724e6f646528616464726573732900000000000000006020830152612ec4565b6128826001600160a01b0360065416604051612d9181610309565b601381527f67657464656c656761746f72436f756e74282900000000000000000000000000602082015260405191612d088361032a565b3d15612df3573d90612dd98261191f565b91612de76040519384610346565b82523d6000602084013e565b606090565b803b15612e5a576000926001600160e01b03198360208695519101201690612e4a6024604051809360208201958652612e3a8151809260208686019101610385565b8101036004810184520182610346565b51915afa612e56612dc8565b9091565b505050600090604051612e6c8161032a565b6000815290565b9291612e8191600094612df8565b9080612eb9575b612e8f5750565b9091506020818051810103126105245760206001600160a01b03910151612eb581610545565b1690565b506020815114612e88565b9291612ed291600094612df8565b9080612ef5575b612ee05750565b61288291925060208082518301019101612b92565b506020815114612ed9565b9291612f0e91600094612df8565b9080612f33575b612f1c5750565b909150602081805181010312610524576020015190565b506020815114612f15565b90602082519201516001600160e01b0319908181169360048110612f6157505050565b60040360031b82901b16169150565b9190916001600160a01b038116156125a757600091829184519160208601915af190612f9a612dc8565b9115612fa4575090565b80516000919060041161300857612fbb9150612f3e565b815115612fcb5750805190602001fd5b6040517f21c09d340000000000000000000000000000000000000000000000000000000081526001600160e01b0319919091166004820152602490fd5b50612fbb56fea2646970667358221220aefca20f53cbd247c3a0e1838f87246a3a77a828b7c99820746a1056d8fd539564736f6c634300081400336080346200009e57601f62005bb438819003918201601f19168301916001600160401b03831184841017620000a3578084926020946040528339810103126200009e57516001600160a01b038116908190036200009e5780156200008c5760018060a01b03193381600154161760015560005416176000556001601155604051615afa9081620000ba8239f35b60405163e6c4247b60e01b8152600490fd5b600080fd5b634e487b7160e01b600052604160045260246000fdfe60806040526004361015610018575b361561001657005b005b60003560e01c8063033eeffb146103a85780630e5fd00b146103a35780631157a8491461039e57806312065fe01461039957806313508e371461039457806313cf3d551461038f5780631bb49f021461038a5780631c53c280146103855780631f185d16146103805780632a687c871461037b5780632bbae52e146103765780632fefc0bf1461037157806332ff4eab1461036c578063339459a61461036757806333b59a5b146103625780633a7b55b81461035d5780633b9b7955146103585780633baee0ea14610353578063419cb27b1461034e57806342cc9d5714610349578063445850971461034457806344668f231461033f5780634d1ec4521461033a5780634f0f4aa914610335578063509222cd1461033057806350db85d11461032b57806361ea720814610326578063629d671e1461032157806365d2fbd31461031c5780636a811244146103175780636b90905b146103125780636fb412ab1461030d57806376fe6c45146103085780637818cdd71461030357806380f85e33146102fe578063849c22ad146102f9578063896c354a146102f45780638da5cb5b146102ef57806395f72f49146102ea57806398b3f215146102e5578063a1f7f539146102e0578063a89d693b146102db578063af484526146102d6578063b1c49079146102d1578063b366335e146102cc578063b90306ad146102c7578063c43792e3146102c2578063c54e44b0146102bd578063c871372b146102b8578063d1e0bbc6146102b3578063dcb3fc4a146102ae578063e01ad5fd146102a9578063e0a9bc2b146102a4578063eb95c6621461029f578063f3ca71241461029a578063fd38093b146102955763fdc10bc90361000e57613604565b613594565b613568565b61353c565b613521565b613456565b6132d7565b61329d565b61321f565b613199565b61316d565b61305f565b612fe9565b612ecc565b612e9b565b612d7c565b612cd8565b612cac565b612c36565b612c0f565b612bcf565b612ba0565b612b66565b612b0d565b6129ef565b612859565b61271c565b612300565b611df6565b611db8565b611d9a565b611c71565b611c1d565b611b38565b611ad7565b611ab9565b611a81565b611a52565b611a1e565b611592565b611543565b6113d7565b6111d0565b610af9565b610a83565b610a4b565b610a02565b610965565b61087a565b610845565b6107ee565b61057c565b610533565b610517565b61043a565b6103ea565b346103d45760203660031901126103d45760043560005260196020526020604060002054604051908152f35b600080fd5b6001600160a01b038116036103d457565b346103d45760203660031901126103d4576020600435610409816103d9565b6001600160a01b03809116600052601282526040600020546000526015825260046040600020015416604051908152f35b346103d45760203660031901126103d457600435610456613890565b600090808252601560205261047460ff600160408520015416614163565b338252601260205261048b60408320548214614163565b808252601e60205260ff600160408420015416156104d3576104ba6104c691600052601e602052604060002090565b60016000918281550155565b6104d06001601155565b80f35b606460405162461bcd60e51b815260206004820152601360248201527f6e65737465642e7265712e6e6f746578697374000000000000000000000000006044820152fd5b346103d45760003660031901126103d457602047604051908152f35b346103d45760203660031901126103d457600435600052601e6020526060604060002060ff600182549201546040519283528181161515602084015260081c1615156040820152f35b346103d4576020806003193601126103d457600490813561059b613890565b6105c46105bf60016105b7846000526015602052604060002090565b015460ff1690565b613fd6565b6106016105fa6105ee6105e1846000526013602052604060002090565b546001600160a01b031690565b6001600160a01b031690565b3314614163565b816106176105ee6000546001600160a01b031690565b6040519485809263111ea8c160e21b82525afa9283156107e9576000936107ba575b506106976106756106576105e1846000526013602052604060002090565b6040519182918683019190916001600160a01b036020820193169052565b0394610689601f1996878101845283612aca565b6106916141cf565b90615933565b906001600160a01b0382161515806107b0575b6106b9575b6100166001601155565b6107a69361074461073261073e6106f060046106e26107a1976000526015602052604060002090565b01546001600160a01b031690565b6040517f4fb2e45d00000000000000000000000000000000000000000000000000000000898201526001600160a01b0390911660248201529182906044820190565b03848101835282612aca565b846159ff565b507fa3e884b000000000000000000000000000000000000000000000000000000000604051948501528361079560248201906007606060808401936000815260006020820152600060408201520152565b03908101845283612aca565b6159ff565b50388080806106af565b50813115156106aa565b6107db919350823d84116107e2575b6107d38183612aca565b8101906141ae565b9138610639565b503d6107c9565b6141c3565b346103d45760203660031901126103d457602060043561080d816103d9565b60406001600160a01b039182600091168152601284528181205481526015845260028282200154815260138452205416604051908152f35b346103d45760203660031901126103d457600435600052601360205260206001600160a01b0360406000205416604051908152f35b346103d4576020806003193601126103d4576108f960043561089b816103d9565b6001600160a01b038060025416906040519216848301528382526108be82612a76565b604051906108cb82612a76565b601182527f69735369676e6572286164647265737329000000000000000000000000000000858301526158f1565b91908061095b575b1561093157818161091b9261092d9451830101910161568d565b60405190151581529081906020820190565b0390f35b60046040517f3204506f000000000000000000000000000000000000000000000000000000008152fd5b5080825114610901565b346103d45760403660031901126103d4576024356109816156a5565b156109f15761098f3361572a565b80156109dd575b156109cc57600090808252601a60205260408220549060043582018092116109c7578252601a602052604082205580f35b61385f565b600460405163ea8e4eb560e01b8152fd5b50336001600160a01b036005541614610996565b6004604051634ee2123760e11b8152fd5b346103d45760203660031901126103d457600480356000908152601560209081526040918290209283015460059093015482516001600160a01b03948516815293169083015290f35b346103d45760203660031901126103d457600435600052601560205260206001600160a01b0360056040600020015416604051908152f35b346103d45760403660031901126103d457602435610a9f6156a5565b156109f157610aad3361572a565b8015610ae5575b156109cc57600090808252601d60205260408220549060043582018092116109c7578252601d602052604082205580f35b50336001600160a01b036005541614610ab4565b346103d45760003660031901126103d457610b1f6105ee6000546001600160a01b031690565b604051907f97f3815a000000000000000000000000000000000000000000000000000000008252602082600481845afa9182156107e9576000926111af575b50604051917fcfbffe53000000000000000000000000000000000000000000000000000000008352602083600481855afa9283156107e95760009361118e575b50604051907fab6e844f000000000000000000000000000000000000000000000000000000008252602082600481865afa9182156107e95760009261116d575b50604051917f14d8d024000000000000000000000000000000000000000000000000000000008352602083600481875afa9283156107e95760009361114c575b50604051927fd1f956b1000000000000000000000000000000000000000000000000000000008452602084600481885afa9384156107e95760009461112b575b50604051937fe61dfd58000000000000000000000000000000000000000000000000000000008552602085600481895afa9485156107e95760009561110a575b506040517fe09d394d0000000000000000000000000000000000000000000000000000000081526020816004818a5afa9081156107e9576000916110eb575b506040517f52b06d640000000000000000000000000000000000000000000000000000000081526020816004818b5afa9081156107e9576000916110cc575b506040517f013cf08b00000000000000000000000000000000000000000000000000000000815260006004820152916020836024818c5afa9283156107e9576000936110ab575b50604051977f5e09dbe70000000000000000000000000000000000000000000000000000000089526020896004818d5afa9485156107e95760049960009661108a575b5060208b6040519b8c80927faa0ddc160000000000000000000000000000000000000000000000000000000082525afa9687156107e95760049a600098611069575b5060208c6040519c8d80927f640274270000000000000000000000000000000000000000000000000000000082525afa9889156107e95760049b60009a611048575b5060208d6040519d8e80927f30125cf50000000000000000000000000000000000000000000000000000000082525afa9a8b156107e9578d60049d60009d611026575b506020906040519e8f80927f24768d910000000000000000000000000000000000000000000000000000000082525afa9c8d156107e95760009d611005575b50604051809e81907f9dc969a80000000000000000000000000000000000000000000000000000000082525a92600491602094fa9d8e156107e95760009e610fe4575b50610ef8612aec565b6001600160a01b0390911681529d8e906001600160a01b0316602082015260400190610f2c91906001600160a01b03169052565b6001600160a01b031660608d01526001600160a01b031660808c01526001600160a01b031660a08b01526001600160a01b031660c08a01526001600160a01b031660e08901526001600160a01b03166101008801526001600160a01b03166101208701526001600160a01b03166101408601526001600160a01b03166101608501526001600160a01b03166101808401526001600160a01b03166101a08301526001600160a01b03166101c08201526100169061538c565b610ffe919e5060203d6020116107e2576107d38183612aca565b9c38610eef565b61101f919d5060203d6020116107e2576107d38183612aca565b9b38610eac565b6020919d5061104190823d84116107e2576107d38183612aca565b9c90610e6d565b611062919a5060203d6020116107e2576107d38183612aca565b9838610e2a565b61108391985060203d6020116107e2576107d38183612aca565b9638610de8565b6110a491965060203d6020116107e2576107d38183612aca565b9438610da6565b6110c591935060203d6020116107e2576107d38183612aca565b9138610d63565b6110e5915060203d6020116107e2576107d38183612aca565b38610d1c565b611104915060203d6020116107e2576107d38183612aca565b38610cdd565b61112491955060203d6020116107e2576107d38183612aca565b9338610c9e565b61114591945060203d6020116107e2576107d38183612aca565b9238610c5e565b61116691935060203d6020116107e2576107d38183612aca565b9138610c1e565b61118791925060203d6020116107e2576107d38183612aca565b9038610bde565b6111a891935060203d6020116107e2576107d38183612aca565b9138610b9e565b6111c991925060203d6020116107e2576107d38183612aca565b9038610b5e565b346103d4576040806003193601126103d4576024356111ed6156a5565b15611399576111fb3361572a565b8015611385575b156113755760009161121e6105ee84546001600160a01b031690565b8151809163111ea8c160e21b825281600460209485935afa9081156107e9578591611358575b5084916004355b85811115611257578680f35b8451828101828152819003808252601f19916112889161127a9060200182612aca565b61128261531a565b866159bf565b61129c83600052601a602052604060002090565b55875b600881106112b75750506112b290613b4a565b61124b565b8651848101848152602081018390526112ee91906112e090829060400103858101835282612aca565b6112e8615353565b876159bf565b811561132c575b906113279161132182611312876000526016602052604060002090565b90600052602052604060002090565b55613b4a565b61129f565b959061133b6113279288613943565b61134f85600052601d602052604060002090565b559050856112f5565b61136f9150823d84116107e2576107d38183612aca565b38611244565b6004825163ea8e4eb560e01b8152fd5b50336001600160a01b036005541614611202565b60048251634ee2123760e11b8152fd5b60e0810192916000915b600783106113c057505050565b6001908251815260208091019201920191906113b3565b346103d45760203660031901126103d45761092d6004356115316115216040519261140184612a92565b60e036853761142d61141d826000526017602052604060002090565b6001600052602052604060002090565b548452611457611447826000526017602052604060002090565b6002600052602052604060002090565b546020850152611484611474826000526017602052604060002090565b6003600052602052604060002090565b5460408501526114b16114a1826000526017602052604060002090565b6004600052602052604060002090565b5460608501526114de6114ce826000526017602052604060002090565b6005600052602052604060002090565b54608085015261150b6114fb826000526017602052604060002090565b6006600052602052604060002090565b5460a08501526000526017602052604060002090565b6007600052602052604060002090565b5460c0820152604051918291826113a9565b346103d45760003660031901126103d45760206001600160a01b0360005416604051908152f35b60409060031901126103d457600435611582816103d9565b9060243561158f816103d9565b90565b346103d4576115a03661156a565b6115a8613890565b61092d6115f36115c76115b961364e565b6115c1613666565b33615933565b6116136115dd6115d561364e565b6115c161369f565b6001600160a01b039386851693851684146136d8565b8361160b6105ee82600054166001600160a01b031690565b911614613723565b61161e811515614082565b61163b846001600160a01b03166000526012602052604060002090565b54158015611a13575b61164d906140cd565b61167561166d866001600160a01b03166000526012602052604060002090565b541515614118565b6116ab60056106e261169a886001600160a01b03166000526012602052604060002090565b546000526015602052604060002090565b6040517f880cdc310000000000000000000000000000000000000000000000000000000060208201526001600160a01b03861660248201529092906117049080604481015b03946107a1601f1996878101845283612aca565b5061172d6105ee60046106e261169a8a6001600160a01b03166000526012602052604060002090565b6119a0575b61174f866001600160a01b03166000526012602052604060002090565b5461176d866001600160a01b03166000526012602052604060002090565b556117be856117a3611792896001600160a01b03166000526012602052604060002090565b546000526013602052604060002090565b906001600160a01b03166001600160a01b0319825416179055565b6118003360046117e461169a896001600160a01b03166000526012602052604060002090565b01906001600160a01b03166001600160a01b0319825416179055565b85161415908161197b575b611828846001600160a01b03166000526012602052604060002090565b549361184360056106e2876000526015602052604060002090565b956118726105e16002611860896000526015602052604060002090565b01546000526013602052604060002090565b9315611913576107a16118dd936118916009546001600160a01b031690565b6040517fe3d1d5bf0000000000000000000000000000000000000000000000000000000060208201526001600160a01b0394851660248201529490931660448501528360648101610795565b505b6118e96001601155565b60405193849384916040919493606084019584526001600160a01b03809216602085015216910152565b61079591506107a1611975936119316009546001600160a01b031690565b6040517f9498d88b0000000000000000000000000000000000000000000000000000000060208201526001600160a01b039094166024850152929384906044820190565b506118df565b600061199a866001600160a01b03166000526012602052604060002090565b5561180b565b611a0d6119c860046106e261169a8a6001600160a01b03166000526012602052604060002090565b6040517f0399c93c000000000000000000000000000000000000000000000000000000006020820152336024820152906107a182604481015b03878101845283612aca565b50611732565b508482168114611644565b346103d45760203660031901126103d4576004356000526015602052602060ff600160406000200154166040519015158152f35b346103d45760203660031901126103d45760043560005260156020526020600360406000200154604051908152f35b346103d45760203660031901126103d457600435600052601560205260206001600160a01b0360046040600020015416604051908152f35b346103d45760003660031901126103d4576020601f54604051908152f35b346103d45760203660031901126103d457600435611af4816103d9565b6001600160a01b0390811660009081526012602090815260408083205483526015825280832060020154808452601383529281902054815193845290931690820152f35b346103d45760203660031901126103d457600435806000526015602052604060002054601360205261092d6001600160a01b0380604060002054169360156020526040600020916004600284015493015416611ba360056106e2846000526015602052604060002090565b906003611bd3611bc260016105b7876000526015602052604060002090565b946000526015602052604060002090565b01549360405197889788939160c09591989796939260e086019986526001600160a01b03938480931660208801526040870152166060850152166080830152151560a08201520152565b346103d45760203660031901126103d4576001600160a01b03600435611c42816103d9565b1660005260126020526040600020546000526015602052602060ff600160406000200154166040519015158152f35b346103d457611c7f3661156a565b90611c886156a5565b156109f157611c963361572a565b8015611d86575b156109cc5781611cb491611caf613890565b613b59565b806000526015602052611d58611d44611d52611d026001600160a01b03958660056040600020015416966040519116602082015260208152611cf581612a76565b611cfd6138cb565b615984565b6040517f654c668e0000000000000000000000000000000000000000000000000000000060208201526024810191909152600060448201529182906064820190565b03601f198101835282612aca565b836159ff565b50611d6281614021565b611d6c6001601155565b604080519182526001600160a01b03929092166020820152f35b50336001600160a01b036005541614611c9d565b346103d45760003660031901126103d4576020601454604051908152f35b346103d45760203660031901126103d4576001600160a01b03600435611ddd816103d9565b1660005260126020526020604060002054604051908152f35b346103d4576020806003193601126103d457600435611e13613890565b6001611e306105bf826105b7856000526015602052604060002090565b611e58611e50336001600160a01b03166000526012602052604060002090565b548314614163565b611e6c82600052601e602052604060002090565b918183019260ff8454611e80828216614407565b60081c166121025750600291611ead83611ea4846000526015602052604060002090565b0154151561449d565b6000815b611fd4575b505090611f23826106af956001600160a01b03611efa60056106e287611ee860009a6000526015602052604060002090565b01546000526015602052604060002090565b16611f34575b508454611f139060081c60ff1682614535565b6000526015602052604060002090565b0155805461ff001916610100179055565b611fcd90611f5560056106e287611ee8876000526015602052604060002090565b604051636f58dd0f60e11b8382015260006024820152611f899080604481015b03926107a1601f1994858101845283612aca565b506107a1611faa60056106e289611ee8896000526015602052604060002090565b91631867546560e21b604051948501528361079560248201906001602083019252565b5038611f00565b600380611fef86611ee8876000526015602052604060002090565b01548210156120fc578361202961201f84846120198a611ee8876000526015602052604060002090565b01613e95565b90549060031b1c90565b1461203e575061203890613b4a565b81611eb1565b611f239250956120f3876120d586946120bc6120a261201f8861209c6106af9f61209560009f9e8f908361208383611ee8611ee8946000526015602052604060002090565b01956000526015602052604060002090565b0154613934565b90613e95565b91846120198b611ee88b6000526015602052604060002090565b90919082549060031b91821b91600019901b1916179055565b6120ed86611ee8866000526015602052604060002090565b016144e8565b95509192611eb6565b50611eb6565b9091506121db936121a86121a26104ba95612134600261212c886000526015602052604060002090565b015415614452565b61216e8660036121688854806002612156866000526015602052604060002090565b01556000526015602052604060002090565b01613eb2565b84546001600160a01b0361219160056106e2846000526015602052604060002090565b16612275575b505460081c60ff1690565b84614535565b6121c46105ee60046106e2866000526015602052604060002090565b6121e0575b5050600052601e602052604060002090565b6106af565b61226d916107a17f1499c592000000000000000000000000000000000000000000000000000000009261225f61223d6105e161222b60046106e28b6000526015602052604060002090565b95546000526013602052604060002090565b604051958693840152602483019190916001600160a01b036020820193169052565b03601f198101845283612aca565b5038806121c9565b61229160056106e26122f9936000526015602052604060002090565b604051636f58dd0f60e11b87820152600160248201526122b5908060448101611f75565b506122d460056106e26002611ee88c6000526015602052604060002090565b604051631867546560e21b8882015260006024820152916107a1908360448101610795565b5038612197565b346103d4576040806003193601126103d45760043561231d613890565b6123396105bf60016105b7846000526015602052604060002090565b61235f6123586105ee60046106e2856000526015602052604060002090565b3314614310565b612367613904565b61092d61010061238660056106e2856000526015602052604060002090565b6124aa601f549486805193826123ed6123df6020977f02a085f20000000000000000000000000000000000000000000000000000000089820152806116f060249d8e803590840160209093929193604081019481520152565b8780825183010191016148b1565b98895192612400888c0194855190613883565b978b6124118782019a8b5190613883565b6124216060830191825190613883565b906124326080840192835190613883565b97868a8961244660a088019c8d5190613883565b9661245f61245a60c08301998a5190613883565b6152c0565b8881516126a0575b50509091508251612627575b50505080516125b6575b50805161254c575b506124938651825190613883565b6124cf575b5050505050505060e0860151906149e2565b51920151926124b96001601155565b5191825260208201929092529081906040820190565b61253f9663a9059cbb60e01b966107a19561251a610795946125106105e16124ff600f546001600160a01b031690565b9b6000526013602052604060002090565b9351905190613883565b92519889958601528401602090939291936001600160a01b0360408201951681520152565b5086388281808080612498565b6125af906125626010546001600160a01b031690565b6107a161257c6105e18a6000526013602052604060002090565b92518b5163a9059cbb60e01b888201526001600160a01b0390941689850190815260208101919091528390604001611a01565b5038612485565b612620906125cc600c546001600160a01b031690565b6107a16125e66105e18b6000526013602052604060002090565b92518c5163a9059cbb60e01b898201526001600160a01b039094168a85019081526020810191909152839060400103888101845283612aca565b503861247d565b6107a16126979361268b61265a6105e1612649600e546001600160a01b031690565b956000526013602052604060002090565b9151945194859263a9059cbb60e01b8c8501528d8401602090939291936001600160a01b0360408201951681520152565b03898101845283612aca565b50388988612473565b61270463a9059cbb60e01b946107a193612710976126dd6105e16126cc600d546001600160a01b031690565b986000526013602052604060002090565b915192519788958601528401602090939291936001600160a01b0360408201951681520152565b038a8101845283612aca565b508f8a89899288612467565b346103d45760403660031901126103d45760043560243561273b6156a5565b156109f1576127493361572a565b8015612845575b156109cc576128176106af92612764613890565b8060005260156020526127836105bf600160406000200160ff90541690565b6127a461279f60016105b7866000526015602052604060002090565b614371565b6128076127fd6127ee6127c660056106e2886000526015602052604060002090565b604051906127e08261225f60208201906000602083019252565b6127e86137b9565b90615836565b602080825183010191016137f2565b5050501515613814565b600052601e602052604060002090565b90600182019161283761283261282e855460ff1690565b1590565b6143bc565b55805460ff19166001179055565b50336001600160a01b036005541614612750565b346103d45760403660031901126103d457600435602435612878613890565b6128946105bf60016105b7856000526015602052604060002090565b6128b16105fa6105ee6105e1856000526013602052604060002090565b6128e36128cd60056106e2856000526015602052604060002090565b6128d5614208565b6128dd61363b565b91615836565b90806128f9602093848082518301019101614241565b1015612909576100166001601155565b826129e06001600160a01b03927ff526f68a00000000000000000000000000000000000000000000000000000000946129d46129b96105e16129a461299661297a61296660056106e26129e69f6000526015602052604060002090565b976040519182918983019190602083019252565b039761298e601f19998a8101845283612aca565b6127e8614250565b858082518301019101614289565b99925050506000526013602052604060002090565b6129c161364e565b90604051988994850152602484016142d4565b03908101855284612aca565b166159ff565b503880806106af565b346103d45760203660031901126103d4576020600435612a0e816103d9565b6001600160a01b03809116600052601282526040600020546000526015825260056040600020015416604051908152f35b634e487b7160e01b600052604160045260246000fd5b6060810190811067ffffffffffffffff821117612a7157604052565b612a3f565b6040810190811067ffffffffffffffff821117612a7157604052565b60e0810190811067ffffffffffffffff821117612a7157604052565b6020810190811067ffffffffffffffff821117612a7157604052565b90601f8019910116810190811067ffffffffffffffff821117612a7157604052565b604051906101e0820182811067ffffffffffffffff821117612a7157604052565b346103d4576101003660031901126103d45736604312156103d457604051612b3481612a92565b610104813682116103d4576024905b828210612b565761001684600435614fc0565b8135815260209182019101612b43565b346103d45760403660031901126103d457600435600052601660205260406000206024356000526020526020604060002054604051908152f35b346103d45760203660031901126103d45760043560005260156020526020600260406000200154604051908152f35b346103d45760403660031901126103d45760043560005260156020526020612c006024356003604060002001613e95565b90549060031b1c604051908152f35b346103d45760003660031901126103d45760206001600160a01b0360015416604051908152f35b346103d45760403660031901126103d457602435612c526156a5565b156109f157612c603361572a565b8015612c98575b156109cc57600090808252601c60205260408220549060043582018092116109c7578252601c602052604082205580f35b50336001600160a01b036005541614612c67565b346103d45760203660031901126103d457600435600052601d6020526020604060002054604051908152f35b346103d45760003660031901126103d4576020612d456001600160a01b0360065416604051612d0681612a76565b601381527f67657464656c656761746f72436f756e742829000000000000000000000000008482015260405191612d3c83612aae565b600083526159bf565b604051908152f35b610100810192916000915b60088310612d6557505050565b600190825181526020809101920192019190612d58565b346103d45760203660031901126103d45761092d600435612e89611521612da1615243565b92612dc8612db9826000526016602052604060002090565b60008052602052604060002090565b548452612de261141d826000526016602052604060002090565b546020850152612dff611447826000526016602052604060002090565b546040850152612e1c611474826000526016602052604060002090565b546060850152612e396114a1826000526016602052604060002090565b546080850152612e566114ce826000526016602052604060002090565b5460a0850152612e736114fb826000526016602052604060002090565b5460c08501526000526016602052604060002090565b5460e082015260405191829182612d4d565b346103d45760203660031901126103d4576020612ec2600435612ebd816103d9565b61572a565b6040519015158152f35b346103d457612f99612edd3661156a565b90612ee6613890565b612f2f612ef46115b961364e565b612eff6115d561364e565b90612f186001600160a01b0391828088169116146136d8565b61160b6105ee82600054166001600160a01b031690565b612f5c612f5760016105b761169a856001600160a01b03166000526012602052604060002090565b61376e565b612f8a6127fd6127ee6127c660056106e261169a876001600160a01b03166000526012602052604060002090565b612f92613904565b3390613d63565b612fb2612db9601f546000526016602052604060002090565b612fbc8154613875565b9055612fc66152ec565b612fdf60056106e2836000526015602052604060002090565b90611d6281614021565b346103d45760203660031901126103d4576130026156a5565b156109f1576130103361572a565b801561304b575b156109cc576130246157b4565b601f541061303b575b610016600435601f54613950565b6130436157b4565b601f5561302d565b50336001600160a01b036005541614613017565b346103d45760203660031901126103d45760043561307b6156a5565b156109f1576001600160a01b036005541633036109cc57600090600460206130ad6105ee85546001600160a01b031690565b604051928380927f46f991ac0000000000000000000000000000000000000000000000000000000082525afa80156107e9578380848194938294839161314f575b505af16130f9615806565b5015610931577fcdcc745fe377b103b45fa0cec23ae3ef93d6fc6a84a01f0d18c40b354dd1d5d86131496131386105ee600b546001600160a01b031690565b604051938452929081906020820190565b0390a280f35b613167915060203d81116107e2576107d38183612aca565b386130ee565b346103d45760203660031901126103d457600435600052601b6020526020604060002054604051908152f35b346103d45760203660031901126103d4576004356131b6816103d9565b803b60006131c38261361f565b926131d16040519485612aca565b82845260208401903c602d8151106131f557602a602091015160601c604051908152f35b60046040517fbaf3f0f7000000000000000000000000000000000000000000000000000000008152fd5b60403660031901126103d457600435613236613890565b600090808252601560205261325460ff600160408520015416613fd6565b815260156020526132946001600160a01b036005604084200154166040519062a0e53360e51b60208301526024356024830152602482526107a182612a55565b50600160115580f35b346103d45760403660031901126103d457600435600052601860205260406000206024356000526020526020604060002054604051908152f35b346103d45760c03660031901126103d4576106af6004356024356132fa816103d9565b606435916133fa6133eb60843593613310613890565b61332c6105bf60016105b7876000526015602052604060002090565b61334b6123586105ee60046106e2886000526015602052604060002090565b613353613904565b61335c85615268565b61336586615294565b61337e60056106e2866000526015602052604060002090565b601f546040517fa66303040000000000000000000000000000000000000000000000000000000060208201526001600160a01b039093166024840152604480359084015260648301889052608483019690965260a480359083015260c48201959095528060e481016116f0565b6020808251830101910161435b565b9281613408575b5050614d04565b61344e916107a161079592613425600b546001600160a01b031690565b60405163a9059cbb60e01b60208201523360248201526044810194909452929384906064820190565b503880613401565b346103d4576020806003193601126103d45761092d9060043590613479826103d9565b6134dd6001600160a01b03928360065416936040519116838201528281526134a081612a76565b6040516134ac81612a76565b601881527f697364656c656761746f724e6f64652861646472657373290000000000000000848201526000946158f1565b919080613517575b6134fe575b505060405190151581529081906020820190565b6135109250808251830101910161568d565b38806134ea565b50808251146134e5565b346103d45760003660031901126103d4576020612ec26156a5565b346103d45760203660031901126103d457600435600052601a6020526020604060002054604051908152f35b346103d45760203660031901126103d457600435600052601c6020526020604060002054604051908152f35b346103d4576040806003193601126103d4576001600160a01b036004356135ba816103d9565b166000818152601260208181528483205483526019815284832054938352908152838220548252601881528382206024358352815290839020549251918252810191909152604090f35b346103d45760003660031901126103d4576020612d456157b4565b67ffffffffffffffff8111612a7157601f01601f191660200190565b6040519061364882612aae565b60008252565b60405161365a81612aae565b60008152906000368137565b6040519061367382612a76565b600782527f6f776e65722829000000000000000000000000000000000000000000000000006020830152565b604051906136ac82612a76565b600c82527f67657448657862617365282900000000000000000000000000000000000000006020830152565b156136df57565b606460405162461bcd60e51b815260206004820152601760248201527f6e65737465642e696e76616c69642e696e7374616e63650000000000000000006044820152fd5b1561372a57565b606460405162461bcd60e51b815260206004820152601660248201527f6e65737465642e696e76616c69642e68657862617365000000000000000000006044820152fd5b1561377557565b606460405162461bcd60e51b815260206004820152601860248201527f6e65737465642e706172656e742e6e6f742e65786973747300000000000000006044820152fd5b604051906137c682612a76565b601282527f6765744e6f64654c422875696e743235362900000000000000000000000000006020830152565b91908260809103126103d4578151916020810151916060604083015192015190565b1561381b57565b606460405162461bcd60e51b815260206004820152601960248201527f6e65737465642e706172656e742e6e6f2e627573696e657373000000000000006044820152fd5b634e487b7160e01b600052601160045260246000fd5b90600182018092116109c757565b919082018092116109c757565b6002601154146138a1576002601155565b60046040517f3ee5aeb5000000000000000000000000000000000000000000000000000000008152fd5b604051906138d882612a76565b601d82527f55736572546f5769746864726177446f6c6c61722861646472657373290000006020830152565b61390c6157b4565b601f5410613924575b6139226002601f54613950565b565b61392c6157b4565b601f55613915565b6000198101919082116109c757565b919082039182116109c757565b90613968612db9836000526016602052604060002090565b541580613af5575b80613aec575b61397e575050565b61399a9061399461398e84613934565b91613934565b90613950565b6139b9612db96139a983613934565b6000526016602052604060002090565b546139d1612db9836000526016602052604060002090565b556139e161141d6139a983613934565b546139f961141d836000526016602052604060002090565b55613a096114476139a983613934565b54613a21611447836000526016602052604060002090565b55613a316114746139a983613934565b54613a49611474836000526016602052604060002090565b55613a596114a16139a983613934565b54613a716114a1836000526016602052604060002090565b55613a816114ce6139a983613934565b54613a996114ce836000526016602052604060002090565b55613aa96114fb6139a983613934565b54613ac16114fb836000526016602052604060002090565b55613ae9611521613ad76115216139a985613934565b54926000526016602052604060002090565b55565b50801515613976565b5060018211613970565b15613b0657565b606460405162461bcd60e51b815260206004820152601560248201527f6e65737465642e616c72656164792e65786973747300000000000000000000006044820152fd5b60001981146109c75760010190565b90613b8a613b8561282e60016105b761169a866001600160a01b03166000526012602052604060002090565b613aff565b613b9d613b98601454613b4a565b601455565b613bf460145492613bbc836117a3866000526013602052604060002090565b83613bda846001600160a01b03166000526012602052604060002090565b556001600160a01b03166000526012602052604060002090565b5490613c008383613eda565b613c2a6004613c19856000526015602052604060002090565b016001600160a01b03198154169055565b613c5d613c47613c426008546001600160a01b031690565b613dff565b60056117e4866000526015602052604060002090565b613ce0613c7960056106e2866000526015602052604060002090565b91613c8f6105ee6000546001600160a01b031690565b6040517f52902c590000000000000000000000000000000000000000000000000000000060208201526001600160a01b03918216602482015291166044820152606481018590528060848101611f75565b5081151580613d39575b613cf357505090565b613d0f60056106e2613d35946000526015602052604060002090565b604051636f58dd0f60e11b602082015260016024820152916107a1908360448101610795565b5090565b506001600160a01b03613d5b60056106e2856000526015602052604060002090565b161515613cea565b91613d8f613b8561282e60016105b761169a866001600160a01b03166000526012602052604060002090565b613d9d613b98601454613b4a565b613c2a613ddd60145494613dbf846117a3886000526013602052604060002090565b85613bda856001600160a01b03166000526012602052604060002090565b5492613de98585613eda565b60046117e4866000526015602052604060002090565b6e5af43d82803e903d91602b57fd5bf390763d602d80600a3d3981f3363d3d373d3d3d363d7300000062ffffff8260881c161760005260781b17602052603760096000f0906001600160a01b03821615613e5557565b60046040517fb06ebf3d000000000000000000000000000000000000000000000000000000008152fd5b634e487b7160e01b600052603260045260246000fd5b8054821015613ead5760005260206000200190600090565b613e7f565b9081549168010000000000000000831015612a7157826120bc91600161392295018155613e95565b91909160009280845260209160158352604080862095600294838689015584600198613f0f8a8201600160ff19825416179055565b5587613f25866000526018602052604060002090565b83805282528489858520555b613f4057505050505050509050565b613fae613f9d828b8a9414613fb7575b613f64886000526018602052604060002090565b8187528552868620613f768154613875565b9055613f8c886000526019602052604060002090565b613f968154613875565b9055613b4a565b956000526015602052604060002090565b01549384613f31565b613fd18960036121688b6000526015602052604060002090565b613f50565b15613fdd57565b606460405162461bcd60e51b815260206004820152601560248201527f6e65737465642e757365722e6e6f7461637469766500000000000000000000006044820152fd5b80600052601560205261403e60ff60016040600020015416613fd6565b600052601560205261407f6001600160a01b03600560406000200154166040519062a0e53360e51b602083015260016024830152602482526107a182612a55565b50565b1561408957565b606460405162461bcd60e51b815260206004820152601360248201527f6e65737465642e7a65726f2e61646472657373000000000000000000000000006044820152fd5b156140d457565b606460405162461bcd60e51b815260206004820152601460248201527f6e65737465642e7461726765742e6578697374730000000000000000000000006044820152fd5b1561411f57565b606460405162461bcd60e51b815260206004820152601760248201527f6e65737465642e736f757263652e6e6f744578697374730000000000000000006044820152fd5b1561416a57565b606460405162461bcd60e51b815260206004820152601560248201527f6e65737465642e696e76616c69642e73656e64657200000000000000000000006044820152fd5b908160209103126103d4575161158f816103d9565b6040513d6000823e3d90fd5b604051906141dc82612a76565b601382527f55736572546f496e7374286164647265737329000000000000000000000000006020830152565b6040519061421582612a76565b600b82527f6d696e74436f756e7428290000000000000000000000000000000000000000006020830152565b908160209103126103d4575190565b6040519061425d82612a76565b600e82527f6d696e74732875696e74323536290000000000000000000000000000000000006020830152565b91908260809103126103d4578151916020810151916060604083015192015161158f816103d9565b60005b8381106142c45750506000910152565b81810151838201526020016142b4565b90916001600160a01b036060931682526040602083015261430481518092816040860152602086860191016142b1565b601f01601f1916010190565b1561431757565b606460405162461bcd60e51b815260206004820152601b60248201527f6e65737465642e757365722e696e76616c6964696e7374616e636500000000006044820152fd5b91908260409103126103d4576020825192015190565b1561437857565b606460405162461bcd60e51b815260206004820152601560248201527f6e65737465642e696e76616c69642e706172656e7400000000000000000000006044820152fd5b156143c357565b606460405162461bcd60e51b815260206004820152601760248201527f6e65737465642e7265712e616c726561647965786973740000000000000000006044820152fd5b1561440e57565b606460405162461bcd60e51b815260206004820152601460248201527f6e65737465642e7265712e6e6f746578697374730000000000000000000000006044820152fd5b1561445957565b606460405162461bcd60e51b815260206004820152601860248201527f6e65737465642e757365722e6e6f742e646574616368656400000000000000006044820152fd5b156144a457565b606460405162461bcd60e51b815260206004820152601c60248201527f6e65737465642e757365722e616c72656164792e6465746163686564000000006044820152fd5b805490811561451257600019918201916145028383613e95565b909182549160031b1b1916905555565b634e487b7160e01b600052603160045260246000fd5b80156109c7576000190190565b9061455361454d836000526019602052604060002090565b54613875565b916002908161456c826000526015602052604060002090565b0154906001938492835b614584575b50505050505050565b600f80851115806148a8575b156148a257859060056145b46105ee826106e2876000526015602052604060002090565b6145e1575b50506145d26145da926000526015602052604060002090565b015493613b4a565b9285614576565b865b828111156146dc575050506145d26145da92846000146146795761462b614614876000526018602052604060002090565b61461d89613934565b600052602052604060002090565b5461464f61464789611312856000526018602052604060002090565b918254613883565b9055614665816000526019602052604060002090565b6146708b8254613883565b90555b926145b9565b614690614614876000526018602052604060002090565b546146b46146ac89611312856000526018602052604060002090565b918254613943565b90556146ca816000526019602052604060002090565b6146d58b8254613943565b9055614673565b909192506146f8826106e2886000526015602052604060002090565b6147028883613943565b604091876147446147368551806147226020978883019190602083019252565b03946127e0601f1996878101845283612aca565b8480825183010191016137f2565b50509290878a82158061489a575b61488957926147da949261079561477f6107a1946106e26147e79b9a986000526015602052604060002090565b94601f9a8c8c5491519889957f7b058ac1000000000000000000000000000000000000000000000000000000008d8801526024870193909594919260809360a086019786526020860152604085015260608401521515910152565b805181018201910161435b565b90871561483f575b80821161480c57505050614803905b613b4a565b908792916145e3565b61481590613b4a565b61482e8161131285546000526016602052604060002090565b6148388154613875565b90556147ef565b9190915b8281116148565750505061480390613b4a565b806148736148849261131285546000526016602052604060002090565b61487d8154613934565b9055614528565b614843565b505050505050505061480390613b4a565b508515614752565b5061457b565b50811515614590565b9061012080838303126103d45781601f840112156103d4576040519281840184811067ffffffffffffffff821117612a7157604052839181019283116103d457905b8282106149005750505090565b81518152602091820191016148f3565b6040519061491d82612a76565b600f82527f66726565496e74657276616c73282900000000000000000000000000000000006020830152565b6040519061495682612a76565b601582527f67657452616e6b5769746841676556616c7565282900000000000000000000006020830152565b6040519061498f82612a76565b601382527f72616e6b436c617573652875696e7432353629000000000000000000000000006020830152565b908160a09103126103d4578051916020820151916040810151916080606083015192015190565b919091600392614a136149fc85546001600160a01b031690565b614a0461364e565b90614a0d614910565b906159bf565b9360008092819082948392849185985b600f8a111580614cfb575b15614ced576005614a506105ee826106e2856000526015602052604060002090565b614a7d575b506002614a6f614a77926000526015602052604060002090565b015499613b4a565b98614a23565b8c614aa1614a99836106e2866000526015602052604060002090565b6128d5614949565b8c614ab660209283808251830101910161435b565b829591951580614c84575b1580614c7b575b8015614c73575b614ade575b5050505050614a55565b869e8697929394959603614bb2575b50614b6f928b6107a18c61225f614b19614b7599976106e2614b62986000526015602052604060002090565b93601f9a8b5460405197889563208bffb160e21b8c8801526024870193909594919260a09360c08601978652600060208701526040860152606085015260808401521515910152565b8051810182019101614241565b92613875565b80831015614b9057509098905060028c614a778c3880614ad4565b80613f8c614bad9261131285546000526016602052604060002090565b614b75565b9193929a50508a8511614c05575b509087918c86861080801591614bdc575b50159a929193614aed565b89881015915081614bfd575b5080614bf5575b38614bd1565b508815614bef565b905038614be8565b995095509350859250614c54614c46614c258b546001600160a01b031690565b60405190614c3e8261225f888c83019190602083019252565b6127e8614982565b8680825183010191016149bb565b969350909691509594614c6a859b601f54613943565b11969091614bc0565b506000614acf565b508a1515614ac8565b99509b50955095509a50614ccd614cbf838d614c3e614caa8f546001600160a01b031690565b6040519283019384529192839060200161225f565b8c80825183010191016149bb565b9e9350909791509695849b859e614ce682601f54613943565b1199614ac1565b505050505050505050509050565b50801515614a2e565b90929192614d1d6149fc6003546001600160a01b031690565b93600091829083809481938280985b600f8a111580614fb7575b15614ced57614d586105ee60056106e2846000526015602052604060002090565b614d7c575b6002614a6f614d76926000526015602052604060002090565b98614d2c565b8b8a614d9d6133eb614a9960056106e2876000526015602052604060002090565b8293919315614f5a575b82151580614f51575b8015614f48575b614dc5575b50505050614d5d565b938394819d8d949503614e92575b50614e5992614b6f926107a18c61225f8f614e0060056106e2614e4a996000526015602052604060002090565b94601f9a8b549060405198899663208bffb160e21b60208901526024880194919260a0949197969360c0870198875260208701526040860152606085015260808401521515910152565b60208082518301019101614241565b80831015614e7057509098905060028a8d38614dbc565b80613f8c614e8d9261131285546000526016602052604060002090565b614e59565b935050509750828211614ee4575b50898c878b86851080801591614ebb575b50159a9291614dd3565b89871015915081614edc575b5080614ed4575b38614eb1565b508815614ece565b905038614ec7565b935093505050614f2b614f1c614f026003546001600160a01b031690565b60405190614c3e8261225f88602083019190602083019252565b602080825183010191016149bb565b9350909391509291614f408592601f54613943565b119338614ea0565b508b1515614db7565b50891515614db0565b97505050935097505050614f96614f1c614f7c6003546001600160a01b031690565b60405190614c3e8261225f87602083019190602083019252565b999350909391509291818a8d829b614fb089601f54613943565b1197614da7565b50801515614d37565b614fc86156a5565b156109f157614fd63361572a565b80156150d9575b156109cc57614fea613904565b614ff58115156150ed565b61501261500a6003546001600160a01b031690565b6128d5615138565b615026602091828082518301019101615171565b9261503b83600052601a602052604060002090565b549160005b6007811061505057505050505050565b8061505e6150cc92856151ee565b51156147fe5761506e81886151ee565b518051908482156150d1576150956150a69161508d6150ac958b615210565b9301516151ff565b61509f85896151ee565b5190615210565b90615223565b6113216150c3886000526017602052604060002090565b61461d84613875565b615040565b505050613b4a565b50336001600160a01b036005541614614fdd565b156150f457565b606460405162461bcd60e51b815260206004820152601260248201527f6e65737465642e696e76616c69642e61676500000000000000000000000000006044820152fd5b6040519061514582612a76565b601882527f6765744261746368526f79616c7479436c6175736573282900000000000000006020830152565b6102a09081818403126103d45782601f820112156103d457604080519361519785612a92565b84938301928184116103d457935b8385106151b457505050505090565b6060858303126103d45782516060916151cc82612a55565b86518252602091828801518382015285880151868201528152019401936151a5565b906007811015613ead5760051b0190565b90816064029160648304036109c757565b818102929181159184041417156109c757565b811561522d570490565b634e487b7160e01b600052601260045260246000fd5b6040519061010080830183811067ffffffffffffffff821117612a7157604052368337565b601f5480600052601a6020526040600020549182018092116109c757600052601a602052604060002055565b601f5480600052601b6020526040600020549182018092116109c757600052601b602052604060002055565b601f5480600052601c6020526040600020549182018092116109c757600052601c602052604060002055565b601f5480600052601d60205260406000205490600182018092116109c757600052601d602052604060002055565b6040519061532782612a76565b601482527f676574627573696e6573732875696e74323536290000000000000000000000006020830152565b6040519061536082612a76565b601d82527f67657472616e6b436f756e742875696e743235362c75696e74323536290000006020830152565b6156716101c0613922926153c66153aa82516001600160a01b031690565b6001600160a01b03166001600160a01b03196002541617600255565b6153f96153dd60208301516001600160a01b031690565b6001600160a01b03166001600160a01b03196003541617600355565b61542c61541060408301516001600160a01b031690565b6001600160a01b03166001600160a01b03196004541617600455565b61545f61544360608301516001600160a01b031690565b6001600160a01b03166001600160a01b03196005541617600555565b61549261547660808301516001600160a01b031690565b6001600160a01b03166001600160a01b03196006541617600655565b6154c56154a960a08301516001600160a01b031690565b6001600160a01b03166001600160a01b03196007541617600755565b6154f86154dc60c08301516001600160a01b031690565b6001600160a01b03166001600160a01b03196008541617600855565b61552b61550f60e08301516001600160a01b031690565b6001600160a01b03166001600160a01b03196009541617600955565b61555f6155436101008301516001600160a01b031690565b6001600160a01b03166001600160a01b0319600a541617600a55565b6155936155776101208301516001600160a01b031690565b6001600160a01b03166001600160a01b0319600b541617600b55565b6155c76155ab6101408301516001600160a01b031690565b6001600160a01b03166001600160a01b0319600c541617600c55565b6155fb6155df6101608301516001600160a01b031690565b6001600160a01b03166001600160a01b0319600d541617600d55565b61562f6156136101808301516001600160a01b031690565b6001600160a01b03166001600160a01b0319600e541617600e55565b6156636156476101a08301516001600160a01b031690565b6001600160a01b03166001600160a01b0319600f541617600f55565b01516001600160a01b031690565b6001600160a01b03166001600160a01b03196010541617601055565b908160209103126103d4575180151581036103d45790565b6157006001600160a01b03600254166040516156c081612a76565b600881527f69735361666528290000000000000000000000000000000000000000000000006020820152604051916156f783612aae565b600083526158f1565b908061571f575b15610931578060208061158f9351830101910161568d565b506020815114615707565b61578d6001600160a01b03806002541660405191602094168483015283825261575282612a76565b6040519061575f82612a76565b601582527f6973536563757265426173652861646472657373290000000000000000000000858301526158f1565b90806157aa575b15610931578161158f928251830101910161568d565b5081815114615794565b61158f6001600160a01b03600354166040516157cf81612a76565b600681527f6941676528290000000000000000000000000000000000000000000000000000602082015260405191612d3c83612aae565b3d15615831573d906158178261361f565b916158256040519384612aca565b82523d6000602084013e565b606090565b9061584192916158f1565b906000901561584e575090565b604051915061585c82612aae565b815290565b732b835614fcaa301ddfb6e49896e898e272a67795803b156158d8576000926001600160e01b031983602086955191012016906158c860246040518093602082019586526158b881518092602086860191016142b1565b8101036004810184520182612aca565b51915afa6158d4615806565b9091565b5050506000906040516158ea81612aae565b6000815290565b803b156158d8576000926001600160e01b031983602086955191012016906158c860246040518093602082019586526158b881518092602086860191016142b1565b9291615941916000946158f1565b9080615979575b61594f5750565b9091506020818051810103126103d45760206001600160a01b03910151615975816103d9565b1690565b506020815114615948565b6000929161599191615861565b90806159b4575b61599f5750565b61158f91925060208082518301019101614241565b506020815114615998565b9291615991916000946158f1565b90602082519201516001600160e01b03199081811693600481106159f057505050565b60040360031b82901b16169150565b6001600160a01b03811615615a9a57600080918351908260208601915af190615a26615806565b9115615a30575090565b805160009190600411615a9457615a4791506159cd565b815115615a575750805190602001fd5b6040517f21c09d340000000000000000000000000000000000000000000000000000000081526001600160e01b0319919091166004820152602490fd5b50615a47565b60046040517fe6c4247b000000000000000000000000000000000000000000000000000000008152fdfea26469706673582212206a44624c9baf37ea8a795f4b81d9837ad1517849ecc7f4969d4d66376c706e3364736f6c63430008140033","linkReferences":{}},"methodIdentifiers":{"dAOAssembly()":"14837455","daocore()":"14d8d024","nested741()":"45cff900","old741()":"5540c5ac","price()":"a035b1fe"},"id":80}