{"abi":[{"type":"constructor","inputs":[{"name":"_hex","type":"address","internalType":"address"},{"name":"_price","type":"address","internalType":"address"},{"name":"_old741","type":"address","internalType":"address"}],"stateMutability":"nonpayable"},{"type":"function","name":"dAOAssembly","inputs":[],"outputs":[{"name":"","type":"address","internalType":"address"}],"stateMutability":"view"},{"type":"function","name":"daocore","inputs":[],"outputs":[{"name":"","type":"address","internalType":"address"}],"stateMutability":"view"},{"type":"function","name":"nested741","inputs":[],"outputs":[{"name":"","type":"address","internalType":"address"}],"stateMutability":"view"},{"type":"function","name":"old741","inputs":[],"outputs":[{"name":"","type":"address","internalType":"address"}],"stateMutability":"view"},{"type":"function","name":"price","inputs":[],"outputs":[{"name":"","type":"address","internalType":"address"}],"stateMutability":"view"}],"bytecode":{"object":"0x6080346101b757601f619e8938819003918201601f19168301926001600160401b03929091838511838610176101a15781606092849260409788528339810103126101b75761004d816101bc565b6100648461005d602085016101bc565b93016101bc565b9160018060a01b03199273c0cee8b561cc4f60869776ca5b0b7a295e04f5af84600154161760015585516118d49586820196828810828911176101a15761032583396001600160a01b039485168088526000979092908190036020019088f080156101835785168660035416176003558751615c0a808201908282108483111761018d57602091839161427f833985815203019088f08015610183578516866002541617600255875191612686808401928484109084111761016f57918391602093611bf98439815203019086f080156101655790838092168560045416176004551683600154161760015516908254161790555161015490816101d18239f35b86513d87823e3d90fd5b634e487b7160e01b89526041600452602489fd5b88513d89823e3d90fd5b634e487b7160e01b8a52604160045260248afd5b634e487b7160e01b600052604160045260246000fd5b600080fd5b51906001600160a01b03821682036101b75756fe608080604052600436101561001357600080fd5b600090813560e01c90816314837455146100f55750806314d8d024146100ce57806345cff900146100a75780635540c5ac146100805763a035b1fe1461005857600080fd5b3461007d578060031936011261007d576001600160a01b036020915416604051908152f35b80fd5b503461007d578060031936011261007d5760206001600160a01b0360015416604051908152f35b503461007d578060031936011261007d5760206001600160a01b0360025416604051908152f35b503461007d578060031936011261007d5760206001600160a01b0360045416604051908152f35b90503461011a578160031936011261011a576020906001600160a01b03600354168152f35b5080fdfea26469706673582212209ac41d88bea13f5286f348c8dd36a93c33762def87f2960af63d82dd26afa97d64736f6c6343000814003360803461009757601f6118d438819003918201601f19168301916001600160401b0383118484101761009c5780849260209460405283398101031261009757516001600160a01b038116908190036100975780156100855760018060a01b0319338160015416176001556000541617600055600060125560405161182190816100b38239f35b60405163e6c4247b60e01b8152600490fd5b600080fd5b634e487b7160e01b600052604160045260246000fdfe60806040526004361015610018575b361561001657005b005b60003560e01c806312065fe0146101185780631f185d161461011357806325924f341461010e578063339459a6146101095780633b9b79551461010457806361b7fbd9146100ff5780638da5cb5b146100fa578063a1f7f539146100f5578063af484526146100f0578063b90306ad146100eb578063c54e44b0146100e6578063c89b84fd146100e1578063dbac26e9146100dc578063e01ad5fd146100d7578063e0a9bc2b146100d25763fdc10bc90361000e57610f40565b610ea7565b610e27565b610de4565b610cb6565b610c30565b610b2f565b610ab0565b610a3b565b610a14565b61095d565b61092c565b610266565b610235565b61014a565b3461013457600036600319011261013457602047604051908152f35b600080fd5b6001600160a01b0381160361013457565b3461013457602080600319360112610134576101c960043561016b81610139565b6001600160a01b0380600254169060405192168483015283825261018e82610f71565b6040519061019b82610f71565b601182527f69735369676e657228616464726573732900000000000000000000000000000085830152611672565b91908061022b575b156102015781816101eb926101fd945183010191016115db565b60405190151581529081906020820190565b0390f35b60046040517f3204506f000000000000000000000000000000000000000000000000000000008152fd5b50808251146101d1565b3461013457602036600319011261013457602061025c60043561025781610139565b611128565b6040519015158152f35b346101345760003660031901126101345761029861028c6000546001600160a01b031690565b6001600160a01b031690565b604051907f97f3815a000000000000000000000000000000000000000000000000000000008252602082600481845afa91821561075c5760009261090b575b506040519163cfbffe5360e01b8352602083600481855afa92831561075c576000936108ea575b506040519063ab6e844f60e01b8252602082600481865afa91821561075c576000926108c9575b50604051917f14d8d024000000000000000000000000000000000000000000000000000000008352602083600481875afa92831561075c576000936108a8575b50604051927fd1f956b1000000000000000000000000000000000000000000000000000000008452602084600481885afa93841561075c57600094610887575b50604051937fe61dfd58000000000000000000000000000000000000000000000000000000008552602085600481895afa94851561075c57600095610866575b506040517fe09d394d0000000000000000000000000000000000000000000000000000000081526020816004818a5afa90811561075c57600091610847575b506040517f52b06d640000000000000000000000000000000000000000000000000000000081526020816004818b5afa90811561075c57600091610828575b506040517f013cf08b00000000000000000000000000000000000000000000000000000000815260006004820152916020836024818c5afa92831561075c57600093610807575b50604051977f5e09dbe70000000000000000000000000000000000000000000000000000000089526020896004818d5afa94851561075c576004996000966107e6575b5060208b6040519b8c80927faa0ddc160000000000000000000000000000000000000000000000000000000082525afa96871561075c5760049a6000986107c5575b5060208c6040519c8d80927f640274270000000000000000000000000000000000000000000000000000000082525afa98891561075c5760049b60009a6107a4575b5060208d6040519d8e80927f30125cf50000000000000000000000000000000000000000000000000000000082525afa9a8b1561075c578d60049d60009d610782575b506020906040519e8f80927f24768d910000000000000000000000000000000000000000000000000000000082525afa9c8d1561075c5760009d610761575b50604051809e81907f9dc969a80000000000000000000000000000000000000000000000000000000082525a92600491602094fa9d8e1561075c5760009e61072b575b5061063f610ff4565b6001600160a01b0390911681529d8e906001600160a01b031660208201526040019061067391906001600160a01b03169052565b6001600160a01b031660608d01526001600160a01b031660808c01526001600160a01b031660a08b01526001600160a01b031660c08a01526001600160a01b031660e08901526001600160a01b03166101008801526001600160a01b03166101208701526001600160a01b03166101408601526001600160a01b03166101608501526001600160a01b03166101808401526001600160a01b03166101a08301526001600160a01b03166101c0820152610016906112d8565b61074e919e5060203d602011610755575b6107468183610fae565b810190610fd0565b9c38610636565b503d61073c565b610fe8565b61077b919d5060203d602011610755576107468183610fae565b9b386105f3565b6020919d5061079d90823d8411610755576107468183610fae565b9c906105b4565b6107be919a5060203d602011610755576107468183610fae565b9838610571565b6107df91985060203d602011610755576107468183610fae565b963861052f565b61080091965060203d602011610755576107468183610fae565b94386104ed565b61082191935060203d602011610755576107468183610fae565b91386104aa565b610841915060203d602011610755576107468183610fae565b38610463565b610860915060203d602011610755576107468183610fae565b38610424565b61088091955060203d602011610755576107468183610fae565b93386103e5565b6108a191945060203d602011610755576107468183610fae565b92386103a5565b6108c291935060203d602011610755576107468183610fae565b9138610365565b6108e391925060203d602011610755576107468183610fae565b9038610325565b61090491935060203d602011610755576107468183610fae565b91386102fe565b61092591925060203d602011610755576107468183610fae565b90386102d7565b346101345760003660031901126101345760206001600160a01b0360005416604051908152f35b8015150361013457565b346101345760403660031901126101345760043561097a81610139565b6024359061098782610953565b6001600160a01b0390816005541633036109ea57166000526011602052604060002060ff1981541660ff831515161790556000146109d85760125460001981146109d357600101601255005b6112c2565b60125480156109d35760001901601255005b60046040517fea8e4eb5000000000000000000000000000000000000000000000000000000008152fd5b346101345760003660031901126101345760206001600160a01b0360015416604051908152f35b34610134576000366003190112610134576020610aa86001600160a01b0360065416604051610a6981610f71565b601381527f67657464656c656761746f72436f756e742829000000000000000000000000008482015260405191610a9f83610f92565b600083526117ad565b604051908152f35b3461013457602080600319360112610134576101c9600435610ad181610139565b6001600160a01b03806002541690604051921684830152838252610af482610f71565b60405190610b0182610f71565b601582527f697353656375726542617365286164647265737329000000000000000000000085830152611672565b34610134576020366003190112610134576004356001600160a01b036005541633036109ea5760009060046020610b7061028c85546001600160a01b031690565b604051928380927f46f991ac0000000000000000000000000000000000000000000000000000000082525afa801561075c5783808481949382948391610c12575b505af1610bbc611642565b5015610201577fcdcc745fe377b103b45fa0cec23ae3ef93d6fc6a84a01f0d18c40b354dd1d5d8610c0c610bfb61028c600b546001600160a01b031690565b604051938452929081906020820190565b0390a280f35b610c2a915060203d8111610755576107468183610fae565b38610bb1565b3461013457602036600319011261013457600435610c4d81610139565b803b6000610c5a82611015565b92610c686040519485610fae565b82845260208401903c602d815110610c8c57602a602091015160601c604051908152f35b60046040517fbaf3f0f7000000000000000000000000000000000000000000000000000000008152fd5b3461013457600080600319360112610de157610cdc61028c82546001600160a01b031690565b906040519163cfbffe5360e01b835260208084600481855afa801561075c57610d2182916004968691610dc4575b50610d13611044565b610d1b611031565b916117ad565b926040519586809263ab6e844f60e01b82525afa90811561075c576101fd94610d919492610da1575b50610d8390610d75610d5a6115f0565b94604051958693840160209093929193604081019481520152565b03601f198101845283610fae565b610d8b611289565b906117ad565b6040519081529081906020820190565b819250610dbd90610d83923d8511610755576107468183610fae565b9190610d4a565b610ddb9150833d8511610755576107468183610fae565b38610d0a565b80fd5b34610134576020366003190112610134576001600160a01b03600435610e0981610139565b166000526011602052602060ff604060002054166040519015158152f35b3461013457602036600319011261013457602061025c600435610e4981610139565b6001600160a01b03806006541690604051921684830152838252610e6c82610f71565b60405190610e7982610f71565b601882527f697364656c656761746f724e6f6465286164647265737329000000000000000085830152611771565b3461013457600036600319011261013457610f136001600160a01b0360025416604051610ed381610f71565b600881527f6973536166652829000000000000000000000000000000000000000000000000602082015260405191610f0a83610f92565b60008352611672565b9080610f35575b15610201576101eb816020806101fd945183010191016115db565b506020815114610f1a565b34610134576000366003190112610134576020610aa86115f0565b634e487b7160e01b600052604160045260246000fd5b6040810190811067ffffffffffffffff821117610f8d57604052565b610f5b565b6020810190811067ffffffffffffffff821117610f8d57604052565b90601f8019910116810190811067ffffffffffffffff821117610f8d57604052565b908160209103126101345751610fe581610139565b90565b6040513d6000823e3d90fd5b604051906101e0820182811067ffffffffffffffff821117610f8d57604052565b67ffffffffffffffff8111610f8d57601f01601f191660200190565b6040519061103e82610f92565b60008252565b6040519061105182610f71565b600c82527f72616e6b666f7244414f282900000000000000000000000000000000000000006020830152565b6040519061108a82610f71565b601682527f67657455736572546f53746f72286164647265737329000000000000000000006020830152565b604051906110c382610f71565b600682527f72616e6b282900000000000000000000000000000000000000000000000000006020830152565b604051906110fc82610f71565b600882527f69734c6f636b28290000000000000000000000000000000000000000000000006020830152565b61113d61028c6000546001600160a01b031690565b9060405163cfbffe5360e01b81526020908181600481875afa801561075c576111748391600493600091610dc45750610d13611044565b946040519283809263ab6e844f60e01b82525afa801561075c576111cd928492600092611266575b506040516001600160a01b039093169083019081526111bf908390602001610d75565b6111c761107d565b90611720565b916001600160a01b0383161561125e576112116111fa6111eb6110b6565b6111f3611031565b90866117ad565b936112036110ef565b61120b611031565b91611771565b9210159182611255575b5081611225575090565b610fe5915061124a611251916001600160a01b03166000526011602052604060002090565b5460ff1690565b1590565b1591503861121b565b505050600090565b819250611282906111bf923d8511610755576107468183610fae565b919061119c565b6040519061129682610f71565b601d82527f67657472616e6b636f756e742875696e743235362c75696e74323536290000006020830152565b634e487b7160e01b600052601160045260246000fd5b6115bd6101c06115d9926113126112f682516001600160a01b031690565b6001600160a01b03166001600160a01b03196002541617600255565b61134561132960208301516001600160a01b031690565b6001600160a01b03166001600160a01b03196003541617600355565b61137861135c60408301516001600160a01b031690565b6001600160a01b03166001600160a01b03196004541617600455565b6113ab61138f60608301516001600160a01b031690565b6001600160a01b03166001600160a01b03196005541617600555565b6113de6113c260808301516001600160a01b031690565b6001600160a01b03166001600160a01b03196006541617600655565b6114116113f560a08301516001600160a01b031690565b6001600160a01b03166001600160a01b03196007541617600755565b61144461142860c08301516001600160a01b031690565b6001600160a01b03166001600160a01b03196008541617600855565b61147761145b60e08301516001600160a01b031690565b6001600160a01b03166001600160a01b03196009541617600955565b6114ab61148f6101008301516001600160a01b031690565b6001600160a01b03166001600160a01b0319600a541617600a55565b6114df6114c36101208301516001600160a01b031690565b6001600160a01b03166001600160a01b0319600b541617600b55565b6115136114f76101408301516001600160a01b031690565b6001600160a01b03166001600160a01b0319600c541617600c55565b61154761152b6101608301516001600160a01b031690565b6001600160a01b03166001600160a01b0319600d541617600d55565b61157b61155f6101808301516001600160a01b031690565b6001600160a01b03166001600160a01b0319600e541617600e55565b6115af6115936101a08301516001600160a01b031690565b6001600160a01b03166001600160a01b0319600f541617600f55565b01516001600160a01b031690565b6001600160a01b03166001600160a01b03196010541617601055565b565b908160209103126101345751610fe581610953565b610fe56001600160a01b036003541660405161160b81610f71565b600681527f6941676528290000000000000000000000000000000000000000000000000000602082015260405191610a9f83610f92565b3d1561166d573d9061165382611015565b916116616040519384610fae565b82523d6000602084013e565b606090565b9190823b15611707577fffffffff00000000000000000000000000000000000000000000000000000000815160208093012016916040519180830193845281519160005b8381106116f35750505091816116e360248260009795968897018783820152036004810184520182610fae565b51915afa6116ef611642565b9091565b8181018301518582016024015282016116b6565b50505060009060405161171981610f92565b6000815290565b929161172e91600094611672565b9080611766575b61173c5750565b9091506020818051810103126101345760206001600160a01b0391015161176281610139565b1690565b506020815114611735565b929161177f91600094611672565b90806117a2575b61178d5750565b610fe5919250602080825183010191016115db565b506020815114611786565b92916117bb91600094611672565b90806117e0575b6117c95750565b909150602081805181010312610134576020015190565b5060208151146117c256fea2646970667358221220d3de4406d3cc6294af60b1156be638c63b1e1d3f320c8c8a2aa0d00ce545ddc364736f6c6343000814003360803461009e57601f6200268638819003918201601f19168301916001600160401b038311848410176100a35780849260209460405283398101031261009e57516001600160a01b0381169081900361009e57801561008c5760018060a01b0319338160015416176001556000541617600055603360115560036012556040516125cc9081620000ba8239f35b60405163e6c4247b60e01b8152600490fd5b600080fd5b634e487b7160e01b600052604160045260246000fdfe60806040526004361015610018575b361561001657005b005b60003560e01c8063013cf08b1461019857806312065fe0146101935780631f185d161461018e578063339459a6146101895780633b9b7955146101845780634072265b1461017f578063438596321461017a5780635c622a0e1461017557806365153c4b14610170578063709df8d91461016b5780638da5cb5b1461016657806398e527d314610161578063995e43391461015c578063a1f7f53914610157578063af48452614610152578063b90306ad1461014d578063c54e44b014610148578063c7f758a814610143578063c9d27afe1461013e578063d153356b14610139578063e01ad5fd14610134578063e0a9bc2b1461012f578063fdc10bc91461012a5763ffa734f00361000e576115e7565b61159e565b611583565b61155c565b6114bb565b61132d565b6112ad565b6111e1565b6110e0565b610ff9565b610fd6565b610f52565b610f34565b610f0d565b610ece565b610d6f565b610d19565b610cb4565b610c77565b610c50565b610558565b610527565b6104fa565b610435565b6013548110156101d857600c906013600052027f66de8ffda797e3de9c05e8fc57b3bf0ec28a930d40b0d285d93c06501cf6a0900190600090565b634e487b7160e01b600052603260045260246000fd5b90600182811c9216801561021e575b602083101461020857565b634e487b7160e01b600052602260045260246000fd5b91607f16916101fd565b9060009291805491610239836101ee565b91828252600193848116908160001461029b575060011461025b575b50505050565b90919394506000526020928360002092846000945b838610610287575050505001019038808080610255565b805485870183015294019385908201610270565b9294505050602093945060ff191683830152151560051b01019038808080610255565b634e487b7160e01b600052604160045260246000fd5b6040810190811067ffffffffffffffff8211176102f057604052565b6102be565b6020810190811067ffffffffffffffff8211176102f057604052565b90601f8019910116810190811067ffffffffffffffff8211176102f057604052565b9061034e6103479260405193848092610228565b0383610311565b565b60005b8381106103635750506000910152565b8181015183820152602001610353565b9060209161038c81518092818552858086019101610350565b601f01601f1916010190565b9b9997959392909e9d9c9a9896949e8c6101c08091528d016103b991610373565b916001600160a01b031660208d015260408c01528a810360608c01526103de91610373565b9b60808a015260a089015260c088015260e087015261010086015261012085016104089115159052565b15156101408401526001600160a01b031661016083015215156101808201526101a00161034e9115159052565b346104f55760203660031901126104f5576004356013548110156104f55761045c9061019d565b506040519061046f826103478184610228565b6104f161048660018301546001600160a01b031690565b60028301549061049860038501610333565b946004850154946005810154966006820154916007810154600a6008830154920154936040519a8b9a8b9560ff8860b81c169a60ff8960b01c169a6001600160a01b038a60101c169a60ff808c60081c169b1699610398565b0390f35b600080fd5b346104f55760003660031901126104f557602047604051908152f35b6001600160a01b038116036104f557565b346104f55760203660031901126104f557602061054e60043561054981610516565b6121ca565b6040519015158152f35b346104f55760003660031901126104f55761058a61057e6000546001600160a01b031690565b6001600160a01b031690565b604051907f97f3815a000000000000000000000000000000000000000000000000000000008252602082600481845afa918215610a8057600092610c2f575b50604051917fcfbffe53000000000000000000000000000000000000000000000000000000008352602083600481855afa928315610a8057600093610c0e575b50604051907fab6e844f000000000000000000000000000000000000000000000000000000008252602082600481865afa918215610a8057600092610bed575b50604051917f14d8d024000000000000000000000000000000000000000000000000000000008352602083600481875afa928315610a8057600093610bcc575b50604051927fd1f956b1000000000000000000000000000000000000000000000000000000008452602084600481885afa938415610a8057600094610bab575b50604051937fe61dfd58000000000000000000000000000000000000000000000000000000008552602085600481895afa948515610a8057600095610b8a575b506040517fe09d394d0000000000000000000000000000000000000000000000000000000081526020816004818a5afa908115610a8057600091610b6b575b506040517f52b06d640000000000000000000000000000000000000000000000000000000081526020816004818b5afa908115610a8057600091610b4c575b506040517f013cf08b00000000000000000000000000000000000000000000000000000000815260006004820152916020836024818c5afa928315610a8057600093610b2b575b50604051977f5e09dbe70000000000000000000000000000000000000000000000000000000089526020896004818d5afa948515610a8057600499600096610b0a575b5060208b6040519b8c80927faa0ddc160000000000000000000000000000000000000000000000000000000082525afa968715610a805760049a600098610ae9575b5060208c6040519c8d80927f640274270000000000000000000000000000000000000000000000000000000082525afa988915610a805760049b60009a610ac8575b5060208d6040519d8e80927f30125cf50000000000000000000000000000000000000000000000000000000082525afa9a8b15610a80578d60049d60009d610aa6575b506020906040519e8f80927f24768d910000000000000000000000000000000000000000000000000000000082525afa9c8d15610a805760009d610a85575b50604051809e81907f9dc969a80000000000000000000000000000000000000000000000000000000082525a92600491602094fa9d8e15610a805760009e610a4f575b50610963611df2565b6001600160a01b0390911681529d8e906001600160a01b031660208201526040019061099791906001600160a01b03169052565b6001600160a01b031660608d01526001600160a01b031660808c01526001600160a01b031660a08b01526001600160a01b031660c08a01526001600160a01b031660e08901526001600160a01b03166101008801526001600160a01b03166101208701526001600160a01b03166101408601526001600160a01b03166101608501526001600160a01b03166101808401526001600160a01b03166101a08301526001600160a01b03166101c082015261001690611e13565b610a72919e5060203d602011610a79575b610a6a8183610311565b810190611dce565b9c3861095a565b503d610a60565b611de6565b610a9f919d5060203d602011610a7957610a6a8183610311565b9b38610917565b6020919d50610ac190823d8411610a7957610a6a8183610311565b9c906108d8565b610ae2919a5060203d602011610a7957610a6a8183610311565b9838610895565b610b0391985060203d602011610a7957610a6a8183610311565b9638610853565b610b2491965060203d602011610a7957610a6a8183610311565b9438610811565b610b4591935060203d602011610a7957610a6a8183610311565b91386107ce565b610b65915060203d602011610a7957610a6a8183610311565b38610787565b610b84915060203d602011610a7957610a6a8183610311565b38610748565b610ba491955060203d602011610a7957610a6a8183610311565b9338610709565b610bc591945060203d602011610a7957610a6a8183610311565b92386106c9565b610be691935060203d602011610a7957610a6a8183610311565b9138610689565b610c0791925060203d602011610a7957610a6a8183610311565b9038610649565b610c2891935060203d602011610a7957610a6a8183610311565b9138610609565b610c4991925060203d602011610a7957610a6a8183610311565b90386105c9565b346104f55760003660031901126104f55760206001600160a01b0360005416604051908152f35b346104f55760203660031901126104f5576004356000198101908111610caf576005610ca460209261019d565b500154604051908152f35b611982565b346104f55760403660031901126104f557600435602435610cd481610516565b6000198201918211610caf57610d0d60ff916009610cf360209561019d565b5001906001600160a01b0316600052602052604060002090565b54166040519015158152f35b346104f55760203660031901126104f5576004356000198101908111610caf57600a610d4660409261019d565b50015460ff825191818160b01c161515835260b81c1615156020820152f35b801515036104f557565b346104f55760403660031901126104f557600435602435610d8f81610d65565b610d98336121ca565b15610ea4576005610db0610dab84611a11565b61019d565b50610e74610e67600b8301610df1610dec610de8610de13385906001600160a01b0316600052602052604060002090565b5460ff1690565b1590565b611b97565b610e4f600a850154610e0960ff8260b81c1615611ab6565b610e1860ff8260081c16611a20565b610e2460ff8216611be2565b610e3b610e2f612254565b60078801541115611c2d565b60101c6001600160a01b0316331415611b4c565b336001600160a01b0316600052602052604060002090565b805460ff19166001179055565b01610e7f8154611c78565b809155601254148015610e9c575b610e9357005b61001691611d4a565b508015610e8d565b60046040517fea8e4eb5000000000000000000000000000000000000000000000000000000008152fd5b346104f55760403660031901126104f557600435602435610eee81610516565b6000198201918211610caf57610d0d60ff91600b610cf360209561019d565b346104f55760003660031901126104f55760206001600160a01b0360015416604051908152f35b346104f55760003660031901126104f5576020601354604051908152f35b346104f55760203660031901126104f5576004356000198101908111610caf57610f7b9061019d565b506004810154600682015460078301546008840154600a9094015460408051948552602085019390935291830152606082019290925260ff60b083901c81161515608083015260b89290921c909116151560a082015260c090f35b346104f55760003660031901126104f5576020610ff1612343565b604051908152f35b346104f5576020806003193601126104f55761107860043561101a81610516565b6001600160a01b0380600254169060405192168483015283825261103d826102d4565b6040519061104a826102d4565b601582527f6973536563757265426173652861646472657373290000000000000000000000858301526123c5565b9190806110d6575b156110ac57818161109a926104f194518301019101612130565b60405190151581529081906020820190565b60046040517f3204506f000000000000000000000000000000000000000000000000000000008152fd5b5080825114611080565b346104f55760203660031901126104f5576004356001600160a01b03600554163303610ea4576000906004602061112161057e85546001600160a01b031690565b604051928380927f46f991ac0000000000000000000000000000000000000000000000000000000082525afa8015610a8057838084819493829483916111c3575b505af161116d612395565b50156110ac577fcdcc745fe377b103b45fa0cec23ae3ef93d6fc6a84a01f0d18c40b354dd1d5d86111bd6111ac61057e600b546001600160a01b031690565b604051938452929081906020820190565b0390a280f35b6111db915060203d8111610a7957610a6a8183610311565b38611162565b346104f55760203660031901126104f5576004356111fe81610516565b803b600061120b82612114565b926112196040519485610311565b82845260208401903c602d81511061123d57602a602091015160601c604051908152f35b60046040517fbaf3f0f7000000000000000000000000000000000000000000000000000000008152fd5b9491909361128360a0959897949860c0885260c0880190610373565b976001600160a01b0380931660208801526040870152166060850152151560808401521515910152565b346104f55760203660031901126104f5576004356000198101908111610caf576112d69061019d565b506001600160a01b036104f1816001840154169160028401549361130861130f600a8301549260405192838092610228565b0382610311565b60405195869560ff84169460ff8560081c169460101c169287611267565b346104f55760403660031901126104f55760043560243561134d81610d65565b611356336121ca565b8015611498575b611366906119c6565b611372610dab83611a11565b50600a810190600882549361138b60ff86841c16611a20565b6113a2600784015461139b612254565b1115611a6b565b6113b260ff8660b81c1615611ab6565b6113e56009840195610e3b6113e0610de8610de1338b906001600160a01b0316600052602052604060002090565b611b01565b6000811561149257506001905b61140460ff60048601931683546119b9565b82556000906114855750611444610e676001965b61142a60ff60068801991689546119b9565b8855336001600160a01b0316600052602052604060002090565b5491015480911092831593611479575b50508161146c575b5061146357005b61001690611c87565b5460ff161590503861145c565b54101591503880611454565b610e676114449196611418565b906113f2565b506114a1612145565b801561135d57506113666114b4336122af565b905061135d565b346104f55760403660031901126104f5576114d4612145565b15611532573330036114ee57600435601155602435601255005b606460405162461bcd60e51b815260206004820152600d60248201527f64616f2e66616b652e636f7265000000000000000000000000000000000000006044820152fd5b60046040517f9dc4246e000000000000000000000000000000000000000000000000000000008152fd5b346104f55760203660031901126104f557602061054e60043561157e81610516565b6122af565b346104f55760003660031901126104f557602061054e612145565b346104f55760003660031901126104f5576020610ff1612254565b9181601f840112156104f55782359167ffffffffffffffff83116104f557602083818601950101116104f557565b346104f55760c03660031901126104f55767ffffffffffffffff6004358181116104f5576116199036906004016115b9565b909160243561162781610516565b6064358281116104f55761163f9036906004016115b9565b9160a4359461164d86610d65565b6001600160a01b0382161561183c5760135490680100000000000000008210156102f05761168260019283810160135561019d565b509581116102f05761169e8161169888546101ee565b88611866565b6000601f82116001146117c257926117099492826116f893600a9998966117a99c6000926117b7575b5050600019600383901b1c191690821b1787555b8601906001600160a01b03166001600160a01b0319825416179055565b6044356002850155600384016118ba565b61172f61172861172361171a612343565b60115490611998565b6119ab565b6064900490565b6008820155611747608435611742612254565b6119b9565b60078201550180543360101b75ffffffffffffffffffffffffffffffffffffffff0000167fffffffffffffffffffff000000000000000000000000000000000000000000ff909116176101001760ff191660ff92151592909216919091179055565b601354604051908152602090f35b0135905038806116c7565b601f198216906117d788600052602060002090565b91815b81811061182657509383600a999896936117a99c83946116f8976117099b991061180c575b505050811b0187556116db565b0135600019600384901b60f8161c191690553880806117ff565b8b830135845592850192602092830192016117da565b60046040517fe6c4247b000000000000000000000000000000000000000000000000000000008152fd5b90601f811161187457505050565b600091825260208220906020601f850160051c830194106118b0575b601f0160051c01915b8281106118a557505050565b818155600101611899565b9092508290611890565b90929167ffffffffffffffff81116102f0576118e0816118da84546101ee565b84611866565b6000601f821160011461191a578192939460009261190f575b50508160011b916000199060031b1c1916179055565b0135905038806118f9565b601f1982169461192f84600052602060002090565b91805b87811061196a575083600195969710611950575b505050811b019055565b0135600019600384901b60f8161c19169055388080611946565b90926020600181928686013581550194019101611932565b634e487b7160e01b600052601160045260246000fd5b81810292918115918404141715610caf57565b9060638201809211610caf57565b91908201809211610caf57565b156119cd57565b606460405162461bcd60e51b815260206004820152601660248201527f64616f2e6e6f6e617574682e64656c656761746f7273000000000000000000006044820152fd5b600019810191908211610caf57565b15611a2757565b606460405162461bcd60e51b815260206004820152601160248201527f64616f2e70726f702e6e6f7465786973740000000000000000000000000000006044820152fd5b15611a7257565b606460405162461bcd60e51b815260206004820152601060248201527f64616f2e766f74696e672e656e646564000000000000000000000000000000006044820152fd5b15611abd57565b606460405162461bcd60e51b815260206004820152601560248201527f64616f2e616c72656164792e636f6d706c6574656400000000000000000000006044820152fd5b15611b0857565b606460405162461bcd60e51b815260206004820152601160248201527f64616f2e616c72656164792e766f7465640000000000000000000000000000006044820152fd5b15611b5357565b606460405162461bcd60e51b815260206004820152601260248201527f64616f2e766f7465722e726573747269637400000000000000000000000000006044820152fd5b15611b9e57565b606460405162461bcd60e51b815260206004820152601260248201527f64616f2e616c72656164792e7369676e656400000000000000000000000000006044820152fd5b15611be957565b606460405162461bcd60e51b815260206004820152601360248201527f64616f2e70726f702e6d7573747369676e6564000000000000000000000000006044820152fd5b15611c3457565b606460405162461bcd60e51b815260206004820152601360248201527f64616f2e6265666f72652e646561646c696e65000000000000000000000000006044820152fd5b6000198114610caf5760010190565b610dab611c9391611a11565b5060ff600a8201611cb181600160b81b60ff60b81b19825416179055565b611ce3600484015460088501548110159081611d3c575b50825460ff60b01b191690151560b01b60ff60b01b16178255565b5460b01c1680611d27575b611cf55750565b80611d0d6001611d249301546001600160a01b031690565b611d1e600360028401549301610333565b906124e0565b50565b50611d3560038201546101ee565b1515611cee565b905060068501541038611cc8565b611d59610dab611d9f92611a11565b50600a8101805460ff60b81b1916600160b81b178155909280611dbc575b80611dab575b815460ff60b01b191690151560b01b60ff60b01b161781555460b01c60ff1690565b80611d2757611cf55750565b506004830154600684015410611d7d565b50600483015460088401541115611d77565b908160209103126104f55751611de381610516565b90565b6040513d6000823e3d90fd5b604051906101e0820182811067ffffffffffffffff8211176102f057604052565b6120f86101c061034e92611e4d611e3182516001600160a01b031690565b6001600160a01b03166001600160a01b03196002541617600255565b611e80611e6460208301516001600160a01b031690565b6001600160a01b03166001600160a01b03196003541617600355565b611eb3611e9760408301516001600160a01b031690565b6001600160a01b03166001600160a01b03196004541617600455565b611ee6611eca60608301516001600160a01b031690565b6001600160a01b03166001600160a01b03196005541617600555565b611f19611efd60808301516001600160a01b031690565b6001600160a01b03166001600160a01b03196006541617600655565b611f4c611f3060a08301516001600160a01b031690565b6001600160a01b03166001600160a01b03196007541617600755565b611f7f611f6360c08301516001600160a01b031690565b6001600160a01b03166001600160a01b03196008541617600855565b611fb2611f9660e08301516001600160a01b031690565b6001600160a01b03166001600160a01b03196009541617600955565b611fe6611fca6101008301516001600160a01b031690565b6001600160a01b03166001600160a01b0319600a541617600a55565b61201a611ffe6101208301516001600160a01b031690565b6001600160a01b03166001600160a01b0319600b541617600b55565b61204e6120326101408301516001600160a01b031690565b6001600160a01b03166001600160a01b0319600c541617600c55565b6120826120666101608301516001600160a01b031690565b6001600160a01b03166001600160a01b0319600d541617600d55565b6120b661209a6101808301516001600160a01b031690565b6001600160a01b03166001600160a01b0319600e541617600e55565b6120ea6120ce6101a08301516001600160a01b031690565b6001600160a01b03166001600160a01b0319600f541617600f55565b01516001600160a01b031690565b6001600160a01b03166001600160a01b03196010541617601055565b67ffffffffffffffff81116102f057601f01601f191660200190565b908160209103126104f55751611de381610d65565b6121a06001600160a01b0360025416604051612160816102d4565b600881527f6973536166652829000000000000000000000000000000000000000000000000602082015260405191612197836102f5565b600083526123c5565b90806121bf575b156110ac5780602080611de393518301019101612130565b5060208151146121a7565b61222d6001600160a01b0380600254166040519160209416848301528382526121f2826102d4565b604051906121ff826102d4565b601182527f69735369676e6572286164647265737329000000000000000000000000000000858301526123c5565b908061224a575b156110ac5781611de39282518301019101612130565b5081815114612234565b611de36001600160a01b036003541660405161226f816102d4565b600681527f69416765282900000000000000000000000000000000000000000000000000006020820152604051916122a6836102f5565b60008352612458565b6001600160a01b03906123168260065416926040519060209316838201528281526122d9816102d4565b6040516122e5816102d4565b601881527f697364656c656761746f724e6f64652861646472657373290000000000000000848201526000946123c5565b919080612339575b61232757505090565b611de392508082518301019101612130565b508082511461231e565b611de36001600160a01b036006541660405161235e816102d4565b601381527f67657464656c656761746f72436f756e742829000000000000000000000000006020820152604051916122a6836102f5565b3d156123c0573d906123a682612114565b916123b46040519384610311565b82523d6000602084013e565b606090565b803b1561243f576000927fffffffff00000000000000000000000000000000000000000000000000000000836020869551910120169061242f602460405180936020820195865261241f8151809260208686019101610350565b8101036004810184520182610311565b51915afa61243b612395565b9091565b505050600090604051612451816102f5565b6000815290565b9291612466916000946123c5565b908061248b575b6124745750565b9091506020818051810103126104f5576020015190565b50602081511461246d565b90602082519201517fffffffff000000000000000000000000000000000000000000000000000000009081811693600481106124d157505050565b60040360031b82901b16169150565b9190916001600160a01b0381161561183c57600091829184519160208601915af19061250a612395565b9115612514575090565b8051600091906004116125905761252b9150612496565b81511561253b5750805190602001fd5b6040517f21c09d340000000000000000000000000000000000000000000000000000000081527fffffffff00000000000000000000000000000000000000000000000000000000919091166004820152602490fd5b5061252b56fea2646970667358221220e224e0c8e894d738e38c553fcc877ffada4c9c6d6294704c326c7192077778d864736f6c634300081400336080346200009e57601f62005c0a38819003918201601f19168301916001600160401b03831184841017620000a3578084926020946040528339810103126200009e57516001600160a01b038116908190036200009e5780156200008c5760018060a01b03193381600154161760015560005416176000556001601155604051615b509081620000ba8239f35b60405163e6c4247b60e01b8152600490fd5b600080fd5b634e487b7160e01b600052604160045260246000fdfe60806040526004361015610018575b361561001657005b005b60003560e01c80629db65514610377578063033eeffb146103725780630e5fd00b1461036d57806312065fe0146103685780631bb49f02146103635780631c53c2801461035e5780631f185d16146103595780632a687c87146103545780632fefc0bf1461034f578063307673e81461034a57806332ff4eab14610345578063339459a61461034057806333b59a5b1461033b5780633a7b55b8146103365780633b9b7955146103315780633baee0ea1461032c578063419cb27b1461032757806342cc9d5714610322578063445850971461031d57806344668f23146103185780634f0f4aa914610313578063509222cd1461030e57806350db85d11461030957806361ea720814610304578063629d671e146102ff57806365d2fbd3146102fa5780636a811244146102f55780636fb412ab146102f057806376fe6c45146102eb5780637bb98498146102e657806380f85e33146102e1578063849c22ad146102dc578063896c354a146102d75780638da5cb5b146102d257806395f72f49146102cd57806398b3f215146102c8578063a1f7f539146102c3578063a89d693b146102be578063af484526146102b9578063b1c49079146102b4578063b366335e146102af578063b90306ad146102aa578063c43792e3146102a5578063c54e44b0146102a0578063c871372b1461029b578063d1e0bbc614610296578063dcb3fc4a14610291578063e01ad5fd1461028c578063e0a9bc2b14610287578063eb95c66214610282578063eb9e9e2c1461027d578063f3ca712414610278578063fd38093b146102735763fdc10bc90361000e576133f3565b613383565b613357565b613175565b613149565b61312e565b613063565b612ee4565b612eaa565b612e2c565b612da6565b612d7a565b612c79565b612bed565b612a71565b612a4a565b61292b565b612887565b61285b565b6127e5565b6127be565b61277e565b61274f565b612715565b61260b565b6125bb565b612417565b611fec565b611bcb565b611b8d565b611b6f565b611ad6565b611a82565b611995565b611977565b61193f565b611910565b6118d6565b6112b3565b611264565b6110f8565b610f19565b610821565b6107ab565b6106da565b6106a2565b61062c565b610545565b610510565b6104ab565b61048f565b61043f565b610402565b346103fd5760203660031901126103fd57610390615717565b156103ec5761039e3361579c565b80156103d8575b156103c757601f5460001981019081116103c257610016906151c1565b61371c565b600460405163ea8e4eb560e01b8152fd5b50336001600160a01b0360055416146103a5565b6004604051634ee2123760e11b8152fd5b600080fd5b346103fd5760203660031901126103fd5760043560005260196020526020604060002054604051908152f35b6001600160a01b038116036103fd57565b346103fd5760203660031901126103fd57602060043561045e8161042e565b6001600160a01b03809116600052601282526040600020546000526015825260046040600020015416604051908152f35b346103fd5760003660031901126103fd57602047604051908152f35b346103fd5760203660031901126103fd576004356104c88161042e565b6001600160a01b0390811660009081526012602090815260408083205483526015825280832060020154808452601383529281902054815193845290931690820152f35b0390f35b346103fd5760203660031901126103fd57600435600052601360205260206001600160a01b0360406000205416604051908152f35b346103fd576020806003193601126103fd576105c46004356105668161042e565b6001600160a01b0380600254169060405192168483015283825261058982613445565b6040519061059682613445565b601182527f69735369676e6572286164647265737329000000000000000000000000000000858301526158d3565b919080610622575b156105f85781816105e69261050c94518301019101615703565b60405190151581529081906020820190565b60046040517f3204506f000000000000000000000000000000000000000000000000000000008152fd5b50808251146105cc565b346103fd5760403660031901126103fd57602435610648615717565b156103ec576106563361579c565b801561068e575b156103c757600090808252601a60205260408220549060043582018092116103c2578252601a602052604082205580f35b50336001600160a01b03600554161461065d565b346103fd5760203660031901126103fd57600435600052601560205260206001600160a01b0360056040600020015416604051908152f35b346103fd5760203660031901126103fd57600435600090338252601260205261072061071b6040842054600052601560205260ff6001604060002001541690565b614181565b808252601e60205260ff600260408420015460081c16156107675761075261076491600052601e602052604060002090565b60026000918281558260018201550155565b80f35b606460405162461bcd60e51b815260206004820152601360248201527f6e65737465642e7265712e6e6f746578697374000000000000000000000000006044820152fd5b346103fd5760403660031901126103fd576024356107c7615717565b156103ec576107d53361579c565b801561080d575b156103c757600090808252601d60205260408220549060043582018092116103c2578252601d602052604082205580f35b50336001600160a01b0360055416146107dc565b346103fd5760003660031901126103fd576108536108476000546001600160a01b031690565b6001600160a01b031690565b604051907f97f3815a000000000000000000000000000000000000000000000000000000008252602082600481845afa918215610d4957600092610ef8575b50604051917fcfbffe53000000000000000000000000000000000000000000000000000000008352602083600481855afa928315610d4957600093610ed7575b50604051907fab6e844f000000000000000000000000000000000000000000000000000000008252602082600481865afa918215610d4957600092610eb6575b50604051917f14d8d024000000000000000000000000000000000000000000000000000000008352602083600481875afa928315610d4957600093610e95575b50604051927fd1f956b1000000000000000000000000000000000000000000000000000000008452602084600481885afa938415610d4957600094610e74575b50604051937fe61dfd58000000000000000000000000000000000000000000000000000000008552602085600481895afa948515610d4957600095610e53575b506040517fe09d394d0000000000000000000000000000000000000000000000000000000081526020816004818a5afa908115610d4957600091610e34575b506040517f52b06d640000000000000000000000000000000000000000000000000000000081526020816004818b5afa908115610d4957600091610e15575b506040517f013cf08b00000000000000000000000000000000000000000000000000000000815260006004820152916020836024818c5afa928315610d4957600093610df4575b50604051977f5e09dbe70000000000000000000000000000000000000000000000000000000089526020896004818d5afa948515610d4957600499600096610dd3575b5060208b6040519b8c80927faa0ddc160000000000000000000000000000000000000000000000000000000082525afa968715610d495760049a600098610db2575b5060208c6040519c8d80927f640274270000000000000000000000000000000000000000000000000000000082525afa988915610d495760049b60009a610d91575b5060208d6040519d8e80927f30125cf50000000000000000000000000000000000000000000000000000000082525afa9a8b15610d49578d60049d60009d610d6f575b506020906040519e8f80927f24768d910000000000000000000000000000000000000000000000000000000082525afa9c8d15610d495760009d610d4e575b50604051809e81907f9dc969a80000000000000000000000000000000000000000000000000000000082525a92600491602094fa9d8e15610d495760009e610d18575b50610c2c6134bb565b6001600160a01b0390911681529d8e906001600160a01b0316602082015260400190610c6091906001600160a01b03169052565b6001600160a01b031660608d01526001600160a01b031660808c01526001600160a01b031660a08b01526001600160a01b031660c08a01526001600160a01b031660e08901526001600160a01b03166101008801526001600160a01b03166101208701526001600160a01b03166101408601526001600160a01b03166101608501526001600160a01b03166101808401526001600160a01b03166101a08301526001600160a01b03166101c082015261001690615402565b610d3b919e5060203d602011610d42575b610d338183613499565b810190613a37565b9c38610c23565b503d610d29565b613a4c565b610d68919d5060203d602011610d4257610d338183613499565b9b38610be0565b6020919d50610d8a90823d8411610d4257610d338183613499565b9c90610ba1565b610dab919a5060203d602011610d4257610d338183613499565b9838610b5e565b610dcc91985060203d602011610d4257610d338183613499565b9638610b1c565b610ded91965060203d602011610d4257610d338183613499565b9438610ada565b610e0e91935060203d602011610d4257610d338183613499565b9138610a97565b610e2e915060203d602011610d4257610d338183613499565b38610a50565b610e4d915060203d602011610d4257610d338183613499565b38610a11565b610e6d91955060203d602011610d4257610d338183613499565b93386109d2565b610e8e91945060203d602011610d4257610d338183613499565b9238610992565b610eaf91935060203d602011610d4257610d338183613499565b9138610952565b610ed091925060203d602011610d4257610d338183613499565b9038610912565b610ef191935060203d602011610d4257610d338183613499565b91386108d2565b610f1291925060203d602011610d4257610d338183613499565b9038610892565b346103fd576040806003193601126103fd57602435610f36615717565b156110ba57610f443361579c565b80156110a6575b1561109657600091610f6761084784546001600160a01b031690565b8151809163111ea8c160e21b825281600460209384935afa918215610d49578592611077575b506004355b84811115610f9e578580f35b8351828101828152819003808252601f1991610fcf91610fc19060200182613499565b610fc9615390565b866159b7565b610fee610fe684600052601a602052604060002090565b918254613740565b9055865b6008811061100a57505061100590613a28565b610f92565b85518481018481526020810183905261107292916110459161103790829060400103868101835282613499565b61103f6153c9565b886159b7565b61106c8261105d876000526016602052604060002090565b90600052602052604060002090565b55613a28565b610ff2565b8161108f9293503d8411610d4257610d338183613499565b9038610f8d565b6004825163ea8e4eb560e01b8152fd5b50336001600160a01b036005541614610f4b565b60048251634ee2123760e11b8152fd5b60e0810192916000915b600783106110e157505050565b6001908251815260208091019201920191906110d4565b346103fd5760203660031901126103fd5761050c6004356112526112426040519261112284613461565b60e036853761114e61113e826000526017602052604060002090565b6001600052602052604060002090565b548452611178611168826000526017602052604060002090565b6002600052602052604060002090565b5460208501526111a5611195826000526017602052604060002090565b6003600052602052604060002090565b5460408501526111d26111c2826000526017602052604060002090565b6004600052602052604060002090565b5460608501526111ff6111ef826000526017602052604060002090565b6005600052602052604060002090565b54608085015261122c61121c826000526017602052604060002090565b6006600052602052604060002090565b5460a08501526000526017602052604060002090565b6007600052602052604060002090565b5460c0820152604051918291826110ca565b346103fd5760003660031901126103fd5760206001600160a01b0360005416604051908152f35b60409060031901126103fd576004356112a38161042e565b906024356112b08161042e565b90565b346103fd576113156112c43661128b565b91906112ce61374d565b6112e76112d961350b565b6112e1613523565b33615966565b906113356112fe6112f661350b565b6112e161355c565b6001600160a01b0386811695909485168614613595565b8361132d61084782600054166001600160a01b031690565b9116146135e0565b611340831515614067565b61135d846001600160a01b03166000526012602052604060002090565b541580156118cb575b61136f906140b2565b61139761138f826001600160a01b03166000526012602052604060002090565b5415156140fd565b6113db60056113cd6113bc846001600160a01b03166000526012602052604060002090565b546000526015602052604060002090565b01546001600160a01b031690565b9060409081516020957f880cdc3100000000000000000000000000000000000000000000000000000000878301526114456024928061142c8b8683019190916001600160a01b036020820193169052565b0396611440601f1998898101845283613499565b615a3d565b5061146e61084760046113cd6113bc876001600160a01b03166000526012602052604060002090565b156117705761050c956114e661149f60046113cd6113bc886001600160a01b03166000526012602052604060002090565b86517f0399c93c000000000000000000000000000000000000000000000000000000008b820152338682019081529091906114409083906020015b038a8101845283613499565b505b611505846001600160a01b03166000526012602052604060002090565b546115238a6001600160a01b03166000526012602052604060002090565b5561157489611559611548876001600160a01b03166000526012602052604060002090565b546000526013602052604060002090565b906001600160a01b03166001600160a01b0319825416179055565b6115b633600461159a6113bc8d6001600160a01b03166000526012602052604060002090565b01906001600160a01b03166001600160a01b0319825416179055565b83161415938461174b575b6115de886001600160a01b03166000526012602052604060002090565b54966115f960056113cd8a6000526015602052604060002090565b9861163561162860026116168c6000526015602052604060002090565b01546000526013602052604060002090565b546001600160a01b031690565b96156116e45791611440916116a67fe3d1d5bf0000000000000000000000000000000000000000000000000000000095946116b29761167c6009546001600160a01b031690565b968a5198899586015284019060209093929360408301946001600160a01b03809216845216910152565b03908101845283613499565b505b6116be6001601155565b519283526001600160a01b03938416602084015290921660408201529081906060820190565b507f9498d88b000000000000000000000000000000000000000000000000000000009291611440916116a6611745966117256009546001600160a01b031690565b95895197889485015283019190916001600160a01b036020820193169052565b506116b4565b600061176a846001600160a01b03166000526012602052604060002090565b556115c1565b600495876117896108476000546001600160a01b031690565b86519889809263111ea8c160e21b82525afa8015610d4957846117e29161050c996000916118ae575b5087516001600160a01b03909216828c019081526117d49083906020016114da565b6117dc614148565b90615966565b8181161515806118a4575b6117f8575b506114e8565b85517f4fb2e45d000000000000000000000000000000000000000000000000000000008a8201523385820190815261189d929161184a91611844908290602001038b8101835282613499565b82615a3d565b508651907fa3e884b0000000000000000000000000000000000000000000000000000000008b830152611440826114da888201906007606060808401936000815260006020820152600060408201520152565b50386117f2565b50803115156117ed565b6118c591508b3d8d11610d4257610d338183613499565b386117b2565b508082168314611366565b346103fd5760203660031901126103fd576020611906600435600052601560205260ff6001604060002001541690565b6040519015158152f35b346103fd5760203660031901126103fd5760043560005260156020526020600360406000200154604051908152f35b346103fd5760203660031901126103fd57600435600052601560205260206001600160a01b0360046040600020015416604051908152f35b346103fd5760003660031901126103fd576020601f54604051908152f35b346103fd5760203660031901126103fd57600435806000526015602052604060002054601360205261050c6001600160a01b0380604060002054169360156020526040600020916004600284015493015416611a0060056113cd846000526015602052604060002090565b906003611a38611a276001611a1f876000526015602052604060002090565b015460ff1690565b946000526015602052604060002090565b01549360405197889788939160c09591989796939260e086019986526001600160a01b03938480931660208801526040870152166060850152166080830152151560a08201520152565b346103fd5760203660031901126103fd576001600160a01b03600435611aa78161042e565b1660005260126020526040600020546000526015602052602060ff600160406000200154166040519015158152f35b346103fd57611ae43661128b565b611aec615717565b156103ec57611afa3361579c565b8015611b5b575b156103c757611b1791611b1261374d565b613a58565b8060005260156020526001600160a01b036005604060002001541690611b3c81614006565b6001601155604080519182526001600160a01b03929092166020820152f35b50336001600160a01b036005541614611b01565b346103fd5760003660031901126103fd576020601454604051908152f35b346103fd5760203660031901126103fd576001600160a01b03600435611bb28161042e565b1660005260126020526020604060002054604051908152f35b346103fd5760203660031901126103fd576004356001611c01611bfc82611a1f856000526015602052604060002090565b613fbb565b611c1582600052601e602052604060002090565b906002908183019260ff8454818160081c1680611fe3575b611c36906144cf565b60101c16611e675750611c6082611c57866000526015602052604060002090565b01541515614565565b6000815b611d3c575b505080611cd4846001600160a01b03611cac60056113cd600097611c9a6100169b6000526015602052604060002090565b01546000526015602052604060002090565b16611ce7575b8454611cc49060101c60ff16826145fd565b6000526015602052604060002090565b0155805462ff0000191662010000179055565b611d36611d0760056113cd86611c9a866000526015602052604060002090565b604051636f58dd0f60e11b6020820152600060248201529061144082604481015b03601f198101845283613499565b50611cb2565b600380611d5785611c9a896000526015602052604060002090565b0154821015611e615785611d91611d878484611d8189611c9a876000526015602052604060002090565b01613e80565b90549060031b1c90565b14611da65750611da090613a28565b81611c64565b83925094611e5786611e39611cd494611e20611e06611d876100169c611ddc60009c611c9a8b6000526015602052604060002090565b01611e0087611df98d611c9a8d6000526015602052604060002090565b0154613788565b90613e80565b9184611d818a611c9a8a6000526015602052604060002090565b90919082549060031b91821b91600019901b1916179055565b611e5185611c9a856000526015602052604060002090565b016145b0565b9450819250611c69565b50611c69565b82611f13611f0d61075296611ed9896003611ed3611f8a99611d2899611ea76100169f9d611e9f876000526015602052604060002090565b01541561451a565b019788548091611ec1866000526015602052604060002090565b01556000526015602052604060002090565b01613e9d565b83546001600160a01b03611efc60056113cd846000526015602052604060002090565b16611f9b575b505460101c60ff1690565b856145fd565b611440611f47611628611f3560046113cd896000526015602052604060002090565b93546000526013602052604060002090565b6040517f1499c5920000000000000000000000000000000000000000000000000000000060208201526001600160a01b0390911660248201529283906044820190565b50600052601e602052604060002090565b611fb760056113cd611fdc936000526015602052604060002090565b604051636f58dd0f60e11b602082015260016024820152906114408260448101611d28565b5038611f02565b50808216611c2d565b346103fd576040806003193601126103fd5760043561200961374d565b612025611bfc6001611a1f846000526015602052604060002090565b61204b61204461084760046113cd856000526015602052604060002090565b33146142dd565b6120536137ea565b61050c61010061207260056113cd856000526015602052604060002090565b6121aa601f549486805193826120ed6120df6020977f02a085f20000000000000000000000000000000000000000000000000000000089820152806120cb60249d8e803590840160209093929193604081019481520152565b0394611440601f1996878101845283613499565b87808251830101910161495c565b98895192612100888c0194855190613740565b978b6121118782019a8b5190613740565b6121216060830191825190613740565b906121326080840192835190613740565b97868a8961214660a088019c8d5190613740565b9661215f61215a60c08301998a5190613740565b615336565b8881516123a7575b5050909150825161232e575b50505080516122bd575b50805161224c575b506121938651825190613740565b6121cf575b5050505050505060e086015190614a8d565b51920151926121b96001601155565b5191825260208201929092529081906040820190565b61223f9663a9059cbb60e01b966114409561221a6116a6946122106116286121ff600f546001600160a01b031690565b9b6000526013602052604060002090565b9351905190613740565b92519889958601528401602090939291936001600160a01b0360408201951681520152565b5086388281808080612198565b6122b6906122626010546001600160a01b031690565b61144061227c6116288a6000526013602052604060002090565b92518b5163a9059cbb60e01b888201526001600160a01b039094168985019081526020810191909152839060400103878101845283613499565b5038612185565b612327906122d3600c546001600160a01b031690565b6114406122ed6116288b6000526013602052604060002090565b92518c5163a9059cbb60e01b898201526001600160a01b039094168a85019081526020810191909152839060400103888101845283613499565b503861217d565b61144061239e93612392612361611628612350600e546001600160a01b031690565b956000526013602052604060002090565b9151945194859263a9059cbb60e01b8c8501528d8401602090939291936001600160a01b0360408201951681520152565b03898101845283613499565b50388988612173565b6114da63a9059cbb60e01b946114409361240b976123e46116286123d3600d546001600160a01b031690565b986000526013602052604060002090565b915192519788958601528401602090939291936001600160a01b0360408201951681520152565b508f8a89899288612167565b346103fd5760403660031901126103fd5760043560243561243661374d565b612452611bfc6001611a1f856000526015602052604060002090565b61247661246f610847611628856000526013602052604060002090565b3314614181565b6124a861249260056113cd856000526015602052604060002090565b61249a6141cc565b6124a26134f8565b916158a8565b90806124be602093848082518301019101614205565b10156124cf575b6100166001601155565b826125ac6001600160a01b03927ff526f68a00000000000000000000000000000000000000000000000000000000946125a061258561162861257061256261254061252c60056113cd6125b29f6000526015602052604060002090565b976040519182918983019190602083019252565b0397612554601f19998a8101845283613499565b61255c614214565b906158a8565b85808251830101910161424d565b99925050506000526013602052604060002090565b61258d61350b565b90604051988994850152602484016142bd565b03908101855284613499565b16615a3d565b503880806124c5565b346103fd5760203660031901126103fd5760206004356125da8161042e565b6001600160a01b03809116600052601282526040600020546000526015825260056040600020015416604051908152f35b346103fd576040806003193601126103fd5760043590612629615717565b15612705576126373361579c565b80156126f1575b156126e15761076490600092808452601560205261266460ff6001848720015416613fbb565b8352601e60205260026126cd6126be611d288487209461268b60243560018801541461433e565b6126b66126a06005546001600160a01b031690565b9187549051938491602083019190602083019252565b61255c614468565b602080825183010191016144ae565b5091019060ff801983541691151516179055565b6004905163ea8e4eb560e01b8152fd5b50336001600160a01b03600554161461263e565b60049051634ee2123760e11b8152fd5b346103fd5760403660031901126103fd57600435600052601660205260406000206024356000526020526020604060002054604051908152f35b346103fd5760203660031901126103fd5760043560005260156020526020600260406000200154604051908152f35b346103fd5760403660031901126103fd57600435600052601560205260206127af6024356003604060002001613e80565b90549060031b1c604051908152f35b346103fd5760003660031901126103fd5760206001600160a01b0360015416604051908152f35b346103fd5760403660031901126103fd57602435612801615717565b156103ec5761280f3361579c565b8015612847575b156103c757600090808252601c60205260408220549060043582018092116103c2578252601c602052604082205580f35b50336001600160a01b036005541614612816565b346103fd5760203660031901126103fd57600435600052601d6020526020604060002054604051908152f35b346103fd5760003660031901126103fd5760206128f46001600160a01b03600654166040516128b581613445565b601381527f67657464656c656761746f72436f756e7428290000000000000000000000000084820152604051916128eb8361347d565b600083526159b7565b604051908152f35b610100810192916000915b6008831061291457505050565b600190825181526020809101920192019190612907565b346103fd5760203660031901126103fd5761050c600435612a386112426129506152b9565b92612977612968826000526016602052604060002090565b60008052602052604060002090565b54845261299161113e826000526016602052604060002090565b5460208501526129ae611168826000526016602052604060002090565b5460408501526129cb611195826000526016602052604060002090565b5460608501526129e86111c2826000526016602052604060002090565b546080850152612a056111ef826000526016602052604060002090565b5460a0850152612a2261121c826000526016602052604060002090565b5460c08501526000526016602052604060002090565b5460e0820152604051918291826128fc565b346103fd5760203660031901126103fd576020611906600435612a6c8161042e565b61579c565b346103fd57612b79612a823661128b565b90612a8b61374d565b612ad4612a996112d961350b565b612aa46112f661350b565b90612abd6001600160a01b039182808816911614613595565b61132d61084782600054166001600160a01b031690565b612b01612afc6001611a1f6113bc856001600160a01b03166000526012602052604060002090565b61362b565b612b6a612b60612b51612b2f60056113cd6113bc876001600160a01b03166000526012602052604060002090565b60405190612b4982611d2860208201906000602083019252565b61255c613676565b602080825183010191016136af565b50505015156136d1565b612b726137a4565b3390613d4c565b612b92612968601f546000526016602052604060002090565b612b9c8154613732565b9055612ba6615362565b612bbf60056113cd836000526015602052604060002090565b90612bc981614006565b612bd36001601155565b604080519182526001600160a01b03929092166020820152f35b346103fd5760203660031901126103fd57612c06615717565b156103ec57612c143361579c565b8015612c65575b156103c757612c28615826565b601f5410612c3f575b610016600435601f5461382e565b612c47615826565b80601f5560001981019081116103c257612c60906151c1565b612c31565b50336001600160a01b036005541614612c1b565b346103fd5760203660031901126103fd576004356001600160a01b036005541633036103c75760009060046020612cba61084785546001600160a01b031690565b604051928380927f46f991ac0000000000000000000000000000000000000000000000000000000082525afa8015610d495783808481949382948391612d5c575b505af1612d06615878565b50156105f8577fcdcc745fe377b103b45fa0cec23ae3ef93d6fc6a84a01f0d18c40b354dd1d5d8612d56612d45610847600b546001600160a01b031690565b604051938452929081906020820190565b0390a280f35b612d74915060203d8111610d4257610d338183613499565b38612cfb565b346103fd5760203660031901126103fd57600435600052601b6020526020604060002054604051908152f35b346103fd5760203660031901126103fd57600435612dc38161042e565b803b6000612dd0826134dc565b92612dde6040519485613499565b82845260208401903c602d815110612e0257602a602091015160601c604051908152f35b60046040517fbaf3f0f7000000000000000000000000000000000000000000000000000000008152fd5b60403660031901126103fd57600435612e4361374d565b6000908082526015602052612e6160ff600160408520015416613fbb565b81526015602052612ea16001600160a01b036005604084200154166040519062a0e53360e51b602083015260243560248301526024825261144082613424565b50600160115580f35b346103fd5760403660031901126103fd57600435600052601860205260406000206024356000526020526020604060002054604051908152f35b346103fd5760c03660031901126103fd576124c5600435602435612f078161042e565b60643591613007612ff860843593612f1d61374d565b612f39611bfc6001611a1f876000526015602052604060002090565b612f5861204461084760046113cd886000526015602052604060002090565b612f606137ea565b612f69856152de565b612f728661530a565b612f8b60056113cd866000526015602052604060002090565b601f546040517fa66303040000000000000000000000000000000000000000000000000000000060208201526001600160a01b039093166024840152604480359084015260648301889052608483019690965260a480359083015260c48201959095528060e481016120cb565b60208082518301019101614328565b9281613015575b5050614daf565b61305b916114406116a692613032600b546001600160a01b031690565b60405163a9059cbb60e01b60208201523360248201526044810194909452929384906064820190565b50388061300e565b346103fd576020806003193601126103fd5761050c90600435906130868261042e565b6130ea6001600160a01b03928360065416936040519116838201528281526130ad81613445565b6040516130b981613445565b601881527f697364656c656761746f724e6f64652861646472657373290000000000000000848201526000946158d3565b919080613124575b61310b575b505060405190151581529081906020820190565b61311d92508082518301019101615703565b38806130f7565b50808251146130f2565b346103fd5760003660031901126103fd576020611906615717565b346103fd5760203660031901126103fd57600435600052601a6020526020604060002054604051908152f35b346103fd5760403660031901126103fd576100166132a36004356133466024356131d061071b6131b8336001600160a01b03166000526012602052604060002090565b54600052601560205260ff6001604060002001541690565b6131ec611bfc6001611a1f866000526015602052604060002090565b61320d6132086001611a1f846000526015602052604060002090565b61433e565b61322660056113cd836000526015602052604060002090565b6133336116a68361144060405194613274612b60613266602098806132528b8201906000602083019252565b0394612b49601f1996878101845283613499565b8880825183010191016136af565b6132f161328b8a600052601e602052604060002090565b996132ac6132a760028d019d8e5460ff9060081c1690565b1590565b614389565b6040517f7bb984980000000000000000000000000000000000000000000000000000000089820152602481019190915260448101949094526064828101855284613499565b6005546001600160a01b0316926040519485917fffa734f0000000000000000000000000000000000000000000000000000000008984015230602484016143d4565b9160018501558082518301019101614205565b9055805461ff001916610100179055565b346103fd5760203660031901126103fd57600435600052601c6020526020604060002054604051908152f35b346103fd576040806003193601126103fd576001600160a01b036004356133a98161042e565b166000818152601260208181528483205483526019815284832054938352908152838220548252601881528382206024358352815290839020549251918252810191909152604090f35b346103fd5760003660031901126103fd5760206128f4615826565b634e487b7160e01b600052604160045260246000fd5b6060810190811067ffffffffffffffff82111761344057604052565b61340e565b6040810190811067ffffffffffffffff82111761344057604052565b60e0810190811067ffffffffffffffff82111761344057604052565b6020810190811067ffffffffffffffff82111761344057604052565b90601f8019910116810190811067ffffffffffffffff82111761344057604052565b604051906101e0820182811067ffffffffffffffff82111761344057604052565b67ffffffffffffffff811161344057601f01601f191660200190565b604051906135058261347d565b60008252565b6040516135178161347d565b60008152906000368137565b6040519061353082613445565b600782527f6f776e65722829000000000000000000000000000000000000000000000000006020830152565b6040519061356982613445565b600c82527f67657448657862617365282900000000000000000000000000000000000000006020830152565b1561359c57565b606460405162461bcd60e51b815260206004820152601760248201527f6e65737465642e696e76616c69642e696e7374616e63650000000000000000006044820152fd5b156135e757565b606460405162461bcd60e51b815260206004820152601660248201527f6e65737465642e696e76616c69642e68657862617365000000000000000000006044820152fd5b1561363257565b606460405162461bcd60e51b815260206004820152601860248201527f6e65737465642e706172656e742e6e6f742e65786973747300000000000000006044820152fd5b6040519061368382613445565b601282527f6765744e6f64654c422875696e743235362900000000000000000000000000006020830152565b91908260809103126103fd578151916020810151916060604083015192015190565b156136d857565b606460405162461bcd60e51b815260206004820152601960248201527f6e65737465642e706172656e742e6e6f2e627573696e657373000000000000006044820152fd5b634e487b7160e01b600052601160045260246000fd5b90600182018092116103c257565b919082018092116103c257565b60026011541461375e576002601155565b60046040517f3ee5aeb5000000000000000000000000000000000000000000000000000000008152fd5b6000198101919082116103c257565b919082039182116103c257565b6137ac615826565b601f54106137c4575b6137c26005601f5461382e565b565b6137cc615826565b80601f5560001981019081116103c2576137e5906151c1565b6137b5565b6137f2615826565b601f5410613808575b6137c26002601f5461382e565b613810615826565b80601f5560001981019081116103c257613829906151c1565b6137fb565b90613846612968836000526016602052604060002090565b5415806139d3575b806139ca575b61385c575050565b6138789061387261386c84613788565b91613788565b9061382e565b61389761296861388783613788565b6000526016602052604060002090565b546138af612968836000526016602052604060002090565b556138bf61113e61388783613788565b546138d761113e836000526016602052604060002090565b556138e761116861388783613788565b546138ff611168836000526016602052604060002090565b5561390f61119561388783613788565b54613927611195836000526016602052604060002090565b556139376111c261388783613788565b5461394f6111c2836000526016602052604060002090565b5561395f6111ef61388783613788565b546139776111ef836000526016602052604060002090565b5561398761121c61388783613788565b5461399f61121c836000526016602052604060002090565b556139c76112426139b561124261388785613788565b54926000526016602052604060002090565b55565b50801515613854565b506001821161384e565b156139e457565b606460405162461bcd60e51b815260206004820152601560248201527f6e65737465642e616c72656164792e65786973747300000000000000000000006044820152fd5b60001981146103c25760010190565b908160209103126103fd57516112b08161042e565b6040513d6000823e3d90fd5b90613a89613a846132a36001611a1f6113bc866001600160a01b03166000526012602052604060002090565b6139dd565b613a9c613a97601454613a28565b601455565b6004613af560145493613abd84611559876000526013602052604060002090565b84613adb856001600160a01b03166000526012602052604060002090565b556001600160a01b03166000526012602052604060002090565b5491613b018484613ec5565b613b2a82613b19866000526015602052604060002090565b016001600160a01b03198154169055565b613b5d613b47613b426008546001600160a01b031690565b613dea565b600561159a876000526015602052604060002090565b613b7660056113cd866000526015602052604060002090565b613b8b6108476000546001600160a01b031690565b93613bfb60405180613be7898760209a7f52902c59000000000000000000000000000000000000000000000000000000008c860152602485016040919493929460608201956001600160a01b0380921683521660208201520152565b0393611440601f1995868101845283613499565b5080151580613d22575b613cd5575b5083613c216108476000546001600160a01b031690565b604051948580927f6325dd040000000000000000000000000000000000000000000000000000000082525afa908115610d4957613cac947fd5ec0ea10000000000000000000000000000000000000000000000000000000094600093613cb0575b50604051908101949094526001600160a01b039092166024840152906114409083604481016116a6565b5090565b6114409350613cce6116a691833d8511610d4257610d338183613499565b9350613c82565b613cf160056113cd613d1b936000526015602052604060002090565b604051636f58dd0f60e11b8782015260016024820152604484810182529091906114409083613499565b5038613c0a565b506001600160a01b03613d4460056113cd846000526015602052604060002090565b161515613c05565b91600490613d7b613a846132a36001611a1f6113bc866001600160a01b03166000526012602052604060002090565b613d89613a97601454613a28565b613b2a613dc960145495613dab84611559896000526013602052604060002090565b86613adb856001600160a01b03166000526012602052604060002090565b5493613dd58686613ec5565b8361159a876000526015602052604060002090565b6e5af43d82803e903d91602b57fd5bf390763d602d80600a3d3981f3363d3d373d3d3d363d7300000062ffffff8260881c161760005260781b17602052603760096000f0906001600160a01b03821615613e4057565b60046040517fb06ebf3d000000000000000000000000000000000000000000000000000000008152fd5b634e487b7160e01b600052603260045260246000fd5b8054821015613e985760005260206000200190600090565b613e6a565b90815491680100000000000000008310156134405782611e209160016137c295018155613e80565b919091600092808452602091601583526040808620956002948386890155846001988981018a60ff198254161790555587613f0a866000526018602052604060002090565b83805282528489858520555b613f2557505050505050509050565b613f93613f82828b8a9414613f9c575b613f49886000526018602052604060002090565b8187528552868620613f5b8154613732565b9055613f71886000526019602052604060002090565b613f7b8154613732565b9055613a28565b956000526015602052604060002090565b01549384613f16565b613fb6896003611ed38b6000526015602052604060002090565b613f35565b15613fc257565b606460405162461bcd60e51b815260206004820152601560248201527f6e65737465642e757365722e6e6f7461637469766500000000000000000000006044820152fd5b80600052601560205261402360ff60016040600020015416613fbb565b60005260156020526140646001600160a01b03600560406000200154166040519062a0e53360e51b6020830152600160248301526024825261144082613424565b50565b1561406e57565b606460405162461bcd60e51b815260206004820152601360248201527f6e65737465642e7a65726f2e61646472657373000000000000000000000000006044820152fd5b156140b957565b606460405162461bcd60e51b815260206004820152601460248201527f6e65737465642e7461726765742e6578697374730000000000000000000000006044820152fd5b1561410457565b606460405162461bcd60e51b815260206004820152601760248201527f6e65737465642e736f757263652e6e6f744578697374730000000000000000006044820152fd5b6040519061415582613445565b601382527f55736572546f496e7374286164647265737329000000000000000000000000006020830152565b1561418857565b606460405162461bcd60e51b815260206004820152601560248201527f6e65737465642e696e76616c69642e73656e64657200000000000000000000006044820152fd5b604051906141d982613445565b600b82527f6d696e74436f756e7428290000000000000000000000000000000000000000006020830152565b908160209103126103fd575190565b6040519061422182613445565b600e82527f6d696e74732875696e74323536290000000000000000000000000000000000006020830152565b91908260809103126103fd57815191602081015191606060408301519201516112b08161042e565b60005b8381106142885750506000910152565b8181015183820152602001614278565b906020916142b181518092818552858086019101614275565b601f01601f1916010190565b6040906001600160a01b036112b094931681528160208201520190614298565b156142e457565b606460405162461bcd60e51b815260206004820152601b60248201527f6e65737465642e757365722e696e76616c6964696e7374616e636500000000006044820152fd5b91908260409103126103fd576020825192015190565b1561434557565b606460405162461bcd60e51b815260206004820152601560248201527f6e65737465642e696e76616c69642e706172656e7400000000000000000000006044820152fd5b1561439057565b606460405162461bcd60e51b815260206004820152601760248201527f6e65737465642e7265712e616c726561647965786973740000000000000000006044820152fd5b929161445c60a0916001600160a01b0360009460c08852602460c08901527f547269676765722e6e65737465642e70726f706f73616c2e6d6f7665646f776e60e08901527f6c696e6500000000000000000000000000000000000000000000000000000000610100890152166020870152836040870152610120806060880152860190614298565b93600a60808201520152565b6040519061447582613445565b601282527f6765745374617475732875696e743235362900000000000000000000000000006020830152565b519081151582036103fd57565b91908260409103126103fd576112b060206144c8846144a1565b93016144a1565b156144d657565b606460405162461bcd60e51b815260206004820152601660248201527f6e65737465642e7265712e6e6f74617070726f766564000000000000000000006044820152fd5b1561452157565b606460405162461bcd60e51b815260206004820152601860248201527f6e65737465642e757365722e6e6f742e646574616368656400000000000000006044820152fd5b1561456c57565b606460405162461bcd60e51b815260206004820152601b60248201527f6e65737465642e757365722e616c726564792e646574616368656400000000006044820152fd5b80549081156145da57600019918201916145ca8383613e80565b909182549160031b1b1916905555565b634e487b7160e01b600052603160045260246000fd5b80156103c2576000190190565b9061461b614615836000526019602052604060002090565b54613732565b9160029081614634826000526015602052604060002090565b0154906001938492835b61464c575b50505050505050565b600f8085111580614953575b1561494d578590600561467c610847826113cd876000526015602052604060002090565b6146a9575b505061469a6146a2926000526015602052604060002090565b015493613a28565b928561463e565b865b8281111561479c5750505061469a6146a29284600014614739576146f36146dc876000526018602052604060002090565b6146e589613788565b600052602052604060002090565b5461470f610fe68961105d856000526018602052604060002090565b9055614725816000526019602052604060002090565b6147308b8254613740565b90555b92614681565b6147506146dc876000526018602052604060002090565b5461477461476c8961105d856000526018602052604060002090565b918254613797565b905561478a816000526019602052604060002090565b6147958b8254613797565b9055614733565b909192506147b8826113cd886000526015602052604060002090565b6147c28883613797565b604091876147f06147e28551806132526020978883019190602083019252565b8480825183010191016136af565b50509290878a821580614945575b614934579261488694926116a661482b611440946113cd6148939b9a986000526015602052604060002090565b94601f9a8c8c5491519889957f7b058ac1000000000000000000000000000000000000000000000000000000008d8801526024870193909594919260809360a086019786526020860152604085015260608401521515910152565b8051810182019101614328565b9087156148ea575b8082116148b7575050506148ae90613a28565b908792916146ab565b6148c090613a28565b6148d98161105d85546000526016602052604060002090565b6148e38154613732565b905561489b565b9190915b828111614901575050506148ae90613a28565b8061491e61492f9261105d85546000526016602052604060002090565b6149288154613788565b90556145f0565b6148ee565b50505050505050506148ae90613a28565b5085156147fe565b50614643565b50811515614658565b9061012080838303126103fd5781601f840112156103fd576040519281840184811067ffffffffffffffff82111761344057604052839181019283116103fd57905b8282106149ab5750505090565b815181526020918201910161499e565b604051906149c882613445565b600f82527f66726565496e74657276616c73282900000000000000000000000000000000006020830152565b60405190614a0182613445565b601582527f67657452616e6b5769746841676556616c7565282900000000000000000000006020830152565b60405190614a3a82613445565b601382527f72616e6b436c617573652875696e7432353629000000000000000000000000006020830152565b908160a09103126103fd578051916020820151916040810151916080606083015192015190565b919091600392614abe614aa785546001600160a01b031690565b614aaf61350b565b90614ab86149bb565b906159b7565b9360008092819082948392849185985b600f8a111580614da6575b15614d98576005614afb610847826113cd856000526015602052604060002090565b614b28575b506002614b1a614b22926000526015602052604060002090565b015499613a28565b98614ace565b8c614b4c614b44836113cd866000526015602052604060002090565b61249a6149f4565b8c614b61602092838082518301019101614328565b829591951580614d2f575b1580614d26575b8015614d1e575b614b89575b5050505050614b00565b869e8697929394959603614c5d575b50614c1a928b6114408c611d28614bc4614c2099976113cd614c0d986000526015602052604060002090565b93601f9a8b5460405197889563208bffb160e21b8c8801526024870193909594919260a09360c08601978652600060208701526040860152606085015260808401521515910152565b8051810182019101614205565b92613732565b80831015614c3b57509098905060028c614b228c3880614b7f565b80613f71614c589261105d85546000526016602052604060002090565b614c20565b9193929a50508a8511614cb0575b509087918c86861080801591614c87575b50159a929193614b98565b89881015915081614ca8575b5080614ca0575b38614c7c565b508815614c9a565b905038614c93565b995095509350859250614cff614cf1614cd08b546001600160a01b031690565b60405190614ce982611d28888c83019190602083019252565b61255c614a2d565b868082518301019101614a66565b969350909691509594614d15859b601f54613797565b11969091614c6b565b506000614b7a565b508a1515614b73565b99509b50955095509a50614d78614d6a838d614ce9614d558f546001600160a01b031690565b60405192830193845291928390602001611d28565b8c8082518301019101614a66565b9e9350909791509695849b859e614d9182601f54613797565b1199614b6c565b505050505050505050509050565b50801515614ad9565b90929192614dc8614aa76003546001600160a01b031690565b93600091829083809481938280985b600f8a111580615062575b15614d9857614e0361084760056113cd846000526015602052604060002090565b614e27575b6002614b1a614e21926000526015602052604060002090565b98614dd7565b8b8a614e48612ff8614b4460056113cd876000526015602052604060002090565b8293919315615005575b82151580614ffc575b8015614ff3575b614e70575b50505050614e08565b938394819d8d949503614f3d575b50614f0492614c1a926114408c611d288f614eab60056113cd614ef5996000526015602052604060002090565b94601f9a8b549060405198899663208bffb160e21b60208901526024880194919260a0949197969360c0870198875260208701526040860152606085015260808401521515910152565b60208082518301019101614205565b80831015614f1b57509098905060028a8d38614e67565b80613f71614f389261105d85546000526016602052604060002090565b614f04565b935050509750828211614f8f575b50898c878b86851080801591614f66575b50159a9291614e7e565b89871015915081614f87575b5080614f7f575b38614f5c565b508815614f79565b905038614f72565b935093505050614fd6614fc7614fad6003546001600160a01b031690565b60405190614ce982611d2888602083019190602083019252565b60208082518301019101614a66565b9350909391509291614feb8592601f54613797565b119338614f4b565b508b1515614e62565b50891515614e5b565b97505050935097505050615041614fc76150276003546001600160a01b031690565b60405190614ce982611d2887602083019190602083019252565b999350909391509291818a8d829b61505b89601f54613797565b1197614e52565b50801515614de2565b1561507257565b606460405162461bcd60e51b815260206004820152601260248201527f6e65737465642e696e76616c69642e61676500000000000000000000000000006044820152fd5b604051906150c382613445565b601882527f6765744261746368526f79616c7479436c6175736573282900000000000000006020830152565b6102a09081818403126103fd5782601f820112156103fd57604080519361511585613461565b84938301928184116103fd57935b83851061513257505050505090565b6060858303126103fd57825160609161514a82613424565b8651825260209182880151838201528588015186820152815201940193615123565b906007811015613e985760051b0190565b90816064029160648304036103c257565b818102929181159184041417156103c257565b81156151ab570490565b634e487b7160e01b600052601260045260246000fd5b6151cc81151561506b565b6151e96151e16003546001600160a01b031690565b61249a6150b6565b906151fe6020928380825183010191016150ef565b61521282600052601a602052604060002090565b5460015b6007811115615226575050505050565b806152426152a59261105d876000526016602052604060002090565b5480156152b35761525b61525583613788565b8661516c565b518781519283156152aa576152826152879261527a61528d968a61518e565b94015161517d565b61518e565b906151a1565b61106c8261105d886000526017602052604060002090565b615216565b50505050613a28565b50613a28565b6040519061010080830183811067ffffffffffffffff82111761344057604052368337565b601f5480600052601a6020526040600020549182018092116103c257600052601a602052604060002055565b601f5480600052601b6020526040600020549182018092116103c257600052601b602052604060002055565b601f5480600052601c6020526040600020549182018092116103c257600052601c602052604060002055565b601f5480600052601d60205260406000205490600182018092116103c257600052601d602052604060002055565b6040519061539d82613445565b601482527f676574627573696e6573732875696e74323536290000000000000000000000006020830152565b604051906153d682613445565b601d82527f67657472616e6b436f756e742875696e743235362c75696e74323536290000006020830152565b6156e76101c06137c29261543c61542082516001600160a01b031690565b6001600160a01b03166001600160a01b03196002541617600255565b61546f61545360208301516001600160a01b031690565b6001600160a01b03166001600160a01b03196003541617600355565b6154a261548660408301516001600160a01b031690565b6001600160a01b03166001600160a01b03196004541617600455565b6154d56154b960608301516001600160a01b031690565b6001600160a01b03166001600160a01b03196005541617600555565b6155086154ec60808301516001600160a01b031690565b6001600160a01b03166001600160a01b03196006541617600655565b61553b61551f60a08301516001600160a01b031690565b6001600160a01b03166001600160a01b03196007541617600755565b61556e61555260c08301516001600160a01b031690565b6001600160a01b03166001600160a01b03196008541617600855565b6155a161558560e08301516001600160a01b031690565b6001600160a01b03166001600160a01b03196009541617600955565b6155d56155b96101008301516001600160a01b031690565b6001600160a01b03166001600160a01b0319600a541617600a55565b6156096155ed6101208301516001600160a01b031690565b6001600160a01b03166001600160a01b0319600b541617600b55565b61563d6156216101408301516001600160a01b031690565b6001600160a01b03166001600160a01b0319600c541617600c55565b6156716156556101608301516001600160a01b031690565b6001600160a01b03166001600160a01b0319600d541617600d55565b6156a56156896101808301516001600160a01b031690565b6001600160a01b03166001600160a01b0319600e541617600e55565b6156d96156bd6101a08301516001600160a01b031690565b6001600160a01b03166001600160a01b0319600f541617600f55565b01516001600160a01b031690565b6001600160a01b03166001600160a01b03196010541617601055565b908160209103126103fd576112b0906144a1565b6157726001600160a01b036002541660405161573281613445565b600881527f69735361666528290000000000000000000000000000000000000000000000006020820152604051916157698361347d565b600083526158d3565b9080615791575b156105f857806020806112b093518301019101615703565b506020815114615779565b6157ff6001600160a01b0380600254166040519160209416848301528382526157c482613445565b604051906157d182613445565b601582527f6973536563757265426173652861646472657373290000000000000000000000858301526158d3565b908061581c575b156105f857816112b09282518301019101615703565b5081815114615806565b6112b06001600160a01b036003541660405161584181613445565b600681527f69416765282900000000000000000000000000000000000000000000000000006020820152604051916128eb8361347d565b3d156158a3573d90615889826134dc565b916158976040519384613499565b82523d6000602084013e565b606090565b906158b392916158d3565b90600090156158c0575090565b60405191506158ce8261347d565b815290565b803b1561594d576000927fffffffff00000000000000000000000000000000000000000000000000000000836020869551910120169061593d602460405180936020820195865261592d8151809260208686019101614275565b8101036004810184520182613499565b51915afa615949615878565b9091565b50505060009060405161595f8161347d565b6000815290565b9291615974916000946158d3565b90806159ac575b6159825750565b9091506020818051810103126103fd5760206001600160a01b039101516159a88161042e565b1690565b50602081511461597b565b92916159c5916000946158d3565b90806159e8575b6159d35750565b6112b091925060208082518301019101614205565b5060208151146159cc565b90602082519201517fffffffff00000000000000000000000000000000000000000000000000000000908181169360048110615a2e57505050565b60040360031b82901b16169150565b6001600160a01b03811615615af057600080918351908260208601915af190615a64615878565b9115615a6e575090565b805160009190600411615aea57615a8591506159f3565b815115615a955750805190602001fd5b6040517f21c09d340000000000000000000000000000000000000000000000000000000081527fffffffff00000000000000000000000000000000000000000000000000000000919091166004820152602490fd5b50615a85565b60046040517fe6c4247b000000000000000000000000000000000000000000000000000000008152fdfea2646970667358221220831b76330197fa2e450a098d0fbd77e86dd4a515180904c54ed3b4eecb6e29e964736f6c63430008140033","linkReferences":{}},"methodIdentifiers":{"dAOAssembly()":"14837455","daocore()":"14d8d024","nested741()":"45cff900","old741()":"5540c5ac","price()":"a035b1fe"},"id":77}