{"abi":[{"type":"constructor","inputs":[{"name":"_hex","type":"address","internalType":"address"}],"stateMutability":"nonpayable"},{"type":"function","name":"instance","inputs":[],"outputs":[{"name":"","type":"address","internalType":"address"}],"stateMutability":"view"},{"type":"function","name":"tVLFactory","inputs":[],"outputs":[{"name":"","type":"address","internalType":"address"}],"stateMutability":"view"},{"type":"function","name":"tVLMining","inputs":[],"outputs":[{"name":"","type":"address","internalType":"address"}],"stateMutability":"view"},{"type":"function","name":"tVLReward","inputs":[],"outputs":[{"name":"","type":"address","internalType":"address"}],"stateMutability":"view"},{"type":"function","name":"tVLRoyality","inputs":[],"outputs":[{"name":"","type":"address","internalType":"address"}],"stateMutability":"view"},{"type":"function","name":"tVLTour","inputs":[],"outputs":[{"name":"","type":"address","internalType":"address"}],"stateMutability":"view"},{"type":"function","name":"tVLValidator","inputs":[],"outputs":[{"name":"","type":"address","internalType":"address"}],"stateMutability":"view"}],"bytecode":{"object":"0x60803461023957601f61424d38819003918201601f19168301926001600160401b039290919083851183861017610223578083926040968752833960209283918101031261023957516001600160a01b0391908281169081900361023957845191612721928381019381851087861117610223576103f482398284528681600095868582015203019084f09485156102195783549585166001600160a01b031996871617845586516117388082019491808610848711176101e7578481612b15978489833985815203019087f080156101fb578716886001541617600155885181810181811085821117610205578186918489833985815203019087f080156101fb578716886002541617600255885181810181811085821117610205578186918489833985815203019087f080156101fb578716886003541617600355885181810181811085821117610205578186918489833985815203019087f080156101fb578716886004541617600455885181810181811085821117610205578186918489833985815203019087f080156101fb57871688600554161760055588519481860193868510908511176101e75790859392918439815203019082f09081156101dc575016906006541617600655516101b5908161023f8239f35b8451903d90823e3d90fd5b634e487b7160e01b87526041600452602487fd5b89513d88823e3d90fd5b634e487b7160e01b88526041600452602488fd5b86513d85823e3d90fd5b634e487b7160e01b600052604160045260246000fd5b600080fdfe60806040818152600436101561001457600080fd5b600091823560e01c908163022ec0951461015c575080639443767c146101355780639ba540fb1461010e578063a50c0bc0146100e7578063b85c9faf146100c0578063d795ff38146100995763dabf429d1461006f57600080fd5b346100955781600319360112610095576020906001600160a01b03600554169051908152f35b5080fd5b50346100955781600319360112610095576020906001600160a01b03600254169051908152f35b50346100955781600319360112610095576020906001600160a01b03600354169051908152f35b50346100955781600319360112610095576020906001600160a01b03600654169051908152f35b50346100955781600319360112610095576020906001600160a01b03600154169051908152f35b50346100955781600319360112610095576020906001600160a01b03600454169051908152f35b8390346100955781600319360112610095576001600160a01b0360209254168152f3fea26469706673582212201a4513627e8b47b8e12cc64a988b1497964e164eb8d21675d04d87518458a72564736f6c63430008140033608034620000c157601f6200272138819003918201601f19168301916001600160401b03831184841017620000c6578084926040948552833981010312620000c1576200005a60206200005283620000dc565b9201620000dc565b6001600160a01b0391821691908215620000af5760018060a01b0319928360015416908460005416176000556001601155339084331617176001551690601254161760125560405161262f9081620000f28239f35b60405163e6c4247b60e01b8152600490fd5b600080fd5b634e487b7160e01b600052604160045260246000fd5b51906001600160a01b0382168203620000c15756fe60806040526004361015610018575b361561001657005b005b60003560e01c80630399c93c146101a857806306fdde03146101a357806312065fe01461019e5780631499c592146101995780631f185d16146101945780631f3c99c31461018f578063339459a61461018a5780633b9b7955146101855780633dbfd97c1461018057806360f96a8f1461017b5780638129fc1c146101765780638da5cb5b14610171578063a1f7f5391461016c578063a3e884b014610167578063af48452614610162578063af640d0f1461015d578063b28175c414610158578063b90306ad14610153578063c107930a1461014e578063c47f002714610149578063c54e44b014610144578063d4ace81b1461013f578063e01ad5fd1461013a578063e0a9bc2b146101355763fdc10bc90361000e57611189565b61116e565b6110ee565b6110ce565b611048565b610fd5565b610ea3565b610d81565b610d5a565b610d3c565b610d0b565b610b5b565b610abf565b610a98565b61079d565b610776565b6106e3565b6106bc565b6106a3565b610640565b610559565b6104c1565b6104a5565b6103c0565b6101c3565b6001600160a01b038116036101be57565b600080fd5b346101be5760203660031901126101be576004356101e0816101ad565b6101e86121d5565b1561027b576101f63361225a565b8015610267575b1561023d576102369061021360155415156113ce565b61021b611311565b61022f6001600160a01b0382161515611788565b4790612314565b6001601155005b60046040517fea8e4eb5000000000000000000000000000000000000000000000000000000008152fd5b50336001600160a01b0360055416146101fd565b60046040517f9dc4246e000000000000000000000000000000000000000000000000000000008152fd5b90600182811c921680156102d5575b60208310146102bf57565b634e487b7160e01b600052602260045260246000fd5b91607f16916102b4565b634e487b7160e01b600052604160045260246000fd5b6040810190811067ffffffffffffffff82111761031157604052565b6102df565b6020810190811067ffffffffffffffff82111761031157604052565b610100810190811067ffffffffffffffff82111761031157604052565b90601f8019910116810190811067ffffffffffffffff82111761031157604052565b60005b8381106103845750506000910152565b8181015183820152602001610374565b604091602082526103b48151809281602086015260208686019101610371565b601f01601f1916010190565b346101be576000806003193601126104a25760405190806014546103e3816102a5565b80855291600191808316908115610478575060011461041d575b6104198561040d8187038261034f565b60405191829182610394565b0390f35b9250601483527fce6d7b5282bd9a3661ae061feed1dbda4e52ab073b1f9285be6e155d9c38d4ec5b82841061046057505050810160200161040d826104196103fd565b80546020858701810191909152909301928101610445565b8695506104199693506020925061040d94915060ff191682840152151560051b82010192936103fd565b80fd5b346101be5760003660031901126101be57602047604051908152f35b346101be5760203660031901126101be576004356104de816101ad565b6104e66121d5565b1561027b576104f43361225a565b8015610545575b1561023d576001600160a01b039061051660155415156113ce565b61051e611311565b1661052a811515611788565b6001600160a01b031960125416176012556001601155600080f35b50336001600160a01b0360055416146104fb565b346101be576020806003193601126101be576105d860043561057a816101ad565b6001600160a01b0380600254169060405192168483015283825261059d826102f5565b604051906105aa826102f5565b601182527f69735369676e65722861646472657373290000000000000000000000000000008583015261239e565b919080610636575b1561060c5781816105fa92610419945183010191016121bd565b60405190151581529081906020820190565b60046040517f3204506f000000000000000000000000000000000000000000000000000000008152fd5b50808251146105e0565b346101be5760003660031901126101be576001600160a01b0360015416330361067957600019420142811161067457601655005b611226565b60046040517f82b42900000000000000000000000000000000000000000000000000000000008152fd5b346101be5760003660031901126101be57610016611af7565b346101be5760003660031901126101be5760206001600160a01b0360005416604051908152f35b346101be5760203660031901126101be576001546001600160a01b03163381900361067957610763610747610767926107556107276004546001600160a01b031690565b91604051938491602083019190916001600160a01b036020820193169052565b03601f19810184528361034f565b61075d6111ed565b90612482565b1590565b6106795761001660043561123c565b346101be5760003660031901126101be5760206001600160a01b0360125416604051908152f35b60003660031901126101be576107b1611311565b601554610a54576107c0611af7565b600a546001600160a01b03166001546001600160a01b0316906040519161082260209380610800848783019190916001600160a01b036020820193169052565b0393610814601f199586810184528361034f565b61081c61134c565b90612431565b906001600160a01b038216156109a15750916108f17f4ef260a900000000000000000000000000000000000000000000000000000000926109456109246109406109046108f67f3baee0ea000000000000000000000000000000000000000000000000000000006109959a6108f18a6108e56108a66004546001600160a01b031690565b936108b96001546001600160a01b031690565b604051938401969096526001600160a01b03908116602484015290941660448201529283906064820190565b0389810184528361034f565b612546565b8780825183010191016113a4565b939091936001600160a01b03166001600160a01b03196012541617601255565b6001600160a01b03166001600160a01b03196013541617601355565b601555565b600a546001600160a01b0316926109896109676001546001600160a01b031690565b604051968793840152602483019190916001600160a01b036020820193169052565b0390810184528361034f565b505b6100166001601155565b610a30915092610a23610a4f94610940946108f16109c76004546001600160a01b031690565b916109da6012546001600160a01b031690565b6040517fb1c4907900000000000000000000000000000000000000000000000000000000888201526001600160a01b039182166024820152941660448501528360648101610989565b8051810182019101611385565b9190916001600160a01b03166001600160a01b03196013541617601355565b610997565b606460405162461bcd60e51b815260206004820152601660248201527f6d652e616c72656164792e696e697469616c697a6564000000000000000000006044820152fd5b346101be5760003660031901126101be5760206001600160a01b0360015416604051908152f35b346101be5760003660031901126101be576020610b2c6001600160a01b0360065416604051610aed816102f5565b601381527f67657464656c656761746f72436f756e742829000000000000000000000000008482015260405191610b2383610316565b600083526124be565b604051908152f35b60809060031901126101be57600435610b4c816101ad565b90602435906044359060643590565b610b6436610b34565b92610b7560159392935415156113ce565b610b7d611419565b610b85611311565b60018403610b97576109979350611668565b50916007915014610ba9575b50610997565b610c0b610c1a91610bc26004546001600160a01b031690565b6015546040517f6a811244000000000000000000000000000000000000000000000000000000006020820152602481019190915260448101929092526108f18260648101610747565b602080825183010191016115db565b9080471015610c9e575b50804710610ba35780610c697f992e981f1f6d8cb3a32ce3b31107393c58fbd9a9052cb415a19d578833bf80d692610c64600c546001600160a01b031690565b612314565b600c54604080516001600160a01b0390921682526020820192909252429181019190915260006060820152608090a138610ba3565b80610cd67f992e981f1f6d8cb3a32ce3b31107393c58fbd9a9052cb415a19d578833bf80d692610c646001546001600160a01b031690565b600154604080516001600160a01b0390921682526020820192909252429181019190915260006060820152608090a138610c24565b346101be5760203660031901126101be576020610d32600435610d2d816101ad565b61225a565b6040519015158152f35b346101be5760003660031901126101be576020601554604051908152f35b346101be5760003660031901126101be5760206001600160a01b0360135416604051908152f35b346101be5760203660031901126101be576004356001600160a01b0360055416330361023d5760009060046020610dce610dc285546001600160a01b031690565b6001600160a01b031690565b604051928380927f46f991ac0000000000000000000000000000000000000000000000000000000082525afa8015610e9e5783808481949382948391610e70575b505af1610e1a6122e4565b501561060c577fcdcc745fe377b103b45fa0cec23ae3ef93d6fc6a84a01f0d18c40b354dd1d5d8610e6a610e59610dc2600b546001600160a01b031690565b604051938452929081906020820190565b0390a280f35b610e91915060203d8111610e97575b610e89818361034f565b8101906117d3565b38610e0f565b503d610e7f565b6117e8565b610eac36610b34565b610ebd6015949392945415156113ce565b610ec56121d5565b1561027b57610ed33361225a565b8015610f84575b1561023d57610ee7611311565b610eef6121d5565b1561027b57610efd3361225a565b8015610f70575b1561023d5761099593610f1e610f198561225a565b6115f1565b6001600160a01b03928360045416936015549560405196636e59fe2560e11b602089015260248801521660448601526064850152608484015260a4830152600060c483015260c482526108f182610332565b50336001600160a01b036005541614610f04565b50336001600160a01b036005541614610eda565b604051906101e0820182811067ffffffffffffffff82111761031157604052565b67ffffffffffffffff811161031157601f01601f191660200190565b346101be5760203660031901126101be5760043567ffffffffffffffff81116101be57366023820112156101be57806004013561101181610fb9565b9061101f604051928361034f565b80825236602482850101116101be5760208160009260246100169601838601378301015261144f565b346101be5760203660031901126101be57600435611065816101ad565b803b600061107282610fb9565b92611080604051948561034f565b82845260208401903c602d8151106110a457602a602091015160601c604051908152f35b60046040517fbaf3f0f7000000000000000000000000000000000000000000000000000000008152fd5b346101be5760003660031901126101be5760206016544210604051908152f35b346101be5760203660031901126101be576020610d32600435611110816101ad565b6001600160a01b03806006541690604051921684830152838252611133826102f5565b60405190611140826102f5565b601882527f697364656c656761746f724e6f6465286164647265737329000000000000000085830152612482565b346101be5760003660031901126101be576020610d326121d5565b346101be5760003660031901126101be576020610b2c6001600160a01b03600354166040516111b7816102f5565b600681527f69416765282900000000000000000000000000000000000000000000000000008482015260405191610b2383610316565b604051906111fa826102f5565b601582527f69735573657245786973747328616464726573732900000000000000000000006020830152565b634e487b7160e01b600052601160045260246000fd5b6001600160a01b0361129981600354166040519061125982610316565b600082526040519061126a826102f5565b601382527f73657373696f6e54544c5365636f6e647328290000000000000000000000000060208301526124be565b4201804211610674576016556013541690604051907f70878d04000000000000000000000000000000000000000000000000000000006020830152602482015260248152606081019181831067ffffffffffffffff8411176103115761130192604052612546565b50565b9190820391821161067457565b600260115414611322576002601155565b60046040517f3ee5aeb5000000000000000000000000000000000000000000000000000000008152fd5b60405190611359826102f5565b601e82527f7265736f6c76655472616e7366657254617267657428616464726573732900006020830152565b91908260409103126101be57602082519201516113a1816101ad565b90565b908160609103126101be57805191604060208301516113c2816101ad565b9201516113a1816101ad565b156113d557565b606460405162461bcd60e51b815260206004820152600f60248201527f6d652e696e76616c69642e696e697400000000000000000000000000000000006044820152fd5b60165442101561142557565b60046040517f1fd05a4a000000000000000000000000000000000000000000000000000000008152fd5b61145c60155415156113ce565b611464611419565b61146c6121d5565b1561027b576001906001600160a01b03825416330361023d5780519067ffffffffffffffff8211610311576114ab826114a66014546102a5565b61156a565b60209081601f84116001146114e857509282939183926000946114dd575b50501b916000199060031b1c191617601455565b0151925038806114c9565b6014600052919083601f1981167fce6d7b5282bd9a3661ae061feed1dbda4e52ab073b1f9285be6e155d9c38d4ec946000905b888383106115505750505010611537575b505050811b01601455565b015160001960f88460031b161c1916905538808061152c565b85870151885590960195948501948793509081019061151b565b601f8111611576575050565b600090601482527fce6d7b5282bd9a3661ae061feed1dbda4e52ab073b1f9285be6e155d9c38d4ec906020601f850160051c830194106115d1575b601f0160051c01915b8281106115c657505050565b8181556001016115ba565b90925082906115b1565b91908260409103126101be576020825192015190565b156115f857565b606460405162461bcd60e51b815260206004820152601360248201527f6d652e756e7365637572652e4f524331313535000000000000000000000000006044820152fd5b9060158202918083046015149015171561067457565b90602d820291808304602d149015171561067457565b91611675610f198461225a565b3461167f57505050565b6108f16113019361172161169c6116953461163c565b6064900490565b6117106116b36116ab34611652565b6103e8900490565b6116ff6116c26116ab34611652565b936116ee6116dd866116d8866116d88634611304565b611304565b600b546001600160a01b0316612314565b600d546001600160a01b0316612314565b600e546001600160a01b0316612314565b600f546001600160a01b0316612314565b6107476117366004546001600160a01b031690565b9360155490604051968794636e59fe2560e11b6020870152349360248701919360a0936001600160a01b036001969897939860c086019986521660208501526040840152606083015260808201520152565b1561178f57565b606460405162461bcd60e51b815260206004820152600f60248201527f6d652e7a65726f2e6164647265737300000000000000000000000000000000006044820152fd5b908160209103126101be57516113a1816101ad565b6040513d6000823e3d90fd5b611ad96101c0611af59261182e61181282516001600160a01b031690565b6001600160a01b03166001600160a01b03196002541617600255565b61186161184560208301516001600160a01b031690565b6001600160a01b03166001600160a01b03196003541617600355565b61189461187860408301516001600160a01b031690565b6001600160a01b03166001600160a01b03196004541617600455565b6118c76118ab60608301516001600160a01b031690565b6001600160a01b03166001600160a01b03196005541617600555565b6118fa6118de60808301516001600160a01b031690565b6001600160a01b03166001600160a01b03196006541617600655565b61192d61191160a08301516001600160a01b031690565b6001600160a01b03166001600160a01b03196007541617600755565b61196061194460c08301516001600160a01b031690565b6001600160a01b03166001600160a01b03196008541617600855565b61199361197760e08301516001600160a01b031690565b6001600160a01b03166001600160a01b03196009541617600955565b6119c76119ab6101008301516001600160a01b031690565b6001600160a01b03166001600160a01b0319600a541617600a55565b6119fb6119df6101208301516001600160a01b031690565b6001600160a01b03166001600160a01b0319600b541617600b55565b611a2f611a136101408301516001600160a01b031690565b6001600160a01b03166001600160a01b0319600c541617600c55565b611a63611a476101608301516001600160a01b031690565b6001600160a01b03166001600160a01b0319600d541617600d55565b611a97611a7b6101808301516001600160a01b031690565b6001600160a01b03166001600160a01b0319600e541617600e55565b611acb611aaf6101a08301516001600160a01b031690565b6001600160a01b03166001600160a01b0319600f541617600f55565b01516001600160a01b031690565b6001600160a01b03166001600160a01b03196010541617601055565b565b611b0c610dc26000546001600160a01b031690565b604051907f97f3815a000000000000000000000000000000000000000000000000000000008252602082600481845afa918215610e9e5760009261219c575b50604051917fcfbffe53000000000000000000000000000000000000000000000000000000008352602083600481855afa928315610e9e5760009361217b575b50604051907fab6e844f000000000000000000000000000000000000000000000000000000008252602082600481865afa918215610e9e5760009261215a575b50604051917f14d8d024000000000000000000000000000000000000000000000000000000008352602083600481875afa928315610e9e57600093612139575b50604051927fd1f956b1000000000000000000000000000000000000000000000000000000008452602084600481885afa938415610e9e57600094612118575b50604051937fe61dfd58000000000000000000000000000000000000000000000000000000008552602085600481895afa948515610e9e576000956120f7575b506040517fe09d394d0000000000000000000000000000000000000000000000000000000081526020816004818a5afa908115610e9e576000916120d8575b506040517f52b06d640000000000000000000000000000000000000000000000000000000081526020816004818b5afa908115610e9e576000916120b9575b506040517f013cf08b00000000000000000000000000000000000000000000000000000000815260006004820152916020836024818c5afa928315610e9e57600093612098575b50604051977f5e09dbe70000000000000000000000000000000000000000000000000000000089526020896004818d5afa948515610e9e57600499600096612077575b5060208b6040519b8c80927faa0ddc160000000000000000000000000000000000000000000000000000000082525afa968715610e9e5760049a600098612056575b5060208c6040519c8d80927f640274270000000000000000000000000000000000000000000000000000000082525afa988915610e9e5760049b60009a612035575b5060208d6040519d8e80927f30125cf50000000000000000000000000000000000000000000000000000000082525afa9a8b15610e9e578d60049d60009d612013575b506020906040519e8f80927f24768d910000000000000000000000000000000000000000000000000000000082525afa9c8d15610e9e5760009d611ff2575b50604051809e81907f9dc969a80000000000000000000000000000000000000000000000000000000082525a92600491602094fa9d8e15610e9e5760009e611fd1575b50611ee5610f98565b6001600160a01b0390911681529d8e906001600160a01b0316602082015260400190611f1991906001600160a01b03169052565b6001600160a01b031660608d01526001600160a01b031660808c01526001600160a01b031660a08b01526001600160a01b031660c08a01526001600160a01b031660e08901526001600160a01b03166101008801526001600160a01b03166101208701526001600160a01b03166101408601526001600160a01b03166101608501526001600160a01b03166101808401526001600160a01b03166101a08301526001600160a01b03166101c0820152611af5906117f4565b611feb919e5060203d602011610e9757610e89818361034f565b9c38611edc565b61200c919d5060203d602011610e9757610e89818361034f565b9b38611e99565b6020919d5061202e90823d8411610e9757610e89818361034f565b9c90611e5a565b61204f919a5060203d602011610e9757610e89818361034f565b9838611e17565b61207091985060203d602011610e9757610e89818361034f565b9638611dd5565b61209191965060203d602011610e9757610e89818361034f565b9438611d93565b6120b291935060203d602011610e9757610e89818361034f565b9138611d50565b6120d2915060203d602011610e9757610e89818361034f565b38611d09565b6120f1915060203d602011610e9757610e89818361034f565b38611cca565b61211191955060203d602011610e9757610e89818361034f565b9338611c8b565b61213291945060203d602011610e9757610e89818361034f565b9238611c4b565b61215391935060203d602011610e9757610e89818361034f565b9138611c0b565b61217491925060203d602011610e9757610e89818361034f565b9038611bcb565b61219591935060203d602011610e9757610e89818361034f565b9138611b8b565b6121b691925060203d602011610e9757610e89818361034f565b9038611b4b565b908160209103126101be575180151581036101be5790565b6122306001600160a01b03600254166040516121f0816102f5565b600881527f697353616665282900000000000000000000000000000000000000000000000060208201526040519161222783610316565b6000835261239e565b908061224f575b1561060c57806020806113a1935183010191016121bd565b506020815114612237565b6122bd6001600160a01b038060025416604051916020941684830152838252612282826102f5565b6040519061228f826102f5565b601582527f69735365637572654261736528616464726573732900000000000000000000008583015261239e565b90806122da575b1561060c57816113a192825183010191016121bd565b50818151146122c4565b3d1561230f573d906122f582610fb9565b91612303604051938461034f565b82523d6000602084013e565b606090565b90801561239a576001600160a01b03821691821561237057600080808481945af161233d6122e4565b501561060c5760207fcec1f18c3ab8ddaaa107a1591e3c369667eec613626611a8deaedef43069fcdd91604051908152a2565b60046040517fe6c4247b000000000000000000000000000000000000000000000000000000008152fd5b5050565b803b15612418576000927fffffffff00000000000000000000000000000000000000000000000000000000836020869551910120169061240860246040518093602082019586526123f88151809260208686019101610371565b810103600481018452018261034f565b51915afa6124146122e4565b9091565b50505060009060405161242a81610316565b6000815290565b929161243f9160009461239e565b9080612477575b61244d5750565b9091506020818051810103126101be5760206001600160a01b03910151612473816101ad565b1690565b506020815114612446565b92916124909160009461239e565b90806124b3575b61249e5750565b6113a1919250602080825183010191016121bd565b506020815114612497565b92916124cc9160009461239e565b90806124f1575b6124da5750565b9091506020818051810103126101be576020015190565b5060208151146124d3565b90602082519201517fffffffff0000000000000000000000000000000000000000000000000000000090818116936004811061253757505050565b60040360031b82901b16169150565b6001600160a01b0381161561237057600080918351908260208601915af19061256d6122e4565b9115612577575090565b8051600091906004116125f35761258e91506124fc565b81511561259e5750805190602001fd5b6040517f21c09d340000000000000000000000000000000000000000000000000000000081527fffffffff00000000000000000000000000000000000000000000000000000000919091166004820152602490fd5b5061258e56fea26469706673582212207ab2aa53a874e3d392aa598fca51c351f797808b922a9b19205611061ff749fd64736f6c6343000814003360803461009257601f61173838819003918201601f19168301916001600160401b038311848410176100975780849260209460405283398101031261009257516001600160a01b038116908190036100925780156100805760018060a01b031933816001541617600155600054161760005560405161168a90816100ae8239f35b60405163e6c4247b60e01b8152600490fd5b600080fd5b634e487b7160e01b600052604160045260246000fdfe60806040526004361015610018575b361561001657005b005b60003560e01c806312065fe0146100e85780631f185d16146100e3578063339459a6146100de5780633b9b7955146100d95780638da5cb5b146100d4578063a1f7f539146100cf578063a9059cbb146100ca578063af484526146100c5578063b90306ad146100c0578063c54e44b0146100bb578063e01ad5fd146100b6578063e0a9bc2b146100b15763fdc10bc90361000e57610e3a565b610e1f565b610d54565b610cce565b610bbc565b610b8b565b6109a7565b610932565b61090b565b6108e4565b610205565b61011a565b3461010457600036600319011261010457602047604051908152f35b600080fd5b6001600160a01b0381160361010457565b34610104576020806003193601126101045761019960043561013b81610109565b6001600160a01b0380600254169060405192168483015283825261015e82610ee0565b6040519061016b82610ee0565b601182527f69735369676e65722861646472657373290000000000000000000000000000008583015261146b565b9190806101fb575b156101d15781816101bb926101cd945183010191016112a3565b60405190151581529081906020820190565b0390f35b60046040517f3204506f000000000000000000000000000000000000000000000000000000008152fd5b50808251146101a1565b346101045760003660031901126101045761023761022b6000546001600160a01b031690565b6001600160a01b031690565b604051907f97f3815a000000000000000000000000000000000000000000000000000000008252602082600481845afa918215610714576000926108c3575b50604051917fcfbffe53000000000000000000000000000000000000000000000000000000008352602083600481855afa928315610714576000936108a2575b50604051907fab6e844f000000000000000000000000000000000000000000000000000000008252602082600481865afa91821561071457600092610881575b50604051917f14d8d024000000000000000000000000000000000000000000000000000000008352602083600481875afa92831561071457600093610860575b50604051927fd1f956b1000000000000000000000000000000000000000000000000000000008452602084600481885afa9384156107145760009461083f575b50604051937fe61dfd58000000000000000000000000000000000000000000000000000000008552602085600481895afa9485156107145760009561081e575b506040517fe09d394d0000000000000000000000000000000000000000000000000000000081526020816004818a5afa908115610714576000916107ff575b506040517f52b06d640000000000000000000000000000000000000000000000000000000081526020816004818b5afa908115610714576000916107e0575b506040517f013cf08b00000000000000000000000000000000000000000000000000000000815260006004820152916020836024818c5afa928315610714576000936107bf575b5060405197635e09dbe760e01b89526020896004818d5afa9485156107145760049960009661079e575b5060208b6040519b8c80927faa0ddc160000000000000000000000000000000000000000000000000000000082525afa9687156107145760049a60009861077d575b5060208c6040519c8d80927f640274270000000000000000000000000000000000000000000000000000000082525afa9889156107145760049b60009a61075c575b5060208d6040519d8e80927f30125cf50000000000000000000000000000000000000000000000000000000082525afa9a8b15610714578d60049d60009d61073a575b506020906040519e8f80927f24768d910000000000000000000000000000000000000000000000000000000082525afa9c8d156107145760009d610719575b50604051809e81907f9dc969a80000000000000000000000000000000000000000000000000000000082525a92600491602094fa9d8e156107145760009e6106e3575b506105f7610f63565b6001600160a01b0390911681529d8e906001600160a01b031660208201526040019061062b91906001600160a01b03169052565b6001600160a01b031660608d01526001600160a01b031660808c01526001600160a01b031660a08b01526001600160a01b031660c08a01526001600160a01b031660e08901526001600160a01b03166101008801526001600160a01b03166101208701526001600160a01b03166101408601526001600160a01b03166101608501526001600160a01b03166101808401526001600160a01b03166101a08301526001600160a01b03166101c082015261001690610f84565b610706919e5060203d60201161070d575b6106fe8183610f1d565b810190610f3f565b9c386105ee565b503d6106f4565b610f57565b610733919d5060203d60201161070d576106fe8183610f1d565b9b386105ab565b6020919d5061075590823d841161070d576106fe8183610f1d565b9c9061056c565b610776919a5060203d60201161070d576106fe8183610f1d565b9838610529565b61079791985060203d60201161070d576106fe8183610f1d565b96386104e7565b6107b891965060203d60201161070d576106fe8183610f1d565b94386104a5565b6107d991935060203d60201161070d576106fe8183610f1d565b913861047b565b6107f9915060203d60201161070d576106fe8183610f1d565b38610434565b610818915060203d60201161070d576106fe8183610f1d565b386103f5565b61083891955060203d60201161070d576106fe8183610f1d565b93386103b6565b61085991945060203d60201161070d576106fe8183610f1d565b9238610376565b61087a91935060203d60201161070d576106fe8183610f1d565b9138610336565b61089b91925060203d60201161070d576106fe8183610f1d565b90386102f6565b6108bc91935060203d60201161070d576106fe8183610f1d565b91386102b6565b6108dd91925060203d60201161070d576106fe8183610f1d565b9038610276565b346101045760003660031901126101045760206001600160a01b0360005416604051908152f35b346101045760003660031901126101045760206001600160a01b0360015416604051908152f35b3461010457600036600319011261010457602061099f6001600160a01b036006541660405161096081610ee0565b601381527f67657464656c656761746f72436f756e74282900000000000000000000000000848201526040519161099683610f01565b60008352611519565b604051908152f35b60408060031936011261010457600435906109c182610109565b602435916001600160a01b0391828216928315610b7b576109e06112bb565b15610b52576109ee33611340565b908115610b44575b5015610b345783804710610a3c575b610a30907f1e70cf59d0c7a20c88704bfce5a47e636dfa577ebf52a7166641741cef343661936113fa565b519283523392602090a3005b610a47600491610e9e565b926020610a5f61022b6000546001600160a01b031690565b845193848092635e09dbe760e01b82525afa90811561071457610b06610af388937f1e70cf59d0c7a20c88704bfce5a47e636dfa577ebf52a7166641741cef34366197610a3096600092610b10575b5087517fa9059cbb000000000000000000000000000000000000000000000000000000006020820152306024820152604481019190915291610b019083906064820190565b03601f198101845283610f1d565b6115a1565b5093509050610a05565b610b01919250610b2d9060203d811161070d576106fe8183610f1d565b9190610aae565b6004905163ea8e4eb560e01b8152fd5b6005541633149050386109f6565b600482517f9dc4246e000000000000000000000000000000000000000000000000000000008152fd5b6004825163e6c4247b60e01b8152fd5b34610104576020366003190112610104576020610bb2600435610bad81610109565b611340565b6040519015158152f35b34610104576020366003190112610104576004356001600160a01b03600554163303610cbd5760009060046020610bfd61022b85546001600160a01b031690565b604051928380927f46f991ac0000000000000000000000000000000000000000000000000000000082525afa80156107145783808481949382948391610c9f575b505af1610c496113ca565b50156101d1577fcdcc745fe377b103b45fa0cec23ae3ef93d6fc6a84a01f0d18c40b354dd1d5d8610c99610c8861022b600b546001600160a01b031690565b604051938452929081906020820190565b0390a280f35b610cb7915060203d811161070d576106fe8183610f1d565b38610c3e565b600460405163ea8e4eb560e01b8152fd5b3461010457602036600319011261010457600435610ceb81610109565b803b6000610cf882611287565b92610d066040519485610f1d565b82845260208401903c602d815110610d2a57602a602091015160601c604051908152f35b60046040517fbaf3f0f7000000000000000000000000000000000000000000000000000000008152fd5b3461010457602080600319360112610104576101cd9060043590610d7782610109565b610ddb6001600160a01b0392836006541693604051911683820152828152610d9e81610ee0565b604051610daa81610ee0565b601881527f697364656c656761746f724e6f646528616464726573732900000000000000008482015260009461146b565b919080610e15575b610dfc575b505060405190151581529081906020820190565b610e0e925080825183010191016112a3565b3880610de8565b5080825114610de3565b34610104576000366003190112610104576020610bb26112bb565b3461010457600036600319011261010457602061099f6001600160a01b0360035416604051610e6881610ee0565b600681527f6941676528290000000000000000000000000000000000000000000000000000848201526040519161099683610f01565b9068056bc75e2d631000008201809211610eb457565b634e487b7160e01b600052601160045260246000fd5b634e487b7160e01b600052604160045260246000fd5b6040810190811067ffffffffffffffff821117610efc57604052565b610eca565b6020810190811067ffffffffffffffff821117610efc57604052565b90601f8019910116810190811067ffffffffffffffff821117610efc57604052565b908160209103126101045751610f5481610109565b90565b6040513d6000823e3d90fd5b604051906101e0820182811067ffffffffffffffff821117610efc57604052565b6112696101c061128592610fbe610fa282516001600160a01b031690565b6001600160a01b03166001600160a01b03196002541617600255565b610ff1610fd560208301516001600160a01b031690565b6001600160a01b03166001600160a01b03196003541617600355565b61102461100860408301516001600160a01b031690565b6001600160a01b03166001600160a01b03196004541617600455565b61105761103b60608301516001600160a01b031690565b6001600160a01b03166001600160a01b03196005541617600555565b61108a61106e60808301516001600160a01b031690565b6001600160a01b03166001600160a01b03196006541617600655565b6110bd6110a160a08301516001600160a01b031690565b6001600160a01b03166001600160a01b03196007541617600755565b6110f06110d460c08301516001600160a01b031690565b6001600160a01b03166001600160a01b03196008541617600855565b61112361110760e08301516001600160a01b031690565b6001600160a01b03166001600160a01b03196009541617600955565b61115761113b6101008301516001600160a01b031690565b6001600160a01b03166001600160a01b0319600a541617600a55565b61118b61116f6101208301516001600160a01b031690565b6001600160a01b03166001600160a01b0319600b541617600b55565b6111bf6111a36101408301516001600160a01b031690565b6001600160a01b03166001600160a01b0319600c541617600c55565b6111f36111d76101608301516001600160a01b031690565b6001600160a01b03166001600160a01b0319600d541617600d55565b61122761120b6101808301516001600160a01b031690565b6001600160a01b03166001600160a01b0319600e541617600e55565b61125b61123f6101a08301516001600160a01b031690565b6001600160a01b03166001600160a01b0319600f541617600f55565b01516001600160a01b031690565b6001600160a01b03166001600160a01b03196010541617601055565b565b67ffffffffffffffff8111610efc57601f01601f191660200190565b90816020910312610104575180151581036101045790565b6113166001600160a01b03600254166040516112d681610ee0565b600881527f697353616665282900000000000000000000000000000000000000000000000060208201526040519161130d83610f01565b6000835261146b565b9080611335575b156101d15780602080610f54935183010191016112a3565b50602081511461131d565b6113a36001600160a01b03806002541660405191602094168483015283825261136882610ee0565b6040519061137582610ee0565b601582527f69735365637572654261736528616464726573732900000000000000000000008583015261146b565b90806113c0575b156101d15781610f5492825183010191016112a3565b50818151146113aa565b3d156113f5573d906113db82611287565b916113e96040519384610f1d565b82523d6000602084013e565b606090565b908015611467576001600160a01b03821691821561145657600080808481945af16114236113ca565b50156101d15760207fcec1f18c3ab8ddaaa107a1591e3c369667eec613626611a8deaedef43069fcdd91604051908152a2565b600460405163e6c4247b60e01b8152fd5b5050565b9190823b15611500577fffffffff00000000000000000000000000000000000000000000000000000000815160208093012016916040519180830193845281519160005b8381106114ec5750505091816114dc60248260009795968897018783820152036004810184520182610f1d565b51915afa6114e86113ca565b9091565b8181018301518582016024015282016114af565b50505060009060405161151281610f01565b6000815290565b92916115279160009461146b565b908061154c575b6115355750565b909150602081805181010312610104576020015190565b50602081511461152e565b90602082519201517fffffffff0000000000000000000000000000000000000000000000000000000090818116936004811061159257505050565b60040360031b82901b16169150565b6001600160a01b0381161561145657600080918351908260208601915af1906115c86113ca565b91156115d2575090565b80516000919060041161164e576115e99150611557565b8151156115f95750805190602001fd5b6040517f21c09d340000000000000000000000000000000000000000000000000000000081527fffffffff00000000000000000000000000000000000000000000000000000000919091166004820152602490fd5b506115e956fea26469706673582212209947953faf8440e43ecf80dc254cbb01d42624a74d761e4ab178cca50752695b64736f6c63430008140033","linkReferences":{}},"methodIdentifiers":{"instance()":"022ec095","tVLFactory()":"9ba540fb","tVLMining()":"d795ff38","tVLReward()":"b85c9faf","tVLRoyality()":"9443767c","tVLTour()":"dabf429d","tVLValidator()":"a50c0bc0"},"id":77}