{"abi":[{"type":"constructor","inputs":[{"name":"_hex","type":"address","internalType":"address"}],"stateMutability":"nonpayable"},{"type":"function","name":"instance","inputs":[],"outputs":[{"name":"","type":"address","internalType":"address"}],"stateMutability":"view"},{"type":"function","name":"tVLFactory","inputs":[],"outputs":[{"name":"","type":"address","internalType":"address"}],"stateMutability":"view"},{"type":"function","name":"tVLMining","inputs":[],"outputs":[{"name":"","type":"address","internalType":"address"}],"stateMutability":"view"},{"type":"function","name":"tVLReward","inputs":[],"outputs":[{"name":"","type":"address","internalType":"address"}],"stateMutability":"view"},{"type":"function","name":"tVLRoyality","inputs":[],"outputs":[{"name":"","type":"address","internalType":"address"}],"stateMutability":"view"},{"type":"function","name":"tVLTour","inputs":[],"outputs":[{"name":"","type":"address","internalType":"address"}],"stateMutability":"view"},{"type":"function","name":"tVLValidator","inputs":[],"outputs":[{"name":"","type":"address","internalType":"address"}],"stateMutability":"view"}],"bytecode":{"object":"0x60803461023957601f61423538819003918201601f19168301926001600160401b039290919083851183861017610223578083926040968752833960209283918101031261023957516001600160a01b0391908281169081900361023957845191612704928381019381851087861117610223576103f482398284528681600095868582015203019084f09485156102195783549585166001600160a01b0319968716178455865161173d8082019491808610848711176101e7578481612af8978489833985815203019087f080156101fb578716886001541617600155885181810181811085821117610205578186918489833985815203019087f080156101fb578716886002541617600255885181810181811085821117610205578186918489833985815203019087f080156101fb578716886003541617600355885181810181811085821117610205578186918489833985815203019087f080156101fb578716886004541617600455885181810181811085821117610205578186918489833985815203019087f080156101fb57871688600554161760055588519481860193868510908511176101e75790859392918439815203019082f09081156101dc575016906006541617600655516101b5908161023f8239f35b8451903d90823e3d90fd5b634e487b7160e01b87526041600452602487fd5b89513d88823e3d90fd5b634e487b7160e01b88526041600452602488fd5b86513d85823e3d90fd5b634e487b7160e01b600052604160045260246000fd5b600080fdfe60806040818152600436101561001457600080fd5b600091823560e01c908163022ec0951461015c575080639443767c146101355780639ba540fb1461010e578063a50c0bc0146100e7578063b85c9faf146100c0578063d795ff38146100995763dabf429d1461006f57600080fd5b346100955781600319360112610095576020906001600160a01b03600554169051908152f35b5080fd5b50346100955781600319360112610095576020906001600160a01b03600254169051908152f35b50346100955781600319360112610095576020906001600160a01b03600354169051908152f35b50346100955781600319360112610095576020906001600160a01b03600654169051908152f35b50346100955781600319360112610095576020906001600160a01b03600154169051908152f35b50346100955781600319360112610095576020906001600160a01b03600454169051908152f35b8390346100955781600319360112610095576001600160a01b0360209254168152f3fea2646970667358221220bedd476daa13fa3d592e0119b7193b86ec7295a060109afb58ba64b1d3ab169964736f6c63430008140033608034620000c157601f6200270438819003918201601f19168301916001600160401b03831184841017620000c6578084926040948552833981010312620000c1576200005a60206200005283620000dc565b9201620000dc565b6001600160a01b0391821691908215620000af5760018060a01b031992836001541690846000541617600055600160115533908433161717600155169060125416176012556040516126129081620000f28239f35b60405163e6c4247b60e01b8152600490fd5b600080fd5b634e487b7160e01b600052604160045260246000fd5b51906001600160a01b0382168203620000c15756fe60806040526004361015610018575b361561001657005b005b60003560e01c80630399c93c146101a857806306fdde03146101a357806312065fe01461019e5780631499c592146101995780631f185d16146101945780631f3c99c31461018f578063339459a61461018a5780633b9b7955146101855780633dbfd97c1461018057806360f96a8f1461017b5780638129fc1c146101765780638da5cb5b14610171578063a1f7f5391461016c578063a3e884b014610167578063af48452614610162578063af640d0f1461015d578063b28175c414610158578063b90306ad14610153578063c107930a1461014e578063c47f002714610149578063c54e44b014610144578063d4ace81b1461013f578063e01ad5fd1461013a578063e0a9bc2b146101355763fdc10bc90361000e5761116c565b611151565b6110d1565b6110b1565b61102b565b610fb8565b610e86565b610d57565b610d30565b610d12565b610ce1565b610b31565b610a95565b610a6e565b610773565b61074c565b6106b9565b610692565b610679565b610640565b610559565b6104c1565b6104a5565b6103c0565b6101c3565b6001600160a01b038116036101be57565b600080fd5b346101be5760203660031901126101be576004356101e0816101ad565b6101e86121b8565b1561027b576101f63361223d565b8015610267575b1561023d576102369061021360155415156113b1565b61021b6112f4565b61022f6001600160a01b038216151561176b565b47906122f7565b6001601155005b60046040517fea8e4eb5000000000000000000000000000000000000000000000000000000008152fd5b50336001600160a01b0360055416146101fd565b60046040517f9dc4246e000000000000000000000000000000000000000000000000000000008152fd5b90600182811c921680156102d5575b60208310146102bf57565b634e487b7160e01b600052602260045260246000fd5b91607f16916102b4565b634e487b7160e01b600052604160045260246000fd5b6040810190811067ffffffffffffffff82111761031157604052565b6102df565b6020810190811067ffffffffffffffff82111761031157604052565b610100810190811067ffffffffffffffff82111761031157604052565b90601f8019910116810190811067ffffffffffffffff82111761031157604052565b60005b8381106103845750506000910152565b8181015183820152602001610374565b604091602082526103b48151809281602086015260208686019101610371565b601f01601f1916010190565b346101be576000806003193601126104a25760405190806014546103e3816102a5565b80855291600191808316908115610478575060011461041d575b6104198561040d8187038261034f565b60405191829182610394565b0390f35b9250601483527fce6d7b5282bd9a3661ae061feed1dbda4e52ab073b1f9285be6e155d9c38d4ec5b82841061046057505050810160200161040d826104196103fd565b80546020858701810191909152909301928101610445565b8695506104199693506020925061040d94915060ff191682840152151560051b82010192936103fd565b80fd5b346101be5760003660031901126101be57602047604051908152f35b346101be5760203660031901126101be576004356104de816101ad565b6104e66121b8565b1561027b576104f43361223d565b8015610545575b1561023d576001600160a01b039061051660155415156113b1565b61051e6112f4565b1661052a81151561176b565b6001600160a01b031960125416176012556001601155600080f35b50336001600160a01b0360055416146104fb565b346101be576020806003193601126101be576105d860043561057a816101ad565b6001600160a01b0380600254169060405192168483015283825261059d826102f5565b604051906105aa826102f5565b601182527f69735369676e657228616464726573732900000000000000000000000000000085830152612381565b919080610636575b1561060c5781816105fa92610419945183010191016121a0565b60405190151581529081906020820190565b60046040517f3204506f000000000000000000000000000000000000000000000000000000008152fd5b50808251146105e0565b346101be5760003660031901126101be576001600160a01b0360015416330361023d57600019420142811161067457601655005b611209565b346101be5760003660031901126101be57610016611ada565b346101be5760003660031901126101be5760206001600160a01b0360005416604051908152f35b346101be5760203660031901126101be576001546001600160a01b03163381900361023d5761073961071d61073d9261072b6106fd6004546001600160a01b031690565b91604051938491602083019190916001600160a01b036020820193169052565b03601f19810184528361034f565b6107336111d0565b90612465565b1590565b61023d5761001660043561121f565b346101be5760003660031901126101be5760206001600160a01b0360125416604051908152f35b60003660031901126101be576107876112f4565b601554610a2a57610796611ada565b600a546001600160a01b03166001546001600160a01b031690604051916107f8602093806107d6848783019190916001600160a01b036020820193169052565b03936107ea601f199586810184528361034f565b6107f261132f565b90612414565b906001600160a01b038216156109775750916108c77f4ef260a9000000000000000000000000000000000000000000000000000000009261091b6108fa6109166108da6108cc7f3baee0ea0000000000000000000000000000000000000000000000000000000061096b9a6108c78a6108bb61087c6004546001600160a01b031690565b9361088f6001546001600160a01b031690565b604051938401969096526001600160a01b03908116602484015290941660448201529283906064820190565b0389810184528361034f565b612529565b878082518301019101611387565b939091936001600160a01b03166001600160a01b03196012541617601255565b6001600160a01b03166001600160a01b03196013541617601355565b601555565b600a546001600160a01b03169261095f61093d6001546001600160a01b031690565b604051968793840152602483019190916001600160a01b036020820193169052565b0390810184528361034f565b505b6100166001601155565b610a069150926109f9610a2594610916946108c761099d6004546001600160a01b031690565b916109b06012546001600160a01b031690565b6040517fb1c4907900000000000000000000000000000000000000000000000000000000888201526001600160a01b03918216602482015294166044850152836064810161095f565b8051810182019101611368565b9190916001600160a01b03166001600160a01b03196013541617601355565b61096d565b606460405162461bcd60e51b815260206004820152601660248201527f6d652e616c72656164792e696e697469616c697a6564000000000000000000006044820152fd5b346101be5760003660031901126101be5760206001600160a01b0360015416604051908152f35b346101be5760003660031901126101be576020610b026001600160a01b0360065416604051610ac3816102f5565b601381527f67657464656c656761746f72436f756e742829000000000000000000000000008482015260405191610af983610316565b600083526124a1565b604051908152f35b60809060031901126101be57600435610b22816101ad565b90602435906044359060643590565b610b3a36610b0a565b92610b4b60159392935415156113b1565b610b536113fc565b610b5b6112f4565b60018403610b6d5761096d935061164b565b50916007915014610b7f575b5061096d565b610be1610bf091610b986004546001600160a01b031690565b6015546040517f6a811244000000000000000000000000000000000000000000000000000000006020820152602481019190915260448101929092526108c7826064810161071d565b602080825183010191016115be565b9080471015610c74575b50804710610b795780610c3f7f992e981f1f6d8cb3a32ce3b31107393c58fbd9a9052cb415a19d578833bf80d692610c3a600c546001600160a01b031690565b6122f7565b600c54604080516001600160a01b0390921682526020820192909252429181019190915260006060820152608090a138610b79565b80610cac7f992e981f1f6d8cb3a32ce3b31107393c58fbd9a9052cb415a19d578833bf80d692610c3a6001546001600160a01b031690565b600154604080516001600160a01b0390921682526020820192909252429181019190915260006060820152608090a138610bfa565b346101be5760203660031901126101be576020610d08600435610d03816101ad565b61223d565b6040519015158152f35b346101be5760003660031901126101be576020601554604051908152f35b346101be5760003660031901126101be5760206001600160a01b0360135416604051908152f35b346101be5760203660031901126101be57600435610d736121b8565b1561027b576001600160a01b0360055416330361023d5760009060046020610db1610da585546001600160a01b031690565b6001600160a01b031690565b604051928380927f46f991ac0000000000000000000000000000000000000000000000000000000082525afa8015610e815783808481949382948391610e53575b505af1610dfd6122c7565b501561060c577fcdcc745fe377b103b45fa0cec23ae3ef93d6fc6a84a01f0d18c40b354dd1d5d8610e4d610e3c610da5600b546001600160a01b031690565b604051938452929081906020820190565b0390a280f35b610e74915060203d8111610e7a575b610e6c818361034f565b8101906117b6565b38610df2565b503d610e62565b6117cb565b610e8f36610b0a565b610ea06015949392945415156113b1565b610ea86121b8565b1561027b57610eb63361223d565b8015610f67575b1561023d57610eca6112f4565b610ed26121b8565b1561027b57610ee03361223d565b8015610f53575b1561023d5761096b93610f01610efc8561223d565b6115d4565b6001600160a01b03928360045416936015549560405196636e59fe2560e11b602089015260248801521660448601526064850152608484015260a4830152600060c483015260c482526108c782610332565b50336001600160a01b036005541614610ee7565b50336001600160a01b036005541614610ebd565b604051906101e0820182811067ffffffffffffffff82111761031157604052565b67ffffffffffffffff811161031157601f01601f191660200190565b346101be5760203660031901126101be5760043567ffffffffffffffff81116101be57366023820112156101be578060040135610ff481610f9c565b90611002604051928361034f565b80825236602482850101116101be57602081600092602461001696018386013783010152611432565b346101be5760203660031901126101be57600435611048816101ad565b803b600061105582610f9c565b92611063604051948561034f565b82845260208401903c602d81511061108757602a602091015160601c604051908152f35b60046040517fbaf3f0f7000000000000000000000000000000000000000000000000000000008152fd5b346101be5760003660031901126101be5760206016544210604051908152f35b346101be5760203660031901126101be576020610d086004356110f3816101ad565b6001600160a01b03806006541690604051921684830152838252611116826102f5565b60405190611123826102f5565b601882527f697364656c656761746f724e6f6465286164647265737329000000000000000085830152612465565b346101be5760003660031901126101be576020610d086121b8565b346101be5760003660031901126101be576020610b026001600160a01b036003541660405161119a816102f5565b600681527f69416765282900000000000000000000000000000000000000000000000000008482015260405191610af983610316565b604051906111dd826102f5565b601582527f69735573657245786973747328616464726573732900000000000000000000006020830152565b634e487b7160e01b600052601160045260246000fd5b6001600160a01b0361127c81600354166040519061123c82610316565b600082526040519061124d826102f5565b601382527f73657373696f6e54544c5365636f6e647328290000000000000000000000000060208301526124a1565b4201804211610674576016556013541690604051907f70878d04000000000000000000000000000000000000000000000000000000006020830152602482015260248152606081019181831067ffffffffffffffff841117610311576112e492604052612529565b50565b9190820391821161067457565b600260115414611305576002601155565b60046040517f3ee5aeb5000000000000000000000000000000000000000000000000000000008152fd5b6040519061133c826102f5565b601e82527f7265736f6c76655472616e7366657254617267657428616464726573732900006020830152565b91908260409103126101be5760208251920151611384816101ad565b90565b908160609103126101be57805191604060208301516113a5816101ad565b920151611384816101ad565b156113b857565b606460405162461bcd60e51b815260206004820152600f60248201527f6d652e696e76616c69642e696e697400000000000000000000000000000000006044820152fd5b60165442101561140857565b60046040517f1fd05a4a000000000000000000000000000000000000000000000000000000008152fd5b61143f60155415156113b1565b6114476113fc565b61144f6121b8565b1561027b576001906001600160a01b03825416330361023d5780519067ffffffffffffffff82116103115761148e826114896014546102a5565b61154d565b60209081601f84116001146114cb57509282939183926000946114c0575b50501b916000199060031b1c191617601455565b0151925038806114ac565b6014600052919083601f1981167fce6d7b5282bd9a3661ae061feed1dbda4e52ab073b1f9285be6e155d9c38d4ec946000905b88838310611533575050501061151a575b505050811b01601455565b015160001960f88460031b161c1916905538808061150f565b8587015188559096019594850194879350908101906114fe565b601f8111611559575050565b600090601482527fce6d7b5282bd9a3661ae061feed1dbda4e52ab073b1f9285be6e155d9c38d4ec906020601f850160051c830194106115b4575b601f0160051c01915b8281106115a957505050565b81815560010161159d565b9092508290611594565b91908260409103126101be576020825192015190565b156115db57565b606460405162461bcd60e51b815260206004820152601360248201527f6d652e756e7365637572652e4f524331313535000000000000000000000000006044820152fd5b9060158202918083046015149015171561067457565b90602d820291808304602d149015171561067457565b91611658610efc8461223d565b3461166257505050565b6108c76112e49361170461167f6116783461161f565b6064900490565b6116f361169661168e34611635565b6103e8900490565b6116e26116a561168e34611635565b936116d16116c0866116bb866116bb86346112e7565b6112e7565b600b546001600160a01b03166122f7565b600d546001600160a01b03166122f7565b600e546001600160a01b03166122f7565b600f546001600160a01b03166122f7565b61071d6117196004546001600160a01b031690565b9360155490604051968794636e59fe2560e11b6020870152349360248701919360a0936001600160a01b036001969897939860c086019986521660208501526040840152606083015260808201520152565b1561177257565b606460405162461bcd60e51b815260206004820152600f60248201527f6d652e7a65726f2e6164647265737300000000000000000000000000000000006044820152fd5b908160209103126101be5751611384816101ad565b6040513d6000823e3d90fd5b611abc6101c0611ad8926118116117f582516001600160a01b031690565b6001600160a01b03166001600160a01b03196002541617600255565b61184461182860208301516001600160a01b031690565b6001600160a01b03166001600160a01b03196003541617600355565b61187761185b60408301516001600160a01b031690565b6001600160a01b03166001600160a01b03196004541617600455565b6118aa61188e60608301516001600160a01b031690565b6001600160a01b03166001600160a01b03196005541617600555565b6118dd6118c160808301516001600160a01b031690565b6001600160a01b03166001600160a01b03196006541617600655565b6119106118f460a08301516001600160a01b031690565b6001600160a01b03166001600160a01b03196007541617600755565b61194361192760c08301516001600160a01b031690565b6001600160a01b03166001600160a01b03196008541617600855565b61197661195a60e08301516001600160a01b031690565b6001600160a01b03166001600160a01b03196009541617600955565b6119aa61198e6101008301516001600160a01b031690565b6001600160a01b03166001600160a01b0319600a541617600a55565b6119de6119c26101208301516001600160a01b031690565b6001600160a01b03166001600160a01b0319600b541617600b55565b611a126119f66101408301516001600160a01b031690565b6001600160a01b03166001600160a01b0319600c541617600c55565b611a46611a2a6101608301516001600160a01b031690565b6001600160a01b03166001600160a01b0319600d541617600d55565b611a7a611a5e6101808301516001600160a01b031690565b6001600160a01b03166001600160a01b0319600e541617600e55565b611aae611a926101a08301516001600160a01b031690565b6001600160a01b03166001600160a01b0319600f541617600f55565b01516001600160a01b031690565b6001600160a01b03166001600160a01b03196010541617601055565b565b611aef610da56000546001600160a01b031690565b604051907f97f3815a000000000000000000000000000000000000000000000000000000008252602082600481845afa918215610e815760009261217f575b50604051917fcfbffe53000000000000000000000000000000000000000000000000000000008352602083600481855afa928315610e815760009361215e575b50604051907fab6e844f000000000000000000000000000000000000000000000000000000008252602082600481865afa918215610e815760009261213d575b50604051917f14d8d024000000000000000000000000000000000000000000000000000000008352602083600481875afa928315610e815760009361211c575b50604051927fd1f956b1000000000000000000000000000000000000000000000000000000008452602084600481885afa938415610e81576000946120fb575b50604051937fe61dfd58000000000000000000000000000000000000000000000000000000008552602085600481895afa948515610e81576000956120da575b506040517fe09d394d0000000000000000000000000000000000000000000000000000000081526020816004818a5afa908115610e81576000916120bb575b506040517f52b06d640000000000000000000000000000000000000000000000000000000081526020816004818b5afa908115610e815760009161209c575b506040517f013cf08b00000000000000000000000000000000000000000000000000000000815260006004820152916020836024818c5afa928315610e815760009361207b575b50604051977f5e09dbe70000000000000000000000000000000000000000000000000000000089526020896004818d5afa948515610e815760049960009661205a575b5060208b6040519b8c80927faa0ddc160000000000000000000000000000000000000000000000000000000082525afa968715610e815760049a600098612039575b5060208c6040519c8d80927f640274270000000000000000000000000000000000000000000000000000000082525afa988915610e815760049b60009a612018575b5060208d6040519d8e80927f30125cf50000000000000000000000000000000000000000000000000000000082525afa9a8b15610e81578d60049d60009d611ff6575b506020906040519e8f80927f24768d910000000000000000000000000000000000000000000000000000000082525afa9c8d15610e815760009d611fd5575b50604051809e81907f9dc969a80000000000000000000000000000000000000000000000000000000082525a92600491602094fa9d8e15610e815760009e611fb4575b50611ec8610f7b565b6001600160a01b0390911681529d8e906001600160a01b0316602082015260400190611efc91906001600160a01b03169052565b6001600160a01b031660608d01526001600160a01b031660808c01526001600160a01b031660a08b01526001600160a01b031660c08a01526001600160a01b031660e08901526001600160a01b03166101008801526001600160a01b03166101208701526001600160a01b03166101408601526001600160a01b03166101608501526001600160a01b03166101808401526001600160a01b03166101a08301526001600160a01b03166101c0820152611ad8906117d7565b611fce919e5060203d602011610e7a57610e6c818361034f565b9c38611ebf565b611fef919d5060203d602011610e7a57610e6c818361034f565b9b38611e7c565b6020919d5061201190823d8411610e7a57610e6c818361034f565b9c90611e3d565b612032919a5060203d602011610e7a57610e6c818361034f565b9838611dfa565b61205391985060203d602011610e7a57610e6c818361034f565b9638611db8565b61207491965060203d602011610e7a57610e6c818361034f565b9438611d76565b61209591935060203d602011610e7a57610e6c818361034f565b9138611d33565b6120b5915060203d602011610e7a57610e6c818361034f565b38611cec565b6120d4915060203d602011610e7a57610e6c818361034f565b38611cad565b6120f491955060203d602011610e7a57610e6c818361034f565b9338611c6e565b61211591945060203d602011610e7a57610e6c818361034f565b9238611c2e565b61213691935060203d602011610e7a57610e6c818361034f565b9138611bee565b61215791925060203d602011610e7a57610e6c818361034f565b9038611bae565b61217891935060203d602011610e7a57610e6c818361034f565b9138611b6e565b61219991925060203d602011610e7a57610e6c818361034f565b9038611b2e565b908160209103126101be575180151581036101be5790565b6122136001600160a01b03600254166040516121d3816102f5565b600881527f697353616665282900000000000000000000000000000000000000000000000060208201526040519161220a83610316565b60008352612381565b9080612232575b1561060c5780602080611384935183010191016121a0565b50602081511461221a565b6122a06001600160a01b038060025416604051916020941684830152838252612265826102f5565b60405190612272826102f5565b601582527f697353656375726542617365286164647265737329000000000000000000000085830152612381565b90806122bd575b1561060c578161138492825183010191016121a0565b50818151146122a7565b3d156122f2573d906122d882610f9c565b916122e6604051938461034f565b82523d6000602084013e565b606090565b90801561237d576001600160a01b03821691821561235357600080808481945af16123206122c7565b501561060c5760207fcec1f18c3ab8ddaaa107a1591e3c369667eec613626611a8deaedef43069fcdd91604051908152a2565b60046040517fe6c4247b000000000000000000000000000000000000000000000000000000008152fd5b5050565b803b156123fb576000927fffffffff0000000000000000000000000000000000000000000000000000000083602086955191012016906123eb60246040518093602082019586526123db8151809260208686019101610371565b810103600481018452018261034f565b51915afa6123f76122c7565b9091565b50505060009060405161240d81610316565b6000815290565b929161242291600094612381565b908061245a575b6124305750565b9091506020818051810103126101be5760206001600160a01b03910151612456816101ad565b1690565b506020815114612429565b929161247391600094612381565b9080612496575b6124815750565b611384919250602080825183010191016121a0565b50602081511461247a565b92916124af91600094612381565b90806124d4575b6124bd5750565b9091506020818051810103126101be576020015190565b5060208151146124b6565b90602082519201517fffffffff0000000000000000000000000000000000000000000000000000000090818116936004811061251a57505050565b60040360031b82901b16169150565b6001600160a01b0381161561235357600080918351908260208601915af1906125506122c7565b911561255a575090565b8051600091906004116125d65761257191506124df565b8151156125815750805190602001fd5b6040517f21c09d340000000000000000000000000000000000000000000000000000000081527fffffffff00000000000000000000000000000000000000000000000000000000919091166004820152602490fd5b5061257156fea264697066735822122091e8eb5e5432a279ead74ef9beef0a6598f5febccc8b4c1ade4640befcd3e02364736f6c6343000814003360803461009257601f61173d38819003918201601f19168301916001600160401b038311848410176100975780849260209460405283398101031261009257516001600160a01b038116908190036100925780156100805760018060a01b031933816001541617600155600054161760005560405161168f90816100ae8239f35b60405163e6c4247b60e01b8152600490fd5b600080fd5b634e487b7160e01b600052604160045260246000fdfe60806040526004361015610018575b361561001657005b005b60003560e01c806312065fe0146100e85780631f185d16146100e3578063339459a6146100de5780633b9b7955146100d95780638da5cb5b146100d4578063a1f7f539146100cf578063a9059cbb146100ca578063af484526146100c5578063b90306ad146100c0578063c54e44b0146100bb578063e01ad5fd146100b6578063e0a9bc2b146100b15763fdc10bc90361000e57610e3f565b610e24565b610d59565b610cd3565b610ba3565b610b72565b6109a7565b610932565b61090b565b6108e4565b610205565b61011a565b3461010457600036600319011261010457602047604051908152f35b600080fd5b6001600160a01b0381160361010457565b34610104576020806003193601126101045761019960043561013b81610109565b6001600160a01b0380600254169060405192168483015283825261015e82610ee5565b6040519061016b82610ee5565b601182527f69735369676e657228616464726573732900000000000000000000000000000085830152611470565b9190806101fb575b156101d15781816101bb926101cd945183010191016112a8565b60405190151581529081906020820190565b0390f35b60046040517f3204506f000000000000000000000000000000000000000000000000000000008152fd5b50808251146101a1565b346101045760003660031901126101045761023761022b6000546001600160a01b031690565b6001600160a01b031690565b604051907f97f3815a000000000000000000000000000000000000000000000000000000008252602082600481845afa918215610714576000926108c3575b50604051917fcfbffe53000000000000000000000000000000000000000000000000000000008352602083600481855afa928315610714576000936108a2575b50604051907fab6e844f000000000000000000000000000000000000000000000000000000008252602082600481865afa91821561071457600092610881575b50604051917f14d8d024000000000000000000000000000000000000000000000000000000008352602083600481875afa92831561071457600093610860575b50604051927fd1f956b1000000000000000000000000000000000000000000000000000000008452602084600481885afa9384156107145760009461083f575b50604051937fe61dfd58000000000000000000000000000000000000000000000000000000008552602085600481895afa9485156107145760009561081e575b506040517fe09d394d0000000000000000000000000000000000000000000000000000000081526020816004818a5afa908115610714576000916107ff575b506040517f52b06d640000000000000000000000000000000000000000000000000000000081526020816004818b5afa908115610714576000916107e0575b506040517f013cf08b00000000000000000000000000000000000000000000000000000000815260006004820152916020836024818c5afa928315610714576000936107bf575b5060405197635e09dbe760e01b89526020896004818d5afa9485156107145760049960009661079e575b5060208b6040519b8c80927faa0ddc160000000000000000000000000000000000000000000000000000000082525afa9687156107145760049a60009861077d575b5060208c6040519c8d80927f640274270000000000000000000000000000000000000000000000000000000082525afa9889156107145760049b60009a61075c575b5060208d6040519d8e80927f30125cf50000000000000000000000000000000000000000000000000000000082525afa9a8b15610714578d60049d60009d61073a575b506020906040519e8f80927f24768d910000000000000000000000000000000000000000000000000000000082525afa9c8d156107145760009d610719575b50604051809e81907f9dc969a80000000000000000000000000000000000000000000000000000000082525a92600491602094fa9d8e156107145760009e6106e3575b506105f7610f68565b6001600160a01b0390911681529d8e906001600160a01b031660208201526040019061062b91906001600160a01b03169052565b6001600160a01b031660608d01526001600160a01b031660808c01526001600160a01b031660a08b01526001600160a01b031660c08a01526001600160a01b031660e08901526001600160a01b03166101008801526001600160a01b03166101208701526001600160a01b03166101408601526001600160a01b03166101608501526001600160a01b03166101808401526001600160a01b03166101a08301526001600160a01b03166101c082015261001690610f89565b610706919e5060203d60201161070d575b6106fe8183610f22565b810190610f44565b9c386105ee565b503d6106f4565b610f5c565b610733919d5060203d60201161070d576106fe8183610f22565b9b386105ab565b6020919d5061075590823d841161070d576106fe8183610f22565b9c9061056c565b610776919a5060203d60201161070d576106fe8183610f22565b9838610529565b61079791985060203d60201161070d576106fe8183610f22565b96386104e7565b6107b891965060203d60201161070d576106fe8183610f22565b94386104a5565b6107d991935060203d60201161070d576106fe8183610f22565b913861047b565b6107f9915060203d60201161070d576106fe8183610f22565b38610434565b610818915060203d60201161070d576106fe8183610f22565b386103f5565b61083891955060203d60201161070d576106fe8183610f22565b93386103b6565b61085991945060203d60201161070d576106fe8183610f22565b9238610376565b61087a91935060203d60201161070d576106fe8183610f22565b9138610336565b61089b91925060203d60201161070d576106fe8183610f22565b90386102f6565b6108bc91935060203d60201161070d576106fe8183610f22565b91386102b6565b6108dd91925060203d60201161070d576106fe8183610f22565b9038610276565b346101045760003660031901126101045760206001600160a01b0360005416604051908152f35b346101045760003660031901126101045760206001600160a01b0360015416604051908152f35b3461010457600036600319011261010457602061099f6001600160a01b036006541660405161096081610ee5565b601381527f67657464656c656761746f72436f756e74282900000000000000000000000000848201526040519161099683610f06565b6000835261151e565b604051908152f35b60408060031936011261010457600435906109c182610109565b602435916001600160a01b0391828216928315610b62576109e06112c0565b15610b52576109ee33611345565b908115610b44575b5015610b345783804710610a3c575b610a30907f1e70cf59d0c7a20c88704bfce5a47e636dfa577ebf52a7166641741cef343661936113ff565b519283523392602090a3005b610a47600491610ea3565b926020610a5f61022b6000546001600160a01b031690565b845193848092635e09dbe760e01b82525afa90811561071457610b06610af388937f1e70cf59d0c7a20c88704bfce5a47e636dfa577ebf52a7166641741cef34366197610a3096600092610b10575b5087517fa9059cbb000000000000000000000000000000000000000000000000000000006020820152306024820152604481019190915291610b019083906064820190565b03601f198101845283610f22565b6115a6565b5093509050610a05565b610b01919250610b2d9060203d811161070d576106fe8183610f22565b9190610aae565b6004905163ea8e4eb560e01b8152fd5b6005541633149050386109f6565b60048251634ee2123760e11b8152fd5b6004825163e6c4247b60e01b8152fd5b34610104576020366003190112610104576020610b99600435610b9481610109565b611345565b6040519015158152f35b3461010457602036600319011261010457600435610bbf6112c0565b15610cc2576001600160a01b03600554163303610cb15760009060046020610bf161022b85546001600160a01b031690565b604051928380927f46f991ac0000000000000000000000000000000000000000000000000000000082525afa80156107145783808481949382948391610c93575b505af1610c3d6113cf565b50156101d1577fcdcc745fe377b103b45fa0cec23ae3ef93d6fc6a84a01f0d18c40b354dd1d5d8610c8d610c7c61022b600b546001600160a01b031690565b604051938452929081906020820190565b0390a280f35b610cab915060203d811161070d576106fe8183610f22565b38610c32565b600460405163ea8e4eb560e01b8152fd5b6004604051634ee2123760e11b8152fd5b3461010457602036600319011261010457600435610cf081610109565b803b6000610cfd8261128c565b92610d0b6040519485610f22565b82845260208401903c602d815110610d2f57602a602091015160601c604051908152f35b60046040517fbaf3f0f7000000000000000000000000000000000000000000000000000000008152fd5b3461010457602080600319360112610104576101cd9060043590610d7c82610109565b610de06001600160a01b0392836006541693604051911683820152828152610da381610ee5565b604051610daf81610ee5565b601881527f697364656c656761746f724e6f6465286164647265737329000000000000000084820152600094611470565b919080610e1a575b610e01575b505060405190151581529081906020820190565b610e13925080825183010191016112a8565b3880610ded565b5080825114610de8565b34610104576000366003190112610104576020610b996112c0565b3461010457600036600319011261010457602061099f6001600160a01b0360035416604051610e6d81610ee5565b600681527f6941676528290000000000000000000000000000000000000000000000000000848201526040519161099683610f06565b9068056bc75e2d631000008201809211610eb957565b634e487b7160e01b600052601160045260246000fd5b634e487b7160e01b600052604160045260246000fd5b6040810190811067ffffffffffffffff821117610f0157604052565b610ecf565b6020810190811067ffffffffffffffff821117610f0157604052565b90601f8019910116810190811067ffffffffffffffff821117610f0157604052565b908160209103126101045751610f5981610109565b90565b6040513d6000823e3d90fd5b604051906101e0820182811067ffffffffffffffff821117610f0157604052565b61126e6101c061128a92610fc3610fa782516001600160a01b031690565b6001600160a01b03166001600160a01b03196002541617600255565b610ff6610fda60208301516001600160a01b031690565b6001600160a01b03166001600160a01b03196003541617600355565b61102961100d60408301516001600160a01b031690565b6001600160a01b03166001600160a01b03196004541617600455565b61105c61104060608301516001600160a01b031690565b6001600160a01b03166001600160a01b03196005541617600555565b61108f61107360808301516001600160a01b031690565b6001600160a01b03166001600160a01b03196006541617600655565b6110c26110a660a08301516001600160a01b031690565b6001600160a01b03166001600160a01b03196007541617600755565b6110f56110d960c08301516001600160a01b031690565b6001600160a01b03166001600160a01b03196008541617600855565b61112861110c60e08301516001600160a01b031690565b6001600160a01b03166001600160a01b03196009541617600955565b61115c6111406101008301516001600160a01b031690565b6001600160a01b03166001600160a01b0319600a541617600a55565b6111906111746101208301516001600160a01b031690565b6001600160a01b03166001600160a01b0319600b541617600b55565b6111c46111a86101408301516001600160a01b031690565b6001600160a01b03166001600160a01b0319600c541617600c55565b6111f86111dc6101608301516001600160a01b031690565b6001600160a01b03166001600160a01b0319600d541617600d55565b61122c6112106101808301516001600160a01b031690565b6001600160a01b03166001600160a01b0319600e541617600e55565b6112606112446101a08301516001600160a01b031690565b6001600160a01b03166001600160a01b0319600f541617600f55565b01516001600160a01b031690565b6001600160a01b03166001600160a01b03196010541617601055565b565b67ffffffffffffffff8111610f0157601f01601f191660200190565b90816020910312610104575180151581036101045790565b61131b6001600160a01b03600254166040516112db81610ee5565b600881527f697353616665282900000000000000000000000000000000000000000000000060208201526040519161131283610f06565b60008352611470565b908061133a575b156101d15780602080610f59935183010191016112a8565b506020815114611322565b6113a86001600160a01b03806002541660405191602094168483015283825261136d82610ee5565b6040519061137a82610ee5565b601582527f697353656375726542617365286164647265737329000000000000000000000085830152611470565b90806113c5575b156101d15781610f5992825183010191016112a8565b50818151146113af565b3d156113fa573d906113e08261128c565b916113ee6040519384610f22565b82523d6000602084013e565b606090565b90801561146c576001600160a01b03821691821561145b57600080808481945af16114286113cf565b50156101d15760207fcec1f18c3ab8ddaaa107a1591e3c369667eec613626611a8deaedef43069fcdd91604051908152a2565b600460405163e6c4247b60e01b8152fd5b5050565b9190823b15611505577fffffffff00000000000000000000000000000000000000000000000000000000815160208093012016916040519180830193845281519160005b8381106114f15750505091816114e160248260009795968897018783820152036004810184520182610f22565b51915afa6114ed6113cf565b9091565b8181018301518582016024015282016114b4565b50505060009060405161151781610f06565b6000815290565b929161152c91600094611470565b9080611551575b61153a5750565b909150602081805181010312610104576020015190565b506020815114611533565b90602082519201517fffffffff0000000000000000000000000000000000000000000000000000000090818116936004811061159757505050565b60040360031b82901b16169150565b6001600160a01b0381161561145b57600080918351908260208601915af1906115cd6113cf565b91156115d7575090565b805160009190600411611653576115ee915061155c565b8151156115fe5750805190602001fd5b6040517f21c09d340000000000000000000000000000000000000000000000000000000081527fffffffff00000000000000000000000000000000000000000000000000000000919091166004820152602490fd5b506115ee56fea2646970667358221220443581cc8a0d6f6dee4d313936bed63a9e94ae6308e046b421ca478796c3154764736f6c63430008140033","linkReferences":{}},"methodIdentifiers":{"instance()":"022ec095","tVLFactory()":"9ba540fb","tVLMining()":"d795ff38","tVLReward()":"b85c9faf","tVLRoyality()":"9443767c","tVLTour()":"dabf429d","tVLValidator()":"a50c0bc0"},"id":77}