{"abi":[{"type":"constructor","inputs":[{"name":"_hex","type":"address","internalType":"address"}],"stateMutability":"nonpayable"},{"type":"function","name":"instance","inputs":[],"outputs":[{"name":"","type":"address","internalType":"address"}],"stateMutability":"view"},{"type":"function","name":"tVLFactory","inputs":[],"outputs":[{"name":"","type":"address","internalType":"address"}],"stateMutability":"view"},{"type":"function","name":"tVLMining","inputs":[],"outputs":[{"name":"","type":"address","internalType":"address"}],"stateMutability":"view"},{"type":"function","name":"tVLReward","inputs":[],"outputs":[{"name":"","type":"address","internalType":"address"}],"stateMutability":"view"},{"type":"function","name":"tVLRoyality","inputs":[],"outputs":[{"name":"","type":"address","internalType":"address"}],"stateMutability":"view"},{"type":"function","name":"tVLTour","inputs":[],"outputs":[{"name":"","type":"address","internalType":"address"}],"stateMutability":"view"},{"type":"function","name":"tVLValidator","inputs":[],"outputs":[{"name":"","type":"address","internalType":"address"}],"stateMutability":"view"}],"bytecode":{"object":"0x60803461023957601f6144d438819003918201601f19168301926001600160401b039290919083851183861017610223578083926040968752833960209283918101031261023957516001600160a01b0391908281169081900361023957845191612a27928381019381851087861117610223576103f482398284528681600095868582015203019084f09485156102195783549585166001600160a01b031996871617845586516116b98082019491808610848711176101e7578481612e1b978489833985815203019087f080156101fb578716886001541617600155885181810181811085821117610205578186918489833985815203019087f080156101fb578716886002541617600255885181810181811085821117610205578186918489833985815203019087f080156101fb578716886003541617600355885181810181811085821117610205578186918489833985815203019087f080156101fb578716886004541617600455885181810181811085821117610205578186918489833985815203019087f080156101fb57871688600554161760055588519481860193868510908511176101e75790859392918439815203019082f09081156101dc575016906006541617600655516101b5908161023f8239f35b8451903d90823e3d90fd5b634e487b7160e01b87526041600452602487fd5b89513d88823e3d90fd5b634e487b7160e01b88526041600452602488fd5b86513d85823e3d90fd5b634e487b7160e01b600052604160045260246000fd5b600080fdfe60806040818152600436101561001457600080fd5b600091823560e01c908163022ec0951461015c575080639443767c146101355780639ba540fb1461010e578063a50c0bc0146100e7578063b85c9faf146100c0578063d795ff38146100995763dabf429d1461006f57600080fd5b346100955781600319360112610095576020906001600160a01b03600554169051908152f35b5080fd5b50346100955781600319360112610095576020906001600160a01b03600254169051908152f35b50346100955781600319360112610095576020906001600160a01b03600354169051908152f35b50346100955781600319360112610095576020906001600160a01b03600654169051908152f35b50346100955781600319360112610095576020906001600160a01b03600154169051908152f35b50346100955781600319360112610095576020906001600160a01b03600454169051908152f35b8390346100955781600319360112610095576001600160a01b0360209254168152f3fea2646970667358221220854b56b55acfcc77848cc1ea77d3526145b61c7b8d4e3dd5498fd5df2a1e09eb64736f6c63430008140033608034620000c157601f62002a2738819003918201601f19168301916001600160401b03831184841017620000c6578084926040948552833981010312620000c1576200005a60206200005283620000dc565b9201620000dc565b6001600160a01b0391821691908215620000af5760018060a01b031992836001541690846000541617600055600160115533908433161717600155169060125416176012556040516129359081620000f28239f35b60405163e6c4247b60e01b8152600490fd5b600080fd5b634e487b7160e01b600052604160045260246000fd5b51906001600160a01b0382168203620000c15756fe60806040526004361015610018575b361561001657005b005b60003560e01c80630399c93c146101d857806306fdde03146101d357806312065fe0146101ce5780631499c592146101c95780631f185d16146101c45780631f3c99c3146101bf578063339459a6146101ba5780633b9b7955146101b55780633dbfd97c146101b057806360f96a8f146101ab578063641657cb146101a65780638129fc1c146101a15780638da5cb5b1461019c5780639c75dd3514610197578063a1f7f53914610192578063a3e884b01461018d578063af48452614610188578063af640d0f14610183578063b28175c41461017e578063b90306ad14610179578063c107930a14610174578063c47f00271461016f578063c54e44b01461016a578063cfcf2c2d14610165578063d4ace81b14610160578063e01ad5fd1461015b578063e0a9bc2b146101565763fdc10bc90361000e57611259565b61123e565b6111be565b61119e565b61117b565b6110f5565b611082565b610f55565b610e26565b610dff565b610de1565b610db0565b610c17565b610b7b565b610b5f565b610b38565b61083d565b6107c8565b610797565b6106e9565b6106c2565b6106a9565b610670565b610589565b6104f1565b6104d5565b6103f0565b6101f3565b6001600160a01b038116036101ee57565b600080fd5b346101ee5760203660031901126101ee57600435610210816101dd565b610218612489565b156102ab576102263361250e565b8015610297575b1561026d576102669061024360155415156112bf565b61024b6115ca565b61025f6001600160a01b0382161515611a41565b479061261a565b6001601155005b60046040517fea8e4eb5000000000000000000000000000000000000000000000000000000008152fd5b50336001600160a01b03600554161461022d565b60046040517f9dc4246e000000000000000000000000000000000000000000000000000000008152fd5b90600182811c92168015610305575b60208310146102ef57565b634e487b7160e01b600052602260045260246000fd5b91607f16916102e4565b634e487b7160e01b600052604160045260246000fd5b6040810190811067ffffffffffffffff82111761034157604052565b61030f565b6020810190811067ffffffffffffffff82111761034157604052565b610100810190811067ffffffffffffffff82111761034157604052565b90601f8019910116810190811067ffffffffffffffff82111761034157604052565b60005b8381106103b45750506000910152565b81810151838201526020016103a4565b604091602082526103e481518092816020860152602086860191016103a1565b601f01601f1916010190565b346101ee576000806003193601126104d2576040519080601454610413816102d5565b808552916001918083169081156104a8575060011461044d575b6104498561043d8187038261037f565b604051918291826103c4565b0390f35b9250601483527fce6d7b5282bd9a3661ae061feed1dbda4e52ab073b1f9285be6e155d9c38d4ec5b82841061049057505050810160200161043d8261044961042d565b80546020858701810191909152909301928101610475565b8695506104499693506020925061043d94915060ff191682840152151560051b820101929361042d565b80fd5b346101ee5760003660031901126101ee57602047604051908152f35b346101ee5760203660031901126101ee5760043561050e816101dd565b610516612489565b156102ab576105243361250e565b8015610575575b1561026d576001600160a01b039061054660155415156112bf565b61054e6115ca565b1661055a811515611a41565b6001600160a01b031960125416176012556001601155600080f35b50336001600160a01b03600554161461052b565b346101ee576020806003193601126101ee576106086004356105aa816101dd565b6001600160a01b038060025416906040519216848301528382526105cd82610325565b604051906105da82610325565b601182527f69735369676e6572286164647265737329000000000000000000000000000000858301526126a4565b919080610666575b1561063c57818161062a9261044994518301019101612474565b60405190151581529081906020820190565b60046040517f3204506f000000000000000000000000000000000000000000000000000000008152fd5b5080825114610610565b346101ee5760003660031901126101ee576001600160a01b0360015416330361026d5760001942014281116106a457601655005b61135b565b346101ee5760003660031901126101ee57610016611dae565b346101ee5760003660031901126101ee5760206001600160a01b0360005416604051908152f35b346101ee5760203660031901126101ee5761070860ff60185416611274565b61071560155415156112bf565b6001546001600160a01b03163381900361026d57610784610768610788926107766107486004546001600160a01b031690565b91604051938491602083019190916001600160a01b036020820193169052565b03601f19810184528361037f565b61077e61130a565b90612788565b1590565b61026d57610016600435611371565b346101ee5760003660031901126101ee5760206001600160a01b0360125416604051908152f35b801515036101ee57565b346101ee5760203660031901126101ee576004356107e5816107be565b6107f260155415156112bf565b6107fa612489565b156102ab576108083361250e565b8015610829575b1561026d5760ff8019601854169115151617601855600080f35b50336001600160a01b03600554161461080f565b60003660031901126101ee576108516115ca565b601554610af457610860611dae565b600a546001600160a01b03166001546001600160a01b031690604051916108c2602093806108a0848783019190916001600160a01b036020820193169052565b03936108b4601f199586810184528361037f565b6108bc611605565b90612737565b906001600160a01b03821615610a415750916109917f4ef260a900000000000000000000000000000000000000000000000000000000926109e56109c46109e06109a46109967f3baee0ea00000000000000000000000000000000000000000000000000000000610a359a6109918a6109856109466004546001600160a01b031690565b936109596001546001600160a01b031690565b604051938401969096526001600160a01b03908116602484015290941660448201529283906064820190565b0389810184528361037f565b61284c565b87808251830101910161165d565b939091936001600160a01b03166001600160a01b03196012541617601255565b6001600160a01b03166001600160a01b03196013541617601355565b601555565b600a546001600160a01b031692610a29610a076001546001600160a01b031690565b604051968793840152602483019190916001600160a01b036020820193169052565b0390810184528361037f565b505b6100166001601155565b610ad0915092610ac3610aef946109e094610991610a676004546001600160a01b031690565b91610a7a6012546001600160a01b031690565b6040517fb1c4907900000000000000000000000000000000000000000000000000000000888201526001600160a01b039182166024820152941660448501528360648101610a29565b805181018201910161163e565b9190916001600160a01b03166001600160a01b03196013541617601355565b610a37565b606460405162461bcd60e51b815260206004820152601660248201527f6d652e616c72656164792e696e697469616c697a6564000000000000000000006044820152fd5b346101ee5760003660031901126101ee5760206001600160a01b0360015416604051908152f35b346101ee5760203660031901126101ee576100166004356114bc565b346101ee5760003660031901126101ee576020610be86001600160a01b0360065416604051610ba981610325565b601381527f67657464656c656761746f72436f756e742829000000000000000000000000008482015260405191610bdf83610346565b600083526127c4565b604051908152f35b60809060031901126101ee57600435610c08816101dd565b90602435906044359060643590565b610c2036610bf0565b610c2d60155415156112bf565b610c3b60ff60185416611274565b610c43611687565b610c4b6115ca565b60018103610d8f5750610c65610c608461250e565b6119ca565b34610c78575b5050506100166001601155565b610991610d8693610d1f610c95610c8e34611a15565b6064900490565b610d0e610cac610ca434611a2b565b6103e8900490565b610cfd610cbb610ca434611a2b565b93610cec610cd686610cd186610cd18634611416565b611416565b600b546001600160a01b031661261a565b61261a565b600d546001600160a01b031661261a565b600e546001600160a01b031661261a565b600f546001600160a01b031661261a565b610768610d346004546001600160a01b031690565b9360155490604051968794636e59fe2560e11b6020870152349360248701919360a0936001600160a01b036001969897939860c086019986521660208501526040840152606083015260808201520152565b50388080610c6b565b91925050600714610da1575b50610a37565b610daa9061186d565b38610d9b565b346101ee5760203660031901126101ee576020610dd7600435610dd2816101dd565b61250e565b6040519015158152f35b346101ee5760003660031901126101ee576020601554604051908152f35b346101ee5760003660031901126101ee5760206001600160a01b0360135416604051908152f35b346101ee5760203660031901126101ee57600435610e42612489565b156102ab576001600160a01b0360055416330361026d5760009060046020610e80610e7485546001600160a01b031690565b6001600160a01b031690565b604051928380927f46f991ac0000000000000000000000000000000000000000000000000000000082525afa8015610f505783808481949382948391610f22575b505af1610ecc6125ea565b501561063c577fcdcc745fe377b103b45fa0cec23ae3ef93d6fc6a84a01f0d18c40b354dd1d5d8610f1c610f0b610e74600b546001600160a01b031690565b604051938452929081906020820190565b0390a280f35b610f43915060203d8111610f49575b610f3b818361037f565b810190611a8c565b38610ec1565b503d610f31565b611aa1565b610f5e36610bf0565b610f6f6015949392945415156112bf565b610f77612489565b156102ab57610f853361250e565b8015611031575b1561026d57610f996115ca565b610fa1612489565b156102ab57610faf3361250e565b801561101d575b1561026d57610a3593610fcb610c608561250e565b6001600160a01b03928360045416936015549560405196636e59fe2560e11b602089015260248801521660448601526064850152608484015260a4830152600060c483015260c4825261099182610362565b50336001600160a01b036005541614610fb6565b50336001600160a01b036005541614610f8c565b604051906101e0820182811067ffffffffffffffff82111761034157604052565b67ffffffffffffffff811161034157601f01601f191660200190565b346101ee5760203660031901126101ee5760043567ffffffffffffffff81116101ee57366023820112156101ee5780600401356110be81611066565b906110cc604051928361037f565b80825236602482850101116101ee576020816000926024610016960183860137830101526116bd565b346101ee5760203660031901126101ee57600435611112816101dd565b803b600061111f82611066565b9261112d604051948561037f565b82845260208401903c602d81511061115157602a602091015160601c604051908152f35b60046040517fbaf3f0f7000000000000000000000000000000000000000000000000000000008152fd5b346101ee5760003660031901126101ee57602060ff601854166040519015158152f35b346101ee5760003660031901126101ee5760206016544210604051908152f35b346101ee5760203660031901126101ee576020610dd76004356111e0816101dd565b6001600160a01b0380600654169060405192168483015283825261120382610325565b6040519061121082610325565b601882527f697364656c656761746f724e6f6465286164647265737329000000000000000085830152612788565b346101ee5760003660031901126101ee576020610dd7612489565b346101ee5760003660031901126101ee576020610be8612598565b1561127b57565b606460405162461bcd60e51b815260206004820152601260248201527f6d652e696e76616c69642e73746f7070656400000000000000000000000000006044820152fd5b156112c657565b606460405162461bcd60e51b815260206004820152600f60248201527f6d652e696e76616c69642e696e697400000000000000000000000000000000006044820152fd5b6040519061131782610325565b601582527f69735573657245786973747328616464726573732900000000000000000000006020830152565b60405161134f81610346565b60008152906000368137565b634e487b7160e01b600052601160045260246000fd5b6113c56001600160a01b0360035416611388611343565b906040519061139682610325565b601382527f73657373696f6e54544c5365636f6e647328290000000000000000000000000060208301526127c4565b4201908142116106a4576113db916016556114bc565b565b604051906113ea82610325565b600682527f64616765282900000000000000000000000000000000000000000000000000006020830152565b919082039182116106a457565b6040519061143082610325565b601a82527f676574546f67676c65416765436f756e742875696e74323536290000000000006020830152565b9060e0828203126101ee5780601f830112156101ee576040519160e0830183811067ffffffffffffffff82111761034157604052829060e081019283116101ee57905b8282106114ac5750505090565b815181526020918201910161149f565b6114e86114d16013546001600160a01b031690565b6114d9611343565b906114e26113dd565b906127c4565b6114f482610cd1612598565b116115c1576013546001600160a01b03166040519060016115448361152260208201906103e7602083019252565b0393611536601f199586810183528261037f565b61153e611423565b846127c4565b161561154f57505050565b6115b26115a36001936115b893610991604051927f1296412000000000000000000000000000000000000000000000000000000000602085015283610a298a60248301919060206040840193600881520152565b6020808251830101910161145c565b60800190565b51146115c15750565b6113db9061186d565b6002601154146115db576002601155565b60046040517f3ee5aeb5000000000000000000000000000000000000000000000000000000008152fd5b6040519061161282610325565b601e82527f7265736f6c76655472616e7366657254617267657428616464726573732900006020830152565b91908260409103126101ee576020825192015161165a816101dd565b90565b908160609103126101ee578051916040602083015161167b816101dd565b92015161165a816101dd565b60165442101561169357565b60046040517f1fd05a4a000000000000000000000000000000000000000000000000000000008152fd5b6116ca60155415156112bf565b6116d2611687565b6116e060ff60185416611274565b6116e8612489565b156102ab576001906001600160a01b03825416330361026d5780519067ffffffffffffffff821161034157611727826117226014546102d5565b6117e6565b60209081601f84116001146117645750928293918392600094611759575b50501b916000199060031b1c191617601455565b015192503880611745565b6014600052919083601f1981167fce6d7b5282bd9a3661ae061feed1dbda4e52ab073b1f9285be6e155d9c38d4ec946000905b888383106117cc57505050106117b3575b505050811b01601455565b015160001960f88460031b161c191690553880806117a8565b858701518855909601959485019487935090810190611797565b601f81116117f2575050565b600090601482527fce6d7b5282bd9a3661ae061feed1dbda4e52ab073b1f9285be6e155d9c38d4ec906020601f850160051c8301941061184d575b601f0160051c01915b82811061184257505050565b818155600101611836565b909250829061182d565b91908260409103126101ee576020825192015190565b6118cf6118de916118866004546001600160a01b031690565b6015546040517f6a811244000000000000000000000000000000000000000000000000000000006020820152602481019190915260448101929092526109918260648101610768565b60208082518301019101611857565b908047101561195d575b50804710156118f45750565b8061192c7f992e981f1f6d8cb3a32ce3b31107393c58fbd9a9052cb415a19d578833bf80d692610ce7600c546001600160a01b031690565b600c54604080516001600160a01b0390921682526020820192909252429181019190915260006060820152608090a1565b806119957f992e981f1f6d8cb3a32ce3b31107393c58fbd9a9052cb415a19d578833bf80d692610ce76001546001600160a01b031690565b600154604080516001600160a01b0390921682526020820192909252429181019190915260006060820152608090a1386118e8565b156119d157565b606460405162461bcd60e51b815260206004820152601360248201527f6d652e756e7365637572652e4f524331313535000000000000000000000000006044820152fd5b906015820291808304601514901517156106a457565b90602d820291808304602d14901517156106a457565b15611a4857565b606460405162461bcd60e51b815260206004820152600f60248201527f6d652e7a65726f2e6164647265737300000000000000000000000000000000006044820152fd5b908160209103126101ee575161165a816101dd565b6040513d6000823e3d90fd5b611d926101c06113db92611ae7611acb82516001600160a01b031690565b6001600160a01b03166001600160a01b03196002541617600255565b611b1a611afe60208301516001600160a01b031690565b6001600160a01b03166001600160a01b03196003541617600355565b611b4d611b3160408301516001600160a01b031690565b6001600160a01b03166001600160a01b03196004541617600455565b611b80611b6460608301516001600160a01b031690565b6001600160a01b03166001600160a01b03196005541617600555565b611bb3611b9760808301516001600160a01b031690565b6001600160a01b03166001600160a01b03196006541617600655565b611be6611bca60a08301516001600160a01b031690565b6001600160a01b03166001600160a01b03196007541617600755565b611c19611bfd60c08301516001600160a01b031690565b6001600160a01b03166001600160a01b03196008541617600855565b611c4c611c3060e08301516001600160a01b031690565b6001600160a01b03166001600160a01b03196009541617600955565b611c80611c646101008301516001600160a01b031690565b6001600160a01b03166001600160a01b0319600a541617600a55565b611cb4611c986101208301516001600160a01b031690565b6001600160a01b03166001600160a01b0319600b541617600b55565b611ce8611ccc6101408301516001600160a01b031690565b6001600160a01b03166001600160a01b0319600c541617600c55565b611d1c611d006101608301516001600160a01b031690565b6001600160a01b03166001600160a01b0319600d541617600d55565b611d50611d346101808301516001600160a01b031690565b6001600160a01b03166001600160a01b0319600e541617600e55565b611d84611d686101a08301516001600160a01b031690565b6001600160a01b03166001600160a01b0319600f541617600f55565b01516001600160a01b031690565b6001600160a01b03166001600160a01b03196010541617601055565b611dc3610e746000546001600160a01b031690565b604051907f97f3815a000000000000000000000000000000000000000000000000000000008252602082600481845afa918215610f5057600092612453575b50604051917fcfbffe53000000000000000000000000000000000000000000000000000000008352602083600481855afa928315610f5057600093612432575b50604051907fab6e844f000000000000000000000000000000000000000000000000000000008252602082600481865afa918215610f5057600092612411575b50604051917f14d8d024000000000000000000000000000000000000000000000000000000008352602083600481875afa928315610f50576000936123f0575b50604051927fd1f956b1000000000000000000000000000000000000000000000000000000008452602084600481885afa938415610f50576000946123cf575b50604051937fe61dfd58000000000000000000000000000000000000000000000000000000008552602085600481895afa948515610f50576000956123ae575b506040517fe09d394d0000000000000000000000000000000000000000000000000000000081526020816004818a5afa908115610f505760009161238f575b506040517f52b06d640000000000000000000000000000000000000000000000000000000081526020816004818b5afa908115610f5057600091612370575b506040517f013cf08b00000000000000000000000000000000000000000000000000000000815260006004820152916020836024818c5afa928315610f505760009361234f575b50604051977f5e09dbe70000000000000000000000000000000000000000000000000000000089526020896004818d5afa948515610f505760049960009661232e575b5060208b6040519b8c80927faa0ddc160000000000000000000000000000000000000000000000000000000082525afa968715610f505760049a60009861230d575b5060208c6040519c8d80927f640274270000000000000000000000000000000000000000000000000000000082525afa988915610f505760049b60009a6122ec575b5060208d6040519d8e80927f30125cf50000000000000000000000000000000000000000000000000000000082525afa9a8b15610f50578d60049d60009d6122ca575b506020906040519e8f80927f24768d910000000000000000000000000000000000000000000000000000000082525afa9c8d15610f505760009d6122a9575b50604051809e81907f9dc969a80000000000000000000000000000000000000000000000000000000082525a92600491602094fa9d8e15610f505760009e612288575b5061219c611045565b6001600160a01b0390911681529d8e906001600160a01b03166020820152604001906121d091906001600160a01b03169052565b6001600160a01b031660608d01526001600160a01b031660808c01526001600160a01b031660a08b01526001600160a01b031660c08a01526001600160a01b031660e08901526001600160a01b03166101008801526001600160a01b03166101208701526001600160a01b03166101408601526001600160a01b03166101608501526001600160a01b03166101808401526001600160a01b03166101a08301526001600160a01b03166101c08201526113db90611aad565b6122a2919e5060203d602011610f4957610f3b818361037f565b9c38612193565b6122c3919d5060203d602011610f4957610f3b818361037f565b9b38612150565b6020919d506122e590823d8411610f4957610f3b818361037f565b9c90612111565b612306919a5060203d602011610f4957610f3b818361037f565b98386120ce565b61232791985060203d602011610f4957610f3b818361037f565b963861208c565b61234891965060203d602011610f4957610f3b818361037f565b943861204a565b61236991935060203d602011610f4957610f3b818361037f565b9138612007565b612389915060203d602011610f4957610f3b818361037f565b38611fc0565b6123a8915060203d602011610f4957610f3b818361037f565b38611f81565b6123c891955060203d602011610f4957610f3b818361037f565b9338611f42565b6123e991945060203d602011610f4957610f3b818361037f565b9238611f02565b61240a91935060203d602011610f4957610f3b818361037f565b9138611ec2565b61242b91925060203d602011610f4957610f3b818361037f565b9038611e82565b61244c91935060203d602011610f4957610f3b818361037f565b9138611e42565b61246d91925060203d602011610f4957610f3b818361037f565b9038611e02565b908160209103126101ee575161165a816107be565b6124e46001600160a01b03600254166040516124a481610325565b600881527f69735361666528290000000000000000000000000000000000000000000000006020820152604051916124db83610346565b600083526126a4565b9080612503575b1561063c578060208061165a93518301019101612474565b5060208151146124eb565b6125716001600160a01b03806002541660405191602094168483015283825261253682610325565b6040519061254382610325565b601582527f6973536563757265426173652861646472657373290000000000000000000000858301526126a4565b908061258e575b1561063c578161165a9282518301019101612474565b5081815114612578565b61165a6001600160a01b03600354166040516125b381610325565b600681527f6941676528290000000000000000000000000000000000000000000000000000602082015260405191610bdf83610346565b3d15612615573d906125fb82611066565b91612609604051938461037f565b82523d6000602084013e565b606090565b9080156126a0576001600160a01b03821691821561267657600080808481945af16126436125ea565b501561063c5760207fcec1f18c3ab8ddaaa107a1591e3c369667eec613626611a8deaedef43069fcdd91604051908152a2565b60046040517fe6c4247b000000000000000000000000000000000000000000000000000000008152fd5b5050565b803b1561271e576000927fffffffff00000000000000000000000000000000000000000000000000000000836020869551910120169061270e60246040518093602082019586526126fe81518092602086860191016103a1565b810103600481018452018261037f565b51915afa61271a6125ea565b9091565b50505060009060405161273081610346565b6000815290565b9291612745916000946126a4565b908061277d575b6127535750565b9091506020818051810103126101ee5760206001600160a01b03910151612779816101dd565b1690565b50602081511461274c565b9291612796916000946126a4565b90806127b9575b6127a45750565b61165a91925060208082518301019101612474565b50602081511461279d565b92916127d2916000946126a4565b90806127f7575b6127e05750565b9091506020818051810103126101ee576020015190565b5060208151146127d9565b90602082519201517fffffffff0000000000000000000000000000000000000000000000000000000090818116936004811061283d57505050565b60040360031b82901b16169150565b6001600160a01b0381161561267657600080918351908260208601915af1906128736125ea565b911561287d575090565b8051600091906004116128f9576128949150612802565b8151156128a45750805190602001fd5b6040517f21c09d340000000000000000000000000000000000000000000000000000000081527fffffffff00000000000000000000000000000000000000000000000000000000919091166004820152602490fd5b5061289456fea2646970667358221220ab5d604598f7f187ad0f690ecd695acc3d44484cddc447db82932f82951160c064736f6c6343000814003360803461009257601f6116b938819003918201601f19168301916001600160401b038311848410176100975780849260209460405283398101031261009257516001600160a01b038116908190036100925780156100805760018060a01b031933816001541617600155600054161760005560405161160b90816100ae8239f35b60405163e6c4247b60e01b8152600490fd5b600080fd5b634e487b7160e01b600052604160045260246000fdfe60806040526004361015610018575b361561001657005b005b60003560e01c806312065fe0146100e85780631f185d16146100e3578063339459a6146100de5780633b9b7955146100d95780638da5cb5b146100d4578063a1f7f539146100cf578063a9059cbb146100ca578063af484526146100c5578063b90306ad146100c0578063c54e44b0146100bb578063e01ad5fd146100b6578063e0a9bc2b146100b15763fdc10bc90361000e57610e65565b610e4a565b610d7f565b610cf9565b610bc9565b610b98565b6109c0565b61094b565b610924565b6108fd565b610205565b61011a565b3461010457600036600319011261010457602047604051908152f35b600080fd5b6001600160a01b0381160361010457565b34610104576020806003193601126101045761019960043561013b81610109565b6001600160a01b0380600254169060405192168483015283825261015e82610ef8565b6040519061016b82610ef8565b601182527f69735369676e65722861646472657373290000000000000000000000000000008583015261149f565b9190806101fb575b156101d15781816101bb926101cd945183010191016112d7565b60405190151581529081906020820190565b0390f35b60046040517f3204506f000000000000000000000000000000000000000000000000000000008152fd5b50808251146101a1565b346101045760003660031901126101045761023761022b6000546001600160a01b031690565b6001600160a01b031690565b604051907f97f3815a000000000000000000000000000000000000000000000000000000008252602082600481845afa91821561072d576000926108dc575b50604051917fcfbffe53000000000000000000000000000000000000000000000000000000008352602083600481855afa92831561072d576000936108bb575b50604051907fab6e844f000000000000000000000000000000000000000000000000000000008252602082600481865afa91821561072d5760009261089a575b50604051917f14d8d024000000000000000000000000000000000000000000000000000000008352602083600481875afa92831561072d57600093610879575b50604051927fd1f956b1000000000000000000000000000000000000000000000000000000008452602084600481885afa93841561072d57600094610858575b50604051937fe61dfd58000000000000000000000000000000000000000000000000000000008552602085600481895afa94851561072d57600095610837575b506040517fe09d394d0000000000000000000000000000000000000000000000000000000081526020816004818a5afa90811561072d57600091610818575b506040517f52b06d640000000000000000000000000000000000000000000000000000000081526020816004818b5afa90811561072d576000916107f9575b506040517f013cf08b00000000000000000000000000000000000000000000000000000000815260006004820152916020836024818c5afa92831561072d576000936107d8575b50604051977f5e09dbe70000000000000000000000000000000000000000000000000000000089526020896004818d5afa94851561072d576004996000966107b7575b5060208b6040519b8c80927faa0ddc160000000000000000000000000000000000000000000000000000000082525afa96871561072d5760049a600098610796575b5060208c6040519c8d80927f640274270000000000000000000000000000000000000000000000000000000082525afa98891561072d5760049b60009a610775575b5060208d6040519d8e80927f30125cf50000000000000000000000000000000000000000000000000000000082525afa9a8b1561072d578d60049d60009d610753575b506020906040519e8f80927f24768d910000000000000000000000000000000000000000000000000000000082525afa9c8d1561072d5760009d610732575b50604051809e81907f9dc969a80000000000000000000000000000000000000000000000000000000082525a92600491602094fa9d8e1561072d5760009e6106fc575b50610610610f97565b6001600160a01b0390911681529d8e906001600160a01b031660208201526040019061064491906001600160a01b03169052565b6001600160a01b031660608d01526001600160a01b031660808c01526001600160a01b031660a08b01526001600160a01b031660c08a01526001600160a01b031660e08901526001600160a01b03166101008801526001600160a01b03166101208701526001600160a01b03166101408601526001600160a01b03166101608501526001600160a01b03166101808401526001600160a01b03166101a08301526001600160a01b03166101c082015261001690610fb8565b61071f919e5060203d602011610726575b6107178183610f51565b810190610f73565b9c38610607565b503d61070d565b610f8b565b61074c919d5060203d602011610726576107178183610f51565b9b386105c4565b6020919d5061076e90823d8411610726576107178183610f51565b9c90610585565b61078f919a5060203d602011610726576107178183610f51565b9838610542565b6107b091985060203d602011610726576107178183610f51565b9638610500565b6107d191965060203d602011610726576107178183610f51565b94386104be565b6107f291935060203d602011610726576107178183610f51565b913861047b565b610812915060203d602011610726576107178183610f51565b38610434565b610831915060203d602011610726576107178183610f51565b386103f5565b61085191955060203d602011610726576107178183610f51565b93386103b6565b61087291945060203d602011610726576107178183610f51565b9238610376565b61089391935060203d602011610726576107178183610f51565b9138610336565b6108b491925060203d602011610726576107178183610f51565b90386102f6565b6108d591935060203d602011610726576107178183610f51565b91386102b6565b6108f691925060203d602011610726576107178183610f51565b9038610276565b346101045760003660031901126101045760206001600160a01b0360005416604051908152f35b346101045760003660031901126101045760206001600160a01b0360015416604051908152f35b346101045760003660031901126101045760206109b86001600160a01b036006541660405161097981610ef8565b601381527f67657464656c656761746f72436f756e7428290000000000000000000000000084820152604051916109af83610f19565b6000835261154d565b604051908152f35b6040806003193601126101045760048035916109db83610109565b602435926001600160a01b0392838216938415610b89576109fa6112ef565b15610b7a57610a0833611374565b908115610b6c575b5015610b5e57908491824710610a5a575b507f1e70cf59d0c7a20c88704bfce5a47e636dfa577ebf52a7166641741cef3436619291610a4e9161142e565b519283523392602090a3005b909150825190600080602084017fa9059cbb00000000000000000000000000000000000000000000000000000000815230602486015288604486015260448552610aa385610f35565b84519082737b308edc6162d8e935476fe45fb3e6e7c02764985af191610ac76113fe565b9215610ad7575085929150610a21565b80518592916000918311610b5757610aef915061158b565b915b835115610b0057835160208501fd5b517f21c09d340000000000000000000000000000000000000000000000000000000081527fffffffff0000000000000000000000000000000000000000000000000000000090921690820190815281906020010390fd5b5091610af1565b825163ea8e4eb560e01b8152fd5b600554163314905038610a10565b508251634ee2123760e11b8152fd5b50825163e6c4247b60e01b8152fd5b34610104576020366003190112610104576020610bbf600435610bba81610109565b611374565b6040519015158152f35b3461010457602036600319011261010457600435610be56112ef565b15610ce8576001600160a01b03600554163303610cd75760009060046020610c1761022b85546001600160a01b031690565b604051928380927f46f991ac0000000000000000000000000000000000000000000000000000000082525afa801561072d5783808481949382948391610cb9575b505af1610c636113fe565b50156101d1577fcdcc745fe377b103b45fa0cec23ae3ef93d6fc6a84a01f0d18c40b354dd1d5d8610cb3610ca261022b600b546001600160a01b031690565b604051938452929081906020820190565b0390a280f35b610cd1915060203d8111610726576107178183610f51565b38610c58565b600460405163ea8e4eb560e01b8152fd5b6004604051634ee2123760e11b8152fd5b3461010457602036600319011261010457600435610d1681610109565b803b6000610d23826112bb565b92610d316040519485610f51565b82845260208401903c602d815110610d5557602a602091015160601c604051908152f35b60046040517fbaf3f0f7000000000000000000000000000000000000000000000000000000008152fd5b3461010457602080600319360112610104576101cd9060043590610da282610109565b610e066001600160a01b0392836006541693604051911683820152828152610dc981610ef8565b604051610dd581610ef8565b601881527f697364656c656761746f724e6f646528616464726573732900000000000000008482015260009461149f565b919080610e40575b610e27575b505060405190151581529081906020820190565b610e39925080825183010191016112d7565b3880610e13565b5080825114610e0e565b34610104576000366003190112610104576020610bbf6112ef565b346101045760003660031901126101045760206109b86001600160a01b0360035416604051610e9381610ef8565b600681527f694167652829000000000000000000000000000000000000000000000000000084820152604051916109af83610f19565b7f4e487b7100000000000000000000000000000000000000000000000000000000600052604160045260246000fd5b6040810190811067ffffffffffffffff821117610f1457604052565b610ec9565b6020810190811067ffffffffffffffff821117610f1457604052565b6080810190811067ffffffffffffffff821117610f1457604052565b90601f8019910116810190811067ffffffffffffffff821117610f1457604052565b908160209103126101045751610f8881610109565b90565b6040513d6000823e3d90fd5b604051906101e0820182811067ffffffffffffffff821117610f1457604052565b61129d6101c06112b992610ff2610fd682516001600160a01b031690565b6001600160a01b03166001600160a01b03196002541617600255565b61102561100960208301516001600160a01b031690565b6001600160a01b03166001600160a01b03196003541617600355565b61105861103c60408301516001600160a01b031690565b6001600160a01b03166001600160a01b03196004541617600455565b61108b61106f60608301516001600160a01b031690565b6001600160a01b03166001600160a01b03196005541617600555565b6110be6110a260808301516001600160a01b031690565b6001600160a01b03166001600160a01b03196006541617600655565b6110f16110d560a08301516001600160a01b031690565b6001600160a01b03166001600160a01b03196007541617600755565b61112461110860c08301516001600160a01b031690565b6001600160a01b03166001600160a01b03196008541617600855565b61115761113b60e08301516001600160a01b031690565b6001600160a01b03166001600160a01b03196009541617600955565b61118b61116f6101008301516001600160a01b031690565b6001600160a01b03166001600160a01b0319600a541617600a55565b6111bf6111a36101208301516001600160a01b031690565b6001600160a01b03166001600160a01b0319600b541617600b55565b6111f36111d76101408301516001600160a01b031690565b6001600160a01b03166001600160a01b0319600c541617600c55565b61122761120b6101608301516001600160a01b031690565b6001600160a01b03166001600160a01b0319600d541617600d55565b61125b61123f6101808301516001600160a01b031690565b6001600160a01b03166001600160a01b0319600e541617600e55565b61128f6112736101a08301516001600160a01b031690565b6001600160a01b03166001600160a01b0319600f541617600f55565b01516001600160a01b031690565b6001600160a01b03166001600160a01b03196010541617601055565b565b67ffffffffffffffff8111610f1457601f01601f191660200190565b90816020910312610104575180151581036101045790565b61134a6001600160a01b036002541660405161130a81610ef8565b600881527f697353616665282900000000000000000000000000000000000000000000000060208201526040519161134183610f19565b6000835261149f565b9080611369575b156101d15780602080610f88935183010191016112d7565b506020815114611351565b6113d76001600160a01b03806002541660405191602094168483015283825261139c82610ef8565b604051906113a982610ef8565b601582527f69735365637572654261736528616464726573732900000000000000000000008583015261149f565b90806113f4575b156101d15781610f8892825183010191016112d7565b50818151146113de565b3d15611429573d9061140f826112bb565b9161141d6040519384610f51565b82523d6000602084013e565b606090565b90801561149b576001600160a01b03821691821561148a57600080808481945af16114576113fe565b50156101d15760207fcec1f18c3ab8ddaaa107a1591e3c369667eec613626611a8deaedef43069fcdd91604051908152a2565b600460405163e6c4247b60e01b8152fd5b5050565b9190823b15611534577fffffffff00000000000000000000000000000000000000000000000000000000815160208093012016916040519180830193845281519160005b83811061152057505050918161151060248260009795968897018783820152036004810184520182610f51565b51915afa61151c6113fe565b9091565b8181018301518582016024015282016114e3565b50505060009060405161154681610f19565b6000815290565b929161155b9160009461149f565b9080611580575b6115695750565b909150602081805181010312610104576020015190565b506020815114611562565b90602082519201517fffffffff000000000000000000000000000000000000000000000000000000009081811693600481106115c657505050565b60040360031b82901b1616915056fea26469706673582212203c6f40043f1189ed7915e6c43f49718e7d6b92ecb2d236f7756514e7087c097e64736f6c63430008140033","linkReferences":{}},"methodIdentifiers":{"instance()":"022ec095","tVLFactory()":"9ba540fb","tVLMining()":"d795ff38","tVLReward()":"b85c9faf","tVLRoyality()":"9443767c","tVLTour()":"dabf429d","tVLValidator()":"a50c0bc0"},"id":80}