{"abi":[{"type":"constructor","inputs":[{"name":"_hex","type":"address","internalType":"address"}],"stateMutability":"nonpayable"},{"type":"function","name":"invalidator","inputs":[],"outputs":[{"name":"","type":"address","internalType":"address"}],"stateMutability":"view"},{"type":"function","name":"rule741","inputs":[],"outputs":[{"name":"","type":"address","internalType":"address"}],"stateMutability":"view"},{"type":"function","name":"transferRequest","inputs":[],"outputs":[{"name":"","type":"address","internalType":"address"}],"stateMutability":"view"}],"bytecode":{"object":"0x6080346200018657601f6200a4b838819003918201601f19168301926001600160401b0392909183851183861017620001705781602092849260409788528339810103126200018657516001600160a01b0390818116908190036200018657835190614ca7918281019281841086851117620001705762005811823981835260208160009403019083f0938415620001665782549484166001600160a01b03199586161783558551612fa480820190828210848311176200015257602091839162000298833985815203019084f08015620001485784168560015416176001558551916125d5808401928484109084111762000134579183916020936200323c8439815203019082f0908115620001295750169060025416176002555161010c90816200018c8239f35b8451903d90823e3d90fd5b634e487b7160e01b85526041600452602485fd5b86513d85823e3d90fd5b634e487b7160e01b86526041600452602486fd5b85513d84823e3d90fd5b634e487b7160e01b600052604160045260246000fd5b600080fdfe6080806040526004361015601257600080fd5b600090813560e01c9081630a5b38ab1460a4575080633da8676f146072576352b06d6414603e57600080fd5b34606f5780600319360112606f57602073ffffffffffffffffffffffffffffffffffffffff60025416604051908152f35b80fd5b5034606f5780600319360112606f57602073ffffffffffffffffffffffffffffffffffffffff60015416604051908152f35b90503460d2578160031936011260d25773ffffffffffffffffffffffffffffffffffffffff60209254168152f35b5080fdfea26469706673582212204432c70063799f1ddf45cb865e20923ed08a41776c2238ea14f83e2644d040cd64736f6c634300081400336080346200009e57601f62002fa438819003918201601f19168301916001600160401b03831184841017620000a3578084926020946040528339810103126200009e57516001600160a01b038116908190036200009e5780156200008c5760018060a01b03193381600154161760015560005416176000556001601155604051612eea9081620000ba8239f35b60405163e6c4247b60e01b8152600490fd5b600080fd5b634e487b7160e01b600052604160045260246000fdfe60806040526004361015610018575b361561001657005b005b60003560e01c806312065fe0146101c857806318c864e3146101c35780631f185d16146101be578063339459a6146101b95780633676bd1f146101b45780633b9b7955146101af578063479fa2c3146101aa5780634ef260a9146101a55780638d6edc14146101a05780638da5cb5b1461019b5780639932f81e14610196578063a1f7f53914610191578063ab7e46ae1461018c578063ac23334514610187578063acacd12014610182578063af4845261461017d578063b8f1759a14610178578063b90306ad14610173578063c1e6cec21461016e578063c54e44b014610169578063cab3cc8d14610164578063e01ad5fd1461015f578063e0a9bc2b1461015a578063e846034a14610155578063e981bcad14610150578063f245fe7a1461014b5763fdc10bc90361000e57611c54565b61148b565b6113db565b6113bd565b6113a2565b6112d7565b6112b9565b611233565b6111f5565b6110f4565b61109a565b611069565b61100d565b610f0c565b610eb2565b610e06565b610bf3565b610bcc565b610bae565b610aec565b610a03565b6109dc565b610927565b6103a6565b6102bf565b61023e565b346101e45760003660031901126101e457602047604051908152f35b600080fd5b634e487b7160e01b600052603260045260246000fd5b60135481101561023957601360005260021b7f66de8ffda797e3de9c05e8fc57b3bf0ec28a930d40b0d285d93c06501cf6a0900190600090565b6101e9565b346101e45760203660031901126101e4576004356013548110156101e457610265906101ff565b50805460018201546002830154600390930154604080516001600160a01b0394851681529390921660208401529082019290925260ff90911615156060820152608090f35b0390f35b6001600160a01b038116036101e457565b346101e4576020806003193601126101e45761033e6004356102e0816102ae565b6001600160a01b0380600254169060405192168483015283825261030382610f76565b6040519061031082610f76565b601182527f69735369676e657228616464726573732900000000000000000000000000000085830152612c97565b91908061039c575b15610372578181610360926102aa94518301019101612b19565b60405190151581529081906020820190565b60046040517f3204506f000000000000000000000000000000000000000000000000000000008152fd5b5080825114610346565b346101e45760003660031901126101e4576103d86103cc6000546001600160a01b031690565b6001600160a01b031690565b60405190634bf9c0ad60e11b8252602082600481845afa91821561075757600092610906575b506040519163cfbffe5360e01b8352602083600481855afa928315610757576000936108e5575b506040519063ab6e844f60e01b8252602082600481865afa918215610757576000926108c4575b5060405191630536340960e21b8352602083600481875afa928315610757576000936108a3575b506040519263d1f956b160e01b8452602084600481885afa93841561075757600094610882575b5060405193631cc3bfab60e31b8552602085600481895afa94851561075757600095610861575b5060405163e09d394d60e01b81526020816004818a5afa90811561075757600091610842575b506040516314ac1b5960e21b81526020816004818b5afa90811561075757600091610823575b5060405163013cf08b60e01b815260006004820152916020836024818c5afa92831561075757600093610802575b5060405197635e09dbe760e01b89526020896004818d5afa948515610757576004996000966107e1575b5060208b6040519b8c8092635506ee0b60e11b82525afa9687156107575760049a6000986107c0575b5060208c6040519c8d8092636402742760e01b82525afa9889156107575760049b60009a61079f575b5060208d6040519d8e80926330125cf560e01b82525afa9a8b15610757578d60049d60009d61077d575b506020906040519e8f80926324768d9160e01b82525afa9c8d156107575760009d61075c575b50604051809e81906313b92d3560e31b82525a92600491602094fa9d8e156107575760009e610726575b5061063a610fec565b6001600160a01b0390911681529d8e906001600160a01b031660208201526040019061066e91906001600160a01b03169052565b6001600160a01b031660608d01526001600160a01b031660808c01526001600160a01b031660a08b01526001600160a01b031660c08a01526001600160a01b031660e08901526001600160a01b03166101008801526001600160a01b03166101208701526001600160a01b03166101408601526001600160a01b03166101608501526001600160a01b03166101808401526001600160a01b03166101a08301526001600160a01b03166101c082015261001690612818565b610749919e5060203d602011610750575b6107418183610fca565b810190611d3f565b9c38610631565b503d610737565b611d57565b610776919d5060203d602011610750576107418183610fca565b9b38610607565b6020919d5061079890823d8411610750576107418183610fca565b9c906105e1565b6107b9919a5060203d602011610750576107418183610fca565b98386105b7565b6107da91985060203d602011610750576107418183610fca565b963861058e565b6107fb91965060203d602011610750576107418183610fca565b9438610565565b61081c91935060203d602011610750576107418183610fca565b913861053b565b61083c915060203d602011610750576107418183610fca565b3861050d565b61085b915060203d602011610750576107418183610fca565b386104e7565b61087b91955060203d602011610750576107418183610fca565b93386104c1565b61089c91945060203d602011610750576107418183610fca565b923861049a565b6108bd91935060203d602011610750576107418183610fca565b9138610473565b6108de91925060203d602011610750576107418183610fca565b903861044c565b6108ff91935060203d602011610750576107418183610fca565b9138610425565b61092091925060203d602011610750576107418183610fca565b90386103fe565b346101e45760203660031901126101e4576109406125cb565b610948612b2d565b156109b25761095633612bb2565b801561099e575b156109745761096d6004356122a5565b6001601155005b60046040517fea8e4eb5000000000000000000000000000000000000000000000000000000008152fd5b50336001600160a01b03600554161461095d565b60046040517f9dc4246e000000000000000000000000000000000000000000000000000000008152fd5b346101e45760003660031901126101e45760206001600160a01b0360005416604051908152f35b346101e45760203660031901126101e45760043580151580610ae0575b15610a9c57610a31610a3691611e58565b6101ff565b5080546001600160a01b03166102aa610a5960018401546001600160a01b031690565b92610a6d6003600283015492015460ff1690565b604080516001600160a01b03958616815295909416602086015292840152901515606083015281906080820190565b606460405162461bcd60e51b815260206004820152601760248201527f70726f706f7365722e696e76616c69642e666f726d69640000000000000000006044820152fd5b50601354811115610a20565b346101e45760203660031901126101e457600435610b09816102ae565b6001600160a01b03809116906000918083526012602052604083205480151580610ba2575b610b36578380f35b6000198101908111610b9d57610b4b906101ff565b5050808352601260205282604081205560145468010000000000000000811015610b9857806001610b7f9201601455610e7b565b909283549160031b92831b921b19161790553880808380f35b610f44565b611e42565b50601354811115610b2e565b346101e45760003660031901126101e4576020601554604051908152f35b346101e45760003660031901126101e45760206001600160a01b0360015416604051908152f35b346101e45760603660031901126101e457600435610c10816102ae565b602435610c1c816102ae565b6001600160a01b039182811615610ddc57600092821683526020601281526040842054610d9857600490610c6f610c51611cb8565b509384906001600160a01b03166001600160a01b0319825416179055565b610c93600184019485906001600160a01b03166001600160a01b0319825416179055565b610c9b611d27565b9080610cb16103cc88546001600160a01b031690565b60405194858092630536340960e21b82525afa91821561075757610d1e610d3e93610d31926002968a92610d75575b50610d2c906040519384917fffa734f00000000000000000000000000000000000000000000000000000000088840152604435903060248501611d86565b03601f198101845283610fca565b612e01565b8051810182019101611e33565b910155610d71610d5860135492546001600160a01b031690565b6001600160a01b03166000526012602052604060002090565b5580f35b610d2c919250610d9190863d8811610750576107418183610fca565b9190610ce0565b6064906040519062461bcd60e51b82526004820152601260248201527f70726f706f7365722e746f2e65786973747300000000000000000000000000006044820152fd5b60046040517fe6c4247b000000000000000000000000000000000000000000000000000000008152fd5b346101e45760003660031901126101e4576020610e736001600160a01b0360065416604051610e3481610f76565b601381527f67657464656c656761746f72436f756e742829000000000000000000000000008482015260405191610e6a83610f92565b60008352612d7b565b604051908152f35b6014548110156102395760146000527fce6d7b5282bd9a3661ae061feed1dbda4e52ab073b1f9285be6e155d9c38d4ec0190600090565b346101e45760203660031901126101e4576004356014548110156101e4576001600160a01b0360209160146000527fce6d7b5282bd9a3661ae061feed1dbda4e52ab073b1f9285be6e155d9c38d4ec015416604051908152f35b346101e45760203660031901126101e4576020610f33600435610f2e816102ae565b611ece565b6001600160a01b0360405191168152f35b634e487b7160e01b600052604160045260246000fd5b60e0810190811067ffffffffffffffff821117610b9857604052565b6040810190811067ffffffffffffffff821117610b9857604052565b6020810190811067ffffffffffffffff821117610b9857604052565b6080810190811067ffffffffffffffff821117610b9857604052565b90601f8019910116810190811067ffffffffffffffff821117610b9857604052565b604051906101e0820182811067ffffffffffffffff821117610b9857604052565b346101e4576101203660031901126101e45736606312156101e45760405161103481610f5a565b610124813682116101e4576044905b8282106110595761001684602435600435612694565b8135815260209182019101611043565b346101e45760203660031901126101e457602061109060043561108b816102ae565b612bb2565b6040519015158152f35b346101e45760203660031901126101e457600435601454811015610239576001600160a01b0360209160146000527fce6d7b5282bd9a3661ae061feed1dbda4e52ab073b1f9285be6e155d9c38d4ec015416604051908152f35b346101e45760203660031901126101e4576004356001600160a01b0360055416330361097457600090600460206111356103cc85546001600160a01b031690565b604051928380927f46f991ac0000000000000000000000000000000000000000000000000000000082525afa801561075757838084819493829483916111d7575b505af1611181612c3c565b5015610372577fcdcc745fe377b103b45fa0cec23ae3ef93d6fc6a84a01f0d18c40b354dd1d5d86111d16111c06103cc600b546001600160a01b031690565b604051938452929081906020820190565b0390a280f35b6111ef915060203d8111610750576107418183610fca565b38611176565b346101e45760203660031901126101e4576001600160a01b0360043561121a816102ae565b1660005260126020526020604060002054604051908152f35b346101e45760203660031901126101e457600435611250816102ae565b803b600061125d82611d0b565b9261126b6040519485610fca565b82845260208401903c602d81511061128f57602a602091015160601c604051908152f35b60046040517fbaf3f0f7000000000000000000000000000000000000000000000000000000008152fd5b346101e45760003660031901126101e4576020601354604051908152f35b346101e4576020806003193601126101e4576102aa90600435906112fa826102ae565b61135e6001600160a01b039283600654169360405191168382015282815261132181610f76565b60405161132d81610f76565b601881527f697364656c656761746f724e6f6465286164647265737329000000000000000084820152600094612c97565b919080611398575b61137f575b505060405190151581529081906020820190565b61139192508082518301019101612b19565b388061136b565b5080825114611366565b346101e45760003660031901126101e4576020611090612b2d565b346101e45760003660031901126101e4576020601454604051908152f35b346101e45760403660031901126101e4576113f46125cb565b6113fc612b2d565b156109b25761140a33612bb2565b8015611477575b156109745761146c6001600160a01b0360045416604051907f33b59a5b0000000000000000000000000000000000000000000000000000000060208301526004356024830152602435604483015260448252610d2c82610fae565b506100166001601155565b50336001600160a01b036005541614611411565b346101e457600080600319360112611c51576114a56125cb565b6114b96103cc82546001600160a01b031690565b604090815191828092634bf9c0ad60e11b8252602093849160049687915afa908115610757578591611c34575b5061151f82517f339459a600000000000000000000000000000000000000000000000000000000928386830152868252610d2c82610f76565b5083836115366103cc88546001600160a01b031690565b8451928380926369e8d84b60e11b82525afa80156107575761156e918791611c17575b508351908386830152868252610d2c82610f76565b5083836115856103cc88546001600160a01b031690565b84519283809263ab6e844f60e01b82525afa8015610757576115bc918791611c1757508351908386830152868252610d2c82610f76565b5083836115d36103cc88546001600160a01b031690565b84519283809263cfbffe5360e01b82525afa80156107575761160a918791611c1757508351908386830152868252610d2c82610f76565b5083836116216103cc88546001600160a01b031690565b845192838092630536340960e21b82525afa801561075757611658918791611c1757508351908386830152868252610d2c82610f76565b50838361166f6103cc88546001600160a01b031690565b84519283809263d1f956b160e01b82525afa8015610757576116a6918791611c1757508351908386830152868252610d2c82610f76565b5083836116bd6103cc88546001600160a01b031690565b845192838092631cc3bfab60e31b82525afa8015610757576116f4918791611c1757508351908386830152868252610d2c82610f76565b50838361170b6103cc88546001600160a01b031690565b84519283809263e09d394d60e01b82525afa801561075757611742918791611c1757508351908386830152868252610d2c82610f76565b5083836117596103cc88546001600160a01b031690565b8451928380926314ac1b5960e21b82525afa801561075757611790918791611c1757508351908386830152868252610d2c82610f76565b506117a56103cc86546001600160a01b031690565b838351809263013cf08b60e01b825281806117c78a8201906000602083019252565b03915afa8015610757576117f0918791611c1757508351908386830152868252610d2c82610f76565b506118056103cc86546001600160a01b031690565b90825184817fb771c896000000000000000000000000000000000000000000000000000000009485825281806118428b8201906000602083019252565b03915afa80156107575761186c918891611bfa575b508451908387830152878252610d2c82610f76565b506118816103cc87546001600160a01b031690565b8484518092858252818061189c8b8201906001602083019252565b03915afa8015610757576118c5918891611bfa57508451908387830152878252610d2c82610f76565b506118da6103cc87546001600160a01b031690565b848451809285825281806118f58b8201906002602083019252565b03915afa80156107575761191e918891611bfa57508451908387830152878252610d2c82610f76565b506119336103cc87546001600160a01b031690565b8484518092858252818061194e8b8201906003602083019252565b03915afa801561075757611977918891611bfa57508451908387830152878252610d2c82610f76565b508361198d6103cc88546001600160a01b031690565b928451938491825281806119a88a8201906004602083019252565b03915afa9182156107575785926119d5918891611bdd575b508451908387830152848252610d2c82610f76565b50836119eb6103cc88546001600160a01b031690565b845193848092635e09dbe760e01b82525afa918215610757578592611a25918891611bdd57508451908387830152848252610d2c82610f76565b5083611a3b6103cc88546001600160a01b031690565b845193848092635506ee0b60e11b82525afa918215610757578592611a75918891611bdd57508451908387830152848252610d2c82610f76565b5083611a8b6103cc88546001600160a01b031690565b845193848092636402742760e01b82525afa918215610757578592611ac5918891611bdd57508451908387830152848252610d2c82610f76565b5083611adb6103cc88546001600160a01b031690565b8451938480926330125cf560e01b82525afa918215610757578592611b15918891611bdd57508451908387830152848252610d2c82610f76565b5083611b2b6103cc88546001600160a01b031690565b8451938480926324768d9160e01b82525afa918215610757578592611b65918891611bdd57508451908387830152848252610d2c82610f76565b5083611b7b6103cc88546001600160a01b031690565b8451968780926313b92d3560e31b82525afa92831561075757611bb0958794611bbe575b5051938401528252610d2c82610f76565b50611bbb6001601155565b80f35b611bd6919450853d8711610750576107418183610fca565b9238611b9f565b611bf49150863d8811610750576107418183610fca565b386119c0565b611c119150863d8811610750576107418183610fca565b38611857565b611c2e9150853d8711610750576107418183610fca565b38611559565b611c4b9150833d8511610750576107418183610fca565b386114e6565b80fd5b346101e45760003660031901126101e4576020610e736001600160a01b0360035416604051611c8281610f76565b600681527f69416765282900000000000000000000000000000000000000000000000000008482015260405191610e6a83610f92565b60135468010000000000000000811015610b9857600181018060135581101561023957601360005260021b7f66de8ffda797e3de9c05e8fc57b3bf0ec28a930d40b0d285d93c06501cf6a0900190600090565b67ffffffffffffffff8111610b9857601f01601f191660200190565b604051611d3381610f92565b60008152906000368137565b908160209103126101e45751611d54816102ae565b90565b6040513d6000823e3d90fd5b60005b838110611d765750506000910152565b8181015183820152602001611d66565b6000926001600160a01b0360a09396959660c08452602660c08501527f547269676765722e496e7374616e63652e70726f706f73616c2e55736572547260e08501527f616e73666572000000000000000000000000000000000000000000000000000061010085015216602083015283604083015261012080606084015281518091840152611e1f816101409360208587019101611d63565b601f80199101168201019460808201520152565b908160209103126101e4575190565b634e487b7160e01b600052601160045260246000fd5b600019810191908211610b9d57565b60405190611e7482610f76565b601282527f6765745374617475732875696e743235362900000000000000000000000000006020830152565b519081151582036101e457565b91908260409103126101e457611d546020611ec784611ea0565b9301611ea0565b611eeb906001600160a01b03166000526012602052604060002090565b5480151580611fee575b15611fe857610a31611f0691611e58565b50600381015460ff16611fdb57611f286103cc6000546001600160a01b031690565b6040518091630536340960e21b825281600460209384935afa801561075757610d1e611f8491611f9194600091611fbe575b50611f7660028701546040519384918783019190602083019252565b611f7e611e67565b90612c6c565b8051810182019101611ead565b81929192611fb6575b5060009115611fb257546001600160a01b0316905090565b5090565b915038611f9a565b611fd59150843d8611610750576107418183610fca565b38611f5a565b546001600160a01b031690565b50600090565b50601354811115611ef5565b1561200157565b606460405162461bcd60e51b815260206004820152601c60248201527f7574696c6974792e62617463682e6c696d69742e6578636565646564000000006044820152fd5b1561204c57565b606460405162461bcd60e51b815260206004820152601760248201527f7574696c6974792e756e7365637572652e6661696c65640000000000000000006044820152fd5b6040519061209d82610f76565b600f82527f6765744e6f646573436f756e74282900000000000000000000000000000000006020830152565b156120d057565b606460405162461bcd60e51b815260206004820152601360248201527f7574696c6974792e696d706f72742e646f6e65000000000000000000000000006044820152fd5b91908201809211610b9d57565b6000198114610b9d5760010190565b6040519061213d82610f76565b601782527f6765744e6f64654279496e6465782875696e74323536290000000000000000006020830152565b1561217057565b606460405162461bcd60e51b815260206004820152601660248201527f70726f78792e696e76616c69642e696e7374616e6365000000000000000000006044820152fd5b604051906121c182610f76565b601382527f496e7374546f55736572286164647265737329000000000000000000000000006020830152565b156121f457565b606460405162461bcd60e51b815260206004820152601260248201527f70726f78792e696e76616c69642e6e6f646500000000000000000000000000006044820152fd5b6040519061224582610f76565b601082527f6765744e6f6465286164647265737329000000000000000000000000000000006020830152565b908160a09103126101e457805191602082015161228d816102ae565b91604081015191611d546080611ec760608501611ea0565b6122b26064821115611ffa565b6122c36122be30612bb2565b612045565b6122d86103cc6000546001600160a01b031690565b60405180917f447aa30400000000000000000000000000000000000000000000000000000000825281600460209384935afa918215610757576000926125ac575b50612333612325611d27565b61232d612090565b84612d7b565b9283156125a65761237b6123696123526004546001600160a01b031690565b61235a611d27565b90612363612090565b90612d7b565b916123758387116120c9565b82612114565b9380851161259e575b505b8381106123935750505050565b6125449061253f61253a6040516125317f50db85d1000000000000000000000000000000000000000000000000000000006123fb836123d9888b83019190602083019252565b03936123ed601f1995868101835282610fca565b6123f5612130565b8b612d2a565b6001600160a01b036124108183161515612169565b8131948a8c60016124b96124ab61249161249d61246561244b6124578c6040519283918c83019190916001600160a01b036020820193169052565b038b8101835282610fca565b61245f6121b4565b88612d2a565b996124738a8c1615156121ed565b6040519283918983019190916001600160a01b036020820193169052565b03888101835282610fca565b6124a5612238565b85612c6c565b848082518301019101612271565b50505095909516946124cc8115156121ed565b148015612595575b612549575b50612525846124ec81610d2c9697612606565b6004546001600160a01b031695604051978894850152602484019060209093929360408301946001600160a01b03809216845216910152565b03908101845283610fca565b50601554612114565b601555565b612121565b612386565b6040516001600160a01b03909416828501908152610d2c946125259261258c9261257e90839060200103878101845283610fca565b6125866121b4565b90612d2a565b9350508c6124d9565b508315156124d4565b935038612384565b50505050565b816125c49293503d8411610750576107418183610fca565b9038612319565b6002601154146125dc576002601155565b60046040517f3ee5aeb5000000000000000000000000000000000000000000000000000000008152fd5b6013549068010000000000000000821015610b985761264e612630836001600395016013556101ff565b509182906001600160a01b03166001600160a01b0319825416179055565b6001810180546001600160a01b0319166001600160a01b03851617905501600160ff198254161790556001600160a01b0360135491166000526012602052604060002055565b919061269e6125cb565b6126a6612b2d565b156109b2576126b433612bb2565b80156127cd575b1561097457600460206126d96103cc6000546001600160a01b031690565b604051928380926369e8d84b60e11b82525afa80156107575761279894610d2c926000926127a5575b506040517f15ec7fad00000000000000000000000000000000000000000000000000000000602082015260248101919091526127529080604481015b0392610d2c601f1994858101845283610fca565b506004546001600160a01b0316926125256040519586927f7818cdd7000000000000000000000000000000000000000000000000000000006020850152602484016127e1565b506127a36001601155565b565b6127529192506127c561273e9160203d8111610750576107418183610fca565b929150612702565b50336001600160a01b0360055416146126bb565b908152610100810192919060209060009082015b600782106128035750505050565b828060019286518152019401910190926127f5565b612afd6101c06127a39261285261283682516001600160a01b031690565b6001600160a01b03166001600160a01b03196002541617600255565b61288561286960208301516001600160a01b031690565b6001600160a01b03166001600160a01b03196003541617600355565b6128b861289c60408301516001600160a01b031690565b6001600160a01b03166001600160a01b03196004541617600455565b6128eb6128cf60608301516001600160a01b031690565b6001600160a01b03166001600160a01b03196005541617600555565b61291e61290260808301516001600160a01b031690565b6001600160a01b03166001600160a01b03196006541617600655565b61295161293560a08301516001600160a01b031690565b6001600160a01b03166001600160a01b03196007541617600755565b61298461296860c08301516001600160a01b031690565b6001600160a01b03166001600160a01b03196008541617600855565b6129b761299b60e08301516001600160a01b031690565b6001600160a01b03166001600160a01b03196009541617600955565b6129eb6129cf6101008301516001600160a01b031690565b6001600160a01b03166001600160a01b0319600a541617600a55565b612a1f612a036101208301516001600160a01b031690565b6001600160a01b03166001600160a01b0319600b541617600b55565b612a53612a376101408301516001600160a01b031690565b6001600160a01b03166001600160a01b0319600c541617600c55565b612a87612a6b6101608301516001600160a01b031690565b6001600160a01b03166001600160a01b0319600d541617600d55565b612abb612a9f6101808301516001600160a01b031690565b6001600160a01b03166001600160a01b0319600e541617600e55565b612aef612ad36101a08301516001600160a01b031690565b6001600160a01b03166001600160a01b0319600f541617600f55565b01516001600160a01b031690565b6001600160a01b03166001600160a01b03196010541617601055565b908160209103126101e457611d5490611ea0565b612b886001600160a01b0360025416604051612b4881610f76565b600881527f6973536166652829000000000000000000000000000000000000000000000000602082015260405191612b7f83610f92565b60008352612c97565b9080612ba7575b156103725780602080611d5493518301019101612b19565b506020815114612b8f565b612c156001600160a01b038060025416604051916020941684830152838252612bda82610f76565b60405190612be782610f76565b601582527f697353656375726542617365286164647265737329000000000000000000000085830152612c97565b9080612c32575b156103725781611d549282518301019101612b19565b5081815114612c1c565b3d15612c67573d90612c4d82611d0b565b91612c5b6040519384610fca565b82523d6000602084013e565b606090565b90612c779291612c97565b9060009015612c84575090565b6040519150612c9282610f92565b815290565b803b15612d11576000927fffffffff000000000000000000000000000000000000000000000000000000008360208695519101201690612d016024604051809360208201958652612cf18151809260208686019101611d63565b8101036004810184520182610fca565b51915afa612d0d612c3c565b9091565b505050600090604051612d2381610f92565b6000815290565b9291612d3891600094612c97565b9080612d70575b612d465750565b9091506020818051810103126101e45760206001600160a01b03910151612d6c816102ae565b1690565b506020815114612d3f565b9291612d8991600094612c97565b9080612dac575b612d975750565b611d5491925060208082518301019101611e33565b506020815114612d90565b90602082519201517fffffffff00000000000000000000000000000000000000000000000000000000908181169360048110612df257505050565b60040360031b82901b16169150565b6001600160a01b03811615610ddc57600080918351908260208601915af190612e28612c3c565b9115612e32575090565b805160009190600411612eae57612e499150612db7565b815115612e595750805190602001fd5b6040517f21c09d340000000000000000000000000000000000000000000000000000000081527fffffffff00000000000000000000000000000000000000000000000000000000919091166004820152602490fd5b50612e4956fea264697066735822122033b0baa5a586fea176f5ed3fbe5673585b011235151aadfe5f5afd4c8127b99564736f6c6343000814003360803461009957601f620025d538819003918201601f19168301916001600160401b0383118484101761009e5780849260209460405283398101031261009957516001600160a01b038116908190036100995780156100875760018060a01b031933816001541617600155600054161760005560016011556040516125209081620000b58239f35b60405163e6c4247b60e01b8152600490fd5b600080fd5b634e487b7160e01b600052604160045260246000fdfe60806040526004361015610018575b361561001657005b005b60003560e01c80631133b8861461018857806312065fe0146101835780631f185d161461017e578063339459a6146101795780633b9b7955146101745780633c00e40d1461016f5780636ec35cd51461016a5780638da5cb5b146101655780638dab13dc146101605780639498d88b1461015b5780639b03bea6146101565780639fb2726b14610151578063a1f7f5391461014c578063ae9568d714610147578063af48452614610142578063b90306ad1461013d578063c54e44b014610138578063d7a83fc614610133578063e01ad5fd1461012e578063e0a9bc2b14610129578063e3d1d5bf14610124578063f5caf38c1461011f5763fdc10bc90361000e576115d5565b611597565b61133c565b611321565b611256565b611216565b611190565b61108f565b61105e565b611014565b610f9f565b610dc0565b610d78565b610cfa565b610c57565b610c30565b610aaf565b610a40565b610a19565b610321565b610236565b61021a565b6101cb565b6001600160a01b0381160361019e57565b600080fd5b604090600319011261019e576004356101bb8161018d565b906024356101c88161018d565b90565b3461019e57602060ff61020e6001600160a01b036101e8366101a3565b9116600052601284526040600020906001600160a01b0316600052602052604060002090565b54166040519015158152f35b3461019e57600036600319011261019e57602047604051908152f35b3461019e5760208060031936011261019e576102b56004356102578161018d565b6001600160a01b0380600254169060405192168483015283825261027a82611686565b6040519061028782611686565b601182527f69735369676e657228616464726573732900000000000000000000000000000085830152612400565b919080610317575b156102ed5781816102d7926102e994518301019101612281565b60405190151581529081906020820190565b0390f35b60046040517f3204506f000000000000000000000000000000000000000000000000000000008152fd5b50808251146102bd565b3461019e57600036600319011261019e576103536103476000546001600160a01b031690565b6001600160a01b031690565b604051907f97f3815a000000000000000000000000000000000000000000000000000000008252602082600481845afa918215610849576000926109f8575b50604051917fcfbffe53000000000000000000000000000000000000000000000000000000008352602083600481855afa928315610849576000936109d7575b50604051907fab6e844f000000000000000000000000000000000000000000000000000000008252602082600481865afa918215610849576000926109b6575b50604051917f14d8d024000000000000000000000000000000000000000000000000000000008352602083600481875afa92831561084957600093610995575b50604051927fd1f956b1000000000000000000000000000000000000000000000000000000008452602084600481885afa93841561084957600094610974575b50604051937fe61dfd58000000000000000000000000000000000000000000000000000000008552602085600481895afa94851561084957600095610953575b506040517fe09d394d0000000000000000000000000000000000000000000000000000000081526020816004818a5afa90811561084957600091610934575b506040517f52b06d640000000000000000000000000000000000000000000000000000000081526020816004818b5afa90811561084957600091610915575b506040517f013cf08b00000000000000000000000000000000000000000000000000000000815260006004820152916020836024818c5afa928315610849576000936108f4575b50604051977f5e09dbe70000000000000000000000000000000000000000000000000000000089526020896004818d5afa948515610849576004996000966108d3575b5060208b6040519b8c80927faa0ddc160000000000000000000000000000000000000000000000000000000082525afa9687156108495760049a6000986108b2575b5060208c6040519c8d80927f640274270000000000000000000000000000000000000000000000000000000082525afa9889156108495760049b60009a610891575b5060208d6040519d8e80927f30125cf50000000000000000000000000000000000000000000000000000000082525afa9a8b15610849578d60049d60009d61086f575b506020906040519e8f80927f24768d910000000000000000000000000000000000000000000000000000000082525afa9c8d156108495760009d61084e575b50604051809e81907f9dc969a80000000000000000000000000000000000000000000000000000000082525a92600491602094fa9d8e156108495760009e610818575b5061072c6116e5565b6001600160a01b0390911681529d8e906001600160a01b031660208201526040019061076091906001600160a01b03169052565b6001600160a01b031660608d01526001600160a01b031660808c01526001600160a01b031660a08b01526001600160a01b031660c08a01526001600160a01b031660e08901526001600160a01b03166101008801526001600160a01b03166101208701526001600160a01b03166101408601526001600160a01b03166101608501526001600160a01b03166101808401526001600160a01b03166101a08301526001600160a01b03166101c082015261001690611f80565b61083b919e5060203d602011610842575b61083381836116c3565b81019061175b565b9c38610723565b503d610829565b611c1d565b610868919d5060203d6020116108425761083381836116c3565b9b386106e0565b6020919d5061088a90823d84116108425761083381836116c3565b9c906106a1565b6108ab919a5060203d6020116108425761083381836116c3565b983861065e565b6108cc91985060203d6020116108425761083381836116c3565b963861061c565b6108ed91965060203d6020116108425761083381836116c3565b94386105da565b61090e91935060203d6020116108425761083381836116c3565b9138610597565b61092e915060203d6020116108425761083381836116c3565b38610550565b61094d915060203d6020116108425761083381836116c3565b38610511565b61096d91955060203d6020116108425761083381836116c3565b93386104d2565b61098e91945060203d6020116108425761083381836116c3565b9238610492565b6109af91935060203d6020116108425761083381836116c3565b9138610452565b6109d091925060203d6020116108425761083381836116c3565b9038610412565b6109f191935060203d6020116108425761083381836116c3565b91386103d2565b610a1291925060203d6020116108425761083381836116c3565b9038610392565b3461019e57600036600319011261019e5760206001600160a01b0360005416604051908152f35b3461019e57602036600319011261019e576001600160a01b03600435610a658161018d565b1660005260186020526020604060002054604051908152f35b9181601f8401121561019e5782359167ffffffffffffffff831161019e576020808501948460051b01011161019e57565b3461019e57606036600319011261019e5767ffffffffffffffff6004803582811161019e57610ae19036908301610a7e565b919060243584811161019e57610afa9036908401610a7e565b909460443590811161019e57610b139036908501610a7e565b959093610b1e612296565b15610c2157610b2c3361231b565b8015610c0d575b15610bfe57868303610bd6575060005b828110610b4c57005b80610bd0610b5d6001938a89611bed565b35610b6781610db6565b6001600160a01b03610b7a848b8a611bed565b35610b848161018d565b166000526012602052610bbf6040600020610ba8610ba3868a8a611bed565b611c13565b6001600160a01b0316600052602052604060002090565b9060ff801983541691151516179055565b01610b43565b6040517fff633a38000000000000000000000000000000000000000000000000000000008152fd5b60405163ea8e4eb560e01b8152fd5b50336001600160a01b036005541614610b33565b604051634ee2123760e11b8152fd5b3461019e57600036600319011261019e5760206001600160a01b0360015416604051908152f35b3461019e57602036600319011261019e57600435610c748161018d565b6001600160a01b038091166000526015602052806040600020541690601660205260406000205416908060005260126020526102e960ff610ccc846040600020906001600160a01b0316600052602052604060002090565b54166040519384938491939260409160608401956001600160a01b0380921685521660208401521515910152565b3461019e57602036600319011261019e57600435610d178161018d565b610d1f612296565b15610d6757610d2d3361231b565b8015610d53575b15610d425761001690611d05565b600460405163ea8e4eb560e01b8152fd5b50336001600160a01b036005541614610d34565b6004604051634ee2123760e11b8152fd5b3461019e57602036600319011261019e576001600160a01b03600435610d9d8161018d565b1660005260176020526020604060002054604051908152f35b8015150361019e57565b3461019e57608036600319011261019e57600467ffffffffffffffff813581811161019e57610df29036908401610a7e565b9160243590811161019e57610e0a9036908501610a7e565b6044359391610e1885610db6565b606435610e23612296565b15610f8f57610e313361231b565b8015610f7b575b15610f6b57828403610f425760005b848110610e5057005b8615610f105781610e81610e68610ba384898b611bed565b6001600160a01b03166000526018602052604060002090565b5403610eb057876040517fe3913549000000000000000000000000000000000000000000000000000000008152fd5b8082610ec5610e68610ba36001958a8c611bed565b55610ed1818686611bed565b35610f07610eff610ee6610ba3858b8d611bed565b6001600160a01b03166000526017602052604060002090565b9182546117de565b90555b01610e47565b80610f1e6001928686611bed565b35610f3b610f33610ee6610ba3858b8d611bed565b918254611663565b9055610f0a565b866040517fff633a38000000000000000000000000000000000000000000000000000000008152fd5b8660405163ea8e4eb560e01b8152fd5b50336001600160a01b036005541614610e38565b86604051634ee2123760e11b8152fd5b3461019e57600036600319011261019e57602061100c6001600160a01b0360065416604051610fcd81611686565b601381527f67657464656c656761746f72436f756e742829000000000000000000000000008482015260405191611003836116a7565b600083526124ae565b604051908152f35b3461019e5760206110556001600160a01b0361102f366101a3565b9116600052601383526040600020906001600160a01b0316600052602052604060002090565b54604051908152f35b3461019e57602036600319011261019e5760206110856004356110808161018d565b61231b565b6040519015158152f35b3461019e57602036600319011261019e576004356001600160a01b03600554163303610d4257600090600460206110d061034785546001600160a01b031690565b604051928380927f46f991ac0000000000000000000000000000000000000000000000000000000082525afa80156108495783808481949382948391611172575b505af161111c6123a5565b50156102ed577fcdcc745fe377b103b45fa0cec23ae3ef93d6fc6a84a01f0d18c40b354dd1d5d861116c61115b610347600b546001600160a01b031690565b604051938452929081906020820190565b0390a280f35b61118a915060203d81116108425761083381836116c3565b38611111565b3461019e57602036600319011261019e576004356111ad8161018d565b803b60006111ba82611706565b926111c860405194856116c3565b82845260208401903c602d8151106111ec57602a602091015160601c604051908152f35b60046040517fbaf3f0f7000000000000000000000000000000000000000000000000000000008152fd5b3461019e57602036600319011261019e5760206004356112358161018d565b6001600160a01b038091166000526014825260406000205416604051908152f35b3461019e5760208060031936011261019e576102e990600435906112798261018d565b6112dd6001600160a01b03928360065416936040519116838201528281526112a081611686565b6040516112ac81611686565b601881527f697364656c656761746f724e6f6465286164647265737329000000000000000084820152600094612400565b919080611317575b6112fe575b505060405190151581529081906020820190565b61131092508082518301019101612281565b38806112ea565b50808251146112e5565b3461019e57600036600319011261019e576020611085612296565b3461019e5761134a366101a3565b611352612296565b15610d67576113603361231b565b8015611583575b15610d42576001600160a01b03918281168015611559578383168015611559570361138e57005b60009261152f926113c26113b5846001600160a01b03166000526016602052604060002090565b546001600160a01b031690565b916113e0846001600160a01b03166000526017602052604060002090565b546113fe836001600160a01b03166000526017602052604060002090565b5561145a6114226113b5866001600160a01b03166000526015602052604060002090565b61143f846001600160a01b03166000526015602052604060002090565b906001600160a01b03166001600160a01b0319825416179055565b61147b8361143f846001600160a01b03166000526016602052604060002090565b611498846001600160a01b03166000526018602052604060002090565b546114b6836001600160a01b03166000526018602052604060002090565b558216611532575b5050826114de826001600160a01b03166000526017602052604060002090565b5561150f6114ff826001600160a01b03166000526015602052604060002090565b6001600160a01b03198154169055565b610e686114ff826001600160a01b03166000526016602052604060002090565b55005b61143f611552926001600160a01b03166000526014602052604060002090565b38806114be565b60046040517fd92e233d000000000000000000000000000000000000000000000000000000008152fd5b50336001600160a01b036005541614611367565b3461019e57606036600319011261019e576100166004356115b78161018d565b6024356115c38161018d565b604435916115d083610db6565b6117eb565b3461019e57600036600319011261019e57602061100c6001600160a01b036003541660405161160381611686565b600681527f69416765282900000000000000000000000000000000000000000000000000008482015260405191611003836116a7565b634e487b7160e01b600052601160045260246000fd5b60001981019190821161165e57565b611639565b9190820391821161165e57565b634e487b7160e01b600052604160045260246000fd5b6040810190811067ffffffffffffffff8211176116a257604052565b611670565b6020810190811067ffffffffffffffff8211176116a257604052565b90601f8019910116810190811067ffffffffffffffff8211176116a257604052565b604051906101e0820182811067ffffffffffffffff8211176116a257604052565b67ffffffffffffffff81116116a257601f01601f191660200190565b6040519061172f82611686565b601682527f67657455736572546f496e7374286164647265737329000000000000000000006020830152565b9081602091031261019e57516101c88161018d565b60405161177c816116a7565b60008152906000368137565b6040519061179582611686565b601082527f6d61784d61707065644c696d69742829000000000000000000000000000000006020830152565b9081602091031261019e575190565b906001820180921161165e57565b9190820180921161165e57565b9161180c6113b5336001600160a01b03166000526014602052604060002090565b928115611aa0576001600160a01b0380821615611559578084169485156115595761187761187361186c33611854896001600160a01b03166000526012602052604060002090565b906001600160a01b0316600052602052604060002090565b5460ff1690565b1590565b611a76576118d86103476118c96118966004546001600160a01b031690565b604080516001600160a01b038916602080830191909152815291906118bb90836116c3565b6118c3611722565b906123d5565b6020808251830101910161175b565b156115595716611a4c5761194461191d61190e6118fd6003546001600160a01b031690565b611905611770565b906118c3611788565b602080825183010191016117c1565b61193e33611854876001600160a01b03166000526013602052604060002090565b54101590565b611a22576119ee8361198e7f73e162dc4d0165c5ab2c676b5ce1e58e8333a5e1b0e75ea3957f2ca0aa8abc2e9561143f856001600160a01b03166000526015602052604060002090565b6119af3361143f856001600160a01b03166000526016602052604060002090565b6119d08361143f336001600160a01b03166000526014602052604060002090565b61185433916001600160a01b03166000526013602052604060002090565b6119f881546117d0565b9055604080513381526001600160a01b0392909216602083015291151591810191909152606090a2565b60046040517fb111d8ef000000000000000000000000000000000000000000000000000000008152fd5b60046040517f548635ce000000000000000000000000000000000000000000000000000000008152fd5b60046040517f747845de000000000000000000000000000000000000000000000000000000008152fd5b5050506001600160a01b039081811615611be957611b606114ff611ada6113b5846001600160a01b03166000526015602052604060002090565b604080513381526001600160a01b038616602082015260009181019190915290948516939084907f73e162dc4d0165c5ab2c676b5ce1e58e8333a5e1b0e75ea3957f2ca0aa8abc2e90606090a2611b476114ff826001600160a01b03166000526015602052604060002090565b6001600160a01b03166000526016602052604060002090565b611b806114ff336001600160a01b03166000526014602052604060002090565b151580611bbf575b611b8f5750565b611bb19061185433916001600160a01b03166000526013602052604060002090565b611bbb815461164f565b9055565b50611be133611854836001600160a01b03166000526013602052604060002090565b541515611b88565b5050565b9190811015611bfd5760051b0190565b634e487b7160e01b600052603260045260246000fd5b356101c88161018d565b6040513d6000823e3d90fd5b604051906060820182811067ffffffffffffffff8211176116a257604052602482527f65737329000000000000000000000000000000000000000000000000000000006040837f67657456616c696461746f7244656c656761746f724f6655736572286164647260208201520152565b9081606091031261019e578051611caf8161018d565b9160406020830151611cc08161018d565b9201516101c881610db6565b60405190611cd982611686565b601182527f696e636f6d654f662861646472657373290000000000000000000000000000006020830152565b6001600160a01b039081811615611be957611d396103476113b5836001600160a01b03166000526015602052604060002090565b611be957611d526103476000546001600160a01b031690565b604051907f6325dd0400000000000000000000000000000000000000000000000000000000908183526020908184600481845afa918215610849578694600093611f61575b506040516001600160a01b038716828201908152611de291611dd49181906020010395611dcc601f19978881018452836116c3565b6118c3611c29565b828082518301019101611c99565b9890911697951693871580611f59575b611f4f57819060046040518095819382525afa96871561084957611eee61143f96611e6d8961185495611f2c9c611f07998b99600092611f2e575b50611e5f9192611e5360405195869283019190916001600160a01b036020820193169052565b039081018452836116c3565b611e67611ccc565b906124ae565b611e8a8a6001600160a01b03166000526017602052604060002090565b55611eac8361143f8b6001600160a01b03166000526015602052604060002090565b611ecd8561143f8b6001600160a01b03166000526016602052604060002090565b610bbf85611854856001600160a01b03166000526012602052604060002090565b6001600160a01b03166000526013602052604060002090565b611f1181546117d0565b90556001600160a01b03166000526014602052604060002090565b565b611e5f9250611f4990843d86116108425761083381836116c3565b91611e2d565b5050505050505050565b508415611df2565b81611f799294503d85116108425761083381836116c3565b9138611d97565b6122656101c0611f2c92611fba611f9e82516001600160a01b031690565b6001600160a01b03166001600160a01b03196002541617600255565b611fed611fd160208301516001600160a01b031690565b6001600160a01b03166001600160a01b03196003541617600355565b61202061200460408301516001600160a01b031690565b6001600160a01b03166001600160a01b03196004541617600455565b61205361203760608301516001600160a01b031690565b6001600160a01b03166001600160a01b03196005541617600555565b61208661206a60808301516001600160a01b031690565b6001600160a01b03166001600160a01b03196006541617600655565b6120b961209d60a08301516001600160a01b031690565b6001600160a01b03166001600160a01b03196007541617600755565b6120ec6120d060c08301516001600160a01b031690565b6001600160a01b03166001600160a01b03196008541617600855565b61211f61210360e08301516001600160a01b031690565b6001600160a01b03166001600160a01b03196009541617600955565b6121536121376101008301516001600160a01b031690565b6001600160a01b03166001600160a01b0319600a541617600a55565b61218761216b6101208301516001600160a01b031690565b6001600160a01b03166001600160a01b0319600b541617600b55565b6121bb61219f6101408301516001600160a01b031690565b6001600160a01b03166001600160a01b0319600c541617600c55565b6121ef6121d36101608301516001600160a01b031690565b6001600160a01b03166001600160a01b0319600d541617600d55565b6122236122076101808301516001600160a01b031690565b6001600160a01b03166001600160a01b0319600e541617600e55565b61225761223b6101a08301516001600160a01b031690565b6001600160a01b03166001600160a01b0319600f541617600f55565b01516001600160a01b031690565b6001600160a01b03166001600160a01b03196010541617601055565b9081602091031261019e57516101c881610db6565b6122f16001600160a01b03600254166040516122b181611686565b600881527f69735361666528290000000000000000000000000000000000000000000000006020820152604051916122e8836116a7565b60008352612400565b9080612310575b156102ed57806020806101c893518301019101612281565b5060208151146122f8565b61237e6001600160a01b03806002541660405191602094168483015283825261234382611686565b6040519061235082611686565b601582527f697353656375726542617365286164647265737329000000000000000000000085830152612400565b908061239b575b156102ed57816101c89282518301019101612281565b5081815114612385565b3d156123d0573d906123b682611706565b916123c460405193846116c3565b82523d6000602084013e565b606090565b906123e09291612400565b90600090156123ed575090565b60405191506123fb826116a7565b815290565b9190823b15612495577fffffffff00000000000000000000000000000000000000000000000000000000815160208093012016916040519180830193845281519160005b838110612481575050509181612471602482600097959688970187838201520360048101845201826116c3565b51915afa61247d6123a5565b9091565b818101830151858201602401528201612444565b5050506000906040516124a7816116a7565b6000815290565b92916124bc91600094612400565b90806124df575b6124ca5750565b6101c8919250602080825183010191016117c1565b5060208151146124c356fea264697066735822122003041343e8ed74dba89a8bea74d62d44ea0bc758a2986f6a05d775c91dc104ba64736f6c6343000814003360a0806040523462001c55576200003962004ca791823803809362000025828462001c92565b82396001600160a01b039281019062001cb6565b16801562001c43573360018060a01b031960015416176001558060018060a01b031960005416176000554260115560a760255561010e602655601e602b556001602c556001602d556002602e5561c350602f55610258806030556003603155601960325568878678326eac900000603355670de0b6b3a764000060345569021e19e0c9bab24000006035556001603655610384603755600560465560ff1960475416604755614d58420180421162001c2d5762015180900460805260405160e081016001600160401b0381118282101762001c1757829160c0916040526002815260646020820152600160408201526023606082015260646080820152600160a0820152015260026016556064601755600160185560236019556064601a556001601b5580601c5560b460606200016f62001cd7565b60198152600a6020820152605a604082015201526019601d55600a601e55605a601f5560b4602055620001a162001cd7565b600581526001602082015260b460606101689283604082015201526005602155600160225560235560b4602455600160a0620001dc62001d0d565b6003815260036020820152826040820152826060820152826080820152015260036027556003602855630101010163ffffffff1960295416176029556200022262001cd7565b81606061014092838152600b6020820152600a60408201520152603855600b603955600a603a5580603b558060606200025a62001cd7565b60d28152600b6020820152600a6040820152015260d2603c55600b603d55600a603e55603f556200028a62001d0d565b90604051635e09dbe760e01b8152602081600481855afa91821562001be95760049260209260009162001bf5575b506001600160a01b03168452605f828501526001604080860191909152516311be646b60e21b815292839182905afa801562001be95760409160009162001bb3575b506001600160a01b0390811660608401819052600560808501819052600160a086018190528551855494166001600160a01b031994851617855560208601516041559390940151604255604380549092161790556044919091556045556040516200044b906200036a8162001c5a565b60008082526020808301828152604084018381526060850184815261270f60808701908152948052601390935293517f8fa6efc3be94b5b348b21fea823fe8d100408cee9b7f90524494500445d8ff6c55517f8fa6efc3be94b5b348b21fea823fe8d100408cee9b7f90524494500445d8ff6d5591517f8fa6efc3be94b5b348b21fea823fe8d100408cee9b7f90524494500445d8ff6e5590517f8fa6efc3be94b5b348b21fea823fe8d100408cee9b7f90524494500445d8ff6f55517f8fa6efc3be94b5b348b21fea823fe8d100408cee9b7f90524494500445d8ff7055565b620005446040516200045d8162001c5a565b60078152601960208083019182526000604084018181526060850182815261270f608087019081526001909352601390935293517f4155c2f711f2cdd34f8262ab8fb9b7020a700fe7b6948222152f7670d1fdf34d5591517f4155c2f711f2cdd34f8262ab8fb9b7020a700fe7b6948222152f7670d1fdf34e5591517f4155c2f711f2cdd34f8262ab8fb9b7020a700fe7b6948222152f7670d1fdf34f5590517f4155c2f711f2cdd34f8262ab8fb9b7020a700fe7b6948222152f7670d1fdf35055517f4155c2f711f2cdd34f8262ab8fb9b7020a700fe7b6948222152f7670d1fdf35155565b6200063d604051620005568162001c5a565b60078152606460208083019182526000604084018181526060850182815261270f608087019081526002909352601390935293517f0b9d2c0c271bb30544eb78c59bdaebdae2728e5f65814c07768a0abe90ed19235591517f0b9d2c0c271bb30544eb78c59bdaebdae2728e5f65814c07768a0abe90ed19245591517f0b9d2c0c271bb30544eb78c59bdaebdae2728e5f65814c07768a0abe90ed19255590517f0b9d2c0c271bb30544eb78c59bdaebdae2728e5f65814c07768a0abe90ed192655517f0b9d2c0c271bb30544eb78c59bdaebdae2728e5f65814c07768a0abe90ed192755565b620007376040516200064f8162001c5a565b600781526101f46020808301918252600360408401818152600060608601818152601e6080880190815293909152601390935293517f0d2a6872ef858a7f8ead18dc4f3f2e8d35c853d47e2816cbb9cdd49202554e0c5591517f0d2a6872ef858a7f8ead18dc4f3f2e8d35c853d47e2816cbb9cdd49202554e0d5591517f0d2a6872ef858a7f8ead18dc4f3f2e8d35c853d47e2816cbb9cdd49202554e0e5590517f0d2a6872ef858a7f8ead18dc4f3f2e8d35c853d47e2816cbb9cdd49202554e0f55517f0d2a6872ef858a7f8ead18dc4f3f2e8d35c853d47e2816cbb9cdd49202554e1055565b62000833604051620007498162001c5a565b600781526107d06020808301918252600460408401818152600360608601908152601e60808701908152600093909352601390935293517f01413ff7a3b1d5b6c016c061d48e2c7014700c777a29fcd068fff04265813d5d5591517f01413ff7a3b1d5b6c016c061d48e2c7014700c777a29fcd068fff04265813d5e5591517f01413ff7a3b1d5b6c016c061d48e2c7014700c777a29fcd068fff04265813d5f5590517f01413ff7a3b1d5b6c016c061d48e2c7014700c777a29fcd068fff04265813d6055517f01413ff7a3b1d5b6c016c061d48e2c7014700c777a29fcd068fff04265813d6155565b6200092c604051620008458162001c5a565b6007815261138860208083019182526004604084018181526060850191825261270f608086019081526005600052601390935293517ff4b2859895858d6aa26d656e4999d552f6a869b74c43bba7d2a941c4d22c35595591517ff4b2859895858d6aa26d656e4999d552f6a869b74c43bba7d2a941c4d22c355a5591517ff4b2859895858d6aa26d656e4999d552f6a869b74c43bba7d2a941c4d22c355b55517ff4b2859895858d6aa26d656e4999d552f6a869b74c43bba7d2a941c4d22c355c55517ff4b2859895858d6aa26d656e4999d552f6a869b74c43bba7d2a941c4d22c355d55565b62000a256040516200093e8162001c5a565b6007815261271060208083019182526004604084018181526060850191825261270f608086019081526006600052601390935293517f709d0e3cf89777a1e1f9c99632e4494f29b0327befd0df15e277a12d948257955591517f709d0e3cf89777a1e1f9c99632e4494f29b0327befd0df15e277a12d948257965591517f709d0e3cf89777a1e1f9c99632e4494f29b0327befd0df15e277a12d9482579755517f709d0e3cf89777a1e1f9c99632e4494f29b0327befd0df15e277a12d9482579855517f709d0e3cf89777a1e1f9c99632e4494f29b0327befd0df15e277a12d9482579955565b62000b2060405162000a378162001c5a565b60078082526161a860208084019182526004604085018181526060860191825261270f60808701908152600095909552601390925293517f8ba6fb577925b0796671c737df59b8aaae861b630513fb12823699e3e0e3ee605590517f8ba6fb577925b0796671c737df59b8aaae861b630513fb12823699e3e0e3ee6155517f8ba6fb577925b0796671c737df59b8aaae861b630513fb12823699e3e0e3ee625590517f8ba6fb577925b0796671c737df59b8aaae861b630513fb12823699e3e0e3ee6355517f8ba6fb577925b0796671c737df59b8aaae861b630513fb12823699e3e0e3ee6455565b62000c1660405162000b328162001c5a565b6000808252600660208084019182526001604085018181526005606087019081526080870183815292909552601590925293517f27739e4bb5e6f8b5e4b57a047dca8767cc9b982a011081e086cbb0dfa9de818d5590517f27739e4bb5e6f8b5e4b57a047dca8767cc9b982a011081e086cbb0dfa9de818e55517f27739e4bb5e6f8b5e4b57a047dca8767cc9b982a011081e086cbb0dfa9de818f55517f27739e4bb5e6f8b5e4b57a047dca8767cc9b982a011081e086cbb0dfa9de819055517f27739e4bb5e6f8b5e4b57a047dca8767cc9b982a011081e086cbb0dfa9de819155565b62000d0d60405162000c288162001c5a565b600080825260036020808401918252600160408501818152600560608701908152608087019283526002909552601590925293517f07d4ff730d9753101d832555708a37d38c2c45fce8cacaefc99f06074e93fe0b5590517f07d4ff730d9753101d832555708a37d38c2c45fce8cacaefc99f06074e93fe0c55517f07d4ff730d9753101d832555708a37d38c2c45fce8cacaefc99f06074e93fe0d55517f07d4ff730d9753101d832555708a37d38c2c45fce8cacaefc99f06074e93fe0e55517f07d4ff730d9753101d832555708a37d38c2c45fce8cacaefc99f06074e93fe0f55565b62000e0760405162000d1f8162001c5a565b60028152600f6020808301918252600a604084019081526005606085019081526001608086019081526003600052601590935293517fb3a65e8276bd33b3e4f7d6081ebd9899187264822358758dca2e2bc37b2a9c275591517fb3a65e8276bd33b3e4f7d6081ebd9899187264822358758dca2e2bc37b2a9c285590517fb3a65e8276bd33b3e4f7d6081ebd9899187264822358758dca2e2bc37b2a9c295590517fb3a65e8276bd33b3e4f7d6081ebd9899187264822358758dca2e2bc37b2a9c2a55517fb3a65e8276bd33b3e4f7d6081ebd9899187264822358758dca2e2bc37b2a9c2b55565b62000f0160405162000e198162001c5a565b60028152600f6020808301918252600a604084019081526005606085019081526001608086019081526004600052601590935293517f8191f4eb6b8bafbfe9a5389c8d07d7f5fd81137a7ee653fc4358269845ee1d2e5591517f8191f4eb6b8bafbfe9a5389c8d07d7f5fd81137a7ee653fc4358269845ee1d2f5590517f8191f4eb6b8bafbfe9a5389c8d07d7f5fd81137a7ee653fc4358269845ee1d305590517f8191f4eb6b8bafbfe9a5389c8d07d7f5fd81137a7ee653fc4358269845ee1d3155517f8191f4eb6b8bafbfe9a5389c8d07d7f5fd81137a7ee653fc4358269845ee1d3255565b62000ffb60405162000f138162001c5a565b60028152600f6020808301918252600a60408401908152600560608501818152600160808701908152600092909252601590935293517fbab719002e4be320868650dc7456e9a1d245e4d5dd64765588e2f21529d871d35591517fbab719002e4be320868650dc7456e9a1d245e4d5dd64765588e2f21529d871d45590517fbab719002e4be320868650dc7456e9a1d245e4d5dd64765588e2f21529d871d555517fbab719002e4be320868650dc7456e9a1d245e4d5dd64765588e2f21529d871d655517fbab719002e4be320868650dc7456e9a1d245e4d5dd64765588e2f21529d871d755565b620019796040516200100d8162001c5a565b60028152604b602080830182815260646040850181815260fa60608701818152608088019384526006600052601590955295517f25847c9ccf691da811a9f934d6b3b92e6062ef92feb71bf4cb08cbb4fad8d6525591517f25847c9ccf691da811a9f934d6b3b92e6062ef92feb71bf4cb08cbb4fad8d6535590517f25847c9ccf691da811a9f934d6b3b92e6062ef92feb71bf4cb08cbb4fad8d6545590517f25847c9ccf691da811a9f934d6b3b92e6062ef92feb71bf4cb08cbb4fad8d65555517f25847c9ccf691da811a9f934d6b3b92e6062ef92feb71bf4cb08cbb4fad8d6565590620011e5604051620011048162001c5a565b60028152602080820185815260646040840181815260608501878152608086019283526007600052601590945293517f5d0f48e37dc1225cdee8d6f2a0315d796f55423522fe638d7d95421802dfc0065590517f5d0f48e37dc1225cdee8d6f2a0315d796f55423522fe638d7d95421802dfc0075591517f5d0f48e37dc1225cdee8d6f2a0315d796f55423522fe638d7d95421802dfc00855517f5d0f48e37dc1225cdee8d6f2a0315d796f55423522fe638d7d95421802dfc00955517f5d0f48e37dc1225cdee8d6f2a0315d796f55423522fe638d7d95421802dfc00a55565b620012d8604051620011f78162001c5a565b60028152602080820185815260646040840181815260608501878152608086019283526008600052601590945293517f2d0e46a571fdfbe57c7c718891a8a12999c102dfffa2b3314ea165dedd1684f55590517f2d0e46a571fdfbe57c7c718891a8a12999c102dfffa2b3314ea165dedd1684f65591517f2d0e46a571fdfbe57c7c718891a8a12999c102dfffa2b3314ea165dedd1684f755517f2d0e46a571fdfbe57c7c718891a8a12999c102dfffa2b3314ea165dedd1684f855517f2d0e46a571fdfbe57c7c718891a8a12999c102dfffa2b3314ea165dedd1684f955565b620013cb604051620012ea8162001c5a565b60028152602080820185815260646040840181815260608501878152608086019283526009600052601590945293517f497613c0658032a90a449a944031c57b1d03996c3a6148fe12146c45cf3214005590517f497613c0658032a90a449a944031c57b1d03996c3a6148fe12146c45cf3214015591517f497613c0658032a90a449a944031c57b1d03996c3a6148fe12146c45cf32140255517f497613c0658032a90a449a944031c57b1d03996c3a6148fe12146c45cf32140355517f497613c0658032a90a449a944031c57b1d03996c3a6148fe12146c45cf32140455565b620014be604051620013dd8162001c5a565b6002815260208082018581526064604084018181526060850187815260808601928352600a600052601590945293517f0cfcac9f3767130657d3b01a9146da544eeb39eb9670066ace5e84da7fc4319f5590517f0cfcac9f3767130657d3b01a9146da544eeb39eb9670066ace5e84da7fc431a05591517f0cfcac9f3767130657d3b01a9146da544eeb39eb9670066ace5e84da7fc431a155517f0cfcac9f3767130657d3b01a9146da544eeb39eb9670066ace5e84da7fc431a255517f0cfcac9f3767130657d3b01a9146da544eeb39eb9670066ace5e84da7fc431a355565b620015b1604051620014d08162001c5a565b6002815260208082018581526064604084018181526060850187815260808601928352600b600052601590945293517fcaeae41dfed97dfd8c41876ff591faa3e36cda388621c550caa3321a2a624e5f5590517fcaeae41dfed97dfd8c41876ff591faa3e36cda388621c550caa3321a2a624e605591517fcaeae41dfed97dfd8c41876ff591faa3e36cda388621c550caa3321a2a624e6155517fcaeae41dfed97dfd8c41876ff591faa3e36cda388621c550caa3321a2a624e6255517fcaeae41dfed97dfd8c41876ff591faa3e36cda388621c550caa3321a2a624e6355565b620016a4604051620015c38162001c5a565b6002815260208082018581526064604084018181526060850187815260808601928352600c600052601590945293517f74c10a04815bbeaf3165dab0bd11b69aae73edf00a48b27ec8c53ac5b61d47fd5590517f74c10a04815bbeaf3165dab0bd11b69aae73edf00a48b27ec8c53ac5b61d47fe5591517f74c10a04815bbeaf3165dab0bd11b69aae73edf00a48b27ec8c53ac5b61d47ff55517f74c10a04815bbeaf3165dab0bd11b69aae73edf00a48b27ec8c53ac5b61d480055517f74c10a04815bbeaf3165dab0bd11b69aae73edf00a48b27ec8c53ac5b61d480155565b62001797604051620016b68162001c5a565b6002815260208082018581526064604084018181526060850187815260808601928352600d600052601590945293517fe3e3bb3f660b5aca6f44f8cdafd6456c07cd53888341ab748ffc02d532ccc70e5590517fe3e3bb3f660b5aca6f44f8cdafd6456c07cd53888341ab748ffc02d532ccc70f5591517fe3e3bb3f660b5aca6f44f8cdafd6456c07cd53888341ab748ffc02d532ccc71055517fe3e3bb3f660b5aca6f44f8cdafd6456c07cd53888341ab748ffc02d532ccc71155517fe3e3bb3f660b5aca6f44f8cdafd6456c07cd53888341ab748ffc02d532ccc71255565b6200188a604051620017a98162001c5a565b6002815260208082018581526064604084018181526060850187815260808601928352600e600052601590945293517f39f65be0de5254440eb2b93b160b1af3a4f45fe0571eaea7ef454b27b7f02d185590517f39f65be0de5254440eb2b93b160b1af3a4f45fe0571eaea7ef454b27b7f02d195591517f39f65be0de5254440eb2b93b160b1af3a4f45fe0571eaea7ef454b27b7f02d1a55517f39f65be0de5254440eb2b93b160b1af3a4f45fe0571eaea7ef454b27b7f02d1b55517f39f65be0de5254440eb2b93b160b1af3a4f45fe0571eaea7ef454b27b7f02d1c55565b60405191620018998362001c5a565b6002835260208084019182526064604085018181526060860194855260808601918252600f600052601590925293517f3bda72f6153f13a10a865b9a6397e1123f4aa6a1726e0e1349cd07eb0e24d8155590517f3bda72f6153f13a10a865b9a6397e1123f4aa6a1726e0e1349cd07eb0e24d81655517f3bda72f6153f13a10a865b9a6397e1123f4aa6a1726e0e1349cd07eb0e24d81755517f3bda72f6153f13a10a865b9a6397e1123f4aa6a1726e0e1349cd07eb0e24d81855517f3bda72f6153f13a10a865b9a6397e1123f4aa6a1726e0e1349cd07eb0e24d81955565b604051620019878162001c76565b60128152600a6020808301918252602d60408085019182526003600052601490925292517f63d87a887046e0430be80fdeb014107d7198c879cbf2cddf39a6df195c86cb385590517f63d87a887046e0430be80fdeb014107d7198c879cbf2cddf39a6df195c86cb395590517f63d87a887046e0430be80fdeb014107d7198c879cbf2cddf39a6df195c86cb3a555162001a218162001c76565b60128152600a6020808301918252605a60408085019182526005600052601490925292517f116126bec5aaa49b347e966c49378cf0c441de9121e306ea3d824584a9615aa25590517f116126bec5aaa49b347e966c49378cf0c441de9121e306ea3d824584a9615aa35590517f116126bec5aaa49b347e966c49378cf0c441de9121e306ea3d824584a9615aa4555162001abb8162001c76565b60098152600a602080830191825261270f6040808501918252600760009081526014845294517f904977a779b22381a36c6463d4166ef55ee8cb3392c83093cb1750f1a00c9d945592517f904977a779b22381a36c6463d4166ef55ee8cb3392c83093cb1750f1a00c9d9555517f904977a779b22381a36c6463d4166ef55ee8cb3392c83093cb1750f1a00c9d96556012905260327f8e1fee8c88a9e04123b21e90cae2727a7715bf522a1e46eb5934ccd05203a6b25560049091526101f47fb4fcd034df3d20faa1c133b66d862ce92732727d40916b48ffb4020cb00fe0535551612f56908162001d51823960805181611ded0152f35b62001bda915060203d60201162001be1575b62001bd1818362001c92565b81019062001cb6565b38620002fa565b503d62001bc5565b6040513d6000823e3d90fd5b62001c109150833d851162001be15762001bd1818362001c92565b38620002b8565b634e487b7160e01b600052604160045260246000fd5b634e487b7160e01b600052601160045260246000fd5b60405163e6c4247b60e01b8152600490fd5b600080fd5b60a081019081106001600160401b0382111762001c1757604052565b606081019081106001600160401b0382111762001c1757604052565b601f909101601f19168101906001600160401b0382119082101762001c1757604052565b9081602091031262001c5557516001600160a01b038116810362001c555790565b60405190608082016001600160401b0381118382101762001c175760405260006060838281528260208201528260408201520152565b6040519060c082016001600160401b0381118382101762001c17576040528160a0600091828152826020820152826040820152826060820152826080820152015256fe60806040526004361015610018575b361561001657005b005b60003560e01c806304ce9f80146104985780630609a0e31461049357806307175c831461048e57806309307c62146104895780630aa4b750146104845780630b225f1a1461047f5780630ea0d2221461047a57806312065fe01461047557806314be92a51461047057806315a544ed1461046b5780631605aed91461046657806316f0115b14610461578063179b570a1461045c578063192b48ee146104575780631ef6a864146104525780631f185d161461044d578063203bab661461044857806326c5adae14610443578063298fc4601461043e578063339459a6146104395780633688236d146104345780633b9b79551461042f5780633eb71c061461042a5780634151331d14610425578063438fe1921461042057806344ec16bc1461041b5780634b62954f1461041657806353423e8614610411578063541d76671461040c57806354541683146104075780635640dbfc14610402578063592a02a8146103fd5780635962205f146103f85780635a0e9038146103f35780636c7deb5d146103ee5780636f092c5e146103e95780637687e371146103e457806378ef376f146103df5780637bc908c6146103da57806382a3c503146103d5578063840bbc1e146103d05780638da5cb5b146103cb57806391fc8aa8146103c65780639319d0b5146103c15780639d80ab9b146103bc5780639eb8b44e146103b75780639f70207d146103b2578063a19841dd146103ad578063a1f7f539146103a8578063a88fcea6146103a3578063ac14611a1461039e578063aebcd32a14610399578063af0b21d314610394578063af4845261461038f578063b49c064c1461038a578063b85f1f8d14610385578063b90306ad14610380578063c54e44b01461037b578063c5a136d414610376578063d0bb2ddf14610371578063dbad649c1461036c578063e01ad5fd14610367578063e0a9bc2b14610362578063e19a5bcf1461035d578063e6a7791914610358578063eddd0d9c14610353578063f27c35c61461034e578063f2a6bbc714610349578063f4fe8e3c14610344578063f7a9783e1461033f578063fc0e74d11461033a5763fdc10bc90361000e576126c6565b6126a3565b61262a565b6125be565b61256f565b6124c4565b612475565b61237b565b6122bf565b6122a4565b6121d9565b6121bb565b612165565b6120c8565b612042565b611f41565b611f07565b611ee4565b611eb3565b611e95565b611e2d565b611dc8565b611daa565b611d35565b611cfb565b611cdd565b611b06565b611a87565b611a38565b611a1a565b6119f3565b61197a565b6118d6565b6118b8565b611869565b611801565b6117d5565b611786565b61174d565b6116e5565b6115e6565b611565565b611547565b6114d1565b6114b3565b61145e565b61140f565b6113f1565b6113ae565b61135f565b611338565b61131a565b610c37565b610bcf565b610ae5565b610a5a565b610973565b6108ac565b61081c565b6107c7565b610776565b610758565b61073a565b6106eb565b6106cf565b6106b1565b610693565b610675565b610620565b610602565b61055f565b3461055a57604036600319011261055a57600080808060243560043560018114610524575b6002146104f2575b50906104ee91604051948594859094939260609260808301968352602083015260408201520152565b0390f35b6021546022546023546025549297509095506104ee945092501061051c576026545b9290916104c5565b602454610514565b935093505050601d5491601e54601f54918060255410156000146105505760026026545b9490506104bd565b6002602054610548565b600080fd5b3461055a57602036600319011261055a57610578612b95565b156105d85761058633612c1a565b80156105c4575b1561059a57600435602b55005b60046040517fea8e4eb5000000000000000000000000000000000000000000000000000000008152fd5b50336001600160a01b03600554161461058d565b60046040517f9dc4246e000000000000000000000000000000000000000000000000000000008152fd5b3461055a57600036600319011261055a576020603254604051908152f35b3461055a57604036600319011261055a57610639612b95565b156105d85761064733612c1a565b8015610661575b1561059a57600435603455602435603555005b50336001600160a01b03600554161461064e565b3461055a57600036600319011261055a576020603754604051908152f35b3461055a57600036600319011261055a576020604654604051908152f35b3461055a57600036600319011261055a576020603054604051908152f35b3461055a57600036600319011261055a57602047604051908152f35b3461055a57602036600319011261055a57610704612b95565b156105d85761071233612c1a565b8015610726575b1561059a57600435603055005b50336001600160a01b036005541614610719565b3461055a57600036600319011261055a576020603554604051908152f35b3461055a57600036600319011261055a576020603454604051908152f35b3461055a57600036600319011261055a5760e0601654601754601854601954601a5490601b5492601c5494604051968752602087015260408601526060850152608084015260a083015260c0820152f35b3461055a57604036600319011261055a576107e0612b95565b156105d8576107ee33612c1a565b8015610808575b1561059a57600435602555602435602655005b50336001600160a01b0360055416146107f5565b3461055a57602036600319011261055a57600435610838612b95565b156105d85761084633612c1a565b8015610876575b1561059a57670de0b6b3a76400009081810291818304149015171561087157603355005b612dc0565b50336001600160a01b03600554161461084d565b60a090600319011261055a576004359060243590604435906064359060843590565b3461055a576108ba3661088a565b906108c794929394612b95565b156105d8576108d533612c1a565b801561094e575b1561059a576002936108ec612e71565b9586526020860152604085015260608401526001811461092c575b1461090e57005b8051603c556020810151603d556040810151603e5560600151603f55005b825160385560208301516039556040830151603a556060830151603b55610907565b50336001600160a01b0360055416146108dc565b6001600160a01b0381160361055a57565b3461055a5760208060031936011261055a576109f260043561099481610962565b6001600160a01b038060025416906040519216848301528382526109b7826127b5565b604051906109c4826127b5565b601182527f69735369676e657228616464726573732900000000000000000000000000000085830152612cd4565b919080610a50575b15610a26578181610a14926104ee94518301019101612b80565b60405190151581529081906020820190565b60046040517f3204506f000000000000000000000000000000000000000000000000000000008152fd5b50808251146109fa565b3461055a5760e036600319011261055a57610a73612b95565b156105d857610a8133612c1a565b8015610ad1575b1561059a57610a98604051612740565b600435601655602435601755604435601855606435601955610abb608435601a55565b610ac660a435601b55565b61001660c435601c55565b50336001600160a01b036005541614610a88565b3461055a57602036600319011261055a57600460206001600160a01b0360005416604051928380926369e8d84b60e11b82525afa8015610bc057610b4391600091610b92575b50610b34612ecf565b90610b3d612ee7565b90612d82565b60325490670de0b6b3a764000091828102928184041490151715610871576104ee91610b7d610b8292610b7860043593612df6565b612dd6565b612e13565b6040519081529081906020820190565b610bb3915060203d8111610bb9575b610bab81836127ed565b81019061280f565b38610b2b565b503d610ba1565b612827565b8015150361055a57565b3461055a57602036600319011261055a57600435610bec81610bc5565b610bf4612b95565b156105d857610c0233612c1a565b8015610c23575b1561059a5760ff8019604754169115151617604755600080f35b50336001600160a01b036005541614610c09565b3461055a57600036600319011261055a57610c69610c5d6000546001600160a01b031690565b6001600160a01b031690565b604051907f97f3815a000000000000000000000000000000000000000000000000000000008252602082600481845afa918215610bc0576000926112f9575b50604051917fcfbffe53000000000000000000000000000000000000000000000000000000008352602083600481855afa928315610bc0576000936112d8575b50604051907fab6e844f000000000000000000000000000000000000000000000000000000008252602082600481865afa918215610bc0576000926112b7575b50604051917f14d8d024000000000000000000000000000000000000000000000000000000008352602083600481875afa928315610bc057600093611296575b50604051927fd1f956b1000000000000000000000000000000000000000000000000000000008452602084600481885afa938415610bc057600094611275575b50604051937fe61dfd58000000000000000000000000000000000000000000000000000000008552602085600481895afa948515610bc057600095611254575b506040517fe09d394d0000000000000000000000000000000000000000000000000000000081526020816004818a5afa908115610bc057600091611235575b506040517f52b06d640000000000000000000000000000000000000000000000000000000081526020816004818b5afa908115610bc057600091611216575b506040517f013cf08b00000000000000000000000000000000000000000000000000000000815260006004820152916020836024818c5afa928315610bc0576000936111f5575b50604051977f5e09dbe70000000000000000000000000000000000000000000000000000000089526020896004818d5afa948515610bc0576004996000966111d4575b5060208b6040519b8c80927faa0ddc160000000000000000000000000000000000000000000000000000000082525afa968715610bc05760049a6000986111b3575b5060208c6040519c8d80927f640274270000000000000000000000000000000000000000000000000000000082525afa988915610bc05760049b60009a611192575b5060208d6040519d8e80927f30125cf50000000000000000000000000000000000000000000000000000000082525afa9a8b15610bc0578d60049d60009d611170575b506020906040519e8f80927f24768d910000000000000000000000000000000000000000000000000000000082525afa9c8d15610bc05760009d61114f575b50604051809e81907f9dc969a80000000000000000000000000000000000000000000000000000000082525a92600491602094fa9d8e15610bc05760009e61112e575b50611042612833565b6001600160a01b0390911681529d8e906001600160a01b031660208201526040019061107691906001600160a01b03169052565b6001600160a01b031660608d01526001600160a01b031660808c01526001600160a01b031660a08b01526001600160a01b031660c08a01526001600160a01b031660e08901526001600160a01b03166101008801526001600160a01b03166101208701526001600160a01b03166101408601526001600160a01b03166101608501526001600160a01b03166101808401526001600160a01b03166101a08301526001600160a01b03166101c082015261001690612863565b611148919e5060203d602011610bb957610bab81836127ed565b9c38611039565b611169919d5060203d602011610bb957610bab81836127ed565b9b38610ff6565b6020919d5061118b90823d8411610bb957610bab81836127ed565b9c90610fb7565b6111ac919a5060203d602011610bb957610bab81836127ed565b9838610f74565b6111cd91985060203d602011610bb957610bab81836127ed565b9638610f32565b6111ee91965060203d602011610bb957610bab81836127ed565b9438610ef0565b61120f91935060203d602011610bb957610bab81836127ed565b9138610ead565b61122f915060203d602011610bb957610bab81836127ed565b38610e66565b61124e915060203d602011610bb957610bab81836127ed565b38610e27565b61126e91955060203d602011610bb957610bab81836127ed565b9338610de8565b61128f91945060203d602011610bb957610bab81836127ed565b9238610da8565b6112b091935060203d602011610bb957610bab81836127ed565b9138610d68565b6112d191925060203d602011610bb957610bab81836127ed565b9038610d28565b6112f291935060203d602011610bb957610bab81836127ed565b9138610ce8565b61131391925060203d602011610bb957610bab81836127ed565b9038610ca8565b3461055a57600036600319011261055a576020602f54604051908152f35b3461055a57600036600319011261055a5760206001600160a01b0360005416604051908152f35b3461055a57602036600319011261055a57611378612b95565b156105d85761138633612c1a565b801561139a575b1561059a57600435603755005b50336001600160a01b03600554161461138d565b3461055a57602036600319011261055a57600435600052601460205260606040600020805490600260018201549101549060405192835260208301526040820152f35b3461055a57600036600319011261055a576020602d54604051908152f35b3461055a57602036600319011261055a57611428612b95565b156105d85761143633612c1a565b801561144a575b1561059a57600435602c55005b50336001600160a01b03600554161461143d565b3461055a57604036600319011261055a57611477612b95565b156105d85761148533612c1a565b801561149f575b1561059a57600435602e55602435602f55005b50336001600160a01b03600554161461148c565b3461055a57600036600319011261055a576020603154604051908152f35b3461055a57602036600319011261055a57600460206001600160a01b0360005416604051928380926369e8d84b60e11b82525afa8015610bc057611526610b82916104ee93600091610b925750610b34612ecf565b6004356000526012602052610b78611542604060002054612df6565b612df6565b3461055a57600036600319011261055a576020602c54604051908152f35b3461055a57600036600319011261055a5760c060275460ff60285460295490604051938452602084015281811615156040840152818160081c1615156060840152818160101c161515608084015260181c16151560a0820152f35b60c090600319011261055a57600435906024359060443590606435906084359060a43590565b3461055a576115f4366115c0565b90611600959295612b95565b156105d85761160e33612c1a565b80156116d1575b1561059a57601083101561168d576100169561165e946040519661163888612761565b875260208701526040860152606085015260808401526000526015602052604060002090565b906080600491805184556020810151600185015560408101516002850155606081015160038501550151910155565b606460405162461bcd60e51b815260206004820152600d60248201527f696e76616c6964206c6576656c000000000000000000000000000000000000006044820152fd5b50336001600160a01b036005541614611615565b3461055a57602036600319011261055a576004356000526015602052604060002080546104ee6001830154926002810154906004600382015491015491604051958695869192608093969594919660a084019784526020840152604083015260608201520152565b3461055a57600036600319011261055a57601d54601e54601f546020805460408051958652918501939093528301526060820152608090f35b3461055a57602036600319011261055a5761179f612b95565b156105d8576117ad33612c1a565b80156117c1575b1561059a57600435603155005b50336001600160a01b0360055416146117b4565b3461055a57602036600319011261055a5760043560005260126020526020604060002054604051908152f35b3461055a57602036600319011261055a5760043561181e81610bc5565b611826612b95565b156105d85761183433612c1a565b8015611855575b1561059a5760ff8019602a54169115151617602a55600080f35b50336001600160a01b03600554161461183b565b3461055a57602036600319011261055a57611882612b95565b156105d85761189033612c1a565b80156118a4575b1561059a57600435603655005b50336001600160a01b036005541614611897565b3461055a57600036600319011261055a576020603654604051908152f35b3461055a5760c036600319011261055a576004356118f381610962565b6064356118ff81610962565b611907612b95565b156105d85761191533612c1a565b8015611966575b1561059a576001600160a01b0390816001600160a01b031993168360405416176040556024356041556044356042551690604354161760435560843560445560a435604555600080f35b50336001600160a01b03600554161461191c565b3461055a57602036600319011261055a57600460206001600160a01b0360005416604051928380926369e8d84b60e11b82525afa908115610bc0576119e16119d96104ee93670de0b6b3a764000093600091610b925750610b34612ecf565b600435612e13565b04604051918291829190602083019252565b3461055a57600036600319011261055a5760206001600160a01b0360015416604051908152f35b3461055a57600036600319011261055a576020603354604051908152f35b3461055a57602036600319011261055a57611a51612b95565b156105d857611a5f33612c1a565b8015611a73575b1561059a57600435602d55005b50336001600160a01b036005541614611a66565b3461055a57600036600319011261055a57603854603954603a54603b54604080519485526020850193909352918301526060820152608090f35b6102a0810192916000915b60078310611ad957505050565b60019060608351918251815260209283810151848301526040809101519082015201920192019190611acc565b3461055a57600080600319360112611cda576040908151611b2681612740565b815b60e08110611cb5576104ee84611b3c612854565b6001600052601460205290611b757fb6c61a840592cc84133e4b25bd509abf4659307c57b160799b38490a5aa48f2c612ea7565b612ea7565b825260026000526014602052611baa7fa1930aa930426c54c34daad2b9ada7c5d0ef0c96078a3c5bb79f6fa6602c4a7a612ea7565b6020830152611bc7611b7060036000526014602052604060002090565b8282015260046000526014602052611bfe7f52102136546d97ed3f65ec1070a32935d3048ea12f310d29c378dc9d6555c0d6612ea7565b606083015260056000526014602052611c367f116126bec5aaa49b347e966c49378cf0c441de9121e306ea3d824584a9615aa2612ea7565b608083015260066000526014602052611c6e7fe1f6b6a5fb7e47dad87547d4b0671e7e995a1dae22fbe5b3b5d10e2a77ed7aff612ea7565b60a083015260076000526014602052611ca67f904977a779b22381a36c6463d4166ef55ee8cb3392c83093cb1750f1a00c9d94612ea7565b60c08301525191829182611ac1565b6020908451611cc38161277d565b848152848382015284868201528184015201611b28565b80fd5b3461055a57600036600319011261055a576020602554604051908152f35b3461055a57600036600319011261055a57603c54603d54603e54603f54604080519485526020850193909352918301526060820152608090f35b3461055a57600036600319011261055a576020611da26001600160a01b0360065416604051611d63816127b5565b601381527f67657464656c656761746f72436f756e742829000000000000000000000000008482015260405191611d99836127d1565b60008352612d82565b604051908152f35b3461055a57600036600319011261055a576020602e54604051908152f35b3461055a57600036600319011261055a57614d584201804211610871576201518090047f000000000000000000000000000000000000000000000000000000000000000081039081116108715761012b90810180911161087157602090604051908152f35b3461055a57602036600319011261055a576004356000526013602052604060002080546104ee6001830154926002810154906004600382015491015491604051958695869192608093969594919660a084019784526020840152604083015260608201520152565b3461055a57600036600319011261055a576020602b54604051908152f35b3461055a57602036600319011261055a576020611eda600435611ed581610962565b612c1a565b6040519015158152f35b3461055a57600036600319011261055a57602060ff604754166040519015158152f35b3461055a57600036600319011261055a57602154602254602354602454604080519485526020850193909352918301526060820152608090f35b3461055a57602036600319011261055a576004356001600160a01b0360055416330361059a5760009060046020611f82610c5d85546001600160a01b031690565b604051928380927f46f991ac0000000000000000000000000000000000000000000000000000000082525afa8015610bc05783808481949382948391612024575b505af1611fce612ca4565b5015610a26577fcdcc745fe377b103b45fa0cec23ae3ef93d6fc6a84a01f0d18c40b354dd1d5d861201e61200d610c5d600b546001600160a01b031690565b604051938452929081906020820190565b0390a280f35b61203c915060203d8111610bb957610bab81836127ed565b38611fc3565b3461055a57602036600319011261055a5760043561205f81610962565b803b600061206c82612b64565b9261207a60405194856127ed565b82845260208401903c602d81511061209e57602a602091015160601c604051908152f35b60046040517fbaf3f0f7000000000000000000000000000000000000000000000000000000008152fd5b3461055a57608036600319011261055a576004356120e4612b95565b156105d8576120f233612c1a565b8015612151575b1561059a5761210a60088210612e26565b6002604051916121198361277d565b602435835260208301604435815260408401916064358352600052601460205260406000209351845551600184015551910155600080f35b50336001600160a01b0360055416146120f9565b3461055a57600036600319011261055a5760c06001600160a01b038060405416906041549060425490604354166044549160455493604051958652602086015260408501526060840152608083015260a0820152f35b3461055a57600036600319011261055a576020602654604051908152f35b3461055a5760208060031936011261055a576104ee90600435906121fc82610962565b6122606001600160a01b0392836006541693604051911683820152828152612223816127b5565b60405161222f816127b5565b601881527f697364656c656761746f724e6f6465286164647265737329000000000000000084820152600094612cd4565b91908061229a575b612281575b505060405190151581529081906020820190565b61229392508082518301019101612b80565b388061226d565b5080825114612268565b3461055a57600036600319011261055a576020611eda612b95565b3461055a576122cd3661088a565b906122da94929394612b95565b156105d8576122e833612c1a565b8015612367575b1561059a576002936122ff612e71565b9586526020860152604085015260608401526001811461233f575b1461232157005b80516021556020810151602255604081015160235560600151602455005b612362836060908051601d556020810151601e556040810151601f550151602055565b61231a565b50336001600160a01b0360055416146122ef565b3461055a5760c036600319011261055a5760443561239881610bc5565b606435906123a582610bc5565b608435906123b282610bc5565b60a435916123bf83610bc5565b6123c7612b95565b156105d8576123d533612c1a565b8015612461575b1561059a5761001693612417612442936123f7604051612799565b600435602755602435602855151560ff8019602954169115151617602955565b6029805462ffff00191691151560081b61ff00169190911791151560101b62ff000016919091179055565b151563ff00000060295491151560181b169063ff000000191617602955565b50336001600160a01b0360055416146123dc565b3461055a57602036600319011261055a5761248e612b95565b156105d85761249c33612c1a565b80156124b0575b1561059a57600435603255005b50336001600160a01b0360055416146124a3565b3461055a576124d2366115c0565b916124de959395612b95565b156105d8576124ec33612c1a565b801561255b575b1561059a57610016956040519561250987612761565b8652602086015260408501526060840152608083015260005260136020526040600020906080600491805184556020810151600185015560408101516002850155606081015160038501550151910155565b50336001600160a01b0360055416146124f3565b3461055a57602036600319011261055a57612588612b95565b156105d85761259633612c1a565b80156125aa575b1561059a57600435604655005b50336001600160a01b03600554161461259d565b3461055a57604036600319011261055a576004356125da612b95565b156105d8576125e833612c1a565b8015612616575b1561059a5761260060088210612e26565b6000526012602052602435604060002055600080f35b50336001600160a01b0360055416146125ef565b3461055a57602036600319011261055a57600435600460206001600160a01b0360005416604051928380926369e8d84b60e11b82525afa8015610bc05761267b91600091610b925750610b34612ecf565b90670de0b6b3a764000090818102918183041490151715610871576104ee91610b8291612dd6565b3461055a57600036600319011261055a57602060ff602a54166040519015158152f35b3461055a57600036600319011261055a576020611da26001600160a01b03600354166040516126f4816127b5565b600681527f69416765282900000000000000000000000000000000000000000000000000008482015260405191611d99836127d1565b634e487b7160e01b600052604160045260246000fd5b60e0810190811067ffffffffffffffff82111761275c57604052565b61272a565b60a0810190811067ffffffffffffffff82111761275c57604052565b6060810190811067ffffffffffffffff82111761275c57604052565b60c0810190811067ffffffffffffffff82111761275c57604052565b6040810190811067ffffffffffffffff82111761275c57604052565b6020810190811067ffffffffffffffff82111761275c57604052565b90601f8019910116810190811067ffffffffffffffff82111761275c57604052565b9081602091031261055a575161282481610962565b90565b6040513d6000823e3d90fd5b604051906101e0820182811067ffffffffffffffff82111761275c57604052565b6040519061286182612740565b565b612b486101c06128619261289d61288182516001600160a01b031690565b6001600160a01b03166001600160a01b03196002541617600255565b6128d06128b460208301516001600160a01b031690565b6001600160a01b03166001600160a01b03196003541617600355565b6129036128e760408301516001600160a01b031690565b6001600160a01b03166001600160a01b03196004541617600455565b61293661291a60608301516001600160a01b031690565b6001600160a01b03166001600160a01b03196005541617600555565b61296961294d60808301516001600160a01b031690565b6001600160a01b03166001600160a01b03196006541617600655565b61299c61298060a08301516001600160a01b031690565b6001600160a01b03166001600160a01b03196007541617600755565b6129cf6129b360c08301516001600160a01b031690565b6001600160a01b03166001600160a01b03196008541617600855565b612a026129e660e08301516001600160a01b031690565b6001600160a01b03166001600160a01b03196009541617600955565b612a36612a1a6101008301516001600160a01b031690565b6001600160a01b03166001600160a01b0319600a541617600a55565b612a6a612a4e6101208301516001600160a01b031690565b6001600160a01b03166001600160a01b0319600b541617600b55565b612a9e612a826101408301516001600160a01b031690565b6001600160a01b03166001600160a01b0319600c541617600c55565b612ad2612ab66101608301516001600160a01b031690565b6001600160a01b03166001600160a01b0319600d541617600d55565b612b06612aea6101808301516001600160a01b031690565b6001600160a01b03166001600160a01b0319600e541617600e55565b612b3a612b1e6101a08301516001600160a01b031690565b6001600160a01b03166001600160a01b0319600f541617600f55565b01516001600160a01b031690565b6001600160a01b03166001600160a01b03196010541617601055565b67ffffffffffffffff811161275c57601f01601f191660200190565b9081602091031261055a575161282481610bc5565b612bf06001600160a01b0360025416604051612bb0816127b5565b600881527f6973536166652829000000000000000000000000000000000000000000000000602082015260405191612be7836127d1565b60008352612cd4565b9080612c0f575b15610a26578060208061282493518301019101612b80565b506020815114612bf7565b612c7d6001600160a01b038060025416604051916020941684830152838252612c42826127b5565b60405190612c4f826127b5565b601582527f697353656375726542617365286164647265737329000000000000000000000085830152612cd4565b9080612c9a575b15610a2657816128249282518301019101612b80565b5081815114612c84565b3d15612ccf573d90612cb582612b64565b91612cc360405193846127ed565b82523d6000602084013e565b606090565b9190823b15612d69577fffffffff00000000000000000000000000000000000000000000000000000000815160208093012016916040519180830193845281519160005b838110612d55575050509181612d45602482600097959688970187838201520360048101845201826127ed565b51915afa612d51612ca4565b9091565b818101830151858201602401528201612d18565b505050600090604051612d7b816127d1565b6000815290565b9291612d9091600094612cd4565b9080612db5575b612d9e5750565b90915060208180518101031261055a576020015190565b506020815114612d97565b634e487b7160e01b600052601160045260246000fd5b8115612de0570490565b634e487b7160e01b600052601260045260246000fd5b90670de0b6b3a76400009182810292818404149015171561087157565b8181029291811591840414171561087157565b15612e2d57565b606460405162461bcd60e51b815260206004820152600c60248201527f696e76616c69642072616e6b00000000000000000000000000000000000000006044820152fd5b604051906080820182811067ffffffffffffffff82111761275c5760405260006060838281528260208201528260408201520152565b90604051612eb48161277d565b60406002829480548452600181015460208501520154910152565b604051612edb816127d1565b60008152906000368137565b60405190612ef4826127b5565b601282527f6f7a6f6e655072696365496e5553445428290000000000000000000000000000602083015256fea26469706673582212200af2f629dccaebfe28e4ba6d5a45e9c9cc1bbba6eebabeb77d76aada790961a464736f6c63430008140033","linkReferences":{}},"methodIdentifiers":{"invalidator()":"52b06d64","rule741()":"0a5b38ab","transferRequest()":"3da8676f"},"id":77}