{"abi":[{"type":"constructor","inputs":[{"name":"_hex","type":"address","internalType":"address"},{"name":"_price","type":"address","internalType":"address"},{"name":"_old741","type":"address","internalType":"address"}],"stateMutability":"nonpayable"},{"type":"function","name":"dAOAssembly","inputs":[],"outputs":[{"name":"","type":"address","internalType":"address"}],"stateMutability":"view"},{"type":"function","name":"daocore","inputs":[],"outputs":[{"name":"","type":"address","internalType":"address"}],"stateMutability":"view"},{"type":"function","name":"nested741","inputs":[],"outputs":[{"name":"","type":"address","internalType":"address"}],"stateMutability":"view"},{"type":"function","name":"old741","inputs":[],"outputs":[{"name":"","type":"address","internalType":"address"}],"stateMutability":"view"},{"type":"function","name":"price","inputs":[],"outputs":[{"name":"","type":"address","internalType":"address"}],"stateMutability":"view"}],"bytecode":{"object":"0x6080346101b757601f61aa9d38819003918201601f19168301926001600160401b03929091838511838610176101a15781606092849260409788528339810103126101b75761004d816101bc565b6100648461005d602085016101bc565b93016101bc565b9160018060a01b03199273c0cee8b561cc4f60869776ca5b0b7a295e04f5af84600154161760015585516118489586820196828810828911176101a15761032583396001600160a01b039485168088526000979092908190036020019088f080156101835785168660035416176003558751615dff808201908282108483111761018d576020918391614c9e833985815203019088f08015610183578516866002541617600255875191613131808401928484109084111761016f57918391602093611b6d8439815203019086f080156101655790838092168560045416176004551683600154161760015516908254161790555161015490816101d18239f35b86513d87823e3d90fd5b634e487b7160e01b89526041600452602489fd5b88513d89823e3d90fd5b634e487b7160e01b8a52604160045260248afd5b634e487b7160e01b600052604160045260246000fd5b600080fd5b51906001600160a01b03821682036101b75756fe608080604052600436101561001357600080fd5b600090813560e01c90816314837455146100f55750806314d8d024146100ce57806345cff900146100a75780635540c5ac146100805763a035b1fe1461005857600080fd5b3461007d578060031936011261007d576001600160a01b036020915416604051908152f35b80fd5b503461007d578060031936011261007d5760206001600160a01b0360015416604051908152f35b503461007d578060031936011261007d5760206001600160a01b0360025416604051908152f35b503461007d578060031936011261007d5760206001600160a01b0360045416604051908152f35b90503461011a578160031936011261011a576020906001600160a01b03600354168152f35b5080fdfea2646970667358221220c0f394ec33221446749481ba834241a4f77f6d96063704388cec14ff231ea74364736f6c6343000814003360803461009757601f61184838819003918201601f19168301916001600160401b0383118484101761009c5780849260209460405283398101031261009757516001600160a01b038116908190036100975780156100855760018060a01b0319338160015416176001556000541617600055600060125560405161179590816100b38239f35b60405163e6c4247b60e01b8152600490fd5b600080fd5b634e487b7160e01b600052604160045260246000fdfe60806040526004361015610018575b361561001657005b005b60003560e01c806312065fe0146101185780631f185d161461011357806325924f341461010e578063339459a6146101095780633b9b79551461010457806361b7fbd9146100ff5780638da5cb5b146100fa578063a1f7f539146100f5578063af484526146100f0578063b90306ad146100eb578063c54e44b0146100e6578063c89b84fd146100e1578063dbac26e9146100dc578063e01ad5fd146100d7578063e0a9bc2b146100d25763fdc10bc90361000e57610ecf565b610eb4565b610e34565b610df1565b610d2c565b610ca6565b610b98565b610b19565b610aa4565b610a7d565b61098f565b61095e565b610266565b610235565b61014a565b3461013457600036600319011261013457602047604051908152f35b600080fd5b6001600160a01b0381160361013457565b3461013457602080600319360112610134576101c960043561016b81610139565b6001600160a01b0380600254169060405192168483015283825261018e82610f00565b6040519061019b82610f00565b601182527f69735369676e6572286164647265737329000000000000000000000000000000858301526115e6565b91908061022b575b156102015781816101eb926101fd945183010191016114ca565b60405190151581529081906020820190565b0390f35b60046040517f3204506f000000000000000000000000000000000000000000000000000000008152fd5b50808251146101d1565b3461013457602036600319011261013457602061025c60043561025781610139565b61108e565b6040519015158152f35b346101345760003660031901126101345761029861028c6000546001600160a01b031690565b6001600160a01b031690565b604051907f97f3815a000000000000000000000000000000000000000000000000000000008252602082600481845afa91821561078e5760009261093d575b50604051917fcfbffe53000000000000000000000000000000000000000000000000000000008352602083600481855afa92831561078e5760009361091c575b50604051907fab6e844f000000000000000000000000000000000000000000000000000000008252602082600481865afa91821561078e576000926108fb575b50604051917f14d8d024000000000000000000000000000000000000000000000000000000008352602083600481875afa92831561078e576000936108da575b50604051927fd1f956b1000000000000000000000000000000000000000000000000000000008452602084600481885afa93841561078e576000946108b9575b50604051937fe61dfd58000000000000000000000000000000000000000000000000000000008552602085600481895afa94851561078e57600095610898575b506040517fe09d394d0000000000000000000000000000000000000000000000000000000081526020816004818a5afa90811561078e57600091610879575b506040517f52b06d640000000000000000000000000000000000000000000000000000000081526020816004818b5afa90811561078e5760009161085a575b506040517f013cf08b00000000000000000000000000000000000000000000000000000000815260006004820152916020836024818c5afa92831561078e57600093610839575b50604051977f5e09dbe70000000000000000000000000000000000000000000000000000000089526020896004818d5afa94851561078e57600499600096610818575b5060208b6040519b8c80927faa0ddc160000000000000000000000000000000000000000000000000000000082525afa96871561078e5760049a6000986107f7575b5060208c6040519c8d80927f640274270000000000000000000000000000000000000000000000000000000082525afa98891561078e5760049b60009a6107d6575b5060208d6040519d8e80927f30125cf50000000000000000000000000000000000000000000000000000000082525afa9a8b1561078e578d60049d60009d6107b4575b506020906040519e8f80927f24768d910000000000000000000000000000000000000000000000000000000082525afa9c8d1561078e5760009d610793575b50604051809e81907f9dc969a80000000000000000000000000000000000000000000000000000000082525a92600491602094fa9d8e1561078e5760009e61075d575b50610671610f5a565b6001600160a01b0390911681529d8e906001600160a01b03166020820152604001906106a591906001600160a01b03169052565b6001600160a01b031660608d01526001600160a01b031660808c01526001600160a01b031660a08b01526001600160a01b031660c08a01526001600160a01b031660e08901526001600160a01b03166101008801526001600160a01b03166101208701526001600160a01b03166101408601526001600160a01b03166101608501526001600160a01b03166101808401526001600160a01b03166101a08301526001600160a01b03166101c0820152610016906111c7565b610780919e5060203d602011610787575b6107788183610f38565b8101906111a6565b9c38610668565b503d61076e565b6111bb565b6107ad919d5060203d602011610787576107788183610f38565b9b38610625565b6020919d506107cf90823d8411610787576107788183610f38565b9c906105e6565b6107f0919a5060203d602011610787576107788183610f38565b98386105a3565b61081191985060203d602011610787576107788183610f38565b9638610561565b61083291965060203d602011610787576107788183610f38565b943861051f565b61085391935060203d602011610787576107788183610f38565b91386104dc565b610873915060203d602011610787576107788183610f38565b38610495565b610892915060203d602011610787576107788183610f38565b38610456565b6108b291955060203d602011610787576107788183610f38565b9338610417565b6108d391945060203d602011610787576107788183610f38565b92386103d7565b6108f491935060203d602011610787576107788183610f38565b9138610397565b61091591925060203d602011610787576107788183610f38565b9038610357565b61093691935060203d602011610787576107788183610f38565b9138610317565b61095791925060203d602011610787576107788183610f38565b90386102d7565b346101345760003660031901126101345760206001600160a01b0360005416604051908152f35b8015150361013457565b34610134576040366003190112610134576004356109ac81610139565b602435906109b982610985565b6109c16114df565b15610a53576001600160a01b039081600554163303610a2957166000526011602052604060002060ff1981541660ff83151516179055600014610a17576012546000198114610a1257600101601255005b611190565b6012548015610a125760001901601255005b60046040517fea8e4eb5000000000000000000000000000000000000000000000000000000008152fd5b60046040517f9dc4246e000000000000000000000000000000000000000000000000000000008152fd5b346101345760003660031901126101345760206001600160a01b0360015416604051908152f35b34610134576000366003190112610134576020610b116001600160a01b0360065416604051610ad281610f00565b601381527f67657464656c656761746f72436f756e742829000000000000000000000000008482015260405191610b0883610f1c565b60008352611721565b604051908152f35b3461013457602080600319360112610134576101c9600435610b3a81610139565b6001600160a01b03806002541690604051921684830152838252610b5d82610f00565b60405190610b6a82610f00565b601582527f6973536563757265426173652861646472657373290000000000000000000000858301526115e6565b3461013457602036600319011261013457600435610bb46114df565b15610a53576001600160a01b03600554163303610a295760009060046020610be661028c85546001600160a01b031690565b604051928380927f46f991ac0000000000000000000000000000000000000000000000000000000082525afa801561078e5783808481949382948391610c88575b505af1610c326115b6565b5015610201577fcdcc745fe377b103b45fa0cec23ae3ef93d6fc6a84a01f0d18c40b354dd1d5d8610c82610c7161028c600b546001600160a01b031690565b604051938452929081906020820190565b0390a280f35b610ca0915060203d8111610787576107788183610f38565b38610c27565b3461013457602036600319011261013457600435610cc381610139565b803b6000610cd082610f7b565b92610cde6040519485610f38565b82845260208401903c602d815110610d0257602a602091015160601c604051908152f35b60046040517fbaf3f0f7000000000000000000000000000000000000000000000000000000008152fd5b34610134576000366003190112610134576001600160a01b038060035416610d65610d55610faa565b91604092835191610b0883610f1c565b9160045416610d72611564565b92825193602085015282840152818352606083019280841067ffffffffffffffff851117610dec5783610ddd926101fd958552610dae82610f00565b601d82527f67657472616e6b436f756e742875696e743235362c75696e74323536290000006080840152611721565b90519081529081906020820190565b610eea565b34610134576020366003190112610134576001600160a01b03600435610e1681610139565b166000526011602052602060ff604060002054166040519015158152f35b3461013457602036600319011261013457602061025c600435610e5681610139565b6001600160a01b03806006541690604051921684830152838252610e7982610f00565b60405190610e8682610f00565b601882527f697364656c656761746f724e6f64652861646472657373290000000000000000858301526116e5565b3461013457600036600319011261013457602061025c6114df565b34610134576000366003190112610134576020610b11611564565b634e487b7160e01b600052604160045260246000fd5b6040810190811067ffffffffffffffff821117610dec57604052565b6020810190811067ffffffffffffffff821117610dec57604052565b90601f8019910116810190811067ffffffffffffffff821117610dec57604052565b604051906101e0820182811067ffffffffffffffff821117610dec57604052565b67ffffffffffffffff8111610dec57601f01601f191660200190565b60405190610fa482610f1c565b60008252565b60405190610fb782610f00565b600c82527f72616e6b666f7244414f282900000000000000000000000000000000000000006020830152565b60405190610ff082610f00565b601682527f67657455736572546f53746f72286164647265737329000000000000000000006020830152565b6040519061102982610f00565b600682527f72616e6b282900000000000000000000000000000000000000000000000000006020830152565b6040519061106282610f00565b600882527f69734c6f636b28290000000000000000000000000000000000000000000000006020830152565b6001600160a01b03906110b482600354166110a7610faa565b60405191610b0883610f1c565b6110fc6110c96004546001600160a01b031690565b604080516001600160a01b038616602080830191909152815291906110ee9083610f38565b6110f6610fe3565b90611694565b928316156111885761113861112161111261101c565b61111a610f97565b9086611721565b9361112a611055565b611132610f97565b916116e5565b921015918261117f575b508161114c575090565b61117c9150611171611178916001600160a01b03166000526011602052604060002090565b5460ff1690565b1590565b90565b15915038611142565b505050600090565b634e487b7160e01b600052601160045260246000fd5b90816020910312610134575161117c81610139565b6040513d6000823e3d90fd5b6114ac6101c06114c8926112016111e582516001600160a01b031690565b6001600160a01b03166001600160a01b03196002541617600255565b61123461121860208301516001600160a01b031690565b6001600160a01b03166001600160a01b03196003541617600355565b61126761124b60408301516001600160a01b031690565b6001600160a01b03166001600160a01b03196004541617600455565b61129a61127e60608301516001600160a01b031690565b6001600160a01b03166001600160a01b03196005541617600555565b6112cd6112b160808301516001600160a01b031690565b6001600160a01b03166001600160a01b03196006541617600655565b6113006112e460a08301516001600160a01b031690565b6001600160a01b03166001600160a01b03196007541617600755565b61133361131760c08301516001600160a01b031690565b6001600160a01b03166001600160a01b03196008541617600855565b61136661134a60e08301516001600160a01b031690565b6001600160a01b03166001600160a01b03196009541617600955565b61139a61137e6101008301516001600160a01b031690565b6001600160a01b03166001600160a01b0319600a541617600a55565b6113ce6113b26101208301516001600160a01b031690565b6001600160a01b03166001600160a01b0319600b541617600b55565b6114026113e66101408301516001600160a01b031690565b6001600160a01b03166001600160a01b0319600c541617600c55565b61143661141a6101608301516001600160a01b031690565b6001600160a01b03166001600160a01b0319600d541617600d55565b61146a61144e6101808301516001600160a01b031690565b6001600160a01b03166001600160a01b0319600e541617600e55565b61149e6114826101a08301516001600160a01b031690565b6001600160a01b03166001600160a01b0319600f541617600f55565b01516001600160a01b031690565b6001600160a01b03166001600160a01b03196010541617601055565b565b90816020910312610134575161117c81610985565b61153a6001600160a01b03600254166040516114fa81610f00565b600881527f697353616665282900000000000000000000000000000000000000000000000060208201526040519161153183610f1c565b600083526115e6565b9080611559575b15610201578060208061117c935183010191016114ca565b506020815114611541565b61117c6001600160a01b036003541660405161157f81610f00565b600681527f6941676528290000000000000000000000000000000000000000000000000000602082015260405191610b0883610f1c565b3d156115e1573d906115c782610f7b565b916115d56040519384610f38565b82523d6000602084013e565b606090565b9190823b1561167b577fffffffff00000000000000000000000000000000000000000000000000000000815160208093012016916040519180830193845281519160005b83811061166757505050918161165760248260009795968897018783820152036004810184520182610f38565b51915afa6116636115b6565b9091565b81810183015185820160240152820161162a565b50505060009060405161168d81610f1c565b6000815290565b92916116a2916000946115e6565b90806116da575b6116b05750565b9091506020818051810103126101345760206001600160a01b039101516116d681610139565b1690565b5060208151146116a9565b92916116f3916000946115e6565b9080611716575b6117015750565b61117c919250602080825183010191016114ca565b5060208151146116fa565b929161172f916000946115e6565b9080611754575b61173d5750565b909150602081805181010312610134576020015190565b50602081511461173656fea264697066735822122047f727fcb9b02191f8f435da04f13ae8cabef0b29b8182794bf01dcd3ae2b86c64736f6c634300081400336080346200009e57601f6200313138819003918201601f19168301916001600160401b03831184841017620000a3578084926020946040528339810103126200009e57516001600160a01b038116908190036200009e5780156200008c5760018060a01b031933816001541617600155600054161760005560466011556040516130779081620000ba8239f35b60405163e6c4247b60e01b8152600490fd5b600080fd5b634e487b7160e01b600052604160045260246000fdfe60806040526004361015610018575b361561001657005b005b60003560e01c8063013cf08b146101c857806312065fe0146101c35780631f185d16146101be57806326705c3c146101b9578063339459a6146101b45780633b9b7955146101af57806343859632146101aa57806345a257bc146101a55780635c622a0e146101a0578063604ff4b11461019b578063896d6db1146101965780638da5cb5b1461019157806398e527d31461018c578063995e433914610187578063a1f7f53914610182578063af4845261461017d578063b7ccfe3214610178578063b90306ad14610173578063c54e44b01461016e578063c7f758a814610169578063c9d27afe14610164578063cc48bf161461015f578063d3325a2c1461015a578063e01ad5fd14610155578063e0a9bc2b14610150578063eeebb3c31461014b5763fdc10bc90361000e57611c8f565b611a79565b611a5e565b611a37565b6119a8565b611873565b6116d8565b61163e565b611564565b611456565b6113af565b6112c8565b6112a5565b611221565b611203565b6111dc565b611143565b611064565b611018565b610d66565b610cc4565b610c9d565b6105a5565b610587565b610556565b610529565b610465565b634e487b7160e01b600052603260045260246000fd5b60125481101561021e57600b906012600052027fbb8a6a4669ba250d26cd7a459eca9d215f8307e33aebe50379bc5a3617ec34440190600090565b6101cd565b90600182811c92168015610253575b602083101461023d57565b634e487b7160e01b600052602260045260246000fd5b91607f1691610232565b906000929180549161026e83610223565b9182825260019384811690816000146102d05750600114610290575b50505050565b90919394506000526020928360002092846000945b8386106102bc57505050500101903880808061028a565b8054858701830152940193859082016102a5565b9294505050602093945060ff191683830152151560051b0101903880808061028a565b634e487b7160e01b600052604160045260246000fd5b6040810190811067ffffffffffffffff82111761032557604052565b6102f3565b6020810190811067ffffffffffffffff82111761032557604052565b90601f8019910116810190811067ffffffffffffffff82111761032557604052565b9061038361037c926040519384809261025d565b0383610346565b565b60005b8381106103985750506000910152565b8181015183820152602001610388565b906020916103c181518092818552858086019101610385565b601f01601f1916010190565b99939561041d61044d969f9e9d99936101809d986104619c9660408f6001600160a01b036104076104579f996101a08085528401906103a8565b9516602082015201528d820360608f01526103a8565b9e60808c015260a08b015260c08a015260e089015215156101008801526101208701906001600160a01b03169052565b1515610140850152565b1515610160830152565b0152565b34610524576020366003190112610524576004356012548110156105245761048c906101e3565b506040516104a58161049e818561025d565b0382610346565b6105206104bc60018401546001600160a01b031690565b6002840154906104ce60038601610368565b93600486015495600581015493600682015460078301549060096008850154940154966040519a8b9a8b9560ff8860b01c169960ff8960a81c169960ff6001600160a01b038b60081c169a16986103cd565b0390f35b600080fd5b3461052457600036600319011261052457602047604051908152f35b6001600160a01b0381160361052457565b3461052457602036600319011261052457602061057d60043561057881610545565b612c5f565b6040519015158152f35b34610524576000366003190112610524576020601454604051908152f35b34610524576000366003190112610524576105d76105cb6000546001600160a01b031690565b6001600160a01b031690565b604051907f97f3815a000000000000000000000000000000000000000000000000000000008252602082600481845afa918215610acd57600092610c7c575b50604051917fcfbffe53000000000000000000000000000000000000000000000000000000008352602083600481855afa928315610acd57600093610c5b575b50604051907fab6e844f000000000000000000000000000000000000000000000000000000008252602082600481865afa918215610acd57600092610c3a575b50604051917f14d8d024000000000000000000000000000000000000000000000000000000008352602083600481875afa928315610acd57600093610c19575b50604051927fd1f956b1000000000000000000000000000000000000000000000000000000008452602084600481885afa938415610acd57600094610bf8575b50604051937fe61dfd58000000000000000000000000000000000000000000000000000000008552602085600481895afa948515610acd57600095610bd7575b506040517fe09d394d0000000000000000000000000000000000000000000000000000000081526020816004818a5afa908115610acd57600091610bb8575b506040517f52b06d640000000000000000000000000000000000000000000000000000000081526020816004818b5afa908115610acd57600091610b99575b506040517f013cf08b00000000000000000000000000000000000000000000000000000000815260006004820152916020836024818c5afa928315610acd57600093610b78575b50604051977f5e09dbe70000000000000000000000000000000000000000000000000000000089526020896004818d5afa948515610acd57600499600096610b57575b5060208b6040519b8c80927faa0ddc160000000000000000000000000000000000000000000000000000000082525afa968715610acd5760049a600098610b36575b5060208c6040519c8d80927f640274270000000000000000000000000000000000000000000000000000000082525afa988915610acd5760049b60009a610b15575b5060208d6040519d8e80927f30125cf50000000000000000000000000000000000000000000000000000000082525afa9a8b15610acd578d60049d60009d610af3575b506020906040519e8f80927f24768d910000000000000000000000000000000000000000000000000000000082525afa9c8d15610acd5760009d610ad2575b50604051809e81907f9dc969a80000000000000000000000000000000000000000000000000000000082525a92600491602094fa9d8e15610acd5760009e610a9c575b506109b0611914565b6001600160a01b0390911681529d8e906001600160a01b03166020820152604001906109e491906001600160a01b03169052565b6001600160a01b031660608d01526001600160a01b031660808c01526001600160a01b031660a08b01526001600160a01b031660c08a01526001600160a01b031660e08901526001600160a01b03166101008801526001600160a01b03166101208701526001600160a01b03166101408601526001600160a01b03166101608501526001600160a01b03166101808401526001600160a01b03166101a08301526001600160a01b03166101c0820152610016906128c4565b610abf919e5060203d602011610ac6575b610ab78183610346565b8101906128a3565b9c386109a7565b503d610aad565b6128b8565b610aec919d5060203d602011610ac657610ab78183610346565b9b38610964565b6020919d50610b0e90823d8411610ac657610ab78183610346565b9c90610925565b610b2f919a5060203d602011610ac657610ab78183610346565b98386108e2565b610b5091985060203d602011610ac657610ab78183610346565b96386108a0565b610b7191965060203d602011610ac657610ab78183610346565b943861085e565b610b9291935060203d602011610ac657610ab78183610346565b913861081b565b610bb2915060203d602011610ac657610ab78183610346565b386107d4565b610bd1915060203d602011610ac657610ab78183610346565b38610795565b610bf191955060203d602011610ac657610ab78183610346565b9338610756565b610c1291945060203d602011610ac657610ab78183610346565b9238610716565b610c3391935060203d602011610ac657610ab78183610346565b91386106d6565b610c5491925060203d602011610ac657610ab78183610346565b9038610696565b610c7591935060203d602011610ac657610ab78183610346565b9138610656565b610c9691925060203d602011610ac657610ab78183610346565b9038610616565b346105245760003660031901126105245760206001600160a01b0360005416604051908152f35b3461052457604036600319011261052457600435602435610ce481610545565b6000198201918211610d2957610d1d60ff91600a610d036020956101e3565b5001906001600160a01b0316600052602052604060002090565b54166040519015158152f35b611dd6565b9181601f840112156105245782359167ffffffffffffffff8311610524576020838186019501011161052457565b8015150361052457565b346105245760e03660031901126105245760043560243567ffffffffffffffff811161052457610d9a903690600401610d2e565b604435610da681610545565b606435936001600160e01b031985168086036105245760843560a4359260c43592610dd084610d5c565b610dd933612c5f565b1561100757610df490610ded881515611caa565b1515611cf5565b8315801590610ff5575b610e0790611d40565b80610ed15750610ecc9593610ec4610016989694610eb07f0454182b30f1740c505634bb66f7f3001e232b3c8797a62b1db11b347a891ff4956001600160a01b0395610e8a610e54611935565b92610e60368c8e611971565b84526001600160a01b03881660208501526001600160e01b03198d16604085015215156060840152565b60808201528260a0820152610eab6014546000526013602052604060002090565b612032565b6014549788966040519586951698856121b3565b0390a36121e1565b601455565b968294610fdb88957f74608b2c8ffedaacf37a0fda8ea5cb94ebae20dc104623eb2fabb1bcec211608946001600160a01b03948a610fcd8e997f2dd3ae6155b13a46b2374a1f42e0733244754e572ec9f0034b698efefa8673a19e610f64610ff09f610f5d610f4d8f610f48601454821115611d8b565b611dec565b6000526013602052604060002090565b9283611e4f565b8660036001830192610f8c8c85906001600160a01b03166001600160a01b0319825416179055565b835463ffffffff60a01b1916604089901c63ffffffff60a01b1617845588600282015501559060ff60c01b1960ff60c01b835492151560c01b169116179055565b604051968796169986611f38565b0390a360405190151581529081906020820190565b0390a2005b506001600160a01b0385161515610dfe565b600460405163ea8e4eb560e01b8152fd5b34610524576020366003190112610524576004356000198101908111610d295760086110456040926101e3565b50015460ff825191818160a81c161515835260b01c1615156020820152f35b3461052457602036600319011261052457600435611080612bda565b15611132573330036110ee57801515806110e3575b1561109f57601155005b606460405162461bcd60e51b815260206004820152601660248201527f64616f2e696e76616c69642e70657263656e74616765000000000000000000006044820152fd5b506064811115611095565b606460405162461bcd60e51b815260206004820152600d60248201527f64616f2e66616b652e636f7265000000000000000000000000000000000000006044820152fd5b6004604051634ee2123760e11b8152fd5b346105245760203660031901126105245760043560005260136020526111a06040600020604051906111798261037c818461025d565b600181015490600360028201549101549060ff60405195869560c0875260c08701906103a8565b936001600160a01b03811660208701526001600160e01b03198160401b16604087015260c01c1615156060850152608084015260a08301520390f35b346105245760003660031901126105245760206001600160a01b0360015416604051908152f35b34610524576000366003190112610524576020601254604051908152f35b34610524576020366003190112610524576004356000198101908111610d295761124a906101e3565b50600481015460058201546006830154600784015460089094015460408051948552602085019390935291830152606082019290925260ff60a883901c81161515608083015260b09290921c909116151560a082015260c090f35b346105245760003660031901126105245760206112c0612da9565b604051908152f35b3461052457602080600319360112610524576113476004356112e981610545565b6001600160a01b0380600254169060405192168483015283825261130c82610309565b6040519061131982610309565b601582527f697353656375726542617365286164647265737329000000000000000000000085830152612e2b565b9190806113a5575b1561137b5781816113699261052094518301019101612bc5565b60405190151581529081906020820190565b60046040517f3204506f000000000000000000000000000000000000000000000000000000008152fd5b508082511461134f565b34610524576040366003190112610524576004356024356113cf81610d5c565b6113d833612c5f565b15611007576113eb601454831115611d8b565b6000198201828111610d29577f2dd3ae6155b13a46b2374a1f42e0733244754e572ec9f0034b698efefa8673a1916020916000526013825261144b8160016040600020019060ff60c01b1960ff60c01b835492151560c01b169116179055565b6040519015158152a2005b3461052457602036600319011261052457600435611472612bda565b15611132576001600160a01b0360055416330361100757600090600460206114a46105cb85546001600160a01b031690565b604051928380927f46f991ac0000000000000000000000000000000000000000000000000000000082525afa8015610acd5783808481949382948391611546575b505af16114f0612dfb565b501561137b577fcdcc745fe377b103b45fa0cec23ae3ef93d6fc6a84a01f0d18c40b354dd1d5d861154061152f6105cb600b546001600160a01b031690565b604051938452929081906020820190565b0390a280f35b61155e915060203d8111610ac657610ab78183610346565b386114e5565b346105245760203660031901126105245760043561158181610545565b803b600061158e82611955565b9261159c6040519485610346565b82845260208401903c602d8151106115c057602a602091015160601c604051908152f35b60046040517fbaf3f0f7000000000000000000000000000000000000000000000000000000008152fd5b9361160661163b9896939297949760e0875260e08701906103a8565b966001600160a01b03809316602087015260408601521660608401521515608083015260a082015260c08184039101526103a8565b90565b34610524576020366003190112610524576004356000198101908111610d2957611667906101e3565b506001600160a01b03610520600382600185015416936002810154906008810154906009810154926116c2604051926116ab846116a4818461025d565b0385610346565b6116bb604051809881930161025d565b0386610346565b60405197889760ff85169460081c1692886115ea565b34610524576040366003190112610524576004356024356116f881610d5c565b611700612bda565b156111325761170e33612d44565b156110075781151580611867575b61172590612607565b61173661173183611dec565b6101e3565b509061176e60ff600884015461174d828216612652565b611764600686015461175d612ce9565b111561269d565b60b01c16156126e8565b6117d36117c6600a84016117ae6117a96117a561179e3385906001600160a01b0316600052602052604060002090565b5460ff1690565b1590565b612733565b336001600160a01b0316600052602052604060002090565b805460ff19166001179055565b801561185257600482016117e781546121e1565b90555b6040519015158152339083907f0def80f9a3b4c7a4251442658ccf516bf33ea4acaf31638fc6da8ebdb0f64c7290602090a36004810154600782015480911091821592611843575b505061183a57005b6100169061277e565b60050154101590503880611832565b6005820161186081546121e1565b90556117ea565b5060125482111561171c565b346105245760203660031901126105245760043561189033612c5f565b156110075780151580611908575b6118a790612607565b6000198101818111610d29576118be6008916101e3565b5001600160b01b60ff60b01b1982546118dd60ff8260b01c16156126e8565b161790557f4cf2797951877f41b38931a68643f9249273f32fd396532213aa4f1222c9d16b600080a2005b5060125481111561189e565b604051906101e0820182811067ffffffffffffffff82111761032557604052565b6040519060c0820182811067ffffffffffffffff82111761032557604052565b67ffffffffffffffff811161032557601f01601f191660200190565b92919261197d82611955565b9161198b6040519384610346565b829481845281830111610524578281602093846000960137010152565b346105245760a03660031901126105245767ffffffffffffffff600435818111610524576119da903690600401610d2e565b6024929192356119e981610545565b60643592831161052457366023840112156105245761052093611a19611a27943690602481600401359101611971565b9160843593604435926124ab565b6040519081529081906020820190565b3461052457602036600319011261052457602061057d600435611a5981610545565b612d44565b3461052457600036600319011261052457602061057d612bda565b3461052457608036600319011261052457600480359060243590611a9c82610545565b60443567ffffffffffffffff811161052457611abb9036908301610d2e565b9092611ac5612bda565b15611c7f57611ad333612d44565b15611c6f57611ae6601454861115611d8b565b611af2610f4d86611dec565b91611b20600184015491611b0b60ff8460c01c166121f0565b6040966001600160e01b031984891b1661223b565b6003840154909490918215611c525750805486516001600160a01b03858116602080840191909152825290911692601f19929091611b75906117a590611b67604082610346565b611b6f612274565b87612ef7565b611c44575091611bb29593918360016105209a979514611c00575b600214611bc1575b50505b600282015493611bad60643593610368565b612394565b90519081529081906020820190565b87516001600160a01b0393909316602084015260409081018352611bf9929190611beb9083610346565b611bf36122e6565b90612ea6565b3880611b98565b88516001600160a01b03909416602085015292600290611c3c90611c2e816040810103858101835282610346565b611c366122ad565b85612ea6565b939050611b90565b875163ea8e4eb560e01b8152fd5b611bb2959350610520979492506001600160a01b03915016611b9b565b8260405163ea8e4eb560e01b8152fd5b82604051634ee2123760e11b8152fd5b346105245760003660031901126105245760206112c0612ce9565b15611cb157565b606460405162461bcd60e51b815260206004820152601760248201527f64616f2e74656d706c6174652e656d7074792e646573630000000000000000006044820152fd5b15611cfc57565b606460405162461bcd60e51b815260206004820152601a60248201527f64616f2e74656d706c6174652e7a65726f2e73656c6563746f720000000000006044820152fd5b15611d4757565b606460405162461bcd60e51b815260206004820152601860248201527f64616f2e74656d706c6174652e7a65726f2e74617267657400000000000000006044820152fd5b15611d9257565b606460405162461bcd60e51b815260206004820152601460248201527f64616f2e74656d706c6174652e696e76616c69640000000000000000000000006044820152fd5b634e487b7160e01b600052601160045260246000fd5b600019810191908211610d2957565b90601f8111611e0957505050565b600091825260208220906020601f850160051c83019410611e45575b601f0160051c01915b828110611e3a57505050565b818155600101611e2e565b9092508290611e25565b90929167ffffffffffffffff811161032557611e7581611e6f8454610223565b84611dfb565b6000601f8211600114611eaf5781929394600092611ea4575b50508160011b916000199060031b1c1916179055565b013590503880611e8e565b601f19821694611ec484600052602060002090565b91805b878110611eff575083600195969710611ee5575b505050811b019055565b0135600019600384901b60f8161c19169055388080611edb565b90926020600181928686013581550194019101611ec7565b908060209392818452848401376000828201840152601f01601f1916010190565b91611f5b606094979695926001600160e01b031992608086526080860191611f17565b9616602083015260408201520152565b919091825167ffffffffffffffff811161032557611f8d81611e6f8454610223565b602080601f8311600114611fc8575081929394600092611fbd5750508160011b916000199060031b1c1916179055565b015190503880611e8e565b90601f19831695611fde85600052602060002090565b926000905b88821061201a5750508360019596971061200157505050811b019055565b015160001960f88460031b161c19169055388080611edb565b80600185968294968601518155019501930190611fe3565b908051805167ffffffffffffffff81116103255761205a816120548654610223565b86611dfb565b6020918290601f831160011461213e579282600395936121229360a096600092612133575b50508160011b9160001990881b1c19161786555b6120c96120ad60018801928501516001600160a01b031690565b82906001600160a01b03166001600160a01b0319825416179055565b6121016120e160408501516001600160e01b03191690565b825463ffffffff60a01b191660409190911c63ffffffff60a01b16178255565b60608301511515815460ff60c01b191690151560c01b60ff60c01b16179055565b608081015160028501550151910155565b01519050388061207f565b90601f1983169161215487600052602060002090565b9260005b81811061219c5750936121229360a096936001938360039a9810612184575b505050811b018655612093565b0151600019838a1b60f8161c19169055388080612177565b929386600181928786015181550195019301612158565b906121d66001600160e01b03199160409497969597606085526060850191611f17565b951660208201520152565b6000198114610d295760010190565b156121f757565b606460405162461bcd60e51b815260206004820152601560248201527f64616f2e74656d706c6174652e64697361626c656400000000000000000000006044820152fd5b602490836001600160e01b0319959461038394604051978894166020850152848401378101600083820152036004810185520183610346565b6040519061228182610309565b601582527f69735573657245786973747328616464726573732900000000000000000000006020830152565b604051906122ba82610309565b601682527f67657455736572546f496e7374286164647265737329000000000000000000006020830152565b604051906122f382610309565b601682527f67657455736572546f53746f72286164647265737329000000000000000000006020830152565b6012546801000000000000000081101561032557600181018060125581101561021e57600b906012600052027fbb8a6a4669ba250d26cd7a459eca9d215f8307e33aebe50379bc5a3617ec34440190600090565b81810292918115918404141715610d2957565b9060638201809211610d2957565b92936123db919592946123b06123a861231f565b509586611f6b565b6001850180546001600160a01b0319166001600160a01b038816179055600285015560038401611f6b565b60646123f96123f46123eb612da9565b60115490612373565b612386565b046007830155612407612ce9565b908101809111610d295781600991600686940155612463600882016117c633829074ffffffffffffffffffffffffffffffffffffffff001974ffffffffffffffffffffffffffffffffffffffff0083549260081b169116179055565b01556012546040516001600160a01b03909216825291339183907f336735bcae5ee955b87e8b30bee52920223fa30a865b207ac6d9eee9f19589fb9080602081015b0390a490565b9193906124b733612c5f565b15611007576001600160a01b038516156125dd57612519926124da913691611971565b926124ee6124e661231f565b509485611f6b565b6001840180546001600160a01b0319166001600160a01b038716179055600284015560038301611f6b565b60646125296123f46123eb612da9565b046007820155612537612ce9565b928301809311610d29576009926006820155612591600882016117c633829074ffffffffffffffffffffffffffffffffffffffff001974ffffffffffffffffffffffffffffffffffffffff0083549260081b169116179055565b6103e792018290556012546040516001600160a01b03909216825291339183907f336735bcae5ee955b87e8b30bee52920223fa30a865b207ac6d9eee9f19589fb9080602081016124a5565b60046040517fe6c4247b000000000000000000000000000000000000000000000000000000008152fd5b1561260e57565b606460405162461bcd60e51b815260206004820152600e60248201527f64616f2e696e76616c69642e69640000000000000000000000000000000000006044820152fd5b1561265957565b606460405162461bcd60e51b815260206004820152601160248201527f64616f2e70726f702e6e6f7465786973740000000000000000000000000000006044820152fd5b156126a457565b606460405162461bcd60e51b815260206004820152601060248201527f64616f2e766f74696e672e656e646564000000000000000000000000000000006044820152fd5b156126ef57565b606460405162461bcd60e51b815260206004820152601560248201527f64616f2e616c72656164792e636f6d706c6574656400000000000000000000006044820152fd5b1561273a57565b606460405162461bcd60e51b815260206004820152601160248201527f64616f2e616c72656164792e766f7465640000000000000000000000000000006044820152fd5b7f948f4a9cd986f1118c3fbd459f7a22b23c0693e1ca3ef06a6a8be5aa7d39cc036128456113696127b161173185611dec565b5060088101805460ff60b01b1916600160b01b17815590612827600482015460078301548110159081612895575b5083547fffffffffffffffffffff00ffffffffffffffffffffffffffffffffffffffffff1690151560a81b75ff00000000000000000000000000000000000000000016178355565b815460a81c60ff1680612880575b61284a575b505460a81c60ff1690565b0390a2565b8061286260016128799301546001600160a01b031690565b612873600360028401549301610368565b90612fa3565b503861283a565b5061288e6003820154610223565b1515612835565b9050600583015410386127df565b90816020910312610524575161163b81610545565b6040513d6000823e3d90fd5b612ba96101c0610383926128fe6128e282516001600160a01b031690565b6001600160a01b03166001600160a01b03196002541617600255565b61293161291560208301516001600160a01b031690565b6001600160a01b03166001600160a01b03196003541617600355565b61296461294860408301516001600160a01b031690565b6001600160a01b03166001600160a01b03196004541617600455565b61299761297b60608301516001600160a01b031690565b6001600160a01b03166001600160a01b03196005541617600555565b6129ca6129ae60808301516001600160a01b031690565b6001600160a01b03166001600160a01b03196006541617600655565b6129fd6129e160a08301516001600160a01b031690565b6001600160a01b03166001600160a01b03196007541617600755565b612a30612a1460c08301516001600160a01b031690565b6001600160a01b03166001600160a01b03196008541617600855565b612a63612a4760e08301516001600160a01b031690565b6001600160a01b03166001600160a01b03196009541617600955565b612a97612a7b6101008301516001600160a01b031690565b6001600160a01b03166001600160a01b0319600a541617600a55565b612acb612aaf6101208301516001600160a01b031690565b6001600160a01b03166001600160a01b0319600b541617600b55565b612aff612ae36101408301516001600160a01b031690565b6001600160a01b03166001600160a01b0319600c541617600c55565b612b33612b176101608301516001600160a01b031690565b6001600160a01b03166001600160a01b0319600d541617600d55565b612b67612b4b6101808301516001600160a01b031690565b6001600160a01b03166001600160a01b0319600e541617600e55565b612b9b612b7f6101a08301516001600160a01b031690565b6001600160a01b03166001600160a01b0319600f541617600f55565b01516001600160a01b031690565b6001600160a01b03166001600160a01b03196010541617601055565b90816020910312610524575161163b81610d5c565b612c356001600160a01b0360025416604051612bf581610309565b600881527f6973536166652829000000000000000000000000000000000000000000000000602082015260405191612c2c8361032a565b60008352612e2b565b9080612c54575b1561137b578060208061163b93518301019101612bc5565b506020815114612c3c565b612cc26001600160a01b038060025416604051916020941684830152838252612c8782610309565b60405190612c9482610309565b601182527f69735369676e657228616464726573732900000000000000000000000000000085830152612e2b565b9080612cdf575b1561137b578161163b9282518301019101612bc5565b5081815114612cc9565b61163b6001600160a01b0360035416604051612d0481610309565b600681527f6941676528290000000000000000000000000000000000000000000000000000602082015260405191612d3b8361032a565b60008352612f33565b61163b906001600160a01b038060065416906040519216602083015260208252612d6d82610309565b60405190612d7a82610309565b601882527f697364656c656761746f724e6f646528616464726573732900000000000000006020830152612ef7565b61163b6001600160a01b0360065416604051612dc481610309565b601381527f67657464656c656761746f72436f756e74282900000000000000000000000000602082015260405191612d3b8361032a565b3d15612e26573d90612e0c82611955565b91612e1a6040519384610346565b82523d6000602084013e565b606090565b803b15612e8d576000926001600160e01b03198360208695519101201690612e7d6024604051809360208201958652612e6d8151809260208686019101610385565b8101036004810184520182610346565b51915afa612e89612dfb565b9091565b505050600090604051612e9f8161032a565b6000815290565b9291612eb491600094612e2b565b9080612eec575b612ec25750565b9091506020818051810103126105245760206001600160a01b03910151612ee881610545565b1690565b506020815114612ebb565b9291612f0591600094612e2b565b9080612f28575b612f135750565b61163b91925060208082518301019101612bc5565b506020815114612f0c565b9291612f4191600094612e2b565b9080612f66575b612f4f5750565b909150602081805181010312610524576020015190565b506020815114612f48565b90602082519201516001600160e01b0319908181169360048110612f9457505050565b60040360031b82901b16169150565b9190916001600160a01b038116156125dd57600091829184519160208601915af190612fcd612dfb565b9115612fd7575090565b80516000919060041161303b57612fee9150612f71565b815115612ffe5750805190602001fd5b6040517f21c09d340000000000000000000000000000000000000000000000000000000081526001600160e01b0319919091166004820152602490fd5b50612fee56fea2646970667358221220c64d2f64d0a5fda266adc5a286853d25ed2e9b847cc92b6878032e6ab13a5f8a64736f6c634300081400336080346200009e57601f62005dff38819003918201601f19168301916001600160401b03831184841017620000a3578084926020946040528339810103126200009e57516001600160a01b038116908190036200009e5780156200008c5760018060a01b03193381600154161760015560005416176000556001601155604051615d459081620000ba8239f35b60405163e6c4247b60e01b8152600490fd5b600080fd5b634e487b7160e01b600052604160045260246000fdfe60806040526004361015610018575b361561001657005b005b60003560e01c8063033eeffb146103c35780630e5fd00b1461035a5780631157a849146103be57806312065fe0146103b957806313508e37146103b45780631bb49f02146103af5780631c53c280146103aa5780631f185d16146103a55780631f5fa838146103a05780632a687c871461039b5780632bbae52e146103965780632fefc0bf1461039157806332ff4eab1461038c578063339459a61461038757806333b59a5b146103825780633a7b55b81461037d5780633b9b7955146103785780633baee0ea14610373578063419cb27b1461036e57806342cc9d5714610369578063445850971461036457806344668f231461035f57806345145fd71461035a5780634d1ec452146103555780634f0f4aa914610350578063509222cd1461034b57806350db85d11461034657806361ea720814610341578063629d671e1461033c57806365d2fbd3146103375780636a811244146103325780636b90905b1461032d5780636fb412ab1461032857806376fe6c45146103235780637818cdd71461031e57806380f85e3314610319578063849c22ad14610314578063896c354a1461030f5780638da5cb5b1461030a57806395f72f491461030557806398b3f21514610300578063a1f7f539146102fb578063a89d693b146102f6578063af484526146102f1578063b1c49079146102ec578063b366335e146102e7578063b90306ad146102e2578063c43792e3146102dd578063c54e44b0146102d8578063c871372b146102d3578063cf359165146102ce578063d1e0bbc6146102c9578063dcb3fc4a146102c4578063e01ad5fd146102bf578063e0a9bc2b146102ba578063eb95c662146102b5578063f3ca7124146102b0578063fd38093b146102ab5763fdc10bc90361000e576137ef565b61377f565b613753565b613727565b61370c565b61368c565b613421565b6133e7565b613365565b6132e6565b613260565b613234565b613126565b6130b0565b612f92565b612f61565b612e42565b612da7565b612d7b565b612d05565b612cde565b612c9e565b612c6f565b612c35565b612bdc565b612abe565b612921565b6127e8565b6123d3565b611e14565b611dd6565b611db8565b611b7a565b611b26565b611a39565b6119d8565b610405565b6119ba565b611982565b611953565b61191f565b61146b565b61141c565b6112b0565b61108f565b610997565b610921565b6108e9565b6108a0565b610803565b61070e565b610623565b6105ee565b610597565b61054e565b610532565b610455565b346103ef5760203660031901126103ef5760043560005260196020526020604060002054604051908152f35b600080fd5b6001600160a01b038116036103ef57565b346103ef5760203660031901126103ef576020600435610424816103f4565b6001600160a01b03809116600052601282526040600020546000526015825260046040600020015416604051908152f35b346103ef5760203660031901126103ef57600435610471613a7b565b600090808252601560205261048f60ff60016040852001541661438a565b33825260126020526104a66040832054821461438a565b808252601e60205260ff600160408420015416156104ee576104d56104e191600052601e602052604060002090565b60016000918281550155565b6104eb6001601155565b80f35b606460405162461bcd60e51b815260206004820152601360248201527f6e65737465642e7265712e6e6f746578697374000000000000000000000000006044820152fd5b346103ef5760003660031901126103ef57602047604051908152f35b346103ef5760203660031901126103ef57600435600052601e6020526060604060002060ff600182549201546040519283528181161515602084015260081c1615156040820152f35b346103ef5760203660031901126103ef5760206004356105b6816103f4565b60406001600160a01b039182600091168152601284528181205481526015845260028282200154815260138452205416604051908152f35b346103ef5760203660031901126103ef57600435600052601360205260206001600160a01b0360406000205416604051908152f35b346103ef576020806003193601126103ef576106a2600435610644816103f4565b6001600160a01b0380600254169060405192168483015283825261066782612b45565b6040519061067482612b45565b601182527f69735369676e657228616464726573732900000000000000000000000000000085830152615b0d565b919080610704575b156106da5781816106c4926106d69451830101910161589f565b60405190151581529081906020820190565b0390f35b60046040517f3204506f000000000000000000000000000000000000000000000000000000008152fd5b50808251146106aa565b346103ef5760203660031901126103ef5761074c60043561072e816103f4565b6107366153fb565b6040519161074383612b61565b60008352615b4f565b6001600160a01b038116156107be576107ae6106d69160405161076e81612b45565b600681527f72616e6b282900000000000000000000000000000000000000000000000000006020820152604051916107a583612b61565b60008352615bdc565b6040519081529081906020820190565b60405162461bcd60e51b815260206004820152601560248201527f6e65737465642e73746f722e6e6f7465786973747300000000000000000000006044820152606490fd5b346103ef5760403660031901126103ef5760243561081f6158b7565b1561088f5761082d3361593c565b801561087b575b1561086a57600090808252601a6020526040822054906004358201809211610865578252601a602052604082205580f35b613a4a565b600460405163ea8e4eb560e01b8152fd5b50336001600160a01b036005541614610834565b6004604051634ee2123760e11b8152fd5b346103ef5760203660031901126103ef57600480356000908152601560209081526040918290209283015460059093015482516001600160a01b03948516815293169083015290f35b346103ef5760203660031901126103ef57600435600052601560205260206001600160a01b0360056040600020015416604051908152f35b346103ef5760403660031901126103ef5760243561093d6158b7565b1561088f5761094b3361593c565b8015610983575b1561086a57600090808252601d6020526040822054906004358201809211610865578252601d602052604082205580f35b50336001600160a01b036005541614610952565b346103ef5760003660031901126103ef576109c96109bd6000546001600160a01b031690565b6001600160a01b031690565b604051907f97f3815a000000000000000000000000000000000000000000000000000000008252602082600481845afa918215610ebf5760009261106e575b50604051917fcfbffe53000000000000000000000000000000000000000000000000000000008352602083600481855afa928315610ebf5760009361104d575b50604051907fab6e844f000000000000000000000000000000000000000000000000000000008252602082600481865afa918215610ebf5760009261102c575b50604051917f14d8d024000000000000000000000000000000000000000000000000000000008352602083600481875afa928315610ebf5760009361100b575b50604051927fd1f956b1000000000000000000000000000000000000000000000000000000008452602084600481885afa938415610ebf57600094610fea575b50604051937fe61dfd58000000000000000000000000000000000000000000000000000000008552602085600481895afa948515610ebf57600095610fc9575b506040517fe09d394d0000000000000000000000000000000000000000000000000000000081526020816004818a5afa908115610ebf57600091610faa575b506040517f52b06d640000000000000000000000000000000000000000000000000000000081526020816004818b5afa908115610ebf57600091610f8b575b506040517f013cf08b00000000000000000000000000000000000000000000000000000000815260006004820152916020836024818c5afa928315610ebf57600093610f6a575b50604051977f5e09dbe70000000000000000000000000000000000000000000000000000000089526020896004818d5afa948515610ebf57600499600096610f49575b5060208b6040519b8c80927faa0ddc160000000000000000000000000000000000000000000000000000000082525afa968715610ebf5760049a600098610f28575b5060208c6040519c8d80927f640274270000000000000000000000000000000000000000000000000000000082525afa988915610ebf5760049b60009a610f07575b5060208d6040519d8e80927f30125cf50000000000000000000000000000000000000000000000000000000082525afa9a8b15610ebf578d60049d60009d610ee5575b506020906040519e8f80927f24768d910000000000000000000000000000000000000000000000000000000082525afa9c8d15610ebf5760009d610ec4575b50604051809e81907f9dc969a80000000000000000000000000000000000000000000000000000000082525a92600491602094fa9d8e15610ebf5760009e610e8e575b50610da2612bbb565b6001600160a01b0390911681529d8e906001600160a01b0316602082015260400190610dd691906001600160a01b03169052565b6001600160a01b031660608d01526001600160a01b031660808c01526001600160a01b031660a08b01526001600160a01b031660c08a01526001600160a01b031660e08901526001600160a01b03166101008801526001600160a01b03166101208701526001600160a01b03166101408601526001600160a01b03166101608501526001600160a01b03166101808401526001600160a01b03166101a08301526001600160a01b03166101c08201526100169061559e565b610eb1919e5060203d602011610eb8575b610ea98183612b99565b81019061550b565b9c38610d99565b503d610e9f565b615520565b610ede919d5060203d602011610eb857610ea98183612b99565b9b38610d56565b6020919d50610f0090823d8411610eb857610ea98183612b99565b9c90610d17565b610f21919a5060203d602011610eb857610ea98183612b99565b9838610cd4565b610f4291985060203d602011610eb857610ea98183612b99565b9638610c92565b610f6391965060203d602011610eb857610ea98183612b99565b9438610c50565b610f8491935060203d602011610eb857610ea98183612b99565b9138610c0d565b610fa4915060203d602011610eb857610ea98183612b99565b38610bc6565b610fc3915060203d602011610eb857610ea98183612b99565b38610b87565b610fe391955060203d602011610eb857610ea98183612b99565b9338610b48565b61100491945060203d602011610eb857610ea98183612b99565b9238610b08565b61102591935060203d602011610eb857610ea98183612b99565b9138610ac8565b61104691925060203d602011610eb857610ea98183612b99565b9038610a88565b61106791935060203d602011610eb857610ea98183612b99565b9138610a48565b61108891925060203d602011610eb857610ea98183612b99565b9038610a08565b346103ef576040806003193601126103ef576024356110ac6158b7565b15611272576110ba3361593c565b801561125e575b1561124e576000916110dd6109bd84546001600160a01b031690565b815180917f447aa30400000000000000000000000000000000000000000000000000000000825281600460209485935afa908115610ebf578591611231575b5084916004355b8581111561112f578680f35b8451828101828152819003808252601f1991611160916111529060200182612b99565b61115a61552c565b86615bdc565b61117483600052601a602052604060002090565b55875b6008811061118f57505061118a90613d79565b611123565b8651848101848152602081018390526111c791906111b99082906040015b03858101835282612b99565b6111c1615565565b87615bdc565b8115611205575b90611200916111fa826111eb876000526016602052604060002090565b90600052602052604060002090565b55613d79565b611177565b95906112146112009288613b72565b61122885600052601d602052604060002090565b559050856111ce565b6112489150823d8411610eb857610ea98183612b99565b3861111c565b6004825163ea8e4eb560e01b8152fd5b50336001600160a01b0360055416146110c1565b60048251634ee2123760e11b8152fd5b60e0810192916000915b6007831061129957505050565b60019082518152602080910192019201919061128c565b346103ef5760203660031901126103ef576106d660043561140a6113fa604051926112da84612b7d565b60e03685376113066112f6826000526017602052604060002090565b6001600052602052604060002090565b548452611330611320826000526017602052604060002090565b6002600052602052604060002090565b54602085015261135d61134d826000526017602052604060002090565b6003600052602052604060002090565b54604085015261138a61137a826000526017602052604060002090565b6004600052602052604060002090565b5460608501526113b76113a7826000526017602052604060002090565b6005600052602052604060002090565b5460808501526113e46113d4826000526017602052604060002090565b6006600052602052604060002090565b5460a08501526000526017602052604060002090565b6007600052602052604060002090565b5460c082015260405191829182611282565b346103ef5760003660031901126103ef5760206001600160a01b0360005416604051908152f35b60409060031901126103ef5760043561145b816103f4565b90602435611468816103f4565b90565b346103ef5761147936611443565b611481613a7b565b6106d66114cc6114a0611492613839565b61149a613851565b33615b4f565b6114ec6114b66114ae613839565b61149a61388a565b6001600160a01b039386851693851684146138c3565b836114e46109bd82600054166001600160a01b031690565b91161461390e565b6114f78115156142a9565b611514846001600160a01b03166000526012602052604060002090565b54158015611914575b611526906142f4565b61154e611546866001600160a01b03166000526012602052604060002090565b54151561433f565b6115926005611584611573886001600160a01b03166000526012602052604060002090565b546000526015602052604060002090565b01546001600160a01b031690565b6040517f880cdc310000000000000000000000000000000000000000000000000000000060208201526001600160a01b03861660248201529092906115f09080604481015b03946115eb601f1996878101845283612b99565b615c4a565b506116196109bd60046115846115738a6001600160a01b03166000526012602052604060002090565b6118a1575b61163b866001600160a01b03166000526012602052604060002090565b54611659866001600160a01b03166000526012602052604060002090565b556116aa8561168f61167e896001600160a01b03166000526012602052604060002090565b546000526013602052604060002090565b906001600160a01b03166001600160a01b0319825416179055565b6116ec3360046116d0611573896001600160a01b03166000526012602052604060002090565b01906001600160a01b03166001600160a01b0319825416179055565b85161415908161187c575b611714846001600160a01b03166000526012602052604060002090565b549361172f6005611584876000526015602052604060002090565b9561176b61175e600261174c896000526015602052604060002090565b01546000526013602052604060002090565b546001600160a01b031690565b9315611814576115eb6117de9361178a6009546001600160a01b031690565b6040517fe3d1d5bf0000000000000000000000000000000000000000000000000000000060208201526001600160a01b03948516602482015294909316604485015283606481015b03908101845283612b99565b505b6117ea6001601155565b60405193849384916040919493606084019584526001600160a01b03809216602085015216910152565b6117d291506115eb611876936118326009546001600160a01b031690565b6040517f9498d88b0000000000000000000000000000000000000000000000000000000060208201526001600160a01b039094166024850152929384906044820190565b506117e0565b600061189b866001600160a01b03166000526012602052604060002090565b556116f7565b61190e6118c960046115846115738a6001600160a01b03166000526012602052604060002090565b6040517f0399c93c000000000000000000000000000000000000000000000000000000006020820152336024820152906115eb82604481015b03878101845283612b99565b5061161e565b50848216811461151d565b346103ef5760203660031901126103ef576004356000526015602052602060ff600160406000200154166040519015158152f35b346103ef5760203660031901126103ef5760043560005260156020526020600360406000200154604051908152f35b346103ef5760203660031901126103ef57600435600052601560205260206001600160a01b0360046040600020015416604051908152f35b346103ef5760003660031901126103ef576020601f54604051908152f35b346103ef5760203660031901126103ef576004356119f5816103f4565b6001600160a01b0390811660009081526012602090815260408083205483526015825280832060020154808452601383529281902054815193845290931690820152f35b346103ef5760203660031901126103ef5760043580600052601560205260406000205460136020526106d66001600160a01b0380604060002054169360156020526040600020916004600284015493015416611aa46005611584846000526015602052604060002090565b906003611adc611acb6001611ac3876000526015602052604060002090565b015460ff1690565b946000526015602052604060002090565b01549360405197889788939160c09591989796939260e086019986526001600160a01b03938480931660208801526040870152166060850152166080830152151560a08201520152565b346103ef5760203660031901126103ef576001600160a01b03600435611b4b816103f4565b1660005260126020526040600020546000526015602052602060ff600160406000200154166040519015158152f35b346103ef57611b8836611443565b90611b916158b7565b1561088f57611b9f3361593c565b8015611da4575b1561086a5781611bbd91611bb8613a7b565b613d88565b611bd66005611584836000526015602052604060002090565b9160405190611c7b611c75611c35611c2785611c066020968783019190916001600160a01b036020820193169052565b0395611c1a601f1997888101835282612b99565b611c22613ab6565b615a48565b848082518301019101613aef565b6040517f654c668e0000000000000000000000000000000000000000000000000000000086820152602481019290925260448201529081606481016111ad565b85615c4a565b50611c8583614247565b611cd9611ccb611ca46005611584876000526015602052604060002090565b60405190611cbd82611902878201906000602083019252565b611cc56139a4565b90615a72565b8280825183010191016139dd565b5050506001600160a01b03611d1460056115846002611d02896000526015602052604060002090565b01546000526015602052604060002090565b1615159081611d9a575b50611d4a575b5050611d306001601155565b604080519182526001600160a01b03929092166020820152f35b611d92916115eb611d6f60056115846002611d02896000526015602052604060002090565b91630711e58760e41b60405194850152836117d260248201906001602083019252565b503880611d24565b9050151538611d1e565b50336001600160a01b036005541614611ba6565b346103ef5760003660031901126103ef576020601454604051908152f35b346103ef5760203660031901126103ef576001600160a01b03600435611dfb816103f4565b1660005260126020526020604060002054604051908152f35b346103ef576020806003193601126103ef5760043590611e32613a7b565b6001611e54611e4f82611ac3866000526015602052604060002090565b6141fc565b611e7c611e74336001600160a01b03166000526012602052604060002090565b54841461438a565b611e9083600052601e602052604060002090565b9281840192611ea8611ea3855460ff1690565b6145be565b611eb0613b35565b600594611ecb86611584856000526015602052604060002090565b95604091611f0b611efd845180611ee9888201906000602083019252565b039a611cbd601f199c8d8101845283612b99565b8580825183010191016139dd565b50505090611f25611f21895460ff9060081c1690565b1590565b156121ce5750600295611f4f87611f46886000526015602052604060002090565b01541515614654565b6000815b612079575b50509284926115eb61201399631867546560e21b611fc886888c826120029c60009f9e611fa2611fdf9d61158486611d026001600160a01b03956000526015602052604060002090565b161515908161206f575b5061201d575b5050611584906000526015602052604060002090565b9351948501526001602485015283604481016117d2565b508454611ff29060081c60ff16826146ec565b6000526015602052604060002090565b0155805461ff001916610100179055565b6100166001601155565b61158461203b92611d02612066956000526015602052604060002090565b8751630711e58760e41b8a82015260006024820152906115eb82604481015b03888101845283612b99565b50888b82611fb2565b9050151538611fac565b6003806120948a611d028b6000526015602052604060002090565b01548210156121c857876120ce6120c484846120be8e611d02876000526015602052604060002090565b016140bb565b90549060031b1c90565b146120e357506120dd90613d79565b81611f53565b8795925099631867546560e21b611fc886888c6120139f996120029c9960009f9e8c6121946115eb9b611fdf9f6121616120c48661215b846121548d611d0261217b98612142836121b29f611d02906000526015602052604060002090565b01956000526015602052604060002090565b0154613b63565b906140bb565b91846120be8a611d028d6000526015602052604060002090565b90919082549060031b91821b91600019901b1916179055565b6121ac85611d02886000526015602052604060002090565b0161469f565b999c505050509650505099508194969750611f58565b50611f58565b8596506122cf838787631867546560e21b946122996122936122f79f989e6104d59f9a6115eb9b6122e69f600261221261221a926000526015602052604060002090565b015415614609565b61225488600361224e895480600261223c866000526015602052604060002090565b01556000526015602052604060002090565b016140d8565b8554906001600160a01b0361227784611584856000526015602052604060002090565b16151590816123c9575b50612382575b50505460081c60ff1690565b846146ec565b6122b56109bd6004611584866000526015602052604060002090565b6122fc575050611584906000526015602052604060002090565b9351948501526000602485015283604481016117d2565b50600052601e602052604060002090565b612013565b6115eb7f1499c592000000000000000000000000000000000000000000000000000000009261205a61235861175e61234660046115846123799a6000526015602052604060002090565b95546000526013602052604060002090565b8c51958693840152602483019190916001600160a01b036020820193169052565b50888738611fb2565b6123c19161158461239d926000526015602052604060002090565b8d51630711e58760e41b8882015260016024820152906115eb8d83604481016117d2565b508638612287565b9050151538612281565b346103ef576040806003193601126103ef576004356123f0613a7b565b61240c611e4f6001611ac3846000526015602052604060002090565b61243261242b6109bd6004611584856000526015602052604060002090565b33146144dd565b61243a613b35565b6106d66101006124596005611584856000526015602052604060002090565b61257d601f549486805193826124c06124b26020977f02a085f20000000000000000000000000000000000000000000000000000000089820152806115d760249d8e803590840160209093929193604081019481520152565b878082518301019101614a5a565b988951926124d3888c0194855190613a6e565b978b6124e48782019a8b5190613a6e565b6124f46060830191825190613a6e565b906125056080840192835190613a6e565b97868a8961251960a088019c8d5190613a6e565b9661253261252d60c08301998a5190613a6e565b6154b1565b88815161276c575b505090915082516126f3575b5050508051612689575b50805161261f575b506125668651825190613a6e565b6125a2575b5050505050505060e086015190614b8b565b519201519261258c6001601155565b5191825260208201929092529081906040820190565b6126129663a9059cbb60e01b966115eb956125ed6117d2946125e361175e6125d2600f546001600160a01b031690565b9b6000526013602052604060002090565b9351905190613a6e565b92519889958601528401602090939291936001600160a01b0360408201951681520152565b508638828180808061256b565b612682906126356010546001600160a01b031690565b6115eb61264f61175e8a6000526013602052604060002090565b92518b5163a9059cbb60e01b888201526001600160a01b0390941689850190815260208101919091528390604001611902565b5038612558565b6126ec9061269f600c546001600160a01b031690565b6115eb6126b961175e8b6000526013602052604060002090565b92518c5163a9059cbb60e01b898201526001600160a01b039094168a85019081526020810191909152839060400161205a565b5038612550565b6115eb6127639361275761272661175e612715600e546001600160a01b031690565b956000526013602052604060002090565b9151945194859263a9059cbb60e01b8c8501528d8401602090939291936001600160a01b0360408201951681520152565b03898101845283612b99565b50388988612546565b6127d063a9059cbb60e01b946115eb936127dc976127a961175e612798600d546001600160a01b031690565b986000526013602052604060002090565b915192519788958601528401602090939291936001600160a01b0360408201951681520152565b038a8101845283612b99565b508f8a8989928861253a565b346103ef5760403660031901126103ef576004356024356128076158b7565b1561088f576128153361593c565b801561290d575b1561086a576128e361201392612830613a7b565b80600052601560205261284f611e4f600160406000200160ff90541690565b61287061286b6001611ac3866000526015602052604060002090565b614528565b6128d36128c96128ba6128926005611584886000526015602052604060002090565b60405190611cbd826128ac60208201906000602083019252565b03601f198101845283612b99565b602080825183010191016139dd565b50505015156139ff565b600052601e602052604060002090565b9060018201916128ff6128fa611f21855460ff1690565b614573565b55805460ff19166001179055565b50336001600160a01b03600554161461281c565b346103ef5760403660031901126103ef57600435602435612940613a7b565b61295c611e4f6001611ac3856000526015602052604060002090565b6129806129796109bd61175e856000526013602052604060002090565b331461438a565b6129b261299c6005611584856000526015602052604060002090565b6129a46143d5565b6129ac613826565b91615a72565b90806129c860209384808251830101910161440e565b10156129d8576100166001601155565b82612aaf6001600160a01b03927ff526f68a0000000000000000000000000000000000000000000000000000000094612aa3612a8861175e612a73612a65612a49612a356005611584612ab59f6000526015602052604060002090565b976040519182918983019190602083019252565b0397612a5d601f19998a8101845283612b99565b611cc561441d565b858082518301019101614456565b99925050506000526013602052604060002090565b612a90613839565b90604051988994850152602484016144a1565b03908101855284612b99565b16615c4a565b50388080612013565b346103ef5760203660031901126103ef576020600435612add816103f4565b6001600160a01b03809116600052601282526040600020546000526015825260056040600020015416604051908152f35b634e487b7160e01b600052604160045260246000fd5b6060810190811067ffffffffffffffff821117612b4057604052565b612b0e565b6040810190811067ffffffffffffffff821117612b4057604052565b6020810190811067ffffffffffffffff821117612b4057604052565b60e0810190811067ffffffffffffffff821117612b4057604052565b90601f8019910116810190811067ffffffffffffffff821117612b4057604052565b604051906101e0820182811067ffffffffffffffff821117612b4057604052565b346103ef576101003660031901126103ef5736604312156103ef57604051612c0381612b7d565b610104813682116103ef576024905b828210612c255761001684600435615178565b8135815260209182019101612c12565b346103ef5760403660031901126103ef57600435600052601660205260406000206024356000526020526020604060002054604051908152f35b346103ef5760203660031901126103ef5760043560005260156020526020600260406000200154604051908152f35b346103ef5760403660031901126103ef5760043560005260156020526020612ccf60243560036040600020016140bb565b90549060031b1c604051908152f35b346103ef5760003660031901126103ef5760206001600160a01b0360015416604051908152f35b346103ef5760403660031901126103ef57602435612d216158b7565b1561088f57612d2f3361593c565b8015612d67575b1561086a57600090808252601c6020526040822054906004358201809211610865578252601c602052604082205580f35b50336001600160a01b036005541614612d36565b346103ef5760203660031901126103ef57600435600052601d6020526020604060002054604051908152f35b346103ef5760003660031901126103ef576020612e0b6001600160a01b0360065416604051612dd581612b45565b601381527f67657464656c656761746f72436f756e7428290000000000000000000000000084820152604051916107a583612b61565b604051908152f35b610100810192916000915b60088310612e2b57505050565b600190825181526020809101920192019190612e1e565b346103ef5760203660031901126103ef576106d6600435612f4f6113fa612e67615434565b92612e8e612e7f826000526016602052604060002090565b60008052602052604060002090565b548452612ea86112f6826000526016602052604060002090565b546020850152612ec5611320826000526016602052604060002090565b546040850152612ee261134d826000526016602052604060002090565b546060850152612eff61137a826000526016602052604060002090565b546080850152612f1c6113a7826000526016602052604060002090565b5460a0850152612f396113d4826000526016602052604060002090565b5460c08501526000526016602052604060002090565b5460e082015260405191829182612e13565b346103ef5760203660031901126103ef576020612f88600435612f83816103f4565b61593c565b6040519015158152f35b346103ef5761305f612fa336611443565b90612fac613a7b565b612ff5612fba611492613839565b612fc56114ae613839565b90612fde6001600160a01b0391828088169116146138c3565b6114e46109bd82600054166001600160a01b031690565b61302261301d6001611ac3611573856001600160a01b03166000526012602052604060002090565b613959565b6130506128c96128ba6128926005611584611573876001600160a01b03166000526012602052604060002090565b613058613b05565b3390613f03565b613078612e7f601f546000526016602052604060002090565b6130828154613a60565b905561308c6154dd565b6130a56005611584836000526015602052604060002090565b90611d306001601155565b346103ef5760203660031901126103ef576130c96158b7565b1561088f576130d73361593c565b8015613112575b1561086a576130eb6159c6565b601f5410613102575b610016600435601f54613b7f565b61310a6159c6565b601f556130f4565b50336001600160a01b0360055416146130de565b346103ef5760203660031901126103ef576004356131426158b7565b1561088f576001600160a01b0360055416330361086a57600090600460206131746109bd85546001600160a01b031690565b604051928380927f46f991ac0000000000000000000000000000000000000000000000000000000082525afa8015610ebf5783808481949382948391613216575b505af16131c0615a18565b50156106da577fcdcc745fe377b103b45fa0cec23ae3ef93d6fc6a84a01f0d18c40b354dd1d5d86132106131ff6109bd600b546001600160a01b031690565b604051938452929081906020820190565b0390a280f35b61322e915060203d8111610eb857610ea98183612b99565b386131b5565b346103ef5760203660031901126103ef57600435600052601b6020526020604060002054604051908152f35b346103ef5760203660031901126103ef5760043561327d816103f4565b803b600061328a8261380a565b926132986040519485612b99565b82845260208401903c602d8151106132bc57602a602091015160601c604051908152f35b60046040517fbaf3f0f7000000000000000000000000000000000000000000000000000000008152fd5b60403660031901126103ef576004356132fd613a7b565b600090808252601560205261331b60ff6001604085200154166141fc565b8152601560205261335c6001600160a01b036005604084200154166040519063d3abb8a360e01b60208301526024356024830152602482526115eb82612b24565b50600160115580f35b346103ef5760203660031901126103ef5761338560043561072e816103f4565b6001600160a01b038116156107be576106c46106d6916040516133a781612b45565b600881527f69734c6f636b28290000000000000000000000000000000000000000000000006020820152604051916133de83612b61565b60008352615ba0565b346103ef5760403660031901126103ef57600435600052601860205260406000206024356000526020526020604060002054604051908152f35b346103ef5760c03660031901126103ef57612013600435602435613444816103f4565b60643591608435613453613a7b565b61346f611e4f6001611ac3856000526015602052604060002090565b61348e61242b6109bd6004611584866000526015602052604060002090565b613496613b35565b61349f81615459565b6134a884615485565b6135d06135436134c76005611584866000526015602052604060002090565b601f546040517fa6630304000000000000000000000000000000000000000000000000000000006020808301919091526001600160a01b03989098166024820152604480359082015260648101899052608481019590955260a480359086015260c4808601919091528452601f199593906115eb60e483612b99565b61358961357b6135626005611584886000526015602052604060002090565b60405190611cbd826127d0898201906000602083019252565b8480825183010191016139dd565b5050506001600160a01b036135b260056115846002611d028a6000526015602052604060002090565b1615159081613683575b50613638575b828082518301019101613aef565b9390806135e0575b505050614ead565b6115eb63a9059cbb60e01b9261362f946117d2613605600b546001600160a01b031690565b946040519687938401523360248401602090939291936001600160a01b0360408201951681520152565b503880806135d8565b61367d61365960056115846002611d02896000526015602052604060002090565b604051630711e58760e41b8682015260016024820152906115eb8260448101612757565b506135c2565b905015386135bc565b346103ef5760203660031901126103ef576020612f886004356136ae816103f4565b6001600160a01b038060065416906040519216848301528382526136d182612b45565b604051906136de82612b45565b601882527f697364656c656761746f724e6f6465286164647265737329000000000000000085830152615ba0565b346103ef5760003660031901126103ef576020612f886158b7565b346103ef5760203660031901126103ef57600435600052601a6020526020604060002054604051908152f35b346103ef5760203660031901126103ef57600435600052601c6020526020604060002054604051908152f35b346103ef576040806003193601126103ef576001600160a01b036004356137a5816103f4565b166000818152601260208181528483205483526019815284832054938352908152838220548252601881528382206024358352815290839020549251918252810191909152604090f35b346103ef5760003660031901126103ef576020612e0b6159c6565b67ffffffffffffffff8111612b4057601f01601f191660200190565b6040519061383382612b61565b60008252565b60405161384581612b61565b60008152906000368137565b6040519061385e82612b45565b600782527f6f776e65722829000000000000000000000000000000000000000000000000006020830152565b6040519061389782612b45565b600c82527f67657448657862617365282900000000000000000000000000000000000000006020830152565b156138ca57565b606460405162461bcd60e51b815260206004820152601760248201527f6e65737465642e696e76616c69642e696e7374616e63650000000000000000006044820152fd5b1561391557565b606460405162461bcd60e51b815260206004820152601660248201527f6e65737465642e696e76616c69642e68657862617365000000000000000000006044820152fd5b1561396057565b606460405162461bcd60e51b815260206004820152601860248201527f6e65737465642e706172656e742e6e6f742e65786973747300000000000000006044820152fd5b604051906139b182612b45565b601282527f6765744e6f64654c422875696e743235362900000000000000000000000000006020830152565b91908260809103126103ef578151916020810151916060604083015192015190565b15613a0657565b606460405162461bcd60e51b815260206004820152601960248201527f6e65737465642e706172656e742e6e6f2e627573696e657373000000000000006044820152fd5b634e487b7160e01b600052601160045260246000fd5b906001820180921161086557565b9190820180921161086557565b600260115414613a8c576002601155565b60046040517f3ee5aeb5000000000000000000000000000000000000000000000000000000008152fd5b60405190613ac382612b45565b601582527f676574436c61696d496e666f28616464726573732900000000000000000000006020830152565b91908260409103126103ef576020825192015190565b613b0d6159c6565b601f5410613b25575b613b236005601f54613b7f565b565b613b2d6159c6565b601f55613b16565b613b3d6159c6565b601f5410613b53575b613b236002601f54613b7f565b613b5b6159c6565b601f55613b46565b60001981019190821161086557565b9190820391821161086557565b90613b97612e7f836000526016602052604060002090565b541580613d24575b80613d1b575b613bad575050565b613bc990613bc3613bbd84613b63565b91613b63565b90613b7f565b613be8612e7f613bd883613b63565b6000526016602052604060002090565b54613c00612e7f836000526016602052604060002090565b55613c106112f6613bd883613b63565b54613c286112f6836000526016602052604060002090565b55613c38611320613bd883613b63565b54613c50611320836000526016602052604060002090565b55613c6061134d613bd883613b63565b54613c7861134d836000526016602052604060002090565b55613c8861137a613bd883613b63565b54613ca061137a836000526016602052604060002090565b55613cb06113a7613bd883613b63565b54613cc86113a7836000526016602052604060002090565b55613cd86113d4613bd883613b63565b54613cf06113d4836000526016602052604060002090565b55613d186113fa613d066113fa613bd885613b63565b54926000526016602052604060002090565b55565b50801515613ba5565b5060018211613b9f565b15613d3557565b606460405162461bcd60e51b815260206004820152601560248201527f6e65737465642e616c72656164792e65786973747300000000000000000000006044820152fd5b60001981146108655760010190565b613e2c91613e32613eff92613dc3613dbe611f216001611ac3611573886001600160a01b03166000526012602052604060002090565b613d2e565b613dd6613dd1601454613d79565b601455565b601454948591613df48561168f856000526013602052604060002090565b82613e12866001600160a01b03166000526012602052604060002090565b556001600160a01b03166000526012602052604060002090565b54614100565b613e5c6004613e4b856000526015602052604060002090565b016001600160a01b03198154169055565b613e8f613e79613e746008546001600160a01b031690565b614025565b60056116d0866000526015602052604060002090565b613ea86005611584856000526015602052604060002090565b6115eb613ec06109bd6000546001600160a01b031690565b60405163134bd3bd60e11b60208201526001600160a01b0391821660248201529316604484015260648301859052600060848401528260a481016128ac565b5090565b91613f9d613eff92613f87613e2c95613f3d613dbe611f216001611ac36115738a6001600160a01b03166000526012602052604060002090565b613f4b613dd1601454613d79565b601454968791613f698761168f856000526013602052604060002090565b82613e12886001600160a01b03166000526012602052604060002090565b60046116d0866000526015602052604060002090565b613fb5613e79613e746008546001600160a01b031690565b613fce6005611584856000526015602052604060002090565b6115eb613fe66109bd6000546001600160a01b031690565b60405163134bd3bd60e11b60208201526001600160a01b0391821660248201529316604484015260648301859052600160848401528260a481016128ac565b6e5af43d82803e903d91602b57fd5bf390763d602d80600a3d3981f3363d3d373d3d3d363d7300000062ffffff8260881c161760005260781b17602052603760096000f0906001600160a01b0382161561407b57565b60046040517fb06ebf3d000000000000000000000000000000000000000000000000000000008152fd5b634e487b7160e01b600052603260045260246000fd5b80548210156140d35760005260206000200190600090565b6140a5565b9081549168010000000000000000831015612b40578261217b916001613b23950181556140bb565b919091600092808452602091601583526040808620956002948386890155846001986141358a8201600160ff19825416179055565b558761414b866000526018602052604060002090565b83805282528489858520555b61416657505050505050509050565b6141d46141c3828b8a94146141dd575b61418a886000526018602052604060002090565b818752855286862061419c8154613a60565b90556141b2886000526019602052604060002090565b6141bc8154613a60565b9055613d79565b956000526015602052604060002090565b01549384614157565b6141f789600361224e8b6000526015602052604060002090565b614176565b1561420357565b606460405162461bcd60e51b815260206004820152601560248201527f6e65737465642e757365722e6e6f7461637469766500000000000000000000006044820152fd5b80600052601560205261426460ff600160406000200154166141fc565b60005260156020526142a66001600160a01b03600560406000200154166040519063d3abb8a360e01b602083015260016024830152602482526115eb82612b24565b50565b156142b057565b606460405162461bcd60e51b815260206004820152601360248201527f6e65737465642e7a65726f2e61646472657373000000000000000000000000006044820152fd5b156142fb57565b606460405162461bcd60e51b815260206004820152601460248201527f6e65737465642e7461726765742e6578697374730000000000000000000000006044820152fd5b1561434657565b606460405162461bcd60e51b815260206004820152601760248201527f6e65737465642e736f757263652e6e6f744578697374730000000000000000006044820152fd5b1561439157565b606460405162461bcd60e51b815260206004820152601560248201527f6e65737465642e696e76616c69642e73656e64657200000000000000000000006044820152fd5b604051906143e282612b45565b600b82527f6d696e74436f756e7428290000000000000000000000000000000000000000006020830152565b908160209103126103ef575190565b6040519061442a82612b45565b600e82527f6d696e74732875696e74323536290000000000000000000000000000000000006020830152565b91908260809103126103ef5781519160208101519160606040830151920151611468816103f4565b60005b8381106144915750506000910152565b8181015183820152602001614481565b90916001600160a01b03606093168252604060208301526144d1815180928160408601526020868601910161447e565b601f01601f1916010190565b156144e457565b606460405162461bcd60e51b815260206004820152601b60248201527f6e65737465642e757365722e696e76616c6964696e7374616e636500000000006044820152fd5b1561452f57565b606460405162461bcd60e51b815260206004820152601560248201527f6e65737465642e696e76616c69642e706172656e7400000000000000000000006044820152fd5b1561457a57565b606460405162461bcd60e51b815260206004820152601760248201527f6e65737465642e7265712e616c726561647965786973740000000000000000006044820152fd5b156145c557565b606460405162461bcd60e51b815260206004820152601460248201527f6e65737465642e7265712e6e6f746578697374730000000000000000000000006044820152fd5b1561461057565b606460405162461bcd60e51b815260206004820152601860248201527f6e65737465642e757365722e6e6f742e646574616368656400000000000000006044820152fd5b1561465b57565b606460405162461bcd60e51b815260206004820152601c60248201527f6e65737465642e757365722e616c72656164792e6465746163686564000000006044820152fd5b80549081156146c957600019918201916146b983836140bb565b909182549160031b1b1916905555565b634e487b7160e01b600052603160045260246000fd5b8015610865576000190190565b9061470a614704836000526019602052604060002090565b54613a60565b9160029081614723826000526015602052604060002090565b0154906001938492835b61473b575b50505050505050565b600f8085111580614a51575b15614a4b578590600561476b6109bd82611584876000526015602052604060002090565b614798575b5050614789614791926000526015602052604060002090565b015493613d79565b928561472d565b865b82811115614893575050506147896147919284600014614830576147e26147cb876000526018602052604060002090565b6147d489613b63565b600052602052604060002090565b546148066147fe896111eb856000526018602052604060002090565b918254613a6e565b905561481c816000526019602052604060002090565b6148278b8254613a6e565b90555b92614770565b6148476147cb876000526018602052604060002090565b5461486b614863896111eb856000526018602052604060002090565b918254613b72565b9055614881816000526019602052604060002090565b61488c8b8254613b72565b905561482a565b909192506148af82611584886000526015602052604060002090565b6148b98883613b72565b604091876148ed61357b8551806148d96020978883019190602083019252565b0394611cbd601f1996878101845283612b99565b50509290878a821580614a43575b614a32579261498394926117d26149286115eb946115846149909b9a986000526015602052604060002090565b94601f9a8c8c5491519889957f7b058ac1000000000000000000000000000000000000000000000000000000008d8801526024870193909594919260809360a086019786526020860152604085015260608401521515910152565b8051810182019101613aef565b9087156149e8575b8082116149b5575050506149ac905b613d79565b9087929161479a565b6149be90613d79565b6149d7816111eb85546000526016602052604060002090565b6149e18154613a60565b9055614998565b9190915b8281116149ff575050506149ac90613d79565b80614a1c614a2d926111eb85546000526016602052604060002090565b614a268154613b63565b90556146df565b6149ec565b50505050505050506149ac90613d79565b5085156148fb565b50614732565b50811515614747565b9061012080838303126103ef5781601f840112156103ef576040519281840184811067ffffffffffffffff821117612b4057604052839181019283116103ef57905b828210614aa95750505090565b8151815260209182019101614a9c565b60405190614ac682612b45565b600f82527f66726565496e74657276616c73282900000000000000000000000000000000006020830152565b60405190614aff82612b45565b601582527f67657452616e6b5769746841676556616c7565282900000000000000000000006020830152565b60405190614b3882612b45565b601382527f72616e6b436c617573652875696e7432353629000000000000000000000000006020830152565b908160a09103126103ef578051916020820151916040810151916080606083015192015190565b919091600392614bbc614ba585546001600160a01b031690565b614bad613839565b90614bb6614ab9565b90615bdc565b9360008092819082948392849185985b600f8a111580614ea4575b15614e96576005614bf96109bd82611584856000526015602052604060002090565b614c26575b506002614c18614c20926000526015602052604060002090565b015499613d79565b98614bcc565b8c614c4a614c4283611584866000526015602052604060002090565b6129a4614af2565b8c614c5f602092838082518301019101613aef565b829591951580614e2d575b1580614e24575b8015614e1c575b614c87575b5050505050614bfe565b869e8697929394959603614d5b575b50614d18928b6115eb8c6128ac614cc2614d1e9997611584614d0b986000526015602052604060002090565b93601f9a8b5460405197889563208bffb160e21b8c8801526024870193909594919260a09360c08601978652600060208701526040860152606085015260808401521515910152565b805181018201910161440e565b92613a60565b80831015614d3957509098905060028c614c208c3880614c7d565b806141b2614d56926111eb85546000526016602052604060002090565b614d1e565b9193929a50508a8511614dae575b509087918c86861080801591614d85575b50159a929193614c96565b89881015915081614da6575b5080614d9e575b38614d7a565b508815614d98565b905038614d91565b995095509350859250614dfd614def614dce8b546001600160a01b031690565b60405190614de7826128ac888c83019190602083019252565b611cc5614b2b565b868082518301019101614b64565b969350909691509594614e13859b601f54613b72565b11969091614d69565b506000614c78565b508a1515614c71565b99509b50955095509a50614e76614e68838d614de7614e538f546001600160a01b031690565b604051928301938452919283906020016128ac565b8c8082518301019101614b64565b9e9350909791509695849b859e614e8f82601f54613b72565b1199614c6a565b505050505050505050509050565b50801515614bd7565b90929192614ec6614ba56003546001600160a01b031690565b93600091829083809481938280985b600f8a11158061516f575b15614e9657614f016109bd6005611584846000526015602052604060002090565b614f25575b6002614c18614f1f926000526015602052604060002090565b98614ed5565b8b8a614f55614f46614c426005611584876000526015602052604060002090565b60208082518301019101613aef565b8293919315615112575b82151580615109575b8015615100575b614f7d575b50505050614f06565b938394819d8d94950361504a575b5061501192614d18926115eb8c6128ac8f614fb86005611584615002996000526015602052604060002090565b94601f9a8b549060405198899663208bffb160e21b60208901526024880194919260a0949197969360c0870198875260208701526040860152606085015260808401521515910152565b6020808251830101910161440e565b8083101561502857509098905060028a8d38614f74565b806141b2615045926111eb85546000526016602052604060002090565b615011565b93505050975082821161509c575b50898c878b86851080801591615073575b50159a9291614f8b565b89871015915081615094575b508061508c575b38615069565b508815615086565b90503861507f565b9350935050506150e36150d46150ba6003546001600160a01b031690565b60405190614de7826128ac88602083019190602083019252565b60208082518301019101614b64565b93509093915092916150f88592601f54613b72565b119338615058565b508b1515614f6f565b50891515614f68565b9750505093509750505061514e6150d46151346003546001600160a01b031690565b60405190614de7826128ac87602083019190602083019252565b999350909391509291818a8d829b61516889601f54613b72565b1197614f5f565b50801515614ee0565b6151806158b7565b1561088f5761518e3361593c565b8015615291575b1561086a576151a2613b35565b6151ad8115156152a5565b6151ca6151c26003546001600160a01b031690565b6129a46152f0565b6151de602091828082518301019101615329565b926151f383600052601a602052604060002090565b549160005b6007811061520857505050505050565b8061521661528492856153a6565b51156149a75761522681886153a6565b518051908482156152895761524d61525e91615245615264958b6153c8565b9301516153b7565b61525785896153a6565b51906153c8565b906153db565b6111fa61527b886000526017602052604060002090565b6147d484613a60565b6151f8565b505050613d79565b50336001600160a01b036005541614615195565b156152ac57565b606460405162461bcd60e51b815260206004820152601260248201527f6e65737465642e696e76616c69642e61676500000000000000000000000000006044820152fd5b604051906152fd82612b45565b601882527f6765744261746368526f79616c7479436c6175736573282900000000000000006020830152565b6102a09081818403126103ef5782601f820112156103ef57604080519361534f85612b7d565b84938301928184116103ef57935b83851061536c57505050505090565b6060858303126103ef57825160609161538482612b24565b865182526020918288015183820152858801518682015281520194019361535d565b9060078110156140d35760051b0190565b908160640291606483040361086557565b8181029291811591840414171561086557565b81156153e5570490565b634e487b7160e01b600052601260045260246000fd5b6040519061540882612b45565b600682527f73746f72282900000000000000000000000000000000000000000000000000006020830152565b6040519061010080830183811067ffffffffffffffff821117612b4057604052368337565b601f5480600052601a60205260406000205491820180921161086557600052601a602052604060002055565b601f5480600052601b60205260406000205491820180921161086557600052601b602052604060002055565b601f5480600052601c60205260406000205491820180921161086557600052601c602052604060002055565b601f5480600052601d602052604060002054906001820180921161086557600052601d602052604060002055565b908160209103126103ef5751611468816103f4565b6040513d6000823e3d90fd5b6040519061553982612b45565b601482527f676574627573696e6573732875696e74323536290000000000000000000000006020830152565b6040519061557282612b45565b601d82527f67657472616e6b436f756e742875696e743235362c75696e74323536290000006020830152565b6158836101c0613b23926155d86155bc82516001600160a01b031690565b6001600160a01b03166001600160a01b03196002541617600255565b61560b6155ef60208301516001600160a01b031690565b6001600160a01b03166001600160a01b03196003541617600355565b61563e61562260408301516001600160a01b031690565b6001600160a01b03166001600160a01b03196004541617600455565b61567161565560608301516001600160a01b031690565b6001600160a01b03166001600160a01b03196005541617600555565b6156a461568860808301516001600160a01b031690565b6001600160a01b03166001600160a01b03196006541617600655565b6156d76156bb60a08301516001600160a01b031690565b6001600160a01b03166001600160a01b03196007541617600755565b61570a6156ee60c08301516001600160a01b031690565b6001600160a01b03166001600160a01b03196008541617600855565b61573d61572160e08301516001600160a01b031690565b6001600160a01b03166001600160a01b03196009541617600955565b6157716157556101008301516001600160a01b031690565b6001600160a01b03166001600160a01b0319600a541617600a55565b6157a56157896101208301516001600160a01b031690565b6001600160a01b03166001600160a01b0319600b541617600b55565b6157d96157bd6101408301516001600160a01b031690565b6001600160a01b03166001600160a01b0319600c541617600c55565b61580d6157f16101608301516001600160a01b031690565b6001600160a01b03166001600160a01b0319600d541617600d55565b6158416158256101808301516001600160a01b031690565b6001600160a01b03166001600160a01b0319600e541617600e55565b6158756158596101a08301516001600160a01b031690565b6001600160a01b03166001600160a01b0319600f541617600f55565b01516001600160a01b031690565b6001600160a01b03166001600160a01b03196010541617601055565b908160209103126103ef575180151581036103ef5790565b6159126001600160a01b03600254166040516158d281612b45565b600881527f697353616665282900000000000000000000000000000000000000000000000060208201526040519161590983612b61565b60008352615b0d565b9080615931575b156106da57806020806114689351830101910161589f565b506020815114615919565b61599f6001600160a01b03806002541660405191602094168483015283825261596482612b45565b6040519061597182612b45565b601582527f697353656375726542617365286164647265737329000000000000000000000085830152615b0d565b90806159bc575b156106da5781611468928251830101910161589f565b50818151146159a6565b6114686001600160a01b03600354166040516159e181612b45565b600681527f69416765282900000000000000000000000000000000000000000000000000006020820152604051916107a583612b61565b3d15615a43573d90615a298261380a565b91615a376040519384612b99565b82523d6000602084013e565b606090565b90615a5291615a7d565b9060009015615a5f575090565b6040519150615a6d82612b61565b815290565b90615a529291615b0d565b73c7aff2414b0436ddf2d5d72e582feb8930af67f1803b15615af4576000926001600160e01b03198360208695519101201690615ae46024604051809360208201958652615ad4815180926020868601910161447e565b8101036004810184520182612b99565b51915afa615af0615a18565b9091565b505050600090604051615b0681612b61565b6000815290565b803b15615af4576000926001600160e01b03198360208695519101201690615ae46024604051809360208201958652615ad4815180926020868601910161447e565b9291615b5d91600094615b0d565b9080615b95575b615b6b5750565b9091506020818051810103126103ef5760206001600160a01b03910151615b91816103f4565b1690565b506020815114615b64565b9291615bae91600094615b0d565b9080615bd1575b615bbc5750565b6114689192506020808251830101910161589f565b506020815114615bb5565b9291615bea91600094615b0d565b9080615c0d575b615bf85750565b6114689192506020808251830101910161440e565b506020815114615bf1565b90602082519201516001600160e01b0319908181169360048110615c3b57505050565b60040360031b82901b16169150565b6001600160a01b03811615615ce557600080918351908260208601915af190615c71615a18565b9115615c7b575090565b805160009190600411615cdf57615c929150615c18565b815115615ca25750805190602001fd5b6040517f21c09d340000000000000000000000000000000000000000000000000000000081526001600160e01b0319919091166004820152602490fd5b50615c92565b60046040517fe6c4247b000000000000000000000000000000000000000000000000000000008152fdfea2646970667358221220d84184bdd0a2b3c89a96c34c79814a6fb188ff6cb55dd759ef20778e58938fb864736f6c63430008140033","linkReferences":{}},"methodIdentifiers":{"dAOAssembly()":"14837455","daocore()":"14d8d024","nested741()":"45cff900","old741()":"5540c5ac","price()":"a035b1fe"},"id":85}