{"abi":[{"type":"constructor","inputs":[{"name":"_hex","type":"address","internalType":"address"}],"stateMutability":"nonpayable"},{"type":"function","name":"deployNFTCat","inputs":[],"outputs":[],"stateMutability":"nonpayable"},{"type":"function","name":"deployNFTLion","inputs":[],"outputs":[],"stateMutability":"nonpayable"},{"type":"function","name":"deployNFTMachineBull","inputs":[],"outputs":[],"stateMutability":"nonpayable"},{"type":"function","name":"deployNFTMonalisa","inputs":[],"outputs":[],"stateMutability":"nonpayable"},{"type":"function","name":"deployNFTNeonlit","inputs":[],"outputs":[],"stateMutability":"nonpayable"},{"type":"function","name":"hexb","inputs":[],"outputs":[{"name":"","type":"address","internalType":"address"}],"stateMutability":"view"},{"type":"function","name":"nFTCat","inputs":[],"outputs":[{"name":"","type":"address","internalType":"address"}],"stateMutability":"view"},{"type":"function","name":"nFTLion","inputs":[],"outputs":[{"name":"","type":"address","internalType":"address"}],"stateMutability":"view"},{"type":"function","name":"nFTMachineBull","inputs":[],"outputs":[{"name":"","type":"address","internalType":"address"}],"stateMutability":"view"},{"type":"function","name":"nFTMonalisa","inputs":[],"outputs":[{"name":"","type":"address","internalType":"address"}],"stateMutability":"view"},{"type":"function","name":"nFTNeonlit","inputs":[],"outputs":[{"name":"","type":"address","internalType":"address"}],"stateMutability":"view"},{"type":"function","name":"nFTProxy","inputs":[],"outputs":[{"name":"","type":"address","internalType":"address"}],"stateMutability":"view"},{"type":"function","name":"nftFactory","inputs":[],"outputs":[{"name":"","type":"address","internalType":"address"}],"stateMutability":"view"}],"bytecode":{"object":"0x60803461012457601f61733d38819003918201601f19168301926001600160401b039290918385118386101761010e57816020928492604097885283398101031261012457516001600160a01b038082169290918390036101245760018060a01b031992808460025416176002558451916157f292838101938185108386111761010e57611b4b823980600094039084f08015610104578416858454161783558551916112c980840192848410908411176100f0579183916020936108828439815203019082f09081156100e557501690600154161760015551610758908161012a8239f35b8451903d90823e3d90fd5b634e487b7160e01b85526041600452602485fd5b86513d85823e3d90fd5b634e487b7160e01b600052604160045260246000fd5b600080fdfe608060408181526004908136101561001657600080fd5b600092833560e01c9081631697db05146105d7575080631a1575a5146105ae5780631f281210146104f9578063209d197a146104d05780632e417d8e1461041b5780635f3ed2831461036657806361358ffe14610283578063a0f0e54f1461025a578063a4ac704e14610231578063bc9df3d714610208578063d63843cd146101e0578063de04dae4146101b35763ed4fe597146100b357600080fd5b346101af57826003193601126101af5782546002548251638cfa829d60e01b81526001600160a01b03949092851691851690869081858281875afa9485156101a55791610122959391602095938295610181575b50875163165fd13f60e01b81529687958694859384016106e7565b03925af19182156101785750839161014a575b501660018060a01b0319600654161760065580f35b61016b915060203d8111610171575b61016381836105fc565b8101906106c8565b38610135565b503d610159565b513d85823e3d90fd5b61019e9195503d8084833e61019681836105fc565b810190610658565b9338610107565b86513d84823e3d90fd5b8280fd5b8382346101dc57816003193601126101dc5760055490516001600160a01b039091168152602090f35b5080fd5b8382346101dc57816003193601126101dc57905490516001600160a01b039091168152602090f35b8382346101dc57816003193601126101dc5760025490516001600160a01b039091168152602090f35b8382346101dc57816003193601126101dc5760015490516001600160a01b039091168152602090f35b8382346101dc57816003193601126101dc5760065490516001600160a01b039091168152602090f35b50346101af57826003193601126101af578254600254825163062d856360e11b81526001600160a01b039392909190841690841686838781855afa92831561035c57916102f193916020938993610340575b5088865180968195829463165fd13f60e01b84528c84016106e7565b03925af191821561033757508491610319575b5082546001600160a01b031916911617905580f35b610331915060203d81116101715761016381836105fc565b38610304565b513d86823e3d90fd5b6103559193503d808b833e61019681836105fc565b91386102d5565b84513d89823e3d90fd5b50346101af57826003193601126101af5782546002548251631a24f64f60e31b81526001600160a01b03949092851691851690869081858281875afa9485156101a557916103d59593916020959382956101815750875163165fd13f60e01b81529687958694859384016106e7565b03925af1918215610178575083916103fd575b501660018060a01b0319600554161760055580f35b610415915060203d81116101715761016381836105fc565b386103e8565b50346101af57826003193601126101af5782546002548251634c54bc5560e01b81526001600160a01b03949092851691851690869081858281875afa9485156101a5579161048a9593916020959382956101815750875163165fd13f60e01b81529687958694859384016106e7565b03925af1918215610178575083916104b2575b501660018060a01b0319600754161760075580f35b6104ca915060203d81116101715761016381836105fc565b3861049d565b8382346101dc57816003193601126101dc5760075490516001600160a01b039091168152602090f35b50346101af57826003193601126101af578254600254825163f0ea449760e01b81526001600160a01b03949092851691851690869081858281875afa9485156101a557916105689593916020959382956101815750875163165fd13f60e01b81529687958694859384016106e7565b03925af191821561017857508391610590575b501660018060a01b0319600354161760035580f35b6105a8915060203d81116101715761016381836105fc565b3861057b565b8382346101dc57816003193601126101dc5760035490516001600160a01b039091168152602090f35b849084346101af57826003193601126101af57546001600160a01b0316815260209150f35b601f909101601f19168101906001600160401b0382119082101761061f57604052565b634e487b7160e01b600052604160045260246000fd5b60005b8381106106485750506000910152565b8181015183820152602001610638565b6020818303126106c35780516001600160401b03918282116106c357019082601f830112156106c357815190811161061f57604051926106a2601f8301601f1916602001856105fc565b818452602082840101116106c3576106c09160208085019101610635565b90565b600080fd5b908160209103126106c357516001600160a01b03811681036106c35790565b909160609260018060a01b03168252604060208301526107168151809281604086015260208686019101610635565b601f01601f191601019056fea26469706673582212204f435d689f3e9b2ad009262064792868a41071a988e790f80effe96fc4e6434d64736f6c6343000814003360803461009257601f6112c938819003918201601f19168301916001600160401b038311848410176100975780849260209460405283398101031261009257516001600160a01b038116908190036100925780156100805760018060a01b031933816001541617600155600054161760005560405161121b90816100ae8239f35b60405163e6c4247b60e01b8152600490fd5b600080fd5b634e487b7160e01b600052604160045260246000fdfe60806040526004361015610018575b361561001657005b005b60003560e01c806312065fe0146100e85780631f185d16146100e3578063339459a6146100de5780633b9b7955146100d95780638da5cb5b146100d45780639e6c4bd1146100cf578063a1f7f539146100ca578063af484526146100c5578063b90306ad146100c0578063c54e44b0146100bb578063e01ad5fd146100b6578063e0a9bc2b146100b15763fdc10bc90361000e576109ef565b6109d4565b61090d565b6108d4565b6107c8565b610797565b61072d565b6106bb565b6105e3565b6105ba565b6101ed565b610126565b3461010457600036600319011261010457602047604051908152f35b600080fd5b6001600160a01b031690565b6001600160a01b0381160361010457565b34610104576020806003193601126101045761019960043561014781610115565b6002546040516001600160a01b0392831685820152848152911661016a82610622565b6040519061017782610622565b601182527069735369676e657228616464726573732960781b85830152611100565b9190806101e3575b156101d15781816101bb926101cd94518301019101610ff5565b60405190151581529081906020820190565b0390f35b604051633204506f60e01b8152600490fd5b50808251146101a1565b34610104576000806003193601126105b75761021161020c8254610109565b610109565b60408051634bf9c0ad60e11b81529160049190602080858581855afa94851561047e578695610598575b50825163cfbffe5360e01b81529281848681865afa93841561047e578794610579575b50805163ab6e844f60e01b815282818781875afa90811561047e57889161055c575b508151630536340960e21b815283818881885afa90811561047e57899161053f575b50825163d1f956b160e01b81529084828981895afa91821561047e578a92610520575b508351631cc3bfab60e31b81529285848a818a5afa93841561047e578b94610501575b50845163e09d394d60e01b81529486868b818b5afa95861561047e578c966104e2575b5080516314ac1b5960e21b815298878a8c818c5afa97881561047e576103529a8e996104c3575b50808c8451809d819263013cf08b60e01b83528201906000602083019252565b03818d5afa998a1561047e578c9b8f9b6104a4575b50818451809d635e09dbe760e01b825281845afa9b8c1561047e578f9c610483575b50819084519d8e8092635506ee0b60e11b82525afa9b8c1561047e578e9c61044f575b506103b5610680565b9c6103c0908e610dc0565b8c01906103cc91610dc0565b8a01906103d891610dc0565b6103e59060608a01610dc0565b6103f29060808901610dc0565b6103ff9060a08801610dc0565b61040c9060c08701610dc0565b6104199060e08601610dc0565b610427906101008501610dc0565b610435906101208401610dc0565b610443906101408301610dc0565b61044c90610dcf565b80f35b81610470929d508d3d10610477575b610468818361065d565b810190610a3b565b9a386103ac565b503d61045e565b610a53565b82919c5061049d90823d841161047757610468818361065d565b9b90610389565b6104bc919b50823d841161047757610468818361065d565b9938610367565b816104db929a503d8b1161047757610468818361065d565b9738610332565b6104fa919650873d891161047757610468818361065d565b943861030b565b610519919450863d881161047757610468818361065d565b92386102e8565b610538919250853d871161047757610468818361065d565b90386102c5565b6105569150843d861161047757610468818361065d565b386102a2565b6105739150833d851161047757610468818361065d565b38610280565b610591919450823d841161047757610468818361065d565b923861025e565b816105b09296503d871161047757610468818361065d565b933861023b565b80fd5b34610104576000366003190112610104576000546040516001600160a01b039091168152602090f35b34610104576000366003190112610104576001546040516001600160a01b039091168152602090f35b634e487b7160e01b600052604160045260246000fd5b604081019081106001600160401b0382111761063d57604052565b61060c565b602081019081106001600160401b0382111761063d57604052565b601f909101601f19168101906001600160401b0382119082101761063d57604052565b6040519061016082016001600160401b0381118382101761063d57604052565b6001600160401b03811161063d57601f01601f191660200190565b34610104576020366003190112610104576004356001600160401b03811161010457366023820112156101045780600401356106f6816106a0565b90610704604051928361065d565b808252366024828501011161010457602081600092602461001696018386013783010152610a5f565b3461010457600036600319011261010457602061078f60018060a01b036006541660405161075a81610622565b601381527267657464656c656761746f72436f756e74282960681b848201526040519161078683610642565b6000835261115e565b604051908152f35b346101045760203660031901126101045760206107be6004356107b981610115565b61107f565b6040519015158152f35b34610104576020366003190112610104576004356107e461100d565b156108c2576005546001600160a01b031633036108b0576000906004602061080f61020c8554610109565b6040516311be646b60e21b815292839182905afa801561047e5783808481949382948391610892575b505af1610843610c47565b50156101d1577fcdcc745fe377b103b45fa0cec23ae3ef93d6fc6a84a01f0d18c40b354dd1d5d861088c61087b61020c600b54610109565b604051938452929081906020820190565b0390a280f35b6108aa915060203d811161047757610468818361065d565b38610838565b60405163ea8e4eb560e01b8152600490fd5b604051634ee2123760e11b8152600490fd5b346101045760203660031901126101045760206108fb6004356108f681610115565b61119c565b6040516001600160a01b039091168152f35b3461010457602080600319360112610104576101cd906004359061093082610115565b6006546040516001600160a01b03938416838201528281529216916109909061095881610622565b60405161096481610622565b6018815277697364656c656761746f724e6f646528616464726573732960401b84820152600094611100565b9190806109ca575b6109b1575b505060405190151581529081906020820190565b6109c392508082518301019101610ff5565b388061099d565b5080825114610998565b346101045760003660031901126101045760206107be61100d565b3461010457600036600319011261010457602061078f60018060a01b0360035416604051610a1c81610622565b600681526569416765282960d01b848201526040519161078683610642565b908160209103126101045751610a5081610115565b90565b6040513d6000823e3d90fd5b610aa86020610a6d3361119c565b610a7b61020c600054610109565b6040516333ea87db60e21b81526001600160a01b0390921660048301529092839190829081906024820190565b03915afa90811561047e57600091610b09575b506001600160a01b03811615159081610af9575b50610ae7575b6040516393c19f6160e01b8152600490fd5b805115610ad557610af790610c77565b565b610b03915061107f565b38610acf565b610b21915060203d811161047757610468818361065d565b38610abb565b805160141015610b375760340190565b634e487b7160e01b600052603260045260246000fd5b805160151015610b375760350190565b805160161015610b375760360190565b805160171015610b375760370190565b908151811015610b37570160200190565b634e487b7160e01b600052601160045260246000fd5b601719810191908211610bb357565b610b8e565b90610bc2826106a0565b610bcf604051918261065d565b8281528092610be0601f19916106a0565b0190602036910137565b6000198114610bb35760010190565b9060188201809211610bb357565b6001600160e01b0319909116815281519160005b838110610c315750509060049101016000815290565b8060208092840101516004828601015201610c1b565b3d15610c72573d90610c58826106a0565b91610c66604051938461065d565b82523d6000602084013e565b606090565b90602082015160601c610cba610cad610ca0610c9286610b27565b516001600160f81b03191690565b6001600160f81b03191690565b6001600160e01b03191690565b610cda610ccc610ca0610c9287610b4d565b60081c62ffffff60e01b1690565b17610cfa610ced610ca0610c9287610b5d565b60101c61ffff60e01b1690565b17610d19610d0d610ca0610c9287610b6d565b60181c60ff60e01b1690565b1791610d2d610d288551610ba4565b610bb8565b9160005b8351811015610d6b5780610d53610c92610d4d610d6694610bf9565b89610b7d565b60001a610d608287610b7d565b53610bea565b610d31565b5090935060009283610d8c610d9a8295604051928391602083019687610c07565b03601f19810183528261065d565b51925af1610da6610c47565b5015610dae57565b604051630443ec2b60e31b8152600490fd5b6001600160a01b039091169052565b610fd3610140610af792610e08610de68251610109565b600280546001600160a01b0319166001600160a01b0392909216919091179055565b610e3a610e186020830151610109565b600380546001600160a01b0319166001600160a01b0392909216919091179055565b610e6c610e4a6040830151610109565b600480546001600160a01b0319166001600160a01b0392909216919091179055565b610e9e610e7c6060830151610109565b600580546001600160a01b0319166001600160a01b0392909216919091179055565b610ed0610eae6080830151610109565b600680546001600160a01b0319166001600160a01b0392909216919091179055565b610f02610ee060a0830151610109565b600780546001600160a01b0319166001600160a01b0392909216919091179055565b610f34610f1260c0830151610109565b600880546001600160a01b0319166001600160a01b0392909216919091179055565b610f66610f4460e0830151610109565b600980546001600160a01b0319166001600160a01b0392909216919091179055565b610f99610f77610100830151610109565b600a80546001600160a01b0319166001600160a01b0392909216919091179055565b610fcc610faa610120830151610109565b600b80546001600160a01b0319166001600160a01b0392909216919091179055565b0151610109565b600c80546001600160a01b0319166001600160a01b0392909216919091179055565b90816020910312610104575180151581036101045790565b600254604051611055916001600160a01b03169061102a81610622565b6008815267697353616665282960c01b60208201526040519161104c83610642565b60008352611100565b9080611074575b156101d15780602080610a5093518301019101610ff5565b50602081511461105c565b6110d960018060a01b0380600254166040519160209416848301528382526110a682610622565b604051906110b382610622565b601582527469735365637572654261736528616464726573732960581b85830152611100565b90806110f6575b156101d15781610a509282518301019101610ff5565b50818151146110e0565b803b156111455781516020928301206040516000948594820192611135918391610d8c91906001600160e01b03191686610c07565b51915afa611141610c47565b9091565b50505060009060405161115781610642565b6000815290565b929161116c91600094611100565b9080611191575b61117a5750565b909150602081805181010312610104576020015190565b506020815114611173565b803b60006111a9826106a0565b926111b7604051948561065d565b82845260208401903c602d8151106111d357602a015160601c90565b60405163baf3f0f760e01b8152600490fdfea26469706673582212202160d28cd04ac68e62de1700439bf47097fdabb219f9c3ab8d74db83651975b264736f6c6343000814003360808060405234610016576157d6908161001c8239f35b600080fdfe608060405260043610156200001357600080fd5b60003560e01c80630c5b0ac61462000ab1578063145d523f14620008b0578063165fd13f14620006345780634c54bc5514620004eb5780638cfa829d1462000354578063d127b278146200023a5763f0ea4497146200007157600080fd5b346200023557600036600319011262000235576200008e62000d8b565b6040519061034082016001600160401b038111838210176200021f5760405260199182815260005b61032081106200020d5750600092602092838101945b8281106200017057846200015585620000e462000d8b565b60405190620000f38262000c17565b604482527f68747470733a2f2f6f7a6f6e6531336164633764613864323537636163643631858301527f3163306432386539383661663235376232323931302e6f7a6f6e6573746f72656040830152632e696f2f60e01b606083015262000e22565b906200016c60405192828493845283019062000bf0565b0390f35b6001810190818111620001f757620001f0906200018d8362000e8f565b620001dc8860405180938c620001aa8a5180928686019062000bcb565b8201615f5f60f01b84820152620001cc82518093602296878501910162000bcb565b0103600281018452018262000c4f565b620001e8828862000d60565b528562000d60565b50620000cc565b634e487b7160e01b600052601160045260246000fd5b806060602080938501015201620000b6565b634e487b7160e01b600052604160045260246000fd5b600080fd5b346200023557600036600319011262000235576200025762000dad565b604051906101e082016001600160401b038111838210176200021f57604052600e9182815260005b6101c08110620003425750600092602092838101945b8281106200031e57846200015585620002ad62000dad565b60405190620002bc8262000c17565b604482527f68747470733a2f2f6f7a6f6e6535613466306235646237376266373362393534858301527f6461363430336162326433313138633463616436632e6f7a6f6e6573746f72656040830152632e696f2f60e01b606083015262000e22565b6001810190818111620001f7576200033b906200018d8362000e8f565b5062000295565b8060606020809385010152016200027f565b34620002355760003660031901126200023557604051620003758162000c33565b600d81526c151a194814dd1e5b194810d85d609a1b6020808301918252604051909261020082016001600160401b038111838210176200021f57604052600f908183528460005b6101e08110620004da57505060005b8281106200046757856200015585604051620003e78162000c33565b600381526210d85d60ea1b8482015260405190620004058262000c17565b604482527f68747470733a2f2f6f7a6f6e6563383433313931313037663531656665363762858301527f3736636637333932366563353831353232343461332e6f7a6f6e6573746f72656040830152632e696f2f60e01b606083015262000e22565b600180820191828111620001f757620004d391620001dc896200048a8662000e8f565b9260405180948c620004a38b5180928786019062000bcb565b8201600160fd1b85820152620004c482518093602197888501910162000bcb565b01039081018452018262000c4f565b50620003cb565b6060828287010152018590620003bc565b346200023557600036600319011262000235576200050862000dfc565b6040519060a082016001600160401b038111838210176200021f576040526004825260005b608081106200062257506020918282019160005b60048110620005cb578462000155846200055a62000dfc565b60405190620005698262000c17565b604482527f68747470733a2f2f6f7a6f6e6533643262323938313134653364633732616436858301527f3636386366616635383931373433656562343237352e6f7a6f6e6573746f72656040830152632e696f2f60e01b606083015262000e22565b600180820191828111620001f7576200061b916200060788620005ee8662000e8f565b9260405180948b620004a38b5180928786019062000bcb565b62000613828762000d60565b528462000d60565b5062000541565b8060606020809386010152016200052d565b346200023557604036600319011262000235576004356001600160a01b038116908190036200023557602435906001600160401b038211620002355736602383011215620002355760048201356001600160401b0381116200023557820191366024840111620002355760208184031262000235576024810135906001600160401b03821162000235570191608083820312620002355760405191620006da8362000c17565b60248401356001600160401b0381116200023557620007029060248085019187010162000c8f565b835260448401356001600160401b03811162000235576200072c9060248085019187010162000c8f565b60208401908152606485013560408501908152949093906084810135906001600160401b0382116200023557602485016043838301011215620002355780820160240135946001600160401b0386116200021f578560051b916040519662000798602085018962000c4f565b87526020870190602483016044858784010101116200023557604485820101915b6044858784010101831062000876575050505050606082018490525051925193516040519461483980870194919290916001600160401b038611888710176200021f5762000832608094620008238a99620008469662000f688c3960a08a5260a08a019062000bf0565b9088820360208a015262000bf0565b916040870152858203606087015262000cdc565b92015203906000f080156200086a576040516001600160a01b039091168152602090f35b6040513d6000823e3d90fd5b6001600160401b038335116200023557602080604492620008a2602488018588358c8901010162000c8f565b8152019301929050620007b9565b34620002355760003660031901126200023557620008cd62000d3c565b60405161024081016001600160401b038111828210176200021f57604052601180825260005b610220811062000a9f57506000602093848101915b83811062000a3757620009e38662000a218762000a126200092862000d3c565b91604051620009378162000c17565b604481527f68747470733a2f2f6f7a6f6e6536306436366338373231663436653434653735868201527f3662366130383461663936643830336632623936362e6f7a6f6e6573746f72656040820152632e696f2f60e01b606082015260405193620009a28562000c17565b8452858401908152604084019167016345785d8a0000835260608501908152620009fa6040519889968980890152516080604089015260c088019062000bf0565b925192603f19938488830301606089015262000bf0565b9251608086015251908483030160a085015262000cdc565b03601f19810184528362000c4f565b6200016c60405192828493845283019062000bf0565b600181019081811162000a8a5762000a839062000a548362000e8f565b62000a6f8960405180938851620001aa818585018d62000bcb565b62000a7b828962000d60565b528662000d60565b5062000908565b84634e487b7160e01b60005260045260246000fd5b806060602080938601015201620008f3565b3462000235576000366003190112620002355762000ace62000dd7565b6040519061032082016001600160401b038111838210176200021f5760405260189182815260005b610300811062000bb95750600092602092838101945b82811062000b955784620001558562000b2462000dd7565b6040519062000b338262000c17565b604482527f68747470733a2f2f6f7a6f6e6539623738343633366162386336653431626363858301527f6464643336646136356234663461626334323736652e6f7a6f6e6573746f72656040830152632e696f2f60e01b606083015262000e22565b6001810190818111620001f75762000bb2906200018d8362000e8f565b5062000b0c565b80606060208093850101520162000af6565b60005b83811062000bdf5750506000910152565b818101518382015260200162000bce565b9060209162000c0b8151809281855285808601910162000bcb565b601f01601f1916010190565b608081019081106001600160401b038211176200021f57604052565b604081019081106001600160401b038211176200021f57604052565b601f909101601f19168101906001600160401b038211908210176200021f57604052565b6001600160401b0381116200021f57601f01601f191660200190565b81601f82011215620002355780359062000ca98262000c73565b9262000cb9604051948562000c4f565b828452602083830101116200023557816000926020809301838601378301015290565b908082519081815260208091019281808460051b8301019501936000915b84831062000d0b5750505050505090565b909192939495848062000d2b600193601f198682030187528a5162000bf0565b980193019301919493929062000cfa565b6040519062000d4b8262000c33565b6006825265223930b3b7b760d11b6020830152565b805182101562000d755760209160051b010190565b634e487b7160e01b600052603260045260246000fd5b6040519062000d9a8262000c33565b60048252632634b7b760e11b6020830152565b6040519062000dbc8262000c33565b600c82526b135858da1a5b9948109d5b1b60a21b6020830152565b6040519062000de68262000c33565b600782526613995bdb9b1a5d60ca1b6020830152565b6040519062000e0b8262000c33565b60088252674d6f6e616c69736160c01b6020830152565b62000e7d620009e39362000e8c936040519362000e3f8562000c17565b8452602084019081526040840191622625a0835260608501908152620009fa604051978896602080890152516080604089015260c088019062000bf0565b03601f19810183528262000c4f565b90565b801562000f4757600081805b62000f2d575062000eac8162000c73565b9162000ebc604051938462000c4f565b81835280601f1962000ece8462000c73565b01926020933685870137905b62000ee55750505090565b8015620001f757600019018091600a9160308383068101809111620001f757865182101562000d755760f81b6001600160f81b03191660001a90860185015304908162000eda565b906000198114620001f7576001600a910191048062000e9b565b5060405162000f568162000c33565b60018152600360fc1b60208201529056fe608060405234620006575762004839803803806200001d8162000685565b92833981019060a081830312620006575780516001600160401b03919082811162000657578362000050918301620006ab565b926020808301518481116200065757826200006d918501620006ab565b93604084015160608501518281116200065757850194601f908582880112156200065757865195848711620006415760059787891b8780620000b181840162000685565b809b81520191830101928084116200065757888301915b8483106200065c575050505050608001519460018060a01b0386168096036200065757875184811162000641576002546001998a82811c9216801562000636575b8883101462000620578185849311620005cb575b508790858311600114620005615760009262000555575b5050600019600383901b1c191690891b176002555b8515620005435760018060a01b03199260049633858954161788556003948554161784558860105589518581116200052e576013548a81811c9116801562000523575b888210146200050e57848111620004c4575b5086848211600114620004565781908b9c60009c9b9c926200044a575b505060001982871b1c191690891b176013559697965b601a556000985b620001ee575b60405161411b90816200071e8239f35b8051891015620004445760128054898101908181116200042f576801000000000000000092838210156200041a5782815582821015620004055760005287600020015581518a1015620003f057858a891b83010151906011805491821015620003c6578a8201808255821015620003db57600052866000200190805190868211620003c65782548b81811c91168015620003bb575b89821014620003a6578581116200035d575b508790858311600114620002f6576000919083620002ea575b505060001982871b1c1916908a1b1790555b6000198914620002d5579787019787620001d8565b601186634e487b7160e01b6000525260246000fd5b015190503880620002ae565b90601f1983169184600052896000209260005b81811062000347575090848e95949392106200032e575b505050811b019055620002c0565b015160001983891b60f8161c1916905538808062000320565b828401518555938e0193928b01928b0162000309565b8360005288600020868085018d1c8201928b86106200039c575b018c1c01908c905b8281106200038f57505062000295565b60008155018c906200037f565b9250819262000377565b60228a634e487b7160e01b6000525260246000fd5b90607f169062000283565b604189634e487b7160e01b6000525260246000fd5b603289634e487b7160e01b6000525260246000fd5b603287634e487b7160e01b6000525260246000fd5b60328a634e487b7160e01b6000525260246000fd5b60418a634e487b7160e01b6000525260246000fd5b601189634e487b7160e01b6000525260246000fd5b620001de565b015190503880620001bb565b601f1982169b6013600052886000209c60005b818110620004ae5750918c9d91848e9d9e95941062000495575b505050811b01601355979697620001d1565b015160001983891b60f8161c1916905538808062000483565b828401518f559d8d019d928a01928a0162000469565b601360005287600020858084018c1c8201928a851062000504575b018b1c01908b905b828110620004f75750506200019e565b60008155018b90620004e7565b92508192620004df565b602289634e487b7160e01b6000525260246000fd5b90607f16906200018c565b604188634e487b7160e01b6000525260246000fd5b60405163e6c4247b60e01b8152600490fd5b01519050388062000134565b908b9350601f198316916002600052896000209260005b8b828210620005b457505084116200059a575b505050811b0160025562000149565b015160001960f88460031b161c191690553880806200058b565b8385015186558f9790950194938401930162000578565b909150600260005287600020858085018c1c8201928a861062000616575b918d9186959493018d1c01915b828110620006065750506200011d565b600081558594508d9101620005f6565b92508192620005e9565b634e487b7160e01b600052602260045260246000fd5b91607f169162000109565b634e487b7160e01b600052604160045260246000fd5b600080fd5b825189811162000657578a916200067984848094890101620006ab565b815201920191620000c8565b6040519190601f01601f191682016001600160401b038111838210176200064157604052565b919080601f84011215620006575782516001600160401b0381116200064157602090620006e1601f8201601f1916830162000685565b92818452828287010111620006575760005b8181106200070957508260009394955001015290565b8581018301518482018401528201620006f356fe60806040526004361015610018575b361561001657005b005b60003560e01c8062fdd58e146102f757806301ffc9a7146102f257806302fe5305146102ed57806306eb36db146102e857806306fdde03146102e35780630dccc9ad146102de5780630e89341c146102d957806312065fe0146102d457806318dcfd71146102cf5780631f185d16146102ca5780632796f7c6146102c55780632defa859146102c05780632eb2c2d6146102bb578063339459a6146102b65780633b9b7955146102b15780634622ab03146102ac5780634e1273f4146102a75780635718e17b146102a25780635fac2d9d1461029d5780636c51797b1461029857806378a89567146102935780637eb1a7381461028e57806381fbf0a5146102895780638da5cb5b14610284578063a1f7f5391461027f578063a22cb4651461027a578063abbbf8d714610275578063af48452614610270578063b505c66d1461026b578063b90306ad14610266578063c3c916d914610261578063c54e44b01461025c578063c85700fb14610257578063d878fe1014610252578063e01ad5fd1461024d578063e0a9bc2b14610248578063e834a83414610243578063e985e9c51461023e578063edd38c0114610239578063f242432a14610234578063f356eedb1461022f578063f526f68a1461022a578063f9ffedb714610225578063fac333ac14610220578063fcf563681461021b5763fdc10bc90361000e576118ff565b6118d6565b611897565b611879565b6117f2565b6117d4565b611721565b6116d2565b61167a565b61165c565b611641565b6115c6565b61158e565b611479565b611440565b611422565b611322565b611296565b611265565b6111c6565b61111e565b6110b4565b61108b565b61106d565b610f54565b610f2c565b610f0e565b610ef0565b610eb0565b610df5565b610d5c565b610cdc565b610cc3565b610ba8565b610b0a565b610abf565b6109fc565b6109de565b6109c2565b610836565b6107a4565b6106d6565b61055f565b6104e3565b61037f565b61032e565b6001600160a01b031690565b6001600160a01b0381160361031957565b600080fd5b610104359061032c82610308565b565b3461031957604036600319011261031957602061036460043561035081610308565b60243560005260008352604060002061192a565b54604051908152f35b6001600160e01b031981160361031957565b3461031957602036600319011261031957602060043561039e8161036d565b63ffffffff60e01b16636cdb3d1360e11b81149081156103dc575b81156103cb575b506040519015158152f35b6301ffc9a760e01b149050386103c0565b6303a24d0760e21b811491506103b9565b634e487b7160e01b600052604160045260246000fd5b604081019081106001600160401b0382111761041e57604052565b6103ed565b602081019081106001600160401b0382111761041e57604052565b601f909101601f19168101906001600160401b0382119082101761041e57604052565b6040519061016082016001600160401b0381118382101761041e57604052565b6001600160401b03811161041e57601f01601f191660200190565b81601f82011215610319578035906104b382610481565b926104c1604051948561043e565b8284526020838301011161031957816000926020809301838601378301015290565b34610319576020366003190112610319576004356001600160401b0381116103195761051390369060040161049c565b61051b613c47565b1561054d576008546001600160a01b0316330361053b5761001690612352565b60405163ea8e4eb560e01b8152600490fd5b604051634ee2123760e11b8152600490fd5b346103195760003660031901126103195761058061057b613d3a565b612e12565b601954810390811161059757602090604051908152f35b61196c565b90600182811c921680156105cc575b60208310146105b657565b634e487b7160e01b600052602260045260246000fd5b91607f16916105ab565b90604051918260008254926105ea8461059c565b9081845260019485811690816000146106575750600114610614575b505061032c9250038361043e565b9093915060005260209081600020936000915b81831061063f57505061032c93508201013880610606565b85548884018501529485019487945091830191610627565b91505061032c94506020925060ff191682840152151560051b8201013880610606565b60005b83811061068d5750506000910152565b818101518382015260200161067d565b906020916106b68151809281855285808601910161067a565b601f01601f1916010190565b9060206106d392818152019061069d565b90565b34610319576000806003193601126107a157604051816013546106f88161059c565b808452906001908181169081156107795750600114610732575b61072e846107228188038261043e565b604051918291826106c2565b0390f35b60138352602094506000805160206140c68339815191525b828410610766575050508161072e936107229282010193610712565b805485850187015292850192810161074a565b61072e96506107229450602092508593915060ff191682840152151560051b82010193610712565b80fd5b34610319576000806003193601126107a157604051816002546107c68161059c565b8084529060019081811690811561077957506001146107ef5761072e846107228188038261043e565b60028352602094506000805160206140668339815191525b828410610823575050508161072e936107229282010193610712565b8054858501870152928501928101610807565b346103195760203660031901126103195760006004358072184f03e93ff9f4daa797ed6e38ed64bf6a1f0160401b808210156109b4575b506904ee2d6d415b85acef8160201b808310156109a5575b50662386f26fc1000080831015610996575b506305f5e10080831015610987575b5061271080831015610978575b506064821015610968575b600a8092101561095e575b6001908160216108da828701612158565b95860101905b610928575b60405161072e906107228161091a6109098a610903602085016120cd565b90612141565b64173539b7b760d91b815260050190565b03601f19810183528261043e565b600019019083906f181899199a1a9b1b9c1cb0b131b232b360811b8282061a835304918215610959579190826108e0565b6108e5565b91600101916108c9565b91906064600291049101916108be565b600491939204910191386108b3565b600891939204910191386108a6565b60109193920491019138610897565b60209193920491019138610885565b60409350810491503861086d565b3461031957600036600319011261031957602047604051908152f35b34610319576000366003190112610319576020601c54604051908152f35b346103195760208060031936011261031957610a6f600435610a1d81610308565b6005546040516001600160a01b03928316858201528481529116610a4082610403565b60405190610a4d82610403565b601182527069735369676e657228616464726573732960781b85830152613df0565b919080610ab5575b15610aa3578181610a919261072e945183010191016130f5565b60405190151581529081906020820190565b604051633204506f60e01b8152600490fd5b5080825114610a77565b3461031957602036600319011261031957610ad8613c47565b1561054d576008546001600160a01b0316330361053b57600435601b55005b6001600160a01b03909116815260200190565b34610319576000366003190112610319576014546040516001600160a01b039091168152602090f35b6001600160401b03811161041e5760051b60200190565b81601f8201121561031957803591610b6183610b33565b92610b6f604051948561043e565b808452602092838086019260051b820101928311610319578301905b828210610b99575050505090565b81358152908301908301610b8b565b346103195760a03660031901126103195760048035610bc681610308565b602435610bd281610308565b6001600160401b039060443582811161031957610bf29036908601610b4a565b9060643583811161031957610c0a9036908701610b4a565b9260843590811161031957610c22903690870161049c565b936001600160a01b03808216903382141580610ca1575b610c8257831615610c6a5715610c53576100169550611ad3565b604051626a0d4560e21b8152600081880152602490fd5b604051632bfa23e760e11b8152600081890152602490fd5b60405163711bec9160e11b815280610c9d8533838d01611a57565b0390fd5b5081600052600160205260ff610cbb33604060002061192a565b541615610c39565b34610319576000366003190112610319576100166138a0565b34610319576000366003190112610319576003546040516001600160a01b039091168152602090f35b634e487b7160e01b600052603260045260246000fd5b601154811015610d3657601160005260206000200190600090565b610d05565b60125415610d36576012600090815260008051602061408683398151915291565b346103195760203660031901126103195760043560115481101561031957601160005261072e90610d9c906000805160206140a6833981519152016105d6565b60405191829160208352602083019061069d565b90815180825260208080930193019160005b828110610dd0575050505090565b835185529381019392810192600101610dc2565b9060206106d3928181520190610db0565b34610319576040366003190112610319576004356001600160401b038082116103195736602383011215610319578160040135610e3181610b33565b92610e3f604051948561043e565b81845260209160248386019160051b8301019136831161031957602401905b828210610e9757856024358681116103195761072e91610e85610e8b923690600401610b4a565b906119b2565b60405191829182610de4565b8380918335610ea581610308565b815201910190610e5e565b3461031957602036600319011261031957600435601154811015610d3657601160005261072e90610d9c906000805160206140a6833981519152016105d6565b34610319576000366003190112610319576020601b54604051908152f35b34610319576000366003190112610319576020601654604051908152f35b34610319576000366003190112610319576020601254604051908152f35b8015150361031957565b346103195760c036600319011261031957600435610f7181610308565b602435610f7d81610308565b6044356064359060843592610f9184610f4a565b60a4356001600160401b03811161031957610fb090369060040161049c565b936001600160a01b03908282161561105b578187161561105b5715611051579061102c61101d6110459695949360065416610fe96130dd565b9060405190610ff782610403565b6014825273616c6c6f77466f7263655472616e73666572282960601b6020830152613dc5565b602080825183010191016130f5565b15159560ff199660ff88601e5416911617601e5561310a565b601e5416601e55600080f35b506100169461310a565b60405163e6c4247b60e01b8152600490fd5b34610319576000366003190112610319576020601a54604051908152f35b34610319576000366003190112610319576004546040516001600160a01b039091168152602090f35b3461031957600036600319011261031957602061111660018060a01b03600954166040516110e181610403565b601381527267657464656c656761746f72436f756e74282960681b848201526040519161110d83610423565b60008352613eeb565b604051908152f35b346103195760403660031901126103195760043561113b81610308565b60243561114781610f4a565b6001600160a01b0382169182156111ae5761116f90336000526001602052604060002061192a565b9015159060ff1981541660ff83161790556040519081527f17307eab39ab6107e8899845ad3d59bd9653f200f220920489ca2b5937696c3160203392a3005b60405162ced3e160e81b815260006004820152602490fd5b3461031957602080600319360112610319576001600160401b03600435818111610319573660238201121561031957806004013561120381610b33565b92611211604051948561043e565b818452848401906024809360051b8501019336851161031957838101925b85841061123f57610016876121aa565b833583811161031957889161125a839288369187010161049c565b81520193019261122f565b3461031957602036600319011261031957602061128c60043561128781610308565b613cb9565b6040519015158152f35b610120366003190112610319576001600160401b03600435818111610319576112c390369060040161049c565b602435828111610319576112db90369060040161049c565b90604435928311610319576112f761001693369060040161049c565b6084359261130484610308565b61130c61031e565b9360e4359360c4359360a435936064359261293f565b346103195760203660031901126103195760043561133e613c47565b1561054d576008546001600160a01b0316330361053b576004602061136c6113676003546102fc565b6102fc565b6040516311be646b60e21b815292839182905afa801561141d5760008084819493829483916113ef575b505af16113a1611e2c565b5015610aa3577fcdcc745fe377b103b45fa0cec23ae3ef93d6fc6a84a01f0d18c40b354dd1d5d86113ea6113d9611367600e546102fc565b604051938452929081906020820190565b0390a2005b611410915060203d8111611416575b611408818361043e565b8101906131eb565b38611396565b503d6113fe565b611e0d565b34610319576000366003190112610319576020601d54604051908152f35b3461031957602036600319011261031957602061146760043561146281610308565b613fdc565b6040516001600160a01b039091168152f35b60a03660031901126103195760043561149181610308565b60243560443560018060a01b038060075416604051916114d181871693846020820152602081526114c181610403565b33936114cb612600565b90613e6b565b160361053b571561105b576114e461291c565b601a5490601b5493818501908186116105975761151e6115198461072e9861151461157196611577991015612632565b612213565b601b55565b61091a61152a306128b4565b9561153c61153782612678565b610d1b565b509061154c6113676003546102fc565b9160405196879563b505c66d60e01b60208801526084359360643593602489016127af565b82613f5a565b506115826001601055565b60405191829182610af7565b34610319576020366003190112610319576115a7613c47565b1561054d576008546001600160a01b0316330361053b57600435601a55005b3461031957602036600319011261031957602061128c6004356115e881610308565b6009546040516001600160a01b0392831685820152848152911661160b82610403565b6040519061161882610403565b6018825277697364656c656761746f724e6f646528616464726573732960401b85830152613eaf565b3461031957600036600319011261031957602061128c613c47565b34610319576000366003190112610319576020601954604051908152f35b3461031957604036600319011261031957602060ff6116c660043561169e81610308565b602435906116ab82610308565b6001600160a01b03166000908152600185526040902061192a565b54166040519015158152f35b346103195760203660031901126103195760206116f460043561146281610308565b6001600160a01b0381161515908161171157506040519015158152f35b61171b9150613cb9565b386103c0565b346103195760a03660031901126103195760043561173e81610308565b60243561174a81610308565b6084356001600160401b0381116103195761176990369060040161049c565b906001600160a01b0383163381141590816117b1575b5061179557610016926064359160443591611a71565b60405163711bec9160e11b815280610c9d853360048401611a57565b9050600052600160205260ff6117cb33604060002061192a565b5416153861177f565b34610319576000366003190112610319576020601754604051908152f35b346103195760403660031901126103195760043561180f81610308565b6024356001600160401b0381116103195761182e90369060040161049c565b6001600160a01b038281161561105b57611846613c47565b1561054d5761185433613cb9565b90811561186b575b501561053b5761001691613026565b60085416331490503861185c565b34610319576000366003190112610319576020601854604051908152f35b34610319576020366003190112610319576004356012548110156103195760126000526000805160206140868339815191520154604051908152602090f35b34610319576000366003190112610319576015546040516001600160a01b039091168152602090f35b34610319576000366003190112610319576020611116613d3a565b6000526000602052604060002090565b9060018060a01b0316600052602052604060002090565b611957916000526000602052604060002061192a565b5490565b908152602081019190915260400190565b634e487b7160e01b600052601160045260246000fd5b60001981146105975760010190565b805115610d365760200190565b8051821015610d365760209160051b010190565b91909180518351808203611a3b5750508051906119ce82610b33565b916119dc604051938461043e565b8083526119eb601f1991610b33565b0190602091368385013760005b8151811015611a335780611a1e611a2e9260051b85808287010151918a01015190611941565b611a28828761199e565b52611982565b6119f8565b509193505050565b610c9d604051928392635b05999160e01b84526004840161195b565b6001600160a01b0391821681529116602082015260400190565b92939290916001600160a01b0380841615611aba57821615611aa25761032c94611a9a91611d6f565b929091611ad3565b604051626a0d4560e21b815260006004820152602490fd5b604051632bfa23e760e11b815260006004820152602490fd5b91939290611ae46001865114613291565b6001600160a01b038381168015159081611d58575b50611b50575b611b0b838784876134b5565b8116611b19575b5050505050565b8451600103611b3f57602080611b359601519201519233611f4a565b3880808080611b12565b611b4b94919233612096565b611b35565b601654601954809111611b64575b50611aff565b611b77611b73601e5460ff1690565b1590565b15611d3c5750611bfc611bf7611b73611bbf611b946007546102fc565b60405190611bb782611ba98c60208301610af7565b03601f19810184528361043e565b6114cb612600565b611bcc85821615156132d9565b611be0611bd888611991565b51151561331c565b611be86130dd565b90611bf161335a565b90613eaf565b61337e565b611cb1611c07613d3a565b611c27611c1382612e12565b611c1e8115156133bd565b60195490612687565b90611c336006546102fc565b90611c73611c6b611c53611c456130dd565b611c4d6133fa565b86613eeb565b93611c5c6130dd565b90611c65613422565b90613eeb565b601c54612213565b811015611d29575b50601d5481611c93611c8c89611991565b5183612213565b11611d0f575b50508015159081611cfb575b81611ce7575b5061344f565b611cce611cc9611cc085611991565b51601954612213565b601955565b611ce1611cdc601d54611982565b601d55565b38611b5e565b9050611cf285611991565b51111538611cab565b9050611d0685611991565b51151590611ca5565b611d1891612687565b611d2186611991565b523880611c99565b601c55611d366000601d55565b38611c7b565b611cc9611d5391611d4c86611991565b5190612213565b611ce1565b9050611d686113676015546102fc565b1438611af9565b9160405192600184526020840152604083019160018352606084015260808301604052565b9081602091031261031957516106d38161036d565b909260a0926106d39594600180861b031683526000602084015260408301526060820152816080820152019061069d565b91926106d395949160a094600180871b03809216855216602084015260408301526060820152816080820152019061069d565b6040513d6000823e3d90fd5b60405190611e2682610423565b60008252565b3d15611e57573d90611e3d82610481565b91611e4b604051938461043e565b82523d6000602084013e565b606090565b9293919093843b611e6e575050505050565b602091611e91604051948593849363f23a6e6160e01b9889865260048601611da9565b038160006001600160a01b0388165af160009181611f1a575b50611ee35782611eb8611e2c565b8051919082611edc57604051632bfa23e760e11b815280610c9d8460048301610af7565b9050602001fd5b6001600160e01b03191603611efd57503880808080611b12565b604051632bfa23e760e11b8152908190610c9d9060048301610af7565b611f3c91925060203d8111611f43575b611f34818361043e565b810190611d94565b9038611eaa565b503d611f2a565b939290949194853b611f5f575b505050505050565b611f82602093604051958694859463f23a6e6160e01b998a875260048701611dda565b038160006001600160a01b0388165af160009181611fc4575b50611fa95782611eb8611e2c565b6001600160e01b03191603611efd5750388080808080611f57565b611fdd91925060203d8111611f4357611f34818361043e565b9038611f9b565b926120136106d395936120219360018060a01b031686526000602087015260a0604087015260a0860190610db0565b908482036060860152610db0565b91608081840391015261069d565b93906106d39593612013916120219460018060a01b03809216885216602087015260a0604087015260a0860190610db0565b9293919093843b612073575050505050565b602091611e91604051948593849363bc197c8160e01b9889865260048601611fe4565b939290949194853b6120aa57505050505050565b611f82602093604051958694859463bc197c8160e01b998a87526004870161202f565b600254600092916120dd8261059c565b9160019081811690811561212e57506001146120f857505050565b9091929350600260005260209081600020906000915b85831061211d57505050500190565b80548584015291830191810161210e565b60ff191683525050811515909102019150565b906121546020928281519485920161067a565b0190565b9061216282610481565b61216f604051918261043e565b8281528092612180601f1991610481565b0190602036910137565b8115612194570490565b634e487b7160e01b600052601260045260246000fd5b906121b3613c47565b1561054d576008546001600160a01b0316330361053b5760005b825181101561220e576012549060018201809211610597576121f161220992612220565b6122046121fe828661199e565b516124fc565b611982565b6121cd565b509050565b9190820180921161059757565b601254600160401b81101561041e576001810180601255811015610d365760126000526000805160206140868339815191520155565b601f8111612262575050565b6000906002825260208220906020601f850160051c830194106122a0575b601f0160051c01915b82811061229557505050565b818155600101612289565b9092508290612280565b601f81116122b6575050565b6000906013825260208220906020601f850160051c830194106122f4575b601f0160051c01915b8281106122e957505050565b8181556001016122dd565b90925082906122d4565b90601f811161230c57505050565b600091825260208220906020601f850160051c83019410612348575b601f0160051c01915b82811061233d57505050565b818155600101612331565b9092508290612328565b80519091906001600160401b03811161041e576123798161237460025461059c565b612256565b602080601f83116001146123b557508192936000926123aa575b50508160011b916000199060031b1c191617600255565b015190503880612393565b6002600052601f19831694909190600080516020614066833981519152926000905b87821061240f5750508360019596106123f6575b505050811b01600255565b015160001960f88460031b161c191690553880806123eb565b806001859682949686015181550195019301906123d7565b80519091906001600160401b03811161041e5761244e8161244960135461059c565b6122aa565b602080601f831160011461248a575081929360009261247f575b50508160011b916000199060031b1c191617601355565b015190503880612468565b6013600052601f198316949091906000805160206140c6833981519152926000905b8782106124e45750508360019596106124cb575b505050811b01601355565b015160001960f88460031b161c191690553880806124c0565b806001859682949686015181550195019301906124ac565b60115490600160401b82101561041e5760019081830180601155831015610d3657601160005280516000805160206140a683398151915290930192906020906001600160401b03831161041e5761255d83612557875461059c565b876122fe565b81601f8411600114612596575092829391839260009461258b575b50501b916000199060031b1c1916179055565b015192503880612578565b919083601f1981166125ad88600052602060002090565b946000905b888383106125e657505050106125cd575b505050811b019055565b015160001960f88460031b161c191690553880806125c3565b8587015188559096019594850194879350908101906125b2565b6040519061260d82610403565b601682527567657455736572546f53746f7228616464726573732960501b6020830152565b1561263957565b60405162461bcd60e51b81526020600482015260176024820152761bdc98cc4c4d4d4b9cdd5c1c1b1e4b989c995858da1959604a1b6044820152606490fd5b60001981019190821161059757565b9190820391821161059757565b600254600092916126a48261059c565b9081815260019283811690816000146126fe57506001146126c457505050565b9092935060026000526020928360002092846000945b8386106126ea5750505050010190565b8054858701830152940193859082016126da565b91935050602093945060ff191683830152151560051b010190565b906000929180549161272a8361059c565b91828252600193848116908160001461278c575060011461274c575b50505050565b90919394506000526020928360002092846000945b838610612778575050505001019038808080612746565b805485870183015294019385908201612761565b9294505050602093945060ff191683830152151560051b01019038808080612746565b94909795919692936101208087526000906013546127cc8161059c565b80928a0152600190818116908160001461288c5750600114612841575b5050869798996128068261010099612814940360208c0152612694565b9089820360408b0152612719565b60608801999099526001600160a01b03948516608088015260a087015260c086015260e085015216910152565b6013600090815292506020906000805160206140c68339815191525b8385106128775750505050860161014001896128066127e9565b8054858c01610140015293820193810161285d565b60ff1916610140808c019190915292151560051b8a0190920192508b915061280690506127e9565b6e5af43d82803e903d91602b57fd5bf390763d602d80600a3d3981f3363d3d373d3d3d363d7300000062ffffff8260881c161760005260781b17602052603760096000f0906001600160a01b0382161561290a57565b60405163b06ebf3d60e01b8152600490fd5b60026010541461292d576002601055565b604051633ee5aeb560e01b8152600490fd5b612a1b96936129e26129e7926129dd6129ec96956129d8612a169a612a4a9f8d9f9d9061299b6129ba9261297161291c565b6001600160a01b03906129929061298b8584161515612a66565b1515612aab565b84161515612aea565b6129b56129af6113676113676003546102fc565b15612b2d565b61361d565b6129c26138a0565b6129d36129ce33613cb9565b612b70565b613d77565b612352565b612427565b612220565b6124fc565b6129ff6129fa6004546102fc565b612bb6565b612a0885601655565b612a1183601855565b601755565b601c55565b612a266004546102fc565b90612a3c612a32610d3b565b90549060031b1c90565b612a44611e19565b92612bd8565b601480546001600160a01b0319163317905561032c6001601055565b15612a6d57565b60405162461bcd60e51b81526020600482015260166024820152751bdc98cc4c4d4d4b9a195e18985cd94b99985a5b195960521b6044820152606490fd5b15612ab257565b60405162461bcd60e51b815260206004820152601060248201526f6f7263313135352e7174792e7a65726f60801b6044820152606490fd5b15612af157565b60405162461bcd60e51b81526020600482015260146024820152736f7263313135352e6163636f756e742e7a65726f60601b6044820152606490fd5b15612b3457565b60405162461bcd60e51b81526020600482015260146024820152731bdc98cc4c4d4d4b985b1c9958591e4b9a5b9a5d60621b6044820152606490fd5b15612b7757565b60405162461bcd60e51b81526020600482015260176024820152761bdc98cc4c4d4d4b9d5b9cd958dd5c994b99985a5b1959604a1b6044820152606490fd5b601580546001600160a01b0319166001600160a01b0392909216919091179055565b92916001600160a01b03841691908215611aba57612bf591611d6f565b91600190612c0582845114613291565b8251845190818103611a3b57505081806000905b612ca6575b50835103612c7c5760006020840151600080516020614046833981519152612c52602088015160405191829133958361195b565b0390a45b815103612c72579060208061032c959301519101519133611e5c565b61032c9333612061565b6000604051600080516020614026833981519152339180612c9e898983613490565b0390a4612c56565b8451811015612cee5780612ce89160051b612ce1612cd98b612cd4602080868d010151958d0101519461191a565b61192a565b918254612213565b9055611982565b81612c19565b612c1e565b60405190612d0082610403565b600882526773797374656d282960c01b6020830152565b91908260c0910312610319578151612d2e81610f4a565b916020810151612d3d81610f4a565b916040820151612d4c81610f4a565b916060810151612d5b81610f4a565b9160a06080830151612d6c81610f4a565b9201516106d381610f4a565b60405190612d8582610403565b601b82527a6765744e6674506f6f6c2875696e743235362c75696e743235362960281b6020830152565b9190826080910312610319578151916020810151916060604083015192015190565b90670de0b6b3a76400009182810292818404149015171561059757565b908160640291606483040361059757565b8181029291811591840414171561059757565b612e1d6006546102fc565b90612e38612e29612cf3565b612e31611e19565b9084613dc5565b612e4c602091828082518301019101612d17565b94505050505061301d5760009060185490604051612eaf612ea182612e7f86868301919060206040840193600181520152565b0392612e93601f199485810183528261043e565b612e9b612d78565b89613dc5565b838082518301019101612daf565b612ebc84889b959b612213565b891061301057670de0b6b3a76400009981612fb8575b50505050612f269291612f1991612f0b6040519283612eff89888301919060206040840193600281520152565b0390810184528361043e565b612f13612d78565b90613dc5565b8051810182019101612daf565b959192909386612f4c575b5050505050905004601654808211612f47575090565b905090565b612f6c92612f61612f7d9893612f6793612213565b90612687565b61218a565b9081612f8857505050600090612213565b803880808080612f31565b612fb292612fac612fa6612fa193612fa1601654612dd1565b612dff565b91612dee565b9061218a565b90612213565b91612fdb612f2697969492612f67612fd5612f19989c968c612213565b8d612687565b9182612ff0575050505b959181939438612ed2565b61300b935090612fac612fa6612fa193612fa1601654612dd1565b612fe5565b5050505050505091505090565b50505060165490565b6015549091906001600160a01b0390811690831681146130d85760125415610d36576012600052600080516020614086833981519152546130679082611941565b92836130735750505050565b6130b2816130c0956130bb94600160ff19601e541617601e55613094610d3b565b939054604051946130a486610423565b6000865260031b1c91611a71565b6129d381612bb6565b613200565b6130cf60ff19601e5416601e55565b38808080612746565b505050565b6040516130e981610423565b60008152906000368137565b9081602091031261031957516106d381610f4a565b94939291908160005260006020528261312787604060002061192a565b54106131ac576001600160a01b03861633141580613179575b61315d579161032c9495916130bb93613157611e19565b93611a71565b60405163711bec9160e11b815280610c9d883360048401611a57565b506131a7611b736131a033612cd48a60018060a01b03166000526001602052604060002090565b5460ff1690565b613140565b60405162461bcd60e51b81526020600482015260176024820152761bdc98cc4c4d4d4b9d1c985b9cd9995c8b99985a5b1959604a1b6044820152606490fd5b9081602091031261031957516106d381610308565b80511561326a57600460206132196113676003546102fc565b6040516343af1d9d60e01b815292839182905afa801561141d5761326a92611ba99260009261326d575b50604051639e6c4bd160e01b60208201529261326591849190602483016106c2565b613f5a565b50565b61326591925061328a9060203d811161141657611408818361043e565b9190613243565b1561329857565b60405162461bcd60e51b81526020600482015260196024820152781bdc98cc4c4d4d4b98985d18da0b9b9bdd0b985b1b1bddd959603a1b6044820152606490fd5b156132e057565b60405162461bcd60e51b81526020600482015260146024820152731bdc98cc4c4d4d4b9cdd1bdc8b9a5b9d985b1a5960621b6044820152606490fd5b1561332357565b60405162461bcd60e51b815260206004820152600f60248201526e6f7263313135352e6c65737351747960881b6044820152606490fd5b6040519061336782610403565b600882526769734c6f636b282960c01b6020830152565b1561338557565b60405162461bcd60e51b815260206004820152601060248201526f6f7263313135352e696e61637469766560801b6044820152606490fd5b156133c457565b60405162461bcd60e51b815260206004820152600e60248201526d1bdc98cc4c4d4d4b9b1bd8dad95960921b6044820152606490fd5b6040519061340782610403565b600c82526b6d61784e465453656e64282960a01b6020830152565b6040519061342f82610403565b60118252704e465453656e645065724379636c65282960781b6020830152565b1561345657565b60405162461bcd60e51b815260206004820152601260248201527137b93198989a9a973634b6b4ba1737bb32b960711b6044820152606490fd5b90916134a76106d393604084526040840190610db0565b916020818403910152610db0565b9392918051835190818103611a3b57505060005b815181101561359c57600581901b82810160209081015191860101516001600160a01b039291859089851661352b575b61350c948216613511575b505050611982565b6134c9565b61352191612cd4612cd99261191a565b9055388481613504565b919293905061353d89612cd48461191a565b54838110613565579186918461350c9695940361355d8c612cd48561191a565b5594506134f9565b6040516303dee4c560e01b81526001600160a01b038b16600482015260248101919091526044810184905260648101839052608490fd5b5080519394939192916001036135ec576020908101519101516040516001600160a01b03938416949093169233926000805160206140468339815191529282916135e791908361195b565b0390a4565b6040516001600160a01b03938416949093169233926000805160206140268339815191529282916135e79183613490565b6001600160a01b0390811690811561105b57600380546001600160a01b031981168417909155167fe939feee179e631422bcc8f6e6d7d908cb3f8af38f5372f17c77e15aea5c80ee600080a3565b6001600160a01b039091169052565b61387e61014061032c926136b361369182516102fc565b600580546001600160a01b0319166001600160a01b0392909216919091179055565b6136e56136c360208301516102fc565b600680546001600160a01b0319166001600160a01b0392909216919091179055565b6137176136f560408301516102fc565b600780546001600160a01b0319166001600160a01b0392909216919091179055565b61374961372760608301516102fc565b600880546001600160a01b0319166001600160a01b0392909216919091179055565b61377b61375960808301516102fc565b600980546001600160a01b0319166001600160a01b0392909216919091179055565b6137ad61378b60a08301516102fc565b600a80546001600160a01b0319166001600160a01b0392909216919091179055565b6137df6137bd60c08301516102fc565b600b80546001600160a01b0319166001600160a01b0392909216919091179055565b6138116137ef60e08301516102fc565b600c80546001600160a01b0319166001600160a01b0392909216919091179055565b6138446138226101008301516102fc565b600d80546001600160a01b0319166001600160a01b0392909216919091179055565b6138776138556101208301516102fc565b600e80546001600160a01b0319166001600160a01b0392909216919091179055565b01516102fc565b600f80546001600160a01b0319166001600160a01b0392909216919091179055565b6138ae6113676003546102fc565b60408051634bf9c0ad60e11b81529160049190602080858581855afa94851561141d57600095613c28575b50825163cfbffe5360e01b81529281848681865afa93841561141d57600094613c09575b50805163ab6e844f60e01b815282818781875afa90811561141d57600091613bec575b508151630536340960e21b815283818881885afa90811561141d57600091613bcf575b50825163d1f956b160e01b81529084828981895afa91821561141d57600092613bb0575b508351631cc3bfab60e31b81529285848a818a5afa93841561141d57600094613b91575b50845163e09d394d60e01b81529486868b818b5afa95861561141d57600096613b72575b5080516314ac1b5960e21b815298878a8c818c5afa97881561141d576139f79a600099613b53575b50808c8451809d819263013cf08b60e01b83528201906000602083019252565b03818d5afa998a1561141d578c9b60009b613b34575b50818451809d635e09dbe760e01b825281845afa9b8c1561141d5760009c613b13575b50819084519d8e8092635506ee0b60e11b82525afa9b8c1561141d5760009c613af4575b50613a5d610461565b9c613a68908e61366b565b8c0190613a749161366b565b8a0190613a809161366b565b613a8d9060608a0161366b565b613a9a906080890161366b565b613aa79060a0880161366b565b613ab49060c0870161366b565b613ac19060e0860161366b565b613acf90610100850161366b565b613add90610120840161366b565b613aeb90610140830161366b565b61032c9061367a565b81613b0c929d508d3d1061141657611408818361043e565b9a38613a54565b82919c50613b2d90823d841161141657611408818361043e565b9b90613a30565b613b4c919b50823d841161141657611408818361043e565b9938613a0d565b81613b6b929a503d8b1161141657611408818361043e565b97386139d7565b613b8a919650873d891161141657611408818361043e565b94386139af565b613ba9919450863d881161141657611408818361043e565b923861398b565b613bc8919250853d871161141657611408818361043e565b9038613967565b613be69150843d861161141657611408818361043e565b38613943565b613c039150833d851161141657611408818361043e565b38613920565b613c21919450823d841161141657611408818361043e565b92386138fd565b81613c409296503d871161141657611408818361043e565b93386138d9565b600554604051613c8f916001600160a01b031690613c6481610403565b6008815267697353616665282960c01b602082015260405191613c8683610423565b60008352613df0565b9080613cae575b15610aa357806020806106d3935183010191016130f5565b506020815114613c96565b613d1360018060a01b038060055416604051916020941684830152838252613ce082610403565b60405190613ced82610403565b601582527469735365637572654261736528616464726573732960581b85830152613df0565b9080613d30575b15610aa357816106d392825183010191016130f5565b5081815114613d1a565b6006546040516106d3916001600160a01b031690613d5781610403565b600681526569416765282960d01b60208201526040519161110d83610423565b6001600160a01b0390811690811561105b57600480546001600160a01b031981168417909155167f8292fce18fa69edf4db7b94ea2e58241df0ae57f97e0a6c9b29067028bf92d76600080a3565b90613dd09291613df0565b9060009015613ddd575090565b6040519150613deb82610423565b815290565b803b15613e5257600092839263ffffffff60e01b90602081519101201690613e426024604051809360208201958652613e32815180926020868601910161067a565b810103600481018452018261043e565b51915afa613e4e611e2c565b9091565b505050600090604051613e6481610423565b6000815290565b9291613e7991600094613df0565b9080613ea4575b613e875750565b90915060208180518101031261031957602001516102fc81610308565b506020815114613e80565b9291613ebd91600094613df0565b9080613ee0575b613ecb5750565b6106d3919250602080825183010191016130f5565b506020815114613ec4565b9291613ef991600094613df0565b9080613f1e575b613f075750565b909150602081805181010312610319576020015190565b506020815114613f00565b906020825192015163ffffffff60e01b908181169360048110613f4b57505050565b60040360031b82901b16169150565b6001600160a01b0381161561105b57600080918351908260208601915af190613f81611e2c565b9115613f8b575090565b805160009190600411613fd657613fa29150613f29565b815115613fb25750805190602001fd5b604051630870274d60e21b81526001600160e01b0319919091166004820152602490fd5b50613fa2565b803b6000613fe982610481565b92613ff7604051948561043e565b82845260208401903c602d81511061401357602a015160601c90565b60405163baf3f0f760e01b8152600490fdfe4a39dc06d4c0dbc64b70af90fd698a233a518aa5d07e595d983b8c0526c8f7fbc3d58168c5ae7397731d063d5bbf3d657854427343f4c083240f7aacaa2d0f62405787fa12a823e0f2b7631cc41b3ba8828b3321ca811111fa75cd3aa3bb5acebb8a6a4669ba250d26cd7a459eca9d215f8307e33aebe50379bc5a3617ec344431ecc21a745e3968a04e9570e4425bc18fa8019c68028196b546d1669c200c6866de8ffda797e3de9c05e8fc57b3bf0ec28a930d40b0d285d93c06501cf6a090a2646970667358221220830b955fd7ae1b18eaedc39df9885957df035ca89e6b6aa1f879018d7f1de21a64736f6c63430008140033a26469706673582212206787f093a36e67c80127850911c3b633a566b9169f9b88f849f2b81a9a63331c64736f6c63430008140033","linkReferences":{}},"methodIdentifiers":{"deployNFTCat()":"ed4fe597","deployNFTLion()":"1f281210","deployNFTMachineBull()":"5f3ed283","deployNFTMonalisa()":"2e417d8e","deployNFTNeonlit()":"61358ffe","hexb()":"bc9df3d7","nFTCat()":"a0f0e54f","nFTLion()":"1a1575a5","nFTMachineBull()":"de04dae4","nFTMonalisa()":"209d197a","nFTNeonlit()":"1697db05","nFTProxy()":"a4ac704e","nftFactory()":"d63843cd"},"id":38}