{"abi":[{"type":"constructor","inputs":[{"name":"_hex","type":"address","internalType":"address"},{"name":"_price","type":"address","internalType":"address"},{"name":"_old741","type":"address","internalType":"address"}],"stateMutability":"nonpayable"},{"type":"function","name":"dAOAssembly","inputs":[],"outputs":[{"name":"","type":"address","internalType":"address"}],"stateMutability":"view"},{"type":"function","name":"daocore","inputs":[],"outputs":[{"name":"","type":"address","internalType":"address"}],"stateMutability":"view"},{"type":"function","name":"nested741","inputs":[],"outputs":[{"name":"","type":"address","internalType":"address"}],"stateMutability":"view"},{"type":"function","name":"old741","inputs":[],"outputs":[{"name":"","type":"address","internalType":"address"}],"stateMutability":"view"},{"type":"function","name":"price","inputs":[],"outputs":[{"name":"","type":"address","internalType":"address"}],"stateMutability":"view"}],"bytecode":{"object":"0x6080346101b757601f618b6e38819003918201601f19168301926001600160401b03929091838511838610176101a15781606092849260409788528339810103126101b75761004d816101bc565b6100648461005d602085016101bc565b93016101bc565b9160018060a01b03199273c0cee8b561cc4f60869776ca5b0b7a295e04f5af846001541617600155855161162b9586820196828810828911176101a15761032c83396001600160a01b039485168088526000979092908190036020019088f080156101835785168660035416176003558751614f72808201908282108483111761018d576020918391613bfc833985815203019088f080156101835785168660025416176002558751916122a5808401928484109084111761016f579183916020936119578439815203019086f080156101655790838092168560045416176004551683600154161760015516908254161790555161015b90816101d18239f35b86513d87823e3d90fd5b634e487b7160e01b89526041600452602489fd5b88513d89823e3d90fd5b634e487b7160e01b8a52604160045260248afd5b634e487b7160e01b600052604160045260246000fd5b600080fd5b51906001600160a01b03821682036101b75756fe608080604052600436101561001357600080fd5b600090813560e01c90816314837455146100fc5750806314d8d024146100d357806345cff900146100aa5780635540c5ac146100815763a035b1fe1461005857600080fd5b3461007e578060031936011261007e57546040516001600160a01b039091168152602090f35b80fd5b503461007e578060031936011261007e576001546040516001600160a01b039091168152602090f35b503461007e578060031936011261007e576002546040516001600160a01b039091168152602090f35b503461007e578060031936011261007e576004546040516001600160a01b039091168152602090f35b9050346101215781600319360112610121576003546001600160a01b03168152602090f35b5080fdfea26469706673582212204c7aadf709277dbd2d75fb0007ee3c031878eddeaee9735e72f737397fddb07b64736f6c6343000814003360803461009757601f61162b38819003918201601f19168301916001600160401b0383118484101761009c5780849260209460405283398101031261009757516001600160a01b038116908190036100975780156100855760018060a01b0319338160015416176001556000541617600055600060125560405161157890816100b38239f35b60405163e6c4247b60e01b8152600490fd5b600080fd5b634e487b7160e01b600052604160045260246000fdfe60806040526004361015610018575b361561001657005b005b60003560e01c806312065fe0146101385780631f185d161461013357806325924f341461012e578063339459a6146101295780633b9b79551461012457806361b7fbd91461011f5780638da5cb5b1461011a57806392bc4be214610115578063a1f7f53914610110578063af4845261461010b578063b90306ad14610106578063c2b5843f14610101578063c54e44b0146100fc578063c89b84fd146100f7578063dbac26e9146100f2578063e01ad5fd146100ed578063e0a9bc2b146100e85763fdc10bc90361000e57610da2565b610d1c565b610ca1565b610c5f565b610c08565b610b9a565b610b1a565b610a3e565b6109c7565b610966565b6108c7565b61089e565b6107fe565b6107cb565b61026e565b61023d565b610176565b3461015457600036600319011261015457602047604051908152f35b600080fd5b6001600160a01b031690565b6001600160a01b0381160361015457565b3461015457602080600319360112610154576101e960043561019781610165565b6002546040516001600160a01b039283168582015284815291166101ba82610dd3565b604051906101c782610dd3565b601182527069735369676e657228616464726573732960781b858301526113ed565b919080610233575b1561022157818161020b9261021d9451830101910161136b565b60405190151581529081906020820190565b0390f35b604051633204506f60e01b8152600490fd5b50808251146101f1565b3461015457602036600319011261015457602061026460043561025f81610165565b610f1a565b6040519015158152f35b346101545760003660031901126101545761029261028d600054610159565b610159565b604051634bf9c0ad60e11b815290602082600481845afa9182156105fb576000926107aa575b5060405163cfbffe5360e01b815291602083600481855afa9283156105fb57600093610789575b5060405163ab6e844f60e01b815290602082600481865afa9182156105fb57600092610768575b50604051630536340960e21b815291602083600481875afa9283156105fb57600093610747575b5060405163d1f956b160e01b815292602084600481885afa9384156105fb57600094610726575b50604051631cc3bfab60e31b815293602085600481895afa9485156105fb57600095610705575b5060405163e09d394d60e01b81526020816004818a5afa9081156105fb576000916106e6575b506040516314ac1b5960e21b81526020816004818b5afa9081156105fb576000916106c7575b5060405163013cf08b60e01b815260006004820152916020836024818c5afa9283156105fb576000936106a6575b50604051635e09dbe760e01b8152976020896004818d5afa9485156105fb57600499600096610685575b50604051635506ee0b60e11b8152996020908b90818e5afa9687156105fb5760049a600098610664575b50604051636402742760e01b81529a6020908c90818f5afa9889156105fb5760049b60009a610643575b5060208d6040519d8e80926330125cf560e01b82525afa9a8b156105fb578d60049d60009d610621575b506020906040519e8f80926324768d9160e01b82525afa9c8d156105fb5760009d610600575b506040516313b92d3560e31b81529d8e9081905a92600491602094fa9d8e156105fb5760009e6105ca575b506104f7610e2c565b9e8f916105049083611068565b6105119060208301611068565b6040019061051e91611068565b61052b9060608e01611068565b6105389060808d01611068565b6105459060a08c01611068565b6105529060c08b01611068565b61055f9060e08a01611068565b61056d906101008901611068565b61057b906101208801611068565b610589906101408701611068565b610597906101608601611068565b6105a5906101808501611068565b6105b3906101a08401611068565b6105c1906101c08301611068565b61001690611077565b6105ed919e5060203d6020116105f4575b6105e58183610e09565b810190611047565b9c386104ee565b503d6105db565b61105c565b61061a919d5060203d6020116105f4576105e58183610e09565b9b386104c3565b6020919d5061063c90823d84116105f4576105e58183610e09565b9c9061049d565b61065d919a5060203d6020116105f4576105e58183610e09565b9838610473565b61067e91985060203d6020116105f4576105e58183610e09565b9638610449565b61069f91965060203d6020116105f4576105e58183610e09565b943861041f565b6106c091935060203d6020116105f4576105e58183610e09565b91386103f5565b6106e0915060203d6020116105f4576105e58183610e09565b386103c7565b6106ff915060203d6020116105f4576105e58183610e09565b386103a1565b61071f91955060203d6020116105f4576105e58183610e09565b933861037b565b61074091945060203d6020116105f4576105e58183610e09565b9238610354565b61076191935060203d6020116105f4576105e58183610e09565b913861032d565b61078291925060203d6020116105f4576105e58183610e09565b9038610306565b6107a391935060203d6020116105f4576105e58183610e09565b91386102df565b6107c491925060203d6020116105f4576105e58183610e09565b90386102b8565b34610154576000366003190112610154576000546040516001600160a01b039091168152602090f35b8015150361015457565b346101545760403660031901126101545760043561081b81610165565b60243590610828826107f4565b6005546001600160a01b0391908216330361088c57166000526011602052604060002060ff1981541660ff8315151617905560001461087a57601254600019811461087557600101601255005b611031565b60125480156108755760001901601255005b60405163ea8e4eb560e01b8152600490fd5b34610154576000366003190112610154576001546040516001600160a01b039091168152602090f35b34610154576000366003190112610154576003546001600160a01b039081169061090b6108f2610e7a565b9260409384519161090283610dee565b60008352611504565b506004541690610919611380565b8151602081019190915260028183015281815260608101906001600160401b038211818310176109615760209361095a928452610954610ff8565b90611504565b9051908152f35b610dbd565b346101545760003660031901126101545760206109bf60018060a01b036006541660405161099381610dd3565b601381527267657464656c656761746f72436f756e74282960681b848201526040519161090283610dee565b604051908152f35b3461015457602080600319360112610154576101e96004356109e881610165565b6002546040516001600160a01b03928316858201528481529116610a0b82610dd3565b60405190610a1882610dd3565b601582527469735365637572654261736528616464726573732960581b858301526113ed565b3461015457602036600319011261015457600554600435906001600160a01b0316330361088c5760009060046020610a7961028d8554610159565b6040516311be646b60e21b815292839182905afa80156105fb5783808481949382948391610afc575b505af1610aad6113bd565b5015610221577fcdcc745fe377b103b45fa0cec23ae3ef93d6fc6a84a01f0d18c40b354dd1d5d8610af6610ae561028d600b54610159565b604051938452929081906020820190565b0390a280f35b610b14915060203d81116105f4576105e58183610e09565b38610aa2565b3461015457600036600319011261015457602060018060a01b03610b91610b548260035416610b47610e7a565b6040519161090283610dee565b809260045416610b89610b65611380565b6040805188810192835260208301959095528491015b03601f198101845283610e09565b610954610ff8565b50604051908152f35b3461015457602036600319011261015457600435610bb781610165565b803b6000610bc482610e4c565b92610bd26040519485610e09565b82845260208401903c602d815110610bf657602a602091015160601c604051908152f35b60405163baf3f0f760e01b8152600490fd5b346101545760003660031901126101545760206109bf60018060a01b03610c358160035416610b47610e7a565b9060045416610b89610c45611380565b604080518781019283526020830195909552849101610b7b565b3461015457602036600319011261015457600435610c7c81610165565b60018060a01b03166000526011602052602060ff604060002054166040519015158152f35b34610154576020366003190112610154576020610264600435610cc381610165565b6006546040516001600160a01b03928316858201528481529116610ce682610dd3565b60405190610cf382610dd3565b6018825277697364656c656761746f724e6f646528616464726573732960401b858301526114c8565b3461015457600036600319011261015457600254604051610d75916001600160a01b031690610d4a81610dd3565b6008815267697353616665282960c01b602082015260405191610d6c83610dee565b600083526113ed565b9080610d97575b156102215761020b8160208061021d9451830101910161136b565b506020815114610d7c565b346101545760003660031901126101545760206109bf611380565b634e487b7160e01b600052604160045260246000fd5b604081019081106001600160401b0382111761096157604052565b602081019081106001600160401b0382111761096157604052565b601f909101601f19168101906001600160401b0382119082101761096157604052565b604051906101e082016001600160401b0381118382101761096157604052565b6001600160401b03811161096157601f01601f191660200190565b60405190610e7482610dee565b60008252565b60405190610e8782610dd3565b600c82526b72616e6b666f7244414f282960a01b6020830152565b60405190610eaf82610dd3565b601682527567657455736572546f53746f7228616464726573732960501b6020830152565b60405190610ee182610dd3565b600682526572616e6b282960d01b6020830152565b60405190610f0382610dd3565b600882526769734c6f636b282960c01b6020830152565b6003546001600160a01b039190610f35908316610b47610e7a565b610f73610f43600454610159565b604080516001600160a01b03861660208201529190610f659083908101610b7b565b610f6d610ea2565b90611484565b92831615610ff057610faf610f98610f89610ed4565b610f91610e67565b9086611504565b93610fa1610ef6565b610fa9610e67565b916114c8565b9210159182610fe7575b5081610fc3575090565b6001600160a01b031660009081526011602052604090205460ff1615905090565b90565b15915038610fb9565b505050600090565b6040519061100582610dd3565b601d82527f67657472616e6b636f756e742875696e743235362c75696e74323536290000006020830152565b634e487b7160e01b600052601160045260246000fd5b908160209103126101545751610fe481610165565b6040513d6000823e3d90fd5b6001600160a01b039091169052565b6113476101c0611369926110b061108e8251610159565b600280546001600160a01b0319166001600160a01b0392909216919091179055565b6110e26110c06020830151610159565b600380546001600160a01b0319166001600160a01b0392909216919091179055565b6111146110f26040830151610159565b600480546001600160a01b0319166001600160a01b0392909216919091179055565b6111466111246060830151610159565b600580546001600160a01b0319166001600160a01b0392909216919091179055565b6111786111566080830151610159565b600680546001600160a01b0319166001600160a01b0392909216919091179055565b6111aa61118860a0830151610159565b600780546001600160a01b0319166001600160a01b0392909216919091179055565b6111dc6111ba60c0830151610159565b600880546001600160a01b0319166001600160a01b0392909216919091179055565b61120e6111ec60e0830151610159565b600980546001600160a01b0319166001600160a01b0392909216919091179055565b61124161121f610100830151610159565b600a80546001600160a01b0319166001600160a01b0392909216919091179055565b611274611252610120830151610159565b600b80546001600160a01b0319166001600160a01b0392909216919091179055565b6112a7611285610140830151610159565b600c80546001600160a01b0319166001600160a01b0392909216919091179055565b6112da6112b8610160830151610159565b600d80546001600160a01b0319166001600160a01b0392909216919091179055565b61130d6112eb610180830151610159565b600e80546001600160a01b0319166001600160a01b0392909216919091179055565b61134061131e6101a0830151610159565b600f80546001600160a01b0319166001600160a01b0392909216919091179055565b0151610159565b601080546001600160a01b0319166001600160a01b0392909216919091179055565b565b908160209103126101545751610fe4816107f4565b600354604051610fe4916001600160a01b03169061139d81610dd3565b600681526569416765282960d01b60208201526040519161090283610dee565b3d156113e8573d906113ce82610e4c565b916113dc6040519384610e09565b82523d6000602084013e565b606090565b9190823b1561146b578051906020918263ffffffff60e01b92012016916040519180830193845281519160005b83811061145757505050918161144760248260009795968897018783820152036004810184520182610e09565b51915afa6114536113bd565b9091565b81810183015185820160240152820161141a565b50505060009060405161147d81610dee565b6000815290565b9291611492916000946113ed565b90806114bd575b6114a05750565b909150602081805181010312610154576020015161015981610165565b506020815114611499565b92916114d6916000946113ed565b90806114f9575b6114e45750565b610fe49192506020808251830101910161136b565b5060208151146114dd565b9291611512916000946113ed565b9080611537575b6115205750565b909150602081805181010312610154576020015190565b50602081511461151956fea2646970667358221220558ff798244e2e177e528cfbb02d03fe7cef00578cd95d56cc30c65ddca8c7d464736f6c6343000814003360803461009c57601f6122a538819003918201601f19168301916001600160401b038311848410176100a15780849260209460405283398101031261009c57516001600160a01b0381169081900361009c57801561008a5760018060a01b0319338160015416176001556000541617600055603360115560036012556040516121ed90816100b88239f35b60405163e6c4247b60e01b8152600490fd5b600080fd5b634e487b7160e01b600052604160045260246000fdfe60806040526004361015610018575b361561001657005b005b60003560e01c8063013cf08b1461019857806312065fe0146101935780631f185d161461018e578063339459a6146101895780633b9b7955146101845780634072265b1461017f578063438596321461017a5780635c622a0e1461017557806365153c4b14610170578063709df8d91461016b5780638da5cb5b1461016657806398e527d314610161578063995e43391461015c578063a1f7f53914610157578063af48452614610152578063b90306ad1461014d578063c54e44b014610148578063c7f758a814610143578063c9d27afe1461013e578063d153356b14610139578063e01ad5fd14610134578063e0a9bc2b1461012f578063fdc10bc91461012a5763ffa734f00361000e5761133d565b6112f5565b6112da565b6112b3565b611239565b6110cf565b611050565b610f9e565b610ec2565b610dfb565b610dd8565b610d54565b610d36565b610d0d565b610cce565b610bab565b610b55565b610b03565b610ac6565b610a9d565b610540565b61050f565b6104e2565b610425565b6013548110156101bc576013600052600c602060002091020190600090565b634e487b7160e01b600052603260045260246000fd5b90600182811c92168015610202575b60208310146101ec57565b634e487b7160e01b600052602260045260246000fd5b91607f16916101e1565b906000929180549161021d836101d2565b91828252600193848116908160001461027f575060011461023f575b50505050565b90919394506000526020928360002092846000945b83861061026b575050505001019038808080610239565b805485870183015294019385908201610254565b9294505050602093945060ff191683830152151560051b01019038808080610239565b634e487b7160e01b600052604160045260246000fd5b604081019081106001600160401b038211176102d357604052565b6102a2565b602081019081106001600160401b038211176102d357604052565b601f909101601f19168101906001600160401b038211908210176102d357604052565b6001600160a01b031690565b9061033d610336926040519384809261020c565b03836102f3565b565b60005b8381106103525750506000910152565b8181015183820152602001610342565b9060209161037b8151809281855285808601910161033f565b601f01601f1916010190565b9b9997959392909e9d9c9a9896949e8c6101c08091528d016103a891610362565b6001600160a01b0390921660208d015260408c01528a810360608c01526103ce91610362565b9b60808a015260a089015260c088015260e087015261010086015261012085016103f89115159052565b15156101408401526001600160a01b031661016083015215156101808201526101a00161033d9115159052565b346104dd5760203660031901126104dd576004356013548110156104dd5761044c9061019d565b506040519061045f82610336818461020c565b6104d961046f6001830154610316565b60028301549061048160038501610322565b946004850154946005810154966006820154916007810154600a6008830154920154936040519a8b9a8b9560ff8860b81c169a60ff8960b01c169a60018060a01b038a60101c169a60ff808c60081c169b1699610387565b0390f35b600080fd5b346104dd5760003660031901126104dd57602047604051908152f35b6001600160a01b038116036104dd57565b346104dd5760203660031901126104dd576020610536600435610531816104fe565b611e7d565b6040519015158152f35b346104dd5760003660031901126104dd5761056461055f600054610316565b610316565b604051634bf9c0ad60e11b815290602082600481845afa9182156108cd57600092610a7c575b5060405163cfbffe5360e01b815291602083600481855afa9283156108cd57600093610a5b575b5060405163ab6e844f60e01b815290602082600481865afa9182156108cd57600092610a3a575b50604051630536340960e21b815291602083600481875afa9283156108cd57600093610a19575b5060405163d1f956b160e01b815292602084600481885afa9384156108cd576000946109f8575b50604051631cc3bfab60e31b815293602085600481895afa9485156108cd576000956109d7575b5060405163e09d394d60e01b81526020816004818a5afa9081156108cd576000916109b8575b506040516314ac1b5960e21b81526020816004818b5afa9081156108cd57600091610999575b5060405163013cf08b60e01b815260006004820152916020836024818c5afa9283156108cd57600093610978575b50604051635e09dbe760e01b8152976020896004818d5afa9485156108cd57600499600096610957575b50604051635506ee0b60e11b8152996020908b90818e5afa9687156108cd5760049a600098610936575b50604051636402742760e01b81529a6020908c90818f5afa9889156108cd5760049b60009a610915575b5060208d6040519d8e80926330125cf560e01b82525afa9a8b156108cd578d60049d60009d6108f3575b506020906040519e8f80926324768d9160e01b82525afa9c8d156108cd5760009d6108d2575b506040516313b92d3560e31b81529d8e9081905a92600491602094fa9d8e156108cd5760009e61089c575b506107c9611aba565b9e8f916107d69083611ada565b6107e39060208301611ada565b604001906107f091611ada565b6107fd9060608e01611ada565b61080a9060808d01611ada565b6108179060a08c01611ada565b6108249060c08b01611ada565b6108319060e08a01611ada565b61083f906101008901611ada565b61084d906101208801611ada565b61085b906101408701611ada565b610869906101608601611ada565b610877906101808501611ada565b610885906101a08401611ada565b610893906101c08301611ada565b61001690611ae9565b6108bf919e5060203d6020116108c6575b6108b781836102f3565b810190611a96565b9c386107c0565b503d6108ad565b611aae565b6108ec919d5060203d6020116108c6576108b781836102f3565b9b38610795565b6020919d5061090e90823d84116108c6576108b781836102f3565b9c9061076f565b61092f919a5060203d6020116108c6576108b781836102f3565b9838610745565b61095091985060203d6020116108c6576108b781836102f3565b963861071b565b61097191965060203d6020116108c6576108b781836102f3565b94386106f1565b61099291935060203d6020116108c6576108b781836102f3565b91386106c7565b6109b2915060203d6020116108c6576108b781836102f3565b38610699565b6109d1915060203d6020116108c6576108b781836102f3565b38610673565b6109f191955060203d6020116108c6576108b781836102f3565b933861064d565b610a1291945060203d6020116108c6576108b781836102f3565b9238610626565b610a3391935060203d6020116108c6576108b781836102f3565b91386105ff565b610a5491925060203d6020116108c6576108b781836102f3565b90386105d8565b610a7591935060203d6020116108c6576108b781836102f3565b91386105b1565b610a9691925060203d6020116108c6576108b781836102f3565b903861058a565b346104dd5760003660031901126104dd576000546040516001600160a01b039091168152602090f35b346104dd5760203660031901126104dd576004356000198101908111610afe576005610af360209261019d565b500154604051908152f35b611699565b346104dd5760403660031901126104dd57600435602435610b23816104fe565b6000198201918211610afe57610b4960ff916009610b4260209561019d565b50016117f4565b54166040519015158152f35b346104dd5760203660031901126104dd576004356000198101908111610afe57600a610b8260409261019d565b50015460ff825191818160b01c161515835260b81c1615156020820152f35b801515036104dd57565b346104dd5760403660031901126104dd57600435602435610bcb81610ba1565b610bd433611e7d565b15610cbc576005610bec610be784611722565b61019d565b50610c8c610c7f600b8301610c1a610c15610c11610c0a33856117f4565b5460ff1690565b1590565b61188c565b610c78600a850154610c3260ff8260b81c16156117b0565b610c4160ff8260081c16611731565b610c4d60ff82166118cd565b610c64610c58611efa565b6007880154111561190f565b60101c6001600160a01b031633141561184b565b33906117f4565b805460ff19166001179055565b01610c978154611951565b809155601254148015610cb4575b610cab57005b61001691611a20565b508015610ca5565b60405163ea8e4eb560e01b8152600490fd5b346104dd5760403660031901126104dd57600435602435610cee816104fe565b6000198201918211610afe57610b4960ff91600b610b4260209561019d565b346104dd5760003660031901126104dd576001546040516001600160a01b039091168152602090f35b346104dd5760003660031901126104dd576020601354604051908152f35b346104dd5760203660031901126104dd576004356000198101908111610afe57610d7d9061019d565b506004810154600682015460078301546008840154600a9094015460408051948552602085019390935291830152606082019290925260ff60b083901c81161515608083015260b89290921c909116151560a082015260c090f35b346104dd5760003660031901126104dd576020610df3611fce565b604051908152f35b346104dd576020806003193601126104dd57610e72600435610e1c816104fe565b6002546040516001600160a01b03928316858201528481529116610e3f826102b8565b60405190610e4c826102b8565b601582527469735365637572654261736528616464726573732960581b85830152612048565b919080610eb8575b15610ea6578181610e94926104d994518301019101611df6565b60405190151581529081906020820190565b604051633204506f60e01b8152600490fd5b5080825114610e7a565b346104dd5760203660031901126104dd57600554600435906001600160a01b03163303610cbc5760009060046020610efd61055f8554610316565b6040516311be646b60e21b815292839182905afa80156108cd5783808481949382948391610f80575b505af1610f31612018565b5015610ea6577fcdcc745fe377b103b45fa0cec23ae3ef93d6fc6a84a01f0d18c40b354dd1d5d8610f7a610f6961055f600b54610316565b604051938452929081906020820190565b0390a280f35b610f98915060203d81116108c6576108b781836102f3565b38610f26565b346104dd5760203660031901126104dd57600435610fbb816104fe565b803b6000610fc882611ddb565b92610fd660405194856102f3565b82845260208401903c602d815110610ffa57602a602091015160601c604051908152f35b60405163baf3f0f760e01b8152600490fd5b9491909361102860a0959897949860c0885260c0880190610362565b97600180871b0380931660208801526040870152166060850152151560808401521515910152565b346104dd5760203660031901126104dd576004356000198101908111610afe576110799061019d565b5060018060a01b036104d981600184015416916002840154936110aa6110b1600a830154926040519283809261020c565b03826102f3565b60405195869560ff84169460ff8560081c169460101c16928761100c565b346104dd5760403660031901126104dd576004356024356110ef81610ba1565b6110f833611e7d565b8015611216575b611108906116dd565b611114610be783611722565b50600a810190600882549361112d60ff86841c16611731565b611144600784015461113d611efa565b1115611771565b61115460ff8660b81c16156117b0565b6111746009840195610c6461116f610c11610c0a338b6117f4565b61180b565b6000811561121057506001905b61119360ff60048601931683546116d0565b825560009061120357506111c2610c7f6001965b6111b960ff60068801991689546116d0565b885533906117f4565b54910154809110928315936111f7575b5050816111ea575b506111e157005b6100169061197d565b5460ff16159050386111da565b541015915038806111d2565b610c7f6111c291966111a7565b90611181565b5061121f611e0b565b80156110ff575061110861123233611f40565b90506110ff565b346104dd5760403660031901126104dd57611252611e0b565b156112a15733300361126c57600435601155602435601255005b60405162461bcd60e51b815260206004820152600d60248201526c64616f2e66616b652e636f726560981b6044820152606490fd5b604051634ee2123760e11b8152600490fd5b346104dd5760203660031901126104dd5760206105366004356112d5816104fe565b611f40565b346104dd5760003660031901126104dd576020610536611e0b565b346104dd5760003660031901126104dd576020610df3611efa565b9181601f840112156104dd578235916001600160401b0383116104dd57602083818601950101116104dd57565b346104dd5760c03660031901126104dd576001600160401b036004358181116104dd5761136e903690600401611310565b909160243561137c816104fe565b6064358281116104dd57611394903690600401611310565b9160a435946113a286610ba1565b6001600160a01b0382161561156c5760135490600160401b8210156102d3576113d260019283810160135561019d565b509581116102d3576113ee816113e888546101d2565b8861157e565b6000601f82116001146114f2579261145d94928261144c93600a9998966114d99c6000926114e7575b5050600019600383901b1c191690821b1787555b860180546001600160a01b0319166001600160a01b03909216919091179055565b6044356002850155600384016115d2565b61148361147c61147761146e611fce565b601154906116af565b6116c2565b6064900490565b600882015561149b608435611496611efa565b6116d0565b60078201550180543360101b62010000600160b01b0316610100600160b01b0319909116176101001760ff191660ff92151592909216919091179055565b601354604051908152602090f35b013590503880611417565b601f1982169061150788600052602060002090565b91815b81811061155657509383600a999896936114d99c839461144c9761145d9b991061153c575b505050811b01875561142b565b0135600019600384901b60f8161c1916905538808061152f565b8b8301358455928501926020928301920161150a565b60405163e6c4247b60e01b8152600490fd5b90601f811161158c57505050565b600091825260208220906020601f850160051c830194106115c8575b601f0160051c01915b8281106115bd57505050565b8181556001016115b1565b90925082906115a8565b9092916001600160401b0381116102d3576115f7816115f184546101d2565b8461157e565b6000601f82116001146116315781929394600092611626575b50508160011b916000199060031b1c1916179055565b013590503880611610565b601f1982169461164684600052602060002090565b91805b878110611681575083600195969710611667575b505050811b019055565b0135600019600384901b60f8161c1916905538808061165d565b90926020600181928686013581550194019101611649565b634e487b7160e01b600052601160045260246000fd5b81810292918115918404141715610afe57565b9060638201809211610afe57565b91908201809211610afe57565b156116e457565b60405162461bcd60e51b815260206004820152601660248201527564616f2e6e6f6e617574682e64656c656761746f727360501b6044820152606490fd5b600019810191908211610afe57565b1561173857565b60405162461bcd60e51b815260206004820152601160248201527019185bcb9c1c9bdc0b9b9bdd195e1a5cdd607a1b6044820152606490fd5b1561177857565b60405162461bcd60e51b815260206004820152601060248201526f19185bcb9d9bdd1a5b99cb995b99195960821b6044820152606490fd5b156117b757565b60405162461bcd60e51b815260206004820152601560248201527419185bcb985b1c9958591e4b98dbdb5c1b195d1959605a1b6044820152606490fd5b9060018060a01b0316600052602052604060002090565b1561181257565b60405162461bcd60e51b815260206004820152601160248201527019185bcb985b1c9958591e4b9d9bdd1959607a1b6044820152606490fd5b1561185257565b60405162461bcd60e51b815260206004820152601260248201527119185bcb9d9bdd195c8b9c995cdd1c9a58dd60721b6044820152606490fd5b1561189357565b60405162461bcd60e51b815260206004820152601260248201527119185bcb985b1c9958591e4b9cda59db995960721b6044820152606490fd5b156118d457565b60405162461bcd60e51b815260206004820152601360248201527219185bcb9c1c9bdc0b9b5d5cdd1cda59db9959606a1b6044820152606490fd5b1561191657565b60405162461bcd60e51b815260206004820152601360248201527264616f2e6265666f72652e646561646c696e6560681b6044820152606490fd5b6000198114610afe5760010190565b805460ff60b01b191691151560b01b60ff60b01b16919091179055565b610be761198991611722565b50600a8101805460ff60b81b1916600160b81b17815560ff906119c0600484015460088501548110159081611a12575b5082611960565b5460b01c16806119fd575b6119d25750565b806119e360016119fa930154610316565b6119f4600360028401549301610322565b90612132565b50565b50611a0b60038201546101d2565b15156119cb565b9050600685015410386119b9565b611a2f610be7611a6792611722565b50600a8101805460ff60b81b1916600160b81b178155909280611a84575b80611a73575b611a5d9082611960565b5460b01c60ff1690565b806119fd576119d25750565b506004830154600684015410611a53565b50600483015460088401541115611a4d565b908160209103126104dd5751611aab816104fe565b90565b6040513d6000823e3d90fd5b604051906101e082016001600160401b038111838210176102d357604052565b6001600160a01b039091169052565b611db96101c061033d92611b22611b008251610316565b600280546001600160a01b0319166001600160a01b0392909216919091179055565b611b54611b326020830151610316565b600380546001600160a01b0319166001600160a01b0392909216919091179055565b611b86611b646040830151610316565b600480546001600160a01b0319166001600160a01b0392909216919091179055565b611bb8611b966060830151610316565b600580546001600160a01b0319166001600160a01b0392909216919091179055565b611bea611bc86080830151610316565b600680546001600160a01b0319166001600160a01b0392909216919091179055565b611c1c611bfa60a0830151610316565b600780546001600160a01b0319166001600160a01b0392909216919091179055565b611c4e611c2c60c0830151610316565b600880546001600160a01b0319166001600160a01b0392909216919091179055565b611c80611c5e60e0830151610316565b600980546001600160a01b0319166001600160a01b0392909216919091179055565b611cb3611c91610100830151610316565b600a80546001600160a01b0319166001600160a01b0392909216919091179055565b611ce6611cc4610120830151610316565b600b80546001600160a01b0319166001600160a01b0392909216919091179055565b611d19611cf7610140830151610316565b600c80546001600160a01b0319166001600160a01b0392909216919091179055565b611d4c611d2a610160830151610316565b600d80546001600160a01b0319166001600160a01b0392909216919091179055565b611d7f611d5d610180830151610316565b600e80546001600160a01b0319166001600160a01b0392909216919091179055565b611db2611d906101a0830151610316565b600f80546001600160a01b0319166001600160a01b0392909216919091179055565b0151610316565b601080546001600160a01b0319166001600160a01b0392909216919091179055565b6001600160401b0381116102d357601f01601f191660200190565b908160209103126104dd5751611aab81610ba1565b600254604051611e53916001600160a01b031690611e28816102b8565b6008815267697353616665282960c01b602082015260405191611e4a836102d8565b60008352612048565b9080611e72575b15610ea65780602080611aab93518301019101611df6565b506020815114611e5a565b611ed360018060a01b038060025416604051916020941684830152838252611ea4826102b8565b60405190611eb1826102b8565b601182527069735369676e657228616464726573732960781b85830152612048565b9080611ef0575b15610ea65781611aab9282518301019101611df6565b5081815114611eda565b600354604051611aab916001600160a01b031690611f17816102b8565b600681526569416765282960d01b602082015260405191611f37836102d8565b600083526120c3565b60018060a01b0390611fa1826006541692604051906020931683820152828152611f69816102b8565b604051611f75816102b8565b6018815277697364656c656761746f724e6f646528616464726573732960401b84820152600094612048565b919080611fc4575b611fb257505090565b611aab92508082518301019101611df6565b5080825114611fa9565b600654604051611aab916001600160a01b031690611feb816102b8565b601381527267657464656c656761746f72436f756e74282960681b602082015260405191611f37836102d8565b3d15612043573d9061202982611ddb565b9161203760405193846102f3565b82523d6000602084013e565b606090565b803b156120aa57600092839263ffffffff60e01b9060208151910120169061209a602460405180936020820195865261208a815180926020868601910161033f565b81010360048101845201826102f3565b51915afa6120a6612018565b9091565b5050506000906040516120bc816102d8565b6000815290565b92916120d191600094612048565b90806120f6575b6120df5750565b9091506020818051810103126104dd576020015190565b5060208151146120d8565b906020825192015163ffffffff60e01b90818116936004811061212357505050565b60040360031b82901b16169150565b9091906001600160a01b0381161561156c57600091829184519160208601915af19061215c612018565b9115612166575090565b8051600091906004116121b15761217d9150612101565b81511561218d5750805190602001fd5b604051630870274d60e21b81526001600160e01b0319919091166004820152602490fd5b5061217d56fea2646970667358221220585b1a31b49d0f947f94a95e22611a3ce4c856787463e2c903815d1f6a0778d064736f6c634300081400336080346200009e57601f62004f7238819003918201601f19168301916001600160401b03831184841017620000a3578084926020946040528339810103126200009e57516001600160a01b038116908190036200009e5780156200008c5760018060a01b03193381600154161760015560005416176000556001601155604051614eb89081620000ba8239f35b60405163e6c4247b60e01b8152600490fd5b600080fd5b634e487b7160e01b600052604160045260246000fdfe60806040526004361015610018575b361561001657005b005b60003560e01c80629db65514610377578063033eeffb146103725780630e5fd00b1461036d57806312065fe0146103685780631bb49f02146103635780631c53c2801461035e5780631f185d16146103595780632a687c87146103545780632fefc0bf1461034f578063307673e81461034a57806332ff4eab14610345578063339459a61461034057806333b59a5b1461033b5780633a7b55b8146103365780633b9b7955146103315780633baee0ea1461032c578063419cb27b1461032757806342cc9d5714610322578063445850971461031d57806344668f23146103185780634f0f4aa914610313578063509222cd1461030e57806350db85d11461030957806361ea720814610304578063629d671e146102ff57806365d2fbd3146102fa5780636a811244146102f55780636fb412ab146102f057806376fe6c45146102eb5780637bb98498146102e657806380f85e33146102e1578063849c22ad146102dc578063896c354a146102d75780638da5cb5b146102d257806395f72f49146102cd57806398b3f215146102c8578063a1f7f539146102c3578063a89d693b146102be578063af484526146102b9578063b1c49079146102b4578063b366335e146102af578063b90306ad146102aa578063c43792e3146102a5578063c54e44b0146102a0578063c871372b1461029b578063d1e0bbc614610296578063dcb3fc4a14610291578063e01ad5fd1461028c578063e0a9bc2b14610287578063eb95c66214610282578063eb9e9e2c1461027d578063f3ca712414610278578063fd38093b146102735763fdc10bc90361000e57612c10565b612ba2565b612b76565b6129ee565b6129c2565b6129a7565b6128e0565b6127ad565b612773565b6126f6565b612688565b61265c565b612580565b6124f4565b6123c8565b612397565b6122d0565b612237565b61220b565b612195565b61216c565b61212c565b6120fd565b6120c3565b611fbd565b611f6e565b611e28565b611b23565b6117b4565b611777565b61173f565b6116b1565b61165e565b611595565b611577565b611540565b611511565b6114dd565b6110ef565b61109e565b610f7f565b610db7565b61085a565b6107e4565b610750565b610719565b61069e565b6105db565b6105a7565b6104d2565b61049d565b61044e565b6103f2565b346103ed5760203660031901126103ed57610390614b37565b156103db5761039e33614ba9565b80156103c7575b156103b557610016600435614608565b60405163ea8e4eb560e01b8152600490fd5b506005546001600160a01b031633146103a5565b604051634ee2123760e11b8152600490fd5b600080fd5b346103ed5760203660031901126103ed5760043560005260196020526020604060002054604051908152f35b6001600160a01b031690565b6001600160a01b038116036103ed57565b6001600160a01b03909116815260200190565b346103ed5760203660031901126103ed57602060043561046d8161042a565b60018060a01b03809116600052601282526040600020546000526015825260046040600020015416604051908152f35b346103ed5760003660031901126103ed57602047604051908152f35b9081526001600160a01b03909116602082015260400190565b346103ed5760203660031901126103ed576004356104ef8161042a565b60018060a01b0380600092168252601260205260408220548252601560205260406002818420015492838152601360205220541690610533604051928392836104b9565b0390f35b600052601e602052604060002090565b6000526016602052604060002090565b6000526017602052604060002090565b6000526015602052604060002090565b6000526013602052604060002090565b6000526018602052604060002090565b6000526019602052604060002090565b346103ed5760203660031901126103ed576004356000526013602052602060018060a01b0360406000205416604051908152f35b346103ed576020806003193601126103ed5761064e6004356105fc8161042a565b6002546040516001600160a01b0392831685820152848152911661061f82612c61565b6040519061062c82612c61565b601182527069735369676e657228616464726573732960781b85830152614cc2565b919080610694575b156106825781816106709261053394518301019101614b23565b60405190151581529081906020820190565b604051633204506f60e01b8152600490fd5b5080825114610656565b346103ed5760403660031901126103ed576024356106ba614b37565b156103db576106c833614ba9565b8015610705575b156103b557600090808252601a6020526040822054906004358201809211610700578252601a602052604082205580f35b612efd565b506005546001600160a01b031633146106cf565b346103ed5760203660031901126103ed576004356000526015602052602060018060a01b0360056040600020015416604051908152f35b346103ed5760203660031901126103ed5760043561076c612f2e565b6107dc6107ca600092808452601560205261079060ff600160408720015416613735565b33845260126020526107a760408520548214613735565b808452601e6020526107c560ff600260408720015460081c166139e9565b610537565b60026000918281558260018201550155565b600160115580f35b346103ed5760403660031901126103ed57602435610800614b37565b156103db5761080e33614ba9565b8015610846575b156103b557600090808252601d6020526040822054906004358201809211610700578252601d602052604082205580f35b506005546001600160a01b03163314610815565b346103ed5760003660031901126103ed5761087e61087960005461041e565b61041e565b604051634bf9c0ad60e11b815290602082600481845afa918215610be757600092610d96575b5060405163cfbffe5360e01b815291602083600481855afa928315610be757600093610d75575b5060405163ab6e844f60e01b815290602082600481865afa918215610be757600092610d54575b50604051630536340960e21b815291602083600481875afa928315610be757600093610d33575b5060405163d1f956b160e01b815292602084600481885afa938415610be757600094610d12575b50604051631cc3bfab60e31b815293602085600481895afa948515610be757600095610cf1575b5060405163e09d394d60e01b81526020816004818a5afa908115610be757600091610cd2575b506040516314ac1b5960e21b81526020816004818b5afa908115610be757600091610cb3575b5060405163013cf08b60e01b815260006004820152916020836024818c5afa928315610be757600093610c92575b50604051635e09dbe760e01b8152976020896004818d5afa948515610be757600499600096610c71575b50604051635506ee0b60e11b8152996020908b90818e5afa968715610be75760049a600098610c50575b50604051636402742760e01b81529a6020908c90818f5afa988915610be75760049b60009a610c2f575b5060208d6040519d8e80926330125cf560e01b82525afa9a8b15610be7578d60049d60009d610c0d575b506020906040519e8f80926324768d9160e01b82525afa9c8d15610be75760009d610bec575b506040516313b92d3560e31b81529d8e9081905a92600491602094fa9d8e15610be75760009e610bb6575b50610ae3612cd5565b9e8f91610af09083614822565b610afd9060208301614822565b60400190610b0a91614822565b610b179060608e01614822565b610b249060808d01614822565b610b319060a08c01614822565b610b3e9060c08b01614822565b610b4b9060e08a01614822565b610b59906101008901614822565b610b67906101208801614822565b610b75906101408701614822565b610b83906101608601614822565b610b91906101808501614822565b610b9f906101a08401614822565b610bad906101c08301614822565b61001690614831565b610bd9919e5060203d602011610be0575b610bd18183612cb2565b8101906131aa565b9c38610ada565b503d610bc7565b6131bf565b610c06919d5060203d602011610be057610bd18183612cb2565b9b38610aaf565b6020919d50610c2890823d8411610be057610bd18183612cb2565b9c90610a89565b610c49919a5060203d602011610be057610bd18183612cb2565b9838610a5f565b610c6a91985060203d602011610be057610bd18183612cb2565b9638610a35565b610c8b91965060203d602011610be057610bd18183612cb2565b9438610a0b565b610cac91935060203d602011610be057610bd18183612cb2565b91386109e1565b610ccc915060203d602011610be057610bd18183612cb2565b386109b3565b610ceb915060203d602011610be057610bd18183612cb2565b3861098d565b610d0b91955060203d602011610be057610bd18183612cb2565b9338610967565b610d2c91945060203d602011610be057610bd18183612cb2565b9238610940565b610d4d91935060203d602011610be057610bd18183612cb2565b9138610919565b610d6e91925060203d602011610be057610bd18183612cb2565b90386108f2565b610d8f91935060203d602011610be057610bd18183612cb2565b91386108cb565b610db091925060203d602011610be057610bd18183612cb2565b90386108a4565b346103ed576040806003193601126103ed57602435610dd4614b37565b15610f4057610de233614ba9565b8015610f2c575b15610f1b57600091610dfe610879845461041e565b8151809163111ea8c160e21b825281600460209384935afa918215610be7578592610efc575b506004355b84811115610e35578580f35b8351828101828152819003808252601f1991610e6691610e589060200182612cb2565b610e606147b9565b86614d81565b610e85610e7d84600052601a602052604060002090565b918254612f21565b9055865b60088110610ea1575050610e9c9061317c565b610e29565b610ef790610ed58751610ec781610ebb85898b8401611b12565b03868101835282612cb2565b610ecf6147e9565b88614d81565b610ef182610ee287610547565b90600052602052604060002090565b5561317c565b610e89565b81610f149293503d8411610be057610bd18183612cb2565b9038610e24565b815163ea8e4eb560e01b8152600490fd5b506005546001600160a01b03163314610de9565b8151634ee2123760e11b8152600490fd5b60e0810192916000915b60078310610f6857505050565b600190825181526020809101920192019190610f5b565b346103ed5760203660031901126103ed5761053360043561108c61107c60405192610fa984612c7c565b60e0368537610fca610fba82610557565b6001600052602052604060002090565b548452610fe9610fd982610557565b6002600052602052604060002090565b54602085015261100b610ffb82610557565b6003600052602052604060002090565b54604085015261102d61101d82610557565b6004600052602052604060002090565b54606085015261104f61103f82610557565b6005600052602052604060002090565b54608085015261107161106182610557565b6006600052602052604060002090565b5460a0850152610557565b6007600052602052604060002090565b5460c082015260405191829182610f51565b346103ed5760003660031901126103ed576000546040516001600160a01b039091168152602090f35b60409060031901126103ed576004356110df8161042a565b906024356110ec8161042a565b90565b346103ed57611151611100366110c7565b919061110a612f2e565b611123611115612d23565b61111d612d3b565b33614d3d565b9061116a61113a611132612d23565b61111d612d5e565b6001600160a01b0386811695909485168614612d86565b83611162610879826000541661041e565b911614612dcc565b61117583151561363b565b61117e8461175d565b541580156114d2575b6111909061367d565b6111a461119c8261175d565b5415156136c0565b6111c160056111bb6111b58461175d565b54610567565b01612e58565b604090815160209563880cdc3160e01b87830152611201602492806111e88b86830161043b565b03946111fc601f1996878101845283612cb2565b614dee565b5061121661087960046111bb6111b58961175d565b156113bf576105339561125d61123360046111bb6111b58a61175d565b865162e6724f60e21b8b820152906111fc826112513389830161043b565b03888101845283612cb2565b505b6112688661175d565b546112728a61175d565b5561128e896112896112838961175d565b54610577565b61318b565b6112a63360046112a06111b58d61175d565b0161318b565b8516141593846113ae575b6112ba8861175d565b54966112ca60056111bb8a610567565b986112e86112e360026112dc8c610567565b0154610577565b612e58565b961561137857936111fc9161133a6113469661130560095461041e565b895163e3d1d5bf60e01b948101949094526001600160a01b039687169784019788529516602087015290948591604090910190565b03908101845283612cb2565b505b6113526001601155565b519283526001600160a01b03938416602084015290921660408201529081906060820190565b506113a8936111fc9161133a61138f60095461041e565b948851968793639498d88b60e01b90850152830161043b565b50611348565b60006113b98261175d565b556112b1565b600495876113d161087960005461041e565b865163111ea8c160e21b815298899182905afa8015610be7578661141d91610533996000916114b5575b5061140f8b6112518a51948592830161043b565b611417613706565b90614d3d565b8181161515806114ab575b611433575b5061125f565b6114a49061146a8751634fb2e45d60e01b8c82015261146481611458338a830161043b565b03898101835282612cb2565b82614dee565b50865190630a3e884b60e41b8b8301526111fc82611251888201906007606060808401936000815260006020820152600060408201520152565b503861142d565b5080311515611428565b6114cc91508b3d8d11610be057610bd18183612cb2565b386113fb565b508082168314611187565b346103ed5760203660031901126103ed576004356000526015602052602060ff600160406000200154166040519015158152f35b346103ed5760203660031901126103ed5760043560005260156020526020600360406000200154604051908152f35b346103ed5760203660031901126103ed576004356000526015602052602060018060a01b0360046040600020015416604051908152f35b346103ed5760003660031901126103ed576020601f54604051908152f35b346103ed5760203660031901126103ed57600435806000526015602052604060002054601360205261053360018060a01b03806040600020541693601560205260406000209160046002840154930154166115f460056111bb84610567565b906003611616611610600161160887610567565b015460ff1690565b94610567565b0154604080519788526001600160a01b03988916602089015287019490945286166060860152909416608084015292151560a083015260c082019290925290819060e0820190565b346103ed5760203660031901126103ed5760043561167b8161042a565b60018060a01b031660005260126020526040600020546000526015602052602060ff600160406000200154166040519015158152f35b346103ed576116bf366110c7565b6116c7614b37565b156103db576116d533614ba9565b801561172b575b156103b5576116f2916116ed612f2e565b6131cb565b6000818152601560205260409020600501546001600160a01b031690611717816135db565b6001601155610533604051928392836104b9565b506005546001600160a01b031633146116dc565b346103ed5760003660031901126103ed576020601454604051908152f35b6001600160a01b0316600090815260126020526040902090565b346103ed5760203660031901126103ed576004356117948161042a565b60018060a01b031660005260126020526020604060002054604051908152f35b346103ed5760203660031901126103ed576004356117d0612f2e565b60016117e76117e28261160885610567565b613597565b6117fb6117f33361175d565b548314613735565b61180482610537565b906002908183019260ff8454818160081c1680611b09575b61182590613a87565b60101c166119e957506118448261183b86610567565b01541515613b13565b6000815b611900575b506118ac936000929150611899906001600160a01b0361187c60056111bb8661187586610567565b0154610567565b166118b6575b84546118949060101c60ff1682613bab565b610567565b0155805462ff0000191662010000179055565b6100166001601155565b6118fa6118cb60056111bb8661187586610567565b604051636f58dd0f60e11b602082015260006024820152906111fc82604481015b03601f198101845283612cb2565b50611882565b6003806119108561187589610567565b01548210156119e3578561193f611935848461192f8961187587610567565b01613498565b90549060031b1c90565b14611954575061194e9061317c565b81611848565b839250946119d9866119c6611899946119ad61199e6119356118ac9c61197f60009c6118758b610567565b01611998876119918d6118758d610567565b0154612f51565b90613498565b918461192f8a6118758a610567565b90919082549060031b91821b91600019901b1916179055565b6119d38561187585610567565b01613b5e565b945081925061184d565b5061184d565b611a5d6107ca94611a34876003611a2e8897611a6397611a18859b611a10611a7f9f610567565b015415613acc565b019788548091611a2786610567565b0155610567565b016134b5565b83546001600160a01b03611a4c60056111bb84610567565b16611acc575b505460101c60ff1690565b83613bab565b611a7461087960046111bb85610567565b611a84575b50610537565b6118ac565b6118ec611ac5916111fc611aa96112e3611aa260046111bb89610567565b9354610577565b604051630a4ce2c960e11b60208201529384916024830161043b565b5038611a79565b611add60056111bb611b0293610567565b604051636f58dd0f60e11b602082015260016024820152906111fc82604481016118ec565b5038611a52565b5080821661181c565b908152602081019190915260400190565b346103ed576040806003193601126103ed57600435611b40612f2e565b611b516117e2600161160884610567565b611b6c611b6561087960046111bb85610567565b331461386b565b611b74612fb3565b610533610100611b8860056111bb85610567565b611c8d601f5494865192611bda611bcc60209563015042f960e11b8782015280611bb860249b8c358d8401611b12565b03936111fc601f1995868101845283612cb2565b858082518301019101613e6b565b968789815193611bef88840195865190612f21565b97611bff838501998a5190612f21565b611c0f6060860191825190612f21565b90611c206080870192835190612f21565b97611c3160a08801998a5190612f21565b96611c4a611c4560c08301998a5190612f21565b61475f565b8051611dde575b508051611d9a575b508051611d4a575b508051611cfa575b50611c778651855190612f21565b611ca6575b50505050505060e086015190613f7b565b5192015192611c9c6001601155565b5192839283611b12565b61133a6111fc93611cee97611cd6611cbf600f5461041e565b97611ccc6112e38d610577565b9251905190612f21565b915197889463a9059cbb60e01b9086015284016138cb565b50388080898180611c7c565b611d4390611d0960105461041e565b6111fc611d186112e38c610577565b9251875163a9059cbb60e01b87820152938491611d37918c84016138cb565b03868101845283612cb2565b5038611c69565b611d9390611d59600c5461041e565b6111fc611d686112e38d610577565b9251885163a9059cbb60e01b88820152938491611d87918d84016138cb565b03878101845283612cb2565b5038611c61565b611dd7908a6111fc8a611251611dbd6112e3611db7600e5461041e565b95610577565b94518b5163a9059cbb60e01b8b82015295869384016138cb565b5038611c59565b611e21908b6111fc8b611e15611dfb6112e3611db7600d5461041e565b94518c5163a9059cbb60e01b8c82015295869384016138cb565b03898101845283612cb2565b508e611c51565b346103ed5760403660031901126103ed57602435600435611e47612f2e565b611e586117e2600161160884610567565b611e71611e6a6108796112e384610577565b3314613735565b611e98611e8260056111bb84610567565b611e8a613779565b611e92612d10565b91614c97565b9082611eae6020938480825183010191016137a0565b1015611ebe576100166001601155565b611f57611f6593611f306112e3611f26611f18611ef6611ee260056111bb8a610567565b956040519182918b83019190602083019252565b0395611f0a601f1997888101845283612cb2565b611f126137af565b90614c97565b8780825183010191016137d9565b9792505050610577565b9361133a611f3c612d23565b604051968793637a937b4560e11b9085015260248401613849565b6001600160a01b0316614dee565b503880806118ac565b346103ed5760203660031901126103ed576020600435611f8d8161042a565b60018060a01b03809116600052601282526040600020546000526015825260056040600020015416604051908152f35b346103ed576040806003193601126103ed5760043590611fdb614b37565b156120b357611fe933614ba9565b801561209f575b1561208f5761208c90600092808452601560205261201660ff6001848720015416613597565b8352601e60205260026120786120696118ec8487209461203d6024356001880154146138e6565b61206161204b60055461041e565b9187549051938491602083019190602083019252565b611f12613a2b565b60208082518301019101613a66565b5091019060ff801983541691151516179055565b80f35b5163ea8e4eb560e01b8152600490fd5b506005546001600160a01b03163314611ff0565b51634ee2123760e11b8152600490fd5b346103ed5760403660031901126103ed57600435600052601660205260406000206024356000526020526020604060002054604051908152f35b346103ed5760203660031901126103ed5760043560005260156020526020600260406000200154604051908152f35b346103ed5760403660031901126103ed576004356000526015602052602061215d6024356003604060002001613498565b90549060031b1c604051908152f35b346103ed5760003660031901126103ed576001546040516001600160a01b039091168152602090f35b346103ed5760403660031901126103ed576024356121b1614b37565b156103db576121bf33614ba9565b80156121f7575b156103b557600090808252601c6020526040822054906004358201809211610700578252601c602052604082205580f35b506005546001600160a01b031633146121c6565b346103ed5760203660031901126103ed57600435600052601d6020526020604060002054604051908152f35b346103ed5760003660031901126103ed57602061229960018060a01b036006541660405161226481612c61565b601381527267657464656c656761746f72436f756e74282960681b848201526040519161229083612c97565b60008352614d81565b604051908152f35b610100810192916000915b600883106122b957505050565b6001908251815260208091019201920191906122ac565b346103ed5760203660031901126103ed5761053360043561238561107c6122f56146e3565b9261231161230282610547565b60008052602052604060002090565b548452612320610fba82610547565b546020850152612332610fd982610547565b546040850152612344610ffb82610547565b54606085015261235661101d82610547565b54608085015261236861103f82610547565b5460a085015261237a61106182610547565b5460c0850152610547565b5460e0820152604051918291826122a1565b346103ed5760203660031901126103ed5760206123be6004356123b98161042a565b614ba9565b6040519015158152f35b346103ed576124a16123d9366110c7565b906123e2612f2e565b6124246123f0611115612d23565b6123fb611132612d23565b906001600160a01b039061241490821686831614612d86565b611162610879826000541661041e565b61243d61243860016116086111b58561175d565b612e11565b61249261248861247961245760056111bb6111b58761175d565b60405190612471826118ec60208201906000602083019252565b611f12612e65565b60208082518301019101612e93565b5050501515612eb5565b61249a612f6d565b33906133ba565b6124af612302601f54610547565b6124b98154612f13565b90556124c361478b565b6124d160056111bb83610567565b906124db816135db565b6124e56001601155565b610533604051928392836104b9565b346103ed5760203660031901126103ed5761250d614b37565b156103db5761251b33614ba9565b801561256c575b156103b55761252f614c2a565b601f5410612546575b610016600435601f54612ff7565b61254e614c2a565b80601f5560001981019081116107005761256790614608565b612538565b506005546001600160a01b03163314612522565b346103ed5760203660031901126103ed57600554600435906001600160a01b031633036103b557600090600460206125bb610879855461041e565b6040516311be646b60e21b815292839182905afa8015610be7578380848194938294839161263e575b505af16125ef614c67565b5015610682577fcdcc745fe377b103b45fa0cec23ae3ef93d6fc6a84a01f0d18c40b354dd1d5d8612638612627610879600b5461041e565b604051938452929081906020820190565b0390a280f35b612656915060203d8111610be057610bd18183612cb2565b386125e4565b346103ed5760203660031901126103ed57600435600052601b6020526020604060002054604051908152f35b346103ed5760203660031901126103ed576004356126a58161042a565b803b60006126b282612cf5565b926126c06040519485612cb2565b82845260208401903c602d8151106126e457602a602091015160601c604051908152f35b60405163baf3f0f760e01b8152600490fd5b60403660031901126103ed5760043561270d612f2e565b600090808252601560205261272b60ff600160408520015416613597565b8152601560205261276a60018060a01b036005604084200154166040519062a0e53360e51b60208301526024356024830152602482526111fc82612c41565b50600160115580f35b346103ed5760403660031901126103ed57600435600052601860205260406000206024356000526020526020604060002054604051908152f35b346103ed5760c03660031901126103ed576118ac6004356024356127d08161042a565b60643591612896612887608435936127e6612f2e565b6127f76117e2600161160887610567565b61280b611b6561087960046111bb88610567565b612813612fb3565b61281c85614707565b61282586614733565b61283360056111bb86610567565b601f54604051632998c0c160e21b60208201526001600160a01b039093166024840152604480359084015260648301889052608483019690965260a480359083015260c48201959095528060e481016111e8565b602080825183010191016138b5565b92816128a4575b5050614251565b6128d8916111fc61133a926128ba600b5461041e565b9260405194859163a9059cbb60e01b602084015233602484016138cb565b50388061289d565b346103ed576020806003193601126103ed5761053390600435906129038261042a565b6006546040516001600160a01b03938416838201528281529216916129639061292b81612c61565b60405161293781612c61565b6018815277697364656c656761746f724e6f646528616464726573732960401b84820152600094614cc2565b91908061299d575b612984575b505060405190151581529081906020820190565b61299692508082518301019101614b23565b3880612970565b508082511461296b565b346103ed5760003660031901126103ed5760206123be614b37565b346103ed5760203660031901126103ed57600435600052601a6020526020604060002054604051908152f35b346103ed576040806003193601126103ed5760243590600435612a0f614b37565b15610f4057612a1d33614ba9565b8015612b62575b15610f1b57612b516118ac93612aa2612b3e61133a612ae3966111fc600297612a4b612f2e565b612a5c6117e2600161160884610567565b612a72612a6d60016116088a610567565b6138e6565b86612b15612a8460056111bb84610567565b92612ac4612488612ab688518060209d8e8201906000602083019252565b0397612471601f19998a8101845283612cb2565b8b8082518301019101612e93565b612aec612ae7612ad383610537565b9d8e019e8f5460ff9060081c1690565b1590565b61392a565b612b098651938492630f77309360e31b8c85015260248401611b12565b03838101835282612cb2565b612b2060055461041e565b9351600162058cb160e41b0319888201529485913060248401613970565b91600185015580825183010191016137a0565b9055805461ff001916610100179055565b506005546001600160a01b03163314612a24565b346103ed5760203660031901126103ed57600435600052601c6020526020604060002054604051908152f35b346103ed576040806003193601126103ed57600435612bc08161042a565b60018060a01b031661053382600083815260126020528181205481526019602052818120549381526012602052818120548152601860205281812060243582526020522054925192839283611b12565b346103ed5760003660031901126103ed576020612299614c2a565b634e487b7160e01b600052604160045260246000fd5b606081019081106001600160401b03821117612c5c57604052565b612c2b565b604081019081106001600160401b03821117612c5c57604052565b60e081019081106001600160401b03821117612c5c57604052565b602081019081106001600160401b03821117612c5c57604052565b601f909101601f19168101906001600160401b03821190821017612c5c57604052565b604051906101e082016001600160401b03811183821017612c5c57604052565b6001600160401b038111612c5c57601f01601f191660200190565b60405190612d1d82612c97565b60008252565b604051612d2f81612c97565b60008152906000368137565b60405190612d4882612c61565b60078252666f776e6572282960c81b6020830152565b60405190612d6b82612c61565b600c82526b67657448657862617365282960a01b6020830152565b15612d8d57565b60405162461bcd60e51b81526020600482015260176024820152766e65737465642e696e76616c69642e696e7374616e636560481b6044820152606490fd5b15612dd357565b60405162461bcd60e51b81526020600482015260166024820152756e65737465642e696e76616c69642e6865786261736560501b6044820152606490fd5b15612e1857565b60405162461bcd60e51b81526020600482015260186024820152776e65737465642e706172656e742e6e6f742e65786973747360401b6044820152606490fd5b546001600160a01b031690565b60405190612e7282612c61565b60128252716765744e6f64654c422875696e743235362960701b6020830152565b91908260809103126103ed578151916020810151916060604083015192015190565b15612ebc57565b60405162461bcd60e51b81526020600482015260196024820152786e65737465642e706172656e742e6e6f2e627573696e65737360381b6044820152606490fd5b634e487b7160e01b600052601160045260246000fd5b906001820180921161070057565b9190820180921161070057565b600260115414612f3f576002601155565b604051633ee5aeb560e01b8152600490fd5b60001981019190821161070057565b9190820391821161070057565b612f75614c2a565b601f5410612f8d575b612f8b6005601f54612ff7565b565b612f95614c2a565b80601f55600019810190811161070057612fae90614608565b612f7e565b612fbb614c2a565b601f5410612fd1575b612f8b6002601f54612ff7565b612fd9614c2a565b80601f55600019810190811161070057612ff290614608565b612fc4565b9061300461230283610547565b54158061312e575b80613125575b61301a575050565b6130369061303061302a84612f51565b91612f51565b90612ff7565b61304a61230261304583612f51565b610547565b5461305761230283610547565b55613067610fba61304583612f51565b54613074610fba83610547565b55613084610fd961304583612f51565b54613091610fd983610547565b556130a1610ffb61304583612f51565b546130ae610ffb83610547565b556130be61101d61304583612f51565b546130cb61101d83610547565b556130db61103f61304583612f51565b546130e861103f83610547565b556130f861106161304583612f51565b5461310561106183610547565b5561312261107c61311b61107c61304585612f51565b5492610547565b55565b50801515613012565b506001821161300c565b1561313f57565b60405162461bcd60e51b81526020600482015260156024820152746e65737465642e616c72656164792e65786973747360581b6044820152606490fd5b60001981146107005760010190565b80546001600160a01b0319166001600160a01b03909216919091179055565b908160209103126103ed57516110ec8161042a565b6040513d6000823e3d90fd5b906004906131eb6131e6612ae360016116086111b58661175d565b613138565b6131fe6131f960145461317c565b601455565b613222601454936132128361128987610577565b8461321c8461175d565b5561175d565b5461322d84826134d8565b61324b8361323a86610567565b0180546001600160a01b0319169055565b61326c61326161325c60085461041e565b61341a565b60056112a087610567565b61327a60056111bb86610567565b61328861087960005461041e565b916132ca60405180611bb889886020986352902c5960e01b8a860152602485016001600160a01b03918216815291166020820152604081019190915260600190565b508015158061339b575b613359575b50816132e961087960005461041e565b6040516318c9774160e21b815295869182905afa908115610be75761333494600092613338575b506111fc919261133a60405195869263d5ec0ea160e01b908401526024830161043b565b5090565b6111fc925061335390843d8611610be057610bd18183612cb2565b91613310565b61336a60056111bb61339493610567565b604051636f58dd0f60e11b8582015260016024820152604484810182529091906111fc9083612cb2565b50386132d9565b506001600160a01b036133b260056111bb84610567565b1615156132d4565b916004916133d56131e6612ae360016116086111b58761175d565b6133e36131f960145461317c565b61324b613404601454956133fa8561128989610577565b8661321c8661175d565b549161341086846134d8565b846112a087610567565b6e5af43d82803e903d91602b57fd5bf390763d602d80600a3d3981f3363d3d373d3d3d363d7300000062ffffff8260881c161760005260781b17602052603760096000f0906001600160a01b0382161561347057565b60405163b06ebf3d60e01b8152600490fd5b634e487b7160e01b600052603260045260246000fd5b80548210156134b05760005260206000200190600090565b613482565b80549190600160401b831015612c5c57826119ad916001612f8b95018155613498565b919091600092808452602091601583526040808620956002948386890155846001988981018a60ff19825416179055558761351286610587565b83805282528489858520555b61352d57505050505050509050565b61357a613574828b8a9414613583575b61354688610587565b81875285528686206135588154612f13565b905561356388610597565b61356d8154612f13565b905561317c565b95610567565b0154938461351e565b613592896003611a2e8b610567565b61353d565b1561359e57565b60405162461bcd60e51b81526020600482015260156024820152746e65737465642e757365722e6e6f7461637469766560581b6044820152606490fd5b8060005260156020526135f860ff60016040600020015416613597565b600052601560205261363860018060a01b03600560406000200154166040519062a0e53360e51b602083015260016024830152602482526111fc82612c41565b50565b1561364257565b60405162461bcd60e51b81526020600482015260136024820152726e65737465642e7a65726f2e6164647265737360681b6044820152606490fd5b1561368457565b60405162461bcd60e51b81526020600482015260146024820152736e65737465642e7461726765742e65786973747360601b6044820152606490fd5b156136c757565b60405162461bcd60e51b81526020600482015260176024820152766e65737465642e736f757263652e6e6f7445786973747360481b6044820152606490fd5b6040519061371382612c61565b601382527255736572546f496e737428616464726573732960681b6020830152565b1561373c57565b60405162461bcd60e51b81526020600482015260156024820152743732b9ba32b21734b73b30b634b21739b2b73232b960591b6044820152606490fd5b6040519061378682612c61565b600b82526a6d696e74436f756e74282960a81b6020830152565b908160209103126103ed575190565b604051906137bc82612c61565b600e82526d6d696e74732875696e743235362960901b6020830152565b91908260809103126103ed57815191602081015191606060408301519201516110ec8161042a565b60005b8381106138145750506000910152565b8181015183820152602001613804565b9060209161383d81518092818552858086019101613801565b601f01601f1916010190565b6001600160a01b0390911681526040602082018190526110ec92910190613824565b1561387257565b60405162461bcd60e51b815260206004820152601b60248201527a6e65737465642e757365722e696e76616c6964696e7374616e636560281b6044820152606490fd5b91908260409103126103ed576020825192015190565b6001600160a01b039091168152602081019190915260400190565b156138ed57565b60405162461bcd60e51b81526020600482015260156024820152741b995cdd19590b9a5b9d985b1a590b9c185c995b9d605a1b6044820152606490fd5b1561393157565b60405162461bcd60e51b81526020600482015260176024820152761b995cdd19590b9c995c4b985b1c9958591e595e1a5cdd604a1b6044820152606490fd5b92916139dd60a09160009360c08752602460c08801527f547269676765722e6e65737465642e70726f706f73616c2e6d6f7665646f776e60e0880152636c696e6560e01b610100880152600180851b03166020870152836040870152610120806060880152860190613824565b93600a60808201520152565b156139f057565b60405162461bcd60e51b81526020600482015260136024820152721b995cdd19590b9c995c4b9b9bdd195e1a5cdd606a1b6044820152606490fd5b60405190613a3882612c61565b60128252716765745374617475732875696e743235362960701b6020830152565b519081151582036103ed57565b91908260409103126103ed576110ec6020613a8084613a59565b9301613a59565b15613a8e57565b60405162461bcd60e51b81526020600482015260166024820152751b995cdd19590b9c995c4b9b9bdd185c1c1c9bdd995960521b6044820152606490fd5b15613ad357565b60405162461bcd60e51b81526020600482015260186024820152771b995cdd19590b9d5cd95c8b9b9bdd0b99195d1858da195960421b6044820152606490fd5b15613b1a57565b60405162461bcd60e51b815260206004820152601c60248201527b1b995cdd19590b9d5cd95c8b985b1c9958591e4b99195d1858da195960221b6044820152606490fd5b8054908115613b885760001991820191613b788383613498565b909182549160031b1b1916905555565b634e487b7160e01b600052603160045260246000fd5b8015610700576000190190565b90613bbe613bb883610597565b54612f13565b9160029081613bcc82610567565b0154906001938492835b613be4575b50505050505050565b600f8085111580613e62575b15613e5c5785906005613c09610879826111bb87610567565b613c2b575b5050613c1c613c2492610567565b01549361317c565b9285613bd6565b865b82811115613cdc57505050613c1c613c249284600014613c9a57613c6a613c5387610587565b613c5c89612f51565b600052602052604060002090565b54613c7b610e7d89610ee285610587565b9055613c8681610597565b613c918b8254612f21565b90555b92613c0e565b613ca6613c5387610587565b54613cbf613cb789610ee285610587565b918254612f60565b9055613cca81610597565b613cd58b8254612f60565b9055613c94565b90919250613ced826111bb88610567565b613cf78883612f60565b60409187613d39613d2b855180613d176020978883019190602083019252565b0394612471601f1996878101845283612cb2565b848082518301019101612e93565b50509290878a821580613e54575b613e435792613dab949261133a613d696111fc946111bb613db89b9a98610567565b94601f9a8c8c549151988995637b058ac160e01b8d8801526024870193909594919260809360a086019786526020860152604085015260608401521515910152565b80518101820191016138b5565b908715613e04575b808211613ddc57505050613dd39061317c565b90879291613c2d565b613de59061317c565b613df381610ee28554610547565b613dfd8154612f13565b9055613dc0565b9190915b828111613e1b57505050613dd39061317c565b80613e2d613e3e92610ee28554610547565b613e378154612f51565b9055613b9e565b613e08565b5050505050505050613dd39061317c565b508515613d47565b50613bdb565b50811515613bf0565b9061012080838303126103ed5781601f840112156103ed57604051928184016001600160401b03811185821017612c5c57604052839181019283116103ed57905b828210613eb95750505090565b8151815260209182019101613eac565b60405190613ed682612c61565b600f82526e66726565496e74657276616c73282960881b6020830152565b60405190613f0182612c61565b601582527467657452616e6b5769746841676556616c7565282960581b6020830152565b60405190613f3282612c61565b601382527272616e6b436c617573652875696e743235362960681b6020830152565b908160a09103126103ed578051916020820151916040810151916080606083015192015190565b919091600392613fa5613f8e855461041e565b613f96612d23565b90613f9f613ec9565b90614d81565b9360008092819082948392849185985b600f8a111580614248575b1561423a576005613fd7610879826111bb85610567565b613ff9575b506002613feb613ff392610567565b01549961317c565b98613fb5565b8c61401261400a836111bb86610567565b611e8a613ef4565b8c6140276020928380825183010191016138b5565b8295919515806141d8575b15806141cf575b80156141c7575b61404f575b5050505050613fdc565b869e869792939495960361410d575b506140d5928b6111fc8c6118ec61407f6140db99976111bb6140c898610567565b93601f9a8b5460405197889563208bffb160e21b8c8801526024870193909594919260a09360c08601978652600060208701526040860152606085015260808401521515910152565b80518101820191016137a0565b92612f13565b808310156140f657509098905060028c613ff38c3880614045565b8061356361410892610ee28554610547565b6140db565b9193929a50508a8511614160575b509087918c86861080801591614137575b50159a92919361405e565b89881015915081614158575b5080614150575b3861412c565b50881561414a565b905038614143565b9950955093508592506141a861419a6141798b5461041e565b60405190614192826118ec888c83019190602083019252565b611f12613f25565b868082518301019101613f54565b9693509096915095946141be859b601f54612f60565b1196909161411b565b506000614040565b508a1515614039565b99509b50955095509a5061421a61420c838d6141926141f78f5461041e565b604051928301938452919283906020016118ec565b8c8082518301019101613f54565b9e9350909791509695849b859e61423382601f54612f60565b1199614032565b505050505050505050509050565b50801515613fc0565b90929192614263613f8e60035461041e565b93600091829083809481938280985b600f8a1115806144b8575b1561423a5761429361087960056111bb84610567565b6142ac575b6002613feb6142a692610567565b98614272565b8b8a6142c261288761400a60056111bb87610567565b8293919315614462575b82151580614459575b8015614450575b6142ea575b50505050614298565b938394819d8d9495036143a1575b50614373926140d5926111fc8c6118ec8f61431a60056111bb61436499610567565b94601f9a8b549060405198899663208bffb160e21b60208901526024880194919260a0949197969360c0870198875260208701526040860152606085015260808401521515910152565b602080825183010191016137a0565b8083101561438a57509098905060028a8d386142e1565b8061356361439c92610ee28554610547565b614373565b9350505097508282116143f3575b50898c878b868510808015916143ca575b50159a92916142f8565b898710159150816143eb575b50806143e3575b386143c0565b5088156143dd565b9050386143d6565b93509350505061443361442461440a60035461041e565b60405190614192826118ec88602083019190602083019252565b60208082518301019101613f54565b93509093915092916144488592601f54612f60565b1193386143af565b508b15156142dc565b508915156142d5565b9750505093509750505061449761442461447d60035461041e565b60405190614192826118ec87602083019190602083019252565b999350909391509291818a8d829b6144b189601f54612f60565b11976142cc565b5080151561427d565b156144c857565b60405162461bcd60e51b81526020600482015260126024820152716e65737465642e696e76616c69642e61676560701b6044820152606490fd5b6040519061450f82612c61565b60188252776765744261746368526f79616c7479436c6175736573282960401b6020830152565b6102a09081818403126103ed5782601f820112156103ed57604080519361455c85612c7c565b84938301928184116103ed57935b83851061457957505050505090565b6060858303126103ed57825160609161459182612c41565b865182526020918288015183820152858801518682015281520194019361456a565b9060078110156134b05760051b0190565b908160640291606483040361070057565b8181029291811591840414171561070057565b81156145f2570490565b634e487b7160e01b600052601260045260246000fd5b6146138115156144c1565b61462961462160035461041e565b611e8a614502565b9061463e602092838082518301019101614536565b61465282600052601a602052604060002090565b5460015b6007811115614666575050505050565b806146776146cf92610ee287610547565b5480156146dd5761469061468a83612f51565b866145b3565b518781519283156146d4576146b76146bc926146af6146c2968a6145d5565b9401516145c4565b6145d5565b906145e8565b610ef182610ee288610557565b614656565b5050505061317c565b5061317c565b604051906101008083016001600160401b03811184821017612c5c57604052368337565b601f5480600052601a60205260406000205491820180921161070057600052601a602052604060002055565b601f5480600052601b60205260406000205491820180921161070057600052601b602052604060002055565b601f5480600052601c60205260406000205491820180921161070057600052601c602052604060002055565b601f5480600052601d602052604060002054906001820180921161070057600052601d602052604060002055565b604051906147c682612c61565b6014825273676574627573696e6573732875696e743235362960601b6020830152565b604051906147f682612c61565b601d82527f67657472616e6b436f756e742875696e743235362c75696e74323536290000006020830152565b6001600160a01b039091169052565b614b016101c0612f8b9261486a614848825161041e565b600280546001600160a01b0319166001600160a01b0392909216919091179055565b61489c61487a602083015161041e565b600380546001600160a01b0319166001600160a01b0392909216919091179055565b6148ce6148ac604083015161041e565b600480546001600160a01b0319166001600160a01b0392909216919091179055565b6149006148de606083015161041e565b600580546001600160a01b0319166001600160a01b0392909216919091179055565b614932614910608083015161041e565b600680546001600160a01b0319166001600160a01b0392909216919091179055565b61496461494260a083015161041e565b600780546001600160a01b0319166001600160a01b0392909216919091179055565b61499661497460c083015161041e565b600880546001600160a01b0319166001600160a01b0392909216919091179055565b6149c86149a660e083015161041e565b600980546001600160a01b0319166001600160a01b0392909216919091179055565b6149fb6149d961010083015161041e565b600a80546001600160a01b0319166001600160a01b0392909216919091179055565b614a2e614a0c61012083015161041e565b600b80546001600160a01b0319166001600160a01b0392909216919091179055565b614a61614a3f61014083015161041e565b600c80546001600160a01b0319166001600160a01b0392909216919091179055565b614a94614a7261016083015161041e565b600d80546001600160a01b0319166001600160a01b0392909216919091179055565b614ac7614aa561018083015161041e565b600e80546001600160a01b0319166001600160a01b0392909216919091179055565b614afa614ad86101a083015161041e565b600f80546001600160a01b0319166001600160a01b0392909216919091179055565b015161041e565b601080546001600160a01b0319166001600160a01b0392909216919091179055565b908160209103126103ed576110ec90613a59565b600254604051614b7f916001600160a01b031690614b5481612c61565b6008815267697353616665282960c01b602082015260405191614b7683612c97565b60008352614cc2565b9080614b9e575b1561068257806020806110ec93518301019101614b23565b506020815114614b86565b614c0360018060a01b038060025416604051916020941684830152838252614bd082612c61565b60405190614bdd82612c61565b601582527469735365637572654261736528616464726573732960581b85830152614cc2565b9080614c20575b1561068257816110ec9282518301019101614b23565b5081815114614c0a565b6003546040516110ec916001600160a01b031690614c4781612c61565b600681526569416765282960d01b60208201526040519161229083612c97565b3d15614c92573d90614c7882612cf5565b91614c866040519384612cb2565b82523d6000602084013e565b606090565b90614ca29291614cc2565b9060009015614caf575090565b6040519150614cbd82612c97565b815290565b803b15614d2457600092839263ffffffff60e01b90602081519101201690614d146024604051809360208201958652614d048151809260208686019101613801565b8101036004810184520182612cb2565b51915afa614d20614c67565b9091565b505050600090604051614d3681612c97565b6000815290565b9291614d4b91600094614cc2565b9080614d76575b614d595750565b9091506020818051810103126103ed576020015161041e8161042a565b506020815114614d52565b9291614d8f91600094614cc2565b9080614db2575b614d9d5750565b6110ec919250602080825183010191016137a0565b506020815114614d96565b906020825192015163ffffffff60e01b908181169360048110614ddf57505050565b60040360031b82901b16169150565b6001600160a01b03811615614e7057600080918351908260208601915af190614e15614c67565b9115614e1f575090565b805160009190600411614e6a57614e369150614dbd565b815115614e465750805190602001fd5b604051630870274d60e21b81526001600160e01b0319919091166004820152602490fd5b50614e36565b60405163e6c4247b60e01b8152600490fdfea26469706673582212207f56d337313cee6269e30317a4e7e30827b0ee23825a2325e8ad7c255e121dc464736f6c63430008140033","linkReferences":{}},"methodIdentifiers":{"dAOAssembly()":"14837455","daocore()":"14d8d024","nested741()":"45cff900","old741()":"5540c5ac","price()":"a035b1fe"},"id":33}