{"abi":[{"type":"constructor","inputs":[{"name":"_hex","type":"address","internalType":"address"},{"name":"_price","type":"address","internalType":"address"},{"name":"_old741","type":"address","internalType":"address"}],"stateMutability":"nonpayable"},{"type":"function","name":"dAOAssembly","inputs":[],"outputs":[{"name":"","type":"address","internalType":"address"}],"stateMutability":"view"},{"type":"function","name":"daocore","inputs":[],"outputs":[{"name":"","type":"address","internalType":"address"}],"stateMutability":"view"},{"type":"function","name":"nested741","inputs":[],"outputs":[{"name":"","type":"address","internalType":"address"}],"stateMutability":"view"},{"type":"function","name":"old741","inputs":[],"outputs":[{"name":"","type":"address","internalType":"address"}],"stateMutability":"view"},{"type":"function","name":"price","inputs":[],"outputs":[{"name":"","type":"address","internalType":"address"}],"stateMutability":"view"}],"bytecode":{"object":"0x6080346101b757601f61a84538819003918201601f19168301926001600160401b03929091838511838610176101a15781606092849260409788528339810103126101b75761004d816101bc565b6100648461005d602085016101bc565b93016101bc565b9160018060a01b03199273c0cee8b561cc4f60869776ca5b0b7a295e04f5af84600154161760015585516118489586820196828810828911176101a15761032583396001600160a01b039485168088526000979092908190036020019088f080156101835785168660035416176003558751615ba7808201908282108483111761018d576020918391614c9e833985815203019088f08015610183578516866002541617600255875191613131808401928484109084111761016f57918391602093611b6d8439815203019086f080156101655790838092168560045416176004551683600154161760015516908254161790555161015490816101d18239f35b86513d87823e3d90fd5b634e487b7160e01b89526041600452602489fd5b88513d89823e3d90fd5b634e487b7160e01b8a52604160045260248afd5b634e487b7160e01b600052604160045260246000fd5b600080fd5b51906001600160a01b03821682036101b75756fe608080604052600436101561001357600080fd5b600090813560e01c90816314837455146100f55750806314d8d024146100ce57806345cff900146100a75780635540c5ac146100805763a035b1fe1461005857600080fd5b3461007d578060031936011261007d576001600160a01b036020915416604051908152f35b80fd5b503461007d578060031936011261007d5760206001600160a01b0360015416604051908152f35b503461007d578060031936011261007d5760206001600160a01b0360025416604051908152f35b503461007d578060031936011261007d5760206001600160a01b0360045416604051908152f35b90503461011a578160031936011261011a576020906001600160a01b03600354168152f35b5080fdfea2646970667358221220ad45e77a38632aaa005db267781790208a2bfb9af513548eb099891620d52cb064736f6c6343000814003360803461009757601f61184838819003918201601f19168301916001600160401b0383118484101761009c5780849260209460405283398101031261009757516001600160a01b038116908190036100975780156100855760018060a01b0319338160015416176001556000541617600055600060125560405161179590816100b38239f35b60405163e6c4247b60e01b8152600490fd5b600080fd5b634e487b7160e01b600052604160045260246000fdfe60806040526004361015610018575b361561001657005b005b60003560e01c806312065fe0146101185780631f185d161461011357806325924f341461010e578063339459a6146101095780633b9b79551461010457806361b7fbd9146100ff5780638da5cb5b146100fa578063a1f7f539146100f5578063af484526146100f0578063b90306ad146100eb578063c54e44b0146100e6578063c89b84fd146100e1578063dbac26e9146100dc578063e01ad5fd146100d7578063e0a9bc2b146100d25763fdc10bc90361000e57610ecf565b610eb4565b610e34565b610df1565b610d2c565b610ca6565b610b98565b610b19565b610aa4565b610a7d565b61098f565b61095e565b610266565b610235565b61014a565b3461013457600036600319011261013457602047604051908152f35b600080fd5b6001600160a01b0381160361013457565b3461013457602080600319360112610134576101c960043561016b81610139565b6001600160a01b0380600254169060405192168483015283825261018e82610f00565b6040519061019b82610f00565b601182527f69735369676e6572286164647265737329000000000000000000000000000000858301526115e6565b91908061022b575b156102015781816101eb926101fd945183010191016114ca565b60405190151581529081906020820190565b0390f35b60046040517f3204506f000000000000000000000000000000000000000000000000000000008152fd5b50808251146101d1565b3461013457602036600319011261013457602061025c60043561025781610139565b61108e565b6040519015158152f35b346101345760003660031901126101345761029861028c6000546001600160a01b031690565b6001600160a01b031690565b604051907f97f3815a000000000000000000000000000000000000000000000000000000008252602082600481845afa91821561078e5760009261093d575b50604051917fcfbffe53000000000000000000000000000000000000000000000000000000008352602083600481855afa92831561078e5760009361091c575b50604051907fab6e844f000000000000000000000000000000000000000000000000000000008252602082600481865afa91821561078e576000926108fb575b50604051917f14d8d024000000000000000000000000000000000000000000000000000000008352602083600481875afa92831561078e576000936108da575b50604051927fd1f956b1000000000000000000000000000000000000000000000000000000008452602084600481885afa93841561078e576000946108b9575b50604051937fe61dfd58000000000000000000000000000000000000000000000000000000008552602085600481895afa94851561078e57600095610898575b506040517fe09d394d0000000000000000000000000000000000000000000000000000000081526020816004818a5afa90811561078e57600091610879575b506040517f52b06d640000000000000000000000000000000000000000000000000000000081526020816004818b5afa90811561078e5760009161085a575b506040517f013cf08b00000000000000000000000000000000000000000000000000000000815260006004820152916020836024818c5afa92831561078e57600093610839575b50604051977f5e09dbe70000000000000000000000000000000000000000000000000000000089526020896004818d5afa94851561078e57600499600096610818575b5060208b6040519b8c80927faa0ddc160000000000000000000000000000000000000000000000000000000082525afa96871561078e5760049a6000986107f7575b5060208c6040519c8d80927f640274270000000000000000000000000000000000000000000000000000000082525afa98891561078e5760049b60009a6107d6575b5060208d6040519d8e80927f30125cf50000000000000000000000000000000000000000000000000000000082525afa9a8b1561078e578d60049d60009d6107b4575b506020906040519e8f80927f24768d910000000000000000000000000000000000000000000000000000000082525afa9c8d1561078e5760009d610793575b50604051809e81907f9dc969a80000000000000000000000000000000000000000000000000000000082525a92600491602094fa9d8e1561078e5760009e61075d575b50610671610f5a565b6001600160a01b0390911681529d8e906001600160a01b03166020820152604001906106a591906001600160a01b03169052565b6001600160a01b031660608d01526001600160a01b031660808c01526001600160a01b031660a08b01526001600160a01b031660c08a01526001600160a01b031660e08901526001600160a01b03166101008801526001600160a01b03166101208701526001600160a01b03166101408601526001600160a01b03166101608501526001600160a01b03166101808401526001600160a01b03166101a08301526001600160a01b03166101c0820152610016906111c7565b610780919e5060203d602011610787575b6107788183610f38565b8101906111a6565b9c38610668565b503d61076e565b6111bb565b6107ad919d5060203d602011610787576107788183610f38565b9b38610625565b6020919d506107cf90823d8411610787576107788183610f38565b9c906105e6565b6107f0919a5060203d602011610787576107788183610f38565b98386105a3565b61081191985060203d602011610787576107788183610f38565b9638610561565b61083291965060203d602011610787576107788183610f38565b943861051f565b61085391935060203d602011610787576107788183610f38565b91386104dc565b610873915060203d602011610787576107788183610f38565b38610495565b610892915060203d602011610787576107788183610f38565b38610456565b6108b291955060203d602011610787576107788183610f38565b9338610417565b6108d391945060203d602011610787576107788183610f38565b92386103d7565b6108f491935060203d602011610787576107788183610f38565b9138610397565b61091591925060203d602011610787576107788183610f38565b9038610357565b61093691935060203d602011610787576107788183610f38565b9138610317565b61095791925060203d602011610787576107788183610f38565b90386102d7565b346101345760003660031901126101345760206001600160a01b0360005416604051908152f35b8015150361013457565b34610134576040366003190112610134576004356109ac81610139565b602435906109b982610985565b6109c16114df565b15610a53576001600160a01b039081600554163303610a2957166000526011602052604060002060ff1981541660ff83151516179055600014610a17576012546000198114610a1257600101601255005b611190565b6012548015610a125760001901601255005b60046040517fea8e4eb5000000000000000000000000000000000000000000000000000000008152fd5b60046040517f9dc4246e000000000000000000000000000000000000000000000000000000008152fd5b346101345760003660031901126101345760206001600160a01b0360015416604051908152f35b34610134576000366003190112610134576020610b116001600160a01b0360065416604051610ad281610f00565b601381527f67657464656c656761746f72436f756e742829000000000000000000000000008482015260405191610b0883610f1c565b60008352611721565b604051908152f35b3461013457602080600319360112610134576101c9600435610b3a81610139565b6001600160a01b03806002541690604051921684830152838252610b5d82610f00565b60405190610b6a82610f00565b601582527f6973536563757265426173652861646472657373290000000000000000000000858301526115e6565b3461013457602036600319011261013457600435610bb46114df565b15610a53576001600160a01b03600554163303610a295760009060046020610be661028c85546001600160a01b031690565b604051928380927f46f991ac0000000000000000000000000000000000000000000000000000000082525afa801561078e5783808481949382948391610c88575b505af1610c326115b6565b5015610201577fcdcc745fe377b103b45fa0cec23ae3ef93d6fc6a84a01f0d18c40b354dd1d5d8610c82610c7161028c600b546001600160a01b031690565b604051938452929081906020820190565b0390a280f35b610ca0915060203d8111610787576107788183610f38565b38610c27565b3461013457602036600319011261013457600435610cc381610139565b803b6000610cd082610f7b565b92610cde6040519485610f38565b82845260208401903c602d815110610d0257602a602091015160601c604051908152f35b60046040517fbaf3f0f7000000000000000000000000000000000000000000000000000000008152fd5b34610134576000366003190112610134576001600160a01b038060035416610d65610d55610faa565b91604092835191610b0883610f1c565b9160045416610d72611564565b92825193602085015282840152818352606083019280841067ffffffffffffffff851117610dec5783610ddd926101fd958552610dae82610f00565b601d82527f67657472616e6b436f756e742875696e743235362c75696e74323536290000006080840152611721565b90519081529081906020820190565b610eea565b34610134576020366003190112610134576001600160a01b03600435610e1681610139565b166000526011602052602060ff604060002054166040519015158152f35b3461013457602036600319011261013457602061025c600435610e5681610139565b6001600160a01b03806006541690604051921684830152838252610e7982610f00565b60405190610e8682610f00565b601882527f697364656c656761746f724e6f64652861646472657373290000000000000000858301526116e5565b3461013457600036600319011261013457602061025c6114df565b34610134576000366003190112610134576020610b11611564565b634e487b7160e01b600052604160045260246000fd5b6040810190811067ffffffffffffffff821117610dec57604052565b6020810190811067ffffffffffffffff821117610dec57604052565b90601f8019910116810190811067ffffffffffffffff821117610dec57604052565b604051906101e0820182811067ffffffffffffffff821117610dec57604052565b67ffffffffffffffff8111610dec57601f01601f191660200190565b60405190610fa482610f1c565b60008252565b60405190610fb782610f00565b600c82527f72616e6b666f7244414f282900000000000000000000000000000000000000006020830152565b60405190610ff082610f00565b601682527f67657455736572546f53746f72286164647265737329000000000000000000006020830152565b6040519061102982610f00565b600682527f72616e6b282900000000000000000000000000000000000000000000000000006020830152565b6040519061106282610f00565b600882527f69734c6f636b28290000000000000000000000000000000000000000000000006020830152565b6001600160a01b03906110b482600354166110a7610faa565b60405191610b0883610f1c565b6110fc6110c96004546001600160a01b031690565b604080516001600160a01b038616602080830191909152815291906110ee9083610f38565b6110f6610fe3565b90611694565b928316156111885761113861112161111261101c565b61111a610f97565b9086611721565b9361112a611055565b611132610f97565b916116e5565b921015918261117f575b508161114c575090565b61117c9150611171611178916001600160a01b03166000526011602052604060002090565b5460ff1690565b1590565b90565b15915038611142565b505050600090565b634e487b7160e01b600052601160045260246000fd5b90816020910312610134575161117c81610139565b6040513d6000823e3d90fd5b6114ac6101c06114c8926112016111e582516001600160a01b031690565b6001600160a01b03166001600160a01b03196002541617600255565b61123461121860208301516001600160a01b031690565b6001600160a01b03166001600160a01b03196003541617600355565b61126761124b60408301516001600160a01b031690565b6001600160a01b03166001600160a01b03196004541617600455565b61129a61127e60608301516001600160a01b031690565b6001600160a01b03166001600160a01b03196005541617600555565b6112cd6112b160808301516001600160a01b031690565b6001600160a01b03166001600160a01b03196006541617600655565b6113006112e460a08301516001600160a01b031690565b6001600160a01b03166001600160a01b03196007541617600755565b61133361131760c08301516001600160a01b031690565b6001600160a01b03166001600160a01b03196008541617600855565b61136661134a60e08301516001600160a01b031690565b6001600160a01b03166001600160a01b03196009541617600955565b61139a61137e6101008301516001600160a01b031690565b6001600160a01b03166001600160a01b0319600a541617600a55565b6113ce6113b26101208301516001600160a01b031690565b6001600160a01b03166001600160a01b0319600b541617600b55565b6114026113e66101408301516001600160a01b031690565b6001600160a01b03166001600160a01b0319600c541617600c55565b61143661141a6101608301516001600160a01b031690565b6001600160a01b03166001600160a01b0319600d541617600d55565b61146a61144e6101808301516001600160a01b031690565b6001600160a01b03166001600160a01b0319600e541617600e55565b61149e6114826101a08301516001600160a01b031690565b6001600160a01b03166001600160a01b0319600f541617600f55565b01516001600160a01b031690565b6001600160a01b03166001600160a01b03196010541617601055565b565b90816020910312610134575161117c81610985565b61153a6001600160a01b03600254166040516114fa81610f00565b600881527f697353616665282900000000000000000000000000000000000000000000000060208201526040519161153183610f1c565b600083526115e6565b9080611559575b15610201578060208061117c935183010191016114ca565b506020815114611541565b61117c6001600160a01b036003541660405161157f81610f00565b600681527f6941676528290000000000000000000000000000000000000000000000000000602082015260405191610b0883610f1c565b3d156115e1573d906115c782610f7b565b916115d56040519384610f38565b82523d6000602084013e565b606090565b9190823b1561167b577fffffffff00000000000000000000000000000000000000000000000000000000815160208093012016916040519180830193845281519160005b83811061166757505050918161165760248260009795968897018783820152036004810184520182610f38565b51915afa6116636115b6565b9091565b81810183015185820160240152820161162a565b50505060009060405161168d81610f1c565b6000815290565b92916116a2916000946115e6565b90806116da575b6116b05750565b9091506020818051810103126101345760206001600160a01b039101516116d681610139565b1690565b5060208151146116a9565b92916116f3916000946115e6565b9080611716575b6117015750565b61117c919250602080825183010191016114ca565b5060208151146116fa565b929161172f916000946115e6565b9080611754575b61173d5750565b909150602081805181010312610134576020015190565b50602081511461173656fea264697066735822122047f727fcb9b02191f8f435da04f13ae8cabef0b29b8182794bf01dcd3ae2b86c64736f6c634300081400336080346200009e57601f6200313138819003918201601f19168301916001600160401b03831184841017620000a3578084926020946040528339810103126200009e57516001600160a01b038116908190036200009e5780156200008c5760018060a01b031933816001541617600155600054161760005560016011556040516130779081620000ba8239f35b60405163e6c4247b60e01b8152600490fd5b600080fd5b634e487b7160e01b600052604160045260246000fdfe60806040526004361015610018575b361561001657005b005b60003560e01c8063013cf08b146101c857806312065fe0146101c35780631f185d16146101be57806326705c3c146101b9578063339459a6146101b45780633b9b7955146101af57806343859632146101aa57806345a257bc146101a55780635c622a0e146101a0578063604ff4b11461019b578063896d6db1146101965780638da5cb5b1461019157806398e527d31461018c578063995e433914610187578063a1f7f53914610182578063af4845261461017d578063b7ccfe3214610178578063b90306ad14610173578063c54e44b01461016e578063c7f758a814610169578063c9d27afe14610164578063cc48bf161461015f578063d3325a2c1461015a578063e01ad5fd14610155578063e0a9bc2b14610150578063eeebb3c31461014b5763fdc10bc90361000e57611c8f565b611a79565b611a5e565b611a37565b6119a8565b611873565b6116d8565b61163e565b611564565b611456565b6113af565b6112c8565b6112a5565b611221565b611203565b6111dc565b611143565b611064565b611018565b610d66565b610cc4565b610c9d565b6105a5565b610587565b610556565b610529565b610465565b634e487b7160e01b600052603260045260246000fd5b60125481101561021e57600b906012600052027fbb8a6a4669ba250d26cd7a459eca9d215f8307e33aebe50379bc5a3617ec34440190600090565b6101cd565b90600182811c92168015610253575b602083101461023d57565b634e487b7160e01b600052602260045260246000fd5b91607f1691610232565b906000929180549161026e83610223565b9182825260019384811690816000146102d05750600114610290575b50505050565b90919394506000526020928360002092846000945b8386106102bc57505050500101903880808061028a565b8054858701830152940193859082016102a5565b9294505050602093945060ff191683830152151560051b0101903880808061028a565b634e487b7160e01b600052604160045260246000fd5b6040810190811067ffffffffffffffff82111761032557604052565b6102f3565b6020810190811067ffffffffffffffff82111761032557604052565b90601f8019910116810190811067ffffffffffffffff82111761032557604052565b9061038361037c926040519384809261025d565b0383610346565b565b60005b8381106103985750506000910152565b8181015183820152602001610388565b906020916103c181518092818552858086019101610385565b601f01601f1916010190565b99939561041d61044d969f9e9d99936101809d986104619c9660408f6001600160a01b036104076104579f996101a08085528401906103a8565b9516602082015201528d820360608f01526103a8565b9e60808c015260a08b015260c08a015260e089015215156101008801526101208701906001600160a01b03169052565b1515610140850152565b1515610160830152565b0152565b34610524576020366003190112610524576004356012548110156105245761048c906101e3565b506040516104a58161049e818561025d565b0382610346565b6105206104bc60018401546001600160a01b031690565b6002840154906104ce60038601610368565b93600486015495600581015493600682015460078301549060096008850154940154966040519a8b9a8b9560ff8860b01c169960ff8960a81c169960ff6001600160a01b038b60081c169a16986103cd565b0390f35b600080fd5b3461052457600036600319011261052457602047604051908152f35b6001600160a01b0381160361052457565b3461052457602036600319011261052457602061057d60043561057881610545565b612c5f565b6040519015158152f35b34610524576000366003190112610524576020601454604051908152f35b34610524576000366003190112610524576105d76105cb6000546001600160a01b031690565b6001600160a01b031690565b604051907f97f3815a000000000000000000000000000000000000000000000000000000008252602082600481845afa918215610acd57600092610c7c575b50604051917fcfbffe53000000000000000000000000000000000000000000000000000000008352602083600481855afa928315610acd57600093610c5b575b50604051907fab6e844f000000000000000000000000000000000000000000000000000000008252602082600481865afa918215610acd57600092610c3a575b50604051917f14d8d024000000000000000000000000000000000000000000000000000000008352602083600481875afa928315610acd57600093610c19575b50604051927fd1f956b1000000000000000000000000000000000000000000000000000000008452602084600481885afa938415610acd57600094610bf8575b50604051937fe61dfd58000000000000000000000000000000000000000000000000000000008552602085600481895afa948515610acd57600095610bd7575b506040517fe09d394d0000000000000000000000000000000000000000000000000000000081526020816004818a5afa908115610acd57600091610bb8575b506040517f52b06d640000000000000000000000000000000000000000000000000000000081526020816004818b5afa908115610acd57600091610b99575b506040517f013cf08b00000000000000000000000000000000000000000000000000000000815260006004820152916020836024818c5afa928315610acd57600093610b78575b50604051977f5e09dbe70000000000000000000000000000000000000000000000000000000089526020896004818d5afa948515610acd57600499600096610b57575b5060208b6040519b8c80927faa0ddc160000000000000000000000000000000000000000000000000000000082525afa968715610acd5760049a600098610b36575b5060208c6040519c8d80927f640274270000000000000000000000000000000000000000000000000000000082525afa988915610acd5760049b60009a610b15575b5060208d6040519d8e80927f30125cf50000000000000000000000000000000000000000000000000000000082525afa9a8b15610acd578d60049d60009d610af3575b506020906040519e8f80927f24768d910000000000000000000000000000000000000000000000000000000082525afa9c8d15610acd5760009d610ad2575b50604051809e81907f9dc969a80000000000000000000000000000000000000000000000000000000082525a92600491602094fa9d8e15610acd5760009e610a9c575b506109b0611914565b6001600160a01b0390911681529d8e906001600160a01b03166020820152604001906109e491906001600160a01b03169052565b6001600160a01b031660608d01526001600160a01b031660808c01526001600160a01b031660a08b01526001600160a01b031660c08a01526001600160a01b031660e08901526001600160a01b03166101008801526001600160a01b03166101208701526001600160a01b03166101408601526001600160a01b03166101608501526001600160a01b03166101808401526001600160a01b03166101a08301526001600160a01b03166101c0820152610016906128c4565b610abf919e5060203d602011610ac6575b610ab78183610346565b8101906128a3565b9c386109a7565b503d610aad565b6128b8565b610aec919d5060203d602011610ac657610ab78183610346565b9b38610964565b6020919d50610b0e90823d8411610ac657610ab78183610346565b9c90610925565b610b2f919a5060203d602011610ac657610ab78183610346565b98386108e2565b610b5091985060203d602011610ac657610ab78183610346565b96386108a0565b610b7191965060203d602011610ac657610ab78183610346565b943861085e565b610b9291935060203d602011610ac657610ab78183610346565b913861081b565b610bb2915060203d602011610ac657610ab78183610346565b386107d4565b610bd1915060203d602011610ac657610ab78183610346565b38610795565b610bf191955060203d602011610ac657610ab78183610346565b9338610756565b610c1291945060203d602011610ac657610ab78183610346565b9238610716565b610c3391935060203d602011610ac657610ab78183610346565b91386106d6565b610c5491925060203d602011610ac657610ab78183610346565b9038610696565b610c7591935060203d602011610ac657610ab78183610346565b9138610656565b610c9691925060203d602011610ac657610ab78183610346565b9038610616565b346105245760003660031901126105245760206001600160a01b0360005416604051908152f35b3461052457604036600319011261052457600435602435610ce481610545565b6000198201918211610d2957610d1d60ff91600a610d036020956101e3565b5001906001600160a01b0316600052602052604060002090565b54166040519015158152f35b611dd6565b9181601f840112156105245782359167ffffffffffffffff8311610524576020838186019501011161052457565b8015150361052457565b346105245760e03660031901126105245760043560243567ffffffffffffffff811161052457610d9a903690600401610d2e565b604435610da681610545565b606435936001600160e01b031985168086036105245760843560a4359260c43592610dd084610d5c565b610dd933612c5f565b1561100757610df490610ded881515611caa565b1515611cf5565b8315801590610ff5575b610e0790611d40565b80610ed15750610ecc9593610ec4610016989694610eb07f0454182b30f1740c505634bb66f7f3001e232b3c8797a62b1db11b347a891ff4956001600160a01b0395610e8a610e54611935565b92610e60368c8e611971565b84526001600160a01b03881660208501526001600160e01b03198d16604085015215156060840152565b60808201528260a0820152610eab6014546000526013602052604060002090565b612032565b6014549788966040519586951698856121b3565b0390a36121e1565b601455565b968294610fdb88957f74608b2c8ffedaacf37a0fda8ea5cb94ebae20dc104623eb2fabb1bcec211608946001600160a01b03948a610fcd8e997f2dd3ae6155b13a46b2374a1f42e0733244754e572ec9f0034b698efefa8673a19e610f64610ff09f610f5d610f4d8f610f48601454821115611d8b565b611dec565b6000526013602052604060002090565b9283611e4f565b8660036001830192610f8c8c85906001600160a01b03166001600160a01b0319825416179055565b835463ffffffff60a01b1916604089901c63ffffffff60a01b1617845588600282015501559060ff60c01b1960ff60c01b835492151560c01b169116179055565b604051968796169986611f38565b0390a360405190151581529081906020820190565b0390a2005b506001600160a01b0385161515610dfe565b600460405163ea8e4eb560e01b8152fd5b34610524576020366003190112610524576004356000198101908111610d295760086110456040926101e3565b50015460ff825191818160a81c161515835260b01c1615156020820152f35b3461052457602036600319011261052457600435611080612bda565b15611132573330036110ee57801515806110e3575b1561109f57601155005b606460405162461bcd60e51b815260206004820152601660248201527f64616f2e696e76616c69642e70657263656e74616765000000000000000000006044820152fd5b506064811115611095565b606460405162461bcd60e51b815260206004820152600d60248201527f64616f2e66616b652e636f7265000000000000000000000000000000000000006044820152fd5b6004604051634ee2123760e11b8152fd5b346105245760203660031901126105245760043560005260136020526111a06040600020604051906111798261037c818461025d565b600181015490600360028201549101549060ff60405195869560c0875260c08701906103a8565b936001600160a01b03811660208701526001600160e01b03198160401b16604087015260c01c1615156060850152608084015260a08301520390f35b346105245760003660031901126105245760206001600160a01b0360015416604051908152f35b34610524576000366003190112610524576020601254604051908152f35b34610524576020366003190112610524576004356000198101908111610d295761124a906101e3565b50600481015460058201546006830154600784015460089094015460408051948552602085019390935291830152606082019290925260ff60a883901c81161515608083015260b09290921c909116151560a082015260c090f35b346105245760003660031901126105245760206112c0612da9565b604051908152f35b3461052457602080600319360112610524576113476004356112e981610545565b6001600160a01b0380600254169060405192168483015283825261130c82610309565b6040519061131982610309565b601582527f697353656375726542617365286164647265737329000000000000000000000085830152612e2b565b9190806113a5575b1561137b5781816113699261052094518301019101612bc5565b60405190151581529081906020820190565b60046040517f3204506f000000000000000000000000000000000000000000000000000000008152fd5b508082511461134f565b34610524576040366003190112610524576004356024356113cf81610d5c565b6113d833612c5f565b15611007576113eb601454831115611d8b565b6000198201828111610d29577f2dd3ae6155b13a46b2374a1f42e0733244754e572ec9f0034b698efefa8673a1916020916000526013825261144b8160016040600020019060ff60c01b1960ff60c01b835492151560c01b169116179055565b6040519015158152a2005b3461052457602036600319011261052457600435611472612bda565b15611132576001600160a01b0360055416330361100757600090600460206114a46105cb85546001600160a01b031690565b604051928380927f46f991ac0000000000000000000000000000000000000000000000000000000082525afa8015610acd5783808481949382948391611546575b505af16114f0612dfb565b501561137b577fcdcc745fe377b103b45fa0cec23ae3ef93d6fc6a84a01f0d18c40b354dd1d5d861154061152f6105cb600b546001600160a01b031690565b604051938452929081906020820190565b0390a280f35b61155e915060203d8111610ac657610ab78183610346565b386114e5565b346105245760203660031901126105245760043561158181610545565b803b600061158e82611955565b9261159c6040519485610346565b82845260208401903c602d8151106115c057602a602091015160601c604051908152f35b60046040517fbaf3f0f7000000000000000000000000000000000000000000000000000000008152fd5b9361160661163b9896939297949760e0875260e08701906103a8565b966001600160a01b03809316602087015260408601521660608401521515608083015260a082015260c08184039101526103a8565b90565b34610524576020366003190112610524576004356000198101908111610d2957611667906101e3565b506001600160a01b03610520600382600185015416936002810154906008810154906009810154926116c2604051926116ab846116a4818461025d565b0385610346565b6116bb604051809881930161025d565b0386610346565b60405197889760ff85169460081c1692886115ea565b34610524576040366003190112610524576004356024356116f881610d5c565b611700612bda565b156111325761170e33612d44565b156110075781151580611867575b61172590612607565b61173661173183611dec565b6101e3565b509061176e60ff600884015461174d828216612652565b611764600686015461175d612ce9565b111561269d565b60b01c16156126e8565b6117d36117c6600a84016117ae6117a96117a561179e3385906001600160a01b0316600052602052604060002090565b5460ff1690565b1590565b612733565b336001600160a01b0316600052602052604060002090565b805460ff19166001179055565b801561185257600482016117e781546121e1565b90555b6040519015158152339083907f0def80f9a3b4c7a4251442658ccf516bf33ea4acaf31638fc6da8ebdb0f64c7290602090a36004810154600782015480911091821592611843575b505061183a57005b6100169061277e565b60050154101590503880611832565b6005820161186081546121e1565b90556117ea565b5060125482111561171c565b346105245760203660031901126105245760043561189033612c5f565b156110075780151580611908575b6118a790612607565b6000198101818111610d29576118be6008916101e3565b5001600160b01b60ff60b01b1982546118dd60ff8260b01c16156126e8565b161790557f4cf2797951877f41b38931a68643f9249273f32fd396532213aa4f1222c9d16b600080a2005b5060125481111561189e565b604051906101e0820182811067ffffffffffffffff82111761032557604052565b6040519060c0820182811067ffffffffffffffff82111761032557604052565b67ffffffffffffffff811161032557601f01601f191660200190565b92919261197d82611955565b9161198b6040519384610346565b829481845281830111610524578281602093846000960137010152565b346105245760a03660031901126105245767ffffffffffffffff600435818111610524576119da903690600401610d2e565b6024929192356119e981610545565b60643592831161052457366023840112156105245761052093611a19611a27943690602481600401359101611971565b9160843593604435926124ab565b6040519081529081906020820190565b3461052457602036600319011261052457602061057d600435611a5981610545565b612d44565b3461052457600036600319011261052457602061057d612bda565b3461052457608036600319011261052457600480359060243590611a9c82610545565b60443567ffffffffffffffff811161052457611abb9036908301610d2e565b9092611ac5612bda565b15611c7f57611ad333612d44565b15611c6f57611ae6601454861115611d8b565b611af2610f4d86611dec565b91611b20600184015491611b0b60ff8460c01c166121f0565b6040966001600160e01b031984891b1661223b565b6003840154909490918215611c525750805486516001600160a01b03858116602080840191909152825290911692601f19929091611b75906117a590611b67604082610346565b611b6f612274565b87612ef7565b611c44575091611bb29593918360016105209a979514611c00575b600214611bc1575b50505b600282015493611bad60643593610368565b612394565b90519081529081906020820190565b87516001600160a01b0393909316602084015260409081018352611bf9929190611beb9083610346565b611bf36122e6565b90612ea6565b3880611b98565b88516001600160a01b03909416602085015292600290611c3c90611c2e816040810103858101835282610346565b611c366122ad565b85612ea6565b939050611b90565b875163ea8e4eb560e01b8152fd5b611bb2959350610520979492506001600160a01b03915016611b9b565b8260405163ea8e4eb560e01b8152fd5b82604051634ee2123760e11b8152fd5b346105245760003660031901126105245760206112c0612ce9565b15611cb157565b606460405162461bcd60e51b815260206004820152601760248201527f64616f2e74656d706c6174652e656d7074792e646573630000000000000000006044820152fd5b15611cfc57565b606460405162461bcd60e51b815260206004820152601a60248201527f64616f2e74656d706c6174652e7a65726f2e73656c6563746f720000000000006044820152fd5b15611d4757565b606460405162461bcd60e51b815260206004820152601860248201527f64616f2e74656d706c6174652e7a65726f2e74617267657400000000000000006044820152fd5b15611d9257565b606460405162461bcd60e51b815260206004820152601460248201527f64616f2e74656d706c6174652e696e76616c69640000000000000000000000006044820152fd5b634e487b7160e01b600052601160045260246000fd5b600019810191908211610d2957565b90601f8111611e0957505050565b600091825260208220906020601f850160051c83019410611e45575b601f0160051c01915b828110611e3a57505050565b818155600101611e2e565b9092508290611e25565b90929167ffffffffffffffff811161032557611e7581611e6f8454610223565b84611dfb565b6000601f8211600114611eaf5781929394600092611ea4575b50508160011b916000199060031b1c1916179055565b013590503880611e8e565b601f19821694611ec484600052602060002090565b91805b878110611eff575083600195969710611ee5575b505050811b019055565b0135600019600384901b60f8161c19169055388080611edb565b90926020600181928686013581550194019101611ec7565b908060209392818452848401376000828201840152601f01601f1916010190565b91611f5b606094979695926001600160e01b031992608086526080860191611f17565b9616602083015260408201520152565b919091825167ffffffffffffffff811161032557611f8d81611e6f8454610223565b602080601f8311600114611fc8575081929394600092611fbd5750508160011b916000199060031b1c1916179055565b015190503880611e8e565b90601f19831695611fde85600052602060002090565b926000905b88821061201a5750508360019596971061200157505050811b019055565b015160001960f88460031b161c19169055388080611edb565b80600185968294968601518155019501930190611fe3565b908051805167ffffffffffffffff81116103255761205a816120548654610223565b86611dfb565b6020918290601f831160011461213e579282600395936121229360a096600092612133575b50508160011b9160001990881b1c19161786555b6120c96120ad60018801928501516001600160a01b031690565b82906001600160a01b03166001600160a01b0319825416179055565b6121016120e160408501516001600160e01b03191690565b825463ffffffff60a01b191660409190911c63ffffffff60a01b16178255565b60608301511515815460ff60c01b191690151560c01b60ff60c01b16179055565b608081015160028501550151910155565b01519050388061207f565b90601f1983169161215487600052602060002090565b9260005b81811061219c5750936121229360a096936001938360039a9810612184575b505050811b018655612093565b0151600019838a1b60f8161c19169055388080612177565b929386600181928786015181550195019301612158565b906121d66001600160e01b03199160409497969597606085526060850191611f17565b951660208201520152565b6000198114610d295760010190565b156121f757565b606460405162461bcd60e51b815260206004820152601560248201527f64616f2e74656d706c6174652e64697361626c656400000000000000000000006044820152fd5b602490836001600160e01b0319959461038394604051978894166020850152848401378101600083820152036004810185520183610346565b6040519061228182610309565b601582527f69735573657245786973747328616464726573732900000000000000000000006020830152565b604051906122ba82610309565b601682527f67657455736572546f496e7374286164647265737329000000000000000000006020830152565b604051906122f382610309565b601682527f67657455736572546f53746f72286164647265737329000000000000000000006020830152565b6012546801000000000000000081101561032557600181018060125581101561021e57600b906012600052027fbb8a6a4669ba250d26cd7a459eca9d215f8307e33aebe50379bc5a3617ec34440190600090565b81810292918115918404141715610d2957565b9060638201809211610d2957565b92936123db919592946123b06123a861231f565b509586611f6b565b6001850180546001600160a01b0319166001600160a01b038816179055600285015560038401611f6b565b60646123f96123f46123eb612da9565b60115490612373565b612386565b046007830155612407612ce9565b908101809111610d295781600991600686940155612463600882016117c633829074ffffffffffffffffffffffffffffffffffffffff001974ffffffffffffffffffffffffffffffffffffffff0083549260081b169116179055565b01556012546040516001600160a01b03909216825291339183907f336735bcae5ee955b87e8b30bee52920223fa30a865b207ac6d9eee9f19589fb9080602081015b0390a490565b9193906124b733612c5f565b15611007576001600160a01b038516156125dd57612519926124da913691611971565b926124ee6124e661231f565b509485611f6b565b6001840180546001600160a01b0319166001600160a01b038716179055600284015560038301611f6b565b60646125296123f46123eb612da9565b046007820155612537612ce9565b928301809311610d29576009926006820155612591600882016117c633829074ffffffffffffffffffffffffffffffffffffffff001974ffffffffffffffffffffffffffffffffffffffff0083549260081b169116179055565b6103e792018290556012546040516001600160a01b03909216825291339183907f336735bcae5ee955b87e8b30bee52920223fa30a865b207ac6d9eee9f19589fb9080602081016124a5565b60046040517fe6c4247b000000000000000000000000000000000000000000000000000000008152fd5b1561260e57565b606460405162461bcd60e51b815260206004820152600e60248201527f64616f2e696e76616c69642e69640000000000000000000000000000000000006044820152fd5b1561265957565b606460405162461bcd60e51b815260206004820152601160248201527f64616f2e70726f702e6e6f7465786973740000000000000000000000000000006044820152fd5b156126a457565b606460405162461bcd60e51b815260206004820152601060248201527f64616f2e766f74696e672e656e646564000000000000000000000000000000006044820152fd5b156126ef57565b606460405162461bcd60e51b815260206004820152601560248201527f64616f2e616c72656164792e636f6d706c6574656400000000000000000000006044820152fd5b1561273a57565b606460405162461bcd60e51b815260206004820152601160248201527f64616f2e616c72656164792e766f7465640000000000000000000000000000006044820152fd5b7f948f4a9cd986f1118c3fbd459f7a22b23c0693e1ca3ef06a6a8be5aa7d39cc036128456113696127b161173185611dec565b5060088101805460ff60b01b1916600160b01b17815590612827600482015460078301548110159081612895575b5083547fffffffffffffffffffff00ffffffffffffffffffffffffffffffffffffffffff1690151560a81b75ff00000000000000000000000000000000000000000016178355565b815460a81c60ff1680612880575b61284a575b505460a81c60ff1690565b0390a2565b8061286260016128799301546001600160a01b031690565b612873600360028401549301610368565b90612fa3565b503861283a565b5061288e6003820154610223565b1515612835565b9050600583015410386127df565b90816020910312610524575161163b81610545565b6040513d6000823e3d90fd5b612ba96101c0610383926128fe6128e282516001600160a01b031690565b6001600160a01b03166001600160a01b03196002541617600255565b61293161291560208301516001600160a01b031690565b6001600160a01b03166001600160a01b03196003541617600355565b61296461294860408301516001600160a01b031690565b6001600160a01b03166001600160a01b03196004541617600455565b61299761297b60608301516001600160a01b031690565b6001600160a01b03166001600160a01b03196005541617600555565b6129ca6129ae60808301516001600160a01b031690565b6001600160a01b03166001600160a01b03196006541617600655565b6129fd6129e160a08301516001600160a01b031690565b6001600160a01b03166001600160a01b03196007541617600755565b612a30612a1460c08301516001600160a01b031690565b6001600160a01b03166001600160a01b03196008541617600855565b612a63612a4760e08301516001600160a01b031690565b6001600160a01b03166001600160a01b03196009541617600955565b612a97612a7b6101008301516001600160a01b031690565b6001600160a01b03166001600160a01b0319600a541617600a55565b612acb612aaf6101208301516001600160a01b031690565b6001600160a01b03166001600160a01b0319600b541617600b55565b612aff612ae36101408301516001600160a01b031690565b6001600160a01b03166001600160a01b0319600c541617600c55565b612b33612b176101608301516001600160a01b031690565b6001600160a01b03166001600160a01b0319600d541617600d55565b612b67612b4b6101808301516001600160a01b031690565b6001600160a01b03166001600160a01b0319600e541617600e55565b612b9b612b7f6101a08301516001600160a01b031690565b6001600160a01b03166001600160a01b0319600f541617600f55565b01516001600160a01b031690565b6001600160a01b03166001600160a01b03196010541617601055565b90816020910312610524575161163b81610d5c565b612c356001600160a01b0360025416604051612bf581610309565b600881527f6973536166652829000000000000000000000000000000000000000000000000602082015260405191612c2c8361032a565b60008352612e2b565b9080612c54575b1561137b578060208061163b93518301019101612bc5565b506020815114612c3c565b612cc26001600160a01b038060025416604051916020941684830152838252612c8782610309565b60405190612c9482610309565b601182527f69735369676e657228616464726573732900000000000000000000000000000085830152612e2b565b9080612cdf575b1561137b578161163b9282518301019101612bc5565b5081815114612cc9565b61163b6001600160a01b0360035416604051612d0481610309565b600681527f6941676528290000000000000000000000000000000000000000000000000000602082015260405191612d3b8361032a565b60008352612f33565b61163b906001600160a01b038060065416906040519216602083015260208252612d6d82610309565b60405190612d7a82610309565b601882527f697364656c656761746f724e6f646528616464726573732900000000000000006020830152612ef7565b61163b6001600160a01b0360065416604051612dc481610309565b601381527f67657464656c656761746f72436f756e74282900000000000000000000000000602082015260405191612d3b8361032a565b3d15612e26573d90612e0c82611955565b91612e1a6040519384610346565b82523d6000602084013e565b606090565b803b15612e8d576000926001600160e01b03198360208695519101201690612e7d6024604051809360208201958652612e6d8151809260208686019101610385565b8101036004810184520182610346565b51915afa612e89612dfb565b9091565b505050600090604051612e9f8161032a565b6000815290565b9291612eb491600094612e2b565b9080612eec575b612ec25750565b9091506020818051810103126105245760206001600160a01b03910151612ee881610545565b1690565b506020815114612ebb565b9291612f0591600094612e2b565b9080612f28575b612f135750565b61163b91925060208082518301019101612bc5565b506020815114612f0c565b9291612f4191600094612e2b565b9080612f66575b612f4f5750565b909150602081805181010312610524576020015190565b506020815114612f48565b90602082519201516001600160e01b0319908181169360048110612f9457505050565b60040360031b82901b16169150565b9190916001600160a01b038116156125dd57600091829184519160208601915af190612fcd612dfb565b9115612fd7575090565b80516000919060041161303b57612fee9150612f71565b815115612ffe5750805190602001fd5b6040517f21c09d340000000000000000000000000000000000000000000000000000000081526001600160e01b0319919091166004820152602490fd5b50612fee56fea2646970667358221220ccf666624bfd2b27509b2d347c6a3a1c4913ed132f6fd96c3824ce5a2934056564736f6c634300081400336080346200009e57601f62005ba738819003918201601f19168301916001600160401b03831184841017620000a3578084926020946040528339810103126200009e57516001600160a01b038116908190036200009e5780156200008c5760018060a01b03193381600154161760015560005416176000556001601155604051615aed9081620000ba8239f35b60405163e6c4247b60e01b8152600490fd5b600080fd5b634e487b7160e01b600052604160045260246000fdfe60806040526004361015610018575b361561001657005b005b60003560e01c8063033eeffb146103a85780630e5fd00b146103a35780631157a8491461039e57806312065fe01461039957806313508e371461039457806313cf3d551461038f5780631bb49f021461038a5780631c53c280146103855780631f185d16146103805780632a687c871461037b5780632bbae52e146103765780632fefc0bf1461037157806332ff4eab1461036c578063339459a61461036757806333b59a5b146103625780633a7b55b81461035d5780633b9b7955146103585780633baee0ea14610353578063419cb27b1461034e57806342cc9d5714610349578063445850971461034457806344668f231461033f5780634d1ec4521461033a5780634f0f4aa914610335578063509222cd1461033057806350db85d11461032b57806361ea720814610326578063629d671e1461032157806365d2fbd31461031c5780636a811244146103175780636b90905b146103125780636fb412ab1461030d57806376fe6c45146103085780637818cdd71461030357806380f85e33146102fe578063849c22ad146102f9578063896c354a146102f45780638da5cb5b146102ef57806395f72f49146102ea57806398b3f215146102e5578063a1f7f539146102e0578063a89d693b146102db578063af484526146102d6578063b1c49079146102d1578063b366335e146102cc578063b90306ad146102c7578063c43792e3146102c2578063c54e44b0146102bd578063c871372b146102b8578063d1e0bbc6146102b3578063dcb3fc4a146102ae578063e01ad5fd146102a9578063e0a9bc2b146102a4578063eb95c6621461029f578063f3ca71241461029a578063fd38093b146102955763fdc10bc90361000e576135ee565b61357e565b613552565b613526565b61350b565b613440565b6132c1565b613287565b613208565b613182565b613156565b613048565b612fd2565b612eb5565b612e84565b612d65565b612cc1565b612c95565b612c1f565b612bf8565b612bb8565b612b89565b612b4f565b612af6565b6129d8565b612842565b612705565b6122e9565b611df6565b611db8565b611d9a565b611c71565b611c1d565b611b38565b611ad7565b611ab9565b611a81565b611a52565b611a1e565b611592565b611543565b6113d7565b6111d0565b610af9565b610a83565b610a4b565b610a02565b610965565b61087a565b610845565b6107ee565b61057c565b610533565b610517565b61043a565b6103ea565b346103d45760203660031901126103d45760043560005260196020526020604060002054604051908152f35b600080fd5b6001600160a01b038116036103d457565b346103d45760203660031901126103d4576020600435610409816103d9565b6001600160a01b03809116600052601282526040600020546000526015825260046040600020015416604051908152f35b346103d45760203660031901126103d45760043561045661387a565b600090808252601560205261047460ff600160408520015416614156565b338252601260205261048b60408320548214614156565b808252601e60205260ff600160408420015416156104d3576104ba6104c691600052601e602052604060002090565b60016000918281550155565b6104d06001601155565b80f35b606460405162461bcd60e51b815260206004820152601360248201527f6e65737465642e7265712e6e6f746578697374000000000000000000000000006044820152fd5b346103d45760003660031901126103d457602047604051908152f35b346103d45760203660031901126103d457600435600052601e6020526060604060002060ff600182549201546040519283528181161515602084015260081c1615156040820152f35b346103d4576020806003193601126103d457600490813561059b61387a565b6105c46105bf60016105b7846000526015602052604060002090565b015460ff1690565b613fc8565b6106016105fa6105ee6105e1846000526013602052604060002090565b546001600160a01b031690565b6001600160a01b031690565b3314614156565b816106176105ee6000546001600160a01b031690565b6040519485809263111ea8c160e21b82525afa9283156107e9576000936107ba575b506106976106756106576105e1846000526013602052604060002090565b6040519182918683019190916001600160a01b036020820193169052565b0394610689601f1996878101845283612ab3565b6106916141c2565b90615926565b906001600160a01b0382161515806107b0575b6106b9575b6100166001601155565b6107a69361074461073261073e6106f060046106e26107a1976000526015602052604060002090565b01546001600160a01b031690565b6040517f4fb2e45d00000000000000000000000000000000000000000000000000000000898201526001600160a01b0390911660248201529182906044820190565b03848101835282612ab3565b846159f2565b507fa3e884b000000000000000000000000000000000000000000000000000000000604051948501528361079560248201906007606060808401936000815260006020820152600060408201520152565b03908101845283612ab3565b6159f2565b50388080806106af565b50813115156106aa565b6107db919350823d84116107e2575b6107d38183612ab3565b8101906141a1565b9138610639565b503d6107c9565b6141b6565b346103d45760203660031901126103d457602060043561080d816103d9565b60406001600160a01b039182600091168152601284528181205481526015845260028282200154815260138452205416604051908152f35b346103d45760203660031901126103d457600435600052601360205260206001600160a01b0360406000205416604051908152f35b346103d4576020806003193601126103d4576108f960043561089b816103d9565b6001600160a01b038060025416906040519216848301528382526108be82612a5f565b604051906108cb82612a5f565b601182527f69735369676e6572286164647265737329000000000000000000000000000000858301526158e4565b91908061095b575b1561093157818161091b9261092d94518301019101615680565b60405190151581529081906020820190565b0390f35b60046040517f3204506f000000000000000000000000000000000000000000000000000000008152fd5b5080825114610901565b346103d45760403660031901126103d457602435610981615698565b156109f15761098f3361571d565b80156109dd575b156109cc57600090808252601a60205260408220549060043582018092116109c7578252601a602052604082205580f35b613849565b600460405163ea8e4eb560e01b8152fd5b50336001600160a01b036005541614610996565b6004604051634ee2123760e11b8152fd5b346103d45760203660031901126103d457600480356000908152601560209081526040918290209283015460059093015482516001600160a01b03948516815293169083015290f35b346103d45760203660031901126103d457600435600052601560205260206001600160a01b0360056040600020015416604051908152f35b346103d45760403660031901126103d457602435610a9f615698565b156109f157610aad3361571d565b8015610ae5575b156109cc57600090808252601d60205260408220549060043582018092116109c7578252601d602052604082205580f35b50336001600160a01b036005541614610ab4565b346103d45760003660031901126103d457610b1f6105ee6000546001600160a01b031690565b604051907f97f3815a000000000000000000000000000000000000000000000000000000008252602082600481845afa9182156107e9576000926111af575b50604051917fcfbffe53000000000000000000000000000000000000000000000000000000008352602083600481855afa9283156107e95760009361118e575b50604051907fab6e844f000000000000000000000000000000000000000000000000000000008252602082600481865afa9182156107e95760009261116d575b50604051917f14d8d024000000000000000000000000000000000000000000000000000000008352602083600481875afa9283156107e95760009361114c575b50604051927fd1f956b1000000000000000000000000000000000000000000000000000000008452602084600481885afa9384156107e95760009461112b575b50604051937fe61dfd58000000000000000000000000000000000000000000000000000000008552602085600481895afa9485156107e95760009561110a575b506040517fe09d394d0000000000000000000000000000000000000000000000000000000081526020816004818a5afa9081156107e9576000916110eb575b506040517f52b06d640000000000000000000000000000000000000000000000000000000081526020816004818b5afa9081156107e9576000916110cc575b506040517f013cf08b00000000000000000000000000000000000000000000000000000000815260006004820152916020836024818c5afa9283156107e9576000936110ab575b50604051977f5e09dbe70000000000000000000000000000000000000000000000000000000089526020896004818d5afa9485156107e95760049960009661108a575b5060208b6040519b8c80927faa0ddc160000000000000000000000000000000000000000000000000000000082525afa9687156107e95760049a600098611069575b5060208c6040519c8d80927f640274270000000000000000000000000000000000000000000000000000000082525afa9889156107e95760049b60009a611048575b5060208d6040519d8e80927f30125cf50000000000000000000000000000000000000000000000000000000082525afa9a8b156107e9578d60049d60009d611026575b506020906040519e8f80927f24768d910000000000000000000000000000000000000000000000000000000082525afa9c8d156107e95760009d611005575b50604051809e81907f9dc969a80000000000000000000000000000000000000000000000000000000082525a92600491602094fa9d8e156107e95760009e610fe4575b50610ef8612ad5565b6001600160a01b0390911681529d8e906001600160a01b0316602082015260400190610f2c91906001600160a01b03169052565b6001600160a01b031660608d01526001600160a01b031660808c01526001600160a01b031660a08b01526001600160a01b031660c08a01526001600160a01b031660e08901526001600160a01b03166101008801526001600160a01b03166101208701526001600160a01b03166101408601526001600160a01b03166101608501526001600160a01b03166101808401526001600160a01b03166101a08301526001600160a01b03166101c08201526100169061537f565b610ffe919e5060203d6020116107e2576107d38183612ab3565b9c38610eef565b61101f919d5060203d6020116107e2576107d38183612ab3565b9b38610eac565b6020919d5061104190823d84116107e2576107d38183612ab3565b9c90610e6d565b611062919a5060203d6020116107e2576107d38183612ab3565b9838610e2a565b61108391985060203d6020116107e2576107d38183612ab3565b9638610de8565b6110a491965060203d6020116107e2576107d38183612ab3565b9438610da6565b6110c591935060203d6020116107e2576107d38183612ab3565b9138610d63565b6110e5915060203d6020116107e2576107d38183612ab3565b38610d1c565b611104915060203d6020116107e2576107d38183612ab3565b38610cdd565b61112491955060203d6020116107e2576107d38183612ab3565b9338610c9e565b61114591945060203d6020116107e2576107d38183612ab3565b9238610c5e565b61116691935060203d6020116107e2576107d38183612ab3565b9138610c1e565b61118791925060203d6020116107e2576107d38183612ab3565b9038610bde565b6111a891935060203d6020116107e2576107d38183612ab3565b9138610b9e565b6111c991925060203d6020116107e2576107d38183612ab3565b9038610b5e565b346103d4576040806003193601126103d4576024356111ed615698565b15611399576111fb3361571d565b8015611385575b156113755760009161121e6105ee84546001600160a01b031690565b8151809163111ea8c160e21b825281600460209485935afa9081156107e9578591611358575b5084916004355b85811115611257578680f35b8451828101828152819003808252601f19916112889161127a9060200182612ab3565b61128261530d565b866159b2565b61129c83600052601a602052604060002090565b55875b600881106112b75750506112b290613b34565b61124b565b8651848101848152602081018390526112ee91906112e090829060400103858101835282612ab3565b6112e8615346565b876159b2565b811561132c575b906113279161132182611312876000526016602052604060002090565b90600052602052604060002090565b55613b34565b61129f565b959061133b611327928861392d565b61134f85600052601d602052604060002090565b559050856112f5565b61136f9150823d84116107e2576107d38183612ab3565b38611244565b6004825163ea8e4eb560e01b8152fd5b50336001600160a01b036005541614611202565b60048251634ee2123760e11b8152fd5b60e0810192916000915b600783106113c057505050565b6001908251815260208091019201920191906113b3565b346103d45760203660031901126103d45761092d6004356115316115216040519261140184612a7b565b60e036853761142d61141d826000526017602052604060002090565b6001600052602052604060002090565b548452611457611447826000526017602052604060002090565b6002600052602052604060002090565b546020850152611484611474826000526017602052604060002090565b6003600052602052604060002090565b5460408501526114b16114a1826000526017602052604060002090565b6004600052602052604060002090565b5460608501526114de6114ce826000526017602052604060002090565b6005600052602052604060002090565b54608085015261150b6114fb826000526017602052604060002090565b6006600052602052604060002090565b5460a08501526000526017602052604060002090565b6007600052602052604060002090565b5460c0820152604051918291826113a9565b346103d45760003660031901126103d45760206001600160a01b0360005416604051908152f35b60409060031901126103d457600435611582816103d9565b9060243561158f816103d9565b90565b346103d4576115a03661156a565b6115a861387a565b61092d6115f36115c76115b9613638565b6115c1613650565b33615926565b6116136115dd6115d5613638565b6115c1613689565b6001600160a01b039386851693851684146136c2565b8361160b6105ee82600054166001600160a01b031690565b91161461370d565b61161e811515614075565b61163b846001600160a01b03166000526012602052604060002090565b54158015611a13575b61164d906140c0565b61167561166d866001600160a01b03166000526012602052604060002090565b54151561410b565b6116ab60056106e261169a886001600160a01b03166000526012602052604060002090565b546000526015602052604060002090565b6040517f880cdc310000000000000000000000000000000000000000000000000000000060208201526001600160a01b03861660248201529092906117049080604481015b03946107a1601f1996878101845283612ab3565b5061172d6105ee60046106e261169a8a6001600160a01b03166000526012602052604060002090565b6119a0575b61174f866001600160a01b03166000526012602052604060002090565b5461176d866001600160a01b03166000526012602052604060002090565b556117be856117a3611792896001600160a01b03166000526012602052604060002090565b546000526013602052604060002090565b906001600160a01b03166001600160a01b0319825416179055565b6118003360046117e461169a896001600160a01b03166000526012602052604060002090565b01906001600160a01b03166001600160a01b0319825416179055565b85161415908161197b575b611828846001600160a01b03166000526012602052604060002090565b549361184360056106e2876000526015602052604060002090565b956118726105e16002611860896000526015602052604060002090565b01546000526013602052604060002090565b9315611913576107a16118dd936118916009546001600160a01b031690565b6040517fe3d1d5bf0000000000000000000000000000000000000000000000000000000060208201526001600160a01b0394851660248201529490931660448501528360648101610795565b505b6118e96001601155565b60405193849384916040919493606084019584526001600160a01b03809216602085015216910152565b61079591506107a1611975936119316009546001600160a01b031690565b6040517f9498d88b0000000000000000000000000000000000000000000000000000000060208201526001600160a01b039094166024850152929384906044820190565b506118df565b600061199a866001600160a01b03166000526012602052604060002090565b5561180b565b611a0d6119c860046106e261169a8a6001600160a01b03166000526012602052604060002090565b6040517f0399c93c000000000000000000000000000000000000000000000000000000006020820152336024820152906107a182604481015b03878101845283612ab3565b50611732565b508482168114611644565b346103d45760203660031901126103d4576004356000526015602052602060ff600160406000200154166040519015158152f35b346103d45760203660031901126103d45760043560005260156020526020600360406000200154604051908152f35b346103d45760203660031901126103d457600435600052601560205260206001600160a01b0360046040600020015416604051908152f35b346103d45760003660031901126103d4576020601f54604051908152f35b346103d45760203660031901126103d457600435611af4816103d9565b6001600160a01b0390811660009081526012602090815260408083205483526015825280832060020154808452601383529281902054815193845290931690820152f35b346103d45760203660031901126103d457600435806000526015602052604060002054601360205261092d6001600160a01b0380604060002054169360156020526040600020916004600284015493015416611ba360056106e2846000526015602052604060002090565b906003611bd3611bc260016105b7876000526015602052604060002090565b946000526015602052604060002090565b01549360405197889788939160c09591989796939260e086019986526001600160a01b03938480931660208801526040870152166060850152166080830152151560a08201520152565b346103d45760203660031901126103d4576001600160a01b03600435611c42816103d9565b1660005260126020526040600020546000526015602052602060ff600160406000200154166040519015158152f35b346103d457611c7f3661156a565b90611c88615698565b156109f157611c963361571d565b8015611d86575b156109cc5781611cb491611caf61387a565b613b43565b806000526015602052611d58611d44611d52611d026001600160a01b03958660056040600020015416966040519116602082015260208152611cf581612a5f565b611cfd6138b5565b615977565b6040517f654c668e0000000000000000000000000000000000000000000000000000000060208201526024810191909152600060448201529182906064820190565b03601f198101835282612ab3565b836159f2565b50611d6281614013565b611d6c6001601155565b604080519182526001600160a01b03929092166020820152f35b50336001600160a01b036005541614611c9d565b346103d45760003660031901126103d4576020601454604051908152f35b346103d45760203660031901126103d4576001600160a01b03600435611ddd816103d9565b1660005260126020526020604060002054604051908152f35b346103d4576020806003193601126103d457600435611e1361387a565b6001611e306105bf826105b7856000526015602052604060002090565b611e58611e50336001600160a01b03166000526012602052604060002090565b548314614156565b611e6c82600052601e602052604060002090565b918183019260ff8454611e808282166143fa565b60081c166120fe5750600291611ead83611ea4846000526015602052604060002090565b01541515614490565b6000815b611fcd575b505090611f7282611f4f6106af966001600160a01b03611efd60056106e288611eeb60009b6000526015602052604060002090565b01546000526015602052604060002090565b16611f83575b611f1c60056106e2856000526015602052604060002090565b631867546560e21b604051928301526107a182611f4160248201906001602083019252565b03601f198101845283612ab3565b508454611f629060081c60ff1682614528565b6000526015602052604060002090565b0155805461ff001916610100179055565b611fc7611fa360056106e288611eeb886000526015602052604060002090565b604051636f58dd0f60e11b8482015260006024820152906107a18260448101611f41565b50611f03565b600380611fe886611eeb876000526015602052604060002090565b01548210156120f8578361202261201884846120128a611eeb876000526015602052604060002090565b01613e87565b90549060031b1c90565b14612037575061203190613b34565b81611eb1565b611f7292506106af966120ee826120d087956120b761209d612018896120978760009f9e8f611eeb611f4f9e61207e83611eeb612090966000526015602052604060002090565b01956000526015602052604060002090565b015461391e565b90613e87565b91846120128c611eeb8c6000526015602052604060002090565b90919082549060031b91821b91600019901b1916179055565b6120e887611eeb876000526015602052604060002090565b016144db565b9650509192611eb6565b50611eb6565b81925093612219946121a86121a26104ba96612134600261212c612208986000526015602052604060002090565b015415614445565b61216e8760036121688754806002612156866000526015602052604060002090565b01556000526015602052604060002090565b01613ea4565b83546001600160a01b0361219160056106e2846000526015602052604060002090565b166122a2575b505460081c60ff1690565b85614528565b6121c46105ee60046106e2876000526015602052604060002090565b61221e575b506121e360056106e2856000526015602052604060002090565b631867546560e21b604051928301526107a182611f4160248201906000602083019252565b50600052601e602052604060002090565b6106af565b611f4161229b916107a16122596105e161224760046106e28b6000526015602052604060002090565b93546000526013602052604060002090565b6040517f1499c59200000000000000000000000000000000000000000000000000000000878201526001600160a01b0390911660248201529283906044820190565b50386121c9565b6122be60056106e26122e2936000526015602052604060002090565b604051636f58dd0f60e11b8882015260016024820152906107a18260448101611f41565b5038612197565b346103d4576040806003193601126103d45760043561230661387a565b6123226105bf60016105b7846000526015602052604060002090565b6123486123416105ee60046106e2856000526015602052604060002090565b3314614303565b6123506138ee565b61092d61010061236f60056106e2856000526015602052604060002090565b612493601f549486805193826123d66123c86020977f02a085f20000000000000000000000000000000000000000000000000000000089820152806116f060249d8e803590840160209093929193604081019481520152565b8780825183010191016148a4565b988951926123e9888c019485519061386d565b978b6123fa8782019a8b519061386d565b61240a606083019182519061386d565b9061241b608084019283519061386d565b97868a8961242f60a088019c8d519061386d565b9661244861244360c08301998a519061386d565b6152b3565b888151612689575b50509091508251612610575b505050805161259f575b508051612535575b5061247c865182519061386d565b6124b8575b5050505050505060e0860151906149d5565b51920151926124a26001601155565b5191825260208201929092529081906040820190565b6125289663a9059cbb60e01b966107a195612503610795946124f96105e16124e8600f546001600160a01b031690565b9b6000526013602052604060002090565b935190519061386d565b92519889958601528401602090939291936001600160a01b0360408201951681520152565b5086388281808080612481565b6125989061254b6010546001600160a01b031690565b6107a16125656105e18a6000526013602052604060002090565b92518b5163a9059cbb60e01b888201526001600160a01b0390941689850190815260208101919091528390604001611a01565b503861246e565b612609906125b5600c546001600160a01b031690565b6107a16125cf6105e18b6000526013602052604060002090565b92518c5163a9059cbb60e01b898201526001600160a01b039094168a85019081526020810191909152839060400103888101845283612ab3565b5038612466565b6107a1612680936126746126436105e1612632600e546001600160a01b031690565b956000526013602052604060002090565b9151945194859263a9059cbb60e01b8c8501528d8401602090939291936001600160a01b0360408201951681520152565b03898101845283612ab3565b5038898861245c565b6126ed63a9059cbb60e01b946107a1936126f9976126c66105e16126b5600d546001600160a01b031690565b986000526013602052604060002090565b915192519788958601528401602090939291936001600160a01b0360408201951681520152565b038a8101845283612ab3565b508f8a89899288612450565b346103d45760403660031901126103d457600435602435612724615698565b156109f1576127323361571d565b801561282e575b156109cc576128006106af9261274d61387a565b80600052601560205261276c6105bf600160406000200160ff90541690565b61278d61278860016105b7866000526015602052604060002090565b614364565b6127f06127e66127d76127af60056106e2886000526015602052604060002090565b604051906127c982611f4160208201906000602083019252565b6127d16137a3565b90615829565b602080825183010191016137dc565b50505015156137fe565b600052601e602052604060002090565b90600182019161282061281b612817855460ff1690565b1590565b6143af565b55805460ff19166001179055565b50336001600160a01b036005541614612739565b346103d45760403660031901126103d45760043560243561286161387a565b61287d6105bf60016105b7856000526015602052604060002090565b61289a6105fa6105ee6105e1856000526013602052604060002090565b6128cc6128b660056106e2856000526015602052604060002090565b6128be6141fb565b6128c6613625565b91615829565b90806128e2602093848082518301019101614234565b10156128f2576100166001601155565b826129c96001600160a01b03927ff526f68a00000000000000000000000000000000000000000000000000000000946129bd6129a26105e161298d61297f61296361294f60056106e26129cf9f6000526015602052604060002090565b976040519182918983019190602083019252565b0397612977601f19998a8101845283612ab3565b6127d1614243565b85808251830101910161427c565b99925050506000526013602052604060002090565b6129aa613638565b90604051988994850152602484016142c7565b03908101855284612ab3565b166159f2565b503880806106af565b346103d45760203660031901126103d45760206004356129f7816103d9565b6001600160a01b03809116600052601282526040600020546000526015825260056040600020015416604051908152f35b634e487b7160e01b600052604160045260246000fd5b6060810190811067ffffffffffffffff821117612a5a57604052565b612a28565b6040810190811067ffffffffffffffff821117612a5a57604052565b60e0810190811067ffffffffffffffff821117612a5a57604052565b6020810190811067ffffffffffffffff821117612a5a57604052565b90601f8019910116810190811067ffffffffffffffff821117612a5a57604052565b604051906101e0820182811067ffffffffffffffff821117612a5a57604052565b346103d4576101003660031901126103d45736604312156103d457604051612b1d81612a7b565b610104813682116103d4576024905b828210612b3f5761001684600435614fb3565b8135815260209182019101612b2c565b346103d45760403660031901126103d457600435600052601660205260406000206024356000526020526020604060002054604051908152f35b346103d45760203660031901126103d45760043560005260156020526020600260406000200154604051908152f35b346103d45760403660031901126103d45760043560005260156020526020612be96024356003604060002001613e87565b90549060031b1c604051908152f35b346103d45760003660031901126103d45760206001600160a01b0360015416604051908152f35b346103d45760403660031901126103d457602435612c3b615698565b156109f157612c493361571d565b8015612c81575b156109cc57600090808252601c60205260408220549060043582018092116109c7578252601c602052604082205580f35b50336001600160a01b036005541614612c50565b346103d45760203660031901126103d457600435600052601d6020526020604060002054604051908152f35b346103d45760003660031901126103d4576020612d2e6001600160a01b0360065416604051612cef81612a5f565b601381527f67657464656c656761746f72436f756e742829000000000000000000000000008482015260405191612d2583612a97565b600083526159b2565b604051908152f35b610100810192916000915b60088310612d4e57505050565b600190825181526020809101920192019190612d41565b346103d45760203660031901126103d45761092d600435612e72611521612d8a615236565b92612db1612da2826000526016602052604060002090565b60008052602052604060002090565b548452612dcb61141d826000526016602052604060002090565b546020850152612de8611447826000526016602052604060002090565b546040850152612e05611474826000526016602052604060002090565b546060850152612e226114a1826000526016602052604060002090565b546080850152612e3f6114ce826000526016602052604060002090565b5460a0850152612e5c6114fb826000526016602052604060002090565b5460c08501526000526016602052604060002090565b5460e082015260405191829182612d36565b346103d45760203660031901126103d4576020612eab600435612ea6816103d9565b61571d565b6040519015158152f35b346103d457612f82612ec63661156a565b90612ecf61387a565b612f18612edd6115b9613638565b612ee86115d5613638565b90612f016001600160a01b0391828088169116146136c2565b61160b6105ee82600054166001600160a01b031690565b612f45612f4060016105b761169a856001600160a01b03166000526012602052604060002090565b613758565b612f736127e66127d76127af60056106e261169a876001600160a01b03166000526012602052604060002090565b612f7b6138ee565b3390613d55565b612f9b612da2601f546000526016602052604060002090565b612fa5815461385f565b9055612faf6152df565b612fc860056106e2836000526015602052604060002090565b90611d6281614013565b346103d45760203660031901126103d457612feb615698565b156109f157612ff93361571d565b8015613034575b156109cc5761300d6157a7565b601f5410613024575b610016600435601f5461393a565b61302c6157a7565b601f55613016565b50336001600160a01b036005541614613000565b346103d45760203660031901126103d457600435613064615698565b156109f1576001600160a01b036005541633036109cc57600090600460206130966105ee85546001600160a01b031690565b604051928380927f46f991ac0000000000000000000000000000000000000000000000000000000082525afa80156107e95783808481949382948391613138575b505af16130e26157f9565b5015610931577fcdcc745fe377b103b45fa0cec23ae3ef93d6fc6a84a01f0d18c40b354dd1d5d86131326131216105ee600b546001600160a01b031690565b604051938452929081906020820190565b0390a280f35b613150915060203d81116107e2576107d38183612ab3565b386130d7565b346103d45760203660031901126103d457600435600052601b6020526020604060002054604051908152f35b346103d45760203660031901126103d45760043561319f816103d9565b803b60006131ac82613609565b926131ba6040519485612ab3565b82845260208401903c602d8151106131de57602a602091015160601c604051908152f35b60046040517fbaf3f0f7000000000000000000000000000000000000000000000000000000008152fd5b60403660031901126103d45760043561321f61387a565b600090808252601560205261323d60ff600160408520015416613fc8565b8152601560205261327e6001600160a01b036005604084200154166040519063d3abb8a360e01b60208301526024356024830152602482526107a182612a3e565b50600160115580f35b346103d45760403660031901126103d457600435600052601860205260406000206024356000526020526020604060002054604051908152f35b346103d45760c03660031901126103d4576106af6004356024356132e4816103d9565b606435916133e46133d5608435936132fa61387a565b6133166105bf60016105b7876000526015602052604060002090565b6133356123416105ee60046106e2886000526015602052604060002090565b61333d6138ee565b6133468561525b565b61334f86615287565b61336860056106e2866000526015602052604060002090565b601f546040517fa66303040000000000000000000000000000000000000000000000000000000060208201526001600160a01b039093166024840152604480359084015260648301889052608483019690965260a480359083015260c48201959095528060e481016116f0565b6020808251830101910161434e565b92816133f2575b5050614cf7565b613438916107a16107959261340f600b546001600160a01b031690565b60405163a9059cbb60e01b60208201523360248201526044810194909452929384906064820190565b5038806133eb565b346103d4576020806003193601126103d45761092d9060043590613463826103d9565b6134c76001600160a01b039283600654169360405191168382015282815261348a81612a5f565b60405161349681612a5f565b601881527f697364656c656761746f724e6f64652861646472657373290000000000000000848201526000946158e4565b919080613501575b6134e8575b505060405190151581529081906020820190565b6134fa92508082518301019101615680565b38806134d4565b50808251146134cf565b346103d45760003660031901126103d4576020612eab615698565b346103d45760203660031901126103d457600435600052601a6020526020604060002054604051908152f35b346103d45760203660031901126103d457600435600052601c6020526020604060002054604051908152f35b346103d4576040806003193601126103d4576001600160a01b036004356135a4816103d9565b166000818152601260208181528483205483526019815284832054938352908152838220548252601881528382206024358352815290839020549251918252810191909152604090f35b346103d45760003660031901126103d4576020612d2e6157a7565b67ffffffffffffffff8111612a5a57601f01601f191660200190565b6040519061363282612a97565b60008252565b60405161364481612a97565b60008152906000368137565b6040519061365d82612a5f565b600782527f6f776e65722829000000000000000000000000000000000000000000000000006020830152565b6040519061369682612a5f565b600c82527f67657448657862617365282900000000000000000000000000000000000000006020830152565b156136c957565b606460405162461bcd60e51b815260206004820152601760248201527f6e65737465642e696e76616c69642e696e7374616e63650000000000000000006044820152fd5b1561371457565b606460405162461bcd60e51b815260206004820152601660248201527f6e65737465642e696e76616c69642e68657862617365000000000000000000006044820152fd5b1561375f57565b606460405162461bcd60e51b815260206004820152601860248201527f6e65737465642e706172656e742e6e6f742e65786973747300000000000000006044820152fd5b604051906137b082612a5f565b601282527f6765744e6f64654c422875696e743235362900000000000000000000000000006020830152565b91908260809103126103d4578151916020810151916060604083015192015190565b1561380557565b606460405162461bcd60e51b815260206004820152601960248201527f6e65737465642e706172656e742e6e6f2e627573696e657373000000000000006044820152fd5b634e487b7160e01b600052601160045260246000fd5b90600182018092116109c757565b919082018092116109c757565b60026011541461388b576002601155565b60046040517f3ee5aeb5000000000000000000000000000000000000000000000000000000008152fd5b604051906138c282612a5f565b601d82527f55736572546f5769746864726177446f6c6c61722861646472657373290000006020830152565b6138f66157a7565b601f541061390e575b61390c601e601f5461393a565b565b6139166157a7565b601f556138ff565b6000198101919082116109c757565b919082039182116109c757565b90613952612da2836000526016602052604060002090565b541580613adf575b80613ad6575b613968575050565b6139849061397e6139788461391e565b9161391e565b9061393a565b6139a3612da26139938361391e565b6000526016602052604060002090565b546139bb612da2836000526016602052604060002090565b556139cb61141d6139938361391e565b546139e361141d836000526016602052604060002090565b556139f36114476139938361391e565b54613a0b611447836000526016602052604060002090565b55613a1b6114746139938361391e565b54613a33611474836000526016602052604060002090565b55613a436114a16139938361391e565b54613a5b6114a1836000526016602052604060002090565b55613a6b6114ce6139938361391e565b54613a836114ce836000526016602052604060002090565b55613a936114fb6139938361391e565b54613aab6114fb836000526016602052604060002090565b55613ad3611521613ac16115216139938561391e565b54926000526016602052604060002090565b55565b50801515613960565b506001821161395a565b15613af057565b606460405162461bcd60e51b815260206004820152601560248201527f6e65737465642e616c72656164792e65786973747300000000000000000000006044820152fd5b60001981146109c75760010190565b90613b74613b6f61281760016105b761169a866001600160a01b03166000526012602052604060002090565b613ae9565b613b87613b82601454613b34565b601455565b613bde60145492613ba6836117a3866000526013602052604060002090565b83613bc4846001600160a01b03166000526012602052604060002090565b556001600160a01b03166000526012602052604060002090565b5490613bea8383613ecc565b613c146004613c03856000526015602052604060002090565b016001600160a01b03198154169055565b613c47613c31613c2c6008546001600160a01b031690565b613df1565b60056117e4866000526015602052604060002090565b613cd2613c6360056106e2866000526015602052604060002090565b91613c796105ee6000546001600160a01b031690565b6040517f52902c590000000000000000000000000000000000000000000000000000000060208201526001600160a01b0391821660248201529116604482015260648082018690528152601f19926107a1608483612ab3565b5081151580613d2b575b613ce557505090565b613d0160056106e2613d27946000526015602052604060002090565b604051636f58dd0f60e11b602082015260016024820152916107a1908360448101610795565b5090565b506001600160a01b03613d4d60056106e2856000526015602052604060002090565b161515613cdc565b91613d81613b6f61281760016105b761169a866001600160a01b03166000526012602052604060002090565b613d8f613b82601454613b34565b613c14613dcf60145494613db1846117a3886000526013602052604060002090565b85613bc4856001600160a01b03166000526012602052604060002090565b5492613ddb8585613ecc565b60046117e4866000526015602052604060002090565b6e5af43d82803e903d91602b57fd5bf390763d602d80600a3d3981f3363d3d373d3d3d363d7300000062ffffff8260881c161760005260781b17602052603760096000f0906001600160a01b03821615613e4757565b60046040517fb06ebf3d000000000000000000000000000000000000000000000000000000008152fd5b634e487b7160e01b600052603260045260246000fd5b8054821015613e9f5760005260206000200190600090565b613e71565b9081549168010000000000000000831015612a5a57826120b791600161390c95018155613e87565b91909160009280845260209160158352604080862095600294838689015584600198613f018a8201600160ff19825416179055565b5587613f17866000526018602052604060002090565b83805282528489858520555b613f3257505050505050509050565b613fa0613f8f828b8a9414613fa9575b613f56886000526018602052604060002090565b8187528552868620613f68815461385f565b9055613f7e886000526019602052604060002090565b613f88815461385f565b9055613b34565b956000526015602052604060002090565b01549384613f23565b613fc38960036121688b6000526015602052604060002090565b613f42565b15613fcf57565b606460405162461bcd60e51b815260206004820152601560248201527f6e65737465642e757365722e6e6f7461637469766500000000000000000000006044820152fd5b80600052601560205261403060ff60016040600020015416613fc8565b60005260156020526140726001600160a01b03600560406000200154166040519063d3abb8a360e01b602083015260016024830152602482526107a182612a3e565b50565b1561407c57565b606460405162461bcd60e51b815260206004820152601360248201527f6e65737465642e7a65726f2e61646472657373000000000000000000000000006044820152fd5b156140c757565b606460405162461bcd60e51b815260206004820152601460248201527f6e65737465642e7461726765742e6578697374730000000000000000000000006044820152fd5b1561411257565b606460405162461bcd60e51b815260206004820152601760248201527f6e65737465642e736f757263652e6e6f744578697374730000000000000000006044820152fd5b1561415d57565b606460405162461bcd60e51b815260206004820152601560248201527f6e65737465642e696e76616c69642e73656e64657200000000000000000000006044820152fd5b908160209103126103d4575161158f816103d9565b6040513d6000823e3d90fd5b604051906141cf82612a5f565b601382527f55736572546f496e7374286164647265737329000000000000000000000000006020830152565b6040519061420882612a5f565b600b82527f6d696e74436f756e7428290000000000000000000000000000000000000000006020830152565b908160209103126103d4575190565b6040519061425082612a5f565b600e82527f6d696e74732875696e74323536290000000000000000000000000000000000006020830152565b91908260809103126103d4578151916020810151916060604083015192015161158f816103d9565b60005b8381106142b75750506000910152565b81810151838201526020016142a7565b90916001600160a01b03606093168252604060208301526142f781518092816040860152602086860191016142a4565b601f01601f1916010190565b1561430a57565b606460405162461bcd60e51b815260206004820152601b60248201527f6e65737465642e757365722e696e76616c6964696e7374616e636500000000006044820152fd5b91908260409103126103d4576020825192015190565b1561436b57565b606460405162461bcd60e51b815260206004820152601560248201527f6e65737465642e696e76616c69642e706172656e7400000000000000000000006044820152fd5b156143b657565b606460405162461bcd60e51b815260206004820152601760248201527f6e65737465642e7265712e616c726561647965786973740000000000000000006044820152fd5b1561440157565b606460405162461bcd60e51b815260206004820152601460248201527f6e65737465642e7265712e6e6f746578697374730000000000000000000000006044820152fd5b1561444c57565b606460405162461bcd60e51b815260206004820152601860248201527f6e65737465642e757365722e6e6f742e646574616368656400000000000000006044820152fd5b1561449757565b606460405162461bcd60e51b815260206004820152601c60248201527f6e65737465642e757365722e616c72656164792e6465746163686564000000006044820152fd5b805490811561450557600019918201916144f58383613e87565b909182549160031b1b1916905555565b634e487b7160e01b600052603160045260246000fd5b80156109c7576000190190565b90614546614540836000526019602052604060002090565b5461385f565b916002908161455f826000526015602052604060002090565b0154906001938492835b614577575b50505050505050565b600f808511158061489b575b1561489557859060056145a76105ee826106e2876000526015602052604060002090565b6145d4575b50506145c56145cd926000526015602052604060002090565b015493613b34565b9285614569565b865b828111156146cf575050506145c56145cd928460001461466c5761461e614607876000526018602052604060002090565b6146108961391e565b600052602052604060002090565b5461464261463a89611312856000526018602052604060002090565b91825461386d565b9055614658816000526019602052604060002090565b6146638b825461386d565b90555b926145ac565b614683614607876000526018602052604060002090565b546146a761469f89611312856000526018602052604060002090565b91825461392d565b90556146bd816000526019602052604060002090565b6146c88b825461392d565b9055614666565b909192506146eb826106e2886000526015602052604060002090565b6146f5888361392d565b604091876147376147298551806147156020978883019190602083019252565b03946127c9601f1996878101845283612ab3565b8480825183010191016137dc565b50509290878a82158061488d575b61487c57926147cd94926107956147726107a1946106e26147da9b9a986000526015602052604060002090565b94601f9a8c8c5491519889957f7b058ac1000000000000000000000000000000000000000000000000000000008d8801526024870193909594919260809360a086019786526020860152604085015260608401521515910152565b805181018201910161434e565b908715614832575b8082116147ff575050506147f6905b613b34565b908792916145d6565b61480890613b34565b6148218161131285546000526016602052604060002090565b61482b815461385f565b90556147e2565b9190915b828111614849575050506147f690613b34565b806148666148779261131285546000526016602052604060002090565b614870815461391e565b905561451b565b614836565b50505050505050506147f690613b34565b508515614745565b5061456e565b50811515614583565b9061012080838303126103d45781601f840112156103d4576040519281840184811067ffffffffffffffff821117612a5a57604052839181019283116103d457905b8282106148f35750505090565b81518152602091820191016148e6565b6040519061491082612a5f565b600f82527f66726565496e74657276616c73282900000000000000000000000000000000006020830152565b6040519061494982612a5f565b601582527f67657452616e6b5769746841676556616c7565282900000000000000000000006020830152565b6040519061498282612a5f565b601382527f72616e6b436c617573652875696e7432353629000000000000000000000000006020830152565b908160a09103126103d4578051916020820151916040810151916080606083015192015190565b919091600392614a066149ef85546001600160a01b031690565b6149f7613638565b90614a00614903565b906159b2565b9360008092819082948392849185985b600f8a111580614cee575b15614ce0576005614a436105ee826106e2856000526015602052604060002090565b614a70575b506002614a62614a6a926000526015602052604060002090565b015499613b34565b98614a16565b8c614a94614a8c836106e2866000526015602052604060002090565b6128be61493c565b8c614aa960209283808251830101910161434e565b829591951580614c77575b1580614c6e575b8015614c66575b614ad1575b5050505050614a48565b869e8697929394959603614ba5575b50614b62928b6107a18c611f41614b0c614b6899976106e2614b55986000526015602052604060002090565b93601f9a8b5460405197889563208bffb160e21b8c8801526024870193909594919260a09360c08601978652600060208701526040860152606085015260808401521515910152565b8051810182019101614234565b9261385f565b80831015614b8357509098905060028c614a6a8c3880614ac7565b80613f7e614ba09261131285546000526016602052604060002090565b614b68565b9193929a50508a8511614bf8575b509087918c86861080801591614bcf575b50159a929193614ae0565b89881015915081614bf0575b5080614be8575b38614bc4565b508815614be2565b905038614bdb565b995095509350859250614c47614c39614c188b546001600160a01b031690565b60405190614c3182611f41888c83019190602083019252565b6127d1614975565b8680825183010191016149ae565b969350909691509594614c5d859b601f5461392d565b11969091614bb3565b506000614ac2565b508a1515614abb565b99509b50955095509a50614cc0614cb2838d614c31614c9d8f546001600160a01b031690565b60405192830193845291928390602001611f41565b8c80825183010191016149ae565b9e9350909791509695849b859e614cd982601f5461392d565b1199614ab4565b505050505050505050509050565b50801515614a21565b90929192614d106149ef6003546001600160a01b031690565b93600091829083809481938280985b600f8a111580614faa575b15614ce057614d4b6105ee60056106e2846000526015602052604060002090565b614d6f575b6002614a62614d69926000526015602052604060002090565b98614d1f565b8b8a614d906133d5614a8c60056106e2876000526015602052604060002090565b8293919315614f4d575b82151580614f44575b8015614f3b575b614db8575b50505050614d50565b938394819d8d949503614e85575b50614e4c92614b62926107a18c611f418f614df360056106e2614e3d996000526015602052604060002090565b94601f9a8b549060405198899663208bffb160e21b60208901526024880194919260a0949197969360c0870198875260208701526040860152606085015260808401521515910152565b60208082518301019101614234565b80831015614e6357509098905060028a8d38614daf565b80613f7e614e809261131285546000526016602052604060002090565b614e4c565b935050509750828211614ed7575b50898c878b86851080801591614eae575b50159a9291614dc6565b89871015915081614ecf575b5080614ec7575b38614ea4565b508815614ec1565b905038614eba565b935093505050614f1e614f0f614ef56003546001600160a01b031690565b60405190614c3182611f4188602083019190602083019252565b602080825183010191016149ae565b9350909391509291614f338592601f5461392d565b119338614e93565b508b1515614daa565b50891515614da3565b97505050935097505050614f89614f0f614f6f6003546001600160a01b031690565b60405190614c3182611f4187602083019190602083019252565b999350909391509291818a8d829b614fa389601f5461392d565b1197614d9a565b50801515614d2a565b614fbb615698565b156109f157614fc93361571d565b80156150cc575b156109cc57614fdd6138ee565b614fe88115156150e0565b615005614ffd6003546001600160a01b031690565b6128be61512b565b615019602091828082518301019101615164565b9261502e83600052601a602052604060002090565b549160005b6007811061504357505050505050565b806150516150bf92856151e1565b51156147f15761506181886151e1565b518051908482156150c4576150886150999161508061509f958b615203565b9301516151f2565b61509285896151e1565b5190615203565b90615216565b6113216150b6886000526017602052604060002090565b6146108461385f565b615033565b505050613b34565b50336001600160a01b036005541614614fd0565b156150e757565b606460405162461bcd60e51b815260206004820152601260248201527f6e65737465642e696e76616c69642e61676500000000000000000000000000006044820152fd5b6040519061513882612a5f565b601882527f6765744261746368526f79616c7479436c6175736573282900000000000000006020830152565b6102a09081818403126103d45782601f820112156103d457604080519361518a85612a7b565b84938301928184116103d457935b8385106151a757505050505090565b6060858303126103d45782516060916151bf82612a3e565b8651825260209182880151838201528588015186820152815201940193615198565b906007811015613e9f5760051b0190565b90816064029160648304036109c757565b818102929181159184041417156109c757565b8115615220570490565b634e487b7160e01b600052601260045260246000fd5b6040519061010080830183811067ffffffffffffffff821117612a5a57604052368337565b601f5480600052601a6020526040600020549182018092116109c757600052601a602052604060002055565b601f5480600052601b6020526040600020549182018092116109c757600052601b602052604060002055565b601f5480600052601c6020526040600020549182018092116109c757600052601c602052604060002055565b601f5480600052601d60205260406000205490600182018092116109c757600052601d602052604060002055565b6040519061531a82612a5f565b601482527f676574627573696e6573732875696e74323536290000000000000000000000006020830152565b6040519061535382612a5f565b601d82527f67657472616e6b436f756e742875696e743235362c75696e74323536290000006020830152565b6156646101c061390c926153b961539d82516001600160a01b031690565b6001600160a01b03166001600160a01b03196002541617600255565b6153ec6153d060208301516001600160a01b031690565b6001600160a01b03166001600160a01b03196003541617600355565b61541f61540360408301516001600160a01b031690565b6001600160a01b03166001600160a01b03196004541617600455565b61545261543660608301516001600160a01b031690565b6001600160a01b03166001600160a01b03196005541617600555565b61548561546960808301516001600160a01b031690565b6001600160a01b03166001600160a01b03196006541617600655565b6154b861549c60a08301516001600160a01b031690565b6001600160a01b03166001600160a01b03196007541617600755565b6154eb6154cf60c08301516001600160a01b031690565b6001600160a01b03166001600160a01b03196008541617600855565b61551e61550260e08301516001600160a01b031690565b6001600160a01b03166001600160a01b03196009541617600955565b6155526155366101008301516001600160a01b031690565b6001600160a01b03166001600160a01b0319600a541617600a55565b61558661556a6101208301516001600160a01b031690565b6001600160a01b03166001600160a01b0319600b541617600b55565b6155ba61559e6101408301516001600160a01b031690565b6001600160a01b03166001600160a01b0319600c541617600c55565b6155ee6155d26101608301516001600160a01b031690565b6001600160a01b03166001600160a01b0319600d541617600d55565b6156226156066101808301516001600160a01b031690565b6001600160a01b03166001600160a01b0319600e541617600e55565b61565661563a6101a08301516001600160a01b031690565b6001600160a01b03166001600160a01b0319600f541617600f55565b01516001600160a01b031690565b6001600160a01b03166001600160a01b03196010541617601055565b908160209103126103d4575180151581036103d45790565b6156f36001600160a01b03600254166040516156b381612a5f565b600881527f69735361666528290000000000000000000000000000000000000000000000006020820152604051916156ea83612a97565b600083526158e4565b9080615712575b15610931578060208061158f93518301019101615680565b5060208151146156fa565b6157806001600160a01b03806002541660405191602094168483015283825261574582612a5f565b6040519061575282612a5f565b601582527f6973536563757265426173652861646472657373290000000000000000000000858301526158e4565b908061579d575b15610931578161158f9282518301019101615680565b5081815114615787565b61158f6001600160a01b03600354166040516157c281612a5f565b600681527f6941676528290000000000000000000000000000000000000000000000000000602082015260405191612d2583612a97565b3d15615824573d9061580a82613609565b916158186040519384612ab3565b82523d6000602084013e565b606090565b9061583492916158e4565b9060009015615841575090565b604051915061584f82612a97565b815290565b732b835614fcaa301ddfb6e49896e898e272a67795803b156158cb576000926001600160e01b031983602086955191012016906158bb60246040518093602082019586526158ab81518092602086860191016142a4565b8101036004810184520182612ab3565b51915afa6158c76157f9565b9091565b5050506000906040516158dd81612a97565b6000815290565b803b156158cb576000926001600160e01b031983602086955191012016906158bb60246040518093602082019586526158ab81518092602086860191016142a4565b9291615934916000946158e4565b908061596c575b6159425750565b9091506020818051810103126103d45760206001600160a01b03910151615968816103d9565b1690565b50602081511461593b565b6000929161598491615854565b90806159a7575b6159925750565b61158f91925060208082518301019101614234565b50602081511461598b565b9291615984916000946158e4565b90602082519201516001600160e01b03199081811693600481106159e357505050565b60040360031b82901b16169150565b6001600160a01b03811615615a8d57600080918351908260208601915af190615a196157f9565b9115615a23575090565b805160009190600411615a8757615a3a91506159c0565b815115615a4a5750805190602001fd5b6040517f21c09d340000000000000000000000000000000000000000000000000000000081526001600160e01b0319919091166004820152602490fd5b50615a3a565b60046040517fe6c4247b000000000000000000000000000000000000000000000000000000008152fdfea264697066735822122056a4f73f53a0744e131292496b1b125e6b58cebc3e53dd983d8ac7ba1a4f5e0964736f6c63430008140033","linkReferences":{}},"methodIdentifiers":{"dAOAssembly()":"14837455","daocore()":"14d8d024","nested741()":"45cff900","old741()":"5540c5ac","price()":"a035b1fe"},"id":81}