{"abi":[{"type":"constructor","inputs":[{"name":"_hex","type":"address","internalType":"address"},{"name":"_price","type":"address","internalType":"address"},{"name":"_old741","type":"address","internalType":"address"}],"stateMutability":"nonpayable"},{"type":"function","name":"dAOAssembly","inputs":[],"outputs":[{"name":"","type":"address","internalType":"address"}],"stateMutability":"view"},{"type":"function","name":"daocore","inputs":[],"outputs":[{"name":"","type":"address","internalType":"address"}],"stateMutability":"view"},{"type":"function","name":"nested741","inputs":[],"outputs":[{"name":"","type":"address","internalType":"address"}],"stateMutability":"view"},{"type":"function","name":"old741","inputs":[],"outputs":[{"name":"","type":"address","internalType":"address"}],"stateMutability":"view"},{"type":"function","name":"price","inputs":[],"outputs":[{"name":"","type":"address","internalType":"address"}],"stateMutability":"view"}],"bytecode":{"object":"0x6080346101b757601f61867538819003918201601f19168301926001600160401b03929091838511838610176101a15781606092849260409788528339810103126101b75761004d816101bc565b6100648461005d602085016101bc565b93016101bc565b9160018060a01b03199273c0cee8b561cc4f60869776ca5b0b7a295e04f5af846001541617600155855161134f9586820196828810828911176101a15761032c83396001600160a01b039485168088526000979092908190036020019088f0801561018357851686600354161760035587516147f3808201908282108483111761018d576020918391613e82833985815203019088f08015610183578516866002541617600255875191612807808401928484109084111761016f5791839160209361167b8439815203019086f080156101655790838092168560045416176004551683600154161760015516908254161790555161015b90816101d18239f35b86513d87823e3d90fd5b634e487b7160e01b89526041600452602489fd5b88513d89823e3d90fd5b634e487b7160e01b8a52604160045260248afd5b634e487b7160e01b600052604160045260246000fd5b600080fd5b51906001600160a01b03821682036101b75756fe608080604052600436101561001357600080fd5b600090813560e01c90816314837455146100fc5750806314d8d024146100d357806345cff900146100aa5780635540c5ac146100815763a035b1fe1461005857600080fd5b3461007e578060031936011261007e57546040516001600160a01b039091168152602090f35b80fd5b503461007e578060031936011261007e576001546040516001600160a01b039091168152602090f35b503461007e578060031936011261007e576002546040516001600160a01b039091168152602090f35b503461007e578060031936011261007e576004546040516001600160a01b039091168152602090f35b9050346101215781600319360112610121576003546001600160a01b03168152602090f35b5080fdfea26469706673582212206cdac2a3493dc462d289f671d4d439aa26aa7f5aaeaced3d13a8af6bda54c76064736f6c6343000814003360803461009757601f61134f38819003918201601f19168301916001600160401b0383118484101761009c5780849260209460405283398101031261009757516001600160a01b038116908190036100975780156100855760018060a01b03193381600154161760015560005416176000556000600e5560405161129c90816100b38239f35b60405163e6c4247b60e01b8152600490fd5b600080fd5b634e487b7160e01b600052604160045260246000fdfe60806040526004361015610018575b361561001657005b005b60003560e01c806312065fe0146101185780631f185d161461011357806325924f341461010e578063339459a6146101095780633b9b79551461010457806361b7fbd9146100ff5780638da5cb5b146100fa578063a1f7f539146100f5578063af484526146100f0578063b90306ad146100eb578063c54e44b0146100e6578063c89b84fd146100e1578063dbac26e9146100dc578063e01ad5fd146100d7578063e0a9bc2b146100d25763fdc10bc90361000e57610b9d565b610b82565b610abb565b610a79565b61096d565b6108ff565b610817565b6107a0565b610736565b61070d565b61064e565b61061b565b61024e565b61021d565b610156565b3461013457600036600319011261013457602047604051908152f35b600080fd5b6001600160a01b031690565b6001600160a01b0381160361013457565b3461013457602080600319360112610134576101c960043561017781610145565b6002546040516001600160a01b0392831685820152848152911661019a82610bce565b604051906101a782610bce565b601182527069735369676e657228616464726573732960781b85830152611193565b919080610213575b156102015781816101eb926101fd94518301019101610c5f565b60405190151581529081906020820190565b0390f35b604051633204506f60e01b8152600490fd5b50808251146101d1565b3461013457602036600319011261013457602061024460043561023f81610145565b610c74565b6040519015158152f35b34610134576000806003193601126106185761027261026d8254610139565b610139565b60408051634bf9c0ad60e11b81529160049190602080858581855afa9485156104df5786956105f9575b50825163cfbffe5360e01b81529281848681865afa9384156104df5787946105da575b50805163ab6e844f60e01b815282818781875afa9081156104df5788916105bd575b508151630536340960e21b815283818881885afa9081156104df5789916105a0575b50825163d1f956b160e01b81529084828981895afa9182156104df578a92610581575b508351631cc3bfab60e31b81529285848a818a5afa9384156104df578b94610562575b50845163e09d394d60e01b81529486868b818b5afa9586156104df578c96610543575b5080516314ac1b5960e21b815298878a8c818c5afa9788156104df576103b39a8e99610524575b50808c8451809d819263013cf08b60e01b83528201906000602083019252565b03818d5afa998a156104df578c9b8f9b610505575b50818451809d635e09dbe760e01b825281845afa9b8c156104df578f9c6104e4575b50819084519d8e8092635506ee0b60e11b82525afa9b8c156104df578e9c6104b0575b50610416610e42565b9c610421908e610e62565b8c019061042d91610e62565b8a019061043991610e62565b6104469060608a01610e62565b6104539060808901610e62565b6104609060a08801610e62565b61046d9060c08701610e62565b61047a9060e08601610e62565b610488906101008501610e62565b610496906101208401610e62565b6104a4906101408301610e62565b6104ad90610e71565b80f35b816104d1929d508d3d106104d8575b6104c98183610c09565b810190610c47565b9a3861040d565b503d6104bf565b610c3b565b82919c506104fe90823d84116104d8576104c98183610c09565b9b906103ea565b61051d919b50823d84116104d8576104c98183610c09565b99386103c8565b8161053c929a503d8b116104d8576104c98183610c09565b9738610393565b61055b919650873d89116104d8576104c98183610c09565b943861036c565b61057a919450863d88116104d8576104c98183610c09565b9238610349565b610599919250853d87116104d8576104c98183610c09565b9038610326565b6105b79150843d86116104d8576104c98183610c09565b38610303565b6105d49150833d85116104d8576104c98183610c09565b386102e1565b6105f2919450823d84116104d8576104c98183610c09565b92386102bf565b816106119296503d87116104d8576104c98183610c09565b933861029c565b80fd5b34610134576000366003190112610134576000546040516001600160a01b039091168152602090f35b8015150361013457565b346101345760403660031901126101345760043561066b81610145565b6024359061067882610644565b6106806110b4565b156106fb576005546001600160a01b039190821633036106e95716600052600d602052604060002060ff1981541660ff831515161790556000146106d757600e5460001981146106d257600101600e55005b610e2c565b600e5480156106d25760001901600e55005b60405163ea8e4eb560e01b8152600490fd5b604051634ee2123760e11b8152600490fd5b34610134576000366003190112610134576001546040516001600160a01b039091168152602090f35b3461013457600036600319011261013457602061079860018060a01b036006541660405161076381610bce565b601381527267657464656c656761746f72436f756e74282960681b848201526040519161078f83610bee565b6000835261122a565b604051908152f35b3461013457602080600319360112610134576101c96004356107c181610145565b6002546040516001600160a01b039283168582015284815291166107e482610bce565b604051906107f182610bce565b601582527469735365637572654261736528616464726573732960581b85830152611193565b34610134576020366003190112610134576004356108336110b4565b156106fb576005546001600160a01b031633036106e9576000906004602061085e61026d8554610139565b6040516311be646b60e21b815292839182905afa80156104df57838084819493829483916108e1575b505af1610892611163565b5015610201577fcdcc745fe377b103b45fa0cec23ae3ef93d6fc6a84a01f0d18c40b354dd1d5d86108db6108ca61026d600b54610139565b604051938452929081906020820190565b0390a280f35b6108f9915060203d81116104d8576104c98183610c09565b38610887565b346101345760203660031901126101345760043561091c81610145565b803b600061092982611099565b926109376040519485610c09565b82845260208401903c602d81511061095b57602a602091015160601c604051908152f35b60405163baf3f0f760e01b8152600490fd5b346101345760003660031901126101345761099261026d61026d61026d600354610139565b60405180916305912f8d60e11b825281600460209485935afa9081156104df57610a06918391600091610a5c575b506109d561026d61026d61026d600454610139565b6109dd611126565b6040518095819482936380f85e3360e01b84526004840160209093929193604081019481520152565b03915afa9081156104df576101fd92600092610a2f575b50506040519081529081906020820190565b610a4e9250803d10610a55575b610a468183610c09565b810190610c2c565b3880610a1d565b503d610a3c565b610a739150823d8411610a5557610a468183610c09565b386109c0565b3461013457602036600319011261013457600435610a9681610145565b60018060a01b0316600052600d602052602060ff604060002054166040519015158152f35b3461013457602080600319360112610134576101fd9060043590610ade82610145565b6006546040516001600160a01b0393841683820152828152921691610b3e90610b0681610bce565b604051610b1281610bce565b6018815277697364656c656761746f724e6f646528616464726573732960401b84820152600094611193565b919080610b78575b610b5f575b505060405190151581529081906020820190565b610b7192508082518301019101610c5f565b3880610b4b565b5080825114610b46565b346101345760003660031901126101345760206102446110b4565b34610134576000366003190112610134576020610798611126565b634e487b7160e01b600052604160045260246000fd5b604081019081106001600160401b03821117610be957604052565b610bb8565b602081019081106001600160401b03821117610be957604052565b601f909101601f19168101906001600160401b03821190821017610be957604052565b90816020910312610134575190565b6040513d6000823e3d90fd5b908160209103126101345751610c5c81610145565b90565b908160209103126101345751610c5c81610644565b610c8861026d61026d61026d600354610139565b9060405180926305912f8d60e11b825281600460209586935afa9081156104df57600091610e0f575b50610cc661026d61026d61026d600454610139565b6040516376fe6c4560e01b81526001600160a01b0384166004820152908490829060249082905afa9081156104df57600091610df2575b506001600160a01b03168015610de9576040516349a104e760e11b81528481600481855afa9081156104df578590600092610dc9575b506040516304ec6d1760e11b81529192829060049082905afa9485156104df57600095610d9a575b505010159182610d91575b5081610d70575090565b6001600160a01b03166000908152600d602052604090205460ff1615905090565b15915038610d66565b610dba929550803d10610dc2575b610db28183610c09565b810190610c5f565b923880610d5b565b503d610da8565b60049250610de390823d8411610a5557610a468183610c09565b91610d33565b50505050600090565b610e099150843d86116104d8576104c98183610c09565b38610cfd565b610e269150833d8511610a5557610a468183610c09565b38610cb1565b634e487b7160e01b600052601160045260246000fd5b6040519061016082016001600160401b03811183821017610be957604052565b6001600160a01b039091169052565b61107561014061109792610eaa610e888251610139565b600280546001600160a01b0319166001600160a01b0392909216919091179055565b610edc610eba6020830151610139565b600380546001600160a01b0319166001600160a01b0392909216919091179055565b610f0e610eec6040830151610139565b600480546001600160a01b0319166001600160a01b0392909216919091179055565b610f40610f1e6060830151610139565b600580546001600160a01b0319166001600160a01b0392909216919091179055565b610f72610f506080830151610139565b600680546001600160a01b0319166001600160a01b0392909216919091179055565b610fa4610f8260a0830151610139565b600780546001600160a01b0319166001600160a01b0392909216919091179055565b610fd6610fb460c0830151610139565b600880546001600160a01b0319166001600160a01b0392909216919091179055565b611008610fe660e0830151610139565b600980546001600160a01b0319166001600160a01b0392909216919091179055565b61103b611019610100830151610139565b600a80546001600160a01b0319166001600160a01b0392909216919091179055565b61106e61104c610120830151610139565b600b80546001600160a01b0319166001600160a01b0392909216919091179055565b0151610139565b600c80546001600160a01b0319166001600160a01b0392909216919091179055565b565b6001600160401b038111610be957601f01601f191660200190565b6002546040516110fc916001600160a01b0316906110d181610bce565b6008815267697353616665282960c01b6020820152604051916110f383610bee565b60008352611193565b908061111b575b156102015780602080610c5c93518301019101610c5f565b506020815114611103565b600354604051610c5c916001600160a01b03169061114381610bce565b600681526569416765282960d01b60208201526040519161078f83610bee565b3d1561118e573d9061117482611099565b916111826040519384610c09565b82523d6000602084013e565b606090565b9190823b15611211578051906020918263ffffffff60e01b92012016916040519180830193845281519160005b8381106111fd5750505091816111ed60248260009795968897018783820152036004810184520182610c09565b51915afa6111f9611163565b9091565b8181018301518582016024015282016111c0565b50505060009060405161122381610bee565b6000815290565b929161123891600094611193565b908061125b575b6112465750565b610c5c91925060208082518301019101610c2c565b50602081511461123f56fea2646970667358221220b87a2e66b8ed768badf7d800c378e2b4e55ba05e439ba4efe17958b665cc0f1364736f6c6343000814003360803461009957601f6200280738819003918201601f19168301916001600160401b0383118484101761009e5780849260209460405283398101031261009957516001600160a01b038116908190036100995780156100875760018060a01b03193381600154161760015560005416176000556033600d556040516127529081620000b58239f35b60405163e6c4247b60e01b8152600490fd5b600080fd5b634e487b7160e01b600052604160045260246000fdfe60806040526004361015610018575b361561001657005b005b60003560e01c8063013cf08b146101c857806312065fe0146101c35780631f185d16146101be57806326705c3c146101b9578063339459a6146101b45780633b9b7955146101af57806343859632146101aa57806345a257bc146101a55780635c622a0e146101a0578063604ff4b11461019b578063896d6db1146101965780638da5cb5b1461019157806398e527d31461018c578063995e433914610187578063a1f7f53914610182578063af4845261461017d578063b7ccfe3214610178578063b90306ad14610173578063c54e44b01461016e578063c7f758a814610169578063c9d27afe14610164578063cc48bf161461015f578063d3325a2c1461015a578063e01ad5fd14610155578063e0a9bc2b14610150578063eeebb3c31461014b5763fdc10bc90361000e57611938565b61168f565b611674565b61164d565b6115bf565b611473565b6112ae565b611212565b61114d565b611065565b610fc8565b610f01565b610ede565b610e5a565b610e3c565b610e13565b610d78565b610cfe565b610cb2565b610a24565b610996565b61096d565b61058d565b61056f565b61053e565b610511565b610455565b634e487b7160e01b600052603260045260246000fd5b600e5481101561020257600e600052600b602060002091020190600090565b6101cd565b90600182811c92168015610237575b602083101461022157565b634e487b7160e01b600052602260045260246000fd5b91607f1691610216565b906000929180549161025283610207565b9182825260019384811690816000146102b45750600114610274575b50505050565b90919394506000526020928360002092846000945b8386106102a057505050500101903880808061026e565b805485870183015294019385908201610289565b9294505050602093945060ff191683830152151560051b0101903880808061026e565b634e487b7160e01b600052604160045260246000fd5b604081019081106001600160401b0382111761030857604052565b6102d7565b602081019081106001600160401b0382111761030857604052565b601f909101601f19168101906001600160401b0382119082101761030857604052565b9061036661035f9260405193848092610241565b0383610328565b565b6001600160a01b031690565b60005b8381106103875750506000910152565b8181015183820152602001610377565b906020916103b081518092818552858086019101610374565b601f01601f1916010190565b99939561040d61043d969f9e9d99936101809d986104519c9660408f6103ee6104479e986101a0808452830190610397565b6001600160a01b03909516602082015201528d820360608f0152610397565b60808c019f909f5260a08b015260c08a015260e089015215156101008801526001600160a01b0316610120870152565b1515610140850152565b1515610160830152565b0152565b3461050c57602036600319011261050c57600435600e5481101561050c5761047c906101e3565b506040516104958161048e8185610241565b0382610328565b6105086104a56001840154610368565b6002840154906104b76003860161034b565b93600486015495600581015493600682015460078301549060096008850154940154966040519a8b9a8b9560ff8860b01c169960ff8960a81c169960ff60018060a01b038b60081c169a16986103bc565b0390f35b600080fd5b3461050c57600036600319011261050c57602047604051908152f35b6001600160a01b0381160361050c57565b3461050c57602036600319011261050c5760206105656004356105608161052d565b6123a2565b6040519015158152f35b3461050c57600036600319011261050c576020601054604051908152f35b3461050c57600080600319360112610957576105b16105ac8254610368565b610368565b60408051634bf9c0ad60e11b81529160049190602080858581855afa94851561081e578695610938575b50825163cfbffe5360e01b81529281848681865afa93841561081e578794610919575b50805163ab6e844f60e01b815282818781875afa90811561081e5788916108fc575b508151630536340960e21b815283818881885afa90811561081e5789916108df575b50825163d1f956b160e01b81529084828981895afa91821561081e578a926108c0575b508351631cc3bfab60e31b81529285848a818a5afa93841561081e578b946108a1575b50845163e09d394d60e01b81529486868b818b5afa95861561081e578c96610882575b5080516314ac1b5960e21b815298878a8c818c5afa97881561081e576106f29a8e99610863575b50808c8451809d819263013cf08b60e01b83528201906000602083019252565b03818d5afa998a1561081e578c9b8f9b610844575b50818451809d635e09dbe760e01b825281845afa9b8c1561081e578f9c610823575b50819084519d8e8092635506ee0b60e11b82525afa9b8c1561081e578e9c6107ef575b5061075561152e565b9c610760908e611b47565b8c019061076c91611b47565b8a019061077891611b47565b6107859060608a01611b47565b6107929060808901611b47565b61079f9060a08801611b47565b6107ac9060c08701611b47565b6107b99060e08601611b47565b6107c7906101008501611b47565b6107d5906101208401611b47565b6107e3906101408301611b47565b6107ec9061210a565b80f35b81610810929d508d3d10610817575b6108088183610328565b810190611de5565b9a3861074c565b503d6107fe565b611dd9565b82919c5061083d90823d8411610817576108088183610328565b9b90610729565b61085c919b50823d8411610817576108088183610328565b9938610707565b8161087b929a503d8b11610817576108088183610328565b97386106d2565b61089a919650873d8911610817576108088183610328565b94386106ab565b6108b9919450863d8811610817576108088183610328565b9238610688565b6108d8919250853d8711610817576108088183610328565b9038610665565b6108f69150843d8611610817576108088183610328565b38610642565b6109139150833d8511610817576108088183610328565b38610620565b610931919450823d8411610817576108088183610328565b92386105fe565b816109509296503d8711610817576108088183610328565b93386105db565b80fd5b6001600160a01b03909116815260200190565b3461050c57600036600319011261050c576000546040516001600160a01b039091168152602090f35b3461050c57604036600319011261050c576004356024356109b68161052d565b60001982019182116109e8576109dc60ff91600a6109d56020956101e3565b5001612002565b54166040519015158152f35b611953565b9181601f8401121561050c578235916001600160401b03831161050c576020838186019501011161050c57565b8015150361050c57565b3461050c5760e036600319011261050c57600480356024356001600160401b03811161050c57610a5790369084016109ed565b604492919235610a668161052d565b606435926001600160e01b031984169081850361050c576084359060a4359760c43593610a9285610a1a565b610a9b336123a2565b15610ca2578615610c925715610c8357881580610c72575b610c635781610b7f57505092610016969492610b547f0454182b30f1740c505634bb66f7f3001e232b3c8797a62b1db11b347a891ff493610b7a9896610b2e610afa61154e565b92610b0636888c611588565b8452610b158660208601611b47565b6001600160e01b03198916604085015215156060840152565b60808201528760a0820152610b4f601054600052600f602052604060002090565b611c1c565b610b7260105496879560405194859460018060a01b03169885611d4e565b0390a3611d7d565b601055565b6010989397969198548911610c54575093610c4f9593610c3a89947f74608b2c8ffedaacf37a0fda8ea5cb94ebae20dc104623eb2fabb1bcec211608948a98610c216000805160206126fd8339815191529c610bed610bdd8b611969565b600052600f602052604060002090565b610bf8898d836119cc565b8560036001830192610c0a8b85611a93565b610c148785611ab2565b8760028201550155611ad5565b6040516001600160a01b03909516989495869586611b13565b0390a360405191829182901515815260200190565b0390a2005b604051630a98a78560e21b8152fd5b604051635ae2d7ef60e11b8152fd5b506001600160a01b03851615610ab3565b604051633f1e175760e01b8152fd5b50604051632f12d8b360e21b8152fd5b5060405163ea8e4eb560e01b8152fd5b3461050c57602036600319011261050c5760043560001981019081116109e8576008610cdf6040926101e3565b50015460ff825191818160a81c161515835260b01c1615156020820152f35b3461050c57602036600319011261050c57600435610d1a612330565b15610d6657333003610d545780158015610d4a575b610d3857600d55005b604051631f3b85d360e01b8152600490fd5b5060648111610d2f565b604051633a3cf02960e11b8152600490fd5b604051634ee2123760e11b8152600490fd5b3461050c57602036600319011261050c57600435600052600f602052610dd5604060002060405190610dae8261035f8184610241565b600181015490600360028201549101549060ff60405195869560c0875260c0870190610397565b6001600160a01b0385166020870152604085811b6001600160e01b0319169087015260c09490941c1615156060850152608084015260a08301520390f35b3461050c57600036600319011261050c576001546040516001600160a01b039091168152602090f35b3461050c57600036600319011261050c576020600e54604051908152f35b3461050c57602036600319011261050c5760043560001981019081116109e857610e83906101e3565b50600481015460058201546006830154600784015460089094015460408051948552602085019390935291830152606082019290925260ff60a883901c81161515608083015260b09290921c909116151560a082015260c090f35b3461050c57600036600319011261050c576020610ef96124f3565b604051908152f35b3461050c5760208060031936011261050c57610f78600435610f228161052d565b6002546040516001600160a01b03928316858201528481529116610f45826102ed565b60405190610f52826102ed565b601582527469735365637572654261736528616464726573732960581b8583015261256d565b919080610fbe575b15610fac578181610f9a9261050894518301019101611dc4565b60405191829182901515815260200190565b604051633204506f60e01b8152600490fd5b5080825114610f80565b3461050c57604036600319011261050c57600435602435610fe881610a1a565b610ff1336123a2565b156110535760105482116110415760001982018281116109e8576000805160206126fd83398151915291602091600052600f8252611036816001604060002001611ad5565b6040519015158152a2005b604051630a98a78560e21b8152600490fd5b60405163ea8e4eb560e01b8152600490fd5b3461050c57602036600319011261050c57600435611081612330565b15610d66576005546001600160a01b0316330361105357600090600460206110ac6105ac8554610368565b6040516311be646b60e21b815292839182905afa801561081e578380848194938294839161112f575b505af16110e061253d565b5015610fac577fcdcc745fe377b103b45fa0cec23ae3ef93d6fc6a84a01f0d18c40b354dd1d5d86111296111186105ac600b54610368565b604051938452929081906020820190565b0390a280f35b611147915060203d8111610817576108088183610328565b386110d5565b3461050c57602036600319011261050c5760043561116a8161052d565b803b60006111778261156d565b926111856040519485610328565b82845260208401903c602d8151106111a957602a602091015160601c604051908152f35b60405163baf3f0f760e01b8152600490fd5b936111d761120f9896939297949760e0875260e0870190610397565b6001600160a01b03928316602087015260408601979097521660608401521515608083015260a082015280830360c090910152610397565b90565b3461050c57602036600319011261050c5760043560001981019081116109e85761123b906101e3565b5060018101546002820154600883015460098401546040516001600160a01b0394851695610508946003949291611298906112818461127a8184610241565b0385610328565b6112916040518098819301610241565b0386610328565b60405197889760ff85169460081c1692886111bb565b3461050c5760408060031936011261050c576004908135916024356112d281610a1a565b6112da612330565b15611464576112e833612465565b15611455578315801561144a575b61143b5761130b61130685611969565b6101e3565b5092600884015460ff81161561142b57600685015461132861241f565b1161141b5760b01c60ff1661140c57600a840161134f6113483383612002565b5460ff1690565b6113fc5785916113916113847f0def80f9a3b4c7a4251442658ccf516bf33ea4acaf31638fc6da8ebdb0f64c72933390612002565b805460ff19166001179055565b83156113e7578486016113a48154611d7d565b90555b5192151583523392602090a38101546007820154809110918215926113d8575b50506113cf57005b61001690612019565b600501541015905038806113c7565b600586016113f58154611d7d565b90556113a7565b8151637c9a1cf960e01b81528490fd5b51634481832360e11b81529050fd5b8151637a19ed0560e01b81528490fd5b8151631104bc2760e21b81528490fd5b509051630992f7ad60e01b8152fd5b50600e5484116112f6565b50905163ea8e4eb560e01b8152fd5b509051634ee2123760e11b8152fd5b3461050c57602036600319011261050c57600435611490336123a2565b156110535780158015611523575b6115115760001981018181116109e8576114b96008916101e3565b5001805460b01c60ff166114ff57805460ff60b01b1916600160b01b1790557f4cf2797951877f41b38931a68643f9249273f32fd396532213aa4f1222c9d16b600080a2005b604051634481832360e11b8152600490fd5b604051630992f7ad60e01b8152600490fd5b50600e54811161149e565b6040519061016082016001600160401b0381118382101761030857604052565b6040519060c082016001600160401b0381118382101761030857604052565b6001600160401b03811161030857601f01601f191660200190565b9291926115948261156d565b916115a26040519384610328565b82948184528183011161050c578281602093846000960137010152565b3461050c5760a036600319011261050c576001600160401b0360043581811161050c576115f09036906004016109ed565b6024929192356115ff8161052d565b60643592831161050c573660238401121561050c576105089361162f61163d943690602481600401359101611588565b916084359360443592611f26565b6040519081529081906020820190565b3461050c57602036600319011261050c57602061056560043561166f8161052d565b612465565b3461050c57600036600319011261050c576020610565612330565b3461050c57608036600319011261050c57600460243581356116b08261052d565b6044356001600160401b03811161050c576116ce90369085016109ed565b90926116d8612330565b15611927576116e633612465565b1561191657601054831161190557611700610bdd84611969565b9160018301549060ff8260c01c16156118f45760409561172d919083881b6001600160e01b031916611d8c565b9561173e6105ac6105ac8354610368565b60038501549283156118d45750865163509222cd60e01b81526020936001600160a01b03929092169291908481806117788982880161095a565b0381875afa90811561081e576000916118a7575b5015611898576001811461183e575b6002146117d7575b505050936117c89291610508955b6002820154936117c36064359361034b565b611e73565b90519081529081906020820190565b9282959492916117fb98948851809a819482936376fe6c4560e01b8452830161095a565b03915afa801561081e57610508966117c895600092611821575b505091958193946117a3565b6118379250803d10610817576108088183610328565b3880611815565b938361185c91895180938192630e5fd00b60e01b835286830161095a565b0381865afa801561081e5760029160009161187b575b5094905061179b565b6118929150853d8711610817576108088183610328565b38611872565b50865163ea8e4eb560e01b8152fd5b6118c79150853d87116118cd575b6118bf8183610328565b810190611dc4565b3861178c565b503d6118b5565b610508986117c8979690955093506001600160a01b031691506117b19050565b604051630fe92ce760e21b81528790fd5b604051630a98a78560e21b81528590fd5b60405163ea8e4eb560e01b81528590fd5b604051634ee2123760e11b81528590fd5b3461050c57600036600319011261050c576020610ef961241f565b634e487b7160e01b600052601160045260246000fd5b6000198101919082116109e857565b90601f811161198657505050565b600091825260208220906020601f850160051c830194106119c2575b601f0160051c01915b8281106119b757505050565b8181556001016119ab565b90925082906119a2565b9092916001600160401b038111610308576119f1816119eb8454610207565b84611978565b6000601f8211600114611a2b5781929394600092611a20575b50508160011b916000199060031b1c1916179055565b013590503880611a0a565b601f19821694611a4084600052602060002090565b91805b878110611a7b575083600195969710611a61575b505050811b019055565b0135600019600384901b60f8161c19169055388080611a57565b90926020600181928686013581550194019101611a43565b80546001600160a01b0319166001600160a01b03909216919091179055565b805463ffffffff60a01b191660409290921c63ffffffff60a01b16919091179055565b805460ff60c01b191691151560c01b60ff60c01b16919091179055565b908060209392818452848401376000828201840152601f01601f1916010190565b9160609396959491611b2d91608085526080850191611af2565b6001600160e01b0319909616602083015260408201520152565b6001600160a01b039091169052565b81519192916001600160401b03811161030857611b77816119eb8454610207565b602080601f8311600114611bb2575081929394600092611ba75750508160011b916000199060031b1c1916179055565b015190503880611a0a565b90601f19831695611bc885600052602060002090565b926000905b888210611c0457505083600195969710611beb57505050811b019055565b015160001960f88460031b161c19169055388080611a57565b80600185968294968601518155019501930190611bcd565b815180519192916001600160401b03811161030857611c4581611c3f8654610207565b86611978565b6020918290601f8311600114611cd957928260039593611cbd9360a096600092611cce575b50508160011b9160001990881b1c19161786555b611c97611c916001880192850151610368565b82611a93565b6040830151611cb0906001600160e01b03191682611ab2565b6060830151151590611ad5565b608081015160028501550151910155565b015190503880611c6a565b90601f19831691611cef87600052602060002090565b9260005b818110611d37575093611cbd9360a096936001938360039a9810611d1f575b505050811b018655611c7e565b0151600019838a1b60f8161c19169055388080611d12565b929386600181928786015181550195019301611cf3565b90611d689060409396959496606084526060840191611af2565b6001600160e01b031990951660208201520152565b60001981146109e85760010190565b6024906103669294938060405196879363ffffffff60e01b166020850152848401378101600083820152036004810185520183610328565b9081602091031261050c575161120f81610a1a565b6040513d6000823e3d90fd5b9081602091031261050c575161120f8161052d565b600e54600160401b811015610308576001810180600e5581101561020257600e600052600b602060002091020190600090565b818102929181159184041417156109e857565b90606382018092116109e857565b8054610100600160a81b03191660089290921b610100600160a81b0316919091179055565b9293611eaa91959294611e8f611e87611dfa565b509586611b56565b611e9c8660018701611a93565b600285015560038401611b56565b6064611ec8611ec3611eba6124f3565b600d5490611e2d565b611e40565b046007830155611ed661241f565b9081018091116109e85781600991600686940155611efb600882016113843382611e4e565b0155600e5491826000805160206126dd83398151915260405180611f2033968261095a565b0390a490565b919390611f32336123a2565b15611053576001600160a01b03851615611ff057611f8492611f55913691611588565b92611f69611f61611dfa565b509485611b56565b611f768560018601611a93565b600284015560038301611b56565b6064611f94611ec3611eba6124f3565b046007820155611fa261241f565b9283018093116109e8576009926006820155611fc5600882016113843382611e4e565b6103e79283910155600e5491826000805160206126dd83398151915260405180611f2033968261095a565b60405163e6c4247b60e01b8152600490fd5b9060018060a01b0316600052602052604060002090565b7f948f4a9cd986f1118c3fbd459f7a22b23c0693e1ca3ef06a6a8be5aa7d39cc036120b3610f9a61204c61130685611969565b5060088101805460ff60b01b1916600160b01b178155906120956004820154600783015481101590816120fc575b50835460ff60a81b191690151560a81b60ff60a81b16178355565b815460a81c60ff16806120e7575b6120b8575b505460a81c60ff1690565b0390a2565b806120c960016120e0930154610368565b6120da60036002840154930161034b565b90612657565b50386120a8565b506120f56003820154610207565b15156120a3565b90506005830154103861207a565b61230e610140610366926121436121218251610368565b600280546001600160a01b0319166001600160a01b0392909216919091179055565b6121756121536020830151610368565b600380546001600160a01b0319166001600160a01b0392909216919091179055565b6121a76121856040830151610368565b600480546001600160a01b0319166001600160a01b0392909216919091179055565b6121d96121b76060830151610368565b600580546001600160a01b0319166001600160a01b0392909216919091179055565b61220b6121e96080830151610368565b600680546001600160a01b0319166001600160a01b0392909216919091179055565b61223d61221b60a0830151610368565b600780546001600160a01b0319166001600160a01b0392909216919091179055565b61226f61224d60c0830151610368565b600880546001600160a01b0319166001600160a01b0392909216919091179055565b6122a161227f60e0830151610368565b600980546001600160a01b0319166001600160a01b0392909216919091179055565b6122d46122b2610100830151610368565b600a80546001600160a01b0319166001600160a01b0392909216919091179055565b6123076122e5610120830151610368565b600b80546001600160a01b0319166001600160a01b0392909216919091179055565b0151610368565b600c80546001600160a01b0319166001600160a01b0392909216919091179055565b600254604051612378916001600160a01b03169061234d816102ed565b6008815267697353616665282960c01b60208201526040519161236f8361030d565b6000835261256d565b9080612397575b15610fac578060208061120f93518301019101611dc4565b50602081511461237f565b6123f860018060a01b0380600254166040519160209416848301528382526123c9826102ed565b604051906123d6826102ed565b601182527069735369676e657228616464726573732960781b8583015261256d565b9080612415575b15610fac578161120f9282518301019101611dc4565b50818151146123ff565b60035460405161120f916001600160a01b03169061243c816102ed565b600681526569416765282960d01b60208201526040519161245c8361030d565b600083526125e8565b60018060a01b03906124c682600654169260405190602093168382015282815261248e816102ed565b60405161249a816102ed565b6018815277697364656c656761746f724e6f646528616464726573732960401b8482015260009461256d565b9190806124e9575b6124d757505090565b61120f92508082518301019101611dc4565b50808251146124ce565b60065460405161120f916001600160a01b031690612510816102ed565b601381527267657464656c656761746f72436f756e74282960681b60208201526040519161245c8361030d565b3d15612568573d9061254e8261156d565b9161255c6040519384610328565b82523d6000602084013e565b606090565b803b156125cf57600092839263ffffffff60e01b906020815191012016906125bf60246040518093602082019586526125af8151809260208686019101610374565b8101036004810184520182610328565b51915afa6125cb61253d565b9091565b5050506000906040516125e18161030d565b6000815290565b92916125f69160009461256d565b908061261b575b6126045750565b90915060208180518101031261050c576020015190565b5060208151146125fd565b906020825192015163ffffffff60e01b90818116936004811061264857505050565b60040360031b82901b16169150565b9091906001600160a01b03811615611ff057600091829184519160208601915af19061268161253d565b911561268b575090565b8051600091906004116126d6576126a29150612626565b8151156126b25750805190602001fd5b604051630870274d60e21b81526001600160e01b0319919091166004820152602490fd5b506126a256fe336735bcae5ee955b87e8b30bee52920223fa30a865b207ac6d9eee9f19589fb2dd3ae6155b13a46b2374a1f42e0733244754e572ec9f0034b698efefa8673a1a2646970667358221220cb660a3ffdf16050ece2f7dd21a06e5b415a239ebb32d238a25902a95fbf67c064736f6c634300081400336080346200009e57601f620047f338819003918201601f19168301916001600160401b03831184841017620000a3578084926020946040528339810103126200009e57516001600160a01b038116908190036200009e5780156200008c5760018060a01b03193381600154161760015560005416176000556001600d556040516147399081620000ba8239f35b60405163e6c4247b60e01b8152600490fd5b600080fd5b634e487b7160e01b600052604160045260246000fdfe60806040526004361015610018575b361561001657005b005b60003560e01c8063033eeffb146103c35780630e5fd00b146103645780631157a849146103be57806312065fe0146103b957806313508e37146103b45780631bb49f02146103af5780631c53c280146103aa5780631f185d16146103a55780631f5fa838146103a05780632bbae52e1461039b5780632fefc0bf14610396578063339459a61461039157806333b59a5b1461038c5780633a7b55b8146103875780633b9b7955146103825780633baee0ea1461037d578063419cb27b1461037857806342cc9d5714610373578063445850971461036e57806344668f231461036957806345145fd7146103645780634d1ec4521461035f5780634f0f4aa91461035a578063509222cd1461035557806361ea720814610350578063629d671e1461034b57806365d2fbd3146103465780636a811244146103415780636b90905b1461033c5780636fb412ab1461033757806370a75f501461033257806376fe6c451461032d5780637818cdd71461032857806380f85e3314610323578063849c22ad1461031e578063896c354a146103195780638d92a51b146103145780638da5cb5b1461030f57806398b3f2151461030a5780639bdf305a14610305578063a1f7f53914610300578063a89d693b146102fb578063ab3980b1146102f6578063af484526146102f1578063b1c49079146102ec578063b366335e146102e7578063b90306ad146102e2578063c43792e3146102dd578063c54e44b0146102d8578063c871372b146102d3578063cf359165146102ce578063d1e0bbc6146102c9578063dcb3fc4a146102c4578063e01ad5fd146102bf578063e0a9bc2b146102ba578063eb95c662146102b5578063f3ca7124146102b0578063fd38093b146102ab5763fdc10bc90361000e576128da565b61286c565b612840565b612814565b6127f9565b61273a565b61257c565b612542565b612462565b6123dd565b61236f565b612343565b61225b565b6121e5565b612103565b6120d2565b612031565b611fc8565b611f2f565b611e8b565b611e5f565b611e36565b611d95565b611d55565b611d26565b611cec565b611c93565b611b4b565b611a86565b6118b6565b611794565b61160f565b61120f565b6111d2565b61119a565b611147565b611086565b611025565b610424565b610fee565b610fb7565b610f88565b610f54565b610c64565b610c13565b610b99565b610904565b6108eb565b6108bb565b610876565b610757565b610690565b61065c565b6105a3565b61055a565b61053e565b610473565b346103ef5760203660031901126103ef5760043560005260156020526020604060002054604051908152f35b600080fd5b6001600160a01b031690565b6001600160a01b038116036103ef57565b6001600160a01b03909116815260200190565b346103ef5760203660031901126103ef57602060043561044381610400565b60018060a01b03809116600052600e82526040600020546000526011825260046040600020015416604051908152f35b346103ef5760203660031901126103ef5760043561048f612933565b8060005260116020526104b26104ae600160406000200160ff90541690565b1590565b8015610520575b61050e576104d66104ae60016104ce846105fc565b015460ff1690565b6104fc576104e66104f2916105fc565b60016000918281550155565b6100166001600d55565b604051632564805f60e11b8152600490fd5b604051635dab8f7760e01b8152600490fd5b5061052a336111b8565b548114156104b9565b60009103126103ef57565b346103ef5760003660031901126103ef57602047604051908152f35b346103ef5760203660031901126103ef57600435600052601a6020526060604060002060ff600182549201546040519283528181161515602084015260081c1615156040820152f35b346103ef5760203660031901126103ef5760206004356105c281610400565b6001600160a01b039081166000908152600e8352604080822054825260118452808220600201548252600f84529081902054905191168152f35b600052601a602052604060002090565b6000526012602052604060002090565b6000526011602052604060002090565b600052600f602052604060002090565b6000526014602052604060002090565b6000526015602052604060002090565b346103ef5760203660031901126103ef57600435600052600f602052602060018060a01b0360406000205416604051908152f35b346103ef576020806003193601126103ef576107036004356106b181610400565b6002546040516001600160a01b039283168582015284815291166106d482611be3565b604051906106e182611be3565b601182527069735369676e657228616464726573732960781b85830152614587565b91908061074d575b1561073b5781816107259261073794518301019101613d8d565b60405190151581529081906020820190565b0390f35b604051633204506f60e01b8152600490fd5b508082511461070b565b346103ef576020806003193601126103ef5760043561077581610400565b604051632ca05d7160e21b81526001600160a01b039183908290600490829086165afa9081156108185760009161082f575b5016801561081d5781600491604051928380926349a104e760e11b82525afa90811561081857610737926000926107eb575b50506040519081529081906020820190565b61080a9250803d10610811575b6108028183611c50565b810190612fee565b38806107d9565b503d6107f8565b612a57565b604051631a113ba560e21b8152600490fd5b61084f9150833d8511610855575b6108478183611c50565b810190612a42565b386107a7565b503d61083d565b6001600160a01b0391821681529116602082015260400190565b346103ef5760203660031901126103ef576004356000526011602052604060002060018060a01b0360058160048401541692015416906107376040519283928361085c565b346103ef5760203660031901126103ef5760206108d9600435612bf6565b6040516001600160a01b039091168152f35b346103ef5760003660031901126103ef57610016614089565b346103ef576040806003193601126103ef57600480359060243590610927614427565b15610b5d5761093533614499565b8015610b49575b15610b3b5760009361095661095186546103f4565b6103f4565b918151809363111ea8c160e21b8252818360209687935afa908115610818578791610b1e575b506001600160a01b0316908515610b185761099686612986565b83516380f85e3360e01b80825283820192835260006020840152918690829081906040010381875afa908115610818578991610afb575b50965b868111156109dc578880f35b84516375cae33160e11b81528381018281528790829081906020010381885afa908115610818578a91610ade575b50610a1f826000526016602052604060002090565b55885b60088110610a395750610a3490612c14565b6109d0565b8551838152878180610a4e85878a84016115fe565b0381895afa908115610818578b91610ac1575b508115610a95575b90610a9091610a8a82610a7b8661060c565b90600052602052604060002090565b55612c14565b610a22565b9890610aa4610a90928b612995565b610ab8846000526019602052604060002090565b55905088610a69565b610ad89150883d8a11610811576108028183611c50565b38610a61565b610af59150873d8911610811576108028183611c50565b38610a0a565b610b129150863d8811610811576108028183611c50565b386109cd565b86610996565b610b359150843d8611610855576108478183611c50565b3861097c565b835163ea8e4eb560e01b8152fd5b506005546001600160a01b0316331461093c565b8351634ee2123760e11b8152fd5b60e0810192916000915b60078310610b8257505050565b600190825181526020809101920192019190610b75565b346103ef576020806003193601126103ef57600435604091825191610bbd83611bfe565b60e036843760005b60078110610bda578451806107378682610b6b565b816000526013835284600020906001810191828211610c0e57826000528452610c0886600020549186613d38565b52610bc5565b6128f5565b346103ef5760003660031901126103ef576000546040516001600160a01b039091168152602090f35b60409060031901126103ef57600435610c5481610400565b90602435610c6181610400565b90565b346103ef57610c7236610c3c565b610c7a612933565b610c82614089565b610c8c8133612a63565b6001600160a01b03818116908115610f4257610ca7836111b8565b54151580610f36575b610f2457610cbd846111b8565b5415610f1257610ce66109516109516005610ce0610cda896111b8565b5461061c565b01612926565b91823b156103ef5760409160008351809563880cdc3160e01b8252818381610d118b60048301610411565b03925af19384156108185761073794610ef9575b50610d3a6109516004610ce0610cda8a6111b8565b610ebf575b610d48866111b8565b54610d52866111b8565b55610d6e85610d69610d63896111b8565b5461062c565b612c23565b610d86336004610d80610cda896111b8565b01612c23565b851614159081610eae575b610e45610e06610da0866111b8565b5495610db06005610ce08961061c565b9781610dcf610dca6002610dc38c61061c565b015461062c565b612926565b9615610e7657610e1991610e14610de76009546103f4565b91610e06895194859263e3d1d5bf60e01b60208501526024840161085c565b03601f198101845283611c50565b61466f565b505b610e14610e29600a546103f4565b918551938491634ef260a960e01b602084015260248301610411565b50610e506001600d55565b519283526001600160a01b03938416602084015290921660408201529081906060820190565b50610e06610ea891610e14610e8c6009546103f4565b918851938491639498d88b60e01b602084015260248301610411565b50610e1b565b6000610eb9866111b8565b55610d91565b610ef3610ed36004610ce0610cda8a6111b8565b845162e6724f60e21b602082015290610e1482610e063360248301610411565b50610d3f565b80610f06610f0c92611bb0565b80610533565b38610d25565b60405163a7bc67af60e01b8152600490fd5b604051631bb220a360e21b8152600490fd5b50818185161415610cb0565b6040516398c534a160e01b8152600490fd5b346103ef5760203660031901126103ef576004356000526011602052602060ff600160406000200154166040519015158152f35b346103ef5760203660031901126103ef5760043560005260116020526020600360406000200154604051908152f35b346103ef5760203660031901126103ef576004356000526011602052602060018060a01b0360046040600020015416604051908152f35b346103ef5760003660031901126103ef576020601b54604051908152f35b9081526001600160a01b03909116602082015260400190565b346103ef5760203660031901126103ef5760043561104281610400565b60018060a01b0380600092168252600e60205260408220548252601160205260406002818420015492838152600f602052205416906107376040519283928361100c565b346103ef5760203660031901126103ef57600435806000526011602052604060002054600f60205261073760018060a01b03806040600020541693601160205260406000209160046002840154930154166110e56005610ce08461061c565b9060036110ff6110f960016104ce8761061c565b9461061c565b0154604080519788526001600160a01b03988916602089015287019490945286166060860152909416608084015292151560a083015260c082019290925290819060e0820190565b346103ef5760203660031901126103ef5760043561116481610400565b60018060a01b0316600052600e6020526040600020546000526011602052602060ff600160406000200154166040519015158152f35b346103ef5760003660031901126103ef576020601054604051908152f35b6001600160a01b03166000908152600e6020526040902090565b346103ef5760203660031901126103ef576004356111ef81610400565b60018060a01b0316600052600e6020526020604060002054604051908152f35b346103ef5760203660031901126103ef57600480359061122d612933565b6001906112406104ae836104ce8661061c565b80156115eb575b6115dc57611254836105fc565b91808301926112676104ae855460ff1690565b6115cb57611273612956565b6112896112846005610ce08861061c565b612b83565b9061129c6104ae865460ff9060081c1690565b156114705750600291826112af8761061c565b01541561145f576000815b611381575b505061135b575b6112da6109516109516005610ce08861061c565b803b156103ef57604051631867546560e21b8152600193810193845292600091849182908490829060200103925af18015610818576104f29460009361133792611348575b5084546113329060081c60ff16826131c6565b61061c565b0155805461ff001916610100179055565b80610f0661135592611bb0565b3861131f565b61137c6113776005610ce0846113708961061c565b015461061c565b613135565b6112c6565b600380611391866113708b61061c565b01548210156114595787806113c16113b785856113b18b6113708761061c565b01612ee9565b90549060031b1c90565b146113d75750506113d190612c14565b816112ba565b61145293506114268293836113b1896113706114206113b78861141a876114138761137061143f9f61140c836113708961061c565b019561061c565b0154612986565b90612ee9565b9661061c565b90919082549060031b91821b91600019901b1916179055565b61144c846113708961061c565b01613179565b38806112bf565b506112bf565b604051634593d2d560e11b81528490fd5b929493915060026114808561061c565b01546115ba576114c7916114c1916114b28660036114ac88548060026114a58661061c565b015561061c565b01612f06565b61159e575b5460081c60ff1690565b836131c6565b6001600160a01b036114dc84610ce08561061c565b16611557575b506114f76109516109516005610ce08561061c565b803b156103ef57604051631867546560e21b81526000938101848152909391849182908490829060200103925af19081156108185761153f926104e692611544575b506105fc565b6104f2565b80610f0661155192611bb0565b38611539565b610e0661159791610e1461157b610dca61157488610ce08961061c565b935461062c565b604051630a4ce2c960e11b602082015293849160248301610411565b50386114e2565b6115b56115b06005610ce0875461061c565b6130e7565b6114b7565b60405163a937c68b60e01b81528590fd5b604051632564805f60e11b81528390fd5b604051635dab8f7760e01b8152fd5b506115f5336111b8565b54831415611247565b908152602081019190915260400190565b346103ef576040806003193601126103ef576004359061162d612933565b61163e6104ae60016104ce8561061c565b611784576116536109516004610ce08561061c565b330361177457600090611664612956565b606061169e61167d6109516109516005610ce08961061c565b601b5484519586809481936350e12e4360e11b8352602435600484016115fe565b03925af192831561081857600080938195611734575b50836107379392826116d16116cc846116dd96612919565b613dfa565b806116f1575b506134f5565b6116e76001600d55565b51928392836115fe565b61172d90611700600c546103f4565b610e1461170f610dca8661062c565b610e06895194859263a9059cbb60e01b6020850152602484016130cc565b50386116d7565b6116dd955061073793929450611761915060603d811161176d575b6117598183611c50565b8101906134da565b955093919250836116b4565b503d61174f565b5163e38a47bd60e01b8152600490fd5b5163bf22183960e01b8152600490fd5b346103ef576040806003193601126103ef5760049060243582356117b6614427565b156118a7576117c433614499565b8015611893575b15611884576117d8612933565b6117e96104ae60016104ce8461061c565b611875576117fe6104ae60016104ce8561061c565b611866576118136112846005610ce08561061c565b1561185757611821906105fc565b6001810192611831845460ff1690565b611848575055805460ff19166001179055506104f2565b516304d2a6fb60e21b81528490fd5b505051630771dfcd60e11b8152fd5b505051630500268160e01b8152fd5b50505163bf22183960e01b8152fd5b50505163ea8e4eb560e01b8152fd5b506005546001600160a01b031633146117cb565b505051634ee2123760e11b8152fd5b346103ef576040806003193601126103ef57602435906004356118d7612933565b6118e86104ae60016104ce8461061c565b611a4b576118fb610951610dca8361062c565b3303611a3a57600460206119196109516109516005610ce08761061c565b8451634b2cc33f60e11b815292839182905afa8015610818578491600091611a1c575b50101561194d576100166001600d55565b6080611986936119676109516109516005610ce08761061c565b845180809781946331a8596160e11b8352600483019190602083019252565b03915afa908115610818576119d3936000926119dc575b506119ad610dca610e149261062c565b610e066119b8613040565b9451637a937b4560e11b60208201529485926024840161307b565b503880806104f2565b610e14919250610dca611a086119ad9260803d8111611a15575b611a008183611c50565b810190612ffd565b925050509392505061199d565b503d6119f6565b611a34915060203d8111610811576108028183611c50565b3861193c565b8151635dab8f7760e01b8152600490fd5b815163bf22183960e01b8152600490fd5b801515036103ef57565b60609060031901126103ef576004359060243590604435610c6181611a5c565b346103ef57611a9436611a66565b611a9c614427565b15611b3957611aaa33614499565b8015611b25575b15611b135715611ae757806000526016602052604060002054918201809211610c0e576000526016602052604060002055600080f35b806000526016602052604060002054918203918211610c0e576000526016602052604060002055600080f35b60405163ea8e4eb560e01b8152600490fd5b506005546001600160a01b03163314611ab1565b604051634ee2123760e11b8152600490fd5b346103ef5760203660031901126103ef576020600435611b6a81610400565b60018060a01b03809116600052600e82526040600020546000526011825260056040600020015416604051908152f35b634e487b7160e01b600052604160045260246000fd5b6001600160401b038111611bc357604052565b611b9a565b606081019081106001600160401b03821117611bc357604052565b604081019081106001600160401b03821117611bc357604052565b60e081019081106001600160401b03821117611bc357604052565b602081019081106001600160401b03821117611bc357604052565b61010081019081106001600160401b03821117611bc357604052565b601f909101601f19168101906001600160401b03821190821017611bc357604052565b6040519061016082016001600160401b03811183821017611bc357604052565b346103ef576101003660031901126103ef5736604312156103ef57604051611cba81611bfe565b610104813682116103ef576024905b828210611cdc5761001684600435613b2b565b8135815260209182019101611cc9565b346103ef5760403660031901126103ef57600435600052601260205260406000206024356000526020526020604060002054604051908152f35b346103ef5760203660031901126103ef5760043560005260116020526020600260406000200154604051908152f35b346103ef5760403660031901126103ef5760043560005260116020526020611d866024356003604060002001612ee9565b90549060031b1c604051908152f35b346103ef57611da336611a66565b611dab614427565b15611b3957611db933614499565b8015611e22575b15611b135715611df657806000526018602052604060002054918201809211610c0e576000526018602052604060002055600080f35b806000526018602052604060002054918203918211610c0e576000526018602052604060002055600080f35b506005546001600160a01b03163314611dc0565b346103ef5760003660031901126103ef576001546040516001600160a01b039091168152602090f35b346103ef5760203660031901126103ef5760043560005260196020526020604060002054604051908152f35b346103ef5760603660031901126103ef57600435611ea881610400565b60243590611eb582610400565b611ebd614427565b15611b3957611ecb33614499565b8015611f1b575b15611b1357611eec91611ee3612933565b60443591612c42565b80600052601160205260018060a01b0360056040600020015416906001600d556107376040519283928361100c565b506005546001600160a01b03163314611ed2565b346103ef5760003660031901126103ef576020611f9160018060a01b0360065416604051611f5c81611be3565b601381527267657464656c656761746f72436f756e74282960681b8482015260405191611f8883611c19565b60008352614602565b604051908152f35b610100810192916000915b60088310611fb157505050565b600190825181526020809101920192019190611fa4565b346103ef576020806003193601126103ef57600435906040805191611fec83611c34565b61010036843760005b6008811061200a578251806107378682611f99565b60019085600052601283528360002081600052835283600020548160051b86015201611ff5565b346103ef5761203f36611a66565b612047614427565b15611b395761205533614499565b80156120be575b15611b13571561209257806000526019602052604060002054918201809211610c0e576000526019602052604060002055600080f35b806000526019602052604060002054918203918211610c0e576000526019602052604060002055600080f35b506005546001600160a01b0316331461205c565b346103ef5760203660031901126103ef5760206120f96004356120f481610400565b614499565b6040519015158152f35b346103ef5761211136610c3c565b612119612933565b6121238133612a63565b6121376104ae60016104ce610cda866111b8565b6121d35761215061128461214a846111b8565b54612bf6565b156121c15761216891612161612956565b3390612d81565b612185612176601b5461060c565b60008052602052604060002090565b61218f815461290b565b9055612199613e26565b6121a76005610ce08361061c565b906121b26001600d55565b6107376040519283928361100c565b604051630771dfcd60e11b8152600490fd5b604051634eeadaa960e11b8152600490fd5b346103ef5760203660031901126103ef576121fe614427565b15611b395761220c33614499565b8015612247575b15611b135761222061451a565b601b5410612237575b610016600435601b546129a2565b61223f61451a565b601b55612229565b506005546001600160a01b03163314612213565b346103ef5760203660031901126103ef57600435612277614427565b15611b39576005546001600160a01b03163303611b1357600090600460206122a261095185546103f4565b6040516311be646b60e21b815292839182905afa80156108185783808481949382948391612325575b505af16122d6614557565b501561073b577fcdcc745fe377b103b45fa0cec23ae3ef93d6fc6a84a01f0d18c40b354dd1d5d861231f61230e610951600b546103f4565b604051938452929081906020820190565b0390a280f35b61233d915060203d8111610855576108478183611c50565b386122cb565b346103ef5760203660031901126103ef5760043560005260176020526020604060002054604051908152f35b346103ef5760203660031901126103ef5760043561238c81610400565b803b600061239982613025565b926123a76040519485611c50565b82845260208401903c602d8151106123cb57602a602091015160601c604051908152f35b60405163baf3f0f760e01b8152600490fd5b60403660031901126103ef576004356123f4612933565b80600052601160205260ff60016040600020015416156124505761241f6005610ce06124459361061c565b60405163d3abb8a360e01b6020820152602480359082015290610e148260448101610e06565b506100166001600d55565b60405163bf22183960e01b8152600490fd5b346103ef576020806003193601126103ef5760043561248081610400565b604051632ca05d7160e21b81526001600160a01b039183908290600490829086165afa90811561081857600091612525575b5016801561081d5781600491604051928380926304ec6d1760e11b82525afa90811561081857610737926000926124f8575b505060405190151581529081906020820190565b6125179250803d1061251e575b61250f8183611c50565b810190613d8d565b38806124e4565b503d612505565b61253c9150833d8511610855576108478183611c50565b386124b2565b346103ef5760403660031901126103ef57600435600052601460205260406000206024356000526020526020604060002054604051908152f35b346103ef5760c03660031901126103ef5760243560043561259c82610400565b60643590608435926125ac612933565b6125bd6104ae60016104ce8561061c565b612450576125d26109516004610ce08561061c565b330361272857612663936040916125e7612956565b6125f082613da2565b6125f985613dce565b61260d6109516109516005610ce08861061c565b601b5484516387acdff760e01b81526001600160a01b0390931660048401526044803560248501528301879052606483019390935260a480356084840152820192909252948591908290600090829060c4820190565b03925af1908115610818576104f29360009081936126f5575b5061268e6112846005610ce08561061c565b156126da575b806126a0575b506137c9565b610e066126d391610e146126b5600b546103f4565b9160405193849163a9059cbb60e01b602084015233602484016130cc565b503861269a565b6126f06115b06005610ce060026113708761061c565b612694565b905061271991925060403d8111612721575b6127118183611c50565b8101906130b6565b91903861267c565b503d612707565b60405163e38a47bd60e01b8152600490fd5b346103ef576020806003193601126103ef57610737906004359061275d82610400565b6006546040516001600160a01b03938416838201528281529216916127bd9061278581611be3565b60405161279181611be3565b6018815277697364656c656761746f724e6f646528616464726573732960401b84820152600094614587565b9190806127ef575b6127dd57505060405190151581529081906020820190565b61251792508082518301019101613d8d565b50808251146127c5565b346103ef5760003660031901126103ef5760206120f9614427565b346103ef5760203660031901126103ef5760043560005260166020526020604060002054604051908152f35b346103ef5760203660031901126103ef5760043560005260186020526020604060002054604051908152f35b346103ef576040806003193601126103ef5760043561288a81610400565b60018060a01b0316610737826000838152600e602052818120548152601560205281812054938152600e6020528181205481526014602052818120602435825260205220549251928392836115fe565b346103ef5760003660031901126103ef576020611f9161451a565b634e487b7160e01b600052601160045260246000fd5b9060018201809211610c0e57565b91908201809211610c0e57565b546001600160a01b031690565b6002600d5414612944576002600d55565b604051633ee5aeb560e01b8152600490fd5b61295e61451a565b601b5410612976575b6129746002601b546129a2565b565b61297e61451a565b601b55612967565b600019810191908211610c0e57565b91908203918211610c0e57565b600091818352602092601284526040918282208280528552828220541580612a38575b80612a2f575b6129d7575b5050505050565b6129f3906129ed6129e786612986565b91612986565b906129a2565b805b60088110156129d057600190612a12612a0d86612986565b61060c565b818452865283832054612a2882610a7b8861060c565b55016129f5565b508015156129cb565b50600184116129c5565b908160209103126103ef5751610c6181610400565b6040513d6000823e3d90fd5b604051638da5cb5b60e01b81526020926001600160a01b03928316918481600481865afa918215610818578491600093612b14575b508116911603612728578260049160405192838092633b9b795560e01b82525afa92831561081857600093612af5575b5050612ada61095182600054166103f4565b911603612ae357565b6040516363ad7db960e11b8152600490fd5b612b0c929350803d10610855576108478183611c50565b903880612ac8565b82919350612b2e90873d8911610855576108478183611c50565b9290612a98565b908160809103126103ef576040519060808201906001600160401b03821183831017611bc3576060916040528051835260208101516020840152604081015160408401520151606082015290565b6000906001600160a01b031680612b9b575050600090565b60806024916040519283809263da02133560e01b82528660048301525afa9182156108185791612bca57505190565b612beb915060803d8111612bef575b612be38183611c50565b810190612b35565b5190565b503d612bd9565b6000908152601160205260409020600501546001600160a01b031690565b6000198114610c0e5760010190565b80546001600160a01b0319166001600160a01b03909216919091179055565b9190612c5560016104ce610cda846111b8565b612d6f57612c9c612c9693612c73612c6e601054612c14565b601055565b601054948591612c8685610d698561062c565b82612c90866111b8565b556111b8565b54612f29565b612cbb6004612caa8561061c565b0180546001600160a01b0319169055565b612cdc612cd1612ccc6008546103f4565b612e6b565b6005610d808661061c565b612cf06109516109516005610ce08761061c565b612cfe6109516000546103f4565b90803b156103ef5760405163a93491f360e01b81526001600160a01b0392831660048201529190921660248201526044810184905260006064820181905260848201939093529190829081838160a481015b03925af1801561081857612d62575090565b80610f06610c6192611bb0565b604051634f710b4560e11b8152600490fd5b919091612d9560016104ce610cda856111b8565b612d6f57612c9692612dcf612dda92612db2612c6e601054612c14565b601054958691612dc587610d698561062c565b82612c90886111b8565b6004610d808561061c565b612df6612deb612ccc6008546103f4565b6005610d808561061c565b612e0a6109516109516005610ce08661061c565b90612e196109516000546103f4565b823b156103ef5760405163a93491f360e01b81526001600160a01b0391821660048201529116602482015260448101839052600160648201526000608482018190529091829081838160a48101612d50565b6e5af43d82803e903d91602b57fd5bf390763d602d80600a3d3981f3363d3d373d3d3d363d7300000062ffffff8260881c161760005260781b17602052603760096000f0906001600160a01b03821615612ec157565b60405163b06ebf3d60e01b8152600490fd5b634e487b7160e01b600052603260045260246000fd5b8054821015612f015760005260206000200190600090565b612ed3565b80549190600160401b831015611bc3578261142691600161297495018155612ee9565b91909160009280845260209160118352604080862095600294838689015584600198612f5e8a8201600160ff19825416179055565b5587612f698661063c565b83805282528489858520555b612f8457505050505050509050565b612fd1612fcb828b8a9414612fda575b612f9d8861063c565b8187528552868620612faf815461290b565b9055612fba8861064c565b612fc4815461290b565b9055612c14565b9561061c565b01549384612f75565b612fe98960036114ac8b61061c565b612f94565b908160209103126103ef575190565b91908260809103126103ef5781519160208101519160606040830151920151610c6181610400565b6001600160401b038111611bc357601f01601f191660200190565b60405161304c81611c19565b60008152906000368137565b60005b83811061306b5750506000910152565b818101518382015260200161305b565b909160609260018060a01b03168252604060208301526130aa8151809281604086015260208686019101613058565b601f01601f1916010190565b91908260409103126103ef576020825192015190565b6001600160a01b039091168152602081019190915260400190565b6001600160a01b0316806130f85750565b803b156103ef5760008091602460405180948193630711e58760e41b8352600160048401525af180156108185761312c5750565b61297490611bb0565b6001600160a01b0316806131465750565b803b156103ef5760008091602460405180948193630711e58760e41b83528160048401525af180156108185761312c5750565b80549081156131a357600019918201916131938383612ee9565b909182549160031b1b1916905555565b634e487b7160e01b600052603160045260246000fd5b8015610c0e576000190190565b906131d96131d38361064c565b5461290b565b91600290816131e78261061c565b0154906001938492835b6131ff575b50505050505050565b600f80851115806134d1575b156134cb578590600561322461095182610ce08761061c565b613246575b505061323761323f9261061c565b015493612c14565b92856131f1565b865b828111156132ff5750505061323761323f92846000146132bd5761328561326e8761063c565b61327789612986565b600052602052604060002090565b5461329e61329689610a7b8561063c565b918254612919565b90556132a98161064c565b6132b48b8254612919565b90555b92613229565b6132c961326e8761063c565b546132e26132da89610a7b8561063c565b918254612995565b90556132ed8161064c565b6132f88b8254612995565b90556132b7565b9091925061331661095161095184610ce08a61061c565b6133208883612995565b6040805163da02133560e01b81526004808201939093526080939192918490829060249082905afa9081156108185789946000926134ae575b50508588825115806134a2575b6134935791613382610951610951879694610ce08b999761061c565b90600060208251920151936133d0601b998a5488519a8b9889978896637b058ac160e01b8852870193909594919260809360a086019786526020860152604085015260608401521515910152565b03925af1918215610818576000918293613471575b50508715613432575b80821161340a5750505061340190612c14565b90879291613248565b61341390612c14565b61342181610a7b855461060c565b61342b815461290b565b90556133ee565b9190915b8281116134495750505061340190612c14565b8061345b61346c92610a7b855461060c565b6134658154612986565b90556131b9565b613436565b61348b935080919250903d10612721576127118183611c50565b9038806133e5565b50505050505061340190612c14565b50602083015115613366565b6134c49250803d10612bef57612be38183611c50565b3880613359565b506131f6565b5081151561320b565b908160609103126103ef578051916040602083015192015190565b91909161350c6109516109516109516003546103f4565b6040938451809263af0b21d360e01b825281600460209586935afa908115610818576000916137ac575b506000958687938894898081995b600f8b1115806137a3575b15613794576001600160a01b0361356a6005610ce08461061c565b168061358e575b5060026135806135889261061c565b01549a612c14565b99613544565b87516314f71a8760e11b81528881600481855afa8015610818576000918291613775575b508d1580613745575b158061373c575b8015613734575b6135d5575b5050613571565b8b829c949c036136aa575b505088918b8f928a908f60008b613639601b98895496519a8b978896879563208bffb160e21b87526004870193909594919260a09360c08601978652600060208701526040860152606085015260808401521515910152565b03925af192831561081857600093613687575b506136569061290b565b808310156136705750506002613580613588929a926135ce565b80612fba61368292610a7b855461060c565b613656565b6136569193506136a3908d803d10610811576108028183611c50565b929061364c565b8d929f5089828e92888e979511613707575b508a81108015918a90826136de575b505050159e50509c9e919c8193506135e0565b10159150816136ff575b50806136f7575b3889816136cb565b5085156136ef565b9050386136e8565b975095509650975061371884613a9d565b9991979080989a61372c8899601b54612995565b1196906136bc565b5060006135c9565b508715156135c2565b9450945096509350975061375885613a9d565b9991949094968094819b61376e82601b54612995565b11946135bb565b905061378e9150893d8b11612721576127118183611c50565b386135b2565b50505050505050505050509050565b5080151561354f565b6137c39150833d8511610811576108028183611c50565b38613536565b929160049160206137e46109516109516109516003546103f4565b60405163af0b21d360e01b815294859182905afa92831561081857600093613a7c575b5060009182918380948180819a5b600f8c111580613a73575b15613a65576001600160a01b0361383b6005610ce08461061c565b168061385f575b5060026138516138599261061c565b01549b612c14565b9a613815565b604080516314f71a8760e11b8152919082600481845afa908115610818578c928f926000918291613a44575b50831580613a14575b1580613a0b575b8015613a02575b6138b0575b50505050613842565b8d829e95969e03613978575b5050601b5460405163208bffb160e21b8152600481018b9052602481018c905260448101939093526064830152608482019390935286151560a482015291602090839060c49082906000905af191821561081857600092613953575b506139229061290b565b8082101561393b575097898c61385960026138516138a7565b80612fba61394e92610a7b601b5461060c565b613922565b6139229192506139719060203d602011610811576108028183611c50565b9190613918565b909198508682116139d4575b508a811091908215908890846139a4575b505015979091506020386138bc565b91509150101590816139cc575b508d816139c3575b6020918738613995565b841591506139b9565b9050386139b1565b95509350945097506139e582613a9d565b9991909586919a6139f98697601b54612995565b11949091613984565b508b15156138a2565b508a151561389b565b965096509a5095509950613a2789613a9d565b9b919690969a8096819d613a3d82601b54612995565b1196613894565b9050613a5f915060403d604011612721576127118183611c50565b3861388b565b505050505050505050509050565b50801515613820565b613a9691935060203d602011610811576108028183611c50565b9138613807565b60035460405163575e699560e11b8152600481019290925260a090829060249082906001600160a01b03165afa9081156108185760009182918391613ae3575b50909192565b9291505060a0823d8211613b23575b81613aff60a09383611c50565b81010312613b20575060408101516080606083015192015190919038613add565b80fd5b3d9150613af2565b613b33614427565b15611b3957613b4133614499565b8015613ca7575b15611b1357613b55612956565b8015613c9557613b6f6109516109516109516003546103f4565b916040518093634f5c5a2760e11b82528160046102a09687935afa93841561081857600094613c66575b5050613baf826000526016602052604060002090565b5460005b60078110613bc2575050505050565b80613bcf60019285613d38565b51151580613c52575b613be3575b01613bb3565b613c2c613bfb613bf38389613d38565b515185613d5a565b613c26613c156020613c0d868c613d38565b510151613d49565b613c1f8589613d38565b5190613d5a565b90613d6d565b613c4c613c43876000526013602052604060002090565b6132778461290b565b55613bdd565b50613c5d8187613d38565b51511515613bd8565b613c86929450803d10613c8e575b613c7e8183611c50565b810190613cbb565b913880613b99565b503d613c74565b604051632acd142d60e21b8152600490fd5b506005546001600160a01b03163314613b48565b6102a09081818403126103ef5782601f820112156103ef576040805193613ce185611bfe565b84938301928184116103ef57935b838510613cfe57505050505090565b6060858303126103ef578251606091613d1682611bc8565b8651825260209182880151838201528588015186820152815201940193613cef565b906007811015612f015760051b0190565b9081606402916064830403610c0e57565b81810292918115918404141715610c0e57565b8115613d77570490565b634e487b7160e01b600052601260045260246000fd5b908160209103126103ef5751610c6181611a5c565b601b54806000526016602052604060002054918201809211610c0e576000526016602052604060002055565b601b54806000526017602052604060002054918201809211610c0e576000526017602052604060002055565b601b54806000526018602052604060002054918201809211610c0e576000526018602052604060002055565b601b548060005260196020526040600020549060018201809211610c0e576000526019602052604060002055565b6001600160a01b039091169052565b61406761014061297492613e9c613e7a82516103f4565b600280546001600160a01b0319166001600160a01b0392909216919091179055565b613ece613eac60208301516103f4565b600380546001600160a01b0319166001600160a01b0392909216919091179055565b613f00613ede60408301516103f4565b600480546001600160a01b0319166001600160a01b0392909216919091179055565b613f32613f1060608301516103f4565b600580546001600160a01b0319166001600160a01b0392909216919091179055565b613f64613f4260808301516103f4565b600680546001600160a01b0319166001600160a01b0392909216919091179055565b613f96613f7460a08301516103f4565b600780546001600160a01b0319166001600160a01b0392909216919091179055565b613fc8613fa660c08301516103f4565b600880546001600160a01b0319166001600160a01b0392909216919091179055565b613ffa613fd860e08301516103f4565b600980546001600160a01b0319166001600160a01b0392909216919091179055565b61402d61400b6101008301516103f4565b600a80546001600160a01b0319166001600160a01b0392909216919091179055565b61406061403e6101208301516103f4565b600b80546001600160a01b0319166001600160a01b0392909216919091179055565b01516103f4565b600c80546001600160a01b0319166001600160a01b0392909216919091179055565b600061409861095182546103f4565b60408051634bf9c0ad60e11b8152929190600490602080868481875afa958615610818578596614408575b50815163cfbffe5360e01b81529181838581885afa9283156108185786936143e9575b50805163ab6e844f60e01b815282818681895afa9081156108185787916143cc575b508151630536340960e21b8152838187818a5afa9081156108185788916143af575b50825163d1f956b160e01b815291848388818b5afa928315610818578993614390575b508351631cc3bfab60e31b815293858589818c5afa948515610818578a95614371575b50805163e09d394d60e01b81529686888a818d5afa9687156108185789988c98614352575b5082516314ac1b5960e21b81529881908a90818e5afa988915610818578c99614333575b5082519963013cf08b60e01b8b52818b8d81806141dd868201906000602083019252565b03915afa9a8b15610818578d9b614314575b508351635e09dbe760e01b81529b828d8381845afa9c8d15610818578e9d6142f3575b508290855192838092635506ee0b60e11b82525afa9c8d15610818579c6142d4575b5061423d611c73565b9c614248908e613e54565b8c019061425491613e54565b8a019061426091613e54565b61426d9060608a01613e54565b61427a9060808901613e54565b6142879060a08801613e54565b6142949060c08701613e54565b6142a19060e08601613e54565b6142af906101008501613e54565b6142bd906101208401613e54565b6142cb906101408301613e54565b61297490613e63565b816142ec929d508d3d10610855576108478183611c50565b9a38614234565b83919d5061430d90823d8411610855576108478183611c50565b9c90614212565b61432c919b50823d8411610855576108478183611c50565b99386141ef565b8161434b929a503d8b11610855576108478183611c50565b97386141b9565b8161436a9299503d8a11610855576108478183611c50565b9638614195565b614389919550863d8811610855576108478183611c50565b9338614170565b6143a8919350853d8711610855576108478183611c50565b913861414d565b6143c69150843d8611610855576108478183611c50565b3861412a565b6143e39150833d8511610855576108478183611c50565b38614108565b614401919350823d8411610855576108478183611c50565b91386140e6565b816144209297503d8811610855576108478183611c50565b94386140c3565b60025460405161446f916001600160a01b03169061444481611be3565b6008815267697353616665282960c01b60208201526040519161446683611c19565b60008352614587565b908061448e575b1561073b5780602080610c6193518301019101613d8d565b506020815114614476565b6144f360018060a01b0380600254166040519160209416848301528382526144c082611be3565b604051906144cd82611be3565b601582527469735365637572654261736528616464726573732960581b85830152614587565b9080614510575b1561073b5781610c619282518301019101613d8d565b50818151146144fa565b600354604051610c61916001600160a01b03169061453781611be3565b600681526569416765282960d01b602082015260405191611f8883611c19565b3d15614582573d9061456882613025565b916145766040519384611c50565b82523d6000602084013e565b606090565b803b156145e957600092839263ffffffff60e01b906020815191012016906145d960246040518093602082019586526145c98151809260208686019101613058565b8101036004810184520182611c50565b51915afa6145e5614557565b9091565b5050506000906040516145fb81611c19565b6000815290565b929161461091600094614587565b9080614633575b61461e5750565b610c6191925060208082518301019101612fee565b506020815114614617565b906020825192015163ffffffff60e01b90818116936004811061466057505050565b60040360031b82901b16169150565b6001600160a01b038116156146f157600080918351908260208601915af190614696614557565b91156146a0575090565b8051600091906004116146eb576146b7915061463e565b8151156146c75750805190602001fd5b604051630870274d60e21b81526001600160e01b0319919091166004820152602490fd5b506146b7565b60405163e6c4247b60e01b8152600490fdfea2646970667358221220b90dfbeb328388f59465c65eff86f90cd961edede064c160b779e2a00ae4359964736f6c63430008140033","linkReferences":{}},"methodIdentifiers":{"dAOAssembly()":"14837455","daocore()":"14d8d024","nested741()":"45cff900","old741()":"5540c5ac","price()":"a035b1fe"},"id":38}