{"abi":[{"type":"constructor","inputs":[{"name":"_hex","type":"address","internalType":"address"},{"name":"_price","type":"address","internalType":"address"},{"name":"_old741","type":"address","internalType":"address"}],"stateMutability":"nonpayable"},{"type":"function","name":"dAOAssembly","inputs":[],"outputs":[{"name":"","type":"address","internalType":"address"}],"stateMutability":"view"},{"type":"function","name":"daocore","inputs":[],"outputs":[{"name":"","type":"address","internalType":"address"}],"stateMutability":"view"},{"type":"function","name":"nested741","inputs":[],"outputs":[{"name":"","type":"address","internalType":"address"}],"stateMutability":"view"},{"type":"function","name":"old741","inputs":[],"outputs":[{"name":"","type":"address","internalType":"address"}],"stateMutability":"view"},{"type":"function","name":"price","inputs":[],"outputs":[{"name":"","type":"address","internalType":"address"}],"stateMutability":"view"}],"bytecode":{"object":"0x6080346101b757601f619e0d38819003918201601f19168301926001600160401b03929091838511838610176101a15781606092849260409788528339810103126101b75761004d816101bc565b6100648461005d602085016101bc565b93016101bc565b9160018060a01b03199273c0cee8b561cc4f60869776ca5b0b7a295e04f5af84600154161760015585516117fd9586820196828810828911176101a15761032583396001600160a01b039485168088526000979092908190036020019088f080156101835785168660035416176003558751615c6a808201908282108483111761018d5760209183916141a3833985815203019088f08015610183578516866002541617600255875191612681808401928484109084111761016f57918391602093611b228439815203019086f080156101655790838092168560045416176004551683600154161760015516908254161790555161015490816101d18239f35b86513d87823e3d90fd5b634e487b7160e01b89526041600452602489fd5b88513d89823e3d90fd5b634e487b7160e01b8a52604160045260248afd5b634e487b7160e01b600052604160045260246000fd5b600080fd5b51906001600160a01b03821682036101b75756fe608080604052600436101561001357600080fd5b600090813560e01c90816314837455146100f55750806314d8d024146100ce57806345cff900146100a75780635540c5ac146100805763a035b1fe1461005857600080fd5b3461007d578060031936011261007d576001600160a01b036020915416604051908152f35b80fd5b503461007d578060031936011261007d5760206001600160a01b0360015416604051908152f35b503461007d578060031936011261007d5760206001600160a01b0360025416604051908152f35b503461007d578060031936011261007d5760206001600160a01b0360045416604051908152f35b90503461011a578160031936011261011a576020906001600160a01b03600354168152f35b5080fdfea2646970667358221220045efcfb5bbadbca03e073ce084f7f8dd842fa625896a7f2274e733132341c3364736f6c6343000814003360803461009757601f6117fd38819003918201601f19168301916001600160401b0383118484101761009c5780849260209460405283398101031261009757516001600160a01b038116908190036100975780156100855760018060a01b0319338160015416176001556000541617600055600060125560405161174a90816100b38239f35b60405163e6c4247b60e01b8152600490fd5b600080fd5b634e487b7160e01b600052604160045260246000fdfe60806040526004361015610018575b361561001657005b005b60003560e01c806312065fe0146101185780631f185d161461011357806325924f341461010e578063339459a6146101095780633b9b79551461010457806361b7fbd9146100ff5780638da5cb5b146100fa578063a1f7f539146100f5578063af484526146100f0578063b90306ad146100eb578063c54e44b0146100e6578063c89b84fd146100e1578063dbac26e9146100dc578063e01ad5fd146100d7578063e0a9bc2b146100d25763fdc10bc90361000e57610f09565b610e70565b610df0565b610dad565b610ce8565b610c62565b610b61565b610ae2565b610a6d565b610a46565b61098f565b61095e565b610266565b610235565b61014a565b3461013457600036600319011261013457602047604051908152f35b600080fd5b6001600160a01b0381160361013457565b3461013457602080600319360112610134576101c960043561016b81610139565b6001600160a01b0380600254169060405192168483015283825261018e82610f3a565b6040519061019b82610f3a565b601182527f69735369676e65722861646472657373290000000000000000000000000000008583015261159b565b91908061022b575b156102015781816101eb926101fd94518301019101611504565b60405190151581529081906020820190565b0390f35b60046040517f3204506f000000000000000000000000000000000000000000000000000000008152fd5b50808251146101d1565b3461013457602036600319011261013457602061025c60043561025781610139565b6110c8565b6040519015158152f35b346101345760003660031901126101345761029861028c6000546001600160a01b031690565b6001600160a01b031690565b604051907f97f3815a000000000000000000000000000000000000000000000000000000008252602082600481845afa91821561078e5760009261093d575b50604051917fcfbffe53000000000000000000000000000000000000000000000000000000008352602083600481855afa92831561078e5760009361091c575b50604051907fab6e844f000000000000000000000000000000000000000000000000000000008252602082600481865afa91821561078e576000926108fb575b50604051917f14d8d024000000000000000000000000000000000000000000000000000000008352602083600481875afa92831561078e576000936108da575b50604051927fd1f956b1000000000000000000000000000000000000000000000000000000008452602084600481885afa93841561078e576000946108b9575b50604051937fe61dfd58000000000000000000000000000000000000000000000000000000008552602085600481895afa94851561078e57600095610898575b506040517fe09d394d0000000000000000000000000000000000000000000000000000000081526020816004818a5afa90811561078e57600091610879575b506040517f52b06d640000000000000000000000000000000000000000000000000000000081526020816004818b5afa90811561078e5760009161085a575b506040517f013cf08b00000000000000000000000000000000000000000000000000000000815260006004820152916020836024818c5afa92831561078e57600093610839575b50604051977f5e09dbe70000000000000000000000000000000000000000000000000000000089526020896004818d5afa94851561078e57600499600096610818575b5060208b6040519b8c80927faa0ddc160000000000000000000000000000000000000000000000000000000082525afa96871561078e5760049a6000986107f7575b5060208c6040519c8d80927f640274270000000000000000000000000000000000000000000000000000000082525afa98891561078e5760049b60009a6107d6575b5060208d6040519d8e80927f30125cf50000000000000000000000000000000000000000000000000000000082525afa9a8b1561078e578d60049d60009d6107b4575b506020906040519e8f80927f24768d910000000000000000000000000000000000000000000000000000000082525afa9c8d1561078e5760009d610793575b50604051809e81907f9dc969a80000000000000000000000000000000000000000000000000000000082525a92600491602094fa9d8e1561078e5760009e61075d575b50610671610f94565b6001600160a01b0390911681529d8e906001600160a01b03166020820152604001906106a591906001600160a01b03169052565b6001600160a01b031660608d01526001600160a01b031660808c01526001600160a01b031660a08b01526001600160a01b031660c08a01526001600160a01b031660e08901526001600160a01b03166101008801526001600160a01b03166101208701526001600160a01b03166101408601526001600160a01b03166101608501526001600160a01b03166101808401526001600160a01b03166101a08301526001600160a01b03166101c082015261001690611201565b610780919e5060203d602011610787575b6107788183610f72565b8101906111e0565b9c38610668565b503d61076e565b6111f5565b6107ad919d5060203d602011610787576107788183610f72565b9b38610625565b6020919d506107cf90823d8411610787576107788183610f72565b9c906105e6565b6107f0919a5060203d602011610787576107788183610f72565b98386105a3565b61081191985060203d602011610787576107788183610f72565b9638610561565b61083291965060203d602011610787576107788183610f72565b943861051f565b61085391935060203d602011610787576107788183610f72565b91386104dc565b610873915060203d602011610787576107788183610f72565b38610495565b610892915060203d602011610787576107788183610f72565b38610456565b6108b291955060203d602011610787576107788183610f72565b9338610417565b6108d391945060203d602011610787576107788183610f72565b92386103d7565b6108f491935060203d602011610787576107788183610f72565b9138610397565b61091591925060203d602011610787576107788183610f72565b9038610357565b61093691935060203d602011610787576107788183610f72565b9138610317565b61095791925060203d602011610787576107788183610f72565b90386102d7565b346101345760003660031901126101345760206001600160a01b0360005416604051908152f35b8015150361013457565b34610134576040366003190112610134576004356109ac81610139565b602435906109b982610985565b6001600160a01b039081600554163303610a1c57166000526011602052604060002060ff1981541660ff83151516179055600014610a0a576012546000198114610a0557600101601255005b6111ca565b6012548015610a055760001901601255005b60046040517fea8e4eb5000000000000000000000000000000000000000000000000000000008152fd5b346101345760003660031901126101345760206001600160a01b0360015416604051908152f35b34610134576000366003190112610134576020610ada6001600160a01b0360065416604051610a9b81610f3a565b601381527f67657464656c656761746f72436f756e742829000000000000000000000000008482015260405191610ad183610f56565b600083526116d6565b604051908152f35b3461013457602080600319360112610134576101c9600435610b0381610139565b6001600160a01b03806002541690604051921684830152838252610b2682610f3a565b60405190610b3382610f3a565b601582527f69735365637572654261736528616464726573732900000000000000000000008583015261159b565b34610134576020366003190112610134576004356001600160a01b03600554163303610a1c5760009060046020610ba261028c85546001600160a01b031690565b604051928380927f46f991ac0000000000000000000000000000000000000000000000000000000082525afa801561078e5783808481949382948391610c44575b505af1610bee61156b565b5015610201577fcdcc745fe377b103b45fa0cec23ae3ef93d6fc6a84a01f0d18c40b354dd1d5d8610c3e610c2d61028c600b546001600160a01b031690565b604051938452929081906020820190565b0390a280f35b610c5c915060203d8111610787576107788183610f72565b38610be3565b3461013457602036600319011261013457600435610c7f81610139565b803b6000610c8c82610fb5565b92610c9a6040519485610f72565b82845260208401903c602d815110610cbe57602a602091015160601c604051908152f35b60046040517fbaf3f0f7000000000000000000000000000000000000000000000000000000008152fd5b34610134576000366003190112610134576001600160a01b038060035416610d21610d11610fe4565b91604092835191610ad183610f56565b9160045416610d2e611519565b92825193602085015282840152818352606083019280841067ffffffffffffffff851117610da85783610d99926101fd958552610d6a82610f3a565b601d82527f67657472616e6b436f756e742875696e743235362c75696e743235362900000060808401526116d6565b90519081529081906020820190565b610f24565b34610134576020366003190112610134576001600160a01b03600435610dd281610139565b166000526011602052602060ff604060002054166040519015158152f35b3461013457602036600319011261013457602061025c600435610e1281610139565b6001600160a01b03806006541690604051921684830152838252610e3582610f3a565b60405190610e4282610f3a565b601882527f697364656c656761746f724e6f646528616464726573732900000000000000008583015261169a565b3461013457600036600319011261013457610edc6001600160a01b0360025416604051610e9c81610f3a565b600881527f6973536166652829000000000000000000000000000000000000000000000000602082015260405191610ed383610f56565b6000835261159b565b9080610efe575b15610201576101eb816020806101fd94518301019101611504565b506020815114610ee3565b34610134576000366003190112610134576020610ada611519565b634e487b7160e01b600052604160045260246000fd5b6040810190811067ffffffffffffffff821117610da857604052565b6020810190811067ffffffffffffffff821117610da857604052565b90601f8019910116810190811067ffffffffffffffff821117610da857604052565b604051906101e0820182811067ffffffffffffffff821117610da857604052565b67ffffffffffffffff8111610da857601f01601f191660200190565b60405190610fde82610f56565b60008252565b60405190610ff182610f3a565b600c82527f72616e6b666f7244414f282900000000000000000000000000000000000000006020830152565b6040519061102a82610f3a565b601682527f67657455736572546f53746f72286164647265737329000000000000000000006020830152565b6040519061106382610f3a565b600682527f72616e6b282900000000000000000000000000000000000000000000000000006020830152565b6040519061109c82610f3a565b600882527f69734c6f636b28290000000000000000000000000000000000000000000000006020830152565b6001600160a01b03906110ee82600354166110e1610fe4565b60405191610ad183610f56565b6111366111036004546001600160a01b031690565b604080516001600160a01b038616602080830191909152815291906111289083610f72565b61113061101d565b90611649565b928316156111c25761117261115b61114c611056565b611154610fd1565b90866116d6565b9361116461108f565b61116c610fd1565b9161169a565b92101591826111b9575b5081611186575090565b6111b691506111ab6111b2916001600160a01b03166000526011602052604060002090565b5460ff1690565b1590565b90565b1591503861117c565b505050600090565b634e487b7160e01b600052601160045260246000fd5b9081602091031261013457516111b681610139565b6040513d6000823e3d90fd5b6114e66101c06115029261123b61121f82516001600160a01b031690565b6001600160a01b03166001600160a01b03196002541617600255565b61126e61125260208301516001600160a01b031690565b6001600160a01b03166001600160a01b03196003541617600355565b6112a161128560408301516001600160a01b031690565b6001600160a01b03166001600160a01b03196004541617600455565b6112d46112b860608301516001600160a01b031690565b6001600160a01b03166001600160a01b03196005541617600555565b6113076112eb60808301516001600160a01b031690565b6001600160a01b03166001600160a01b03196006541617600655565b61133a61131e60a08301516001600160a01b031690565b6001600160a01b03166001600160a01b03196007541617600755565b61136d61135160c08301516001600160a01b031690565b6001600160a01b03166001600160a01b03196008541617600855565b6113a061138460e08301516001600160a01b031690565b6001600160a01b03166001600160a01b03196009541617600955565b6113d46113b86101008301516001600160a01b031690565b6001600160a01b03166001600160a01b0319600a541617600a55565b6114086113ec6101208301516001600160a01b031690565b6001600160a01b03166001600160a01b0319600b541617600b55565b61143c6114206101408301516001600160a01b031690565b6001600160a01b03166001600160a01b0319600c541617600c55565b6114706114546101608301516001600160a01b031690565b6001600160a01b03166001600160a01b0319600d541617600d55565b6114a46114886101808301516001600160a01b031690565b6001600160a01b03166001600160a01b0319600e541617600e55565b6114d86114bc6101a08301516001600160a01b031690565b6001600160a01b03166001600160a01b0319600f541617600f55565b01516001600160a01b031690565b6001600160a01b03166001600160a01b03196010541617601055565b565b9081602091031261013457516111b681610985565b6111b66001600160a01b036003541660405161153481610f3a565b600681527f6941676528290000000000000000000000000000000000000000000000000000602082015260405191610ad183610f56565b3d15611596573d9061157c82610fb5565b9161158a6040519384610f72565b82523d6000602084013e565b606090565b9190823b15611630577fffffffff00000000000000000000000000000000000000000000000000000000815160208093012016916040519180830193845281519160005b83811061161c57505050918161160c60248260009795968897018783820152036004810184520182610f72565b51915afa61161861156b565b9091565b8181018301518582016024015282016115df565b50505060009060405161164281610f56565b6000815290565b92916116579160009461159b565b908061168f575b6116655750565b9091506020818051810103126101345760206001600160a01b0391015161168b81610139565b1690565b50602081511461165e565b92916116a89160009461159b565b90806116cb575b6116b65750565b6111b691925060208082518301019101611504565b5060208151146116af565b92916116e49160009461159b565b9080611709575b6116f25750565b909150602081805181010312610134576020015190565b5060208151146116eb56fea26469706673582212208424edb506136ce6a73bf8fe6b72d93dc83d4c9ac197f31b2a7209b44331abd564736f6c6343000814003360803461009e57601f6200268138819003918201601f19168301916001600160401b038311848410176100a35780849260209460405283398101031261009e57516001600160a01b0381169081900361009e57801561008c5760018060a01b0319338160015416176001556000541617600055603360115560036012556040516125c79081620000ba8239f35b60405163e6c4247b60e01b8152600490fd5b600080fd5b634e487b7160e01b600052604160045260246000fdfe60806040526004361015610018575b361561001657005b005b60003560e01c8063013cf08b1461019857806312065fe0146101935780631f185d161461018e578063339459a6146101895780633b9b7955146101845780634072265b1461017f578063438596321461017a5780635c622a0e1461017557806365153c4b14610170578063709df8d91461016b5780638da5cb5b1461016657806398e527d314610161578063995e43391461015c578063a1f7f53914610157578063af48452614610152578063b90306ad1461014d578063c54e44b014610148578063c7f758a814610143578063c9d27afe1461013e578063d153356b14610139578063e01ad5fd14610134578063e0a9bc2b1461012f578063fdc10bc91461012a5763ffa734f00361000e576115e2565b611599565b61157e565b611557565b6114b6565b61132d565b6112ad565b6111e1565b6110e0565b610ff9565b610fd6565b610f52565b610f34565b610f0d565b610ece565b610d6f565b610d19565b610cb4565b610c77565b610c50565b610558565b610527565b6104fa565b610435565b6013548110156101d857600c906013600052027f66de8ffda797e3de9c05e8fc57b3bf0ec28a930d40b0d285d93c06501cf6a0900190600090565b634e487b7160e01b600052603260045260246000fd5b90600182811c9216801561021e575b602083101461020857565b634e487b7160e01b600052602260045260246000fd5b91607f16916101fd565b9060009291805491610239836101ee565b91828252600193848116908160001461029b575060011461025b575b50505050565b90919394506000526020928360002092846000945b838610610287575050505001019038808080610255565b805485870183015294019385908201610270565b9294505050602093945060ff191683830152151560051b01019038808080610255565b634e487b7160e01b600052604160045260246000fd5b6040810190811067ffffffffffffffff8211176102f057604052565b6102be565b6020810190811067ffffffffffffffff8211176102f057604052565b90601f8019910116810190811067ffffffffffffffff8211176102f057604052565b9061034e6103479260405193848092610228565b0383610311565b565b60005b8381106103635750506000910152565b8181015183820152602001610353565b9060209161038c81518092818552858086019101610350565b601f01601f1916010190565b9b9997959392909e9d9c9a9896949e8c6101c08091528d016103b991610373565b916001600160a01b031660208d015260408c01528a810360608c01526103de91610373565b9b60808a015260a089015260c088015260e087015261010086015261012085016104089115159052565b15156101408401526001600160a01b031661016083015215156101808201526101a00161034e9115159052565b346104f55760203660031901126104f5576004356013548110156104f55761045c9061019d565b506040519061046f826103478184610228565b6104f161048660018301546001600160a01b031690565b60028301549061049860038501610333565b946004850154946005810154966006820154916007810154600a6008830154920154936040519a8b9a8b9560ff8860b81c169a60ff8960b01c169a6001600160a01b038a60101c169a60ff808c60081c169b1699610398565b0390f35b600080fd5b346104f55760003660031901126104f557602047604051908152f35b6001600160a01b038116036104f557565b346104f55760203660031901126104f557602061054e60043561054981610516565b6121c5565b6040519015158152f35b346104f55760003660031901126104f55761058a61057e6000546001600160a01b031690565b6001600160a01b031690565b604051907f97f3815a000000000000000000000000000000000000000000000000000000008252602082600481845afa918215610a8057600092610c2f575b50604051917fcfbffe53000000000000000000000000000000000000000000000000000000008352602083600481855afa928315610a8057600093610c0e575b50604051907fab6e844f000000000000000000000000000000000000000000000000000000008252602082600481865afa918215610a8057600092610bed575b50604051917f14d8d024000000000000000000000000000000000000000000000000000000008352602083600481875afa928315610a8057600093610bcc575b50604051927fd1f956b1000000000000000000000000000000000000000000000000000000008452602084600481885afa938415610a8057600094610bab575b50604051937fe61dfd58000000000000000000000000000000000000000000000000000000008552602085600481895afa948515610a8057600095610b8a575b506040517fe09d394d0000000000000000000000000000000000000000000000000000000081526020816004818a5afa908115610a8057600091610b6b575b506040517f52b06d640000000000000000000000000000000000000000000000000000000081526020816004818b5afa908115610a8057600091610b4c575b506040517f013cf08b00000000000000000000000000000000000000000000000000000000815260006004820152916020836024818c5afa928315610a8057600093610b2b575b50604051977f5e09dbe70000000000000000000000000000000000000000000000000000000089526020896004818d5afa948515610a8057600499600096610b0a575b5060208b6040519b8c80927faa0ddc160000000000000000000000000000000000000000000000000000000082525afa968715610a805760049a600098610ae9575b5060208c6040519c8d80927f640274270000000000000000000000000000000000000000000000000000000082525afa988915610a805760049b60009a610ac8575b5060208d6040519d8e80927f30125cf50000000000000000000000000000000000000000000000000000000082525afa9a8b15610a80578d60049d60009d610aa6575b506020906040519e8f80927f24768d910000000000000000000000000000000000000000000000000000000082525afa9c8d15610a805760009d610a85575b50604051809e81907f9dc969a80000000000000000000000000000000000000000000000000000000082525a92600491602094fa9d8e15610a805760009e610a4f575b50610963611ded565b6001600160a01b0390911681529d8e906001600160a01b031660208201526040019061099791906001600160a01b03169052565b6001600160a01b031660608d01526001600160a01b031660808c01526001600160a01b031660a08b01526001600160a01b031660c08a01526001600160a01b031660e08901526001600160a01b03166101008801526001600160a01b03166101208701526001600160a01b03166101408601526001600160a01b03166101608501526001600160a01b03166101808401526001600160a01b03166101a08301526001600160a01b03166101c082015261001690611e0e565b610a72919e5060203d602011610a79575b610a6a8183610311565b810190611dc9565b9c3861095a565b503d610a60565b611de1565b610a9f919d5060203d602011610a7957610a6a8183610311565b9b38610917565b6020919d50610ac190823d8411610a7957610a6a8183610311565b9c906108d8565b610ae2919a5060203d602011610a7957610a6a8183610311565b9838610895565b610b0391985060203d602011610a7957610a6a8183610311565b9638610853565b610b2491965060203d602011610a7957610a6a8183610311565b9438610811565b610b4591935060203d602011610a7957610a6a8183610311565b91386107ce565b610b65915060203d602011610a7957610a6a8183610311565b38610787565b610b84915060203d602011610a7957610a6a8183610311565b38610748565b610ba491955060203d602011610a7957610a6a8183610311565b9338610709565b610bc591945060203d602011610a7957610a6a8183610311565b92386106c9565b610be691935060203d602011610a7957610a6a8183610311565b9138610689565b610c0791925060203d602011610a7957610a6a8183610311565b9038610649565b610c2891935060203d602011610a7957610a6a8183610311565b9138610609565b610c4991925060203d602011610a7957610a6a8183610311565b90386105c9565b346104f55760003660031901126104f55760206001600160a01b0360005416604051908152f35b346104f55760203660031901126104f5576004356000198101908111610caf576005610ca460209261019d565b500154604051908152f35b61197d565b346104f55760403660031901126104f557600435602435610cd481610516565b6000198201918211610caf57610d0d60ff916009610cf360209561019d565b5001906001600160a01b0316600052602052604060002090565b54166040519015158152f35b346104f55760203660031901126104f5576004356000198101908111610caf57600a610d4660409261019d565b50015460ff825191818160b01c161515835260b81c1615156020820152f35b801515036104f557565b346104f55760403660031901126104f557600435602435610d8f81610d65565b610d98336121c5565b15610ea4576005610db0610dab84611a0c565b61019d565b50610e74610e67600b8301610df1610dec610de8610de13385906001600160a01b0316600052602052604060002090565b5460ff1690565b1590565b611b47565b610e4f600a850154610e0960ff8260b81c1615611ab1565b610e1860ff8260081c16611a1b565b610e2460ff8216611b92565b610e3b610e2f61224f565b60078801541115611bdd565b60101c6001600160a01b0316331415611c28565b336001600160a01b0316600052602052604060002090565b805460ff19166001179055565b01610e7f8154611c73565b809155601254148015610e9c575b610e9357005b61001691611d45565b508015610e8d565b60046040517fea8e4eb5000000000000000000000000000000000000000000000000000000008152fd5b346104f55760403660031901126104f557600435602435610eee81610516565b6000198201918211610caf57610d0d60ff91600b610cf360209561019d565b346104f55760003660031901126104f55760206001600160a01b0360015416604051908152f35b346104f55760003660031901126104f5576020601354604051908152f35b346104f55760203660031901126104f5576004356000198101908111610caf57610f7b9061019d565b506004810154600682015460078301546008840154600a9094015460408051948552602085019390935291830152606082019290925260ff60b083901c81161515608083015260b89290921c909116151560a082015260c090f35b346104f55760003660031901126104f5576020610ff161233e565b604051908152f35b346104f5576020806003193601126104f55761107860043561101a81610516565b6001600160a01b0380600254169060405192168483015283825261103d826102d4565b6040519061104a826102d4565b601582527f6973536563757265426173652861646472657373290000000000000000000000858301526123c0565b9190806110d6575b156110ac57818161109a926104f19451830101910161212b565b60405190151581529081906020820190565b60046040517f3204506f000000000000000000000000000000000000000000000000000000008152fd5b5080825114611080565b346104f55760203660031901126104f5576004356001600160a01b03600554163303610ea4576000906004602061112161057e85546001600160a01b031690565b604051928380927f46f991ac0000000000000000000000000000000000000000000000000000000082525afa8015610a8057838084819493829483916111c3575b505af161116d612390565b50156110ac577fcdcc745fe377b103b45fa0cec23ae3ef93d6fc6a84a01f0d18c40b354dd1d5d86111bd6111ac61057e600b546001600160a01b031690565b604051938452929081906020820190565b0390a280f35b6111db915060203d8111610a7957610a6a8183610311565b38611162565b346104f55760203660031901126104f5576004356111fe81610516565b803b600061120b8261210f565b926112196040519485610311565b82845260208401903c602d81511061123d57602a602091015160601c604051908152f35b60046040517fbaf3f0f7000000000000000000000000000000000000000000000000000000008152fd5b9491909361128360a0959897949860c0885260c0880190610373565b976001600160a01b0380931660208801526040870152166060850152151560808401521515910152565b346104f55760203660031901126104f5576004356000198101908111610caf576112d69061019d565b506001600160a01b036104f1816001840154169160028401549361130861130f600a8301549260405192838092610228565b0382610311565b60405195869560ff84169460ff8560081c169460101c169287611267565b346104f55760403660031901126104f55760043560243561134d81610d65565b611356336121c5565b8015611493575b611366906119c1565b611372610dab83611a0c565b50600a8101906113ae60ff835461138d828260081c16611a1b565b6113a4600785015461139d61224f565b1115611a66565b60b81c1615611ab1565b600860098201936113e06113db610de8610de13389906001600160a01b0316600052602052604060002090565b611afc565b6000811561148d57506001905b6113ff60ff60048601931683546119b4565b8255600090611480575061143f610e676001965b61142560ff60068801991689546119b4565b8855336001600160a01b0316600052602052604060002090565b5491015480911092831593611474575b505081611467575b5061145e57005b61001690611c82565b5460ff1615905038611457565b5410159150388061144f565b610e6761143f9196611413565b906113ed565b5061149c612140565b801561135d57506113666114af336122aa565b905061135d565b346104f55760403660031901126104f5576114cf612140565b1561152d573330036114e957600435601155602435601255005b606460405162461bcd60e51b815260206004820152600d60248201527f64616f2e66616b652e636f7265000000000000000000000000000000000000006044820152fd5b60046040517f9dc4246e000000000000000000000000000000000000000000000000000000008152fd5b346104f55760203660031901126104f557602061054e60043561157981610516565b6122aa565b346104f55760003660031901126104f557602061054e612140565b346104f55760003660031901126104f5576020610ff161224f565b9181601f840112156104f55782359167ffffffffffffffff83116104f557602083818601950101116104f557565b346104f55760c03660031901126104f55767ffffffffffffffff6004358181116104f5576116149036906004016115b4565b909160243561162281610516565b6064358281116104f55761163a9036906004016115b4565b9160a4359461164886610d65565b6001600160a01b038216156118375760135490680100000000000000008210156102f05761167d60019283810160135561019d565b509581116102f0576116998161169388546101ee565b88611861565b6000601f82116001146117bd57926117049492826116f393600a9998966117a49c6000926117b2575b5050600019600383901b1c191690821b1787555b8601906001600160a01b03166001600160a01b0319825416179055565b6044356002850155600384016118b5565b61172a61172361171e61171561233e565b60115490611993565b6119a6565b6064900490565b600882015561174260843561173d61224f565b6119b4565b60078201550180543360101b75ffffffffffffffffffffffffffffffffffffffff0000167fffffffffffffffffffff000000000000000000000000000000000000000000ff909116176101001760ff191660ff92151592909216919091179055565b601354604051908152602090f35b0135905038806116c2565b601f198216906117d288600052602060002090565b91815b81811061182157509383600a999896936117a49c83946116f3976117049b9910611807575b505050811b0187556116d6565b0135600019600384901b60f8161c191690553880806117fa565b8b830135845592850192602092830192016117d5565b60046040517fe6c4247b000000000000000000000000000000000000000000000000000000008152fd5b90601f811161186f57505050565b600091825260208220906020601f850160051c830194106118ab575b601f0160051c01915b8281106118a057505050565b818155600101611894565b909250829061188b565b90929167ffffffffffffffff81116102f0576118db816118d584546101ee565b84611861565b6000601f8211600114611915578192939460009261190a575b50508160011b916000199060031b1c1916179055565b0135905038806118f4565b601f1982169461192a84600052602060002090565b91805b87811061196557508360019596971061194b575b505050811b019055565b0135600019600384901b60f8161c19169055388080611941565b9092602060018192868601358155019401910161192d565b634e487b7160e01b600052601160045260246000fd5b81810292918115918404141715610caf57565b9060638201809211610caf57565b91908201809211610caf57565b156119c857565b606460405162461bcd60e51b815260206004820152601660248201527f64616f2e6e6f6e617574682e64656c656761746f7273000000000000000000006044820152fd5b600019810191908211610caf57565b15611a2257565b606460405162461bcd60e51b815260206004820152601160248201527f64616f2e70726f702e6e6f7465786973740000000000000000000000000000006044820152fd5b15611a6d57565b606460405162461bcd60e51b815260206004820152601060248201527f64616f2e766f74696e672e656e646564000000000000000000000000000000006044820152fd5b15611ab857565b606460405162461bcd60e51b815260206004820152601560248201527f64616f2e616c72656164792e636f6d706c6574656400000000000000000000006044820152fd5b15611b0357565b606460405162461bcd60e51b815260206004820152601160248201527f64616f2e616c72656164792e766f7465640000000000000000000000000000006044820152fd5b15611b4e57565b606460405162461bcd60e51b815260206004820152601260248201527f64616f2e616c72656164792e7369676e656400000000000000000000000000006044820152fd5b15611b9957565b606460405162461bcd60e51b815260206004820152601360248201527f64616f2e70726f702e6d7573747369676e6564000000000000000000000000006044820152fd5b15611be457565b606460405162461bcd60e51b815260206004820152601360248201527f64616f2e6265666f72652e646561646c696e65000000000000000000000000006044820152fd5b15611c2f57565b606460405162461bcd60e51b815260206004820152601260248201527f64616f2e766f7465722e726573747269637400000000000000000000000000006044820152fd5b6000198114610caf5760010190565b610dab611c8e91611a0c565b5060ff600a8201611cac81600160b81b60ff60b81b19825416179055565b611cde600484015460088501548110159081611d37575b50825460ff60b01b191690151560b01b60ff60b01b16178255565b5460b01c1680611d22575b611cf05750565b80611d086001611d1f9301546001600160a01b031690565b611d19600360028401549301610333565b906124db565b50565b50611d3060038201546101ee565b1515611ce9565b905060068501541038611cc3565b611d54610dab611d9a92611a0c565b50600a8101805460ff60b81b1916600160b81b178155909280611db7575b80611da6575b815460ff60b01b191690151560b01b60ff60b01b161781555460b01c60ff1690565b80611d2257611cf05750565b506004830154600684015410611d78565b50600483015460088401541115611d72565b908160209103126104f55751611dde81610516565b90565b6040513d6000823e3d90fd5b604051906101e0820182811067ffffffffffffffff8211176102f057604052565b6120f36101c061034e92611e48611e2c82516001600160a01b031690565b6001600160a01b03166001600160a01b03196002541617600255565b611e7b611e5f60208301516001600160a01b031690565b6001600160a01b03166001600160a01b03196003541617600355565b611eae611e9260408301516001600160a01b031690565b6001600160a01b03166001600160a01b03196004541617600455565b611ee1611ec560608301516001600160a01b031690565b6001600160a01b03166001600160a01b03196005541617600555565b611f14611ef860808301516001600160a01b031690565b6001600160a01b03166001600160a01b03196006541617600655565b611f47611f2b60a08301516001600160a01b031690565b6001600160a01b03166001600160a01b03196007541617600755565b611f7a611f5e60c08301516001600160a01b031690565b6001600160a01b03166001600160a01b03196008541617600855565b611fad611f9160e08301516001600160a01b031690565b6001600160a01b03166001600160a01b03196009541617600955565b611fe1611fc56101008301516001600160a01b031690565b6001600160a01b03166001600160a01b0319600a541617600a55565b612015611ff96101208301516001600160a01b031690565b6001600160a01b03166001600160a01b0319600b541617600b55565b61204961202d6101408301516001600160a01b031690565b6001600160a01b03166001600160a01b0319600c541617600c55565b61207d6120616101608301516001600160a01b031690565b6001600160a01b03166001600160a01b0319600d541617600d55565b6120b16120956101808301516001600160a01b031690565b6001600160a01b03166001600160a01b0319600e541617600e55565b6120e56120c96101a08301516001600160a01b031690565b6001600160a01b03166001600160a01b0319600f541617600f55565b01516001600160a01b031690565b6001600160a01b03166001600160a01b03196010541617601055565b67ffffffffffffffff81116102f057601f01601f191660200190565b908160209103126104f55751611dde81610d65565b61219b6001600160a01b036002541660405161215b816102d4565b600881527f6973536166652829000000000000000000000000000000000000000000000000602082015260405191612192836102f5565b600083526123c0565b90806121ba575b156110ac5780602080611dde9351830101910161212b565b5060208151146121a2565b6122286001600160a01b0380600254166040519160209416848301528382526121ed826102d4565b604051906121fa826102d4565b601182527f69735369676e6572286164647265737329000000000000000000000000000000858301526123c0565b9080612245575b156110ac5781611dde928251830101910161212b565b508181511461222f565b611dde6001600160a01b036003541660405161226a816102d4565b600681527f69416765282900000000000000000000000000000000000000000000000000006020820152604051916122a1836102f5565b60008352612453565b6001600160a01b03906123118260065416926040519060209316838201528281526122d4816102d4565b6040516122e0816102d4565b601881527f697364656c656761746f724e6f64652861646472657373290000000000000000848201526000946123c0565b919080612334575b61232257505090565b611dde9250808251830101910161212b565b5080825114612319565b611dde6001600160a01b0360065416604051612359816102d4565b601381527f67657464656c656761746f72436f756e742829000000000000000000000000006020820152604051916122a1836102f5565b3d156123bb573d906123a18261210f565b916123af6040519384610311565b82523d6000602084013e565b606090565b803b1561243a576000927fffffffff00000000000000000000000000000000000000000000000000000000836020869551910120169061242a602460405180936020820195865261241a8151809260208686019101610350565b8101036004810184520182610311565b51915afa612436612390565b9091565b50505060009060405161244c816102f5565b6000815290565b9291612461916000946123c0565b9080612486575b61246f5750565b9091506020818051810103126104f5576020015190565b506020815114612468565b90602082519201517fffffffff000000000000000000000000000000000000000000000000000000009081811693600481106124cc57505050565b60040360031b82901b16169150565b9190916001600160a01b0381161561183757600091829184519160208601915af190612505612390565b911561250f575090565b80516000919060041161258b576125269150612491565b8151156125365750805190602001fd5b6040517f21c09d340000000000000000000000000000000000000000000000000000000081527fffffffff00000000000000000000000000000000000000000000000000000000919091166004820152602490fd5b5061252656fea26469706673582212203fa8008cb41ff38b386b662b284ad4c58962fbb6d635012d4d771f68b240e33364736f6c634300081400336080346200009e57601f62005c6a38819003918201601f19168301916001600160401b03831184841017620000a3578084926020946040528339810103126200009e57516001600160a01b038116908190036200009e5780156200008c5760018060a01b03193381600154161760015560005416176000556001601155604051615bb09081620000ba8239f35b60405163e6c4247b60e01b8152600490fd5b600080fd5b634e487b7160e01b600052604160045260246000fdfe60806040526004361015610018575b361561001657005b005b60003560e01c8063033eeffb146103885780630e5fd00b1461038357806312065fe01461037e57806313cf3d55146103795780631bb49f02146103745780631c53c2801461036f5780631f185d161461036a5780632a687c87146103655780632fefc0bf14610360578063307673e81461035b57806332ff4eab14610356578063339459a61461035157806333b59a5b1461034c5780633a7b55b8146103475780633b9b7955146103425780633baee0ea1461033d578063419cb27b1461033857806342cc9d5714610333578063445850971461032e57806344668f23146103295780634f0f4aa914610324578063509222cd1461031f57806350db85d11461031a57806361ea720814610315578063629d671e1461031057806365d2fbd31461030b5780636a811244146103065780636fb412ab1461030157806376fe6c45146102fc5780637818cdd7146102f75780637bb98498146102f257806380f85e33146102ed578063849c22ad146102e8578063896c354a146102e35780638da5cb5b146102de57806395f72f49146102d957806398b3f215146102d4578063a1f7f539146102cf578063a89d693b146102ca578063af484526146102c5578063b1c49079146102c0578063b366335e146102bb578063b90306ad146102b6578063c43792e3146102b1578063c54e44b0146102ac578063c871372b146102a7578063d1e0bbc6146102a2578063dcb3fc4a1461029d578063e01ad5fd14610298578063e0a9bc2b14610293578063eb95c6621461028e578063eb9e9e2c14610289578063f3ca712414610284578063fd38093b1461027f5763fdc10bc90361000e57613599565b613529565b6134fd565b613317565b6132eb565b6132d0565b613205565b613086565b61304c565b612fce565b612f48565b612f1c565b612e1b565b612da5565b612c29565b612bf8565b612ad9565b612a35565b612a09565b612993565b61296c565b61292c565b6128fd565b6128c3565b6127b6565b61275d565b61263f565b6124a3565b612087565b611c0d565b611bcf565b611bb1565b611b18565b611ac4565b6119df565b6119c1565b611989565b61195a565b611926565b61149a565b61144b565b6112df565b6110ea565b610a13565b61099d565b6108fe565b6108c6565b610829565b610742565b61070d565b6106a8565b610436565b61041a565b6103ca565b346103b45760203660031901126103b45760043560005260196020526020604060002054604051908152f35b600080fd5b6001600160a01b038116036103b457565b346103b45760203660031901126103b45760206004356103e9816103b9565b6001600160a01b03809116600052601282526040600020546000526015825260046040600020015416604051908152f35b346103b45760003660031901126103b457602047604051908152f35b346103b4576020806003193601126103b4576004908135610455613825565b61047e6104796001610471846000526015602052604060002090565b015460ff1690565b613f62565b6104bb6104b46104a861049b846000526013602052604060002090565b546001600160a01b031690565b6001600160a01b031690565b33146140ef565b816104d16104a86000546001600160a01b031690565b6040519485809263111ea8c160e21b82525afa9283156106a357600093610674575b5061055161052f61051161049b846000526013602052604060002090565b6040519182918683019190916001600160a01b036020820193169052565b0394610543601f199687810184528361271a565b61054b61415b565b906159c6565b906001600160a01b03821615158061066a575b610573575b6100166001601155565b610660936105fe6105ec6105f86105aa600461059c61065b976000526015602052604060002090565b01546001600160a01b031690565b6040517f4fb2e45d00000000000000000000000000000000000000000000000000000000898201526001600160a01b0390911660248201529182906044820190565b0384810183528261271a565b84615a9d565b507fa3e884b000000000000000000000000000000000000000000000000000000000604051948501528361064f60248201906007606060808401936000815260006020820152600060408201520152565b0390810184528361271a565b615a9d565b5038808080610569565b5081311515610564565b610695919350823d841161069c575b61068d818361271a565b81019061413a565b91386104f3565b503d610683565b61414f565b346103b45760203660031901126103b4576004356106c5816103b9565b6001600160a01b0390811660009081526012602090815260408083205483526015825280832060020154808452601383529281902054815193845290931690820152f35b0390f35b346103b45760203660031901126103b457600435600052601360205260206001600160a01b0360406000205416604051908152f35b346103b4576020806003193601126103b4576107c1600435610763816103b9565b6001600160a01b03806002541690604051921684830152838252610786826126c6565b60405190610793826126c6565b601182527f69735369676e657228616464726573732900000000000000000000000000000085830152615933565b91908061081f575b156107f55781816107e39261070994518301019101615763565b60405190151581529081906020820190565b60046040517f3204506f000000000000000000000000000000000000000000000000000000008152fd5b50808251146107c9565b346103b45760403660031901126103b457602435610845615777565b156108b557610853336157fc565b80156108a1575b1561089057600090808252601a602052604082205490600435820180921161088b578252601a602052604082205580f35b6137f4565b600460405163ea8e4eb560e01b8152fd5b50336001600160a01b03600554161461085a565b6004604051634ee2123760e11b8152fd5b346103b45760203660031901126103b457600435600052601560205260206001600160a01b0360056040600020015416604051908152f35b346103b45760203660031901126103b45760043561091a613825565b610995610983600092808452601560205261093e60ff6001604087200154166140ef565b3384526012602052610955604085205482146140ef565b808452601e60205261097360ff600260408720015460081c16614430565b600052601e602052604060002090565b60026000918281558260018201550155565b600160115580f35b346103b45760403660031901126103b4576024356109b9615777565b156108b5576109c7336157fc565b80156109ff575b1561089057600090808252601d602052604082205490600435820180921161088b578252601d602052604082205580f35b50336001600160a01b0360055416146109ce565b346103b45760003660031901126103b457610a396104a86000546001600160a01b031690565b604051907f97f3815a000000000000000000000000000000000000000000000000000000008252602082600481845afa9182156106a3576000926110c9575b50604051917fcfbffe53000000000000000000000000000000000000000000000000000000008352602083600481855afa9283156106a3576000936110a8575b50604051907fab6e844f000000000000000000000000000000000000000000000000000000008252602082600481865afa9182156106a357600092611087575b50604051917f14d8d024000000000000000000000000000000000000000000000000000000008352602083600481875afa9283156106a357600093611066575b50604051927fd1f956b1000000000000000000000000000000000000000000000000000000008452602084600481885afa9384156106a357600094611045575b50604051937fe61dfd58000000000000000000000000000000000000000000000000000000008552602085600481895afa9485156106a357600095611024575b506040517fe09d394d0000000000000000000000000000000000000000000000000000000081526020816004818a5afa9081156106a357600091611005575b506040517f52b06d640000000000000000000000000000000000000000000000000000000081526020816004818b5afa9081156106a357600091610fe6575b506040517f013cf08b00000000000000000000000000000000000000000000000000000000815260006004820152916020836024818c5afa9283156106a357600093610fc5575b50604051977f5e09dbe70000000000000000000000000000000000000000000000000000000089526020896004818d5afa9485156106a357600499600096610fa4575b5060208b6040519b8c80927faa0ddc160000000000000000000000000000000000000000000000000000000082525afa9687156106a35760049a600098610f83575b5060208c6040519c8d80927f640274270000000000000000000000000000000000000000000000000000000082525afa9889156106a35760049b60009a610f62575b5060208d6040519d8e80927f30125cf50000000000000000000000000000000000000000000000000000000082525afa9a8b156106a3578d60049d60009d610f40575b506020906040519e8f80927f24768d910000000000000000000000000000000000000000000000000000000082525afa9c8d156106a35760009d610f1f575b50604051809e81907f9dc969a80000000000000000000000000000000000000000000000000000000082525a92600491602094fa9d8e156106a35760009e610efe575b50610e1261273c565b6001600160a01b0390911681529d8e906001600160a01b0316602082015260400190610e4691906001600160a01b03169052565b6001600160a01b031660608d01526001600160a01b031660808c01526001600160a01b031660a08b01526001600160a01b031660c08a01526001600160a01b031660e08901526001600160a01b03166101008801526001600160a01b03166101208701526001600160a01b03166101408601526001600160a01b03166101608501526001600160a01b03166101808401526001600160a01b03166101a08301526001600160a01b03166101c082015261001690615462565b610f18919e5060203d60201161069c5761068d818361271a565b9c38610e09565b610f39919d5060203d60201161069c5761068d818361271a565b9b38610dc6565b6020919d50610f5b90823d841161069c5761068d818361271a565b9c90610d87565b610f7c919a5060203d60201161069c5761068d818361271a565b9838610d44565b610f9d91985060203d60201161069c5761068d818361271a565b9638610d02565b610fbe91965060203d60201161069c5761068d818361271a565b9438610cc0565b610fdf91935060203d60201161069c5761068d818361271a565b9138610c7d565b610fff915060203d60201161069c5761068d818361271a565b38610c36565b61101e915060203d60201161069c5761068d818361271a565b38610bf7565b61103e91955060203d60201161069c5761068d818361271a565b9338610bb8565b61105f91945060203d60201161069c5761068d818361271a565b9238610b78565b61108091935060203d60201161069c5761068d818361271a565b9138610b38565b6110a191925060203d60201161069c5761068d818361271a565b9038610af8565b6110c291935060203d60201161069c5761068d818361271a565b9138610ab8565b6110e391925060203d60201161069c5761068d818361271a565b9038610a78565b346103b4576040806003193601126103b457602435611107615777565b156112a157611115336157fc565b801561128d575b1561127d576000916111386104a884546001600160a01b031690565b8151809163111ea8c160e21b825281600460209384935afa9182156106a357859261125e575b506004355b8481111561116f578580f35b8351828101828152819003808252601f19916111a091611192906020018261271a565b61119a6153f0565b86615a17565b6111b483600052601a602052604060002090565b55865b600881106111cf5750506111ca90613ad4565b611163565b85518481018481526020810183905261123e929161120a916111fc9082906040010386810183528261271a565b611204615429565b88615a17565b8115611243575b61123882611229876000526016602052604060002090565b90600052602052604060002090565b55613ad4565b6111b7565b8061125886600052601d602052604060002090565b55611211565b816112769293503d841161069c5761068d818361271a565b903861115e565b6004825163ea8e4eb560e01b8152fd5b50336001600160a01b03600554161461111c565b60048251634ee2123760e11b8152fd5b60e0810192916000915b600783106112c857505050565b6001908251815260208091019201920191906112bb565b346103b45760203660031901126103b45761070960043561143961142960405192611309846126e2565b60e0368537611335611325826000526017602052604060002090565b6001600052602052604060002090565b54845261135f61134f826000526017602052604060002090565b6002600052602052604060002090565b54602085015261138c61137c826000526017602052604060002090565b6003600052602052604060002090565b5460408501526113b96113a9826000526017602052604060002090565b6004600052602052604060002090565b5460608501526113e66113d6826000526017602052604060002090565b6005600052602052604060002090565b546080850152611413611403826000526017602052604060002090565b6006600052602052604060002090565b5460a08501526000526017602052604060002090565b6007600052602052604060002090565b5460c0820152604051918291826112b1565b346103b45760003660031901126103b45760206001600160a01b0360005416604051908152f35b60409060031901126103b45760043561148a816103b9565b90602435611497816103b9565b90565b346103b4576114a836611472565b6114b0613825565b6107096114fb6114cf6114c16135e3565b6114c96135fb565b336159c6565b61151b6114e56114dd6135e3565b6114c9613634565b6001600160a01b0393868516938516841461366d565b836115136104a882600054166001600160a01b031690565b9116146136b8565b61152681151561400e565b611543846001600160a01b03166000526012602052604060002090565b5415801561191b575b61155590614059565b61157d611575866001600160a01b03166000526012602052604060002090565b5415156140a4565b6115b3600561059c6115a2886001600160a01b03166000526012602052604060002090565b546000526015602052604060002090565b6040517f880cdc310000000000000000000000000000000000000000000000000000000060208201526001600160a01b038616602482015290929061160c9080604481015b039461065b601f199687810184528361271a565b506116356104a8600461059c6115a28a6001600160a01b03166000526012602052604060002090565b6118a8575b611657866001600160a01b03166000526012602052604060002090565b54611675866001600160a01b03166000526012602052604060002090565b556116c6856116ab61169a896001600160a01b03166000526012602052604060002090565b546000526013602052604060002090565b906001600160a01b03166001600160a01b0319825416179055565b6117083360046116ec6115a2896001600160a01b03166000526012602052604060002090565b01906001600160a01b03166001600160a01b0319825416179055565b851614159081611883575b611730846001600160a01b03166000526012602052604060002090565b549361174b600561059c876000526015602052604060002090565b9561177a61049b6002611768896000526015602052604060002090565b01546000526013602052604060002090565b931561181b5761065b6117e5936117996009546001600160a01b031690565b6040517fe3d1d5bf0000000000000000000000000000000000000000000000000000000060208201526001600160a01b039485166024820152949093166044850152836064810161064f565b505b6117f16001601155565b60405193849384916040919493606084019584526001600160a01b03809216602085015216910152565b61064f915061065b61187d936118396009546001600160a01b031690565b6040517f9498d88b0000000000000000000000000000000000000000000000000000000060208201526001600160a01b039094166024850152929384906044820190565b506117e7565b60006118a2866001600160a01b03166000526012602052604060002090565b55611713565b6119156118d0600461059c6115a28a6001600160a01b03166000526012602052604060002090565b6040517f0399c93c0000000000000000000000000000000000000000000000000000000060208201523360248201529061065b82604481015b0387810184528361271a565b5061163a565b50848216811461154c565b346103b45760203660031901126103b4576004356000526015602052602060ff600160406000200154166040519015158152f35b346103b45760203660031901126103b45760043560005260156020526020600360406000200154604051908152f35b346103b45760203660031901126103b457600435600052601560205260206001600160a01b0360046040600020015416604051908152f35b346103b45760003660031901126103b4576020601f54604051908152f35b346103b45760203660031901126103b45760043580600052601560205260406000205460136020526107096001600160a01b0380604060002054169360156020526040600020916004600284015493015416611a4a600561059c846000526015602052604060002090565b906003611a7a611a696001610471876000526015602052604060002090565b946000526015602052604060002090565b01549360405197889788939160c09591989796939260e086019986526001600160a01b03938480931660208801526040870152166060850152166080830152151560a08201520152565b346103b45760203660031901126103b4576001600160a01b03600435611ae9816103b9565b1660005260126020526040600020546000526015602052602060ff600160406000200154166040519015158152f35b346103b457611b2636611472565b611b2e615777565b156108b557611b3c336157fc565b8015611b9d575b1561089057611b5991611b54613825565b613ae3565b8060005260156020526001600160a01b036005604060002001541690611b7e81613fad565b6001601155604080519182526001600160a01b03929092166020820152f35b50336001600160a01b036005541614611b43565b346103b45760003660031901126103b4576020601454604051908152f35b346103b45760203660031901126103b4576001600160a01b03600435611bf4816103b9565b1660005260126020526020604060002054604051908152f35b346103b45760203660031901126103b457600435611c29613825565b6001611c4661047982610471856000526015602052604060002090565b611c6e611c66336001600160a01b03166000526012602052604060002090565b5483146140ef565b611c8282600052601e602052604060002090565b906002908183019260ff8454818160081c168061207e575b611ca3906144e2565b60101c16611ed45750611ccd82611cc4866000526015602052604060002090565b01541515614578565b6000815b611da9575b505080611d41846001600160a01b03611d19600561059c600097611d076105699b6000526015602052604060002090565b01546000526015602052604060002090565b16611d54575b8454611d319060101c60ff1682614610565b6000526015602052604060002090565b0155805462ff0000191662010000179055565b611da3611d74600561059c86611d07866000526015602052604060002090565b604051636f58dd0f60e11b6020820152600060248201529061065b82604481015b03601f19810184528361271a565b50611d1f565b600380611dc485611d07896000526015602052604060002090565b0154821015611ece5785611dfe611df48484611dee89611d07876000526015602052604060002090565b01613e27565b90549060031b1c90565b14611e135750611e0d90613ad4565b81611cd1565b83925094611ec486611ea6611d4194611e8d611e73611df46105699c611e4960009c611d078b6000526015602052604060002090565b01611e6d87611e668d611d078d6000526015602052604060002090565b01546138be565b90613e27565b9184611dee8a611d078a6000526015602052604060002090565b90919082549060031b91821b91600019901b1916179055565b611ebe85611d07856000526015602052604060002090565b016145c3565b9450819250611cd6565b50611cd6565b611f7461098394611f40876003611f3a8897611f7a97611f0e859b611f06611fac9f6000526015602052604060002090565b01541561452d565b019788548091611f28866000526015602052604060002090565b01556000526015602052604060002090565b01613e44565b83546001600160a01b03611f63600561059c846000526015602052604060002090565b16612036575b505460101c60ff1690565b83614610565b611f966104a8600461059c856000526015602052604060002090565b611fb1575b50600052601e602052604060002090565b610569565b611d9561202f9161065b611fec61049b611fda600461059c896000526015602052604060002090565b93546000526013602052604060002090565b6040517f1499c5920000000000000000000000000000000000000000000000000000000060208201526001600160a01b0390911660248201529283906044820190565b5038611f9b565b612052600561059c612077936000526015602052604060002090565b604051636f58dd0f60e11b6020820152600160248201529061065b8260448101611d95565b5038611f69565b50808216611c9a565b346103b4576040806003193601126103b4576004356120a4613825565b6120c06104796001610471846000526015602052604060002090565b6120e66120df6104a8600461059c856000526015602052604060002090565b33146142a5565b6120ee613890565b61070961010061210d600561059c856000526015602052604060002090565b612231601f549486805193826121746121666020977f02a085f20000000000000000000000000000000000000000000000000000000089820152806115f860249d8e803590840160209093929193604081019481520152565b87808251830101910161498b565b98895192612187888c0194855190613818565b978b6121988782019a8b5190613818565b6121a86060830191825190613818565b906121b96080840192835190613818565b97868a896121cd60a088019c8d5190613818565b966121e66121e160c08301998a5190613818565b615396565b888151612427575b505090915082516123ae575b505050805161233d575b5080516122d3575b5061221a8651825190613818565b612256575b5050505050505060e086015190614abc565b51920151926122406001601155565b5191825260208201929092529081906040820190565b6122c69663a9059cbb60e01b9661065b956122a161064f9461229761049b612286600f546001600160a01b031690565b9b6000526013602052604060002090565b9351905190613818565b92519889958601528401602090939291936001600160a01b0360408201951681520152565b508638828180808061221f565b612336906122e96010546001600160a01b031690565b61065b61230361049b8a6000526013602052604060002090565b92518b5163a9059cbb60e01b888201526001600160a01b0390941689850190815260208101919091528390604001611909565b503861220c565b6123a790612353600c546001600160a01b031690565b61065b61236d61049b8b6000526013602052604060002090565b92518c5163a9059cbb60e01b898201526001600160a01b039094168a8501908152602081019190915283906040010388810184528361271a565b5038612204565b61065b61241e936124126123e161049b6123d0600e546001600160a01b031690565b956000526013602052604060002090565b9151945194859263a9059cbb60e01b8c8501528d8401602090939291936001600160a01b0360408201951681520152565b0389810184528361271a565b503889886121fa565b61248b63a9059cbb60e01b9461065b936124979761246461049b612453600d546001600160a01b031690565b986000526013602052604060002090565b915192519788958601528401602090939291936001600160a01b0360408201951681520152565b038a810184528361271a565b508f8a898992886121ee565b346103b45760403660031901126103b4576004356024356124c2613825565b6124de6104796001610471856000526015602052604060002090565b6124fb6104b46104a861049b856000526013602052604060002090565b61252d612517600561059c856000526015602052604060002090565b61251f614194565b6125276135d0565b91615908565b90806125436020938480825183010191016141cd565b1015612553576100166001601155565b826126306001600160a01b03927ff526f68a000000000000000000000000000000000000000000000000000000009461262461260961049b6125f46125e66125c46125b0600561059c6126369f6000526015602052604060002090565b976040519182918983019190602083019252565b03976125d8601f19998a810184528361271a565b6125e06141dc565b90615908565b858082518301019101614215565b99925050506000526013602052604060002090565b6126116135e3565b9060405198899485015260248401614285565b0390810185528461271a565b16615a9d565b50388080610569565b346103b45760203660031901126103b457602060043561265e816103b9565b6001600160a01b03809116600052601282526040600020546000526015825260056040600020015416604051908152f35b634e487b7160e01b600052604160045260246000fd5b6060810190811067ffffffffffffffff8211176126c157604052565b61268f565b6040810190811067ffffffffffffffff8211176126c157604052565b60e0810190811067ffffffffffffffff8211176126c157604052565b6020810190811067ffffffffffffffff8211176126c157604052565b90601f8019910116810190811067ffffffffffffffff8211176126c157604052565b604051906101e0820182811067ffffffffffffffff8211176126c157604052565b346103b4576101003660031901126103b45736604312156103b457604051612784816126e2565b610104813682116103b4576024905b8282106127a6576100168460043561509a565b8135815260209182019101612793565b346103b4576040806003193601126103b457600435906127d4615777565b156128b3576127e2336157fc565b801561289f575b1561288f5761288c90600092808452601560205261280f60ff6001848720015416613f62565b8352601e6020526002612878612869611d9584872094612836602435600188015414614306565b61286161284b6005546001600160a01b031690565b9187549051938491602083019190602083019252565b6125e061447b565b602080825183010191016144c1565b5091019060ff801983541691151516179055565b80f35b6004905163ea8e4eb560e01b8152fd5b50336001600160a01b0360055416146127e9565b60049051634ee2123760e11b8152fd5b346103b45760403660031901126103b457600435600052601660205260406000206024356000526020526020604060002054604051908152f35b346103b45760203660031901126103b45760043560005260156020526020600260406000200154604051908152f35b346103b45760403660031901126103b4576004356000526015602052602061295d6024356003604060002001613e27565b90549060031b1c604051908152f35b346103b45760003660031901126103b45760206001600160a01b0360015416604051908152f35b346103b45760403660031901126103b4576024356129af615777565b156108b5576129bd336157fc565b80156129f5575b1561089057600090808252601c602052604082205490600435820180921161088b578252601c602052604082205580f35b50336001600160a01b0360055416146129c4565b346103b45760203660031901126103b457600435600052601d6020526020604060002054604051908152f35b346103b45760003660031901126103b4576020612aa26001600160a01b0360065416604051612a63816126c6565b601381527f67657464656c656761746f72436f756e742829000000000000000000000000008482015260405191612a99836126fe565b60008352615a17565b604051908152f35b610100810192916000915b60088310612ac257505050565b600190825181526020809101920192019190612ab5565b346103b45760203660031901126103b457610709600435612be6611429612afe615319565b92612b25612b16826000526016602052604060002090565b60008052602052604060002090565b548452612b3f611325826000526016602052604060002090565b546020850152612b5c61134f826000526016602052604060002090565b546040850152612b7961137c826000526016602052604060002090565b546060850152612b966113a9826000526016602052604060002090565b546080850152612bb36113d6826000526016602052604060002090565b5460a0850152612bd0611403826000526016602052604060002090565b5460c08501526000526016602052604060002090565b5460e082015260405191829182612aaa565b346103b45760203660031901126103b4576020612c1f600435612c1a816103b9565b6157fc565b6040519015158152f35b346103b457612d31612c3a36611472565b90612c43613825565b612c8c612c516114c16135e3565b612c5c6114dd6135e3565b90612c756001600160a01b03918280881691161461366d565b6115136104a882600054166001600160a01b031690565b612cb9612cb460016104716115a2856001600160a01b03166000526012602052604060002090565b613703565b612d22612d18612d09612ce7600561059c6115a2876001600160a01b03166000526012602052604060002090565b60405190612d0182611d9560208201906000602083019252565b6125e061374e565b60208082518301019101613787565b50505015156137a9565b612d2a613860565b3390613cf5565b612d4a612b16601f546000526016602052604060002090565b612d54815461380a565b9055612d5e6153c2565b612d77600561059c836000526015602052604060002090565b90612d8181613fad565b612d8b6001601155565b604080519182526001600160a01b03929092166020820152f35b346103b45760203660031901126103b457612dbe615777565b156108b557612dcc336157fc565b8015612e07575b1561089057612de0615886565b601f5410612df7575b610016600435601f546138da565b612dff615886565b601f55612de9565b50336001600160a01b036005541614612dd3565b346103b45760203660031901126103b4576004356001600160a01b036005541633036108905760009060046020612e5c6104a885546001600160a01b031690565b604051928380927f46f991ac0000000000000000000000000000000000000000000000000000000082525afa80156106a35783808481949382948391612efe575b505af1612ea86158d8565b50156107f5577fcdcc745fe377b103b45fa0cec23ae3ef93d6fc6a84a01f0d18c40b354dd1d5d8612ef8612ee76104a8600b546001600160a01b031690565b604051938452929081906020820190565b0390a280f35b612f16915060203d811161069c5761068d818361271a565b38612e9d565b346103b45760203660031901126103b457600435600052601b6020526020604060002054604051908152f35b346103b45760203660031901126103b457600435612f65816103b9565b803b6000612f72826135b4565b92612f80604051948561271a565b82845260208401903c602d815110612fa457602a602091015160601c604051908152f35b60046040517fbaf3f0f7000000000000000000000000000000000000000000000000000000008152fd5b60403660031901126103b457600435612fe5613825565b600090808252601560205261300360ff600160408520015416613f62565b815260156020526130436001600160a01b036005604084200154166040519062a0e53360e51b602083015260243560248301526024825261065b826126a5565b50600160115580f35b346103b45760403660031901126103b457600435600052601860205260406000206024356000526020526020604060002054604051908152f35b346103b45760c03660031901126103b4576105696004356024356130a9816103b9565b606435916131a961319a608435936130bf613825565b6130db6104796001610471876000526015602052604060002090565b6130fa6120df6104a8600461059c886000526015602052604060002090565b613102613890565b61310b8561533e565b6131148661536a565b61312d600561059c866000526015602052604060002090565b601f546040517fa66303040000000000000000000000000000000000000000000000000000000060208201526001600160a01b039093166024840152604480359084015260648301889052608483019690965260a480359083015260c48201959095528060e481016115f8565b602080825183010191016142f0565b92816131b7575b5050614dde565b6131fd9161065b61064f926131d4600b546001600160a01b031690565b60405163a9059cbb60e01b60208201523360248201526044810194909452929384906064820190565b5038806131b0565b346103b4576020806003193601126103b4576107099060043590613228826103b9565b61328c6001600160a01b039283600654169360405191168382015282815261324f816126c6565b60405161325b816126c6565b601881527f697364656c656761746f724e6f6465286164647265737329000000000000000084820152600094615933565b9190806132c6575b6132ad575b505060405190151581529081906020820190565b6132bf92508082518301019101615763565b3880613299565b5080825114613294565b346103b45760003660031901126103b4576020612c1f615777565b346103b45760203660031901126103b457600435600052601a6020526020604060002054604051908152f35b346103b4576040806003193601126103b45760243590600435613338615777565b156112a157613346336157fc565b80156134e9575b1561127d576134d8610569936133ec6134c561064f6134389661065b600297613374613825565b6133906104796001610471846000526015602052604060002090565b6133b16133ac60016104718a6000526015602052604060002090565b614306565b866134856133ce600561059c846000526015602052604060002090565b9261340e612d1861340088518060209d8e8201906000602083019252565b0397612d01601f19998a810184528361271a565b8b8082518301019101613787565b61344161343c61342883600052601e602052604060002090565b9d8e019e8f5460ff9060081c1690565b1590565b614351565b85517f7bb98498000000000000000000000000000000000000000000000000000000008a82015260248101919091526044810192909252606483810183528261271a565b6005546001600160a01b031693519485917fffa734f00000000000000000000000000000000000000000000000000000000089840152306024840161439c565b91600185015580825183010191016141cd565b9055805461ff001916610100179055565b50336001600160a01b03600554161461334d565b346103b45760203660031901126103b457600435600052601c6020526020604060002054604051908152f35b346103b4576040806003193601126103b4576001600160a01b0360043561354f816103b9565b166000818152601260208181528483205483526019815284832054938352908152838220548252601881528382206024358352815290839020549251918252810191909152604090f35b346103b45760003660031901126103b4576020612aa2615886565b67ffffffffffffffff81116126c157601f01601f191660200190565b604051906135dd826126fe565b60008252565b6040516135ef816126fe565b60008152906000368137565b60405190613608826126c6565b600782527f6f776e65722829000000000000000000000000000000000000000000000000006020830152565b60405190613641826126c6565b600c82527f67657448657862617365282900000000000000000000000000000000000000006020830152565b1561367457565b606460405162461bcd60e51b815260206004820152601760248201527f6e65737465642e696e76616c69642e696e7374616e63650000000000000000006044820152fd5b156136bf57565b606460405162461bcd60e51b815260206004820152601660248201527f6e65737465642e696e76616c69642e68657862617365000000000000000000006044820152fd5b1561370a57565b606460405162461bcd60e51b815260206004820152601860248201527f6e65737465642e706172656e742e6e6f742e65786973747300000000000000006044820152fd5b6040519061375b826126c6565b601282527f6765744e6f64654c422875696e743235362900000000000000000000000000006020830152565b91908260809103126103b4578151916020810151916060604083015192015190565b156137b057565b606460405162461bcd60e51b815260206004820152601960248201527f6e65737465642e706172656e742e6e6f2e627573696e657373000000000000006044820152fd5b634e487b7160e01b600052601160045260246000fd5b906001820180921161088b57565b9190820180921161088b57565b600260115414613836576002601155565b60046040517f3ee5aeb5000000000000000000000000000000000000000000000000000000008152fd5b613868615886565b601f5410613880575b61387e6005601f546138da565b565b613888615886565b601f55613871565b613898615886565b601f54106138ae575b61387e6002601f546138da565b6138b6615886565b601f556138a1565b60001981019190821161088b57565b9190820391821161088b57565b906138f2612b16836000526016602052604060002090565b541580613a7f575b80613a76575b613908575050565b6139249061391e613918846138be565b916138be565b906138da565b613943612b16613933836138be565b6000526016602052604060002090565b5461395b612b16836000526016602052604060002090565b5561396b611325613933836138be565b54613983611325836000526016602052604060002090565b5561399361134f613933836138be565b546139ab61134f836000526016602052604060002090565b556139bb61137c613933836138be565b546139d361137c836000526016602052604060002090565b556139e36113a9613933836138be565b546139fb6113a9836000526016602052604060002090565b55613a0b6113d6613933836138be565b54613a236113d6836000526016602052604060002090565b55613a33611403613933836138be565b54613a4b611403836000526016602052604060002090565b55613a73611429613a61611429613933856138be565b54926000526016602052604060002090565b55565b50801515613900565b50600182116138fa565b15613a9057565b606460405162461bcd60e51b815260206004820152601560248201527f6e65737465642e616c72656164792e65786973747300000000000000000000006044820152fd5b600019811461088b5760010190565b90613b14613b0f61343860016104716115a2866001600160a01b03166000526012602052604060002090565b613a89565b613b27613b22601454613ad4565b601455565b613b7e60145492613b46836116ab866000526013602052604060002090565b83613b64846001600160a01b03166000526012602052604060002090565b556001600160a01b03166000526012602052604060002090565b5490613b8a8383613e6c565b613bb46004613ba3856000526015602052604060002090565b016001600160a01b03198154169055565b613be7613bd1613bcc6008546001600160a01b031690565b613d91565b60056116ec866000526015602052604060002090565b613c72613c03600561059c866000526015602052604060002090565b91613c196104a86000546001600160a01b031690565b6040517f52902c590000000000000000000000000000000000000000000000000000000060208201526001600160a01b0391821660248201529116604482015260648082018690528152601f199261065b60848361271a565b5081151580613ccb575b613c8557505090565b613ca1600561059c613cc7946000526015602052604060002090565b604051636f58dd0f60e11b6020820152600160248201529161065b90836044810161064f565b5090565b506001600160a01b03613ced600561059c856000526015602052604060002090565b161515613c7c565b91613d21613b0f61343860016104716115a2866001600160a01b03166000526012602052604060002090565b613d2f613b22601454613ad4565b613bb4613d6f60145494613d51846116ab886000526013602052604060002090565b85613b64856001600160a01b03166000526012602052604060002090565b5492613d7b8585613e6c565b60046116ec866000526015602052604060002090565b6e5af43d82803e903d91602b57fd5bf390763d602d80600a3d3981f3363d3d373d3d3d363d7300000062ffffff8260881c161760005260781b17602052603760096000f0906001600160a01b03821615613de757565b60046040517fb06ebf3d000000000000000000000000000000000000000000000000000000008152fd5b634e487b7160e01b600052603260045260246000fd5b8054821015613e3f5760005260206000200190600090565b613e11565b90815491680100000000000000008310156126c15782611e8d91600161387e95018155613e27565b919091600092808452602091601583526040808620956002948386890155846001988981018a60ff198254161790555587613eb1866000526018602052604060002090565b83805282528489858520555b613ecc57505050505050509050565b613f3a613f29828b8a9414613f43575b613ef0886000526018602052604060002090565b8187528552868620613f02815461380a565b9055613f18886000526019602052604060002090565b613f22815461380a565b9055613ad4565b956000526015602052604060002090565b01549384613ebd565b613f5d896003611f3a8b6000526015602052604060002090565b613edc565b15613f6957565b606460405162461bcd60e51b815260206004820152601560248201527f6e65737465642e757365722e6e6f7461637469766500000000000000000000006044820152fd5b806000526015602052613fca60ff60016040600020015416613f62565b600052601560205261400b6001600160a01b03600560406000200154166040519062a0e53360e51b6020830152600160248301526024825261065b826126a5565b50565b1561401557565b606460405162461bcd60e51b815260206004820152601360248201527f6e65737465642e7a65726f2e61646472657373000000000000000000000000006044820152fd5b1561406057565b606460405162461bcd60e51b815260206004820152601460248201527f6e65737465642e7461726765742e6578697374730000000000000000000000006044820152fd5b156140ab57565b606460405162461bcd60e51b815260206004820152601760248201527f6e65737465642e736f757263652e6e6f744578697374730000000000000000006044820152fd5b156140f657565b606460405162461bcd60e51b815260206004820152601560248201527f6e65737465642e696e76616c69642e73656e64657200000000000000000000006044820152fd5b908160209103126103b45751611497816103b9565b6040513d6000823e3d90fd5b60405190614168826126c6565b601382527f55736572546f496e7374286164647265737329000000000000000000000000006020830152565b604051906141a1826126c6565b600b82527f6d696e74436f756e7428290000000000000000000000000000000000000000006020830152565b908160209103126103b4575190565b604051906141e9826126c6565b600e82527f6d696e74732875696e74323536290000000000000000000000000000000000006020830152565b91908260809103126103b45781519160208101519160606040830151920151611497816103b9565b60005b8381106142505750506000910152565b8181015183820152602001614240565b906020916142798151809281855285808601910161423d565b601f01601f1916010190565b6040906001600160a01b0361149794931681528160208201520190614260565b156142ac57565b606460405162461bcd60e51b815260206004820152601b60248201527f6e65737465642e757365722e696e76616c6964696e7374616e636500000000006044820152fd5b91908260409103126103b4576020825192015190565b1561430d57565b606460405162461bcd60e51b815260206004820152601560248201527f6e65737465642e696e76616c69642e706172656e7400000000000000000000006044820152fd5b1561435857565b606460405162461bcd60e51b815260206004820152601760248201527f6e65737465642e7265712e616c726561647965786973740000000000000000006044820152fd5b929161442460a0916001600160a01b0360009460c08852602460c08901527f547269676765722e6e65737465642e70726f706f73616c2e6d6f7665646f776e60e08901527f6c696e6500000000000000000000000000000000000000000000000000000000610100890152166020870152836040870152610120806060880152860190614260565b93600a60808201520152565b1561443757565b606460405162461bcd60e51b815260206004820152601360248201527f6e65737465642e7265712e6e6f746578697374000000000000000000000000006044820152fd5b60405190614488826126c6565b601282527f6765745374617475732875696e743235362900000000000000000000000000006020830152565b519081151582036103b457565b91908260409103126103b45761149760206144db846144b4565b93016144b4565b156144e957565b606460405162461bcd60e51b815260206004820152601660248201527f6e65737465642e7265712e6e6f74617070726f766564000000000000000000006044820152fd5b1561453457565b606460405162461bcd60e51b815260206004820152601860248201527f6e65737465642e757365722e6e6f742e646574616368656400000000000000006044820152fd5b1561457f57565b606460405162461bcd60e51b815260206004820152601c60248201527f6e65737465642e757365722e616c72656164792e6465746163686564000000006044820152fd5b80549081156145ed57600019918201916145dd8383613e27565b909182549160031b1b1916905555565b634e487b7160e01b600052603160045260246000fd5b801561088b576000190190565b9061462e614628836000526019602052604060002090565b5461380a565b9160029081614647826000526015602052604060002090565b0154906001938492835b61465f575b50505050505050565b600f8085111580614982575b1561497c578590600561468f6104a88261059c876000526015602052604060002090565b6146bc575b50506146ad6146b5926000526015602052604060002090565b015493613ad4565b9285614651565b865b828111156147b7575050506146ad6146b59284600014614754576147066146ef876000526018602052604060002090565b6146f8896138be565b600052602052604060002090565b5461472a61472289611229856000526018602052604060002090565b918254613818565b9055614740816000526019602052604060002090565b61474b8b8254613818565b90555b92614694565b61476b6146ef876000526018602052604060002090565b5461478f61478789611229856000526018602052604060002090565b9182546138cd565b90556147a5816000526019602052604060002090565b6147b08b82546138cd565b905561474e565b909192506147d38261059c886000526015602052604060002090565b6147dd88836138cd565b6040918761481f6148118551806147fd6020978883019190602083019252565b0394612d01601f199687810184528361271a565b848082518301019101613787565b50509290878a821580614974575b61496357926148b5949261064f61485a61065b9461059c6148c29b9a986000526015602052604060002090565b94601f9a8c8c5491519889957f7b058ac1000000000000000000000000000000000000000000000000000000008d8801526024870193909594919260809360a086019786526020860152604085015260608401521515910152565b80518101820191016142f0565b908715614919575b8082116148e6575050506148dd90613ad4565b908792916146be565b6148ef90613ad4565b6149088161122985546000526016602052604060002090565b614912815461380a565b90556148ca565b9190915b828111614930575050506148dd90613ad4565b8061494d61495e9261122985546000526016602052604060002090565b61495781546138be565b9055614603565b61491d565b50505050505050506148dd90613ad4565b50851561482d565b50614656565b5081151561466b565b9061012080838303126103b45781601f840112156103b4576040519281840184811067ffffffffffffffff8211176126c157604052839181019283116103b457905b8282106149da5750505090565b81518152602091820191016149cd565b604051906149f7826126c6565b600f82527f66726565496e74657276616c73282900000000000000000000000000000000006020830152565b60405190614a30826126c6565b601582527f67657452616e6b5769746841676556616c7565282900000000000000000000006020830152565b60405190614a69826126c6565b601382527f72616e6b436c617573652875696e7432353629000000000000000000000000006020830152565b908160a09103126103b4578051916020820151916040810151916080606083015192015190565b919091600392614aed614ad685546001600160a01b031690565b614ade6135e3565b90614ae76149ea565b90615a17565b9360008092819082948392849185985b600f8a111580614dd5575b15614dc7576005614b2a6104a88261059c856000526015602052604060002090565b614b57575b506002614b49614b51926000526015602052604060002090565b015499613ad4565b98614afd565b8c614b7b614b738361059c866000526015602052604060002090565b61251f614a23565b8c614b906020928380825183010191016142f0565b829591951580614d5e575b1580614d55575b8015614d4d575b614bb8575b5050505050614b2f565b869e8697929394959603614c8c575b50614c49928b61065b8c611d95614bf3614c4f999761059c614c3c986000526015602052604060002090565b93601f9a8b5460405197889563208bffb160e21b8c8801526024870193909594919260a09360c08601978652600060208701526040860152606085015260808401521515910152565b80518101820191016141cd565b9261380a565b80831015614c6a57509098905060028c614b518c3880614bae565b80613f18614c879261122985546000526016602052604060002090565b614c4f565b9193929a50508a8511614cdf575b509087918c86861080801591614cb6575b50159a929193614bc7565b89881015915081614cd7575b5080614ccf575b38614cab565b508815614cc9565b905038614cc2565b995095509350859250614d2e614d20614cff8b546001600160a01b031690565b60405190614d1882611d95888c83019190602083019252565b6125e0614a5c565b868082518301019101614a95565b969350909691509594614d44859b601f546138cd565b11969091614c9a565b506000614ba9565b508a1515614ba2565b99509b50955095509a50614da7614d99838d614d18614d848f546001600160a01b031690565b60405192830193845291928390602001611d95565b8c8082518301019101614a95565b9e9350909791509695849b859e614dc082601f546138cd565b1199614b9b565b505050505050505050509050565b50801515614b08565b90929192614df7614ad66003546001600160a01b031690565b93600091829083809481938280985b600f8a111580615091575b15614dc757614e326104a8600561059c846000526015602052604060002090565b614e56575b6002614b49614e50926000526015602052604060002090565b98614e06565b8b8a614e7761319a614b73600561059c876000526015602052604060002090565b8293919315615034575b8215158061502b575b8015615022575b614e9f575b50505050614e37565b938394819d8d949503614f6c575b50614f3392614c499261065b8c611d958f614eda600561059c614f24996000526015602052604060002090565b94601f9a8b549060405198899663208bffb160e21b60208901526024880194919260a0949197969360c0870198875260208701526040860152606085015260808401521515910152565b602080825183010191016141cd565b80831015614f4a57509098905060028a8d38614e96565b80613f18614f679261122985546000526016602052604060002090565b614f33565b935050509750828211614fbe575b50898c878b86851080801591614f95575b50159a9291614ead565b89871015915081614fb6575b5080614fae575b38614f8b565b508815614fa8565b905038614fa1565b935093505050615005614ff6614fdc6003546001600160a01b031690565b60405190614d1882611d9588602083019190602083019252565b60208082518301019101614a95565b935090939150929161501a8592601f546138cd565b119338614f7a565b508b1515614e91565b50891515614e8a565b97505050935097505050615070614ff66150566003546001600160a01b031690565b60405190614d1882611d9587602083019190602083019252565b999350909391509291818a8d829b61508a89601f546138cd565b1197614e81565b50801515614e11565b6150a2615777565b156108b5576150b0336157fc565b80156151af575b15610890576150c4613860565b6150cf8115156151c3565b6150ec6150e46003546001600160a01b031690565b61251f61520e565b615100602091828082518301019101615247565b9061511583600052601a602052604060002090565b549060005b6007811061512a57505050505050565b8061513861519b92886152c4565b5180156151a95761514982876152c4565b518481519283156151a0576151706151759261516861517b968b6152e6565b9401516152d5565b6152e6565b906152f9565b611238615192886000526017602052604060002090565b6146f88461380a565b61511a565b50505050613ad4565b50613ad4565b50336001600160a01b0360055416146150b7565b156151ca57565b606460405162461bcd60e51b815260206004820152601260248201527f6e65737465642e696e76616c69642e61676500000000000000000000000000006044820152fd5b6040519061521b826126c6565b601882527f6765744261746368526f79616c7479436c6175736573282900000000000000006020830152565b6102a09081818403126103b45782601f820112156103b457604080519361526d856126e2565b84938301928184116103b457935b83851061528a57505050505090565b6060858303126103b45782516060916152a2826126a5565b865182526020918288015183820152858801518682015281520194019361527b565b906007811015613e3f5760051b0190565b908160640291606483040361088b57565b8181029291811591840414171561088b57565b8115615303570490565b634e487b7160e01b600052601260045260246000fd5b6040519061010080830183811067ffffffffffffffff8211176126c157604052368337565b601f5480600052601a60205260406000205491820180921161088b57600052601a602052604060002055565b601f5480600052601b60205260406000205491820180921161088b57600052601b602052604060002055565b601f5480600052601c60205260406000205491820180921161088b57600052601c602052604060002055565b601f5480600052601d602052604060002054906001820180921161088b57600052601d602052604060002055565b604051906153fd826126c6565b601482527f676574627573696e6573732875696e74323536290000000000000000000000006020830152565b60405190615436826126c6565b601d82527f67657472616e6b436f756e742875696e743235362c75696e74323536290000006020830152565b6157476101c061387e9261549c61548082516001600160a01b031690565b6001600160a01b03166001600160a01b03196002541617600255565b6154cf6154b360208301516001600160a01b031690565b6001600160a01b03166001600160a01b03196003541617600355565b6155026154e660408301516001600160a01b031690565b6001600160a01b03166001600160a01b03196004541617600455565b61553561551960608301516001600160a01b031690565b6001600160a01b03166001600160a01b03196005541617600555565b61556861554c60808301516001600160a01b031690565b6001600160a01b03166001600160a01b03196006541617600655565b61559b61557f60a08301516001600160a01b031690565b6001600160a01b03166001600160a01b03196007541617600755565b6155ce6155b260c08301516001600160a01b031690565b6001600160a01b03166001600160a01b03196008541617600855565b6156016155e560e08301516001600160a01b031690565b6001600160a01b03166001600160a01b03196009541617600955565b6156356156196101008301516001600160a01b031690565b6001600160a01b03166001600160a01b0319600a541617600a55565b61566961564d6101208301516001600160a01b031690565b6001600160a01b03166001600160a01b0319600b541617600b55565b61569d6156816101408301516001600160a01b031690565b6001600160a01b03166001600160a01b0319600c541617600c55565b6156d16156b56101608301516001600160a01b031690565b6001600160a01b03166001600160a01b0319600d541617600d55565b6157056156e96101808301516001600160a01b031690565b6001600160a01b03166001600160a01b0319600e541617600e55565b61573961571d6101a08301516001600160a01b031690565b6001600160a01b03166001600160a01b0319600f541617600f55565b01516001600160a01b031690565b6001600160a01b03166001600160a01b03196010541617601055565b908160209103126103b457611497906144b4565b6157d26001600160a01b0360025416604051615792816126c6565b600881527f69735361666528290000000000000000000000000000000000000000000000006020820152604051916157c9836126fe565b60008352615933565b90806157f1575b156107f5578060208061149793518301019101615763565b5060208151146157d9565b61585f6001600160a01b038060025416604051916020941684830152838252615824826126c6565b60405190615831826126c6565b601582527f697353656375726542617365286164647265737329000000000000000000000085830152615933565b908061587c575b156107f557816114979282518301019101615763565b5081815114615866565b6114976001600160a01b03600354166040516158a1816126c6565b600681527f6941676528290000000000000000000000000000000000000000000000000000602082015260405191612a99836126fe565b3d15615903573d906158e9826135b4565b916158f7604051938461271a565b82523d6000602084013e565b606090565b906159139291615933565b9060009015615920575090565b604051915061592e826126fe565b815290565b803b156159ad576000927fffffffff00000000000000000000000000000000000000000000000000000000836020869551910120169061599d602460405180936020820195865261598d815180926020868601910161423d565b810103600481018452018261271a565b51915afa6159a96158d8565b9091565b5050506000906040516159bf816126fe565b6000815290565b92916159d491600094615933565b9080615a0c575b6159e25750565b9091506020818051810103126103b45760206001600160a01b03910151615a08816103b9565b1690565b5060208151146159db565b9291615a2591600094615933565b9080615a48575b615a335750565b611497919250602080825183010191016141cd565b506020815114615a2c565b90602082519201517fffffffff00000000000000000000000000000000000000000000000000000000908181169360048110615a8e57505050565b60040360031b82901b16169150565b6001600160a01b03811615615b5057600080918351908260208601915af190615ac46158d8565b9115615ace575090565b805160009190600411615b4a57615ae59150615a53565b815115615af55750805190602001fd5b6040517f21c09d340000000000000000000000000000000000000000000000000000000081527fffffffff00000000000000000000000000000000000000000000000000000000919091166004820152602490fd5b50615ae5565b60046040517fe6c4247b000000000000000000000000000000000000000000000000000000008152fdfea26469706673582212205106dffe22a1738098944a89e253a10899d17ada4bce26de06b5752f933b1e2b64736f6c63430008140033","linkReferences":{}},"methodIdentifiers":{"dAOAssembly()":"14837455","daocore()":"14d8d024","nested741()":"45cff900","old741()":"5540c5ac","price()":"a035b1fe"},"id":77}