{"abi":[{"type":"constructor","inputs":[{"name":"_hex","type":"address","internalType":"address"},{"name":"_price","type":"address","internalType":"address"},{"name":"_old741","type":"address","internalType":"address"}],"stateMutability":"nonpayable"},{"type":"function","name":"dAOAssembly","inputs":[],"outputs":[{"name":"","type":"address","internalType":"address"}],"stateMutability":"view"},{"type":"function","name":"daocore","inputs":[],"outputs":[{"name":"","type":"address","internalType":"address"}],"stateMutability":"view"},{"type":"function","name":"nested741","inputs":[],"outputs":[{"name":"","type":"address","internalType":"address"}],"stateMutability":"view"},{"type":"function","name":"old741","inputs":[],"outputs":[{"name":"","type":"address","internalType":"address"}],"stateMutability":"view"},{"type":"function","name":"price","inputs":[],"outputs":[{"name":"","type":"address","internalType":"address"}],"stateMutability":"view"}],"bytecode":{"object":"0x6080346101b757601f61a6ce38819003918201601f19168301926001600160401b03929091838511838610176101a15781606092849260409788528339810103126101b75761004d816101bc565b6100648461005d602085016101bc565b93016101bc565b9160018060a01b03199273c0cee8b561cc4f60869776ca5b0b7a295e04f5af84600154161760015585516118489586820196828810828911176101a15761032583396001600160a01b039485168088526000979092908190036020019088f080156101835785168660035416176003558751615abc808201908282108483111761018d576020918391614c12833985815203019088f080156101835785168660025416176002558751916130a5808401928484109084111761016f57918391602093611b6d8439815203019086f080156101655790838092168560045416176004551683600154161760015516908254161790555161015490816101d18239f35b86513d87823e3d90fd5b634e487b7160e01b89526041600452602489fd5b88513d89823e3d90fd5b634e487b7160e01b8a52604160045260248afd5b634e487b7160e01b600052604160045260246000fd5b600080fd5b51906001600160a01b03821682036101b75756fe608080604052600436101561001357600080fd5b600090813560e01c90816314837455146100f55750806314d8d024146100ce57806345cff900146100a75780635540c5ac146100805763a035b1fe1461005857600080fd5b3461007d578060031936011261007d576001600160a01b036020915416604051908152f35b80fd5b503461007d578060031936011261007d5760206001600160a01b0360015416604051908152f35b503461007d578060031936011261007d5760206001600160a01b0360025416604051908152f35b503461007d578060031936011261007d5760206001600160a01b0360045416604051908152f35b90503461011a578160031936011261011a576020906001600160a01b03600354168152f35b5080fdfea2646970667358221220eade5690340decc506836384c2fad279b20d9006f02782a9e35cce17ce25698764736f6c6343000814003360803461009757601f61184838819003918201601f19168301916001600160401b0383118484101761009c5780849260209460405283398101031261009757516001600160a01b038116908190036100975780156100855760018060a01b0319338160015416176001556000541617600055600060125560405161179590816100b38239f35b60405163e6c4247b60e01b8152600490fd5b600080fd5b634e487b7160e01b600052604160045260246000fdfe60806040526004361015610018575b361561001657005b005b60003560e01c806312065fe0146101185780631f185d161461011357806325924f341461010e578063339459a6146101095780633b9b79551461010457806361b7fbd9146100ff5780638da5cb5b146100fa578063a1f7f539146100f5578063af484526146100f0578063b90306ad146100eb578063c54e44b0146100e6578063c89b84fd146100e1578063dbac26e9146100dc578063e01ad5fd146100d7578063e0a9bc2b146100d25763fdc10bc90361000e57610ecf565b610eb4565b610e34565b610df1565b610d2c565b610ca6565b610b98565b610b19565b610aa4565b610a7d565b61098f565b61095e565b610266565b610235565b61014a565b3461013457600036600319011261013457602047604051908152f35b600080fd5b6001600160a01b0381160361013457565b3461013457602080600319360112610134576101c960043561016b81610139565b6001600160a01b0380600254169060405192168483015283825261018e82610f00565b6040519061019b82610f00565b601182527f69735369676e6572286164647265737329000000000000000000000000000000858301526115e6565b91908061022b575b156102015781816101eb926101fd945183010191016114ca565b60405190151581529081906020820190565b0390f35b60046040517f3204506f000000000000000000000000000000000000000000000000000000008152fd5b50808251146101d1565b3461013457602036600319011261013457602061025c60043561025781610139565b61108e565b6040519015158152f35b346101345760003660031901126101345761029861028c6000546001600160a01b031690565b6001600160a01b031690565b604051907f97f3815a000000000000000000000000000000000000000000000000000000008252602082600481845afa91821561078e5760009261093d575b50604051917fcfbffe53000000000000000000000000000000000000000000000000000000008352602083600481855afa92831561078e5760009361091c575b50604051907fab6e844f000000000000000000000000000000000000000000000000000000008252602082600481865afa91821561078e576000926108fb575b50604051917f14d8d024000000000000000000000000000000000000000000000000000000008352602083600481875afa92831561078e576000936108da575b50604051927fd1f956b1000000000000000000000000000000000000000000000000000000008452602084600481885afa93841561078e576000946108b9575b50604051937fe61dfd58000000000000000000000000000000000000000000000000000000008552602085600481895afa94851561078e57600095610898575b506040517fe09d394d0000000000000000000000000000000000000000000000000000000081526020816004818a5afa90811561078e57600091610879575b506040517f52b06d640000000000000000000000000000000000000000000000000000000081526020816004818b5afa90811561078e5760009161085a575b506040517f013cf08b00000000000000000000000000000000000000000000000000000000815260006004820152916020836024818c5afa92831561078e57600093610839575b50604051977f5e09dbe70000000000000000000000000000000000000000000000000000000089526020896004818d5afa94851561078e57600499600096610818575b5060208b6040519b8c80927faa0ddc160000000000000000000000000000000000000000000000000000000082525afa96871561078e5760049a6000986107f7575b5060208c6040519c8d80927f640274270000000000000000000000000000000000000000000000000000000082525afa98891561078e5760049b60009a6107d6575b5060208d6040519d8e80927f30125cf50000000000000000000000000000000000000000000000000000000082525afa9a8b1561078e578d60049d60009d6107b4575b506020906040519e8f80927f24768d910000000000000000000000000000000000000000000000000000000082525afa9c8d1561078e5760009d610793575b50604051809e81907f9dc969a80000000000000000000000000000000000000000000000000000000082525a92600491602094fa9d8e1561078e5760009e61075d575b50610671610f5a565b6001600160a01b0390911681529d8e906001600160a01b03166020820152604001906106a591906001600160a01b03169052565b6001600160a01b031660608d01526001600160a01b031660808c01526001600160a01b031660a08b01526001600160a01b031660c08a01526001600160a01b031660e08901526001600160a01b03166101008801526001600160a01b03166101208701526001600160a01b03166101408601526001600160a01b03166101608501526001600160a01b03166101808401526001600160a01b03166101a08301526001600160a01b03166101c0820152610016906111c7565b610780919e5060203d602011610787575b6107788183610f38565b8101906111a6565b9c38610668565b503d61076e565b6111bb565b6107ad919d5060203d602011610787576107788183610f38565b9b38610625565b6020919d506107cf90823d8411610787576107788183610f38565b9c906105e6565b6107f0919a5060203d602011610787576107788183610f38565b98386105a3565b61081191985060203d602011610787576107788183610f38565b9638610561565b61083291965060203d602011610787576107788183610f38565b943861051f565b61085391935060203d602011610787576107788183610f38565b91386104dc565b610873915060203d602011610787576107788183610f38565b38610495565b610892915060203d602011610787576107788183610f38565b38610456565b6108b291955060203d602011610787576107788183610f38565b9338610417565b6108d391945060203d602011610787576107788183610f38565b92386103d7565b6108f491935060203d602011610787576107788183610f38565b9138610397565b61091591925060203d602011610787576107788183610f38565b9038610357565b61093691935060203d602011610787576107788183610f38565b9138610317565b61095791925060203d602011610787576107788183610f38565b90386102d7565b346101345760003660031901126101345760206001600160a01b0360005416604051908152f35b8015150361013457565b34610134576040366003190112610134576004356109ac81610139565b602435906109b982610985565b6109c16114df565b15610a53576001600160a01b039081600554163303610a2957166000526011602052604060002060ff1981541660ff83151516179055600014610a17576012546000198114610a1257600101601255005b611190565b6012548015610a125760001901601255005b60046040517fea8e4eb5000000000000000000000000000000000000000000000000000000008152fd5b60046040517f9dc4246e000000000000000000000000000000000000000000000000000000008152fd5b346101345760003660031901126101345760206001600160a01b0360015416604051908152f35b34610134576000366003190112610134576020610b116001600160a01b0360065416604051610ad281610f00565b601381527f67657464656c656761746f72436f756e742829000000000000000000000000008482015260405191610b0883610f1c565b60008352611721565b604051908152f35b3461013457602080600319360112610134576101c9600435610b3a81610139565b6001600160a01b03806002541690604051921684830152838252610b5d82610f00565b60405190610b6a82610f00565b601582527f6973536563757265426173652861646472657373290000000000000000000000858301526115e6565b3461013457602036600319011261013457600435610bb46114df565b15610a53576001600160a01b03600554163303610a295760009060046020610be661028c85546001600160a01b031690565b604051928380927f46f991ac0000000000000000000000000000000000000000000000000000000082525afa801561078e5783808481949382948391610c88575b505af1610c326115b6565b5015610201577fcdcc745fe377b103b45fa0cec23ae3ef93d6fc6a84a01f0d18c40b354dd1d5d8610c82610c7161028c600b546001600160a01b031690565b604051938452929081906020820190565b0390a280f35b610ca0915060203d8111610787576107788183610f38565b38610c27565b3461013457602036600319011261013457600435610cc381610139565b803b6000610cd082610f7b565b92610cde6040519485610f38565b82845260208401903c602d815110610d0257602a602091015160601c604051908152f35b60046040517fbaf3f0f7000000000000000000000000000000000000000000000000000000008152fd5b34610134576000366003190112610134576001600160a01b038060035416610d65610d55610faa565b91604092835191610b0883610f1c565b9160045416610d72611564565b92825193602085015282840152818352606083019280841067ffffffffffffffff851117610dec5783610ddd926101fd958552610dae82610f00565b601d82527f67657472616e6b436f756e742875696e743235362c75696e74323536290000006080840152611721565b90519081529081906020820190565b610eea565b34610134576020366003190112610134576001600160a01b03600435610e1681610139565b166000526011602052602060ff604060002054166040519015158152f35b3461013457602036600319011261013457602061025c600435610e5681610139565b6001600160a01b03806006541690604051921684830152838252610e7982610f00565b60405190610e8682610f00565b601882527f697364656c656761746f724e6f64652861646472657373290000000000000000858301526116e5565b3461013457600036600319011261013457602061025c6114df565b34610134576000366003190112610134576020610b11611564565b634e487b7160e01b600052604160045260246000fd5b6040810190811067ffffffffffffffff821117610dec57604052565b6020810190811067ffffffffffffffff821117610dec57604052565b90601f8019910116810190811067ffffffffffffffff821117610dec57604052565b604051906101e0820182811067ffffffffffffffff821117610dec57604052565b67ffffffffffffffff8111610dec57601f01601f191660200190565b60405190610fa482610f1c565b60008252565b60405190610fb782610f00565b600c82527f72616e6b666f7244414f282900000000000000000000000000000000000000006020830152565b60405190610ff082610f00565b601682527f67657455736572546f53746f72286164647265737329000000000000000000006020830152565b6040519061102982610f00565b600682527f72616e6b282900000000000000000000000000000000000000000000000000006020830152565b6040519061106282610f00565b600882527f69734c6f636b28290000000000000000000000000000000000000000000000006020830152565b6001600160a01b03906110b482600354166110a7610faa565b60405191610b0883610f1c565b6110fc6110c96004546001600160a01b031690565b604080516001600160a01b038616602080830191909152815291906110ee9083610f38565b6110f6610fe3565b90611694565b928316156111885761113861112161111261101c565b61111a610f97565b9086611721565b9361112a611055565b611132610f97565b916116e5565b921015918261117f575b508161114c575090565b61117c9150611171611178916001600160a01b03166000526011602052604060002090565b5460ff1690565b1590565b90565b15915038611142565b505050600090565b634e487b7160e01b600052601160045260246000fd5b90816020910312610134575161117c81610139565b6040513d6000823e3d90fd5b6114ac6101c06114c8926112016111e582516001600160a01b031690565b6001600160a01b03166001600160a01b03196002541617600255565b61123461121860208301516001600160a01b031690565b6001600160a01b03166001600160a01b03196003541617600355565b61126761124b60408301516001600160a01b031690565b6001600160a01b03166001600160a01b03196004541617600455565b61129a61127e60608301516001600160a01b031690565b6001600160a01b03166001600160a01b03196005541617600555565b6112cd6112b160808301516001600160a01b031690565b6001600160a01b03166001600160a01b03196006541617600655565b6113006112e460a08301516001600160a01b031690565b6001600160a01b03166001600160a01b03196007541617600755565b61133361131760c08301516001600160a01b031690565b6001600160a01b03166001600160a01b03196008541617600855565b61136661134a60e08301516001600160a01b031690565b6001600160a01b03166001600160a01b03196009541617600955565b61139a61137e6101008301516001600160a01b031690565b6001600160a01b03166001600160a01b0319600a541617600a55565b6113ce6113b26101208301516001600160a01b031690565b6001600160a01b03166001600160a01b0319600b541617600b55565b6114026113e66101408301516001600160a01b031690565b6001600160a01b03166001600160a01b0319600c541617600c55565b61143661141a6101608301516001600160a01b031690565b6001600160a01b03166001600160a01b0319600d541617600d55565b61146a61144e6101808301516001600160a01b031690565b6001600160a01b03166001600160a01b0319600e541617600e55565b61149e6114826101a08301516001600160a01b031690565b6001600160a01b03166001600160a01b0319600f541617600f55565b01516001600160a01b031690565b6001600160a01b03166001600160a01b03196010541617601055565b565b90816020910312610134575161117c81610985565b61153a6001600160a01b03600254166040516114fa81610f00565b600881527f697353616665282900000000000000000000000000000000000000000000000060208201526040519161153183610f1c565b600083526115e6565b9080611559575b15610201578060208061117c935183010191016114ca565b506020815114611541565b61117c6001600160a01b036003541660405161157f81610f00565b600681527f6941676528290000000000000000000000000000000000000000000000000000602082015260405191610b0883610f1c565b3d156115e1573d906115c782610f7b565b916115d56040519384610f38565b82523d6000602084013e565b606090565b9190823b1561167b577fffffffff00000000000000000000000000000000000000000000000000000000815160208093012016916040519180830193845281519160005b83811061166757505050918161165760248260009795968897018783820152036004810184520182610f38565b51915afa6116636115b6565b9091565b81810183015185820160240152820161162a565b50505060009060405161168d81610f1c565b6000815290565b92916116a2916000946115e6565b90806116da575b6116b05750565b9091506020818051810103126101345760206001600160a01b039101516116d681610139565b1690565b5060208151146116a9565b92916116f3916000946115e6565b9080611716575b6117015750565b61117c919250602080825183010191016114ca565b5060208151146116fa565b929161172f916000946115e6565b9080611754575b61173d5750565b909150602081805181010312610134576020015190565b50602081511461173656fea264697066735822122047f727fcb9b02191f8f435da04f13ae8cabef0b29b8182794bf01dcd3ae2b86c64736f6c634300081400336080346200009e57601f620030a538819003918201601f19168301916001600160401b03831184841017620000a3578084926020946040528339810103126200009e57516001600160a01b038116908190036200009e5780156200008c5760018060a01b03193381600154161760015560005416176000556001601155604051612feb9081620000ba8239f35b60405163e6c4247b60e01b8152600490fd5b600080fd5b634e487b7160e01b600052604160045260246000fdfe60806040526004361015610018575b361561001657005b005b60003560e01c8063013cf08b146101c857806312065fe0146101c35780631f185d16146101be57806326705c3c146101b9578063339459a6146101b45780633b9b7955146101af57806343859632146101aa57806345a257bc146101a55780635c622a0e146101a0578063604ff4b11461019b578063896d6db1146101965780638da5cb5b1461019157806398e527d31461018c578063995e433914610187578063a1f7f53914610182578063af4845261461017d578063b7ccfe3214610178578063b90306ad14610173578063c54e44b01461016e578063c7f758a814610169578063c9d27afe14610164578063cc48bf161461015f578063d3325a2c1461015a578063e01ad5fd14610155578063e0a9bc2b14610150578063eeebb3c31461014b5763fdc10bc90361000e57611ce6565b611a25565b611a0a565b6119e3565b611954565b61181f565b611684565b61160e565b611546565b611438565b6113a6565b6112bf565b61129c565b611218565b6111fa565b6111d3565b61113a565b61105b565b61100f565b610d66565b610cc4565b610c9d565b6105a5565b610587565b610556565b610529565b610465565b634e487b7160e01b600052603260045260246000fd5b60125481101561021e57600b906012600052027fbb8a6a4669ba250d26cd7a459eca9d215f8307e33aebe50379bc5a3617ec34440190600090565b6101cd565b90600182811c92168015610253575b602083101461023d57565b634e487b7160e01b600052602260045260246000fd5b91607f1691610232565b906000929180549161026e83610223565b9182825260019384811690816000146102d05750600114610290575b50505050565b90919394506000526020928360002092846000945b8386106102bc57505050500101903880808061028a565b8054858701830152940193859082016102a5565b9294505050602093945060ff191683830152151560051b0101903880808061028a565b634e487b7160e01b600052604160045260246000fd5b6040810190811067ffffffffffffffff82111761032557604052565b6102f3565b6020810190811067ffffffffffffffff82111761032557604052565b90601f8019910116810190811067ffffffffffffffff82111761032557604052565b9061038361037c926040519384809261025d565b0383610346565b565b60005b8381106103985750506000910152565b8181015183820152602001610388565b906020916103c181518092818552858086019101610385565b601f01601f1916010190565b99939561041d61044d969f9e9d99936101809d986104619c9660408f6001600160a01b036104076104579f996101a08085528401906103a8565b9516602082015201528d820360608f01526103a8565b9e60808c015260a08b015260c08a015260e089015215156101008801526101208701906001600160a01b03169052565b1515610140850152565b1515610160830152565b0152565b34610524576020366003190112610524576004356012548110156105245761048c906101e3565b506040516104a58161049e818561025d565b0382610346565b6105206104bc60018401546001600160a01b031690565b6002840154906104ce60038601610368565b93600486015495600581015493600682015460078301549060096008850154940154966040519a8b9a8b9560ff8860b01c169960ff8960a81c169960ff6001600160a01b038b60081c169a16986103cd565b0390f35b600080fd5b3461052457600036600319011261052457602047604051908152f35b6001600160a01b0381160361052457565b3461052457602036600319011261052457602061057d60043561057881610545565b612bfd565b6040519015158152f35b34610524576000366003190112610524576020601454604051908152f35b34610524576000366003190112610524576105d76105cb6000546001600160a01b031690565b6001600160a01b031690565b604051907f97f3815a000000000000000000000000000000000000000000000000000000008252602082600481845afa918215610acd57600092610c7c575b50604051917fcfbffe53000000000000000000000000000000000000000000000000000000008352602083600481855afa928315610acd57600093610c5b575b50604051907fab6e844f000000000000000000000000000000000000000000000000000000008252602082600481865afa918215610acd57600092610c3a575b50604051917f14d8d024000000000000000000000000000000000000000000000000000000008352602083600481875afa928315610acd57600093610c19575b50604051927fd1f956b1000000000000000000000000000000000000000000000000000000008452602084600481885afa938415610acd57600094610bf8575b50604051937fe61dfd58000000000000000000000000000000000000000000000000000000008552602085600481895afa948515610acd57600095610bd7575b506040517fe09d394d0000000000000000000000000000000000000000000000000000000081526020816004818a5afa908115610acd57600091610bb8575b506040517f52b06d640000000000000000000000000000000000000000000000000000000081526020816004818b5afa908115610acd57600091610b99575b506040517f013cf08b00000000000000000000000000000000000000000000000000000000815260006004820152916020836024818c5afa928315610acd57600093610b78575b50604051977f5e09dbe70000000000000000000000000000000000000000000000000000000089526020896004818d5afa948515610acd57600499600096610b57575b5060208b6040519b8c80927faa0ddc160000000000000000000000000000000000000000000000000000000082525afa968715610acd5760049a600098610b36575b5060208c6040519c8d80927f640274270000000000000000000000000000000000000000000000000000000082525afa988915610acd5760049b60009a610b15575b5060208d6040519d8e80927f30125cf50000000000000000000000000000000000000000000000000000000082525afa9a8b15610acd578d60049d60009d610af3575b506020906040519e8f80927f24768d910000000000000000000000000000000000000000000000000000000082525afa9c8d15610acd5760009d610ad2575b50604051809e81907f9dc969a80000000000000000000000000000000000000000000000000000000082525a92600491602094fa9d8e15610acd5760009e610a9c575b506109b06118c0565b6001600160a01b0390911681529d8e906001600160a01b03166020820152604001906109e491906001600160a01b03169052565b6001600160a01b031660608d01526001600160a01b031660808c01526001600160a01b031660a08b01526001600160a01b031660c08a01526001600160a01b031660e08901526001600160a01b03166101008801526001600160a01b03166101208701526001600160a01b03166101408601526001600160a01b03166101608501526001600160a01b03166101808401526001600160a01b03166101a08301526001600160a01b03166101c082015261001690612862565b610abf919e5060203d602011610ac6575b610ab78183610346565b8101906122dc565b9c386109a7565b503d610aad565b612856565b610aec919d5060203d602011610ac657610ab78183610346565b9b38610964565b6020919d50610b0e90823d8411610ac657610ab78183610346565b9c90610925565b610b2f919a5060203d602011610ac657610ab78183610346565b98386108e2565b610b5091985060203d602011610ac657610ab78183610346565b96386108a0565b610b7191965060203d602011610ac657610ab78183610346565b943861085e565b610b9291935060203d602011610ac657610ab78183610346565b913861081b565b610bb2915060203d602011610ac657610ab78183610346565b386107d4565b610bd1915060203d602011610ac657610ab78183610346565b38610795565b610bf191955060203d602011610ac657610ab78183610346565b9338610756565b610c1291945060203d602011610ac657610ab78183610346565b9238610716565b610c3391935060203d602011610ac657610ab78183610346565b91386106d6565b610c5491925060203d602011610ac657610ab78183610346565b9038610696565b610c7591935060203d602011610ac657610ab78183610346565b9138610656565b610c9691925060203d602011610ac657610ab78183610346565b9038610616565b346105245760003660031901126105245760206001600160a01b0360005416604051908152f35b3461052457604036600319011261052457600435602435610ce481610545565b6000198201918211610d2957610d1d60ff91600a610d036020956101e3565b5001906001600160a01b0316600052602052604060002090565b54166040519015158152f35b612213565b9181601f840112156105245782359167ffffffffffffffff8311610524576020838186019501011161052457565b8015150361052457565b346105245760e03660031901126105245760043560243567ffffffffffffffff811161052457610d9a903690600401610d2e565b604435610da681610545565b606435936001600160e01b031985168086036105245760843560a4359260c43592610dd084610d5c565b610dd933612bfd565b15610ffe57610df490610ded881515611d01565b1515611d4c565b8315801590610fec575b610e0790611d97565b80610ed15750610ecc9593610ec4610016989694610eb07f0454182b30f1740c505634bb66f7f3001e232b3c8797a62b1db11b347a891ff4956001600160a01b0395610e8a610e546118e1565b92610e60368c8e61191d565b84526001600160a01b03881660208501526001600160e01b03198d16604085015215156060840152565b60808201528260a0820152610eab6014546000526013602052604060002090565b612064565b6014549788966040519586951698856121e5565b0390a3612229565b601455565b968294610fd288957f74608b2c8ffedaacf37a0fda8ea5cb94ebae20dc104623eb2fabb1bcec211608946001600160a01b03948a610fc48e997f2dd3ae6155b13a46b2374a1f42e0733244754e572ec9f0034b698efefa8673a19e610f5b610fe79f610f548e610f446014548210611de2565b6000526013602052604060002090565b9283611e81565b8660036001830192610f838c85906001600160a01b03166001600160a01b0319825416179055565b835463ffffffff60a01b1916604089901c63ffffffff60a01b1617845588600282015501559060ff60c01b1960ff60c01b835492151560c01b169116179055565b604051968796169986611f6a565b0390a360405190151581529081906020820190565b0390a2005b506001600160a01b0385161515610dfe565b600460405163ea8e4eb560e01b8152fd5b34610524576020366003190112610524576004356000198101908111610d2957600861103c6040926101e3565b50015460ff825191818160a81c161515835260b01c1615156020820152f35b3461052457602036600319011261052457600435611077612b78565b15611129573330036110e557801515806110da575b1561109657601155005b606460405162461bcd60e51b815260206004820152601660248201527f64616f2e696e76616c69642e70657263656e74616765000000000000000000006044820152fd5b50606481111561108c565b606460405162461bcd60e51b815260206004820152600d60248201527f64616f2e66616b652e636f7265000000000000000000000000000000000000006044820152fd5b6004604051634ee2123760e11b8152fd5b346105245760203660031901126105245760043560005260136020526111976040600020604051906111708261037c818461025d565b600181015490600360028201549101549060ff60405195869560c0875260c08701906103a8565b936001600160a01b03811660208701526001600160e01b03198160401b16604087015260c01c1615156060850152608084015260a08301520390f35b346105245760003660031901126105245760206001600160a01b0360015416604051908152f35b34610524576000366003190112610524576020601254604051908152f35b34610524576020366003190112610524576004356000198101908111610d2957611241906101e3565b50600481015460058201546006830154600784015460089094015460408051948552602085019390935291830152606082019290925260ff60a883901c81161515608083015260b09290921c909116151560a082015260c090f35b346105245760003660031901126105245760206112b7612d47565b604051908152f35b34610524576020806003193601126105245761133e6004356112e081610545565b6001600160a01b0380600254169060405192168483015283825261130382610309565b6040519061131082610309565b601582527f697353656375726542617365286164647265737329000000000000000000000085830152612dc9565b91908061139c575b156113725781816113609261052094518301019101612b63565b60405190151581529081906020820190565b60046040517f3204506f000000000000000000000000000000000000000000000000000000008152fd5b5080825114611346565b34610524576040366003190112610524576004356024356113c681610d5c565b6113cf33612bfd565b15610ffe5760207f2dd3ae6155b13a46b2374a1f42e0733244754e572ec9f0034b698efefa8673a1916114056014548510611de2565b60008481526013835260409020600101805460ff60c01b191682151560c01b60ff60c01b161790556040519015158152a2005b3461052457602036600319011261052457600435611454612b78565b15611129576001600160a01b03600554163303610ffe57600090600460206114866105cb85546001600160a01b031690565b604051928380927f46f991ac0000000000000000000000000000000000000000000000000000000082525afa8015610acd5783808481949382948391611528575b505af16114d2612d99565b5015611372577fcdcc745fe377b103b45fa0cec23ae3ef93d6fc6a84a01f0d18c40b354dd1d5d86115226115116105cb600b546001600160a01b031690565b604051938452929081906020820190565b0390a280f35b611540915060203d8111610ac657610ab78183610346565b386114c7565b346105245760203660031901126105245760043561156381610545565b803b600061157082611901565b9261157e6040519485610346565b82845260208401903c602d8151106115a257602a602091015160601c604051908152f35b60046040517fbaf3f0f7000000000000000000000000000000000000000000000000000000008152fd5b929695949190936115e760a09560c0865260c08601906103a8565b976001600160a01b0380931660208601526040850152166060830152151560808201520152565b34610524576020366003190112610524576004356000198101908111610d2957611637906101e3565b506001600160a01b036105208160018401541692600281015461037c60088301549161166e6009850154946040519384809261025d565b60405196879660ff85169460081c1692876115cc565b34610524576040366003190112610524576004356024356116a481610d5c565b6116ac612b78565b15611129576116ba33612ce2565b15610ffe5781151580611813575b6116d1906125ab565b6116e26116dd836125f6565b6101e3565b509061171a60ff60088401546116f9828216612605565b6117106006860154611709612c87565b1115612650565b60b01c161561269b565b61177f611772600a840161175a61175561175161174a3385906001600160a01b0316600052602052604060002090565b5460ff1690565b1590565b6126e6565b336001600160a01b0316600052602052604060002090565b805460ff19166001179055565b80156117fe57600482016117938154612229565b90555b6040519015158152339083907f0def80f9a3b4c7a4251442658ccf516bf33ea4acaf31638fc6da8ebdb0f64c7290602090a360048101546007820154809110918215926117ef575b50506117e657005b61001690612731565b600501541015905038806117de565b6005820161180c8154612229565b9055611796565b506012548211156116c8565b346105245760203660031901126105245760043561183c33612bfd565b15610ffe57801515806118b4575b611853906125ab565b6000198101818111610d295761186a6008916101e3565b5001600160b01b60ff60b01b19825461188960ff8260b01c161561269b565b161790557f4cf2797951877f41b38931a68643f9249273f32fd396532213aa4f1222c9d16b600080a2005b5060125481111561184a565b604051906101e0820182811067ffffffffffffffff82111761032557604052565b6040519060c0820182811067ffffffffffffffff82111761032557604052565b67ffffffffffffffff811161032557601f01601f191660200190565b92919261192982611901565b916119376040519384610346565b829481845281830111610524578281602093846000960137010152565b346105245760a03660031901126105245767ffffffffffffffff60043581811161052457611986903690600401610d2e565b60249291923561199581610545565b606435928311610524573660238401121561052457610520936119c56119d394369060248160040135910161191d565b916084359360443592612480565b6040519081529081906020820190565b3461052457602036600319011261052457602061057d600435611a0581610545565b612ce2565b3461052457600036600319011261052457602061057d612b78565b346105245760803660031901126105245760046024358135611a4682610545565b60443567ffffffffffffffff811161052457611a659036908501610d2e565b9290611a6f612b78565b15611cd657611a7d33612ce2565b15611cc657611ae69150611a946014548410611de2565b611aa8836000526013602052604060002090565b90600182015490611abe60ff8360c01c16612238565b6001600160a01b0360409687519586916020946001600160e01b0319878c1b16868501612283565b0392611afa601f1994858101885287610346565b169160038401805480611b39575b61052089611b2a8a8a8a8a600282015493611b2560643593610368565b612369565b90519081529081906020820190565b89546001600160a01b031690611b876117518b51611b7981611b6d8b8b83019190916001600160a01b036020820193169052565b03888101835282610346565b611b816122a3565b85612e44565b611cb757916105209a918a6001611b2a9b9a999897969514611c45575b505054600214611bba575b839495969750611b08565b611c1f611c3d94611c2b6105cb9594611bdd611c3095546001600160a01b031690565b8d517f76fe6c4500000000000000000000000000000000000000000000000000000000888201526001600160a01b039094166024850152929384906044820190565b03908101845283610346565b612ef0565b80518101820191016122dc565b388080611baf565b517f0e5fd00b00000000000000000000000000000000000000000000000000000000868201526001600160a01b0390961660248701529094600291611caf916105cb91611ca19190611c2b826044810103898101845283610346565b8680825183010191016122dc565b94908a611ba4565b8a8a5163ea8e4eb560e01b8152fd5b8460405163ea8e4eb560e01b8152fd5b84604051634ee2123760e11b8152fd5b346105245760003660031901126105245760206112b7612c87565b15611d0857565b606460405162461bcd60e51b815260206004820152601760248201527f64616f2e74656d706c6174652e656d7074792e646573630000000000000000006044820152fd5b15611d5357565b606460405162461bcd60e51b815260206004820152601a60248201527f64616f2e74656d706c6174652e7a65726f2e73656c6563746f720000000000006044820152fd5b15611d9e57565b606460405162461bcd60e51b815260206004820152601860248201527f64616f2e74656d706c6174652e7a65726f2e74617267657400000000000000006044820152fd5b15611de957565b606460405162461bcd60e51b815260206004820152601460248201527f64616f2e74656d706c6174652e696e76616c69640000000000000000000000006044820152fd5b90601f8111611e3b57505050565b600091825260208220906020601f850160051c83019410611e77575b601f0160051c01915b828110611e6c57505050565b818155600101611e60565b9092508290611e57565b90929167ffffffffffffffff811161032557611ea781611ea18454610223565b84611e2d565b6000601f8211600114611ee15781929394600092611ed6575b50508160011b916000199060031b1c1916179055565b013590503880611ec0565b601f19821694611ef684600052602060002090565b91805b878110611f31575083600195969710611f17575b505050811b019055565b0135600019600384901b60f8161c19169055388080611f0d565b90926020600181928686013581550194019101611ef9565b908060209392818452848401376000828201840152601f01601f1916010190565b91611f8d606094979695926001600160e01b031992608086526080860191611f49565b9616602083015260408201520152565b919091825167ffffffffffffffff811161032557611fbf81611ea18454610223565b602080601f8311600114611ffa575081929394600092611fef5750508160011b916000199060031b1c1916179055565b015190503880611ec0565b90601f1983169561201085600052602060002090565b926000905b88821061204c5750508360019596971061203357505050811b019055565b015160001960f88460031b161c19169055388080611f0d565b80600185968294968601518155019501930190612015565b908051805167ffffffffffffffff81116103255761208c816120868654610223565b86611e2d565b6020918290601f8311600114612170579282600395936121549360a096600092612165575b50508160011b9160001990881b1c19161786555b6120fb6120df60018801928501516001600160a01b031690565b82906001600160a01b03166001600160a01b0319825416179055565b61213361211360408501516001600160e01b03191690565b825463ffffffff60a01b191660409190911c63ffffffff60a01b16178255565b60608301511515815460ff60c01b191690151560c01b60ff60c01b16179055565b608081015160028501550151910155565b0151905038806120b1565b90601f1983169161218687600052602060002090565b9260005b8181106121ce5750936121549360a096936001938360039a98106121b6575b505050811b0186556120c5565b0151600019838a1b60f8161c191690553880806121a9565b92938660018192878601518155019501930161218a565b906122086001600160e01b03199160409497969597606085526060850191611f49565b951660208201520152565b634e487b7160e01b600052601160045260246000fd5b6000198114610d295760010190565b1561223f57565b606460405162461bcd60e51b815260206004820152601560248201527f64616f2e74656d706c6174652e64697361626c656400000000000000000000006044820152fd5b909280926001600160e01b03196004951683528483013701016000815290565b604051906122b082610309565b601582527f69735573657245786973747328616464726573732900000000000000000000006020830152565b9081602091031261052457516122f181610545565b90565b6012546801000000000000000081101561032557600181018060125581101561021e57600b906012600052027fbb8a6a4669ba250d26cd7a459eca9d215f8307e33aebe50379bc5a3617ec34440190600090565b81810292918115918404141715610d2957565b9060638201809211610d2957565b92936123b09195929461238561237d6122f4565b509586611f9d565b6001850180546001600160a01b0319166001600160a01b038816179055600285015560038401611f9d565b60646123ce6123c96123c0612d47565b60115490612348565b61235b565b0460078301556123dc612c87565b908101809111610d2957816009916006869401556124386008820161177233829074ffffffffffffffffffffffffffffffffffffffff001974ffffffffffffffffffffffffffffffffffffffff0083549260081b169116179055565b01556012546040516001600160a01b03909216825291339183907f336735bcae5ee955b87e8b30bee52920223fa30a865b207ac6d9eee9f19589fb9080602081015b0390a490565b919492939061248e33612bfd565b15610ffe576001600160a01b03861615612581576124bd926124b191369161191d565b9361238561237d6122f4565b60646124cd6123c96123c0612d47565b0460078301556124db612c87565b908101809111610d295781600991600660009401556125386008820161177233829074ffffffffffffffffffffffffffffffffffffffff001974ffffffffffffffffffffffffffffffffffffffff0083549260081b169116179055565b0155601254906000827f336735bcae5ee955b87e8b30bee52920223fa30a865b207ac6d9eee9f19589fb6040518061247a3396829190916001600160a01b036020820193169052565b60046040517fe6c4247b000000000000000000000000000000000000000000000000000000008152fd5b156125b257565b606460405162461bcd60e51b815260206004820152600e60248201527f64616f2e696e76616c69642e69640000000000000000000000000000000000006044820152fd5b600019810191908211610d2957565b1561260c57565b606460405162461bcd60e51b815260206004820152601160248201527f64616f2e70726f702e6e6f7465786973740000000000000000000000000000006044820152fd5b1561265757565b606460405162461bcd60e51b815260206004820152601060248201527f64616f2e766f74696e672e656e646564000000000000000000000000000000006044820152fd5b156126a257565b606460405162461bcd60e51b815260206004820152601560248201527f64616f2e616c72656164792e636f6d706c6574656400000000000000000000006044820152fd5b156126ed57565b606460405162461bcd60e51b815260206004820152601160248201527f64616f2e616c72656164792e766f7465640000000000000000000000000000006044820152fd5b7f948f4a9cd986f1118c3fbd459f7a22b23c0693e1ca3ef06a6a8be5aa7d39cc036127f86113606127646116dd856125f6565b5060088101805460ff60b01b1916600160b01b178155906127da600482015460078301548110159081612848575b5083547fffffffffffffffffffff00ffffffffffffffffffffffffffffffffffffffffff1690151560a81b75ff00000000000000000000000000000000000000000016178355565b815460a81c60ff1680612833575b6127fd575b505460a81c60ff1690565b0390a2565b80612815600161282c9301546001600160a01b031690565b612826600360028401549301610368565b90612f8b565b50386127ed565b506128416003820154610223565b15156127e8565b905060058301541038612792565b6040513d6000823e3d90fd5b612b476101c06103839261289c61288082516001600160a01b031690565b6001600160a01b03166001600160a01b03196002541617600255565b6128cf6128b360208301516001600160a01b031690565b6001600160a01b03166001600160a01b03196003541617600355565b6129026128e660408301516001600160a01b031690565b6001600160a01b03166001600160a01b03196004541617600455565b61293561291960608301516001600160a01b031690565b6001600160a01b03166001600160a01b03196005541617600555565b61296861294c60808301516001600160a01b031690565b6001600160a01b03166001600160a01b03196006541617600655565b61299b61297f60a08301516001600160a01b031690565b6001600160a01b03166001600160a01b03196007541617600755565b6129ce6129b260c08301516001600160a01b031690565b6001600160a01b03166001600160a01b03196008541617600855565b612a016129e560e08301516001600160a01b031690565b6001600160a01b03166001600160a01b03196009541617600955565b612a35612a196101008301516001600160a01b031690565b6001600160a01b03166001600160a01b0319600a541617600a55565b612a69612a4d6101208301516001600160a01b031690565b6001600160a01b03166001600160a01b0319600b541617600b55565b612a9d612a816101408301516001600160a01b031690565b6001600160a01b03166001600160a01b0319600c541617600c55565b612ad1612ab56101608301516001600160a01b031690565b6001600160a01b03166001600160a01b0319600d541617600d55565b612b05612ae96101808301516001600160a01b031690565b6001600160a01b03166001600160a01b0319600e541617600e55565b612b39612b1d6101a08301516001600160a01b031690565b6001600160a01b03166001600160a01b0319600f541617600f55565b01516001600160a01b031690565b6001600160a01b03166001600160a01b03196010541617601055565b9081602091031261052457516122f181610d5c565b612bd36001600160a01b0360025416604051612b9381610309565b600881527f6973536166652829000000000000000000000000000000000000000000000000602082015260405191612bca8361032a565b60008352612dc9565b9080612bf2575b1561137257806020806122f193518301019101612b63565b506020815114612bda565b612c606001600160a01b038060025416604051916020941684830152838252612c2582610309565b60405190612c3282610309565b601182527f69735369676e657228616464726573732900000000000000000000000000000085830152612dc9565b9080612c7d575b1561137257816122f19282518301019101612b63565b5081815114612c67565b6122f16001600160a01b0360035416604051612ca281610309565b600681527f6941676528290000000000000000000000000000000000000000000000000000602082015260405191612cd98361032a565b60008352612e80565b6122f1906001600160a01b038060065416906040519216602083015260208252612d0b82610309565b60405190612d1882610309565b601882527f697364656c656761746f724e6f646528616464726573732900000000000000006020830152612e44565b6122f16001600160a01b0360065416604051612d6281610309565b601381527f67657464656c656761746f72436f756e74282900000000000000000000000000602082015260405191612cd98361032a565b3d15612dc4573d90612daa82611901565b91612db86040519384610346565b82523d6000602084013e565b606090565b803b15612e2b576000926001600160e01b03198360208695519101201690612e1b6024604051809360208201958652612e0b8151809260208686019101610385565b8101036004810184520182610346565b51915afa612e27612d99565b9091565b505050600090604051612e3d8161032a565b6000815290565b9291612e5291600094612dc9565b9080612e75575b612e605750565b6122f191925060208082518301019101612b63565b506020815114612e59565b9291612e8e91600094612dc9565b9080612eb3575b612e9c5750565b909150602081805181010312610524576020015190565b506020815114612e95565b90602082519201516001600160e01b0319908181169360048110612ee157505050565b60040360031b82901b16169150565b6001600160a01b0381161561258157600080918351908260208601915af190612f17612d99565b9115612f21575090565b805160009190600411612f8557612f389150612ebe565b815115612f485750805190602001fd5b6040517f21c09d340000000000000000000000000000000000000000000000000000000081526001600160e01b0319919091166004820152602490fd5b50612f38565b9190916001600160a01b0381161561258157600091829184519160208601915af190612f17612d9956fea26469706673582212206486a149f64143c3ef86c9d57a619d3414f4e95d70fbf73d5b700acb119d1d6664736f6c634300081400336080346200009e57601f62005abc38819003918201601f19168301916001600160401b03831184841017620000a3578084926020946040528339810103126200009e57516001600160a01b038116908190036200009e5780156200008c5760018060a01b03193381600154161760015560005416176000556001601155604051615a029081620000ba8239f35b60405163e6c4247b60e01b8152600490fd5b600080fd5b634e487b7160e01b600052604160045260246000fdfe60806040526004361015610018575b361561001657005b005b60003560e01c8063033eeffb146103985780630e5fd00b146103935780631157a8491461038e57806312065fe01461038957806313508e371461038457806313cf3d551461037f5780631612d5ce1461037a5780631bb49f02146103755780631c53c280146103705780631f185d161461036b5780632a687c87146103665780632bbae52e146103615780632fefc0bf1461035c57806332ff4eab14610357578063339459a61461035257806333b59a5b1461034d5780633a7b55b8146103485780633b9b7955146103435780633baee0ea1461033e578063419cb27b1461033957806342cc9d5714610334578063445850971461032f57806344668f231461032a5780634f0f4aa914610325578063509222cd1461032057806350db85d11461031b57806361ea720814610316578063629d671e1461031157806365d2fbd31461030c5780636a811244146103075780636fb412ab1461030257806376fe6c45146102fd5780637818cdd7146102f857806380f85e33146102f3578063849c22ad146102ee578063896c354a146102e95780638da5cb5b146102e457806395f72f49146102df57806398b3f215146102da578063a1f7f539146102d5578063a89d693b146102d0578063af484526146102cb578063b1c49079146102c6578063b366335e146102c1578063b90306ad146102bc578063c43792e3146102b7578063c54e44b0146102b2578063c871372b146102ad578063d1e0bbc6146102a8578063dcb3fc4a146102a3578063e01ad5fd1461029e578063e0a9bc2b14610299578063eb95c66214610294578063f3ca71241461028f578063fd38093b1461028a5763fdc10bc90361000e576134a3565b613433565b613407565b6133db565b6133c0565b6132f5565b613176565b61313c565b6130be565b613038565b61300c565b612efe565b612e88565b612d47565b612d16565b612bf7565b612b53565b612b27565b612ab1565b612a8a565b612a4a565b612a1b565b6129e1565b612988565b61286a565b6126d4565b6122b8565b611e58565b611e1a565b611dfc565b611d63565b611d0f565b611c2a565b611c0c565b611bd4565b611ba5565b611b71565b6116e5565b611696565b61152a565b611323565b610c4c565b610bd6565b610b9e565b610b55565b610ada565b6109f3565b6109be565b610959565b6107c3565b610547565b6104e5565b6104c9565b61042a565b6103da565b346103c45760203660031901126103c45760043560005260196020526020604060002054604051908152f35b600080fd5b6001600160a01b038116036103c457565b346103c45760203660031901126103c45760206004356103f9816103c9565b6001600160a01b03809116600052601282526040600020546000526015825260046040600020015416604051908152f35b346103c45760203660031901126103c45760043561044661372f565b6104c16104af600092808452601560205261046a60ff600160408720015416613ff9565b338452601260205261048160408520548214613ff9565b808452601e60205261049f60ff600260408720015460081c166142e8565b600052601e602052604060002090565b60026000918281558260018201550155565b600160115580f35b346103c45760003660031901126103c457602047604051908152f35b346103c45760203660031901126103c457600435600052601e60205260a0604060002060ff8154916002600182015491015490604051938452602084015281811615156040840152818160081c161515606084015260101c1615156080820152f35b346103c4576020806003193601126103c457600490813561056661372f565b61058f61058a6001610582846000526015602052604060002090565b015460ff1690565b613e6c565b6105cc6105c56105b96105ac846000526013602052604060002090565b546001600160a01b031690565b6001600160a01b031690565b3314613ff9565b816105e26105b96000546001600160a01b031690565b6040519485809263111ea8c160e21b82525afa9283156107b457600093610785575b506106626106406106226105ac846000526013602052604060002090565b6040519182918683019190916001600160a01b036020820193169052565b0394610654601f1996878101845283612945565b61065c614065565b90615818565b906001600160a01b03821615158061077b575b610684575b6100166001601155565b6107719361070f6106fd6107096106bb60046106ad61076c976000526015602052604060002090565b01546001600160a01b031690565b6040517f4fb2e45d00000000000000000000000000000000000000000000000000000000898201526001600160a01b0390911660248201529182906044820190565b03848101835282612945565b846158ef565b507fa3e884b000000000000000000000000000000000000000000000000000000000604051948501528361076060248201906007606060808401936000815260006020820152600060408201520152565b03908101845283612945565b6158ef565b503880808061067a565b5081311515610675565b6107a6919350823d84116107ad575b61079e8183612945565b810190614044565b9138610604565b503d610794565b614059565b801515036103c457565b346103c45760803660031901126103c4576024356064356044356004356107e9836107b9565b6107f16155c9565b15610948576107ff3361564e565b8015610934575b15610923576108d09061081761372f565b610822831515614207565b61083e61058a6001610582846000526015602052604060002090565b61085f61085a6001610582886000526015602052604060002090565b614252565b61049f6108c66108b761088160056106ad8a6000526015602052604060002090565b604051906108a98261089b60208201906000602083019252565b03601f198101845283612945565b6108b1613658565b9061575a565b60208082518301019101613691565b50505015156136b3565b60028101926108f36108ee6108ea865460ff9060081c1690565b1590565b61429d565b610901576100166001601155565b61091a9360018201555561010061ff0019825416179055565b3880808061067a565b600460405163ea8e4eb560e01b8152fd5b50336001600160a01b036005541614610806565b6004604051634ee2123760e11b8152fd5b346103c45760203660031901126103c457600435610976816103c9565b6001600160a01b0390811660009081526012602090815260408083205483526015825280832060020154808452601383529281902054815193845290931690820152f35b0390f35b346103c45760203660031901126103c457600435600052601360205260206001600160a01b0360406000205416604051908152f35b346103c4576020806003193601126103c457610a72600435610a14816103c9565b6001600160a01b03806002541690604051921684830152838252610a37826128f1565b60405190610a44826128f1565b601182527f69735369676e657228616464726573732900000000000000000000000000000085830152615785565b919080610ad0575b15610aa6578181610a94926109ba945183010191016155b4565b60405190151581529081906020820190565b60046040517f3204506f000000000000000000000000000000000000000000000000000000008152fd5b5080825114610a7a565b346103c45760403660031901126103c457602435610af66155c9565b1561094857610b043361564e565b8015610b41575b1561092357600090808252601a6020526040822054906004358201809211610b3c578252601a602052604082205580f35b6136fe565b50336001600160a01b036005541614610b0b565b346103c45760203660031901126103c457600480356000908152601560209081526040918290209283015460059093015482516001600160a01b03948516815293169083015290f35b346103c45760203660031901126103c457600435600052601560205260206001600160a01b0360056040600020015416604051908152f35b346103c45760403660031901126103c457602435610bf26155c9565b1561094857610c003361564e565b8015610c38575b1561092357600090808252601d6020526040822054906004358201809211610b3c578252601d602052604082205580f35b50336001600160a01b036005541614610c07565b346103c45760003660031901126103c457610c726105b96000546001600160a01b031690565b604051907f97f3815a000000000000000000000000000000000000000000000000000000008252602082600481845afa9182156107b457600092611302575b50604051917fcfbffe53000000000000000000000000000000000000000000000000000000008352602083600481855afa9283156107b4576000936112e1575b50604051907fab6e844f000000000000000000000000000000000000000000000000000000008252602082600481865afa9182156107b4576000926112c0575b50604051917f14d8d024000000000000000000000000000000000000000000000000000000008352602083600481875afa9283156107b45760009361129f575b50604051927fd1f956b1000000000000000000000000000000000000000000000000000000008452602084600481885afa9384156107b45760009461127e575b50604051937fe61dfd58000000000000000000000000000000000000000000000000000000008552602085600481895afa9485156107b45760009561125d575b506040517fe09d394d0000000000000000000000000000000000000000000000000000000081526020816004818a5afa9081156107b45760009161123e575b506040517f52b06d640000000000000000000000000000000000000000000000000000000081526020816004818b5afa9081156107b45760009161121f575b506040517f013cf08b00000000000000000000000000000000000000000000000000000000815260006004820152916020836024818c5afa9283156107b4576000936111fe575b50604051977f5e09dbe70000000000000000000000000000000000000000000000000000000089526020896004818d5afa9485156107b4576004996000966111dd575b5060208b6040519b8c80927faa0ddc160000000000000000000000000000000000000000000000000000000082525afa9687156107b45760049a6000986111bc575b5060208c6040519c8d80927f640274270000000000000000000000000000000000000000000000000000000082525afa9889156107b45760049b60009a61119b575b5060208d6040519d8e80927f30125cf50000000000000000000000000000000000000000000000000000000082525afa9a8b156107b4578d60049d60009d611179575b506020906040519e8f80927f24768d910000000000000000000000000000000000000000000000000000000082525afa9c8d156107b45760009d611158575b50604051809e81907f9dc969a80000000000000000000000000000000000000000000000000000000082525a92600491602094fa9d8e156107b45760009e611137575b5061104b612967565b6001600160a01b0390911681529d8e906001600160a01b031660208201526040019061107f91906001600160a01b03169052565b6001600160a01b031660608d01526001600160a01b031660808c01526001600160a01b031660a08b01526001600160a01b031660c08a01526001600160a01b031660e08901526001600160a01b03166101008801526001600160a01b03166101208701526001600160a01b03166101408601526001600160a01b03166101608501526001600160a01b03166101808401526001600160a01b03166101a08301526001600160a01b03166101c0820152610016906152b3565b611151919e5060203d6020116107ad5761079e8183612945565b9c38611042565b611172919d5060203d6020116107ad5761079e8183612945565b9b38610fff565b6020919d5061119490823d84116107ad5761079e8183612945565b9c90610fc0565b6111b5919a5060203d6020116107ad5761079e8183612945565b9838610f7d565b6111d691985060203d6020116107ad5761079e8183612945565b9638610f3b565b6111f791965060203d6020116107ad5761079e8183612945565b9438610ef9565b61121891935060203d6020116107ad5761079e8183612945565b9138610eb6565b611238915060203d6020116107ad5761079e8183612945565b38610e6f565b611257915060203d6020116107ad5761079e8183612945565b38610e30565b61127791955060203d6020116107ad5761079e8183612945565b9338610df1565b61129891945060203d6020116107ad5761079e8183612945565b9238610db1565b6112b991935060203d6020116107ad5761079e8183612945565b9138610d71565b6112da91925060203d6020116107ad5761079e8183612945565b9038610d31565b6112fb91935060203d6020116107ad5761079e8183612945565b9138610cf1565b61131c91925060203d6020116107ad5761079e8183612945565b9038610cb1565b346103c4576040806003193601126103c4576024356113406155c9565b156114ec5761134e3361564e565b80156114d8575b156114c8576000916113716105b984546001600160a01b031690565b8151809163111ea8c160e21b825281600460209485935afa9081156107b45785916114ab575b5084916004355b858111156113aa578680f35b8451828101828152819003808252601f19916113db916113cd9060200182612945565b6113d5615241565b86615869565b6113ef83600052601a602052604060002090565b55875b6008811061140a575050611405906139de565b61139e565b865184810184815260208101839052611441919061143390829060400103858101835282612945565b61143b61527a565b87615869565b811561147f575b9061147a9161147482611465876000526016602052604060002090565b90600052602052604060002090565b556139de565b6113f2565b959061148e61147a92886137d7565b6114a285600052601d602052604060002090565b55905085611448565b6114c29150823d84116107ad5761079e8183612945565b38611397565b6004825163ea8e4eb560e01b8152fd5b50336001600160a01b036005541614611355565b60048251634ee2123760e11b8152fd5b60e0810192916000915b6007831061151357505050565b600190825181526020809101920192019190611506565b346103c45760203660031901126103c4576109ba600435611684611674604051926115548461290d565b60e0368537611580611570826000526017602052604060002090565b6001600052602052604060002090565b5484526115aa61159a826000526017602052604060002090565b6002600052602052604060002090565b5460208501526115d76115c7826000526017602052604060002090565b6003600052602052604060002090565b5460408501526116046115f4826000526017602052604060002090565b6004600052602052604060002090565b546060850152611631611621826000526017602052604060002090565b6005600052602052604060002090565b54608085015261165e61164e826000526017602052604060002090565b6006600052602052604060002090565b5460a08501526000526017602052604060002090565b6007600052602052604060002090565b5460c0820152604051918291826114fc565b346103c45760003660031901126103c45760206001600160a01b0360005416604051908152f35b60409060031901126103c4576004356116d5816103c9565b906024356116e2816103c9565b90565b346103c4576116f3366116bd565b6116fb61372f565b6109ba61174661171a61170c6134ed565b611714613505565b33615818565b6117666117306117286134ed565b61171461353e565b6001600160a01b03938685169385168414613577565b8361175e6105b982600054166001600160a01b031690565b9116146135c2565b611771811515613f18565b61178e846001600160a01b03166000526012602052604060002090565b54158015611b66575b6117a090613f63565b6117c86117c0866001600160a01b03166000526012602052604060002090565b541515613fae565b6117fe60056106ad6117ed886001600160a01b03166000526012602052604060002090565b546000526015602052604060002090565b6040517f880cdc310000000000000000000000000000000000000000000000000000000060208201526001600160a01b03861660248201529092906118579080604481015b039461076c601f1996878101845283612945565b506118806105b960046106ad6117ed8a6001600160a01b03166000526012602052604060002090565b611af3575b6118a2866001600160a01b03166000526012602052604060002090565b546118c0866001600160a01b03166000526012602052604060002090565b55611911856118f66118e5896001600160a01b03166000526012602052604060002090565b546000526013602052604060002090565b906001600160a01b03166001600160a01b0319825416179055565b6119533360046119376117ed896001600160a01b03166000526012602052604060002090565b01906001600160a01b03166001600160a01b0319825416179055565b851614159081611ace575b61197b846001600160a01b03166000526012602052604060002090565b549361199660056106ad876000526015602052604060002090565b956119c56105ac60026119b3896000526015602052604060002090565b01546000526013602052604060002090565b9315611a665761076c611a30936119e46009546001600160a01b031690565b6040517fe3d1d5bf0000000000000000000000000000000000000000000000000000000060208201526001600160a01b0394851660248201529490931660448501528360648101610760565b505b611a3c6001601155565b60405193849384916040919493606084019584526001600160a01b03809216602085015216910152565b610760915061076c611ac893611a846009546001600160a01b031690565b6040517f9498d88b0000000000000000000000000000000000000000000000000000000060208201526001600160a01b039094166024850152929384906044820190565b50611a32565b6000611aed866001600160a01b03166000526012602052604060002090565b5561195e565b611b60611b1b60046106ad6117ed8a6001600160a01b03166000526012602052604060002090565b6040517f0399c93c0000000000000000000000000000000000000000000000000000000060208201523360248201529061076c82604481015b03878101845283612945565b50611885565b508482168114611797565b346103c45760203660031901126103c4576004356000526015602052602060ff600160406000200154166040519015158152f35b346103c45760203660031901126103c45760043560005260156020526020600360406000200154604051908152f35b346103c45760203660031901126103c457600435600052601560205260206001600160a01b0360046040600020015416604051908152f35b346103c45760003660031901126103c4576020601f54604051908152f35b346103c45760203660031901126103c45760043580600052601560205260406000205460136020526109ba6001600160a01b0380604060002054169360156020526040600020916004600284015493015416611c9560056106ad846000526015602052604060002090565b906003611cc5611cb46001610582876000526015602052604060002090565b946000526015602052604060002090565b01549360405197889788939160c09591989796939260e086019986526001600160a01b03938480931660208801526040870152166060850152166080830152151560a08201520152565b346103c45760203660031901126103c4576001600160a01b03600435611d34816103c9565b1660005260126020526040600020546000526015602052602060ff600160406000200154166040519015158152f35b346103c457611d71366116bd565b611d796155c9565b1561094857611d873361564e565b8015611de8575b1561092357611da491611d9f61372f565b6139ed565b8060005260156020526001600160a01b036005604060002001541690611dc981613eb7565b6001601155604080519182526001600160a01b03929092166020820152f35b50336001600160a01b036005541614611d8e565b346103c45760003660031901126103c4576020601454604051908152f35b346103c45760203660031901126103c4576001600160a01b03600435611e3f816103c9565b1660005260126020526020604060002054604051908152f35b346103c45760203660031901126103c457600435611e7461372f565b6001611e9161058a82610582856000526015602052604060002090565b611eb9611eb1336001600160a01b03166000526012602052604060002090565b548314613ff9565b611ecd82600052601e602052604060002090565b906002908183019260ff8454611ee7828260081c16614333565b60101c1661210e5750611f1182611f08866000526015602052604060002090565b015415156143c9565b6000815b611fe3575b505080611f85846001600160a01b03611f5d60056106ad600097611f4b61067a9b6000526015602052604060002090565b01546000526015602052604060002090565b16611f98575b8454611f759060101c60ff1682614461565b6000526015602052604060002090565b0155805462ff0000191662010000179055565b611fdd611fb860056106ad86611f4b866000526015602052604060002090565b604051636f58dd0f60e11b6020820152600060248201529061076c826044810161089b565b50611f63565b600380611ffe85611f4b896000526015602052604060002090565b0154821015612108578561203861202e848461202889611f4b876000526015602052604060002090565b01613d31565b90549060031b1c90565b1461204d5750612047906139de565b81611f15565b839250946120fe866120e0611f85946120c76120ad61202e61067a9c61208360009c611f4b8b6000526015602052604060002090565b016120a7876120a08d611f4b8d6000526015602052604060002090565b01546137c8565b90613d31565b91846120288a611f4b8a6000526015602052604060002090565b90919082549060031b91821b91600019901b1916179055565b6120f885611f4b856000526015602052604060002090565b01614414565b9450819250611f1a565b50611f1a565b6121ae6104af9461217a87600361217488976121b497612148859b6121406121e69f6000526015602052604060002090565b01541561437e565b019788548091612162866000526015602052604060002090565b01556000526015602052604060002090565b01613d4e565b83546001600160a01b0361219d60056106ad846000526015602052604060002090565b16612270575b505460101c60ff1690565b83614461565b6121d06105b960046106ad856000526015602052604060002090565b6121eb575b50600052601e602052604060002090565b61067a565b61089b6122699161076c6122266105ac61221460046106ad896000526015602052604060002090565b93546000526013602052604060002090565b6040517f1499c5920000000000000000000000000000000000000000000000000000000060208201526001600160a01b0390911660248201529283906044820190565b50386121d5565b61228c60056106ad6122b1936000526015602052604060002090565b604051636f58dd0f60e11b6020820152600160248201529061076c826044810161089b565b50386121a3565b346103c4576040806003193601126103c4576004356122d561372f565b6122f161058a6001610582846000526015602052604060002090565b6123176123106105b960046106ad856000526015602052604060002090565b33146141a6565b61231f61379a565b6109ba61010061233e60056106ad856000526015602052604060002090565b612462601f549486805193826123a56123976020977f02a085f200000000000000000000000000000000000000000000000000000000898201528061184360249d8e803590840160209093929193604081019481520152565b8780825183010191016147dc565b988951926123b8888c0194855190613722565b978b6123c98782019a8b5190613722565b6123d96060830191825190613722565b906123ea6080840192835190613722565b97868a896123fe60a088019c8d5190613722565b9661241761241260c08301998a5190613722565b6151e7565b888151612658575b505090915082516125df575b505050805161256e575b508051612504575b5061244b8651825190613722565b612487575b5050505050505060e08601519061490d565b51920151926124716001601155565b5191825260208201929092529081906040820190565b6124f79663a9059cbb60e01b9661076c956124d2610760946124c86105ac6124b7600f546001600160a01b031690565b9b6000526013602052604060002090565b9351905190613722565b92519889958601528401602090939291936001600160a01b0360408201951681520152565b5086388281808080612450565b6125679061251a6010546001600160a01b031690565b61076c6125346105ac8a6000526013602052604060002090565b92518b5163a9059cbb60e01b888201526001600160a01b0390941689850190815260208101919091528390604001611b54565b503861243d565b6125d890612584600c546001600160a01b031690565b61076c61259e6105ac8b6000526013602052604060002090565b92518c5163a9059cbb60e01b898201526001600160a01b039094168a85019081526020810191909152839060400103888101845283612945565b5038612435565b61076c61264f936126436126126105ac612601600e546001600160a01b031690565b956000526013602052604060002090565b9151945194859263a9059cbb60e01b8c8501528d8401602090939291936001600160a01b0360408201951681520152565b03898101845283612945565b5038898861242b565b6126bc63a9059cbb60e01b9461076c936126c8976126956105ac612684600d546001600160a01b031690565b986000526013602052604060002090565b915192519788958601528401602090939291936001600160a01b0360408201951681520152565b038a8101845283612945565b508f8a8989928861241f565b346103c45760403660031901126103c4576004356024356126f361372f565b61270f61058a6001610582856000526015602052604060002090565b61272c6105c56105b96105ac856000526013602052604060002090565b61275e61274860056106ad856000526015602052604060002090565b61275061409e565b6127586134da565b9161575a565b90806127746020938480825183010191016140d7565b1015612784576100166001601155565b8261285b6001600160a01b03927ff526f68a000000000000000000000000000000000000000000000000000000009461284f6128346105ac61281f6128116127f56127e160056106ad6128619f6000526015602052604060002090565b976040519182918983019190602083019252565b0397612809601f19998a8101845283612945565b6108b16140e6565b85808251830101910161411f565b99925050506000526013602052604060002090565b61283c6134ed565b906040519889948501526024840161416a565b03908101855284612945565b166158ef565b5038808061067a565b346103c45760203660031901126103c4576020600435612889816103c9565b6001600160a01b03809116600052601282526040600020546000526015825260056040600020015416604051908152f35b634e487b7160e01b600052604160045260246000fd5b6060810190811067ffffffffffffffff8211176128ec57604052565b6128ba565b6040810190811067ffffffffffffffff8211176128ec57604052565b60e0810190811067ffffffffffffffff8211176128ec57604052565b6020810190811067ffffffffffffffff8211176128ec57604052565b90601f8019910116810190811067ffffffffffffffff8211176128ec57604052565b604051906101e0820182811067ffffffffffffffff8211176128ec57604052565b346103c4576101003660031901126103c45736604312156103c4576040516129af8161290d565b610104813682116103c4576024905b8282106129d15761001684600435614eeb565b81358152602091820191016129be565b346103c45760403660031901126103c457600435600052601660205260406000206024356000526020526020604060002054604051908152f35b346103c45760203660031901126103c45760043560005260156020526020600260406000200154604051908152f35b346103c45760403660031901126103c45760043560005260156020526020612a7b6024356003604060002001613d31565b90549060031b1c604051908152f35b346103c45760003660031901126103c45760206001600160a01b0360015416604051908152f35b346103c45760403660031901126103c457602435612acd6155c9565b1561094857612adb3361564e565b8015612b13575b1561092357600090808252601c6020526040822054906004358201809211610b3c578252601c602052604082205580f35b50336001600160a01b036005541614612ae2565b346103c45760203660031901126103c457600435600052601d6020526020604060002054604051908152f35b346103c45760003660031901126103c4576020612bc06001600160a01b0360065416604051612b81816128f1565b601381527f67657464656c656761746f72436f756e742829000000000000000000000000008482015260405191612bb783612929565b60008352615869565b604051908152f35b610100810192916000915b60088310612be057505050565b600190825181526020809101920192019190612bd3565b346103c45760203660031901126103c4576109ba600435612d04611674612c1c61516a565b92612c43612c34826000526016602052604060002090565b60008052602052604060002090565b548452612c5d611570826000526016602052604060002090565b546020850152612c7a61159a826000526016602052604060002090565b546040850152612c976115c7826000526016602052604060002090565b546060850152612cb46115f4826000526016602052604060002090565b546080850152612cd1611621826000526016602052604060002090565b5460a0850152612cee61164e826000526016602052604060002090565b5460c08501526000526016602052604060002090565b5460e082015260405191829182612bc8565b346103c45760203660031901126103c4576020612d3d600435612d38816103c9565b61564e565b6040519015158152f35b346103c457612e14612d58366116bd565b90612d6161372f565b612daa612d6f61170c6134ed565b612d7a6117286134ed565b90612d936001600160a01b039182808816911614613577565b61175e6105b982600054166001600160a01b031690565b612dd7612dd260016105826117ed856001600160a01b03166000526012602052604060002090565b61360d565b612e056108c66108b761088160056106ad6117ed876001600160a01b03166000526012602052604060002090565b612e0d61376a565b3390613bff565b612e2d612c34601f546000526016602052604060002090565b612e378154613714565b9055612e41615213565b612e5a60056106ad836000526015602052604060002090565b90612e6481613eb7565b612e6e6001601155565b604080519182526001600160a01b03929092166020820152f35b346103c45760203660031901126103c457612ea16155c9565b1561094857612eaf3361564e565b8015612eea575b1561092357612ec36156d8565b601f5410612eda575b610016600435601f546137e4565b612ee26156d8565b601f55612ecc565b50336001600160a01b036005541614612eb6565b346103c45760203660031901126103c457600435612f1a6155c9565b15610948576001600160a01b036005541633036109235760009060046020612f4c6105b985546001600160a01b031690565b604051928380927f46f991ac0000000000000000000000000000000000000000000000000000000082525afa80156107b45783808481949382948391612fee575b505af1612f9861572a565b5015610aa6577fcdcc745fe377b103b45fa0cec23ae3ef93d6fc6a84a01f0d18c40b354dd1d5d8612fe8612fd76105b9600b546001600160a01b031690565b604051938452929081906020820190565b0390a280f35b613006915060203d81116107ad5761079e8183612945565b38612f8d565b346103c45760203660031901126103c457600435600052601b6020526020604060002054604051908152f35b346103c45760203660031901126103c457600435613055816103c9565b803b6000613062826134be565b926130706040519485612945565b82845260208401903c602d81511061309457602a602091015160601c604051908152f35b60046040517fbaf3f0f7000000000000000000000000000000000000000000000000000000008152fd5b60403660031901126103c4576004356130d561372f565b60009080825260156020526130f360ff600160408520015416613e6c565b815260156020526131336001600160a01b036005604084200154166040519062a0e53360e51b602083015260243560248301526024825261076c826128d0565b50600160115580f35b346103c45760403660031901126103c457600435600052601860205260406000206024356000526020526020604060002054604051908152f35b346103c45760c03660031901126103c45761067a600435602435613199816103c9565b6064359161329961328a608435936131af61372f565b6131cb61058a6001610582876000526015602052604060002090565b6131ea6123106105b960046106ad886000526015602052604060002090565b6131f261379a565b6131fb8561518f565b613204866151bb565b61321d60056106ad866000526015602052604060002090565b601f546040517fa66303040000000000000000000000000000000000000000000000000000000060208201526001600160a01b039093166024840152604480359084015260648301889052608483019690965260a480359083015260c48201959095528060e48101611843565b602080825183010191016141f1565b92816132a7575b5050614c2f565b6132ed9161076c610760926132c4600b546001600160a01b031690565b60405163a9059cbb60e01b60208201523360248201526044810194909452929384906064820190565b5038806132a0565b346103c4576020806003193601126103c4576109ba9060043590613318826103c9565b61337c6001600160a01b039283600654169360405191168382015282815261333f816128f1565b60405161334b816128f1565b601881527f697364656c656761746f724e6f6465286164647265737329000000000000000084820152600094615785565b9190806133b6575b61339d575b505060405190151581529081906020820190565b6133af925080825183010191016155b4565b3880613389565b5080825114613384565b346103c45760003660031901126103c4576020612d3d6155c9565b346103c45760203660031901126103c457600435600052601a6020526020604060002054604051908152f35b346103c45760203660031901126103c457600435600052601c6020526020604060002054604051908152f35b346103c4576040806003193601126103c4576001600160a01b03600435613459816103c9565b166000818152601260208181528483205483526019815284832054938352908152838220548252601881528382206024358352815290839020549251918252810191909152604090f35b346103c45760003660031901126103c4576020612bc06156d8565b67ffffffffffffffff81116128ec57601f01601f191660200190565b604051906134e782612929565b60008252565b6040516134f981612929565b60008152906000368137565b60405190613512826128f1565b600782527f6f776e65722829000000000000000000000000000000000000000000000000006020830152565b6040519061354b826128f1565b600c82527f67657448657862617365282900000000000000000000000000000000000000006020830152565b1561357e57565b606460405162461bcd60e51b815260206004820152601760248201527f6e65737465642e696e76616c69642e696e7374616e63650000000000000000006044820152fd5b156135c957565b606460405162461bcd60e51b815260206004820152601660248201527f6e65737465642e696e76616c69642e68657862617365000000000000000000006044820152fd5b1561361457565b606460405162461bcd60e51b815260206004820152601860248201527f6e65737465642e706172656e742e6e6f742e65786973747300000000000000006044820152fd5b60405190613665826128f1565b601282527f6765744e6f64654c422875696e743235362900000000000000000000000000006020830152565b91908260809103126103c4578151916020810151916060604083015192015190565b156136ba57565b606460405162461bcd60e51b815260206004820152601960248201527f6e65737465642e706172656e742e6e6f2e627573696e657373000000000000006044820152fd5b634e487b7160e01b600052601160045260246000fd5b9060018201809211610b3c57565b91908201809211610b3c57565b600260115414613740576002601155565b60046040517f3ee5aeb5000000000000000000000000000000000000000000000000000000008152fd5b6137726156d8565b601f541061378a575b6137886005601f546137e4565b565b6137926156d8565b601f5561377b565b6137a26156d8565b601f54106137b8575b6137886002601f546137e4565b6137c06156d8565b601f556137ab565b600019810191908211610b3c57565b91908203918211610b3c57565b906137fc612c34836000526016602052604060002090565b541580613989575b80613980575b613812575050565b61382e90613828613822846137c8565b916137c8565b906137e4565b61384d612c3461383d836137c8565b6000526016602052604060002090565b54613865612c34836000526016602052604060002090565b5561387561157061383d836137c8565b5461388d611570836000526016602052604060002090565b5561389d61159a61383d836137c8565b546138b561159a836000526016602052604060002090565b556138c56115c761383d836137c8565b546138dd6115c7836000526016602052604060002090565b556138ed6115f461383d836137c8565b546139056115f4836000526016602052604060002090565b5561391561162161383d836137c8565b5461392d611621836000526016602052604060002090565b5561393d61164e61383d836137c8565b5461395561164e836000526016602052604060002090565b5561397d61167461396b61167461383d856137c8565b54926000526016602052604060002090565b55565b5080151561380a565b5060018211613804565b1561399a57565b606460405162461bcd60e51b815260206004820152601560248201527f6e65737465642e616c72656164792e65786973747300000000000000000000006044820152fd5b6000198114610b3c5760010190565b90613a1e613a196108ea60016105826117ed866001600160a01b03166000526012602052604060002090565b613993565b613a31613a2c6014546139de565b601455565b613a8860145492613a50836118f6866000526013602052604060002090565b83613a6e846001600160a01b03166000526012602052604060002090565b556001600160a01b03166000526012602052604060002090565b5490613a948383613d76565b613abe6004613aad856000526015602052604060002090565b016001600160a01b03198154169055565b613af1613adb613ad66008546001600160a01b031690565b613c9b565b6005611937866000526015602052604060002090565b613b7c613b0d60056106ad866000526015602052604060002090565b91613b236105b96000546001600160a01b031690565b6040517f52902c590000000000000000000000000000000000000000000000000000000060208201526001600160a01b0391821660248201529116604482015260648082018690528152601f199261076c608483612945565b5081151580613bd5575b613b8f57505090565b613bab60056106ad613bd1946000526015602052604060002090565b604051636f58dd0f60e11b6020820152600160248201529161076c908360448101610760565b5090565b506001600160a01b03613bf760056106ad856000526015602052604060002090565b161515613b86565b91613c2b613a196108ea60016105826117ed866001600160a01b03166000526012602052604060002090565b613c39613a2c6014546139de565b613abe613c7960145494613c5b846118f6886000526013602052604060002090565b85613a6e856001600160a01b03166000526012602052604060002090565b5492613c858585613d76565b6004611937866000526015602052604060002090565b6e5af43d82803e903d91602b57fd5bf390763d602d80600a3d3981f3363d3d373d3d3d363d7300000062ffffff8260881c161760005260781b17602052603760096000f0906001600160a01b03821615613cf157565b60046040517fb06ebf3d000000000000000000000000000000000000000000000000000000008152fd5b634e487b7160e01b600052603260045260246000fd5b8054821015613d495760005260206000200190600090565b613d1b565b90815491680100000000000000008310156128ec57826120c791600161378895018155613d31565b919091600092808452602091601583526040808620956002948386890155846001988981018a60ff198254161790555587613dbb866000526018602052604060002090565b83805282528489858520555b613dd657505050505050509050565b613e44613e33828b8a9414613e4d575b613dfa886000526018602052604060002090565b8187528552868620613e0c8154613714565b9055613e22886000526019602052604060002090565b613e2c8154613714565b90556139de565b956000526015602052604060002090565b01549384613dc7565b613e678960036121748b6000526015602052604060002090565b613de6565b15613e7357565b606460405162461bcd60e51b815260206004820152601560248201527f6e65737465642e757365722e6e6f7461637469766500000000000000000000006044820152fd5b806000526015602052613ed460ff60016040600020015416613e6c565b6000526015602052613f156001600160a01b03600560406000200154166040519062a0e53360e51b6020830152600160248301526024825261076c826128d0565b50565b15613f1f57565b606460405162461bcd60e51b815260206004820152601360248201527f6e65737465642e7a65726f2e61646472657373000000000000000000000000006044820152fd5b15613f6a57565b606460405162461bcd60e51b815260206004820152601460248201527f6e65737465642e7461726765742e6578697374730000000000000000000000006044820152fd5b15613fb557565b606460405162461bcd60e51b815260206004820152601760248201527f6e65737465642e736f757263652e6e6f744578697374730000000000000000006044820152fd5b1561400057565b606460405162461bcd60e51b815260206004820152601560248201527f6e65737465642e696e76616c69642e73656e64657200000000000000000000006044820152fd5b908160209103126103c457516116e2816103c9565b6040513d6000823e3d90fd5b60405190614072826128f1565b601382527f55736572546f496e7374286164647265737329000000000000000000000000006020830152565b604051906140ab826128f1565b600b82527f6d696e74436f756e7428290000000000000000000000000000000000000000006020830152565b908160209103126103c4575190565b604051906140f3826128f1565b600e82527f6d696e74732875696e74323536290000000000000000000000000000000000006020830152565b91908260809103126103c457815191602081015191606060408301519201516116e2816103c9565b60005b83811061415a5750506000910152565b818101518382015260200161414a565b90916001600160a01b036060931682526040602083015261419a8151809281604086015260208686019101614147565b601f01601f1916010190565b156141ad57565b606460405162461bcd60e51b815260206004820152601b60248201527f6e65737465642e757365722e696e76616c6964696e7374616e636500000000006044820152fd5b91908260409103126103c4576020825192015190565b1561420e57565b606460405162461bcd60e51b815260206004820152601960248201527f6e65737465642e70726f706f73616c49642e696e76616c6964000000000000006044820152fd5b1561425957565b606460405162461bcd60e51b815260206004820152601560248201527f6e65737465642e696e76616c69642e706172656e7400000000000000000000006044820152fd5b156142a457565b606460405162461bcd60e51b815260206004820152601760248201527f6e65737465642e7265712e616c726561647965786973740000000000000000006044820152fd5b156142ef57565b606460405162461bcd60e51b815260206004820152601360248201527f6e65737465642e7265712e6e6f746578697374000000000000000000000000006044820152fd5b1561433a57565b606460405162461bcd60e51b815260206004820152601460248201527f6e65737465642e7265712e6e6f746578697374730000000000000000000000006044820152fd5b1561438557565b606460405162461bcd60e51b815260206004820152601860248201527f6e65737465642e757365722e6e6f742e646574616368656400000000000000006044820152fd5b156143d057565b606460405162461bcd60e51b815260206004820152601c60248201527f6e65737465642e757365722e616c72656164792e6465746163686564000000006044820152fd5b805490811561443e576000199182019161442e8383613d31565b909182549160031b1b1916905555565b634e487b7160e01b600052603160045260246000fd5b8015610b3c576000190190565b9061447f614479836000526019602052604060002090565b54613714565b9160029081614498826000526015602052604060002090565b0154906001938492835b6144b0575b50505050505050565b600f80851115806147d3575b156147cd57859060056144e06105b9826106ad876000526015602052604060002090565b61450d575b50506144fe614506926000526015602052604060002090565b0154936139de565b92856144a2565b865b82811115614608575050506144fe61450692846000146145a557614557614540876000526018602052604060002090565b614549896137c8565b600052602052604060002090565b5461457b61457389611465856000526018602052604060002090565b918254613722565b9055614591816000526019602052604060002090565b61459c8b8254613722565b90555b926144e5565b6145bc614540876000526018602052604060002090565b546145e06145d889611465856000526018602052604060002090565b9182546137d7565b90556145f6816000526019602052604060002090565b6146018b82546137d7565b905561459f565b90919250614624826106ad886000526015602052604060002090565b61462e88836137d7565b6040918761467061466285518061464e6020978883019190602083019252565b03946108a9601f1996878101845283612945565b848082518301019101613691565b50509290878a8215806147c5575b6147b4579261470694926107606146ab61076c946106ad6147139b9a986000526015602052604060002090565b94601f9a8c8c5491519889957f7b058ac1000000000000000000000000000000000000000000000000000000008d8801526024870193909594919260809360a086019786526020860152604085015260608401521515910152565b80518101820191016141f1565b90871561476a575b8082116147375750505061472e906139de565b9087929161450f565b614740906139de565b6147598161146585546000526016602052604060002090565b6147638154613714565b905561471b565b9190915b8281116147815750505061472e906139de565b8061479e6147af9261146585546000526016602052604060002090565b6147a881546137c8565b9055614454565b61476e565b505050505050505061472e906139de565b50851561467e565b506144a7565b508115156144bc565b9061012080838303126103c45781601f840112156103c4576040519281840184811067ffffffffffffffff8211176128ec57604052839181019283116103c457905b82821061482b5750505090565b815181526020918201910161481e565b60405190614848826128f1565b600f82527f66726565496e74657276616c73282900000000000000000000000000000000006020830152565b60405190614881826128f1565b601582527f67657452616e6b5769746841676556616c7565282900000000000000000000006020830152565b604051906148ba826128f1565b601382527f72616e6b436c617573652875696e7432353629000000000000000000000000006020830152565b908160a09103126103c4578051916020820151916040810151916080606083015192015190565b91909160039261493e61492785546001600160a01b031690565b61492f6134ed565b9061493861483b565b90615869565b9360008092819082948392849185985b600f8a111580614c26575b15614c1857600561497b6105b9826106ad856000526015602052604060002090565b6149a8575b50600261499a6149a2926000526015602052604060002090565b0154996139de565b9861494e565b8c6149cc6149c4836106ad866000526015602052604060002090565b612750614874565b8c6149e16020928380825183010191016141f1565b829591951580614baf575b1580614ba6575b8015614b9e575b614a09575b5050505050614980565b869e8697929394959603614add575b50614a9a928b61076c8c61089b614a44614aa099976106ad614a8d986000526015602052604060002090565b93601f9a8b5460405197889563208bffb160e21b8c8801526024870193909594919260a09360c08601978652600060208701526040860152606085015260808401521515910152565b80518101820191016140d7565b92613714565b80831015614abb57509098905060028c6149a28c38806149ff565b80613e22614ad89261146585546000526016602052604060002090565b614aa0565b9193929a50508a8511614b30575b509087918c86861080801591614b07575b50159a929193614a18565b89881015915081614b28575b5080614b20575b38614afc565b508815614b1a565b905038614b13565b995095509350859250614b7f614b71614b508b546001600160a01b031690565b60405190614b698261089b888c83019190602083019252565b6108b16148ad565b8680825183010191016148e6565b969350909691509594614b95859b601f546137d7565b11969091614aeb565b5060006149fa565b508a15156149f3565b99509b50955095509a50614bf8614bea838d614b69614bd58f546001600160a01b031690565b6040519283019384529192839060200161089b565b8c80825183010191016148e6565b9e9350909791509695849b859e614c1182601f546137d7565b11996149ec565b505050505050505050509050565b50801515614959565b90929192614c486149276003546001600160a01b031690565b93600091829083809481938280985b600f8a111580614ee2575b15614c1857614c836105b960056106ad846000526015602052604060002090565b614ca7575b600261499a614ca1926000526015602052604060002090565b98614c57565b8b8a614cc861328a6149c460056106ad876000526015602052604060002090565b8293919315614e85575b82151580614e7c575b8015614e73575b614cf0575b50505050614c88565b938394819d8d949503614dbd575b50614d8492614a9a9261076c8c61089b8f614d2b60056106ad614d75996000526015602052604060002090565b94601f9a8b549060405198899663208bffb160e21b60208901526024880194919260a0949197969360c0870198875260208701526040860152606085015260808401521515910152565b602080825183010191016140d7565b80831015614d9b57509098905060028a8d38614ce7565b80613e22614db89261146585546000526016602052604060002090565b614d84565b935050509750828211614e0f575b50898c878b86851080801591614de6575b50159a9291614cfe565b89871015915081614e07575b5080614dff575b38614ddc565b508815614df9565b905038614df2565b935093505050614e56614e47614e2d6003546001600160a01b031690565b60405190614b698261089b88602083019190602083019252565b602080825183010191016148e6565b9350909391509291614e6b8592601f546137d7565b119338614dcb565b508b1515614ce2565b50891515614cdb565b97505050935097505050614ec1614e47614ea76003546001600160a01b031690565b60405190614b698261089b87602083019190602083019252565b999350909391509291818a8d829b614edb89601f546137d7565b1197614cd2565b50801515614c62565b614ef36155c9565b1561094857614f013361564e565b8015615000575b1561092357614f1561376a565b614f20811515615014565b614f3d614f356003546001600160a01b031690565b61275061505f565b614f51602091828082518301019101615098565b90614f6683600052601a602052604060002090565b549060005b60078110614f7b57505050505050565b80614f89614fec9288615115565b518015614ffa57614f9a8287615115565b51848151928315614ff157614fc1614fc692614fb9614fcc968b615137565b940151615126565b615137565b9061514a565b611474614fe3886000526017602052604060002090565b61454984613714565b614f6b565b505050506139de565b506139de565b50336001600160a01b036005541614614f08565b1561501b57565b606460405162461bcd60e51b815260206004820152601260248201527f6e65737465642e696e76616c69642e61676500000000000000000000000000006044820152fd5b6040519061506c826128f1565b601882527f6765744261746368526f79616c7479436c6175736573282900000000000000006020830152565b6102a09081818403126103c45782601f820112156103c45760408051936150be8561290d565b84938301928184116103c457935b8385106150db57505050505090565b6060858303126103c45782516060916150f3826128d0565b86518252602091828801518382015285880151868201528152019401936150cc565b906007811015613d495760051b0190565b9081606402916064830403610b3c57565b81810292918115918404141715610b3c57565b8115615154570490565b634e487b7160e01b600052601260045260246000fd5b6040519061010080830183811067ffffffffffffffff8211176128ec57604052368337565b601f5480600052601a602052604060002054918201809211610b3c57600052601a602052604060002055565b601f5480600052601b602052604060002054918201809211610b3c57600052601b602052604060002055565b601f5480600052601c602052604060002054918201809211610b3c57600052601c602052604060002055565b601f5480600052601d6020526040600020549060018201809211610b3c57600052601d602052604060002055565b6040519061524e826128f1565b601482527f676574627573696e6573732875696e74323536290000000000000000000000006020830152565b60405190615287826128f1565b601d82527f67657472616e6b436f756e742875696e743235362c75696e74323536290000006020830152565b6155986101c0613788926152ed6152d182516001600160a01b031690565b6001600160a01b03166001600160a01b03196002541617600255565b61532061530460208301516001600160a01b031690565b6001600160a01b03166001600160a01b03196003541617600355565b61535361533760408301516001600160a01b031690565b6001600160a01b03166001600160a01b03196004541617600455565b61538661536a60608301516001600160a01b031690565b6001600160a01b03166001600160a01b03196005541617600555565b6153b961539d60808301516001600160a01b031690565b6001600160a01b03166001600160a01b03196006541617600655565b6153ec6153d060a08301516001600160a01b031690565b6001600160a01b03166001600160a01b03196007541617600755565b61541f61540360c08301516001600160a01b031690565b6001600160a01b03166001600160a01b03196008541617600855565b61545261543660e08301516001600160a01b031690565b6001600160a01b03166001600160a01b03196009541617600955565b61548661546a6101008301516001600160a01b031690565b6001600160a01b03166001600160a01b0319600a541617600a55565b6154ba61549e6101208301516001600160a01b031690565b6001600160a01b03166001600160a01b0319600b541617600b55565b6154ee6154d26101408301516001600160a01b031690565b6001600160a01b03166001600160a01b0319600c541617600c55565b6155226155066101608301516001600160a01b031690565b6001600160a01b03166001600160a01b0319600d541617600d55565b61555661553a6101808301516001600160a01b031690565b6001600160a01b03166001600160a01b0319600e541617600e55565b61558a61556e6101a08301516001600160a01b031690565b6001600160a01b03166001600160a01b0319600f541617600f55565b01516001600160a01b031690565b6001600160a01b03166001600160a01b03196010541617601055565b908160209103126103c457516116e2816107b9565b6156246001600160a01b03600254166040516155e4816128f1565b600881527f697353616665282900000000000000000000000000000000000000000000000060208201526040519161561b83612929565b60008352615785565b9080615643575b15610aa657806020806116e2935183010191016155b4565b50602081511461562b565b6156b16001600160a01b038060025416604051916020941684830152838252615676826128f1565b60405190615683826128f1565b601582527f697353656375726542617365286164647265737329000000000000000000000085830152615785565b90806156ce575b15610aa657816116e292825183010191016155b4565b50818151146156b8565b6116e26001600160a01b03600354166040516156f3816128f1565b600681527f6941676528290000000000000000000000000000000000000000000000000000602082015260405191612bb783612929565b3d15615755573d9061573b826134be565b916157496040519384612945565b82523d6000602084013e565b606090565b906157659291615785565b9060009015615772575090565b604051915061578082612929565b815290565b803b156157ff576000927fffffffff0000000000000000000000000000000000000000000000000000000083602086955191012016906157ef60246040518093602082019586526157df8151809260208686019101614147565b8101036004810184520182612945565b51915afa6157fb61572a565b9091565b50505060009060405161581181612929565b6000815290565b929161582691600094615785565b908061585e575b6158345750565b9091506020818051810103126103c45760206001600160a01b0391015161585a816103c9565b1690565b50602081511461582d565b929161587791600094615785565b908061589a575b6158855750565b6116e2919250602080825183010191016140d7565b50602081511461587e565b90602082519201517fffffffff000000000000000000000000000000000000000000000000000000009081811693600481106158e057505050565b60040360031b82901b16169150565b6001600160a01b038116156159a257600080918351908260208601915af19061591661572a565b9115615920575090565b80516000919060041161599c5761593791506158a5565b8151156159475750805190602001fd5b6040517f21c09d340000000000000000000000000000000000000000000000000000000081527fffffffff00000000000000000000000000000000000000000000000000000000919091166004820152602490fd5b50615937565b60046040517fe6c4247b000000000000000000000000000000000000000000000000000000008152fdfea26469706673582212203941bf9ed1ec0ab12e963b35c35e9af3c751190cd1d6d6de3bc2722df376527164736f6c63430008140033","linkReferences":{}},"methodIdentifiers":{"dAOAssembly()":"14837455","daocore()":"14d8d024","nested741()":"45cff900","old741()":"5540c5ac","price()":"a035b1fe"},"id":77}