{"abi":[{"type":"constructor","inputs":[{"name":"_hex","type":"address","internalType":"address"}],"stateMutability":"nonpayable"},{"type":"function","name":"instance","inputs":[],"outputs":[{"name":"","type":"address","internalType":"address"}],"stateMutability":"view"},{"type":"function","name":"tVLFactory","inputs":[],"outputs":[{"name":"","type":"address","internalType":"address"}],"stateMutability":"view"},{"type":"function","name":"tVLMining","inputs":[],"outputs":[{"name":"","type":"address","internalType":"address"}],"stateMutability":"view"},{"type":"function","name":"tVLReward","inputs":[],"outputs":[{"name":"","type":"address","internalType":"address"}],"stateMutability":"view"},{"type":"function","name":"tVLRoyality","inputs":[],"outputs":[{"name":"","type":"address","internalType":"address"}],"stateMutability":"view"},{"type":"function","name":"tVLTour","inputs":[],"outputs":[{"name":"","type":"address","internalType":"address"}],"stateMutability":"view"},{"type":"function","name":"tVLValidator","inputs":[],"outputs":[{"name":"","type":"address","internalType":"address"}],"stateMutability":"view"}],"bytecode":{"object":"0x60803461023957601f61477738819003918201601f19168301926001600160401b039290919083851183861017610223578083926040968752833960209283918101031261023957516001600160a01b0391908281169081900361023957845191612c7a928381019381851087861117610223576103f482398284528681600095868582015203019084f09485156102195783549585166001600160a01b031996871617845586516117098082019491808610848711176101e757848161306e978489833985815203019087f080156101fb578716886001541617600155885181810181811085821117610205578186918489833985815203019087f080156101fb578716886002541617600255885181810181811085821117610205578186918489833985815203019087f080156101fb578716886003541617600355885181810181811085821117610205578186918489833985815203019087f080156101fb578716886004541617600455885181810181811085821117610205578186918489833985815203019087f080156101fb57871688600554161760055588519481860193868510908511176101e75790859392918439815203019082f09081156101dc575016906006541617600655516101b5908161023f8239f35b8451903d90823e3d90fd5b634e487b7160e01b87526041600452602487fd5b89513d88823e3d90fd5b634e487b7160e01b88526041600452602488fd5b86513d85823e3d90fd5b634e487b7160e01b600052604160045260246000fd5b600080fdfe60806040818152600436101561001457600080fd5b600091823560e01c908163022ec0951461015c575080639443767c146101355780639ba540fb1461010e578063a50c0bc0146100e7578063b85c9faf146100c0578063d795ff38146100995763dabf429d1461006f57600080fd5b346100955781600319360112610095576020906001600160a01b03600554169051908152f35b5080fd5b50346100955781600319360112610095576020906001600160a01b03600254169051908152f35b50346100955781600319360112610095576020906001600160a01b03600354169051908152f35b50346100955781600319360112610095576020906001600160a01b03600654169051908152f35b50346100955781600319360112610095576020906001600160a01b03600154169051908152f35b50346100955781600319360112610095576020906001600160a01b03600454169051908152f35b8390346100955781600319360112610095576001600160a01b0360209254168152f3fea2646970667358221220b0bfac1232b23f1d877ae985a420c148d74721486e963156b20036c8d76c569264736f6c63430008140033608034620000c157601f62002c7a38819003918201601f19168301916001600160401b03831184841017620000c6578084926040948552833981010312620000c1576200005a60206200005283620000dc565b9201620000dc565b6001600160a01b0391821691908215620000af5760018060a01b03199283600154169084600054161760005560016011553390843316171760015516906012541617601255604051612b889081620000f28239f35b60405163e6c4247b60e01b8152600490fd5b600080fd5b634e487b7160e01b600052604160045260246000fd5b51906001600160a01b0382168203620000c15756fe60806040526004361015610018575b361561001657005b005b60003560e01c80630399c93c146101d857806306fdde03146101d357806312065fe0146101ce5780631499c592146101c95780631f185d16146101c45780631f3c99c3146101bf578063339459a6146101ba5780633b9b7955146101b55780633dbfd97c146101b057806360f96a8f146101ab578063641657cb146101a65780638129fc1c146101a15780638da5cb5b1461019c5780639c75dd3514610197578063a1f7f53914610192578063a3e884b01461018d578063af48452614610188578063af640d0f14610183578063b28175c41461017e578063b90306ad14610179578063c107930a14610174578063c47f00271461016f578063c54e44b01461016a578063cfcf2c2d14610165578063d4ace81b14610160578063e01ad5fd1461015b578063e0a9bc2b146101565763fdc10bc90361000e57611386565b61136b565b6112eb565b6112cb565b6112a8565b611222565b6111af565b611061565b610f53565b610f2c565b610f0e565b610edd565b610d35565b610c99565b610c7d565b610c56565b61096d565b6108f8565b6108c7565b6106e9565b6106c2565b6106a9565b610670565b610589565b6104f1565b6104d5565b6103f0565b6101f3565b6001600160a01b038116036101ee57565b600080fd5b346101ee5760203660031901126101ee57600435610210816101dd565b6102186126dc565b156102ab5761022633612761565b8015610297575b1561026d576102669061024360155415156113ec565b61024b61186b565b61025f6001600160a01b0382161515611cb5565b479061286d565b6001601155005b60046040517fea8e4eb5000000000000000000000000000000000000000000000000000000008152fd5b50336001600160a01b03600554161461022d565b60046040517f9dc4246e000000000000000000000000000000000000000000000000000000008152fd5b90600182811c92168015610305575b60208310146102ef57565b634e487b7160e01b600052602260045260246000fd5b91607f16916102e4565b634e487b7160e01b600052604160045260246000fd5b6040810190811067ffffffffffffffff82111761034157604052565b61030f565b6020810190811067ffffffffffffffff82111761034157604052565b610100810190811067ffffffffffffffff82111761034157604052565b90601f8019910116810190811067ffffffffffffffff82111761034157604052565b60005b8381106103b45750506000910152565b81810151838201526020016103a4565b604091602082526103e481518092816020860152602086860191016103a1565b601f01601f1916010190565b346101ee576000806003193601126104d2576040519080601454610413816102d5565b808552916001918083169081156104a8575060011461044d575b6104498561043d8187038261037f565b604051918291826103c4565b0390f35b9250601483527fce6d7b5282bd9a3661ae061feed1dbda4e52ab073b1f9285be6e155d9c38d4ec5b82841061049057505050810160200161043d8261044961042d565b80546020858701810191909152909301928101610475565b8695506104499693506020925061043d94915060ff191682840152151560051b820101929361042d565b80fd5b346101ee5760003660031901126101ee57602047604051908152f35b346101ee5760203660031901126101ee5760043561050e816101dd565b6105166126dc565b156102ab5761052433612761565b8015610575575b1561026d576001600160a01b039061054660155415156113ec565b61054e61186b565b1661055a811515611cb5565b6001600160a01b031960125416176012556001601155600080f35b50336001600160a01b03600554161461052b565b346101ee576020806003193601126101ee576106086004356105aa816101dd565b6001600160a01b038060025416906040519216848301528382526105cd82610325565b604051906105da82610325565b601182527f69735369676e6572286164647265737329000000000000000000000000000000858301526128f7565b919080610666575b1561063c57818161062a92610449945183010191016126c7565b60405190151581529081906020820190565b60046040517f3204506f000000000000000000000000000000000000000000000000000000008152fd5b5080825114610610565b346101ee5760003660031901126101ee576001600160a01b0360015416330361026d5760001942014281116106a457601655005b611531565b346101ee5760003660031901126101ee57610016612001565b346101ee5760003660031901126101ee5760206001600160a01b0360005416604051908152f35b346101ee576020806003193601126101ee5761070a60ff60185416156113a1565b61071760155415156113ec565b6001546001600160a01b03919082163381900361026d576004546001600160a01b03169161078761078360405180610761868683019190916001600160a01b036020820193169052565b0395610775601f199788810184528361037f565b61077d61144a565b906129db565b1590565b61026d57600492816107b06107a46000546001600160a01b031690565b6001600160a01b031690565b604051958680927f447aa3040000000000000000000000000000000000000000000000000000000082525afa9081156108c25761082f94600092610891575b50610821919261081560405195869283019190916001600160a01b036020820193169052565b0390810184528361037f565b6108296114a7565b9061298a565b90811615159081610886575b508015610852575b61026d57610016600435611547565b5061088161078361086b6013546001600160a01b031690565b6108736114e0565b61087b611437565b916129db565b610843565b90503115153861083b565b61082192506108b590843d86116108bb575b6108ad818361037f565b810190611483565b916107ef565b503d6108a3565b61149b565b346101ee5760003660031901126101ee5760206001600160a01b0360125416604051908152f35b801515036101ee57565b346101ee5760203660031901126101ee57600435610915816108ee565b61092260155415156113ec565b61092a6126dc565b156102ab5761093833612761565b8015610959575b1561026d5760ff8019601854169115151617601855600080f35b50336001600160a01b03600554161461093f565b60003660031901126101ee5761098161186b565b601554610c1257610990612001565b600a546001600160a01b03166001546001600160a01b031690604051916109ec602093806109d0848783019190916001600160a01b036020820193169052565b03936109e4601f199586810184528361037f565b6108296118a6565b906001600160a01b03821615610b5f575091610abb7f4ef260a90000000000000000000000000000000000000000000000000000000092610b0f610aee610b0a610ace610ac07f3baee0ea00000000000000000000000000000000000000000000000000000000610b539a610abb8a610aaf610a706004546001600160a01b031690565b93610a836001546001600160a01b031690565b604051938401969096526001600160a01b03908116602484015290941660448201529283906064820190565b0389810184528361037f565b612a9f565b8780825183010191016118fb565b939091936001600160a01b03166001600160a01b03196012541617601255565b6001600160a01b03166001600160a01b03196013541617601355565b601555565b600a546001600160a01b031692610815610b316001546001600160a01b031690565b604051968793840152602483019190916001600160a01b036020820193169052565b505b6100166001601155565b610bee915092610be1610c0d94610b0a94610abb610b856004546001600160a01b031690565b91610b986012546001600160a01b031690565b6040517fb1c4907900000000000000000000000000000000000000000000000000000000888201526001600160a01b039182166024820152941660448501528360648101610815565b80518101820191016118df565b9190916001600160a01b03166001600160a01b03196013541617601355565b610b55565b606460405162461bcd60e51b815260206004820152601660248201527f6d652e616c72656164792e696e697469616c697a6564000000000000000000006044820152fd5b346101ee5760003660031901126101ee5760206001600160a01b0360015416604051908152f35b346101ee5760203660031901126101ee57610016600435611764565b346101ee5760003660031901126101ee576020610d066001600160a01b0360065416604051610cc781610325565b601381527f67657464656c656761746f72436f756e742829000000000000000000000000008482015260405191610cfd83610346565b60008352612a17565b604051908152f35b60809060031901126101ee57600435610d26816101dd565b90602435906044359060643590565b610d3e36610d0e565b610d4b60155415156113ec565b610d5a60ff60185416156113a1565b610d62611925565b610d6a61186b565b60018103610ebc5750610d84610d7f84612761565b611c3e565b34610d97575b5050506100166001601155565b610abb610eb393610e3e610db4610dad34611c89565b6064900490565b610e2d610dcb610dc334611c9f565b6103e8900490565b610e1c610dda610dc334611c9f565b93610e0b610df586610df086610df086346115ec565b6115ec565b600b546001600160a01b031661286d565b61286d565b600d546001600160a01b031661286d565b600e546001600160a01b031661286d565b600f546001600160a01b031661286d565b610ea5610e536004546001600160a01b031690565b9360155490604051968794636e59fe2560e11b6020870152349360248701919360a0936001600160a01b036001969897939860c086019986521660208501526040840152606083015260808201520152565b03601f19810184528361037f565b50388080610d8a565b91925050600714610ece575b50610b55565b610ed790611b0c565b38610ec8565b346101ee5760203660031901126101ee576020610f04600435610eff816101dd565b612761565b6040519015158152f35b346101ee5760003660031901126101ee576020601554604051908152f35b346101ee5760003660031901126101ee5760206001600160a01b0360135416604051908152f35b346101ee5760203660031901126101ee57600435610f6f6126dc565b156102ab576001600160a01b0360055416330361026d5760009060046020610fa16107a485546001600160a01b031690565b604051928380927f46f991ac0000000000000000000000000000000000000000000000000000000082525afa80156108c25783808481949382948391611043575b505af1610fed61283d565b501561063c577fcdcc745fe377b103b45fa0cec23ae3ef93d6fc6a84a01f0d18c40b354dd1d5d861103d61102c6107a4600b546001600160a01b031690565b604051938452929081906020820190565b0390a280f35b61105b915060203d81116108bb576108ad818361037f565b38610fe2565b61106a36610d0e565b61107b6015949392945415156113ec565b6110836126dc565b156102ab5761109133612761565b801561113d575b1561026d576110a561186b565b6110ad6126dc565b156102ab576110bb33612761565b8015611129575b1561026d57610b53936110d7610d7f85612761565b6001600160a01b03928360045416936015549560405196636e59fe2560e11b602089015260248801521660448601526064850152608484015260a4830152600060c483015260c48252610abb82610362565b50336001600160a01b0360055416146110c2565b50336001600160a01b036005541614611098565b60405190610300820182811067ffffffffffffffff82111761034157604052565b604051906101e0820182811067ffffffffffffffff82111761034157604052565b67ffffffffffffffff811161034157601f01601f191660200190565b346101ee5760203660031901126101ee5760043567ffffffffffffffff81116101ee57366023820112156101ee5780600401356111eb81611193565b906111f9604051928361037f565b80825236602482850101116101ee5760208160009260246100169601838601378301015261195b565b346101ee5760203660031901126101ee5760043561123f816101dd565b803b600061124c82611193565b9261125a604051948561037f565b82845260208401903c602d81511061127e57602a602091015160601c604051908152f35b60046040517fbaf3f0f7000000000000000000000000000000000000000000000000000000008152fd5b346101ee5760003660031901126101ee57602060ff601854166040519015158152f35b346101ee5760003660031901126101ee5760206016544210604051908152f35b346101ee5760203660031901126101ee576020610f0460043561130d816101dd565b6001600160a01b0380600654169060405192168483015283825261133082610325565b6040519061133d82610325565b601882527f697364656c656761746f724e6f64652861646472657373290000000000000000858301526129db565b346101ee5760003660031901126101ee576020610f046126dc565b346101ee5760003660031901126101ee576020610d066127eb565b156113a857565b606460405162461bcd60e51b815260206004820152601260248201527f6d652e696e76616c69642e73746f7070656400000000000000000000000000006044820152fd5b156113f357565b606460405162461bcd60e51b815260206004820152600f60248201527f6d652e696e76616c69642e696e697400000000000000000000000000000000006044820152fd5b6040519061144482610346565b60008252565b6040519061145782610325565b601582527f69735573657245786973747328616464726573732900000000000000000000006020830152565b908160209103126101ee5751611498816101dd565b90565b6040513d6000823e3d90fd5b604051906114b482610325565b601382527f55736572546f496e7374286164647265737329000000000000000000000000006020830152565b604051906114ed82610325565b600a82527f706f7374496e69742829000000000000000000000000000000000000000000006020830152565b60405161152581610346565b60008152906000368137565b634e487b7160e01b600052601160045260246000fd5b61159b6001600160a01b036003541661155e611519565b906040519061156c82610325565b601382527f73657373696f6e54544c5365636f6e64732829000000000000000000000000006020830152612a17565b4201908142116106a4576115b191601655611764565b565b604051906115c082610325565b600682527f64616765282900000000000000000000000000000000000000000000000000006020830152565b919082039182116106a457565b6040519061160682610325565b601a82527f676574546f67676c65416765436f756e742875696e74323536290000000000006020830152565b51906115b1826108ee565b90816103009103126101ee57611651611151565b90805182526020810151602083015260408101516040830152606081015160608301526080810151608083015260a081015160a083015260c081015160c083015260e081015160e0830152610100808201519083015261012080820151908301526101408082015190830152610160808201519083015261018080820151908301526101a080820151908301526101c080820151908301526101e08082015190830152610200808201519083015261022080820151908301526102408082015190830152610260808201519083015261028080820151908301526102a0611739818301611632565b908301526102c061174b818301611632565b9083015261175d6102e0809201611632565b9082015290565b6117906117796013546001600160a01b031690565b611781611519565b9061178a6115b3565b90612a17565b61179c82610df06127eb565b11611862576013546001600160a01b03166040519060016117ec836117ca60208201906103e7602083019252565b03936117de601f199586810183528261037f565b6117e66115f9565b84612a17565b16156117f757505050565b61185461184561185b936102a093610abb604051927fb9f1a394000000000000000000000000000000000000000000000000000000006020850152836108158a602483019190602083019252565b6020808251830101910161163d565b0151151590565b6118625750565b6115b190611b0c565b60026011541461187c576002601155565b60046040517f3ee5aeb5000000000000000000000000000000000000000000000000000000008152fd5b604051906118b382610325565b601e82527f7265736f6c76655472616e7366657254617267657428616464726573732900006020830152565b91908260409103126101ee5760208251920151611498816101dd565b908160609103126101ee5780519160406020830151611919816101dd565b920151611498816101dd565b60165442101561193157565b60046040517f1fd05a4a000000000000000000000000000000000000000000000000000000008152fd5b61196860155415156113ec565b611970611925565b61197f60ff60185416156113a1565b6119876126dc565b156102ab576001906001600160a01b03825416330361026d5780519067ffffffffffffffff8211610341576119c6826119c16014546102d5565b611a85565b60209081601f8411600114611a0357509282939183926000946119f8575b50501b916000199060031b1c191617601455565b0151925038806119e4565b6014600052919083601f1981167fce6d7b5282bd9a3661ae061feed1dbda4e52ab073b1f9285be6e155d9c38d4ec946000905b88838310611a6b5750505010611a52575b505050811b01601455565b015160001960f88460031b161c19169055388080611a47565b858701518855909601959485019487935090810190611a36565b601f8111611a91575050565b600090601482527fce6d7b5282bd9a3661ae061feed1dbda4e52ab073b1f9285be6e155d9c38d4ec906020601f850160051c83019410611aec575b601f0160051c01915b828110611ae157505050565b818155600101611ad5565b9092508290611acc565b91908260409103126101ee576020825192015190565b611b6e611b7d91611b256004546001600160a01b031690565b6015546040517f6a81124400000000000000000000000000000000000000000000000000000000602082015260248101919091526044810192909252610abb8260648101610ea5565b60208082518301019101611af6565b611b9382610e066001546001600160a01b031690565b6001546001600160a01b03169160405180611bf47f992e981f1f6d8cb3a32ce3b31107393c58fbd9a9052cb415a19d578833bf80d695869442918460609194936000936001600160a01b036080840197168352602083015260408201520152565b0390a1611c0d81610e06600c546001600160a01b031690565b600c54604080516001600160a01b0390921682526020820192909252429181019190915260006060820152608090a1565b15611c4557565b606460405162461bcd60e51b815260206004820152601360248201527f6d652e756e7365637572652e4f524331313535000000000000000000000000006044820152fd5b906015820291808304601514901517156106a457565b90602d820291808304602d14901517156106a457565b15611cbc57565b606460405162461bcd60e51b815260206004820152600f60248201527f6d652e7a65726f2e6164647265737300000000000000000000000000000000006044820152fd5b611fe56101c06115b192611d3a611d1e82516001600160a01b031690565b6001600160a01b03166001600160a01b03196002541617600255565b611d6d611d5160208301516001600160a01b031690565b6001600160a01b03166001600160a01b03196003541617600355565b611da0611d8460408301516001600160a01b031690565b6001600160a01b03166001600160a01b03196004541617600455565b611dd3611db760608301516001600160a01b031690565b6001600160a01b03166001600160a01b03196005541617600555565b611e06611dea60808301516001600160a01b031690565b6001600160a01b03166001600160a01b03196006541617600655565b611e39611e1d60a08301516001600160a01b031690565b6001600160a01b03166001600160a01b03196007541617600755565b611e6c611e5060c08301516001600160a01b031690565b6001600160a01b03166001600160a01b03196008541617600855565b611e9f611e8360e08301516001600160a01b031690565b6001600160a01b03166001600160a01b03196009541617600955565b611ed3611eb76101008301516001600160a01b031690565b6001600160a01b03166001600160a01b0319600a541617600a55565b611f07611eeb6101208301516001600160a01b031690565b6001600160a01b03166001600160a01b0319600b541617600b55565b611f3b611f1f6101408301516001600160a01b031690565b6001600160a01b03166001600160a01b0319600c541617600c55565b611f6f611f536101608301516001600160a01b031690565b6001600160a01b03166001600160a01b0319600d541617600d55565b611fa3611f876101808301516001600160a01b031690565b6001600160a01b03166001600160a01b0319600e541617600e55565b611fd7611fbb6101a08301516001600160a01b031690565b6001600160a01b03166001600160a01b0319600f541617600f55565b01516001600160a01b031690565b6001600160a01b03166001600160a01b03196010541617601055565b6120166107a46000546001600160a01b031690565b604051907f97f3815a000000000000000000000000000000000000000000000000000000008252602082600481845afa9182156108c2576000926126a6575b50604051917fcfbffe53000000000000000000000000000000000000000000000000000000008352602083600481855afa9283156108c257600093612685575b50604051907fab6e844f000000000000000000000000000000000000000000000000000000008252602082600481865afa9182156108c257600092612664575b50604051917f14d8d024000000000000000000000000000000000000000000000000000000008352602083600481875afa9283156108c257600093612643575b50604051927fd1f956b1000000000000000000000000000000000000000000000000000000008452602084600481885afa9384156108c257600094612622575b50604051937fe61dfd58000000000000000000000000000000000000000000000000000000008552602085600481895afa9485156108c257600095612601575b506040517fe09d394d0000000000000000000000000000000000000000000000000000000081526020816004818a5afa9081156108c2576000916125e2575b506040517f52b06d640000000000000000000000000000000000000000000000000000000081526020816004818b5afa9081156108c2576000916125c3575b506040517f013cf08b00000000000000000000000000000000000000000000000000000000815260006004820152916020836024818c5afa9283156108c2576000936125a2575b50604051977f5e09dbe70000000000000000000000000000000000000000000000000000000089526020896004818d5afa9485156108c257600499600096612581575b5060208b6040519b8c80927faa0ddc160000000000000000000000000000000000000000000000000000000082525afa9687156108c25760049a600098612560575b5060208c6040519c8d80927f640274270000000000000000000000000000000000000000000000000000000082525afa9889156108c25760049b60009a61253f575b5060208d6040519d8e80927f30125cf50000000000000000000000000000000000000000000000000000000082525afa9a8b156108c2578d60049d60009d61251d575b506020906040519e8f80927f24768d910000000000000000000000000000000000000000000000000000000082525afa9c8d156108c25760009d6124fc575b50604051809e81907f9dc969a80000000000000000000000000000000000000000000000000000000082525a92600491602094fa9d8e156108c25760009e6124db575b506123ef611172565b6001600160a01b0390911681529d8e906001600160a01b031660208201526040019061242391906001600160a01b03169052565b6001600160a01b031660608d01526001600160a01b031660808c01526001600160a01b031660a08b01526001600160a01b031660c08a01526001600160a01b031660e08901526001600160a01b03166101008801526001600160a01b03166101208701526001600160a01b03166101408601526001600160a01b03166101608501526001600160a01b03166101808401526001600160a01b03166101a08301526001600160a01b03166101c08201526115b190611d00565b6124f5919e5060203d6020116108bb576108ad818361037f565b9c386123e6565b612516919d5060203d6020116108bb576108ad818361037f565b9b386123a3565b6020919d5061253890823d84116108bb576108ad818361037f565b9c90612364565b612559919a5060203d6020116108bb576108ad818361037f565b9838612321565b61257a91985060203d6020116108bb576108ad818361037f565b96386122df565b61259b91965060203d6020116108bb576108ad818361037f565b943861229d565b6125bc91935060203d6020116108bb576108ad818361037f565b913861225a565b6125dc915060203d6020116108bb576108ad818361037f565b38612213565b6125fb915060203d6020116108bb576108ad818361037f565b386121d4565b61261b91955060203d6020116108bb576108ad818361037f565b9338612195565b61263c91945060203d6020116108bb576108ad818361037f565b9238612155565b61265d91935060203d6020116108bb576108ad818361037f565b9138612115565b61267e91925060203d6020116108bb576108ad818361037f565b90386120d5565b61269f91935060203d6020116108bb576108ad818361037f565b9138612095565b6126c091925060203d6020116108bb576108ad818361037f565b9038612055565b908160209103126101ee5751611498816108ee565b6127376001600160a01b03600254166040516126f781610325565b600881527f697353616665282900000000000000000000000000000000000000000000000060208201526040519161272e83610346565b600083526128f7565b9080612756575b1561063c5780602080611498935183010191016126c7565b50602081511461273e565b6127c46001600160a01b03806002541660405191602094168483015283825261278982610325565b6040519061279682610325565b601582527f6973536563757265426173652861646472657373290000000000000000000000858301526128f7565b90806127e1575b1561063c578161149892825183010191016126c7565b50818151146127cb565b6114986001600160a01b036003541660405161280681610325565b600681527f6941676528290000000000000000000000000000000000000000000000000000602082015260405191610cfd83610346565b3d15612868573d9061284e82611193565b9161285c604051938461037f565b82523d6000602084013e565b606090565b9080156128f3576001600160a01b0382169182156128c957600080808481945af161289661283d565b501561063c5760207fcec1f18c3ab8ddaaa107a1591e3c369667eec613626611a8deaedef43069fcdd91604051908152a2565b60046040517fe6c4247b000000000000000000000000000000000000000000000000000000008152fd5b5050565b803b15612971576000927fffffffff000000000000000000000000000000000000000000000000000000008360208695519101201690612961602460405180936020820195865261295181518092602086860191016103a1565b810103600481018452018261037f565b51915afa61296d61283d565b9091565b50505060009060405161298381610346565b6000815290565b9291612998916000946128f7565b90806129d0575b6129a65750565b9091506020818051810103126101ee5760206001600160a01b039101516129cc816101dd565b1690565b50602081511461299f565b92916129e9916000946128f7565b9080612a0c575b6129f75750565b611498919250602080825183010191016126c7565b5060208151146129f0565b9291612a25916000946128f7565b9080612a4a575b612a335750565b9091506020818051810103126101ee576020015190565b506020815114612a2c565b90602082519201517fffffffff00000000000000000000000000000000000000000000000000000000908181169360048110612a9057505050565b60040360031b82901b16169150565b6001600160a01b038116156128c957600080918351908260208601915af190612ac661283d565b9115612ad0575090565b805160009190600411612b4c57612ae79150612a55565b815115612af75750805190602001fd5b6040517f21c09d340000000000000000000000000000000000000000000000000000000081527fffffffff00000000000000000000000000000000000000000000000000000000919091166004820152602490fd5b50612ae756fea26469706673582212201e8f65dc56e7fb0c04efe115da142dcd87e9c71d2c5663ef28a66a98be94a1b964736f6c6343000814003360803461009257601f61170938819003918201601f19168301916001600160401b038311848410176100975780849260209460405283398101031261009257516001600160a01b038116908190036100925780156100805760018060a01b031933816001541617600155600054161760005560405161165b90816100ae8239f35b60405163e6c4247b60e01b8152600490fd5b600080fd5b634e487b7160e01b600052604160045260246000fdfe60806040526004361015610018575b361561001657005b005b60003560e01c806312065fe0146100e85780631f185d16146100e3578063339459a6146100de5780633b9b7955146100d95780638da5cb5b146100d4578063a1f7f539146100cf578063a9059cbb146100ca578063af484526146100c5578063b90306ad146100c0578063c54e44b0146100bb578063e01ad5fd146100b6578063e0a9bc2b146100b15763fdc10bc90361000e57610e1e565b610e03565b610d38565b610cb2565b610b82565b610b51565b6109a7565b610932565b61090b565b6108e4565b610205565b61011a565b3461010457600036600319011261010457602047604051908152f35b600080fd5b6001600160a01b0381160361010457565b34610104576020806003193601126101045761019960043561013b81610109565b6001600160a01b0380600254169060405192168483015283825261015e82610eb1565b6040519061016b82610eb1565b601182527f69735369676e65722861646472657373290000000000000000000000000000008583015261143c565b9190806101fb575b156101d15781816101bb926101cd94518301019101611274565b60405190151581529081906020820190565b0390f35b60046040517f3204506f000000000000000000000000000000000000000000000000000000008152fd5b50808251146101a1565b346101045760003660031901126101045761023761022b6000546001600160a01b031690565b6001600160a01b031690565b604051907f97f3815a000000000000000000000000000000000000000000000000000000008252602082600481845afa918215610714576000926108c3575b50604051917fcfbffe53000000000000000000000000000000000000000000000000000000008352602083600481855afa928315610714576000936108a2575b50604051907fab6e844f000000000000000000000000000000000000000000000000000000008252602082600481865afa91821561071457600092610881575b50604051917f14d8d024000000000000000000000000000000000000000000000000000000008352602083600481875afa92831561071457600093610860575b50604051927fd1f956b1000000000000000000000000000000000000000000000000000000008452602084600481885afa9384156107145760009461083f575b50604051937fe61dfd58000000000000000000000000000000000000000000000000000000008552602085600481895afa9485156107145760009561081e575b506040517fe09d394d0000000000000000000000000000000000000000000000000000000081526020816004818a5afa908115610714576000916107ff575b506040517f52b06d640000000000000000000000000000000000000000000000000000000081526020816004818b5afa908115610714576000916107e0575b506040517f013cf08b00000000000000000000000000000000000000000000000000000000815260006004820152916020836024818c5afa928315610714576000936107bf575b5060405197635e09dbe760e01b89526020896004818d5afa9485156107145760049960009661079e575b5060208b6040519b8c80927faa0ddc160000000000000000000000000000000000000000000000000000000082525afa9687156107145760049a60009861077d575b5060208c6040519c8d80927f640274270000000000000000000000000000000000000000000000000000000082525afa9889156107145760049b60009a61075c575b5060208d6040519d8e80927f30125cf50000000000000000000000000000000000000000000000000000000082525afa9a8b15610714578d60049d60009d61073a575b506020906040519e8f80927f24768d910000000000000000000000000000000000000000000000000000000082525afa9c8d156107145760009d610719575b50604051809e81907f9dc969a80000000000000000000000000000000000000000000000000000000082525a92600491602094fa9d8e156107145760009e6106e3575b506105f7610f34565b6001600160a01b0390911681529d8e906001600160a01b031660208201526040019061062b91906001600160a01b03169052565b6001600160a01b031660608d01526001600160a01b031660808c01526001600160a01b031660a08b01526001600160a01b031660c08a01526001600160a01b031660e08901526001600160a01b03166101008801526001600160a01b03166101208701526001600160a01b03166101408601526001600160a01b03166101608501526001600160a01b03166101808401526001600160a01b03166101a08301526001600160a01b03166101c082015261001690610f55565b610706919e5060203d60201161070d575b6106fe8183610eee565b810190610f10565b9c386105ee565b503d6106f4565b610f28565b610733919d5060203d60201161070d576106fe8183610eee565b9b386105ab565b6020919d5061075590823d841161070d576106fe8183610eee565b9c9061056c565b610776919a5060203d60201161070d576106fe8183610eee565b9838610529565b61079791985060203d60201161070d576106fe8183610eee565b96386104e7565b6107b891965060203d60201161070d576106fe8183610eee565b94386104a5565b6107d991935060203d60201161070d576106fe8183610eee565b913861047b565b6107f9915060203d60201161070d576106fe8183610eee565b38610434565b610818915060203d60201161070d576106fe8183610eee565b386103f5565b61083891955060203d60201161070d576106fe8183610eee565b93386103b6565b61085991945060203d60201161070d576106fe8183610eee565b9238610376565b61087a91935060203d60201161070d576106fe8183610eee565b9138610336565b61089b91925060203d60201161070d576106fe8183610eee565b90386102f6565b6108bc91935060203d60201161070d576106fe8183610eee565b91386102b6565b6108dd91925060203d60201161070d576106fe8183610eee565b9038610276565b346101045760003660031901126101045760206001600160a01b0360005416604051908152f35b346101045760003660031901126101045760206001600160a01b0360015416604051908152f35b3461010457600036600319011261010457602061099f6001600160a01b036006541660405161096081610eb1565b601381527f67657464656c656761746f72436f756e74282900000000000000000000000000848201526040519161099683610ed2565b600083526114ea565b604051908152f35b60408060031936011261010457600435906109c182610109565b602435916001600160a01b0391828216928315610b41576109e061128c565b15610b31576109ee33611311565b908115610b23575b5015610b135783804710610a3c575b610a30907f1e70cf59d0c7a20c88704bfce5a47e636dfa577ebf52a7166641741cef343661936113cb565b519283523392602090a3005b5060046020610a5661022b6000546001600160a01b031690565b835192838092635e09dbe760e01b82525afa8015610714577f1e70cf59d0c7a20c88704bfce5a47e636dfa577ebf52a7166641741cef34366193610aeb8792610a3094600091610af5575b5085517fa9059cbb0000000000000000000000000000000000000000000000000000000060208201523060248201526044808201869052815290610ae6606483610eee565b611572565b5093509050610a05565b610b0d915060203d811161070d576106fe8183610eee565b38610aa1565b6004905163ea8e4eb560e01b8152fd5b6005541633149050386109f6565b60048251634ee2123760e11b8152fd5b6004825163e6c4247b60e01b8152fd5b34610104576020366003190112610104576020610b78600435610b7381610109565b611311565b6040519015158152f35b3461010457602036600319011261010457600435610b9e61128c565b15610ca1576001600160a01b03600554163303610c905760009060046020610bd061022b85546001600160a01b031690565b604051928380927f46f991ac0000000000000000000000000000000000000000000000000000000082525afa80156107145783808481949382948391610c72575b505af1610c1c61139b565b50156101d1577fcdcc745fe377b103b45fa0cec23ae3ef93d6fc6a84a01f0d18c40b354dd1d5d8610c6c610c5b61022b600b546001600160a01b031690565b604051938452929081906020820190565b0390a280f35b610c8a915060203d811161070d576106fe8183610eee565b38610c11565b600460405163ea8e4eb560e01b8152fd5b6004604051634ee2123760e11b8152fd5b3461010457602036600319011261010457600435610ccf81610109565b803b6000610cdc82611258565b92610cea6040519485610eee565b82845260208401903c602d815110610d0e57602a602091015160601c604051908152f35b60046040517fbaf3f0f7000000000000000000000000000000000000000000000000000000008152fd5b3461010457602080600319360112610104576101cd9060043590610d5b82610109565b610dbf6001600160a01b0392836006541693604051911683820152828152610d8281610eb1565b604051610d8e81610eb1565b601881527f697364656c656761746f724e6f646528616464726573732900000000000000008482015260009461143c565b919080610df9575b610de0575b505060405190151581529081906020820190565b610df292508082518301019101611274565b3880610dcc565b5080825114610dc7565b34610104576000366003190112610104576020610b7861128c565b3461010457600036600319011261010457602061099f6001600160a01b0360035416604051610e4c81610eb1565b600681527f6941676528290000000000000000000000000000000000000000000000000000848201526040519161099683610ed2565b7f4e487b7100000000000000000000000000000000000000000000000000000000600052604160045260246000fd5b6040810190811067ffffffffffffffff821117610ecd57604052565b610e82565b6020810190811067ffffffffffffffff821117610ecd57604052565b90601f8019910116810190811067ffffffffffffffff821117610ecd57604052565b908160209103126101045751610f2581610109565b90565b6040513d6000823e3d90fd5b604051906101e0820182811067ffffffffffffffff821117610ecd57604052565b61123a6101c061125692610f8f610f7382516001600160a01b031690565b6001600160a01b03166001600160a01b03196002541617600255565b610fc2610fa660208301516001600160a01b031690565b6001600160a01b03166001600160a01b03196003541617600355565b610ff5610fd960408301516001600160a01b031690565b6001600160a01b03166001600160a01b03196004541617600455565b61102861100c60608301516001600160a01b031690565b6001600160a01b03166001600160a01b03196005541617600555565b61105b61103f60808301516001600160a01b031690565b6001600160a01b03166001600160a01b03196006541617600655565b61108e61107260a08301516001600160a01b031690565b6001600160a01b03166001600160a01b03196007541617600755565b6110c16110a560c08301516001600160a01b031690565b6001600160a01b03166001600160a01b03196008541617600855565b6110f46110d860e08301516001600160a01b031690565b6001600160a01b03166001600160a01b03196009541617600955565b61112861110c6101008301516001600160a01b031690565b6001600160a01b03166001600160a01b0319600a541617600a55565b61115c6111406101208301516001600160a01b031690565b6001600160a01b03166001600160a01b0319600b541617600b55565b6111906111746101408301516001600160a01b031690565b6001600160a01b03166001600160a01b0319600c541617600c55565b6111c46111a86101608301516001600160a01b031690565b6001600160a01b03166001600160a01b0319600d541617600d55565b6111f86111dc6101808301516001600160a01b031690565b6001600160a01b03166001600160a01b0319600e541617600e55565b61122c6112106101a08301516001600160a01b031690565b6001600160a01b03166001600160a01b0319600f541617600f55565b01516001600160a01b031690565b6001600160a01b03166001600160a01b03196010541617601055565b565b67ffffffffffffffff8111610ecd57601f01601f191660200190565b90816020910312610104575180151581036101045790565b6112e76001600160a01b03600254166040516112a781610eb1565b600881527f69735361666528290000000000000000000000000000000000000000000000006020820152604051916112de83610ed2565b6000835261143c565b9080611306575b156101d15780602080610f2593518301019101611274565b5060208151146112ee565b6113746001600160a01b03806002541660405191602094168483015283825261133982610eb1565b6040519061134682610eb1565b601582527f69735365637572654261736528616464726573732900000000000000000000008583015261143c565b9080611391575b156101d15781610f259282518301019101611274565b508181511461137b565b3d156113c6573d906113ac82611258565b916113ba6040519384610eee565b82523d6000602084013e565b606090565b908015611438576001600160a01b03821691821561142757600080808481945af16113f461139b565b50156101d15760207fcec1f18c3ab8ddaaa107a1591e3c369667eec613626611a8deaedef43069fcdd91604051908152a2565b600460405163e6c4247b60e01b8152fd5b5050565b9190823b156114d1577fffffffff00000000000000000000000000000000000000000000000000000000815160208093012016916040519180830193845281519160005b8381106114bd5750505091816114ad60248260009795968897018783820152036004810184520182610eee565b51915afa6114b961139b565b9091565b818101830151858201602401528201611480565b5050506000906040516114e381610ed2565b6000815290565b92916114f89160009461143c565b908061151d575b6115065750565b909150602081805181010312610104576020015190565b5060208151146114ff565b90602082519201517fffffffff0000000000000000000000000000000000000000000000000000000090818116936004811061156357505050565b60040360031b82901b16169150565b6001600160a01b0381161561142757600080918351908260208601915af19061159961139b565b91156115a3575090565b80516000919060041161161f576115ba9150611528565b8151156115ca5750805190602001fd5b6040517f21c09d340000000000000000000000000000000000000000000000000000000081527fffffffff00000000000000000000000000000000000000000000000000000000919091166004820152602490fd5b506115ba56fea264697066735822122096c273ecbbace9bf313eb86edc9760ee5d3bb3a3d215160dce16e84ad6cd876964736f6c63430008140033","linkReferences":{}},"methodIdentifiers":{"instance()":"022ec095","tVLFactory()":"9ba540fb","tVLMining()":"d795ff38","tVLReward()":"b85c9faf","tVLRoyality()":"9443767c","tVLTour()":"dabf429d","tVLValidator()":"a50c0bc0"},"id":83}