{"abi":[{"type":"constructor","inputs":[{"name":"_hex","type":"address","internalType":"address"}],"stateMutability":"nonpayable"},{"type":"function","name":"instance","inputs":[],"outputs":[{"name":"","type":"address","internalType":"address"}],"stateMutability":"view"},{"type":"function","name":"tVLFactory","inputs":[],"outputs":[{"name":"","type":"address","internalType":"address"}],"stateMutability":"view"},{"type":"function","name":"tVLMining","inputs":[],"outputs":[{"name":"","type":"address","internalType":"address"}],"stateMutability":"view"}],"bytecode":{"object":"0x60803461016457601f613c3a38819003918201601f19168301926001600160401b039290918385118386101761014e57816020928492604097885283398101031261016457516001600160a01b039081811690819003610164578351906127eb91828101928184108685111761014e576102548239818352858160009485602082015203019083f09384156101445782549484166001600160a01b031995861617835585516111fb80820193918085108486111761012657602081612a3f968488833985815203019086f0801561013a578616876001541617600155875193818501938585109085111761012657916020939185938439815203019082f090811561011b5750169060025416176002555160ea908161016a8239f35b8451903d90823e3d90fd5b634e487b7160e01b86526041600452602486fd5b88513d87823e3d90fd5b85513d84823e3d90fd5b634e487b7160e01b600052604160045260246000fd5b600080fdfe6080806040526004361015601257600080fd5b600090813560e01c908163022ec09514608e575080639ba540fb1460675763d795ff3814603e57600080fd5b34606457806003193601126064576002546040516001600160a01b039091168152602090f35b80fd5b5034606457806003193601126064576001546040516001600160a01b039091168152602090f35b90503460b0578160031936011260b05790546001600160a01b03168152602090f35b5080fdfea2646970667358221220db405449f4994e23d8ff6e8acbdabb3b9369d8ab83743f85b4e2e57a7d9cd02264736f6c63430008140033608034620000c157601f620027eb38819003918201601f19168301916001600160401b03831184841017620000c6578084926040948552833981010312620000c1576200005a60206200005283620000dc565b9201620000dc565b6001600160a01b0391821691908215620000af5760018060a01b0319928360015416908460005416176000556001600d55339084331617176001551690600e541617600e556040516126f99081620000f28239f35b60405163e6c4247b60e01b8152600490fd5b600080fd5b634e487b7160e01b600052604160045260246000fd5b51906001600160a01b0382168203620000c15756fe60806040526004361015610018575b361561001657005b005b60003560e01c80630399c93c1461020857806306fdde031461020357806312065fe0146101fe578063129d99c3146101f95780631499c592146101f45780631f185d16146101ef5780631f3c99c3146101ea578063339459a6146101e557806335718f6d146101e05780633b9b7955146101db57806360f96a8f146101d6578063641657cb146101d15780638129fc1c146101cc5780638da5cb5b146101c75780639c06f470146101c25780639c75dd35146101bd578063a1f7f539146101b8578063a3e884b0146101b3578063af484526146101ae578063af640d0f146101a9578063b28175c4146101a4578063b90306ad1461019f578063c107930a1461019a578063c46b5ce614610195578063c47f002714610190578063c54e44b01461018b578063cfcf2c2d14610186578063d4ace81b14610181578063e01ad5fd1461017c578063e0a9bc2b146101775763fdc10bc90361000e57611429565b61140e565b611347565b611327565b611304565b611296565b611224565b61116a565b611019565b610f21565b610ef8565b610eda565b610ea9565b610da8565b610d17565b610cfb565b610a9b565b610a72565b6107bd565b61074d565b61071a565b6106f1565b6106c0565b6106a7565b61066e565b6105ab565b61051e565b610500565b6104e4565b610416565b61022f565b6001600160a01b031690565b6001600160a01b0381160361022a57565b600080fd5b3461022a57602036600319011261022a5760043561024c81610219565b6102546123da565b156102e9576102623361244c565b80156102d5575b156102c357601154156102b15761027e611984565b6001600160a01b0381161561029f5761029890479061253a565b6001600d55005b604051631f2cdc6960e01b8152600490fd5b6040516301b3ca9d60e41b8152600490fd5b60405163ea8e4eb560e01b8152600490fd5b506005546001600160a01b03163314610269565b604051634ee2123760e11b8152600490fd5b600091031261022a57565b90600182811c92168015610336575b602083101461032057565b634e487b7160e01b600052602260045260246000fd5b91607f1691610315565b634e487b7160e01b600052604160045260246000fd5b6001600160401b03811161036957604052565b610340565b604081019081106001600160401b0382111761036957604052565b602081019081106001600160401b0382111761036957604052565b601f909101601f19168101906001600160401b0382119082101761036957604052565b60005b8381106103da5750506000910152565b81810151838201526020016103ca565b6040916020825261040a81518092816020860152602086860191016103c7565b601f01601f1916010190565b3461022a576000806003193601126104e1576040518160105461043881610306565b808452906001908181169081156104b95750600114610472575b61046e84610462818803826103a4565b604051918291826103ea565b0390f35b60108352602094506000805160206126a48339815191525b8284106104a6575050508161046e936104629282010193610452565b805485850187015292850192810161048a565b61046e96506104629450602092508593915060ff191682840152151560051b82010193610452565b80fd5b3461022a57600036600319011261022a57602047604051908152f35b3461022a57600036600319011261022a576020601554604051908152f35b3461022a57602036600319011261022a5760043561053b81610219565b6105436123da565b156102e9576105513361244c565b8015610597575b156102c357601154156102b15761056d611984565b6001600160a01b0316801561029f57600e80546001600160a01b0319169190911790556001600d55005b506005546001600160a01b03163314610558565b3461022a5760208060031936011261022a5761061e6004356105cc81610219565b6002546040516001600160a01b039283168582015284815291166105ef8261036e565b604051906105fc8261036e565b601182527069735369676e657228616464726573732960781b858301526125a8565b919080610664575b156106525781816106409261046e94518301019101611451565b60405190151581529081906020820190565b604051633204506f60e01b8152600490fd5b5080825114610626565b3461022a57600036600319011261022a576001546001600160a01b031633036102c35760001942014281116106a257601255005b6114e5565b3461022a57600036600319011261022a5761001661203c565b3461022a57600036600319011261022a576020601654604051908152f35b6001600160a01b03909116815260200190565b3461022a57600036600319011261022a576000546040516001600160a01b039091168152602090f35b3461022a57600036600319011261022a57600e546040516001600160a01b039091168152602090f35b8015150361022a57565b3461022a57602036600319011261022a5760043561076a81610743565b601154156102b15761077a6123da565b156102e9576107883361244c565b80156107a9575b156102c35760ff8019601454169115151617601455600080f35b506005546001600160a01b0316331461078f565b6000806003193601126104e1576107d2611984565b601154610a60576107e161203c565b6107fa6107f56107f56107f560035461020d565b61020d565b60c06040918251918280926395bf75fd60e01b825260049485915afa9081156109625784908592610a2a575b50610832600a5461020d565b61087161084060015461020d565b918651906108638261085586602083016106de565b03601f1981018452836103a4565b61086b6119a7565b90612623565b926001600160a01b03841615610976575050156109675791816108ca93856108a46107f56107f56107f56060985461020d565b926108b060015461020d565b9451631dd7707560e11b81529687958694859384016119fc565b03925af19081156109625761091991839084908590610926575b600e80546001600160a01b0319166001600160a01b0390921691909117905590915061091490611a16565b611a16565b601155565b6109236001600d55565b80f35b50505061091461094f61090f9260603d811161095b575b61094781836103a4565b810190611a38565b919350839250906108e4565b503d61093d565b611469565b509051633204506f60e01b8152fd5b915092915015610a1c579180918361099a6107f56107f56107f56109c2985461020d565b90866109a7600e5461020d565b855163b1c4907960e01b8152978895869485939084016119fc565b03925af18015610962576109e492849285926109e9575b505061091490611a16565b610919565b6109149350610a0d9250803d10610a15575b610a0581836103a4565b8101906119e0565b9091386109d9565b503d6109fb565b8251633204506f60e01b8152fd5b9050610a4d915060c03d8111610a59575b610a4581836103a4565b810190611475565b50935091505038610826565b503d610a3b565b6040516304223ebf60e11b8152600490fd5b3461022a57600036600319011261022a576001546040516001600160a01b039091168152602090f35b3461022a5760408060031936011261022a57602435610ab981610743565b60ff60145416610cea5760115415610cd957610ad660015461020d565b6001600160a01b033382821614801590610cc5575b610cb45792610b2793600492610b096107f56107f58487541661020d565b908351809263509222cd60e01b8252818060209a8b958a83016106de565b03915afa90811561096257600091610c97575b5015610c5c578285610b556107f56107f585600f541661020d565b84516312995e1b60e21b815292839182905afa90811561096257600091610c6a575b5015610c5c576107f56107f5610b90926003541661020d565b9080516395bf75fd60e01b815260c0818581865afa90811561096257600091610c39575b5015610c2a575162aa4b7560e41b81529084908290849082905afa9384156109625761001694610bf792610bf292600092610bfd575b5050426114fb565b601255565b356117ae565b610c1c9250803d10610c23575b610c1481836103a4565b8101906114d6565b3880610bea565b503d610c0a565b51633204506f60e01b81529050fd5b610c51915060c03d8111610a5957610a4581836103a4565b505050505038610bb4565b505163ea8e4eb560e01b8152fd5b610c8a9150863d8811610c90575b610c8281836103a4565b810190611451565b38610b77565b503d610c78565b610cae9150863d8811610c9057610c8281836103a4565b38610b3a565b835163ea8e4eb560e01b8152600490fd5b5080610cd2600f5461020d565b1615610aeb565b81516301b3ca9d60e41b8152600490fd5b8151632100644360e11b8152600490fd5b3461022a57602036600319011261022a5761001660043561163c565b3461022a57600036600319011261022a576020610d7960018060a01b0360065416604051610d448161036e565b601381527267657464656c656761746f72436f756e74282960681b8482015260405191610d7083610389565b60008352612667565b604051908152f35b608090600319011261022a57600435610d9981610219565b90602435906044359060643590565b610db136610d81565b601192919254156102b15760ff60145416610e9757600490610dd1611a62565b610dd9611984565b60c0610def6107f56107f56107f560035461020d565b6040516395bf75fd60e01b815293849182905afa908115610962576000928392610e6e575b5060658103610e375750501561065257610e2d92611d40565b6100166001600d55565b929450925050606b1480610e67575b610e52575b5050610e2d565b1561065257610e6090611bf9565b3880610e4b565b5080610e46565b909250610e89915060c03d8111610a5957610a4581836103a4565b505050929150919038610e14565b604051632100644360e11b8152600490fd5b3461022a57602036600319011261022a576020610ed0600435610ecb81610219565b61244c565b6040519015158152f35b3461022a57600036600319011261022a576020601154604051908152f35b3461022a57600036600319011261022a57600f546040516001600160a01b039091168152602090f35b3461022a57602036600319011261022a57600435610f3d6123da565b156102e9576005546001600160a01b031633036102c35760009060046020610f686107f5855461020d565b6040516311be646b60e21b815292839182905afa80156109625783808481949382948391610feb575b505af1610f9c61250a565b5015610652577fcdcc745fe377b103b45fa0cec23ae3ef93d6fc6a84a01f0d18c40b354dd1d5d8610fe5610fd46107f5600b5461020d565b604051938452929081906020820190565b0390a280f35b61100c915060203d8111611012575b61100481836103a4565b810190611df2565b38610f91565b503d610ffa565b61102236610d81565b919092601154156102b1576110356123da565b156102e9576110433361244c565b8015611156575b156102c357611057611984565b61105f6123da565b156102e95761106d3361244c565b8015611142575b156102c3576110896110858261244c565b1590565b611130576110a16107f56107f56107f560045461020d565b9060115493823b1561022a57604051636e59fe2560e11b815260048101959095526001600160a01b039190911660248501526044840192909252606480840194909452608483019190915260a482019290925290600090829060c490829084905af1801561096257611117576100166001600d55565b8061112461112a92610356565b806102fb565b38610e2d565b60405163667313f360e11b8152600490fd5b506005546001600160a01b03163314611074565b506005546001600160a01b0316331461104a565b3461022a57604036600319011261022a5760243561118781610743565b61118f6123da565b156102e95761119d3361244c565b80156111b5575b156102c357610016906004356117ae565b506005546001600160a01b031633146111a4565b6040519061030082016001600160401b0381118382101761036957604052565b6040519061016082016001600160401b0381118382101761036957604052565b6001600160401b03811161036957601f01601f191660200190565b3461022a57602036600319011261022a576004356001600160401b03811161022a573660238201121561022a57806004013561125f81611209565b9061126d60405192836103a4565b808252366024828501011161022a57602081600092602461001696018386013783010152611a80565b3461022a57602036600319011261022a576004356112b381610219565b803b60006112c082611209565b926112ce60405194856103a4565b82845260208401903c602d8151106112f257602a602091015160601c604051908152f35b60405163baf3f0f760e01b8152600490fd5b3461022a57600036600319011261022a57602060ff601454166040519015158152f35b3461022a57600036600319011261022a5760206012544210604051908152f35b3461022a5760208060031936011261022a5761046e906004359061136a82610219565b6006546040516001600160a01b03938416838201528281529216916113ca906113928161036e565b60405161139e8161036e565b6018815277697364656c656761746f724e6f646528616464726573732960401b848201526000946125a8565b919080611404575b6113eb575b505060405190151581529081906020820190565b6113fd92508082518301019101611451565b38806113d7565b50808251146113d2565b3461022a57600036600319011261022a576020610ed06123da565b3461022a57600036600319011261022a576020610d796124cd565b519061144f82610743565b565b9081602091031261022a575161146681610743565b90565b6040513d6000823e3d90fd5b91908260c091031261022a57815161148c81610743565b91602081015161149b81610743565b9160408201516114aa81610743565b9160608101516114b981610743565b9160a060808301516114ca81610743565b92015161146681610743565b9081602091031261022a575190565b634e487b7160e01b600052601160045260246000fd5b919082018092116106a257565b919082039182116106a257565b908161030091031261022a576115296111c9565b90805182526020810151602083015260408101516040830152606081015160608301526080810151608083015260a081015160a083015260c081015160c083015260e081015160e0830152610100808201519083015261012080820151908301526101408082015190830152610160808201519083015261018080820151908301526101a080820151908301526101c080820151908301526101e08082015190830152610200808201519083015261022080820151908301526102408082015190830152610260808201519083015261028080820151908301526102a0611611818301611444565b908301526102c0611623818301611444565b908301526116356102e0809201611444565b9082015290565b6116506107f56107f56107f5600f5461020d565b604051809163725b6fff60e01b825281600460209485935afa90811561096257600091611791575b5061168a836116856124cd565b611508565b11611787576116a36107f56107f56107f5600f5461020d565b60405163143ec3b760e01b81526103e760048201529091908181602481865afa9081156109625760019260009261176a575b505016156116e1575050565b604051632e7c68e560e21b815260048101839052610300918290829060249082905afa9182156109625761172d926102a0926117269260009261173d575b5050611863565b0151151590565b6117345750565b61144f90611bf9565b61175c9250803d10611763575b61175481836103a4565b810190611515565b388061171f565b503d61174a565b6117809250803d10610c2357610c1481836103a4565b38806116d5565b5061144f90611bf9565b6117a89150823d8411610c2357610c1481836103a4565b38611678565b9061163c5750565b5050565b6117c26111c9565b9060008083528060208401528060408401528060608401528060808401528060a08401528060c08401528060e08401528061010084015280610120840152806101408401528061016084015280610180840152806101a0840152806101c0840152806101e08401528061020084015280610220840152806102408401528061026084015280610280840152806102a0840152806102c08401526102e0830152565b9061144f61186f6117ba565b92805184526020810151602085015260408101516040850152606081015160608501526080810151608085015260a081015160a085015260c081015160c085015260e081015160e0850152610100808201519085015261012080820151908501526101408082015190850152610160808201519085015261018080820151908501526101a080820151908501526101c080820151908501526101e08082015190850152610200808201519085015261022080820151908501526102408082015190850152610260808201519085015261028080820151908501526119636102a061195b81840151151590565b151590860152565b6119756102c061195b81840151151590565b6102e090810151151590840152565b6002600d5414611995576002600d55565b604051633ee5aeb560e01b8152600490fd5b604051906119b48261036e565b601e82527f7265736f6c76655472616e7366657254617267657428616464726573732900006020830152565b919082604091031261022a576020825192015161146681610219565b6001600160a01b0391821681529116602082015260400190565b600f80546001600160a01b0319166001600160a01b0392909216919091179055565b9081606091031261022a5780519160406020830151611a5681610219565b92015161146681610219565b601254421015611a6e57565b604051630fe82d2560e11b8152600490fd5b601154156102b157611a90611a62565b60ff60145416610e9757611aa26123da565b156102e957600180549091906001600160a01b031633036102c3578051906001600160401b03821161036957611ae282611add601054610306565b611b8f565b60209081601f8411600114611b1f5750928293918392600094611b14575b50501b916000199060031b1c191617601055565b015192503880611b00565b6010600052919083601f1981166000805160206126a4833981519152946000905b88838310611b755750505010611b5c575b505050811b01601055565b015160001960f88460031b161c19169055388080611b51565b858701518855909601959485019487935090810190611b40565b601f8111611b9b575050565b6000906010825260208220906020601f850160051c83019410611bd9575b601f0160051c01915b828110611bce57505050565b818155600101611bc2565b9092508290611bb9565b919082604091031261022a576020825192015190565b6040611c4091611c136107f56107f56107f560045461020d565b60115460008451809681958294631aa0449160e21b84526004840160209093929193604081019481520152565b03925af18015610962577f651be9e06b82f2bfd92524ddb5eab4f5bce9aec2963c2417fa0337eb9cdd65ee916000908192611d0f575b5080611ce7575b81611cba575b611cb5611c8e6124cd565b60408051308152602081019490945283019390935260608201929092529081906080820190565b0390a1565b611cce82611cc9600c5461020d565b61253a565b611ce2611cdd836016546114fb565b601655565b611c83565b611cf681611cc960015461020d565b611d0a611d05826015546114fb565b601555565b611c7d565b9050611d32915060403d8111611d39575b611d2a81836103a4565b810190611be3565b9038611c76565b503d611d20565b9091611d4e6110858361244c565b6111305734611d5c57505050565b611d6b34611cc9600b5461020d565b611d7f6107f56107f56107f560045461020d565b60115493813b1561022a57604051636e59fe2560e11b815260048101959095526001600160a01b0393909316602485015260448401929092526064830152346084830152606560a4830152600090829060c490829084905af1801561096257611de55750565b8061112461144f92610356565b9081602091031261022a575161146681610219565b6001600160a01b039091169052565b61201a61014061144f92611e4f611e2d825161020d565b600280546001600160a01b0319166001600160a01b0392909216919091179055565b611e81611e5f602083015161020d565b600380546001600160a01b0319166001600160a01b0392909216919091179055565b611eb3611e91604083015161020d565b600480546001600160a01b0319166001600160a01b0392909216919091179055565b611ee5611ec3606083015161020d565b600580546001600160a01b0319166001600160a01b0392909216919091179055565b611f17611ef5608083015161020d565b600680546001600160a01b0319166001600160a01b0392909216919091179055565b611f49611f2760a083015161020d565b600780546001600160a01b0319166001600160a01b0392909216919091179055565b611f7b611f5960c083015161020d565b600880546001600160a01b0319166001600160a01b0392909216919091179055565b611fad611f8b60e083015161020d565b600980546001600160a01b0319166001600160a01b0392909216919091179055565b611fe0611fbe61010083015161020d565b600a80546001600160a01b0319166001600160a01b0392909216919091179055565b612013611ff161012083015161020d565b600b80546001600160a01b0319166001600160a01b0392909216919091179055565b015161020d565b600c80546001600160a01b0319166001600160a01b0392909216919091179055565b600061204b6107f5825461020d565b60408051634bf9c0ad60e11b8152929190600490602080868481875afa9586156109625785966123bb575b50815163cfbffe5360e01b81529181838581885afa92831561096257869361239c575b50805163ab6e844f60e01b815282818681895afa90811561096257879161237f575b508151630536340960e21b8152838187818a5afa908115610962578891612362575b50825163d1f956b160e01b815291848388818b5afa928315610962578993612343575b508351631cc3bfab60e31b815293858589818c5afa948515610962578a95612324575b50805163e09d394d60e01b81529686888a818d5afa9687156109625789988c98612305575b5082516314ac1b5960e21b81529881908a90818e5afa988915610962578c996122e6575b5082519963013cf08b60e01b8b52818b8d8180612190868201906000602083019252565b03915afa9a8b15610962578d9b6122c7575b508351635e09dbe760e01b81529b828d8381845afa9c8d15610962578e9d6122a6575b508290855192838092635506ee0b60e11b82525afa9c8d15610962579c612287575b506121f06111e9565b9c6121fb908e611e07565b8c019061220791611e07565b8a019061221391611e07565b6122209060608a01611e07565b61222d9060808901611e07565b61223a9060a08801611e07565b6122479060c08701611e07565b6122549060e08601611e07565b612262906101008501611e07565b612270906101208401611e07565b61227e906101408301611e07565b61144f90611e16565b8161229f929d508d3d106110125761100481836103a4565b9a386121e7565b83919d506122c090823d84116110125761100481836103a4565b9c906121c5565b6122df919b50823d84116110125761100481836103a4565b99386121a2565b816122fe929a503d8b116110125761100481836103a4565b973861216c565b8161231d9299503d8a116110125761100481836103a4565b9638612148565b61233c919550863d88116110125761100481836103a4565b9338612123565b61235b919350853d87116110125761100481836103a4565b9138612100565b6123799150843d86116110125761100481836103a4565b386120dd565b6123969150833d85116110125761100481836103a4565b386120bb565b6123b4919350823d84116110125761100481836103a4565b9138612099565b816123d39297503d88116110125761100481836103a4565b9438612076565b600254604051612422916001600160a01b0316906123f78161036e565b6008815267697353616665282960c01b60208201526040519161241983610389565b600083526125a8565b9080612441575b15610652578060208061146693518301019101611451565b506020815114612429565b6124a660018060a01b0380600254166040519160209416848301528382526124738261036e565b604051906124808261036e565b601582527469735365637572654261736528616464726573732960581b858301526125a8565b90806124c3575b1561065257816114669282518301019101611451565b50818151146124ad565b600354604051611466916001600160a01b0316906124ea8161036e565b600681526569416765282960d01b602082015260405191610d7083610389565b3d15612535573d9061251b82611209565b9161252960405193846103a4565b82523d6000602084013e565b606090565b9080156117b6576001600160a01b03821691821561259657600080808481945af161256361250a565b50156106525760207fcec1f18c3ab8ddaaa107a1591e3c369667eec613626611a8deaedef43069fcdd91604051908152a2565b60405163e6c4247b60e01b8152600490fd5b803b1561260a57600092839263ffffffff60e01b906020815191012016906125fa60246040518093602082019586526125ea81518092602086860191016103c7565b81010360048101845201826103a4565b51915afa61260661250a565b9091565b50505060009060405161261c81610389565b6000815290565b9291612631916000946125a8565b908061265c575b61263f5750565b90915060208180518101031261022a576020015161020d81610219565b506020815114612638565b9291612675916000946125a8565b9080612698575b6126835750565b611466919250602080825183010191016114d6565b50602081511461267c56fe1b6847dc741a1b0cd08d278845f9d819d87b734759afb55fe2de5cb82a9ae672a2646970667358221220f4a75a60f83c3e447b2c057ab8e365bdd161047c064ad2c04c5881fc86e97b8964736f6c6343000814003360803461009257601f6111fb38819003918201601f19168301916001600160401b038311848410176100975780849260209460405283398101031261009257516001600160a01b038116908190036100925780156100805760018060a01b031933816001541617600155600054161760005560405161114d90816100ae8239f35b60405163e6c4247b60e01b8152600490fd5b600080fd5b634e487b7160e01b600052604160045260246000fdfe60806040526004361015610018575b361561001657005b005b60003560e01c806312065fe0146100e85780631f185d16146100e3578063339459a6146100de5780633b9b7955146100d95780638da5cb5b146100d4578063a1f7f539146100cf578063a9059cbb146100ca578063af484526146100c5578063b90306ad146100c0578063c54e44b0146100bb578063e01ad5fd146100b6578063e0a9bc2b146100b15763fdc10bc90361000e57610a6c565b610a51565b61098a565b61091c565b610810565b6107df565b610676565b61060c565b6105e3565b6105ba565b6101ed565b610126565b3461010457600036600319011261010457602047604051908152f35b600080fd5b6001600160a01b031690565b6001600160a01b0381160361010457565b34610104576020806003193601126101045761019960043561014781610115565b6002546040516001600160a01b0392831685820152848152911661016a82610ace565b6040519061017782610ace565b601182527069735369676e657228616464726573732960781b85830152610f6f565b9190806101e3575b156101d15781816101bb926101cd94518301019101610dc2565b60405190151581529081906020820190565b0390f35b604051633204506f60e01b8152600490fd5b50808251146101a1565b34610104576000806003193601126105b75761021161020c8254610109565b610109565b60408051634bf9c0ad60e11b81529160049190602080858581855afa94851561047e578695610598575b50825163cfbffe5360e01b81529281848681865afa93841561047e578794610579575b50805163ab6e844f60e01b815282818781875afa90811561047e57889161055c575b508151630536340960e21b815283818881885afa90811561047e57899161053f575b50825163d1f956b160e01b81529084828981895afa91821561047e578a92610520575b508351631cc3bfab60e31b81529285848a818a5afa93841561047e578b94610501575b50845163e09d394d60e01b81529486868b818b5afa95861561047e578c966104e2575b5080516314ac1b5960e21b815298878a8c818c5afa97881561047e576103529a8e996104c3575b50808c8451809d819263013cf08b60e01b83528201906000602083019252565b03818d5afa998a1561047e578c9b8f9b6104a4575b50818451809d635e09dbe760e01b825281845afa9b8c1561047e578f9c610483575b50819084519d8e8092635506ee0b60e11b82525afa9b8c1561047e578e9c61044f575b506103b5610b50565b9c6103c0908e610b70565b8c01906103cc91610b70565b8a01906103d891610b70565b6103e59060608a01610b70565b6103f29060808901610b70565b6103ff9060a08801610b70565b61040c9060c08701610b70565b6104199060e08601610b70565b610427906101008501610b70565b610435906101208401610b70565b610443906101408301610b70565b61044c90610b7f565b80f35b81610470929d508d3d10610477575b6104688183610b09565b810190610b2c565b9a386103ac565b503d61045e565b610b44565b82919c5061049d90823d8411610477576104688183610b09565b9b90610389565b6104bc919b50823d8411610477576104688183610b09565b9938610367565b816104db929a503d8b11610477576104688183610b09565b9738610332565b6104fa919650873d8911610477576104688183610b09565b943861030b565b610519919450863d8811610477576104688183610b09565b92386102e8565b610538919250853d8711610477576104688183610b09565b90386102c5565b6105569150843d8611610477576104688183610b09565b386102a2565b6105739150833d8511610477576104688183610b09565b38610280565b610591919450823d8411610477576104688183610b09565b923861025e565b816105b09296503d8711610477576104688183610b09565b933861023b565b80fd5b34610104576000366003190112610104576000546040516001600160a01b039091168152602090f35b34610104576000366003190112610104576001546040516001600160a01b039091168152602090f35b3461010457600036600319011261010457602061066e60018060a01b036006541660405161063981610ace565b601381527267657464656c656761746f72436f756e74282960681b848201526040519161066583610aee565b60008352611006565b604051908152f35b604080600319360112610104576004359061069082610115565b602435916001600160a01b03808216929083156107ce576106af610dda565b156107bd576106bd33610e4c565b9081156107af575b501561079f57838047106106f9575b6106ed906000805160206110f883398151915293610efd565b519283523392602090a3005b506004602061070c61020c600054610109565b8351635e09dbe760e01b815292839182905afa801561047e576000805160206110f88339815191529361077787926106ed94600091610781575b50855163a9059cbb60e01b60208201523060248201526044808201869052815290610772606483610b09565b611075565b50935090506106d4565b610799915060203d8111610477576104688183610b09565b38610746565b5163ea8e4eb560e01b8152600490fd5b6005541633149050386106c5565b8151634ee2123760e11b8152600490fd5b815163e6c4247b60e01b8152600490fd5b3461010457602036600319011261010457602061080660043561080181610115565b610e4c565b6040519015158152f35b346101045760203660031901126101045760043561082c610dda565b1561090a576005546001600160a01b031633036108f8576000906004602061085761020c8554610109565b6040516311be646b60e21b815292839182905afa801561047e57838084819493829483916108da575b505af161088b610ecd565b50156101d1577fcdcc745fe377b103b45fa0cec23ae3ef93d6fc6a84a01f0d18c40b354dd1d5d86108d46108c361020c600b54610109565b604051938452929081906020820190565b0390a280f35b6108f2915060203d8111610477576104688183610b09565b38610880565b60405163ea8e4eb560e01b8152600490fd5b604051634ee2123760e11b8152600490fd5b346101045760203660031901126101045760043561093981610115565b803b600061094682610da7565b926109546040519485610b09565b82845260208401903c602d81511061097857602a602091015160601c604051908152f35b60405163baf3f0f760e01b8152600490fd5b3461010457602080600319360112610104576101cd90600435906109ad82610115565b6006546040516001600160a01b0393841683820152828152921691610a0d906109d581610ace565b6040516109e181610ace565b6018815277697364656c656761746f724e6f646528616464726573732960401b84820152600094610f6f565b919080610a47575b610a2e575b505060405190151581529081906020820190565b610a4092508082518301019101610dc2565b3880610a1a565b5080825114610a15565b34610104576000366003190112610104576020610806610dda565b3461010457600036600319011261010457602061066e60018060a01b0360035416604051610a9981610ace565b600681526569416765282960d01b848201526040519161066583610aee565b634e487b7160e01b600052604160045260246000fd5b604081019081106001600160401b03821117610ae957604052565b610ab8565b602081019081106001600160401b03821117610ae957604052565b601f909101601f19168101906001600160401b03821190821017610ae957604052565b908160209103126101045751610b4181610115565b90565b6040513d6000823e3d90fd5b6040519061016082016001600160401b03811183821017610ae957604052565b6001600160a01b039091169052565b610d83610140610da592610bb8610b968251610109565b600280546001600160a01b0319166001600160a01b0392909216919091179055565b610bea610bc86020830151610109565b600380546001600160a01b0319166001600160a01b0392909216919091179055565b610c1c610bfa6040830151610109565b600480546001600160a01b0319166001600160a01b0392909216919091179055565b610c4e610c2c6060830151610109565b600580546001600160a01b0319166001600160a01b0392909216919091179055565b610c80610c5e6080830151610109565b600680546001600160a01b0319166001600160a01b0392909216919091179055565b610cb2610c9060a0830151610109565b600780546001600160a01b0319166001600160a01b0392909216919091179055565b610ce4610cc260c0830151610109565b600880546001600160a01b0319166001600160a01b0392909216919091179055565b610d16610cf460e0830151610109565b600980546001600160a01b0319166001600160a01b0392909216919091179055565b610d49610d27610100830151610109565b600a80546001600160a01b0319166001600160a01b0392909216919091179055565b610d7c610d5a610120830151610109565b600b80546001600160a01b0319166001600160a01b0392909216919091179055565b0151610109565b600c80546001600160a01b0319166001600160a01b0392909216919091179055565b565b6001600160401b038111610ae957601f01601f191660200190565b90816020910312610104575180151581036101045790565b600254604051610e22916001600160a01b031690610df781610ace565b6008815267697353616665282960c01b602082015260405191610e1983610aee565b60008352610f6f565b9080610e41575b156101d15780602080610b4193518301019101610dc2565b506020815114610e29565b610ea660018060a01b038060025416604051916020941684830152838252610e7382610ace565b60405190610e8082610ace565b601582527469735365637572654261736528616464726573732960581b85830152610f6f565b9080610ec3575b156101d15781610b419282518301019101610dc2565b5081815114610ead565b3d15610ef8573d90610ede82610da7565b91610eec6040519384610b09565b82523d6000602084013e565b606090565b908015610f6b576001600160a01b038216918215610f5957600080808481945af1610f26610ecd565b50156101d15760207fcec1f18c3ab8ddaaa107a1591e3c369667eec613626611a8deaedef43069fcdd91604051908152a2565b60405163e6c4247b60e01b8152600490fd5b5050565b9190823b15610fed578051906020918263ffffffff60e01b92012016916040519180830193845281519160005b838110610fd9575050509181610fc960248260009795968897018783820152036004810184520182610b09565b51915afa610fd5610ecd565b9091565b818101830151858201602401528201610f9c565b505050600090604051610fff81610aee565b6000815290565b929161101491600094610f6f565b9080611039575b6110225750565b909150602081805181010312610104576020015190565b50602081511461101b565b906020825192015163ffffffff60e01b90818116936004811061106657505050565b60040360031b82901b16169150565b6001600160a01b03811615610f5957600080918351908260208601915af19061109c610ecd565b91156110a6575090565b8051600091906004116110f1576110bd9150611044565b8151156110cd5750805190602001fd5b604051630870274d60e21b81526001600160e01b0319919091166004820152602490fd5b506110bd56fe1e70cf59d0c7a20c88704bfce5a47e636dfa577ebf52a7166641741cef343661a2646970667358221220e61380f58f5433c3012851b19ed18ef5a99c6695cefcd4ca9d08247c5481bb6564736f6c63430008140033","linkReferences":{}},"methodIdentifiers":{"instance()":"022ec095","tVLFactory()":"9ba540fb","tVLMining()":"d795ff38"},"id":78}