{"abi":[{"type":"function","name":"_741nested","inputs":[],"outputs":[{"name":"","type":"address","internalType":"address"}],"stateMutability":"view"},{"type":"function","name":"_dAOAssembly","inputs":[],"outputs":[{"name":"","type":"address","internalType":"address"}],"stateMutability":"view"},{"type":"function","name":"_dAOCore","inputs":[],"outputs":[{"name":"","type":"address","internalType":"address"}],"stateMutability":"view"},{"type":"function","name":"_instance","inputs":[],"outputs":[{"name":"","type":"address","internalType":"address"}],"stateMutability":"view"},{"type":"function","name":"_instanceStor","inputs":[],"outputs":[{"name":"","type":"address","internalType":"address"}],"stateMutability":"view"},{"type":"function","name":"_nFTArchive","inputs":[],"outputs":[{"name":"","type":"address","internalType":"address"}],"stateMutability":"view"},{"type":"function","name":"_old741","inputs":[],"outputs":[{"name":"","type":"address","internalType":"address"}],"stateMutability":"view"},{"type":"function","name":"_price","inputs":[],"outputs":[{"name":"","type":"address","internalType":"address"}],"stateMutability":"view"},{"type":"function","name":"_tVLFactory","inputs":[],"outputs":[{"name":"","type":"address","internalType":"address"}],"stateMutability":"view"},{"type":"function","name":"_transferRequest","inputs":[],"outputs":[{"name":"","type":"address","internalType":"address"}],"stateMutability":"view"},{"type":"function","name":"deployInstance","inputs":[{"name":"_hex","type":"address","internalType":"address"}],"outputs":[],"stateMutability":"nonpayable"},{"type":"function","name":"deployInstanceStor","inputs":[{"name":"_hex","type":"address","internalType":"address"}],"outputs":[],"stateMutability":"nonpayable"}],"bytecode":{"object":"0x608080604052346100595773c0cee8b561cc4f60869776ca5b0b7a295e04f5af60018060a01b0319731a012f860854cfa88d1d1b8d41651d4a1bc980a881600054161760005560015416176001556180a8908161005f8239f35b600080fdfe6080604081815260048036101561001557600080fd5b600092833560e01c9081630c62aa19146102ee575080630f636b79146102c5578063235b6ea11461029d5780633e9f536a1461027457806341a24cf11461024b5780634d057ca5146102225780635b5f0cb5146101f95780637cd1c232146101d057806392a3d26214610127578063bf359a3a146100fe578063c32a12cd146100d15763e494af16146100a757600080fd5b346100cd57826003193601126100cd575490516001600160a01b03909116815260209150f35b8280fd5b5050346100fa57816003193601126100fa5760055490516001600160a01b039091168152602090f35b5080fd5b5050346100fa57816003193601126100fa5760025490516001600160a01b039091168152602090f35b5090346100cd5760203660031901126100cd576001600160a01b0391803583811691908290036101cc57825191611d568084019284841067ffffffffffffffff8511176101b9575091839160609361631d84398082528760208301528582015203019084f09081156101b05750166bffffffffffffffffffffffff60a01b600654161760065580f35b513d84823e3d90fd5b634e487b7160e01b885260419052602487fd5b8480fd5b5050346100fa57816003193601126100fa5760085490516001600160a01b039091168152602090f35b5050346100fa57816003193601126100fa5760035490516001600160a01b039091168152602090f35b5050346100fa57816003193601126100fa5760095490516001600160a01b039091168152602090f35b5050346100fa57816003193601126100fa5760015490516001600160a01b039091168152602090f35b5050346100fa57816003193601126100fa5760065490516001600160a01b039091168152602090f35b5050346100fa57816003193601126100fa57905490516001600160a01b039091168152602090f35b5050346100fa57816003193601126100fa5760075490516001600160a01b039091168152602090f35b84915083346100cd5760203660031901126100cd576001600160a01b039184358381160361037357615fa58082019082821067ffffffffffffffff831117610360579082916103788339039084f09081156101b05750166bffffffffffffffffffffffff60a01b600954161760095580f35b634e487b7160e01b865260418752602486fd5b8380fdfe608080604052346100335760018060a01b03198060015416600155600054166000556000601855615f6c9081620000398239f35b600080fdfe60806040526004361015610018575b361561001657005b005b60003560e01c806302a085f21461036857806309d8da2e146103635780630b98f9751461035e57806312065fe0146103595780631348065f1461035457806313ab4dc51461034f578063141ca6601461034a57806318a54198146103455780631f185d161461034057806340124ece1461033b5780634702c08f1461033657806349f601df146103315780634a65786c1461032c57806351bfd3ae1461032757806352902c59146103225780635ed86d5c1461031d5780636195685b14610318578063619d5194146103135780636350b2c21461030e578063678a7634146103095780636924500914610304578063723f0d85146102ff578063725b6fff146102fa57806373f42561146102f55780637b058ac1146102f05780637bfbfecb146102eb578063812600df146102e6578063880cdc31146102e15780638da5cb5b146102dc578063901bcdd4146102d757806391b0d21c146102d2578063932ca2d6146102cd578063934209ce146102c85780639659867e146102c3578063a1f7f539146102be578063a45c004a146102b9578063a98bf4f9146102b4578063a9bf285b146102af578063af40048a146102aa578063af484526146102a5578063af640d0f146102a0578063b90306ad1461029b578063bd6bf40314610296578063c32487aa14610291578063c4cb291e1461028c578063c54e44b014610287578063c6a9c45e14610282578063d3a1a4991461027d578063dcdd04a614610278578063e01ad5fd14610273578063e0a9bc2b1461026e578063fd915ef2146102695763fdc10bc90361000e57611893565b611816565b6117fb565b611762565b61165f565b611633565b6115df565b6115a6565b611529565b611469565b61144b565b611397565b611379565b611348565b611291565b611273565b611247565b611213565b61116b565b61114d565b61112f565b61105d565b611031565b611000565b610fd7565b610f02565b610ed6565b610e06565b610d30565b610d05565b610ce7565b610c3c565b610c1e565b610bcd565b610b77565b610abf565b610a6e565b610a07565b61095c565b610803565b6107e0565b6107b4565b61078e565b610762565b6106b1565b610674565b6105be565b610593565b610567565b61054b565b6104a3565b610480565b604036600319011261047b5761038360ff60035416156118b6565b61039361038e614538565b6118f0565b61039c33614322565b80156103fe575b6103ac906119fa565b6103fa6103bd602435600435611c13565b604080519889526020890197909752958701949094526060860192909252608085015260a084015260c083015260e0820152908190610100820190565b0390f35b50600054604051630536340960e21b8152906001600160a01b03906020908390600490829085165afa908115610476576103ac92600092610445575b5016331490506103a3565b61046891925060203d60201161046f575b61046081836119b4565b8101906119d6565b903861043a565b503d610456565b6119ee565b600080fd5b3461047b57600036600319011261047b57602060ff600354166040519015158152f35b3461047b57602036600319011261047b576104bf61038e614538565b6104c833614322565b80156104e3575b6104d8906119fa565b610016600435601555565b50600054604051630536340960e21b8152906001600160a01b03906020908390600490829085165afa908115610476576104d89260009261052a575b5016331490506104cf565b61054491925060203d60201161046f5761046081836119b4565b903861051f565b3461047b57600036600319011261047b57602047604051908152f35b3461047b57602036600319011261047b5760043560005260166020526020604060002054604051908152f35b3461047b57602036600319011261047b57600435600052602080526020604060002054604051908152f35b602036600319011261047b576105d561038e614538565b6105de33614322565b801561060c575b6105ee906119fa565b6103fa6105fc600435612b4d565b6040519081529081906020820190565b50600054604051630536340960e21b8152906001600160a01b03906020908390600490829085165afa908115610476576105ee92600092610653575b5016331490506105e5565b61066d91925060203d60201161046f5761046081836119b4565b9038610648565b3461047b57602036600319011261047b5760043560005260226020526020604060002054604051908152f35b6001600160a01b0381160361047b57565b3461047b5760208060031936011261047b57600480356106d0816106a0565b600054604051634bf9c0ad60e11b81526001600160a01b03949093909182918591829088165afa908115610476576103fa9461073194600093610743575b50604051931681840152825261072382611960565b61072b613826565b90615174565b60405190151581529081906020820190565b61075b919350823d841161046f5761046081836119b4565b913861070e565b3461047b57602036600319011261047b5760043560005260216020526020604060002054604051908152f35b3461047b57600036600319011261047b57602060ff60135460081c166040519015158152f35b3461047b57602036600319011261047b57600435600052601d6020526020604060002054604051908152f35b3461047b57600036600319011261047b57602060ff601354166040519015158152f35b3461047b57602036600319011261047b5760048035610821816106a0565b600054602090610841906001600160a01b03165b6001600160a01b031690565b60405163ab6e844f60e01b815293849182905afa918215610476576103fa926108af9261089392600092610937575b50604080516001600160a01b03909216602083015290926108a191849190820190565b03601f1981018452836119b4565b6108a9612709565b90614d2d565b6001600160a01b03811615906108ef6108d86108c9613853565b6108d1611a62565b9084615174565b916108e161387a565b6108e9611a62565b91615174565b8290811561090d575b50506040519115158252509081906020820190565b919250908261092f575b5081610927575b503880806108f8565b90503861091e565b915038610917565b6108a19192506109559060203d60201161046f5761046081836119b4565b9190610870565b3461047b57606036600319011261047b57600435610979816106a0565b602435610985816106a0565b6000546001600160a01b03928382166109cc5760018054949091166001600160a01b03199283161760005592166001600160a01b0391909116179055610016604435600655565b60405162461bcd60e51b81526020600482015260136024820152721cdd1bdc8b9c1c995a5b9a5d0b99985a5b1959606a1b6044820152606490fd5b3461047b57602036600319011261047b576103fa610a36610a31600435610a2c6151b8565b614a32565b6152cd565b50604080519788526020880196909652948601939093526060850191909152608084015260a083015260c082015290819060e0820190565b3461047b57600036600319011261047b57601f600052600460209081527f4c55bec45be59a99d441ccb7880f9b68f316b687ab5ac77efc4386a80700776854604051908152f35b8015150361047b57565b3461047b57602036600319011261047b57600435610adc81610ab5565b610ae761038e614538565b610af033614322565b8015610b09575b90610b04610016926119fa565b61389e565b50600054604051630536340960e21b81526001600160a01b0392916020908290600490829087165afa80156104765761001693610b0492600092610b56575b503391161491925050610af7565b610b7091925060203d60201161046f5761046081836119b4565b9038610b48565b3461047b57602036600319011261047b57600435600052601960205260806040600020805490600181015490600360018060a01b0360028301541691015491604051938452602084015260408301526060820152f35b3461047b57602036600319011261047b57600435601a5481101561047b57602090601a6000527f057c384a7d1c54f3a1b2e5e67b2617b8224fdfd1ea7234eea573a6ff665ff63e0154604051908152f35b3461047b57600036600319011261047b576020600954604051908152f35b3461047b57604036600319011261047b57610c5861038e614538565b610c6133614322565b8015610c7f575b610c71906119fa565b610016602435600435613919565b50600054604051630536340960e21b8152906001600160a01b03906020908390600490829085165afa90811561047657610c7192600092610cc6575b501633149050610c68565b610ce091925060203d60201161046f5761046081836119b4565b9038610cbb565b3461047b57600036600319011261047b576020600754604051908152f35b3461047b57600080600319360112610d2d576040818060209352600483522054604051908152f35b80fd5b3461047b5760a036600319011261047b57608435610d4d81610ab5565b610d5861038e614538565b610d6133614322565b8015610d98575b90610d75610d86926119fa565b606435604435602435600435613a2a565b60408051928352602083019190915290f35b50600054604051630536340960e21b81526001600160a01b0392916020908290600490829087165afa801561047657610d8693610d7592600092610de5575b503391161491925050610d68565b610dff91925060203d60201161046f5761046081836119b4565b9038610dd7565b600080600319360112610d2d57610e2260ff60035416156118b6565b610e2a6151b8565b60025580803415610ecd575b81808092813491f11561047657808052600460205260408120805490348201809211610ec85755610e81610e68614646565b61ff0060135491151560081b169061ff00191617601355565b600254604080513381526000602082018190529181019190915234606082015260808101919091526103e860a0820152600080516020615e178339815191529060c090a180f35b611abf565b506108fc610e36565b3461047b57602036600319011261047b5760043560005260046020526020604060002054604051908152f35b3461047b57602036600319011261047b57600435610f1f816106a0565b610f2a61038e614538565b610f3333614322565b8015610f69575b90610f47610016926119fa565b60018060a01b03166bffffffffffffffffffffffff60a01b6001541617600155565b50600054604051630536340960e21b81526001600160a01b0392916020908290600490829087165afa80156104765761001693610f4792600092610fb6575b503391161491925050610f3a565b610fd091925060203d60201161046f5761046081836119b4565b9038610fa8565b3461047b57600036600319011261047b576001546040516001600160a01b039091168152602090f35b3461047b57602036600319011261047b576004356000526005602052602060ff604060002054166040519015158152f35b3461047b57602036600319011261047b57600435600052601f6020526020604060002054604051908152f35b60a036600319011261047b57600435611075816106a0565b61108460ff60035416156118b6565b61108f61038e614538565b61109833614322565b80156110c1575b906110ac610d86926119fa565b60843590606435906044359060243590613c9b565b50600054604051630536340960e21b81526001600160a01b0392916020908290600490829087165afa801561047657610d86936110ac9260009261110e575b50339116149192505061109f565b61112891925060203d60201161046f5761046081836119b4565b9038611100565b3461047b57600036600319011261047b576020600a54604051908152f35b3461047b57600036600319011261047b576020601854604051908152f35b3461047b57600036600319011261047b5760005460405163d1f956b160e01b815290602090829060049082906001600160a01b03165afa908115610476576103fa916105fc916000916111f4575b506040516111c681611960565b601381527267657464656c656761746f72436f756e74282960681b60208201526111ee611a62565b91614cef565b61120d915060203d60201161046f5761046081836119b4565b386111b9565b3461047b57602036600319011261047b57600435600052601b602052602060018060a01b0360406000205416604051908152f35b3461047b57602036600319011261047b57600435600052601e6020526020604060002054604051908152f35b3461047b57600036600319011261047b576020600854604051908152f35b3461047b5760c036600319011261047b576112ad61038e614538565b6112b633614322565b80156112e0575b6112c6906119fa565b610d8660a435608435606435604435602435600435613fb5565b50600054604051630536340960e21b8152906001600160a01b03906020908390600490829085165afa908115610476576112c692600092611327575b5016331490506112bd565b61134191925060203d60201161046f5761046081836119b4565b903861131c565b3461047b57602036600319011261047b57602061136f60043561136a816106a0565b614322565b6040519015158152f35b3461047b57600036600319011261047b576020600654604051908152f35b3461047b57602036600319011261047b57600054604051630536340960e21b8152906001600160a01b03906020908390600490829085165afa9182156104765760009261142a575b50339116036113f3576100166004356143c7565b60405162461bcd60e51b815260206004820152600f60248201526e6f776e2e6e6f6e617574682e44414f60881b6044820152606490fd5b61144491925060203d60201161046f5761046081836119b4565b90386113df565b3461047b57600036600319011261047b576020601454604051908152f35b3461047b57600080600319360112610d2d5760088152600460205260406103fa8183205491600984528084205493600a81528181205490600b8152828082205491600c81522054906114c6600d6000526004602052604060002090565b54600e6000526004602052927feb3e677499e881fe1bdbc344a49c412138038a9f40883b6dc68f713aab4835235b5494519788978893909796959260c0959260e08601998652602086015260408501526060840152608083015260a08201520152565b3461047b57600080600319360112610d2d57600f8152600460205260406103fa8183205491601084528084205493601181528181205490601281528280822054916013815220549061158660146000526004602052604060002090565b546015600052600460205292600080516020615e578339815191526114f4565b3461047b57602036600319011261047b5760206115cd6004356115c8816106a0565b6143e8565b6040516001600160a01b039091168152f35b3461047b57602036600319011261047b57600435600052601c6020526020604060002054604051908152f35b600881101561161d57600b0190600090565b634e487b7160e01b600052603260045260246000fd5b3461047b57602036600319011261047b57600435600881101561047b57602090600b0154604051908152f35b3461047b5760e036600319011261047b5760043561167c81610ab5565b60243561168881610ab5565b60443561169481610ab5565b6064356116a081610ab5565b608435906116ad82610ab5565b60a435926116ba84610ab5565b60c435946116c786610ab5565b6116d261038e614538565b6116db33614322565b80156116f4575b966116ef610016986119fa565b61445a565b50600054604051630536340960e21b81526001600160a01b039891602090829060049082908d165afa801561047657610016996116ef92600092611741575b5033911614919850506116e2565b61175b91925060203d60201161046f5761046081836119b4565b9038611733565b3461047b5760208060031936011261047b5760048035611781816106a0565b60005460405163d1f956b160e01b81526001600160a01b03949093909182918591829088165afa908115610476576103fa94610731946000936117dc575b5060405193168184015282526117d482611960565b61072b61450b565b6117f4919350823d841161046f5761046081836119b4565b91386117bf565b3461047b57600036600319011261047b57602061136f614538565b3461047b57600080600319360112610d2d5760018152600460205260406103fa8183205491600284528084205493600381528181205490600481528280822054916005815220549061187360066000526004602052604060002090565b546007600052600460205292600080516020615e978339815191526114f4565b3461047b57600036600319011261047b5760206118ae6151b8565b604051908152f35b156118bd57565b60405162461bcd60e51b815260206004820152600b60248201526a1cdd1bdc8b9b1bd8dad95960aa1b6044820152606490fd5b156118f757565b60405162461bcd60e51b81526020600482015260126024820152716f776e2e696e76616c69642e69735361666560701b6044820152606490fd5b634e487b7160e01b600052604160045260246000fd5b67ffffffffffffffff811161195b57604052565b611931565b6040810190811067ffffffffffffffff82111761195b57604052565b6020810190811067ffffffffffffffff82111761195b57604052565b60e0810190811067ffffffffffffffff82111761195b57604052565b90601f8019910116810190811067ffffffffffffffff82111761195b57604052565b9081602091031261047b57516119eb816106a0565b90565b6040513d6000823e3d90fd5b15611a0157565b60405162461bcd60e51b815260206004820152601b60248201527f6f776e2e6e6f6e617574682e44414f6f725365637572656261736500000000006044820152606490fd5b67ffffffffffffffff811161195b57601f01601f191660200190565b60405190611a6f8261197c565b60008252565b604051611a818161197c565b60008152906000368137565b60405190611a9a82611960565b60168252757769746864726177496e74657276616c44617973282960501b6020830152565b634e487b7160e01b600052601160045260246000fd5b9060018201809211610ec857565b91908201809211610ec857565b60405190611afd82611960565b601082526f6d696e436c61696d506572446179282960801b6020830152565b60405190611b2982611960565b601082526f6d6178436c61696d506572446179282960801b6020830152565b60405190611b5582611960565b60168252756d6178476c6f62616c436c61696d506572446179282960501b6020830152565b60405190611b8782611960565b601582527467657477697468647261776e2875696e743235362960581b6020830152565b15611bb257565b60405162461bcd60e51b815260206004820152601e60248201527f73746f722e676c6f62616c2e706f6f6c2e6c696d69742e7265616368656400006044820152606490fd5b600019810191908211610ec857565b91908203918211610ec857565b909160009260009182938380938193829383611c2f8194600255565b8054611c43906001600160a01b0316610835565b6040805163cfbffe5360e01b815290936020928390839060049082905afa9182156104765784926126e2575b50611c9b611ca091611c8e611c8a60135460ff9060081c1690565b1590565b6126d2575b600254614a32565b614a50565b611cc5611cbc611cae611a75565b611cb6611a8d565b84614cef565b60085490611ae3565b9160025492831015611cd9575b5050505050565b611cec611ce4611a75565b611cb6611af0565b92611d06611cf8611a75565b611d00611b1c565b85614cef565b600f600052600460205292611dea611dcc611dae611d90611d72611d54600080516020615ef78339815191525460106000526004602052600080516020615f178339815191525b5490611ae3565b60116000526004602052600080516020615e77833981519152611d4d565b60126000526004602052600080516020615eb7833981519152611d4d565b60136000526004602052600080516020615ed7833981519152611d4d565b60146000526004602052600080516020615e37833981519152611d4d565b60156000526004602052600080516020615e57833981519152611d4d565b94851015611dfa575b5050611cd2565b959d5097509750975097509750611e2891995060049250611e19611a75565b90611e22611b48565b90614cef565b86549092908490611e41906001600160a01b0316610835565b895163ab6e844f60e01b815293849182905afa801561047657611e8f94611e899389926126af575b50895190810192835291611e81908390602001610893565b611e22611b7a565b10611bab565b808211156126a757611ea091611c06565b600f60005260046020528080600080516020615ef7833981519152541061265e5750600f6000526004602052611ee690600080516020615ef78339815191525b54611c06565b600f600052600460205292600080516020615ef7833981519152611f0b858254611c06565b9055815b6010600052600460205280600080516020615f1783398151915254106126165760106000526004602052611f5190600080516020615f17833981519152611ee0565b6010600052600460205292600080516020615f17833981519152611f76858254611c06565b9055825b6011600052600460205280600080516020615e7783398151915254106125ce5760116000526004602052611fbc90600080516020615e77833981519152611ee0565b6011600052600460205292600080516020615e77833981519152611fe1858254611c06565b9055805b6012600052600460205280600080516020615eb78339815191525410612586576012600052600460205261202790600080516020615eb7833981519152611ee0565b6012600052600460205292600080516020615eb783398151915261204c858254611c06565b9055815b6013600052600460205280600080516020615ed7833981519152541061253e576013600052600460205261209290600080516020615ed7833981519152611ee0565b6013600052600460205292600080516020615ed78339815191526120b7858254611c06565b9055825b6014600052600460205280600080516020615e3783398151915254106124f757601460005260046020526120fd90600080516020615e37833981519152611ee0565b6014600052600460205292600080516020615e37833981519152612122858254611c06565b9055805b6015600052600460205281600080516020615e5783398151915254106124ac57506015600052600460205261216990600080516020615e57833981519152611ee0565b6015600052600460205291600080516020615e5783398151915261218e848254611c06565b90555b600160005260046020527fabd6e7cb50984ff9c2f3e18a2660c3353dadf4e3291deeb275dae2cd1e44fe056121c78a8254611ae3565b9055600260005260046020527f91da3fd0782e51c6b3986e9e672fd566868e71f3dbc2d6c2cd6fbb3e361af2a76121ff898254611ae3565b9055600360005260046020527f2e174c10e159ea99b867ce3205125c24a42d128804e4070ed6fcc8cc98166aa0612237888254611ae3565b9055600460008190526020527f1a1e6821cde7d0159c0d293177871e09677b4e42307c7db3ba94f8648a5a050f61226f878254611ae3565b9055600560005260046020527f04cde762ef08b6b6c5ded8e8c4c0b3f4e5c9ad7342c88fcc93681b4588b73f056122a7868254611ae3565b9055600660005260046020527fc59312466997bb42aaaf719ece141047820e6b34531e1670dc1852a453648f0f6122df858254611ae3565b905560076000526004602052600080516020615e97833981519152612305848254611ae3565b9055601f60005260046020527f4c55bec45be59a99d441ccb7880f9b68f316b687ab5ac77efc4386a807007768549161233f600254600855565b60085481513381526000602082018190526040820152606081018c905260808101829052604760a0820152600080516020615e178339815191529261249d9291849060c090a180513381526000602082018190526040820152606081018d905260808101839052604860a0820152849060c090a180513381526000602082018190526040820152606081018c905260808101839052604960a0820152849060c090a180513381526000602082018190526040820152606081018b905260808101839052604a60a0820152849060c090a180513381526000602082018190526040820152606081018a905260808101839052604b60a0820152849060c090a1805133815260006020820181905260408201526060810189905260808101839052604c60a0820152849060c090a1513381526000602082018190526040820152606081018790526080810191909152604d60a082015290819060c0820190565b0390a138808080808080611df3565b6015600052600460205292906124d390600080516020615e578339815191525b5490611c06565b5060156000526004602052600080516020615e578339815191528054939055612191565b6014600052600460205261251990600080516020615e378339815191526124cc565b60146000526004602052600080516020615e3783398151915280549085905593612126565b6013600052600460205261256090600080516020615ed78339815191526124cc565b60136000526004602052600080516020615ed783398151915280549084905593906120bb565b601260005260046020526125a890600080516020615eb78339815191526124cc565b60126000526004602052600080516020615eb78339815191528054908390559390612050565b601160005260046020526125f090600080516020615e778339815191526124cc565b60116000526004602052600080516020615e778339815191528054908590559390611fe5565b6010600052600460205261263890600080516020615f178339815191526124cc565b60106000526004602052600080516020615f178339815191528054908490559390611f7a565b600f60005260046020526126819150600080516020615ef78339815191526124cc565b600f6000526004602052600080516020615ef78339815191528054908390559390611f0f565b505080611ea0565b8192506126cb90611e81923d851161046f5761046081836119b4565b9190611e69565b6126dd610e68614646565b611c93565b611ca0919250612701611c9b91853d871161046f5761046081836119b4565b929150611c6f565b6040519061271682611960565b601382527255736572546f496e737428616464726573732960681b6020830152565b6040519061274582611960565b600b82526a6d696e74436f756e74282960a81b6020830152565b6000198114610ec85760010190565b6040519061277b82611960565b600e82526d6d696e74732875696e743235362960901b6020830152565b604051906127a582611960565b600b82526a6d696e746564416765282960a81b6020830152565b604051906127cc82611960565b600b82526a6d696e746564717479282960a81b6020830152565b604051906127f382611960565b600c82526b6964732875696e743235362960a01b6020830152565b6040519061281b82611960565b60098252686d696e74416d74282960b81b6020830152565b1561283a57565b60405162461bcd60e51b815260206004820152601560248201527473746f722e756e7365637572652e4f52433131353560581b6044820152606490fd5b604051906080820182811067ffffffffffffffff82111761195b5760405260006060838281528260208201528260408201520152565b604051906128ba82611960565b600a825269647261776e616765282960b01b6020830152565b604051906128e082611960565b600c82526b4c53422875696e743235362960a01b6020830152565b6040519061290882611960565b6007825266647261776e282960c81b6020830152565b91908260c091031261047b5781519160208101519160408201519160608101519160a0608083015192015190565b6040519061295982611960565b60138252726765745265776172647328616464726573732960681b6020830152565b919082604091031261047b576020825192015190565b6040519061299e82611960565b6007825266626f6e7573282960c81b6020830152565b604051906129c182611960565b600682526563616765282960d01b6020830152565b604051906129e382611960565b601082526f6765744e6f646528616464726573732960801b6020830152565b908160a091031261047b578051916020820151612a1e816106a0565b9160408101519160806060830151612a3581610ab5565b9201516119eb81610ab5565b60405190612a4e82611960565b601582527467657444656c656761746f7228616464726573732960581b6020830152565b60405190612a7f82611960565b6014825273697344656c656761746f7228616464726573732960601b6020830152565b60405190612aaf82611960565b601a82527f77697468647261776e496e636f6d654f662861646472657373290000000000006020830152565b60405190612ae882611960565b601982527f67657445666665637469766552616e6b286164647265737329000000000000006020830152565b60405190612b2182611960565b601f82527f6765746e6f646572616e6b61676528616464726573732c75696e7432353629006020830152565b600054909190612b65906001600160a01b0316610835565b6040908151809163111ea8c160e21b825281600460209384935afa91821561047657600092613805575b5060015483516001600160a01b0390911682820190815292939092612bd69084906020015b0393612bc8601f19958681018352826119b4565b612bd0612709565b86614d2d565b956001600160a01b0387161580156137f9575b6137db57612c06612bf8611a75565b612c00612738565b89614cef565b90601854612c148183611ae3565b8311156137d357612c2491611ae3565b81613442575b508060185414908115613439575b50612c49575b5050600a5493505050565b612c64612c5f612c57611a75565b612c006128ad565b600955565b6009549460079560075481116133ed575b50612ca0612c92612c84611a75565b612c8c6128fb565b8a615014565b84808251830101910161291e565b600460209081527fabd6e7cb50984ff9c2f3e18a2660c3353dadf4e3291deeb275dae2cd1e44fe05969096557f91da3fd0782e51c6b3986e9e672fd566868e71f3dbc2d6c2cd6fbb3e361af2a7949094557f2e174c10e159ea99b867ce3205125c24a42d128804e4070ed6fcc8cc98166aa0929092557f1a1e6821cde7d0159c0d293177871e09677b4e42307c7db3ba94f8648a5a050f557f04cde762ef08b6b6c5ded8e8c4c0b3f4e5c9ad7342c88fcc93681b4588b73f055560066000527fc59312466997bb42aaaf719ece141047820e6b34531e1670dc1852a453648f0f5582516001600160a01b038916858201908152612dcc92612dbe9291612db0918391015b038881018352826119b4565b612db861294c565b88615014565b84808251830101910161297b565b60046020527ffe4d1297c5434445a55041cf44037c0799556cc55064da684dc6eed1a5dccabf9190915560686000527f1bb2e115e3876ad5c8aaab5c92f44bb73687e05843787aa070fd74a36346258855612e3e612e39612e2b611a75565b612e33612991565b8a614cef565b601555565b612e54612c5f612e4c611a75565b612e336129b4565b60015b600f811115613367575081516001600160a01b038816848201908152612ec891612eb191612ea39190612e95908290602001038981018352826119b4565b612e9d6129d6565b89615014565b858082518301019101612a02565b935050505060ff8019600354169115151617600355565b6130886130586003612f1b612ede825460ff1690565b600160005260056020527f1471eb6eb2c5e789fc3de43f8ce62938c7d1836ec861730447e2ada8fd81017b5b9060ff801983541691151516179055565b612f59612f29825460ff1690565b600260005260056020527f89832631fb3c3307a103ba2c84ab569c64d6182a18893dcd163f0f1c2090733a612f0a565b612f97612f67825460ff1690565b600360005260056020527fa9bc9a3a348c357ba16b37005d7e6b3236198c0e939f4af8c5f19b8deeb8ebc0612f0a565b612fd5612fa5825460ff1690565b600460005260056020527f3eec716f11ba9e820c81ca75eb978ffb45831ef8b7a53e5e422c26008e1ca6d5612f0a565b613013612fe3825460ff1690565b600560008190526020527f458b30c2d72bfd2c6317304a4594ecbafe5f729d3111b65fdc3a33bd48e5432d612f0a565b613051613021825460ff1690565b600660005260056020527f069400f22b28c6c362558d92f66163cec5671cba50b61abd2eecfcd0eaeac518612f0a565b5460ff1690565b600760005260056020527feddb6698d7c569ff62ff64f1f1492bf14a54594835ba0faac91f84b4f5d81460612f0a565b60005461309d906001600160a01b0316610835565b8251906314ac1b5960e21b8083528583600481855afa92831561047657600093613348575b50600154613106906001600160a01b031686516001600160a01b038216898201908152919590916130fe908390602001038b81018452836119b4565b6108a9612a41565b908551918183528783600481875afa9283156104765788936131669261315292600092613325575b5089516001600160a01b03909116868201908152909261315e918491602090910190565b038c81018452836119b4565b61072b612a72565b613285575b505083516001600160a01b038a168682019081526131aa93506131a59250613197908290602001612da4565b61319f612adb565b88614cef565b600a55565b60005b600a5481116132275782516001600160a01b03891685820190815260208101839052613222929161321d916131fb91906131f39082906040015b038a81018352826119b4565b612e33612b14565b6132048361160b565b90919082549060031b91821b91600019901b1916179055565b61275f565b6131ad565b50955050505050600a61323b600a54611ad5565b8281111561326257505050613258600160ff196013541617601355565b8038808080612c3e565b6132809061321d6131fb613276855461160b565b90549060031b1c90565b61323b565b600486518094819382525afa8015610476576132df926132cb92600092613302575b5085516001600160a01b0390911687820190815290926132d7918491602090910190565b038881018452836119b4565b611e22612aa2565b60076000526004602052600080516020615e97833981519152553880848161316b565b6132d791925061331e90883d8a1161046f5761046081836119b4565b91906132a7565b61315e91925061334190873d891161046f5761046081836119b4565b919061312e565b613360919350863d881161046f5761046081836119b4565b91386130c2565b8251632994ed6560e11b858201526001600160a01b0389166024820152604481018290526133e891906133b9906133ab906133a581606481016131e7565b896150bd565b86808251830101910161297b565b6133cd83600052601f602052604060002090565b906133e18460005260208052604060002090565b555561275f565b612e57565b600755600954825184810191825261341c91613414908290602001038781018352826119b4565b612c006128d3565b613432600754600052601e602052604060002090565b5538612c75565b90501538612c38565b929693959194905b601854848110156137c4576134616134669161275f565b601855565b6018548651898101918252613491916134839082906020016131e7565b61348b61276e565b87614d2d565b6134ac6134a761349f611a75565b611cb6612798565b600255565b6134c56134b7611a75565b6134bf6127bf565b83614cef565b6134f56134e16134ed8c8b519283918201906000602083019252565b038c81018352826119b4565b611cb66127e6565b613517613511613503611a75565b61350b61280e565b86614cef565b936143e8565b926135598c61353061083560005460018060a01b031690565b8c516333ea87db60e21b81526001600160a01b0390971660048801529591829081906024820190565b0381885afa928315610476578b958e926000956137a5575b506001600160a01b03851615613723575b50600080516020615e178339815191529561364084936135e86135d761370c978a6136cf976135b86135b38d614322565b612833565b816135c1612877565b9684885287015260029b8c546060880152614d78565b6001600160a01b0316938201938452565b6135fe6018546000526019602052604060002090565b90606060039180518455602081015160018501556002840160018060a01b036040830151166bffffffffffffffffffffffff60a01b8254161790550151910155565b61364983614ea2565b50600160185414613714575b60008052601f6020527f8c60882dec3cf54096060609fdd16c336781b436ca34f3f27a220dfcfa1d485561368a848254611ae3565b905560008052602080527f29ab76e7ca72530a8284597fb76b039d796325740b21528d71ade454c6f2dbe96136c0878254611ae3565b9055516001600160a01b031690565b92548b513381526001600160a01b039094166020850152604084019490945260608301526080820192909252600060a082015290819060c0820190565b0390a161344a565b61371e8554600755565b613655565b9551635bb8e44b60e11b81526000600482015295909350859060249082905afa908115610476576136cf8b6136408f6135e86135d7868a61370c99600080516020615e178339815191529d600091613788575b509a9750505050509394505095613582565b61379f9150863d881161046f5761046081836119b4565b38613776565b6137bd919550833d851161046f5761046081836119b4565b9338613571565b50909491959396925038612c2a565b505080612c24565b505050505090506137f4600160ff196013541617601355565b600090565b5060135460ff16612be9565b612bb4925061382090823d841161046f5761046081836119b4565b91612b8f565b6040519061383382611960565b601182527069735369676e657228616464726573732960781b6020830152565b6040519061386082611960565b600b82526a697353757370656e64282960a81b6020830152565b6040519061388782611960565b600882526769734c6f636b282960c01b6020830152565b600360005260056020527fa9bc9a3a348c357ba16b37005d7e6b3236198c0e939f4af8c5f19b8deeb8ebc05460ff166138e35760ff8019600354169115151617600355565b60405162461bcd60e51b815260206004820152600e60248201526d1cdd1bdc8b9cdd5cdc195b99195960921b6044820152606490fd5b60ff60135460081c161561392b575050565b600560008190526020527f458b30c2d72bfd2c6317304a4594ecbafe5f729d3111b65fdc3a33bd48e5432d5460ff1615613a0b57600c60005260046020527f140aabff1a85df08546c9a350c79ae18341bde4a2cef5d2fd460885c0128ce26555b6006600052600560205260ff7f069400f22b28c6c362558d92f66163cec5671cba50b61abd2eecfcd0eaeac5185416156139ef57600d60005260046020527fa5022b2bfd144bf9103d80168549b5df7c72ab60bd51bf71a02a08d844853b4a555b565b60146000526004602052600080516020615e3783398151915255565b60136000526004602052600080516020615ed78339815191525561398c565b9493909291928315613ace57613a8b93600a549683600014613aa05781613a6591613a6d613a65613a7e95600052601f602052604060002090565b918254611ae3565b905560005260208052604060002090565b90555b15613a915761564c565b600a5490565b613a9b6000600a55565b61564c565b81613abf91613a6d613abf613ac795600052601f602052604060002090565b918254611c06565b9055613a81565b60405162461bcd60e51b815260206004820152600f60248201526e73746f722e6c6576656c2e7a65726f60881b6044820152606490fd5b60405190613b1282611960565b600f82526e6d696e744379636c6544617973282960881b6020830152565b8115613b3a570490565b634e487b7160e01b600052601260045260246000fd5b60405190613b5d82611960565b60128252716d61784d696e74735065724379636c65282960701b6020830152565b15613b8557565b60405162461bcd60e51b815260206004820152601760248201527f73746f722e6d696e746c696d69742e65786365656465640000000000000000006044820152606490fd5b60405190613bd782611960565b600c82526b6d696e4d696e74517479282960a01b6020830152565b60405190613bff82611960565b600c82526b6d61784d696e74517479282960a01b6020830152565b15613c2157565b60405162461bcd60e51b815260206004820152601060248201526f73746f722e6c6f776f6d61782e71747960801b6044820152606490fd5b15613c6057565b60405162461bcd60e51b815260206004820152601360248201527273746f722e66616b652e6d696e7476616c756560681b6044820152606490fd5b94919093613caa6134a76151b8565b600054600490602090613cc5906001600160a01b0316610835565b60405163cfbffe5360e01b815292839182905afa801561047657613d6a91600091613f05575b50613d31613d0d613d05613cfd611a75565b611d00613b05565b600254613b30565b613d2b613d23613d1b611a75565b61350b613b50565b601854613b30565b14613b7e565b613d59613d47613d3f611a75565b611cb6613bca565b91613d50611a75565b90611e22613bf2565b908410159081613efa575b50613c1a565b613d766135b387614322565b8360018214613e83575b50613df4613dde8584600080516020615e1783398151915296979860185415600014613e7e57613db1600254600755565b613dbf61346160185461275f565b613dc7612877565b9a838c528260208d015260025460608d0152614d78565b6001600160a01b031660408801908152966135e8565b613e69613e29613e0387614ea2565b97613e17611c8a60135460ff9060081c1690565b613e6e575b516001600160a01b031690565b600254604080513381526001600160a01b03909316602084015282019490945260608101879052608081019390935260a0830191909152819060c0820190565b0390a1565b613e79610e68614646565b613e1c565b613db1565b600080516020615e17833981519152939450613dde613df49184613ecf98613ed4612e39613eb0846157f2565b809c819682151580613ee0575b613ec690613c59565b60155490611ae3565b611c06565b98505095945050613d80565b50613ec683613ef160155484611ae3565b10159050613ebd565b905083111538613d64565b613f1e915060203d60201161046f5761046081836119b4565b38613ceb565b60405190613f3182611960565b60148252736c6576656c436c617573652875696e743235362960601b6020830152565b908160a091031261047b578051916020820151916040810151916080606083015192015190565b9081606402916064830403610ec857565b90606482029180830460641490151715610ec857565b81810292918115918404141715610ec857565b909594929192600a5496613fd384600052601f602052604060002090565b613fde848254611ae3565b9055613ff38460005260208052604060002090565b613ffe828254611ae3565b905560008052601f6020527f8c60882dec3cf54096060609fdd16c336781b436ca34f3f27a220dfcfa1d485554151580614319575b614044575b505050505050600a5490565b61430b575b60005461405e906001600160a01b0316610835565b604051809163cfbffe5360e01b825281600460209384935afa918215610476576140c3926140b6916000916142ee575b50604051906140a8826108938a8783019190602083019252565b6140b0613f24565b90615014565b8051810182019101613f54565b9490919360028811918215926142c1575b50506140e2575b5050614038565b614108614102936141026140fc6140fc9561410e99613fa2565b91613f7b565b90613b30565b96613fa2565b50600160005260056020527f1471eb6eb2c5e789fc3de43f8ce62938c7d1836ec861730447e2ada8fd81017b5460ff16806142b2575b1561428c57600860005260046020527f2645749a946633740611cfc8178319f0958659d6922e4bf7e3a08b44789f53a461417f838254611ae3565b90555b600460005260056020526141b57f3eec716f11ba9e820c81ca75eb978ffb45831ef8b7a53e5e422c26008e1ca6d5613051565b8061427d575b1561425f5750600b60005260046020526141f47f0c1469ad586d86b6976c45826d7ae56d76ee516e37a2bccffbe904b74dbae7ea613a65565b90555b6013546142089060081c60ff161590565b614219575b808080808080806140db565b61424690614225614646565b908161424c575b5061ff0060135491151560081b169061ff00191617601355565b3861420d565b611c9b8161425992614a32565b3861422c565b613a65614276916000526022602052604060002090565b90556141f7565b5060135460081c60ff166141bb565b6142a0816000526021602052604060002090565b6142ab838254611ae3565b9055614182565b5060135460081c60ff16614144565b9091506142d06009548b611c06565b109081156142e1575b5038806140d4565b9050600a541015386142d9565b6143059150833d851161046f5761046081836119b4565b3861408e565b6143148561564c565b614049565b50831515614033565b600054604051634bf9c0ad60e11b815291906020906001600160a01b039082908590600490829085165afa908115610476576119eb946000926143a8575b5060405193168284015281835261437683611960565b7469735365637572654261736528616464726573732960581b6040519261439c84611960565b60158452830152615174565b6143c0919250833d851161046f5761046081836119b4565b9038614360565b6000808080938181156143df575b8290f11561047657565b506108fc6143d5565b803b60006143f582611a46565b9261440360405194856119b4565b82845260208401903c602d81511061441f57602a015160601c90565b60405162461bcd60e51b81526020600482015260136024820152724e6f742061206d696e696d616c2070726f787960681b6044820152606490fd5b6139ed969593612fa561305894612f676144e69895612f296144b29661447e6151b8565b8060025560ff60135460081c16156144f8575b506001600052600560205260406000209060ff801983541691151516179055565b60056000819052602052613021817f458b30c2d72bfd2c6317304a4594ecbafe5f729d3111b65fdc3a33bd48e5432d612f0a565b60ff8019600354169115151617600355565b611c9b8161450592614a32565b38614491565b6040519061451882611960565b6011825270697364656c656761746f724e6f6465282960781b6020830152565b600054604051634bf9c0ad60e11b815290602090829060049082906001600160a01b03165afa8015610476576119eb916000916145a8575b5060405161457d81611960565b6008815267697353616665282960c01b60208201526040519161459f8361197c565b60008352615174565b6145c1915060203d60201161046f5761046081836119b4565b38614570565b604051906145d482611960565b600982526863617070696e67282960b81b6020830152565b908160e091031261047b57805191602082015161460881610ab5565b91604081015161461781610ab5565b91606082015161462681610ab5565b91608081015161463581610ab5565b9160c060a0830151612a3581610ab5565b600054600490602090614661906001600160a01b0316610835565b60405163cfbffe5360e01b815292839182905afa908115610476576146b2916146a391600091614a13575b506146956145c7565b61469d611a62565b91615014565b602080825183010191016145ec565b60008052601f6020529395929492939290917f8c60882dec3cf54096060609fdd16c336781b436ca34f3f27a220dfcfa1d485554956146f18688613fa2565b976146fa615899565b946149d2575b5061494e575b6148e8575b6148a7575b506147d1575b614769575b6000805260046020527f17ef568e3e12ab5b9c7254a8d58478811de00f9e6eb34345acd53bf8fd09d3ec5461474f91613fa2565b8082101561475c57501190565b61476591611c06565b1190565b600760005260046020529061474f906147c9906147c3611dcc600080516020615e978339815191525b54600e60005260046020527feb3e677499e881fe1bdbc344a49c412138038a9f40883b6dc68f713aab483523611d4d565b90611ae3565b91905061471b565b60056000526004602052916148a1906147c3614871614841611dae611d907f04cde762ef08b6b6c5ded8e8c4c0b3f4e5c9ad7342c88fcc93681b4588b73f0554600660005260046020527fc59312466997bb42aaaf719ece141047820e6b34531e1670dc1852a453648f0f611d4d565b600c60005260046020527f140aabff1a85df08546c9a350c79ae18341bde4a2cef5d2fd460885c0128ce26611d4d565b600d60005260046020527fa5022b2bfd144bf9103d80168549b5df7c72ab60bd51bf71a02a08d844853b4a611d4d565b91614716565b600b600052600460205290936148e1916147c3907f0c1469ad586d86b6976c45826d7ae56d76ee516e37a2bccffbe904b74dbae7ea611d4d565b9238614710565b60046020527f2e174c10e159ea99b867ce3205125c24a42d128804e4070ed6fcc8cc98166aa054600a6000529095614948916147c390611d54907f5c6b02db8b672415ffad906d7ccee10bd53dbad7d0b29e2bc0e50c93d5f31093611d4d565b9461470b565b60046020527f91da3fd0782e51c6b3986e9e672fd566868e71f3dbc2d6c2cd6fbb3e361af2a754600960005290966149cc916147c3906149ae907f4ad5a04d53b5856f318545bb721f67d3f6d0a5a999f25eec7e20eaeb4c47b933611d4d565b60106000526004602052600080516020615f17833981519152611d4d565b95614706565b600860005260046020529097614a0c916147c3907f2645749a946633740611cfc8178319f0958659d6922e4bf7e3a08b44789f53a4611d4d565b9638614700565b614a2c915060203d60201161046f5761046081836119b4565b3861468c565b600754918201809211610ec85781811115614a4b575090565b905090565b6139ed90614a5d816152cd565b9593925093959050614a7d613a65600f6000526004602052604060002090565b905560126000526004602052614aa0600080516020615eb7833981519152613a65565b905560026000526005602052614ad57f89832631fb3c3307a103ba2c84ab569c64d6182a18893dcd163f0f1c2090733a613051565b80614ce0575b15614cb85760096000526004602052614b137f4ad5a04d53b5856f318545bb721f67d3f6d0a5a999f25eec7e20eaeb4c47b933613a65565b90555b60036000526005602052614b497fa9bc9a3a348c357ba16b37005d7e6b3236198c0e939f4af8c5f19b8deeb8ebc0613051565b80614ca9575b15614c7e57600a60005260046020527f5c6b02db8b672415ffad906d7ccee10bd53dbad7d0b29e2bc0e50c93d5f31093614b8a848254611ae3565b90555b60076000526005602052614bc07feddb6698d7c569ff62ff64f1f1492bf14a54594835ba0faac91f84b4f5d81460613051565b80614c6f575b15614c4757600e6000526004602052614bfe7feb3e677499e881fe1bdbc344a49c412138038a9f40883b6dc68f713aab483523613a65565b90555b614c1583600052601e602052604060002090565b55601f60005260046020527f4c55bec45be59a99d441ccb7880f9b68f316b687ab5ac77efc4386a80700776855600755565b60156000526004602052614c68600080516020615e57833981519152613a65565b9055614c01565b5060135460081c60ff16614bc6565b60116000526004602052600080516020615e77833981519152614ca2848254611ae3565b9055614b8d565b5060135460081c60ff16614b4f565b60106000526004602052614cd9600080516020615f17833981519152613a65565b9055614b16565b5060135460081c60ff16614adb565b9291614cfd9160009461595a565b9080614d22575b614d0b5750565b90915060208180518101031261047b576020015190565b506020815114614d04565b9291614d3b9160009461595a565b9080614d6d575b614d495750565b80519192506001600160a01b0391614d69916020918101820191016119d6565b1690565b506020815114614d42565b91614dde92614dcf9260018060a01b0395866001541693600254926040519563c85700fb60e01b6020880152602487015260448601526064850152608484015260a483015260a48252614dca82611998565b6150bd565b602080825183010191016119d6565b168015614de85790565b60405162461bcd60e51b815260206004820152601060248201526f1cdd1bdc8b9b5a5b9d0b99985a5b195960821b6044820152606490fd5b60405190614e2d82611960565b6006825265706f6f6c282960d01b6020830152565b908160e091031261047b5780519160208201519160408101519160608201519160808101519160c060a083015192015190565b91909160008382019384129112908015821691151617610ec857565b600160ff1b8114610ec85760000390565b60005460049190602090614ebe906001600160a01b0316610835565b60405163cfbffe5360e01b815293849182905afa801561047657614f3a614f2f614102614f2f61410295614f1f614f10614f35976119eb9a600091614f9a575b50614f07611a75565b906140b0614e20565b60208082518301019101614e42565b9b959c9394919992969050613fa2565b91613f8c565b613fa2565b91614f5a614f4a82600254611ae3565b600052601e602052604060002090565b614f65848254614e75565b9055614f93614f8b614f4a84614f86614f7d88614e91565b95600254611ae3565b611ae3565b918254614e75565b9055613fa2565b614fb3915060203d60201161046f5761046081836119b4565b38614efe565b9081519160005b838110614fd1575050016000815290565b8060208092840101518185015201614fc0565b3d1561500f573d90614ff582611a46565b9161500360405193846119b4565b82523d6000602084013e565b606090565b919091803b156150ae5760009261507761508585946150476040519463ffffffff60e01b90602081519101201694611947565b6040519360208501526004845261505d84611960565b604051928391615071602084018097614fb9565b90614fb9565b03601f1981018352826119b4565b51915afa615091614fe4565b901561509a5790565b506040516150a78161197c565b6000815290565b5050506040516150a78161197c565b6001600160a01b0381161561513a5781600092918360208194519301915af16150e4614fe4565b90156150ed5790565b8051156150fc57805190602001fd5b60405162461bcd60e51b81526020600482015260166024820152751bdddb8b9d185c99d95d0b98d85b1b0b99985a5b195960521b6044820152606490fd5b60405162461bcd60e51b81526020600482015260126024820152711bdddb8b9a5b9d985b1a590b9d185c99d95d60721b6044820152606490fd5b92916151829160009461595a565b90806151ad575b6151905750565b90915060208180518101031261047b57602001516119eb81610ab5565b506020815114615189565b60005460405163111ea8c160e21b815290602090829060049082906001600160a01b03165afa8015610476576119eb91600091615225575b506040516151fd81611960565b6005815264616765282960d81b60208201526040519161521c8361197c565b60008352614cef565b61523e915060203d60201161046f5761046081836119b4565b386151f0565b818102929160008212600160ff1b821416610ec8578184051490151715610ec857565b6040519061527482611960565b601882527f676574557365724964546f496e73742875696e743235362900000000000000006020830152565b604051906152ad82611960565b6011825270696e636f6d654f6628616464726573732960781b6020830152565b600090600090818283846152df6159af565b976152e8615a39565b9690998891600754908215915b81811061556b5750505060001461556557508654600490602090615321906001600160a01b0316610835565b60405163ab6e844f60e01b815292839182905afa9081156104765761536e91610893918a91615546575b50615366600654604051938491602083019190602083019252565b6108a9615267565b31965b8054615385906001600160a01b0316610835565b9060408051906314ac1b5960e21b918281526020908181600481895afa908115610476578591615529575b5060015483516001600160a01b039091168382018181528290038083529095601f199390926153e9929091906130fe90602001836119b4565b845182815284816004818c5afa80156104765761543b9261542f928a92615506575b5087516001600160a01b03909116878201908152909261315e918491602090910190565b038681018452836119b4565b615449575b50505050505050565b8394959697995060048394939293518099819382525afa918215610476576154d4966154aa96936154e1575b5092516001600160a01b0390941692840192835290916154a2919084906020015b039081018452836119b4565b611e226152a0565b600760005260046020526154ce611dcc600080516020615e97833981519152614792565b90611c06565b9138808080808080615440565b6154a293506154ff61549691833d851161046f5761046081836119b4565b9350615475565b61315e91925061552290883d8a1161046f5761046081836119b4565b919061540b565b6155409150823d841161046f5761046081836119b4565b386153b0565b61555f915060203d60201161046f5761046081836119b4565b3861534b565b96615371565b615579839d6147c383615bfc565b9c615587575b6001016152f5565b93956155dc6155ad6001926155a688600052601e602052604060002090565b5490614e75565b976155d66155c588600052601e602052604060002090565b546155d08987611c06565b90615244565b90614e75565b94905061557f565b604051906155f182611960565b601c82527f6765744e6f646544697265637473436f756e742875696e7432353629000000006020830152565b6040519061562a82611960565b601382527272616e6b436c617573652875696e743235362960681b6020830152565b60008054615662906001600160a01b0316610835565b916040906040519263ab6e844f60e01b8452602093848160048181995afa908115610476576000916157d5575b5060065460405186810191825290819003808252601f19926156c192916156b990602001836119b4565b611e226155e4565b600a916156cf600a54611ad5565b600881106156e257505050505050505050565b845489919089906156fb906001600160a01b0316610835565b895163cfbffe5360e01b815293849182905afa801561047657615749828a615757938d6001978c926157b0575b506132cb61574192935194859283019190602083019252565b6140b061561d565b8a808251830101910161297b565b90851015908161578a575b5061577c575b61577687613204875461160b565b016156cf565b61578581600a55565b615768565b90506157a761579883611bf7565b60005260208052604060002090565b54101538615762565b61574192506157ce6132cb91833d851161046f5761046081836119b4565b9250615728565b6157ec9150853d871161046f5761046081836119b4565b3861568f565b60005460405163cfbffe5360e01b815291906020908190849060049082906001600160a01b03165afa8015610476576119eb9360009161587c575b50604051928284015281835261584283611960565b7f636f6d707574654d696e7456616c75652875696e7432353629000000000000006040519261587084611960565b60198452830152614cef565b6158939150823d841161046f5761046081836119b4565b3861582d565b600090816001815b600f82111561591a575050606560005260046020527ffe4d1297c5434445a55041cf44037c0799556cc55064da684dc6eed1a5dccabf548101809111610ec85760686000526004602052917f1bb2e115e3876ad5c8aaab5c92f44bb73687e05843787aa070fd74a363462588548101809111610ec85790565b909384825260209260218452604090818420548101809111610ec85760229094878552528220548101809111610ec857615954909461275f565b906158a1565b919091803b1561599d5760009261507761598d85946150476040519463ffffffff60e01b90602081519101201694611947565b51915afa615999614fe4565b9091565b5050506000906040516150a78161197c565b60005460405163cfbffe5360e01b815290602090829060049082906001600160a01b03165afa8015610476576119eb91600091615a1a575b506159f0611a75565b90604051906159fe82611960565b600a82526973687574646f776e282960b01b6020830152615174565b615a33915060203d60201161046f5761046081836119b4565b386159e7565b615a41615899565b60046020527fabd6e7cb50984ff9c2f3e18a2660c3353dadf4e3291deeb275dae2cd1e44fe0554600860009081527f2645749a946633740611cfc8178319f0958659d6922e4bf7e3a08b44789f53a454929493928201918210610ec85780600f60409252600460205220548101809111610ec8578103908111610ec85760046020527f1a1e6821cde7d0159c0d293177871e09677b4e42307c7db3ba94f8648a5a050f54600b6000527f0c1469ad586d86b6976c45826d7ae56d76ee516e37a2bccffbe904b74dbae7ea54919391810191908210610ec857601260005260046020526119eb916154ce90600080516020615eb7833981519152611d4d565b60405190615b4c82611960565b6014825273676574627573696e6573732875696e743235362960601b6020830152565b60405190615b7c82611960565b601d82527f67657472616e6b436f756e742875696e743235362c75696e74323536290000006020830152565b60405190615bb582611960565b601782527f726f79616c697479436c617573652875696e74323536290000000000000000006020830152565b9081606091031261047b578051916040602083015192015190565b60008054909291908390615c18906001600160a01b0316610835565b9160405163ab6e844f60e01b8152602081600481875afa801561047657615c6791600091615df7575b5060409593955190615c5f8261089386602083019190602083019252565b611e22615b3f565b92600192600a54955b8685111580615dee575b15615de45760405163ab6e844f60e01b8152602081600481875afa801561047657615cce918a91615dc5575b50604080516020810188905290810188905290615cc68260608101610893565b611e22615b6f565b8015615dba5760405163cfbffe5360e01b8152602081600481885afa801561047657615d23615d32918a938d91615d9b575b5060405190615d1b826108938d602083019190602083019252565b6140b0615ba8565b60208082518301019101615be1565b8293919315615d8c57615d4b90614f866132768c61160b565b8811615d7e5792615d6d615d7895936141026140fc6147c395615d7298613fa2565b613b30565b9461275f565b93615c70565b5050505093615d789061275f565b505050505093615d789061275f565b615db4915060203d60201161046f5761046081836119b4565b38615d00565b5093615d789061275f565b615dde915060203d60201161046f5761046081836119b4565b38615ca6565b9650945050505050565b50851515615c7a565b615e10915060203d60201161046f5761046081836119b4565b38615c4156fe1517c86fcf2bfb8e3468afcc539b0004955da8027797c497ea51d1f1094ab898f7deed9399d719bf61dcb1322c056a03a885c275ab093673b0cc182b84bea0611bb30a1647f6f6723cb3a88838ce0319afabe51263fc466f2f669a7a24ad88c6ac375bcb880242328180c23d4a918023a12a7caf7cf12b8c4074e4a3f39900a0beb3bad75134cb432e5707980e3245c52c5998a1125ee30f2f0dbf3925b1e5517f6fa3f34639ea1891363ca773619dbd5f652d7ab50411111dde2f57e3ae13ad9bbf2ad10217b6212df1939350a047a69b6887b770020d3fa8c328c0653ee98766b61daf77b854ca6ba000a8d4b340eafcdb71b6583753b4af89fceb54988fff4a597304b2df0a7a7b428b3c24c35ba6373aabebf9972387f5610f74a01b21bda26469706673582212207990d45d97bbe93fc3afac001c607f221bf4405d80111473b48a4513ea53c2e664736f6c63430008180033608034620000ae57601f62001d5638819003918201601f19168301916001600160401b03831184841017620000b357808492606094604052833981010312620000ae576200004d81620000c9565b906200006a60406200006260208401620000c9565b9201620000c9565b9060018060a01b03199283600154169060018060a01b039384809216866000541617600055161760015516906003541617600355604051611c779081620000df8239f35b600080fd5b634e487b7160e01b600052604160045260246000fd5b51906001600160a01b0382168203620000ae5756fe60806040526004361015610018575b361561001657005b005b60003560e01c80630399c93c1461014857806312065fe0146101435780631f185d161461013e57806351bfd3ae1461013957806360f96a8f146101345780638129fc1c1461012f578063859d603c1461012a5780638da5cb5b14610125578063a1f7f53914610120578063a3e884b01461011b578063af48452614610116578063af640d0f14610111578063b28175c41461010c578063b90306ad14610107578063c107930a14610102578063c54e44b0146100fd578063e01ad5fd146100f8578063e0a9bc2b146100f35763fdc10bc90361000e5761100d565b610ff2565b610f59565b610ec0565b610cbe565b610c0a565b610be1565b610bc3565b610b92565b610a52565b610973565b61094a565b610886565b610488565b61045f565b610306565b610251565b610235565b610163565b6001600160a01b0381160361015e57565b600080fd5b3461015e57602036600319011261015e576004356101808161014d565b61019061018b611566565b6110a1565b61019933611473565b80156101b2575b906101ad6100169261117b565b611205565b50600054604051630536340960e21b81526001600160a01b0392916020908290600490829087165afa801561023057610016936101ad926000926101ff575b5033911614919250506101a0565b61022291925060203d602011610229575b61021a8183611135565b810190611157565b90386101f1565b503d610210565b61116f565b3461015e57600036600319011261015e57602047604051908152f35b3461015e5760208060031936011261015e57600480356102708161014d565b600054604051634bf9c0ad60e11b81526001600160a01b03949093909182918591829088165afa908115610230576102e3946102d1946000936102e7575b5060405193168184015282526102c3826110f8565b6102cb611276565b906115f5565b60405190151581529081906020820190565b0390f35b6102ff919350823d84116102295761021a8183611135565b91386102ae565b3461015e57602036600319011261015e57600480356103248161014d565b600054602090610344906001600160a01b03165b6001600160a01b031690565b60405163ab6e844f60e01b815293849182905afa918215610230576102e3926103b2926103969260009261043a575b50604080516001600160a01b03909216602083015290926103a491849190820190565b03601f198101845283611135565b6103ac6112a3565b90611639565b6001600160a01b03811615906103f26103db6103cc6112d2565b6103d4611263565b90846115f5565b916103e46112f9565b6103ec611263565b916115f5565b82908115610410575b50506040519115158252509081906020820190565b9192509082610432575b508161042a575b503880806103fb565b905038610421565b91503861041a565b6103a49192506104589060203d6020116102295761021a8183611135565b9190610373565b3461015e57600036600319011261015e576003546040516001600160a01b039091168152602090f35b6000806003193601126108795760055461083b5780546104b0906001600160a01b0316610338565b6040805163013cf08b60e01b8082526000600483015292602091908282602481845afa91821561023057869261081c575b5060015484516001600160a01b03909116848201818152829003808352601f1994919261051f9290916105179060200183611135565b6103ac61167d565b916001600160a01b038316156107545750508554610545906001600160a01b0316610338565b845163ab6e844f60e01b8082529192908581600481875afa9283156102305786918a94610735575b506001546105b1906001600160a01b031689516001600160a01b038216858201908152919690916105a9908390602001038a8101845283611135565b6103ac6116d2565b50600488518096819382525afa9081156102305761061b61064c9361066e9361062993610673978d92610712575b508a51631dd7707560e11b8b8201526001600160a01b03918216602482015292166044830152606488810183526106169083611135565b61175e565b868082518301019101611704565b600380546001600160a01b0319166001600160a01b039092169190911790559092565b60018060a01b03166bffffffffffffffffffffffff60a01b6004541617600455565b600555565b84548290610689906001600160a01b0316610338565b845195865260006004870152859060249082905afa908115610230576106ed9486926106f1575b506001549351634ef260a960e01b938101939093526001600160a01b03909316602483015290916106169083604481015b03908101845283611135565b5080f35b610616925061070c90843d86116102295761021a8183611135565b916106b0565b61061691925061072e908b3d8d116102295761021a8183611135565b91906105df565b61074d919450823d84116102295761021a8183611135565b923861056d565b858594959296975060049350519283809263ab6e844f60e01b82525afa938415610230576107f89561066e956107d6956107c9948a926107fb575b50600354925163b1c4907960e01b878201526001600160a01b039384166024820152939092166044840152906106169083606481016106e1565b80518101820191016116b6565b600480546001600160a01b0319166001600160a01b0390921691909117905590565b80f35b610616925061081690873d89116102295761021a8183611135565b9161078f565b610834919250833d85116102295761021a8183611135565b90386104e1565b60405162461bcd60e51b81526020600482015260166024820152751b594b985b1c9958591e4b9a5b9a5d1a585b1a5e995960521b6044820152606490fd5b80fd5b8015150361015e57565b3461015e57604036600319011261015e576004356108a38161087c565b6024356108af8161014d565b6108ba61018b611566565b6108c333611473565b80156108dc575b916108d76100169361117b565b61131d565b50600054604051630536340960e21b81526001600160a01b0393916020908290600490829088165afa801561023057610016946108d792600092610929575b5033911614919350506108ca565b61094391925060203d6020116102295761021a8183611135565b903861091b565b3461015e57600036600319011261015e576001546040516001600160a01b039091168152602090f35b3461015e57600036600319011261015e5760005460405163d1f956b160e01b815290602090829060049082906001600160a01b03165afa908115610230576102e3916109fc91600091610a0c575b506040516109ce816110f8565b601381527267657464656c656761746f72436f756e74282960681b60208201526109f6611263565b91611824565b6040519081529081906020820190565b610a25915060203d6020116102295761021a8183611135565b386109c1565b608090600319011261015e57600435610a438161014d565b90602435906044359060643590565b610a5b36610a2b565b9260059291925493610a6e8515156111c7565b60018103610a81575061001693506118fa565b91925050600714610a8e57005b600054610aa3906001600160a01b0316610338565b60405191829163ab6e844f60e01b835282600460209586935afa801561023057610b0d94610b0093600092610b6f575b50604051631aa0449160e21b86820152602481019190915260448101929092526106168260648101610396565b8051810182019101611815565b80471015610b1757005b6001547f9e02be43f018109b8d6e8d5b1dbc2539fcd1630bee6f79c4df7989d895fe798f91610b6a91610b549082906001600160a01b0316611c20565b6040805191825242602083015290918291820190565b0390a1005b610616919250610b8b90863d88116102295761021a8183611135565b9190610ad3565b3461015e57602036600319011261015e576020610bb9600435610bb48161014d565b611473565b6040519015158152f35b3461015e57600036600319011261015e576020600554604051908152f35b3461015e57600036600319011261015e576004546040516001600160a01b039091168152602090f35b3461015e57602036600319011261015e57600054604051630536340960e21b8152906001600160a01b03906020908390600490829085165afa91821561023057600092610c9d575b5033911603610c6657610016600435611518565b60405162461bcd60e51b815260206004820152600f60248201526e6f776e2e6e6f6e617574682e44414f60881b6044820152606490fd5b610cb791925060203d6020116102295761021a8183611135565b9038610c52565b610cc736610a2b565b929190600554610cd88115156111c7565b610ce361018b611566565b610cec33611473565b8015610e58575b610cfc9061117b565b610d0761018b611566565b610d1033611473565b8015610deb575b94610d2360049661117b565b610d34610d2f86611473565b611860565b60005460405163ab6e844f60e01b81529660209188919082906001600160a01b03165afa9283156102305761001696600094610dc0575b50604051636e59fe2560e11b602082015260248101939093526001600160a01b0390951660448301526064820193909352608481019390935260a4830191909152600060c48301526106168260e48101610396565b610616945090610de2610396939260203d6020116102295761021a8183611135565b94509091610d6b565b50600054604051630536340960e21b81526001600160a01b039691602090829060049082908b165afa801561023057600497610d2392600092610e37575b503391161491965050610d17565b610e5191925060203d6020116102295761021a8183611135565b9038610e29565b50600054604051630536340960e21b8152906001600160a01b03906020908390600490829085165afa90811561023057610cfc92600092610e9f575b501633149050610cf3565b610eb991925060203d6020116102295761021a8183611135565b9038610e94565b3461015e57602036600319011261015e57600435610edd8161014d565b803b6000610eea82611247565b92610ef86040519485611135565b82845260208401903c602d815110610f1e57602a015160405160609190911c8152602090f35b60405162461bcd60e51b81526020600482015260136024820152724e6f742061206d696e696d616c2070726f787960681b6044820152606490fd5b3461015e5760208060031936011261015e5760048035610f788161014d565b60005460405163d1f956b160e01b81526001600160a01b03949093909182918591829088165afa908115610230576102e3946102d194600093610fd3575b506040519316818401528252610fcb826110f8565b6102cb611539565b610feb919350823d84116102295761021a8183611135565b9138610fb6565b3461015e57600036600319011261015e576020610bb9611566565b3461015e57600036600319011261015e5760005460405163111ea8c160e21b815290602090829060049082906001600160a01b03165afa908115610230576102e3916109fc91600091611082575b50604051611068816110f8565b6005815264616765282960d81b60208201526109f6611263565b61109b915060203d6020116102295761021a8183611135565b3861105b565b156110a857565b60405162461bcd60e51b81526020600482015260126024820152716f776e2e696e76616c69642e69735361666560701b6044820152606490fd5b634e487b7160e01b600052604160045260246000fd5b6040810190811067ffffffffffffffff82111761111457604052565b6110e2565b6020810190811067ffffffffffffffff82111761111457604052565b90601f8019910116810190811067ffffffffffffffff82111761111457604052565b9081602091031261015e575161116c8161014d565b90565b6040513d6000823e3d90fd5b1561118257565b60405162461bcd60e51b815260206004820152601b60248201527f6f776e2e6e6f6e617574682e44414f6f725365637572656261736500000000006044820152606490fd5b156111ce57565b60405162461bcd60e51b815260206004820152600f60248201526e1b594b9a5b9d985b1a590b9a5b9a5d608a1b6044820152606490fd5b61121260055415156111c7565b4761121a5750565b60008080809347908290821561123d575b6001600160a01b031690f11561023057565b6108fc915061122b565b67ffffffffffffffff811161111457601f01601f191660200190565b6040519061127082611119565b60008252565b60405190611283826110f8565b601182527069735369676e657228616464726573732960781b6020830152565b604051906112b0826110f8565b601382527255736572546f496e737428616464726573732960681b6020830152565b604051906112df826110f8565b600b82526a697353757370656e64282960a81b6020830152565b60405190611306826110f8565b600882526769734c6f636b282960c01b6020830152565b90600460055461132e8115156111c7565b600054602090611346906001600160a01b0316610338565b60405163ab6e844f60e01b815293849182905afa938415610230576113fb94846106e1936113d8956000936113fd575b506040805160208101929092526001600160a01b03909216918101919091529115156060830152906106169080608081015b03906113bc601f1992838101835282611135565b60405163a87af76960e01b602082015294859160248301611447565b5060018060a01b03166bffffffffffffffffffffffff60a01b6003541617600355565b565b610616935061141d6113a89160203d6020116102295761021a8183611135565b9350611376565b60005b8381106114375750506000910152565b8181015183820152602001611427565b604091602082526114678151809281602086015260208686019101611424565b601f01601f1916010190565b600054604051634bf9c0ad60e11b815291906020906001600160a01b039082908590600490829085165afa9081156102305761116c946000926114f9575b506040519316828401528183526114c7836110f8565b7469735365637572654261736528616464726573732960581b604051926114ed846110f8565b601584528301526115f5565b611511919250833d85116102295761021a8183611135565b90386114b1565b600080808093818115611530575b8290f11561023057565b506108fc611526565b60405190611546826110f8565b6011825270697364656c656761746f724e6f6465282960781b6020830152565b600054604051634bf9c0ad60e11b815290602090829060049082906001600160a01b03165afa80156102305761116c916000916115d6575b506040516115ab816110f8565b6008815267697353616665282960c01b6020820152604051916115cd83611119565b600083526115f5565b6115ef915060203d6020116102295761021a8183611135565b3861159e565b929161160391600094611b71565b908061162e575b6116115750565b90915060208180518101031261015e576020015161116c8161087c565b50602081511461160a565b929161164791600094611b71565b9080611672575b6116555750565b90915060208180518101031261015e57602001516103388161014d565b50602081511461164e565b6040519061168a826110f8565b601e82527f7265736f6c76655472616e7366657254617267657428616464726573732900006020830152565b919082604091031261015e576020825192015161116c8161014d565b604051906116df826110f8565b601682527567657455736572546f496e737428616464726573732960501b6020830152565b9081606091031261015e57805191604060208301516117228161014d565b92015161116c8161014d565b3d15611759573d9061173f82611247565b9161174d6040519384611135565b82523d6000602084013e565b606090565b6001600160a01b038116156117db5781600092918360208194519301915af161178561172e565b901561178e5790565b80511561179d57805190602001fd5b60405162461bcd60e51b81526020600482015260166024820152751bdddb8b9d185c99d95d0b98d85b1b0b99985a5b195960521b6044820152606490fd5b60405162461bcd60e51b81526020600482015260126024820152711bdddb8b9a5b9d985b1a590b9d185c99d95d60721b6044820152606490fd5b9081602091031261015e575190565b929161183291600094611b71565b9080611855575b6118405750565b61116c91925060208082518301019101611815565b506020815114611839565b1561186757565b60405162461bcd60e51b81526020600482015260136024820152726d652e756e7365637572652e4f52433131353560681b6044820152606490fd5b906046820291808304604614901517156118b857565b634e487b7160e01b600052601160045260246000fd5b906015820291808304601514901517156118b857565b90602d820291808304602d14901517156118b857565b90611907610d2f83611473565b3461191157505050565b6000805490939061192a906001600160a01b0316610338565b60408051928392635e09dbe760e01b845283600460209586935afa93841561023057600494611974918991611b54575b5061196e611967346118a2565b6064900490565b90611c20565b8654839061198a906001600160a01b0316610338565b8351636402742760e01b815295869182905afa938415610230576004946119bf918991611b37575b5061196e611967346118ce565b865483906119d5906001600160a01b0316610338565b83516330125cf560e01b815295869182905afa93841561023057600494611a12918991611b1a575b5061196e611a0a346118e4565b6103e8900490565b86548390611a28906001600160a01b0316610338565b83516324768d9160e01b815295869182905afa93841561023057600494611a5c918991611b1a575061196e611a0a346118e4565b86548390611a72906001600160a01b0316610338565b835163ab6e844f60e01b815295869182905afa93841561023057611aee9794611af1575b506005549151636e59fe2560e11b9381019390935260248301919091526001600160a01b039094166044820152606481019290925260848201929092523460a4820152600160c4820152906106168260e48101610396565b50565b610616945090611b116103969392853d87116102295761021a8183611135565b94509091611a96565b611b319150853d87116102295761021a8183611135565b386119fd565b611b4e9150853d87116102295761021a8183611135565b386119b2565b611b6b9150853d87116102295761021a8183611135565b3861195a565b803b15611c0757604051928251926020938463ffffffff60e01b920120169067ffffffffffffffff851161111457611bf76000959485879660405281810194855260048152611bbf816110f8565b604051938491611bd784840197889251928391611424565b8201611beb82518093868085019101611424565b01038084520182611135565b51915afa611c0361172e565b9091565b505050600090604051611c1981611119565b6000815290565b600080809381938290821561123d576001600160a01b031690f1156102305756fea26469706673582212206b74cc03ecb341de54bff309217b835c075016c8f2e425b1248e86f797a84ddf64736f6c63430008180033a264697066735822122037c86228cc73d65a007b94f53c8e57e2cdccdbc889b00c93a815f9ebec7442a364736f6c63430008180033","linkReferences":{}},"methodIdentifiers":{"_741nested()":"bf359a3a","_dAOAssembly()":"c32a12cd","_dAOCore()":"e494af16","_instance()":"3e9f536a","_instanceStor()":"4d057ca5","_nFTArchive()":"0f636b79","_old741()":"41a24cf1","_price()":"235b6ea1","_tVLFactory()":"5b5f0cb5","_transferRequest()":"7cd1c232","deployInstance(address)":"92a3d262","deployInstanceStor(address)":"0c62aa19"},"id":12}