{"abi":[{"type":"constructor","inputs":[{"name":"_hex","type":"address","internalType":"address"},{"name":"_price","type":"address","internalType":"address"},{"name":"_old741","type":"address","internalType":"address"}],"stateMutability":"nonpayable"},{"type":"function","name":"dAOAssembly","inputs":[],"outputs":[{"name":"","type":"address","internalType":"address"}],"stateMutability":"view"},{"type":"function","name":"daocore","inputs":[],"outputs":[{"name":"","type":"address","internalType":"address"}],"stateMutability":"view"},{"type":"function","name":"nested741","inputs":[],"outputs":[{"name":"","type":"address","internalType":"address"}],"stateMutability":"view"},{"type":"function","name":"old741","inputs":[],"outputs":[{"name":"","type":"address","internalType":"address"}],"stateMutability":"view"},{"type":"function","name":"price","inputs":[],"outputs":[{"name":"","type":"address","internalType":"address"}],"stateMutability":"view"}],"bytecode":{"object":"0x6080346101b757601f619e9138819003918201601f19168301926001600160401b03929091838511838610176101a15781606092849260409788528339810103126101b75761004d816101bc565b6100648461005d602085016101bc565b93016101bc565b9160018060a01b03199273c0cee8b561cc4f60869776ca5b0b7a295e04f5af84600154161760015585516117fd9586820196828810828911176101a15761032583396001600160a01b039485168088526000979092908190036020019088f080156101835785168660035416176003558751615cee808201908282108483111761018d5760209183916141a3833985815203019088f08015610183578516866002541617600255875191612681808401928484109084111761016f57918391602093611b228439815203019086f080156101655790838092168560045416176004551683600154161760015516908254161790555161015490816101d18239f35b86513d87823e3d90fd5b634e487b7160e01b89526041600452602489fd5b88513d89823e3d90fd5b634e487b7160e01b8a52604160045260248afd5b634e487b7160e01b600052604160045260246000fd5b600080fd5b51906001600160a01b03821682036101b75756fe608080604052600436101561001357600080fd5b600090813560e01c90816314837455146100f55750806314d8d024146100ce57806345cff900146100a75780635540c5ac146100805763a035b1fe1461005857600080fd5b3461007d578060031936011261007d576001600160a01b036020915416604051908152f35b80fd5b503461007d578060031936011261007d5760206001600160a01b0360015416604051908152f35b503461007d578060031936011261007d5760206001600160a01b0360025416604051908152f35b503461007d578060031936011261007d5760206001600160a01b0360045416604051908152f35b90503461011a578160031936011261011a576020906001600160a01b03600354168152f35b5080fdfea264697066735822122090679990e9fba2f87518a9fc90344ed0d4992a705be609a81252baaf6ed3ec1064736f6c6343000814003360803461009757601f6117fd38819003918201601f19168301916001600160401b0383118484101761009c5780849260209460405283398101031261009757516001600160a01b038116908190036100975780156100855760018060a01b0319338160015416176001556000541617600055600060125560405161174a90816100b38239f35b60405163e6c4247b60e01b8152600490fd5b600080fd5b634e487b7160e01b600052604160045260246000fdfe60806040526004361015610018575b361561001657005b005b60003560e01c806312065fe0146101185780631f185d161461011357806325924f341461010e578063339459a6146101095780633b9b79551461010457806361b7fbd9146100ff5780638da5cb5b146100fa578063a1f7f539146100f5578063af484526146100f0578063b90306ad146100eb578063c54e44b0146100e6578063c89b84fd146100e1578063dbac26e9146100dc578063e01ad5fd146100d7578063e0a9bc2b146100d25763fdc10bc90361000e57610f09565b610e70565b610df0565b610dad565b610ce8565b610c62565b610b61565b610ae2565b610a6d565b610a46565b61098f565b61095e565b610266565b610235565b61014a565b3461013457600036600319011261013457602047604051908152f35b600080fd5b6001600160a01b0381160361013457565b3461013457602080600319360112610134576101c960043561016b81610139565b6001600160a01b0380600254169060405192168483015283825261018e82610f3a565b6040519061019b82610f3a565b601182527f69735369676e65722861646472657373290000000000000000000000000000008583015261159b565b91908061022b575b156102015781816101eb926101fd94518301019101611504565b60405190151581529081906020820190565b0390f35b60046040517f3204506f000000000000000000000000000000000000000000000000000000008152fd5b50808251146101d1565b3461013457602036600319011261013457602061025c60043561025781610139565b6110c8565b6040519015158152f35b346101345760003660031901126101345761029861028c6000546001600160a01b031690565b6001600160a01b031690565b604051907f97f3815a000000000000000000000000000000000000000000000000000000008252602082600481845afa91821561078e5760009261093d575b50604051917fcfbffe53000000000000000000000000000000000000000000000000000000008352602083600481855afa92831561078e5760009361091c575b50604051907fab6e844f000000000000000000000000000000000000000000000000000000008252602082600481865afa91821561078e576000926108fb575b50604051917f14d8d024000000000000000000000000000000000000000000000000000000008352602083600481875afa92831561078e576000936108da575b50604051927fd1f956b1000000000000000000000000000000000000000000000000000000008452602084600481885afa93841561078e576000946108b9575b50604051937fe61dfd58000000000000000000000000000000000000000000000000000000008552602085600481895afa94851561078e57600095610898575b506040517fe09d394d0000000000000000000000000000000000000000000000000000000081526020816004818a5afa90811561078e57600091610879575b506040517f52b06d640000000000000000000000000000000000000000000000000000000081526020816004818b5afa90811561078e5760009161085a575b506040517f013cf08b00000000000000000000000000000000000000000000000000000000815260006004820152916020836024818c5afa92831561078e57600093610839575b50604051977f5e09dbe70000000000000000000000000000000000000000000000000000000089526020896004818d5afa94851561078e57600499600096610818575b5060208b6040519b8c80927faa0ddc160000000000000000000000000000000000000000000000000000000082525afa96871561078e5760049a6000986107f7575b5060208c6040519c8d80927f640274270000000000000000000000000000000000000000000000000000000082525afa98891561078e5760049b60009a6107d6575b5060208d6040519d8e80927f30125cf50000000000000000000000000000000000000000000000000000000082525afa9a8b1561078e578d60049d60009d6107b4575b506020906040519e8f80927f24768d910000000000000000000000000000000000000000000000000000000082525afa9c8d1561078e5760009d610793575b50604051809e81907f9dc969a80000000000000000000000000000000000000000000000000000000082525a92600491602094fa9d8e1561078e5760009e61075d575b50610671610f94565b6001600160a01b0390911681529d8e906001600160a01b03166020820152604001906106a591906001600160a01b03169052565b6001600160a01b031660608d01526001600160a01b031660808c01526001600160a01b031660a08b01526001600160a01b031660c08a01526001600160a01b031660e08901526001600160a01b03166101008801526001600160a01b03166101208701526001600160a01b03166101408601526001600160a01b03166101608501526001600160a01b03166101808401526001600160a01b03166101a08301526001600160a01b03166101c082015261001690611201565b610780919e5060203d602011610787575b6107788183610f72565b8101906111e0565b9c38610668565b503d61076e565b6111f5565b6107ad919d5060203d602011610787576107788183610f72565b9b38610625565b6020919d506107cf90823d8411610787576107788183610f72565b9c906105e6565b6107f0919a5060203d602011610787576107788183610f72565b98386105a3565b61081191985060203d602011610787576107788183610f72565b9638610561565b61083291965060203d602011610787576107788183610f72565b943861051f565b61085391935060203d602011610787576107788183610f72565b91386104dc565b610873915060203d602011610787576107788183610f72565b38610495565b610892915060203d602011610787576107788183610f72565b38610456565b6108b291955060203d602011610787576107788183610f72565b9338610417565b6108d391945060203d602011610787576107788183610f72565b92386103d7565b6108f491935060203d602011610787576107788183610f72565b9138610397565b61091591925060203d602011610787576107788183610f72565b9038610357565b61093691935060203d602011610787576107788183610f72565b9138610317565b61095791925060203d602011610787576107788183610f72565b90386102d7565b346101345760003660031901126101345760206001600160a01b0360005416604051908152f35b8015150361013457565b34610134576040366003190112610134576004356109ac81610139565b602435906109b982610985565b6001600160a01b039081600554163303610a1c57166000526011602052604060002060ff1981541660ff83151516179055600014610a0a576012546000198114610a0557600101601255005b6111ca565b6012548015610a055760001901601255005b60046040517fea8e4eb5000000000000000000000000000000000000000000000000000000008152fd5b346101345760003660031901126101345760206001600160a01b0360015416604051908152f35b34610134576000366003190112610134576020610ada6001600160a01b0360065416604051610a9b81610f3a565b601381527f67657464656c656761746f72436f756e742829000000000000000000000000008482015260405191610ad183610f56565b600083526116d6565b604051908152f35b3461013457602080600319360112610134576101c9600435610b0381610139565b6001600160a01b03806002541690604051921684830152838252610b2682610f3a565b60405190610b3382610f3a565b601582527f69735365637572654261736528616464726573732900000000000000000000008583015261159b565b34610134576020366003190112610134576004356001600160a01b03600554163303610a1c5760009060046020610ba261028c85546001600160a01b031690565b604051928380927f46f991ac0000000000000000000000000000000000000000000000000000000082525afa801561078e5783808481949382948391610c44575b505af1610bee61156b565b5015610201577fcdcc745fe377b103b45fa0cec23ae3ef93d6fc6a84a01f0d18c40b354dd1d5d8610c3e610c2d61028c600b546001600160a01b031690565b604051938452929081906020820190565b0390a280f35b610c5c915060203d8111610787576107788183610f72565b38610be3565b3461013457602036600319011261013457600435610c7f81610139565b803b6000610c8c82610fb5565b92610c9a6040519485610f72565b82845260208401903c602d815110610cbe57602a602091015160601c604051908152f35b60046040517fbaf3f0f7000000000000000000000000000000000000000000000000000000008152fd5b34610134576000366003190112610134576001600160a01b038060035416610d21610d11610fe4565b91604092835191610ad183610f56565b9160045416610d2e611519565b92825193602085015282840152818352606083019280841067ffffffffffffffff851117610da85783610d99926101fd958552610d6a82610f3a565b601d82527f67657472616e6b436f756e742875696e743235362c75696e743235362900000060808401526116d6565b90519081529081906020820190565b610f24565b34610134576020366003190112610134576001600160a01b03600435610dd281610139565b166000526011602052602060ff604060002054166040519015158152f35b3461013457602036600319011261013457602061025c600435610e1281610139565b6001600160a01b03806006541690604051921684830152838252610e3582610f3a565b60405190610e4282610f3a565b601882527f697364656c656761746f724e6f646528616464726573732900000000000000008583015261169a565b3461013457600036600319011261013457610edc6001600160a01b0360025416604051610e9c81610f3a565b600881527f6973536166652829000000000000000000000000000000000000000000000000602082015260405191610ed383610f56565b6000835261159b565b9080610efe575b15610201576101eb816020806101fd94518301019101611504565b506020815114610ee3565b34610134576000366003190112610134576020610ada611519565b634e487b7160e01b600052604160045260246000fd5b6040810190811067ffffffffffffffff821117610da857604052565b6020810190811067ffffffffffffffff821117610da857604052565b90601f8019910116810190811067ffffffffffffffff821117610da857604052565b604051906101e0820182811067ffffffffffffffff821117610da857604052565b67ffffffffffffffff8111610da857601f01601f191660200190565b60405190610fde82610f56565b60008252565b60405190610ff182610f3a565b600c82527f72616e6b666f7244414f282900000000000000000000000000000000000000006020830152565b6040519061102a82610f3a565b601682527f67657455736572546f53746f72286164647265737329000000000000000000006020830152565b6040519061106382610f3a565b600682527f72616e6b282900000000000000000000000000000000000000000000000000006020830152565b6040519061109c82610f3a565b600882527f69734c6f636b28290000000000000000000000000000000000000000000000006020830152565b6001600160a01b03906110ee82600354166110e1610fe4565b60405191610ad183610f56565b6111366111036004546001600160a01b031690565b604080516001600160a01b038616602080830191909152815291906111289083610f72565b61113061101d565b90611649565b928316156111c25761117261115b61114c611056565b611154610fd1565b90866116d6565b9361116461108f565b61116c610fd1565b9161169a565b92101591826111b9575b5081611186575090565b6111b691506111ab6111b2916001600160a01b03166000526011602052604060002090565b5460ff1690565b1590565b90565b1591503861117c565b505050600090565b634e487b7160e01b600052601160045260246000fd5b9081602091031261013457516111b681610139565b6040513d6000823e3d90fd5b6114e66101c06115029261123b61121f82516001600160a01b031690565b6001600160a01b03166001600160a01b03196002541617600255565b61126e61125260208301516001600160a01b031690565b6001600160a01b03166001600160a01b03196003541617600355565b6112a161128560408301516001600160a01b031690565b6001600160a01b03166001600160a01b03196004541617600455565b6112d46112b860608301516001600160a01b031690565b6001600160a01b03166001600160a01b03196005541617600555565b6113076112eb60808301516001600160a01b031690565b6001600160a01b03166001600160a01b03196006541617600655565b61133a61131e60a08301516001600160a01b031690565b6001600160a01b03166001600160a01b03196007541617600755565b61136d61135160c08301516001600160a01b031690565b6001600160a01b03166001600160a01b03196008541617600855565b6113a061138460e08301516001600160a01b031690565b6001600160a01b03166001600160a01b03196009541617600955565b6113d46113b86101008301516001600160a01b031690565b6001600160a01b03166001600160a01b0319600a541617600a55565b6114086113ec6101208301516001600160a01b031690565b6001600160a01b03166001600160a01b0319600b541617600b55565b61143c6114206101408301516001600160a01b031690565b6001600160a01b03166001600160a01b0319600c541617600c55565b6114706114546101608301516001600160a01b031690565b6001600160a01b03166001600160a01b0319600d541617600d55565b6114a46114886101808301516001600160a01b031690565b6001600160a01b03166001600160a01b0319600e541617600e55565b6114d86114bc6101a08301516001600160a01b031690565b6001600160a01b03166001600160a01b0319600f541617600f55565b01516001600160a01b031690565b6001600160a01b03166001600160a01b03196010541617601055565b565b9081602091031261013457516111b681610985565b6111b66001600160a01b036003541660405161153481610f3a565b600681527f6941676528290000000000000000000000000000000000000000000000000000602082015260405191610ad183610f56565b3d15611596573d9061157c82610fb5565b9161158a6040519384610f72565b82523d6000602084013e565b606090565b9190823b15611630577fffffffff00000000000000000000000000000000000000000000000000000000815160208093012016916040519180830193845281519160005b83811061161c57505050918161160c60248260009795968897018783820152036004810184520182610f72565b51915afa61161861156b565b9091565b8181018301518582016024015282016115df565b50505060009060405161164281610f56565b6000815290565b92916116579160009461159b565b908061168f575b6116655750565b9091506020818051810103126101345760206001600160a01b0391015161168b81610139565b1690565b50602081511461165e565b92916116a89160009461159b565b90806116cb575b6116b65750565b6111b691925060208082518301019101611504565b5060208151146116af565b92916116e49160009461159b565b9080611709575b6116f25750565b909150602081805181010312610134576020015190565b5060208151146116eb56fea2646970667358221220db64d34c89c8957cf977f06f13dfeda224a52d093732b23e29af04848fa8967a64736f6c6343000814003360803461009e57601f6200268138819003918201601f19168301916001600160401b038311848410176100a35780849260209460405283398101031261009e57516001600160a01b0381169081900361009e57801561008c5760018060a01b0319338160015416176001556000541617600055603360115560036012556040516125c79081620000ba8239f35b60405163e6c4247b60e01b8152600490fd5b600080fd5b634e487b7160e01b600052604160045260246000fdfe60806040526004361015610018575b361561001657005b005b60003560e01c8063013cf08b1461019857806312065fe0146101935780631f185d161461018e578063339459a6146101895780633b9b7955146101845780634072265b1461017f578063438596321461017a5780635c622a0e1461017557806365153c4b14610170578063709df8d91461016b5780638da5cb5b1461016657806398e527d314610161578063995e43391461015c578063a1f7f53914610157578063af48452614610152578063b90306ad1461014d578063c54e44b014610148578063c7f758a814610143578063c9d27afe1461013e578063d153356b14610139578063e01ad5fd14610134578063e0a9bc2b1461012f578063fdc10bc91461012a5763ffa734f00361000e576115e2565b611599565b61157e565b611557565b6114b6565b61132d565b6112ad565b6111e1565b6110e0565b610ff9565b610fd6565b610f52565b610f34565b610f0d565b610ece565b610d6f565b610d19565b610cb4565b610c77565b610c50565b610558565b610527565b6104fa565b610435565b6013548110156101d857600c906013600052027f66de8ffda797e3de9c05e8fc57b3bf0ec28a930d40b0d285d93c06501cf6a0900190600090565b634e487b7160e01b600052603260045260246000fd5b90600182811c9216801561021e575b602083101461020857565b634e487b7160e01b600052602260045260246000fd5b91607f16916101fd565b9060009291805491610239836101ee565b91828252600193848116908160001461029b575060011461025b575b50505050565b90919394506000526020928360002092846000945b838610610287575050505001019038808080610255565b805485870183015294019385908201610270565b9294505050602093945060ff191683830152151560051b01019038808080610255565b634e487b7160e01b600052604160045260246000fd5b6040810190811067ffffffffffffffff8211176102f057604052565b6102be565b6020810190811067ffffffffffffffff8211176102f057604052565b90601f8019910116810190811067ffffffffffffffff8211176102f057604052565b9061034e6103479260405193848092610228565b0383610311565b565b60005b8381106103635750506000910152565b8181015183820152602001610353565b9060209161038c81518092818552858086019101610350565b601f01601f1916010190565b9b9997959392909e9d9c9a9896949e8c6101c08091528d016103b991610373565b916001600160a01b031660208d015260408c01528a810360608c01526103de91610373565b9b60808a015260a089015260c088015260e087015261010086015261012085016104089115159052565b15156101408401526001600160a01b031661016083015215156101808201526101a00161034e9115159052565b346104f55760203660031901126104f5576004356013548110156104f55761045c9061019d565b506040519061046f826103478184610228565b6104f161048660018301546001600160a01b031690565b60028301549061049860038501610333565b946004850154946005810154966006820154916007810154600a6008830154920154936040519a8b9a8b9560ff8860b81c169a60ff8960b01c169a6001600160a01b038a60101c169a60ff808c60081c169b1699610398565b0390f35b600080fd5b346104f55760003660031901126104f557602047604051908152f35b6001600160a01b038116036104f557565b346104f55760203660031901126104f557602061054e60043561054981610516565b6121c5565b6040519015158152f35b346104f55760003660031901126104f55761058a61057e6000546001600160a01b031690565b6001600160a01b031690565b604051907f97f3815a000000000000000000000000000000000000000000000000000000008252602082600481845afa918215610a8057600092610c2f575b50604051917fcfbffe53000000000000000000000000000000000000000000000000000000008352602083600481855afa928315610a8057600093610c0e575b50604051907fab6e844f000000000000000000000000000000000000000000000000000000008252602082600481865afa918215610a8057600092610bed575b50604051917f14d8d024000000000000000000000000000000000000000000000000000000008352602083600481875afa928315610a8057600093610bcc575b50604051927fd1f956b1000000000000000000000000000000000000000000000000000000008452602084600481885afa938415610a8057600094610bab575b50604051937fe61dfd58000000000000000000000000000000000000000000000000000000008552602085600481895afa948515610a8057600095610b8a575b506040517fe09d394d0000000000000000000000000000000000000000000000000000000081526020816004818a5afa908115610a8057600091610b6b575b506040517f52b06d640000000000000000000000000000000000000000000000000000000081526020816004818b5afa908115610a8057600091610b4c575b506040517f013cf08b00000000000000000000000000000000000000000000000000000000815260006004820152916020836024818c5afa928315610a8057600093610b2b575b50604051977f5e09dbe70000000000000000000000000000000000000000000000000000000089526020896004818d5afa948515610a8057600499600096610b0a575b5060208b6040519b8c80927faa0ddc160000000000000000000000000000000000000000000000000000000082525afa968715610a805760049a600098610ae9575b5060208c6040519c8d80927f640274270000000000000000000000000000000000000000000000000000000082525afa988915610a805760049b60009a610ac8575b5060208d6040519d8e80927f30125cf50000000000000000000000000000000000000000000000000000000082525afa9a8b15610a80578d60049d60009d610aa6575b506020906040519e8f80927f24768d910000000000000000000000000000000000000000000000000000000082525afa9c8d15610a805760009d610a85575b50604051809e81907f9dc969a80000000000000000000000000000000000000000000000000000000082525a92600491602094fa9d8e15610a805760009e610a4f575b50610963611ded565b6001600160a01b0390911681529d8e906001600160a01b031660208201526040019061099791906001600160a01b03169052565b6001600160a01b031660608d01526001600160a01b031660808c01526001600160a01b031660a08b01526001600160a01b031660c08a01526001600160a01b031660e08901526001600160a01b03166101008801526001600160a01b03166101208701526001600160a01b03166101408601526001600160a01b03166101608501526001600160a01b03166101808401526001600160a01b03166101a08301526001600160a01b03166101c082015261001690611e0e565b610a72919e5060203d602011610a79575b610a6a8183610311565b810190611dc9565b9c3861095a565b503d610a60565b611de1565b610a9f919d5060203d602011610a7957610a6a8183610311565b9b38610917565b6020919d50610ac190823d8411610a7957610a6a8183610311565b9c906108d8565b610ae2919a5060203d602011610a7957610a6a8183610311565b9838610895565b610b0391985060203d602011610a7957610a6a8183610311565b9638610853565b610b2491965060203d602011610a7957610a6a8183610311565b9438610811565b610b4591935060203d602011610a7957610a6a8183610311565b91386107ce565b610b65915060203d602011610a7957610a6a8183610311565b38610787565b610b84915060203d602011610a7957610a6a8183610311565b38610748565b610ba491955060203d602011610a7957610a6a8183610311565b9338610709565b610bc591945060203d602011610a7957610a6a8183610311565b92386106c9565b610be691935060203d602011610a7957610a6a8183610311565b9138610689565b610c0791925060203d602011610a7957610a6a8183610311565b9038610649565b610c2891935060203d602011610a7957610a6a8183610311565b9138610609565b610c4991925060203d602011610a7957610a6a8183610311565b90386105c9565b346104f55760003660031901126104f55760206001600160a01b0360005416604051908152f35b346104f55760203660031901126104f5576004356000198101908111610caf576005610ca460209261019d565b500154604051908152f35b61197d565b346104f55760403660031901126104f557600435602435610cd481610516565b6000198201918211610caf57610d0d60ff916009610cf360209561019d565b5001906001600160a01b0316600052602052604060002090565b54166040519015158152f35b346104f55760203660031901126104f5576004356000198101908111610caf57600a610d4660409261019d565b50015460ff825191818160b01c161515835260b81c1615156020820152f35b801515036104f557565b346104f55760403660031901126104f557600435602435610d8f81610d65565b610d98336121c5565b15610ea4576005610db0610dab84611a0c565b61019d565b50610e74610e67600b8301610df1610dec610de8610de13385906001600160a01b0316600052602052604060002090565b5460ff1690565b1590565b611b47565b610e4f600a850154610e0960ff8260b81c1615611ab1565b610e1860ff8260081c16611a1b565b610e2460ff8216611b92565b610e3b610e2f61224f565b60078801541115611bdd565b60101c6001600160a01b0316331415611c28565b336001600160a01b0316600052602052604060002090565b805460ff19166001179055565b01610e7f8154611c73565b809155601254148015610e9c575b610e9357005b61001691611d45565b508015610e8d565b60046040517fea8e4eb5000000000000000000000000000000000000000000000000000000008152fd5b346104f55760403660031901126104f557600435602435610eee81610516565b6000198201918211610caf57610d0d60ff91600b610cf360209561019d565b346104f55760003660031901126104f55760206001600160a01b0360015416604051908152f35b346104f55760003660031901126104f5576020601354604051908152f35b346104f55760203660031901126104f5576004356000198101908111610caf57610f7b9061019d565b506004810154600682015460078301546008840154600a9094015460408051948552602085019390935291830152606082019290925260ff60b083901c81161515608083015260b89290921c909116151560a082015260c090f35b346104f55760003660031901126104f5576020610ff161233e565b604051908152f35b346104f5576020806003193601126104f55761107860043561101a81610516565b6001600160a01b0380600254169060405192168483015283825261103d826102d4565b6040519061104a826102d4565b601582527f6973536563757265426173652861646472657373290000000000000000000000858301526123c0565b9190806110d6575b156110ac57818161109a926104f19451830101910161212b565b60405190151581529081906020820190565b60046040517f3204506f000000000000000000000000000000000000000000000000000000008152fd5b5080825114611080565b346104f55760203660031901126104f5576004356001600160a01b03600554163303610ea4576000906004602061112161057e85546001600160a01b031690565b604051928380927f46f991ac0000000000000000000000000000000000000000000000000000000082525afa8015610a8057838084819493829483916111c3575b505af161116d612390565b50156110ac577fcdcc745fe377b103b45fa0cec23ae3ef93d6fc6a84a01f0d18c40b354dd1d5d86111bd6111ac61057e600b546001600160a01b031690565b604051938452929081906020820190565b0390a280f35b6111db915060203d8111610a7957610a6a8183610311565b38611162565b346104f55760203660031901126104f5576004356111fe81610516565b803b600061120b8261210f565b926112196040519485610311565b82845260208401903c602d81511061123d57602a602091015160601c604051908152f35b60046040517fbaf3f0f7000000000000000000000000000000000000000000000000000000008152fd5b9491909361128360a0959897949860c0885260c0880190610373565b976001600160a01b0380931660208801526040870152166060850152151560808401521515910152565b346104f55760203660031901126104f5576004356000198101908111610caf576112d69061019d565b506001600160a01b036104f1816001840154169160028401549361130861130f600a8301549260405192838092610228565b0382610311565b60405195869560ff84169460ff8560081c169460101c169287611267565b346104f55760403660031901126104f55760043560243561134d81610d65565b611356336121c5565b8015611493575b611366906119c1565b611372610dab83611a0c565b50600a8101906113ae60ff835461138d828260081c16611a1b565b6113a4600785015461139d61224f565b1115611a66565b60b81c1615611ab1565b600860098201936113e06113db610de8610de13389906001600160a01b0316600052602052604060002090565b611afc565b6000811561148d57506001905b6113ff60ff60048601931683546119b4565b8255600090611480575061143f610e676001965b61142560ff60068801991689546119b4565b8855336001600160a01b0316600052602052604060002090565b5491015480911092831593611474575b505081611467575b5061145e57005b61001690611c82565b5460ff1615905038611457565b5410159150388061144f565b610e6761143f9196611413565b906113ed565b5061149c612140565b801561135d57506113666114af336122aa565b905061135d565b346104f55760403660031901126104f5576114cf612140565b1561152d573330036114e957600435601155602435601255005b606460405162461bcd60e51b815260206004820152600d60248201527f64616f2e66616b652e636f7265000000000000000000000000000000000000006044820152fd5b60046040517f9dc4246e000000000000000000000000000000000000000000000000000000008152fd5b346104f55760203660031901126104f557602061054e60043561157981610516565b6122aa565b346104f55760003660031901126104f557602061054e612140565b346104f55760003660031901126104f5576020610ff161224f565b9181601f840112156104f55782359167ffffffffffffffff83116104f557602083818601950101116104f557565b346104f55760c03660031901126104f55767ffffffffffffffff6004358181116104f5576116149036906004016115b4565b909160243561162281610516565b6064358281116104f55761163a9036906004016115b4565b9160a4359461164886610d65565b6001600160a01b038216156118375760135490680100000000000000008210156102f05761167d60019283810160135561019d565b509581116102f0576116998161169388546101ee565b88611861565b6000601f82116001146117bd57926117049492826116f393600a9998966117a49c6000926117b2575b5050600019600383901b1c191690821b1787555b8601906001600160a01b03166001600160a01b0319825416179055565b6044356002850155600384016118b5565b61172a61172361171e61171561233e565b60115490611993565b6119a6565b6064900490565b600882015561174260843561173d61224f565b6119b4565b60078201550180543360101b75ffffffffffffffffffffffffffffffffffffffff0000167fffffffffffffffffffff000000000000000000000000000000000000000000ff909116176101001760ff191660ff92151592909216919091179055565b601354604051908152602090f35b0135905038806116c2565b601f198216906117d288600052602060002090565b91815b81811061182157509383600a999896936117a49c83946116f3976117049b9910611807575b505050811b0187556116d6565b0135600019600384901b60f8161c191690553880806117fa565b8b830135845592850192602092830192016117d5565b60046040517fe6c4247b000000000000000000000000000000000000000000000000000000008152fd5b90601f811161186f57505050565b600091825260208220906020601f850160051c830194106118ab575b601f0160051c01915b8281106118a057505050565b818155600101611894565b909250829061188b565b90929167ffffffffffffffff81116102f0576118db816118d584546101ee565b84611861565b6000601f8211600114611915578192939460009261190a575b50508160011b916000199060031b1c1916179055565b0135905038806118f4565b601f1982169461192a84600052602060002090565b91805b87811061196557508360019596971061194b575b505050811b019055565b0135600019600384901b60f8161c19169055388080611941565b9092602060018192868601358155019401910161192d565b634e487b7160e01b600052601160045260246000fd5b81810292918115918404141715610caf57565b9060638201809211610caf57565b91908201809211610caf57565b156119c857565b606460405162461bcd60e51b815260206004820152601660248201527f64616f2e6e6f6e617574682e64656c656761746f7273000000000000000000006044820152fd5b600019810191908211610caf57565b15611a2257565b606460405162461bcd60e51b815260206004820152601160248201527f64616f2e70726f702e6e6f7465786973740000000000000000000000000000006044820152fd5b15611a6d57565b606460405162461bcd60e51b815260206004820152601060248201527f64616f2e766f74696e672e656e646564000000000000000000000000000000006044820152fd5b15611ab857565b606460405162461bcd60e51b815260206004820152601560248201527f64616f2e616c72656164792e636f6d706c6574656400000000000000000000006044820152fd5b15611b0357565b606460405162461bcd60e51b815260206004820152601160248201527f64616f2e616c72656164792e766f7465640000000000000000000000000000006044820152fd5b15611b4e57565b606460405162461bcd60e51b815260206004820152601260248201527f64616f2e616c72656164792e7369676e656400000000000000000000000000006044820152fd5b15611b9957565b606460405162461bcd60e51b815260206004820152601360248201527f64616f2e70726f702e6d7573747369676e6564000000000000000000000000006044820152fd5b15611be457565b606460405162461bcd60e51b815260206004820152601360248201527f64616f2e6265666f72652e646561646c696e65000000000000000000000000006044820152fd5b15611c2f57565b606460405162461bcd60e51b815260206004820152601260248201527f64616f2e766f7465722e726573747269637400000000000000000000000000006044820152fd5b6000198114610caf5760010190565b610dab611c8e91611a0c565b5060ff600a8201611cac81600160b81b60ff60b81b19825416179055565b611cde600484015460088501548110159081611d37575b50825460ff60b01b191690151560b01b60ff60b01b16178255565b5460b01c1680611d22575b611cf05750565b80611d086001611d1f9301546001600160a01b031690565b611d19600360028401549301610333565b906124db565b50565b50611d3060038201546101ee565b1515611ce9565b905060068501541038611cc3565b611d54610dab611d9a92611a0c565b50600a8101805460ff60b81b1916600160b81b178155909280611db7575b80611da6575b815460ff60b01b191690151560b01b60ff60b01b161781555460b01c60ff1690565b80611d2257611cf05750565b506004830154600684015410611d78565b50600483015460088401541115611d72565b908160209103126104f55751611dde81610516565b90565b6040513d6000823e3d90fd5b604051906101e0820182811067ffffffffffffffff8211176102f057604052565b6120f36101c061034e92611e48611e2c82516001600160a01b031690565b6001600160a01b03166001600160a01b03196002541617600255565b611e7b611e5f60208301516001600160a01b031690565b6001600160a01b03166001600160a01b03196003541617600355565b611eae611e9260408301516001600160a01b031690565b6001600160a01b03166001600160a01b03196004541617600455565b611ee1611ec560608301516001600160a01b031690565b6001600160a01b03166001600160a01b03196005541617600555565b611f14611ef860808301516001600160a01b031690565b6001600160a01b03166001600160a01b03196006541617600655565b611f47611f2b60a08301516001600160a01b031690565b6001600160a01b03166001600160a01b03196007541617600755565b611f7a611f5e60c08301516001600160a01b031690565b6001600160a01b03166001600160a01b03196008541617600855565b611fad611f9160e08301516001600160a01b031690565b6001600160a01b03166001600160a01b03196009541617600955565b611fe1611fc56101008301516001600160a01b031690565b6001600160a01b03166001600160a01b0319600a541617600a55565b612015611ff96101208301516001600160a01b031690565b6001600160a01b03166001600160a01b0319600b541617600b55565b61204961202d6101408301516001600160a01b031690565b6001600160a01b03166001600160a01b0319600c541617600c55565b61207d6120616101608301516001600160a01b031690565b6001600160a01b03166001600160a01b0319600d541617600d55565b6120b16120956101808301516001600160a01b031690565b6001600160a01b03166001600160a01b0319600e541617600e55565b6120e56120c96101a08301516001600160a01b031690565b6001600160a01b03166001600160a01b0319600f541617600f55565b01516001600160a01b031690565b6001600160a01b03166001600160a01b03196010541617601055565b67ffffffffffffffff81116102f057601f01601f191660200190565b908160209103126104f55751611dde81610d65565b61219b6001600160a01b036002541660405161215b816102d4565b600881527f6973536166652829000000000000000000000000000000000000000000000000602082015260405191612192836102f5565b600083526123c0565b90806121ba575b156110ac5780602080611dde9351830101910161212b565b5060208151146121a2565b6122286001600160a01b0380600254166040519160209416848301528382526121ed826102d4565b604051906121fa826102d4565b601182527f69735369676e6572286164647265737329000000000000000000000000000000858301526123c0565b9080612245575b156110ac5781611dde928251830101910161212b565b508181511461222f565b611dde6001600160a01b036003541660405161226a816102d4565b600681527f69416765282900000000000000000000000000000000000000000000000000006020820152604051916122a1836102f5565b60008352612453565b6001600160a01b03906123118260065416926040519060209316838201528281526122d4816102d4565b6040516122e0816102d4565b601881527f697364656c656761746f724e6f64652861646472657373290000000000000000848201526000946123c0565b919080612334575b61232257505090565b611dde9250808251830101910161212b565b5080825114612319565b611dde6001600160a01b0360065416604051612359816102d4565b601381527f67657464656c656761746f72436f756e742829000000000000000000000000006020820152604051916122a1836102f5565b3d156123bb573d906123a18261210f565b916123af6040519384610311565b82523d6000602084013e565b606090565b803b1561243a576000927fffffffff00000000000000000000000000000000000000000000000000000000836020869551910120169061242a602460405180936020820195865261241a8151809260208686019101610350565b8101036004810184520182610311565b51915afa612436612390565b9091565b50505060009060405161244c816102f5565b6000815290565b9291612461916000946123c0565b9080612486575b61246f5750565b9091506020818051810103126104f5576020015190565b506020815114612468565b90602082519201517fffffffff000000000000000000000000000000000000000000000000000000009081811693600481106124cc57505050565b60040360031b82901b16169150565b9190916001600160a01b0381161561183757600091829184519160208601915af190612505612390565b911561250f575090565b80516000919060041161258b576125269150612491565b8151156125365750805190602001fd5b6040517f21c09d340000000000000000000000000000000000000000000000000000000081527fffffffff00000000000000000000000000000000000000000000000000000000919091166004820152602490fd5b5061252656fea26469706673582212206da97f2e2f8f17851edec0dd6bf5b1f08430a4b32e6e1d58dfbcf9bde351034f64736f6c634300081400336080346200009e57601f62005cee38819003918201601f19168301916001600160401b03831184841017620000a3578084926020946040528339810103126200009e57516001600160a01b038116908190036200009e5780156200008c5760018060a01b03193381600154161760015560005416176000556001601155604051615c349081620000ba8239f35b60405163e6c4247b60e01b8152600490fd5b600080fd5b634e487b7160e01b600052604160045260246000fdfe60806040526004361015610018575b361561001657005b005b60003560e01c8063033eeffb146103985780630e5fd00b1461039357806312065fe01461038e57806313508e371461038957806313cf3d55146103845780631bb49f021461037f5780631c53c2801461037a5780631f185d16146103755780632a687c87146103705780632fefc0bf1461036b578063307673e81461036657806332ff4eab14610361578063339459a61461035c57806333b59a5b146103575780633a7b55b8146103525780633b9b79551461034d5780633baee0ea14610348578063419cb27b1461034357806342cc9d571461033e578063445850971461033957806344668f23146103345780634f0f4aa91461032f578063509222cd1461032a57806350db85d11461032557806361ea720814610320578063629d671e1461031b57806365d2fbd3146103165780636a811244146103115780636fb412ab1461030c57806376fe6c45146103075780637818cdd7146103025780637bb98498146102fd57806380f85e33146102f8578063849c22ad146102f3578063896c354a146102ee5780638da5cb5b146102e957806395f72f49146102e457806398b3f215146102df578063a1f7f539146102da578063a89d693b146102d5578063af484526146102d0578063b1c49079146102cb578063b366335e146102c6578063b90306ad146102c1578063c43792e3146102bc578063c54e44b0146102b7578063c871372b146102b2578063d1e0bbc6146102ad578063dcb3fc4a146102a8578063e01ad5fd146102a3578063e0a9bc2b1461029e578063eb95c66214610299578063eb9e9e2c14610294578063f3ca71241461028f578063fd38093b1461028a5763fdc10bc90361000e5761361d565b6135ad565b613581565b61339b565b61336f565b613354565b613289565b61310a565b6130d0565b613052565b612fcc565b612fa0565b612e9f565b612e29565b612cad565b612c7c565b612b5d565b612ab9565b612a8d565b612a17565b6129f0565b6129b0565b612981565b612947565b61283a565b6127e1565b6126c3565b612527565b61210b565b611c91565b611c53565b611c35565b611b9c565b611b48565b611a63565b611a45565b611a0d565b6119de565b6119aa565b61151e565b6114cf565b611363565b61115c565b610a85565b610a0f565b610970565b610938565b61089b565b6107b4565b61077f565b61071a565b6104a8565b610446565b61042a565b6103da565b346103c45760203660031901126103c45760043560005260196020526020604060002054604051908152f35b600080fd5b6001600160a01b038116036103c457565b346103c45760203660031901126103c45760206004356103f9816103c9565b6001600160a01b03809116600052601282526040600020546000526015825260046040600020015416604051908152f35b346103c45760003660031901126103c457602047604051908152f35b346103c45760203660031901126103c457600435600052601e60205260a0604060002060ff8154916002600182015491015490604051938452602084015281811615156040840152818160081c161515606084015260101c1615156080820152f35b346103c4576020806003193601126103c45760049081356104c76138a9565b6104f06104eb60016104e3846000526015602052604060002090565b015460ff1690565b613fe6565b61052d61052661051a61050d846000526013602052604060002090565b546001600160a01b031690565b6001600160a01b031690565b3314614173565b8161054361051a6000546001600160a01b031690565b6040519485809263111ea8c160e21b82525afa928315610715576000936106e6575b506105c36105a161058361050d846000526013602052604060002090565b6040519182918683019190916001600160a01b036020820193169052565b03946105b5601f199687810184528361279e565b6105bd6141df565b90615a4a565b906001600160a01b0382161515806106dc575b6105e5575b6100166001601155565b6106d29361067061065e61066a61061c600461060e6106cd976000526015602052604060002090565b01546001600160a01b031690565b6040517f4fb2e45d00000000000000000000000000000000000000000000000000000000898201526001600160a01b0390911660248201529182906044820190565b0384810183528261279e565b84615b21565b507fa3e884b00000000000000000000000000000000000000000000000000000000060405194850152836106c160248201906007606060808401936000815260006020820152600060408201520152565b0390810184528361279e565b615b21565b50388080806105db565b50813115156105d6565b610707919350823d841161070e575b6106ff818361279e565b8101906141be565b9138610565565b503d6106f5565b6141d3565b346103c45760203660031901126103c457600435610737816103c9565b6001600160a01b0390811660009081526012602090815260408083205483526015825280832060020154808452601383529281902054815193845290931690820152f35b0390f35b346103c45760203660031901126103c457600435600052601360205260206001600160a01b0360406000205416604051908152f35b346103c4576020806003193601126103c4576108336004356107d5816103c9565b6001600160a01b038060025416906040519216848301528382526107f88261274a565b604051906108058261274a565b601182527f69735369676e6572286164647265737329000000000000000000000000000000858301526159b7565b919080610891575b156108675781816108559261077b945183010191016157e7565b60405190151581529081906020820190565b60046040517f3204506f000000000000000000000000000000000000000000000000000000008152fd5b508082511461083b565b346103c45760403660031901126103c4576024356108b76157fb565b15610927576108c533615880565b8015610913575b1561090257600090808252601a60205260408220549060043582018092116108fd578252601a602052604082205580f35b613878565b600460405163ea8e4eb560e01b8152fd5b50336001600160a01b0360055416146108cc565b6004604051634ee2123760e11b8152fd5b346103c45760203660031901126103c457600435600052601560205260206001600160a01b0360056040600020015416604051908152f35b346103c45760203660031901126103c45760043561098c6138a9565b610a076109f560009280845260156020526109b060ff600160408720015416614173565b33845260126020526109c760408520548214614173565b808452601e6020526109e560ff600260408720015460081c166144b4565b600052601e602052604060002090565b60026000918281558260018201550155565b600160115580f35b346103c45760403660031901126103c457602435610a2b6157fb565b1561092757610a3933615880565b8015610a71575b1561090257600090808252601d60205260408220549060043582018092116108fd578252601d602052604082205580f35b50336001600160a01b036005541614610a40565b346103c45760003660031901126103c457610aab61051a6000546001600160a01b031690565b604051907f97f3815a000000000000000000000000000000000000000000000000000000008252602082600481845afa9182156107155760009261113b575b50604051917fcfbffe53000000000000000000000000000000000000000000000000000000008352602083600481855afa9283156107155760009361111a575b50604051907fab6e844f000000000000000000000000000000000000000000000000000000008252602082600481865afa918215610715576000926110f9575b50604051917f14d8d024000000000000000000000000000000000000000000000000000000008352602083600481875afa928315610715576000936110d8575b50604051927fd1f956b1000000000000000000000000000000000000000000000000000000008452602084600481885afa938415610715576000946110b7575b50604051937fe61dfd58000000000000000000000000000000000000000000000000000000008552602085600481895afa94851561071557600095611096575b506040517fe09d394d0000000000000000000000000000000000000000000000000000000081526020816004818a5afa90811561071557600091611077575b506040517f52b06d640000000000000000000000000000000000000000000000000000000081526020816004818b5afa90811561071557600091611058575b506040517f013cf08b00000000000000000000000000000000000000000000000000000000815260006004820152916020836024818c5afa92831561071557600093611037575b50604051977f5e09dbe70000000000000000000000000000000000000000000000000000000089526020896004818d5afa94851561071557600499600096611016575b5060208b6040519b8c80927faa0ddc160000000000000000000000000000000000000000000000000000000082525afa9687156107155760049a600098610ff5575b5060208c6040519c8d80927f640274270000000000000000000000000000000000000000000000000000000082525afa9889156107155760049b60009a610fd4575b5060208d6040519d8e80927f30125cf50000000000000000000000000000000000000000000000000000000082525afa9a8b15610715578d60049d60009d610fb2575b506020906040519e8f80927f24768d910000000000000000000000000000000000000000000000000000000082525afa9c8d156107155760009d610f91575b50604051809e81907f9dc969a80000000000000000000000000000000000000000000000000000000082525a92600491602094fa9d8e156107155760009e610f70575b50610e846127c0565b6001600160a01b0390911681529d8e906001600160a01b0316602082015260400190610eb891906001600160a01b03169052565b6001600160a01b031660608d01526001600160a01b031660808c01526001600160a01b031660a08b01526001600160a01b031660c08a01526001600160a01b031660e08901526001600160a01b03166101008801526001600160a01b03166101208701526001600160a01b03166101408601526001600160a01b03166101608501526001600160a01b03166101808401526001600160a01b03166101a08301526001600160a01b03166101c0820152610016906154e6565b610f8a919e5060203d60201161070e576106ff818361279e565b9c38610e7b565b610fab919d5060203d60201161070e576106ff818361279e565b9b38610e38565b6020919d50610fcd90823d841161070e576106ff818361279e565b9c90610df9565b610fee919a5060203d60201161070e576106ff818361279e565b9838610db6565b61100f91985060203d60201161070e576106ff818361279e565b9638610d74565b61103091965060203d60201161070e576106ff818361279e565b9438610d32565b61105191935060203d60201161070e576106ff818361279e565b9138610cef565b611071915060203d60201161070e576106ff818361279e565b38610ca8565b611090915060203d60201161070e576106ff818361279e565b38610c69565b6110b091955060203d60201161070e576106ff818361279e565b9338610c2a565b6110d191945060203d60201161070e576106ff818361279e565b9238610bea565b6110f291935060203d60201161070e576106ff818361279e565b9138610baa565b61111391925060203d60201161070e576106ff818361279e565b9038610b6a565b61113491935060203d60201161070e576106ff818361279e565b9138610b2a565b61115591925060203d60201161070e576106ff818361279e565b9038610aea565b346103c4576040806003193601126103c4576024356111796157fb565b156113255761118733615880565b8015611311575b15611301576000916111aa61051a84546001600160a01b031690565b8151809163111ea8c160e21b825281600460209485935afa9081156107155785916112e4575b5084916004355b858111156111e3578680f35b8451828101828152819003808252601f199161121491611206906020018261279e565b61120e615474565b86615a9b565b61122883600052601a602052604060002090565b55875b6008811061124357505061123e90613b58565b6111d7565b86518481018481526020810183905261127a919061126c9082906040010385810183528261279e565b6112746154ad565b87615a9b565b81156112b8575b906112b3916112ad8261129e876000526016602052604060002090565b90600052602052604060002090565b55613b58565b61122b565b95906112c76112b39288613951565b6112db85600052601d602052604060002090565b55905085611281565b6112fb9150823d841161070e576106ff818361279e565b386111d0565b6004825163ea8e4eb560e01b8152fd5b50336001600160a01b03600554161461118e565b60048251634ee2123760e11b8152fd5b60e0810192916000915b6007831061134c57505050565b60019082518152602080910192019201919061133f565b346103c45760203660031901126103c45761077b6004356114bd6114ad6040519261138d84612766565b60e03685376113b96113a9826000526017602052604060002090565b6001600052602052604060002090565b5484526113e36113d3826000526017602052604060002090565b6002600052602052604060002090565b546020850152611410611400826000526017602052604060002090565b6003600052602052604060002090565b54604085015261143d61142d826000526017602052604060002090565b6004600052602052604060002090565b54606085015261146a61145a826000526017602052604060002090565b6005600052602052604060002090565b546080850152611497611487826000526017602052604060002090565b6006600052602052604060002090565b5460a08501526000526017602052604060002090565b6007600052602052604060002090565b5460c082015260405191829182611335565b346103c45760003660031901126103c45760206001600160a01b0360005416604051908152f35b60409060031901126103c45760043561150e816103c9565b9060243561151b816103c9565b90565b346103c45761152c366114f6565b6115346138a9565b61077b61157f611553611545613667565b61154d61367f565b33615a4a565b61159f611569611561613667565b61154d6136b8565b6001600160a01b039386851693851684146136f1565b8361159761051a82600054166001600160a01b031690565b91161461373c565b6115aa811515614092565b6115c7846001600160a01b03166000526012602052604060002090565b5415801561199f575b6115d9906140dd565b6116016115f9866001600160a01b03166000526012602052604060002090565b541515614128565b611637600561060e611626886001600160a01b03166000526012602052604060002090565b546000526015602052604060002090565b6040517f880cdc310000000000000000000000000000000000000000000000000000000060208201526001600160a01b03861660248201529092906116909080604481015b03946106cd601f199687810184528361279e565b506116b961051a600461060e6116268a6001600160a01b03166000526012602052604060002090565b61192c575b6116db866001600160a01b03166000526012602052604060002090565b546116f9866001600160a01b03166000526012602052604060002090565b5561174a8561172f61171e896001600160a01b03166000526012602052604060002090565b546000526013602052604060002090565b906001600160a01b03166001600160a01b0319825416179055565b61178c336004611770611626896001600160a01b03166000526012602052604060002090565b01906001600160a01b03166001600160a01b0319825416179055565b851614159081611907575b6117b4846001600160a01b03166000526012602052604060002090565b54936117cf600561060e876000526015602052604060002090565b956117fe61050d60026117ec896000526015602052604060002090565b01546000526013602052604060002090565b931561189f576106cd6118699361181d6009546001600160a01b031690565b6040517fe3d1d5bf0000000000000000000000000000000000000000000000000000000060208201526001600160a01b03948516602482015294909316604485015283606481016106c1565b505b6118756001601155565b60405193849384916040919493606084019584526001600160a01b03809216602085015216910152565b6106c191506106cd611901936118bd6009546001600160a01b031690565b6040517f9498d88b0000000000000000000000000000000000000000000000000000000060208201526001600160a01b039094166024850152929384906044820190565b5061186b565b6000611926866001600160a01b03166000526012602052604060002090565b55611797565b611999611954600461060e6116268a6001600160a01b03166000526012602052604060002090565b6040517f0399c93c000000000000000000000000000000000000000000000000000000006020820152336024820152906106cd82604481015b0387810184528361279e565b506116be565b5084821681146115d0565b346103c45760203660031901126103c4576004356000526015602052602060ff600160406000200154166040519015158152f35b346103c45760203660031901126103c45760043560005260156020526020600360406000200154604051908152f35b346103c45760203660031901126103c457600435600052601560205260206001600160a01b0360046040600020015416604051908152f35b346103c45760003660031901126103c4576020601f54604051908152f35b346103c45760203660031901126103c457600435806000526015602052604060002054601360205261077b6001600160a01b0380604060002054169360156020526040600020916004600284015493015416611ace600561060e846000526015602052604060002090565b906003611afe611aed60016104e3876000526015602052604060002090565b946000526015602052604060002090565b01549360405197889788939160c09591989796939260e086019986526001600160a01b03938480931660208801526040870152166060850152166080830152151560a08201520152565b346103c45760203660031901126103c4576001600160a01b03600435611b6d816103c9565b1660005260126020526040600020546000526015602052602060ff600160406000200154166040519015158152f35b346103c457611baa366114f6565b611bb26157fb565b1561092757611bc033615880565b8015611c21575b1561090257611bdd91611bd86138a9565b613b67565b8060005260156020526001600160a01b036005604060002001541690611c0281614031565b6001601155604080519182526001600160a01b03929092166020820152f35b50336001600160a01b036005541614611bc7565b346103c45760003660031901126103c4576020601454604051908152f35b346103c45760203660031901126103c4576001600160a01b03600435611c78816103c9565b1660005260126020526020604060002054604051908152f35b346103c45760203660031901126103c457600435611cad6138a9565b6001611cca6104eb826104e3856000526015602052604060002090565b611cf2611cea336001600160a01b03166000526012602052604060002090565b548314614173565b611d0682600052601e602052604060002090565b906002908183019260ff8454818160081c1680612102575b611d2790614566565b60101c16611f585750611d5182611d48866000526015602052604060002090565b015415156145fc565b6000815b611e2d575b505080611dc5846001600160a01b03611d9d600561060e600097611d8b6105db9b6000526015602052604060002090565b01546000526015602052604060002090565b16611dd8575b8454611db59060101c60ff1682614694565b6000526015602052604060002090565b0155805462ff0000191662010000179055565b611e27611df8600561060e86611d8b866000526015602052604060002090565b604051636f58dd0f60e11b602082015260006024820152906106cd82604481015b03601f19810184528361279e565b50611da3565b600380611e4885611d8b896000526015602052604060002090565b0154821015611f525785611e82611e788484611e7289611d8b876000526015602052604060002090565b01613eab565b90549060031b1c90565b14611e975750611e9190613b58565b81611d55565b83925094611f4886611f2a611dc594611f11611ef7611e786105db9c611ecd60009c611d8b8b6000526015602052604060002090565b01611ef187611eea8d611d8b8d6000526015602052604060002090565b0154613942565b90613eab565b9184611e728a611d8b8a6000526015602052604060002090565b90919082549060031b91821b91600019901b1916179055565b611f4285611d8b856000526015602052604060002090565b01614647565b9450819250611d5a565b50611d5a565b611ff86109f594611fc4876003611fbe8897611ffe97611f92859b611f8a6120309f6000526015602052604060002090565b0154156145b1565b019788548091611fac866000526015602052604060002090565b01556000526015602052604060002090565b01613ec8565b83546001600160a01b03611fe7600561060e846000526015602052604060002090565b166120ba575b505460101c60ff1690565b83614694565b61201a61051a600461060e856000526015602052604060002090565b612035575b50600052601e602052604060002090565b6105db565b611e196120b3916106cd61207061050d61205e600461060e896000526015602052604060002090565b93546000526013602052604060002090565b6040517f1499c5920000000000000000000000000000000000000000000000000000000060208201526001600160a01b0390911660248201529283906044820190565b503861201f565b6120d6600561060e6120fb936000526015602052604060002090565b604051636f58dd0f60e11b602082015260016024820152906106cd8260448101611e19565b5038611fed565b50808216611d1e565b346103c4576040806003193601126103c4576004356121286138a9565b6121446104eb60016104e3846000526015602052604060002090565b61216a61216361051a600461060e856000526015602052604060002090565b3314614329565b612172613914565b61077b610100612191600561060e856000526015602052604060002090565b6122b5601f549486805193826121f86121ea6020977f02a085f200000000000000000000000000000000000000000000000000000000898201528061167c60249d8e803590840160209093929193604081019481520152565b878082518301019101614a0f565b9889519261220b888c019485519061389c565b978b61221c8782019a8b519061389c565b61222c606083019182519061389c565b9061223d608084019283519061389c565b97868a8961225160a088019c8d519061389c565b9661226a61226560c08301998a519061389c565b61541a565b8881516124ab575b50509091508251612432575b50505080516123c1575b508051612357575b5061229e865182519061389c565b6122da575b5050505050505060e086015190614b40565b51920151926122c46001601155565b5191825260208201929092529081906040820190565b61234a9663a9059cbb60e01b966106cd956123256106c19461231b61050d61230a600f546001600160a01b031690565b9b6000526013602052604060002090565b935190519061389c565b92519889958601528401602090939291936001600160a01b0360408201951681520152565b50863882818080806122a3565b6123ba9061236d6010546001600160a01b031690565b6106cd61238761050d8a6000526013602052604060002090565b92518b5163a9059cbb60e01b888201526001600160a01b039094168985019081526020810191909152839060400161198d565b5038612290565b61242b906123d7600c546001600160a01b031690565b6106cd6123f161050d8b6000526013602052604060002090565b92518c5163a9059cbb60e01b898201526001600160a01b039094168a8501908152602081019190915283906040010388810184528361279e565b5038612288565b6106cd6124a29361249661246561050d612454600e546001600160a01b031690565b956000526013602052604060002090565b9151945194859263a9059cbb60e01b8c8501528d8401602090939291936001600160a01b0360408201951681520152565b0389810184528361279e565b5038898861227e565b61250f63a9059cbb60e01b946106cd9361251b976124e861050d6124d7600d546001600160a01b031690565b986000526013602052604060002090565b915192519788958601528401602090939291936001600160a01b0360408201951681520152565b038a810184528361279e565b508f8a89899288612272565b346103c45760403660031901126103c4576004356024356125466138a9565b6125626104eb60016104e3856000526015602052604060002090565b61257f61052661051a61050d856000526013602052604060002090565b6125b161259b600561060e856000526015602052604060002090565b6125a3614218565b6125ab613654565b9161598c565b90806125c7602093848082518301019101614251565b10156125d7576100166001601155565b826126b46001600160a01b03927ff526f68a00000000000000000000000000000000000000000000000000000000946126a861268d61050d61267861266a612648612634600561060e6126ba9f6000526015602052604060002090565b976040519182918983019190602083019252565b039761265c601f19998a810184528361279e565b612664614260565b9061598c565b858082518301019101614299565b99925050506000526013602052604060002090565b612695613667565b9060405198899485015260248401614309565b0390810185528461279e565b16615b21565b503880806105db565b346103c45760203660031901126103c45760206004356126e2816103c9565b6001600160a01b03809116600052601282526040600020546000526015825260056040600020015416604051908152f35b634e487b7160e01b600052604160045260246000fd5b6060810190811067ffffffffffffffff82111761274557604052565b612713565b6040810190811067ffffffffffffffff82111761274557604052565b60e0810190811067ffffffffffffffff82111761274557604052565b6020810190811067ffffffffffffffff82111761274557604052565b90601f8019910116810190811067ffffffffffffffff82111761274557604052565b604051906101e0820182811067ffffffffffffffff82111761274557604052565b346103c4576101003660031901126103c45736604312156103c45760405161280881612766565b610104813682116103c4576024905b82821061282a576100168460043561511e565b8135815260209182019101612817565b346103c4576040806003193601126103c457600435906128586157fb565b156129375761286633615880565b8015612923575b156129135761291090600092808452601560205261289360ff6001848720015416613fe6565b8352601e60205260026128fc6128ed611e19848720946128ba60243560018801541461438a565b6128e56128cf6005546001600160a01b031690565b9187549051938491602083019190602083019252565b6126646144ff565b60208082518301019101614545565b5091019060ff801983541691151516179055565b80f35b6004905163ea8e4eb560e01b8152fd5b50336001600160a01b03600554161461286d565b60049051634ee2123760e11b8152fd5b346103c45760403660031901126103c457600435600052601660205260406000206024356000526020526020604060002054604051908152f35b346103c45760203660031901126103c45760043560005260156020526020600260406000200154604051908152f35b346103c45760403660031901126103c457600435600052601560205260206129e16024356003604060002001613eab565b90549060031b1c604051908152f35b346103c45760003660031901126103c45760206001600160a01b0360015416604051908152f35b346103c45760403660031901126103c457602435612a336157fb565b1561092757612a4133615880565b8015612a79575b1561090257600090808252601c60205260408220549060043582018092116108fd578252601c602052604082205580f35b50336001600160a01b036005541614612a48565b346103c45760203660031901126103c457600435600052601d6020526020604060002054604051908152f35b346103c45760003660031901126103c4576020612b266001600160a01b0360065416604051612ae78161274a565b601381527f67657464656c656761746f72436f756e742829000000000000000000000000008482015260405191612b1d83612782565b60008352615a9b565b604051908152f35b610100810192916000915b60088310612b4657505050565b600190825181526020809101920192019190612b39565b346103c45760203660031901126103c45761077b600435612c6a6114ad612b8261539d565b92612ba9612b9a826000526016602052604060002090565b60008052602052604060002090565b548452612bc36113a9826000526016602052604060002090565b546020850152612be06113d3826000526016602052604060002090565b546040850152612bfd611400826000526016602052604060002090565b546060850152612c1a61142d826000526016602052604060002090565b546080850152612c3761145a826000526016602052604060002090565b5460a0850152612c54611487826000526016602052604060002090565b5460c08501526000526016602052604060002090565b5460e082015260405191829182612b2e565b346103c45760203660031901126103c4576020612ca3600435612c9e816103c9565b615880565b6040519015158152f35b346103c457612db5612cbe366114f6565b90612cc76138a9565b612d10612cd5611545613667565b612ce0611561613667565b90612cf96001600160a01b0391828088169116146136f1565b61159761051a82600054166001600160a01b031690565b612d3d612d3860016104e3611626856001600160a01b03166000526012602052604060002090565b613787565b612da6612d9c612d8d612d6b600561060e611626876001600160a01b03166000526012602052604060002090565b60405190612d8582611e1960208201906000602083019252565b6126646137d2565b6020808251830101910161380b565b505050151561382d565b612dae6138e4565b3390613d79565b612dce612b9a601f546000526016602052604060002090565b612dd8815461388e565b9055612de2615446565b612dfb600561060e836000526015602052604060002090565b90612e0581614031565b612e0f6001601155565b604080519182526001600160a01b03929092166020820152f35b346103c45760203660031901126103c457612e426157fb565b1561092757612e5033615880565b8015612e8b575b1561090257612e6461590a565b601f5410612e7b575b610016600435601f5461395e565b612e8361590a565b601f55612e6d565b50336001600160a01b036005541614612e57565b346103c45760203660031901126103c4576004356001600160a01b036005541633036109025760009060046020612ee061051a85546001600160a01b031690565b604051928380927f46f991ac0000000000000000000000000000000000000000000000000000000082525afa80156107155783808481949382948391612f82575b505af1612f2c61595c565b5015610867577fcdcc745fe377b103b45fa0cec23ae3ef93d6fc6a84a01f0d18c40b354dd1d5d8612f7c612f6b61051a600b546001600160a01b031690565b604051938452929081906020820190565b0390a280f35b612f9a915060203d811161070e576106ff818361279e565b38612f21565b346103c45760203660031901126103c457600435600052601b6020526020604060002054604051908152f35b346103c45760203660031901126103c457600435612fe9816103c9565b803b6000612ff682613638565b92613004604051948561279e565b82845260208401903c602d81511061302857602a602091015160601c604051908152f35b60046040517fbaf3f0f7000000000000000000000000000000000000000000000000000000008152fd5b60403660031901126103c4576004356130696138a9565b600090808252601560205261308760ff600160408520015416613fe6565b815260156020526130c76001600160a01b036005604084200154166040519062a0e53360e51b60208301526024356024830152602482526106cd82612729565b50600160115580f35b346103c45760403660031901126103c457600435600052601860205260406000206024356000526020526020604060002054604051908152f35b346103c45760c03660031901126103c4576105db60043560243561312d816103c9565b6064359161322d61321e608435936131436138a9565b61315f6104eb60016104e3876000526015602052604060002090565b61317e61216361051a600461060e886000526015602052604060002090565b613186613914565b61318f856153c2565b613198866153ee565b6131b1600561060e866000526015602052604060002090565b601f546040517fa66303040000000000000000000000000000000000000000000000000000000060208201526001600160a01b039093166024840152604480359084015260648301889052608483019690965260a480359083015260c48201959095528060e4810161167c565b60208082518301019101614374565b928161323b575b5050614e62565b613281916106cd6106c192613258600b546001600160a01b031690565b60405163a9059cbb60e01b60208201523360248201526044810194909452929384906064820190565b503880613234565b346103c4576020806003193601126103c45761077b90600435906132ac826103c9565b6133106001600160a01b03928360065416936040519116838201528281526132d38161274a565b6040516132df8161274a565b601881527f697364656c656761746f724e6f64652861646472657373290000000000000000848201526000946159b7565b91908061334a575b613331575b505060405190151581529081906020820190565b613343925080825183010191016157e7565b388061331d565b5080825114613318565b346103c45760003660031901126103c4576020612ca36157fb565b346103c45760203660031901126103c457600435600052601a6020526020604060002054604051908152f35b346103c4576040806003193601126103c457602435906004356133bc6157fb565b15611325576133ca33615880565b801561356d575b156113015761355c6105db936134706135496106c16134bc966106cd6002976133f86138a9565b6134146104eb60016104e3846000526015602052604060002090565b61343561343060016104e38a6000526015602052604060002090565b61438a565b86613509613452600561060e846000526015602052604060002090565b92613492612d9c61348488518060209d8e8201906000602083019252565b0397612d85601f19998a810184528361279e565b8b808251830101910161380b565b6134c56134c06134ac83600052601e602052604060002090565b9d8e019e8f5460ff9060081c1690565b1590565b6143d5565b85517f7bb98498000000000000000000000000000000000000000000000000000000008a82015260248101919091526044810192909252606483810183528261279e565b6005546001600160a01b031693519485917fffa734f000000000000000000000000000000000000000000000000000000000898401523060248401614420565b9160018501558082518301019101614251565b9055805461ff001916610100179055565b50336001600160a01b0360055416146133d1565b346103c45760203660031901126103c457600435600052601c6020526020604060002054604051908152f35b346103c4576040806003193601126103c4576001600160a01b036004356135d3816103c9565b166000818152601260208181528483205483526019815284832054938352908152838220548252601881528382206024358352815290839020549251918252810191909152604090f35b346103c45760003660031901126103c4576020612b2661590a565b67ffffffffffffffff811161274557601f01601f191660200190565b6040519061366182612782565b60008252565b60405161367381612782565b60008152906000368137565b6040519061368c8261274a565b600782527f6f776e65722829000000000000000000000000000000000000000000000000006020830152565b604051906136c58261274a565b600c82527f67657448657862617365282900000000000000000000000000000000000000006020830152565b156136f857565b606460405162461bcd60e51b815260206004820152601760248201527f6e65737465642e696e76616c69642e696e7374616e63650000000000000000006044820152fd5b1561374357565b606460405162461bcd60e51b815260206004820152601660248201527f6e65737465642e696e76616c69642e68657862617365000000000000000000006044820152fd5b1561378e57565b606460405162461bcd60e51b815260206004820152601860248201527f6e65737465642e706172656e742e6e6f742e65786973747300000000000000006044820152fd5b604051906137df8261274a565b601282527f6765744e6f64654c422875696e743235362900000000000000000000000000006020830152565b91908260809103126103c4578151916020810151916060604083015192015190565b1561383457565b606460405162461bcd60e51b815260206004820152601960248201527f6e65737465642e706172656e742e6e6f2e627573696e657373000000000000006044820152fd5b634e487b7160e01b600052601160045260246000fd5b90600182018092116108fd57565b919082018092116108fd57565b6002601154146138ba576002601155565b60046040517f3ee5aeb5000000000000000000000000000000000000000000000000000000008152fd5b6138ec61590a565b601f5410613904575b6139026005601f5461395e565b565b61390c61590a565b601f556138f5565b61391c61590a565b601f5410613932575b6139026002601f5461395e565b61393a61590a565b601f55613925565b6000198101919082116108fd57565b919082039182116108fd57565b90613976612b9a836000526016602052604060002090565b541580613b03575b80613afa575b61398c575050565b6139a8906139a261399c84613942565b91613942565b9061395e565b6139c7612b9a6139b783613942565b6000526016602052604060002090565b546139df612b9a836000526016602052604060002090565b556139ef6113a96139b783613942565b54613a076113a9836000526016602052604060002090565b55613a176113d36139b783613942565b54613a2f6113d3836000526016602052604060002090565b55613a3f6114006139b783613942565b54613a57611400836000526016602052604060002090565b55613a6761142d6139b783613942565b54613a7f61142d836000526016602052604060002090565b55613a8f61145a6139b783613942565b54613aa761145a836000526016602052604060002090565b55613ab76114876139b783613942565b54613acf611487836000526016602052604060002090565b55613af76114ad613ae56114ad6139b785613942565b54926000526016602052604060002090565b55565b50801515613984565b506001821161397e565b15613b1457565b606460405162461bcd60e51b815260206004820152601560248201527f6e65737465642e616c72656164792e65786973747300000000000000000000006044820152fd5b60001981146108fd5760010190565b90613b98613b936134bc60016104e3611626866001600160a01b03166000526012602052604060002090565b613b0d565b613bab613ba6601454613b58565b601455565b613c0260145492613bca8361172f866000526013602052604060002090565b83613be8846001600160a01b03166000526012602052604060002090565b556001600160a01b03166000526012602052604060002090565b5490613c0e8383613ef0565b613c386004613c27856000526015602052604060002090565b016001600160a01b03198154169055565b613c6b613c55613c506008546001600160a01b031690565b613e15565b6005611770866000526015602052604060002090565b613cf6613c87600561060e866000526015602052604060002090565b91613c9d61051a6000546001600160a01b031690565b6040517f52902c590000000000000000000000000000000000000000000000000000000060208201526001600160a01b0391821660248201529116604482015260648082018690528152601f19926106cd60848361279e565b5081151580613d4f575b613d0957505090565b613d25600561060e613d4b946000526015602052604060002090565b604051636f58dd0f60e11b602082015260016024820152916106cd9083604481016106c1565b5090565b506001600160a01b03613d71600561060e856000526015602052604060002090565b161515613d00565b91613da5613b936134bc60016104e3611626866001600160a01b03166000526012602052604060002090565b613db3613ba6601454613b58565b613c38613df360145494613dd58461172f886000526013602052604060002090565b85613be8856001600160a01b03166000526012602052604060002090565b5492613dff8585613ef0565b6004611770866000526015602052604060002090565b6e5af43d82803e903d91602b57fd5bf390763d602d80600a3d3981f3363d3d373d3d3d363d7300000062ffffff8260881c161760005260781b17602052603760096000f0906001600160a01b03821615613e6b57565b60046040517fb06ebf3d000000000000000000000000000000000000000000000000000000008152fd5b634e487b7160e01b600052603260045260246000fd5b8054821015613ec35760005260206000200190600090565b613e95565b90815491680100000000000000008310156127455782611f1191600161390295018155613eab565b919091600092808452602091601583526040808620956002948386890155846001988981018a60ff198254161790555587613f35866000526018602052604060002090565b83805282528489858520555b613f5057505050505050509050565b613fbe613fad828b8a9414613fc7575b613f74886000526018602052604060002090565b8187528552868620613f86815461388e565b9055613f9c886000526019602052604060002090565b613fa6815461388e565b9055613b58565b956000526015602052604060002090565b01549384613f41565b613fe1896003611fbe8b6000526015602052604060002090565b613f60565b15613fed57565b606460405162461bcd60e51b815260206004820152601560248201527f6e65737465642e757365722e6e6f7461637469766500000000000000000000006044820152fd5b80600052601560205261404e60ff60016040600020015416613fe6565b600052601560205261408f6001600160a01b03600560406000200154166040519062a0e53360e51b602083015260016024830152602482526106cd82612729565b50565b1561409957565b606460405162461bcd60e51b815260206004820152601360248201527f6e65737465642e7a65726f2e61646472657373000000000000000000000000006044820152fd5b156140e457565b606460405162461bcd60e51b815260206004820152601460248201527f6e65737465642e7461726765742e6578697374730000000000000000000000006044820152fd5b1561412f57565b606460405162461bcd60e51b815260206004820152601760248201527f6e65737465642e736f757263652e6e6f744578697374730000000000000000006044820152fd5b1561417a57565b606460405162461bcd60e51b815260206004820152601560248201527f6e65737465642e696e76616c69642e73656e64657200000000000000000000006044820152fd5b908160209103126103c4575161151b816103c9565b6040513d6000823e3d90fd5b604051906141ec8261274a565b601382527f55736572546f496e7374286164647265737329000000000000000000000000006020830152565b604051906142258261274a565b600b82527f6d696e74436f756e7428290000000000000000000000000000000000000000006020830152565b908160209103126103c4575190565b6040519061426d8261274a565b600e82527f6d696e74732875696e74323536290000000000000000000000000000000000006020830152565b91908260809103126103c4578151916020810151916060604083015192015161151b816103c9565b60005b8381106142d45750506000910152565b81810151838201526020016142c4565b906020916142fd815180928185528580860191016142c1565b601f01601f1916010190565b6040906001600160a01b0361151b949316815281602082015201906142e4565b1561433057565b606460405162461bcd60e51b815260206004820152601b60248201527f6e65737465642e757365722e696e76616c6964696e7374616e636500000000006044820152fd5b91908260409103126103c4576020825192015190565b1561439157565b606460405162461bcd60e51b815260206004820152601560248201527f6e65737465642e696e76616c69642e706172656e7400000000000000000000006044820152fd5b156143dc57565b606460405162461bcd60e51b815260206004820152601760248201527f6e65737465642e7265712e616c726561647965786973740000000000000000006044820152fd5b92916144a860a0916001600160a01b0360009460c08852602460c08901527f547269676765722e6e65737465642e70726f706f73616c2e6d6f7665646f776e60e08901527f6c696e65000000000000000000000000000000000000000000000000000000006101008901521660208701528360408701526101208060608801528601906142e4565b93600a60808201520152565b156144bb57565b606460405162461bcd60e51b815260206004820152601360248201527f6e65737465642e7265712e6e6f746578697374000000000000000000000000006044820152fd5b6040519061450c8261274a565b601282527f6765745374617475732875696e743235362900000000000000000000000000006020830152565b519081151582036103c457565b91908260409103126103c45761151b602061455f84614538565b9301614538565b1561456d57565b606460405162461bcd60e51b815260206004820152601660248201527f6e65737465642e7265712e6e6f74617070726f766564000000000000000000006044820152fd5b156145b857565b606460405162461bcd60e51b815260206004820152601860248201527f6e65737465642e757365722e6e6f742e646574616368656400000000000000006044820152fd5b1561460357565b606460405162461bcd60e51b815260206004820152601c60248201527f6e65737465642e757365722e616c72656164792e6465746163686564000000006044820152fd5b805490811561467157600019918201916146618383613eab565b909182549160031b1b1916905555565b634e487b7160e01b600052603160045260246000fd5b80156108fd576000190190565b906146b26146ac836000526019602052604060002090565b5461388e565b91600290816146cb826000526015602052604060002090565b0154906001938492835b6146e3575b50505050505050565b600f8085111580614a06575b15614a00578590600561471361051a8261060e876000526015602052604060002090565b614740575b5050614731614739926000526015602052604060002090565b015493613b58565b92856146d5565b865b8281111561483b5750505061473161473992846000146147d85761478a614773876000526018602052604060002090565b61477c89613942565b600052602052604060002090565b546147ae6147a68961129e856000526018602052604060002090565b91825461389c565b90556147c4816000526019602052604060002090565b6147cf8b825461389c565b90555b92614718565b6147ef614773876000526018602052604060002090565b5461481361480b8961129e856000526018602052604060002090565b918254613951565b9055614829816000526019602052604060002090565b6148348b8254613951565b90556147d2565b909192506148578261060e886000526015602052604060002090565b6148618883613951565b604091876148a36148958551806148816020978883019190602083019252565b0394612d85601f199687810184528361279e565b84808251830101910161380b565b50509290878a8215806149f8575b6149e7579261493994926106c16148de6106cd9461060e6149469b9a986000526015602052604060002090565b94601f9a8c8c5491519889957f7b058ac1000000000000000000000000000000000000000000000000000000008d8801526024870193909594919260809360a086019786526020860152604085015260608401521515910152565b8051810182019101614374565b90871561499d575b80821161496a5750505061496190613b58565b90879291614742565b61497390613b58565b61498c8161129e85546000526016602052604060002090565b614996815461388e565b905561494e565b9190915b8281116149b45750505061496190613b58565b806149d16149e29261129e85546000526016602052604060002090565b6149db8154613942565b9055614687565b6149a1565b505050505050505061496190613b58565b5085156148b1565b506146da565b508115156146ef565b9061012080838303126103c45781601f840112156103c4576040519281840184811067ffffffffffffffff82111761274557604052839181019283116103c457905b828210614a5e5750505090565b8151815260209182019101614a51565b60405190614a7b8261274a565b600f82527f66726565496e74657276616c73282900000000000000000000000000000000006020830152565b60405190614ab48261274a565b601582527f67657452616e6b5769746841676556616c7565282900000000000000000000006020830152565b60405190614aed8261274a565b601382527f72616e6b436c617573652875696e7432353629000000000000000000000000006020830152565b908160a09103126103c4578051916020820151916040810151916080606083015192015190565b919091600392614b71614b5a85546001600160a01b031690565b614b62613667565b90614b6b614a6e565b90615a9b565b9360008092819082948392849185985b600f8a111580614e59575b15614e4b576005614bae61051a8261060e856000526015602052604060002090565b614bdb575b506002614bcd614bd5926000526015602052604060002090565b015499613b58565b98614b81565b8c614bff614bf78361060e866000526015602052604060002090565b6125a3614aa7565b8c614c14602092838082518301019101614374565b829591951580614de2575b1580614dd9575b8015614dd1575b614c3c575b5050505050614bb3565b869e8697929394959603614d10575b50614ccd928b6106cd8c611e19614c77614cd3999761060e614cc0986000526015602052604060002090565b93601f9a8b5460405197889563208bffb160e21b8c8801526024870193909594919260a09360c08601978652600060208701526040860152606085015260808401521515910152565b8051810182019101614251565b9261388e565b80831015614cee57509098905060028c614bd58c3880614c32565b80613f9c614d0b9261129e85546000526016602052604060002090565b614cd3565b9193929a50508a8511614d63575b509087918c86861080801591614d3a575b50159a929193614c4b565b89881015915081614d5b575b5080614d53575b38614d2f565b508815614d4d565b905038614d46565b995095509350859250614db2614da4614d838b546001600160a01b031690565b60405190614d9c82611e19888c83019190602083019252565b612664614ae0565b868082518301019101614b19565b969350909691509594614dc8859b601f54613951565b11969091614d1e565b506000614c2d565b508a1515614c26565b99509b50955095509a50614e2b614e1d838d614d9c614e088f546001600160a01b031690565b60405192830193845291928390602001611e19565b8c8082518301019101614b19565b9e9350909791509695849b859e614e4482601f54613951565b1199614c1f565b505050505050505050509050565b50801515614b8c565b90929192614e7b614b5a6003546001600160a01b031690565b93600091829083809481938280985b600f8a111580615115575b15614e4b57614eb661051a600561060e846000526015602052604060002090565b614eda575b6002614bcd614ed4926000526015602052604060002090565b98614e8a565b8b8a614efb61321e614bf7600561060e876000526015602052604060002090565b82939193156150b8575b821515806150af575b80156150a6575b614f23575b50505050614ebb565b938394819d8d949503614ff0575b50614fb792614ccd926106cd8c611e198f614f5e600561060e614fa8996000526015602052604060002090565b94601f9a8b549060405198899663208bffb160e21b60208901526024880194919260a0949197969360c0870198875260208701526040860152606085015260808401521515910152565b60208082518301019101614251565b80831015614fce57509098905060028a8d38614f1a565b80613f9c614feb9261129e85546000526016602052604060002090565b614fb7565b935050509750828211615042575b50898c878b86851080801591615019575b50159a9291614f31565b8987101591508161503a575b5080615032575b3861500f565b50881561502c565b905038615025565b93509350505061508961507a6150606003546001600160a01b031690565b60405190614d9c82611e1988602083019190602083019252565b60208082518301019101614b19565b935090939150929161509e8592601f54613951565b119338614ffe565b508b1515614f15565b50891515614f0e565b975050509350975050506150f461507a6150da6003546001600160a01b031690565b60405190614d9c82611e1987602083019190602083019252565b999350909391509291818a8d829b61510e89601f54613951565b1197614f05565b50801515614e95565b6151266157fb565b156109275761513433615880565b8015615233575b15610902576151486138e4565b615153811515615247565b6151706151686003546001600160a01b031690565b6125a3615292565b6151846020918280825183010191016152cb565b9061519983600052601a602052604060002090565b549060005b600781106151ae57505050505050565b806151bc61521f9288615348565b51801561522d576151cd8287615348565b51848151928315615224576151f46151f9926151ec6151ff968b61536a565b940151615359565b61536a565b9061537d565b6112ad615216886000526017602052604060002090565b61477c8461388e565b61519e565b50505050613b58565b50613b58565b50336001600160a01b03600554161461513b565b1561524e57565b606460405162461bcd60e51b815260206004820152601260248201527f6e65737465642e696e76616c69642e61676500000000000000000000000000006044820152fd5b6040519061529f8261274a565b601882527f6765744261746368526f79616c7479436c6175736573282900000000000000006020830152565b6102a09081818403126103c45782601f820112156103c45760408051936152f185612766565b84938301928184116103c457935b83851061530e57505050505090565b6060858303126103c457825160609161532682612729565b86518252602091828801518382015285880151868201528152019401936152ff565b906007811015613ec35760051b0190565b90816064029160648304036108fd57565b818102929181159184041417156108fd57565b8115615387570490565b634e487b7160e01b600052601260045260246000fd5b6040519061010080830183811067ffffffffffffffff82111761274557604052368337565b601f5480600052601a6020526040600020549182018092116108fd57600052601a602052604060002055565b601f5480600052601b6020526040600020549182018092116108fd57600052601b602052604060002055565b601f5480600052601c6020526040600020549182018092116108fd57600052601c602052604060002055565b601f5480600052601d60205260406000205490600182018092116108fd57600052601d602052604060002055565b604051906154818261274a565b601482527f676574627573696e6573732875696e74323536290000000000000000000000006020830152565b604051906154ba8261274a565b601d82527f67657472616e6b436f756e742875696e743235362c75696e74323536290000006020830152565b6157cb6101c06139029261552061550482516001600160a01b031690565b6001600160a01b03166001600160a01b03196002541617600255565b61555361553760208301516001600160a01b031690565b6001600160a01b03166001600160a01b03196003541617600355565b61558661556a60408301516001600160a01b031690565b6001600160a01b03166001600160a01b03196004541617600455565b6155b961559d60608301516001600160a01b031690565b6001600160a01b03166001600160a01b03196005541617600555565b6155ec6155d060808301516001600160a01b031690565b6001600160a01b03166001600160a01b03196006541617600655565b61561f61560360a08301516001600160a01b031690565b6001600160a01b03166001600160a01b03196007541617600755565b61565261563660c08301516001600160a01b031690565b6001600160a01b03166001600160a01b03196008541617600855565b61568561566960e08301516001600160a01b031690565b6001600160a01b03166001600160a01b03196009541617600955565b6156b961569d6101008301516001600160a01b031690565b6001600160a01b03166001600160a01b0319600a541617600a55565b6156ed6156d16101208301516001600160a01b031690565b6001600160a01b03166001600160a01b0319600b541617600b55565b6157216157056101408301516001600160a01b031690565b6001600160a01b03166001600160a01b0319600c541617600c55565b6157556157396101608301516001600160a01b031690565b6001600160a01b03166001600160a01b0319600d541617600d55565b61578961576d6101808301516001600160a01b031690565b6001600160a01b03166001600160a01b0319600e541617600e55565b6157bd6157a16101a08301516001600160a01b031690565b6001600160a01b03166001600160a01b0319600f541617600f55565b01516001600160a01b031690565b6001600160a01b03166001600160a01b03196010541617601055565b908160209103126103c45761151b90614538565b6158566001600160a01b03600254166040516158168161274a565b600881527f697353616665282900000000000000000000000000000000000000000000000060208201526040519161584d83612782565b600083526159b7565b9080615875575b15610867578060208061151b935183010191016157e7565b50602081511461585d565b6158e36001600160a01b0380600254166040519160209416848301528382526158a88261274a565b604051906158b58261274a565b601582527f6973536563757265426173652861646472657373290000000000000000000000858301526159b7565b9080615900575b15610867578161151b92825183010191016157e7565b50818151146158ea565b61151b6001600160a01b03600354166040516159258161274a565b600681527f6941676528290000000000000000000000000000000000000000000000000000602082015260405191612b1d83612782565b3d15615987573d9061596d82613638565b9161597b604051938461279e565b82523d6000602084013e565b606090565b9061599792916159b7565b90600090156159a4575090565b60405191506159b282612782565b815290565b803b15615a31576000927fffffffff000000000000000000000000000000000000000000000000000000008360208695519101201690615a216024604051809360208201958652615a1181518092602086860191016142c1565b810103600481018452018261279e565b51915afa615a2d61595c565b9091565b505050600090604051615a4381612782565b6000815290565b9291615a58916000946159b7565b9080615a90575b615a665750565b9091506020818051810103126103c45760206001600160a01b03910151615a8c816103c9565b1690565b506020815114615a5f565b9291615aa9916000946159b7565b9080615acc575b615ab75750565b61151b91925060208082518301019101614251565b506020815114615ab0565b90602082519201517fffffffff00000000000000000000000000000000000000000000000000000000908181169360048110615b1257505050565b60040360031b82901b16169150565b6001600160a01b03811615615bd457600080918351908260208601915af190615b4861595c565b9115615b52575090565b805160009190600411615bce57615b699150615ad7565b815115615b795750805190602001fd5b6040517f21c09d340000000000000000000000000000000000000000000000000000000081527fffffffff00000000000000000000000000000000000000000000000000000000919091166004820152602490fd5b50615b69565b60046040517fe6c4247b000000000000000000000000000000000000000000000000000000008152fdfea2646970667358221220513ae55dd8ad35e03fee26f2756f34cd1e2dfa99c94f515e3651fe0c279754cb64736f6c63430008140033","linkReferences":{}},"methodIdentifiers":{"dAOAssembly()":"14837455","daocore()":"14d8d024","nested741()":"45cff900","old741()":"5540c5ac","price()":"a035b1fe"},"id":62}