{"abi":[{"type":"function","name":"_741Rule","inputs":[],"outputs":[{"name":"","type":"address","internalType":"address"}],"stateMutability":"view"},{"type":"function","name":"_741nested","inputs":[],"outputs":[{"name":"","type":"address","internalType":"address"}],"stateMutability":"view"},{"type":"function","name":"_dAOAssembly","inputs":[],"outputs":[{"name":"","type":"address","internalType":"address"}],"stateMutability":"view"},{"type":"function","name":"_dAOCore","inputs":[],"outputs":[{"name":"","type":"address","internalType":"address"}],"stateMutability":"view"},{"type":"function","name":"_instance","inputs":[],"outputs":[{"name":"","type":"address","internalType":"address"}],"stateMutability":"view"},{"type":"function","name":"_nFTArchive","inputs":[],"outputs":[{"name":"","type":"address","internalType":"address"}],"stateMutability":"view"},{"type":"function","name":"_old741","inputs":[],"outputs":[{"name":"","type":"address","internalType":"address"}],"stateMutability":"view"},{"type":"function","name":"_price","inputs":[],"outputs":[{"name":"","type":"address","internalType":"address"}],"stateMutability":"view"},{"type":"function","name":"_tVLFactory","inputs":[],"outputs":[{"name":"","type":"address","internalType":"address"}],"stateMutability":"view"},{"type":"function","name":"_transferRequest","inputs":[],"outputs":[{"name":"","type":"address","internalType":"address"}],"stateMutability":"view"},{"type":"function","name":"deploy741","inputs":[{"name":"_hex","type":"address","internalType":"address"},{"name":"_inroot","type":"address","internalType":"address"}],"outputs":[],"stateMutability":"nonpayable"}],"bytecode":{"object":"0x608080604052346100595773c0cee8b561cc4f60869776ca5b0b7a295e04f5af60018060a01b0319731a012f860854cfa88d1d1b8d41651d4a1bc980a881600054161760005560015416176001556139d9908161005f8239f35b600080fdfe60806040818152600436101561001457600080fd5b600091823560e01c9081630f636b79146102a857508063235b6ea1146102815780633af3e7d7146102595780633e9f536a1461023157806341a24cf1146102095780635b5f0cb5146101e15780637cd1c232146101b9578063bf359a3a14610191578063c32a12cd14610169578063d79bc757146100c65763e494af161461009b57600080fd5b346100c257816003193601126100c25760045490516001600160a01b039091168152602090f35b5080fd5b50346100c257806003193601126100c2576001600160a01b03906004358281160361016557602435828116036101655780516136d68082019082821067ffffffffffffffff8311176101515760209183916102ce833930815203019084f09081156101485750166bffffffffffffffffffffffff60a01b600254161760025580f35b513d84823e3d90fd5b634e487b7160e01b86526041600452602486fd5b8280fd5b50346100c257816003193601126100c25760055490516001600160a01b039091168152602090f35b50346100c257816003193601126100c25760025490516001600160a01b039091168152602090f35b50346100c257816003193601126100c25760085490516001600160a01b039091168152602090f35b50346100c257816003193601126100c25760035490516001600160a01b039091168152602090f35b50346100c257816003193601126100c25760015490516001600160a01b039091168152602090f35b50346100c257816003193601126100c25760065490516001600160a01b039091168152602090f35b50346100c257816003193601126100c25760095490516001600160a01b039091168152602090f35b50346100c257816003193601126100c257905490516001600160a01b039091168152602090f35b8390346100c257816003193601126100c2576007546001600160a01b03168152602090f3fe6080346200007e57601f620036d638819003918201601f19168301916001600160401b0383118484101762000083578084926020946040528339810103126200007e57516001600160a01b038116908190036200007e5760018060a01b03198060015416600155600054161760005560405161363c90816200009a8239f35b600080fd5b634e487b7160e01b600052604160045260246000fdfe60806040526004361015610018575b361561001657005b005b60003560e01c80630e5fd00b1461026857806312065fe014610263578063175724f61461025e5780631c53c280146102595780631f185d16146102545780632a687c871461024f5780632fefc0bf1461024a57806332ff4eab146102455780633baee0ea14610240578063419cb27b1461023b57806342cc9d571461023657806344585097146102315780634f0f4aa91461022c578063509222cd1461022757806350db85d11461022257806351bfd3ae1461021d57806361ea720814610218578063629d671e146102135780636a8112441461020e5780638954eb7a14610209578063896c354a146102045780638da5cb5b146101ff57806395f72f49146101fa57806398b3f215146101f5578063a1f7f539146101f0578063a87af769146101eb578063af484526146101e6578063b1c49079146101e1578063b90306ad146101dc578063c54e44b0146101d7578063c871372b146101d2578063dcb3fc4a146101cd578063e01ad5fd146101c8578063e0a9bc2b146101c3578063eb95c662146101be578063f3ca7124146101b95763fdc10bc90361000e57611273565b611247565b61121b565b611200565b611167565b6110dd565b611031565b610fb4565b610f00565b610e97565b610e70565b610da9565b610cf7565b610ccb565b610c20565b610bf7565b610bb7565b610b8b565b610b07565b610aca565b610aac565b610953565b61088f565b61083c565b610744565b61070d565b6106de565b6106a4565b6105e5565b610512565b6104db565b61042b565b610361565b61032d565b6102ee565b6102d2565b610283565b6001600160a01b0381160361027e57565b600080fd5b3461027e57602036600319011261027e5760206004356102a28161026d565b60018060a01b03809116600052600382526040600020546000526006825260046040600020015416604051908152f35b3461027e57600036600319011261027e57602047604051908152f35b3461027e57602036600319011261027e5760043560005260066020526020600260406000200154604051908152f35b6000526006602052604060002090565b3461027e57602036600319011261027e576004356000526004602052602060018060a01b0360406000205416604051908152f35b3461027e5760208060031936011261027e57600480356103808161026d565b600054604051634bf9c0ad60e11b81526001600160a01b03949093909182918591829088165afa908115610426576103f3946103e1946000936103f7575b5060405193168184015282526103d3826112ac565b6103db61135b565b906128ca565b60405190151581529081906020820190565b0390f35b610418919350823d841161041f575b61041081836112e9565b81019061130b565b91386103be565b503d610406565b611320565b3461027e57604036600319011261027e5761044c61044761283b565b611388565b61045533612405565b8015610473575b610465906113c9565b61001660243560043561144b565b50600054604051630536340960e21b8152906001600160a01b03906020908390600490829085165afa90811561042657610465926000926104ba575b50163314905061045c565b6104d491925060203d60201161041f5761041081836112e9565b90386104af565b3461027e57602036600319011261027e576004356000526006602052602060018060a01b0360056040600020015416604051908152f35b3461027e57604036600319011261027e5761052e61044761283b565b61053733612405565b8015610555575b610547906113c9565b610016602435600435611475565b50600054604051630536340960e21b8152906001600160a01b03906020908390600490829085165afa908115610426576105479260009261059c575b50163314905061053e565b6105b691925060203d60201161041f5761041081836112e9565b9038610591565b604090600319011261027e576004356105d58161026d565b906024356105e28161026d565b90565b3461027e5760046105f5366105bd565b6106019291923361149f565b6020815191012092602060018060a01b036000541660405194858092631cc3bfab60e31b82525afa8015610426576103f39461064c6106599261065e96600091610685575b5061149f565b60208151910120146114c6565b611537565b604080519384526001600160a01b0392831660208501529116908201529081906060820190565b61069e915060203d60201161041f5761041081836112e9565b38610646565b3461027e57602036600319011261027e5760206106d4600435600052600660205260ff6001604060002001541690565b6040519015158152f35b3461027e57602036600319011261027e5760043560005260066020526020600360406000200154604051908152f35b3461027e57602036600319011261027e576004356000526006602052602060018060a01b0360046040600020015416604051908152f35b3461027e57602036600319011261027e5760043580600052600660205260406000205460046020526103f360018060a01b03806040600020541693600660205260406000209160046002840154930154166107bc60056107ae846000526006602052604060002090565b01546001600160a01b031690565b9060036107f46107e360016107db876000526006602052604060002090565b015460ff1690565b946000526006602052604060002090565b0154604080519788526001600160a01b03988916602089015287019490945286166060860152909416608084015292151560a083015260c082019290925290819060e0820190565b3461027e57602036600319011261027e576004356108598161026d565b60018060a01b031660005260036020526040600020546000526006602052602060ff600160406000200154166040519015158152f35b3461027e5761089d366105bd565b6108a861044761283b565b6108b133612405565b80156108e5575b916108c56108ca936113c9565b6118f6565b604080519283526001600160a01b0391909116602083015290f35b50600054604051630536340960e21b81526001600160a01b0393916020908290600490829088165afa8015610426576108ca946108c592600092610932575b5033911614919350506108b8565b61094c91925060203d60201161041f5761041081836112e9565b9038610924565b3461027e57602036600319011261027e57600480356109718161026d565b600054602090610991906001600160a01b03165b6001600160a01b031690565b60405163ab6e844f60e01b815293849182905afa918215610426576103f3926109ff926109e392600092610a87575b50604080516001600160a01b03909216602083015290926109f191849190820190565b03601f1981018452836112e9565b6109f9611508565b906129f5565b6001600160a01b0381161590610a3f610a28610a19611a7b565b610a21611348565b90846128ca565b91610a31611aa2565b610a39611348565b916128ca565b82908115610a5d575b50506040519115158252509081906020820190565b9192509082610a7f575b5081610a77575b50388080610a48565b905038610a6e565b915038610a67565b6109f1919250610aa59060203d60201161041f5761041081836112e9565b91906109c0565b3461027e57600036600319011261027e576020600554604051908152f35b3461027e57602036600319011261027e57600435610ae78161026d565b60018060a01b031660005260036020526020604060002054604051908152f35b3461027e57604036600319011261027e576004610b233361149f565b8051602091820120600054604051631cc3bfab60e31b815293919291849182906001600160a01b03165afa91821561042657610b6a9261064c91600091610685575061149f565b6103f3610b7b602435600435611b45565b6040519081529081906020820190565b3461027e57602036600319011261027e5760043560005260076020526020604060002054604051908152f35b3461027e57604036600319011261027e5760043560005260066020526020610be86024356003604060002001611fdc565b90549060031b1c604051908152f35b3461027e57600036600319011261027e576001546040516001600160a01b039091168152602090f35b3461027e57604036600319011261027e57610c3c61044761283b565b610c4533612405565b8015610c63575b610c55906113c9565b61001660243560043561200a565b50600054604051630536340960e21b8152906001600160a01b03906020908390600490829085165afa90811561042657610c5592600092610caa575b501633149050610c4c565b610cc491925060203d60201161041f5761041081836112e9565b9038610c9f565b3461027e57602036600319011261027e57600435600052600b6020526020604060002054604051908152f35b3461027e57600036600319011261027e5760005460405163d1f956b160e01b815290602090829060049082906001600160a01b03165afa908115610426576103f391610b7b91600091610d80575b50604051610d52816112ac565b601381527267657464656c656761746f72436f756e74282960681b6020820152610d7a611348565b91612fc8565b610d99915060203d60201161041f5761041081836112e9565b38610d45565b8015150361027e57565b3461027e57606036600319011261027e57602435610dc68161026d565b604435610dd281610d9f565b610ddd61044761283b565b610de633612405565b8015610e02575b91610dfa610016936113c9565b6004356121a3565b50600054604051630536340960e21b81526001600160a01b0393916020908290600490829088165afa80156104265761001694610dfa92600092610e4f575b503391161491935050610ded565b610e6991925060203d60201161041f5761041081836112e9565b9038610e41565b3461027e57602036600319011261027e5760206106d4600435610e928161026d565b612405565b3461027e576004610ea7366105bd565b90610eb13361149f565b8051602091820120600054604051631cc3bfab60e31b815295919291869182906001600160a01b03165afa9081156104265761064c610efb926108ca96600091610685575061149f565b6124aa565b3461027e57602036600319011261027e57600054604051630536340960e21b8152906001600160a01b03906020908390600490829085165afa91821561042657600092610f93575b5033911603610f5c57610016600435612651565b60405162461bcd60e51b815260206004820152600f60248201526e6f776e2e6e6f6e617574682e44414f60881b6044820152606490fd5b610fad91925060203d60201161041f5761041081836112e9565b9038610f48565b3461027e57602036600319011261027e57610fd9600435610fd48161026d565b61149f565b602d815110610ff657602a015160405160609190911c8152602090f35b60405162461bcd60e51b81526020600482015260136024820152724e6f742061206d696e696d616c2070726f787960681b6044820152606490fd5b604036600319011261027e576110a461109561106b60056107ae60043580600052600660205261031d60ff60016040600020015416611ac6565b60405162a0e53360e51b602082015260248035908201529061109082604481016109e3565b61293e565b60208082518301019101612a8c565b805b6110ac57005b6110cc906110b981612a9b565b9182916000526007602052604060002090565b6110d6815461142b565b90556110a6565b3461027e5760c036600319011261027e5760046024356110fc8161026d565b6111053361149f565b8051602091820120600054604051631cc3bfab60e31b815294919291859182906001600160a01b03165afa9081156104265761064c61114f9261001695600091610685575061149f565b60a43590608435906064359060443590600435612688565b3461027e5760208060031936011261027e57600480356111868161026d565b60005460405163d1f956b160e01b81526001600160a01b03949093909182918591829088165afa908115610426576103f3946103e1946000936111e1575b5060405193168184015282526111d9826112ac565b6103db61280e565b6111f9919350823d841161041f5761041081836112e9565b91386111c4565b3461027e57600036600319011261027e5760206106d461283b565b3461027e57602036600319011261027e5760043560005260086020526020604060002054604051908152f35b3461027e57602036600319011261027e57600435600052600a6020526020604060002054604051908152f35b3461027e57600036600319011261027e57602061128e612b1f565b604051908152f35b634e487b7160e01b600052604160045260246000fd5b6040810190811067ffffffffffffffff8211176112c857604052565b611296565b6020810190811067ffffffffffffffff8211176112c857604052565b90601f8019910116810190811067ffffffffffffffff8211176112c857604052565b9081602091031261027e57516105e28161026d565b6040513d6000823e3d90fd5b67ffffffffffffffff81116112c857601f01601f191660200190565b60405190611355826112cd565b60008252565b60405190611368826112ac565b601182527069735369676e657228616464726573732960781b6020830152565b1561138f57565b60405162461bcd60e51b81526020600482015260126024820152716f776e2e696e76616c69642e69735361666560701b6044820152606490fd5b156113d057565b60405162461bcd60e51b815260206004820152601b60248201527f6f776e2e6e6f6e617574682e44414f6f725365637572656261736500000000006044820152606490fd5b634e487b7160e01b600052601160045260246000fd5b906001820180921161143957565b611415565b9190820180921161143957565b90806000526008602052604060002054918201809211611439576000526008602052604060002055565b9080600052600b60205260406000205491820180921161143957600052600b602052604060002055565b90813b60006114ad8261132c565b936114bb60405195866112e9565b82855260208501903c565b156114cd57565b60405162461bcd60e51b81526020600482015260136024820152726f776e2e756e617574682e696e7374616e636560681b6044820152606490fd5b60405190611515826112ac565b601382527255736572546f496e737428616464726573732960681b6020830152565b9061156d60056107ae61155c8560018060a01b03166000526003602052604060002090565b546000526006602052604060002090565b6040805163880cdc3160e01b6020808301919091526001600160a01b0385166024808401919091528252919492601f1992916115ae916110906044836112e9565b506001600160a01b03838116600090815260036020526040902090929083906115dd906004906107ae9061155c565b16156117d557906117319561109061163b9361161360046107ae61155c8a60018060a01b03166000526003602052604060002090565b925162e6724f60e21b9481019490945233602485015283604481015b039081018452836112e9565b505b611672600461166161155c8560018060a01b03166000526003602052604060002090565b0180546001600160a01b0319169055565b6116b733600461169761155c8760018060a01b03166000526003602052604060002090565b0180546001600160a01b0319166001600160a01b03909216919091179055565b61170a836116eb6116da8560018060a01b03166000526003602052604060002090565b546000526004602052604060002090565b80546001600160a01b0319166001600160a01b03909216919091179055565b80831690821603611788575b506001600160a01b0316600090815260036020526040902090565b549061174c60056107ae846000526006602052604060002090565b906105e261177b6002611769866000526006602052604060002090565b01546000526004602052604060002090565b546001600160a01b031690565b6001600160a01b03818116600090815260036020526040808220549285168252812090926117ce9290915b556001600160a01b0316600090815260036020526040902090565b5538611716565b90600495816117ee61098560005460018060a01b031690565b825163111ea8c160e21b815298899182905afa9687156104265761173197611843916000916118d9575b5082516001600160a01b0388168582019081529091906109f1908390602001038781018452836112e9565b90848216611855575b5050505061163d565b81311561184c578051634fb2e45d60e01b848201523360248201526118cf94611090929091611898906118928160448101038581018352826112e9565b8561293e565b505193630a3e884b60e41b908501528361162f60248201906007606060808401936000815260006020820152600060408201520152565b503880808061184c565b6118f09150843d861161041f5761041081836112e9565b38611818565b6117b39161197e6119849261193461192f61192b60016107db61155c8860018060a01b03166000526003602052604060002090565b1590565b612a39565b61193f600554612a7d565b8095819461194c83600555565b611964816116eb856000526004602052604060002090565b6001600160a01b0316600090815260036020526040902090565b5461341b565b61199d6004611661836000526006602052604060002090565b6000546004906020906119b8906001600160a01b0316610985565b60405163e09d394d60e01b815292839182905afa908115610426576119ff916119e991600091611a5c575b5061359e565b6005611697846000526006602052604060002090565b6000805260076020527f6d5257204ebe7d88fd91ae87941cb2dd9d8062b64ae5a2bd2d28ec40b9fbf6df611a33815461142b565b90558091816000526006602052611a5a60018060a01b036005604060002001541692612aa8565b565b611a75915060203d60201161041f5761041081836112e9565b386119e3565b60405190611a88826112ac565b600b82526a697353757370656e64282960a81b6020830152565b60405190611aaf826112ac565b600882526769734c6f636b282960c01b6020830152565b15611acd57565b60405162461bcd60e51b81526020600482015260156024820152746e65737465642e757365722e6e6f7461637469766560581b6044820152606490fd5b91908261010091031261027e5781519160208101519160408201519160608101519160808201519160a08101519160e060c083015192015190565b90611c09611c1392611b6e611b6960016107db846000526006602052604060002090565b611ac6565b611b7e611b79612b1f565b600255565b611c09611c09611c0e611c09611bec611bde6109e3611bac60056107ae8a6000526006602052604060002090565b61109060025460405193849160209e8f63015042f960e11b908501526024840160209093929193604081019481520152565b888082518301019101611b0a565b9c859f9593829c86859d839d989c969597611c098c8e9d9e61143e565b61143e565b612bab565b80611f4c575b5080611eb2575b5080611e18575b5080611d7e575b5080611ce4575b5080611c47575b506105e29250612c1a565b600054600491908590611c62906001600160a01b0316610985565b6040516313b92d3560e31b815293849182905afa8015610426576105e295611cba93600092611cc1575b5060405163a9059cbb60e01b91810191909152336024820152604481019290925261109082606481016109e3565b5038611c3c565b819250611cdd90611090923d851161041f5761041081836112e9565b9190611c8c565b6000546004908690611cfe906001600160a01b0316610985565b6040516324768d9160e01b815292839182905afa801561042657611d54926109e392600092611d5b575b5060405163a9059cbb60e01b898201523360248201526044810191909152916110909083906064820190565b5038611c35565b611090919250611d7790893d8b1161041f5761041081836112e9565b9190611d28565b6000546004908790611d98906001600160a01b0316610985565b6040516324768d9160e01b815292839182905afa801561042657611dee926109e392600092611df5575b5060405163a9059cbb60e01b8a8201523360248201526044810191909152916110909083906064820190565b5038611c2e565b611090919250611e11908a3d8c1161041f5761041081836112e9565b9190611dc2565b6000546004908890611e32906001600160a01b0316610985565b604051635506ee0b60e11b815292839182905afa801561042657611e88926109e392600092611e8f575b5060405163a9059cbb60e01b8b8201523360248201526044810191909152916110909083906064820190565b5038611c27565b611090919250611eab908b3d8d1161041f5761041081836112e9565b9190611e5c565b6000546004908990611ecc906001600160a01b0316610985565b6040516330125cf560e01b815292839182905afa801561042657611f22926109e392600092611f29575b5060405163a9059cbb60e01b8c8201523360248201526044810191909152916110909083906064820190565b5038611c20565b611090919250611f45908c8d3d1061041f5761041081836112e9565b9190611ef6565b600054600491908a90611f67906001600160a01b0316610985565b604051636402742760e01b815293849182905afa801561042657611fb892600091611fbf575b5060405163a9059cbb60e01b818d0152336024820152604481019290925261109082606481016109e3565b5038611c19565b611fd691508b3d8d1161041f5761041081836112e9565b38611f8d565b8054821015611ff45760005260206000200190600090565b634e487b7160e01b600052603260045260246000fd5b9080600052600a60205260406000205491820180921161143957600052600a602052604060002055565b1561203b57565b60405162461bcd60e51b815260206004820152601860248201527f6e65737465642e757365722e6e6f742e646574616368656400000000000000006044820152606490fd5b1561208757565b60405162461bcd60e51b815260206004820152601760248201527f6e65737465642e706172656e742e6e6f746163746976650000000000000000006044820152606490fd5b90815491600160401b8310156112c857826120ef916001611a5a95018155611fdc565b90919082549060031b91821b91600019901b1916179055565b1561210f57565b60405162461bcd60e51b815260206004820152601b60248201527f6e65737465642e757365722e616c726564792e646574616368656400000000006044820152606490fd5b60001981019190821161143957565b805490811561218d576000199182019161217d8383611fdc565b909182549160031b1b1916905555565b634e487b7160e01b600052603160045260246000fd5b929190926001936121c6611b6960016107db856000526006602052604060002090565b8261236557506002936121f0856121e7846000526006602052604060002090565b01541515612108565b600085612207846000526006602052604060002090565b01556000815b612253575b505061224e816003612248611a5a9697612236846000526006602052604060002090565b01546000526006602052604060002090565b016120cc565b61306a565b60038061226e88612236876000526006602052604060002090565b015482101561235f57836122a861229e84846122988c612236876000526006602052604060002090565b01611fdc565b90549060031b1c90565b146122b6575081018161220d565b61224e9250612248876123558361233788966120ef61231d61229e611a5a9e9f61231787612310838f9460039f6122fe61223692612236896000526006602052604060002090565b01956000526006602052604060002090565b0154612154565b90611fdc565b9184612298886122368d6000526006602052604060002090565b61234f83612236886000526006602052604060002090565b01612163565b9796505050612212565b50612212565b611a5a9394506123cd906123906002612388856000526006602052604060002090565b015415612034565b6001600160a01b0381166000908152600360205260409020611964906123c89054600052600660205260ff6001604060002001541690565b612080565b5460026123e4836000526006602052604060002090565b015561224e8160036122486002612236846000526006602052604060002090565b600054604051634bf9c0ad60e11b815291906020906001600160a01b039082908590600490829085165afa908115610426576105e29460009261248b575b50604051931682840152818352612459836112ac565b7469735365637572654261736528616464726573732960581b6040519261247f846112ac565b601584528301526128ca565b6124a3919250833d851161041f5761041081836112e9565b9038612443565b9060009060018060a01b038316825260209260038452604083205483526006845260ff6001604085200154161561260c578161197e61252a9261251261192f61192b60016107db61155c6117b39c9b9a60018060a01b03166000526003602052604060002090565b61251d600554612a7d565b8097819461194c83600555565b612544336004611697866000526006602052604060002090565b8054600490839061255d906001600160a01b0316610985565b60405163e09d394d60e01b815292839182905afa9081156104265761258d936119e993926125ef575b505061359e565b6000805260076020527f6d5257204ebe7d88fd91ae87941cb2dd9d8062b64ae5a2bd2d28ec40b9fbf6df6125c1815461142b565b905580916125cd6132cc565b611a5a6125e960056107ae856000526006602052604060002090565b92612aa8565b6126059250803d1061041f5761041081836112e9565b3880612586565b60405162461bcd60e51b815260048101859052601860248201527f6e65737465642e706172656e742e6e6f742e65786973747300000000000000006044820152606490fd5b600080808093818115612669575b8290f11561042657565b506108fc61265f565b919082604091031261027e576020825192015190565b916127338461274192979596976126b1611b6960016107db896000526006602052604060002090565b6126bc611b79612b1f565b61271f6126d860056107ae896000526006602052604060002090565b978a604051948594602099634996516b60e11b8b880152602487019192608093969594919660a084019760018060a01b031684526020840152604083015260608201520152565b0395611090601f19978881018452836112e9565b828082518301019101612672565b939080612766575b505050612758611a5a946132fa565b61276183613326565b612df0565b60005492969192600491908890612785906001600160a01b0316610985565b604051635e09dbe760e01b815293849182905afa97881561042657611a5a98612758956127e5946000926127ed575b5060405163a9059cbb60e01b938101939093523360248401526044830193909352909161109090836064810161162f565b509438612749565b611090925061280890843d861161041f5761041081836112e9565b916127b4565b6040519061281b826112ac565b6011825270697364656c656761746f724e6f6465282960781b6020830152565b600054604051634bf9c0ad60e11b815290602090829060049082906001600160a01b03165afa8015610426576105e2916000916128ab575b50604051612880816112ac565b6008815267697353616665282960c01b6020820152604051916128a2836112cd565b600083526128ca565b6128c4915060203d60201161041f5761041081836112e9565b38612873565b92916128d89160009461337d565b9080612903575b6128e65750565b90915060208180518101031261027e57602001516105e281610d9f565b5060208151146128df565b3d15612939573d9061291f8261132c565b9161292d60405193846112e9565b82523d6000602084013e565b606090565b6001600160a01b038116156129bb5781600092918360208194519301915af161296561290e565b901561296e5790565b80511561297d57805190602001fd5b60405162461bcd60e51b81526020600482015260166024820152751bdddb8b9d185c99d95d0b98d85b1b0b99985a5b195960521b6044820152606490fd5b60405162461bcd60e51b81526020600482015260126024820152711bdddb8b9a5b9d985b1a590b9d185c99d95d60721b6044820152606490fd5b9291612a039160009461337d565b9080612a2e575b612a115750565b90915060208180518101031261027e57602001516109858161026d565b506020815114612a0a565b15612a4057565b60405162461bcd60e51b81526020600482015260156024820152746e65737465642e616c72656164792e65786973747360581b6044820152606490fd5b60001981146114395760010190565b9081602091031261027e575190565b8015611439576000190190565b611095612ad460056107ae612af89480600052600660205261031d60ff60016040600020015416611ac6565b60405162a0e53360e51b6020820152600160248201529061109082604481016109e3565b805b612b015750565b612b0e906110b981612a9b565b612b18815461142b565b9055612afa565b60005460405163111ea8c160e21b815290602090829060049082906001600160a01b03165afa8015610426576105e291600091612b8c575b50604051612b64816112ac565b6005815264616765282960d81b602082015260405191612b83836112cd565b60008352612fc8565b612ba5915060203d60201161041f5761041081836112e9565b38612b57565b60025480600052600a60205260406000205491820180921161143957600052600a602052604060002055565b604051612be3816112cd565b60008152906000368137565b60405190612bfc826112ac565b600f82526e66726565496e74657276616c73282960881b6020830152565b6000805491939291612c34906001600160a01b0316610985565b91604091604051809463cfbffe5360e01b825281600460209788935afa801561042657612c7b91600091612dd3575b50612c6c612bd7565b90612c75612bef565b90612fc8565b906000965b600f88111580612dca575b15612dc0576005612cad610985826107ae856000526006602052604060002090565b15612db557889081151580612dac575b8015612da5575b612cf2575b50506002612ce4612cec926000526006602052604060002090565b015497612a7d565b96612c80565b612d6691612d11612d58926107ae866000526006602052604060002090565b60025489516357a0024560e11b818d01526000602482018190526044820152606481018a9052608481019390935260a483015260c482018790526110908260e481016109e3565b878082518301019101612672565b905b808211612d7757899150612cc9565b612d8090612a7d565b612d94816000526007602052604060002090565b612d9e815461142b565b9055612d68565b5083612cc4565b50851515612cbd565b5096612cec90612a7d565b5050505050509050565b50801515612c8b565b612dea9150863d881161041f5761041081836112e9565b38612c63565b6000805491949391612e0a906001600160a01b0316610985565b92604091604051809563cfbffe5360e01b825281600460209889935afa801561042657612e4191600091612fb15750612c6c612bd7565b906000975b600f89111580612fa8575b15612f9d576005612e73610985826107ae856000526006602052604060002090565b15612f9257868885888d899581151580612f8b575b8015612f82575b612ec2575b505050505050506002612eb4612ebc926000526006602052604060002090565b015498612a7d565b97612e46565b612f30959361109093612f3e989693612eec6109e3946107ae8d6000526006602052604060002090565b9660025492519889966357a0024560e11b9088015260248701919260a093969594919660c08401978452602084015260006040840152606083015260808201520152565b888082518301019101612672565b905b808211612f545750868885888d8995612e94565b612f5d90612a7d565b612f71816000526007602052604060002090565b612f7b815461142b565b9055612f40565b50861515612e8f565b5088612e88565b5097612ebc90612a7d565b505050505050509050565b50801515612e51565b612dea9150873d891161041f5761041081836112e9565b9291612fd69160009461337d565b9080612ff9575b612fe45750565b6105e291925060208082518301019101612a8c565b506020815114612fdd565b60405190613011826112ac565b600e82526d6c766c62732875696e743235362960901b6020830152565b6040519061303b826112ac565b600f82526e6c766c7174792875696e743235362960881b6020830152565b60ff1660ff81146114395760010190565b60059061308660056107ae836000526006602052604060002090565b604090604051906130c2602092806130a660208201906000602083019252565b03926130ba601f19948581018452836112e9565b612c75613004565b9261310d6130df60056107ae886000526006602052604060002090565b60405190613105826130f960208201906000602083019252565b038681018452836112e9565b612c7561302e565b91600261312581976000526006602052604060002090565b0154600197889691875b613141575b5050505050505050505050565b600f60ff89161115806132c3575b156132be57888b613171610985856107ae866000526006602052604060002090565b156132b257876131ee926110908b6131e2612f30958f8d906131a18c6107ae8d6000526006602052604060002090565b96549151978895637b058ac160e01b908701528d60248701939095949160809360ff9160a08701988752602087015216604085015260608401521515910152565b038981018452836112e9565b908c1561325b57908a915b808211613228575050613219613221926000526006602052604060002090565b015497613059565b968961312f565b613233919250612a7d565b613247816000526007602052604060002090565b613251815461142b565b9055908a916131f9565b8a915b80821161327e575050613219613221926000526006602052604060002090565b90915061329e61328d83612a9b565b926000526007602052604060002090565b6132a88154612154565b9055908a9161325e565b50509661322190613059565b613134565b5080151561314f565b60025480600052600b602052604060002054906001820180921161143957600052600b602052604060002055565b600254806000526008602052604060002054918201809211611439576000526008602052604060002055565b600254806000526009602052604060002054918201809211611439576000526009602052604060002055565b9081519160005b83811061336a575050016000815290565b8060208092840101518185015201613359565b803b15613402576040519163ffffffff60e01b9060208151910120169167ffffffffffffffff81116112c8576133e46133f26000958695846040526020850152600484526133ca846112ac565b6040519283916133de602084018097613352565b90613352565b03601f1981018352826112e9565b51915afa6133fe61290e565b9091565b505050600090604051613414816112cd565b6000815290565b604051919067ffffffffffffffff9060c08401828111858210176112c8576040526000918285526020808601936040870191606088019260608452608089019683885261348d60a08b0199858b528884526001986001845280613581575b50808c526000526006602052604060002090565b99518a5560018a019051151560ff8019835416911617905551600289015560038801925180519485116112c857600160401b85116112c8578354858555808610613559575b5060206134e6910193600052602060002090565b915b84811061354857505093516004870180546001600160a01b0319166001600160a01b039283161790559451611a5a969560059550169250613527915050565b910180546001600160a01b0319166001600160a01b03909216919091179055565b8351838201559281019285016134e8565b84845286866020862092830192015b8281106135765750506134d2565b858155018790613568565b8652600660205261359881600360408920016120cc565b38613479565b6e5af43d82803e903d91602b57fd5bf390763d602d80600a3d3981f3363d3d373d3d3d363d7300000062ffffff8260881c161760005260781b17602052603760096000f0906001600160a01b038216156135f457565b60405163b06ebf3d60e01b8152600490fdfea264697066735822122028f3bb5488b0e91118ae4d3a64e2ff772c8fb2672f03147c7fe0b4fde56c084d64736f6c63430008180033a2646970667358221220005d25bc3722d5ba0d9a6a11834065f8cc5d319c0d224c5b99afa47b0ada2ac764736f6c63430008180033","linkReferences":{}},"methodIdentifiers":{"_741Rule()":"3af3e7d7","_741nested()":"bf359a3a","_dAOAssembly()":"c32a12cd","_dAOCore()":"e494af16","_instance()":"3e9f536a","_nFTArchive()":"0f636b79","_old741()":"41a24cf1","_price()":"235b6ea1","_tVLFactory()":"5b5f0cb5","_transferRequest()":"7cd1c232","deploy741(address,address)":"d79bc757"},"id":12}