{"abi":[{"type":"constructor","inputs":[{"name":"_hex","type":"address","internalType":"address"}],"stateMutability":"nonpayable"},{"type":"function","name":"instance","inputs":[],"outputs":[{"name":"","type":"address","internalType":"address"}],"stateMutability":"view"},{"type":"function","name":"tVLFactory","inputs":[],"outputs":[{"name":"","type":"address","internalType":"address"}],"stateMutability":"view"},{"type":"function","name":"tVLMining","inputs":[],"outputs":[{"name":"","type":"address","internalType":"address"}],"stateMutability":"view"},{"type":"function","name":"tVLReward","inputs":[],"outputs":[{"name":"","type":"address","internalType":"address"}],"stateMutability":"view"},{"type":"function","name":"tVLRoyality","inputs":[],"outputs":[{"name":"","type":"address","internalType":"address"}],"stateMutability":"view"},{"type":"function","name":"tVLTour","inputs":[],"outputs":[{"name":"","type":"address","internalType":"address"}],"stateMutability":"view"},{"type":"function","name":"tVLValidator","inputs":[],"outputs":[{"name":"","type":"address","internalType":"address"}],"stateMutability":"view"}],"bytecode":{"object":"0x60803461023957601f61461338819003918201601f19168301926001600160401b039290919083851183861017610223578083926040968752833960209283918101031261023957516001600160a01b0391908281169081900361023957845191612b16928381019381851087861117610223576103f482398284528681600095868582015203019084f09485156102195783549585166001600160a01b031996871617845586516117098082019491808610848711176101e7578481612f0a978489833985815203019087f080156101fb578716886001541617600155885181810181811085821117610205578186918489833985815203019087f080156101fb578716886002541617600255885181810181811085821117610205578186918489833985815203019087f080156101fb578716886003541617600355885181810181811085821117610205578186918489833985815203019087f080156101fb578716886004541617600455885181810181811085821117610205578186918489833985815203019087f080156101fb57871688600554161760055588519481860193868510908511176101e75790859392918439815203019082f09081156101dc575016906006541617600655516101b5908161023f8239f35b8451903d90823e3d90fd5b634e487b7160e01b87526041600452602487fd5b89513d88823e3d90fd5b634e487b7160e01b88526041600452602488fd5b86513d85823e3d90fd5b634e487b7160e01b600052604160045260246000fd5b600080fdfe60806040818152600436101561001457600080fd5b600091823560e01c908163022ec0951461015c575080639443767c146101355780639ba540fb1461010e578063a50c0bc0146100e7578063b85c9faf146100c0578063d795ff38146100995763dabf429d1461006f57600080fd5b346100955781600319360112610095576020906001600160a01b03600554169051908152f35b5080fd5b50346100955781600319360112610095576020906001600160a01b03600254169051908152f35b50346100955781600319360112610095576020906001600160a01b03600354169051908152f35b50346100955781600319360112610095576020906001600160a01b03600654169051908152f35b50346100955781600319360112610095576020906001600160a01b03600154169051908152f35b50346100955781600319360112610095576020906001600160a01b03600454169051908152f35b8390346100955781600319360112610095576001600160a01b0360209254168152f3fea2646970667358221220a03892ca2d5ad2e9520481528a8fca2659bee6ce32b16fb33aaab9627be7917b64736f6c63430008140033608034620000c157601f62002b1638819003918201601f19168301916001600160401b03831184841017620000c6578084926040948552833981010312620000c1576200005a60206200005283620000dc565b9201620000dc565b6001600160a01b0391821691908215620000af5760018060a01b03199283600154169084600054161760005560016011553390843316171760015516906012541617601255604051612a249081620000f28239f35b60405163e6c4247b60e01b8152600490fd5b600080fd5b634e487b7160e01b600052604160045260246000fd5b51906001600160a01b0382168203620000c15756fe60806040526004361015610018575b361561001657005b005b60003560e01c80630399c93c146101d857806306fdde03146101d357806312065fe0146101ce5780631499c592146101c95780631f185d16146101c45780631f3c99c3146101bf578063339459a6146101ba5780633b9b7955146101b55780633dbfd97c146101b057806360f96a8f146101ab578063641657cb146101a65780638129fc1c146101a15780638da5cb5b1461019c5780639c75dd3514610197578063a1f7f53914610192578063a3e884b01461018d578063af48452614610188578063af640d0f14610183578063b28175c41461017e578063b90306ad14610179578063c107930a14610174578063c47f00271461016f578063c54e44b01461016a578063cfcf2c2d14610165578063d4ace81b14610160578063e01ad5fd1461015b578063e0a9bc2b146101565763fdc10bc90361000e5761127c565b611261565b6111e1565b6111c1565b61119e565b611118565b6110a5565b610f57565b610e28565b610e01565b610de3565b610db2565b610c18565b610b7c565b610b60565b610b39565b61083e565b6107c9565b610798565b6106e9565b6106c2565b6106a9565b610670565b610589565b6104f1565b6104d5565b6103f0565b6101f3565b6001600160a01b038116036101ee57565b600080fd5b346101ee5760203660031901126101ee57600435610210816101dd565b610218612578565b156102ab57610226336125fd565b8015610297575b1561026d576102669061024360155415156112e2565b61024b6116b8565b61025f6001600160a01b0382161515611b30565b4790612709565b6001601155005b60046040517fea8e4eb5000000000000000000000000000000000000000000000000000000008152fd5b50336001600160a01b03600554161461022d565b60046040517f9dc4246e000000000000000000000000000000000000000000000000000000008152fd5b90600182811c92168015610305575b60208310146102ef57565b634e487b7160e01b600052602260045260246000fd5b91607f16916102e4565b634e487b7160e01b600052604160045260246000fd5b6040810190811067ffffffffffffffff82111761034157604052565b61030f565b6020810190811067ffffffffffffffff82111761034157604052565b610100810190811067ffffffffffffffff82111761034157604052565b90601f8019910116810190811067ffffffffffffffff82111761034157604052565b60005b8381106103b45750506000910152565b81810151838201526020016103a4565b604091602082526103e481518092816020860152602086860191016103a1565b601f01601f1916010190565b346101ee576000806003193601126104d2576040519080601454610413816102d5565b808552916001918083169081156104a8575060011461044d575b6104498561043d8187038261037f565b604051918291826103c4565b0390f35b9250601483527fce6d7b5282bd9a3661ae061feed1dbda4e52ab073b1f9285be6e155d9c38d4ec5b82841061049057505050810160200161043d8261044961042d565b80546020858701810191909152909301928101610475565b8695506104499693506020925061043d94915060ff191682840152151560051b820101929361042d565b80fd5b346101ee5760003660031901126101ee57602047604051908152f35b346101ee5760203660031901126101ee5760043561050e816101dd565b610516612578565b156102ab57610524336125fd565b8015610575575b1561026d576001600160a01b039061054660155415156112e2565b61054e6116b8565b1661055a811515611b30565b6001600160a01b031960125416176012556001601155600080f35b50336001600160a01b03600554161461052b565b346101ee576020806003193601126101ee576106086004356105aa816101dd565b6001600160a01b038060025416906040519216848301528382526105cd82610325565b604051906105da82610325565b601182527f69735369676e657228616464726573732900000000000000000000000000000085830152612793565b919080610666575b1561063c57818161062a9261044994518301019101612563565b60405190151581529081906020820190565b60046040517f3204506f000000000000000000000000000000000000000000000000000000008152fd5b5080825114610610565b346101ee5760003660031901126101ee576001600160a01b0360015416330361026d5760001942014281116106a457601655005b61137e565b346101ee5760003660031901126101ee57610016611e9d565b346101ee5760003660031901126101ee5760206001600160a01b0360005416604051908152f35b346101ee5760203660031901126101ee5761070960ff6018541615611297565b61071660155415156112e2565b6001546001600160a01b03163381900361026d57610785610769610789926107776107496004546001600160a01b031690565b91604051938491602083019190916001600160a01b036020820193169052565b03601f19810184528361037f565b61077f61132d565b90612877565b1590565b61026d57610016600435611394565b346101ee5760003660031901126101ee5760206001600160a01b0360125416604051908152f35b801515036101ee57565b346101ee5760203660031901126101ee576004356107e6816107bf565b6107f360155415156112e2565b6107fb612578565b156102ab57610809336125fd565b801561082a575b1561026d5760ff8019601854169115151617601855600080f35b50336001600160a01b036005541614610810565b60003660031901126101ee576108526116b8565b601554610af557610861611e9d565b600a546001600160a01b03166001546001600160a01b031690604051916108c3602093806108a1848783019190916001600160a01b036020820193169052565b03936108b5601f199586810184528361037f565b6108bd6116f3565b90612826565b906001600160a01b03821615610a425750916109927f4ef260a900000000000000000000000000000000000000000000000000000000926109e66109c56109e16109a56109977f3baee0ea00000000000000000000000000000000000000000000000000000000610a369a6109928a6109866109476004546001600160a01b031690565b9361095a6001546001600160a01b031690565b604051938401969096526001600160a01b03908116602484015290941660448201529283906064820190565b0389810184528361037f565b61293b565b87808251830101910161174b565b939091936001600160a01b03166001600160a01b03196012541617601255565b6001600160a01b03166001600160a01b03196013541617601355565b601555565b600a546001600160a01b031692610a2a610a086001546001600160a01b031690565b604051968793840152602483019190916001600160a01b036020820193169052565b0390810184528361037f565b505b6100166001601155565b610ad1915092610ac4610af0946109e194610992610a686004546001600160a01b031690565b91610a7b6012546001600160a01b031690565b6040517fb1c4907900000000000000000000000000000000000000000000000000000000888201526001600160a01b039182166024820152941660448501528360648101610a2a565b805181018201910161172c565b9190916001600160a01b03166001600160a01b03196013541617601355565b610a38565b606460405162461bcd60e51b815260206004820152601660248201527f6d652e616c72656164792e696e697469616c697a6564000000000000000000006044820152fd5b346101ee5760003660031901126101ee5760206001600160a01b0360015416604051908152f35b346101ee5760203660031901126101ee576100166004356115b1565b346101ee5760003660031901126101ee576020610be96001600160a01b0360065416604051610baa81610325565b601381527f67657464656c656761746f72436f756e742829000000000000000000000000008482015260405191610be083610346565b600083526128b3565b604051908152f35b60809060031901126101ee57600435610c09816101dd565b90602435906044359060643590565b610c2136610bf1565b610c2e60155415156112e2565b610c3d60ff6018541615611297565b610c45611775565b610c4d6116b8565b60018103610d915750610c67610c62846125fd565b611ab9565b34610c7a575b5050506100166001601155565b610992610d8893610d21610c97610c9034611b04565b6064900490565b610d10610cae610ca634611b1a565b6103e8900490565b610cff610cbd610ca634611b1a565b93610cee610cd886610cd386610cd38634611439565b611439565b600b546001600160a01b0316612709565b612709565b600d546001600160a01b0316612709565b600e546001600160a01b0316612709565b600f546001600160a01b0316612709565b610769610d366004546001600160a01b031690565b9360155490604051968794636e59fe2560e11b6020870152349360248701919360a0936001600160a01b036001969897939860c086019986521660208501526040840152606083015260808201520152565b50388080610c6d565b91925050600714610da3575b50610a38565b610dac9061195c565b38610d9d565b346101ee5760203660031901126101ee576020610dd9600435610dd4816101dd565b6125fd565b6040519015158152f35b346101ee5760003660031901126101ee576020601554604051908152f35b346101ee5760003660031901126101ee5760206001600160a01b0360135416604051908152f35b346101ee5760203660031901126101ee57600435610e44612578565b156102ab576001600160a01b0360055416330361026d5760009060046020610e82610e7685546001600160a01b031690565b6001600160a01b031690565b604051928380927f46f991ac0000000000000000000000000000000000000000000000000000000082525afa8015610f525783808481949382948391610f24575b505af1610ece6126d9565b501561063c577fcdcc745fe377b103b45fa0cec23ae3ef93d6fc6a84a01f0d18c40b354dd1d5d8610f1e610f0d610e76600b546001600160a01b031690565b604051938452929081906020820190565b0390a280f35b610f45915060203d8111610f4b575b610f3d818361037f565b810190611b7b565b38610ec3565b503d610f33565b611b90565b610f6036610bf1565b610f716015949392945415156112e2565b610f79612578565b156102ab57610f87336125fd565b8015611033575b1561026d57610f9b6116b8565b610fa3612578565b156102ab57610fb1336125fd565b801561101f575b1561026d57610a3693610fcd610c62856125fd565b6001600160a01b03928360045416936015549560405196636e59fe2560e11b602089015260248801521660448601526064850152608484015260a4830152600060c483015260c4825261099282610362565b50336001600160a01b036005541614610fb8565b50336001600160a01b036005541614610f8e565b60405190610300820182811067ffffffffffffffff82111761034157604052565b604051906101e0820182811067ffffffffffffffff82111761034157604052565b67ffffffffffffffff811161034157601f01601f191660200190565b346101ee5760203660031901126101ee5760043567ffffffffffffffff81116101ee57366023820112156101ee5780600401356110e181611089565b906110ef604051928361037f565b80825236602482850101116101ee576020816000926024610016960183860137830101526117ab565b346101ee5760203660031901126101ee57600435611135816101dd565b803b600061114282611089565b92611150604051948561037f565b82845260208401903c602d81511061117457602a602091015160601c604051908152f35b60046040517fbaf3f0f7000000000000000000000000000000000000000000000000000000008152fd5b346101ee5760003660031901126101ee57602060ff601854166040519015158152f35b346101ee5760003660031901126101ee5760206016544210604051908152f35b346101ee5760203660031901126101ee576020610dd9600435611203816101dd565b6001600160a01b0380600654169060405192168483015283825261122682610325565b6040519061123382610325565b601882527f697364656c656761746f724e6f6465286164647265737329000000000000000085830152612877565b346101ee5760003660031901126101ee576020610dd9612578565b346101ee5760003660031901126101ee576020610be9612687565b1561129e57565b606460405162461bcd60e51b815260206004820152601260248201527f6d652e696e76616c69642e73746f7070656400000000000000000000000000006044820152fd5b156112e957565b606460405162461bcd60e51b815260206004820152600f60248201527f6d652e696e76616c69642e696e697400000000000000000000000000000000006044820152fd5b6040519061133a82610325565b601582527f69735573657245786973747328616464726573732900000000000000000000006020830152565b60405161137281610346565b60008152906000368137565b634e487b7160e01b600052601160045260246000fd5b6113e86001600160a01b03600354166113ab611366565b90604051906113b982610325565b601382527f73657373696f6e54544c5365636f6e647328290000000000000000000000000060208301526128b3565b4201908142116106a4576113fe916016556115b1565b565b6040519061140d82610325565b600682527f64616765282900000000000000000000000000000000000000000000000000006020830152565b919082039182116106a457565b6040519061145382610325565b601a82527f676574546f67676c65416765436f756e742875696e74323536290000000000006020830152565b51906113fe826107bf565b90816103009103126101ee5761149e611047565b90805182526020810151602083015260408101516040830152606081015160608301526080810151608083015260a081015160a083015260c081015160c083015260e081015160e0830152610100808201519083015261012080820151908301526101408082015190830152610160808201519083015261018080820151908301526101a080820151908301526101c080820151908301526101e08082015190830152610200808201519083015261022080820151908301526102408082015190830152610260808201519083015261028080820151908301526102a061158681830161147f565b908301526102c061159881830161147f565b908301526115aa6102e080920161147f565b9082015290565b6115dd6115c66013546001600160a01b031690565b6115ce611366565b906115d7611400565b906128b3565b6115e982610cd3612687565b116116af576013546001600160a01b03166040519060016116398361161760208201906103e7602083019252565b039361162b601f199586810183528261037f565b611633611446565b846128b3565b161561164457505050565b6116a16116926116a8936102a093610992604051927fb9f1a39400000000000000000000000000000000000000000000000000000000602085015283610a2a8a602483019190602083019252565b6020808251830101910161148a565b0151151590565b6116af5750565b6113fe9061195c565b6002601154146116c9576002601155565b60046040517f3ee5aeb5000000000000000000000000000000000000000000000000000000008152fd5b6040519061170082610325565b601e82527f7265736f6c76655472616e7366657254617267657428616464726573732900006020830152565b91908260409103126101ee5760208251920151611748816101dd565b90565b908160609103126101ee5780519160406020830151611769816101dd565b920151611748816101dd565b60165442101561178157565b60046040517f1fd05a4a000000000000000000000000000000000000000000000000000000008152fd5b6117b860155415156112e2565b6117c0611775565b6117cf60ff6018541615611297565b6117d7612578565b156102ab576001906001600160a01b03825416330361026d5780519067ffffffffffffffff821161034157611816826118116014546102d5565b6118d5565b60209081601f84116001146118535750928293918392600094611848575b50501b916000199060031b1c191617601455565b015192503880611834565b6014600052919083601f1981167fce6d7b5282bd9a3661ae061feed1dbda4e52ab073b1f9285be6e155d9c38d4ec946000905b888383106118bb57505050106118a2575b505050811b01601455565b015160001960f88460031b161c19169055388080611897565b858701518855909601959485019487935090810190611886565b601f81116118e1575050565b600090601482527fce6d7b5282bd9a3661ae061feed1dbda4e52ab073b1f9285be6e155d9c38d4ec906020601f850160051c8301941061193c575b601f0160051c01915b82811061193157505050565b818155600101611925565b909250829061191c565b91908260409103126101ee576020825192015190565b6119be6119cd916119756004546001600160a01b031690565b6015546040517f6a811244000000000000000000000000000000000000000000000000000000006020820152602481019190915260448101929092526109928260648101610769565b60208082518301019101611946565b9080471015611a4c575b50804710156119e35750565b80611a1b7f992e981f1f6d8cb3a32ce3b31107393c58fbd9a9052cb415a19d578833bf80d692610ce9600c546001600160a01b031690565b600c54604080516001600160a01b0390921682526020820192909252429181019190915260006060820152608090a1565b80611a847f992e981f1f6d8cb3a32ce3b31107393c58fbd9a9052cb415a19d578833bf80d692610ce96001546001600160a01b031690565b600154604080516001600160a01b0390921682526020820192909252429181019190915260006060820152608090a1386119d7565b15611ac057565b606460405162461bcd60e51b815260206004820152601360248201527f6d652e756e7365637572652e4f524331313535000000000000000000000000006044820152fd5b906015820291808304601514901517156106a457565b90602d820291808304602d14901517156106a457565b15611b3757565b606460405162461bcd60e51b815260206004820152600f60248201527f6d652e7a65726f2e6164647265737300000000000000000000000000000000006044820152fd5b908160209103126101ee5751611748816101dd565b6040513d6000823e3d90fd5b611e816101c06113fe92611bd6611bba82516001600160a01b031690565b6001600160a01b03166001600160a01b03196002541617600255565b611c09611bed60208301516001600160a01b031690565b6001600160a01b03166001600160a01b03196003541617600355565b611c3c611c2060408301516001600160a01b031690565b6001600160a01b03166001600160a01b03196004541617600455565b611c6f611c5360608301516001600160a01b031690565b6001600160a01b03166001600160a01b03196005541617600555565b611ca2611c8660808301516001600160a01b031690565b6001600160a01b03166001600160a01b03196006541617600655565b611cd5611cb960a08301516001600160a01b031690565b6001600160a01b03166001600160a01b03196007541617600755565b611d08611cec60c08301516001600160a01b031690565b6001600160a01b03166001600160a01b03196008541617600855565b611d3b611d1f60e08301516001600160a01b031690565b6001600160a01b03166001600160a01b03196009541617600955565b611d6f611d536101008301516001600160a01b031690565b6001600160a01b03166001600160a01b0319600a541617600a55565b611da3611d876101208301516001600160a01b031690565b6001600160a01b03166001600160a01b0319600b541617600b55565b611dd7611dbb6101408301516001600160a01b031690565b6001600160a01b03166001600160a01b0319600c541617600c55565b611e0b611def6101608301516001600160a01b031690565b6001600160a01b03166001600160a01b0319600d541617600d55565b611e3f611e236101808301516001600160a01b031690565b6001600160a01b03166001600160a01b0319600e541617600e55565b611e73611e576101a08301516001600160a01b031690565b6001600160a01b03166001600160a01b0319600f541617600f55565b01516001600160a01b031690565b6001600160a01b03166001600160a01b03196010541617601055565b611eb2610e766000546001600160a01b031690565b604051907f97f3815a000000000000000000000000000000000000000000000000000000008252602082600481845afa918215610f5257600092612542575b50604051917fcfbffe53000000000000000000000000000000000000000000000000000000008352602083600481855afa928315610f5257600093612521575b50604051907fab6e844f000000000000000000000000000000000000000000000000000000008252602082600481865afa918215610f5257600092612500575b50604051917f14d8d024000000000000000000000000000000000000000000000000000000008352602083600481875afa928315610f52576000936124df575b50604051927fd1f956b1000000000000000000000000000000000000000000000000000000008452602084600481885afa938415610f52576000946124be575b50604051937fe61dfd58000000000000000000000000000000000000000000000000000000008552602085600481895afa948515610f525760009561249d575b506040517fe09d394d0000000000000000000000000000000000000000000000000000000081526020816004818a5afa908115610f525760009161247e575b506040517f52b06d640000000000000000000000000000000000000000000000000000000081526020816004818b5afa908115610f525760009161245f575b506040517f013cf08b00000000000000000000000000000000000000000000000000000000815260006004820152916020836024818c5afa928315610f525760009361243e575b50604051977f5e09dbe70000000000000000000000000000000000000000000000000000000089526020896004818d5afa948515610f525760049960009661241d575b5060208b6040519b8c80927faa0ddc160000000000000000000000000000000000000000000000000000000082525afa968715610f525760049a6000986123fc575b5060208c6040519c8d80927f640274270000000000000000000000000000000000000000000000000000000082525afa988915610f525760049b60009a6123db575b5060208d6040519d8e80927f30125cf50000000000000000000000000000000000000000000000000000000082525afa9a8b15610f52578d60049d60009d6123b9575b506020906040519e8f80927f24768d910000000000000000000000000000000000000000000000000000000082525afa9c8d15610f525760009d612398575b50604051809e81907f9dc969a80000000000000000000000000000000000000000000000000000000082525a92600491602094fa9d8e15610f525760009e612377575b5061228b611068565b6001600160a01b0390911681529d8e906001600160a01b03166020820152604001906122bf91906001600160a01b03169052565b6001600160a01b031660608d01526001600160a01b031660808c01526001600160a01b031660a08b01526001600160a01b031660c08a01526001600160a01b031660e08901526001600160a01b03166101008801526001600160a01b03166101208701526001600160a01b03166101408601526001600160a01b03166101608501526001600160a01b03166101808401526001600160a01b03166101a08301526001600160a01b03166101c08201526113fe90611b9c565b612391919e5060203d602011610f4b57610f3d818361037f565b9c38612282565b6123b2919d5060203d602011610f4b57610f3d818361037f565b9b3861223f565b6020919d506123d490823d8411610f4b57610f3d818361037f565b9c90612200565b6123f5919a5060203d602011610f4b57610f3d818361037f565b98386121bd565b61241691985060203d602011610f4b57610f3d818361037f565b963861217b565b61243791965060203d602011610f4b57610f3d818361037f565b9438612139565b61245891935060203d602011610f4b57610f3d818361037f565b91386120f6565b612478915060203d602011610f4b57610f3d818361037f565b386120af565b612497915060203d602011610f4b57610f3d818361037f565b38612070565b6124b791955060203d602011610f4b57610f3d818361037f565b9338612031565b6124d891945060203d602011610f4b57610f3d818361037f565b9238611ff1565b6124f991935060203d602011610f4b57610f3d818361037f565b9138611fb1565b61251a91925060203d602011610f4b57610f3d818361037f565b9038611f71565b61253b91935060203d602011610f4b57610f3d818361037f565b9138611f31565b61255c91925060203d602011610f4b57610f3d818361037f565b9038611ef1565b908160209103126101ee5751611748816107bf565b6125d36001600160a01b036002541660405161259381610325565b600881527f69735361666528290000000000000000000000000000000000000000000000006020820152604051916125ca83610346565b60008352612793565b90806125f2575b1561063c578060208061174893518301019101612563565b5060208151146125da565b6126606001600160a01b03806002541660405191602094168483015283825261262582610325565b6040519061263282610325565b601582527f697353656375726542617365286164647265737329000000000000000000000085830152612793565b908061267d575b1561063c57816117489282518301019101612563565b5081815114612667565b6117486001600160a01b03600354166040516126a281610325565b600681527f6941676528290000000000000000000000000000000000000000000000000000602082015260405191610be083610346565b3d15612704573d906126ea82611089565b916126f8604051938461037f565b82523d6000602084013e565b606090565b90801561278f576001600160a01b03821691821561276557600080808481945af16127326126d9565b501561063c5760207fcec1f18c3ab8ddaaa107a1591e3c369667eec613626611a8deaedef43069fcdd91604051908152a2565b60046040517fe6c4247b000000000000000000000000000000000000000000000000000000008152fd5b5050565b803b1561280d576000927fffffffff0000000000000000000000000000000000000000000000000000000083602086955191012016906127fd60246040518093602082019586526127ed81518092602086860191016103a1565b810103600481018452018261037f565b51915afa6128096126d9565b9091565b50505060009060405161281f81610346565b6000815290565b929161283491600094612793565b908061286c575b6128425750565b9091506020818051810103126101ee5760206001600160a01b03910151612868816101dd565b1690565b50602081511461283b565b929161288591600094612793565b90806128a8575b6128935750565b61174891925060208082518301019101612563565b50602081511461288c565b92916128c191600094612793565b90806128e6575b6128cf5750565b9091506020818051810103126101ee576020015190565b5060208151146128c8565b90602082519201517fffffffff0000000000000000000000000000000000000000000000000000000090818116936004811061292c57505050565b60040360031b82901b16169150565b6001600160a01b0381161561276557600080918351908260208601915af1906129626126d9565b911561296c575090565b8051600091906004116129e85761298391506128f1565b8151156129935750805190602001fd5b6040517f21c09d340000000000000000000000000000000000000000000000000000000081527fffffffff00000000000000000000000000000000000000000000000000000000919091166004820152602490fd5b5061298356fea2646970667358221220cd9a33dd545ef172d4cd81d36109e1fce33554f09435ac8655487724f1abaca564736f6c6343000814003360803461009257601f61170938819003918201601f19168301916001600160401b038311848410176100975780849260209460405283398101031261009257516001600160a01b038116908190036100925780156100805760018060a01b031933816001541617600155600054161760005560405161165b90816100ae8239f35b60405163e6c4247b60e01b8152600490fd5b600080fd5b634e487b7160e01b600052604160045260246000fdfe60806040526004361015610018575b361561001657005b005b60003560e01c806312065fe0146100e85780631f185d16146100e3578063339459a6146100de5780633b9b7955146100d95780638da5cb5b146100d4578063a1f7f539146100cf578063a9059cbb146100ca578063af484526146100c5578063b90306ad146100c0578063c54e44b0146100bb578063e01ad5fd146100b6578063e0a9bc2b146100b15763fdc10bc90361000e57610e1e565b610e03565b610d38565b610cb2565b610b82565b610b51565b6109a7565b610932565b61090b565b6108e4565b610205565b61011a565b3461010457600036600319011261010457602047604051908152f35b600080fd5b6001600160a01b0381160361010457565b34610104576020806003193601126101045761019960043561013b81610109565b6001600160a01b0380600254169060405192168483015283825261015e82610eb1565b6040519061016b82610eb1565b601182527f69735369676e65722861646472657373290000000000000000000000000000008583015261143c565b9190806101fb575b156101d15781816101bb926101cd94518301019101611274565b60405190151581529081906020820190565b0390f35b60046040517f3204506f000000000000000000000000000000000000000000000000000000008152fd5b50808251146101a1565b346101045760003660031901126101045761023761022b6000546001600160a01b031690565b6001600160a01b031690565b604051907f97f3815a000000000000000000000000000000000000000000000000000000008252602082600481845afa918215610714576000926108c3575b50604051917fcfbffe53000000000000000000000000000000000000000000000000000000008352602083600481855afa928315610714576000936108a2575b50604051907fab6e844f000000000000000000000000000000000000000000000000000000008252602082600481865afa91821561071457600092610881575b50604051917f14d8d024000000000000000000000000000000000000000000000000000000008352602083600481875afa92831561071457600093610860575b50604051927fd1f956b1000000000000000000000000000000000000000000000000000000008452602084600481885afa9384156107145760009461083f575b50604051937fe61dfd58000000000000000000000000000000000000000000000000000000008552602085600481895afa9485156107145760009561081e575b506040517fe09d394d0000000000000000000000000000000000000000000000000000000081526020816004818a5afa908115610714576000916107ff575b506040517f52b06d640000000000000000000000000000000000000000000000000000000081526020816004818b5afa908115610714576000916107e0575b506040517f013cf08b00000000000000000000000000000000000000000000000000000000815260006004820152916020836024818c5afa928315610714576000936107bf575b5060405197635e09dbe760e01b89526020896004818d5afa9485156107145760049960009661079e575b5060208b6040519b8c80927faa0ddc160000000000000000000000000000000000000000000000000000000082525afa9687156107145760049a60009861077d575b5060208c6040519c8d80927f640274270000000000000000000000000000000000000000000000000000000082525afa9889156107145760049b60009a61075c575b5060208d6040519d8e80927f30125cf50000000000000000000000000000000000000000000000000000000082525afa9a8b15610714578d60049d60009d61073a575b506020906040519e8f80927f24768d910000000000000000000000000000000000000000000000000000000082525afa9c8d156107145760009d610719575b50604051809e81907f9dc969a80000000000000000000000000000000000000000000000000000000082525a92600491602094fa9d8e156107145760009e6106e3575b506105f7610f34565b6001600160a01b0390911681529d8e906001600160a01b031660208201526040019061062b91906001600160a01b03169052565b6001600160a01b031660608d01526001600160a01b031660808c01526001600160a01b031660a08b01526001600160a01b031660c08a01526001600160a01b031660e08901526001600160a01b03166101008801526001600160a01b03166101208701526001600160a01b03166101408601526001600160a01b03166101608501526001600160a01b03166101808401526001600160a01b03166101a08301526001600160a01b03166101c082015261001690610f55565b610706919e5060203d60201161070d575b6106fe8183610eee565b810190610f10565b9c386105ee565b503d6106f4565b610f28565b610733919d5060203d60201161070d576106fe8183610eee565b9b386105ab565b6020919d5061075590823d841161070d576106fe8183610eee565b9c9061056c565b610776919a5060203d60201161070d576106fe8183610eee565b9838610529565b61079791985060203d60201161070d576106fe8183610eee565b96386104e7565b6107b891965060203d60201161070d576106fe8183610eee565b94386104a5565b6107d991935060203d60201161070d576106fe8183610eee565b913861047b565b6107f9915060203d60201161070d576106fe8183610eee565b38610434565b610818915060203d60201161070d576106fe8183610eee565b386103f5565b61083891955060203d60201161070d576106fe8183610eee565b93386103b6565b61085991945060203d60201161070d576106fe8183610eee565b9238610376565b61087a91935060203d60201161070d576106fe8183610eee565b9138610336565b61089b91925060203d60201161070d576106fe8183610eee565b90386102f6565b6108bc91935060203d60201161070d576106fe8183610eee565b91386102b6565b6108dd91925060203d60201161070d576106fe8183610eee565b9038610276565b346101045760003660031901126101045760206001600160a01b0360005416604051908152f35b346101045760003660031901126101045760206001600160a01b0360015416604051908152f35b3461010457600036600319011261010457602061099f6001600160a01b036006541660405161096081610eb1565b601381527f67657464656c656761746f72436f756e74282900000000000000000000000000848201526040519161099683610ed2565b600083526114ea565b604051908152f35b60408060031936011261010457600435906109c182610109565b602435916001600160a01b0391828216928315610b41576109e061128c565b15610b31576109ee33611311565b908115610b23575b5015610b135783804710610a3c575b610a30907f1e70cf59d0c7a20c88704bfce5a47e636dfa577ebf52a7166641741cef343661936113cb565b519283523392602090a3005b5060046020610a5661022b6000546001600160a01b031690565b835192838092635e09dbe760e01b82525afa8015610714577f1e70cf59d0c7a20c88704bfce5a47e636dfa577ebf52a7166641741cef34366193610aeb8792610a3094600091610af5575b5085517fa9059cbb0000000000000000000000000000000000000000000000000000000060208201523060248201526044808201869052815290610ae6606483610eee565b611572565b5093509050610a05565b610b0d915060203d811161070d576106fe8183610eee565b38610aa1565b6004905163ea8e4eb560e01b8152fd5b6005541633149050386109f6565b60048251634ee2123760e11b8152fd5b6004825163e6c4247b60e01b8152fd5b34610104576020366003190112610104576020610b78600435610b7381610109565b611311565b6040519015158152f35b3461010457602036600319011261010457600435610b9e61128c565b15610ca1576001600160a01b03600554163303610c905760009060046020610bd061022b85546001600160a01b031690565b604051928380927f46f991ac0000000000000000000000000000000000000000000000000000000082525afa80156107145783808481949382948391610c72575b505af1610c1c61139b565b50156101d1577fcdcc745fe377b103b45fa0cec23ae3ef93d6fc6a84a01f0d18c40b354dd1d5d8610c6c610c5b61022b600b546001600160a01b031690565b604051938452929081906020820190565b0390a280f35b610c8a915060203d811161070d576106fe8183610eee565b38610c11565b600460405163ea8e4eb560e01b8152fd5b6004604051634ee2123760e11b8152fd5b3461010457602036600319011261010457600435610ccf81610109565b803b6000610cdc82611258565b92610cea6040519485610eee565b82845260208401903c602d815110610d0e57602a602091015160601c604051908152f35b60046040517fbaf3f0f7000000000000000000000000000000000000000000000000000000008152fd5b3461010457602080600319360112610104576101cd9060043590610d5b82610109565b610dbf6001600160a01b0392836006541693604051911683820152828152610d8281610eb1565b604051610d8e81610eb1565b601881527f697364656c656761746f724e6f646528616464726573732900000000000000008482015260009461143c565b919080610df9575b610de0575b505060405190151581529081906020820190565b610df292508082518301019101611274565b3880610dcc565b5080825114610dc7565b34610104576000366003190112610104576020610b7861128c565b3461010457600036600319011261010457602061099f6001600160a01b0360035416604051610e4c81610eb1565b600681527f6941676528290000000000000000000000000000000000000000000000000000848201526040519161099683610ed2565b7f4e487b7100000000000000000000000000000000000000000000000000000000600052604160045260246000fd5b6040810190811067ffffffffffffffff821117610ecd57604052565b610e82565b6020810190811067ffffffffffffffff821117610ecd57604052565b90601f8019910116810190811067ffffffffffffffff821117610ecd57604052565b908160209103126101045751610f2581610109565b90565b6040513d6000823e3d90fd5b604051906101e0820182811067ffffffffffffffff821117610ecd57604052565b61123a6101c061125692610f8f610f7382516001600160a01b031690565b6001600160a01b03166001600160a01b03196002541617600255565b610fc2610fa660208301516001600160a01b031690565b6001600160a01b03166001600160a01b03196003541617600355565b610ff5610fd960408301516001600160a01b031690565b6001600160a01b03166001600160a01b03196004541617600455565b61102861100c60608301516001600160a01b031690565b6001600160a01b03166001600160a01b03196005541617600555565b61105b61103f60808301516001600160a01b031690565b6001600160a01b03166001600160a01b03196006541617600655565b61108e61107260a08301516001600160a01b031690565b6001600160a01b03166001600160a01b03196007541617600755565b6110c16110a560c08301516001600160a01b031690565b6001600160a01b03166001600160a01b03196008541617600855565b6110f46110d860e08301516001600160a01b031690565b6001600160a01b03166001600160a01b03196009541617600955565b61112861110c6101008301516001600160a01b031690565b6001600160a01b03166001600160a01b0319600a541617600a55565b61115c6111406101208301516001600160a01b031690565b6001600160a01b03166001600160a01b0319600b541617600b55565b6111906111746101408301516001600160a01b031690565b6001600160a01b03166001600160a01b0319600c541617600c55565b6111c46111a86101608301516001600160a01b031690565b6001600160a01b03166001600160a01b0319600d541617600d55565b6111f86111dc6101808301516001600160a01b031690565b6001600160a01b03166001600160a01b0319600e541617600e55565b61122c6112106101a08301516001600160a01b031690565b6001600160a01b03166001600160a01b0319600f541617600f55565b01516001600160a01b031690565b6001600160a01b03166001600160a01b03196010541617601055565b565b67ffffffffffffffff8111610ecd57601f01601f191660200190565b90816020910312610104575180151581036101045790565b6112e76001600160a01b03600254166040516112a781610eb1565b600881527f69735361666528290000000000000000000000000000000000000000000000006020820152604051916112de83610ed2565b6000835261143c565b9080611306575b156101d15780602080610f2593518301019101611274565b5060208151146112ee565b6113746001600160a01b03806002541660405191602094168483015283825261133982610eb1565b6040519061134682610eb1565b601582527f69735365637572654261736528616464726573732900000000000000000000008583015261143c565b9080611391575b156101d15781610f259282518301019101611274565b508181511461137b565b3d156113c6573d906113ac82611258565b916113ba6040519384610eee565b82523d6000602084013e565b606090565b908015611438576001600160a01b03821691821561142757600080808481945af16113f461139b565b50156101d15760207fcec1f18c3ab8ddaaa107a1591e3c369667eec613626611a8deaedef43069fcdd91604051908152a2565b600460405163e6c4247b60e01b8152fd5b5050565b9190823b156114d1577fffffffff00000000000000000000000000000000000000000000000000000000815160208093012016916040519180830193845281519160005b8381106114bd5750505091816114ad60248260009795968897018783820152036004810184520182610eee565b51915afa6114b961139b565b9091565b818101830151858201602401528201611480565b5050506000906040516114e381610ed2565b6000815290565b92916114f89160009461143c565b908061151d575b6115065750565b909150602081805181010312610104576020015190565b5060208151146114ff565b90602082519201517fffffffff0000000000000000000000000000000000000000000000000000000090818116936004811061156357505050565b60040360031b82901b16169150565b6001600160a01b0381161561142757600080918351908260208601915af19061159961139b565b91156115a3575090565b80516000919060041161161f576115ba9150611528565b8151156115ca5750805190602001fd5b6040517f21c09d340000000000000000000000000000000000000000000000000000000081527fffffffff00000000000000000000000000000000000000000000000000000000919091166004820152602490fd5b506115ba56fea264697066735822122096c273ecbbace9bf313eb86edc9760ee5d3bb3a3d215160dce16e84ad6cd876964736f6c63430008140033","linkReferences":{}},"methodIdentifiers":{"instance()":"022ec095","tVLFactory()":"9ba540fb","tVLMining()":"d795ff38","tVLReward()":"b85c9faf","tVLRoyality()":"9443767c","tVLTour()":"dabf429d","tVLValidator()":"a50c0bc0"},"id":82}