{"abi":[{"type":"constructor","inputs":[{"name":"_hex","type":"address","internalType":"address"}],"stateMutability":"nonpayable"},{"type":"function","name":"instance","inputs":[],"outputs":[{"name":"","type":"address","internalType":"address"}],"stateMutability":"view"},{"type":"function","name":"tVLFactory","inputs":[],"outputs":[{"name":"","type":"address","internalType":"address"}],"stateMutability":"view"},{"type":"function","name":"tVLMining","inputs":[],"outputs":[{"name":"","type":"address","internalType":"address"}],"stateMutability":"view"},{"type":"function","name":"tVLReward","inputs":[],"outputs":[{"name":"","type":"address","internalType":"address"}],"stateMutability":"view"},{"type":"function","name":"tVLRoyality","inputs":[],"outputs":[{"name":"","type":"address","internalType":"address"}],"stateMutability":"view"},{"type":"function","name":"tVLTour","inputs":[],"outputs":[{"name":"","type":"address","internalType":"address"}],"stateMutability":"view"},{"type":"function","name":"tVLValidator","inputs":[],"outputs":[{"name":"","type":"address","internalType":"address"}],"stateMutability":"view"}],"bytecode":{"object":"0x60803461023957601f61436738819003918201601f19168301926001600160401b039290919083851183861017610223578083926040968752833960209283918101031261023957516001600160a01b0391908281169081900361023957845191612836928381019381851087861117610223576103f482398284528681600095868582015203019084f09485156102195783549585166001600160a01b0319968716178455865161173d8082019491808610848711176101e7578481612c2a978489833985815203019087f080156101fb578716886001541617600155885181810181811085821117610205578186918489833985815203019087f080156101fb578716886002541617600255885181810181811085821117610205578186918489833985815203019087f080156101fb578716886003541617600355885181810181811085821117610205578186918489833985815203019087f080156101fb578716886004541617600455885181810181811085821117610205578186918489833985815203019087f080156101fb57871688600554161760055588519481860193868510908511176101e75790859392918439815203019082f09081156101dc575016906006541617600655516101b5908161023f8239f35b8451903d90823e3d90fd5b634e487b7160e01b87526041600452602487fd5b89513d88823e3d90fd5b634e487b7160e01b88526041600452602488fd5b86513d85823e3d90fd5b634e487b7160e01b600052604160045260246000fd5b600080fdfe60806040818152600436101561001457600080fd5b600091823560e01c908163022ec0951461015c575080639443767c146101355780639ba540fb1461010e578063a50c0bc0146100e7578063b85c9faf146100c0578063d795ff38146100995763dabf429d1461006f57600080fd5b346100955781600319360112610095576020906001600160a01b03600554169051908152f35b5080fd5b50346100955781600319360112610095576020906001600160a01b03600254169051908152f35b50346100955781600319360112610095576020906001600160a01b03600354169051908152f35b50346100955781600319360112610095576020906001600160a01b03600654169051908152f35b50346100955781600319360112610095576020906001600160a01b03600154169051908152f35b50346100955781600319360112610095576020906001600160a01b03600454169051908152f35b8390346100955781600319360112610095576001600160a01b0360209254168152f3fea2646970667358221220e1a60f528553eca40efdbd5a0bd9fb40e4c95036aada4028cea3f2de1fe8d7fb64736f6c63430008140033608034620000c157601f6200283638819003918201601f19168301916001600160401b03831184841017620000c6578084926040948552833981010312620000c1576200005a60206200005283620000dc565b9201620000dc565b6001600160a01b0391821691908215620000af5760018060a01b031992836001541690846000541617600055600160115533908433161717600155169060125416176012556040516127449081620000f28239f35b60405163e6c4247b60e01b8152600490fd5b600080fd5b634e487b7160e01b600052604160045260246000fd5b51906001600160a01b0382168203620000c15756fe60806040526004361015610018575b361561001657005b005b60003560e01c80630399c93c146101b857806306fdde03146101b357806312065fe0146101ae5780631499c592146101a95780631f185d16146101a45780631f3c99c31461019f578063339459a61461019a5780633b9b7955146101955780633dbfd97c1461019057806360f96a8f1461018b5780638129fc1c146101865780638da5cb5b146101815780639c75dd351461017c578063a1f7f53914610177578063a3e884b014610172578063af4845261461016d578063af640d0f14610168578063b28175c414610163578063b90306ad1461015e578063c107930a14610159578063c47f002714610154578063c54e44b01461014f578063d4ace81b1461014a578063e01ad5fd14610145578063e0a9bc2b146101405763fdc10bc90361000e5761116e565b611153565b6110d3565b6110b3565b61102d565b610fba565b610e8d565b610d5e565b610d37565b610d19565b610ce8565b610b5d565b610ac1565b610aa5565b610a7e565b610783565b61075c565b6106c9565b6106a2565b610689565b610650565b610569565b6104d1565b6104b5565b6103d0565b6101d3565b6001600160a01b038116036101ce57565b600080fd5b346101ce5760203660031901126101ce576004356101f0816101bd565b6101f86122ea565b1561028b576102063361236f565b8015610277575b1561024d576102469061022360155415156114a8565b61022b6113eb565b61023f6001600160a01b038216151561189f565b4790612429565b6001601155005b60046040517fea8e4eb5000000000000000000000000000000000000000000000000000000008152fd5b50336001600160a01b03600554161461020d565b60046040517f9dc4246e000000000000000000000000000000000000000000000000000000008152fd5b90600182811c921680156102e5575b60208310146102cf57565b634e487b7160e01b600052602260045260246000fd5b91607f16916102c4565b634e487b7160e01b600052604160045260246000fd5b6040810190811067ffffffffffffffff82111761032157604052565b6102ef565b6020810190811067ffffffffffffffff82111761032157604052565b610100810190811067ffffffffffffffff82111761032157604052565b90601f8019910116810190811067ffffffffffffffff82111761032157604052565b60005b8381106103945750506000910152565b8181015183820152602001610384565b604091602082526103c48151809281602086015260208686019101610381565b601f01601f1916010190565b346101ce576000806003193601126104b25760405190806014546103f3816102b5565b80855291600191808316908115610488575060011461042d575b6104298561041d8187038261035f565b604051918291826103a4565b0390f35b9250601483527fce6d7b5282bd9a3661ae061feed1dbda4e52ab073b1f9285be6e155d9c38d4ec5b82841061047057505050810160200161041d8261042961040d565b80546020858701810191909152909301928101610455565b8695506104299693506020925061041d94915060ff191682840152151560051b820101929361040d565b80fd5b346101ce5760003660031901126101ce57602047604051908152f35b346101ce5760203660031901126101ce576004356104ee816101bd565b6104f66122ea565b1561028b576105043361236f565b8015610555575b1561024d576001600160a01b039061052660155415156114a8565b61052e6113eb565b1661053a81151561189f565b6001600160a01b031960125416176012556001601155600080f35b50336001600160a01b03600554161461050b565b346101ce576020806003193601126101ce576105e860043561058a816101bd565b6001600160a01b038060025416906040519216848301528382526105ad82610305565b604051906105ba82610305565b601182527f69735369676e6572286164647265737329000000000000000000000000000000858301526124b3565b919080610646575b1561061c57818161060a92610429945183010191016122d2565b60405190151581529081906020820190565b60046040517f3204506f000000000000000000000000000000000000000000000000000000008152fd5b50808251146105f0565b346101ce5760003660031901126101ce576001600160a01b0360015416330361024d57600019420142811161068457601655005b61120b565b346101ce5760003660031901126101ce57610016611c0c565b346101ce5760003660031901126101ce5760206001600160a01b0360005416604051908152f35b346101ce5760203660031901126101ce576001546001600160a01b03163381900361024d5761074961072d61074d9261073b61070d6004546001600160a01b031690565b91604051938491602083019190916001600160a01b036020820193169052565b03601f19810184528361035f565b6107436111d2565b90612597565b1590565b61024d57610016600435611221565b346101ce5760003660031901126101ce5760206001600160a01b0360125416604051908152f35b60003660031901126101ce576107976113eb565b601554610a3a576107a6611c0c565b600a546001600160a01b03166001546001600160a01b03169060405191610808602093806107e6848783019190916001600160a01b036020820193169052565b03936107fa601f199586810184528361035f565b610802611426565b90612546565b906001600160a01b038216156109875750916108d77f4ef260a9000000000000000000000000000000000000000000000000000000009261092b61090a6109266108ea6108dc7f3baee0ea0000000000000000000000000000000000000000000000000000000061097b9a6108d78a6108cb61088c6004546001600160a01b031690565b9361089f6001546001600160a01b031690565b604051938401969096526001600160a01b03908116602484015290941660448201529283906064820190565b0389810184528361035f565b61265b565b87808251830101910161147e565b939091936001600160a01b03166001600160a01b03196012541617601255565b6001600160a01b03166001600160a01b03196013541617601355565b601555565b600a546001600160a01b03169261096f61094d6001546001600160a01b031690565b604051968793840152602483019190916001600160a01b036020820193169052565b0390810184528361035f565b505b6100166001601155565b610a16915092610a09610a3594610926946108d76109ad6004546001600160a01b031690565b916109c06012546001600160a01b031690565b6040517fb1c4907900000000000000000000000000000000000000000000000000000000888201526001600160a01b03918216602482015294166044850152836064810161096f565b805181018201910161145f565b9190916001600160a01b03166001600160a01b03196013541617601355565b61097d565b606460405162461bcd60e51b815260206004820152601660248201527f6d652e616c72656164792e696e697469616c697a6564000000000000000000006044820152fd5b346101ce5760003660031901126101ce5760206001600160a01b0360015416604051908152f35b346101ce5760203660031901126101ce576100166004356112f5565b346101ce5760003660031901126101ce576020610b2e6001600160a01b0360065416604051610aef81610305565b601381527f67657464656c656761746f72436f756e742829000000000000000000000000008482015260405191610b2583610326565b600083526125d3565b604051908152f35b60809060031901126101ce57600435610b4e816101bd565b90602435906044359060643590565b610b6636610b36565b610b7360155415156114a8565b610b7b6114f3565b610b836113eb565b60018103610cc75750610b9d610b988461236f565b611828565b34610bb0575b5050506100166001601155565b6108d7610cbe93610c57610bcd610bc634611873565b6064900490565b610c46610be4610bdc34611889565b6103e8900490565b610c35610bf3610bdc34611889565b93610c24610c0e86610c0986610c0986346113de565b6113de565b600b546001600160a01b0316612429565b612429565b600d546001600160a01b0316612429565b600e546001600160a01b0316612429565b600f546001600160a01b0316612429565b61072d610c6c6004546001600160a01b031690565b9360155490604051968794636e59fe2560e11b6020870152349360248701919360a0936001600160a01b036001969897939860c086019986521660208501526040840152606083015260808201520152565b50388080610ba3565b91925050600714610cd9575b5061097d565b610ce2906116cb565b38610cd3565b346101ce5760203660031901126101ce576020610d0f600435610d0a816101bd565b61236f565b6040519015158152f35b346101ce5760003660031901126101ce576020601554604051908152f35b346101ce5760003660031901126101ce5760206001600160a01b0360135416604051908152f35b346101ce5760203660031901126101ce57600435610d7a6122ea565b1561028b576001600160a01b0360055416330361024d5760009060046020610db8610dac85546001600160a01b031690565b6001600160a01b031690565b604051928380927f46f991ac0000000000000000000000000000000000000000000000000000000082525afa8015610e885783808481949382948391610e5a575b505af1610e046123f9565b501561061c577fcdcc745fe377b103b45fa0cec23ae3ef93d6fc6a84a01f0d18c40b354dd1d5d8610e54610e43610dac600b546001600160a01b031690565b604051938452929081906020820190565b0390a280f35b610e7b915060203d8111610e81575b610e73818361035f565b8101906118ea565b38610df9565b503d610e69565b6118ff565b610e9636610b36565b610ea76015949392945415156114a8565b610eaf6122ea565b1561028b57610ebd3361236f565b8015610f69575b1561024d57610ed16113eb565b610ed96122ea565b1561028b57610ee73361236f565b8015610f55575b1561024d5761097b93610f03610b988561236f565b6001600160a01b03928360045416936015549560405196636e59fe2560e11b602089015260248801521660448601526064850152608484015260a4830152600060c483015260c482526108d782610342565b50336001600160a01b036005541614610eee565b50336001600160a01b036005541614610ec4565b604051906101e0820182811067ffffffffffffffff82111761032157604052565b67ffffffffffffffff811161032157601f01601f191660200190565b346101ce5760203660031901126101ce5760043567ffffffffffffffff81116101ce57366023820112156101ce578060040135610ff681610f9e565b90611004604051928361035f565b80825236602482850101116101ce57602081600092602461001696018386013783010152611529565b346101ce5760203660031901126101ce5760043561104a816101bd565b803b600061105782610f9e565b92611065604051948561035f565b82845260208401903c602d81511061108957602a602091015160601c604051908152f35b60046040517fbaf3f0f7000000000000000000000000000000000000000000000000000000008152fd5b346101ce5760003660031901126101ce5760206016544210604051908152f35b346101ce5760203660031901126101ce576020610d0f6004356110f5816101bd565b6001600160a01b0380600654169060405192168483015283825261111882610305565b6040519061112582610305565b601882527f697364656c656761746f724e6f6465286164647265737329000000000000000085830152612597565b346101ce5760003660031901126101ce576020610d0f6122ea565b346101ce5760003660031901126101ce576020610b2e6001600160a01b036003541660405161119c81610305565b600681527f69416765282900000000000000000000000000000000000000000000000000008482015260405191610b2583610326565b604051906111df82610305565b601582527f69735573657245786973747328616464726573732900000000000000000000006020830152565b634e487b7160e01b600052601160045260246000fd5b61127d6001600160a01b03600354166040519061123d82610326565b600082526040519061124e82610305565b601382527f73657373696f6e54544c5365636f6e647328290000000000000000000000000060208301526125d3565b42019081421161068457611293916016556112f5565b565b9060e0828203126101ce5780601f830112156101ce576040519160e0830183811067ffffffffffffffff82111761032157604052829060e081019283116101ce57905b8282106112e55750505090565b81518152602091820191016112d8565b6001600160a01b036013541660405160018061135b6020936103e78582015284815261132081610305565b60405161132c81610305565b601a81527f676574546f67676c65416765436f756e742875696e743235362900000000000086820152866125d3565b161461136657505050565b6113c66113cc916113b9600194604051907f1296412000000000000000000000000000000000000000000000000000000000848301526108d78261072d8a60248301919060206040840193600881520152565b8051810182019101611295565b60800190565b51146113d55750565b611293906116cb565b9190820391821161068457565b6002601154146113fc576002601155565b60046040517f3ee5aeb5000000000000000000000000000000000000000000000000000000008152fd5b6040519061143382610305565b601e82527f7265736f6c76655472616e7366657254617267657428616464726573732900006020830152565b91908260409103126101ce576020825192015161147b816101bd565b90565b908160609103126101ce578051916040602083015161149c816101bd565b92015161147b816101bd565b156114af57565b606460405162461bcd60e51b815260206004820152600f60248201527f6d652e696e76616c69642e696e697400000000000000000000000000000000006044820152fd5b6016544210156114ff57565b60046040517f1fd05a4a000000000000000000000000000000000000000000000000000000008152fd5b61153660155415156114a8565b61153e6114f3565b6115466122ea565b1561028b576001906001600160a01b03825416330361024d5780519067ffffffffffffffff821161032157611585826115806014546102b5565b611644565b60209081601f84116001146115c257509282939183926000946115b7575b50501b916000199060031b1c191617601455565b0151925038806115a3565b6014600052919083601f1981167fce6d7b5282bd9a3661ae061feed1dbda4e52ab073b1f9285be6e155d9c38d4ec946000905b8883831061162a5750505010611611575b505050811b01601455565b015160001960f88460031b161c19169055388080611606565b8587015188559096019594850194879350908101906115f5565b601f8111611650575050565b600090601482527fce6d7b5282bd9a3661ae061feed1dbda4e52ab073b1f9285be6e155d9c38d4ec906020601f850160051c830194106116ab575b601f0160051c01915b8281106116a057505050565b818155600101611694565b909250829061168b565b91908260409103126101ce576020825192015190565b61172d61173c916116e46004546001600160a01b031690565b6015546040517f6a811244000000000000000000000000000000000000000000000000000000006020820152602481019190915260448101929092526108d7826064810161072d565b602080825183010191016116b5565b90804710156117bb575b50804710156117525750565b8061178a7f992e981f1f6d8cb3a32ce3b31107393c58fbd9a9052cb415a19d578833bf80d692610c1f600c546001600160a01b031690565b600c54604080516001600160a01b0390921682526020820192909252429181019190915260006060820152608090a1565b806117f37f992e981f1f6d8cb3a32ce3b31107393c58fbd9a9052cb415a19d578833bf80d692610c1f6001546001600160a01b031690565b600154604080516001600160a01b0390921682526020820192909252429181019190915260006060820152608090a138611746565b1561182f57565b606460405162461bcd60e51b815260206004820152601360248201527f6d652e756e7365637572652e4f524331313535000000000000000000000000006044820152fd5b9060158202918083046015149015171561068457565b90602d820291808304602d149015171561068457565b156118a657565b606460405162461bcd60e51b815260206004820152600f60248201527f6d652e7a65726f2e6164647265737300000000000000000000000000000000006044820152fd5b908160209103126101ce575161147b816101bd565b6040513d6000823e3d90fd5b611bf06101c06112939261194561192982516001600160a01b031690565b6001600160a01b03166001600160a01b03196002541617600255565b61197861195c60208301516001600160a01b031690565b6001600160a01b03166001600160a01b03196003541617600355565b6119ab61198f60408301516001600160a01b031690565b6001600160a01b03166001600160a01b03196004541617600455565b6119de6119c260608301516001600160a01b031690565b6001600160a01b03166001600160a01b03196005541617600555565b611a116119f560808301516001600160a01b031690565b6001600160a01b03166001600160a01b03196006541617600655565b611a44611a2860a08301516001600160a01b031690565b6001600160a01b03166001600160a01b03196007541617600755565b611a77611a5b60c08301516001600160a01b031690565b6001600160a01b03166001600160a01b03196008541617600855565b611aaa611a8e60e08301516001600160a01b031690565b6001600160a01b03166001600160a01b03196009541617600955565b611ade611ac26101008301516001600160a01b031690565b6001600160a01b03166001600160a01b0319600a541617600a55565b611b12611af66101208301516001600160a01b031690565b6001600160a01b03166001600160a01b0319600b541617600b55565b611b46611b2a6101408301516001600160a01b031690565b6001600160a01b03166001600160a01b0319600c541617600c55565b611b7a611b5e6101608301516001600160a01b031690565b6001600160a01b03166001600160a01b0319600d541617600d55565b611bae611b926101808301516001600160a01b031690565b6001600160a01b03166001600160a01b0319600e541617600e55565b611be2611bc66101a08301516001600160a01b031690565b6001600160a01b03166001600160a01b0319600f541617600f55565b01516001600160a01b031690565b6001600160a01b03166001600160a01b03196010541617601055565b611c21610dac6000546001600160a01b031690565b604051907f97f3815a000000000000000000000000000000000000000000000000000000008252602082600481845afa918215610e88576000926122b1575b50604051917fcfbffe53000000000000000000000000000000000000000000000000000000008352602083600481855afa928315610e8857600093612290575b50604051907fab6e844f000000000000000000000000000000000000000000000000000000008252602082600481865afa918215610e885760009261226f575b50604051917f14d8d024000000000000000000000000000000000000000000000000000000008352602083600481875afa928315610e885760009361224e575b50604051927fd1f956b1000000000000000000000000000000000000000000000000000000008452602084600481885afa938415610e885760009461222d575b50604051937fe61dfd58000000000000000000000000000000000000000000000000000000008552602085600481895afa948515610e885760009561220c575b506040517fe09d394d0000000000000000000000000000000000000000000000000000000081526020816004818a5afa908115610e88576000916121ed575b506040517f52b06d640000000000000000000000000000000000000000000000000000000081526020816004818b5afa908115610e88576000916121ce575b506040517f013cf08b00000000000000000000000000000000000000000000000000000000815260006004820152916020836024818c5afa928315610e88576000936121ad575b50604051977f5e09dbe70000000000000000000000000000000000000000000000000000000089526020896004818d5afa948515610e885760049960009661218c575b5060208b6040519b8c80927faa0ddc160000000000000000000000000000000000000000000000000000000082525afa968715610e885760049a60009861216b575b5060208c6040519c8d80927f640274270000000000000000000000000000000000000000000000000000000082525afa988915610e885760049b60009a61214a575b5060208d6040519d8e80927f30125cf50000000000000000000000000000000000000000000000000000000082525afa9a8b15610e88578d60049d60009d612128575b506020906040519e8f80927f24768d910000000000000000000000000000000000000000000000000000000082525afa9c8d15610e885760009d612107575b50604051809e81907f9dc969a80000000000000000000000000000000000000000000000000000000082525a92600491602094fa9d8e15610e885760009e6120e6575b50611ffa610f7d565b6001600160a01b0390911681529d8e906001600160a01b031660208201526040019061202e91906001600160a01b03169052565b6001600160a01b031660608d01526001600160a01b031660808c01526001600160a01b031660a08b01526001600160a01b031660c08a01526001600160a01b031660e08901526001600160a01b03166101008801526001600160a01b03166101208701526001600160a01b03166101408601526001600160a01b03166101608501526001600160a01b03166101808401526001600160a01b03166101a08301526001600160a01b03166101c08201526112939061190b565b612100919e5060203d602011610e8157610e73818361035f565b9c38611ff1565b612121919d5060203d602011610e8157610e73818361035f565b9b38611fae565b6020919d5061214390823d8411610e8157610e73818361035f565b9c90611f6f565b612164919a5060203d602011610e8157610e73818361035f565b9838611f2c565b61218591985060203d602011610e8157610e73818361035f565b9638611eea565b6121a691965060203d602011610e8157610e73818361035f565b9438611ea8565b6121c791935060203d602011610e8157610e73818361035f565b9138611e65565b6121e7915060203d602011610e8157610e73818361035f565b38611e1e565b612206915060203d602011610e8157610e73818361035f565b38611ddf565b61222691955060203d602011610e8157610e73818361035f565b9338611da0565b61224791945060203d602011610e8157610e73818361035f565b9238611d60565b61226891935060203d602011610e8157610e73818361035f565b9138611d20565b61228991925060203d602011610e8157610e73818361035f565b9038611ce0565b6122aa91935060203d602011610e8157610e73818361035f565b9138611ca0565b6122cb91925060203d602011610e8157610e73818361035f565b9038611c60565b908160209103126101ce575180151581036101ce5790565b6123456001600160a01b036002541660405161230581610305565b600881527f697353616665282900000000000000000000000000000000000000000000000060208201526040519161233c83610326565b600083526124b3565b9080612364575b1561061c578060208061147b935183010191016122d2565b50602081511461234c565b6123d26001600160a01b03806002541660405191602094168483015283825261239782610305565b604051906123a482610305565b601582527f6973536563757265426173652861646472657373290000000000000000000000858301526124b3565b90806123ef575b1561061c578161147b92825183010191016122d2565b50818151146123d9565b3d15612424573d9061240a82610f9e565b91612418604051938461035f565b82523d6000602084013e565b606090565b9080156124af576001600160a01b03821691821561248557600080808481945af16124526123f9565b501561061c5760207fcec1f18c3ab8ddaaa107a1591e3c369667eec613626611a8deaedef43069fcdd91604051908152a2565b60046040517fe6c4247b000000000000000000000000000000000000000000000000000000008152fd5b5050565b803b1561252d576000927fffffffff00000000000000000000000000000000000000000000000000000000836020869551910120169061251d602460405180936020820195865261250d8151809260208686019101610381565b810103600481018452018261035f565b51915afa6125296123f9565b9091565b50505060009060405161253f81610326565b6000815290565b9291612554916000946124b3565b908061258c575b6125625750565b9091506020818051810103126101ce5760206001600160a01b03910151612588816101bd565b1690565b50602081511461255b565b92916125a5916000946124b3565b90806125c8575b6125b35750565b61147b919250602080825183010191016122d2565b5060208151146125ac565b92916125e1916000946124b3565b9080612606575b6125ef5750565b9091506020818051810103126101ce576020015190565b5060208151146125e8565b90602082519201517fffffffff0000000000000000000000000000000000000000000000000000000090818116936004811061264c57505050565b60040360031b82901b16169150565b6001600160a01b0381161561248557600080918351908260208601915af1906126826123f9565b911561268c575090565b805160009190600411612708576126a39150612611565b8151156126b35750805190602001fd5b6040517f21c09d340000000000000000000000000000000000000000000000000000000081527fffffffff00000000000000000000000000000000000000000000000000000000919091166004820152602490fd5b506126a356fea26469706673582212203d099617efd17f0dd706c1c054429332c6c70cf1c6d5fd41747332f83f5225e164736f6c6343000814003360803461009257601f61173d38819003918201601f19168301916001600160401b038311848410176100975780849260209460405283398101031261009257516001600160a01b038116908190036100925780156100805760018060a01b031933816001541617600155600054161760005560405161168f90816100ae8239f35b60405163e6c4247b60e01b8152600490fd5b600080fd5b634e487b7160e01b600052604160045260246000fdfe60806040526004361015610018575b361561001657005b005b60003560e01c806312065fe0146100e85780631f185d16146100e3578063339459a6146100de5780633b9b7955146100d95780638da5cb5b146100d4578063a1f7f539146100cf578063a9059cbb146100ca578063af484526146100c5578063b90306ad146100c0578063c54e44b0146100bb578063e01ad5fd146100b6578063e0a9bc2b146100b15763fdc10bc90361000e57610e3f565b610e24565b610d59565b610cd3565b610ba3565b610b72565b6109a7565b610932565b61090b565b6108e4565b610205565b61011a565b3461010457600036600319011261010457602047604051908152f35b600080fd5b6001600160a01b0381160361010457565b34610104576020806003193601126101045761019960043561013b81610109565b6001600160a01b0380600254169060405192168483015283825261015e82610ee5565b6040519061016b82610ee5565b601182527f69735369676e657228616464726573732900000000000000000000000000000085830152611470565b9190806101fb575b156101d15781816101bb926101cd945183010191016112a8565b60405190151581529081906020820190565b0390f35b60046040517f3204506f000000000000000000000000000000000000000000000000000000008152fd5b50808251146101a1565b346101045760003660031901126101045761023761022b6000546001600160a01b031690565b6001600160a01b031690565b604051907f97f3815a000000000000000000000000000000000000000000000000000000008252602082600481845afa918215610714576000926108c3575b50604051917fcfbffe53000000000000000000000000000000000000000000000000000000008352602083600481855afa928315610714576000936108a2575b50604051907fab6e844f000000000000000000000000000000000000000000000000000000008252602082600481865afa91821561071457600092610881575b50604051917f14d8d024000000000000000000000000000000000000000000000000000000008352602083600481875afa92831561071457600093610860575b50604051927fd1f956b1000000000000000000000000000000000000000000000000000000008452602084600481885afa9384156107145760009461083f575b50604051937fe61dfd58000000000000000000000000000000000000000000000000000000008552602085600481895afa9485156107145760009561081e575b506040517fe09d394d0000000000000000000000000000000000000000000000000000000081526020816004818a5afa908115610714576000916107ff575b506040517f52b06d640000000000000000000000000000000000000000000000000000000081526020816004818b5afa908115610714576000916107e0575b506040517f013cf08b00000000000000000000000000000000000000000000000000000000815260006004820152916020836024818c5afa928315610714576000936107bf575b5060405197635e09dbe760e01b89526020896004818d5afa9485156107145760049960009661079e575b5060208b6040519b8c80927faa0ddc160000000000000000000000000000000000000000000000000000000082525afa9687156107145760049a60009861077d575b5060208c6040519c8d80927f640274270000000000000000000000000000000000000000000000000000000082525afa9889156107145760049b60009a61075c575b5060208d6040519d8e80927f30125cf50000000000000000000000000000000000000000000000000000000082525afa9a8b15610714578d60049d60009d61073a575b506020906040519e8f80927f24768d910000000000000000000000000000000000000000000000000000000082525afa9c8d156107145760009d610719575b50604051809e81907f9dc969a80000000000000000000000000000000000000000000000000000000082525a92600491602094fa9d8e156107145760009e6106e3575b506105f7610f68565b6001600160a01b0390911681529d8e906001600160a01b031660208201526040019061062b91906001600160a01b03169052565b6001600160a01b031660608d01526001600160a01b031660808c01526001600160a01b031660a08b01526001600160a01b031660c08a01526001600160a01b031660e08901526001600160a01b03166101008801526001600160a01b03166101208701526001600160a01b03166101408601526001600160a01b03166101608501526001600160a01b03166101808401526001600160a01b03166101a08301526001600160a01b03166101c082015261001690610f89565b610706919e5060203d60201161070d575b6106fe8183610f22565b810190610f44565b9c386105ee565b503d6106f4565b610f5c565b610733919d5060203d60201161070d576106fe8183610f22565b9b386105ab565b6020919d5061075590823d841161070d576106fe8183610f22565b9c9061056c565b610776919a5060203d60201161070d576106fe8183610f22565b9838610529565b61079791985060203d60201161070d576106fe8183610f22565b96386104e7565b6107b891965060203d60201161070d576106fe8183610f22565b94386104a5565b6107d991935060203d60201161070d576106fe8183610f22565b913861047b565b6107f9915060203d60201161070d576106fe8183610f22565b38610434565b610818915060203d60201161070d576106fe8183610f22565b386103f5565b61083891955060203d60201161070d576106fe8183610f22565b93386103b6565b61085991945060203d60201161070d576106fe8183610f22565b9238610376565b61087a91935060203d60201161070d576106fe8183610f22565b9138610336565b61089b91925060203d60201161070d576106fe8183610f22565b90386102f6565b6108bc91935060203d60201161070d576106fe8183610f22565b91386102b6565b6108dd91925060203d60201161070d576106fe8183610f22565b9038610276565b346101045760003660031901126101045760206001600160a01b0360005416604051908152f35b346101045760003660031901126101045760206001600160a01b0360015416604051908152f35b3461010457600036600319011261010457602061099f6001600160a01b036006541660405161096081610ee5565b601381527f67657464656c656761746f72436f756e74282900000000000000000000000000848201526040519161099683610f06565b6000835261151e565b604051908152f35b60408060031936011261010457600435906109c182610109565b602435916001600160a01b0391828216928315610b62576109e06112c0565b15610b52576109ee33611345565b908115610b44575b5015610b345783804710610a3c575b610a30907f1e70cf59d0c7a20c88704bfce5a47e636dfa577ebf52a7166641741cef343661936113ff565b519283523392602090a3005b610a47600491610ea3565b926020610a5f61022b6000546001600160a01b031690565b845193848092635e09dbe760e01b82525afa90811561071457610b06610af388937f1e70cf59d0c7a20c88704bfce5a47e636dfa577ebf52a7166641741cef34366197610a3096600092610b10575b5087517fa9059cbb000000000000000000000000000000000000000000000000000000006020820152306024820152604481019190915291610b019083906064820190565b03601f198101845283610f22565b6115a6565b5093509050610a05565b610b01919250610b2d9060203d811161070d576106fe8183610f22565b9190610aae565b6004905163ea8e4eb560e01b8152fd5b6005541633149050386109f6565b60048251634ee2123760e11b8152fd5b6004825163e6c4247b60e01b8152fd5b34610104576020366003190112610104576020610b99600435610b9481610109565b611345565b6040519015158152f35b3461010457602036600319011261010457600435610bbf6112c0565b15610cc2576001600160a01b03600554163303610cb15760009060046020610bf161022b85546001600160a01b031690565b604051928380927f46f991ac0000000000000000000000000000000000000000000000000000000082525afa80156107145783808481949382948391610c93575b505af1610c3d6113cf565b50156101d1577fcdcc745fe377b103b45fa0cec23ae3ef93d6fc6a84a01f0d18c40b354dd1d5d8610c8d610c7c61022b600b546001600160a01b031690565b604051938452929081906020820190565b0390a280f35b610cab915060203d811161070d576106fe8183610f22565b38610c32565b600460405163ea8e4eb560e01b8152fd5b6004604051634ee2123760e11b8152fd5b3461010457602036600319011261010457600435610cf081610109565b803b6000610cfd8261128c565b92610d0b6040519485610f22565b82845260208401903c602d815110610d2f57602a602091015160601c604051908152f35b60046040517fbaf3f0f7000000000000000000000000000000000000000000000000000000008152fd5b3461010457602080600319360112610104576101cd9060043590610d7c82610109565b610de06001600160a01b0392836006541693604051911683820152828152610da381610ee5565b604051610daf81610ee5565b601881527f697364656c656761746f724e6f6465286164647265737329000000000000000084820152600094611470565b919080610e1a575b610e01575b505060405190151581529081906020820190565b610e13925080825183010191016112a8565b3880610ded565b5080825114610de8565b34610104576000366003190112610104576020610b996112c0565b3461010457600036600319011261010457602061099f6001600160a01b0360035416604051610e6d81610ee5565b600681527f6941676528290000000000000000000000000000000000000000000000000000848201526040519161099683610f06565b9068056bc75e2d631000008201809211610eb957565b634e487b7160e01b600052601160045260246000fd5b634e487b7160e01b600052604160045260246000fd5b6040810190811067ffffffffffffffff821117610f0157604052565b610ecf565b6020810190811067ffffffffffffffff821117610f0157604052565b90601f8019910116810190811067ffffffffffffffff821117610f0157604052565b908160209103126101045751610f5981610109565b90565b6040513d6000823e3d90fd5b604051906101e0820182811067ffffffffffffffff821117610f0157604052565b61126e6101c061128a92610fc3610fa782516001600160a01b031690565b6001600160a01b03166001600160a01b03196002541617600255565b610ff6610fda60208301516001600160a01b031690565b6001600160a01b03166001600160a01b03196003541617600355565b61102961100d60408301516001600160a01b031690565b6001600160a01b03166001600160a01b03196004541617600455565b61105c61104060608301516001600160a01b031690565b6001600160a01b03166001600160a01b03196005541617600555565b61108f61107360808301516001600160a01b031690565b6001600160a01b03166001600160a01b03196006541617600655565b6110c26110a660a08301516001600160a01b031690565b6001600160a01b03166001600160a01b03196007541617600755565b6110f56110d960c08301516001600160a01b031690565b6001600160a01b03166001600160a01b03196008541617600855565b61112861110c60e08301516001600160a01b031690565b6001600160a01b03166001600160a01b03196009541617600955565b61115c6111406101008301516001600160a01b031690565b6001600160a01b03166001600160a01b0319600a541617600a55565b6111906111746101208301516001600160a01b031690565b6001600160a01b03166001600160a01b0319600b541617600b55565b6111c46111a86101408301516001600160a01b031690565b6001600160a01b03166001600160a01b0319600c541617600c55565b6111f86111dc6101608301516001600160a01b031690565b6001600160a01b03166001600160a01b0319600d541617600d55565b61122c6112106101808301516001600160a01b031690565b6001600160a01b03166001600160a01b0319600e541617600e55565b6112606112446101a08301516001600160a01b031690565b6001600160a01b03166001600160a01b0319600f541617600f55565b01516001600160a01b031690565b6001600160a01b03166001600160a01b03196010541617601055565b565b67ffffffffffffffff8111610f0157601f01601f191660200190565b90816020910312610104575180151581036101045790565b61131b6001600160a01b03600254166040516112db81610ee5565b600881527f697353616665282900000000000000000000000000000000000000000000000060208201526040519161131283610f06565b60008352611470565b908061133a575b156101d15780602080610f59935183010191016112a8565b506020815114611322565b6113a86001600160a01b03806002541660405191602094168483015283825261136d82610ee5565b6040519061137a82610ee5565b601582527f697353656375726542617365286164647265737329000000000000000000000085830152611470565b90806113c5575b156101d15781610f5992825183010191016112a8565b50818151146113af565b3d156113fa573d906113e08261128c565b916113ee6040519384610f22565b82523d6000602084013e565b606090565b90801561146c576001600160a01b03821691821561145b57600080808481945af16114286113cf565b50156101d15760207fcec1f18c3ab8ddaaa107a1591e3c369667eec613626611a8deaedef43069fcdd91604051908152a2565b600460405163e6c4247b60e01b8152fd5b5050565b9190823b15611505577fffffffff00000000000000000000000000000000000000000000000000000000815160208093012016916040519180830193845281519160005b8381106114f15750505091816114e160248260009795968897018783820152036004810184520182610f22565b51915afa6114ed6113cf565b9091565b8181018301518582016024015282016114b4565b50505060009060405161151781610f06565b6000815290565b929161152c91600094611470565b9080611551575b61153a5750565b909150602081805181010312610104576020015190565b506020815114611533565b90602082519201517fffffffff0000000000000000000000000000000000000000000000000000000090818116936004811061159757505050565b60040360031b82901b16169150565b6001600160a01b0381161561145b57600080918351908260208601915af1906115cd6113cf565b91156115d7575090565b805160009190600411611653576115ee915061155c565b8151156115fe5750805190602001fd5b6040517f21c09d340000000000000000000000000000000000000000000000000000000081527fffffffff00000000000000000000000000000000000000000000000000000000919091166004820152602490fd5b506115ee56fea2646970667358221220443581cc8a0d6f6dee4d313936bed63a9e94ae6308e046b421ca478796c3154764736f6c63430008140033","linkReferences":{}},"methodIdentifiers":{"instance()":"022ec095","tVLFactory()":"9ba540fb","tVLMining()":"d795ff38","tVLReward()":"b85c9faf","tVLRoyality()":"9443767c","tVLTour()":"dabf429d","tVLValidator()":"a50c0bc0"},"id":80}