{"abi":[{"type":"constructor","inputs":[{"name":"_hex","type":"address","internalType":"address"},{"name":"_price","type":"address","internalType":"address"},{"name":"_old741","type":"address","internalType":"address"}],"stateMutability":"nonpayable"},{"type":"function","name":"dAOAssembly","inputs":[],"outputs":[{"name":"","type":"address","internalType":"address"}],"stateMutability":"view"},{"type":"function","name":"daocore","inputs":[],"outputs":[{"name":"","type":"address","internalType":"address"}],"stateMutability":"view"},{"type":"function","name":"nested741","inputs":[],"outputs":[{"name":"","type":"address","internalType":"address"}],"stateMutability":"view"},{"type":"function","name":"old741","inputs":[],"outputs":[{"name":"","type":"address","internalType":"address"}],"stateMutability":"view"},{"type":"function","name":"price","inputs":[],"outputs":[{"name":"","type":"address","internalType":"address"}],"stateMutability":"view"}],"bytecode":{"object":"0x6080346101b757601f61a70938819003918201601f19168301926001600160401b03929091838511838610176101a15781606092849260409788528339810103126101b75761004d816101bc565b6100648461005d602085016101bc565b93016101bc565b9160018060a01b03199273c0cee8b561cc4f60869776ca5b0b7a295e04f5af84600154161760015585516118489586820196828810828911176101a15761032583396001600160a01b039485168088526000979092908190036020019088f080156101835785168660035416176003558751615af7808201908282108483111761018d576020918391614c12833985815203019088f080156101835785168660025416176002558751916130a5808401928484109084111761016f57918391602093611b6d8439815203019086f080156101655790838092168560045416176004551683600154161760015516908254161790555161015490816101d18239f35b86513d87823e3d90fd5b634e487b7160e01b89526041600452602489fd5b88513d89823e3d90fd5b634e487b7160e01b8a52604160045260248afd5b634e487b7160e01b600052604160045260246000fd5b600080fd5b51906001600160a01b03821682036101b75756fe608080604052600436101561001357600080fd5b600090813560e01c90816314837455146100f55750806314d8d024146100ce57806345cff900146100a75780635540c5ac146100805763a035b1fe1461005857600080fd5b3461007d578060031936011261007d576001600160a01b036020915416604051908152f35b80fd5b503461007d578060031936011261007d5760206001600160a01b0360015416604051908152f35b503461007d578060031936011261007d5760206001600160a01b0360025416604051908152f35b503461007d578060031936011261007d5760206001600160a01b0360045416604051908152f35b90503461011a578160031936011261011a576020906001600160a01b03600354168152f35b5080fdfea26469706673582212208d985c7ea3ce6f36e91eefea39f7ed8af49c4bd33a6316f9dd9ef360218a420564736f6c6343000814003360803461009757601f61184838819003918201601f19168301916001600160401b0383118484101761009c5780849260209460405283398101031261009757516001600160a01b038116908190036100975780156100855760018060a01b0319338160015416176001556000541617600055600060125560405161179590816100b38239f35b60405163e6c4247b60e01b8152600490fd5b600080fd5b634e487b7160e01b600052604160045260246000fdfe60806040526004361015610018575b361561001657005b005b60003560e01c806312065fe0146101185780631f185d161461011357806325924f341461010e578063339459a6146101095780633b9b79551461010457806361b7fbd9146100ff5780638da5cb5b146100fa578063a1f7f539146100f5578063af484526146100f0578063b90306ad146100eb578063c54e44b0146100e6578063c89b84fd146100e1578063dbac26e9146100dc578063e01ad5fd146100d7578063e0a9bc2b146100d25763fdc10bc90361000e57610ecf565b610eb4565b610e34565b610df1565b610d2c565b610ca6565b610b98565b610b19565b610aa4565b610a7d565b61098f565b61095e565b610266565b610235565b61014a565b3461013457600036600319011261013457602047604051908152f35b600080fd5b6001600160a01b0381160361013457565b3461013457602080600319360112610134576101c960043561016b81610139565b6001600160a01b0380600254169060405192168483015283825261018e82610f00565b6040519061019b82610f00565b601182527f69735369676e6572286164647265737329000000000000000000000000000000858301526115e6565b91908061022b575b156102015781816101eb926101fd945183010191016114ca565b60405190151581529081906020820190565b0390f35b60046040517f3204506f000000000000000000000000000000000000000000000000000000008152fd5b50808251146101d1565b3461013457602036600319011261013457602061025c60043561025781610139565b61108e565b6040519015158152f35b346101345760003660031901126101345761029861028c6000546001600160a01b031690565b6001600160a01b031690565b604051907f97f3815a000000000000000000000000000000000000000000000000000000008252602082600481845afa91821561078e5760009261093d575b50604051917fcfbffe53000000000000000000000000000000000000000000000000000000008352602083600481855afa92831561078e5760009361091c575b50604051907fab6e844f000000000000000000000000000000000000000000000000000000008252602082600481865afa91821561078e576000926108fb575b50604051917f14d8d024000000000000000000000000000000000000000000000000000000008352602083600481875afa92831561078e576000936108da575b50604051927fd1f956b1000000000000000000000000000000000000000000000000000000008452602084600481885afa93841561078e576000946108b9575b50604051937fe61dfd58000000000000000000000000000000000000000000000000000000008552602085600481895afa94851561078e57600095610898575b506040517fe09d394d0000000000000000000000000000000000000000000000000000000081526020816004818a5afa90811561078e57600091610879575b506040517f52b06d640000000000000000000000000000000000000000000000000000000081526020816004818b5afa90811561078e5760009161085a575b506040517f013cf08b00000000000000000000000000000000000000000000000000000000815260006004820152916020836024818c5afa92831561078e57600093610839575b50604051977f5e09dbe70000000000000000000000000000000000000000000000000000000089526020896004818d5afa94851561078e57600499600096610818575b5060208b6040519b8c80927faa0ddc160000000000000000000000000000000000000000000000000000000082525afa96871561078e5760049a6000986107f7575b5060208c6040519c8d80927f640274270000000000000000000000000000000000000000000000000000000082525afa98891561078e5760049b60009a6107d6575b5060208d6040519d8e80927f30125cf50000000000000000000000000000000000000000000000000000000082525afa9a8b1561078e578d60049d60009d6107b4575b506020906040519e8f80927f24768d910000000000000000000000000000000000000000000000000000000082525afa9c8d1561078e5760009d610793575b50604051809e81907f9dc969a80000000000000000000000000000000000000000000000000000000082525a92600491602094fa9d8e1561078e5760009e61075d575b50610671610f5a565b6001600160a01b0390911681529d8e906001600160a01b03166020820152604001906106a591906001600160a01b03169052565b6001600160a01b031660608d01526001600160a01b031660808c01526001600160a01b031660a08b01526001600160a01b031660c08a01526001600160a01b031660e08901526001600160a01b03166101008801526001600160a01b03166101208701526001600160a01b03166101408601526001600160a01b03166101608501526001600160a01b03166101808401526001600160a01b03166101a08301526001600160a01b03166101c0820152610016906111c7565b610780919e5060203d602011610787575b6107788183610f38565b8101906111a6565b9c38610668565b503d61076e565b6111bb565b6107ad919d5060203d602011610787576107788183610f38565b9b38610625565b6020919d506107cf90823d8411610787576107788183610f38565b9c906105e6565b6107f0919a5060203d602011610787576107788183610f38565b98386105a3565b61081191985060203d602011610787576107788183610f38565b9638610561565b61083291965060203d602011610787576107788183610f38565b943861051f565b61085391935060203d602011610787576107788183610f38565b91386104dc565b610873915060203d602011610787576107788183610f38565b38610495565b610892915060203d602011610787576107788183610f38565b38610456565b6108b291955060203d602011610787576107788183610f38565b9338610417565b6108d391945060203d602011610787576107788183610f38565b92386103d7565b6108f491935060203d602011610787576107788183610f38565b9138610397565b61091591925060203d602011610787576107788183610f38565b9038610357565b61093691935060203d602011610787576107788183610f38565b9138610317565b61095791925060203d602011610787576107788183610f38565b90386102d7565b346101345760003660031901126101345760206001600160a01b0360005416604051908152f35b8015150361013457565b34610134576040366003190112610134576004356109ac81610139565b602435906109b982610985565b6109c16114df565b15610a53576001600160a01b039081600554163303610a2957166000526011602052604060002060ff1981541660ff83151516179055600014610a17576012546000198114610a1257600101601255005b611190565b6012548015610a125760001901601255005b60046040517fea8e4eb5000000000000000000000000000000000000000000000000000000008152fd5b60046040517f9dc4246e000000000000000000000000000000000000000000000000000000008152fd5b346101345760003660031901126101345760206001600160a01b0360015416604051908152f35b34610134576000366003190112610134576020610b116001600160a01b0360065416604051610ad281610f00565b601381527f67657464656c656761746f72436f756e742829000000000000000000000000008482015260405191610b0883610f1c565b60008352611721565b604051908152f35b3461013457602080600319360112610134576101c9600435610b3a81610139565b6001600160a01b03806002541690604051921684830152838252610b5d82610f00565b60405190610b6a82610f00565b601582527f6973536563757265426173652861646472657373290000000000000000000000858301526115e6565b3461013457602036600319011261013457600435610bb46114df565b15610a53576001600160a01b03600554163303610a295760009060046020610be661028c85546001600160a01b031690565b604051928380927f46f991ac0000000000000000000000000000000000000000000000000000000082525afa801561078e5783808481949382948391610c88575b505af1610c326115b6565b5015610201577fcdcc745fe377b103b45fa0cec23ae3ef93d6fc6a84a01f0d18c40b354dd1d5d8610c82610c7161028c600b546001600160a01b031690565b604051938452929081906020820190565b0390a280f35b610ca0915060203d8111610787576107788183610f38565b38610c27565b3461013457602036600319011261013457600435610cc381610139565b803b6000610cd082610f7b565b92610cde6040519485610f38565b82845260208401903c602d815110610d0257602a602091015160601c604051908152f35b60046040517fbaf3f0f7000000000000000000000000000000000000000000000000000000008152fd5b34610134576000366003190112610134576001600160a01b038060035416610d65610d55610faa565b91604092835191610b0883610f1c565b9160045416610d72611564565b92825193602085015282840152818352606083019280841067ffffffffffffffff851117610dec5783610ddd926101fd958552610dae82610f00565b601d82527f67657472616e6b436f756e742875696e743235362c75696e74323536290000006080840152611721565b90519081529081906020820190565b610eea565b34610134576020366003190112610134576001600160a01b03600435610e1681610139565b166000526011602052602060ff604060002054166040519015158152f35b3461013457602036600319011261013457602061025c600435610e5681610139565b6001600160a01b03806006541690604051921684830152838252610e7982610f00565b60405190610e8682610f00565b601882527f697364656c656761746f724e6f64652861646472657373290000000000000000858301526116e5565b3461013457600036600319011261013457602061025c6114df565b34610134576000366003190112610134576020610b11611564565b634e487b7160e01b600052604160045260246000fd5b6040810190811067ffffffffffffffff821117610dec57604052565b6020810190811067ffffffffffffffff821117610dec57604052565b90601f8019910116810190811067ffffffffffffffff821117610dec57604052565b604051906101e0820182811067ffffffffffffffff821117610dec57604052565b67ffffffffffffffff8111610dec57601f01601f191660200190565b60405190610fa482610f1c565b60008252565b60405190610fb782610f00565b600c82527f72616e6b666f7244414f282900000000000000000000000000000000000000006020830152565b60405190610ff082610f00565b601682527f67657455736572546f53746f72286164647265737329000000000000000000006020830152565b6040519061102982610f00565b600682527f72616e6b282900000000000000000000000000000000000000000000000000006020830152565b6040519061106282610f00565b600882527f69734c6f636b28290000000000000000000000000000000000000000000000006020830152565b6001600160a01b03906110b482600354166110a7610faa565b60405191610b0883610f1c565b6110fc6110c96004546001600160a01b031690565b604080516001600160a01b038616602080830191909152815291906110ee9083610f38565b6110f6610fe3565b90611694565b928316156111885761113861112161111261101c565b61111a610f97565b9086611721565b9361112a611055565b611132610f97565b916116e5565b921015918261117f575b508161114c575090565b61117c9150611171611178916001600160a01b03166000526011602052604060002090565b5460ff1690565b1590565b90565b15915038611142565b505050600090565b634e487b7160e01b600052601160045260246000fd5b90816020910312610134575161117c81610139565b6040513d6000823e3d90fd5b6114ac6101c06114c8926112016111e582516001600160a01b031690565b6001600160a01b03166001600160a01b03196002541617600255565b61123461121860208301516001600160a01b031690565b6001600160a01b03166001600160a01b03196003541617600355565b61126761124b60408301516001600160a01b031690565b6001600160a01b03166001600160a01b03196004541617600455565b61129a61127e60608301516001600160a01b031690565b6001600160a01b03166001600160a01b03196005541617600555565b6112cd6112b160808301516001600160a01b031690565b6001600160a01b03166001600160a01b03196006541617600655565b6113006112e460a08301516001600160a01b031690565b6001600160a01b03166001600160a01b03196007541617600755565b61133361131760c08301516001600160a01b031690565b6001600160a01b03166001600160a01b03196008541617600855565b61136661134a60e08301516001600160a01b031690565b6001600160a01b03166001600160a01b03196009541617600955565b61139a61137e6101008301516001600160a01b031690565b6001600160a01b03166001600160a01b0319600a541617600a55565b6113ce6113b26101208301516001600160a01b031690565b6001600160a01b03166001600160a01b0319600b541617600b55565b6114026113e66101408301516001600160a01b031690565b6001600160a01b03166001600160a01b0319600c541617600c55565b61143661141a6101608301516001600160a01b031690565b6001600160a01b03166001600160a01b0319600d541617600d55565b61146a61144e6101808301516001600160a01b031690565b6001600160a01b03166001600160a01b0319600e541617600e55565b61149e6114826101a08301516001600160a01b031690565b6001600160a01b03166001600160a01b0319600f541617600f55565b01516001600160a01b031690565b6001600160a01b03166001600160a01b03196010541617601055565b565b90816020910312610134575161117c81610985565b61153a6001600160a01b03600254166040516114fa81610f00565b600881527f697353616665282900000000000000000000000000000000000000000000000060208201526040519161153183610f1c565b600083526115e6565b9080611559575b15610201578060208061117c935183010191016114ca565b506020815114611541565b61117c6001600160a01b036003541660405161157f81610f00565b600681527f6941676528290000000000000000000000000000000000000000000000000000602082015260405191610b0883610f1c565b3d156115e1573d906115c782610f7b565b916115d56040519384610f38565b82523d6000602084013e565b606090565b9190823b1561167b577fffffffff00000000000000000000000000000000000000000000000000000000815160208093012016916040519180830193845281519160005b83811061166757505050918161165760248260009795968897018783820152036004810184520182610f38565b51915afa6116636115b6565b9091565b81810183015185820160240152820161162a565b50505060009060405161168d81610f1c565b6000815290565b92916116a2916000946115e6565b90806116da575b6116b05750565b9091506020818051810103126101345760206001600160a01b039101516116d681610139565b1690565b5060208151146116a9565b92916116f3916000946115e6565b9080611716575b6117015750565b61117c919250602080825183010191016114ca565b5060208151146116fa565b929161172f916000946115e6565b9080611754575b61173d5750565b909150602081805181010312610134576020015190565b50602081511461173656fea264697066735822122047f727fcb9b02191f8f435da04f13ae8cabef0b29b8182794bf01dcd3ae2b86c64736f6c634300081400336080346200009e57601f620030a538819003918201601f19168301916001600160401b03831184841017620000a3578084926020946040528339810103126200009e57516001600160a01b038116908190036200009e5780156200008c5760018060a01b03193381600154161760015560005416176000556001601155604051612feb9081620000ba8239f35b60405163e6c4247b60e01b8152600490fd5b600080fd5b634e487b7160e01b600052604160045260246000fdfe60806040526004361015610018575b361561001657005b005b60003560e01c8063013cf08b146101c857806312065fe0146101c35780631f185d16146101be57806326705c3c146101b9578063339459a6146101b45780633b9b7955146101af57806343859632146101aa57806345a257bc146101a55780635c622a0e146101a0578063604ff4b11461019b578063896d6db1146101965780638da5cb5b1461019157806398e527d31461018c578063995e433914610187578063a1f7f53914610182578063af4845261461017d578063b7ccfe3214610178578063b90306ad14610173578063c54e44b01461016e578063c7f758a814610169578063c9d27afe14610164578063cc48bf161461015f578063d3325a2c1461015a578063e01ad5fd14610155578063e0a9bc2b14610150578063eeebb3c31461014b5763fdc10bc90361000e57611ce6565b611a25565b611a0a565b6119e3565b611954565b61181f565b611684565b61160e565b611546565b611438565b6113a6565b6112bf565b61129c565b611218565b6111fa565b6111d3565b61113a565b61105b565b61100f565b610d66565b610cc4565b610c9d565b6105a5565b610587565b610556565b610529565b610465565b634e487b7160e01b600052603260045260246000fd5b60125481101561021e57600b906012600052027fbb8a6a4669ba250d26cd7a459eca9d215f8307e33aebe50379bc5a3617ec34440190600090565b6101cd565b90600182811c92168015610253575b602083101461023d57565b634e487b7160e01b600052602260045260246000fd5b91607f1691610232565b906000929180549161026e83610223565b9182825260019384811690816000146102d05750600114610290575b50505050565b90919394506000526020928360002092846000945b8386106102bc57505050500101903880808061028a565b8054858701830152940193859082016102a5565b9294505050602093945060ff191683830152151560051b0101903880808061028a565b634e487b7160e01b600052604160045260246000fd5b6040810190811067ffffffffffffffff82111761032557604052565b6102f3565b6020810190811067ffffffffffffffff82111761032557604052565b90601f8019910116810190811067ffffffffffffffff82111761032557604052565b9061038361037c926040519384809261025d565b0383610346565b565b60005b8381106103985750506000910152565b8181015183820152602001610388565b906020916103c181518092818552858086019101610385565b601f01601f1916010190565b99939561041d61044d969f9e9d99936101809d986104619c9660408f6001600160a01b036104076104579f996101a08085528401906103a8565b9516602082015201528d820360608f01526103a8565b9e60808c015260a08b015260c08a015260e089015215156101008801526101208701906001600160a01b03169052565b1515610140850152565b1515610160830152565b0152565b34610524576020366003190112610524576004356012548110156105245761048c906101e3565b506040516104a58161049e818561025d565b0382610346565b6105206104bc60018401546001600160a01b031690565b6002840154906104ce60038601610368565b93600486015495600581015493600682015460078301549060096008850154940154966040519a8b9a8b9560ff8860b01c169960ff8960a81c169960ff6001600160a01b038b60081c169a16986103cd565b0390f35b600080fd5b3461052457600036600319011261052457602047604051908152f35b6001600160a01b0381160361052457565b3461052457602036600319011261052457602061057d60043561057881610545565b612bfd565b6040519015158152f35b34610524576000366003190112610524576020601454604051908152f35b34610524576000366003190112610524576105d76105cb6000546001600160a01b031690565b6001600160a01b031690565b604051907f97f3815a000000000000000000000000000000000000000000000000000000008252602082600481845afa918215610acd57600092610c7c575b50604051917fcfbffe53000000000000000000000000000000000000000000000000000000008352602083600481855afa928315610acd57600093610c5b575b50604051907fab6e844f000000000000000000000000000000000000000000000000000000008252602082600481865afa918215610acd57600092610c3a575b50604051917f14d8d024000000000000000000000000000000000000000000000000000000008352602083600481875afa928315610acd57600093610c19575b50604051927fd1f956b1000000000000000000000000000000000000000000000000000000008452602084600481885afa938415610acd57600094610bf8575b50604051937fe61dfd58000000000000000000000000000000000000000000000000000000008552602085600481895afa948515610acd57600095610bd7575b506040517fe09d394d0000000000000000000000000000000000000000000000000000000081526020816004818a5afa908115610acd57600091610bb8575b506040517f52b06d640000000000000000000000000000000000000000000000000000000081526020816004818b5afa908115610acd57600091610b99575b506040517f013cf08b00000000000000000000000000000000000000000000000000000000815260006004820152916020836024818c5afa928315610acd57600093610b78575b50604051977f5e09dbe70000000000000000000000000000000000000000000000000000000089526020896004818d5afa948515610acd57600499600096610b57575b5060208b6040519b8c80927faa0ddc160000000000000000000000000000000000000000000000000000000082525afa968715610acd5760049a600098610b36575b5060208c6040519c8d80927f640274270000000000000000000000000000000000000000000000000000000082525afa988915610acd5760049b60009a610b15575b5060208d6040519d8e80927f30125cf50000000000000000000000000000000000000000000000000000000082525afa9a8b15610acd578d60049d60009d610af3575b506020906040519e8f80927f24768d910000000000000000000000000000000000000000000000000000000082525afa9c8d15610acd5760009d610ad2575b50604051809e81907f9dc969a80000000000000000000000000000000000000000000000000000000082525a92600491602094fa9d8e15610acd5760009e610a9c575b506109b06118c0565b6001600160a01b0390911681529d8e906001600160a01b03166020820152604001906109e491906001600160a01b03169052565b6001600160a01b031660608d01526001600160a01b031660808c01526001600160a01b031660a08b01526001600160a01b031660c08a01526001600160a01b031660e08901526001600160a01b03166101008801526001600160a01b03166101208701526001600160a01b03166101408601526001600160a01b03166101608501526001600160a01b03166101808401526001600160a01b03166101a08301526001600160a01b03166101c082015261001690612862565b610abf919e5060203d602011610ac6575b610ab78183610346565b8101906122dc565b9c386109a7565b503d610aad565b612856565b610aec919d5060203d602011610ac657610ab78183610346565b9b38610964565b6020919d50610b0e90823d8411610ac657610ab78183610346565b9c90610925565b610b2f919a5060203d602011610ac657610ab78183610346565b98386108e2565b610b5091985060203d602011610ac657610ab78183610346565b96386108a0565b610b7191965060203d602011610ac657610ab78183610346565b943861085e565b610b9291935060203d602011610ac657610ab78183610346565b913861081b565b610bb2915060203d602011610ac657610ab78183610346565b386107d4565b610bd1915060203d602011610ac657610ab78183610346565b38610795565b610bf191955060203d602011610ac657610ab78183610346565b9338610756565b610c1291945060203d602011610ac657610ab78183610346565b9238610716565b610c3391935060203d602011610ac657610ab78183610346565b91386106d6565b610c5491925060203d602011610ac657610ab78183610346565b9038610696565b610c7591935060203d602011610ac657610ab78183610346565b9138610656565b610c9691925060203d602011610ac657610ab78183610346565b9038610616565b346105245760003660031901126105245760206001600160a01b0360005416604051908152f35b3461052457604036600319011261052457600435602435610ce481610545565b6000198201918211610d2957610d1d60ff91600a610d036020956101e3565b5001906001600160a01b0316600052602052604060002090565b54166040519015158152f35b612213565b9181601f840112156105245782359167ffffffffffffffff8311610524576020838186019501011161052457565b8015150361052457565b346105245760e03660031901126105245760043560243567ffffffffffffffff811161052457610d9a903690600401610d2e565b604435610da681610545565b606435936001600160e01b031985168086036105245760843560a4359260c43592610dd084610d5c565b610dd933612bfd565b15610ffe57610df490610ded881515611d01565b1515611d4c565b8315801590610fec575b610e0790611d97565b80610ed15750610ecc9593610ec4610016989694610eb07f0454182b30f1740c505634bb66f7f3001e232b3c8797a62b1db11b347a891ff4956001600160a01b0395610e8a610e546118e1565b92610e60368c8e61191d565b84526001600160a01b03881660208501526001600160e01b03198d16604085015215156060840152565b60808201528260a0820152610eab6014546000526013602052604060002090565b612064565b6014549788966040519586951698856121e5565b0390a3612229565b601455565b968294610fd288957f74608b2c8ffedaacf37a0fda8ea5cb94ebae20dc104623eb2fabb1bcec211608946001600160a01b03948a610fc48e997f2dd3ae6155b13a46b2374a1f42e0733244754e572ec9f0034b698efefa8673a19e610f5b610fe79f610f548e610f446014548210611de2565b6000526013602052604060002090565b9283611e81565b8660036001830192610f838c85906001600160a01b03166001600160a01b0319825416179055565b835463ffffffff60a01b1916604089901c63ffffffff60a01b1617845588600282015501559060ff60c01b1960ff60c01b835492151560c01b169116179055565b604051968796169986611f6a565b0390a360405190151581529081906020820190565b0390a2005b506001600160a01b0385161515610dfe565b600460405163ea8e4eb560e01b8152fd5b34610524576020366003190112610524576004356000198101908111610d2957600861103c6040926101e3565b50015460ff825191818160a81c161515835260b01c1615156020820152f35b3461052457602036600319011261052457600435611077612b78565b15611129573330036110e557801515806110da575b1561109657601155005b606460405162461bcd60e51b815260206004820152601660248201527f64616f2e696e76616c69642e70657263656e74616765000000000000000000006044820152fd5b50606481111561108c565b606460405162461bcd60e51b815260206004820152600d60248201527f64616f2e66616b652e636f7265000000000000000000000000000000000000006044820152fd5b6004604051634ee2123760e11b8152fd5b346105245760203660031901126105245760043560005260136020526111976040600020604051906111708261037c818461025d565b600181015490600360028201549101549060ff60405195869560c0875260c08701906103a8565b936001600160a01b03811660208701526001600160e01b03198160401b16604087015260c01c1615156060850152608084015260a08301520390f35b346105245760003660031901126105245760206001600160a01b0360015416604051908152f35b34610524576000366003190112610524576020601254604051908152f35b34610524576020366003190112610524576004356000198101908111610d2957611241906101e3565b50600481015460058201546006830154600784015460089094015460408051948552602085019390935291830152606082019290925260ff60a883901c81161515608083015260b09290921c909116151560a082015260c090f35b346105245760003660031901126105245760206112b7612d47565b604051908152f35b34610524576020806003193601126105245761133e6004356112e081610545565b6001600160a01b0380600254169060405192168483015283825261130382610309565b6040519061131082610309565b601582527f697353656375726542617365286164647265737329000000000000000000000085830152612dc9565b91908061139c575b156113725781816113609261052094518301019101612b63565b60405190151581529081906020820190565b60046040517f3204506f000000000000000000000000000000000000000000000000000000008152fd5b5080825114611346565b34610524576040366003190112610524576004356024356113c681610d5c565b6113cf33612bfd565b15610ffe5760207f2dd3ae6155b13a46b2374a1f42e0733244754e572ec9f0034b698efefa8673a1916114056014548510611de2565b60008481526013835260409020600101805460ff60c01b191682151560c01b60ff60c01b161790556040519015158152a2005b3461052457602036600319011261052457600435611454612b78565b15611129576001600160a01b03600554163303610ffe57600090600460206114866105cb85546001600160a01b031690565b604051928380927f46f991ac0000000000000000000000000000000000000000000000000000000082525afa8015610acd5783808481949382948391611528575b505af16114d2612d99565b5015611372577fcdcc745fe377b103b45fa0cec23ae3ef93d6fc6a84a01f0d18c40b354dd1d5d86115226115116105cb600b546001600160a01b031690565b604051938452929081906020820190565b0390a280f35b611540915060203d8111610ac657610ab78183610346565b386114c7565b346105245760203660031901126105245760043561156381610545565b803b600061157082611901565b9261157e6040519485610346565b82845260208401903c602d8151106115a257602a602091015160601c604051908152f35b60046040517fbaf3f0f7000000000000000000000000000000000000000000000000000000008152fd5b929695949190936115e760a09560c0865260c08601906103a8565b976001600160a01b0380931660208601526040850152166060830152151560808201520152565b34610524576020366003190112610524576004356000198101908111610d2957611637906101e3565b506001600160a01b036105208160018401541692600281015461037c60088301549161166e6009850154946040519384809261025d565b60405196879660ff85169460081c1692876115cc565b34610524576040366003190112610524576004356024356116a481610d5c565b6116ac612b78565b15611129576116ba33612ce2565b15610ffe5781151580611813575b6116d1906125ab565b6116e26116dd836125f6565b6101e3565b509061171a60ff60088401546116f9828216612605565b6117106006860154611709612c87565b1115612650565b60b01c161561269b565b61177f611772600a840161175a61175561175161174a3385906001600160a01b0316600052602052604060002090565b5460ff1690565b1590565b6126e6565b336001600160a01b0316600052602052604060002090565b805460ff19166001179055565b80156117fe57600482016117938154612229565b90555b6040519015158152339083907f0def80f9a3b4c7a4251442658ccf516bf33ea4acaf31638fc6da8ebdb0f64c7290602090a360048101546007820154809110918215926117ef575b50506117e657005b61001690612731565b600501541015905038806117de565b6005820161180c8154612229565b9055611796565b506012548211156116c8565b346105245760203660031901126105245760043561183c33612bfd565b15610ffe57801515806118b4575b611853906125ab565b6000198101818111610d295761186a6008916101e3565b5001600160b01b60ff60b01b19825461188960ff8260b01c161561269b565b161790557f4cf2797951877f41b38931a68643f9249273f32fd396532213aa4f1222c9d16b600080a2005b5060125481111561184a565b604051906101e0820182811067ffffffffffffffff82111761032557604052565b6040519060c0820182811067ffffffffffffffff82111761032557604052565b67ffffffffffffffff811161032557601f01601f191660200190565b92919261192982611901565b916119376040519384610346565b829481845281830111610524578281602093846000960137010152565b346105245760a03660031901126105245767ffffffffffffffff60043581811161052457611986903690600401610d2e565b60249291923561199581610545565b606435928311610524573660238401121561052457610520936119c56119d394369060248160040135910161191d565b916084359360443592612480565b6040519081529081906020820190565b3461052457602036600319011261052457602061057d600435611a0581610545565b612ce2565b3461052457600036600319011261052457602061057d612b78565b346105245760803660031901126105245760046024358135611a4682610545565b60443567ffffffffffffffff811161052457611a659036908501610d2e565b9290611a6f612b78565b15611cd657611a7d33612ce2565b15611cc657611ae69150611a946014548410611de2565b611aa8836000526013602052604060002090565b90600182015490611abe60ff8360c01c16612238565b6001600160a01b0360409687519586916020946001600160e01b0319878c1b16868501612283565b0392611afa601f1994858101885287610346565b169160038401805480611b39575b61052089611b2a8a8a8a8a600282015493611b2560643593610368565b612369565b90519081529081906020820190565b89546001600160a01b031690611b876117518b51611b7981611b6d8b8b83019190916001600160a01b036020820193169052565b03888101835282610346565b611b816122a3565b85612e44565b611cb757916105209a918a6001611b2a9b9a999897969514611c45575b505054600214611bba575b839495969750611b08565b611c1f611c3d94611c2b6105cb9594611bdd611c3095546001600160a01b031690565b8d517f76fe6c4500000000000000000000000000000000000000000000000000000000888201526001600160a01b039094166024850152929384906044820190565b03908101845283610346565b612ef0565b80518101820191016122dc565b388080611baf565b517f0e5fd00b00000000000000000000000000000000000000000000000000000000868201526001600160a01b0390961660248701529094600291611caf916105cb91611ca19190611c2b826044810103898101845283610346565b8680825183010191016122dc565b94908a611ba4565b8a8a5163ea8e4eb560e01b8152fd5b8460405163ea8e4eb560e01b8152fd5b84604051634ee2123760e11b8152fd5b346105245760003660031901126105245760206112b7612c87565b15611d0857565b606460405162461bcd60e51b815260206004820152601760248201527f64616f2e74656d706c6174652e656d7074792e646573630000000000000000006044820152fd5b15611d5357565b606460405162461bcd60e51b815260206004820152601a60248201527f64616f2e74656d706c6174652e7a65726f2e73656c6563746f720000000000006044820152fd5b15611d9e57565b606460405162461bcd60e51b815260206004820152601860248201527f64616f2e74656d706c6174652e7a65726f2e74617267657400000000000000006044820152fd5b15611de957565b606460405162461bcd60e51b815260206004820152601460248201527f64616f2e74656d706c6174652e696e76616c69640000000000000000000000006044820152fd5b90601f8111611e3b57505050565b600091825260208220906020601f850160051c83019410611e77575b601f0160051c01915b828110611e6c57505050565b818155600101611e60565b9092508290611e57565b90929167ffffffffffffffff811161032557611ea781611ea18454610223565b84611e2d565b6000601f8211600114611ee15781929394600092611ed6575b50508160011b916000199060031b1c1916179055565b013590503880611ec0565b601f19821694611ef684600052602060002090565b91805b878110611f31575083600195969710611f17575b505050811b019055565b0135600019600384901b60f8161c19169055388080611f0d565b90926020600181928686013581550194019101611ef9565b908060209392818452848401376000828201840152601f01601f1916010190565b91611f8d606094979695926001600160e01b031992608086526080860191611f49565b9616602083015260408201520152565b919091825167ffffffffffffffff811161032557611fbf81611ea18454610223565b602080601f8311600114611ffa575081929394600092611fef5750508160011b916000199060031b1c1916179055565b015190503880611ec0565b90601f1983169561201085600052602060002090565b926000905b88821061204c5750508360019596971061203357505050811b019055565b015160001960f88460031b161c19169055388080611f0d565b80600185968294968601518155019501930190612015565b908051805167ffffffffffffffff81116103255761208c816120868654610223565b86611e2d565b6020918290601f8311600114612170579282600395936121549360a096600092612165575b50508160011b9160001990881b1c19161786555b6120fb6120df60018801928501516001600160a01b031690565b82906001600160a01b03166001600160a01b0319825416179055565b61213361211360408501516001600160e01b03191690565b825463ffffffff60a01b191660409190911c63ffffffff60a01b16178255565b60608301511515815460ff60c01b191690151560c01b60ff60c01b16179055565b608081015160028501550151910155565b0151905038806120b1565b90601f1983169161218687600052602060002090565b9260005b8181106121ce5750936121549360a096936001938360039a98106121b6575b505050811b0186556120c5565b0151600019838a1b60f8161c191690553880806121a9565b92938660018192878601518155019501930161218a565b906122086001600160e01b03199160409497969597606085526060850191611f49565b951660208201520152565b634e487b7160e01b600052601160045260246000fd5b6000198114610d295760010190565b1561223f57565b606460405162461bcd60e51b815260206004820152601560248201527f64616f2e74656d706c6174652e64697361626c656400000000000000000000006044820152fd5b909280926001600160e01b03196004951683528483013701016000815290565b604051906122b082610309565b601582527f69735573657245786973747328616464726573732900000000000000000000006020830152565b9081602091031261052457516122f181610545565b90565b6012546801000000000000000081101561032557600181018060125581101561021e57600b906012600052027fbb8a6a4669ba250d26cd7a459eca9d215f8307e33aebe50379bc5a3617ec34440190600090565b81810292918115918404141715610d2957565b9060638201809211610d2957565b92936123b09195929461238561237d6122f4565b509586611f9d565b6001850180546001600160a01b0319166001600160a01b038816179055600285015560038401611f9d565b60646123ce6123c96123c0612d47565b60115490612348565b61235b565b0460078301556123dc612c87565b908101809111610d2957816009916006869401556124386008820161177233829074ffffffffffffffffffffffffffffffffffffffff001974ffffffffffffffffffffffffffffffffffffffff0083549260081b169116179055565b01556012546040516001600160a01b03909216825291339183907f336735bcae5ee955b87e8b30bee52920223fa30a865b207ac6d9eee9f19589fb9080602081015b0390a490565b919492939061248e33612bfd565b15610ffe576001600160a01b03861615612581576124bd926124b191369161191d565b9361238561237d6122f4565b60646124cd6123c96123c0612d47565b0460078301556124db612c87565b908101809111610d295781600991600660009401556125386008820161177233829074ffffffffffffffffffffffffffffffffffffffff001974ffffffffffffffffffffffffffffffffffffffff0083549260081b169116179055565b0155601254906000827f336735bcae5ee955b87e8b30bee52920223fa30a865b207ac6d9eee9f19589fb6040518061247a3396829190916001600160a01b036020820193169052565b60046040517fe6c4247b000000000000000000000000000000000000000000000000000000008152fd5b156125b257565b606460405162461bcd60e51b815260206004820152600e60248201527f64616f2e696e76616c69642e69640000000000000000000000000000000000006044820152fd5b600019810191908211610d2957565b1561260c57565b606460405162461bcd60e51b815260206004820152601160248201527f64616f2e70726f702e6e6f7465786973740000000000000000000000000000006044820152fd5b1561265757565b606460405162461bcd60e51b815260206004820152601060248201527f64616f2e766f74696e672e656e646564000000000000000000000000000000006044820152fd5b156126a257565b606460405162461bcd60e51b815260206004820152601560248201527f64616f2e616c72656164792e636f6d706c6574656400000000000000000000006044820152fd5b156126ed57565b606460405162461bcd60e51b815260206004820152601160248201527f64616f2e616c72656164792e766f7465640000000000000000000000000000006044820152fd5b7f948f4a9cd986f1118c3fbd459f7a22b23c0693e1ca3ef06a6a8be5aa7d39cc036127f86113606127646116dd856125f6565b5060088101805460ff60b01b1916600160b01b178155906127da600482015460078301548110159081612848575b5083547fffffffffffffffffffff00ffffffffffffffffffffffffffffffffffffffffff1690151560a81b75ff00000000000000000000000000000000000000000016178355565b815460a81c60ff1680612833575b6127fd575b505460a81c60ff1690565b0390a2565b80612815600161282c9301546001600160a01b031690565b612826600360028401549301610368565b90612f8b565b50386127ed565b506128416003820154610223565b15156127e8565b905060058301541038612792565b6040513d6000823e3d90fd5b612b476101c06103839261289c61288082516001600160a01b031690565b6001600160a01b03166001600160a01b03196002541617600255565b6128cf6128b360208301516001600160a01b031690565b6001600160a01b03166001600160a01b03196003541617600355565b6129026128e660408301516001600160a01b031690565b6001600160a01b03166001600160a01b03196004541617600455565b61293561291960608301516001600160a01b031690565b6001600160a01b03166001600160a01b03196005541617600555565b61296861294c60808301516001600160a01b031690565b6001600160a01b03166001600160a01b03196006541617600655565b61299b61297f60a08301516001600160a01b031690565b6001600160a01b03166001600160a01b03196007541617600755565b6129ce6129b260c08301516001600160a01b031690565b6001600160a01b03166001600160a01b03196008541617600855565b612a016129e560e08301516001600160a01b031690565b6001600160a01b03166001600160a01b03196009541617600955565b612a35612a196101008301516001600160a01b031690565b6001600160a01b03166001600160a01b0319600a541617600a55565b612a69612a4d6101208301516001600160a01b031690565b6001600160a01b03166001600160a01b0319600b541617600b55565b612a9d612a816101408301516001600160a01b031690565b6001600160a01b03166001600160a01b0319600c541617600c55565b612ad1612ab56101608301516001600160a01b031690565b6001600160a01b03166001600160a01b0319600d541617600d55565b612b05612ae96101808301516001600160a01b031690565b6001600160a01b03166001600160a01b0319600e541617600e55565b612b39612b1d6101a08301516001600160a01b031690565b6001600160a01b03166001600160a01b0319600f541617600f55565b01516001600160a01b031690565b6001600160a01b03166001600160a01b03196010541617601055565b9081602091031261052457516122f181610d5c565b612bd36001600160a01b0360025416604051612b9381610309565b600881527f6973536166652829000000000000000000000000000000000000000000000000602082015260405191612bca8361032a565b60008352612dc9565b9080612bf2575b1561137257806020806122f193518301019101612b63565b506020815114612bda565b612c606001600160a01b038060025416604051916020941684830152838252612c2582610309565b60405190612c3282610309565b601182527f69735369676e657228616464726573732900000000000000000000000000000085830152612dc9565b9080612c7d575b1561137257816122f19282518301019101612b63565b5081815114612c67565b6122f16001600160a01b0360035416604051612ca281610309565b600681527f6941676528290000000000000000000000000000000000000000000000000000602082015260405191612cd98361032a565b60008352612e80565b6122f1906001600160a01b038060065416906040519216602083015260208252612d0b82610309565b60405190612d1882610309565b601882527f697364656c656761746f724e6f646528616464726573732900000000000000006020830152612e44565b6122f16001600160a01b0360065416604051612d6281610309565b601381527f67657464656c656761746f72436f756e74282900000000000000000000000000602082015260405191612cd98361032a565b3d15612dc4573d90612daa82611901565b91612db86040519384610346565b82523d6000602084013e565b606090565b803b15612e2b576000926001600160e01b03198360208695519101201690612e1b6024604051809360208201958652612e0b8151809260208686019101610385565b8101036004810184520182610346565b51915afa612e27612d99565b9091565b505050600090604051612e3d8161032a565b6000815290565b9291612e5291600094612dc9565b9080612e75575b612e605750565b6122f191925060208082518301019101612b63565b506020815114612e59565b9291612e8e91600094612dc9565b9080612eb3575b612e9c5750565b909150602081805181010312610524576020015190565b506020815114612e95565b90602082519201516001600160e01b0319908181169360048110612ee157505050565b60040360031b82901b16169150565b6001600160a01b0381161561258157600080918351908260208601915af190612f17612d99565b9115612f21575090565b805160009190600411612f8557612f389150612ebe565b815115612f485750805190602001fd5b6040517f21c09d340000000000000000000000000000000000000000000000000000000081526001600160e01b0319919091166004820152602490fd5b50612f38565b9190916001600160a01b0381161561258157600091829184519160208601915af190612f17612d9956fea26469706673582212206486a149f64143c3ef86c9d57a619d3414f4e95d70fbf73d5b700acb119d1d6664736f6c634300081400336080346200009e57601f62005af738819003918201601f19168301916001600160401b03831184841017620000a3578084926020946040528339810103126200009e57516001600160a01b038116908190036200009e5780156200008c5760018060a01b03193381600154161760015560005416176000556001601155604051615a3d9081620000ba8239f35b60405163e6c4247b60e01b8152600490fd5b600080fd5b634e487b7160e01b600052604160045260246000fdfe60806040526004361015610018575b361561001657005b005b60003560e01c8063033eeffb146103985780630e5fd00b146103935780631157a8491461038e57806312065fe01461038957806313508e371461038457806313cf3d551461037f5780631bb49f021461037a5780631c53c280146103755780631f185d16146103705780632a687c871461036b5780632bbae52e146103665780632fefc0bf1461036157806332ff4eab1461035c578063339459a61461035757806333b59a5b146103525780633a7b55b81461034d5780633b9b7955146103485780633baee0ea14610343578063419cb27b1461033e57806342cc9d5714610339578063445850971461033457806344668f231461032f5780634f0f4aa91461032a578063509222cd1461032557806350db85d11461032057806361ea72081461031b578063629d671e1461031657806365d2fbd3146103115780636a8112441461030c5780636b90905b146103075780636fb412ab1461030257806376fe6c45146102fd5780637818cdd7146102f857806380f85e33146102f3578063849c22ad146102ee578063896c354a146102e95780638da5cb5b146102e457806395f72f49146102df57806398b3f215146102da578063a1f7f539146102d5578063a89d693b146102d0578063af484526146102cb578063b1c49079146102c6578063b366335e146102c1578063b90306ad146102bc578063c43792e3146102b7578063c54e44b0146102b2578063c871372b146102ad578063d1e0bbc6146102a8578063dcb3fc4a146102a3578063e01ad5fd1461029e578063e0a9bc2b14610299578063eb95c66214610294578063f3ca71241461028f578063fd38093b1461028a5763fdc10bc90361000e5761351c565b6134ac565b613480565b613454565b613439565b61336e565b6131ef565b6131b5565b613137565b6130b1565b613085565b612f77565b612f01565b612dda565b612da9565b612c8a565b612be6565b612bba565b612b44565b612b1d565b612add565b612aae565b612a74565b612a1b565b6128fd565b612767565b612624565b612208565b611d9f565b611d61565b611d43565b611c1a565b611bc6565b611ae1565b611ac3565b611a8b565b611a5c565b611a28565b61159c565b61154d565b6113e1565b6111da565b610b03565b610a8d565b610a55565b610a0c565b61096f565b610888565b610853565b6107ee565b61057c565b610526565b61050a565b61042a565b6103da565b346103c45760203660031901126103c45760043560005260196020526020604060002054604051908152f35b600080fd5b6001600160a01b038116036103c457565b346103c45760203660031901126103c45760206004356103f9816103c9565b6001600160a01b03809116600052601282526040600020546000526015825260046040600020015416604051908152f35b346103c45760203660031901126103c4576004356104466137a8565b600090808252601560205261046460ff6001604085200154166140ab565b338252601260205261047b604083205482146140ab565b808252601e60205260ff600160408420015460081c16156104c6576104ad6104b991600052601e602052604060002090565b60016000918281550155565b6104c36001601155565b80f35b606460405162461bcd60e51b815260206004820152601360248201527f6e65737465642e7265712e6e6f746578697374000000000000000000000000006044820152fd5b346103c45760003660031901126103c457602047604051908152f35b346103c45760203660031901126103c457600435600052601e6020526080604060002060ff6001825492015460405192835281811615156020840152818160081c161515604084015260101c1615156060820152f35b346103c4576020806003193601126103c457600490813561059b6137a8565b6105c46105bf60016105b7846000526015602052604060002090565b015460ff1690565b613f1e565b6106016105fa6105ee6105e1846000526013602052604060002090565b546001600160a01b031690565b6001600160a01b031690565b33146140ab565b816106176105ee6000546001600160a01b031690565b6040519485809263111ea8c160e21b82525afa9283156107e9576000936107ba575b506106976106756106576105e1846000526013602052604060002090565b6040519182918683019190916001600160a01b036020820193169052565b0394610689601f19968781018452836129d8565b610691614117565b90615876565b906001600160a01b0382161515806107b0575b6106b9575b6100166001601155565b6107a69361074461073261073e6106f060046106e26107a1976000526015602052604060002090565b01546001600160a01b031690565b6040517f4fb2e45d00000000000000000000000000000000000000000000000000000000898201526001600160a01b0390911660248201529182906044820190565b038481018352826129d8565b84615942565b507fa3e884b000000000000000000000000000000000000000000000000000000000604051948501528361079560248201906007606060808401936000815260006020820152600060408201520152565b039081018452836129d8565b615942565b50388080806106af565b50813115156106aa565b6107db919350823d84116107e2575b6107d381836129d8565b8101906140f6565b9138610639565b503d6107c9565b61410b565b346103c45760203660031901126103c45760043561080b816103c9565b6001600160a01b0390811660009081526012602090815260408083205483526015825280832060020154808452601383529281902054815193845290931690820152f35b0390f35b346103c45760203660031901126103c457600435600052601360205260206001600160a01b0360406000205416604051908152f35b346103c4576020806003193601126103c4576109076004356108a9816103c9565b6001600160a01b038060025416906040519216848301528382526108cc82612984565b604051906108d982612984565b601182527f69735369676e657228616464726573732900000000000000000000000000000085830152615834565b919080610965575b1561093b5781816109299261084f945183010191016155d0565b60405190151581529081906020820190565b60046040517f3204506f000000000000000000000000000000000000000000000000000000008152fd5b508082511461090f565b346103c45760403660031901126103c45760243561098b6155e8565b156109fb576109993361566d565b80156109e7575b156109d657600090808252601a60205260408220549060043582018092116109d1578252601a602052604082205580f35b613777565b600460405163ea8e4eb560e01b8152fd5b50336001600160a01b0360055416146109a0565b6004604051634ee2123760e11b8152fd5b346103c45760203660031901126103c457600480356000908152601560209081526040918290209283015460059093015482516001600160a01b03948516815293169083015290f35b346103c45760203660031901126103c457600435600052601560205260206001600160a01b0360056040600020015416604051908152f35b346103c45760403660031901126103c457602435610aa96155e8565b156109fb57610ab73361566d565b8015610aef575b156109d657600090808252601d60205260408220549060043582018092116109d1578252601d602052604082205580f35b50336001600160a01b036005541614610abe565b346103c45760003660031901126103c457610b296105ee6000546001600160a01b031690565b604051907f97f3815a000000000000000000000000000000000000000000000000000000008252602082600481845afa9182156107e9576000926111b9575b50604051917fcfbffe53000000000000000000000000000000000000000000000000000000008352602083600481855afa9283156107e957600093611198575b50604051907fab6e844f000000000000000000000000000000000000000000000000000000008252602082600481865afa9182156107e957600092611177575b50604051917f14d8d024000000000000000000000000000000000000000000000000000000008352602083600481875afa9283156107e957600093611156575b50604051927fd1f956b1000000000000000000000000000000000000000000000000000000008452602084600481885afa9384156107e957600094611135575b50604051937fe61dfd58000000000000000000000000000000000000000000000000000000008552602085600481895afa9485156107e957600095611114575b506040517fe09d394d0000000000000000000000000000000000000000000000000000000081526020816004818a5afa9081156107e9576000916110f5575b506040517f52b06d640000000000000000000000000000000000000000000000000000000081526020816004818b5afa9081156107e9576000916110d6575b506040517f013cf08b00000000000000000000000000000000000000000000000000000000815260006004820152916020836024818c5afa9283156107e9576000936110b5575b50604051977f5e09dbe70000000000000000000000000000000000000000000000000000000089526020896004818d5afa9485156107e957600499600096611094575b5060208b6040519b8c80927faa0ddc160000000000000000000000000000000000000000000000000000000082525afa9687156107e95760049a600098611073575b5060208c6040519c8d80927f640274270000000000000000000000000000000000000000000000000000000082525afa9889156107e95760049b60009a611052575b5060208d6040519d8e80927f30125cf50000000000000000000000000000000000000000000000000000000082525afa9a8b156107e9578d60049d60009d611030575b506020906040519e8f80927f24768d910000000000000000000000000000000000000000000000000000000082525afa9c8d156107e95760009d61100f575b50604051809e81907f9dc969a80000000000000000000000000000000000000000000000000000000082525a92600491602094fa9d8e156107e95760009e610fee575b50610f026129fa565b6001600160a01b0390911681529d8e906001600160a01b0316602082015260400190610f3691906001600160a01b03169052565b6001600160a01b031660608d01526001600160a01b031660808c01526001600160a01b031660a08b01526001600160a01b031660c08a01526001600160a01b031660e08901526001600160a01b03166101008801526001600160a01b03166101208701526001600160a01b03166101408601526001600160a01b03166101608501526001600160a01b03166101808401526001600160a01b03166101a08301526001600160a01b03166101c0820152610016906152cf565b611008919e5060203d6020116107e2576107d381836129d8565b9c38610ef9565b611029919d5060203d6020116107e2576107d381836129d8565b9b38610eb6565b6020919d5061104b90823d84116107e2576107d381836129d8565b9c90610e77565b61106c919a5060203d6020116107e2576107d381836129d8565b9838610e34565b61108d91985060203d6020116107e2576107d381836129d8565b9638610df2565b6110ae91965060203d6020116107e2576107d381836129d8565b9438610db0565b6110cf91935060203d6020116107e2576107d381836129d8565b9138610d6d565b6110ef915060203d6020116107e2576107d381836129d8565b38610d26565b61110e915060203d6020116107e2576107d381836129d8565b38610ce7565b61112e91955060203d6020116107e2576107d381836129d8565b9338610ca8565b61114f91945060203d6020116107e2576107d381836129d8565b9238610c68565b61117091935060203d6020116107e2576107d381836129d8565b9138610c28565b61119191925060203d6020116107e2576107d381836129d8565b9038610be8565b6111b291935060203d6020116107e2576107d381836129d8565b9138610ba8565b6111d391925060203d6020116107e2576107d381836129d8565b9038610b68565b346103c4576040806003193601126103c4576024356111f76155e8565b156113a3576112053361566d565b801561138f575b1561137f576000916112286105ee84546001600160a01b031690565b8151809163111ea8c160e21b825281600460209485935afa9081156107e9578591611362575b5084916004355b85811115611261578680f35b8451828101828152819003808252601f19916112929161128490602001826129d8565b61128c61525d565b86615902565b6112a683600052601a602052604060002090565b55875b600881106112c15750506112bc90613a90565b611255565b8651848101848152602081018390526112f891906112ea908290604001038581018352826129d8565b6112f2615296565b87615902565b8115611336575b906113319161132b8261131c876000526016602052604060002090565b90600052602052604060002090565b55613a90565b6112a9565b95906113456113319288613889565b61135985600052601d602052604060002090565b559050856112ff565b6113799150823d84116107e2576107d381836129d8565b3861124e565b6004825163ea8e4eb560e01b8152fd5b50336001600160a01b03600554161461120c565b60048251634ee2123760e11b8152fd5b60e0810192916000915b600783106113ca57505050565b6001908251815260208091019201920191906113bd565b346103c45760203660031901126103c45761084f60043561153b61152b6040519261140b846129a0565b60e0368537611437611427826000526017602052604060002090565b6001600052602052604060002090565b548452611461611451826000526017602052604060002090565b6002600052602052604060002090565b54602085015261148e61147e826000526017602052604060002090565b6003600052602052604060002090565b5460408501526114bb6114ab826000526017602052604060002090565b6004600052602052604060002090565b5460608501526114e86114d8826000526017602052604060002090565b6005600052602052604060002090565b546080850152611515611505826000526017602052604060002090565b6006600052602052604060002090565b5460a08501526000526017602052604060002090565b6007600052602052604060002090565b5460c0820152604051918291826113b3565b346103c45760003660031901126103c45760206001600160a01b0360005416604051908152f35b60409060031901126103c45760043561158c816103c9565b90602435611599816103c9565b90565b346103c4576115aa36611574565b6115b26137a8565b61084f6115fd6115d16115c3613566565b6115cb61357e565b33615876565b61161d6115e76115df613566565b6115cb6135b7565b6001600160a01b039386851693851684146135f0565b836116156105ee82600054166001600160a01b031690565b91161461363b565b611628811515613fca565b611645846001600160a01b03166000526012602052604060002090565b54158015611a1d575b61165790614015565b61167f611677866001600160a01b03166000526012602052604060002090565b541515614060565b6116b560056106e26116a4886001600160a01b03166000526012602052604060002090565b546000526015602052604060002090565b6040517f880cdc310000000000000000000000000000000000000000000000000000000060208201526001600160a01b038616602482015290929061170e9080604481015b03946107a1601f19968781018452836129d8565b506117376105ee60046106e26116a48a6001600160a01b03166000526012602052604060002090565b6119aa575b611759866001600160a01b03166000526012602052604060002090565b54611777866001600160a01b03166000526012602052604060002090565b556117c8856117ad61179c896001600160a01b03166000526012602052604060002090565b546000526013602052604060002090565b906001600160a01b03166001600160a01b0319825416179055565b61180a3360046117ee6116a4896001600160a01b03166000526012602052604060002090565b01906001600160a01b03166001600160a01b0319825416179055565b851614159081611985575b611832846001600160a01b03166000526012602052604060002090565b549361184d60056106e2876000526015602052604060002090565b9561187c6105e1600261186a896000526015602052604060002090565b01546000526013602052604060002090565b931561191d576107a16118e79361189b6009546001600160a01b031690565b6040517fe3d1d5bf0000000000000000000000000000000000000000000000000000000060208201526001600160a01b0394851660248201529490931660448501528360648101610795565b505b6118f36001601155565b60405193849384916040919493606084019584526001600160a01b03809216602085015216910152565b61079591506107a161197f9361193b6009546001600160a01b031690565b6040517f9498d88b0000000000000000000000000000000000000000000000000000000060208201526001600160a01b039094166024850152929384906044820190565b506118e9565b60006119a4866001600160a01b03166000526012602052604060002090565b55611815565b611a176119d260046106e26116a48a6001600160a01b03166000526012602052604060002090565b6040517f0399c93c000000000000000000000000000000000000000000000000000000006020820152336024820152906107a182604481015b038781018452836129d8565b5061173c565b50848216811461164e565b346103c45760203660031901126103c4576004356000526015602052602060ff600160406000200154166040519015158152f35b346103c45760203660031901126103c45760043560005260156020526020600360406000200154604051908152f35b346103c45760203660031901126103c457600435600052601560205260206001600160a01b0360046040600020015416604051908152f35b346103c45760003660031901126103c4576020601f54604051908152f35b346103c45760203660031901126103c457600435806000526015602052604060002054601360205261084f6001600160a01b0380604060002054169360156020526040600020916004600284015493015416611b4c60056106e2846000526015602052604060002090565b906003611b7c611b6b60016105b7876000526015602052604060002090565b946000526015602052604060002090565b01549360405197889788939160c09591989796939260e086019986526001600160a01b03938480931660208801526040870152166060850152166080830152151560a08201520152565b346103c45760203660031901126103c4576001600160a01b03600435611beb816103c9565b1660005260126020526040600020546000526015602052602060ff600160406000200154166040519015158152f35b346103c457611c2836611574565b90611c316155e8565b156109fb57611c3f3361566d565b8015611d2f575b156109d65781611c5d91611c586137a8565b613a9f565b806000526015602052611d0a611cf6611d04611cb46001600160a01b0395866005604060002001541696611c9087613f69565b6040519116602082015260208152611ca781612984565b611caf6137e3565b6158c7565b6040517f654c668e0000000000000000000000000000000000000000000000000000000060208201526024810191909152600060448201529182906064820190565b03601f1981018352826129d8565b83615942565b50611d156001601155565b604080519182526001600160a01b03929092166020820152f35b50336001600160a01b036005541614611c46565b346103c45760003660031901126103c4576020601454604051908152f35b346103c45760203660031901126103c4576001600160a01b03600435611d86816103c9565b1660005260126020526020604060002054604051908152f35b346103c45760203660031901126103c457600435611dbb6137a8565b6001611dd86105bf826105b7856000526015602052604060002090565b611e00611df8336001600160a01b03166000526012602052604060002090565b5483146140ab565b611e1482600052601e602052604060002090565b908082019160ff8354611e2b828260081c1661434f565b60101c1661205f5750600290611e5882611e4f866000526015602052604060002090565b015415156143e5565b6000815b611f34575b505080611ecc846001600160a01b03611ea460056106e2600097611e926106af9b6000526015602052604060002090565b01546000526015602052604060002090565b16611edf575b8454611ebc9060101c60ff168261447d565b6000526015602052604060002090565b0155805462ff0000191662010000179055565b611f2e611eff60056106e286611e92866000526015602052604060002090565b604051636f58dd0f60e11b602082015260006024820152906107a182604481015b03601f1981018452836129d8565b50611eaa565b600380611f4f85611e92896000526015602052604060002090565b01548210156120595785611f89611f7f8484611f7989611e92876000526015602052604060002090565b01613de3565b90549060031b1c90565b14611f9e5750611f9890613a90565b81611e5c565b8392509461204f86612031611ecc94612018611ffe611f7f6106af9c611fd460009c611e928b6000526015602052604060002090565b01611ff887611ff18d611e928d6000526015602052604060002090565b015461387a565b90613de3565b9184611f798a611e928a6000526015602052604060002090565b90919082549060031b91821b91600019901b1916179055565b61204985611e92856000526015602052604060002090565b01614430565b9450819250611e61565b50611e61565b8391506121046120fe6104ad946120906002612088612136996000526015602052604060002090565b01541561439a565b6120ca8560036120c487548060026120b2866000526015602052604060002090565b01556000526015602052604060002090565b01613e00565b83546001600160a01b036120ed60056106e2846000526015602052604060002090565b166121c0575b505460101c60ff1690565b8361447d565b6121206105ee60046106e2856000526015602052604060002090565b61213b575b50600052601e602052604060002090565b6106af565b611f206121b9916107a16121766105e161216460046106e2896000526015602052604060002090565b93546000526013602052604060002090565b6040517f1499c5920000000000000000000000000000000000000000000000000000000060208201526001600160a01b0390911660248201529283906044820190565b5038612125565b6121dc60056106e2612201936000526015602052604060002090565b604051636f58dd0f60e11b602082015260016024820152906107a18260448101611f20565b50386120f3565b346103c4576040806003193601126103c4576004356122256137a8565b6122416105bf60016105b7846000526015602052604060002090565b6122676122606105ee60046106e2856000526015602052604060002090565b3314614258565b61226f61384c565b61084f61010061228e60056106e2856000526015602052604060002090565b6123b2601f549486805193826122f56122e76020977f02a085f20000000000000000000000000000000000000000000000000000000089820152806116fa60249d8e803590840160209093929193604081019481520152565b8780825183010191016147f8565b98895192612308888c019485519061379b565b978b6123198782019a8b519061379b565b612329606083019182519061379b565b9061233a608084019283519061379b565b97868a8961234e60a088019c8d519061379b565b9661236761236260c08301998a519061379b565b615203565b8881516125a8575b5050909150825161252f575b50505080516124be575b508051612454575b5061239b865182519061379b565b6123d7575b5050505050505060e086015190614929565b51920151926123c16001601155565b5191825260208201929092529081906040820190565b6124479663a9059cbb60e01b966107a195612422610795946124186105e1612407600f546001600160a01b031690565b9b6000526013602052604060002090565b935190519061379b565b92519889958601528401602090939291936001600160a01b0360408201951681520152565b50863882818080806123a0565b6124b79061246a6010546001600160a01b031690565b6107a16124846105e18a6000526013602052604060002090565b92518b5163a9059cbb60e01b888201526001600160a01b0390941689850190815260208101919091528390604001611a0b565b503861238d565b612528906124d4600c546001600160a01b031690565b6107a16124ee6105e18b6000526013602052604060002090565b92518c5163a9059cbb60e01b898201526001600160a01b039094168a850190815260208101919091528390604001038881018452836129d8565b5038612385565b6107a161259f936125936125626105e1612551600e546001600160a01b031690565b956000526013602052604060002090565b9151945194859263a9059cbb60e01b8c8501528d8401602090939291936001600160a01b0360408201951681520152565b038981018452836129d8565b5038898861237b565b61260c63a9059cbb60e01b946107a193612618976125e56105e16125d4600d546001600160a01b031690565b986000526013602052604060002090565b915192519788958601528401602090939291936001600160a01b0360408201951681520152565b038a81018452836129d8565b508f8a8989928861236f565b346103c45760403660031901126103c4576004356024356126436155e8565b156109fb576126513361566d565b8015612753575b156109d65761271f6106af9261266c6137a8565b80600052601560205261268b6105bf600160406000200160ff90541690565b6126ac6126a760016105b7866000526015602052604060002090565b6142b9565b61270f6127056126f66126ce60056106e2886000526015602052604060002090565b604051906126e882611f2060208201906000602083019252565b6126f06136d1565b90615779565b6020808251830101910161370a565b505050151561372c565b600052601e602052604060002090565b90600182019161274361273e61273a855460ff9060081c1690565b1590565b614304565b55805461ff001916610100179055565b50336001600160a01b036005541614612658565b346103c45760403660031901126103c4576004356024356127866137a8565b6127a26105bf60016105b7856000526015602052604060002090565b6127bf6105fa6105ee6105e1856000526013602052604060002090565b6127f16127db60056106e2856000526015602052604060002090565b6127e3614150565b6127eb613553565b91615779565b9080612807602093848082518301019101614189565b1015612817576100166001601155565b826128ee6001600160a01b03927ff526f68a00000000000000000000000000000000000000000000000000000000946128e26128c76105e16128b26128a461288861287460056106e26128f49f6000526015602052604060002090565b976040519182918983019190602083019252565b039761289c601f19998a81018452836129d8565b6126f0614198565b8580825183010191016141d1565b99925050506000526013602052604060002090565b6128cf613566565b906040519889948501526024840161421c565b039081018552846129d8565b16615942565b503880806106af565b346103c45760203660031901126103c457602060043561291c816103c9565b6001600160a01b03809116600052601282526040600020546000526015825260056040600020015416604051908152f35b634e487b7160e01b600052604160045260246000fd5b6060810190811067ffffffffffffffff82111761297f57604052565b61294d565b6040810190811067ffffffffffffffff82111761297f57604052565b60e0810190811067ffffffffffffffff82111761297f57604052565b6020810190811067ffffffffffffffff82111761297f57604052565b90601f8019910116810190811067ffffffffffffffff82111761297f57604052565b604051906101e0820182811067ffffffffffffffff82111761297f57604052565b346103c4576101003660031901126103c45736604312156103c457604051612a42816129a0565b610104813682116103c4576024905b828210612a645761001684600435614f07565b8135815260209182019101612a51565b346103c45760403660031901126103c457600435600052601660205260406000206024356000526020526020604060002054604051908152f35b346103c45760203660031901126103c45760043560005260156020526020600260406000200154604051908152f35b346103c45760403660031901126103c45760043560005260156020526020612b0e6024356003604060002001613de3565b90549060031b1c604051908152f35b346103c45760003660031901126103c45760206001600160a01b0360015416604051908152f35b346103c45760403660031901126103c457602435612b606155e8565b156109fb57612b6e3361566d565b8015612ba6575b156109d657600090808252601c60205260408220549060043582018092116109d1578252601c602052604082205580f35b50336001600160a01b036005541614612b75565b346103c45760203660031901126103c457600435600052601d6020526020604060002054604051908152f35b346103c45760003660031901126103c4576020612c536001600160a01b0360065416604051612c1481612984565b601381527f67657464656c656761746f72436f756e742829000000000000000000000000008482015260405191612c4a836129bc565b60008352615902565b604051908152f35b610100810192916000915b60088310612c7357505050565b600190825181526020809101920192019190612c66565b346103c45760203660031901126103c45761084f600435612d9761152b612caf615186565b92612cd6612cc7826000526016602052604060002090565b60008052602052604060002090565b548452612cf0611427826000526016602052604060002090565b546020850152612d0d611451826000526016602052604060002090565b546040850152612d2a61147e826000526016602052604060002090565b546060850152612d476114ab826000526016602052604060002090565b546080850152612d646114d8826000526016602052604060002090565b5460a0850152612d81611505826000526016602052604060002090565b5460c08501526000526016602052604060002090565b5460e082015260405191829182612c5b565b346103c45760203660031901126103c4576020612dd0600435612dcb816103c9565b61566d565b6040519015158152f35b346103c457612ea7612deb36611574565b90612df46137a8565b612e3d612e026115c3613566565b612e0d6115df613566565b90612e266001600160a01b0391828088169116146135f0565b6116156105ee82600054166001600160a01b031690565b612e6a612e6560016105b76116a4856001600160a01b03166000526012602052604060002090565b613686565b612e986127056126f66126ce60056106e26116a4876001600160a01b03166000526012602052604060002090565b612ea061381c565b3390613cb1565b612ec0612cc7601f546000526016602052604060002090565b612eca815461378d565b9055612ed461522f565b612eed60056106e2836000526015602052604060002090565b90612ef781613f69565b611d156001601155565b346103c45760203660031901126103c457612f1a6155e8565b156109fb57612f283361566d565b8015612f63575b156109d657612f3c6156f7565b601f5410612f53575b610016600435601f54613896565b612f5b6156f7565b601f55612f45565b50336001600160a01b036005541614612f2f565b346103c45760203660031901126103c457600435612f936155e8565b156109fb576001600160a01b036005541633036109d65760009060046020612fc56105ee85546001600160a01b031690565b604051928380927f46f991ac0000000000000000000000000000000000000000000000000000000082525afa80156107e95783808481949382948391613067575b505af1613011615749565b501561093b577fcdcc745fe377b103b45fa0cec23ae3ef93d6fc6a84a01f0d18c40b354dd1d5d86130616130506105ee600b546001600160a01b031690565b604051938452929081906020820190565b0390a280f35b61307f915060203d81116107e2576107d381836129d8565b38613006565b346103c45760203660031901126103c457600435600052601b6020526020604060002054604051908152f35b346103c45760203660031901126103c4576004356130ce816103c9565b803b60006130db82613537565b926130e960405194856129d8565b82845260208401903c602d81511061310d57602a602091015160601c604051908152f35b60046040517fbaf3f0f7000000000000000000000000000000000000000000000000000000008152fd5b60403660031901126103c45760043561314e6137a8565b600090808252601560205261316c60ff600160408520015416613f1e565b815260156020526131ac6001600160a01b036005604084200154166040519062a0e53360e51b60208301526024356024830152602482526107a182612963565b50600160115580f35b346103c45760403660031901126103c457600435600052601860205260406000206024356000526020526020604060002054604051908152f35b346103c45760c03660031901126103c4576106af600435602435613212816103c9565b60643591613312613303608435936132286137a8565b6132446105bf60016105b7876000526015602052604060002090565b6132636122606105ee60046106e2886000526015602052604060002090565b61326b61384c565b613274856151ab565b61327d866151d7565b61329660056106e2866000526015602052604060002090565b601f546040517fa66303040000000000000000000000000000000000000000000000000000000060208201526001600160a01b039093166024840152604480359084015260648301889052608483019690965260a480359083015260c48201959095528060e481016116fa565b602080825183010191016142a3565b9281613320575b5050614c4b565b613366916107a16107959261333d600b546001600160a01b031690565b60405163a9059cbb60e01b60208201523360248201526044810194909452929384906064820190565b503880613319565b346103c4576020806003193601126103c45761084f9060043590613391826103c9565b6133f56001600160a01b03928360065416936040519116838201528281526133b881612984565b6040516133c481612984565b601881527f697364656c656761746f724e6f6465286164647265737329000000000000000084820152600094615834565b91908061342f575b613416575b505060405190151581529081906020820190565b613428925080825183010191016155d0565b3880613402565b50808251146133fd565b346103c45760003660031901126103c4576020612dd06155e8565b346103c45760203660031901126103c457600435600052601a6020526020604060002054604051908152f35b346103c45760203660031901126103c457600435600052601c6020526020604060002054604051908152f35b346103c4576040806003193601126103c4576001600160a01b036004356134d2816103c9565b166000818152601260208181528483205483526019815284832054938352908152838220548252601881528382206024358352815290839020549251918252810191909152604090f35b346103c45760003660031901126103c4576020612c536156f7565b67ffffffffffffffff811161297f57601f01601f191660200190565b60405190613560826129bc565b60008252565b604051613572816129bc565b60008152906000368137565b6040519061358b82612984565b600782527f6f776e65722829000000000000000000000000000000000000000000000000006020830152565b604051906135c482612984565b600c82527f67657448657862617365282900000000000000000000000000000000000000006020830152565b156135f757565b606460405162461bcd60e51b815260206004820152601760248201527f6e65737465642e696e76616c69642e696e7374616e63650000000000000000006044820152fd5b1561364257565b606460405162461bcd60e51b815260206004820152601660248201527f6e65737465642e696e76616c69642e68657862617365000000000000000000006044820152fd5b1561368d57565b606460405162461bcd60e51b815260206004820152601860248201527f6e65737465642e706172656e742e6e6f742e65786973747300000000000000006044820152fd5b604051906136de82612984565b601282527f6765744e6f64654c422875696e743235362900000000000000000000000000006020830152565b91908260809103126103c4578151916020810151916060604083015192015190565b1561373357565b606460405162461bcd60e51b815260206004820152601960248201527f6e65737465642e706172656e742e6e6f2e627573696e657373000000000000006044820152fd5b634e487b7160e01b600052601160045260246000fd5b90600182018092116109d157565b919082018092116109d157565b6002601154146137b9576002601155565b60046040517f3ee5aeb5000000000000000000000000000000000000000000000000000000008152fd5b604051906137f082612984565b601d82527f55736572546f5769746864726177446f6c6c61722861646472657373290000006020830152565b6138246156f7565b601f541061383c575b61383a6005601f54613896565b565b6138446156f7565b601f5561382d565b6138546156f7565b601f541061386a575b61383a6002601f54613896565b6138726156f7565b601f5561385d565b6000198101919082116109d157565b919082039182116109d157565b906138ae612cc7836000526016602052604060002090565b541580613a3b575b80613a32575b6138c4575050565b6138e0906138da6138d48461387a565b9161387a565b90613896565b6138ff612cc76138ef8361387a565b6000526016602052604060002090565b54613917612cc7836000526016602052604060002090565b556139276114276138ef8361387a565b5461393f611427836000526016602052604060002090565b5561394f6114516138ef8361387a565b54613967611451836000526016602052604060002090565b5561397761147e6138ef8361387a565b5461398f61147e836000526016602052604060002090565b5561399f6114ab6138ef8361387a565b546139b76114ab836000526016602052604060002090565b556139c76114d86138ef8361387a565b546139df6114d8836000526016602052604060002090565b556139ef6115056138ef8361387a565b54613a07611505836000526016602052604060002090565b55613a2f61152b613a1d61152b6138ef8561387a565b54926000526016602052604060002090565b55565b508015156138bc565b50600182116138b6565b15613a4c57565b606460405162461bcd60e51b815260206004820152601560248201527f6e65737465642e616c72656164792e65786973747300000000000000000000006044820152fd5b60001981146109d15760010190565b90613ad0613acb61273a60016105b76116a4866001600160a01b03166000526012602052604060002090565b613a45565b613ae3613ade601454613a90565b601455565b613b3a60145492613b02836117ad866000526013602052604060002090565b83613b20846001600160a01b03166000526012602052604060002090565b556001600160a01b03166000526012602052604060002090565b5490613b468383613e28565b613b706004613b5f856000526015602052604060002090565b016001600160a01b03198154169055565b613ba3613b8d613b886008546001600160a01b031690565b613d4d565b60056117ee866000526015602052604060002090565b613c2e613bbf60056106e2866000526015602052604060002090565b91613bd56105ee6000546001600160a01b031690565b6040517f52902c590000000000000000000000000000000000000000000000000000000060208201526001600160a01b0391821660248201529116604482015260648082018690528152601f19926107a16084836129d8565b5081151580613c87575b613c4157505090565b613c5d60056106e2613c83946000526015602052604060002090565b604051636f58dd0f60e11b602082015260016024820152916107a1908360448101610795565b5090565b506001600160a01b03613ca960056106e2856000526015602052604060002090565b161515613c38565b91613cdd613acb61273a60016105b76116a4866001600160a01b03166000526012602052604060002090565b613ceb613ade601454613a90565b613b70613d2b60145494613d0d846117ad886000526013602052604060002090565b85613b20856001600160a01b03166000526012602052604060002090565b5492613d378585613e28565b60046117ee866000526015602052604060002090565b6e5af43d82803e903d91602b57fd5bf390763d602d80600a3d3981f3363d3d373d3d3d363d7300000062ffffff8260881c161760005260781b17602052603760096000f0906001600160a01b03821615613da357565b60046040517fb06ebf3d000000000000000000000000000000000000000000000000000000008152fd5b634e487b7160e01b600052603260045260246000fd5b8054821015613dfb5760005260206000200190600090565b613dcd565b908154916801000000000000000083101561297f578261201891600161383a95018155613de3565b919091600092808452602091601583526040808620956002948386890155846001988981018a60ff198254161790555587613e6d866000526018602052604060002090565b83805282528489858520555b613e8857505050505050509050565b613ef6613ee5828b8a9414613eff575b613eac886000526018602052604060002090565b8187528552868620613ebe815461378d565b9055613ed4886000526019602052604060002090565b613ede815461378d565b9055613a90565b956000526015602052604060002090565b01549384613e79565b613f198960036120c48b6000526015602052604060002090565b613e98565b15613f2557565b606460405162461bcd60e51b815260206004820152601560248201527f6e65737465642e757365722e6e6f7461637469766500000000000000000000006044820152fd5b806000526015602052613f8660ff60016040600020015416613f1e565b6000526015602052613fc76001600160a01b03600560406000200154166040519062a0e53360e51b602083015260016024830152602482526107a182612963565b50565b15613fd157565b606460405162461bcd60e51b815260206004820152601360248201527f6e65737465642e7a65726f2e61646472657373000000000000000000000000006044820152fd5b1561401c57565b606460405162461bcd60e51b815260206004820152601460248201527f6e65737465642e7461726765742e6578697374730000000000000000000000006044820152fd5b1561406757565b606460405162461bcd60e51b815260206004820152601760248201527f6e65737465642e736f757263652e6e6f744578697374730000000000000000006044820152fd5b156140b257565b606460405162461bcd60e51b815260206004820152601560248201527f6e65737465642e696e76616c69642e73656e64657200000000000000000000006044820152fd5b908160209103126103c45751611599816103c9565b6040513d6000823e3d90fd5b6040519061412482612984565b601382527f55736572546f496e7374286164647265737329000000000000000000000000006020830152565b6040519061415d82612984565b600b82527f6d696e74436f756e7428290000000000000000000000000000000000000000006020830152565b908160209103126103c4575190565b604051906141a582612984565b600e82527f6d696e74732875696e74323536290000000000000000000000000000000000006020830152565b91908260809103126103c45781519160208101519160606040830151920151611599816103c9565b60005b83811061420c5750506000910152565b81810151838201526020016141fc565b90916001600160a01b036060931682526040602083015261424c81518092816040860152602086860191016141f9565b601f01601f1916010190565b1561425f57565b606460405162461bcd60e51b815260206004820152601b60248201527f6e65737465642e757365722e696e76616c6964696e7374616e636500000000006044820152fd5b91908260409103126103c4576020825192015190565b156142c057565b606460405162461bcd60e51b815260206004820152601560248201527f6e65737465642e696e76616c69642e706172656e7400000000000000000000006044820152fd5b1561430b57565b606460405162461bcd60e51b815260206004820152601760248201527f6e65737465642e7265712e616c726561647965786973740000000000000000006044820152fd5b1561435657565b606460405162461bcd60e51b815260206004820152601460248201527f6e65737465642e7265712e6e6f746578697374730000000000000000000000006044820152fd5b156143a157565b606460405162461bcd60e51b815260206004820152601860248201527f6e65737465642e757365722e6e6f742e646574616368656400000000000000006044820152fd5b156143ec57565b606460405162461bcd60e51b815260206004820152601c60248201527f6e65737465642e757365722e616c72656164792e6465746163686564000000006044820152fd5b805490811561445a576000199182019161444a8383613de3565b909182549160031b1b1916905555565b634e487b7160e01b600052603160045260246000fd5b80156109d1576000190190565b9061449b614495836000526019602052604060002090565b5461378d565b91600290816144b4826000526015602052604060002090565b0154906001938492835b6144cc575b50505050505050565b600f80851115806147ef575b156147e957859060056144fc6105ee826106e2876000526015602052604060002090565b614529575b505061451a614522926000526015602052604060002090565b015493613a90565b92856144be565b865b828111156146245750505061451a61452292846000146145c15761457361455c876000526018602052604060002090565b6145658961387a565b600052602052604060002090565b5461459761458f8961131c856000526018602052604060002090565b91825461379b565b90556145ad816000526019602052604060002090565b6145b88b825461379b565b90555b92614501565b6145d861455c876000526018602052604060002090565b546145fc6145f48961131c856000526018602052604060002090565b918254613889565b9055614612816000526019602052604060002090565b61461d8b8254613889565b90556145bb565b90919250614640826106e2886000526015602052604060002090565b61464a8883613889565b6040918761468c61467e85518061466a6020978883019190602083019252565b03946126e8601f19968781018452836129d8565b84808251830101910161370a565b50509290878a8215806147e1575b6147d0579261472294926107956146c76107a1946106e261472f9b9a986000526015602052604060002090565b94601f9a8c8c5491519889957f7b058ac1000000000000000000000000000000000000000000000000000000008d8801526024870193909594919260809360a086019786526020860152604085015260608401521515910152565b80518101820191016142a3565b908715614786575b8082116147535750505061474a90613a90565b9087929161452b565b61475c90613a90565b6147758161131c85546000526016602052604060002090565b61477f815461378d565b9055614737565b9190915b82811161479d5750505061474a90613a90565b806147ba6147cb9261131c85546000526016602052604060002090565b6147c4815461387a565b9055614470565b61478a565b505050505050505061474a90613a90565b50851561469a565b506144c3565b508115156144d8565b9061012080838303126103c45781601f840112156103c4576040519281840184811067ffffffffffffffff82111761297f57604052839181019283116103c457905b8282106148475750505090565b815181526020918201910161483a565b6040519061486482612984565b600f82527f66726565496e74657276616c73282900000000000000000000000000000000006020830152565b6040519061489d82612984565b601582527f67657452616e6b5769746841676556616c7565282900000000000000000000006020830152565b604051906148d682612984565b601382527f72616e6b436c617573652875696e7432353629000000000000000000000000006020830152565b908160a09103126103c4578051916020820151916040810151916080606083015192015190565b91909160039261495a61494385546001600160a01b031690565b61494b613566565b90614954614857565b90615902565b9360008092819082948392849185985b600f8a111580614c42575b15614c345760056149976105ee826106e2856000526015602052604060002090565b6149c4575b5060026149b66149be926000526015602052604060002090565b015499613a90565b9861496a565b8c6149e86149e0836106e2866000526015602052604060002090565b6127e3614890565b8c6149fd6020928380825183010191016142a3565b829591951580614bcb575b1580614bc2575b8015614bba575b614a25575b505050505061499c565b869e8697929394959603614af9575b50614ab6928b6107a18c611f20614a60614abc99976106e2614aa9986000526015602052604060002090565b93601f9a8b5460405197889563208bffb160e21b8c8801526024870193909594919260a09360c08601978652600060208701526040860152606085015260808401521515910152565b8051810182019101614189565b9261378d565b80831015614ad757509098905060028c6149be8c3880614a1b565b80613ed4614af49261131c85546000526016602052604060002090565b614abc565b9193929a50508a8511614b4c575b509087918c86861080801591614b23575b50159a929193614a34565b89881015915081614b44575b5080614b3c575b38614b18565b508815614b36565b905038614b2f565b995095509350859250614b9b614b8d614b6c8b546001600160a01b031690565b60405190614b8582611f20888c83019190602083019252565b6126f06148c9565b868082518301019101614902565b969350909691509594614bb1859b601f54613889565b11969091614b07565b506000614a16565b508a1515614a0f565b99509b50955095509a50614c14614c06838d614b85614bf18f546001600160a01b031690565b60405192830193845291928390602001611f20565b8c8082518301019101614902565b9e9350909791509695849b859e614c2d82601f54613889565b1199614a08565b505050505050505050509050565b50801515614975565b90929192614c646149436003546001600160a01b031690565b93600091829083809481938280985b600f8a111580614efe575b15614c3457614c9f6105ee60056106e2846000526015602052604060002090565b614cc3575b60026149b6614cbd926000526015602052604060002090565b98614c73565b8b8a614ce46133036149e060056106e2876000526015602052604060002090565b8293919315614ea1575b82151580614e98575b8015614e8f575b614d0c575b50505050614ca4565b938394819d8d949503614dd9575b50614da092614ab6926107a18c611f208f614d4760056106e2614d91996000526015602052604060002090565b94601f9a8b549060405198899663208bffb160e21b60208901526024880194919260a0949197969360c0870198875260208701526040860152606085015260808401521515910152565b60208082518301019101614189565b80831015614db757509098905060028a8d38614d03565b80613ed4614dd49261131c85546000526016602052604060002090565b614da0565b935050509750828211614e2b575b50898c878b86851080801591614e02575b50159a9291614d1a565b89871015915081614e23575b5080614e1b575b38614df8565b508815614e15565b905038614e0e565b935093505050614e72614e63614e496003546001600160a01b031690565b60405190614b8582611f2088602083019190602083019252565b60208082518301019101614902565b9350909391509291614e878592601f54613889565b119338614de7565b508b1515614cfe565b50891515614cf7565b97505050935097505050614edd614e63614ec36003546001600160a01b031690565b60405190614b8582611f2087602083019190602083019252565b999350909391509291818a8d829b614ef789601f54613889565b1197614cee565b50801515614c7e565b614f0f6155e8565b156109fb57614f1d3361566d565b801561501c575b156109d657614f3161381c565b614f3c811515615030565b614f59614f516003546001600160a01b031690565b6127e361507b565b614f6d6020918280825183010191016150b4565b90614f8283600052601a602052604060002090565b549060005b60078110614f9757505050505050565b80614fa56150089288615131565b51801561501657614fb68287615131565b5184815192831561500d57614fdd614fe292614fd5614fe8968b615153565b940151615142565b615153565b90615166565b61132b614fff886000526017602052604060002090565b6145658461378d565b614f87565b50505050613a90565b50613a90565b50336001600160a01b036005541614614f24565b1561503757565b606460405162461bcd60e51b815260206004820152601260248201527f6e65737465642e696e76616c69642e61676500000000000000000000000000006044820152fd5b6040519061508882612984565b601882527f6765744261746368526f79616c7479436c6175736573282900000000000000006020830152565b6102a09081818403126103c45782601f820112156103c45760408051936150da856129a0565b84938301928184116103c457935b8385106150f757505050505090565b6060858303126103c457825160609161510f82612963565b86518252602091828801518382015285880151868201528152019401936150e8565b906007811015613dfb5760051b0190565b90816064029160648304036109d157565b818102929181159184041417156109d157565b8115615170570490565b634e487b7160e01b600052601260045260246000fd5b6040519061010080830183811067ffffffffffffffff82111761297f57604052368337565b601f5480600052601a6020526040600020549182018092116109d157600052601a602052604060002055565b601f5480600052601b6020526040600020549182018092116109d157600052601b602052604060002055565b601f5480600052601c6020526040600020549182018092116109d157600052601c602052604060002055565b601f5480600052601d60205260406000205490600182018092116109d157600052601d602052604060002055565b6040519061526a82612984565b601482527f676574627573696e6573732875696e74323536290000000000000000000000006020830152565b604051906152a382612984565b601d82527f67657472616e6b436f756e742875696e743235362c75696e74323536290000006020830152565b6155b46101c061383a926153096152ed82516001600160a01b031690565b6001600160a01b03166001600160a01b03196002541617600255565b61533c61532060208301516001600160a01b031690565b6001600160a01b03166001600160a01b03196003541617600355565b61536f61535360408301516001600160a01b031690565b6001600160a01b03166001600160a01b03196004541617600455565b6153a261538660608301516001600160a01b031690565b6001600160a01b03166001600160a01b03196005541617600555565b6153d56153b960808301516001600160a01b031690565b6001600160a01b03166001600160a01b03196006541617600655565b6154086153ec60a08301516001600160a01b031690565b6001600160a01b03166001600160a01b03196007541617600755565b61543b61541f60c08301516001600160a01b031690565b6001600160a01b03166001600160a01b03196008541617600855565b61546e61545260e08301516001600160a01b031690565b6001600160a01b03166001600160a01b03196009541617600955565b6154a26154866101008301516001600160a01b031690565b6001600160a01b03166001600160a01b0319600a541617600a55565b6154d66154ba6101208301516001600160a01b031690565b6001600160a01b03166001600160a01b0319600b541617600b55565b61550a6154ee6101408301516001600160a01b031690565b6001600160a01b03166001600160a01b0319600c541617600c55565b61553e6155226101608301516001600160a01b031690565b6001600160a01b03166001600160a01b0319600d541617600d55565b6155726155566101808301516001600160a01b031690565b6001600160a01b03166001600160a01b0319600e541617600e55565b6155a661558a6101a08301516001600160a01b031690565b6001600160a01b03166001600160a01b0319600f541617600f55565b01516001600160a01b031690565b6001600160a01b03166001600160a01b03196010541617601055565b908160209103126103c4575180151581036103c45790565b6156436001600160a01b036002541660405161560381612984565b600881527f697353616665282900000000000000000000000000000000000000000000000060208201526040519161563a836129bc565b60008352615834565b9080615662575b1561093b5780602080611599935183010191016155d0565b50602081511461564a565b6156d06001600160a01b03806002541660405191602094168483015283825261569582612984565b604051906156a282612984565b601582527f697353656375726542617365286164647265737329000000000000000000000085830152615834565b90806156ed575b1561093b578161159992825183010191016155d0565b50818151146156d7565b6115996001600160a01b036003541660405161571281612984565b600681527f6941676528290000000000000000000000000000000000000000000000000000602082015260405191612c4a836129bc565b3d15615774573d9061575a82613537565b9161576860405193846129d8565b82523d6000602084013e565b606090565b906157849291615834565b9060009015615791575090565b604051915061579f826129bc565b815290565b73d5b9399e8119ec1059468631a84fe871e59dab92803b1561581b576000926001600160e01b0319836020869551910120169061580b60246040518093602082019586526157fb81518092602086860191016141f9565b81010360048101845201826129d8565b51915afa615817615749565b9091565b50505060009060405161582d816129bc565b6000815290565b803b1561581b576000926001600160e01b0319836020869551910120169061580b60246040518093602082019586526157fb81518092602086860191016141f9565b929161588491600094615834565b90806158bc575b6158925750565b9091506020818051810103126103c45760206001600160a01b039101516158b8816103c9565b1690565b50602081511461588b565b600092916158d4916157a4565b90806158f7575b6158e25750565b61159991925060208082518301019101614189565b5060208151146158db565b92916158d491600094615834565b90602082519201516001600160e01b031990818116936004811061593357505050565b60040360031b82901b16169150565b6001600160a01b038116156159dd57600080918351908260208601915af190615969615749565b9115615973575090565b8051600091906004116159d75761598a9150615910565b81511561599a5750805190602001fd5b6040517f21c09d340000000000000000000000000000000000000000000000000000000081526001600160e01b0319919091166004820152602490fd5b5061598a565b60046040517fe6c4247b000000000000000000000000000000000000000000000000000000008152fdfea26469706673582212209bba8a233ad31fcd9301c515d291d77d420dd2e9d1178e35ed7f735202d070ff64736f6c63430008140033","linkReferences":{}},"methodIdentifiers":{"dAOAssembly()":"14837455","daocore()":"14d8d024","nested741()":"45cff900","old741()":"5540c5ac","price()":"a035b1fe"},"id":79}