{"abi":[{"type":"constructor","inputs":[{"name":"_hex","type":"address","internalType":"address"}],"stateMutability":"nonpayable"},{"type":"function","name":"instance","inputs":[],"outputs":[{"name":"","type":"address","internalType":"address"}],"stateMutability":"view"},{"type":"function","name":"tVLFactory","inputs":[],"outputs":[{"name":"","type":"address","internalType":"address"}],"stateMutability":"view"},{"type":"function","name":"tVLMining","inputs":[],"outputs":[{"name":"","type":"address","internalType":"address"}],"stateMutability":"view"},{"type":"function","name":"tVLReward","inputs":[],"outputs":[{"name":"","type":"address","internalType":"address"}],"stateMutability":"view"},{"type":"function","name":"tVLRoyality","inputs":[],"outputs":[{"name":"","type":"address","internalType":"address"}],"stateMutability":"view"},{"type":"function","name":"tVLTour","inputs":[],"outputs":[{"name":"","type":"address","internalType":"address"}],"stateMutability":"view"},{"type":"function","name":"tVLValidator","inputs":[],"outputs":[{"name":"","type":"address","internalType":"address"}],"stateMutability":"view"}],"bytecode":{"object":"0x60803461023957601f6142e238819003918201601f19168301926001600160401b039290919083851183861017610223578083926040968752833960209283918101031261023957516001600160a01b0391908281169081900361023957845191612835928381019381851087861117610223576103f482398284528681600095868582015203019084f09485156102195783549585166001600160a01b031996871617845586516116b98082019491808610848711176101e7578481612c29978489833985815203019087f080156101fb578716886001541617600155885181810181811085821117610205578186918489833985815203019087f080156101fb578716886002541617600255885181810181811085821117610205578186918489833985815203019087f080156101fb578716886003541617600355885181810181811085821117610205578186918489833985815203019087f080156101fb578716886004541617600455885181810181811085821117610205578186918489833985815203019087f080156101fb57871688600554161760055588519481860193868510908511176101e75790859392918439815203019082f09081156101dc575016906006541617600655516101b5908161023f8239f35b8451903d90823e3d90fd5b634e487b7160e01b87526041600452602487fd5b89513d88823e3d90fd5b634e487b7160e01b88526041600452602488fd5b86513d85823e3d90fd5b634e487b7160e01b600052604160045260246000fd5b600080fdfe60806040818152600436101561001457600080fd5b600091823560e01c908163022ec0951461015c575080639443767c146101355780639ba540fb1461010e578063a50c0bc0146100e7578063b85c9faf146100c0578063d795ff38146100995763dabf429d1461006f57600080fd5b346100955781600319360112610095576020906001600160a01b03600554169051908152f35b5080fd5b50346100955781600319360112610095576020906001600160a01b03600254169051908152f35b50346100955781600319360112610095576020906001600160a01b03600354169051908152f35b50346100955781600319360112610095576020906001600160a01b03600654169051908152f35b50346100955781600319360112610095576020906001600160a01b03600154169051908152f35b50346100955781600319360112610095576020906001600160a01b03600454169051908152f35b8390346100955781600319360112610095576001600160a01b0360209254168152f3fea264697066735822122069848339c2b06e894a6ad856e28d2efc2090f5736bbedac3636fdb7dbae5451a64736f6c63430008140033608034620000c157601f6200283538819003918201601f19168301916001600160401b03831184841017620000c6578084926040948552833981010312620000c1576200005a60206200005283620000dc565b9201620000dc565b6001600160a01b0391821691908215620000af5760018060a01b031992836001541690846000541617600055600160115533908433161717600155169060125416176012556040516127439081620000f28239f35b60405163e6c4247b60e01b8152600490fd5b600080fd5b634e487b7160e01b600052604160045260246000fd5b51906001600160a01b0382168203620000c15756fe60806040526004361015610018575b361561001657005b005b60003560e01c80630399c93c146101b857806306fdde03146101b357806312065fe0146101ae5780631499c592146101a95780631f185d16146101a45780631f3c99c31461019f578063339459a61461019a5780633b9b7955146101955780633dbfd97c1461019057806360f96a8f1461018b5780638129fc1c146101865780638da5cb5b146101815780639c75dd351461017c578063a1f7f53914610177578063a3e884b014610172578063af4845261461016d578063af640d0f14610168578063b28175c414610163578063b90306ad1461015e578063c107930a14610159578063c47f002714610154578063c54e44b01461014f578063d4ace81b1461014a578063e01ad5fd14610145578063e0a9bc2b146101405763fdc10bc90361000e5761116e565b611153565b6110d3565b6110b3565b61102d565b610fba565b610e8d565b610d5e565b610d37565b610d19565b610ce8565b610b5d565b610ac1565b610aa5565b610a7e565b610783565b61075c565b6106c9565b6106a2565b610689565b610650565b610569565b6104d1565b6104b5565b6103d0565b6101d3565b6001600160a01b038116036101ce57565b600080fd5b346101ce5760203660031901126101ce576004356101f0816101bd565b6101f86122e9565b1561028b576102063361236e565b8015610277575b1561024d576102469061022360155415156114a7565b61022b6113ea565b61023f6001600160a01b038216151561189e565b4790612428565b6001601155005b60046040517fea8e4eb5000000000000000000000000000000000000000000000000000000008152fd5b50336001600160a01b03600554161461020d565b60046040517f9dc4246e000000000000000000000000000000000000000000000000000000008152fd5b90600182811c921680156102e5575b60208310146102cf57565b634e487b7160e01b600052602260045260246000fd5b91607f16916102c4565b634e487b7160e01b600052604160045260246000fd5b6040810190811067ffffffffffffffff82111761032157604052565b6102ef565b6020810190811067ffffffffffffffff82111761032157604052565b610100810190811067ffffffffffffffff82111761032157604052565b90601f8019910116810190811067ffffffffffffffff82111761032157604052565b60005b8381106103945750506000910152565b8181015183820152602001610384565b604091602082526103c48151809281602086015260208686019101610381565b601f01601f1916010190565b346101ce576000806003193601126104b25760405190806014546103f3816102b5565b80855291600191808316908115610488575060011461042d575b6104298561041d8187038261035f565b604051918291826103a4565b0390f35b9250601483527fce6d7b5282bd9a3661ae061feed1dbda4e52ab073b1f9285be6e155d9c38d4ec5b82841061047057505050810160200161041d8261042961040d565b80546020858701810191909152909301928101610455565b8695506104299693506020925061041d94915060ff191682840152151560051b820101929361040d565b80fd5b346101ce5760003660031901126101ce57602047604051908152f35b346101ce5760203660031901126101ce576004356104ee816101bd565b6104f66122e9565b1561028b576105043361236e565b8015610555575b1561024d576001600160a01b039061052660155415156114a7565b61052e6113ea565b1661053a81151561189e565b6001600160a01b031960125416176012556001601155600080f35b50336001600160a01b03600554161461050b565b346101ce576020806003193601126101ce576105e860043561058a816101bd565b6001600160a01b038060025416906040519216848301528382526105ad82610305565b604051906105ba82610305565b601182527f69735369676e6572286164647265737329000000000000000000000000000000858301526124b2565b919080610646575b1561061c57818161060a92610429945183010191016122d1565b60405190151581529081906020820190565b60046040517f3204506f000000000000000000000000000000000000000000000000000000008152fd5b50808251146105f0565b346101ce5760003660031901126101ce576001600160a01b0360015416330361024d57600019420142811161068457601655005b61120b565b346101ce5760003660031901126101ce57610016611c0b565b346101ce5760003660031901126101ce5760206001600160a01b0360005416604051908152f35b346101ce5760203660031901126101ce576001546001600160a01b03163381900361024d5761074961072d61074d9261073b61070d6004546001600160a01b031690565b91604051938491602083019190916001600160a01b036020820193169052565b03601f19810184528361035f565b6107436111d2565b90612596565b1590565b61024d57610016600435611221565b346101ce5760003660031901126101ce5760206001600160a01b0360125416604051908152f35b60003660031901126101ce576107976113ea565b601554610a3a576107a6611c0b565b600a546001600160a01b03166001546001600160a01b03169060405191610808602093806107e6848783019190916001600160a01b036020820193169052565b03936107fa601f199586810184528361035f565b610802611425565b90612545565b906001600160a01b038216156109875750916108d77f4ef260a9000000000000000000000000000000000000000000000000000000009261092b61090a6109266108ea6108dc7f3baee0ea0000000000000000000000000000000000000000000000000000000061097b9a6108d78a6108cb61088c6004546001600160a01b031690565b9361089f6001546001600160a01b031690565b604051938401969096526001600160a01b03908116602484015290941660448201529283906064820190565b0389810184528361035f565b61265a565b87808251830101910161147d565b939091936001600160a01b03166001600160a01b03196012541617601255565b6001600160a01b03166001600160a01b03196013541617601355565b601555565b600a546001600160a01b03169261096f61094d6001546001600160a01b031690565b604051968793840152602483019190916001600160a01b036020820193169052565b0390810184528361035f565b505b6100166001601155565b610a16915092610a09610a3594610926946108d76109ad6004546001600160a01b031690565b916109c06012546001600160a01b031690565b6040517fb1c4907900000000000000000000000000000000000000000000000000000000888201526001600160a01b03918216602482015294166044850152836064810161096f565b805181018201910161145e565b9190916001600160a01b03166001600160a01b03196013541617601355565b61097d565b606460405162461bcd60e51b815260206004820152601660248201527f6d652e616c72656164792e696e697469616c697a6564000000000000000000006044820152fd5b346101ce5760003660031901126101ce5760206001600160a01b0360015416604051908152f35b346101ce5760203660031901126101ce576100166004356112f5565b346101ce5760003660031901126101ce576020610b2e6001600160a01b0360065416604051610aef81610305565b601381527f67657464656c656761746f72436f756e742829000000000000000000000000008482015260405191610b2583610326565b600083526125d2565b604051908152f35b60809060031901126101ce57600435610b4e816101bd565b90602435906044359060643590565b610b6636610b36565b610b7360155415156114a7565b610b7b6114f2565b610b836113ea565b60018103610cc75750610b9d610b988461236e565b611827565b34610bb0575b5050506100166001601155565b6108d7610cbe93610c57610bcd610bc634611872565b6064900490565b610c46610be4610bdc34611888565b6103e8900490565b610c35610bf3610bdc34611888565b93610c24610c0e86610c0986610c0986346113dd565b6113dd565b600b546001600160a01b0316612428565b612428565b600d546001600160a01b0316612428565b600e546001600160a01b0316612428565b600f546001600160a01b0316612428565b61072d610c6c6004546001600160a01b031690565b9360155490604051968794636e59fe2560e11b6020870152349360248701919360a0936001600160a01b036001969897939860c086019986521660208501526040840152606083015260808201520152565b50388080610ba3565b91925050600714610cd9575b5061097d565b610ce2906116ca565b38610cd3565b346101ce5760203660031901126101ce576020610d0f600435610d0a816101bd565b61236e565b6040519015158152f35b346101ce5760003660031901126101ce576020601554604051908152f35b346101ce5760003660031901126101ce5760206001600160a01b0360135416604051908152f35b346101ce5760203660031901126101ce57600435610d7a6122e9565b1561028b576001600160a01b0360055416330361024d5760009060046020610db8610dac85546001600160a01b031690565b6001600160a01b031690565b604051928380927f46f991ac0000000000000000000000000000000000000000000000000000000082525afa8015610e885783808481949382948391610e5a575b505af1610e046123f8565b501561061c577fcdcc745fe377b103b45fa0cec23ae3ef93d6fc6a84a01f0d18c40b354dd1d5d8610e54610e43610dac600b546001600160a01b031690565b604051938452929081906020820190565b0390a280f35b610e7b915060203d8111610e81575b610e73818361035f565b8101906118e9565b38610df9565b503d610e69565b6118fe565b610e9636610b36565b610ea76015949392945415156114a7565b610eaf6122e9565b1561028b57610ebd3361236e565b8015610f69575b1561024d57610ed16113ea565b610ed96122e9565b1561028b57610ee73361236e565b8015610f55575b1561024d5761097b93610f03610b988561236e565b6001600160a01b03928360045416936015549560405196636e59fe2560e11b602089015260248801521660448601526064850152608484015260a4830152600060c483015260c482526108d782610342565b50336001600160a01b036005541614610eee565b50336001600160a01b036005541614610ec4565b604051906101e0820182811067ffffffffffffffff82111761032157604052565b67ffffffffffffffff811161032157601f01601f191660200190565b346101ce5760203660031901126101ce5760043567ffffffffffffffff81116101ce57366023820112156101ce578060040135610ff681610f9e565b90611004604051928361035f565b80825236602482850101116101ce57602081600092602461001696018386013783010152611528565b346101ce5760203660031901126101ce5760043561104a816101bd565b803b600061105782610f9e565b92611065604051948561035f565b82845260208401903c602d81511061108957602a602091015160601c604051908152f35b60046040517fbaf3f0f7000000000000000000000000000000000000000000000000000000008152fd5b346101ce5760003660031901126101ce5760206016544210604051908152f35b346101ce5760203660031901126101ce576020610d0f6004356110f5816101bd565b6001600160a01b0380600654169060405192168483015283825261111882610305565b6040519061112582610305565b601882527f697364656c656761746f724e6f6465286164647265737329000000000000000085830152612596565b346101ce5760003660031901126101ce576020610d0f6122e9565b346101ce5760003660031901126101ce576020610b2e6001600160a01b036003541660405161119c81610305565b600681527f69416765282900000000000000000000000000000000000000000000000000008482015260405191610b2583610326565b604051906111df82610305565b601582527f69735573657245786973747328616464726573732900000000000000000000006020830152565b634e487b7160e01b600052601160045260246000fd5b61127d6001600160a01b03600354166040519061123d82610326565b600082526040519061124e82610305565b601382527f73657373696f6e54544c5365636f6e647328290000000000000000000000000060208301526125d2565b42019081421161068457611293916016556112f5565b565b9060e0828203126101ce5780601f830112156101ce576040519160e0830183811067ffffffffffffffff82111761032157604052829060e081019283116101ce57905b8282106112e55750505090565b81518152602091820191016112d8565b6001600160a01b0360135416604051600161135a6020926103e78482015283815261131f81610305565b60405161132b81610305565b601a81527f676574546f67676c65416765436f756e742875696e743235362900000000000085820152856125d2565b161561136557505050565b6113c56113cb916113b8600194604051907f1296412000000000000000000000000000000000000000000000000000000000848301526108d78261072d8a60248301919060206040840193600881520152565b8051810182019101611295565b60800190565b51146113d45750565b611293906116ca565b9190820391821161068457565b6002601154146113fb576002601155565b60046040517f3ee5aeb5000000000000000000000000000000000000000000000000000000008152fd5b6040519061143282610305565b601e82527f7265736f6c76655472616e7366657254617267657428616464726573732900006020830152565b91908260409103126101ce576020825192015161147a816101bd565b90565b908160609103126101ce578051916040602083015161149b816101bd565b92015161147a816101bd565b156114ae57565b606460405162461bcd60e51b815260206004820152600f60248201527f6d652e696e76616c69642e696e697400000000000000000000000000000000006044820152fd5b6016544210156114fe57565b60046040517f1fd05a4a000000000000000000000000000000000000000000000000000000008152fd5b61153560155415156114a7565b61153d6114f2565b6115456122e9565b1561028b576001906001600160a01b03825416330361024d5780519067ffffffffffffffff8211610321576115848261157f6014546102b5565b611643565b60209081601f84116001146115c157509282939183926000946115b6575b50501b916000199060031b1c191617601455565b0151925038806115a2565b6014600052919083601f1981167fce6d7b5282bd9a3661ae061feed1dbda4e52ab073b1f9285be6e155d9c38d4ec946000905b888383106116295750505010611610575b505050811b01601455565b015160001960f88460031b161c19169055388080611605565b8587015188559096019594850194879350908101906115f4565b601f811161164f575050565b600090601482527fce6d7b5282bd9a3661ae061feed1dbda4e52ab073b1f9285be6e155d9c38d4ec906020601f850160051c830194106116aa575b601f0160051c01915b82811061169f57505050565b818155600101611693565b909250829061168a565b91908260409103126101ce576020825192015190565b61172c61173b916116e36004546001600160a01b031690565b6015546040517f6a811244000000000000000000000000000000000000000000000000000000006020820152602481019190915260448101929092526108d7826064810161072d565b602080825183010191016116b4565b90804710156117ba575b50804710156117515750565b806117897f992e981f1f6d8cb3a32ce3b31107393c58fbd9a9052cb415a19d578833bf80d692610c1f600c546001600160a01b031690565b600c54604080516001600160a01b0390921682526020820192909252429181019190915260006060820152608090a1565b806117f27f992e981f1f6d8cb3a32ce3b31107393c58fbd9a9052cb415a19d578833bf80d692610c1f6001546001600160a01b031690565b600154604080516001600160a01b0390921682526020820192909252429181019190915260006060820152608090a138611745565b1561182e57565b606460405162461bcd60e51b815260206004820152601360248201527f6d652e756e7365637572652e4f524331313535000000000000000000000000006044820152fd5b9060158202918083046015149015171561068457565b90602d820291808304602d149015171561068457565b156118a557565b606460405162461bcd60e51b815260206004820152600f60248201527f6d652e7a65726f2e6164647265737300000000000000000000000000000000006044820152fd5b908160209103126101ce575161147a816101bd565b6040513d6000823e3d90fd5b611bef6101c06112939261194461192882516001600160a01b031690565b6001600160a01b03166001600160a01b03196002541617600255565b61197761195b60208301516001600160a01b031690565b6001600160a01b03166001600160a01b03196003541617600355565b6119aa61198e60408301516001600160a01b031690565b6001600160a01b03166001600160a01b03196004541617600455565b6119dd6119c160608301516001600160a01b031690565b6001600160a01b03166001600160a01b03196005541617600555565b611a106119f460808301516001600160a01b031690565b6001600160a01b03166001600160a01b03196006541617600655565b611a43611a2760a08301516001600160a01b031690565b6001600160a01b03166001600160a01b03196007541617600755565b611a76611a5a60c08301516001600160a01b031690565b6001600160a01b03166001600160a01b03196008541617600855565b611aa9611a8d60e08301516001600160a01b031690565b6001600160a01b03166001600160a01b03196009541617600955565b611add611ac16101008301516001600160a01b031690565b6001600160a01b03166001600160a01b0319600a541617600a55565b611b11611af56101208301516001600160a01b031690565b6001600160a01b03166001600160a01b0319600b541617600b55565b611b45611b296101408301516001600160a01b031690565b6001600160a01b03166001600160a01b0319600c541617600c55565b611b79611b5d6101608301516001600160a01b031690565b6001600160a01b03166001600160a01b0319600d541617600d55565b611bad611b916101808301516001600160a01b031690565b6001600160a01b03166001600160a01b0319600e541617600e55565b611be1611bc56101a08301516001600160a01b031690565b6001600160a01b03166001600160a01b0319600f541617600f55565b01516001600160a01b031690565b6001600160a01b03166001600160a01b03196010541617601055565b611c20610dac6000546001600160a01b031690565b604051907f97f3815a000000000000000000000000000000000000000000000000000000008252602082600481845afa918215610e88576000926122b0575b50604051917fcfbffe53000000000000000000000000000000000000000000000000000000008352602083600481855afa928315610e885760009361228f575b50604051907fab6e844f000000000000000000000000000000000000000000000000000000008252602082600481865afa918215610e885760009261226e575b50604051917f14d8d024000000000000000000000000000000000000000000000000000000008352602083600481875afa928315610e885760009361224d575b50604051927fd1f956b1000000000000000000000000000000000000000000000000000000008452602084600481885afa938415610e885760009461222c575b50604051937fe61dfd58000000000000000000000000000000000000000000000000000000008552602085600481895afa948515610e885760009561220b575b506040517fe09d394d0000000000000000000000000000000000000000000000000000000081526020816004818a5afa908115610e88576000916121ec575b506040517f52b06d640000000000000000000000000000000000000000000000000000000081526020816004818b5afa908115610e88576000916121cd575b506040517f013cf08b00000000000000000000000000000000000000000000000000000000815260006004820152916020836024818c5afa928315610e88576000936121ac575b50604051977f5e09dbe70000000000000000000000000000000000000000000000000000000089526020896004818d5afa948515610e885760049960009661218b575b5060208b6040519b8c80927faa0ddc160000000000000000000000000000000000000000000000000000000082525afa968715610e885760049a60009861216a575b5060208c6040519c8d80927f640274270000000000000000000000000000000000000000000000000000000082525afa988915610e885760049b60009a612149575b5060208d6040519d8e80927f30125cf50000000000000000000000000000000000000000000000000000000082525afa9a8b15610e88578d60049d60009d612127575b506020906040519e8f80927f24768d910000000000000000000000000000000000000000000000000000000082525afa9c8d15610e885760009d612106575b50604051809e81907f9dc969a80000000000000000000000000000000000000000000000000000000082525a92600491602094fa9d8e15610e885760009e6120e5575b50611ff9610f7d565b6001600160a01b0390911681529d8e906001600160a01b031660208201526040019061202d91906001600160a01b03169052565b6001600160a01b031660608d01526001600160a01b031660808c01526001600160a01b031660a08b01526001600160a01b031660c08a01526001600160a01b031660e08901526001600160a01b03166101008801526001600160a01b03166101208701526001600160a01b03166101408601526001600160a01b03166101608501526001600160a01b03166101808401526001600160a01b03166101a08301526001600160a01b03166101c08201526112939061190a565b6120ff919e5060203d602011610e8157610e73818361035f565b9c38611ff0565b612120919d5060203d602011610e8157610e73818361035f565b9b38611fad565b6020919d5061214290823d8411610e8157610e73818361035f565b9c90611f6e565b612163919a5060203d602011610e8157610e73818361035f565b9838611f2b565b61218491985060203d602011610e8157610e73818361035f565b9638611ee9565b6121a591965060203d602011610e8157610e73818361035f565b9438611ea7565b6121c691935060203d602011610e8157610e73818361035f565b9138611e64565b6121e6915060203d602011610e8157610e73818361035f565b38611e1d565b612205915060203d602011610e8157610e73818361035f565b38611dde565b61222591955060203d602011610e8157610e73818361035f565b9338611d9f565b61224691945060203d602011610e8157610e73818361035f565b9238611d5f565b61226791935060203d602011610e8157610e73818361035f565b9138611d1f565b61228891925060203d602011610e8157610e73818361035f565b9038611cdf565b6122a991935060203d602011610e8157610e73818361035f565b9138611c9f565b6122ca91925060203d602011610e8157610e73818361035f565b9038611c5f565b908160209103126101ce575180151581036101ce5790565b6123446001600160a01b036002541660405161230481610305565b600881527f697353616665282900000000000000000000000000000000000000000000000060208201526040519161233b83610326565b600083526124b2565b9080612363575b1561061c578060208061147a935183010191016122d1565b50602081511461234b565b6123d16001600160a01b03806002541660405191602094168483015283825261239682610305565b604051906123a382610305565b601582527f6973536563757265426173652861646472657373290000000000000000000000858301526124b2565b90806123ee575b1561061c578161147a92825183010191016122d1565b50818151146123d8565b3d15612423573d9061240982610f9e565b91612417604051938461035f565b82523d6000602084013e565b606090565b9080156124ae576001600160a01b03821691821561248457600080808481945af16124516123f8565b501561061c5760207fcec1f18c3ab8ddaaa107a1591e3c369667eec613626611a8deaedef43069fcdd91604051908152a2565b60046040517fe6c4247b000000000000000000000000000000000000000000000000000000008152fd5b5050565b803b1561252c576000927fffffffff00000000000000000000000000000000000000000000000000000000836020869551910120169061251c602460405180936020820195865261250c8151809260208686019101610381565b810103600481018452018261035f565b51915afa6125286123f8565b9091565b50505060009060405161253e81610326565b6000815290565b9291612553916000946124b2565b908061258b575b6125615750565b9091506020818051810103126101ce5760206001600160a01b03910151612587816101bd565b1690565b50602081511461255a565b92916125a4916000946124b2565b90806125c7575b6125b25750565b61147a919250602080825183010191016122d1565b5060208151146125ab565b92916125e0916000946124b2565b9080612605575b6125ee5750565b9091506020818051810103126101ce576020015190565b5060208151146125e7565b90602082519201517fffffffff0000000000000000000000000000000000000000000000000000000090818116936004811061264b57505050565b60040360031b82901b16169150565b6001600160a01b0381161561248457600080918351908260208601915af1906126816123f8565b911561268b575090565b805160009190600411612707576126a29150612610565b8151156126b25750805190602001fd5b6040517f21c09d340000000000000000000000000000000000000000000000000000000081527fffffffff00000000000000000000000000000000000000000000000000000000919091166004820152602490fd5b506126a256fea26469706673582212202a182b885d01864b7c5da285e7d098a34c4389e83b6bc19aab11f82eca3ddb6e64736f6c6343000814003360803461009257601f6116b938819003918201601f19168301916001600160401b038311848410176100975780849260209460405283398101031261009257516001600160a01b038116908190036100925780156100805760018060a01b031933816001541617600155600054161760005560405161160b90816100ae8239f35b60405163e6c4247b60e01b8152600490fd5b600080fd5b634e487b7160e01b600052604160045260246000fdfe60806040526004361015610018575b361561001657005b005b60003560e01c806312065fe0146100e85780631f185d16146100e3578063339459a6146100de5780633b9b7955146100d95780638da5cb5b146100d4578063a1f7f539146100cf578063a9059cbb146100ca578063af484526146100c5578063b90306ad146100c0578063c54e44b0146100bb578063e01ad5fd146100b6578063e0a9bc2b146100b15763fdc10bc90361000e57610e65565b610e4a565b610d7f565b610cf9565b610bc9565b610b98565b6109c0565b61094b565b610924565b6108fd565b610205565b61011a565b3461010457600036600319011261010457602047604051908152f35b600080fd5b6001600160a01b0381160361010457565b34610104576020806003193601126101045761019960043561013b81610109565b6001600160a01b0380600254169060405192168483015283825261015e82610ef8565b6040519061016b82610ef8565b601182527f69735369676e65722861646472657373290000000000000000000000000000008583015261149f565b9190806101fb575b156101d15781816101bb926101cd945183010191016112d7565b60405190151581529081906020820190565b0390f35b60046040517f3204506f000000000000000000000000000000000000000000000000000000008152fd5b50808251146101a1565b346101045760003660031901126101045761023761022b6000546001600160a01b031690565b6001600160a01b031690565b604051907f97f3815a000000000000000000000000000000000000000000000000000000008252602082600481845afa91821561072d576000926108dc575b50604051917fcfbffe53000000000000000000000000000000000000000000000000000000008352602083600481855afa92831561072d576000936108bb575b50604051907fab6e844f000000000000000000000000000000000000000000000000000000008252602082600481865afa91821561072d5760009261089a575b50604051917f14d8d024000000000000000000000000000000000000000000000000000000008352602083600481875afa92831561072d57600093610879575b50604051927fd1f956b1000000000000000000000000000000000000000000000000000000008452602084600481885afa93841561072d57600094610858575b50604051937fe61dfd58000000000000000000000000000000000000000000000000000000008552602085600481895afa94851561072d57600095610837575b506040517fe09d394d0000000000000000000000000000000000000000000000000000000081526020816004818a5afa90811561072d57600091610818575b506040517f52b06d640000000000000000000000000000000000000000000000000000000081526020816004818b5afa90811561072d576000916107f9575b506040517f013cf08b00000000000000000000000000000000000000000000000000000000815260006004820152916020836024818c5afa92831561072d576000936107d8575b50604051977f5e09dbe70000000000000000000000000000000000000000000000000000000089526020896004818d5afa94851561072d576004996000966107b7575b5060208b6040519b8c80927faa0ddc160000000000000000000000000000000000000000000000000000000082525afa96871561072d5760049a600098610796575b5060208c6040519c8d80927f640274270000000000000000000000000000000000000000000000000000000082525afa98891561072d5760049b60009a610775575b5060208d6040519d8e80927f30125cf50000000000000000000000000000000000000000000000000000000082525afa9a8b1561072d578d60049d60009d610753575b506020906040519e8f80927f24768d910000000000000000000000000000000000000000000000000000000082525afa9c8d1561072d5760009d610732575b50604051809e81907f9dc969a80000000000000000000000000000000000000000000000000000000082525a92600491602094fa9d8e1561072d5760009e6106fc575b50610610610f97565b6001600160a01b0390911681529d8e906001600160a01b031660208201526040019061064491906001600160a01b03169052565b6001600160a01b031660608d01526001600160a01b031660808c01526001600160a01b031660a08b01526001600160a01b031660c08a01526001600160a01b031660e08901526001600160a01b03166101008801526001600160a01b03166101208701526001600160a01b03166101408601526001600160a01b03166101608501526001600160a01b03166101808401526001600160a01b03166101a08301526001600160a01b03166101c082015261001690610fb8565b61071f919e5060203d602011610726575b6107178183610f51565b810190610f73565b9c38610607565b503d61070d565b610f8b565b61074c919d5060203d602011610726576107178183610f51565b9b386105c4565b6020919d5061076e90823d8411610726576107178183610f51565b9c90610585565b61078f919a5060203d602011610726576107178183610f51565b9838610542565b6107b091985060203d602011610726576107178183610f51565b9638610500565b6107d191965060203d602011610726576107178183610f51565b94386104be565b6107f291935060203d602011610726576107178183610f51565b913861047b565b610812915060203d602011610726576107178183610f51565b38610434565b610831915060203d602011610726576107178183610f51565b386103f5565b61085191955060203d602011610726576107178183610f51565b93386103b6565b61087291945060203d602011610726576107178183610f51565b9238610376565b61089391935060203d602011610726576107178183610f51565b9138610336565b6108b491925060203d602011610726576107178183610f51565b90386102f6565b6108d591935060203d602011610726576107178183610f51565b91386102b6565b6108f691925060203d602011610726576107178183610f51565b9038610276565b346101045760003660031901126101045760206001600160a01b0360005416604051908152f35b346101045760003660031901126101045760206001600160a01b0360015416604051908152f35b346101045760003660031901126101045760206109b86001600160a01b036006541660405161097981610ef8565b601381527f67657464656c656761746f72436f756e7428290000000000000000000000000084820152604051916109af83610f19565b6000835261154d565b604051908152f35b6040806003193601126101045760048035916109db83610109565b602435926001600160a01b0392838216938415610b89576109fa6112ef565b15610b7a57610a0833611374565b908115610b6c575b5015610b5e57908491824710610a5a575b507f1e70cf59d0c7a20c88704bfce5a47e636dfa577ebf52a7166641741cef3436619291610a4e9161142e565b519283523392602090a3005b909150825190600080602084017fa9059cbb00000000000000000000000000000000000000000000000000000000815230602486015288604486015260448552610aa385610f35565b84519082737b308edc6162d8e935476fe45fb3e6e7c02764985af191610ac76113fe565b9215610ad7575085929150610a21565b80518592916000918311610b5757610aef915061158b565b915b835115610b0057835160208501fd5b517f21c09d340000000000000000000000000000000000000000000000000000000081527fffffffff0000000000000000000000000000000000000000000000000000000090921690820190815281906020010390fd5b5091610af1565b825163ea8e4eb560e01b8152fd5b600554163314905038610a10565b508251634ee2123760e11b8152fd5b50825163e6c4247b60e01b8152fd5b34610104576020366003190112610104576020610bbf600435610bba81610109565b611374565b6040519015158152f35b3461010457602036600319011261010457600435610be56112ef565b15610ce8576001600160a01b03600554163303610cd75760009060046020610c1761022b85546001600160a01b031690565b604051928380927f46f991ac0000000000000000000000000000000000000000000000000000000082525afa801561072d5783808481949382948391610cb9575b505af1610c636113fe565b50156101d1577fcdcc745fe377b103b45fa0cec23ae3ef93d6fc6a84a01f0d18c40b354dd1d5d8610cb3610ca261022b600b546001600160a01b031690565b604051938452929081906020820190565b0390a280f35b610cd1915060203d8111610726576107178183610f51565b38610c58565b600460405163ea8e4eb560e01b8152fd5b6004604051634ee2123760e11b8152fd5b3461010457602036600319011261010457600435610d1681610109565b803b6000610d23826112bb565b92610d316040519485610f51565b82845260208401903c602d815110610d5557602a602091015160601c604051908152f35b60046040517fbaf3f0f7000000000000000000000000000000000000000000000000000000008152fd5b3461010457602080600319360112610104576101cd9060043590610da282610109565b610e066001600160a01b0392836006541693604051911683820152828152610dc981610ef8565b604051610dd581610ef8565b601881527f697364656c656761746f724e6f646528616464726573732900000000000000008482015260009461149f565b919080610e40575b610e27575b505060405190151581529081906020820190565b610e39925080825183010191016112d7565b3880610e13565b5080825114610e0e565b34610104576000366003190112610104576020610bbf6112ef565b346101045760003660031901126101045760206109b86001600160a01b0360035416604051610e9381610ef8565b600681527f694167652829000000000000000000000000000000000000000000000000000084820152604051916109af83610f19565b7f4e487b7100000000000000000000000000000000000000000000000000000000600052604160045260246000fd5b6040810190811067ffffffffffffffff821117610f1457604052565b610ec9565b6020810190811067ffffffffffffffff821117610f1457604052565b6080810190811067ffffffffffffffff821117610f1457604052565b90601f8019910116810190811067ffffffffffffffff821117610f1457604052565b908160209103126101045751610f8881610109565b90565b6040513d6000823e3d90fd5b604051906101e0820182811067ffffffffffffffff821117610f1457604052565b61129d6101c06112b992610ff2610fd682516001600160a01b031690565b6001600160a01b03166001600160a01b03196002541617600255565b61102561100960208301516001600160a01b031690565b6001600160a01b03166001600160a01b03196003541617600355565b61105861103c60408301516001600160a01b031690565b6001600160a01b03166001600160a01b03196004541617600455565b61108b61106f60608301516001600160a01b031690565b6001600160a01b03166001600160a01b03196005541617600555565b6110be6110a260808301516001600160a01b031690565b6001600160a01b03166001600160a01b03196006541617600655565b6110f16110d560a08301516001600160a01b031690565b6001600160a01b03166001600160a01b03196007541617600755565b61112461110860c08301516001600160a01b031690565b6001600160a01b03166001600160a01b03196008541617600855565b61115761113b60e08301516001600160a01b031690565b6001600160a01b03166001600160a01b03196009541617600955565b61118b61116f6101008301516001600160a01b031690565b6001600160a01b03166001600160a01b0319600a541617600a55565b6111bf6111a36101208301516001600160a01b031690565b6001600160a01b03166001600160a01b0319600b541617600b55565b6111f36111d76101408301516001600160a01b031690565b6001600160a01b03166001600160a01b0319600c541617600c55565b61122761120b6101608301516001600160a01b031690565b6001600160a01b03166001600160a01b0319600d541617600d55565b61125b61123f6101808301516001600160a01b031690565b6001600160a01b03166001600160a01b0319600e541617600e55565b61128f6112736101a08301516001600160a01b031690565b6001600160a01b03166001600160a01b0319600f541617600f55565b01516001600160a01b031690565b6001600160a01b03166001600160a01b03196010541617601055565b565b67ffffffffffffffff8111610f1457601f01601f191660200190565b90816020910312610104575180151581036101045790565b61134a6001600160a01b036002541660405161130a81610ef8565b600881527f697353616665282900000000000000000000000000000000000000000000000060208201526040519161134183610f19565b6000835261149f565b9080611369575b156101d15780602080610f88935183010191016112d7565b506020815114611351565b6113d76001600160a01b03806002541660405191602094168483015283825261139c82610ef8565b604051906113a982610ef8565b601582527f69735365637572654261736528616464726573732900000000000000000000008583015261149f565b90806113f4575b156101d15781610f8892825183010191016112d7565b50818151146113de565b3d15611429573d9061140f826112bb565b9161141d6040519384610f51565b82523d6000602084013e565b606090565b90801561149b576001600160a01b03821691821561148a57600080808481945af16114576113fe565b50156101d15760207fcec1f18c3ab8ddaaa107a1591e3c369667eec613626611a8deaedef43069fcdd91604051908152a2565b600460405163e6c4247b60e01b8152fd5b5050565b9190823b15611534577fffffffff00000000000000000000000000000000000000000000000000000000815160208093012016916040519180830193845281519160005b83811061152057505050918161151060248260009795968897018783820152036004810184520182610f51565b51915afa61151c6113fe565b9091565b8181018301518582016024015282016114e3565b50505060009060405161154681610f19565b6000815290565b929161155b9160009461149f565b9080611580575b6115695750565b909150602081805181010312610104576020015190565b506020815114611562565b90602082519201517fffffffff000000000000000000000000000000000000000000000000000000009081811693600481106115c657505050565b60040360031b82901b1616915056fea26469706673582212203c6f40043f1189ed7915e6c43f49718e7d6b92ecb2d236f7756514e7087c097e64736f6c63430008140033","linkReferences":{}},"methodIdentifiers":{"instance()":"022ec095","tVLFactory()":"9ba540fb","tVLMining()":"d795ff38","tVLReward()":"b85c9faf","tVLRoyality()":"9443767c","tVLTour()":"dabf429d","tVLValidator()":"a50c0bc0"},"id":80}