{"abi":[{"type":"constructor","inputs":[{"name":"_hex","type":"address","internalType":"address"}],"stateMutability":"nonpayable"},{"type":"function","name":"invalidator","inputs":[],"outputs":[{"name":"","type":"address","internalType":"address"}],"stateMutability":"view"},{"type":"function","name":"rule741","inputs":[],"outputs":[{"name":"","type":"address","internalType":"address"}],"stateMutability":"view"},{"type":"function","name":"transferRequest","inputs":[],"outputs":[{"name":"","type":"address","internalType":"address"}],"stateMutability":"view"}],"bytecode":{"object":"0x6080346200018657601f62009e4a38819003918201601f19168301926001600160401b0392909183851183861017620001705781602092849260409788528339810103126200018657516001600160a01b03908181169081900362000186578351906149c2918281019281841086851117620001705762005488823981835260208160009403019083f0938415620001665782549484166001600160a01b03199586161783558551612c4080820190828210848311176200015257602091839162000298833985815203019084f08015620001485784168560015416176001558551916125b08084019284841090841117620001345791839160209362002ed88439815203019082f0908115620001295750169060025416176002555161010c90816200018c8239f35b8451903d90823e3d90fd5b634e487b7160e01b85526041600452602485fd5b86513d85823e3d90fd5b634e487b7160e01b86526041600452602486fd5b85513d84823e3d90fd5b634e487b7160e01b600052604160045260246000fd5b600080fdfe6080806040526004361015601257600080fd5b600090813560e01c9081630a5b38ab1460a4575080633da8676f146072576352b06d6414603e57600080fd5b34606f5780600319360112606f57602073ffffffffffffffffffffffffffffffffffffffff60025416604051908152f35b80fd5b5034606f5780600319360112606f57602073ffffffffffffffffffffffffffffffffffffffff60015416604051908152f35b90503460d2578160031936011260d25773ffffffffffffffffffffffffffffffffffffffff60209254168152f35b5080fdfea2646970667358221220e0ef4e95217a3faf530a4e370395d8602caf5e88424651bddb34560d05989a9b64736f6c634300081400336080346200009e57601f62002c4038819003918201601f19168301916001600160401b03831184841017620000a3578084926020946040528339810103126200009e57516001600160a01b038116908190036200009e5780156200008c5760018060a01b03193381600154161760015560005416176000556001601155604051612b869081620000ba8239f35b60405163e6c4247b60e01b8152600490fd5b600080fd5b634e487b7160e01b600052604160045260246000fdfe60806040526004361015610018575b361561001657005b005b60003560e01c806312065fe0146101b857806318c864e3146101b35780631f185d16146101ae578063339459a6146101a95780633676bd1f146101a45780633b9b79551461019f578063479fa2c31461019a5780634ef260a9146101955780638da5cb5b146101905780639932f81e1461018b5780639fb3953b14610186578063a1f7f53914610181578063ab7e46ae1461017c578063ac23334514610177578063af48452614610172578063b8f1759a1461016d578063b90306ad14610168578063c1e6cec214610163578063c54e44b01461015e578063cab3cc8d14610159578063e01ad5fd14610154578063e0a9bc2b1461014f578063e846034a1461014a578063e981bcad14610145578063f245fe7a146101405763fdc10bc90361000e57611a52565b6114f7565b611458565b61143a565b6113a1565b6112d6565b6112b8565b611232565b6111f4565b6110c9565b61106f565b61103e565b611006565b610fac565b610f00565b610d80565b610b6d565b610b46565b610a84565b61099b565b610974565b610949565b610396565b6102af565b61022e565b346101d45760003660031901126101d457602047604051908152f35b600080fd5b634e487b7160e01b600052603260045260246000fd5b60135481101561022957601360005260021b7f66de8ffda797e3de9c05e8fc57b3bf0ec28a930d40b0d285d93c06501cf6a0900190600090565b6101d9565b346101d45760203660031901126101d4576004356013548110156101d457610255906101ef565b50805460018201546002830154600390930154604080516001600160a01b0394851681529390921660208401529082019290925260ff90911615156060820152608090f35b0390f35b6001600160a01b038116036101d457565b346101d4576020806003193601126101d45761032e6004356102d08161029e565b6001600160a01b038060025416906040519216848301528382526102f382611b1f565b6040519061030082611b1f565b601182527f69735369676e657228616464726573732900000000000000000000000000000085830152612933565b91908061038c575b156103625781816103509261029a9451830101910161283a565b60405190151581529081906020820190565b60046040517f3204506f000000000000000000000000000000000000000000000000000000008152fd5b5080825114610336565b346101d45760003660031901126101d4576103c86103bc6000546001600160a01b031690565b6001600160a01b031690565b604051907f97f3815a000000000000000000000000000000000000000000000000000000008252602082600481845afa91821561077957600092610928575b506040519163cfbffe5360e01b8352602083600481855afa92831561077957600093610907575b506040519063ab6e844f60e01b8252602082600481865afa918215610779576000926108e6575b5060405191630536340960e21b8352602083600481875afa928315610779576000936108c5575b50604051927fd1f956b1000000000000000000000000000000000000000000000000000000008452602084600481885afa938415610779576000946108a4575b5060405193631cc3bfab60e31b8552602085600481895afa94851561077957600095610883575b5060405163e09d394d60e01b81526020816004818a5afa90811561077957600091610864575b506040516314ac1b5960e21b81526020816004818b5afa90811561077957600091610845575b5060405163013cf08b60e01b815260006004820152916020836024818c5afa92831561077957600093610824575b5060405197635e09dbe760e01b89526020896004818d5afa94851561077957600499600096610803575b5060208b6040519b8c8092635506ee0b60e11b82525afa9687156107795760049a6000986107e2575b5060208c6040519c8d8092636402742760e01b82525afa9889156107795760049b60009a6107c1575b5060208d6040519d8e80926330125cf560e01b82525afa9a8b15610779578d60049d60009d61079f575b506020906040519e8f80926324768d9160e01b82525afa9c8d156107795760009d61077e575b50604051809e81906313b92d3560e31b82525a92600491602094fa9d8e156107795760009e610748575b5061065c611b79565b6001600160a01b0390911681529d8e906001600160a01b031660208201526040019061069091906001600160a01b03169052565b6001600160a01b031660608d01526001600160a01b031660808c01526001600160a01b031660a08b01526001600160a01b031660c08a01526001600160a01b031660e08901526001600160a01b03166101008801526001600160a01b03166101208701526001600160a01b03166101408601526001600160a01b03166101608501526001600160a01b03166101808401526001600160a01b03166101a08301526001600160a01b03166101c082015261001690612537565b61076b919e5060203d602011610772575b6107638183611b57565b810190611bce565b9c38610653565b503d610759565b611be6565b610798919d5060203d602011610772576107638183611b57565b9b38610629565b6020919d506107ba90823d8411610772576107638183611b57565b9c90610603565b6107db919a5060203d602011610772576107638183611b57565b98386105d9565b6107fc91985060203d602011610772576107638183611b57565b96386105b0565b61081d91965060203d602011610772576107638183611b57565b9438610587565b61083e91935060203d602011610772576107638183611b57565b913861055d565b61085e915060203d602011610772576107638183611b57565b3861052f565b61087d915060203d602011610772576107638183611b57565b38610509565b61089d91955060203d602011610772576107638183611b57565b93386104e3565b6108be91945060203d602011610772576107638183611b57565b92386104bc565b6108df91935060203d602011610772576107638183611b57565b913861047c565b61090091925060203d602011610772576107638183611b57565b9038610455565b61092191935060203d602011610772576107638183611b57565b913861042e565b61094291925060203d602011610772576107638183611b57565b9038610407565b346101d45760203660031901126101d457610962612435565b61096d600435612134565b6001601155005b346101d45760003660031901126101d45760206001600160a01b0360005416604051908152f35b346101d45760203660031901126101d45760043580151580610a78575b15610a34576109c96109ce91611ce7565b6101ef565b5080546001600160a01b031661029a6109f160018401546001600160a01b031690565b92610a056003600283015492015460ff1690565b604080516001600160a01b03958616815295909416602086015292840152901515606083015281906080820190565b606460405162461bcd60e51b815260206004820152601760248201527f70726f706f7365722e696e76616c69642e666f726d69640000000000000000006044820152fd5b506013548111156109b8565b346101d45760203660031901126101d457600435610aa18161029e565b6001600160a01b03809116906000918083526012602052604083205480151580610b3a575b610ace578380f35b6000198101908111610b3557610ae3906101ef565b5050808352601260205282604081205560145468010000000000000000811015610b3057806001610b179201601455610f75565b909283549160031b92831b921b19161790553880808380f35b611ab6565b611cd1565b50601354811115610ac6565b346101d45760003660031901126101d45760206001600160a01b0360015416604051908152f35b346101d45760603660031901126101d457600435610b8a8161029e565b602435610b968161029e565b6001600160a01b039182811615610d5657600092821683526020601281526040842054610d1257600490610be9610bcb611acc565b509384906001600160a01b03166001600160a01b0319825416179055565b610c0d600184019485906001600160a01b03166001600160a01b0319825416179055565b610c15611bb6565b9080610c2b6103bc88546001600160a01b031690565b60405194858092630536340960e21b82525afa91821561077957610c98610cb893610cab926002968a92610cef575b50610ca6906040519384917fffa734f00000000000000000000000000000000000000000000000000000000088840152604435903060248501611c15565b03601f198101845283611b57565b612a9d565b8051810182019101611cc2565b910155610ceb610cd260135492546001600160a01b031690565b6001600160a01b03166000526012602052604060002090565b5580f35b610ca6919250610d0b90863d8811610772576107638183611b57565b9190610c5a565b6064906040519062461bcd60e51b82526004820152601260248201527f70726f706f7365722e746f2e65786973747300000000000000000000000000006044820152fd5b60046040517fe6c4247b000000000000000000000000000000000000000000000000000000008152fd5b60803660031901126101d457600435610d988161029e565b610da0612435565b6004546001600160a01b031660046020610dc56103bc6000546001600160a01b031690565b604051928380927fde433f170000000000000000000000000000000000000000000000000000000082525afa90811561077957610e4891610e2691600091610ee2575b50604080516001600160a01b03909216602083015290918291820190565b0392610e3a601f1994858101845283611b57565b610e426124fe565b906129c6565b6001600160a01b038116610e61575b6100166001601155565b610ca6610ecd92610ed9946040519485917fc107930a00000000000000000000000000000000000000000000000000000000602084015260643590604435906024359060248601909493926060926001600160a01b036080840197168352602083015260408201520152565b03908101845283611b57565b50388080610e57565b610efa915060203d8111610772576107638183611b57565b38610e08565b346101d45760003660031901126101d4576020610f6d6001600160a01b0360065416604051610f2e81611b1f565b601381527f67657464656c656761746f72436f756e742829000000000000000000000000008482015260405191610f6483611b3b565b60008352612a17565b604051908152f35b6014548110156102295760146000527fce6d7b5282bd9a3661ae061feed1dbda4e52ab073b1f9285be6e155d9c38d4ec0190600090565b346101d45760203660031901126101d4576004356014548110156101d4576001600160a01b0360209160146000527fce6d7b5282bd9a3661ae061feed1dbda4e52ab073b1f9285be6e155d9c38d4ec015416604051908152f35b346101d45760203660031901126101d457602061102d6004356110288161029e565b611d5d565b6001600160a01b0360405191168152f35b346101d45760203660031901126101d45760206110656004356110608161029e565b61284e565b6040519015158152f35b346101d45760203660031901126101d457600435601454811015610229576001600160a01b0360209160146000527fce6d7b5282bd9a3661ae061feed1dbda4e52ab073b1f9285be6e155d9c38d4ec015416604051908152f35b346101d45760203660031901126101d4576004356001600160a01b036005541633036111ca576000906004602061110a6103bc85546001600160a01b031690565b604051928380927f46f991ac0000000000000000000000000000000000000000000000000000000082525afa801561077957838084819493829483916111ac575b505af16111566128d8565b5015610362577fcdcc745fe377b103b45fa0cec23ae3ef93d6fc6a84a01f0d18c40b354dd1d5d86111a66111956103bc600b546001600160a01b031690565b604051938452929081906020820190565b0390a280f35b6111c4915060203d8111610772576107638183611b57565b3861114b565b60046040517fea8e4eb5000000000000000000000000000000000000000000000000000000008152fd5b346101d45760203660031901126101d4576001600160a01b036004356112198161029e565b1660005260126020526020604060002054604051908152f35b346101d45760203660031901126101d45760043561124f8161029e565b803b600061125c82611b9a565b9261126a6040519485611b57565b82845260208401903c602d81511061128e57602a602091015160601c604051908152f35b60046040517fbaf3f0f7000000000000000000000000000000000000000000000000000000008152fd5b346101d45760003660031901126101d4576020601354604051908152f35b346101d4576020806003193601126101d45761029a90600435906112f98261029e565b61135d6001600160a01b039283600654169360405191168382015282815261132081611b1f565b60405161132c81611b1f565b601881527f697364656c656761746f724e6f6465286164647265737329000000000000000084820152600094612933565b919080611397575b61137e575b505060405190151581529081906020820190565b6113909250808251830101910161283a565b388061136a565b5080825114611365565b346101d45760003660031901126101d45761140d6001600160a01b03600254166040516113cd81611b1f565b600881527f697353616665282900000000000000000000000000000000000000000000000060208201526040519161140483611b3b565b60008352612933565b908061142f575b15610362576103508160208061029a9451830101910161283a565b506020815114611414565b346101d45760003660031901126101d4576020601454604051908152f35b346101d45760403660031901126101d457611471612435565b61148261147d3061284e565b611ed4565b6001600160a01b03600454166040517f33b59a5b0000000000000000000000000000000000000000000000000000000060208201526004356024820152602435604482015260448152608081019181831067ffffffffffffffff841117610b30576114ef92604052612a9d565b506001601155005b346101d457600080600319360112611a4f57611511612435565b6115256103bc82546001600160a01b031690565b60409081519182809263ab6e844f60e01b8252602093849160049687915afa908115610779578591611a32575b5061158b82517f339459a600000000000000000000000000000000000000000000000000000000928386830152868252610ca682611b1f565b5083836115a26103bc88546001600160a01b031690565b84519283809263cfbffe5360e01b82525afa8015610779576115da918791611a15575b508351908386830152868252610ca682611b1f565b5083836115f16103bc88546001600160a01b031690565b845192838092630536340960e21b82525afa801561077957611628918791611a1557508351908386830152868252610ca682611b1f565b50838361163f6103bc88546001600160a01b031690565b845192838092631cc3bfab60e31b82525afa801561077957611676918791611a1557508351908386830152868252610ca682611b1f565b50838361168d6103bc88546001600160a01b031690565b84519283809263e09d394d60e01b82525afa8015610779576116c4918791611a1557508351908386830152868252610ca682611b1f565b5083836116db6103bc88546001600160a01b031690565b8451928380926314ac1b5960e21b82525afa801561077957611712918791611a1557508351908386830152868252610ca682611b1f565b506117276103bc86546001600160a01b031690565b838351809263013cf08b60e01b825281806117498a8201906000602083019252565b03915afa801561077957611772918791611a1557508351908386830152868252610ca682611b1f565b506117876103bc86546001600160a01b031690565b9083835180937fb771c89600000000000000000000000000000000000000000000000000000000825281806117c38a8201906000602083019252565b03915afa9182156107795785926117f09188916119f8575b508451908387830152848252610ca682611b1f565b50836118066103bc88546001600160a01b031690565b845193848092635e09dbe760e01b82525afa9182156107795785926118409188916119f857508451908387830152848252610ca682611b1f565b50836118566103bc88546001600160a01b031690565b845193848092635506ee0b60e11b82525afa9182156107795785926118909188916119f857508451908387830152848252610ca682611b1f565b50836118a66103bc88546001600160a01b031690565b845193848092636402742760e01b82525afa9182156107795785926118e09188916119f857508451908387830152848252610ca682611b1f565b50836118f66103bc88546001600160a01b031690565b8451938480926330125cf560e01b82525afa9182156107795785926119309188916119f857508451908387830152848252610ca682611b1f565b50836119466103bc88546001600160a01b031690565b8451938480926324768d9160e01b82525afa9182156107795785926119809188916119f857508451908387830152848252610ca682611b1f565b50836119966103bc88546001600160a01b031690565b8451968780926313b92d3560e31b82525afa928315610779576119cb9587946119d9575b5051938401528252610ca682611b1f565b506119d66001601155565b80f35b6119f1919450853d8711610772576107638183611b57565b92386119ba565b611a0f9150863d8811610772576107638183611b57565b386117db565b611a2c9150853d8711610772576107638183611b57565b386115c5565b611a499150833d8511610772576107638183611b57565b38611552565b80fd5b346101d45760003660031901126101d4576020610f6d6001600160a01b0360035416604051611a8081611b1f565b600681527f69416765282900000000000000000000000000000000000000000000000000008482015260405191610f6483611b3b565b634e487b7160e01b600052604160045260246000fd5b60135468010000000000000000811015610b3057600181018060135581101561022957601360005260021b7f66de8ffda797e3de9c05e8fc57b3bf0ec28a930d40b0d285d93c06501cf6a0900190600090565b6040810190811067ffffffffffffffff821117610b3057604052565b6020810190811067ffffffffffffffff821117610b3057604052565b90601f8019910116810190811067ffffffffffffffff821117610b3057604052565b604051906101e0820182811067ffffffffffffffff821117610b3057604052565b67ffffffffffffffff8111610b3057601f01601f191660200190565b604051611bc281611b3b565b60008152906000368137565b908160209103126101d45751611be38161029e565b90565b6040513d6000823e3d90fd5b60005b838110611c055750506000910152565b8181015183820152602001611bf5565b6000926001600160a01b0360a09396959660c08452602660c08501527f547269676765722e496e7374616e63652e70726f706f73616c2e55736572547260e08501527f616e73666572000000000000000000000000000000000000000000000000000061010085015216602083015283604083015261012080606084015281518091840152611cae816101409360208587019101611bf2565b601f80199101168201019460808201520152565b908160209103126101d4575190565b634e487b7160e01b600052601160045260246000fd5b600019810191908211610b3557565b60405190611d0382611b1f565b601282527f6765745374617475732875696e743235362900000000000000000000000000006020830152565b519081151582036101d457565b91908260409103126101d457611be36020611d5684611d2f565b9301611d2f565b611d7a906001600160a01b03166000526012602052604060002090565b5480151580611e7d575b15611e77576109c9611d9591611ce7565b50600381015460ff16611e6a57611db76103bc6000546001600160a01b031690565b6040518091630536340960e21b825281600460209384935afa801561077957610c98611e1391611e2094600091611e4d575b50611e0560028701546040519384918783019190602083019252565b611e0d611cf6565b90612908565b8051810182019101611d3c565b81929192611e45575b5060009115611e4157546001600160a01b0316905090565b5090565b915038611e29565b611e649150843d8611610772576107638183611b57565b38611de9565b546001600160a01b031690565b50600090565b50601354811115611d84565b15611e9057565b606460405162461bcd60e51b815260206004820152601c60248201527f7574696c6974792e62617463682e6c696d69742e6578636565646564000000006044820152fd5b15611edb57565b606460405162461bcd60e51b815260206004820152601760248201527f7574696c6974792e756e7365637572652e6661696c65640000000000000000006044820152fd5b60405190611f2c82611b1f565b600f82527f6765744e6f646573436f756e74282900000000000000000000000000000000006020830152565b15611f5f57565b606460405162461bcd60e51b815260206004820152601360248201527f7574696c6974792e696d706f72742e646f6e65000000000000000000000000006044820152fd5b91908201809211610b3557565b6000198114610b355760010190565b60405190611fcc82611b1f565b601782527f6765744e6f64654279496e6465782875696e74323536290000000000000000006020830152565b15611fff57565b606460405162461bcd60e51b815260206004820152601660248201527f70726f78792e696e76616c69642e696e7374616e6365000000000000000000006044820152fd5b6040519061205082611b1f565b601382527f496e7374546f55736572286164647265737329000000000000000000000000006020830152565b1561208357565b606460405162461bcd60e51b815260206004820152601260248201527f70726f78792e696e76616c69642e6e6f646500000000000000000000000000006044820152fd5b604051906120d482611b1f565b601082527f6765744e6f6465286164647265737329000000000000000000000000000000006020830152565b908160a09103126101d457805191602082015161211c8161029e565b91604081015191611be36080611d5660608501611d2f565b6121416064821115611e89565b61214d61147d3061284e565b6121626103bc6000546001600160a01b031690565b906040918251809381927f447aa304000000000000000000000000000000000000000000000000000000008352602093849160049485915afa94851561077957600095612416575b506121c46121b6611bb6565b6121be611f1f565b87612a17565b93841561240e5761220b6121f96121e285546001600160a01b031690565b6121ea611bb6565b906121f3611f1f565b90612a17565b91612205838811611f58565b82611fa3565b94808611612406575b505b84811061222557505050505050565b6123b3906123ad7f50db85d100000000000000000000000000000000000000000000000000000000845161228681612264868b83019190602083019252565b0391612278601f1993848101835282611b57565b612280611fbf565b8c6129c6565b906001600160a01b039061229d8284161515611ff8565b898c89600161234261233461231a6123266122ef6122d56122e18d89519283918d83019190916001600160a01b036020820193169052565b038c8101835282611b57565b6122e9612043565b896129c6565b9a6122fd8b8d16151561207c565b86519283918a83019190916001600160a01b036020820193169052565b03898101835282611b57565b61232e6120c7565b86612908565b858082518301019101612100565b505050969096169561235581151561207c565b1480156123fd575b6123b8575b5050610ecd8461237681610ca69697612470565b8b546001600160a01b0316958b51978894850152602484019060209093929360408301946001600160a01b03809216845216910152565b50611fb0565b612216565b516001600160a01b03909416828501908152610ca694610ecd926123f3926123eb90839060200103878101845283611b57565b610e42612043565b9350508c89612362565b5084151561235d565b945038612214565b505050505050565b61242e919550833d8511610772576107638183611b57565b93386121aa565b600260115414612446576002601155565b60046040517f3ee5aeb5000000000000000000000000000000000000000000000000000000008152fd5b6013549068010000000000000000821015610b30576124b861249a836001600395016013556101ef565b509182906001600160a01b03166001600160a01b0319825416179055565b6001810180546001600160a01b0319166001600160a01b03851617905501600160ff198254161790556001600160a01b0360135491166000526012602052604060002055565b6040519061250b82611b1f565b601682527f67657455736572546f496e7374286164647265737329000000000000000000006020830152565b61281c6101c06128389261257161255582516001600160a01b031690565b6001600160a01b03166001600160a01b03196002541617600255565b6125a461258860208301516001600160a01b031690565b6001600160a01b03166001600160a01b03196003541617600355565b6125d76125bb60408301516001600160a01b031690565b6001600160a01b03166001600160a01b03196004541617600455565b61260a6125ee60608301516001600160a01b031690565b6001600160a01b03166001600160a01b03196005541617600555565b61263d61262160808301516001600160a01b031690565b6001600160a01b03166001600160a01b03196006541617600655565b61267061265460a08301516001600160a01b031690565b6001600160a01b03166001600160a01b03196007541617600755565b6126a361268760c08301516001600160a01b031690565b6001600160a01b03166001600160a01b03196008541617600855565b6126d66126ba60e08301516001600160a01b031690565b6001600160a01b03166001600160a01b03196009541617600955565b61270a6126ee6101008301516001600160a01b031690565b6001600160a01b03166001600160a01b0319600a541617600a55565b61273e6127226101208301516001600160a01b031690565b6001600160a01b03166001600160a01b0319600b541617600b55565b6127726127566101408301516001600160a01b031690565b6001600160a01b03166001600160a01b0319600c541617600c55565b6127a661278a6101608301516001600160a01b031690565b6001600160a01b03166001600160a01b0319600d541617600d55565b6127da6127be6101808301516001600160a01b031690565b6001600160a01b03166001600160a01b0319600e541617600e55565b61280e6127f26101a08301516001600160a01b031690565b6001600160a01b03166001600160a01b0319600f541617600f55565b01516001600160a01b031690565b6001600160a01b03166001600160a01b03196010541617601055565b565b908160209103126101d457611be390611d2f565b6128b16001600160a01b03806002541660405191602094168483015283825261287682611b1f565b6040519061288382611b1f565b601582527f697353656375726542617365286164647265737329000000000000000000000085830152612933565b90806128ce575b156103625781611be3928251830101910161283a565b50818151146128b8565b3d15612903573d906128e982611b9a565b916128f76040519384611b57565b82523d6000602084013e565b606090565b906129139291612933565b9060009015612920575090565b604051915061292e82611b3b565b815290565b803b156129ad576000927fffffffff00000000000000000000000000000000000000000000000000000000836020869551910120169061299d602460405180936020820195865261298d8151809260208686019101611bf2565b8101036004810184520182611b57565b51915afa6129a96128d8565b9091565b5050506000906040516129bf81611b3b565b6000815290565b92916129d491600094612933565b9080612a0c575b6129e25750565b9091506020818051810103126101d45760206001600160a01b03910151612a088161029e565b1690565b5060208151146129db565b9291612a2591600094612933565b9080612a48575b612a335750565b611be391925060208082518301019101611cc2565b506020815114612a2c565b90602082519201517fffffffff00000000000000000000000000000000000000000000000000000000908181169360048110612a8e57505050565b60040360031b82901b16169150565b6001600160a01b03811615610d5657600080918351908260208601915af190612ac46128d8565b9115612ace575090565b805160009190600411612b4a57612ae59150612a53565b815115612af55750805190602001fd5b6040517f21c09d340000000000000000000000000000000000000000000000000000000081527fffffffff00000000000000000000000000000000000000000000000000000000919091166004820152602490fd5b50612ae556fea26469706673582212201ccf96ef92280a6aa1859516f7eb2f2701746da82a8d821af7282fdf158a723f64736f6c6343000814003360803461009957601f620025b038819003918201601f19168301916001600160401b0383118484101761009e5780849260209460405283398101031261009957516001600160a01b038116908190036100995780156100875760018060a01b031933816001541617600155600054161760005560016011556040516124fb9081620000b58239f35b60405163e6c4247b60e01b8152600490fd5b600080fd5b634e487b7160e01b600052604160045260246000fdfe60806040526004361015610018575b361561001657005b005b60003560e01c80631133b8861461017857806312065fe0146101735780631f185d161461016e578063339459a6146101695780633b9b7955146101645780636ec35cd51461015f5780638da5cb5b1461015a5780638dab13dc146101555780639498d88b146101505780639b03bea61461014b5780639fb2726b14610146578063a1f7f53914610141578063ae9568d71461013c578063af48452614610137578063b90306ad14610132578063c54e44b01461012d578063d7a83fc614610128578063e01ad5fd14610123578063e0a9bc2b1461011e578063e3d1d5bf14610119578063f5caf38c146101145763fdc10bc90361000e57611821565b6117e3565b611578565b61155d565b611492565b611452565b6113cc565b6112ba565b611289565b61123f565b6111ca565b610feb565b610fa3565b610cac565b610c09565b610be2565b610a61565b610a09565b610311565b610226565b61020a565b6101bb565b6001600160a01b0381160361018e57565b600080fd5b604090600319011261018e576004356101ab8161017d565b906024356101b88161017d565b90565b3461018e57602060ff6101fe6001600160a01b036101d836610193565b9116600052601284526040600020906001600160a01b0316600052602052604060002090565b54166040519015158152f35b3461018e57600036600319011261018e57602047604051908152f35b3461018e5760208060031936011261018e576102a56004356102478161017d565b6001600160a01b0380600254169060405192168483015283825261026a8261189b565b604051906102778261189b565b601182527f69735369676e6572286164647265737329000000000000000000000000000000858301526123db565b919080610307575b156102dd5781816102c7926102d99451830101910161225c565b60405190151581529081906020820190565b0390f35b60046040517f3204506f000000000000000000000000000000000000000000000000000000008152fd5b50808251146102ad565b3461018e57600036600319011261018e576103436103376000546001600160a01b031690565b6001600160a01b031690565b604051907f97f3815a000000000000000000000000000000000000000000000000000000008252602082600481845afa918215610839576000926109e8575b50604051917fcfbffe53000000000000000000000000000000000000000000000000000000008352602083600481855afa928315610839576000936109c7575b50604051907fab6e844f000000000000000000000000000000000000000000000000000000008252602082600481865afa918215610839576000926109a6575b50604051917f14d8d024000000000000000000000000000000000000000000000000000000008352602083600481875afa92831561083957600093610985575b50604051927fd1f956b1000000000000000000000000000000000000000000000000000000008452602084600481885afa93841561083957600094610964575b50604051937fe61dfd58000000000000000000000000000000000000000000000000000000008552602085600481895afa94851561083957600095610943575b506040517fe09d394d0000000000000000000000000000000000000000000000000000000081526020816004818a5afa90811561083957600091610924575b506040517f52b06d640000000000000000000000000000000000000000000000000000000081526020816004818b5afa90811561083957600091610905575b506040517f013cf08b00000000000000000000000000000000000000000000000000000000815260006004820152916020836024818c5afa928315610839576000936108e4575b50604051977f5e09dbe70000000000000000000000000000000000000000000000000000000089526020896004818d5afa948515610839576004996000966108c3575b5060208b6040519b8c80927faa0ddc160000000000000000000000000000000000000000000000000000000082525afa9687156108395760049a6000986108a2575b5060208c6040519c8d80927f640274270000000000000000000000000000000000000000000000000000000082525afa9889156108395760049b60009a610881575b5060208d6040519d8e80927f30125cf50000000000000000000000000000000000000000000000000000000082525afa9a8b15610839578d60049d60009d61085f575b506020906040519e8f80927f24768d910000000000000000000000000000000000000000000000000000000082525afa9c8d156108395760009d61083e575b50604051809e81907f9dc969a80000000000000000000000000000000000000000000000000000000082525a92600491602094fa9d8e156108395760009e610808575b5061071c6118fa565b6001600160a01b0390911681529d8e906001600160a01b031660208201526040019061075091906001600160a01b03169052565b6001600160a01b031660608d01526001600160a01b031660808c01526001600160a01b031660a08b01526001600160a01b031660c08a01526001600160a01b031660e08901526001600160a01b03166101008801526001600160a01b03166101208701526001600160a01b03166101408601526001600160a01b03166101608501526001600160a01b03166101808401526001600160a01b03166101a08301526001600160a01b03166101c082015261001690611f59565b61082b919e5060203d602011610832575b61082381836118d8565b810190611970565b9c38610713565b503d610819565b611e71565b610858919d5060203d6020116108325761082381836118d8565b9b386106d0565b6020919d5061087a90823d84116108325761082381836118d8565b9c90610691565b61089b919a5060203d6020116108325761082381836118d8565b983861064e565b6108bc91985060203d6020116108325761082381836118d8565b963861060c565b6108dd91965060203d6020116108325761082381836118d8565b94386105ca565b6108fe91935060203d6020116108325761082381836118d8565b9138610587565b61091e915060203d6020116108325761082381836118d8565b38610540565b61093d915060203d6020116108325761082381836118d8565b38610501565b61095d91955060203d6020116108325761082381836118d8565b93386104c2565b61097e91945060203d6020116108325761082381836118d8565b9238610482565b61099f91935060203d6020116108325761082381836118d8565b9138610442565b6109c091925060203d6020116108325761082381836118d8565b9038610402565b6109e191935060203d6020116108325761082381836118d8565b91386103c2565b610a0291925060203d6020116108325761082381836118d8565b9038610382565b3461018e57600036600319011261018e5760206001600160a01b0360005416604051908152f35b9181601f8401121561018e5782359167ffffffffffffffff831161018e576020808501948460051b01011161018e57565b3461018e57606036600319011261018e5767ffffffffffffffff6004803582811161018e57610a939036908301610a30565b919060243584811161018e57610aac9036908401610a30565b909460443590811161018e57610ac59036908501610a30565b959093610ad0612271565b15610bd357610ade336122f6565b8015610bbf575b15610bb057868303610b88575060005b828110610afe57005b80610b82610b0f6001938a89611e41565b35610b1981610fe1565b6001600160a01b03610b2c848b8a611e41565b35610b368161017d565b166000526012602052610b716040600020610b5a610b55868a8a611e41565b611e67565b6001600160a01b0316600052602052604060002090565b9060ff801983541691151516179055565b01610af5565b6040517fff633a38000000000000000000000000000000000000000000000000000000008152fd5b60405163ea8e4eb560e01b8152fd5b50336001600160a01b036005541614610ae5565b604051634ee2123760e11b8152fd5b3461018e57600036600319011261018e5760206001600160a01b0360015416604051908152f35b3461018e57602036600319011261018e57600435610c268161017d565b6001600160a01b038091166000526015602052806040600020541690601660205260406000205416908060005260126020526102d960ff610c7e846040600020906001600160a01b0316600052602052604060002090565b54166040519384938491939260409160608401956001600160a01b0380921685521660208401521515910152565b3461018e5760208060031936011261018e57600490813590610ccd8261017d565b610cd5612271565b15610f9357610ce3336122f6565b8015610f7f575b15610f6f576001600160a01b039283831615610f6057610d156103376000546001600160a01b031690565b91604051927f6325dd04000000000000000000000000000000000000000000000000000000009182855280858581855afa928315610839578795600094610f3f575b508190610db0610da260405180610d808c8783019190916001600160a01b036020820193169052565b0397610d94601f19998a81018452836118d8565b610d9c611e7d565b906123b0565b838082518301019101611eed565b98919a909a169916956040518095819382525afa96871561083957610ee0610e6b96610e2c89610ec8956100169c610ef9998b99600092610f1e575b50610e1e9192610e1260405195869283019190916001600160a01b036020820193169052565b039081018452836118d8565b610e26611f20565b90612489565b610e498a6001600160a01b03166000526017602052604060002090565b55610e8683610e6b8b6001600160a01b03166000526015602052604060002090565b906001600160a01b03166001600160a01b0319825416179055565b610ea785610e6b8b6001600160a01b03166000526016602052604060002090565b610b7185610ec8856001600160a01b03166000526012602052604060002090565b906001600160a01b0316600052602052604060002090565b6001600160a01b03166000526013602052604060002090565b610f038154611a1c565b90556001600160a01b03166000526014602052604060002090565b610e1e9250610f3990843d86116108325761082381836118d8565b91610dec565b82919450610f5990823d84116108325761082381836118d8565b9390610d57565b60405163d92e233d60e01b8152fd5b8260405163ea8e4eb560e01b8152fd5b50336001600160a01b036005541614610cea565b82604051634ee2123760e11b8152fd5b3461018e57602036600319011261018e576001600160a01b03600435610fc88161017d565b1660005260176020526020604060002054604051908152f35b8015150361018e57565b3461018e57608036600319011261018e57600467ffffffffffffffff813581811161018e5761101d9036908401610a30565b9160243590811161018e576110359036908501610a30565b604435939161104385610fe1565b60643561104e612271565b156111ba5761105c336122f6565b80156111a6575b156111965782840361116d5760005b84811061107b57005b861561113b57816110ac611093610b5584898b611e41565b6001600160a01b03166000526018602052604060002090565b54036110db57876040517fe3913549000000000000000000000000000000000000000000000000000000008152fd5b80826110f0611093610b556001958a8c611e41565b556110fc818686611e41565b3561113261112a611111610b55858b8d611e41565b6001600160a01b03166000526017602052604060002090565b918254611a2a565b90555b01611072565b806111496001928686611e41565b3561116661115e611111610b55858b8d611e41565b9182546119af565b9055611135565b866040517fff633a38000000000000000000000000000000000000000000000000000000008152fd5b8660405163ea8e4eb560e01b8152fd5b50336001600160a01b036005541614611063565b86604051634ee2123760e11b8152fd5b3461018e57600036600319011261018e5760206112376001600160a01b03600654166040516111f88161189b565b601381527f67657464656c656761746f72436f756e74282900000000000000000000000000848201526040519161122e836118bc565b60008352612489565b604051908152f35b3461018e5760206112806001600160a01b0361125a36610193565b9116600052601383526040600020906001600160a01b0316600052602052604060002090565b54604051908152f35b3461018e57602036600319011261018e5760206112b06004356112ab8161017d565b6122f6565b6040519015158152f35b3461018e57602036600319011261018e576004356001600160a01b036005541633036113bb57600090600460206112fb61033785546001600160a01b031690565b604051928380927f46f991ac0000000000000000000000000000000000000000000000000000000082525afa8015610839578380848194938294839161139d575b505af1611347612380565b50156102dd577fcdcc745fe377b103b45fa0cec23ae3ef93d6fc6a84a01f0d18c40b354dd1d5d8611397611386610337600b546001600160a01b031690565b604051938452929081906020820190565b0390a280f35b6113b5915060203d81116108325761082381836118d8565b3861133c565b600460405163ea8e4eb560e01b8152fd5b3461018e57602036600319011261018e576004356113e98161017d565b803b60006113f68261191b565b9261140460405194856118d8565b82845260208401903c602d81511061142857602a602091015160601c604051908152f35b60046040517fbaf3f0f7000000000000000000000000000000000000000000000000000000008152fd5b3461018e57602036600319011261018e5760206004356114718161017d565b6001600160a01b038091166000526014825260406000205416604051908152f35b3461018e5760208060031936011261018e576102d990600435906114b58261017d565b6115196001600160a01b03928360065416936040519116838201528281526114dc8161189b565b6040516114e88161189b565b601881527f697364656c656761746f724e6f64652861646472657373290000000000000000848201526000946123db565b919080611553575b61153a575b505060405190151581529081906020820190565b61154c9250808251830101910161225c565b3880611526565b5080825114611521565b3461018e57600036600319011261018e5760206112b0612271565b3461018e5761158636610193565b61158e612271565b156117d25761159c336122f6565b80156117be575b156113bb576001600160a01b038083169081156117ad57821680156117ad57036115c957005b816117aa916115ed6000946001600160a01b03166000526017602052604060002090565b5461160b826001600160a01b03166000526017602052604060002090565b5561165961163c61162f846001600160a01b03166000526015602052604060002090565b546001600160a01b031690565b610e6b836001600160a01b03166000526015602052604060002090565b61169961167c61162f846001600160a01b03166000526016602052604060002090565b610e6b836001600160a01b03166000526016602052604060002090565b6116d981610e6b6116c061162f836001600160a01b03166000526016602052604060002090565b6001600160a01b03166000526014602052604060002090565b6117146116f9836001600160a01b03166000526018602052604060002090565b54916001600160a01b03166000526018602052604060002090565b5582611733826001600160a01b03166000526017602052604060002090565b5561176a61175a6116c061162f846001600160a01b03166000526016602052604060002090565b6001600160a01b03198154169055565b61178a61175a826001600160a01b03166000526015602052604060002090565b61109361175a826001600160a01b03166000526016602052604060002090565b55005b600460405163d92e233d60e01b8152fd5b50336001600160a01b0360055416146115a3565b6004604051634ee2123760e11b8152fd5b3461018e57606036600319011261018e576100166004356118038161017d565b60243561180f8161017d565b6044359161181c83610fe1565b611a37565b3461018e57600036600319011261018e5760206112376001600160a01b036003541660405161184f8161189b565b600681527f6941676528290000000000000000000000000000000000000000000000000000848201526040519161122e836118bc565b634e487b7160e01b600052604160045260246000fd5b6040810190811067ffffffffffffffff8211176118b757604052565b611885565b6020810190811067ffffffffffffffff8211176118b757604052565b90601f8019910116810190811067ffffffffffffffff8211176118b757604052565b604051906101e0820182811067ffffffffffffffff8211176118b757604052565b67ffffffffffffffff81116118b757601f01601f191660200190565b604051906119448261189b565b601682527f67657455736572546f496e7374286164647265737329000000000000000000006020830152565b9081602091031261018e57516101b88161017d565b634e487b7160e01b600052601160045260246000fd5b6000198101919082116119aa57565b611985565b919082039182116119aa57565b6040516119c8816118bc565b60008152906000368137565b604051906119e18261189b565b601082527f6d61784d61707065644c696d69742829000000000000000000000000000000006020830152565b9081602091031261018e575190565b90600182018092116119aa57565b919082018092116119aa57565b92916001600160a01b0393848116156117ad578483169283156117ad57611a86611a82611a7b33610ec8856001600160a01b03166000526012602052604060002090565b5460ff1690565b1590565b611e1757600454604080516001600160a01b038581166020808401919091528252919892611ada9261033792611acb92909116611ac38c836118d8565b610d9c611937565b60208082518301019101611970565b15611e0757611aff61162f336001600160a01b03166000526014602052604060002090565b8415611ca55716611c7c57611b6c611b45611b36611b256003546001600160a01b031690565b611b2d6119bc565b90610d9c6119d4565b60208082518301019101611a0d565b611b6633610ec8856001600160a01b03166000526013602052604060002090565b54101590565b611c53577f73e162dc4d0165c5ab2c676b5ce1e58e8333a5e1b0e75ea3957f2ca0aa8abc2e939495611c1c82611bbc611c4e94610e6b876001600160a01b03166000526015602052604060002090565b611bdd33610e6b876001600160a01b03166000526016602052604060002090565b611bfe85610e6b336001600160a01b03166000526014602052604060002090565b610ec833916001600160a01b03166000526013602052604060002090565b611c268154611a1c565b9055513381526001600160a01b03909216602083015291151560408201529081906060820190565b0390a2565b600486517fb111d8ef000000000000000000000000000000000000000000000000000000008152fd5b600486517f548635ce000000000000000000000000000000000000000000000000000000008152fd5b925092509394925081811615611e0157611d88927f73e162dc4d0165c5ab2c676b5ce1e58e8333a5e1b0e75ea3957f2ca0aa8abc2e61175a93611cfe61162f856001600160a01b03166000526015602052604060002090565b611d4c85611d2261162f826001600160a01b03166000526016602052604060002090565b95516001600160a01b03968716815295166020860152600060408601529116929081906060820190565b0390a2611d6f61175a826001600160a01b03166000526015602052604060002090565b6001600160a01b03166000526016602052604060002090565b611da861175a336001600160a01b03166000526014602052604060002090565b611dc933610ec8836001600160a01b03166000526013602052604060002090565b54611dd15750565b611df390610ec833916001600160a01b03166000526013602052604060002090565b611dfd815461199b565b9055565b50505050565b6004875163d92e233d60e01b8152fd5b60046040517f747845de000000000000000000000000000000000000000000000000000000008152fd5b9190811015611e515760051b0190565b634e487b7160e01b600052603260045260246000fd5b356101b88161017d565b6040513d6000823e3d90fd5b604051906060820182811067ffffffffffffffff8211176118b757604052602482527f65737329000000000000000000000000000000000000000000000000000000006040837f67657456616c696461746f7244656c656761746f724f6655736572286164647260208201520152565b9081606091031261018e578051611f038161017d565b9160406020830151611f148161017d565b9201516101b881610fe1565b60405190611f2d8261189b565b601182527f696e636f6d654f662861646472657373290000000000000000000000000000006020830152565b61223e6101c061225a92611f93611f7782516001600160a01b031690565b6001600160a01b03166001600160a01b03196002541617600255565b611fc6611faa60208301516001600160a01b031690565b6001600160a01b03166001600160a01b03196003541617600355565b611ff9611fdd60408301516001600160a01b031690565b6001600160a01b03166001600160a01b03196004541617600455565b61202c61201060608301516001600160a01b031690565b6001600160a01b03166001600160a01b03196005541617600555565b61205f61204360808301516001600160a01b031690565b6001600160a01b03166001600160a01b03196006541617600655565b61209261207660a08301516001600160a01b031690565b6001600160a01b03166001600160a01b03196007541617600755565b6120c56120a960c08301516001600160a01b031690565b6001600160a01b03166001600160a01b03196008541617600855565b6120f86120dc60e08301516001600160a01b031690565b6001600160a01b03166001600160a01b03196009541617600955565b61212c6121106101008301516001600160a01b031690565b6001600160a01b03166001600160a01b0319600a541617600a55565b6121606121446101208301516001600160a01b031690565b6001600160a01b03166001600160a01b0319600b541617600b55565b6121946121786101408301516001600160a01b031690565b6001600160a01b03166001600160a01b0319600c541617600c55565b6121c86121ac6101608301516001600160a01b031690565b6001600160a01b03166001600160a01b0319600d541617600d55565b6121fc6121e06101808301516001600160a01b031690565b6001600160a01b03166001600160a01b0319600e541617600e55565b6122306122146101a08301516001600160a01b031690565b6001600160a01b03166001600160a01b0319600f541617600f55565b01516001600160a01b031690565b6001600160a01b03166001600160a01b03196010541617601055565b565b9081602091031261018e57516101b881610fe1565b6122cc6001600160a01b036002541660405161228c8161189b565b600881527f69735361666528290000000000000000000000000000000000000000000000006020820152604051916122c3836118bc565b600083526123db565b90806122eb575b156102dd57806020806101b89351830101910161225c565b5060208151146122d3565b6123596001600160a01b03806002541660405191602094168483015283825261231e8261189b565b6040519061232b8261189b565b601582527f6973536563757265426173652861646472657373290000000000000000000000858301526123db565b9080612376575b156102dd57816101b8928251830101910161225c565b5081815114612360565b3d156123ab573d906123918261191b565b9161239f60405193846118d8565b82523d6000602084013e565b606090565b906123bb92916123db565b90600090156123c8575090565b60405191506123d6826118bc565b815290565b9190823b15612470577fffffffff00000000000000000000000000000000000000000000000000000000815160208093012016916040519180830193845281519160005b83811061245c57505050918161244c602482600097959688970187838201520360048101845201826118d8565b51915afa612458612380565b9091565b81810183015185820160240152820161241f565b505050600090604051612482816118bc565b6000815290565b9291612497916000946123db565b90806124ba575b6124a55750565b6101b891925060208082518301019101611a0d565b50602081511461249e56fea2646970667358221220c432687ddf3ee3b86b9d91877ff53f480708f920cf7cdfb3ae1b9b65619176d264736f6c6343000814003360803462001ab6576001600160401b0390601f620049c238819003918201601f19168301918483118484101762001a8e5780849260209460405283398101031262001ab657516001600160a01b0381169081900362001ab657801562001aa45760018060a01b03193381600154161760015560005416176000554260115560a760255561010e602655601e602b556001602c556001602d556002602e5561c350602f5561025890816030556003603155601960325568878678326eac900000603355670de0b6b3a764000060345569021e19e0c9bab24000006035556001603655600360375560016038556007603955600560425560ff196043541660435560405160e081018181108382111762001a8e57839160c0916040526002815260646020820152600160408201526023606082015260646080820152600160a0820152015260026016556064601755600160185560236019556064601a556001601b5581601c5560b460606200017262001afb565b60198152600a6020820152605a604082015201526019601d55600a601e55605a601f5560b4602055620001a462001afb565b600581526001602082015260b460606101689283604082015201526005602155600160225560235560b46024556040519060c08201908282109082111762001a8e5760019160a0916040526003815260036020820152826040820152826060820152826080820152015260036027556003602855630101010163ffffffff1960295416176029556200023562001afb565b81606061014092838152600b6020820152600a60408201520152603a55600b603b55600a603c5580603d558060606200026d62001afb565b60d28152600b6020820152600a6040820152015260d2603e55600b603f55600a60405560415562000382620002a162001abb565b60008082526020808301828152604084018381526060850184815261270f60808701908152948052601390935293517f8fa6efc3be94b5b348b21fea823fe8d100408cee9b7f90524494500445d8ff6c55517f8fa6efc3be94b5b348b21fea823fe8d100408cee9b7f90524494500445d8ff6d5591517f8fa6efc3be94b5b348b21fea823fe8d100408cee9b7f90524494500445d8ff6e5590517f8fa6efc3be94b5b348b21fea823fe8d100408cee9b7f90524494500445d8ff6f55517f8fa6efc3be94b5b348b21fea823fe8d100408cee9b7f90524494500445d8ff7055565b620004776200039062001abb565b60078152601960208083019182526000604084018181526060850182815261270f608087019081526001909352601390935293517f4155c2f711f2cdd34f8262ab8fb9b7020a700fe7b6948222152f7670d1fdf34d5591517f4155c2f711f2cdd34f8262ab8fb9b7020a700fe7b6948222152f7670d1fdf34e5591517f4155c2f711f2cdd34f8262ab8fb9b7020a700fe7b6948222152f7670d1fdf34f5590517f4155c2f711f2cdd34f8262ab8fb9b7020a700fe7b6948222152f7670d1fdf35055517f4155c2f711f2cdd34f8262ab8fb9b7020a700fe7b6948222152f7670d1fdf35155565b6200056c6200048562001abb565b60078152606460208083019182526000604084018181526060850182815261270f608087019081526002909352601390935293517f0b9d2c0c271bb30544eb78c59bdaebdae2728e5f65814c07768a0abe90ed19235591517f0b9d2c0c271bb30544eb78c59bdaebdae2728e5f65814c07768a0abe90ed19245591517f0b9d2c0c271bb30544eb78c59bdaebdae2728e5f65814c07768a0abe90ed19255590517f0b9d2c0c271bb30544eb78c59bdaebdae2728e5f65814c07768a0abe90ed192655517f0b9d2c0c271bb30544eb78c59bdaebdae2728e5f65814c07768a0abe90ed192755565b620006626200057a62001abb565b600781526101f46020808301918252600360408401818152600060608601818152601e6080880190815293909152601390935293517f0d2a6872ef858a7f8ead18dc4f3f2e8d35c853d47e2816cbb9cdd49202554e0c5591517f0d2a6872ef858a7f8ead18dc4f3f2e8d35c853d47e2816cbb9cdd49202554e0d5591517f0d2a6872ef858a7f8ead18dc4f3f2e8d35c853d47e2816cbb9cdd49202554e0e5590517f0d2a6872ef858a7f8ead18dc4f3f2e8d35c853d47e2816cbb9cdd49202554e0f55517f0d2a6872ef858a7f8ead18dc4f3f2e8d35c853d47e2816cbb9cdd49202554e1055565b6200075a6200067062001abb565b600781526107d06020808301918252600460408401818152600360608601908152601e60808701908152600093909352601390935293517f01413ff7a3b1d5b6c016c061d48e2c7014700c777a29fcd068fff04265813d5d5591517f01413ff7a3b1d5b6c016c061d48e2c7014700c777a29fcd068fff04265813d5e5591517f01413ff7a3b1d5b6c016c061d48e2c7014700c777a29fcd068fff04265813d5f5590517f01413ff7a3b1d5b6c016c061d48e2c7014700c777a29fcd068fff04265813d6055517f01413ff7a3b1d5b6c016c061d48e2c7014700c777a29fcd068fff04265813d6155565b6200084f6200076862001abb565b6007815261138860208083019182526004604084018181526060850191825261270f608086019081526005600052601390935293517ff4b2859895858d6aa26d656e4999d552f6a869b74c43bba7d2a941c4d22c35595591517ff4b2859895858d6aa26d656e4999d552f6a869b74c43bba7d2a941c4d22c355a5591517ff4b2859895858d6aa26d656e4999d552f6a869b74c43bba7d2a941c4d22c355b55517ff4b2859895858d6aa26d656e4999d552f6a869b74c43bba7d2a941c4d22c355c55517ff4b2859895858d6aa26d656e4999d552f6a869b74c43bba7d2a941c4d22c355d55565b620009446200085d62001abb565b6007815261271060208083019182526004604084018181526060850191825261270f608086019081526006600052601390935293517f709d0e3cf89777a1e1f9c99632e4494f29b0327befd0df15e277a12d948257955591517f709d0e3cf89777a1e1f9c99632e4494f29b0327befd0df15e277a12d948257965591517f709d0e3cf89777a1e1f9c99632e4494f29b0327befd0df15e277a12d9482579755517f709d0e3cf89777a1e1f9c99632e4494f29b0327befd0df15e277a12d9482579855517f709d0e3cf89777a1e1f9c99632e4494f29b0327befd0df15e277a12d9482579955565b62000a3b6200095262001abb565b60078082526161a860208084019182526004604085018181526060860191825261270f60808701908152600095909552601390925293517f8ba6fb577925b0796671c737df59b8aaae861b630513fb12823699e3e0e3ee605590517f8ba6fb577925b0796671c737df59b8aaae861b630513fb12823699e3e0e3ee6155517f8ba6fb577925b0796671c737df59b8aaae861b630513fb12823699e3e0e3ee625590517f8ba6fb577925b0796671c737df59b8aaae861b630513fb12823699e3e0e3ee6355517f8ba6fb577925b0796671c737df59b8aaae861b630513fb12823699e3e0e3ee6455565b62000b2d62000a4962001abb565b6000808252600660208084019182526001604085018181526005606087019081526080870183815292909552601590925293517f27739e4bb5e6f8b5e4b57a047dca8767cc9b982a011081e086cbb0dfa9de818d5590517f27739e4bb5e6f8b5e4b57a047dca8767cc9b982a011081e086cbb0dfa9de818e55517f27739e4bb5e6f8b5e4b57a047dca8767cc9b982a011081e086cbb0dfa9de818f55517f27739e4bb5e6f8b5e4b57a047dca8767cc9b982a011081e086cbb0dfa9de819055517f27739e4bb5e6f8b5e4b57a047dca8767cc9b982a011081e086cbb0dfa9de819155565b62000c2062000b3b62001abb565b600080825260036020808401918252600160408501818152600560608701908152608087019283526002909552601590925293517f07d4ff730d9753101d832555708a37d38c2c45fce8cacaefc99f06074e93fe0b5590517f07d4ff730d9753101d832555708a37d38c2c45fce8cacaefc99f06074e93fe0c55517f07d4ff730d9753101d832555708a37d38c2c45fce8cacaefc99f06074e93fe0d55517f07d4ff730d9753101d832555708a37d38c2c45fce8cacaefc99f06074e93fe0e55517f07d4ff730d9753101d832555708a37d38c2c45fce8cacaefc99f06074e93fe0f55565b62000d1662000c2e62001abb565b60028152600f6020808301918252600a604084019081526005606085019081526001608086019081526003600052601590935293517fb3a65e8276bd33b3e4f7d6081ebd9899187264822358758dca2e2bc37b2a9c275591517fb3a65e8276bd33b3e4f7d6081ebd9899187264822358758dca2e2bc37b2a9c285590517fb3a65e8276bd33b3e4f7d6081ebd9899187264822358758dca2e2bc37b2a9c295590517fb3a65e8276bd33b3e4f7d6081ebd9899187264822358758dca2e2bc37b2a9c2a55517fb3a65e8276bd33b3e4f7d6081ebd9899187264822358758dca2e2bc37b2a9c2b55565b62000e0c62000d2462001abb565b60028152600f6020808301918252600a604084019081526005606085019081526001608086019081526004600052601590935293517f8191f4eb6b8bafbfe9a5389c8d07d7f5fd81137a7ee653fc4358269845ee1d2e5591517f8191f4eb6b8bafbfe9a5389c8d07d7f5fd81137a7ee653fc4358269845ee1d2f5590517f8191f4eb6b8bafbfe9a5389c8d07d7f5fd81137a7ee653fc4358269845ee1d305590517f8191f4eb6b8bafbfe9a5389c8d07d7f5fd81137a7ee653fc4358269845ee1d3155517f8191f4eb6b8bafbfe9a5389c8d07d7f5fd81137a7ee653fc4358269845ee1d3255565b62000f0262000e1a62001abb565b60028152600f6020808301918252600a60408401908152600560608501818152600160808701908152600092909252601590935293517fbab719002e4be320868650dc7456e9a1d245e4d5dd64765588e2f21529d871d35591517fbab719002e4be320868650dc7456e9a1d245e4d5dd64765588e2f21529d871d45590517fbab719002e4be320868650dc7456e9a1d245e4d5dd64765588e2f21529d871d555517fbab719002e4be320868650dc7456e9a1d245e4d5dd64765588e2f21529d871d655517fbab719002e4be320868650dc7456e9a1d245e4d5dd64765588e2f21529d871d755565b6200185862000f1062001abb565b60028152604b602080830182815260646040850181815260fa60608701818152608088019384526006600052601590955295517f25847c9ccf691da811a9f934d6b3b92e6062ef92feb71bf4cb08cbb4fad8d6525591517f25847c9ccf691da811a9f934d6b3b92e6062ef92feb71bf4cb08cbb4fad8d6535590517f25847c9ccf691da811a9f934d6b3b92e6062ef92feb71bf4cb08cbb4fad8d6545590517f25847c9ccf691da811a9f934d6b3b92e6062ef92feb71bf4cb08cbb4fad8d65555517f25847c9ccf691da811a9f934d6b3b92e6062ef92feb71bf4cb08cbb4fad8d6565590620010e46200100362001abb565b60028152602080820185815260646040840181815260608501878152608086019283526007600052601590945293517f5d0f48e37dc1225cdee8d6f2a0315d796f55423522fe638d7d95421802dfc0065590517f5d0f48e37dc1225cdee8d6f2a0315d796f55423522fe638d7d95421802dfc0075591517f5d0f48e37dc1225cdee8d6f2a0315d796f55423522fe638d7d95421802dfc00855517f5d0f48e37dc1225cdee8d6f2a0315d796f55423522fe638d7d95421802dfc00955517f5d0f48e37dc1225cdee8d6f2a0315d796f55423522fe638d7d95421802dfc00a55565b620011d3620010f262001abb565b60028152602080820185815260646040840181815260608501878152608086019283526008600052601590945293517f2d0e46a571fdfbe57c7c718891a8a12999c102dfffa2b3314ea165dedd1684f55590517f2d0e46a571fdfbe57c7c718891a8a12999c102dfffa2b3314ea165dedd1684f65591517f2d0e46a571fdfbe57c7c718891a8a12999c102dfffa2b3314ea165dedd1684f755517f2d0e46a571fdfbe57c7c718891a8a12999c102dfffa2b3314ea165dedd1684f855517f2d0e46a571fdfbe57c7c718891a8a12999c102dfffa2b3314ea165dedd1684f955565b620012c2620011e162001abb565b60028152602080820185815260646040840181815260608501878152608086019283526009600052601590945293517f497613c0658032a90a449a944031c57b1d03996c3a6148fe12146c45cf3214005590517f497613c0658032a90a449a944031c57b1d03996c3a6148fe12146c45cf3214015591517f497613c0658032a90a449a944031c57b1d03996c3a6148fe12146c45cf32140255517f497613c0658032a90a449a944031c57b1d03996c3a6148fe12146c45cf32140355517f497613c0658032a90a449a944031c57b1d03996c3a6148fe12146c45cf32140455565b620013b1620012d062001abb565b6002815260208082018581526064604084018181526060850187815260808601928352600a600052601590945293517f0cfcac9f3767130657d3b01a9146da544eeb39eb9670066ace5e84da7fc4319f5590517f0cfcac9f3767130657d3b01a9146da544eeb39eb9670066ace5e84da7fc431a05591517f0cfcac9f3767130657d3b01a9146da544eeb39eb9670066ace5e84da7fc431a155517f0cfcac9f3767130657d3b01a9146da544eeb39eb9670066ace5e84da7fc431a255517f0cfcac9f3767130657d3b01a9146da544eeb39eb9670066ace5e84da7fc431a355565b620014a0620013bf62001abb565b6002815260208082018581526064604084018181526060850187815260808601928352600b600052601590945293517fcaeae41dfed97dfd8c41876ff591faa3e36cda388621c550caa3321a2a624e5f5590517fcaeae41dfed97dfd8c41876ff591faa3e36cda388621c550caa3321a2a624e605591517fcaeae41dfed97dfd8c41876ff591faa3e36cda388621c550caa3321a2a624e6155517fcaeae41dfed97dfd8c41876ff591faa3e36cda388621c550caa3321a2a624e6255517fcaeae41dfed97dfd8c41876ff591faa3e36cda388621c550caa3321a2a624e6355565b6200158f620014ae62001abb565b6002815260208082018581526064604084018181526060850187815260808601928352600c600052601590945293517f74c10a04815bbeaf3165dab0bd11b69aae73edf00a48b27ec8c53ac5b61d47fd5590517f74c10a04815bbeaf3165dab0bd11b69aae73edf00a48b27ec8c53ac5b61d47fe5591517f74c10a04815bbeaf3165dab0bd11b69aae73edf00a48b27ec8c53ac5b61d47ff55517f74c10a04815bbeaf3165dab0bd11b69aae73edf00a48b27ec8c53ac5b61d480055517f74c10a04815bbeaf3165dab0bd11b69aae73edf00a48b27ec8c53ac5b61d480155565b6200167e6200159d62001abb565b6002815260208082018581526064604084018181526060850187815260808601928352600d600052601590945293517fe3e3bb3f660b5aca6f44f8cdafd6456c07cd53888341ab748ffc02d532ccc70e5590517fe3e3bb3f660b5aca6f44f8cdafd6456c07cd53888341ab748ffc02d532ccc70f5591517fe3e3bb3f660b5aca6f44f8cdafd6456c07cd53888341ab748ffc02d532ccc71055517fe3e3bb3f660b5aca6f44f8cdafd6456c07cd53888341ab748ffc02d532ccc71155517fe3e3bb3f660b5aca6f44f8cdafd6456c07cd53888341ab748ffc02d532ccc71255565b6200176d6200168c62001abb565b6002815260208082018581526064604084018181526060850187815260808601928352600e600052601590945293517f39f65be0de5254440eb2b93b160b1af3a4f45fe0571eaea7ef454b27b7f02d185590517f39f65be0de5254440eb2b93b160b1af3a4f45fe0571eaea7ef454b27b7f02d195591517f39f65be0de5254440eb2b93b160b1af3a4f45fe0571eaea7ef454b27b7f02d1a55517f39f65be0de5254440eb2b93b160b1af3a4f45fe0571eaea7ef454b27b7f02d1b55517f39f65be0de5254440eb2b93b160b1af3a4f45fe0571eaea7ef454b27b7f02d1c55565b6200177762001abb565b6002815260208082019384526064604083018181526060840194855260808401918252600f600052601590925291517f3bda72f6153f13a10a865b9a6397e1123f4aa6a1726e0e1349cd07eb0e24d8155592517f3bda72f6153f13a10a865b9a6397e1123f4aa6a1726e0e1349cd07eb0e24d8165591517f3bda72f6153f13a10a865b9a6397e1123f4aa6a1726e0e1349cd07eb0e24d81755517f3bda72f6153f13a10a865b9a6397e1123f4aa6a1726e0e1349cd07eb0e24d81855517f3bda72f6153f13a10a865b9a6397e1123f4aa6a1726e0e1349cd07eb0e24d81955565b6200186262001adb565b60128152600a6020808301918252602d604084019081526003600052601490915291517f63d87a887046e0430be80fdeb014107d7198c879cbf2cddf39a6df195c86cb3855517f63d87a887046e0430be80fdeb014107d7198c879cbf2cddf39a6df195c86cb3955517f63d87a887046e0430be80fdeb014107d7198c879cbf2cddf39a6df195c86cb3a55620018f762001adb565b60128152600a6020808301918252605a604084019081526005600052601490915291517f116126bec5aaa49b347e966c49378cf0c441de9121e306ea3d824584a9615aa255517f116126bec5aaa49b347e966c49378cf0c441de9121e306ea3d824584a9615aa355517f116126bec5aaa49b347e966c49378cf0c441de9121e306ea3d824584a9615aa4556200198c62001adb565b60098152600a602080830182815261270f6040808601918252600760009081526014855295517f904977a779b22381a36c6463d4166ef55ee8cb3392c83093cb1750f1a00c9d945591517f904977a779b22381a36c6463d4166ef55ee8cb3392c83093cb1750f1a00c9d9555517f904977a779b22381a36c6463d4166ef55ee8cb3392c83093cb1750f1a00c9d9655601290915260327f8e1fee8c88a9e04123b21e90cae2727a7715bf522a1e46eb5934ccd05203a6b25560049092526101f47fb4fcd034df3d20faa1c133b66d862ce92732727d40916b48ffb4020cb00fe053556005601f55602381905560a760255560265551612e90908162001b328239f35b634e487b7160e01b600052604160045260246000fd5b60405163e6c4247b60e01b8152600490fd5b600080fd5b6040519060a082016001600160401b0381118382101762001a8e57604052565b60405190606082016001600160401b0381118382101762001a8e57604052565b60405190608082016001600160401b0381118382101762001a8e576040526000606083828152826020820152826040820152015256fe60806040526004361015610018575b361561001657005b005b60003560e01c806304ce9f80146104985780630609a0e31461049357806307175c831461048e57806309307c62146104895780630b225f1a146104845780630ea0d2221461047f57806312065fe01461047a57806314be92a51461047557806315a544ed146104705780631605aed91461046b57806316f0115b14610466578063179b570a14610461578063192b48ee1461045c5780631ef6a864146104575780631f185d1614610452578063203bab661461044d57806326c5adae14610448578063298fc46014610443578063339459a61461043e5780633688236d146104395780633b9b7955146104345780634151331d1461042f578063438fe1921461042a57806344ec16bc146104255780634b62954f1461042057806353423e861461041b578063541d76671461041657806354541683146104115780635640dbfc1461040c578063592a02a8146104075780635962205f146104025780635a0e9038146103fd57806368400cb3146103f85780636c7deb5d146103f35780636f092c5e146103ee5780637687e371146103e957806378ef376f146103e45780637bc908c6146103df578063840bbc1e146103da5780638da5cb5b146103d557806391fc8aa8146103d05780639319d0b5146103cb57806395cea094146103c65780639d80ab9b146103c15780639eb8b44e146103bc5780639f70207d146103b7578063a19841dd146103b2578063a1f7f539146103ad578063a88fcea6146103a8578063ac14611a146103a3578063aebcd32a1461039e578063af0b21d314610399578063af48452614610394578063b33867751461038f578063b49c064c1461038a578063b85f1f8d14610385578063b90306ad14610380578063c54e44b01461037b578063c5a136d414610376578063dbad649c14610371578063e01ad5fd1461036c578063e0a9bc2b14610367578063e19a5bcf14610362578063e6a779191461035d578063eddd0d9c14610358578063f27c35c614610353578063f2a6bbc71461034e578063f4fe8e3c14610349578063f5de7bd214610344578063f7a9783e1461033f578063fc0e74d11461033a5763fdc10bc90361000e57612600565b6125dd565b612564565b612509565b61249d565b61244e565b6123a3565b612354565b61225a565b61219e565b612183565b6120b8565b61209a565b611ffd565b611f77565b611e76565b611e3c565b611e19565b611dfb565b611dca565b611dac565b611d44565b611cf2565b611cd4565b611c5f565b611c26565b611c08565b611a31565b6119b2565b611994565b611945565b611927565b611900565b611887565b611869565b61181a565b6117b2565b611786565b611737565b611719565b6116e0565b611678565b611579565b6114f8565b6114da565b611464565b611446565b6113f1565b6113a2565b611384565b611341565b61131a565b6112fc565b610c19565b610bb1565b610ac7565b610a3c565b610955565b61088e565b6107fe565b6107a9565b610758565b61073a565b61071c565b6106cd565b6106b1565b610693565b610675565b610620565b610602565b61055f565b3461055a57604036600319011261055a57600080808060243560043560018114610524575b6002146104f2575b50906104ee91604051948594859094939260609260808301968352602083015260408201520152565b0390f35b6021546022546023546025549297509095506104ee945092501161051c576026545b9290916104c5565b602454610514565b935093505050601d5491601e54601f54918060255411156000146105505760026026545b9490506104bd565b6002602054610548565b600080fd5b3461055a57602036600319011261055a57610578612acf565b156105d85761058633612b54565b80156105c4575b1561059a57600435602b55005b60046040517fea8e4eb5000000000000000000000000000000000000000000000000000000008152fd5b50336001600160a01b03600554161461058d565b60046040517f9dc4246e000000000000000000000000000000000000000000000000000000008152fd5b3461055a57600036600319011261055a576020603254604051908152f35b3461055a57604036600319011261055a57610639612acf565b156105d85761064733612b54565b8015610661575b1561059a57600435603455602435603555005b50336001600160a01b03600554161461064e565b3461055a57600036600319011261055a576020604254604051908152f35b3461055a57600036600319011261055a576020603054604051908152f35b3461055a57600036600319011261055a57602047604051908152f35b3461055a57602036600319011261055a576106e6612acf565b156105d8576106f433612b54565b8015610708575b1561059a57600435603055005b50336001600160a01b0360055416146106fb565b3461055a57600036600319011261055a576020603554604051908152f35b3461055a57600036600319011261055a576020603454604051908152f35b3461055a57600036600319011261055a5760e0601654601754601854601954601a5490601b5492601c5494604051968752602087015260408601526060850152608084015260a083015260c0820152f35b3461055a57604036600319011261055a576107c2612acf565b156105d8576107d033612b54565b80156107ea575b1561059a57600435602555602435602655005b50336001600160a01b0360055416146107d7565b3461055a57602036600319011261055a5760043561081a612acf565b156105d85761082833612b54565b8015610858575b1561059a57670de0b6b3a76400009081810291818304149015171561085357603355005b612cfa565b50336001600160a01b03600554161461082f565b60a090600319011261055a576004359060243590604435906064359060843590565b3461055a5761089c3661086c565b906108a994929394612acf565b156105d8576108b733612b54565b8015610930575b1561059a576002936108ce612dab565b9586526020860152604085015260608401526001811461090e575b146108f057005b8051603e556020810151603f55604080820151905560600151604155005b8251603a556020830151603b556040830151603c556060830151603d556108e9565b50336001600160a01b0360055416146108be565b6001600160a01b0381160361055a57565b3461055a5760208060031936011261055a576109d460043561097681610944565b6001600160a01b03806002541690604051921684830152838252610999826126ef565b604051906109a6826126ef565b601182527f69735369676e657228616464726573732900000000000000000000000000000085830152612c0e565b919080610a32575b15610a085781816109f6926104ee94518301019101612aba565b60405190151581529081906020820190565b60046040517f3204506f000000000000000000000000000000000000000000000000000000008152fd5b50808251146109dc565b3461055a5760e036600319011261055a57610a55612acf565b156105d857610a6333612b54565b8015610ab3575b1561059a57610a7a60405161267a565b600435601655602435601755604435601855606435601955610a9d608435601a55565b610aa860a435601b55565b61001660c435601c55565b50336001600160a01b036005541614610a6a565b3461055a57602036600319011261055a57600460206001600160a01b0360005416604051928380926369e8d84b60e11b82525afa8015610ba257610b2591600091610b74575b50610b16612e09565b90610b1f612e21565b90612cbc565b60325490670de0b6b3a764000091828102928184041490151715610853576104ee91610b5f610b6492610b5a60043593612d10565b612d40565b612d2d565b6040519081529081906020820190565b610b95915060203d8111610b9b575b610b8d8183612727565b810190612749565b38610b0d565b503d610b83565b612761565b8015150361055a57565b3461055a57602036600319011261055a57600435610bce81610ba7565b610bd6612acf565b156105d857610be433612b54565b8015610c05575b1561059a5760ff8019604354169115151617604355600080f35b50336001600160a01b036005541614610beb565b3461055a57600036600319011261055a57610c4b610c3f6000546001600160a01b031690565b6001600160a01b031690565b604051907f97f3815a000000000000000000000000000000000000000000000000000000008252602082600481845afa918215610ba2576000926112db575b50604051917fcfbffe53000000000000000000000000000000000000000000000000000000008352602083600481855afa928315610ba2576000936112ba575b50604051907fab6e844f000000000000000000000000000000000000000000000000000000008252602082600481865afa918215610ba257600092611299575b50604051917f14d8d024000000000000000000000000000000000000000000000000000000008352602083600481875afa928315610ba257600093611278575b50604051927fd1f956b1000000000000000000000000000000000000000000000000000000008452602084600481885afa938415610ba257600094611257575b50604051937fe61dfd58000000000000000000000000000000000000000000000000000000008552602085600481895afa948515610ba257600095611236575b506040517fe09d394d0000000000000000000000000000000000000000000000000000000081526020816004818a5afa908115610ba257600091611217575b506040517f52b06d640000000000000000000000000000000000000000000000000000000081526020816004818b5afa908115610ba2576000916111f8575b506040517f013cf08b00000000000000000000000000000000000000000000000000000000815260006004820152916020836024818c5afa928315610ba2576000936111d7575b50604051977f5e09dbe70000000000000000000000000000000000000000000000000000000089526020896004818d5afa948515610ba2576004996000966111b6575b5060208b6040519b8c80927faa0ddc160000000000000000000000000000000000000000000000000000000082525afa968715610ba25760049a600098611195575b5060208c6040519c8d80927f640274270000000000000000000000000000000000000000000000000000000082525afa988915610ba25760049b60009a611174575b5060208d6040519d8e80927f30125cf50000000000000000000000000000000000000000000000000000000082525afa9a8b15610ba2578d60049d60009d611152575b506020906040519e8f80927f24768d910000000000000000000000000000000000000000000000000000000082525afa9c8d15610ba25760009d611131575b50604051809e81907f9dc969a80000000000000000000000000000000000000000000000000000000082525a92600491602094fa9d8e15610ba25760009e611110575b5061102461276d565b6001600160a01b0390911681529d8e906001600160a01b031660208201526040019061105891906001600160a01b03169052565b6001600160a01b031660608d01526001600160a01b031660808c01526001600160a01b031660a08b01526001600160a01b031660c08a01526001600160a01b031660e08901526001600160a01b03166101008801526001600160a01b03166101208701526001600160a01b03166101408601526001600160a01b03166101608501526001600160a01b03166101808401526001600160a01b03166101a08301526001600160a01b03166101c08201526100169061279d565b61112a919e5060203d602011610b9b57610b8d8183612727565b9c3861101b565b61114b919d5060203d602011610b9b57610b8d8183612727565b9b38610fd8565b6020919d5061116d90823d8411610b9b57610b8d8183612727565b9c90610f99565b61118e919a5060203d602011610b9b57610b8d8183612727565b9838610f56565b6111af91985060203d602011610b9b57610b8d8183612727565b9638610f14565b6111d091965060203d602011610b9b57610b8d8183612727565b9438610ed2565b6111f191935060203d602011610b9b57610b8d8183612727565b9138610e8f565b611211915060203d602011610b9b57610b8d8183612727565b38610e48565b611230915060203d602011610b9b57610b8d8183612727565b38610e09565b61125091955060203d602011610b9b57610b8d8183612727565b9338610dca565b61127191945060203d602011610b9b57610b8d8183612727565b9238610d8a565b61129291935060203d602011610b9b57610b8d8183612727565b9138610d4a565b6112b391925060203d602011610b9b57610b8d8183612727565b9038610d0a565b6112d491935060203d602011610b9b57610b8d8183612727565b9138610cca565b6112f591925060203d602011610b9b57610b8d8183612727565b9038610c8a565b3461055a57600036600319011261055a576020602f54604051908152f35b3461055a57600036600319011261055a5760206001600160a01b0360005416604051908152f35b3461055a57602036600319011261055a57600435600052601460205260606040600020805490600260018201549101549060405192835260208301526040820152f35b3461055a57600036600319011261055a576020602d54604051908152f35b3461055a57602036600319011261055a576113bb612acf565b156105d8576113c933612b54565b80156113dd575b1561059a57600435602c55005b50336001600160a01b0360055416146113d0565b3461055a57604036600319011261055a5761140a612acf565b156105d85761141833612b54565b8015611432575b1561059a57600435602e55602435602f55005b50336001600160a01b03600554161461141f565b3461055a57600036600319011261055a576020603154604051908152f35b3461055a57602036600319011261055a57600460206001600160a01b0360005416604051928380926369e8d84b60e11b82525afa8015610ba2576114b9610b64916104ee93600091610b745750610b16612e09565b6004356000526012602052610b5a6114d5604060002054612d10565b612d10565b3461055a57600036600319011261055a576020602c54604051908152f35b3461055a57600036600319011261055a5760c060275460ff60285460295490604051938452602084015281811615156040840152818160081c1615156060840152818160101c161515608084015260181c16151560a0820152f35b60c090600319011261055a57600435906024359060443590606435906084359060a43590565b3461055a5761158736611553565b90611593959295612acf565b156105d8576115a133612b54565b8015611664575b1561059a57601083101561162057610016956115f194604051966115cb8861269b565b875260208701526040860152606085015260808401526000526015602052604060002090565b906080600491805184556020810151600185015560408101516002850155606081015160038501550151910155565b606460405162461bcd60e51b815260206004820152600d60248201527f696e76616c6964206c6576656c000000000000000000000000000000000000006044820152fd5b50336001600160a01b0360055416146115a8565b3461055a57602036600319011261055a576004356000526015602052604060002080546104ee6001830154926002810154906004600382015491015491604051958695869192608093969594919660a084019784526020840152604083015260608201520152565b3461055a57600036600319011261055a57601d54601e54601f546020805460408051958652918501939093528301526060820152608090f35b3461055a57600036600319011261055a576020603854604051908152f35b3461055a57602036600319011261055a57611750612acf565b156105d85761175e33612b54565b8015611772575b1561059a57600435603155005b50336001600160a01b036005541614611765565b3461055a57602036600319011261055a5760043560005260126020526020604060002054604051908152f35b3461055a57602036600319011261055a576004356117cf81610ba7565b6117d7612acf565b156105d8576117e533612b54565b8015611806575b1561059a5760ff8019602a54169115151617602a55600080f35b50336001600160a01b0360055416146117ec565b3461055a57602036600319011261055a57611833612acf565b156105d85761184133612b54565b8015611855575b1561059a57600435603655005b50336001600160a01b036005541614611848565b3461055a57600036600319011261055a576020603654604051908152f35b3461055a57602036600319011261055a57600460206001600160a01b0360005416604051928380926369e8d84b60e11b82525afa908115610ba2576118ee6118e66104ee93670de0b6b3a764000093600091610b745750610b16612e09565b600435612d2d565b04604051918291829190602083019252565b3461055a57600036600319011261055a5760206001600160a01b0360015416604051908152f35b3461055a57600036600319011261055a576020603354604051908152f35b3461055a57602036600319011261055a5761195e612acf565b156105d85761196c33612b54565b8015611980575b1561059a57600435602d55005b50336001600160a01b036005541614611973565b3461055a57600036600319011261055a576020603954604051908152f35b3461055a57600036600319011261055a57603a54603b54603c54603d54604080519485526020850193909352918301526060820152608090f35b6102a0810192916000915b60078310611a0457505050565b600190606083519182518152602092838101518483015260408091015190820152019201920191906119f7565b3461055a57600080600319360112611c05576040908151611a518161267a565b815b60e08110611be0576104ee84611a6761278e565b6001600052601460205290611aa07fb6c61a840592cc84133e4b25bd509abf4659307c57b160799b38490a5aa48f2c612de1565b612de1565b825260026000526014602052611ad57fa1930aa930426c54c34daad2b9ada7c5d0ef0c96078a3c5bb79f6fa6602c4a7a612de1565b6020830152611af2611a9b60036000526014602052604060002090565b8282015260046000526014602052611b297f52102136546d97ed3f65ec1070a32935d3048ea12f310d29c378dc9d6555c0d6612de1565b606083015260056000526014602052611b617f116126bec5aaa49b347e966c49378cf0c441de9121e306ea3d824584a9615aa2612de1565b608083015260066000526014602052611b997fe1f6b6a5fb7e47dad87547d4b0671e7e995a1dae22fbe5b3b5d10e2a77ed7aff612de1565b60a083015260076000526014602052611bd17f904977a779b22381a36c6463d4166ef55ee8cb3392c83093cb1750f1a00c9d94612de1565b60c083015251918291826119ec565b6020908451611bee816126b7565b848152848382015284868201528184015201611a53565b80fd5b3461055a57600036600319011261055a576020602554604051908152f35b3461055a57600036600319011261055a57603e54603f546040805460415482519485526020850193909352908301526060820152608090f35b3461055a57600036600319011261055a576020611ccc6001600160a01b0360065416604051611c8d816126ef565b601381527f67657464656c656761746f72436f756e742829000000000000000000000000008482015260405191611cc38361270b565b60008352612cbc565b604051908152f35b3461055a57600036600319011261055a576020602e54604051908152f35b3461055a57600036600319011261055a57601154614d588082018092116108535742018042116108535761012c809104910481039081116108535761011e810180911161085357602090604051908152f35b3461055a57602036600319011261055a576004356000526013602052604060002080546104ee6001830154926002810154906004600382015491015491604051958695869192608093969594919660a084019784526020840152604083015260608201520152565b3461055a57600036600319011261055a576020602b54604051908152f35b3461055a57602036600319011261055a576020611df1600435611dec81610944565b612b54565b6040519015158152f35b3461055a57600036600319011261055a576020603754604051908152f35b3461055a57600036600319011261055a57602060ff604354166040519015158152f35b3461055a57600036600319011261055a57602154602254602354602454604080519485526020850193909352918301526060820152608090f35b3461055a57602036600319011261055a576004356001600160a01b0360055416330361059a5760009060046020611eb7610c3f85546001600160a01b031690565b604051928380927f46f991ac0000000000000000000000000000000000000000000000000000000082525afa8015610ba25783808481949382948391611f59575b505af1611f03612bde565b5015610a08577fcdcc745fe377b103b45fa0cec23ae3ef93d6fc6a84a01f0d18c40b354dd1d5d8611f53611f42610c3f600b546001600160a01b031690565b604051938452929081906020820190565b0390a280f35b611f71915060203d8111610b9b57610b8d8183612727565b38611ef8565b3461055a57602036600319011261055a57600435611f9481610944565b803b6000611fa182612a9e565b92611faf6040519485612727565b82845260208401903c602d815110611fd357602a602091015160601c604051908152f35b60046040517fbaf3f0f7000000000000000000000000000000000000000000000000000000008152fd5b3461055a57608036600319011261055a57600435612019612acf565b156105d85761202733612b54565b8015612086575b1561059a5761203f60088210612d60565b60026040519161204e836126b7565b602435835260208301604435815260408401916064358352600052601460205260406000209351845551600184015551910155600080f35b50336001600160a01b03600554161461202e565b3461055a57600036600319011261055a576020602654604051908152f35b3461055a5760208060031936011261055a576104ee90600435906120db82610944565b61213f6001600160a01b0392836006541693604051911683820152828152612102816126ef565b60405161210e816126ef565b601881527f697364656c656761746f724e6f6465286164647265737329000000000000000084820152600094612c0e565b919080612179575b612160575b505060405190151581529081906020820190565b61217292508082518301019101612aba565b388061214c565b5080825114612147565b3461055a57600036600319011261055a576020611df1612acf565b3461055a576121ac3661086c565b906121b994929394612acf565b156105d8576121c733612b54565b8015612246575b1561059a576002936121de612dab565b9586526020860152604085015260608401526001811461221e575b1461220057005b80516021556020810151602255604081015160235560600151602455005b612241836060908051601d556020810151601e556040810151601f550151602055565b6121f9565b50336001600160a01b0360055416146121ce565b3461055a5760c036600319011261055a5760443561227781610ba7565b6064359061228482610ba7565b6084359061229182610ba7565b60a4359161229e83610ba7565b6122a6612acf565b156105d8576122b433612b54565b8015612340575b1561059a57610016936122f6612321936122d66040516126d3565b600435602755602435602855151560ff8019602954169115151617602955565b6029805462ffff00191691151560081b61ff00169190911791151560101b62ff000016919091179055565b151563ff00000060295491151560181b169063ff000000191617602955565b50336001600160a01b0360055416146122bb565b3461055a57602036600319011261055a5761236d612acf565b156105d85761237b33612b54565b801561238f575b1561059a57600435603255005b50336001600160a01b036005541614612382565b3461055a576123b136611553565b916123bd959395612acf565b156105d8576123cb33612b54565b801561243a575b1561059a5761001695604051956123e88761269b565b8652602086015260408501526060840152608083015260005260136020526040600020906080600491805184556020810151600185015560408101516002850155606081015160038501550151910155565b50336001600160a01b0360055416146123d2565b3461055a57602036600319011261055a57612467612acf565b156105d85761247533612b54565b8015612489575b1561059a57600435604255005b50336001600160a01b03600554161461247c565b3461055a57604036600319011261055a576004356124b9612acf565b156105d8576124c733612b54565b80156124f5575b1561059a576124df60088210612d60565b6000526012602052602435604060002055600080f35b50336001600160a01b0360055416146124ce565b3461055a57606036600319011261055a57612522612acf565b156105d85761253033612b54565b8015612550575b1561059a57600435603855602435603755604435603955005b50336001600160a01b036005541614612537565b3461055a57602036600319011261055a57600435600460206001600160a01b0360005416604051928380926369e8d84b60e11b82525afa8015610ba2576125b591600091610b745750610b16612e09565b90670de0b6b3a764000090818102918183041490151715610853576104ee91610b6491612d40565b3461055a57600036600319011261055a57602060ff602a54166040519015158152f35b3461055a57600036600319011261055a576020611ccc6001600160a01b036003541660405161262e816126ef565b600681527f69416765282900000000000000000000000000000000000000000000000000008482015260405191611cc38361270b565b634e487b7160e01b600052604160045260246000fd5b60e0810190811067ffffffffffffffff82111761269657604052565b612664565b60a0810190811067ffffffffffffffff82111761269657604052565b6060810190811067ffffffffffffffff82111761269657604052565b60c0810190811067ffffffffffffffff82111761269657604052565b6040810190811067ffffffffffffffff82111761269657604052565b6020810190811067ffffffffffffffff82111761269657604052565b90601f8019910116810190811067ffffffffffffffff82111761269657604052565b9081602091031261055a575161275e81610944565b90565b6040513d6000823e3d90fd5b604051906101e0820182811067ffffffffffffffff82111761269657604052565b6040519061279b8261267a565b565b612a826101c061279b926127d76127bb82516001600160a01b031690565b6001600160a01b03166001600160a01b03196002541617600255565b61280a6127ee60208301516001600160a01b031690565b6001600160a01b03166001600160a01b03196003541617600355565b61283d61282160408301516001600160a01b031690565b6001600160a01b03166001600160a01b03196004541617600455565b61287061285460608301516001600160a01b031690565b6001600160a01b03166001600160a01b03196005541617600555565b6128a361288760808301516001600160a01b031690565b6001600160a01b03166001600160a01b03196006541617600655565b6128d66128ba60a08301516001600160a01b031690565b6001600160a01b03166001600160a01b03196007541617600755565b6129096128ed60c08301516001600160a01b031690565b6001600160a01b03166001600160a01b03196008541617600855565b61293c61292060e08301516001600160a01b031690565b6001600160a01b03166001600160a01b03196009541617600955565b6129706129546101008301516001600160a01b031690565b6001600160a01b03166001600160a01b0319600a541617600a55565b6129a46129886101208301516001600160a01b031690565b6001600160a01b03166001600160a01b0319600b541617600b55565b6129d86129bc6101408301516001600160a01b031690565b6001600160a01b03166001600160a01b0319600c541617600c55565b612a0c6129f06101608301516001600160a01b031690565b6001600160a01b03166001600160a01b0319600d541617600d55565b612a40612a246101808301516001600160a01b031690565b6001600160a01b03166001600160a01b0319600e541617600e55565b612a74612a586101a08301516001600160a01b031690565b6001600160a01b03166001600160a01b0319600f541617600f55565b01516001600160a01b031690565b6001600160a01b03166001600160a01b03196010541617601055565b67ffffffffffffffff811161269657601f01601f191660200190565b9081602091031261055a575161275e81610ba7565b612b2a6001600160a01b0360025416604051612aea816126ef565b600881527f6973536166652829000000000000000000000000000000000000000000000000602082015260405191612b218361270b565b60008352612c0e565b9080612b49575b15610a08578060208061275e93518301019101612aba565b506020815114612b31565b612bb76001600160a01b038060025416604051916020941684830152838252612b7c826126ef565b60405190612b89826126ef565b601582527f697353656375726542617365286164647265737329000000000000000000000085830152612c0e565b9080612bd4575b15610a08578161275e9282518301019101612aba565b5081815114612bbe565b3d15612c09573d90612bef82612a9e565b91612bfd6040519384612727565b82523d6000602084013e565b606090565b9190823b15612ca3577fffffffff00000000000000000000000000000000000000000000000000000000815160208093012016916040519180830193845281519160005b838110612c8f575050509181612c7f60248260009795968897018783820152036004810184520182612727565b51915afa612c8b612bde565b9091565b818101830151858201602401528201612c52565b505050600090604051612cb58161270b565b6000815290565b9291612cca91600094612c0e565b9080612cef575b612cd85750565b90915060208180518101031261055a576020015190565b506020815114612cd1565b634e487b7160e01b600052601160045260246000fd5b90670de0b6b3a76400009182810292818404149015171561085357565b8181029291811591840414171561085357565b8115612d4a570490565b634e487b7160e01b600052601260045260246000fd5b15612d6757565b606460405162461bcd60e51b815260206004820152600c60248201527f696e76616c69642072616e6b00000000000000000000000000000000000000006044820152fd5b604051906080820182811067ffffffffffffffff8211176126965760405260006060838281528260208201528260408201520152565b90604051612dee816126b7565b60406002829480548452600181015460208501520154910152565b604051612e158161270b565b60008152906000368137565b60405190612e2e826126ef565b601282527f6f7a6f6e655072696365496e5553445428290000000000000000000000000000602083015256fea26469706673582212206e31debbcb82ac627cdcd1cd3765a0acbed621d4fc54be20ba039817917bf72464736f6c63430008140033","linkReferences":{}},"methodIdentifiers":{"invalidator()":"52b06d64","rule741()":"0a5b38ab","transferRequest()":"3da8676f"},"id":77}