{"abi":[{"type":"constructor","inputs":[{"name":"s1","type":"address","internalType":"address"},{"name":"s2","type":"address","internalType":"address"},{"name":"s3","type":"address","internalType":"address"},{"name":"_hex","type":"address","internalType":"address"},{"name":"_securebase","type":"address[]","internalType":"address[]"}],"stateMutability":"nonpayable"},{"type":"fallback","stateMutability":"payable"},{"type":"receive","stateMutability":"payable"},{"type":"function","name":"Burn","inputs":[{"name":"amount","type":"uint256","internalType":"uint256"}],"outputs":[],"stateMutability":"nonpayable"},{"type":"function","name":"_delegatorCount","inputs":[],"outputs":[{"name":"","type":"uint256","internalType":"uint256"}],"stateMutability":"view"},{"type":"function","name":"_getImplementation","inputs":[{"name":"clone","type":"address","internalType":"address"}],"outputs":[{"name":"impl","type":"address","internalType":"address"}],"stateMutability":"view"},{"type":"function","name":"_isDelegatorNode","inputs":[{"name":"sender","type":"address","internalType":"address"}],"outputs":[{"name":"","type":"bool","internalType":"bool"}],"stateMutability":"view"},{"type":"function","name":"_isSafe","inputs":[],"outputs":[{"name":"","type":"bool","internalType":"bool"}],"stateMutability":"view"},{"type":"function","name":"_isSecureBase","inputs":[{"name":"sender","type":"address","internalType":"address"}],"outputs":[{"name":"","type":"bool","internalType":"bool"}],"stateMutability":"view"},{"type":"function","name":"_isSigner","inputs":[{"name":"sender","type":"address","internalType":"address"}],"outputs":[{"name":"","type":"bool","internalType":"bool"}],"stateMutability":"view"},{"type":"function","name":"approveSafe","inputs":[{"name":"action","type":"bool","internalType":"bool"}],"outputs":[],"stateMutability":"nonpayable"},{"type":"function","name":"getBalance","inputs":[],"outputs":[{"name":"","type":"uint256","internalType":"uint256"}],"stateMutability":"view"},{"type":"function","name":"getHexbase","inputs":[],"outputs":[{"name":"","type":"address","internalType":"address"}],"stateMutability":"view"},{"type":"function","name":"isSafe","inputs":[],"outputs":[{"name":"","type":"bool","internalType":"bool"}],"stateMutability":"view"},{"type":"function","name":"isSecureBase","inputs":[{"name":"s","type":"address","internalType":"address"}],"outputs":[{"name":"","type":"bool","internalType":"bool"}],"stateMutability":"view"},{"type":"function","name":"isSigner","inputs":[{"name":"s","type":"address","internalType":"address"}],"outputs":[{"name":"","type":"bool","internalType":"bool"}],"stateMutability":"view"},{"type":"function","name":"owner","inputs":[],"outputs":[{"name":"","type":"address","internalType":"address"}],"stateMutability":"view"},{"type":"function","name":"safeSecureBaseCallback","inputs":[{"name":"sender","type":"address","internalType":"address"},{"name":"action","type":"bool","internalType":"bool"}],"outputs":[],"stateMutability":"nonpayable"},{"type":"function","name":"signerCallback","inputs":[{"name":"_singer","type":"address","internalType":"address"},{"name":"action","type":"bool","internalType":"bool"}],"outputs":[],"stateMutability":"nonpayable"},{"type":"function","name":"systemAge","inputs":[],"outputs":[{"name":"","type":"uint256","internalType":"uint256"}],"stateMutability":"view"},{"type":"event","name":"EthBurned","inputs":[{"name":"sender","type":"address","indexed":true,"internalType":"address"},{"name":"amount","type":"uint256","indexed":false,"internalType":"uint256"}],"anonymous":false},{"type":"event","name":"EthTransferred","inputs":[{"name":"to","type":"address","indexed":true,"internalType":"address"},{"name":"amount","type":"uint256","indexed":false,"internalType":"uint256"}],"anonymous":false},{"type":"event","name":"HexBaseUpdated","inputs":[{"name":"previousHexBase","type":"address","indexed":true,"internalType":"address"},{"name":"newHexBase","type":"address","indexed":true,"internalType":"address"}],"anonymous":false},{"type":"event","name":"OwnerUpdated","inputs":[{"name":"previousOwner","type":"address","indexed":true,"internalType":"address"},{"name":"newOwner","type":"address","indexed":true,"internalType":"address"}],"anonymous":false},{"type":"error","name":"CallFailed","inputs":[]},{"type":"error","name":"InvalidAddress","inputs":[]},{"type":"error","name":"InvalidState","inputs":[]},{"type":"error","name":"NotAuthorized","inputs":[]},{"type":"error","name":"NotSafe","inputs":[]},{"type":"error","name":"TargetCallFailed","inputs":[{"name":"selector","type":"bytes4","internalType":"bytes4"}]}],"bytecode":{"object":"0x60406080815234620001f55762000fe6803803806200001e8162000210565b928339810160a082820312620001f557620000398262000236565b9160206200004981830162000236565b906200005786840162000236565b92620000666060820162000236565b608082015190916001600160401b039190828211620001f557019580601f88011215620001f5578651918211620001fa5760059682881b908580620000ad81850162000210565b809681520192820101928311620001f55785809101915b838310620001da575050506001600160a01b039283169590508515620001c95760018054600080546001600160a01b03191690981788556001600160a81b0319163360ff60a01b191617600160a01b178155978316865260038452888620805460ff199081168a1790915594831686528886208054861689179055821685528785208054851688179055805195855b8781106200016a578951610d9a90816200024c8239f35b8251811015620001b55780821b83018501518416875260028552898720805487168a1790556000198114620001a157880162000153565b634e487b7160e01b87526011600452602487fd5b634e487b7160e01b87526032600452602487fd5b885163e6c4247b60e01b8152600490fd5b8190620001e78462000236565b8152019101908590620000c4565b600080fd5b634e487b7160e01b600052604160045260246000fd5b6040519190601f01601f191682016001600160401b03811183821017620001fa57604052565b51906001600160a01b0382168203620001f55756fe60806040526004361015610018575b361561001657005b005b60003560e01c806312065fe0146101285780631d0c00e4146101235780631f185d161461011e5780633b9b7955146101195780636a276f9d146101145780637df73e271461010f57806384a8d0451461010a5780638da5cb5b14610105578063a1f7f53914610100578063af484526146100fb578063b90306ad146100f6578063c54e44b0146100f1578063dc3163e8146100ec578063e01ad5fd146100e7578063e0a9bc2b146100e2578063ef9eab9d146100dd5763fdc10bc90361000e576108f5565b6108b3565b610835565b610796565b6106f4565b610686565b610606565b61056f565b6104b8565b61048f565b6103ef565b6103ad565b610387565b61035e565b610247565b61018c565b3461014457600036600319011261014457602047604051908152f35b600080fd5b6001600160a01b0381160361014457565b8015150361014457565b60409060031901126101445760043561017c81610149565b906024356101898161015a565b90565b346101445761019a36610164565b60008054604051630536340960e21b8152919392916001600160a01b03916020908290600490829086165afa908115610242578591610214575b508133911603610202576101ff921683526002602052604083209060ff801983541691151516179055565b80f35b60405163ea8e4eb560e01b8152600490fd5b610235915060203d811161023b575b61022d81836109e5565b810190610a08565b386101d4565b503d610223565b610a1d565b34610144576020806003193601126101445760043561026581610149565b60048261027b610276600054610988565b610988565b604051634bf9c0ad60e11b815292839182905afa8015610242576102d4926102b892600092610328575b506102c69060405193849187830161034b565b03601f1981018452836109e5565b6102ce610ac1565b90610c53565b91908061031e575b1561030c5781816102f69261030894518301019101610a7b565b60405191829182901515815260200190565b0390f35b604051633204506f60e01b8152600490fd5b50808251146102dc565b6102c691925061034490863d881161023b5761022d81836109e5565b91906102a5565b6001600160a01b03909116815260200190565b34610144576000366003190112610144576000546040516001600160a01b039091168152602090f35b3461014457600036600319011261014457602060ff60015460a01c166040519015158152f35b34610144576020366003190112610144576004356103ca81610149565b60018060a01b03166000526003602052602060ff604060002054166040519015158152f35b346101445760203660031901126101445760043561040c8161015a565b600460018060a01b0360206104248260005416610988565b604051630536340960e21b815293849182905afa9182156102425760009261046f575b5033911603610202576001805460ff60a01b191691151560a01b60ff60a01b16919091179055005b61048891925060203d811161023b5761022d81836109e5565b9038610447565b34610144576000366003190112610144576001546040516001600160a01b039091168152602090f35b346101445760003660031901126101445760005460405163d1f956b160e01b815290602090829060049082906001600160a01b03165afa908115610242576103089161054191600091610551575b50604051610513816109aa565b601381527267657464656c656761746f72436f756e74282960681b602082015261053b610a44565b91610d26565b6040519081529081906020820190565b610569915060203d811161023b5761022d81836109e5565b38610506565b34610144576020806003193601126101445760043561058d81610149565b60048261059e610276600054610988565b604051634bf9c0ad60e11b815292839182905afa8015610242576102d4926102b8926000926105e3575b506105db9060405193849187830161034b565b6102ce610a90565b6105db9192506105ff90863d881161023b5761022d81836109e5565b91906105c8565b3461014457602036600319011261014457600460018060a01b03602061062f8260005416610988565b604051630536340960e21b815293849182905afa91821561024257600092610666575b503391160361020257610016600435610b52565b61067f91925060203d811161023b5761022d81836109e5565b9038610652565b34610144576020366003190112610144576004356106a381610149565b803b60006106b082610a29565b926106be60405194856109e5565b82845260208401903c602d8151106106e257602a602091015160601c604051908152f35b60405163baf3f0f760e01b8152600490fd5b346101445761070236610164565b60018060a01b03600092600460208386541660405192838092630536340960e21b82525afa908115610242578591610778575b50823391160361020257168252600360205261076081604084209060ff801983541691151516179055565b156107685780f35b6001805460ff60a01b1916905580f35b610790915060203d811161023b5761022d81836109e5565b38610735565b346101445760208060031936011261014457600480356107b581610149565b60005460405163d1f956b160e01b81526001600160a01b03949093909182918591829088165afa90811561024257610308946102f694600093610816575b506040519316818401528252610808826109aa565b610810610aee565b90610cea565b61082e919350823d841161023b5761022d81836109e5565b91386107f3565b3461014457600036600319011261014457610854610276600054610988565b6040518091634bf9c0ad60e11b825281600460209485935afa8015610242576102d491600091610896575b50610888610a57565b610890610a44565b91610c53565b6108ad9150833d851161023b5761022d81836109e5565b3861087f565b34610144576020366003190112610144576004356108d081610149565b60018060a01b03166000526002602052602060ff604060002054166040519015158152f35b346101445760003660031901126101445760005460405163111ea8c160e21b815290602090829060049082906001600160a01b03165afa90811561024257610308916105419160009161096a575b50604051610950816109aa565b6005815264616765282960d81b602082015261053b610a44565b610982915060203d811161023b5761022d81836109e5565b38610943565b6001600160a01b031690565b634e487b7160e01b600052604160045260246000fd5b604081019081106001600160401b038211176109c557604052565b610994565b602081019081106001600160401b038211176109c557604052565b601f909101601f19168101906001600160401b038211908210176109c557604052565b90816020910312610144575161018981610149565b6040513d6000823e3d90fd5b6001600160401b0381116109c557601f01601f191660200190565b60405190610a51826109ca565b60008252565b60405190610a64826109aa565b6008825267697353616665282960c01b6020830152565b9081602091031261014457516101898161015a565b60405190610a9d826109aa565b601582527469735365637572654261736528616464726573732960581b6020830152565b60405190610ace826109aa565b601182527069735369676e657228616464726573732960781b6020830152565b60405190610afb826109aa565b6018825277697364656c656761746f724e6f646528616464726573732960401b6020830152565b3d15610b4d573d90610b3382610a29565b91610b4160405193846109e5565b82523d6000602084013e565b606090565b6000610b616102768254610988565b9060405180926311be646b60e21b825281600460209586935afa80156102425782808681949382948391610c36575b505af1610b9b610b22565b501561030c57600482610bb16102768454610988565b604051635e09dbe760e01b815292839182905afa908115610242577fcdcc745fe377b103b45fa0cec23ae3ef93d6fc6a84a01f0d18c40b354dd1d5d893610c149392610c19575b50506040519384526001600160a01b0316929081906020820190565b0390a2565b610c2f9250803d1061023b5761022d81836109e5565b3880610bf8565b610c4d9150883d8a1161023b5761022d81836109e5565b38610b90565b9190823b15610cd1578051906020918263ffffffff60e01b92012016916040519180830193845281519160005b838110610cbd575050509181610cad602482600097959688970187838201520360048101845201826109e5565b51915afa610cb9610b22565b9091565b818101830151858201602401528201610c80565b505050600090604051610ce3816109ca565b6000815290565b9291610cf891600094610c53565b9080610d1b575b610d065750565b61018991925060208082518301019101610a7b565b506020815114610cff565b9291610d3491600094610c53565b9080610d59575b610d425750565b909150602081805181010312610144576020015190565b506020815114610d3b56fea26469706673582212201b65b1b2c84e717242ef29aa8e2d4847f3a9953fc2e9909a7e182f357626307a64736f6c63430008140033","linkReferences":{}},"methodIdentifiers":{"Burn(uint256)":"b90306ad","_delegatorCount()":"a1f7f539","_getImplementation(address)":"c54e44b0","_isDelegatorNode(address)":"e01ad5fd","_isSafe()":"e0a9bc2b","_isSecureBase(address)":"af484526","_isSigner(address)":"1f185d16","approveSafe(bool)":"84a8d045","getBalance()":"12065fe0","getHexbase()":"3b9b7955","isSafe()":"6a276f9d","isSecureBase(address)":"ef9eab9d","isSigner(address)":"7df73e27","owner()":"8da5cb5b","safeSecureBaseCallback(address,bool)":"1d0c00e4","signerCallback(address,bool)":"dc3163e8","systemAge()":"fdc10bc9"},"id":37}