{"abi":[{"type":"constructor","inputs":[{"name":"s1","type":"address","internalType":"address"},{"name":"s2","type":"address","internalType":"address"},{"name":"s3","type":"address","internalType":"address"},{"name":"_hex","type":"address","internalType":"address"},{"name":"_securebase","type":"address[]","internalType":"address[]"}],"stateMutability":"nonpayable"},{"type":"fallback","stateMutability":"payable"},{"type":"receive","stateMutability":"payable"},{"type":"function","name":"Burn","inputs":[{"name":"amount","type":"uint256","internalType":"uint256"}],"outputs":[],"stateMutability":"nonpayable"},{"type":"function","name":"_delegatorCount","inputs":[],"outputs":[{"name":"","type":"uint256","internalType":"uint256"}],"stateMutability":"view"},{"type":"function","name":"_getImplementation","inputs":[{"name":"clone","type":"address","internalType":"address"}],"outputs":[{"name":"impl","type":"address","internalType":"address"}],"stateMutability":"view"},{"type":"function","name":"_isDelegatorNode","inputs":[{"name":"sender","type":"address","internalType":"address"}],"outputs":[{"name":"","type":"bool","internalType":"bool"}],"stateMutability":"view"},{"type":"function","name":"_isSafe","inputs":[],"outputs":[{"name":"","type":"bool","internalType":"bool"}],"stateMutability":"view"},{"type":"function","name":"_isSecureBase","inputs":[{"name":"sender","type":"address","internalType":"address"}],"outputs":[{"name":"","type":"bool","internalType":"bool"}],"stateMutability":"view"},{"type":"function","name":"_isSigner","inputs":[{"name":"sender","type":"address","internalType":"address"}],"outputs":[{"name":"","type":"bool","internalType":"bool"}],"stateMutability":"view"},{"type":"function","name":"approveSafe","inputs":[],"outputs":[],"stateMutability":"nonpayable"},{"type":"function","name":"approveSigner","inputs":[{"name":"targetSigner","type":"address","internalType":"address"},{"name":"action","type":"bool","internalType":"bool"}],"outputs":[],"stateMutability":"nonpayable"},{"type":"function","name":"getBalance","inputs":[],"outputs":[{"name":"","type":"uint256","internalType":"uint256"}],"stateMutability":"view"},{"type":"function","name":"getHexbase","inputs":[],"outputs":[{"name":"","type":"address","internalType":"address"}],"stateMutability":"view"},{"type":"function","name":"isSafe","inputs":[],"outputs":[{"name":"","type":"bool","internalType":"bool"}],"stateMutability":"view"},{"type":"function","name":"isSecureBase","inputs":[{"name":"s","type":"address","internalType":"address"}],"outputs":[{"name":"","type":"bool","internalType":"bool"}],"stateMutability":"view"},{"type":"function","name":"isSigner","inputs":[{"name":"s","type":"address","internalType":"address"}],"outputs":[{"name":"","type":"bool","internalType":"bool"}],"stateMutability":"view"},{"type":"function","name":"owner","inputs":[],"outputs":[{"name":"","type":"address","internalType":"address"}],"stateMutability":"view"},{"type":"function","name":"safeApprovalCount","inputs":[],"outputs":[{"name":"","type":"uint256","internalType":"uint256"}],"stateMutability":"view"},{"type":"function","name":"safeApproved","inputs":[{"name":"","type":"uint256","internalType":"uint256"},{"name":"","type":"address","internalType":"address"}],"outputs":[{"name":"","type":"bool","internalType":"bool"}],"stateMutability":"view"},{"type":"function","name":"safeRound","inputs":[],"outputs":[{"name":"","type":"uint256","internalType":"uint256"}],"stateMutability":"view"},{"type":"function","name":"safesecurebasecurd","inputs":[{"name":"sender","type":"address","internalType":"address"},{"name":"action","type":"bool","internalType":"bool"}],"outputs":[],"stateMutability":"nonpayable"},{"type":"function","name":"signerApproved","inputs":[{"name":"","type":"uint256","internalType":"uint256"},{"name":"","type":"address","internalType":"address"},{"name":"","type":"address","internalType":"address"}],"outputs":[{"name":"","type":"bool","internalType":"bool"}],"stateMutability":"view"},{"type":"function","name":"signerProposal","inputs":[{"name":"","type":"address","internalType":"address"}],"outputs":[{"name":"action","type":"bool","internalType":"bool"},{"name":"approvals","type":"uint256","internalType":"uint256"},{"name":"executed","type":"bool","internalType":"bool"},{"name":"round","type":"uint256","internalType":"uint256"}],"stateMutability":"view"},{"type":"function","name":"signerRound","inputs":[],"outputs":[{"name":"","type":"uint256","internalType":"uint256"}],"stateMutability":"view"},{"type":"function","name":"syncBaseAddr","inputs":[],"outputs":[],"stateMutability":"nonpayable"},{"type":"function","name":"systemAge","inputs":[],"outputs":[{"name":"","type":"uint256","internalType":"uint256"}],"stateMutability":"view"},{"type":"function","name":"totalSigners","inputs":[],"outputs":[{"name":"","type":"uint256","internalType":"uint256"}],"stateMutability":"view"},{"type":"event","name":"EthBurned","inputs":[{"name":"sender","type":"address","indexed":true,"internalType":"address"},{"name":"amount","type":"uint256","indexed":false,"internalType":"uint256"}],"anonymous":false},{"type":"event","name":"EthTransferred","inputs":[{"name":"to","type":"address","indexed":true,"internalType":"address"},{"name":"amount","type":"uint256","indexed":false,"internalType":"uint256"}],"anonymous":false},{"type":"event","name":"HexBaseUpdated","inputs":[{"name":"previousHexBase","type":"address","indexed":true,"internalType":"address"},{"name":"newHexBase","type":"address","indexed":true,"internalType":"address"}],"anonymous":false},{"type":"event","name":"OwnerUpdated","inputs":[{"name":"previousOwner","type":"address","indexed":true,"internalType":"address"},{"name":"newOwner","type":"address","indexed":true,"internalType":"address"}],"anonymous":false},{"type":"event","name":"SafeApproval","inputs":[{"name":"signer","type":"address","indexed":true,"internalType":"address"},{"name":"approvals","type":"uint256","indexed":false,"internalType":"uint256"},{"name":"required","type":"uint256","indexed":false,"internalType":"uint256"}],"anonymous":false},{"type":"event","name":"SafeStatusChanged","inputs":[{"name":"status","type":"bool","indexed":false,"internalType":"bool"}],"anonymous":false},{"type":"event","name":"SecureBaseUpdated","inputs":[{"name":"user","type":"address","indexed":true,"internalType":"address"},{"name":"action","type":"bool","indexed":false,"internalType":"bool"}],"anonymous":false},{"type":"event","name":"SignerApproval","inputs":[{"name":"approver","type":"address","indexed":true,"internalType":"address"},{"name":"targetSigner","type":"address","indexed":true,"internalType":"address"},{"name":"action","type":"bool","indexed":false,"internalType":"bool"},{"name":"approvals","type":"uint256","indexed":false,"internalType":"uint256"}],"anonymous":false},{"type":"event","name":"SignerUpdated","inputs":[{"name":"targetSigner","type":"address","indexed":true,"internalType":"address"},{"name":"action","type":"bool","indexed":false,"internalType":"bool"}],"anonymous":false},{"type":"error","name":"CallFailed","inputs":[]},{"type":"error","name":"InvalidAddress","inputs":[]},{"type":"error","name":"InvalidState","inputs":[]},{"type":"error","name":"NotAuthorized","inputs":[]},{"type":"error","name":"NotSafe","inputs":[]},{"type":"error","name":"TargetCallFailed","inputs":[{"name":"selector","type":"bytes4","internalType":"bytes4"}]}],"bytecode":{"object":"0x604060808152346200022a5762001941803803806200001e8162000245565b928339810160a0828203126200022a5762000039826200026b565b602090620000498285016200026b565b91620000578686016200026b565b9462000066606082016200026b565b608082015190916001600160401b0391908282116200022a57019580601f880112156200022a5786519182116200022f5760059682881b908580620000ad81850162000245565b8096815201928201019283116200022a5785809101915b8383106200020f575050506001600160a01b039283169790508715620001fe5760018060a01b03199560019833888b5416178a556000978854161787558360ff19968a88600d541617600d551680158015620001f3575b8015620001e8575b620001d7578752600f8552898720805487168a1790558316865288862080548616891790558216855287852080548516881790556003601055805195855b878110620001785789516116c09081620002818239f35b8251811015620001c35780821b830185015184168752600e8552898720805487168a1790556000198114620001af57880162000161565b634e487b7160e01b87526011600452602487fd5b634e487b7160e01b87526032600452602487fd5b8a5163e6c4247b60e01b8152600490fd5b508483161562000123565b50848216156200011b565b885163e6c4247b60e01b8152600490fd5b81906200021c846200026b565b8152019101908590620000c4565b600080fd5b634e487b7160e01b600052604160045260246000fd5b6040519190601f01601f191682016001600160401b038111838210176200022f57604052565b51906001600160a01b03821682036200022a5756fe60806040526004361015610018575b361561001657005b005b60003560e01c80630a0d32ca146101a857806312065fe0146101a3578063198e206d1461019e5780631f185d1614610199578063339459a6146101945780633b9b79551461018f57806342f693db1461018a57806360bcf662146101855780636a276f9d146101805780637df73e271461017b57806388f87759146101765780638da5cb5b146101715780638f41f4e61461016c5780639dcba53014610167578063a1f7f53914610162578063af4845261461015d578063b72d419514610158578063b8df453314610153578063b90306ad1461014e578063c54e44b014610149578063d1a6264814610144578063e01ad5fd1461013f578063e0a9bc2b1461013a578063ef9eab9d146101355763fdc10bc90361000e576110e4565b6110a2565b61107d565b610fb6565b610f98565b610f2a565b610e42565b610e24565b610e06565b610d8f565b610d25565b610cbc565b610c9e565b610c75565b610c2d565b610beb565b610bc8565b610abb565b6109fb565b6109d2565b610605565b61053e565b610292565b610244565b610200565b6001600160a01b031690565b6001600160a01b038116036101ca57565b600080fd5b6001600160a01b03166000908152600f6020526040902090565b9060018060a01b0316600052602052604060002090565b346101ca5760403660031901126101ca57602060ff610238602435610224816101b9565b6004356000526013845260406000206101e9565b54166040519015158152f35b346101ca5760003660031901126101ca57602047604051908152f35b801515036101ca57565b60409060031901126101ca57600435610282816101b9565b9060243561028f81610260565b90565b346101ca576102a03661026a565b33600052600f602052604060ff8160002054161561052e576001600160a01b03831692831561051d576001600160a01b038116600090815260146020526040902060028101906102f1825460ff1690565b801561050d575b156104ed57805460ff191660ff8615151617815560006001820155815460ff1916825560165460038201555b60165461035261034b3361034687610346866000526015602052604060002090565b6101e9565b5460ff1690565b6104dc5760029161038861037b6001936103468861034633936000526015602052604060002090565b805460ff19166001179055565b0161039381546115d9565b908190558451861515815260208101829052879033907ff8c8cd35a98d3e7fc3355d901460945a800b136955f0ce345ed35692537ee2ce90604090a310156103d757005b805460ff191660011790558215610464576103f461034b826101cf565b610453579161044e9161041861037b60008051602061166b833981519152956101cf565b61042b6104266010546115d9565b601055565b61043e6104396016546115d9565b601655565b5191829182901515815260200190565b0390a2005b815163baf3f0f760e01b8152600490fd5b61047761047361034b836101cf565b1590565b6104cb5760016010541115610453579161044e916104b06104a660008051602061166b833981519152956101cf565b805460ff19169055565b6104be610426601054611602565b6104c661160f565b61042b565b815163ea8e4eb560e01b8152600490fd5b845163baf3f0f760e01b8152600490fd5b805460ff1615158515151461032457835163baf3f0f760e01b8152600490fd5b50600381015460165414156102f8565b815163e6c4247b60e01b8152600490fd5b5163ea8e4eb560e01b8152600490fd5b346101ca576020806003193601126101ca576105b160043561055f816101b9565b6002546040516001600160a01b0392831685820152848152911661058282611146565b6040519061058f82611146565b601182527069735369676e657228616464726573732960781b858301526114ee565b9190806105fb575b156105e95781816105d3926105e594518301019101611437565b60405191829182901515815260200190565b0390f35b604051633204506f60e01b8152600490fd5b50808251146105b9565b346101ca576000806003193601126109cf5761062961062482546101ad565b6101ad565b60408051634bf9c0ad60e11b81529160049190602080858581855afa9485156108965786956109b0575b50825163cfbffe5360e01b81529281848681865afa938415610896578794610991575b50805163ab6e844f60e01b815282818781875afa908115610896578891610974575b508151630536340960e21b815283818881885afa908115610896578991610957575b50825163d1f956b160e01b81529084828981895afa918215610896578a92610938575b508351631cc3bfab60e31b81529285848a818a5afa938415610896578b94610919575b50845163e09d394d60e01b81529486868b818b5afa958615610896578c966108fa575b5080516314ac1b5960e21b815298878a8c818c5afa9788156108965761076a9a8e996108db575b50808c8451809d819263013cf08b60e01b83528201906000602083019252565b03818d5afa998a15610896578c9b8f9b6108bc575b50818451809d635e09dbe760e01b825281845afa9b8c15610896578f9c61089b575b50819084519d8e8092635506ee0b60e11b82525afa9b8c15610896578e9c610867575b506107cd6111c5565b9c6107d8908e6111e5565b8c01906107e4916111e5565b8a01906107f0916111e5565b6107fd9060608a016111e5565b61080a90608089016111e5565b6108179060a088016111e5565b6108249060c087016111e5565b6108319060e086016111e5565b61083f9061010085016111e5565b61084d9061012084016111e5565b61085b9061014083016111e5565b610864906111f4565b80f35b81610888929d508d3d1061088f575b6108808183611181565b8101906111a4565b9a386107c4565b503d610876565b6111b9565b82919c506108b590823d841161088f576108808183611181565b9b906107a1565b6108d4919b50823d841161088f576108808183611181565b993861077f565b816108f3929a503d8b1161088f576108808183611181565b973861074a565b610912919650873d891161088f576108808183611181565b9438610723565b610931919450863d881161088f576108808183611181565b9238610700565b610950919250853d871161088f576108808183611181565b90386106dd565b61096e9150843d861161088f576108808183611181565b386106ba565b61098b9150833d851161088f576108808183611181565b38610698565b6109a9919450823d841161088f576108808183611181565b9238610676565b816109c89296503d871161088f576108808183611181565b9338610653565b80fd5b346101ca5760003660031901126101ca576000546040516001600160a01b039091168152602090f35b346101ca57610a093661026a565b90610a1261144c565b15610aa9576005546001600160a01b03919082163303610a975716908115610a855760207fa65933db1726765ba3710fce8d88f0eae1bce0b3609d21f958a3e0e9daa8717d9183600052600e8252610a7a8160406000209060ff801983541691151516179055565b6040519015158152a2005b60405163e6c4247b60e01b8152600490fd5b60405163ea8e4eb560e01b8152600490fd5b604051634ee2123760e11b8152600490fd5b346101ca576000806003193601126109cf57338152600f602052604060ff81832054161561052e57600d5460ff16610bb857601154610b0b61034b33610346846000526013602052604060002090565b6104535761037b610b2b9161034633916000526013602052604060002090565b610b3e610b396012546115d9565b601255565b60125460105482518281526020810182905290919033907f20671cfeca0a197284b9e2d72d8b6e1e147012ff9c4c4970975ab2f3660d905190604090a21015610b85575080f35b60008051602061164b83398151915290610ba7600160ff19600d541617600d55565b5160018152602090a16108646115ed565b5163baf3f0f760e01b8152600490fd5b346101ca5760003660031901126101ca57602060ff600d54166040519015158152f35b346101ca5760203660031901126101ca57600435610c08816101b9565b60018060a01b0316600052600f602052602060ff604060002054166040519015158152f35b346101ca5760603660031901126101ca57602060ff610238602435610c51816101b9565b61034660443591610c61836101b9565b6004356000526015865260406000206101e9565b346101ca5760003660031901126101ca576001546040516001600160a01b039091168152602090f35b346101ca5760003660031901126101ca576020601654604051908152f35b346101ca5760203660031901126101ca57600435610cd9816101b9565b60018060a01b031660005260146020526080604060002060ff81541690600181015490600360ff6002830154169101549160405193151584526020840152151560408301526060820152f35b346101ca5760003660031901126101ca576020610d8760018060a01b0360065416604051610d5281611146565b601381527267657464656c656761746f72436f756e74282960681b8482015260405191610d7e83611166565b60008352611585565b604051908152f35b346101ca576020806003193601126101ca576105b1600435610db0816101b9565b6002546040516001600160a01b03928316858201528481529116610dd382611146565b60405190610de082611146565b601582527469735365637572654261736528616464726573732960581b858301526114ee565b346101ca5760003660031901126101ca576020601154604051908152f35b346101ca5760003660031901126101ca576020601254604051908152f35b346101ca5760203660031901126101ca57600435610e5e61144c565b15610aa9576005546001600160a01b03163303610a975760009060046020610e8961062485546101ad565b6040516311be646b60e21b815292839182905afa80156108965783808481949382948391610f0c575b505af1610ebd6114be565b50156105e9577fcdcc745fe377b103b45fa0cec23ae3ef93d6fc6a84a01f0d18c40b354dd1d5d8610f06610ef5610624600b546101ad565b604051938452929081906020820190565b0390a280f35b610f24915060203d811161088f576108808183611181565b38610eb2565b346101ca5760203660031901126101ca57600435610f47816101b9565b803b6000610f548261141c565b92610f626040519485611181565b82845260208401903c602d815110610f8657602a602091015160601c604051908152f35b60405163baf3f0f760e01b8152600490fd5b346101ca5760003660031901126101ca576020601054604051908152f35b346101ca576020806003193601126101ca576105e59060043590610fd9826101b9565b6006546040516001600160a01b03938416838201528281529216916110399061100181611146565b60405161100d81611146565b6018815277697364656c656761746f724e6f646528616464726573732960401b848201526000946114ee565b919080611073575b61105a575b505060405191829182901515815260200190565b61106c92508082518301019101611437565b3880611046565b5080825114611041565b346101ca5760003660031901126101ca57602061109861144c565b6040519015158152f35b346101ca5760203660031901126101ca576004356110bf816101b9565b60018060a01b0316600052600e602052602060ff604060002054166040519015158152f35b346101ca5760003660031901126101ca576020610d8760018060a01b036003541660405161111181611146565b600681526569416765282960d01b8482015260405191610d7e83611166565b634e487b7160e01b600052604160045260246000fd5b604081019081106001600160401b0382111761116157604052565b611130565b602081019081106001600160401b0382111761116157604052565b601f909101601f19168101906001600160401b0382119082101761116157604052565b908160209103126101ca575161028f816101b9565b6040513d6000823e3d90fd5b6040519061016082016001600160401b0381118382101761116157604052565b6001600160a01b039091169052565b6113f861014061141a9261122d61120b82516101ad565b600280546001600160a01b0319166001600160a01b0392909216919091179055565b61125f61123d60208301516101ad565b600380546001600160a01b0319166001600160a01b0392909216919091179055565b61129161126f60408301516101ad565b600480546001600160a01b0319166001600160a01b0392909216919091179055565b6112c36112a160608301516101ad565b600580546001600160a01b0319166001600160a01b0392909216919091179055565b6112f56112d360808301516101ad565b600680546001600160a01b0319166001600160a01b0392909216919091179055565b61132761130560a08301516101ad565b600780546001600160a01b0319166001600160a01b0392909216919091179055565b61135961133760c08301516101ad565b600880546001600160a01b0319166001600160a01b0392909216919091179055565b61138b61136960e08301516101ad565b600980546001600160a01b0319166001600160a01b0392909216919091179055565b6113be61139c6101008301516101ad565b600a80546001600160a01b0319166001600160a01b0392909216919091179055565b6113f16113cf6101208301516101ad565b600b80546001600160a01b0319166001600160a01b0392909216919091179055565b01516101ad565b600c80546001600160a01b0319166001600160a01b0392909216919091179055565b565b6001600160401b03811161116157601f01601f191660200190565b908160209103126101ca575161028f81610260565b600254604051611494916001600160a01b03169061146981611146565b6008815267697353616665282960c01b60208201526040519161148b83611166565b600083526114ee565b90806114b3575b156105e9578060208061028f93518301019101611437565b50602081511461149b565b3d156114e9573d906114cf8261141c565b916114dd6040519384611181565b82523d6000602084013e565b606090565b9190823b1561156c578051906020918263ffffffff60e01b92012016916040519180830193845281519160005b83811061155857505050918161154860248260009795968897018783820152036004810184520182611181565b51915afa6115546114be565b9091565b81810183015185820160240152820161151b565b50505060009060405161157e81611166565b6000815290565b9291611593916000946114ee565b90806115b8575b6115a15750565b9091506020818051810103126101ca576020015190565b50602081511461159a565b634e487b7160e01b600052601160045260246000fd5b60001981146115e85760010190565b6115c3565b6115f86011546115d9565b6011556000601255565b80156115e8576000190190565b600d5460ff8116611624575b5061141a6115ed565b60ff1916600d5560008051602061164b833981519152602060405160008152a13861161b56fe076cac55475ef0bf37a3223aa6260a31b7df55505a72abbd629afe9f79b1d5b2fcaa24b1276bfa7dbf77797c0a984b9df924acbeaabd48cd2f1b0eca379b78faa2646970667358221220f85e1513704f11a9e15c70cbfdeeffdd328f8203c90de548282529c3ac3d20cd64736f6c63430008140033","linkReferences":{}},"methodIdentifiers":{"Burn(uint256)":"b90306ad","_delegatorCount()":"a1f7f539","_getImplementation(address)":"c54e44b0","_isDelegatorNode(address)":"e01ad5fd","_isSafe()":"e0a9bc2b","_isSecureBase(address)":"af484526","_isSigner(address)":"1f185d16","approveSafe()":"60bcf662","approveSigner(address,bool)":"198e206d","getBalance()":"12065fe0","getHexbase()":"3b9b7955","isSafe()":"6a276f9d","isSecureBase(address)":"ef9eab9d","isSigner(address)":"7df73e27","owner()":"8da5cb5b","safeApprovalCount()":"b8df4533","safeApproved(uint256,address)":"0a0d32ca","safeRound()":"b72d4195","safesecurebasecurd(address,bool)":"42f693db","signerApproved(uint256,address,address)":"88f87759","signerProposal(address)":"9dcba530","signerRound()":"8f41f4e6","syncBaseAddr()":"339459a6","systemAge()":"fdc10bc9","totalSigners()":"d1a62648"},"id":10}