{"abi":[{"type":"constructor","inputs":[{"name":"s1","type":"address","internalType":"address"},{"name":"s2","type":"address","internalType":"address"},{"name":"s3","type":"address","internalType":"address"},{"name":"_hex","type":"address","internalType":"address"},{"name":"_securebase","type":"address[]","internalType":"address[]"}],"stateMutability":"nonpayable"},{"type":"fallback","stateMutability":"payable"},{"type":"receive","stateMutability":"payable"},{"type":"function","name":"Burn","inputs":[{"name":"amount","type":"uint256","internalType":"uint256"}],"outputs":[],"stateMutability":"nonpayable"},{"type":"function","name":"_delegatorCount","inputs":[],"outputs":[{"name":"","type":"uint256","internalType":"uint256"}],"stateMutability":"view"},{"type":"function","name":"_getImplementation","inputs":[{"name":"clone","type":"address","internalType":"address"}],"outputs":[{"name":"impl","type":"address","internalType":"address"}],"stateMutability":"view"},{"type":"function","name":"_isDelegatorNode","inputs":[{"name":"sender","type":"address","internalType":"address"}],"outputs":[{"name":"","type":"bool","internalType":"bool"}],"stateMutability":"view"},{"type":"function","name":"_isSafe","inputs":[],"outputs":[{"name":"","type":"bool","internalType":"bool"}],"stateMutability":"view"},{"type":"function","name":"_isSecureBase","inputs":[{"name":"sender","type":"address","internalType":"address"}],"outputs":[{"name":"","type":"bool","internalType":"bool"}],"stateMutability":"view"},{"type":"function","name":"_isSigner","inputs":[{"name":"sender","type":"address","internalType":"address"}],"outputs":[{"name":"","type":"bool","internalType":"bool"}],"stateMutability":"view"},{"type":"function","name":"approveSafe","inputs":[{"name":"action","type":"bool","internalType":"bool"}],"outputs":[],"stateMutability":"nonpayable"},{"type":"function","name":"getBalance","inputs":[],"outputs":[{"name":"","type":"uint256","internalType":"uint256"}],"stateMutability":"view"},{"type":"function","name":"getHexbase","inputs":[],"outputs":[{"name":"","type":"address","internalType":"address"}],"stateMutability":"view"},{"type":"function","name":"isSafe","inputs":[],"outputs":[{"name":"","type":"bool","internalType":"bool"}],"stateMutability":"view"},{"type":"function","name":"isSecureBase","inputs":[{"name":"s","type":"address","internalType":"address"}],"outputs":[{"name":"","type":"bool","internalType":"bool"}],"stateMutability":"view"},{"type":"function","name":"isSigner","inputs":[{"name":"s","type":"address","internalType":"address"}],"outputs":[{"name":"","type":"bool","internalType":"bool"}],"stateMutability":"view"},{"type":"function","name":"owner","inputs":[],"outputs":[{"name":"","type":"address","internalType":"address"}],"stateMutability":"view"},{"type":"function","name":"safeSecureBaseCallback","inputs":[{"name":"sender","type":"address","internalType":"address"},{"name":"action","type":"bool","internalType":"bool"}],"outputs":[],"stateMutability":"nonpayable"},{"type":"function","name":"signerCallback","inputs":[{"name":"_singer","type":"address","internalType":"address"},{"name":"action","type":"bool","internalType":"bool"}],"outputs":[],"stateMutability":"nonpayable"},{"type":"function","name":"systemAge","inputs":[],"outputs":[{"name":"","type":"uint256","internalType":"uint256"}],"stateMutability":"view"},{"type":"event","name":"EthBurned","inputs":[{"name":"sender","type":"address","indexed":true,"internalType":"address"},{"name":"amount","type":"uint256","indexed":false,"internalType":"uint256"}],"anonymous":false},{"type":"event","name":"EthTransferred","inputs":[{"name":"to","type":"address","indexed":true,"internalType":"address"},{"name":"amount","type":"uint256","indexed":false,"internalType":"uint256"}],"anonymous":false},{"type":"event","name":"HexBaseUpdated","inputs":[{"name":"previousHexBase","type":"address","indexed":true,"internalType":"address"},{"name":"newHexBase","type":"address","indexed":true,"internalType":"address"}],"anonymous":false},{"type":"event","name":"OwnerUpdated","inputs":[{"name":"previousOwner","type":"address","indexed":true,"internalType":"address"},{"name":"newOwner","type":"address","indexed":true,"internalType":"address"}],"anonymous":false},{"type":"error","name":"TargetCallFailed","inputs":[{"name":"selector","type":"bytes4","internalType":"bytes4"}]}],"bytecode":{"object":"0x604060808152346200021a5762001125803803806200001e8162000235565b928339810160a0828203126200021a5762000039826200025b565b602090620000498285016200025b565b91620000578686016200025b565b9462000066606082016200025b565b608082015190916001600160401b0391908282116200021a57019580601f880112156200021a5786519182116200021f5760059682881b908580620000ad81850162000235565b8096815201928201019283116200021a5785809101915b838310620001ff575050506001600160a01b039283169790508715620001bb5782908160018060a01b03199760019a338a8d5416178c556000998a54161789558160ff19988c8a60035416176003551689528987528b89208b8982541617905516875289872089878254161790551685528785208785825416179055805195855b8781106200015c578951610eb49081620002718239f35b8251811015620001a75780821b83018501518416875260048552898720805487168a17905560001981146200019357880162000145565b634e487b7160e01b87526011600452602487fd5b634e487b7160e01b87526032600452602487fd5b885162461bcd60e51b815260048101859052601360248201527f6f776e2e696e76616c69642e68657862617365000000000000000000000000006044820152606490fd5b81906200020c846200025b565b8152019101908590620000c4565b600080fd5b634e487b7160e01b600052604160045260246000fd5b6040519190601f01601f191682016001600160401b038111838210176200021f57604052565b51906001600160a01b03821682036200021a5756fe60806040526004361015610018575b361561001657005b005b60003560e01c806312065fe0146101285780631d0c00e4146101235780631f185d161461011e5780633b9b7955146101195780636a276f9d146101145780637df73e271461010f57806384a8d0451461010a5780638da5cb5b14610105578063a1f7f53914610100578063af484526146100fb578063b90306ad146100f6578063c54e44b0146100f1578063dc3163e8146100ec578063e01ad5fd146100e7578063e0a9bc2b146100e2578063ef9eab9d146100dd5763fdc10bc90361000e576109c5565b610983565b6108e1565b610842565b6107bf565b610726565b610627565b610552565b61049b565b610472565b6103dc565b61039a565b610377565b61034e565b61023a565b61018c565b3461014457600036600319011261014457602047604051908152f35b600080fd5b6001600160a01b0381160361014457565b8015150361014457565b60409060031901126101445760043561017c81610149565b906024356101898161015a565b90565b3461014457600461019c36610164565b60008054604051630536340960e21b8152919491936001600160a01b039290916020918691829086165afa93841561023557610204946101e7918791610207575b5083163314610cbe565b1683526004602052604083209060ff801983541691151516179055565b80f35b610228915060203d811161022e575b6102208183610aab565b810190610acd565b386101dd565b503d610216565b610ae2565b34610144576020806003193601126101445760049081359061025b82610149565b600054819061027a906001600160a01b03165b6001600160a01b031690565b604051634bf9c0ad60e11b815294859182905afa918215610235576102d161030b936102ed9261031d9660009261032b575b506040516001600160a01b0390911685820190815290926102df918491602090910190565b03601f198101845283610aab565b6102e7610c1f565b90610d6a565b919080610321575b6102fe90610c4c565b8082518301019101610b8d565b60405190151581529081906020820190565b0390f35b50815181146102f5565b6102df91925061034790863d881161022e576102208183610aab565b91906102ac565b34610144576000366003190112610144576000546040516001600160a01b039091168152602090f35b3461014457600036600319011261014457602060ff600354166040519015158152f35b34610144576020366003190112610144576004356103b781610149565b60018060a01b03166000526005602052602060ff604060002054166040519015158152f35b34610144576020366003190112610144576004356103f98161015a565b600054604051630536340960e21b8152906001600160a01b03906020908390600490829085165afa9081156102355761043d92600092610452575b50163314610cbe565b60ff8019600354169115151617600355600080f35b61046b91925060203d811161022e576102208183610aab565b9038610434565b34610144576000366003190112610144576001546040516001600160a01b039091168152602090f35b346101445760003660031901126101445760005460405163d1f956b160e01b815290602090829060049082906001600160a01b03165afa9081156102355761031d9161052491600091610534575b506040516104f681610a6e565b601381527267657464656c656761746f72436f756e74282960681b602082015261051e610b0a565b91610e40565b6040519081529081906020820190565b61054c915060203d811161022e576102208183610aab565b386104e9565b34610144576020806003193601126101445760049081359061057382610149565b600054819061058a906001600160a01b031661026e565b604051634bf9c0ad60e11b815294859182905afa918215610235576102d161030b936105e99261031d96600092610604575b506040516001600160a01b0390911685820190815290926105e1918491602090910190565b6102e7610ba2565b9190806105fa575b6102fe90610bd3565b50815181146105f1565b6105e191925061062090863d881161022e576102208183610aab565b91906105bc565b34610144576020806003193601126101445760043560018060a01b0391600092808454169060405191630536340960e21b83528383600481845afa92831561023557600493859361068192899261070e5750163314610cbe565b6040516311be646b60e21b815292839182905afa918215610235578480856106c0958295839584926106f1575b50505af16106ba610cfc565b50610d2c565b60405190815233907fcdcc745fe377b103b45fa0cec23ae3ef93d6fc6a84a01f0d18c40b354dd1d5d890602090a280f35b6107079250803d1061022e576102208183610aab565b38806106ae565b61046b919250853d871161022e576102208183610aab565b346101445760203660031901126101445760043561074381610149565b803b600061075082610aee565b9261075e6040519485610aab565b82845260208401903c602d81511061078457602a015160405160609190911c8152602090f35b60405162461bcd60e51b81526020600482015260136024820152724e6f742061206d696e696d616c2070726f787960681b6044820152606490fd5b34610144576107cd36610164565b60018060a01b03600092600460208386541660405192838092630536340960e21b82525afa80156102355761080c918691610207575083163314610cbe565b168252600560205261082d81604084209060ff801983541691151516179055565b156108355780f35b60ff196003541660035580f35b3461014457602080600319360112610144576004803561086181610149565b60005460405163d1f956b160e01b81526001600160a01b03949093909182918591829088165afa9081156102355761031d9461030b946000936108c2575b5060405193168184015282526108b482610a6e565b6108bc610c91565b90610e04565b6108da919350823d841161022e576102208183610aab565b913861089f565b3461014457600036600319011261014457600054604051634bf9c0ad60e11b8152906020908190839060049082906001600160a01b03165afa9081156102355761094b61030b9261031d94600091610966575b5061093d610b1d565b610945610b0a565b91610d6a565b91908061095c575b6102fe90610b41565b5081518114610953565b61097d9150833d851161022e576102208183610aab565b38610934565b34610144576020366003190112610144576004356109a081610149565b60018060a01b03166000526004602052602060ff604060002054166040519015158152f35b346101445760003660031901126101445760005460405163111ea8c160e21b815290602090829060049082906001600160a01b03165afa9081156102355761031d9161052491600091610a3a575b50604051610a2081610a6e565b6005815264616765282960d81b602082015261051e610b0a565b610a52915060203d811161022e576102208183610aab565b38610a13565b634e487b7160e01b600052604160045260246000fd5b6040810190811067ffffffffffffffff821117610a8a57604052565b610a58565b6020810190811067ffffffffffffffff821117610a8a57604052565b90601f8019910116810190811067ffffffffffffffff821117610a8a57604052565b90816020910312610144575161018981610149565b6040513d6000823e3d90fd5b67ffffffffffffffff8111610a8a57601f01601f191660200190565b60405190610b1782610a8f565b60008252565b60405190610b2a82610a6e565b6008825267697353616665282960c01b6020830152565b15610b4857565b60405162461bcd60e51b815260206004820152601960248201527f6f776e2e7361666567756172642e63616c6c2e6661696c6564000000000000006044820152606490fd5b9081602091031261014457516101898161015a565b60405190610baf82610a6e565b601582527469735365637572654261736528616464726573732960581b6020830152565b15610bda57565b60405162461bcd60e51b815260206004820152601a60248201527f6f776e2e736563757265626173652e63616c6c2e6661696c65640000000000006044820152606490fd5b60405190610c2c82610a6e565b601182527069735369676e657228616464726573732960781b6020830152565b15610c5357565b60405162461bcd60e51b81526020600482015260166024820152751bdddb8b9cda59db995c8b98d85b1b0b99985a5b195960521b6044820152606490fd5b60405190610c9e82610a6e565b6011825270697364656c656761746f724e6f6465282960781b6020830152565b15610cc557565b60405162461bcd60e51b815260206004820152600f60248201526e6f776e2e6e6f6e617574682e44414f60881b6044820152606490fd5b3d15610d27573d90610d0d82610aee565b91610d1b6040519384610aab565b82523d6000602084013e565b606090565b15610d3357565b60405162461bcd60e51b815260206004820152600f60248201526e1bdddb8b989d5c9b8b99985a5b1959608a1b6044820152606490fd5b9190823b15610deb578051906020918263ffffffff60e01b92012016916040519180830193845281519160005b838110610dd7575050509181610dc460248260009795968897018783820152036004810184520182610aab565b5191620dbba0fa610dd3610cfc565b9091565b818101830151858201602401528201610d97565b505050600090604051610dfd81610a8f565b6000815290565b9291610e1291600094610d6a565b9080610e35575b610e205750565b61018991925060208082518301019101610b8d565b506020815114610e19565b9291610e4e91600094610d6a565b9080610e73575b610e5c5750565b909150602081805181010312610144576020015190565b506020815114610e5556fea264697066735822122037dc12b29a68a950a16d3b1859eb5bad9a822fb938dbda545a77b0d0ff24e8ea64736f6c63430008140033","linkReferences":{}},"methodIdentifiers":{"Burn(uint256)":"b90306ad","_delegatorCount()":"a1f7f539","_getImplementation(address)":"c54e44b0","_isDelegatorNode(address)":"e01ad5fd","_isSafe()":"e0a9bc2b","_isSecureBase(address)":"af484526","_isSigner(address)":"1f185d16","approveSafe(bool)":"84a8d045","getBalance()":"12065fe0","getHexbase()":"3b9b7955","isSafe()":"6a276f9d","isSecureBase(address)":"ef9eab9d","isSigner(address)":"7df73e27","owner()":"8da5cb5b","safeSecureBaseCallback(address,bool)":"1d0c00e4","signerCallback(address,bool)":"dc3163e8","systemAge()":"fdc10bc9"},"id":37}