{"abi":[{"type":"constructor","inputs":[{"name":"s1","type":"address","internalType":"address"},{"name":"s2","type":"address","internalType":"address"},{"name":"s3","type":"address","internalType":"address"},{"name":"_hex","type":"address","internalType":"address"},{"name":"_securebase","type":"address[]","internalType":"address[]"}],"stateMutability":"nonpayable"},{"type":"fallback","stateMutability":"payable"},{"type":"receive","stateMutability":"payable"},{"type":"function","name":"Burn","inputs":[{"name":"amount","type":"uint256","internalType":"uint256"}],"outputs":[],"stateMutability":"nonpayable"},{"type":"function","name":"_delegatorCount","inputs":[],"outputs":[{"name":"","type":"uint256","internalType":"uint256"}],"stateMutability":"view"},{"type":"function","name":"_getImplementation","inputs":[{"name":"clone","type":"address","internalType":"address"}],"outputs":[{"name":"impl","type":"address","internalType":"address"}],"stateMutability":"view"},{"type":"function","name":"_isDelegatorNode","inputs":[{"name":"sender","type":"address","internalType":"address"}],"outputs":[{"name":"","type":"bool","internalType":"bool"}],"stateMutability":"view"},{"type":"function","name":"_isSafe","inputs":[],"outputs":[{"name":"","type":"bool","internalType":"bool"}],"stateMutability":"view"},{"type":"function","name":"_isSecureBase","inputs":[{"name":"sender","type":"address","internalType":"address"}],"outputs":[{"name":"","type":"bool","internalType":"bool"}],"stateMutability":"view"},{"type":"function","name":"_isSigner","inputs":[{"name":"sender","type":"address","internalType":"address"}],"outputs":[{"name":"","type":"bool","internalType":"bool"}],"stateMutability":"view"},{"type":"function","name":"approveSafe","inputs":[{"name":"action","type":"bool","internalType":"bool"}],"outputs":[],"stateMutability":"nonpayable"},{"type":"function","name":"getBalance","inputs":[],"outputs":[{"name":"","type":"uint256","internalType":"uint256"}],"stateMutability":"view"},{"type":"function","name":"getHexbase","inputs":[],"outputs":[{"name":"","type":"address","internalType":"address"}],"stateMutability":"view"},{"type":"function","name":"isSafe","inputs":[],"outputs":[{"name":"","type":"bool","internalType":"bool"}],"stateMutability":"view"},{"type":"function","name":"isSecureBase","inputs":[{"name":"s","type":"address","internalType":"address"}],"outputs":[{"name":"","type":"bool","internalType":"bool"}],"stateMutability":"view"},{"type":"function","name":"isSigner","inputs":[{"name":"s","type":"address","internalType":"address"}],"outputs":[{"name":"","type":"bool","internalType":"bool"}],"stateMutability":"view"},{"type":"function","name":"owner","inputs":[],"outputs":[{"name":"","type":"address","internalType":"address"}],"stateMutability":"view"},{"type":"function","name":"safeSecureBaseCallback","inputs":[{"name":"sender","type":"address","internalType":"address"},{"name":"action","type":"bool","internalType":"bool"}],"outputs":[],"stateMutability":"nonpayable"},{"type":"function","name":"signerCallback","inputs":[{"name":"_singer","type":"address","internalType":"address"},{"name":"action","type":"bool","internalType":"bool"}],"outputs":[],"stateMutability":"nonpayable"},{"type":"function","name":"syncBaseAddr","inputs":[],"outputs":[],"stateMutability":"nonpayable"},{"type":"function","name":"systemAge","inputs":[],"outputs":[{"name":"","type":"uint256","internalType":"uint256"}],"stateMutability":"view"},{"type":"event","name":"EthBurned","inputs":[{"name":"sender","type":"address","indexed":true,"internalType":"address"},{"name":"amount","type":"uint256","indexed":false,"internalType":"uint256"}],"anonymous":false},{"type":"event","name":"EthTransferred","inputs":[{"name":"to","type":"address","indexed":true,"internalType":"address"},{"name":"amount","type":"uint256","indexed":false,"internalType":"uint256"}],"anonymous":false},{"type":"event","name":"HexBaseUpdated","inputs":[{"name":"previousHexBase","type":"address","indexed":true,"internalType":"address"},{"name":"newHexBase","type":"address","indexed":true,"internalType":"address"}],"anonymous":false},{"type":"event","name":"OwnerUpdated","inputs":[{"name":"previousOwner","type":"address","indexed":true,"internalType":"address"},{"name":"newOwner","type":"address","indexed":true,"internalType":"address"}],"anonymous":false},{"type":"error","name":"CallFailed","inputs":[]},{"type":"error","name":"InvalidAddress","inputs":[]},{"type":"error","name":"InvalidState","inputs":[]},{"type":"error","name":"NotAuthorized","inputs":[]},{"type":"error","name":"NotSafe","inputs":[]},{"type":"error","name":"TargetCallFailed","inputs":[{"name":"selector","type":"bytes4","internalType":"bytes4"}]}],"bytecode":{"object":"0x60406080815234620001e457620014dc803803806200001e81620001ff565b928339810160a082820312620001e457620000398262000225565b6020906200004982850162000225565b6200005686860162000225565b92620000656060870162000225565b60808701516001600160401b0397888211620001e457019580601f88011215620001e4578651978811620001e95760059688881b908480620000a9818501620001ff565b809c81520192820101928311620001e45784809101915b838310620001c9575050506001600160a01b039182169790508715620001b8578160018060a01b03199660019933898c5416178b556000988954161788558160ff1996816011998d8a8c5416178b55168a52601387528c8a208c898254161790551688528a88208a878254161790551686528886208885825416179055805196865b88811062000159578a516112a190816200023b8239f35b8251811015620001a45780821b830185015184168852601285528a8820805487168b17905560001981146200019057890162000142565b634e487b7160e01b88526004879052602488fd5b634e487b7160e01b88526032600452602488fd5b885163e6c4247b60e01b8152600490fd5b8190620001d68462000225565b8152019101908490620000c0565b600080fd5b634e487b7160e01b600052604160045260246000fd5b6040519190601f01601f191682016001600160401b03811183821017620001e957604052565b51906001600160a01b0382168203620001e45756fe60806040526004361015610018575b361561001657005b005b60003560e01c806312065fe0146101385780631d0c00e4146101335780631f185d161461012e578063339459a6146101295780633b9b7955146101245780636a276f9d1461011f5780637df73e271461011a57806384a8d045146101155780638da5cb5b14610110578063a1f7f5391461010b578063af48452614610106578063b90306ad14610101578063c54e44b0146100fc578063dc3163e8146100f7578063e01ad5fd146100f2578063e0a9bc2b146100ed578063ef9eab9d146100e85763fdc10bc90361000e57610d32565b610cf0565b610c6a565b610ba3565b610b49565b610adb565b6109ff565b610988565b61091e565b6108f5565b6108b1565b61086f565b61084c565b610823565b6102c6565b6101ff565b6101a8565b3461015457600036600319011261015457602047604051908152f35b600080fd5b6001600160a01b031690565b6001600160a01b0381160361015457565b8015150361015457565b60409060031901126101545760043561019881610165565b906024356101a581610176565b90565b34610154576101b636610180565b6005546001600160a01b0390811633036101ed576100169216600052601260205260406000209060ff801983541691151516179055565b60405163ea8e4eb560e01b8152600490fd5b34610154576020806003193601126101545761027260043561022081610165565b6002546040516001600160a01b0392831685820152848152911661024382610d94565b6040519061025082610d94565b601182527069735369676e657228616464726573732960781b85830152611196565b9190806102bc575b156102aa578181610294926102a694518301019101611151565b60405191829182901515815260200190565b0390f35b604051633204506f60e01b8152600490fd5b508082511461027a565b34610154576000366003190112610154576102ea6102e5600054610159565b610159565b604051634bf9c0ad60e11b815290602082600481845afa91821561065357600092610802575b5060405163cfbffe5360e01b815291602083600481855afa928315610653576000936107e1575b5060405163ab6e844f60e01b815290602082600481865afa918215610653576000926107c0575b50604051630536340960e21b815291602083600481875afa9283156106535760009361079f575b5060405163d1f956b160e01b815292602084600481885afa9384156106535760009461077e575b50604051631cc3bfab60e31b815293602085600481895afa9485156106535760009561075d575b5060405163e09d394d60e01b81526020816004818a5afa9081156106535760009161073e575b506040516314ac1b5960e21b81526020816004818b5afa9081156106535760009161071f575b5060405163013cf08b60e01b815260006004820152916020836024818c5afa928315610653576000936106fe575b50604051635e09dbe760e01b8152976020896004818d5afa948515610653576004996000966106dd575b50604051635506ee0b60e11b8152996020908b90818e5afa9687156106535760049a6000986106bc575b50604051636402742760e01b81529a6020908c90818f5afa9889156106535760049b60009a61069b575b5060208d6040519d8e80926330125cf560e01b82525afa9a8b15610653578d60049d60009d610679575b506020906040519e8f80926324768d9160e01b82525afa9c8d156106535760009d610658575b506040516313b92d3560e31b81529d8e9081905a92600491602094fa9d8e156106535760009e610622575b5061054f610e13565b9e8f9161055c9083610e33565b6105699060208301610e33565b6040019061057691610e33565b6105839060608e01610e33565b6105909060808d01610e33565b61059d9060a08c01610e33565b6105aa9060c08b01610e33565b6105b79060e08a01610e33565b6105c5906101008901610e33565b6105d3906101208801610e33565b6105e1906101408701610e33565b6105ef906101608601610e33565b6105fd906101808501610e33565b61060b906101a08401610e33565b610619906101c08301610e33565b61001690610e42565b610645919e5060203d60201161064c575b61063d8183610dcf565b810190610df2565b9c38610546565b503d610633565b610e07565b610672919d5060203d60201161064c5761063d8183610dcf565b9b3861051b565b6020919d5061069490823d841161064c5761063d8183610dcf565b9c906104f5565b6106b5919a5060203d60201161064c5761063d8183610dcf565b98386104cb565b6106d691985060203d60201161064c5761063d8183610dcf565b96386104a1565b6106f791965060203d60201161064c5761063d8183610dcf565b9438610477565b61071891935060203d60201161064c5761063d8183610dcf565b913861044d565b610738915060203d60201161064c5761063d8183610dcf565b3861041f565b610757915060203d60201161064c5761063d8183610dcf565b386103f9565b61077791955060203d60201161064c5761063d8183610dcf565b93386103d3565b61079891945060203d60201161064c5761063d8183610dcf565b92386103ac565b6107b991935060203d60201161064c5761063d8183610dcf565b9138610385565b6107da91925060203d60201161064c5761063d8183610dcf565b903861035e565b6107fb91935060203d60201161064c5761063d8183610dcf565b9138610337565b61081c91925060203d60201161064c5761063d8183610dcf565b9038610310565b34610154576000366003190112610154576000546040516001600160a01b039091168152602090f35b3461015457600036600319011261015457602060ff601154166040519015158152f35b346101545760203660031901126101545760043561088c81610165565b60018060a01b03166000526013602052602060ff604060002054166040519015158152f35b34610154576020366003190112610154576004356108ce81610176565b6005546001600160a01b031633036101ed5760ff8019601154169115151617601155600080f35b34610154576000366003190112610154576001546040516001600160a01b039091168152602090f35b3461015457600036600319011261015457602061098060018060a01b036006541660405161094b81610d94565b601381527267657464656c656761746f72436f756e74282960681b848201526040519161097783610db4565b6000835261122d565b604051908152f35b3461015457602080600319360112610154576102726004356109a981610165565b6002546040516001600160a01b039283168582015284815291166109cc82610d94565b604051906109d982610d94565b601582527469735365637572654261736528616464726573732960581b85830152611196565b3461015457602036600319011261015457600554600435906001600160a01b031633036101ed5760009060046020610a3a6102e58554610159565b6040516311be646b60e21b815292839182905afa80156106535783808481949382948391610abd575b505af1610a6e611166565b50156102aa577fcdcc745fe377b103b45fa0cec23ae3ef93d6fc6a84a01f0d18c40b354dd1d5d8610ab7610aa66102e5600b54610159565b604051938452929081906020820190565b0390a280f35b610ad5915060203d811161064c5761063d8183610dcf565b38610a63565b3461015457602036600319011261015457600435610af881610165565b803b6000610b0582611136565b92610b136040519485610dcf565b82845260208401903c602d815110610b3757602a602091015160601c604051908152f35b60405163baf3f0f760e01b8152600490fd5b3461015457610b5736610180565b60055490916001600160a01b0391821633036101ed57166000526013602052610b908160406000209060ff801983541691151516179055565b15610b9757005b6011805460ff19169055005b3461015457602080600319360112610154576102a69060043590610bc682610165565b6006546040516001600160a01b0393841683820152828152921691610c2690610bee81610d94565b604051610bfa81610d94565b6018815277697364656c656761746f724e6f646528616464726573732960401b84820152600094611196565b919080610c60575b610c47575b505060405191829182901515815260200190565b610c5992508082518301019101611151565b3880610c33565b5080825114610c2e565b3461015457600036600319011261015457600254604051610cc3916001600160a01b031690610c9881610d94565b6008815267697353616665282960c01b602082015260405191610cba83610db4565b60008352611196565b9080610ce5575b156102aa57610294816020806102a694518301019101611151565b506020815114610cca565b3461015457602036600319011261015457600435610d0d81610165565b60018060a01b03166000526012602052602060ff604060002054166040519015158152f35b3461015457600036600319011261015457602061098060018060a01b0360035416604051610d5f81610d94565b600681526569416765282960d01b848201526040519161097783610db4565b634e487b7160e01b600052604160045260246000fd5b604081019081106001600160401b03821117610daf57604052565b610d7e565b602081019081106001600160401b03821117610daf57604052565b601f909101601f19168101906001600160401b03821190821017610daf57604052565b9081602091031261015457516101a581610165565b6040513d6000823e3d90fd5b604051906101e082016001600160401b03811183821017610daf57604052565b6001600160a01b039091169052565b6111126101c061113492610e7b610e598251610159565b600280546001600160a01b0319166001600160a01b0392909216919091179055565b610ead610e8b6020830151610159565b600380546001600160a01b0319166001600160a01b0392909216919091179055565b610edf610ebd6040830151610159565b600480546001600160a01b0319166001600160a01b0392909216919091179055565b610f11610eef6060830151610159565b600580546001600160a01b0319166001600160a01b0392909216919091179055565b610f43610f216080830151610159565b600680546001600160a01b0319166001600160a01b0392909216919091179055565b610f75610f5360a0830151610159565b600780546001600160a01b0319166001600160a01b0392909216919091179055565b610fa7610f8560c0830151610159565b600880546001600160a01b0319166001600160a01b0392909216919091179055565b610fd9610fb760e0830151610159565b600980546001600160a01b0319166001600160a01b0392909216919091179055565b61100c610fea610100830151610159565b600a80546001600160a01b0319166001600160a01b0392909216919091179055565b61103f61101d610120830151610159565b600b80546001600160a01b0319166001600160a01b0392909216919091179055565b611072611050610140830151610159565b600c80546001600160a01b0319166001600160a01b0392909216919091179055565b6110a5611083610160830151610159565b600d80546001600160a01b0319166001600160a01b0392909216919091179055565b6110d86110b6610180830151610159565b600e80546001600160a01b0319166001600160a01b0392909216919091179055565b61110b6110e96101a0830151610159565b600f80546001600160a01b0319166001600160a01b0392909216919091179055565b0151610159565b601080546001600160a01b0319166001600160a01b0392909216919091179055565b565b6001600160401b038111610daf57601f01601f191660200190565b9081602091031261015457516101a581610176565b3d15611191573d9061117782611136565b916111856040519384610dcf565b82523d6000602084013e565b606090565b9190823b15611214578051906020918263ffffffff60e01b92012016916040519180830193845281519160005b8381106112005750505091816111f060248260009795968897018783820152036004810184520182610dcf565b51915afa6111fc611166565b9091565b8181018301518582016024015282016111c3565b50505060009060405161122681610db4565b6000815290565b929161123b91600094611196565b9080611260575b6112495750565b909150602081805181010312610154576020015190565b50602081511461124256fea264697066735822122016594650c62412d96ca56efdbcbd015b7579e0ad7d5a577315c8329c42a5fac864736f6c63430008140033","linkReferences":{}},"methodIdentifiers":{"Burn(uint256)":"b90306ad","_delegatorCount()":"a1f7f539","_getImplementation(address)":"c54e44b0","_isDelegatorNode(address)":"e01ad5fd","_isSafe()":"e0a9bc2b","_isSecureBase(address)":"af484526","_isSigner(address)":"1f185d16","approveSafe(bool)":"84a8d045","getBalance()":"12065fe0","getHexbase()":"3b9b7955","isSafe()":"6a276f9d","isSecureBase(address)":"ef9eab9d","isSigner(address)":"7df73e27","owner()":"8da5cb5b","safeSecureBaseCallback(address,bool)":"1d0c00e4","signerCallback(address,bool)":"dc3163e8","syncBaseAddr()":"339459a6","systemAge()":"fdc10bc9"},"id":10}