{"abi":[{"type":"constructor","inputs":[{"name":"_hex","type":"address","internalType":"address"}],"stateMutability":"nonpayable"},{"type":"fallback","stateMutability":"payable"},{"type":"receive","stateMutability":"payable"},{"type":"function","name":"Burn","inputs":[{"name":"amount","type":"uint256","internalType":"uint256"}],"outputs":[],"stateMutability":"nonpayable"},{"type":"function","name":"_delegatorCount","inputs":[],"outputs":[{"name":"","type":"uint256","internalType":"uint256"}],"stateMutability":"view"},{"type":"function","name":"_getImplementation","inputs":[{"name":"clone","type":"address","internalType":"address"}],"outputs":[{"name":"impl","type":"address","internalType":"address"}],"stateMutability":"view"},{"type":"function","name":"_isDelegatorNode","inputs":[{"name":"sender","type":"address","internalType":"address"}],"outputs":[{"name":"","type":"bool","internalType":"bool"}],"stateMutability":"view"},{"type":"function","name":"_isSafe","inputs":[],"outputs":[{"name":"","type":"bool","internalType":"bool"}],"stateMutability":"view"},{"type":"function","name":"_isSecureBase","inputs":[{"name":"sender","type":"address","internalType":"address"}],"outputs":[{"name":"","type":"bool","internalType":"bool"}],"stateMutability":"view"},{"type":"function","name":"_isSigner","inputs":[{"name":"sender","type":"address","internalType":"address"}],"outputs":[{"name":"","type":"bool","internalType":"bool"}],"stateMutability":"view"},{"type":"function","name":"getBalance","inputs":[],"outputs":[{"name":"","type":"uint256","internalType":"uint256"}],"stateMutability":"view"},{"type":"function","name":"importPrimeuser","inputs":[{"name":"limit","type":"uint256","internalType":"uint256"}],"outputs":[],"stateMutability":"nonpayable"},{"type":"function","name":"isNodeStopped","inputs":[{"name":"sender","type":"address","internalType":"address"}],"outputs":[{"name":"","type":"bool","internalType":"bool"}],"stateMutability":"view"},{"type":"function","name":"owner","inputs":[],"outputs":[{"name":"","type":"address","internalType":"address"}],"stateMutability":"view"}],"bytecode":{"object":"0x608060405234801561001057600080fd5b50604051611d30380380611d3083398101604081905261002f91610060565b600180546001600160a01b0319908116909155600080546001600160a01b0390931692909116919091179055610090565b60006020828403121561007257600080fd5b81516001600160a01b038116811461008957600080fd5b9392505050565b611c918061009f6000396000f3fe60806040526004361061009a5760003560e01c8063a1f7f53911610061578063a1f7f53914610167578063af4845261461017c578063b90306ad1461019c578063c54e44b0146101bc578063e01ad5fd146101dc578063e0a9bc2b146101fc57005b806312065fe0146100a35780631f185d16146100c557806351bfd3ae146100f55780638da5cb5b14610115578063965a92d81461014757005b366100a157005b005b3480156100af57600080fd5b50475b6040519081526020015b60405180910390f35b3480156100d157600080fd5b506100e56100e0366004611a04565b610211565b60405190151581526020016100bc565b34801561010157600080fd5b506100e5610110366004611a04565b6102e5565b34801561012157600080fd5b506001546001600160a01b03165b6040516001600160a01b0390911681526020016100bc565b34801561015357600080fd5b506100a1610162366004611a21565b610481565b34801561017357600080fd5b506100b2610e1d565b34801561018857600080fd5b506100e5610197366004611a04565b610fc9565b3480156101a857600080fd5b506100a16101b7366004611a21565b611087565b3480156101c857600080fd5b5061012f6101d7366004611a04565b61116d565b3480156101e857600080fd5b506100e56101f7366004611a04565b6111ed565b34801561020857600080fd5b506100e56114cd565b600080546040805163af0deb9560e01b815290516102df926001600160a01b03169163af0deb959160048083019260209291908290030181865afa15801561025d573d6000803e3d6000fd5b505050506040513d601f19601f820116820180604052508101906102819190611a3a565b6040518060400160405280601181526020017069735369676e657228616464726573732960781b815250846040516020016102cb91906001600160a01b0391909116815260200190565b604051602081830303815290604052611578565b92915050565b6000806103c060008054906101000a90046001600160a01b03166001600160a01b031663a66bcbe26040518163ffffffff1660e01b8152600401602060405180830381865afa15801561033c573d6000803e3d6000fd5b505050506040513d601f19601f820116820180604052508101906103609190611a3a565b6040518060400160405280601381526020017255736572546f496e737428616464726573732960681b815250856040516020016103ac91906001600160a01b0391909116815260200190565b6040516020818303038152906040526115bf565b90506000806001600160a01b0316826001600160a01b031614159050600061041b836040518060400160405280600b81526020016a697353757370656e64282960a81b81525060405180602001604052806000815250611578565b90506000610459846040518060400160405280600881526020016769734c6f636b282960c01b81525060405180602001604052806000815250611578565b9050821580610477575081801561046d5750805b8015610477575082155b9695505050505050565b61048a30610fc9565b6104db5760405162461bcd60e51b815260206004820152601760248201527f7574696c6974792e756e7365637572652e6661696c656400000000000000000060448201526064015b60405180910390fd5b600080546040805163223df87160e11b81529051610586926001600160a01b03169163447bf0e29160048083019260209291908290030181865afa158015610527573d6000803e3d6000fd5b505050506040513d601f19601f8201168201806040525081019061054b9190611a3a565b604080518082018252600f81526e6765744e6f646573436f756e74282960881b602080830191909152825160008152908101909252906115fa565b905060006105de60008054906101000a90046001600160a01b03166001600160a01b031663a66bcbe26040518163ffffffff1660e01b8152600401602060405180830381865afa158015610527573d6000803e3d6000fd5b90508082116106255760405162461bcd60e51b81526020600482015260136024820152727574696c6974792e696d706f72742e646f6e6560681b60448201526064016104d2565b61062f8184611a83565b925081831161063e5782610640565b815b9250600061064e8285611a96565b67ffffffffffffffff81111561066657610666611a57565b60405190808252806020026020018201604052801561068f578160200160208202803683370190505b50905060005b82851180156106a45750848410155b15610d5957600080546040805163223df87160e11b81529051610762926001600160a01b03169163447bf0e29160048083019260209291908290030181865afa1580156106f5573d6000803e3d6000fd5b505050506040513d601f19601f820116820180604052508101906107199190611a3a565b6040518060400160405280601781526020017f6765744e6f64654279496e6465782875696e7432353629000000000000000000815250866040516020016103ac91815260200190565b90506001600160a01b0381166107b35760405162461bcd60e51b815260206004820152601660248201527570726f78792e696e76616c69642e696e7374616e636560501b60448201526064016104d2565b600080546040805163223df87160e11b8152905161086f926001600160a01b03169163447bf0e29160048083019260209291908290030181865afa1580156107ff573d6000803e3d6000fd5b505050506040513d601f19601f820116820180604052508101906108239190611a3a565b60405180604001604052806013815260200172496e7374546f5573657228616464726573732960681b815250846040516020016103ac91906001600160a01b0391909116815260200190565b90506001600160a01b0381166108bc5760405162461bcd60e51b815260206004820152601260248201527170726f78792e696e76616c69642e6e6f646560701b60448201526064016104d2565b600080546040805163223df87160e11b815290516109a1926001600160a01b03169163447bf0e29160048083019260209291908290030181865afa158015610908573d6000803e3d6000fd5b505050506040513d601f19601f8201168201806040525081019061092c9190611a3a565b6040518060400160405280601a81526020017f6765744e6f64654c4228616464726573732c75696e743235362900000000000081525085600060405160200161098d9291906001600160a01b0392909216825260ff16602082015260400190565b604051602081830303815290604052611635565b90506000806000835111156109ca57828060200190518101906109c49190611aa9565b90925090505b600080546040805163223df87160e11b81529051610a83926001600160a01b03169163447bf0e29160048083019260209291908290030181865afa158015610a16573d6000803e3d6000fd5b505050506040513d601f19601f82011682018060405250810190610a3a9190611a3a565b6040518060400160405280601081526020016f6765744e6f646528616464726573732960801b8152508860405160200161098d91906001600160a01b0391909116815260200190565b9050600081806020019051810190610a9b9190611ae2565b50919950925050506001600160a01b03871615610b70576000546040805163223df87160e11b81529051610b6d926001600160a01b03169163447bf0e29160048083019260209291908290030181865afa158015610afd573d6000803e3d6000fd5b505050506040513d601f19601f82011682018060405250810190610b219190611a3a565b60405180604001604052806013815260200172496e7374546f5573657228616464726573732960681b815250896040516020016103ac91906001600160a01b0391909116815260200190565b96505b60005460408051635335e5f160e11b81529051610c3b926001600160a01b03169163a66bcbe29160048083019260209291908290030181865afa158015610bbb573d6000803e3d6000fd5b505050506040513d601f19601f82011682018060405250810190610bdf9190611a3a565b6040516001600160a01b03808b16602483015260006044830152891660648201526084810184905260a40160408051601f198184030181529190526020810180516001600160e01b03166322d625e360e11b179052600061174a565b508315610d075760005460408051635335e5f160e11b81529051610d05926001600160a01b03169163a66bcbe29160048083019260209291908290030181865afa158015610c8d573d6000803e3d6000fd5b505050506040513d601f19601f82011682018060405250810190610cb19190611a3a565b6040516001600160a01b0389166024820152604481018790526064810186905260840160408051601f198184030181529190526020810180516001600160e01b031663c4cf0e3f60e01b179052600061174a565b505b85898981518110610d1a57610d1a611b3c565b6001600160a01b039092166020928302919091019091015287610d3c81611b52565b9850508980610d4a90611b52565b9a505050505050505050610695565b8015610e16576000805460405163013cf08b60e01b81526004810192909252610e14916001600160a01b039091169063013cf08b90602401602060405180830381865afa158015610dae573d6000803e3d6000fd5b505050506040513d601f19601f82011682018060405250810190610dd29190611a3a565b83604051602401610de39190611b6b565b60408051601f198184030181529190526020810180516001600160e01b031663b94bae9160e01b179052600061174a565b505b5050505050565b600080610ed260008054906101000a90046001600160a01b03166001600160a01b031663e1f4cd246040518163ffffffff1660e01b8152600401602060405180830381865afa158015610e74573d6000803e3d6000fd5b505050506040513d601f19601f82011682018060405250810190610e989190611a3a565b6040518060400160405280600c81526020016b72616e6b666f7244414f282960a01b815250604051806020016040528060008152506115fa565b90506000610fb560008054906101000a90046001600160a01b03166001600160a01b031663ab6e844f6040518163ffffffff1660e01b8152600401602060405180830381865afa158015610f2a573d6000803e3d6000fd5b505050506040513d601f19601f82011682018060405250810190610f4e9190611a3a565b6040518060400160405280601d81526020017f67657472616e6b636f756e742875696e743235362c75696e7432353629000000815250610f8c61184f565b60408051602081019290925281018690526060015b6040516020818303038152906040526115fa565b9050610fc2816003611a83565b9250505090565b600080546040805163af0deb9560e01b815290516102df926001600160a01b03169163af0deb959160048083019260209291908290030181865afa158015611015573d6000803e3d6000fd5b505050506040513d601f19601f820116820180604052508101906110399190611a3a565b6040518060400160405280601581526020017469735365637572654261736528616464726573732960581b815250846040516020016102cb91906001600160a01b0391909116815260200190565b60005460408051634162169f60e01b8152905133926001600160a01b031691634162169f9160048083019260209291908290030181865afa1580156110d0573d6000803e3d6000fd5b505050506040513d601f19601f820116820180604052508101906110f49190611a3a565b6001600160a01b03161461113c5760405162461bcd60e51b815260206004820152600f60248201526e6f776e2e6e6f6e617574682e44414f60881b60448201526064016104d2565b60405160009082156108fc0290839083818181858288f19350505050158015611169573d6000803e3d6000fd5b5050565b600080826001600160a01b0316803b806020016040519081016040528181526000908060200190933c9050602d815110156111e05760405162461bcd60e51b81526020600482015260136024820152724e6f742061206d696e696d616c2070726f787960681b60448201526064016104d2565b602a015160601c92915050565b60008061124460008054906101000a90046001600160a01b03166001600160a01b031663e1f4cd246040518163ffffffff1660e01b8152600401602060405180830381865afa158015610e74573d6000803e3d6000fd5b9050600061130c60008054906101000a90046001600160a01b03166001600160a01b031663ab6e844f6040518163ffffffff1660e01b8152600401602060405180830381865afa15801561129c573d6000803e3d6000fd5b505050506040513d601f19601f820116820180604052508101906112c09190611a3a565b6040518060400160405280601381526020017255736572546f496e737428616464726573732960681b815250866040516020016103ac91906001600160a01b0391909116815260200190565b905060006113de60008054906101000a90046001600160a01b03166001600160a01b031663ab6e844f6040518163ffffffff1660e01b8152600401602060405180830381865afa158015611364573d6000803e3d6000fd5b505050506040513d601f19601f820116820180604052508101906113889190611a3a565b6040518060400160405280601981526020017f67657445666665637469766552616e6b2861646472657373290000000000000081525084604051602001610fa191906001600160a01b0391909116815260200190565b905060006114a260008054906101000a90046001600160a01b03166001600160a01b031663ab6e844f6040518163ffffffff1660e01b8152600401602060405180830381865afa158015611436573d6000803e3d6000fd5b505050506040513d601f19601f8201168201806040525081019061145a9190611a3a565b6040518060400160405280600f81526020016e697353746f7028616464726573732960881b815250856040516020016102cb91906001600160a01b0391909116815260200190565b90506001600160a01b038316158015906114bc5750838210155b801561047757501595945050505050565b600080546040805163af0deb9560e01b81529051611573926001600160a01b03169163af0deb959160048083019260209291908290030181865afa158015611519573d6000803e3d6000fd5b505050506040513d601f19601f8201168201806040525081019061153d9190611a3a565b60405180604001604052806008815260200167697353616665282960c01b81525060405180602001604052806000815250611578565b905090565b60008060006115888686866118f2565b9150915081801561159a575080516020145b156115b657808060200190518101906115b39190611bb8565b92505b50509392505050565b60008060006115cf8686866118f2565b915091508180156115e1575080516020145b156115b657808060200190518101906115b39190611a3a565b600080600061160a8686866118f2565b9150915081801561161c575080516020145b156115b657808060200190518101906115b39190611bd3565b6060836001600160a01b03163b60000361165e5750604080516020810190915260008152611743565b6040805160048152602481019182905260009182916001600160a01b03881691611689908890611c10565b60405180910390206001600160e01b0319166020820180516001600160e01b038381831617835250505050856040516020016116c6929190611c2c565b60408051601f19818403018152908290526116e091611c10565b600060405180830381855afa9150503d806000811461171b576040519150601f19603f3d011682016040523d82523d6000602084013e611720565b606091505b50915091508161173f57604051806020016040528060008152506115b3565b9150505b9392505050565b60606001600160a01b0384166117975760405162461bcd60e51b81526020600482015260126024820152711bdddb8b9a5b9d985b1a590b9d185c99d95d60721b60448201526064016104d2565b600080856001600160a01b031684866040516117b39190611c10565b60006040518083038185875af1925050503d80600081146117f0576040519150601f19603f3d011682016040523d82523d6000602084013e6117f5565b606091505b50915091508161173f5780511561180e57805181602001fd5b60405162461bcd60e51b81526020600482015260166024820152751bdddb8b9d185c99d95d0b98d85b1b0b99985a5b195960521b60448201526064016104d2565b600080546040805163223df87160e11b81529051611573926001600160a01b03169163447bf0e29160048083019260209291908290030181865afa15801561189b573d6000803e3d6000fd5b505050506040513d601f19601f820116820180604052508101906118bf9190611a3a565b60405180604001604052806005815260200164616765282960d81b815250604051806020016040528060008152506115fa565b60006060846001600160a01b03163b60000361192057505060408051602081019091526000808252906119e4565b604080516004815260248101918290526001600160a01b03871691611946908790611c10565b60405180910390206001600160e01b0319166020820180516001600160e01b03838183161783525050505084604051602001611983929190611c2c565b60408051601f198184030181529082905261199d91611c10565b600060405180830381855afa9150503d80600081146119d8576040519150601f19603f3d011682016040523d82523d6000602084013e6119dd565b606091505b5090925090505b935093915050565b6001600160a01b0381168114611a0157600080fd5b50565b600060208284031215611a1657600080fd5b8135611743816119ec565b600060208284031215611a3357600080fd5b5035919050565b600060208284031215611a4c57600080fd5b8151611743816119ec565b634e487b7160e01b600052604160045260246000fd5b634e487b7160e01b600052601160045260246000fd5b808201808211156102df576102df611a6d565b818103818111156102df576102df611a6d565b60008060408385031215611abc57600080fd5b505080516020909101519092909150565b80518015158114611add57600080fd5b919050565b600080600080600060a08688031215611afa57600080fd5b855194506020860151611b0c816119ec565b60408701519094509250611b2260608701611acd565b9150611b3060808701611acd565b90509295509295909350565b634e487b7160e01b600052603260045260246000fd5b600060018201611b6457611b64611a6d565b5060010190565b6020808252825182820181905260009190848201906040850190845b81811015611bac5783516001600160a01b031683529284019291840191600101611b87565b50909695505050505050565b600060208284031215611bca57600080fd5b61174382611acd565b600060208284031215611be557600080fd5b5051919050565b60005b83811015611c07578181015183820152602001611bef565b50506000910152565b60008251611c22818460208701611bec565b9190910192915050565b60008351611c3e818460208801611bec565b835190830190611c52818360208801611bec565b0194935050505056fea26469706673582212208bef229991e3d16bd23e877e42b44eb75acef44503e35e285ae60cf28d7a6dc564736f6c63430008140033","linkReferences":{}},"methodIdentifiers":{"Burn(uint256)":"b90306ad","_delegatorCount()":"a1f7f539","_getImplementation(address)":"c54e44b0","_isDelegatorNode(address)":"e01ad5fd","_isSafe()":"e0a9bc2b","_isSecureBase(address)":"af484526","_isSigner(address)":"1f185d16","getBalance()":"12065fe0","importPrimeuser(uint256)":"965a92d8","isNodeStopped(address)":"51bfd3ae","owner()":"8da5cb5b"},"id":35}