{"abi":[{"type":"constructor","inputs":[],"stateMutability":"nonpayable"},{"type":"fallback","stateMutability":"payable"},{"type":"receive","stateMutability":"payable"},{"type":"function","name":"Burn","inputs":[{"name":"amount","type":"uint256","internalType":"uint256"}],"outputs":[],"stateMutability":"payable"},{"type":"function","name":"InstToUser","inputs":[{"name":"","type":"address","internalType":"address"}],"outputs":[{"name":"","type":"address","internalType":"address"}],"stateMutability":"view"},{"type":"function","name":"UserToInst","inputs":[{"name":"","type":"address","internalType":"address"}],"outputs":[{"name":"","type":"address","internalType":"address"}],"stateMutability":"view"},{"type":"function","name":"_addBusiness","inputs":[{"name":"uInst","type":"address","internalType":"address"},{"name":"amount","type":"uint256","internalType":"uint256"},{"name":"qty","type":"uint256","internalType":"uint256"}],"outputs":[],"stateMutability":"nonpayable"},{"type":"function","name":"_addParentYei","inputs":[{"name":"self","type":"uint256","internalType":"uint256"}],"outputs":[],"stateMutability":"nonpayable"},{"type":"function","name":"_nested","inputs":[{"name":"parent","type":"address","internalType":"address"},{"name":"uinst","type":"address","internalType":"address"},{"name":"user","type":"address","internalType":"address"},{"name":"_stop","type":"bool","internalType":"bool"}],"outputs":[{"name":"","type":"uint256","internalType":"uint256"}],"stateMutability":"nonpayable"},{"type":"function","name":"_setInstOfUser","inputs":[{"name":"from","type":"address","internalType":"address"},{"name":"to","type":"address","internalType":"address"}],"outputs":[],"stateMutability":"nonpayable"},{"type":"function","name":"_setOwner","inputs":[{"name":"own","type":"address","internalType":"address"},{"name":"isApproved","type":"bool","internalType":"bool"}],"outputs":[],"stateMutability":"nonpayable"},{"type":"function","name":"_setReq","inputs":[{"name":"own","type":"address","internalType":"address"}],"outputs":[],"stateMutability":"nonpayable"},{"type":"function","name":"age","inputs":[],"outputs":[{"name":"","type":"uint256","internalType":"uint256"}],"stateMutability":"view"},{"type":"function","name":"at","inputs":[{"name":"_addr","type":"address","internalType":"address"}],"outputs":[{"name":"o_code","type":"bytes","internalType":"bytes"}],"stateMutability":"view"},{"type":"function","name":"getBalance","inputs":[],"outputs":[{"name":"","type":"uint256","internalType":"uint256"}],"stateMutability":"view"},{"type":"function","name":"getEffectiveRank","inputs":[{"name":"uinst","type":"address","internalType":"address"}],"outputs":[{"name":"","type":"uint256","internalType":"uint256"}],"stateMutability":"view"},{"type":"function","name":"getNode","inputs":[{"name":"uinst","type":"address","internalType":"address"}],"outputs":[{"name":"i","type":"uint256","internalType":"uint256"},{"name":"pa","type":"address","internalType":"address"},{"name":"cage","type":"uint256","internalType":"uint256"},{"name":"active","type":"bool","internalType":"bool"},{"name":"stop","type":"bool","internalType":"bool"}],"stateMutability":"view"},{"type":"function","name":"getNodeByIndex","inputs":[{"name":"index","type":"uint256","internalType":"uint256"}],"outputs":[{"name":"node","type":"address","internalType":"address"}],"stateMutability":"view"},{"type":"function","name":"getNodeChild","inputs":[{"name":"uinst","type":"address","internalType":"address"},{"name":"inx","type":"uint256","internalType":"uint256"}],"outputs":[{"name":"child","type":"address","internalType":"address"}],"stateMutability":"view"},{"type":"function","name":"getNodeDirectsCount","inputs":[{"name":"uinst","type":"address","internalType":"address"}],"outputs":[{"name":"count","type":"uint256","internalType":"uint256"}],"stateMutability":"view"},{"type":"function","name":"getNodeLB","inputs":[{"name":"uinst","type":"address","internalType":"address"},{"name":"lvl","type":"uint256","internalType":"uint256"}],"outputs":[{"name":"levelbusiness","type":"uint256","internalType":"uint256"},{"name":"levelqty","type":"uint256","internalType":"uint256"}],"stateMutability":"view"},{"type":"function","name":"getNodeLvlDepth","inputs":[{"name":"uinst","type":"address","internalType":"address"}],"outputs":[{"name":"depth","type":"uint256","internalType":"uint256"}],"stateMutability":"view"},{"type":"function","name":"getNodeParent","inputs":[{"name":"uinst","type":"address","internalType":"address"}],"outputs":[{"name":"","type":"address","internalType":"address"}],"stateMutability":"view"},{"type":"function","name":"getNodesCount","inputs":[],"outputs":[{"name":"nodesCount","type":"uint256","internalType":"uint256"}],"stateMutability":"view"},{"type":"function","name":"getRewards","inputs":[{"name":"uinst","type":"address","internalType":"address"}],"outputs":[{"name":"rw","type":"uint256","internalType":"uint256"},{"name":"yei","type":"uint256","internalType":"uint256"}],"stateMutability":"view"},{"type":"function","name":"getRoyalitydead","inputs":[{"name":"uinst","type":"address","internalType":"address"},{"name":"lastdage","type":"uint256","internalType":"uint256"},{"name":"maxinterwal","type":"uint256","internalType":"uint256"}],"outputs":[{"name":"ryl","type":"uint256","internalType":"uint256"}],"stateMutability":"view"},{"type":"function","name":"getTours","inputs":[{"name":"uinst","type":"address","internalType":"address"}],"outputs":[{"name":"t1","type":"uint256","internalType":"uint256"},{"name":"t2","type":"uint256","internalType":"uint256"}],"stateMutability":"view"},{"type":"function","name":"getbusiness","inputs":[{"name":"ag","type":"uint256","internalType":"uint256"}],"outputs":[{"name":"","type":"uint256","internalType":"uint256"}],"stateMutability":"view"},{"type":"function","name":"getnodeRnk","inputs":[{"name":"uinst","type":"address","internalType":"address"}],"outputs":[{"name":"","type":"uint8","internalType":"uint8"}],"stateMutability":"view"},{"type":"function","name":"getnodeRnkAge","inputs":[{"name":"uinst","type":"address","internalType":"address"},{"name":"_rnk","type":"uint256","internalType":"uint256"}],"outputs":[{"name":"","type":"uint256","internalType":"uint256"}],"stateMutability":"view"},{"type":"function","name":"getnoderankage","inputs":[{"name":"uinst","type":"address","internalType":"address"},{"name":"rnk","type":"uint256","internalType":"uint256"}],"outputs":[{"name":"","type":"uint256","internalType":"uint256"}],"stateMutability":"view"},{"type":"function","name":"getrankCount","inputs":[{"name":"_ag","type":"uint256","internalType":"uint256"},{"name":"rnk","type":"uint256","internalType":"uint256"}],"outputs":[{"name":"count","type":"uint256","internalType":"uint256"}],"stateMutability":"view"},{"type":"function","name":"getrankcount","inputs":[{"name":"ag","type":"uint256","internalType":"uint256"},{"name":"rnk","type":"uint256","internalType":"uint256"}],"outputs":[{"name":"","type":"uint256","internalType":"uint256"}],"stateMutability":"view"},{"type":"function","name":"isAccountSafeOwner","inputs":[{"name":"sender","type":"address","internalType":"address"}],"outputs":[{"name":"","type":"bool","internalType":"bool"}],"stateMutability":"view"},{"type":"function","name":"isCreated","inputs":[{"name":"node","type":"address","internalType":"address"}],"outputs":[{"name":"","type":"bool","internalType":"bool"}],"stateMutability":"view"},{"type":"function","name":"isInstance","inputs":[{"name":"inst","type":"address","internalType":"address"}],"outputs":[{"name":"","type":"bool","internalType":"bool"}],"stateMutability":"view"},{"type":"function","name":"isNode","inputs":[{"name":"uinst","type":"address","internalType":"address"}],"outputs":[{"name":"","type":"bool","internalType":"bool"}],"stateMutability":"view"},{"type":"function","name":"isOwnerOrSafeOwner","inputs":[{"name":"sender","type":"address","internalType":"address"}],"outputs":[{"name":"","type":"bool","internalType":"bool"}],"stateMutability":"view"},{"type":"function","name":"isStop","inputs":[{"name":"uinst","type":"address","internalType":"address"}],"outputs":[{"name":"","type":"bool","internalType":"bool"}],"stateMutability":"view"},{"type":"function","name":"isUserInst","inputs":[{"name":"node","type":"address","internalType":"address"},{"name":"_ins","type":"address","internalType":"address"}],"outputs":[{"name":"isIndeed","type":"bool","internalType":"bool"}],"stateMutability":"view"},{"type":"function","name":"owner","inputs":[],"outputs":[{"name":"","type":"address","internalType":"address"}],"stateMutability":"view"},{"type":"function","name":"req","inputs":[],"outputs":[{"name":"newowner","type":"address","internalType":"address"},{"name":"isReq","type":"bool","internalType":"bool"},{"name":"isVer1","type":"bool","internalType":"bool"},{"name":"isVer2","type":"bool","internalType":"bool"},{"name":"isVer3","type":"bool","internalType":"bool"}],"stateMutability":"view"},{"type":"function","name":"setDefaultRankCount","inputs":[],"outputs":[],"stateMutability":"nonpayable"},{"type":"function","name":"setImported","inputs":[{"name":"flg","type":"bool","internalType":"bool"}],"outputs":[],"stateMutability":"nonpayable"},{"type":"function","name":"setParam","inputs":[{"name":"s","type":"address","internalType":"address"},{"name":"r","type":"address","internalType":"address"},{"name":"m","type":"address","internalType":"address"},{"name":"f","type":"address","internalType":"address"},{"name":"t","type":"address","internalType":"address"}],"outputs":[],"stateMutability":"nonpayable"},{"type":"function","name":"setStop","inputs":[{"name":"uinst","type":"address","internalType":"address"},{"name":"flag","type":"bool","internalType":"bool"}],"outputs":[],"stateMutability":"nonpayable"},{"type":"function","name":"withdraw","inputs":[{"name":"to","type":"address","internalType":"address"},{"name":"amount","type":"uint256","internalType":"uint256"}],"outputs":[],"stateMutability":"payable"}],"bytecode":{"object":"0x608060405260006011556014805460ff1916905534801561001f57600080fd5b50610103600080546001600160a01b03199081167360c95eb879eec03a0af4528a16f192e61a198f401790915560018054821673f134e58248ab8380e911d36c21e1015e5e84814117905560028054821673c0cee8b561cc4f60869776ca5b0b7a295e04f5af17905560038054821673d03060e8ed7754aeed63e4e56b0457662d8164aa17905560048054821673648565deb50c503ef59860d92942eaece0c3e17217905560058054821673a6275eb780ca9eff45d64bad4936d168f51d788017905560068054909116736c96f2d0c9a8b7fb472a319b1ecf7e8626c7b2ba179055565b600780546001600160a01b0319163217905542601155613ed8806101286000396000f3fe6080604052600436106102535760003560e01c806379ee54f711610138578063b0751823116100b0578063cf35916511610077578063cf359165146108d1578063dce4a44714610912578063dd1b98ac1461093f578063eb95c6621461095f578063f3fef3a31461098c578063f80272961461099f57005b8063b075182314610813578063b90306ad14610833578063c3bd18c314610846578063c4cf0e3f14610866578063cda9c5641461088657005b80639380fd5f116100ff5780639380fd5f146106eb578063957138a414610700578063965c90e3146107205780639b51cad1146107405780639d20904814610760578063abb8c965146107f357005b806379ee54f7146106555780638033eded1461067557806380f85e331461069557806387e57f5a146106955780638da5cb5b146106cd57005b8063379a423c116101cb57806345675cc81161019257806345675cc8146105705780635329daca146105905780635d423396146105c557806361ea7208146105e55780636b44e6be146105fa578063710a4ddc1461063557005b8063379a423c146104ac578063389fac60146104cc5780633ddce00b1461045357806341ffe7c41461051a57806345145fd71461053a57005b80631e6b429c1161021a5780631e6b429c146103c85780631f5fa838146103e8578063247349d514610408578063262a9dff1461043e5780632652462114610453578063321f4f211461047357005b8063017501521461025c57806308a39111146102915780630d43aaf2146102d857806312065fe01461035c5780631bb49f021461036f57005b3661025a57005b005b34801561026857600080fd5b5061027c61027736600461393f565b6109bf565b60405190151581526020015b60405180910390f35b34801561029d57600080fd5b506102ca6102ac36600461393f565b6001600160a01b03166000908152600f602052604090206004015490565b604051908152602001610288565b3480156102e457600080fd5b50600854610322906001600160a01b0381169060ff600160a01b8204811691600160a81b8104821691600160b01b8204811691600160b81b90041685565b604080516001600160a01b03909616865293151560208601529115159284019290925290151560608301521515608082015260a001610288565b34801561036857600080fd5b50476102ca565b34801561037b57600080fd5b506103b061038a36600461393f565b6001600160a01b039081166000908152600f602052604090206001015461010090041690565b6040516001600160a01b039091168152602001610288565b3480156103d457600080fd5b506102ca6103e336600461395a565b6109e0565b3480156103f457600080fd5b506102ca61040336600461393f565b610c47565b34801561041457600080fd5b506103b061042336600461393f565b600a602052600090815260409020546001600160a01b031681565b34801561044a57600080fd5b506102ca610d0e565b34801561045f57600080fd5b506102ca61046e36600461398d565b610d1d565b34801561047f57600080fd5b506102ca61048e36600461393f565b6001600160a01b03166000908152600f602052604090206003015490565b3480156104b857600080fd5b5061027c6104c736600461393f565b610d48565b3480156104d857600080fd5b506105086104e736600461393f565b6001600160a01b03166000908152600f602052604090206007015460ff1690565b60405160ff9091168152602001610288565b34801561052657600080fd5b5061025a61053536600461393f565b610dd2565b34801561054657600080fd5b506103b061055536600461393f565b6009602052600090815260409020546001600160a01b031681565b34801561057c57600080fd5b506103b061058b36600461398d565b610fca565b34801561059c57600080fd5b506105b06105ab36600461398d565b611013565b60408051928352602083019190915201610288565b3480156105d157600080fd5b5061027c6105e03660046139b7565b61109d565b3480156105f157600080fd5b506010546102ca565b34801561060657600080fd5b5061027c61061536600461393f565b6001600160a01b039081166000908152600a602052604090205416151590565b34801561064157600080fd5b5061025a6106503660046139b7565b61110e565b34801561066157600080fd5b506105b061067036600461393f565b611350565b34801561068157600080fd5b5061025a6106903660046139f8565b6114fd565b3480156106a157600080fd5b506102ca6106b0366004613a15565b600091825260136020908152604080842092845291905290205490565b3480156106d957600080fd5b506007546001600160a01b03166103b0565b3480156106f757600080fd5b5061025a611643565b34801561070c57600080fd5b5061025a61071b366004613a37565b611788565b34801561072c57600080fd5b506103b061073b366004613a6e565b611922565b34801561074c57600080fd5b506102ca61075b366004613a87565b611952565b34801561076c57600080fd5b506107bf61077b36600461393f565b6001600160a01b039081166000908152600f6020526040902080546001820154600683015460079093015491946101008083049095169460ff928316930490911690565b604080519586526001600160a01b03909416602086015292840191909152151560608301521515608082015260a001610288565b3480156107ff57600080fd5b5061025a61080e366004613a37565b611d2b565b34801561081f57600080fd5b5061025a61082e366004613add565b61203e565b61025a610841366004613a6e565b6121dc565b34801561085257600080fd5b5061027c61086136600461393f565b6122b6565b34801561087257600080fd5b5061025a61088136600461395a565b612325565b34801561089257600080fd5b506105b06108a136600461393f565b6001600160a01b03166000908152600d602090815260408083206002845290915280822054600483529120549091565b3480156108dd57600080fd5b5061027c6108ec36600461393f565b6001600160a01b03166000908152600f6020526040902060070154610100900460ff1690565b34801561091e57600080fd5b5061093261092d36600461393f565b6127a4565b6040516102889190613b66565b34801561094b57600080fd5b5061025a61095a366004613a6e565b6127d5565b34801561096b57600080fd5b506102ca61097a366004613a6e565b60009081526012602052604090205490565b61025a61099a36600461398d565b612aa3565b3480156109ab57600080fd5b5061027c6109ba36600461393f565b612bce565b6001600160a01b03166000908152600f602052604090206001015460ff1690565b6001600160a01b0383166000908152600f6020526040812060040180548290610a0b57610a0b613b99565b9060005260206000200154600003610a2557506000610c40565b6000610a3085610c47565b905060015b818111610c3d576001600160a01b0386166000908152600e6020908152604080832084845290915290205415610c2b57600154604051634151331d60e01b815260048101839052600091829182916001600160a01b031690634151331d90602401606060405180830381865afa158015610ab3573d6000803e3d6000fd5b505050506040513d601f19601f82011682018060405250810190610ad79190613baf565b92509250925082600003610aed57505050610c2b565b6001600160a01b0389166000908152600e60209081526040808320878452909152902054610b1c908290613bf3565b905080881115610b2e57505050610c2b565b6001600160a01b0389166000908152600e602090815260408083208784529091528120548910610b5e5788610b83565b6001600160a01b038a166000908152600e602090815260408083208884529091529020545b90505b81811015610c2657600081815260136020908152604080832088845290915290205415610c14576000818152601360209081526040808320888452909152902054610bd2846064613c06565b600083815260126020526040902054610bec908790613c06565b610bf69190613c1d565b610c009190613c1d565b610c0a9088613bf3565b9650808814610c26575b80610c1e81613c3f565b915050610b86565b505050505b80610c3581613c3f565b915050610a35565b50505b9392505050565b6001600160a01b0381166000908152600f602052604081206007015460ff90811690819003610c795750600892915050565b607f8082169003610c8d5750600792915050565b603f8082169003610ca15750600692915050565b601f8082169003610cb55750600592915050565b600f8082169003610cc95750600492915050565b60078082169003610cdd5750600392915050565b60038082169003610cf15750600292915050565b60018082169003610d055750600192915050565b50600092915050565b6000610d18612bee565b905090565b6001600160a01b0382166000908152600e602090815260408083208484529091529020545b92915050565b600080546040516319c0642960e01b81526001600160a01b038481166004830152909116906319c0642990602401602060405180830381865afa158015610d93573d6000803e3d6000fd5b505050506040513d601f19601f82011682018060405250810190610db79190613c58565b80610d425750506007546001600160a01b0390811691161490565b600054604051637df73e2760e01b81523360048201819052916001600160a01b031690637df73e2790602401602060405180830381865afa158015610e1b573d6000803e3d6000fd5b505050506040513d601f19601f82011682018060405250810190610e3f9190613c58565b610e645760405162461bcd60e51b8152600401610e5b90613c75565b60405180910390fd5b600080546040516307612f9160e21b81523360048201526001600160a01b0390911690631d84be44906024016020604051808303816000875af1158015610eaf573d6000803e3d6000fd5b505050506040513d601f19601f82011682018060405250810190610ed39190613c9c565b9050610f066040805160a08101825260008082526020820181905291810182905260608101829052608081019190915290565b600160208201819052829003610f1e57600160408201525b81600203610f2e57600160608201525b81600303610f3e57600160808201525b6001600160a01b03909316808452600880546020860151604087015160608801516080909801511515600160b81b0260ff60b81b19981515600160b01b0260ff60b01b19921515600160a81b029290921661ffff60a81b19931515600160a01b026001600160a81b03199095169096179390931791909116939093179290921794909416179092555050565b6001600160a01b0382166000908152600f60205260408120600301805483908110610ff757610ff7613b99565b6000918252602090912001546001600160a01b03169392505050565b6001600160a01b0382166000908152600f6020526040812060040180548291908490811061104357611043613b99565b9060005260206000200154600f6000866001600160a01b03166001600160a01b03168152602001908152602001600020600501848154811061108757611087613b99565b9060005260206000200154915091509250929050565b6001600160a01b03828116600090815260096020526040812054909116158015906110e457506001600160a01b038381166000908152600960205260409020548116908316145b8015610c405750506001600160a01b039081166000908152600a6020526040902054811691161490565b60008054906101000a90046001600160a01b03166001600160a01b0316636a276f9d6040518163ffffffff1660e01b8152600401602060405180830381865afa15801561115f573d6000803e3d6000fd5b505050506040513d601f19601f820116820180604052508101906111839190613c58565b61119f5760405162461bcd60e51b8152600401610e5b90613cb5565b806001600160a01b0381166111c65760405162461bcd60e51b8152600401610e5b90613cec565b826001600160a01b0381166111ed5760405162461bcd60e51b8152600401610e5b90613cec565b6000546040516319c0642960e01b81523360048201819052916001600160a01b0316906319c0642990602401602060405180830381865afa158015611236573d6000803e3d6000fd5b505050506040513d601f19601f8201168201806040525081019061125a9190613c58565b8061127257506007546001600160a01b038281169116145b61128e5760405162461bcd60e51b8152600401610e5b90613d14565b61129785612bce565b80156112a957506112a784612bce565b155b6112ed5760405162461bcd60e51b81526020600482015260156024820152741b9bdd08195e1a5cdd1cc81bdc881a5b9d985b1a59605a1b6044820152606401610e5b565b5050506001600160a01b03918216600081815260096020818152604080842080549688168086528286208054988a166001600160a01b0319998a1617905581549098168552600a8352908420805487169097179096559290915290528154169055565b6001600160a01b0381166000908152600f602052604081206004018054829190829061137e5761137e613b99565b906000526020600020015460000361139b57506000928392509050565b60008080808060015b6001600160a01b0389166000908152600f60205260409020600401548110156114f257600154604051635962205f60e01b8152600481018390526001600160a01b0390911690635962205f9060240160a060405180830381865afa158015611410573d6000803e3d6000fd5b505050506040513d601f19601f820116820180604052508101906114349190613d4b565b93995091975095509350915061144b846064613c06565b6001600160a01b038a166000908152600c6020908152604080832085845290915290205461147a908790613c06565b6114849190613c1d565b61148e9089613bf3565b975061149b826064613c06565b6001600160a01b038a166000908152600b602090815260408083208584529091529020546114ca908590613c06565b6114d49190613c1d565b6114de9088613bf3565b9650806114ea81613c3f565b9150506113a4565b505050505050915091565b60008054906101000a90046001600160a01b03166001600160a01b0316636a276f9d6040518163ffffffff1660e01b8152600401602060405180830381865afa15801561154e573d6000803e3d6000fd5b505050506040513d601f19601f820116820180604052508101906115729190613c58565b61158e5760405162461bcd60e51b8152600401610e5b90613cb5565b6000546040516319c0642960e01b81523360048201819052916001600160a01b0316906319c0642990602401602060405180830381865afa1580156115d7573d6000803e3d6000fd5b505050506040513d601f19601f820116820180604052508101906115fb9190613c58565b8061161357506007546001600160a01b038281169116145b61162f5760405162461bcd60e51b8152600401610e5b90613d14565b506014805460ff1916911515919091179055565b60008054906101000a90046001600160a01b03166001600160a01b0316636a276f9d6040518163ffffffff1660e01b8152600401602060405180830381865afa158015611694573d6000803e3d6000fd5b505050506040513d601f19601f820116820180604052508101906116b89190613c58565b6116d45760405162461bcd60e51b8152600401610e5b90613cb5565b6000546040516319c0642960e01b81523360048201819052916001600160a01b0316906319c0642990602401602060405180830381865afa15801561171d573d6000803e3d6000fd5b505050506040513d601f19601f820116820180604052508101906117419190613c58565b8061175957506007546001600160a01b038281169116145b6117755760405162461bcd60e51b8152600401610e5b90613d14565b611785611780612bee565b612c20565b50565b60008054906101000a90046001600160a01b03166001600160a01b0316636a276f9d6040518163ffffffff1660e01b8152600401602060405180830381865afa1580156117d9573d6000803e3d6000fd5b505050506040513d601f19601f820116820180604052508101906117fd9190613c58565b6118195760405162461bcd60e51b8152600401610e5b90613cb5565b6000546040516319c0642960e01b81523360048201819052916001600160a01b0316906319c0642990602401602060405180830381865afa158015611862573d6000803e3d6000fd5b505050506040513d601f19601f820116820180604052508101906118869190613c58565b8061189e57506007546001600160a01b038281169116145b6118ba5760405162461bcd60e51b8152600401610e5b90613d14565b826001600160a01b0381166118e15760405162461bcd60e51b8152600401610e5b90613cec565b6118ea846109bf565b1561191c576001600160a01b0384166000908152600f60205260409020600701805461ff001916610100851515021790555b50505050565b60006010828154811061193757611937613b99565b6000918252602090912001546001600160a01b031692915050565b60008060009054906101000a90046001600160a01b03166001600160a01b0316636a276f9d6040518163ffffffff1660e01b8152600401602060405180830381865afa1580156119a6573d6000803e3d6000fd5b505050506040513d601f19601f820116820180604052508101906119ca9190613c58565b6119e65760405162461bcd60e51b8152600401610e5b90613cb5565b6000546040516319c0642960e01b81523360048201819052916001600160a01b0316906319c0642990602401602060405180830381865afa158015611a2f573d6000803e3d6000fd5b505050506040513d601f19601f82011682018060405250810190611a539190613c58565b80611a6b57506007546001600160a01b038281169116145b611a875760405162461bcd60e51b8152600401610e5b90613d14565b6000611a9232610d48565b6001600160a01b0380891660009081526009602052604090205491925016611ab986612bce565b158015611acc5750611aca876109bf565b155b611b095760405162461bcd60e51b815260206004820152600e60248201526d616c72656164792065786973747360901b6044820152606401610e5b565b611b1288612bce565b8015611b225750611b22816109bf565b80611b4f57506001600160a01b038816158015611b4657506001600160a01b038116155b8015611b4f5750815b611b8f5760405162461bcd60e51b8152602060048201526011602482015270706172656e74206e6f742065786973747360781b6044820152606401610e5b565b8180611bce57506001600160a01b0381166000908152600f6020526040812060040180548290611bc157611bc1613b99565b9060005260206000200154115b611c095760405162461bcd60e51b815260206004820152600c60248201526b6c6f7720627573696e65737360a01b6044820152606401610e5b565b6001600160a01b0380871660008181526009602090815260408083208054958d166001600160a01b031996871681179091558352600a90915290208054909216179055611c57611780612bee565b600160136000611c65612bee565b815260200190815260200160002060008081526020019081526020016000206000828254611c939190613bf3565b9091555050601080546001810182556000919091527f1b6847dc741a1b0cd08d278845f9d819d87b734759afb55fe2de5cb82a9ae6720180546001600160a01b0319166001600160a01b038916179055611ced8188612e81565b50506001600160a01b0385166000908152600f6020526040902060070180548415156101000261ff0019909116179055601054915050949350505050565b600054604051637df73e2760e01b81523360048201819052916001600160a01b031690637df73e2790602401602060405180830381865afa158015611d74573d6000803e3d6000fd5b505050506040513d601f19601f82011682018060405250810190611d989190613c58565b611db45760405162461bcd60e51b8152600401610e5b90613c75565b811561200157600080546040516307612f9160e21b81523360048201526001600160a01b0390911690631d84be44906024016020604051808303816000875af1158015611e05573d6000803e3d6000fd5b505050506040513d601f19601f82011682018060405250810190611e299190613c9c565b600854909150600160a01b900460ff168015611e455750806001145b8015611e5e57506008546001600160a01b038581169116145b15611e77576008805460ff60a81b1916600160a81b1790555b600854600160a01b900460ff168015611e905750806002145b8015611ea957506008546001600160a01b038581169116145b15611ec2576008805460ff60b01b1916600160b01b1790555b600854600160a01b900460ff168015611edb5750806003145b8015611ef457506008546001600160a01b038581169116145b15611f0d576008805460ff60b81b1916600160b81b1790555b600854600090600160a81b900460ff1615611f305780611f2c81613c3f565b9150505b600854600160b01b900460ff1615611f505780611f4c81613c3f565b9150505b600854600160b81b900460ff1615611f705780611f6c81613c3f565b9150505b600854600160a01b900460ff168015611f895750806002145b8015611fa257506008546001600160a01b038681169116145b15611ffa57600780546001600160a01b0319166001600160a01b0387161790556040805160a0810182526000808252602082018190529181018290526060810182905260800152600880546001600160c01b03191690555b5050505050565b6040805160a0810182526000808252602082018190529181018290526060810182905260800152600880546001600160c01b03191690555b505050565b60008054906101000a90046001600160a01b03166001600160a01b0316636a276f9d6040518163ffffffff1660e01b8152600401602060405180830381865afa15801561208f573d6000803e3d6000fd5b505050506040513d601f19601f820116820180604052508101906120b39190613c58565b6120cf5760405162461bcd60e51b8152600401610e5b90613cb5565b6000546040516319c0642960e01b81523360048201819052916001600160a01b0316906319c0642990602401602060405180830381865afa158015612118573d6000803e3d6000fd5b505050506040513d601f19601f8201168201806040525081019061213c9190613c58565b61217c5760405162461bcd60e51b815260206004820152601160248201527024b73b30b634b21029b0b332a7bbb732b960791b6044820152606401610e5b565b50600080546001600160a01b03199081166001600160a01b03978816179091556001805482169587169590951790945560028054851693861693909317909255600680548416918516919091179055600480549092169216919091179055565b6000546040516319c0642960e01b81523260048201819052916001600160a01b0316906319c0642990602401602060405180830381865afa158015612225573d6000803e3d6000fd5b505050506040513d601f19601f820116820180604052508101906122499190613c58565b6122895760405162461bcd60e51b815260206004820152601160248201527024b73b30b634b21029b0b332a7bbb732b960791b6044820152606401610e5b565b60405160009083156108fc0290849083818181858288f19350505050158015612039573d6000803e3d6000fd5b60008054604051633f978d1f60e11b81526001600160a01b03848116600483015290911690637f2f1a3e90602401602060405180830381865afa158015612301573d6000803e3d6000fd5b505050506040513d601f19601f82011682018060405250810190610d429190613c58565b60008054906101000a90046001600160a01b03166001600160a01b0316636a276f9d6040518163ffffffff1660e01b8152600401602060405180830381865afa158015612376573d6000803e3d6000fd5b505050506040513d601f19601f8201168201806040525081019061239a9190613c58565b6123b65760405162461bcd60e51b8152600401610e5b90613cb5565b33806123d45760405162461bcd60e51b8152600401610e5b90613cec565b336123de816109bf565b6124175760405162461bcd60e51b815260206004820152600a6024820152693bb937b733903ab9b2b960b11b6044820152606401610e5b565b6001600160a01b0385166000908152600f6020526040902060070154610100900460ff161580612449575060145460ff165b6124805760405162461bcd60e51b8152602060048201526008602482015267696e61637469766560c01b6044820152606401610e5b565b61248b611780612bee565b612494846131c9565b6001600160a01b0385166000908152600f6020526040812060040180548692906124c0576124c0613b99565b9060005260206000200160008282546124d99190613bf3565b90915550506001600160a01b0385166000908152600f60205260408120600501805485929061250a5761250a613b99565b9060005260206000200160008282546125239190613bf3565b90915550600190505b600f8160ff161161279c576001600160a01b039586166000908152600f6020526040902060010154610100900490951694851561279c576001600160a01b0386166000908152600f60205260409020600401805486919060ff841690811061259657612596613b99565b9060005260206000200160008282546125af9190613bf3565b90915550506001600160a01b0386166000908152600f60205260409020600501805485919060ff84169081106125e7576125e7613b99565b9060005260206000200160008282546126009190613bf3565b9091555050600860ff8216101561261a5761261a8661327e565b6001600160a01b038087166000908152600f6020908152604080832060060154600154825163af0b21d360e01b815292519195169263af0b21d392600480820193918290030181865afa158015612675573d6000803e3d6000fd5b505050506040513d601f19601f820116820180604052508101906126999190613c9c565b905060006126a689610c47565b6001600160a01b038a166000908152600f602052604081206004018054929350909182906126d6576126d6613b99565b9060005260206000200154118015612709575060008111806127095750826126fc612bee565b6127069190613d8b565b82115b801561273657506001600160a01b0389166000908152600f6020526040902060070154610100900460ff16155b8015612745575060145460ff16155b15612786576001600160a01b0389166000908152600c6020908152604080832060ff88168452909152812080548a9290612780908490613bf3565b90915550505b505050808061279490613d9e565b91505061252c565b505050505050565b60606127af826137ed565b6040516020016127bf9190613dbd565b6040516020818303038152906040529050919050565b60008054906101000a90046001600160a01b03166001600160a01b0316636a276f9d6040518163ffffffff1660e01b8152600401602060405180830381865afa158015612826573d6000803e3d6000fd5b505050506040513d601f19601f8201168201806040525081019061284a9190613c58565b6128665760405162461bcd60e51b8152600401610e5b90613cb5565b33806128845760405162461bcd60e51b8152600401610e5b90613cec565b3361288e816109bf565b6128c75760405162461bcd60e51b815260206004820152600a6024820152693bb937b733903ab9b2b960b11b6044820152606401610e5b565b336000908152600f6020526040902060019081015461010090046001600160a01b0316905b600f8160ff1611611ffa576001600160a01b03821615611ffa57600061291183610c47565b6001600160a01b038085166000908152600f6020908152604080832060060154600154825163af0b21d360e01b8152925196975090959394169263af0b21d3926004808401939192918290030181865afa158015612973573d6000803e3d6000fd5b505050506040513d601f19601f820116820180604052508101906129979190613c9c565b6001600160a01b0386166000908152600f602052604081206004018054929350909182906129c7576129c7613b99565b90600052602060002001541180156129fa575060008311806129fa5750816129ed612bee565b6129f79190613d8b565b81115b8015612a2757506001600160a01b0385166000908152600f6020526040902060070154610100900460ff16155b15612a68576001600160a01b0385166000908152600b6020908152604080832060ff88168452909152812080548a9290612a62908490613bf3565b90915550505b5050506001600160a01b039182166000908152600f602052604090206001015461010090049091169080612a9b81613d9e565b9150506128ec565b600054604051637df73e2760e01b81523260048201819052916001600160a01b031690637df73e2790602401602060405180830381865afa158015612aec573d6000803e3d6000fd5b505050506040513d601f19601f82011682018060405250810190612b109190613c58565b612b2c5760405162461bcd60e51b8152600401610e5b90613c75565b826001600160a01b038116612b535760405162461bcd60e51b8152600401610e5b90613cec565b3280612b715760405162461bcd60e51b8152600401610e5b90613cec565b3380612b8f5760405162461bcd60e51b8152600401610e5b90613cec565b6040516001600160a01b0387169086156108fc029087906000818181858888f19350505050158015612bc5573d6000803e3d6000fd5b50505050505050565b6001600160a01b0390811660009081526009602052604090205416151590565b6000612bfe620151806001613c06565b601154612c0b9042613d8b565b612c159190613c1d565b610d18906001613bf3565b6000818152601360209081526040808320838052909152902054158015612c475750600181115b1561178557612c5a611780600183613d8b565b60136000612c69600184613d8b565b815260208082019290925260409081016000908120818052835281812054848252601380855283832083805290945291812091909155612caa600184613d8b565b81526020808201929092526040908101600090812060018083529084528282205485835260138086528484208385529095529282209290925590612cee9084613d8b565b8152602080820192909252604090810160009081206002808352908452828220548583526013808652848420928452919094529181209290925590612d34600184613d8b565b8152602080820192909252604090810160009081206003808352908452828220548583526013808652848420928452919094529181209290925590612d7a600184613d8b565b8152602080820192909252604090810160009081206004808352908452828220548583526013808652848420928452919094529181209290925590612dc0600184613d8b565b8152602080820192909252604090810160009081206005808352908452828220548583526013808652848420928452919094529181209290925590612e06600184613d8b565b8152602080820192909252604090810160009081206006808352908452828220548583526013808652848420928452919094529181209290925590612e4c600184613d8b565b815260208082019290925260409081016000908120600780835290845282822054858352601385528383209183529352205550565b612ee76040518061014001604052806000815260200160001515815260200160006001600160a01b031681526020016000815260200160608152602001606081526020016060815260200160008152602001600060ff1681526020016000151581525090565b6001600160a01b03831660408201526001602082015260006060820152612f0c612bee565b60e08201526001600160a01b03831615612f3057612f2a838361381b565b60608201525b6001600160a01b038083166000908152600f602090815260409182902084518155818501516001820180549487015190951661010002610100600160a81b0319911515919091166001600160a81b0319909416939093179290921790925560608301516002820155608083015180518493612fb292600385019291019061386e565b5060a08201518051612fce9160048401916020909101906138d3565b5060c08201518051612fea9160058401916020909101906138d3565b5060e0820151600682015561010080830151600790920180546101209094015160ff90931661ffff1990941693909317911515021790556010546001600160a01b038381166000908152600f60205260409020918255600490910190841615613054576000613057565b60015b8154600181810184556000938452602080852060ff90941693909201929092556001600160a01b0385168352600f8152604083206005018054808401825590845290832001919091555b600f8160ff161161191c576001600160a01b0384161561191c576130c6816001613e4c565b6001600160a01b0385166000908152600f602052604090206004015460ff91909116111561311c576001600160a01b0384166000908152600f602090815260408220600401805460018101825590835290822001555b613127816001613e4c565b6001600160a01b0385166000908152600f602052604090206005015460ff91909116111561317d576001600160a01b0384166000908152600f602090815260408220600501805460018101825590835290822001555b8060ff16600103613191576131918461327e565b6001600160a01b039384166000908152600f6020526040902060010154610100900490931692806131c181613d9e565b9150506130a1565b60145460ff1615613238576000805260126020527f7e7fa33969761a458e04f477e039a608702b4f924981d6653935a8319a08ad7b5461320a908290613bf3565b6000805260126020527f7e7fa33969761a458e04f477e039a608702b4f924981d6653935a8319a08ad7b5550565b8060126000613245612bee565b81526020019081526020016000205461325e9190613bf3565b6012600061326a612bee565b815260208101919091526040016000205550565b6000808060015b60078160ff161161348c576001600160a01b0385166000908152600f602052604090206005015460ff8216101561348c576132c1600182613e65565b6001805460405163575e699560e11b815260ff8581166004830152939093169190911b93506001600160a01b03169063aebcd32a906024016040805180830381865afa158015613315573d6000803e3d6000fd5b505050506040513d601f19601f820116820180604052508101906133399190613e7e565b6001600160a01b0387166000908152600f6020526040902060030154919550935084118015906133a557506001600160a01b0385166000908152600f60205260409020600501805484919060ff841690811061339757613397613b99565b906000526020600020015410155b80156133cf57506001600160a01b0385166000908152600f6020526040902060070154821660ff16155b1561347a576001600160a01b0385166000908152600f60205260409020600701805460ff8085169082161760ff1990911617905561340b612bee565b6001600160a01b0386166000908152600e6020908152604080832060ff86168452909152812091909155600190601390613443612bee565b815260200190815260200160002060008360ff16815260200190815260200160002060008282546134749190613bf3565b90915550505b8061348481613d9e565b915050613285565b506001600160a01b0384166000908152600d6020908152604080832060028452909152812054900361363b5760026134c385610c47565b101580156134d3575060145460ff165b15613505576001600160a01b0384166000908152600d602090815260408083206002845290915290206001905561363b565b600261351085610c47565b1061363b57600160009054906101000a90046001600160a01b03166001600160a01b03166393f913f56040518163ffffffff1660e01b8152600401602060405180830381865afa158015613568573d6000803e3d6000fd5b505050506040513d601f19601f8201168201806040525081019061358c9190613c9c565b600154604051633784962f60e11b8152600260048201526001600160a01b0390911690636f092c5e90602401602060405180830381865afa1580156135d5573d6000803e3d6000fd5b505050506040513d601f19601f820116820180604052508101906135f99190613c9c565b61360b90670de0b6b3a7640000613c06565b6136159190613c1d565b6001600160a01b0385166000908152600d60209081526040808320600284529091529020555b6001600160a01b0384166000908152600d6020908152604080832060048452909152812054900361191c57600461367185610c47565b10158015613681575060145460ff165b156136b3576001600160a01b0384166000908152600d602090815260408083206004845290915290206001905561191c565b60046136be85610c47565b1061191c57600160009054906101000a90046001600160a01b03166001600160a01b03166393f913f56040518163ffffffff1660e01b8152600401602060405180830381865afa158015613716573d6000803e3d6000fd5b505050506040513d601f19601f8201168201806040525081019061373a9190613c9c565b600154604051633784962f60e11b81526004808201526001600160a01b0390911690636f092c5e90602401602060405180830381865afa158015613782573d6000803e3d6000fd5b505050506040513d601f19601f820116820180604052508101906137a69190613c9c565b6137b890670de0b6b3a7640000613c06565b6137c29190613c1d565b6001600160a01b0385166000908152600d602090815260408083206004845290915290205550505050565b6060816001600160a01b0316803b806020016040519081016040528181526000908060200190933c92915050565b6001600160a01b038281166000818152600f6020908152604082206003018054600180820183558285529284200180546001600160a01b031916958716959095179094559181529154610c409190613d8b565b8280548282559060005260206000209081019282156138c3579160200282015b828111156138c357825182546001600160a01b0319166001600160a01b0390911617825560209092019160019091019061388e565b506138cf92915061390e565b5090565b8280548282559060005260206000209081019282156138c3579160200282015b828111156138c35782518255916020019190600101906138f3565b5b808211156138cf576000815560010161390f565b80356001600160a01b038116811461393a57600080fd5b919050565b60006020828403121561395157600080fd5b610c4082613923565b60008060006060848603121561396f57600080fd5b61397884613923565b95602085013595506040909401359392505050565b600080604083850312156139a057600080fd5b6139a983613923565b946020939093013593505050565b600080604083850312156139ca57600080fd5b6139d383613923565b91506139e160208401613923565b90509250929050565b801515811461178557600080fd5b600060208284031215613a0a57600080fd5b8135610c40816139ea565b60008060408385031215613a2857600080fd5b50508035926020909101359150565b60008060408385031215613a4a57600080fd5b613a5383613923565b91506020830135613a63816139ea565b809150509250929050565b600060208284031215613a8057600080fd5b5035919050565b60008060008060808587031215613a9d57600080fd5b613aa685613923565b9350613ab460208601613923565b9250613ac260408601613923565b91506060850135613ad2816139ea565b939692955090935050565b600080600080600060a08688031215613af557600080fd5b613afe86613923565b9450613b0c60208701613923565b9350613b1a60408701613923565b9250613b2860608701613923565b9150613b3660808701613923565b90509295509295909350565b60005b83811015613b5d578181015183820152602001613b45565b50506000910152565b6020815260008251806020840152613b85816040850160208701613b42565b601f01601f19169190910160400192915050565b634e487b7160e01b600052603260045260246000fd5b600080600060608486031215613bc457600080fd5b8351925060208401519150604084015190509250925092565b634e487b7160e01b600052601160045260246000fd5b80820180821115610d4257610d42613bdd565b8082028115828204841417610d4257610d42613bdd565b600082613c3a57634e487b7160e01b600052601260045260246000fd5b500490565b600060018201613c5157613c51613bdd565b5060010190565b600060208284031215613c6a57600080fd5b8151610c40816139ea565b6020808252600d908201526c24b73b30b634b21027bbb732b960991b604082015260600190565b600060208284031215613cae57600080fd5b5051919050565b6020808252601a908201527f496e76616c6964205361666567756172642e6973536166652829000000000000604082015260600190565b6020808252600e908201526d3232b330bab63a1039b2b73232b960911b604082015260600190565b60208082526018908201527f496e76616c6964204f776e65724f72536166654f776e65720000000000000000604082015260600190565b600080600080600060a08688031215613d6357600080fd5b5050835160208501516040860151606087015160809097015192989197509594509092509050565b81810381811115610d4257610d42613bdd565b600060ff821660ff8103613db457613db4613bdd565b60010192915050565b60008251613dcf818460208701613b42565b730468e8dc225c4746454419c9dcccb59a581434b160631b92019182525073d416952dc46fce2775e90571d46a79565d04cb2560601b602082015273094c37fb9b5b2065409a5c7cb9bff71c4d49bf4160601b604082015273fe69687ce9c746c10e1c2af1e3f5d1475df4300f60601b6060820152607401919050565b60ff8181168382160190811115610d4257610d42613bdd565b60ff8281168282160390811115610d4257610d42613bdd565b60008060408385031215613e9157600080fd5b50508051602090910151909290915056fea26469706673582212206d6a8e1baece41305cbe22e9dc7de5f0780040b40b5f6c493013ebee1099e08964736f6c63430008140033","linkReferences":{}},"methodIdentifiers":{"Burn(uint256)":"b90306ad","InstToUser(address)":"247349d5","UserToInst(address)":"45145fd7","_addBusiness(address,uint256,uint256)":"c4cf0e3f","_addParentYei(uint256)":"dd1b98ac","_nested(address,address,address,bool)":"9b51cad1","_setInstOfUser(address,address)":"710a4ddc","_setOwner(address,bool)":"abb8c965","_setReq(address)":"41ffe7c4","age()":"262a9dff","at(address)":"dce4a447","getBalance()":"12065fe0","getEffectiveRank(address)":"1f5fa838","getNode(address)":"9d209048","getNodeByIndex(uint256)":"965c90e3","getNodeChild(address,uint256)":"45675cc8","getNodeDirectsCount(address)":"321f4f21","getNodeLB(address,uint256)":"5329daca","getNodeLvlDepth(address)":"08a39111","getNodeParent(address)":"1bb49f02","getNodesCount()":"61ea7208","getRewards(address)":"79ee54f7","getRoyalitydead(address,uint256,uint256)":"1e6b429c","getTours(address)":"cda9c564","getbusiness(uint256)":"eb95c662","getnodeRnk(address)":"389fac60","getnodeRnkAge(address,uint256)":"3ddce00b","getnoderankage(address,uint256)":"26524621","getrankCount(uint256,uint256)":"80f85e33","getrankcount(uint256,uint256)":"87e57f5a","isAccountSafeOwner(address)":"c3bd18c3","isCreated(address)":"f8027296","isInstance(address)":"6b44e6be","isNode(address)":"01750152","isOwnerOrSafeOwner(address)":"379a423c","isStop(address)":"cf359165","isUserInst(address,address)":"5d423396","owner()":"8da5cb5b","req()":"0d43aaf2","setDefaultRankCount()":"9380fd5f","setImported(bool)":"8033eded","setParam(address,address,address,address,address)":"b0751823","setStop(address,bool)":"957138a4","withdraw(address,uint256)":"f3fef3a3"},"id":0}