{"abi":[{"type":"fallback","stateMutability":"payable"},{"type":"receive","stateMutability":"payable"},{"type":"function","name":"Burn","inputs":[{"name":"amount","type":"uint256","internalType":"uint256"}],"outputs":[],"stateMutability":"payable"},{"type":"function","name":"LSB","inputs":[{"name":"","type":"uint256","internalType":"uint256"}],"outputs":[{"name":"","type":"int256","internalType":"int256"}],"stateMutability":"view"},{"type":"function","name":"Txn","inputs":[{"name":"orc1155","type":"address","internalType":"address"},{"name":"_id_maxint","type":"uint256","internalType":"uint256"},{"name":"_qty","type":"uint256","internalType":"uint256"},{"name":"_type","type":"uint256","internalType":"uint256"}],"outputs":[{"name":"","type":"int8","internalType":"int8"}],"stateMutability":"payable"},{"type":"function","name":"TxnSys","inputs":[{"name":"orc1155","type":"address","internalType":"address"},{"name":"_id","type":"uint256","internalType":"uint256"},{"name":"_qty","type":"uint256","internalType":"uint256"},{"name":"_amt","type":"uint256","internalType":"uint256"}],"outputs":[{"name":"","type":"int8","internalType":"int8"}],"stateMutability":"payable"},{"type":"function","name":"_computeself","inputs":[{"name":"ag","type":"uint256","internalType":"uint256"},{"name":"maxinterwal","type":"uint256","internalType":"uint256"}],"outputs":[{"name":"p3","type":"uint256","internalType":"uint256"}],"stateMutability":"view"},{"type":"function","name":"_setOwner","inputs":[{"name":"own","type":"address","internalType":"address"},{"name":"isApproved","type":"bool","internalType":"bool"}],"outputs":[],"stateMutability":"nonpayable"},{"type":"function","name":"_setReq","inputs":[{"name":"own","type":"address","internalType":"address"}],"outputs":[],"stateMutability":"nonpayable"},{"type":"function","name":"at","inputs":[{"name":"_addr","type":"address","internalType":"address"}],"outputs":[{"name":"o_code","type":"bytes","internalType":"bytes"}],"stateMutability":"view"},{"type":"function","name":"bonus","inputs":[],"outputs":[{"name":"","type":"uint256","internalType":"uint256"}],"stateMutability":"view"},{"type":"function","name":"cage","inputs":[],"outputs":[{"name":"","type":"uint256","internalType":"uint256"}],"stateMutability":"view"},{"type":"function","name":"compute","inputs":[{"name":"maxinterwal","type":"uint256","internalType":"uint256"}],"outputs":[{"name":"p3","type":"uint256","internalType":"uint256"},{"name":"cap","type":"bool","internalType":"bool"}],"stateMutability":"view"},{"type":"function","name":"computeMintValue","inputs":[{"name":"_qty","type":"uint256","internalType":"uint256"}],"outputs":[{"name":"","type":"uint256","internalType":"uint256"}],"stateMutability":"view"},{"type":"function","name":"drawn","inputs":[],"outputs":[{"name":"p3","type":"uint256","internalType":"uint256"}],"stateMutability":"view"},{"type":"function","name":"drawnage","inputs":[],"outputs":[{"name":"","type":"uint256","internalType":"uint256"}],"stateMutability":"view"},{"type":"function","name":"getBalance","inputs":[],"outputs":[{"name":"","type":"uint256","internalType":"uint256"}],"stateMutability":"view"},{"type":"function","name":"id","inputs":[],"outputs":[{"name":"","type":"uint256","internalType":"uint256"}],"stateMutability":"view"},{"type":"function","name":"init","inputs":[{"name":"_u","type":"address","internalType":"address"},{"name":"_i","type":"uint256","internalType":"uint256"},{"name":"_bonus","type":"uint256","internalType":"uint256"}],"outputs":[],"stateMutability":"nonpayable"},{"type":"function","name":"isAccountSafeOwner","inputs":[{"name":"sender","type":"address","internalType":"address"}],"outputs":[{"name":"","type":"bool","internalType":"bool"}],"stateMutability":"view"},{"type":"function","name":"isOwnerOrSafeOwner","inputs":[{"name":"sender","type":"address","internalType":"address"}],"outputs":[{"name":"","type":"bool","internalType":"bool"}],"stateMutability":"view"},{"type":"function","name":"lastMintAge","inputs":[],"outputs":[{"name":"","type":"uint256","internalType":"uint256"}],"stateMutability":"view"},{"type":"function","name":"mintCount","inputs":[],"outputs":[{"name":"","type":"uint256","internalType":"uint256"}],"stateMutability":"view"},{"type":"function","name":"mintDailyCount","inputs":[],"outputs":[{"name":"","type":"uint256","internalType":"uint256"}],"stateMutability":"view"},{"type":"function","name":"mints","inputs":[{"name":"","type":"uint256","internalType":"uint256"}],"outputs":[{"name":"","type":"address","internalType":"address"}],"stateMutability":"view"},{"type":"function","name":"owner","inputs":[],"outputs":[{"name":"","type":"address","internalType":"address"}],"stateMutability":"view"},{"type":"function","name":"req","inputs":[],"outputs":[{"name":"newowner","type":"address","internalType":"address"},{"name":"isReq","type":"bool","internalType":"bool"},{"name":"isVer1","type":"bool","internalType":"bool"},{"name":"isVer2","type":"bool","internalType":"bool"},{"name":"isVer3","type":"bool","internalType":"bool"}],"stateMutability":"view"},{"type":"function","name":"setBonus","inputs":[{"name":"b","type":"uint256","internalType":"uint256"}],"outputs":[],"stateMutability":"payable"},{"type":"function","name":"setParam","inputs":[{"name":"s","type":"address","internalType":"address"},{"name":"r","type":"address","internalType":"address"},{"name":"m","type":"address","internalType":"address"},{"name":"f","type":"address","internalType":"address"},{"name":"t","type":"address","internalType":"address"}],"outputs":[],"stateMutability":"nonpayable"},{"type":"function","name":"setStopWithdraw","inputs":[{"name":"_f","type":"bool","internalType":"bool"}],"outputs":[],"stateMutability":"nonpayable"},{"type":"function","name":"transferOwner","inputs":[{"name":"own","type":"address","internalType":"address"}],"outputs":[],"stateMutability":"nonpayable"},{"type":"function","name":"transferOwnerNFTs","inputs":[{"name":"own","type":"address","internalType":"address"}],"outputs":[],"stateMutability":"nonpayable"},{"type":"function","name":"withdraw","inputs":[{"name":"to","type":"address","internalType":"address"},{"name":"amount","type":"uint256","internalType":"uint256"}],"outputs":[],"stateMutability":"payable"},{"type":"event","name":"LogTxns","inputs":[{"name":"from","type":"address","indexed":false,"internalType":"address"},{"name":"orc1155","type":"address","indexed":false,"internalType":"address"},{"name":"_amt","type":"uint256","indexed":false,"internalType":"uint256"},{"name":"_value","type":"uint256","indexed":false,"internalType":"uint256"},{"name":"_time","type":"uint256","indexed":false,"internalType":"uint256"},{"name":"_type","type":"uint256","indexed":false,"internalType":"uint256"}],"anonymous":false}],"bytecode":{"object":"0x608060405260006009556013805460ff1916905534801561001f57600080fd5b50610103600080546001600160a01b03199081167308ff697696398fac0dcee979bb0f1fb7b7fc380b1790915560018054821673882bf41aa8e3fad0695be39e4434af54786eb24a179055600280548216739f33b44587a57758c1413dbab6640f6abea5cef4179055600380548216732463fc29b8b635c4120c4fe32aadc580d1993480179055600480548216737e2baf007a3761d33afee572a7e7a08c1499b99d179055600580548216732dcacbb8c0d6869bbab27b184b1f4e12e43efd9b17905560068054909116739bfc2af8a5e49a72bfb58e22312ce07d61fe7739179055565b600780546001600160a01b031916321790556132fd806101246000396000f3fe6080604052600436106101c45760003560e01c80639659867e116100f6578063b90306ad1161008f578063dce4a44711610061578063dce4a44714610593578063ece0b57a146105c0578063f3fef3a3146105d6578063fd915ef2146105e957005b8063b90306ad1461052d578063c107930a14610540578063c3bd18c314610553578063d57d418f1461057357005b8063a98bf4f9116100c8578063a98bf4f9146104aa578063abb8c965146104d7578063af640d0f146104f7578063b07518231461050d57005b80639659867e1461042e5780639822822614610444578063a3e884b014610464578063a4a2a9f61461048a57005b806341ffe7c41161016857806366fb5f7a1161013a57806366fb5f7a146103cf57806369245009146103e457806375b4d78c146103fa5780638da5cb5b1461041057005b806341ffe7c41461030c5780634fb2e45d1461032c5780635ed86d5c1461034c5780636350b2c21461038157005b806326c5adae116101a157806326c5adae1461028657806327bfab88146102a6578063379a423c146102bc5780633cb9ae9e146102ec57005b80630b98f975146101cd5780630d43aaf2146101e057806312065fe01461026957005b366101cb57005b005b6101cb6101db366004612cd1565b6105fe565b3480156101ec57600080fd5b5060085461022a906001600160a01b0381169060ff600160a01b8204811691600160a81b8104821691600160b01b8204811691600160b81b90041685565b604080516001600160a01b03909616865293151560208601529115159284019290925290151560608301521515608082015260a0015b60405180910390f35b34801561027557600080fd5b50475b604051908152602001610260565b34801561029257600080fd5b506102786102a1366004612cd1565b610749565b3480156102b257600080fd5b50610278600c5481565b3480156102c857600080fd5b506102dc6102d7366004612d02565b6107d6565b6040519015158152602001610260565b3480156102f857600080fd5b50610278610307366004612d1f565b610863565b34801561031857600080fd5b506101cb610327366004612d02565b610953565b34801561033857600080fd5b506101cb610347366004612d02565b610b62565b34801561035857600080fd5b5061036c610367366004612cd1565b610c9f565b60408051928352901515602083015201610260565b34801561038d57600080fd5b506103b761039c366004612cd1565b600a602052600090815260409020546001600160a01b031681565b6040516001600160a01b039091168152602001610260565b3480156103db57600080fd5b50600e54610278565b3480156103f057600080fd5b50610278600b5481565b34801561040657600080fd5b5061027860125481565b34801561041c57600080fd5b506007546001600160a01b03166103b7565b34801561043a57600080fd5b5061027860095481565b34801561045057600080fd5b506101cb61045f366004612d02565b610d2b565b610477610472366004612d41565b610f5e565b60405160009190910b8152602001610260565b34801561049657600080fd5b506101cb6104a5366004612d7c565b611733565b3480156104b657600080fd5b506102786104c5366004612cd1565b60106020526000908152604090205481565b3480156104e357600080fd5b506101cb6104f2366004612dbf565b611900565b34801561050357600080fd5b5061027860115481565b34801561051957600080fd5b506101cb610528366004612df8565b611c32565b6101cb61053b366004612cd1565b611dac565b61047761054e366004612d41565b611e62565b34801561055f57600080fd5b506102dc61056e366004612d02565b612199565b34801561057f57600080fd5b506101cb61058e366004612e69565b612208565b34801561059f57600080fd5b506105b36105ae366004612d02565b612336565b6040516102609190612eaa565b3480156105cc57600080fd5b50610278600d5481565b6101cb6105e4366004612edd565b612367565b3480156105f557600080fd5b50600f54610278565b60008054906101000a90046001600160a01b03166001600160a01b0316636a276f9d6040518163ffffffff1660e01b8152600401602060405180830381865afa15801561064f573d6000803e3d6000fd5b505050506040513d601f19601f820116820180604052508101906106739190612f09565b6106985760405162461bcd60e51b815260040161068f90612f26565b60405180910390fd5b6000546040516319c0642960e01b81523360048201819052916001600160a01b0316906319c0642990602401602060405180830381865afa1580156106e1573d6000803e3d6000fd5b505050506040513d601f19601f820116820180604052508101906107059190612f09565b6107215760405162461bcd60e51b815260040161068f90612f5d565b6000601154116107435760405162461bcd60e51b815260040161068f90612f88565b50601255565b600080600160009054906101000a90046001600160a01b03166001600160a01b031663d3c5915a6040518163ffffffff1660e01b8152600401602060405180830381865afa15801561079f573d6000803e3d6000fd5b505050506040513d601f19601f820116820180604052508101906107c39190612fae565b90506107cf8382612fdd565b9392505050565b600080546040516319c0642960e01b81526001600160a01b038481166004830152909116906319c0642990602401602060405180830381865afa158015610821573d6000803e3d6000fd5b505050506040513d601f19601f820116820180604052508101906108459190612f09565b8061085d57506007546001600160a01b038381169116145b92915050565b6001546040805163fc0e74d160e01b815290516000926001600160a01b03169163fc0e74d19160048083019260209291908290030181865afa1580156108ad573d6000803e3d6000fd5b505050506040513d601f19601f820116820180604052508101906108d19190612f09565b156108dd57504761085d565b600082600e546108ed9190612ff4565b84116108f957836108fb565b825b600e549094505b8481101561094b576109148186613007565b60008281526010602052604090205461092d919061302e565b610937908361305e565b91508061094381613086565b915050610902565b509392505050565b600054604051637df73e2760e01b81523360048201819052916001600160a01b031690637df73e2790602401602060405180830381865afa15801561099c573d6000803e3d6000fd5b505050506040513d601f19601f820116820180604052508101906109c09190612f09565b6109fc5760405162461bcd60e51b815260206004820152600d60248201526c24b73b30b634b21027bbb732b960991b604482015260640161068f565b600080546040516307612f9160e21b81523360048201526001600160a01b0390911690631d84be44906024016020604051808303816000875af1158015610a47573d6000803e3d6000fd5b505050506040513d601f19601f82011682018060405250810190610a6b9190612fae565b9050610a9e6040805160a08101825260008082526020820181905291810182905260608101829052608081019190915290565b600160208201819052829003610ab657600160408201525b81600203610ac657600160608201525b81600303610ad657600160808201525b6001600160a01b03909316808452600880546020860151604087015160608801516080909801511515600160b81b0260ff60b81b19981515600160b01b0260ff60b01b19921515600160a81b029290921661ffff60a81b19931515600160a01b026001600160a81b03199095169096179390931791909116939093179290921794909416179092555050565b60008054906101000a90046001600160a01b03166001600160a01b0316636a276f9d6040518163ffffffff1660e01b8152600401602060405180830381865afa158015610bb3573d6000803e3d6000fd5b505050506040513d601f19601f82011682018060405250810190610bd79190612f09565b610bf35760405162461bcd60e51b815260040161068f90612f26565b6000546040516319c0642960e01b81523360048201819052916001600160a01b0316906319c0642990602401602060405180830381865afa158015610c3c573d6000803e3d6000fd5b505050506040513d601f19601f82011682018060405250810190610c609190612f09565b610c7c5760405162461bcd60e51b815260040161068f90612f5d565b50600780546001600160a01b0319166001600160a01b0392909216919091179055565b600080610d22600260009054906101000a90046001600160a01b03166001600160a01b031663262a9dff6040518163ffffffff1660e01b8152600401602060405180830381865afa158015610cf8573d6000803e3d6000fd5b505050506040513d601f19601f82011682018060405250810190610d1c9190612fae565b84612429565b91509150915091565b60008054906101000a90046001600160a01b03166001600160a01b0316636a276f9d6040518163ffffffff1660e01b8152600401602060405180830381865afa158015610d7c573d6000803e3d6000fd5b505050506040513d601f19601f82011682018060405250810190610da09190612f09565b610dbc5760405162461bcd60e51b815260040161068f90612f26565b6000546040516319c0642960e01b81523360048201819052916001600160a01b0316906319c0642990602401602060405180830381865afa158015610e05573d6000803e3d6000fd5b505050506040513d601f19601f82011682018060405250810190610e299190612f09565b610e455760405162461bcd60e51b815260040161068f90612f5d565b60015b6009548111610f59576000818152600a60205260408082205490516001600160a01b03868116602483015283921690829060440160408051601f198184030181529181526020820180516001600160e01b031662e6724f60e21b17905251610eb0919061309f565b60006040518083038185875af1925050503d8060008114610eed576040519150601f19603f3d011682016040523d82523d6000602084013e610ef2565b606091505b509150915081610f445760405162461bcd60e51b815260206004820181905260248201527f75696e73742e7072696d652e7472616e736665724f776e65722e6661696c6564604482015260640161068f565b50508080610f5190613086565b915050610e48565b505050565b60008060009054906101000a90046001600160a01b03166001600160a01b0316636a276f9d6040518163ffffffff1660e01b8152600401602060405180830381865afa158015610fb2573d6000803e3d6000fd5b505050506040513d601f19601f82011682018060405250810190610fd69190612f09565b610ff25760405162461bcd60e51b815260040161068f90612f26565b6000546040516319c0642960e01b81523360048201819052916001600160a01b0316906319c0642990602401602060405180830381865afa15801561103b573d6000803e3d6000fd5b505050506040513d601f19601f8201168201806040525081019061105f9190612f09565b8061107757506007546001600160a01b038281169116145b6110c35760405162461bcd60e51b815260206004820152601860248201527f496e76616c6964204f776e65724f72536166654f776e65720000000000000000604482015260640161068f565b6000601154116110e55760405162461bcd60e51b815260040161068f90612f88565b60025460405163cf35916560e01b81523060048201526001600160a01b039091169063cf35916590602401602060405180830381865afa15801561112d573d6000803e3d6000fd5b505050506040513d601f19601f820116820180604052508101906111519190612f09565b156111895760405162461bcd60e51b8152602060048201526008602482015267696e61637469766560c01b604482015260640161068f565b8260010361165357600260009054906101000a90046001600160a01b03166001600160a01b031663262a9dff6040518163ffffffff1660e01b8152600401602060405180830381865afa1580156111e4573d6000803e3d6000fd5b505050506040513d601f19601f820116820180604052508101906112089190612fae565b600d541015611288576000600c556002546040805163262a9dff60e01b815290516001600160a01b039092169163262a9dff916004808201926020929091908290030181865afa158015611260573d6000803e3d6000fd5b505050506040513d601f19601f820116820180604052508101906112849190612fae565b600d555b600160009054906101000a90046001600160a01b03166001600160a01b031663476cccdc6040518163ffffffff1660e01b8152600401602060405180830381865afa1580156112db573d6000803e3d6000fd5b505050506040513d601f19601f820116820180604052508101906112ff9190612fae565b600c5411156113455760405162461bcd60e51b8152602060048201526012602482015271189c995858da0819185a5b1e481b1a5b5a5d60721b604482015260640161068f565b600160009054906101000a90046001600160a01b03166001600160a01b031663ce255e916040518163ffffffff1660e01b8152600401602060405180830381865afa158015611398573d6000803e3d6000fd5b505050506040513d601f19601f820116820180604052508101906113bc9190612fae565b84101580156114415750600160009054906101000a90046001600160a01b03166001600160a01b0316634d1555616040518163ffffffff1660e01b8152600401602060405180830381865afa158015611419573d6000803e3d6000fd5b505050506040513d601f19601f8201168201806040525081019061143d9190612fae565b8411155b61147e5760405162461bcd60e51b815260206004820152600e60248201526d6c6f77206f72206d61782071747960901b604482015260640161068f565b600654604051632ca94e8360e21b81526001600160a01b0388811660048301529091169063b2a53a0c90602401602060405180830381865afa1580156114c8573d6000803e3d6000fd5b505050506040513d601f19601f820116820180604052508101906114ec9190612f09565b6115295760405162461bcd60e51b815260206004820152600e60248201526d756e73616665204f52433131353560901b604482015260640161068f565b600061153485610749565b9050600081118015611553575080601254346115509190612ff4565b10155b6115915760405162461bcd60e51b815260206004820152600f60248201526e66616b65206d696e742076616c756560881b604482015260640161068f565b80601254346115a09190612ff4565b6115aa91906130bb565b6012556004546040516001600160a01b03909116903480156108fc02916000818181858888f193505050501580156115e6573d6000803e3d6000fd5b50600c80549060006115f783613086565b91905055507f1517c86fcf2bfb8e3468afcc539b0004955da8027797c497ea51d1f1094ab8983361162a8989858a61245a565b8784426001604051611641969594939291906130ce565b60405180910390a1600192505061172a565b82600703611725577f1517c86fcf2bfb8e3468afcc539b0004955da8027797c497ea51d1f1094ab89833876000611700600260009054906101000a90046001600160a01b03166001600160a01b031663262a9dff6040518163ffffffff1660e01b8152600401602060405180830381865afa1580156116d6573d6000803e3d6000fd5b505050506040513d601f19601f820116820180604052508101906116fa9190612fae565b8a6125ff565b4288604051611714969594939291906130ce565b60405180910390a16001915061172a565b600091505b50949350505050565b601154156117795760405162461bcd60e51b8152602060048201526013602482015272185b1c9958591e481a5b9a5d1a585b1a5e9959606a1b604482015260640161068f565b6011829055611861600080546001600160a01b03199081167308ff697696398fac0dcee979bb0f1fb7b7fc380b1790915560018054821673882bf41aa8e3fad0695be39e4434af54786eb24a179055600280548216739f33b44587a57758c1413dbab6640f6abea5cef4179055600380548216732463fc29b8b635c4120c4fe32aadc580d1993480179055600480548216737e2baf007a3761d33afee572a7e7a08c1499b99d179055600580548216732dcacbb8c0d6869bbab27b184b1f4e12e43efd9b17905560068054909116739bfc2af8a5e49a72bfb58e22312ce07d61fe7739179055565b600780546001600160a01b038086166001600160a01b03199283161790925560068054909116331790556002546040805163262a9dff60e01b81529051919092169163262a9dff9160048083019260209291908290030181865afa1580156118cd573d6000803e3d6000fd5b505050506040513d601f19601f820116820180604052508101906118f19190612fae565b600b819055600e556012555050565b600054604051637df73e2760e01b81523360048201819052916001600160a01b031690637df73e2790602401602060405180830381865afa158015611949573d6000803e3d6000fd5b505050506040513d601f19601f8201168201806040525081019061196d9190612f09565b6119a95760405162461bcd60e51b815260206004820152600d60248201526c24b73b30b634b21027bbb732b960991b604482015260640161068f565b8115611bf657600080546040516307612f9160e21b81523360048201526001600160a01b0390911690631d84be44906024016020604051808303816000875af11580156119fa573d6000803e3d6000fd5b505050506040513d601f19601f82011682018060405250810190611a1e9190612fae565b600854909150600160a01b900460ff168015611a3a5750806001145b8015611a5357506008546001600160a01b038581169116145b15611a6c576008805460ff60a81b1916600160a81b1790555b600854600160a01b900460ff168015611a855750806002145b8015611a9e57506008546001600160a01b038581169116145b15611ab7576008805460ff60b01b1916600160b01b1790555b600854600160a01b900460ff168015611ad05750806003145b8015611ae957506008546001600160a01b038581169116145b15611b02576008805460ff60b81b1916600160b81b1790555b600854600090600160a81b900460ff1615611b255780611b2181613086565b9150505b600854600160b01b900460ff1615611b455780611b4181613086565b9150505b600854600160b81b900460ff1615611b655780611b6181613086565b9150505b600854600160a01b900460ff168015611b7e5750806002145b8015611b9757506008546001600160a01b038681169116145b15611bef57600780546001600160a01b0319166001600160a01b0387161790556040805160a0810182526000808252602082018190529181018290526060810182905260800152600880546001600160c01b03191690555b5050505050565b50506040805160a081018252600080825260208201819052918101829052606081018290526080015250600880546001600160c01b0319169055565b60008054906101000a90046001600160a01b03166001600160a01b0316636a276f9d6040518163ffffffff1660e01b8152600401602060405180830381865afa158015611c83573d6000803e3d6000fd5b505050506040513d601f19601f82011682018060405250810190611ca79190612f09565b611cc35760405162461bcd60e51b815260040161068f90612f26565b6000546040516319c0642960e01b81523360048201819052916001600160a01b0316906319c0642990602401602060405180830381865afa158015611d0c573d6000803e3d6000fd5b505050506040513d601f19601f82011682018060405250810190611d309190612f09565b611d4c5760405162461bcd60e51b815260040161068f90612f5d565b50600080546001600160a01b03199081166001600160a01b03978816179091556001805482169587169590951790945560028054851693861693909317909255600680548416918516919091179055600480549092169216919091179055565b6000546040516319c0642960e01b81523260048201819052916001600160a01b0316906319c0642990602401602060405180830381865afa158015611df5573d6000803e3d6000fd5b505050506040513d601f19601f82011682018060405250810190611e199190612f09565b611e355760405162461bcd60e51b815260040161068f90612f5d565b60405160009083156108fc0290849083818181858288f19350505050158015610f59573d6000803e3d6000fd5b60008060009054906101000a90046001600160a01b03166001600160a01b0316636a276f9d6040518163ffffffff1660e01b8152600401602060405180830381865afa158015611eb6573d6000803e3d6000fd5b505050506040513d601f19601f82011682018060405250810190611eda9190612f09565b611ef65760405162461bcd60e51b815260040161068f90612f26565b6000546040516319c0642960e01b81523360048201819052916001600160a01b0316906319c0642990602401602060405180830381865afa158015611f3f573d6000803e3d6000fd5b505050506040513d601f19601f82011682018060405250810190611f639190612f09565b611f7f5760405162461bcd60e51b815260040161068f90612f5d565b600060115411611fa15760405162461bcd60e51b815260040161068f90612f88565b60025460405163cf35916560e01b81523060048201526001600160a01b039091169063cf35916590602401602060405180830381865afa158015611fe9573d6000803e3d6000fd5b505050506040513d601f19601f8201168201806040525081019061200d9190612f09565b156120455760405162461bcd60e51b8152602060048201526008602482015267696e61637469766560c01b604482015260640161068f565b600260009054906101000a90046001600160a01b03166001600160a01b031663262a9dff6040518163ffffffff1660e01b8152600401602060405180830381865afa158015612098573d6000803e3d6000fd5b505050506040513d601f19601f820116820180604052508101906120bc9190612fae565b600d54101561214057600260009054906101000a90046001600160a01b03166001600160a01b031663262a9dff6040518163ffffffff1660e01b8152600401602060405180830381865afa158015612118573d6000803e3d6000fd5b505050506040513d601f19601f8201168201806040525081019061213c9190612fae565b600d555b7f1517c86fcf2bfb8e3468afcc539b0004955da8027797c497ea51d1f1094ab8983361216e8888878961245a565b8686426000604051612185969594939291906130ce565b60405180910390a150600195945050505050565b60008054604051633f978d1f60e11b81526001600160a01b03848116600483015290911690637f2f1a3e90602401602060405180830381865afa1580156121e4573d6000803e3d6000fd5b505050506040513d601f19601f8201168201806040525081019061085d9190612f09565b60008054906101000a90046001600160a01b03166001600160a01b0316636a276f9d6040518163ffffffff1660e01b8152600401602060405180830381865afa158015612259573d6000803e3d6000fd5b505050506040513d601f19601f8201168201806040525081019061227d9190612f09565b6122995760405162461bcd60e51b815260040161068f90612f26565b6000546040516319c0642960e01b81523360048201819052916001600160a01b0316906319c0642990602401602060405180830381865afa1580156122e2573d6000803e3d6000fd5b505050506040513d601f19601f820116820180604052508101906123069190612f09565b6123225760405162461bcd60e51b815260040161068f90612f5d565b506013805460ff1916911515919091179055565b6060612341826127eb565b6040516020016123519190613104565b6040516020818303038152906040529050919050565b60008054906101000a90046001600160a01b03166001600160a01b0316636a276f9d6040518163ffffffff1660e01b8152600401602060405180830381865afa1580156123b8573d6000803e3d6000fd5b505050506040513d601f19601f820116820180604052508101906123dc9190612f09565b6123f85760405162461bcd60e51b815260040161068f90612f26565b60405162461bcd60e51b815260206004820152600660248201526519985a5b195960d21b604482015260640161068f565b6000806124368484610863565b91508161244f600f548461244a9190612ff4565b612819565b915091509250929050565b600080856001600160a01b031663238a448061247e6007546001600160a01b031690565b6040516001600160e01b031960e084901b1681526001600160a01b0390911660048201526024810188905260448101869052606481018790526084016020604051808303816000875af11580156124d9573d6000803e3d6000fd5b505050506040513d601f19601f820116820180604052508101906124fd9190613193565b90506001600160a01b0381166125435760405162461bcd60e51b815260206004820152600b60248201526a1b5a5b9d0819985a5b195960aa1b604482015260640161068f565b6009805490600061255383613086565b90915550506009546000908152600a60205260409081902080546001600160a01b0319166001600160a01b0384811691909117909155600254915163c4cf0e3f60e01b8152306004820152602481018790526044810186905291169063c4cf0e3f90606401600060405180830381600087803b1580156125d257600080fd5b505af11580156125e6573d6000803e3d6000fd5b505050506125f684600d5461293e565b95945050505050565b60008061260c8484612b0c565b905080600160009054906101000a90046001600160a01b03166001600160a01b031663ea84706d6040518163ffffffff1660e01b8152600401602060405180830381865afa158015612662573d6000803e3d6000fd5b505050506040513d601f19601f820116820180604052508101906126869190612fae565b1080156126fd575060015460408051631c820f0960e01b8152905183926001600160a01b031691631c820f099160048083019260209291908290030181865afa1580156126d7573d6000803e3d6000fd5b505050506040513d601f19601f820116820180604052508101906126fb9190612fae565b115b6127365760405162461bcd60e51b815260206004820152600a6024820152691d5b99195c9b1a5b5a5d60b21b604482015260640161068f565b612747600f548261244a9190612ff4565b1561277e5760405162461bcd60e51b815260206004820152600760248201526663617070696e6760c81b604482015260640161068f565b80156127cc576007546001600160a01b03166108fc4783116127a057826127a2565b475b6040518115909202916000818181858888f193505050501580156127ca573d6000803e3d6000fd5b505b80600f60008282546127de9190612ff4565b9091555090949350505050565b6060816001600160a01b0316803b806020016040519081016040528181526000908060200190933c92915050565b600254604051632994ed6560e11b81523060048201526000602482018190529182916001600160a01b0390911690635329daca906044016040805180830381865afa15801561286c573d6000803e3d6000fd5b505050506040513d601f19601f8201168201806040525081019061289091906131b0565b509050600080600160009054906101000a90046001600160a01b03166001600160a01b0316635640dbfc6040518163ffffffff1660e01b815260040160c060405180830381865afa1580156128e9573d6000803e3d6000fd5b505050506040513d601f19601f8201168201806040525081019061290d91906131d4565b505093505050915081836129219190612fdd565b91508015612936576129338584612ff4565b92505b501092915050565b600080600080600080600160009054906101000a90046001600160a01b03166001600160a01b03166316f0115b6040518163ffffffff1660e01b815260040160e060405180830381865afa15801561299a573d6000803e3d6000fd5b505050506040513d601f19601f820116820180604052508101906129be9190613251565b965050955095509550955095508360646129d89190612fdd565b6129e2868a612fdd565b6129ec91906132a5565b97506129f9826064612fdd565b612a03848a612fdd565b612a0d91906132a5565b97508760106000612a1e898b612ff4565b81526020019081526020016000206000828254612a3b919061305e565b90915550612a4d90508860001961302e565b6010600083612a5c8a8c612ff4565b612a669190612ff4565b81526020019081526020016000206000828254612a83919061305e565b90915550506004546001600160a01b031663a9059cbb30612aa48b85612fdd565b6040516001600160e01b031960e085901b1681526001600160a01b0390921660048301526024820152604401600060405180830381600087803b158015612aea57600080fd5b505af1158015612afe573d6000803e3d6000fd5b505050505050505050505050565b6001546040805163fc0e74d160e01b815290516000926001600160a01b03169163fc0e74d19160048083019260209291908290030181865afa158015612b56573d6000803e3d6000fd5b505050506040513d601f19601f82011682018060405250810190612b7a9190612f09565b15612b8657504761085d565b600082600e54612b969190612ff4565b8411612ba25783612ba4565b825b600e549094505b84811015612c5c57612bbd8186613007565b600082815260106020526040902054612bd6919061302e565b612be0908361305e565b915060106000612bf16001846130bb565b815260200190815260200160002054601060008381526020019081526020016000206000828254612c22919061305e565b90915550601090506000612c376001846130bb565b8152602001908152602001600020600090558080612c5490613086565b915050612bab565b50600e84905560106000612c716001876130bb565b815260200190815260200160002054601060008681526020019081526020016000206000828254612ca2919061305e565b90915550601090506000612cb76001876130bb565b815260208101919091526040016000908120559392505050565b600060208284031215612ce357600080fd5b5035919050565b6001600160a01b0381168114612cff57600080fd5b50565b600060208284031215612d1457600080fd5b81356107cf81612cea565b60008060408385031215612d3257600080fd5b50508035926020909101359150565b60008060008060808587031215612d5757600080fd5b8435612d6281612cea565b966020860135965060408601359560600135945092505050565b600080600060608486031215612d9157600080fd5b8335612d9c81612cea565b95602085013595506040909401359392505050565b8015158114612cff57600080fd5b60008060408385031215612dd257600080fd5b8235612ddd81612cea565b91506020830135612ded81612db1565b809150509250929050565b600080600080600060a08688031215612e1057600080fd5b8535612e1b81612cea565b94506020860135612e2b81612cea565b93506040860135612e3b81612cea565b92506060860135612e4b81612cea565b91506080860135612e5b81612cea565b809150509295509295909350565b600060208284031215612e7b57600080fd5b81356107cf81612db1565b60005b83811015612ea1578181015183820152602001612e89565b50506000910152565b6020815260008251806020840152612ec9816040850160208701612e86565b601f01601f19169190910160400192915050565b60008060408385031215612ef057600080fd5b8235612efb81612cea565b946020939093013593505050565b600060208284031215612f1b57600080fd5b81516107cf81612db1565b6020808252601a908201527f496e76616c6964205361666567756172642e6973536166652829000000000000604082015260600190565b60208082526011908201527024b73b30b634b21029b0b332a7bbb732b960791b604082015260600190565b6020808252600c908201526b1d5b985d5d1a1bdc9a5e995960a21b604082015260600190565b600060208284031215612fc057600080fd5b5051919050565b634e487b7160e01b600052601160045260246000fd5b808202811582820484141761085d5761085d612fc7565b8082018082111561085d5761085d612fc7565b818103600083128015838313168383128216171561302757613027612fc7565b5092915050565b80820260008212600160ff1b8414161561304a5761304a612fc7565b818105831482151761085d5761085d612fc7565b808201828112600083128015821682158216171561307e5761307e612fc7565b505092915050565b60006001820161309857613098612fc7565b5060010190565b600082516130b1818460208701612e86565b9190910192915050565b8181038181111561085d5761085d612fc7565b6001600160a01b03968716815294909516602085015260408401929092526060830152608082015260a081019190915260c00190565b60008251613116818460208701612e86565b730468e8dc225c4746454419c9dcccb59a581434b160631b92019182525073d416952dc46fce2775e90571d46a79565d04cb2560601b602082015273094c37fb9b5b2065409a5c7cb9bff71c4d49bf4160601b604082015273fe69687ce9c746c10e1c2af1e3f5d1475df4300f60601b6060820152607401919050565b6000602082840312156131a557600080fd5b81516107cf81612cea565b600080604083850312156131c357600080fd5b505080516020909101519092909150565b60008060008060008060c087890312156131ed57600080fd5b8651955060208701516131ff81612db1565b604088015190955061321081612db1565b606088015190945061322181612db1565b608088015190935061323281612db1565b60a088015190925061324381612db1565b809150509295509295509295565b600080600080600080600060e0888a03121561326c57600080fd5b5050855160208701516040880151606089015160808a015160a08b015160c0909b0151949c939b50919990985090965094509092509050565b6000826132c257634e487b7160e01b600052601260045260246000fd5b50049056fea26469706673582212207af4105b56b33aaffaa99dee698ca9940a9461e0d41507b32dbaedfe3bc6b81664736f6c63430008140033","linkReferences":{}},"methodIdentifiers":{"Burn(uint256)":"b90306ad","LSB(uint256)":"a98bf4f9","Txn(address,uint256,uint256,uint256)":"a3e884b0","TxnSys(address,uint256,uint256,uint256)":"c107930a","_computeself(uint256,uint256)":"3cb9ae9e","_setOwner(address,bool)":"abb8c965","_setReq(address)":"41ffe7c4","at(address)":"dce4a447","bonus()":"75b4d78c","cage()":"69245009","compute(uint256)":"5ed86d5c","computeMintValue(uint256)":"26c5adae","drawn()":"fd915ef2","drawnage()":"66fb5f7a","getBalance()":"12065fe0","id()":"af640d0f","init(address,uint256,uint256)":"a4a2a9f6","isAccountSafeOwner(address)":"c3bd18c3","isOwnerOrSafeOwner(address)":"379a423c","lastMintAge()":"ece0b57a","mintCount()":"9659867e","mintDailyCount()":"27bfab88","mints(uint256)":"6350b2c2","owner()":"8da5cb5b","req()":"0d43aaf2","setBonus(uint256)":"0b98f975","setParam(address,address,address,address,address)":"b0751823","setStopWithdraw(bool)":"d57d418f","transferOwner(address)":"4fb2e45d","transferOwnerNFTs(address)":"98228226","withdraw(address,uint256)":"f3fef3a3"},"id":1}