{"abi":[{"type":"constructor","inputs":[],"stateMutability":"nonpayable"},{"type":"fallback","stateMutability":"payable"},{"type":"receive","stateMutability":"payable"},{"type":"function","name":"Burn","inputs":[{"name":"amount","type":"uint256","internalType":"uint256"}],"outputs":[],"stateMutability":"payable"},{"type":"function","name":"_setOwner","inputs":[{"name":"own","type":"address","internalType":"address"},{"name":"isApproved","type":"bool","internalType":"bool"}],"outputs":[],"stateMutability":"nonpayable"},{"type":"function","name":"_setReq","inputs":[{"name":"own","type":"address","internalType":"address"}],"outputs":[],"stateMutability":"nonpayable"},{"type":"function","name":"getBalance","inputs":[],"outputs":[{"name":"","type":"uint256","internalType":"uint256"}],"stateMutability":"view"},{"type":"function","name":"isOwnerOrSafeOwner","inputs":[{"name":"sender","type":"address","internalType":"address"}],"outputs":[{"name":"","type":"bool","internalType":"bool"}],"stateMutability":"view"},{"type":"function","name":"own_reinit","inputs":[{"name":"_h","type":"address","internalType":"address"}],"outputs":[],"stateMutability":"nonpayable"},{"type":"function","name":"owner","inputs":[],"outputs":[{"name":"","type":"address","internalType":"address"}],"stateMutability":"view"},{"type":"function","name":"ozonePriceInUSDT","inputs":[],"outputs":[{"name":"","type":"uint256","internalType":"uint256"}],"stateMutability":"view"},{"type":"function","name":"req","inputs":[],"outputs":[{"name":"newowner","type":"address","internalType":"address"},{"name":"isReq","type":"bool","internalType":"bool"},{"name":"isVer1","type":"bool","internalType":"bool"},{"name":"isVer2","type":"bool","internalType":"bool"},{"name":"isVer3","type":"bool","internalType":"bool"}],"stateMutability":"view"},{"type":"function","name":"setOzoneprice","inputs":[{"name":"_prc","type":"uint256","internalType":"uint256"}],"outputs":[],"stateMutability":"nonpayable"},{"type":"function","name":"withdraw","inputs":[{"name":"to","type":"address","internalType":"address"},{"name":"amount","type":"uint256","internalType":"uint256"}],"outputs":[],"stateMutability":"payable"}],"bytecode":{"object":"0x6080604052674563918244f40000600e553480156200001d57600080fd5b506200003d739b3d18024fd51961230ef88d6a43babdf0f5e8d662000043565b620006dc565b6000546001600160a01b031615620000965760405162461bcd60e51b81526020600482015260126024820152711bdddb8b9a195e18985cd94b99985a5b195960721b604482015260640160405180910390fd5b600c8054326001600160a01b031991821617909155600080549091166001600160a01b038316179055620000c9620000cc565b50565b6000546001600160a01b0316620000df57565b60008054906101000a90046001600160a01b03166001600160a01b0316634162169f6040518163ffffffff1660e01b8152600401602060405180830381865afa15801562000131573d6000803e3d6000fd5b505050506040513d601f19601f82011682018060405250810190620001579190620006aa565b600180546001600160a01b0319166001600160a01b0392831617905560005460408051635abedee360e11b81529051919092169163b57dbdc69160048083019260209291908290030181865afa158015620001b6573d6000803e3d6000fd5b505050506040513d601f19601f82011682018060405250810190620001dc9190620006aa565b600280546001600160a01b0319166001600160a01b039283161790556000546040805163cfbffe5360e01b81529051919092169163cfbffe539160048083019260209291908290030181865afa1580156200023b573d6000803e3d6000fd5b505050506040513d601f19601f82011682018060405250810190620002619190620006aa565b600380546001600160a01b0319166001600160a01b039283161790556000546040805163ab6e844f60e01b81529051919092169163ab6e844f9160048083019260209291908290030181865afa158015620002c0573d6000803e3d6000fd5b505050506040513d601f19601f82011682018060405250810190620002e69190620006aa565b600480546001600160a01b0319166001600160a01b0392831617815560005460408051639a7c407760e01b815290519190931692639a7c407792818101926020929091908290030181865afa15801562000344573d6000803e3d6000fd5b505050506040513d601f19601f820116820180604052508101906200036a9190620006aa565b600580546001600160a01b0319166001600160a01b0392831617905560005460408051635506ee0b60e11b81529051919092169163aa0ddc169160048083019260209291908290030181865afa158015620003c9573d6000803e3d6000fd5b505050506040513d601f19601f82011682018060405250810190620003ef9190620006aa565b600780546001600160a01b0319166001600160a01b03928316179055600054604080516335a577e360e11b815290519190921691636b4aefc69160048083019260209291908290030181865afa1580156200044e573d6000803e3d6000fd5b505050506040513d601f19601f82011682018060405250810190620004749190620006aa565b600880546001600160a01b0319166001600160a01b03928316179055600054604080516324768d9160e01b8152905191909216916324768d919160048083019260209291908290030181865afa158015620004d3573d6000803e3d6000fd5b505050506040513d601f19601f82011682018060405250810190620004f99190620006aa565b600b80546001600160a01b0319166001600160a01b0392831617905560005460408051636402742760e01b81529051919092169163640274279160048083019260209291908290030181865afa15801562000558573d6000803e3d6000fd5b505050506040513d601f19601f820116820180604052508101906200057e9190620006aa565b600980546001600160a01b0319166001600160a01b03928316179055600054604080516330125cf560e01b8152905191909216916330125cf59160048083019260209291908290030181865afa158015620005dd573d6000803e3d6000fd5b505050506040513d601f19601f82011682018060405250810190620006039190620006aa565b600a80546001600160a01b0319166001600160a01b03928316179055600054604080516369e8d84b60e11b81529051919092169163d3d1b0969160048083019260209291908290030181865afa15801562000662573d6000803e3d6000fd5b505050506040513d601f19601f82011682018060405250810190620006889190620006aa565b600680546001600160a01b0319166001600160a01b0392909216919091179055565b600060208284031215620006bd57600080fd5b81516001600160a01b0381168114620006d557600080fd5b9392505050565b61155980620006ec6000396000f3fe60806040526004361061009a5760003560e01c806360af454d1161006157806360af454d146101b95780637d8ec03a146101d95780638da5cb5b146101ef578063abb8c96514610217578063b90306ad14610237578063f3fef3a31461024a57005b80630d43aaf2146100a357806312065fe01461012c57806315ec7fad14610149578063379a423c1461016957806341ffe7c41461019957005b366100a157005b005b3480156100af57600080fd5b50600d546100ed906001600160a01b0381169060ff600160a01b8204811691600160a81b8104821691600160b01b8204811691600160b81b90041685565b604080516001600160a01b03909616865293151560208601529115159284019290925290151560608301521515608082015260a0015b60405180910390f35b34801561013857600080fd5b50475b604051908152602001610123565b34801561015557600080fd5b506100a16101643660046113b8565b61025d565b34801561017557600080fd5b506101896101843660046113e6565b6103aa565b6040519015158152602001610123565b3480156101a557600080fd5b506100a16101b43660046113e6565b610437565b3480156101c557600080fd5b506100a16101d43660046113e6565b6106ee565b3480156101e557600080fd5b5061013b600e5481565b3480156101fb57600080fd5b50600c546040516001600160a01b039091168152602001610123565b34801561022357600080fd5b506100a1610232366004611418565b610770565b6100a16102453660046113b8565b610b4a565b6100a1610258366004611451565b610c56565b600260009054906101000a90046001600160a01b03166001600160a01b0316636a276f9d6040518163ffffffff1660e01b8152600401602060405180830381865afa1580156102b0573d6000803e3d6000fd5b505050506040513d601f19601f820116820180604052508101906102d4919061147d565b6102f95760405162461bcd60e51b81526004016102f09061149a565b60405180910390fd5b6002546040516319c0642960e01b81523360048201526001600160a01b03909116906319c0642990602401602060405180830381865afa158015610341573d6000803e3d6000fd5b505050506040513d601f19601f82011682018060405250810190610365919061147d565b6103a55760405162461bcd60e51b815260206004820152601160248201527024b73b30b634b21029b0b332a7bbb732b960791b60448201526064016102f0565b600e55565b6002546040516319c0642960e01b81526001600160a01b03838116600483015260009216906319c0642990602401602060405180830381865afa1580156103f5573d6000803e3d6000fd5b505050506040513d601f19601f82011682018060405250810190610419919061147d565b806104315750600c546001600160a01b038381169116145b92915050565b600260009054906101000a90046001600160a01b03166001600160a01b0316636a276f9d6040518163ffffffff1660e01b8152600401602060405180830381865afa15801561048a573d6000803e3d6000fd5b505050506040513d601f19601f820116820180604052508101906104ae919061147d565b6104ca5760405162461bcd60e51b81526004016102f09061149a565b6001546001600160a01b031633148061054a5750600254604051637df73e2760e01b81523360048201526001600160a01b0390911690637df73e2790602401602060405180830381865afa158015610526573d6000803e3d6000fd5b505050506040513d601f19601f8201168201806040525081019061054a919061147d565b61058b5760405162461bcd60e51b81526020600482015260126024820152716f776d2e66616b652e2064656c656761746560701b60448201526064016102f0565b6002546040516307612f9160e21b81523360048201526000916001600160a01b031690631d84be4490602401602060405180830381865afa1580156105d4573d6000803e3d6000fd5b505050506040513d601f19601f820116820180604052508101906105f891906114c6565b905061062b6040805160a08101825260008082526020820181905291810182905260608101829052608081019190915290565b60016020820181905282900361064357600160408201525b8160020361065357600160608201525b8160030361066357600160808201525b6001600160a01b03909216808352600d80546020850151604086015160608701516080909701511515600160b81b0260ff60b81b19971515600160b01b0260ff60b01b19921515600160a81b029290921661ffff60a81b19931515600160a01b026001600160a81b031990951690961793909317919091169390931792909217939093161790915550565b6000546001600160a01b03161561073c5760405162461bcd60e51b81526020600482015260126024820152711bdddb8b9a195e18985cd94b99985a5b195960721b60448201526064016102f0565b600c8054326001600160a01b031991821617909155600080549091166001600160a01b03831617905561076d610dfc565b50565b600260009054906101000a90046001600160a01b03166001600160a01b0316636a276f9d6040518163ffffffff1660e01b8152600401602060405180830381865afa1580156107c3573d6000803e3d6000fd5b505050506040513d601f19601f820116820180604052508101906107e7919061147d565b6108035760405162461bcd60e51b81526004016102f09061149a565b6001546001600160a01b03163314806108835750600254604051637df73e2760e01b81523360048201526001600160a01b0390911690637df73e2790602401602060405180830381865afa15801561085f573d6000803e3d6000fd5b505050506040513d601f19601f82011682018060405250810190610883919061147d565b6108c45760405162461bcd60e51b81526020600482015260126024820152716f776d2e66616b652e2064656c656761746560701b60448201526064016102f0565b8015610b0e576002546040516307612f9160e21b81523360048201526000916001600160a01b031690631d84be4490602401602060405180830381865afa158015610913573d6000803e3d6000fd5b505050506040513d601f19601f8201168201806040525081019061093791906114c6565b600d54909150600160a01b900460ff1680156109535750806001145b801561096c5750600d546001600160a01b038481169116145b1561098557600d805460ff60a81b1916600160a81b1790555b600d54600160a01b900460ff16801561099e5750806002145b80156109b75750600d546001600160a01b038481169116145b156109d057600d805460ff60b01b1916600160b01b1790555b600d54600160a01b900460ff1680156109e95750806003145b8015610a025750600d546001600160a01b038481169116145b15610a1b57600d805460ff60b81b1916600160b81b1790555b600d54600090600160a81b900460ff1615610a3e5780610a3a816114df565b9150505b600d54600160b01b900460ff1615610a5e5780610a5a816114df565b9150505b600d54600160b81b900460ff1615610a7e5780610a7a816114df565b9150505b600d54600160a01b900460ff168015610a975750806002145b8015610ab05750600d546001600160a01b038581169116145b15610b0857600c80546001600160a01b0319166001600160a01b0386161790556040805160a0810182526000808252602082018190529181018290526060810182905260800152600d80546001600160c01b03191690555b50505050565b6040805160a0810182526000808252602082018190529181018290526060810182905260800152600d80546001600160c01b03191690555b5050565b600260009054906101000a90046001600160a01b03166001600160a01b0316636a276f9d6040518163ffffffff1660e01b8152600401602060405180830381865afa158015610b9d573d6000803e3d6000fd5b505050506040513d601f19601f82011682018060405250810190610bc1919061147d565b610bdd5760405162461bcd60e51b81526004016102f09061149a565b6001546001600160a01b03163314610c295760405162461bcd60e51b815260206004820152600f60248201526e6f776e2e6e6f6e617574682e44414f60881b60448201526064016102f0565b60405160009082156108fc0290839083818181858288f19350505050158015610b46573d6000803e3d6000fd5b816001600160a01b038116610ca25760405162461bcd60e51b815260206004820152601260248201527137bbb7173232b330bab63a1739b2b73232b960711b60448201526064016102f0565b600260009054906101000a90046001600160a01b03166001600160a01b0316636a276f9d6040518163ffffffff1660e01b8152600401602060405180830381865afa158015610cf5573d6000803e3d6000fd5b505050506040513d601f19601f82011682018060405250810190610d19919061147d565b610d355760405162461bcd60e51b81526004016102f09061149a565b6001546001600160a01b03163314610d815760405162461bcd60e51b815260206004820152600f60248201526e6f776e2e6e6f6e617574682e44414f60881b60448201526064016102f0565b60008211610dc65760405162461bcd60e51b81526020600482015260126024820152711bdddb8b9a5b9d985b1a590b985b5bdd5b9d60721b60448201526064016102f0565b6040516001600160a01b0384169083156108fc029084906000818181858888f19350505050158015610b08573d6000803e3d6000fd5b6000546001600160a01b0316610e0e57565b60008054906101000a90046001600160a01b03166001600160a01b0316634162169f6040518163ffffffff1660e01b8152600401602060405180830381865afa158015610e5f573d6000803e3d6000fd5b505050506040513d601f19601f82011682018060405250810190610e839190611506565b600180546001600160a01b0319166001600160a01b0392831617905560005460408051635abedee360e11b81529051919092169163b57dbdc69160048083019260209291908290030181865afa158015610ee1573d6000803e3d6000fd5b505050506040513d601f19601f82011682018060405250810190610f059190611506565b600280546001600160a01b0319166001600160a01b039283161790556000546040805163cfbffe5360e01b81529051919092169163cfbffe539160048083019260209291908290030181865afa158015610f63573d6000803e3d6000fd5b505050506040513d601f19601f82011682018060405250810190610f879190611506565b600380546001600160a01b0319166001600160a01b039283161790556000546040805163ab6e844f60e01b81529051919092169163ab6e844f9160048083019260209291908290030181865afa158015610fe5573d6000803e3d6000fd5b505050506040513d601f19601f820116820180604052508101906110099190611506565b600480546001600160a01b0319166001600160a01b0392831617815560005460408051639a7c407760e01b815290519190931692639a7c407792818101926020929091908290030181865afa158015611066573d6000803e3d6000fd5b505050506040513d601f19601f8201168201806040525081019061108a9190611506565b600580546001600160a01b0319166001600160a01b0392831617905560005460408051635506ee0b60e11b81529051919092169163aa0ddc169160048083019260209291908290030181865afa1580156110e8573d6000803e3d6000fd5b505050506040513d601f19601f8201168201806040525081019061110c9190611506565b600780546001600160a01b0319166001600160a01b03928316179055600054604080516335a577e360e11b815290519190921691636b4aefc69160048083019260209291908290030181865afa15801561116a573d6000803e3d6000fd5b505050506040513d601f19601f8201168201806040525081019061118e9190611506565b600880546001600160a01b0319166001600160a01b03928316179055600054604080516324768d9160e01b8152905191909216916324768d919160048083019260209291908290030181865afa1580156111ec573d6000803e3d6000fd5b505050506040513d601f19601f820116820180604052508101906112109190611506565b600b80546001600160a01b0319166001600160a01b0392831617905560005460408051636402742760e01b81529051919092169163640274279160048083019260209291908290030181865afa15801561126e573d6000803e3d6000fd5b505050506040513d601f19601f820116820180604052508101906112929190611506565b600980546001600160a01b0319166001600160a01b03928316179055600054604080516330125cf560e01b8152905191909216916330125cf59160048083019260209291908290030181865afa1580156112f0573d6000803e3d6000fd5b505050506040513d601f19601f820116820180604052508101906113149190611506565b600a80546001600160a01b0319166001600160a01b03928316179055600054604080516369e8d84b60e11b81529051919092169163d3d1b0969160048083019260209291908290030181865afa158015611372573d6000803e3d6000fd5b505050506040513d601f19601f820116820180604052508101906113969190611506565b600680546001600160a01b0319166001600160a01b0392909216919091179055565b6000602082840312156113ca57600080fd5b5035919050565b6001600160a01b038116811461076d57600080fd5b6000602082840312156113f857600080fd5b8135611403816113d1565b9392505050565b801515811461076d57600080fd5b6000806040838503121561142b57600080fd5b8235611436816113d1565b915060208301356114468161140a565b809150509250929050565b6000806040838503121561146457600080fd5b823561146f816113d1565b946020939093013593505050565b60006020828403121561148f57600080fd5b81516114038161140a565b6020808252601290820152716f776e2e696e76616c69642e69735361666560701b604082015260600190565b6000602082840312156114d857600080fd5b5051919050565b6000600182016114ff57634e487b7160e01b600052601160045260246000fd5b5060010190565b60006020828403121561151857600080fd5b8151611403816113d156fea2646970667358221220e6289edb09d73f1f62430b5e10b6a4149dfa91cd76d2fe763949ae29c11b0e0564736f6c63430008140033","linkReferences":{}},"methodIdentifiers":{"Burn(uint256)":"b90306ad","_setOwner(address,bool)":"abb8c965","_setReq(address)":"41ffe7c4","getBalance()":"12065fe0","isOwnerOrSafeOwner(address)":"379a423c","own_reinit(address)":"60af454d","owner()":"8da5cb5b","ozonePriceInUSDT()":"7d8ec03a","req()":"0d43aaf2","setOzoneprice(uint256)":"15ec7fad","withdraw(address,uint256)":"f3fef3a3"},"id":8}