{"abi":[{"type":"constructor","inputs":[],"stateMutability":"nonpayable"},{"type":"fallback","stateMutability":"payable"},{"type":"receive","stateMutability":"payable"},{"type":"function","name":"Burn","inputs":[{"name":"amount","type":"uint256","internalType":"uint256"}],"outputs":[],"stateMutability":"payable"},{"type":"function","name":"_setOwner","inputs":[{"name":"own","type":"address","internalType":"address"},{"name":"isApproved","type":"bool","internalType":"bool"}],"outputs":[],"stateMutability":"nonpayable"},{"type":"function","name":"_setReq","inputs":[{"name":"own","type":"address","internalType":"address"}],"outputs":[],"stateMutability":"nonpayable"},{"type":"function","name":"activateInUSDT","inputs":[],"outputs":[{"name":"","type":"uint256","internalType":"uint256"}],"stateMutability":"view"},{"type":"function","name":"capping","inputs":[],"outputs":[{"name":"multiple","type":"uint256","internalType":"uint256"},{"name":"rw","type":"bool","internalType":"bool"},{"name":"ry","type":"bool","internalType":"bool"},{"name":"self","type":"bool","internalType":"bool"},{"name":"yei","type":"bool","internalType":"bool"}],"stateMutability":"view"},{"type":"function","name":"computeActivateValue","inputs":[],"outputs":[{"name":"","type":"uint256","internalType":"uint256"}],"stateMutability":"view"},{"type":"function","name":"computeMintValue","inputs":[{"name":"_qty","type":"uint256","internalType":"uint256"}],"outputs":[{"name":"","type":"uint256","internalType":"uint256"}],"stateMutability":"view"},{"type":"function","name":"computeMintValuePrime","inputs":[{"name":"_qty","type":"uint256","internalType":"uint256"}],"outputs":[{"name":"","type":"uint256","internalType":"uint256"}],"stateMutability":"view"},{"type":"function","name":"computePool","inputs":[{"name":"bs","type":"uint256","internalType":"uint256"}],"outputs":[{"name":"","type":"uint256","internalType":"uint256"}],"stateMutability":"view"},{"type":"function","name":"computePoolPrime","inputs":[{"name":"bs","type":"uint256","internalType":"uint256"}],"outputs":[{"name":"","type":"uint256","internalType":"uint256"}],"stateMutability":"view"},{"type":"function","name":"computePoolValidator","inputs":[{"name":"bs","type":"uint256","internalType":"uint256"}],"outputs":[{"name":"","type":"uint256","internalType":"uint256"}],"stateMutability":"view"},{"type":"function","name":"freeIntervals","inputs":[],"outputs":[{"name":"","type":"uint256","internalType":"uint256"}],"stateMutability":"view"},{"type":"function","name":"getBalance","inputs":[],"outputs":[{"name":"","type":"uint256","internalType":"uint256"}],"stateMutability":"view"},{"type":"function","name":"isOwnerOrSafeOwner","inputs":[{"name":"sender","type":"address","internalType":"address"}],"outputs":[{"name":"","type":"bool","internalType":"bool"}],"stateMutability":"view"},{"type":"function","name":"levelClause","inputs":[{"name":"","type":"uint256","internalType":"uint256"}],"outputs":[{"name":"rank","type":"uint256","internalType":"uint256"},{"name":"rwNum","type":"uint256","internalType":"uint256"},{"name":"rwrDen","type":"uint256","internalType":"uint256"},{"name":"yeiNum","type":"uint256","internalType":"uint256"},{"name":"yeiDen","type":"uint256","internalType":"uint256"}],"stateMutability":"view"},{"type":"function","name":"maxClaimPerDay","inputs":[],"outputs":[{"name":"","type":"uint256","internalType":"uint256"}],"stateMutability":"view"},{"type":"function","name":"maxClaimPerDayPrime","inputs":[],"outputs":[{"name":"","type":"uint256","internalType":"uint256"}],"stateMutability":"view"},{"type":"function","name":"maxGlobalClaimPerDayPrime","inputs":[],"outputs":[{"name":"","type":"uint256","internalType":"uint256"}],"stateMutability":"view"},{"type":"function","name":"maxMintQty","inputs":[],"outputs":[{"name":"","type":"uint256","internalType":"uint256"}],"stateMutability":"view"},{"type":"function","name":"maxMintQtyPrime","inputs":[],"outputs":[{"name":"","type":"uint256","internalType":"uint256"}],"stateMutability":"view"},{"type":"function","name":"minClaimPerDay","inputs":[],"outputs":[{"name":"","type":"uint256","internalType":"uint256"}],"stateMutability":"view"},{"type":"function","name":"minClaimPerDayPrime","inputs":[],"outputs":[{"name":"","type":"uint256","internalType":"uint256"}],"stateMutability":"view"},{"type":"function","name":"minGlobalClaimPerDayPrime","inputs":[],"outputs":[{"name":"","type":"uint256","internalType":"uint256"}],"stateMutability":"view"},{"type":"function","name":"minMintQty","inputs":[],"outputs":[{"name":"","type":"uint256","internalType":"uint256"}],"stateMutability":"view"},{"type":"function","name":"minMintQtyPrime","inputs":[],"outputs":[{"name":"","type":"uint256","internalType":"uint256"}],"stateMutability":"view"},{"type":"function","name":"mintFeePerQty","inputs":[],"outputs":[{"name":"","type":"uint256","internalType":"uint256"}],"stateMutability":"view"},{"type":"function","name":"mintFeePerQtyPrime","inputs":[],"outputs":[{"name":"","type":"uint256","internalType":"uint256"}],"stateMutability":"view"},{"type":"function","name":"mintLimitPerDay","inputs":[],"outputs":[{"name":"","type":"uint256","internalType":"uint256"}],"stateMutability":"view"},{"type":"function","name":"mintLimitPerDayPrime","inputs":[],"outputs":[{"name":"","type":"uint256","internalType":"uint256"}],"stateMutability":"view"},{"type":"function","name":"own_reinit","inputs":[{"name":"_h","type":"address","internalType":"address"}],"outputs":[],"stateMutability":"nonpayable"},{"type":"function","name":"owner","inputs":[],"outputs":[{"name":"","type":"address","internalType":"address"}],"stateMutability":"view"},{"type":"function","name":"pool","inputs":[],"outputs":[{"name":"startafter","type":"uint256","internalType":"uint256"},{"name":"stakeN","type":"uint256","internalType":"uint256"},{"name":"stakeD","type":"uint256","internalType":"uint256"},{"name":"roiN","type":"uint256","internalType":"uint256"},{"name":"roiD","type":"uint256","internalType":"uint256"},{"name":"roiInt","type":"uint256","internalType":"uint256"},{"name":"roiEnd","type":"uint256","internalType":"uint256"}],"stateMutability":"view"},{"type":"function","name":"poolNFT1","inputs":[],"outputs":[{"name":"roiN","type":"uint256","internalType":"uint256"},{"name":"roiD","type":"uint256","internalType":"uint256"},{"name":"roiInt","type":"uint256","internalType":"uint256"}],"stateMutability":"view"},{"type":"function","name":"poolNFT2","inputs":[],"outputs":[{"name":"roiN","type":"uint256","internalType":"uint256"},{"name":"roiD","type":"uint256","internalType":"uint256"},{"name":"roiInt","type":"uint256","internalType":"uint256"}],"stateMutability":"view"},{"type":"function","name":"poolPrime","inputs":[],"outputs":[{"name":"startafter","type":"uint256","internalType":"uint256"},{"name":"stakeN","type":"uint256","internalType":"uint256"},{"name":"stakeD","type":"uint256","internalType":"uint256"},{"name":"roiN","type":"uint256","internalType":"uint256"},{"name":"roiD","type":"uint256","internalType":"uint256"},{"name":"roiInt","type":"uint256","internalType":"uint256"},{"name":"roiEnd","type":"uint256","internalType":"uint256"}],"stateMutability":"view"},{"type":"function","name":"poolValidator","inputs":[],"outputs":[{"name":"startafter","type":"uint256","internalType":"uint256"},{"name":"stakeN","type":"uint256","internalType":"uint256"},{"name":"stakeD","type":"uint256","internalType":"uint256"},{"name":"roiN","type":"uint256","internalType":"uint256"},{"name":"roiD","type":"uint256","internalType":"uint256"},{"name":"roiInt","type":"uint256","internalType":"uint256"},{"name":"roiEnd","type":"uint256","internalType":"uint256"}],"stateMutability":"view"},{"type":"function","name":"rankClause","inputs":[{"name":"","type":"uint256","internalType":"uint256"}],"outputs":[{"name":"direct","type":"uint256","internalType":"uint256"},{"name":"nftAmount","type":"uint256","internalType":"uint256"}],"stateMutability":"view"},{"type":"function","name":"req","inputs":[],"outputs":[{"name":"newowner","type":"address","internalType":"address"},{"name":"isReq","type":"bool","internalType":"bool"},{"name":"isVer1","type":"bool","internalType":"bool"},{"name":"isVer2","type":"bool","internalType":"bool"},{"name":"isVer3","type":"bool","internalType":"bool"}],"stateMutability":"view"},{"type":"function","name":"royalityClause","inputs":[{"name":"","type":"uint256","internalType":"uint256"}],"outputs":[{"name":"rwNum","type":"uint256","internalType":"uint256"},{"name":"rwDen","type":"uint256","internalType":"uint256"},{"name":"rwEnd","type":"uint256","internalType":"uint256"}],"stateMutability":"view"},{"type":"function","name":"setActivateUSDT","inputs":[{"name":"_ac","type":"uint256","internalType":"uint256"}],"outputs":[],"stateMutability":"nonpayable"},{"type":"function","name":"setCapping","inputs":[{"name":"_multiple","type":"uint256","internalType":"uint256"},{"name":"_rw","type":"bool","internalType":"bool"},{"name":"_ry","type":"bool","internalType":"bool"},{"name":"_self","type":"bool","internalType":"bool"},{"name":"_yei","type":"bool","internalType":"bool"}],"outputs":[],"stateMutability":"nonpayable"},{"type":"function","name":"setClaimPerDay","inputs":[{"name":"_min","type":"uint256","internalType":"uint256"},{"name":"_max","type":"uint256","internalType":"uint256"},{"name":"_minPrime","type":"uint256","internalType":"uint256"},{"name":"_maxPrime","type":"uint256","internalType":"uint256"}],"outputs":[],"stateMutability":"nonpayable"},{"type":"function","name":"setGlobalClaimPerDayPrime","inputs":[{"name":"_ac","type":"uint256","internalType":"uint256"}],"outputs":[],"stateMutability":"nonpayable"},{"type":"function","name":"setMintFee","inputs":[{"name":"_fe","type":"uint256","internalType":"uint256"},{"name":"_fePrime","type":"uint256","internalType":"uint256"}],"outputs":[],"stateMutability":"nonpayable"},{"type":"function","name":"setMintLimitPerDay","inputs":[{"name":"limit","type":"uint256","internalType":"uint256"},{"name":"limitPrime","type":"uint256","internalType":"uint256"}],"outputs":[],"stateMutability":"nonpayable"},{"type":"function","name":"setMintQty","inputs":[{"name":"min","type":"uint256","internalType":"uint256"},{"name":"max","type":"uint256","internalType":"uint256"},{"name":"minPrime","type":"uint256","internalType":"uint256"},{"name":"maxPrime","type":"uint256","internalType":"uint256"}],"outputs":[],"stateMutability":"nonpayable"},{"type":"function","name":"setNftPool","inputs":[{"name":"_type","type":"uint256","internalType":"uint256"},{"name":"_roiN","type":"uint256","internalType":"uint256"},{"name":"_roiD","type":"uint256","internalType":"uint256"},{"name":"_roiInt","type":"uint256","internalType":"uint256"}],"outputs":[],"stateMutability":"nonpayable"},{"type":"function","name":"setPool","inputs":[{"name":"_start","type":"uint256","internalType":"uint256"},{"name":"_stakeN","type":"uint256","internalType":"uint256"},{"name":"_stakeD","type":"uint256","internalType":"uint256"},{"name":"_roiN","type":"uint256","internalType":"uint256"},{"name":"_roiD","type":"uint256","internalType":"uint256"},{"name":"_roiInt","type":"uint256","internalType":"uint256"},{"name":"_roiEnd","type":"uint256","internalType":"uint256"}],"outputs":[],"stateMutability":"nonpayable"},{"type":"function","name":"setPoolPrime","inputs":[{"name":"_start","type":"uint256","internalType":"uint256"},{"name":"_stakeN","type":"uint256","internalType":"uint256"},{"name":"_stakeD","type":"uint256","internalType":"uint256"},{"name":"_roiN","type":"uint256","internalType":"uint256"},{"name":"_roiD","type":"uint256","internalType":"uint256"},{"name":"_roiInt","type":"uint256","internalType":"uint256"},{"name":"_roiEnd","type":"uint256","internalType":"uint256"}],"outputs":[],"stateMutability":"nonpayable"},{"type":"function","name":"setPoolValidator","inputs":[{"name":"_start","type":"uint256","internalType":"uint256"},{"name":"_stakeN","type":"uint256","internalType":"uint256"},{"name":"_stakeD","type":"uint256","internalType":"uint256"},{"name":"_roiN","type":"uint256","internalType":"uint256"},{"name":"_roiD","type":"uint256","internalType":"uint256"},{"name":"_roiInt","type":"uint256","internalType":"uint256"},{"name":"_roiEnd","type":"uint256","internalType":"uint256"}],"outputs":[],"stateMutability":"nonpayable"},{"type":"function","name":"setRoyalityClause","inputs":[{"name":"_rank","type":"uint256","internalType":"uint256"},{"name":"_rwNum","type":"uint256","internalType":"uint256"},{"name":"_rwDen","type":"uint256","internalType":"uint256"},{"name":"_rwEnd","type":"uint256","internalType":"uint256"}],"outputs":[],"stateMutability":"nonpayable"},{"type":"function","name":"setTourClause","inputs":[{"name":"_rank","type":"uint256","internalType":"uint256"},{"name":"_tw","type":"uint256","internalType":"uint256"}],"outputs":[],"stateMutability":"nonpayable"},{"type":"function","name":"setValidatorConfig","inputs":[{"name":"_mintQty","type":"uint256","internalType":"uint256"},{"name":"_stakePerN","type":"uint256","internalType":"uint256"},{"name":"_stakePerD","type":"uint256","internalType":"uint256"}],"outputs":[],"stateMutability":"nonpayable"},{"type":"function","name":"setfreeIntervals","inputs":[{"name":"_d","type":"uint256","internalType":"uint256"}],"outputs":[],"stateMutability":"nonpayable"},{"type":"function","name":"setlevelClause","inputs":[{"name":"lvl","type":"uint256","internalType":"uint256"},{"name":"_rank","type":"uint256","internalType":"uint256"},{"name":"_rpernum","type":"uint256","internalType":"uint256"},{"name":"_rperden","type":"uint256","internalType":"uint256"},{"name":"_ypernum","type":"uint256","internalType":"uint256"},{"name":"_yperden","type":"uint256","internalType":"uint256"}],"outputs":[],"stateMutability":"nonpayable"},{"type":"function","name":"setrankClause","inputs":[{"name":"rank","type":"uint256","internalType":"uint256"},{"name":"direct","type":"uint256","internalType":"uint256"},{"name":"nftAmount","type":"uint256","internalType":"uint256"}],"outputs":[],"stateMutability":"nonpayable"},{"type":"function","name":"setshutdown","inputs":[{"name":"_shutdown","type":"bool","internalType":"bool"},{"name":"_shutdownPrime","type":"bool","internalType":"bool"}],"outputs":[],"stateMutability":"nonpayable"},{"type":"function","name":"shutdown","inputs":[],"outputs":[{"name":"","type":"bool","internalType":"bool"}],"stateMutability":"view"},{"type":"function","name":"shutdownPrime","inputs":[],"outputs":[{"name":"","type":"bool","internalType":"bool"}],"stateMutability":"view"},{"type":"function","name":"tourClause","inputs":[{"name":"","type":"uint256","internalType":"uint256"}],"outputs":[{"name":"","type":"uint256","internalType":"uint256"}],"stateMutability":"view"},{"type":"function","name":"validatorMintQty","inputs":[],"outputs":[{"name":"","type":"uint256","internalType":"uint256"}],"stateMutability":"view"},{"type":"function","name":"validatorStakePerD","inputs":[],"outputs":[{"name":"","type":"uint256","internalType":"uint256"}],"stateMutability":"view"},{"type":"function","name":"validatorStakePerN","inputs":[],"outputs":[{"name":"","type":"uint256","internalType":"uint256"}],"stateMutability":"view"},{"type":"function","name":"withdraw","inputs":[{"name":"to","type":"address","internalType":"address"},{"name":"amount","type":"uint256","internalType":"uint256"}],"outputs":[],"stateMutability":"payable"}],"bytecode":{"object":"0x608060405268015af1d78b58c40000603055671bc16d674ec80000603155678ac7230489e80000603255601e603355670de0b6b3a7640000603455686c6b935b8bbd400000603555670de0b6b3a7640000603655670de0b6b3a7640000603755670de0b6b3a7640000603855680d8d726b7177a80000603955610140603a556014603b556001603c556002603d55612710603e556001603f556001604055612710604155600a604255348015620000b557600080fd5b50620000d573ddcc73b194dd9146fd26e4930e6f003586e5a55f6200109f565b620001166040518060e00160405280600081526020016000815260200160008152602001600081526020016000815260200160008152602001600081525090565b600180825260646020808401829052604080850184905260236060808701829052608080880186905260a080890188905261025860c0808b0182905260128a9055601389905560148a9055601595909555601697909755601797909755601895909555825160e08101845260008082529481018590529283018490528201839052928101829052928301819052908201526001808252606460208084018290526040808501849052600a6060808701829052608080880186905260a08089018890526103e860c0808b0182905260198a9055601a899055601b8a9055601c95909555601d97909755601e97909755601f95909555825160e0810184526000808252948101859052928301849052820183905292810182905292830181905290820152600180825260646020808401829052604080850184905260096060808701829052600a6080880181905260a0880187905261025860c089018190528786556021969096556022879055602392909255602491909155602594909455602692909255815192830182526000808452908301819052908201526019808252600a6020808401829052605a60408086018290526027949094556028929092556029919091558151606081018352600080825291810182905291820152600a808252600160208084018290526101686040808601829052602a94909455602b92909255602c91909155815160a08101835260008082529181018290529182018190526060820181905260808201526004816000018181525050600081602001901515908115158152505060008160400190151590811515815250506000816060019015159081151581525050600081608001901515908115158152505080602d6000820151816000015560208201518160010160006101000a81548160ff02191690831515021790555060408201518160010160016101000a81548160ff02191690831515021790555060608201518160010160026101000a81548160ff02191690831515021790555060808201518160010160036101000a81548160ff0219169083151502179055509050506040518060400160405280600781526020016019815250600e60006001815260200190815260200160002060008201518160000155602082015181600101559050506040518060400160405280600781526020016064815250600e60006002815260200190815260200160002060008201518160000155602082015181600101559050506040518060400160405280600781526020016101f4815250600e60006003815260200190815260200160002060008201518160000155602082015181600101559050506040518060400160405280600781526020016107d0815250600e6000600481526020019081526020016000206000820151816000015560208201518160010155905050604051806040016040528060078152602001611388815250600e6000600581526020019081526020016000206000820151816000015560208201518160010155905050604051806040016040528060078152602001612710815250600e60006006815260200190815260200160002060008201518160000155602082015181600101559050506040518060400160405280600781526020016161a8815250600e60006007815260200190815260200160002060008201518160000155602082015181600101559050506040518060a00160405280600081526020016006815260200160018152602001600581526020016001815250601160006001815260200190815260200160002060008201518160000155602082015181600101556040820151816002015560608201518160030155608082015181600401559050506040518060a00160405280600181526020016003815260200160018152602001600581526020016001815250601160006002815260200190815260200160002060008201518160000155602082015181600101556040820151816002015560608201518160030155608082015181600401559050506040518060a0016040528060028152602001600f8152602001600a8152602001600581526020016001815250601160006003815260200190815260200160002060008201518160000155602082015181600101556040820151816002015560608201518160030155608082015181600401559050506040518060a0016040528060028152602001600f8152602001600a8152602001600581526020016001815250601160006004815260200190815260200160002060008201518160000155602082015181600101556040820151816002015560608201518160030155608082015181600401559050506040518060a0016040528060028152602001600f8152602001600a8152602001600581526020016001815250601160006005815260200190815260200160002060008201518160000155602082015181600101556040820151816002015560608201518160030155608082015181600401559050506040518060a0016040528060028152602001604b81526020016064815260200160fa81526020016064815250601160006006815260200190815260200160002060008201518160000155602082015181600101556040820151816002015560608201518160030155608082015181600401559050506040518060a0016040528060028152602001604b81526020016064815260200160fa81526020016064815250601160006007815260200190815260200160002060008201518160000155602082015181600101556040820151816002015560608201518160030155608082015181600401559050506040518060a0016040528060028152602001604b81526020016064815260200160fa81526020016064815250601160006008815260200190815260200160002060008201518160000155602082015181600101556040820151816002015560608201518160030155608082015181600401559050506040518060a0016040528060028152602001604b81526020016064815260200160fa81526020016064815250601160006009815260200190815260200160002060008201518160000155602082015181600101556040820151816002015560608201518160030155608082015181600401559050506040518060a0016040528060028152602001604b81526020016064815260200160fa8152602001606481525060116000600a815260200190815260200160002060008201518160000155602082015181600101556040820151816002015560608201518160030155608082015181600401559050506040518060a0016040528060028152602001604b81526020016064815260200160fa8152602001606481525060116000600b815260200190815260200160002060008201518160000155602082015181600101556040820151816002015560608201518160030155608082015181600401559050506040518060a0016040528060028152604b60208281018290526064604080850182905260fa60608087018290526080968701849052600c6000908152601180875289517fa0a6eb636d5852c675102f73aac3a9fac8e391317bf5bff4efc2293ccb761e8855898701517fa0a6eb636d5852c675102f73aac3a9fac8e391317bf5bff4efc2293ccb761e8955898501517fa0a6eb636d5852c675102f73aac3a9fac8e391317bf5bff4efc2293ccb761e8a55898301517fa0a6eb636d5852c675102f73aac3a9fac8e391317bf5bff4efc2293ccb761e8b55988801517fa0a6eb636d5852c675102f73aac3a9fac8e391317bf5bff4efc2293ccb761e8c55835160a0808201865260028083528289018a8152838801898152848701888152858e018b8152600d88528f8d5295517f582fca367f6c471655fd3d41d20c5fcde67613e662890aa9266c0beff997f69b5591517f582fca367f6c471655fd3d41d20c5fcde67613e662890aa9266c0beff997f69c55517f582fca367f6c471655fd3d41d20c5fcde67613e662890aa9266c0beff997f69d55517f582fca367f6c471655fd3d41d20c5fcde67613e662890aa9266c0beff997f69e5591517f582fca367f6c471655fd3d41d20c5fcde67613e662890aa9266c0beff997f69f55855180820187528281528089018a8152818801898152828701888152838e018b8152600e88528f8d5293517f444b7a2506d19a52c7e5a55b311f0906890fc87938a8da135c8c88b5462efb335591517f444b7a2506d19a52c7e5a55b311f0906890fc87938a8da135c8c88b5462efb3455517f444b7a2506d19a52c7e5a55b311f0906890fc87938a8da135c8c88b5462efb3555517f444b7a2506d19a52c7e5a55b311f0906890fc87938a8da135c8c88b5462efb3655517f444b7a2506d19a52c7e5a55b311f0906890fc87938a8da135c8c88b5462efb375585519081018652908152808701978852808501868152818401948552988101958652600f808352998752517f9a9a6d71e29ddaf2585d4fca14f7e63e706374467f30090d88c305be03023ab25595517f9a9a6d71e29ddaf2585d4fca14f7e63e706374467f30090d88c305be03023ab35595517f9a9a6d71e29ddaf2585d4fca14f7e63e706374467f30090d88c305be03023ab455517f9a9a6d71e29ddaf2585d4fca14f7e63e706374467f30090d88c305be03023ab55590517f9a9a6d71e29ddaf2585d4fca14f7e63e706374467f30090d88c305be03023ab655805180850182526012808252600a828501818152602d8486019081526003885289875293517f45f76dafbbad695564362934e24d72eedc57f9fc1a65f39bca62176cc829682855517f45f76dafbbad695564362934e24d72eedc57f9fc1a65f39bca62176cc82968295591517f45f76dafbbad695564362934e24d72eedc57f9fc1a65f39bca62176cc829682a5582518087018452908152808401828152605a8285019081526005875288865291517f6bda57492eba051cb4a12a1e19df47c9755d78165341d4009b1d09b3f361620455517f6bda57492eba051cb4a12a1e19df47c9755d78165341d4009b1d09b3f361620555517f6bda57492eba051cb4a12a1e19df47c9755d78165341d4009b1d09b3f361620655815194850182526009855284830190815261270f9185019182526007845294825292517f73dfc495eb54bd6713ffc079b9f5e40f2fecd3793d143759ba0128fbedb402545592517f73dfc495eb54bd6713ffc079b9f5e40f2fecd3793d143759ba0128fbedb402555590517f73dfc495eb54bd6713ffc079b9f5e40f2fecd3793d143759ba0128fbedb402565560109091526802b5e3af16b18800007f853b2fefe141400fef543280f93d98bd49996069f632d0d20236afeeed8e46a255600490525050683635c9adc5dea000007f1588ac671d87f82adc0e6ae8ab009c0de98f92a20243897597e566bc59b9c12655506200173892505050565b6000546001600160a01b031615620010f25760405162461bcd60e51b81526020600482015260126024820152711bdddb8b9a195e18985cd94b99985a5b195960721b604482015260640160405180910390fd5b600c8054326001600160a01b031991821617909155600080549091166001600160a01b0383161790556200112562001128565b50565b6000546001600160a01b03166200113b57565b60008054906101000a90046001600160a01b03166001600160a01b0316634162169f6040518163ffffffff1660e01b8152600401602060405180830381865afa1580156200118d573d6000803e3d6000fd5b505050506040513d601f19601f82011682018060405250810190620011b3919062001706565b600180546001600160a01b0319166001600160a01b0392831617905560005460408051635abedee360e11b81529051919092169163b57dbdc69160048083019260209291908290030181865afa15801562001212573d6000803e3d6000fd5b505050506040513d601f19601f8201168201806040525081019062001238919062001706565b600280546001600160a01b0319166001600160a01b039283161790556000546040805163cfbffe5360e01b81529051919092169163cfbffe539160048083019260209291908290030181865afa15801562001297573d6000803e3d6000fd5b505050506040513d601f19601f82011682018060405250810190620012bd919062001706565b600380546001600160a01b0319166001600160a01b039283161790556000546040805163ab6e844f60e01b81529051919092169163ab6e844f9160048083019260209291908290030181865afa1580156200131c573d6000803e3d6000fd5b505050506040513d601f19601f8201168201806040525081019062001342919062001706565b600480546001600160a01b0319166001600160a01b0392831617815560005460408051639a7c407760e01b815290519190931692639a7c407792818101926020929091908290030181865afa158015620013a0573d6000803e3d6000fd5b505050506040513d601f19601f82011682018060405250810190620013c6919062001706565b600580546001600160a01b0319166001600160a01b0392831617905560005460408051635506ee0b60e11b81529051919092169163aa0ddc169160048083019260209291908290030181865afa15801562001425573d6000803e3d6000fd5b505050506040513d601f19601f820116820180604052508101906200144b919062001706565b600780546001600160a01b0319166001600160a01b03928316179055600054604080516335a577e360e11b815290519190921691636b4aefc69160048083019260209291908290030181865afa158015620014aa573d6000803e3d6000fd5b505050506040513d601f19601f82011682018060405250810190620014d0919062001706565b600880546001600160a01b0319166001600160a01b03928316179055600054604080516324768d9160e01b8152905191909216916324768d919160048083019260209291908290030181865afa1580156200152f573d6000803e3d6000fd5b505050506040513d601f19601f8201168201806040525081019062001555919062001706565b600b80546001600160a01b0319166001600160a01b0392831617905560005460408051636402742760e01b81529051919092169163640274279160048083019260209291908290030181865afa158015620015b4573d6000803e3d6000fd5b505050506040513d601f19601f82011682018060405250810190620015da919062001706565b600980546001600160a01b0319166001600160a01b03928316179055600054604080516330125cf560e01b8152905191909216916330125cf59160048083019260209291908290030181865afa15801562001639573d6000803e3d6000fd5b505050506040513d601f19601f820116820180604052508101906200165f919062001706565b600a80546001600160a01b0319166001600160a01b03928316179055600054604080516369e8d84b60e11b81529051919092169163d3d1b0969160048083019260209291908290030181865afa158015620016be573d6000803e3d6000fd5b505050506040513d601f19601f82011682018060405250810190620016e4919062001706565b600680546001600160a01b0319166001600160a01b0392909216919091179055565b6000602082840312156200171957600080fd5b81516001600160a01b03811681146200173157600080fd5b9392505050565b613c2580620017486000396000f3fe6080604052600436106103975760003560e01c806366c8c3de116101da578063aecb710b11610101578063db2d8b261161009a578063f3fef3a31161006c578063f3fef3a314610c3e578063f4fe8e3c14610c51578063f54a77c814610c71578063fc0e74d114610c8757005b8063db2d8b2614610bd2578063e72f1fbf14610be8578063edcf972114610c08578063ef93b64014610c1e57005b8063b90306ad116100d3578063b90306ad14610b73578063c32cfa9914610b86578063c5a136d414610b9c578063c776fdd714610bbc57005b8063aecb710b14610b09578063af0b21d314610b29578063b252fbe114610b3f578063b85f1f8d14610b5457005b80638e7ee05811610173578063abb8c96511610145578063abb8c96514610a61578063ac4e575914610a81578063ad822db414610aa0578063aebcd32a14610ac057005b80638e7ee058146109eb578063a112b7a414610a0b578063a371dfda14610a2b578063a88fcea614610a4b57005b806370d694f0116101ac57806370d694f014610977578063768f31801461098d5780638a3ed641146109a35780638da5cb5b146109c357005b806366c8c3de146108db578063675f3eb11461090a5780636b81c82f1461092a5780636f092c5e1461094a57005b8063379a423c116102be5780635962205f116102575780635eac8225116102295780635eac82251461085b57806360af454d1461087b578063622fe2ed1461089b5780636368c1ce146108bb57005b80635962205f146107945780635a0e9038146108065780635a9bac03146108255780635b7585b21461083b57005b806345e8fefd1161029057806345e8fefd146106c55780634c05b4a8146106db5780635640dbfc1461070a578063592a02a81461077457005b8063379a423c146105fe5780634151331d1461062e57806341ffe7c41461068557806343c06bc4146106a557005b8063223c0f01116103305780632bfc2e07116103025780632bfc2e07146105a65780632e040b9d146105bc57806332557e8f146105d25780633688236d146105e857005b8063223c0f011461052657806323b1a7ce1461054657806326c5adae146105665780632b0ada451461058657005b80631605aed9116103695780631605aed91461047657806316f0115b1461048c57806319e2ae96146104f0578063208ad1e31461051057005b806307175c83146103a05780630d43aaf2146103c957806312065fe01461044d57806315a544ed1461046057005b3661039e57005b005b3480156103ac57600080fd5b506103b660305481565b6040519081526020015b60405180910390f35b3480156103d557600080fd5b50600d54610413906001600160a01b0381169060ff600160a01b8204811691600160a81b8104821691600160b01b8204811691600160b81b90041685565b604080516001600160a01b03909616865293151560208601529115159284019290925290151560608301521515608082015260a0016103c0565b34801561045957600080fd5b50476103b6565b34801561046c57600080fd5b506103b660355481565b34801561048257600080fd5b506103b660345481565b34801561049857600080fd5b506012546013546014546015546016546017546018546104bb9695949392919087565b604080519788526020880196909652948601939093526060850191909152608084015260a083015260c082015260e0016103c0565b3480156104fc57600080fd5b5061039e61050b366004613866565b610ca1565b34801561051c57600080fd5b506103b6603c5481565b34801561053257600080fd5b5061039e6105413660046138b2565b610e2e565b34801561055257600080fd5b5061039e6105613660046138cb565b610f76565b34801561057257600080fd5b506103b66105813660046138b2565b6110d4565b34801561059257600080fd5b5061039e6105a13660046138ed565b611180565b3480156105b257600080fd5b506103b660365481565b3480156105c857600080fd5b506103b660385481565b3480156105de57600080fd5b506103b6603f5481565b3480156105f457600080fd5b506103b6603e5481565b34801561060a57600080fd5b5061061e61061936600461392e565b6112be565b60405190151581526020016103c0565b34801561063a57600080fd5b5061066a6106493660046138b2565b600f6020526000908152604090208054600182015460029092015490919083565b604080519384526020840192909252908201526060016103c0565b34801561069157600080fd5b5061039e6106a036600461392e565b61134b565b3480156106b157600080fd5b5061039e6106c03660046138ed565b611602565b3480156106d157600080fd5b506103b660315481565b3480156106e757600080fd5b50601954601a54601b54601c54601d54601e54601f546104bb9695949392919087565b34801561071657600080fd5b50602d54602e54610744919060ff808216916101008104821691620100008204811691630100000090041685565b6040805195865293151560208601529115159284019290925290151560608301521515608082015260a0016103c0565b34801561078057600080fd5b5061039e61078f36600461394b565b611780565b3480156107a057600080fd5b506107de6107af3660046138b2565b601160205260009081526040902080546001820154600283015460038401546004909401549293919290919085565b604080519586526020860194909452928401919091526060830152608082015260a0016103c0565b34801561081257600080fd5b5060275460285460295461066a92919083565b34801561083157600080fd5b506103b660375481565b34801561084757600080fd5b5061039e610856366004613866565b611946565b34801561086757600080fd5b506103b66108763660046138b2565b611acb565b34801561088757600080fd5b5061039e61089636600461392e565b611adb565b3480156108a757600080fd5b5061039e6108b636600461399c565b611b5d565b3480156108c757600080fd5b506103b66108d63660046138b2565b611d09565b3480156108e757600080fd5b506020546021546022546023546024546025546026546104bb9695949392919087565b34801561091657600080fd5b506103b66109253660046138b2565b611d59565b34801561093657600080fd5b5061039e610945366004613a04565b611d9f565b34801561095657600080fd5b506103b66109653660046138b2565b60106020526000908152604090205481565b34801561098357600080fd5b506103b6603a5481565b34801561099957600080fd5b506103b6603b5481565b3480156109af57600080fd5b5061039e6109be366004613a04565b611f48565b3480156109cf57600080fd5b50600c546040516001600160a01b0390911681526020016103c0565b3480156109f757600080fd5b5061039e610a063660046138b2565b61208c565b348015610a1757600080fd5b5061039e610a26366004613a36565b6121d4565b348015610a3757600080fd5b5061039e610a463660046138b2565b612328565b348015610a5757600080fd5b506103b6603d5481565b348015610a6d57600080fd5b5061039e610a7c366004613a6f565b61245d565b348015610a8d57600080fd5b50602f5461061e90610100900460ff1681565b348015610aac57600080fd5b5061039e610abb366004613a04565b612837565b348015610acc57600080fd5b50610af4610adb3660046138b2565b600e602052600090815260409020805460019091015482565b604080519283526020830191909152016103c0565b348015610b1557600080fd5b5061039e610b24366004613866565b61297b565b348015610b3557600080fd5b506103b660335481565b348015610b4b57600080fd5b506103b6612aff565b348015610b6057600080fd5b50602a54602b54602c5461066a92919083565b61039e610b813660046138b2565b612b91565b348015610b9257600080fd5b506103b660415481565b348015610ba857600080fd5b5061039e610bb7366004613a04565b612c7b565b348015610bc857600080fd5b506103b660425481565b348015610bde57600080fd5b506103b660395481565b348015610bf457600080fd5b5061039e610c033660046138cb565b612e06565b348015610c1457600080fd5b506103b660325481565b348015610c2a57600080fd5b506103b6610c393660046138b2565b612f41565b61039e610c4c366004613a8d565b612f87565b348015610c5d57600080fd5b5061039e610c6c3660046138cb565b61310b565b348015610c7d57600080fd5b506103b660405481565b348015610c9357600080fd5b50602f5461061e9060ff1681565b600260009054906101000a90046001600160a01b03166001600160a01b0316636a276f9d6040518163ffffffff1660e01b8152600401602060405180830381865afa158015610cf4573d6000803e3d6000fd5b505050506040513d601f19601f82011682018060405250810190610d189190613ab9565b610d3d5760405162461bcd60e51b8152600401610d3490613ad6565b60405180910390fd5b6002546040516319c0642960e01b81523360048201526001600160a01b03909116906319c0642990602401602060405180830381865afa158015610d85573d6000803e3d6000fd5b505050506040513d601f19601f82011682018060405250810190610da99190613ab9565b80610dbe57506001546001600160a01b031633145b610dda5760405162461bcd60e51b8152600401610d3490613b02565b610de2613829565b8781526020810187905260408101869052606081018590526080810184905260a0810183905260c001819052601996909655601a94909455601b92909255601c55601d55601e55601f55565b600260009054906101000a90046001600160a01b03166001600160a01b0316636a276f9d6040518163ffffffff1660e01b8152600401602060405180830381865afa158015610e81573d6000803e3d6000fd5b505050506040513d601f19601f82011682018060405250810190610ea59190613ab9565b610ec15760405162461bcd60e51b8152600401610d3490613ad6565b6002546040516319c0642960e01b81523360048201526001600160a01b03909116906319c0642990602401602060405180830381865afa158015610f09573d6000803e3d6000fd5b505050506040513d601f19601f82011682018060405250810190610f2d9190613ab9565b80610f4257506001546001600160a01b031633145b610f5e5760405162461bcd60e51b8152600401610d3490613b02565b610f7081670de0b6b3a7640000613b41565b60395550565b600260009054906101000a90046001600160a01b03166001600160a01b0316636a276f9d6040518163ffffffff1660e01b8152600401602060405180830381865afa158015610fc9573d6000803e3d6000fd5b505050506040513d601f19601f82011682018060405250810190610fed9190613ab9565b6110095760405162461bcd60e51b8152600401610d3490613ad6565b6002546040516319c0642960e01b81523360048201526001600160a01b03909116906319c0642990602401602060405180830381865afa158015611051573d6000803e3d6000fd5b505050506040513d601f19601f820116820180604052508101906110759190613ab9565b8061108a57506001546001600160a01b031633145b6110a65760405162461bcd60e51b8152600401610d3490613b02565b6110b882670de0b6b3a7640000613b41565b6030556110cd81670de0b6b3a7640000613b41565b6031555050565b600080600660009054906101000a90046001600160a01b03166001600160a01b0316637d8ec03a6040518163ffffffff1660e01b8152600401602060405180830381865afa15801561112a573d6000803e3d6000fd5b505050506040513d601f19601f8201168201806040525081019061114e9190613b58565b60305461116390670de0b6b3a7640000613b41565b61116d9190613b71565b90506111798382613b41565b9392505050565b600260009054906101000a90046001600160a01b03166001600160a01b0316636a276f9d6040518163ffffffff1660e01b8152600401602060405180830381865afa1580156111d3573d6000803e3d6000fd5b505050506040513d601f19601f820116820180604052508101906111f79190613ab9565b6112135760405162461bcd60e51b8152600401610d3490613ad6565b6002546040516319c0642960e01b81523360048201526001600160a01b03909116906319c0642990602401602060405180830381865afa15801561125b573d6000803e3d6000fd5b505050506040513d601f19601f8201168201806040525081019061127f9190613ab9565b8061129457506001546001600160a01b031633145b6112b05760405162461bcd60e51b8152600401610d3490613b02565b603a92909255603b55603c55565b6002546040516319c0642960e01b81526001600160a01b03838116600483015260009216906319c0642990602401602060405180830381865afa158015611309573d6000803e3d6000fd5b505050506040513d601f19601f8201168201806040525081019061132d9190613ab9565b806113455750600c546001600160a01b038381169116145b92915050565b600260009054906101000a90046001600160a01b03166001600160a01b0316636a276f9d6040518163ffffffff1660e01b8152600401602060405180830381865afa15801561139e573d6000803e3d6000fd5b505050506040513d601f19601f820116820180604052508101906113c29190613ab9565b6113de5760405162461bcd60e51b8152600401610d3490613ad6565b6001546001600160a01b031633148061145e5750600254604051637df73e2760e01b81523360048201526001600160a01b0390911690637df73e2790602401602060405180830381865afa15801561143a573d6000803e3d6000fd5b505050506040513d601f19601f8201168201806040525081019061145e9190613ab9565b61149f5760405162461bcd60e51b81526020600482015260126024820152716f776d2e66616b652e2064656c656761746560701b6044820152606401610d34565b6002546040516307612f9160e21b81523360048201526000916001600160a01b031690631d84be4490602401602060405180830381865afa1580156114e8573d6000803e3d6000fd5b505050506040513d601f19601f8201168201806040525081019061150c9190613b58565b905061153f6040805160a08101825260008082526020820181905291810182905260608101829052608081019190915290565b60016020820181905282900361155757600160408201525b8160020361156757600160608201525b8160030361157757600160808201525b6001600160a01b03909216808352600d80546020850151604086015160608701516080909701511515600160b81b0260ff60b81b19971515600160b01b0260ff60b01b19921515600160a81b029290921661ffff60a81b19931515600160a01b026001600160a81b031990951690961793909317919091169390931792909217939093161790915550565b600260009054906101000a90046001600160a01b03166001600160a01b0316636a276f9d6040518163ffffffff1660e01b8152600401602060405180830381865afa158015611655573d6000803e3d6000fd5b505050506040513d601f19601f820116820180604052508101906116799190613ab9565b6116955760405162461bcd60e51b8152600401610d3490613ad6565b6002546040516319c0642960e01b81523360048201526001600160a01b03909116906319c0642990602401602060405180830381865afa1580156116dd573d6000803e3d6000fd5b505050506040513d601f19601f820116820180604052508101906117019190613ab9565b8061171657506001546001600160a01b031633145b6117325760405162461bcd60e51b8152600401610d3490613b02565b600883106117525760405162461bcd60e51b8152600401610d3490613b93565b60408051808201825292835260208084019283526000948552600e9052909220905181559051600190910155565b600260009054906101000a90046001600160a01b03166001600160a01b0316636a276f9d6040518163ffffffff1660e01b8152600401602060405180830381865afa1580156117d3573d6000803e3d6000fd5b505050506040513d601f19601f820116820180604052508101906117f79190613ab9565b6118135760405162461bcd60e51b8152600401610d3490613ad6565b6002546040516319c0642960e01b81523360048201526001600160a01b03909116906319c0642990602401602060405180830381865afa15801561185b573d6000803e3d6000fd5b505050506040513d601f19601f8201168201806040525081019061187f9190613ab9565b8061189457506001546001600160a01b031633145b6118b05760405162461bcd60e51b8152600401610d3490613b02565b601086106118f05760405162461bcd60e51b815260206004820152600d60248201526c1a5b9d985b1a59081b195d995b609a1b6044820152606401610d34565b6040805160a0810182529586526020808701958652868201948552606087019384526080870192835260009788526011905290952093518455915160018401555160028301555160038201559051600490910155565b600260009054906101000a90046001600160a01b03166001600160a01b0316636a276f9d6040518163ffffffff1660e01b8152600401602060405180830381865afa158015611999573d6000803e3d6000fd5b505050506040513d601f19601f820116820180604052508101906119bd9190613ab9565b6119d95760405162461bcd60e51b8152600401610d3490613ad6565b6002546040516319c0642960e01b81523360048201526001600160a01b03909116906319c0642990602401602060405180830381865afa158015611a21573d6000803e3d6000fd5b505050506040513d601f19601f82011682018060405250810190611a459190613ab9565b80611a5a57506001546001600160a01b031633145b611a765760405162461bcd60e51b8152600401610d3490613b02565b611a7e613829565b878152602080820188905260408201879052606082018690526080820185905260a0820184905260c090910182905296909655602194909455602292909255602355602455602555602655565b6031546000906111798382613b41565b6000546001600160a01b031615611b295760405162461bcd60e51b81526020600482015260126024820152711bdddb8b9a195e18985cd94b99985a5b195960721b6044820152606401610d34565b600c8054326001600160a01b031991821617909155600080549091166001600160a01b038316179055611b5a61326d565b50565b600260009054906101000a90046001600160a01b03166001600160a01b0316636a276f9d6040518163ffffffff1660e01b8152600401602060405180830381865afa158015611bb0573d6000803e3d6000fd5b505050506040513d601f19601f82011682018060405250810190611bd49190613ab9565b611bf05760405162461bcd60e51b8152600401610d3490613ad6565b6002546040516319c0642960e01b81523360048201526001600160a01b03909116906319c0642990602401602060405180830381865afa158015611c38573d6000803e3d6000fd5b505050506040513d601f19601f82011682018060405250810190611c5c9190613ab9565b80611c7157506001546001600160a01b031633145b611c8d5760405162461bcd60e51b8152600401610d3490613b02565b6040805160a08101825286815294151560208601819052931515908501819052911515606085018190529015156080909401849052602d94909455602e805461ffff191661ff0019909316929092176101009091021763ffff000019166201000090930263ff0000001916929092176301000000909102179055565b601b54600090611d1a906064613b41565b601a54611d279084613b41565b611d319190613b71565b601d54909250611d42906064613b41565b601c54611d4f9084613b41565b6113459190613b71565b601454600090611d6a906064613b41565b601354611d779084613b41565b611d819190613b71565b601654909250611d92906064613b41565b601554611d4f9084613b41565b600260009054906101000a90046001600160a01b03166001600160a01b0316636a276f9d6040518163ffffffff1660e01b8152600401602060405180830381865afa158015611df2573d6000803e3d6000fd5b505050506040513d601f19601f82011682018060405250810190611e169190613ab9565b611e325760405162461bcd60e51b8152600401610d3490613ad6565b6002546040516319c0642960e01b81523360048201526001600160a01b03909116906319c0642990602401602060405180830381865afa158015611e7a573d6000803e3d6000fd5b505050506040513d601f19601f82011682018060405250810190611e9e9190613ab9565b80611eb357506001546001600160a01b031633145b611ecf5760405162461bcd60e51b8152600401610d3490613b02565b611ef360405180606001604052806000815260200160008152602001600081525090565b83815260208101839052604081018290526001859003611f23578051602755602081015160285560408101516029555b84600203611f41578051602a556020810151602b556040810151602c555b5050505050565b600260009054906101000a90046001600160a01b03166001600160a01b0316636a276f9d6040518163ffffffff1660e01b8152600401602060405180830381865afa158015611f9b573d6000803e3d6000fd5b505050506040513d601f19601f82011682018060405250810190611fbf9190613ab9565b611fdb5760405162461bcd60e51b8152600401610d3490613ad6565b6002546040516319c0642960e01b81523360048201526001600160a01b03909116906319c0642990602401602060405180830381865afa158015612023573d6000803e3d6000fd5b505050506040513d601f19601f820116820180604052508101906120479190613ab9565b8061205c57506001546001600160a01b031633145b6120785760405162461bcd60e51b8152600401610d3490613b02565b603493909355603591909155603655603755565b600260009054906101000a90046001600160a01b03166001600160a01b0316636a276f9d6040518163ffffffff1660e01b8152600401602060405180830381865afa1580156120df573d6000803e3d6000fd5b505050506040513d601f19601f820116820180604052508101906121039190613ab9565b61211f5760405162461bcd60e51b8152600401610d3490613ad6565b6002546040516319c0642960e01b81523360048201526001600160a01b03909116906319c0642990602401602060405180830381865afa158015612167573d6000803e3d6000fd5b505050506040513d601f19601f8201168201806040525081019061218b9190613ab9565b806121a057506001546001600160a01b031633145b6121bc5760405162461bcd60e51b8152600401610d3490613b02565b6121ce81670de0b6b3a7640000613b41565b60325550565b600260009054906101000a90046001600160a01b03166001600160a01b0316636a276f9d6040518163ffffffff1660e01b8152600401602060405180830381865afa158015612227573d6000803e3d6000fd5b505050506040513d601f19601f8201168201806040525081019061224b9190613ab9565b6122675760405162461bcd60e51b8152600401610d3490613ad6565b6002546040516319c0642960e01b81523360048201526001600160a01b03909116906319c0642990602401602060405180830381865afa1580156122af573d6000803e3d6000fd5b505050506040513d601f19601f820116820180604052508101906122d39190613ab9565b806122e857506001546001600160a01b031633145b6123045760405162461bcd60e51b8152600401610d3490613b02565b602f805461ffff191692151561ff0019169290921761010091151591909102179055565b600260009054906101000a90046001600160a01b03166001600160a01b0316636a276f9d6040518163ffffffff1660e01b8152600401602060405180830381865afa15801561237b573d6000803e3d6000fd5b505050506040513d601f19601f8201168201806040525081019061239f9190613ab9565b6123bb5760405162461bcd60e51b8152600401610d3490613ad6565b6002546040516319c0642960e01b81523360048201526001600160a01b03909116906319c0642990602401602060405180830381865afa158015612403573d6000803e3d6000fd5b505050506040513d601f19601f820116820180604052508101906124279190613ab9565b8061243c57506001546001600160a01b031633145b6124585760405162461bcd60e51b8152600401610d3490613b02565b603355565b600260009054906101000a90046001600160a01b03166001600160a01b0316636a276f9d6040518163ffffffff1660e01b8152600401602060405180830381865afa1580156124b0573d6000803e3d6000fd5b505050506040513d601f19601f820116820180604052508101906124d49190613ab9565b6124f05760405162461bcd60e51b8152600401610d3490613ad6565b6001546001600160a01b03163314806125705750600254604051637df73e2760e01b81523360048201526001600160a01b0390911690637df73e2790602401602060405180830381865afa15801561254c573d6000803e3d6000fd5b505050506040513d601f19601f820116820180604052508101906125709190613ab9565b6125b15760405162461bcd60e51b81526020600482015260126024820152716f776d2e66616b652e2064656c656761746560701b6044820152606401610d34565b80156127fb576002546040516307612f9160e21b81523360048201526000916001600160a01b031690631d84be4490602401602060405180830381865afa158015612600573d6000803e3d6000fd5b505050506040513d601f19601f820116820180604052508101906126249190613b58565b600d54909150600160a01b900460ff1680156126405750806001145b80156126595750600d546001600160a01b038481169116145b1561267257600d805460ff60a81b1916600160a81b1790555b600d54600160a01b900460ff16801561268b5750806002145b80156126a45750600d546001600160a01b038481169116145b156126bd57600d805460ff60b01b1916600160b01b1790555b600d54600160a01b900460ff1680156126d65750806003145b80156126ef5750600d546001600160a01b038481169116145b1561270857600d805460ff60b81b1916600160b81b1790555b600d54600090600160a81b900460ff161561272b578061272781613bb9565b9150505b600d54600160b01b900460ff161561274b578061274781613bb9565b9150505b600d54600160b81b900460ff161561276b578061276781613bb9565b9150505b600d54600160a01b900460ff1680156127845750806002145b801561279d5750600d546001600160a01b038581169116145b156127f557600c80546001600160a01b0319166001600160a01b0386161790556040805160a0810182526000808252602082018190529181018290526060810182905260800152600d80546001600160c01b03191690555b50505050565b6040805160a0810182526000808252602082018190529181018290526060810182905260800152600d80546001600160c01b03191690555b5050565b600260009054906101000a90046001600160a01b03166001600160a01b0316636a276f9d6040518163ffffffff1660e01b8152600401602060405180830381865afa15801561288a573d6000803e3d6000fd5b505050506040513d601f19601f820116820180604052508101906128ae9190613ab9565b6128ca5760405162461bcd60e51b8152600401610d3490613ad6565b6002546040516319c0642960e01b81523360048201526001600160a01b03909116906319c0642990602401602060405180830381865afa158015612912573d6000803e3d6000fd5b505050506040513d601f19601f820116820180604052508101906129369190613ab9565b8061294b57506001546001600160a01b031633145b6129675760405162461bcd60e51b8152600401610d3490613b02565b603d93909355603e91909155604055604155565b600260009054906101000a90046001600160a01b03166001600160a01b0316636a276f9d6040518163ffffffff1660e01b8152600401602060405180830381865afa1580156129ce573d6000803e3d6000fd5b505050506040513d601f19601f820116820180604052508101906129f29190613ab9565b612a0e5760405162461bcd60e51b8152600401610d3490613ad6565b6002546040516319c0642960e01b81523360048201526001600160a01b03909116906319c0642990602401602060405180830381865afa158015612a56573d6000803e3d6000fd5b505050506040513d601f19601f82011682018060405250810190612a7a9190613ab9565b80612a8f57506001546001600160a01b031633145b612aab5760405162461bcd60e51b8152600401610d3490613b02565b612ab3613829565b8781526020810187905260408101869052606081018590526080810184905260a0810183905260c001819052601296909655601394909455601492909255601555601655601755601855565b60065460408051633ec7601d60e11b815290516000926001600160a01b031691637d8ec03a9160048083019260209291908290030181865afa158015612b49573d6000803e3d6000fd5b505050506040513d601f19601f82011682018060405250810190612b6d9190613b58565b603254612b8290670de0b6b3a7640000613b41565b612b8c9190613b71565b905090565b600260009054906101000a90046001600160a01b03166001600160a01b0316636a276f9d6040518163ffffffff1660e01b8152600401602060405180830381865afa158015612be4573d6000803e3d6000fd5b505050506040513d601f19601f82011682018060405250810190612c089190613ab9565b612c245760405162461bcd60e51b8152600401610d3490613ad6565b6001546001600160a01b03163314612c4e5760405162461bcd60e51b8152600401610d3490613b02565b60405160009082156108fc0290839083818181858288f19350505050158015612833573d6000803e3d6000fd5b600260009054906101000a90046001600160a01b03166001600160a01b0316636a276f9d6040518163ffffffff1660e01b8152600401602060405180830381865afa158015612cce573d6000803e3d6000fd5b505050506040513d601f19601f82011682018060405250810190612cf29190613ab9565b612d0e5760405162461bcd60e51b8152600401610d3490613ad6565b6002546040516319c0642960e01b81523360048201526001600160a01b03909116906319c0642990602401602060405180830381865afa158015612d56573d6000803e3d6000fd5b505050506040513d601f19601f82011682018060405250810190612d7a9190613ab9565b80612d8f57506001546001600160a01b031633145b612dab5760405162461bcd60e51b8152600401610d3490613b02565b60088410612dcb5760405162461bcd60e51b8152600401610d3490613b93565b6040805160608101825293845260208085019384528482019283526000958652600f9052909320915182555160018201559051600290910155565b600260009054906101000a90046001600160a01b03166001600160a01b0316636a276f9d6040518163ffffffff1660e01b8152600401602060405180830381865afa158015612e59573d6000803e3d6000fd5b505050506040513d601f19601f82011682018060405250810190612e7d9190613ab9565b612e995760405162461bcd60e51b8152600401610d3490613ad6565b6002546040516319c0642960e01b81523360048201526001600160a01b03909116906319c0642990602401602060405180830381865afa158015612ee1573d6000803e3d6000fd5b505050506040513d601f19601f82011682018060405250810190612f059190613ab9565b80612f1a57506001546001600160a01b031633145b612f365760405162461bcd60e51b8152600401610d3490613b02565b603f91909155604255565b602254600090612f52906064613b41565b602154612f5f9084613b41565b612f699190613b71565b602454909250612f7a906064613b41565b602354611d4f9084613b41565b816001600160a01b038116612fd35760405162461bcd60e51b815260206004820152601260248201527137bbb7173232b330bab63a1739b2b73232b960711b6044820152606401610d34565b600260009054906101000a90046001600160a01b03166001600160a01b0316636a276f9d6040518163ffffffff1660e01b8152600401602060405180830381865afa158015613026573d6000803e3d6000fd5b505050506040513d601f19601f8201168201806040525081019061304a9190613ab9565b6130665760405162461bcd60e51b8152600401610d3490613ad6565b6001546001600160a01b031633146130905760405162461bcd60e51b8152600401610d3490613b02565b600082116130d55760405162461bcd60e51b81526020600482015260126024820152711bdddb8b9a5b9d985b1a590b985b5bdd5b9d60721b6044820152606401610d34565b6040516001600160a01b0384169083156108fc029084906000818181858888f193505050501580156127f5573d6000803e3d6000fd5b600260009054906101000a90046001600160a01b03166001600160a01b0316636a276f9d6040518163ffffffff1660e01b8152600401602060405180830381865afa15801561315e573d6000803e3d6000fd5b505050506040513d601f19601f820116820180604052508101906131829190613ab9565b61319e5760405162461bcd60e51b8152600401610d3490613ad6565b6002546040516319c0642960e01b81523360048201526001600160a01b03909116906319c0642990602401602060405180830381865afa1580156131e6573d6000803e3d6000fd5b505050506040513d601f19601f8201168201806040525081019061320a9190613ab9565b8061321f57506001546001600160a01b031633145b61323b5760405162461bcd60e51b8152600401610d3490613b02565b6008821061325b5760405162461bcd60e51b8152600401610d3490613b93565b60009182526010602052604090912055565b6000546001600160a01b031661327f57565b60008054906101000a90046001600160a01b03166001600160a01b0316634162169f6040518163ffffffff1660e01b8152600401602060405180830381865afa1580156132d0573d6000803e3d6000fd5b505050506040513d601f19601f820116820180604052508101906132f49190613bd2565b600180546001600160a01b0319166001600160a01b0392831617905560005460408051635abedee360e11b81529051919092169163b57dbdc69160048083019260209291908290030181865afa158015613352573d6000803e3d6000fd5b505050506040513d601f19601f820116820180604052508101906133769190613bd2565b600280546001600160a01b0319166001600160a01b039283161790556000546040805163cfbffe5360e01b81529051919092169163cfbffe539160048083019260209291908290030181865afa1580156133d4573d6000803e3d6000fd5b505050506040513d601f19601f820116820180604052508101906133f89190613bd2565b600380546001600160a01b0319166001600160a01b039283161790556000546040805163ab6e844f60e01b81529051919092169163ab6e844f9160048083019260209291908290030181865afa158015613456573d6000803e3d6000fd5b505050506040513d601f19601f8201168201806040525081019061347a9190613bd2565b600480546001600160a01b0319166001600160a01b0392831617815560005460408051639a7c407760e01b815290519190931692639a7c407792818101926020929091908290030181865afa1580156134d7573d6000803e3d6000fd5b505050506040513d601f19601f820116820180604052508101906134fb9190613bd2565b600580546001600160a01b0319166001600160a01b0392831617905560005460408051635506ee0b60e11b81529051919092169163aa0ddc169160048083019260209291908290030181865afa158015613559573d6000803e3d6000fd5b505050506040513d601f19601f8201168201806040525081019061357d9190613bd2565b600780546001600160a01b0319166001600160a01b03928316179055600054604080516335a577e360e11b815290519190921691636b4aefc69160048083019260209291908290030181865afa1580156135db573d6000803e3d6000fd5b505050506040513d601f19601f820116820180604052508101906135ff9190613bd2565b600880546001600160a01b0319166001600160a01b03928316179055600054604080516324768d9160e01b8152905191909216916324768d919160048083019260209291908290030181865afa15801561365d573d6000803e3d6000fd5b505050506040513d601f19601f820116820180604052508101906136819190613bd2565b600b80546001600160a01b0319166001600160a01b0392831617905560005460408051636402742760e01b81529051919092169163640274279160048083019260209291908290030181865afa1580156136df573d6000803e3d6000fd5b505050506040513d601f19601f820116820180604052508101906137039190613bd2565b600980546001600160a01b0319166001600160a01b03928316179055600054604080516330125cf560e01b8152905191909216916330125cf59160048083019260209291908290030181865afa158015613761573d6000803e3d6000fd5b505050506040513d601f19601f820116820180604052508101906137859190613bd2565b600a80546001600160a01b0319166001600160a01b03928316179055600054604080516369e8d84b60e11b81529051919092169163d3d1b0969160048083019260209291908290030181865afa1580156137e3573d6000803e3d6000fd5b505050506040513d601f19601f820116820180604052508101906138079190613bd2565b600680546001600160a01b0319166001600160a01b0392909216919091179055565b6040518060e00160405280600081526020016000815260200160008152602001600081526020016000815260200160008152602001600081525090565b600080600080600080600060e0888a03121561388157600080fd5b505085359760208701359750604087013596606081013596506080810135955060a0810135945060c0013592509050565b6000602082840312156138c457600080fd5b5035919050565b600080604083850312156138de57600080fd5b50508035926020909101359150565b60008060006060848603121561390257600080fd5b505081359360208301359350604090920135919050565b6001600160a01b0381168114611b5a57600080fd5b60006020828403121561394057600080fd5b813561117981613919565b60008060008060008060c0878903121561396457600080fd5b505084359660208601359650604086013595606081013595506080810135945060a0013592509050565b8015158114611b5a57600080fd5b600080600080600060a086880312156139b457600080fd5b8535945060208601356139c68161398e565b935060408601356139d68161398e565b925060608601356139e68161398e565b915060808601356139f68161398e565b809150509295509295909350565b60008060008060808587031215613a1a57600080fd5b5050823594602084013594506040840135936060013592509050565b60008060408385031215613a4957600080fd5b8235613a548161398e565b91506020830135613a648161398e565b809150509250929050565b60008060408385031215613a8257600080fd5b8235613a5481613919565b60008060408385031215613aa057600080fd5b8235613aab81613919565b946020939093013593505050565b600060208284031215613acb57600080fd5b81516111798161398e565b6020808252601290820152716f776e2e696e76616c69642e69735361666560701b604082015260600190565b6020808252600f908201526e6f776e2e6e6f6e617574682e44414f60881b604082015260600190565b634e487b7160e01b600052601160045260246000fd5b808202811582820484141761134557611345613b2b565b600060208284031215613b6a57600080fd5b5051919050565b600082613b8e57634e487b7160e01b600052601260045260246000fd5b500490565b6020808252600c908201526b696e76616c69642072616e6b60a01b604082015260600190565b600060018201613bcb57613bcb613b2b565b5060010190565b600060208284031215613be457600080fd5b81516111798161391956fea26469706673582212205bf60adc40a803b6d165e3fa33ffd277d14c2ad8065a99af126ed348429dbac964736f6c63430008140033","linkReferences":{}},"methodIdentifiers":{"Burn(uint256)":"b90306ad","_setOwner(address,bool)":"abb8c965","_setReq(address)":"41ffe7c4","activateInUSDT()":"edcf9721","capping()":"5640dbfc","computeActivateValue()":"b252fbe1","computeMintValue(uint256)":"26c5adae","computeMintValuePrime(uint256)":"5eac8225","computePool(uint256)":"675f3eb1","computePoolPrime(uint256)":"6368c1ce","computePoolValidator(uint256)":"ef93b640","freeIntervals()":"af0b21d3","getBalance()":"12065fe0","isOwnerOrSafeOwner(address)":"379a423c","levelClause(uint256)":"5962205f","maxClaimPerDay()":"15a544ed","maxClaimPerDayPrime()":"5a9bac03","maxGlobalClaimPerDayPrime()":"db2d8b26","maxMintQty()":"3688236d","maxMintQtyPrime()":"c32cfa99","minClaimPerDay()":"1605aed9","minClaimPerDayPrime()":"2bfc2e07","minGlobalClaimPerDayPrime()":"2e040b9d","minMintQty()":"a88fcea6","minMintQtyPrime()":"f54a77c8","mintFeePerQty()":"07175c83","mintFeePerQtyPrime()":"45e8fefd","mintLimitPerDay()":"32557e8f","mintLimitPerDayPrime()":"c776fdd7","own_reinit(address)":"60af454d","owner()":"8da5cb5b","pool()":"16f0115b","poolNFT1()":"5a0e9038","poolNFT2()":"b85f1f8d","poolPrime()":"4c05b4a8","poolValidator()":"66c8c3de","rankClause(uint256)":"aebcd32a","req()":"0d43aaf2","royalityClause(uint256)":"4151331d","setActivateUSDT(uint256)":"8e7ee058","setCapping(uint256,bool,bool,bool,bool)":"622fe2ed","setClaimPerDay(uint256,uint256,uint256,uint256)":"8a3ed641","setGlobalClaimPerDayPrime(uint256)":"223c0f01","setMintFee(uint256,uint256)":"23b1a7ce","setMintLimitPerDay(uint256,uint256)":"e72f1fbf","setMintQty(uint256,uint256,uint256,uint256)":"ad822db4","setNftPool(uint256,uint256,uint256,uint256)":"6b81c82f","setPool(uint256,uint256,uint256,uint256,uint256,uint256,uint256)":"aecb710b","setPoolPrime(uint256,uint256,uint256,uint256,uint256,uint256,uint256)":"19e2ae96","setPoolValidator(uint256,uint256,uint256,uint256,uint256,uint256,uint256)":"5b7585b2","setRoyalityClause(uint256,uint256,uint256,uint256)":"c5a136d4","setTourClause(uint256,uint256)":"f4fe8e3c","setValidatorConfig(uint256,uint256,uint256)":"2b0ada45","setfreeIntervals(uint256)":"a371dfda","setlevelClause(uint256,uint256,uint256,uint256,uint256,uint256)":"592a02a8","setrankClause(uint256,uint256,uint256)":"43c06bc4","setshutdown(bool,bool)":"a112b7a4","shutdown()":"fc0e74d1","shutdownPrime()":"ac4e5759","tourClause(uint256)":"6f092c5e","validatorMintQty()":"70d694f0","validatorStakePerD()":"208ad1e3","validatorStakePerN()":"768f3180","withdraw(address,uint256)":"f3fef3a3"},"id":9}