{"abi":[{"type":"constructor","inputs":[],"stateMutability":"nonpayable"},{"type":"fallback","stateMutability":"payable"},{"type":"receive","stateMutability":"payable"},{"type":"function","name":"Burn","inputs":[{"name":"amount","type":"uint256","internalType":"uint256"}],"outputs":[],"stateMutability":"payable"},{"type":"function","name":"Txn","inputs":[{"name":"paramAdd","type":"address","internalType":"address"},{"name":"_id_maxint","type":"uint256","internalType":"uint256"},{"name":"_qty","type":"uint256","internalType":"uint256"},{"name":"_amt","type":"uint256","internalType":"uint256"},{"name":"_level","type":"uint256","internalType":"uint256"}],"outputs":[],"stateMutability":"payable"},{"type":"function","name":"_setOwner","inputs":[{"name":"own","type":"address","internalType":"address"},{"name":"isApproved","type":"bool","internalType":"bool"}],"outputs":[],"stateMutability":"nonpayable"},{"type":"function","name":"_setReq","inputs":[{"name":"own","type":"address","internalType":"address"}],"outputs":[],"stateMutability":"nonpayable"},{"type":"function","name":"getBackendBal","inputs":[],"outputs":[{"name":"standard","type":"uint256","internalType":"uint256"},{"name":"prime","type":"uint256","internalType":"uint256"}],"stateMutability":"view"},{"type":"function","name":"getBalance","inputs":[],"outputs":[{"name":"","type":"uint256","internalType":"uint256"}],"stateMutability":"view"},{"type":"function","name":"getMint","inputs":[{"name":"inx","type":"uint256","internalType":"uint256"}],"outputs":[{"name":"orc1155_","type":"address","internalType":"address"}],"stateMutability":"view"},{"type":"function","name":"getNodeLBPrime","inputs":[],"outputs":[{"name":"business","type":"uint256","internalType":"uint256"},{"name":"qty","type":"uint256","internalType":"uint256"}],"stateMutability":"view"},{"type":"function","name":"getdetail1","inputs":[],"outputs":[{"name":"id_","type":"uint256","internalType":"uint256"},{"name":"bonus_","type":"uint256","internalType":"uint256"},{"name":"joinage_","type":"uint256","internalType":"uint256"},{"name":"parent_","type":"address","internalType":"address"},{"name":"mintCount_","type":"uint256","internalType":"uint256"},{"name":"isStop_","type":"bool","internalType":"bool"}],"stateMutability":"view"},{"type":"function","name":"getdetail2","inputs":[],"outputs":[{"name":"mintDailyCount_","type":"uint256","internalType":"uint256"},{"name":"minClaimToday_","type":"uint256","internalType":"uint256"},{"name":"ownerNode_","type":"address","internalType":"address"}],"stateMutability":"view"},{"type":"function","name":"ibk","inputs":[],"outputs":[{"name":"","type":"address","internalType":"address"}],"stateMutability":"view"},{"type":"function","name":"ibkprm","inputs":[],"outputs":[{"name":"","type":"address","internalType":"address"}],"stateMutability":"view"},{"type":"function","name":"isOwnerOrSafeOwner","inputs":[{"name":"sender","type":"address","internalType":"address"}],"outputs":[{"name":"","type":"bool","internalType":"bool"}],"stateMutability":"view"},{"type":"function","name":"kill","inputs":[{"name":"_toSend","type":"address","internalType":"address"}],"outputs":[],"stateMutability":"nonpayable"},{"type":"function","name":"own_reinit","inputs":[{"name":"_h","type":"address","internalType":"address"}],"outputs":[],"stateMutability":"nonpayable"},{"type":"function","name":"owner","inputs":[],"outputs":[{"name":"","type":"address","internalType":"address"}],"stateMutability":"view"},{"type":"function","name":"primeIncomeInfo","inputs":[{"name":"maxinterwal","type":"uint256","internalType":"uint256"}],"outputs":[{"name":"income","type":"uint256","internalType":"uint256"},{"name":"compincome","type":"uint256","internalType":"uint256"},{"name":"claimedage","type":"uint256","internalType":"uint256"}],"stateMutability":"view"},{"type":"function","name":"proxyCall","inputs":[{"name":"target","type":"address","internalType":"address"},{"name":"data","type":"bytes","internalType":"bytes"}],"outputs":[{"name":"","type":"bytes","internalType":"bytes"}],"stateMutability":"payable"},{"type":"function","name":"req","inputs":[],"outputs":[{"name":"newowner","type":"address","internalType":"address"},{"name":"isReq","type":"bool","internalType":"bool"},{"name":"isVer1","type":"bool","internalType":"bool"},{"name":"isVer2","type":"bool","internalType":"bool"},{"name":"isVer3","type":"bool","internalType":"bool"}],"stateMutability":"view"},{"type":"function","name":"resetuser","inputs":[{"name":"to","type":"address","internalType":"address"}],"outputs":[],"stateMutability":"nonpayable"},{"type":"function","name":"setBonus","inputs":[{"name":"b","type":"uint256","internalType":"uint256"}],"outputs":[],"stateMutability":"nonpayable"},{"type":"function","name":"stopNode","inputs":[{"name":"_stop","type":"bool","internalType":"bool"},{"name":"_max","type":"uint256","internalType":"uint256"}],"outputs":[],"stateMutability":"nonpayable"},{"type":"function","name":"withdraw","inputs":[{"name":"to","type":"address","internalType":"address"},{"name":"amount","type":"uint256","internalType":"uint256"}],"outputs":[],"stateMutability":"payable"}],"bytecode":{"object":"0x60806040523480156200001157600080fd5b5062000031739b3d18024fd51961230ef88d6a43babdf0f5e8d662000037565b620006d0565b6000546001600160a01b0316156200008a5760405162461bcd60e51b81526020600482015260126024820152711bdddb8b9a195e18985cd94b99985a5b195960721b604482015260640160405180910390fd5b600c8054326001600160a01b031991821617909155600080549091166001600160a01b038316179055620000bd620000c0565b50565b6000546001600160a01b0316620000d357565b60008054906101000a90046001600160a01b03166001600160a01b0316634162169f6040518163ffffffff1660e01b8152600401602060405180830381865afa15801562000125573d6000803e3d6000fd5b505050506040513d601f19601f820116820180604052508101906200014b91906200069e565b600180546001600160a01b0319166001600160a01b0392831617905560005460408051635abedee360e11b81529051919092169163b57dbdc69160048083019260209291908290030181865afa158015620001aa573d6000803e3d6000fd5b505050506040513d601f19601f82011682018060405250810190620001d091906200069e565b600280546001600160a01b0319166001600160a01b039283161790556000546040805163cfbffe5360e01b81529051919092169163cfbffe539160048083019260209291908290030181865afa1580156200022f573d6000803e3d6000fd5b505050506040513d601f19601f820116820180604052508101906200025591906200069e565b600380546001600160a01b0319166001600160a01b039283161790556000546040805163ab6e844f60e01b81529051919092169163ab6e844f9160048083019260209291908290030181865afa158015620002b4573d6000803e3d6000fd5b505050506040513d601f19601f82011682018060405250810190620002da91906200069e565b600480546001600160a01b0319166001600160a01b0392831617815560005460408051639a7c407760e01b815290519190931692639a7c407792818101926020929091908290030181865afa15801562000338573d6000803e3d6000fd5b505050506040513d601f19601f820116820180604052508101906200035e91906200069e565b600580546001600160a01b0319166001600160a01b0392831617905560005460408051635506ee0b60e11b81529051919092169163aa0ddc169160048083019260209291908290030181865afa158015620003bd573d6000803e3d6000fd5b505050506040513d601f19601f82011682018060405250810190620003e391906200069e565b600780546001600160a01b0319166001600160a01b03928316179055600054604080516335a577e360e11b815290519190921691636b4aefc69160048083019260209291908290030181865afa15801562000442573d6000803e3d6000fd5b505050506040513d601f19601f820116820180604052508101906200046891906200069e565b600880546001600160a01b0319166001600160a01b03928316179055600054604080516324768d9160e01b8152905191909216916324768d919160048083019260209291908290030181865afa158015620004c7573d6000803e3d6000fd5b505050506040513d601f19601f82011682018060405250810190620004ed91906200069e565b600b80546001600160a01b0319166001600160a01b0392831617905560005460408051636402742760e01b81529051919092169163640274279160048083019260209291908290030181865afa1580156200054c573d6000803e3d6000fd5b505050506040513d601f19601f820116820180604052508101906200057291906200069e565b600980546001600160a01b0319166001600160a01b03928316179055600054604080516330125cf560e01b8152905191909216916330125cf59160048083019260209291908290030181865afa158015620005d1573d6000803e3d6000fd5b505050506040513d601f19601f82011682018060405250810190620005f791906200069e565b600a80546001600160a01b0319166001600160a01b03928316179055600054604080516369e8d84b60e11b81529051919092169163d3d1b0969160048083019260209291908290030181865afa15801562000656573d6000803e3d6000fd5b505050506040513d601f19601f820116820180604052508101906200067c91906200069e565b600680546001600160a01b0319166001600160a01b0392909216919091179055565b600060208284031215620006b157600080fd5b81516001600160a01b0381168114620006c957600080fd5b9392505050565b612ab180620006e06000396000f3fe6080604052600436106101385760003560e01c80637fdd2b62116100b0578063c9ce1e281161006c578063c9ce1e2814610433578063cbf0b0c014610453578063d77de15814610473578063da9fc926146104ac578063ee53a046146104cc578063f3fef3a3146104df57005b80637fdd2b62146103605780638da5cb5b146103805780639e380c7c1461039e578063abb8c965146103eb578063b90306ad1461040b578063c73fddeb1461041e57005b8063379a423c116100ff578063379a423c1461025d5780633b844f9b1461028d57806341ffe7c4146102c857806360af454d146102e85780636d24b80714610308578063760f8ea81461034057005b80630b98f975146101415780630d43aaf21461016157806312065fe0146101ea5780631bff6840146102055780632a31f6b41461023d57005b3661013f57005b005b34801561014d57600080fd5b5061013f61015c366004612664565b6104f2565b34801561016d57600080fd5b50600d546101ab906001600160a01b0381169060ff600160a01b8204811691600160a81b8104821691600160b01b8204811691600160b81b90041685565b604080516001600160a01b03909616865293151560208601529115159284019290925290151560608301521515608082015260a0015b60405180910390f35b3480156101f657600080fd5b506040514781526020016101e1565b34801561021157600080fd5b50600f54610225906001600160a01b031681565b6040516001600160a01b0390911681526020016101e1565b61025061024b366004612692565b61068c565b6040516101e1919061273b565b34801561026957600080fd5b5061027d61027836600461276e565b6107dd565b60405190151581526020016101e1565b34801561029957600080fd5b506102ad6102a8366004612664565b61086a565b604080519384526020840192909252908201526060016101e1565b3480156102d457600080fd5b5061013f6102e336600461276e565b6108e9565b3480156102f457600080fd5b5061013f61030336600461276e565b610ba0565b34801561031457600080fd5b50600e54600f546001600160a01b03918216319116315b604080519283526020830191909152016101e1565b34801561034c57600080fd5b5061013f61035b36600461276e565b610c22565b34801561036c57600080fd5b5061013f61037b3660046127a0565b610e3f565b34801561038c57600080fd5b50600c546001600160a01b0316610225565b3480156103aa57600080fd5b506103b3611039565b604080519687526020870195909552938501929092526001600160a01b031660608401526080830152151560a082015260c0016101e1565b3480156103f757600080fd5b5061013f6104063660046127cc565b6110cc565b61013f610419366004612664565b6114a6565b34801561042a57600080fd5b5061032b611590565b34801561043f57600080fd5b50600e54610225906001600160a01b031681565b34801561045f57600080fd5b5061013f61046e36600461276e565b611606565b34801561047f57600080fd5b5061048861160f565b6040805193845260208401929092526001600160a01b0316908201526060016101e1565b3480156104b857600080fd5b506102256104c7366004612664565b611693565b61013f6104da366004612805565b611701565b61013f6104ed366004612849565b6117a6565b600260009054906101000a90046001600160a01b03166001600160a01b0316636a276f9d6040518163ffffffff1660e01b8152600401602060405180830381865afa158015610545573d6000803e3d6000fd5b505050506040513d601f19601f820116820180604052508101906105699190612867565b61058e5760405162461bcd60e51b815260040161058590612884565b60405180910390fd5b6002546040516319c0642960e01b81523360048201526001600160a01b03909116906319c0642990602401602060405180830381865afa1580156105d6573d6000803e3d6000fd5b505050506040513d601f19601f820116820180604052508101906105fa9190612867565b8061060f57506001546001600160a01b031633145b61062b5760405162461bcd60e51b8152600401610585906128b0565b600f546040516390fb00e760e01b8152600481018390526001600160a01b03909116906390fb00e790602401600060405180830381600087803b15801561067157600080fd5b505af1158015610685573d6000803e3d6000fd5b5050505050565b600f546060906001600160a01b031633146106de5760405162461bcd60e51b815260206004820152601260248201527134b7399734b73b30b634b21739b2b73232b960711b6044820152606401610585565b6001600160a01b0384166107295760405162461bcd60e51b81526020600482015260126024820152711a5b9ccb9a5b9d985b1a590b9d185c99d95d60721b6044820152606401610585565b600080856001600160a01b03163486866040516107479291906128d9565b60006040518083038185875af1925050503d8060008114610784576040519150601f19603f3d011682016040523d82523d6000602084013e610789565b606091505b5091509150816107d45760405162461bcd60e51b81526020600482015260166024820152751a5b9ccb9d185c99d95d0b98d85b1b0b99985a5b195960521b6044820152606401610585565b95945050505050565b6002546040516319c0642960e01b81526001600160a01b03838116600483015260009216906319c0642990602401602060405180830381865afa158015610828573d6000803e3d6000fd5b505050506040513d601f19601f8201168201806040525081019061084c9190612867565b806108645750600c546001600160a01b038381169116145b92915050565b600f54604051637e5c893760e01b815260048101839052600091829182916001600160a01b031690637e5c893790602401606060405180830381865afa1580156108b8573d6000803e3d6000fd5b505050506040513d601f19601f820116820180604052508101906108dc91906128e9565b9250925092509193909250565b600260009054906101000a90046001600160a01b03166001600160a01b0316636a276f9d6040518163ffffffff1660e01b8152600401602060405180830381865afa15801561093c573d6000803e3d6000fd5b505050506040513d601f19601f820116820180604052508101906109609190612867565b61097c5760405162461bcd60e51b815260040161058590612884565b6001546001600160a01b03163314806109fc5750600254604051637df73e2760e01b81523360048201526001600160a01b0390911690637df73e2790602401602060405180830381865afa1580156109d8573d6000803e3d6000fd5b505050506040513d601f19601f820116820180604052508101906109fc9190612867565b610a3d5760405162461bcd60e51b81526020600482015260126024820152716f776d2e66616b652e2064656c656761746560701b6044820152606401610585565b6002546040516307612f9160e21b81523360048201526000916001600160a01b031690631d84be4490602401602060405180830381865afa158015610a86573d6000803e3d6000fd5b505050506040513d601f19601f82011682018060405250810190610aaa9190612917565b9050610add6040805160a08101825260008082526020820181905291810182905260608101829052608081019190915290565b600160208201819052829003610af557600160408201525b81600203610b0557600160608201525b81600303610b1557600160808201525b6001600160a01b03909216808352600d80546020850151604086015160608701516080909701511515600160b81b0260ff60b81b19971515600160b01b0260ff60b01b19921515600160a81b029290921661ffff60a81b19931515600160a01b026001600160a81b031990951690961793909317919091169390931792909217939093161790915550565b6000546001600160a01b031615610bee5760405162461bcd60e51b81526020600482015260126024820152711bdddb8b9a195e18985cd94b99985a5b195960721b6044820152606401610585565b600c8054326001600160a01b031991821617909155600080549091166001600160a01b038316179055610c1f61192a565b50565b600260009054906101000a90046001600160a01b03166001600160a01b0316636a276f9d6040518163ffffffff1660e01b8152600401602060405180830381865afa158015610c75573d6000803e3d6000fd5b505050506040513d601f19601f82011682018060405250810190610c999190612867565b610cb55760405162461bcd60e51b815260040161058590612884565b6002546040516319c0642960e01b81523360048201526001600160a01b03909116906319c0642990602401602060405180830381865afa158015610cfd573d6000803e3d6000fd5b505050506040513d601f19601f82011682018060405250810190610d219190612867565b80610d3657506001546001600160a01b031633145b610d525760405162461bcd60e51b8152600401610585906128b0565b60048054600c546040516307a8f22d60e21b81526001600160a01b039182169381019390935283811660248401521690631ea3c8b490604401600060405180830381600087803b158015610da557600080fd5b505af1158015610db9573d6000803e3d6000fd5b5050600f54604051635ed38d6d60e11b81526001600160a01b038581166004830152909116925063bda71ada9150602401600060405180830381600087803b158015610e0457600080fd5b505af1158015610e18573d6000803e3d6000fd5b5050600c80546001600160a01b0319166001600160a01b0394909416939093179092555050565b600260009054906101000a90046001600160a01b03166001600160a01b0316636a276f9d6040518163ffffffff1660e01b8152600401602060405180830381865afa158015610e92573d6000803e3d6000fd5b505050506040513d601f19601f82011682018060405250810190610eb69190612867565b610ed25760405162461bcd60e51b815260040161058590612884565b6002546040516319c0642960e01b81523360048201526001600160a01b03909116906319c0642990602401602060405180830381865afa158015610f1a573d6000803e3d6000fd5b505050506040513d601f19601f82011682018060405250810190610f3e9190612867565b80610f5357506001546001600160a01b031633145b610f6f5760405162461bcd60e51b8152600401610585906128b0565b600f5460405163e995b63f60e01b81528315156004820152602481018390526001600160a01b039091169063e995b63f90604401600060405180830381600087803b158015610fbd57600080fd5b505af1158015610fd1573d6000803e3d6000fd5b50506004805460405163641657cb60e01b8152861515928101929092526001600160a01b0316925063641657cb9150602401600060405180830381600087803b15801561101d57600080fd5b505af1158015611031573d6000803e3d6000fd5b505050505050565b600080600080600080600f60009054906101000a90046001600160a01b03166001600160a01b031663e658ebd66040518163ffffffff1660e01b815260040160c060405180830381865afa158015611095573d6000803e3d6000fd5b505050506040513d601f19601f820116820180604052508101906110b99190612930565b949b939a50919850965094509092509050565b600260009054906101000a90046001600160a01b03166001600160a01b0316636a276f9d6040518163ffffffff1660e01b8152600401602060405180830381865afa15801561111f573d6000803e3d6000fd5b505050506040513d601f19601f820116820180604052508101906111439190612867565b61115f5760405162461bcd60e51b815260040161058590612884565b6001546001600160a01b03163314806111df5750600254604051637df73e2760e01b81523360048201526001600160a01b0390911690637df73e2790602401602060405180830381865afa1580156111bb573d6000803e3d6000fd5b505050506040513d601f19601f820116820180604052508101906111df9190612867565b6112205760405162461bcd60e51b81526020600482015260126024820152716f776d2e66616b652e2064656c656761746560701b6044820152606401610585565b801561146a576002546040516307612f9160e21b81523360048201526000916001600160a01b031690631d84be4490602401602060405180830381865afa15801561126f573d6000803e3d6000fd5b505050506040513d601f19601f820116820180604052508101906112939190612917565b600d54909150600160a01b900460ff1680156112af5750806001145b80156112c85750600d546001600160a01b038481169116145b156112e157600d805460ff60a81b1916600160a81b1790555b600d54600160a01b900460ff1680156112fa5750806002145b80156113135750600d546001600160a01b038481169116145b1561132c57600d805460ff60b01b1916600160b01b1790555b600d54600160a01b900460ff1680156113455750806003145b801561135e5750600d546001600160a01b038481169116145b1561137757600d805460ff60b81b1916600160b81b1790555b600d54600090600160a81b900460ff161561139a57806113968161298f565b9150505b600d54600160b01b900460ff16156113ba57806113b68161298f565b9150505b600d54600160b81b900460ff16156113da57806113d68161298f565b9150505b600d54600160a01b900460ff1680156113f35750806002145b801561140c5750600d546001600160a01b038581169116145b1561146457600c80546001600160a01b0319166001600160a01b0386161790556040805160a0810182526000808252602082018190529181018290526060810182905260800152600d80546001600160c01b03191690555b50505050565b6040805160a0810182526000808252602082018190529181018290526060810182905260800152600d80546001600160c01b03191690555b5050565b600260009054906101000a90046001600160a01b03166001600160a01b0316636a276f9d6040518163ffffffff1660e01b8152600401602060405180830381865afa1580156114f9573d6000803e3d6000fd5b505050506040513d601f19601f8201168201806040525081019061151d9190612867565b6115395760405162461bcd60e51b815260040161058590612884565b6001546001600160a01b031633146115635760405162461bcd60e51b8152600401610585906128b0565b60405160009082156108fc0290839083818181858288f193505050501580156114a2573d6000803e3d6000fd5b600f5460408051632b17219760e01b8152815160009384936001600160a01b0390911692632b17219792600480830193928290030181865afa1580156115da573d6000803e3d6000fd5b505050506040513d601f19601f820116820180604052508101906115fe91906129b6565b915091509091565b610c1f81611ee6565b6000806000600f60009054906101000a90046001600160a01b03166001600160a01b0316637d5886ad6040518163ffffffff1660e01b8152600401606060405180830381865afa158015611667573d6000803e3d6000fd5b505050506040513d601f19601f8201168201806040525081019061168b91906129da565b505050909192565b600f5460405163946894e560e01b8152600481018390526000916001600160a01b03169063946894e590602401602060405180830381865afa1580156116dd573d6000803e3d6000fd5b505050506040513d601f19601f820116820180604052508101906108649190612a13565b60c88110610685578060c8036117245761171a85612016565b945061172461226c565b600f54604051631587ca5960e31b81526001600160a01b038781166004830152602482018790526044820186905260648201859052608482018490529091169063ac3e52c890349060a4016000604051808303818588803b15801561178857600080fd5b505af115801561179c573d6000803e3d6000fd5b5050505050610685565b816001600160a01b0381166117f25760405162461bcd60e51b815260206004820152601260248201527137bbb7173232b330bab63a1739b2b73232b960711b6044820152606401610585565b600260009054906101000a90046001600160a01b03166001600160a01b0316636a276f9d6040518163ffffffff1660e01b8152600401602060405180830381865afa158015611845573d6000803e3d6000fd5b505050506040513d601f19601f820116820180604052508101906118699190612867565b6118855760405162461bcd60e51b815260040161058590612884565b6001546001600160a01b031633146118af5760405162461bcd60e51b8152600401610585906128b0565b600082116118f45760405162461bcd60e51b81526020600482015260126024820152711bdddb8b9a5b9d985b1a590b985b5bdd5b9d60721b6044820152606401610585565b6040516001600160a01b0384169083156108fc029084906000818181858888f19350505050158015611464573d6000803e3d6000fd5b6000546001600160a01b031661193c57565b60008054906101000a90046001600160a01b03166001600160a01b0316634162169f6040518163ffffffff1660e01b8152600401602060405180830381865afa15801561198d573d6000803e3d6000fd5b505050506040513d601f19601f820116820180604052508101906119b19190612a13565b600180546001600160a01b0319166001600160a01b0392831617905560005460408051635abedee360e11b81529051919092169163b57dbdc69160048083019260209291908290030181865afa158015611a0f573d6000803e3d6000fd5b505050506040513d601f19601f82011682018060405250810190611a339190612a13565b600280546001600160a01b0319166001600160a01b039283161790556000546040805163cfbffe5360e01b81529051919092169163cfbffe539160048083019260209291908290030181865afa158015611a91573d6000803e3d6000fd5b505050506040513d601f19601f82011682018060405250810190611ab59190612a13565b600380546001600160a01b0319166001600160a01b039283161790556000546040805163ab6e844f60e01b81529051919092169163ab6e844f9160048083019260209291908290030181865afa158015611b13573d6000803e3d6000fd5b505050506040513d601f19601f82011682018060405250810190611b379190612a13565b600480546001600160a01b0319166001600160a01b0392831617815560005460408051639a7c407760e01b815290519190931692639a7c407792818101926020929091908290030181865afa158015611b94573d6000803e3d6000fd5b505050506040513d601f19601f82011682018060405250810190611bb89190612a13565b600580546001600160a01b0319166001600160a01b0392831617905560005460408051635506ee0b60e11b81529051919092169163aa0ddc169160048083019260209291908290030181865afa158015611c16573d6000803e3d6000fd5b505050506040513d601f19601f82011682018060405250810190611c3a9190612a13565b600780546001600160a01b0319166001600160a01b03928316179055600054604080516335a577e360e11b815290519190921691636b4aefc69160048083019260209291908290030181865afa158015611c98573d6000803e3d6000fd5b505050506040513d601f19601f82011682018060405250810190611cbc9190612a13565b600880546001600160a01b0319166001600160a01b03928316179055600054604080516324768d9160e01b8152905191909216916324768d919160048083019260209291908290030181865afa158015611d1a573d6000803e3d6000fd5b505050506040513d601f19601f82011682018060405250810190611d3e9190612a13565b600b80546001600160a01b0319166001600160a01b0392831617905560005460408051636402742760e01b81529051919092169163640274279160048083019260209291908290030181865afa158015611d9c573d6000803e3d6000fd5b505050506040513d601f19601f82011682018060405250810190611dc09190612a13565b600980546001600160a01b0319166001600160a01b03928316179055600054604080516330125cf560e01b8152905191909216916330125cf59160048083019260209291908290030181865afa158015611e1e573d6000803e3d6000fd5b505050506040513d601f19601f82011682018060405250810190611e429190612a13565b600a80546001600160a01b0319166001600160a01b03928316179055600054604080516369e8d84b60e11b81529051919092169163d3d1b0969160048083019260209291908290030181865afa158015611ea0573d6000803e3d6000fd5b505050506040513d601f19601f82011682018060405250810190611ec49190612a13565b600680546001600160a01b0319166001600160a01b0392909216919091179055565b600260009054906101000a90046001600160a01b03166001600160a01b0316636a276f9d6040518163ffffffff1660e01b8152600401602060405180830381865afa158015611f39573d6000803e3d6000fd5b505050506040513d601f19601f82011682018060405250810190611f5d9190612867565b611f795760405162461bcd60e51b815260040161058590612884565b6002546040516319c0642960e01b81523360048201526001600160a01b03909116906319c0642990602401602060405180830381865afa158015611fc1573d6000803e3d6000fd5b505050506040513d601f19601f82011682018060405250810190611fe59190612867565b80611ffa57506001546001600160a01b031633145b610c1f5760405162461bcd60e51b8152600401610585906128b0565b601080546001600160a01b0319166001600160a01b0383169081179091556000906120bb5760048054600c54604051635427923360e01b81526001600160a01b03918216938101939093526001602484015216906354279233906044016020604051808303816000875af1158015612092573d6000803e3d6000fd5b505050506040513d601f19601f820116820180604052508101906120b69190612917565b505090565b60006120c561235c565b905061219560008054906101000a90046001600160a01b03166001600160a01b031663447bf0e26040518163ffffffff1660e01b8152600401602060405180830381865afa15801561211b573d6000803e3d6000fd5b505050506040513d601f19601f8201168201806040525081019061213f9190612a13565b604080518082018252601381527255736572546f496e737428616464726573732960681b602080830191909152600c5483516001600160a01b0390911681830152835180820390920182528301909252906123cf565b92506001600160a01b038316156121e157604080518082018252600681526563616765282960d01b6020808301919091528251600081529081019092526121de91859190612416565b90505b60048054601054600c5460405163e4a312d160e01b81526001600160a01b03928316948101949094528116602484015260448301849052169063e4a312d1906064016020604051808303816000875af1158015612242573d6000803e3d6000fd5b505050506040513d601f19601f820116820180604052508101906122669190612917565b50505090565b60005460408051631f09f74360e21b815290516122e2926001600160a01b031691637c27dd0c9160048083019260209291908290030181865afa1580156122b7573d6000803e3d6000fd5b505050506040513d601f19601f820116820180604052508101906122db9190612a13565b6000612451565b600f80546001600160a01b0319166001600160a01b0392831690811790915560005460105460405163463ef7c760e01b8152918416600483015290921660248301529063463ef7c790604401600060405180830381600087803b15801561234857600080fd5b505af1158015611464573d6000803e3d6000fd5b6002546040805163262a9dff60e01b815290516000926001600160a01b03169163262a9dff9160048083019260209291908290030181865afa1580156123a6573d6000803e3d6000fd5b505050506040513d601f19601f820116820180604052508101906123ca9190612917565b905090565b60008060006123df868686612562565b915091508180156123f1575080516020145b1561240d578080602001905181019061240a9190612a13565b92505b50509392505050565b6000806000612426868686612562565b91509150818015612438575080516020145b1561240d578080602001905181019061240a9190612917565b6000814710156124c95760405162461bcd60e51b815260206004820152603860248201527f4572726f72732e496e73756666696369656e7442616c616e636528616464726560448201527f73732874686973292e62616c616e63652c2076616c75652900000000000000006064820152608401610585565b763d602d80600a3d3981f3363d3d373d3d3d363d730000008360601b60e81c176000526e5af43d82803e903d91602b57fd5bf38360781b176020526037600983f090506001600160a01b0381166108645760405162461bcd60e51b815260206004820152601e60248201527f696e732e436c6f6e65466163746f72792e6372656174652e6661696c656400006044820152606401610585565b60006060846001600160a01b03163b600003612590575050604080516020810190915260008082529061265c565b604080516004815260248101918290526000916125ae908790612a30565b60405180910390206001600160e01b0319166020820180516001600160e01b038381831617835250505050846040516020016125eb929190612a4c565b6040516020818303038152906040529050856001600160a01b0316816040516126149190612a30565b600060405180830381855afa9150503d806000811461264f576040519150601f19603f3d011682016040523d82523d6000602084013e612654565b606091505b509093509150505b935093915050565b60006020828403121561267657600080fd5b5035919050565b6001600160a01b0381168114610c1f57600080fd5b6000806000604084860312156126a757600080fd5b83356126b28161267d565b9250602084013567ffffffffffffffff808211156126cf57600080fd5b818601915086601f8301126126e357600080fd5b8135818111156126f257600080fd5b87602082850101111561270457600080fd5b6020830194508093505050509250925092565b60005b8381101561273257818101518382015260200161271a565b50506000910152565b602081526000825180602084015261275a816040850160208701612717565b601f01601f19169190910160400192915050565b60006020828403121561278057600080fd5b813561278b8161267d565b9392505050565b8015158114610c1f57600080fd5b600080604083850312156127b357600080fd5b82356127be81612792565b946020939093013593505050565b600080604083850312156127df57600080fd5b82356127ea8161267d565b915060208301356127fa81612792565b809150509250929050565b600080600080600060a0868803121561281d57600080fd5b85356128288161267d565b97602087013597506040870135966060810135965060800135945092505050565b6000806040838503121561285c57600080fd5b82356127be8161267d565b60006020828403121561287957600080fd5b815161278b81612792565b6020808252601290820152716f776e2e696e76616c69642e69735361666560701b604082015260600190565b6020808252600f908201526e6f776e2e6e6f6e617574682e44414f60881b604082015260600190565b8183823760009101908152919050565b6000806000606084860312156128fe57600080fd5b8351925060208401519150604084015190509250925092565b60006020828403121561292957600080fd5b5051919050565b60008060008060008060c0878903121561294957600080fd5b86519550602087015194506040870151935060608701516129698161267d565b608088015160a0890151919450925061298181612792565b809150509295509295509295565b6000600182016129af57634e487b7160e01b600052601160045260246000fd5b5060010190565b600080604083850312156129c957600080fd5b505080516020909101519092909150565b6000806000606084860312156129ef57600080fd5b83519250602084015191506040840151612a088161267d565b809150509250925092565b600060208284031215612a2557600080fd5b815161278b8161267d565b60008251612a42818460208701612717565b9190910192915050565b60008351612a5e818460208801612717565b835190830190612a72818360208801612717565b0194935050505056fea26469706673582212204f3de9e54a7497f4faf3f8e31523544755162f87b3cd773bb7e660f8a49d3f3b64736f6c63430008140033","linkReferences":{}},"methodIdentifiers":{"Burn(uint256)":"b90306ad","Txn(address,uint256,uint256,uint256,uint256)":"ee53a046","_setOwner(address,bool)":"abb8c965","_setReq(address)":"41ffe7c4","getBackendBal()":"6d24b807","getBalance()":"12065fe0","getMint(uint256)":"da9fc926","getNodeLBPrime()":"c73fddeb","getdetail1()":"9e380c7c","getdetail2()":"d77de158","ibk()":"c9ce1e28","ibkprm()":"1bff6840","isOwnerOrSafeOwner(address)":"379a423c","kill(address)":"cbf0b0c0","own_reinit(address)":"60af454d","owner()":"8da5cb5b","primeIncomeInfo(uint256)":"3b844f9b","proxyCall(address,bytes)":"2a31f6b4","req()":"0d43aaf2","resetuser(address)":"760f8ea8","setBonus(uint256)":"0b98f975","stopNode(bool,uint256)":"7fdd2b62","withdraw(address,uint256)":"f3fef3a3"},"id":0}