{"abi":[{"type":"constructor","inputs":[{"name":"_contractName","type":"string","internalType":"string"},{"name":"baseURI_","type":"string","internalType":"string"},{"name":"_supply","type":"uint256","internalType":"uint256"},{"name":"_names","type":"string[]","internalType":"string[]"},{"name":"_hex","type":"address","internalType":"address"}],"stateMutability":"nonpayable"},{"type":"fallback","stateMutability":"payable"},{"type":"receive","stateMutability":"payable"},{"type":"function","name":"Burn","inputs":[{"name":"amount","type":"uint256","internalType":"uint256"}],"outputs":[],"stateMutability":"nonpayable"},{"type":"function","name":"_delegatorCount","inputs":[],"outputs":[{"name":"","type":"uint256","internalType":"uint256"}],"stateMutability":"view"},{"type":"function","name":"_getImplementation","inputs":[{"name":"clone","type":"address","internalType":"address"}],"outputs":[{"name":"impl","type":"address","internalType":"address"}],"stateMutability":"view"},{"type":"function","name":"_isDelegatorNode","inputs":[{"name":"sender","type":"address","internalType":"address"}],"outputs":[{"name":"","type":"bool","internalType":"bool"}],"stateMutability":"view"},{"type":"function","name":"_isSafe","inputs":[],"outputs":[{"name":"","type":"bool","internalType":"bool"}],"stateMutability":"view"},{"type":"function","name":"_isSecureBase","inputs":[{"name":"sender","type":"address","internalType":"address"}],"outputs":[{"name":"","type":"bool","internalType":"bool"}],"stateMutability":"view"},{"type":"function","name":"_isSigner","inputs":[{"name":"sender","type":"address","internalType":"address"}],"outputs":[{"name":"","type":"bool","internalType":"bool"}],"stateMutability":"view"},{"type":"function","name":"_uri","inputs":[],"outputs":[{"name":"","type":"string","internalType":"string"}],"stateMutability":"view"},{"type":"function","name":"addToken","inputs":[{"name":"_names","type":"string[]","internalType":"string[]"}],"outputs":[],"stateMutability":"nonpayable"},{"type":"function","name":"balanceOf","inputs":[{"name":"account","type":"address","internalType":"address"},{"name":"id","type":"uint256","internalType":"uint256"}],"outputs":[{"name":"","type":"uint256","internalType":"uint256"}],"stateMutability":"view"},{"type":"function","name":"balanceOfBatch","inputs":[{"name":"accounts","type":"address[]","internalType":"address[]"},{"name":"ids","type":"uint256[]","internalType":"uint256[]"}],"outputs":[{"name":"","type":"uint256[]","internalType":"uint256[]"}],"stateMutability":"view"},{"type":"function","name":"claimed","inputs":[],"outputs":[{"name":"","type":"uint256","internalType":"uint256"}],"stateMutability":"view"},{"type":"function","name":"clonedOf","inputs":[],"outputs":[{"name":"","type":"address","internalType":"address"}],"stateMutability":"view"},{"type":"function","name":"curSupply","inputs":[],"outputs":[{"name":"","type":"uint256","internalType":"uint256"}],"stateMutability":"view"},{"type":"function","name":"getBalance","inputs":[],"outputs":[{"name":"","type":"uint256","internalType":"uint256"}],"stateMutability":"view"},{"type":"function","name":"getHexbase","inputs":[],"outputs":[{"name":"","type":"address","internalType":"address"}],"stateMutability":"view"},{"type":"function","name":"getNames","inputs":[{"name":"inx","type":"uint256","internalType":"uint256"}],"outputs":[{"name":"","type":"string","internalType":"string"}],"stateMutability":"view"},{"type":"function","name":"getTokenCount","inputs":[],"outputs":[{"name":"","type":"uint256","internalType":"uint256"}],"stateMutability":"view"},{"type":"function","name":"getUnlockedNFT","inputs":[],"outputs":[{"name":"_NFT","type":"uint256","internalType":"uint256"}],"stateMutability":"view"},{"type":"function","name":"ids","inputs":[{"name":"","type":"uint256","internalType":"uint256"}],"outputs":[{"name":"","type":"uint256","internalType":"uint256"}],"stateMutability":"view"},{"type":"function","name":"isApprovedForAll","inputs":[{"name":"account","type":"address","internalType":"address"},{"name":"operator","type":"address","internalType":"address"}],"outputs":[{"name":"","type":"bool","internalType":"bool"}],"stateMutability":"view"},{"type":"function","name":"isSecuredNFT","inputs":[{"name":"orc1155","type":"address","internalType":"address"}],"outputs":[{"name":"","type":"bool","internalType":"bool"}],"stateMutability":"view"},{"type":"function","name":"lastTransferDay","inputs":[],"outputs":[{"name":"","type":"uint256","internalType":"uint256"}],"stateMutability":"view"},{"type":"function","name":"mintedAge","inputs":[],"outputs":[{"name":"","type":"uint256","internalType":"uint256"}],"stateMutability":"view"},{"type":"function","name":"mintedUser","inputs":[],"outputs":[{"name":"","type":"address","internalType":"address"}],"stateMutability":"view"},{"type":"function","name":"mintedfee","inputs":[],"outputs":[{"name":"","type":"uint256","internalType":"uint256"}],"stateMutability":"view"},{"type":"function","name":"mintedqty","inputs":[],"outputs":[{"name":"","type":"uint256","internalType":"uint256"}],"stateMutability":"view"},{"type":"function","name":"name","inputs":[],"outputs":[{"name":"","type":"string","internalType":"string"}],"stateMutability":"view"},{"type":"function","name":"names","inputs":[{"name":"","type":"uint256","internalType":"uint256"}],"outputs":[{"name":"","type":"string","internalType":"string"}],"stateMutability":"view"},{"type":"function","name":"onTokenImport","inputs":[{"name":"_to","type":"address","internalType":"address"},{"name":"payload","type":"bytes","internalType":"bytes"}],"outputs":[],"stateMutability":"nonpayable"},{"type":"function","name":"onTokenTransfer","inputs":[{"name":"_from","type":"address","internalType":"address"},{"name":"_to","type":"address","internalType":"address"},{"name":"_id","type":"uint256","internalType":"uint256"},{"name":"_qty","type":"uint256","internalType":"uint256"},{"name":"_byforce","type":"bool","internalType":"bool"},{"name":"payload","type":"bytes","internalType":"bytes"}],"outputs":[],"stateMutability":"nonpayable"},{"type":"function","name":"owner","inputs":[],"outputs":[{"name":"","type":"address","internalType":"address"}],"stateMutability":"view"},{"type":"function","name":"postinit","inputs":[{"name":"_contractName","type":"string","internalType":"string"},{"name":"baseURI_","type":"string","internalType":"string"},{"name":"_nName","type":"string","internalType":"string"},{"name":"_nid","type":"uint256","internalType":"uint256"},{"name":"_account","type":"address","internalType":"address"},{"name":"_qty","type":"uint256","internalType":"uint256"},{"name":"_fee","type":"uint256","internalType":"uint256"},{"name":"_ag","type":"uint256","internalType":"uint256"},{"name":"_hex","type":"address","internalType":"address"}],"outputs":[],"stateMutability":"payable"},{"type":"function","name":"preinit","inputs":[{"name":"_account","type":"address","internalType":"address"},{"name":"_id","type":"uint256","internalType":"uint256"},{"name":"_qty","type":"uint256","internalType":"uint256"},{"name":"_fee","type":"uint256","internalType":"uint256"},{"name":"_ag","type":"uint256","internalType":"uint256"}],"outputs":[{"name":"","type":"address","internalType":"address"}],"stateMutability":"payable"},{"type":"function","name":"safeBatchTransferFrom","inputs":[{"name":"from","type":"address","internalType":"address"},{"name":"to","type":"address","internalType":"address"},{"name":"ids","type":"uint256[]","internalType":"uint256[]"},{"name":"values","type":"uint256[]","internalType":"uint256[]"},{"name":"data","type":"bytes","internalType":"bytes"}],"outputs":[],"stateMutability":"nonpayable"},{"type":"function","name":"safeTransferFrom","inputs":[{"name":"from","type":"address","internalType":"address"},{"name":"to","type":"address","internalType":"address"},{"name":"id","type":"uint256","internalType":"uint256"},{"name":"value","type":"uint256","internalType":"uint256"},{"name":"data","type":"bytes","internalType":"bytes"}],"outputs":[],"stateMutability":"nonpayable"},{"type":"function","name":"setApprovalForAll","inputs":[{"name":"operator","type":"address","internalType":"address"},{"name":"approved","type":"bool","internalType":"bool"}],"outputs":[],"stateMutability":"nonpayable"},{"type":"function","name":"setBase","inputs":[{"name":"_f","type":"address","internalType":"address"}],"outputs":[],"stateMutability":"nonpayable"},{"type":"function","name":"setURI","inputs":[{"name":"newuri","type":"string","internalType":"string"}],"outputs":[],"stateMutability":"nonpayable"},{"type":"function","name":"setcurSupply","inputs":[{"name":"_s","type":"uint256","internalType":"uint256"}],"outputs":[],"stateMutability":"nonpayable"},{"type":"function","name":"setsupply","inputs":[{"name":"_s","type":"uint256","internalType":"uint256"}],"outputs":[],"stateMutability":"nonpayable"},{"type":"function","name":"supportsInterface","inputs":[{"name":"interfaceId","type":"bytes4","internalType":"bytes4"}],"outputs":[{"name":"","type":"bool","internalType":"bool"}],"stateMutability":"view"},{"type":"function","name":"syncBaseAddr","inputs":[],"outputs":[],"stateMutability":"nonpayable"},{"type":"function","name":"systemAge","inputs":[],"outputs":[{"name":"","type":"uint256","internalType":"uint256"}],"stateMutability":"view"},{"type":"function","name":"totSupply","inputs":[],"outputs":[{"name":"","type":"uint256","internalType":"uint256"}],"stateMutability":"view"},{"type":"function","name":"totalNFTSent","inputs":[],"outputs":[{"name":"","type":"uint256","internalType":"uint256"}],"stateMutability":"view"},{"type":"function","name":"uri","inputs":[{"name":"_tokenid","type":"uint256","internalType":"uint256"}],"outputs":[{"name":"","type":"string","internalType":"string"}],"stateMutability":"view"},{"type":"event","name":"ApprovalForAll","inputs":[{"name":"account","type":"address","indexed":true,"internalType":"address"},{"name":"operator","type":"address","indexed":true,"internalType":"address"},{"name":"approved","type":"bool","indexed":false,"internalType":"bool"}],"anonymous":false},{"type":"event","name":"EthBurned","inputs":[{"name":"sender","type":"address","indexed":true,"internalType":"address"},{"name":"amount","type":"uint256","indexed":false,"internalType":"uint256"}],"anonymous":false},{"type":"event","name":"EthTransferred","inputs":[{"name":"to","type":"address","indexed":true,"internalType":"address"},{"name":"amount","type":"uint256","indexed":false,"internalType":"uint256"}],"anonymous":false},{"type":"event","name":"HexBaseUpdated","inputs":[{"name":"previousHexBase","type":"address","indexed":true,"internalType":"address"},{"name":"newHexBase","type":"address","indexed":true,"internalType":"address"}],"anonymous":false},{"type":"event","name":"OwnerUpdated","inputs":[{"name":"previousOwner","type":"address","indexed":true,"internalType":"address"},{"name":"newOwner","type":"address","indexed":true,"internalType":"address"}],"anonymous":false},{"type":"event","name":"TransferBatch","inputs":[{"name":"operator","type":"address","indexed":true,"internalType":"address"},{"name":"from","type":"address","indexed":true,"internalType":"address"},{"name":"to","type":"address","indexed":true,"internalType":"address"},{"name":"ids","type":"uint256[]","indexed":false,"internalType":"uint256[]"},{"name":"values","type":"uint256[]","indexed":false,"internalType":"uint256[]"}],"anonymous":false},{"type":"event","name":"TransferSingle","inputs":[{"name":"operator","type":"address","indexed":true,"internalType":"address"},{"name":"from","type":"address","indexed":true,"internalType":"address"},{"name":"to","type":"address","indexed":true,"internalType":"address"},{"name":"id","type":"uint256","indexed":false,"internalType":"uint256"},{"name":"value","type":"uint256","indexed":false,"internalType":"uint256"}],"anonymous":false},{"type":"event","name":"URI","inputs":[{"name":"value","type":"string","indexed":false,"internalType":"string"},{"name":"id","type":"uint256","indexed":true,"internalType":"uint256"}],"anonymous":false},{"type":"error","name":"ERC1155InsufficientBalance","inputs":[{"name":"sender","type":"address","internalType":"address"},{"name":"balance","type":"uint256","internalType":"uint256"},{"name":"needed","type":"uint256","internalType":"uint256"},{"name":"tokenId","type":"uint256","internalType":"uint256"}]},{"type":"error","name":"ERC1155InvalidApprover","inputs":[{"name":"approver","type":"address","internalType":"address"}]},{"type":"error","name":"ERC1155InvalidArrayLength","inputs":[{"name":"idsLength","type":"uint256","internalType":"uint256"},{"name":"valuesLength","type":"uint256","internalType":"uint256"}]},{"type":"error","name":"ERC1155InvalidOperator","inputs":[{"name":"operator","type":"address","internalType":"address"}]},{"type":"error","name":"ERC1155InvalidReceiver","inputs":[{"name":"receiver","type":"address","internalType":"address"}]},{"type":"error","name":"ERC1155InvalidSender","inputs":[{"name":"sender","type":"address","internalType":"address"}]},{"type":"error","name":"ERC1155MissingApprovalForAll","inputs":[{"name":"operator","type":"address","internalType":"address"},{"name":"owner","type":"address","internalType":"address"}]},{"type":"error","name":"FailedDeployment","inputs":[]},{"type":"error","name":"InsufficientBalance","inputs":[{"name":"balance","type":"uint256","internalType":"uint256"},{"name":"needed","type":"uint256","internalType":"uint256"}]},{"type":"error","name":"InvalidAddress","inputs":[]},{"type":"error","name":"InvalidState","inputs":[]},{"type":"error","name":"NotAuthorized","inputs":[]},{"type":"error","name":"NotSafe","inputs":[]},{"type":"error","name":"ReentrancyGuardReentrantCall","inputs":[]},{"type":"error","name":"TargetCallFailed","inputs":[{"name":"selector","type":"bytes4","internalType":"bytes4"}]}],"bytecode":{"object":"0x608060405234620006575762004893803803806200001d8162000685565b92833981019060a081830312620006575780516001600160401b03919082811162000657578362000050918301620006ab565b926020808301518481116200065757826200006d918501620006ab565b93604084015160608501518281116200065757850194601f908582880112156200065757865195848711620006415760059787891b8780620000b181840162000685565b809b81520191830101928084116200065757888301915b8483106200065c575050505050608001519460018060a01b0386168096036200065757875184811162000641576002546001998a82811c9216801562000636575b8883101462000620578185849311620005cb575b508790858311600114620005615760009262000555575b5050600019600383901b1c191690891b176002555b8515620005435760018060a01b03199260049633858954161788556003948554161784558860105589518581116200052e576013548a81811c9116801562000523575b888210146200050e57848111620004c4575b5086848211600114620004565781908b9c60009c9b9c926200044a575b505060001982871b1c191690891b176013559697965b601a556000985b620001ee575b60405161417590816200071e8239f35b8051891015620004445760128054898101908181116200042f576801000000000000000092838210156200041a5782815582821015620004055760005287600020015581518a1015620003f057858a891b83010151906011805491821015620003c6578a8201808255821015620003db57600052866000200190805190868211620003c65782548b81811c91168015620003bb575b89821014620003a6578581116200035d575b508790858311600114620002f6576000919083620002ea575b505060001982871b1c1916908a1b1790555b6000198914620002d5579787019787620001d8565b601186634e487b7160e01b6000525260246000fd5b015190503880620002ae565b90601f1983169184600052896000209260005b81811062000347575090848e95949392106200032e575b505050811b019055620002c0565b015160001983891b60f8161c1916905538808062000320565b828401518555938e0193928b01928b0162000309565b8360005288600020868085018d1c8201928b86106200039c575b018c1c01908c905b8281106200038f57505062000295565b60008155018c906200037f565b9250819262000377565b60228a634e487b7160e01b6000525260246000fd5b90607f169062000283565b604189634e487b7160e01b6000525260246000fd5b603289634e487b7160e01b6000525260246000fd5b603287634e487b7160e01b6000525260246000fd5b60328a634e487b7160e01b6000525260246000fd5b60418a634e487b7160e01b6000525260246000fd5b601189634e487b7160e01b6000525260246000fd5b620001de565b015190503880620001bb565b601f1982169b6013600052886000209c60005b818110620004ae5750918c9d91848e9d9e95941062000495575b505050811b01601355979697620001d1565b015160001983891b60f8161c1916905538808062000483565b828401518f559d8d019d928a01928a0162000469565b601360005287600020858084018c1c8201928a851062000504575b018b1c01908b905b828110620004f75750506200019e565b60008155018b90620004e7565b92508192620004df565b602289634e487b7160e01b6000525260246000fd5b90607f16906200018c565b604188634e487b7160e01b6000525260246000fd5b60405163e6c4247b60e01b8152600490fd5b01519050388062000134565b908b9350601f198316916002600052896000209260005b8b828210620005b457505084116200059a575b505050811b0160025562000149565b015160001960f88460031b161c191690553880806200058b565b8385015186558f9790950194938401930162000578565b909150600260005287600020858085018c1c8201928a861062000616575b918d9186959493018d1c01915b828110620006065750506200011d565b600081558594508d9101620005f6565b92508192620005e9565b634e487b7160e01b600052602260045260246000fd5b91607f169162000109565b634e487b7160e01b600052604160045260246000fd5b600080fd5b825189811162000657578a916200067984848094890101620006ab565b815201920191620000c8565b6040519190601f01601f191682016001600160401b038111838210176200064157604052565b919080601f84011215620006575782516001600160401b0381116200064157602090620006e1601f8201601f1916830162000685565b92818452828287010111620006575760005b8181106200070957508260009394955001015290565b8581018301518482018401528201620006f356fe60806040526004361015610018575b361561001657005b005b60003560e01c8062fdd58e1461030757806301ffc9a71461030257806302fe5305146102fd57806306eb36db146102f857806306fdde03146102f35780630dccc9ad146102ee5780630e89341c146102e957806312065fe0146102e457806318dcfd71146102df5780631f185d16146102da5780632796f7c6146102d55780632defa859146102d05780632eb2c2d6146102cb578063339459a6146102c65780633b9b7955146102c15780634622ab03146102bc5780634e1273f4146102b75780635718e17b146102b25780635fac2d9d146102ad5780636c51797b146102a857806378a89567146102a35780637eb1a7381461029e57806381fbf0a5146102995780638da5cb5b14610294578063a1f7f5391461028f578063a22cb4651461028a578063abbbf8d714610285578063af48452614610280578063b505c66d1461027b578063b90306ad14610276578063be17fe6214610271578063c3c916d91461026c578063c54e44b014610267578063c85700fb14610262578063d878fe101461025d578063e01ad5fd14610258578063e0a9bc2b14610253578063e834a8341461024e578063e985e9c514610249578063edd38c0114610244578063f242432a1461023f578063f356eedb1461023a578063f526f68a14610235578063f9ffedb714610230578063fac333ac1461022b578063fcf56368146102265763fdc10bc90361000e5761196b565b611942565b611903565b6118e5565b61185e565b611840565b61178d565b61173e565b6116e6565b6116c8565b6116ad565b611632565b6115fa565b6114e5565b6114ac565b61148e565b611432565b611332565b6112a6565b611275565b6111d6565b61112e565b6110c4565b61109b565b61107d565b610f64565b610f3c565b610f1e565b610f00565b610ec0565b610e05565b610d6c565b610cec565b610cd3565b610bb8565b610b1a565b610acf565b610a0c565b6109ee565b6109d2565b610846565b6107b4565b6106e6565b61056f565b6104f3565b61038f565b61033e565b6001600160a01b031690565b6001600160a01b0381160361032957565b600080fd5b610104359061033c82610318565b565b3461032957604036600319011261032957602061037460043561036081610318565b602435600052600083526040600020611996565b54604051908152f35b6001600160e01b031981160361032957565b346103295760203660031901126103295760206004356103ae8161037d565b63ffffffff60e01b16636cdb3d1360e11b81149081156103ec575b81156103db575b506040519015158152f35b6301ffc9a760e01b149050386103d0565b6303a24d0760e21b811491506103c9565b634e487b7160e01b600052604160045260246000fd5b604081019081106001600160401b0382111761042e57604052565b6103fd565b602081019081106001600160401b0382111761042e57604052565b601f909101601f19168101906001600160401b0382119082101761042e57604052565b6040519061016082016001600160401b0381118382101761042e57604052565b6001600160401b03811161042e57601f01601f191660200190565b81601f82011215610329578035906104c382610491565b926104d1604051948561044e565b8284526020838301011161032957816000926020809301838601378301015290565b34610329576020366003190112610329576004356001600160401b038111610329576105239036906004016104ac565b61052b613cb3565b1561055d576008546001600160a01b0316330361054b57610016906123be565b60405163ea8e4eb560e01b8152600490fd5b604051634ee2123760e11b8152600490fd5b346103295760003660031901126103295761059061058b613da6565b612e7e565b60195481039081116105a757602090604051908152f35b6119d8565b90600182811c921680156105dc575b60208310146105c657565b634e487b7160e01b600052602260045260246000fd5b91607f16916105bb565b90604051918260008254926105fa846105ac565b9081845260019485811690816000146106675750600114610624575b505061033c9250038361044e565b9093915060005260209081600020936000915b81831061064f57505061033c93508201013880610616565b85548884018501529485019487945091830191610637565b91505061033c94506020925060ff191682840152151560051b8201013880610616565b60005b83811061069d5750506000910152565b818101518382015260200161068d565b906020916106c68151809281855285808601910161068a565b601f01601f1916010190565b9060206106e39281815201906106ad565b90565b34610329576000806003193601126107b15760405181601354610708816105ac565b808452906001908181169081156107895750600114610742575b61073e846107328188038261044e565b604051918291826106d2565b0390f35b60138352602094506000805160206141208339815191525b828410610776575050508161073e936107329282010193610722565b805485850187015292850192810161075a565b61073e96506107329450602092508593915060ff191682840152151560051b82010193610722565b80fd5b34610329576000806003193601126107b157604051816002546107d6816105ac565b8084529060019081811690811561078957506001146107ff5761073e846107328188038261044e565b60028352602094506000805160206140c08339815191525b828410610833575050508161073e936107329282010193610722565b8054858501870152928501928101610817565b346103295760203660031901126103295760006004358072184f03e93ff9f4daa797ed6e38ed64bf6a1f0160401b808210156109c4575b506904ee2d6d415b85acef8160201b808310156109b5575b50662386f26fc10000808310156109a6575b506305f5e10080831015610997575b5061271080831015610988575b506064821015610978575b600a8092101561096e575b6001908160216108ea8287016121c4565b95860101905b610938575b60405161073e906107328161092a6109198a61091360208501612139565b906121ad565b64173539b7b760d91b815260050190565b03601f19810183528261044e565b600019019083906f181899199a1a9b1b9c1cb0b131b232b360811b8282061a835304918215610969579190826108f0565b6108f5565b91600101916108d9565b91906064600291049101916108ce565b600491939204910191386108c3565b600891939204910191386108b6565b601091939204910191386108a7565b60209193920491019138610895565b60409350810491503861087d565b3461032957600036600319011261032957602047604051908152f35b34610329576000366003190112610329576020601c54604051908152f35b346103295760208060031936011261032957610a7f600435610a2d81610318565b6005546040516001600160a01b03928316858201528481529116610a5082610413565b60405190610a5d82610413565b601182527069735369676e657228616464726573732960781b85830152613e5c565b919080610ac5575b15610ab3578181610aa19261073e94518301019101613161565b60405190151581529081906020820190565b60405163baf3f0f760e01b8152600490fd5b5080825114610a87565b3461032957602036600319011261032957610ae8613cb3565b1561055d576008546001600160a01b0316330361054b57600435601b55005b6001600160a01b03909116815260200190565b34610329576000366003190112610329576014546040516001600160a01b039091168152602090f35b6001600160401b03811161042e5760051b60200190565b81601f8201121561032957803591610b7183610b43565b92610b7f604051948561044e565b808452602092838086019260051b820101928311610329578301905b828210610ba9575050505090565b81358152908301908301610b9b565b346103295760a03660031901126103295760048035610bd681610318565b602435610be281610318565b6001600160401b039060443582811161032957610c029036908601610b5a565b9060643583811161032957610c1a9036908701610b5a565b9260843590811161032957610c3290369087016104ac565b936001600160a01b03808216903382141580610cb1575b610c9257831615610c7a5715610c63576100169550611b3f565b604051626a0d4560e21b8152600081880152602490fd5b604051632bfa23e760e11b8152600081890152602490fd5b60405163711bec9160e11b815280610cad8533838d01611ac3565b0390fd5b5081600052600160205260ff610ccb336040600020611996565b541615610c49565b346103295760003660031901126103295761001661390c565b34610329576000366003190112610329576003546040516001600160a01b039091168152602090f35b634e487b7160e01b600052603260045260246000fd5b601154811015610d4657601160005260206000200190600090565b610d15565b60125415610d4657601260009081526000805160206140e083398151915291565b346103295760203660031901126103295760043560115481101561032957601160005261073e90610dac90600080516020614100833981519152016105e6565b6040519182916020835260208301906106ad565b90815180825260208080930193019160005b828110610de0575050505090565b835185529381019392810192600101610dd2565b9060206106e3928181520190610dc0565b34610329576040366003190112610329576004356001600160401b038082116103295736602383011215610329578160040135610e4181610b43565b92610e4f604051948561044e565b81845260209160248386019160051b8301019136831161032957602401905b828210610ea757856024358681116103295761073e91610e95610e9b923690600401610b5a565b90611a1e565b60405191829182610df4565b8380918335610eb581610318565b815201910190610e6e565b3461032957602036600319011261032957600435601154811015610d4657601160005261073e90610dac90600080516020614100833981519152016105e6565b34610329576000366003190112610329576020601b54604051908152f35b34610329576000366003190112610329576020601654604051908152f35b34610329576000366003190112610329576020601254604051908152f35b8015150361032957565b346103295760c036600319011261032957600435610f8181610318565b602435610f8d81610318565b6044356064359060843592610fa184610f5a565b60a4356001600160401b03811161032957610fc09036906004016104ac565b936001600160a01b03908282161561106b578187161561106b5715611061579061103c61102d6110559695949360065416610ff9613149565b906040519061100782610413565b6014825273616c6c6f77466f7263655472616e73666572282960601b6020830152613e31565b60208082518301019101613161565b15159560ff199660ff88601e5416911617601e55613176565b601e5416601e55600080f35b5061001694613176565b60405163e6c4247b60e01b8152600490fd5b34610329576000366003190112610329576020601a54604051908152f35b34610329576000366003190112610329576004546040516001600160a01b039091168152602090f35b3461032957600036600319011261032957602061112660018060a01b03600954166040516110f181610413565b601381527267657464656c656761746f72436f756e74282960681b848201526040519161111d83610433565b60008352613f57565b604051908152f35b346103295760403660031901126103295760043561114b81610318565b60243561115781610f5a565b6001600160a01b0382169182156111be5761117f903360005260016020526040600020611996565b9015159060ff1981541660ff83161790556040519081527f17307eab39ab6107e8899845ad3d59bd9653f200f220920489ca2b5937696c3160203392a3005b60405162ced3e160e81b815260006004820152602490fd5b3461032957602080600319360112610329576001600160401b03600435818111610329573660238201121561032957806004013561121381610b43565b92611221604051948561044e565b818452848401906024809360051b8501019336851161032957838101925b85841061124f5761001687612216565b833583811161032957889161126a83928836918701016104ac565b81520193019261123f565b3461032957602036600319011261032957602061129c60043561129781610318565b613d25565b6040519015158152f35b610120366003190112610329576001600160401b03600435818111610329576112d39036906004016104ac565b602435828111610329576112eb9036906004016104ac565b90604435928311610329576113076100169336906004016104ac565b6084359261131484610318565b61131c61032e565b9360e4359360c4359360a43593606435926129ab565b346103295760203660031901126103295760043561134e613cb3565b1561055d576008546001600160a01b0316330361054b576004602061137c61137760035461030c565b61030c565b6040516311be646b60e21b815292839182905afa801561142d5760008084819493829483916113ff575b505af16113b1611e98565b5015610ab3577fcdcc745fe377b103b45fa0cec23ae3ef93d6fc6a84a01f0d18c40b354dd1d5d86113fa6113e9611377600e5461030c565b604051938452929081906020820190565b0390a2005b611420915060203d8111611426575b611418818361044e565b810190613257565b386113a6565b503d61140e565b611e79565b346103295760203660031901126103295760043561144f81610318565b611457613cb3565b1561055d5761146533613d25565b801561147a575b1561054b5761001690613689565b506008546001600160a01b0316331461146c565b34610329576000366003190112610329576020601d54604051908152f35b346103295760203660031901126103295760206114d36004356114ce81610318565b614048565b6040516001600160a01b039091168152f35b60a0366003190112610329576004356114fd81610318565b60243560443560018060a01b0380600754166040519161153d818716938460208201526020815261152d81610413565b339361153761266c565b90613ed7565b160361054b571561106b57611550612988565b601a5490601b5493818501908186116105a75761158a6115858461073e986115806115dd966115e399101561269e565b61227f565b601b55565b61092a61159630612920565b956115a86115a3826126e4565b610d2b565b50906115b861137760035461030c565b9160405196879563b505c66d60e01b602088015260843593606435936024890161281b565b82613fc6565b506115ee6001601055565b60405191829182610b07565b3461032957602036600319011261032957611613613cb3565b1561055d576008546001600160a01b0316330361054b57600435601a55005b3461032957602036600319011261032957602061129c60043561165481610318565b6009546040516001600160a01b0392831685820152848152911661167782610413565b6040519061168482610413565b6018825277697364656c656761746f724e6f646528616464726573732960401b85830152613f1b565b3461032957600036600319011261032957602061129c613cb3565b34610329576000366003190112610329576020601954604051908152f35b3461032957604036600319011261032957602060ff61173260043561170a81610318565b6024359061171782610318565b6001600160a01b031660009081526001855260409020611996565b54166040519015158152f35b346103295760203660031901126103295760206117606004356114ce81610318565b6001600160a01b0381161515908161177d57506040519015158152f35b6117879150613d25565b386103d0565b346103295760a0366003190112610329576004356117aa81610318565b6024356117b681610318565b6084356001600160401b038111610329576117d59036906004016104ac565b906001600160a01b03831633811415908161181d575b5061180157610016926064359160443591611add565b60405163711bec9160e11b815280610cad853360048401611ac3565b9050600052600160205260ff611837336040600020611996565b541615386117eb565b34610329576000366003190112610329576020601754604051908152f35b346103295760403660031901126103295760043561187b81610318565b6024356001600160401b0381116103295761189a9036906004016104ac565b6001600160a01b038281161561106b576118b2613cb3565b1561055d576118c033613d25565b9081156118d7575b501561054b5761001691613092565b6008541633149050386118c8565b34610329576000366003190112610329576020601854604051908152f35b34610329576020366003190112610329576004356012548110156103295760126000526000805160206140e08339815191520154604051908152602090f35b34610329576000366003190112610329576015546040516001600160a01b039091168152602090f35b34610329576000366003190112610329576020611126613da6565b6000526000602052604060002090565b9060018060a01b0316600052602052604060002090565b6119c39160005260006020526040600020611996565b5490565b908152602081019190915260400190565b634e487b7160e01b600052601160045260246000fd5b60001981146105a75760010190565b805115610d465760200190565b8051821015610d465760209160051b010190565b91909180518351808203611aa7575050805190611a3a82610b43565b91611a48604051938461044e565b808352611a57601f1991610b43565b0190602091368385013760005b8151811015611a9f5780611a8a611a9a9260051b85808287010151918a010151906119ad565b611a948287611a0a565b526119ee565b611a64565b509193505050565b610cad604051928392635b05999160e01b8452600484016119c7565b6001600160a01b0391821681529116602082015260400190565b92939290916001600160a01b0380841615611b2657821615611b0e5761033c94611b0691611ddb565b929091611b3f565b604051626a0d4560e21b815260006004820152602490fd5b604051632bfa23e760e11b815260006004820152602490fd5b91939290611b5060018651146132fd565b6001600160a01b038381168015159081611dc4575b50611bbc575b611b7783878487613521565b8116611b85575b5050505050565b8451600103611bab57602080611ba19601519201519233611fb6565b3880808080611b7e565b611bb794919233612102565b611ba1565b601654601954809111611bd0575b50611b6b565b611be3611bdf601e5460ff1690565b1590565b15611da85750611c68611c63611bdf611c2b611c0060075461030c565b60405190611c2382611c158c60208301610b07565b03601f19810184528361044e565b61153761266c565b611c388582161515613345565b611c4c611c44886119fd565b511515613388565b611c54613149565b90611c5d6133c6565b90613f1b565b6133ea565b611d1d611c73613da6565b611c93611c7f82612e7e565b611c8a811515613429565b601954906126f3565b90611c9f60065461030c565b90611cdf611cd7611cbf611cb1613149565b611cb9613466565b86613f57565b93611cc8613149565b90611cd161348e565b90613f57565b601c5461227f565b811015611d95575b50601d5481611cff611cf8896119fd565b518361227f565b11611d7b575b50508015159081611d67575b81611d53575b506134bb565b611d3a611d35611d2c856119fd565b5160195461227f565b601955565b611d4d611d48601d546119ee565b601d55565b38611bca565b9050611d5e856119fd565b51111538611d17565b9050611d72856119fd565b51151590611d11565b611d84916126f3565b611d8d866119fd565b523880611d05565b601c55611da26000601d55565b38611ce7565b611d35611dbf91611db8866119fd565b519061227f565b611d4d565b9050611dd461137760155461030c565b1438611b65565b9160405192600184526020840152604083019160018352606084015260808301604052565b9081602091031261032957516106e38161037d565b909260a0926106e39594600180861b03168352600060208401526040830152606082015281608082015201906106ad565b91926106e395949160a094600180871b0380921685521660208401526040830152606082015281608082015201906106ad565b6040513d6000823e3d90fd5b60405190611e9282610433565b60008252565b3d15611ec3573d90611ea982610491565b91611eb7604051938461044e565b82523d6000602084013e565b606090565b9293919093843b611eda575050505050565b602091611efd604051948593849363f23a6e6160e01b9889865260048601611e15565b038160006001600160a01b0388165af160009181611f86575b50611f4f5782611f24611e98565b8051919082611f4857604051632bfa23e760e11b815280610cad8460048301610b07565b9050602001fd5b6001600160e01b03191603611f6957503880808080611b7e565b604051632bfa23e760e11b8152908190610cad9060048301610b07565b611fa891925060203d8111611faf575b611fa0818361044e565b810190611e00565b9038611f16565b503d611f96565b939290949194853b611fcb575b505050505050565b611fee602093604051958694859463f23a6e6160e01b998a875260048701611e46565b038160006001600160a01b0388165af160009181612030575b506120155782611f24611e98565b6001600160e01b03191603611f695750388080808080611fc3565b61204991925060203d8111611faf57611fa0818361044e565b9038612007565b9261207f6106e3959361208d9360018060a01b031686526000602087015260a0604087015260a0860190610dc0565b908482036060860152610dc0565b9160808184039101526106ad565b93906106e3959361207f9161208d9460018060a01b03809216885216602087015260a0604087015260a0860190610dc0565b9293919093843b6120df575050505050565b602091611efd604051948593849363bc197c8160e01b9889865260048601612050565b939290949194853b61211657505050505050565b611fee602093604051958694859463bc197c8160e01b998a87526004870161209b565b60025460009291612149826105ac565b9160019081811690811561219a575060011461216457505050565b9091929350600260005260209081600020906000915b85831061218957505050500190565b80548584015291830191810161217a565b60ff191683525050811515909102019150565b906121c06020928281519485920161068a565b0190565b906121ce82610491565b6121db604051918261044e565b82815280926121ec601f1991610491565b0190602036910137565b8115612200570490565b634e487b7160e01b600052601260045260246000fd5b9061221f613cb3565b1561055d576008546001600160a01b0316330361054b5760005b825181101561227a5760125490600182018092116105a75761225d6122759261228c565b61227061226a8286611a0a565b51612568565b6119ee565b612239565b509050565b919082018092116105a757565b601254600160401b81101561042e576001810180601255811015610d465760126000526000805160206140e08339815191520155565b601f81116122ce575050565b6000906002825260208220906020601f850160051c8301941061230c575b601f0160051c01915b82811061230157505050565b8181556001016122f5565b90925082906122ec565b601f8111612322575050565b6000906013825260208220906020601f850160051c83019410612360575b601f0160051c01915b82811061235557505050565b818155600101612349565b9092508290612340565b90601f811161237857505050565b600091825260208220906020601f850160051c830194106123b4575b601f0160051c01915b8281106123a957505050565b81815560010161239d565b9092508290612394565b80519091906001600160401b03811161042e576123e5816123e06002546105ac565b6122c2565b602080601f83116001146124215750819293600092612416575b50508160011b916000199060031b1c191617600255565b0151905038806123ff565b6002600052601f198316949091906000805160206140c0833981519152926000905b87821061247b575050836001959610612462575b505050811b01600255565b015160001960f88460031b161c19169055388080612457565b80600185968294968601518155019501930190612443565b80519091906001600160401b03811161042e576124ba816124b56013546105ac565b612316565b602080601f83116001146124f657508192936000926124eb575b50508160011b916000199060031b1c191617601355565b0151905038806124d4565b6013600052601f19831694909190600080516020614120833981519152926000905b878210612550575050836001959610612537575b505050811b01601355565b015160001960f88460031b161c1916905538808061252c565b80600185968294968601518155019501930190612518565b60115490600160401b82101561042e5760019081830180601155831015610d46576011600052805160008051602061410083398151915290930192906020906001600160401b03831161042e576125c9836125c387546105ac565b8761236a565b81601f841160011461260257509282939183926000946125f7575b50501b916000199060031b1c1916179055565b0151925038806125e4565b919083601f19811661261988600052602060002090565b946000905b888383106126525750505010612639575b505050811b019055565b015160001960f88460031b161c1916905538808061262f565b85870151885590960195948501948793509081019061261e565b6040519061267982610413565b601682527567657455736572546f53746f7228616464726573732960501b6020830152565b156126a557565b60405162461bcd60e51b81526020600482015260176024820152761bdc98cc4c4d4d4b9cdd5c1c1b1e4b989c995858da1959604a1b6044820152606490fd5b6000198101919082116105a757565b919082039182116105a757565b60025460009291612710826105ac565b90818152600192838116908160001461276a575060011461273057505050565b9092935060026000526020928360002092846000945b8386106127565750505050010190565b805485870183015294019385908201612746565b91935050602093945060ff191683830152151560051b010190565b9060009291805491612796836105ac565b9182825260019384811690816000146127f857506001146127b8575b50505050565b90919394506000526020928360002092846000945b8386106127e45750505050010190388080806127b2565b8054858701830152940193859082016127cd565b9294505050602093945060ff191683830152151560051b010190388080806127b2565b9490979591969293610120808752600090601354612838816105ac565b80928a015260019081811690816000146128f857506001146128ad575b5050869798996128728261010099612880940360208c0152612700565b9089820360408b0152612785565b60608801999099526001600160a01b03948516608088015260a087015260c086015260e085015216910152565b6013600090815292506020906000805160206141208339815191525b8385106128e3575050505086016101400189612872612855565b8054858c0161014001529382019381016128c9565b60ff1916610140808c019190915292151560051b8a0190920192508b91506128729050612855565b6e5af43d82803e903d91602b57fd5bf390763d602d80600a3d3981f3363d3d373d3d3d363d7300000062ffffff8260881c161760005260781b17602052603760096000f0906001600160a01b0382161561297657565b60405163b06ebf3d60e01b8152600490fd5b600260105414612999576002601055565b604051633ee5aeb560e01b8152600490fd5b612a879693612a4e612a5392612a49612a589695612a44612a829a612ab69f8d9f9d90612a07612a26926129dd612988565b6001600160a01b03906129fe906129f78584161515612ad2565b1515612b17565b84161515612b56565b612a21612a1b61137761137760035461030c565b15612b99565b613689565b612a2e61390c565b612a3f612a3a33613d25565b612bdc565b613de3565b6123be565b612493565b61228c565b612568565b612a6b612a6660045461030c565b612c22565b612a7485601655565b612a7d83601855565b601755565b601c55565b612a9260045461030c565b90612aa8612a9e610d4b565b90549060031b1c90565b612ab0611e85565b92612c44565b601480546001600160a01b0319163317905561033c6001601055565b15612ad957565b60405162461bcd60e51b81526020600482015260166024820152751bdc98cc4c4d4d4b9a195e18985cd94b99985a5b195960521b6044820152606490fd5b15612b1e57565b60405162461bcd60e51b815260206004820152601060248201526f6f7263313135352e7174792e7a65726f60801b6044820152606490fd5b15612b5d57565b60405162461bcd60e51b81526020600482015260146024820152736f7263313135352e6163636f756e742e7a65726f60601b6044820152606490fd5b15612ba057565b60405162461bcd60e51b81526020600482015260146024820152731bdc98cc4c4d4d4b985b1c9958591e4b9a5b9a5d60621b6044820152606490fd5b15612be357565b60405162461bcd60e51b81526020600482015260176024820152761bdc98cc4c4d4d4b9d5b9cd958dd5c994b99985a5b1959604a1b6044820152606490fd5b601580546001600160a01b0319166001600160a01b0392909216919091179055565b92916001600160a01b03841691908215611b2657612c6191611ddb565b91600190612c71828451146132fd565b8251845190818103611aa757505081806000905b612d12575b50835103612ce857600060208401516000805160206140a0833981519152612cbe60208801516040519182913395836119c7565b0390a45b815103612cde579060208061033c959301519101519133611ec8565b61033c93336120cd565b6000604051600080516020614080833981519152339180612d0a8989836134fc565b0390a4612cc2565b8451811015612d5a5780612d549160051b612d4d612d458b612d40602080868d010151958d01015194611986565b611996565b91825461227f565b90556119ee565b81612c85565b612c8a565b60405190612d6c82610413565b600882526773797374656d282960c01b6020830152565b91908260c0910312610329578151612d9a81610f5a565b916020810151612da981610f5a565b916040820151612db881610f5a565b916060810151612dc781610f5a565b9160a06080830151612dd881610f5a565b9201516106e381610f5a565b60405190612df182610413565b601b82527a6765744e6674506f6f6c2875696e743235362c75696e743235362960281b6020830152565b9190826080910312610329578151916020810151916060604083015192015190565b90670de0b6b3a7640000918281029281840414901517156105a757565b90816064029160648304036105a757565b818102929181159184041417156105a757565b612e8960065461030c565b90612ea4612e95612d5f565b612e9d611e85565b9084613e31565b612eb8602091828082518301019101612d83565b9450505050506130895760009060185490604051612f1b612f0d82612eeb86868301919060206040840193600181520152565b0392612eff601f199485810183528261044e565b612f07612de4565b89613e31565b838082518301019101612e1b565b612f2884889b959b61227f565b891061307c57670de0b6b3a76400009981613024575b50505050612f929291612f8591612f776040519283612f6b89888301919060206040840193600281520152565b0390810184528361044e565b612f7f612de4565b90613e31565b8051810182019101612e1b565b959192909386612fb8575b5050505050905004601654808211612fb3575090565b905090565b612fd892612fcd612fe99893612fd39361227f565b906126f3565b6121f6565b9081612ff45750505060009061227f565b803880808080612f9d565b61301e9261301861301261300d9361300d601654612e3d565b612e6b565b91612e5a565b906121f6565b9061227f565b91613047612f9297969492612fd3613041612f85989c968c61227f565b8d6126f3565b918261305c575050505b959181939438612f3e565b61307793509061301861301261300d9361300d601654612e3d565b613051565b5050505050505091505090565b50505060165490565b6015549091906001600160a01b0390811690831681146131445760125415610d465760126000526000805160206140e0833981519152546130d390826119ad565b92836130df5750505050565b61311e8161312c9561312794600160ff19601e541617601e55613100610d4b565b9390546040519461311086610433565b6000865260031b1c91611add565b612a3f81612c22565b61326c565b61313b60ff19601e5416601e55565b388080806127b2565b505050565b60405161315581610433565b60008152906000368137565b9081602091031261032957516106e381610f5a565b949392919081600052600060205282613193876040600020611996565b5410613218576001600160a01b038616331415806131e5575b6131c9579161033c949591613127936131c3611e85565b93611add565b60405163711bec9160e11b815280610cad883360048401611ac3565b50613213611bdf61320c33612d408a60018060a01b03166000526001602052604060002090565b5460ff1690565b6131ac565b60405162461bcd60e51b81526020600482015260176024820152761bdc98cc4c4d4d4b9d1c985b9cd9995c8b99985a5b1959604a1b6044820152606490fd5b9081602091031261032957516106e381610318565b8051156132d6576004602061328561137760035461030c565b6040516343af1d9d60e01b815292839182905afa801561142d576132d692611c15926000926132d9575b50604051639e6c4bd160e01b6020820152926132d191849190602483016106d2565b613fc6565b50565b6132d19192506132f69060203d811161142657611418818361044e565b91906132af565b1561330457565b60405162461bcd60e51b81526020600482015260196024820152781bdc98cc4c4d4d4b98985d18da0b9b9bdd0b985b1b1bddd959603a1b6044820152606490fd5b1561334c57565b60405162461bcd60e51b81526020600482015260146024820152731bdc98cc4c4d4d4b9cdd1bdc8b9a5b9d985b1a5960621b6044820152606490fd5b1561338f57565b60405162461bcd60e51b815260206004820152600f60248201526e6f7263313135352e6c65737351747960881b6044820152606490fd5b604051906133d382610413565b600882526769734c6f636b282960c01b6020830152565b156133f157565b60405162461bcd60e51b815260206004820152601060248201526f6f7263313135352e696e61637469766560801b6044820152606490fd5b1561343057565b60405162461bcd60e51b815260206004820152600e60248201526d1bdc98cc4c4d4d4b9b1bd8dad95960921b6044820152606490fd5b6040519061347382610413565b600c82526b6d61784e465453656e64282960a01b6020830152565b6040519061349b82610413565b60118252704e465453656e645065724379636c65282960781b6020830152565b156134c257565b60405162461bcd60e51b815260206004820152601260248201527137b93198989a9a973634b6b4ba1737bb32b960711b6044820152606490fd5b90916135136106e393604084526040840190610dc0565b916020818403910152610dc0565b9392918051835190818103611aa757505060005b815181101561360857600581901b82810160209081015191860101516001600160a01b0392918590898516613597575b61357894821661357d575b5050506119ee565b613535565b61358d91612d40612d4592611986565b9055388481613570565b91929390506135a989612d4084611986565b548381106135d15791869184613578969594036135c98c612d4085611986565b559450613565565b6040516303dee4c560e01b81526001600160a01b038b16600482015260248101919091526044810184905260648101839052608490fd5b508051939493919291600103613658576020908101519101516040516001600160a01b03938416949093169233926000805160206140a08339815191529282916136539190836119c7565b0390a4565b6040516001600160a01b039384169490931692339260008051602061408083398151915292829161365391836134fc565b6001600160a01b0390811690811561106b57600380546001600160a01b031981168417909155167fe939feee179e631422bcc8f6e6d7d908cb3f8af38f5372f17c77e15aea5c80ee600080a3565b6001600160a01b039091169052565b6138ea61014061033c9261371f6136fd825161030c565b600580546001600160a01b0319166001600160a01b0392909216919091179055565b61375161372f602083015161030c565b600680546001600160a01b0319166001600160a01b0392909216919091179055565b613783613761604083015161030c565b600780546001600160a01b0319166001600160a01b0392909216919091179055565b6137b5613793606083015161030c565b600880546001600160a01b0319166001600160a01b0392909216919091179055565b6137e76137c5608083015161030c565b600980546001600160a01b0319166001600160a01b0392909216919091179055565b6138196137f760a083015161030c565b600a80546001600160a01b0319166001600160a01b0392909216919091179055565b61384b61382960c083015161030c565b600b80546001600160a01b0319166001600160a01b0392909216919091179055565b61387d61385b60e083015161030c565b600c80546001600160a01b0319166001600160a01b0392909216919091179055565b6138b061388e61010083015161030c565b600d80546001600160a01b0319166001600160a01b0392909216919091179055565b6138e36138c161012083015161030c565b600e80546001600160a01b0319166001600160a01b0392909216919091179055565b015161030c565b600f80546001600160a01b0319166001600160a01b0392909216919091179055565b61391a61137760035461030c565b60408051634bf9c0ad60e11b81529160049190602080858581855afa94851561142d57600095613c94575b50825163cfbffe5360e01b81529281848681865afa93841561142d57600094613c75575b50805163ab6e844f60e01b815282818781875afa90811561142d57600091613c58575b508151630536340960e21b815283818881885afa90811561142d57600091613c3b575b50825163d1f956b160e01b81529084828981895afa91821561142d57600092613c1c575b508351631cc3bfab60e31b81529285848a818a5afa93841561142d57600094613bfd575b50845163e09d394d60e01b81529486868b818b5afa95861561142d57600096613bde575b5080516314ac1b5960e21b815298878a8c818c5afa97881561142d57613a639a600099613bbf575b50808c8451809d819263013cf08b60e01b83528201906000602083019252565b03818d5afa998a1561142d578c9b60009b613ba0575b50818451809d635e09dbe760e01b825281845afa9b8c1561142d5760009c613b7f575b50819084519d8e8092635506ee0b60e11b82525afa9b8c1561142d5760009c613b60575b50613ac9610471565b9c613ad4908e6136d7565b8c0190613ae0916136d7565b8a0190613aec916136d7565b613af99060608a016136d7565b613b0690608089016136d7565b613b139060a088016136d7565b613b209060c087016136d7565b613b2d9060e086016136d7565b613b3b9061010085016136d7565b613b499061012084016136d7565b613b579061014083016136d7565b61033c906136e6565b81613b78929d508d3d1061142657611418818361044e565b9a38613ac0565b82919c50613b9990823d841161142657611418818361044e565b9b90613a9c565b613bb8919b50823d841161142657611418818361044e565b9938613a79565b81613bd7929a503d8b1161142657611418818361044e565b9738613a43565b613bf6919650873d891161142657611418818361044e565b9438613a1b565b613c15919450863d881161142657611418818361044e565b92386139f7565b613c34919250853d871161142657611418818361044e565b90386139d3565b613c529150843d861161142657611418818361044e565b386139af565b613c6f9150833d851161142657611418818361044e565b3861398c565b613c8d919450823d841161142657611418818361044e565b9238613969565b81613cac9296503d871161142657611418818361044e565b9338613945565b600554604051613cfb916001600160a01b031690613cd081610413565b6008815267697353616665282960c01b602082015260405191613cf283610433565b60008352613e5c565b9080613d1a575b15610ab357806020806106e393518301019101613161565b506020815114613d02565b613d7f60018060a01b038060055416604051916020941684830152838252613d4c82610413565b60405190613d5982610413565b601582527469735365637572654261736528616464726573732960581b85830152613e5c565b9080613d9c575b15610ab357816106e39282518301019101613161565b5081815114613d86565b6006546040516106e3916001600160a01b031690613dc381610413565b600681526569416765282960d01b60208201526040519161111d83610433565b6001600160a01b0390811690811561106b57600480546001600160a01b031981168417909155167f8292fce18fa69edf4db7b94ea2e58241df0ae57f97e0a6c9b29067028bf92d76600080a3565b90613e3c9291613e5c565b9060009015613e49575090565b6040519150613e5782610433565b815290565b803b15613ebe57600092839263ffffffff60e01b90602081519101201690613eae6024604051809360208201958652613e9e815180926020868601910161068a565b810103600481018452018261044e565b51915afa613eba611e98565b9091565b505050600090604051613ed081610433565b6000815290565b9291613ee591600094613e5c565b9080613f10575b613ef35750565b909150602081805181010312610329576020015161030c81610318565b506020815114613eec565b9291613f2991600094613e5c565b9080613f4c575b613f375750565b6106e391925060208082518301019101613161565b506020815114613f30565b9291613f6591600094613e5c565b9080613f8a575b613f735750565b909150602081805181010312610329576020015190565b506020815114613f6c565b906020825192015163ffffffff60e01b908181169360048110613fb757505050565b60040360031b82901b16169150565b6001600160a01b0381161561106b57600080918351908260208601915af190613fed611e98565b9115613ff7575090565b8051600091906004116140425761400e9150613f95565b81511561401e5750805190602001fd5b604051630870274d60e21b81526001600160e01b0319919091166004820152602490fd5b5061400e565b803b600061405582610491565b92614063604051948561044e565b82845260208401903c602d815110610ab357602a015160601c9056fe4a39dc06d4c0dbc64b70af90fd698a233a518aa5d07e595d983b8c0526c8f7fbc3d58168c5ae7397731d063d5bbf3d657854427343f4c083240f7aacaa2d0f62405787fa12a823e0f2b7631cc41b3ba8828b3321ca811111fa75cd3aa3bb5acebb8a6a4669ba250d26cd7a459eca9d215f8307e33aebe50379bc5a3617ec344431ecc21a745e3968a04e9570e4425bc18fa8019c68028196b546d1669c200c6866de8ffda797e3de9c05e8fc57b3bf0ec28a930d40b0d285d93c06501cf6a090a264697066735822122057aac4c9dbbd75bd1b9ecb4eee28b56320eb62eb0ca4f652a79fdfe2cb757a1b64736f6c63430008140033","linkReferences":{}},"methodIdentifiers":{"Burn(uint256)":"b90306ad","_delegatorCount()":"a1f7f539","_getImplementation(address)":"c54e44b0","_isDelegatorNode(address)":"e01ad5fd","_isSafe()":"e0a9bc2b","_isSecureBase(address)":"af484526","_isSigner(address)":"1f185d16","_uri()":"0dccc9ad","addToken(string[])":"abbbf8d7","balanceOf(address,uint256)":"00fdd58e","balanceOfBatch(address[],uint256[])":"4e1273f4","claimed()":"e834a834","clonedOf()":"2defa859","curSupply()":"5fac2d9d","getBalance()":"12065fe0","getHexbase()":"3b9b7955","getNames(uint256)":"5718e17b","getTokenCount()":"78a89567","getUnlockedNFT()":"06eb36db","ids(uint256)":"fac333ac","isApprovedForAll(address,address)":"e985e9c5","isSecuredNFT(address)":"edd38c01","lastTransferDay()":"18dcfd71","mintedAge()":"f9ffedb7","mintedUser()":"fcf56368","mintedfee()":"f356eedb","mintedqty()":"6c51797b","name()":"06fdde03","names(uint256)":"4622ab03","onTokenImport(address,bytes)":"f526f68a","onTokenTransfer(address,address,uint256,uint256,bool,bytes)":"7eb1a738","owner()":"8da5cb5b","postinit(string,string,string,uint256,address,uint256,uint256,uint256,address)":"b505c66d","preinit(address,uint256,uint256,uint256,uint256)":"c85700fb","safeBatchTransferFrom(address,address,uint256[],uint256[],bytes)":"2eb2c2d6","safeTransferFrom(address,address,uint256,uint256,bytes)":"f242432a","setApprovalForAll(address,bool)":"a22cb465","setBase(address)":"be17fe62","setURI(string)":"02fe5305","setcurSupply(uint256)":"2796f7c6","setsupply(uint256)":"d878fe10","supportsInterface(bytes4)":"01ffc9a7","syncBaseAddr()":"339459a6","systemAge()":"fdc10bc9","totSupply()":"81fbf0a5","totalNFTSent()":"c3c916d9","uri(uint256)":"0e89341c"},"id":29}