{"abi":[{"type":"constructor","inputs":[{"name":"_hex","type":"address","internalType":"address"}],"stateMutability":"nonpayable"},{"type":"fallback","stateMutability":"payable"},{"type":"receive","stateMutability":"payable"},{"type":"function","name":"Burn","inputs":[{"name":"amount","type":"uint256","internalType":"uint256"}],"outputs":[],"stateMutability":"nonpayable"},{"type":"function","name":"UserToWithdrawDollar","inputs":[{"name":"","type":"address","internalType":"address"}],"outputs":[{"name":"","type":"uint256","internalType":"uint256"}],"stateMutability":"view"},{"type":"function","name":"_delegatorCount","inputs":[],"outputs":[{"name":"","type":"uint256","internalType":"uint256"}],"stateMutability":"view"},{"type":"function","name":"_getImplementation","inputs":[{"name":"clone","type":"address","internalType":"address"}],"outputs":[{"name":"impl","type":"address","internalType":"address"}],"stateMutability":"view"},{"type":"function","name":"_isDelegatorNode","inputs":[{"name":"sender","type":"address","internalType":"address"}],"outputs":[{"name":"","type":"bool","internalType":"bool"}],"stateMutability":"view"},{"type":"function","name":"_isSafe","inputs":[],"outputs":[{"name":"","type":"bool","internalType":"bool"}],"stateMutability":"view"},{"type":"function","name":"_isSecureBase","inputs":[{"name":"sender","type":"address","internalType":"address"}],"outputs":[{"name":"","type":"bool","internalType":"bool"}],"stateMutability":"view"},{"type":"function","name":"_isSigner","inputs":[{"name":"sender","type":"address","internalType":"address"}],"outputs":[{"name":"","type":"bool","internalType":"bool"}],"stateMutability":"view"},{"type":"function","name":"getBalance","inputs":[],"outputs":[{"name":"","type":"uint256","internalType":"uint256"}],"stateMutability":"view"},{"type":"function","name":"getHexbase","inputs":[],"outputs":[{"name":"","type":"address","internalType":"address"}],"stateMutability":"view"},{"type":"function","name":"owner","inputs":[],"outputs":[{"name":"","type":"address","internalType":"address"}],"stateMutability":"view"},{"type":"function","name":"syncBaseAddr","inputs":[],"outputs":[],"stateMutability":"nonpayable"},{"type":"function","name":"systemAge","inputs":[],"outputs":[{"name":"","type":"uint256","internalType":"uint256"}],"stateMutability":"view"},{"type":"function","name":"updateUserToWithdrawDollar","inputs":[{"name":"users","type":"address[]","internalType":"address[]"},{"name":"dollar","type":"uint256[]","internalType":"uint256[]"}],"outputs":[],"stateMutability":"nonpayable"},{"type":"event","name":"EthBurned","inputs":[{"name":"sender","type":"address","indexed":true,"internalType":"address"},{"name":"amount","type":"uint256","indexed":false,"internalType":"uint256"}],"anonymous":false},{"type":"event","name":"EthTransferred","inputs":[{"name":"to","type":"address","indexed":true,"internalType":"address"},{"name":"amount","type":"uint256","indexed":false,"internalType":"uint256"}],"anonymous":false},{"type":"event","name":"HexBaseUpdated","inputs":[{"name":"previousHexBase","type":"address","indexed":true,"internalType":"address"},{"name":"newHexBase","type":"address","indexed":true,"internalType":"address"}],"anonymous":false},{"type":"event","name":"OwnerUpdated","inputs":[{"name":"previousOwner","type":"address","indexed":true,"internalType":"address"},{"name":"newOwner","type":"address","indexed":true,"internalType":"address"}],"anonymous":false},{"type":"error","name":"CallFailed","inputs":[]},{"type":"error","name":"InvalidAddress","inputs":[]},{"type":"error","name":"InvalidState","inputs":[]},{"type":"error","name":"NotAuthorized","inputs":[]},{"type":"error","name":"NotSafe","inputs":[]},{"type":"error","name":"TargetCallFailed","inputs":[{"name":"selector","type":"bytes4","internalType":"bytes4"}]}],"bytecode":{"object":"0x60803461009257601f61158238819003918201601f19168301916001600160401b038311848410176100975780849260209460405283398101031261009257516001600160a01b038116908190036100925780156100805760018060a01b03193381600154161760015560005416176000556040516114d490816100ae8239f35b60405163e6c4247b60e01b8152600490fd5b600080fd5b634e487b7160e01b600052604160045260246000fdfe60806040526004361015610018575b361561001657005b005b60003560e01c806312065fe0146100f85780631f185d16146100f3578063339459a6146100ee5780633b9b7955146100e957806360aabd80146100e45780638da5cb5b146100df578063a1f7f539146100da578063af484526146100d5578063b90306ad146100d0578063c54e44b0146100cb578063e01ad5fd146100c6578063e06bbea1146100c1578063e0a9bc2b146100bc5763fdc10bc90361000e57610df8565b610ddd565b610cd8565b610bdc565b610b56565b610a26565b6109f5565b610980565b610959565b61091b565b6108f4565b6101fc565b61012a565b3461011457600036600319011261011457602047604051908152f35b600080fd5b6001600160a01b0381160361011457565b3461011457602080600319360112610114576101a960043561014b81610119565b6001600160a01b0380600254169060405192168483015283825261016e82610e98565b6040519061017b82610e98565b601182527f69735369676e6572286164647265737329000000000000000000000000000000858301526113b2565b9190806101f2575b156101e15781816101cb926101dd9451830101910161125b565b60405190151581529081906020820190565b0390f35b6004604051633204506f60e01b8152fd5b50808251146101b1565b346101145760003660031901126101145761022e6102226000546001600160a01b031690565b6001600160a01b031690565b604051907f97f3815a000000000000000000000000000000000000000000000000000000008252602082600481845afa918215610724576000926108d3575b50604051917fcfbffe53000000000000000000000000000000000000000000000000000000008352602083600481855afa928315610724576000936108b2575b50604051907fab6e844f000000000000000000000000000000000000000000000000000000008252602082600481865afa91821561072457600092610891575b50604051917f14d8d024000000000000000000000000000000000000000000000000000000008352602083600481875afa92831561072457600093610870575b50604051927fd1f956b1000000000000000000000000000000000000000000000000000000008452602084600481885afa9384156107245760009461084f575b50604051937fe61dfd58000000000000000000000000000000000000000000000000000000008552602085600481895afa9485156107245760009561082e575b506040517fe09d394d0000000000000000000000000000000000000000000000000000000081526020816004818a5afa9081156107245760009161080f575b506040517f52b06d640000000000000000000000000000000000000000000000000000000081526020816004818b5afa908115610724576000916107f0575b506040517f013cf08b00000000000000000000000000000000000000000000000000000000815260006004820152916020836024818c5afa928315610724576000936107cf575b50604051977f5e09dbe70000000000000000000000000000000000000000000000000000000089526020896004818d5afa948515610724576004996000966107ae575b5060208b6040519b8c80927faa0ddc160000000000000000000000000000000000000000000000000000000082525afa9687156107245760049a60009861078d575b5060208c6040519c8d80927f640274270000000000000000000000000000000000000000000000000000000082525afa9889156107245760049b60009a61076c575b5060208d6040519d8e80927f30125cf50000000000000000000000000000000000000000000000000000000082525afa9a8b15610724578d60049d60009d61074a575b506020906040519e8f80927f24768d910000000000000000000000000000000000000000000000000000000082525afa9c8d156107245760009d610729575b50604051809e81907f9dc969a80000000000000000000000000000000000000000000000000000000082525a92600491602094fa9d8e156107245760009e6106f3575b50610607610f1b565b6001600160a01b0390911681529d8e906001600160a01b031660208201526040019061063b91906001600160a01b03169052565b6001600160a01b031660608d01526001600160a01b031660808c01526001600160a01b031660a08b01526001600160a01b031660c08a01526001600160a01b031660e08901526001600160a01b03166101008801526001600160a01b03166101208701526001600160a01b03166101408601526001600160a01b03166101608501526001600160a01b03166101808401526001600160a01b03166101a08301526001600160a01b03166101c082015261001690610f3c565b610716919e5060203d60201161071d575b61070e8183610ed5565b810190610ef7565b9c386105fe565b503d610704565b610f0f565b610743919d5060203d60201161071d5761070e8183610ed5565b9b386105bb565b6020919d5061076590823d841161071d5761070e8183610ed5565b9c9061057c565b610786919a5060203d60201161071d5761070e8183610ed5565b9838610539565b6107a791985060203d60201161071d5761070e8183610ed5565b96386104f7565b6107c891965060203d60201161071d5761070e8183610ed5565b94386104b5565b6107e991935060203d60201161071d5761070e8183610ed5565b9138610472565b610809915060203d60201161071d5761070e8183610ed5565b3861042b565b610828915060203d60201161071d5761070e8183610ed5565b386103ec565b61084891955060203d60201161071d5761070e8183610ed5565b93386103ad565b61086991945060203d60201161071d5761070e8183610ed5565b923861036d565b61088a91935060203d60201161071d5761070e8183610ed5565b913861032d565b6108ab91925060203d60201161071d5761070e8183610ed5565b90386102ed565b6108cc91935060203d60201161071d5761070e8183610ed5565b91386102ad565b6108ed91925060203d60201161071d5761070e8183610ed5565b903861026d565b346101145760003660031901126101145760206001600160a01b0360005416604051908152f35b34610114576020366003190112610114576001600160a01b0360043561094081610119565b1660005260116020526020604060002054604051908152f35b346101145760003660031901126101145760206001600160a01b0360015416604051908152f35b346101145760003660031901126101145760206109ed6001600160a01b03600654166040516109ae81610e98565b601381527f67657464656c656761746f72436f756e7428290000000000000000000000000084820152604051916109e483610eb9565b60008352611460565b604051908152f35b34610114576020366003190112610114576020610a1c600435610a1781610119565b6112f8565b6040519015158152f35b3461011457602036600319011261011457600435610a42611273565b15610b45576001600160a01b03600554163303610b345760009060046020610a7461022285546001600160a01b031690565b604051928380927f46f991ac0000000000000000000000000000000000000000000000000000000082525afa80156107245783808481949382948391610b16575b505af1610ac0611382565b50156101e1577fcdcc745fe377b103b45fa0cec23ae3ef93d6fc6a84a01f0d18c40b354dd1d5d8610b10610aff610222600b546001600160a01b031690565b604051938452929081906020820190565b0390a280f35b610b2e915060203d811161071d5761070e8183610ed5565b38610ab5565b600460405163ea8e4eb560e01b8152fd5b6004604051634ee2123760e11b8152fd5b3461011457602036600319011261011457600435610b7381610119565b803b6000610b808261123f565b92610b8e6040519485610ed5565b82845260208401903c602d815110610bb257602a602091015160601c604051908152f35b60046040517fbaf3f0f7000000000000000000000000000000000000000000000000000000008152fd5b3461011457602080600319360112610114576101dd9060043590610bff82610119565b610c636001600160a01b0392836006541693604051911683820152828152610c2681610e98565b604051610c3281610e98565b601881527f697364656c656761746f724e6f64652861646472657373290000000000000000848201526000946113b2565b919080610c9d575b610c84575b505060405190151581529081906020820190565b610c969250808251830101910161125b565b3880610c70565b5080825114610c6b565b9181601f840112156101145782359167ffffffffffffffff8311610114576020808501948460051b01011161011457565b34610114576040806003193601126101145760049067ffffffffffffffff823581811161011457610d0c9036908501610ca7565b92909160243590811161011457610d269036908601610ca7565b939094610d31611273565b15610dcf57610d3f336112f8565b8015610dbb575b15610dad57848203610d9f575060005b818110610d5f57005b80610d6d6001928789610e5c565b356001600160a01b03610d81838689610e5c565b35610d8b81610119565b166000526011602052846000205501610d56565b8251633204506f60e01b8152fd5b825163ea8e4eb560e01b8152fd5b50336001600160a01b036005541614610d46565b8251634ee2123760e11b8152fd5b34610114576000366003190112610114576020610a1c611273565b346101145760003660031901126101145760206109ed6001600160a01b0360035416604051610e2681610e98565b600681527f694167652829000000000000000000000000000000000000000000000000000084820152604051916109e483610eb9565b9190811015610e6c5760051b0190565b634e487b7160e01b600052603260045260246000fd5b634e487b7160e01b600052604160045260246000fd5b6040810190811067ffffffffffffffff821117610eb457604052565b610e82565b6020810190811067ffffffffffffffff821117610eb457604052565b90601f8019910116810190811067ffffffffffffffff821117610eb457604052565b908160209103126101145751610f0c81610119565b90565b6040513d6000823e3d90fd5b604051906101e0820182811067ffffffffffffffff821117610eb457604052565b6112216101c061123d92610f76610f5a82516001600160a01b031690565b6001600160a01b03166001600160a01b03196002541617600255565b610fa9610f8d60208301516001600160a01b031690565b6001600160a01b03166001600160a01b03196003541617600355565b610fdc610fc060408301516001600160a01b031690565b6001600160a01b03166001600160a01b03196004541617600455565b61100f610ff360608301516001600160a01b031690565b6001600160a01b03166001600160a01b03196005541617600555565b61104261102660808301516001600160a01b031690565b6001600160a01b03166001600160a01b03196006541617600655565b61107561105960a08301516001600160a01b031690565b6001600160a01b03166001600160a01b03196007541617600755565b6110a861108c60c08301516001600160a01b031690565b6001600160a01b03166001600160a01b03196008541617600855565b6110db6110bf60e08301516001600160a01b031690565b6001600160a01b03166001600160a01b03196009541617600955565b61110f6110f36101008301516001600160a01b031690565b6001600160a01b03166001600160a01b0319600a541617600a55565b6111436111276101208301516001600160a01b031690565b6001600160a01b03166001600160a01b0319600b541617600b55565b61117761115b6101408301516001600160a01b031690565b6001600160a01b03166001600160a01b0319600c541617600c55565b6111ab61118f6101608301516001600160a01b031690565b6001600160a01b03166001600160a01b0319600d541617600d55565b6111df6111c36101808301516001600160a01b031690565b6001600160a01b03166001600160a01b0319600e541617600e55565b6112136111f76101a08301516001600160a01b031690565b6001600160a01b03166001600160a01b0319600f541617600f55565b01516001600160a01b031690565b6001600160a01b03166001600160a01b03196010541617601055565b565b67ffffffffffffffff8111610eb457601f01601f191660200190565b90816020910312610114575180151581036101145790565b6112ce6001600160a01b036002541660405161128e81610e98565b600881527f69735361666528290000000000000000000000000000000000000000000000006020820152604051916112c583610eb9565b600083526113b2565b90806112ed575b156101e15780602080610f0c9351830101910161125b565b5060208151146112d5565b61135b6001600160a01b03806002541660405191602094168483015283825261132082610e98565b6040519061132d82610e98565b601582527f6973536563757265426173652861646472657373290000000000000000000000858301526113b2565b9080611378575b156101e15781610f0c928251830101910161125b565b5081815114611362565b3d156113ad573d906113938261123f565b916113a16040519384610ed5565b82523d6000602084013e565b606090565b9190823b15611447577fffffffff00000000000000000000000000000000000000000000000000000000815160208093012016916040519180830193845281519160005b83811061143357505050918161142360248260009795968897018783820152036004810184520182610ed5565b51915afa61142f611382565b9091565b8181018301518582016024015282016113f6565b50505060009060405161145981610eb9565b6000815290565b929161146e916000946113b2565b9080611493575b61147c5750565b909150602081805181010312610114576020015190565b50602081511461147556fea26469706673582212207e1ed9a43a5d54ede781dc518593311f7f6501ce272285514b3a39078795aa2c64736f6c63430008140033","linkReferences":{}},"methodIdentifiers":{"Burn(uint256)":"b90306ad","UserToWithdrawDollar(address)":"60aabd80","_delegatorCount()":"a1f7f539","_getImplementation(address)":"c54e44b0","_isDelegatorNode(address)":"e01ad5fd","_isSafe()":"e0a9bc2b","_isSecureBase(address)":"af484526","_isSigner(address)":"1f185d16","getBalance()":"12065fe0","getHexbase()":"3b9b7955","owner()":"8da5cb5b","syncBaseAddr()":"339459a6","systemAge()":"fdc10bc9","updateUserToWithdrawDollar(address[],uint256[])":"e06bbea1"},"id":54}