{"abi":[{"type":"constructor","inputs":[{"name":"_hex","type":"address","internalType":"address"}],"stateMutability":"nonpayable"},{"type":"fallback","stateMutability":"payable"},{"type":"receive","stateMutability":"payable"},{"type":"function","name":"Burn","inputs":[{"name":"amount","type":"uint256","internalType":"uint256"}],"outputs":[],"stateMutability":"nonpayable"},{"type":"function","name":"UserToWithdraw","inputs":[{"name":"","type":"address","internalType":"address"}],"outputs":[{"name":"","type":"uint256","internalType":"uint256"}],"stateMutability":"view"},{"type":"function","name":"UserToWithdrawDollar","inputs":[{"name":"","type":"address","internalType":"address"}],"outputs":[{"name":"","type":"uint256","internalType":"uint256"}],"stateMutability":"view"},{"type":"function","name":"_delegatorCount","inputs":[],"outputs":[{"name":"","type":"uint256","internalType":"uint256"}],"stateMutability":"view"},{"type":"function","name":"_getImplementation","inputs":[{"name":"clone","type":"address","internalType":"address"}],"outputs":[{"name":"impl","type":"address","internalType":"address"}],"stateMutability":"view"},{"type":"function","name":"_isDelegatorNode","inputs":[{"name":"sender","type":"address","internalType":"address"}],"outputs":[{"name":"","type":"bool","internalType":"bool"}],"stateMutability":"view"},{"type":"function","name":"_isSafe","inputs":[],"outputs":[{"name":"","type":"bool","internalType":"bool"}],"stateMutability":"view"},{"type":"function","name":"_isSecureBase","inputs":[{"name":"sender","type":"address","internalType":"address"}],"outputs":[{"name":"","type":"bool","internalType":"bool"}],"stateMutability":"view"},{"type":"function","name":"_isSigner","inputs":[{"name":"sender","type":"address","internalType":"address"}],"outputs":[{"name":"","type":"bool","internalType":"bool"}],"stateMutability":"view"},{"type":"function","name":"getBalance","inputs":[],"outputs":[{"name":"","type":"uint256","internalType":"uint256"}],"stateMutability":"view"},{"type":"function","name":"getClaimInfo","inputs":[{"name":"user","type":"address","internalType":"address"}],"outputs":[{"name":"","type":"uint256","internalType":"uint256"},{"name":"","type":"uint256","internalType":"uint256"}],"stateMutability":"view"},{"type":"function","name":"getHexbase","inputs":[],"outputs":[{"name":"","type":"address","internalType":"address"}],"stateMutability":"view"},{"type":"function","name":"owner","inputs":[],"outputs":[{"name":"","type":"address","internalType":"address"}],"stateMutability":"view"},{"type":"function","name":"syncBaseAddr","inputs":[],"outputs":[],"stateMutability":"nonpayable"},{"type":"function","name":"systemAge","inputs":[],"outputs":[{"name":"","type":"uint256","internalType":"uint256"}],"stateMutability":"view"},{"type":"function","name":"updateClaimedDollar","inputs":[{"name":"users","type":"address[]","internalType":"address[]"},{"name":"claimed","type":"uint256[]","internalType":"uint256[]"},{"name":"dollar","type":"uint256[]","internalType":"uint256[]"}],"outputs":[],"stateMutability":"nonpayable"},{"type":"event","name":"EthBurned","inputs":[{"name":"sender","type":"address","indexed":true,"internalType":"address"},{"name":"amount","type":"uint256","indexed":false,"internalType":"uint256"}],"anonymous":false},{"type":"event","name":"EthTransferred","inputs":[{"name":"to","type":"address","indexed":true,"internalType":"address"},{"name":"amount","type":"uint256","indexed":false,"internalType":"uint256"}],"anonymous":false},{"type":"event","name":"HexBaseUpdated","inputs":[{"name":"previousHexBase","type":"address","indexed":true,"internalType":"address"},{"name":"newHexBase","type":"address","indexed":true,"internalType":"address"}],"anonymous":false},{"type":"event","name":"OwnerUpdated","inputs":[{"name":"previousOwner","type":"address","indexed":true,"internalType":"address"},{"name":"newOwner","type":"address","indexed":true,"internalType":"address"}],"anonymous":false},{"type":"error","name":"CallFailed","inputs":[]},{"type":"error","name":"InvalidAddress","inputs":[]},{"type":"error","name":"InvalidState","inputs":[]},{"type":"error","name":"NotAuthorized","inputs":[]},{"type":"error","name":"NotSafe","inputs":[]},{"type":"error","name":"TargetCallFailed","inputs":[{"name":"selector","type":"bytes4","internalType":"bytes4"}]}],"bytecode":{"object":"0x6080346100b057601f6114a438819003918201601f19168301916001600160401b038311848410176100b5578084926020946040528339810103126100b057516001600160a01b038116908190036100b057801561009e5760018060a01b031933816001541617600155600054161760005533600052600d6020526001604060002055600e60205260016040600020556040516113d890816100cc8239f35b60405163e6c4247b60e01b8152600490fd5b600080fd5b634e487b7160e01b600052604160045260246000fdfe60806040526004361015610018575b361561001657005b005b60003560e01c80630835fe471461011857806312065fe0146101135780631f185d161461010e57806320ac5f4614610109578063339459a6146101045780633b9b7955146100ff57806360aabd80146100fa5780638da5cb5b146100f5578063a1f7f539146100f0578063af484526146100eb578063b90306ad146100e6578063bce486eb146100e1578063c54e44b0146100dc578063e01ad5fd146100d7578063e0a9bc2b146100d25763fdc10bc90361000e57610d92565b610d77565b610cac565b610c26565b610be8565b610a86565b610a55565b6109e0565b6109b9565b61097b565b610954565b610456565b610391565b61019a565b61017e565b610133565b6001600160a01b0381160361012e57565b600080fd5b3461012e57602036600319011261012e576001600160a01b036004356101588161011d565b16600052600e60205260408060002054600d602052816000205482519182526020820152f35b3461012e57600036600319011261012e57602047604051908152f35b3461012e5760208060031936011261012e576102196004356101bb8161011d565b6001600160a01b038060025416906040519216848301528382526101de8261029b565b604051906101eb8261029b565b601182527f69735369676e6572286164647265737329000000000000000000000000000000858301526112b6565b91908061027b575b1561025157818161023b9261024d9451830101910161115f565b60405190151581529081906020820190565b0390f35b60046040517f3204506f000000000000000000000000000000000000000000000000000000008152fd5b5080825114610221565b634e487b7160e01b600052604160045260246000fd5b6040810190811067ffffffffffffffff8211176102b757604052565b610285565b6020810190811067ffffffffffffffff8211176102b757604052565b90601f8019910116810190811067ffffffffffffffff8211176102b757604052565b60405190610160820182811067ffffffffffffffff8211176102b757604052565b67ffffffffffffffff81116102b75760051b60200190565b81601f8201121561012e5780359161034a8361031b565b9261035860405194856102d8565b808452602092838086019260051b82010192831161012e578301905b828210610382575050505090565b81358152908301908301610374565b3461012e57606036600319011261012e5767ffffffffffffffff60043581811161012e573660238201121561012e5780600401356103ce8161031b565b916103dc60405193846102d8565b81835260209160248385019160051b8301019136831161012e57602401905b82821061043d57858560243582811161012e5761041c903690600401610333565b60443592831161012e57610437610016933690600401610333565b91610df6565b838091833561044b8161011d565b8152019101906103fb565b3461012e576000806003193601126109515761048861047c82546001600160a01b031690565b6001600160a01b031690565b604080517f97f3815a0000000000000000000000000000000000000000000000000000000081529160049190602080858581855afa948515610818578695610932575b508251927fcfbffe5300000000000000000000000000000000000000000000000000000000845281848681865afa938415610818578794610913575b5080517fab6e844f00000000000000000000000000000000000000000000000000000000815282818781875afa9081156108185788916108f6575b5081517f14d8d02400000000000000000000000000000000000000000000000000000000815283818881885afa9081156108185789916108d9575b508251907fd1f956b100000000000000000000000000000000000000000000000000000000825284828981895afa918215610818578a926108ba575b508351927fe61dfd5800000000000000000000000000000000000000000000000000000000845285848a818a5afa938415610818578b9461089b575b508451947fe09d394d00000000000000000000000000000000000000000000000000000000865286868b818b5afa958615610818578c9661087c575b508051987f52b06d64000000000000000000000000000000000000000000000000000000008a52878a8c818c5afa978815610818576106aa9a8e9961085d575b50808c8451809d81927f013cf08b0000000000000000000000000000000000000000000000000000000083528201906000602083019252565b03818d5afa998a15610818578c9b8f9b61083e575b50818451809d7f5e09dbe700000000000000000000000000000000000000000000000000000000825281845afa9b8c15610818578f9c61081d575b50819084519d8e80927faa0ddc160000000000000000000000000000000000000000000000000000000082525afa9b8c15610818578e9c6107e9575b5061073f6102fa565b6001600160a01b03909d168d526001600160a01b03909116908c01526001600160a01b03909116908a01526001600160a01b031660608901526001600160a01b031660808801526001600160a01b031660a08701526001600160a01b031660c08601526001600160a01b031660e08501526001600160a01b03166101008401526001600160a01b03166101208301526001600160a01b03166101408201526107e690610f10565b80f35b8161080a929d508d3d10610811575b61080281836102d8565b810190610eec565b9a38610736565b503d6107f8565b610f04565b82919c5061083790823d84116108115761080281836102d8565b9b906106fa565b610856919b50823d84116108115761080281836102d8565b99386106bf565b81610875929a503d8b116108115761080281836102d8565b9738610671565b610894919650873d89116108115761080281836102d8565b9438610631565b6108b3919450863d88116108115761080281836102d8565b92386105f5565b6108d2919250853d87116108115761080281836102d8565b90386105b9565b6108f09150843d86116108115761080281836102d8565b3861057d565b61090d9150833d85116108115761080281836102d8565b38610542565b61092b919450823d84116108115761080281836102d8565b9238610507565b8161094a9296503d87116108115761080281836102d8565b93386104cb565b80fd5b3461012e57600036600319011261012e5760206001600160a01b0360005416604051908152f35b3461012e57602036600319011261012e576001600160a01b036004356109a08161011d565b16600052600d6020526020604060002054604051908152f35b3461012e57600036600319011261012e5760206001600160a01b0360015416604051908152f35b3461012e57600036600319011261012e576020610a4d6001600160a01b0360065416604051610a0e8161029b565b601381527f67657464656c656761746f72436f756e742829000000000000000000000000008482015260405191610a44836102bc565b60008352611364565b604051908152f35b3461012e57602036600319011261012e576020610a7c600435610a778161011d565b6111fc565b6040519015158152f35b3461012e57602036600319011261012e57600435610aa2611177565b15610bbe576001600160a01b03600554163303610b945760009060046020610ad461047c85546001600160a01b031690565b604051928380927f46f991ac0000000000000000000000000000000000000000000000000000000082525afa80156108185783808481949382948391610b76575b505af1610b20611286565b5015610251577fcdcc745fe377b103b45fa0cec23ae3ef93d6fc6a84a01f0d18c40b354dd1d5d8610b70610b5f61047c600b546001600160a01b031690565b604051938452929081906020820190565b0390a280f35b610b8e915060203d81116108115761080281836102d8565b38610b15565b60046040517fea8e4eb5000000000000000000000000000000000000000000000000000000008152fd5b60046040517f9dc4246e000000000000000000000000000000000000000000000000000000008152fd5b3461012e57602036600319011261012e576001600160a01b03600435610c0d8161011d565b16600052600e6020526020604060002054604051908152f35b3461012e57602036600319011261012e57600435610c438161011d565b803b6000610c5082611143565b92610c5e60405194856102d8565b82845260208401903c602d815110610c8257602a602091015160601c604051908152f35b60046040517fbaf3f0f7000000000000000000000000000000000000000000000000000000008152fd5b3461012e5760208060031936011261012e5761024d9060043590610ccf8261011d565b610d336001600160a01b0392836006541693604051911683820152828152610cf68161029b565b604051610d028161029b565b601881527f697364656c656761746f724e6f64652861646472657373290000000000000000848201526000946112b6565b919080610d6d575b610d54575b505060405190151581529081906020820190565b610d669250808251830101910161115f565b3880610d40565b5080825114610d3b565b3461012e57600036600319011261012e576020610a7c611177565b3461012e57600036600319011261012e576020610a4d6001600160a01b0360035416604051610dc08161029b565b600681527f69416765282900000000000000000000000000000000000000000000000000008482015260405191610a44836102bc565b90610dff611177565b15610bbe57610e0d336111fc565b8015610eae575b15610b94578151928051840361025157600090815b858110610e3857505050505050565b80610e4560019284610ec2565b516001600160a01b03610e588389610ec2565b51168552600d6020526040852055610e708186610ec2565b51610ea7610e8e610e81848a610ec2565b516001600160a01b031690565b6001600160a01b0316600052600e602052604060002090565b5501610e29565b50336001600160a01b036005541614610e14565b8051821015610ed65760209160051b010190565b634e487b7160e01b600052603260045260246000fd5b9081602091031261012e5751610f018161011d565b90565b6040513d6000823e3d90fd5b61112561014061114192610f4a610f2e82516001600160a01b031690565b6001600160a01b03166001600160a01b03196002541617600255565b610f7d610f6160208301516001600160a01b031690565b6001600160a01b03166001600160a01b03196003541617600355565b610fb0610f9460408301516001600160a01b031690565b6001600160a01b03166001600160a01b03196004541617600455565b610fe3610fc760608301516001600160a01b031690565b6001600160a01b03166001600160a01b03196005541617600555565b611016610ffa60808301516001600160a01b031690565b6001600160a01b03166001600160a01b03196006541617600655565b61104961102d60a08301516001600160a01b031690565b6001600160a01b03166001600160a01b03196007541617600755565b61107c61106060c08301516001600160a01b031690565b6001600160a01b03166001600160a01b03196008541617600855565b6110af61109360e08301516001600160a01b031690565b6001600160a01b03166001600160a01b03196009541617600955565b6110e36110c76101008301516001600160a01b031690565b6001600160a01b03166001600160a01b0319600a541617600a55565b6111176110fb6101208301516001600160a01b031690565b6001600160a01b03166001600160a01b0319600b541617600b55565b01516001600160a01b031690565b6001600160a01b03166001600160a01b0319600c541617600c55565b565b67ffffffffffffffff81116102b757601f01601f191660200190565b9081602091031261012e5751801515810361012e5790565b6111d26001600160a01b03600254166040516111928161029b565b600881527f69735361666528290000000000000000000000000000000000000000000000006020820152604051916111c9836102bc565b600083526112b6565b90806111f1575b156102515780602080610f019351830101910161115f565b5060208151146111d9565b61125f6001600160a01b0380600254166040519160209416848301528382526112248261029b565b604051906112318261029b565b601582527f6973536563757265426173652861646472657373290000000000000000000000858301526112b6565b908061127c575b156102515781610f01928251830101910161115f565b5081815114611266565b3d156112b1573d9061129782611143565b916112a560405193846102d8565b82523d6000602084013e565b606090565b9190823b1561134b577fffffffff00000000000000000000000000000000000000000000000000000000815160208093012016916040519180830193845281519160005b838110611337575050509181611327602482600097959688970187838201520360048101845201826102d8565b51915afa611333611286565b9091565b8181018301518582016024015282016112fa565b50505060009060405161135d816102bc565b6000815290565b9291611372916000946112b6565b9080611397575b6113805750565b90915060208180518101031261012e576020015190565b50602081511461137956fea2646970667358221220a9044031504ad33602d04bd13602b4501eace977841c71bcc22e5413de13fb8164736f6c63430008140033","linkReferences":{}},"methodIdentifiers":{"Burn(uint256)":"b90306ad","UserToWithdraw(address)":"bce486eb","UserToWithdrawDollar(address)":"60aabd80","_delegatorCount()":"a1f7f539","_getImplementation(address)":"c54e44b0","_isDelegatorNode(address)":"e01ad5fd","_isSafe()":"e0a9bc2b","_isSecureBase(address)":"af484526","_isSigner(address)":"1f185d16","getBalance()":"12065fe0","getClaimInfo(address)":"0835fe47","getHexbase()":"3b9b7955","owner()":"8da5cb5b","syncBaseAddr()":"339459a6","systemAge()":"fdc10bc9","updateClaimedDollar(address[],uint256[],uint256[])":"20ac5f46"},"id":54}