{"abi":[{"type":"constructor","inputs":[{"name":"_hex","type":"address","internalType":"address"}],"stateMutability":"nonpayable"},{"type":"fallback","stateMutability":"payable"},{"type":"receive","stateMutability":"payable"},{"type":"function","name":"Burn","inputs":[{"name":"amount","type":"uint256","internalType":"uint256"}],"outputs":[],"stateMutability":"nonpayable"},{"type":"function","name":"UserToWithdraw","inputs":[{"name":"","type":"address","internalType":"address"}],"outputs":[{"name":"","type":"uint256","internalType":"uint256"}],"stateMutability":"view"},{"type":"function","name":"UserToWithdrawDollar","inputs":[{"name":"","type":"address","internalType":"address"}],"outputs":[{"name":"","type":"uint256","internalType":"uint256"}],"stateMutability":"view"},{"type":"function","name":"_delegatorCount","inputs":[],"outputs":[{"name":"","type":"uint256","internalType":"uint256"}],"stateMutability":"view"},{"type":"function","name":"_getImplementation","inputs":[{"name":"clone","type":"address","internalType":"address"}],"outputs":[{"name":"impl","type":"address","internalType":"address"}],"stateMutability":"view"},{"type":"function","name":"_isDelegatorNode","inputs":[{"name":"sender","type":"address","internalType":"address"}],"outputs":[{"name":"","type":"bool","internalType":"bool"}],"stateMutability":"view"},{"type":"function","name":"_isSafe","inputs":[],"outputs":[{"name":"","type":"bool","internalType":"bool"}],"stateMutability":"view"},{"type":"function","name":"_isSecureBase","inputs":[{"name":"sender","type":"address","internalType":"address"}],"outputs":[{"name":"","type":"bool","internalType":"bool"}],"stateMutability":"view"},{"type":"function","name":"_isSigner","inputs":[{"name":"sender","type":"address","internalType":"address"}],"outputs":[{"name":"","type":"bool","internalType":"bool"}],"stateMutability":"view"},{"type":"function","name":"getBalance","inputs":[],"outputs":[{"name":"","type":"uint256","internalType":"uint256"}],"stateMutability":"view"},{"type":"function","name":"getClaimInfo","inputs":[{"name":"user","type":"address","internalType":"address"}],"outputs":[{"name":"","type":"uint256","internalType":"uint256"},{"name":"","type":"uint256","internalType":"uint256"}],"stateMutability":"view"},{"type":"function","name":"getHexbase","inputs":[],"outputs":[{"name":"","type":"address","internalType":"address"}],"stateMutability":"view"},{"type":"function","name":"owner","inputs":[],"outputs":[{"name":"","type":"address","internalType":"address"}],"stateMutability":"view"},{"type":"function","name":"syncBaseAddr","inputs":[],"outputs":[],"stateMutability":"nonpayable"},{"type":"function","name":"systemAge","inputs":[],"outputs":[{"name":"","type":"uint256","internalType":"uint256"}],"stateMutability":"view"},{"type":"function","name":"updateClaimedDollar","inputs":[{"name":"users","type":"address[]","internalType":"address[]"},{"name":"claimed","type":"uint256[]","internalType":"uint256[]"},{"name":"dollar","type":"uint256[]","internalType":"uint256[]"}],"outputs":[],"stateMutability":"nonpayable"},{"type":"event","name":"EthBurned","inputs":[{"name":"sender","type":"address","indexed":true,"internalType":"address"},{"name":"amount","type":"uint256","indexed":false,"internalType":"uint256"}],"anonymous":false},{"type":"event","name":"EthTransferred","inputs":[{"name":"to","type":"address","indexed":true,"internalType":"address"},{"name":"amount","type":"uint256","indexed":false,"internalType":"uint256"}],"anonymous":false},{"type":"event","name":"HexBaseUpdated","inputs":[{"name":"previousHexBase","type":"address","indexed":true,"internalType":"address"},{"name":"newHexBase","type":"address","indexed":true,"internalType":"address"}],"anonymous":false},{"type":"event","name":"OwnerUpdated","inputs":[{"name":"previousOwner","type":"address","indexed":true,"internalType":"address"},{"name":"newOwner","type":"address","indexed":true,"internalType":"address"}],"anonymous":false},{"type":"error","name":"CallFailed","inputs":[]},{"type":"error","name":"InvalidAddress","inputs":[]},{"type":"error","name":"InvalidState","inputs":[]},{"type":"error","name":"NotAuthorized","inputs":[]},{"type":"error","name":"NotSafe","inputs":[]},{"type":"error","name":"TargetCallFailed","inputs":[{"name":"selector","type":"bytes4","internalType":"bytes4"}]}],"bytecode":{"object":"0x6080346100b057601f61176e38819003918201601f19168301916001600160401b038311848410176100b5578084926020946040528339810103126100b057516001600160a01b038116908190036100b057801561009e5760018060a01b03193381600154161760015560005416176000553360005260116020526001604060002055601260205260016040600020556040516116a290816100cc8239f35b60405163e6c4247b60e01b8152600490fd5b600080fd5b634e487b7160e01b600052604160045260246000fdfe60806040526004361015610018575b361561001657005b005b60003560e01c80630835fe471461011857806312065fe0146101135780631f185d161461010e57806320ac5f4614610109578063339459a6146101045780633b9b7955146100ff57806360aabd80146100fa5780638da5cb5b146100f5578063a1f7f539146100f0578063af484526146100eb578063b90306ad146100e6578063bce486eb146100e1578063c54e44b0146100dc578063e01ad5fd146100d7578063e0a9bc2b146100d25763fdc10bc90361000e57610f8c565b610f71565b610ea6565b610e20565b610de2565b610c80565b610c4f565b610bda565b610bb3565b610b75565b610b4e565b610456565b610391565b61019a565b61017e565b610133565b6001600160a01b0381160361012e57565b600080fd5b3461012e57602036600319011261012e576001600160a01b036004356101588161011d565b166000526012602052604080600020546011602052816000205482519182526020820152f35b3461012e57600036600319011261012e57602047604051908152f35b3461012e5760208060031936011261012e576102196004356101bb8161011d565b6001600160a01b038060025416906040519216848301528382526101de8261029b565b604051906101eb8261029b565b601182527f69735369676e657228616464726573732900000000000000000000000000000085830152611580565b91908061027b575b1561025157818161023b9261024d94518301019101611429565b60405190151581529081906020820190565b0390f35b60046040517f3204506f000000000000000000000000000000000000000000000000000000008152fd5b5080825114610221565b634e487b7160e01b600052604160045260246000fd5b6040810190811067ffffffffffffffff8211176102b757604052565b610285565b6020810190811067ffffffffffffffff8211176102b757604052565b90601f8019910116810190811067ffffffffffffffff8211176102b757604052565b604051906101e0820182811067ffffffffffffffff8211176102b757604052565b67ffffffffffffffff81116102b75760051b60200190565b81601f8201121561012e5780359161034a8361031b565b9261035860405194856102d8565b808452602092838086019260051b82010192831161012e578301905b828210610382575050505090565b81358152908301908301610374565b3461012e57606036600319011261012e5767ffffffffffffffff60043581811161012e573660238201121561012e5780600401356103ce8161031b565b916103dc60405193846102d8565b81835260209160248385019160051b8301019136831161012e57602401905b82821061043d57858560243582811161012e5761041c903690600401610333565b60443592831161012e57610437610016933690600401610333565b91610ff0565b838091833561044b8161011d565b8152019101906103fb565b3461012e57600036600319011261012e5761048861047c6000546001600160a01b031690565b6001600160a01b031690565b604051907f97f3815a000000000000000000000000000000000000000000000000000000008252602082600481845afa91821561097e57600092610b2d575b50604051917fcfbffe53000000000000000000000000000000000000000000000000000000008352602083600481855afa92831561097e57600093610b0c575b50604051907fab6e844f000000000000000000000000000000000000000000000000000000008252602082600481865afa91821561097e57600092610aeb575b50604051917f14d8d024000000000000000000000000000000000000000000000000000000008352602083600481875afa92831561097e57600093610aca575b50604051927fd1f956b1000000000000000000000000000000000000000000000000000000008452602084600481885afa93841561097e57600094610aa9575b50604051937fe61dfd58000000000000000000000000000000000000000000000000000000008552602085600481895afa94851561097e57600095610a88575b506040517fe09d394d0000000000000000000000000000000000000000000000000000000081526020816004818a5afa90811561097e57600091610a69575b506040517f52b06d640000000000000000000000000000000000000000000000000000000081526020816004818b5afa90811561097e57600091610a4a575b506040517f013cf08b00000000000000000000000000000000000000000000000000000000815260006004820152916020836024818c5afa92831561097e57600093610a29575b50604051977f5e09dbe70000000000000000000000000000000000000000000000000000000089526020896004818d5afa94851561097e57600499600096610a08575b5060208b6040519b8c80927faa0ddc160000000000000000000000000000000000000000000000000000000082525afa96871561097e5760049a6000986109e7575b5060208c6040519c8d80927f640274270000000000000000000000000000000000000000000000000000000082525afa98891561097e5760049b60009a6109c6575b5060208d6040519d8e80927f30125cf50000000000000000000000000000000000000000000000000000000082525afa9a8b1561097e578d60049d60009d6109a4575b506020906040519e8f80927f24768d910000000000000000000000000000000000000000000000000000000082525afa9c8d1561097e5760009d610983575b50604051809e81907f9dc969a80000000000000000000000000000000000000000000000000000000082525a92600491602094fa9d8e1561097e5760009e61094d575b506108616102fa565b6001600160a01b0390911681529d8e906001600160a01b031660208201526040019061089591906001600160a01b03169052565b6001600160a01b031660608d01526001600160a01b031660808c01526001600160a01b031660a08b01526001600160a01b031660c08a01526001600160a01b031660e08901526001600160a01b03166101008801526001600160a01b03166101208701526001600160a01b03166101408601526001600160a01b03166101608501526001600160a01b03166101808401526001600160a01b03166101a08301526001600160a01b03166101c08201526100169061110a565b610970919e5060203d602011610977575b61096881836102d8565b8101906110e6565b9c38610858565b503d61095e565b6110fe565b61099d919d5060203d6020116109775761096881836102d8565b9b38610815565b6020919d506109bf90823d84116109775761096881836102d8565b9c906107d6565b6109e0919a5060203d6020116109775761096881836102d8565b9838610793565b610a0191985060203d6020116109775761096881836102d8565b9638610751565b610a2291965060203d6020116109775761096881836102d8565b943861070f565b610a4391935060203d6020116109775761096881836102d8565b91386106cc565b610a63915060203d6020116109775761096881836102d8565b38610685565b610a82915060203d6020116109775761096881836102d8565b38610646565b610aa291955060203d6020116109775761096881836102d8565b9338610607565b610ac391945060203d6020116109775761096881836102d8565b92386105c7565b610ae491935060203d6020116109775761096881836102d8565b9138610587565b610b0591925060203d6020116109775761096881836102d8565b9038610547565b610b2691935060203d6020116109775761096881836102d8565b9138610507565b610b4791925060203d6020116109775761096881836102d8565b90386104c7565b3461012e57600036600319011261012e5760206001600160a01b0360005416604051908152f35b3461012e57602036600319011261012e576001600160a01b03600435610b9a8161011d565b1660005260116020526020604060002054604051908152f35b3461012e57600036600319011261012e5760206001600160a01b0360015416604051908152f35b3461012e57600036600319011261012e576020610c476001600160a01b0360065416604051610c088161029b565b601381527f67657464656c656761746f72436f756e742829000000000000000000000000008482015260405191610c3e836102bc565b6000835261162e565b604051908152f35b3461012e57602036600319011261012e576020610c76600435610c718161011d565b6114c6565b6040519015158152f35b3461012e57602036600319011261012e57600435610c9c611441565b15610db8576001600160a01b03600554163303610d8e5760009060046020610cce61047c85546001600160a01b031690565b604051928380927f46f991ac0000000000000000000000000000000000000000000000000000000082525afa801561097e5783808481949382948391610d70575b505af1610d1a611550565b5015610251577fcdcc745fe377b103b45fa0cec23ae3ef93d6fc6a84a01f0d18c40b354dd1d5d8610d6a610d5961047c600b546001600160a01b031690565b604051938452929081906020820190565b0390a280f35b610d88915060203d81116109775761096881836102d8565b38610d0f565b60046040517fea8e4eb5000000000000000000000000000000000000000000000000000000008152fd5b60046040517f9dc4246e000000000000000000000000000000000000000000000000000000008152fd5b3461012e57602036600319011261012e576001600160a01b03600435610e078161011d565b1660005260126020526020604060002054604051908152f35b3461012e57602036600319011261012e57600435610e3d8161011d565b803b6000610e4a8261140d565b92610e5860405194856102d8565b82845260208401903c602d815110610e7c57602a602091015160601c604051908152f35b60046040517fbaf3f0f7000000000000000000000000000000000000000000000000000000008152fd5b3461012e5760208060031936011261012e5761024d9060043590610ec98261011d565b610f2d6001600160a01b0392836006541693604051911683820152828152610ef08161029b565b604051610efc8161029b565b601881527f697364656c656761746f724e6f6465286164647265737329000000000000000084820152600094611580565b919080610f67575b610f4e575b505060405190151581529081906020820190565b610f6092508082518301019101611429565b3880610f3a565b5080825114610f35565b3461012e57600036600319011261012e576020610c76611441565b3461012e57600036600319011261012e576020610c476001600160a01b0360035416604051610fba8161029b565b600681527f69416765282900000000000000000000000000000000000000000000000000008482015260405191610c3e836102bc565b90610ff9611441565b15610db857611007336114c6565b80156110a8575b15610d8e578151928051840361025157600090815b85811061103257505050505050565b8061103f600192846110bc565b516001600160a01b0361105283896110bc565b511685526011602052604085205561106a81866110bc565b516110a161108861107b848a6110bc565b516001600160a01b031690565b6001600160a01b03166000526012602052604060002090565b5501611023565b50336001600160a01b03600554161461100e565b80518210156110d05760209160051b010190565b634e487b7160e01b600052603260045260246000fd5b9081602091031261012e57516110fb8161011d565b90565b6040513d6000823e3d90fd5b6113ef6101c061140b9261114461112882516001600160a01b031690565b6001600160a01b03166001600160a01b03196002541617600255565b61117761115b60208301516001600160a01b031690565b6001600160a01b03166001600160a01b03196003541617600355565b6111aa61118e60408301516001600160a01b031690565b6001600160a01b03166001600160a01b03196004541617600455565b6111dd6111c160608301516001600160a01b031690565b6001600160a01b03166001600160a01b03196005541617600555565b6112106111f460808301516001600160a01b031690565b6001600160a01b03166001600160a01b03196006541617600655565b61124361122760a08301516001600160a01b031690565b6001600160a01b03166001600160a01b03196007541617600755565b61127661125a60c08301516001600160a01b031690565b6001600160a01b03166001600160a01b03196008541617600855565b6112a961128d60e08301516001600160a01b031690565b6001600160a01b03166001600160a01b03196009541617600955565b6112dd6112c16101008301516001600160a01b031690565b6001600160a01b03166001600160a01b0319600a541617600a55565b6113116112f56101208301516001600160a01b031690565b6001600160a01b03166001600160a01b0319600b541617600b55565b6113456113296101408301516001600160a01b031690565b6001600160a01b03166001600160a01b0319600c541617600c55565b61137961135d6101608301516001600160a01b031690565b6001600160a01b03166001600160a01b0319600d541617600d55565b6113ad6113916101808301516001600160a01b031690565b6001600160a01b03166001600160a01b0319600e541617600e55565b6113e16113c56101a08301516001600160a01b031690565b6001600160a01b03166001600160a01b0319600f541617600f55565b01516001600160a01b031690565b6001600160a01b03166001600160a01b03196010541617601055565b565b67ffffffffffffffff81116102b757601f01601f191660200190565b9081602091031261012e5751801515810361012e5790565b61149c6001600160a01b036002541660405161145c8161029b565b600881527f6973536166652829000000000000000000000000000000000000000000000000602082015260405191611493836102bc565b60008352611580565b90806114bb575b1561025157806020806110fb93518301019101611429565b5060208151146114a3565b6115296001600160a01b0380600254166040519160209416848301528382526114ee8261029b565b604051906114fb8261029b565b601582527f697353656375726542617365286164647265737329000000000000000000000085830152611580565b9080611546575b1561025157816110fb9282518301019101611429565b5081815114611530565b3d1561157b573d906115618261140d565b9161156f60405193846102d8565b82523d6000602084013e565b606090565b9190823b15611615577fffffffff00000000000000000000000000000000000000000000000000000000815160208093012016916040519180830193845281519160005b8381106116015750505091816115f1602482600097959688970187838201520360048101845201826102d8565b51915afa6115fd611550565b9091565b8181018301518582016024015282016115c4565b505050600090604051611627816102bc565b6000815290565b929161163c91600094611580565b9080611661575b61164a5750565b90915060208180518101031261012e576020015190565b50602081511461164356fea26469706673582212203be67276c92b61eef446de776c94497ebe1c0592827a5995d84065013fcb6ccd64736f6c63430008140033","linkReferences":{}},"methodIdentifiers":{"Burn(uint256)":"b90306ad","UserToWithdraw(address)":"bce486eb","UserToWithdrawDollar(address)":"60aabd80","_delegatorCount()":"a1f7f539","_getImplementation(address)":"c54e44b0","_isDelegatorNode(address)":"e01ad5fd","_isSafe()":"e0a9bc2b","_isSecureBase(address)":"af484526","_isSigner(address)":"1f185d16","getBalance()":"12065fe0","getClaimInfo(address)":"0835fe47","getHexbase()":"3b9b7955","owner()":"8da5cb5b","syncBaseAddr()":"339459a6","systemAge()":"fdc10bc9","updateClaimedDollar(address[],uint256[],uint256[])":"20ac5f46"},"id":54}