{"abi":[{"type":"constructor","inputs":[{"name":"_hex","type":"address","internalType":"address"}],"stateMutability":"nonpayable"},{"type":"fallback","stateMutability":"payable"},{"type":"receive","stateMutability":"payable"},{"type":"function","name":"Burn","inputs":[{"name":"amount","type":"uint256","internalType":"uint256"}],"outputs":[],"stateMutability":"nonpayable"},{"type":"function","name":"NFTAgePointer","inputs":[],"outputs":[{"name":"","type":"uint256","internalType":"uint256"}],"stateMutability":"view"},{"type":"function","name":"NFTSendPerCycle","inputs":[],"outputs":[{"name":"","type":"uint256","internalType":"uint256"}],"stateMutability":"view"},{"type":"function","name":"START_DAY","inputs":[],"outputs":[{"name":"","type":"uint256","internalType":"uint256"}],"stateMutability":"view"},{"type":"function","name":"StartAgePointerLEQ","inputs":[],"outputs":[{"name":"","type":"uint256","internalType":"uint256"}],"stateMutability":"view"},{"type":"function","name":"_delegatorCount","inputs":[],"outputs":[{"name":"","type":"uint256","internalType":"uint256"}],"stateMutability":"view"},{"type":"function","name":"_getImplementation","inputs":[{"name":"clone","type":"address","internalType":"address"}],"outputs":[{"name":"impl","type":"address","internalType":"address"}],"stateMutability":"view"},{"type":"function","name":"_isDelegatorNode","inputs":[{"name":"sender","type":"address","internalType":"address"}],"outputs":[{"name":"","type":"bool","internalType":"bool"}],"stateMutability":"view"},{"type":"function","name":"_isSafe","inputs":[],"outputs":[{"name":"","type":"bool","internalType":"bool"}],"stateMutability":"view"},{"type":"function","name":"_isSecureBase","inputs":[{"name":"sender","type":"address","internalType":"address"}],"outputs":[{"name":"","type":"bool","internalType":"bool"}],"stateMutability":"view"},{"type":"function","name":"_isSigner","inputs":[{"name":"sender","type":"address","internalType":"address"}],"outputs":[{"name":"","type":"bool","internalType":"bool"}],"stateMutability":"view"},{"type":"function","name":"allowForceTransfer","inputs":[],"outputs":[{"name":"","type":"bool","internalType":"bool"}],"stateMutability":"view"},{"type":"function","name":"burncnfg","inputs":[],"outputs":[{"name":"target1","type":"address","internalType":"address"},{"name":"roiN1","type":"uint256","internalType":"uint256"},{"name":"roiD1","type":"uint256","internalType":"uint256"},{"name":"target2","type":"address","internalType":"address"},{"name":"roiN2","type":"uint256","internalType":"uint256"},{"name":"roiD2","type":"uint256","internalType":"uint256"}],"stateMutability":"view"},{"type":"function","name":"capping","inputs":[],"outputs":[{"name":"multiple","type":"uint256","internalType":"uint256"},{"name":"multipledollar","type":"uint256","internalType":"uint256"},{"name":"onOzone","type":"bool","internalType":"bool"},{"name":"onDollar","type":"bool","internalType":"bool"}],"stateMutability":"view"},{"type":"function","name":"computeDollarToOzone","inputs":[{"name":"_dollar","type":"uint256","internalType":"uint256"}],"outputs":[{"name":"","type":"uint256","internalType":"uint256"}],"stateMutability":"view"},{"type":"function","name":"computeMintValue","inputs":[{"name":"_qty","type":"uint256","internalType":"uint256"}],"outputs":[{"name":"","type":"uint256","internalType":"uint256"}],"stateMutability":"view"},{"type":"function","name":"computeOzoneToDollar","inputs":[{"name":"_ozone","type":"uint256","internalType":"uint256"}],"outputs":[{"name":"","type":"uint256","internalType":"uint256"}],"stateMutability":"view"},{"type":"function","name":"computeTour","inputs":[{"name":"_r","type":"uint256","internalType":"uint256"}],"outputs":[{"name":"","type":"uint256","internalType":"uint256"}],"stateMutability":"view"},{"type":"function","name":"daySeconds","inputs":[],"outputs":[{"name":"","type":"uint256","internalType":"uint256"}],"stateMutability":"view"},{"type":"function","name":"eachclaimCycle","inputs":[],"outputs":[{"name":"","type":"uint256","internalType":"uint256"}],"stateMutability":"view"},{"type":"function","name":"freeIntervals","inputs":[],"outputs":[{"name":"","type":"uint256","internalType":"uint256"}],"stateMutability":"view"},{"type":"function","name":"getBalance","inputs":[],"outputs":[{"name":"","type":"uint256","internalType":"uint256"}],"stateMutability":"view"},{"type":"function","name":"getBatchRoyaltyClauses","inputs":[],"outputs":[{"name":"clauses","type":"tuple[7]","internalType":"struct lib741Rules.RoyalityStr[7]","components":[{"name":"rwNum","type":"uint256","internalType":"uint256"},{"name":"rwDen","type":"uint256","internalType":"uint256"},{"name":"rwEnd","type":"uint256","internalType":"uint256"}]}],"stateMutability":"view"},{"type":"function","name":"getHexbase","inputs":[],"outputs":[{"name":"","type":"address","internalType":"address"}],"stateMutability":"view"},{"type":"function","name":"getNftPool","inputs":[{"name":"_type","type":"uint256","internalType":"uint256"},{"name":"_mintage","type":"uint256","internalType":"uint256"}],"outputs":[{"name":"_startfrom","type":"uint256","internalType":"uint256"},{"name":"_roiN","type":"uint256","internalType":"uint256"},{"name":"_roiD","type":"uint256","internalType":"uint256"},{"name":"_roiInt","type":"uint256","internalType":"uint256"}],"stateMutability":"nonpayable"},{"type":"function","name":"iAge","inputs":[],"outputs":[{"name":"","type":"uint256","internalType":"uint256"}],"stateMutability":"view"},{"type":"function","name":"levelClause","inputs":[{"name":"","type":"uint256","internalType":"uint256"}],"outputs":[{"name":"rank","type":"uint256","internalType":"uint256"},{"name":"rwNum","type":"uint256","internalType":"uint256"},{"name":"rwrDen","type":"uint256","internalType":"uint256"},{"name":"yeiNum","type":"uint256","internalType":"uint256"},{"name":"yeiDen","type":"uint256","internalType":"uint256"}],"stateMutability":"view"},{"type":"function","name":"loaddefaultvalue","inputs":[],"outputs":[],"stateMutability":"nonpayable"},{"type":"function","name":"maxClaimPerDay","inputs":[],"outputs":[{"name":"","type":"uint256","internalType":"uint256"}],"stateMutability":"view"},{"type":"function","name":"maxGlobalClaimPerDay","inputs":[],"outputs":[{"name":"","type":"uint256","internalType":"uint256"}],"stateMutability":"view"},{"type":"function","name":"maxMappedLimit","inputs":[],"outputs":[{"name":"","type":"uint256","internalType":"uint256"}],"stateMutability":"pure"},{"type":"function","name":"maxMintQty","inputs":[],"outputs":[{"name":"","type":"uint256","internalType":"uint256"}],"stateMutability":"view"},{"type":"function","name":"maxMintsPerCycle","inputs":[],"outputs":[{"name":"","type":"uint256","internalType":"uint256"}],"stateMutability":"view"},{"type":"function","name":"maxNFTSend","inputs":[],"outputs":[{"name":"","type":"uint256","internalType":"uint256"}],"stateMutability":"view"},{"type":"function","name":"minClaimPerDay","inputs":[],"outputs":[{"name":"","type":"uint256","internalType":"uint256"}],"stateMutability":"view"},{"type":"function","name":"minMintQty","inputs":[],"outputs":[{"name":"","type":"uint256","internalType":"uint256"}],"stateMutability":"view"},{"type":"function","name":"mintCycleDays","inputs":[],"outputs":[{"name":"","type":"uint256","internalType":"uint256"}],"stateMutability":"view"},{"type":"function","name":"mintFeePerQty","inputs":[],"outputs":[{"name":"","type":"uint256","internalType":"uint256"}],"stateMutability":"view"},{"type":"function","name":"owner","inputs":[],"outputs":[{"name":"","type":"address","internalType":"address"}],"stateMutability":"view"},{"type":"function","name":"pool","inputs":[],"outputs":[{"name":"startafter","type":"uint256","internalType":"uint256"},{"name":"stakeN","type":"uint256","internalType":"uint256"},{"name":"stakeD","type":"uint256","internalType":"uint256"},{"name":"roiN","type":"uint256","internalType":"uint256"},{"name":"roiD","type":"uint256","internalType":"uint256"},{"name":"roiInt","type":"uint256","internalType":"uint256"},{"name":"roiEnd","type":"uint256","internalType":"uint256"}],"stateMutability":"view"},{"type":"function","name":"poolNFT1","inputs":[],"outputs":[{"name":"roiN","type":"uint256","internalType":"uint256"},{"name":"roiD","type":"uint256","internalType":"uint256"},{"name":"roiInt","type":"uint256","internalType":"uint256"},{"name":"startfrom","type":"uint256","internalType":"uint256"}],"stateMutability":"view"},{"type":"function","name":"poolNFT2","inputs":[],"outputs":[{"name":"roiN","type":"uint256","internalType":"uint256"},{"name":"roiD","type":"uint256","internalType":"uint256"},{"name":"roiInt","type":"uint256","internalType":"uint256"},{"name":"startfrom","type":"uint256","internalType":"uint256"}],"stateMutability":"view"},{"type":"function","name":"rankClause","inputs":[{"name":"","type":"uint256","internalType":"uint256"}],"outputs":[{"name":"direct","type":"uint256","internalType":"uint256"},{"name":"nftAmount","type":"uint256","internalType":"uint256"},{"name":"eRnk","type":"uint256","internalType":"uint256"},{"name":"gRnk","type":"uint256","internalType":"uint256"},{"name":"gPrd","type":"uint256","internalType":"uint256"}],"stateMutability":"view"},{"type":"function","name":"rankforDAO","inputs":[],"outputs":[{"name":"","type":"uint256","internalType":"uint256"}],"stateMutability":"view"},{"type":"function","name":"royalityClause","inputs":[{"name":"","type":"uint256","internalType":"uint256"}],"outputs":[{"name":"rwNum","type":"uint256","internalType":"uint256"},{"name":"rwDen","type":"uint256","internalType":"uint256"},{"name":"rwEnd","type":"uint256","internalType":"uint256"}],"stateMutability":"view"},{"type":"function","name":"sessionTTLSeconds","inputs":[],"outputs":[{"name":"","type":"uint256","internalType":"uint256"}],"stateMutability":"view"},{"type":"function","name":"setAllowForceTransfer","inputs":[{"name":"_f","type":"bool","internalType":"bool"}],"outputs":[],"stateMutability":"nonpayable"},{"type":"function","name":"setBurnConfig","inputs":[{"name":"_target1","type":"address","internalType":"address"},{"name":"_roiN1","type":"uint256","internalType":"uint256"},{"name":"_roiD1","type":"uint256","internalType":"uint256"},{"name":"_target2","type":"address","internalType":"address"},{"name":"_roiN2","type":"uint256","internalType":"uint256"},{"name":"_roiD2","type":"uint256","internalType":"uint256"}],"outputs":[],"stateMutability":"nonpayable"},{"type":"function","name":"setCapping","inputs":[{"name":"_multiple","type":"uint256","internalType":"uint256"},{"name":"_multipledollar","type":"uint256","internalType":"uint256"},{"name":"_onOzone","type":"bool","internalType":"bool"},{"name":"_onDollar","type":"bool","internalType":"bool"}],"outputs":[],"stateMutability":"nonpayable"},{"type":"function","name":"setClaimPerDay","inputs":[{"name":"_min","type":"uint256","internalType":"uint256"},{"name":"_max","type":"uint256","internalType":"uint256"}],"outputs":[],"stateMutability":"nonpayable"},{"type":"function","name":"setCoinPool","inputs":[{"name":"_start","type":"uint256","internalType":"uint256"},{"name":"_stakeN","type":"uint256","internalType":"uint256"},{"name":"_stakeD","type":"uint256","internalType":"uint256"},{"name":"_roiN","type":"uint256","internalType":"uint256"},{"name":"_roiD","type":"uint256","internalType":"uint256"},{"name":"_roiInt","type":"uint256","internalType":"uint256"},{"name":"_roiEnd","type":"uint256","internalType":"uint256"}],"outputs":[],"stateMutability":"nonpayable"},{"type":"function","name":"setCurrentAge","inputs":[{"name":"targetAge","type":"uint256","internalType":"uint256"}],"outputs":[],"stateMutability":"nonpayable"},{"type":"function","name":"setDaySeconds","inputs":[{"name":"_seconds","type":"uint256","internalType":"uint256"}],"outputs":[],"stateMutability":"nonpayable"},{"type":"function","name":"setFreeIntervals","inputs":[{"name":"_d","type":"uint256","internalType":"uint256"}],"outputs":[],"stateMutability":"nonpayable"},{"type":"function","name":"setGlobalClaimPerDay","inputs":[{"name":"_ac","type":"uint256","internalType":"uint256"}],"outputs":[],"stateMutability":"nonpayable"},{"type":"function","name":"setMaxMintsPerCycle","inputs":[{"name":"_max","type":"uint256","internalType":"uint256"}],"outputs":[],"stateMutability":"nonpayable"},{"type":"function","name":"setMaxNFTSend","inputs":[{"name":"_d","type":"uint256","internalType":"uint256"}],"outputs":[],"stateMutability":"nonpayable"},{"type":"function","name":"setMintCycleDays","inputs":[{"name":"_d","type":"uint256","internalType":"uint256"}],"outputs":[],"stateMutability":"nonpayable"},{"type":"function","name":"setMintFee","inputs":[{"name":"_fe","type":"uint256","internalType":"uint256"}],"outputs":[],"stateMutability":"nonpayable"},{"type":"function","name":"setMintQty","inputs":[{"name":"_min","type":"uint256","internalType":"uint256"},{"name":"_max","type":"uint256","internalType":"uint256"}],"outputs":[],"stateMutability":"nonpayable"},{"type":"function","name":"setNFTAgePointer","inputs":[{"name":"_point","type":"uint256","internalType":"uint256"},{"name":"_leq","type":"uint256","internalType":"uint256"}],"outputs":[],"stateMutability":"nonpayable"},{"type":"function","name":"setNFTSendPerCycle","inputs":[{"name":"_d","type":"uint256","internalType":"uint256"}],"outputs":[],"stateMutability":"nonpayable"},{"type":"function","name":"setNftPool","inputs":[{"name":"_type","type":"uint256","internalType":"uint256"},{"name":"_roiN","type":"uint256","internalType":"uint256"},{"name":"_roiD","type":"uint256","internalType":"uint256"},{"name":"_roiInt","type":"uint256","internalType":"uint256"},{"name":"_startfrom","type":"uint256","internalType":"uint256"}],"outputs":[],"stateMutability":"nonpayable"},{"type":"function","name":"setPauseSystem","inputs":[{"name":"_login","type":"bool","internalType":"bool"},{"name":"_mint","type":"bool","internalType":"bool"},{"name":"_claim","type":"bool","internalType":"bool"},{"name":"_reJoin","type":"bool","internalType":"bool"},{"name":"_newJoin","type":"bool","internalType":"bool"},{"name":"_shutdown","type":"bool","internalType":"bool"}],"outputs":[],"stateMutability":"nonpayable"},{"type":"function","name":"setRoyalityClause","inputs":[{"name":"_rank","type":"uint256","internalType":"uint256"},{"name":"_rwNum","type":"uint256","internalType":"uint256"},{"name":"_rwDen","type":"uint256","internalType":"uint256"},{"name":"_rwEnd","type":"uint256","internalType":"uint256"}],"outputs":[],"stateMutability":"nonpayable"},{"type":"function","name":"setSessionTTL","inputs":[{"name":"_s","type":"uint256","internalType":"uint256"}],"outputs":[],"stateMutability":"nonpayable"},{"type":"function","name":"setTourClause","inputs":[{"name":"_rank","type":"uint256","internalType":"uint256"},{"name":"_tw","type":"uint256","internalType":"uint256"}],"outputs":[],"stateMutability":"nonpayable"},{"type":"function","name":"setValidatorPool","inputs":[{"name":"_type","type":"uint256","internalType":"uint256"},{"name":"_qty","type":"uint256","internalType":"uint256"},{"name":"_roiN","type":"uint256","internalType":"uint256"},{"name":"_roiD","type":"uint256","internalType":"uint256"},{"name":"_roiInt","type":"uint256","internalType":"uint256"}],"outputs":[],"stateMutability":"nonpayable"},{"type":"function","name":"setclaimCycle","inputs":[{"name":"_d","type":"uint256","internalType":"uint256"}],"outputs":[],"stateMutability":"nonpayable"},{"type":"function","name":"setlevelClause","inputs":[{"name":"lvl","type":"uint256","internalType":"uint256"},{"name":"_rank","type":"uint256","internalType":"uint256"},{"name":"_rpernum","type":"uint256","internalType":"uint256"},{"name":"_rperden","type":"uint256","internalType":"uint256"},{"name":"_ypernum","type":"uint256","internalType":"uint256"},{"name":"_yperden","type":"uint256","internalType":"uint256"}],"outputs":[],"stateMutability":"nonpayable"},{"type":"function","name":"setrankClause","inputs":[{"name":"rnk","type":"uint256","internalType":"uint256"},{"name":"dirc","type":"uint256","internalType":"uint256"},{"name":"nftAmt","type":"uint256","internalType":"uint256"},{"name":"ernk","type":"uint256","internalType":"uint256"},{"name":"grnk","type":"uint256","internalType":"uint256"},{"name":"gprd","type":"uint256","internalType":"uint256"}],"outputs":[],"stateMutability":"nonpayable"},{"type":"function","name":"setrankforDAO","inputs":[{"name":"_r","type":"uint256","internalType":"uint256"}],"outputs":[],"stateMutability":"nonpayable"},{"type":"function","name":"syncBaseAddr","inputs":[],"outputs":[],"stateMutability":"nonpayable"},{"type":"function","name":"system","inputs":[],"outputs":[{"name":"login","type":"bool","internalType":"bool"},{"name":"mint","type":"bool","internalType":"bool"},{"name":"claim","type":"bool","internalType":"bool"},{"name":"reJoin","type":"bool","internalType":"bool"},{"name":"newJoin","type":"bool","internalType":"bool"},{"name":"shutdown","type":"bool","internalType":"bool"}],"stateMutability":"view"},{"type":"function","name":"systemAge","inputs":[],"outputs":[{"name":"","type":"uint256","internalType":"uint256"}],"stateMutability":"view"},{"type":"function","name":"tourClause","inputs":[{"name":"","type":"uint256","internalType":"uint256"}],"outputs":[{"name":"","type":"uint256","internalType":"uint256"}],"stateMutability":"view"},{"type":"function","name":"valExternal","inputs":[],"outputs":[{"name":"qtyORmul","type":"uint256","internalType":"uint256"},{"name":"roiN","type":"uint256","internalType":"uint256"},{"name":"roiD","type":"uint256","internalType":"uint256"},{"name":"roiInt","type":"uint256","internalType":"uint256"}],"stateMutability":"view"},{"type":"function","name":"valInternal","inputs":[],"outputs":[{"name":"qtyORmul","type":"uint256","internalType":"uint256"},{"name":"roiN","type":"uint256","internalType":"uint256"},{"name":"roiD","type":"uint256","internalType":"uint256"},{"name":"roiInt","type":"uint256","internalType":"uint256"}],"stateMutability":"view"},{"type":"event","name":"EthBurned","inputs":[{"name":"sender","type":"address","indexed":true,"internalType":"address"},{"name":"amount","type":"uint256","indexed":false,"internalType":"uint256"}],"anonymous":false},{"type":"event","name":"EthTransferred","inputs":[{"name":"to","type":"address","indexed":true,"internalType":"address"},{"name":"amount","type":"uint256","indexed":false,"internalType":"uint256"}],"anonymous":false},{"type":"event","name":"HexBaseUpdated","inputs":[{"name":"previousHexBase","type":"address","indexed":true,"internalType":"address"},{"name":"newHexBase","type":"address","indexed":true,"internalType":"address"}],"anonymous":false},{"type":"event","name":"OwnerUpdated","inputs":[{"name":"previousOwner","type":"address","indexed":true,"internalType":"address"},{"name":"newOwner","type":"address","indexed":true,"internalType":"address"}],"anonymous":false},{"type":"error","name":"InvalidAddress","inputs":[]},{"type":"error","name":"InvalidDaySeconds","inputs":[]},{"type":"error","name":"InvalidLevel","inputs":[]},{"type":"error","name":"InvalidRank","inputs":[]},{"type":"error","name":"InvalidState","inputs":[]},{"type":"error","name":"NotAuthorized","inputs":[]},{"type":"error","name":"NotSafe","inputs":[]},{"type":"error","name":"TargetCallFailed","inputs":[{"name":"selector","type":"bytes4","internalType":"bytes4"}]}],"bytecode":{"object":"0x6080806040523462000a6d5762000039620041b191823803809362000025828462000aaa565b82396001600160a01b039281019062000ace565b16801562000a5b573360018060a01b031960015416176001558060018060a01b0319600054161760005542600d556201518080600e5560a760235560b4602455601e6029556001602a556001602b556002602c5561c350602d55610258602e556003602f55601960305569054b40b1f852bda00000603155670de0b6b3a764000060325569021e19e0c9bab24000006033556001603455610384603555600560445560ff1960455416604555614d584201804211620009cb5704600f5560405160e081016001600160401b0381118282101762000a45576102589160c0916040526002815260646020820152600160408201526023606082015260646080820152600160a08201520152600260145560646015556001601655602360175560646018556001601955610258601a55605a60606200017562000aef565b60198152600a602082015282604082015201526019601b55600a601c55605a601d55605a601e55620001a662000aef565b6005815260016020820152605a60606101689283604082015201526005601f556001602055602155605a602255600060a0620001e162000b25565b828152826020820152826040820152826060820152826080820152015265ffffffffffff1960285416602855600160406200021b62000aef565b600381526003602082015282606082015201526003602555600360265561010161ffff1960275416176027556200025162000aef565b610258606061014092838152600b6020820152600a60408201520152603655600b603755600a60385561025860395561025860606200028f62000aef565b60d28152600b6020820152600a6040820152015260d2603a55600b603b55600a603c55610258603d55620002c262000b25565b90604051635e09dbe760e01b8152602081600481855afa91821562000a175760049260209260009162000a23575b506001600160a01b03168452605f828501526001604080860191909152516311be646b60e21b815292839182905afa801562000a1757604091600091620009e1575b5060018060a01b03169182606082015260056080820152600160a082015260018060a01b0381511660018060a01b0319603e541617603e556020810151603f55015160405560018060a01b0319604154161760415560056042556001604355620003d8604051620003a38162000a72565b6000815260006020820152600060408201526000606082015261270f6080820152600080526011602052604060002062000b68565b62000420604051620003ea8162000a72565b6007815260196020820152600060408201526000606082015261270f608082015260016000526011602052604060002062000b68565b62000468604051620004328162000a72565b6007815260646020820152600060408201526000606082015261270f608082015260026000526011602052604060002062000b68565b620004b06040516200047a8162000a72565b600781526101f460208201526003604082015260006060820152601e608082015260036000526011602052604060002062000b68565b620004f8604051620004c28162000a72565b600781526107d060208201526004604082015260036060820152601e608082015260046000526011602052604060002062000b68565b620005416040516200050a8162000a72565b600781526113886020820152600460408201526004606082015261270f608082015260056000526011602052604060002062000b68565b6200058a604051620005538162000a72565b600781526127106020820152600460408201526004606082015261270f608082015260066000526011602052604060002062000b68565b620005d36040516200059c8162000a72565b600781526161a86020820152600460408201526004606082015261270f608082015260076000526011602052604060002062000b68565b6200061a604051620005e58162000a72565b600081526006602082015260016040820152600560608201526001608082015260016000526013602052604060002062000b68565b620006616040516200062c8162000a72565b600081526003602082015260016040820152600560608201526001608082015260026000526013602052604060002062000b68565b620006a8604051620006738162000a72565b60028152600f6020820152600a6040820152600560608201526001608082015260036000526013602052604060002062000b68565b620006ef604051620006ba8162000a72565b60028152600f6020820152600a6040820152600560608201526001608082015260046000526013602052604060002062000b68565b62000736604051620007018162000a72565b60028152600f6020820152600a6040820152600560608201526001608082015260056000526013602052604060002062000b68565b60065b600f8111156200097257604051620007518162000a8e565b6012808252600a6020808401918252602d604080860191825260036000529390915292517f0f36ad39aee03e7108cc48f54934702a5f0d4066f10344cebf8198978d86976a55517f0f36ad39aee03e7108cc48f54934702a5f0d4066f10344cebf8198978d86976b5590517f0f36ad39aee03e7108cc48f54934702a5f0d4066f10344cebf8198978d86976c5551620007ea8162000a8e565b6012808252600a6020808401918252605a604080860191825260056000529390915292517f45429b9195d4ec5c0cf6c69e9c21a4ca0ea773b702c2de5735f85d2631f2674655517f45429b9195d4ec5c0cf6c69e9c21a4ca0ea773b702c2de5735f85d2631f267475590517f45429b9195d4ec5c0cf6c69e9c21a4ca0ea773b702c2de5735f85d2631f267485551620008838162000a8e565b60098152600a602080830191825261270f6040808501918252600760009081526012845294517f724fd36bd271795fe7866d4cc83b61084ef704502b00c2e0b28047123b3c1acc5592517f724fd36bd271795fe7866d4cc83b61084ef704502b00c2e0b28047123b3c1acd55517f724fd36bd271795fe7866d4cc83b61084ef704502b00c2e0b28047123b3c1ace556010905260327f853b2fefe141400fef543280f93d98bd49996069f632d0d20236afeeed8e46a25560049091526101f47f1588ac671d87f82adc0e6ae8ab009c0de98f92a20243897597e566bc59b9c1265551613619908162000b988239f35b620009b8604051620009848162000a72565b60028152604b60208201526064604082015260fa606082015260646080820152826000526013602052604060002062000b68565b6000198114620009cb5760010162000739565b634e487b7160e01b600052601160045260246000fd5b62000a08915060203d60201162000a0f575b620009ff818362000aaa565b81019062000ace565b3862000332565b503d620009f3565b6040513d6000823e3d90fd5b62000a3e9150833d851162000a0f57620009ff818362000aaa565b38620002f0565b634e487b7160e01b600052604160045260246000fd5b60405163e6c4247b60e01b8152600490fd5b600080fd5b60a081019081106001600160401b0382111762000a4557604052565b606081019081106001600160401b0382111762000a4557604052565b601f909101601f19168101906001600160401b0382119082101762000a4557604052565b9081602091031262000a6d57516001600160a01b038116810362000a6d5790565b60405190608082016001600160401b0381118382101762000a455760405260006060838281528260208201528260408201520152565b6040519060c082016001600160401b0381118382101762000a45576040528160a06000918281528260208201528260408201528260608201528260808201520152565b90608060049180518455602081015160018501556040810151600285015560608101516003850155015191015556fe60806040526004361015610018575b361561001657005b005b60003560e01c806304ce9f80146104f85780630609a0e3146104f357806307175c83146104ee57806309307c62146104e95780630aa4b750146104e45780630b225f1a146104df5780630ea0d222146104da57806312065fe0146104d557806314be92a5146104d057806315a544ed146104cb5780631605aed9146104c657806316f0115b146104c1578063179b570a146104bc578063192b48ee146104b75780631ef6a864146104b25780631f185d16146104ad578063203bab66146104a857806326c5adae146104a3578063298fc4601461049e57806332b55dd014610499578063339459a6146104945780633688236d1461048f5780633b9b79551461048a5780633eb71c06146104855780634151331d14610480578063438fe1921461047b57806344ec16bc146104765780634b62954f1461047157806353423e861461046c578063541d76671461046757806354541683146104625780635640dbfc1461045d578063592a02a8146104585780635962205f146104535780635a0e90381461044e5780636c7deb5d146104495780636f092c5e1461044457806378ef376f1461043f5780637bc908c61461043a5780637ca4b9c11461043557806382a3c50314610430578063840bbc1e1461042b5780638da5cb5b1461042657806391fc8aa8146104215780639319d0b51461041c57806395bf75fd146104175780639624e4ff146104125780639d80ab9b1461040d5780639e3c5255146104085780639eb8b44e146104035780639f70207d146103fe578063a19841dd146103f9578063a1f7f539146103f4578063a88fcea6146103ef578063a896d825146103ea578063ac14611a146103e5578063aebcd32a146103e0578063af0b21d3146103db578063af484526146103d6578063b49c064c146103d1578063b85f1f8d146103cc578063b90306ad146103c7578063b993418d146103c2578063c3c360ba146103bd578063c54e44b0146103b8578063c5a136d4146103b3578063d0bb2ddf146103ae578063dbad649c146103a9578063e01ad5fd146103a4578063e0a9bc2b1461039f578063e19a5bcf1461039a578063eddd0d9c14610395578063f27c35c614610390578063f2a6bbc71461038b578063f4fe8e3c14610386578063f7a9783e14610381578063fcd8e61a1461037c5763fdc10bc90361000e57612ba9565b612b8b565b612b4a565b612ae1565b612a92565b612a11565b6129c2565b612935565b61291a565b612853565b612835565b6127e0565b612734565b6126d8565b611e60565b611dbc565b611cd4565b611ca6565b611c83565b611c52565b611c34565b611beb565b611bd0565b611bb3565b611b95565b611b33565b611b05565b611ae7565b611937565b611835565b611807565b6117e9565b611784565b611735565b611717565b6116ee565b6116b6565b611611565b611518565b6114fa565b6114ab565b61147f565b611430565b611402565b6113b9565b6112f9565b611292565b611274565b6111f5565b6111d7565b611182565b611133565b611115565b6110d2565b611083565b61105a565b61103c565b610c6f565b610bc3565b610b5b565b610adc565b610a53565b610990565b6108e6565b610856565b610801565b6107b0565b610792565b610774565b610725565b610709565b6106eb565b6106cd565b6106af565b61065a565b61063c565b6105c9565b610519565b9094939260609260808301968352602083015260408201520152565b346105c45760403660031901126105c45760008080806024356004356001811461058e575b60021461055c575b509061055891604051948594856104fd565b0390f35b601f546020546021546023549297509095506105589450925010610586576024545b929091610546565b60225461057e565b935093505050601b5491601c54601d54918060235410156000146105ba5760026024545b94905061053e565b6002601e546105b2565b600080fd5b346105c45760203660031901126105c4576105e2612fc2565b1561062a576105f033613034565b8015610616575b1561060457600435602955005b60405163ea8e4eb560e01b8152600490fd5b506005546001600160a01b031633146105f7565b604051634ee2123760e11b8152600490fd5b346105c45760003660031901126105c4576020603054604051908152f35b346105c45760403660031901126105c457610673612fc2565b1561062a5761068133613034565b801561069b575b1561060457600435603255602435603355005b506005546001600160a01b03163314610688565b346105c45760003660031901126105c4576020603554604051908152f35b346105c45760003660031901126105c4576020604454604051908152f35b346105c45760003660031901126105c4576020602e54604051908152f35b346105c45760003660031901126105c457602047604051908152f35b346105c45760203660031901126105c45761073e612fc2565b1561062a5761074c33613034565b8015610760575b1561060457600435602e55005b506005546001600160a01b03163314610753565b346105c45760003660031901126105c4576020603354604051908152f35b346105c45760003660031901126105c4576020603254604051908152f35b346105c45760003660031901126105c45760e06014546015546016546017546018549060195492601a5494604051968752602087015260408601526060850152608084015260a083015260c0820152f35b346105c45760403660031901126105c45761081a612fc2565b1561062a5761082833613034565b8015610842575b1561060457600435602355602480359055005b506005546001600160a01b0316331461082f565b346105c45760203660031901126105c457600435610872612fc2565b1561062a5761088033613034565b80156108b0575b1561060457670de0b6b3a7640000908181029181830414901517156108ab57603155005b6131c7565b506005546001600160a01b03163314610887565b60a09060031901126105c4576004359060243590604435906064359060843590565b346105c4576108f4366108c4565b9061090194929394612fc2565b1561062a5761090f33613034565b801561095f575b15610604576002936109266132a5565b95865260208601526040850152606084015260018114610951575b1461094857005b610016906132e8565b61095a836132ca565b610941565b506005546001600160a01b03163314610916565b6001600160a01b031690565b6001600160a01b038116036105c457565b346105c4576020806003193601126105c457610a036004356109b18161097f565b6002546040516001600160a01b039283168582015284815291166109d482612c7c565b604051906109e182612c7c565b601182527069735369676e657228616464726573732960781b858301526130e5565b919080610a49575b15610a37578181610a259261055894518301019101612fad565b60405190151581529081906020820190565b60405163baf3f0f760e01b8152600490fd5b5080825114610a0b565b346105c45760e03660031901126105c457610a6c612fc2565b1561062a57610a7a33613034565b8015610ac8575b1561060457610a8e61325d565b50600435601455602435601555604435601655606435601755610ab2608435601855565b610abd60a435601955565b61001660c435601a55565b506005546001600160a01b03163314610a81565b346105c45760203660031901126105c457610af56134f4565b60305490670de0b6b3a764000091828102908082048414811517156108ab576a0c097ce7bc90715b34b9f160241b029281159184041417156108ab57602091610b44610b499260043592613209565b6134b9565b604051908152f35b801515036105c457565b346105c45760203660031901126105c457600435610b7881610b51565b610b80612fc2565b1561062a57610b8e33613034565b8015610baf575b156106045760ff8019604554169115151617604555600080f35b506005546001600160a01b03163314610b95565b346105c45760803660031901126105c457604435610be081610b51565b606435610bec81610b51565b610bf4612fc2565b1561062a57610c0233613034565b8015610c5b575b1561060457610c4061001692610c20604051612c0b565b600435602555602435602655151560ff8019602754169115151617602755565b151561ff0060275491151560081b169061ff00191617602755565b506005546001600160a01b03163314610c09565b346105c45760008060031936011261103957610c93610c8e8254610973565b610973565b60408051634bf9c0ad60e11b81529160049190602080858581855afa948515610f0057869561101a575b50825163cfbffe5360e01b81529281848681865afa938415610f00578794610ffb575b50805163ab6e844f60e01b815282818781875afa908115610f00578891610fde575b508151630536340960e21b815283818881885afa908115610f00578991610fc1575b50825163d1f956b160e01b81529084828981895afa918215610f00578a92610fa2575b508351631cc3bfab60e31b81529285848a818a5afa938415610f00578b94610f83575b50845163e09d394d60e01b81529486868b818b5afa958615610f00578c96610f64575b5080516314ac1b5960e21b815298878a8c818c5afa978815610f0057610dd49a8e99610f45575b50808c8451809d819263013cf08b60e01b83528201906000602083019252565b03818d5afa998a15610f00578c9b8f9b610f26575b50818451809d635e09dbe760e01b825281845afa9b8c15610f00578f9c610f05575b50819084519d8e8092635506ee0b60e11b82525afa9b8c15610f00578e9c610ed1575b50610e37612d14565b9c610e42908e612d5d565b8c0190610e4e91612d5d565b8a0190610e5a91612d5d565b610e679060608a01612d5d565b610e749060808901612d5d565b610e819060a08801612d5d565b610e8e9060c08701612d5d565b610e9b9060e08601612d5d565b610ea9906101008501612d5d565b610eb7906101208401612d5d565b610ec5906101408301612d5d565b610ece90612d6c565b80f35b81610ef2929d508d3d10610ef9575b610eea8183612ccd565b810190612cf0565b9a38610e2e565b503d610ee0565b612d08565b82919c50610f1f90823d8411610ef957610eea8183612ccd565b9b90610e0b565b610f3e919b50823d8411610ef957610eea8183612ccd565b9938610de9565b81610f5d929a503d8b11610ef957610eea8183612ccd565b9738610db4565b610f7c919650873d8911610ef957610eea8183612ccd565b9438610d8d565b610f9b919450863d8811610ef957610eea8183612ccd565b9238610d6a565b610fba919250853d8711610ef957610eea8183612ccd565b9038610d47565b610fd89150843d8611610ef957610eea8183612ccd565b38610d24565b610ff59150833d8511610ef957610eea8183612ccd565b38610d02565b611013919450823d8411610ef957610eea8183612ccd565b9238610ce0565b816110329296503d8711610ef957610eea8183612ccd565b9338610cbd565b80fd5b346105c45760003660031901126105c4576020602d54604051908152f35b346105c45760003660031901126105c4576000546040516001600160a01b039091168152602090f35b346105c45760203660031901126105c45761109c612fc2565b1561062a576110aa33613034565b80156110be575b1561060457600435603555005b506005546001600160a01b031633146110b1565b346105c45760203660031901126105c457600435600052601260205260606040600020805490600260018201549101549060405192835260208301526040820152f35b346105c45760003660031901126105c4576020602b54604051908152f35b346105c45760203660031901126105c45761114c612fc2565b1561062a5761115a33613034565b801561116e575b1561060457600435602a55005b506005546001600160a01b03163314611161565b346105c45760403660031901126105c45761119b612fc2565b1561062a576111a933613034565b80156111c3575b1561060457600435602c55602435602d55005b506005546001600160a01b031633146111b0565b346105c45760003660031901126105c4576020602f54604051908152f35b346105c45760203660031901126105c45761120e6134f4565b6004356000526010602052604060002054670de0b6b3a764000090818102908082048314811517156108ab576a0c097ce7bc90715b34b9f160241b029181159183041417156108ab576105589161126491613209565b6040519081529081906020820190565b346105c45760003660031901126105c4576020602a54604051908152f35b346105c45760003660031901126105c457608060255460ff6026546027549060405193845260208401528181161515604084015260081c1615156060820152f35b60c09060031901126105c457600435906024359060443590606435906084359060a43590565b346105c457611307366112d3565b91611313959395612fc2565b1561062a5761132133613034565b8015611381575b1561060457601084101561136f57610016956040519561134787612c2b565b8652602086015260408501526060840152608083015260005260136020526040600020613460565b60405163d1459f7960e01b8152600490fd5b506005546001600160a01b03163314611328565b9192608093969594919660a084019784526020840152604083015260608201520152565b346105c45760203660031901126105c457600435600052601360205260406000208054610558600183015492600281015490600460038201549101549160405195869586611395565b346105c45760003660031901126105c457601b54601c5490610558601d54601e5490604051948594856104fd565b346105c45760203660031901126105c457611449612fc2565b1561062a5761145733613034565b801561146b575b1561060457600435602f55005b506005546001600160a01b0316331461145e565b346105c45760203660031901126105c45760043560005260106020526020604060002054604051908152f35b346105c45760203660031901126105c4576114c4612fc2565b1561062a576114d233613034565b80156114e6575b1561060457600435603455005b506005546001600160a01b031633146114d9565b346105c45760003660031901126105c4576020603454604051908152f35b346105c45760c03660031901126105c45760043561153581610b51565b60243561154181610b51565b6044359161154e83610b51565b6064359161155b83610b51565b6084359061156882610b51565b60a4359361157585610b51565b61157d612fc2565b1561062a5761158b33613034565b80156115fd575b1561060457610016956115cf6115ef936115c86115f6976115b4604051612c46565b151560ff8019602854169115151617602855565b1515613375565b62ff000060285491151560101b169062ff0000191617602855151561338e565b15156133ab565b15156133ca565b506005546001600160a01b03163314611592565b346105c45760c03660031901126105c45760043561162e8161097f565b60643561163a8161097f565b611642612fc2565b1561062a5761165033613034565b80156116a2575b1561060457603e80546001600160a01b039384166001600160a01b031991821617909155602435603f556044356040556041805492909316911617905560843560425560a435604355005b506005546001600160a01b03163314611657565b346105c45760203660031901126105c4576020670de0b6b3a76400006116e56116dd6134f4565b6004356134b9565b04604051908152f35b346105c45760003660031901126105c4576001546040516001600160a01b039091168152602090f35b346105c45760003660031901126105c4576020603154604051908152f35b346105c45760203660031901126105c45761174e612fc2565b1561062a5761175c33613034565b8015611770575b1561060457600435602b55005b506005546001600160a01b03163314611763565b346105c45760003660031901126105c45760c06028546040519060ff9081811615158352818160081c1615156020840152818160101c1615156040840152818160181c1615156060840152818160201c161515608084015260281c16151560a0820152f35b346105c45760003660031901126105c4576020600e54604051908152f35b346105c45760003660031901126105c4576036546037549061055860385460395490604051948594856104fd565b346105c45760203660031901126105c457600435611851612fc2565b1561062a5761185f33613034565b80156118de575b156106045761012b81106118a857614d5842018042116108ab576100169161189d6118976118a393600e5490613209565b916131ec565b906131fc565b600f55565b60405162461bcd60e51b815260206004820152600e60248201526d42656c6f7720626173652061676560901b6044820152606490fd5b506005546001600160a01b03163314611866565b6102a0810192916000915b6007831061190a57505050565b600190606083519182518152602092838101518483015260408091015190820152019201920191906118fd565b346105c45760008060031936011261103957604090815161195781612c97565b815b60e08110611ac2576105588461196d612d50565b60016000526012602052906119a67f71a67924699a20698523213e55fe499d539379d7769cd5567e2c45d583f815a36134cc565b6134cc565b8252600260005260126020526119db7f8e1fee8c88a9e04123b21e90cae2727a7715bf522a1e46eb5934ccd05203a6b26134cc565b60208301526119f86119a160036000526012602052604060002090565b8282015260046000526012602052611a2f7fb4fcd034df3d20faa1c133b66d862ce92732727d40916b48ffb4020cb00fe0536134cc565b606083015260056000526012602052611a556000805160206135a48339815191526134cc565b608083015260066000526012602052611a8d7f1223f9031f9dca49a7844c397098ce9a4e80513444d0a8bb59820dff564808e46134cc565b60a083015260076000526012602052611ab36000805160206135c48339815191526134cc565b60c083015251918291826118f2565b6020908451611ad081612c61565b848152848382015284868201528184015201611959565b346105c45760003660031901126105c4576020602354604051908152f35b346105c45760003660031901126105c457603a54603b5490610558603c54603d5490604051948594856104fd565b346105c45760003660031901126105c4576020610b4960018060a01b0360065416604051611b6081612c7c565b601381527267657464656c656761746f72436f756e74282960681b8482015260405191611b8c83612cb2565b6000835261318b565b346105c45760003660031901126105c4576020602c54604051908152f35b346105c45760003660031901126105c45760206040516000198152f35b346105c45760003660031901126105c4576020610b49613229565b346105c45760203660031901126105c457600435600052601160205260406000208054610558600183015492600281015490600460038201549101549160405195869586611395565b346105c45760003660031901126105c4576020602954604051908152f35b346105c45760203660031901126105c4576020611c79600435611c748161097f565b613034565b6040519015158152f35b346105c45760003660031901126105c457602060ff604554166040519015158152f35b346105c45760003660031901126105c457601f546020549061055860215460225490604051948594856104fd565b346105c45760203660031901126105c457600435611cf0612fc2565b1561062a576005546001600160a01b031633036106045760009060046020611d1b610c8e8554610973565b6040516311be646b60e21b815292839182905afa8015610f005783808481949382948391611d9e575b505af1611d4f6130b5565b5015610a37577fcdcc745fe377b103b45fa0cec23ae3ef93d6fc6a84a01f0d18c40b354dd1d5d8611d98611d87610c8e600b54610973565b604051938452929081906020820190565b0390a280f35b611db6915060203d8111610ef957610eea8183612ccd565b38611d44565b346105c45760203660031901126105c457600435611dd8612fc2565b1561062a57611de633613034565b8015611e4c575b15610604578015611e3a57611e00613229565b9080600e55614d584201908142116108ab57611e1b91613209565b908061012a198101116108ab57810361012b019081116108ab57600f55005b6040516327fa89e360e21b8152600490fd5b506005546001600160a01b03163314611ded565b346105c45760008060031936011261103957611e7a612fc2565b1561062a57611e8833613034565b80156126c4575b1561060457611eac6118a3611ea3426131dd565b600e5490613209565b611eb461325d565b90600280835260649260209184838301526001906040918083850152606091602383860152608088818701528260a0870152611f2a610258968760c082015260c0908051601455602081015160155560408101516016556060810151601755608081015160185560a08101516019550151601a55565b611f326132a5565b9360198552611f53600a95868a820152605a88820152605a83820152613306565b612049611f5e6132a5565b97611f7f6005998a8152878c8201526101688a820152605a85820152613324565b611fac611f8a613343565b8c81528c8c8201528c8a8201528c858201528c868201528c60a08201526133e8565b612003611fb76132a5565b60038082528c8201526001858201526001818b015280516025556020810151602655604081015115159060ff61ff006060602754930151151560081b1692169061ffff19161717602755565b61202861200e6132a5565b6101408152600b8c820152888a82015282858201526132ca565b6120306132a5565b9060d28252600b8b8301528789830152838201526132e8565b612051613343565b9661205f610c8e8b54610973565b8751635e09dbe760e01b8152600499918b828c81845afa908115610f00576120938d928f948e95916126a7575b5085612d5d565b605f82850152888b8501528a51928380926311be646b60e21b82525afa908115610f00578c9161268a575b506120cb90828501612d5d565b83810182905260a081018690528051603e80546001600160a01b039283166001600160a01b0319918216179091556020830151603f55604080840151905560608301516041805491909316911617905560800151604255604385905561212f612d34565b978a89528a8a8a01528a888a01528a838a015261270f98898582015261215f600080526011602052604060002090565b9061216991613460565b612171612d34565b600780825260198c8301528982018d90528482018d90528582018b90526001600052601160205291906121c4907f17bc176d2408558f6e4111feebc3cab4e16b63e967be91cde721f4c8a488b552613460565b6121cc612d34565b8281528d8c8201528c8a8201528c858201528a868201526121f860026000526011602052604060002090565b9061220291613460565b61220a612d34565b8281526101f48c82015260038a82018190528582018e9052601e87830152600052601160205261225a907f9bfbaa59f8e10e7868f8b402de9d605a390c45ddaebd8c9de3c6f31e733c87ff613460565b612262612d34565b8281526107d08c820152898101829052600385820152601e86820152600460005260116020526122b2907f251164fe1d8864fe5e86082eae9c288bc2b58695a4d28538dfe86e9e4f175585613460565b6122ba612d34565b8281526113888c8201528981018290528481018290528581018b90526005600052601160205261230a907fc550213cee30afd5e67ccba7be3d381bbc169034ae08eb3ec9168caca9fe55e7613460565b612312612d34565b8281526127108c8201528981018290528481018290528581018b905260066000526011602052612362907ffb9ce45064c7e7d9bf9deb4750ba7c94ab3d6e7418c5d76bf69966d39a9d42f6613460565b61236a612d34565b9182526161a88b83015288820181905283820152838101899052600760005260116020526123b8907f98ae0176de2844d118e1a6decfe92f97691bedbc578c71fc8d5c4374be77e50c613460565b6123c0612d34565b8a815260068a8201528781018690528281018290528381018690526001600052601360205261240f907f4155c2f711f2cdd34f8262ab8fb9b7020a700fe7b6948222152f7670d1fdf34d613460565b612417612d34565b8a815260038a82015287810186905282810182905283810186905260026000526013602052612466907f0b9d2c0c271bb30544eb78c59bdaebdae2728e5f65814c07768a0abe90ed1923613460565b61246e612d34565b94848652600f95868b82015287898201528284820152818582015261249e60036000526013602052604060002090565b906124a891613460565b6124b0612d34565b858152868b8201528789820152828482015281858201526124dc60046000526013602052604060002090565b906124e691613460565b6124ee612d34565b91858352868b8401528789840152838301528382015261251960056000526013602052604060002090565b9061252391613460565b60065b8481111561263f57896125e98a8a8a8a612580612541612d43565b6012808252868201849052602d8583015260036000526020527f0f36ad39aee03e7108cc48f54934702a5f0d4066f10344cebf8198978d86976a61349e565b6125b861258b612d43565b6012808252868201849052605a8583015260056000526020526000805160206135a483398151915261349e565b6125c0612d43565b6009815293840152820152600760005260126020526000805160206135c483398151915261349e565b601060205260327f853b2fefe141400fef543280f93d98bd49996069f632d0d20236afeeed8e46a25560046000526101f47f1588ac671d87f82adc0e6ae8ab009c0de98f92a20243897597e566bc59b9c1265580f35b6126859061268061264e612d34565b868152604b8c8201528d8a82015260fa858201528d8682015261267b836000526013602052604060002090565b613460565b61348f565b612526565b6126a191508b3d8d11610ef957610eea8183612ccd565b386120be565b6126be9150843d8611610ef957610eea8183612ccd565b3861208c565b506005546001600160a01b03163314611e8f565b346105c45760203660031901126105c4576004356126f58161097f565b803b600061270282612f92565b926127106040519485612ccd565b82845260208401903c602d815110610a3757602a602091015160601c604051908152f35b346105c45760803660031901126105c457600435612750612fc2565b1561062a5761275e33613034565b80156127cc575b156106045760088110156127ba5760026040519161278283612c61565b602435835260208301604435815260408401916064358352600052601260205260406000209351845551600184015551910155600080f35b6040516302ba562960e61b8152600490fd5b506005546001600160a01b03163314612765565b346105c45760003660031901126105c45760c060018060a01b0380603e541690603f549060405490604154166042549160435493604051958652602086015260408501526060840152608083015260a0820152f35b346105c45760003660031901126105c4576020602454604051908152f35b346105c4576020806003193601126105c45761055890600435906128768261097f565b6006546040516001600160a01b03938416838201528281529216916128d69061289e81612c7c565b6040516128aa81612c7c565b6018815277697364656c656761746f724e6f646528616464726573732960401b848201526000946130e5565b919080612910575b6128f7575b505060405190151581529081906020820190565b61290992508082518301019101612fad565b38806128e3565b50808251146128de565b346105c45760003660031901126105c4576020611c79612fc2565b346105c457612943366108c4565b9061295094929394612fc2565b1561062a5761295e33613034565b80156129ae575b15610604576002936129756132a5565b958652602086015260408501526060840152600181146129a0575b1461299757005b61001690613324565b6129a983613306565b612990565b506005546001600160a01b03163314612965565b346105c45760203660031901126105c4576129db612fc2565b1561062a576129e933613034565b80156129fd575b1561060457600435603055005b506005546001600160a01b031633146129f0565b346105c457612a1f366112d3565b91612a2b959395612fc2565b1561062a57612a3933613034565b8015612a7e575b15610604576100169560405195612a5687612c2b565b8652602086015260408501526060840152608083015260005260116020526040600020613460565b506005546001600160a01b03163314612a40565b346105c45760203660031901126105c457612aab612fc2565b1561062a57612ab933613034565b8015612acd575b1561060457600435604455005b506005546001600160a01b03163314612ac0565b346105c45760403660031901126105c457600435612afd612fc2565b1561062a57612b0b33613034565b8015612b36575b156106045760088110156127ba576000526010602052602435604060002055600080f35b506005546001600160a01b03163314612b12565b346105c45760203660031901126105c457670de0b6b3a76400006004358181029181159183041417156108ab57610b49602091612b856134f4565b90613209565b346105c45760003660031901126105c4576020600f54604051908152f35b346105c45760003660031901126105c4576020610b4960018060a01b0360035416604051612bd681612c7c565b600681526569416765282960d01b8482015260405191611b8c83612cb2565b634e487b7160e01b600052604160045260246000fd5b608081019081106001600160401b03821117612c2657604052565b612bf5565b60a081019081106001600160401b03821117612c2657604052565b60c081019081106001600160401b03821117612c2657604052565b606081019081106001600160401b03821117612c2657604052565b604081019081106001600160401b03821117612c2657604052565b60e081019081106001600160401b03821117612c2657604052565b602081019081106001600160401b03821117612c2657604052565b601f909101601f19168101906001600160401b03821190821017612c2657604052565b908160209103126105c45751612d058161097f565b90565b6040513d6000823e3d90fd5b6040519061016082016001600160401b03811183821017612c2657604052565b60405190612d4182612c2b565b565b60405190612d4182612c61565b60405190612d4182612c97565b6001600160a01b039091169052565b612f70610140612d4192612da5612d838251610973565b600280546001600160a01b0319166001600160a01b0392909216919091179055565b612dd7612db56020830151610973565b600380546001600160a01b0319166001600160a01b0392909216919091179055565b612e09612de76040830151610973565b600480546001600160a01b0319166001600160a01b0392909216919091179055565b612e3b612e196060830151610973565b600580546001600160a01b0319166001600160a01b0392909216919091179055565b612e6d612e4b6080830151610973565b600680546001600160a01b0319166001600160a01b0392909216919091179055565b612e9f612e7d60a0830151610973565b600780546001600160a01b0319166001600160a01b0392909216919091179055565b612ed1612eaf60c0830151610973565b600880546001600160a01b0319166001600160a01b0392909216919091179055565b612f03612ee160e0830151610973565b600980546001600160a01b0319166001600160a01b0392909216919091179055565b612f36612f14610100830151610973565b600a80546001600160a01b0319166001600160a01b0392909216919091179055565b612f69612f47610120830151610973565b600b80546001600160a01b0319166001600160a01b0392909216919091179055565b0151610973565b600c80546001600160a01b0319166001600160a01b0392909216919091179055565b6001600160401b038111612c2657601f01601f191660200190565b908160209103126105c45751612d0581610b51565b60025460405161300a916001600160a01b031690612fdf81612c7c565b6008815267697353616665282960c01b60208201526040519161300183612cb2565b600083526130e5565b9080613029575b15610a375780602080612d0593518301019101612fad565b506020815114613011565b61308e60018060a01b03806002541660405191602094168483015283825261305b82612c7c565b6040519061306882612c7c565b601582527469735365637572654261736528616464726573732960581b858301526130e5565b90806130ab575b15610a375781612d059282518301019101612fad565b5081815114613095565b3d156130e0573d906130c682612f92565b916130d46040519384612ccd565b82523d6000602084013e565b606090565b9190823b15613163578051906020918263ffffffff60e01b92012016916040519180830193845281519160005b83811061314f57505050918161313f60248260009795968897018783820152036004810184520182612ccd565b51915afa61314b6130b5565b9091565b818101830151858201602401528201613112565b50505060009060405161317581612cb2565b6000815290565b908160209103126105c4575190565b9291613199916000946130e5565b90806131bc575b6131a75750565b612d059192506020808251830101910161317c565b5060208151146131a0565b634e487b7160e01b600052601160045260246000fd5b90614d5882018092116108ab57565b61012a198101919082116108ab57565b919082039182116108ab57565b8115613213570490565b634e487b7160e01b600052601260045260246000fd5b614d5842018042116108ab57600e5461324191613209565b600f5481039081116108ab5761012b9081018091116108ab5790565b6040519060e082016001600160401b03811183821017612c26576040528160c06000918281528260208201528260408201528260608201528260808201528260a08201520152565b604051906132b282612c0b565b60006060838281528260208201528260408201520152565b80516036556020810151603755604081015160385560600151603955565b8051603a556020810151603b556040810151603c5560600151603d55565b8051601b556020810151601c556040810151601d5560600151601e55565b6060908051601f55602081015160205560408101516021550151602255565b6040519061335082612c46565b8160a06000918281528260208201528260408201528260608201528260808201520152565b61ff0060285491151560081b169061ff00191617602855565b63ff00000060285491151560181b169063ff000000191617602855565b6028805460ff60201b191691151560201b60ff60201b16919091179055565b6028805460ff60281b1916911515811b60ff60281b16919091179055565b61345b60a0612d41928051151560ff80196028541691161760285561341260208201511515613375565b6040810151151562ff00006028549160101b169062ff000019161760285561343f6060820151151561338e565b61345461344f6080830151151590565b6133ab565b0151151590565b6133ca565b906080600491805184556020810151600185015560408101516002850155606081015160038501550151910155565b60001981146108ab5760010190565b90604060029180518455602081015160018501550151910155565b818102929181159184041417156108ab57565b906040516134d981612c61565b60406002829480548452600181015460208501520154910152565b613502610c8e600054610973565b60405180916369e8d84b60e11b825281600460209485935afa908115610f00576004918391600091613586575b50604051633ec7601d60e11b815292839182906001600160a01b03165afa918215610f005760009261356057505090565b612d059250803d1061357f575b6135778183612ccd565b81019061317c565b503d61356d565b61359d9150823d8411610ef957610eea8183612ccd565b3861352f56fe45429b9195d4ec5c0cf6c69e9c21a4ca0ea773b702c2de5735f85d2631f26746724fd36bd271795fe7866d4cc83b61084ef704502b00c2e0b28047123b3c1acca26469706673582212200eebb27362085287b13dd7cabc2161734d6f27620d5db3341807d74a1bebef2f64736f6c63430008140033","linkReferences":{}},"methodIdentifiers":{"Burn(uint256)":"b90306ad","NFTAgePointer()":"9f70207d","NFTSendPerCycle()":"438fe192","START_DAY()":"fcd8e61a","StartAgePointerLEQ()":"dbad649c","_delegatorCount()":"a1f7f539","_getImplementation(address)":"c54e44b0","_isDelegatorNode(address)":"e01ad5fd","_isSafe()":"e0a9bc2b","_isSecureBase(address)":"af484526","_isSigner(address)":"1f185d16","allowForceTransfer()":"b49c064c","burncnfg()":"d0bb2ddf","capping()":"5640dbfc","computeDollarToOzone(uint256)":"f7a9783e","computeMintValue(uint256)":"26c5adae","computeOzoneToDollar(uint256)":"840bbc1e","computeTour(uint256)":"541d7667","daySeconds()":"9624e4ff","eachclaimCycle()":"7bc908c6","freeIntervals()":"af0b21d3","getBalance()":"12065fe0","getBatchRoyaltyClauses()":"9eb8b44e","getHexbase()":"3b9b7955","getNftPool(uint256,uint256)":"04ce9f80","iAge()":"ac14611a","levelClause(uint256)":"5962205f","loaddefaultvalue()":"c3c360ba","maxClaimPerDay()":"15a544ed","maxGlobalClaimPerDay()":"91fc8aa8","maxMappedLimit()":"a896d825","maxMintQty()":"3688236d","maxMintsPerCycle()":"53423e86","maxNFTSend()":"54541683","minClaimPerDay()":"1605aed9","minMintQty()":"a88fcea6","mintCycleDays()":"0ea0d222","mintFeePerQty()":"07175c83","owner()":"8da5cb5b","pool()":"16f0115b","poolNFT1()":"5a0e9038","poolNFT2()":"b85f1f8d","rankClause(uint256)":"aebcd32a","rankforDAO()":"0b225f1a","royalityClause(uint256)":"4151331d","sessionTTLSeconds()":"0aa4b750","setAllowForceTransfer(bool)":"298fc460","setBurnConfig(address,uint256,uint256,address,uint256,uint256)":"82a3c503","setCapping(uint256,uint256,bool,bool)":"32b55dd0","setClaimPerDay(uint256,uint256)":"09307c62","setCoinPool(uint256,uint256,uint256,uint256,uint256,uint256,uint256)":"203bab66","setCurrentAge(uint256)":"9e3c5255","setDaySeconds(uint256)":"b993418d","setFreeIntervals(uint256)":"0609a0e3","setGlobalClaimPerDay(uint256)":"192b48ee","setMaxMintsPerCycle(uint256)":"6c7deb5d","setMaxNFTSend(uint256)":"44ec16bc","setMintCycleDays(uint256)":"14be92a5","setMintFee(uint256)":"eddd0d9c","setMintQty(uint256,uint256)":"4b62954f","setNFTAgePointer(uint256,uint256)":"179b570a","setNFTSendPerCycle(uint256)":"9319d0b5","setNftPool(uint256,uint256,uint256,uint256,uint256)":"e19a5bcf","setPauseSystem(bool,bool,bool,bool,bool,bool)":"7ca4b9c1","setRoyalityClause(uint256,uint256,uint256,uint256)":"c5a136d4","setSessionTTL(uint256)":"3eb71c06","setTourClause(uint256,uint256)":"f4fe8e3c","setValidatorPool(uint256,uint256,uint256,uint256,uint256)":"1ef6a864","setclaimCycle(uint256)":"78ef376f","setlevelClause(uint256,uint256,uint256,uint256,uint256,uint256)":"592a02a8","setrankClause(uint256,uint256,uint256,uint256,uint256,uint256)":"f27c35c6","setrankforDAO(uint256)":"f2a6bbc7","syncBaseAddr()":"339459a6","system()":"95bf75fd","systemAge()":"fdc10bc9","tourClause(uint256)":"6f092c5e","valExternal()":"a19841dd","valInternal()":"9d80ab9b"},"id":40}