{"abi":[{"type":"constructor","inputs":[{"name":"_hex","type":"address","internalType":"address"}],"stateMutability":"nonpayable"},{"type":"fallback","stateMutability":"payable"},{"type":"receive","stateMutability":"payable"},{"type":"function","name":"Burn","inputs":[{"name":"amount","type":"uint256","internalType":"uint256"}],"outputs":[],"stateMutability":"nonpayable"},{"type":"function","name":"_delegatorCount","inputs":[],"outputs":[{"name":"","type":"uint256","internalType":"uint256"}],"stateMutability":"view"},{"type":"function","name":"_getImplementation","inputs":[{"name":"clone","type":"address","internalType":"address"}],"outputs":[{"name":"impl","type":"address","internalType":"address"}],"stateMutability":"view"},{"type":"function","name":"_isDelegatorNode","inputs":[{"name":"sender","type":"address","internalType":"address"}],"outputs":[{"name":"","type":"bool","internalType":"bool"}],"stateMutability":"view"},{"type":"function","name":"_isSafe","inputs":[],"outputs":[{"name":"","type":"bool","internalType":"bool"}],"stateMutability":"view"},{"type":"function","name":"_isSecureBase","inputs":[{"name":"sender","type":"address","internalType":"address"}],"outputs":[{"name":"","type":"bool","internalType":"bool"}],"stateMutability":"view"},{"type":"function","name":"_isSigner","inputs":[{"name":"sender","type":"address","internalType":"address"}],"outputs":[{"name":"","type":"bool","internalType":"bool"}],"stateMutability":"view"},{"type":"function","name":"callByBusiness","inputs":[{"name":"_amt","type":"uint256","internalType":"uint256"},{"name":"_tvl","type":"uint256","internalType":"uint256"}],"outputs":[],"stateMutability":"payable"},{"type":"function","name":"callByClaim","inputs":[{"name":"_amt","type":"uint256","internalType":"uint256"}],"outputs":[],"stateMutability":"nonpayable"},{"type":"function","name":"callByImport","inputs":[{"name":"olduinst","type":"address","internalType":"address"}],"outputs":[],"stateMutability":"payable"},{"type":"function","name":"callByJoin","inputs":[{"name":"user","type":"address","internalType":"address"},{"name":"parent","type":"address","internalType":"address"}],"outputs":[{"name":"","type":"uint256","internalType":"uint256"}],"stateMutability":"payable"},{"type":"function","name":"getBalance","inputs":[],"outputs":[{"name":"","type":"uint256","internalType":"uint256"}],"stateMutability":"view"},{"type":"function","name":"getbusiness","inputs":[{"name":"ag","type":"uint256","internalType":"uint256"}],"outputs":[{"name":"","type":"uint256","internalType":"uint256"}],"stateMutability":"view"},{"type":"function","name":"getjoining","inputs":[{"name":"ag","type":"uint256","internalType":"uint256"}],"outputs":[{"name":"","type":"uint256","internalType":"uint256"}],"stateMutability":"view"},{"type":"function","name":"getwithdrawn","inputs":[{"name":"ag","type":"uint256","internalType":"uint256"}],"outputs":[{"name":"","type":"uint256","internalType":"uint256"}],"stateMutability":"view"},{"type":"function","name":"importBusiness","inputs":[{"name":"_amt","type":"uint256","internalType":"uint256"},{"name":"_ag","type":"uint256","internalType":"uint256"}],"outputs":[],"stateMutability":"nonpayable"},{"type":"function","name":"importJoining","inputs":[{"name":"_cnt","type":"uint256","internalType":"uint256"},{"name":"_ag","type":"uint256","internalType":"uint256"}],"outputs":[],"stateMutability":"nonpayable"},{"type":"function","name":"importWithdrawal","inputs":[{"name":"_amt","type":"uint256","internalType":"uint256"},{"name":"_ag","type":"uint256","internalType":"uint256"}],"outputs":[],"stateMutability":"nonpayable"},{"type":"function","name":"isDaoSafe","inputs":[],"outputs":[{"name":"","type":"bool","internalType":"bool"}],"stateMutability":"view"},{"type":"function","name":"isNodeStopped","inputs":[{"name":"sender","type":"address","internalType":"address"}],"outputs":[{"name":"","type":"bool","internalType":"bool"}],"stateMutability":"view"},{"type":"function","name":"owner","inputs":[],"outputs":[{"name":"","type":"address","internalType":"address"}],"stateMutability":"view"},{"type":"function","name":"systemAge","inputs":[],"outputs":[{"name":"","type":"uint256","internalType":"uint256"}],"stateMutability":"view"}],"bytecode":{"object":"0x60806040523462000037576200001e6200001862000110565b62000136565b620000286200003d565b612e88620002ab8239612e8890f35b62000043565b60405190565b5f80fd5b601f801991011690565b634e487b7160e01b5f52604160045260245ffd5b90620000719062000047565b810190811060018060401b038211176200008a57604052565b62000051565b90620000a76200009f6200003d565b928362000065565b565b5f80fd5b60018060a01b031690565b620000c390620000ad565b90565b620000d181620000b8565b03620000d957565b5f80fd5b90505190620000ec82620000c6565b565b906020828203126200010a5762000107915f01620000dd565b90565b620000a9565b620001336200313380380380620001278162000090565b928339810190620000ee565b90565b620001419062000271565b565b90565b90565b620001626200015c620001689262000143565b62000146565b620000ad565b90565b620001769062000149565b90565b5f1b90565b906200019160018060a01b039162000179565b9181191691161790565b620001b4620001ae620001ba92620000ad565b62000146565b620000ad565b90565b620001c8906200019b565b90565b620001d690620001bd565b90565b90565b90620001f6620001f0620001fe92620001cb565b620001d9565b82546200017e565b9055565b6200020d906200019b565b90565b6200021b9062000202565b90565b62000229906200019b565b90565b62000237906200021e565b90565b62000245906200021e565b90565b90565b90620002656200025f6200026d926200023a565b62000248565b82546200017e565b9055565b620002a16200029b620002a892620002956200028d5f6200016b565b6001620001dc565b62000210565b6200022c565b5f6200024b565b56fe60806040526004361015610018575b361561001657005b005b6100225f35610181565b806312065fe01461017c57806316525834146101775780631f185d16146101725780632a687c871461016d57806332ff4eab146101685780633e7844a01461016357806351bfd3ae1461015e5780635c1a494a146101595780638da5cb5b1461015457806395f72f491461014f57806398b3f2151461014a578063a1f7f53914610145578063af48452614610140578063b90306ad1461013b578063c54e44b014610136578063c655da2214610131578063e01ad5fd1461012c578063e0a9bc2b14610127578063eb95c66214610122578063f3ca71241461011d578063fb5b0a6a146101185763fdc10bc90361000e5761073c565b610710565b6106ae565b610679565b610644565b61060f565b6105e6565b6105b1565b61057e565b610549565b610514565b6104df565b6104ab565b610476565b61041f565b6103ea565b6103c0565b61038c565b610358565b6102f6565b610244565b6101c9565b60e01c90565b60405190565b5f80fd5b5f80fd5b5f91031261019f57565b610191565b90565b6101b0906101a4565b9052565b91906101c7905f602085019401906101a7565b565b346101f9576101d9366004610195565b6101f56101e46107ac565b6101ec610187565b918291826101b4565b0390f35b61018d565b610207816101a4565b0361020e57565b5f80fd5b9050359061021f826101fe565b565b9060208282031261023a57610237915f01610212565b90565b610191565b5f0190565b346102725761025c610257366004610221565b610a71565b610264610187565b8061026e8161023f565b0390f35b61018d565b60018060a01b031690565b61028b90610277565b90565b61029781610282565b0361029e57565b5f80fd5b905035906102af8261028e565b565b906020828203126102ca576102c7915f016102a2565b90565b610191565b151590565b6102dd906102cf565b9052565b91906102f4905f602085019401906102d4565b565b346103265761032261031161030c3660046102b1565b610b05565b610319610187565b918291826102e1565b0390f35b61018d565b91906040838203126103535780610347610350925f8601610212565b93602001610212565b90565b610191565b346103875761037161036b36600461032b565b90610eb5565b610379610187565b806103838161023f565b0390f35b61018d565b346103bb576103a561039f36600461032b565b90610fd0565b6103ad610187565b806103b78161023f565b0390f35b61018d565b6103d46103ce36600461032b565b90611111565b6103dc610187565b806103e68161023f565b0390f35b3461041a576104166104056104003660046102b1565b61123d565b61040d610187565b918291826102e1565b0390f35b61018d565b3461044f5761042f366004610195565b61044b61043a6113f3565b610442610187565b918291826102e1565b0390f35b61018d565b61045d90610282565b9052565b9190610474905f60208501940190610454565b565b346104a657610486366004610195565b6104a26104916114ee565b610499610187565b91829182610461565b0390f35b61018d565b346104da576104c46104be36600461032b565b90611613565b6104cc610187565b806104d68161023f565b0390f35b61018d565b3461050f5761050b6104fa6104f5366004610221565b61161f565b610502610187565b918291826101b4565b0390f35b61018d565b3461054457610524366004610195565b61054061052f611716565b610537610187565b918291826101b4565b0390f35b61018d565b346105795761057561056461055f3660046102b1565b6118e1565b61056c610187565b918291826102e1565b0390f35b61018d565b346105ac57610596610591366004610221565b611b3d565b61059e610187565b806105a88161023f565b0390f35b61018d565b346105e1576105dd6105cc6105c73660046102b1565b611c13565b6105d4610187565b91829182610461565b0390f35b61018d565b6105f96105f43660046102b1565b611ed3565b610601610187565b8061060b8161023f565b0390f35b3461063f5761063b61062a6106253660046102b1565b611f74565b610632610187565b918291826102e1565b0390f35b61018d565b3461067457610654366004610195565b61067061065f612309565b610667610187565b918291826102e1565b0390f35b61018d565b346106a9576106a561069461068f366004610221565b6123b0565b61069c610187565b918291826101b4565b0390f35b61018d565b346106de576106da6106c96106c4366004610221565b6123cf565b6106d1610187565b918291826101b4565b0390f35b61018d565b919060408382031261070b57806106ff610708925f86016102a2565b936020016102a2565b90565b610191565b6107386107276107213660046106e3565b9061266a565b61072f610187565b918291826101b4565b0390f35b3461076c5761074c366004610195565b6107686107576126ca565b61075f610187565b918291826101b4565b0390f35b61018d565b5f90565b90565b61078c61078761079192610277565b610775565b610277565b90565b61079d90610778565b90565b6107a990610794565b90565b6107b4610771565b506107be306107a0565b3190565b601f801991011690565b634e487b7160e01b5f52604160045260245ffd5b906107ea906107c2565b810190811067ffffffffffffffff82111761080457604052565b6107cc565b9061081c610815610187565b92836107e0565b565b67ffffffffffffffff811161083c576108386020916107c2565b0190565b6107cc565b9061085361084e8361081e565b610809565b918252565b90813b5f61086582610841565b9360208501903c565b60200190565b5190565b5f1c90565b60018060a01b031690565b61089461089991610878565b61087d565b90565b6108a69054610888565b90565b6108b290610794565b90565b60e01b90565b905051906108c88261028e565b565b906020828203126108e3576108e0915f016108bb565b90565b610191565b6108f0610187565b3d5f823e3d90fd5b90565b60209181520190565b5f7f6f776e2e756e617574682e696e7374616e636500000000000000000000000000910152565b61093860136020926108fb565b61094181610904565b0190565b61095a9060208101905f81830391015261092b565b90565b1561096457565b61096c610187565b62461bcd60e51b81528061098260048201610945565b0390fd5b6109cf9061099333610858565b6109a561099f82610874565b9161086e565b2060206109b96109b45f61089c565b6108a9565b63e61dfd58906109c7610187565b9586926108b5565b825281806109df6004820161023f565b03915afa908115610a6157610a26610a20610a08610a2c94610a31975f91610a33575b50610858565b610a1a610a1482610874565b9161086e565b206108f8565b916108f8565b1461095d565b610a66565b565b610a54915060203d8111610a5a575b610a4c81836107e0565b8101906108ca565b5f610a02565b503d610a42565b6108e8565b610a6f90612771565b565b610a7a90610986565b565b5f90565b67ffffffffffffffff8111610a9e57610a9a6020916107c2565b0190565b6107cc565b90610ab5610ab083610a80565b610809565b918252565b5f7f69735369676e6572286164647265737329000000000000000000000000000000910152565b610aeb6011610aa3565b90610af860208301610aba565b565b610b02610ae1565b90565b610b0d610a7c565b50610b3a6020610b24610b1f5f61089c565b6108a9565b6397f3815a90610b32610187565b9384926108b5565b82528180610b4a6004820161023f565b03915afa8015610bd057610b9992610b7c925f92610b9c575b50610b8b90610b70610187565b93849160208301610461565b602082018103825203836107e0565b610b93610afa565b90612812565b90565b610b8b919250610bc29060203d8111610bc9575b610bba81836107e0565b8101906108ca565b9190610b63565b503d610bb0565b6108e8565b5f7f6f776e2e696e76616c69642e6973536166650000000000000000000000000000910152565b610c0960126020926108fb565b610c1281610bd5565b0190565b610c2b9060208101905f818303910152610bfc565b90565b15610c3557565b610c3d610187565b62461bcd60e51b815280610c5360048201610c16565b0390fd5b5f7f6f776e2e6e6f6e617574682e44414f6f72536563757265626173650000000000910152565b610c8b601b6020926108fb565b610c9481610c57565b0190565b610cad9060208101905f818303910152610c7e565b90565b15610cb757565b610cbf610187565b62461bcd60e51b815280610cd560048201610c98565b0390fd5b90610cea610ce5612309565b610c2e565b610cf3336118e1565b918215610d0e575b610d07610d0c93610cb0565b610e82565b565b610d3c92506020610d26610d215f61089c565b6108a9565b634162169f90610d34610187565b9586926108b5565b82528180610d4c6004820161023f565b03915afa928315610db057610d0c93610d07915f91610d82575b50610d79610d7333610282565b91610282565b14935050610cfb565b610da3915060203d8111610da9575b610d9b81836107e0565b8101906108ca565b5f610d66565b503d610d91565b6108e8565b610dc9610dc4610dce926101a4565b610775565b6101a4565b90565b90610ddb90610db5565b5f5260205260405f2090565b90565b610df6610dfb91610878565b610de7565b90565b610e089054610dea565b90565b634e487b7160e01b5f52601160045260245ffd5b610e2e610e34919392936101a4565b926101a4565b8201809211610e3f57565b610e0b565b5f1b90565b90610e555f1991610e44565b9181191691161790565b90565b90610e77610e72610e7e92610db5565b610e5f565b8254610e49565b9055565b90610eae610ea6610eb393610ea1610e9c60028690610dd1565b610dfe565b610e1f565b916002610dd1565b610e62565b565b90610ebf91610cd9565b565b90610ed2610ecd612309565b610c2e565b610edb336118e1565b918215610ef6575b610eef610ef493610cb0565b610f9d565b565b610f2492506020610f0e610f095f61089c565b6108a9565b634162169f90610f1c610187565b9586926108b5565b82528180610f346004820161023f565b03915afa928315610f9857610ef493610eef915f91610f6a575b50610f61610f5b33610282565b91610282565b14935050610ee3565b610f8b915060203d8111610f91575b610f8381836107e0565b8101906108ca565b5f610f4e565b503d610f79565b6108e8565b90610fc9610fc1610fce93610fbc610fb760048690610dd1565b610dfe565b610e1f565b916004610dd1565b610e62565b565b90610fda91610ec1565b565b9061102691610fea33610858565b610ffc610ff682610874565b9161086e565b20602061101061100b5f61089c565b6108a9565b63e61dfd589061101e610187565b9687926108b5565b825281806110366004820161023f565b03915afa9081156110b85761107d61107761105f61108394611088985f9161108a575b50610858565b61107161106b82610874565b9161086e565b206108f8565b916108f8565b1461095d565b6110dc565b565b6110ab915060203d81116110b1575b6110a381836107e0565b8101906108ca565b5f611059565b503d611099565b6108e8565b90565b6110d46110cf6110d9926110bd565b610775565b6101a4565b90565b6110e59061287f565b806110f86110f25f6110c0565b916101a4565b11611101575b50565b61110b90336128e3565b5f6110fe565b9061111b91610fdc565b565b5f7f55736572546f496e737428616464726573732900000000000000000000000000910152565b61114e6013610aa3565b9061115b6020830161111d565b565b611165611144565b90565b61117c611177611181926110bd565b610775565b610277565b90565b61118d90611168565b90565b5f7f697353757370656e642829000000000000000000000000000000000000000000910152565b6111c1600b610aa3565b906111ce60208301611190565b565b6111d86111b7565b90565b6111e45f610aa3565b90565b6111ef6111db565b90565b5f7f69734c6f636b2829000000000000000000000000000000000000000000000000910152565b6112236008610aa3565b90611230602083016111f2565b565b61123a611219565b90565b611245610a7c565b50611272602061125c6112575f61089c565b6108a9565b63ab6e844f9061126a610187565b9384926108b5565b825281806112826004820161023f565b03915afa80156113a3576112d1926112b4925f9261136f575b506112c3906112a8610187565b93849160208301610461565b602082018103825203836107e0565b6112cb61115d565b90612a06565b806112ec6112e66112e15f611184565b610282565b91610282565b141561132261130b836112fd6111d0565b6113056111e7565b91612812565b92611314611232565b61131c6111e7565b91612812565b61132c82156102cf565b92831561133a575b50505090565b909192509081611367575b509081611356575b505f8080611334565b6113619150156102cf565b5f61134d565b90505f611345565b6112c39192506113959060203d811161139c575b61138d81836107e0565b8101906108ca565b919061129b565b503d611383565b6108e8565b5f7f64616f7361666561646472657373286164647265737329000000000000000000910152565b6113d96017610aa3565b906113e6602083016113a8565b565b6113f06113cf565b90565b6113fb610a7c565b50611428602061141261140d5f61089c565b6108a9565b634162169f90611420610187565b9384926108b5565b825281806114386004820161023f565b03915afa9081156114b9576114889161146b915f9161148b575b5061147a3361145f610187565b93849160208301610461565b602082018103825203836107e0565b6114826113e8565b90612812565b90565b6114ac915060203d81116114b2575b6114a481836107e0565b8101906108ca565b5f611452565b503d61149a565b6108e8565b5f90565b60018060a01b031690565b6114d96114de91610878565b6114c2565b90565b6114eb90546114cd565b90565b6114f66114be565b5061150160016114e1565b90565b90611515611510612309565b610c2e565b61151e336118e1565b918215611539575b61153261153793610cb0565b6115e0565b565b6115679250602061155161154c5f61089c565b6108a9565b634162169f9061155f610187565b9586926108b5565b825281806115776004820161023f565b03915afa9283156115db5761153793611532915f916115ad575b506115a461159e33610282565b91610282565b14935050611526565b6115ce915060203d81116115d4575b6115c681836107e0565b8101906108ca565b5f611591565b503d6115bc565b6108e8565b9061160c611604611611936115ff6115fa60038690610dd1565b610dfe565b610e1f565b916003610dd1565b610e62565b565b9061161d91611504565b565b61163661163b9161162e610771565b506004610dd1565b610dfe565b90565b5f7f72616e6b666f7244414f28290000000000000000000000000000000000000000910152565b61166f600c610aa3565b9061167c6020830161163e565b565b611686611665565b90565b9160206116aa9294936116a360408201965f8301906101a7565b01906101a7565b565b5f7f67657472616e6b636f756e742875696e743235362c75696e7432353629000000910152565b6116dd601d610aa3565b906116ea602083016116ac565b565b6116f46116d3565b90565b90565b61170e611709611713926116f7565b610775565b6101a4565b90565b61171e610771565b5061174b60206117356117305f61089c565b6108a9565b63cfbffe5390611743610187565b9384926108b5565b8252818061175b6004820161023f565b03915afa801561189157611787915f91611863575b5061177961167e565b6117816111e7565b91612a7c565b6117b3602061179d6117985f61089c565b6108a9565b63ab6e844f906117ab610187565b9384926108b5565b825281806117c36004820161023f565b03915afa91821561185e5761182d9261181d925f91611830575b5061180f6117e9612ae9565b6118006117f4610187565b94859260208401611689565b602082018103825203836107e0565b6118176116ec565b90612a7c565b61182760036116fa565b90610e1f565b90565b611851915060203d8111611857575b61184981836107e0565b8101906108ca565b5f6117dd565b503d61183f565b6108e8565b611884915060203d811161188a575b61187c81836107e0565b8101906108ca565b5f611770565b503d611872565b6108e8565b5f7f6973536563757265426173652861646472657373290000000000000000000000910152565b6118c76015610aa3565b906118d460208301611896565b565b6118de6118bd565b90565b6118e9610a7c565b5061191660206119006118fb5f61089c565b6108a9565b6397f3815a9061190e610187565b9384926108b5565b825281806119266004820161023f565b03915afa80156119ac5761197592611958925f92611978575b506119679061194c610187565b93849160208301610461565b602082018103825203836107e0565b61196f6118d6565b90612812565b90565b61196791925061199e9060203d81116119a5575b61199681836107e0565b8101906108ca565b919061193f565b503d61198c565b6108e8565b5f7f6f776e2e6e6f6e617574682e44414f0000000000000000000000000000000000910152565b6119e5600f6020926108fb565b6119ee816119b1565b0190565b611a079060208101905f8183039101526119d8565b90565b15611a1157565b611a19610187565b62461bcd60e51b815280611a2f600482016119f2565b0390fd5b611a60906020611a4a611a455f61089c565b6108a9565b634162169f90611a58610187565b9485926108b5565b82528180611a706004820161023f565b03915afa918215611ad857611aa892611aa3915f91611aaa575b50611a9d611a9733610282565b91610282565b14611a0a565b611b01565b565b611acb915060203d8111611ad1575b611ac381836107e0565b8101906108ca565b5f611a8a565b503d611ab9565b6108e8565b611ae690610778565b90565b611af290611add565b90565b611afe90610794565b90565b5f80808093611b1f611b1a611b1584611184565b611ae9565b611af5565b828215611b34575bf115611b2f57565b6108e8565b506108fc611b27565b611b4690611a33565b565b90565b611b5f611b5a611b6492611b48565b610775565b6101a4565b90565b5f7f4e6f742061206d696e696d616c2070726f787900000000000000000000000000910152565b611b9b60136020926108fb565b611ba481611b67565b0190565b611bbd9060208101905f818303910152611b8e565b90565b15611bc757565b611bcf610187565b62461bcd60e51b815280611be560048201611ba8565b0390fd5b5f90565b60601c90565b611bff611c0491611bed565b610778565b90565b611c1090611bf3565b90565b602a611c2a611c6092611c246114be565b50610858565b611c50611c3682610874565b611c49611c43602d611b4b565b916101a4565b1015611bc0565b611c58611be9565b500151611c07565b90565b611cac90611c7033610858565b611c82611c7c82610874565b9161086e565b206020611c96611c915f61089c565b6108a9565b63e61dfd5890611ca4610187565b9586926108b5565b82528180611cbc6004820161023f565b03915afa908115611d3e57611d03611cfd611ce5611d0994611d0e975f91611d10575b50610858565b611cf7611cf182610874565b9161086e565b206108f8565b916108f8565b1461095d565b611e0f565b565b611d31915060203d8111611d37575b611d2981836107e0565b8101906108ca565b5f611cdf565b503d611d1f565b6108e8565b90565b61ffff1690565b611d61611d5c611d6692611d43565b610775565b611d46565b90565b611d7290611d4d565b9052565b60ff1690565b611d90611d8b611d95926110bd565b610775565b611d76565b90565b611da190611d7c565b9052565b90565b611dbc611db7611dc192611da5565b610775565b611d76565b90565b611dcd90611da8565b9052565b611e06611e0d94611dfc606094989795611df2608086019a5f870190610454565b6020850190611d69565b6040830190611d98565b0190611dc4565b565b8031611e23611e1d5f6110c0565b916101a4565b14611ed05780611e76611ecd92611e58611e6733611e3f610187565b928391600460208401634fb2e45d60e01b815201610461565b602082018103825203826107e0565b611e705f6110c0565b91612c06565b50611e805f611184565b611ebe61270f91611eaf5f600790611e96610187565b958694600460208701630a3e884b60e41b815201611dd1565b602082018103825203826107e0565b611ec75f6110c0565b91612c06565b50565b50565b611edc90611c63565b565b5f7f67657445666665637469766552616e6b28616464726573732900000000000000910152565b611f0f6019610aa3565b90611f1c60208301611ede565b565b611f26611f05565b90565b5f7f697353746f702861646472657373290000000000000000000000000000000000910152565b611f5a600f610aa3565b90611f6760208301611f29565b565b611f71611f50565b90565b611f7c610a7c565b50611fa96020611f93611f8e5f61089c565b6108a9565b63cfbffe5390611fa1610187565b9384926108b5565b82528180611fb96004820161023f565b03915afa80156122b957611fe5915f9161228b575b50611fd761167e565b611fdf6111e7565b91612a7c565b906120126020611ffc611ff75f61089c565b6108a9565b63ab6e844f9061200a610187565b9384926108b5565b825281806120226004820161023f565b03915afa80156122865761207192612054925f92612252575b5061206390612048610187565b93849160208301610461565b602082018103825203836107e0565b61206b61115d565b90612a06565b9061209e60206120886120835f61089c565b6108a9565b63ab6e844f90612096610187565b9384926108b5565b825281806120ae6004820161023f565b03915afa90811561224d576120fe916120e1915f9161221f575b506120f0856120d5610187565b93849160208301610461565b602082018103825203836107e0565b6120f8611f1e565b90612a7c565b9061212b60206121156121105f61089c565b6108a9565b63ab6e844f90612123610187565b9384926108b5565b8252818061213b6004820161023f565b03915afa90811561221a5761218b9161216e915f916121ec575b5061217d86612162610187565b93849160208301610461565b602082018103825203836107e0565b612185611f69565b90612812565b926121a66121a061219b5f611184565b610282565b91610282565b141591826121cd575b505090816121bc575b5090565b6121c79150156102cf565b5f6121b8565b6121e39192506121dd90926101a4565b916101a4565b10155f806121af565b61220d915060203d8111612213575b61220581836107e0565b8101906108ca565b5f612155565b503d6121fb565b6108e8565b612240915060203d8111612246575b61223881836107e0565b8101906108ca565b5f6120c8565b503d61222e565b6108e8565b6120639192506122789060203d811161227f575b61227081836107e0565b8101906108ca565b919061203b565b503d612266565b6108e8565b6122ac915060203d81116122b2575b6122a481836107e0565b8101906108ca565b5f611fce565b503d61229a565b6108e8565b5f7f6973536166652829000000000000000000000000000000000000000000000000910152565b6122ef6008610aa3565b906122fc602083016122be565b565b6123066122e5565b90565b612311610a7c565b5061233e60206123286123235f61089c565b6108a9565b6397f3815a90612336610187565b9384926108b5565b8252818061234e6004820161023f565b03915afa80156123ab5761237a915f9161237d575b5061236c6122fe565b6123746111e7565b91612812565b90565b61239e915060203d81116123a4575b61239681836107e0565b8101906108ca565b5f612363565b503d61238c565b6108e8565b6123c76123cc916123bf610771565b506002610dd1565b610dfe565b90565b6123e66123eb916123de610771565b506003610dd1565b610dfe565b90565b9061243992916123fd33610858565b61240f61240982610874565b9161086e565b20602061242361241e5f61089c565b6108a9565b63e61dfd5890612431610187565b9788926108b5565b825281806124496004820161023f565b03915afa9081156124cc5761249061248a6124726124969461249b995f9161249e575b50610858565b61248461247e82610874565b9161086e565b206108f8565b916108f8565b1461095d565b61255b565b90565b6124bf915060203d81116124c5575b6124b781836107e0565b8101906108ca565b5f61246c565b503d6124ad565b6108e8565b61250661250d946124fc6060949897956124f2608086019a5f870190610454565b6020850190610454565b6040830190610454565b01906101a7565b565b90565b61252661252161252b9261250f565b610775565b6101a4565b90565b9050519061253b826101fe565b565b9060208282031261255657612553915f0161252e565b90565b610191565b9061258a9150602061257461256f5f61089c565b6108a9565b63ab6e844f90612582610187565b9485926108b5565b8252818061259a6004820161023f565b03915afa9081156126655761262e93612606935f93612631575b506125f7906125e833936125c6612ae9565b906125cf610187565b9586946004602087016322d625e360e11b8152016124d1565b602082018103825203826107e0565b6126005f6110c0565b91612c06565b6126186126136001612512565b612ca9565b602061262382610874565b81830101910161253d565b90565b6125f79193506126579060203d811161265e575b61264f81836107e0565b8101906108ca565b92906125b4565b503d612645565b6108e8565b9061267c91612677610771565b6123ee565b90565b5f7f6167652829000000000000000000000000000000000000000000000000000000910152565b6126b06005610aa3565b906126bd6020830161267f565b565b6126c76126a6565b90565b6126d2610771565b506126ff60206126e96126e45f61089c565b6108a9565b63447aa304906126f7610187565b9384926108b5565b8252818061270f6004820161023f565b03915afa801561276c5761273b915f9161273e575b5061272d6126bf565b6127356111e7565b91612a7c565b90565b61275f915060203d8111612765575b61275781836107e0565b8101906108ca565b5f612724565b503d61274d565b6108e8565b6127986127b09161279361278e6003612788612ae9565b90610dd1565b610dfe565b610e1f565b6127ab60036127a5612ae9565b90610dd1565b610e62565b565b90565b6127c96127c46127ce926127b2565b610775565b6101a4565b90565b6127da816102cf565b036127e157565b5f80fd5b905051906127f2826127d1565b565b9060208282031261280d5761280a915f016127e5565b90565b610191565b92919061282a91612821610a7c565b94919091612d6d565b908061285c575b612839575b50565b612855919250602061284a82610874565b8183010191016127f4565b905f612836565b5061286681610874565b61287961287360206127b5565b916101a4565b14612831565b6128a66128be916128a161289c6002612896612ae9565b90610dd1565b610dfe565b610e1f565b6128b960026128b3612ae9565b90610dd1565b610e62565b565b9160206128e19294936128da60408201965f830190610454565b01906101a7565b565b6129109160206128fa6128f55f61089c565b6108a9565b63aa0ddc1690612908610187565b9586926108b5565b825281806129206004820161023f565b03915afa9182156129b45761297d935f93612980575b5061296e9061295f612946610187565b93849260046020850163a9059cbb60e01b8152016128c0565b602082018103825203826107e0565b6129775f6110c0565b91612c06565b50565b61296e9193506129a69060203d81116129ad575b61299e81836107e0565b8101906108ca565b9290612936565b503d612994565b6108e8565b6129c290610277565b90565b6129ce816129b9565b036129d557565b5f80fd5b905051906129e6826129c5565b565b90602082820312612a01576129fe915f016129d9565b90565b610191565b929190612a1e91612a156114be565b94919091612d6d565b9080612a59575b612a2d575b50565b612a52919250612a4d906020612a4282610874565b8183010191016129e8565b611af5565b905f612a2a565b50612a6381610874565b612a76612a7060206127b5565b916101a4565b14612a25565b929190612a9491612a8b610771565b94919091612d6d565b9080612ac6575b612aa3575b50565b612abf9192506020612ab482610874565b81830101910161253d565b905f612aa0565b50612ad081610874565b612ae3612add60206127b5565b916101a4565b14612a9b565b612af1610771565b50612afa6126ca565b90565b606090565b5f7f6f776e2e696e76616c69642e7461726765740000000000000000000000000000910152565b612b3660126020926108fb565b612b3f81612b02565b0190565b612b589060208101905f818303910152612b29565b90565b15612b6257565b612b6a610187565b62461bcd60e51b815280612b8060048201612b43565b0390fd5b3d5f14612b9f57612b943d610841565b903d5f602084013e5b565b612ba7612afd565b90612b9d565b5f7f6f776e2e7461726765742e63616c6c2e6661696c656400000000000000000000910152565b612be160166020926108fb565b612bea81612bad565b0190565b612c039060208101905f818303910152612bd4565b90565b915f92918392612c14612afd565b50612c3a81612c33612c2d612c2888611184565b610282565b91610282565b1415612b5b565b91602082019151925af1612c56612c4f612b84565b91156102cf565b612c5d5790565b612c6681610874565b612c78612c725f6110c0565b916101a4565b115f14612c8757805190602001fd5b612c8f610187565b62461bcd60e51b815280612ca560048201612bee565b0390fd5b612cd0612ce891612ccb612cc66004612cc0612ae9565b90610dd1565b610dfe565b610e1f565b612ce36004612cdd612ae9565b90610dd1565b610e62565b565b90565b63ffffffff60e01b1690565b612d0290612ced565b90565b905090565b5f5b838110612d1c575050905f910152565b806020918301518185015201612d0c565b612d52612d4992602092612d4081610874565b94858093612d05565b93849101612d0a565b0190565b612d6490612d6a9392612d2d565b90612d2d565b90565b90612d76610a7c565b50612d7f612afd565b50813b612d94612d8e5f6110c0565b916101a4565b14612e42576004612e2d5f94612e06869594612ddc87612dd6612dbe612db8610187565b94612cea565b612dd0612dca82610874565b9161086e565b20612cf9565b926107e0565b612df7612de7610187565b958692602084019081520161023f565b602082018103825203846107e0565b91612e1e612e12610187565b93849260208401612d56565b602082018103825203826107e0565b602081019051915afa612e3e612b84565b9091565b5050505f90612e4f6111e7565b9056fea264697066735822122057d8da625a952ada0ed33a49d7d81852ebbe310d1e92c6a4677d95a2436b8a6564736f6c63430008180033","linkReferences":{}},"methodIdentifiers":{"Burn(uint256)":"b90306ad","_delegatorCount()":"a1f7f539","_getImplementation(address)":"c54e44b0","_isDelegatorNode(address)":"e01ad5fd","_isSafe()":"e0a9bc2b","_isSecureBase(address)":"af484526","_isSigner(address)":"1f185d16","callByBusiness(uint256,uint256)":"3e7844a0","callByClaim(uint256)":"16525834","callByImport(address)":"c655da22","callByJoin(address,address)":"fb5b0a6a","getBalance()":"12065fe0","getbusiness(uint256)":"eb95c662","getjoining(uint256)":"98b3f215","getwithdrawn(uint256)":"f3ca7124","importBusiness(uint256,uint256)":"2a687c87","importJoining(uint256,uint256)":"32ff4eab","importWithdrawal(uint256,uint256)":"95f72f49","isDaoSafe()":"5c1a494a","isNodeStopped(address)":"51bfd3ae","owner()":"8da5cb5b","systemAge()":"fdc10bc9"},"id":44}