{"abi":[{"type":"constructor","inputs":[{"name":"_hex","type":"address","internalType":"address"}],"stateMutability":"nonpayable"},{"type":"fallback","stateMutability":"payable"},{"type":"receive","stateMutability":"payable"},{"type":"function","name":"Burn","inputs":[{"name":"amount","type":"uint256","internalType":"uint256"}],"outputs":[],"stateMutability":"nonpayable"},{"type":"function","name":"_delegatorCount","inputs":[],"outputs":[{"name":"","type":"uint256","internalType":"uint256"}],"stateMutability":"view"},{"type":"function","name":"_getImplementation","inputs":[{"name":"clone","type":"address","internalType":"address"}],"outputs":[{"name":"impl","type":"address","internalType":"address"}],"stateMutability":"view"},{"type":"function","name":"_isDelegatorNode","inputs":[{"name":"sender","type":"address","internalType":"address"}],"outputs":[{"name":"","type":"bool","internalType":"bool"}],"stateMutability":"view"},{"type":"function","name":"_isSafe","inputs":[],"outputs":[{"name":"","type":"bool","internalType":"bool"}],"stateMutability":"view"},{"type":"function","name":"_isSecureBase","inputs":[{"name":"sender","type":"address","internalType":"address"}],"outputs":[{"name":"","type":"bool","internalType":"bool"}],"stateMutability":"view"},{"type":"function","name":"_isSigner","inputs":[{"name":"sender","type":"address","internalType":"address"}],"outputs":[{"name":"","type":"bool","internalType":"bool"}],"stateMutability":"view"},{"type":"function","name":"activateInUSDT","inputs":[],"outputs":[{"name":"","type":"uint256","internalType":"uint256"}],"stateMutability":"view"},{"type":"function","name":"approvedClaimPerDayPrime","inputs":[],"outputs":[{"name":"","type":"uint256","internalType":"uint256"}],"stateMutability":"view"},{"type":"function","name":"capping","inputs":[],"outputs":[{"name":"multiple","type":"uint256","internalType":"uint256"},{"name":"rw","type":"bool","internalType":"bool"},{"name":"ry","type":"bool","internalType":"bool"},{"name":"self","type":"bool","internalType":"bool"},{"name":"yei","type":"bool","internalType":"bool"},{"name":"tour","type":"bool","internalType":"bool"}],"stateMutability":"view"},{"type":"function","name":"computeActivateValue","inputs":[],"outputs":[{"name":"","type":"uint256","internalType":"uint256"}],"stateMutability":"view"},{"type":"function","name":"computeMintValuePrime","inputs":[{"name":"_qty","type":"uint256","internalType":"uint256"}],"outputs":[{"name":"","type":"uint256","internalType":"uint256"}],"stateMutability":"view"},{"type":"function","name":"freeIntervals","inputs":[],"outputs":[{"name":"","type":"uint256","internalType":"uint256"}],"stateMutability":"view"},{"type":"function","name":"getBalance","inputs":[],"outputs":[{"name":"","type":"uint256","internalType":"uint256"}],"stateMutability":"view"},{"type":"function","name":"isNodeStopped","inputs":[{"name":"sender","type":"address","internalType":"address"}],"outputs":[{"name":"","type":"bool","internalType":"bool"}],"stateMutability":"view"},{"type":"function","name":"maxGlobalClaimPerDayPrime","inputs":[],"outputs":[{"name":"","type":"uint256","internalType":"uint256"}],"stateMutability":"view"},{"type":"function","name":"maxMintQtyPrime","inputs":[],"outputs":[{"name":"","type":"uint256","internalType":"uint256"}],"stateMutability":"view"},{"type":"function","name":"minMintQtyPrime","inputs":[],"outputs":[{"name":"","type":"uint256","internalType":"uint256"}],"stateMutability":"view"},{"type":"function","name":"mintFeePerQtyPrime","inputs":[],"outputs":[{"name":"","type":"uint256","internalType":"uint256"}],"stateMutability":"view"},{"type":"function","name":"mintLimitPerDayPrime","inputs":[],"outputs":[{"name":"","type":"uint256","internalType":"uint256"}],"stateMutability":"view"},{"type":"function","name":"owner","inputs":[],"outputs":[{"name":"","type":"address","internalType":"address"}],"stateMutability":"view"},{"type":"function","name":"pool","inputs":[],"outputs":[{"name":"startafter","type":"uint256","internalType":"uint256"},{"name":"stakeN","type":"uint256","internalType":"uint256"},{"name":"stakeD","type":"uint256","internalType":"uint256"},{"name":"roiN","type":"uint256","internalType":"uint256"},{"name":"roiD","type":"uint256","internalType":"uint256"},{"name":"roiInt","type":"uint256","internalType":"uint256"},{"name":"roiEnd","type":"uint256","internalType":"uint256"}],"stateMutability":"view"},{"type":"function","name":"poolNFT1","inputs":[],"outputs":[{"name":"roiN","type":"uint256","internalType":"uint256"},{"name":"roiD","type":"uint256","internalType":"uint256"},{"name":"roiInt","type":"uint256","internalType":"uint256"},{"name":"startfrom","type":"uint256","internalType":"uint256"},{"name":"status","type":"bool","internalType":"bool"}],"stateMutability":"view"},{"type":"function","name":"poolNFT2","inputs":[],"outputs":[{"name":"roiN","type":"uint256","internalType":"uint256"},{"name":"roiD","type":"uint256","internalType":"uint256"},{"name":"roiInt","type":"uint256","internalType":"uint256"},{"name":"startfrom","type":"uint256","internalType":"uint256"},{"name":"status","type":"bool","internalType":"bool"}],"stateMutability":"view"},{"type":"function","name":"rankforDAO","inputs":[],"outputs":[{"name":"","type":"uint256","internalType":"uint256"}],"stateMutability":"view"},{"type":"function","name":"setActivateUSDT","inputs":[{"name":"_ac","type":"uint256","internalType":"uint256"}],"outputs":[],"stateMutability":"nonpayable"},{"type":"function","name":"setApprovedClaimPerDayPrime","inputs":[{"name":"_ac","type":"uint256","internalType":"uint256"}],"outputs":[],"stateMutability":"nonpayable"},{"type":"function","name":"setCapping","inputs":[{"name":"_multiple","type":"uint256","internalType":"uint256"},{"name":"_rw","type":"bool","internalType":"bool"},{"name":"_ry","type":"bool","internalType":"bool"},{"name":"_self","type":"bool","internalType":"bool"},{"name":"_yei","type":"bool","internalType":"bool"},{"name":"_tour","type":"bool","internalType":"bool"}],"outputs":[],"stateMutability":"nonpayable"},{"type":"function","name":"setCoinPool","inputs":[{"name":"_start","type":"uint256","internalType":"uint256"},{"name":"_stakeN","type":"uint256","internalType":"uint256"},{"name":"_stakeD","type":"uint256","internalType":"uint256"},{"name":"_roiN","type":"uint256","internalType":"uint256"},{"name":"_roiD","type":"uint256","internalType":"uint256"},{"name":"_roiInt","type":"uint256","internalType":"uint256"},{"name":"_roiEnd","type":"uint256","internalType":"uint256"}],"outputs":[],"stateMutability":"nonpayable"},{"type":"function","name":"setGlobalClaimPerDayPrime","inputs":[{"name":"_ac","type":"uint256","internalType":"uint256"}],"outputs":[],"stateMutability":"nonpayable"},{"type":"function","name":"setMintFee","inputs":[{"name":"_fe","type":"uint256","internalType":"uint256"}],"outputs":[],"stateMutability":"nonpayable"},{"type":"function","name":"setMintLimitPerDay","inputs":[{"name":"limitPrime","type":"uint256","internalType":"uint256"}],"outputs":[],"stateMutability":"nonpayable"},{"type":"function","name":"setMintQty","inputs":[{"name":"minPrime","type":"uint256","internalType":"uint256"},{"name":"maxPrime","type":"uint256","internalType":"uint256"}],"outputs":[],"stateMutability":"nonpayable"},{"type":"function","name":"setNftPool","inputs":[{"name":"_type","type":"uint256","internalType":"uint256"},{"name":"_roiN","type":"uint256","internalType":"uint256"},{"name":"_roiD","type":"uint256","internalType":"uint256"},{"name":"_roiInt","type":"uint256","internalType":"uint256"},{"name":"_startFrom","type":"uint256","internalType":"uint256"},{"name":"_status","type":"bool","internalType":"bool"}],"outputs":[],"stateMutability":"nonpayable"},{"type":"function","name":"setRankforDAO","inputs":[{"name":"_d","type":"uint256","internalType":"uint256"}],"outputs":[],"stateMutability":"nonpayable"},{"type":"function","name":"setWithdrawIntervalDays","inputs":[{"name":"_d","type":"uint256","internalType":"uint256"}],"outputs":[],"stateMutability":"nonpayable"},{"type":"function","name":"setfreeIntervals","inputs":[{"name":"_d","type":"uint256","internalType":"uint256"}],"outputs":[],"stateMutability":"nonpayable"},{"type":"function","name":"setshutdown","inputs":[{"name":"_shutdown","type":"bool","internalType":"bool"}],"outputs":[],"stateMutability":"nonpayable"},{"type":"function","name":"shutdown","inputs":[],"outputs":[{"name":"","type":"bool","internalType":"bool"}],"stateMutability":"view"},{"type":"function","name":"systemAge","inputs":[],"outputs":[{"name":"","type":"uint256","internalType":"uint256"}],"stateMutability":"view"},{"type":"function","name":"withdrawIntervalDays","inputs":[],"outputs":[{"name":"","type":"uint256","internalType":"uint256"}],"stateMutability":"view"}],"bytecode":{"object":"0x6080346200022c57601f62001e1738819003918201601f19168301926001600160401b0392909183851183861017620002315781602092849260409788528339810103126200022c57516001600160a01b03811691908290036200022c5760018060a01b031991600190838254168255600093845416178355601e601655806017556103e8806018556002601955671bc16d674ec80000601a55678ac7230489e80000601b55680d8d726b7177a80000601c55670de0b6b3a7640000601d55600f601e556005601f5584519060e082018281108582111762000218578652600282526064602083015282868301528060c0600a93846060820152606460808201528560a0820152015260028055606460035582600455816005556064600655826007556008558160806200013262000247565b60198152836020820152605a8882015260b4606082015201526019600955808055605a600b5560b4600c5560ff19908282600d541617600d556200017562000247565b908082528360208301526101689081888401528460806101c2948560608201520152600e5583600f55601055601155601254161760125582519060c08201908282109082111762000204579060a09184526004815282602082015282848201528260608201528260808201520152600460135564ffffffffff196014541660145551611b939081620002848239f35b634e487b7160e01b83526041600452602483fd5b634e487b7160e01b86526041600452602486fd5b600080fd5b634e487b7160e01b600052604160045260246000fd5b6040519060a082016001600160401b0381118382101762000231576040526000608083828152826020820152826040820152826060820152015256fe60806040526004361015610018575b361561001657005b005b60003560e01c80630b225f1a146102a857806312065fe0146102a357806316f0115b1461029e57806318a7d283146102995780631f185d1614610294578063203bab661461028f578063223c0f011461028a5780633f43be121461028557806345e8fefd146102805780634b62954f1461027b57806351bfd3ae146102765780635640dbfc146102715780635a0e90381461026c5780635eac8225146102675780637687e371146102625780637b76180a1461025d57806381f00153146102585780638c62d086146102535780638da5cb5b1461024e5780638da9367f146102495780638e7ee05814610244578063901ec0f71461023f578063a1f7f5391461023a578063a371dfda14610235578063ace71f4814610230578063af0b21d31461022b578063af48452614610226578063b252fbe114610221578063b85f1f8d1461021c578063b90306ad14610217578063c32cfa9914610212578063c54e44b01461020d578063c776fdd714610208578063db2d8b2614610203578063e01ad5fd146101fe578063e0a9bc2b146101f9578063edcf9721146101f4578063eddd0d9c146101ef578063f54a77c8146101ea578063fc0e74d1146101e55763fdc10bc90361000e57611564565b611541565b611523565b6114ae565b611490565b6113fa565b6111d1565b6111b3565b611195565b6110fc565b6110de565b611045565b610ffb565b610f64565b610ecb565b610ead565b610e51565b610df5565b610ccc565b610bb1565b610b3c565b610ae0565b610ab7565b610985565b610910565b6108b4565b61083f565b610803565b6107b9565b61075a565b610602565b6105a0565b610582565b610564565b6104ea565b610431565b610367565b610338565b6102e7565b6102cb565b346102c65760003660031901126102c6576020601f54604051908152f35b600080fd5b346102c65760003660031901126102c657602047604051908152f35b346102c65760003660031901126102c65760e0600254600354600454600554600654906007549260085494604051968752602087015260408601526060850152608084015260a083015260c0820152f35b346102c65760003660031901126102c6576020601d54604051908152f35b6001600160a01b038116036102c657565b346102c6576020806003193601126102c6576004803561038681610356565b60005460405163af0deb9560e01b81526001600160a01b03949093909182918591829088165afa90811561042c576103f9946103e7946000936103fd575b5060405193168184015282526103d98261160a565b6103e16116e8565b90611aae565b60405190151581529081906020820190565b0390f35b61041e919350823d8411610425575b6104168183611642565b810190611664565b91386103c4565b503d61040c565b61167c565b346102c65760e03660031901126102c657600054604051634162169f60e01b8152906001600160a01b03906020908390600490829085165afa90811561042c57610486926000926104ca575b50163314611903565b61049160405161159d565b6004356002556024356003556044356004556064356005556104b4608435600655565b6104bf60a435600755565b61001660c435600855565b6104e391925060203d8111610425576104168183611642565b903861047d565b346102c65760203660031901126102c657600054604051634162169f60e01b815260048035926001600160a01b0391602091849190829085165afa90811561042c57610540926000926104ca5750163314611903565b670de0b6b3a76400009081810291818304149015171561055f57601c55005b6118df565b346102c65760003660031901126102c6576020601e54604051908152f35b346102c65760003660031901126102c6576020601a54604051908152f35b346102c65760403660031901126102c657600054604051634162169f60e01b8152906001600160a01b03906020908390600490829085165afa90811561042c576105f4926000926104ca5750163314611903565b600435601755602435601855005b346102c65760203660031901126102c6576004803561062081610356565b600054602090610640906001600160a01b03165b6001600160a01b031690565b604051635335e5f160e11b815293849182905afa91821561042c576103f9926106ae9261069292600092610736575b50604080516001600160a01b03909216602083015290926106a091849190820190565b03601f198101845283611642565b6106a86117a0565b90611941565b6001600160a01b03811615906106ee6106d76106c86117cf565b6106d06116a4565b9084611aae565b916106e06117f6565b6106e86116a4565b91611aae565b8290811561070c575b50506040519115158252509081906020820190565b919250908261072e575b5081610726575b503880806106f7565b90503861071d565b915038610716565b6106a09192506107539060203d8111610425576104168183611642565b919061066f565b346102c65760003660031901126102c65760c060135460ff60145460405192835281811615156020840152818160081c1615156040840152818160101c1615156060840152818160181c161515608084015260201c16151560a0820152f35b346102c65760003660031901126102c657600954600a54600b54600c54600d5460408051958652602086019490945292840191909152606083015260ff161515608082015260a090f35b346102c65760203660031901126102c657600435601a5481810291818304149015171561055f57602090604051908152f35b801515036102c657565b346102c65760203660031901126102c65760043561085c81610835565b600054604051634162169f60e01b8152906001600160a01b03906020908390600490829085165afa90811561042c5761089f926000926104ca5750163314611903565b60ff8019601554169115151617601555600080f35b346102c65760203660031901126102c657600054604051634162169f60e01b8152906001600160a01b03906020908390600490829085165afa90811561042c57610908926000926104ca5750163314611903565b600435601955005b346102c65760203660031901126102c657600054604051634162169f60e01b815260048035926001600160a01b0391602091849190829085165afa90811561042c57610966926000926104ca5750163314611903565b670de0b6b3a76400009081810291818304149015171561055f57601d55005b346102c65760c03660031901126102c6576024356109a281610835565b6044356109ae81610835565b6004606435916109bd83610835565b608435906109ca82610835565b60a435936109d785610835565b600054604051634162169f60e01b8152946001600160a01b0393916020918791829087165afa92831561042c5761001697610a27610a7795610a4c93610a96996000926104ca5750163314611903565b610a326040516115be565b600435601355151560ff8019601454169115151617601455565b6014805462ffff00191691151560081b61ff00169190911791151560101b62ff000016919091179055565b151563ff00000060145491151560181b169063ff000000191617601455565b151564ff0000000060145491151560201b169064ff00000000191617601455565b346102c65760003660031901126102c6576001546040516001600160a01b039091168152602090f35b346102c65760203660031901126102c657600054604051634162169f60e01b8152906001600160a01b03906020908390600490829085165afa90811561042c57610b34926000926104ca5750163314611903565b600435601f55005b346102c65760203660031901126102c657600054604051634162169f60e01b815260048035926001600160a01b0391602091849190829085165afa90811561042c57610b92926000926104ca5750163314611903565b670de0b6b3a76400009081810291818304149015171561055f57601b55005b346102c65760c03660031901126102c65760a435600435610bd182610835565b600054604051634162169f60e01b81526001600160a01b0392916020908290600490829087165afa801561042c57600293610c16926000926104ca5750163314611903565b60405192610c23846115da565b60243584526044356020850152606435604085015260843560608501521515608084015260018114610c8f575b14610c5757005b610016906080908051600e556020810151600f55604081015160105560608101516011550151151560ff801960125416911617601255565b610cc78360809080516009556020810151600a556040810151600b556060810151600c550151151560ff8019600d5416911617600d55565b610c50565b346102c657600080600319360112610df2578054610cf2906001600160a01b0316610634565b60405163387d334960e21b815260209290918383600481845afa801561042c57610d3885916004958591610dd5575b50610d2a61181a565b610d326116a4565b91611a70565b916040519485809263ab6e844f60e01b82525afa801561042c576103f994610da294610d9d9492610db2575b50610d8f90610692610d74611715565b94604051958693840160209093929193604081019481520152565b610d976118a6565b90611a70565b6118f5565b6040519081529081906020820190565b819250610dce90610d8f923d8511610425576104168183611642565b9190610d64565b610dec9150833d8511610425576104168183611642565b38610d21565b80fd5b346102c65760203660031901126102c657600054604051634162169f60e01b8152906001600160a01b03906020908390600490829085165afa90811561042c57610e49926000926104ca5750163314611903565b600435601655005b346102c65760203660031901126102c657600054604051634162169f60e01b8152906001600160a01b03906020908390600490829085165afa90811561042c57610ea5926000926104ca5750163314611903565b600435601e55005b346102c65760003660031901126102c6576020601654604051908152f35b346102c6576020806003193601126102c65760048035610eea81610356565b60005460405163af0deb9560e01b81526001600160a01b03949093909182918591829088165afa90811561042c576103f9946103e794600093610f45575b506040519316818401528252610f3d8261160a565b6103e16116b7565b610f5d919350823d8411610425576104168183611642565b9138610f28565b346102c657600080600319360112610df25780546040516369e8d84b60e11b815290602090829060049082906001600160a01b03165afa90811561042c5782610da292610fcd926103f99591610fdd575b5060405191610fc383611626565b8252610d97611b0f565b610fd8601b54611af2565b611b3d565b610ff5915060203d8111610425576104168183611642565b38610fb5565b346102c65760003660031901126102c657600e54600f5460105460115460125460408051958652602086019490945292840191909152606083015260ff161515608082015260a090f35b346102c65760203660031901126102c65760008054604051634162169f60e01b815260048035926001600160a01b0391602091849190829085165afa90811561042c57848080866110a3829683968985926110be5750163314611903565b818082156110b5575bf11561042c5780f35b506108fc6110ac565b6110d791925060203d8111610425576104168183611642565b908961047d565b346102c65760003660031901126102c6576020601854604051908152f35b346102c65760203660031901126102c65760043561111981610356565b803b600061112682611688565b926111346040519485611642565b82845260208401903c602d81511061115a57602a015160405160609190911c8152602090f35b60405162461bcd60e51b81526020600482015260136024820152724e6f742061206d696e696d616c2070726f787960681b6044820152606490fd5b346102c65760003660031901126102c6576020601954604051908152f35b346102c65760003660031901126102c6576020601c54604051908152f35b346102c6576020806003193601126102c6576004356111ef81610356565b600054611204906001600160a01b0316610634565b604090815163387d334960e21b81528481600481855afa801561042c57611235916000916113e35750610d2a61181a565b825163ab6e844f60e01b808252948682600481875afa91821561042c576000926113bc575b5084516001600160a01b0390911687820190815261128d919081906020015b03926106a0601f1994858101845283611642565b9284518681528781600481855afa90811561042c5788916112e39160009161139f575b5087516001600160a01b0388168482019081529091906112db90839060200103878101845283611642565b610d97611842565b96600487518094819382525afa96871561042c576103f99761133d93869360009261137e575b5087516001600160a01b0390941692840192835290916113359190849060200103908101845283611642565b6103e161187b565b6001600160a01b0390921615159384611373575b50508261136a575b505190151581529081906020820190565b15915038611359565b101592503880611351565b611335925061139990843d8611610425576104168183611642565b91611309565b6113b69150833d8511610425576104168183611642565b386112b0565b61128d9192506113db61127991893d8b11610425576104168183611642565b92915061125a565b610dec9150863d8811610425576104168183611642565b346102c65760003660031901126102c65760005460405163af0deb9560e01b815290602090829060049082906001600160a01b03165afa90811561042c576103f9916103e791600091611472575b506040516114558161160a565b6008815267697353616665282960c01b60208201526106e86116a4565b61148a915060203d8111610425576104168183611642565b38611448565b346102c65760003660031901126102c6576020601b54604051908152f35b346102c65760203660031901126102c657600054604051634162169f60e01b815260048035926001600160a01b0391602091849190829085165afa90811561042c57611504926000926104ca5750163314611903565b670de0b6b3a76400009081810291818304149015171561055f57601a55005b346102c65760003660031901126102c6576020601754604051908152f35b346102c65760003660031901126102c657602060ff601554166040519015158152f35b346102c65760003660031901126102c657602061157f611715565b604051908152f35b634e487b7160e01b600052604160045260246000fd5b60e0810190811067ffffffffffffffff8211176115b957604052565b611587565b60c0810190811067ffffffffffffffff8211176115b957604052565b60a0810190811067ffffffffffffffff8211176115b957604052565b67ffffffffffffffff81116115b957604052565b6040810190811067ffffffffffffffff8211176115b957604052565b6020810190811067ffffffffffffffff8211176115b957604052565b90601f8019910116810190811067ffffffffffffffff8211176115b957604052565b908160209103126102c6575161167981610356565b90565b6040513d6000823e3d90fd5b67ffffffffffffffff81116115b957601f01601f191660200190565b604051906116b182611626565b60008252565b604051906116c48261160a565b601582527469735365637572654261736528616464726573732960581b6020830152565b604051906116f58261160a565b601182527069735369676e657228616464726573732960781b6020830152565b60005460405163223df87160e11b815290602090829060049082906001600160a01b03165afa801561042c5761167991600091611782575b5060405161175a8161160a565b6005815264616765282960d81b60208201526040519161177983611626565b60008352611a70565b61179a915060203d8111610425576104168183611642565b3861174d565b604051906117ad8261160a565b601382527255736572546f496e737428616464726573732960681b6020830152565b604051906117dc8261160a565b600b82526a697353757370656e64282960a81b6020830152565b604051906118038261160a565b600882526769734c6f636b282960c01b6020830152565b604051906118278261160a565b600c82526b72616e6b666f7244414f282960a01b6020830152565b6040519061184f8261160a565b601982527f67657445666665637469766552616e6b286164647265737329000000000000006020830152565b604051906118888261160a565b600f82526e697353746f7028616464726573732960881b6020830152565b604051906118b38261160a565b601d82527f67657472616e6b636f756e742875696e743235362c75696e74323536290000006020830152565b634e487b7160e01b600052601160045260246000fd5b906003820180921161055f57565b1561190a57565b60405162461bcd60e51b815260206004820152600f60248201526e6f776e2e6e6f6e617574682e44414f60881b6044820152606490fd5b929161194f916000946119b0565b908061197a575b61195d5750565b9091506020818051810103126102c6576020015161063481610356565b506020815114611956565b9081519160005b83811061199d575050016000815290565b806020809284010151818501520161198c565b919091803b15611a5757600092611a13611a2185946119e36040519463ffffffff60e01b906020815191012016946115f6565b604051936020850152600484526119f98461160a565b604051928391611a0d602084018097611985565b90611985565b03601f198101835282611642565b51915afa3d15611a51573d611a3581611688565b90611a436040519283611642565b81523d6000602083013e9091565b60609091565b505050600090604051611a6981611626565b6000815290565b9291611a7e916000946119b0565b9080611aa3575b611a8c5750565b9091506020818051810103126102c6576020015190565b506020815114611a85565b9291611abc916000946119b0565b9080611ae7575b611aca5750565b9091506020818051810103126102c6576020015161167981610835565b506020815114611ac3565b90670de0b6b3a76400009182810292818404149015171561055f57565b60405190611b1c8261160a565b60128252716f7a6f6e655072696365496e55534454282960701b6020830152565b8115611b47570490565b634e487b7160e01b600052601260045260246000fdfea2646970667358221220ac68a14708da6f22b3ec1d40e19c19933455f533f517e1788536587f696c928c64736f6c63430008140033","linkReferences":{}},"methodIdentifiers":{"Burn(uint256)":"b90306ad","_delegatorCount()":"a1f7f539","_getImplementation(address)":"c54e44b0","_isDelegatorNode(address)":"e01ad5fd","_isSafe()":"e0a9bc2b","_isSecureBase(address)":"af484526","_isSigner(address)":"1f185d16","activateInUSDT()":"edcf9721","approvedClaimPerDayPrime()":"18a7d283","capping()":"5640dbfc","computeActivateValue()":"b252fbe1","computeMintValuePrime(uint256)":"5eac8225","freeIntervals()":"af0b21d3","getBalance()":"12065fe0","isNodeStopped(address)":"51bfd3ae","maxGlobalClaimPerDayPrime()":"db2d8b26","maxMintQtyPrime()":"c32cfa99","minMintQtyPrime()":"f54a77c8","mintFeePerQtyPrime()":"45e8fefd","mintLimitPerDayPrime()":"c776fdd7","owner()":"8da5cb5b","pool()":"16f0115b","poolNFT1()":"5a0e9038","poolNFT2()":"b85f1f8d","rankforDAO()":"0b225f1a","setActivateUSDT(uint256)":"8e7ee058","setApprovedClaimPerDayPrime(uint256)":"81f00153","setCapping(uint256,bool,bool,bool,bool,bool)":"8c62d086","setCoinPool(uint256,uint256,uint256,uint256,uint256,uint256,uint256)":"203bab66","setGlobalClaimPerDayPrime(uint256)":"223c0f01","setMintFee(uint256)":"eddd0d9c","setMintLimitPerDay(uint256)":"7b76180a","setMintQty(uint256,uint256)":"4b62954f","setNftPool(uint256,uint256,uint256,uint256,uint256,bool)":"901ec0f7","setRankforDAO(uint256)":"8da9367f","setWithdrawIntervalDays(uint256)":"ace71f48","setfreeIntervals(uint256)":"a371dfda","setshutdown(bool)":"7687e371","shutdown()":"fc0e74d1","systemAge()":"fdc10bc9","withdrawIntervalDays()":"3f43be12"},"id":2}