{"abi":[{"type":"constructor","inputs":[{"name":"_hex","type":"address","internalType":"address"}],"stateMutability":"nonpayable"},{"type":"fallback","stateMutability":"payable"},{"type":"receive","stateMutability":"payable"},{"type":"function","name":"Burn","inputs":[{"name":"amount","type":"uint256","internalType":"uint256"}],"outputs":[],"stateMutability":"nonpayable"},{"type":"function","name":"_delegatorCount","inputs":[],"outputs":[{"name":"","type":"uint256","internalType":"uint256"}],"stateMutability":"view"},{"type":"function","name":"_getImplementation","inputs":[{"name":"clone","type":"address","internalType":"address"}],"outputs":[{"name":"impl","type":"address","internalType":"address"}],"stateMutability":"view"},{"type":"function","name":"_isDelegatorNode","inputs":[{"name":"sender","type":"address","internalType":"address"}],"outputs":[{"name":"","type":"bool","internalType":"bool"}],"stateMutability":"view"},{"type":"function","name":"_isSafe","inputs":[],"outputs":[{"name":"","type":"bool","internalType":"bool"}],"stateMutability":"view"},{"type":"function","name":"_isSecureBase","inputs":[{"name":"sender","type":"address","internalType":"address"}],"outputs":[{"name":"","type":"bool","internalType":"bool"}],"stateMutability":"view"},{"type":"function","name":"_isSigner","inputs":[{"name":"sender","type":"address","internalType":"address"}],"outputs":[{"name":"","type":"bool","internalType":"bool"}],"stateMutability":"view"},{"type":"function","name":"addblacklist","inputs":[{"name":"d","type":"address","internalType":"address"},{"name":"op","type":"bool","internalType":"bool"}],"outputs":[],"stateMutability":"nonpayable"},{"type":"function","name":"blacklisted","inputs":[{"name":"","type":"address","internalType":"address"}],"outputs":[{"name":"","type":"bool","internalType":"bool"}],"stateMutability":"view"},{"type":"function","name":"getBalance","inputs":[],"outputs":[{"name":"","type":"uint256","internalType":"uint256"}],"stateMutability":"view"},{"type":"function","name":"getHexbase","inputs":[],"outputs":[{"name":"","type":"address","internalType":"address"}],"stateMutability":"view"},{"type":"function","name":"getdelegatorCount","inputs":[],"outputs":[{"name":"","type":"uint256","internalType":"uint256"}],"stateMutability":"view"},{"type":"function","name":"isdelegatorNode","inputs":[{"name":"sender","type":"address","internalType":"address"}],"outputs":[{"name":"","type":"bool","internalType":"bool"}],"stateMutability":"view"},{"type":"function","name":"owner","inputs":[],"outputs":[{"name":"","type":"address","internalType":"address"}],"stateMutability":"view"},{"type":"function","name":"systemAge","inputs":[],"outputs":[{"name":"","type":"uint256","internalType":"uint256"}],"stateMutability":"view"},{"type":"event","name":"EthBurned","inputs":[{"name":"sender","type":"address","indexed":true,"internalType":"address"},{"name":"amount","type":"uint256","indexed":false,"internalType":"uint256"}],"anonymous":false},{"type":"event","name":"EthTransferred","inputs":[{"name":"to","type":"address","indexed":true,"internalType":"address"},{"name":"amount","type":"uint256","indexed":false,"internalType":"uint256"}],"anonymous":false},{"type":"event","name":"HexBaseUpdated","inputs":[{"name":"previousHexBase","type":"address","indexed":true,"internalType":"address"},{"name":"newHexBase","type":"address","indexed":true,"internalType":"address"}],"anonymous":false},{"type":"event","name":"OwnerUpdated","inputs":[{"name":"previousOwner","type":"address","indexed":true,"internalType":"address"},{"name":"newOwner","type":"address","indexed":true,"internalType":"address"}],"anonymous":false},{"type":"error","name":"TargetCallFailed","inputs":[{"name":"selector","type":"bytes4","internalType":"bytes4"}]}],"bytecode":{"object":"0x6080346100c557601f6112c738819003918201601f19168301916001600160401b038311848410176100ca578084926020946040528339810103126100c557516001600160a01b038116908190036100c55780156100805760018060a01b03193381600154161760015560005416176000556040516111e690816100e18239f35b60405162461bcd60e51b815260206004820152601360248201527f6f776e2e696e76616c69642e68657862617365000000000000000000000000006044820152606490fd5b600080fd5b634e487b7160e01b600052604160045260246000fdfe60806040526004361015610018575b361561001657005b005b60003560e01c806312065fe0146101085780631f185d161461010357806325924f34146100fe5780633b9b7955146100f95780638da5cb5b146100f4578063a1f7f539146100ef578063af484526146100ea578063b90306ad146100e5578063c54e44b0146100e0578063c89b84fd146100db578063dbac26e9146100d6578063df49ed7c146100d1578063e01ad5fd146100cc578063e0a9bc2b146100c75763fdc10bc90361000e57610b7d565b610adb565b610a42565b61099d565b610951565b610853565b6107ba565b6106b3565b6105de565b61052d565b610504565b6104db565b610263565b61013a565b3461012457600036600319011261012457602047604051908152f35b600080fd5b6001600160a01b0381160361012457565b34610124576020806003193601126101245760049081359061015b82610129565b600054819061017a906001600160a01b03165b6001600160a01b031690565b604051634bf9c0ad60e11b815294859182905afa91821561025e576101d161020b936101ed9261021d9660009261022b575b506040516001600160a01b0390911685820190815290926101df918491602090910190565b03601f198101845283610bf3565b6101e7610ec0565b90611058565b919080610221575b6101fe90610eed565b8082518301019101610e2e565b60405190151581529081906020820190565b0390f35b50815181146101f5565b6101df91925061025090863d8811610257575b6102488183610bf3565b810190610c15565b91906101ac565b503d61023e565b610c2d565b34610124576020806003193601126101245760043561028181610129565b600054610296906001600160a01b031661016e565b90604090815163cfbffe5360e01b81528481600481875afa801561025e576102d7916000916104be575b506102c9610c68565b6102d1610c55565b91611172565b825163ab6e844f60e01b8082529491908681600481865afa90811561025e576000916104a1575b5084516001600160a01b038516888201908152819003808252601f199261033b929161032d9060200183610bf3565b610335610c90565b906110f2565b9285518781528881600481855afa90811561025e57899161039791600091610484575b5088516001600160a01b03881684820190815290919061038990839060200103878101845283610bf3565b610391610cbf565b90611172565b97600488518094819382525afa97881561025e5761021d986103f7938693600092610463575b5088516001600160a01b0390941692840192835290916103e99190849060200103908101845283610bf3565b6103f1610cf8565b90611136565b6001600160a01b0390921615159485610458575b50508361044f575b508261042b575b505190151581529081906020820190565b6001600160a01b031660009081526003602052604090205460ff161591503861041a565b15925038610413565b10159350388061040b565b6103e9925061047e90843d8611610257576102488183610bf3565b916103bd565b61049b9150833d8511610257576102488183610bf3565b3861035e565b6104b89150873d8911610257576102488183610bf3565b386102fe565b6104d59150863d8811610257576102488183610bf3565b386102c0565b34610124576000366003190112610124576000546040516001600160a01b039091168152602090f35b34610124576000366003190112610124576001546040516001600160a01b039091168152602090f35b346101245760003660031901126101245760005460405163d1f956b160e01b815290602090829060049082906001600160a01b03165afa90811561025e5761021d916105b0916000916105c0575b5060405161058881610bb6565b601381527267657464656c656761746f72436f756e74282960681b60208201526102d1610c55565b6040519081529081906020820190565b6105d8915060203d8111610257576102488183610bf3565b3861057b565b3461012457602080600319360112610124576004908135906105ff82610129565b6000548190610616906001600160a01b031661016e565b604051634bf9c0ad60e11b815294859182905afa91821561025e576101d161020b936106759261021d96600092610690575b506040516001600160a01b03909116858201908152909261066d918491602090910190565b6101e7610e43565b919080610686575b6101fe90610e74565b508151811461067d565b61066d9192506106ac90863d8811610257576102488183610bf3565b9190610648565b34610124576020806003193601126101245760043560018060a01b0391600092808454169060405191630536340960e21b83528383600481845afa92831561025e57600493859361070e92899261079b575b50163314610d80565b6040516311be646b60e21b815292839182905afa91821561025e5784808561074d9582958395849261077e575b50505af1610747610fea565b5061101a565b60405190815233907fcdcc745fe377b103b45fa0cec23ae3ef93d6fc6a84a01f0d18c40b354dd1d5d890602090a280f35b6107949250803d10610257576102488183610bf3565b388061073b565b6107b3919250853d8711610257576102488183610bf3565b9038610705565b34610124576020366003190112610124576004356107d781610129565b803b60006107e482610c39565b926107f26040519485610bf3565b82845260208401903c602d81511061081857602a015160405160609190911c8152602090f35b60405162461bcd60e51b81526020600482015260136024820152724e6f742061206d696e696d616c2070726f787960681b6044820152606490fd5b346101245760008060031936011261094e578054610879906001600160a01b031661016e565b60405163cfbffe5360e01b815260209290918383600481845afa801561025e576108b08591600495859161093757506102c9610c68565b916040519485809263ab6e844f60e01b82525afa801561025e5761021d946105b09461090f9492610914575b50610907906101d16108ec610f32565b94604051958693840160209093929193604081019481520152565b610391610d23565b610d5c565b81925061093090610907923d8511610257576102488183610bf3565b91906108dc565b6104d59150833d8511610257576102488183610bf3565b80fd5b346101245760203660031901126101245760043561096e81610129565b60018060a01b03166000526003602052602060ff604060002054166040519015158152f35b8015150361012457565b34610124576040366003190112610124576004356109ba81610129565b6024356109c681610993565b60018060a01b03600092600460208386541660405192838092630536340960e21b82525afa801561025e57610a06918691610a24575b5083163314610d80565b1682526003602052604082209060ff80198354169115151617905580f35b610a3c915060203d8111610257576102488183610bf3565b386109fc565b34610124576020806003193601126101245760048035610a6181610129565b60005460405163d1f956b160e01b81526001600160a01b03949093909182918591829088165afa90811561025e5761021d9461020b94600093610abc575b506040519316818401528252610ab482610bb6565b6103f1610fbd565b610ad4919350823d8411610257576102488183610bf3565b9138610a9f565b3461012457600036600319011261012457600054604051634bf9c0ad60e11b8152906020908190839060049082906001600160a01b03165afa90811561025e57610b4561020b9261021d94600091610b60575b50610b37610dbe565b610b3f610c55565b91611058565b919080610b56575b6101fe90610de2565b5081518114610b4d565b610b779150833d8511610257576102488183610bf3565b38610b2e565b34610124576000366003190112610124576020610b98610f32565b604051908152f35b634e487b7160e01b600052604160045260246000fd5b6040810190811067ffffffffffffffff821117610bd257604052565b610ba0565b6020810190811067ffffffffffffffff821117610bd257604052565b90601f8019910116810190811067ffffffffffffffff821117610bd257604052565b908160209103126101245751610c2a81610129565b90565b6040513d6000823e3d90fd5b67ffffffffffffffff8111610bd257601f01601f191660200190565b60405190610c6282610bd7565b60008252565b60405190610c7582610bb6565b600c82526b72616e6b666f7244414f282960a01b6020830152565b60405190610c9d82610bb6565b601382527255736572546f496e737428616464726573732960681b6020830152565b60405190610ccc82610bb6565b601982527f67657445666665637469766552616e6b286164647265737329000000000000006020830152565b60405190610d0582610bb6565b600f82526e697353746f7028616464726573732960881b6020830152565b60405190610d3082610bb6565b601d82527f67657472616e6b636f756e742875696e743235362c75696e74323536290000006020830152565b9060038201809211610d6a57565b634e487b7160e01b600052601160045260246000fd5b15610d8757565b60405162461bcd60e51b815260206004820152600f60248201526e6f776e2e6e6f6e617574682e44414f60881b6044820152606490fd5b60405190610dcb82610bb6565b6008825267697353616665282960c01b6020830152565b15610de957565b60405162461bcd60e51b815260206004820152601960248201527f6f776e2e7361666567756172642e63616c6c2e6661696c6564000000000000006044820152606490fd5b908160209103126101245751610c2a81610993565b60405190610e5082610bb6565b601582527469735365637572654261736528616464726573732960581b6020830152565b15610e7b57565b60405162461bcd60e51b815260206004820152601a60248201527f6f776e2e736563757265626173652e63616c6c2e6661696c65640000000000006044820152606490fd5b60405190610ecd82610bb6565b601182527069735369676e657228616464726573732960781b6020830152565b15610ef457565b60405162461bcd60e51b81526020600482015260166024820152751bdddb8b9cda59db995c8b98d85b1b0b99985a5b195960521b6044820152606490fd5b60005460405163111ea8c160e21b815290602090829060049082906001600160a01b03165afa801561025e57610c2a91600091610f9f575b50604051610f7781610bb6565b6005815264616765282960d81b602082015260405191610f9683610bd7565b60008352611172565b610fb7915060203d8111610257576102488183610bf3565b38610f6a565b60405190610fca82610bb6565b6011825270697364656c656761746f724e6f6465282960781b6020830152565b3d15611015573d90610ffb82610c39565b916110096040519384610bf3565b82523d6000602084013e565b606090565b1561102157565b60405162461bcd60e51b815260206004820152600f60248201526e1bdddb8b989d5c9b8b99985a5b1959608a1b6044820152606490fd5b9190823b156110d9578051906020918263ffffffff60e01b92012016916040519180830193845281519160005b8381106110c55750505091816110b260248260009795968897018783820152036004810184520182610bf3565b5191620dbba0fa6110c1610fea565b9091565b818101830151858201602401528201611085565b5050506000906040516110eb81610bd7565b6000815290565b929161110091600094611058565b908061112b575b61110e5750565b909150602081805181010312610124576020015161016e81610129565b506020815114611107565b929161114491600094611058565b9080611167575b6111525750565b610c2a91925060208082518301019101610e2e565b50602081511461114b565b929161118091600094611058565b90806111a5575b61118e5750565b909150602081805181010312610124576020015190565b50602081511461118756fea2646970667358221220e69431bfdf474d3a2c7eee0b8baf5c86c55263e015d7d5a16ce39e58a422164c64736f6c63430008140033","linkReferences":{}},"methodIdentifiers":{"Burn(uint256)":"b90306ad","_delegatorCount()":"a1f7f539","_getImplementation(address)":"c54e44b0","_isDelegatorNode(address)":"e01ad5fd","_isSafe()":"e0a9bc2b","_isSecureBase(address)":"af484526","_isSigner(address)":"1f185d16","addblacklist(address,bool)":"df49ed7c","blacklisted(address)":"dbac26e9","getBalance()":"12065fe0","getHexbase()":"3b9b7955","getdelegatorCount()":"c89b84fd","isdelegatorNode(address)":"25924f34","owner()":"8da5cb5b","systemAge()":"fdc10bc9"},"id":42}