{"abi":[{"type":"constructor","inputs":[{"name":"_hex","type":"address","internalType":"address"}],"stateMutability":"nonpayable"},{"type":"fallback","stateMutability":"payable"},{"type":"receive","stateMutability":"payable"},{"type":"function","name":"Burn","inputs":[{"name":"amount","type":"uint256","internalType":"uint256"}],"outputs":[],"stateMutability":"nonpayable"},{"type":"function","name":"_delegatorCount","inputs":[],"outputs":[{"name":"","type":"uint256","internalType":"uint256"}],"stateMutability":"view"},{"type":"function","name":"_getImplementation","inputs":[{"name":"clone","type":"address","internalType":"address"}],"outputs":[{"name":"impl","type":"address","internalType":"address"}],"stateMutability":"view"},{"type":"function","name":"_isDelegatorNode","inputs":[{"name":"sender","type":"address","internalType":"address"}],"outputs":[{"name":"","type":"bool","internalType":"bool"}],"stateMutability":"view"},{"type":"function","name":"_isSafe","inputs":[],"outputs":[{"name":"","type":"bool","internalType":"bool"}],"stateMutability":"view"},{"type":"function","name":"_isSecureBase","inputs":[{"name":"sender","type":"address","internalType":"address"}],"outputs":[{"name":"","type":"bool","internalType":"bool"}],"stateMutability":"view"},{"type":"function","name":"_isSigner","inputs":[{"name":"sender","type":"address","internalType":"address"}],"outputs":[{"name":"","type":"bool","internalType":"bool"}],"stateMutability":"view"},{"type":"function","name":"blacklisted","inputs":[{"name":"","type":"address","internalType":"address"}],"outputs":[{"name":"","type":"bool","internalType":"bool"}],"stateMutability":"view"},{"type":"function","name":"getBalance","inputs":[],"outputs":[{"name":"","type":"uint256","internalType":"uint256"}],"stateMutability":"view"},{"type":"function","name":"getHexbase","inputs":[],"outputs":[{"name":"","type":"address","internalType":"address"}],"stateMutability":"view"},{"type":"function","name":"getdelegatorCount","inputs":[],"outputs":[{"name":"","type":"uint256","internalType":"uint256"}],"stateMutability":"view"},{"type":"function","name":"isdelegatorNode","inputs":[{"name":"sender","type":"address","internalType":"address"}],"outputs":[{"name":"","type":"bool","internalType":"bool"}],"stateMutability":"view"},{"type":"function","name":"owner","inputs":[],"outputs":[{"name":"","type":"address","internalType":"address"}],"stateMutability":"view"},{"type":"function","name":"setblacklist","inputs":[{"name":"d","type":"address","internalType":"address"},{"name":"op","type":"bool","internalType":"bool"}],"outputs":[],"stateMutability":"nonpayable"},{"type":"function","name":"systemAge","inputs":[],"outputs":[{"name":"","type":"uint256","internalType":"uint256"}],"stateMutability":"view"},{"type":"event","name":"EthBurned","inputs":[{"name":"sender","type":"address","indexed":true,"internalType":"address"},{"name":"amount","type":"uint256","indexed":false,"internalType":"uint256"}],"anonymous":false},{"type":"event","name":"EthTransferred","inputs":[{"name":"to","type":"address","indexed":true,"internalType":"address"},{"name":"amount","type":"uint256","indexed":false,"internalType":"uint256"}],"anonymous":false},{"type":"event","name":"HexBaseUpdated","inputs":[{"name":"previousHexBase","type":"address","indexed":true,"internalType":"address"},{"name":"newHexBase","type":"address","indexed":true,"internalType":"address"}],"anonymous":false},{"type":"event","name":"OwnerUpdated","inputs":[{"name":"previousOwner","type":"address","indexed":true,"internalType":"address"},{"name":"newOwner","type":"address","indexed":true,"internalType":"address"}],"anonymous":false},{"type":"error","name":"TargetCallFailed","inputs":[{"name":"selector","type":"bytes4","internalType":"bytes4"}]}],"bytecode":{"object":"0x6080346100ca57601f6111c438819003918201601f19168301916001600160401b038311848410176100cf578084926020946040528339810103126100ca57516001600160a01b038116908190036100ca5780156100855760018060a01b031933816001541617600155600054161760005560006004556040516110de90816100e68239f35b60405162461bcd60e51b815260206004820152601360248201527f6f776e2e696e76616c69642e68657862617365000000000000000000000000006044820152606490fd5b600080fd5b634e487b7160e01b600052604160045260246000fdfe60806040526004361015610018575b361561001657005b005b60003560e01c806312065fe0146101085780631f185d161461010357806325924f34146100fe5780633b9b7955146100f957806361b7fbd9146100f45780638da5cb5b146100ef578063a1f7f539146100ea578063af484526146100e5578063b90306ad146100e0578063c54e44b0146100db578063c89b84fd146100d6578063dbac26e9146100d1578063e01ad5fd146100cc578063e0a9bc2b146100c75763fdc10bc90361000e57610963565b6108c1565b610822565b6107e0565b6106d1565b610635565b61052e565b610473565b6103bc565b610393565b6102bd565b61028a565b610246565b61013a565b3461012457600036600319011261012457602047604051908152f35b600080fd5b6001600160a01b0381160361012457565b34610124576020806003193601126101245760049081359061015b82610129565b8061016f61016a6000546107d4565b6107d4565b604051634bf9c0ad60e11b815294859182905afa918215610241576101b46101ee936101d0926102009660009261020e575b506101c290604051938491878301610277565b03601f1981018452836109d7565b6101ca610db1565b90610f50565b919080610204575b6101e190610dde565b8082518301019101610d22565b60405191829182901515815260200190565b0390f35b50815181146101d8565b6101c291925061023390863d881161023a575b61022b81836109d7565b8101906109fa565b91906101a1565b503d610221565b610a12565b3461012457602036600319011261012457602061026d60043561026881610129565b610aec565b6040519015158152f35b6001600160a01b03909116815260200190565b34610124576000366003190112610124576000546040516001600160a01b039091168152602090f35b8015150361012457565b34610124576040366003190112610124576004356102da81610129565b6024356102e6816102b3565b60018060a01b03600092600460208386541660405192838092630536340960e21b82525afa801561024157610326918691610375575b5083163314610c62565b16825260036020526040822060ff1981541660ff8315151617905560001461036257600454600019811461035d5760010160045580f35b610ca0565b600454801561035d576000190160045580f35b61038d915060203d811161023a5761022b81836109d7565b3861031c565b34610124576000366003190112610124576001546040516001600160a01b039091168152602090f35b346101245760003660031901126101245760005460405163d1f956b160e01b815290602090829060049082906001600160a01b03165afa908115610241576102009161044591600091610455575b506040516104178161099c565b601381527267657464656c656761746f72436f756e74282960681b602082015261043f610a39565b9161106a565b6040519081529081906020820190565b61046d915060203d811161023a5761022b81836109d7565b3861040a565b34610124576020806003193601126101245760049081359061049482610129565b806104a361016a6000546107d4565b604051634bf9c0ad60e11b815294859182905afa918215610241576101b46101ee936104f0926102009660009261050b575b506104e890604051938491878301610277565b6101ca610d37565b919080610501575b6101e190610d68565b50815181146104f8565b6104e891925061052790863d881161023a5761022b81836109d7565b91906104d5565b34610124576020806003193601126101245760043560018060a01b0391600092808454169060405191630536340960e21b83528383600481845afa928315610241576004938593610589928992610616575b50163314610c62565b6040516311be646b60e21b815292839182905afa918215610241578480856105c8958295839584926105f9575b50505af16105c2610ee2565b50610f12565b60405190815233907fcdcc745fe377b103b45fa0cec23ae3ef93d6fc6a84a01f0d18c40b354dd1d5d890602090a280f35b61060f9250803d1061023a5761022b81836109d7565b38806105b6565b61062e919250853d871161023a5761022b81836109d7565b9038610580565b346101245760203660031901126101245760043561065281610129565b803b600061065f82610a1e565b9261066d60405194856109d7565b82845260208401903c602d81511061069657602a61020091015160601c60405191829182610277565b60405162461bcd60e51b81526020600482015260136024820152724e6f742061206d696e696d616c2070726f787960681b6044820152606490fd5b34610124576000806003193601126107d1576106f061016a82546107d4565b60405163cfbffe5360e01b8152919060208084600481855afa80156102415761072f829160049686916107b4575b50610727610a4c565b61043f610a39565b926040519586809263ab6e844f60e01b82525afa90811561024157610200946104459492610791575b50610783906101b4610768610e23565b94604051958693840160209093929193604081019481520152565b61078b610c29565b9061106a565b8192506107ad90610783923d851161023a5761022b81836109d7565b9190610758565b6107cb9150833d851161023a5761022b81836109d7565b3861071e565b80fd5b6001600160a01b031690565b34610124576020366003190112610124576004356107fd81610129565b60018060a01b03166000526003602052602060ff604060002054166040519015158152f35b3461012457602080600319360112610124576004803561084181610129565b60005460405163d1f956b160e01b81526001600160a01b03949093909182918591829088165afa90811561024157610200946101ee946000936108a2575b5060405193168184015282526108948261099c565b61089c610eae565b9061102e565b6108ba919350823d841161023a5761022b81836109d7565b913861087f565b3461012457600036600319011261012457600054604051634bf9c0ad60e11b8152906020908190839060049082906001600160a01b03165afa9081156102415761092b6101ee9261020094600091610946575b5061091d610cb6565b610925610a39565b91610f50565b91908061093c575b6101e190610cda565b5081518114610933565b61095d9150833d851161023a5761022b81836109d7565b38610914565b3461012457600036600319011261012457602061097e610e23565b604051908152f35b634e487b7160e01b600052604160045260246000fd5b604081019081106001600160401b038211176109b757604052565b610986565b602081019081106001600160401b038211176109b757604052565b601f909101601f19168101906001600160401b038211908210176109b757604052565b908160209103126101245751610a0f81610129565b90565b6040513d6000823e3d90fd5b6001600160401b0381116109b757601f01601f191660200190565b60405190610a46826109bc565b60008252565b60405190610a598261099c565b600c82526b72616e6b666f7244414f282960a01b6020830152565b60405190610a818261099c565b601682527567657455736572546f53746f7228616464726573732960501b6020830152565b60405190610ab38261099c565b600682526572616e6b282960d01b6020830152565b60405190610ad58261099c565b600882526769734c6f636b282960c01b6020830152565b610afa61016a6000546107d4565b9060405163cfbffe5360e01b81526020908181600481875afa801561024157610b3183916004936000916107b45750610727610a4c565b946040519283809263ab6e844f60e01b82525afa801561024157610b7c928492600092610c06575b50610b6e906101b46040519485928301610277565b610b76610a74565b90610fea565b916001600160a01b03831615610bfe57610bc0610ba9610b9a610aa6565b610ba2610a39565b908661106a565b93610bb2610ac8565b610bba610a39565b9161102e565b9210159182610bf5575b5081610bd4575090565b6001600160a01b031660009081526003602052604090205460ff1615905090565b15915038610bca565b505050600090565b819250610c2290610b6e923d851161023a5761022b81836109d7565b9190610b59565b60405190610c368261099c565b601d82527f67657472616e6b636f756e742875696e743235362c75696e74323536290000006020830152565b15610c6957565b60405162461bcd60e51b815260206004820152600f60248201526e6f776e2e6e6f6e617574682e44414f60881b6044820152606490fd5b634e487b7160e01b600052601160045260246000fd5b60405190610cc38261099c565b6008825267697353616665282960c01b6020830152565b15610ce157565b60405162461bcd60e51b81526020600482015260196024820152781bdddb8b9cd8599959dd585c990b98d85b1b0b99985a5b1959603a1b6044820152606490fd5b908160209103126101245751610a0f816102b3565b60405190610d448261099c565b601582527469735365637572654261736528616464726573732960581b6020830152565b15610d6f57565b60405162461bcd60e51b815260206004820152601a6024820152791bdddb8b9cd958dd5c9958985cd94b98d85b1b0b99985a5b195960321b6044820152606490fd5b60405190610dbe8261099c565b601182527069735369676e657228616464726573732960781b6020830152565b15610de557565b60405162461bcd60e51b81526020600482015260166024820152751bdddb8b9cda59db995c8b98d85b1b0b99985a5b195960521b6044820152606490fd5b60005460405163111ea8c160e21b815290602090829060049082906001600160a01b03165afa801561024157610a0f91600091610e90575b50604051610e688161099c565b6005815264616765282960d81b602082015260405191610e87836109bc565b6000835261106a565b610ea8915060203d811161023a5761022b81836109d7565b38610e5b565b60405190610ebb8261099c565b6018825277697364656c656761746f724e6f646528616464726573732960401b6020830152565b3d15610f0d573d90610ef382610a1e565b91610f0160405193846109d7565b82523d6000602084013e565b606090565b15610f1957565b60405162461bcd60e51b815260206004820152600f60248201526e1bdddb8b989d5c9b8b99985a5b1959608a1b6044820152606490fd5b9190823b15610fd1578051906020918263ffffffff60e01b92012016916040519180830193845281519160005b838110610fbd575050509181610faa602482600097959688970187838201520360048101845201826109d7565b5191620dbba0fa610fb9610ee2565b9091565b818101830151858201602401528201610f7d565b505050600090604051610fe3816109bc565b6000815290565b9291610ff891600094610f50565b9080611023575b6110065750565b90915060208180518101031261012457602001516107d481610129565b506020815114610fff565b929161103c91600094610f50565b908061105f575b61104a5750565b610a0f91925060208082518301019101610d22565b506020815114611043565b929161107891600094610f50565b908061109d575b6110865750565b909150602081805181010312610124576020015190565b50602081511461107f56fea26469706673582212203076ae48dadbcb3dc34f188d02035a3cf557a9d2269a0d87fa1d67751cdf8bfb64736f6c63430008140033","linkReferences":{}},"methodIdentifiers":{"Burn(uint256)":"b90306ad","_delegatorCount()":"a1f7f539","_getImplementation(address)":"c54e44b0","_isDelegatorNode(address)":"e01ad5fd","_isSafe()":"e0a9bc2b","_isSecureBase(address)":"af484526","_isSigner(address)":"1f185d16","blacklisted(address)":"dbac26e9","getBalance()":"12065fe0","getHexbase()":"3b9b7955","getdelegatorCount()":"c89b84fd","isdelegatorNode(address)":"25924f34","owner()":"8da5cb5b","setblacklist(address,bool)":"61b7fbd9","systemAge()":"fdc10bc9"},"id":22}