{"abi":[{"type":"constructor","inputs":[{"name":"_hex","type":"address","internalType":"address"}],"stateMutability":"nonpayable"},{"type":"fallback","stateMutability":"payable"},{"type":"receive","stateMutability":"payable"},{"type":"function","name":"Burn","inputs":[{"name":"amount","type":"uint256","internalType":"uint256"}],"outputs":[],"stateMutability":"nonpayable"},{"type":"function","name":"_delegatorCount","inputs":[],"outputs":[{"name":"","type":"uint256","internalType":"uint256"}],"stateMutability":"view"},{"type":"function","name":"_getImplementation","inputs":[{"name":"clone","type":"address","internalType":"address"}],"outputs":[{"name":"impl","type":"address","internalType":"address"}],"stateMutability":"view"},{"type":"function","name":"_isDelegatorNode","inputs":[{"name":"sender","type":"address","internalType":"address"}],"outputs":[{"name":"","type":"bool","internalType":"bool"}],"stateMutability":"view"},{"type":"function","name":"_isSafe","inputs":[],"outputs":[{"name":"","type":"bool","internalType":"bool"}],"stateMutability":"view"},{"type":"function","name":"_isSecureBase","inputs":[{"name":"sender","type":"address","internalType":"address"}],"outputs":[{"name":"","type":"bool","internalType":"bool"}],"stateMutability":"view"},{"type":"function","name":"_isSigner","inputs":[{"name":"sender","type":"address","internalType":"address"}],"outputs":[{"name":"","type":"bool","internalType":"bool"}],"stateMutability":"view"},{"type":"function","name":"blacklisted","inputs":[{"name":"","type":"address","internalType":"address"}],"outputs":[{"name":"","type":"bool","internalType":"bool"}],"stateMutability":"view"},{"type":"function","name":"getBalance","inputs":[],"outputs":[{"name":"","type":"uint256","internalType":"uint256"}],"stateMutability":"view"},{"type":"function","name":"getHexbase","inputs":[],"outputs":[{"name":"","type":"address","internalType":"address"}],"stateMutability":"view"},{"type":"function","name":"getdelegatorCount","inputs":[],"outputs":[{"name":"","type":"uint256","internalType":"uint256"}],"stateMutability":"view"},{"type":"function","name":"isdelegatorNode","inputs":[{"name":"sender","type":"address","internalType":"address"}],"outputs":[{"name":"","type":"bool","internalType":"bool"}],"stateMutability":"view"},{"type":"function","name":"owner","inputs":[],"outputs":[{"name":"","type":"address","internalType":"address"}],"stateMutability":"view"},{"type":"function","name":"setblacklist","inputs":[{"name":"d","type":"address","internalType":"address"},{"name":"op","type":"bool","internalType":"bool"}],"outputs":[],"stateMutability":"nonpayable"},{"type":"function","name":"syncBaseAddr","inputs":[],"outputs":[],"stateMutability":"nonpayable"},{"type":"function","name":"systemAge","inputs":[],"outputs":[{"name":"","type":"uint256","internalType":"uint256"}],"stateMutability":"view"},{"type":"event","name":"EthBurned","inputs":[{"name":"sender","type":"address","indexed":true,"internalType":"address"},{"name":"amount","type":"uint256","indexed":false,"internalType":"uint256"}],"anonymous":false},{"type":"event","name":"EthTransferred","inputs":[{"name":"to","type":"address","indexed":true,"internalType":"address"},{"name":"amount","type":"uint256","indexed":false,"internalType":"uint256"}],"anonymous":false},{"type":"event","name":"HexBaseUpdated","inputs":[{"name":"previousHexBase","type":"address","indexed":true,"internalType":"address"},{"name":"newHexBase","type":"address","indexed":true,"internalType":"address"}],"anonymous":false},{"type":"event","name":"OwnerUpdated","inputs":[{"name":"previousOwner","type":"address","indexed":true,"internalType":"address"},{"name":"newOwner","type":"address","indexed":true,"internalType":"address"}],"anonymous":false},{"type":"error","name":"CallFailed","inputs":[]},{"type":"error","name":"InvalidAddress","inputs":[]},{"type":"error","name":"InvalidState","inputs":[]},{"type":"error","name":"NotAuthorized","inputs":[]},{"type":"error","name":"NotSafe","inputs":[]},{"type":"error","name":"TargetCallFailed","inputs":[{"name":"selector","type":"bytes4","internalType":"bytes4"}]}],"bytecode":{"object":"0x60803461009757601f6118d438819003918201601f19168301916001600160401b0383118484101761009c5780849260209460405283398101031261009757516001600160a01b038116908190036100975780156100855760018060a01b0319338160015416176001556000541617600055600060125560405161182190816100b38239f35b60405163e6c4247b60e01b8152600490fd5b600080fd5b634e487b7160e01b600052604160045260246000fdfe60806040526004361015610018575b361561001657005b005b60003560e01c806312065fe0146101185780631f185d161461011357806325924f341461010e578063339459a6146101095780633b9b79551461010457806361b7fbd9146100ff5780638da5cb5b146100fa578063a1f7f539146100f5578063af484526146100f0578063b90306ad146100eb578063c54e44b0146100e6578063c89b84fd146100e1578063dbac26e9146100dc578063e01ad5fd146100d7578063e0a9bc2b146100d25763fdc10bc90361000e57610f40565b610ea7565b610e27565b610de4565b610cb6565b610c30565b610b2f565b610ab0565b610a3b565b610a14565b61095d565b61092c565b610266565b610235565b61014a565b3461013457600036600319011261013457602047604051908152f35b600080fd5b6001600160a01b0381160361013457565b3461013457602080600319360112610134576101c960043561016b81610139565b6001600160a01b0380600254169060405192168483015283825261018e82610f71565b6040519061019b82610f71565b601182527f69735369676e657228616464726573732900000000000000000000000000000085830152611672565b91908061022b575b156102015781816101eb926101fd945183010191016115db565b60405190151581529081906020820190565b0390f35b60046040517f3204506f000000000000000000000000000000000000000000000000000000008152fd5b50808251146101d1565b3461013457602036600319011261013457602061025c60043561025781610139565b611128565b6040519015158152f35b346101345760003660031901126101345761029861028c6000546001600160a01b031690565b6001600160a01b031690565b604051907f97f3815a000000000000000000000000000000000000000000000000000000008252602082600481845afa91821561075c5760009261090b575b506040519163cfbffe5360e01b8352602083600481855afa92831561075c576000936108ea575b506040519063ab6e844f60e01b8252602082600481865afa91821561075c576000926108c9575b50604051917f14d8d024000000000000000000000000000000000000000000000000000000008352602083600481875afa92831561075c576000936108a8575b50604051927fd1f956b1000000000000000000000000000000000000000000000000000000008452602084600481885afa93841561075c57600094610887575b50604051937fe61dfd58000000000000000000000000000000000000000000000000000000008552602085600481895afa94851561075c57600095610866575b506040517fe09d394d0000000000000000000000000000000000000000000000000000000081526020816004818a5afa90811561075c57600091610847575b506040517f52b06d640000000000000000000000000000000000000000000000000000000081526020816004818b5afa90811561075c57600091610828575b506040517f013cf08b00000000000000000000000000000000000000000000000000000000815260006004820152916020836024818c5afa92831561075c57600093610807575b50604051977f5e09dbe70000000000000000000000000000000000000000000000000000000089526020896004818d5afa94851561075c576004996000966107e6575b5060208b6040519b8c80927faa0ddc160000000000000000000000000000000000000000000000000000000082525afa96871561075c5760049a6000986107c5575b5060208c6040519c8d80927f640274270000000000000000000000000000000000000000000000000000000082525afa98891561075c5760049b60009a6107a4575b5060208d6040519d8e80927f30125cf50000000000000000000000000000000000000000000000000000000082525afa9a8b1561075c578d60049d60009d610782575b506020906040519e8f80927f24768d910000000000000000000000000000000000000000000000000000000082525afa9c8d1561075c5760009d610761575b50604051809e81907f9dc969a80000000000000000000000000000000000000000000000000000000082525a92600491602094fa9d8e1561075c5760009e61072b575b5061063f610ff4565b6001600160a01b0390911681529d8e906001600160a01b031660208201526040019061067391906001600160a01b03169052565b6001600160a01b031660608d01526001600160a01b031660808c01526001600160a01b031660a08b01526001600160a01b031660c08a01526001600160a01b031660e08901526001600160a01b03166101008801526001600160a01b03166101208701526001600160a01b03166101408601526001600160a01b03166101608501526001600160a01b03166101808401526001600160a01b03166101a08301526001600160a01b03166101c0820152610016906112d8565b61074e919e5060203d602011610755575b6107468183610fae565b810190610fd0565b9c38610636565b503d61073c565b610fe8565b61077b919d5060203d602011610755576107468183610fae565b9b386105f3565b6020919d5061079d90823d8411610755576107468183610fae565b9c906105b4565b6107be919a5060203d602011610755576107468183610fae565b9838610571565b6107df91985060203d602011610755576107468183610fae565b963861052f565b61080091965060203d602011610755576107468183610fae565b94386104ed565b61082191935060203d602011610755576107468183610fae565b91386104aa565b610841915060203d602011610755576107468183610fae565b38610463565b610860915060203d602011610755576107468183610fae565b38610424565b61088091955060203d602011610755576107468183610fae565b93386103e5565b6108a191945060203d602011610755576107468183610fae565b92386103a5565b6108c291935060203d602011610755576107468183610fae565b9138610365565b6108e391925060203d602011610755576107468183610fae565b9038610325565b61090491935060203d602011610755576107468183610fae565b91386102fe565b61092591925060203d602011610755576107468183610fae565b90386102d7565b346101345760003660031901126101345760206001600160a01b0360005416604051908152f35b8015150361013457565b346101345760403660031901126101345760043561097a81610139565b6024359061098782610953565b6001600160a01b0390816005541633036109ea57166000526011602052604060002060ff1981541660ff831515161790556000146109d85760125460001981146109d357600101601255005b6112c2565b60125480156109d35760001901601255005b60046040517fea8e4eb5000000000000000000000000000000000000000000000000000000008152fd5b346101345760003660031901126101345760206001600160a01b0360015416604051908152f35b34610134576000366003190112610134576020610aa86001600160a01b0360065416604051610a6981610f71565b601381527f67657464656c656761746f72436f756e742829000000000000000000000000008482015260405191610a9f83610f92565b600083526117ad565b604051908152f35b3461013457602080600319360112610134576101c9600435610ad181610139565b6001600160a01b03806002541690604051921684830152838252610af482610f71565b60405190610b0182610f71565b601582527f697353656375726542617365286164647265737329000000000000000000000085830152611672565b34610134576020366003190112610134576004356001600160a01b036005541633036109ea5760009060046020610b7061028c85546001600160a01b031690565b604051928380927f46f991ac0000000000000000000000000000000000000000000000000000000082525afa801561075c5783808481949382948391610c12575b505af1610bbc611642565b5015610201577fcdcc745fe377b103b45fa0cec23ae3ef93d6fc6a84a01f0d18c40b354dd1d5d8610c0c610bfb61028c600b546001600160a01b031690565b604051938452929081906020820190565b0390a280f35b610c2a915060203d8111610755576107468183610fae565b38610bb1565b3461013457602036600319011261013457600435610c4d81610139565b803b6000610c5a82611015565b92610c686040519485610fae565b82845260208401903c602d815110610c8c57602a602091015160601c604051908152f35b60046040517fbaf3f0f7000000000000000000000000000000000000000000000000000000008152fd5b3461013457600080600319360112610de157610cdc61028c82546001600160a01b031690565b906040519163cfbffe5360e01b835260208084600481855afa801561075c57610d2182916004968691610dc4575b50610d13611044565b610d1b611031565b916117ad565b926040519586809263ab6e844f60e01b82525afa90811561075c576101fd94610d919492610da1575b50610d8390610d75610d5a6115f0565b94604051958693840160209093929193604081019481520152565b03601f198101845283610fae565b610d8b611289565b906117ad565b6040519081529081906020820190565b819250610dbd90610d83923d8511610755576107468183610fae565b9190610d4a565b610ddb9150833d8511610755576107468183610fae565b38610d0a565b80fd5b34610134576020366003190112610134576001600160a01b03600435610e0981610139565b166000526011602052602060ff604060002054166040519015158152f35b3461013457602036600319011261013457602061025c600435610e4981610139565b6001600160a01b03806006541690604051921684830152838252610e6c82610f71565b60405190610e7982610f71565b601882527f697364656c656761746f724e6f6465286164647265737329000000000000000085830152611771565b3461013457600036600319011261013457610f136001600160a01b0360025416604051610ed381610f71565b600881527f6973536166652829000000000000000000000000000000000000000000000000602082015260405191610f0a83610f92565b60008352611672565b9080610f35575b15610201576101eb816020806101fd945183010191016115db565b506020815114610f1a565b34610134576000366003190112610134576020610aa86115f0565b634e487b7160e01b600052604160045260246000fd5b6040810190811067ffffffffffffffff821117610f8d57604052565b610f5b565b6020810190811067ffffffffffffffff821117610f8d57604052565b90601f8019910116810190811067ffffffffffffffff821117610f8d57604052565b908160209103126101345751610fe581610139565b90565b6040513d6000823e3d90fd5b604051906101e0820182811067ffffffffffffffff821117610f8d57604052565b67ffffffffffffffff8111610f8d57601f01601f191660200190565b6040519061103e82610f92565b60008252565b6040519061105182610f71565b600c82527f72616e6b666f7244414f282900000000000000000000000000000000000000006020830152565b6040519061108a82610f71565b601682527f67657455736572546f53746f72286164647265737329000000000000000000006020830152565b604051906110c382610f71565b600682527f72616e6b282900000000000000000000000000000000000000000000000000006020830152565b604051906110fc82610f71565b600882527f69734c6f636b28290000000000000000000000000000000000000000000000006020830152565b61113d61028c6000546001600160a01b031690565b9060405163cfbffe5360e01b81526020908181600481875afa801561075c576111748391600493600091610dc45750610d13611044565b946040519283809263ab6e844f60e01b82525afa801561075c576111cd928492600092611266575b506040516001600160a01b039093169083019081526111bf908390602001610d75565b6111c761107d565b90611720565b916001600160a01b0383161561125e576112116111fa6111eb6110b6565b6111f3611031565b90866117ad565b936112036110ef565b61120b611031565b91611771565b9210159182611255575b5081611225575090565b610fe5915061124a611251916001600160a01b03166000526011602052604060002090565b5460ff1690565b1590565b1591503861121b565b505050600090565b819250611282906111bf923d8511610755576107468183610fae565b919061119c565b6040519061129682610f71565b601d82527f67657472616e6b636f756e742875696e743235362c75696e74323536290000006020830152565b634e487b7160e01b600052601160045260246000fd5b6115bd6101c06115d9926113126112f682516001600160a01b031690565b6001600160a01b03166001600160a01b03196002541617600255565b61134561132960208301516001600160a01b031690565b6001600160a01b03166001600160a01b03196003541617600355565b61137861135c60408301516001600160a01b031690565b6001600160a01b03166001600160a01b03196004541617600455565b6113ab61138f60608301516001600160a01b031690565b6001600160a01b03166001600160a01b03196005541617600555565b6113de6113c260808301516001600160a01b031690565b6001600160a01b03166001600160a01b03196006541617600655565b6114116113f560a08301516001600160a01b031690565b6001600160a01b03166001600160a01b03196007541617600755565b61144461142860c08301516001600160a01b031690565b6001600160a01b03166001600160a01b03196008541617600855565b61147761145b60e08301516001600160a01b031690565b6001600160a01b03166001600160a01b03196009541617600955565b6114ab61148f6101008301516001600160a01b031690565b6001600160a01b03166001600160a01b0319600a541617600a55565b6114df6114c36101208301516001600160a01b031690565b6001600160a01b03166001600160a01b0319600b541617600b55565b6115136114f76101408301516001600160a01b031690565b6001600160a01b03166001600160a01b0319600c541617600c55565b61154761152b6101608301516001600160a01b031690565b6001600160a01b03166001600160a01b0319600d541617600d55565b61157b61155f6101808301516001600160a01b031690565b6001600160a01b03166001600160a01b0319600e541617600e55565b6115af6115936101a08301516001600160a01b031690565b6001600160a01b03166001600160a01b0319600f541617600f55565b01516001600160a01b031690565b6001600160a01b03166001600160a01b03196010541617601055565b565b908160209103126101345751610fe581610953565b610fe56001600160a01b036003541660405161160b81610f71565b600681527f6941676528290000000000000000000000000000000000000000000000000000602082015260405191610a9f83610f92565b3d1561166d573d9061165382611015565b916116616040519384610fae565b82523d6000602084013e565b606090565b9190823b15611707577fffffffff00000000000000000000000000000000000000000000000000000000815160208093012016916040519180830193845281519160005b8381106116f35750505091816116e360248260009795968897018783820152036004810184520182610fae565b51915afa6116ef611642565b9091565b8181018301518582016024015282016116b6565b50505060009060405161171981610f92565b6000815290565b929161172e91600094611672565b9080611766575b61173c5750565b9091506020818051810103126101345760206001600160a01b0391015161176281610139565b1690565b506020815114611735565b929161177f91600094611672565b90806117a2575b61178d5750565b610fe5919250602080825183010191016115db565b506020815114611786565b92916117bb91600094611672565b90806117e0575b6117c95750565b909150602081805181010312610134576020015190565b5060208151146117c256fea26469706673582212206e11d3f83a73dfd5d5befe71013201619bd0ed75a0d331f2d2d1e37b5db8a2cb64736f6c63430008140033","linkReferences":{}},"methodIdentifiers":{"Burn(uint256)":"b90306ad","_delegatorCount()":"a1f7f539","_getImplementation(address)":"c54e44b0","_isDelegatorNode(address)":"e01ad5fd","_isSafe()":"e0a9bc2b","_isSecureBase(address)":"af484526","_isSigner(address)":"1f185d16","blacklisted(address)":"dbac26e9","getBalance()":"12065fe0","getHexbase()":"3b9b7955","getdelegatorCount()":"c89b84fd","isdelegatorNode(address)":"25924f34","owner()":"8da5cb5b","setblacklist(address,bool)":"61b7fbd9","syncBaseAddr()":"339459a6","systemAge()":"fdc10bc9"},"id":49}