{"abi":[{"type":"constructor","inputs":[{"name":"_hex","type":"address","internalType":"address"}],"stateMutability":"nonpayable"},{"type":"fallback","stateMutability":"payable"},{"type":"receive","stateMutability":"payable"},{"type":"function","name":"Burn","inputs":[{"name":"amount","type":"uint256","internalType":"uint256"}],"outputs":[],"stateMutability":"nonpayable"},{"type":"function","name":"_delegatorCount","inputs":[],"outputs":[{"name":"","type":"uint256","internalType":"uint256"}],"stateMutability":"view"},{"type":"function","name":"_getImplementation","inputs":[{"name":"clone","type":"address","internalType":"address"}],"outputs":[{"name":"impl","type":"address","internalType":"address"}],"stateMutability":"view"},{"type":"function","name":"_isDelegatorNode","inputs":[{"name":"sender","type":"address","internalType":"address"}],"outputs":[{"name":"","type":"bool","internalType":"bool"}],"stateMutability":"view"},{"type":"function","name":"_isSafe","inputs":[],"outputs":[{"name":"","type":"bool","internalType":"bool"}],"stateMutability":"view"},{"type":"function","name":"_isSecureBase","inputs":[{"name":"sender","type":"address","internalType":"address"}],"outputs":[{"name":"","type":"bool","internalType":"bool"}],"stateMutability":"view"},{"type":"function","name":"_isSigner","inputs":[{"name":"sender","type":"address","internalType":"address"}],"outputs":[{"name":"","type":"bool","internalType":"bool"}],"stateMutability":"view"},{"type":"function","name":"blacklisted","inputs":[{"name":"","type":"address","internalType":"address"}],"outputs":[{"name":"","type":"bool","internalType":"bool"}],"stateMutability":"view"},{"type":"function","name":"getBalance","inputs":[],"outputs":[{"name":"","type":"uint256","internalType":"uint256"}],"stateMutability":"view"},{"type":"function","name":"getHexbase","inputs":[],"outputs":[{"name":"","type":"address","internalType":"address"}],"stateMutability":"view"},{"type":"function","name":"getdelegatorCount","inputs":[],"outputs":[{"name":"","type":"uint256","internalType":"uint256"}],"stateMutability":"view"},{"type":"function","name":"getdelegatorCount1","inputs":[],"outputs":[{"name":"","type":"uint256","internalType":"uint256"}],"stateMutability":"view"},{"type":"function","name":"getdelegatorCount2","inputs":[],"outputs":[{"name":"","type":"uint256","internalType":"uint256"}],"stateMutability":"view"},{"type":"function","name":"isdelegatorNode","inputs":[{"name":"sender","type":"address","internalType":"address"}],"outputs":[{"name":"","type":"bool","internalType":"bool"}],"stateMutability":"view"},{"type":"function","name":"owner","inputs":[],"outputs":[{"name":"","type":"address","internalType":"address"}],"stateMutability":"view"},{"type":"function","name":"setblacklist","inputs":[{"name":"d","type":"address","internalType":"address"},{"name":"op","type":"bool","internalType":"bool"}],"outputs":[],"stateMutability":"nonpayable"},{"type":"function","name":"syncBaseAddr","inputs":[],"outputs":[],"stateMutability":"nonpayable"},{"type":"function","name":"systemAge","inputs":[],"outputs":[{"name":"","type":"uint256","internalType":"uint256"}],"stateMutability":"view"},{"type":"event","name":"EthBurned","inputs":[{"name":"sender","type":"address","indexed":true,"internalType":"address"},{"name":"amount","type":"uint256","indexed":false,"internalType":"uint256"}],"anonymous":false},{"type":"event","name":"EthTransferred","inputs":[{"name":"to","type":"address","indexed":true,"internalType":"address"},{"name":"amount","type":"uint256","indexed":false,"internalType":"uint256"}],"anonymous":false},{"type":"event","name":"HexBaseUpdated","inputs":[{"name":"previousHexBase","type":"address","indexed":true,"internalType":"address"},{"name":"newHexBase","type":"address","indexed":true,"internalType":"address"}],"anonymous":false},{"type":"event","name":"OwnerUpdated","inputs":[{"name":"previousOwner","type":"address","indexed":true,"internalType":"address"},{"name":"newOwner","type":"address","indexed":true,"internalType":"address"}],"anonymous":false},{"type":"error","name":"CallFailed","inputs":[]},{"type":"error","name":"InvalidAddress","inputs":[]},{"type":"error","name":"InvalidState","inputs":[]},{"type":"error","name":"NotAuthorized","inputs":[]},{"type":"error","name":"NotSafe","inputs":[]},{"type":"error","name":"TargetCallFailed","inputs":[{"name":"selector","type":"bytes4","internalType":"bytes4"}]}],"bytecode":{"object":"0x60803461009757601f61162b38819003918201601f19168301916001600160401b0383118484101761009c5780849260209460405283398101031261009757516001600160a01b038116908190036100975780156100855760018060a01b0319338160015416176001556000541617600055600060125560405161157890816100b38239f35b60405163e6c4247b60e01b8152600490fd5b600080fd5b634e487b7160e01b600052604160045260246000fdfe60806040526004361015610018575b361561001657005b005b60003560e01c806312065fe0146101385780631f185d161461013357806325924f341461012e578063339459a6146101295780633b9b79551461012457806361b7fbd91461011f5780638da5cb5b1461011a57806392bc4be214610115578063a1f7f53914610110578063af4845261461010b578063b90306ad14610106578063c2b5843f14610101578063c54e44b0146100fc578063c89b84fd146100f7578063dbac26e9146100f2578063e01ad5fd146100ed578063e0a9bc2b146100e85763fdc10bc90361000e57610da2565b610d1c565b610ca1565b610c5f565b610c08565b610b9a565b610b1a565b610a3e565b6109c7565b610966565b6108c7565b61089e565b6107fe565b6107cb565b61026e565b61023d565b610176565b3461015457600036600319011261015457602047604051908152f35b600080fd5b6001600160a01b031690565b6001600160a01b0381160361015457565b3461015457602080600319360112610154576101e960043561019781610165565b6002546040516001600160a01b039283168582015284815291166101ba82610dd3565b604051906101c782610dd3565b601182527069735369676e657228616464726573732960781b858301526113ed565b919080610233575b1561022157818161020b9261021d9451830101910161136b565b60405190151581529081906020820190565b0390f35b604051633204506f60e01b8152600490fd5b50808251146101f1565b3461015457602036600319011261015457602061026460043561025f81610165565b610f1a565b6040519015158152f35b346101545760003660031901126101545761029261028d600054610159565b610159565b604051634bf9c0ad60e11b815290602082600481845afa9182156105fb576000926107aa575b5060405163cfbffe5360e01b815291602083600481855afa9283156105fb57600093610789575b5060405163ab6e844f60e01b815290602082600481865afa9182156105fb57600092610768575b50604051630536340960e21b815291602083600481875afa9283156105fb57600093610747575b5060405163d1f956b160e01b815292602084600481885afa9384156105fb57600094610726575b50604051631cc3bfab60e31b815293602085600481895afa9485156105fb57600095610705575b5060405163e09d394d60e01b81526020816004818a5afa9081156105fb576000916106e6575b506040516314ac1b5960e21b81526020816004818b5afa9081156105fb576000916106c7575b5060405163013cf08b60e01b815260006004820152916020836024818c5afa9283156105fb576000936106a6575b50604051635e09dbe760e01b8152976020896004818d5afa9485156105fb57600499600096610685575b50604051635506ee0b60e11b8152996020908b90818e5afa9687156105fb5760049a600098610664575b50604051636402742760e01b81529a6020908c90818f5afa9889156105fb5760049b60009a610643575b5060208d6040519d8e80926330125cf560e01b82525afa9a8b156105fb578d60049d60009d610621575b506020906040519e8f80926324768d9160e01b82525afa9c8d156105fb5760009d610600575b506040516313b92d3560e31b81529d8e9081905a92600491602094fa9d8e156105fb5760009e6105ca575b506104f7610e2c565b9e8f916105049083611068565b6105119060208301611068565b6040019061051e91611068565b61052b9060608e01611068565b6105389060808d01611068565b6105459060a08c01611068565b6105529060c08b01611068565b61055f9060e08a01611068565b61056d906101008901611068565b61057b906101208801611068565b610589906101408701611068565b610597906101608601611068565b6105a5906101808501611068565b6105b3906101a08401611068565b6105c1906101c08301611068565b61001690611077565b6105ed919e5060203d6020116105f4575b6105e58183610e09565b810190611047565b9c386104ee565b503d6105db565b61105c565b61061a919d5060203d6020116105f4576105e58183610e09565b9b386104c3565b6020919d5061063c90823d84116105f4576105e58183610e09565b9c9061049d565b61065d919a5060203d6020116105f4576105e58183610e09565b9838610473565b61067e91985060203d6020116105f4576105e58183610e09565b9638610449565b61069f91965060203d6020116105f4576105e58183610e09565b943861041f565b6106c091935060203d6020116105f4576105e58183610e09565b91386103f5565b6106e0915060203d6020116105f4576105e58183610e09565b386103c7565b6106ff915060203d6020116105f4576105e58183610e09565b386103a1565b61071f91955060203d6020116105f4576105e58183610e09565b933861037b565b61074091945060203d6020116105f4576105e58183610e09565b9238610354565b61076191935060203d6020116105f4576105e58183610e09565b913861032d565b61078291925060203d6020116105f4576105e58183610e09565b9038610306565b6107a391935060203d6020116105f4576105e58183610e09565b91386102df565b6107c491925060203d6020116105f4576105e58183610e09565b90386102b8565b34610154576000366003190112610154576000546040516001600160a01b039091168152602090f35b8015150361015457565b346101545760403660031901126101545760043561081b81610165565b60243590610828826107f4565b6005546001600160a01b0391908216330361088c57166000526011602052604060002060ff1981541660ff8315151617905560001461087a57601254600019811461087557600101601255005b611031565b60125480156108755760001901601255005b60405163ea8e4eb560e01b8152600490fd5b34610154576000366003190112610154576001546040516001600160a01b039091168152602090f35b34610154576000366003190112610154576003546001600160a01b039081169061090b6108f2610e7a565b9260409384519161090283610dee565b60008352611504565b506004541690610919611380565b8151602081019190915260028183015281815260608101906001600160401b038211818310176109615760209361095a928452610954610ff8565b90611504565b9051908152f35b610dbd565b346101545760003660031901126101545760206109bf60018060a01b036006541660405161099381610dd3565b601381527267657464656c656761746f72436f756e74282960681b848201526040519161090283610dee565b604051908152f35b3461015457602080600319360112610154576101e96004356109e881610165565b6002546040516001600160a01b03928316858201528481529116610a0b82610dd3565b60405190610a1882610dd3565b601582527469735365637572654261736528616464726573732960581b858301526113ed565b3461015457602036600319011261015457600554600435906001600160a01b0316330361088c5760009060046020610a7961028d8554610159565b6040516311be646b60e21b815292839182905afa80156105fb5783808481949382948391610afc575b505af1610aad6113bd565b5015610221577fcdcc745fe377b103b45fa0cec23ae3ef93d6fc6a84a01f0d18c40b354dd1d5d8610af6610ae561028d600b54610159565b604051938452929081906020820190565b0390a280f35b610b14915060203d81116105f4576105e58183610e09565b38610aa2565b3461015457600036600319011261015457602060018060a01b03610b91610b548260035416610b47610e7a565b6040519161090283610dee565b809260045416610b89610b65611380565b6040805188810192835260208301959095528491015b03601f198101845283610e09565b610954610ff8565b50604051908152f35b3461015457602036600319011261015457600435610bb781610165565b803b6000610bc482610e4c565b92610bd26040519485610e09565b82845260208401903c602d815110610bf657602a602091015160601c604051908152f35b60405163baf3f0f760e01b8152600490fd5b346101545760003660031901126101545760206109bf60018060a01b03610c358160035416610b47610e7a565b9060045416610b89610c45611380565b604080518781019283526020830195909552849101610b7b565b3461015457602036600319011261015457600435610c7c81610165565b60018060a01b03166000526011602052602060ff604060002054166040519015158152f35b34610154576020366003190112610154576020610264600435610cc381610165565b6006546040516001600160a01b03928316858201528481529116610ce682610dd3565b60405190610cf382610dd3565b6018825277697364656c656761746f724e6f646528616464726573732960401b858301526114c8565b3461015457600036600319011261015457600254604051610d75916001600160a01b031690610d4a81610dd3565b6008815267697353616665282960c01b602082015260405191610d6c83610dee565b600083526113ed565b9080610d97575b156102215761020b8160208061021d9451830101910161136b565b506020815114610d7c565b346101545760003660031901126101545760206109bf611380565b634e487b7160e01b600052604160045260246000fd5b604081019081106001600160401b0382111761096157604052565b602081019081106001600160401b0382111761096157604052565b601f909101601f19168101906001600160401b0382119082101761096157604052565b604051906101e082016001600160401b0381118382101761096157604052565b6001600160401b03811161096157601f01601f191660200190565b60405190610e7482610dee565b60008252565b60405190610e8782610dd3565b600c82526b72616e6b666f7244414f282960a01b6020830152565b60405190610eaf82610dd3565b601682527567657455736572546f53746f7228616464726573732960501b6020830152565b60405190610ee182610dd3565b600682526572616e6b282960d01b6020830152565b60405190610f0382610dd3565b600882526769734c6f636b282960c01b6020830152565b6003546001600160a01b039190610f35908316610b47610e7a565b610f73610f43600454610159565b604080516001600160a01b03861660208201529190610f659083908101610b7b565b610f6d610ea2565b90611484565b92831615610ff057610faf610f98610f89610ed4565b610f91610e67565b9086611504565b93610fa1610ef6565b610fa9610e67565b916114c8565b9210159182610fe7575b5081610fc3575090565b6001600160a01b031660009081526011602052604090205460ff1615905090565b90565b15915038610fb9565b505050600090565b6040519061100582610dd3565b601d82527f67657472616e6b636f756e742875696e743235362c75696e74323536290000006020830152565b634e487b7160e01b600052601160045260246000fd5b908160209103126101545751610fe481610165565b6040513d6000823e3d90fd5b6001600160a01b039091169052565b6113476101c0611369926110b061108e8251610159565b600280546001600160a01b0319166001600160a01b0392909216919091179055565b6110e26110c06020830151610159565b600380546001600160a01b0319166001600160a01b0392909216919091179055565b6111146110f26040830151610159565b600480546001600160a01b0319166001600160a01b0392909216919091179055565b6111466111246060830151610159565b600580546001600160a01b0319166001600160a01b0392909216919091179055565b6111786111566080830151610159565b600680546001600160a01b0319166001600160a01b0392909216919091179055565b6111aa61118860a0830151610159565b600780546001600160a01b0319166001600160a01b0392909216919091179055565b6111dc6111ba60c0830151610159565b600880546001600160a01b0319166001600160a01b0392909216919091179055565b61120e6111ec60e0830151610159565b600980546001600160a01b0319166001600160a01b0392909216919091179055565b61124161121f610100830151610159565b600a80546001600160a01b0319166001600160a01b0392909216919091179055565b611274611252610120830151610159565b600b80546001600160a01b0319166001600160a01b0392909216919091179055565b6112a7611285610140830151610159565b600c80546001600160a01b0319166001600160a01b0392909216919091179055565b6112da6112b8610160830151610159565b600d80546001600160a01b0319166001600160a01b0392909216919091179055565b61130d6112eb610180830151610159565b600e80546001600160a01b0319166001600160a01b0392909216919091179055565b61134061131e6101a0830151610159565b600f80546001600160a01b0319166001600160a01b0392909216919091179055565b0151610159565b601080546001600160a01b0319166001600160a01b0392909216919091179055565b565b908160209103126101545751610fe4816107f4565b600354604051610fe4916001600160a01b03169061139d81610dd3565b600681526569416765282960d01b60208201526040519161090283610dee565b3d156113e8573d906113ce82610e4c565b916113dc6040519384610e09565b82523d6000602084013e565b606090565b9190823b1561146b578051906020918263ffffffff60e01b92012016916040519180830193845281519160005b83811061145757505050918161144760248260009795968897018783820152036004810184520182610e09565b51915afa6114536113bd565b9091565b81810183015185820160240152820161141a565b50505060009060405161147d81610dee565b6000815290565b9291611492916000946113ed565b90806114bd575b6114a05750565b909150602081805181010312610154576020015161015981610165565b506020815114611499565b92916114d6916000946113ed565b90806114f9575b6114e45750565b610fe49192506020808251830101910161136b565b5060208151146114dd565b9291611512916000946113ed565b9080611537575b6115205750565b909150602081805181010312610154576020015190565b50602081511461151956fea2646970667358221220558ff798244e2e177e528cfbb02d03fe7cef00578cd95d56cc30c65ddca8c7d464736f6c63430008140033","linkReferences":{}},"methodIdentifiers":{"Burn(uint256)":"b90306ad","_delegatorCount()":"a1f7f539","_getImplementation(address)":"c54e44b0","_isDelegatorNode(address)":"e01ad5fd","_isSafe()":"e0a9bc2b","_isSecureBase(address)":"af484526","_isSigner(address)":"1f185d16","blacklisted(address)":"dbac26e9","getBalance()":"12065fe0","getHexbase()":"3b9b7955","getdelegatorCount()":"c89b84fd","getdelegatorCount1()":"c2b5843f","getdelegatorCount2()":"92bc4be2","isdelegatorNode(address)":"25924f34","owner()":"8da5cb5b","setblacklist(address,bool)":"61b7fbd9","syncBaseAddr()":"339459a6","systemAge()":"fdc10bc9"},"id":22}