{"abi":[{"type":"constructor","inputs":[{"name":"_hex","type":"address","internalType":"address"}],"stateMutability":"nonpayable"},{"type":"fallback","stateMutability":"payable"},{"type":"receive","stateMutability":"payable"},{"type":"function","name":"Burn","inputs":[{"name":"amount","type":"uint256","internalType":"uint256"}],"outputs":[],"stateMutability":"nonpayable"},{"type":"function","name":"_delegatorCount","inputs":[],"outputs":[{"name":"","type":"uint256","internalType":"uint256"}],"stateMutability":"view"},{"type":"function","name":"_getImplementation","inputs":[{"name":"clone","type":"address","internalType":"address"}],"outputs":[{"name":"impl","type":"address","internalType":"address"}],"stateMutability":"view"},{"type":"function","name":"_isDelegatorNode","inputs":[{"name":"sender","type":"address","internalType":"address"}],"outputs":[{"name":"","type":"bool","internalType":"bool"}],"stateMutability":"view"},{"type":"function","name":"_isSafe","inputs":[],"outputs":[{"name":"","type":"bool","internalType":"bool"}],"stateMutability":"view"},{"type":"function","name":"_isSecureBase","inputs":[{"name":"sender","type":"address","internalType":"address"}],"outputs":[{"name":"","type":"bool","internalType":"bool"}],"stateMutability":"view"},{"type":"function","name":"_isSigner","inputs":[{"name":"sender","type":"address","internalType":"address"}],"outputs":[{"name":"","type":"bool","internalType":"bool"}],"stateMutability":"view"},{"type":"function","name":"blacklisted","inputs":[{"name":"","type":"address","internalType":"address"}],"outputs":[{"name":"","type":"bool","internalType":"bool"}],"stateMutability":"view"},{"type":"function","name":"getBalance","inputs":[],"outputs":[{"name":"","type":"uint256","internalType":"uint256"}],"stateMutability":"view"},{"type":"function","name":"getHexbase","inputs":[],"outputs":[{"name":"","type":"address","internalType":"address"}],"stateMutability":"view"},{"type":"function","name":"getdelegatorCount","inputs":[],"outputs":[{"name":"","type":"uint256","internalType":"uint256"}],"stateMutability":"view"},{"type":"function","name":"isdelegatorNode","inputs":[{"name":"sender","type":"address","internalType":"address"}],"outputs":[{"name":"","type":"bool","internalType":"bool"}],"stateMutability":"view"},{"type":"function","name":"owner","inputs":[],"outputs":[{"name":"","type":"address","internalType":"address"}],"stateMutability":"view"},{"type":"function","name":"setblacklist","inputs":[{"name":"d","type":"address","internalType":"address"},{"name":"op","type":"bool","internalType":"bool"}],"outputs":[],"stateMutability":"nonpayable"},{"type":"function","name":"systemAge","inputs":[],"outputs":[{"name":"","type":"uint256","internalType":"uint256"}],"stateMutability":"view"},{"type":"event","name":"EthBurned","inputs":[{"name":"sender","type":"address","indexed":true,"internalType":"address"},{"name":"amount","type":"uint256","indexed":false,"internalType":"uint256"}],"anonymous":false},{"type":"event","name":"EthTransferred","inputs":[{"name":"to","type":"address","indexed":true,"internalType":"address"},{"name":"amount","type":"uint256","indexed":false,"internalType":"uint256"}],"anonymous":false},{"type":"event","name":"HexBaseUpdated","inputs":[{"name":"previousHexBase","type":"address","indexed":true,"internalType":"address"},{"name":"newHexBase","type":"address","indexed":true,"internalType":"address"}],"anonymous":false},{"type":"event","name":"OwnerUpdated","inputs":[{"name":"previousOwner","type":"address","indexed":true,"internalType":"address"},{"name":"newOwner","type":"address","indexed":true,"internalType":"address"}],"anonymous":false},{"type":"error","name":"CallFailed","inputs":[]},{"type":"error","name":"InvalidAddress","inputs":[]},{"type":"error","name":"InvalidState","inputs":[]},{"type":"error","name":"NotAuthorized","inputs":[]},{"type":"error","name":"NotSafe","inputs":[]},{"type":"error","name":"TargetCallFailed","inputs":[{"name":"selector","type":"bytes4","internalType":"bytes4"}]}],"bytecode":{"object":"0x60803461009757601f61107538819003918201601f19168301916001600160401b0383118484101761009c5780849260209460405283398101031261009757516001600160a01b038116908190036100975780156100855760018060a01b03193381600154161760015560005416176000556000600355604051610fc290816100b38239f35b60405163e6c4247b60e01b8152600490fd5b600080fd5b634e487b7160e01b600052604160045260246000fdfe60806040526004361015610018575b361561001657005b005b60003560e01c806312065fe0146101085780631f185d161461010357806325924f34146100fe5780633b9b7955146100f957806361b7fbd9146100f45780638da5cb5b146100ef578063a1f7f539146100ea578063af484526146100e5578063b90306ad146100e0578063c54e44b0146100db578063c89b84fd146100d6578063dbac26e9146100d1578063e01ad5fd146100cc578063e0a9bc2b146100c75763fdc10bc90361000e57610845565b6107c7565b610728565b6106e6565b6105d7565b610569565b6104e9565b610452565b61039b565b610372565b6102ca565b610297565b610253565b61013a565b3461012457600036600319011261012457602047604051908152f35b600080fd5b6001600160a01b0381160361012457565b34610124576020806003193601126101245760043561015881610129565b60048261016e6101696000546106da565b6106da565b604051634bf9c0ad60e11b815292839182905afa801561024e576101c7926101ab9260009261021b575b506101b990604051938491878301610284565b03601f1981018452836108b9565b6101c1610c1a565b90610e37565b919080610211575b156101ff5781816101e9926101fb94518301019101610bd4565b60405191829182901515815260200190565b0390f35b604051633204506f60e01b8152600490fd5b50808251146101cf565b6101b991925061024090863d8811610247575b61023881836108b9565b8101906108dc565b9190610198565b503d61022e565b6108f4565b3461012457602036600319011261012457602061027a60043561027581610129565b6109ce565b6040519015158152f35b6001600160a01b03909116815260200190565b34610124576000366003190112610124576000546040516001600160a01b039091168152602090f35b8015150361012457565b34610124576040366003190112610124576004356102e781610129565b6024356102f3816102c0565b600460018060a01b03602061030b82600054166106da565b604051630536340960e21b815293849182905afa91821561024e57600092610352575b50339116036103405761001691610b5a565b60405163ea8e4eb560e01b8152600490fd5b61036b91925060203d81116102475761023881836108b9565b903861032e565b34610124576000366003190112610124576001546040516001600160a01b039091168152602090f35b346101245760003660031901126101245760005460405163d1f956b160e01b815290602090829060049082906001600160a01b03165afa90811561024e576101fb9161042491600091610434575b506040516103f68161087e565b601381527267657464656c656761746f72436f756e74282960681b602082015261041e61091b565b91610f4e565b6040519081529081906020820190565b61044c915060203d81116102475761023881836108b9565b386103e9565b34610124576020806003193601126101245760043561047081610129565b6004826104816101696000546106da565b604051634bf9c0ad60e11b815292839182905afa801561024e576101c7926101ab926000926104c6575b506104be90604051938491878301610284565b6101c1610be9565b6104be9192506104e290863d88116102475761023881836108b9565b91906104ab565b3461012457602036600319011261012457600460018060a01b03602061051282600054166106da565b604051630536340960e21b815293849182905afa91821561024e57600092610549575b503391160361034057610016600435610d36565b61056291925060203d81116102475761023881836108b9565b9038610535565b346101245760203660031901126101245760043561058681610129565b803b600061059382610900565b926105a160405194856108b9565b82845260208401903c602d8151106105c557602a602091015160601c604051908152f35b60405163baf3f0f760e01b8152600490fd5b34610124576000806003193601126106d7576105f661016982546106da565b60405163cfbffe5360e01b8152919060208084600481855afa801561024e57610635829160049686916106ba575b5061062d61092e565b61041e61091b565b926040519586809263ab6e844f60e01b82525afa90811561024e576101fb946104249492610697575b50610689906101ab61066e610c47565b94604051958693840160209093929193604081019481520152565b610691610b0b565b90610f4e565b8192506106b390610689923d85116102475761023881836108b9565b919061065e565b6106d19150833d85116102475761023881836108b9565b38610624565b80fd5b6001600160a01b031690565b346101245760203660031901126101245760043561070381610129565b60018060a01b03166000526002602052602060ff604060002054166040519015158152f35b3461012457602080600319360112610124576004803561074781610129565b60005460405163d1f956b160e01b81526001600160a01b03949093909182918591829088165afa90811561024e576101fb946101e9946000936107a8575b50604051931681840152825261079a8261087e565b6107a2610cd2565b90610f12565b6107c0919350823d84116102475761023881836108b9565b9138610785565b34610124576000366003190112610124576107e66101696000546106da565b6040518091634bf9c0ad60e11b825281600460209485935afa801561024e576101c791600091610828575b5061081a610bb0565b61082261091b565b91610e37565b61083f9150833d85116102475761023881836108b9565b38610811565b34610124576000366003190112610124576020610860610c47565b604051908152f35b634e487b7160e01b600052604160045260246000fd5b604081019081106001600160401b0382111761089957604052565b610868565b602081019081106001600160401b0382111761089957604052565b601f909101601f19168101906001600160401b0382119082101761089957604052565b9081602091031261012457516108f181610129565b90565b6040513d6000823e3d90fd5b6001600160401b03811161089957601f01601f191660200190565b604051906109288261089e565b60008252565b6040519061093b8261087e565b600c82526b72616e6b666f7244414f282960a01b6020830152565b604051906109638261087e565b601682527567657455736572546f53746f7228616464726573732960501b6020830152565b604051906109958261087e565b600682526572616e6b282960d01b6020830152565b604051906109b78261087e565b600882526769734c6f636b282960c01b6020830152565b6109dc6101696000546106da565b9060405163cfbffe5360e01b81526020908181600481875afa801561024e57610a1383916004936000916106ba575061062d61092e565b946040519283809263ab6e844f60e01b82525afa801561024e57610a5e928492600092610ae8575b50610a50906101ab6040519485928301610284565b610a58610956565b90610ece565b916001600160a01b03831615610ae057610aa2610a8b610a7c610988565b610a8461091b565b9086610f4e565b93610a946109aa565b610a9c61091b565b91610f12565b9210159182610ad7575b5081610ab6575090565b6001600160a01b031660009081526002602052604090205460ff1615905090565b15915038610aac565b505050600090565b819250610b0490610a50923d85116102475761023881836108b9565b9190610a3b565b60405190610b188261087e565b601d82527f67657472616e6b636f756e742875696e743235362c75696e74323536290000006020830152565b634e487b7160e01b600052601160045260246000fd5b60018060a01b03166000526002602052604060002060ff1981541660ff83151516179055600014610b9e576003546000198114610b9957600101600355565b610b44565b6003548015610b995760001901600355565b60405190610bbd8261087e565b6008825267697353616665282960c01b6020830152565b9081602091031261012457516108f1816102c0565b60405190610bf68261087e565b601582527469735365637572654261736528616464726573732960581b6020830152565b60405190610c278261087e565b601182527069735369676e657228616464726573732960781b6020830152565b60005460405163111ea8c160e21b815290602090829060049082906001600160a01b03165afa801561024e576108f191600091610cb4575b50604051610c8c8161087e565b6005815264616765282960d81b602082015260405191610cab8361089e565b60008352610f4e565b610ccc915060203d81116102475761023881836108b9565b38610c7f565b60405190610cdf8261087e565b6018825277697364656c656761746f724e6f646528616464726573732960401b6020830152565b3d15610d31573d90610d1782610900565b91610d2560405193846108b9565b82523d6000602084013e565b606090565b6000610d4561016982546106da565b9060405180926311be646b60e21b825281600460209586935afa801561024e5782808681949382948391610e1a575b505af1610d7f610d06565b50156101ff57600482610d9561016984546106da565b604051635e09dbe760e01b815292839182905afa90811561024e577fcdcc745fe377b103b45fa0cec23ae3ef93d6fc6a84a01f0d18c40b354dd1d5d893610df89392610dfd575b50506040519384526001600160a01b0316929081906020820190565b0390a2565b610e139250803d106102475761023881836108b9565b3880610ddc565b610e319150883d8a116102475761023881836108b9565b38610d74565b9190823b15610eb5578051906020918263ffffffff60e01b92012016916040519180830193845281519160005b838110610ea1575050509181610e91602482600097959688970187838201520360048101845201826108b9565b51915afa610e9d610d06565b9091565b818101830151858201602401528201610e64565b505050600090604051610ec78161089e565b6000815290565b9291610edc91600094610e37565b9080610f07575b610eea5750565b90915060208180518101031261012457602001516106da81610129565b506020815114610ee3565b9291610f2091600094610e37565b9080610f43575b610f2e5750565b6108f191925060208082518301019101610bd4565b506020815114610f27565b9291610f5c91600094610e37565b9080610f81575b610f6a5750565b909150602081805181010312610124576020015190565b506020815114610f6356fea26469706673582212205b5baf158511b170d92af112649815d22484a4502f8a8112f3293694a3b3f8f764736f6c63430008140033","linkReferences":{}},"methodIdentifiers":{"Burn(uint256)":"b90306ad","_delegatorCount()":"a1f7f539","_getImplementation(address)":"c54e44b0","_isDelegatorNode(address)":"e01ad5fd","_isSafe()":"e0a9bc2b","_isSecureBase(address)":"af484526","_isSigner(address)":"1f185d16","blacklisted(address)":"dbac26e9","getBalance()":"12065fe0","getHexbase()":"3b9b7955","getdelegatorCount()":"c89b84fd","isdelegatorNode(address)":"25924f34","owner()":"8da5cb5b","setblacklist(address,bool)":"61b7fbd9","systemAge()":"fdc10bc9"},"id":22}