{"abi":[{"type":"constructor","inputs":[{"name":"_hex","type":"address","internalType":"address"}],"stateMutability":"nonpayable"},{"type":"fallback","stateMutability":"payable"},{"type":"receive","stateMutability":"payable"},{"type":"function","name":"Burn","inputs":[{"name":"amount","type":"uint256","internalType":"uint256"}],"outputs":[],"stateMutability":"nonpayable"},{"type":"function","name":"UserToId","inputs":[{"name":"","type":"address","internalType":"address"}],"outputs":[{"name":"","type":"uint256","internalType":"uint256"}],"stateMutability":"view"},{"type":"function","name":"_delegatorCount","inputs":[],"outputs":[{"name":"","type":"uint256","internalType":"uint256"}],"stateMutability":"view"},{"type":"function","name":"_getImplementation","inputs":[{"name":"clone","type":"address","internalType":"address"}],"outputs":[{"name":"impl","type":"address","internalType":"address"}],"stateMutability":"view"},{"type":"function","name":"_isDelegatorNode","inputs":[{"name":"sender","type":"address","internalType":"address"}],"outputs":[{"name":"","type":"bool","internalType":"bool"}],"stateMutability":"view"},{"type":"function","name":"_isSafe","inputs":[],"outputs":[{"name":"","type":"bool","internalType":"bool"}],"stateMutability":"view"},{"type":"function","name":"_isSecureBase","inputs":[{"name":"sender","type":"address","internalType":"address"}],"outputs":[{"name":"","type":"bool","internalType":"bool"}],"stateMutability":"view"},{"type":"function","name":"_isSigner","inputs":[{"name":"sender","type":"address","internalType":"address"}],"outputs":[{"name":"","type":"bool","internalType":"bool"}],"stateMutability":"view"},{"type":"function","name":"addBusiness","inputs":[{"name":"_id","type":"uint256","internalType":"uint256"},{"name":"_paramAdd","type":"address","internalType":"address"},{"name":"_tokenid","type":"uint256","internalType":"uint256"},{"name":"_qty","type":"uint256","internalType":"uint256"},{"name":"_msgValue","type":"uint256","internalType":"uint256"},{"name":"_type","type":"uint256","internalType":"uint256"}],"outputs":[],"stateMutability":"nonpayable"},{"type":"function","name":"claimIncome","inputs":[{"name":"_id","type":"uint256","internalType":"uint256"},{"name":"_maxint","type":"uint256","internalType":"uint256"}],"outputs":[{"name":"","type":"uint256","internalType":"uint256"}],"stateMutability":"nonpayable"},{"type":"function","name":"compileRoyality","inputs":[],"outputs":[],"stateMutability":"nonpayable"},{"type":"function","name":"getBalance","inputs":[],"outputs":[{"name":"","type":"uint256","internalType":"uint256"}],"stateMutability":"view"},{"type":"function","name":"getBatchRankCounts","inputs":[{"name":"ag","type":"uint256","internalType":"uint256"}],"outputs":[{"name":"counts","type":"uint256[8]","internalType":"uint256[8]"}],"stateMutability":"view"},{"type":"function","name":"getDownlineCountByLevel","inputs":[{"name":"uid","type":"uint256","internalType":"uint256"},{"name":"lvl","type":"uint256","internalType":"uint256"}],"outputs":[{"name":"","type":"uint256","internalType":"uint256"}],"stateMutability":"view"},{"type":"function","name":"getHexbase","inputs":[],"outputs":[{"name":"","type":"address","internalType":"address"}],"stateMutability":"view"},{"type":"function","name":"getNode","inputs":[{"name":"_id","type":"uint256","internalType":"uint256"}],"outputs":[{"name":"_i","type":"uint256","internalType":"uint256"},{"name":"_node","type":"address","internalType":"address"},{"name":"_pid","type":"uint256","internalType":"uint256"},{"name":"_inst","type":"address","internalType":"address"},{"name":"_stor","type":"address","internalType":"address"},{"name":"_active","type":"bool","internalType":"bool"},{"name":"_direcCount","type":"uint256","internalType":"uint256"}],"stateMutability":"view"},{"type":"function","name":"getNodeChild","inputs":[{"name":"_id","type":"uint256","internalType":"uint256"},{"name":"inx","type":"uint256","internalType":"uint256"}],"outputs":[{"name":"child","type":"uint256","internalType":"uint256"}],"stateMutability":"view"},{"type":"function","name":"getNodeDirectsCount","inputs":[{"name":"_id","type":"uint256","internalType":"uint256"}],"outputs":[{"name":"count","type":"uint256","internalType":"uint256"}],"stateMutability":"view"},{"type":"function","name":"getNodeParent","inputs":[{"name":"_user","type":"address","internalType":"address"}],"outputs":[{"name":"","type":"uint256","internalType":"uint256"},{"name":"","type":"address","internalType":"address"}],"stateMutability":"view"},{"type":"function","name":"getNodeParentId","inputs":[{"name":"_id","type":"uint256","internalType":"uint256"}],"outputs":[{"name":"","type":"uint256","internalType":"uint256"}],"stateMutability":"view"},{"type":"function","name":"getNodesCount","inputs":[],"outputs":[{"name":"nodesCount","type":"uint256","internalType":"uint256"}],"stateMutability":"view"},{"type":"function","name":"getRoyalityAmountBatch","inputs":[{"name":"ag","type":"uint256","internalType":"uint256"}],"outputs":[{"name":"royal","type":"uint256[]","internalType":"uint256[]"}],"stateMutability":"view"},{"type":"function","name":"getTeamSize","inputs":[{"name":"uid","type":"uint256","internalType":"uint256"}],"outputs":[{"name":"","type":"uint256","internalType":"uint256"}],"stateMutability":"view"},{"type":"function","name":"getTotalTeamSizeWithLevel","inputs":[{"name":"_user","type":"address","internalType":"address"},{"name":"lvl","type":"uint256","internalType":"uint256"}],"outputs":[{"name":"","type":"uint256","internalType":"uint256"},{"name":"","type":"uint256","internalType":"uint256"}],"stateMutability":"view"},{"type":"function","name":"getUserIdToInst","inputs":[{"name":"_id","type":"uint256","internalType":"uint256"}],"outputs":[{"name":"","type":"address","internalType":"address"}],"stateMutability":"view"},{"type":"function","name":"getUserIdToStor","inputs":[{"name":"_id","type":"uint256","internalType":"uint256"}],"outputs":[{"name":"","type":"address","internalType":"address"}],"stateMutability":"view"},{"type":"function","name":"getUserToInst","inputs":[{"name":"node","type":"address","internalType":"address"}],"outputs":[{"name":"","type":"address","internalType":"address"}],"stateMutability":"view"},{"type":"function","name":"getUserToStor","inputs":[{"name":"_user","type":"address","internalType":"address"}],"outputs":[{"name":"","type":"address","internalType":"address"}],"stateMutability":"view"},{"type":"function","name":"getbusiness","inputs":[{"name":"ag","type":"uint256","internalType":"uint256"}],"outputs":[{"name":"","type":"uint256","internalType":"uint256"}],"stateMutability":"view"},{"type":"function","name":"getjoining","inputs":[{"name":"ag","type":"uint256","internalType":"uint256"}],"outputs":[{"name":"","type":"uint256","internalType":"uint256"}],"stateMutability":"view"},{"type":"function","name":"getrankCount","inputs":[{"name":"ag","type":"uint256","internalType":"uint256"},{"name":"rnk","type":"uint256","internalType":"uint256"}],"outputs":[{"name":"count","type":"uint256","internalType":"uint256"}],"stateMutability":"view"},{"type":"function","name":"getwithdrawn","inputs":[{"name":"ag","type":"uint256","internalType":"uint256"}],"outputs":[{"name":"","type":"uint256","internalType":"uint256"}],"stateMutability":"view"},{"type":"function","name":"importBusiness","inputs":[{"name":"_amt","type":"uint256","internalType":"uint256"},{"name":"_ag","type":"uint256","internalType":"uint256"}],"outputs":[],"stateMutability":"nonpayable"},{"type":"function","name":"importJoining","inputs":[{"name":"_cnt","type":"uint256","internalType":"uint256"},{"name":"_ag","type":"uint256","internalType":"uint256"}],"outputs":[],"stateMutability":"nonpayable"},{"type":"function","name":"importOld","inputs":[{"name":"_id","type":"uint256","internalType":"uint256"},{"name":"_limit","type":"uint256","internalType":"uint256"}],"outputs":[],"stateMutability":"payable"},{"type":"function","name":"importRankNBusiness","inputs":[{"name":"_ag","type":"uint256[]","internalType":"uint256[]"}],"outputs":[],"stateMutability":"nonpayable"},{"type":"function","name":"importWithdrawal","inputs":[{"name":"_amt","type":"uint256","internalType":"uint256"},{"name":"_ag","type":"uint256","internalType":"uint256"}],"outputs":[],"stateMutability":"nonpayable"},{"type":"function","name":"isNode","inputs":[{"name":"_id","type":"uint256","internalType":"uint256"}],"outputs":[{"name":"","type":"bool","internalType":"bool"}],"stateMutability":"view"},{"type":"function","name":"isUserExists","inputs":[{"name":"node","type":"address","internalType":"address"}],"outputs":[{"name":"","type":"bool","internalType":"bool"}],"stateMutability":"view"},{"type":"function","name":"join","inputs":[{"name":"_parent","type":"address","internalType":"address"},{"name":"_user","type":"address","internalType":"address"}],"outputs":[{"name":"_id","type":"uint256","internalType":"uint256"},{"name":"_stor","type":"address","internalType":"address"}],"stateMutability":"nonpayable"},{"type":"function","name":"joinImport","inputs":[{"name":"_parent","type":"address","internalType":"address"},{"name":"_user","type":"address","internalType":"address"}],"outputs":[{"name":"_id","type":"uint256","internalType":"uint256"},{"name":"_stor","type":"address","internalType":"address"}],"stateMutability":"nonpayable"},{"type":"function","name":"moveDownline","inputs":[{"name":"_id","type":"uint256","internalType":"uint256"},{"name":"parent","type":"address","internalType":"address"},{"name":"_op","type":"bool","internalType":"bool"}],"outputs":[],"stateMutability":"nonpayable"},{"type":"function","name":"nodes","inputs":[{"name":"","type":"uint256","internalType":"uint256"}],"outputs":[{"name":"","type":"address","internalType":"address"}],"stateMutability":"view"},{"type":"function","name":"owner","inputs":[],"outputs":[{"name":"","type":"address","internalType":"address"}],"stateMutability":"view"},{"type":"function","name":"setDefaultRankCount","inputs":[{"name":"_limit","type":"uint256","internalType":"uint256"}],"outputs":[],"stateMutability":"nonpayable"},{"type":"function","name":"systemAge","inputs":[],"outputs":[{"name":"","type":"uint256","internalType":"uint256"}],"stateMutability":"view"},{"type":"function","name":"updateUsers","inputs":[{"name":"from","type":"address","internalType":"address"},{"name":"to","type":"address","internalType":"address"}],"outputs":[{"name":"_id","type":"uint256","internalType":"uint256"},{"name":"_stor","type":"address","internalType":"address"},{"name":"_parent","type":"address","internalType":"address"}],"stateMutability":"nonpayable"},{"type":"event","name":"EthBurned","inputs":[{"name":"sender","type":"address","indexed":true,"internalType":"address"},{"name":"amount","type":"uint256","indexed":false,"internalType":"uint256"}],"anonymous":false},{"type":"event","name":"EthTransferred","inputs":[{"name":"to","type":"address","indexed":true,"internalType":"address"},{"name":"amount","type":"uint256","indexed":false,"internalType":"uint256"}],"anonymous":false},{"type":"event","name":"HexBaseUpdated","inputs":[{"name":"previousHexBase","type":"address","indexed":true,"internalType":"address"},{"name":"newHexBase","type":"address","indexed":true,"internalType":"address"}],"anonymous":false},{"type":"event","name":"OwnerUpdated","inputs":[{"name":"previousOwner","type":"address","indexed":true,"internalType":"address"},{"name":"newOwner","type":"address","indexed":true,"internalType":"address"}],"anonymous":false},{"type":"error","name":"FailedDeployment","inputs":[]},{"type":"error","name":"InsufficientBalance","inputs":[{"name":"balance","type":"uint256","internalType":"uint256"},{"name":"needed","type":"uint256","internalType":"uint256"}]},{"type":"error","name":"ReentrancyGuardReentrantCall","inputs":[]},{"type":"error","name":"TargetCallFailed","inputs":[{"name":"selector","type":"bytes4","internalType":"bytes4"}]}],"bytecode":{"object":"0x608034620000d157601f62004a1e38819003918201601f19168301916001600160401b03831184841017620000d657808492602094604052833981010312620000d157516001600160a01b03811690819003620000d15780156200008c5760018060a01b031933816001541617600155600054161760005560016003556040516149319081620000ed8239f35b60405162461bcd60e51b815260206004820152601360248201527f6f776e2e696e76616c69642e68657862617365000000000000000000000000006044820152606490fd5b600080fd5b634e487b7160e01b600052604160045260246000fdfe60806040526004361015610018575b361561001657005b005b60003560e01c8063033eeffb146103085780630e5fd00b1461030357806312065fe0146102fe5780631bb49f02146102f95780631c53c280146102f45780631f185d16146102ef5780632a687c87146102ea5780632fefc0bf146102e557806332ff4eab146102e05780633a7b55b8146102db5780633b9b7955146102d65780633baee0ea146102d1578063419cb27b146102cc57806342cc9d57146102c757806344585097146102c2578063477968f2146102bd5780634f0f4aa9146102b8578063509222cd146102b357806350db85d1146102ae57806361ea7208146102a9578063629d671e146102a45780636a8112441461029f5780636a9dd2741461029a57806376fe6c451461029557806380f85e3314610290578063849c22ad1461028b578063896c354a146102865780638da5cb5b1461028157806395f72f491461027c57806398b3f21514610277578063a1f7f53914610272578063a87af7691461026d578063a89d693b14610268578063af48452614610263578063b1c490791461025e578063b366335e14610259578063b90306ad14610254578063c54e44b01461024f578063c871372b1461024a578063d1e0bbc614610245578063dcb3fc4a14610240578063e01ad5fd1461023b578063e0a9bc2b14610236578063eb95c66214610231578063f3ca71241461022c578063fd38093b146102275763fdc10bc90361000e576124a4565b612434565b612408565b6123dc565b6123c1565b612322565b61213e565b612104565b61207c565b611fe3565b611f30565b611e7d565b611d5c565b611d35565b611c16565b611b21565b611a60565b611a34565b61198a565b611961565b611921565b6118f2565b6118b8565b611869565b6117e2565b611169565b61112c565b61110e565b61104b565b610ff8565b610f0e565b610e65565b610e2e565b610dff565b610dc5565b610928565b6108d7565b61073e565b610659565b610622565b610573565b61044e565b61041a565b6103b5565b610399565b61034a565b3461033457602036600319011261033457600435600052600b6020526020604060002054604051908152f35b600080fd5b6001600160a01b0381160361033457565b3461033457602036600319011261033457602060043561036981610339565b60018060a01b03809116600052600482526040600020546000526007825260046040600020015416604051908152f35b3461033457600036600319011261033457602047604051908152f35b34610334576020366003190112610334576004356103d281610339565b6001600160a01b0390811660009081526004602090815260408083205483526007825280832060020154808452600583529281902054815193845290931690820152f35b0390f35b34610334576020366003190112610334576004356000526005602052602060018060a01b0360406000205416604051908152f35b34610334576020806003193601126103345760049081359061046f82610339565b600054819061048e906001600160a01b03165b6001600160a01b031690565b604051634bf9c0ad60e11b815294859182905afa91821561056e576104e561051f93610501926104169660009261053b575b506040516001600160a01b0390911685820190815290926104f3918491602090910190565b03601f1981018452836117a8565b6104fb614461565b906146b7565b919080610531575b6105129061448e565b8082518301019101614275565b60405190151581529081906020820190565b5081518114610509565b6104f391925061056090863d8811610567575b61055881836117a8565b8101906126d0565b91906104c0565b503d61054e565b6126e5565b346103345760403660031901126103345761059461058f61428a565b61268f565b61059d336143b5565b80156105bb575b6105ad906126f1565b610016602435600435613f6e565b50600054604051630536340960e21b8152906001600160a01b03906020908390600490829085165afa90811561056e576105ad92600092610602575b5016331490506105a4565b61061b91925060203d81116105675761055881836117a8565b90386105f7565b34610334576020366003190112610334576004356000526007602052602060018060a01b0360056040600020015416604051908152f35b346103345760403660031901126103345761067561058f61428a565b61067e336143b5565b801561069c575b61068e906126f1565b610016602435600435613fc2565b50600054604051630536340960e21b8152906001600160a01b03906020908390600490829085165afa90811561056e5761068e926000926106e3575b501633149050610685565b6106fc91925060203d81116105675761055881836117a8565b90386106d8565b6020908160408183019282815285518094520193019160005b82811061072a575050505090565b83518552938101939281019260010161071c565b34610334576020366003190112610334576104166004356108c06108b06040519261076884611737565b6007845260e036602086013761079b61078b826000526009602052604060002090565b6001600052602052604060002090565b546107a585613e3b565b526107cd6107bd826000526009602052604060002090565b6002600052602052604060002090565b546107d785613e48565b526107ff6107ef826000526009602052604060002090565b6003600052602052604060002090565b5461080985613e58565b52610831610821826000526009602052604060002090565b6004600052602052604060002090565b5461083b85613e68565b52610863610853826000526009602052604060002090565b6005600052602052604060002090565b5461086d85613e78565b52610895610885826000526009602052604060002090565b6006600052602052604060002090565b5461089f85613e88565b526000526009602052604060002090565b6007600052602052604060002090565b546108ca82613e98565b5260405191829182610703565b34610334576000366003190112610334576000546040516001600160a01b039091168152602090f35b60409060031901126103345760043561091881610339565b9060243561092581610339565b90565b346103345761098861093936610900565b61094161266c565b61095a61094c6124f6565b61095461250e565b33614751565b916109a96109716109696124f6565b610954612531565b6001600160a01b0383811696909586168714612559565b60005485906109a19082166001600160a01b0316610482565b9116146125a5565b8282166109b7811515612f04565b6001600160a01b038316600090815260046020526040902054158015610dbc575b6109e190612f46565b6001600160a01b0382166000908152600460205260409020610a0590541515612f89565b610a486005610a3a610a298560018060a01b03166000526004602052604060002090565b546000526007602052604060002090565b01546001600160a01b031690565b6040805163880cdc3160e01b6020808301919091526001600160a01b03871660248301529197919691929190610a979080604481015b0393610a92601f19958681018452836117a8565b614840565b50610abf6104826004610a3a610a298960018060a01b03166000526004602052604060002090565b15610c835750610bdb95610b1d91610a92610af46004610a3a610a298a60018060a01b03166000526004602052604060002090565b8a5162e6724f60e21b948101949094523360248501529183604481015b039081018452836117a8565b505b6001600160a01b0383811660009081526004602090815260408083205493881683528083208490559282526005905220610b759085905b80546001600160a01b0319166001600160a01b03909216919091179055565b610bba336004610b9a610a298860018060a01b03166000526004602052604060002090565b0180546001600160a01b0319166001600160a01b03909216919091179055565b03610c65575b506001600160a01b0316600090815260046020526040902090565b54610416610bf86005610a3a846000526007602052604060002090565b92610c34610c276002610c15866000526007602052604060002090565b01546000526005602052604060002090565b546001600160a01b031690565b90610c3f6001600355565b519283526001600160a01b03938416602084015290921660408201529081906060820190565b6001600160a01b031660009081526004602052604081205538610bc0565b60005460049791908290610c9f906001600160a01b0316610482565b8a5163111ea8c160e21b8152998a9182905afa97881561056e57610bdb98610d0291600091610d9f575b508a516001600160a01b038916858201908152909190610cf4908390602001038781018452836117a8565b610cfc612fd5565b90614751565b908116151580610d95575b610d1a575b505050610b1f565b8851634fb2e45d60e01b83820152336024820152610d8c93610a9291610d5490610d4e8160448101038481018352826117a8565b84614840565b508a5193630a3e884b60e41b9085015283610b1160248201906007606060808401936000815260006020820152600060408201520152565b50388080610d12565b5080311515610d0d565b610db69150843d86116105675761055881836117a8565b38610cc9565b508481146109d8565b34610334576020366003190112610334576020610df5600435600052600760205260ff6001604060002001541690565b6040519015158152f35b346103345760203660031901126103345760043560005260076020526020600360406000200154604051908152f35b34610334576020366003190112610334576004356000526007602052602060018060a01b0360046040600020015416604051908152f35b3461033457600080600319360112610f0b57610e8261058f61428a565b610e8b336143b5565b8015610ea6575b610e9b906126f1565b610ea3613cbc565b80f35b508054604051630536340960e21b8152906001600160a01b03906020908390600490829085165afa90811561056e57610e9b928492610eeb575b501633149050610e92565b610f0491925060203d81116105675761055881836117a8565b9038610ee0565b80fd5b3461033457602036600319011261033457600435806000526007602052604060002054600560205261041660018060a01b0380604060002054169360076020526040600020916004600284015493015416610f786005610a3a846000526007602052604060002090565b906003610fb0610f9f6001610f97876000526007602052604060002090565b015460ff1690565b946000526007602052604060002090565b0154604080519788526001600160a01b03988916602089015287019490945286166060860152909416608084015292151560a083015260c082019290925290819060e0820190565b346103345760203660031901126103345760043561101581610339565b60018060a01b031660005260046020526040600020546000526007602052602060ff600160406000200154166040519015158152f35b346103345761105936610900565b61106461058f61428a565b61106d336143b5565b80156110a1575b91611081611086936126f1565b61273d565b604080519283526001600160a01b0391909116602083015290f35b50600054604051630536340960e21b81526001600160a01b0393916020908290600490829088165afa801561056e5761108694611081926000926110ee575b503391161491935050611074565b61110791925060203d81116105675761055881836117a8565b90386110e0565b34610334576000366003190112610334576020600654604051908152f35b346103345760203660031901126103345760043561114981610339565b60018060a01b031660005260046020526020604060002054604051908152f35b34610334576040806003193601126103345760049081359161118961266c565b6111aa6111a56001610f97866000526007602052604060002090565b612e60565b6111cf6111c861048283610a3a876000526007602052604060002090565b3314613004565b6111df6111da6144d3565b600255565b6111f86005610a3a856000526007602052604060002090565b926002549183519461124161123360209763015042f960e11b8982015280610a7e60249889358a840160209093929193604081019481520152565b8780825183010191016136dd565b9586928351956112568386019788519061265f565b966112668987019889519061265f565b611276606088019182519061265f565b90611287608089019283519061265f565b926112b06112ab60c06112a060a08d019788519061265f565b9b019a8b519061265f565b613f14565b8c51611658575b80516115af575b508051611508575b508051611462575b5080516113bc575b50845161130c575b61041688886112f28960e08e015190613757565b51906112fe6001600355565b519081529081906020820190565b6000549498939594929392849061132b906001600160a01b0316610482565b89516313b92d3560e31b815293849182905afa98891561056e57610416996112f29760e09661138d95600093611397575b5092518b5163a9059cbb891b9481019490945233948401948552602085015291929091610a92918490604001610b11565b50958293386112de565b610a9293506113b5610b1191833d85116105675761055881836117a8565b935061135c565b600054839085906113d5906001600160a01b0316610482565b8b516324768d9160e01b815292839182905afa801561056e576114389261142c9260009261143f575b50518b5163a9059cbb60e01b8882015233868201908152602081019290925292610a92918491604090910190565b038881018452836117a8565b50386112d6565b610a9291925061145b90883d8a116105675761055881836117a8565b91906113fe565b6000548490869061147b906001600160a01b0316610482565b8c516324768d9160e01b815292839182905afa801561056e576114de926114d2926000926114e5575b50518c5163a9059cbb60e01b8982015233878201908152602081019290925292610a92918491604090910190565b038981018452836117a8565b50386112ce565b610a9291925061150190893d8b116105675761055881836117a8565b91906114a4565b60005485908790611521906001600160a01b0316610482565b8d51635506ee0b60e11b815292839182905afa91821561056e57611587928d61157b9360009261158e575b509151915163a9059cbb60e01b8a820152338882019081526020810193909352929091610a9291849160400190565b038a81018452836117a8565b50386112c6565b610a9292506115a9908b3d8d116105675761055881836117a8565b9161154c565b600054869088908e906115ca906001600160a01b0316610482565b90516330125cf560e01b815292839182905afa91821561056e57611630928e61162493600092611637575b509151915163a9059cbb60e01b8b820152338982019081526020810193909352929091610a9291849160400190565b038b81018452836117a8565b50386112be565b610a929250611652908c8d3d106105675761055881836117a8565b916115f5565b600054869088908e90611673906001600160a01b0316610482565b9051636402742760e01b815292839182905afa801561056e578e6116cd918f6116d9946000926116df575b509151915163a9059cbb60e01b8c820152338a82019081526020810193909352929091610a9291849160400190565b038c81018452836117a8565b506112b7565b610a9292506116fa908d803d106105675761055881836117a8565b9161169e565b634e487b7160e01b600052604160045260246000fd5b6060810190811067ffffffffffffffff82111761173257604052565b611700565b610100810190811067ffffffffffffffff82111761173257604052565b6040810190811067ffffffffffffffff82111761173257604052565b6020810190811067ffffffffffffffff82111761173257604052565b60e0810190811067ffffffffffffffff82111761173257604052565b90601f8019910116810190811067ffffffffffffffff82111761173257604052565b67ffffffffffffffff81116117325760051b60200190565b34610334576020806003193601126103345760043567ffffffffffffffff8111610334573660238201121561033457806004013590611820826117ca565b9161182e60405193846117a8565b80835260248484019160051b8301019136831161033457602401905b82821061185a5761001684613fec565b8135815290840190840161184a565b3461033457602036600319011261033457602060043561188881610339565b60018060a01b03809116600052600482526040600020546000526007825260056040600020015416604051908152f35b3461033457604036600319011261033457600435600052600860205260406000206024356000526020526020604060002054604051908152f35b346103345760203660031901126103345760043560005260076020526020600260406000200154604051908152f35b3461033457604036600319011261033457600435600052600760205260206119526024356003604060002001612d39565b90549060031b1c604051908152f35b34610334576000366003190112610334576001546040516001600160a01b039091168152602090f35b34610334576040366003190112610334576119a661058f61428a565b6119af336143b5565b80156119cd575b6119bf906126f1565b610016602435600435613f98565b50600054604051630536340960e21b8152906001600160a01b03906020908390600490829085165afa90811561056e576119bf92600092611a14575b5016331490506119b6565b611a2d91925060203d81116105675761055881836117a8565b9038611a09565b3461033457602036600319011261033457600435600052600f6020526020604060002054604051908152f35b346103345760003660031901126103345760005460405163d1f956b160e01b815290602090829060049082906001600160a01b03165afa90811561056e5761041691611ae991600091611af9575b50604051611abb81611754565b601381527267657464656c656761746f72436f756e74282960681b6020820152611ae36124e3565b916147d1565b6040519081529081906020820190565b611b11915060203d81116105675761055881836117a8565b38611aae565b8015150361033457565b3461033457606036600319011261033457602435611b3e81610339565b604435611b4a81611b17565b611b5561058f61428a565b611b5e336143b5565b8015611b7a575b91611b72610016936126f1565b60043561318a565b50600054604051630536340960e21b81526001600160a01b0393916020908290600490829088165afa801561056e5761001694611b7292600092611bc7575b503391161491935050611b65565b611be091925060203d81116105675761055881836117a8565b9038611bb9565b610100810192916000915b60088310611bff57505050565b600190825181526020809101920192019190611bf2565b3461033457602036600319011261033457610416600435611d236108b0611c3b613e26565b92611c62611c53826000526008602052604060002090565b60008052602052604060002090565b548452611c7c61078b826000526008602052604060002090565b546020850152611c996107bd826000526008602052604060002090565b546040850152611cb66107ef826000526008602052604060002090565b546060850152611cd3610821826000526008602052604060002090565b546080850152611cf0610853826000526008602052604060002090565b5460a0850152611d0d610885826000526008602052604060002090565b5460c08501526000526008602052604060002090565b5460e082015260405191829182611be7565b34610334576020366003190112610334576020610df5600435611d5781610339565b6143b5565b3461033457611e09611d6d36610900565b90611d7661266c565b611dbf611d8461094c6124f6565b611d8f6109696124f6565b906001600160a01b0390611da890821686831614612559565b6000546109a19082166001600160a01b0316610482565b611deb611de66001610f97610a298560018060a01b03166000526004602052604060002090565b6125ea565b611df66111da6144d3565b611e0260028054612953565b3390612b55565b611e22611c536002546000526008602052604060002090565b611e2c815461264c565b9055611e36613f40565b611e4f6005610a3a836000526007602052604060002090565b90611e5981612ea4565b611e636001600355565b604080519182526001600160a01b03929092166020820152f35b3461033457602036600319011261033457611e9961058f61428a565b611ea2336143b5565b8015611ebd575b611eb2906126f1565b610016600435612931565b50600054600490602090611ed9906001600160a01b0316610482565b604051630536340960e21b815292839182905afa801561056e57611eb291600091611f12575b506001600160a01b031633149050611ea9565b611f2a915060203d81116105675761055881836117a8565b38611eff565b3461033457602036600319011261033457600054604051630536340960e21b8152906001600160a01b03906020908390600490829085165afa91821561056e57600092611fc3575b5033911603611f8c576100166004356145bb565b60405162461bcd60e51b815260206004820152600f60248201526e6f776e2e6e6f6e617574682e44414f60881b6044820152606490fd5b611fdc91925060203d81116105675761055881836117a8565b9038611f78565b346103345760203660031901126103345760043561200081610339565b803b600061200d826124c7565b9261201b60405194856117a8565b82845260208401903c602d81511061204157602a015160405160609190911c8152602090f35b60405162461bcd60e51b81526020600482015260136024820152724e6f742061206d696e696d616c2070726f787960681b6044820152606490fd5b60403660031901126103345760043561209361266c565b61209b6144d3565b60025560009080825260076020526120bc60ff600160408520015416612e60565b815260076020526120fb60018060a01b036005604084200154166040519062a0e53360e51b6020830152602435602483015260248252610a9282611716565b50600160035580f35b3461033457604036600319011261033457600435600052600a60205260406000206024356000526020526020604060002054604051908152f35b346103345760c03660031901126103345760243560043561215e82610339565b606435906084359061216e61266c565b61218a6111a56001610f97846000526007602052604060002090565b6121a96111c86104826004610a3a856000526007602052604060002090565b6121b46111da6144d3565b6121c060028054612953565b6121c982613ebc565b6121d283613ee8565b6122656122576122436121f46005610a3a866000526007602052604060002090565b604051634996516b60e11b6020808301919091526001600160a01b039099166024820152604480359082015260648101889052608481019690965260a4803590870152969490819060c4820190565b0396610a92601f19988981018452836117a8565b838082518301019101613050565b9281612282575b5050612278935061396e565b6100166001600355565b6000546004929190819061229e906001600160a01b0316610482565b604051635e09dbe760e01b815294859182905afa801561056e57612278976122f994600092612301575b5060405163a9059cbb60e01b9381019390935233602484015260448301939093529091610a92908360648101610b11565b50388061226c565b610a92925061231c90843d86116105675761055881836117a8565b916122c8565b3461033457602080600319360112610334576004803561234181610339565b60005460405163d1f956b160e01b81526001600160a01b03949093909182918591829088165afa90811561056e576104169461051f946000936123a2575b50604051931681840152825261239482611754565b61239c61455e565b90614795565b6123ba919350823d84116105675761055881836117a8565b913861237f565b34610334576000366003190112610334576020610df561428a565b3461033457602036600319011261033457600435600052600c6020526020604060002054604051908152f35b3461033457602036600319011261033457600435600052600e6020526020604060002054604051908152f35b34610334576040806003193601126103345760043561245281610339565b6001600160a01b0316600081815260046020818152848320548352600b815284832054938352908152838220548252600a81528382206024358352815290839020549251918252810191909152604090f35b346103345760003660031901126103345760206124bf6144d3565b604051908152f35b67ffffffffffffffff811161173257601f01601f191660200190565b604051906124f082611770565b60008252565b60405161250281611770565b60008152906000368137565b6040519061251b82611754565b60078252666f776e6572282960c81b6020830152565b6040519061253e82611754565b600c82526b67657448657862617365282960a01b6020830152565b1561256057565b60405162461bcd60e51b815260206004820152601760248201527f6e65737465642e696e76616c69642e696e7374616e63650000000000000000006044820152606490fd5b156125ac57565b60405162461bcd60e51b81526020600482015260166024820152756e65737465642e696e76616c69642e6865786261736560501b6044820152606490fd5b156125f157565b60405162461bcd60e51b815260206004820152601860248201527f6e65737465642e706172656e742e6e6f742e65786973747300000000000000006044820152606490fd5b634e487b7160e01b600052601160045260246000fd5b906001820180921161265a57565b612636565b9190820180921161265a57565b60026003541461267d576002600355565b604051633ee5aeb560e01b8152600490fd5b1561269657565b60405162461bcd60e51b81526020600482015260126024820152716f776e2e696e76616c69642e69735361666560701b6044820152606490fd5b90816020910312610334575161092581610339565b6040513d6000823e3d90fd5b156126f857565b60405162461bcd60e51b815260206004820152601b60248201527f6f776e2e6e6f6e617574682e44414f6f725365637572656261736500000000006044820152606490fd5b6127ea92916127f060049261275061266c565b61278361277e61277a6001610f97610a298860018060a01b03166000526004602052604060002090565b1590565b612b02565b612796612791600654612b46565b600655565b6006549586916127b485610b56856000526005602052604060002090565b6001600160a01b038516600090815260046020526040902083905b556001600160a01b0316600090815260046020526040902090565b54612d97565b61281982612808866000526007602052604060002090565b0180546001600160a01b0319169055565b600054602090612831906001600160a01b0316610482565b60405163e09d394d60e01b815293849182905afa801561056e5761286461287a916128e494600091612913575b50612cbb565b6005610b9a876000526007602052604060002090565b6128936005610a3a866000526007602052604060002090565b600054610a92906128ac906001600160a01b0316610482565b6040516352902c5960e01b60208201526001600160a01b039182166024820152931660448401526064830186905282608481016104e5565b506000828152600760205260409020600501546001600160a01b03169161290a81612ea4565b91906001600355565b61292b915060203d81116105675761055881836117a8565b3861285e565b6129429061293d6144d3565b612953565b565b60001981019190821161265a57565b9061296b611c53836000526008602052604060002090565b541580612af8575b80612aef575b612981575050565b61299d9061299761299184612944565b91612944565b90612953565b6129bc611c536129ac83612944565b6000526008602052604060002090565b546129d4611c53836000526008602052604060002090565b556129e461078b6129ac83612944565b546129fc61078b836000526008602052604060002090565b55612a0c6107bd6129ac83612944565b54612a246107bd836000526008602052604060002090565b55612a346107ef6129ac83612944565b54612a4c6107ef836000526008602052604060002090565b55612a5c6108216129ac83612944565b54612a74610821836000526008602052604060002090565b55612a846108536129ac83612944565b54612a9c610853836000526008602052604060002090565b55612aac6108856129ac83612944565b54612ac4610885836000526008602052604060002090565b55612aec6108b0612ada6108b06129ac85612944565b54926000526008602052604060002090565b55565b50801515612979565b5060018211612973565b15612b0957565b60405162461bcd60e51b81526020600482015260156024820152746e65737465642e616c72656164792e65786973747360581b6044820152606490fd5b600019811461265a5760010190565b91612bed600492612bd86127ea95612b8d61277e61277a6001610f97610a298a60018060a01b03166000526004602052604060002090565b612b9b612791600654612b46565b600654968791612bb987610b56856000526005602052604060002090565b6001600160a01b038716600090815260046020526040902083906127cf565b83610b9a866000526007602052604060002090565b600054602090612c05906001600160a01b0316610482565b60405163e09d394d60e01b815293849182905afa801561056e57612c37612c4d91612cb7946000916129135750612cbb565b6005610b9a866000526007602052604060002090565b612c666005610a3a856000526007602052604060002090565b600054610a9290612c7f906001600160a01b0316610482565b6040516352902c5960e01b60208201526001600160a01b039182166024820152931660448401526064830185905282608481016104e5565b5090565b6e5af43d82803e903d91602b57fd5bf390763d602d80600a3d3981f3363d3d373d3d3d363d7300000062ffffff8260881c161760005260781b17602052603760096000f0906001600160a01b03821615612d1157565b60405163b06ebf3d60e01b8152600490fd5b634e487b7160e01b600052603260045260246000fd5b8054821015612d515760005260206000200190600090565b612d23565b90815491680100000000000000008310156117325782612d7e91600161294295018155612d39565b90919082549060031b91821b91600019901b1916179055565b91906000818152602093600785526040808320926002948386860155806001958681018760ff19825416179055558385905b612dd857505050505050509050565b612e32612e2182888a9414612e3b575b878652600a8c528686208187528c52868620612e04815461264c565b9055878652600b8c52868620612e1a815461264c565b9055612b46565b956000526007602052604060002090565b01549384612dc9565b612e5b856003612e558b6000526007602052604060002090565b01612d56565b612de8565b15612e6757565b60405162461bcd60e51b81526020600482015260156024820152746e65737465642e757365722e6e6f7461637469766560581b6044820152606490fd5b806000526007602052612ec160ff60016040600020015416612e60565b6000526007602052612f0160018060a01b03600560406000200154166040519062a0e53360e51b60208301526001602483015260248252610a9282611716565b50565b15612f0b57565b60405162461bcd60e51b81526020600482015260136024820152726e65737465642e7a65726f2e6164647265737360681b6044820152606490fd5b15612f4d57565b60405162461bcd60e51b81526020600482015260146024820152736e65737465642e7461726765742e65786973747360601b6044820152606490fd5b15612f9057565b60405162461bcd60e51b815260206004820152601760248201527f6e65737465642e736f757263652e6e6f744578697374730000000000000000006044820152606490fd5b60405190612fe282611754565b601382527255736572546f496e737428616464726573732960681b6020830152565b1561300b57565b60405162461bcd60e51b815260206004820152601b60248201527f6e65737465642e757365722e696e76616c6964696e7374616e636500000000006044820152606490fd5b9190826040910312610334576020825192015190565b1561306d57565b60405162461bcd60e51b815260206004820152601860248201527f6e65737465642e757365722e6e6f742e646574616368656400000000000000006044820152606490fd5b156130b957565b60405162461bcd60e51b815260206004820152601760248201527f6e65737465642e706172656e742e6e6f746163746976650000000000000000006044820152606490fd5b1561310557565b60405162461bcd60e51b815260206004820152601b60248201527f6e65737465642e757365722e616c726564792e646574616368656400000000006044820152606490fd5b805490811561317457600019918201916131648383612d39565b909182549160031b1b1916905555565b634e487b7160e01b600052603160045260246000fd5b9190916001926131ab6111a585610f97856000526007602052604060002090565b6131b66111da6144d3565b8261332957506002926131e0846131d7846000526007602052604060002090565b015415156130fe565b6000815b61320c575b5050600061294293613205836000526007602052604060002090565b015561345a565b60038061323987613227876000526007602052604060002090565b01546000526007602052604060002090565b0154821015613323578361327361326984846132638b613227876000526007602052604060002090565b01612d39565b90549060031b1c90565b14613288575061328290612b46565b816131e4565b60009250806132ff8793612d7e6132e5613269896132df876132d86129429f61322761331d9c6132c683613227896000526007602052604060002090565b01956000526007602052604060002090565b0154612944565b90612d39565b9184613263886132278c6000526007602052604060002090565b61331783613227876000526007602052604060002090565b0161314a565b936131e9565b506131e9565b61294293506133aa90613353600261334b856000526007602052604060002090565b015415613066565b6001600160a01b03811660009081526004602052604090206133909061338b9054600052600760205260ff6001604060002001541690565b6130b2565b6001600160a01b0316600090815260046020526040902090565b5460026133c1836000526007602052604060002090565b01556133e2816003612e556002613227846000526007602052604060002090565b61345a565b604051906133f482611754565b600e82526d6c766c62732875696e743235362960901b6020830152565b6040519061341e82611754565b600f82526e6c766c7174792875696e743235362960881b6020830152565b60ff1660ff811461265a5760010190565b801561265a576000190190565b61351760059161347883610a3a836000526007602052604060002090565b906040908151916134b960209380613497868201906000602083019252565b03956134ab601f19978881018452836117a8565b6134b36133e7565b906147d1565b936135016134d588610a3a866000526007602052604060002090565b8351906134f9826134ed898201906000602083019252565b038581018452836117a8565b6134b3613411565b9260029687916000526007602052604060002090565b0154946001978896875b613533575b5050505050505050505050565b600f60ff89161115806136d4575b156136cf578886888d888c61356761048289610a3a8a6000526007602052604060002090565b613597575b5050505050613588613590926000526007602052604060002090565b01549761343c565b9689613521565b926114d26136109693610a929361360297966135c18c610a3a8d6000526007602052604060002090565b96549151978895637b058ac160e01b908701528d60248701939095949160809360ff9160a08701988752602087015216604085015260608401521515910152565b888082518301019101613050565b908c1561368057908a915b808211613639575050613588613590925b92505086888d888c61356c565b613644919250612b46565b61366c8161365d8d546000526008602052604060002090565b90600052602052604060002090565b613676815461264c565b9055908a9161361b565b908a915b8181116136995750506135886135909261362c565b6136b68161365d6136c79495546000526008602052604060002090565b6136c08154612944565b905561344d565b908a91613684565b613526565b50801515613541565b9061010080838303126103345781601f84011215610334576040519261370284611737565b8391810192831161033457905b82821061371c5750505090565b815181526020918201910161370f565b6040519061373982611754565b600f82526e66726565496e74657276616c73282960881b6020830152565b60008054929392613770906001600160a01b0316610482565b90604091825180809263cfbffe5360e01b8252602092839160049586915afa801561056e576137b2918591613951575b506137a96124f6565b906134b361372c565b839784965b600f88111580613948575b1561393c5789888389876005946137ea61048287610a3a8a6000526007602052604060002090565b61381c575b505050505050600261380e613816926000526007602052604060002090565b015497612b46565b966137b7565b88851596871580613933575b801561392c575b61383b575b50506137ef565b926104e56138b19593610a92936138646138bf9997610a3a8e6000526007602052604060002090565b9560029a8b549151988996630fe4bc4560e11b9088015260248701919260c093969594919660e0840197600085526000602086015260408501526060840152608083015260a08201520152565b878082518301019101613050565b92613923575b8c15613913575b8083116138e057508389878e888e95613834565b6138e990612b46565b6139028161365d84546000526008602052604060002090565b61390c815461264c565b90556138cc565b8783106138cc579b50819b6138cc565b9b50819b6138c5565b508d61382f565b50851515613828565b50505050505050509050565b508015156137c2565b6139689150833d85116105675761055881836117a8565b386137a0565b6000549193929091613988906001600160a01b0316610482565b906004602060409384519283809263cfbffe5360e01b82525afa801561056e576139bc91600091613b5757506137a96124f6565b6000956000945b600f86111580613b4e575b15613b4457858486848b8760056139f661048282610a3a8b6000526007602052604060002090565b613a29575b505050505050506002613a1b613a23926000526007602052604060002090565b015495612b46565b946139c3565b86151580613b3c575b8015613b33575b156139fb57926104e5613ab29593610a9293613a67613ac19997610a3a8d6000526007602052604060002090565b9560029a8b549151988996630fe4bc4560e11b6020890152602488019260c094919796959260e085019885526020850152600060408501526060840152608083015260a08201520152565b60208082518301019101613050565b91908815613b2a575b8a15613b19575b808311613ae65750508486848b878b956139fb565b613aef90612b46565b613b088161365d84546000526008602052604060002090565b613b12815461264c565b9055613ad1565b60048310613ad15799508199613ad1565b99508199613aca565b50831515613a39565b506000613a32565b5050505050509050565b508015156139ce565b613968915060203d6020116105675761055881836117a8565b15613b7757565b60405162461bcd60e51b81526020600482015260126024820152716e65737465642e696e76616c69642e61676560701b6044820152606490fd5b60405190613bbe82611754565b601882527f6765744261746368526f79616c7479436c6175736573282900000000000000006020830152565b6102a09081818403126103345782601f82011215610334576040805193613c108561178c565b849383019281841161033457935b838510613c2d57505050505090565b606085830312610334578251606091613c4582611716565b8651825260209182880151838201528588015186820152815201940193613c1e565b906007811015612d515760051b0190565b908160640291606483040361265a57565b8181029291811591840414171561265a57565b8115613ca6570490565b634e487b7160e01b600052601260045260246000fd5b613cc76111da6144d3565b613cdd600254613cd8811515613b70565b612944565b600054613cf2906001600160a01b0316610482565b90604051809263cfbffe5360e01b825281600460209586935afa90811561056e57613d4891613d3a91600091613e09575b50613d2c613bb1565b613d346124e3565b9161468c565b838082518301019101613bea565b613d5c82600052600c602052604060002090565b5460015b6007811115613d70575050505050565b80613d8c613df59261365d876000526008602052604060002090565b548015613e0357613da5613d9f83612944565b86613c67565b51878151928315613dfa57613dcc613dd192613dc4613dd7968a613c89565b940151613c78565b613c89565b90613c9c565b613def8261365d886000526009602052604060002090565b55612b46565b613d60565b50505050612b46565b50612b46565b613e209150853d87116105675761055881836117a8565b38613d23565b60405190613e3382611737565b610100368337565b805115612d515760200190565b805160011015612d515760400190565b805160021015612d515760600190565b805160031015612d515760800190565b805160041015612d515760a00190565b805160051015612d515760c00190565b805160061015612d515760e00190565b8051821015612d515760209160051b010190565b60025480600052600c60205260406000205491820180921161265a57600052600c602052604060002055565b60025480600052600d60205260406000205491820180921161265a57600052600d602052604060002055565b60025480600052600e60205260406000205491820180921161265a57600052600e602052604060002055565b60025480600052600f602052604060002054906001820180921161265a57600052600f602052604060002055565b9080600052600c60205260406000205491820180921161265a57600052600c602052604060002055565b9080600052600e60205260406000205491820180921161265a57600052600e602052604060002055565b9080600052600f60205260406000205491820180921161265a57600052600f602052604060002055565b613ff761058f61428a565b614000336143b5565b8015614159575b614010906126f1565b60008054909190614029906001600160a01b0316610482565b604092835192839263111ea8c160e21b845283600460209687935afa92831561056e57829361413a575b50815b8151811015614132576140698183613ea8565b518651868101828152819003808252601f199161409b9161408d90602001826117a8565b6140956141c0565b886147d1565b6140ba6140b284600052600c602052604060002090565b91825461265f565b9055845b8789600883106140db5750505050506140d690612b46565b614056565b519081018481526020810183905261412d929161411591614107908290604001038681018352826117a8565b61410f6141f0565b8a6147d1565b613def8261365d876000526008602052604060002090565b6140be565b505050505050565b614152919350843d86116105675761055881836117a8565b9138614053565b50600054604051630536340960e21b8152906001600160a01b03906020908390600490829085165afa90811561056e57614010926000926141a0575b501633149050614007565b6141b991925060203d81116105675761055881836117a8565b9038614195565b604051906141cd82611754565b6014825273676574627573696e6573732875696e743235362960601b6020830152565b604051906141fd82611754565b601d82527f67657472616e6b436f756e742875696e743235362c75696e74323536290000006020830152565b1561423057565b60405162461bcd60e51b815260206004820152601960248201527f6f776e2e7361666567756172642e63616c6c2e6661696c6564000000000000006044820152606490fd5b90816020910312610334575161092581611b17565b600054604051634bf9c0ad60e11b8152906020908190839060049082906001600160a01b03165afa91821561056e57610925926143009160009161431b575b506040516142d681611754565b6008815267697353616665282960c01b84820152604051916142f783611770565b600083526146b7565b919080614311575b61051290614229565b5081518114614308565b6143329150833d85116105675761055881836117a8565b386142c9565b6040519061434582611754565b601582527469735365637572654261736528616464726573732960581b6020830152565b1561437057565b60405162461bcd60e51b815260206004820152601a60248201527f6f776e2e736563757265626173652e63616c6c2e6661696c65640000000000006044820152606490fd5b6000546001600160a01b0316604051918291634bf9c0ad60e11b835282600460209485935afa92831561056e5761092593614423926104e59260009261443e575b506040516001600160a01b03909116858201908152909261441b918491602090910190565b6104fb614338565b919080614434575b61051290614369565b508151811461442b565b61441b91925061445a90863d88116105675761055881836117a8565b91906143f6565b6040519061446e82611754565b601182527069735369676e657228616464726573732960781b6020830152565b1561449557565b60405162461bcd60e51b81526020600482015260166024820152751bdddb8b9cda59db995c8b98d85b1b0b99985a5b195960521b6044820152606490fd5b60005460405163111ea8c160e21b815290602090829060049082906001600160a01b03165afa801561056e5761092591600091614540575b5060405161451881611754565b6005815264616765282960d81b60208201526040519161453783611770565b600083526147d1565b614558915060203d81116105675761055881836117a8565b3861450b565b6040519061456b82611754565b6011825270697364656c656761746f724e6f6465282960781b6020830152565b3d156145b6573d9061459c826124c7565b916145aa60405193846117a8565b82523d6000602084013e565b606090565b600080546040516311be646b60e21b815290602090829060049082906001600160a01b03165afa90811561056e57828481938293839161466e575b505af161460161458b565b50156146375760405190815233907fcdcc745fe377b103b45fa0cec23ae3ef93d6fc6a84a01f0d18c40b354dd1d5d890602090a2565b60405162461bcd60e51b815260206004820152600f60248201526e1bdddb8b989d5c9b8b99985a5b1959608a1b6044820152606490fd5b614686915060203d81116105675761055881836117a8565b386145f6565b9061469792916146b7565b90600090156146a4575090565b60405191506146b282611770565b815290565b9190823b15614738578051906020918263ffffffff60e01b92012016916040519180830193845281519160005b838110614724575050509181614711602482600097959688970187838201520360048101845201826117a8565b5191620dbba0fa61472061458b565b9091565b8181018301518582016024015282016146e4565b50505060009060405161474a81611770565b6000815290565b929161475f916000946146b7565b908061478a575b61476d5750565b909150602081805181010312610334576020015161048281610339565b506020815114614766565b92916147a3916000946146b7565b90806147c6575b6147b15750565b61092591925060208082518301019101614275565b5060208151146147aa565b92916147df916000946146b7565b9080614804575b6147ed5750565b909150602081805181010312610334576020015190565b5060208151146147e6565b906020825192015163ffffffff60e01b90818116936004811061483157505050565b60040360031b82901b16169150565b6001600160a01b038116156148c157600080918351908260208601915af19061486761458b565b9115614871575090565b8051600091906004116148bb57614888915061480f565b8151156148985750805190602001fd5b604051630870274d60e21b81526001600160e01b03199091166004820152602490fd5b50614888565b60405162461bcd60e51b81526020600482015260126024820152711bdddb8b9a5b9d985b1a590b9d185c99d95d60721b6044820152606490fdfea264697066735822122054e7c7d7b2cdfb782fe381bd2e69b2f68a0ce175be199eafe4c72c9e0b1739ba64736f6c63430008140033","linkReferences":{}},"methodIdentifiers":{"Burn(uint256)":"b90306ad","UserToId(address)":"629d671e","_delegatorCount()":"a1f7f539","_getImplementation(address)":"c54e44b0","_isDelegatorNode(address)":"e01ad5fd","_isSafe()":"e0a9bc2b","_isSecureBase(address)":"af484526","_isSigner(address)":"1f185d16","addBusiness(uint256,address,uint256,uint256,uint256,uint256)":"dcb3fc4a","claimIncome(uint256,uint256)":"6a811244","compileRoyality()":"477968f2","getBalance()":"12065fe0","getBatchRankCounts(uint256)":"a89d693b","getDownlineCountByLevel(uint256,uint256)":"d1e0bbc6","getHexbase()":"3b9b7955","getNode(uint256)":"4f0f4aa9","getNodeChild(uint256,uint256)":"896c354a","getNodeDirectsCount(uint256)":"42cc9d57","getNodeParent(address)":"1bb49f02","getNodeParentId(uint256)":"849c22ad","getNodesCount()":"61ea7208","getRoyalityAmountBatch(uint256)":"3a7b55b8","getTeamSize(uint256)":"033eeffb","getTotalTeamSizeWithLevel(address,uint256)":"fd38093b","getUserIdToInst(uint256)":"44585097","getUserIdToStor(uint256)":"2fefc0bf","getUserToInst(address)":"0e5fd00b","getUserToStor(address)":"76fe6c45","getbusiness(uint256)":"eb95c662","getjoining(uint256)":"98b3f215","getrankCount(uint256,uint256)":"80f85e33","getwithdrawn(uint256)":"f3ca7124","importBusiness(uint256,uint256)":"2a687c87","importJoining(uint256,uint256)":"32ff4eab","importOld(uint256,uint256)":"c871372b","importRankNBusiness(uint256[])":"6a9dd274","importWithdrawal(uint256,uint256)":"95f72f49","isNode(uint256)":"419cb27b","isUserExists(address)":"509222cd","join(address,address)":"b1c49079","joinImport(address,address)":"50db85d1","moveDownline(uint256,address,bool)":"a87af769","nodes(uint256)":"1c53c280","owner()":"8da5cb5b","setDefaultRankCount(uint256)":"b366335e","systemAge()":"fdc10bc9","updateUsers(address,address)":"3baee0ea"},"id":27}