{"abi":[{"type":"constructor","inputs":[{"name":"_hex","type":"address","internalType":"address"}],"stateMutability":"nonpayable"},{"type":"fallback","stateMutability":"payable"},{"type":"receive","stateMutability":"payable"},{"type":"function","name":"Burn","inputs":[{"name":"amount","type":"uint256","internalType":"uint256"}],"outputs":[],"stateMutability":"nonpayable"},{"type":"function","name":"UserToId","inputs":[{"name":"","type":"address","internalType":"address"}],"outputs":[{"name":"","type":"uint256","internalType":"uint256"}],"stateMutability":"view"},{"type":"function","name":"_delegatorCount","inputs":[],"outputs":[{"name":"","type":"uint256","internalType":"uint256"}],"stateMutability":"view"},{"type":"function","name":"_getImplementation","inputs":[{"name":"clone","type":"address","internalType":"address"}],"outputs":[{"name":"impl","type":"address","internalType":"address"}],"stateMutability":"view"},{"type":"function","name":"_isDelegatorNode","inputs":[{"name":"sender","type":"address","internalType":"address"}],"outputs":[{"name":"","type":"bool","internalType":"bool"}],"stateMutability":"view"},{"type":"function","name":"_isSafe","inputs":[],"outputs":[{"name":"","type":"bool","internalType":"bool"}],"stateMutability":"view"},{"type":"function","name":"_isSecureBase","inputs":[{"name":"sender","type":"address","internalType":"address"}],"outputs":[{"name":"","type":"bool","internalType":"bool"}],"stateMutability":"view"},{"type":"function","name":"_isSigner","inputs":[{"name":"sender","type":"address","internalType":"address"}],"outputs":[{"name":"","type":"bool","internalType":"bool"}],"stateMutability":"view"},{"type":"function","name":"addBusiness","inputs":[{"name":"_id","type":"uint256","internalType":"uint256"},{"name":"_paramAdd","type":"address","internalType":"address"},{"name":"_tokenid","type":"uint256","internalType":"uint256"},{"name":"_qty","type":"uint256","internalType":"uint256"},{"name":"_msgValue","type":"uint256","internalType":"uint256"},{"name":"_type","type":"uint256","internalType":"uint256"}],"outputs":[],"stateMutability":"nonpayable"},{"type":"function","name":"claimIncome","inputs":[{"name":"_id","type":"uint256","internalType":"uint256"},{"name":"_maxint","type":"uint256","internalType":"uint256"}],"outputs":[{"name":"","type":"uint256","internalType":"uint256"},{"name":"","type":"uint256","internalType":"uint256"}],"stateMutability":"nonpayable"},{"type":"function","name":"compileRoyality","inputs":[{"name":"prevAge","type":"uint256","internalType":"uint256"}],"outputs":[],"stateMutability":"nonpayable"},{"type":"function","name":"getBalance","inputs":[],"outputs":[{"name":"","type":"uint256","internalType":"uint256"}],"stateMutability":"view"},{"type":"function","name":"getBatchRankCounts","inputs":[{"name":"ag","type":"uint256","internalType":"uint256"}],"outputs":[{"name":"counts","type":"uint256[8]","internalType":"uint256[8]"}],"stateMutability":"view"},{"type":"function","name":"getDownlineCountByLevel","inputs":[{"name":"uid","type":"uint256","internalType":"uint256"},{"name":"lvl","type":"uint256","internalType":"uint256"}],"outputs":[{"name":"","type":"uint256","internalType":"uint256"}],"stateMutability":"view"},{"type":"function","name":"getHexbase","inputs":[],"outputs":[{"name":"","type":"address","internalType":"address"}],"stateMutability":"view"},{"type":"function","name":"getNode","inputs":[{"name":"_id","type":"uint256","internalType":"uint256"}],"outputs":[{"name":"_i","type":"uint256","internalType":"uint256"},{"name":"_node","type":"address","internalType":"address"},{"name":"_pid","type":"uint256","internalType":"uint256"},{"name":"_inst","type":"address","internalType":"address"},{"name":"_stor","type":"address","internalType":"address"},{"name":"_active","type":"bool","internalType":"bool"},{"name":"_direcCount","type":"uint256","internalType":"uint256"}],"stateMutability":"view"},{"type":"function","name":"getNodeChild","inputs":[{"name":"_id","type":"uint256","internalType":"uint256"},{"name":"inx","type":"uint256","internalType":"uint256"}],"outputs":[{"name":"child","type":"uint256","internalType":"uint256"}],"stateMutability":"view"},{"type":"function","name":"getNodeDirectsCount","inputs":[{"name":"_id","type":"uint256","internalType":"uint256"}],"outputs":[{"name":"count","type":"uint256","internalType":"uint256"}],"stateMutability":"view"},{"type":"function","name":"getNodeParent","inputs":[{"name":"_user","type":"address","internalType":"address"}],"outputs":[{"name":"","type":"uint256","internalType":"uint256"},{"name":"","type":"address","internalType":"address"}],"stateMutability":"view"},{"type":"function","name":"getNodeParentId","inputs":[{"name":"_id","type":"uint256","internalType":"uint256"}],"outputs":[{"name":"","type":"uint256","internalType":"uint256"}],"stateMutability":"view"},{"type":"function","name":"getNodesCount","inputs":[],"outputs":[{"name":"nodesCount","type":"uint256","internalType":"uint256"}],"stateMutability":"view"},{"type":"function","name":"getRoyalityAmountBatch","inputs":[{"name":"ag","type":"uint256","internalType":"uint256"}],"outputs":[{"name":"royal","type":"uint256[7]","internalType":"uint256[7]"}],"stateMutability":"view"},{"type":"function","name":"getTeamSize","inputs":[{"name":"uid","type":"uint256","internalType":"uint256"}],"outputs":[{"name":"","type":"uint256","internalType":"uint256"}],"stateMutability":"view"},{"type":"function","name":"getTotalTeamSizeWithLevel","inputs":[{"name":"_user","type":"address","internalType":"address"},{"name":"lvl","type":"uint256","internalType":"uint256"}],"outputs":[{"name":"","type":"uint256","internalType":"uint256"},{"name":"","type":"uint256","internalType":"uint256"}],"stateMutability":"view"},{"type":"function","name":"getUserIdToInst","inputs":[{"name":"_id","type":"uint256","internalType":"uint256"}],"outputs":[{"name":"","type":"address","internalType":"address"}],"stateMutability":"view"},{"type":"function","name":"getUserIdToStor","inputs":[{"name":"_id","type":"uint256","internalType":"uint256"}],"outputs":[{"name":"","type":"address","internalType":"address"}],"stateMutability":"view"},{"type":"function","name":"getUserToInst","inputs":[{"name":"node","type":"address","internalType":"address"}],"outputs":[{"name":"","type":"address","internalType":"address"}],"stateMutability":"view"},{"type":"function","name":"getUserToStor","inputs":[{"name":"_user","type":"address","internalType":"address"}],"outputs":[{"name":"","type":"address","internalType":"address"}],"stateMutability":"view"},{"type":"function","name":"getbusiness","inputs":[{"name":"ag","type":"uint256","internalType":"uint256"}],"outputs":[{"name":"","type":"uint256","internalType":"uint256"}],"stateMutability":"view"},{"type":"function","name":"getjoining","inputs":[{"name":"ag","type":"uint256","internalType":"uint256"}],"outputs":[{"name":"","type":"uint256","internalType":"uint256"}],"stateMutability":"view"},{"type":"function","name":"getrankCount","inputs":[{"name":"ag","type":"uint256","internalType":"uint256"},{"name":"rnk","type":"uint256","internalType":"uint256"}],"outputs":[{"name":"count","type":"uint256","internalType":"uint256"}],"stateMutability":"view"},{"type":"function","name":"getwithdrawn","inputs":[{"name":"ag","type":"uint256","internalType":"uint256"}],"outputs":[{"name":"","type":"uint256","internalType":"uint256"}],"stateMutability":"view"},{"type":"function","name":"importBusiness","inputs":[{"name":"_amt","type":"uint256","internalType":"uint256"},{"name":"_ag","type":"uint256","internalType":"uint256"}],"outputs":[],"stateMutability":"nonpayable"},{"type":"function","name":"importJoining","inputs":[{"name":"_cnt","type":"uint256","internalType":"uint256"},{"name":"_ag","type":"uint256","internalType":"uint256"}],"outputs":[],"stateMutability":"nonpayable"},{"type":"function","name":"importOld","inputs":[{"name":"_id","type":"uint256","internalType":"uint256"},{"name":"_limit","type":"uint256","internalType":"uint256"}],"outputs":[],"stateMutability":"payable"},{"type":"function","name":"importRankNBusiness","inputs":[{"name":"from","type":"uint256","internalType":"uint256"},{"name":"to","type":"uint256","internalType":"uint256"}],"outputs":[],"stateMutability":"nonpayable"},{"type":"function","name":"importWithdrawal","inputs":[{"name":"_amt","type":"uint256","internalType":"uint256"},{"name":"_ag","type":"uint256","internalType":"uint256"}],"outputs":[],"stateMutability":"nonpayable"},{"type":"function","name":"isNode","inputs":[{"name":"_id","type":"uint256","internalType":"uint256"}],"outputs":[{"name":"","type":"bool","internalType":"bool"}],"stateMutability":"view"},{"type":"function","name":"isUserExists","inputs":[{"name":"node","type":"address","internalType":"address"}],"outputs":[{"name":"","type":"bool","internalType":"bool"}],"stateMutability":"view"},{"type":"function","name":"join","inputs":[{"name":"_parent","type":"address","internalType":"address"},{"name":"_user","type":"address","internalType":"address"}],"outputs":[{"name":"_id","type":"uint256","internalType":"uint256"},{"name":"_stor","type":"address","internalType":"address"}],"stateMutability":"nonpayable"},{"type":"function","name":"joinImport","inputs":[{"name":"_parent","type":"address","internalType":"address"},{"name":"_user","type":"address","internalType":"address"}],"outputs":[{"name":"_id","type":"uint256","internalType":"uint256"},{"name":"_stor","type":"address","internalType":"address"}],"stateMutability":"nonpayable"},{"type":"function","name":"moveDownline","inputs":[{"name":"_id","type":"uint256","internalType":"uint256"},{"name":"parent","type":"address","internalType":"address"},{"name":"_op","type":"bool","internalType":"bool"}],"outputs":[],"stateMutability":"nonpayable"},{"type":"function","name":"nodes","inputs":[{"name":"","type":"uint256","internalType":"uint256"}],"outputs":[{"name":"","type":"address","internalType":"address"}],"stateMutability":"view"},{"type":"function","name":"owner","inputs":[],"outputs":[{"name":"","type":"address","internalType":"address"}],"stateMutability":"view"},{"type":"function","name":"setDefaultRankCount","inputs":[{"name":"_limit","type":"uint256","internalType":"uint256"}],"outputs":[],"stateMutability":"nonpayable"},{"type":"function","name":"systemAge","inputs":[],"outputs":[{"name":"","type":"uint256","internalType":"uint256"}],"stateMutability":"view"},{"type":"function","name":"updateUsers","inputs":[{"name":"from","type":"address","internalType":"address"},{"name":"to","type":"address","internalType":"address"}],"outputs":[{"name":"_id","type":"uint256","internalType":"uint256"},{"name":"_stor","type":"address","internalType":"address"},{"name":"_parent","type":"address","internalType":"address"}],"stateMutability":"nonpayable"},{"type":"event","name":"EthBurned","inputs":[{"name":"sender","type":"address","indexed":true,"internalType":"address"},{"name":"amount","type":"uint256","indexed":false,"internalType":"uint256"}],"anonymous":false},{"type":"event","name":"EthTransferred","inputs":[{"name":"to","type":"address","indexed":true,"internalType":"address"},{"name":"amount","type":"uint256","indexed":false,"internalType":"uint256"}],"anonymous":false},{"type":"event","name":"HexBaseUpdated","inputs":[{"name":"previousHexBase","type":"address","indexed":true,"internalType":"address"},{"name":"newHexBase","type":"address","indexed":true,"internalType":"address"}],"anonymous":false},{"type":"event","name":"OwnerUpdated","inputs":[{"name":"previousOwner","type":"address","indexed":true,"internalType":"address"},{"name":"newOwner","type":"address","indexed":true,"internalType":"address"}],"anonymous":false},{"type":"error","name":"FailedDeployment","inputs":[]},{"type":"error","name":"InsufficientBalance","inputs":[{"name":"balance","type":"uint256","internalType":"uint256"},{"name":"needed","type":"uint256","internalType":"uint256"}]},{"type":"error","name":"ReentrancyGuardReentrantCall","inputs":[]},{"type":"error","name":"TargetCallFailed","inputs":[{"name":"selector","type":"bytes4","internalType":"bytes4"}]}],"bytecode":{"object":"0x608034620000d157601f6200471038819003918201601f19168301916001600160401b03831184841017620000d657808492602094604052833981010312620000d157516001600160a01b03811690819003620000d15780156200008c5760018060a01b031933816001541617600155600054161760005560016003556040516146239081620000ed8239f35b60405162461bcd60e51b815260206004820152601360248201527f6f776e2e696e76616c69642e68657862617365000000000000000000000000006044820152606490fd5b600080fd5b634e487b7160e01b600052604160045260246000fdfe60806040526004361015610018575b361561001657005b005b60003560e01c80629db65514610307578063033eeffb146103025780630e5fd00b146102fd57806312065fe0146102f85780631bb49f02146102f35780631c53c280146102ee5780631f185d16146102e95780632a687c87146102e45780632fefc0bf146102df57806332ff4eab146102da57806333b59a5b146102d55780633a7b55b8146102d05780633b9b7955146102cb5780633baee0ea146102c6578063419cb27b146102c157806342cc9d57146102bc57806344585097146102b75780634f0f4aa9146102b2578063509222cd146102ad57806350db85d1146102a857806361ea7208146102a3578063629d671e1461029e5780636a8112441461029957806376fe6c451461029457806380f85e331461028f578063849c22ad1461028a578063896c354a146102855780638da5cb5b1461028057806395f72f491461027b57806398b3f21514610276578063a1f7f53914610271578063a87af7691461026c578063a89d693b14610267578063af48452614610262578063b1c490791461025d578063b366335e14610258578063b90306ad14610253578063c54e44b01461024e578063c871372b14610249578063d1e0bbc614610244578063dcb3fc4a1461023f578063e01ad5fd1461023a578063e0a9bc2b14610235578063eb95c66214610230578063f3ca71241461022b578063fd38093b146102265763fdc10bc90361000e5761213c565b6120cc565b6120a0565b612074565b612059565b611fba565b611df9565b611dbf565b611d42565b611ca9565b611bf6565b611ba0565b611a8e565b611a67565b611948565b611853565b611792565b611766565b6116bc565b611693565b611653565b611624565b6115ea565b61159b565b611154565b611117565b6110f9565b611036565b610fe3565b610ef9565b610ec2565b610e93565b610e59565b6109c5565b610974565b610808565b610730565b610686565b61064f565b6105a0565b61047b565b610447565b6103e2565b6103c6565b610377565b61033a565b346103355760203660031901126103355760025460001981019081116103305761001690613ad4565b612398565b600080fd5b3461033557602036600319011261033557600435600052600b6020526020604060002054604051908152f35b6001600160a01b0381160361033557565b3461033557602036600319011261033557602060043561039681610366565b60018060a01b03809116600052600482526040600020546000526007825260046040600020015416604051908152f35b3461033557600036600319011261033557602047604051908152f35b34610335576020366003190112610335576004356103ff81610366565b6001600160a01b0390811660009081526004602090815260408083205483526007825280832060020154808452600583529281902054815193845290931690820152f35b0390f35b34610335576020366003190112610335576004356000526005602052602060018060a01b0360406000205416604051908152f35b34610335576020806003193601126103355760049081359061049c82610366565b60005481906104bb906001600160a01b03165b6001600160a01b031690565b604051634bf9c0ad60e11b815294859182905afa91821561059b5761051261054c9361052e9261044396600092610568575b506040516001600160a01b039091168582019081529092610520918491602090910190565b03601f198101845283612207565b610528614147565b906143a9565b91908061055e575b61053f90614174565b8082518301019101613f5b565b60405190151581529081906020820190565b5081518114610536565b61052091925061058d90863d8811610594575b6105858183612207565b81019061242d565b91906104ed565b503d61057b565b612442565b34610335576040366003190112610335576105c16105bc613f70565b6123ec565b6105ca3361409b565b80156105e8575b6105da9061244e565b610016602435600435613cef565b50600054604051630536340960e21b8152906001600160a01b03906020908390600490829085165afa90811561059b576105da9260009261062f575b5016331490506105d1565b61064891925060203d8111610594576105858183612207565b9038610624565b34610335576020366003190112610335576004356000526007602052602060018060a01b0360056040600020015416604051908152f35b34610335576040366003190112610335576106a26105bc613f70565b6106ab3361409b565b80156106c9575b6106bb9061244e565b610016602435600435613d43565b50600054604051630536340960e21b8152906001600160a01b03906020908390600490829085165afa90811561059b576106bb92600092610710575b5016331490506106b2565b61072991925060203d8111610594576105858183612207565b9038610705565b346103355760403660031901126103355761074c6105bc613f70565b6107553361409b565b8015610773575b6107659061244e565b610016602435600435613dd6565b50600054604051630536340960e21b8152906001600160a01b03906020908390600490829085165afa90811561059b57610765926000926107ba575b50163314905061075c565b6107d391925060203d8111610594576105858183612207565b90386107af565b60e0810192916000915b600783106107f157505050565b6001908251815260208091019201920191906107e4565b34610335576020366003190112610335576104436004356109626109526040519261083284612196565b60e036853761085e61084e826000526009602052604060002090565b6001600052602052604060002090565b548452610888610878826000526009602052604060002090565b6002600052602052604060002090565b5460208501526108b56108a5826000526009602052604060002090565b6003600052602052604060002090565b5460408501526108e26108d2826000526009602052604060002090565b6004600052602052604060002090565b54606085015261090f6108ff826000526009602052604060002090565b6005600052602052604060002090565b54608085015261093c61092c826000526009602052604060002090565b6006600052602052604060002090565b5460a08501526000526009602052604060002090565b6007600052602052604060002090565b5460c0820152604051918291826107da565b34610335576000366003190112610335576000546040516001600160a01b039091168152602090f35b6040906003190112610335576004356109b581610366565b906024356109c281610366565b90565b3461033557610a246109d63661099d565b6109de6123c9565b6109f76109e9612258565b6109f1612270565b33614443565b91610a45610a0e610a06612258565b6109f1612293565b6001600160a01b039584871695871686146122bb565b6000548690610a3d9082166001600160a01b03166104af565b911614612307565b610a50831515612cd7565b6001600160a01b038216600090815260046020526040902054158015610e4e575b610a7a90612d19565b6001600160a01b0381166000908152600460205260409020610a9e90541515612d5c565b610ae16005610ad3610ac28460018060a01b03166000526004602052604060002090565b546000526007602052604060002090565b01546001600160a01b031690565b6040805163880cdc3160e01b6020808301919091526001600160a01b03861660248084019190915282529196919592601f1991610b2891610b23604483612207565b614532565b50610b506104af6004610ad3610ac28860018060a01b03166000526004602052604060002090565b15610d1557610c6d95610bad91610b23610b846004610ad3610ac28a60018060a01b03166000526004602052604060002090565b8a5162e6724f60e21b948101949094523360248501529183604481015b03908101845283612207565b505b6001600160a01b0383811660009081526004602090815260408083205493881683528083208490559282526005905220610c059085905b80546001600160a01b0319166001600160a01b03909216919091179055565b610c4a336004610c2a610ac28860018060a01b03166000526004602052604060002090565b0180546001600160a01b0319166001600160a01b03909216919091179055565b821603610cf7575b506001600160a01b0316600090815260046020526040902090565b54610443610c8a6005610ad3846000526007602052604060002090565b92610cc6610cb96002610ca7866000526007602052604060002090565b01546000526005602052604060002090565b546001600160a01b031690565b90610cd16001600355565b519283526001600160a01b03938416602084015290921660408201529081906060820190565b6001600160a01b031660009081526004602052604081205538610c52565b600054600496908190610d30906001600160a01b03166104af565b895163111ea8c160e21b815298899182905afa96871561059b57610c6d97610d9491600091610e31575b5089516001600160a01b038816848201908152909190610d869083906020015b03868101845283612207565b610d8e612da8565b90614443565b838116151580610e27575b610dac575b505050610baf565b8851634fb2e45d60e01b83820152336024820152610e1e93610b2391610de690610de0816044810103848101835282612207565b84614532565b508a5193630a3e884b60e41b9085015283610ba160248201906007606060808401936000815260006020820152600060408201520152565b50388080610da4565b5080311515610d9f565b610e489150833d8511610594576105858183612207565b38610d5a565b508084168314610a71565b34610335576020366003190112610335576020610e89600435600052600760205260ff6001604060002001541690565b6040519015158152f35b346103355760203660031901126103355760043560005260076020526020600360406000200154604051908152f35b34610335576020366003190112610335576004356000526007602052602060018060a01b0360046040600020015416604051908152f35b3461033557602036600319011261033557600435806000526007602052604060002054600560205261044360018060a01b0380604060002054169360076020526040600020916004600284015493015416610f636005610ad3846000526007602052604060002090565b906003610f9b610f8a6001610f82876000526007602052604060002090565b015460ff1690565b946000526007602052604060002090565b0154604080519788526001600160a01b03988916602089015287019490945286166060860152909416608084015292151560a083015260c082019290925290819060e0820190565b346103355760203660031901126103355760043561100081610366565b60018060a01b031660005260046020526040600020546000526007602052602060ff600160406000200154166040519015158152f35b34610335576110443661099d565b61104f6105bc613f70565b6110583361409b565b801561108c575b9161106c6110719361244e565b61249a565b604080519283526001600160a01b0391909116602083015290f35b50600054604051630536340960e21b81526001600160a01b0393916020908290600490829088165afa801561059b576110719461106c926000926110d9575b50339116149193505061105f565b6110f291925060203d8111610594576105858183612207565b90386110cb565b34610335576000366003190112610335576020600654604051908152f35b346103355760203660031901126103355760043561113481610366565b60018060a01b031660005260046020526020604060002054604051908152f35b34610335576040806003193601126103355760048035906111736123c9565b61119461118f6001610f82856000526007602052604060002090565b612c33565b6111b96111b26104af83610ad3866000526007602052604060002090565b3314612dd7565b6111c16126e3565b6111da6005610ad3846000526007602052604060002090565b906002549284519361123761122960209663015042f960e11b8882015280611215602495863587840160209093929193604081019481520152565b0396610b23601f1998898101845283612207565b8680825183010191016134bc565b9384519561124a818701978851906123bc565b9461125a898801968751906123bc565b9361126b60608901958651906123bc565b9461127c60808a01968751906123bc565b9961129561129060e08c019c8d51906123bc565b613c95565b89516114f3575b805161144a575b5080516113a3575b5084516112ec575b8989610443896112c88a60c08e015190613762565b519151926112d66001600355565b5191825260208201929092529081906040820190565b6000549497939594929392849061130b906001600160a01b03166104af565b8b516313b92d3560e31b815293849182905afa97881561059b57610443986112c89760c0968d6113729660009461137c575b509351935163a9059cbb60e01b9181019190915233948101948552602085019390935291929091610b23918490604001610ba1565b50948293386112b3565b610b2394509061139b610ba192843d8611610594576105858183612207565b94509061133d565b600054839085906113bc906001600160a01b03166104af565b8d51635506ee0b60e11b815292839182905afa91821561059b57611422928d61141693600092611429575b509151915163a9059cbb60e01b88820152338682019081526020810193909352929091610b2391849160400190565b03888101845283612207565b50386112ab565b610b23925061144490893d8b11610594576105858183612207565b916113e7565b600054849086908e90611465906001600160a01b03166104af565b90516330125cf560e01b815292839182905afa91821561059b576114cb928e6114bf936000926114d2575b509151915163a9059cbb60e01b89820152338782019081526020810193909352929091610b2391849160400190565b03898101845283612207565b50386112a3565b610b2392506114ed908a3d8c11610594576105858183612207565b91611490565b600054849086908e9061150e906001600160a01b03166104af565b9051636402742760e01b815292839182905afa801561059b578b611568918f6115749460009261157a575b509151915163a9059cbb60e01b8a820152338882019081526020810193909352929091610b2391849160400190565b038a8101845283612207565b5061129c565b610b239250611595908b3d8d11610594576105858183612207565b91611539565b346103355760203660031901126103355760206004356115ba81610366565b60018060a01b03809116600052600482526040600020546000526007825260056040600020015416604051908152f35b3461033557604036600319011261033557600435600052600860205260406000206024356000526020526020604060002054604051908152f35b346103355760203660031901126103355760043560005260076020526020600260406000200154604051908152f35b3461033557604036600319011261033557600435600052600760205260206116846024356003604060002001612b0c565b90549060031b1c604051908152f35b34610335576000366003190112610335576001546040516001600160a01b039091168152602090f35b34610335576040366003190112610335576116d86105bc613f70565b6116e13361409b565b80156116ff575b6116f19061244e565b610016602435600435613d19565b50600054604051630536340960e21b8152906001600160a01b03906020908390600490829085165afa90811561059b576116f192600092611746575b5016331490506116e8565b61175f91925060203d8111610594576105858183612207565b903861173b565b3461033557602036600319011261033557600435600052600f6020526020604060002054604051908152f35b346103355760003660031901126103355760005460405163d1f956b160e01b815290602090829060049082906001600160a01b03165afa90811561059b576104439161181b9160009161182b575b506040516117ed816121b2565b601381527267657464656c656761746f72436f756e74282960681b6020820152611815612245565b916144c3565b6040519081529081906020820190565b611843915060203d8111610594576105858183612207565b386117e0565b8015150361033557565b346103355760603660031901126103355760243561187081610366565b60443561187c81611849565b6118876105bc613f70565b6118903361409b565b80156118ac575b916118a46100169361244e565b600435612f5d565b50600054604051630536340960e21b81526001600160a01b0393916020908290600490829088165afa801561059b57610016946118a4926000926118f9575b503391161491935050611897565b61191291925060203d8111610594576105858183612207565b90386118eb565b610100810192916000915b6008831061193157505050565b600190825181526020809101920192019190611924565b3461033557602036600319011261033557610443600435611a5561095261196d613c28565b92611994611985826000526008602052604060002090565b60008052602052604060002090565b5484526119ae61084e826000526008602052604060002090565b5460208501526119cb610878826000526008602052604060002090565b5460408501526119e86108a5826000526008602052604060002090565b546060850152611a056108d2826000526008602052604060002090565b546080850152611a226108ff826000526008602052604060002090565b5460a0850152611a3f61092c826000526008602052604060002090565b5460c08501526000526008602052604060002090565b5460e082015260405191829182611919565b34610335576020366003190112610335576020610e89600435611a8981610366565b61409b565b3461033557611b2c611a9f3661099d565b90611aa86123c9565b611af1611ab66109e9612258565b611ac1610a06612258565b906001600160a01b0390611ada908216868316146122bb565b600054610a3d9082166001600160a01b03166104af565b611b1d611b186001610f82610ac28560018060a01b03166000526004602052604060002090565b61234c565b611b2561269d565b3390612928565b611b456119856002546000526008602052604060002090565b611b4f81546123ae565b9055611b59613cc1565b611b726005610ad3836000526007602052604060002090565b90611b7c81612c77565b611b866001600355565b604080519182526001600160a01b03929092166020820152f35b3461033557602036600319011261033557611bb96141b9565b60025410611bd0575b610016600435600254612726565b611bd86141b9565b80600255600019810190811161033057611bf190613ad4565b611bc2565b3461033557602036600319011261033557600054604051630536340960e21b8152906001600160a01b03906020908390600490829085165afa91821561059b57600092611c89575b5033911603611c52576100166004356142ad565b60405162461bcd60e51b815260206004820152600f60248201526e6f776e2e6e6f6e617574682e44414f60881b6044820152606490fd5b611ca291925060203d8111610594576105858183612207565b9038611c3e565b3461033557602036600319011261033557600435611cc681610366565b803b6000611cd382612229565b92611ce16040519485612207565b82845260208401903c602d815110611d0757602a015160405160609190911c8152602090f35b60405162461bcd60e51b81526020600482015260136024820152724e6f742061206d696e696d616c2070726f787960681b6044820152606490fd5b604036600319011261033557600435611d596123c9565b6000908082526007602052611d7760ff600160408520015416612c33565b81526007602052611db660018060a01b036005604084200154166040519062a0e53360e51b6020830152602435602483015260248252610b2382612175565b50600160035580f35b3461033557604036600319011261033557600435600052600a60205260406000206024356000526020526020604060002054604051908152f35b346103355760c036600319011261033557602435600435611e1982610366565b6064359060843590611e296123c9565b611e4561118f6001610f82846000526007602052604060002090565b611e646111b26104af6004610ad3856000526007602052604060002090565b611e6c6126e3565b611e7582613c3d565b611e7e83613c69565b611efd611eef611215611ea06005610ad3866000526007602052604060002090565b604051634996516b60e11b6020808301919091526001600160a01b039099166024820152604480359082015260648101889052608481019690965260a4803590870152969490819060c4820190565b838082518301019101612e23565b9281611f1a575b5050611f109350613536565b6100166001600355565b60005460049291908190611f36906001600160a01b03166104af565b604051635e09dbe760e01b815294859182905afa801561059b57611f1097611f9194600092611f99575b5060405163a9059cbb60e01b9381019390935233602484015260448301939093529091610b23908360648101610ba1565b503880611f04565b610b239250611fb490843d8611610594576105858183612207565b91611f60565b34610335576020806003193601126103355760048035611fd981610366565b60005460405163d1f956b160e01b81526001600160a01b03949093909182918591829088165afa90811561059b576104439461054c9460009361203a575b50604051931681840152825261202c826121b2565b612034614244565b90614487565b612052919350823d8411610594576105858183612207565b9138612017565b34610335576000366003190112610335576020610e89613f70565b3461033557602036600319011261033557600435600052600c6020526020604060002054604051908152f35b3461033557602036600319011261033557600435600052600e6020526020604060002054604051908152f35b3461033557604080600319360112610335576004356120ea81610366565b6001600160a01b0316600081815260046020818152848320548352600b815284832054938352908152838220548252600a81528382206024358352815290839020549251918252810191909152604090f35b346103355760003660031901126103355760206121576141b9565b604051908152f35b634e487b7160e01b600052604160045260246000fd5b6060810190811067ffffffffffffffff82111761219157604052565b61215f565b60e0810190811067ffffffffffffffff82111761219157604052565b6040810190811067ffffffffffffffff82111761219157604052565b6020810190811067ffffffffffffffff82111761219157604052565b610100810190811067ffffffffffffffff82111761219157604052565b90601f8019910116810190811067ffffffffffffffff82111761219157604052565b67ffffffffffffffff811161219157601f01601f191660200190565b60405190612252826121ce565b60008252565b604051612264816121ce565b60008152906000368137565b6040519061227d826121b2565b60078252666f776e6572282960c81b6020830152565b604051906122a0826121b2565b600c82526b67657448657862617365282960a01b6020830152565b156122c257565b60405162461bcd60e51b815260206004820152601760248201527f6e65737465642e696e76616c69642e696e7374616e63650000000000000000006044820152606490fd5b1561230e57565b60405162461bcd60e51b81526020600482015260166024820152756e65737465642e696e76616c69642e6865786261736560501b6044820152606490fd5b1561235357565b60405162461bcd60e51b815260206004820152601860248201527f6e65737465642e706172656e742e6e6f742e65786973747300000000000000006044820152606490fd5b634e487b7160e01b600052601160045260246000fd5b906001820180921161033057565b9190820180921161033057565b6002600354146123da576002600355565b604051633ee5aeb560e01b8152600490fd5b156123f357565b60405162461bcd60e51b81526020600482015260126024820152716f776e2e696e76616c69642e69735361666560701b6044820152606490fd5b9081602091031261033557516109c281610366565b6040513d6000823e3d90fd5b1561245557565b60405162461bcd60e51b815260206004820152601b60248201527f6f776e2e6e6f6e617574682e44414f6f725365637572656261736500000000006044820152606490fd5b612547929161254d6004926124ad6123c9565b6124e06124db6124d76001610f82610ac28860018060a01b03166000526004602052604060002090565b1590565b6128d5565b6124f36124ee600654612919565b600655565b60065495869161251185610be6856000526005602052604060002090565b6001600160a01b038516600090815260046020526040902083905b556001600160a01b0316600090815260046020526040902090565b54612b6a565b61257682612565866000526007602052604060002090565b0180546001600160a01b0319169055565b60005460209061258e906001600160a01b03166104af565b60405163e09d394d60e01b815293849182905afa801561059b576125c16125d79161264194600091612670575b50612a8e565b6005610c2a876000526007602052604060002090565b6125f06005610ad3866000526007602052604060002090565b600054610b2390612609906001600160a01b03166104af565b6040516352902c5960e01b60208201526001600160a01b03918216602482015293166044840152606483018690528260848101610512565b506000828152600760205260409020600501546001600160a01b03169161266781612c77565b91906001600355565b612688915060203d8111610594576105858183612207565b386125bb565b60001981019190821161033057565b6126a56141b9565b600254106126bd575b6126bb6005600254612726565b565b6126c56141b9565b806002556000198101908111610330576126de90613ad4565b6126ae565b6126eb6141b9565b60025410612700575b6126bb60028054612726565b6127086141b9565b8060025560001981019081116103305761272190613ad4565b6126f4565b9061273e611985836000526008602052604060002090565b5415806128cb575b806128c2575b612754575050565b6127709061276a6127648461268e565b9161268e565b90612726565b61278f61198561277f8361268e565b6000526008602052604060002090565b546127a7611985836000526008602052604060002090565b556127b761084e61277f8361268e565b546127cf61084e836000526008602052604060002090565b556127df61087861277f8361268e565b546127f7610878836000526008602052604060002090565b556128076108a561277f8361268e565b5461281f6108a5836000526008602052604060002090565b5561282f6108d261277f8361268e565b546128476108d2836000526008602052604060002090565b556128576108ff61277f8361268e565b5461286f6108ff836000526008602052604060002090565b5561287f61092c61277f8361268e565b5461289761092c836000526008602052604060002090565b556128bf6109526128ad61095261277f8561268e565b54926000526008602052604060002090565b55565b5080151561274c565b5060018211612746565b156128dc57565b60405162461bcd60e51b81526020600482015260156024820152746e65737465642e616c72656164792e65786973747360581b6044820152606490fd5b60001981146103305760010190565b916129c06004926129ab612547956129606124db6124d76001610f82610ac28a60018060a01b03166000526004602052604060002090565b61296e6124ee600654612919565b60065496879161298c87610be6856000526005602052604060002090565b6001600160a01b0387166000908152600460205260409020839061252c565b83610c2a866000526007602052604060002090565b6000546020906129d8906001600160a01b03166104af565b60405163e09d394d60e01b815293849182905afa801561059b57612a0a612a2091612a8a946000916126705750612a8e565b6005610c2a866000526007602052604060002090565b612a396005610ad3856000526007602052604060002090565b600054610b2390612a52906001600160a01b03166104af565b6040516352902c5960e01b60208201526001600160a01b03918216602482015293166044840152606483018590528260848101610512565b5090565b6e5af43d82803e903d91602b57fd5bf390763d602d80600a3d3981f3363d3d373d3d3d363d7300000062ffffff8260881c161760005260781b17602052603760096000f0906001600160a01b03821615612ae457565b60405163b06ebf3d60e01b8152600490fd5b634e487b7160e01b600052603260045260246000fd5b8054821015612b245760005260206000200190600090565b612af6565b90815491680100000000000000008310156121915782612b519160016126bb95018155612b0c565b90919082549060031b91821b91600019901b1916179055565b91906000818152602093600785526040808320926002948386860155806001958681018760ff19825416179055558385905b612bab57505050505050509050565b612c05612bf482888a9414612c0e575b878652600a8c528686208187528c52868620612bd781546123ae565b9055878652600b8c52868620612bed81546123ae565b9055612919565b956000526007602052604060002090565b01549384612b9c565b612c2e856003612c288b6000526007602052604060002090565b01612b29565b612bbb565b15612c3a57565b60405162461bcd60e51b81526020600482015260156024820152746e65737465642e757365722e6e6f7461637469766560581b6044820152606490fd5b806000526007602052612c9460ff60016040600020015416612c33565b6000526007602052612cd460018060a01b03600560406000200154166040519062a0e53360e51b60208301526001602483015260248252610b2382612175565b50565b15612cde57565b60405162461bcd60e51b81526020600482015260136024820152726e65737465642e7a65726f2e6164647265737360681b6044820152606490fd5b15612d2057565b60405162461bcd60e51b81526020600482015260146024820152736e65737465642e7461726765742e65786973747360601b6044820152606490fd5b15612d6357565b60405162461bcd60e51b815260206004820152601760248201527f6e65737465642e736f757263652e6e6f744578697374730000000000000000006044820152606490fd5b60405190612db5826121b2565b601382527255736572546f496e737428616464726573732960681b6020830152565b15612dde57565b60405162461bcd60e51b815260206004820152601b60248201527f6e65737465642e757365722e696e76616c6964696e7374616e636500000000006044820152606490fd5b9190826040910312610335576020825192015190565b15612e4057565b60405162461bcd60e51b815260206004820152601860248201527f6e65737465642e757365722e6e6f742e646574616368656400000000000000006044820152606490fd5b15612e8c57565b60405162461bcd60e51b815260206004820152601760248201527f6e65737465642e706172656e742e6e6f746163746976650000000000000000006044820152606490fd5b15612ed857565b60405162461bcd60e51b815260206004820152601b60248201527f6e65737465642e757365722e616c726564792e646574616368656400000000006044820152606490fd5b8054908115612f475760001991820191612f378383612b0c565b909182549160031b1b1916905555565b634e487b7160e01b600052603160045260246000fd5b919091600192612f7e61118f85610f82856000526007602052604060002090565b826130f15750600292612fa884612f9f846000526007602052604060002090565b01541515612ed1565b6000815b612fd4575b505060006126bb93612fcd836000526007602052604060002090565b0155613222565b60038061300187612fef876000526007602052604060002090565b01546000526007602052604060002090565b01548210156130eb578361303b613031848461302b8b612fef876000526007602052604060002090565b01612b0c565b90549060031b1c90565b14613050575061304a90612919565b81612fac565b60009250806130c78793612b516130ad613031896130a7876130a06126bb9f612fef6130e59c61308e83612fef896000526007602052604060002090565b01956000526007602052604060002090565b015461268e565b90612b0c565b918461302b88612fef8c6000526007602052604060002090565b6130df83612fef876000526007602052604060002090565b01612f1d565b93612fb1565b50612fb1565b6126bb93506131729061311b6002613113856000526007602052604060002090565b015415612e39565b6001600160a01b0381166000908152600460205260409020613158906131539054600052600760205260ff6001604060002001541690565b612e85565b6001600160a01b0316600090815260046020526040902090565b546002613189836000526007602052604060002090565b01556131aa816003612c286002612fef846000526007602052604060002090565b613222565b604051906131bc826121b2565b600e82526d6c766c62732875696e743235362960901b6020830152565b604051906131e6826121b2565b600f82526e6c766c7174792875696e743235362960881b6020830152565b60ff1660ff81146103305760010190565b8015610330576000190190565b6132d160059161324083610ad3836000526007602052604060002090565b604080519161327f6020938061325d868201906000602083019252565b0392613271601f1994858101845283612207565b6132796131af565b906144c3565b916132bb61329b88610ad3886000526007602052604060002090565b8251906132b382610d7a898201906000602083019252565b6132796131d9565b9460029687916000526007602052604060002090565b0154946001978896875b6132ed575b5050505050505050505050565b600f60ff89161115806134b3575b156134ae5788878c868b878b886133236104af82610ad38c6000526007602052604060002090565b613355575b5050505050505061334661334e926000526007602052604060002090565b015497613204565b96896132db565b948894610b23946133df98946115689460036133976133866133ed9e9c610ad38d6000526007602052604060002090565b9a6000526007602052604060002090565b015499549351998a9763393a9f9560e01b908901526024880194919360ff9197969360a09560c088019988526020880152604087015216606085015260808401521515910152565b888082518301019101612e23565b908c1561345f57908a915b80821161341857505061334661334e925b925050878c868b878b88613328565b613423919250612919565b61344b8161343c8d546000526008602052604060002090565b90600052602052604060002090565b61345581546123ae565b9055908a916133f8565b908a915b81811161347857505061334661334e92613409565b6134958161343c6134a69495546000526008602052604060002090565b61349f815461268e565b9055613215565b908a91613463565b6132e0565b508015156132fb565b9061010080838303126103355781601f8401121561033557604051926134e1846121ea565b8391810192831161033557905b8282106134fb5750505090565b81518152602091820191016134ee565b60405190613518826121b2565b600f82526e66726565496e74657276616c73282960881b6020830152565b6000549193929091613550906001600160a01b03166104af565b936004602060409687519283809263cfbffe5360e01b82525afa801561059b5761358e91600091613743575b50613585612258565b9061327961350b565b6000956000945b600f8611158061373a575b15613730578484898860056135c66104af82610ad3896000526007602052604060002090565b6135f7575b505050505060026135e96135f1926000526007602052604060002090565b015495612919565b94613595565b81151580613728575b801561371f575b156135cb5791610b236136af94926105126136336136a096610ad38b6000526007602052604060002090565b938b8b600361364c8d6000526007602052604060002090565b01549460029b8c549251998a9763645d0aa760e11b60208a01526024890193909796959260e0959261010086019986526020860152604085015260006060850152608084015260a083015260c08201520152565b60208082518301019101612e23565b91908815613716575b8a15613705575b8083116136d257505084898888936135cb565b6136db90612919565b6136f48161343c84546000526008602052604060002090565b6136fe81546123ae565b90556136bf565b600483106136bf57995081996136bf565b995081996136b8565b50831515613607565b506000613600565b5050505050509050565b508015156135a0565b61375c915060203d602011610594576105858183612207565b3861357c565b6000805492939261377b906001600160a01b03166104af565b9060409182519586809263cfbffe5360e01b8252602098899160049586915afa801561059b576137b49185916139715750613585612258565b93839484965b600f88111580613968575b1561395c5760056137e76104af82610ad3856000526007602052604060002090565b613814575b50600261380661380e926000526007602052604060002090565b015497612919565b966137ba565b84898c8a8688841596871580613953575b801561394c575b61383d575b505050505050506137ec565b936105126138df96948a94610b2394600361387d61386c6138d19b610ad38b6000526007602052604060002090565b986000526007602052604060002090565b01549760029b8c549251998a9763645d0aa760e11b90890152602488019260e0949197969592610100850198855260006020860152600060408601526060850152608084015260a083015260c08201520152565b8d8082518301019101612e23565b92613943575b8915613933575b8083116139005750898c8a86888a95613831565b61390990612919565b6139228161343c84546000526008602052604060002090565b61392c81546123ae565b90556138ec565b8783106138ec57985081986138ec565b985081986138e5565b508d61382c565b50861515613825565b50505050505050509050565b508015156137c5565b61375c9150893d8b11610594576105858183612207565b1561398f57565b60405162461bcd60e51b81526020600482015260126024820152716e65737465642e696e76616c69642e61676560701b6044820152606490fd5b604051906139d6826121b2565b601882527f6765744261746368526f79616c7479436c6175736573282900000000000000006020830152565b6102a09081818403126103355782601f82011215610335576040805193613a2885612196565b849383019281841161033557935b838510613a4557505050505090565b606085830312610335578251606091613a5d82612175565b8651825260209182880151838201528588015186820152815201940193613a36565b906007811015612b245760051b0190565b908160640291606483040361033057565b8181029291811591840414171561033057565b8115613abe570490565b634e487b7160e01b600052601260045260246000fd5b613adf811515613988565b600054613af4906001600160a01b03166104af565b90604051809263cfbffe5360e01b825281600460209586935afa90811561059b57613b4a91613b3c91600091613c0b575b50613b2e6139c9565b613b36612245565b9161437e565b838082518301019101613a02565b613b5e82600052600c602052604060002090565b5460015b6007811115613b72575050505050565b80613b8e613bf79261343c876000526008602052604060002090565b548015613c0557613ba7613ba18361268e565b86613a7f565b51878151928315613bfc57613bce613bd392613bc6613bd9968a613aa1565b940151613a90565b613aa1565b90613ab4565b613bf18261343c886000526009602052604060002090565b55612919565b613b62565b50505050612919565b50612919565b613c229150853d8711610594576105858183612207565b38613b25565b60405190613c35826121ea565b610100368337565b60025480600052600c60205260406000205491820180921161033057600052600c602052604060002055565b60025480600052600d60205260406000205491820180921161033057600052600d602052604060002055565b60025480600052600e60205260406000205491820180921161033057600052600e602052604060002055565b60025480600052600f602052604060002054906001820180921161033057600052600f602052604060002055565b9080600052600c60205260406000205491820180921161033057600052600c602052604060002055565b9080600052600e60205260406000205491820180921161033057600052600e602052604060002055565b9080600052600f60205260406000205491820180921161033057600052600f602052604060002055565b60405190613d7a826121b2565b6014825273676574627573696e6573732875696e743235362960601b6020830152565b60405190613daa826121b2565b601d82527f67657472616e6b436f756e742875696e743235362c75696e74323536290000006020830152565b60008054909190613def906001600160a01b03166104af565b91604092835192839163111ea8c160e21b835282600460209485935afa93841561059b578394613ef0575b505b85811115613e2c57505050505050565b8451828101828152819003808252601f1991613e5d91613e4f9060200182612207565b613e57613d6d565b876144c3565b613e7c613e7484600052600c602052604060002090565b9182546123bc565b9055835b60088110613e98575050613e9390612919565b613e1c565b865184810184815260208101839052613eeb9291613ed391613ec590829060400103868101835282612207565b613ecd613d9d565b896144c3565b613bf18261343c876000526008602052604060002090565b613e80565b613f08919450823d8411610594576105858183612207565b9238613e1a565b15613f1657565b60405162461bcd60e51b815260206004820152601960248201527f6f776e2e7361666567756172642e63616c6c2e6661696c6564000000000000006044820152606490fd5b9081602091031261033557516109c281611849565b600054604051634bf9c0ad60e11b8152906020908190839060049082906001600160a01b03165afa91821561059b576109c292613fe691600091614001575b50604051613fbc816121b2565b6008815267697353616665282960c01b8482015260405191613fdd836121ce565b600083526143a9565b919080613ff7575b61053f90613f0f565b5081518114613fee565b6140189150833d8511610594576105858183612207565b38613faf565b6040519061402b826121b2565b601582527469735365637572654261736528616464726573732960581b6020830152565b1561405657565b60405162461bcd60e51b815260206004820152601a60248201527f6f776e2e736563757265626173652e63616c6c2e6661696c65640000000000006044820152606490fd5b6000546001600160a01b0316604051918291634bf9c0ad60e11b835282600460209485935afa92831561059b576109c2936141099261051292600092614124575b506040516001600160a01b039091168582019081529092614101918491602090910190565b61052861401e565b91908061411a575b61053f9061404f565b5081518114614111565b61410191925061414090863d8811610594576105858183612207565b91906140dc565b60405190614154826121b2565b601182527069735369676e657228616464726573732960781b6020830152565b1561417b57565b60405162461bcd60e51b81526020600482015260166024820152751bdddb8b9cda59db995c8b98d85b1b0b99985a5b195960521b6044820152606490fd5b60005460405163111ea8c160e21b815290602090829060049082906001600160a01b03165afa801561059b576109c291600091614226575b506040516141fe816121b2565b6005815264616765282960d81b60208201526040519161421d836121ce565b600083526144c3565b61423e915060203d8111610594576105858183612207565b386141f1565b60405190614251826121b2565b601882527f697364656c656761746f724e6f646528616464726573732900000000000000006020830152565b3d156142a8573d9061428e82612229565b9161429c6040519384612207565b82523d6000602084013e565b606090565b600080546040516311be646b60e21b815290602090829060049082906001600160a01b03165afa90811561059b578284819382938391614360575b505af16142f361427d565b50156143295760405190815233907fcdcc745fe377b103b45fa0cec23ae3ef93d6fc6a84a01f0d18c40b354dd1d5d890602090a2565b60405162461bcd60e51b815260206004820152600f60248201526e1bdddb8b989d5c9b8b99985a5b1959608a1b6044820152606490fd5b614378915060203d8111610594576105858183612207565b386142e8565b9061438992916143a9565b9060009015614396575090565b60405191506143a4826121ce565b815290565b9190823b1561442a578051906020918263ffffffff60e01b92012016916040519180830193845281519160005b83811061441657505050918161440360248260009795968897018783820152036004810184520182612207565b5191620dbba0fa61441261427d565b9091565b8181018301518582016024015282016143d6565b50505060009060405161443c816121ce565b6000815290565b9291614451916000946143a9565b908061447c575b61445f5750565b90915060208180518101031261033557602001516104af81610366565b506020815114614458565b9291614495916000946143a9565b90806144b8575b6144a35750565b6109c291925060208082518301019101613f5b565b50602081511461449c565b92916144d1916000946143a9565b90806144f6575b6144df5750565b909150602081805181010312610335576020015190565b5060208151146144d8565b906020825192015163ffffffff60e01b90818116936004811061452357505050565b60040360031b82901b16169150565b6001600160a01b038116156145b357600080918351908260208601915af19061455961427d565b9115614563575090565b8051600091906004116145ad5761457a9150614501565b81511561458a5750805190602001fd5b604051630870274d60e21b81526001600160e01b03199091166004820152602490fd5b5061457a565b60405162461bcd60e51b81526020600482015260126024820152711bdddb8b9a5b9d985b1a590b9d185c99d95d60721b6044820152606490fdfea2646970667358221220d2f4ea8c0a06cce693258d06c86a0e3c4b1e2686f3accda0a35346cb6236672564736f6c63430008140033","linkReferences":{}},"methodIdentifiers":{"Burn(uint256)":"b90306ad","UserToId(address)":"629d671e","_delegatorCount()":"a1f7f539","_getImplementation(address)":"c54e44b0","_isDelegatorNode(address)":"e01ad5fd","_isSafe()":"e0a9bc2b","_isSecureBase(address)":"af484526","_isSigner(address)":"1f185d16","addBusiness(uint256,address,uint256,uint256,uint256,uint256)":"dcb3fc4a","claimIncome(uint256,uint256)":"6a811244","compileRoyality(uint256)":"009db655","getBalance()":"12065fe0","getBatchRankCounts(uint256)":"a89d693b","getDownlineCountByLevel(uint256,uint256)":"d1e0bbc6","getHexbase()":"3b9b7955","getNode(uint256)":"4f0f4aa9","getNodeChild(uint256,uint256)":"896c354a","getNodeDirectsCount(uint256)":"42cc9d57","getNodeParent(address)":"1bb49f02","getNodeParentId(uint256)":"849c22ad","getNodesCount()":"61ea7208","getRoyalityAmountBatch(uint256)":"3a7b55b8","getTeamSize(uint256)":"033eeffb","getTotalTeamSizeWithLevel(address,uint256)":"fd38093b","getUserIdToInst(uint256)":"44585097","getUserIdToStor(uint256)":"2fefc0bf","getUserToInst(address)":"0e5fd00b","getUserToStor(address)":"76fe6c45","getbusiness(uint256)":"eb95c662","getjoining(uint256)":"98b3f215","getrankCount(uint256,uint256)":"80f85e33","getwithdrawn(uint256)":"f3ca7124","importBusiness(uint256,uint256)":"2a687c87","importJoining(uint256,uint256)":"32ff4eab","importOld(uint256,uint256)":"c871372b","importRankNBusiness(uint256,uint256)":"33b59a5b","importWithdrawal(uint256,uint256)":"95f72f49","isNode(uint256)":"419cb27b","isUserExists(address)":"509222cd","join(address,address)":"b1c49079","joinImport(address,address)":"50db85d1","moveDownline(uint256,address,bool)":"a87af769","nodes(uint256)":"1c53c280","owner()":"8da5cb5b","setDefaultRankCount(uint256)":"b366335e","systemAge()":"fdc10bc9","updateUsers(address,address)":"3baee0ea"},"id":55}