{"abi":[{"type":"constructor","inputs":[{"name":"_hex","type":"address","internalType":"address"}],"stateMutability":"nonpayable"},{"type":"fallback","stateMutability":"payable"},{"type":"receive","stateMutability":"payable"},{"type":"function","name":"Burn","inputs":[{"name":"amount","type":"uint256","internalType":"uint256"}],"outputs":[],"stateMutability":"nonpayable"},{"type":"function","name":"UserToId","inputs":[{"name":"","type":"address","internalType":"address"}],"outputs":[{"name":"","type":"uint256","internalType":"uint256"}],"stateMutability":"view"},{"type":"function","name":"_delegatorCount","inputs":[],"outputs":[{"name":"","type":"uint256","internalType":"uint256"}],"stateMutability":"view"},{"type":"function","name":"_getImplementation","inputs":[{"name":"clone","type":"address","internalType":"address"}],"outputs":[{"name":"impl","type":"address","internalType":"address"}],"stateMutability":"view"},{"type":"function","name":"_isDelegatorNode","inputs":[{"name":"sender","type":"address","internalType":"address"}],"outputs":[{"name":"","type":"bool","internalType":"bool"}],"stateMutability":"view"},{"type":"function","name":"_isSafe","inputs":[],"outputs":[{"name":"","type":"bool","internalType":"bool"}],"stateMutability":"view"},{"type":"function","name":"_isSecureBase","inputs":[{"name":"sender","type":"address","internalType":"address"}],"outputs":[{"name":"","type":"bool","internalType":"bool"}],"stateMutability":"view"},{"type":"function","name":"_isSigner","inputs":[{"name":"sender","type":"address","internalType":"address"}],"outputs":[{"name":"","type":"bool","internalType":"bool"}],"stateMutability":"view"},{"type":"function","name":"addBusiness","inputs":[{"name":"_id","type":"uint256","internalType":"uint256"},{"name":"_paramAdd","type":"address","internalType":"address"},{"name":"_tokenid","type":"uint256","internalType":"uint256"},{"name":"_qty","type":"uint256","internalType":"uint256"},{"name":"_msgValue","type":"uint256","internalType":"uint256"},{"name":"_type","type":"uint256","internalType":"uint256"}],"outputs":[],"stateMutability":"nonpayable"},{"type":"function","name":"claimIncome","inputs":[{"name":"_id","type":"uint256","internalType":"uint256"},{"name":"_maxint","type":"uint256","internalType":"uint256"}],"outputs":[{"name":"","type":"uint256","internalType":"uint256"},{"name":"","type":"uint256","internalType":"uint256"}],"stateMutability":"nonpayable"},{"type":"function","name":"closemdrequest","inputs":[{"name":"uid","type":"uint256","internalType":"uint256"}],"outputs":[],"stateMutability":"nonpayable"},{"type":"function","name":"compileRoyality","inputs":[{"name":"prevAge","type":"uint256","internalType":"uint256"}],"outputs":[],"stateMutability":"nonpayable"},{"type":"function","name":"createmdrequest","inputs":[{"name":"uid","type":"uint256","internalType":"uint256"},{"name":"newpid","type":"uint256","internalType":"uint256"}],"outputs":[],"stateMutability":"nonpayable"},{"type":"function","name":"getBalance","inputs":[],"outputs":[{"name":"","type":"uint256","internalType":"uint256"}],"stateMutability":"view"},{"type":"function","name":"getBatchRankCounts","inputs":[{"name":"ag","type":"uint256","internalType":"uint256"}],"outputs":[{"name":"counts","type":"uint256[8]","internalType":"uint256[8]"}],"stateMutability":"view"},{"type":"function","name":"getDownlineCountByLevel","inputs":[{"name":"uid","type":"uint256","internalType":"uint256"},{"name":"lvl","type":"uint256","internalType":"uint256"}],"outputs":[{"name":"","type":"uint256","internalType":"uint256"}],"stateMutability":"view"},{"type":"function","name":"getHexbase","inputs":[],"outputs":[{"name":"","type":"address","internalType":"address"}],"stateMutability":"view"},{"type":"function","name":"getNode","inputs":[{"name":"_id","type":"uint256","internalType":"uint256"}],"outputs":[{"name":"_i","type":"uint256","internalType":"uint256"},{"name":"_node","type":"address","internalType":"address"},{"name":"_pid","type":"uint256","internalType":"uint256"},{"name":"_inst","type":"address","internalType":"address"},{"name":"_stor","type":"address","internalType":"address"},{"name":"_active","type":"bool","internalType":"bool"},{"name":"_direcCount","type":"uint256","internalType":"uint256"}],"stateMutability":"view"},{"type":"function","name":"getNodeChild","inputs":[{"name":"_id","type":"uint256","internalType":"uint256"},{"name":"inx","type":"uint256","internalType":"uint256"}],"outputs":[{"name":"child","type":"uint256","internalType":"uint256"}],"stateMutability":"view"},{"type":"function","name":"getNodeDirectsCount","inputs":[{"name":"_id","type":"uint256","internalType":"uint256"}],"outputs":[{"name":"count","type":"uint256","internalType":"uint256"}],"stateMutability":"view"},{"type":"function","name":"getNodeParent","inputs":[{"name":"_user","type":"address","internalType":"address"}],"outputs":[{"name":"","type":"uint256","internalType":"uint256"},{"name":"","type":"address","internalType":"address"}],"stateMutability":"view"},{"type":"function","name":"getNodeParentId","inputs":[{"name":"_id","type":"uint256","internalType":"uint256"}],"outputs":[{"name":"","type":"uint256","internalType":"uint256"}],"stateMutability":"view"},{"type":"function","name":"getNodesCount","inputs":[],"outputs":[{"name":"nodesCount","type":"uint256","internalType":"uint256"}],"stateMutability":"view"},{"type":"function","name":"getRoyalityAmountBatch","inputs":[{"name":"ag","type":"uint256","internalType":"uint256"}],"outputs":[{"name":"royal","type":"uint256[7]","internalType":"uint256[7]"}],"stateMutability":"view"},{"type":"function","name":"getTeamSize","inputs":[{"name":"uid","type":"uint256","internalType":"uint256"}],"outputs":[{"name":"","type":"uint256","internalType":"uint256"}],"stateMutability":"view"},{"type":"function","name":"getTotalTeamSizeWithLevel","inputs":[{"name":"_user","type":"address","internalType":"address"},{"name":"lvl","type":"uint256","internalType":"uint256"}],"outputs":[{"name":"","type":"uint256","internalType":"uint256"},{"name":"","type":"uint256","internalType":"uint256"}],"stateMutability":"view"},{"type":"function","name":"getUserIdToInst","inputs":[{"name":"_id","type":"uint256","internalType":"uint256"}],"outputs":[{"name":"","type":"address","internalType":"address"}],"stateMutability":"view"},{"type":"function","name":"getUserIdToStor","inputs":[{"name":"_id","type":"uint256","internalType":"uint256"}],"outputs":[{"name":"","type":"address","internalType":"address"}],"stateMutability":"view"},{"type":"function","name":"getUserToInst","inputs":[{"name":"node","type":"address","internalType":"address"}],"outputs":[{"name":"","type":"address","internalType":"address"}],"stateMutability":"view"},{"type":"function","name":"getUserToStor","inputs":[{"name":"_user","type":"address","internalType":"address"}],"outputs":[{"name":"","type":"address","internalType":"address"}],"stateMutability":"view"},{"type":"function","name":"getbusiness","inputs":[{"name":"ag","type":"uint256","internalType":"uint256"}],"outputs":[{"name":"","type":"uint256","internalType":"uint256"}],"stateMutability":"view"},{"type":"function","name":"getjoining","inputs":[{"name":"ag","type":"uint256","internalType":"uint256"}],"outputs":[{"name":"","type":"uint256","internalType":"uint256"}],"stateMutability":"view"},{"type":"function","name":"getrankCount","inputs":[{"name":"ag","type":"uint256","internalType":"uint256"},{"name":"rnk","type":"uint256","internalType":"uint256"}],"outputs":[{"name":"count","type":"uint256","internalType":"uint256"}],"stateMutability":"view"},{"type":"function","name":"getwithdrawn","inputs":[{"name":"ag","type":"uint256","internalType":"uint256"}],"outputs":[{"name":"","type":"uint256","internalType":"uint256"}],"stateMutability":"view"},{"type":"function","name":"importBusiness","inputs":[{"name":"_amt","type":"uint256","internalType":"uint256"},{"name":"_ag","type":"uint256","internalType":"uint256"}],"outputs":[],"stateMutability":"nonpayable"},{"type":"function","name":"importJoining","inputs":[{"name":"_cnt","type":"uint256","internalType":"uint256"},{"name":"_ag","type":"uint256","internalType":"uint256"}],"outputs":[],"stateMutability":"nonpayable"},{"type":"function","name":"importOld","inputs":[{"name":"_id","type":"uint256","internalType":"uint256"},{"name":"_limit","type":"uint256","internalType":"uint256"}],"outputs":[],"stateMutability":"payable"},{"type":"function","name":"importRankNBusiness","inputs":[{"name":"from","type":"uint256","internalType":"uint256"},{"name":"to","type":"uint256","internalType":"uint256"}],"outputs":[],"stateMutability":"nonpayable"},{"type":"function","name":"importWithdrawal","inputs":[{"name":"_amt","type":"uint256","internalType":"uint256"},{"name":"_ag","type":"uint256","internalType":"uint256"}],"outputs":[],"stateMutability":"nonpayable"},{"type":"function","name":"isNode","inputs":[{"name":"_id","type":"uint256","internalType":"uint256"}],"outputs":[{"name":"","type":"bool","internalType":"bool"}],"stateMutability":"view"},{"type":"function","name":"isUserExists","inputs":[{"name":"node","type":"address","internalType":"address"}],"outputs":[{"name":"","type":"bool","internalType":"bool"}],"stateMutability":"view"},{"type":"function","name":"join","inputs":[{"name":"_parent","type":"address","internalType":"address"},{"name":"_user","type":"address","internalType":"address"}],"outputs":[{"name":"_id","type":"uint256","internalType":"uint256"},{"name":"_stor","type":"address","internalType":"address"}],"stateMutability":"nonpayable"},{"type":"function","name":"joinImport","inputs":[{"name":"_parent","type":"address","internalType":"address"},{"name":"_user","type":"address","internalType":"address"}],"outputs":[{"name":"_id","type":"uint256","internalType":"uint256"},{"name":"_stor","type":"address","internalType":"address"}],"stateMutability":"nonpayable"},{"type":"function","name":"moveDownline","inputs":[{"name":"uid","type":"uint256","internalType":"uint256"}],"outputs":[],"stateMutability":"nonpayable"},{"type":"function","name":"nodes","inputs":[{"name":"","type":"uint256","internalType":"uint256"}],"outputs":[{"name":"","type":"address","internalType":"address"}],"stateMutability":"view"},{"type":"function","name":"owner","inputs":[],"outputs":[{"name":"","type":"address","internalType":"address"}],"stateMutability":"view"},{"type":"function","name":"setDefaultRankCount","inputs":[{"name":"_limit","type":"uint256","internalType":"uint256"}],"outputs":[],"stateMutability":"nonpayable"},{"type":"function","name":"setMoveDownlineApproval","inputs":[{"name":"uid","type":"uint256","internalType":"uint256"},{"name":"newpid","type":"uint256","internalType":"uint256"}],"outputs":[],"stateMutability":"nonpayable"},{"type":"function","name":"systemAge","inputs":[],"outputs":[{"name":"","type":"uint256","internalType":"uint256"}],"stateMutability":"view"},{"type":"function","name":"tokenImport","inputs":[{"name":"_id","type":"uint256","internalType":"uint256"},{"name":"mintid","type":"uint256","internalType":"uint256"}],"outputs":[],"stateMutability":"nonpayable"},{"type":"function","name":"updateUsers","inputs":[{"name":"from","type":"address","internalType":"address"},{"name":"to","type":"address","internalType":"address"}],"outputs":[{"name":"_id","type":"uint256","internalType":"uint256"},{"name":"_stor","type":"address","internalType":"address"},{"name":"_parent","type":"address","internalType":"address"}],"stateMutability":"nonpayable"},{"type":"event","name":"EthBurned","inputs":[{"name":"sender","type":"address","indexed":true,"internalType":"address"},{"name":"amount","type":"uint256","indexed":false,"internalType":"uint256"}],"anonymous":false},{"type":"event","name":"EthTransferred","inputs":[{"name":"to","type":"address","indexed":true,"internalType":"address"},{"name":"amount","type":"uint256","indexed":false,"internalType":"uint256"}],"anonymous":false},{"type":"event","name":"HexBaseUpdated","inputs":[{"name":"previousHexBase","type":"address","indexed":true,"internalType":"address"},{"name":"newHexBase","type":"address","indexed":true,"internalType":"address"}],"anonymous":false},{"type":"event","name":"OwnerUpdated","inputs":[{"name":"previousOwner","type":"address","indexed":true,"internalType":"address"},{"name":"newOwner","type":"address","indexed":true,"internalType":"address"}],"anonymous":false},{"type":"error","name":"FailedDeployment","inputs":[]},{"type":"error","name":"InsufficientBalance","inputs":[{"name":"balance","type":"uint256","internalType":"uint256"},{"name":"needed","type":"uint256","internalType":"uint256"}]},{"type":"error","name":"ReentrancyGuardReentrantCall","inputs":[]},{"type":"error","name":"TargetCallFailed","inputs":[{"name":"selector","type":"bytes4","internalType":"bytes4"}]}],"bytecode":{"object":"0x608034620000d157601f620052e138819003918201601f19168301916001600160401b03831184841017620000d657808492602094604052833981010312620000d157516001600160a01b03811690819003620000d15780156200008c5760018060a01b031933816001541617600155600054161760005560016003556040516151f49081620000ed8239f35b60405162461bcd60e51b815260206004820152601360248201527f6f776e2e696e76616c69642e68657862617365000000000000000000000000006044820152606490fd5b600080fd5b634e487b7160e01b600052604160045260246000fdfe60806040526004361015610018575b361561001657005b005b60003560e01c80629db65514610347578063033eeffb146103425780630e5fd00b1461033d57806312065fe0146103385780631bb49f02146103335780631c53c2801461032e5780631f185d16146103295780632a687c87146103245780632fefc0bf1461031f578063307673e81461031a57806332ff4eab1461031557806333b59a5b146103105780633a7b55b81461030b5780633b9b7955146103065780633baee0ea14610301578063419cb27b146102fc57806342cc9d57146102f757806344585097146102f25780634f0f4aa9146102ed578063509222cd146102e857806350db85d1146102e357806361ea7208146102de578063629d671e146102d957806365d2fbd3146102d45780636a811244146102cf5780636fb412ab146102ca57806376fe6c45146102c55780637bb98498146102c057806380f85e33146102bb578063849c22ad146102b6578063896c354a146102b15780638da5cb5b146102ac57806395f72f49146102a757806398b3f215146102a2578063a1f7f5391461029d578063a89d693b14610298578063af48452614610293578063b1c490791461028e578063b366335e14610289578063b90306ad14610284578063c54e44b01461027f578063c871372b1461027a578063d1e0bbc614610275578063dcb3fc4a14610270578063e01ad5fd1461026b578063e0a9bc2b14610266578063eb95c66214610261578063eb9e9e2c1461025c578063f3ca712414610257578063fd38093b146102525763fdc10bc90361000e57612910565b6128a2565b612876565b6126c8565b61269c565b612681565b6125e2565b61244d565b612413565b612396565b6122fa565b612247565b61219d565b612071565b61204a565b611f83565b611e9d565b611e71565b611dc7565b611d9e565b611d5e565b611d2f565b611cf5565b611c4b565b611bfc565b611ab5565b6115dc565b6112c0565b611283565b61124b565b611193565b611140565b611077565b611040565b611011565b610fe9565b610b64565b610b13565b6109f4565b61091c565b610872565b6107c7565b610790565b6106e6565b6105f3565b6105bf565b6104ea565b6104b5565b610466565b61040a565b3461040557602036600319011261040557610368610363614b70565b612c3e565b61037133614c98565b8015610389575b61038190612ca0565b6100166145a2565b50600054604051630536340960e21b8152906001600160a01b03906020908390600490829085165afa90811561040057610381926000926103d0575b501633149050610378565b6103f291925060203d81116103f9575b6103ea81836129ba565b810190612c7f565b90386103c5565b503d6103e0565b612c94565b600080fd5b3461040557602036600319011261040557600435600052600b6020526020604060002054604051908152f35b6001600160a01b031690565b6001600160a01b0381160361040557565b6001600160a01b03909116815260200190565b3461040557602036600319011261040557602060043561048581610442565b60018060a01b03809116600052600482526040600020546000526007825260046040600020015416604051908152f35b3461040557600036600319011261040557602047604051908152f35b9081526001600160a01b03909116602082015260400190565b346104055760203660031901126104055760043561050781610442565b60018060a01b038060009216825260046020526040822054825260076020526040600281842001549283815260056020522054169061054b604051928392836104d1565b0390f35b6000526010602052604060002090565b6000526009602052604060002090565b6000526007602052604060002090565b6000526005602052604060002090565b6000526008602052604060002090565b600052600a602052604060002090565b600052600b602052604060002090565b34610405576020366003190112610405576004356000526005602052602060018060a01b0360406000205416604051908152f35b34610405576020806003193601126104055760049081359061061482610442565b80610628610623600054610436565b610436565b604051634bf9c0ad60e11b815294859182905afa9182156104005761066d6106a7936106899261054b966000926106c3575b5061067b90604051938491878301610453565b03601f1981018452836129ba565b610683614d3b565b90614f98565b9190806106b9575b61069a90614d68565b8082518301019101614b5c565b60405190151581529081906020820190565b5081518114610691565b61067b9192506106df90863d88116103f9576103ea81836129ba565b919061065a565b3461040557604036600319011261040557610702610363614b70565b61070b33614c98565b8015610729575b61071b90612ca0565b610016602435600435614917565b50600054604051630536340960e21b8152906001600160a01b03906020908390600490829085165afa9081156104005761071b92600092610770575b501633149050610712565b61078991925060203d81116103f9576103ea81836129ba565b9038610765565b34610405576020366003190112610405576004356000526007602052602060018060a01b0360056040600020015416604051908152f35b346104055760203660031901126104055760043560009033825260046020526107fb6107f6604084205461482a565b613703565b808252601060205260ff600260408420015460081c1615610837576108226108349161054f565b60026000918281558260018201550155565b80f35b60405162461bcd60e51b81526020600482015260136024820152721b995cdd19590b9c995c4b9b9bdd195e1a5cdd606a1b6044820152606490fd5b346104055760403660031901126104055761088e610363614b70565b61089733614c98565b80156108b5575b6108a790612ca0565b61001660243560043561496b565b50600054604051630536340960e21b8152906001600160a01b03906020908390600490829085165afa908115610400576108a7926000926108fc575b50163314905061089e565b61091591925060203d81116103f9576103ea81836129ba565b90386108f1565b3461040557604036600319011261040557610938610363614b70565b61094133614c98565b801561095f575b61095190612ca0565b6100166024356004356149fe565b50600054604051630536340960e21b8152906001600160a01b03906020908390600490829085165afa90811561040057610951926000926109a6575b501633149050610948565b6109bf91925060203d81116103f9576103ea81836129ba565b903861099b565b60e0810192916000915b600783106109dd57505050565b6001908251815260208091019201920191906109d0565b346104055760203660031901126104055761054b600435610b01610af160405192610a1e84612969565b60e0368537610a3f610a2f8261055f565b6001600052602052604060002090565b548452610a5e610a4e8261055f565b6002600052602052604060002090565b546020850152610a80610a708261055f565b6003600052602052604060002090565b546040850152610aa2610a928261055f565b6004600052602052604060002090565b546060850152610ac4610ab48261055f565b6005600052602052604060002090565b546080850152610ae6610ad68261055f565b6006600052602052604060002090565b5460a085015261055f565b6007600052602052604060002090565b5460c0820152604051918291826109c6565b34610405576000366003190112610405576000546040516001600160a01b039091168152602090f35b604090600319011261040557600435610b5481610442565b90602435610b6181610442565b90565b3461040557610bc6610b7536610b3c565b610b7d612c1b565b610b96610b88612a0b565b610b90612a23565b33615016565b90610baa610ba2612a0b565b610b90612a46565b6001600160a01b03828116959194909390919084168614612a6e565b610be460009484610bdc61062382895416610436565b911614612ab4565b610bef851515613609565b610bf882611269565b54158015610fde575b610c0a9061364b565b610c1e610c1682611269565b54151561368e565b610c3b6005610c35610c2f84611269565b5461056f565b01612b40565b9360409182519060209763880cdc3160e01b89840152610c7d60249380610c6489878301610453565b0399610c78601f199b8c81018452836129ba565b615103565b50600496610c9461062389610c35610c2f87611269565b15610ece57610cd6610cac89610c35610c2f87611269565b875162e6724f60e21b8d82015290610c7882610cca338a8301610453565b038d81018452836129ba565b505b610ce183611269565b54610ceb88611269565b55610d0787610d02610cfc86611269565b5461057f565b6131cf565b610d1e3389610d18610c2f8b611269565b016131cf565b821614159485610ebe575b610d3281611269565b5497610d426005610c358b61056f565b99610d60610d5b6002610d548d61056f565b015461057f565b612b40565b9715610e3a5780610d746106238854610436565b88516314ac1b5960e21b81529a8b9182905afa9283156104005761054b99610de19794610e13575b50875163e3d1d5bf60e01b928101929092526001600160a01b03948516958201958652909316602085015291929091610c789184906040015b039081018452836129ba565b505b610ded6001600355565b519283526001600160a01b03938416602084015290921660408201529081906060820190565b610c78945090610e32610dd592843d86116103f9576103ea81836129ba565b945090610d9c565b809250610e4a6106238754610436565b87516314ac1b5960e21b8152998a9182905afa9182156104005761054b98610e939693610e99575b50610dd5610c7893948851968793639498d88b60e01b908501528301610453565b50610de3565b610c789350610eb7610dd591833d85116103f9576103ea81836129ba565b9350610e72565b83610ec883611269565b55610d29565b878a610edd6106238854610436565b885163111ea8c160e21b815292839182905afa90811561040057610f269185918891610fc1575b50610f188d610cca8b519485928301610453565b610f206136d4565b90615016565b818116151580610fb7575b610f3c575b50610cd8565b8651634fb2e45d60e01b8c820152610fb09190610f7690610f708d82610f64338c8301610453565b039081018352826129ba565b82615103565b50875190630a3e884b60e41b8d830152610c7882610cca898201906007606060808401936000815260006020820152600060408201520152565b5038610f36565b5080311515610f31565b610fd891508d803d106103f9576103ea81836129ba565b38610f04565b508083168514610c01565b3461040557602036600319011261040557602061100760043561482a565b6040519015158152f35b346104055760203660031901126104055760043560005260076020526020600360406000200154604051908152f35b34610405576020366003190112610405576004356000526007602052602060018060a01b0360046040600020015416604051908152f35b3461040557602036600319011261040557600435806000526007602052604060002054600560205261054b60018060a01b03806040600020541693600760205260406000209160046002840154930154166110d66005610c358461056f565b9060036110f86110f260016110ea8761056f565b015460ff1690565b9461056f565b0154604080519788526001600160a01b03988916602089015287019490945286166060860152909416608084015292151560a083015260c082019290925290819060e0820190565b346104055760203660031901126104055760043561115d81610442565b60018060a01b031660005260046020526040600020546000526007602052602060ff600160406000200154166040519015158152f35b34610405576111a136610b3c565b6111ac610363614b70565b6111b533614c98565b80156111de575b916111c96111ce93612ca0565b612cea565b9061054b604051928392836104d1565b50600054604051630536340960e21b81526001600160a01b0393916020908290600490829088165afa8015610400576111ce946111c99260009261122b575b5033911614919350506111bc565b61124491925060203d81116103f9576103ea81836129ba565b903861121d565b34610405576000366003190112610405576020600654604051908152f35b6001600160a01b0316600090815260046020526040902090565b34610405576020366003190112610405576004356112a081610442565b60018060a01b031660005260046020526020604060002054604051908152f35b346104055760203660031901126104055760043560016112eb6112e6826110ea8561056f565b613565565b6112f48261054f565b906002908183019260ff8454818160081c16806115c2575b61131590613ae3565b60101c166114c557506113348261132b8661056f565b01541515613b6f565b6000815b6113dc575b50610016936000929150611389906001600160a01b0361136c6005610c35866113658661056f565b015461056f565b1661139c575b84546113849060101c60ff1682613c06565b61056f565b0155805462ff0000191662010000179055565b6113d66113b16005610c35866113658661056f565b604051636f58dd0f60e11b60208201526000602482015290610c78826044810161066d565b50611372565b6003806113ec856113658961056f565b01548210156114bf578561141b611411848461140b896113658761056f565b01613466565b90549060031b1c90565b14611430575061142a906131c0565b81611338565b839250946114b5866114a26113899461148961147a6114116100169c61145b60009c6113658b61056f565b016114748761146d8d6113658d61056f565b0154612f4d565b90613466565b918461140b8a6113658a61056f565b90919082549060031b91821b91600019901b1916179055565b6114af856113658561056f565b01613bb9565b945081925061133d565b5061133d565b8261154561153f6108229661151689600361151061157f9961066d996114fa6100169f9d6114f28761056f565b015415613b28565b0197885480916115098661056f565b015561056f565b01613483565b83546001600160a01b0361152e6005610c358461056f565b16611585575b505460101c60ff1690565b85613c06565b610c78611563610d5b61155c6004610c358961056f565b935461057f565b604051630a4ce2c960e11b602082015293849160248301610453565b5061054f565b6115966005610c356115bb9361056f565b604051636f58dd0f60e11b60208201526001602482015290610c78826044810161066d565b5038611534565b5080821661130c565b908152602081019190915260400190565b346104055760408060031936011261040557600480356115fa612c1b565b61160b6112e660016110ea8461056f565b61162561161e61062384610c358561056f565b3314613839565b61162d612faf565b61163b6005610c358361056f565b60025490845161168961167b60209263015042f960e11b848201528061166760249788358984016115cb565b0394610c78601f19968781018452836129ba565b828082518301019101613ed6565b9486865194878361169f86830198895190612c0e565b976116af858401998a5190612c0e565b6116bf6060850191825190612c0e565b91886116d16080870194855190612c0e565b976116e260a08801998a5190612c0e565b966116fb6116f660c08301998a5190612c0e565b6148bd565b51611a17575b8251611975575b50505080516118c7575b50805161181a575b50506117298351825190612c0e565b61175f575b898961054b6101008a6117468d60e086015190613fe6565b51920151926117556001600355565b51928392836115cb565b8461177461062360009a969799989a54610436565b8b516324768d9160e01b815296879182905afa80156104005761054b98610100988c6117e296611746996000956117ed575b5090610dd5916117ca610c7896976117c0610d5b8d61057f565b9251905190612c0e565b915197889463a9059cbb60e01b908601528401613899565b50938293388061172e565b610c789550906117ca611810610dd59493863d88116103f9576103ea81836129ba565b96505090916117a6565b86611829610623600054610436565b8d516313b92d3560e31b815293849182905afa91821561040057611890928d928c928a600093611898575b5050611884611869610d5b610c78949561057f565b9151945163a9059cbb60e01b8c820152948592898401613899565b038a81018452836129ba565b50833861171a565b610c789350610d5b6118bd611884938361186994903d106103f9576103ea81836129ba565b945050508a611854565b878d6118d7610623600054610436565b9051635506ee0b60e11b815294859182905afa908115610400578b61193f928f8b908b97600093611946575b5061193390611918610d5b610c78959661057f565b9551905195869363a9059cbb60e01b908501528b8401613899565b038c81018452836129ba565b5038611712565b610c78935090611918610d5b61196b61193394863d88116103f9576103ea81836129ba565b9550505090611903565b611983610623600054610436565b90516330125cf560e01b815295869182905afa908115610400578c8f928b6119df948c986000936119e8575b50610cca906119c4610d5b610c78959661057f565b9551905195869363a9059cbb60e01b908501528c8401613899565b5038888e611708565b610c789350906119c4610d5b611a0d610cca94863d88116103f9576103ea81836129ba565b95505050906119af565b611a25610623600054610436565b9051636402742760e01b815295869182905afa938415610400578e611a828f8f8c988f8f968d90600093611a88575b50610dd5611a68610d5b610c78959661057f565b9551885163a9059cbb60e01b8b8201529687938401613899565b50611701565b610c789350611a68610d5b611aac610dd5938c8d3d106103f9576103ea81836129ba565b95505050611a54565b3461040557604036600319011261040557602435600435611ad4612c1b565b611ae56112e660016110ea8461056f565b611afe611af7610623610d5b8461057f565b3314613703565b611b25611b0f6005610c358461056f565b611b17613747565b611b1f6129f8565b91614f6d565b9082611b3b60209384808251830101910161376e565b1015611b4c575b6100166001600355565b611be5611bf393611bbe610d5b611bb4611ba6611b84611b706005610c358a61056f565b956040519182918b83019190602083019252565b0395611b98601f19978881018452836129ba565b611ba061377d565b90614f6d565b8780825183010191016137a7565b979250505061057f565b93610dd5611bca612a0b565b604051968793637a937b4560e11b9085015260248401613817565b6001600160a01b0316615103565b50388080611b42565b34610405576020366003190112610405576020600435611c1b81610442565b60018060a01b03809116600052600482526040600020546000526007825260056040600020015416604051908152f35b3461040557604036600319011261040557611c67610363614b70565b611c7033614c98565b8015611c8e575b611c8090612ca0565b610016602435600435613a13565b50600054604051630536340960e21b8152906001600160a01b03906020908390600490829085165afa90811561040057611c8092600092611cd5575b501633149050611c77565b611cee91925060203d81116103f9576103ea81836129ba565b9038611cca565b3461040557604036600319011261040557600435600052600860205260406000206024356000526020526020604060002054604051908152f35b346104055760203660031901126104055760043560005260076020526020600260406000200154604051908152f35b346104055760403660031901126104055760043560005260076020526020611d8f6024356003604060002001613466565b90549060031b1c604051908152f35b34610405576000366003190112610405576001546040516001600160a01b039091168152602090f35b3461040557604036600319011261040557611de3610363614b70565b611dec33614c98565b8015611e0a575b611dfc90612ca0565b610016602435600435614941565b50600054604051630536340960e21b8152906001600160a01b03906020908390600490829085165afa90811561040057611dfc92600092611e51575b501633149050611df3565b611e6a91925060203d81116103f9576103ea81836129ba565b9038611e46565b3461040557602036600319011261040557600435600052600f6020526020604060002054604051908152f35b346104055760003660031901126104055760005460405163d1f956b160e01b815290602090829060049082906001600160a01b03165afa9081156104005761054b91611f2691600091611f36575b50604051611ef881612984565b601381527267657464656c656761746f72436f756e74282960681b6020820152611f206129f8565b91615096565b6040519081529081906020820190565b611f4e915060203d81116103f9576103ea81836129ba565b38611eeb565b610100810192916000915b60088310611f6c57505050565b600190825181526020809101920192019190611f5f565b346104055760203660031901126104055761054b600435612038610af1611fa8614841565b92611fc4611fb58261058f565b60008052602052604060002090565b548452611fd3610a2f8261058f565b546020850152611fe5610a4e8261058f565b546040850152611ff7610a708261058f565b546060850152612009610a928261058f565b54608085015261201b610ab48261058f565b5460a085015261202d610ad68261058f565b5460c085015261058f565b5460e082015260405191829182611f54565b3461040557602036600319011261040557602061100760043561206c81610442565b614c98565b346104055761214a61208236610b3c565b9061208b612c1b565b6120cd612099610b88612a0b565b6120a4610ba2612a0b565b906001600160a01b03906120bd90821686831614612a6e565b610bdc6106238260005416610436565b6120e66120e160016110ea610c2f85611269565b612af9565b61213b6121316121226121006005610c35610c2f87611269565b6040519061211a8261066d60208201906000602083019252565b611ba0612b4d565b60208082518301019101612b7b565b5050501515612b9d565b612143612f69565b3390613210565b612158611fb560025461058f565b6121628154612bfb565b905561216c6148e9565b61217a6005610c358361056f565b90612184816135a9565b61218e6001600355565b61054b604051928392836104d1565b34610405576020366003190112610405576121b9610363614b70565b6121c233614c98565b80156121dd575b6121d290612ca0565b610016600435612ff2565b50600460206121f0610623600054610436565b604051630536340960e21b815292839182905afa8015610400576121d291600091612229575b506001600160a01b0316331490506121c9565b612241915060203d81116103f9576103ea81836129ba565b38612216565b3461040557602036600319011261040557600054604051630536340960e21b8152906001600160a01b03906020908390600490829085165afa918215610400576000926122da575b50339116036122a357610016600435614e9c565b60405162461bcd60e51b815260206004820152600f60248201526e6f776e2e6e6f6e617574682e44414f60881b6044820152606490fd5b6122f391925060203d81116103f9576103ea81836129ba565b903861228f565b346104055760203660031901126104055760043561231781610442565b803b6000612324826129dd565b9261233260405194856129ba565b82845260208401903c602d81511061235b57602a61054b91015160601c60405191829182610453565b60405162461bcd60e51b81526020600482015260136024820152724e6f742061206d696e696d616c2070726f787960681b6044820152606490fd5b6040366003190112610405576004356123ad612c1b565b60009080825260076020526123cb60ff600160408520015416613565565b8152600760205261240a60018060a01b036005604084200154166040519062a0e53360e51b6020830152602435602483015260248252610c7882612949565b50600160035580f35b3461040557604036600319011261040557600435600052600a60205260406000206024356000526020526020604060002054604051908152f35b346104055760c03660031901126104055760243560043561246d82610442565b606435906084359061247d612c1b565b61248e6112e660016110ea8461056f565b6124a261161e6106236004610c358561056f565b6124aa612faf565b6124b382614865565b6124bc83614891565b6125446125366125226124d36005610c358661056f565b604051634996516b60e11b6020808301919091526001600160a01b039099166024820152604480359082015260648101889052608481019690965260a4803590870152969490819060c4820190565b0396610c78601f19988981018452836129ba565b838082518301019101613883565b9281612557575b5050611b4293506142f0565b908160049261256a610623600054610436565b604051635e09dbe760e01b815294859182905afa801561040057611b42976125b9946000926125c1575b50610c789192610dd560405195869263a9059cbb60e01b908401523360248401613899565b50388061254b565b610c7892506125dc90843d86116103f9576103ea81836129ba565b91612594565b3461040557602080600319360112610405576004803561260181610442565b60005460405163d1f956b160e01b81526001600160a01b03949093909182918591829088165afa9081156104005761054b946106a794600093612662575b50604051931681840152825261265482612984565b61265c614e38565b9061505a565b61267a919350823d84116103f9576103ea81836129ba565b913861263f565b34610405576000366003190112610405576020611007614b70565b3461040557602036600319011261040557600435600052600c6020526020604060002054604051908152f35b34610405576040366003190112610405576024356004356126f46107f66126ee33611269565b5461482a565b6127056112e660016110ea8461056f565b61271b61271660016110ea8561056f565b6138b4565b6127296005610c358461056f565b60048360405161276f6121316127616020938061274d868201906000602083019252565b039761211a601f19998a81018452836129ba565b838082518301019101612b7b565b6127788561054f565b936127c9600286019661279f61279a6127968a5460ff9060081c1690565b1590565b6138f8565b6127bd604051998a92630f77309360e31b87850152602484016115cb565b038281018952886129ba565b816127d8610623600054610436565b604051630536340960e21b815295869182905afa93841561040057610016976128449561283193610dd593600092612855575b50604051600162058cb160e41b031987820152939192610c78928591306024840161393e565b916001850155808251830101910161376e565b9055805461ff001916610100179055565b610c78925061287090873d89116103f9576103ea81836129ba565b9161280b565b3461040557602036600319011261040557600435600052600e6020526020604060002054604051908152f35b3461040557604080600319360112610405576004356128c081610442565b60018060a01b031661054b8260008381526004602052818120548152600b602052818120549381526004602052818120548152600a602052818120602435825260205220549251928392836115cb565b3461040557600036600319011261040557602061292b614dad565b604051908152f35b634e487b7160e01b600052604160045260246000fd5b606081019081106001600160401b0382111761296457604052565b612933565b60e081019081106001600160401b0382111761296457604052565b604081019081106001600160401b0382111761296457604052565b602081019081106001600160401b0382111761296457604052565b601f909101601f19168101906001600160401b0382119082101761296457604052565b6001600160401b03811161296457601f01601f191660200190565b60405190612a058261299f565b60008252565b604051612a178161299f565b60008152906000368137565b60405190612a3082612984565b60078252666f776e6572282960c81b6020830152565b60405190612a5382612984565b600c82526b67657448657862617365282960a01b6020830152565b15612a7557565b60405162461bcd60e51b81526020600482015260176024820152766e65737465642e696e76616c69642e696e7374616e636560481b6044820152606490fd5b15612abb57565b60405162461bcd60e51b81526020600482015260166024820152756e65737465642e696e76616c69642e6865786261736560501b6044820152606490fd5b15612b0057565b60405162461bcd60e51b81526020600482015260186024820152776e65737465642e706172656e742e6e6f742e65786973747360401b6044820152606490fd5b546001600160a01b031690565b60405190612b5a82612984565b60128252716765744e6f64654c422875696e743235362960701b6020830152565b9190826080910312610405578151916020810151916060604083015192015190565b15612ba457565b60405162461bcd60e51b81526020600482015260196024820152786e65737465642e706172656e742e6e6f2e627573696e65737360381b6044820152606490fd5b634e487b7160e01b600052601160045260246000fd5b9060018201809211612c0957565b612be5565b91908201809211612c0957565b600260035414612c2c576002600355565b604051633ee5aeb560e01b8152600490fd5b15612c4557565b60405162461bcd60e51b81526020600482015260126024820152716f776e2e696e76616c69642e69735361666560701b6044820152606490fd5b908160209103126104055751610b6181610442565b6040513d6000823e3d90fd5b15612ca757565b60405162461bcd60e51b815260206004820152601b60248201527a6f776e2e6e6f6e617574682e44414f6f725365637572656261736560281b6044820152606490fd5b9190612cf4612c1b565b612d10612d0b61279660016110ea610c2f86611269565b61317c565b612d23612d1e6006546131c0565b600655565b612d4760065493612d3783610d028761057f565b84612d4184611269565b55611269565b5490612d5384836134a6565b612d726004612d618661056f565b0180546001600160a01b0319169055565b600091612d826106238454610436565b90604091825191829163e09d394d60e01b835282600460209485935afa801561040057612dbc612dc7916004958991612f30575b506133e8565b6005610d188b61056f565b612dd56005610c358a61056f565b90612e1986612de76106238a54610436565b612e058c89519384936352902c5960e01b8a860152602485016131ee565b0393610c78601f19958681018452836129ba565b5080151580612f11575b612ece575b5081612e376106238854610436565b85516318c9774160e21b815294859182905afa92831561040057600595600794612e8793610dd5938a92612ead575b50875163d5ec0ea160e01b87820152939192610c7892859160248301610453565b508685525290912001546001600160a01b031691612ea4816135a9565b91906001600355565b610c789250612ec890873d89116103f9576103ea81836129ba565b91612e66565b612edf6005610c35612f0a9361056f565b8551636f58dd0f60e11b858201526001602482015290610c7882604481015b038581018452836129ba565b5038612e28565b506001600160a01b03612f286005610c358461056f565b161515612e23565b612f479150853d87116103f9576103ea81836129ba565b38612db6565b600019810191908211612c0957565b91908203918211612c0957565b612f71614dad565b60025410612f89575b612f87600560025461303b565b565b612f91614dad565b806002556000198101908111612c0957612faa90614701565b612f7a565b612fb7614dad565b60025410612fcc575b612f876002805461303b565b612fd4614dad565b806002556000198101908111612c0957612fed90614701565b612fc0565b612ffa614dad565b6002541061300f575b612f879060025461303b565b613017614dad565b90816002556000198201918211612c0957613034612f8792614701565b9050613003565b90613048611fb58361058f565b541580613172575b80613169575b61305e575050565b61307a9061307461306e84612f4d565b91612f4d565b9061303b565b61308e611fb561308983612f4d565b61058f565b5461309b611fb58361058f565b556130ab610a2f61308983612f4d565b546130b8610a2f8361058f565b556130c8610a4e61308983612f4d565b546130d5610a4e8361058f565b556130e5610a7061308983612f4d565b546130f2610a708361058f565b55613102610a9261308983612f4d565b5461310f610a928361058f565b5561311f610ab461308983612f4d565b5461312c610ab48361058f565b5561313c610ad661308983612f4d565b54613149610ad68361058f565b55613166610af161315f610af161308985612f4d565b549261058f565b55565b50801515613056565b5060018211613050565b1561318357565b60405162461bcd60e51b81526020600482015260156024820152746e65737465642e616c72656164792e65786973747360581b6044820152606490fd5b6000198114612c095760010190565b80546001600160a01b0319166001600160a01b03909216919091179055565b6001600160a01b03918216815291166020820152604081019190915260600190565b91613228612d0b61279660016110ea610c2f86611269565b613236612d1e6006546131c0565b61326e6132576006549461324d84610d028861057f565b85612d4185611269565b549261326385856134a6565b6004610d188661056f565b61327c610623600054610436565b60405192839163e09d394d60e01b835282600460209485935afa8015610400576132b36132be91600496600091612f3057506133e8565b6005610d188861056f565b6132cc6005610c358761056f565b906132fe846132df610623600054610436565b612e05896040519384936352902c5960e01b8a860152602485016131ee565b50801515806133c9575b61338d575b508161331d610623600054610436565b6040516318c9774160e21b815295869182905afa908115610400576133689460009261336c575b50610c789192610dd560405195869263d5ec0ea160e01b9084015260248301610453565b5090565b610c78925061338790843d86116103f9576103ea81836129ba565b91613344565b61339e6005610c356133c29361056f565b604051636f58dd0f60e11b858201526001602482015290610c788260448101612efe565b503861330d565b506001600160a01b036133e06005610c358461056f565b161515613308565b6e5af43d82803e903d91602b57fd5bf390763d602d80600a3d3981f3363d3d373d3d3d363d7300000062ffffff8260881c161760005260781b17602052603760096000f0906001600160a01b0382161561343e57565b60405163b06ebf3d60e01b8152600490fd5b634e487b7160e01b600052603260045260246000fd5b805482101561347e5760005260206000200190600090565b613450565b80549190600160401b8310156129645782611489916001612f8795018155613466565b919091600092808452602091600783526040808620956002948386890155846001988981018a60ff1982541617905555876134e08661059f565b83805282528489858520555b6134fb57505050505050509050565b613548613542828b8a9414613551575b6135148861059f565b81875285528686206135268154612bfb565b9055613531886105af565b61353b8154612bfb565b90556131c0565b9561056f565b015493846134ec565b6135608960036115108b61056f565b61350b565b1561356c57565b60405162461bcd60e51b81526020600482015260156024820152746e65737465642e757365722e6e6f7461637469766560581b6044820152606490fd5b8060005260076020526135c660ff60016040600020015416613565565b600052600760205261360660018060a01b03600560406000200154166040519062a0e53360e51b60208301526001602483015260248252610c7882612949565b50565b1561361057565b60405162461bcd60e51b81526020600482015260136024820152726e65737465642e7a65726f2e6164647265737360681b6044820152606490fd5b1561365257565b60405162461bcd60e51b81526020600482015260146024820152736e65737465642e7461726765742e65786973747360601b6044820152606490fd5b1561369557565b60405162461bcd60e51b81526020600482015260176024820152766e65737465642e736f757263652e6e6f7445786973747360481b6044820152606490fd5b604051906136e182612984565b601382527255736572546f496e737428616464726573732960681b6020830152565b1561370a57565b60405162461bcd60e51b81526020600482015260156024820152743732b9ba32b21734b73b30b634b21739b2b73232b960591b6044820152606490fd5b6040519061375482612984565b600b82526a6d696e74436f756e74282960a81b6020830152565b90816020910312610405575190565b6040519061378a82612984565b600e82526d6d696e74732875696e743235362960901b6020830152565b91908260809103126104055781519160208101519160606040830151920151610b6181610442565b60005b8381106137e25750506000910152565b81810151838201526020016137d2565b9060209161380b815180928185528580860191016137cf565b601f01601f1916010190565b6001600160a01b039091168152604060208201819052610b61929101906137f2565b1561384057565b60405162461bcd60e51b815260206004820152601b60248201527a6e65737465642e757365722e696e76616c6964696e7374616e636560281b6044820152606490fd5b9190826040910312610405576020825192015190565b6001600160a01b039091168152602081019190915260400190565b156138bb57565b60405162461bcd60e51b81526020600482015260156024820152741b995cdd19590b9a5b9d985b1a590b9c185c995b9d605a1b6044820152606490fd5b156138ff57565b60405162461bcd60e51b81526020600482015260176024820152761b995cdd19590b9c995c4b985b1c9958591e595e1a5cdd604a1b6044820152606490fd5b92916139ab60a09160009360c08752602460c08801527f547269676765722e6e65737465642e70726f706f73616c2e6d6f7665646f776e60e0880152636c696e6560e01b610100880152600180851b031660208701528360408701526101208060608801528601906137f2565b93600a60808201520152565b604051906139c482612984565b60128252716765745374617475732875696e743235362960701b6020830152565b5190811515820361040557565b919082604091031261040557610b616020613a0c846139e5565b93016139e5565b613a30613a3c91613a2b6112e660016110ea8461056f565b61054f565b916001830154146138b4565b613a4a610623600054610436565b906040518092630536340960e21b825281600460209586935afa90811561040057612f8793613aa561066d600294613ab294600091613ac6575b50613a9d87546040519384918783019190602083019252565b611ba06139b7565b80518101820191016139f2565b5091019060ff801983541691151516179055565b613add9150843d86116103f9576103ea81836129ba565b38613a84565b15613aea57565b60405162461bcd60e51b81526020600482015260166024820152751b995cdd19590b9c995c4b9b9bdd185c1c1c9bdd995960521b6044820152606490fd5b15613b2f57565b60405162461bcd60e51b81526020600482015260186024820152771b995cdd19590b9d5cd95c8b9b9bdd0b99195d1858da195960421b6044820152606490fd5b15613b7657565b60405162461bcd60e51b815260206004820152601b60248201527a1b995cdd19590b9d5cd95c8b985b1c99591e4b99195d1858da1959602a1b6044820152606490fd5b8054908115613be35760001991820191613bd38383613466565b909182549160031b1b1916905555565b634e487b7160e01b600052603160045260246000fd5b8015612c09576000190190565b613c18613c12826105af565b54612bfb565b60029081613c258461056f565b0154906001938492835b613c3d575b50505050505050565b600f8085111580613ecd575b15613ec75785906005613c6261062382610c358761056f565b613c84575b5050613c75613c7d9261056f565b0154936131c0565b9285613c2f565b865b82811115613d4c57505050613c75613c7d9289600014613d0a57613cc3613cac8661059f565b613cb589612f4d565b600052602052604060002090565b54613ceb613ce389613cd48561059f565b90600052602052604060002090565b918254612c0e565b9055613cf6816105af565b613d01878254612c0e565b90555b92613c67565b613d16613cac8661059f565b54613d2f613d2789613cd48561059f565b918254612f5c565b9055613d3a816105af565b613d45878254612f5c565b9055613d04565b90919250613d5d82610c358761056f565b8a89613d698a85612f5c565b926040613daa613d9c825180613d886020998a83019190602083019252565b039461211a601f19968781018452836129ba565b868082518301019101612b7b565b5050949091888b841580613ebf575b613ead57610c7893613e28999896938b613dde613e1b9a9895610c35610dd59661056f565b97549151988995637b058ac160e01b8d8801526024870193909594919260809360a086019786526020860152604085015260608401521515910152565b8051810182019101613883565b908b15613e73575b808211613e4b575050613e42906131c0565b90879291613c86565b613e54906131c0565b613e6281613cd48c5461058f565b613e6c8154612bfb565b9055613e30565b818111613e85575050613e42906131c0565b80613e97613ea892613cd48d5461058f565b613ea18154612f4d565b9055613bf9565b613e73565b505050505050505050613e42906131c0565b508715613db9565b50613c34565b50811515613c49565b9061012080838303126104055781601f8401121561040557604051928184016001600160401b03811185821017612964576040528391810192831161040557905b828210613f245750505090565b8151815260209182019101613f17565b60405190613f4182612984565b600f82526e66726565496e74657276616c73282960881b6020830152565b60405190613f6c82612984565b601582527467657452616e6b5769746841676556616c7565282960581b6020830152565b60405190613f9d82612984565b601382527272616e6b436c617573652875696e743235362960681b6020830152565b908160a0910312610405578051916020820151916040810151916080606083015192015190565b91906004906020613ffb610623600054610436565b60405163cfbffe5360e01b815293849182905afa918215610400576000926142cf575b5061403861402a612a0b565b614032613f34565b84615096565b906000809360009060009560009360009260009a5b600f8c1115806142c6575b156142b85761406e6106236005610c358461056f565b61408f575b60026140816140899261056f565b01549b6131c0565b9a61404d565b8b6140bb6140ac6140a46005610c358661056f565b611b17613f5f565b60208082518301019101613883565b8291921561426f575b81151580614266575b801561425e575b6140e1575b505050614073565b838b9184959e8e94950361419c575b509261416992610c7861415a9361066d8e6141126005610c3561416f9b61056f565b9460025460405197889563208bffb160e21b60208801526024870193909594919260a09360c08601978652600060208701526040860152606085015260808401521515910152565b6020808251830101910161376e565b91612bfb565b8082101561418457509860028c6140896140d9565b8061353161419792613cd460025461058f565b61416f565b939a505050508382116141ef575b5088888b868410808015916141c6575b501599929190386140f0565b8a8610159150816141e7575b50806141df575b386141ba565b5087156141d9565b9050386141d2565b935093509350506142406142316040516142238161421587602083019190602083019252565b03601f1981018352826129ba565b61422b613f90565b86614f6d565b60208082518301019101613fbf565b9493509095915094926142568593600254612f5c565b1193386141aa565b5060006140d4565b508a15156140cd565b96505099509250935050614298614231604051614223816142158c602083019190602083019252565b9a9350909591509492828c819b6142b188600254612f5c565b11966140c4565b505050505050505050509050565b50801515614058565b6142e991925060203d6020116103f9576103ea81836129ba565b903861401e565b9291600460009260206143066106238654610436565b60405163cfbffe5360e01b815293849182905afa918215610400578492614581575b5061433461402a612a0b565b918480809181978294839b5b600f8d111580614578575b15614569576143616106236005610c358461056f565b614382575b600261437461437c9261056f565b01549c6131c0565b9b614340565b8c6143976140ac6140a46005610c358661056f565b8291921580614510575b1580614507575b80156144fe575b6143bc575b505050614366565b8b849e948c928f95968703614464575b5092610c7861415a9361066d8e61443798956143ef6005610c356141699b61056f565b956002549060405198899663208bffb160e21b60208901526024880194919260a0949197969360c0870198875260208701526040860152606085015260808401521515910152565b8082101561444c57509960028d61437c6143b4565b8061353161445f92613cd460025461058f565b614437565b945050505097508382116144ba575b5087898c8c87851080801591614491575b50159a92909391386143cc565b8b8710159150816144b2575b50806144aa575b38614484565b5088156144a4565b90503861449d565b935093509350506144e06142316040516142238161421587602083019190602083019252565b9493509095915094926144f68593600254612f5c565b119338614473565b508c15156143af565b508a15156143a8565b975094505093509450985061454861423160405161453a8161421587602083019190602083019252565b614542613f90565b8c614f6d565b9c93509096915095938d8194829d61456282600254612f5c565b11976143a1565b50505050505050505050509050565b5080151561434b565b61459b91925060203d6020116103f9576103ea81836129ba565b9038614328565b6002546000198101908111612c0957612f8790614701565b156145c157565b60405162461bcd60e51b81526020600482015260126024820152716e65737465642e696e76616c69642e61676560701b6044820152606490fd5b6040519061460882612984565b60188252776765744261746368526f79616c7479436c6175736573282960401b6020830152565b6102a09081818403126104055782601f8201121561040557604080519361465585612969565b849383019281841161040557935b83851061467257505050505090565b60608583031261040557825160609161468a82612949565b8651825260209182880151838201528588015186820152815201940193614663565b90600781101561347e5760051b0190565b9081606402916064830403612c0957565b81810292918115918404141715612c0957565b81156146eb570490565b634e487b7160e01b600052601260045260246000fd5b61470c8115156145ba565b61471a610623600054610436565b90604051809263cfbffe5360e01b825281600460209586935afa90811561040057614762916147549160009161480d575b50611b176145fb565b83808251830101910161462f565b61477682600052600c602052604060002090565b5460015b600781111561478a575050505050565b8061479b6147f992613cd48761058f565b548015614807576147b46147ae83612f4d565b866146ac565b518781519283156147fe576147db6147e0926147d36147e6968a6146ce565b9401516146bd565b6146ce565b906146e1565b6147f382613cd48861055f565b556131c0565b61477a565b505050506131c0565b506131c0565b6148249150853d87116103f9576103ea81836129ba565b3861474b565b600052600760205260ff6001604060002001541690565b604051906101008083016001600160401b0381118482101761296457604052368337565b60025480600052600c602052604060002054918201809211612c0957600052600c602052604060002055565b60025480600052600d602052604060002054918201809211612c0957600052600d602052604060002055565b60025480600052600e602052604060002054918201809211612c0957600052600e602052604060002055565b60025480600052600f6020526040600020549060018201809211612c0957600052600f602052604060002055565b9080600052600c602052604060002054918201809211612c0957600052600c602052604060002055565b9080600052600e602052604060002054918201809211612c0957600052600e602052604060002055565b9080600052600f602052604060002054918201809211612c0957600052600f602052604060002055565b604051906149a282612984565b6014825273676574627573696e6573732875696e743235362960601b6020830152565b604051906149d282612984565b601d82527f67657472616e6b436f756e742875696e743235362c75696e74323536290000006020830152565b600090614a0e6106238354610436565b91604092835192839163111ea8c160e21b835282600460209485935afa938415610400578394614af5575b505b85811115614a4b57505050505050565b8451828101828152819003808252601f1991614a7c91614a6e90602001826129ba565b614a76614995565b87615096565b614a93613ce384600052600c602052604060002090565b9055835b60088110614aaf575050614aaa906131c0565b614a3b565b614af090614ae38851614ad581614ac985898b84016115cb565b038681018352826129ba565b614add6149c5565b89615096565b6147f382613cd48761058f565b614a97565b614b0d919450823d84116103f9576103ea81836129ba565b9238614a39565b15614b1b57565b60405162461bcd60e51b81526020600482015260196024820152781bdddb8b9cd8599959dd585c990b98d85b1b0b99985a5b1959603a1b6044820152606490fd5b9081602091031261040557610b61906139e5565b600054604051634bf9c0ad60e11b8152906020908190839060049082906001600160a01b03165afa91821561040057610b6192614be691600091614c01575b50604051614bbc81612984565b6008815267697353616665282960c01b8482015260405191614bdd8361299f565b60008352614f98565b919080614bf7575b61069a90614b14565b5081518114614bee565b614c189150833d85116103f9576103ea81836129ba565b38614baf565b60405190614c2b82612984565b601582527469735365637572654261736528616464726573732960581b6020830152565b15614c5657565b60405162461bcd60e51b815260206004820152601a6024820152791bdddb8b9cd958dd5c9958985cd94b98d85b1b0b99985a5b195960321b6044820152606490fd5b600054614cad906001600160a01b0316610436565b604051918291634bf9c0ad60e11b835282600460209485935afa92831561040057610b6193614cfd9261066d92600092614d18575b50614cf590604051938491878301610453565b610683614c1e565b919080614d0e575b61069a90614c4f565b5081518114614d05565b614cf5919250614d3490863d88116103f9576103ea81836129ba565b9190614ce2565b60405190614d4882612984565b601182527069735369676e657228616464726573732960781b6020830152565b15614d6f57565b60405162461bcd60e51b81526020600482015260166024820152751bdddb8b9cda59db995c8b98d85b1b0b99985a5b195960521b6044820152606490fd5b60005460405163111ea8c160e21b815290602090829060049082906001600160a01b03165afa801561040057610b6191600091614e1a575b50604051614df281612984565b6005815264616765282960d81b602082015260405191614e118361299f565b60008352615096565b614e32915060203d81116103f9576103ea81836129ba565b38614de5565b60405190614e4582612984565b6018825277697364656c656761746f724e6f646528616464726573732960401b6020830152565b3d15614e97573d90614e7d826129dd565b91614e8b60405193846129ba565b82523d6000602084013e565b606090565b600080546040516311be646b60e21b815290602090829060049082906001600160a01b03165afa908115610400578284819382938391614f4f575b505af1614ee2614e6c565b5015614f185760405190815233907fcdcc745fe377b103b45fa0cec23ae3ef93d6fc6a84a01f0d18c40b354dd1d5d890602090a2565b60405162461bcd60e51b815260206004820152600f60248201526e1bdddb8b989d5c9b8b99985a5b1959608a1b6044820152606490fd5b614f67915060203d81116103f9576103ea81836129ba565b38614ed7565b90614f789291614f98565b9060009015614f85575090565b6040519150614f938261299f565b815290565b803b15614ffd57600092839263ffffffff60e01b90602081519101201690614fea6024604051809360208201958652614fda81518092602086860191016137cf565b81010360048101845201826129ba565b5191620dbba0fa614ff9614e6c565b9091565b50505060009060405161500f8161299f565b6000815290565b929161502491600094614f98565b908061504f575b6150325750565b909150602081805181010312610405576020015161043681610442565b50602081511461502b565b929161506891600094614f98565b908061508b575b6150765750565b610b6191925060208082518301019101614b5c565b50602081511461506f565b92916150a491600094614f98565b90806150c7575b6150b25750565b610b619192506020808251830101910161376e565b5060208151146150ab565b906020825192015163ffffffff60e01b9081811693600481106150f457505050565b60040360031b82901b16169150565b6001600160a01b0381161561518457600080918351908260208601915af19061512a614e6c565b9115615134575090565b80516000919060041161517e5761514b91506150d2565b81511561515b5750805190602001fd5b604051630870274d60e21b81526001600160e01b03199091166004820152602490fd5b5061514b565b60405162461bcd60e51b81526020600482015260126024820152711bdddb8b9a5b9d985b1a590b9d185c99d95d60721b6044820152606490fdfea26469706673582212205c38d53c3694b849aa9f6b8be33768e9986dd8a1dcc9d6a78f709db1655108fd64736f6c63430008140033","linkReferences":{}},"methodIdentifiers":{"Burn(uint256)":"b90306ad","UserToId(address)":"629d671e","_delegatorCount()":"a1f7f539","_getImplementation(address)":"c54e44b0","_isDelegatorNode(address)":"e01ad5fd","_isSafe()":"e0a9bc2b","_isSecureBase(address)":"af484526","_isSigner(address)":"1f185d16","addBusiness(uint256,address,uint256,uint256,uint256,uint256)":"dcb3fc4a","claimIncome(uint256,uint256)":"6a811244","closemdrequest(uint256)":"307673e8","compileRoyality(uint256)":"009db655","createmdrequest(uint256,uint256)":"eb9e9e2c","getBalance()":"12065fe0","getBatchRankCounts(uint256)":"a89d693b","getDownlineCountByLevel(uint256,uint256)":"d1e0bbc6","getHexbase()":"3b9b7955","getNode(uint256)":"4f0f4aa9","getNodeChild(uint256,uint256)":"896c354a","getNodeDirectsCount(uint256)":"42cc9d57","getNodeParent(address)":"1bb49f02","getNodeParentId(uint256)":"849c22ad","getNodesCount()":"61ea7208","getRoyalityAmountBatch(uint256)":"3a7b55b8","getTeamSize(uint256)":"033eeffb","getTotalTeamSizeWithLevel(address,uint256)":"fd38093b","getUserIdToInst(uint256)":"44585097","getUserIdToStor(uint256)":"2fefc0bf","getUserToInst(address)":"0e5fd00b","getUserToStor(address)":"76fe6c45","getbusiness(uint256)":"eb95c662","getjoining(uint256)":"98b3f215","getrankCount(uint256,uint256)":"80f85e33","getwithdrawn(uint256)":"f3ca7124","importBusiness(uint256,uint256)":"2a687c87","importJoining(uint256,uint256)":"32ff4eab","importOld(uint256,uint256)":"c871372b","importRankNBusiness(uint256,uint256)":"33b59a5b","importWithdrawal(uint256,uint256)":"95f72f49","isNode(uint256)":"419cb27b","isUserExists(address)":"509222cd","join(address,address)":"b1c49079","joinImport(address,address)":"50db85d1","moveDownline(uint256)":"65d2fbd3","nodes(uint256)":"1c53c280","owner()":"8da5cb5b","setDefaultRankCount(uint256)":"b366335e","setMoveDownlineApproval(uint256,uint256)":"7bb98498","systemAge()":"fdc10bc9","tokenImport(uint256,uint256)":"6fb412ab","updateUsers(address,address)":"3baee0ea"},"id":28}