{"abi":[{"type":"constructor","inputs":[{"name":"_hex","type":"address","internalType":"address"}],"stateMutability":"nonpayable"},{"type":"fallback","stateMutability":"payable"},{"type":"receive","stateMutability":"payable"},{"type":"function","name":"Burn","inputs":[{"name":"amount","type":"uint256","internalType":"uint256"}],"outputs":[],"stateMutability":"nonpayable"},{"type":"function","name":"UserToId","inputs":[{"name":"","type":"address","internalType":"address"}],"outputs":[{"name":"","type":"uint256","internalType":"uint256"}],"stateMutability":"view"},{"type":"function","name":"UserToInst","inputs":[{"name":"node","type":"address","internalType":"address"}],"outputs":[{"name":"","type":"address","internalType":"address"}],"stateMutability":"view"},{"type":"function","name":"_ageNow","inputs":[],"outputs":[{"name":"","type":"uint256","internalType":"uint256"}],"stateMutability":"view"},{"type":"function","name":"_delegatorCount","inputs":[],"outputs":[{"name":"","type":"uint256","internalType":"uint256"}],"stateMutability":"view"},{"type":"function","name":"_getImplementation","inputs":[{"name":"clone","type":"address","internalType":"address"}],"outputs":[{"name":"impl","type":"address","internalType":"address"}],"stateMutability":"view"},{"type":"function","name":"_isDelegatorNode","inputs":[{"name":"sender","type":"address","internalType":"address"}],"outputs":[{"name":"","type":"bool","internalType":"bool"}],"stateMutability":"view"},{"type":"function","name":"_isSafe","inputs":[],"outputs":[{"name":"","type":"bool","internalType":"bool"}],"stateMutability":"view"},{"type":"function","name":"_isSecureBase","inputs":[{"name":"sender","type":"address","internalType":"address"}],"outputs":[{"name":"","type":"bool","internalType":"bool"}],"stateMutability":"view"},{"type":"function","name":"_isSigner","inputs":[{"name":"sender","type":"address","internalType":"address"}],"outputs":[{"name":"","type":"bool","internalType":"bool"}],"stateMutability":"view"},{"type":"function","name":"addBusiness","inputs":[{"name":"_id","type":"uint256","internalType":"uint256"},{"name":"_paramAdd","type":"address","internalType":"address"},{"name":"_tokenid","type":"uint256","internalType":"uint256"},{"name":"_qty","type":"uint256","internalType":"uint256"},{"name":"_msgValue","type":"uint256","internalType":"uint256"},{"name":"_type","type":"uint256","internalType":"uint256"}],"outputs":[],"stateMutability":"nonpayable"},{"type":"function","name":"claimIncome","inputs":[{"name":"_id","type":"uint256","internalType":"uint256"},{"name":"_maxint","type":"uint256","internalType":"uint256"}],"outputs":[{"name":"","type":"uint256","internalType":"uint256"},{"name":"","type":"uint256","internalType":"uint256"}],"stateMutability":"nonpayable"},{"type":"function","name":"closemdform","inputs":[{"name":"uid","type":"uint256","internalType":"uint256"}],"outputs":[],"stateMutability":"nonpayable"},{"type":"function","name":"compileRoyality","inputs":[{"name":"prevAge","type":"uint256","internalType":"uint256"},{"name":"_cnt","type":"uint256[7]","internalType":"uint256[7]"}],"outputs":[],"stateMutability":"nonpayable"},{"type":"function","name":"createmdform","inputs":[{"name":"uid","type":"uint256","internalType":"uint256"},{"name":"newpid","type":"uint256","internalType":"uint256"}],"outputs":[],"stateMutability":"nonpayable"},{"type":"function","name":"getBalance","inputs":[],"outputs":[{"name":"","type":"uint256","internalType":"uint256"}],"stateMutability":"view"},{"type":"function","name":"getBatchRankCounts","inputs":[{"name":"ag","type":"uint256","internalType":"uint256"}],"outputs":[{"name":"counts","type":"uint256[8]","internalType":"uint256[8]"}],"stateMutability":"view"},{"type":"function","name":"getDownlineCountByLevel","inputs":[{"name":"uid","type":"uint256","internalType":"uint256"},{"name":"lvl","type":"uint256","internalType":"uint256"}],"outputs":[{"name":"","type":"uint256","internalType":"uint256"}],"stateMutability":"view"},{"type":"function","name":"getEffectiveRank","inputs":[{"name":"uinst","type":"address","internalType":"address"}],"outputs":[{"name":"","type":"uint256","internalType":"uint256"}],"stateMutability":"view"},{"type":"function","name":"getHexbase","inputs":[],"outputs":[{"name":"","type":"address","internalType":"address"}],"stateMutability":"view"},{"type":"function","name":"getMoveDownline","inputs":[{"name":"uid","type":"uint256","internalType":"uint256"}],"outputs":[{"name":"newpid","type":"uint256","internalType":"uint256"},{"name":"exist","type":"bool","internalType":"bool"},{"name":"op","type":"bool","internalType":"bool"}],"stateMutability":"view"},{"type":"function","name":"getNode","inputs":[{"name":"_id","type":"uint256","internalType":"uint256"}],"outputs":[{"name":"_i","type":"uint256","internalType":"uint256"},{"name":"_node","type":"address","internalType":"address"},{"name":"_pid","type":"uint256","internalType":"uint256"},{"name":"_inst","type":"address","internalType":"address"},{"name":"_stor","type":"address","internalType":"address"},{"name":"_active","type":"bool","internalType":"bool"},{"name":"_direcCount","type":"uint256","internalType":"uint256"}],"stateMutability":"view"},{"type":"function","name":"getNodeChild","inputs":[{"name":"_id","type":"uint256","internalType":"uint256"},{"name":"inx","type":"uint256","internalType":"uint256"}],"outputs":[{"name":"child","type":"uint256","internalType":"uint256"}],"stateMutability":"view"},{"type":"function","name":"getNodeDirectsCount","inputs":[{"name":"_id","type":"uint256","internalType":"uint256"}],"outputs":[{"name":"count","type":"uint256","internalType":"uint256"}],"stateMutability":"view"},{"type":"function","name":"getNodeInstStor","inputs":[{"name":"_id","type":"uint256","internalType":"uint256"}],"outputs":[{"name":"_inst","type":"address","internalType":"address"},{"name":"_stor","type":"address","internalType":"address"}],"stateMutability":"view"},{"type":"function","name":"getNodeParent","inputs":[{"name":"_user","type":"address","internalType":"address"}],"outputs":[{"name":"","type":"address","internalType":"address"}],"stateMutability":"view"},{"type":"function","name":"getNodeParentId","inputs":[{"name":"_id","type":"uint256","internalType":"uint256"}],"outputs":[{"name":"","type":"uint256","internalType":"uint256"}],"stateMutability":"view"},{"type":"function","name":"getNodeParentwithId","inputs":[{"name":"_user","type":"address","internalType":"address"}],"outputs":[{"name":"","type":"uint256","internalType":"uint256"},{"name":"","type":"address","internalType":"address"}],"stateMutability":"view"},{"type":"function","name":"getNodesCount","inputs":[],"outputs":[{"name":"nodesCount","type":"uint256","internalType":"uint256"}],"stateMutability":"view"},{"type":"function","name":"getRoyalityAmountBatch","inputs":[{"name":"ag","type":"uint256","internalType":"uint256"}],"outputs":[{"name":"royal","type":"uint256[7]","internalType":"uint256[7]"}],"stateMutability":"view"},{"type":"function","name":"getTeamSize","inputs":[{"name":"uid","type":"uint256","internalType":"uint256"}],"outputs":[{"name":"","type":"uint256","internalType":"uint256"}],"stateMutability":"view"},{"type":"function","name":"getTotalTeamSizeWithLevel","inputs":[{"name":"_user","type":"address","internalType":"address"},{"name":"lvl","type":"uint256","internalType":"uint256"}],"outputs":[{"name":"","type":"uint256","internalType":"uint256"},{"name":"","type":"uint256","internalType":"uint256"}],"stateMutability":"view"},{"type":"function","name":"getUserIdToInst","inputs":[{"name":"_id","type":"uint256","internalType":"uint256"}],"outputs":[{"name":"","type":"address","internalType":"address"}],"stateMutability":"view"},{"type":"function","name":"getUserIdToStor","inputs":[{"name":"_id","type":"uint256","internalType":"uint256"}],"outputs":[{"name":"","type":"address","internalType":"address"}],"stateMutability":"view"},{"type":"function","name":"getUserToInst","inputs":[{"name":"node","type":"address","internalType":"address"}],"outputs":[{"name":"","type":"address","internalType":"address"}],"stateMutability":"view"},{"type":"function","name":"getUserToStor","inputs":[{"name":"_user","type":"address","internalType":"address"}],"outputs":[{"name":"","type":"address","internalType":"address"}],"stateMutability":"view"},{"type":"function","name":"getbusiness","inputs":[{"name":"ag","type":"uint256","internalType":"uint256"}],"outputs":[{"name":"","type":"uint256","internalType":"uint256"}],"stateMutability":"view"},{"type":"function","name":"getjoining","inputs":[{"name":"ag","type":"uint256","internalType":"uint256"}],"outputs":[{"name":"","type":"uint256","internalType":"uint256"}],"stateMutability":"view"},{"type":"function","name":"getrankCount","inputs":[{"name":"ag","type":"uint256","internalType":"uint256"},{"name":"rnk","type":"uint256","internalType":"uint256"}],"outputs":[{"name":"count","type":"uint256","internalType":"uint256"}],"stateMutability":"view"},{"type":"function","name":"gettotqty","inputs":[{"name":"ag","type":"uint256","internalType":"uint256"}],"outputs":[{"name":"","type":"uint256","internalType":"uint256"}],"stateMutability":"view"},{"type":"function","name":"getwithdrawn","inputs":[{"name":"ag","type":"uint256","internalType":"uint256"}],"outputs":[{"name":"","type":"uint256","internalType":"uint256"}],"stateMutability":"view"},{"type":"function","name":"importBusiness","inputs":[{"name":"_amt","type":"uint256","internalType":"uint256"},{"name":"_ag","type":"uint256","internalType":"uint256"},{"name":"_action","type":"bool","internalType":"bool"}],"outputs":[],"stateMutability":"nonpayable"},{"type":"function","name":"importJoining","inputs":[{"name":"_cnt","type":"uint256","internalType":"uint256"},{"name":"_ag","type":"uint256","internalType":"uint256"},{"name":"_action","type":"bool","internalType":"bool"}],"outputs":[],"stateMutability":"nonpayable"},{"type":"function","name":"importOld","inputs":[{"name":"_id","type":"uint256","internalType":"uint256"},{"name":"_limit","type":"uint256","internalType":"uint256"}],"outputs":[],"stateMutability":"payable"},{"type":"function","name":"importRankNBusiness","inputs":[{"name":"from","type":"uint256","internalType":"uint256"},{"name":"to","type":"uint256","internalType":"uint256"}],"outputs":[],"stateMutability":"nonpayable"},{"type":"function","name":"importWithdrawal","inputs":[{"name":"_amt","type":"uint256","internalType":"uint256"},{"name":"_ag","type":"uint256","internalType":"uint256"},{"name":"_action","type":"bool","internalType":"bool"}],"outputs":[],"stateMutability":"nonpayable"},{"type":"function","name":"isNode","inputs":[{"name":"_id","type":"uint256","internalType":"uint256"}],"outputs":[{"name":"","type":"bool","internalType":"bool"}],"stateMutability":"view"},{"type":"function","name":"isStop","inputs":[{"name":"uinst","type":"address","internalType":"address"}],"outputs":[{"name":"","type":"bool","internalType":"bool"}],"stateMutability":"view"},{"type":"function","name":"isUserExists","inputs":[{"name":"node","type":"address","internalType":"address"}],"outputs":[{"name":"","type":"bool","internalType":"bool"}],"stateMutability":"view"},{"type":"function","name":"join","inputs":[{"name":"_parent","type":"address","internalType":"address"},{"name":"_user","type":"address","internalType":"address"}],"outputs":[{"name":"_id","type":"uint256","internalType":"uint256"},{"name":"_stor","type":"address","internalType":"address"}],"stateMutability":"nonpayable"},{"type":"function","name":"joinImport","inputs":[{"name":"_parent","type":"address","internalType":"address"},{"name":"_user","type":"address","internalType":"address"},{"name":"_tvl","type":"uint256","internalType":"uint256"}],"outputs":[{"name":"_id","type":"uint256","internalType":"uint256"},{"name":"_stor","type":"address","internalType":"address"}],"stateMutability":"nonpayable"},{"type":"function","name":"moveDownline","inputs":[{"name":"uid","type":"uint256","internalType":"uint256"}],"outputs":[],"stateMutability":"nonpayable"},{"type":"function","name":"nodes","inputs":[{"name":"","type":"uint256","internalType":"uint256"}],"outputs":[{"name":"","type":"address","internalType":"address"}],"stateMutability":"view"},{"type":"function","name":"owner","inputs":[],"outputs":[{"name":"","type":"address","internalType":"address"}],"stateMutability":"view"},{"type":"function","name":"setBase","inputs":[{"name":"_f","type":"address","internalType":"address"}],"outputs":[],"stateMutability":"nonpayable"},{"type":"function","name":"setDefaultRankCount","inputs":[{"name":"_limit","type":"uint256","internalType":"uint256"}],"outputs":[],"stateMutability":"nonpayable"},{"type":"function","name":"syncBaseAddr","inputs":[],"outputs":[],"stateMutability":"nonpayable"},{"type":"function","name":"systemAge","inputs":[],"outputs":[{"name":"","type":"uint256","internalType":"uint256"}],"stateMutability":"view"},{"type":"function","name":"tokenImport","inputs":[{"name":"_id","type":"uint256","internalType":"uint256"},{"name":"mintid","type":"uint256","internalType":"uint256"}],"outputs":[],"stateMutability":"nonpayable"},{"type":"function","name":"updateUsers","inputs":[{"name":"from","type":"address","internalType":"address"},{"name":"to","type":"address","internalType":"address"}],"outputs":[{"name":"_id","type":"uint256","internalType":"uint256"},{"name":"_stor","type":"address","internalType":"address"},{"name":"_parent","type":"address","internalType":"address"}],"stateMutability":"nonpayable"},{"type":"event","name":"EthBurned","inputs":[{"name":"sender","type":"address","indexed":true,"internalType":"address"},{"name":"amount","type":"uint256","indexed":false,"internalType":"uint256"}],"anonymous":false},{"type":"event","name":"EthTransferred","inputs":[{"name":"to","type":"address","indexed":true,"internalType":"address"},{"name":"amount","type":"uint256","indexed":false,"internalType":"uint256"}],"anonymous":false},{"type":"event","name":"HexBaseUpdated","inputs":[{"name":"previousHexBase","type":"address","indexed":true,"internalType":"address"},{"name":"newHexBase","type":"address","indexed":true,"internalType":"address"}],"anonymous":false},{"type":"event","name":"OwnerUpdated","inputs":[{"name":"previousOwner","type":"address","indexed":true,"internalType":"address"},{"name":"newOwner","type":"address","indexed":true,"internalType":"address"}],"anonymous":false},{"type":"error","name":"FailedDeployment","inputs":[]},{"type":"error","name":"InsufficientBalance","inputs":[{"name":"balance","type":"uint256","internalType":"uint256"},{"name":"needed","type":"uint256","internalType":"uint256"}]},{"type":"error","name":"InvalidAddress","inputs":[]},{"type":"error","name":"InvalidState","inputs":[]},{"type":"error","name":"NestedBadAge","inputs":[]},{"type":"error","name":"NestedBadParent","inputs":[]},{"type":"error","name":"NestedBadSender","inputs":[]},{"type":"error","name":"NestedDetached","inputs":[]},{"type":"error","name":"NestedExists","inputs":[]},{"type":"error","name":"NestedInactive","inputs":[]},{"type":"error","name":"NestedInvalidHexbase","inputs":[]},{"type":"error","name":"NestedInvalidInstance","inputs":[]},{"type":"error","name":"NestedMdExists","inputs":[]},{"type":"error","name":"NestedMdMissing","inputs":[]},{"type":"error","name":"NestedNoSource","inputs":[]},{"type":"error","name":"NestedNoStor","inputs":[]},{"type":"error","name":"NestedNotDetached","inputs":[]},{"type":"error","name":"NestedParentMissing","inputs":[]},{"type":"error","name":"NestedParentNoBiz","inputs":[]},{"type":"error","name":"NestedTargetExists","inputs":[]},{"type":"error","name":"NestedZeroAddr","inputs":[]},{"type":"error","name":"NotAuthorized","inputs":[]},{"type":"error","name":"NotSafe","inputs":[]},{"type":"error","name":"ReentrancyGuardReentrantCall","inputs":[]},{"type":"error","name":"TargetCallFailed","inputs":[{"name":"selector","type":"bytes4","internalType":"bytes4"}]}],"bytecode":{"object":"0x6080346200009e57601f6200485038819003918201601f19168301916001600160401b03831184841017620000a3578084926020946040528339810103126200009e57516001600160a01b038116908190036200009e5780156200008c5760018060a01b03193381600154161760015560005416176000556001600d556040516147969081620000ba8239f35b60405163e6c4247b60e01b8152600490fd5b600080fd5b634e487b7160e01b600052604160045260246000fdfe60806040526004361015610018575b361561001657005b005b60003560e01c8063033eeffb146103d35780630e5fd00b146103745780631157a849146103ce57806312065fe0146103c957806313508e37146103c45780631bb49f02146103bf5780631c53c280146103ba5780631f185d16146103b55780631f5fa838146103b05780632bbae52e146103ab5780632fefc0bf146103a6578063339459a6146103a157806333b59a5b1461039c5780633a7b55b8146103975780633b9b7955146103925780633baee0ea1461038d578063419cb27b1461038857806342cc9d5714610383578063445850971461037e57806344668f231461037957806345145fd7146103745780634d1ec4521461036f5780634f0f4aa91461036a578063509222cd1461036557806361ea720814610360578063629d671e1461035b57806365d2fbd3146103565780636a811244146103515780636b90905b1461034c5780636fb412ab1461034757806370a75f501461034257806376fe6c451461033d5780637818cdd71461033857806380f85e3314610333578063849c22ad1461032e578063896c354a146103295780638d92a51b146103245780638da5cb5b1461031f57806398b3f2151461031a5780639bdf305a14610315578063a1f7f53914610310578063a89d693b1461030b578063ab3980b114610306578063af48452614610301578063b1c49079146102fc578063b366335e146102f7578063b90306ad146102f2578063be17fe62146102ed578063c43792e3146102e8578063c54e44b0146102e3578063c871372b146102de578063cf359165146102d9578063d1e0bbc6146102d4578063dcb3fc4a146102cf578063e01ad5fd146102ca578063e0a9bc2b146102c5578063eb95c662146102c0578063f3ca7124146102bb578063fd38093b146102b65763fdc10bc90361000e5761298b565b61291d565b6128f1565b6128c5565b6128aa565b6127eb565b61262d565b6125f3565b612513565b61248e565b612432565b612406565b612353565b61226b565b6121f5565b612113565b6120e2565b612041565b611fd8565b611f3f565b611e9b565b611e6f565b611e46565b611da5565b611d65565b611d36565b611cfc565b611ca3565b611b5b565b611a96565b6118c6565b6117a4565b61161f565b61121f565b6111e2565b6111aa565b611157565b611096565b611035565b610434565b610ffe565b610fc7565b610f98565b610f64565b610c74565b610c23565b610ba9565b610914565b6108fb565b6108cb565b610886565b610767565b6106a0565b61066c565b6105b3565b61056a565b61054e565b610483565b346103ff5760203660031901126103ff5760043560005260156020526020604060002054604051908152f35b600080fd5b6001600160a01b031690565b6001600160a01b038116036103ff57565b6001600160a01b03909116815260200190565b346103ff5760203660031901126103ff57602060043561045381610410565b60018060a01b03809116600052600e82526040600020546000526011825260046040600020015416604051908152f35b346103ff5760203660031901126103ff5760043561049f6129e4565b8060005260116020526104c26104be600160406000200160ff90541690565b1590565b8015610530575b61051e576104e66104be60016104de8461060c565b015460ff1690565b61050c576104f66105029161060c565b60016000918281550155565b6100166001600d55565b604051632564805f60e11b8152600490fd5b604051635dab8f7760e01b8152600490fd5b5061053a336111c8565b548114156104c9565b60009103126103ff57565b346103ff5760003660031901126103ff57602047604051908152f35b346103ff5760203660031901126103ff57600435600052601a6020526060604060002060ff600182549201546040519283528181161515602084015260081c1615156040820152f35b346103ff5760203660031901126103ff5760206004356105d281610410565b6001600160a01b039081166000908152600e8352604080822054825260118452808220600201548252600f84529081902054905191168152f35b600052601a602052604060002090565b6000526012602052604060002090565b6000526011602052604060002090565b600052600f602052604060002090565b6000526014602052604060002090565b6000526015602052604060002090565b346103ff5760203660031901126103ff57600435600052600f602052602060018060a01b0360406000205416604051908152f35b346103ff576020806003193601126103ff576107136004356106c181610410565b6002546040516001600160a01b039283168582015284815291166106e482611bf3565b604051906106f182611bf3565b601182527069735369676e657228616464726573732960781b858301526145f6565b91908061075d575b1561074b5781816107359261074794518301019101613dfc565b60405190151581529081906020820190565b0390f35b60405163baf3f0f760e01b8152600490fd5b508082511461071b565b346103ff576020806003193601126103ff5760043561078581610410565b604051632ca05d7160e21b81526001600160a01b039183908290600490829086165afa9081156108285760009161083f575b5016801561082d5781600491604051928380926349a104e760e11b82525afa90811561082857610747926000926107fb575b50506040519081529081906020820190565b61081a9250803d10610821575b6108128183611c60565b81019061309f565b38806107e9565b503d610808565b612b08565b604051631a113ba560e21b8152600490fd5b61085f9150833d8511610865575b6108578183611c60565b810190612af3565b386107b7565b503d61084d565b6001600160a01b0391821681529116602082015260400190565b346103ff5760203660031901126103ff576004356000526011602052604060002060018060a01b0360058160048401541692015416906107476040519283928361086c565b346103ff5760203660031901126103ff5760206108e9600435612ca7565b6040516001600160a01b039091168152f35b346103ff5760003660031901126103ff576100166140f8565b346103ff576040806003193601126103ff57600480359060243590610937614496565b15610b6d5761094533614508565b8015610b59575b15610b4b576000936109666109618654610404565b610404565b918151809363111ea8c160e21b8252818360209687935afa908115610828578791610b2e575b506001600160a01b0316908515610b28576109a686612a37565b83516380f85e3360e01b80825283820192835260006020840152918690829081906040010381875afa908115610828578991610b0b575b50965b868111156109ec578880f35b84516375cae33160e11b81528381018281528790829081906020010381885afa908115610828578a91610aee575b50610a2f826000526016602052604060002090565b55885b60088110610a495750610a4490612cc5565b6109e0565b8551838152878180610a5e85878a840161160e565b0381895afa908115610828578b91610ad1575b508115610aa5575b90610aa091610a9a82610a8b8661061c565b90600052602052604060002090565b55612cc5565b610a32565b9890610ab4610aa0928b612a46565b610ac8846000526019602052604060002090565b55905088610a79565b610ae89150883d8a11610821576108128183611c60565b38610a71565b610b059150873d8911610821576108128183611c60565b38610a1a565b610b229150863d8811610821576108128183611c60565b386109dd565b866109a6565b610b459150843d8611610865576108578183611c60565b3861098c565b835163ea8e4eb560e01b8152fd5b506005546001600160a01b0316331461094c565b8351634ee2123760e11b8152fd5b60e0810192916000915b60078310610b9257505050565b600190825181526020809101920192019190610b85565b346103ff576020806003193601126103ff57600435604091825191610bcd83611c0e565b60e036843760005b60078110610bea578451806107478682610b7b565b816000526013835284600020906001810191828211610c1e57826000528452610c1886600020549186613da7565b52610bd5565b6129a6565b346103ff5760003660031901126103ff576000546040516001600160a01b039091168152602090f35b60409060031901126103ff57600435610c6481610410565b90602435610c7181610410565b90565b346103ff57610c8236610c4c565b610c8a6129e4565b610c926140f8565b610c9c8133612b14565b6001600160a01b03818116908115610f5257610cb7836111c8565b54151580610f46575b610f3457610ccd846111c8565b5415610f2257610cf66109616109616005610cf0610cea896111c8565b5461062c565b016129d7565b91823b156103ff5760409160008351809563880cdc3160e01b8252818381610d218b60048301610421565b03925af19384156108285761074794610f09575b50610d4a6109616004610cf0610cea8a6111c8565b610ecf575b610d58866111c8565b54610d62866111c8565b55610d7e85610d79610d73896111c8565b5461063c565b612cd4565b610d96336004610d90610cea896111c8565b01612cd4565b851614159081610ebe575b610e55610e16610db0866111c8565b5495610dc06005610cf08961062c565b9781610ddf610dda6002610dd38c61062c565b015461063c565b6129d7565b9615610e8657610e2991610e24610df7600954610404565b91610e16895194859263e3d1d5bf60e01b60208501526024840161086c565b03601f198101845283611c60565b6146de565b505b610e24610e39600a54610404565b918551938491634ef260a960e01b602084015260248301610421565b50610e606001600d55565b519283526001600160a01b03938416602084015290921660408201529081906060820190565b50610e16610eb891610e24610e9c600954610404565b918851938491639498d88b60e01b602084015260248301610421565b50610e2b565b6000610ec9866111c8565b55610da1565b610f03610ee36004610cf0610cea8a6111c8565b845162e6724f60e21b602082015290610e2482610e163360248301610421565b50610d4f565b80610f16610f1c92611bc0565b80610543565b38610d35565b60405163a7bc67af60e01b8152600490fd5b604051631bb220a360e21b8152600490fd5b50818185161415610cc0565b6040516398c534a160e01b8152600490fd5b346103ff5760203660031901126103ff576004356000526011602052602060ff600160406000200154166040519015158152f35b346103ff5760203660031901126103ff5760043560005260116020526020600360406000200154604051908152f35b346103ff5760203660031901126103ff576004356000526011602052602060018060a01b0360046040600020015416604051908152f35b346103ff5760003660031901126103ff576020601b54604051908152f35b9081526001600160a01b03909116602082015260400190565b346103ff5760203660031901126103ff5760043561105281610410565b60018060a01b0380600092168252600e60205260408220548252601160205260406002818420015492838152600f602052205416906107476040519283928361101c565b346103ff5760203660031901126103ff57600435806000526011602052604060002054600f60205261074760018060a01b03806040600020541693601160205260406000209160046002840154930154166110f56005610cf08461062c565b90600361110f61110960016104de8761062c565b9461062c565b0154604080519788526001600160a01b03988916602089015287019490945286166060860152909416608084015292151560a083015260c082019290925290819060e0820190565b346103ff5760203660031901126103ff5760043561117481610410565b60018060a01b0316600052600e6020526040600020546000526011602052602060ff600160406000200154166040519015158152f35b346103ff5760003660031901126103ff576020601054604051908152f35b6001600160a01b03166000908152600e6020526040902090565b346103ff5760203660031901126103ff576004356111ff81610410565b60018060a01b0316600052600e6020526020604060002054604051908152f35b346103ff5760203660031901126103ff57600480359061123d6129e4565b6001906112506104be836104de8661062c565b80156115fb575b6115ec576112648361060c565b91808301926112776104be855460ff1690565b6115db57611283612a07565b6112996112946005610cf08861062c565b612c34565b906112ac6104be865460ff9060081c1690565b156114805750600291826112bf8761062c565b01541561146f576000815b611391575b505061136b575b6112ea6109616109616005610cf08861062c565b803b156103ff57604051631867546560e21b8152600193810193845292600091849182908490829060200103925af18015610828576105029460009361134792611358575b5084546113429060081c60ff1682613277565b61062c565b0155805461ff001916610100179055565b80610f1661136592611bc0565b3861132f565b61138c6113876005610cf0846113808961062c565b015461062c565b6131e6565b6112d6565b6003806113a1866113808b61062c565b01548210156114695787806113d16113c785856113c18b6113808761062c565b01612f9a565b90549060031b1c90565b146113e75750506113e190612cc5565b816112ca565b61146293506114368293836113c1896113806114306113c78861142a876114238761138061144f9f61141c836113808961062c565b019561062c565b0154612a37565b90612f9a565b9661062c565b90919082549060031b91821b91600019901b1916179055565b61145c846113808961062c565b0161322a565b38806112cf565b506112cf565b604051634593d2d560e11b81528490fd5b929493915060026114908561062c565b01546115ca576114d7916114d1916114c28660036114bc88548060026114b58661062c565b015561062c565b01612fb7565b6115ae575b5460081c60ff1690565b83613277565b6001600160a01b036114ec84610cf08561062c565b16611567575b506115076109616109616005610cf08561062c565b803b156103ff57604051631867546560e21b81526000938101848152909391849182908490829060200103925af19081156108285761154f926104f692611554575b5061060c565b610502565b80610f1661156192611bc0565b38611549565b610e166115a791610e2461158b610dda61158488610cf08961062c565b935461063c565b604051630a4ce2c960e11b602082015293849160248301610421565b50386114f2565b6115c56115c06005610cf0875461062c565b613198565b6114c7565b60405163a937c68b60e01b81528590fd5b604051632564805f60e11b81528390fd5b604051635dab8f7760e01b8152fd5b50611605336111c8565b54831415611257565b908152602081019190915260400190565b346103ff576040806003193601126103ff576004359061163d6129e4565b61164e6104be60016104de8561062c565b611794576116636109616004610cf08561062c565b330361178457600090611674612a07565b60606116ae61168d6109616109616005610cf08961062c565b601b5484519586809481936350e12e4360e11b83526024356004840161160e565b03925af192831561082857600080938195611744575b50836107479392826116e16116dc846116ed966129ca565b613e69565b80611701575b506135a6565b6116f76001600d55565b519283928361160e565b61173d90611710600c54610404565b610e2461171f610dda8661063c565b610e16895194859263a9059cbb60e01b60208501526024840161317d565b50386116e7565b6116ed955061074793929450611771915060603d811161177d575b6117698183611c60565b81019061358b565b955093919250836116c4565b503d61175f565b5163e38a47bd60e01b8152600490fd5b5163bf22183960e01b8152600490fd5b346103ff576040806003193601126103ff5760049060243582356117c6614496565b156118b7576117d433614508565b80156118a3575b15611894576117e86129e4565b6117f96104be60016104de8461062c565b6118855761180e6104be60016104de8561062c565b611876576118236112946005610cf08561062c565b15611867576118319061060c565b6001810192611841845460ff1690565b611858575055805460ff1916600117905550610502565b516304d2a6fb60e21b81528490fd5b505051630771dfcd60e11b8152fd5b505051630500268160e01b8152fd5b50505163bf22183960e01b8152fd5b50505163ea8e4eb560e01b8152fd5b506005546001600160a01b031633146117db565b505051634ee2123760e11b8152fd5b346103ff576040806003193601126103ff57602435906004356118e76129e4565b6118f86104be60016104de8461062c565b611a5b5761190b610961610dda8361063c565b3303611a4a57600460206119296109616109616005610cf08761062c565b8451634b2cc33f60e11b815292839182905afa8015610828578491600091611a2c575b50101561195d576100166001600d55565b6080611996936119776109616109616005610cf08761062c565b845180809781946331a8596160e11b8352600483019190602083019252565b03915afa908115610828576119e3936000926119ec575b506119bd610dda610e249261063c565b610e166119c86130f1565b9451637a937b4560e11b60208201529485926024840161312c565b50388080610502565b610e24919250610dda611a186119bd9260803d8111611a25575b611a108183611c60565b8101906130ae565b92505050939250506119ad565b503d611a06565b611a44915060203d8111610821576108128183611c60565b3861194c565b8151635dab8f7760e01b8152600490fd5b815163bf22183960e01b8152600490fd5b801515036103ff57565b60609060031901126103ff576004359060243590604435610c7181611a6c565b346103ff57611aa436611a76565b611aac614496565b15611b4957611aba33614508565b8015611b35575b15611b235715611af757806000526016602052604060002054918201809211610c1e576000526016602052604060002055600080f35b806000526016602052604060002054918203918211610c1e576000526016602052604060002055600080f35b60405163ea8e4eb560e01b8152600490fd5b506005546001600160a01b03163314611ac1565b604051634ee2123760e11b8152600490fd5b346103ff5760203660031901126103ff576020600435611b7a81610410565b60018060a01b03809116600052600e82526040600020546000526011825260056040600020015416604051908152f35b634e487b7160e01b600052604160045260246000fd5b6001600160401b038111611bd357604052565b611baa565b606081019081106001600160401b03821117611bd357604052565b604081019081106001600160401b03821117611bd357604052565b60e081019081106001600160401b03821117611bd357604052565b602081019081106001600160401b03821117611bd357604052565b61010081019081106001600160401b03821117611bd357604052565b601f909101601f19168101906001600160401b03821190821017611bd357604052565b6040519061016082016001600160401b03811183821017611bd357604052565b346103ff576101003660031901126103ff5736604312156103ff57604051611cca81611c0e565b610104813682116103ff576024905b828210611cec5761001684600435613b9a565b8135815260209182019101611cd9565b346103ff5760403660031901126103ff57600435600052601260205260406000206024356000526020526020604060002054604051908152f35b346103ff5760203660031901126103ff5760043560005260116020526020600260406000200154604051908152f35b346103ff5760403660031901126103ff5760043560005260116020526020611d966024356003604060002001612f9a565b90549060031b1c604051908152f35b346103ff57611db336611a76565b611dbb614496565b15611b4957611dc933614508565b8015611e32575b15611b235715611e0657806000526018602052604060002054918201809211610c1e576000526018602052604060002055600080f35b806000526018602052604060002054918203918211610c1e576000526018602052604060002055600080f35b506005546001600160a01b03163314611dd0565b346103ff5760003660031901126103ff576001546040516001600160a01b039091168152602090f35b346103ff5760203660031901126103ff5760043560005260196020526020604060002054604051908152f35b346103ff5760603660031901126103ff57600435611eb881610410565b60243590611ec582610410565b611ecd614496565b15611b4957611edb33614508565b8015611f2b575b15611b2357611efc91611ef36129e4565b60443591612cf3565b80600052601160205260018060a01b0360056040600020015416906001600d556107476040519283928361101c565b506005546001600160a01b03163314611ee2565b346103ff5760003660031901126103ff576020611fa160018060a01b0360065416604051611f6c81611bf3565b601381527267657464656c656761746f72436f756e74282960681b8482015260405191611f9883611c29565b60008352614671565b604051908152f35b610100810192916000915b60088310611fc157505050565b600190825181526020809101920192019190611fb4565b346103ff576020806003193601126103ff57600435906040805191611ffc83611c44565b61010036843760005b6008811061201a578251806107478682611fa9565b60019085600052601283528360002081600052835283600020548160051b86015201612005565b346103ff5761204f36611a76565b612057614496565b15611b495761206533614508565b80156120ce575b15611b2357156120a257806000526019602052604060002054918201809211610c1e576000526019602052604060002055600080f35b806000526019602052604060002054918203918211610c1e576000526019602052604060002055600080f35b506005546001600160a01b0316331461206c565b346103ff5760203660031901126103ff57602061210960043561210481610410565b614508565b6040519015158152f35b346103ff5761212136610c4c565b6121296129e4565b6121338133612b14565b6121476104be60016104de610cea866111c8565b6121e35761216061129461215a846111c8565b54612ca7565b156121d15761217891612171612a07565b3390612e32565b612195612186601b5461061c565b60008052602052604060002090565b61219f81546129bc565b90556121a9613e95565b6121b76005610cf08361062c565b906121c26001600d55565b6107476040519283928361101c565b604051630771dfcd60e11b8152600490fd5b604051634eeadaa960e11b8152600490fd5b346103ff5760203660031901126103ff5761220e614496565b15611b495761221c33614508565b8015612257575b15611b2357612230614589565b601b5410612247575b610016600435601b54612a53565b61224f614589565b601b55612239565b506005546001600160a01b03163314612223565b346103ff5760203660031901126103ff57600435612287614496565b15611b49576005546001600160a01b03163303611b2357600090600460206122b26109618554610404565b6040516311be646b60e21b815292839182905afa80156108285783808481949382948391612335575b505af16122e66145c6565b501561074b577fcdcc745fe377b103b45fa0cec23ae3ef93d6fc6a84a01f0d18c40b354dd1d5d861232f61231e610961600b54610404565b604051938452929081906020820190565b0390a280f35b61234d915060203d8111610865576108578183611c60565b386122db565b346103ff5760203660031901126103ff5760043561237081610410565b612378614496565b15611b495761238633614508565b80156123f2575b15611b23576001600160a01b0390811680156123e057600080546001600160a01b03198116831782559092167fe939feee179e631422bcc8f6e6d7d908cb3f8af38f5372f17c77e15aea5c80ee8380a380f35b60405163e6c4247b60e01b8152600490fd5b506005546001600160a01b0316331461238d565b346103ff5760203660031901126103ff5760043560005260176020526020604060002054604051908152f35b346103ff5760203660031901126103ff5760043561244f81610410565b803b600061245c826130d6565b9261246a6040519485611c60565b82845260208401903c602d81511061074b57602a602091015160601c604051908152f35b60403660031901126103ff576004356124a56129e4565b80600052601160205260ff6001604060002001541615612501576124d06005610cf06124f69361062c565b60405163d3abb8a360e01b6020820152602480359082015290610e248260448101610e16565b506100166001600d55565b60405163bf22183960e01b8152600490fd5b346103ff576020806003193601126103ff5760043561253181610410565b604051632ca05d7160e21b81526001600160a01b039183908290600490829086165afa908115610828576000916125d6575b5016801561082d5781600491604051928380926304ec6d1760e11b82525afa90811561082857610747926000926125a9575b505060405190151581529081906020820190565b6125c89250803d106125cf575b6125c08183611c60565b810190613dfc565b3880612595565b503d6125b6565b6125ed9150833d8511610865576108578183611c60565b38612563565b346103ff5760403660031901126103ff57600435600052601460205260406000206024356000526020526020604060002054604051908152f35b346103ff5760c03660031901126103ff5760243560043561264d82610410565b606435906084359261265d6129e4565b61266e6104be60016104de8561062c565b612501576126836109616004610cf08561062c565b33036127d95761271493604091612698612a07565b6126a182613e11565b6126aa85613e3d565b6126be6109616109616005610cf08861062c565b601b5484516387acdff760e01b81526001600160a01b0390931660048401526044803560248501528301879052606483019390935260a480356084840152820192909252948591908290600090829060c4820190565b03925af1908115610828576105029360009081936127a6575b5061273f6112946005610cf08561062c565b1561278b575b80612751575b506137b9565b610e1661278491610e24612766600b54610404565b9160405193849163a9059cbb60e01b6020840152336024840161317d565b503861274b565b6127a16115c06005610cf060026113808761062c565b612745565b90506127ca91925060403d81116127d2575b6127c28183611c60565b810190613167565b91903861272d565b503d6127b8565b60405163e38a47bd60e01b8152600490fd5b346103ff576020806003193601126103ff57610747906004359061280e82610410565b6006546040516001600160a01b039384168382015282815292169161286e9061283681611bf3565b60405161284281611bf3565b6018815277697364656c656761746f724e6f646528616464726573732960401b848201526000946145f6565b9190806128a0575b61288e57505060405190151581529081906020820190565b6125c892508082518301019101613dfc565b5080825114612876565b346103ff5760003660031901126103ff576020612109614496565b346103ff5760203660031901126103ff5760043560005260166020526020604060002054604051908152f35b346103ff5760203660031901126103ff5760043560005260186020526020604060002054604051908152f35b346103ff576040806003193601126103ff5760043561293b81610410565b60018060a01b0316610747826000838152600e602052818120548152601560205281812054938152600e60205281812054815260146020528181206024358252602052205492519283928361160e565b346103ff5760003660031901126103ff576020611fa1614589565b634e487b7160e01b600052601160045260246000fd5b9060018201809211610c1e57565b91908201809211610c1e57565b546001600160a01b031690565b6002600d54146129f5576002600d55565b604051633ee5aeb560e01b8152600490fd5b612a0f614589565b601b5410612a27575b612a25600a601b54612a53565b565b612a2f614589565b601b55612a18565b600019810191908211610c1e57565b91908203918211610c1e57565b600091818352602092601284526040918282208280528552828220541580612ae9575b80612ae0575b612a88575b5050505050565b612aa490612a9e612a9886612a37565b91612a37565b90612a53565b805b6008811015612a8157600190612ac3612abe86612a37565b61061c565b818452865283832054612ad982610a8b8861061c565b5501612aa6565b50801515612a7c565b5060018411612a76565b908160209103126103ff5751610c7181610410565b6040513d6000823e3d90fd5b604051638da5cb5b60e01b81526020926001600160a01b03928316918481600481865afa918215610828578491600093612bc5575b5081169116036127d9578260049160405192838092633b9b795560e01b82525afa92831561082857600093612ba6575b5050612b8b6109618260005416610404565b911603612b9457565b6040516363ad7db960e11b8152600490fd5b612bbd929350803d10610865576108578183611c60565b903880612b79565b82919350612bdf90873d8911610865576108578183611c60565b9290612b49565b908160809103126103ff576040519060808201906001600160401b03821183831017611bd3576060916040528051835260208101516020840152604081015160408401520151606082015290565b6000906001600160a01b031680612c4c575050600090565b60806024916040519283809263da02133560e01b82528660048301525afa9182156108285791612c7b57505190565b612c9c915060803d8111612ca0575b612c948183611c60565b810190612be6565b5190565b503d612c8a565b6000908152601160205260409020600501546001600160a01b031690565b6000198114610c1e5760010190565b80546001600160a01b0319166001600160a01b03909216919091179055565b9190612d0660016104de610cea846111c8565b612e2057612d4d612d4793612d24612d1f601054612cc5565b601055565b601054948591612d3785610d798561063c565b82612d41866111c8565b556111c8565b54612fda565b612d6c6004612d5b8561062c565b0180546001600160a01b0319169055565b612d8d612d82612d7d600854610404565b612f1c565b6005610d908661062c565b612da16109616109616005610cf08761062c565b612daf610961600054610404565b90803b156103ff5760405163a93491f360e01b81526001600160a01b0392831660048201529190921660248201526044810184905260006064820181905260848201939093529190829081838160a481015b03925af1801561082857612e13575090565b80610f16610c7192611bc0565b604051634f710b4560e11b8152600490fd5b919091612e4660016104de610cea856111c8565b612e2057612d4792612e80612e8b92612e63612d1f601054612cc5565b601054958691612e7687610d798561063c565b82612d41886111c8565b6004610d908561062c565b612ea7612e9c612d7d600854610404565b6005610d908561062c565b612ebb6109616109616005610cf08661062c565b90612eca610961600054610404565b823b156103ff5760405163a93491f360e01b81526001600160a01b0391821660048201529116602482015260448101839052600160648201526000608482018190529091829081838160a48101612e01565b6e5af43d82803e903d91602b57fd5bf390763d602d80600a3d3981f3363d3d373d3d3d363d7300000062ffffff8260881c161760005260781b17602052603760096000f0906001600160a01b03821615612f7257565b60405163b06ebf3d60e01b8152600490fd5b634e487b7160e01b600052603260045260246000fd5b8054821015612fb25760005260206000200190600090565b612f84565b80549190600160401b831015611bd35782611436916001612a2595018155612f9a565b9190916000928084526020916011835260408086209560029483868901558460019861300f8a8201600160ff19825416179055565b558761301a8661064c565b83805282528489858520555b61303557505050505050509050565b61308261307c828b8a941461308b575b61304e8861064c565b818752855286862061306081546129bc565b905561306b8861065c565b61307581546129bc565b9055612cc5565b9561062c565b01549384613026565b61309a8960036114bc8b61062c565b613045565b908160209103126103ff575190565b91908260809103126103ff5781519160208101519160606040830151920151610c7181610410565b6001600160401b038111611bd357601f01601f191660200190565b6040516130fd81611c29565b60008152906000368137565b60005b83811061311c5750506000910152565b818101518382015260200161310c565b909160609260018060a01b031682526040602083015261315b8151809281604086015260208686019101613109565b601f01601f1916010190565b91908260409103126103ff576020825192015190565b6001600160a01b039091168152602081019190915260400190565b6001600160a01b0316806131a95750565b803b156103ff5760008091602460405180948193630711e58760e41b8352600160048401525af18015610828576131dd5750565b612a2590611bc0565b6001600160a01b0316806131f75750565b803b156103ff5760008091602460405180948193630711e58760e41b83528160048401525af18015610828576131dd5750565b805490811561325457600019918201916132448383612f9a565b909182549160031b1b1916905555565b634e487b7160e01b600052603160045260246000fd5b8015610c1e576000190190565b9061328a6132848361065c565b546129bc565b91600290816132988261062c565b0154906001938492835b6132b0575b50505050505050565b600f8085111580613582575b1561357c57859060056132d561096182610cf08761062c565b6132f7575b50506132e86132f09261062c565b015493612cc5565b92856132a2565b865b828111156133b0575050506132e86132f0928460001461336e5761333661331f8761064c565b61332889612a37565b600052602052604060002090565b5461334f61334789610a8b8561064c565b9182546129ca565b905561335a8161065c565b6133658b82546129ca565b90555b926132da565b61337a61331f8761064c565b5461339361338b89610a8b8561064c565b918254612a46565b905561339e8161065c565b6133a98b8254612a46565b9055613368565b909192506133c761096161096184610cf08a61062c565b6133d18883612a46565b6040805163da02133560e01b81526004808201939093526080939192918490829060249082905afa90811561082857899460009261355f575b5050858882511580613553575b6135445791613433610961610961879694610cf08b999761062c565b9060006020825192015193613481601b998a5488519a8b9889978896637b058ac160e01b8852870193909594919260809360a086019786526020860152604085015260608401521515910152565b03925af1918215610828576000918293613522575b505087156134e3575b8082116134bb575050506134b290612cc5565b908792916132f9565b6134c490612cc5565b6134d281610a8b855461061c565b6134dc81546129bc565b905561349f565b9190915b8281116134fa575050506134b290612cc5565b8061350c61351d92610a8b855461061c565b6135168154612a37565b905561326a565b6134e7565b61353c935080919250903d106127d2576127c28183611c60565b903880613496565b5050505050506134b290612cc5565b50602083015115613417565b6135759250803d10612ca057612c948183611c60565b388061340a565b506132a7565b508115156132bc565b908160609103126103ff578051916040602083015192015190565b9190600460206135c0610961610961610961600354610404565b60405163af0b21d360e01b815292839182905afa9081156108285760009161379a575b5060009081908283849185985b600f8a111580613791575b156137855761360e6005610cf08361062c565b6001600160a01b03811661363a575b50600261362c6136349261062c565b015499612cc5565b986135f0565b8a151590818061377c575b8015613774575b613657575b5061361d565b93909694919792600095869861370e575b601b5460405163208bffb160e21b8152600481018d905260006024820152604481018f905260648101919091526084810189905296151560a48801526020878060c48101038160006001600160a01b038b165af194851561082857613634998e61362c9860029a6136de996136ef575b50613a14565b939892975092949293909290613651565b6137079060203d602011610821576108128183611c60565b50386136d8565b604080516314f71a8760e11b8152979950909690816004816001600160a01b038a165afa9889156108285798613752575b5061374c8382888b6139cc565b95613668565b61376c91985060403d6040116127d2576127c28183611c60565b50963861373f565b50600061364c565b50891515613645565b50505050505050509050565b508015156135fb565b6137b3915060203d602011610821576108128183611c60565b386135e3565b929160049160206137d4610961610961610961600354610404565b60405163af0b21d360e01b815294859182905afa928315610828576000936139ab575b5060009182838491859386995b600f8b1115806139a2575b15613995576138226005610cf08361062c565b6001600160a01b03811661384e575b5060026138406138489261062c565b01549a612cc5565b99613804565b8b1515908c828061398c575b8015613983575b61386d575b5050613831565b94848a8d60009d979b969d9a959a99949990819b61390e575b601b5460405163208bffb160e21b815260048101949094526024840194909452604483019990995260648201929092526084810197909752151560a487015260208660c48160006001600160a01b038c165af194851561082857613840988f600299613848996138fa996136ef5750613a14565b97939492959196909695949992508c613866565b50604080516314f71a8760e11b8152949b509398509291508790506004816001600160a01b038b165afa801561082857898f978e928d918c9591613963575b508786829d61395b936139cc565b909192613886565b61397c915060403d6040116127d2576127c28183611c60565b503861394d565b50841515613861565b5089151561385a565b5050505050505050509050565b5080151561380f565b6139c591935060203d602011610821576108128183611c60565b91386137f7565b91929082109283918215946139e4575b505050501590565b159350909183613a09575b505081613a01575b50388080806139dc565b9050386139f7565b1015915038806139ef565b604080516314f71a8760e11b8152959992989697969592949391839060049082906001600160a01b03165afa908115610828576000928392613ae4575b50613a5b906129bc565b8083101580613adb575b15613a82578061306b613a7d92610a8b601b5461061c565b613a5b565b5090919293949596838311908115613ad2575b50613aa4575b50509493929190565b9550955050915050613ab583613b0c565b613ac9819593959492959693601b54612a46565b11913880613a9b565b90501538613a95565b50881515613a65565b613a5b9350613b0291925060403d81116127d2576127c28183611c60565b9290929190613a51565b60035460405163575e699560e11b8152600481019290925260a090829060249082906001600160a01b03165afa9081156108285760009182918391613b52575b50909192565b9291505060a0823d8211613b92575b81613b6e60a09383611c60565b81010312613b8f575060408101516080606083015192015190919038613b4c565b80fd5b3d9150613b61565b613ba2614496565b15611b4957613bb033614508565b8015613d16575b15611b2357613bc4612a07565b8015613d0457613bde610961610961610961600354610404565b916040518093634f5c5a2760e11b82528160046102a09687935afa93841561082857600094613cd5575b5050613c1e826000526016602052604060002090565b5460005b60078110613c31575050505050565b80613c3e60019285613da7565b51151580613cc1575b613c52575b01613c22565b613c9b613c6a613c628389613da7565b515185613dc9565b613c95613c846020613c7c868c613da7565b510151613db8565b613c8e8589613da7565b5190613dc9565b90613ddc565b613cbb613cb2876000526013602052604060002090565b613328846129bc565b55613c4c565b50613ccc8187613da7565b51511515613c47565b613cf5929450803d10613cfd575b613ced8183611c60565b810190613d2a565b913880613c08565b503d613ce3565b604051632acd142d60e21b8152600490fd5b506005546001600160a01b03163314613bb7565b6102a09081818403126103ff5782601f820112156103ff576040805193613d5085611c0e565b84938301928184116103ff57935b838510613d6d57505050505090565b6060858303126103ff578251606091613d8582611bd8565b8651825260209182880151838201528588015186820152815201940193613d5e565b906007811015612fb25760051b0190565b9081606402916064830403610c1e57565b81810292918115918404141715610c1e57565b8115613de6570490565b634e487b7160e01b600052601260045260246000fd5b908160209103126103ff5751610c7181611a6c565b601b54806000526016602052604060002054918201809211610c1e576000526016602052604060002055565b601b54806000526017602052604060002054918201809211610c1e576000526017602052604060002055565b601b54806000526018602052604060002054918201809211610c1e576000526018602052604060002055565b601b548060005260196020526040600020549060018201809211610c1e576000526019602052604060002055565b6001600160a01b039091169052565b6140d6610140612a2592613f0b613ee98251610404565b600280546001600160a01b0319166001600160a01b0392909216919091179055565b613f3d613f1b6020830151610404565b600380546001600160a01b0319166001600160a01b0392909216919091179055565b613f6f613f4d6040830151610404565b600480546001600160a01b0319166001600160a01b0392909216919091179055565b613fa1613f7f6060830151610404565b600580546001600160a01b0319166001600160a01b0392909216919091179055565b613fd3613fb16080830151610404565b600680546001600160a01b0319166001600160a01b0392909216919091179055565b614005613fe360a0830151610404565b600780546001600160a01b0319166001600160a01b0392909216919091179055565b61403761401560c0830151610404565b600880546001600160a01b0319166001600160a01b0392909216919091179055565b61406961404760e0830151610404565b600980546001600160a01b0319166001600160a01b0392909216919091179055565b61409c61407a610100830151610404565b600a80546001600160a01b0319166001600160a01b0392909216919091179055565b6140cf6140ad610120830151610404565b600b80546001600160a01b0319166001600160a01b0392909216919091179055565b0151610404565b600c80546001600160a01b0319166001600160a01b0392909216919091179055565b60006141076109618254610404565b60408051634bf9c0ad60e11b8152929190600490602080868481875afa958615610828578596614477575b50815163cfbffe5360e01b81529181838581885afa928315610828578693614458575b50805163ab6e844f60e01b815282818681895afa90811561082857879161443b575b508151630536340960e21b8152838187818a5afa90811561082857889161441e575b50825163d1f956b160e01b815291848388818b5afa9283156108285789936143ff575b508351631cc3bfab60e31b815293858589818c5afa948515610828578a956143e0575b50805163e09d394d60e01b81529686888a818d5afa9687156108285789988c986143c1575b5082516314ac1b5960e21b81529881908a90818e5afa988915610828578c996143a2575b5082519963013cf08b60e01b8b52818b8d818061424c868201906000602083019252565b03915afa9a8b15610828578d9b614383575b508351635e09dbe760e01b81529b828d8381845afa9c8d15610828578e9d614362575b508290855192838092635506ee0b60e11b82525afa9c8d15610828579c614343575b506142ac611c83565b9c6142b7908e613ec3565b8c01906142c391613ec3565b8a01906142cf91613ec3565b6142dc9060608a01613ec3565b6142e99060808901613ec3565b6142f69060a08801613ec3565b6143039060c08701613ec3565b6143109060e08601613ec3565b61431e906101008501613ec3565b61432c906101208401613ec3565b61433a906101408301613ec3565b612a2590613ed2565b8161435b929d508d3d10610865576108578183611c60565b9a386142a3565b83919d5061437c90823d8411610865576108578183611c60565b9c90614281565b61439b919b50823d8411610865576108578183611c60565b993861425e565b816143ba929a503d8b11610865576108578183611c60565b9738614228565b816143d99299503d8a11610865576108578183611c60565b9638614204565b6143f8919550863d8811610865576108578183611c60565b93386141df565b614417919350853d8711610865576108578183611c60565b91386141bc565b6144359150843d8611610865576108578183611c60565b38614199565b6144529150833d8511610865576108578183611c60565b38614177565b614470919350823d8411610865576108578183611c60565b9138614155565b8161448f9297503d8811610865576108578183611c60565b9438614132565b6002546040516144de916001600160a01b0316906144b381611bf3565b6008815267697353616665282960c01b6020820152604051916144d583611c29565b600083526145f6565b90806144fd575b1561074b5780602080610c7193518301019101613dfc565b5060208151146144e5565b61456260018060a01b03806002541660405191602094168483015283825261452f82611bf3565b6040519061453c82611bf3565b601582527469735365637572654261736528616464726573732960581b858301526145f6565b908061457f575b1561074b5781610c719282518301019101613dfc565b5081815114614569565b600354604051610c71916001600160a01b0316906145a681611bf3565b600681526569416765282960d01b602082015260405191611f9883611c29565b3d156145f1573d906145d7826130d6565b916145e56040519384611c60565b82523d6000602084013e565b606090565b803b1561465857600092839263ffffffff60e01b9060208151910120169061464860246040518093602082019586526146388151809260208686019101613109565b8101036004810184520182611c60565b51915afa6146546145c6565b9091565b50505060009060405161466a81611c29565b6000815290565b929161467f916000946145f6565b90806146a2575b61468d5750565b610c719192506020808251830101910161309f565b506020815114614686565b906020825192015163ffffffff60e01b9081811693600481106146cf57505050565b60040360031b82901b16169150565b6001600160a01b038116156123e057600080918351908260208601915af1906147056145c6565b911561470f575090565b80516000919060041161475a5761472691506146ad565b8151156147365750805190602001fd5b604051630870274d60e21b81526001600160e01b0319919091166004820152602490fd5b5061472656fea2646970667358221220ed9cd7169cb450d3553bb72849ca7456b1f673c3bafc5f85ee864f92142d2d4f64736f6c63430008140033","linkReferences":{}},"methodIdentifiers":{"Burn(uint256)":"b90306ad","UserToId(address)":"629d671e","UserToInst(address)":"45145fd7","_ageNow()":"44668f23","_delegatorCount()":"a1f7f539","_getImplementation(address)":"c54e44b0","_isDelegatorNode(address)":"e01ad5fd","_isSafe()":"e0a9bc2b","_isSecureBase(address)":"af484526","_isSigner(address)":"1f185d16","addBusiness(uint256,address,uint256,uint256,uint256,uint256)":"dcb3fc4a","claimIncome(uint256,uint256)":"6a811244","closemdform(uint256)":"1157a849","compileRoyality(uint256,uint256[7])":"7818cdd7","createmdform(uint256,uint256)":"6b90905b","getBalance()":"12065fe0","getBatchRankCounts(uint256)":"a89d693b","getDownlineCountByLevel(uint256,uint256)":"d1e0bbc6","getEffectiveRank(address)":"1f5fa838","getHexbase()":"3b9b7955","getMoveDownline(uint256)":"13508e37","getNode(uint256)":"4f0f4aa9","getNodeChild(uint256,uint256)":"896c354a","getNodeDirectsCount(uint256)":"42cc9d57","getNodeInstStor(uint256)":"2bbae52e","getNodeParent(address)":"1bb49f02","getNodeParentId(uint256)":"849c22ad","getNodeParentwithId(address)":"4d1ec452","getNodesCount()":"61ea7208","getRoyalityAmountBatch(uint256)":"3a7b55b8","getTeamSize(uint256)":"033eeffb","getTotalTeamSizeWithLevel(address,uint256)":"fd38093b","getUserIdToInst(uint256)":"44585097","getUserIdToStor(uint256)":"2fefc0bf","getUserToInst(address)":"0e5fd00b","getUserToStor(address)":"76fe6c45","getbusiness(uint256)":"eb95c662","getjoining(uint256)":"98b3f215","getrankCount(uint256,uint256)":"80f85e33","gettotqty(uint256)":"c43792e3","getwithdrawn(uint256)":"f3ca7124","importBusiness(uint256,uint256,bool)":"70a75f50","importJoining(uint256,uint256,bool)":"ab3980b1","importOld(uint256,uint256)":"c871372b","importRankNBusiness(uint256,uint256)":"33b59a5b","importWithdrawal(uint256,uint256,bool)":"8d92a51b","isNode(uint256)":"419cb27b","isStop(address)":"cf359165","isUserExists(address)":"509222cd","join(address,address)":"b1c49079","joinImport(address,address,uint256)":"9bdf305a","moveDownline(uint256)":"65d2fbd3","nodes(uint256)":"1c53c280","owner()":"8da5cb5b","setBase(address)":"be17fe62","setDefaultRankCount(uint256)":"b366335e","syncBaseAddr()":"339459a6","systemAge()":"fdc10bc9","tokenImport(uint256,uint256)":"6fb412ab","updateUsers(address,address)":"3baee0ea"},"id":27}