{"abi":[{"type":"constructor","inputs":[{"name":"_hex","type":"address","internalType":"address"}],"stateMutability":"nonpayable"},{"type":"fallback","stateMutability":"payable"},{"type":"receive","stateMutability":"payable"},{"type":"function","name":"Burn","inputs":[{"name":"amount","type":"uint256","internalType":"uint256"}],"outputs":[],"stateMutability":"nonpayable"},{"type":"function","name":"UserToId","inputs":[{"name":"","type":"address","internalType":"address"}],"outputs":[{"name":"","type":"uint256","internalType":"uint256"}],"stateMutability":"view"},{"type":"function","name":"_delegatorCount","inputs":[],"outputs":[{"name":"","type":"uint256","internalType":"uint256"}],"stateMutability":"view"},{"type":"function","name":"_getImplementation","inputs":[{"name":"clone","type":"address","internalType":"address"}],"outputs":[{"name":"impl","type":"address","internalType":"address"}],"stateMutability":"view"},{"type":"function","name":"_isDelegatorNode","inputs":[{"name":"sender","type":"address","internalType":"address"}],"outputs":[{"name":"","type":"bool","internalType":"bool"}],"stateMutability":"view"},{"type":"function","name":"_isSafe","inputs":[],"outputs":[{"name":"","type":"bool","internalType":"bool"}],"stateMutability":"view"},{"type":"function","name":"_isSecureBase","inputs":[{"name":"sender","type":"address","internalType":"address"}],"outputs":[{"name":"","type":"bool","internalType":"bool"}],"stateMutability":"view"},{"type":"function","name":"_isSigner","inputs":[{"name":"sender","type":"address","internalType":"address"}],"outputs":[{"name":"","type":"bool","internalType":"bool"}],"stateMutability":"view"},{"type":"function","name":"addBusiness","inputs":[{"name":"_id","type":"uint256","internalType":"uint256"},{"name":"_paramAdd","type":"address","internalType":"address"},{"name":"_tokenid","type":"uint256","internalType":"uint256"},{"name":"_qty","type":"uint256","internalType":"uint256"},{"name":"_msgValue","type":"uint256","internalType":"uint256"},{"name":"_type","type":"uint256","internalType":"uint256"}],"outputs":[],"stateMutability":"nonpayable"},{"type":"function","name":"claimIncome","inputs":[{"name":"_id","type":"uint256","internalType":"uint256"},{"name":"_maxint","type":"uint256","internalType":"uint256"}],"outputs":[{"name":"","type":"uint256","internalType":"uint256"},{"name":"","type":"uint256","internalType":"uint256"}],"stateMutability":"nonpayable"},{"type":"function","name":"compileRoyality","inputs":[],"outputs":[],"stateMutability":"nonpayable"},{"type":"function","name":"getBalance","inputs":[],"outputs":[{"name":"","type":"uint256","internalType":"uint256"}],"stateMutability":"view"},{"type":"function","name":"getBatchRankCounts","inputs":[{"name":"ag","type":"uint256","internalType":"uint256"}],"outputs":[{"name":"counts","type":"uint256[8]","internalType":"uint256[8]"}],"stateMutability":"view"},{"type":"function","name":"getDownlineCountByLevel","inputs":[{"name":"uid","type":"uint256","internalType":"uint256"},{"name":"lvl","type":"uint256","internalType":"uint256"}],"outputs":[{"name":"","type":"uint256","internalType":"uint256"}],"stateMutability":"view"},{"type":"function","name":"getHexbase","inputs":[],"outputs":[{"name":"","type":"address","internalType":"address"}],"stateMutability":"view"},{"type":"function","name":"getNode","inputs":[{"name":"_id","type":"uint256","internalType":"uint256"}],"outputs":[{"name":"_i","type":"uint256","internalType":"uint256"},{"name":"_node","type":"address","internalType":"address"},{"name":"_pid","type":"uint256","internalType":"uint256"},{"name":"_inst","type":"address","internalType":"address"},{"name":"_stor","type":"address","internalType":"address"},{"name":"_active","type":"bool","internalType":"bool"},{"name":"_direcCount","type":"uint256","internalType":"uint256"}],"stateMutability":"view"},{"type":"function","name":"getNodeChild","inputs":[{"name":"_id","type":"uint256","internalType":"uint256"},{"name":"inx","type":"uint256","internalType":"uint256"}],"outputs":[{"name":"child","type":"uint256","internalType":"uint256"}],"stateMutability":"view"},{"type":"function","name":"getNodeDirectsCount","inputs":[{"name":"_id","type":"uint256","internalType":"uint256"}],"outputs":[{"name":"count","type":"uint256","internalType":"uint256"}],"stateMutability":"view"},{"type":"function","name":"getNodeParent","inputs":[{"name":"_user","type":"address","internalType":"address"}],"outputs":[{"name":"","type":"uint256","internalType":"uint256"},{"name":"","type":"address","internalType":"address"}],"stateMutability":"view"},{"type":"function","name":"getNodeParentId","inputs":[{"name":"_id","type":"uint256","internalType":"uint256"}],"outputs":[{"name":"","type":"uint256","internalType":"uint256"}],"stateMutability":"view"},{"type":"function","name":"getNodesCount","inputs":[],"outputs":[{"name":"nodesCount","type":"uint256","internalType":"uint256"}],"stateMutability":"view"},{"type":"function","name":"getRoyalityAmountBatch","inputs":[{"name":"ag","type":"uint256","internalType":"uint256"}],"outputs":[{"name":"royal","type":"uint256[7]","internalType":"uint256[7]"}],"stateMutability":"view"},{"type":"function","name":"getTeamSize","inputs":[{"name":"uid","type":"uint256","internalType":"uint256"}],"outputs":[{"name":"","type":"uint256","internalType":"uint256"}],"stateMutability":"view"},{"type":"function","name":"getTotalTeamSizeWithLevel","inputs":[{"name":"_user","type":"address","internalType":"address"},{"name":"lvl","type":"uint256","internalType":"uint256"}],"outputs":[{"name":"","type":"uint256","internalType":"uint256"},{"name":"","type":"uint256","internalType":"uint256"}],"stateMutability":"view"},{"type":"function","name":"getUserIdToInst","inputs":[{"name":"_id","type":"uint256","internalType":"uint256"}],"outputs":[{"name":"","type":"address","internalType":"address"}],"stateMutability":"view"},{"type":"function","name":"getUserIdToStor","inputs":[{"name":"_id","type":"uint256","internalType":"uint256"}],"outputs":[{"name":"","type":"address","internalType":"address"}],"stateMutability":"view"},{"type":"function","name":"getUserToInst","inputs":[{"name":"node","type":"address","internalType":"address"}],"outputs":[{"name":"","type":"address","internalType":"address"}],"stateMutability":"view"},{"type":"function","name":"getUserToStor","inputs":[{"name":"_user","type":"address","internalType":"address"}],"outputs":[{"name":"","type":"address","internalType":"address"}],"stateMutability":"view"},{"type":"function","name":"getbusiness","inputs":[{"name":"ag","type":"uint256","internalType":"uint256"}],"outputs":[{"name":"","type":"uint256","internalType":"uint256"}],"stateMutability":"view"},{"type":"function","name":"getjoining","inputs":[{"name":"ag","type":"uint256","internalType":"uint256"}],"outputs":[{"name":"","type":"uint256","internalType":"uint256"}],"stateMutability":"view"},{"type":"function","name":"getrankCount","inputs":[{"name":"ag","type":"uint256","internalType":"uint256"},{"name":"rnk","type":"uint256","internalType":"uint256"}],"outputs":[{"name":"count","type":"uint256","internalType":"uint256"}],"stateMutability":"view"},{"type":"function","name":"getwithdrawn","inputs":[{"name":"ag","type":"uint256","internalType":"uint256"}],"outputs":[{"name":"","type":"uint256","internalType":"uint256"}],"stateMutability":"view"},{"type":"function","name":"importBusiness","inputs":[{"name":"_amt","type":"uint256","internalType":"uint256"},{"name":"_ag","type":"uint256","internalType":"uint256"}],"outputs":[],"stateMutability":"nonpayable"},{"type":"function","name":"importJoining","inputs":[{"name":"_cnt","type":"uint256","internalType":"uint256"},{"name":"_ag","type":"uint256","internalType":"uint256"}],"outputs":[],"stateMutability":"nonpayable"},{"type":"function","name":"importOld","inputs":[{"name":"_id","type":"uint256","internalType":"uint256"},{"name":"_limit","type":"uint256","internalType":"uint256"}],"outputs":[],"stateMutability":"payable"},{"type":"function","name":"importRankNBusiness","inputs":[{"name":"from","type":"uint256","internalType":"uint256"},{"name":"to","type":"uint256","internalType":"uint256"}],"outputs":[],"stateMutability":"nonpayable"},{"type":"function","name":"importWithdrawal","inputs":[{"name":"_amt","type":"uint256","internalType":"uint256"},{"name":"_ag","type":"uint256","internalType":"uint256"}],"outputs":[],"stateMutability":"nonpayable"},{"type":"function","name":"isNode","inputs":[{"name":"_id","type":"uint256","internalType":"uint256"}],"outputs":[{"name":"","type":"bool","internalType":"bool"}],"stateMutability":"view"},{"type":"function","name":"isUserExists","inputs":[{"name":"node","type":"address","internalType":"address"}],"outputs":[{"name":"","type":"bool","internalType":"bool"}],"stateMutability":"view"},{"type":"function","name":"join","inputs":[{"name":"_parent","type":"address","internalType":"address"},{"name":"_user","type":"address","internalType":"address"}],"outputs":[{"name":"_id","type":"uint256","internalType":"uint256"},{"name":"_stor","type":"address","internalType":"address"}],"stateMutability":"nonpayable"},{"type":"function","name":"joinImport","inputs":[{"name":"_parent","type":"address","internalType":"address"},{"name":"_user","type":"address","internalType":"address"}],"outputs":[{"name":"_id","type":"uint256","internalType":"uint256"},{"name":"_stor","type":"address","internalType":"address"}],"stateMutability":"nonpayable"},{"type":"function","name":"moveDownline","inputs":[{"name":"_id","type":"uint256","internalType":"uint256"},{"name":"parent","type":"address","internalType":"address"},{"name":"_op","type":"bool","internalType":"bool"}],"outputs":[],"stateMutability":"nonpayable"},{"type":"function","name":"nodes","inputs":[{"name":"","type":"uint256","internalType":"uint256"}],"outputs":[{"name":"","type":"address","internalType":"address"}],"stateMutability":"view"},{"type":"function","name":"owner","inputs":[],"outputs":[{"name":"","type":"address","internalType":"address"}],"stateMutability":"view"},{"type":"function","name":"setDefaultRankCount","inputs":[{"name":"_limit","type":"uint256","internalType":"uint256"}],"outputs":[],"stateMutability":"nonpayable"},{"type":"function","name":"systemAge","inputs":[],"outputs":[{"name":"","type":"uint256","internalType":"uint256"}],"stateMutability":"view"},{"type":"function","name":"updateUsers","inputs":[{"name":"from","type":"address","internalType":"address"},{"name":"to","type":"address","internalType":"address"}],"outputs":[{"name":"_id","type":"uint256","internalType":"uint256"},{"name":"_stor","type":"address","internalType":"address"},{"name":"_parent","type":"address","internalType":"address"}],"stateMutability":"nonpayable"},{"type":"event","name":"EthBurned","inputs":[{"name":"sender","type":"address","indexed":true,"internalType":"address"},{"name":"amount","type":"uint256","indexed":false,"internalType":"uint256"}],"anonymous":false},{"type":"event","name":"EthTransferred","inputs":[{"name":"to","type":"address","indexed":true,"internalType":"address"},{"name":"amount","type":"uint256","indexed":false,"internalType":"uint256"}],"anonymous":false},{"type":"event","name":"HexBaseUpdated","inputs":[{"name":"previousHexBase","type":"address","indexed":true,"internalType":"address"},{"name":"newHexBase","type":"address","indexed":true,"internalType":"address"}],"anonymous":false},{"type":"event","name":"OwnerUpdated","inputs":[{"name":"previousOwner","type":"address","indexed":true,"internalType":"address"},{"name":"newOwner","type":"address","indexed":true,"internalType":"address"}],"anonymous":false},{"type":"error","name":"FailedDeployment","inputs":[]},{"type":"error","name":"InsufficientBalance","inputs":[{"name":"balance","type":"uint256","internalType":"uint256"},{"name":"needed","type":"uint256","internalType":"uint256"}]},{"type":"error","name":"ReentrancyGuardReentrantCall","inputs":[]},{"type":"error","name":"TargetCallFailed","inputs":[{"name":"selector","type":"bytes4","internalType":"bytes4"}]}],"bytecode":{"object":"0x608034620000d157601f6200473138819003918201601f19168301916001600160401b03831184841017620000d657808492602094604052833981010312620000d157516001600160a01b03811690819003620000d15780156200008c5760018060a01b031933816001541617600155600054161760005560016003556040516146449081620000ed8239f35b60405162461bcd60e51b815260206004820152601360248201527f6f776e2e696e76616c69642e68657862617365000000000000000000000000006044820152606490fd5b600080fd5b634e487b7160e01b600052604160045260246000fdfe60806040526004361015610018575b361561001657005b005b60003560e01c8063033eeffb146103085780630e5fd00b1461030357806312065fe0146102fe5780631bb49f02146102f95780631c53c280146102f45780631f185d16146102ef5780632a687c87146102ea5780632fefc0bf146102e557806332ff4eab146102e057806333b59a5b146102db5780633a7b55b8146102d65780633b9b7955146102d15780633baee0ea146102cc578063419cb27b146102c757806342cc9d57146102c257806344585097146102bd578063477968f2146102b85780634f0f4aa9146102b3578063509222cd146102ae57806350db85d1146102a957806361ea7208146102a4578063629d671e1461029f5780636a8112441461029a57806376fe6c451461029557806380f85e3314610290578063849c22ad1461028b578063896c354a146102865780638da5cb5b1461028157806395f72f491461027c57806398b3f21514610277578063a1f7f53914610272578063a87af7691461026d578063a89d693b14610268578063af48452614610263578063b1c490791461025e578063b366335e14610259578063b90306ad14610254578063c54e44b01461024f578063c871372b1461024a578063d1e0bbc614610245578063dcb3fc4a14610240578063e01ad5fd1461023b578063e0a9bc2b14610236578063eb95c66214610231578063f3ca71241461022c578063fd38093b146102275763fdc10bc90361000e57612326565b6122b6565b61228a565b61225e565b612243565b6121a4565b611fd4565b611f9a565b611f12565b611e79565b611dc6565b611d13565b611bf2565b611bcb565b611aac565b6119b7565b6118f6565b6118ca565b611820565b6117f7565b6117b7565b611788565b61174e565b6116ff565b6112b5565b611278565b61125a565b611197565b611144565b61105a565b610ecc565b610e95565b610e66565b610e2c565b610998565b610947565b6107db565b610703565b610659565b610622565b610573565b61044e565b61041a565b6103b5565b610399565b61034a565b3461033457602036600319011261033457600435600052600b6020526020604060002054604051908152f35b600080fd5b6001600160a01b0381160361033457565b3461033457602036600319011261033457602060043561036981610339565b60018060a01b03809116600052600482526040600020546000526007825260046040600020015416604051908152f35b3461033457600036600319011261033457602047604051908152f35b34610334576020366003190112610334576004356103d281610339565b6001600160a01b0390811660009081526004602090815260408083205483526007825280832060020154808452600583529281902054815193845290931690820152f35b0390f35b34610334576020366003190112610334576004356000526005602052602060018060a01b0360406000205416604051908152f35b34610334576020806003193601126103345760049081359061046f82610339565b600054819061048e906001600160a01b03165b6001600160a01b031690565b604051634bf9c0ad60e11b815294859182905afa91821561056e576104e561051f93610501926104169660009261053b575b506040516001600160a01b0390911685820190815290926104f3918491602090910190565b03601f1981018452836123f1565b6104fb614168565b906143ca565b919080610531575b61051290614195565b8082518301019101613f7c565b60405190151581529081906020820190565b5081518114610509565b6104f391925061056090863d8811610567575b61055881836123f1565b81019061261c565b91906104c0565b503d61054e565b612631565b346103345760403660031901126103345761059461058f613f91565b6125db565b61059d336140bc565b80156105bb575b6105ad9061263d565b610016602435600435613d10565b50600054604051630536340960e21b8152906001600160a01b03906020908390600490829085165afa90811561056e576105ad92600092610602575b5016331490506105a4565b61061b91925060203d81116105675761055881836123f1565b90386105f7565b34610334576020366003190112610334576004356000526007602052602060018060a01b0360056040600020015416604051908152f35b346103345760403660031901126103345761067561058f613f91565b61067e336140bc565b801561069c575b61068e9061263d565b610016602435600435613d64565b50600054604051630536340960e21b8152906001600160a01b03906020908390600490829085165afa90811561056e5761068e926000926106e3575b501633149050610685565b6106fc91925060203d81116105675761055881836123f1565b90386106d8565b346103345760403660031901126103345761071f61058f613f91565b610728336140bc565b8015610746575b6107389061263d565b610016602435600435613df7565b50600054604051630536340960e21b8152906001600160a01b03906020908390600490829085165afa90811561056e576107389260009261078d575b50163314905061072f565b6107a691925060203d81116105675761055881836123f1565b9038610782565b60e0810192916000915b600783106107c457505050565b6001908251815260208091019201920191906107b7565b34610334576020366003190112610334576104166004356109356109256040519261080584612380565b60e0368537610831610821826000526009602052604060002090565b6001600052602052604060002090565b54845261085b61084b826000526009602052604060002090565b6002600052602052604060002090565b546020850152610888610878826000526009602052604060002090565b6003600052602052604060002090565b5460408501526108b56108a5826000526009602052604060002090565b6004600052602052604060002090565b5460608501526108e26108d2826000526009602052604060002090565b6005600052602052604060002090565b54608085015261090f6108ff826000526009602052604060002090565b6006600052602052604060002090565b5460a08501526000526009602052604060002090565b6007600052602052604060002090565b5460c0820152604051918291826107ad565b34610334576000366003190112610334576000546040516001600160a01b039091168152602090f35b60409060031901126103345760043561098881610339565b9060243561099581610339565b90565b34610334576109f76109a936610970565b6109b16125b8565b6109ca6109bc612442565b6109c461245a565b33614464565b91610a186109e16109d9612442565b6109c461247d565b6001600160a01b039584871695871686146124a5565b6000548690610a109082166001600160a01b0316610482565b9116146124f1565b610a23831515612e50565b6001600160a01b038216600090815260046020526040902054158015610e21575b610a4d90612e92565b6001600160a01b0381166000908152600460205260409020610a7190541515612ed5565b610ab46005610aa6610a958460018060a01b03166000526004602052604060002090565b546000526007602052604060002090565b01546001600160a01b031690565b6040805163880cdc3160e01b6020808301919091526001600160a01b03861660248084019190915282529196919592601f1991610afb91610af66044836123f1565b614553565b50610b236104826004610aa6610a958860018060a01b03166000526004602052604060002090565b15610ce857610c4095610b8091610af6610b576004610aa6610a958a60018060a01b03166000526004602052604060002090565b8a5162e6724f60e21b948101949094523360248501529183604481015b039081018452836123f1565b505b6001600160a01b0383811660009081526004602090815260408083205493881683528083208490559282526005905220610bd89085905b80546001600160a01b0319166001600160a01b03909216919091179055565b610c1d336004610bfd610a958860018060a01b03166000526004602052604060002090565b0180546001600160a01b0319166001600160a01b03909216919091179055565b821603610cca575b506001600160a01b0316600090815260046020526040902090565b54610416610c5d6005610aa6846000526007602052604060002090565b92610c99610c8c6002610c7a866000526007602052604060002090565b01546000526005602052604060002090565b546001600160a01b031690565b90610ca46001600355565b519283526001600160a01b03938416602084015290921660408201529081906060820190565b6001600160a01b031660009081526004602052604081205538610c25565b600054600496908190610d03906001600160a01b0316610482565b895163111ea8c160e21b815298899182905afa96871561056e57610c4097610d6791600091610e04575b5089516001600160a01b038816848201908152909190610d599083906020015b038681018452836123f1565b610d61612f21565b90614464565b838116151580610dfa575b610d7f575b505050610b82565b8851634fb2e45d60e01b83820152336024820152610df193610af691610db990610db38160448101038481018352826123f1565b84614553565b508a5193630a3e884b60e41b9085015283610b7460248201906007606060808401936000815260006020820152600060408201520152565b50388080610d77565b5080311515610d72565b610e1b9150833d85116105675761055881836123f1565b38610d2d565b508084168314610a44565b34610334576020366003190112610334576020610e5c600435600052600760205260ff6001604060002001541690565b6040519015158152f35b346103345760203660031901126103345760043560005260076020526020600360406000200154604051908152f35b34610334576020366003190112610334576004356000526007602052602060018060a01b0360046040600020015416604051908152f35b346103345760008060031936011261105757610eee610ee96141da565b600255565b610f04600254610eff811515613afd565b612890565b8154610f18906001600160a01b0316610482565b90604051809263cfbffe5360e01b825281600460209586935afa90811561056e57610f6d91610f5f91869161103a575b50610f51613b3e565b610f5961242f565b9161439f565b838082518301019101613b77565b610f8182600052600c602052604060002090565b5460015b6007811115610f92578580f35b80610fbd61102692610fae876000526008602052604060002090565b90600052602052604060002090565b54801561103457610fd6610fd083612890565b86613bf4565b5187815192831561102b57610ffd61100292610ff5611008968a613c16565b940151613c05565b613c16565b90613c29565b61102082610fae886000526009602052604060002090565b55612a92565b610f85565b50505050612a92565b50612a92565b6110519150853d87116105675761055881836123f1565b38610f48565b80fd5b3461033457602036600319011261033457600435806000526007602052604060002054600560205261041660018060a01b03806040600020541693600760205260406000209160046002840154930154166110c46005610aa6846000526007602052604060002090565b9060036110fc6110eb60016110e3876000526007602052604060002090565b015460ff1690565b946000526007602052604060002090565b0154604080519788526001600160a01b03988916602089015287019490945286166060860152909416608084015292151560a083015260c082019290925290819060e0820190565b346103345760203660031901126103345760043561116181610339565b60018060a01b031660005260046020526040600020546000526007602052602060ff600160406000200154166040519015158152f35b34610334576111a536610970565b6111b061058f613f91565b6111b9336140bc565b80156111ed575b916111cd6111d29361263d565b612689565b604080519283526001600160a01b0391909116602083015290f35b50600054604051630536340960e21b81526001600160a01b0393916020908290600490829088165afa801561056e576111d2946111cd9260009261123a575b5033911614919350506111c0565b61125391925060203d81116105675761055881836123f1565b903861122c565b34610334576000366003190112610334576020600654604051908152f35b346103345760203660031901126103345760043561129581610339565b60018060a01b031660005260046020526020604060002054604051908152f35b34610334576040806003193601126103345760048035906112d46125b8565b6112f56112f060016110e3856000526007602052604060002090565b612dac565b61131a61131361048283610aa6866000526007602052604060002090565b3314612f50565b611325610ee96141da565b61133e6005610aa6846000526007602052604060002090565b906002549284519361139b61138d60209663015042f960e11b8882015280611379602495863587840160209093929193604081019481520152565b0396610af6601f19988981018452836123f1565b868082518301019101613631565b938451956113ae818701978851906125ab565b946113be898801968751906125ab565b936113cf60608901958651906125ab565b946113e060808a01968751906125ab565b996113f96113f460e08c019c8d51906125ab565b613cb6565b8951611657575b80516115ae575b508051611507575b508451611450575b89896104168961142c8a60c08e0151906136ab565b5191519261143a6001600355565b5191825260208201929092529081906040820190565b6000549497939594929392849061146f906001600160a01b0316610482565b8b516313b92d3560e31b815293849182905afa97881561056e576104169861142c9760c0968d6114d6966000946114e0575b509351935163a9059cbb60e01b9181019190915233948101948552602085019390935291929091610af6918490604001610b74565b5094829338611417565b610af69450906114ff610b7492843d86116105675761055881836123f1565b9450906114a1565b60005483908590611520906001600160a01b0316610482565b8d51635506ee0b60e11b815292839182905afa91821561056e57611586928d61157a9360009261158d575b509151915163a9059cbb60e01b88820152338682019081526020810193909352929091610af691849160400190565b038881018452836123f1565b503861140f565b610af692506115a890893d8b116105675761055881836123f1565b9161154b565b600054849086908e906115c9906001600160a01b0316610482565b90516330125cf560e01b815292839182905afa91821561056e5761162f928e61162393600092611636575b509151915163a9059cbb60e01b89820152338782019081526020810193909352929091610af691849160400190565b038981018452836123f1565b5038611407565b610af69250611651908a3d8c116105675761055881836123f1565b916115f4565b600054849086908e90611672906001600160a01b0316610482565b9051636402742760e01b815292839182905afa801561056e578b6116cc918f6116d8946000926116de575b509151915163a9059cbb60e01b8a820152338882019081526020810193909352929091610af691849160400190565b038a81018452836123f1565b50611400565b610af692506116f9908b3d8d116105675761055881836123f1565b9161169d565b3461033457602036600319011261033457602060043561171e81610339565b60018060a01b03809116600052600482526040600020546000526007825260056040600020015416604051908152f35b3461033457604036600319011261033457600435600052600860205260406000206024356000526020526020604060002054604051908152f35b346103345760203660031901126103345760043560005260076020526020600260406000200154604051908152f35b3461033457604036600319011261033457600435600052600760205260206117e86024356003604060002001612c85565b90549060031b1c604051908152f35b34610334576000366003190112610334576001546040516001600160a01b039091168152602090f35b346103345760403660031901126103345761183c61058f613f91565b611845336140bc565b8015611863575b6118559061263d565b610016602435600435613d3a565b50600054604051630536340960e21b8152906001600160a01b03906020908390600490829085165afa90811561056e57611855926000926118aa575b50163314905061184c565b6118c391925060203d81116105675761055881836123f1565b903861189f565b3461033457602036600319011261033457600435600052600f6020526020604060002054604051908152f35b346103345760003660031901126103345760005460405163d1f956b160e01b815290602090829060049082906001600160a01b03165afa90811561056e576104169161197f9160009161198f575b506040516119518161239c565b601381527267657464656c656761746f72436f756e74282960681b602082015261197961242f565b916144e4565b6040519081529081906020820190565b6119a7915060203d81116105675761055881836123f1565b38611944565b8015150361033457565b34610334576060366003190112610334576024356119d481610339565b6044356119e0816119ad565b6119eb61058f613f91565b6119f4336140bc565b8015611a10575b91611a086100169361263d565b6004356130d6565b50600054604051630536340960e21b81526001600160a01b0393916020908290600490829088165afa801561056e5761001694611a0892600092611a5d575b5033911614919350506119fb565b611a7691925060203d81116105675761055881836123f1565b9038611a4f565b610100810192916000915b60088310611a9557505050565b600190825181526020809101920192019190611a88565b3461033457602036600319011261033457610416600435611bb9610925611ad1613c49565b92611af8611ae9826000526008602052604060002090565b60008052602052604060002090565b548452611b12610821826000526008602052604060002090565b546020850152611b2f61084b826000526008602052604060002090565b546040850152611b4c610878826000526008602052604060002090565b546060850152611b696108a5826000526008602052604060002090565b546080850152611b866108d2826000526008602052604060002090565b5460a0850152611ba36108ff826000526008602052604060002090565b5460c08501526000526008602052604060002090565b5460e082015260405191829182611a7d565b34610334576020366003190112610334576020610e5c600435611bed81610339565b6140bc565b3461033457611c9f611c0336610970565b90611c0c6125b8565b611c55611c1a6109bc612442565b611c256109d9612442565b906001600160a01b0390611c3e908216868316146124a5565b600054610a109082166001600160a01b0316610482565b611c81611c7c60016110e3610a958560018060a01b03166000526004602052604060002090565b612536565b611c8c610ee96141da565b611c986002805461289f565b3390612aa1565b611cb8611ae96002546000526008602052604060002090565b611cc28154612598565b9055611ccc613ce2565b611ce56005610aa6836000526007602052604060002090565b90611cef81612df0565b611cf96001600355565b604080519182526001600160a01b03929092166020820152f35b3461033457602036600319011261033457611d2f61058f613f91565b611d38336140bc565b8015611d53575b611d489061263d565b61001660043561287d565b50600054600490602090611d6f906001600160a01b0316610482565b604051630536340960e21b815292839182905afa801561056e57611d4891600091611da8575b506001600160a01b031633149050611d3f565b611dc0915060203d81116105675761055881836123f1565b38611d95565b3461033457602036600319011261033457600054604051630536340960e21b8152906001600160a01b03906020908390600490829085165afa91821561056e57600092611e59575b5033911603611e22576100166004356142ce565b60405162461bcd60e51b815260206004820152600f60248201526e6f776e2e6e6f6e617574682e44414f60881b6044820152606490fd5b611e7291925060203d81116105675761055881836123f1565b9038611e0e565b3461033457602036600319011261033457600435611e9681610339565b803b6000611ea382612413565b92611eb160405194856123f1565b82845260208401903c602d815110611ed757602a015160405160609190911c8152602090f35b60405162461bcd60e51b81526020600482015260136024820152724e6f742061206d696e696d616c2070726f787960681b6044820152606490fd5b604036600319011261033457600435611f296125b8565b611f316141da565b6002556000908082526007602052611f5260ff600160408520015416612dac565b81526007602052611f9160018060a01b036005604084200154166040519062a0e53360e51b6020830152602435602483015260248252610af68261235f565b50600160035580f35b3461033457604036600319011261033457600435600052600a60205260406000206024356000526020526020604060002054604051908152f35b346103345760c036600319011261033457602435600435611ff482610339565b60643590608435906120046125b8565b6120206112f060016110e3846000526007602052604060002090565b61203f6113136104826004610aa6856000526007602052604060002090565b61204a610ee96141da565b6120566002805461289f565b61205f82613c5e565b61206883613c8a565b6120e76120d961137961208a6005610aa6866000526007602052604060002090565b604051634996516b60e11b6020808301919091526001600160a01b039099166024820152604480359082015260648101889052608481019690965260a4803590870152969490819060c4820190565b838082518301019101612f9c565b9281612104575b50506120fa93506138e1565b6100166001600355565b60005460049291908190612120906001600160a01b0316610482565b604051635e09dbe760e01b815294859182905afa801561056e576120fa9761217b94600092612183575b5060405163a9059cbb60e01b9381019390935233602484015260448301939093529091610af6908360648101610b74565b5038806120ee565b610af6925061219e90843d86116105675761055881836123f1565b9161214a565b346103345760208060031936011261033457600480356121c381610339565b60005460405163d1f956b160e01b81526001600160a01b03949093909182918591829088165afa90811561056e576104169461051f94600093612224575b5060405193168184015282526122168261239c565b61221e614265565b906144a8565b61223c919350823d84116105675761055881836123f1565b9138612201565b34610334576000366003190112610334576020610e5c613f91565b3461033457602036600319011261033457600435600052600c6020526020604060002054604051908152f35b3461033457602036600319011261033457600435600052600e6020526020604060002054604051908152f35b3461033457604080600319360112610334576004356122d481610339565b6001600160a01b0316600081815260046020818152848320548352600b815284832054938352908152838220548252600a81528382206024358352815290839020549251918252810191909152604090f35b346103345760003660031901126103345760206123416141da565b604051908152f35b634e487b7160e01b600052604160045260246000fd5b6060810190811067ffffffffffffffff82111761237b57604052565b612349565b60e0810190811067ffffffffffffffff82111761237b57604052565b6040810190811067ffffffffffffffff82111761237b57604052565b6020810190811067ffffffffffffffff82111761237b57604052565b610100810190811067ffffffffffffffff82111761237b57604052565b90601f8019910116810190811067ffffffffffffffff82111761237b57604052565b67ffffffffffffffff811161237b57601f01601f191660200190565b6040519061243c826123b8565b60008252565b60405161244e816123b8565b60008152906000368137565b604051906124678261239c565b60078252666f776e6572282960c81b6020830152565b6040519061248a8261239c565b600c82526b67657448657862617365282960a01b6020830152565b156124ac57565b60405162461bcd60e51b815260206004820152601760248201527f6e65737465642e696e76616c69642e696e7374616e63650000000000000000006044820152606490fd5b156124f857565b60405162461bcd60e51b81526020600482015260166024820152756e65737465642e696e76616c69642e6865786261736560501b6044820152606490fd5b1561253d57565b60405162461bcd60e51b815260206004820152601860248201527f6e65737465642e706172656e742e6e6f742e65786973747300000000000000006044820152606490fd5b634e487b7160e01b600052601160045260246000fd5b90600182018092116125a657565b612582565b919082018092116125a657565b6002600354146125c9576002600355565b604051633ee5aeb560e01b8152600490fd5b156125e257565b60405162461bcd60e51b81526020600482015260126024820152716f776e2e696e76616c69642e69735361666560701b6044820152606490fd5b90816020910312610334575161099581610339565b6040513d6000823e3d90fd5b1561264457565b60405162461bcd60e51b815260206004820152601b60248201527f6f776e2e6e6f6e617574682e44414f6f725365637572656261736500000000006044820152606490fd5b612736929161273c60049261269c6125b8565b6126cf6126ca6126c660016110e3610a958860018060a01b03166000526004602052604060002090565b1590565b612a4e565b6126e26126dd600654612a92565b600655565b60065495869161270085610bb9856000526005602052604060002090565b6001600160a01b038516600090815260046020526040902083905b556001600160a01b0316600090815260046020526040902090565b54612ce3565b61276582612754866000526007602052604060002090565b0180546001600160a01b0319169055565b60005460209061277d906001600160a01b0316610482565b60405163e09d394d60e01b815293849182905afa801561056e576127b06127c6916128309460009161285f575b50612c07565b6005610bfd876000526007602052604060002090565b6127df6005610aa6866000526007602052604060002090565b600054610af6906127f8906001600160a01b0316610482565b6040516352902c5960e01b60208201526001600160a01b039182166024820152931660448401526064830186905282608481016104e5565b506000828152600760205260409020600501546001600160a01b03169161285681612df0565b91906001600355565b612877915060203d81116105675761055881836123f1565b386127aa565b61288e906128896141da565b61289f565b565b6000198101919082116125a657565b906128b7611ae9836000526008602052604060002090565b541580612a44575b80612a3b575b6128cd575050565b6128e9906128e36128dd84612890565b91612890565b9061289f565b612908611ae96128f883612890565b6000526008602052604060002090565b54612920611ae9836000526008602052604060002090565b556129306108216128f883612890565b54612948610821836000526008602052604060002090565b5561295861084b6128f883612890565b5461297061084b836000526008602052604060002090565b556129806108786128f883612890565b54612998610878836000526008602052604060002090565b556129a86108a56128f883612890565b546129c06108a5836000526008602052604060002090565b556129d06108d26128f883612890565b546129e86108d2836000526008602052604060002090565b556129f86108ff6128f883612890565b54612a106108ff836000526008602052604060002090565b55612a38610925612a266109256128f885612890565b54926000526008602052604060002090565b55565b508015156128c5565b50600182116128bf565b15612a5557565b60405162461bcd60e51b81526020600482015260156024820152746e65737465642e616c72656164792e65786973747360581b6044820152606490fd5b60001981146125a65760010190565b91612b39600492612b2461273695612ad96126ca6126c660016110e3610a958a60018060a01b03166000526004602052604060002090565b612ae76126dd600654612a92565b600654968791612b0587610bb9856000526005602052604060002090565b6001600160a01b0387166000908152600460205260409020839061271b565b83610bfd866000526007602052604060002090565b600054602090612b51906001600160a01b0316610482565b60405163e09d394d60e01b815293849182905afa801561056e57612b83612b9991612c039460009161285f5750612c07565b6005610bfd866000526007602052604060002090565b612bb26005610aa6856000526007602052604060002090565b600054610af690612bcb906001600160a01b0316610482565b6040516352902c5960e01b60208201526001600160a01b039182166024820152931660448401526064830185905282608481016104e5565b5090565b6e5af43d82803e903d91602b57fd5bf390763d602d80600a3d3981f3363d3d373d3d3d363d7300000062ffffff8260881c161760005260781b17602052603760096000f0906001600160a01b03821615612c5d57565b60405163b06ebf3d60e01b8152600490fd5b634e487b7160e01b600052603260045260246000fd5b8054821015612c9d5760005260206000200190600090565b612c6f565b908154916801000000000000000083101561237b5782612cca91600161288e95018155612c85565b90919082549060031b91821b91600019901b1916179055565b91906000818152602093600785526040808320926002948386860155806001958681018760ff19825416179055558385905b612d2457505050505050509050565b612d7e612d6d82888a9414612d87575b878652600a8c528686208187528c52868620612d508154612598565b9055878652600b8c52868620612d668154612598565b9055612a92565b956000526007602052604060002090565b01549384612d15565b612da7856003612da18b6000526007602052604060002090565b01612ca2565b612d34565b15612db357565b60405162461bcd60e51b81526020600482015260156024820152746e65737465642e757365722e6e6f7461637469766560581b6044820152606490fd5b806000526007602052612e0d60ff60016040600020015416612dac565b6000526007602052612e4d60018060a01b03600560406000200154166040519062a0e53360e51b60208301526001602483015260248252610af68261235f565b50565b15612e5757565b60405162461bcd60e51b81526020600482015260136024820152726e65737465642e7a65726f2e6164647265737360681b6044820152606490fd5b15612e9957565b60405162461bcd60e51b81526020600482015260146024820152736e65737465642e7461726765742e65786973747360601b6044820152606490fd5b15612edc57565b60405162461bcd60e51b815260206004820152601760248201527f6e65737465642e736f757263652e6e6f744578697374730000000000000000006044820152606490fd5b60405190612f2e8261239c565b601382527255736572546f496e737428616464726573732960681b6020830152565b15612f5757565b60405162461bcd60e51b815260206004820152601b60248201527f6e65737465642e757365722e696e76616c6964696e7374616e636500000000006044820152606490fd5b9190826040910312610334576020825192015190565b15612fb957565b60405162461bcd60e51b815260206004820152601860248201527f6e65737465642e757365722e6e6f742e646574616368656400000000000000006044820152606490fd5b1561300557565b60405162461bcd60e51b815260206004820152601760248201527f6e65737465642e706172656e742e6e6f746163746976650000000000000000006044820152606490fd5b1561305157565b60405162461bcd60e51b815260206004820152601b60248201527f6e65737465642e757365722e616c726564792e646574616368656400000000006044820152606490fd5b80549081156130c057600019918201916130b08383612c85565b909182549160031b1b1916905555565b634e487b7160e01b600052603160045260246000fd5b9190916001926130f76112f0856110e3856000526007602052604060002090565b613102610ee96141da565b82613275575060029261312c84613123846000526007602052604060002090565b0154151561304a565b6000815b613158575b5050600061288e93613151836000526007602052604060002090565b01556133a6565b60038061318587613173876000526007602052604060002090565b01546000526007602052604060002090565b015482101561326f57836131bf6131b584846131af8b613173876000526007602052604060002090565b01612c85565b90549060031b1c90565b146131d457506131ce90612a92565b81613130565b600092508061324b8793612cca6132316131b58961322b8761322461288e9f6131736132699c61321283613173896000526007602052604060002090565b01956000526007602052604060002090565b0154612890565b90612c85565b91846131af886131738c6000526007602052604060002090565b61326383613173876000526007602052604060002090565b01613096565b93613135565b50613135565b61288e93506132f69061329f6002613297856000526007602052604060002090565b015415612fb2565b6001600160a01b03811660009081526004602052604090206132dc906132d79054600052600760205260ff6001604060002001541690565b612ffe565b6001600160a01b0316600090815260046020526040902090565b54600261330d836000526007602052604060002090565b015561332e816003612da16002613173846000526007602052604060002090565b6133a6565b604051906133408261239c565b600e82526d6c766c62732875696e743235362960901b6020830152565b6040519061336a8261239c565b600f82526e6c766c7174792875696e743235362960881b6020830152565b60ff1660ff81146125a65760010190565b80156125a6576000190190565b6134556005916133c483610aa6836000526007602052604060002090565b6040805191613403602093806133e1868201906000602083019252565b03926133f5601f19948581018452836123f1565b6133fd613333565b906144e4565b9161343f61341f88610aa6886000526007602052604060002090565b82519061343782610d4d898201906000602083019252565b6133fd61335d565b9460029687916000526007602052604060002090565b0154946001978896875b613471575b5050505050505050505050565b600f60ff8916111580613628575b156136235788878c868b878b886134a761048282610aa68c6000526007602052604060002090565b6134d9575b505050505050506134ca6134d2926000526007602052604060002090565b015497613388565b968961345f565b948894610af69461356398946116cc94600361351b61350a6135719e9c610aa68d6000526007602052604060002090565b9a6000526007602052604060002090565b015499549351998a9763393a9f9560e01b908901526024880194919360ff9197969360a09560c088019988526020880152604087015216606085015260808401521515910152565b888082518301019101612f9c565b908c156135d457908a915b80821161359c5750506134ca6134d2925b925050878c868b878b886134ac565b6135a7919250612a92565b6135c081610fae8d546000526008602052604060002090565b6135ca8154612598565b9055908a9161357c565b908a915b8181116135ed5750506134ca6134d29261358d565b61360a81610fae61361b9495546000526008602052604060002090565b6136148154612890565b9055613399565b908a916135d8565b613464565b5080151561347f565b9061010080838303126103345781601f840112156103345760405192613656846123d4565b8391810192831161033457905b8282106136705750505090565b8151815260209182019101613663565b6040519061368d8261239c565b600f82526e66726565496e74657276616c73282960881b6020830152565b600080549293926136c4906001600160a01b0316610482565b9060409182519586809263cfbffe5360e01b8252602098899160049586915afa801561056e576137079185916138c4575b506136fe612442565b906133fd613680565b93839484965b600f881115806138bb575b156138af57600561373a61048282610aa6856000526007602052604060002090565b613767575b506002613759613761926000526007602052604060002090565b015497612a92565b9661370d565b84898c8a86888415968715806138a6575b801561389f575b613790575b5050505050505061373f565b936104e561383296948a94610af69460036137d06137bf6138249b610aa68b6000526007602052604060002090565b986000526007602052604060002090565b01549760029b8c549251998a9763645d0aa760e11b90890152602488019260e0949197969592610100850198855260006020860152600060408601526060850152608084015260a083015260c08201520152565b8d8082518301019101612f9c565b92613896575b8915613886575b8083116138535750898c8a86888a95613784565b61385c90612a92565b61387581610fae84546000526008602052604060002090565b61387f8154612598565b905561383f565b87831061383f579850819861383f565b98508198613838565b508d61377f565b50861515613778565b50505050505050509050565b50801515613718565b6138db9150893d8b116105675761055881836123f1565b386136f5565b60005491939290916138fb906001600160a01b0316610482565b936004602060409687519283809263cfbffe5360e01b82525afa801561056e5761392f91600091613ae457506136fe612442565b6000956000945b600f86111580613adb575b15613ad15784848988600561396761048282610aa6896000526007602052604060002090565b613998575b5050505050600261398a613992926000526007602052604060002090565b015495612a92565b94613936565b81151580613ac9575b8015613ac0575b1561396c5791610af6613a5094926104e56139d4613a4196610aa68b6000526007602052604060002090565b938b8b60036139ed8d6000526007602052604060002090565b01549460029b8c549251998a9763645d0aa760e11b60208a01526024890193909796959260e0959261010086019986526020860152604085015260006060850152608084015260a083015260c08201520152565b60208082518301019101612f9c565b91908815613ab7575b8a15613aa6575b808311613a73575050848988889361396c565b613a7c90612a92565b613a9581610fae84546000526008602052604060002090565b613a9f8154612598565b9055613a60565b60048310613a605799508199613a60565b99508199613a59565b508315156139a8565b5060006139a1565b5050505050509050565b50801515613941565b6138db915060203d6020116105675761055881836123f1565b15613b0457565b60405162461bcd60e51b81526020600482015260126024820152716e65737465642e696e76616c69642e61676560701b6044820152606490fd5b60405190613b4b8261239c565b601882527f6765744261746368526f79616c7479436c6175736573282900000000000000006020830152565b6102a09081818403126103345782601f82011215610334576040805193613b9d85612380565b849383019281841161033457935b838510613bba57505050505090565b606085830312610334578251606091613bd28261235f565b8651825260209182880151838201528588015186820152815201940193613bab565b906007811015612c9d5760051b0190565b90816064029160648304036125a657565b818102929181159184041417156125a657565b8115613c33570490565b634e487b7160e01b600052601260045260246000fd5b60405190613c56826123d4565b610100368337565b60025480600052600c6020526040600020549182018092116125a657600052600c602052604060002055565b60025480600052600d6020526040600020549182018092116125a657600052600d602052604060002055565b60025480600052600e6020526040600020549182018092116125a657600052600e602052604060002055565b60025480600052600f60205260406000205490600182018092116125a657600052600f602052604060002055565b9080600052600c6020526040600020549182018092116125a657600052600c602052604060002055565b9080600052600e6020526040600020549182018092116125a657600052600e602052604060002055565b9080600052600f6020526040600020549182018092116125a657600052600f602052604060002055565b60405190613d9b8261239c565b6014825273676574627573696e6573732875696e743235362960601b6020830152565b60405190613dcb8261239c565b601d82527f67657472616e6b436f756e742875696e743235362c75696e74323536290000006020830152565b60008054909190613e10906001600160a01b0316610482565b91604092835192839163111ea8c160e21b835282600460209485935afa93841561056e578394613f11575b505b85811115613e4d57505050505050565b8451828101828152819003808252601f1991613e7e91613e7090602001826123f1565b613e78613d8e565b876144e4565b613e9d613e9584600052600c602052604060002090565b9182546125ab565b9055835b60088110613eb9575050613eb490612a92565b613e3d565b865184810184815260208101839052613f0c9291613ef491613ee6908290604001038681018352826123f1565b613eee613dbe565b896144e4565b61102082610fae876000526008602052604060002090565b613ea1565b613f29919450823d84116105675761055881836123f1565b9238613e3b565b15613f3757565b60405162461bcd60e51b815260206004820152601960248201527f6f776e2e7361666567756172642e63616c6c2e6661696c6564000000000000006044820152606490fd5b908160209103126103345751610995816119ad565b600054604051634bf9c0ad60e11b8152906020908190839060049082906001600160a01b03165afa91821561056e576109959261400791600091614022575b50604051613fdd8161239c565b6008815267697353616665282960c01b8482015260405191613ffe836123b8565b600083526143ca565b919080614018575b61051290613f30565b508151811461400f565b6140399150833d85116105675761055881836123f1565b38613fd0565b6040519061404c8261239c565b601582527469735365637572654261736528616464726573732960581b6020830152565b1561407757565b60405162461bcd60e51b815260206004820152601a60248201527f6f776e2e736563757265626173652e63616c6c2e6661696c65640000000000006044820152606490fd5b6000546001600160a01b0316604051918291634bf9c0ad60e11b835282600460209485935afa92831561056e576109959361412a926104e592600092614145575b506040516001600160a01b039091168582019081529092614122918491602090910190565b6104fb61403f565b91908061413b575b61051290614070565b5081518114614132565b61412291925061416190863d88116105675761055881836123f1565b91906140fd565b604051906141758261239c565b601182527069735369676e657228616464726573732960781b6020830152565b1561419c57565b60405162461bcd60e51b81526020600482015260166024820152751bdddb8b9cda59db995c8b98d85b1b0b99985a5b195960521b6044820152606490fd5b60005460405163111ea8c160e21b815290602090829060049082906001600160a01b03165afa801561056e5761099591600091614247575b5060405161421f8161239c565b6005815264616765282960d81b60208201526040519161423e836123b8565b600083526144e4565b61425f915060203d81116105675761055881836123f1565b38614212565b604051906142728261239c565b601882527f697364656c656761746f724e6f646528616464726573732900000000000000006020830152565b3d156142c9573d906142af82612413565b916142bd60405193846123f1565b82523d6000602084013e565b606090565b600080546040516311be646b60e21b815290602090829060049082906001600160a01b03165afa90811561056e578284819382938391614381575b505af161431461429e565b501561434a5760405190815233907fcdcc745fe377b103b45fa0cec23ae3ef93d6fc6a84a01f0d18c40b354dd1d5d890602090a2565b60405162461bcd60e51b815260206004820152600f60248201526e1bdddb8b989d5c9b8b99985a5b1959608a1b6044820152606490fd5b614399915060203d81116105675761055881836123f1565b38614309565b906143aa92916143ca565b90600090156143b7575090565b60405191506143c5826123b8565b815290565b9190823b1561444b578051906020918263ffffffff60e01b92012016916040519180830193845281519160005b838110614437575050509181614424602482600097959688970187838201520360048101845201826123f1565b5191620dbba0fa61443361429e565b9091565b8181018301518582016024015282016143f7565b50505060009060405161445d816123b8565b6000815290565b9291614472916000946143ca565b908061449d575b6144805750565b909150602081805181010312610334576020015161048281610339565b506020815114614479565b92916144b6916000946143ca565b90806144d9575b6144c45750565b61099591925060208082518301019101613f7c565b5060208151146144bd565b92916144f2916000946143ca565b9080614517575b6145005750565b909150602081805181010312610334576020015190565b5060208151146144f9565b906020825192015163ffffffff60e01b90818116936004811061454457505050565b60040360031b82901b16169150565b6001600160a01b038116156145d457600080918351908260208601915af19061457a61429e565b9115614584575090565b8051600091906004116145ce5761459b9150614522565b8151156145ab5750805190602001fd5b604051630870274d60e21b81526001600160e01b03199091166004820152602490fd5b5061459b565b60405162461bcd60e51b81526020600482015260126024820152711bdddb8b9a5b9d985b1a590b9d185c99d95d60721b6044820152606490fdfea2646970667358221220f99c8a51b7e80dc6c16024cf6ccf72ff9559eb07ae0dd88e742515f9a7ca382464736f6c63430008140033","linkReferences":{}},"methodIdentifiers":{"Burn(uint256)":"b90306ad","UserToId(address)":"629d671e","_delegatorCount()":"a1f7f539","_getImplementation(address)":"c54e44b0","_isDelegatorNode(address)":"e01ad5fd","_isSafe()":"e0a9bc2b","_isSecureBase(address)":"af484526","_isSigner(address)":"1f185d16","addBusiness(uint256,address,uint256,uint256,uint256,uint256)":"dcb3fc4a","claimIncome(uint256,uint256)":"6a811244","compileRoyality()":"477968f2","getBalance()":"12065fe0","getBatchRankCounts(uint256)":"a89d693b","getDownlineCountByLevel(uint256,uint256)":"d1e0bbc6","getHexbase()":"3b9b7955","getNode(uint256)":"4f0f4aa9","getNodeChild(uint256,uint256)":"896c354a","getNodeDirectsCount(uint256)":"42cc9d57","getNodeParent(address)":"1bb49f02","getNodeParentId(uint256)":"849c22ad","getNodesCount()":"61ea7208","getRoyalityAmountBatch(uint256)":"3a7b55b8","getTeamSize(uint256)":"033eeffb","getTotalTeamSizeWithLevel(address,uint256)":"fd38093b","getUserIdToInst(uint256)":"44585097","getUserIdToStor(uint256)":"2fefc0bf","getUserToInst(address)":"0e5fd00b","getUserToStor(address)":"76fe6c45","getbusiness(uint256)":"eb95c662","getjoining(uint256)":"98b3f215","getrankCount(uint256,uint256)":"80f85e33","getwithdrawn(uint256)":"f3ca7124","importBusiness(uint256,uint256)":"2a687c87","importJoining(uint256,uint256)":"32ff4eab","importOld(uint256,uint256)":"c871372b","importRankNBusiness(uint256,uint256)":"33b59a5b","importWithdrawal(uint256,uint256)":"95f72f49","isNode(uint256)":"419cb27b","isUserExists(address)":"509222cd","join(address,address)":"b1c49079","joinImport(address,address)":"50db85d1","moveDownline(uint256,address,bool)":"a87af769","nodes(uint256)":"1c53c280","owner()":"8da5cb5b","setDefaultRankCount(uint256)":"b366335e","systemAge()":"fdc10bc9","updateUsers(address,address)":"3baee0ea"},"id":27}