{"abi":[{"type":"constructor","inputs":[{"name":"_hex","type":"address","internalType":"address"}],"stateMutability":"nonpayable"},{"type":"fallback","stateMutability":"payable"},{"type":"receive","stateMutability":"payable"},{"type":"function","name":"Burn","inputs":[{"name":"amount","type":"uint256","internalType":"uint256"}],"outputs":[],"stateMutability":"nonpayable"},{"type":"function","name":"UserToId","inputs":[{"name":"","type":"address","internalType":"address"}],"outputs":[{"name":"","type":"uint256","internalType":"uint256"}],"stateMutability":"view"},{"type":"function","name":"_delegatorCount","inputs":[],"outputs":[{"name":"","type":"uint256","internalType":"uint256"}],"stateMutability":"view"},{"type":"function","name":"_getImplementation","inputs":[{"name":"clone","type":"address","internalType":"address"}],"outputs":[{"name":"impl","type":"address","internalType":"address"}],"stateMutability":"view"},{"type":"function","name":"_isDelegatorNode","inputs":[{"name":"sender","type":"address","internalType":"address"}],"outputs":[{"name":"","type":"bool","internalType":"bool"}],"stateMutability":"view"},{"type":"function","name":"_isSafe","inputs":[],"outputs":[{"name":"","type":"bool","internalType":"bool"}],"stateMutability":"view"},{"type":"function","name":"_isSecureBase","inputs":[{"name":"sender","type":"address","internalType":"address"}],"outputs":[{"name":"","type":"bool","internalType":"bool"}],"stateMutability":"view"},{"type":"function","name":"_isSigner","inputs":[{"name":"sender","type":"address","internalType":"address"}],"outputs":[{"name":"","type":"bool","internalType":"bool"}],"stateMutability":"view"},{"type":"function","name":"addBusiness","inputs":[{"name":"_id","type":"uint256","internalType":"uint256"},{"name":"_paramAdd","type":"address","internalType":"address"},{"name":"_tokenid","type":"uint256","internalType":"uint256"},{"name":"_qty","type":"uint256","internalType":"uint256"},{"name":"_msgValue","type":"uint256","internalType":"uint256"},{"name":"_type","type":"uint256","internalType":"uint256"}],"outputs":[],"stateMutability":"nonpayable"},{"type":"function","name":"claimIncome","inputs":[{"name":"_id","type":"uint256","internalType":"uint256"},{"name":"_maxint","type":"uint256","internalType":"uint256"}],"outputs":[{"name":"","type":"uint256","internalType":"uint256"},{"name":"","type":"uint256","internalType":"uint256"}],"stateMutability":"nonpayable"},{"type":"function","name":"closemdrequest","inputs":[{"name":"uid","type":"uint256","internalType":"uint256"}],"outputs":[],"stateMutability":"nonpayable"},{"type":"function","name":"compileRoyality","inputs":[{"name":"prevAge","type":"uint256","internalType":"uint256"}],"outputs":[],"stateMutability":"nonpayable"},{"type":"function","name":"createmdrequest","inputs":[{"name":"uid","type":"uint256","internalType":"uint256"},{"name":"newpid","type":"uint256","internalType":"uint256"}],"outputs":[],"stateMutability":"nonpayable"},{"type":"function","name":"getBalance","inputs":[],"outputs":[{"name":"","type":"uint256","internalType":"uint256"}],"stateMutability":"view"},{"type":"function","name":"getBatchRankCounts","inputs":[{"name":"ag","type":"uint256","internalType":"uint256"}],"outputs":[{"name":"counts","type":"uint256[8]","internalType":"uint256[8]"}],"stateMutability":"view"},{"type":"function","name":"getDownlineCountByLevel","inputs":[{"name":"uid","type":"uint256","internalType":"uint256"},{"name":"lvl","type":"uint256","internalType":"uint256"}],"outputs":[{"name":"","type":"uint256","internalType":"uint256"}],"stateMutability":"view"},{"type":"function","name":"getHexbase","inputs":[],"outputs":[{"name":"","type":"address","internalType":"address"}],"stateMutability":"view"},{"type":"function","name":"getNode","inputs":[{"name":"_id","type":"uint256","internalType":"uint256"}],"outputs":[{"name":"_i","type":"uint256","internalType":"uint256"},{"name":"_node","type":"address","internalType":"address"},{"name":"_pid","type":"uint256","internalType":"uint256"},{"name":"_inst","type":"address","internalType":"address"},{"name":"_stor","type":"address","internalType":"address"},{"name":"_active","type":"bool","internalType":"bool"},{"name":"_direcCount","type":"uint256","internalType":"uint256"}],"stateMutability":"view"},{"type":"function","name":"getNodeChild","inputs":[{"name":"_id","type":"uint256","internalType":"uint256"},{"name":"inx","type":"uint256","internalType":"uint256"}],"outputs":[{"name":"child","type":"uint256","internalType":"uint256"}],"stateMutability":"view"},{"type":"function","name":"getNodeDirectsCount","inputs":[{"name":"_id","type":"uint256","internalType":"uint256"}],"outputs":[{"name":"count","type":"uint256","internalType":"uint256"}],"stateMutability":"view"},{"type":"function","name":"getNodeParent","inputs":[{"name":"_user","type":"address","internalType":"address"}],"outputs":[{"name":"","type":"uint256","internalType":"uint256"},{"name":"","type":"address","internalType":"address"}],"stateMutability":"view"},{"type":"function","name":"getNodeParentId","inputs":[{"name":"_id","type":"uint256","internalType":"uint256"}],"outputs":[{"name":"","type":"uint256","internalType":"uint256"}],"stateMutability":"view"},{"type":"function","name":"getNodesCount","inputs":[],"outputs":[{"name":"nodesCount","type":"uint256","internalType":"uint256"}],"stateMutability":"view"},{"type":"function","name":"getRoyalityAmountBatch","inputs":[{"name":"ag","type":"uint256","internalType":"uint256"}],"outputs":[{"name":"royal","type":"uint256[7]","internalType":"uint256[7]"}],"stateMutability":"view"},{"type":"function","name":"getTeamSize","inputs":[{"name":"uid","type":"uint256","internalType":"uint256"}],"outputs":[{"name":"","type":"uint256","internalType":"uint256"}],"stateMutability":"view"},{"type":"function","name":"getTotalTeamSizeWithLevel","inputs":[{"name":"_user","type":"address","internalType":"address"},{"name":"lvl","type":"uint256","internalType":"uint256"}],"outputs":[{"name":"","type":"uint256","internalType":"uint256"},{"name":"","type":"uint256","internalType":"uint256"}],"stateMutability":"view"},{"type":"function","name":"getUserIdToInst","inputs":[{"name":"_id","type":"uint256","internalType":"uint256"}],"outputs":[{"name":"","type":"address","internalType":"address"}],"stateMutability":"view"},{"type":"function","name":"getUserIdToStor","inputs":[{"name":"_id","type":"uint256","internalType":"uint256"}],"outputs":[{"name":"","type":"address","internalType":"address"}],"stateMutability":"view"},{"type":"function","name":"getUserToInst","inputs":[{"name":"node","type":"address","internalType":"address"}],"outputs":[{"name":"","type":"address","internalType":"address"}],"stateMutability":"view"},{"type":"function","name":"getUserToStor","inputs":[{"name":"_user","type":"address","internalType":"address"}],"outputs":[{"name":"","type":"address","internalType":"address"}],"stateMutability":"view"},{"type":"function","name":"getbusiness","inputs":[{"name":"ag","type":"uint256","internalType":"uint256"}],"outputs":[{"name":"","type":"uint256","internalType":"uint256"}],"stateMutability":"view"},{"type":"function","name":"getjoining","inputs":[{"name":"ag","type":"uint256","internalType":"uint256"}],"outputs":[{"name":"","type":"uint256","internalType":"uint256"}],"stateMutability":"view"},{"type":"function","name":"getrankCount","inputs":[{"name":"ag","type":"uint256","internalType":"uint256"},{"name":"rnk","type":"uint256","internalType":"uint256"}],"outputs":[{"name":"count","type":"uint256","internalType":"uint256"}],"stateMutability":"view"},{"type":"function","name":"getwithdrawn","inputs":[{"name":"ag","type":"uint256","internalType":"uint256"}],"outputs":[{"name":"","type":"uint256","internalType":"uint256"}],"stateMutability":"view"},{"type":"function","name":"importBusiness","inputs":[{"name":"_amt","type":"uint256","internalType":"uint256"},{"name":"_ag","type":"uint256","internalType":"uint256"}],"outputs":[],"stateMutability":"nonpayable"},{"type":"function","name":"importJoining","inputs":[{"name":"_cnt","type":"uint256","internalType":"uint256"},{"name":"_ag","type":"uint256","internalType":"uint256"}],"outputs":[],"stateMutability":"nonpayable"},{"type":"function","name":"importOld","inputs":[{"name":"_id","type":"uint256","internalType":"uint256"},{"name":"_limit","type":"uint256","internalType":"uint256"}],"outputs":[],"stateMutability":"payable"},{"type":"function","name":"importRankNBusiness","inputs":[{"name":"from","type":"uint256","internalType":"uint256"},{"name":"to","type":"uint256","internalType":"uint256"}],"outputs":[],"stateMutability":"nonpayable"},{"type":"function","name":"importWithdrawal","inputs":[{"name":"_amt","type":"uint256","internalType":"uint256"},{"name":"_ag","type":"uint256","internalType":"uint256"}],"outputs":[],"stateMutability":"nonpayable"},{"type":"function","name":"isNode","inputs":[{"name":"_id","type":"uint256","internalType":"uint256"}],"outputs":[{"name":"","type":"bool","internalType":"bool"}],"stateMutability":"view"},{"type":"function","name":"isUserExists","inputs":[{"name":"node","type":"address","internalType":"address"}],"outputs":[{"name":"","type":"bool","internalType":"bool"}],"stateMutability":"view"},{"type":"function","name":"join","inputs":[{"name":"_parent","type":"address","internalType":"address"},{"name":"_user","type":"address","internalType":"address"}],"outputs":[{"name":"_id","type":"uint256","internalType":"uint256"},{"name":"_stor","type":"address","internalType":"address"}],"stateMutability":"nonpayable"},{"type":"function","name":"joinImport","inputs":[{"name":"_parent","type":"address","internalType":"address"},{"name":"_user","type":"address","internalType":"address"}],"outputs":[{"name":"_id","type":"uint256","internalType":"uint256"},{"name":"_stor","type":"address","internalType":"address"}],"stateMutability":"nonpayable"},{"type":"function","name":"moveDownline","inputs":[{"name":"uid","type":"uint256","internalType":"uint256"}],"outputs":[],"stateMutability":"nonpayable"},{"type":"function","name":"nodes","inputs":[{"name":"","type":"uint256","internalType":"uint256"}],"outputs":[{"name":"","type":"address","internalType":"address"}],"stateMutability":"view"},{"type":"function","name":"owner","inputs":[],"outputs":[{"name":"","type":"address","internalType":"address"}],"stateMutability":"view"},{"type":"function","name":"setDefaultRankCount","inputs":[{"name":"_limit","type":"uint256","internalType":"uint256"}],"outputs":[],"stateMutability":"nonpayable"},{"type":"function","name":"setMoveDownlineApproval","inputs":[{"name":"uid","type":"uint256","internalType":"uint256"},{"name":"newpid","type":"uint256","internalType":"uint256"}],"outputs":[],"stateMutability":"nonpayable"},{"type":"function","name":"systemAge","inputs":[],"outputs":[{"name":"","type":"uint256","internalType":"uint256"}],"stateMutability":"view"},{"type":"function","name":"updateUsers","inputs":[{"name":"from","type":"address","internalType":"address"},{"name":"to","type":"address","internalType":"address"}],"outputs":[{"name":"_id","type":"uint256","internalType":"uint256"},{"name":"_stor","type":"address","internalType":"address"},{"name":"_parent","type":"address","internalType":"address"}],"stateMutability":"nonpayable"},{"type":"event","name":"EthBurned","inputs":[{"name":"sender","type":"address","indexed":true,"internalType":"address"},{"name":"amount","type":"uint256","indexed":false,"internalType":"uint256"}],"anonymous":false},{"type":"event","name":"EthTransferred","inputs":[{"name":"to","type":"address","indexed":true,"internalType":"address"},{"name":"amount","type":"uint256","indexed":false,"internalType":"uint256"}],"anonymous":false},{"type":"event","name":"HexBaseUpdated","inputs":[{"name":"previousHexBase","type":"address","indexed":true,"internalType":"address"},{"name":"newHexBase","type":"address","indexed":true,"internalType":"address"}],"anonymous":false},{"type":"event","name":"OwnerUpdated","inputs":[{"name":"previousOwner","type":"address","indexed":true,"internalType":"address"},{"name":"newOwner","type":"address","indexed":true,"internalType":"address"}],"anonymous":false},{"type":"error","name":"FailedDeployment","inputs":[]},{"type":"error","name":"InsufficientBalance","inputs":[{"name":"balance","type":"uint256","internalType":"uint256"},{"name":"needed","type":"uint256","internalType":"uint256"}]},{"type":"error","name":"ReentrancyGuardReentrantCall","inputs":[]},{"type":"error","name":"TargetCallFailed","inputs":[{"name":"selector","type":"bytes4","internalType":"bytes4"}]}],"bytecode":{"object":"0x608034620000d157601f620056a538819003918201601f19168301916001600160401b03831184841017620000d657808492602094604052833981010312620000d157516001600160a01b03811690819003620000d15780156200008c5760018060a01b031933816001541617600155600054161760005560016003556040516155b89081620000ed8239f35b60405162461bcd60e51b815260206004820152601360248201527f6f776e2e696e76616c69642e68657862617365000000000000000000000000006044820152606490fd5b600080fd5b634e487b7160e01b600052604160045260246000fdfe60806040526004361015610018575b361561001657005b005b60003560e01c80629db65514610337578063033eeffb146103325780630e5fd00b1461032d57806312065fe0146103285780631bb49f02146103235780631c53c2801461031e5780631f185d16146103195780632a687c87146103145780632fefc0bf1461030f578063307673e81461030a57806332ff4eab1461030557806333b59a5b146103005780633a7b55b8146102fb5780633b9b7955146102f65780633baee0ea146102f1578063419cb27b146102ec57806342cc9d57146102e757806344585097146102e25780634f0f4aa9146102dd578063509222cd146102d857806350db85d1146102d357806361ea7208146102ce578063629d671e146102c957806365d2fbd3146102c45780636a811244146102bf57806376fe6c45146102ba5780637bb98498146102b557806380f85e33146102b0578063849c22ad146102ab578063896c354a146102a65780638da5cb5b146102a157806395f72f491461029c57806398b3f21514610297578063a1f7f53914610292578063a89d693b1461028d578063af48452614610288578063b1c4907914610283578063b366335e1461027e578063b90306ad14610279578063c54e44b014610274578063c871372b1461026f578063d1e0bbc61461026a578063dcb3fc4a14610265578063e01ad5fd14610260578063e0a9bc2b1461025b578063eb95c66214610256578063eb9e9e2c14610251578063f3ca71241461024c578063fd38093b146102475763fdc10bc90361000e57612b0b565b612a9b565b612a6f565b612838565b61280c565b6127f1565b612757565b612567565b61252d565b6124af565b61240d565b612351565b6122a1565b61211f565b6120f8565b611fd9565b611eec565b611ec0565b611e1a565b611df3565b611db3565b611d84565b611d4a565b611ca4565b611c54565b6116b9565b611384565b611346565b611328565b611268565b611214565b611127565b6110ef565b6110c0565b611086565b610b2d565b610ade565b610972565b61089e565b6107f8565b610727565b6106ef565b610649565b610539565b610504565b61049f565b610483565b610433565b6103f6565b346103f15760203660031901126103f157610358610353614e4a565b612e8c565b61036133614f8e565b8015610379575b61037190612ef8565b610016614833565b5060046001600160a01b036020816000541660405193848092630536340960e21b82525afa9081156103ec57610371926000926103bc575b501633149050610368565b6103de91925060203d81116103e5575b6103d68183612bb9565b810190612ed7565b90386103b1565b503d6103cc565b612eec565b600080fd5b346103f15760203660031901126103f157600435600052600b6020526020604060002054604051908152f35b6001600160a01b038116036103f157565b346103f15760203660031901126103f157602060043561045281610422565b6001600160a01b03809116600052600482526040600020546000526007825260046040600020015416604051908152f35b346103f15760003660031901126103f157602047604051908152f35b346103f15760203660031901126103f1576004356104bc81610422565b6001600160a01b0390811660009081526004602090815260408083205483526007825280832060020154808452600583529281902054815193845290931690820152f35b0390f35b346103f15760203660031901126103f157600435600052600560205260206001600160a01b0360406000205416604051908152f35b346103f1576020806003193601126103f15760049081359061055a82610422565b8061057c6105706000546001600160a01b031690565b6001600160a01b031690565b60405194858092634bf9c0ad60e11b82525afa9182156103ec576105d061060a936105ec9261050096600092610626575b506105de906040519384918783019190916001600160a01b036020820193169052565b03601f198101845283612bb9565b6105e6615038565b906152e4565b91908061061c575b6105fd90615071565b8082518301019101614e36565b60405190151581529081906020820190565b50815181146105f4565b6105de91925061064290863d88116103e5576103d68183612bb9565b91906105ad565b346103f15760403660031901126103f157610665610353614e4a565b61066e33614f8e565b801561068c575b61067e90612ef8565b610016602435600435614bcc565b5060046001600160a01b036020816000541660405193848092630536340960e21b82525afa9081156103ec5761067e926000926106cf575b501633149050610675565b6106e891925060203d81116103e5576103d68183612bb9565b90386106c4565b346103f15760203660031901126103f157600435600052600760205260206001600160a01b0360056040600020015416604051908152f35b346103f15760203660031901126103f157600435600090338252600460205261076d6107686040842054600052600760205260ff6001604060002001541690565b613aa0565b808252601060205260ff600260408420015460081c16156107b45761079f6107b1916000526010602052604060002090565b60026000918281558260018201550155565b80f35b606460405162461bcd60e51b815260206004820152601360248201527f6e65737465642e7265712e6e6f746578697374000000000000000000000000006044820152fd5b346103f15760403660031901126103f157610814610353614e4a565b61081d33614f8e565b801561083b575b61082d90612ef8565b610016602435600435614c20565b5060046001600160a01b036020816000541660405193848092630536340960e21b82525afa9081156103ec5761082d9260009261087e575b501633149050610824565b61089791925060203d81116103e5576103d68183612bb9565b9038610873565b346103f15760403660031901126103f1576108ba610353614e4a565b6108c333614f8e565b80156108e1575b6108d390612ef8565b610016602435600435614cbc565b5060046001600160a01b036020816000541660405193848092630536340960e21b82525afa9081156103ec576108d392600092610924575b5016331490506108ca565b61093d91925060203d81116103e5576103d68183612bb9565b9038610919565b60e0810192916000915b6007831061095b57505050565b60019082518152602080910192019201919061094e565b346103f15760203660031901126103f157610500600435610acc610abc6040519261099c84612b65565b60e03685376109c86109b8826000526009602052604060002090565b6001600052602052604060002090565b5484526109f26109e2826000526009602052604060002090565b6002600052602052604060002090565b546020850152610a1f610a0f826000526009602052604060002090565b6003600052602052604060002090565b546040850152610a4c610a3c826000526009602052604060002090565b6004600052602052604060002090565b546060850152610a79610a69826000526009602052604060002090565b6005600052602052604060002090565b546080850152610aa6610a96826000526009602052604060002090565b6006600052602052604060002090565b5460a08501526000526009602052604060002090565b6007600052602052604060002090565b5460c082015260405191829182610944565b346103f15760003660031901126103f15760206001600160a01b0360005416604051908152f35b60409060031901126103f157600435610b1d81610422565b90602435610b2a81610422565b90565b346103f157610b8c610b3e36610b05565b610b46612e51565b610b5f610b51612c0a565b610b59612c22565b3361537a565b91610bac610b76610b6e612c0a565b610b59612c5b565b6001600160a01b03958487169587168614612c94565b85610ba461057082600054166001600160a01b031690565b911614612cdf565b610bb7831515613925565b610bd4826001600160a01b03166000526004602052604060002090565b5415801561107b575b610be690613970565b610c0e610c06826001600160a01b03166000526004602052604060002090565b5415156139bb565b610c526005610c44610c33846001600160a01b03166000526004602052604060002090565b546000526007602052604060002090565b01546001600160a01b031690565b92604094855194610cbb6020967f880cdc31000000000000000000000000000000000000000000000000000000008882015280610ca288602483019190916001600160a01b036020820193169052565b0392610cb6601f1994858101845283612bb9565b61548d565b50610ce46105706004610c44610c33886001600160a01b03166000526004602052604060002090565b15610f1057610e6895610d5c91610cb6610d196004610c44610c338a6001600160a01b03166000526004602052604060002090565b8a517f0399c93c00000000000000000000000000000000000000000000000000000000948101949094523360248501529183604481015b03908101845283612bb9565b505b610d7b836001600160a01b03166000526004602052604060002090565b54610d99856001600160a01b03166000526004602052604060002090565b55610df784610dcf610dbe866001600160a01b03166000526004602052604060002090565b546000526005602052604060002090565b906001600160a01b031673ffffffffffffffffffffffffffffffffffffffff19825416179055565b610e46336004610e1d610c33886001600160a01b03166000526004602052604060002090565b01906001600160a01b031673ffffffffffffffffffffffffffffffffffffffff19825416179055565b821603610ef2575b506001600160a01b03166000526004602052604060002090565b54610500610e856005610c44846000526007602052604060002090565b92610ec1610eb46002610ea2866000526007602052604060002090565b01546000526005602052604060002090565b546001600160a01b031690565b90610ecc6001600355565b519283526001600160a01b03938416602084015290921660408201529081906060820190565b6001600160a01b031660009081526004602052604081205538610e4e565b85600496610f296105706000546001600160a01b031690565b89519889809263111ea8c160e21b82525afa9687156103ec57610e6897610f909160009161105e575b50895190610f8282610f768a8783019190916001600160a01b036020820193169052565b03868101845283612bb9565b610f8a613a06565b9061537a565b838116151580611054575b610fa8575b505050610d5e565b88517f4fb2e45d000000000000000000000000000000000000000000000000000000008382015233602482015261104b93610cb691610ffb90610ff5816044810103848101835282612bb9565b8461548d565b507fa3e884b0000000000000000000000000000000000000000000000000000000008b519485015283610d5060248201906007606060808401936000815260006020820152600060408201520152565b50388080610fa0565b5080311515610f9b565b6110759150833d85116103e5576103d68183612bb9565b38610f52565b508084168314610bdd565b346103f15760203660031901126103f15760206110b6600435600052600760205260ff6001604060002001541690565b6040519015158152f35b346103f15760203660031901126103f15760043560005260076020526020600360406000200154604051908152f35b346103f15760203660031901126103f157600435600052600760205260206001600160a01b0360046040600020015416604051908152f35b346103f15760203660031901126103f15760043580600052600760205260406000205460056020526105006001600160a01b03806040600020541693600760205260406000209160046002840154930154166111926005610c44846000526007602052604060002090565b9060036111ca6111b960016111b1876000526007602052604060002090565b015460ff1690565b946000526007602052604060002090565b01549360405197889788939160c09591989796939260e086019986526001600160a01b03938480931660208801526040870152166060850152166080830152151560a08201520152565b346103f15760203660031901126103f1576001600160a01b0360043561123981610422565b1660005260046020526040600020546000526007602052602060ff600160406000200154166040519015158152f35b346103f15761127636610b05565b611281610353614e4a565b61128a33614f8e565b80156112be575b9161129e6112a393612ef8565b612f43565b604080519283526001600160a01b0391909116602083015290f35b506001600160a01b039160046020846000541660405192838092630536340960e21b82525afa80156103ec576112a39461129e92600092611308575b503391161491935050611291565b61132191925060203d81116103e5576103d68183612bb9565b90386112fa565b346103f15760003660031901126103f1576020600654604051908152f35b346103f15760203660031901126103f1576001600160a01b0360043561136b81610422565b1660005260046020526020604060002054604051908152f35b346103f15760203660031901126103f15760043560016113ba6113b5826111b1856000526007602052604060002090565b613879565b6113ce826000526010602052604060002090565b906002908183019260ff8454818160081c16806116b0575b6113ef90613dcb565b60101c166115a6575061141982611410866000526007602052604060002090565b01541515613e61565b6000815b611469575b505060009061145661001694611446611440865460ff9060101c1690565b82613ef9565b6000526007602052604060002090565b0155805462ff0000191662010000179055565b60038061149685611484896000526007602052604060002090565b01546000526007602052604060002090565b01548210156115a057856114d06114c684846114c089611484876000526007602052604060002090565b0161373e565b90549060031b1c90565b146114e557506114df90613536565b8161141d565b83925094611596866115786114569461155f6115456114c66100169c61151b60009c6114848b6000526007602052604060002090565b0161153f876115388d6114848d6000526007602052604060002090565b01546132d7565b9061373e565b91846114c08a6114848a6000526007602052604060002090565b90919082549060031b91821b91600019901b1916179055565b61159085611484856000526007602052604060002090565b01613eac565b9450819250611422565b50611422565b8261162861162261079f9661161889600361161261169f996105d0996115e66100169f9d6115de876000526007602052604060002090565b015415613e16565b019788548091611600866000526007602052604060002090565b01556000526007602052604060002090565b0161375b565b5460101c60ff1690565b85613ef9565b610cb661165c610eb461164a6004610c44896000526007602052604060002090565b93546000526005602052604060002090565b6040517f1499c5920000000000000000000000000000000000000000000000000000000060208201526001600160a01b0390911660248201529283906044820190565b506000526010602052604060002090565b508082166113e6565b346103f1576040806003193601126103f157600480356116d7612e51565b6116f36113b560016111b1846000526007602052604060002090565b61171861171161057084610c44856000526007602052604060002090565b3314613a3f565b61172061320d565b6117396005610c44836000526007602052604060002090565b6002549084516117ad61179f6020927f02a085f200000000000000000000000000000000000000000000000000000000848201528061178b602497883589840160209093929193604081019481520152565b0394610cb6601f1996878101845283612bb9565b82808251830101910161429a565b9485519386886117c285830197885190612e44565b966117d282840198895190612e44565b6117e26060850191825190612e44565b9186886117f56080880195865190612e44565b9561180660a0890197885190612e44565b9761181f61181a60c083019a8b5190612e44565b614b72565b51611ba4575b8351611ae2575b505050508051611a24575b508051611967575b5080511580159061195d575b61188e575b89896105006101208a6118698d6101008601519061436b565b51920151926118786001600355565b5191825260208201929092529081906040820190565b846118aa61057060009a969799989a546001600160a01b031690565b8b5196878092635e09dbe760e01b82525afa80156103ec5761050098610120988c6119239663a9059cbb60e01b966118699a60009661192e575b50906118fc610d509392610cb6979851905190612e44565b915197889485015233908401602090939291936001600160a01b0360408201951681520152565b509382933880611850565b610cb69650610d509392916119526118fc92873d89116103e5576103d68183612bb9565b9750919293506118e4565b508151151561184b565b848661197e6105706000546001600160a01b031690565b8d51928380927f9dc969a80000000000000000000000000000000000000000000000000000000082525afa9182156103ec576119fc928d6119f093600092611a03575b509151915163a9059cbb60e01b8a820152338882019081526020810193909352929091610cb691849160400190565b038a8101845283612bb9565b503861183f565b610cb69250611a1e908b3d8d116103e5576103d68183612bb9565b916119c1565b85878d611a3c6105706000546001600160a01b031690565b9051928380927faa0ddc160000000000000000000000000000000000000000000000000000000082525afa9182156103ec57611aba928e611aae93600092611ac1575b509151915163a9059cbb60e01b8b820152338982019081526020810193909352929091610cb691849160400190565b038b8101845283612bb9565b5038611837565b610cb69250611adc908c8d3d106103e5576103d68183612bb9565b91611a7f565b611af76105706000546001600160a01b031690565b9051928380927f30125cf50000000000000000000000000000000000000000000000000000000082525afa9182156103ec57611b73928f8b9063a9059cbb60e01b94600093611b7d575b50925192519081019390935233898401908152602081019290925290610cb69083906040015b038c8101845283612bb9565b503886888e61182c565b610cb6935090611b9c611b6792843d86116103e5576103d68183612bb9565b935090611b41565b611bb96105706000546001600160a01b031690565b9051928380927f640274270000000000000000000000000000000000000000000000000000000082525afa80156103ec578e611c2b8f8c938e918d96600092611c31575b5051845163a9059cbb60e01b8782015233818f01908152602081019290925292610cb6918490604001610d50565b50611825565b610cb6919250611c4d90873d89116103e5576103d68183612bb9565b9190611bfd565b346103f15760203660031901126103f1576020600435611c7381610422565b6001600160a01b03809116600052600482526040600020546000526007825260056040600020015416604051908152f35b346103f15760403660031901126103f157611cc0610353614e4a565b611cc933614f8e565b8015611ce7575b611cd990612ef8565b610016602435600435613cd9565b5060046001600160a01b036020816000541660405193848092630536340960e21b82525afa9081156103ec57611cd992600092611d2a575b501633149050611cd0565b611d4391925060203d81116103e5576103d68183612bb9565b9038611d1f565b346103f15760403660031901126103f157600435600052600860205260406000206024356000526020526020604060002054604051908152f35b346103f15760203660031901126103f15760043560005260076020526020600260406000200154604051908152f35b346103f15760403660031901126103f15760043560005260076020526020611de4602435600360406000200161373e565b90549060031b1c604051908152f35b346103f15760003660031901126103f15760206001600160a01b0360015416604051908152f35b346103f15760403660031901126103f157611e36610353614e4a565b611e3f33614f8e565b8015611e5d575b611e4f90612ef8565b610016602435600435614bf6565b5060046001600160a01b036020816000541660405193848092630536340960e21b82525afa9081156103ec57611e4f92600092611ea0575b501633149050611e46565b611eb991925060203d81116103e5576103d68183612bb9565b9038611e95565b346103f15760203660031901126103f157600435600052600f6020526020604060002054604051908152f35b346103f15760003660031901126103f157600460206001600160a01b03600054166040519283809263d1f956b160e01b82525afa9081156103ec5761050091611f7c91600091611f8c575b50604051611f4481612b81565b601381527f67657464656c656761746f72436f756e742829000000000000000000000000006020820152611f76612bf7565b91615407565b6040519081529081906020820190565b611fa4915060203d81116103e5576103d68183612bb9565b38611f37565b610100810192916000915b60088310611fc257505050565b600190825181526020809101920192019190611fb5565b346103f15760203660031901126103f1576105006004356120e6610abc611ffe614af5565b92612025612016826000526008602052604060002090565b60008052602052604060002090565b54845261203f6109b8826000526008602052604060002090565b54602085015261205c6109e2826000526008602052604060002090565b546040850152612079610a0f826000526008602052604060002090565b546060850152612096610a3c826000526008602052604060002090565b5460808501526120b3610a69826000526008602052604060002090565b5460a08501526120d0610a96826000526008602052604060002090565b5460c08501526000526008602052604060002090565b5460e082015260405191829182611faa565b346103f15760203660031901126103f15760206110b660043561211a81610422565b614f8e565b346103f15761222d61213036610b05565b90612139612e51565b612182612147610b51612c0a565b612152610b6e612c0a565b9061216b6001600160a01b039182808816911614612c94565b610ba461057082600054166001600160a01b031690565b6121af6121aa60016111b1610c33856001600160a01b03166000526004602052604060002090565b612d2a565b61221e6122146122056121dd6005610c44610c33876001600160a01b03166000526004602052604060002090565b604051906121f7826105d060208201906000602083019252565b6121ff612d75565b906152b9565b60208082518301019101612dae565b5050501515612dd0565b612226613140565b3390613545565b6122466120166002546000526008602052604060002090565b6122508154612e31565b905561225a614b9e565b6122736005610c44836000526007602052604060002090565b9061227d816138c4565b6122876001600355565b604080519182526001600160a01b03929092166020820152f35b346103f15760203660031901126103f1576122bd610353614e4a565b6122c633614f8e565b80156122e1575b6122d690612ef8565b6100166004356132f3565b50600460206122fb6105706000546001600160a01b031690565b60405192838092630536340960e21b82525afa80156103ec576122d691600091612333575b506001600160a01b0316331490506122cd565b61234b915060203d81116103e5576103d68183612bb9565b38612320565b346103f15760203660031901126103f15760046001600160a01b036020816000541660405193848092630536340960e21b82525afa9182156103ec576000926123ed575b50339116036123a9576100166004356151c5565b606460405162461bcd60e51b815260206004820152600f60248201527f6f776e2e6e6f6e617574682e44414f00000000000000000000000000000000006044820152fd5b61240691925060203d81116103e5576103d68183612bb9565b9038612395565b346103f15760203660031901126103f15760043561242a81610422565b803b600061243782612bdb565b926124456040519485612bb9565b82845260208401903c602d81511061246b57602a015160405160609190911c8152602090f35b606460405162461bcd60e51b815260206004820152601360248201527f4e6f742061206d696e696d616c2070726f7879000000000000000000000000006044820152fd5b60403660031901126103f1576004356124c6612e51565b60009080825260076020526124e460ff600160408520015416613879565b815260076020526125246001600160a01b036005604084200154166040519062a0e53360e51b6020830152602435602483015260248252610cb682612b44565b50600160035580f35b346103f15760403660031901126103f157600435600052600a60205260406000206024356000526020526020604060002054604051908152f35b346103f15760c03660031901126103f15760243560043561258782610422565b6064359060843590612597612e51565b6125b36113b560016111b1846000526007602052604060002090565b6125d26117116105706004610c44856000526007602052604060002090565b6125da61320d565b6125e382614b1a565b6125ec83614b46565b61269961268b61267761260e6005610c44866000526007602052604060002090565b966040519182916020977f932ca2d600000000000000000000000000000000000000000000000000000000898501528960a435926044359060248701919260809396959491966001600160a01b0360a08501981684526020840152604083015260608201520152565b0396610cb6601f1998898101845283612bb9565b838082518301019101613a8a565b9290806126b7575b50506126ad93506145fe565b6100166001600355565b600490826126d06105706000546001600160a01b031690565b60405193848092635e09dbe760e01b82525afa80156103ec576126ad9761272a9463a9059cbb60e01b94600093612732575b5060405190810194909452336024850152604484019290925290610cb6908360648101610d50565b5038806126a1565b610cb69350612750610d5091833d85116103e5576103d68183612bb9565b9350612702565b346103f1576020806003193601126103f1576004803561277681610422565b6001600160a01b03928084600054166040519485809263d1f956b160e01b82525afa9081156103ec576105009461060a946000936127d2575b5060405193168184015282526127c482612b81565b6127cc61515c565b906153cb565b6127ea919350823d84116103e5576103d68183612bb9565b91386127af565b346103f15760003660031901126103f15760206110b6614e4a565b346103f15760203660031901126103f157600435600052600c6020526020604060002054604051908152f35b346103f15760403660031901126103f1576004356024359061288b610768612873336001600160a01b03166000526004602052604060002090565b54600052600760205260ff6001604060002001541690565b6128a76113b560016111b1846000526007602052604060002090565b6128c86128c360016111b1856000526007602052604060002090565b613aeb565b6128e16005610c44846000526007602052604060002090565b60048360405161292761221461291960209380612905868201906000602083019252565b03976121f7601f19998a8101845283612bb9565b838082518301019101612dae565b61293b856000526010602052604060002090565b936129a7600286019661296261295d6129598a5460ff9060081c1690565b1590565b613b36565b6040517f7bb984980000000000000000000000000000000000000000000000000000000085820152602481019190915260448101989098526064828101895288612bb9565b816129bd6105706000546001600160a01b031690565b60405195868092630536340960e21b82525afa9384156103ec5761001697612a3d95612a2a93610d5093600092612a4e575b50610cb691926040519485917fd3a3084900000000000000000000000000000000000000000000000000000000898401523060248401613ba4565b9160018501558082518301019101613c4b565b9055805461ff001916610100179055565b610cb69250612a6990873d89116103e5576103d68183612bb9565b916129ef565b346103f15760203660031901126103f157600435600052600e6020526020604060002054604051908152f35b346103f1576040806003193601126103f1576001600160a01b03600435612ac181610422565b16600081815260046020818152848320548352600b815284832054938352908152838220548252600a81528382206024358352815290839020549251918252810191909152604090f35b346103f15760003660031901126103f1576020612b266150bc565b604051908152f35b634e487b7160e01b600052604160045260246000fd5b6060810190811067ffffffffffffffff821117612b6057604052565b612b2e565b60e0810190811067ffffffffffffffff821117612b6057604052565b6040810190811067ffffffffffffffff821117612b6057604052565b6020810190811067ffffffffffffffff821117612b6057604052565b90601f8019910116810190811067ffffffffffffffff821117612b6057604052565b67ffffffffffffffff8111612b6057601f01601f191660200190565b60405190612c0482612b9d565b60008252565b604051612c1681612b9d565b60008152906000368137565b60405190612c2f82612b81565b600782527f6f776e65722829000000000000000000000000000000000000000000000000006020830152565b60405190612c6882612b81565b600c82527f67657448657862617365282900000000000000000000000000000000000000006020830152565b15612c9b57565b606460405162461bcd60e51b815260206004820152601760248201527f6e65737465642e696e76616c69642e696e7374616e63650000000000000000006044820152fd5b15612ce657565b606460405162461bcd60e51b815260206004820152601660248201527f6e65737465642e696e76616c69642e68657862617365000000000000000000006044820152fd5b15612d3157565b606460405162461bcd60e51b815260206004820152601860248201527f6e65737465642e706172656e742e6e6f742e65786973747300000000000000006044820152fd5b60405190612d8282612b81565b601282527f6765744e6f64654c422875696e743235362900000000000000000000000000006020830152565b91908260809103126103f1578151916020810151916060604083015192015190565b15612dd757565b606460405162461bcd60e51b815260206004820152601960248201527f6e65737465642e706172656e742e6e6f2e627573696e657373000000000000006044820152fd5b634e487b7160e01b600052601160045260246000fd5b9060018201809211612e3f57565b612e1b565b91908201809211612e3f57565b600260035414612e62576002600355565b60046040517f3ee5aeb5000000000000000000000000000000000000000000000000000000008152fd5b15612e9357565b606460405162461bcd60e51b815260206004820152601260248201527f6f776e2e696e76616c69642e69735361666500000000000000000000000000006044820152fd5b908160209103126103f15751610b2a81610422565b6040513d6000823e3d90fd5b15612eff57565b606460405162461bcd60e51b815260206004820152601b60248201527f6f776e2e6e6f6e617574682e44414f6f725365637572656261736500000000006044820152fd5b612fef9291612ff5600492612f56612e51565b612f86612f8161295960016111b1610c33886001600160a01b03166000526004602052604060002090565b6134eb565b612f99612f94600654613536565b600655565b600654958691612fb785610dcf856000526005602052604060002090565b82612fd5866001600160a01b03166000526004602052604060002090565b556001600160a01b03166000526004602052604060002090565b54613783565b61302b8261300d866000526007602052604060002090565b0173ffffffffffffffffffffffffffffffffffffffff198154169055565b60206130426105706000546001600160a01b031690565b6040519384809263e09d394d60e01b82525afa80156103ec5761307461308a916130f394600091613122575b506136a8565b6005610e1d876000526007602052604060002090565b6130a36005610c44866000526007602052604060002090565b610cb66130bb6105706000546001600160a01b031690565b6040516352902c5960e01b60208201526001600160a01b039182166024820152931660448401526064830186905282608481016105d0565b508160005260076020526001600160a01b036005604060002001541691613119816138c4565b91906001600355565b61313a915060203d81116103e5576103d68183612bb9565b3861306e565b61314b610353614e4a565b61315433614f8e565b80156131aa575b61316490612ef8565b61316c6150bc565b60025410613184575b613182600560025461333c565b565b61318c6150bc565b806002556000198101908111612e3f576131a5906149a1565b613175565b5060046001600160a01b036020816000541660405193848092630536340960e21b82525afa9081156103ec57613164926000926131ed575b50163314905061315b565b61320691925060203d81116103e5576103d68183612bb9565b90386131e2565b613218610353614e4a565b61322133614f8e565b8015613274575b61323190612ef8565b6132396150bc565b6002541061324e575b6131826002805461333c565b6132566150bc565b806002556000198101908111612e3f5761326f906149a1565b613242565b5060046001600160a01b036020816000541660405193848092630536340960e21b82525afa9081156103ec57613231926000926132b7575b501633149050613228565b6132d091925060203d81116103e5576103d68183612bb9565b90386132ac565b600019810191908211612e3f57565b91908203918211612e3f57565b6132fb6150bc565b60025410613310575b6131829060025461333c565b6133186150bc565b90816002556000198201918211612e3f57613335613182926149a1565b9050613304565b90613354612016836000526008602052604060002090565b5415806134e1575b806134d8575b61336a575050565b6133869061338061337a846132d7565b916132d7565b9061333c565b6133a5612016613395836132d7565b6000526008602052604060002090565b546133bd612016836000526008602052604060002090565b556133cd6109b8613395836132d7565b546133e56109b8836000526008602052604060002090565b556133f56109e2613395836132d7565b5461340d6109e2836000526008602052604060002090565b5561341d610a0f613395836132d7565b54613435610a0f836000526008602052604060002090565b55613445610a3c613395836132d7565b5461345d610a3c836000526008602052604060002090565b5561346d610a69613395836132d7565b54613485610a69836000526008602052604060002090565b55613495610a96613395836132d7565b546134ad610a96836000526008602052604060002090565b556134d5610abc6134c3610abc613395856132d7565b54926000526008602052604060002090565b55565b50801515613362565b506001821161335c565b156134f257565b606460405162461bcd60e51b815260206004820152601560248201527f6e65737465642e616c72656164792e65786973747300000000000000000000006044820152fd5b6000198114612e3f5760010190565b916135dd6004926135c8612fef9561357e612f8161295960016111b1610c338a6001600160a01b03166000526004602052604060002090565b61358c612f94600654613536565b6006549687916135aa87610dcf856000526005602052604060002090565b82612fd5886001600160a01b03166000526004602052604060002090565b83610e1d866000526007602052604060002090565b60206135f46105706000546001600160a01b031690565b6040519384809263e09d394d60e01b82525afa80156103ec5761362561363b916136a49460009161312257506136a8565b6005610e1d866000526007602052604060002090565b6136546005610c44856000526007602052604060002090565b610cb661366c6105706000546001600160a01b031690565b6040516352902c5960e01b60208201526001600160a01b039182166024820152931660448401526064830185905282608481016105d0565b5090565b6e5af43d82803e903d91602b57fd5bf390763d602d80600a3d3981f3363d3d373d3d3d363d7300000062ffffff8260881c161760005260781b17602052603760096000f0906001600160a01b038216156136fe57565b60046040517fb06ebf3d000000000000000000000000000000000000000000000000000000008152fd5b634e487b7160e01b600052603260045260246000fd5b80548210156137565760005260206000200190600090565b613728565b9081549168010000000000000000831015612b60578261155f9160016131829501815561373e565b919091600092808452602091600783526040808620956002948386890155846001988981018a60ff1982541617905555876137c886600052600a602052604060002090565b83805282528489858520555b6137e357505050505050509050565b613851613840828b8a941461385a575b61380788600052600a602052604060002090565b81875285528686206138198154612e31565b905561382f88600052600b602052604060002090565b6138398154612e31565b9055613536565b956000526007602052604060002090565b015493846137d4565b6138748960036116128b6000526007602052604060002090565b6137f3565b1561388057565b606460405162461bcd60e51b815260206004820152601560248201527f6e65737465642e757365722e6e6f7461637469766500000000000000000000006044820152fd5b8060005260076020526138e160ff60016040600020015416613879565b60005260076020526139226001600160a01b03600560406000200154166040519062a0e53360e51b60208301526001602483015260248252610cb682612b44565b50565b1561392c57565b606460405162461bcd60e51b815260206004820152601360248201527f6e65737465642e7a65726f2e61646472657373000000000000000000000000006044820152fd5b1561397757565b606460405162461bcd60e51b815260206004820152601460248201527f6e65737465642e7461726765742e6578697374730000000000000000000000006044820152fd5b156139c257565b606460405162461bcd60e51b815260206004820152601760248201527f6e65737465642e736f757263652e6e6f744578697374730000000000000000006044820152fd5b60405190613a1382612b81565b601382527f55736572546f496e7374286164647265737329000000000000000000000000006020830152565b15613a4657565b606460405162461bcd60e51b815260206004820152601b60248201527f6e65737465642e757365722e696e76616c6964696e7374616e636500000000006044820152fd5b91908260409103126103f1576020825192015190565b15613aa757565b606460405162461bcd60e51b815260206004820152601560248201527f6e65737465642e696e76616c69642e73656e64657200000000000000000000006044820152fd5b15613af257565b606460405162461bcd60e51b815260206004820152601560248201527f6e65737465642e696e76616c69642e706172656e7400000000000000000000006044820152fd5b15613b3d57565b606460405162461bcd60e51b815260206004820152601760248201527f6e65737465642e7265712e616c726561647965786973740000000000000000006044820152fd5b60005b838110613b945750506000910152565b8181015183820152602001613b84565b92916080906001600160a01b03600a9360a08752602460a08801527f547269676765722e6e65737465642e70726f706f73616c2e6d6f7665646f776e60c08801527f6c696e650000000000000000000000000000000000000000000000000000000060e08801521660208601526000604086015261010080606087015281518091870152613c3c81610120936020858a019101613b81565b601f8019910116850101930152565b908160209103126103f1575190565b60405190613c6782612b81565b601282527f676574526573756c742875696e743235362900000000000000000000000000006020830152565b519081151582036103f157565b91908260c09103126103f157815191602081015191604082015191606081015191610b2a60a0613cd260808501613c93565b9301613c93565b613d0c613d1891613cfc6113b560016111b1846000526007602052604060002090565b6000526010602052604060002090565b91600183015414613aeb565b613d2d6105706000546001600160a01b031690565b906040518092630536340960e21b825281600460209586935afa9081156103ec5761318293613d886105d0600294613d9594600091613dae575b50613d8087546040519384918783019190602083019252565b6121ff613c5a565b8051810182019101613ca0565b50959350505050019060ff801983541691151516179055565b613dc59150843d86116103e5576103d68183612bb9565b38613d67565b15613dd257565b606460405162461bcd60e51b815260206004820152601660248201527f6e65737465642e7265712e6e6f74617070726f766564000000000000000000006044820152fd5b15613e1d57565b606460405162461bcd60e51b815260206004820152601860248201527f6e65737465642e757365722e6e6f742e646574616368656400000000000000006044820152fd5b15613e6857565b606460405162461bcd60e51b815260206004820152601b60248201527f6e65737465642e757365722e616c726564792e646574616368656400000000006044820152fd5b8054908115613ed65760001991820191613ec6838361373e565b909182549160031b1b1916905555565b634e487b7160e01b600052603160045260246000fd5b8015612e3f576000190190565b613f16613f1082600052600b602052604060002090565b54612e31565b60029081613f2e846000526007602052604060002090565b0154906001938492835b613f46575b50505050505050565b600f8085111580614291575b1561428b5785906005613f7661057082610c44876000526007602052604060002090565b613fa3575b5050613f94613f9c926000526007602052604060002090565b015493613536565b9285613f38565b865b828111156140ad57505050613f94613f9c928960001461404a57613fed613fd686600052600a602052604060002090565b613fdf896132d7565b600052602052604060002090565b546140206140188961400985600052600a602052604060002090565b90600052602052604060002090565b918254612e44565b905561403681600052600b602052604060002090565b614041878254612e44565b90555b92613f7b565b614061613fd686600052600a602052604060002090565b5461408561407d8961400985600052600a602052604060002090565b9182546132e6565b905561409b81600052600b602052604060002090565b6140a68782546132e6565b9055614044565b819293506140ca8592610c44886000526007602052604060002090565b6140d489836132e6565b908c60408c6141176141098351806140f56020998a83019190602083019252565b03966121f7601f1998898101845283612bb9565b868082518301019101612dae565b50509189821580614283575b614271577f393a9f9500000000000000000000000000000000000000000000000000000000958a958a610cb6966141c99a968c966141d69e9f61418d61417c610d5099610c446003946000526007602052604060002090565b9c6000526007602052604060002090565b0154905494519b8c988901526024880194919260a0949197969360c0870198875260208701526040860152606085015260808401521515910152565b8051810182019101613a8a565b908b1561422c575b8082116141f95750506141f090613536565b90879291613fa5565b61420290613536565b61421b816140098c546000526008602052604060002090565b6142258154612e31565b90556141de565b81811161423e5750506141f090613536565b8061425b61426c926140098d546000526008602052604060002090565b61426581546132d7565b9055613eec565b61422c565b50505050505050506141f09150613536565b508315614123565b50613f3d565b50811515613f52565b9061014080838303126103f15781601f840112156103f1576040519281840184811067ffffffffffffffff821117612b6057604052839181019283116103f157905b8282106142e95750505090565b81518152602091820191016142dc565b6040519061430682612b81565b600f82527f66726565496e74657276616c73282900000000000000000000000000000000006020830152565b6040519061433f82612b81565b601382527f6c6576656c496e636f6d654f6e52616e6b2829000000000000000000000000006020830152565b919091600061438461057082546001600160a01b031690565b9060409182519063cfbffe5360e01b80835260209160049383818681855afa9081156103ec5784916143cf9188916145e1575b506143c0612c0a565b906143c96142f9565b90615407565b928588518094819382525afa80156103ec576143fe9186916145c4575b506143f5612c0a565b906143c9614332565b849885975b600f891115806145bb575b156145ae578682868d878c8e6144366105706005610c448b6000526007602052604060002090565b614469575b50505050505050600261445b614463926000526007602052604060002090565b015498613536565b97614403565b89811597881590816145a4575b811561459c575b5061448c575b508d965061443b565b946105d06145209563645d0aa760e11b958b95610cb69561452e9a60036144d66144c56005610c448d6000526007602052604060002090565b9a6000526007602052604060002090565b01549c60029d8e5494519b8c998a01526024890193909796959260e0959261010086019986526020860152600060408601526060850152608084015260a083015260c08201520152565b888082518301019101613a8a565b92614593575b8d15614583575b80831161455057505082868d878c8e89614483565b61455990613536565b6145728161400984546000526008602052604060002090565b61457c8154612e31565b905561453b565b88831061453b579c50819c61453b565b9c50819c614534565b90508f61447d565b8815159150614476565b5050505050505050509050565b5080151561440e565b6145db9150843d86116103e5576103d68183612bb9565b386143ec565b6145f89150833d85116103e5576103d68183612bb9565b386143b7565b9092919260009361461961057086546001600160a01b031690565b6040805163cfbffe5360e01b80825291936004936020939284818781855afa9081156103ec578591614654918d916145e157506143c0612c0a565b938688518094819382525afa80156103ec57614679918b9161481c57506143f5612c0a565b9589975b600f89111580614813575b156145ae578782868d878b8e6005966146b261057089610c448c6000526007602052604060002090565b6146de575b5050505050505050600261445b6146d8926000526007602052604060002090565b9761467d565b8a82159889158061480a575b8015614801575b6146fd575b50506146b7565b9563645d0aa760e11b958b95610cb6956147929a956105d09560036147476147366145209e610c448e6000526007602052604060002090565b9b6000526007602052604060002090565b01549d60029e8f5495519c8d9a8b015260248a0194919260e0969399989794919961010087019a8752602087015260408601526060850152608084015260a083015260c08201520152565b926147f8575b8d156147e8575b8083116147b55750868d878b8e8e8a8a976146f6565b6147be90613536565b6147d78161400984546000526008602052604060002090565b6147e18154612e31565b905561479f565b88831061479f579c50819c61479f565b9c50819c614798565b508115156146f1565b508815156146ea565b50801515614688565b6145db9150853d87116103e5576103d68183612bb9565b6002546000198101908111612e3f57613182906149a1565b1561485257565b606460405162461bcd60e51b815260206004820152601260248201527f6e65737465642e696e76616c69642e61676500000000000000000000000000006044820152fd5b604051906148a382612b81565b601882527f6765744261746368526f79616c7479436c6175736573282900000000000000006020830152565b6102a09081818403126103f15782601f820112156103f15760408051936148f585612b65565b84938301928184116103f157935b83851061491257505050505090565b6060858303126103f157825160609161492a82612b44565b8651825260209182880151838201528588015186820152815201940193614903565b9060078110156137565760051b0190565b9081606402916064830403612e3f57565b81810292918115918404141715612e3f57565b811561498b570490565b634e487b7160e01b600052601260045260246000fd5b6149ac81151561484b565b6149c16105706000546001600160a01b031690565b90604051809263cfbffe5360e01b825281600460209586935afa9081156103ec57614a1791614a0991600091614ad8575b506149fb614896565b614a03612bf7565b916152b9565b8380825183010191016148cf565b614a2b82600052600c602052604060002090565b5460015b6007811115614a3f575050505050565b80614a5b614ac492614009876000526008602052604060002090565b548015614ad257614a74614a6e836132d7565b8661494c565b51878151928315614ac957614a9b614aa092614a93614aa6968a61496e565b94015161495d565b61496e565b90614981565b614abe82614009886000526009602052604060002090565b55613536565b614a2f565b50505050613536565b50613536565b614aef9150853d87116103e5576103d68183612bb9565b386149f2565b6040519061010080830183811067ffffffffffffffff821117612b6057604052368337565b60025480600052600c602052604060002054918201809211612e3f57600052600c602052604060002055565b60025480600052600d602052604060002054918201809211612e3f57600052600d602052604060002055565b60025480600052600e602052604060002054918201809211612e3f57600052600e602052604060002055565b60025480600052600f6020526040600020549060018201809211612e3f57600052600f602052604060002055565b9080600052600c602052604060002054918201809211612e3f57600052600c602052604060002055565b9080600052600e602052604060002054918201809211612e3f57600052600e602052604060002055565b9080600052600f602052604060002054918201809211612e3f57600052600f602052604060002055565b60405190614c5782612b81565b601482527f676574627573696e6573732875696e74323536290000000000000000000000006020830152565b60405190614c9082612b81565b601d82527f67657472616e6b436f756e742875696e743235362c75696e74323536290000006020830152565b600090614cd361057083546001600160a01b031690565b91604092835192839163111ea8c160e21b835282600460209485935afa9384156103ec578394614dcc575b505b85811115614d1057505050505050565b8451828101828152819003808252601f1991614d4191614d339060200182612bb9565b614d3b614c4a565b87615407565b614d5861401884600052600c602052604060002090565b9055835b60088110614d74575050614d6f90613536565b614d00565b865184810184815260208101839052614dc79291614daf91614da190829060400103868101835282612bb9565b614da9614c83565b89615407565b614abe82614009876000526008602052604060002090565b614d5c565b614de4919450823d84116103e5576103d68183612bb9565b9238614cfe565b15614df257565b606460405162461bcd60e51b815260206004820152601960248201527f6f776e2e7361666567756172642e63616c6c2e6661696c6564000000000000006044820152fd5b908160209103126103f157610b2a90613c93565b6001600160a01b03600054166040518091634bf9c0ad60e11b825281600460209384935afa9182156103ec57610b2a92614ed291600091614eed575b50604051614e9381612b81565b600881527f69735361666528290000000000000000000000000000000000000000000000008482015260405191614ec983612b9d565b600083526152e4565b919080614ee3575b6105fd90614deb565b5081518114614eda565b614f049150833d85116103e5576103d68183612bb9565b38614e86565b60405190614f1782612b81565b601582527f69735365637572654261736528616464726573732900000000000000000000006020830152565b15614f4a57565b606460405162461bcd60e51b815260206004820152601a60248201527f6f776e2e736563757265626173652e63616c6c2e6661696c65640000000000006044820152fd5b6000546001600160a01b0316604051918291634bf9c0ad60e11b835282600460209485935afa9283156103ec57610b2a93614ffa926105d092600092615015575b50614ff2906040519384918783019190916001600160a01b036020820193169052565b6105e6614f0a565b91908061500b575b6105fd90614f43565b5081518114615002565b614ff291925061503190863d88116103e5576103d68183612bb9565b9190614fcf565b6040519061504582612b81565b601182527f69735369676e65722861646472657373290000000000000000000000000000006020830152565b1561507857565b606460405162461bcd60e51b815260206004820152601660248201527f6f776e2e7369676e65722e63616c6c2e6661696c6564000000000000000000006044820152fd5b600460206001600160a01b03600054166040519283809263111ea8c160e21b82525afa80156103ec57610b2a9160009161513e575b506040516150fe81612b81565b600581527f616765282900000000000000000000000000000000000000000000000000000060208201526040519161513583612b9d565b60008352615407565b615156915060203d81116103e5576103d68183612bb9565b386150f1565b6040519061516982612b81565b601882527f697364656c656761746f724e6f646528616464726573732900000000000000006020830152565b3d156151c0573d906151a682612bdb565b916151b46040519384612bb9565b82523d6000602084013e565b606090565b6000600460206001600160a01b03835416604051928380927f46f991ac0000000000000000000000000000000000000000000000000000000082525afa9081156103ec57828481938293839161529b575b505af1615221615195565b50156152575760405190815233907fcdcc745fe377b103b45fa0cec23ae3ef93d6fc6a84a01f0d18c40b354dd1d5d890602090a2565b606460405162461bcd60e51b815260206004820152600f60248201527f6f776e2e6275726e2e6661696c656400000000000000000000000000000000006044820152fd5b6152b3915060203d81116103e5576103d68183612bb9565b38615216565b906152c492916152e4565b90600090156152d1575090565b60405191506152df82612b9d565b815290565b803b15615361576000927fffffffff00000000000000000000000000000000000000000000000000000000836020869551910120169061534e602460405180936020820195865261533e8151809260208686019101613b81565b8101036004810184520182612bb9565b5191620dbba0fa61535d615195565b9091565b50505060009060405161537381612b9d565b6000815290565b9291615388916000946152e4565b90806153c0575b6153965750565b9091506020818051810103126103f15760206001600160a01b039101516153bc81610422565b1690565b50602081511461538f565b92916153d9916000946152e4565b90806153fc575b6153e75750565b610b2a91925060208082518301019101614e36565b5060208151146153e0565b9291615415916000946152e4565b9080615438575b6154235750565b610b2a91925060208082518301019101613c4b565b50602081511461541c565b90602082519201517fffffffff0000000000000000000000000000000000000000000000000000000090818116936004811061547e57505050565b60040360031b82901b16169150565b6001600160a01b0381161561553e57600080918351908260208601915af1906154b4615195565b91156154be575090565b805160009190600411615538576154d59150615443565b8151156154e55750805190602001fd5b6024907fffffffff00000000000000000000000000000000000000000000000000000000604051917f21c09d34000000000000000000000000000000000000000000000000000000008352166004820152fd5b506154d5565b606460405162461bcd60e51b815260206004820152601260248201527f6f776e2e696e76616c69642e74617267657400000000000000000000000000006044820152fdfea2646970667358221220a7c00003a82959c5b19653c229077e87854524b45b1831984815e3a9a8b3863264736f6c63430008140033","linkReferences":{}},"methodIdentifiers":{"Burn(uint256)":"b90306ad","UserToId(address)":"629d671e","_delegatorCount()":"a1f7f539","_getImplementation(address)":"c54e44b0","_isDelegatorNode(address)":"e01ad5fd","_isSafe()":"e0a9bc2b","_isSecureBase(address)":"af484526","_isSigner(address)":"1f185d16","addBusiness(uint256,address,uint256,uint256,uint256,uint256)":"dcb3fc4a","claimIncome(uint256,uint256)":"6a811244","closemdrequest(uint256)":"307673e8","compileRoyality(uint256)":"009db655","createmdrequest(uint256,uint256)":"eb9e9e2c","getBalance()":"12065fe0","getBatchRankCounts(uint256)":"a89d693b","getDownlineCountByLevel(uint256,uint256)":"d1e0bbc6","getHexbase()":"3b9b7955","getNode(uint256)":"4f0f4aa9","getNodeChild(uint256,uint256)":"896c354a","getNodeDirectsCount(uint256)":"42cc9d57","getNodeParent(address)":"1bb49f02","getNodeParentId(uint256)":"849c22ad","getNodesCount()":"61ea7208","getRoyalityAmountBatch(uint256)":"3a7b55b8","getTeamSize(uint256)":"033eeffb","getTotalTeamSizeWithLevel(address,uint256)":"fd38093b","getUserIdToInst(uint256)":"44585097","getUserIdToStor(uint256)":"2fefc0bf","getUserToInst(address)":"0e5fd00b","getUserToStor(address)":"76fe6c45","getbusiness(uint256)":"eb95c662","getjoining(uint256)":"98b3f215","getrankCount(uint256,uint256)":"80f85e33","getwithdrawn(uint256)":"f3ca7124","importBusiness(uint256,uint256)":"2a687c87","importJoining(uint256,uint256)":"32ff4eab","importOld(uint256,uint256)":"c871372b","importRankNBusiness(uint256,uint256)":"33b59a5b","importWithdrawal(uint256,uint256)":"95f72f49","isNode(uint256)":"419cb27b","isUserExists(address)":"509222cd","join(address,address)":"b1c49079","joinImport(address,address)":"50db85d1","moveDownline(uint256)":"65d2fbd3","nodes(uint256)":"1c53c280","owner()":"8da5cb5b","setDefaultRankCount(uint256)":"b366335e","setMoveDownlineApproval(uint256,uint256)":"7bb98498","systemAge()":"fdc10bc9","updateUsers(address,address)":"3baee0ea"},"id":55}