{"abi":[{"type":"constructor","inputs":[{"name":"_hex","type":"address","internalType":"address"}],"stateMutability":"nonpayable"},{"type":"fallback","stateMutability":"payable"},{"type":"receive","stateMutability":"payable"},{"type":"function","name":"Burn","inputs":[{"name":"amount","type":"uint256","internalType":"uint256"}],"outputs":[],"stateMutability":"nonpayable"},{"type":"function","name":"UserToId","inputs":[{"name":"","type":"address","internalType":"address"}],"outputs":[{"name":"","type":"uint256","internalType":"uint256"}],"stateMutability":"view"},{"type":"function","name":"_delegatorCount","inputs":[],"outputs":[{"name":"","type":"uint256","internalType":"uint256"}],"stateMutability":"view"},{"type":"function","name":"_getImplementation","inputs":[{"name":"clone","type":"address","internalType":"address"}],"outputs":[{"name":"impl","type":"address","internalType":"address"}],"stateMutability":"view"},{"type":"function","name":"_isDelegatorNode","inputs":[{"name":"sender","type":"address","internalType":"address"}],"outputs":[{"name":"","type":"bool","internalType":"bool"}],"stateMutability":"view"},{"type":"function","name":"_isSafe","inputs":[],"outputs":[{"name":"","type":"bool","internalType":"bool"}],"stateMutability":"view"},{"type":"function","name":"_isSecureBase","inputs":[{"name":"sender","type":"address","internalType":"address"}],"outputs":[{"name":"","type":"bool","internalType":"bool"}],"stateMutability":"view"},{"type":"function","name":"_isSigner","inputs":[{"name":"sender","type":"address","internalType":"address"}],"outputs":[{"name":"","type":"bool","internalType":"bool"}],"stateMutability":"view"},{"type":"function","name":"addBusiness","inputs":[{"name":"_id","type":"uint256","internalType":"uint256"},{"name":"_paramAdd","type":"address","internalType":"address"},{"name":"_tokenid","type":"uint256","internalType":"uint256"},{"name":"_qty","type":"uint256","internalType":"uint256"},{"name":"_msgValue","type":"uint256","internalType":"uint256"},{"name":"_type","type":"uint256","internalType":"uint256"}],"outputs":[],"stateMutability":"nonpayable"},{"type":"function","name":"claimIncome","inputs":[{"name":"_id","type":"uint256","internalType":"uint256"},{"name":"_maxint","type":"uint256","internalType":"uint256"}],"outputs":[{"name":"","type":"uint256","internalType":"uint256"}],"stateMutability":"nonpayable"},{"type":"function","name":"compileRoyality","inputs":[],"outputs":[],"stateMutability":"nonpayable"},{"type":"function","name":"getBalance","inputs":[],"outputs":[{"name":"","type":"uint256","internalType":"uint256"}],"stateMutability":"view"},{"type":"function","name":"getBatchRankCounts","inputs":[{"name":"ag","type":"uint256","internalType":"uint256"}],"outputs":[{"name":"counts","type":"uint256[8]","internalType":"uint256[8]"}],"stateMutability":"view"},{"type":"function","name":"getHexbase","inputs":[],"outputs":[{"name":"","type":"address","internalType":"address"}],"stateMutability":"view"},{"type":"function","name":"getNode","inputs":[{"name":"_id","type":"uint256","internalType":"uint256"}],"outputs":[{"name":"_i","type":"uint256","internalType":"uint256"},{"name":"_node","type":"address","internalType":"address"},{"name":"_pid","type":"uint256","internalType":"uint256"},{"name":"_inst","type":"address","internalType":"address"},{"name":"_stor","type":"address","internalType":"address"},{"name":"_active","type":"bool","internalType":"bool"},{"name":"_direcCount","type":"uint256","internalType":"uint256"}],"stateMutability":"view"},{"type":"function","name":"getNodeChild","inputs":[{"name":"_id","type":"uint256","internalType":"uint256"},{"name":"inx","type":"uint256","internalType":"uint256"}],"outputs":[{"name":"child","type":"uint256","internalType":"uint256"}],"stateMutability":"view"},{"type":"function","name":"getNodeDirectsCount","inputs":[{"name":"_id","type":"uint256","internalType":"uint256"}],"outputs":[{"name":"count","type":"uint256","internalType":"uint256"}],"stateMutability":"view"},{"type":"function","name":"getNodeParentId","inputs":[{"name":"_id","type":"uint256","internalType":"uint256"}],"outputs":[{"name":"","type":"uint256","internalType":"uint256"}],"stateMutability":"view"},{"type":"function","name":"getNodesCount","inputs":[],"outputs":[{"name":"nodesCount","type":"uint256","internalType":"uint256"}],"stateMutability":"view"},{"type":"function","name":"getRoyalityAmountBatch","inputs":[{"name":"ag","type":"uint256","internalType":"uint256"}],"outputs":[{"name":"royal","type":"uint256[]","internalType":"uint256[]"}],"stateMutability":"view"},{"type":"function","name":"getUserIdToInst","inputs":[{"name":"_id","type":"uint256","internalType":"uint256"}],"outputs":[{"name":"","type":"address","internalType":"address"}],"stateMutability":"view"},{"type":"function","name":"getUserIdToStor","inputs":[{"name":"_id","type":"uint256","internalType":"uint256"}],"outputs":[{"name":"","type":"address","internalType":"address"}],"stateMutability":"view"},{"type":"function","name":"getUserToInst","inputs":[{"name":"node","type":"address","internalType":"address"}],"outputs":[{"name":"","type":"address","internalType":"address"}],"stateMutability":"view"},{"type":"function","name":"getUserToStor","inputs":[{"name":"_user","type":"address","internalType":"address"}],"outputs":[{"name":"","type":"address","internalType":"address"}],"stateMutability":"view"},{"type":"function","name":"getbusiness","inputs":[{"name":"ag","type":"uint256","internalType":"uint256"}],"outputs":[{"name":"","type":"uint256","internalType":"uint256"}],"stateMutability":"view"},{"type":"function","name":"getjoining","inputs":[{"name":"ag","type":"uint256","internalType":"uint256"}],"outputs":[{"name":"","type":"uint256","internalType":"uint256"}],"stateMutability":"view"},{"type":"function","name":"getrankCount","inputs":[{"name":"ag","type":"uint256","internalType":"uint256"},{"name":"rnk","type":"uint256","internalType":"uint256"}],"outputs":[{"name":"count","type":"uint256","internalType":"uint256"}],"stateMutability":"view"},{"type":"function","name":"getwithdrawn","inputs":[{"name":"ag","type":"uint256","internalType":"uint256"}],"outputs":[{"name":"","type":"uint256","internalType":"uint256"}],"stateMutability":"view"},{"type":"function","name":"importBusiness","inputs":[{"name":"_amt","type":"uint256","internalType":"uint256"},{"name":"_ag","type":"uint256","internalType":"uint256"}],"outputs":[],"stateMutability":"nonpayable"},{"type":"function","name":"importJoining","inputs":[{"name":"_cnt","type":"uint256","internalType":"uint256"},{"name":"_ag","type":"uint256","internalType":"uint256"}],"outputs":[],"stateMutability":"nonpayable"},{"type":"function","name":"importOld","inputs":[{"name":"_id","type":"uint256","internalType":"uint256"},{"name":"_limit","type":"uint256","internalType":"uint256"}],"outputs":[],"stateMutability":"payable"},{"type":"function","name":"importRankNBusiness","inputs":[{"name":"_ag","type":"uint256[]","internalType":"uint256[]"}],"outputs":[],"stateMutability":"nonpayable"},{"type":"function","name":"importWithdrawal","inputs":[{"name":"_amt","type":"uint256","internalType":"uint256"},{"name":"_ag","type":"uint256","internalType":"uint256"}],"outputs":[],"stateMutability":"nonpayable"},{"type":"function","name":"isNode","inputs":[{"name":"_id","type":"uint256","internalType":"uint256"}],"outputs":[{"name":"","type":"bool","internalType":"bool"}],"stateMutability":"view"},{"type":"function","name":"isUserExists","inputs":[{"name":"node","type":"address","internalType":"address"}],"outputs":[{"name":"","type":"bool","internalType":"bool"}],"stateMutability":"view"},{"type":"function","name":"join","inputs":[{"name":"_parent","type":"address","internalType":"address"},{"name":"_user","type":"address","internalType":"address"}],"outputs":[{"name":"_id","type":"uint256","internalType":"uint256"},{"name":"_stor","type":"address","internalType":"address"}],"stateMutability":"nonpayable"},{"type":"function","name":"joinImport","inputs":[{"name":"_parent","type":"address","internalType":"address"},{"name":"_user","type":"address","internalType":"address"}],"outputs":[{"name":"_id","type":"uint256","internalType":"uint256"},{"name":"_stor","type":"address","internalType":"address"}],"stateMutability":"nonpayable"},{"type":"function","name":"moveDownline","inputs":[{"name":"_id","type":"uint256","internalType":"uint256"},{"name":"parent","type":"address","internalType":"address"},{"name":"_op","type":"bool","internalType":"bool"}],"outputs":[],"stateMutability":"nonpayable"},{"type":"function","name":"nodes","inputs":[{"name":"","type":"uint256","internalType":"uint256"}],"outputs":[{"name":"","type":"address","internalType":"address"}],"stateMutability":"view"},{"type":"function","name":"owner","inputs":[],"outputs":[{"name":"","type":"address","internalType":"address"}],"stateMutability":"view"},{"type":"function","name":"setDefaultRankCount","inputs":[{"name":"_limit","type":"uint256","internalType":"uint256"}],"outputs":[],"stateMutability":"nonpayable"},{"type":"function","name":"systemAge","inputs":[],"outputs":[{"name":"","type":"uint256","internalType":"uint256"}],"stateMutability":"view"},{"type":"function","name":"updateUsers","inputs":[{"name":"from","type":"address","internalType":"address"},{"name":"to","type":"address","internalType":"address"}],"outputs":[{"name":"_id","type":"uint256","internalType":"uint256"},{"name":"_stor","type":"address","internalType":"address"},{"name":"_parent","type":"address","internalType":"address"}],"stateMutability":"nonpayable"},{"type":"event","name":"EthBurned","inputs":[{"name":"sender","type":"address","indexed":true,"internalType":"address"},{"name":"amount","type":"uint256","indexed":false,"internalType":"uint256"}],"anonymous":false},{"type":"event","name":"EthTransferred","inputs":[{"name":"to","type":"address","indexed":true,"internalType":"address"},{"name":"amount","type":"uint256","indexed":false,"internalType":"uint256"}],"anonymous":false},{"type":"event","name":"HexBaseUpdated","inputs":[{"name":"previousHexBase","type":"address","indexed":true,"internalType":"address"},{"name":"newHexBase","type":"address","indexed":true,"internalType":"address"}],"anonymous":false},{"type":"event","name":"OwnerUpdated","inputs":[{"name":"previousOwner","type":"address","indexed":true,"internalType":"address"},{"name":"newOwner","type":"address","indexed":true,"internalType":"address"}],"anonymous":false},{"type":"error","name":"FailedDeployment","inputs":[]},{"type":"error","name":"InsufficientBalance","inputs":[{"name":"balance","type":"uint256","internalType":"uint256"},{"name":"needed","type":"uint256","internalType":"uint256"}]},{"type":"error","name":"ReentrancyGuardReentrantCall","inputs":[]},{"type":"error","name":"TargetCallFailed","inputs":[{"name":"selector","type":"bytes4","internalType":"bytes4"}]}],"bytecode":{"object":"0x608034620000d157601f620047b938819003918201601f19168301916001600160401b03831184841017620000d657808492602094604052833981010312620000d157516001600160a01b03811690819003620000d15780156200008c5760018060a01b031933816001541617600155600054161760005560016003556040516146cc9081620000ed8239f35b60405162461bcd60e51b815260206004820152601360248201527f6f776e2e696e76616c69642e68657862617365000000000000000000000000006044820152606490fd5b600080fd5b634e487b7160e01b600052604160045260246000fdfe60806040526004361015610018575b361561001657005b005b60003560e01c80630e5fd00b146102c857806312065fe0146102c35780631c53c280146102be5780631f185d16146102b95780632a687c87146102b45780632fefc0bf146102af57806332ff4eab146102aa5780633a7b55b8146102a55780633b9b7955146102a05780633baee0ea1461029b578063419cb27b1461029657806342cc9d5714610291578063445850971461028c578063477968f2146102875780634f0f4aa914610282578063509222cd1461027d57806350db85d11461027857806361ea720814610273578063629d671e1461026e5780636a811244146102695780636a9dd2741461026457806376fe6c451461025f57806380f85e331461025a578063849c22ad14610255578063896c354a146102505780638da5cb5b1461024b57806395f72f491461024657806398b3f21514610241578063a1f7f5391461023c578063a87af76914610237578063a89d693b14610232578063af4845261461022d578063b1c4907914610228578063b366335e14610223578063b90306ad1461021e578063c54e44b014610219578063c871372b14610214578063dcb3fc4a1461020f578063e01ad5fd1461020a578063e0a9bc2b14610205578063eb95c66214610200578063f3ca7124146101fb5763fdc10bc90361000e576122c7565b61229b565b61226f565b612254565b6121b5565b611fc5565b611f3d565b611ea4565b611df1565b611d3e565b611c18565b611bf1565b611ad2565b6119dd565b61191c565b6118f0565b611846565b61181d565b6117dd565b6117ae565b611774565b611725565b61169e565b61109b565b61105e565b611040565b610f7d565b610f2a565b610e40565b610d97565b610d60565b610d31565b610cf7565b610860565b61080f565b610676565b610591565b61055a565b6104ab565b610382565b61034e565b610332565b6102e3565b6001600160a01b038116036102de57565b600080fd5b346102de5760203660031901126102de576020600435610302816102cd565b60018060a01b03809116600052600482526040600020546000526007825260046040600020015416604051908152f35b346102de5760003660031901126102de57602047604051908152f35b346102de5760203660031901126102de576004356000526005602052602060018060a01b0360406000205416604051908152f35b346102de576020806003193601126102de576004908135906103a3826102cd565b60005481906103c2906001600160a01b03165b6001600160a01b031690565b604051634bf9c0ad60e11b815294859182905afa9182156104a657610419610453936104359261046596600092610473575b506040516001600160a01b039091168582019081529092610427918491602090910190565b03601f198101845283611664565b61042f6141fc565b90614452565b919080610469575b61044690614229565b8082518301019101614010565b60405190151581529081906020820190565b0390f35b508151811461043d565b61042791925061049890863d881161049f575b6104908183611664565b8101906124f3565b91906103f4565b503d610486565b612508565b346102de5760403660031901126102de576104cc6104c7614025565b6124b2565b6104d533614150565b80156104f3575b6104e590612514565b610016602435600435613d09565b50600054604051630536340960e21b8152906001600160a01b03906020908390600490829085165afa9081156104a6576104e59260009261053a575b5016331490506104dc565b61055391925060203d811161049f576104908183611664565b903861052f565b346102de5760203660031901126102de576004356000526007602052602060018060a01b0360056040600020015416604051908152f35b346102de5760403660031901126102de576105ad6104c7614025565b6105b633614150565b80156105d4575b6105c690612514565b610016602435600435613d5d565b50600054604051630536340960e21b8152906001600160a01b03906020908390600490829085165afa9081156104a6576105c69260009261061b575b5016331490506105bd565b61063491925060203d811161049f576104908183611664565b9038610610565b6020908160408183019282815285518094520193019160005b828110610662575050505090565b835185529381019392810192600101610654565b346102de5760203660031901126102de576104656004356107f86107e8604051926106a0846115f3565b6007845260e03660208601376106d36106c3826000526009602052604060002090565b6001600052602052604060002090565b546106dd85613bd6565b526107056106f5826000526009602052604060002090565b6002600052602052604060002090565b5461070f85613be3565b52610737610727826000526009602052604060002090565b6003600052602052604060002090565b5461074185613bf3565b52610769610759826000526009602052604060002090565b6004600052602052604060002090565b5461077385613c03565b5261079b61078b826000526009602052604060002090565b6005600052602052604060002090565b546107a585613c13565b526107cd6107bd826000526009602052604060002090565b6006600052602052604060002090565b546107d785613c23565b526000526009602052604060002090565b6007600052602052604060002090565b5461080282613c33565b526040519182918261063b565b346102de5760003660031901126102de576000546040516001600160a01b039091168152602090f35b60409060031901126102de57600435610850816102cd565b9060243561085d816102cd565b90565b346102de576108c061087136610838565b61087961248f565b610892610884612319565b61088c612331565b336144ec565b916108e16108a96108a1612319565b61088c612354565b6001600160a01b038381169690958616871461237c565b60005485906108d99082166001600160a01b03166103b6565b9116146123c8565b8282166108ef811515612ca1565b6001600160a01b038316600090815260046020526040902054158015610cee575b61091990612ce3565b6001600160a01b038216600090815260046020526040902061093d90541515612d26565b61098060056109726109618560018060a01b03166000526004602052604060002090565b546000526007602052604060002090565b01546001600160a01b031690565b6040805163880cdc3160e01b6020808301919091526001600160a01b0387166024808401919091528252919791969192601f1992916109c9916109c4604483611664565b6145db565b506109f16103b660046109726109618960018060a01b03166000526004602052604060002090565b15610bb55750610b0d95610a4f916109c4610a2660046109726109618a60018060a01b03166000526004602052604060002090565b8a5162e6724f60e21b948101949094523360248501529183604481015b03908101845283611664565b505b6001600160a01b0383811660009081526004602090815260408083205493881683528083208490559282526005905220610aa79085905b80546001600160a01b0319166001600160a01b03909216919091179055565b610aec336004610acc6109618860018060a01b03166000526004602052604060002090565b0180546001600160a01b0319166001600160a01b03909216919091179055565b03610b97575b506001600160a01b0316600090815260046020526040902090565b54610465610b2a6005610972846000526007602052604060002090565b92610b66610b596002610b47866000526007602052604060002090565b01546000526005602052604060002090565b546001600160a01b031690565b90610b716001600355565b519283526001600160a01b03938416602084015290921660408201529081906060820190565b6001600160a01b031660009081526004602052604081205538610af2565b60005460049791908290610bd1906001600160a01b03166103b6565b8a5163111ea8c160e21b8152998a9182905afa9788156104a657610b0d98610c3491600091610cd1575b508a516001600160a01b038916858201908152909190610c2690839060200103878101845283611664565b610c2e612d72565b906144ec565b908116151580610cc7575b610c4c575b505050610a51565b8851634fb2e45d60e01b83820152336024820152610cbe936109c491610c8690610c80816044810103848101835282611664565b846145db565b508a5193630a3e884b60e41b9085015283610a4360248201906007606060808401936000815260006020820152600060408201520152565b50388080610c44565b5080311515610c3f565b610ce89150843d861161049f576104908183611664565b38610bfb565b50848114610910565b346102de5760203660031901126102de576020610d27600435600052600760205260ff6001604060002001541690565b6040519015158152f35b346102de5760203660031901126102de5760043560005260076020526020600360406000200154604051908152f35b346102de5760203660031901126102de576004356000526007602052602060018060a01b0360046040600020015416604051908152f35b346102de57600080600319360112610e3d57610db46104c7614025565b610dbd33614150565b8015610dd8575b610dcd90612514565b610dd5613a57565b80f35b508054604051630536340960e21b8152906001600160a01b03906020908390600490829085165afa9081156104a657610dcd928492610e1d575b501633149050610dc4565b610e3691925060203d811161049f576104908183611664565b9038610e12565b80fd5b346102de5760203660031901126102de57600435806000526007602052604060002054600560205261046560018060a01b0380604060002054169360076020526040600020916004600284015493015416610eaa6005610972846000526007602052604060002090565b906003610ee2610ed16001610ec9876000526007602052604060002090565b015460ff1690565b946000526007602052604060002090565b0154604080519788526001600160a01b03988916602089015287019490945286166060860152909416608084015292151560a083015260c082019290925290819060e0820190565b346102de5760203660031901126102de57600435610f47816102cd565b60018060a01b031660005260046020526040600020546000526007602052602060ff600160406000200154166040519015158152f35b346102de57610f8b36610838565b610f966104c7614025565b610f9f33614150565b8015610fd3575b91610fb3610fb893612514565b612560565b604080519283526001600160a01b0391909116602083015290f35b50600054604051630536340960e21b81526001600160a01b0393916020908290600490829088165afa80156104a657610fb894610fb392600092611020575b503391161491935050610fa6565b61103991925060203d811161049f576104908183611664565b9038611012565b346102de5760003660031901126102de576020600654604051908152f35b346102de5760203660031901126102de5760043561107b816102cd565b60018060a01b031660005260046020526020604060002054604051908152f35b346102de576040806003193601126102de57600435906110b961248f565b6110cd826000526007602052604060002090565b6001015460ff166110dd90612bfd565b6110f1826000526007602052604060002090565b600401546001600160a01b03166001600160a01b0316331461111290612da1565b61111a61426e565b600255611131826000526007602052604060002090565b60050154600254825163015042f960e11b602082015260248035908201526044808201929092529081526001600160a01b0390911690611172606482611664565b61117b916145db565b8051810160200190602001906111909161348c565b9590949796858385878c6111a787879b999b612482565b906111b191612482565b906111bb91612482565b906111c591612482565b906111cf91612482565b906111d991612482565b6111e290613caf565b80611520575b5080611484575b50806113e8575b5080611372575b50806112d6575b5080611231575b5061121990610465946134f2565b6112236001600355565b519081529081906020820190565b90600494602061124b6103b660005460018060a01b031690565b85516313b92d3560e31b815297889182905afa9283156104a657610419611219946112a892610465996000926112b1575b50875163a9059cbb60e01b60208201523360248201526044810191909152916109c49083906064820190565b5094509061120b565b6109c49192506112cf9060203d60201161049f576104908183611664565b919061127c565b6000546004906020906112f1906001600160a01b03166103b6565b86516324768d9160e01b815292839182905afa80156104a657611346926104199260009261134d575b50865163a9059cbb60e01b60208201523360248201526044810191909152916109c49083906064820190565b5038611204565b6109c491925061136b9060203d60201161049f576104908183611664565b919061131a565b60005460049060209061138d906001600160a01b03166103b6565b87516324768d9160e01b815292839182905afa80156104a6576113e192610419926000926112b15750875163a9059cbb60e01b60208201523360248201526044810191909152916109c49083906064820190565b50386111fd565b600054600490602090611403906001600160a01b03166103b6565b8851635506ee0b60e11b815292839182905afa80156104a657611458926104199260009261145f575b50885163a9059cbb60e01b60208201523360248201526044810191909152916109c49083906064820190565b50386111f6565b6109c491925061147d9060203d60201161049f576104908183611664565b919061142c565b60005460049060209061149f906001600160a01b03166103b6565b89516330125cf560e01b815292839182905afa80156104a6576114f492610419926000926114fb575b50895163a9059cbb60e01b60208201523360248201526044810191909152916109c49083906064820190565b50386111ef565b6109c49192506115199060203d60201161049f576104908183611664565b91906114c8565b60005460049060209061153b906001600160a01b03166103b6565b8a51636402742760e01b815292839182905afa80156104a6576115909261041992600092611597575b508a5163a9059cbb60e01b60208201523360248201526044810191909152916109c49083906064820190565b50386111e8565b6109c49192506115b59060203d60201161049f576104908183611664565b9190611564565b634e487b7160e01b600052604160045260246000fd5b6060810190811067ffffffffffffffff8211176115ee57604052565b6115bc565b610100810190811067ffffffffffffffff8211176115ee57604052565b6040810190811067ffffffffffffffff8211176115ee57604052565b6020810190811067ffffffffffffffff8211176115ee57604052565b60e0810190811067ffffffffffffffff8211176115ee57604052565b90601f8019910116810190811067ffffffffffffffff8211176115ee57604052565b67ffffffffffffffff81116115ee5760051b60200190565b346102de576020806003193601126102de5760043567ffffffffffffffff81116102de57366023820112156102de578060040135906116dc82611686565b916116ea6040519384611664565b80835260248484019160051b830101913683116102de57602401905b8282106117165761001684613d87565b81358152908401908401611706565b346102de5760203660031901126102de576020600435611744816102cd565b60018060a01b03809116600052600482526040600020546000526007825260056040600020015416604051908152f35b346102de5760403660031901126102de57600435600052600860205260406000206024356000526020526020604060002054604051908152f35b346102de5760203660031901126102de5760043560005260076020526020600260406000200154604051908152f35b346102de5760403660031901126102de576004356000526007602052602061180e6024356003604060002001612b5c565b90549060031b1c604051908152f35b346102de5760003660031901126102de576001546040516001600160a01b039091168152602090f35b346102de5760403660031901126102de576118626104c7614025565b61186b33614150565b8015611889575b61187b90612514565b610016602435600435613d33565b50600054604051630536340960e21b8152906001600160a01b03906020908390600490829085165afa9081156104a65761187b926000926118d0575b501633149050611872565b6118e991925060203d811161049f576104908183611664565b90386118c5565b346102de5760203660031901126102de57600435600052600d6020526020604060002054604051908152f35b346102de5760003660031901126102de5760005460405163d1f956b160e01b815290602090829060049082906001600160a01b03165afa9081156104a657610465916119a5916000916119b5575b5060405161197781611610565b601381527267657464656c656761746f72436f756e74282960681b602082015261199f612306565b9161456c565b6040519081529081906020820190565b6119cd915060203d811161049f576104908183611664565b3861196a565b801515036102de57565b346102de5760603660031901126102de576024356119fa816102cd565b604435611a06816119d3565b611a116104c7614025565b611a1a33614150565b8015611a36575b91611a2e61001693612514565b600435612f27565b50600054604051630536340960e21b81526001600160a01b0393916020908290600490829088165afa80156104a65761001694611a2e92600092611a83575b503391161491935050611a21565b611a9c91925060203d811161049f576104908183611664565b9038611a75565b610100810192916000915b60088310611abb57505050565b600190825181526020809101920192019190611aae565b346102de5760203660031901126102de57610465600435611bdf6107e8611af7613bc1565b92611b1e611b0f826000526008602052604060002090565b60008052602052604060002090565b548452611b386106c3826000526008602052604060002090565b546020850152611b556106f5826000526008602052604060002090565b546040850152611b72610727826000526008602052604060002090565b546060850152611b8f610759826000526008602052604060002090565b546080850152611bac61078b826000526008602052604060002090565b5460a0850152611bc96107bd826000526008602052604060002090565b5460c08501526000526008602052604060002090565b5460e082015260405191829182611aa3565b346102de5760203660031901126102de576020610d27600435611c13816102cd565b614150565b346102de57611cca611c2936610838565b90611c3261248f565b611c7b611c40610884612319565b611c4b6108a1612319565b906001600160a01b0390611c649082168683161461237c565b6000546108d99082166001600160a01b03166103b6565b611ca7611ca26001610ec96109618560018060a01b03166000526004602052604060002090565b61240d565b611cb7611cb261426e565b600255565b611cc360028054612776565b3390612978565b611ce3611b0f6002546000526008602052604060002090565b611ced815461246f565b9055611cf7613cdb565b611d106005610972836000526007602052604060002090565b90611d1a81612c41565b611d246001600355565b604080519182526001600160a01b03929092166020820152f35b346102de5760203660031901126102de57611d5a6104c7614025565b611d6333614150565b8015611d7e575b611d7390612514565b610016600435612754565b50600054600490602090611d9a906001600160a01b03166103b6565b604051630536340960e21b815292839182905afa80156104a657611d7391600091611dd3575b506001600160a01b031633149050611d6a565b611deb915060203d811161049f576104908183611664565b38611dc0565b346102de5760203660031901126102de57600054604051630536340960e21b8152906001600160a01b03906020908390600490829085165afa9182156104a657600092611e84575b5033911603611e4d57610016600435614356565b60405162461bcd60e51b815260206004820152600f60248201526e6f776e2e6e6f6e617574682e44414f60881b6044820152606490fd5b611e9d91925060203d811161049f576104908183611664565b9038611e39565b346102de5760203660031901126102de57600435611ec1816102cd565b803b6000611ece826122ea565b92611edc6040519485611664565b82845260208401903c602d815110611f0257602a015160405160609190911c8152602090f35b60405162461bcd60e51b81526020600482015260136024820152724e6f742061206d696e696d616c2070726f787960681b6044820152606490fd5b60403660031901126102de57600435611f5461248f565b611f5c61426e565b6002556000908082526007602052611f7d60ff600160408520015416612bfd565b81526007602052611fbc60018060a01b036005604084200154166040519062a0e53360e51b60208301526024356024830152602482526109c4826115d2565b50600160035580f35b346102de5760c03660031901126102de57602435600435611fe5826102cd565b6064359060843590611ff561248f565b6120166120116001610ec9846000526007602052604060002090565b612bfd565b61203c6120356103b66004610972856000526007602052604060002090565b3314612da1565b612047611cb261426e565b61205360028054612776565b61205c82613c57565b61206583613c83565b6120f86120ea6120d66120876005610972866000526007602052604060002090565b604051634996516b60e11b6020808301919091526001600160a01b039099166024820152604480359082015260648101889052608481019690965260a4803590870152969490819060c4820190565b03966109c4601f1998898101845283611664565b838082518301019101612ded565b9281612115575b505061210b9350613709565b6100166001600355565b60005460049291908190612131906001600160a01b03166103b6565b604051635e09dbe760e01b815294859182905afa80156104a65761210b9761218c94600092612194575b5060405163a9059cbb60e01b93810193909352336024840152604483019390935290916109c4908360648101610a43565b5038806120ff565b6109c492506121af90843d861161049f576104908183611664565b9161215b565b346102de576020806003193601126102de57600480356121d4816102cd565b60005460405163d1f956b160e01b81526001600160a01b03949093909182918591829088165afa9081156104a6576104659461045394600093612235575b50604051931681840152825261222782611610565b61222f6142f9565b90614530565b61224d919350823d841161049f576104908183611664565b9138612212565b346102de5760003660031901126102de576020610d27614025565b346102de5760203660031901126102de57600435600052600a6020526020604060002054604051908152f35b346102de5760203660031901126102de57600435600052600c6020526020604060002054604051908152f35b346102de5760003660031901126102de5760206122e261426e565b604051908152f35b67ffffffffffffffff81116115ee57601f01601f191660200190565b604051906123138261162c565b60008252565b6040516123258161162c565b60008152906000368137565b6040519061233e82611610565b60078252666f776e6572282960c81b6020830152565b6040519061236182611610565b600c82526b67657448657862617365282960a01b6020830152565b1561238357565b60405162461bcd60e51b815260206004820152601760248201527f6e65737465642e696e76616c69642e696e7374616e63650000000000000000006044820152606490fd5b156123cf57565b60405162461bcd60e51b81526020600482015260166024820152756e65737465642e696e76616c69642e6865786261736560501b6044820152606490fd5b1561241457565b60405162461bcd60e51b815260206004820152601860248201527f6e65737465642e706172656e742e6e6f742e65786973747300000000000000006044820152606490fd5b634e487b7160e01b600052601160045260246000fd5b906001820180921161247d57565b612459565b9190820180921161247d57565b6002600354146124a0576002600355565b604051633ee5aeb560e01b8152600490fd5b156124b957565b60405162461bcd60e51b81526020600482015260126024820152716f776e2e696e76616c69642e69735361666560701b6044820152606490fd5b908160209103126102de575161085d816102cd565b6040513d6000823e3d90fd5b1561251b57565b60405162461bcd60e51b815260206004820152601b60248201527f6f776e2e6e6f6e617574682e44414f6f725365637572656261736500000000006044820152606490fd5b61260d929161261360049261257361248f565b6125a66125a161259d6001610ec96109618860018060a01b03166000526004602052604060002090565b1590565b612925565b6125b96125b4600654612969565b600655565b6006549586916125d785610a88856000526005602052604060002090565b6001600160a01b038516600090815260046020526040902083905b556001600160a01b0316600090815260046020526040902090565b54612bba565b61263c8261262b866000526007602052604060002090565b0180546001600160a01b0319169055565b600054602090612654906001600160a01b03166103b6565b60405163e09d394d60e01b815293849182905afa80156104a65761268761269d9161270794600091612736575b50612ade565b6005610acc876000526007602052604060002090565b6126b66005610972866000526007602052604060002090565b6000546109c4906126cf906001600160a01b03166103b6565b6040516352902c5960e01b60208201526001600160a01b03918216602482015293166044840152606483018690528260848101610419565b506000828152600760205260409020600501546001600160a01b03169161272d81612c41565b91906001600355565b61274e915060203d811161049f576104908183611664565b38612681565b6127659061276061426e565b612776565b565b60001981019190821161247d57565b9061278e611b0f836000526008602052604060002090565b54158061291b575b80612912575b6127a4575050565b6127c0906127ba6127b484612767565b91612767565b90612776565b6127df611b0f6127cf83612767565b6000526008602052604060002090565b546127f7611b0f836000526008602052604060002090565b556128076106c36127cf83612767565b5461281f6106c3836000526008602052604060002090565b5561282f6106f56127cf83612767565b546128476106f5836000526008602052604060002090565b556128576107276127cf83612767565b5461286f610727836000526008602052604060002090565b5561287f6107596127cf83612767565b54612897610759836000526008602052604060002090565b556128a761078b6127cf83612767565b546128bf61078b836000526008602052604060002090565b556128cf6107bd6127cf83612767565b546128e76107bd836000526008602052604060002090565b5561290f6107e86128fd6107e86127cf85612767565b54926000526008602052604060002090565b55565b5080151561279c565b5060018211612796565b1561292c57565b60405162461bcd60e51b81526020600482015260156024820152746e65737465642e616c72656164792e65786973747360581b6044820152606490fd5b600019811461247d5760010190565b91612a106004926129fb61260d956129b06125a161259d6001610ec96109618a60018060a01b03166000526004602052604060002090565b6129be6125b4600654612969565b6006549687916129dc87610a88856000526005602052604060002090565b6001600160a01b038716600090815260046020526040902083906125f2565b83610acc866000526007602052604060002090565b600054602090612a28906001600160a01b03166103b6565b60405163e09d394d60e01b815293849182905afa80156104a657612a5a612a7091612ada946000916127365750612ade565b6005610acc866000526007602052604060002090565b612a896005610972856000526007602052604060002090565b6000546109c490612aa2906001600160a01b03166103b6565b6040516352902c5960e01b60208201526001600160a01b03918216602482015293166044840152606483018590528260848101610419565b5090565b6e5af43d82803e903d91602b57fd5bf390763d602d80600a3d3981f3363d3d373d3d3d363d7300000062ffffff8260881c161760005260781b17602052603760096000f0906001600160a01b03821615612b3457565b60405163b06ebf3d60e01b8152600490fd5b634e487b7160e01b600052603260045260246000fd5b8054821015612b745760005260206000200190600090565b612b46565b90815491680100000000000000008310156115ee5782612ba191600161276595018155612b5c565b90919082549060031b91821b91600019901b1916179055565b9080600052600760205280604060002083600282015560018101600160ff198254161790555581612be9575050565b612765916000526003604060002001612b79565b15612c0457565b60405162461bcd60e51b81526020600482015260156024820152746e65737465642e757365722e6e6f7461637469766560581b6044820152606490fd5b806000526007602052612c5e60ff60016040600020015416612bfd565b6000526007602052612c9e60018060a01b03600560406000200154166040519062a0e53360e51b602083015260016024830152602482526109c4826115d2565b50565b15612ca857565b60405162461bcd60e51b81526020600482015260136024820152726e65737465642e7a65726f2e6164647265737360681b6044820152606490fd5b15612cea57565b60405162461bcd60e51b81526020600482015260146024820152736e65737465642e7461726765742e65786973747360601b6044820152606490fd5b15612d2d57565b60405162461bcd60e51b815260206004820152601760248201527f6e65737465642e736f757263652e6e6f744578697374730000000000000000006044820152606490fd5b60405190612d7f82611610565b601382527255736572546f496e737428616464726573732960681b6020830152565b15612da857565b60405162461bcd60e51b815260206004820152601b60248201527f6e65737465642e757365722e696e76616c6964696e7374616e636500000000006044820152606490fd5b91908260409103126102de576020825192015190565b15612e0a57565b60405162461bcd60e51b815260206004820152601860248201527f6e65737465642e757365722e6e6f742e646574616368656400000000000000006044820152606490fd5b15612e5657565b60405162461bcd60e51b815260206004820152601760248201527f6e65737465642e706172656e742e6e6f746163746976650000000000000000006044820152606490fd5b15612ea257565b60405162461bcd60e51b815260206004820152601b60248201527f6e65737465642e757365722e616c726564792e646574616368656400000000006044820152606490fd5b8054908115612f115760001991820191612f018383612b5c565b909182549160031b1b1916905555565b634e487b7160e01b600052603160045260246000fd5b919091600192612f4861201185610ec9856000526007602052604060002090565b612f53611cb261426e565b826130c65750600292612f7d84612f74846000526007602052604060002090565b01541515612e9b565b6000815b612fa9575b5050600061276593612fa2836000526007602052604060002090565b01556131fd565b600380612fd687612fc4876000526007602052604060002090565b01546000526007602052604060002090565b01548210156130c0578361301061300684846130008b612fc4876000526007602052604060002090565b01612b5c565b90549060031b1c90565b14613025575061301f90612969565b81612f81565b600092508061309c8793612ba16130826130068961307c876130756127659f612fc46130ba9c61306383612fc4896000526007602052604060002090565b01956000526007602052604060002090565b0154612767565b90612b5c565b918461300088612fc48c6000526007602052604060002090565b6130b483612fc4876000526007602052604060002090565b01612ee7565b93612f86565b50612f86565b6127659350613147906130f060026130e8856000526007602052604060002090565b015415612e03565b6001600160a01b038116600090815260046020526040902061312d906131289054600052600760205260ff6001604060002001541690565b612e4f565b6001600160a01b0316600090815260046020526040902090565b54600261315e836000526007602052604060002090565b015561318581600361317f6002612fc4846000526007602052604060002090565b01612b79565b6131fd565b6040519061319782611610565b600e82526d6c766c62732875696e743235362960901b6020830152565b604051906131c182611610565b600f82526e6c766c7174792875696e743235362960881b6020830152565b60ff1660ff811461247d5760010190565b801561247d576000190190565b6132ba60059161321b83610972836000526007602052604060002090565b9060409081519161325c6020938061323a868201906000602083019252565b039561324e601f1997888101845283611664565b61325661318a565b9061456c565b936132a461327888610972866000526007602052604060002090565b83519061329c82613290898201906000602083019252565b03858101845283611664565b6132566131b4565b9260029687916000526007602052604060002090565b0154946001978896875b6132d6575b5050505050505050505050565b600f60ff8916111580613483575b1561347e578886888d888c61330a6103b6896109728a6000526007602052604060002090565b61333a575b505050505061332b613333926000526007602052604060002090565b0154976131df565b96896132c4565b926133a56133bf96936109c4936133b197966133648c6109728d6000526007602052604060002090565b96549151978895637b058ac160e01b908701528d60248701939095949160809360ff9160a08701988752602087015216604085015260608401521515910152565b03898101845283611664565b888082518301019101612ded565b908c1561342f57908a915b8082116133e857505061332b613333925b92505086888d888c61330f565b6133f3919250612969565b61341b8161340c8d546000526008602052604060002090565b90600052602052604060002090565b613425815461246f565b9055908a916133ca565b908a915b81811161344857505061332b613333926133db565b6134658161340c6134769495546000526008602052604060002090565b61346f8154612767565b90556131f0565b908a91613433565b6132c9565b508015156132e4565b9190826101009103126102de5781519160208101519160408201519160608101519160808201519160a08101519160e060c083015192015190565b604051906134d482611610565b600f82526e66726565496e74657276616c73282960881b6020830152565b6000805492939261350b906001600160a01b03166103b6565b90604091825180809263cfbffe5360e01b8252602092839160049586915afa80156104a65761354d9185916136ec575b50613544612319565b906132566134c7565b839784965b600f881115806136e3575b156136d75789888389876005946135856103b6876109728a6000526007602052604060002090565b6135b7575b50505050505060026135a96135b1926000526007602052604060002090565b015497612969565b96613552565b888515968715806136ce575b80156136c7575b6135d6575b505061358a565b9261041961364c95936109c4936135ff61365a99976109728e6000526007602052604060002090565b9560029a8b549151988996630fe4bc4560e11b9088015260248701919260c093969594919660e0840197600085526000602086015260408501526060840152608083015260a08201520152565b878082518301019101612ded565b926136be575b8c156136ae575b80831161367b57508389878e888e956135cf565b61368490612969565b61369d8161340c84546000526008602052604060002090565b6136a7815461246f565b9055613667565b878310613667579b50819b613667565b9b50819b613660565b508d6135ca565b508515156135c3565b50505050505050509050565b5080151561355d565b6137039150833d851161049f576104908183611664565b3861353b565b6000549193929091613723906001600160a01b03166103b6565b906004602060409384519283809263cfbffe5360e01b82525afa80156104a657613757916000916138f25750613544612319565b6000956000945b600f861115806138e9575b156138df57858486848b8760056137916103b6826109728b6000526007602052604060002090565b6137c4575b5050505050505060026137b66137be926000526007602052604060002090565b015495612969565b9461375e565b861515806138d7575b80156138ce575b15613796579261041961384d95936109c49361380261385c99976109728d6000526007602052604060002090565b9560029a8b549151988996630fe4bc4560e11b6020890152602488019260c094919796959260e085019885526020850152600060408501526060840152608083015260a08201520152565b60208082518301019101612ded565b919088156138c5575b8a156138b4575b8083116138815750508486848b878b95613796565b61388a90612969565b6138a38161340c84546000526008602052604060002090565b6138ad815461246f565b905561386c565b6004831061386c579950819961386c565b99508199613865565b508315156137d4565b5060006137cd565b5050505050509050565b50801515613769565b613703915060203d60201161049f576104908183611664565b1561391257565b60405162461bcd60e51b81526020600482015260126024820152716e65737465642e696e76616c69642e61676560701b6044820152606490fd5b6040519061395982611610565b601882527f6765744261746368526f79616c7479436c6175736573282900000000000000006020830152565b6102a09081818403126102de5782601f820112156102de5760408051936139ab85611648565b84938301928184116102de57935b8385106139c857505050505090565b6060858303126102de5782516060916139e0826115d2565b86518252602091828801518382015285880151868201528152019401936139b9565b906007811015612b745760051b0190565b908160640291606483040361247d57565b8181029291811591840414171561247d57565b8115613a41570490565b634e487b7160e01b600052601260045260246000fd5b613a62611cb261426e565b613a78600254613a7381151561390b565b612767565b600054613a8d906001600160a01b03166103b6565b90604051809263cfbffe5360e01b825281600460209586935afa9081156104a657613ae391613ad591600091613ba4575b50613ac761394c565b613acf612306565b91614427565b838082518301019101613985565b613af782600052600a602052604060002090565b5460015b6007811115613b0b575050505050565b80613b27613b909261340c876000526008602052604060002090565b548015613b9e57613b40613b3a83612767565b86613a02565b51878151928315613b9557613b67613b6c92613b5f613b72968a613a24565b940151613a13565b613a24565b90613a37565b613b8a8261340c886000526009602052604060002090565b55612969565b613afb565b50505050612969565b50612969565b613bbb9150853d871161049f576104908183611664565b38613abe565b60405190613bce826115f3565b610100368337565b805115612b745760200190565b805160011015612b745760400190565b805160021015612b745760600190565b805160031015612b745760800190565b805160041015612b745760a00190565b805160051015612b745760c00190565b805160061015612b745760e00190565b8051821015612b745760209160051b010190565b60025480600052600a60205260406000205491820180921161247d57600052600a602052604060002055565b60025480600052600b60205260406000205491820180921161247d57600052600b602052604060002055565b60025480600052600c60205260406000205491820180921161247d57600052600c602052604060002055565b60025480600052600d602052604060002054906001820180921161247d57600052600d602052604060002055565b9080600052600a60205260406000205491820180921161247d57600052600a602052604060002055565b9080600052600c60205260406000205491820180921161247d57600052600c602052604060002055565b9080600052600d60205260406000205491820180921161247d57600052600d602052604060002055565b613d926104c7614025565b613d9b33614150565b8015613ef4575b613dab90612514565b60008054909190613dc4906001600160a01b03166103b6565b604092835192839263111ea8c160e21b845283600460209687935afa9283156104a6578293613ed5575b50815b8151811015613ecd57613e048183613c43565b518651868101828152819003808252601f1991613e3691613e289060200182611664565b613e30613f5b565b8861456c565b613e55613e4d84600052600a602052604060002090565b918254612482565b9055845b878960088310613e76575050505050613e7190612969565b613df1565b5190810184815260208101839052613ec89291613eb091613ea290829060400103868101835282611664565b613eaa613f8b565b8a61456c565b613b8a8261340c876000526008602052604060002090565b613e59565b505050505050565b613eed919350843d861161049f576104908183611664565b9138613dee565b50600054604051630536340960e21b8152906001600160a01b03906020908390600490829085165afa9081156104a657613dab92600092613f3b575b501633149050613da2565b613f5491925060203d811161049f576104908183611664565b9038613f30565b60405190613f6882611610565b6014825273676574627573696e6573732875696e743235362960601b6020830152565b60405190613f9882611610565b601d82527f67657472616e6b436f756e742875696e743235362c75696e74323536290000006020830152565b15613fcb57565b60405162461bcd60e51b815260206004820152601960248201527f6f776e2e7361666567756172642e63616c6c2e6661696c6564000000000000006044820152606490fd5b908160209103126102de575161085d816119d3565b600054604051634bf9c0ad60e11b8152906020908190839060049082906001600160a01b03165afa9182156104a65761085d9261409b916000916140b6575b5060405161407181611610565b6008815267697353616665282960c01b84820152604051916140928361162c565b60008352614452565b9190806140ac575b61044690613fc4565b50815181146140a3565b6140cd9150833d851161049f576104908183611664565b38614064565b604051906140e082611610565b601582527469735365637572654261736528616464726573732960581b6020830152565b1561410b57565b60405162461bcd60e51b815260206004820152601a60248201527f6f776e2e736563757265626173652e63616c6c2e6661696c65640000000000006044820152606490fd5b6000546001600160a01b0316604051918291634bf9c0ad60e11b835282600460209485935afa9283156104a65761085d936141be92610419926000926141d9575b506040516001600160a01b0390911685820190815290926141b6918491602090910190565b61042f6140d3565b9190806141cf575b61044690614104565b50815181146141c6565b6141b69192506141f590863d881161049f576104908183611664565b9190614191565b6040519061420982611610565b601182527069735369676e657228616464726573732960781b6020830152565b1561423057565b60405162461bcd60e51b81526020600482015260166024820152751bdddb8b9cda59db995c8b98d85b1b0b99985a5b195960521b6044820152606490fd5b60005460405163111ea8c160e21b815290602090829060049082906001600160a01b03165afa80156104a65761085d916000916142db575b506040516142b381611610565b6005815264616765282960d81b6020820152604051916142d28361162c565b6000835261456c565b6142f3915060203d811161049f576104908183611664565b386142a6565b6040519061430682611610565b6011825270697364656c656761746f724e6f6465282960781b6020830152565b3d15614351573d90614337826122ea565b916143456040519384611664565b82523d6000602084013e565b606090565b600080546040516311be646b60e21b815290602090829060049082906001600160a01b03165afa9081156104a6578284819382938391614409575b505af161439c614326565b50156143d25760405190815233907fcdcc745fe377b103b45fa0cec23ae3ef93d6fc6a84a01f0d18c40b354dd1d5d890602090a2565b60405162461bcd60e51b815260206004820152600f60248201526e1bdddb8b989d5c9b8b99985a5b1959608a1b6044820152606490fd5b614421915060203d811161049f576104908183611664565b38614391565b906144329291614452565b906000901561443f575090565b604051915061444d8261162c565b815290565b9190823b156144d3578051906020918263ffffffff60e01b92012016916040519180830193845281519160005b8381106144bf5750505091816144ac60248260009795968897018783820152036004810184520182611664565b5191620dbba0fa6144bb614326565b9091565b81810183015185820160240152820161447f565b5050506000906040516144e58161162c565b6000815290565b92916144fa91600094614452565b9080614525575b6145085750565b9091506020818051810103126102de57602001516103b6816102cd565b506020815114614501565b929161453e91600094614452565b9080614561575b61454c5750565b61085d91925060208082518301019101614010565b506020815114614545565b929161457a91600094614452565b908061459f575b6145885750565b9091506020818051810103126102de576020015190565b506020815114614581565b906020825192015163ffffffff60e01b9081811693600481106145cc57505050565b60040360031b82901b16169150565b6001600160a01b0381161561465c57600080918351908260208601915af190614602614326565b911561460c575090565b8051600091906004116146565761462391506145aa565b8151156146335750805190602001fd5b604051630870274d60e21b81526001600160e01b03199091166004820152602490fd5b50614623565b60405162461bcd60e51b81526020600482015260126024820152711bdddb8b9a5b9d985b1a590b9d185c99d95d60721b6044820152606490fdfea26469706673582212208266c50b937e416fe26162476121b55737221eb84b51e38fafc6dd0a0864b24064736f6c63430008140033","linkReferences":{}},"methodIdentifiers":{"Burn(uint256)":"b90306ad","UserToId(address)":"629d671e","_delegatorCount()":"a1f7f539","_getImplementation(address)":"c54e44b0","_isDelegatorNode(address)":"e01ad5fd","_isSafe()":"e0a9bc2b","_isSecureBase(address)":"af484526","_isSigner(address)":"1f185d16","addBusiness(uint256,address,uint256,uint256,uint256,uint256)":"dcb3fc4a","claimIncome(uint256,uint256)":"6a811244","compileRoyality()":"477968f2","getBalance()":"12065fe0","getBatchRankCounts(uint256)":"a89d693b","getHexbase()":"3b9b7955","getNode(uint256)":"4f0f4aa9","getNodeChild(uint256,uint256)":"896c354a","getNodeDirectsCount(uint256)":"42cc9d57","getNodeParentId(uint256)":"849c22ad","getNodesCount()":"61ea7208","getRoyalityAmountBatch(uint256)":"3a7b55b8","getUserIdToInst(uint256)":"44585097","getUserIdToStor(uint256)":"2fefc0bf","getUserToInst(address)":"0e5fd00b","getUserToStor(address)":"76fe6c45","getbusiness(uint256)":"eb95c662","getjoining(uint256)":"98b3f215","getrankCount(uint256,uint256)":"80f85e33","getwithdrawn(uint256)":"f3ca7124","importBusiness(uint256,uint256)":"2a687c87","importJoining(uint256,uint256)":"32ff4eab","importOld(uint256,uint256)":"c871372b","importRankNBusiness(uint256[])":"6a9dd274","importWithdrawal(uint256,uint256)":"95f72f49","isNode(uint256)":"419cb27b","isUserExists(address)":"509222cd","join(address,address)":"b1c49079","joinImport(address,address)":"50db85d1","moveDownline(uint256,address,bool)":"a87af769","nodes(uint256)":"1c53c280","owner()":"8da5cb5b","setDefaultRankCount(uint256)":"b366335e","systemAge()":"fdc10bc9","updateUsers(address,address)":"3baee0ea"},"id":27}