{"abi":[{"type":"constructor","inputs":[{"name":"_hex","type":"address","internalType":"address"}],"stateMutability":"nonpayable"},{"type":"fallback","stateMutability":"payable"},{"type":"receive","stateMutability":"payable"},{"type":"function","name":"Burn","inputs":[{"name":"amount","type":"uint256","internalType":"uint256"}],"outputs":[],"stateMutability":"nonpayable"},{"type":"function","name":"UserToId","inputs":[{"name":"","type":"address","internalType":"address"}],"outputs":[{"name":"","type":"uint256","internalType":"uint256"}],"stateMutability":"view"},{"type":"function","name":"_delegatorCount","inputs":[],"outputs":[{"name":"","type":"uint256","internalType":"uint256"}],"stateMutability":"view"},{"type":"function","name":"_getImplementation","inputs":[{"name":"clone","type":"address","internalType":"address"}],"outputs":[{"name":"impl","type":"address","internalType":"address"}],"stateMutability":"view"},{"type":"function","name":"_isDelegatorNode","inputs":[{"name":"sender","type":"address","internalType":"address"}],"outputs":[{"name":"","type":"bool","internalType":"bool"}],"stateMutability":"view"},{"type":"function","name":"_isSafe","inputs":[],"outputs":[{"name":"","type":"bool","internalType":"bool"}],"stateMutability":"view"},{"type":"function","name":"_isSecureBase","inputs":[{"name":"sender","type":"address","internalType":"address"}],"outputs":[{"name":"","type":"bool","internalType":"bool"}],"stateMutability":"view"},{"type":"function","name":"_isSigner","inputs":[{"name":"sender","type":"address","internalType":"address"}],"outputs":[{"name":"","type":"bool","internalType":"bool"}],"stateMutability":"view"},{"type":"function","name":"addBusiness","inputs":[{"name":"_id","type":"uint256","internalType":"uint256"},{"name":"_paramAdd","type":"address","internalType":"address"},{"name":"_tokenid","type":"uint256","internalType":"uint256"},{"name":"_qty","type":"uint256","internalType":"uint256"},{"name":"_msgValue","type":"uint256","internalType":"uint256"},{"name":"_type","type":"uint256","internalType":"uint256"}],"outputs":[],"stateMutability":"nonpayable"},{"type":"function","name":"claimIncome","inputs":[{"name":"_id","type":"uint256","internalType":"uint256"},{"name":"_maxint","type":"uint256","internalType":"uint256"}],"outputs":[{"name":"","type":"uint256","internalType":"uint256"},{"name":"","type":"uint256","internalType":"uint256"}],"stateMutability":"nonpayable"},{"type":"function","name":"compileRoyality","inputs":[{"name":"prevAge","type":"uint256","internalType":"uint256"}],"outputs":[],"stateMutability":"nonpayable"},{"type":"function","name":"createmdrequest","inputs":[{"name":"uid","type":"uint256","internalType":"uint256"},{"name":"newpid","type":"uint256","internalType":"uint256"}],"outputs":[],"stateMutability":"nonpayable"},{"type":"function","name":"getBalance","inputs":[],"outputs":[{"name":"","type":"uint256","internalType":"uint256"}],"stateMutability":"view"},{"type":"function","name":"getBatchRankCounts","inputs":[{"name":"ag","type":"uint256","internalType":"uint256"}],"outputs":[{"name":"counts","type":"uint256[8]","internalType":"uint256[8]"}],"stateMutability":"view"},{"type":"function","name":"getDownlineCountByLevel","inputs":[{"name":"uid","type":"uint256","internalType":"uint256"},{"name":"lvl","type":"uint256","internalType":"uint256"}],"outputs":[{"name":"","type":"uint256","internalType":"uint256"}],"stateMutability":"view"},{"type":"function","name":"getHexbase","inputs":[],"outputs":[{"name":"","type":"address","internalType":"address"}],"stateMutability":"view"},{"type":"function","name":"getNode","inputs":[{"name":"_id","type":"uint256","internalType":"uint256"}],"outputs":[{"name":"_i","type":"uint256","internalType":"uint256"},{"name":"_node","type":"address","internalType":"address"},{"name":"_pid","type":"uint256","internalType":"uint256"},{"name":"_inst","type":"address","internalType":"address"},{"name":"_stor","type":"address","internalType":"address"},{"name":"_active","type":"bool","internalType":"bool"},{"name":"_direcCount","type":"uint256","internalType":"uint256"}],"stateMutability":"view"},{"type":"function","name":"getNodeChild","inputs":[{"name":"_id","type":"uint256","internalType":"uint256"},{"name":"inx","type":"uint256","internalType":"uint256"}],"outputs":[{"name":"child","type":"uint256","internalType":"uint256"}],"stateMutability":"view"},{"type":"function","name":"getNodeDirectsCount","inputs":[{"name":"_id","type":"uint256","internalType":"uint256"}],"outputs":[{"name":"count","type":"uint256","internalType":"uint256"}],"stateMutability":"view"},{"type":"function","name":"getNodeParent","inputs":[{"name":"_user","type":"address","internalType":"address"}],"outputs":[{"name":"","type":"uint256","internalType":"uint256"},{"name":"","type":"address","internalType":"address"}],"stateMutability":"view"},{"type":"function","name":"getNodeParentId","inputs":[{"name":"_id","type":"uint256","internalType":"uint256"}],"outputs":[{"name":"","type":"uint256","internalType":"uint256"}],"stateMutability":"view"},{"type":"function","name":"getNodesCount","inputs":[],"outputs":[{"name":"nodesCount","type":"uint256","internalType":"uint256"}],"stateMutability":"view"},{"type":"function","name":"getRoyalityAmountBatch","inputs":[{"name":"ag","type":"uint256","internalType":"uint256"}],"outputs":[{"name":"royal","type":"uint256[7]","internalType":"uint256[7]"}],"stateMutability":"view"},{"type":"function","name":"getTeamSize","inputs":[{"name":"uid","type":"uint256","internalType":"uint256"}],"outputs":[{"name":"","type":"uint256","internalType":"uint256"}],"stateMutability":"view"},{"type":"function","name":"getTotalTeamSizeWithLevel","inputs":[{"name":"_user","type":"address","internalType":"address"},{"name":"lvl","type":"uint256","internalType":"uint256"}],"outputs":[{"name":"","type":"uint256","internalType":"uint256"},{"name":"","type":"uint256","internalType":"uint256"}],"stateMutability":"view"},{"type":"function","name":"getUserIdToInst","inputs":[{"name":"_id","type":"uint256","internalType":"uint256"}],"outputs":[{"name":"","type":"address","internalType":"address"}],"stateMutability":"view"},{"type":"function","name":"getUserIdToStor","inputs":[{"name":"_id","type":"uint256","internalType":"uint256"}],"outputs":[{"name":"","type":"address","internalType":"address"}],"stateMutability":"view"},{"type":"function","name":"getUserToInst","inputs":[{"name":"node","type":"address","internalType":"address"}],"outputs":[{"name":"","type":"address","internalType":"address"}],"stateMutability":"view"},{"type":"function","name":"getUserToStor","inputs":[{"name":"_user","type":"address","internalType":"address"}],"outputs":[{"name":"","type":"address","internalType":"address"}],"stateMutability":"view"},{"type":"function","name":"getbusiness","inputs":[{"name":"ag","type":"uint256","internalType":"uint256"}],"outputs":[{"name":"","type":"uint256","internalType":"uint256"}],"stateMutability":"view"},{"type":"function","name":"getjoining","inputs":[{"name":"ag","type":"uint256","internalType":"uint256"}],"outputs":[{"name":"","type":"uint256","internalType":"uint256"}],"stateMutability":"view"},{"type":"function","name":"getrankCount","inputs":[{"name":"ag","type":"uint256","internalType":"uint256"},{"name":"rnk","type":"uint256","internalType":"uint256"}],"outputs":[{"name":"count","type":"uint256","internalType":"uint256"}],"stateMutability":"view"},{"type":"function","name":"getwithdrawn","inputs":[{"name":"ag","type":"uint256","internalType":"uint256"}],"outputs":[{"name":"","type":"uint256","internalType":"uint256"}],"stateMutability":"view"},{"type":"function","name":"importBusiness","inputs":[{"name":"_amt","type":"uint256","internalType":"uint256"},{"name":"_ag","type":"uint256","internalType":"uint256"}],"outputs":[],"stateMutability":"nonpayable"},{"type":"function","name":"importJoining","inputs":[{"name":"_cnt","type":"uint256","internalType":"uint256"},{"name":"_ag","type":"uint256","internalType":"uint256"}],"outputs":[],"stateMutability":"nonpayable"},{"type":"function","name":"importOld","inputs":[{"name":"_id","type":"uint256","internalType":"uint256"},{"name":"_limit","type":"uint256","internalType":"uint256"}],"outputs":[],"stateMutability":"payable"},{"type":"function","name":"importRankNBusiness","inputs":[{"name":"from","type":"uint256","internalType":"uint256"},{"name":"to","type":"uint256","internalType":"uint256"}],"outputs":[],"stateMutability":"nonpayable"},{"type":"function","name":"importWithdrawal","inputs":[{"name":"_amt","type":"uint256","internalType":"uint256"},{"name":"_ag","type":"uint256","internalType":"uint256"}],"outputs":[],"stateMutability":"nonpayable"},{"type":"function","name":"isNode","inputs":[{"name":"_id","type":"uint256","internalType":"uint256"}],"outputs":[{"name":"","type":"bool","internalType":"bool"}],"stateMutability":"view"},{"type":"function","name":"isUserExists","inputs":[{"name":"node","type":"address","internalType":"address"}],"outputs":[{"name":"","type":"bool","internalType":"bool"}],"stateMutability":"view"},{"type":"function","name":"join","inputs":[{"name":"_parent","type":"address","internalType":"address"},{"name":"_user","type":"address","internalType":"address"}],"outputs":[{"name":"_id","type":"uint256","internalType":"uint256"},{"name":"_stor","type":"address","internalType":"address"}],"stateMutability":"nonpayable"},{"type":"function","name":"joinImport","inputs":[{"name":"_parent","type":"address","internalType":"address"},{"name":"_user","type":"address","internalType":"address"}],"outputs":[{"name":"_id","type":"uint256","internalType":"uint256"},{"name":"_stor","type":"address","internalType":"address"}],"stateMutability":"nonpayable"},{"type":"function","name":"moveDownline","inputs":[{"name":"uid","type":"uint256","internalType":"uint256"}],"outputs":[],"stateMutability":"nonpayable"},{"type":"function","name":"nodes","inputs":[{"name":"","type":"uint256","internalType":"uint256"}],"outputs":[{"name":"","type":"address","internalType":"address"}],"stateMutability":"view"},{"type":"function","name":"owner","inputs":[],"outputs":[{"name":"","type":"address","internalType":"address"}],"stateMutability":"view"},{"type":"function","name":"setDefaultRankCount","inputs":[{"name":"_limit","type":"uint256","internalType":"uint256"}],"outputs":[],"stateMutability":"nonpayable"},{"type":"function","name":"setMoveDownlineApproval","inputs":[{"name":"uid","type":"uint256","internalType":"uint256"},{"name":"newpid","type":"uint256","internalType":"uint256"}],"outputs":[],"stateMutability":"nonpayable"},{"type":"function","name":"systemAge","inputs":[],"outputs":[{"name":"","type":"uint256","internalType":"uint256"}],"stateMutability":"view"},{"type":"function","name":"updateUsers","inputs":[{"name":"from","type":"address","internalType":"address"},{"name":"to","type":"address","internalType":"address"}],"outputs":[{"name":"_id","type":"uint256","internalType":"uint256"},{"name":"_stor","type":"address","internalType":"address"},{"name":"_parent","type":"address","internalType":"address"}],"stateMutability":"nonpayable"},{"type":"event","name":"EthBurned","inputs":[{"name":"sender","type":"address","indexed":true,"internalType":"address"},{"name":"amount","type":"uint256","indexed":false,"internalType":"uint256"}],"anonymous":false},{"type":"event","name":"EthTransferred","inputs":[{"name":"to","type":"address","indexed":true,"internalType":"address"},{"name":"amount","type":"uint256","indexed":false,"internalType":"uint256"}],"anonymous":false},{"type":"event","name":"HexBaseUpdated","inputs":[{"name":"previousHexBase","type":"address","indexed":true,"internalType":"address"},{"name":"newHexBase","type":"address","indexed":true,"internalType":"address"}],"anonymous":false},{"type":"event","name":"OwnerUpdated","inputs":[{"name":"previousOwner","type":"address","indexed":true,"internalType":"address"},{"name":"newOwner","type":"address","indexed":true,"internalType":"address"}],"anonymous":false},{"type":"error","name":"FailedDeployment","inputs":[]},{"type":"error","name":"InsufficientBalance","inputs":[{"name":"balance","type":"uint256","internalType":"uint256"},{"name":"needed","type":"uint256","internalType":"uint256"}]},{"type":"error","name":"ReentrancyGuardReentrantCall","inputs":[]},{"type":"error","name":"TargetCallFailed","inputs":[{"name":"selector","type":"bytes4","internalType":"bytes4"}]}],"bytecode":{"object":"0x608034620000d157601f620051e438819003918201601f19168301916001600160401b03831184841017620000d657808492602094604052833981010312620000d157516001600160a01b03811690819003620000d15780156200008c5760018060a01b031933816001541617600155600054161760005560016003556040516150f79081620000ed8239f35b60405162461bcd60e51b815260206004820152601360248201527f6f776e2e696e76616c69642e68657862617365000000000000000000000000006044820152606490fd5b600080fd5b634e487b7160e01b600052604160045260246000fdfe60806040526004361015610018575b361561001657005b005b60003560e01c80629db65514610327578063033eeffb146103225780630e5fd00b1461031d57806312065fe0146103185780631bb49f02146103135780631c53c2801461030e5780631f185d16146103095780632a687c87146103045780632fefc0bf146102ff57806332ff4eab146102fa57806333b59a5b146102f55780633a7b55b8146102f05780633b9b7955146102eb5780633baee0ea146102e6578063419cb27b146102e157806342cc9d57146102dc57806344585097146102d75780634f0f4aa9146102d2578063509222cd146102cd57806350db85d1146102c857806361ea7208146102c3578063629d671e146102be57806365d2fbd3146102b95780636a811244146102b457806376fe6c45146102af5780637bb98498146102aa57806380f85e33146102a5578063849c22ad146102a0578063896c354a1461029b5780638da5cb5b1461029657806395f72f491461029157806398b3f2151461028c578063a1f7f53914610287578063a89d693b14610282578063af4845261461027d578063b1c4907914610278578063b366335e14610273578063b90306ad1461026e578063c54e44b014610269578063c871372b14610264578063d1e0bbc61461025f578063dcb3fc4a1461025a578063e01ad5fd14610255578063e0a9bc2b14610250578063eb95c6621461024b578063eb9e9e2c14610246578063f3ca712414610241578063fd38093b1461023c5763fdc10bc90361000e5761288c565b61281c565b6127f0565b61262e565b612602565b6125e7565b61254d565b61235d565b612323565b6122a5565b612203565b612147565b6120f1565b611fde565b611fb7565b611e98565b611dab565b611d7f565b611cd9565b611cb2565b611c72565b611c43565b611c09565b611b63565b611b13565b611578565b611231565b6111f3565b6111d5565b611115565b6110c1565b610fd4565b610f9c565b610f6d565b610f33565b6109da565b61098b565b61081f565b61074b565b6106a5565b61066d565b6105c2565b61049d565b610468565b610403565b6103e7565b610397565b61035a565b3461035557602036600319011261035557600254600019810190811161035057610016906144e0565b612af6565b600080fd5b3461035557602036600319011261035557600435600052600b6020526020604060002054604051908152f35b6001600160a01b0381160361035557565b346103555760203660031901126103555760206004356103b681610386565b6001600160a01b03809116600052600482526040600020546000526007825260046040600020015416604051908152f35b3461035557600036600319011261035557602047604051908152f35b346103555760203660031901126103555760043561042081610386565b6001600160a01b0390811660009081526004602090815260408083205483526007825280832060020154808452600583529281902054815193845290931690820152f35b0390f35b3461035557602036600319011261035557600435600052600560205260206001600160a01b0360406000205416604051908152f35b3461035557602080600319360112610355576004908135906104be82610386565b806104e06104d46000546001600160a01b031690565b6001600160a01b031690565b60405194858092634bf9c0ad60e11b82525afa9182156105bd5761053461056e93610550926104649660009261058a575b50610542906040519384918783019190916001600160a01b036020820193169052565b03601f19810184528361293a565b61054a614b77565b90614e23565b919080610580575b61056190614bb0565b8082518301019101614975565b60405190151581529081906020820190565b5081518114610558565b6105429192506105af90863d88116105b6575b6105a7818361293a565b810190612bad565b9190610511565b503d61059d565b612bc2565b34610355576040366003190112610355576105e36105de614989565b612b62565b6105ec33614acd565b801561060a575b6105fc90612bce565b61001660243560043561470b565b5060046001600160a01b036020816000541660405193848092630536340960e21b82525afa9081156105bd576105fc9260009261064d575b5016331490506105f3565b61066691925060203d81116105b6576105a7818361293a565b9038610642565b3461035557602036600319011261035557600435600052600760205260206001600160a01b0360056040600020015416604051908152f35b34610355576040366003190112610355576106c16105de614989565b6106ca33614acd565b80156106e8575b6106da90612bce565b61001660243560043561475f565b5060046001600160a01b036020816000541660405193848092630536340960e21b82525afa9081156105bd576106da9260009261072b575b5016331490506106d1565b61074491925060203d81116105b6576105a7818361293a565b9038610720565b34610355576040366003190112610355576107676105de614989565b61077033614acd565b801561078e575b61078090612bce565b6100166024356004356147fb565b5060046001600160a01b036020816000541660405193848092630536340960e21b82525afa9081156105bd57610780926000926107d1575b501633149050610777565b6107ea91925060203d81116105b6576105a7818361293a565b90386107c6565b60e0810192916000915b6007831061080857505050565b6001908251815260208091019201920191906107fb565b346103555760203660031901126103555761046460043561097961096960405192610849846128e6565b60e0368537610875610865826000526009602052604060002090565b6001600052602052604060002090565b54845261089f61088f826000526009602052604060002090565b6002600052602052604060002090565b5460208501526108cc6108bc826000526009602052604060002090565b6003600052602052604060002090565b5460408501526108f96108e9826000526009602052604060002090565b6004600052602052604060002090565b546060850152610926610916826000526009602052604060002090565b6005600052602052604060002090565b546080850152610953610943826000526009602052604060002090565b6006600052602052604060002090565b5460a08501526000526009602052604060002090565b6007600052602052604060002090565b5460c0820152604051918291826107f1565b346103555760003660031901126103555760206001600160a01b0360005416604051908152f35b6040906003190112610355576004356109ca81610386565b906024356109d781610386565b90565b3461035557610a396109eb366109b2565b6109f3612b27565b610a0c6109fe61298b565b610a066129a3565b33614eb9565b91610a59610a23610a1b61298b565b610a066129dc565b6001600160a01b03958487169587168614612a15565b85610a516104d482600054166001600160a01b031690565b911614612a60565b610a648315156134a8565b610a81826001600160a01b03166000526004602052604060002090565b54158015610f28575b610a93906134f3565b610abb610ab3826001600160a01b03166000526004602052604060002090565b54151561353e565b610aff6005610af1610ae0846001600160a01b03166000526004602052604060002090565b546000526007602052604060002090565b01546001600160a01b031690565b92604094855194610b686020967f880cdc31000000000000000000000000000000000000000000000000000000008882015280610b4f88602483019190916001600160a01b036020820193169052565b0392610b63601f199485810184528361293a565b614fcc565b50610b916104d46004610af1610ae0886001600160a01b03166000526004602052604060002090565b15610dbd57610d1595610c0991610b63610bc66004610af1610ae08a6001600160a01b03166000526004602052604060002090565b8a517f0399c93c00000000000000000000000000000000000000000000000000000000948101949094523360248501529183604481015b0390810184528361293a565b505b610c28836001600160a01b03166000526004602052604060002090565b54610c46856001600160a01b03166000526004602052604060002090565b55610ca484610c7c610c6b866001600160a01b03166000526004602052604060002090565b546000526005602052604060002090565b906001600160a01b031673ffffffffffffffffffffffffffffffffffffffff19825416179055565b610cf3336004610cca610ae0886001600160a01b03166000526004602052604060002090565b01906001600160a01b031673ffffffffffffffffffffffffffffffffffffffff19825416179055565b821603610d9f575b506001600160a01b03166000526004602052604060002090565b54610464610d326005610af1846000526007602052604060002090565b92610d6e610d616002610d4f866000526007602052604060002090565b01546000526005602052604060002090565b546001600160a01b031690565b90610d796001600355565b519283526001600160a01b03938416602084015290921660408201529081906060820190565b6001600160a01b031660009081526004602052604081205538610cfb565b85600496610dd66104d46000546001600160a01b031690565b89519889809263111ea8c160e21b82525afa9687156105bd57610d1597610e3d91600091610f0b575b50895190610e2f82610e238a8783019190916001600160a01b036020820193169052565b0386810184528361293a565b610e37613589565b90614eb9565b838116151580610f01575b610e55575b505050610c0b565b88517f4fb2e45d0000000000000000000000000000000000000000000000000000000083820152336024820152610ef893610b6391610ea890610ea281604481010384810183528261293a565b84614fcc565b507fa3e884b0000000000000000000000000000000000000000000000000000000008b519485015283610bfd60248201906007606060808401936000815260006020820152600060408201520152565b50388080610e4d565b5080311515610e48565b610f229150833d85116105b6576105a7818361293a565b38610dff565b508084168314610a8a565b34610355576020366003190112610355576020610f63600435600052600760205260ff6001604060002001541690565b6040519015158152f35b346103555760203660031901126103555760043560005260076020526020600360406000200154604051908152f35b3461035557602036600319011261035557600435600052600760205260206001600160a01b0360046040600020015416604051908152f35b346103555760203660031901126103555760043580600052600760205260406000205460056020526104646001600160a01b038060406000205416936007602052604060002091600460028401549301541661103f6005610af1846000526007602052604060002090565b906003611077611066600161105e876000526007602052604060002090565b015460ff1690565b946000526007602052604060002090565b01549360405197889788939160c09591989796939260e086019986526001600160a01b03938480931660208801526040870152166060850152166080830152151560a08201520152565b34610355576020366003190112610355576001600160a01b036004356110e681610386565b1660005260046020526040600020546000526007602052602060ff600160406000200154166040519015158152f35b3461035557611123366109b2565b61112e6105de614989565b61113733614acd565b801561116b575b9161114b61115093612bce565b612c19565b604080519283526001600160a01b0391909116602083015290f35b506001600160a01b039160046020846000541660405192838092630536340960e21b82525afa80156105bd576111509461114b926000926111b5575b50339116149193505061113e565b6111ce91925060203d81116105b6576105a7818361293a565b90386111a7565b34610355576000366003190112610355576020600654604051908152f35b34610355576020366003190112610355576001600160a01b0360043561121881610386565b1660005260046020526020604060002054604051908152f35b346103555760203660031901126103555760043560016112676112628261105e856000526007602052604060002090565b6133fc565b61127b826000526010602052604060002090565b906002908183019260ff8454818160081c168061156f575b61129c90613909565b60101c1661145357506112c6826112bd866000526007602052604060002090565b0154151561399f565b6000815b611316575b5050600090611303610016946112f36112ed865460ff9060101c1690565b82613a92565b6000526007602052604060002090565b0155805462ff0000191662010000179055565b60038061134385611331896000526007602052604060002090565b01546000526007602052604060002090565b015482101561144d578561137d611373848461136d89611331876000526007602052604060002090565b016132c1565b90549060031b1c90565b14611392575061138c906130b9565b816112ca565b83925094611443866114256113039461140c6113f26113736100169c6113c860009c6113318b6000526007602052604060002090565b016113ec876113e58d6113318d6000526007602052604060002090565b0154612e1a565b906132c1565b918461136d8a6113318a6000526007602052604060002090565b90919082549060031b91821b91600019901b1916179055565b61143d85611331856000526007602052604060002090565b016139ea565b94508192506112cf565b506112cf565b826114d56114cf61155d966114c58960036114bf61154c99610534996114936100169f9d61148b876000526007602052604060002090565b015415613954565b0197885480916114ad866000526007602052604060002090565b01556000526007602052604060002090565b016132de565b5460101c60ff1690565b85613a92565b610b63611509610d616114f76004610af1896000526007602052604060002090565b93546000526005602052604060002090565b6040517f1499c5920000000000000000000000000000000000000000000000000000000060208201526001600160a01b0390911660248201529283906044820190565b506000526010602052604060002090565b60026000918281558260018201550155565b50808216611293565b34610355576040806003193601126103555760048035611596612b27565b6115b2611262600161105e846000526007602052604060002090565b6115d76115d06104d484610af1856000526007602052604060002090565b33146135c2565b6115df612e7c565b6115f86005610af1836000526007602052604060002090565b60025490845161166c61165e6020927f02a085f200000000000000000000000000000000000000000000000000000000848201528061164a602497883589840160209093929193604081019481520152565b0394610b63601f199687810184528361293a565b828082518301019101613e02565b94855193868861168185830197885190612b1a565b9661169182840198895190612b1a565b6116a16060850191825190612b1a565b9186886116b46080880195865190612b1a565b956116c560a0890197885190612b1a565b976116de6116d960c083019a8b5190612b1a565b6146b1565b51611a63575b83516119a1575b5050505080516118e3575b508051611826575b5080511580159061181c575b61174d575b89896104646101208a6117288d61010086015190613ed3565b51920151926117376001600355565b5191825260208201929092529081906040820190565b846117696104d460009a969799989a546001600160a01b031690565b8b5196878092635e09dbe760e01b82525afa80156105bd5761046498610120988c6117e29663a9059cbb60e01b966117289a6000966117ed575b50906117bb610bfd9392610b63979851905190612b1a565b915197889485015233908401602090939291936001600160a01b0360408201951681520152565b50938293388061170f565b610b639650610bfd9392916118116117bb92873d89116105b6576105a7818361293a565b9750919293506117a3565b508151151561170a565b848661183d6104d46000546001600160a01b031690565b8d51928380927f9dc969a80000000000000000000000000000000000000000000000000000000082525afa9182156105bd576118bb928d6118af936000926118c2575b509151915163a9059cbb60e01b8a820152338882019081526020810193909352929091610b6391849160400190565b038a810184528361293a565b50386116fe565b610b6392506118dd908b3d8d116105b6576105a7818361293a565b91611880565b85878d6118fb6104d46000546001600160a01b031690565b9051928380927faa0ddc160000000000000000000000000000000000000000000000000000000082525afa9182156105bd57611979928e61196d93600092611980575b509151915163a9059cbb60e01b8b820152338982019081526020810193909352929091610b6391849160400190565b038b810184528361293a565b50386116f6565b610b63925061199b908c8d3d106105b6576105a7818361293a565b9161193e565b6119b66104d46000546001600160a01b031690565b9051928380927f30125cf50000000000000000000000000000000000000000000000000000000082525afa9182156105bd57611a32928f8b9063a9059cbb60e01b94600093611a3c575b50925192519081019390935233898401908152602081019290925290610b639083906040015b038c810184528361293a565b503886888e6116eb565b610b63935090611a5b611a2692843d86116105b6576105a7818361293a565b935090611a00565b611a786104d46000546001600160a01b031690565b9051928380927f640274270000000000000000000000000000000000000000000000000000000082525afa80156105bd578e611aea8f8c938e918d96600092611af0575b5051845163a9059cbb60e01b8782015233818f01908152602081019290925292610b63918490604001610bfd565b506116e4565b610b63919250611b0c90873d89116105b6576105a7818361293a565b9190611abc565b34610355576020366003190112610355576020600435611b3281610386565b6001600160a01b03809116600052600482526040600020546000526007825260056040600020015416604051908152f35b3461035557604036600319011261035557611b7f6105de614989565b611b8833614acd565b8015611ba6575b611b9890612bce565b610016602435600435613811565b5060046001600160a01b036020816000541660405193848092630536340960e21b82525afa9081156105bd57611b9892600092611be9575b501633149050611b8f565b611c0291925060203d81116105b6576105a7818361293a565b9038611bde565b3461035557604036600319011261035557600435600052600860205260406000206024356000526020526020604060002054604051908152f35b346103555760203660031901126103555760043560005260076020526020600260406000200154604051908152f35b346103555760403660031901126103555760043560005260076020526020611ca360243560036040600020016132c1565b90549060031b1c604051908152f35b346103555760003660031901126103555760206001600160a01b0360015416604051908152f35b3461035557604036600319011261035557611cf56105de614989565b611cfe33614acd565b8015611d1c575b611d0e90612bce565b610016602435600435614735565b5060046001600160a01b036020816000541660405193848092630536340960e21b82525afa9081156105bd57611d0e92600092611d5f575b501633149050611d05565b611d7891925060203d81116105b6576105a7818361293a565b9038611d54565b3461035557602036600319011261035557600435600052600f6020526020604060002054604051908152f35b3461035557600036600319011261035557600460206001600160a01b03600054166040519283809263d1f956b160e01b82525afa9081156105bd5761046491611e3b91600091611e4b575b50604051611e0381612902565b601381527f67657464656c656761746f72436f756e742829000000000000000000000000006020820152611e35612978565b91614f46565b6040519081529081906020820190565b611e63915060203d81116105b6576105a7818361293a565b38611df6565b610100810192916000915b60088310611e8157505050565b600190825181526020809101920192019190611e74565b3461035557602036600319011261035557610464600435611fa5610969611ebd614634565b92611ee4611ed5826000526008602052604060002090565b60008052602052604060002090565b548452611efe610865826000526008602052604060002090565b546020850152611f1b61088f826000526008602052604060002090565b546040850152611f386108bc826000526008602052604060002090565b546060850152611f556108e9826000526008602052604060002090565b546080850152611f72610916826000526008602052604060002090565b5460a0850152611f8f610943826000526008602052604060002090565b5460c08501526000526008602052604060002090565b5460e082015260405191829182611e69565b34610355576020366003190112610355576020610f63600435611fd981610386565b614acd565b346103555761207d611fef366109b2565b90611ff8612b27565b6120416120066109fe61298b565b612011610a1b61298b565b9061202a6001600160a01b039182808816911614612a15565b610a516104d482600054166001600160a01b031690565b61206e612069600161105e610ae0856001600160a01b03166000526004602052604060002090565b612aab565b612076612e36565b33906130c8565b612096611ed56002546000526008602052604060002090565b6120a08154612b0c565b90556120aa6146dd565b6120c36005610af1836000526007602052604060002090565b906120cd81613447565b6120d76001600355565b604080519182526001600160a01b03929092166020820152f35b346103555760203660031901126103555761210a614bfb565b60025410612121575b610016600435600254612ebf565b612129614bfb565b80600255600019810190811161035057612142906144e0565b612113565b346103555760203660031901126103555760046001600160a01b036020816000541660405193848092630536340960e21b82525afa9182156105bd576000926121e3575b503391160361219f57610016600435614d04565b606460405162461bcd60e51b815260206004820152600f60248201527f6f776e2e6e6f6e617574682e44414f00000000000000000000000000000000006044820152fd5b6121fc91925060203d81116105b6576105a7818361293a565b903861218b565b346103555760203660031901126103555760043561222081610386565b803b600061222d8261295c565b9261223b604051948561293a565b82845260208401903c602d81511061226157602a015160405160609190911c8152602090f35b606460405162461bcd60e51b815260206004820152601360248201527f4e6f742061206d696e696d616c2070726f7879000000000000000000000000006044820152fd5b6040366003190112610355576004356122bc612b27565b60009080825260076020526122da60ff6001604085200154166133fc565b8152600760205261231a6001600160a01b036005604084200154166040519062a0e53360e51b6020830152602435602483015260248252610b63826128c5565b50600160035580f35b3461035557604036600319011261035557600435600052600a60205260406000206024356000526020526020604060002054604051908152f35b346103555760c03660031901126103555760243560043561237d82610386565b606435906084359061238d612b27565b6123a9611262600161105e846000526007602052604060002090565b6123c86115d06104d46004610af1856000526007602052604060002090565b6123d0612e7c565b6123d982614659565b6123e283614685565b61248f61248161246d6124046005610af1866000526007602052604060002090565b966040519182916020977f932ca2d600000000000000000000000000000000000000000000000000000000898501528960a435926044359060248701919260809396959491966001600160a01b0360a08501981684526020840152604083015260608201520152565b0396610b63601f199889810184528361293a565b83808251830101910161360d565b9290806124ad575b50506124a39350614166565b6100166001600355565b600490826124c66104d46000546001600160a01b031690565b60405193848092635e09dbe760e01b82525afa80156105bd576124a3976125209463a9059cbb60e01b94600093612528575b5060405190810194909452336024850152604484019290925290610b63908360648101610bfd565b503880612497565b610b639350612546610bfd91833d85116105b6576105a7818361293a565b93506124f8565b3461035557602080600319360112610355576004803561256c81610386565b6001600160a01b03928084600054166040519485809263d1f956b160e01b82525afa9081156105bd576104649461056e946000936125c8575b5060405193168184015282526125ba82612902565b6125c2614c9b565b90614f0a565b6125e0919350823d84116105b6576105a7818361293a565b91386125a5565b34610355576000366003190112610355576020610f63614989565b3461035557602036600319011261035557600435600052600c6020526020604060002054604051908152f35b3461035557604036600319011261035557600435600460243561268761268261266a336001600160a01b03166000526004602052604060002090565b54600052600760205260ff6001604060002001541690565b613623565b6126a3611262600161105e866000526007602052604060002090565b6126c46126bf600161105e846000526007602052604060002090565b61366e565b6040517f7bb98498000000000000000000000000000000000000000000000000000000006020808301919091526024820185905260448083018490528252601f19949061271260648461293a565b806127286104d46000546001600160a01b031690565b60405196878092630536340960e21b82525afa80156105bd57612799610bfd6127bd956127aa936100169a60029a6000926127cf575b50610b6391926040519485917fd3a30849000000000000000000000000000000000000000000000000000000008a84015230602484016136dc565b926000526010602052604060002090565b9360018501558082518301019101613783565b815501805461ff001916610100179055565b610b6392506127ea90883d8a116105b6576105a7818361293a565b9161275e565b3461035557602036600319011261035557600435600052600e6020526020604060002054604051908152f35b3461035557604080600319360112610355576001600160a01b0360043561284281610386565b16600081815260046020818152848320548352600b815284832054938352908152838220548252600a81528382206024358352815290839020549251918252810191909152604090f35b346103555760003660031901126103555760206128a7614bfb565b604051908152f35b634e487b7160e01b600052604160045260246000fd5b6060810190811067ffffffffffffffff8211176128e157604052565b6128af565b60e0810190811067ffffffffffffffff8211176128e157604052565b6040810190811067ffffffffffffffff8211176128e157604052565b6020810190811067ffffffffffffffff8211176128e157604052565b90601f8019910116810190811067ffffffffffffffff8211176128e157604052565b67ffffffffffffffff81116128e157601f01601f191660200190565b604051906129858261291e565b60008252565b6040516129978161291e565b60008152906000368137565b604051906129b082612902565b600782527f6f776e65722829000000000000000000000000000000000000000000000000006020830152565b604051906129e982612902565b600c82527f67657448657862617365282900000000000000000000000000000000000000006020830152565b15612a1c57565b606460405162461bcd60e51b815260206004820152601760248201527f6e65737465642e696e76616c69642e696e7374616e63650000000000000000006044820152fd5b15612a6757565b606460405162461bcd60e51b815260206004820152601660248201527f6e65737465642e696e76616c69642e68657862617365000000000000000000006044820152fd5b15612ab257565b606460405162461bcd60e51b815260206004820152601860248201527f6e65737465642e706172656e742e6e6f742e65786973747300000000000000006044820152fd5b634e487b7160e01b600052601160045260246000fd5b906001820180921161035057565b9190820180921161035057565b600260035414612b38576002600355565b60046040517f3ee5aeb5000000000000000000000000000000000000000000000000000000008152fd5b15612b6957565b606460405162461bcd60e51b815260206004820152601260248201527f6f776e2e696e76616c69642e69735361666500000000000000000000000000006044820152fd5b9081602091031261035557516109d781610386565b6040513d6000823e3d90fd5b15612bd557565b606460405162461bcd60e51b815260206004820152601b60248201527f6f776e2e6e6f6e617574682e44414f6f725365637572656261736500000000006044820152fd5b612cc99291612ccf600492612c2c612b27565b612c60612c5b612c57600161105e610ae0886001600160a01b03166000526004602052604060002090565b1590565b61306e565b612c73612c6e6006546130b9565b600655565b600654958691612c9185610c7c856000526005602052604060002090565b82612caf866001600160a01b03166000526004602052604060002090565b556001600160a01b03166000526004602052604060002090565b54613306565b612d0582612ce7866000526007602052604060002090565b0173ffffffffffffffffffffffffffffffffffffffff198154169055565b6020612d1c6104d46000546001600160a01b031690565b6040519384809263e09d394d60e01b82525afa80156105bd57612d4e612d6491612dcd94600091612dfc575b5061322b565b6005610cca876000526007602052604060002090565b612d7d6005610af1866000526007602052604060002090565b610b63612d956104d46000546001600160a01b031690565b6040516352902c5960e01b60208201526001600160a01b03918216602482015293166044840152606483018690528260848101610534565b508160005260076020526001600160a01b036005604060002001541691612df381613447565b91906001600355565b612e14915060203d81116105b6576105a7818361293a565b38612d48565b60001981019190821161035057565b9190820391821161035057565b612e3e614bfb565b60025410612e56575b612e546005600254612ebf565b565b612e5e614bfb565b80600255600019810190811161035057612e77906144e0565b612e47565b612e84614bfb565b60025410612e99575b612e5460028054612ebf565b612ea1614bfb565b80600255600019810190811161035057612eba906144e0565b612e8d565b90612ed7611ed5836000526008602052604060002090565b541580613064575b8061305b575b612eed575050565b612f0990612f03612efd84612e1a565b91612e1a565b90612ebf565b612f28611ed5612f1883612e1a565b6000526008602052604060002090565b54612f40611ed5836000526008602052604060002090565b55612f50610865612f1883612e1a565b54612f68610865836000526008602052604060002090565b55612f7861088f612f1883612e1a565b54612f9061088f836000526008602052604060002090565b55612fa06108bc612f1883612e1a565b54612fb86108bc836000526008602052604060002090565b55612fc86108e9612f1883612e1a565b54612fe06108e9836000526008602052604060002090565b55612ff0610916612f1883612e1a565b54613008610916836000526008602052604060002090565b55613018610943612f1883612e1a565b54613030610943836000526008602052604060002090565b55613058610969613046610969612f1885612e1a565b54926000526008602052604060002090565b55565b50801515612ee5565b5060018211612edf565b1561307557565b606460405162461bcd60e51b815260206004820152601560248201527f6e65737465642e616c72656164792e65786973747300000000000000000000006044820152fd5b60001981146103505760010190565b9161316060049261314b612cc995613101612c5b612c57600161105e610ae08a6001600160a01b03166000526004602052604060002090565b61310f612c6e6006546130b9565b60065496879161312d87610c7c856000526005602052604060002090565b82612caf886001600160a01b03166000526004602052604060002090565b83610cca866000526007602052604060002090565b60206131776104d46000546001600160a01b031690565b6040519384809263e09d394d60e01b82525afa80156105bd576131a86131be9161322794600091612dfc575061322b565b6005610cca866000526007602052604060002090565b6131d76005610af1856000526007602052604060002090565b610b636131ef6104d46000546001600160a01b031690565b6040516352902c5960e01b60208201526001600160a01b03918216602482015293166044840152606483018590528260848101610534565b5090565b6e5af43d82803e903d91602b57fd5bf390763d602d80600a3d3981f3363d3d373d3d3d363d7300000062ffffff8260881c161760005260781b17602052603760096000f0906001600160a01b0382161561328157565b60046040517fb06ebf3d000000000000000000000000000000000000000000000000000000008152fd5b634e487b7160e01b600052603260045260246000fd5b80548210156132d95760005260206000200190600090565b6132ab565b90815491680100000000000000008310156128e1578261140c916001612e54950181556132c1565b919091600092808452602091600783526040808620956002948386890155846001988981018a60ff19825416179055558761334b86600052600a602052604060002090565b83805282528489858520555b61336657505050505050509050565b6133d46133c3828b8a94146133dd575b61338a88600052600a602052604060002090565b818752855286862061339c8154612b0c565b90556133b288600052600b602052604060002090565b6133bc8154612b0c565b90556130b9565b956000526007602052604060002090565b01549384613357565b6133f78960036114bf8b6000526007602052604060002090565b613376565b1561340357565b606460405162461bcd60e51b815260206004820152601560248201527f6e65737465642e757365722e6e6f7461637469766500000000000000000000006044820152fd5b80600052600760205261346460ff600160406000200154166133fc565b60005260076020526134a56001600160a01b03600560406000200154166040519062a0e53360e51b60208301526001602483015260248252610b63826128c5565b50565b156134af57565b606460405162461bcd60e51b815260206004820152601360248201527f6e65737465642e7a65726f2e61646472657373000000000000000000000000006044820152fd5b156134fa57565b606460405162461bcd60e51b815260206004820152601460248201527f6e65737465642e7461726765742e6578697374730000000000000000000000006044820152fd5b1561354557565b606460405162461bcd60e51b815260206004820152601760248201527f6e65737465642e736f757263652e6e6f744578697374730000000000000000006044820152fd5b6040519061359682612902565b601382527f55736572546f496e7374286164647265737329000000000000000000000000006020830152565b156135c957565b606460405162461bcd60e51b815260206004820152601b60248201527f6e65737465642e757365722e696e76616c6964696e7374616e636500000000006044820152fd5b9190826040910312610355576020825192015190565b1561362a57565b606460405162461bcd60e51b815260206004820152601560248201527f6e65737465642e696e76616c69642e73656e64657200000000000000000000006044820152fd5b1561367557565b606460405162461bcd60e51b815260206004820152601560248201527f6e65737465642e696e76616c69642e706172656e7400000000000000000000006044820152fd5b60005b8381106136cc5750506000910152565b81810151838201526020016136bc565b92916080906001600160a01b03600a9360a08752602460a08801527f547269676765722e6e65737465642e70726f706f73616c2e6d6f7665646f776e60c08801527f6c696e650000000000000000000000000000000000000000000000000000000060e0880152166020860152600060408601526101008060608701528151809187015261377481610120936020858a0191016136b9565b601f8019910116850101930152565b90816020910312610355575190565b6040519061379f82612902565b601282527f676574526573756c742875696e743235362900000000000000000000000000006020830152565b5190811515820361035557565b91908260c0910312610355578151916020810151916040820151916060810151916109d760a061380a608085016137cb565b93016137cb565b61384461385091613834611262600161105e846000526007602052604060002090565b6000526010602052604060002090565b9160018301541461366e565b6138656104d46000546001600160a01b031690565b906040518092630536340960e21b825281600460209586935afa9081156105bd57612e54936138c66105346002946138d3946000916138ec575b506138b887546040519384918783019190602083019252565b6138c0613792565b90614df8565b80518101820191016137d8565b50959350505050019060ff801983541691151516179055565b6139039150843d86116105b6576105a7818361293a565b3861389f565b1561391057565b606460405162461bcd60e51b815260206004820152601660248201527f6e65737465642e7265712e6e6f74617070726f766564000000000000000000006044820152fd5b1561395b57565b606460405162461bcd60e51b815260206004820152601860248201527f6e65737465642e757365722e6e6f742e646574616368656400000000000000006044820152fd5b156139a657565b606460405162461bcd60e51b815260206004820152601b60248201527f6e65737465642e757365722e616c726564792e646574616368656400000000006044820152fd5b8054908115613a145760001991820191613a0483836132c1565b909182549160031b1b1916905555565b634e487b7160e01b600052603160045260246000fd5b60405190613a3782612902565b601282527f6765744e6f64654c422875696e743235362900000000000000000000000000006020830152565b9190826080910312610355578151916020810151916060604083015192015190565b8015610350576000190190565b600590613aad82610af1836000526007602052604060002090565b6040805192613af7613ae960209580613acd888201906000602083019252565b0395613ae1601f199788810184528361293a565b6138c0613a2a565b858082518301019101613a63565b5050949093613b19613b1384600052600b602052604060002090565b54612b0c565b9360029687613b32866000526007602052604060002090565b0154966001998a98895b613b50575b50505050505050505050505050565b600f8a111580613df9575b15613df4578a8d88878d888888613b836104d482610af18c6000526007602052604060002090565b613bb5575b50505050505050613ba6613bae926000526007602052604060002090565b0154996130b9565b988b613b3c565b867f393a9f9500000000000000000000000000000000000000000000000000000000958a95610b6395613c559995613c639b9c6003613c19613c08611a2699610af18e6000526007602052604060002090565b9b6000526007602052604060002090565b0154905494519a8b988901526024880194919260a0949197969360c0870198875260208701526040860152606085015260808401521515910152565b89808251830101910161360d565b9115613d5457898d928d925b808211613d1457505092613ba691613ce1613cd9613cb4613c9d613bae98600052600a602052604060002090565b613ca685612e1a565b600052602052604060002090565b5492613cca85600052600a602052604060002090565b90600052602052604060002090565b918254612b1a565b9055613cf781600052600b602052604060002090565b613d028d8254612b1a565b90555b9250508d88878d888888613b88565b613cca9350613d3e9250613d2a909491946130b9565b928391546000526008602052604060002090565b613d488154612b0c565b9055898d928d92613c6f565b898d928d925b818111613db857505092613ba691613d90613d88613cb4613c9d613bae98600052600a602052604060002090565b918254612e29565b9055613da681600052600b602052604060002090565b613db18d8254612e29565b9055613d05565b613dea9350809250613cca613dd99295546000526008602052604060002090565b613de38154612e1a565b9055613a85565b898d928d92613d5a565b613b41565b50801515613b5b565b9061014080838303126103555781601f84011215610355576040519281840184811067ffffffffffffffff8211176128e1576040528391810192831161035557905b828210613e515750505090565b8151815260209182019101613e44565b60405190613e6e82612902565b600f82527f66726565496e74657276616c73282900000000000000000000000000000000006020830152565b60405190613ea782612902565b601382527f6c6576656c496e636f6d654f6e52616e6b2829000000000000000000000000006020830152565b9190916000613eec6104d482546001600160a01b031690565b9060409182519063cfbffe5360e01b80835260209160049383818681855afa9081156105bd578491613f37918891614149575b50613f2861298b565b90613f31613e61565b90614f46565b928588518094819382525afa80156105bd57613f6691869161412c575b50613f5d61298b565b90613f31613e9a565b849885975b600f89111580614123575b15614116578682868d878c8e613f9e6104d46005610af18b6000526007602052604060002090565b613fd1575b505050505050506002613fc3613fcb926000526007602052604060002090565b0154986130b9565b97613f6b565b898115978815908161410c575b8115614104575b50613ff4575b508d9650613fa3565b946105346140889563645d0aa760e11b958b95610b63956140969a600361403e61402d6005610af18d6000526007602052604060002090565b9a6000526007602052604060002090565b01549c60029d8e5494519b8c998a01526024890193909796959260e0959261010086019986526020860152600060408601526060850152608084015260a083015260c08201520152565b88808251830101910161360d565b926140fb575b8d156140eb575b8083116140b857505082868d878c8e89613feb565b6140c1906130b9565b6140da81613cca84546000526008602052604060002090565b6140e48154612b0c565b90556140a3565b8883106140a3579c50819c6140a3565b9c50819c61409c565b90508f613fe5565b8815159150613fde565b5050505050505050509050565b50801515613f76565b6141439150843d86116105b6576105a7818361293a565b38613f54565b6141609150833d85116105b6576105a7818361293a565b38613f1f565b909291926000936141816104d486546001600160a01b031690565b6040805163cfbffe5360e01b80825291936004936020939284818781855afa9081156105bd5785916141bc918d916141495750613f2861298b565b938688518094819382525afa80156105bd576141e1918b916143735750613f5d61298b565b9589975b600f8911158061436a575b15614116578782868d878b8e60059661421a6104d489610af18c6000526007602052604060002090565b614246575b50505050505050506002613fc3614240926000526007602052604060002090565b976141e5565b8a821598891580614361575b8015614358575b614265575b505061421f565b9563645d0aa760e11b958b95610b63956142e99a9561053495600361429e613c086140889e610af18e6000526007602052604060002090565b01549d60029e8f5495519c8d9a8b015260248a0194919260e0969399989794919961010087019a8752602087015260408601526060850152608084015260a083015260c08201520152565b9261434f575b8d1561433f575b80831161430c5750868d878b8e8e8a8a9761425e565b614315906130b9565b61432e81613cca84546000526008602052604060002090565b6143388154612b0c565b90556142f6565b8883106142f6579c50819c6142f6565b9c50819c6142ef565b50811515614259565b50881515614252565b508015156141f0565b6141439150853d87116105b6576105a7818361293a565b1561439157565b606460405162461bcd60e51b815260206004820152601260248201527f6e65737465642e696e76616c69642e61676500000000000000000000000000006044820152fd5b604051906143e282612902565b601882527f6765744261746368526f79616c7479436c6175736573282900000000000000006020830152565b6102a09081818403126103555782601f82011215610355576040805193614434856128e6565b849383019281841161035557935b83851061445157505050505090565b606085830312610355578251606091614469826128c5565b8651825260209182880151838201528588015186820152815201940193614442565b9060078110156132d95760051b0190565b908160640291606483040361035057565b8181029291811591840414171561035057565b81156144ca570490565b634e487b7160e01b600052601260045260246000fd5b6144eb81151561438a565b6145006104d46000546001600160a01b031690565b90604051809263cfbffe5360e01b825281600460209586935afa9081156105bd576145569161454891600091614617575b5061453a6143d5565b614542612978565b91614df8565b83808251830101910161440e565b61456a82600052600c602052604060002090565b5460015b600781111561457e575050505050565b8061459a61460392613cca876000526008602052604060002090565b548015614611576145b36145ad83612e1a565b8661448b565b51878151928315614608576145da6145df926145d26145e5968a6144ad565b94015161449c565b6144ad565b906144c0565b6145fd82613cca886000526009602052604060002090565b556130b9565b61456e565b505050506130b9565b506130b9565b61462e9150853d87116105b6576105a7818361293a565b38614531565b6040519061010080830183811067ffffffffffffffff8211176128e157604052368337565b60025480600052600c60205260406000205491820180921161035057600052600c602052604060002055565b60025480600052600d60205260406000205491820180921161035057600052600d602052604060002055565b60025480600052600e60205260406000205491820180921161035057600052600e602052604060002055565b60025480600052600f602052604060002054906001820180921161035057600052600f602052604060002055565b9080600052600c60205260406000205491820180921161035057600052600c602052604060002055565b9080600052600e60205260406000205491820180921161035057600052600e602052604060002055565b9080600052600f60205260406000205491820180921161035057600052600f602052604060002055565b6040519061479682612902565b601482527f676574627573696e6573732875696e74323536290000000000000000000000006020830152565b604051906147cf82612902565b601d82527f67657472616e6b436f756e742875696e743235362c75696e74323536290000006020830152565b6000906148126104d483546001600160a01b031690565b91604092835192839163111ea8c160e21b835282600460209485935afa9384156105bd57839461490b575b505b8581111561484f57505050505050565b8451828101828152819003808252601f199161488091614872906020018261293a565b61487a614789565b87614f46565b614897613cd984600052600c602052604060002090565b9055835b600881106148b35750506148ae906130b9565b61483f565b86518481018481526020810183905261490692916148ee916148e09082906040010386810183528261293a565b6148e86147c2565b89614f46565b6145fd82613cca876000526008602052604060002090565b61489b565b614923919450823d84116105b6576105a7818361293a565b923861483d565b1561493157565b606460405162461bcd60e51b815260206004820152601960248201527f6f776e2e7361666567756172642e63616c6c2e6661696c6564000000000000006044820152fd5b90816020910312610355576109d7906137cb565b6001600160a01b03600054166040518091634bf9c0ad60e11b825281600460209384935afa9182156105bd576109d792614a1191600091614a2c575b506040516149d281612902565b600881527f69735361666528290000000000000000000000000000000000000000000000008482015260405191614a088361291e565b60008352614e23565b919080614a22575b6105619061492a565b5081518114614a19565b614a439150833d85116105b6576105a7818361293a565b386149c5565b60405190614a5682612902565b601582527f69735365637572654261736528616464726573732900000000000000000000006020830152565b15614a8957565b606460405162461bcd60e51b815260206004820152601a60248201527f6f776e2e736563757265626173652e63616c6c2e6661696c65640000000000006044820152fd5b6000546001600160a01b0316604051918291634bf9c0ad60e11b835282600460209485935afa9283156105bd576109d793614b399261053492600092614b54575b50614b31906040519384918783019190916001600160a01b036020820193169052565b61054a614a49565b919080614b4a575b61056190614a82565b5081518114614b41565b614b31919250614b7090863d88116105b6576105a7818361293a565b9190614b0e565b60405190614b8482612902565b601182527f69735369676e65722861646472657373290000000000000000000000000000006020830152565b15614bb757565b606460405162461bcd60e51b815260206004820152601660248201527f6f776e2e7369676e65722e63616c6c2e6661696c6564000000000000000000006044820152fd5b600460206001600160a01b03600054166040519283809263111ea8c160e21b82525afa80156105bd576109d791600091614c7d575b50604051614c3d81612902565b600581527f6167652829000000000000000000000000000000000000000000000000000000602082015260405191614c748361291e565b60008352614f46565b614c95915060203d81116105b6576105a7818361293a565b38614c30565b60405190614ca882612902565b601882527f697364656c656761746f724e6f646528616464726573732900000000000000006020830152565b3d15614cff573d90614ce58261295c565b91614cf3604051938461293a565b82523d6000602084013e565b606090565b6000600460206001600160a01b03835416604051928380927f46f991ac0000000000000000000000000000000000000000000000000000000082525afa9081156105bd578284819382938391614dda575b505af1614d60614cd4565b5015614d965760405190815233907fcdcc745fe377b103b45fa0cec23ae3ef93d6fc6a84a01f0d18c40b354dd1d5d890602090a2565b606460405162461bcd60e51b815260206004820152600f60248201527f6f776e2e6275726e2e6661696c656400000000000000000000000000000000006044820152fd5b614df2915060203d81116105b6576105a7818361293a565b38614d55565b90614e039291614e23565b9060009015614e10575090565b6040519150614e1e8261291e565b815290565b803b15614ea0576000927fffffffff000000000000000000000000000000000000000000000000000000008360208695519101201690614e8d6024604051809360208201958652614e7d81518092602086860191016136b9565b810103600481018452018261293a565b5191620dbba0fa614e9c614cd4565b9091565b505050600090604051614eb28161291e565b6000815290565b9291614ec791600094614e23565b9080614eff575b614ed55750565b9091506020818051810103126103555760206001600160a01b03910151614efb81610386565b1690565b506020815114614ece565b9291614f1891600094614e23565b9080614f3b575b614f265750565b6109d791925060208082518301019101614975565b506020815114614f1f565b9291614f5491600094614e23565b9080614f77575b614f625750565b6109d791925060208082518301019101613783565b506020815114614f5b565b90602082519201517fffffffff00000000000000000000000000000000000000000000000000000000908181169360048110614fbd57505050565b60040360031b82901b16169150565b6001600160a01b0381161561507d57600080918351908260208601915af190614ff3614cd4565b9115614ffd575090565b805160009190600411615077576150149150614f82565b8151156150245750805190602001fd5b6024907fffffffff00000000000000000000000000000000000000000000000000000000604051917f21c09d34000000000000000000000000000000000000000000000000000000008352166004820152fd5b50615014565b606460405162461bcd60e51b815260206004820152601260248201527f6f776e2e696e76616c69642e74617267657400000000000000000000000000006044820152fdfea2646970667358221220843091b70c1222efa11fab5fd0f23c304efa29292d7034318c4614c4d001327964736f6c63430008140033","linkReferences":{}},"methodIdentifiers":{"Burn(uint256)":"b90306ad","UserToId(address)":"629d671e","_delegatorCount()":"a1f7f539","_getImplementation(address)":"c54e44b0","_isDelegatorNode(address)":"e01ad5fd","_isSafe()":"e0a9bc2b","_isSecureBase(address)":"af484526","_isSigner(address)":"1f185d16","addBusiness(uint256,address,uint256,uint256,uint256,uint256)":"dcb3fc4a","claimIncome(uint256,uint256)":"6a811244","compileRoyality(uint256)":"009db655","createmdrequest(uint256,uint256)":"eb9e9e2c","getBalance()":"12065fe0","getBatchRankCounts(uint256)":"a89d693b","getDownlineCountByLevel(uint256,uint256)":"d1e0bbc6","getHexbase()":"3b9b7955","getNode(uint256)":"4f0f4aa9","getNodeChild(uint256,uint256)":"896c354a","getNodeDirectsCount(uint256)":"42cc9d57","getNodeParent(address)":"1bb49f02","getNodeParentId(uint256)":"849c22ad","getNodesCount()":"61ea7208","getRoyalityAmountBatch(uint256)":"3a7b55b8","getTeamSize(uint256)":"033eeffb","getTotalTeamSizeWithLevel(address,uint256)":"fd38093b","getUserIdToInst(uint256)":"44585097","getUserIdToStor(uint256)":"2fefc0bf","getUserToInst(address)":"0e5fd00b","getUserToStor(address)":"76fe6c45","getbusiness(uint256)":"eb95c662","getjoining(uint256)":"98b3f215","getrankCount(uint256,uint256)":"80f85e33","getwithdrawn(uint256)":"f3ca7124","importBusiness(uint256,uint256)":"2a687c87","importJoining(uint256,uint256)":"32ff4eab","importOld(uint256,uint256)":"c871372b","importRankNBusiness(uint256,uint256)":"33b59a5b","importWithdrawal(uint256,uint256)":"95f72f49","isNode(uint256)":"419cb27b","isUserExists(address)":"509222cd","join(address,address)":"b1c49079","joinImport(address,address)":"50db85d1","moveDownline(uint256)":"65d2fbd3","nodes(uint256)":"1c53c280","owner()":"8da5cb5b","setDefaultRankCount(uint256)":"b366335e","setMoveDownlineApproval(uint256,uint256)":"7bb98498","systemAge()":"fdc10bc9","updateUsers(address,address)":"3baee0ea"},"id":55}