{"abi":[{"type":"constructor","inputs":[{"name":"_hex","type":"address","internalType":"address"}],"stateMutability":"nonpayable"},{"type":"fallback","stateMutability":"payable"},{"type":"receive","stateMutability":"payable"},{"type":"function","name":"Burn","inputs":[{"name":"amount","type":"uint256","internalType":"uint256"}],"outputs":[],"stateMutability":"nonpayable"},{"type":"function","name":"TVLrefresh","inputs":[{"name":"_id","type":"uint256","internalType":"uint256"}],"outputs":[],"stateMutability":"nonpayable"},{"type":"function","name":"UserToId","inputs":[{"name":"","type":"address","internalType":"address"}],"outputs":[{"name":"","type":"uint256","internalType":"uint256"}],"stateMutability":"view"},{"type":"function","name":"_ageNow","inputs":[],"outputs":[{"name":"","type":"uint256","internalType":"uint256"}],"stateMutability":"view"},{"type":"function","name":"_delegatorCount","inputs":[],"outputs":[{"name":"","type":"uint256","internalType":"uint256"}],"stateMutability":"view"},{"type":"function","name":"_getImplementation","inputs":[{"name":"clone","type":"address","internalType":"address"}],"outputs":[{"name":"impl","type":"address","internalType":"address"}],"stateMutability":"view"},{"type":"function","name":"_isDelegatorNode","inputs":[{"name":"sender","type":"address","internalType":"address"}],"outputs":[{"name":"","type":"bool","internalType":"bool"}],"stateMutability":"view"},{"type":"function","name":"_isSafe","inputs":[],"outputs":[{"name":"","type":"bool","internalType":"bool"}],"stateMutability":"view"},{"type":"function","name":"_isSecureBase","inputs":[{"name":"sender","type":"address","internalType":"address"}],"outputs":[{"name":"","type":"bool","internalType":"bool"}],"stateMutability":"view"},{"type":"function","name":"_isSigner","inputs":[{"name":"sender","type":"address","internalType":"address"}],"outputs":[{"name":"","type":"bool","internalType":"bool"}],"stateMutability":"view"},{"type":"function","name":"addBusiness","inputs":[{"name":"_id","type":"uint256","internalType":"uint256"},{"name":"_paramAdd","type":"address","internalType":"address"},{"name":"_tokenid","type":"uint256","internalType":"uint256"},{"name":"_qty","type":"uint256","internalType":"uint256"},{"name":"_msgValue","type":"uint256","internalType":"uint256"},{"name":"_type","type":"uint256","internalType":"uint256"}],"outputs":[],"stateMutability":"nonpayable"},{"type":"function","name":"claimIncome","inputs":[{"name":"_id","type":"uint256","internalType":"uint256"},{"name":"_maxint","type":"uint256","internalType":"uint256"}],"outputs":[{"name":"","type":"uint256","internalType":"uint256"},{"name":"","type":"uint256","internalType":"uint256"}],"stateMutability":"nonpayable"},{"type":"function","name":"closemdform","inputs":[{"name":"uid","type":"uint256","internalType":"uint256"}],"outputs":[],"stateMutability":"nonpayable"},{"type":"function","name":"compileRoyality","inputs":[{"name":"prevAge","type":"uint256","internalType":"uint256"},{"name":"_cnt","type":"uint256[7]","internalType":"uint256[7]"}],"outputs":[],"stateMutability":"nonpayable"},{"type":"function","name":"createmdform","inputs":[{"name":"uid","type":"uint256","internalType":"uint256"},{"name":"newpid","type":"uint256","internalType":"uint256"}],"outputs":[],"stateMutability":"nonpayable"},{"type":"function","name":"getBalance","inputs":[],"outputs":[{"name":"","type":"uint256","internalType":"uint256"}],"stateMutability":"view"},{"type":"function","name":"getBatchRankCounts","inputs":[{"name":"ag","type":"uint256","internalType":"uint256"}],"outputs":[{"name":"counts","type":"uint256[8]","internalType":"uint256[8]"}],"stateMutability":"view"},{"type":"function","name":"getDownlineCountByLevel","inputs":[{"name":"uid","type":"uint256","internalType":"uint256"},{"name":"lvl","type":"uint256","internalType":"uint256"}],"outputs":[{"name":"","type":"uint256","internalType":"uint256"}],"stateMutability":"view"},{"type":"function","name":"getHexbase","inputs":[],"outputs":[{"name":"","type":"address","internalType":"address"}],"stateMutability":"view"},{"type":"function","name":"getMoveDownline","inputs":[{"name":"uid","type":"uint256","internalType":"uint256"}],"outputs":[{"name":"newpid","type":"uint256","internalType":"uint256"},{"name":"exist","type":"bool","internalType":"bool"},{"name":"op","type":"bool","internalType":"bool"}],"stateMutability":"view"},{"type":"function","name":"getNode","inputs":[{"name":"_id","type":"uint256","internalType":"uint256"}],"outputs":[{"name":"_i","type":"uint256","internalType":"uint256"},{"name":"_node","type":"address","internalType":"address"},{"name":"_pid","type":"uint256","internalType":"uint256"},{"name":"_inst","type":"address","internalType":"address"},{"name":"_stor","type":"address","internalType":"address"},{"name":"_active","type":"bool","internalType":"bool"},{"name":"_direcCount","type":"uint256","internalType":"uint256"}],"stateMutability":"view"},{"type":"function","name":"getNodeChild","inputs":[{"name":"_id","type":"uint256","internalType":"uint256"},{"name":"inx","type":"uint256","internalType":"uint256"}],"outputs":[{"name":"child","type":"uint256","internalType":"uint256"}],"stateMutability":"view"},{"type":"function","name":"getNodeDirectsCount","inputs":[{"name":"_id","type":"uint256","internalType":"uint256"}],"outputs":[{"name":"count","type":"uint256","internalType":"uint256"}],"stateMutability":"view"},{"type":"function","name":"getNodeInstStor","inputs":[{"name":"_id","type":"uint256","internalType":"uint256"}],"outputs":[{"name":"_inst","type":"address","internalType":"address"},{"name":"_stor","type":"address","internalType":"address"}],"stateMutability":"view"},{"type":"function","name":"getNodeParent","inputs":[{"name":"_user","type":"address","internalType":"address"}],"outputs":[{"name":"","type":"address","internalType":"address"}],"stateMutability":"view"},{"type":"function","name":"getNodeParentId","inputs":[{"name":"_id","type":"uint256","internalType":"uint256"}],"outputs":[{"name":"","type":"uint256","internalType":"uint256"}],"stateMutability":"view"},{"type":"function","name":"getNodeParentwithId","inputs":[{"name":"_user","type":"address","internalType":"address"}],"outputs":[{"name":"","type":"uint256","internalType":"uint256"},{"name":"","type":"address","internalType":"address"}],"stateMutability":"view"},{"type":"function","name":"getNodesCount","inputs":[],"outputs":[{"name":"nodesCount","type":"uint256","internalType":"uint256"}],"stateMutability":"view"},{"type":"function","name":"getRoyalityAmountBatch","inputs":[{"name":"ag","type":"uint256","internalType":"uint256"}],"outputs":[{"name":"royal","type":"uint256[7]","internalType":"uint256[7]"}],"stateMutability":"view"},{"type":"function","name":"getTeamSize","inputs":[{"name":"uid","type":"uint256","internalType":"uint256"}],"outputs":[{"name":"","type":"uint256","internalType":"uint256"}],"stateMutability":"view"},{"type":"function","name":"getTotalTeamSizeWithLevel","inputs":[{"name":"_user","type":"address","internalType":"address"},{"name":"lvl","type":"uint256","internalType":"uint256"}],"outputs":[{"name":"","type":"uint256","internalType":"uint256"},{"name":"","type":"uint256","internalType":"uint256"}],"stateMutability":"view"},{"type":"function","name":"getUserIdToInst","inputs":[{"name":"_id","type":"uint256","internalType":"uint256"}],"outputs":[{"name":"","type":"address","internalType":"address"}],"stateMutability":"view"},{"type":"function","name":"getUserIdToStor","inputs":[{"name":"_id","type":"uint256","internalType":"uint256"}],"outputs":[{"name":"","type":"address","internalType":"address"}],"stateMutability":"view"},{"type":"function","name":"getUserToInst","inputs":[{"name":"node","type":"address","internalType":"address"}],"outputs":[{"name":"","type":"address","internalType":"address"}],"stateMutability":"view"},{"type":"function","name":"getUserToStor","inputs":[{"name":"_user","type":"address","internalType":"address"}],"outputs":[{"name":"","type":"address","internalType":"address"}],"stateMutability":"view"},{"type":"function","name":"getbusiness","inputs":[{"name":"ag","type":"uint256","internalType":"uint256"}],"outputs":[{"name":"","type":"uint256","internalType":"uint256"}],"stateMutability":"view"},{"type":"function","name":"getjoining","inputs":[{"name":"ag","type":"uint256","internalType":"uint256"}],"outputs":[{"name":"","type":"uint256","internalType":"uint256"}],"stateMutability":"view"},{"type":"function","name":"getrankCount","inputs":[{"name":"ag","type":"uint256","internalType":"uint256"},{"name":"rnk","type":"uint256","internalType":"uint256"}],"outputs":[{"name":"count","type":"uint256","internalType":"uint256"}],"stateMutability":"view"},{"type":"function","name":"gettotqty","inputs":[{"name":"ag","type":"uint256","internalType":"uint256"}],"outputs":[{"name":"","type":"uint256","internalType":"uint256"}],"stateMutability":"view"},{"type":"function","name":"getwithdrawn","inputs":[{"name":"ag","type":"uint256","internalType":"uint256"}],"outputs":[{"name":"","type":"uint256","internalType":"uint256"}],"stateMutability":"view"},{"type":"function","name":"importBusiness","inputs":[{"name":"_amt","type":"uint256","internalType":"uint256"},{"name":"_ag","type":"uint256","internalType":"uint256"}],"outputs":[],"stateMutability":"nonpayable"},{"type":"function","name":"importJoining","inputs":[{"name":"_cnt","type":"uint256","internalType":"uint256"},{"name":"_ag","type":"uint256","internalType":"uint256"}],"outputs":[],"stateMutability":"nonpayable"},{"type":"function","name":"importOld","inputs":[{"name":"_id","type":"uint256","internalType":"uint256"},{"name":"_limit","type":"uint256","internalType":"uint256"}],"outputs":[],"stateMutability":"payable"},{"type":"function","name":"importRankNBusiness","inputs":[{"name":"from","type":"uint256","internalType":"uint256"},{"name":"to","type":"uint256","internalType":"uint256"}],"outputs":[],"stateMutability":"nonpayable"},{"type":"function","name":"importWithdrawal","inputs":[{"name":"_amt","type":"uint256","internalType":"uint256"},{"name":"_ag","type":"uint256","internalType":"uint256"}],"outputs":[],"stateMutability":"nonpayable"},{"type":"function","name":"isNode","inputs":[{"name":"_id","type":"uint256","internalType":"uint256"}],"outputs":[{"name":"","type":"bool","internalType":"bool"}],"stateMutability":"view"},{"type":"function","name":"isUserExists","inputs":[{"name":"node","type":"address","internalType":"address"}],"outputs":[{"name":"","type":"bool","internalType":"bool"}],"stateMutability":"view"},{"type":"function","name":"join","inputs":[{"name":"_parent","type":"address","internalType":"address"},{"name":"_user","type":"address","internalType":"address"}],"outputs":[{"name":"_id","type":"uint256","internalType":"uint256"},{"name":"_stor","type":"address","internalType":"address"}],"stateMutability":"nonpayable"},{"type":"function","name":"joinImport","inputs":[{"name":"_parent","type":"address","internalType":"address"},{"name":"_user","type":"address","internalType":"address"}],"outputs":[{"name":"_id","type":"uint256","internalType":"uint256"},{"name":"_stor","type":"address","internalType":"address"}],"stateMutability":"nonpayable"},{"type":"function","name":"moveDownline","inputs":[{"name":"uid","type":"uint256","internalType":"uint256"}],"outputs":[],"stateMutability":"nonpayable"},{"type":"function","name":"nodes","inputs":[{"name":"","type":"uint256","internalType":"uint256"}],"outputs":[{"name":"","type":"address","internalType":"address"}],"stateMutability":"view"},{"type":"function","name":"owner","inputs":[],"outputs":[{"name":"","type":"address","internalType":"address"}],"stateMutability":"view"},{"type":"function","name":"setDefaultRankCount","inputs":[{"name":"_limit","type":"uint256","internalType":"uint256"}],"outputs":[],"stateMutability":"nonpayable"},{"type":"function","name":"syncBaseAddr","inputs":[],"outputs":[],"stateMutability":"nonpayable"},{"type":"function","name":"systemAge","inputs":[],"outputs":[{"name":"","type":"uint256","internalType":"uint256"}],"stateMutability":"view"},{"type":"function","name":"tokenImport","inputs":[{"name":"_id","type":"uint256","internalType":"uint256"},{"name":"mintid","type":"uint256","internalType":"uint256"}],"outputs":[],"stateMutability":"nonpayable"},{"type":"function","name":"updateUsers","inputs":[{"name":"from","type":"address","internalType":"address"},{"name":"to","type":"address","internalType":"address"}],"outputs":[{"name":"_id","type":"uint256","internalType":"uint256"},{"name":"_stor","type":"address","internalType":"address"},{"name":"_parent","type":"address","internalType":"address"}],"stateMutability":"nonpayable"},{"type":"event","name":"EthBurned","inputs":[{"name":"sender","type":"address","indexed":true,"internalType":"address"},{"name":"amount","type":"uint256","indexed":false,"internalType":"uint256"}],"anonymous":false},{"type":"event","name":"EthTransferred","inputs":[{"name":"to","type":"address","indexed":true,"internalType":"address"},{"name":"amount","type":"uint256","indexed":false,"internalType":"uint256"}],"anonymous":false},{"type":"event","name":"HexBaseUpdated","inputs":[{"name":"previousHexBase","type":"address","indexed":true,"internalType":"address"},{"name":"newHexBase","type":"address","indexed":true,"internalType":"address"}],"anonymous":false},{"type":"event","name":"OwnerUpdated","inputs":[{"name":"previousOwner","type":"address","indexed":true,"internalType":"address"},{"name":"newOwner","type":"address","indexed":true,"internalType":"address"}],"anonymous":false},{"type":"error","name":"CallFailed","inputs":[]},{"type":"error","name":"FailedDeployment","inputs":[]},{"type":"error","name":"InsufficientBalance","inputs":[{"name":"balance","type":"uint256","internalType":"uint256"},{"name":"needed","type":"uint256","internalType":"uint256"}]},{"type":"error","name":"InvalidAddress","inputs":[]},{"type":"error","name":"InvalidState","inputs":[]},{"type":"error","name":"NotAuthorized","inputs":[]},{"type":"error","name":"NotSafe","inputs":[]},{"type":"error","name":"ReentrancyGuardReentrantCall","inputs":[]},{"type":"error","name":"TargetCallFailed","inputs":[{"name":"selector","type":"bytes4","internalType":"bytes4"}]}],"bytecode":{"object":"0x6080346200009e57601f62005bb438819003918201601f19168301916001600160401b03831184841017620000a3578084926020946040528339810103126200009e57516001600160a01b038116908190036200009e5780156200008c5760018060a01b03193381600154161760015560005416176000556001601155604051615afa9081620000ba8239f35b60405163e6c4247b60e01b8152600490fd5b600080fd5b634e487b7160e01b600052604160045260246000fdfe60806040526004361015610018575b361561001657005b005b60003560e01c8063033eeffb146103a85780630e5fd00b146103a35780631157a8491461039e57806312065fe01461039957806313508e371461039457806313cf3d551461038f5780631bb49f021461038a5780631c53c280146103855780631f185d16146103805780632a687c871461037b5780632bbae52e146103765780632fefc0bf1461037157806332ff4eab1461036c578063339459a61461036757806333b59a5b146103625780633a7b55b81461035d5780633b9b7955146103585780633baee0ea14610353578063419cb27b1461034e57806342cc9d5714610349578063445850971461034457806344668f231461033f5780634d1ec4521461033a5780634f0f4aa914610335578063509222cd1461033057806350db85d11461032b57806361ea720814610326578063629d671e1461032157806365d2fbd31461031c5780636a811244146103175780636b90905b146103125780636fb412ab1461030d57806376fe6c45146103085780637818cdd71461030357806380f85e33146102fe578063849c22ad146102f9578063896c354a146102f45780638da5cb5b146102ef57806395f72f49146102ea57806398b3f215146102e5578063a1f7f539146102e0578063a89d693b146102db578063af484526146102d6578063b1c49079146102d1578063b366335e146102cc578063b90306ad146102c7578063c43792e3146102c2578063c54e44b0146102bd578063c871372b146102b8578063d1e0bbc6146102b3578063dcb3fc4a146102ae578063e01ad5fd146102a9578063e0a9bc2b146102a4578063eb95c6621461029f578063f3ca71241461029a578063fd38093b146102955763fdc10bc90361000e57613604565b613594565b613568565b61353c565b613521565b613456565b6132d7565b61329d565b61321f565b613199565b61316d565b61305f565b612fe9565b612ecc565b612e9b565b612d7c565b612cd8565b612cac565b612c36565b612c0f565b612bcf565b612ba0565b612b66565b612b0d565b6129ef565b612859565b61271c565b612300565b611df6565b611db8565b611d9a565b611c71565b611c1d565b611b38565b611ad7565b611ab9565b611a81565b611a52565b611a1e565b611592565b611543565b6113d7565b6111d0565b610af9565b610a83565b610a4b565b610a02565b610965565b61087a565b610845565b6107ee565b61057c565b610533565b610517565b61043a565b6103ea565b346103d45760203660031901126103d45760043560005260196020526020604060002054604051908152f35b600080fd5b6001600160a01b038116036103d457565b346103d45760203660031901126103d4576020600435610409816103d9565b6001600160a01b03809116600052601282526040600020546000526015825260046040600020015416604051908152f35b346103d45760203660031901126103d457600435610456613890565b600090808252601560205261047460ff600160408520015416614163565b338252601260205261048b60408320548214614163565b808252601e60205260ff600160408420015416156104d3576104ba6104c691600052601e602052604060002090565b60016000918281550155565b6104d06001601155565b80f35b606460405162461bcd60e51b815260206004820152601360248201527f6e65737465642e7265712e6e6f746578697374000000000000000000000000006044820152fd5b346103d45760003660031901126103d457602047604051908152f35b346103d45760203660031901126103d457600435600052601e6020526060604060002060ff600182549201546040519283528181161515602084015260081c1615156040820152f35b346103d4576020806003193601126103d457600490813561059b613890565b6105c46105bf60016105b7846000526015602052604060002090565b015460ff1690565b613fd6565b6106016105fa6105ee6105e1846000526013602052604060002090565b546001600160a01b031690565b6001600160a01b031690565b3314614163565b816106176105ee6000546001600160a01b031690565b6040519485809263111ea8c160e21b82525afa9283156107e9576000936107ba575b506106976106756106576105e1846000526013602052604060002090565b6040519182918683019190916001600160a01b036020820193169052565b0394610689601f1996878101845283612aca565b6106916141cf565b90615933565b906001600160a01b0382161515806107b0575b6106b9575b6100166001601155565b6107a69361074461073261073e6106f060046106e26107a1976000526015602052604060002090565b01546001600160a01b031690565b6040517f4fb2e45d00000000000000000000000000000000000000000000000000000000898201526001600160a01b0390911660248201529182906044820190565b03848101835282612aca565b846159ff565b507fa3e884b000000000000000000000000000000000000000000000000000000000604051948501528361079560248201906007606060808401936000815260006020820152600060408201520152565b03908101845283612aca565b6159ff565b50388080806106af565b50813115156106aa565b6107db919350823d84116107e2575b6107d38183612aca565b8101906141ae565b9138610639565b503d6107c9565b6141c3565b346103d45760203660031901126103d457602060043561080d816103d9565b60406001600160a01b039182600091168152601284528181205481526015845260028282200154815260138452205416604051908152f35b346103d45760203660031901126103d457600435600052601360205260206001600160a01b0360406000205416604051908152f35b346103d4576020806003193601126103d4576108f960043561089b816103d9565b6001600160a01b038060025416906040519216848301528382526108be82612a76565b604051906108cb82612a76565b601182527f69735369676e6572286164647265737329000000000000000000000000000000858301526158f1565b91908061095b575b1561093157818161091b9261092d9451830101910161568d565b60405190151581529081906020820190565b0390f35b60046040517f3204506f000000000000000000000000000000000000000000000000000000008152fd5b5080825114610901565b346103d45760403660031901126103d4576024356109816156a5565b156109f15761098f3361572a565b80156109dd575b156109cc57600090808252601a60205260408220549060043582018092116109c7578252601a602052604082205580f35b61385f565b600460405163ea8e4eb560e01b8152fd5b50336001600160a01b036005541614610996565b6004604051634ee2123760e11b8152fd5b346103d45760203660031901126103d457600480356000908152601560209081526040918290209283015460059093015482516001600160a01b03948516815293169083015290f35b346103d45760203660031901126103d457600435600052601560205260206001600160a01b0360056040600020015416604051908152f35b346103d45760403660031901126103d457602435610a9f6156a5565b156109f157610aad3361572a565b8015610ae5575b156109cc57600090808252601d60205260408220549060043582018092116109c7578252601d602052604082205580f35b50336001600160a01b036005541614610ab4565b346103d45760003660031901126103d457610b1f6105ee6000546001600160a01b031690565b604051907f97f3815a000000000000000000000000000000000000000000000000000000008252602082600481845afa9182156107e9576000926111af575b50604051917fcfbffe53000000000000000000000000000000000000000000000000000000008352602083600481855afa9283156107e95760009361118e575b50604051907fab6e844f000000000000000000000000000000000000000000000000000000008252602082600481865afa9182156107e95760009261116d575b50604051917f14d8d024000000000000000000000000000000000000000000000000000000008352602083600481875afa9283156107e95760009361114c575b50604051927fd1f956b1000000000000000000000000000000000000000000000000000000008452602084600481885afa9384156107e95760009461112b575b50604051937fe61dfd58000000000000000000000000000000000000000000000000000000008552602085600481895afa9485156107e95760009561110a575b506040517fe09d394d0000000000000000000000000000000000000000000000000000000081526020816004818a5afa9081156107e9576000916110eb575b506040517f52b06d640000000000000000000000000000000000000000000000000000000081526020816004818b5afa9081156107e9576000916110cc575b506040517f013cf08b00000000000000000000000000000000000000000000000000000000815260006004820152916020836024818c5afa9283156107e9576000936110ab575b50604051977f5e09dbe70000000000000000000000000000000000000000000000000000000089526020896004818d5afa9485156107e95760049960009661108a575b5060208b6040519b8c80927faa0ddc160000000000000000000000000000000000000000000000000000000082525afa9687156107e95760049a600098611069575b5060208c6040519c8d80927f640274270000000000000000000000000000000000000000000000000000000082525afa9889156107e95760049b60009a611048575b5060208d6040519d8e80927f30125cf50000000000000000000000000000000000000000000000000000000082525afa9a8b156107e9578d60049d60009d611026575b506020906040519e8f80927f24768d910000000000000000000000000000000000000000000000000000000082525afa9c8d156107e95760009d611005575b50604051809e81907f9dc969a80000000000000000000000000000000000000000000000000000000082525a92600491602094fa9d8e156107e95760009e610fe4575b50610ef8612aec565b6001600160a01b0390911681529d8e906001600160a01b0316602082015260400190610f2c91906001600160a01b03169052565b6001600160a01b031660608d01526001600160a01b031660808c01526001600160a01b031660a08b01526001600160a01b031660c08a01526001600160a01b031660e08901526001600160a01b03166101008801526001600160a01b03166101208701526001600160a01b03166101408601526001600160a01b03166101608501526001600160a01b03166101808401526001600160a01b03166101a08301526001600160a01b03166101c08201526100169061538c565b610ffe919e5060203d6020116107e2576107d38183612aca565b9c38610eef565b61101f919d5060203d6020116107e2576107d38183612aca565b9b38610eac565b6020919d5061104190823d84116107e2576107d38183612aca565b9c90610e6d565b611062919a5060203d6020116107e2576107d38183612aca565b9838610e2a565b61108391985060203d6020116107e2576107d38183612aca565b9638610de8565b6110a491965060203d6020116107e2576107d38183612aca565b9438610da6565b6110c591935060203d6020116107e2576107d38183612aca565b9138610d63565b6110e5915060203d6020116107e2576107d38183612aca565b38610d1c565b611104915060203d6020116107e2576107d38183612aca565b38610cdd565b61112491955060203d6020116107e2576107d38183612aca565b9338610c9e565b61114591945060203d6020116107e2576107d38183612aca565b9238610c5e565b61116691935060203d6020116107e2576107d38183612aca565b9138610c1e565b61118791925060203d6020116107e2576107d38183612aca565b9038610bde565b6111a891935060203d6020116107e2576107d38183612aca565b9138610b9e565b6111c991925060203d6020116107e2576107d38183612aca565b9038610b5e565b346103d4576040806003193601126103d4576024356111ed6156a5565b15611399576111fb3361572a565b8015611385575b156113755760009161121e6105ee84546001600160a01b031690565b8151809163111ea8c160e21b825281600460209485935afa9081156107e9578591611358575b5084916004355b85811115611257578680f35b8451828101828152819003808252601f19916112889161127a9060200182612aca565b61128261531a565b866159bf565b61129c83600052601a602052604060002090565b55875b600881106112b75750506112b290613b4a565b61124b565b8651848101848152602081018390526112ee91906112e090829060400103858101835282612aca565b6112e8615353565b876159bf565b811561132c575b906113279161132182611312876000526016602052604060002090565b90600052602052604060002090565b55613b4a565b61129f565b959061133b6113279288613943565b61134f85600052601d602052604060002090565b559050856112f5565b61136f9150823d84116107e2576107d38183612aca565b38611244565b6004825163ea8e4eb560e01b8152fd5b50336001600160a01b036005541614611202565b60048251634ee2123760e11b8152fd5b60e0810192916000915b600783106113c057505050565b6001908251815260208091019201920191906113b3565b346103d45760203660031901126103d45761092d6004356115316115216040519261140184612a92565b60e036853761142d61141d826000526017602052604060002090565b6001600052602052604060002090565b548452611457611447826000526017602052604060002090565b6002600052602052604060002090565b546020850152611484611474826000526017602052604060002090565b6003600052602052604060002090565b5460408501526114b16114a1826000526017602052604060002090565b6004600052602052604060002090565b5460608501526114de6114ce826000526017602052604060002090565b6005600052602052604060002090565b54608085015261150b6114fb826000526017602052604060002090565b6006600052602052604060002090565b5460a08501526000526017602052604060002090565b6007600052602052604060002090565b5460c0820152604051918291826113a9565b346103d45760003660031901126103d45760206001600160a01b0360005416604051908152f35b60409060031901126103d457600435611582816103d9565b9060243561158f816103d9565b90565b346103d4576115a03661156a565b6115a8613890565b61092d6115f36115c76115b961364e565b6115c1613666565b33615933565b6116136115dd6115d561364e565b6115c161369f565b6001600160a01b039386851693851684146136d8565b8361160b6105ee82600054166001600160a01b031690565b911614613723565b61161e811515614082565b61163b846001600160a01b03166000526012602052604060002090565b54158015611a13575b61164d906140cd565b61167561166d866001600160a01b03166000526012602052604060002090565b541515614118565b6116ab60056106e261169a886001600160a01b03166000526012602052604060002090565b546000526015602052604060002090565b6040517f880cdc310000000000000000000000000000000000000000000000000000000060208201526001600160a01b03861660248201529092906117049080604481015b03946107a1601f1996878101845283612aca565b5061172d6105ee60046106e261169a8a6001600160a01b03166000526012602052604060002090565b6119a0575b61174f866001600160a01b03166000526012602052604060002090565b5461176d866001600160a01b03166000526012602052604060002090565b556117be856117a3611792896001600160a01b03166000526012602052604060002090565b546000526013602052604060002090565b906001600160a01b03166001600160a01b0319825416179055565b6118003360046117e461169a896001600160a01b03166000526012602052604060002090565b01906001600160a01b03166001600160a01b0319825416179055565b85161415908161197b575b611828846001600160a01b03166000526012602052604060002090565b549361184360056106e2876000526015602052604060002090565b956118726105e16002611860896000526015602052604060002090565b01546000526013602052604060002090565b9315611913576107a16118dd936118916009546001600160a01b031690565b6040517fe3d1d5bf0000000000000000000000000000000000000000000000000000000060208201526001600160a01b0394851660248201529490931660448501528360648101610795565b505b6118e96001601155565b60405193849384916040919493606084019584526001600160a01b03809216602085015216910152565b61079591506107a1611975936119316009546001600160a01b031690565b6040517f9498d88b0000000000000000000000000000000000000000000000000000000060208201526001600160a01b039094166024850152929384906044820190565b506118df565b600061199a866001600160a01b03166000526012602052604060002090565b5561180b565b611a0d6119c860046106e261169a8a6001600160a01b03166000526012602052604060002090565b6040517f0399c93c000000000000000000000000000000000000000000000000000000006020820152336024820152906107a182604481015b03878101845283612aca565b50611732565b508482168114611644565b346103d45760203660031901126103d4576004356000526015602052602060ff600160406000200154166040519015158152f35b346103d45760203660031901126103d45760043560005260156020526020600360406000200154604051908152f35b346103d45760203660031901126103d457600435600052601560205260206001600160a01b0360046040600020015416604051908152f35b346103d45760003660031901126103d4576020601f54604051908152f35b346103d45760203660031901126103d457600435611af4816103d9565b6001600160a01b0390811660009081526012602090815260408083205483526015825280832060020154808452601383529281902054815193845290931690820152f35b346103d45760203660031901126103d457600435806000526015602052604060002054601360205261092d6001600160a01b0380604060002054169360156020526040600020916004600284015493015416611ba360056106e2846000526015602052604060002090565b906003611bd3611bc260016105b7876000526015602052604060002090565b946000526015602052604060002090565b01549360405197889788939160c09591989796939260e086019986526001600160a01b03938480931660208801526040870152166060850152166080830152151560a08201520152565b346103d45760203660031901126103d4576001600160a01b03600435611c42816103d9565b1660005260126020526040600020546000526015602052602060ff600160406000200154166040519015158152f35b346103d457611c7f3661156a565b90611c886156a5565b156109f157611c963361572a565b8015611d86575b156109cc5781611cb491611caf613890565b613b59565b806000526015602052611d58611d44611d52611d026001600160a01b03958660056040600020015416966040519116602082015260208152611cf581612a76565b611cfd6138cb565b615984565b6040517f654c668e0000000000000000000000000000000000000000000000000000000060208201526024810191909152600060448201529182906064820190565b03601f198101835282612aca565b836159ff565b50611d6281614021565b611d6c6001601155565b604080519182526001600160a01b03929092166020820152f35b50336001600160a01b036005541614611c9d565b346103d45760003660031901126103d4576020601454604051908152f35b346103d45760203660031901126103d4576001600160a01b03600435611ddd816103d9565b1660005260126020526020604060002054604051908152f35b346103d4576020806003193601126103d457600435611e13613890565b6001611e306105bf826105b7856000526015602052604060002090565b611e58611e50336001600160a01b03166000526012602052604060002090565b548314614163565b611e6c82600052601e602052604060002090565b918183019260ff8454611e80828216614407565b60081c166121025750600291611ead83611ea4846000526015602052604060002090565b0154151561449d565b6000815b611fd4575b505090611f23826106af956001600160a01b03611efa60056106e287611ee860009a6000526015602052604060002090565b01546000526015602052604060002090565b16611f34575b508454611f139060081c60ff1682614535565b6000526015602052604060002090565b0155805461ff001916610100179055565b611fcd90611f5560056106e287611ee8876000526015602052604060002090565b604051636f58dd0f60e11b8382015260006024820152611f899080604481015b03926107a1601f1994858101845283612aca565b506107a1611faa60056106e289611ee8896000526015602052604060002090565b91631867546560e21b604051948501528361079560248201906001602083019252565b5038611f00565b600380611fef86611ee8876000526015602052604060002090565b01548210156120fc578361202961201f84846120198a611ee8876000526015602052604060002090565b01613e95565b90549060031b1c90565b1461203e575061203890613b4a565b81611eb1565b611f239250956120f3876120d586946120bc6120a261201f8861209c6106af9f61209560009f9e8f908361208383611ee8611ee8946000526015602052604060002090565b01956000526015602052604060002090565b0154613934565b90613e95565b91846120198b611ee88b6000526015602052604060002090565b90919082549060031b91821b91600019901b1916179055565b6120ed86611ee8866000526015602052604060002090565b016144e8565b95509192611eb6565b50611eb6565b9091506121db936121a86121a26104ba95612134600261212c886000526015602052604060002090565b015415614452565b61216e8660036121688854806002612156866000526015602052604060002090565b01556000526015602052604060002090565b01613eb2565b84546001600160a01b0361219160056106e2846000526015602052604060002090565b16612275575b505460081c60ff1690565b84614535565b6121c46105ee60046106e2866000526015602052604060002090565b6121e0575b5050600052601e602052604060002090565b6106af565b61226d916107a17f1499c592000000000000000000000000000000000000000000000000000000009261225f61223d6105e161222b60046106e28b6000526015602052604060002090565b95546000526013602052604060002090565b604051958693840152602483019190916001600160a01b036020820193169052565b03601f198101845283612aca565b5038806121c9565b61229160056106e26122f9936000526015602052604060002090565b604051636f58dd0f60e11b87820152600160248201526122b5908060448101611f75565b506122d460056106e26002611ee88c6000526015602052604060002090565b604051631867546560e21b8882015260006024820152916107a1908360448101610795565b5038612197565b346103d4576040806003193601126103d45760043561231d613890565b6123396105bf60016105b7846000526015602052604060002090565b61235f6123586105ee60046106e2856000526015602052604060002090565b3314614310565b612367613904565b61092d61010061238660056106e2856000526015602052604060002090565b6124aa601f549486805193826123ed6123df6020977f02a085f20000000000000000000000000000000000000000000000000000000089820152806116f060249d8e803590840160209093929193604081019481520152565b8780825183010191016148b1565b98895192612400888c0194855190613883565b978b6124118782019a8b5190613883565b6124216060830191825190613883565b906124326080840192835190613883565b97868a8961244660a088019c8d5190613883565b9661245f61245a60c08301998a5190613883565b6152c0565b8881516126a0575b50509091508251612627575b50505080516125b6575b50805161254c575b506124938651825190613883565b6124cf575b5050505050505060e0860151906149e2565b51920151926124b96001601155565b5191825260208201929092529081906040820190565b61253f9663a9059cbb60e01b966107a19561251a610795946125106105e16124ff600f546001600160a01b031690565b9b6000526013602052604060002090565b9351905190613883565b92519889958601528401602090939291936001600160a01b0360408201951681520152565b5086388281808080612498565b6125af906125626010546001600160a01b031690565b6107a161257c6105e18a6000526013602052604060002090565b92518b5163a9059cbb60e01b888201526001600160a01b0390941689850190815260208101919091528390604001611a01565b5038612485565b612620906125cc600c546001600160a01b031690565b6107a16125e66105e18b6000526013602052604060002090565b92518c5163a9059cbb60e01b898201526001600160a01b039094168a85019081526020810191909152839060400103888101845283612aca565b503861247d565b6107a16126979361268b61265a6105e1612649600e546001600160a01b031690565b956000526013602052604060002090565b9151945194859263a9059cbb60e01b8c8501528d8401602090939291936001600160a01b0360408201951681520152565b03898101845283612aca565b50388988612473565b61270463a9059cbb60e01b946107a193612710976126dd6105e16126cc600d546001600160a01b031690565b986000526013602052604060002090565b915192519788958601528401602090939291936001600160a01b0360408201951681520152565b038a8101845283612aca565b508f8a89899288612467565b346103d45760403660031901126103d45760043560243561273b6156a5565b156109f1576127493361572a565b8015612845575b156109cc576128176106af92612764613890565b8060005260156020526127836105bf600160406000200160ff90541690565b6127a461279f60016105b7866000526015602052604060002090565b614371565b6128076127fd6127ee6127c660056106e2886000526015602052604060002090565b604051906127e08261225f60208201906000602083019252565b6127e86137b9565b90615836565b602080825183010191016137f2565b5050501515613814565b600052601e602052604060002090565b90600182019161283761283261282e855460ff1690565b1590565b6143bc565b55805460ff19166001179055565b50336001600160a01b036005541614612750565b346103d45760403660031901126103d457600435602435612878613890565b6128946105bf60016105b7856000526015602052604060002090565b6128b16105fa6105ee6105e1856000526013602052604060002090565b6128e36128cd60056106e2856000526015602052604060002090565b6128d5614208565b6128dd61363b565b91615836565b90806128f9602093848082518301019101614241565b1015612909576100166001601155565b826129e06001600160a01b03927ff526f68a00000000000000000000000000000000000000000000000000000000946129d46129b96105e16129a461299661297a61296660056106e26129e69f6000526015602052604060002090565b976040519182918983019190602083019252565b039761298e601f19998a8101845283612aca565b6127e8614250565b858082518301019101614289565b99925050506000526013602052604060002090565b6129c161364e565b90604051988994850152602484016142d4565b03908101855284612aca565b166159ff565b503880806106af565b346103d45760203660031901126103d4576020600435612a0e816103d9565b6001600160a01b03809116600052601282526040600020546000526015825260056040600020015416604051908152f35b634e487b7160e01b600052604160045260246000fd5b6060810190811067ffffffffffffffff821117612a7157604052565b612a3f565b6040810190811067ffffffffffffffff821117612a7157604052565b60e0810190811067ffffffffffffffff821117612a7157604052565b6020810190811067ffffffffffffffff821117612a7157604052565b90601f8019910116810190811067ffffffffffffffff821117612a7157604052565b604051906101e0820182811067ffffffffffffffff821117612a7157604052565b346103d4576101003660031901126103d45736604312156103d457604051612b3481612a92565b610104813682116103d4576024905b828210612b565761001684600435614fc0565b8135815260209182019101612b43565b346103d45760403660031901126103d457600435600052601660205260406000206024356000526020526020604060002054604051908152f35b346103d45760203660031901126103d45760043560005260156020526020600260406000200154604051908152f35b346103d45760403660031901126103d45760043560005260156020526020612c006024356003604060002001613e95565b90549060031b1c604051908152f35b346103d45760003660031901126103d45760206001600160a01b0360015416604051908152f35b346103d45760403660031901126103d457602435612c526156a5565b156109f157612c603361572a565b8015612c98575b156109cc57600090808252601c60205260408220549060043582018092116109c7578252601c602052604082205580f35b50336001600160a01b036005541614612c67565b346103d45760203660031901126103d457600435600052601d6020526020604060002054604051908152f35b346103d45760003660031901126103d4576020612d456001600160a01b0360065416604051612d0681612a76565b601381527f67657464656c656761746f72436f756e742829000000000000000000000000008482015260405191612d3c83612aae565b600083526159bf565b604051908152f35b610100810192916000915b60088310612d6557505050565b600190825181526020809101920192019190612d58565b346103d45760203660031901126103d45761092d600435612e89611521612da1615243565b92612dc8612db9826000526016602052604060002090565b60008052602052604060002090565b548452612de261141d826000526016602052604060002090565b546020850152612dff611447826000526016602052604060002090565b546040850152612e1c611474826000526016602052604060002090565b546060850152612e396114a1826000526016602052604060002090565b546080850152612e566114ce826000526016602052604060002090565b5460a0850152612e736114fb826000526016602052604060002090565b5460c08501526000526016602052604060002090565b5460e082015260405191829182612d4d565b346103d45760203660031901126103d4576020612ec2600435612ebd816103d9565b61572a565b6040519015158152f35b346103d457612f99612edd3661156a565b90612ee6613890565b612f2f612ef46115b961364e565b612eff6115d561364e565b90612f186001600160a01b0391828088169116146136d8565b61160b6105ee82600054166001600160a01b031690565b612f5c612f5760016105b761169a856001600160a01b03166000526012602052604060002090565b61376e565b612f8a6127fd6127ee6127c660056106e261169a876001600160a01b03166000526012602052604060002090565b612f92613904565b3390613d63565b612fb2612db9601f546000526016602052604060002090565b612fbc8154613875565b9055612fc66152ec565b612fdf60056106e2836000526015602052604060002090565b90611d6281614021565b346103d45760203660031901126103d4576130026156a5565b156109f1576130103361572a565b801561304b575b156109cc576130246157b4565b601f541061303b575b610016600435601f54613950565b6130436157b4565b601f5561302d565b50336001600160a01b036005541614613017565b346103d45760203660031901126103d45760043561307b6156a5565b156109f1576001600160a01b036005541633036109cc57600090600460206130ad6105ee85546001600160a01b031690565b604051928380927f46f991ac0000000000000000000000000000000000000000000000000000000082525afa80156107e9578380848194938294839161314f575b505af16130f9615806565b5015610931577fcdcc745fe377b103b45fa0cec23ae3ef93d6fc6a84a01f0d18c40b354dd1d5d86131496131386105ee600b546001600160a01b031690565b604051938452929081906020820190565b0390a280f35b613167915060203d81116107e2576107d38183612aca565b386130ee565b346103d45760203660031901126103d457600435600052601b6020526020604060002054604051908152f35b346103d45760203660031901126103d4576004356131b6816103d9565b803b60006131c38261361f565b926131d16040519485612aca565b82845260208401903c602d8151106131f557602a602091015160601c604051908152f35b60046040517fbaf3f0f7000000000000000000000000000000000000000000000000000000008152fd5b60403660031901126103d457600435613236613890565b600090808252601560205261325460ff600160408520015416613fd6565b815260156020526132946001600160a01b036005604084200154166040519062a0e53360e51b60208301526024356024830152602482526107a182612a55565b50600160115580f35b346103d45760403660031901126103d457600435600052601860205260406000206024356000526020526020604060002054604051908152f35b346103d45760c03660031901126103d4576106af6004356024356132fa816103d9565b606435916133fa6133eb60843593613310613890565b61332c6105bf60016105b7876000526015602052604060002090565b61334b6123586105ee60046106e2886000526015602052604060002090565b613353613904565b61335c85615268565b61336586615294565b61337e60056106e2866000526015602052604060002090565b601f546040517fa66303040000000000000000000000000000000000000000000000000000000060208201526001600160a01b039093166024840152604480359084015260648301889052608483019690965260a480359083015260c48201959095528060e481016116f0565b6020808251830101910161435b565b9281613408575b5050614d04565b61344e916107a161079592613425600b546001600160a01b031690565b60405163a9059cbb60e01b60208201523360248201526044810194909452929384906064820190565b503880613401565b346103d4576020806003193601126103d45761092d9060043590613479826103d9565b6134dd6001600160a01b03928360065416936040519116838201528281526134a081612a76565b6040516134ac81612a76565b601881527f697364656c656761746f724e6f64652861646472657373290000000000000000848201526000946158f1565b919080613517575b6134fe575b505060405190151581529081906020820190565b6135109250808251830101910161568d565b38806134ea565b50808251146134e5565b346103d45760003660031901126103d4576020612ec26156a5565b346103d45760203660031901126103d457600435600052601a6020526020604060002054604051908152f35b346103d45760203660031901126103d457600435600052601c6020526020604060002054604051908152f35b346103d4576040806003193601126103d4576001600160a01b036004356135ba816103d9565b166000818152601260208181528483205483526019815284832054938352908152838220548252601881528382206024358352815290839020549251918252810191909152604090f35b346103d45760003660031901126103d4576020612d456157b4565b67ffffffffffffffff8111612a7157601f01601f191660200190565b6040519061364882612aae565b60008252565b60405161365a81612aae565b60008152906000368137565b6040519061367382612a76565b600782527f6f776e65722829000000000000000000000000000000000000000000000000006020830152565b604051906136ac82612a76565b600c82527f67657448657862617365282900000000000000000000000000000000000000006020830152565b156136df57565b606460405162461bcd60e51b815260206004820152601760248201527f6e65737465642e696e76616c69642e696e7374616e63650000000000000000006044820152fd5b1561372a57565b606460405162461bcd60e51b815260206004820152601660248201527f6e65737465642e696e76616c69642e68657862617365000000000000000000006044820152fd5b1561377557565b606460405162461bcd60e51b815260206004820152601860248201527f6e65737465642e706172656e742e6e6f742e65786973747300000000000000006044820152fd5b604051906137c682612a76565b601282527f6765744e6f64654c422875696e743235362900000000000000000000000000006020830152565b91908260809103126103d4578151916020810151916060604083015192015190565b1561381b57565b606460405162461bcd60e51b815260206004820152601960248201527f6e65737465642e706172656e742e6e6f2e627573696e657373000000000000006044820152fd5b634e487b7160e01b600052601160045260246000fd5b90600182018092116109c757565b919082018092116109c757565b6002601154146138a1576002601155565b60046040517f3ee5aeb5000000000000000000000000000000000000000000000000000000008152fd5b604051906138d882612a76565b601d82527f55736572546f5769746864726177446f6c6c61722861646472657373290000006020830152565b61390c6157b4565b601f5410613924575b6139226002601f54613950565b565b61392c6157b4565b601f55613915565b6000198101919082116109c757565b919082039182116109c757565b90613968612db9836000526016602052604060002090565b541580613af5575b80613aec575b61397e575050565b61399a9061399461398e84613934565b91613934565b90613950565b6139b9612db96139a983613934565b6000526016602052604060002090565b546139d1612db9836000526016602052604060002090565b556139e161141d6139a983613934565b546139f961141d836000526016602052604060002090565b55613a096114476139a983613934565b54613a21611447836000526016602052604060002090565b55613a316114746139a983613934565b54613a49611474836000526016602052604060002090565b55613a596114a16139a983613934565b54613a716114a1836000526016602052604060002090565b55613a816114ce6139a983613934565b54613a996114ce836000526016602052604060002090565b55613aa96114fb6139a983613934565b54613ac16114fb836000526016602052604060002090565b55613ae9611521613ad76115216139a985613934565b54926000526016602052604060002090565b55565b50801515613976565b5060018211613970565b15613b0657565b606460405162461bcd60e51b815260206004820152601560248201527f6e65737465642e616c72656164792e65786973747300000000000000000000006044820152fd5b60001981146109c75760010190565b90613b8a613b8561282e60016105b761169a866001600160a01b03166000526012602052604060002090565b613aff565b613b9d613b98601454613b4a565b601455565b613bf460145492613bbc836117a3866000526013602052604060002090565b83613bda846001600160a01b03166000526012602052604060002090565b556001600160a01b03166000526012602052604060002090565b5490613c008383613eda565b613c2a6004613c19856000526015602052604060002090565b016001600160a01b03198154169055565b613c5d613c47613c426008546001600160a01b031690565b613dff565b60056117e4866000526015602052604060002090565b613ce0613c7960056106e2866000526015602052604060002090565b91613c8f6105ee6000546001600160a01b031690565b6040517f52902c590000000000000000000000000000000000000000000000000000000060208201526001600160a01b03918216602482015291166044820152606481018590528060848101611f75565b5081151580613d39575b613cf357505090565b613d0f60056106e2613d35946000526015602052604060002090565b604051636f58dd0f60e11b602082015260016024820152916107a1908360448101610795565b5090565b506001600160a01b03613d5b60056106e2856000526015602052604060002090565b161515613cea565b91613d8f613b8561282e60016105b761169a866001600160a01b03166000526012602052604060002090565b613d9d613b98601454613b4a565b613c2a613ddd60145494613dbf846117a3886000526013602052604060002090565b85613bda856001600160a01b03166000526012602052604060002090565b5492613de98585613eda565b60046117e4866000526015602052604060002090565b6e5af43d82803e903d91602b57fd5bf390763d602d80600a3d3981f3363d3d373d3d3d363d7300000062ffffff8260881c161760005260781b17602052603760096000f0906001600160a01b03821615613e5557565b60046040517fb06ebf3d000000000000000000000000000000000000000000000000000000008152fd5b634e487b7160e01b600052603260045260246000fd5b8054821015613ead5760005260206000200190600090565b613e7f565b9081549168010000000000000000831015612a7157826120bc91600161392295018155613e95565b91909160009280845260209160158352604080862095600294838689015584600198613f0f8a8201600160ff19825416179055565b5587613f25866000526018602052604060002090565b83805282528489858520555b613f4057505050505050509050565b613fae613f9d828b8a9414613fb7575b613f64886000526018602052604060002090565b8187528552868620613f768154613875565b9055613f8c886000526019602052604060002090565b613f968154613875565b9055613b4a565b956000526015602052604060002090565b01549384613f31565b613fd18960036121688b6000526015602052604060002090565b613f50565b15613fdd57565b606460405162461bcd60e51b815260206004820152601560248201527f6e65737465642e757365722e6e6f7461637469766500000000000000000000006044820152fd5b80600052601560205261403e60ff60016040600020015416613fd6565b600052601560205261407f6001600160a01b03600560406000200154166040519062a0e53360e51b602083015260016024830152602482526107a182612a55565b50565b1561408957565b606460405162461bcd60e51b815260206004820152601360248201527f6e65737465642e7a65726f2e61646472657373000000000000000000000000006044820152fd5b156140d457565b606460405162461bcd60e51b815260206004820152601460248201527f6e65737465642e7461726765742e6578697374730000000000000000000000006044820152fd5b1561411f57565b606460405162461bcd60e51b815260206004820152601760248201527f6e65737465642e736f757263652e6e6f744578697374730000000000000000006044820152fd5b1561416a57565b606460405162461bcd60e51b815260206004820152601560248201527f6e65737465642e696e76616c69642e73656e64657200000000000000000000006044820152fd5b908160209103126103d4575161158f816103d9565b6040513d6000823e3d90fd5b604051906141dc82612a76565b601382527f55736572546f496e7374286164647265737329000000000000000000000000006020830152565b6040519061421582612a76565b600b82527f6d696e74436f756e7428290000000000000000000000000000000000000000006020830152565b908160209103126103d4575190565b6040519061425d82612a76565b600e82527f6d696e74732875696e74323536290000000000000000000000000000000000006020830152565b91908260809103126103d4578151916020810151916060604083015192015161158f816103d9565b60005b8381106142c45750506000910152565b81810151838201526020016142b4565b90916001600160a01b036060931682526040602083015261430481518092816040860152602086860191016142b1565b601f01601f1916010190565b1561431757565b606460405162461bcd60e51b815260206004820152601b60248201527f6e65737465642e757365722e696e76616c6964696e7374616e636500000000006044820152fd5b91908260409103126103d4576020825192015190565b1561437857565b606460405162461bcd60e51b815260206004820152601560248201527f6e65737465642e696e76616c69642e706172656e7400000000000000000000006044820152fd5b156143c357565b606460405162461bcd60e51b815260206004820152601760248201527f6e65737465642e7265712e616c726561647965786973740000000000000000006044820152fd5b1561440e57565b606460405162461bcd60e51b815260206004820152601460248201527f6e65737465642e7265712e6e6f746578697374730000000000000000000000006044820152fd5b1561445957565b606460405162461bcd60e51b815260206004820152601860248201527f6e65737465642e757365722e6e6f742e646574616368656400000000000000006044820152fd5b156144a457565b606460405162461bcd60e51b815260206004820152601c60248201527f6e65737465642e757365722e616c72656164792e6465746163686564000000006044820152fd5b805490811561451257600019918201916145028383613e95565b909182549160031b1b1916905555565b634e487b7160e01b600052603160045260246000fd5b80156109c7576000190190565b9061455361454d836000526019602052604060002090565b54613875565b916002908161456c826000526015602052604060002090565b0154906001938492835b614584575b50505050505050565b600f80851115806148a8575b156148a257859060056145b46105ee826106e2876000526015602052604060002090565b6145e1575b50506145d26145da926000526015602052604060002090565b015493613b4a565b9285614576565b865b828111156146dc575050506145d26145da92846000146146795761462b614614876000526018602052604060002090565b61461d89613934565b600052602052604060002090565b5461464f61464789611312856000526018602052604060002090565b918254613883565b9055614665816000526019602052604060002090565b6146708b8254613883565b90555b926145b9565b614690614614876000526018602052604060002090565b546146b46146ac89611312856000526018602052604060002090565b918254613943565b90556146ca816000526019602052604060002090565b6146d58b8254613943565b9055614673565b909192506146f8826106e2886000526015602052604060002090565b6147028883613943565b604091876147446147368551806147226020978883019190602083019252565b03946127e0601f1996878101845283612aca565b8480825183010191016137f2565b50509290878a82158061489a575b61488957926147da949261079561477f6107a1946106e26147e79b9a986000526015602052604060002090565b94601f9a8c8c5491519889957f7b058ac1000000000000000000000000000000000000000000000000000000008d8801526024870193909594919260809360a086019786526020860152604085015260608401521515910152565b805181018201910161435b565b90871561483f575b80821161480c57505050614803905b613b4a565b908792916145e3565b61481590613b4a565b61482e8161131285546000526016602052604060002090565b6148388154613875565b90556147ef565b9190915b8281116148565750505061480390613b4a565b806148736148849261131285546000526016602052604060002090565b61487d8154613934565b9055614528565b614843565b505050505050505061480390613b4a565b508515614752565b5061457b565b50811515614590565b9061012080838303126103d45781601f840112156103d4576040519281840184811067ffffffffffffffff821117612a7157604052839181019283116103d457905b8282106149005750505090565b81518152602091820191016148f3565b6040519061491d82612a76565b600f82527f66726565496e74657276616c73282900000000000000000000000000000000006020830152565b6040519061495682612a76565b601582527f67657452616e6b5769746841676556616c7565282900000000000000000000006020830152565b6040519061498f82612a76565b601382527f72616e6b436c617573652875696e7432353629000000000000000000000000006020830152565b908160a09103126103d4578051916020820151916040810151916080606083015192015190565b919091600392614a136149fc85546001600160a01b031690565b614a0461364e565b90614a0d614910565b906159bf565b9360008092819082948392849185985b600f8a111580614cfb575b15614ced576005614a506105ee826106e2856000526015602052604060002090565b614a7d575b506002614a6f614a77926000526015602052604060002090565b015499613b4a565b98614a23565b8c614aa1614a99836106e2866000526015602052604060002090565b6128d5614949565b8c614ab660209283808251830101910161435b565b829591951580614c84575b1580614c7b575b8015614c73575b614ade575b5050505050614a55565b869e8697929394959603614bb2575b50614b6f928b6107a18c61225f614b19614b7599976106e2614b62986000526015602052604060002090565b93601f9a8b5460405197889563208bffb160e21b8c8801526024870193909594919260a09360c08601978652600060208701526040860152606085015260808401521515910152565b8051810182019101614241565b92613875565b80831015614b9057509098905060028c614a778c3880614ad4565b80613f8c614bad9261131285546000526016602052604060002090565b614b75565b9193929a50508a8511614c05575b509087918c86861080801591614bdc575b50159a929193614aed565b89881015915081614bfd575b5080614bf5575b38614bd1565b508815614bef565b905038614be8565b995095509350859250614c54614c46614c258b546001600160a01b031690565b60405190614c3e8261225f888c83019190602083019252565b6127e8614982565b8680825183010191016149bb565b969350909691509594614c6a859b601f54613943565b11969091614bc0565b506000614acf565b508a1515614ac8565b99509b50955095509a50614ccd614cbf838d614c3e614caa8f546001600160a01b031690565b6040519283019384529192839060200161225f565b8c80825183010191016149bb565b9e9350909791509695849b859e614ce682601f54613943565b1199614ac1565b505050505050505050509050565b50801515614a2e565b90929192614d1d6149fc6003546001600160a01b031690565b93600091829083809481938280985b600f8a111580614fb7575b15614ced57614d586105ee60056106e2846000526015602052604060002090565b614d7c575b6002614a6f614d76926000526015602052604060002090565b98614d2c565b8b8a614d9d6133eb614a9960056106e2876000526015602052604060002090565b8293919315614f5a575b82151580614f51575b8015614f48575b614dc5575b50505050614d5d565b938394819d8d949503614e92575b50614e5992614b6f926107a18c61225f8f614e0060056106e2614e4a996000526015602052604060002090565b94601f9a8b549060405198899663208bffb160e21b60208901526024880194919260a0949197969360c0870198875260208701526040860152606085015260808401521515910152565b60208082518301019101614241565b80831015614e7057509098905060028a8d38614dbc565b80613f8c614e8d9261131285546000526016602052604060002090565b614e59565b935050509750828211614ee4575b50898c878b86851080801591614ebb575b50159a9291614dd3565b89871015915081614edc575b5080614ed4575b38614eb1565b508815614ece565b905038614ec7565b935093505050614f2b614f1c614f026003546001600160a01b031690565b60405190614c3e8261225f88602083019190602083019252565b602080825183010191016149bb565b9350909391509291614f408592601f54613943565b119338614ea0565b508b1515614db7565b50891515614db0565b97505050935097505050614f96614f1c614f7c6003546001600160a01b031690565b60405190614c3e8261225f87602083019190602083019252565b999350909391509291818a8d829b614fb089601f54613943565b1197614da7565b50801515614d37565b614fc86156a5565b156109f157614fd63361572a565b80156150d9575b156109cc57614fea613904565b614ff58115156150ed565b61501261500a6003546001600160a01b031690565b6128d5615138565b615026602091828082518301019101615171565b9261503b83600052601a602052604060002090565b549160005b6007811061505057505050505050565b8061505e6150cc92856151ee565b51156147fe5761506e81886151ee565b518051908482156150d1576150956150a69161508d6150ac958b615210565b9301516151ff565b61509f85896151ee565b5190615210565b90615223565b6113216150c3886000526017602052604060002090565b61461d84613875565b615040565b505050613b4a565b50336001600160a01b036005541614614fdd565b156150f457565b606460405162461bcd60e51b815260206004820152601260248201527f6e65737465642e696e76616c69642e61676500000000000000000000000000006044820152fd5b6040519061514582612a76565b601882527f6765744261746368526f79616c7479436c6175736573282900000000000000006020830152565b6102a09081818403126103d45782601f820112156103d457604080519361519785612a92565b84938301928184116103d457935b8385106151b457505050505090565b6060858303126103d45782516060916151cc82612a55565b86518252602091828801518382015285880151868201528152019401936151a5565b906007811015613ead5760051b0190565b90816064029160648304036109c757565b818102929181159184041417156109c757565b811561522d570490565b634e487b7160e01b600052601260045260246000fd5b6040519061010080830183811067ffffffffffffffff821117612a7157604052368337565b601f5480600052601a6020526040600020549182018092116109c757600052601a602052604060002055565b601f5480600052601b6020526040600020549182018092116109c757600052601b602052604060002055565b601f5480600052601c6020526040600020549182018092116109c757600052601c602052604060002055565b601f5480600052601d60205260406000205490600182018092116109c757600052601d602052604060002055565b6040519061532782612a76565b601482527f676574627573696e6573732875696e74323536290000000000000000000000006020830152565b6040519061536082612a76565b601d82527f67657472616e6b436f756e742875696e743235362c75696e74323536290000006020830152565b6156716101c0613922926153c66153aa82516001600160a01b031690565b6001600160a01b03166001600160a01b03196002541617600255565b6153f96153dd60208301516001600160a01b031690565b6001600160a01b03166001600160a01b03196003541617600355565b61542c61541060408301516001600160a01b031690565b6001600160a01b03166001600160a01b03196004541617600455565b61545f61544360608301516001600160a01b031690565b6001600160a01b03166001600160a01b03196005541617600555565b61549261547660808301516001600160a01b031690565b6001600160a01b03166001600160a01b03196006541617600655565b6154c56154a960a08301516001600160a01b031690565b6001600160a01b03166001600160a01b03196007541617600755565b6154f86154dc60c08301516001600160a01b031690565b6001600160a01b03166001600160a01b03196008541617600855565b61552b61550f60e08301516001600160a01b031690565b6001600160a01b03166001600160a01b03196009541617600955565b61555f6155436101008301516001600160a01b031690565b6001600160a01b03166001600160a01b0319600a541617600a55565b6155936155776101208301516001600160a01b031690565b6001600160a01b03166001600160a01b0319600b541617600b55565b6155c76155ab6101408301516001600160a01b031690565b6001600160a01b03166001600160a01b0319600c541617600c55565b6155fb6155df6101608301516001600160a01b031690565b6001600160a01b03166001600160a01b0319600d541617600d55565b61562f6156136101808301516001600160a01b031690565b6001600160a01b03166001600160a01b0319600e541617600e55565b6156636156476101a08301516001600160a01b031690565b6001600160a01b03166001600160a01b0319600f541617600f55565b01516001600160a01b031690565b6001600160a01b03166001600160a01b03196010541617601055565b908160209103126103d4575180151581036103d45790565b6157006001600160a01b03600254166040516156c081612a76565b600881527f69735361666528290000000000000000000000000000000000000000000000006020820152604051916156f783612aae565b600083526158f1565b908061571f575b15610931578060208061158f9351830101910161568d565b506020815114615707565b61578d6001600160a01b03806002541660405191602094168483015283825261575282612a76565b6040519061575f82612a76565b601582527f6973536563757265426173652861646472657373290000000000000000000000858301526158f1565b90806157aa575b15610931578161158f928251830101910161568d565b5081815114615794565b61158f6001600160a01b03600354166040516157cf81612a76565b600681527f6941676528290000000000000000000000000000000000000000000000000000602082015260405191612d3c83612aae565b3d15615831573d906158178261361f565b916158256040519384612aca565b82523d6000602084013e565b606090565b9061584192916158f1565b906000901561584e575090565b604051915061585c82612aae565b815290565b732b835614fcaa301ddfb6e49896e898e272a67795803b156158d8576000926001600160e01b031983602086955191012016906158c860246040518093602082019586526158b881518092602086860191016142b1565b8101036004810184520182612aca565b51915afa6158d4615806565b9091565b5050506000906040516158ea81612aae565b6000815290565b803b156158d8576000926001600160e01b031983602086955191012016906158c860246040518093602082019586526158b881518092602086860191016142b1565b9291615941916000946158f1565b9080615979575b61594f5750565b9091506020818051810103126103d45760206001600160a01b03910151615975816103d9565b1690565b506020815114615948565b6000929161599191615861565b90806159b4575b61599f5750565b61158f91925060208082518301019101614241565b506020815114615998565b9291615991916000946158f1565b90602082519201516001600160e01b03199081811693600481106159f057505050565b60040360031b82901b16169150565b6001600160a01b03811615615a9a57600080918351908260208601915af190615a26615806565b9115615a30575090565b805160009190600411615a9457615a4791506159cd565b815115615a575750805190602001fd5b6040517f21c09d340000000000000000000000000000000000000000000000000000000081526001600160e01b0319919091166004820152602490fd5b50615a47565b60046040517fe6c4247b000000000000000000000000000000000000000000000000000000008152fdfea26469706673582212206a44624c9baf37ea8a795f4b81d9837ad1517849ecc7f4969d4d66376c706e3364736f6c63430008140033","linkReferences":{}},"methodIdentifiers":{"Burn(uint256)":"b90306ad","TVLrefresh(uint256)":"13cf3d55","UserToId(address)":"629d671e","_ageNow()":"44668f23","_delegatorCount()":"a1f7f539","_getImplementation(address)":"c54e44b0","_isDelegatorNode(address)":"e01ad5fd","_isSafe()":"e0a9bc2b","_isSecureBase(address)":"af484526","_isSigner(address)":"1f185d16","addBusiness(uint256,address,uint256,uint256,uint256,uint256)":"dcb3fc4a","claimIncome(uint256,uint256)":"6a811244","closemdform(uint256)":"1157a849","compileRoyality(uint256,uint256[7])":"7818cdd7","createmdform(uint256,uint256)":"6b90905b","getBalance()":"12065fe0","getBatchRankCounts(uint256)":"a89d693b","getDownlineCountByLevel(uint256,uint256)":"d1e0bbc6","getHexbase()":"3b9b7955","getMoveDownline(uint256)":"13508e37","getNode(uint256)":"4f0f4aa9","getNodeChild(uint256,uint256)":"896c354a","getNodeDirectsCount(uint256)":"42cc9d57","getNodeInstStor(uint256)":"2bbae52e","getNodeParent(address)":"1bb49f02","getNodeParentId(uint256)":"849c22ad","getNodeParentwithId(address)":"4d1ec452","getNodesCount()":"61ea7208","getRoyalityAmountBatch(uint256)":"3a7b55b8","getTeamSize(uint256)":"033eeffb","getTotalTeamSizeWithLevel(address,uint256)":"fd38093b","getUserIdToInst(uint256)":"44585097","getUserIdToStor(uint256)":"2fefc0bf","getUserToInst(address)":"0e5fd00b","getUserToStor(address)":"76fe6c45","getbusiness(uint256)":"eb95c662","getjoining(uint256)":"98b3f215","getrankCount(uint256,uint256)":"80f85e33","gettotqty(uint256)":"c43792e3","getwithdrawn(uint256)":"f3ca7124","importBusiness(uint256,uint256)":"2a687c87","importJoining(uint256,uint256)":"32ff4eab","importOld(uint256,uint256)":"c871372b","importRankNBusiness(uint256,uint256)":"33b59a5b","importWithdrawal(uint256,uint256)":"95f72f49","isNode(uint256)":"419cb27b","isUserExists(address)":"509222cd","join(address,address)":"b1c49079","joinImport(address,address)":"50db85d1","moveDownline(uint256)":"65d2fbd3","nodes(uint256)":"1c53c280","owner()":"8da5cb5b","setDefaultRankCount(uint256)":"b366335e","syncBaseAddr()":"339459a6","systemAge()":"fdc10bc9","tokenImport(uint256,uint256)":"6fb412ab","updateUsers(address,address)":"3baee0ea"},"id":57}