{"abi":[{"type":"constructor","inputs":[{"name":"_hex","type":"address","internalType":"address"}],"stateMutability":"nonpayable"},{"type":"fallback","stateMutability":"payable"},{"type":"receive","stateMutability":"payable"},{"type":"function","name":"Burn","inputs":[{"name":"amount","type":"uint256","internalType":"uint256"}],"outputs":[],"stateMutability":"nonpayable"},{"type":"function","name":"UserToId","inputs":[{"name":"","type":"address","internalType":"address"}],"outputs":[{"name":"","type":"uint256","internalType":"uint256"}],"stateMutability":"view"},{"type":"function","name":"_delegatorCount","inputs":[],"outputs":[{"name":"","type":"uint256","internalType":"uint256"}],"stateMutability":"view"},{"type":"function","name":"_getImplementation","inputs":[{"name":"clone","type":"address","internalType":"address"}],"outputs":[{"name":"impl","type":"address","internalType":"address"}],"stateMutability":"view"},{"type":"function","name":"_isDelegatorNode","inputs":[{"name":"sender","type":"address","internalType":"address"}],"outputs":[{"name":"","type":"bool","internalType":"bool"}],"stateMutability":"view"},{"type":"function","name":"_isSafe","inputs":[],"outputs":[{"name":"","type":"bool","internalType":"bool"}],"stateMutability":"view"},{"type":"function","name":"_isSecureBase","inputs":[{"name":"sender","type":"address","internalType":"address"}],"outputs":[{"name":"","type":"bool","internalType":"bool"}],"stateMutability":"view"},{"type":"function","name":"_isSigner","inputs":[{"name":"sender","type":"address","internalType":"address"}],"outputs":[{"name":"","type":"bool","internalType":"bool"}],"stateMutability":"view"},{"type":"function","name":"addBusiness","inputs":[{"name":"_id","type":"uint256","internalType":"uint256"},{"name":"_paramAdd","type":"address","internalType":"address"},{"name":"_tokenid","type":"uint256","internalType":"uint256"},{"name":"_qty","type":"uint256","internalType":"uint256"},{"name":"_msgValue","type":"uint256","internalType":"uint256"},{"name":"_type","type":"uint256","internalType":"uint256"}],"outputs":[],"stateMutability":"nonpayable"},{"type":"function","name":"claimIncome","inputs":[{"name":"_id","type":"uint256","internalType":"uint256"},{"name":"_maxint","type":"uint256","internalType":"uint256"}],"outputs":[{"name":"","type":"uint256","internalType":"uint256"}],"stateMutability":"nonpayable"},{"type":"function","name":"compileRoyality","inputs":[],"outputs":[],"stateMutability":"nonpayable"},{"type":"function","name":"getBalance","inputs":[],"outputs":[{"name":"","type":"uint256","internalType":"uint256"}],"stateMutability":"view"},{"type":"function","name":"getBatchRankCounts","inputs":[{"name":"ag","type":"uint256","internalType":"uint256"}],"outputs":[{"name":"counts","type":"uint256[8]","internalType":"uint256[8]"}],"stateMutability":"view"},{"type":"function","name":"getDownlineCountByLevel","inputs":[{"name":"uid","type":"uint256","internalType":"uint256"},{"name":"lvl","type":"uint256","internalType":"uint256"}],"outputs":[{"name":"","type":"uint256","internalType":"uint256"}],"stateMutability":"view"},{"type":"function","name":"getHexbase","inputs":[],"outputs":[{"name":"","type":"address","internalType":"address"}],"stateMutability":"view"},{"type":"function","name":"getNode","inputs":[{"name":"_id","type":"uint256","internalType":"uint256"}],"outputs":[{"name":"_i","type":"uint256","internalType":"uint256"},{"name":"_node","type":"address","internalType":"address"},{"name":"_pid","type":"uint256","internalType":"uint256"},{"name":"_inst","type":"address","internalType":"address"},{"name":"_stor","type":"address","internalType":"address"},{"name":"_active","type":"bool","internalType":"bool"},{"name":"_direcCount","type":"uint256","internalType":"uint256"}],"stateMutability":"view"},{"type":"function","name":"getNodeChild","inputs":[{"name":"_id","type":"uint256","internalType":"uint256"},{"name":"inx","type":"uint256","internalType":"uint256"}],"outputs":[{"name":"child","type":"uint256","internalType":"uint256"}],"stateMutability":"view"},{"type":"function","name":"getNodeDirectsCount","inputs":[{"name":"_id","type":"uint256","internalType":"uint256"}],"outputs":[{"name":"count","type":"uint256","internalType":"uint256"}],"stateMutability":"view"},{"type":"function","name":"getNodeParent","inputs":[{"name":"_user","type":"address","internalType":"address"}],"outputs":[{"name":"","type":"uint256","internalType":"uint256"},{"name":"","type":"address","internalType":"address"}],"stateMutability":"view"},{"type":"function","name":"getNodeParentId","inputs":[{"name":"_id","type":"uint256","internalType":"uint256"}],"outputs":[{"name":"","type":"uint256","internalType":"uint256"}],"stateMutability":"view"},{"type":"function","name":"getNodesCount","inputs":[],"outputs":[{"name":"nodesCount","type":"uint256","internalType":"uint256"}],"stateMutability":"view"},{"type":"function","name":"getRoyalityAmountBatch","inputs":[{"name":"ag","type":"uint256","internalType":"uint256"}],"outputs":[{"name":"royal","type":"uint256[]","internalType":"uint256[]"}],"stateMutability":"view"},{"type":"function","name":"getTeamSize","inputs":[{"name":"uid","type":"uint256","internalType":"uint256"}],"outputs":[{"name":"","type":"uint256","internalType":"uint256"}],"stateMutability":"view"},{"type":"function","name":"getTotalTeamSizeWithLevel","inputs":[{"name":"_user","type":"address","internalType":"address"},{"name":"lvl","type":"uint256","internalType":"uint256"}],"outputs":[{"name":"","type":"uint256","internalType":"uint256"},{"name":"","type":"uint256","internalType":"uint256"}],"stateMutability":"view"},{"type":"function","name":"getUserIdToInst","inputs":[{"name":"_id","type":"uint256","internalType":"uint256"}],"outputs":[{"name":"","type":"address","internalType":"address"}],"stateMutability":"view"},{"type":"function","name":"getUserIdToStor","inputs":[{"name":"_id","type":"uint256","internalType":"uint256"}],"outputs":[{"name":"","type":"address","internalType":"address"}],"stateMutability":"view"},{"type":"function","name":"getUserToInst","inputs":[{"name":"node","type":"address","internalType":"address"}],"outputs":[{"name":"","type":"address","internalType":"address"}],"stateMutability":"view"},{"type":"function","name":"getUserToStor","inputs":[{"name":"_user","type":"address","internalType":"address"}],"outputs":[{"name":"","type":"address","internalType":"address"}],"stateMutability":"view"},{"type":"function","name":"getbusiness","inputs":[{"name":"ag","type":"uint256","internalType":"uint256"}],"outputs":[{"name":"","type":"uint256","internalType":"uint256"}],"stateMutability":"view"},{"type":"function","name":"getjoining","inputs":[{"name":"ag","type":"uint256","internalType":"uint256"}],"outputs":[{"name":"","type":"uint256","internalType":"uint256"}],"stateMutability":"view"},{"type":"function","name":"getrankCount","inputs":[{"name":"ag","type":"uint256","internalType":"uint256"},{"name":"rnk","type":"uint256","internalType":"uint256"}],"outputs":[{"name":"count","type":"uint256","internalType":"uint256"}],"stateMutability":"view"},{"type":"function","name":"getwithdrawn","inputs":[{"name":"ag","type":"uint256","internalType":"uint256"}],"outputs":[{"name":"","type":"uint256","internalType":"uint256"}],"stateMutability":"view"},{"type":"function","name":"importBusiness","inputs":[{"name":"_amt","type":"uint256","internalType":"uint256"},{"name":"_ag","type":"uint256","internalType":"uint256"}],"outputs":[],"stateMutability":"nonpayable"},{"type":"function","name":"importJoining","inputs":[{"name":"_cnt","type":"uint256","internalType":"uint256"},{"name":"_ag","type":"uint256","internalType":"uint256"}],"outputs":[],"stateMutability":"nonpayable"},{"type":"function","name":"importOld","inputs":[{"name":"_id","type":"uint256","internalType":"uint256"},{"name":"_limit","type":"uint256","internalType":"uint256"}],"outputs":[],"stateMutability":"payable"},{"type":"function","name":"importRankNBusiness","inputs":[{"name":"_ag","type":"uint256[]","internalType":"uint256[]"}],"outputs":[],"stateMutability":"nonpayable"},{"type":"function","name":"importWithdrawal","inputs":[{"name":"_amt","type":"uint256","internalType":"uint256"},{"name":"_ag","type":"uint256","internalType":"uint256"}],"outputs":[],"stateMutability":"nonpayable"},{"type":"function","name":"isNode","inputs":[{"name":"_id","type":"uint256","internalType":"uint256"}],"outputs":[{"name":"","type":"bool","internalType":"bool"}],"stateMutability":"view"},{"type":"function","name":"isUserExists","inputs":[{"name":"node","type":"address","internalType":"address"}],"outputs":[{"name":"","type":"bool","internalType":"bool"}],"stateMutability":"view"},{"type":"function","name":"join","inputs":[{"name":"_parent","type":"address","internalType":"address"},{"name":"_user","type":"address","internalType":"address"}],"outputs":[{"name":"_id","type":"uint256","internalType":"uint256"},{"name":"_stor","type":"address","internalType":"address"}],"stateMutability":"nonpayable"},{"type":"function","name":"joinImport","inputs":[{"name":"_parent","type":"address","internalType":"address"},{"name":"_user","type":"address","internalType":"address"}],"outputs":[{"name":"_id","type":"uint256","internalType":"uint256"},{"name":"_stor","type":"address","internalType":"address"}],"stateMutability":"nonpayable"},{"type":"function","name":"moveDownline","inputs":[{"name":"_id","type":"uint256","internalType":"uint256"},{"name":"parent","type":"address","internalType":"address"},{"name":"_op","type":"bool","internalType":"bool"}],"outputs":[],"stateMutability":"nonpayable"},{"type":"function","name":"nodes","inputs":[{"name":"","type":"uint256","internalType":"uint256"}],"outputs":[{"name":"","type":"address","internalType":"address"}],"stateMutability":"view"},{"type":"function","name":"owner","inputs":[],"outputs":[{"name":"","type":"address","internalType":"address"}],"stateMutability":"view"},{"type":"function","name":"setDefaultRankCount","inputs":[{"name":"_limit","type":"uint256","internalType":"uint256"}],"outputs":[],"stateMutability":"nonpayable"},{"type":"function","name":"systemAge","inputs":[],"outputs":[{"name":"","type":"uint256","internalType":"uint256"}],"stateMutability":"view"},{"type":"function","name":"updateUsers","inputs":[{"name":"from","type":"address","internalType":"address"},{"name":"to","type":"address","internalType":"address"}],"outputs":[{"name":"_id","type":"uint256","internalType":"uint256"},{"name":"_stor","type":"address","internalType":"address"},{"name":"_parent","type":"address","internalType":"address"}],"stateMutability":"nonpayable"},{"type":"event","name":"EthBurned","inputs":[{"name":"sender","type":"address","indexed":true,"internalType":"address"},{"name":"amount","type":"uint256","indexed":false,"internalType":"uint256"}],"anonymous":false},{"type":"event","name":"EthTransferred","inputs":[{"name":"to","type":"address","indexed":true,"internalType":"address"},{"name":"amount","type":"uint256","indexed":false,"internalType":"uint256"}],"anonymous":false},{"type":"event","name":"HexBaseUpdated","inputs":[{"name":"previousHexBase","type":"address","indexed":true,"internalType":"address"},{"name":"newHexBase","type":"address","indexed":true,"internalType":"address"}],"anonymous":false},{"type":"event","name":"OwnerUpdated","inputs":[{"name":"previousOwner","type":"address","indexed":true,"internalType":"address"},{"name":"newOwner","type":"address","indexed":true,"internalType":"address"}],"anonymous":false},{"type":"error","name":"FailedDeployment","inputs":[]},{"type":"error","name":"InsufficientBalance","inputs":[{"name":"balance","type":"uint256","internalType":"uint256"},{"name":"needed","type":"uint256","internalType":"uint256"}]},{"type":"error","name":"ReentrancyGuardReentrantCall","inputs":[]},{"type":"error","name":"TargetCallFailed","inputs":[{"name":"selector","type":"bytes4","internalType":"bytes4"}]}],"bytecode":{"object":"0x608034620000d157601f620049ab38819003918201601f19168301916001600160401b03831184841017620000d657808492602094604052833981010312620000d157516001600160a01b03811690819003620000d15780156200008c5760018060a01b031933816001541617600155600054161760005560016003556040516148be9081620000ed8239f35b60405162461bcd60e51b815260206004820152601360248201527f6f776e2e696e76616c69642e68657862617365000000000000000000000000006044820152606490fd5b600080fd5b634e487b7160e01b600052604160045260246000fdfe60806040526004361015610018575b361561001657005b005b60003560e01c8063033eeffb146103085780630e5fd00b1461030357806312065fe0146102fe5780631bb49f02146102f95780631c53c280146102f45780631f185d16146102ef5780632a687c87146102ea5780632fefc0bf146102e557806332ff4eab146102e05780633a7b55b8146102db5780633b9b7955146102d65780633baee0ea146102d1578063419cb27b146102cc57806342cc9d57146102c757806344585097146102c2578063477968f2146102bd5780634f0f4aa9146102b8578063509222cd146102b357806350db85d1146102ae57806361ea7208146102a9578063629d671e146102a45780636a8112441461029f5780636a9dd2741461029a57806376fe6c451461029557806380f85e3314610290578063849c22ad1461028b578063896c354a146102865780638da5cb5b1461028157806395f72f491461027c57806398b3f21514610277578063a1f7f53914610272578063a87af7691461026d578063a89d693b14610268578063af48452614610263578063b1c490791461025e578063b366335e14610259578063b90306ad14610254578063c54e44b01461024f578063c871372b1461024a578063d1e0bbc614610245578063dcb3fc4a14610240578063e01ad5fd1461023b578063e0a9bc2b14610236578063eb95c66214610231578063f3ca71241461022c578063fd38093b146102275763fdc10bc90361000e57612439565b6123c9565b61239d565b612371565b612356565b6122b7565b6120c7565b61208d565b612005565b611f6c565b611eb9565b611e06565b611ce0565b611cb9565b611b9a565b611aa5565b6119e4565b6119b8565b61190e565b6118e5565b6118a5565b611876565b61183c565b6117ed565b611766565b611163565b611126565b611108565b611045565b610ff2565b610f08565b610e5f565b610e28565b610df9565b610dbf565b610928565b6108d7565b61073e565b610659565b610622565b610573565b61044e565b61041a565b6103b5565b610399565b61034a565b3461033457602036600319011261033457600435600052600b6020526020604060002054604051908152f35b600080fd5b6001600160a01b0381160361033457565b3461033457602036600319011261033457602060043561036981610339565b60018060a01b03809116600052600482526040600020546000526007825260046040600020015416604051908152f35b3461033457600036600319011261033457602047604051908152f35b34610334576020366003190112610334576004356103d281610339565b6001600160a01b0390811660009081526004602090815260408083205483526007825280832060020154808452600583529281902054815193845290931690820152f35b0390f35b34610334576020366003190112610334576004356000526005602052602060018060a01b0360406000205416604051908152f35b34610334576020806003193601126103345760049081359061046f82610339565b600054819061048e906001600160a01b03165b6001600160a01b031690565b604051634bf9c0ad60e11b815294859182905afa91821561056e576104e561051f93610501926104169660009261053b575b506040516001600160a01b0390911685820190815290926104f3918491602090910190565b03601f19810184528361172c565b6104fb6143ee565b90614644565b919080610531575b6105129061441b565b8082518301019101614202565b60405190151581529081906020820190565b5081518114610509565b6104f391925061056090863d8811610567575b610558818361172c565b810190612665565b91906104c0565b503d61054e565b61267a565b346103345760403660031901126103345761059461058f614217565b612624565b61059d33614342565b80156105bb575b6105ad90612686565b610016602435600435613efb565b50600054604051630536340960e21b8152906001600160a01b03906020908390600490829085165afa90811561056e576105ad92600092610602575b5016331490506105a4565b61061b91925060203d811161056757610558818361172c565b90386105f7565b34610334576020366003190112610334576004356000526007602052602060018060a01b0360056040600020015416604051908152f35b346103345760403660031901126103345761067561058f614217565b61067e33614342565b801561069c575b61068e90612686565b610016602435600435613f4f565b50600054604051630536340960e21b8152906001600160a01b03906020908390600490829085165afa90811561056e5761068e926000926106e3575b501633149050610685565b6106fc91925060203d811161056757610558818361172c565b90386106d8565b6020908160408183019282815285518094520193019160005b82811061072a575050505090565b83518552938101939281019260010161071c565b34610334576020366003190112610334576104166004356108c06108b060405192610768846116bb565b6007845260e036602086013761079b61078b826000526009602052604060002090565b6001600052602052604060002090565b546107a585613dc8565b526107cd6107bd826000526009602052604060002090565b6002600052602052604060002090565b546107d785613dd5565b526107ff6107ef826000526009602052604060002090565b6003600052602052604060002090565b5461080985613de5565b52610831610821826000526009602052604060002090565b6004600052602052604060002090565b5461083b85613df5565b52610863610853826000526009602052604060002090565b6005600052602052604060002090565b5461086d85613e05565b52610895610885826000526009602052604060002090565b6006600052602052604060002090565b5461089f85613e15565b526000526009602052604060002090565b6007600052602052604060002090565b546108ca82613e25565b5260405191829182610703565b34610334576000366003190112610334576000546040516001600160a01b039091168152602090f35b60409060031901126103345760043561091881610339565b9060243561092581610339565b90565b346103345761098861093936610900565b610941612601565b61095a61094c61248b565b6109546124a3565b336146de565b916109a961097161096961248b565b6109546124c6565b6001600160a01b03838116969095861687146124ee565b60005485906109a19082166001600160a01b0316610482565b91161461253a565b8282166109b7811515612e99565b6001600160a01b038316600090815260046020526040902054158015610db6575b6109e190612edb565b6001600160a01b0382166000908152600460205260409020610a0590541515612f1e565b610a486005610a3a610a298560018060a01b03166000526004602052604060002090565b546000526007602052604060002090565b01546001600160a01b031690565b6040805163880cdc3160e01b6020808301919091526001600160a01b0387166024808401919091528252919791969192601f199291610a9191610a8c60448361172c565b6147cd565b50610ab96104826004610a3a610a298960018060a01b03166000526004602052604060002090565b15610c7d5750610bd595610b1791610a8c610aee6004610a3a610a298a60018060a01b03166000526004602052604060002090565b8a5162e6724f60e21b948101949094523360248501529183604481015b0390810184528361172c565b505b6001600160a01b0383811660009081526004602090815260408083205493881683528083208490559282526005905220610b6f9085905b80546001600160a01b0319166001600160a01b03909216919091179055565b610bb4336004610b94610a298860018060a01b03166000526004602052604060002090565b0180546001600160a01b0319166001600160a01b03909216919091179055565b03610c5f575b506001600160a01b0316600090815260046020526040902090565b54610416610bf26005610a3a846000526007602052604060002090565b92610c2e610c216002610c0f866000526007602052604060002090565b01546000526005602052604060002090565b546001600160a01b031690565b90610c396001600355565b519283526001600160a01b03938416602084015290921660408201529081906060820190565b6001600160a01b031660009081526004602052604081205538610bba565b60005460049791908290610c99906001600160a01b0316610482565b8a5163111ea8c160e21b8152998a9182905afa97881561056e57610bd598610cfc91600091610d99575b508a516001600160a01b038916858201908152909190610cee9083906020010387810184528361172c565b610cf6612f6a565b906146de565b908116151580610d8f575b610d14575b505050610b19565b8851634fb2e45d60e01b83820152336024820152610d8693610a8c91610d4e90610d4881604481010384810183528261172c565b846147cd565b508a5193630a3e884b60e41b9085015283610b0b60248201906007606060808401936000815260006020820152600060408201520152565b50388080610d0c565b5080311515610d07565b610db09150843d861161056757610558818361172c565b38610cc3565b508481146109d8565b34610334576020366003190112610334576020610def600435600052600760205260ff6001604060002001541690565b6040519015158152f35b346103345760203660031901126103345760043560005260076020526020600360406000200154604051908152f35b34610334576020366003190112610334576004356000526007602052602060018060a01b0360046040600020015416604051908152f35b3461033457600080600319360112610f0557610e7c61058f614217565b610e8533614342565b8015610ea0575b610e9590612686565b610e9d613c49565b80f35b508054604051630536340960e21b8152906001600160a01b03906020908390600490829085165afa90811561056e57610e95928492610ee5575b501633149050610e8c565b610efe91925060203d811161056757610558818361172c565b9038610eda565b80fd5b3461033457602036600319011261033457600435806000526007602052604060002054600560205261041660018060a01b0380604060002054169360076020526040600020916004600284015493015416610f726005610a3a846000526007602052604060002090565b906003610faa610f996001610f91876000526007602052604060002090565b015460ff1690565b946000526007602052604060002090565b0154604080519788526001600160a01b03988916602089015287019490945286166060860152909416608084015292151560a083015260c082019290925290819060e0820190565b346103345760203660031901126103345760043561100f81610339565b60018060a01b031660005260046020526040600020546000526007602052602060ff600160406000200154166040519015158152f35b346103345761105336610900565b61105e61058f614217565b61106733614342565b801561109b575b9161107b61108093612686565b6126d2565b604080519283526001600160a01b0391909116602083015290f35b50600054604051630536340960e21b81526001600160a01b0393916020908290600490829088165afa801561056e576110809461107b926000926110e8575b50339116149193505061106e565b61110191925060203d811161056757610558818361172c565b90386110da565b34610334576000366003190112610334576020600654604051908152f35b346103345760203660031901126103345760043561114381610339565b60018060a01b031660005260046020526020604060002054604051908152f35b34610334576040806003193601126103345760043590611181612601565b611195826000526007602052604060002090565b6001015460ff166111a590612df5565b6111b9826000526007602052604060002090565b600401546001600160a01b03166001600160a01b031633146111da90612f99565b6111e2614460565b6002556111f9826000526007602052604060002090565b60050154600254825163015042f960e11b602082015260248035908201526044808201929092529081526001600160a01b039091169061123a60648261172c565b611243916147cd565b8051810160200190602001906112589161367e565b9590949796858385878c61126f87879b999b6125f4565b90611279916125f4565b90611283916125f4565b9061128d916125f4565b90611297916125f4565b906112a1916125f4565b6112aa90613ea1565b806115e8575b508061154c575b50806114b0575b508061143a575b508061139e575b50806112f9575b506112e190610416946136e4565b6112eb6001600355565b519081529081906020820190565b90600494602061131361048260005460018060a01b031690565b85516313b92d3560e31b815297889182905afa92831561056e576104e56112e1946113709261041699600092611379575b50875163a9059cbb60e01b6020820152336024820152604481019190915291610a8c9083906064820190565b509450906112d3565b610a8c9192506113979060203d60201161056757610558818361172c565b9190611344565b6000546004906020906113b9906001600160a01b0316610482565b86516324768d9160e01b815292839182905afa801561056e5761140e926104e592600092611415575b50865163a9059cbb60e01b6020820152336024820152604481019190915291610a8c9083906064820190565b50386112cc565b610a8c9192506114339060203d60201161056757610558818361172c565b91906113e2565b600054600490602090611455906001600160a01b0316610482565b87516324768d9160e01b815292839182905afa801561056e576114a9926104e5926000926113795750875163a9059cbb60e01b6020820152336024820152604481019190915291610a8c9083906064820190565b50386112c5565b6000546004906020906114cb906001600160a01b0316610482565b8851635506ee0b60e11b815292839182905afa801561056e57611520926104e592600092611527575b50885163a9059cbb60e01b6020820152336024820152604481019190915291610a8c9083906064820190565b50386112be565b610a8c9192506115459060203d60201161056757610558818361172c565b91906114f4565b600054600490602090611567906001600160a01b0316610482565b89516330125cf560e01b815292839182905afa801561056e576115bc926104e5926000926115c3575b50895163a9059cbb60e01b6020820152336024820152604481019190915291610a8c9083906064820190565b50386112b7565b610a8c9192506115e19060203d60201161056757610558818361172c565b9190611590565b600054600490602090611603906001600160a01b0316610482565b8a51636402742760e01b815292839182905afa801561056e57611658926104e59260009261165f575b508a5163a9059cbb60e01b6020820152336024820152604481019190915291610a8c9083906064820190565b50386112b0565b610a8c91925061167d9060203d60201161056757610558818361172c565b919061162c565b634e487b7160e01b600052604160045260246000fd5b6060810190811067ffffffffffffffff8211176116b657604052565b611684565b610100810190811067ffffffffffffffff8211176116b657604052565b6040810190811067ffffffffffffffff8211176116b657604052565b6020810190811067ffffffffffffffff8211176116b657604052565b60e0810190811067ffffffffffffffff8211176116b657604052565b90601f8019910116810190811067ffffffffffffffff8211176116b657604052565b67ffffffffffffffff81116116b65760051b60200190565b34610334576020806003193601126103345760043567ffffffffffffffff81116103345736602382011215610334578060040135906117a48261174e565b916117b2604051938461172c565b80835260248484019160051b8301019136831161033457602401905b8282106117de5761001684613f79565b813581529084019084016117ce565b3461033457602036600319011261033457602060043561180c81610339565b60018060a01b03809116600052600482526040600020546000526007825260056040600020015416604051908152f35b3461033457604036600319011261033457600435600052600860205260406000206024356000526020526020604060002054604051908152f35b346103345760203660031901126103345760043560005260076020526020600260406000200154604051908152f35b3461033457604036600319011261033457600435600052600760205260206118d66024356003604060002001612cce565b90549060031b1c604051908152f35b34610334576000366003190112610334576001546040516001600160a01b039091168152602090f35b346103345760403660031901126103345761192a61058f614217565b61193333614342565b8015611951575b61194390612686565b610016602435600435613f25565b50600054604051630536340960e21b8152906001600160a01b03906020908390600490829085165afa90811561056e5761194392600092611998575b50163314905061193a565b6119b191925060203d811161056757610558818361172c565b903861198d565b3461033457602036600319011261033457600435600052600f6020526020604060002054604051908152f35b346103345760003660031901126103345760005460405163d1f956b160e01b815290602090829060049082906001600160a01b03165afa90811561056e5761041691611a6d91600091611a7d575b50604051611a3f816116d8565b601381527267657464656c656761746f72436f756e74282960681b6020820152611a67612478565b9161475e565b6040519081529081906020820190565b611a95915060203d811161056757610558818361172c565b38611a32565b8015150361033457565b3461033457606036600319011261033457602435611ac281610339565b604435611ace81611a9b565b611ad961058f614217565b611ae233614342565b8015611afe575b91611af661001693612686565b60043561311f565b50600054604051630536340960e21b81526001600160a01b0393916020908290600490829088165afa801561056e5761001694611af692600092611b4b575b503391161491935050611ae9565b611b6491925060203d811161056757610558818361172c565b9038611b3d565b610100810192916000915b60088310611b8357505050565b600190825181526020809101920192019190611b76565b3461033457602036600319011261033457610416600435611ca76108b0611bbf613db3565b92611be6611bd7826000526008602052604060002090565b60008052602052604060002090565b548452611c0061078b826000526008602052604060002090565b546020850152611c1d6107bd826000526008602052604060002090565b546040850152611c3a6107ef826000526008602052604060002090565b546060850152611c57610821826000526008602052604060002090565b546080850152611c74610853826000526008602052604060002090565b5460a0850152611c91610885826000526008602052604060002090565b5460c08501526000526008602052604060002090565b5460e082015260405191829182611b6b565b34610334576020366003190112610334576020610def600435611cdb81610339565b614342565b3461033457611d92611cf136610900565b90611cfa612601565b611d43611d0861094c61248b565b611d1361096961248b565b906001600160a01b0390611d2c908216868316146124ee565b6000546109a19082166001600160a01b0316610482565b611d6f611d6a6001610f91610a298560018060a01b03166000526004602052604060002090565b61257f565b611d7f611d7a614460565b600255565b611d8b600280546128e8565b3390612aea565b611dab611bd76002546000526008602052604060002090565b611db581546125e1565b9055611dbf613ecd565b611dd86005610a3a836000526007602052604060002090565b90611de281612e39565b611dec6001600355565b604080519182526001600160a01b03929092166020820152f35b3461033457602036600319011261033457611e2261058f614217565b611e2b33614342565b8015611e46575b611e3b90612686565b6100166004356128c6565b50600054600490602090611e62906001600160a01b0316610482565b604051630536340960e21b815292839182905afa801561056e57611e3b91600091611e9b575b506001600160a01b031633149050611e32565b611eb3915060203d811161056757610558818361172c565b38611e88565b3461033457602036600319011261033457600054604051630536340960e21b8152906001600160a01b03906020908390600490829085165afa91821561056e57600092611f4c575b5033911603611f1557610016600435614548565b60405162461bcd60e51b815260206004820152600f60248201526e6f776e2e6e6f6e617574682e44414f60881b6044820152606490fd5b611f6591925060203d811161056757610558818361172c565b9038611f01565b3461033457602036600319011261033457600435611f8981610339565b803b6000611f968261245c565b92611fa4604051948561172c565b82845260208401903c602d815110611fca57602a015160405160609190911c8152602090f35b60405162461bcd60e51b81526020600482015260136024820152724e6f742061206d696e696d616c2070726f787960681b6044820152606490fd5b60403660031901126103345760043561201c612601565b612024614460565b600255600090808252600760205261204560ff600160408520015416612df5565b8152600760205261208460018060a01b036005604084200154166040519062a0e53360e51b6020830152602435602483015260248252610a8c8261169a565b50600160035580f35b3461033457604036600319011261033457600435600052600a60205260406000206024356000526020526020604060002054604051908152f35b346103345760c0366003190112610334576024356004356120e782610339565b60643590608435906120f7612601565b6121186121136001610f91846000526007602052604060002090565b612df5565b61213e6121376104826004610a3a856000526007602052604060002090565b3314612f99565b612149611d7a614460565b612155600280546128e8565b61215e82613e49565b61216783613e75565b6121fa6121ec6121d86121896005610a3a866000526007602052604060002090565b604051634996516b60e11b6020808301919091526001600160a01b039099166024820152604480359082015260648101889052608481019690965260a4803590870152969490819060c4820190565b0396610a8c601f199889810184528361172c565b838082518301019101612fe5565b9281612217575b505061220d93506138fb565b6100166001600355565b60005460049291908190612233906001600160a01b0316610482565b604051635e09dbe760e01b815294859182905afa801561056e5761220d9761228e94600092612296575b5060405163a9059cbb60e01b9381019390935233602484015260448301939093529091610a8c908360648101610b0b565b503880612201565b610a8c92506122b190843d861161056757610558818361172c565b9161225d565b346103345760208060031936011261033457600480356122d681610339565b60005460405163d1f956b160e01b81526001600160a01b03949093909182918591829088165afa90811561056e576104169461051f94600093612337575b506040519316818401528252612329826116d8565b6123316144eb565b90614722565b61234f919350823d841161056757610558818361172c565b9138612314565b34610334576000366003190112610334576020610def614217565b3461033457602036600319011261033457600435600052600c6020526020604060002054604051908152f35b3461033457602036600319011261033457600435600052600e6020526020604060002054604051908152f35b3461033457604080600319360112610334576004356123e781610339565b6001600160a01b0316600081815260046020818152848320548352600b815284832054938352908152838220548252600a81528382206024358352815290839020549251918252810191909152604090f35b34610334576000366003190112610334576020612454614460565b604051908152f35b67ffffffffffffffff81116116b657601f01601f191660200190565b60405190612485826116f4565b60008252565b604051612497816116f4565b60008152906000368137565b604051906124b0826116d8565b60078252666f776e6572282960c81b6020830152565b604051906124d3826116d8565b600c82526b67657448657862617365282960a01b6020830152565b156124f557565b60405162461bcd60e51b815260206004820152601760248201527f6e65737465642e696e76616c69642e696e7374616e63650000000000000000006044820152606490fd5b1561254157565b60405162461bcd60e51b81526020600482015260166024820152756e65737465642e696e76616c69642e6865786261736560501b6044820152606490fd5b1561258657565b60405162461bcd60e51b815260206004820152601860248201527f6e65737465642e706172656e742e6e6f742e65786973747300000000000000006044820152606490fd5b634e487b7160e01b600052601160045260246000fd5b90600182018092116125ef57565b6125cb565b919082018092116125ef57565b600260035414612612576002600355565b604051633ee5aeb560e01b8152600490fd5b1561262b57565b60405162461bcd60e51b81526020600482015260126024820152716f776e2e696e76616c69642e69735361666560701b6044820152606490fd5b90816020910312610334575161092581610339565b6040513d6000823e3d90fd5b1561268d57565b60405162461bcd60e51b815260206004820152601b60248201527f6f776e2e6e6f6e617574682e44414f6f725365637572656261736500000000006044820152606490fd5b61277f92916127856004926126e5612601565b61271861271361270f6001610f91610a298860018060a01b03166000526004602052604060002090565b1590565b612a97565b61272b612726600654612adb565b600655565b60065495869161274985610b50856000526005602052604060002090565b6001600160a01b038516600090815260046020526040902083905b556001600160a01b0316600090815260046020526040902090565b54612d2c565b6127ae8261279d866000526007602052604060002090565b0180546001600160a01b0319169055565b6000546020906127c6906001600160a01b0316610482565b60405163e09d394d60e01b815293849182905afa801561056e576127f961280f91612879946000916128a8575b50612c50565b6005610b94876000526007602052604060002090565b6128286005610a3a866000526007602052604060002090565b600054610a8c90612841906001600160a01b0316610482565b6040516352902c5960e01b60208201526001600160a01b039182166024820152931660448401526064830186905282608481016104e5565b506000828152600760205260409020600501546001600160a01b03169161289f81612e39565b91906001600355565b6128c0915060203d811161056757610558818361172c565b386127f3565b6128d7906128d2614460565b6128e8565b565b6000198101919082116125ef57565b90612900611bd7836000526008602052604060002090565b541580612a8d575b80612a84575b612916575050565b6129329061292c612926846128d9565b916128d9565b906128e8565b612951611bd7612941836128d9565b6000526008602052604060002090565b54612969611bd7836000526008602052604060002090565b5561297961078b612941836128d9565b5461299161078b836000526008602052604060002090565b556129a16107bd612941836128d9565b546129b96107bd836000526008602052604060002090565b556129c96107ef612941836128d9565b546129e16107ef836000526008602052604060002090565b556129f1610821612941836128d9565b54612a09610821836000526008602052604060002090565b55612a19610853612941836128d9565b54612a31610853836000526008602052604060002090565b55612a41610885612941836128d9565b54612a59610885836000526008602052604060002090565b55612a816108b0612a6f6108b0612941856128d9565b54926000526008602052604060002090565b55565b5080151561290e565b5060018211612908565b15612a9e57565b60405162461bcd60e51b81526020600482015260156024820152746e65737465642e616c72656164792e65786973747360581b6044820152606490fd5b60001981146125ef5760010190565b91612b82600492612b6d61277f95612b2261271361270f6001610f91610a298a60018060a01b03166000526004602052604060002090565b612b30612726600654612adb565b600654968791612b4e87610b50856000526005602052604060002090565b6001600160a01b03871660009081526004602052604090208390612764565b83610b94866000526007602052604060002090565b600054602090612b9a906001600160a01b0316610482565b60405163e09d394d60e01b815293849182905afa801561056e57612bcc612be291612c4c946000916128a85750612c50565b6005610b94866000526007602052604060002090565b612bfb6005610a3a856000526007602052604060002090565b600054610a8c90612c14906001600160a01b0316610482565b6040516352902c5960e01b60208201526001600160a01b039182166024820152931660448401526064830185905282608481016104e5565b5090565b6e5af43d82803e903d91602b57fd5bf390763d602d80600a3d3981f3363d3d373d3d3d363d7300000062ffffff8260881c161760005260781b17602052603760096000f0906001600160a01b03821615612ca657565b60405163b06ebf3d60e01b8152600490fd5b634e487b7160e01b600052603260045260246000fd5b8054821015612ce65760005260206000200190600090565b612cb8565b90815491680100000000000000008310156116b65782612d139160016128d795018155612cce565b90919082549060031b91821b91600019901b1916179055565b91906000818152602093600785526040808320926002948386860155806001958681018760ff19825416179055558385905b612d6d57505050505050509050565b612dc7612db682888a9414612dd0575b878652600a8c528686208187528c52868620612d9981546125e1565b9055878652600b8c52868620612daf81546125e1565b9055612adb565b956000526007602052604060002090565b01549384612d5e565b612df0856003612dea8b6000526007602052604060002090565b01612ceb565b612d7d565b15612dfc57565b60405162461bcd60e51b81526020600482015260156024820152746e65737465642e757365722e6e6f7461637469766560581b6044820152606490fd5b806000526007602052612e5660ff60016040600020015416612df5565b6000526007602052612e9660018060a01b03600560406000200154166040519062a0e53360e51b60208301526001602483015260248252610a8c8261169a565b50565b15612ea057565b60405162461bcd60e51b81526020600482015260136024820152726e65737465642e7a65726f2e6164647265737360681b6044820152606490fd5b15612ee257565b60405162461bcd60e51b81526020600482015260146024820152736e65737465642e7461726765742e65786973747360601b6044820152606490fd5b15612f2557565b60405162461bcd60e51b815260206004820152601760248201527f6e65737465642e736f757263652e6e6f744578697374730000000000000000006044820152606490fd5b60405190612f77826116d8565b601382527255736572546f496e737428616464726573732960681b6020830152565b15612fa057565b60405162461bcd60e51b815260206004820152601b60248201527f6e65737465642e757365722e696e76616c6964696e7374616e636500000000006044820152606490fd5b9190826040910312610334576020825192015190565b1561300257565b60405162461bcd60e51b815260206004820152601860248201527f6e65737465642e757365722e6e6f742e646574616368656400000000000000006044820152606490fd5b1561304e57565b60405162461bcd60e51b815260206004820152601760248201527f6e65737465642e706172656e742e6e6f746163746976650000000000000000006044820152606490fd5b1561309a57565b60405162461bcd60e51b815260206004820152601b60248201527f6e65737465642e757365722e616c726564792e646574616368656400000000006044820152606490fd5b805490811561310957600019918201916130f98383612cce565b909182549160031b1b1916905555565b634e487b7160e01b600052603160045260246000fd5b91909160019261314061211385610f91856000526007602052604060002090565b61314b611d7a614460565b826132be57506002926131758461316c846000526007602052604060002090565b01541515613093565b6000815b6131a1575b505060006128d79361319a836000526007602052604060002090565b01556133ef565b6003806131ce876131bc876000526007602052604060002090565b01546000526007602052604060002090565b01548210156132b857836132086131fe84846131f88b6131bc876000526007602052604060002090565b01612cce565b90549060031b1c90565b1461321d575061321790612adb565b81613179565b60009250806132948793612d1361327a6131fe896132748761326d6128d79f6131bc6132b29c61325b836131bc896000526007602052604060002090565b01956000526007602052604060002090565b01546128d9565b90612cce565b91846131f8886131bc8c6000526007602052604060002090565b6132ac836131bc876000526007602052604060002090565b016130df565b9361317e565b5061317e565b6128d7935061333f906132e860026132e0856000526007602052604060002090565b015415612ffb565b6001600160a01b0381166000908152600460205260409020613325906133209054600052600760205260ff6001604060002001541690565b613047565b6001600160a01b0316600090815260046020526040902090565b546002613356836000526007602052604060002090565b0155613377816003612dea60026131bc846000526007602052604060002090565b6133ef565b60405190613389826116d8565b600e82526d6c766c62732875696e743235362960901b6020830152565b604051906133b3826116d8565b600f82526e6c766c7174792875696e743235362960881b6020830152565b60ff1660ff81146125ef5760010190565b80156125ef576000190190565b6134ac60059161340d83610a3a836000526007602052604060002090565b9060409081519161344e6020938061342c868201906000602083019252565b0395613440601f199788810184528361172c565b61344861337c565b9061475e565b9361349661346a88610a3a866000526007602052604060002090565b83519061348e82613482898201906000602083019252565b0385810184528361172c565b6134486133a6565b9260029687916000526007602052604060002090565b0154946001978896875b6134c8575b5050505050505050505050565b600f60ff8916111580613675575b15613670578886888d888c6134fc61048289610a3a8a6000526007602052604060002090565b61352c575b505050505061351d613525926000526007602052604060002090565b0154976133d1565b96896134b6565b926135976135b19693610a8c936135a397966135568c610a3a8d6000526007602052604060002090565b96549151978895637b058ac160e01b908701528d60248701939095949160809360ff9160a08701988752602087015216604085015260608401521515910152565b0389810184528361172c565b888082518301019101612fe5565b908c1561362157908a915b8082116135da57505061351d613525925b92505086888d888c613501565b6135e5919250612adb565b61360d816135fe8d546000526008602052604060002090565b90600052602052604060002090565b61361781546125e1565b9055908a916135bc565b908a915b81811161363a57505061351d613525926135cd565b613657816135fe6136689495546000526008602052604060002090565b61366181546128d9565b90556133e2565b908a91613625565b6134bb565b508015156134d6565b9190826101009103126103345781519160208101519160408201519160608101519160808201519160a08101519160e060c083015192015190565b604051906136c6826116d8565b600f82526e66726565496e74657276616c73282960881b6020830152565b600080549293926136fd906001600160a01b0316610482565b90604091825180809263cfbffe5360e01b8252602092839160049586915afa801561056e5761373f9185916138de575b5061373661248b565b906134486136b9565b839784965b600f881115806138d5575b156138c957898883898760059461377761048287610a3a8a6000526007602052604060002090565b6137a9575b505050505050600261379b6137a3926000526007602052604060002090565b015497612adb565b96613744565b888515968715806138c0575b80156138b9575b6137c8575b505061377c565b926104e561383e9593610a8c936137f161384c9997610a3a8e6000526007602052604060002090565b9560029a8b549151988996630fe4bc4560e11b9088015260248701919260c093969594919660e0840197600085526000602086015260408501526060840152608083015260a08201520152565b878082518301019101612fe5565b926138b0575b8c156138a0575b80831161386d57508389878e888e956137c1565b61387690612adb565b61388f816135fe84546000526008602052604060002090565b61389981546125e1565b9055613859565b878310613859579b50819b613859565b9b50819b613852565b508d6137bc565b508515156137b5565b50505050505050509050565b5080151561374f565b6138f59150833d851161056757610558818361172c565b3861372d565b6000549193929091613915906001600160a01b0316610482565b906004602060409384519283809263cfbffe5360e01b82525afa801561056e5761394991600091613ae4575061373661248b565b6000956000945b600f86111580613adb575b15613ad157858486848b87600561398361048282610a3a8b6000526007602052604060002090565b6139b6575b5050505050505060026139a86139b0926000526007602052604060002090565b015495612adb565b94613950565b86151580613ac9575b8015613ac0575b1561398857926104e5613a3f9593610a8c936139f4613a4e9997610a3a8d6000526007602052604060002090565b9560029a8b549151988996630fe4bc4560e11b6020890152602488019260c094919796959260e085019885526020850152600060408501526060840152608083015260a08201520152565b60208082518301019101612fe5565b91908815613ab7575b8a15613aa6575b808311613a735750508486848b878b95613988565b613a7c90612adb565b613a95816135fe84546000526008602052604060002090565b613a9f81546125e1565b9055613a5e565b60048310613a5e5799508199613a5e565b99508199613a57565b508315156139c6565b5060006139bf565b5050505050509050565b5080151561395b565b6138f5915060203d60201161056757610558818361172c565b15613b0457565b60405162461bcd60e51b81526020600482015260126024820152716e65737465642e696e76616c69642e61676560701b6044820152606490fd5b60405190613b4b826116d8565b601882527f6765744261746368526f79616c7479436c6175736573282900000000000000006020830152565b6102a09081818403126103345782601f82011215610334576040805193613b9d85611710565b849383019281841161033457935b838510613bba57505050505090565b606085830312610334578251606091613bd28261169a565b8651825260209182880151838201528588015186820152815201940193613bab565b906007811015612ce65760051b0190565b90816064029160648304036125ef57565b818102929181159184041417156125ef57565b8115613c33570490565b634e487b7160e01b600052601260045260246000fd5b613c54611d7a614460565b613c6a600254613c65811515613afd565b6128d9565b600054613c7f906001600160a01b0316610482565b90604051809263cfbffe5360e01b825281600460209586935afa90811561056e57613cd591613cc791600091613d96575b50613cb9613b3e565b613cc1612478565b91614619565b838082518301019101613b77565b613ce982600052600c602052604060002090565b5460015b6007811115613cfd575050505050565b80613d19613d82926135fe876000526008602052604060002090565b548015613d9057613d32613d2c836128d9565b86613bf4565b51878151928315613d8757613d59613d5e92613d51613d64968a613c16565b940151613c05565b613c16565b90613c29565b613d7c826135fe886000526009602052604060002090565b55612adb565b613ced565b50505050612adb565b50612adb565b613dad9150853d871161056757610558818361172c565b38613cb0565b60405190613dc0826116bb565b610100368337565b805115612ce65760200190565b805160011015612ce65760400190565b805160021015612ce65760600190565b805160031015612ce65760800190565b805160041015612ce65760a00190565b805160051015612ce65760c00190565b805160061015612ce65760e00190565b8051821015612ce65760209160051b010190565b60025480600052600c6020526040600020549182018092116125ef57600052600c602052604060002055565b60025480600052600d6020526040600020549182018092116125ef57600052600d602052604060002055565b60025480600052600e6020526040600020549182018092116125ef57600052600e602052604060002055565b60025480600052600f60205260406000205490600182018092116125ef57600052600f602052604060002055565b9080600052600c6020526040600020549182018092116125ef57600052600c602052604060002055565b9080600052600e6020526040600020549182018092116125ef57600052600e602052604060002055565b9080600052600f6020526040600020549182018092116125ef57600052600f602052604060002055565b613f8461058f614217565b613f8d33614342565b80156140e6575b613f9d90612686565b60008054909190613fb6906001600160a01b0316610482565b604092835192839263111ea8c160e21b845283600460209687935afa92831561056e5782936140c7575b50815b81518110156140bf57613ff68183613e35565b518651868101828152819003808252601f19916140289161401a906020018261172c565b61402261414d565b8861475e565b61404761403f84600052600c602052604060002090565b9182546125f4565b9055845b87896008831061406857505050505061406390612adb565b613fe3565b51908101848152602081018390526140ba92916140a2916140949082906040010386810183528261172c565b61409c61417d565b8a61475e565b613d7c826135fe876000526008602052604060002090565b61404b565b505050505050565b6140df919350843d861161056757610558818361172c565b9138613fe0565b50600054604051630536340960e21b8152906001600160a01b03906020908390600490829085165afa90811561056e57613f9d9260009261412d575b501633149050613f94565b61414691925060203d811161056757610558818361172c565b9038614122565b6040519061415a826116d8565b6014825273676574627573696e6573732875696e743235362960601b6020830152565b6040519061418a826116d8565b601d82527f67657472616e6b436f756e742875696e743235362c75696e74323536290000006020830152565b156141bd57565b60405162461bcd60e51b815260206004820152601960248201527f6f776e2e7361666567756172642e63616c6c2e6661696c6564000000000000006044820152606490fd5b90816020910312610334575161092581611a9b565b600054604051634bf9c0ad60e11b8152906020908190839060049082906001600160a01b03165afa91821561056e576109259261428d916000916142a8575b50604051614263816116d8565b6008815267697353616665282960c01b8482015260405191614284836116f4565b60008352614644565b91908061429e575b610512906141b6565b5081518114614295565b6142bf9150833d851161056757610558818361172c565b38614256565b604051906142d2826116d8565b601582527469735365637572654261736528616464726573732960581b6020830152565b156142fd57565b60405162461bcd60e51b815260206004820152601a60248201527f6f776e2e736563757265626173652e63616c6c2e6661696c65640000000000006044820152606490fd5b6000546001600160a01b0316604051918291634bf9c0ad60e11b835282600460209485935afa92831561056e57610925936143b0926104e5926000926143cb575b506040516001600160a01b0390911685820190815290926143a8918491602090910190565b6104fb6142c5565b9190806143c1575b610512906142f6565b50815181146143b8565b6143a89192506143e790863d881161056757610558818361172c565b9190614383565b604051906143fb826116d8565b601182527069735369676e657228616464726573732960781b6020830152565b1561442257565b60405162461bcd60e51b81526020600482015260166024820152751bdddb8b9cda59db995c8b98d85b1b0b99985a5b195960521b6044820152606490fd5b60005460405163111ea8c160e21b815290602090829060049082906001600160a01b03165afa801561056e57610925916000916144cd575b506040516144a5816116d8565b6005815264616765282960d81b6020820152604051916144c4836116f4565b6000835261475e565b6144e5915060203d811161056757610558818361172c565b38614498565b604051906144f8826116d8565b6011825270697364656c656761746f724e6f6465282960781b6020830152565b3d15614543573d906145298261245c565b91614537604051938461172c565b82523d6000602084013e565b606090565b600080546040516311be646b60e21b815290602090829060049082906001600160a01b03165afa90811561056e5782848193829383916145fb575b505af161458e614518565b50156145c45760405190815233907fcdcc745fe377b103b45fa0cec23ae3ef93d6fc6a84a01f0d18c40b354dd1d5d890602090a2565b60405162461bcd60e51b815260206004820152600f60248201526e1bdddb8b989d5c9b8b99985a5b1959608a1b6044820152606490fd5b614613915060203d811161056757610558818361172c565b38614583565b906146249291614644565b9060009015614631575090565b604051915061463f826116f4565b815290565b9190823b156146c5578051906020918263ffffffff60e01b92012016916040519180830193845281519160005b8381106146b157505050918161469e6024826000979596889701878382015203600481018452018261172c565b5191620dbba0fa6146ad614518565b9091565b818101830151858201602401528201614671565b5050506000906040516146d7816116f4565b6000815290565b92916146ec91600094614644565b9080614717575b6146fa5750565b909150602081805181010312610334576020015161048281610339565b5060208151146146f3565b929161473091600094614644565b9080614753575b61473e5750565b61092591925060208082518301019101614202565b506020815114614737565b929161476c91600094614644565b9080614791575b61477a5750565b909150602081805181010312610334576020015190565b506020815114614773565b906020825192015163ffffffff60e01b9081811693600481106147be57505050565b60040360031b82901b16169150565b6001600160a01b0381161561484e57600080918351908260208601915af1906147f4614518565b91156147fe575090565b80516000919060041161484857614815915061479c565b8151156148255750805190602001fd5b604051630870274d60e21b81526001600160e01b03199091166004820152602490fd5b50614815565b60405162461bcd60e51b81526020600482015260126024820152711bdddb8b9a5b9d985b1a590b9d185c99d95d60721b6044820152606490fdfea2646970667358221220f215d14fe4c7bb58ac92eed470c16a69ba7d50a598b61e4546ff22f12a6d185f64736f6c63430008140033","linkReferences":{}},"methodIdentifiers":{"Burn(uint256)":"b90306ad","UserToId(address)":"629d671e","_delegatorCount()":"a1f7f539","_getImplementation(address)":"c54e44b0","_isDelegatorNode(address)":"e01ad5fd","_isSafe()":"e0a9bc2b","_isSecureBase(address)":"af484526","_isSigner(address)":"1f185d16","addBusiness(uint256,address,uint256,uint256,uint256,uint256)":"dcb3fc4a","claimIncome(uint256,uint256)":"6a811244","compileRoyality()":"477968f2","getBalance()":"12065fe0","getBatchRankCounts(uint256)":"a89d693b","getDownlineCountByLevel(uint256,uint256)":"d1e0bbc6","getHexbase()":"3b9b7955","getNode(uint256)":"4f0f4aa9","getNodeChild(uint256,uint256)":"896c354a","getNodeDirectsCount(uint256)":"42cc9d57","getNodeParent(address)":"1bb49f02","getNodeParentId(uint256)":"849c22ad","getNodesCount()":"61ea7208","getRoyalityAmountBatch(uint256)":"3a7b55b8","getTeamSize(uint256)":"033eeffb","getTotalTeamSizeWithLevel(address,uint256)":"fd38093b","getUserIdToInst(uint256)":"44585097","getUserIdToStor(uint256)":"2fefc0bf","getUserToInst(address)":"0e5fd00b","getUserToStor(address)":"76fe6c45","getbusiness(uint256)":"eb95c662","getjoining(uint256)":"98b3f215","getrankCount(uint256,uint256)":"80f85e33","getwithdrawn(uint256)":"f3ca7124","importBusiness(uint256,uint256)":"2a687c87","importJoining(uint256,uint256)":"32ff4eab","importOld(uint256,uint256)":"c871372b","importRankNBusiness(uint256[])":"6a9dd274","importWithdrawal(uint256,uint256)":"95f72f49","isNode(uint256)":"419cb27b","isUserExists(address)":"509222cd","join(address,address)":"b1c49079","joinImport(address,address)":"50db85d1","moveDownline(uint256,address,bool)":"a87af769","nodes(uint256)":"1c53c280","owner()":"8da5cb5b","setDefaultRankCount(uint256)":"b366335e","systemAge()":"fdc10bc9","updateUsers(address,address)":"3baee0ea"},"id":55}