{"abi":[{"type":"constructor","inputs":[{"name":"_hex","type":"address","internalType":"address"}],"stateMutability":"nonpayable"},{"type":"fallback","stateMutability":"payable"},{"type":"receive","stateMutability":"payable"},{"type":"function","name":"Burn","inputs":[{"name":"amount","type":"uint256","internalType":"uint256"}],"outputs":[],"stateMutability":"nonpayable"},{"type":"function","name":"UserToId","inputs":[{"name":"","type":"address","internalType":"address"}],"outputs":[{"name":"","type":"uint256","internalType":"uint256"}],"stateMutability":"view"},{"type":"function","name":"_delegatorCount","inputs":[],"outputs":[{"name":"","type":"uint256","internalType":"uint256"}],"stateMutability":"view"},{"type":"function","name":"_getImplementation","inputs":[{"name":"clone","type":"address","internalType":"address"}],"outputs":[{"name":"impl","type":"address","internalType":"address"}],"stateMutability":"view"},{"type":"function","name":"_isDelegatorNode","inputs":[{"name":"sender","type":"address","internalType":"address"}],"outputs":[{"name":"","type":"bool","internalType":"bool"}],"stateMutability":"view"},{"type":"function","name":"_isSafe","inputs":[],"outputs":[{"name":"","type":"bool","internalType":"bool"}],"stateMutability":"view"},{"type":"function","name":"_isSecureBase","inputs":[{"name":"sender","type":"address","internalType":"address"}],"outputs":[{"name":"","type":"bool","internalType":"bool"}],"stateMutability":"view"},{"type":"function","name":"_isSigner","inputs":[{"name":"sender","type":"address","internalType":"address"}],"outputs":[{"name":"","type":"bool","internalType":"bool"}],"stateMutability":"view"},{"type":"function","name":"addBusiness","inputs":[{"name":"_id","type":"uint256","internalType":"uint256"},{"name":"_paramAdd","type":"address","internalType":"address"},{"name":"_tokenid","type":"uint256","internalType":"uint256"},{"name":"_qty","type":"uint256","internalType":"uint256"},{"name":"_msgValue","type":"uint256","internalType":"uint256"},{"name":"_type","type":"uint256","internalType":"uint256"}],"outputs":[],"stateMutability":"nonpayable"},{"type":"function","name":"claimIncome","inputs":[{"name":"_id","type":"uint256","internalType":"uint256"},{"name":"_maxint","type":"uint256","internalType":"uint256"}],"outputs":[{"name":"","type":"uint256","internalType":"uint256"},{"name":"","type":"uint256","internalType":"uint256"}],"stateMutability":"nonpayable"},{"type":"function","name":"closemdrequest","inputs":[{"name":"uid","type":"uint256","internalType":"uint256"}],"outputs":[],"stateMutability":"nonpayable"},{"type":"function","name":"compileRoyality","inputs":[{"name":"prevAge","type":"uint256","internalType":"uint256"}],"outputs":[],"stateMutability":"nonpayable"},{"type":"function","name":"createmdrequest","inputs":[{"name":"uid","type":"uint256","internalType":"uint256"},{"name":"newpid","type":"uint256","internalType":"uint256"}],"outputs":[],"stateMutability":"nonpayable"},{"type":"function","name":"getBalance","inputs":[],"outputs":[{"name":"","type":"uint256","internalType":"uint256"}],"stateMutability":"view"},{"type":"function","name":"getBatchRankCounts","inputs":[{"name":"ag","type":"uint256","internalType":"uint256"}],"outputs":[{"name":"counts","type":"uint256[8]","internalType":"uint256[8]"}],"stateMutability":"view"},{"type":"function","name":"getDownlineCountByLevel","inputs":[{"name":"uid","type":"uint256","internalType":"uint256"},{"name":"lvl","type":"uint256","internalType":"uint256"}],"outputs":[{"name":"","type":"uint256","internalType":"uint256"}],"stateMutability":"view"},{"type":"function","name":"getHexbase","inputs":[],"outputs":[{"name":"","type":"address","internalType":"address"}],"stateMutability":"view"},{"type":"function","name":"getNode","inputs":[{"name":"_id","type":"uint256","internalType":"uint256"}],"outputs":[{"name":"_i","type":"uint256","internalType":"uint256"},{"name":"_node","type":"address","internalType":"address"},{"name":"_pid","type":"uint256","internalType":"uint256"},{"name":"_inst","type":"address","internalType":"address"},{"name":"_stor","type":"address","internalType":"address"},{"name":"_active","type":"bool","internalType":"bool"},{"name":"_direcCount","type":"uint256","internalType":"uint256"}],"stateMutability":"view"},{"type":"function","name":"getNodeChild","inputs":[{"name":"_id","type":"uint256","internalType":"uint256"},{"name":"inx","type":"uint256","internalType":"uint256"}],"outputs":[{"name":"child","type":"uint256","internalType":"uint256"}],"stateMutability":"view"},{"type":"function","name":"getNodeDirectsCount","inputs":[{"name":"_id","type":"uint256","internalType":"uint256"}],"outputs":[{"name":"count","type":"uint256","internalType":"uint256"}],"stateMutability":"view"},{"type":"function","name":"getNodeParent","inputs":[{"name":"_user","type":"address","internalType":"address"}],"outputs":[{"name":"","type":"uint256","internalType":"uint256"},{"name":"","type":"address","internalType":"address"}],"stateMutability":"view"},{"type":"function","name":"getNodeParentId","inputs":[{"name":"_id","type":"uint256","internalType":"uint256"}],"outputs":[{"name":"","type":"uint256","internalType":"uint256"}],"stateMutability":"view"},{"type":"function","name":"getNodesCount","inputs":[],"outputs":[{"name":"nodesCount","type":"uint256","internalType":"uint256"}],"stateMutability":"view"},{"type":"function","name":"getRoyalityAmountBatch","inputs":[{"name":"ag","type":"uint256","internalType":"uint256"}],"outputs":[{"name":"royal","type":"uint256[7]","internalType":"uint256[7]"}],"stateMutability":"view"},{"type":"function","name":"getTeamSize","inputs":[{"name":"uid","type":"uint256","internalType":"uint256"}],"outputs":[{"name":"","type":"uint256","internalType":"uint256"}],"stateMutability":"view"},{"type":"function","name":"getTotalTeamSizeWithLevel","inputs":[{"name":"_user","type":"address","internalType":"address"},{"name":"lvl","type":"uint256","internalType":"uint256"}],"outputs":[{"name":"","type":"uint256","internalType":"uint256"},{"name":"","type":"uint256","internalType":"uint256"}],"stateMutability":"view"},{"type":"function","name":"getUserIdToInst","inputs":[{"name":"_id","type":"uint256","internalType":"uint256"}],"outputs":[{"name":"","type":"address","internalType":"address"}],"stateMutability":"view"},{"type":"function","name":"getUserIdToStor","inputs":[{"name":"_id","type":"uint256","internalType":"uint256"}],"outputs":[{"name":"","type":"address","internalType":"address"}],"stateMutability":"view"},{"type":"function","name":"getUserToInst","inputs":[{"name":"node","type":"address","internalType":"address"}],"outputs":[{"name":"","type":"address","internalType":"address"}],"stateMutability":"view"},{"type":"function","name":"getUserToStor","inputs":[{"name":"_user","type":"address","internalType":"address"}],"outputs":[{"name":"","type":"address","internalType":"address"}],"stateMutability":"view"},{"type":"function","name":"getbusiness","inputs":[{"name":"ag","type":"uint256","internalType":"uint256"}],"outputs":[{"name":"","type":"uint256","internalType":"uint256"}],"stateMutability":"view"},{"type":"function","name":"getjoining","inputs":[{"name":"ag","type":"uint256","internalType":"uint256"}],"outputs":[{"name":"","type":"uint256","internalType":"uint256"}],"stateMutability":"view"},{"type":"function","name":"getrankCount","inputs":[{"name":"ag","type":"uint256","internalType":"uint256"},{"name":"rnk","type":"uint256","internalType":"uint256"}],"outputs":[{"name":"count","type":"uint256","internalType":"uint256"}],"stateMutability":"view"},{"type":"function","name":"gettotqty","inputs":[{"name":"ag","type":"uint256","internalType":"uint256"}],"outputs":[{"name":"","type":"uint256","internalType":"uint256"}],"stateMutability":"view"},{"type":"function","name":"getwithdrawn","inputs":[{"name":"ag","type":"uint256","internalType":"uint256"}],"outputs":[{"name":"","type":"uint256","internalType":"uint256"}],"stateMutability":"view"},{"type":"function","name":"importBusiness","inputs":[{"name":"_amt","type":"uint256","internalType":"uint256"},{"name":"_ag","type":"uint256","internalType":"uint256"}],"outputs":[],"stateMutability":"nonpayable"},{"type":"function","name":"importJoining","inputs":[{"name":"_cnt","type":"uint256","internalType":"uint256"},{"name":"_ag","type":"uint256","internalType":"uint256"}],"outputs":[],"stateMutability":"nonpayable"},{"type":"function","name":"importOld","inputs":[{"name":"_id","type":"uint256","internalType":"uint256"},{"name":"_limit","type":"uint256","internalType":"uint256"}],"outputs":[],"stateMutability":"payable"},{"type":"function","name":"importRankNBusiness","inputs":[{"name":"from","type":"uint256","internalType":"uint256"},{"name":"to","type":"uint256","internalType":"uint256"}],"outputs":[],"stateMutability":"nonpayable"},{"type":"function","name":"importWithdrawal","inputs":[{"name":"_amt","type":"uint256","internalType":"uint256"},{"name":"_ag","type":"uint256","internalType":"uint256"}],"outputs":[],"stateMutability":"nonpayable"},{"type":"function","name":"isNode","inputs":[{"name":"_id","type":"uint256","internalType":"uint256"}],"outputs":[{"name":"","type":"bool","internalType":"bool"}],"stateMutability":"view"},{"type":"function","name":"isUserExists","inputs":[{"name":"node","type":"address","internalType":"address"}],"outputs":[{"name":"","type":"bool","internalType":"bool"}],"stateMutability":"view"},{"type":"function","name":"join","inputs":[{"name":"_parent","type":"address","internalType":"address"},{"name":"_user","type":"address","internalType":"address"}],"outputs":[{"name":"_id","type":"uint256","internalType":"uint256"},{"name":"_stor","type":"address","internalType":"address"}],"stateMutability":"nonpayable"},{"type":"function","name":"joinImport","inputs":[{"name":"_parent","type":"address","internalType":"address"},{"name":"_user","type":"address","internalType":"address"}],"outputs":[{"name":"_id","type":"uint256","internalType":"uint256"},{"name":"_stor","type":"address","internalType":"address"}],"stateMutability":"nonpayable"},{"type":"function","name":"moveDownline","inputs":[{"name":"uid","type":"uint256","internalType":"uint256"}],"outputs":[],"stateMutability":"nonpayable"},{"type":"function","name":"nodes","inputs":[{"name":"","type":"uint256","internalType":"uint256"}],"outputs":[{"name":"","type":"address","internalType":"address"}],"stateMutability":"view"},{"type":"function","name":"owner","inputs":[],"outputs":[{"name":"","type":"address","internalType":"address"}],"stateMutability":"view"},{"type":"function","name":"setDefaultRankCount","inputs":[{"name":"_limit","type":"uint256","internalType":"uint256"}],"outputs":[],"stateMutability":"nonpayable"},{"type":"function","name":"setMoveDownlineApproval","inputs":[{"name":"uid","type":"uint256","internalType":"uint256"},{"name":"newpid","type":"uint256","internalType":"uint256"}],"outputs":[],"stateMutability":"nonpayable"},{"type":"function","name":"systemAge","inputs":[],"outputs":[{"name":"","type":"uint256","internalType":"uint256"}],"stateMutability":"view"},{"type":"function","name":"tokenImport","inputs":[{"name":"_id","type":"uint256","internalType":"uint256"},{"name":"mintid","type":"uint256","internalType":"uint256"}],"outputs":[],"stateMutability":"nonpayable"},{"type":"function","name":"updateUsers","inputs":[{"name":"from","type":"address","internalType":"address"},{"name":"to","type":"address","internalType":"address"}],"outputs":[{"name":"_id","type":"uint256","internalType":"uint256"},{"name":"_stor","type":"address","internalType":"address"},{"name":"_parent","type":"address","internalType":"address"}],"stateMutability":"nonpayable"},{"type":"event","name":"EthBurned","inputs":[{"name":"sender","type":"address","indexed":true,"internalType":"address"},{"name":"amount","type":"uint256","indexed":false,"internalType":"uint256"}],"anonymous":false},{"type":"event","name":"EthTransferred","inputs":[{"name":"to","type":"address","indexed":true,"internalType":"address"},{"name":"amount","type":"uint256","indexed":false,"internalType":"uint256"}],"anonymous":false},{"type":"event","name":"HexBaseUpdated","inputs":[{"name":"previousHexBase","type":"address","indexed":true,"internalType":"address"},{"name":"newHexBase","type":"address","indexed":true,"internalType":"address"}],"anonymous":false},{"type":"event","name":"OwnerUpdated","inputs":[{"name":"previousOwner","type":"address","indexed":true,"internalType":"address"},{"name":"newOwner","type":"address","indexed":true,"internalType":"address"}],"anonymous":false},{"type":"error","name":"FailedDeployment","inputs":[]},{"type":"error","name":"InsufficientBalance","inputs":[{"name":"balance","type":"uint256","internalType":"uint256"},{"name":"needed","type":"uint256","internalType":"uint256"}]},{"type":"error","name":"ReentrancyGuardReentrantCall","inputs":[]},{"type":"error","name":"TargetCallFailed","inputs":[{"name":"selector","type":"bytes4","internalType":"bytes4"}]}],"bytecode":{"object":"0x608034620000d157601f62005f7d38819003918201601f19168301916001600160401b03831184841017620000d657808492602094604052833981010312620000d157516001600160a01b03811690819003620000d15780156200008c5760018060a01b03193381600154161760015560005416176000556001600355604051615e909081620000ed8239f35b60405162461bcd60e51b815260206004820152601360248201527f6f776e2e696e76616c69642e68657862617365000000000000000000000000006044820152606490fd5b600080fd5b634e487b7160e01b600052604160045260246000fdfe60806040526004361015610018575b361561001657005b005b60003560e01c80629db65514610357578063033eeffb146103525780630e5fd00b1461034d57806312065fe0146103485780631bb49f02146103435780631c53c2801461033e5780631f185d16146103395780632a687c87146103345780632fefc0bf1461032f578063307673e81461032a57806332ff4eab1461032557806333b59a5b146103205780633a7b55b81461031b5780633b9b7955146103165780633baee0ea14610311578063419cb27b1461030c57806342cc9d571461030757806344585097146103025780634f0f4aa9146102fd578063509222cd146102f857806350db85d1146102f357806361ea7208146102ee578063629d671e146102e957806365d2fbd3146102e45780636a811244146102df5780636fb412ab146102da57806376fe6c45146102d55780637bb98498146102d057806380f85e33146102cb578063849c22ad146102c6578063896c354a146102c15780638da5cb5b146102bc57806395f72f49146102b757806398b3f215146102b2578063a1f7f539146102ad578063a89d693b146102a8578063af484526146102a3578063b1c490791461029e578063b366335e14610299578063b90306ad14610294578063c43792e31461028f578063c54e44b01461028a578063c871372b14610285578063d1e0bbc614610280578063dcb3fc4a1461027b578063e01ad5fd14610276578063e0a9bc2b14610271578063eb95c6621461026c578063eb9e9e2c14610267578063f3ca712414610262578063fd38093b1461025d5763fdc10bc90361000e57613049565b612fd9565b612fad565b612d76565b612d4a565b612d2f565b612c95565b612a96565b612a5c565b6129de565b61293c565b612910565b612854565b6127a4565b612628565b612601565b6124e2565b6123f5565b6123c9565b612323565b6122fc565b6122bc565b61228d565b612253565b6121ad565b61215d565b611fb9565b611936565b61151f565b6114e1565b6114c3565b611403565b6113af565b6112c2565b61128a565b61125b565b611221565b610b4d565b610afe565b610992565b6108be565b610818565b610747565b61070f565b610669565b610559565b610524565b6104bf565b6104a3565b610453565b610416565b3461041157602036600319011261041157610378610373615722565b6133ca565b61038133615866565b8015610399575b61039190613436565b610016615119565b5060046001600160a01b036020816000541660405193848092630536340960e21b82525afa90811561040c57610391926000926103dc575b501633149050610388565b6103fe91925060203d8111610405575b6103f681836130f7565b810190613415565b90386103d1565b503d6103ec565b61342a565b600080fd5b3461041157602036600319011261041157600435600052600b6020526020604060002054604051908152f35b6001600160a01b0381160361041157565b3461041157602036600319011261041157602060043561047281610442565b6001600160a01b03809116600052600482526040600020546000526007825260046040600020015416604051908152f35b3461041157600036600319011261041157602047604051908152f35b34610411576020366003190112610411576004356104dc81610442565b6001600160a01b0390811660009081526004602090815260408083205483526007825280832060020154808452600583529281902054815193845290931690820152f35b0390f35b3461041157602036600319011261041157600435600052600560205260206001600160a01b0360406000205416604051908152f35b34610411576020806003193601126104115760049081359061057a82610442565b8061059c6105906000546001600160a01b031690565b6001600160a01b031690565b60405194858092634bf9c0ad60e11b82525afa91821561040c576105f061062a9361060c9261052096600092610646575b506105fe906040519384918783019190916001600160a01b036020820193169052565b03601f1981018452836130f7565b610606615910565b90615bbc565b91908061063c575b61061d90615949565b808251830101910161570e565b60405190151581529081906020820190565b5081518114610614565b6105fe91925061066290863d8811610405576103f681836130f7565b91906105cd565b3461041157604036600319011261041157610685610373615722565b61068e33615866565b80156106ac575b61069e90613436565b6100166024356004356154a4565b5060046001600160a01b036020816000541660405193848092630536340960e21b82525afa90811561040c5761069e926000926106ef575b501633149050610695565b61070891925060203d8111610405576103f681836130f7565b90386106e4565b3461041157602036600319011261041157600435600052600760205260206001600160a01b0360056040600020015416604051908152f35b3461041157602036600319011261041157600435600090338252600460205261078d6107886040842054600052600760205260ff6001604060002001541690565b6140c6565b808252601060205260ff600260408420015460081c16156107d4576107bf6107d1916000526010602052604060002090565b60026000918281558260018201550155565b80f35b606460405162461bcd60e51b815260206004820152601360248201527f6e65737465642e7265712e6e6f746578697374000000000000000000000000006044820152fd5b3461041157604036600319011261041157610834610373615722565b61083d33615866565b801561085b575b61084d90613436565b6100166024356004356154f8565b5060046001600160a01b036020816000541660405193848092630536340960e21b82525afa90811561040c5761084d9260009261089e575b501633149050610844565b6108b791925060203d8111610405576103f681836130f7565b9038610893565b34610411576040366003190112610411576108da610373615722565b6108e333615866565b8015610901575b6108f390613436565b610016602435600435615594565b5060046001600160a01b036020816000541660405193848092630536340960e21b82525afa90811561040c576108f392600092610944575b5016331490506108ea565b61095d91925060203d8111610405576103f681836130f7565b9038610939565b60e0810192916000915b6007831061097b57505050565b60019082518152602080910192019201919061096e565b3461041157602036600319011261041157610520600435610aec610adc604051926109bc846130a3565b60e03685376109e86109d8826000526009602052604060002090565b6001600052602052604060002090565b548452610a12610a02826000526009602052604060002090565b6002600052602052604060002090565b546020850152610a3f610a2f826000526009602052604060002090565b6003600052602052604060002090565b546040850152610a6c610a5c826000526009602052604060002090565b6004600052602052604060002090565b546060850152610a99610a89826000526009602052604060002090565b6005600052602052604060002090565b546080850152610ac6610ab6826000526009602052604060002090565b6006600052602052604060002090565b5460a08501526000526009602052604060002090565b6007600052602052604060002090565b5460c082015260405191829182610964565b346104115760003660031901126104115760206001600160a01b0360005416604051908152f35b604090600319011261041157600435610b3d81610442565b90602435610b4a81610442565b90565b3461041157610bab610b5e36610b25565b90610b6761338f565b610b80610b72613148565b610b7a613160565b33615c52565b91610b94610b8c613148565b610b7a613199565b6001600160a01b03828116959094851686146131d2565b610bd060009185610bc8610590828654166001600160a01b031690565b91161461321d565b610bdb851515613fac565b610bf8826001600160a01b03166000526004602052604060002090565b54158015611216575b610c0a90613ff7565b610c32610c2a846001600160a01b03166000526004602052604060002090565b541515614042565b610c766005610c68610c57866001600160a01b03166000526004602052604060002090565b546000526007602052604060002090565b01546001600160a01b031690565b9360409182516020977f880cdc310000000000000000000000000000000000000000000000000000000089830152610ce060249280610cc7898683019190916001600160a01b036020820193169052565b0399610cdb601f199b8c81018452836130f7565b615d65565b50600493610d0b61059086610c68610c578c6001600160a01b03166000526004602052604060002090565b156110bf57610d7e610d3786610c68610c578c6001600160a01b03166000526004602052604060002090565b87517f0399c93c000000000000000000000000000000000000000000000000000000008d82015233868201908152909190610cdb9083906020015b038d81018452836130f7565b505b610d9d886001600160a01b03166000526004602052604060002090565b54610dbb886001600160a01b03166000526004602052604060002090565b55610e1987610df1610de08b6001600160a01b03166000526004602052604060002090565b546000526005602052604060002090565b906001600160a01b031673ffffffffffffffffffffffffffffffffffffffff19825416179055565b610e673386610e3e610c578b6001600160a01b03166000526004602052604060002090565b01906001600160a01b031673ffffffffffffffffffffffffffffffffffffffff19825416179055565b87161415948561109b575b610e8f816001600160a01b03166000526004602052604060002090565b5497610eaa6005610c688b6000526007602052604060002090565b99610ee6610ed96002610ec78d6000526007602052604060002090565b01546000526005602052604060002090565b546001600160a01b031690565b9715610fe55780610f0161059087546001600160a01b031690565b8851978880926314ac1b5960e21b82525afa92831561040c5761052099610f8a977fe3d1d5bf000000000000000000000000000000000000000000000000000000009795610fbc575b5090610f7e91610cdb95968a5198899586015284019060209093929360408301946001600160a01b03809216845216910152565b039081018452836130f7565b505b610f966001600355565b519283526001600160a01b03938416602084015290921660408201529081906060820190565b610cdb955090610fdc610f7e9392853d8711610405576103f681836130f7565b95509091610f4a565b809250610ffc61059086546001600160a01b031690565b8751968780926314ac1b5960e21b82525afa91821561040c576105209861106e967f9498d88b000000000000000000000000000000000000000000000000000000009694611074575b50610f7e90610cdb9495895197889485015283019190916001600160a01b036020820193169052565b50610f8c565b610cdb945090611093610f7e92843d8611610405576103f681836130f7565b945090611045565b826110b9886001600160a01b03166000526004602052604060002090565b55610e72565b848a6110d561059087546001600160a01b031690565b88519283809263111ea8c160e21b82525afa90811561040c5761112b918a9187916111f9575b5088516001600160a01b03909216828e0190815261111d908390602001610d72565b61112561408d565b90615c52565b8181161515806111ef575b611141575b50610d80565b86517f4fb2e45d00000000000000000000000000000000000000000000000000000000818d0152338582019081526111e892916111959161118f908e908390602001039081018352826130f7565b82615d65565b508751907fa3e884b0000000000000000000000000000000000000000000000000000000008d830152610cdb82610d72888201906007606060808401936000815260006020820152600060408201520152565b503861113b565b5080311515611136565b61121091508d803d10610405576103f681836130f7565b386110fb565b508284168514610c01565b34610411576020366003190112610411576020611251600435600052600760205260ff6001604060002001541690565b6040519015158152f35b346104115760203660031901126104115760043560005260076020526020600360406000200154604051908152f35b3461041157602036600319011261041157600435600052600760205260206001600160a01b0360046040600020015416604051908152f35b346104115760203660031901126104115760043580600052600760205260406000205460056020526105206001600160a01b038060406000205416936007602052604060002091600460028401549301541661132d6005610c68846000526007602052604060002090565b906003611365611354600161134c876000526007602052604060002090565b015460ff1690565b946000526007602052604060002090565b01549360405197889788939160c09591989796939260e086019986526001600160a01b03938480931660208801526040870152166060850152166080830152151560a08201520152565b34610411576020366003190112610411576001600160a01b036004356113d481610442565b1660005260046020526040600020546000526007602052602060ff600160406000200154166040519015158152f35b346104115761141136610b25565b61141c610373615722565b61142533615866565b8015611459575b9161143961143e93613436565b613481565b604080519283526001600160a01b0391909116602083015290f35b506001600160a01b039160046020846000541660405192838092630536340960e21b82525afa801561040c5761143e94611439926000926114a3575b50339116149193505061142c565b6114bc91925060203d8111610405576103f681836130f7565b9038611495565b34610411576000366003190112610411576020600654604051908152f35b34610411576020366003190112610411576001600160a01b0360043561150681610442565b1660005260046020526020604060002054604051908152f35b346104115760203660031901126104115760043560016115556115508261134c856000526007602052604060002090565b613f00565b611569826000526010602052604060002090565b906002908183019260ff8454818160081c168061192d575b61158a90614501565b60101c166117b157506115b4826115ab866000526007602052604060002090565b01541515614597565b6000815b611686575b505080611628846001600160a01b036116006005610c686000976115ee6100169b6000526007602052604060002090565b01546000526007602052604060002090565b1661163b575b84546116189060101c60ff168261462f565b6000526007602052604060002090565b0155805462ff0000191662010000179055565b61168061165b6005610c68866115ee866000526007602052604060002090565b604051636f58dd0f60e11b60208201526000602482015290610cdb82604481016105f0565b50611606565b6003806116a1856115ee896000526007602052604060002090565b01548210156117ab57856116db6116d184846116cb896115ee876000526007602052604060002090565b01613dc5565b90549060031b1c90565b146116f057506116ea90613a79565b816115b8565b839250946117a1866117836116289461176a6117506116d16100169c61172660009c6115ee8b6000526007602052604060002090565b0161174a876117438d6115ee8d6000526007602052604060002090565b0154613791565b90613dc5565b91846116cb8a6115ee8a6000526007602052604060002090565b90919082549060031b91821b91600019901b1916179055565b61179b856115ee856000526007602052604060002090565b016145e2565b94508192506115bd565b506115bd565b8261185d6118576107bf9661182389600361181d6118d4996105f0996117f16100169f9d6117e9876000526007602052604060002090565b01541561454c565b01978854809161180b866000526007602052604060002090565b01556000526007602052604060002090565b01613de2565b83546001600160a01b036118466005610c68846000526007602052604060002090565b166118e5575b505460101c60ff1690565b8561462f565b610cdb611891610ed961187f6004610c68896000526007602052604060002090565b93546000526005602052604060002090565b6040517f1499c5920000000000000000000000000000000000000000000000000000000060208201526001600160a01b0390911660248201529283906044820190565b506000526010602052604060002090565b6119016005610c68611926936000526007602052604060002090565b604051636f58dd0f60e11b60208201526001602482015290610cdb82604481016105f0565b503861184c565b50808216611581565b3461041157604080600319360112610411576004803561195461338f565b611970611550600161134c846000526007602052604060002090565b61199561198e61059084610c68856000526007602052604060002090565b3314614222565b61199d6137f3565b6119b66005610c68836000526007602052604060002090565b600254908451611a2a611a1c6020927f02a085f2000000000000000000000000000000000000000000000000000000008482015280611a08602497883589840160209093929193604081019481520152565b0394610cdb601f19968781018452836130f7565b8280825183010191016149b2565b94868651948783611a4086830198895190613382565b97611a50858401998a5190613382565b611a606060850191825190613382565b9188611a726080870194855190613382565b97611a8360a08801998a5190613382565b96611a9c611a9760c08301998a5190613382565b61544a565b51611edd575b8251611df5575b5050508051611d03575b508051611c16575b5050611aca8351825190613382565b611b0c575b89896105206101008a611ae78d60e086015190614ae3565b5192015192611af66001600355565b5191825260208201929092529081906040820190565b84611b2861059060009a969799989a546001600160a01b031690565b8b51968780927f24768d910000000000000000000000000000000000000000000000000000000082525afa801561040c5761052098610100988c611bd29663a9059cbb60e01b968996611ae79b600097611bdd575b5090611bad610f7e949392611ba3610ed9610cdb9a9b6000526005602052604060002090565b9351905190613382565b92519889958601528401602090939291936001600160a01b0360408201951681520152565b509382933880611acf565b610cdb9750610f7e94939291611ba3610ed9611c08611bad948a3d8c11610405576103f681836130f7565b9a5050509192939450611b7d565b86611c2c6105906000546001600160a01b031690565b8d51938480927f9dc969a80000000000000000000000000000000000000000000000000000000082525afa91821561040c57611ccc928d928c928a600093611cd4575b5050611cc0611c8f610ed9610cdb94956000526005602052604060002090565b9151945194859263a9059cbb60e01b8d850152898401602090939291936001600160a01b0360408201951681520152565b038a81018452836130f7565b508338611abb565b610cdb9350610ed9611cf9611cc09383611c8f94903d10610405576103f681836130f7565b945050508a611c6f565b91878d611d1b6105906000546001600160a01b031690565b9051928380927faa0ddc160000000000000000000000000000000000000000000000000000000082525afa90811561040c578b611dbd928f8b908b9763a9059cbb60e01b95600094611dc4575b5090611db191611d89610ed9610cdb96976000526005602052604060002090565b905191519687948501528b8401602090939291936001600160a01b0360408201951681520152565b038c81018452836130f7565b5038611ab3565b610cdb945090611d89610ed9611dea611db19594873d8911610405576103f681836130f7565b965050509091611d68565b611e0d6105906000979497546001600160a01b031690565b9051928380927f30125cf50000000000000000000000000000000000000000000000000000000082525afa90811561040c578c8f928b611ea3948c9863a9059cbb60e01b95600094611eac575b5090610d7291611e7b610ed9610cdb96976000526005602052604060002090565b905191519687948501528c8401602090939291936001600160a01b0360408201951681520152565b5038888e611aa9565b610cdb945090611e7b610ed9611ed2610d729594873d8911610405576103f681836130f7565b965050509091611e5a565b611ef26105906000546001600160a01b031690565b9051958680927f640274270000000000000000000000000000000000000000000000000000000082525afa93841561040c578e611f868f8f8c988f8f968d90600093611f8c575b50610f7e611f58610ed9610cdb95966000526005602052604060002090565b9551885163a9059cbb60e01b8b8201526001600160a01b039097169287019283526020830152859160400190565b50611aa2565b610cdb9350611f58610ed9611fb0610f7e938c8d3d10610405576103f681836130f7565b95505050611f39565b3461041157604036600319011261041157600435602435611fd861338f565b611ff4611550600161134c856000526007602052604060002090565b612018612011610590610ed9856000526005602052604060002090565b33146140c6565b61204a6120346005610c68856000526007602052604060002090565b61203c614111565b612044613135565b91615b91565b908061206060209384808251830101910161414a565b1015612071575b6100166001600355565b8261214e6001600160a01b03927ff526f68a0000000000000000000000000000000000000000000000000000000094612142612127610ed96121126121046120e26120ce6005610c686121549f6000526007602052604060002090565b976040519182918983019190602083019252565b03976120f6601f19998a81018452836130f7565b6120fe614159565b90615b91565b858082518301019101614192565b99925050506000526005602052604060002090565b61212f613148565b9060405198899485015260248401614202565b039081018552846130f7565b16615d65565b50388080612067565b3461041157602036600319011261041157602060043561217c81610442565b6001600160a01b03809116600052600482526040600020546000526007825260056040600020015416604051908152f35b34610411576040366003190112610411576121c9610373615722565b6121d233615866565b80156121f0575b6121e290613436565b610016602435600435614414565b5060046001600160a01b036020816000541660405193848092630536340960e21b82525afa90811561040c576121e292600092612233575b5016331490506121d9565b61224c91925060203d8111610405576103f681836130f7565b9038612228565b3461041157604036600319011261041157600435600052600860205260406000206024356000526020526020604060002054604051908152f35b346104115760203660031901126104115760043560005260076020526020600260406000200154604051908152f35b3461041157604036600319011261041157600435600052600760205260206122ed6024356003604060002001613dc5565b90549060031b1c604051908152f35b346104115760003660031901126104115760206001600160a01b0360015416604051908152f35b346104115760403660031901126104115761233f610373615722565b61234833615866565b8015612366575b61235890613436565b6100166024356004356154ce565b5060046001600160a01b036020816000541660405193848092630536340960e21b82525afa90811561040c57612358926000926123a9575b50163314905061234f565b6123c291925060203d8111610405576103f681836130f7565b903861239e565b3461041157602036600319011261041157600435600052600f6020526020604060002054604051908152f35b3461041157600036600319011261041157600460206001600160a01b03600054166040519283809263d1f956b160e01b82525afa90811561040c576105209161248591600091612495575b5060405161244d816130bf565b601381527f67657464656c656761746f72436f756e74282900000000000000000000000000602082015261247f613135565b91615cdf565b6040519081529081906020820190565b6124ad915060203d8111610405576103f681836130f7565b38612440565b610100810192916000915b600883106124cb57505050565b6001908251815260208091019201920191906124be565b34610411576020366003190112610411576105206004356125ef610adc6125076153cd565b9261252e61251f826000526008602052604060002090565b60008052602052604060002090565b5484526125486109d8826000526008602052604060002090565b546020850152612565610a02826000526008602052604060002090565b546040850152612582610a2f826000526008602052604060002090565b54606085015261259f610a5c826000526008602052604060002090565b5460808501526125bc610a89826000526008602052604060002090565b5460a08501526125d9610ab6826000526008602052604060002090565b5460c08501526000526008602052604060002090565b5460e0820152604051918291826124b3565b3461041157602036600319011261041157602061125160043561262381610442565b615866565b346104115761273061263936610b25565b9061264261338f565b61268b612650610b72613148565b61265b610b8c613148565b906126746001600160a01b0391828088169116146131d2565b610bc861059082600054166001600160a01b031690565b6126b86126b3600161134c610c57856001600160a01b03166000526004602052604060002090565b613268565b6127216127176127086126e66005610c68610c57876001600160a01b03166000526004602052604060002090565b60405190612700826105f060208201906000602083019252565b6120fe6132b3565b602080825183010191016132ec565b505050151561330e565b6127296137ad565b3390613a88565b61274961251f6002546000526008602052604060002090565b612753815461336f565b905561275d615476565b6127766005610c68836000526007602052604060002090565b9061278081613f4b565b61278a6001600355565b604080519182526001600160a01b03929092166020820152f35b34610411576020366003190112610411576127c0610373615722565b6127c933615866565b80156127e4575b6127d990613436565b610016600435613836565b50600460206127fe6105906000546001600160a01b031690565b60405192838092630536340960e21b82525afa801561040c576127d991600091612836575b506001600160a01b0316331490506127d0565b61284e915060203d8111610405576103f681836130f7565b38612823565b346104115760203660031901126104115760046001600160a01b036020816000541660405193848092630536340960e21b82525afa91821561040c576000926128f0575b50339116036128ac57610016600435615a9d565b606460405162461bcd60e51b815260206004820152600f60248201527f6f776e2e6e6f6e617574682e44414f00000000000000000000000000000000006044820152fd5b61290991925060203d8111610405576103f681836130f7565b9038612898565b3461041157602036600319011261041157600435600052600d6020526020604060002054604051908152f35b346104115760203660031901126104115760043561295981610442565b803b600061296682613119565b9261297460405194856130f7565b82845260208401903c602d81511061299a57602a015160405160609190911c8152602090f35b606460405162461bcd60e51b815260206004820152601360248201527f4e6f742061206d696e696d616c2070726f7879000000000000000000000000006044820152fd5b6040366003190112610411576004356129f561338f565b6000908082526007602052612a1360ff600160408520015416613f00565b81526007602052612a536001600160a01b036005604084200154166040519062a0e53360e51b6020830152602435602483015260248252610cdb82613082565b50600160035580f35b3461041157604036600319011261041157600435600052600a60205260406000206024356000526020526020604060002054604051908152f35b346104115760c036600319011261041157602435600435612ab682610442565b6064359060843590612ac661338f565b612ae2611550600161134c846000526007602052604060002090565b612b0161198e6105906004610c68856000526007602052604060002090565b612b096137f3565b612b12826153f2565b612b1b8361541e565b612bc8612bba612ba6612b3d6005610c68866000526007602052604060002090565b966040519182916020977f932ca2d600000000000000000000000000000000000000000000000000000000898501528960a435926044359060248701919260809396959491966001600160a01b0360a08501981684526020840152604083015260608201520152565b0396610cdb601f19988981018452836130f7565b83808251830101910161426d565b929080612bdc575b50506120679350614e2a565b60049082612bf56105906000546001600160a01b031690565b604051938480927f5e09dbe70000000000000000000000000000000000000000000000000000000082525afa801561040c5761206797612c689463a9059cbb60e01b94600093612c70575b5060405190810194909452336024850152604484019290925290610cdb908360648101610f7e565b503880612bd0565b610cdb9350612c8e610f7e91833d8511610405576103f681836130f7565b9350612c40565b34610411576020806003193601126104115760048035612cb481610442565b6001600160a01b03928084600054166040519485809263d1f956b160e01b82525afa90811561040c576105209461062a94600093612d10575b506040519316818401528252612d02826130bf565b612d0a615a34565b90615ca3565b612d28919350823d8411610405576103f681836130f7565b9138612ced565b34610411576000366003190112610411576020611251615722565b3461041157602036600319011261041157600435600052600c6020526020604060002054604051908152f35b346104115760403660031901126104115760043560243590612dc9610788612db1336001600160a01b03166000526004602052604060002090565b54600052600760205260ff6001604060002001541690565b612de5611550600161134c846000526007602052604060002090565b612e06612e01600161134c856000526007602052604060002090565b614283565b612e1f6005610c68846000526007602052604060002090565b600483604051612e65612717612e5760209380612e43868201906000602083019252565b0397612700601f19998a81018452836130f7565b8380825183010191016132ec565b612e79856000526010602052604060002090565b93612ee56002860196612ea0612e9b612e978a5460ff9060081c1690565b1590565b6142ce565b6040517f7bb9849800000000000000000000000000000000000000000000000000000000858201526024810191909152604481019890985260648281018952886130f7565b81612efb6105906000546001600160a01b031690565b60405195868092630536340960e21b82525afa93841561040c5761001697612f7b95612f6893610f7e93600092612f8c575b50610cdb91926040519485917fffa734f000000000000000000000000000000000000000000000000000000000898401523060248401614319565b916001850155808251830101910161414a565b9055805461ff001916610100179055565b610cdb9250612fa790873d8911610405576103f681836130f7565b91612f2d565b3461041157602036600319011261041157600435600052600e6020526020604060002054604051908152f35b3461041157604080600319360112610411576001600160a01b03600435612fff81610442565b16600081815260046020818152848320548352600b815284832054938352908152838220548252600a81528382206024358352815290839020549251918252810191909152604090f35b34610411576000366003190112610411576020613064615994565b604051908152f35b634e487b7160e01b600052604160045260246000fd5b6060810190811067ffffffffffffffff82111761309e57604052565b61306c565b60e0810190811067ffffffffffffffff82111761309e57604052565b6040810190811067ffffffffffffffff82111761309e57604052565b6020810190811067ffffffffffffffff82111761309e57604052565b90601f8019910116810190811067ffffffffffffffff82111761309e57604052565b67ffffffffffffffff811161309e57601f01601f191660200190565b60405190613142826130db565b60008252565b604051613154816130db565b60008152906000368137565b6040519061316d826130bf565b600782527f6f776e65722829000000000000000000000000000000000000000000000000006020830152565b604051906131a6826130bf565b600c82527f67657448657862617365282900000000000000000000000000000000000000006020830152565b156131d957565b606460405162461bcd60e51b815260206004820152601760248201527f6e65737465642e696e76616c69642e696e7374616e63650000000000000000006044820152fd5b1561322457565b606460405162461bcd60e51b815260206004820152601660248201527f6e65737465642e696e76616c69642e68657862617365000000000000000000006044820152fd5b1561326f57565b606460405162461bcd60e51b815260206004820152601860248201527f6e65737465642e706172656e742e6e6f742e65786973747300000000000000006044820152fd5b604051906132c0826130bf565b601282527f6765744e6f64654c422875696e743235362900000000000000000000000000006020830152565b9190826080910312610411578151916020810151916060604083015192015190565b1561331557565b606460405162461bcd60e51b815260206004820152601960248201527f6e65737465642e706172656e742e6e6f2e627573696e657373000000000000006044820152fd5b634e487b7160e01b600052601160045260246000fd5b906001820180921161337d57565b613359565b9190820180921161337d57565b6002600354146133a0576002600355565b60046040517f3ee5aeb5000000000000000000000000000000000000000000000000000000008152fd5b156133d157565b606460405162461bcd60e51b815260206004820152601260248201527f6f776e2e696e76616c69642e69735361666500000000000000000000000000006044820152fd5b908160209103126104115751610b4a81610442565b6040513d6000823e3d90fd5b1561343d57565b606460405162461bcd60e51b815260206004820152601b60248201527f6f776e2e6e6f6e617574682e44414f6f725365637572656261736500000000006044820152fd5b919061348b61338f565b6134bb6134b6612e97600161134c610c57866001600160a01b03166000526004602052604060002090565b613a2e565b6134ce6134c9600654613a79565b600655565b613525600654936134ed83610df1876000526005602052604060002090565b8461350b846001600160a01b03166000526004602052604060002090565b556001600160a01b03166000526004602052604060002090565b54906135318483613e0a565b613568600461354a866000526007602052604060002090565b0173ffffffffffffffffffffffffffffffffffffffff198154169055565b60009161357f61059084546001600160a01b031690565b926040918251809563e09d394d60e01b825281600460209384935afa801561040c576135b86135ce916004988691613774575b50613d2f565b6005610e3e8b6000526007602052604060002090565b6135e76005610c688a6000526007602052604060002090565b916136368661360061059087546001600160a01b031690565b87516352902c5960e01b868201526001600160a01b03918216602482015291166044820152606481018b90528060848101611a08565b508015158061374a575b6136fe575b508061365b61059085546001600160a01b031690565b8551978880926318c9774160e21b82525afa91821561040c57610f7e6005966007946136c1936001600160a01b039a88926136dd575b50610cdb9192895194859163d5ec0ea160e01b89840152602483019190916001600160a01b036020820193169052565b508783525220015416916136d481613f4b565b91906001600355565b610cdb92506136f890873d8911610405576103f681836130f7565b91613691565b61371a6005610c68613743936000526007602052604060002090565b8551636f58dd0f60e11b848201526001602482015260448581018252909190610cdb90836130f7565b5038613645565b506001600160a01b0361376c6005610c68846000526007602052604060002090565b161515613640565b61378b9150843d8611610405576103f681836130f7565b386135b2565b60001981019190821161337d57565b9190820391821161337d57565b6137b5615994565b600254106137cd575b6137cb600560025461387f565b565b6137d5615994565b80600255600019810190811161337d576137ee90615287565b6137be565b6137fb615994565b60025410613810575b6137cb6002805461387f565b613818615994565b80600255600019810190811161337d5761383190615287565b613804565b61383e615994565b60025410613853575b6137cb9060025461387f565b61385b615994565b9081600255600019820191821161337d576138786137cb92615287565b9050613847565b9061389761251f836000526008602052604060002090565b541580613a24575b80613a1b575b6138ad575050565b6138c9906138c36138bd84613791565b91613791565b9061387f565b6138e861251f6138d883613791565b6000526008602052604060002090565b5461390061251f836000526008602052604060002090565b556139106109d86138d883613791565b546139286109d8836000526008602052604060002090565b55613938610a026138d883613791565b54613950610a02836000526008602052604060002090565b55613960610a2f6138d883613791565b54613978610a2f836000526008602052604060002090565b55613988610a5c6138d883613791565b546139a0610a5c836000526008602052604060002090565b556139b0610a896138d883613791565b546139c8610a89836000526008602052604060002090565b556139d8610ab66138d883613791565b546139f0610ab6836000526008602052604060002090565b55613a18610adc613a06610adc6138d885613791565b54926000526008602052604060002090565b55565b508015156138a5565b506001821161389f565b15613a3557565b606460405162461bcd60e51b815260206004820152601560248201527f6e65737465642e616c72656164792e65786973747300000000000000000000006044820152fd5b600019811461337d5760010190565b91613ab46134b6612e97600161134c610c57866001600160a01b03166000526004602052604060002090565b613ac26134c9600654613a79565b613b24613b0260065494613ae484610df1886000526005602052604060002090565b8561350b856001600160a01b03166000526004602052604060002090565b5492613b0e8585613e0a565b6004610e3e866000526007602052604060002090565b613b396105906000546001600160a01b031690565b9060405192839263e09d394d60e01b845283600460209687935afa801561040c57613b71613b8791600495600091613d185750613d2f565b6005610e3e886000526007602052604060002090565b613ba06005610c68876000526007602052604060002090565b90613bf983613bba6105906000546001600160a01b031690565b6040516352902c5960e01b898201526001600160a01b0391821660248201529116604482015260648082018990528152601f1993610cdb6084836130f7565b5080151580613cee575b613ca1575b5083613c1f6105906000546001600160a01b031690565b604051948580926318c9774160e21b82525afa90811561040c57613c789463d5ec0ea160e01b94600093613c7c575b50604051908101949094526001600160a01b03909216602484015290610cdb908360448101610f7e565b5090565b610cdb9350613c9a610f7e91833d8511610405576103f681836130f7565b9350613c4e565b613cbd6005610c68613ce7936000526007602052604060002090565b604051636f58dd0f60e11b878201526001602482015260448481018252909190610cdb90836130f7565b5038613c08565b506001600160a01b03613d106005610c68846000526007602052604060002090565b161515613c03565b61378b9150873d8911610405576103f681836130f7565b6e5af43d82803e903d91602b57fd5bf390763d602d80600a3d3981f3363d3d373d3d3d363d7300000062ffffff8260881c161760005260781b17602052603760096000f0906001600160a01b03821615613d8557565b60046040517fb06ebf3d000000000000000000000000000000000000000000000000000000008152fd5b634e487b7160e01b600052603260045260246000fd5b8054821015613ddd5760005260206000200190600090565b613daf565b908154916801000000000000000083101561309e578261176a9160016137cb95018155613dc5565b919091600092808452602091600783526040808620956002948386890155846001988981018a60ff198254161790555587613e4f86600052600a602052604060002090565b83805282528489858520555b613e6a57505050505050509050565b613ed8613ec7828b8a9414613ee1575b613e8e88600052600a602052604060002090565b8187528552868620613ea0815461336f565b9055613eb688600052600b602052604060002090565b613ec0815461336f565b9055613a79565b956000526007602052604060002090565b01549384613e5b565b613efb89600361181d8b6000526007602052604060002090565b613e7a565b15613f0757565b606460405162461bcd60e51b815260206004820152601560248201527f6e65737465642e757365722e6e6f7461637469766500000000000000000000006044820152fd5b806000526007602052613f6860ff60016040600020015416613f00565b6000526007602052613fa96001600160a01b03600560406000200154166040519062a0e53360e51b60208301526001602483015260248252610cdb82613082565b50565b15613fb357565b606460405162461bcd60e51b815260206004820152601360248201527f6e65737465642e7a65726f2e61646472657373000000000000000000000000006044820152fd5b15613ffe57565b606460405162461bcd60e51b815260206004820152601460248201527f6e65737465642e7461726765742e6578697374730000000000000000000000006044820152fd5b1561404957565b606460405162461bcd60e51b815260206004820152601760248201527f6e65737465642e736f757263652e6e6f744578697374730000000000000000006044820152fd5b6040519061409a826130bf565b601382527f55736572546f496e7374286164647265737329000000000000000000000000006020830152565b156140cd57565b606460405162461bcd60e51b815260206004820152601560248201527f6e65737465642e696e76616c69642e73656e64657200000000000000000000006044820152fd5b6040519061411e826130bf565b600b82527f6d696e74436f756e7428290000000000000000000000000000000000000000006020830152565b90816020910312610411575190565b60405190614166826130bf565b600e82527f6d696e74732875696e74323536290000000000000000000000000000000000006020830152565b91908260809103126104115781519160208101519160606040830151920151610b4a81610442565b60005b8381106141cd5750506000910152565b81810151838201526020016141bd565b906020916141f6815180928185528580860191016141ba565b601f01601f1916010190565b6040906001600160a01b03610b4a949316815281602082015201906141dd565b1561422957565b606460405162461bcd60e51b815260206004820152601b60248201527f6e65737465642e757365722e696e76616c6964696e7374616e636500000000006044820152fd5b9190826040910312610411576020825192015190565b1561428a57565b606460405162461bcd60e51b815260206004820152601560248201527f6e65737465642e696e76616c69642e706172656e7400000000000000000000006044820152fd5b156142d557565b606460405162461bcd60e51b815260206004820152601760248201527f6e65737465642e7265712e616c726561647965786973740000000000000000006044820152fd5b92916143a160a0916001600160a01b0360009460c08852602460c08901527f547269676765722e6e65737465642e70726f706f73616c2e6d6f7665646f776e60e08901527f6c696e65000000000000000000000000000000000000000000000000000000006101008901521660208701528360408701526101208060608801528601906141dd565b93600a60808201520152565b604051906143ba826130bf565b601282527f6765745374617475732875696e743235362900000000000000000000000000006020830152565b5190811515820361041157565b919082604091031261041157610b4a602061440d846143e6565b93016143e6565b61444761445391614437611550600161134c846000526007602052604060002090565b6000526010602052604060002090565b91600183015414614283565b6144686105906000546001600160a01b031690565b906040518092630536340960e21b825281600460209586935afa90811561040c576137cb936144c36105f06002946144d0946000916144e4575b506144bb87546040519384918783019190602083019252565b6120fe6143ad565b80518101820191016143f3565b5091019060ff801983541691151516179055565b6144fb9150843d8611610405576103f681836130f7565b386144a2565b1561450857565b606460405162461bcd60e51b815260206004820152601660248201527f6e65737465642e7265712e6e6f74617070726f766564000000000000000000006044820152fd5b1561455357565b606460405162461bcd60e51b815260206004820152601860248201527f6e65737465642e757365722e6e6f742e646574616368656400000000000000006044820152fd5b1561459e57565b606460405162461bcd60e51b815260206004820152601b60248201527f6e65737465642e757365722e616c726564792e646574616368656400000000006044820152fd5b805490811561460c57600019918201916145fc8383613dc5565b909182549160031b1b1916905555565b634e487b7160e01b600052603160045260246000fd5b801561337d576000190190565b61464c61464682600052600b602052604060002090565b5461336f565b60029081614664846000526007602052604060002090565b0154906001938492835b61467c575b50505050505050565b600f80851115806149a9575b156149a357859060056146ac61059082610c68876000526007602052604060002090565b6146d9575b50506146ca6146d2926000526007602052604060002090565b015493613a79565b928561466e565b865b828111156147e3575050506146ca6146d292896000146147805761472361470c86600052600a602052604060002090565b61471589613791565b600052602052604060002090565b5461475661474e8961473f85600052600a602052604060002090565b90600052602052604060002090565b918254613382565b905561476c81600052600b602052604060002090565b614777878254613382565b90555b926146b1565b61479761470c86600052600a602052604060002090565b546147bb6147b38961473f85600052600a602052604060002090565b9182546137a0565b90556147d181600052600b602052604060002090565b6147dc8782546137a0565b905561477a565b909192506147ff82610c68876000526007602052604060002090565b8a8961480b8a856137a0565b92604061484c61483e82518061482a6020998a83019190602083019252565b0394612700601f19968781018452836130f7565b8680825183010191016132ec565b5050949091888b84158061499b575b61498957610cdb936148ee999896938b61488b6148e19a9895610c68610f7e966000526007602052604060002090565b975491519889957f7b058ac1000000000000000000000000000000000000000000000000000000008d8801526024870193909594919260809360a086019786526020860152604085015260608401521515910152565b805181018201910161426d565b908b15614944575b80821161491157505061490890613a79565b908792916146db565b61491a90613a79565b6149338161473f8c546000526008602052604060002090565b61493d815461336f565b90556148f6565b81811161495657505061490890613a79565b806149736149849261473f8d546000526008602052604060002090565b61497d8154613791565b9055614622565b614944565b50505050505050505061490890613a79565b50871561485b565b50614673565b50811515614688565b9061012080838303126104115781601f84011215610411576040519281840184811067ffffffffffffffff82111761309e576040528391810192831161041157905b828210614a015750505090565b81518152602091820191016149f4565b60405190614a1e826130bf565b600f82527f66726565496e74657276616c73282900000000000000000000000000000000006020830152565b60405190614a57826130bf565b601582527f67657452616e6b5769746841676556616c7565282900000000000000000000006020830152565b60405190614a90826130bf565b601382527f72616e6b436c617573652875696e7432353629000000000000000000000000006020830152565b908160a0910312610411578051916020820151916040810151916080606083015192015190565b91906004906020614aff6105906000546001600160a01b031690565b6040519384809263cfbffe5360e01b82525afa91821561040c57600092614e09575b50614b3b614b2d613148565b614b35614a11565b84615cdf565b906000809360009060009560009360009260009a5b600f8c111580614e00575b15614df257614b7c6105906005610c68846000526007602052604060002090565b614ba8575b6002614b9a614ba2926000526007602052604060002090565b01549b613a79565b9a614b50565b8b614bdf614bd0614bc86005610c68866000526007602052604060002090565b61203c614a4a565b6020808251830101910161426d565b82919215614da9575b81151580614da0575b8015614d98575b614c05575b505050614b81565b838b9184959e8e949503614cd6575b5092614c9892610cdb614c89936105f08e614c416005610c68614c9e9b6000526007602052604060002090565b9460025460405197889563208bffb160e21b60208801526024870193909594919260a09360c08601978652600060208701526040860152606085015260808401521515910152565b6020808251830101910161414a565b9161336f565b80821015614cb357509860028c614ba2614bfd565b80613eb6614cd19261473f6002546000526008602052604060002090565b614c9e565b939a50505050838211614d29575b5088888b86841080801591614d00575b50159992919038614c14565b8a861015915081614d21575b5080614d19575b38614cf4565b508715614d13565b905038614d0c565b93509350935050614d7a614d6b604051614d5d81614d4f87602083019190602083019252565b03601f1981018352826130f7565b614d65614a83565b86615b91565b60208082518301019101614abc565b949350909591509492614d9085936002546137a0565b119338614ce4565b506000614bf8565b508a1515614bf1565b96505099509250935050614dd2614d6b604051614d5d81614d4f8c602083019190602083019252565b9a9350909591509492828c819b614deb886002546137a0565b1196614be8565b505050505050505050509050565b50801515614b5b565b614e2391925060203d602011610405576103f681836130f7565b9038614b21565b929160046000926020614e4761059086546001600160a01b031690565b6040519384809263cfbffe5360e01b82525afa91821561040c5784926150f8575b50614e74614b2d613148565b918480809181978294839b5b600f8d1115806150ef575b156150e057614eac6105906005610c68846000526007602052604060002090565b614ed8575b6002614eca614ed2926000526007602052604060002090565b01549c613a79565b9b614e80565b8c614ef8614bd0614bc86005610c68866000526007602052604060002090565b8291921580615087575b158061507e575b8015615075575b614f1d575b505050614eb1565b8b849e948c928f95968703614fdb575b5092610cdb614c89936105f08e614fa39895614f5b6005610c68614c989b6000526007602052604060002090565b956002549060405198899663208bffb160e21b60208901526024880194919260a0949197969360c0870198875260208701526040860152606085015260808401521515910152565b80821015614fb857509960028d614ed2614f15565b80613eb6614fd69261473f6002546000526008602052604060002090565b614fa3565b94505050509750838211615031575b5087898c8c87851080801591615008575b50159a9290939138614f2d565b8b871015915081615029575b5080615021575b38614ffb565b50881561501b565b905038615014565b93509350935050615057614d6b604051614d5d81614d4f87602083019190602083019252565b94935090959150949261506d85936002546137a0565b119338614fea565b508c1515614f10565b508a1515614f09565b97509450509350945098506150bf614d6b6040516150b181614d4f87602083019190602083019252565b6150b9614a83565b8c615b91565b9c93509096915095938d8194829d6150d9826002546137a0565b1197614f02565b50505050505050505050509050565b50801515614e8b565b61511291925060203d602011610405576103f681836130f7565b9038614e68565b600254600019810190811161337d576137cb90615287565b1561513857565b606460405162461bcd60e51b815260206004820152601260248201527f6e65737465642e696e76616c69642e61676500000000000000000000000000006044820152fd5b60405190615189826130bf565b601882527f6765744261746368526f79616c7479436c6175736573282900000000000000006020830152565b6102a09081818403126104115782601f820112156104115760408051936151db856130a3565b849383019281841161041157935b8385106151f857505050505090565b60608583031261041157825160609161521082613082565b86518252602091828801518382015285880151868201528152019401936151e9565b906007811015613ddd5760051b0190565b908160640291606483040361337d57565b8181029291811591840414171561337d57565b8115615271570490565b634e487b7160e01b600052601260045260246000fd5b615292811515615131565b6152a76105906000546001600160a01b031690565b90604051809263cfbffe5360e01b825281600460209586935afa90811561040c576152ef916152e1916000916153b0575b5061203c61517c565b8380825183010191016151b5565b61530382600052600c602052604060002090565b5460015b6007811115615317575050505050565b8061533361539c9261473f876000526008602052604060002090565b5480156153aa5761534c61534683613791565b86615232565b518781519283156153a1576153736153789261536b61537e968a615254565b940151615243565b615254565b90615267565b6153968261473f886000526009602052604060002090565b55613a79565b615307565b50505050613a79565b50613a79565b6153c79150853d8711610405576103f681836130f7565b386152d8565b6040519061010080830183811067ffffffffffffffff82111761309e57604052368337565b60025480600052600c60205260406000205491820180921161337d57600052600c602052604060002055565b60025480600052600d60205260406000205491820180921161337d57600052600d602052604060002055565b60025480600052600e60205260406000205491820180921161337d57600052600e602052604060002055565b60025480600052600f602052604060002054906001820180921161337d57600052600f602052604060002055565b9080600052600c60205260406000205491820180921161337d57600052600c602052604060002055565b9080600052600e60205260406000205491820180921161337d57600052600e602052604060002055565b9080600052600f60205260406000205491820180921161337d57600052600f602052604060002055565b6040519061552f826130bf565b601482527f676574627573696e6573732875696e74323536290000000000000000000000006020830152565b60405190615568826130bf565b601d82527f67657472616e6b436f756e742875696e743235362c75696e74323536290000006020830152565b6000906155ab61059083546001600160a01b031690565b91604092835192839163111ea8c160e21b835282600460209485935afa93841561040c5783946156a4575b505b858111156155e857505050505050565b8451828101828152819003808252601f19916156199161560b90602001826130f7565b615613615522565b87615cdf565b61563061474e84600052600c602052604060002090565b9055835b6008811061564c57505061564790613a79565b6155d8565b86518481018481526020810183905261569f929161568791615679908290604001038681018352826130f7565b61568161555b565b89615cdf565b6153968261473f876000526008602052604060002090565b615634565b6156bc919450823d8411610405576103f681836130f7565b92386155d6565b156156ca57565b606460405162461bcd60e51b815260206004820152601960248201527f6f776e2e7361666567756172642e63616c6c2e6661696c6564000000000000006044820152fd5b9081602091031261041157610b4a906143e6565b6001600160a01b03600054166040518091634bf9c0ad60e11b825281600460209384935afa91821561040c57610b4a926157aa916000916157c5575b5060405161576b816130bf565b600881527f697353616665282900000000000000000000000000000000000000000000000084820152604051916157a1836130db565b60008352615bbc565b9190806157bb575b61061d906156c3565b50815181146157b2565b6157dc9150833d8511610405576103f681836130f7565b3861575e565b604051906157ef826130bf565b601582527f69735365637572654261736528616464726573732900000000000000000000006020830152565b1561582257565b606460405162461bcd60e51b815260206004820152601a60248201527f6f776e2e736563757265626173652e63616c6c2e6661696c65640000000000006044820152fd5b6000546001600160a01b0316604051918291634bf9c0ad60e11b835282600460209485935afa92831561040c57610b4a936158d2926105f0926000926158ed575b506158ca906040519384918783019190916001600160a01b036020820193169052565b6106066157e2565b9190806158e3575b61061d9061581b565b50815181146158da565b6158ca91925061590990863d8811610405576103f681836130f7565b91906158a7565b6040519061591d826130bf565b601182527f69735369676e65722861646472657373290000000000000000000000000000006020830152565b1561595057565b606460405162461bcd60e51b815260206004820152601660248201527f6f776e2e7369676e65722e63616c6c2e6661696c6564000000000000000000006044820152fd5b600460206001600160a01b03600054166040519283809263111ea8c160e21b82525afa801561040c57610b4a91600091615a16575b506040516159d6816130bf565b600581527f6167652829000000000000000000000000000000000000000000000000000000602082015260405191615a0d836130db565b60008352615cdf565b615a2e915060203d8111610405576103f681836130f7565b386159c9565b60405190615a41826130bf565b601882527f697364656c656761746f724e6f646528616464726573732900000000000000006020830152565b3d15615a98573d90615a7e82613119565b91615a8c60405193846130f7565b82523d6000602084013e565b606090565b6000600460206001600160a01b03835416604051928380927f46f991ac0000000000000000000000000000000000000000000000000000000082525afa90811561040c578284819382938391615b73575b505af1615af9615a6d565b5015615b2f5760405190815233907fcdcc745fe377b103b45fa0cec23ae3ef93d6fc6a84a01f0d18c40b354dd1d5d890602090a2565b606460405162461bcd60e51b815260206004820152600f60248201527f6f776e2e6275726e2e6661696c656400000000000000000000000000000000006044820152fd5b615b8b915060203d8111610405576103f681836130f7565b38615aee565b90615b9c9291615bbc565b9060009015615ba9575090565b6040519150615bb7826130db565b815290565b803b15615c39576000927fffffffff000000000000000000000000000000000000000000000000000000008360208695519101201690615c266024604051809360208201958652615c1681518092602086860191016141ba565b81010360048101845201826130f7565b5191620dbba0fa615c35615a6d565b9091565b505050600090604051615c4b816130db565b6000815290565b9291615c6091600094615bbc565b9080615c98575b615c6e5750565b9091506020818051810103126104115760206001600160a01b03910151615c9481610442565b1690565b506020815114615c67565b9291615cb191600094615bbc565b9080615cd4575b615cbf5750565b610b4a9192506020808251830101910161570e565b506020815114615cb8565b9291615ced91600094615bbc565b9080615d10575b615cfb5750565b610b4a9192506020808251830101910161414a565b506020815114615cf4565b90602082519201517fffffffff00000000000000000000000000000000000000000000000000000000908181169360048110615d5657505050565b60040360031b82901b16169150565b6001600160a01b03811615615e1657600080918351908260208601915af190615d8c615a6d565b9115615d96575090565b805160009190600411615e1057615dad9150615d1b565b815115615dbd5750805190602001fd5b6024907fffffffff00000000000000000000000000000000000000000000000000000000604051917f21c09d34000000000000000000000000000000000000000000000000000000008352166004820152fd5b50615dad565b606460405162461bcd60e51b815260206004820152601260248201527f6f776e2e696e76616c69642e74617267657400000000000000000000000000006044820152fdfea26469706673582212208a73edf690193fe11f2c29e53eea7d718a1b2f1d085a2ce81873098dae0e312f64736f6c63430008140033","linkReferences":{}},"methodIdentifiers":{"Burn(uint256)":"b90306ad","UserToId(address)":"629d671e","_delegatorCount()":"a1f7f539","_getImplementation(address)":"c54e44b0","_isDelegatorNode(address)":"e01ad5fd","_isSafe()":"e0a9bc2b","_isSecureBase(address)":"af484526","_isSigner(address)":"1f185d16","addBusiness(uint256,address,uint256,uint256,uint256,uint256)":"dcb3fc4a","claimIncome(uint256,uint256)":"6a811244","closemdrequest(uint256)":"307673e8","compileRoyality(uint256)":"009db655","createmdrequest(uint256,uint256)":"eb9e9e2c","getBalance()":"12065fe0","getBatchRankCounts(uint256)":"a89d693b","getDownlineCountByLevel(uint256,uint256)":"d1e0bbc6","getHexbase()":"3b9b7955","getNode(uint256)":"4f0f4aa9","getNodeChild(uint256,uint256)":"896c354a","getNodeDirectsCount(uint256)":"42cc9d57","getNodeParent(address)":"1bb49f02","getNodeParentId(uint256)":"849c22ad","getNodesCount()":"61ea7208","getRoyalityAmountBatch(uint256)":"3a7b55b8","getTeamSize(uint256)":"033eeffb","getTotalTeamSizeWithLevel(address,uint256)":"fd38093b","getUserIdToInst(uint256)":"44585097","getUserIdToStor(uint256)":"2fefc0bf","getUserToInst(address)":"0e5fd00b","getUserToStor(address)":"76fe6c45","getbusiness(uint256)":"eb95c662","getjoining(uint256)":"98b3f215","getrankCount(uint256,uint256)":"80f85e33","gettotqty(uint256)":"c43792e3","getwithdrawn(uint256)":"f3ca7124","importBusiness(uint256,uint256)":"2a687c87","importJoining(uint256,uint256)":"32ff4eab","importOld(uint256,uint256)":"c871372b","importRankNBusiness(uint256,uint256)":"33b59a5b","importWithdrawal(uint256,uint256)":"95f72f49","isNode(uint256)":"419cb27b","isUserExists(address)":"509222cd","join(address,address)":"b1c49079","joinImport(address,address)":"50db85d1","moveDownline(uint256)":"65d2fbd3","nodes(uint256)":"1c53c280","owner()":"8da5cb5b","setDefaultRankCount(uint256)":"b366335e","setMoveDownlineApproval(uint256,uint256)":"7bb98498","systemAge()":"fdc10bc9","tokenImport(uint256,uint256)":"6fb412ab","updateUsers(address,address)":"3baee0ea"},"id":56}