{"abi":[{"type":"constructor","inputs":[{"name":"_hex","type":"address","internalType":"address"}],"stateMutability":"nonpayable"},{"type":"fallback","stateMutability":"payable"},{"type":"receive","stateMutability":"payable"},{"type":"function","name":"Burn","inputs":[{"name":"amount","type":"uint256","internalType":"uint256"}],"outputs":[],"stateMutability":"nonpayable"},{"type":"function","name":"TVLrefresh","inputs":[{"name":"_id","type":"uint256","internalType":"uint256"}],"outputs":[],"stateMutability":"nonpayable"},{"type":"function","name":"UserToId","inputs":[{"name":"","type":"address","internalType":"address"}],"outputs":[{"name":"","type":"uint256","internalType":"uint256"}],"stateMutability":"view"},{"type":"function","name":"_ageNow","inputs":[],"outputs":[{"name":"","type":"uint256","internalType":"uint256"}],"stateMutability":"view"},{"type":"function","name":"_delegatorCount","inputs":[],"outputs":[{"name":"","type":"uint256","internalType":"uint256"}],"stateMutability":"view"},{"type":"function","name":"_getImplementation","inputs":[{"name":"clone","type":"address","internalType":"address"}],"outputs":[{"name":"impl","type":"address","internalType":"address"}],"stateMutability":"view"},{"type":"function","name":"_isDelegatorNode","inputs":[{"name":"sender","type":"address","internalType":"address"}],"outputs":[{"name":"","type":"bool","internalType":"bool"}],"stateMutability":"view"},{"type":"function","name":"_isSafe","inputs":[],"outputs":[{"name":"","type":"bool","internalType":"bool"}],"stateMutability":"view"},{"type":"function","name":"_isSecureBase","inputs":[{"name":"sender","type":"address","internalType":"address"}],"outputs":[{"name":"","type":"bool","internalType":"bool"}],"stateMutability":"view"},{"type":"function","name":"_isSigner","inputs":[{"name":"sender","type":"address","internalType":"address"}],"outputs":[{"name":"","type":"bool","internalType":"bool"}],"stateMutability":"view"},{"type":"function","name":"addBusiness","inputs":[{"name":"_id","type":"uint256","internalType":"uint256"},{"name":"_paramAdd","type":"address","internalType":"address"},{"name":"_tokenid","type":"uint256","internalType":"uint256"},{"name":"_qty","type":"uint256","internalType":"uint256"},{"name":"_msgValue","type":"uint256","internalType":"uint256"},{"name":"_type","type":"uint256","internalType":"uint256"}],"outputs":[],"stateMutability":"nonpayable"},{"type":"function","name":"claimIncome","inputs":[{"name":"_id","type":"uint256","internalType":"uint256"},{"name":"_maxint","type":"uint256","internalType":"uint256"}],"outputs":[{"name":"","type":"uint256","internalType":"uint256"},{"name":"","type":"uint256","internalType":"uint256"}],"stateMutability":"nonpayable"},{"type":"function","name":"closemdform","inputs":[{"name":"uid","type":"uint256","internalType":"uint256"}],"outputs":[],"stateMutability":"nonpayable"},{"type":"function","name":"compileRoyality","inputs":[{"name":"prevAge","type":"uint256","internalType":"uint256"},{"name":"_cnt","type":"uint256[7]","internalType":"uint256[7]"}],"outputs":[],"stateMutability":"nonpayable"},{"type":"function","name":"createmdform","inputs":[{"name":"uid","type":"uint256","internalType":"uint256"},{"name":"newpid","type":"uint256","internalType":"uint256"}],"outputs":[],"stateMutability":"nonpayable"},{"type":"function","name":"getBalance","inputs":[],"outputs":[{"name":"","type":"uint256","internalType":"uint256"}],"stateMutability":"view"},{"type":"function","name":"getBatchRankCounts","inputs":[{"name":"ag","type":"uint256","internalType":"uint256"}],"outputs":[{"name":"counts","type":"uint256[8]","internalType":"uint256[8]"}],"stateMutability":"view"},{"type":"function","name":"getDownlineCountByLevel","inputs":[{"name":"uid","type":"uint256","internalType":"uint256"},{"name":"lvl","type":"uint256","internalType":"uint256"}],"outputs":[{"name":"","type":"uint256","internalType":"uint256"}],"stateMutability":"view"},{"type":"function","name":"getHexbase","inputs":[],"outputs":[{"name":"","type":"address","internalType":"address"}],"stateMutability":"view"},{"type":"function","name":"getMoveDownline","inputs":[{"name":"uid","type":"uint256","internalType":"uint256"}],"outputs":[{"name":"newpid","type":"uint256","internalType":"uint256"},{"name":"exist","type":"bool","internalType":"bool"},{"name":"op","type":"bool","internalType":"bool"}],"stateMutability":"view"},{"type":"function","name":"getNode","inputs":[{"name":"_id","type":"uint256","internalType":"uint256"}],"outputs":[{"name":"_i","type":"uint256","internalType":"uint256"},{"name":"_node","type":"address","internalType":"address"},{"name":"_pid","type":"uint256","internalType":"uint256"},{"name":"_inst","type":"address","internalType":"address"},{"name":"_stor","type":"address","internalType":"address"},{"name":"_active","type":"bool","internalType":"bool"},{"name":"_direcCount","type":"uint256","internalType":"uint256"}],"stateMutability":"view"},{"type":"function","name":"getNodeChild","inputs":[{"name":"_id","type":"uint256","internalType":"uint256"},{"name":"inx","type":"uint256","internalType":"uint256"}],"outputs":[{"name":"child","type":"uint256","internalType":"uint256"}],"stateMutability":"view"},{"type":"function","name":"getNodeDirectsCount","inputs":[{"name":"_id","type":"uint256","internalType":"uint256"}],"outputs":[{"name":"count","type":"uint256","internalType":"uint256"}],"stateMutability":"view"},{"type":"function","name":"getNodeInstStor","inputs":[{"name":"_id","type":"uint256","internalType":"uint256"}],"outputs":[{"name":"_inst","type":"address","internalType":"address"},{"name":"_stor","type":"address","internalType":"address"}],"stateMutability":"view"},{"type":"function","name":"getNodeParent","inputs":[{"name":"_user","type":"address","internalType":"address"}],"outputs":[{"name":"","type":"address","internalType":"address"}],"stateMutability":"view"},{"type":"function","name":"getNodeParentId","inputs":[{"name":"_id","type":"uint256","internalType":"uint256"}],"outputs":[{"name":"","type":"uint256","internalType":"uint256"}],"stateMutability":"view"},{"type":"function","name":"getNodeParentwithId","inputs":[{"name":"_user","type":"address","internalType":"address"}],"outputs":[{"name":"","type":"uint256","internalType":"uint256"},{"name":"","type":"address","internalType":"address"}],"stateMutability":"view"},{"type":"function","name":"getNodesCount","inputs":[],"outputs":[{"name":"nodesCount","type":"uint256","internalType":"uint256"}],"stateMutability":"view"},{"type":"function","name":"getRoyalityAmountBatch","inputs":[{"name":"ag","type":"uint256","internalType":"uint256"}],"outputs":[{"name":"royal","type":"uint256[7]","internalType":"uint256[7]"}],"stateMutability":"view"},{"type":"function","name":"getTeamSize","inputs":[{"name":"uid","type":"uint256","internalType":"uint256"}],"outputs":[{"name":"","type":"uint256","internalType":"uint256"}],"stateMutability":"view"},{"type":"function","name":"getTotalTeamSizeWithLevel","inputs":[{"name":"_user","type":"address","internalType":"address"},{"name":"lvl","type":"uint256","internalType":"uint256"}],"outputs":[{"name":"","type":"uint256","internalType":"uint256"},{"name":"","type":"uint256","internalType":"uint256"}],"stateMutability":"view"},{"type":"function","name":"getUserIdToInst","inputs":[{"name":"_id","type":"uint256","internalType":"uint256"}],"outputs":[{"name":"","type":"address","internalType":"address"}],"stateMutability":"view"},{"type":"function","name":"getUserIdToStor","inputs":[{"name":"_id","type":"uint256","internalType":"uint256"}],"outputs":[{"name":"","type":"address","internalType":"address"}],"stateMutability":"view"},{"type":"function","name":"getUserToInst","inputs":[{"name":"node","type":"address","internalType":"address"}],"outputs":[{"name":"","type":"address","internalType":"address"}],"stateMutability":"view"},{"type":"function","name":"getUserToStor","inputs":[{"name":"_user","type":"address","internalType":"address"}],"outputs":[{"name":"","type":"address","internalType":"address"}],"stateMutability":"view"},{"type":"function","name":"getbusiness","inputs":[{"name":"ag","type":"uint256","internalType":"uint256"}],"outputs":[{"name":"","type":"uint256","internalType":"uint256"}],"stateMutability":"view"},{"type":"function","name":"getjoining","inputs":[{"name":"ag","type":"uint256","internalType":"uint256"}],"outputs":[{"name":"","type":"uint256","internalType":"uint256"}],"stateMutability":"view"},{"type":"function","name":"getrankCount","inputs":[{"name":"ag","type":"uint256","internalType":"uint256"},{"name":"rnk","type":"uint256","internalType":"uint256"}],"outputs":[{"name":"count","type":"uint256","internalType":"uint256"}],"stateMutability":"view"},{"type":"function","name":"gettotqty","inputs":[{"name":"ag","type":"uint256","internalType":"uint256"}],"outputs":[{"name":"","type":"uint256","internalType":"uint256"}],"stateMutability":"view"},{"type":"function","name":"getwithdrawn","inputs":[{"name":"ag","type":"uint256","internalType":"uint256"}],"outputs":[{"name":"","type":"uint256","internalType":"uint256"}],"stateMutability":"view"},{"type":"function","name":"importBusiness","inputs":[{"name":"_amt","type":"uint256","internalType":"uint256"},{"name":"_ag","type":"uint256","internalType":"uint256"}],"outputs":[],"stateMutability":"nonpayable"},{"type":"function","name":"importJoining","inputs":[{"name":"_cnt","type":"uint256","internalType":"uint256"},{"name":"_ag","type":"uint256","internalType":"uint256"}],"outputs":[],"stateMutability":"nonpayable"},{"type":"function","name":"importOld","inputs":[{"name":"_id","type":"uint256","internalType":"uint256"},{"name":"_limit","type":"uint256","internalType":"uint256"}],"outputs":[],"stateMutability":"payable"},{"type":"function","name":"importRankNBusiness","inputs":[{"name":"from","type":"uint256","internalType":"uint256"},{"name":"to","type":"uint256","internalType":"uint256"}],"outputs":[],"stateMutability":"nonpayable"},{"type":"function","name":"importWithdrawal","inputs":[{"name":"_amt","type":"uint256","internalType":"uint256"},{"name":"_ag","type":"uint256","internalType":"uint256"}],"outputs":[],"stateMutability":"nonpayable"},{"type":"function","name":"isNode","inputs":[{"name":"_id","type":"uint256","internalType":"uint256"}],"outputs":[{"name":"","type":"bool","internalType":"bool"}],"stateMutability":"view"},{"type":"function","name":"isUserExists","inputs":[{"name":"node","type":"address","internalType":"address"}],"outputs":[{"name":"","type":"bool","internalType":"bool"}],"stateMutability":"view"},{"type":"function","name":"join","inputs":[{"name":"_parent","type":"address","internalType":"address"},{"name":"_user","type":"address","internalType":"address"}],"outputs":[{"name":"_id","type":"uint256","internalType":"uint256"},{"name":"_stor","type":"address","internalType":"address"}],"stateMutability":"nonpayable"},{"type":"function","name":"joinImport","inputs":[{"name":"_parent","type":"address","internalType":"address"},{"name":"_user","type":"address","internalType":"address"}],"outputs":[{"name":"_id","type":"uint256","internalType":"uint256"},{"name":"_stor","type":"address","internalType":"address"}],"stateMutability":"nonpayable"},{"type":"function","name":"moveDownline","inputs":[{"name":"uid","type":"uint256","internalType":"uint256"}],"outputs":[],"stateMutability":"nonpayable"},{"type":"function","name":"nodes","inputs":[{"name":"","type":"uint256","internalType":"uint256"}],"outputs":[{"name":"","type":"address","internalType":"address"}],"stateMutability":"view"},{"type":"function","name":"owner","inputs":[],"outputs":[{"name":"","type":"address","internalType":"address"}],"stateMutability":"view"},{"type":"function","name":"setDefaultRankCount","inputs":[{"name":"_limit","type":"uint256","internalType":"uint256"}],"outputs":[],"stateMutability":"nonpayable"},{"type":"function","name":"syncBaseAddr","inputs":[],"outputs":[],"stateMutability":"nonpayable"},{"type":"function","name":"systemAge","inputs":[],"outputs":[{"name":"","type":"uint256","internalType":"uint256"}],"stateMutability":"view"},{"type":"function","name":"tokenImport","inputs":[{"name":"_id","type":"uint256","internalType":"uint256"},{"name":"mintid","type":"uint256","internalType":"uint256"}],"outputs":[],"stateMutability":"nonpayable"},{"type":"function","name":"updateUsers","inputs":[{"name":"from","type":"address","internalType":"address"},{"name":"to","type":"address","internalType":"address"}],"outputs":[{"name":"_id","type":"uint256","internalType":"uint256"},{"name":"_stor","type":"address","internalType":"address"},{"name":"_parent","type":"address","internalType":"address"}],"stateMutability":"nonpayable"},{"type":"event","name":"EthBurned","inputs":[{"name":"sender","type":"address","indexed":true,"internalType":"address"},{"name":"amount","type":"uint256","indexed":false,"internalType":"uint256"}],"anonymous":false},{"type":"event","name":"EthTransferred","inputs":[{"name":"to","type":"address","indexed":true,"internalType":"address"},{"name":"amount","type":"uint256","indexed":false,"internalType":"uint256"}],"anonymous":false},{"type":"event","name":"HexBaseUpdated","inputs":[{"name":"previousHexBase","type":"address","indexed":true,"internalType":"address"},{"name":"newHexBase","type":"address","indexed":true,"internalType":"address"}],"anonymous":false},{"type":"event","name":"OwnerUpdated","inputs":[{"name":"previousOwner","type":"address","indexed":true,"internalType":"address"},{"name":"newOwner","type":"address","indexed":true,"internalType":"address"}],"anonymous":false},{"type":"error","name":"CallFailed","inputs":[]},{"type":"error","name":"FailedDeployment","inputs":[]},{"type":"error","name":"InsufficientBalance","inputs":[{"name":"balance","type":"uint256","internalType":"uint256"},{"name":"needed","type":"uint256","internalType":"uint256"}]},{"type":"error","name":"InvalidAddress","inputs":[]},{"type":"error","name":"InvalidState","inputs":[]},{"type":"error","name":"NotAuthorized","inputs":[]},{"type":"error","name":"NotSafe","inputs":[]},{"type":"error","name":"ReentrancyGuardReentrantCall","inputs":[]},{"type":"error","name":"TargetCallFailed","inputs":[{"name":"selector","type":"bytes4","internalType":"bytes4"}]}],"bytecode":{"object":"0x6080346200009e57601f62005c3a38819003918201601f19168301916001600160401b03831184841017620000a3578084926020946040528339810103126200009e57516001600160a01b038116908190036200009e5780156200008c5760018060a01b03193381600154161760015560005416176000556001601155604051615b809081620000ba8239f35b60405163e6c4247b60e01b8152600490fd5b600080fd5b634e487b7160e01b600052604160045260246000fdfe60806040526004361015610018575b361561001657005b005b60003560e01c8063033eeffb146103a85780630e5fd00b146103a35780631157a8491461039e57806312065fe01461039957806313508e371461039457806313cf3d551461038f5780631bb49f021461038a5780631c53c280146103855780631f185d16146103805780632a687c871461037b5780632bbae52e146103765780632fefc0bf1461037157806332ff4eab1461036c578063339459a61461036757806333b59a5b146103625780633a7b55b81461035d5780633b9b7955146103585780633baee0ea14610353578063419cb27b1461034e57806342cc9d5714610349578063445850971461034457806344668f231461033f5780634d1ec4521461033a5780634f0f4aa914610335578063509222cd1461033057806350db85d11461032b57806361ea720814610326578063629d671e1461032157806365d2fbd31461031c5780636a811244146103175780636b90905b146103125780636fb412ab1461030d57806376fe6c45146103085780637818cdd71461030357806380f85e33146102fe578063849c22ad146102f9578063896c354a146102f45780638da5cb5b146102ef57806395f72f49146102ea57806398b3f215146102e5578063a1f7f539146102e0578063a89d693b146102db578063af484526146102d6578063b1c49079146102d1578063b366335e146102cc578063b90306ad146102c7578063c43792e3146102c2578063c54e44b0146102bd578063c871372b146102b8578063d1e0bbc6146102b3578063dcb3fc4a146102ae578063e01ad5fd146102a9578063e0a9bc2b146102a4578063eb95c6621461029f578063f3ca71241461029a578063fd38093b146102955763fdc10bc90361000e57613605565b613595565b613569565b61353d565b613522565b613457565b6132e7565b6132ad565b61322e565b6131a8565b61317c565b61306e565b612ff8565b612eda565b612ea9565b612d8a565b612ce6565b612cba565b612c44565b612c1d565b612bdd565b612bae565b612b74565b612b1b565b6129fd565b612867565b61272a565b61230e565b611e1b565b611ddd565b611dbf565b611c71565b611c1d565b611b38565b611ad7565b611ab9565b611a81565b611a52565b611a1e565b611592565b611543565b6113d7565b6111d0565b610af9565b610a83565b610a4b565b610a02565b610965565b61087a565b610845565b6107ee565b61057c565b610533565b610517565b61043a565b6103ea565b346103d45760203660031901126103d45760043560005260196020526020604060002054604051908152f35b600080fd5b6001600160a01b038116036103d457565b346103d45760203660031901126103d4576020600435610409816103d9565b6001600160a01b03809116600052601282526040600020546000526015825260046040600020015416604051908152f35b346103d45760203660031901126103d457600435610456613891565b600090808252601560205261047460ff600160408520015416614202565b338252601260205261048b60408320548214614202565b808252601e60205260ff600160408420015416156104d3576104ba6104c691600052601e602052604060002090565b60016000918281550155565b6104d06001601155565b80f35b606460405162461bcd60e51b815260206004820152601360248201527f6e65737465642e7265712e6e6f746578697374000000000000000000000000006044820152fd5b346103d45760003660031901126103d457602047604051908152f35b346103d45760203660031901126103d457600435600052601e6020526060604060002060ff600182549201546040519283528181161515602084015260081c1615156040820152f35b346103d4576020806003193601126103d457600490813561059b613891565b6105c46105bf60016105b7846000526015602052604060002090565b015460ff1690565b614074565b6106016105fa6105ee6105e1846000526013602052604060002090565b546001600160a01b031690565b6001600160a01b031690565b3314614202565b816106176105ee6000546001600160a01b031690565b6040519485809263111ea8c160e21b82525afa9283156107e9576000936107ba575b506106976106756106576105e1846000526013602052604060002090565b6040519182918683019190916001600160a01b036020820193169052565b0394610689601f1996878101845283612ad8565b61069161426e565b906159c6565b906001600160a01b0382161515806107b0575b6106b9575b6100166001601155565b6107a69361074461073261073e6106f060046106e26107a1976000526015602052604060002090565b01546001600160a01b031690565b6040517f4fb2e45d00000000000000000000000000000000000000000000000000000000898201526001600160a01b0390911660248201529182906044820190565b03848101835282612ad8565b84615a85565b507fa3e884b000000000000000000000000000000000000000000000000000000000604051948501528361079560248201906007606060808401936000815260006020820152600060408201520152565b03908101845283612ad8565b615a85565b50388080806106af565b50813115156106aa565b6107db919350823d84116107e2575b6107d38183612ad8565b81019061424d565b9138610639565b503d6107c9565b614262565b346103d45760203660031901126103d457602060043561080d816103d9565b60406001600160a01b039182600091168152601284528181205481526015845260028282200154815260138452205416604051908152f35b346103d45760203660031901126103d457600435600052601360205260206001600160a01b0360406000205416604051908152f35b346103d4576020806003193601126103d4576108f960043561089b816103d9565b6001600160a01b038060025416906040519216848301528382526108be82612a84565b604051906108cb82612a84565b601182527f69735369676e657228616464726573732900000000000000000000000000000085830152615984565b91908061095b575b1561093157818161091b9261092d94518301019101615716565b60405190151581529081906020820190565b0390f35b60046040517f3204506f000000000000000000000000000000000000000000000000000000008152fd5b5080825114610901565b346103d45760403660031901126103d45760243561098161572e565b156109f15761098f336157b3565b80156109dd575b156109cc57600090808252601a60205260408220549060043582018092116109c7578252601a602052604082205580f35b613860565b600460405163ea8e4eb560e01b8152fd5b50336001600160a01b036005541614610996565b6004604051634ee2123760e11b8152fd5b346103d45760203660031901126103d457600480356000908152601560209081526040918290209283015460059093015482516001600160a01b03948516815293169083015290f35b346103d45760203660031901126103d457600435600052601560205260206001600160a01b0360056040600020015416604051908152f35b346103d45760403660031901126103d457602435610a9f61572e565b156109f157610aad336157b3565b8015610ae5575b156109cc57600090808252601d60205260408220549060043582018092116109c7578252601d602052604082205580f35b50336001600160a01b036005541614610ab4565b346103d45760003660031901126103d457610b1f6105ee6000546001600160a01b031690565b604051907f97f3815a000000000000000000000000000000000000000000000000000000008252602082600481845afa9182156107e9576000926111af575b50604051917fcfbffe53000000000000000000000000000000000000000000000000000000008352602083600481855afa9283156107e95760009361118e575b50604051907fab6e844f000000000000000000000000000000000000000000000000000000008252602082600481865afa9182156107e95760009261116d575b50604051917f14d8d024000000000000000000000000000000000000000000000000000000008352602083600481875afa9283156107e95760009361114c575b50604051927fd1f956b1000000000000000000000000000000000000000000000000000000008452602084600481885afa9384156107e95760009461112b575b50604051937fe61dfd58000000000000000000000000000000000000000000000000000000008552602085600481895afa9485156107e95760009561110a575b506040517fe09d394d0000000000000000000000000000000000000000000000000000000081526020816004818a5afa9081156107e9576000916110eb575b506040517f52b06d640000000000000000000000000000000000000000000000000000000081526020816004818b5afa9081156107e9576000916110cc575b506040517f013cf08b00000000000000000000000000000000000000000000000000000000815260006004820152916020836024818c5afa9283156107e9576000936110ab575b50604051977f5e09dbe70000000000000000000000000000000000000000000000000000000089526020896004818d5afa9485156107e95760049960009661108a575b5060208b6040519b8c80927faa0ddc160000000000000000000000000000000000000000000000000000000082525afa9687156107e95760049a600098611069575b5060208c6040519c8d80927f640274270000000000000000000000000000000000000000000000000000000082525afa9889156107e95760049b60009a611048575b5060208d6040519d8e80927f30125cf50000000000000000000000000000000000000000000000000000000082525afa9a8b156107e9578d60049d60009d611026575b506020906040519e8f80927f24768d910000000000000000000000000000000000000000000000000000000082525afa9c8d156107e95760009d611005575b50604051809e81907f9dc969a80000000000000000000000000000000000000000000000000000000082525a92600491602094fa9d8e156107e95760009e610fe4575b50610ef8612afa565b6001600160a01b0390911681529d8e906001600160a01b0316602082015260400190610f2c91906001600160a01b03169052565b6001600160a01b031660608d01526001600160a01b031660808c01526001600160a01b031660a08b01526001600160a01b031660c08a01526001600160a01b031660e08901526001600160a01b03166101008801526001600160a01b03166101208701526001600160a01b03166101408601526001600160a01b03166101608501526001600160a01b03166101808401526001600160a01b03166101a08301526001600160a01b03166101c082015261001690615415565b610ffe919e5060203d6020116107e2576107d38183612ad8565b9c38610eef565b61101f919d5060203d6020116107e2576107d38183612ad8565b9b38610eac565b6020919d5061104190823d84116107e2576107d38183612ad8565b9c90610e6d565b611062919a5060203d6020116107e2576107d38183612ad8565b9838610e2a565b61108391985060203d6020116107e2576107d38183612ad8565b9638610de8565b6110a491965060203d6020116107e2576107d38183612ad8565b9438610da6565b6110c591935060203d6020116107e2576107d38183612ad8565b9138610d63565b6110e5915060203d6020116107e2576107d38183612ad8565b38610d1c565b611104915060203d6020116107e2576107d38183612ad8565b38610cdd565b61112491955060203d6020116107e2576107d38183612ad8565b9338610c9e565b61114591945060203d6020116107e2576107d38183612ad8565b9238610c5e565b61116691935060203d6020116107e2576107d38183612ad8565b9138610c1e565b61118791925060203d6020116107e2576107d38183612ad8565b9038610bde565b6111a891935060203d6020116107e2576107d38183612ad8565b9138610b9e565b6111c991925060203d6020116107e2576107d38183612ad8565b9038610b5e565b346103d4576040806003193601126103d4576024356111ed61572e565b15611399576111fb336157b3565b8015611385575b156113755760009161121e6105ee84546001600160a01b031690565b8151809163111ea8c160e21b825281600460209485935afa9081156107e9578591611358575b5084916004355b85811115611257578680f35b8451828101828152819003808252601f19916112889161127a9060200182612ad8565b6112826153a3565b86615a17565b61129c83600052601a602052604060002090565b55875b600881106112b75750506112b290613b61565b61124b565b8651848101848152602081018390526112ee91906112e090829060400103858101835282612ad8565b6112e86153dc565b87615a17565b811561132c575b906113279161132182611312876000526016602052604060002090565b90600052602052604060002090565b55613b61565b61129f565b959061133b611327928861395a565b61134f85600052601d602052604060002090565b559050856112f5565b61136f9150823d84116107e2576107d38183612ad8565b38611244565b6004825163ea8e4eb560e01b8152fd5b50336001600160a01b036005541614611202565b60048251634ee2123760e11b8152fd5b60e0810192916000915b600783106113c057505050565b6001908251815260208091019201920191906113b3565b346103d45760203660031901126103d45761092d6004356115316115216040519261140184612aa0565b60e036853761142d61141d826000526017602052604060002090565b6001600052602052604060002090565b548452611457611447826000526017602052604060002090565b6002600052602052604060002090565b546020850152611484611474826000526017602052604060002090565b6003600052602052604060002090565b5460408501526114b16114a1826000526017602052604060002090565b6004600052602052604060002090565b5460608501526114de6114ce826000526017602052604060002090565b6005600052602052604060002090565b54608085015261150b6114fb826000526017602052604060002090565b6006600052602052604060002090565b5460a08501526000526017602052604060002090565b6007600052602052604060002090565b5460c0820152604051918291826113a9565b346103d45760003660031901126103d45760206001600160a01b0360005416604051908152f35b60409060031901126103d457600435611582816103d9565b9060243561158f816103d9565b90565b346103d4576115a03661156a565b6115a8613891565b61092d6115f36115c76115b961364f565b6115c1613667565b336159c6565b6116136115dd6115d561364f565b6115c16136a0565b6001600160a01b039386851693851684146136d9565b8361160b6105ee82600054166001600160a01b031690565b911614613724565b61161e811515614121565b61163b846001600160a01b03166000526012602052604060002090565b54158015611a13575b61164d9061416c565b61167561166d866001600160a01b03166000526012602052604060002090565b5415156141b7565b6116ab60056106e261169a886001600160a01b03166000526012602052604060002090565b546000526015602052604060002090565b6040517f880cdc310000000000000000000000000000000000000000000000000000000060208201526001600160a01b03861660248201529092906117049080604481015b03946107a1601f1996878101845283612ad8565b5061172d6105ee60046106e261169a8a6001600160a01b03166000526012602052604060002090565b6119a0575b61174f866001600160a01b03166000526012602052604060002090565b5461176d866001600160a01b03166000526012602052604060002090565b556117be856117a3611792896001600160a01b03166000526012602052604060002090565b546000526013602052604060002090565b906001600160a01b03166001600160a01b0319825416179055565b6118003360046117e461169a896001600160a01b03166000526012602052604060002090565b01906001600160a01b03166001600160a01b0319825416179055565b85161415908161197b575b611828846001600160a01b03166000526012602052604060002090565b549361184360056106e2876000526015602052604060002090565b956118726105e16002611860896000526015602052604060002090565b01546000526013602052604060002090565b9315611913576107a16118dd936118916009546001600160a01b031690565b6040517fe3d1d5bf0000000000000000000000000000000000000000000000000000000060208201526001600160a01b0394851660248201529490931660448501528360648101610795565b505b6118e96001601155565b60405193849384916040919493606084019584526001600160a01b03809216602085015216910152565b61079591506107a1611975936119316009546001600160a01b031690565b6040517f9498d88b0000000000000000000000000000000000000000000000000000000060208201526001600160a01b039094166024850152929384906044820190565b506118df565b600061199a866001600160a01b03166000526012602052604060002090565b5561180b565b611a0d6119c860046106e261169a8a6001600160a01b03166000526012602052604060002090565b6040517f0399c93c000000000000000000000000000000000000000000000000000000006020820152336024820152906107a182604481015b03878101845283612ad8565b50611732565b508482168114611644565b346103d45760203660031901126103d4576004356000526015602052602060ff600160406000200154166040519015158152f35b346103d45760203660031901126103d45760043560005260156020526020600360406000200154604051908152f35b346103d45760203660031901126103d457600435600052601560205260206001600160a01b0360046040600020015416604051908152f35b346103d45760003660031901126103d4576020601f54604051908152f35b346103d45760203660031901126103d457600435611af4816103d9565b6001600160a01b0390811660009081526012602090815260408083205483526015825280832060020154808452601383529281902054815193845290931690820152f35b346103d45760203660031901126103d457600435806000526015602052604060002054601360205261092d6001600160a01b0380604060002054169360156020526040600020916004600284015493015416611ba360056106e2846000526015602052604060002090565b906003611bd3611bc260016105b7876000526015602052604060002090565b946000526015602052604060002090565b01549360405197889788939160c09591989796939260e086019986526001600160a01b03938480931660208801526040870152166060850152166080830152151560a08201520152565b346103d45760203660031901126103d4576001600160a01b03600435611c42816103d9565b1660005260126020526040600020546000526015602052602060ff600160406000200154166040519015158152f35b346103d457611c7f3661156a565b90611c8861572e565b156109f157611c96336157b3565b8015611dab575b156109cc5781611cb491611caf613891565b613b70565b806000526015602052611d7d611d03611d77611d33611d24611ce560056040600020016001600160a01b0390541690565b604080516001600160a01b0390991660208a01529097948591820190565b0393611d17601f1995868101835282612ad8565b611d1f6138cc565b6158bf565b60208082518301019101613905565b6040517f654c668e00000000000000000000000000000000000000000000000000000000602082015260248101929092526044820152606492830181529182612ad8565b83615a85565b50611d87816140bf565b611d916001601155565b604080519182526001600160a01b03929092166020820152f35b50336001600160a01b036005541614611c9d565b346103d45760003660031901126103d4576020601454604051908152f35b346103d45760203660031901126103d4576001600160a01b03600435611e02816103d9565b1660005260126020526020604060002054604051908152f35b346103d4576020806003193601126103d457600435611e38613891565b6001611e556105bf826105b7856000526015602052604060002090565b611e7d611e75336001600160a01b03166000526012602052604060002090565b548314614202565b611e9182600052601e602052604060002090565b918183019260ff8454611ea5828216614490565b60081c166121235750600291611ed283611ec9846000526015602052604060002090565b01541515614526565b6000815b611ff2575b505090611f9782611f746106af966001600160a01b03611f2260056106e288611f1060009b6000526015602052604060002090565b01546000526015602052604060002090565b16611fa8575b611f4160056106e2856000526015602052604060002090565b631867546560e21b604051928301526107a182611f6660248201906001602083019252565b03601f198101845283612ad8565b508454611f879060081c60ff16826145be565b6000526015602052604060002090565b0155805461ff001916610100179055565b611fec611fc860056106e288611f10886000526015602052604060002090565b604051636f58dd0f60e11b8482015260006024820152906107a18260448101611f66565b50611f28565b60038061200d86611f10876000526015602052604060002090565b015482101561211d578361204761203d84846120378a611f10876000526015602052604060002090565b01613f33565b90549060031b1c90565b1461205c575061205690613b61565b81611ed6565b611f9792506106af96612113826120f587956120dc6120c261203d896120bc8760009f9e8f611f10611f749e6120a383611f106120b5966000526015602052604060002090565b01956000526015602052604060002090565b015461394b565b90613f33565b91846120378c611f108c6000526015602052604060002090565b90919082549060031b91821b91600019901b1916179055565b61210d87611f10876000526015602052604060002090565b01614571565b9650509192611edb565b50611edb565b8192509361223e946121cd6121c76104ba96612159600261215161222d986000526015602052604060002090565b0154156144db565b61219387600361218d875480600261217b866000526015602052604060002090565b01556000526015602052604060002090565b01613f50565b83546001600160a01b036121b660056106e2846000526015602052604060002090565b166122c7575b505460081c60ff1690565b856145be565b6121e96105ee60046106e2876000526015602052604060002090565b612243575b5061220860056106e2856000526015602052604060002090565b631867546560e21b604051928301526107a182611f6660248201906000602083019252565b50600052601e602052604060002090565b6106af565b611f666122c0916107a161227e6105e161226c60046106e28b6000526015602052604060002090565b93546000526013602052604060002090565b6040517f1499c59200000000000000000000000000000000000000000000000000000000878201526001600160a01b0390911660248201529283906044820190565b50386121ee565b6122e360056106e2612307936000526015602052604060002090565b604051636f58dd0f60e11b8882015260016024820152906107a18260448101611f66565b50386121bc565b346103d4576040806003193601126103d45760043561232b613891565b6123476105bf60016105b7846000526015602052604060002090565b61236d6123666105ee60046106e2856000526015602052604060002090565b33146143af565b61237561391b565b61092d61010061239460056106e2856000526015602052604060002090565b6124b8601f549486805193826123fb6123ed6020977f02a085f20000000000000000000000000000000000000000000000000000000089820152806116f060249d8e803590840160209093929193604081019481520152565b87808251830101910161493a565b9889519261240e888c0194855190613884565b978b61241f8782019a8b5190613884565b61242f6060830191825190613884565b906124406080840192835190613884565b97868a8961245460a088019c8d5190613884565b9661246d61246860c08301998a5190613884565b615349565b8881516126ae575b50509091508251612635575b50505080516125c4575b50805161255a575b506124a18651825190613884565b6124dd575b5050505050505060e086015190614a6b565b51920151926124c76001601155565b5191825260208201929092529081906040820190565b61254d9663a9059cbb60e01b966107a1956125286107959461251e6105e161250d600f546001600160a01b031690565b9b6000526013602052604060002090565b9351905190613884565b92519889958601528401602090939291936001600160a01b0360408201951681520152565b50863882818080806124a6565b6125bd906125706010546001600160a01b031690565b6107a161258a6105e18a6000526013602052604060002090565b92518b5163a9059cbb60e01b888201526001600160a01b0390941689850190815260208101919091528390604001611a01565b5038612493565b61262e906125da600c546001600160a01b031690565b6107a16125f46105e18b6000526013602052604060002090565b92518c5163a9059cbb60e01b898201526001600160a01b039094168a85019081526020810191909152839060400103888101845283612ad8565b503861248b565b6107a16126a5936126996126686105e1612657600e546001600160a01b031690565b956000526013602052604060002090565b9151945194859263a9059cbb60e01b8c8501528d8401602090939291936001600160a01b0360408201951681520152565b03898101845283612ad8565b50388988612481565b61271263a9059cbb60e01b946107a19361271e976126eb6105e16126da600d546001600160a01b031690565b986000526013602052604060002090565b915192519788958601528401602090939291936001600160a01b0360408201951681520152565b038a8101845283612ad8565b508f8a89899288612475565b346103d45760403660031901126103d45760043560243561274961572e565b156109f157612757336157b3565b8015612853575b156109cc576128256106af92612772613891565b8060005260156020526127916105bf600160406000200160ff90541690565b6127b26127ad60016105b7866000526015602052604060002090565b6143fa565b61281561280b6127fc6127d460056106e2886000526015602052604060002090565b604051906127ee82611f6660208201906000602083019252565b6127f66137ba565b906158e9565b602080825183010191016137f3565b5050501515613815565b600052601e602052604060002090565b90600182019161284561284061283c855460ff1690565b1590565b614445565b55805460ff19166001179055565b50336001600160a01b03600554161461275e565b346103d45760403660031901126103d457600435602435612886613891565b6128a26105bf60016105b7856000526015602052604060002090565b6128bf6105fa6105ee6105e1856000526013602052604060002090565b6128f16128db60056106e2856000526015602052604060002090565b6128e36142a7565b6128eb61363c565b916158e9565b90806129076020938480825183010191016142e0565b1015612917576100166001601155565b826129ee6001600160a01b03927ff526f68a00000000000000000000000000000000000000000000000000000000946129e26129c76105e16129b26129a461298861297460056106e26129f49f6000526015602052604060002090565b976040519182918983019190602083019252565b039761299c601f19998a8101845283612ad8565b6127f66142ef565b858082518301019101614328565b99925050506000526013602052604060002090565b6129cf61364f565b9060405198899485015260248401614373565b03908101855284612ad8565b16615a85565b503880806106af565b346103d45760203660031901126103d4576020600435612a1c816103d9565b6001600160a01b03809116600052601282526040600020546000526015825260056040600020015416604051908152f35b634e487b7160e01b600052604160045260246000fd5b6060810190811067ffffffffffffffff821117612a7f57604052565b612a4d565b6040810190811067ffffffffffffffff821117612a7f57604052565b60e0810190811067ffffffffffffffff821117612a7f57604052565b6020810190811067ffffffffffffffff821117612a7f57604052565b90601f8019910116810190811067ffffffffffffffff821117612a7f57604052565b604051906101e0820182811067ffffffffffffffff821117612a7f57604052565b346103d4576101003660031901126103d45736604312156103d457604051612b4281612aa0565b610104813682116103d4576024905b828210612b645761001684600435615049565b8135815260209182019101612b51565b346103d45760403660031901126103d457600435600052601660205260406000206024356000526020526020604060002054604051908152f35b346103d45760203660031901126103d45760043560005260156020526020600260406000200154604051908152f35b346103d45760403660031901126103d45760043560005260156020526020612c0e6024356003604060002001613f33565b90549060031b1c604051908152f35b346103d45760003660031901126103d45760206001600160a01b0360015416604051908152f35b346103d45760403660031901126103d457602435612c6061572e565b156109f157612c6e336157b3565b8015612ca6575b156109cc57600090808252601c60205260408220549060043582018092116109c7578252601c602052604082205580f35b50336001600160a01b036005541614612c75565b346103d45760203660031901126103d457600435600052601d6020526020604060002054604051908152f35b346103d45760003660031901126103d4576020612d536001600160a01b0360065416604051612d1481612a84565b601381527f67657464656c656761746f72436f756e742829000000000000000000000000008482015260405191612d4a83612abc565b60008352615a17565b604051908152f35b610100810192916000915b60088310612d7357505050565b600190825181526020809101920192019190612d66565b346103d45760203660031901126103d45761092d600435612e97611521612daf6152cc565b92612dd6612dc7826000526016602052604060002090565b60008052602052604060002090565b548452612df061141d826000526016602052604060002090565b546020850152612e0d611447826000526016602052604060002090565b546040850152612e2a611474826000526016602052604060002090565b546060850152612e476114a1826000526016602052604060002090565b546080850152612e646114ce826000526016602052604060002090565b5460a0850152612e816114fb826000526016602052604060002090565b5460c08501526000526016602052604060002090565b5460e082015260405191829182612d5b565b346103d45760203660031901126103d4576020612ed0600435612ecb816103d9565b6157b3565b6040519015158152f35b346103d457612fa7612eeb3661156a565b90612ef4613891565b612f3d612f026115b961364f565b612f0d6115d561364f565b90612f266001600160a01b0391828088169116146136d9565b61160b6105ee82600054166001600160a01b031690565b612f6a612f6560016105b761169a856001600160a01b03166000526012602052604060002090565b61376f565b612f9861280b6127fc6127d460056106e261169a876001600160a01b03166000526012602052604060002090565b612fa061391b565b3390613d78565b612fc0612dc7601f546000526016602052604060002090565b612fca8154613876565b9055612fd4615375565b612fed60056106e2836000526015602052604060002090565b90611d916001601155565b346103d45760203660031901126103d45761301161572e565b156109f15761301f336157b3565b801561305a575b156109cc5761303361583d565b601f541061304a575b610016600435601f54613967565b61305261583d565b601f5561303c565b50336001600160a01b036005541614613026565b346103d45760203660031901126103d45760043561308a61572e565b156109f1576001600160a01b036005541633036109cc57600090600460206130bc6105ee85546001600160a01b031690565b604051928380927f46f991ac0000000000000000000000000000000000000000000000000000000082525afa80156107e9578380848194938294839161315e575b505af161310861588f565b5015610931577fcdcc745fe377b103b45fa0cec23ae3ef93d6fc6a84a01f0d18c40b354dd1d5d86131586131476105ee600b546001600160a01b031690565b604051938452929081906020820190565b0390a280f35b613176915060203d81116107e2576107d38183612ad8565b386130fd565b346103d45760203660031901126103d457600435600052601b6020526020604060002054604051908152f35b346103d45760203660031901126103d4576004356131c5816103d9565b803b60006131d282613620565b926131e06040519485612ad8565b82845260208401903c602d81511061320457602a602091015160601c604051908152f35b60046040517fbaf3f0f7000000000000000000000000000000000000000000000000000000008152fd5b60403660031901126103d457600435613245613891565b600090808252601560205261326360ff600160408520015416614074565b815260156020526132a46001600160a01b036005604084200154166040519063d3abb8a360e01b60208301526024356024830152602482526107a182612a63565b50600160115580f35b346103d45760403660031901126103d457600435600052601860205260406000206024356000526020526020604060002054604051908152f35b346103d45760c03660031901126103d4576106af60043560243561330a816103d9565b606435916133fb611d2460843593613320613891565b61333c6105bf60016105b7876000526015602052604060002090565b61335b6123666105ee60046106e2886000526015602052604060002090565b61336361391b565b61336c856152f1565b6133758661531d565b61338e60056106e2866000526015602052604060002090565b601f546040517fa66303040000000000000000000000000000000000000000000000000000000060208201526001600160a01b039093166024840152604480359084015260648301889052608483019690965260a480359083015260c48201959095528060e481016116f0565b9281613409575b5050614d8d565b61344f916107a161079592613426600b546001600160a01b031690565b60405163a9059cbb60e01b60208201523360248201526044810194909452929384906064820190565b503880613402565b346103d4576020806003193601126103d45761092d906004359061347a826103d9565b6134de6001600160a01b03928360065416936040519116838201528281526134a181612a84565b6040516134ad81612a84565b601881527f697364656c656761746f724e6f6465286164647265737329000000000000000084820152600094615984565b919080613518575b6134ff575b505060405190151581529081906020820190565b61351192508082518301019101615716565b38806134eb565b50808251146134e6565b346103d45760003660031901126103d4576020612ed061572e565b346103d45760203660031901126103d457600435600052601a6020526020604060002054604051908152f35b346103d45760203660031901126103d457600435600052601c6020526020604060002054604051908152f35b346103d4576040806003193601126103d4576001600160a01b036004356135bb816103d9565b166000818152601260208181528483205483526019815284832054938352908152838220548252601881528382206024358352815290839020549251918252810191909152604090f35b346103d45760003660031901126103d4576020612d5361583d565b67ffffffffffffffff8111612a7f57601f01601f191660200190565b6040519061364982612abc565b60008252565b60405161365b81612abc565b60008152906000368137565b6040519061367482612a84565b600782527f6f776e65722829000000000000000000000000000000000000000000000000006020830152565b604051906136ad82612a84565b600c82527f67657448657862617365282900000000000000000000000000000000000000006020830152565b156136e057565b606460405162461bcd60e51b815260206004820152601760248201527f6e65737465642e696e76616c69642e696e7374616e63650000000000000000006044820152fd5b1561372b57565b606460405162461bcd60e51b815260206004820152601660248201527f6e65737465642e696e76616c69642e68657862617365000000000000000000006044820152fd5b1561377657565b606460405162461bcd60e51b815260206004820152601860248201527f6e65737465642e706172656e742e6e6f742e65786973747300000000000000006044820152fd5b604051906137c782612a84565b601282527f6765744e6f64654c422875696e743235362900000000000000000000000000006020830152565b91908260809103126103d4578151916020810151916060604083015192015190565b1561381c57565b606460405162461bcd60e51b815260206004820152601960248201527f6e65737465642e706172656e742e6e6f2e627573696e657373000000000000006044820152fd5b634e487b7160e01b600052601160045260246000fd5b90600182018092116109c757565b919082018092116109c757565b6002601154146138a2576002601155565b60046040517f3ee5aeb5000000000000000000000000000000000000000000000000000000008152fd5b604051906138d982612a84565b601582527f676574436c61696d496e666f28616464726573732900000000000000000000006020830152565b91908260409103126103d4576020825192015190565b61392361583d565b601f541061393b575b613939601e601f54613967565b565b61394361583d565b601f5561392c565b6000198101919082116109c757565b919082039182116109c757565b9061397f612dc7836000526016602052604060002090565b541580613b0c575b80613b03575b613995575050565b6139b1906139ab6139a58461394b565b9161394b565b90613967565b6139d0612dc76139c08361394b565b6000526016602052604060002090565b546139e8612dc7836000526016602052604060002090565b556139f861141d6139c08361394b565b54613a1061141d836000526016602052604060002090565b55613a206114476139c08361394b565b54613a38611447836000526016602052604060002090565b55613a486114746139c08361394b565b54613a60611474836000526016602052604060002090565b55613a706114a16139c08361394b565b54613a886114a1836000526016602052604060002090565b55613a986114ce6139c08361394b565b54613ab06114ce836000526016602052604060002090565b55613ac06114fb6139c08361394b565b54613ad86114fb836000526016602052604060002090565b55613b00611521613aee6115216139c08561394b565b54926000526016602052604060002090565b55565b5080151561398d565b5060018211613987565b15613b1d57565b606460405162461bcd60e51b815260206004820152601560248201527f6e65737465642e616c72656164792e65786973747300000000000000000000006044820152fd5b60001981146109c75760010190565b90613ba1613b9c61283c60016105b761169a866001600160a01b03166000526012602052604060002090565b613b16565b613bb4613baf601454613b61565b601455565b613c0b60145492613bd3836117a3866000526013602052604060002090565b83613bf1846001600160a01b03166000526012602052604060002090565b556001600160a01b03166000526012602052604060002090565b5490613c178383613f78565b613c416004613c30856000526015602052604060002090565b016001600160a01b03198154169055565b613c74613c5e613c596008546001600160a01b031690565b613e9d565b60056117e4866000526015602052604060002090565b613cf5613c9060056106e2866000526015602052604060002090565b91613ca66105ee6000546001600160a01b031690565b60405163134bd3bd60e11b60208201526001600160a01b0391821660248201529116604482015260648101859052600060848201528060a481015b03926107a1601f1994858101845283612ad8565b5081151580613d4e575b613d0857505090565b613d2460056106e2613d4a946000526015602052604060002090565b604051636f58dd0f60e11b602082015260016024820152916107a1908360448101610795565b5090565b506001600160a01b03613d7060056106e2856000526015602052604060002090565b161515613cff565b91613da4613b9c61283c60016105b761169a866001600160a01b03166000526012602052604060002090565b613db2613baf601454613b61565b613e14613df260145494613dd4846117a3886000526013602052604060002090565b85613bf1856001600160a01b03166000526012602052604060002090565b5492613dfe8585613f78565b60046117e4866000526015602052604060002090565b613e2c613c5e613c596008546001600160a01b031690565b613cf5613e4860056106e2866000526015602052604060002090565b91613e5e6105ee6000546001600160a01b031690565b60405163134bd3bd60e11b60208201526001600160a01b0391821660248201529116604482015260648101859052600160848201528060a48101613ce1565b6e5af43d82803e903d91602b57fd5bf390763d602d80600a3d3981f3363d3d373d3d3d363d7300000062ffffff8260881c161760005260781b17602052603760096000f0906001600160a01b03821615613ef357565b60046040517fb06ebf3d000000000000000000000000000000000000000000000000000000008152fd5b634e487b7160e01b600052603260045260246000fd5b8054821015613f4b5760005260206000200190600090565b613f1d565b9081549168010000000000000000831015612a7f57826120dc91600161393995018155613f33565b91909160009280845260209160158352604080862095600294838689015584600198613fad8a8201600160ff19825416179055565b5587613fc3866000526018602052604060002090565b83805282528489858520555b613fde57505050505050509050565b61404c61403b828b8a9414614055575b614002886000526018602052604060002090565b81875285528686206140148154613876565b905561402a886000526019602052604060002090565b6140348154613876565b9055613b61565b956000526015602052604060002090565b01549384613fcf565b61406f89600361218d8b6000526015602052604060002090565b613fee565b1561407b57565b606460405162461bcd60e51b815260206004820152601560248201527f6e65737465642e757365722e6e6f7461637469766500000000000000000000006044820152fd5b8060005260156020526140dc60ff60016040600020015416614074565b600052601560205261411e6001600160a01b03600560406000200154166040519063d3abb8a360e01b602083015260016024830152602482526107a182612a63565b50565b1561412857565b606460405162461bcd60e51b815260206004820152601360248201527f6e65737465642e7a65726f2e61646472657373000000000000000000000000006044820152fd5b1561417357565b606460405162461bcd60e51b815260206004820152601460248201527f6e65737465642e7461726765742e6578697374730000000000000000000000006044820152fd5b156141be57565b606460405162461bcd60e51b815260206004820152601760248201527f6e65737465642e736f757263652e6e6f744578697374730000000000000000006044820152fd5b1561420957565b606460405162461bcd60e51b815260206004820152601560248201527f6e65737465642e696e76616c69642e73656e64657200000000000000000000006044820152fd5b908160209103126103d4575161158f816103d9565b6040513d6000823e3d90fd5b6040519061427b82612a84565b601382527f55736572546f496e7374286164647265737329000000000000000000000000006020830152565b604051906142b482612a84565b600b82527f6d696e74436f756e7428290000000000000000000000000000000000000000006020830152565b908160209103126103d4575190565b604051906142fc82612a84565b600e82527f6d696e74732875696e74323536290000000000000000000000000000000000006020830152565b91908260809103126103d4578151916020810151916060604083015192015161158f816103d9565b60005b8381106143635750506000910152565b8181015183820152602001614353565b90916001600160a01b03606093168252604060208301526143a38151809281604086015260208686019101614350565b601f01601f1916010190565b156143b657565b606460405162461bcd60e51b815260206004820152601b60248201527f6e65737465642e757365722e696e76616c6964696e7374616e636500000000006044820152fd5b1561440157565b606460405162461bcd60e51b815260206004820152601560248201527f6e65737465642e696e76616c69642e706172656e7400000000000000000000006044820152fd5b1561444c57565b606460405162461bcd60e51b815260206004820152601760248201527f6e65737465642e7265712e616c726561647965786973740000000000000000006044820152fd5b1561449757565b606460405162461bcd60e51b815260206004820152601460248201527f6e65737465642e7265712e6e6f746578697374730000000000000000000000006044820152fd5b156144e257565b606460405162461bcd60e51b815260206004820152601860248201527f6e65737465642e757365722e6e6f742e646574616368656400000000000000006044820152fd5b1561452d57565b606460405162461bcd60e51b815260206004820152601c60248201527f6e65737465642e757365722e616c72656164792e6465746163686564000000006044820152fd5b805490811561459b576000199182019161458b8383613f33565b909182549160031b1b1916905555565b634e487b7160e01b600052603160045260246000fd5b80156109c7576000190190565b906145dc6145d6836000526019602052604060002090565b54613876565b91600290816145f5826000526015602052604060002090565b0154906001938492835b61460d575b50505050505050565b600f8085111580614931575b1561492b578590600561463d6105ee826106e2876000526015602052604060002090565b61466a575b505061465b614663926000526015602052604060002090565b015493613b61565b92856145ff565b865b828111156147655750505061465b6146639284600014614702576146b461469d876000526018602052604060002090565b6146a68961394b565b600052602052604060002090565b546146d86146d089611312856000526018602052604060002090565b918254613884565b90556146ee816000526019602052604060002090565b6146f98b8254613884565b90555b92614642565b61471961469d876000526018602052604060002090565b5461473d61473589611312856000526018602052604060002090565b91825461395a565b9055614753816000526019602052604060002090565b61475e8b825461395a565b90556146fc565b90919250614781826106e2886000526015602052604060002090565b61478b888361395a565b604091876147cd6147bf8551806147ab6020978883019190602083019252565b03946127ee601f1996878101845283612ad8565b8480825183010191016137f3565b50509290878a821580614923575b614912579261486394926107956148086107a1946106e26148709b9a986000526015602052604060002090565b94601f9a8c8c5491519889957f7b058ac1000000000000000000000000000000000000000000000000000000008d8801526024870193909594919260809360a086019786526020860152604085015260608401521515910152565b8051810182019101613905565b9087156148c8575b8082116148955750505061488c905b613b61565b9087929161466c565b61489e90613b61565b6148b78161131285546000526016602052604060002090565b6148c18154613876565b9055614878565b9190915b8281116148df5750505061488c90613b61565b806148fc61490d9261131285546000526016602052604060002090565b614906815461394b565b90556145b1565b6148cc565b505050505050505061488c90613b61565b5085156147db565b50614604565b50811515614619565b9061012080838303126103d45781601f840112156103d4576040519281840184811067ffffffffffffffff821117612a7f57604052839181019283116103d457905b8282106149895750505090565b815181526020918201910161497c565b604051906149a682612a84565b600f82527f66726565496e74657276616c73282900000000000000000000000000000000006020830152565b604051906149df82612a84565b601582527f67657452616e6b5769746841676556616c7565282900000000000000000000006020830152565b60405190614a1882612a84565b601382527f72616e6b436c617573652875696e7432353629000000000000000000000000006020830152565b908160a09103126103d4578051916020820151916040810151916080606083015192015190565b919091600392614a9c614a8585546001600160a01b031690565b614a8d61364f565b90614a96614999565b90615a17565b9360008092819082948392849185985b600f8a111580614d84575b15614d76576005614ad96105ee826106e2856000526015602052604060002090565b614b06575b506002614af8614b00926000526015602052604060002090565b015499613b61565b98614aac565b8c614b2a614b22836106e2866000526015602052604060002090565b6128e36149d2565b8c614b3f602092838082518301019101613905565b829591951580614d0d575b1580614d04575b8015614cfc575b614b67575b5050505050614ade565b869e8697929394959603614c3b575b50614bf8928b6107a18c611f66614ba2614bfe99976106e2614beb986000526015602052604060002090565b93601f9a8b5460405197889563208bffb160e21b8c8801526024870193909594919260a09360c08601978652600060208701526040860152606085015260808401521515910152565b80518101820191016142e0565b92613876565b80831015614c1957509098905060028c614b008c3880614b5d565b8061402a614c369261131285546000526016602052604060002090565b614bfe565b9193929a50508a8511614c8e575b509087918c86861080801591614c65575b50159a929193614b76565b89881015915081614c86575b5080614c7e575b38614c5a565b508815614c78565b905038614c71565b995095509350859250614cdd614ccf614cae8b546001600160a01b031690565b60405190614cc782611f66888c83019190602083019252565b6127f6614a0b565b868082518301019101614a44565b969350909691509594614cf3859b601f5461395a565b11969091614c49565b506000614b58565b508a1515614b51565b99509b50955095509a50614d56614d48838d614cc7614d338f546001600160a01b031690565b60405192830193845291928390602001611f66565b8c8082518301019101614a44565b9e9350909791509695849b859e614d6f82601f5461395a565b1199614b4a565b505050505050505050509050565b50801515614ab7565b90929192614da6614a856003546001600160a01b031690565b93600091829083809481938280985b600f8a111580615040575b15614d7657614de16105ee60056106e2846000526015602052604060002090565b614e05575b6002614af8614dff926000526015602052604060002090565b98614db5565b8b8a614e26611d24614b2260056106e2876000526015602052604060002090565b8293919315614fe3575b82151580614fda575b8015614fd1575b614e4e575b50505050614de6565b938394819d8d949503614f1b575b50614ee292614bf8926107a18c611f668f614e8960056106e2614ed3996000526015602052604060002090565b94601f9a8b549060405198899663208bffb160e21b60208901526024880194919260a0949197969360c0870198875260208701526040860152606085015260808401521515910152565b602080825183010191016142e0565b80831015614ef957509098905060028a8d38614e45565b8061402a614f169261131285546000526016602052604060002090565b614ee2565b935050509750828211614f6d575b50898c878b86851080801591614f44575b50159a9291614e5c565b89871015915081614f65575b5080614f5d575b38614f3a565b508815614f57565b905038614f50565b935093505050614fb4614fa5614f8b6003546001600160a01b031690565b60405190614cc782611f6688602083019190602083019252565b60208082518301019101614a44565b9350909391509291614fc98592601f5461395a565b119338614f29565b508b1515614e40565b50891515614e39565b9750505093509750505061501f614fa56150056003546001600160a01b031690565b60405190614cc782611f6687602083019190602083019252565b999350909391509291818a8d829b61503989601f5461395a565b1197614e30565b50801515614dc0565b61505161572e565b156109f15761505f336157b3565b8015615162575b156109cc5761507361391b565b61507e811515615176565b61509b6150936003546001600160a01b031690565b6128e36151c1565b6150af6020918280825183010191016151fa565b926150c483600052601a602052604060002090565b549160005b600781106150d957505050505050565b806150e76151559285615277565b5115614887576150f78188615277565b5180519084821561515a5761511e61512f91615116615135958b615299565b930151615288565b6151288589615277565b5190615299565b906152ac565b61132161514c886000526017602052604060002090565b6146a684613876565b6150c9565b505050613b61565b50336001600160a01b036005541614615066565b1561517d57565b606460405162461bcd60e51b815260206004820152601260248201527f6e65737465642e696e76616c69642e61676500000000000000000000000000006044820152fd5b604051906151ce82612a84565b601882527f6765744261746368526f79616c7479436c6175736573282900000000000000006020830152565b6102a09081818403126103d45782601f820112156103d457604080519361522085612aa0565b84938301928184116103d457935b83851061523d57505050505090565b6060858303126103d457825160609161525582612a63565b865182526020918288015183820152858801518682015281520194019361522e565b906007811015613f4b5760051b0190565b90816064029160648304036109c757565b818102929181159184041417156109c757565b81156152b6570490565b634e487b7160e01b600052601260045260246000fd5b6040519061010080830183811067ffffffffffffffff821117612a7f57604052368337565b601f5480600052601a6020526040600020549182018092116109c757600052601a602052604060002055565b601f5480600052601b6020526040600020549182018092116109c757600052601b602052604060002055565b601f5480600052601c6020526040600020549182018092116109c757600052601c602052604060002055565b601f5480600052601d60205260406000205490600182018092116109c757600052601d602052604060002055565b604051906153b082612a84565b601482527f676574627573696e6573732875696e74323536290000000000000000000000006020830152565b604051906153e982612a84565b601d82527f67657472616e6b436f756e742875696e743235362c75696e74323536290000006020830152565b6156fa6101c06139399261544f61543382516001600160a01b031690565b6001600160a01b03166001600160a01b03196002541617600255565b61548261546660208301516001600160a01b031690565b6001600160a01b03166001600160a01b03196003541617600355565b6154b561549960408301516001600160a01b031690565b6001600160a01b03166001600160a01b03196004541617600455565b6154e86154cc60608301516001600160a01b031690565b6001600160a01b03166001600160a01b03196005541617600555565b61551b6154ff60808301516001600160a01b031690565b6001600160a01b03166001600160a01b03196006541617600655565b61554e61553260a08301516001600160a01b031690565b6001600160a01b03166001600160a01b03196007541617600755565b61558161556560c08301516001600160a01b031690565b6001600160a01b03166001600160a01b03196008541617600855565b6155b461559860e08301516001600160a01b031690565b6001600160a01b03166001600160a01b03196009541617600955565b6155e86155cc6101008301516001600160a01b031690565b6001600160a01b03166001600160a01b0319600a541617600a55565b61561c6156006101208301516001600160a01b031690565b6001600160a01b03166001600160a01b0319600b541617600b55565b6156506156346101408301516001600160a01b031690565b6001600160a01b03166001600160a01b0319600c541617600c55565b6156846156686101608301516001600160a01b031690565b6001600160a01b03166001600160a01b0319600d541617600d55565b6156b861569c6101808301516001600160a01b031690565b6001600160a01b03166001600160a01b0319600e541617600e55565b6156ec6156d06101a08301516001600160a01b031690565b6001600160a01b03166001600160a01b0319600f541617600f55565b01516001600160a01b031690565b6001600160a01b03166001600160a01b03196010541617601055565b908160209103126103d4575180151581036103d45790565b6157896001600160a01b036002541660405161574981612a84565b600881527f697353616665282900000000000000000000000000000000000000000000000060208201526040519161578083612abc565b60008352615984565b90806157a8575b15610931578060208061158f93518301019101615716565b506020815114615790565b6158166001600160a01b0380600254166040519160209416848301528382526157db82612a84565b604051906157e882612a84565b601582527f697353656375726542617365286164647265737329000000000000000000000085830152615984565b9080615833575b15610931578161158f9282518301019101615716565b508181511461581d565b61158f6001600160a01b036003541660405161585881612a84565b600681527f6941676528290000000000000000000000000000000000000000000000000000602082015260405191612d4a83612abc565b3d156158ba573d906158a082613620565b916158ae6040519384612ad8565b82523d6000602084013e565b606090565b906158c9916158f4565b90600090156158d6575090565b60405191506158e482612abc565b815290565b906158c99291615984565b73c7aff2414b0436ddf2d5d72e582feb8930af67f1803b1561596b576000926001600160e01b0319836020869551910120169061595b602460405180936020820195865261594b8151809260208686019101614350565b8101036004810184520182612ad8565b51915afa61596761588f565b9091565b50505060009060405161597d81612abc565b6000815290565b803b1561596b576000926001600160e01b0319836020869551910120169061595b602460405180936020820195865261594b8151809260208686019101614350565b92916159d491600094615984565b9080615a0c575b6159e25750565b9091506020818051810103126103d45760206001600160a01b03910151615a08816103d9565b1690565b5060208151146159db565b9291615a2591600094615984565b9080615a48575b615a335750565b61158f919250602080825183010191016142e0565b506020815114615a2c565b90602082519201516001600160e01b0319908181169360048110615a7657505050565b60040360031b82901b16169150565b6001600160a01b03811615615b2057600080918351908260208601915af190615aac61588f565b9115615ab6575090565b805160009190600411615b1a57615acd9150615a53565b815115615add5750805190602001fd5b6040517f21c09d340000000000000000000000000000000000000000000000000000000081526001600160e01b0319919091166004820152602490fd5b50615acd565b60046040517fe6c4247b000000000000000000000000000000000000000000000000000000008152fdfea26469706673582212204b79f7423b60ea4e0e490d39f8eac9de60c5d10bdc724a5d787b104c0ac8f21064736f6c63430008140033","linkReferences":{}},"methodIdentifiers":{"Burn(uint256)":"b90306ad","TVLrefresh(uint256)":"13cf3d55","UserToId(address)":"629d671e","_ageNow()":"44668f23","_delegatorCount()":"a1f7f539","_getImplementation(address)":"c54e44b0","_isDelegatorNode(address)":"e01ad5fd","_isSafe()":"e0a9bc2b","_isSecureBase(address)":"af484526","_isSigner(address)":"1f185d16","addBusiness(uint256,address,uint256,uint256,uint256,uint256)":"dcb3fc4a","claimIncome(uint256,uint256)":"6a811244","closemdform(uint256)":"1157a849","compileRoyality(uint256,uint256[7])":"7818cdd7","createmdform(uint256,uint256)":"6b90905b","getBalance()":"12065fe0","getBatchRankCounts(uint256)":"a89d693b","getDownlineCountByLevel(uint256,uint256)":"d1e0bbc6","getHexbase()":"3b9b7955","getMoveDownline(uint256)":"13508e37","getNode(uint256)":"4f0f4aa9","getNodeChild(uint256,uint256)":"896c354a","getNodeDirectsCount(uint256)":"42cc9d57","getNodeInstStor(uint256)":"2bbae52e","getNodeParent(address)":"1bb49f02","getNodeParentId(uint256)":"849c22ad","getNodeParentwithId(address)":"4d1ec452","getNodesCount()":"61ea7208","getRoyalityAmountBatch(uint256)":"3a7b55b8","getTeamSize(uint256)":"033eeffb","getTotalTeamSizeWithLevel(address,uint256)":"fd38093b","getUserIdToInst(uint256)":"44585097","getUserIdToStor(uint256)":"2fefc0bf","getUserToInst(address)":"0e5fd00b","getUserToStor(address)":"76fe6c45","getbusiness(uint256)":"eb95c662","getjoining(uint256)":"98b3f215","getrankCount(uint256,uint256)":"80f85e33","gettotqty(uint256)":"c43792e3","getwithdrawn(uint256)":"f3ca7124","importBusiness(uint256,uint256)":"2a687c87","importJoining(uint256,uint256)":"32ff4eab","importOld(uint256,uint256)":"c871372b","importRankNBusiness(uint256,uint256)":"33b59a5b","importWithdrawal(uint256,uint256)":"95f72f49","isNode(uint256)":"419cb27b","isUserExists(address)":"509222cd","join(address,address)":"b1c49079","joinImport(address,address)":"50db85d1","moveDownline(uint256)":"65d2fbd3","nodes(uint256)":"1c53c280","owner()":"8da5cb5b","setDefaultRankCount(uint256)":"b366335e","syncBaseAddr()":"339459a6","systemAge()":"fdc10bc9","tokenImport(uint256,uint256)":"6fb412ab","updateUsers(address,address)":"3baee0ea"},"id":58}