{"abi":[{"type":"constructor","inputs":[],"stateMutability":"nonpayable"},{"type":"fallback","stateMutability":"payable"},{"type":"receive","stateMutability":"payable"},{"type":"function","name":"Burn","inputs":[{"name":"amount","type":"uint256","internalType":"uint256"}],"outputs":[],"stateMutability":"payable"},{"type":"function","name":"InstToUser","inputs":[{"name":"","type":"address","internalType":"address"}],"outputs":[{"name":"","type":"address","internalType":"address"}],"stateMutability":"view"},{"type":"function","name":"UserToInst","inputs":[{"name":"","type":"address","internalType":"address"}],"outputs":[{"name":"","type":"address","internalType":"address"}],"stateMutability":"view"},{"type":"function","name":"_addBusiness","inputs":[{"name":"uInst","type":"address","internalType":"address"},{"name":"amount","type":"uint256","internalType":"uint256"},{"name":"qty","type":"uint256","internalType":"uint256"}],"outputs":[],"stateMutability":"nonpayable"},{"type":"function","name":"_nested","inputs":[{"name":"parent","type":"address","internalType":"address"},{"name":"uinst","type":"address","internalType":"address"},{"name":"user","type":"address","internalType":"address"}],"outputs":[{"name":"","type":"uint256","internalType":"uint256"}],"stateMutability":"nonpayable"},{"type":"function","name":"_setInstOfUser","inputs":[{"name":"from","type":"address","internalType":"address"},{"name":"to","type":"address","internalType":"address"}],"outputs":[],"stateMutability":"nonpayable"},{"type":"function","name":"_setOwner","inputs":[{"name":"own","type":"address","internalType":"address"},{"name":"isApproved","type":"bool","internalType":"bool"}],"outputs":[],"stateMutability":"nonpayable"},{"type":"function","name":"_setReq","inputs":[{"name":"own","type":"address","internalType":"address"}],"outputs":[],"stateMutability":"nonpayable"},{"type":"function","name":"age","inputs":[],"outputs":[{"name":"","type":"uint256","internalType":"uint256"}],"stateMutability":"view"},{"type":"function","name":"at","inputs":[{"name":"_addr","type":"address","internalType":"address"}],"outputs":[{"name":"o_code","type":"bytes","internalType":"bytes"}],"stateMutability":"view"},{"type":"function","name":"getBalance","inputs":[],"outputs":[{"name":"","type":"uint256","internalType":"uint256"}],"stateMutability":"view"},{"type":"function","name":"getNode","inputs":[{"name":"uinst","type":"address","internalType":"address"}],"outputs":[{"name":"i","type":"uint256","internalType":"uint256"},{"name":"pa","type":"address","internalType":"address"},{"name":"cage","type":"uint256","internalType":"uint256"},{"name":"active","type":"bool","internalType":"bool"},{"name":"stop","type":"bool","internalType":"bool"}],"stateMutability":"view"},{"type":"function","name":"getNodeByIndex","inputs":[{"name":"index","type":"uint256","internalType":"uint256"}],"outputs":[{"name":"node","type":"address","internalType":"address"}],"stateMutability":"view"},{"type":"function","name":"getNodeChild","inputs":[{"name":"uinst","type":"address","internalType":"address"},{"name":"inx","type":"uint256","internalType":"uint256"}],"outputs":[{"name":"child","type":"address","internalType":"address"}],"stateMutability":"view"},{"type":"function","name":"getNodeDirectsCount","inputs":[{"name":"uinst","type":"address","internalType":"address"}],"outputs":[{"name":"count","type":"uint256","internalType":"uint256"}],"stateMutability":"view"},{"type":"function","name":"getNodeLB","inputs":[{"name":"uinst","type":"address","internalType":"address"},{"name":"lvl","type":"uint256","internalType":"uint256"}],"outputs":[{"name":"levelbusiness","type":"uint256","internalType":"uint256"},{"name":"levelqty","type":"uint256","internalType":"uint256"}],"stateMutability":"view"},{"type":"function","name":"getNodeLvlDepth","inputs":[{"name":"uinst","type":"address","internalType":"address"}],"outputs":[{"name":"depth","type":"uint256","internalType":"uint256"}],"stateMutability":"view"},{"type":"function","name":"getNodeParent","inputs":[{"name":"uinst","type":"address","internalType":"address"}],"outputs":[{"name":"","type":"address","internalType":"address"}],"stateMutability":"view"},{"type":"function","name":"getNodesCount","inputs":[],"outputs":[{"name":"nodesCount","type":"uint256","internalType":"uint256"}],"stateMutability":"view"},{"type":"function","name":"getbusiness","inputs":[{"name":"ag","type":"uint256","internalType":"uint256"}],"outputs":[{"name":"","type":"uint256","internalType":"uint256"}],"stateMutability":"view"},{"type":"function","name":"isAccountSafeOwner","inputs":[{"name":"sender","type":"address","internalType":"address"}],"outputs":[{"name":"","type":"bool","internalType":"bool"}],"stateMutability":"view"},{"type":"function","name":"isCreated","inputs":[{"name":"node","type":"address","internalType":"address"}],"outputs":[{"name":"","type":"bool","internalType":"bool"}],"stateMutability":"view"},{"type":"function","name":"isInstance","inputs":[{"name":"inst","type":"address","internalType":"address"}],"outputs":[{"name":"","type":"bool","internalType":"bool"}],"stateMutability":"view"},{"type":"function","name":"isNode","inputs":[{"name":"uinst","type":"address","internalType":"address"}],"outputs":[{"name":"","type":"bool","internalType":"bool"}],"stateMutability":"view"},{"type":"function","name":"isOwnerOrSafeOwner","inputs":[{"name":"sender","type":"address","internalType":"address"}],"outputs":[{"name":"","type":"bool","internalType":"bool"}],"stateMutability":"view"},{"type":"function","name":"isStop","inputs":[{"name":"uinst","type":"address","internalType":"address"}],"outputs":[{"name":"","type":"bool","internalType":"bool"}],"stateMutability":"view"},{"type":"function","name":"isUserInst","inputs":[{"name":"node","type":"address","internalType":"address"},{"name":"_ins","type":"address","internalType":"address"}],"outputs":[{"name":"isIndeed","type":"bool","internalType":"bool"}],"stateMutability":"view"},{"type":"function","name":"owner","inputs":[],"outputs":[{"name":"","type":"address","internalType":"address"}],"stateMutability":"view"},{"type":"function","name":"req","inputs":[],"outputs":[{"name":"newowner","type":"address","internalType":"address"},{"name":"isReq","type":"bool","internalType":"bool"},{"name":"isVer1","type":"bool","internalType":"bool"},{"name":"isVer2","type":"bool","internalType":"bool"},{"name":"isVer3","type":"bool","internalType":"bool"}],"stateMutability":"view"},{"type":"function","name":"setParam","inputs":[{"name":"s","type":"address","internalType":"address"},{"name":"r","type":"address","internalType":"address"},{"name":"m","type":"address","internalType":"address"},{"name":"f","type":"address","internalType":"address"},{"name":"t","type":"address","internalType":"address"}],"outputs":[],"stateMutability":"nonpayable"},{"type":"function","name":"setStop","inputs":[{"name":"uinst","type":"address","internalType":"address"},{"name":"flag","type":"bool","internalType":"bool"}],"outputs":[],"stateMutability":"nonpayable"},{"type":"function","name":"withdraw","inputs":[{"name":"to","type":"address","internalType":"address"},{"name":"amount","type":"uint256","internalType":"uint256"}],"outputs":[],"stateMutability":"payable"}],"bytecode":{"object":"0x60806040526000600d5534801561001557600080fd5b506100f9600080546001600160a01b03199081167308ff697696398fac0dcee979bb0f1fb7b7fc380b1790915560018054821673882bf41aa8e3fad0695be39e4434af54786eb24a179055600280548216739f33b44587a57758c1413dbab6640f6abea5cef417905560038054821673951a7bbd21b4a6f49e62e040b992eed7120fcdd9179055600480548216730aac4c086b6b9d52c66885ebb8297fa606550007179055600580548216739ead7fb4cfd35f92deb28fdd9e43ae4481ba858f1790556006805490911673894f85898a6a6f72c67c6a6e22d4eee6fcbbf80e179055565b600780546001600160a01b0319163217905542600d556125bb8061011e6000396000f3fe6080604052600436106101cf5760003560e01c8063710a4ddc116100f6578063b90306ad1161008f578063dce4a44711610061578063dce4a44714610708578063eb95c66214610735578063f3fef3a314610762578063f80272961461077557005b8063b90306ad14610674578063c3bd18c314610687578063c4cf0e3f146106a7578063cf359165146106c757005b8063965c90e3116100c8578063965c90e3146105815780639d209048146105a1578063abb8c96514610634578063b07518231461065457005b8063710a4ddc146105035780638da5cb5b146105235780639535782214610541578063957138a41461056157005b8063379a423c116101685780635329daca1161013a5780635329daca1461045e5780635d4233961461049357806361ea7208146104b35780636b44e6be146104c857005b8063379a423c146103c857806341ffe7c4146103e857806345145fd71461040857806345675cc81461043e57005b80631bb49f02116101a15780631bb49f02146102eb578063247349d514610344578063262a9dff1461037a578063321f4f211461038f57005b806301750152146101d857806308a391111461020d5780630d43aaf21461025457806312065fe0146102d857005b366101d657005b005b3480156101e457600080fd5b506101f86101f3366004612154565b610795565b60405190151581526020015b60405180910390f35b34801561021957600080fd5b50610246610228366004612154565b6001600160a01b03166000908152600b602052604090206004015490565b604051908152602001610204565b34801561026057600080fd5b5060085461029e906001600160a01b0381169060ff600160a01b8204811691600160a81b8104821691600160b01b8204811691600160b81b90041685565b604080516001600160a01b03909616865293151560208601529115159284019290925290151560608301521515608082015260a001610204565b3480156102e457600080fd5b5047610246565b3480156102f757600080fd5b5061032c610306366004612154565b6001600160a01b039081166000908152600b602052604090206001015461010090041690565b6040516001600160a01b039091168152602001610204565b34801561035057600080fd5b5061032c61035f366004612154565b600a602052600090815260409020546001600160a01b031681565b34801561038657600080fd5b506102466107b6565b34801561039b57600080fd5b506102466103aa366004612154565b6001600160a01b03166000908152600b602052604090206003015490565b3480156103d457600080fd5b506101f86103e3366004612154565b6107c5565b3480156103f457600080fd5b506101d6610403366004612154565b610852565b34801561041457600080fd5b5061032c610423366004612154565b6009602052600090815260409020546001600160a01b031681565b34801561044a57600080fd5b5061032c61045936600461216f565b610a4a565b34801561046a57600080fd5b5061047e61047936600461216f565b610a93565b60408051928352602083019190915201610204565b34801561049f57600080fd5b506101f86104ae366004612199565b610b1d565b3480156104bf57600080fd5b50600c54610246565b3480156104d457600080fd5b506101f86104e3366004612154565b6001600160a01b039081166000908152600a602052604090205416151590565b34801561050f57600080fd5b506101d661051e366004612199565b610b93565b34801561052f57600080fd5b506007546001600160a01b031661032c565b34801561054d57600080fd5b5061024661055c3660046121cc565b610dd5565b34801561056d57600080fd5b506101d661057c366004612220565b611120565b34801561058d57600080fd5b5061032c61059c366004612257565b6112ba565b3480156105ad57600080fd5b506106006105bc366004612154565b6001600160a01b039081166000908152600b6020526040902080546001820154600683015460079093015491946101008083049095169460ff928316930490911690565b604080519586526001600160a01b03909416602086015292840191909152151560608301521515608082015260a001610204565b34801561064057600080fd5b506101d661064f366004612220565b6112ea565b34801561066057600080fd5b506101d661066f366004612270565b6115fd565b6101d6610682366004612257565b61179b565b34801561069357600080fd5b506101f86106a2366004612154565b611875565b3480156106b357600080fd5b506101d66106c23660046122d5565b6118e4565b3480156106d357600080fd5b506101f86106e2366004612154565b6001600160a01b03166000908152600b6020526040902060070154610100900460ff1690565b34801561071457600080fd5b50610728610723366004612154565b611ba0565b604051610204919061232c565b34801561074157600080fd5b50610246610750366004612257565b6000908152600e602052604090205490565b6101d661077036600461216f565b611bd1565b34801561078157600080fd5b506101f8610790366004612154565b611cfc565b6001600160a01b03166000908152600b602052604090206001015460ff1690565b60006107c0611d1c565b905090565b600080546040516319c0642960e01b81526001600160a01b038481166004830152909116906319c0642990602401602060405180830381865afa158015610810573d6000803e3d6000fd5b505050506040513d601f19601f82011682018060405250810190610834919061235f565b8061084c57506007546001600160a01b038381169116145b92915050565b600054604051637df73e2760e01b81523360048201819052916001600160a01b031690637df73e2790602401602060405180830381865afa15801561089b573d6000803e3d6000fd5b505050506040513d601f19601f820116820180604052508101906108bf919061235f565b6108e45760405162461bcd60e51b81526004016108db9061237c565b60405180910390fd5b600080546040516307612f9160e21b81523360048201526001600160a01b0390911690631d84be44906024016020604051808303816000875af115801561092f573d6000803e3d6000fd5b505050506040513d601f19601f8201168201806040525081019061095391906123a3565b90506109866040805160a08101825260008082526020820181905291810182905260608101829052608081019190915290565b60016020820181905282900361099e57600160408201525b816002036109ae57600160608201525b816003036109be57600160808201525b6001600160a01b03909316808452600880546020860151604087015160608801516080909801511515600160b81b0260ff60b81b19981515600160b01b0260ff60b01b19921515600160a81b029290921661ffff60a81b19931515600160a01b026001600160a81b03199095169096179390931791909116939093179290921794909416179092555050565b6001600160a01b0382166000908152600b60205260408120600301805483908110610a7757610a776123bc565b6000918252602090912001546001600160a01b03169392505050565b6001600160a01b0382166000908152600b60205260408120600401805482919084908110610ac357610ac36123bc565b9060005260206000200154600b6000866001600160a01b03166001600160a01b031681526020019081526020016000206005018481548110610b0757610b076123bc565b9060005260206000200154915091509250929050565b6001600160a01b0382811660009081526009602052604081205490911615801590610b6457506001600160a01b038381166000908152600960205260409020548116908316145b8015610b8c57506001600160a01b038281166000908152600a60205260409020548116908416145b9392505050565b60008054906101000a90046001600160a01b03166001600160a01b0316636a276f9d6040518163ffffffff1660e01b8152600401602060405180830381865afa158015610be4573d6000803e3d6000fd5b505050506040513d601f19601f82011682018060405250810190610c08919061235f565b610c245760405162461bcd60e51b81526004016108db906123d2565b806001600160a01b038116610c4b5760405162461bcd60e51b81526004016108db90612409565b826001600160a01b038116610c725760405162461bcd60e51b81526004016108db90612409565b6000546040516319c0642960e01b81523360048201819052916001600160a01b0316906319c0642990602401602060405180830381865afa158015610cbb573d6000803e3d6000fd5b505050506040513d601f19601f82011682018060405250810190610cdf919061235f565b80610cf757506007546001600160a01b038281169116145b610d135760405162461bcd60e51b81526004016108db90612431565b610d1c85611cfc565b8015610d2e5750610d2c84611cfc565b155b610d725760405162461bcd60e51b81526020600482015260156024820152741b9bdd08195e1a5cdd1cc81bdc881a5b9d985b1a59605a1b60448201526064016108db565b5050506001600160a01b03918216600081815260096020818152604080842080549688168086528286208054988a166001600160a01b0319998a1617905581549098168552600a8352908420805487169097179096559290915290528154169055565b60008060009054906101000a90046001600160a01b03166001600160a01b0316636a276f9d6040518163ffffffff1660e01b8152600401602060405180830381865afa158015610e29573d6000803e3d6000fd5b505050506040513d601f19601f82011682018060405250810190610e4d919061235f565b610e695760405162461bcd60e51b81526004016108db906123d2565b6000546040516319c0642960e01b81523360048201819052916001600160a01b0316906319c0642990602401602060405180830381865afa158015610eb2573d6000803e3d6000fd5b505050506040513d601f19601f82011682018060405250810190610ed6919061235f565b80610eee57506007546001600160a01b038281169116145b610f0a5760405162461bcd60e51b81526004016108db90612431565b6000610f15326107c5565b6001600160a01b0380881660009081526009602052604090205491925016610f3c85611cfc565b158015610f4f5750610f4d86610795565b155b610f8c5760405162461bcd60e51b815260206004820152600e60248201526d616c72656164792065786973747360901b60448201526064016108db565b610f9587611cfc565b8015610fa55750610fa581610795565b80610fd257506001600160a01b038716158015610fc957506001600160a01b038116155b8015610fd25750815b6110125760405162461bcd60e51b8152602060048201526011602482015270706172656e74206e6f742065786973747360781b60448201526064016108db565b818061105157506001600160a01b0381166000908152600b6020526040812060040180548290611044576110446123bc565b9060005260206000200154115b61108c5760405162461bcd60e51b815260206004820152600c60248201526b6c6f7720627573696e65737360a01b60448201526064016108db565b6001600160a01b0380861660008181526009602090815260408083208054958c166001600160a01b03199687168117909155808452600a909252822080548516909317909255600c805460018101825591527fdf6966c971051c3d54ec59162606531493a51404a002842f56009d7e5cf4a8c70180549092161790556111128187611d4e565b5050600c5495945050505050565b60008054906101000a90046001600160a01b03166001600160a01b0316636a276f9d6040518163ffffffff1660e01b8152600401602060405180830381865afa158015611171573d6000803e3d6000fd5b505050506040513d601f19601f82011682018060405250810190611195919061235f565b6111b15760405162461bcd60e51b81526004016108db906123d2565b6000546040516319c0642960e01b81523360048201819052916001600160a01b0316906319c0642990602401602060405180830381865afa1580156111fa573d6000803e3d6000fd5b505050506040513d601f19601f8201168201806040525081019061121e919061235f565b8061123657506007546001600160a01b038281169116145b6112525760405162461bcd60e51b81526004016108db90612431565b826001600160a01b0381166112795760405162461bcd60e51b81526004016108db90612409565b61128284610795565b156112b4576001600160a01b0384166000908152600b60205260409020600701805461ff001916610100851515021790555b50505050565b6000600c82815481106112cf576112cf6123bc565b6000918252602090912001546001600160a01b031692915050565b600054604051637df73e2760e01b81523360048201819052916001600160a01b031690637df73e2790602401602060405180830381865afa158015611333573d6000803e3d6000fd5b505050506040513d601f19601f82011682018060405250810190611357919061235f565b6113735760405162461bcd60e51b81526004016108db9061237c565b81156115c057600080546040516307612f9160e21b81523360048201526001600160a01b0390911690631d84be44906024016020604051808303816000875af11580156113c4573d6000803e3d6000fd5b505050506040513d601f19601f820116820180604052508101906113e891906123a3565b600854909150600160a01b900460ff1680156114045750806001145b801561141d57506008546001600160a01b038581169116145b15611436576008805460ff60a81b1916600160a81b1790555b600854600160a01b900460ff16801561144f5750806002145b801561146857506008546001600160a01b038581169116145b15611481576008805460ff60b01b1916600160b01b1790555b600854600160a01b900460ff16801561149a5750806003145b80156114b357506008546001600160a01b038581169116145b156114cc576008805460ff60b81b1916600160b81b1790555b600854600090600160a81b900460ff16156114ef57806114eb8161247e565b9150505b600854600160b01b900460ff161561150f578061150b8161247e565b9150505b600854600160b81b900460ff161561152f578061152b8161247e565b9150505b600854600160a01b900460ff1680156115485750806002145b801561156157506008546001600160a01b038681169116145b156115b957600780546001600160a01b0319166001600160a01b0387161790556040805160a0810182526000808252602082018190529181018290526060810182905260800152600880546001600160c01b03191690555b5050505050565b6040805160a0810182526000808252602082018190529181018290526060810182905260800152600880546001600160c01b03191690555b505050565b60008054906101000a90046001600160a01b03166001600160a01b0316636a276f9d6040518163ffffffff1660e01b8152600401602060405180830381865afa15801561164e573d6000803e3d6000fd5b505050506040513d601f19601f82011682018060405250810190611672919061235f565b61168e5760405162461bcd60e51b81526004016108db906123d2565b6000546040516319c0642960e01b81523360048201819052916001600160a01b0316906319c0642990602401602060405180830381865afa1580156116d7573d6000803e3d6000fd5b505050506040513d601f19601f820116820180604052508101906116fb919061235f565b61173b5760405162461bcd60e51b815260206004820152601160248201527024b73b30b634b21029b0b332a7bbb732b960791b60448201526064016108db565b50600080546001600160a01b03199081166001600160a01b03978816179091556001805482169587169590951790945560028054851693861693909317909255600680548416918516919091179055600480549092169216919091179055565b6000546040516319c0642960e01b81523260048201819052916001600160a01b0316906319c0642990602401602060405180830381865afa1580156117e4573d6000803e3d6000fd5b505050506040513d601f19601f82011682018060405250810190611808919061235f565b6118485760405162461bcd60e51b815260206004820152601160248201527024b73b30b634b21029b0b332a7bbb732b960791b60448201526064016108db565b60405160009083156108fc0290849083818181858288f193505050501580156115f8573d6000803e3d6000fd5b60008054604051633f978d1f60e11b81526001600160a01b03848116600483015290911690637f2f1a3e90602401602060405180830381865afa1580156118c0573d6000803e3d6000fd5b505050506040513d601f19601f8201168201806040525081019061084c919061235f565b60008054906101000a90046001600160a01b03166001600160a01b0316636a276f9d6040518163ffffffff1660e01b8152600401602060405180830381865afa158015611935573d6000803e3d6000fd5b505050506040513d601f19601f82011682018060405250810190611959919061235f565b6119755760405162461bcd60e51b81526004016108db906123d2565b33806119935760405162461bcd60e51b81526004016108db90612409565b3361199d81610795565b6119d65760405162461bcd60e51b815260206004820152600a6024820152693bb937b733903ab9b2b960b11b60448201526064016108db565b6001600160a01b0385166000908152600b6020526040902060070154610100900460ff1615611a325760405162461bcd60e51b8152602060048201526008602482015267696e61637469766560c01b60448201526064016108db565b611a3b84611fbc565b6001600160a01b0385166000908152600b602052604081206004018054869290611a6757611a676123bc565b906000526020600020016000828254611a809190612497565b90915550506001600160a01b0385166000908152600b602052604081206005018054859290611ab157611ab16123bc565b906000526020600020016000828254611aca9190612497565b90915550506001600160a01b039485166000908152600b602052604090206001015461010090049094169384156115b9576001600160a01b0385166000908152600b6020526040902060040180548591906001908110611b2c57611b2c6123bc565b906000526020600020016000828254611b459190612497565b90915550506001600160a01b0385166000908152600b6020526040902060050180548491906001908110611b7b57611b7b6123bc565b906000526020600020016000828254611b949190612497565b90915550505050505050565b6060611bab82612002565b604051602001611bbb91906124aa565b6040516020818303038152906040529050919050565b600054604051637df73e2760e01b81523260048201819052916001600160a01b031690637df73e2790602401602060405180830381865afa158015611c1a573d6000803e3d6000fd5b505050506040513d601f19601f82011682018060405250810190611c3e919061235f565b611c5a5760405162461bcd60e51b81526004016108db9061237c565b826001600160a01b038116611c815760405162461bcd60e51b81526004016108db90612409565b3280611c9f5760405162461bcd60e51b81526004016108db90612409565b3380611cbd5760405162461bcd60e51b81526004016108db90612409565b6040516001600160a01b0387169086156108fc029087906000818181858888f19350505050158015611cf3573d6000803e3d6000fd5b50505050505050565b6001600160a01b0390811660009081526009602052604090205416151590565b6000611d2c620151806001612539565b600d54611d399042612550565b611d439190612563565b6107c0906001612497565b611db46040518061014001604052806000815260200160001515815260200160006001600160a01b031681526020016000815260200160608152602001606081526020016060815260200160008152602001600060ff1681526020016000151581525090565b6001600160a01b03831660408201526001602082015260006060820152611dd9611d1c565b60e08201526001600160a01b03831615611dfd57611df78383612030565b60608201525b6001600160a01b038083166000908152600b602090815260409182902084518155818501516001820180549487015190951661010002610100600160a81b0319911515919091166001600160a81b0319909416939093179290921790925560608301516002820155608083015180518493611e7f926003850192910190612083565b5060a08201518051611e9b9160048401916020909101906120e8565b5060c08201518051611eb79160058401916020909101906120e8565b5060e0820151600682015561010080830151600790920180546101209094015160ff90931661ffff199094169390931791151502179055600c546001600160a01b038381166000908152600b60205260409020918255600490910190841615611f21576000611f24565b60015b8154600181810184556000938452602080852060ff90941693909201929092556001600160a01b038086168452600b8252604084206005018054938401815584529083209091019190915583166115f857506001600160a01b03166000908152600b60209081526040822060048101805460018082018355918552838520018490556005909101805491820181558352908220015550565b80600e6000611fc9611d1c565b815260200190815260200160002054611fe29190612497565b600e6000611fee611d1c565b815260208101919091526040016000205550565b6060816001600160a01b0316803b806020016040519081016040528181526000908060200190933c92915050565b6001600160a01b038281166000818152600b6020908152604082206003018054600180820183558285529284200180546001600160a01b031916958716959095179094559181529154610b8c9190612550565b8280548282559060005260206000209081019282156120d8579160200282015b828111156120d857825182546001600160a01b0319166001600160a01b039091161782556020909201916001909101906120a3565b506120e4929150612123565b5090565b8280548282559060005260206000209081019282156120d8579160200282015b828111156120d8578251825591602001919060010190612108565b5b808211156120e45760008155600101612124565b80356001600160a01b038116811461214f57600080fd5b919050565b60006020828403121561216657600080fd5b610b8c82612138565b6000806040838503121561218257600080fd5b61218b83612138565b946020939093013593505050565b600080604083850312156121ac57600080fd5b6121b583612138565b91506121c360208401612138565b90509250929050565b6000806000606084860312156121e157600080fd5b6121ea84612138565b92506121f860208501612138565b915061220660408501612138565b90509250925092565b801515811461221d57600080fd5b50565b6000806040838503121561223357600080fd5b61223c83612138565b9150602083013561224c8161220f565b809150509250929050565b60006020828403121561226957600080fd5b5035919050565b600080600080600060a0868803121561228857600080fd5b61229186612138565b945061229f60208701612138565b93506122ad60408701612138565b92506122bb60608701612138565b91506122c960808701612138565b90509295509295909350565b6000806000606084860312156122ea57600080fd5b6122f384612138565b95602085013595506040909401359392505050565b60005b8381101561232357818101518382015260200161230b565b50506000910152565b602081526000825180602084015261234b816040850160208701612308565b601f01601f19169190910160400192915050565b60006020828403121561237157600080fd5b8151610b8c8161220f565b6020808252600d908201526c24b73b30b634b21027bbb732b960991b604082015260600190565b6000602082840312156123b557600080fd5b5051919050565b634e487b7160e01b600052603260045260246000fd5b6020808252601a908201527f496e76616c6964205361666567756172642e6973536166652829000000000000604082015260600190565b6020808252600e908201526d3232b330bab63a1039b2b73232b960911b604082015260600190565b60208082526018908201527f496e76616c6964204f776e65724f72536166654f776e65720000000000000000604082015260600190565b634e487b7160e01b600052601160045260246000fd5b60006001820161249057612490612468565b5060010190565b8082018082111561084c5761084c612468565b600082516124bc818460208701612308565b730468e8dc225c4746454419c9dcccb59a581434b160631b92019182525073d416952dc46fce2775e90571d46a79565d04cb2560601b602082015273094c37fb9b5b2065409a5c7cb9bff71c4d49bf4160601b604082015273fe69687ce9c746c10e1c2af1e3f5d1475df4300f60601b6060820152607401919050565b808202811582820484141761084c5761084c612468565b8181038181111561084c5761084c612468565b60008261258057634e487b7160e01b600052601260045260246000fd5b50049056fea264697066735822122084e4d9942e40b2abd599d0113aa345dad69641d9b88f23dac3feae41c229a93364736f6c63430008140033","linkReferences":{}},"methodIdentifiers":{"Burn(uint256)":"b90306ad","InstToUser(address)":"247349d5","UserToInst(address)":"45145fd7","_addBusiness(address,uint256,uint256)":"c4cf0e3f","_nested(address,address,address)":"95357822","_setInstOfUser(address,address)":"710a4ddc","_setOwner(address,bool)":"abb8c965","_setReq(address)":"41ffe7c4","age()":"262a9dff","at(address)":"dce4a447","getBalance()":"12065fe0","getNode(address)":"9d209048","getNodeByIndex(uint256)":"965c90e3","getNodeChild(address,uint256)":"45675cc8","getNodeDirectsCount(address)":"321f4f21","getNodeLB(address,uint256)":"5329daca","getNodeLvlDepth(address)":"08a39111","getNodeParent(address)":"1bb49f02","getNodesCount()":"61ea7208","getbusiness(uint256)":"eb95c662","isAccountSafeOwner(address)":"c3bd18c3","isCreated(address)":"f8027296","isInstance(address)":"6b44e6be","isNode(address)":"01750152","isOwnerOrSafeOwner(address)":"379a423c","isStop(address)":"cf359165","isUserInst(address,address)":"5d423396","owner()":"8da5cb5b","req()":"0d43aaf2","setParam(address,address,address,address,address)":"b0751823","setStop(address,bool)":"957138a4","withdraw(address,uint256)":"f3fef3a3"},"id":0}