{"abi":[{"type":"constructor","inputs":[{"name":"_hex","type":"address","internalType":"address"}],"stateMutability":"nonpayable"},{"type":"fallback","stateMutability":"payable"},{"type":"receive","stateMutability":"payable"},{"type":"function","name":"Burn","inputs":[{"name":"amount","type":"uint256","internalType":"uint256"}],"outputs":[],"stateMutability":"nonpayable"},{"type":"function","name":"BurnCoin","inputs":[],"outputs":[],"stateMutability":"payable"},{"type":"function","name":"LSB","inputs":[{"name":"","type":"uint256","internalType":"uint256"}],"outputs":[{"name":"","type":"int256","internalType":"int256"}],"stateMutability":"view"},{"type":"function","name":"_delegatorCount","inputs":[],"outputs":[{"name":"","type":"uint256","internalType":"uint256"}],"stateMutability":"view"},{"type":"function","name":"_getImplementation","inputs":[{"name":"clone","type":"address","internalType":"address"}],"outputs":[{"name":"impl","type":"address","internalType":"address"}],"stateMutability":"view"},{"type":"function","name":"_importOld","inputs":[{"name":"limit","type":"uint256","internalType":"uint256"}],"outputs":[],"stateMutability":"payable"},{"type":"function","name":"_isDelegatorNode","inputs":[{"name":"sender","type":"address","internalType":"address"}],"outputs":[{"name":"","type":"bool","internalType":"bool"}],"stateMutability":"view"},{"type":"function","name":"_isSafe","inputs":[],"outputs":[{"name":"","type":"bool","internalType":"bool"}],"stateMutability":"view"},{"type":"function","name":"_isSecureBase","inputs":[{"name":"sender","type":"address","internalType":"address"}],"outputs":[{"name":"","type":"bool","internalType":"bool"}],"stateMutability":"view"},{"type":"function","name":"_isSigner","inputs":[{"name":"sender","type":"address","internalType":"address"}],"outputs":[{"name":"","type":"bool","internalType":"bool"}],"stateMutability":"view"},{"type":"function","name":"_txnType7","inputs":[{"name":"_maxint","type":"uint256","internalType":"uint256"},{"name":"_ag","type":"uint256","internalType":"uint256"}],"outputs":[{"name":"CALC_RWRD","type":"uint256","internalType":"uint256"},{"name":"CALC_ROYAL","type":"uint256","internalType":"uint256"},{"name":"CALC_SELF","type":"uint256","internalType":"uint256"},{"name":"CALC_YEILD","type":"uint256","internalType":"uint256"},{"name":"CALC_TOUR1","type":"uint256","internalType":"uint256"},{"name":"CALC_TOUR2","type":"uint256","internalType":"uint256"},{"name":"CALC_VAL","type":"uint256","internalType":"uint256"},{"name":"CALC_SELF_PROPOSED","type":"uint256","internalType":"uint256"}],"stateMutability":"payable"},{"type":"function","name":"_txnType_1_0","inputs":[{"name":"paramAdd","type":"address","internalType":"address"},{"name":"_id_maxint","type":"uint256","internalType":"uint256"},{"name":"_qty","type":"uint256","internalType":"uint256"},{"name":"_msgValue","type":"uint256","internalType":"uint256"},{"name":"_type","type":"uint256","internalType":"uint256"}],"outputs":[{"name":"_tvl","type":"uint256","internalType":"uint256"},{"name":"_amt","type":"uint256","internalType":"uint256"}],"stateMutability":"payable"},{"type":"function","name":"addLevelnGetRank","inputs":[{"name":"_amount","type":"uint256","internalType":"uint256"},{"name":"_qty","type":"uint256","internalType":"uint256"},{"name":"_yeildlevel","type":"uint256","internalType":"uint256"},{"name":"_level","type":"uint256","internalType":"uint256"},{"name":"_epochAge","type":"uint256","internalType":"uint256"},{"name":"_free","type":"uint256","internalType":"uint256"},{"name":"_irank","type":"uint256","internalType":"uint256"}],"outputs":[{"name":"lastrnk","type":"uint256","internalType":"uint256"},{"name":"currentrnk","type":"uint256","internalType":"uint256"}],"stateMutability":"nonpayable"},{"type":"function","name":"bonus","inputs":[],"outputs":[{"name":"","type":"uint256","internalType":"uint256"}],"stateMutability":"view"},{"type":"function","name":"burned","inputs":[],"outputs":[{"name":"_burned","type":"uint256","internalType":"uint256"}],"stateMutability":"view"},{"type":"function","name":"cage","inputs":[],"outputs":[{"name":"","type":"uint256","internalType":"uint256"}],"stateMutability":"view"},{"type":"function","name":"capStatus","inputs":[],"outputs":[{"name":"threshold","type":"uint256","internalType":"uint256"},{"name":"_cap","type":"bool","internalType":"bool"},{"name":"currentValue","type":"uint256","internalType":"uint256"}],"stateMutability":"view"},{"type":"function","name":"compute","inputs":[{"name":"maxinterwal","type":"uint256","internalType":"uint256"}],"outputs":[{"name":"p1","type":"uint256","internalType":"uint256"},{"name":"p2","type":"uint256","internalType":"uint256"},{"name":"p3","type":"uint256","internalType":"uint256"},{"name":"p4","type":"uint256","internalType":"uint256"},{"name":"p5","type":"uint256","internalType":"uint256"},{"name":"p6","type":"uint256","internalType":"uint256"},{"name":"p7","type":"uint256","internalType":"uint256"}],"stateMutability":"view"},{"type":"function","name":"dage","inputs":[],"outputs":[{"name":"","type":"uint256","internalType":"uint256"}],"stateMutability":"view"},{"type":"function","name":"direct","inputs":[],"outputs":[{"name":"","type":"uint256","internalType":"uint256"}],"stateMutability":"view"},{"type":"function","name":"drawn","inputs":[],"outputs":[{"name":"p1","type":"uint256","internalType":"uint256"},{"name":"p2","type":"uint256","internalType":"uint256"},{"name":"p3","type":"uint256","internalType":"uint256"},{"name":"p4","type":"uint256","internalType":"uint256"},{"name":"p5","type":"uint256","internalType":"uint256"},{"name":"p6","type":"uint256","internalType":"uint256"},{"name":"p7","type":"uint256","internalType":"uint256"}],"stateMutability":"view"},{"type":"function","name":"flushed","inputs":[],"outputs":[{"name":"p1","type":"uint256","internalType":"uint256"},{"name":"p2","type":"uint256","internalType":"uint256"},{"name":"p3","type":"uint256","internalType":"uint256"},{"name":"p4","type":"uint256","internalType":"uint256"},{"name":"p5","type":"uint256","internalType":"uint256"},{"name":"p6","type":"uint256","internalType":"uint256"},{"name":"p7","type":"uint256","internalType":"uint256"}],"stateMutability":"view"},{"type":"function","name":"getBalance","inputs":[],"outputs":[{"name":"","type":"uint256","internalType":"uint256"}],"stateMutability":"view"},{"type":"function","name":"getHexbase","inputs":[],"outputs":[{"name":"","type":"address","internalType":"address"}],"stateMutability":"view"},{"type":"function","name":"id","inputs":[],"outputs":[{"name":"","type":"uint256","internalType":"uint256"}],"stateMutability":"view"},{"type":"function","name":"inc","inputs":[{"name":"","type":"uint256","internalType":"uint256"}],"outputs":[{"name":"","type":"uint256","internalType":"uint256"}],"stateMutability":"view"},{"type":"function","name":"isCap","inputs":[],"outputs":[{"name":"","type":"bool","internalType":"bool"}],"stateMutability":"view"},{"type":"function","name":"isLock","inputs":[],"outputs":[{"name":"","type":"bool","internalType":"bool"}],"stateMutability":"view"},{"type":"function","name":"levelRestrictionAge","inputs":[],"outputs":[{"name":"","type":"uint256","internalType":"uint256"}],"stateMutability":"view"},{"type":"function","name":"lvlbs","inputs":[{"name":"","type":"uint256","internalType":"uint256"}],"outputs":[{"name":"","type":"uint256","internalType":"uint256"}],"stateMutability":"view"},{"type":"function","name":"lvlqty","inputs":[{"name":"","type":"uint256","internalType":"uint256"}],"outputs":[{"name":"","type":"uint256","internalType":"uint256"}],"stateMutability":"view"},{"type":"function","name":"lvlrwrd","inputs":[{"name":"","type":"uint256","internalType":"uint256"}],"outputs":[{"name":"","type":"uint256","internalType":"uint256"}],"stateMutability":"view"},{"type":"function","name":"lvlyei","inputs":[{"name":"","type":"uint256","internalType":"uint256"}],"outputs":[{"name":"","type":"uint256","internalType":"uint256"}],"stateMutability":"view"},{"type":"function","name":"mintCount","inputs":[],"outputs":[{"name":"","type":"uint256","internalType":"uint256"}],"stateMutability":"view"},{"type":"function","name":"mints","inputs":[{"name":"","type":"uint256","internalType":"uint256"}],"outputs":[{"name":"amt","type":"uint256","internalType":"uint256"},{"name":"qty","type":"uint256","internalType":"uint256"},{"name":"mage","type":"uint256","internalType":"uint256"},{"name":"nft","type":"address","internalType":"address"}],"stateMutability":"view"},{"type":"function","name":"moveLvlIncome","inputs":[{"name":"_amount","type":"uint256","internalType":"uint256"},{"name":"_qty","type":"uint256","internalType":"uint256"},{"name":"_level","type":"uint256","internalType":"uint256"},{"name":"_epochAge","type":"uint256","internalType":"uint256"},{"name":"_op","type":"bool","internalType":"bool"}],"outputs":[{"name":"lastrnk","type":"uint256","internalType":"uint256"},{"name":"currentrnk","type":"uint256","internalType":"uint256"}],"stateMutability":"nonpayable"},{"type":"function","name":"owner","inputs":[],"outputs":[{"name":"","type":"address","internalType":"address"}],"stateMutability":"view"},{"type":"function","name":"postInit","inputs":[],"outputs":[{"name":"","type":"bool","internalType":"bool"}],"stateMutability":"view"},{"type":"function","name":"preinit","inputs":[{"name":"_hex","type":"address","internalType":"address"},{"name":"_own","type":"address","internalType":"address"},{"name":"_id","type":"uint256","internalType":"uint256"}],"outputs":[],"stateMutability":"nonpayable"},{"type":"function","name":"rank","inputs":[],"outputs":[{"name":"","type":"uint256","internalType":"uint256"}],"stateMutability":"view"},{"type":"function","name":"rankage","inputs":[{"name":"","type":"uint256","internalType":"uint256"}],"outputs":[{"name":"","type":"uint256","internalType":"uint256"}],"stateMutability":"view"},{"type":"function","name":"selfProposed","inputs":[],"outputs":[{"name":"_selfProposed","type":"uint256","internalType":"uint256"}],"stateMutability":"view"},{"type":"function","name":"setBonus","inputs":[{"name":"b","type":"uint256","internalType":"uint256"}],"outputs":[],"stateMutability":"nonpayable"},{"type":"function","name":"setLock","inputs":[{"name":"flag","type":"bool","internalType":"bool"}],"outputs":[],"stateMutability":"nonpayable"},{"type":"function","name":"setSuspend","inputs":[{"name":"s1","type":"bool","internalType":"bool"},{"name":"s2","type":"bool","internalType":"bool"},{"name":"s3","type":"bool","internalType":"bool"},{"name":"s4","type":"bool","internalType":"bool"},{"name":"s56","type":"bool","internalType":"bool"},{"name":"s7","type":"bool","internalType":"bool"},{"name":"lck","type":"bool","internalType":"bool"}],"outputs":[],"stateMutability":"nonpayable"},{"type":"function","name":"setTourAndGift","inputs":[{"name":"t1","type":"uint256","internalType":"uint256"},{"name":"t2","type":"uint256","internalType":"uint256"}],"outputs":[],"stateMutability":"nonpayable"},{"type":"function","name":"suspendinc","inputs":[{"name":"","type":"uint256","internalType":"uint256"}],"outputs":[{"name":"","type":"bool","internalType":"bool"}],"stateMutability":"view"},{"type":"function","name":"systemAge","inputs":[],"outputs":[{"name":"","type":"uint256","internalType":"uint256"}],"stateMutability":"view"},{"type":"function","name":"unpaid","inputs":[],"outputs":[{"name":"p1","type":"uint256","internalType":"uint256"},{"name":"p2","type":"uint256","internalType":"uint256"},{"name":"p3","type":"uint256","internalType":"uint256"},{"name":"p4","type":"uint256","internalType":"uint256"},{"name":"p5","type":"uint256","internalType":"uint256"},{"name":"p6","type":"uint256","internalType":"uint256"},{"name":"p7","type":"uint256","internalType":"uint256"}],"stateMutability":"view"},{"type":"function","name":"updateOwner","inputs":[{"name":"_newowner","type":"address","internalType":"address"}],"outputs":[],"stateMutability":"nonpayable"},{"type":"function","name":"withdrawlDage","inputs":[],"outputs":[{"name":"","type":"uint256","internalType":"uint256"}],"stateMutability":"view"},{"type":"event","name":"EthBurned","inputs":[{"name":"sender","type":"address","indexed":true,"internalType":"address"},{"name":"amount","type":"uint256","indexed":false,"internalType":"uint256"}],"anonymous":false},{"type":"event","name":"EthTransferred","inputs":[{"name":"to","type":"address","indexed":true,"internalType":"address"},{"name":"amount","type":"uint256","indexed":false,"internalType":"uint256"}],"anonymous":false},{"type":"event","name":"HexBaseUpdated","inputs":[{"name":"previousHexBase","type":"address","indexed":true,"internalType":"address"},{"name":"newHexBase","type":"address","indexed":true,"internalType":"address"}],"anonymous":false},{"type":"event","name":"LogTxns","inputs":[{"name":"from","type":"address","indexed":false,"internalType":"address"},{"name":"orc1155","type":"address","indexed":false,"internalType":"address"},{"name":"_amt","type":"uint256","indexed":false,"internalType":"uint256"},{"name":"_value","type":"uint256","indexed":false,"internalType":"uint256"},{"name":"_time","type":"uint256","indexed":false,"internalType":"uint256"},{"name":"_type","type":"uint256","indexed":false,"internalType":"uint256"}],"anonymous":false},{"type":"event","name":"OwnerUpdated","inputs":[{"name":"previousOwner","type":"address","indexed":true,"internalType":"address"},{"name":"newOwner","type":"address","indexed":true,"internalType":"address"}],"anonymous":false},{"type":"error","name":"ReentrancyGuardReentrantCall","inputs":[]},{"type":"error","name":"TargetCallFailed","inputs":[{"name":"selector","type":"bytes4","internalType":"bytes4"}]}],"bytecode":{"object":"0x608034620000d157601f62005e0a38819003918201601f19168301916001600160401b03831184841017620000d657808492602094604052833981010312620000d157516001600160a01b03811690819003620000d15780156200008c5760018060a01b03193381600154161760015560005416176000556001600355604051615d1d9081620000ed8239f35b60405162461bcd60e51b815260206004820152601360248201527f6f776e2e696e76616c69642e68657862617365000000000000000000000000006044820152606490fd5b600080fd5b634e487b7160e01b600052604160045260246000fdfe60806040526004361015610018575b361561001657005b005b60003560e01c806302a085f21461034857806309d8da2e146103435780630b98f9751461033e57806312065fe01461033957806313ab4dc514610334578063141ca6601461032f57806318a541981461032a5780631f185d16146103255780631fc9788a14610320578063222b14071461031b5780632bb96697146103165780633b9b79551461031157806340124ece1461030c5780634702c08f146103075780634a65786c1461030257806352902c59146102fd5780635ed86d5c146102f85780636195685b146102f3578063619d5194146102ee5780636350b2c2146102e957806369245009146102e4578063723f0d85146102df578063725b6fff146102da57806373f42561146102d557806375b4d78c146102d05780637b058ac1146102cb5780637bfbfecb146102c6578063812600df146102c1578063880cdc31146102bc5780638da5cb5b146102b7578063901bcdd4146102b257806391b0d21c146102ad578063932ca2d6146102a8578063934209ce146102a35780639659867e1461029e578063a153154514610299578063a1f7f53914610294578063a98bf4f91461028f578063a9bf285b1461028a578063af48452614610285578063af640d0f14610280578063b90306ad1461027b578063c32487aa14610276578063c4cb291e14610271578063c54e44b01461026c578063d3a1a49914610267578063dcdd04a614610262578063e01ad5fd1461025d578063e0a9bc2b14610258578063fd915ef2146102535763fdc10bc90361000e57611830565b6117b3565b611798565b6116f9565b6115f7565b6115cb565b611565565b6114d6565b611416565b611363565b611345565b611314565b6112f6565b6112ca565b611213565b6111e3565b6111c5565b6111a7565b6110d6565b6110aa565b611079565b611050565b610f99565b610f6d565b610dce565b610d0b565b610ced565b610cc2565b610ca4565b610bfa565b610bdc565b610b85565b610ac1565b610a70565b610a09565b610917565b6108f1565b6108cb565b61089f565b610876565b610858565b61083a565b61076f565b61065f565b610622565b610571565b610545565b610529565b610482565b61045f565b604036600319011261045a5761036360ff6004541615611d38565b61037361036e615455565b611895565b61037c33615580565b80156103de575b61038c906119a7565b6103da61039d6024356004356123a9565b604080519889526020890197909752958701949094526060860192909252608085015260a084015260c083015260e0820152908190610100820190565b0390f35b50600054604051630536340960e21b8152906001600160a01b03906020908390600490829085165afa9081156104555761038c92600092610425575b501633149050610383565b61044791925060203d811161044e575b61043f8183611961565b810190611983565b903861041a565b503d610435565b61199b565b600080fd5b3461045a57600036600319011261045a57602060ff600454166040519015158152f35b3461045a57602036600319011261045a5761049e61036e615455565b6104a733615580565b80156104c2575b6104b7906119a7565b610016600435600555565b50600054604051630536340960e21b8152906001600160a01b03906020908390600490829085165afa908115610455576104b792600092610509575b5016331490506104ae565b61052291925060203d811161044e5761043f8183611961565b90386104fe565b3461045a57600036600319011261045a57602047604051908152f35b3461045a57602036600319011261045a57600435600052601b6020526020604060002054604051908152f35b602036600319011261045a5761058861036e615455565b61059133615580565b80156105bb575b6105a1906119a7565b6105a9612386565b6105b4600435613200565b6001600355005b50600054604051630536340960e21b8152906001600160a01b03906020908390600490829085165afa908115610455576105a192600092610602575b501633149050610598565b61061b91925060203d811161044e5761043f8183611961565b90386105f7565b3461045a57602036600319011261045a57600435600052601d6020526020604060002054604051908152f35b6001600160a01b0381160361045a57565b3461045a5760208060031936011261045a576004908135906106808261064e565b600054819061069f906001600160a01b03165b6001600160a01b031690565b604051634bf9c0ad60e11b815294859182905afa918215610455576106f661073093610712926103da9660009261074c575b506040516001600160a01b039091168582019081529092610704918491602090910190565b03601f198101845283611961565b61070c61562c565b906159ea565b919080610742575b61072390615659565b8082518301019101615440565b60405190151581529081906020820190565b508151811461071a565b61070491925061076890863d881161044e5761043f8183611961565b91906106d1565b3461045a5760e036600319011261045a5761078b61036e615455565b61079433615580565b80156107d3575b6107a4906119a7565b6107c160c43560a435608435606435604435602435600435613f3b565b60408051928352602083019190915290f35b50600054604051630536340960e21b8152906001600160a01b03906020908390600490829085165afa908115610455576107a49260009261081a575b50163314905061079b565b61083391925060203d811161044e5761043f8183611961565b903861080f565b3461045a57600036600319011261045a576020600c54604051908152f35b3461045a57600036600319011261045a576020601554604051908152f35b3461045a57600036600319011261045a576000546040516001600160a01b039091168152602090f35b3461045a57602036600319011261045a57600435600052601c6020526020604060002054604051908152f35b3461045a57600036600319011261045a57602060ff60045460101c166040519015158152f35b3461045a57600036600319011261045a57602060ff60045460081c166040519015158152f35b3461045a57606036600319011261045a576004356109348161064e565b6024356109408161064e565b6000546001600160a01b0390811692819061095b8515611853565b169061097682159161096d8315611853565b84161515611853565b6109ce57600080546001600160a01b0319166001600160a01b0383161790556109c3927fe939feee179e631422bcc8f6e6d7d908cb3f8af38f5372f17c77e15aea5c80ee600080a3615756565b610016604435600755565b60405162461bcd60e51b81526020600482015260136024820152726f776e2e696e76616c69642e6865786261736560681b6044820152606490fd5b3461045a57602036600319011261045a576103da610a38610a33600435610a2e61569e565b6148d5565b614d22565b50604080519788526020880196909652948601939093526060850191909152608084015260a083015260c082015290819060e0820190565b3461045a57600036600319011261045a57601f600052601660209081527f50eede7cc9d9157638c32051246e3b16ef1b4d09c2f4b59ff806a325cf84bf2c54604051908152f35b8015150361045a57565b3461045a57602036600319011261045a57600435610ade81610ab7565b610ae961036e615455565b610af233615580565b8015610b18575b90610b06610016926119a7565b60ff8019600454169115151617600455565b50600054604051630536340960e21b81526001600160a01b0392916020908290600490829087165afa80156104555761001693610b0692600092610b65575b503391161491925050610af9565b610b7e91925060203d811161044e5761043f8183611961565b9038610b57565b3461045a57602036600319011261045a57600435600052601860205260806040600020805490600181015490600281015490600360018060a01b039101541691604051938452602084015260408301526060820152f35b3461045a57600036600319011261045a576020600a54604051908152f35b3461045a57604036600319011261045a57610c1661036e615455565b610c1f33615580565b8015610c3d575b610c2f906119a7565b610016602435600435611b96565b50600054604051630536340960e21b8152906001600160a01b03906020908390600490829085165afa90811561045557610c2f92600092610c84575b501633149050610c26565b610c9d91925060203d811161044e5761043f8183611961565b9038610c79565b3461045a57600036600319011261045a576020600854604051908152f35b3461045a57600080600319360112610cea576040818060209352601683522054604051908152f35b80fd5b3461045a57600036600319011261045a576020600554604051908152f35b3461045a5760a036600319011261045a57608435610d2881610ab7565b610d3361036e615455565b610d3c33615580565b8015610d61575b90610d506107c1926119a7565b606435604435602435600435613e18565b50600054604051630536340960e21b81526001600160a01b0392916020908290600490829087165afa8015610455576107c193610d5092600092610dae575b503391161491925050610d43565b610dc791925060203d811161044e5761043f8183611961565b9038610da0565b600080600319360112610cea57610dea60ff6004541615611d38565b610df2612386565b610e02610dfd61569e565b600255565b8054610e16906001600160a01b0316610693565b60405190816311be646b60e21b9182825281600460209586935afa801561045557610e4a918591610f50575b503490615813565b6000805260166020527f0263c2b778d062355049effc2dece97bc6547ff8a88a3258daa512061c2153dd610e7f3482546122c8565b9055610eaa610e8c6144d4565b50905062ff000060045491151560101b169062ff0000191617600455565b82548290610ec0906001600160a01b0316610693565b9160046040518094819382525afa90811561045557600080516020615ca8833981519152928492610f33575b5050600254604080513381526001600160a01b0393909316602084015260009083015234606083015260808201526103e860a082015260c090a1610f306001600355565b80f35b610f499250803d1061044e5761043f8183611961565b3880610eec565b610f679150843d861161044e5761043f8183611961565b38610e42565b3461045a57602036600319011261045a5760043560005260166020526020604060002054604051908152f35b3461045a57602036600319011261045a57600435610fb68161064e565b610fc161036e615455565b610fca33615580565b8015610fe3575b90610fde610016926119a7565b611cca565b50600054604051630536340960e21b81526001600160a01b0392916020908290600490829087165afa80156104555761001693610fde92600092611030575b503391161491925050610fd1565b61104991925060203d811161044e5761043f8183611961565b9038611022565b3461045a57600036600319011261045a576001546040516001600160a01b039091168152602090f35b3461045a57602036600319011261045a576004356000526017602052602060ff604060002054166040519015158152f35b3461045a57602036600319011261045a57600435600052601a6020526020604060002054604051908152f35b60a036600319011261045a576004356110ee8161064e565b6110fd60ff6004541615611d38565b61110861036e615455565b61111133615580565b801561113a575b906111256107c1926119a7565b60843590606435906044359060243590611d72565b50600054604051630536340960e21b81526001600160a01b0392916020908290600490829087165afa8015610455576107c19361112592600092611187575b503391161491925050611118565b6111a091925060203d811161044e5761043f8183611961565b9038611179565b3461045a57600036600319011261045a576020600b54604051908152f35b3461045a57600036600319011261045a576020600654604051908152f35b3461045a57600036600319011261045a5760606111fe6144d4565b90604051928352151560208301526040820152f35b3461045a57600036600319011261045a5760005460405163d1f956b160e01b815290602090829060049082906001600160a01b03165afa908115610455576103da9161129c916000916112ac575b5060405161126e8161190d565b601381527267657464656c656761746f72436f756e74282960681b60208201526112966120ce565b91615b0b565b6040519081529081906020820190565b6112c4915060203d811161044e5761043f8183611961565b38611261565b3461045a57602036600319011261045a5760043560005260196020526020604060002054604051908152f35b3461045a57600036600319011261045a576020600954604051908152f35b3461045a57602036600319011261045a57602061133b6004356113368161064e565b615580565b6040519015158152f35b3461045a57600036600319011261045a576020600754604051908152f35b3461045a57602036600319011261045a57600054604051630536340960e21b8152906001600160a01b03906020908390600490829085165afa918215610455576000926113f6575b50339116036113bf576100166004356158ea565b60405162461bcd60e51b815260206004820152600f60248201526e6f776e2e6e6f6e617574682e44414f60881b6044820152606490fd5b61140f91925060203d811161044e5761043f8183611961565b90386113ab565b3461045a57600080600319360112610cea5760088152601660205260406103da8183205491600984528084205493600a81528181205490600b8152828082205491600c8152205490611473600d6000526016602052604060002090565b54600e6000526016602052927fd6e1ce7303b8b03e4f8e61fd057015f1c58732e116f2a323c5d9ed9df544bd9a5b5494519788978893909796959260c0959260e08601998652602086015260408501526060840152608083015260a08201520152565b3461045a57600080600319360112610cea57600f8152601660205260406103da8183205491601084528084205493601181528181205490601281528280822054916013815220549061153360146000526016602052604060002090565b5460156000526016602052927fe3be994f4df1ce307d3423eeebbbb0cd25598c1b97b848f71392674439a00e376114a1565b3461045a57602036600319011261045a57602061158c6004356115878161064e565b615c35565b6040516001600160a01b039091168152f35b634e487b7160e01b600052603260045260246000fd5b60088110156115c657600d0190600090565b61159e565b3461045a57602036600319011261045a57600435600881101561045a57602090600d0154604051908152f35b3461045a5760e036600319011261045a5760043561161481610ab7565b60243561162081610ab7565b60443561162c81610ab7565b60643561163881610ab7565b6084359061164582610ab7565b60a4359261165284610ab7565b60c4359461165f86610ab7565b61166a61036e615455565b61167333615580565b801561168c575b96611687610016986119a7565b6119f3565b50600054604051630536340960e21b81526001600160a01b039891602090829060049082908d165afa80156104555761001699611687926000926116d9575b50339116149198505061167a565b6116f291925060203d811161044e5761043f8183611961565b90386116cb565b3461045a5760208060031936011261045a57600480356117188161064e565b60005460405163d1f956b160e01b81526001600160a01b03949093909182918591829088165afa908115610455576103da9461073094600093611779575b50604051931681840152825261176b8261190d565b611773615729565b90615acf565b611791919350823d841161044e5761043f8183611961565b9138611756565b3461045a57600036600319011261045a57602061133b615455565b3461045a57600080600319360112610cea5760018152601660205260406103da8183205491600284528084205493600381528181205490600481528280822054916005815220549061181060066000526016602052604060002090565b546007600052601660205292600080516020615cc88339815191526114a1565b3461045a57600036600319011261045a57602061184b61569e565b604051908152f35b1561185a57565b60405162461bcd60e51b81526020600482015260136024820152721cdd1bdc8b9c1c995a5b9a5d0b99985a5b1959606a1b6044820152606490fd5b1561189c57565b60405162461bcd60e51b81526020600482015260126024820152716f776e2e696e76616c69642e69735361666560701b6044820152606490fd5b634e487b7160e01b600052604160045260246000fd5b6060810190811067ffffffffffffffff82111761190857604052565b6118d6565b6040810190811067ffffffffffffffff82111761190857604052565b6020810190811067ffffffffffffffff82111761190857604052565b60e0810190811067ffffffffffffffff82111761190857604052565b90601f8019910116810190811067ffffffffffffffff82111761190857604052565b9081602091031261045a57516119988161064e565b90565b6040513d6000823e3d90fd5b156119ae57565b60405162461bcd60e51b815260206004820152601b60248201527f6f776e2e6e6f6e617574682e44414f6f725365637572656261736500000000006044820152606490fd5b611b7c969593611ab8611b4c94611a88610b069895611a4b611ae896611a1761569e565b8060025560ff60045460101c1615611b7e575b506001600052601760205260406000209060ff801983541691151516179055565b600260005260176020527fc52df653038b2ad477d8d97f1ddd63cfd138847b628ad8a7b89c109c3f8782ca5b9060ff801983541691151516179055565b600360005260176020527fd8b2bced50346359af71f91110b86cdf684b6ab1c6ca64a7583c044d5c24de5c611a77565b600460005260176020527f68052a315987b3c92fe6f7df77391bc5a825cabe4950d34f36f8f4e8a6abcb4d611a77565b60056000526017602052611b1c817f70266c3d5b8b2375fded59c72bf5f0d74bbb12fdf645a4c8630629f0191fb317611a77565b600660005260176020527fdba639bd458ad7aa817aa5e381ad7ed79ea3aeac2e3d9b2d7c51df9a9229709d611a77565b600760005260176020527ffae2f3cf7832fe1c3d9af0d1138f3108106a06e0c9fcfc402be937e37ff7af66611a77565b565b611b8b81611b90926148d5565b6148f3565b38611a2a565b60ff60045460101c1615611ba8575050565b6005600052601760205260ff7f70266c3d5b8b2375fded59c72bf5f0d74bbb12fdf645a4c8630629f0191fb317541615611c9957600c60005260166020527f329445f4448b7d20eec86c1386b39f5d1ed2d5f198689536ebcae9f2881958c3555b6006600052601760205260ff7fdba639bd458ad7aa817aa5e381ad7ed79ea3aeac2e3d9b2d7c51df9a9229709d541615611c6b57600d60005260166020527f1f3872f63ca641494b685e4fa2176636d028d8c80f254656e89768cf2724327355565b601460005260166020527f7beb2646ec614ee6b553f9ed5c257fdce28fa220de7a1708afec2ddbe81f1b3055565b601360005260166020527f8e8ddf6db11641650f4fdf401a12def6a7e0b43b7e1e0b4a9bb751fc3ac1eab555611c09565b6001600160a01b03168015611cf3576bffffffffffffffffffffffff60a01b6001541617600155565b60405162461bcd60e51b815260206004820152601760248201527f73746f722e7570646174654f776e65722e6661696c65640000000000000000006044820152606490fd5b15611d3f57565b60405162461bcd60e51b815260206004820152600b60248201526a1cdd1bdc8b9b1bd8dad95960aa1b6044820152606490fd5b929493919091611d80612386565b611d8b610dfd61569e565b600054600490602090611da6906001600160a01b0316610693565b60405163cfbffe5360e01b815292839182905afa801561045557600080516020615ca883398151915294611e7a611f1192611f1e94600091612067575b50611e35611e0b611e03611df56120e1565b611dfd6120f9565b85615b0b565b60025461213a565b611e2f611e27611e196120e1565b611e2161215a565b86615b0b565b60065461213a565b14612188565b611e69611e51611e436120e1565b611e4b6121d4565b84615b0b565b91611e5a6120e1565b90611e636121fc565b90615b0b565b90871015908161205c575b50612224565b611e8b611e8688615580565b612263565b8460018514918260001461205257611ea282613d71565b809b81945b612018575b505060065415611ffd575b611eca611ec5600654612333565b600655565b60025498611ed6612085565b99848b528360208c015260408b0152611f0c60608b019a60008c52611f076006546000526018602052604060002090565b612342565b612b0a565b6001600160a01b03168552565b8351611f65906001600160a01b03166003611f456006546000526018602052604060002090565b0180546001600160a01b0319166001600160a01b03909216919091179055565b611fde611f9e611f7488612c77565b95611f8c611f8860045460ff9060101c1690565b1590565b611fed575b516001600160a01b031690565b600254604080513381526001600160a01b03909316602084015282019490945260608101889052608081019390935260a0830191909152819060c0820190565b0390a19190611b7c6001600355565b611ff8610e8c6144d4565b611f91565b612008600254600855565b612013600254600955565b611eb7565b61204b91612041612046926005549061203c8461203584846122c8565b10156122d5565b6122c8565b612326565b600555565b8238611eac565b8a809b8194611ea7565b905086111538611e74565b61207f915060203d811161044e5761043f8183611961565b38611de3565b604051906080820182811067ffffffffffffffff82111761190857604052565b60405190611b7c82611945565b67ffffffffffffffff811161190857601f01601f191660200190565b604051906120db82611929565b60008252565b6040516120ed81611929565b60008152906000368137565b604051906121068261190d565b600f82526e6d696e744379636c6544617973282960881b6020830152565b634e487b7160e01b600052601160045260246000fd5b8115612144570490565b634e487b7160e01b600052601260045260246000fd5b604051906121678261190d565b60128252716d61784d696e74735065724379636c65282960701b6020830152565b1561218f57565b60405162461bcd60e51b815260206004820152601760248201527f73746f722e6d696e746c696d69742e65786365656465640000000000000000006044820152606490fd5b604051906121e18261190d565b600c82526b6d696e4d696e74517479282960a01b6020830152565b604051906122098261190d565b600c82526b6d61784d696e74517479282960a01b6020830152565b1561222b57565b60405162461bcd60e51b815260206004820152601060248201526f73746f722e6c6f772e6d61782e71747960801b6044820152606490fd5b1561226a57565b60405162461bcd60e51b815260206004820152601560248201527473746f722e756e7365637572652e4f52433131353560581b6044820152606490fd5b60470190816047116122b557565b612124565b90600182018092116122b557565b919082018092116122b557565b156122dc57565b60405162461bcd60e51b815260206004820152601360248201527273746f722e66616b652e6d696e7476616c756560681b6044820152606490fd5b6000198101919082116122b557565b919082039182116122b557565b60001981146122b55760010190565b81518155602082015160018201556040820151600282015560609091015160039190910180546001600160a01b0319166001600160a01b0392909216919091179055565b600260035414612397576002600355565b604051633ee5aeb560e01b8152600490fd5b906123b2612386565b600092600093849385938693879388936123cc8a94600255565b89546123e0906001600160a01b0316610693565b604090815192839163cfbffe5360e01b835282600460209687935afa918215610455578d92612939575b50611b8b61244591612425611f8860045460ff9060101c1690565b612929575b600254610a2e606461243e60085484612326565b1115612960565b61246461245b6124536120e1565b611e4b6129ac565b600954906122c8565b9060025491821015612487575b505050509796959493929190611b7c6001600355565b6124a06124926120e1565b61249a6129de565b83615b0b565b916124b46124ac6120e1565b611e4b612a0a565b600f6000526016602052916126166125e66125b66125866125566125267fc361f6d77665192d237562bd0853419e4f63406390ab643d0f1cdbcdd3e2cbae54601060005260166020527f2a87e474c76dec5537d547c3958b767dcf7498ad7afcca0a2eb8ad1481fbf5b65b54906122c8565b601160005260166020527f8419164215688829c599d418012c77589d6ed4c687dc9e57a4a19678f70f8a3161251f565b601260005260166020527f8531638db615388f9d93ea5c79a334675d6050f9d301f5b6af156a74ff56963561251f565b601360005260166020527f8e8ddf6db11641650f4fdf401a12def6a7e0b43b7e1e0b4a9bb751fc3ac1eab561251f565b601460005260166020527f7beb2646ec614ee6b553f9ed5c257fdce28fa220de7a1708afec2ddbe81f1b3061251f565b601560005260166020527fe3be994f4df1ce307d3423eeebbbb0cd25598c1b97b848f71392674439a00e3761251f565b93841015612626575b5050612471565b9550965096509650975098975061264a9195506126416120e1565b90611e63612a36565b86546004908990612663906001600160a01b0316610693565b885163ab6e844f60e01b815292839182905afa928315610455576126b2936126ac928a9161290c575b508851808c01928352916126a49083906020016106f6565b611e63612a68565b10612a99565b80821115612904576126c391612326565b6126cb6120a5565b90600f82526010868301526011848301526012606083015260136080830152601460a0830152601560c08301526127006120a5565b600181526002878201526003858201526004606082015260056080820152600660a08201526007958660c0830152612736612ae5565b9381935b88851061281357505050505080519481015193838201519360608301519360808401519360a08101519360c082015194959697989991612785601f6000526016602052604060002090565b5494612792600254600955565b6009549160005b8481106127a6578061261f565b80600080516020615ca8833981519152856127c461280e9486612af9565b516128066127d1856122a7565b885133815260006020820181905260408201526060810193909352608083019390935260a082019290925290819060c0820190565b0390a1612333565b612799565b8061283561282487859c999c612af9565b516000526016602052604060002090565b54106128bb576128529061284c6128248785612af9565b54612326565b61285c858a612af9565b526128678489612af9565b516128806128786128248785612af9565b918254612326565b90556128b282945b612892818b612af9565b516128ab6128a36128248489612af9565b9182546122c8565b9055612333565b9397949761273a565b6128d66128b2916128cf6128248886612af9565b5490612326565b946128e46128248285612af9565b546128ef828c612af9565b52836128fe6128248386612af9565b55612888565b5050826126c3565b61292391508b3d8d1161044e5761043f8183611961565b3861268c565b612934610e8c6144d4565b61242a565b612445919250612958611b8b91863d881161044e5761043f8183611961565b92915061240a565b1561296757565b60405162461bcd60e51b815260206004820152601860248201527f73746f722e6167652e77696e646f772e657863656564656400000000000000006044820152606490fd5b604051906129b98261190d565b60168252757769746864726177496e74657276616c44617973282960501b6020830152565b604051906129eb8261190d565b601082526f6d696e436c61696d506572446179282960801b6020830152565b60405190612a178261190d565b601082526f6d6178436c61696d506572446179282960801b6020830152565b60405190612a438261190d565b60168252756d6178476c6f62616c436c61696d506572446179282960501b6020830152565b60405190612a758261190d565b601582527467657477697468647261776e2875696e743235362960581b6020830152565b15612aa057565b60405162461bcd60e51b815260206004820152601e60248201527f73746f722e676c6f62616c2e706f6f6c2e6c696d69742e7265616368656400006044820152606490fd5b60405190612af282611945565b60e0368337565b9060078110156115c65760051b0190565b91612b7092612b619260018060a01b0395866001541693600254926040519563c85700fb60e01b6020880152602487015260448601526064850152608484015260a483015260a48252612b5c82611945565b615b7a565b60208082518301019101611983565b168015612b7a5790565b60405162461bcd60e51b815260206004820152601060248201526f1cdd1bdc8b9b5a5b9d0b99985a5b195960821b6044820152606490fd5b60405190612bbf8261190d565b6006825265706f6f6c282960d01b6020830152565b908160e091031261045a5780519160208201519160408101519160608201519160808101519160c060a083015192015190565b90612710918281029281840414901517156122b557565b90816064029160648304036122b557565b818102929181159184041417156122b557565b919091600083820193841291129080158216911516176122b557565b818103929160001380158285131691841216176122b557565b60005460049190602090612c93906001600160a01b0316610693565b60405163cfbffe5360e01b815293849182905afa801561045557612d5a612d35612d1a61203c612d25612d0f612d1f612cff612cf0612d14996119989c600091612d6c575b50612ce16120e1565b90612cea612bb2565b906159bf565b60208082518301019101612bd4565b9e8f9b969e949892959150612c2f565b612c2f565b93612c2f565b612c07565b9061213a565b94612d45612d358261203c61569e565b6000526019602052604060002090565b612d50878254612c42565b905561203c61569e565b612d65828254612c5e565b9055612c2f565b612d84915060203d811161044e5761043f8183611961565b38612cd8565b60405190612d978261190d565b601382527255736572546f496e737428616464726573732960681b6020830152565b15612dc057565b60405162461bcd60e51b815260206004820152601a60248201527f73746f722e696d706f72742e6c696d69742e65786365656465640000000000006044820152606490fd5b60405190612e128261190d565b600b82526a6d696e74436f756e74282960a81b6020830152565b60405190612e398261190d565b600e82526d6d696e74732875696e743235362960901b6020830152565b60405190612e638261190d565b600b82526a6d696e746564416765282960a81b6020830152565b60405190612e8a8261190d565b600b82526a6d696e746564717479282960a81b6020830152565b60405190612eb18261190d565b600c82526b6964732875696e743235362960a01b6020830152565b60405190612ed98261190d565b60098252686d696e74416d74282960b81b6020830152565b604051906080820182811067ffffffffffffffff8211176119085760405260006060838281528260208201528260408201520152565b60405190612f348261190d565b600a825269647261776e616765282960b01b6020830152565b60405190612f5a8261190d565b600c82526b4c53422875696e743235362960a01b6020830152565b60405190612f828261190d565b6007825266647261776e282960c81b6020830152565b91908260c091031261045a5781519160208101519160408201519160608101519160a0608083015192015190565b60405190612fd38261190d565b60138252726765745265776172647328616464726573732960681b6020830152565b919082604091031261045a576020825192015190565b604051906130188261190d565b6007825266626f6e7573282960c81b6020830152565b6040519061303b8261190d565b600682526563616765282960d01b6020830152565b6040519061305d8261190d565b601982527f67657445666665637469766552616e6b286164647265737329000000000000006020830152565b604051906130968261190d565b601c82527f6765744e6f646544697265637473436f756e74286164647265737329000000006020830152565b604051906130cf8261190d565b601f82527f6765746e6f646572616e6b61676528616464726573732c75696e7432353629006020830152565b604051906131088261190d565b601082526f6765744e6f646528616464726573732960801b6020830152565b908160a091031261045a5780519160208201516131438161064e565b916040810151916080606083015161315a81610ab7565b92015161199881610ab7565b604051906131738261190d565b601582527467657444656c656761746f7228616464726573732960581b6020830152565b604051906131a48261190d565b6014825273697344656c656761746f7228616464726573732960601b6020830152565b604051906131d48261190d565b601a82527f77697468647261776e496e636f6d654f662861646472657373290000000000006020830152565b6000546004919060209061321c906001600160a01b0316610693565b60405163111ea8c160e21b815293849182905afa91821561045557600092613d50575b50600154604080516001600160a01b039092166020830152613281919061327390829081015b03601f198101835282611961565b61327b612d8a565b84615a84565b906001600160a01b038216158015613d41575b61375f576132a56005821115612db9565b6132b86132b06120e1565b611e4b612e05565b906006546132c681836122c8565b831115613d39576132d6916122c8565b816139b6575b5080600654149081156139ad575b506132f3575050565b61330e6133096133016120e1565b611e4b612f27565b600a55565b600a546008548111613965575b5061334761333861332a6120e1565b613332612f75565b846159bf565b60208082518301019101612f98565b601660209081527f4c4dc693d7db52f85fe052106f4b4b920e78e8ef37dee82878a60ab8585faf49969096557fcaff291fe014adc6b72a172705750b4cabe8f8667664d2924a166caab2885648949094557ff06d282f967055cb1eee17e04aa005b9682a620f4bbcfaee55ba78607a3d87ae929092557fec061709de2491458f4c981032059d7d19b0e55f45018bac6b3e660bdc959a59557f5696377e725b42a372ecc45f0fbdab5e9555865aef54619ad9381892f667bbf05560066000527fc6a239f207aea309a1b4879cb5411b8facfc2bc1e4cc4717ff2598676c399b5f55604080516001600160a01b0384169281019290925261346f91613460916134529082908101613265565b61345a612fc6565b856159bf565b60208082518301019101612ff5565b60166020527fa03de401ff86fc22e691d3563b736c9fadf4f2babab79e9b7995ce6f656920a79190915560686000527f5a2cd1a21e67d7dda0aeee7dda01b941de71cc935cebfacc2b9b226beb2ced33556134d66120466134ce6120e1565b611e4b61300b565b6134ec6133096134e46120e1565b611e4b61302e565b604080516001600160a01b03831660208201526135229161351d91906135159082908101613265565b611dfd613050565b600b55565b604080516001600160a01b038316602082015261355891613553919061354b9082908101613265565b611dfd613089565b600c55565b60005b600f8111156138545750604080516001600160a01b0390921660208301526135c3926135ac9261359d9290919061359590839081016106f6565b612cea6130fb565b60208082518301019101613127565b935050505060ff8019600454169115151617600455565b6136026135d260045460ff1690565b600160005260176020527ff36d6bc9642eb6fb6ee9998b09ce990566df752ab06e11f8de7ab633bbd57b8f611a77565b613611611a4b60045460ff1690565b613620611a8860045460ff1690565b61362f611ab860045460ff1690565b61366e61363e60045460ff1690565b600560005260176020527f70266c3d5b8b2375fded59c72bf5f0d74bbb12fdf645a4c8630629f0191fb317611a77565b61367d611b1c60045460ff1690565b61368c611b4c60045460ff1690565b6000546136a1906001600160a01b0316610693565b604051906314ac1b5960e21b808352602083600481855afa92831561045557600093613833575b5060015461370a906001600160a01b0316604080516001600160a01b03831660208201529195906136fc90839081016106f6565b613704613166565b90615a84565b604051828152602081600481875afa80156104555761375a926106f69260009261380e575b50604080516001600160a01b039092166020830152909261375291849190820190565b611773613197565b613776575b505050611b7c61010061ff00196004541617600455565b60209060046040518094819382525afa8015610455576137c7926106f6926000926137e9575b50604080516001600160a01b03909216602083015290926137bf91849190820190565b611e636131c7565b60076000526016602052600080516020615cc88339815191525538808061375f565b6137bf9192506138079060203d60201161044e5761043f8183611961565b919061379c565b61375291925061382c9060203d60201161044e5761043f8183611961565b919061372f565b61384d91935060203d60201161044e5761043f8183611961565b91386136c8565b8061386d916138f4575b6007811115613872575b612333565b61355b565b600b548082116138db5750604080516001600160a01b0385166020820152908101829052613868906138b9906138ab8160608101613265565b6138b36130c2565b87615b0b565b6138c2836115b4565b90919082549060031b91821b91600019901b1916179055565b6138b96138ea613868926115b4565b90549060031b1c90565b604051632994ed6560e11b60208201526001600160a01b038416602482015260448101829052613935906134609061392f8160648101613265565b86615b7a565b61394983600052601a602052604060002090565b9061395e84600052601b602052604060002090565b555561385e565b600855613990613265613988600a54604051928391602083019190602083019252565b61249a612f4d565b6139a66008546000526019602052604060002090565b553861331b565b905015386132ea565b600080527fb75ecc04ed35f89790e98640e901bda41eceff0cb896cf2765fb69768025375054601b6020527f584f46c60af19681376031579adb04a2416e54ee5505351c2a8435e3766026ea549095909491929091905b60065484811015613cdc57611ec5613a2491612333565b613a52613265613a44600654604051928391602083019190602083019252565b613a4c612e2c565b87615a84565b613a68610dfd613a606120e1565b611e4b612e56565b613b02613a7e613a766120e1565b611e4b612e7d565b98613aa3604051613a9b8161326560208201906000602083019252565b611dfd612ea4565b98613ac0613aba613ab26120e1565b6138b3612ecc565b94615c35565b600054602090613ad8906001600160a01b0316610693565b6040516333ea87db60e21b81526001600160a01b0390931660048401529194859081906024820190565b0381845afa908115610455578c94600092613cbb575b506001600160a01b03821615613c62575b50613b3381615580565b613b3c90612263565b8484613b46612ef1565b93828552816020860152600295865460408701528386600654613b73906000526018602052604060002090565b90613b7d91612342565b613b86916122c8565b9e613b90916122c8565b9c613b9a93612b0a565b600654613bb1906000526018602052604060002090565b60030180546001600160a01b0319166001600160a01b03909216919091179055613bda84612c77565b5060065460011493613c0e6060613c4b93600080516020615ca883398151915297613c53575b01516001600160a01b031690565b9254604080513381526001600160a01b03909516602086015284019490945260608301526080820192909252600060a082015290819060c0820190565b0390a1613a0d565b613c5d8654600855565b613c00565b604051635bb8e44b60e11b815260006004820152945060209150849060249082905afa8015610455578b93600091613c9c575b5038613b29565b613cb5915060203d60201161044e5761043f8183611961565b38613c95565b613cd591925060203d60201161044e5761043f8183611961565b9038613b18565b50600080527fb75ecc04ed35f89790e98640e901bda41eceff0cb896cf2765fb69768025375096909655601b6020527f584f46c60af19681376031579adb04a2416e54ee5505351c2a8435e3766026ea94909455939050386132dc565b5050806132d6565b5060045460081c60ff16613294565b613d6a91925060203d60201161044e5761043f8183611961565b903861323f565b60005460405163cfbffe5360e01b815291906020908190849060049082906001600160a01b03165afa80156104555761199893600091613dfb575b506040519282840152818352613dc18361190d565b7f636f6d707574654d696e7456616c75652875696e74323536290000000000000060405192613def8461190d565b60198452830152615b0b565b613e129150823d841161044e5761043f8183611961565b38613dac565b9493909291928315613ead57613e7293600b549683600014613e8757816128a391613e536128a3613e6595600052601a602052604060002090565b9055600052601b602052604060002090565b90555b15613e7857614347565b600b5490565b613e826000600b55565b614347565b8161287891613e53612878613ea695600052601a602052604060002090565b9055613e68565b60405162461bcd60e51b815260206004820152600f60248201526e73746f722e6c6576656c2e7a65726f60881b6044820152606490fd5b60405190613ef18261190d565b60148252736c6576656c436c617573652875696e743235362960601b6020830152565b908160a091031261045a578051916020820151916040810151916080606083015192015190565b9193949096959683151597886142b6575b50600b5497613f6585600052601a602052604060002090565b613f708582546122c8565b9055613f8685600052601b602052604060002090565b613f918382546122c8565b905560008052601a6020527fb75ecc04ed35f89790e98640e901bda41eceff0cb896cf2765fb69768025375054151590816142ae575b50613fd9575b505050505050600b5490565b6142a0575b600054613ff3906001600160a01b0316610693565b604051809163cfbffe5360e01b825281600460209384935afa918215610455576140529261404591600091614283575b506040519061403d826106f68a8783019190602083019252565b612cea613ee4565b8051810182019101613f14565b949091936002881191821592614256575b5050614071575b5050613fcd565b614091612d1f93612d1f61408b61408b9561409799612c2f565b91612c1e565b96612c2f565b50600160005260176020526140ce7ff36d6bc9642eb6fb6ee9998b09ce990566df752ab06e11f8de7ab633bbd57b8f5b5460ff1690565b80614247575b1561422157600860005260166020527f5d722ae86c7aff0f95f426cf86f75793e8cd1a526603df14563c190f75fd2ef361410f8382546122c8565b90555b600460005260176020526141457f68052a315987b3c92fe6f7df77391bc5a825cabe4950d34f36f8f4e8a6abcb4d6140c7565b80614212575b156141f45750600b60005260166020526141847fcfa8b17cfe829ccfb82a1b8bc946a78d914318562253e01c04a5bbac5c20f86b6128a3565b90555b6004546141989060101c60ff161590565b6141a9575b8080808080808061406a565b6141db906141b56144d4565b50809291506141e1575b5062ff000060045491151560101b169062ff0000191617600455565b3861419d565b611b8b816141ee926148d5565b386141bf565b6128a361420b91600052601d602052604060002090565b9055614187565b5060045460101c60ff1661414b565b61423581600052601c602052604060002090565b6142408382546122c8565b9055614112565b5060045460101c60ff166140d4565b909150614265600a548b612326565b10908115614276575b503880614063565b9050600b5410153861426e565b61429a9150833d851161044e5761043f8183611961565b38614023565b6142a985614347565b613fde565b905038613fc7565b60048110613f4c576015541561430a575b6142dc6142d660155489612326565b84111590565b90816142fe575b506142ee5738613f4c565b5050505050509050600b54908190565b9050600b5410386142e3565b61431387601555565b6142c7565b604051906143258261190d565b601382527272616e6b436c617573652875696e743235362960681b6020830152565b600b61435381546122ba565b6008811061436057505050565b60008054909190614379906001600160a01b0316610693565b91604092835191829163cfbffe5360e01b835282600460209485935afa8015610455576143fc956143db946143ce9392614436575b5051906143c6826106f6888783019190602083019252565b612cea614318565b8051810182019101612ff5565b90600c541015908161440f575b50614401575b613868846138c285546115b4565b614353565b61440a81600b55565b6143ee565b905061442d61441d83612317565b600052601b602052604060002090565b541015386143e8565b61444e919250843d861161044e5761043f8183611961565b90386143ae565b604051906144628261190d565b600982526863617070696e67282960b81b6020830152565b908160e091031261045a57805191602082015161449681610ab7565b9160408101516144a581610ab7565b9160608201516144b481610ab7565b9160808101516144c381610ab7565b9160c060a083015161315a81610ab7565b6000546004906020906144ef906001600160a01b0316610693565b60405163cfbffe5360e01b815292839182905afa9081156104555761454091614531916000916148b7575b50614523614455565b61452b6120ce565b916159bf565b6020808251830101910161447a565b919592969461455960008052601a602052604060002090565b54966145658589612c2f565b988996614570615333565b94614876575b506147e0575b61477a575b614739575b50614663575b6145fb575b6000805260166020527f0263c2b778d062355049effc2dece97bc6547ff8a88a3258daa512061c2153dd546145c591612c2f565b808410156145ea575b50808311928181106145e1575050600090565b61199891612326565b6145f49193612326565b91386145ce565b60076000526016602052926145c59061465b906146556125e6600080516020615cc88339815191525b54600e60005260166020527fd6e1ce7303b8b03e4f8e61fd057015f1c58732e116f2a323c5d9ed9df544bd9a61251f565b906122c8565b939050614591565b6005600052601660205293614733906146556147036146d36125b66125867f5696377e725b42a372ecc45f0fbdab5e9555865aef54619ad9381892f667bbf054600660005260166020527fc6a239f207aea309a1b4879cb5411b8facfc2bc1e4cc4717ff2598676c399b5f61251f565b600c60005260166020527f329445f4448b7d20eec86c1386b39f5d1ed2d5f198689536ebcae9f2881958c361251f565b600d60005260166020527f1f3872f63ca641494b685e4fa2176636d028d8c80f254656e89768cf2724327361251f565b9361458c565b600b6000526016602052909561477391614655907fcfa8b17cfe829ccfb82a1b8bc946a78d914318562253e01c04a5bbac5c20f86b61251f565b9438614586565b60166020527ff06d282f967055cb1eee17e04aa005b9682a620f4bbcfaee55ba78607a3d87ae54600a60005290976147da9161465590612526907fd5b9797c47f98351da0d9dc8805f06430ade47345ddb9b2bd6f346a04809cc4161251f565b96614581565b60166020527fcaff291fe014adc6b72a172705750b4cabe8f8667664d2924a166caab288564854600960005290986148709161465590614840907f650982f08e47212452de30f662e413cf6044e641dedc09b52c1617e804a2611e61251f565b601060005260166020527f2a87e474c76dec5537d547c3958b767dcf7498ad7afcca0a2eb8ad1481fbf5b661251f565b9761457c565b6008600052601660205290996148b091614655907f5d722ae86c7aff0f95f426cf86f75793e8cd1a526603df14563c190f75fd2ef361251f565b9838614576565b6148cf915060203d811161044e5761043f8183611961565b3861451a565b6008549182018092116122b557818111156148ee575090565b905090565b611b7c9061490081614d22565b95939250939590506149206128a3600f6000526016602052604060002090565b9055601260005260166020526149557f8531638db615388f9d93ea5c79a334675d6050f9d301f5b6af156a74ff5696356128a3565b90556002600052601760205261498a7fc52df653038b2ad477d8d97f1ddd63cfd138847b628ad8a7b89c109c3f8782ca6140c7565b80614bae575b15614b7b57600960005260166020526149c87f650982f08e47212452de30f662e413cf6044e641dedc09b52c1617e804a2611e6128a3565b9055600360005260176020526149fd7fd8b2bced50346359af71f91110b86cdf684b6ab1c6ca64a7583c044d5c24de5c6140c7565b80614b6c575b15614b3c57600a60005260166020527fd5b9797c47f98351da0d9dc8805f06430ade47345ddb9b2bd6f346a04809cc415b614a3f8482546122c8565b905560076000526017602052614a747ffae2f3cf7832fe1c3d9af0d1138f3108106a06e0c9fcfc402be937e37ff7af666140c7565b80614b2d575b15614afa57600e6000526016602052614ab27fd6e1ce7303b8b03e4f8e61fd057015f1c58732e116f2a323c5d9ed9df544bd9a6128a3565b9055614ac8836000526019602052604060002090565b55601f60005260166020527f50eede7cc9d9157638c32051246e3b16ef1b4d09c2f4b59ff806a325cf84bf2c55600855565b60156000526016602052614ab27fe3be994f4df1ce307d3423eeebbbb0cd25598c1b97b848f71392674439a00e376128a3565b5060045460101c60ff16614a7a565b601160005260166020527f8419164215688829c599d418012c77589d6ed4c687dc9e57a4a19678f70f8a31614a34565b5060045460101c60ff16614a03565b601060005260166020526149c87f2a87e474c76dec5537d547c3958b767dcf7498ad7afcca0a2eb8ad1481fbf5b66128a3565b5060045460101c60ff16614990565b60405190614bca8261190d565b600a82526973687574646f776e282960b01b6020830152565b60405190614bf08261190d565b601882527f6765744261746368526f79616c7479436c6175736573282900000000000000006020830152565b6102a090818184031261045a5782601f8201121561045a576040805193614c4285611945565b849383019281841161045a57935b838510614c5f57505050505090565b60608583031261045a578251606091614c77826118ec565b8651825260209182880151838201528588015186820152815201940193614c50565b818102929160008212600160ff1b8214166122b55781840514901517156122b557565b60405190614cc98261190d565b601882527f676574557365724964546f496e73742875696e743235362900000000000000006020830152565b60405190614d028261190d565b6011825270696e636f6d654f6628616464726573732960781b6020830152565b906000906000808092614d3e610693835460018060a01b031690565b9260409485519463ab6e844f60e01b86526020908187600481845afa96871561045557869761506c575b50875163cfbffe5360e01b8152968288600481855afa97881561045557879861504d575b50614da6614d986120e1565b614da0614bbd565b8a615acf565b97614daf61521b565b99909c614dd0614dc28b94614523614be3565b878082518301019101614c1c565b600854918315925b818110614fd75750505050600014614fcf57506106f6614e1291614e0a6007548c519384918883019190602083019252565b613704614cbc565b31975b80516314ac1b5960e21b80825291908481600481875afa908115610455578991614fb2575b5060015482516001600160a01b039091168682018181528290038083529094601f19939092614e73929091906136fc9060200183611961565b835182815287816004818a5afa801561045557614ec592614eb9928e92614f8f575b5086516001600160a01b039091168a82019081529092613752918491602090910190565b03868101845283611961565b614ed4575b5050505050508392565b859697506004839495969293518097819382525afa90811561045557614f5e95614f34958a93614f6a575b5092516001600160a01b039094169284019283529091614f2c919084906020015b03908101845283611961565b611e63614cf5565b60076000526016602052614f586125e6600080516020615cc8833981519152614624565b90612326565b90388080808080614eca565b614f2c9350614f88614f2091833d851161044e5761043f8183611961565b9350614eff565b613752919250614fab908b3d8d1161044e5761043f8183611961565b9190614e95565b614fc99150853d871161044e5761043f8183611961565b38614e3a565b905097614e15565b839f614fec90614655858a8598969798615113565b9f615004575b614ffb90612333565b92919092614dd8565b94615045614ffb9161503f61502e6150268a6000526019602052604060002090565b54809e612c42565b9c6150398a88612326565b90614c99565b90612c42565b959050614ff2565b615065919850833d851161044e5761043f8183611961565b9638614d8c565b615084919750823d841161044e5761043f8183611961565b9538614d68565b604051906150988261190d565b601f82527f676574526f79616c697479416d6f756e7442617463682875696e7432353629006020830152565b9060e08282031261045a5780601f8301121561045a57604051916150e783611945565b829060e0810192831161045a57905b8282106151035750505090565b81518152602091820191016150f6565b909291600093600b5460078111600014615213575060079192905b615167615158604092835190615150826106f688602083019190602083019252565b612cea61508b565b602080825183010191016150c4565b916001945b8486111561517c57505050505050565b90919293949661519461518e89612317565b83612af9565b516151a76151a18a612317565b87612af9565b51159081156151f0575b506151e6576151d66151dc916151cf6151c98b612317565b88612af9565b51906122c8565b97612333565b949392919061516c565b966151dc90612333565b61520b9150856152026138ea8c6115b4565b910151906122c8565b8311386151b1565b91929061512e565b615223615333565b60166020527f4c4dc693d7db52f85fe052106f4b4b920e78e8ef37dee82878a60ab8585faf4954600860009081527f5d722ae86c7aff0f95f426cf86f75793e8cd1a526603df14563c190f75fd2ef3549294939282019182106122b55780600f604092526016602052205481018091116122b55781039081116122b55760166020527fec061709de2491458f4c981032059d7d19b0e55f45018bac6b3e660bdc959a5954600b6000527fcfa8b17cfe829ccfb82a1b8bc946a78d914318562253e01c04a5bbac5c20f86b549193918101919082106122b5576012600052601660205261199891614f58907f8531638db615388f9d93ea5c79a334675d6050f9d301f5b6af156a74ff56963561251f565b600090816001815b600f8211156153b4575050606560005260166020527fa03de401ff86fc22e691d3563b736c9fadf4f2babab79e9b7995ce6f656920a75481018091116122b55760686000526016602052917f5a2cd1a21e67d7dda0aeee7dda01b941de71cc935cebfacc2b9b226beb2ced335481018091116122b55790565b9093848252602092601c84526040908184205481018091116122b557601d90948785525282205481018091116122b5576153ee9094612333565b9061533b565b156153fb57565b60405162461bcd60e51b815260206004820152601960248201527f6f776e2e7361666567756172642e63616c6c2e6661696c6564000000000000006044820152606490fd5b9081602091031261045a575161199881610ab7565b600054604051634bf9c0ad60e11b8152906020908190839060049082906001600160a01b03165afa91821561045557611998926154cb916000916154e6575b506040516154a18161190d565b6008815267697353616665282960c01b84820152604051916154c283611929565b600083526159ea565b9190806154dc575b610723906153f4565b50815181146154d3565b6154fd9150833d851161044e5761043f8183611961565b38615494565b604051906155108261190d565b601582527469735365637572654261736528616464726573732960581b6020830152565b1561553b57565b60405162461bcd60e51b815260206004820152601a60248201527f6f776e2e736563757265626173652e63616c6c2e6661696c65640000000000006044820152606490fd5b6000546001600160a01b0316604051918291634bf9c0ad60e11b835282600460209485935afa92831561045557611998936155ee926106f692600092615609575b506040516001600160a01b0390911685820190815290926155e6918491602090910190565b61070c615503565b9190806155ff575b61072390615534565b50815181146155f6565b6155e691925061562590863d881161044e5761043f8183611961565b91906155c1565b604051906156398261190d565b601182527069735369676e657228616464726573732960781b6020830152565b1561566057565b60405162461bcd60e51b81526020600482015260166024820152751bdddb8b9cda59db995c8b98d85b1b0b99985a5b195960521b6044820152606490fd5b60005460405163111ea8c160e21b815290602090829060049082906001600160a01b03165afa8015610455576119989160009161570b575b506040516156e38161190d565b6005815264616765282960d81b60208201526040519161570283611929565b60008352615b0b565b615723915060203d811161044e5761043f8183611961565b386156d6565b604051906157368261190d565b6011825270697364656c656761746f724e6f6465282960781b6020830152565b6001600160a01b039081169081156157aa57600154826bffffffffffffffffffffffff60a01b821617600155167f8292fce18fa69edf4db7b94ea2e58241df0ae57f97e0a6c9b29067028bf92d76600080a3565b60405162461bcd60e51b815260206004820152601160248201527037bbb71734b73b30b634b21737bbb732b960791b6044820152606490fd5b3d1561580e573d906157f4826120b2565b916158026040519384611961565b82523d6000602084013e565b606090565b9080156158e6576001600160a01b0382169182156158b057600080808481945af161583c6157e3565b5015615875576040519081527fcec1f18c3ab8ddaaa107a1591e3c369667eec613626611a8deaedef43069fcdd9080602081015b0390a2565b60405162461bcd60e51b81526020600482015260136024820152721bdddb8b9d1c985b9cd9995c8b99985a5b1959606a1b6044820152606490fd5b60405162461bcd60e51b815260206004820152600e60248201526d6f776e2e696e76616c69642e746f60901b6044820152606490fd5b5050565b600080546040516311be646b60e21b815290602090829060049082906001600160a01b03165afa9081156104555782848193829383916159a1575b505af16159306157e3565b501561596a5760405190815233907fcdcc745fe377b103b45fa0cec23ae3ef93d6fc6a84a01f0d18c40b354dd1d5d8908060208101615870565b60405162461bcd60e51b815260206004820152600f60248201526e1bdddb8b989d5c9b8b99985a5b1959608a1b6044820152606490fd5b6159b9915060203d811161044e5761043f8183611961565b38615925565b906159ca92916159ea565b90600090156159d7575090565b60405191506159e582611929565b815290565b9190823b15615a6b578051906020918263ffffffff60e01b92012016916040519180830193845281519160005b838110615a57575050509181615a4460248260009795968897018783820152036004810184520182611961565b5191620dbba0fa615a536157e3565b9091565b818101830151858201602401528201615a17565b505050600090604051615a7d81611929565b6000815290565b9291615a92916000946159ea565b9080615ac4575b615aa05750565b80519192506001600160a01b0391615ac091602091810182019101611983565b1690565b506020815114615a99565b9291615add916000946159ea565b9080615b00575b615aeb5750565b61199891925060208082518301019101615440565b506020815114615ae4565b9291615b19916000946159ea565b9080615b3e575b615b275750565b90915060208180518101031261045a576020015190565b506020815114615b20565b906020825192015163ffffffff60e01b908181169360048110615b6b57505050565b60040360031b82901b16169150565b6001600160a01b03811615615bfb57600080918351908260208601915af190615ba16157e3565b9115615bab575090565b805160009190600411615bf557615bc29150615b49565b815115615bd25750805190602001fd5b604051630870274d60e21b81526001600160e01b03199091166004820152602490fd5b50615bc2565b60405162461bcd60e51b81526020600482015260126024820152711bdddb8b9a5b9d985b1a590b9d185c99d95d60721b6044820152606490fd5b803b6000615c42826120b2565b92615c506040519485611961565b82845260208401903c602d815110615c6c57602a015160601c90565b60405162461bcd60e51b81526020600482015260136024820152724e6f742061206d696e696d616c2070726f787960681b6044820152606490fdfe1517c86fcf2bfb8e3468afcc539b0004955da8027797c497ea51d1f1094ab8985c9294642c77fdf0ce4b0f45159c977165b1ec2ef3bb94ee3e2a496634c781e8a26469706673582212206eaa58d69295024d757043b73d5654e4a9d2302e2926a52707a44daa6cbfb45264736f6c63430008140033","linkReferences":{}},"methodIdentifiers":{"Burn(uint256)":"b90306ad","BurnCoin()":"7bfbfecb","LSB(uint256)":"a98bf4f9","_delegatorCount()":"a1f7f539","_getImplementation(address)":"c54e44b0","_importOld(uint256)":"141ca660","_isDelegatorNode(address)":"e01ad5fd","_isSafe()":"e0a9bc2b","_isSecureBase(address)":"af484526","_isSigner(address)":"1f185d16","_txnType7(uint256,uint256)":"02a085f2","_txnType_1_0(address,uint256,uint256,uint256,uint256)":"932ca2d6","addLevelnGetRank(uint256,uint256,uint256,uint256,uint256,uint256,uint256)":"1fc9788a","bonus()":"75b4d78c","burned()":"73f42561","cage()":"69245009","capStatus()":"a1531545","compute(uint256)":"5ed86d5c","dage()":"725b6fff","direct()":"222b1407","drawn()":"fd915ef2","flushed()":"c32487aa","getBalance()":"12065fe0","getHexbase()":"3b9b7955","id()":"af640d0f","inc(uint256)":"812600df","isCap()":"4702c08f","isLock()":"09d8da2e","levelRestrictionAge()":"2bb96697","lvlbs(uint256)":"91b0d21c","lvlqty(uint256)":"13ab4dc5","lvlrwrd(uint256)":"40124ece","lvlyei(uint256)":"18a54198","mintCount()":"9659867e","mints(uint256)":"6350b2c2","moveLvlIncome(uint256,uint256,uint256,uint256,bool)":"7b058ac1","owner()":"8da5cb5b","postInit()":"4a65786c","preinit(address,address,uint256)":"52902c59","rank()":"934209ce","rankage(uint256)":"d3a1a499","selfProposed()":"6195685b","setBonus(uint256)":"0b98f975","setLock(bool)":"619d5194","setSuspend(bool,bool,bool,bool,bool,bool,bool)":"dcdd04a6","setTourAndGift(uint256,uint256)":"723f0d85","suspendinc(uint256)":"901bcdd4","systemAge()":"fdc10bc9","unpaid()":"c4cb291e","updateOwner(address)":"880cdc31","withdrawlDage()":"a9bf285b"},"id":25}