{"abi":[{"type":"constructor","inputs":[{"name":"_hex","type":"address","internalType":"address"}],"stateMutability":"nonpayable"},{"type":"fallback","stateMutability":"payable"},{"type":"receive","stateMutability":"payable"},{"type":"function","name":"Burn","inputs":[{"name":"amount","type":"uint256","internalType":"uint256"}],"outputs":[],"stateMutability":"nonpayable"},{"type":"function","name":"BurnCoin","inputs":[],"outputs":[],"stateMutability":"payable"},{"type":"function","name":"LSB","inputs":[{"name":"","type":"uint256","internalType":"uint256"}],"outputs":[{"name":"","type":"int256","internalType":"int256"}],"stateMutability":"view"},{"type":"function","name":"_compute","inputs":[{"name":"endage","type":"uint256","internalType":"uint256"}],"outputs":[{"name":"r","type":"tuple","internalType":"struct InstanceStor.ComputeResult","components":[{"name":"p1","type":"uint256","internalType":"uint256"},{"name":"p2","type":"uint256","internalType":"uint256"},{"name":"p3","type":"uint256","internalType":"uint256"},{"name":"p4","type":"uint256","internalType":"uint256"},{"name":"p5","type":"uint256","internalType":"uint256"},{"name":"f1","type":"uint256","internalType":"uint256"},{"name":"f2","type":"uint256","internalType":"uint256"},{"name":"f3","type":"uint256","internalType":"uint256"},{"name":"f4","type":"uint256","internalType":"uint256"},{"name":"f5","type":"uint256","internalType":"uint256"},{"name":"lsb","type":"int256","internalType":"int256"}]}],"stateMutability":"view"},{"type":"function","name":"_delegatorCount","inputs":[],"outputs":[{"name":"","type":"uint256","internalType":"uint256"}],"stateMutability":"view"},{"type":"function","name":"_getImplementation","inputs":[{"name":"clone","type":"address","internalType":"address"}],"outputs":[{"name":"impl","type":"address","internalType":"address"}],"stateMutability":"view"},{"type":"function","name":"_importOld","inputs":[{"name":"limit","type":"uint256","internalType":"uint256"}],"outputs":[],"stateMutability":"payable"},{"type":"function","name":"_isDelegatorNode","inputs":[{"name":"sender","type":"address","internalType":"address"}],"outputs":[{"name":"","type":"bool","internalType":"bool"}],"stateMutability":"view"},{"type":"function","name":"_isSafe","inputs":[],"outputs":[{"name":"","type":"bool","internalType":"bool"}],"stateMutability":"view"},{"type":"function","name":"_isSecureBase","inputs":[{"name":"sender","type":"address","internalType":"address"}],"outputs":[{"name":"","type":"bool","internalType":"bool"}],"stateMutability":"view"},{"type":"function","name":"_isSigner","inputs":[{"name":"sender","type":"address","internalType":"address"}],"outputs":[{"name":"","type":"bool","internalType":"bool"}],"stateMutability":"view"},{"type":"function","name":"_txnType7","inputs":[{"name":"_maxint","type":"uint256","internalType":"uint256"},{"name":"_ag","type":"uint256","internalType":"uint256"}],"outputs":[{"name":"CALC_INC","type":"uint256[8]","internalType":"uint256[8]"}],"stateMutability":"payable"},{"type":"function","name":"_txnType_1_0","inputs":[{"name":"paramAdd","type":"address","internalType":"address"},{"name":"_id_maxint","type":"uint256","internalType":"uint256"},{"name":"_qty","type":"uint256","internalType":"uint256"},{"name":"_msgValue","type":"uint256","internalType":"uint256"},{"name":"_type","type":"uint256","internalType":"uint256"}],"outputs":[{"name":"_tvl","type":"uint256","internalType":"uint256"},{"name":"_amt","type":"uint256","internalType":"uint256"}],"stateMutability":"payable"},{"type":"function","name":"addLevelnGetRank","inputs":[{"name":"_amount","type":"uint256","internalType":"uint256"},{"name":"_qty","type":"uint256","internalType":"uint256"},{"name":"_yeildlevel","type":"uint256","internalType":"uint256"},{"name":"_level","type":"uint256","internalType":"uint256"},{"name":"_epochAge","type":"uint256","internalType":"uint256"},{"name":"_free","type":"uint256","internalType":"uint256"},{"name":"_irank","type":"uint256","internalType":"uint256"}],"outputs":[{"name":"lastrnk","type":"uint256","internalType":"uint256"},{"name":"currentrnk","type":"uint256","internalType":"uint256"}],"stateMutability":"nonpayable"},{"type":"function","name":"bonus","inputs":[],"outputs":[{"name":"","type":"uint256","internalType":"uint256"}],"stateMutability":"view"},{"type":"function","name":"cage","inputs":[],"outputs":[{"name":"","type":"uint256","internalType":"uint256"}],"stateMutability":"view"},{"type":"function","name":"capStatus","inputs":[],"outputs":[{"name":"threshold","type":"uint256","internalType":"uint256"},{"name":"_cap","type":"bool","internalType":"bool"},{"name":"currentValue","type":"uint256","internalType":"uint256"}],"stateMutability":"view"},{"type":"function","name":"dage","inputs":[],"outputs":[{"name":"","type":"uint256","internalType":"uint256"}],"stateMutability":"view"},{"type":"function","name":"direct","inputs":[],"outputs":[{"name":"","type":"uint256","internalType":"uint256"}],"stateMutability":"view"},{"type":"function","name":"getAllIncome","inputs":[{"name":"typeId","type":"uint256","internalType":"uint256"},{"name":"maxinterwal","type":"uint256","internalType":"uint256"}],"outputs":[{"name":"values","type":"uint256[5]","internalType":"uint256[5]"}],"stateMutability":"view"},{"type":"function","name":"getBalance","inputs":[],"outputs":[{"name":"","type":"uint256","internalType":"uint256"}],"stateMutability":"view"},{"type":"function","name":"getHexbase","inputs":[],"outputs":[{"name":"","type":"address","internalType":"address"}],"stateMutability":"view"},{"type":"function","name":"getNodeLB","inputs":[{"name":"_level","type":"uint256","internalType":"uint256"}],"outputs":[{"name":"","type":"uint256","internalType":"uint256"},{"name":"","type":"uint256","internalType":"uint256"},{"name":"","type":"uint256","internalType":"uint256"},{"name":"","type":"uint256","internalType":"uint256"}],"stateMutability":"view"},{"type":"function","name":"getToggleAgeCount","inputs":[{"name":"key","type":"uint256","internalType":"uint256"}],"outputs":[{"name":"","type":"uint256","internalType":"uint256"}],"stateMutability":"view"},{"type":"function","name":"getToggleAgeValue","inputs":[{"name":"key","type":"uint256","internalType":"uint256"},{"name":"index","type":"uint256","internalType":"uint256"}],"outputs":[{"name":"","type":"uint256","internalType":"uint256"}],"stateMutability":"view"},{"type":"function","name":"id","inputs":[],"outputs":[{"name":"","type":"uint256","internalType":"uint256"}],"stateMutability":"view"},{"type":"function","name":"isLock","inputs":[],"outputs":[{"name":"","type":"bool","internalType":"bool"}],"stateMutability":"view"},{"type":"function","name":"levelRestrictionAge","inputs":[],"outputs":[{"name":"","type":"uint256","internalType":"uint256"}],"stateMutability":"view"},{"type":"function","name":"mintCount","inputs":[],"outputs":[{"name":"","type":"uint256","internalType":"uint256"}],"stateMutability":"view"},{"type":"function","name":"mints","inputs":[{"name":"","type":"uint256","internalType":"uint256"}],"outputs":[{"name":"amt","type":"uint256","internalType":"uint256"},{"name":"qty","type":"uint256","internalType":"uint256"},{"name":"mage","type":"uint256","internalType":"uint256"},{"name":"nft","type":"address","internalType":"address"}],"stateMutability":"view"},{"type":"function","name":"moveLvlIncome","inputs":[{"name":"_amount","type":"uint256","internalType":"uint256"},{"name":"_qty","type":"uint256","internalType":"uint256"},{"name":"_level","type":"uint256","internalType":"uint256"},{"name":"_epochAge","type":"uint256","internalType":"uint256"},{"name":"_op","type":"bool","internalType":"bool"}],"outputs":[{"name":"lastrnk","type":"uint256","internalType":"uint256"},{"name":"currentrnk","type":"uint256","internalType":"uint256"}],"stateMutability":"nonpayable"},{"type":"function","name":"owner","inputs":[],"outputs":[{"name":"","type":"address","internalType":"address"}],"stateMutability":"view"},{"type":"function","name":"postInit","inputs":[],"outputs":[{"name":"","type":"bool","internalType":"bool"}],"stateMutability":"view"},{"type":"function","name":"preinit","inputs":[{"name":"_hex","type":"address","internalType":"address"},{"name":"_own","type":"address","internalType":"address"},{"name":"_id","type":"uint256","internalType":"uint256"}],"outputs":[],"stateMutability":"nonpayable"},{"type":"function","name":"rank","inputs":[],"outputs":[{"name":"","type":"uint256","internalType":"uint256"}],"stateMutability":"view"},{"type":"function","name":"rankage","inputs":[{"name":"","type":"uint256","internalType":"uint256"}],"outputs":[{"name":"","type":"uint256","internalType":"uint256"}],"stateMutability":"view"},{"type":"function","name":"setBonus","inputs":[{"name":"b","type":"uint256","internalType":"uint256"}],"outputs":[],"stateMutability":"nonpayable"},{"type":"function","name":"setLock","inputs":[{"name":"flag","type":"bool","internalType":"bool"}],"outputs":[],"stateMutability":"nonpayable"},{"type":"function","name":"setSuspend","inputs":[{"name":"key","type":"uint256","internalType":"uint256"},{"name":"value","type":"bool","internalType":"bool"}],"outputs":[],"stateMutability":"nonpayable"},{"type":"function","name":"systemAge","inputs":[],"outputs":[{"name":"","type":"uint256","internalType":"uint256"}],"stateMutability":"view"},{"type":"function","name":"updateOwner","inputs":[{"name":"_newowner","type":"address","internalType":"address"}],"outputs":[],"stateMutability":"nonpayable"},{"type":"function","name":"userCycleMintCount","inputs":[{"name":"","type":"uint256","internalType":"uint256"}],"outputs":[{"name":"","type":"uint256","internalType":"uint256"}],"stateMutability":"view"},{"type":"function","name":"withdrawlDage","inputs":[],"outputs":[{"name":"","type":"uint256","internalType":"uint256"}],"stateMutability":"view"},{"type":"event","name":"EthBurned","inputs":[{"name":"sender","type":"address","indexed":true,"internalType":"address"},{"name":"amount","type":"uint256","indexed":false,"internalType":"uint256"}],"anonymous":false},{"type":"event","name":"EthTransferred","inputs":[{"name":"to","type":"address","indexed":true,"internalType":"address"},{"name":"amount","type":"uint256","indexed":false,"internalType":"uint256"}],"anonymous":false},{"type":"event","name":"HexBaseUpdated","inputs":[{"name":"previousHexBase","type":"address","indexed":true,"internalType":"address"},{"name":"newHexBase","type":"address","indexed":true,"internalType":"address"}],"anonymous":false},{"type":"event","name":"LogTxns","inputs":[{"name":"from","type":"address","indexed":false,"internalType":"address"},{"name":"orc1155","type":"address","indexed":false,"internalType":"address"},{"name":"_amt","type":"uint256","indexed":false,"internalType":"uint256"},{"name":"_value","type":"uint256","indexed":false,"internalType":"uint256"},{"name":"_time","type":"uint256","indexed":false,"internalType":"uint256"},{"name":"_type","type":"uint256","indexed":false,"internalType":"uint256"}],"anonymous":false},{"type":"event","name":"OwnerUpdated","inputs":[{"name":"previousOwner","type":"address","indexed":true,"internalType":"address"},{"name":"newOwner","type":"address","indexed":true,"internalType":"address"}],"anonymous":false},{"type":"error","name":"GlobalPoolLimitReached","inputs":[]},{"type":"error","name":"ImportLimitExceeded","inputs":[]},{"type":"error","name":"InvalidClone","inputs":[]},{"type":"error","name":"InvalidMintCycleLimit","inputs":[]},{"type":"error","name":"InvalidnewOwner","inputs":[]},{"type":"error","name":"MintLimitExceeded","inputs":[]},{"type":"error","name":"PreInitException","inputs":[]},{"type":"error","name":"ReentrancyGuardReentrantCall","inputs":[]},{"type":"error","name":"StorLocked","inputs":[]},{"type":"error","name":"TargetCallFailed","inputs":[{"name":"selector","type":"bytes4","internalType":"bytes4"}]},{"type":"error","name":"UnsecureORC1155","inputs":[]}],"bytecode":{"object":"0x608034620000d157601f62005c4338819003918201601f19168301916001600160401b03831184841017620000d657808492602094604052833981010312620000d157516001600160a01b03811690819003620000d15780156200008c5760018060a01b03193381600154161760015560005416176000556001600355604051615b569081620000ed8239f35b60405162461bcd60e51b815260206004820152601360248201527f6f776e2e696e76616c69642e68657862617365000000000000000000000000006044820152606490fd5b600080fd5b634e487b7160e01b600052604160045260246000fdfe60806040526004361015610018575b361561001657005b005b60003560e01c806302a085f2146102c8578063043719b4146102c357806309d8da2e146102be5780630b98f975146102b957806312065fe0146102b4578063141ca660146102af578063143ec3b7146102aa5780631f185d16146102a55780631fc9788a146102a0578063222b14071461029b5780632bb96697146102965780632c2838e81461029157806339b4d61b1461028c5780633b9b7955146102875780634a65786c1461028257806352902c591461027d578063619d5194146102785780636350b2c214610273578063692450091461026e578063725b6fff1461026957806375b4d78c146102645780637b058ac11461025f5780637bfbfecb1461025a578063880cdc31146102555780638da5cb5b14610250578063932ca2d61461024b578063934209ce146102465780639659867e14610241578063a15315451461023c578063a1f7f53914610237578063a20199ac14610232578063a98bf4f91461022d578063a9bf285b14610228578063af48452614610223578063af640d0f1461021e578063b90306ad14610219578063c54e44b014610214578063c8ef7b1a1461020f578063d3a1a4991461020a578063da02133514610205578063e01ad5fd14610200578063e0a9bc2b146101fb5763fdc10bc90361000e576114c0565b6114a5565b611406565b6113ae565b611382565b61129b565b611262565b6111af565b611191565b611160565b611142565b611116565b6110ca565b611013565b610fe3565b610fc5565b610fa7565b610ee5565b610ebc565b610e05565b610c7b565b610bb8565b610b9a565b610b7c565b610b5e565b610b07565b610a43565b610942565b61091c565b6108f3565b6108c7565b610837565b610819565b6107fb565b610730565b610620565b6105e3565b610532565b610516565b61046f565b61044c565b610410565b6102fc565b610100810192916000915b600883106102e557505050565b6001908251815260208091019201920191906102d8565b604036600319011261040b5760405161031481611577565b61010036823760ff600454166103f95761033461032f615232565b6114e3565b61033d3361535d565b8015610371575b61036d916103546103619261162e565b6024359060043590611e1e565b604051918291826102cd565b0390f35b50600054604051630536340960e21b8152916001600160a01b03916020908490600490829086165afa9283156103f45761036d9361036193610354926000926103c4575b50339116149250509150610344565b6103e691925060203d81116103ed575b6103de81836115e8565b81019061160a565b90386103b5565b503d6103d4565b611622565b60405163658141c160e01b8152600490fd5b600080fd5b3461040b57604036600319011261040b57600435600052601e602052602061043e60243560406000206116d8565b90546040519160031b1c8152f35b3461040b57600036600319011261040b57602060ff600454166040519015158152f35b3461040b57602036600319011261040b5761048b61032f615232565b6104943361535d565b80156104af575b6104a49061162e565b610016600435600555565b50600054604051630536340960e21b8152906001600160a01b03906020908390600490829085165afa9081156103f4576104a4926000926104f6575b50163314905061049b565b61050f91925060203d81116103ed576103de81836115e8565b90386104eb565b3461040b57600036600319011261040b57602047604051908152f35b602036600319011261040b5761054961032f615232565b6105523361535d565b801561057c575b6105629061162e565b61056a611dd6565b610575600435612a8c565b6001600355005b50600054604051630536340960e21b8152906001600160a01b03906020908390600490829085165afa9081156103f457610562926000926105c3575b501633149050610559565b6105dc91925060203d81116103ed576103de81836115e8565b90386105b8565b3461040b57602036600319011261040b57600435600052601e6020526020604060002054604051908152f35b6001600160a01b0381160361040b57565b3461040b5760208060031936011261040b576004908135906106418261060f565b6000548190610660906001600160a01b03165b6001600160a01b031690565b604051634bf9c0ad60e11b815294859182905afa9182156103f4576106b76106f1936106d39261036d9660009261070d575b506040516001600160a01b0390911685820190815290926106c5918491602090910190565b03601f1981018452836115e8565b6106cd615409565b906157c3565b919080610703575b6106e490615436565b808251830101910161521d565b60405190151581529081906020820190565b50815181146106db565b6106c591925061072990863d88116103ed576103de81836115e8565b9190610692565b3461040b5760e036600319011261040b5761074c61032f615232565b6107553361535d565b8015610794575b6107659061162e565b61078260c43560a4356084356064356044356024356004356136f0565b60408051928352602083019190915290f35b50600054604051630536340960e21b8152906001600160a01b03906020908390600490829085165afa9081156103f457610765926000926107db575b50163314905061075c565b6107f491925060203d81116103ed576103de81836115e8565b90386107d0565b3461040b57600036600319011261040b576020600c54604051908152f35b3461040b57600036600319011261040b576020601554604051908152f35b3461040b57602036600319011261040b5761016061085660043561425c565b60405190805182526020810151602083015260408101516040830152606081015160608301526080810151608083015260a081015160a083015260c081015160c083015260e081015160e0830152610100808201519083015261012080820151908301526101408091015190820152f35b3461040b57602036600319011261040b5760043560005260166020526020604060002054604051908152f35b3461040b57600036600319011261040b576000546040516001600160a01b039091168152602090f35b3461040b57600036600319011261040b57602060ff60045460081c166040519015158152f35b3461040b57606036600319011261040b5760043561095f8161060f565b60243561096b8161060f565b6001600160a01b039182168015808015610a2f575b610a1d576109e257600080546001600160a01b038381166001600160a01b031983161783556109d79590911616907fe939feee179e631422bcc8f6e6d7d908cb3f8af38f5372f17c77e15aea5c80ee9080a3615533565b610016604435600755565b60405162461bcd60e51b81526020600482015260136024820152726f776e2e696e76616c69642e6865786261736560681b6044820152606490fd5b60405163a596f2f960e01b8152600490fd5b5083831615610980565b8015150361040b57565b3461040b57602036600319011261040b57600435610a6081610a39565b610a6b61032f615232565b610a743361535d565b8015610a9a575b90610a886100169261162e565b60ff8019600454169115151617600455565b50600054604051630536340960e21b81526001600160a01b0392916020908290600490829087165afa80156103f45761001693610a8892600092610ae7575b503391161491925050610a7b565b610b0091925060203d81116103ed576103de81836115e8565b9038610ad9565b3461040b57602036600319011261040b57600435600052601860205260806040600020805490600181015490600281015490600360018060a01b039101541691604051938452602084015260408301526060820152f35b3461040b57600036600319011261040b576020600a54604051908152f35b3461040b57600036600319011261040b576020600854604051908152f35b3461040b57600036600319011261040b576020600554604051908152f35b3461040b5760a036600319011261040b57608435610bd581610a39565b610be061032f615232565b610be93361535d565b8015610c0e575b90610bfd6107829261162e565b6064356044356024356004356135c9565b50600054604051630536340960e21b81526001600160a01b0392916020908290600490829087165afa80156103f45761078293610bfd92600092610c5b575b503391161491925050610bf0565b610c7491925060203d81116103ed576103de81836115e8565b9038610c4d565b600080600319360112610e025760ff600454166103f957610c9a611dd6565b610caa610ca561547b565b600255565b8054610cbe906001600160a01b0316610654565b60405190816311be646b60e21b9182825281600460209586935afa80156103f457610cf2918591610de5575b5034906155f0565b6000805260176020527fd840e16649f6b9a295d95876f4633d3a6b10b55e8162971cf78afd886d5ec89b610d27348254611d4b565b9055610d3f610d34613c6e565b509050600254611731565b82548290610d55906001600160a01b0316610654565b9160046040518094819382525afa9081156103f457600080516020615a81833981519152928492610dc8575b5050600254604080513381526001600160a01b0393909316602084015260009083015234606083015260808201526103e860a082015260c090a1610dc56001600355565b80f35b610dde9250803d106103ed576103de81836115e8565b3880610d81565b610dfc9150843d86116103ed576103de81836115e8565b38610cea565b80fd5b3461040b57602036600319011261040b57600435610e228161060f565b610e2d61032f615232565b610e363361535d565b8015610e4f575b90610e4a6100169261162e565b611764565b50600054604051630536340960e21b81526001600160a01b0392916020908290600490829087165afa80156103f45761001693610e4a92600092610e9c575b503391161491925050610e3d565b610eb591925060203d81116103ed576103de81836115e8565b9038610e8e565b3461040b57600036600319011261040b576001546040516001600160a01b039091168152602090f35b60a036600319011261040b57600435610efd8161060f565b610f0861032f615232565b610f113361535d565b8015610f3a575b90610f256107829261162e565b6084359060643590604435906024359061179f565b50600054604051630536340960e21b81526001600160a01b0392916020908290600490829087165afa80156103f45761078293610f2592600092610f87575b503391161491925050610f18565b610fa091925060203d81116103ed576103de81836115e8565b9038610f79565b3461040b57600036600319011261040b576020600b54604051908152f35b3461040b57600036600319011261040b576020600654604051908152f35b3461040b57600036600319011261040b576060610ffe613c6e565b90604051928352151560208301526040820152f35b3461040b57600036600319011261040b5760005460405163d1f956b160e01b815290602090829060049082906001600160a01b03165afa9081156103f45761036d9161109c916000916110ac575b5060405161106e81611594565b601381527267657464656c656761746f72436f756e74282960681b6020820152611096611c12565b916158e4565b6040519081529081906020820190565b6110c4915060203d81116103ed576103de81836115e8565b38611061565b3461040b57604036600319011261040b576110e9602435600435614db0565b60405190600090825b600583106110ff5760a084f35b6001908251815260208091019201920191906110f2565b3461040b57602036600319011261040b5760043560005260196020526020604060002054604051908152f35b3461040b57600036600319011261040b576020600954604051908152f35b3461040b57602036600319011261040b5760206111876004356111828161060f565b61535d565b6040519015158152f35b3461040b57600036600319011261040b576020600754604051908152f35b3461040b57602036600319011261040b57600054604051630536340960e21b8152906001600160a01b03906020908390600490829085165afa9182156103f457600092611242575b503391160361120b576100166004356156c3565b60405162461bcd60e51b815260206004820152600f60248201526e6f776e2e6e6f6e617574682e44414f60881b6044820152606490fd5b61125b91925060203d81116103ed576103de81836115e8565b90386111f7565b3461040b57602036600319011261040b5760206112896004356112848161060f565b615a0e565b6040516001600160a01b039091168152f35b3461040b57604036600319011261040b576024356112b881610a39565b6112c361032f615232565b6112cc3361535d565b80156112e8575b906112e06100169261162e565b60043561167a565b50600054604051630536340960e21b81526001600160a01b0392916020908290600490829087165afa80156103f457610016936112e092600092611335575b5033911614919250506112d3565b61134e91925060203d81116103ed576103de81836115e8565b9038611327565b634e487b7160e01b600052603260045260246000fd5b600881101561137d57600d0190600090565b611355565b3461040b57602036600319011261040b57600435600881101561040b57602090600d0154604051908152f35b3461040b5760208060031936011261040b57608090600435600052601a8152604090816000205491601b8252806000205490601c8352806000205491601d845281600020549382519586528501528301526060820152f35b3461040b5760208060031936011261040b57600480356114258161060f565b60005460405163d1f956b160e01b81526001600160a01b03949093909182918591829088165afa9081156103f45761036d946106f194600093611486575b50604051931681840152825261147882611594565b611480615506565b906158a8565b61149e919350823d84116103ed576103de81836115e8565b9138611463565b3461040b57600036600319011261040b576020611187615232565b3461040b57600036600319011261040b5760206114db61547b565b604051908152f35b156114ea57565b60405162461bcd60e51b81526020600482015260126024820152716f776e2e696e76616c69642e69735361666560701b6044820152606490fd5b634e487b7160e01b600052604160045260246000fd5b6080810190811067ffffffffffffffff82111761155657604052565b611524565b6060810190811067ffffffffffffffff82111761155657604052565b610100810190811067ffffffffffffffff82111761155657604052565b6040810190811067ffffffffffffffff82111761155657604052565b6020810190811067ffffffffffffffff82111761155657604052565b60e0810190811067ffffffffffffffff82111761155657604052565b90601f8019910116810190811067ffffffffffffffff82111761155657604052565b9081602091031261040b575161161f8161060f565b90565b6040513d6000823e3d90fd5b1561163557565b60405162461bcd60e51b815260206004820152601b60248201527f6f776e2e6e6f6e617574682e44414f6f725365637572656261736500000000006044820152606490fd5b61168261547b565b9081600255600052601e6020526040600020916000146116c957815480159081156116bd575b506116b2575b5050565b6116bb916116f0565b565b600191501615386116a8565b600180835416146116b2575050565b805482101561137d5760005260206000200190600090565b908154916801000000000000000083101561155657826117189160016116bb950181556116d8565b90919082549060031b91821b91600019901b1916179055565b60c8600052601e602052600080516020615ae183398151915291156116c957815480159081156116bd57506116b2575050565b6001600160a01b0316801561178d576bffffffffffffffffffffffff60a01b6001541617600155565b60405163b31092f160e01b8152600490fd5b94939091929460049260ff845416611bb8576117b9611dd6565b6117c96117c58361535d565b1590565b611ba75783906117da610ca561547b565b6000546117ef906001600160a01b0316610654565b92602060409485519788809263cfbffe5360e01b82525afa9586156103f457600096611b87575b50611830611822611c25565b61182a611c3d565b886158e4565b958615611b4457611850611842611c25565b61184a611c68565b836158e4565b9061185e6002988954611cac565b9161189361187b61186d611c25565b611875611ccc565b856158e4565b92611884611c25565b9061188d611cf4565b906158e4565b906118a8846000526016602052604060002090565b541091821592611b27575b5050611b17576118cd906000526016602052604060002090565b8054600101905560018514928315611b0f576118e888613522565b998a945b611a62575b505092611980611973611a38948960009a9895600080516020615a818339815191529a9860065415611a49575b61193161192c600654611d83565b600655565b61196e8a5461193e611bc9565b9086825285602083015289820152606081019e8f526119696006546000526018602052604060002090565b611d92565b612414565b6001600160a01b03168852565b86516119c7906001600160a01b031660036119a76006546000526018602052604060002090565b0180546001600160a01b0319166001600160a01b03909216919091179055565b886119f76119d48261255b565b986119ea6119e0613c6e565b5090508854611731565b516001600160a01b031690565b945491513381526001600160a01b03909516602086015260408501959095526060840194909452608083019390935260a082019290925290819060c0820190565b0390a1611a456001600355565b9190565b611a538a54600855565b611a5d8a54600955565b61191e565b9091929350600554918a611a768484611d4b565b10611ac957506119738a89611a389660009b9996611ab9611ab485611aaf600080516020615a818339815191529f9d9a6119809a611d4b565b611d76565b600555565b95989a50959850995094506118f1565b611b0b90865191829162461bcd60e51b8352820160609060208152601360208201527273746f722e66616b652e6d696e7476616c756560681b60408201520190565b0390fd5b898a946118ec565b845163eb2c7de760e01b81528490fd5b8a1091508115611b3a575b5038806118b3565b9050881138611b32565b845162461bcd60e51b8152602081860181815260159181019190915274696e76616c6964206d696e744379636c654461797360581b604082015281906060010390fd5b611ba091965060203d81116103ed576103de81836115e8565b9438611816565b604051630d419f7360e41b81528490fd5b60405163658141c160e01b81528490fd5b604051906116bb8261153a565b6040519060a0820182811067ffffffffffffffff82111761155657604052565b67ffffffffffffffff811161155657601f01601f191660200190565b60405190611c1f826115b0565b60008252565b604051611c31816115b0565b60008152906000368137565b60405190611c4a82611594565b600f82526e6d696e744379636c6544617973282960881b6020830152565b60405190611c7582611594565b60128252716d61784d696e74735065724379636c65282960701b6020830152565b634e487b7160e01b600052601160045260246000fd5b8115611cb6570490565b634e487b7160e01b600052601260045260246000fd5b60405190611cd982611594565b600c82526b6d696e4d696e74517479282960a01b6020830152565b60405190611d0182611594565b600c82526b6d61784d696e74517479282960a01b6020830152565b90600a8201809211611d2a57565b611c96565b6047019081604711611d2a57565b9060018201809211611d2a57565b91908201809211611d2a57565b600019810191908211611d2a57565b600119810191908211611d2a57565b91908203918211611d2a57565b6000198114611d2a5760010190565b81518155602082015160018201556040820151600282015560609091015160039190910180546001600160a01b0319166001600160a01b0392909216919091179055565b600260035414611de7576002600355565b604051633ee5aeb560e01b8152600490fd5b6040519060a0820182811067ffffffffffffffff8211176115565760405260a0368337565b90611e319291611e2c611dd6565b611f31565b906001600355565b60405190611e4682611594565b601082526f65616368636c61696d4379636c65282960801b6020830152565b60405190611e7282611594565b601082526f6d696e436c61696d506572446179282960801b6020830152565b60405190611e9e82611594565b601082526f6d6178436c61696d506572446179282960801b6020830152565b60405190611eca82611594565b60168252756d6178476c6f62616c436c61696d506572446179282960501b6020830152565b60405190611efc82611594565b601582527467657477697468647261776e2875696e743235362960581b6020830152565b90600881101561137d5760051b0190565b90929192611f3f8294600255565b60008054909190611f58906001600160a01b0316610654565b90604091825191829163cfbffe5360e01b835282600460209485935afa9283156103f45785936123f5575b50611f8c613c6e565b50969050611f9d6002978854611731565b6032611fcc885460085494611fb28187611d4b565b8211156123ee57611fc4915085611d4b565b935b84611d76565b116123e45750611fdb90613f22565b611ffa611ff1611fe9611c25565b611875611e39565b60095490611d4b565b90855491821015612017575b5050505050506116bb610ca561547b565b61202a612022611c25565b611875611e65565b9261203e612036611c25565b61184a611e91565b600b6000526017602052926121166120e66120b6612086600080516020615b0183398151915254600c6000526017602052600080516020615aa18339815191525b5490611d4b565b600d60005260176020527fd4f117696427b3170ffd20740156ca83422b10d4acca400a7ad7659ba482c09461207f565b600e60005260176020527f838b23a3c9c8a7fda5238031c00730254cd0668a98cd090e0cca00dfe448439f61207f565b600f60005260176020527fe335a55928420821f34e4a0838f73915c5180cd07cd2d24e16a8fe491893d41a61207f565b94851015612126575b5050612006565b61213d600492612134611c25565b9061188d611ebd565b87549093908190612156906001600160a01b0316610654565b885163ab6e844f60e01b815294859182905afa9081156103f45761219b9389926123c1575b508751908101928352916121939083906020016106b7565b61188d611eef565b10156123b057808211156123a8576121b291611d76565b9060015b60058111156122385750507f559a04d74be1f9cd7652678b63be8cd60a1a848076ceef705092e0f06807bc60805460c08701527f184d1c2d9ec04f9c47fec5507bb2d716db9966a00f63f49fd8cbb247f2f8fafd805460e08801526017602090815291849055600091909152919091555054600955388080808080808061211f565b61225461224482611d1c565b6000526017602052604060002090565b548361230f579061230a91612273826000526017602052604060002090565b61227e828254611d4b565b90558561228d61224484611d1c565b556122a061229a83611d58565b8a611f20565b525b600080516020615a818339815191526122bd61229a83611d58565b518754906123026122cd85611d2f565b875133815260006020820181905260408201526060810193909352608083019390935260a082019290925290819060c0820190565b0390a1611d83565b6121b6565b8381111561236957906123258461230a93611d76565b938461234661233e846000526017602052604060002090565b918254611d4b565b905561235461224483611d1c565b55849361236361229a83611d58565b526122a2565b6123779061230a9294611d76565b9261238c816000526017602052604060002090565b508461239a61224483611d1c565b558461236361229a83611d58565b5050816121b2565b8251631d63fe2160e01b8152600490fd5b8192506123dd90612193923d85116103ed576103de81836115e8565b919061217b565b9750505050505050565b5093611fc6565b61240d919350823d84116103ed576103de81836115e8565b9138611f83565b9161247a9261246b9260018060a01b0395866001541693600254926040519563c85700fb60e01b6020880152602487015260448601526064850152608484015260a483015260a48252612466826115cc565b615953565b6020808251830101910161160a565b1680156124845790565b604051630b1bdf8b60e41b8152600490fd5b604051906124a382611594565b6006825265706f6f6c282960d01b6020830152565b908160e091031261040b5780519160208201519160408101519160608201519160808101519160c060a083015192015190565b9061271091828102928184041490151715611d2a57565b9081606402916064830403611d2a57565b81810292918115918404141715611d2a57565b91909160008382019384129112908015821691151617611d2a57565b81810392916000138015828513169184121617611d2a57565b60005460049190602090612577906001600160a01b0316610654565b60405163cfbffe5360e01b815293849182905afa80156103f4576126436126196125fe61263e6126096125f36126036125e36125d46125f89961161f9c600091612655575b506125c5611c25565b906125ce612496565b90615798565b602080825183010191016124b8565b9e8f9b969e949892959150612513565b612513565b93612513565b6124eb565b90611cac565b9461262961261982600254611d4b565b6000526019602052604060002090565b612634878254612526565b9055600254611d4b565b611d4b565b61264e828254612542565b9055612513565b61266d915060203d81116103ed576103de81836115e8565b386125bc565b6040519061268082611594565b601382527255736572546f496e737428616464726573732960681b6020830152565b604051906126af82611594565b600b82526a6d696e74436f756e74282960a81b6020830152565b604051906126d682611594565b600e82526d6d696e74732875696e743235362960901b6020830152565b6040519061270082611594565b600b82526a6d696e746564416765282960a81b6020830152565b6040519061272782611594565b600b82526a6d696e746564717479282960a81b6020830152565b6040519061274e82611594565b600c82526b6964732875696e743235362960a01b6020830152565b6040519061277682611594565b60098252686d696e74416d74282960b81b6020830152565b6040519061279b8261153a565b60006060838281528260208201528260408201520152565b604051906127c082611594565b600a825269647261776e616765282960b01b6020830152565b604051906127e682611594565b600c82526b4c53422875696e743235362960a01b6020830152565b6040519061280e82611594565b6007825266647261776e282960c81b6020830152565b91908260c091031261040b5781519160208101519160408201519160608101519160a0608083015192015190565b6040519061285f82611594565b60138252726765745265776172647328616464726573732960681b6020830152565b919082604091031261040b576020825192015190565b604051906128a482611594565b6007825266626f6e7573282960c81b6020830152565b604051906128c782611594565b600682526563616765282960d01b6020830152565b604051906128e982611594565b601982527f67657445666665637469766552616e6b286164647265737329000000000000006020830152565b6040519061292282611594565b601c82527f6765744e6f646544697265637473436f756e74286164647265737329000000006020830152565b6040519061295b82611594565b601f82527f6765746e6f646572616e6b61676528616464726573732c75696e7432353629006020830152565b6040519061299482611594565b601082526f6765744e6f646528616464726573732960801b6020830152565b908160a091031261040b5780519160208201516129cf8161060f565b91604081015191608060608301516129e681610a39565b92015161161f81610a39565b604051906129ff82611594565b601582527467657444656c656761746f7228616464726573732960581b6020830152565b60405190612a3082611594565b6014825273697344656c656761746f7228616464726573732960601b6020830152565b60405190612a6082611594565b601a82527f77697468647261776e496e636f6d654f662861646472657373290000000000006020830152565b60045460081c60ff1661351f5760005460049190602090612ab5906001600160a01b0316610654565b60405163111ea8c160e21b815293849182905afa9182156103f4576000926134fe575b50600154604080516001600160a01b039092166020830152612b1a9190612b0c90829081015b03601f1981018352826115e8565b612b14612673565b8461585d565b906001600160a01b038216156134da57600581116134c857612b4b612b3d611c25565b612b456126a2565b846158e4565b90600654612b598183611d4b565b8311156134c057612b6991611d4b565b8161312d575b508060065414908115613124575b50612b86575050565b612ba1612b9c612b94611c25565b612b456127b3565b600a55565b600a5460085481116130dc575b50612bda612bcb612bbd611c25565b612bc5612801565b84615798565b60208082518301019101612824565b5050601760209081527ff36d6bc9642eb6fb6ee9998b09ce990566df752ab06e11f8de7ab633bbd57b8f949094557fc52df653038b2ad477d8d97f1ddd63cfd138847b628ad8a7b89c109c3f8782ca929092557fd8b2bced50346359af71f91110b86cdf684b6ab1c6ca64a7583c044d5c24de5c5560046000527f68052a315987b3c92fe6f7df77391bc5a825cabe4950d34f36f8f4e8a6abcb4d55604080516001600160a01b03841692810192909252612cbd91612cae91612ca09082908101612afe565b612ca8612852565b85615798565b60208082518301019101612881565b60176020527fb5960004021af13991ce5051d4eb58d7746e4abf0c567e7b567b13602bb63b949190915560686000527f633ff43f49a01bf8789580e5bd9829e5d72894d0de225c42a660b89628f5911455612d24611ab4612d1c611c25565b612b45612897565b612d3a612b9c612d32611c25565b612b456128ba565b604080516001600160a01b0383166020820152612d7091612d6b9190612d639082908101612afe565b6118756128dc565b600b55565b604080516001600160a01b0383166020820152612da691612da19190612d999082908101612afe565b611875612915565b600c55565b60005b600f811115612fe45750604080516001600160a01b039092166020830152612e1192612dfa92612deb92909190612de390839081016106b7565b6125ce612987565b602080825183010191016129b3565b935050505060ff8019600454169115151617600455565b600054612e26906001600160a01b0316610654565b604051906314ac1b5960e21b808352602083600481855afa9283156103f457600093612fc3575b50600154612e8f906001600160a01b0316604080516001600160a01b0383166020820152919590612e8190839081016106b7565b612e896129f2565b9061585d565b604051828152602081600481875afa80156103f457612edf926106b792600092612f9e575b50604080516001600160a01b0390921660208301529092612ed791849190820190565b611480612a23565b612f06575b505050612ef2600854600955565b6116bb61010061ff00196004541617600455565b60209060046040518094819382525afa80156103f457612f57926106b792600092612f79575b50604080516001600160a01b0390921660208301529092612f4f91849190820190565b61188d612a53565b60056000526017602052600080516020615ac183398151915255388080612ee4565b612f4f919250612f979060203d6020116103ed576103de81836115e8565b9190612f2c565b612ed7919250612fbc9060203d6020116103ed576103de81836115e8565b9190612eb4565b612fdd91935060203d6020116103ed576103de81836115e8565b9138612e4d565b80612ffd9161306b575b6007811115613002575b611d83565b612da9565b600b548082116130525750604080516001600160a01b0385166020820152908101829052612ff8906130499061303b8160608101612afe565b61304361294e565b876158e4565b6117188361136b565b613049613061612ff89261136b565b90549060031b1c90565b604051632994ed6560e11b60208201526001600160a01b0384166024820152604481018290526130ac90612cae906130a68160648101612afe565b86615953565b6130c083600052601a602052604060002090565b906130d584600052601b602052604060002090565b5555612fee565b600855613107612afe6130ff600a54604051928391602083019190602083019252565b61184a6127d9565b61311d6008546000526019602052604060002090565b5538612bae565b90501538612b7d565b600080527fb75ecc04ed35f89790e98640e901bda41eceff0cb896cf2765fb69768025375054601b6020527f584f46c60af19681376031579adb04a2416e54ee5505351c2a8435e3766026ea549095909491929091905b600654848110156134635761192c61319b91611d83565b6131c9612afe6131bb600654604051928391602083019190602083019252565b6131c36126c9565b8761585d565b6131df610ca56131d7611c25565b612b456126f3565b6132796131f56131ed611c25565b612b4561271a565b9861321a60405161321281612afe60208201906000602083019252565b611875612741565b98613237613231613229611c25565b613043612769565b94615a0e565b60005460209061324f906001600160a01b0316610654565b6040516333ea87db60e21b81526001600160a01b0390931660048401529194859081906024820190565b0381845afa9384156103f457600094613442575b506001600160a01b038416156133e9575b506132ab6117c58461535d565b6133d7578a9284846132bb61278e565b938285528160208601526002958654604087015283866006546132e8906000526018602052604060002090565b906132f291611d92565b6132fb91611d4b565b9e61330591611d4b565b9c61330f93612414565b600654613326906000526018602052604060002090565b60030180546001600160a01b0319166001600160a01b0390921691909117905561334f8461255b565b506006546001149361338360606133c093600080516020615a81833981519152976133c8575b01516001600160a01b031690565b9254604080513381526001600160a01b03909516602086015284019490945260608301526080820192909252600060a082015290819060c0820190565b0390a1613184565b6133d28654600855565b613375565b604051630d419f7360e41b8152600490fd5b604051635bb8e44b60e11b815260006004820152919350602090829060249082905afa9081156103f457600091613423575b50913861329e565b61343c915060203d6020116103ed576103de81836115e8565b3861341b565b61345c91945060203d6020116103ed576103de81836115e8565b923861328d565b50600080527fb75ecc04ed35f89790e98640e901bda41eceff0cb896cf2765fb69768025375096909655601b6020527f584f46c60af19681376031579adb04a2416e54ee5505351c2a8435e3766026ea9490945593905038612b6f565b505080612b69565b6040516364ce9be960e11b8152600490fd5b5050506134e8612b9c61547b565b6134f3600a54600855565b612ef2600a54600955565b61351891925060203d6020116103ed576103de81836115e8565b9038612ad8565b50565b60005460405163cfbffe5360e01b815291906020908190849060049082906001600160a01b03165afa80156103f45761161f936000916135ac575b50604051928284015281835261357283611594565b7f636f6d707574654d696e7456616c75652875696e743235362900000000000000604051926135a084611594565b601984528301526158e4565b6135c39150823d84116103ed576103de81836115e8565b3861355d565b91939492600095600095806135e0575b5050505050565b600b5497509495509193909282156136515761233e826136279261361561233e6136349996600052601a602052604060002090565b9055600052601b602052604060002090565b90555b1561364257613aef565b600b549038808080806135d9565b61364c6000600b55565b613aef565b9080600052601a6020526040600020918254908103908111611d2a576136829255600052601b602052604060002090565b928354908103908111611d2a57613634935561362a565b604051906136a682611594565b60148252736c6576656c436c617573652875696e743235362960601b6020830152565b908160a091031261040b578051916020820151916040810151916080606083015192015190565b9193909695969492948515159788613a5e575b50600b549761371c87600052601a602052604060002090565b613727858254611d4b565b905561373d87600052601b602052604060002090565b613748838254611d4b565b905560008052601a6020527fb75ecc04ed35f89790e98640e901bda41eceff0cb896cf2765fb6976802537505415159081613a56575b50613790575b505050505050600b5490565b613a48575b6000546137aa906001600160a01b0316610654565b604051809163cfbffe5360e01b825281600460209384935afa9182156103f457613809926137fc91600091613a2b575b50604051906137f4826106b78c8783019190602083019252565b6125ce613699565b80518101820191016136c9565b949193909660028a11928315936139fc575b505050613829575b50613784565b6138859461384d612603936126036138476138479561385399612513565b91612502565b96612513565b9261386881600052601c602052604060002090565b613873848254611d4b565b9055600052601d602052604060002090565b613890838254611d4b565b905560016000819052601e6020526138ca7f873299c6a6c39b8b92f01922bb622df4a3236ea2876aac2da76f6c092cf7e98f5b5460011690565b1480156139d2575b613997575b506004600052601e602052600161390d7f2eca6469c5988648711d819e241e59ec9e94a879e5d491ce337260f9e75414126138c3565b14801561396d575b613932575b50613926610d34613c6e565b38808080808080613823565b600960005260176020526139657f0480f894719e4db46f2c51c98cf5b891889d59db5c7f94573597494ddc8d4ae161233e565b90553861391a565b5060c8600052601e6020526001613991600080516020615ae18339815191526138c3565b14613915565b600660005260176020526139ca7fdba639bd458ad7aa817aa5e381ad7ed79ea3aeac2e3d9b2d7c51df9a9229709d61233e565b9055386138d7565b5060c8600052601e60205260016139f6600080516020615ae18339815191526138c3565b146138d2565b613a0c91929350600a5490611d76565b10908115613a1e575b5038808061381b565b9050600b54101538613a15565b613a429150833d85116103ed576103de81836115e8565b386137da565b613a5181613aef565b613795565b90503861377e565b600481106137035760155415613ab2575b613a84613a7e60155485611d76565b86111590565b9081613aa6575b50613a965738613703565b5050505050509050600b54908190565b9050600b541038613a8b565b613abb83601555565b613a6f565b60405190613acd82611594565b601382527272616e6b436c617573652875696e743235362960681b6020830152565b600b613afb8154611d3d565b60088110613b0857505050565b60008054909190613b21906001600160a01b0316610654565b91604092835191829163cfbffe5360e01b835282600460209485935afa80156103f457613ba495613b8394613b769392613bde575b505190613b6e826106b7888783019190602083019252565b6125ce613ac0565b8051810182019101612881565b90600c5410159081613bb7575b50613ba9575b612ff884611718855461136b565b613afb565b613bb281600b55565b613b96565b9050613bd5613bc583611d58565b600052601b602052604060002090565b54101538613b90565b613bf6919250843d86116103ed576103de81836115e8565b9038613b56565b60405190613c0a82611594565b600982526863617070696e67282960b81b6020830152565b91908260c091031261040b578151916020810151613c3f81610a39565b916040820151613c4e81610a39565b916060810151613c5d81610a39565b9160a060808301516129e681610a39565b600054600490602090613c89906001600160a01b0316610654565b60405163cfbffe5360e01b815292839182905afa9081156103f457613cda91613ccb91600091613f04575b50613cbd613bfd565b613cc5611c12565b91615798565b60208082518301019101613c22565b9094919593613cf360008052601a602052604060002090565b5495613cff8488612513565b978895613d0a614cef565b94613ef3575b50613e6f575b613e09575b613df8575b50613d90575b6000805260176020527fd840e16649f6b9a295d95876f4633d3a6b10b55e8162971cf78afd886d5ec89b54613d5a91612513565b80841015613d7f575b5080831192818110613d76575050600090565b61161f91611d76565b613d899193611d76565b9138613d63565b6005600052601760205292613d5a90613df090613dea6120e6600080516020615ac18339815191525b54600a60005260176020527fd01a1030c3796725449ebf72d73ac5540c8aa9c83f796ef75dcf19a390d0382c61207f565b90611d4b565b939050613d26565b613e029195611d4b565b9338613d20565b60176020527fd8b2bced50346359af71f91110b86cdf684b6ab1c6ca64a7583c044d5c24de5c5460086000529096613e6991613dea90612086907ff573626183c54e3dd8eb68c6c0266a90101d76d98ec703822e6a139999dd765561207f565b95613d1b565b60176020527fc52df653038b2ad477d8d97f1ddd63cfd138847b628ad8a7b89c109c3f8782ca5460076000529097613eed91613dea90613ecf907ffae2f3cf7832fe1c3d9af0d1138f3108106a06e0c9fcfc402be937e37ff7af6661207f565b600c6000526017602052600080516020615aa183398151915261207f565b96613d16565b613efd9199611d4b565b9738613d10565b613f1c915060203d81116103ed576103de81836115e8565b38613cb4565b6116bb90613f2f8161425c565b8051600b6000526017602052613f52600080516020615b0183398151915261233e565b90556060810151600e6000526017602052613f8c7f838b23a3c9c8a7fda5238031c00730254cd0668a98cd090e0cca00dfe448439f61233e565b9055602081810151600c6000526017909152613fb5600080516020615aa183398151915261233e565b9055604081018051600d6000526017602052613ff07fd4f117696427b3170ffd20740156ca83422b10d4acca400a7ad7659ba482c09461233e565b90556080820151600f600052601760205261402a7fe335a55928420821f34e4a0838f73915c5180cd07cd2d24e16a8fe491893d41a61233e565b905560c0820151600760005260176020526140647ffae2f3cf7832fe1c3d9af0d1138f3108106a06e0c9fcfc402be937e37ff7af6661233e565b905560e082018051600860005260176020529092610140916140a57ff573626183c54e3dd8eb68c6c0266a90101d76d98ec703822e6a139999dd765561233e565b9055610120810151600a60005260176020526140e07fd01a1030c3796725449ebf72d73ac5540c8aa9c83f796ef75dcf19a390d0382c61233e565b905501516140f8846000526019602052604060002090565b5551601f600052601760205261412d7f559a04d74be1f9cd7652678b63be8cd60a1a848076ceef705092e0f06807bc6061233e565b90555160206000819052601790526141647f184d1c2d9ec04f9c47fec5507bb2d716db9966a00f63f49fd8cbb247f2f8fafd61233e565b9055600855565b60405190610160820182811067ffffffffffffffff82111761155657604052816101406000918281528260208201528260408201528260608201528260808201528260a08201528260c08201528260e082015282610100820152826101208201520152565b604051906141dd82611594565b600a82526973687574646f776e282960b01b6020830152565b6040519061420382611594565b601882527f676574557365724964546f496e73742875696e743235362900000000000000006020830152565b6040519061423c82611594565b6011825270696e636f6d654f6628616464726573732960781b6020830152565b9061426561416b565b60005490929061427d906001600160a01b0316610654565b6040805163ab6e844f60e01b815292916020908185600481845afa9485156103f457600095614549575b50825163cfbffe5360e01b8152908282600481845afa9182156103f45760c0896143f860049887968b9560009161452c575b506142f46142e56141d0565b6142ed611c12565b90836158a8565b9b8c9261438e614302614cef565b6060890190815281895260176020527ff36d6bc9642eb6fb6ee9998b09ce990566df752ab06e11f8de7ab633bbd57b8f546006600052909291906143889061436a907fdba639bd458ad7aa817aa5e381ad7ed79ea3aeac2e3d9b2d7c51df9a9229709d61207f565b600b6000526017602052600080516020615b0183398151915261207f565b90611d76565b8752805160176020527f68052a315987b3c92fe6f7df77391bc5a825cabe4950d34f36f8f4e8a6abcb4d5460096000526143f19190614388906120b6907f0480f894719e4db46f2c51c98cf5b891889d59db5c7f94573597494ddc8d4ae161207f565b90526146ac565b9d949392610140879298939701520152868d015260001461451d5750506106b761443c9161443460075488519384918883019190602083019252565b612e896141f6565b31848901525b83516314ac1b5960e21b815294859182905afa9081156103f457614495936000926144fa575b5060015492516001600160a01b0390931690830190815261448d9083906020016106b7565b61188d61422f565b90156144cb57600560005260176020526144c3906143886120e6600080516020615ac1833981519152613db9565b610120830152565b600560005260176020526144f3906143886120e6600080516020615ac1833981519152613db9565b6080830152565b8192506145169061448d923d85116103ed576103de81836115e8565b9190614468565b8a87015260e08a015250614442565b6145439150883d8a116103ed576103de81836115e8565b386142d9565b614561919550823d84116103ed576103de81836115e8565b93386142a7565b604051906040820182811067ffffffffffffffff8211176115565760405260006020838281520152565b6040519061459f8261153a565b816145a8614568565b81526145b2614568565b60208201526145bf614568565b604082015260606145ce614568565b910152565b604051906145e082611594565b601882527f6765744261746368526f79616c7479436c6175736573282900000000000000006020830152565b6102a090818184031261040b5782601f8201121561040b576040805193614632856115cc565b849383019281841161040b57935b83851061464f57505050505090565b60608583031261040b5782516060916146678261155b565b8651825260209182880151838201528588015186820152815201940193614640565b818102929160008212600160ff1b821416611d2a578184051490151715611d2a57565b9392916000946000946000946000946000946000946147386147296146cf614592565b936146d9846148f6565b8651906020820152526146eb8461499d565b60208701519060208201525261470084614a30565b60408701519060208201525261471584614ad2565b606087015190602082015252613cbd6145d3565b6020808251830101910161460c565b93600854945b82861061474d57505050505050565b90919293949a61475e82878e614be7565b9085518d8151111590816148e7575b5080156148c0575b156148ae579061478491611d4b565b9a5b8215614806575b8451805182101590816147f7575b5080156147d0575b6147bb575b6147b190611d83565b949392919061473e565b966147c86147b191611d83565b9790506147a8565b506060850151805182101590816147e8575b506147a3565b602091500151811115386147e2565b6020915001518111153861479b565b9761483a6148296148218b6000526019602052604060002090565b54809d612526565b9b6148348b87611d76565b90614689565b90855180518b1015908161489f575b508015614878575b15614866579061486091612526565b9761478d565b98999061487291612526565b9861478d565b50604086015180518b10159081614890575b50614851565b6020915001518a11153861488a565b6020915001518a111538614849565b9b9c906148ba91611d4b565b9b614786565b5060208601518d8151111590816148d8575b50614775565b6020915001518d1115386148d2565b6020915001518d11153861476d565b60c8600052601e602052600080516020615ae183398151915280549291908315614996576001841661497e57505060c8600052601e602052613061614952600080516020615ae183398151915261494c85611d67565b906116d8565b905460c8600052601e60205260039190911b1c9261494c600080516020615ae183398151915291611d58565b61494c61498b9294611d58565b90549060031b1c9190565b5091508190565b60026000908152601e6020527f8a1ea6ccfdf9f988bdc16303c81231f9b192785454b34880c28e5c30362354c58054919392908215614a285760018316614a195750506130619060028452601e60205261494c6040614a0181872061494c85611d67565b90549060031b1c9560028152601e6020522091611d58565b90935061494c61498b92611d58565b509250508190565b60036000818152601e6020527f4bbb14a9b8bdd7baf7e45936eef68b1d3b69ec665e4d3d9f22d086627a2b08808054919493908215614ac95760018316614ab1575050614aa990828552601e60205261494c6040614a9381882061494c85611d67565b905490861b1c96858152601e6020522091611d58565b9054911b1c90565b90945061494c614ac092611d58565b9054911b1c9190565b50935050508190565b60056000908152601e6020527f86d72ecda2f02015d839a182675ed983893a479e8f4279fb5498fd7244fa5dfe8054919392908215614a285760018316614a195750506130619060058452601e60205261494c6040614b3681872061494c85611d67565b90549060031b1c9560058152601e6020522091611d58565b60405190614b5b82611594565b601f82527f676574526f79616c697479416d6f756e7442617463682875696e7432353629006020830152565b9060e08282031261040b5780601f8301121561040b5760405191614baa836115cc565b829060e0810192831161040b57905b828210614bc65750505090565b8151815260209182019101614bb9565b90600781101561137d5760051b0190565b909291600093600b5460078111600014614ce7575060079192905b614c3b614c2c604092835190614c24826106b788602083019190602083019252565b6125ce614b4e565b60208082518301019101614b87565b916001945b84861115614c5057505050505050565b909192939496614c68614c6289611d58565b83614bd6565b51614c7b614c758a611d58565b87614bd6565b5115908115614cc4575b50614cba57614caa614cb091614ca3614c9d8b611d58565b88614bd6565b5190611d4b565b97611d83565b9493929190614c40565b96614cb090611d83565b614cdf915085614cd66130618c61136b565b91015190611d4b565b831138614c85565b919290614c02565b600090816001815b600f821115614d70575050606560005260176020527fb5960004021af13991ce5051d4eb58d7746e4abf0c567e7b567b13602bb63b94548101809111611d2a5760686000526017602052917f633ff43f49a01bf8789580e5bd9829e5d72894d0de225c42a660b89628f59114548101809111611d2a5790565b9093848252602092601c8452604090818420548101809111611d2a57601d9094878552528220548101809111611d2a57614daa9094611d83565b90614cf7565b919091614dbb611df9565b92811561510b57600182146150335760028214614f7f5760038214614ea257614de261547b565b60085490614df08383611d4b565b1015614e9557614e0891614e0391611d4b565b61425c565b9060048114614e5a57600514614e1b5750565b909150610120614e29611bd6565b9160a0810151835260c0810151602084015260e0810151604084015261010081015160608401520151608082015290565b509091506080614e68611bd6565b91805183526020810151602084015260408101516040840152606081015160608401520151608082015290565b5050614e08614e0361547b565b50509050614eae611bd6565b7fd840e16649f6b9a295d95876f4633d3a6b10b55e8162971cf78afd886d5ec89b5481527f559a04d74be1f9cd7652678b63be8cd60a1a848076ceef705092e0f06807bc60546020808301919091527f184d1c2d9ec04f9c47fec5507bb2d716db9966a00f63f49fd8cbb247f2f8fafd5460408301527fb5960004021af13991ce5051d4eb58d7746e4abf0c567e7b567b13602bb63b945460608301526068600052601790527f633ff43f49a01bf8789580e5bd9829e5d72894d0de225c42a660b89628f591145b54608082015290565b50509050614f8b611bd6565b600080516020615b01833981519152548152600080516020615aa1833981519152546020808301919091527fd4f117696427b3170ffd20740156ca83422b10d4acca400a7ad7659ba482c0945460408301527f838b23a3c9c8a7fda5238031c00730254cd0668a98cd090e0cca00dfe448439f546060830152600f600052601790527fe335a55928420821f34e4a0838f73915c5180cd07cd2d24e16a8fe491893d41a614f76565b5050905061503f611bd6565b7fdba639bd458ad7aa817aa5e381ad7ed79ea3aeac2e3d9b2d7c51df9a9229709d5481527ffae2f3cf7832fe1c3d9af0d1138f3108106a06e0c9fcfc402be937e37ff7af66546020808301919091527ff573626183c54e3dd8eb68c6c0266a90101d76d98ec703822e6a139999dd76555460408301527f0480f894719e4db46f2c51c98cf5b891889d59db5c7f94573597494ddc8d4ae1546060830152600a600052601790527fd01a1030c3796725449ebf72d73ac5540c8aa9c83f796ef75dcf19a390d0382c614f76565b50509050615117611bd6565b7ff36d6bc9642eb6fb6ee9998b09ce990566df752ab06e11f8de7ab633bbd57b8f5481527fc52df653038b2ad477d8d97f1ddd63cfd138847b628ad8a7b89c109c3f8782ca546020808301919091527fd8b2bced50346359af71f91110b86cdf684b6ab1c6ca64a7583c044d5c24de5c5460408301527f68052a315987b3c92fe6f7df77391bc5a825cabe4950d34f36f8f4e8a6abcb4d546060830152600560005260179052600080516020615ac1833981519152614f76565b156151d857565b60405162461bcd60e51b815260206004820152601960248201527f6f776e2e7361666567756172642e63616c6c2e6661696c6564000000000000006044820152606490fd5b9081602091031261040b575161161f81610a39565b600054604051634bf9c0ad60e11b8152906020908190839060049082906001600160a01b03165afa9182156103f45761161f926152a8916000916152c3575b5060405161527e81611594565b6008815267697353616665282960c01b848201526040519161529f836115b0565b600083526157c3565b9190806152b9575b6106e4906151d1565b50815181146152b0565b6152da9150833d85116103ed576103de81836115e8565b38615271565b604051906152ed82611594565b601582527469735365637572654261736528616464726573732960581b6020830152565b1561531857565b60405162461bcd60e51b815260206004820152601a60248201527f6f776e2e736563757265626173652e63616c6c2e6661696c65640000000000006044820152606490fd5b6000546001600160a01b0316604051918291634bf9c0ad60e11b835282600460209485935afa9283156103f45761161f936153cb926106b7926000926153e6575b506040516001600160a01b0390911685820190815290926153c3918491602090910190565b6106cd6152e0565b9190806153dc575b6106e490615311565b50815181146153d3565b6153c391925061540290863d88116103ed576103de81836115e8565b919061539e565b6040519061541682611594565b601182527069735369676e657228616464726573732960781b6020830152565b1561543d57565b60405162461bcd60e51b81526020600482015260166024820152751bdddb8b9cda59db995c8b98d85b1b0b99985a5b195960521b6044820152606490fd5b60005460405163111ea8c160e21b815290602090829060049082906001600160a01b03165afa80156103f45761161f916000916154e8575b506040516154c081611594565b6005815264616765282960d81b6020820152604051916154df836115b0565b600083526158e4565b615500915060203d81116103ed576103de81836115e8565b386154b3565b6040519061551382611594565b6011825270697364656c656761746f724e6f6465282960781b6020830152565b6001600160a01b0390811690811561558757600154826bffffffffffffffffffffffff60a01b821617600155167f8292fce18fa69edf4db7b94ea2e58241df0ae57f97e0a6c9b29067028bf92d76600080a3565b60405162461bcd60e51b815260206004820152601160248201527037bbb71734b73b30b634b21737bbb732b960791b6044820152606490fd5b3d156155eb573d906155d182611bf6565b916155df60405193846115e8565b82523d6000602084013e565b606090565b9080156116ae576001600160a01b03821691821561568d57600080808481945af16156196155c0565b5015615652576040519081527fcec1f18c3ab8ddaaa107a1591e3c369667eec613626611a8deaedef43069fcdd9080602081015b0390a2565b60405162461bcd60e51b81526020600482015260136024820152721bdddb8b9d1c985b9cd9995c8b99985a5b1959606a1b6044820152606490fd5b60405162461bcd60e51b815260206004820152600e60248201526d6f776e2e696e76616c69642e746f60901b6044820152606490fd5b600080546040516311be646b60e21b815290602090829060049082906001600160a01b03165afa9081156103f457828481938293839161577a575b505af16157096155c0565b50156157435760405190815233907fcdcc745fe377b103b45fa0cec23ae3ef93d6fc6a84a01f0d18c40b354dd1d5d890806020810161564d565b60405162461bcd60e51b815260206004820152600f60248201526e1bdddb8b989d5c9b8b99985a5b1959608a1b6044820152606490fd5b615792915060203d81116103ed576103de81836115e8565b386156fe565b906157a392916157c3565b90600090156157b0575090565b60405191506157be826115b0565b815290565b9190823b15615844578051906020918263ffffffff60e01b92012016916040519180830193845281519160005b83811061583057505050918161581d602482600097959688970187838201520360048101845201826115e8565b5191620dbba0fa61582c6155c0565b9091565b8181018301518582016024015282016157f0565b505050600090604051615856816115b0565b6000815290565b929161586b916000946157c3565b908061589d575b6158795750565b80519192506001600160a01b03916158999160209181018201910161160a565b1690565b506020815114615872565b92916158b6916000946157c3565b90806158d9575b6158c45750565b61161f9192506020808251830101910161521d565b5060208151146158bd565b92916158f2916000946157c3565b9080615917575b6159005750565b90915060208180518101031261040b576020015190565b5060208151146158f9565b906020825192015163ffffffff60e01b90818116936004811061594457505050565b60040360031b82901b16169150565b6001600160a01b038116156159d457600080918351908260208601915af19061597a6155c0565b9115615984575090565b8051600091906004116159ce5761599b9150615922565b8151156159ab5750805190602001fd5b604051630870274d60e21b81526001600160e01b03199091166004820152602490fd5b5061599b565b60405162461bcd60e51b81526020600482015260126024820152711bdddb8b9a5b9d985b1a590b9d185c99d95d60721b6044820152606490fd5b803b6000615a1b82611bf6565b92615a2960405194856115e8565b82845260208401903c602d815110615a4557602a015160601c90565b60405162461bcd60e51b81526020600482015260136024820152724e6f742061206d696e696d616c2070726f787960681b6044820152606490fdfe1517c86fcf2bfb8e3468afcc539b0004955da8027797c497ea51d1f1094ab89864a7f66a782c34000146bbd99e3f79f98bb503e9cc23914a39f883a131175bf970266c3d5b8b2375fded59c72bf5f0d74bbb12fdf645a4c8630629f0191fb3173df8e15045dbe906749e0a374633bef138b0876e1dbb812f11d51b5785446ad754acb9ed3edc1b7a8255332c8673f792d9928f1a0e23f8fa562129e3598e56e0a26469706673582212206fa936cecabdd6f516b9d4494d0bac70469b4f2429b3d40224c3b8c7e227f5d064736f6c63430008140033","linkReferences":{}},"methodIdentifiers":{"Burn(uint256)":"b90306ad","BurnCoin()":"7bfbfecb","LSB(uint256)":"a98bf4f9","_compute(uint256)":"2c2838e8","_delegatorCount()":"a1f7f539","_getImplementation(address)":"c54e44b0","_importOld(uint256)":"141ca660","_isDelegatorNode(address)":"e01ad5fd","_isSafe()":"e0a9bc2b","_isSecureBase(address)":"af484526","_isSigner(address)":"1f185d16","_txnType7(uint256,uint256)":"02a085f2","_txnType_1_0(address,uint256,uint256,uint256,uint256)":"932ca2d6","addLevelnGetRank(uint256,uint256,uint256,uint256,uint256,uint256,uint256)":"1fc9788a","bonus()":"75b4d78c","cage()":"69245009","capStatus()":"a1531545","dage()":"725b6fff","direct()":"222b1407","getAllIncome(uint256,uint256)":"a20199ac","getBalance()":"12065fe0","getHexbase()":"3b9b7955","getNodeLB(uint256)":"da021335","getToggleAgeCount(uint256)":"143ec3b7","getToggleAgeValue(uint256,uint256)":"043719b4","id()":"af640d0f","isLock()":"09d8da2e","levelRestrictionAge()":"2bb96697","mintCount()":"9659867e","mints(uint256)":"6350b2c2","moveLvlIncome(uint256,uint256,uint256,uint256,bool)":"7b058ac1","owner()":"8da5cb5b","postInit()":"4a65786c","preinit(address,address,uint256)":"52902c59","rank()":"934209ce","rankage(uint256)":"d3a1a499","setBonus(uint256)":"0b98f975","setLock(bool)":"619d5194","setSuspend(uint256,bool)":"c8ef7b1a","systemAge()":"fdc10bc9","updateOwner(address)":"880cdc31","userCycleMintCount(uint256)":"39b4d61b","withdrawlDage()":"a9bf285b"},"id":25}