{"abi":[{"type":"constructor","inputs":[{"name":"_hex","type":"address","internalType":"address"}],"stateMutability":"nonpayable"},{"type":"fallback","stateMutability":"payable"},{"type":"receive","stateMutability":"payable"},{"type":"function","name":"Burn","inputs":[{"name":"amount","type":"uint256","internalType":"uint256"}],"outputs":[],"stateMutability":"nonpayable"},{"type":"function","name":"BurnCoin","inputs":[{"name":"_dollar","type":"uint256","internalType":"uint256"},{"name":"maxinterwal","type":"uint256","internalType":"uint256"}],"outputs":[],"stateMutability":"payable"},{"type":"function","name":"LSB","inputs":[{"name":"","type":"uint256","internalType":"uint256"},{"name":"","type":"uint256","internalType":"uint256"}],"outputs":[{"name":"","type":"int256","internalType":"int256"}],"stateMutability":"view"},{"type":"function","name":"_delegatorCount","inputs":[],"outputs":[{"name":"","type":"uint256","internalType":"uint256"}],"stateMutability":"view"},{"type":"function","name":"_getImplementation","inputs":[{"name":"clone","type":"address","internalType":"address"}],"outputs":[{"name":"impl","type":"address","internalType":"address"}],"stateMutability":"view"},{"type":"function","name":"_importOld","inputs":[{"name":"limit","type":"uint256","internalType":"uint256"}],"outputs":[],"stateMutability":"payable"},{"type":"function","name":"_isDelegatorNode","inputs":[{"name":"sender","type":"address","internalType":"address"}],"outputs":[{"name":"","type":"bool","internalType":"bool"}],"stateMutability":"view"},{"type":"function","name":"_isSafe","inputs":[],"outputs":[{"name":"","type":"bool","internalType":"bool"}],"stateMutability":"view"},{"type":"function","name":"_isSecureBase","inputs":[{"name":"sender","type":"address","internalType":"address"}],"outputs":[{"name":"","type":"bool","internalType":"bool"}],"stateMutability":"view"},{"type":"function","name":"_isSigner","inputs":[{"name":"sender","type":"address","internalType":"address"}],"outputs":[{"name":"","type":"bool","internalType":"bool"}],"stateMutability":"view"},{"type":"function","name":"_txnType7","inputs":[{"name":"_maxint","type":"uint256","internalType":"uint256"},{"name":"_ag","type":"uint256","internalType":"uint256"}],"outputs":[{"name":"CALC_INC","type":"uint256[9]","internalType":"uint256[9]"}],"stateMutability":"payable"},{"type":"function","name":"_txnType_1_0","inputs":[{"name":"paramAdd","type":"address","internalType":"address"},{"name":"_id_maxint","type":"uint256","internalType":"uint256"},{"name":"_qty","type":"uint256","internalType":"uint256"},{"name":"_msgValue","type":"uint256","internalType":"uint256"},{"name":"_type","type":"uint256","internalType":"uint256"},{"name":"_ag","type":"uint256","internalType":"uint256"}],"outputs":[{"name":"_tvl","type":"uint256","internalType":"uint256"},{"name":"_amt","type":"uint256","internalType":"uint256"}],"stateMutability":"payable"},{"type":"function","name":"addLevelnGetRank","inputs":[{"name":"_amount","type":"uint256","internalType":"uint256"},{"name":"_qty","type":"uint256","internalType":"uint256"},{"name":"_level","type":"uint256","internalType":"uint256"},{"name":"_epochAge","type":"uint256","internalType":"uint256"},{"name":"_free","type":"uint256","internalType":"uint256"},{"name":"_tobeSkipped","type":"bool","internalType":"bool"}],"outputs":[{"name":"currentrnk","type":"uint256","internalType":"uint256"}],"stateMutability":"nonpayable"},{"type":"function","name":"bonus","inputs":[],"outputs":[{"name":"","type":"uint256","internalType":"uint256"}],"stateMutability":"view"},{"type":"function","name":"cage","inputs":[],"outputs":[{"name":"","type":"uint256","internalType":"uint256"}],"stateMutability":"view"},{"type":"function","name":"capping","inputs":[],"outputs":[{"name":"multiple","type":"uint256","internalType":"uint256"},{"name":"multipledollar","type":"uint256","internalType":"uint256"},{"name":"rw","type":"bool","internalType":"bool"},{"name":"ry","type":"bool","internalType":"bool"},{"name":"self","type":"bool","internalType":"bool"},{"name":"yei","type":"bool","internalType":"bool"}],"stateMutability":"view"},{"type":"function","name":"currentCycle","inputs":[],"outputs":[{"name":"","type":"uint256","internalType":"uint256"}],"stateMutability":"view"},{"type":"function","name":"currentLSBversion","inputs":[],"outputs":[{"name":"","type":"uint256","internalType":"uint256"}],"stateMutability":"view"},{"type":"function","name":"dage","inputs":[],"outputs":[{"name":"","type":"uint256","internalType":"uint256"}],"stateMutability":"view"},{"type":"function","name":"directsCount","inputs":[],"outputs":[{"name":"","type":"uint256","internalType":"uint256"}],"stateMutability":"view"},{"type":"function","name":"getAllData","inputs":[{"name":"typeId","type":"uint256","internalType":"uint256"},{"name":"maxinterwal","type":"uint256","internalType":"uint256"}],"outputs":[{"name":"values","type":"uint256[7]","internalType":"uint256[7]"}],"stateMutability":"view"},{"type":"function","name":"getBalance","inputs":[],"outputs":[{"name":"","type":"uint256","internalType":"uint256"}],"stateMutability":"view"},{"type":"function","name":"getHexbase","inputs":[],"outputs":[{"name":"","type":"address","internalType":"address"}],"stateMutability":"view"},{"type":"function","name":"getNodeLB","inputs":[{"name":"_level","type":"uint256","internalType":"uint256"}],"outputs":[{"name":"","type":"tuple","internalType":"struct InstanceStor.LevelInfoStr","components":[{"name":"lvlbs","type":"uint256","internalType":"uint256"},{"name":"lvlqty","type":"uint256","internalType":"uint256"},{"name":"lvlrwrd","type":"uint256","internalType":"uint256"},{"name":"lvlyei","type":"uint256","internalType":"uint256"}]}],"stateMutability":"view"},{"type":"function","name":"getNodeLvlInfoBatch","inputs":[{"name":"from","type":"uint256","internalType":"uint256"},{"name":"to","type":"uint256","internalType":"uint256"}],"outputs":[{"name":"info","type":"tuple[]","internalType":"struct InstanceStor.LevelInfoStr[]","components":[{"name":"lvlbs","type":"uint256","internalType":"uint256"},{"name":"lvlqty","type":"uint256","internalType":"uint256"},{"name":"lvlrwrd","type":"uint256","internalType":"uint256"},{"name":"lvlyei","type":"uint256","internalType":"uint256"}]}],"stateMutability":"view"},{"type":"function","name":"getRankAgeInBatch","inputs":[],"outputs":[{"name":"rankagebatch","type":"uint256[]","internalType":"uint256[]"}],"stateMutability":"view"},{"type":"function","name":"getRankWithAgeValue","inputs":[],"outputs":[{"name":"","type":"uint256","internalType":"uint256"},{"name":"","type":"uint256","internalType":"uint256"}],"stateMutability":"view"},{"type":"function","name":"getToggleAgeCount","inputs":[{"name":"key","type":"uint256","internalType":"uint256"}],"outputs":[{"name":"","type":"uint256","internalType":"uint256"}],"stateMutability":"view"},{"type":"function","name":"getToggleAgeValue","inputs":[{"name":"key","type":"uint256","internalType":"uint256"},{"name":"index","type":"uint256","internalType":"uint256"}],"outputs":[{"name":"","type":"uint256","internalType":"uint256"}],"stateMutability":"view"},{"type":"function","name":"id","inputs":[],"outputs":[{"name":"","type":"uint256","internalType":"uint256"}],"stateMutability":"view"},{"type":"function","name":"isLock","inputs":[],"outputs":[{"name":"","type":"bool","internalType":"bool"}],"stateMutability":"view"},{"type":"function","name":"mintCount","inputs":[],"outputs":[{"name":"","type":"uint256","internalType":"uint256"}],"stateMutability":"view"},{"type":"function","name":"mints","inputs":[{"name":"","type":"uint256","internalType":"uint256"}],"outputs":[{"name":"amt","type":"uint256","internalType":"uint256"},{"name":"qty","type":"uint256","internalType":"uint256"},{"name":"mage","type":"uint256","internalType":"uint256"},{"name":"nft","type":"address","internalType":"address"}],"stateMutability":"view"},{"type":"function","name":"moveLvlIncome","inputs":[{"name":"_amount","type":"uint256","internalType":"uint256"},{"name":"_qty","type":"uint256","internalType":"uint256"},{"name":"_level","type":"uint256","internalType":"uint256"},{"name":"_epochAge","type":"uint256","internalType":"uint256"},{"name":"_op","type":"bool","internalType":"bool"}],"outputs":[{"name":"lastrnk","type":"uint256","internalType":"uint256"},{"name":"currentrnk","type":"uint256","internalType":"uint256"}],"stateMutability":"nonpayable"},{"type":"function","name":"owner","inputs":[],"outputs":[{"name":"","type":"address","internalType":"address"}],"stateMutability":"view"},{"type":"function","name":"postInit","inputs":[],"outputs":[{"name":"","type":"bool","internalType":"bool"}],"stateMutability":"view"},{"type":"function","name":"preinit","inputs":[{"name":"_hex","type":"address","internalType":"address"},{"name":"_own","type":"address","internalType":"address"},{"name":"_id","type":"uint256","internalType":"uint256"}],"outputs":[],"stateMutability":"nonpayable"},{"type":"function","name":"rank","inputs":[],"outputs":[{"name":"","type":"uint256","internalType":"uint256"}],"stateMutability":"view"},{"type":"function","name":"rankage","inputs":[{"name":"","type":"uint256","internalType":"uint256"}],"outputs":[{"name":"","type":"uint256","internalType":"uint256"}],"stateMutability":"view"},{"type":"function","name":"setBonus","inputs":[{"name":"b","type":"uint256","internalType":"uint256"}],"outputs":[],"stateMutability":"nonpayable"},{"type":"function","name":"setLock","inputs":[{"name":"flag","type":"bool","internalType":"bool"}],"outputs":[],"stateMutability":"nonpayable"},{"type":"function","name":"setSuspend","inputs":[{"name":"key","type":"uint256","internalType":"uint256"},{"name":"value","type":"bool","internalType":"bool"}],"outputs":[],"stateMutability":"nonpayable"},{"type":"function","name":"setburnclaimdollar","inputs":[{"name":"claimdollar","type":"uint256","internalType":"uint256"},{"name":"burndollar","type":"uint256","internalType":"uint256"}],"outputs":[],"stateMutability":"nonpayable"},{"type":"function","name":"setdirect","inputs":[{"name":"addremove","type":"bool","internalType":"bool"}],"outputs":[],"stateMutability":"nonpayable"},{"type":"function","name":"storcache","inputs":[],"outputs":[],"stateMutability":"nonpayable"},{"type":"function","name":"syncBaseAddr","inputs":[],"outputs":[],"stateMutability":"nonpayable"},{"type":"function","name":"systemAge","inputs":[],"outputs":[{"name":"","type":"uint256","internalType":"uint256"}],"stateMutability":"view"},{"type":"function","name":"updateOwner","inputs":[{"name":"_newowner","type":"address","internalType":"address"}],"outputs":[],"stateMutability":"nonpayable"},{"type":"function","name":"userCycleMintCount","inputs":[{"name":"","type":"uint256","internalType":"uint256"}],"outputs":[{"name":"","type":"uint256","internalType":"uint256"}],"stateMutability":"view"},{"type":"function","name":"withdrawlDage","inputs":[],"outputs":[{"name":"","type":"uint256","internalType":"uint256"}],"stateMutability":"view"},{"type":"event","name":"EthBurned","inputs":[{"name":"sender","type":"address","indexed":true,"internalType":"address"},{"name":"amount","type":"uint256","indexed":false,"internalType":"uint256"}],"anonymous":false},{"type":"event","name":"EthTransferred","inputs":[{"name":"to","type":"address","indexed":true,"internalType":"address"},{"name":"amount","type":"uint256","indexed":false,"internalType":"uint256"}],"anonymous":false},{"type":"event","name":"HexBaseUpdated","inputs":[{"name":"previousHexBase","type":"address","indexed":true,"internalType":"address"},{"name":"newHexBase","type":"address","indexed":true,"internalType":"address"}],"anonymous":false},{"type":"event","name":"LogTxns","inputs":[{"name":"from","type":"address","indexed":false,"internalType":"address"},{"name":"orc1155","type":"address","indexed":false,"internalType":"address"},{"name":"_amt","type":"uint256","indexed":false,"internalType":"uint256"},{"name":"_value","type":"uint256","indexed":false,"internalType":"uint256"},{"name":"_time","type":"uint256","indexed":false,"internalType":"uint256"},{"name":"_type","type":"uint256","indexed":false,"internalType":"uint256"}],"anonymous":false},{"type":"event","name":"OwnerUpdated","inputs":[{"name":"previousOwner","type":"address","indexed":true,"internalType":"address"},{"name":"newOwner","type":"address","indexed":true,"internalType":"address"}],"anonymous":false},{"type":"error","name":"CallFailed","inputs":[]},{"type":"error","name":"InvalidAddress","inputs":[]},{"type":"error","name":"InvalidOp","inputs":[{"name":"code","type":"uint256","internalType":"uint256"}]},{"type":"error","name":"InvalidState","inputs":[]},{"type":"error","name":"LimitExceeded","inputs":[{"name":"code","type":"uint256","internalType":"uint256"}]},{"type":"error","name":"NotAuthorized","inputs":[]},{"type":"error","name":"NotSafe","inputs":[]},{"type":"error","name":"ReentrancyGuardReentrantCall","inputs":[]},{"type":"error","name":"TargetCallFailed","inputs":[{"name":"selector","type":"bytes4","internalType":"bytes4"}]}],"bytecode":{"object":"0x608034620000b757601f620070cd38819003918201601f19168301916001600160401b03831184841017620000bc57808492602094604052833981010312620000b757516001600160a01b03811690819003620000b7578015620000a55760018060a01b0319903382600154161760015560009182541617815560016011558060125580601355806014558060155580601655601755604051616ffa9081620000d38239f35b60405163e6c4247b60e01b8152600490fd5b600080fd5b634e487b7160e01b600052604160045260246000fdfe60806040526004361015610018575b361561001657005b005b60003560e01c806302a085f214610338578063043719b41461033357806309d8da2e1461032e5780630b98f9751461032957806312065fe014610324578063129641201461031f578063141ca6601461031a578063143ec3b7146103155780631f185d161461031057806329ee350e1461030b578063339459a61461030657806339b4d61b146103015780633b9b7955146102fc57806343a1b5ab146102f75780634a65786c146102f257806352902c59146102ed5780635640dbfc146102e85780635ecf6a8a146102e3578063619d5194146102de5780636350b2c2146102d9578063654c668e146102d457806369245009146102cf5780636de97c66146102ca5780636f493aad146102c5578063725b6fff146102c0578063759f22bd146102bb57806375b4d78c146102b65780637b058ac1146102b1578063822ffec4146102ac578063880cdc31146102a75780638da5cb5b146102a2578063934209ce1461029d5780639659867e14610298578063a1f7f53914610293578063a5d7cda41461028e578063a663030414610289578063a9bf285b14610284578063af4845261461027f578063af640d0f1461027a578063b90306ad14610275578063bab2f55214610270578063c54e44b01461026b578063c8ef7b1a14610266578063d2a1590414610261578063d3a1a4991461025c578063da02133514610257578063deb1ba1e14610252578063e01ad5fd1461024d578063e0a9bc2b146102485763fdc10bc90361000e57612055565b61203a565b611fba565b611f40565b611eb9565b611e8d565b611e48565b611d4d565b611d15565b611cf7565b611be9565b611bcb565b611b9a565b611b7c565b611577565b611193565b61111e565b611100565b6110e2565b6110bb565b611050565b610e13565b610ce2565b610cc4565b610bfe565b610b7a565b610b40565b610aae565b610a55565b610a00565b6109a9565b610941565b61091e565b6108c3565b6107d8565b6107b2565b610794565b61076d565b610741565b610728565b6106ef565b610608565b6105cb565b61056f565b610523565b610507565b610496565b610473565b610437565b61036c565b610120810192916000915b6009831061035557505050565b600190825181526020809101920192019190610348565b60408060031936011261043257805190610385826120be565b61012036833760ff6018541661041b5761039d616a30565b1561040b576103ab33616ab5565b80156103f7575b156103e7576103d36103e3926103c6612805565b6024359060043590612ce1565b906001601155519182918261033d565b0390f35b6004905163ea8e4eb560e01b8152fd5b50336001600160a01b0360055416146103b2565b60049051634ee2123760e11b8152fd5b60249051635258db5f60e01b8152600a6004820152fd5b600080fd5b3461043257604036600319011261043257600435600052603060205260206104656024356040600020612395565b90546040519160031b1c8152f35b3461043257600036600319011261043257602060ff601854166040519015158152f35b34610432576020366003190112610432576104af616a30565b156104f6576104bd33616ab5565b80156104e2575b156104d157600435601955005b600460405163ea8e4eb560e01b8152fd5b50336001600160a01b0360055416146104c4565b6004604051634ee2123760e11b8152fd5b3461043257600036600319011261043257602047604051908152f35b3461043257604036600319011261043257610542602435600435615bf3565b60405190600090825b600783106105585760e084f35b60019082518152602080910192019201919061054b565b602036600319011261043257610583616a30565b156104f65761059133616ab5565b80156105b7575b156104d1576105a5612805565b6105b06004356137b1565b6001601155005b50336001600160a01b036005541614610598565b346104325760203660031901126104325760043560005260306020526020604060002054604051908152f35b6001600160a01b0381160361043257565b346104325760208060031936011261043257610687600435610629816105f7565b6001600160a01b0380600254169060405192168483015283825261064c826120db565b60405190610659826120db565b601182527f69735369676e657228616464726573732900000000000000000000000000000085830152616c99565b9190806106e5575b156106bb5781816106a9926103e394518301019101616a1b565b60405190151581529081906020820190565b60046040517f3204506f000000000000000000000000000000000000000000000000000000008152fd5b508082511461068f565b3461043257600036600319011261043257601f54600881101561072357602181015460408051928352602083019190915290f35b611e65565b3461043257600036600319011261043257610016616355565b3461043257602036600319011261043257600435600052602a6020526020604060002054604051908152f35b346104325760003660031901126104325760206001600160a01b0360005416604051908152f35b34610432576000366003190112610432576020602d54604051908152f35b3461043257600036600319011261043257602060ff60185460081c166040519015158152f35b34610432576060366003190112610432576004356107f5816105f7565b602435610801816105f7565b6001600160a01b038092169081158080156108b9575b6108a15761087757610869916000938454826001600160a01b03198216178655167fe939feee179e631422bcc8f6e6d7d908cb3f8af38f5372f17c77e15aea5c80ee8580a3610864612230565b616b91565b610874604435601b55565b80f35b60046040517fe6c4247b000000000000000000000000000000000000000000000000000000008152fd5b6024604051635258db5f60e01b815260016004820152fd5b5083821615610817565b346104325760003660031901126104325760c060315460ff60325460335490604051938452602084015281811615156040840152818160081c1615156060840152818160101c161515608084015260181c16151560a0820152f35b3461043257600036600319011261043257610016612230565b8015150361043257565b346104325760203660031901126104325760043561095e81610937565b610966616a30565b156104f65761097433616ab5565b8015610995575b156104d15760ff8019601854169115151617601855600080f35b50336001600160a01b03600554161461097b565b3461043257602036600319011261043257600435600052602c602052608060406000208054906001810154906001600160a01b03600360028301549201541691604051938452602084015260408301526060820152f35b3461043257604036600319011261043257610a19616a30565b156104f657610a2733616ab5565b8015610a41575b156104d157600435601455602435601355005b50336001600160a01b036005541614610a2e565b34610432576000366003190112610432576020601e54604051908152f35b6020908160408183019282815285518094520193019160005b828110610a9a575050505090565b835185529381019392810192600101610a8c565b3461043257600036600319011261043257601f546001810190818111610b3b57610ad782615fd8565b91610ae5604051938461212f565b808352610af4601f1991615fd8565b0136602084013760005b81811115610b1457604051806103e38582610a73565b60088110156107235780610b369160210154610b308286616040565b5261245a565b610afe565b612444565b3461043257604036600319011261043257600435600052602e60205260406000206024356000526020526020604060002054604051908152f35b34610432576000366003190112610432576020601c54604051908152f35b6020908160408183019282815285518094520193019160005b828110610bbf575050505090565b9091929382608082610bf26001948951606080918051845260208101516020850152604081015160408501520151910152565b01950193929101610bb1565b3461043257604036600319011261043257600435602435808211610cac57818103908111610b3b57600190818101809111610b3b57610c3c90615ff0565b916000825b610c54575b604051806103e38682610b98565b8351811015610ca75780610c86610c81610c71610ca19486612621565b600052602f602052604060002090565b615fa6565b610c908287616040565b52610c9b8186616040565b5061245a565b82610c41565b610c46565b6024604051635258db5f60e01b8152600d6004820152fd5b34610432576000366003190112610432576020601954604051908152f35b346104325760a036600319011261043257604435602435600435608435610d0881610937565b610d10616a30565b156104f657610d1e33616ab5565b8015610dff575b156104d15760009260009480610d46575b6040805186815260208101889052f35b9091929350601f549483600014610db757506001610d9682610daa96610d84610d7c610d9f96600052602f602052604060002090565b918254612621565b9055600052602f602052604060002090565b01918254612621565b90555b6064356144e7565b601f549038808080610d36565b808260409252602f60205220938454908103908111610b3b57610def610df892600192610daa9755600052602f602052604060002090565b0191825461263d565b9055610da2565b50336001600160a01b036005541614610d25565b346104325760c03660031901126104325760643560a435602435600435604435610e3c84610937565b610e44616a30565b156104f657610e5233616ab5565b801561103c575b156104d157610e7281600052602f602052604060002090565b610e7d838254612621565b90556001610e9582600052602f602052604060002090565b01610ea1848254612621565b905560008052602f6020527fc11d2605466dd88923799a61d7f94d6c8cc580bae52b24870f6853eaa13cc4d654151580611033575b610ee9575b601f54604051908152602090f35b610f6692159485159283611025575b610f55610f46610f106003546001600160a01b031690565b60405190610f3882610f2a89602083019190602083019252565b03601f19810184528361212f565b610f4061432f565b90616c6e565b60208082518301019101614368565b9493929991989095601e549061263d565b60843511918215611018575b508161100f575b50610f87575b505050610edb565b610fed96600396610d9696600090156110065750610fb1610fab610fb79385612751565b916126e0565b906124f3565b975b60009015610ffc5750610fab610fd293610fb192612751565b945b610d846002610d9684600052602f602052604060002090565b90553880808080808080610f7f565b9250505094610fd4565b91505097610fb9565b90501538610f79565b601f541015915038610f72565b61102e826143c8565b610ef8565b50801515610ed6565b50336001600160a01b036005541614610e59565b346104325760203660031901126104325760043561106d816105f7565b611075616a30565b156104f65761108333616ab5565b80156110a7575b156104d1576001600160a01b038116156104d15761001690616b91565b50336001600160a01b03600554161461108a565b346104325760003660031901126104325760206001600160a01b0360015416604051908152f35b34610432576000366003190112610432576020601f54604051908152f35b34610432576000366003190112610432576020601a54604051908152f35b3461043257600036600319011261043257602061118b6001600160a01b036006541660405161114c816120db565b601381527f67657464656c656761746f72436f756e742829000000000000000000000000008482015260405191611182836120f7565b60008352616dcc565b604051908152f35b6040806003193601126104325760049081359160243560ff60185416611560576111bb612805565b6111c3616b3f565b90601c546111d18282612621565b831115611558576111e29250612621565b915b61122161121c6112166111ff6003546001600160a01b031690565b6112076124a2565b906112106124ba565b90616dcc565b856124f3565b602955565b611237602954600052602a602052604060002090565b549361124b6003546001600160a01b031690565b946112656112576124a2565b61125f612513565b88616dcc565b0361153b576103e7600052603060205260016112a37f42e4ed8a28bd93bfb836b3bd3996ada35ff866e155b2ce135e767e31acbdb63f5b5460011690565b1480611506575b6114e9578151602080820183905295906112e3906112d581604081015b03601f19810183528261212f565b6112dd61327a565b83616dcc565b34036114c85761136b91611316611308611366936112ff6124a2565b90610f406132b3565b8880825183010191016132ec565b946001600160a01b03928316949193921690801515806114bf575b6114a3575b5050508015158061149a575b611472575b50505061135e61135934601254612621565b601255565b601354612621565b601355565b61137483612840565b8361139661138a6000546001600160a01b031690565b6001600160a01b031690565b8251938480927f1b4fc17b0000000000000000000000000000000000000000000000000000000082525afa91821561146d577f1517c86fcf2bfb8e3468afcc539b0004955da8027797c497ea51d1f1094ab89894600093611438575b5050513381526001600160a01b0390911660208201526000604082015234606082015260808101919091526103e860a08201528060c081015b0390a16100166001601155565b61142b929350908161145e92903d10611466575b611456818361212f565b810190612692565b9190386113f2565b503d61144c565b61332c565b61149292610fb161148661148c9334612751565b916126f1565b90616c0e565b388080611347565b50811515611342565b6114b792610fb161148661148c9334612751565b388080611336565b50811515611331565b825163cdab4c8760e01b8152600981860190815281906020010390fd5b0390fd5b8151635258db5f60e01b8152600681850190815281906020010390fd5b50601b54825160208101919091526115339061152581604081016112c7565b61152d612469565b87616d47565b3115156112aa565b815163cdab4c8760e01b8152600581850190815281906020010390fd5b5050916111e4565b50600a6024925191635258db5f60e01b8352820152fd5b60c03660031901126104325760048035611590816105f7565b6064359060443560a4356084356115a5616a30565b15611b6c576115b333616ab5565b8015611b58575b15611aca5760ff60185416611b40576115d1612805565b6103e7600052603060205260016116077f42e4ed8a28bd93bfb836b3bd3996ada35ff866e155b2ce135e767e31acbdb63f61129c565b1480611af8575b611ada5761162261161e85616ab5565b1590565b611aca5760039361164361121c6112166111ff88546001600160a01b031690565b60295461165a81600052602a602052604060002090565b5486546001600160a01b0316906116806116726124a2565b61167a612513565b84616dcc565b1190811591611a86575b50611a68576116a390600052602a602052604060002090565b8054600101905560018214958615611a61576116eb6116c987546001600160a01b031690565b604051906116e382610f2a8a602083019190602083019252565b6112106125be565b965b611a0e575b50601a54156119f7575b601a546117089061245a565b601a55611713612151565b948686526020918583880152846040880152606087019660008852601a5461174590600052602c602052604060002090565b9061174f9161264a565b60015460405163c85700fb60e01b858201526001600160a01b03909116602480830191909152356044820152606481018790526084810189905260a4808201879052815261179e60c48261212f565b6117a791616e90565b828082518301019101906117ba91612692565b6001600160a01b0316808752156119d9578697506119676118e26118dd6119556118ed8a9b610fb16118e86118ce6119bb9b9a7f1517c86fcf2bfb8e3468afcc539b0004955da8027797c497ea51d1f1094ab8989f8f61197e9c6118a361189e6118966118b09461186b6118386118c198516001600160a01b031690565b8661184f601a54600052602c602052604060002090565b01906001600160a01b03166001600160a01b0319825416179055565b61189061187f86546001600160a01b031690565b6118876124a2565b906112106126a7565b90612751565b601554612621565b601555565b546001600160a01b031690565b6118b86124a2565b90610f40612764565b805181018201910161279d565b9c9491959b9293989050612751565b612751565b93612751565b612707565b9161191f611907602d54600052602e602052604060002090565b611911838c612621565b600052602052604060002090565b61192a8482546127d0565b905561191184611950611949602d54600052602e602052604060002090565b938c612621565b612621565b6119608282546127ec565b9055612751565b9661197185612840565b516001600160a01b031690565b604080513381526001600160a01b03909216602083015281019490945260608401879052608084019290925260a0830191909152819060c0820190565b0390a16119c86001601155565b604080519182526020820192909252f35b604051635258db5f60e01b81526002818a0190815281906020010390fd5b611a0083601c55565b611a0983601d55565b6116fc565b6019549087611a1d8383612621565b10611a435787611a33611a3d93611a3893612621565b61263d565b601955565b386116f2565b604051635258db5f60e01b81526005818b0190815281906020010390fd5b80966116ed565b60405163cdab4c8760e01b81526001818a0190815281906020010390fd5b9050611a9b611a936124a2565b6112dd61254c565b8610908115611aac575b503861168a565b611ac29150611ab96124a2565b90611210612585565b851138611aa5565b8560405163ea8e4eb560e01b8152fd5b604051635258db5f60e01b8152600b81880190815281906020010390fd5b50611b38610f2a611b1088546001600160a01b031690565b611b2a601b54604051938491602083019190602083019252565b611b32612469565b90616d47565b31151561160e565b602486600a60405191635258db5f60e01b8352820152fd5b50336001600160a01b0360055416146115ba565b85604051634ee2123760e11b8152fd5b34610432576000366003190112610432576020601d54604051908152f35b34610432576020366003190112610432576020611bc1600435611bbc816105f7565b616ab5565b6040519015158152f35b34610432576000366003190112610432576020601b54604051908152f35b3461043257602036600319011261043257600435611c05616a30565b156104f6576001600160a01b036005541633036104d15760009060046020611c3761138a85546001600160a01b031690565b604051928380927f46f991ac0000000000000000000000000000000000000000000000000000000082525afa801561146d5783808481949382948391611cd9575b505af1611c83616bde565b50156106bb577fcdcc745fe377b103b45fa0cec23ae3ef93d6fc6a84a01f0d18c40b354dd1d5d8611cd3611cc261138a600b546001600160a01b031690565b604051938452929081906020820190565b0390a280f35b611cf1915060203d811161146657611456818361212f565b38611c78565b34610432576000366003190112610432576020602954604051908152f35b34610432576020366003190112610432576020611d3c600435611d37816105f7565b616f43565b6001600160a01b0360405191168152f35b3461043257604036600319011261043257602435611d6a81610937565b611d72616a30565b156104f657611d8033616ab5565b8015611e34575b156104d157611d94616b3f565b906000916004358352603060205260408320805492831590811591611e2c575b81611e0c575b50611dc3578380f35b68010000000000000000831015611e075782611de7916001611e0095018155612395565b90919082549060031b91821b91600019901b1916179055565b3880808380f35b612070565b159050611e235760ff845b16600184161438611dba565b60ff6001611e17565b905080611db4565b50336001600160a01b036005541614611d87565b346104325760003660031901126104325760208054604051908152f35b634e487b7160e01b600052603260045260246000fd5b60088110156107235760210190600090565b346104325760203660031901126104325760043560088110156104325760209060210154604051908152f35b3461043257602036600319011261043257611ed2615f81565b50600435600052602f60205260806040600020600360405191611ef483612086565b80548352600181015460208401526002810154604084015201546060820152611f3e6040518092606080918051845260208101516020850152604081015160408501520151910152565bf35b3461043257602036600319011261043257600435611f5d81610937565b611f65616a30565b156104f657611f7333616ab5565b8015611fa6575b156104d15715611f9457611f8f60205461245a565b602055005b6020548015610b3b5760001901602055005b50336001600160a01b036005541614611f7a565b34610432576020366003190112610432576020611bc1600435611fdc816105f7565b6001600160a01b03806006541690604051921684830152838252611fff826120db565b6040519061200c826120db565b601882527f697364656c656761746f724e6f6465286164647265737329000000000000000085830152616d90565b34610432576000366003190112610432576020611bc1616a30565b3461043257600036600319011261043257602061118b616b3f565b634e487b7160e01b600052604160045260246000fd5b6080810190811067ffffffffffffffff821117611e0757604052565b6060810190811067ffffffffffffffff821117611e0757604052565b610120810190811067ffffffffffffffff821117611e0757604052565b6040810190811067ffffffffffffffff821117611e0757604052565b6020810190811067ffffffffffffffff821117611e0757604052565b60e0810190811067ffffffffffffffff821117611e0757604052565b90601f8019910116810190811067ffffffffffffffff821117611e0757604052565b6040519061215e82612086565b565b604051906102c0820182811067ffffffffffffffff821117611e0757604052565b604051906101e0820182811067ffffffffffffffff821117611e0757604052565b6040519061215e82612113565b67ffffffffffffffff8111611e0757601f01601f191660200190565b604051906121d8826120f7565b60008252565b91908260c091031261043257815191602081015191604082015161220181610937565b91606081015161221081610937565b9160a0608083015161222181610937565b92015161222d81610937565b90565b612238616355565b6122946001600160a01b036003541660405190612254826120f7565b6000825260405190612265826120db565b600982527f63617070696e67282900000000000000000000000000000000000000000000006020830152616c6e565b8051156123375761231b61233261230261232d6122e76122c08660208061215e995183010191016121de565b9994999792959091939763ff00000060335491151560181b169063ff000000191617603355565b62ff000060335491151560101b169062ff0000191617603355565b61ff0060335491151560081b169061ff00191617603355565b60ff8019603354169115151617603355565b603255565b603155565b60646040517f08c379a000000000000000000000000000000000000000000000000000000000815260206004820152601460248201527f43617070696e67206665746368206661696c65640000000000000000000000006044820152fd5b80548210156107235760005260206000200190600090565b6103e760005260306020527f42e4ed8a28bd93bfb836b3bd3996ada35ff866e155b2ce135e767e31acbdb63f80549283158015919061243c575b8161241b575b506123f757505050565b68010000000000000000831015611e075782611de791600161215e95018155612395565b1590506124335760ff60005b166001841614386123ed565b60ff6001612427565b9050806123e7565b634e487b7160e01b600052601160045260246000fd5b6000198114610b3b5760010190565b60405190612476826120db565b601882527f676574557365724964546f496e73742875696e743235362900000000000000006020830152565b6040516124ae816120f7565b60008152906000368137565b604051906124c7826120db565b600f82527f6d696e744379636c6544617973282900000000000000000000000000000000006020830152565b81156124fd570490565b634e487b7160e01b600052601260045260246000fd5b60405190612520826120db565b601282527f6d61784d696e74735065724379636c65282900000000000000000000000000006020830152565b60405190612559826120db565b600c82527f6d696e4d696e74517479282900000000000000000000000000000000000000006020830152565b60405190612592826120db565b600c82527f6d61784d696e74517479282900000000000000000000000000000000000000006020830152565b604051906125cb826120db565b601982527f636f6d707574654d696e7456616c75652875696e7432353629000000000000006020830152565b6046019081604611610b3b57565b90601e8201809211610b3b57565b9060018201809211610b3b57565b91908201809211610b3b57565b600019810191908211610b3b57565b91908203918211610b3b57565b60036001600160a01b03606061215e948051855560208101516001860155604081015160028601550151169101906001600160a01b03166001600160a01b0319825416179055565b90816020910312610432575161222d816105f7565b604051906126b4826120db565b600f82527f6d696e74466565506572517479282900000000000000000000000000000000006020830152565b9081606402916064830403610b3b57565b90606482029180830460641490151715610b3b57565b9061271091828102928184041490151715610b3b57565b90601982029180830460191490151715610b3b57565b90670de0b6b3a764000091828102928184041490151715610b3b57565b81810292918115918404141715610b3b57565b60405190612771826120db565b600682527f706f6f6c282900000000000000000000000000000000000000000000000000006020830152565b908160e09103126104325780519160208201519160408101519160608201519160808101519160c060a083015192015190565b91909160008382019384129112908015821691151617610b3b57565b81810392916000138015828513169184121617610b3b57565b600260115414612816576002601155565b60046040517f3ee5aeb5000000000000000000000000000000000000000000000000000000008152fd5b6000808052602f60205261215e916128896128807fc11d2605466dd88923799a61d7f94d6c8cc580bae52b24870f6853eaa13cc4d65b5460125490612621565b60315490612751565b612891615b40565b505060335460ff8116612acc575b60ff8160081c16612a27575b60ff8160101c1661297d575b60181c60ff16612904575b6128e56128e06128d760155460135490612621565b60325490612751565b612734565b9060145493119283156128fa575b50506123ad565b11915038806128f3565b6004600052602b60205291612977906129716129516001600080516020616fa58339815191525b01546004600052602b6020526002600080516020616fa58339815191525b015490612621565b6004600052602b6020526003600080516020616fa5833981519152612949565b90612621565b916128c2565b6003600052602b6020529260ff90612a1f906129716129ed60017fd3904653c5d0f9b122879aa13f7287465a10522aedd588dbbd607cf6f8b2147f5b01546003600052602b60205260027fd3904653c5d0f9b122879aa13f7287465a10522aedd588dbbd607cf6f8b2147f612949565b60036000819052602b6020527fd3904653c5d0f9b122879aa13f7287465a10522aedd588dbbd607cf6f8b2147f612949565b9390506128b7565b6002600052602b60205292612ac690612971612a9460017fbd6c10e6ce287735500a1c033be76c57d5e632addc2ff6eff6bb587b8ee0d95c5b015460026000819052602b6020527fbd6c10e6ce287735500a1c033be76c57d5e632addc2ff6eff6bb587b8ee0d95c612949565b6002600052602b60205260037fbd6c10e6ce287735500a1c033be76c57d5e632addc2ff6eff6bb587b8ee0d95c612949565b926128ab565b9250612b51612b1f6001612aeb6001600052602b602052604060002090565b01546001600052602b60205260027ffcc3d43705633578a5e8f1b6d6f38d08eb8cb891174edcc94b1a54972a1aebbd612949565b6001600052602b60205260037ffcc3d43705633578a5e8f1b6d6f38d08eb8cb891174edcc94b1a54972a1aebbd612949565b9261289f565b60405190612b6482612113565b60e0368337565b60405190612b78826120db565b601082527f65616368636c61696d4379636c652829000000000000000000000000000000006020830152565b60405190612bb1826120db565b601082527f6d6178436c61696d5065724461792829000000000000000000000000000000006020830152565b60405190612bea826120db565b601082527f6d696e436c61696d5065724461792829000000000000000000000000000000006020830152565b60405190612c23826120db565b601682527f6d6178476c6f62616c436c61696d5065724461792829000000000000000000006020830152565b60405190612c5c826120db565b601582527f67657477697468647261776e2875696e743235362900000000000000000000006020830152565b9060098110156107235760051b0190565b60405190612ca6826120db565b601d82527f636f6d707574654f7a6f6e65546f446f6c6c61722875696e74323536290000006020830152565b90816020910312610432575190565b919290928281156132725750601c5493612cfb8186612621565b82111561326557612d19612d1160329287612621565b955b8661263d565b1161325f57600393612d52612d49612d3887546001600160a01b031690565b612d406124a2565b90611210612b6b565b601d5490612621565b821015612d61575b5050909150565b612d74612d6d8261463d565b80926123ad565b84546001600160a01b031690612d93612d8b6124a2565b61167a612ba4565b6001600052602b60205295612ee8612eb7612e86612e55612e24612df3867ffcc3d43705633578a5e8f1b6d6f38d08eb8cb891174edcc94b1a54972a1aebbd01546004600052602b60205287600080516020616fa5833981519152612949565b6002600052602b602052867fbd6c10e6ce287735500a1c033be76c57d5e632addc2ff6eff6bb587b8ee0d95c612949565b6003600052602b602052857fd3904653c5d0f9b122879aa13f7287465a10522aedd588dbbd607cf6f8b2147f612949565b6005600052602b602052847f4b5b933abde5416303ae4347d7fcdf5a17e8022e0fefc2b31c7609ebd3c32fe9612949565b6006600052602b602052837f5ac1f6ea00ad8b0f699e3a293cc93d6fdaf7ee608fbc40ffef54db3fb7ebb943612949565b6007600052602b602052827f455b6dea826802a5b6200d61a7810fccbd36f05c878743e3ac0e0e7aff3a46e8612949565b92612efc612ef46124a2565b6112dd612bdd565b8410801590613258575b612f13575b505050612d5a565b612f2890612f1f6124a2565b90611210612c16565b92612f3b6004546001600160a01b031690565b97604094612f73865180612f578a602083019190602083019252565b039b612f6b601f199d8e810184528361212f565b611210612c4f565b1015613241576000918181111561323a57612f8e925061263d565b91600092600180915b600783111561308e575050509661304c92613051949261305697989960165460e08c0152601754806101008d015281613084575b5061306c575b612fdb6000601655565b612fe56000601755565b6000821561306257509261302d613035936130219361300e61304497546001600160a01b031690565b9351948591602083019190602083019252565b0390810184528361212f565b610f40612c99565b60208082518301019101612cd2565b601454612621565b601455565b601d55565b81903880808080612f0b565b9350505050613044565b61307f61307a602d5461245a565b602d55565b612fd1565b9050151538612fcb565b909194846130a687600052602b602052604060002090565b0154826131a55761319e9161311f91856130ca8a600052602b602052604060002090565b016130d6828254612621565b90556000886130ef8b600052602b602052604060002090565b01556131048d6130fe8b61262e565b90612c88565b525b6131186131128961262e565b8d612c88565b5190612621565b957f1517c86fcf2bfb8e3468afcc539b0004955da8027797c497ea51d1f1094ab8988961314f8d6130fe8561262e565b5161319661315c856125f7565b8c5193849333859094939260a0926001600160a01b0360c08401971683526000602084015260006040840152606083015260808201520152565b0390a161245a565b9190612f97565b91808311156132195761319e916131ec6131c261311f938661263d565b8095876131d98c600052602b602052604060002090565b016131e5838254612621565b905561263d565b876132018a600052602b602052604060002090565b01556000936132138d6130fe8b61262e565b52613106565b61322a61319e929361311f9261263d565b9260006132138d6130fe8b61262e565b5050612f8e565b845163cdab4c8760e01b8152600480820152602490fd5b5082612f06565b50915090565b506032612d198295612d13565b925050915090565b60405190613287826120db565b601d82527f636f6d70757465446f6c6c6172546f4f7a6f6e652875696e74323536290000006020830152565b604051906132c0826120db565b600a82527f6275726e636e66672829000000000000000000000000000000000000000000006020830152565b91908260c0910312610432578151613303816105f7565b91602081015191604082015191606081015161331e816105f7565b9160a0608083015192015190565b6040513d6000823e3d90fd5b60405190613345826120db565b601382527f55736572546f496e7374286164647265737329000000000000000000000000006020830152565b6040519061337e826120db565b600b82527f6d696e74436f756e7428290000000000000000000000000000000000000000006020830152565b604051906133b7826120db565b600e82527f6d696e74732875696e74323536290000000000000000000000000000000000006020830152565b604051906133f0826120db565b600b82527f6d696e74656441676528290000000000000000000000000000000000000000006020830152565b60405190613429826120db565b600b82527f6d696e74656471747928290000000000000000000000000000000000000000006020830152565b60405190613462826120db565b600c82527f6964732875696e743235362900000000000000000000000000000000000000006020830152565b6040519061349b826120db565b600982527f6d696e74416d74282900000000000000000000000000000000000000000000006020830152565b604051906134d4826120db565b600a82527f647261776e6167652829000000000000000000000000000000000000000000006020830152565b6040519061350d826120db565b600c82527f4c53422875696e743235362900000000000000000000000000000000000000006020830152565b60405190613546826120db565b600782527f647261776e2829000000000000000000000000000000000000000000000000006020830152565b91908260c09103126104325781519160208101519160408201519160608101519160a0608083015192015190565b604051906135ad826120db565b601382527f67657452657761726473286164647265737329000000000000000000000000006020830152565b9190826040910312610432576020825192015190565b604051906135fc826120db565b600782527f626f6e75732829000000000000000000000000000000000000000000000000006020830152565b60405190613635826120db565b600682527f63616765282900000000000000000000000000000000000000000000000000006020830152565b6040519061366e826120db565b601982527f67657445666665637469766552616e6b286164647265737329000000000000006020830152565b604051906136a7826120db565b601882527f6765744e6f64654c766c446570746828616464726573732900000000000000006020830152565b604051906136e0826120db565b601e82527f6765746e6f6465526e6b41676528616464726573732c75696e743235362900006020830152565b60405190613719826120db565b601082527f6765744e6f6465286164647265737329000000000000000000000000000000006020830152565b908160a0910312610432578051916020820151613761816105f7565b916040810151916080606083015161222181610937565b60405190613785826120db565b601a82527f77697468647261776e496e636f6d654f662861646472657373290000000000006020830152565b60185460081c60ff1661432c5760049060206137d861138a6000546001600160a01b031690565b604051938480927f447aa3040000000000000000000000000000000000000000000000000000000082525afa91821561146d5760009261430b575b5061385a6112c761384c61382f6001546001600160a01b031690565b604080516001600160a01b03909216602083015290928391820190565b613854613338565b84616d47565b906001600160a01b038216156142e757600581116142ce5761388561387d6124a2565b61167a613371565b90601a546138938183612621565b8311156142c6576138a391612621565b81613e04575b5080601a5414908115613dfb575b506138c0575050565b6138db6138d66138ce6124a2565b61167a6134c7565b601e55565b601e54601c548111613d99575b506139146139056138f76124a2565b6138ff613539565b84616c6e565b60208082518301019101613572565b9460016139329592959493946001600052602b602052604060002090565b01557fbd6c10e6ce287735500a1c033be76c57d5e632addc2ff6eff6bb587b8ee0d95d557fd3904653c5d0f9b122879aa13f7287465a10522aedd588dbbd607cf6f8b21480557f8bd115fc6ec81ad72d5ca8a8b3bd3d0177f1b615af6ad35644a4e24a7bed08bd557f5ac1f6ea00ad8b0f699e3a293cc93d6fdaf7ee608fbc40ffef54db3fb7ebb944557f455b6dea826802a5b6200d61a7810fccbd36f05c878743e3ac0e0e7aff3a46e95560008052602f6020527fc11d2605466dd88923799a61d7f94d6c8cc580bae52b24870f6853eaa13cc4d754613a169061189e9061271e565b613a5d613a4e604051613a40816112c786602083019190916001600160a01b036020820193169052565b613a486135a0565b85616c6e565b602080825183010191016135d9565b602b6020527ffcc3d43705633578a5e8f1b6d6f38d08eb8cb891174edcc94b1a54972a1aebbd919091556004600052600080516020616fa583398151915255613ab2611a38613aaa6124a2565b61167a6135ef565b613ac86138d6613ac06124a2565b61167a613628565b613b05613b00604051613af2816112c786602083019190916001600160a01b036020820193169052565b613afa613661565b85616dcc565b601f55565b604080516001600160a01b0383166020820152613b3191613b2990829081016112c7565b61167a61369a565b60005b818110613caa575050613b75610f2a613b9b93613b6d613b8494604051938491602083019190916001600160a01b036020820193169052565b610f4061370c565b60208082518301019101613745565b935050505060ff8019601854169115151617601855565b60046020613bb461138a6000546001600160a01b031690565b604051928380927f6325dd040000000000000000000000000000000000000000000000000000000082525afa90811561146d57613c3291610f2a91600091613c8b575b50613c2a613c0d6001546001600160a01b031690565b604080516001600160a01b03909216602083015290938491820190565b611210613778565b6005600052602b6020527f4b5b933abde5416303ae4347d7fcdf5a17e8022e0fefc2b31c7609ebd3c32fea55601c54601d55613c77613c72601c54612605565b612840565b61215e61010061ff00196018541617601855565b613ca4915060203d60201161146657611456818361212f565b38613bf7565b80613cc391613d0c575b601f54811115613cc85761245a565b613b34565b604080516001600160a01b0386166020820152908101829052613d0790613cfe90613cf681606081016112c7565b61125f6136d3565b611de783611e7b565b61245a565b6040517f5329daca0000000000000000000000000000000000000000000000000000000060208201526001600160a01b038516602482015260448101829052613d6690613a4e90613d6081606481016112c7565b87616e90565b90613d7b83600052602f602052604060002090565b556001613d9283600052602f602052604060002090565b0155613cb4565b601c55613dca6112c7613dbc601e54604051928391602083019190602083019252565b613dc4613500565b83616e08565b613df4613de3602d54600052602e602052604060002090565b601c54600052602052604060002090565b55386138e8565b905015386138b7565b60008052602f6020527fc11d2605466dd88923799a61d7f94d6c8cc580bae52b24870f6853eaa13cc4d6547fc11d2605466dd88923799a61d7f94d6c8cc580bae52b24870f6853eaa13cc4d7549395909491929091905b601a548481101561426757613e72613e779161245a565b601a55565b60008052602a6020527f25a1a901705ed15d5376e82511cff743d9474883c82d145cebcc7811e0424a9c613eab815461245a565b9055601a5495613edb604051613ecd816112c78b602083019190602083019252565b613ed56133aa565b8a616d47565b90613eef613ee76124a2565b61167a6133e3565b91613f03613efb6124a2565b6112dd61341c565b91613f28604051613f20816112c760208201906000602083019252565b61167a613455565b90613f4b613f45613f376124a2565b613f3f61348e565b86616dcc565b93616f43565b9a6020613fab613f6661138a6000546001600160a01b031690565b6040519e8f809381927fcfaa1f6c000000000000000000000000000000000000000000000000000000008352600483019190916001600160a01b036020820193169052565b03915afa9b8c1561146d5760009c614246575b50613fcb61161e8d616ab5565b6104d1576140aa92614039866140338761138a9681613ff761409b98600052602c602052604060002090565b55836001614011601a54600052602c602052604060002090565b01558b600261402c601a54600052602c602052604060002090565b0155612621565b9d612621565b9c61409661404f6001546001600160a01b031690565b60405163c85700fb60e01b60208201526001600160a01b0390911660248201526044810193909352606483018890526084830187905260a483018990528260c48101610f2a565b616e90565b60208082518301019101612692565b6001600160a01b0381161561422d577f1517c86fcf2bfb8e3468afcc539b0004955da8027797c497ea51d1f1094ab898936141d7614214926140ff6003918261184f601a54600052602c602052604060002090565b6118e26141a661419e6118dd61191161414d8a610fb16118e861413e61412f6118b08c546001600160a01b031690565b6020808251830101910161279d565b9e9491959b9293989050612751565b94611950614197602d6141798c611911886141738554600052602e602052604060002090565b92612621565b6141848a82546127d0565b905554600052602e602052604060002090565b938a612621565b9182546127ec565b90556001601a541461421f575b6141c9601a54600052602c602052604060002090565b01546001600160a01b031690565b604080513381526001600160a01b03909216602083015281019490945260608401929092526080830191909152600060a0830152819060c0820190565b0390a1949394613e5b565b61422883601c55565b6141b3565b604051635258db5f60e01b815260026004820152602490fd5b614260919c5060203d60201161146657611456818361212f565b9a38613fbe565b5060008052602f6020527fc11d2605466dd88923799a61d7f94d6c8cc580bae52b24870f6853eaa13cc4d6959095557fc11d2605466dd88923799a61d7f94d6c8cc580bae52b24870f6853eaa13cc4d7939093559391929050386138a9565b5050806138a3565b60405163cdab4c8760e01b815260036004820152602490fd5b5050506142f56138d6616b3f565b614300601e54601c55565b613c77601e54601d55565b61432591925060203d60201161146657611456818361212f565b9038613813565b50565b6040519061433c826120db565b601482527f6c6576656c436c617573652875696e74323536290000000000000000000000006020830152565b908160a0910312610432578051916020820151916040810151916080606083015192015190565b6040519061439c826120db565b601382527f72616e6b436c617573652875696e7432353629000000000000000000000000006020830152565b90601f6143d58154612613565b925b600884106143e55750509050565b6003546001600160a01b03169360409461442b61441d875160209361441582610f2a888883019190602083019252565b610f4061438f565b828082518301019101614368565b5050509183158015906144df575b806144cf575b6144b75761446594959697505410159081614495575b5080614483575b61446d5761245a565b9291906143d7565b61447681601f55565b613d0783611de783611e7b565b50835461448f8261262e565b1461445c565b905060016144ad83600052602f602052604060002090565b0154101538614455565b8751635258db5f60e01b815260036004820152602490fd5b5081158061443f5750821561443f565b506001614439565b9091906000831561458157506144fe601f54612613565b831561463257600881105b1561462c57600380546001600160a01b03169060409161453f61441d845160209361441582610f2a8a8883019190602083019252565b5050509390928515801590614625575b80614615575b6145e05750509061458193929154101590816145be575b50851561459357806145865761446d5761245a565b6144fe565b50601f5461448f8261262e565b156145a157613d0781601f55565b613d076145ad82611e7b565b8154906000199060031b1b19169055565b905060016145d683600052602f602052604060002090565b015410153861456c565b6114e59250881561460c57905b51635258db5f60e01b815260ff90911660048201529081906024820190565b506004906145ed565b5083158061455557508415614555565b508861454f565b50509050565b601f54811115614509565b6102a061222d916149cc61465082614b19565b916149c76149c2845160039061467582610d966001600052602b602052604060002090565b905560608601516004600052602b60205261469e82600080516020616fa5833981519152610d96565b90556020868101516002600052602b9091526146da827fbd6c10e6ce287735500a1c033be76c57d5e632addc2ff6eff6bb587b8ee0d95c610d96565b90556040860180516003600052602b602052909190614719827fd3904653c5d0f9b122879aa13f7287465a10522aedd588dbbd607cf6f8b2147f610d96565b905560808701516005600052602b602052614754827f4b5b933abde5416303ae4347d7fcdf5a17e8022e0fefc2b31c7609ebd3c32fe9610d96565b905560a08701516006600052602b60205261478f827f5ac1f6ea00ad8b0f699e3a293cc93d6fdaf7ee608fbc40ffef54db3fb7ebb943610d96565b905560c08701516007600052602b602052906147cb907f455b6dea826802a5b6200d61a7810fccbd36f05c878743e3ac0e0e7aff3a46e8610d96565b905560e08601516001600052602b6020526002916149b9916149b49190614812857ffcc3d43705633578a5e8f1b6d6f38d08eb8cb891174edcc94b1a54972a1aebbd610d96565b90556101408901516004600052602b60205261483c85600080516020616fa5833981519152610d96565b90556101008901516002600052602b602052614878857fbd6c10e6ce287735500a1c033be76c57d5e632addc2ff6eff6bb587b8ee0d95c610d96565b9055610120890180516003600052602b6020529094906148b8827fd3904653c5d0f9b122879aa13f7287465a10522aedd588dbbd607cf6f8b2147f610d96565b90556101608a01516005600052602b6020526148f4827f4b5b933abde5416303ae4347d7fcdf5a17e8022e0fefc2b31c7609ebd3c32fe9610d96565b90556101808a01516006600052602b602052614930827f5ac1f6ea00ad8b0f699e3a293cc93d6fdaf7ee608fbc40ffef54db3fb7ebb943610d96565b90556101a08a01516007600052602b6020529061496d907f455b6dea826802a5b6200d61a7810fccbd36f05c878743e3ac0e0e7aff3a46e8610d96565b90556101c08901516149a96149a189614992602d54600052602e602052604060002090565b90600052602052604060002090565b9182546127d0565b905551601654612621565b601655565b51601754612621565b601755565b601c55565b0151151590565b6149db612160565b9060008083528060208401528060408401528060608401528060808401528060a08401528060c08401528060e08401528061010084015280610120840152806101408401528061016084015280610180840152806101a0840152806101c0840152806101e084015280610200840152806102208401528061024084015280610260840152806102808401526102a0830152565b60405190614a7b826120db565b600a82527f73687574646f776e2829000000000000000000000000000000000000000000006020830152565b60405190614ab4826120db565b601182527f696e636f6d654f662861646472657373290000000000000000000000000000006020830152565b60405190614aed826120db565b601482527f636f6d70757465546f75722875696e74323536290000000000000000000000006020830152565b90614b226149d3565b9160039083614b3883546001600160a01b031690565b92614b53614b44614a6e565b614b4c6121cb565b9086616d90565b90614b5c615b40565b94909160608501958652828552614c5984600193614bfe614bbf86614b8c6001600052602b602052604060002090565b01546001600052602b602052867ffcc3d43705633578a5e8f1b6d6f38d08eb8cb891174edcc94b1a54972a1aebbd612949565b6001600052602b60205260029790614bf890897ffcc3d43705633578a5e8f1b6d6f38d08eb8cb891174edcc94b1a54972a1aebbd612949565b9061263d565b885288516004600052602b602052600080516020616fa583398151915280870154614c529291614bf891614c33918990612949565b6004600052602b60205289600080516020616fa5833981519152612949565b895261551a565b93909260208a99939901986101c06101008c019b01528952875260001461531e575050614c94610f2a611b106004546001600160a01b031690565b3160408a01525b6009546001600160a01b031692614cf8614cdc614cbf85546001600160a01b031690565b604080516001600160a01b03909216602083015290918291820190565b0395614cf0601f199788810184528361212f565b611210614aa7565b6005600052602b60205291614d8f614d5e857f4b5b933abde5416303ae4347d7fcdf5a17e8022e0fefc2b31c7609ebd3c32fe901546005600052602b602052847f4b5b933abde5416303ae4347d7fcdf5a17e8022e0fefc2b31c7609ebd3c32fe9612949565b6005600052602b602052827f4b5b933abde5416303ae4347d7fcdf5a17e8022e0fefc2b31c7609ebd3c32fe9612949565b60808c01818152938181111561531057614dac915084519061263d565b83526004601f548381101580615299575b61525c575b101591826151e4575b50506151a4575b6005600052603060205281614e067f9d0b70a39d4b3569f175af8ea51ae318eac80460c467ee4a16ee63ec5720706e61129c565b14615186575b506006600052603060205280614e417fd558ed0e54509c62efb2aedb46e6ad1b04c7bdca351e3613e136c946b91686d861129c565b14615166575b60076000526030602052614e7a7f4ebb69666752feecd656ebf5f8cd3c2f1c70bb06a0c3d3744be479e4a580c23361129c565b14615146575b86518251614e8d91612621565b9160408801928351614e9e91612621565b8551614ea991612621565b938860e081019788518351614ebd91612621565b94826101208101968751614ed091612621565b986101408201998a51614ee291612621565b614eeb91615942565b919398946101e088999497929901996102008901976102608a01966102208b019b6102408c019b610280019e8f906102a00197614f2a90899015159052565b528a528a5285528652885251614f4c575b505050505050505050505050505050565b614fa292614f9a61302192613035948f614f80614f74611b106004546001600160a01b031690565b0387810184528361212f565b319052519a51604051948591602083019190602083019252565b610f4061327a565b9351905110915190511081809261513d575b60009215615118575050508082101561511157505b965b8951888b816150d5575050614fe1908251612621565b9052600089525b8151876150ae5790614ffe600093928251612621565b9052525b8151856150875790615018600093928251612621565b9052525b8151928061504a57506150326000938251612621565b9052525b388080808080808080808080808080614f3b565b919061507161506a61507a9580861160001461508057805b81865261263d565b8251612621565b9052519061263d565b50615036565b8590615062565b9061507161506a6150a895979493808611600014615080578081865261263d565b9161501c565b9061507161506a6150cf95999493808611600014615080578081865261263d565b93615002565b615103949a5061506a906150f9929493808611600014615109578080925b5261263d565b905289519061263d565b95614fe8565b8580926150f3565b9050614fc9565b15615127575050505b96614fcb565b91925090156151365750615121565b9050615121565b91508091614fb4565b600060c08801805161515e6101a08b01918251612621565b905252614e80565b600060a08901805161517e6101808c01918251612621565b905252614e47565b806000915161519b6101608c01918251612621565b90525238614e0c565b6151da6040516151cc816151c060208201906004602083019252565b0386810183528261212f565b6151d4614ae0565b89616dcc565b60c08a0152614dd2565b6007600052602b6020527f455b6dea826802a5b6200d61a7810fccbd36f05c878743e3ac0e0e7aff3a46e8808601546152549450615223929091612949565b6007600052602b602052907f455b6dea826802a5b6200d61a7810fccbd36f05c878743e3ac0e0e7aff3a46e8612949565b153880614dcb565b8c60a06152918d604051906152898261527d60208201906002602083019252565b038d810184528361212f565b611210614ae0565b910152614dc2565b506006600052602b6020527f5ac1f6ea00ad8b0f699e3a293cc93d6fdaf7ee608fbc40ffef54db3fb7ebb9438087015461530a916152d991908790612949565b6006600052602b602052847f5ac1f6ea00ad8b0f699e3a293cc93d6fdaf7ee608fbc40ffef54db3fb7ebb943612949565b15614dbd565b6153199161263d565b614dac565b60408b01526101208a0152614c9b565b604051906040820182811067ffffffffffffffff821117611e075760405260006020838281520152565b60405190615365826120a2565b8161536e61532e565b815261537861532e565b6020820152604061538761532e565b910152565b60405190615399826120db565b601882527f6765744261746368526f79616c7479436c6175736573282900000000000000006020830152565b6102a09081818403126104325782601f820112156104325760408051936153eb85612113565b849383019281841161043257935b83851061540857505050505090565b606085830312610432578251606091615420826120a2565b86518252602091828801518382015285880151868201528152019401936153f9565b6040519061544f826120db565b601f82527f676574526f79616c697479416d6f756e7442617463682875696e7432353629006020830152565b9060e0828203126104325780601f83011215610432576040519161549e83612113565b829060e0810192831161043257905b8282106154ba5750505090565b81518152602091820191016154ad565b9060078110156107235760051b0190565b8181029291600082127f8000000000000000000000000000000000000000000000000000000000000000821416610b3b578184051490151715610b3b57565b91600092600092600092600092600092615532615358565b61553b83615856565b82519060208201525261554d836158cc565b60208301519060208201525261556283615907565b6040830151906020820152526155ab61559c6155866003546001600160a01b031690565b61558e61538c565b6155966121cb565b91616c6e565b602080825183010191016153c5565b92601c54926155c26004546001600160a01b031690565b93601f54905b8381106155d85750505050505050565b6156146156056040516155f7816112c786602083019190602083019252565b6155ff615442565b89616c6e565b6020808251830101910161547b565b6001905b838211156157375750508215615637575b6156329061245a565b6155c8565b61565c61565482614992602d54600052602e602052604060002090565b54809c6127d0565b9a615667828661263d565b90600091604088015180518881106156e1575b50508083116156d9575b8261568e9161263d565b91806156c3575b50816156a3575b5050615629565b9a6156b56156bb92615632949d6154db565b906127d0565b99903861569c565b9a6156b5829c6156d2936154db565b9938615695565b915081615684565b8086111561572e5750602085915b016156fa8151612613565b89101561571f5750875b8181111561567a5761571792945061263d565b91388061567a565b6157299051612613565b615704565b602090916156ef565b909c61574b6157458f61262e565b8a6154ca565b51511580156157f6575b6157ec578651805184101590816157dd575b5080156157b6575b1561579a5761578e615794918f6157886131189161262e565b856154ca565b9d61245a565b90615618565b9c9d6157b08f916131186157886157949461262e565b9e61245a565b506020870151805184101590816157ce575b5061576f565b602091500151831115386157c8565b60209150015183111538615767565b9c6157949061245a565b508d61580e61580482611e7b565b90549060031b1c90565b841015908161581f575b5015615755565b61584d9150604061584461583e61583861580485611e7b565b9361262e565b8d6154ca565b51015190612621565b8311158e615818565b906103e76000526030602052604060002080549081156158c65760018216159384156158bd5760ff60025b168303838111610b3b576158959083612395565b90549060031b1c946000146158b757506158b16158049261262e565b90612395565b91505090565b60ff6001615881565b50508190565b9060026000526030602052604060002080549081156158c65760018216159384156158bd576001198301838111610b3b576158959083612395565b9060036000526030602052604060002080549081156158c65760018216159384156158bd576001198301838111610b3b576158959083612395565b6000808052602f60205290929091906159ce6159806128807fc11d2605466dd88923799a61d7f94d6c8cc580bae52b24870f6853eaa13cc4d6612876565b93615989615b40565b505060335460ff8116615b1b575b60ff8160081c16615ad8575b60ff8160101c16615a90575b60181c60ff16615a61575b84811115615a5857612971855b9487612621565b9081946159e66128e06128d760155460135490612621565b9185615a38601454858111600014615a5257855b9460008115615a4a5750613035610f2a6129719261302d615a236003546001600160a01b031690565b91604051938491602083019190602083019252565b94118015615a435790565b5082841190565b905090612621565b806159fa565b612971816159c7565b6004600052602b602052615a8b906129716129516001600080516020616fa583398151915261292b565b6159ba565b6003600052602b6020529060ff90615ad0906129716129ed60017fd3904653c5d0f9b122879aa13f7287465a10522aedd588dbbd607cf6f8b2147f6129b9565b9190506159af565b6002600052602b60205290615b1590612971612a9460017fbd6c10e6ce287735500a1c033be76c57d5e632addc2ff6eff6bb587b8ee0d95c612a60565b906159a3565b9050615b3a612b1f6001612aeb6001600052602b602052604060002090565b90615997565b600090816001815b600f821115615bad5750506001600052602b6020527ffcc3d43705633578a5e8f1b6d6f38d08eb8cb891174edcc94b1a54972a1aebbd548101809111610b3b576004600052602b6020529161222d90600080516020616fa58339815191525490612621565b9093848252602f92602093808552604090600282862001548301809311610b3b576003929588865252832001548101809111610b3b57615bed909461245a565b90615b48565b9190615bfd612b57565b92600191828214615f74576002808314615e4b57506003808314615e4b575060048214615ddf5760058214615d9d57615c5c90615c38616b3f565b90601c54615c468282612621565b831115615d9657615c579250612621565b614b19565b9060068114615d465760078114615ced57600814615c78575050565b6102809192935060ff615c896121a2565b936101e08301518552610200830151602086015261022083015160408601526102408301516060860152615cc16102a0840151151590565b60009015615ce657505b16608084015261026081015160a0840152015160c082015290565b9050615ccb565b50919250506101a0615cfd6121a2565b9160e08101518352610100810151602084015261012081015160408401526101408101516060840152610160810151608084015261018081015160a0840152015160c082015290565b509192505060c0615d556121a2565b91805183526020810151602084015260408101516040840152606081015160608401526080810151608084015260a081015160a0840152015160c082015290565b5050614b19565b5050509050615daa6121a2565b601254815260135460208201526015546040820152601454606082015260006080820152600060a0820152600060c082015290565b5050509050615dec6121a2565b60165481526017546020820152615e0e6001600052602b602052604060002090565b5460408201526004600052602b602052600080516020616fa583398151915254606082015260006080820152600060a0820152600060c082015290565b939450505050615e596121a2565b7ffcc3d43705633578a5e8f1b6d6f38d08eb8cb891174edcc94b1a54972a1aebbd82015481527fbd6c10e6ce287735500a1c033be76c57d5e632addc2ff6eff6bb587b8ee0d95c8201546020808301919091527fd3904653c5d0f9b122879aa13f7287465a10522aedd588dbbd607cf6f8b2147f8301546040830152600080516020616fa583398151915283015460608301527f4b5b933abde5416303ae4347d7fcdf5a17e8022e0fefc2b31c7609ebd3c32fe983015460808301527f5ac1f6ea00ad8b0f699e3a293cc93d6fdaf7ee608fbc40ffef54db3fb7ebb94383015460a08301526007600052602b90527f455b6dea826802a5b6200d61a7810fccbd36f05c878743e3ac0e0e7aff3a46e89091015460c082015290565b5050909150615e596121a2565b60405190615f8e82612086565b60006060838281528260208201528260408201520152565b90604051615fb381612086565b6060600382948054845260018101546020850152600281015460408501520154910152565b67ffffffffffffffff8111611e075760051b60200190565b90615ffa82615fd8565b616007604051918261212f565b8281528092616018601f1991615fd8565b019060005b82811061602957505050565b602090616034615f81565b8282850101520161601d565b80518210156107235760209160051b010190565b6163396101c061215e9261608e61607282516001600160a01b031690565b6001600160a01b03166001600160a01b03196002541617600255565b6160c16160a560208301516001600160a01b031690565b6001600160a01b03166001600160a01b03196003541617600355565b6160f46160d860408301516001600160a01b031690565b6001600160a01b03166001600160a01b03196004541617600455565b61612761610b60608301516001600160a01b031690565b6001600160a01b03166001600160a01b03196005541617600555565b61615a61613e60808301516001600160a01b031690565b6001600160a01b03166001600160a01b03196006541617600655565b61618d61617160a08301516001600160a01b031690565b6001600160a01b03166001600160a01b03196007541617600755565b6161c06161a460c08301516001600160a01b031690565b6001600160a01b03166001600160a01b03196008541617600855565b6161f36161d760e08301516001600160a01b031690565b6001600160a01b03166001600160a01b03196009541617600955565b61622761620b6101008301516001600160a01b031690565b6001600160a01b03166001600160a01b0319600a541617600a55565b61625b61623f6101208301516001600160a01b031690565b6001600160a01b03166001600160a01b0319600b541617600b55565b61628f6162736101408301516001600160a01b031690565b6001600160a01b03166001600160a01b0319600c541617600c55565b6162c36162a76101608301516001600160a01b031690565b6001600160a01b03166001600160a01b0319600d541617600d55565b6162f76162db6101808301516001600160a01b031690565b6001600160a01b03166001600160a01b0319600e541617600e55565b61632b61630f6101a08301516001600160a01b031690565b6001600160a01b03166001600160a01b0319600f541617600f55565b01516001600160a01b031690565b6001600160a01b03166001600160a01b03196010541617601055565b61636a61138a6000546001600160a01b031690565b604051907f97f3815a000000000000000000000000000000000000000000000000000000008252602082600481845afa91821561146d576000926169fa575b50604051917fcfbffe53000000000000000000000000000000000000000000000000000000008352602083600481855afa92831561146d576000936169d9575b50604051907fab6e844f000000000000000000000000000000000000000000000000000000008252602082600481865afa91821561146d576000926169b8575b50604051917f14d8d024000000000000000000000000000000000000000000000000000000008352602083600481875afa92831561146d57600093616997575b50604051927fd1f956b1000000000000000000000000000000000000000000000000000000008452602084600481885afa93841561146d57600094616976575b50604051937fe61dfd58000000000000000000000000000000000000000000000000000000008552602085600481895afa94851561146d57600095616955575b506040517fe09d394d0000000000000000000000000000000000000000000000000000000081526020816004818a5afa90811561146d57600091616936575b506040517f52b06d640000000000000000000000000000000000000000000000000000000081526020816004818b5afa90811561146d57600091616917575b506040517f013cf08b00000000000000000000000000000000000000000000000000000000815260006004820152916020836024818c5afa92831561146d576000936168f6575b50604051977f5e09dbe70000000000000000000000000000000000000000000000000000000089526020896004818d5afa94851561146d576004996000966168d5575b5060208b6040519b8c80927faa0ddc160000000000000000000000000000000000000000000000000000000082525afa96871561146d5760049a6000986168b4575b5060208c6040519c8d80927f640274270000000000000000000000000000000000000000000000000000000082525afa98891561146d5760049b60009a616893575b5060208d6040519d8e80927f30125cf50000000000000000000000000000000000000000000000000000000082525afa9a8b1561146d578d60049d60009d616871575b506020906040519e8f80927f24768d910000000000000000000000000000000000000000000000000000000082525afa9c8d1561146d5760009d616850575b50604051809e81907f9dc969a80000000000000000000000000000000000000000000000000000000082525a92600491602094fa9d8e1561146d5760009e61682f575b50616743612181565b6001600160a01b0390911681529d8e906001600160a01b031660208201526040019061677791906001600160a01b03169052565b6001600160a01b031660608d01526001600160a01b031660808c01526001600160a01b031660a08b01526001600160a01b031660c08a01526001600160a01b031660e08901526001600160a01b03166101008801526001600160a01b03166101208701526001600160a01b03166101408601526001600160a01b03166101608501526001600160a01b03166101808401526001600160a01b03166101a08301526001600160a01b03166101c082015261215e90616054565b616849919e5060203d60201161146657611456818361212f565b9c3861673a565b61686a919d5060203d60201161146657611456818361212f565b9b386166f7565b6020919d5061688c90823d841161146657611456818361212f565b9c906166b8565b6168ad919a5060203d60201161146657611456818361212f565b9838616675565b6168ce91985060203d60201161146657611456818361212f565b9638616633565b6168ef91965060203d60201161146657611456818361212f565b94386165f1565b61691091935060203d60201161146657611456818361212f565b91386165ae565b616930915060203d60201161146657611456818361212f565b38616567565b61694f915060203d60201161146657611456818361212f565b38616528565b61696f91955060203d60201161146657611456818361212f565b93386164e9565b61699091945060203d60201161146657611456818361212f565b92386164a9565b6169b191935060203d60201161146657611456818361212f565b9138616469565b6169d291925060203d60201161146657611456818361212f565b9038616429565b6169f391935060203d60201161146657611456818361212f565b91386163e9565b616a1491925060203d60201161146657611456818361212f565b90386163a9565b90816020910312610432575161222d81610937565b616a8b6001600160a01b0360025416604051616a4b816120db565b600881527f6973536166652829000000000000000000000000000000000000000000000000602082015260405191616a82836120f7565b60008352616c99565b9080616aaa575b156106bb578060208061222d93518301019101616a1b565b506020815114616a92565b616b186001600160a01b038060025416604051916020941684830152838252616add826120db565b60405190616aea826120db565b601582527f697353656375726542617365286164647265737329000000000000000000000085830152616c99565b9080616b35575b156106bb578161222d9282518301019101616a1b565b5081815114616b1f565b61222d6001600160a01b0360035416604051616b5a816120db565b600681527f6941676528290000000000000000000000000000000000000000000000000000602082015260405191611182836120f7565b6001600160a01b0380911690811561087757600154826001600160a01b0319821617600155167f8292fce18fa69edf4db7b94ea2e58241df0ae57f97e0a6c9b29067028bf92d76600080a3565b3d15616c09573d90616bef826121af565b91616bfd604051938461212f565b82523d6000602084013e565b606090565b908015616c6a576001600160a01b03821691821561087757600080808481945af1616c37616bde565b50156106bb5760207fcec1f18c3ab8ddaaa107a1591e3c369667eec613626611a8deaedef43069fcdd91604051908152a2565b5050565b90616c799291616c99565b9060009015616c86575090565b6040519150616c94826120f7565b815290565b9190823b15616d2e577fffffffff00000000000000000000000000000000000000000000000000000000815160208093012016916040519180830193845281519160005b838110616d1a575050509181616d0a6024826000979596889701878382015203600481018452018261212f565b51915afa616d16616bde565b9091565b818101830151858201602401528201616cdd565b505050600090604051616d40816120f7565b6000815290565b9291616d5591600094616c99565b9080616d85575b616d635750565b6001600160a01b0391925080602080616d8193518301019101612692565b1690565b506020815114616d5c565b9291616d9e91600094616c99565b9080616dc1575b616dac5750565b61222d91925060208082518301019101616a1b565b506020815114616da5565b9291616dda91600094616c99565b9080616dfd575b616de85750565b61222d91925060208082518301019101612cd2565b506020815114616de1565b9291616e1691600094616c99565b9080616e3b575b616e245750565b909150602081805181010312610432576020015190565b506020815114616e1d565b90602082519201517fffffffff00000000000000000000000000000000000000000000000000000000908181169360048110616e8157505050565b60040360031b82901b16169150565b6001600160a01b0381161561087757600080918351908260208601915af190616eb7616bde565b9115616ec1575090565b805160009190600411616f3d57616ed89150616e46565b815115616ee85750805190602001fd5b6040517f21c09d340000000000000000000000000000000000000000000000000000000081527fffffffff00000000000000000000000000000000000000000000000000000000919091166004820152602490fd5b50616ed8565b803b6000616f50826121af565b92616f5e604051948561212f565b82845260208401903c602d815110616f7a57602a015160601c90565b60046040517fbaf3f0f7000000000000000000000000000000000000000000000000000000008152fdfe8bd115fc6ec81ad72d5ca8a8b3bd3d0177f1b615af6ad35644a4e24a7bed08bca264697066735822122026cc877e00fc2841a62899584c98144e313632838615a6fbcf5fec2993b47fa664736f6c63430008140033","linkReferences":{}},"methodIdentifiers":{"Burn(uint256)":"b90306ad","BurnCoin(uint256,uint256)":"a5d7cda4","LSB(uint256,uint256)":"6f493aad","_delegatorCount()":"a1f7f539","_getImplementation(address)":"c54e44b0","_importOld(uint256)":"141ca660","_isDelegatorNode(address)":"e01ad5fd","_isSafe()":"e0a9bc2b","_isSecureBase(address)":"af484526","_isSigner(address)":"1f185d16","_txnType7(uint256,uint256)":"02a085f2","_txnType_1_0(address,uint256,uint256,uint256,uint256,uint256)":"a6630304","addLevelnGetRank(uint256,uint256,uint256,uint256,uint256,bool)":"822ffec4","bonus()":"75b4d78c","cage()":"69245009","capping()":"5640dbfc","currentCycle()":"bab2f552","currentLSBversion()":"43a1b5ab","dage()":"725b6fff","directsCount()":"d2a15904","getAllData(uint256,uint256)":"12964120","getBalance()":"12065fe0","getHexbase()":"3b9b7955","getNodeLB(uint256)":"da021335","getNodeLvlInfoBatch(uint256,uint256)":"759f22bd","getRankAgeInBatch()":"6de97c66","getRankWithAgeValue()":"29ee350e","getToggleAgeCount(uint256)":"143ec3b7","getToggleAgeValue(uint256,uint256)":"043719b4","id()":"af640d0f","isLock()":"09d8da2e","mintCount()":"9659867e","mints(uint256)":"6350b2c2","moveLvlIncome(uint256,uint256,uint256,uint256,bool)":"7b058ac1","owner()":"8da5cb5b","postInit()":"4a65786c","preinit(address,address,uint256)":"52902c59","rank()":"934209ce","rankage(uint256)":"d3a1a499","setBonus(uint256)":"0b98f975","setLock(bool)":"619d5194","setSuspend(uint256,bool)":"c8ef7b1a","setburnclaimdollar(uint256,uint256)":"654c668e","setdirect(bool)":"deb1ba1e","storcache()":"5ecf6a8a","syncBaseAddr()":"339459a6","systemAge()":"fdc10bc9","updateOwner(address)":"880cdc31","userCycleMintCount(uint256)":"39b4d61b","withdrawlDage()":"a9bf285b"},"id":52}