{"abi":[{"type":"constructor","inputs":[{"name":"_hex","type":"address","internalType":"address"}],"stateMutability":"nonpayable"},{"type":"fallback","stateMutability":"payable"},{"type":"receive","stateMutability":"payable"},{"type":"function","name":"Burn","inputs":[{"name":"amount","type":"uint256","internalType":"uint256"}],"outputs":[],"stateMutability":"nonpayable"},{"type":"function","name":"BurnCoin","inputs":[{"name":"_dollar","type":"uint256","internalType":"uint256"},{"name":"maxinterwal","type":"uint256","internalType":"uint256"}],"outputs":[],"stateMutability":"payable"},{"type":"function","name":"LSB","inputs":[{"name":"","type":"uint256","internalType":"uint256"},{"name":"","type":"uint256","internalType":"uint256"}],"outputs":[{"name":"","type":"int256","internalType":"int256"}],"stateMutability":"view"},{"type":"function","name":"TVL","inputs":[],"outputs":[{"name":"","type":"uint256","internalType":"uint256"}],"stateMutability":"view"},{"type":"function","name":"_delegatorCount","inputs":[],"outputs":[{"name":"","type":"uint256","internalType":"uint256"}],"stateMutability":"view"},{"type":"function","name":"_getImplementation","inputs":[{"name":"clone","type":"address","internalType":"address"}],"outputs":[{"name":"impl","type":"address","internalType":"address"}],"stateMutability":"view"},{"type":"function","name":"_isDelegatorNode","inputs":[{"name":"sender","type":"address","internalType":"address"}],"outputs":[{"name":"","type":"bool","internalType":"bool"}],"stateMutability":"view"},{"type":"function","name":"_isSafe","inputs":[],"outputs":[{"name":"","type":"bool","internalType":"bool"}],"stateMutability":"view"},{"type":"function","name":"_isSecureBase","inputs":[{"name":"sender","type":"address","internalType":"address"}],"outputs":[{"name":"","type":"bool","internalType":"bool"}],"stateMutability":"view"},{"type":"function","name":"_isSigner","inputs":[{"name":"sender","type":"address","internalType":"address"}],"outputs":[{"name":"","type":"bool","internalType":"bool"}],"stateMutability":"view"},{"type":"function","name":"_txnType107","inputs":[{"name":"_maxint","type":"uint256","internalType":"uint256"},{"name":"_ag","type":"uint256","internalType":"uint256"}],"outputs":[{"name":"net","type":"uint256","internalType":"uint256"},{"name":"_self","type":"uint256","internalType":"uint256"},{"name":"_selfflush","type":"uint256","internalType":"uint256"}],"stateMutability":"payable"},{"type":"function","name":"_txnType_101_100","inputs":[{"name":"paramAdd","type":"address","internalType":"address"},{"name":"_id_maxint","type":"uint256","internalType":"uint256"},{"name":"_qty","type":"uint256","internalType":"uint256"},{"name":"_msgValue","type":"uint256","internalType":"uint256"},{"name":"_type","type":"uint256","internalType":"uint256"},{"name":"_ag","type":"uint256","internalType":"uint256"}],"outputs":[{"name":"_tvl","type":"uint256","internalType":"uint256"},{"name":"_amt","type":"uint256","internalType":"uint256"}],"stateMutability":"payable"},{"type":"function","name":"activedirectsCount","inputs":[],"outputs":[{"name":"","type":"uint256","internalType":"uint256"}],"stateMutability":"view"},{"type":"function","name":"addLevelnGetRank","inputs":[{"name":"_amount","type":"uint256","internalType":"uint256"},{"name":"_qty","type":"uint256","internalType":"uint256"},{"name":"_level","type":"uint256","internalType":"uint256"},{"name":"_epochAge","type":"uint256","internalType":"uint256"},{"name":"_free","type":"uint256","internalType":"uint256"},{"name":"_tobeSkipped","type":"bool","internalType":"bool"}],"outputs":[{"name":"currentrnk","type":"uint256","internalType":"uint256"}],"stateMutability":"nonpayable"},{"type":"function","name":"bonus","inputs":[],"outputs":[{"name":"","type":"uint256","internalType":"uint256"}],"stateMutability":"view"},{"type":"function","name":"cage","inputs":[],"outputs":[{"name":"","type":"uint256","internalType":"uint256"}],"stateMutability":"view"},{"type":"function","name":"currentCycle","inputs":[],"outputs":[{"name":"","type":"uint256","internalType":"uint256"}],"stateMutability":"view"},{"type":"function","name":"currentLSBversion","inputs":[],"outputs":[{"name":"","type":"uint256","internalType":"uint256"}],"stateMutability":"view"},{"type":"function","name":"dage","inputs":[],"outputs":[{"name":"","type":"uint256","internalType":"uint256"}],"stateMutability":"view"},{"type":"function","name":"getAllComputeData","inputs":[{"name":"maxinterwal","type":"uint256","internalType":"uint256"}],"outputs":[{"name":"cr","type":"tuple","internalType":"struct InstanceStorTypes.ComputeResult","components":[{"name":"p1","type":"uint256","internalType":"uint256"},{"name":"p2","type":"uint256","internalType":"uint256"},{"name":"p3","type":"uint256","internalType":"uint256"},{"name":"p4","type":"uint256","internalType":"uint256"},{"name":"p5","type":"uint256","internalType":"uint256"},{"name":"p6","type":"uint256","internalType":"uint256"},{"name":"p7","type":"uint256","internalType":"uint256"},{"name":"f1","type":"uint256","internalType":"uint256"},{"name":"f2","type":"uint256","internalType":"uint256"},{"name":"f3","type":"uint256","internalType":"uint256"},{"name":"f4","type":"uint256","internalType":"uint256"},{"name":"f5","type":"uint256","internalType":"uint256"},{"name":"f6","type":"uint256","internalType":"uint256"},{"name":"f7","type":"uint256","internalType":"uint256"},{"name":"lsb","type":"int256","internalType":"int256"},{"name":"totInc","type":"uint256","internalType":"uint256"},{"name":"thresholdx","type":"uint256","internalType":"uint256"},{"name":"totIncdollar","type":"uint256","internalType":"uint256"},{"name":"thresholdollarx","type":"uint256","internalType":"uint256"},{"name":"minpay","type":"uint256","internalType":"uint256"},{"name":"minpaydollar","type":"uint256","internalType":"uint256"},{"name":"cap","type":"bool","internalType":"bool"},{"name":"capinc","type":"bool","internalType":"bool"},{"name":"capdollar","type":"bool","internalType":"bool"}]}],"stateMutability":"view"},{"type":"function","name":"getAllData","inputs":[{"name":"typeId","type":"uint256","internalType":"uint256"},{"name":"maxinterwal","type":"uint256","internalType":"uint256"}],"outputs":[{"name":"values","type":"uint256[7]","internalType":"uint256[7]"}],"stateMutability":"view"},{"type":"function","name":"getBalance","inputs":[],"outputs":[{"name":"","type":"uint256","internalType":"uint256"}],"stateMutability":"view"},{"type":"function","name":"getHexbase","inputs":[],"outputs":[{"name":"","type":"address","internalType":"address"}],"stateMutability":"view"},{"type":"function","name":"getNodeLB","inputs":[{"name":"_level","type":"uint256","internalType":"uint256"}],"outputs":[{"name":"","type":"tuple","internalType":"struct InstanceStorTypes.LevelInfoStr","components":[{"name":"lvlbs","type":"uint256","internalType":"uint256"},{"name":"lvlqty","type":"uint256","internalType":"uint256"},{"name":"lvlrwrd","type":"uint256","internalType":"uint256"},{"name":"lvlyei","type":"uint256","internalType":"uint256"}]}],"stateMutability":"view"},{"type":"function","name":"getNodeLvlInfoBatch","inputs":[{"name":"from","type":"uint256","internalType":"uint256"},{"name":"to","type":"uint256","internalType":"uint256"}],"outputs":[{"name":"info","type":"tuple[]","internalType":"struct InstanceStorTypes.LevelInfoStr[]","components":[{"name":"lvlbs","type":"uint256","internalType":"uint256"},{"name":"lvlqty","type":"uint256","internalType":"uint256"},{"name":"lvlrwrd","type":"uint256","internalType":"uint256"},{"name":"lvlyei","type":"uint256","internalType":"uint256"}]}],"stateMutability":"view"},{"type":"function","name":"getRankAgeInBatch","inputs":[],"outputs":[{"name":"rankagebatch","type":"uint256[]","internalType":"uint256[]"}],"stateMutability":"view"},{"type":"function","name":"getRankWithAgeValue","inputs":[],"outputs":[{"name":"","type":"uint256","internalType":"uint256"},{"name":"","type":"uint256","internalType":"uint256"}],"stateMutability":"view"},{"type":"function","name":"getToggleAgeCount","inputs":[{"name":"key","type":"uint256","internalType":"uint256"}],"outputs":[{"name":"","type":"uint256","internalType":"uint256"}],"stateMutability":"view"},{"type":"function","name":"getToggleAgeValue","inputs":[{"name":"key","type":"uint256","internalType":"uint256"},{"name":"index","type":"uint256","internalType":"uint256"}],"outputs":[{"name":"","type":"uint256","internalType":"uint256"}],"stateMutability":"view"},{"type":"function","name":"id","inputs":[],"outputs":[{"name":"","type":"uint256","internalType":"uint256"}],"stateMutability":"view"},{"type":"function","name":"importOld","inputs":[{"name":"limit","type":"uint256","internalType":"uint256"}],"outputs":[],"stateMutability":"payable"},{"type":"function","name":"isLock","inputs":[],"outputs":[{"name":"","type":"bool","internalType":"bool"}],"stateMutability":"view"},{"type":"function","name":"mintCount","inputs":[],"outputs":[{"name":"","type":"uint256","internalType":"uint256"}],"stateMutability":"view"},{"type":"function","name":"mints","inputs":[{"name":"","type":"uint256","internalType":"uint256"}],"outputs":[{"name":"amt","type":"uint256","internalType":"uint256"},{"name":"qty","type":"uint256","internalType":"uint256"},{"name":"mage","type":"uint256","internalType":"uint256"},{"name":"nft","type":"address","internalType":"address"}],"stateMutability":"view"},{"type":"function","name":"moveLvlIncome","inputs":[{"name":"_amount","type":"uint256","internalType":"uint256"},{"name":"_qty","type":"uint256","internalType":"uint256"},{"name":"_level","type":"uint256","internalType":"uint256"},{"name":"_epochAge","type":"uint256","internalType":"uint256"},{"name":"_op","type":"bool","internalType":"bool"}],"outputs":[{"name":"lastrnk","type":"uint256","internalType":"uint256"},{"name":"currentrnk","type":"uint256","internalType":"uint256"}],"stateMutability":"nonpayable"},{"type":"function","name":"owner","inputs":[],"outputs":[{"name":"","type":"address","internalType":"address"}],"stateMutability":"view"},{"type":"function","name":"postInit","inputs":[],"outputs":[{"name":"","type":"bool","internalType":"bool"}],"stateMutability":"view"},{"type":"function","name":"preinit","inputs":[{"name":"_hex","type":"address","internalType":"address"},{"name":"_own","type":"address","internalType":"address"},{"name":"_id","type":"uint256","internalType":"uint256"},{"name":"isnew","type":"bool","internalType":"bool"},{"name":"_tvl","type":"uint256","internalType":"uint256"}],"outputs":[],"stateMutability":"nonpayable"},{"type":"function","name":"rank","inputs":[],"outputs":[{"name":"","type":"uint256","internalType":"uint256"}],"stateMutability":"view"},{"type":"function","name":"resetRank","inputs":[],"outputs":[],"stateMutability":"nonpayable"},{"type":"function","name":"setActivedirect","inputs":[{"name":"addremove","type":"bool","internalType":"bool"}],"outputs":[],"stateMutability":"nonpayable"},{"type":"function","name":"setBonus","inputs":[{"name":"b","type":"uint256","internalType":"uint256"}],"outputs":[],"stateMutability":"nonpayable"},{"type":"function","name":"setLock","inputs":[{"name":"flag","type":"bool","internalType":"bool"}],"outputs":[],"stateMutability":"nonpayable"},{"type":"function","name":"setSuspend","inputs":[{"name":"key","type":"uint256","internalType":"uint256"},{"name":"value","type":"bool","internalType":"bool"}],"outputs":[],"stateMutability":"nonpayable"},{"type":"function","name":"setcapclaim","inputs":[{"name":"claimcap","type":"uint256","internalType":"uint256"},{"name":"claicapmdollar","type":"uint256","internalType":"uint256"},{"name":"_tvl","type":"uint256","internalType":"uint256"},{"name":"action","type":"bool","internalType":"bool"}],"outputs":[],"stateMutability":"nonpayable"},{"type":"function","name":"storcache","inputs":[],"outputs":[],"stateMutability":"nonpayable"},{"type":"function","name":"syncBaseAddr","inputs":[],"outputs":[],"stateMutability":"nonpayable"},{"type":"function","name":"systemAge","inputs":[],"outputs":[{"name":"","type":"uint256","internalType":"uint256"}],"stateMutability":"view"},{"type":"function","name":"updateOwner","inputs":[{"name":"_newowner","type":"address","internalType":"address"}],"outputs":[],"stateMutability":"nonpayable"},{"type":"function","name":"userCycleMintCount","inputs":[{"name":"","type":"uint256","internalType":"uint256"}],"outputs":[{"name":"","type":"uint256","internalType":"uint256"}],"stateMutability":"view"},{"type":"function","name":"withdrawlDage","inputs":[],"outputs":[{"name":"","type":"uint256","internalType":"uint256"}],"stateMutability":"view"},{"type":"event","name":"CapReset","inputs":[{"name":"invested","type":"uint256","indexed":false,"internalType":"uint256"},{"name":"claimed","type":"uint256","indexed":false,"internalType":"uint256"},{"name":"claimedDollar","type":"uint256","indexed":false,"internalType":"uint256"},{"name":"investedDollar","type":"uint256","indexed":false,"internalType":"uint256"},{"name":"burned","type":"uint256","indexed":false,"internalType":"uint256"},{"name":"burnedDollar","type":"uint256","indexed":false,"internalType":"uint256"},{"name":"ag","type":"uint256","indexed":false,"internalType":"uint256"}],"anonymous":false},{"type":"event","name":"EthBurned","inputs":[{"name":"sender","type":"address","indexed":true,"internalType":"address"},{"name":"amount","type":"uint256","indexed":false,"internalType":"uint256"}],"anonymous":false},{"type":"event","name":"EthTransferred","inputs":[{"name":"to","type":"address","indexed":true,"internalType":"address"},{"name":"amount","type":"uint256","indexed":false,"internalType":"uint256"}],"anonymous":false},{"type":"event","name":"HexBaseUpdated","inputs":[{"name":"previousHexBase","type":"address","indexed":true,"internalType":"address"},{"name":"newHexBase","type":"address","indexed":true,"internalType":"address"}],"anonymous":false},{"type":"event","name":"LogTxns","inputs":[{"name":"from","type":"address","indexed":false,"internalType":"address"},{"name":"orc1155","type":"address","indexed":false,"internalType":"address"},{"name":"_amt","type":"uint256","indexed":false,"internalType":"uint256"},{"name":"_value","type":"uint256","indexed":false,"internalType":"uint256"},{"name":"_time","type":"uint256","indexed":false,"internalType":"uint256"},{"name":"_type","type":"uint256","indexed":false,"internalType":"uint256"}],"anonymous":false},{"type":"event","name":"OwnerUpdated","inputs":[{"name":"previousOwner","type":"address","indexed":true,"internalType":"address"},{"name":"newOwner","type":"address","indexed":true,"internalType":"address"}],"anonymous":false},{"type":"error","name":"CallFailed","inputs":[]},{"type":"error","name":"InvalidAddress","inputs":[]},{"type":"error","name":"InvalidState","inputs":[]},{"type":"error","name":"NotAuthorized","inputs":[]},{"type":"error","name":"NotSafe","inputs":[]},{"type":"error","name":"ReentrancyGuardReentrantCall","inputs":[]},{"type":"error","name":"TargetCallFailed","inputs":[{"name":"selector","type":"bytes4","internalType":"bytes4"}]}],"bytecode":{"object":"0x608034620000c357601f620060a538819003918201601f19168301916001600160401b03831184841017620000c857808492602094604052833981010312620000c357516001600160a01b03811690819003620000c3578015620000b15760018060a01b031990338260015416176001556000918254161781556001600d5580600e5580600f55806010558060115580601255806013558060145580601555601655604051615fc69081620000df8239f35b60405163e6c4247b60e01b8152600490fd5b600080fd5b634e487b7160e01b600052604160045260246000fdfe60806040526004361015610018575b361561001657005b005b60003560e01c8063043719b41461034857806309d8da2e146103435780630b98f9751461033e57806312065fe0146103395780631296412014610334578063143ec3b71461032f5780631f185d161461032a57806329ee350e14610325578063339459a61461032057806339b4d61b1461031b5780633b9b79551461031657806343a1b5ab1461031157806347a09a1d1461030c5780634a65786c146103075780635ecf6a8a14610302578063619d5194146102fd5780636350b2c2146102f857806369245009146102f35780636de97c66146102ee5780636f493aad146102e9578063711e5870146102e4578063725b6fff146102df578063759f22bd146102da57806375b4d78c146102d5578063799e4c45146102d05780637b058ac1146102cb578063822ffec4146102c657806387acdff7146102c1578063880cdc31146102bc5780638da5cb5b146102b7578063934209ce146102b25780639659867e146102ad578063a1c25c86146102a8578063a1f7f539146102a3578063a5d7cda41461029e578063a93491f314610299578063a9bf285b14610294578063ab57c03a1461028f578063af4845261461028a578063af640d0f14610285578063b90306ad14610280578063b9f1a3941461027b578063bab2f55214610276578063c54e44b014610271578063c8ef7b1a1461026c578063d3abb8a314610267578063da02133514610262578063e01ad5fd1461025d578063e0a9bc2b14610258578063edaf2d2e146102535763fdc10bc90361000e57612267565b612249565b61222e565b612167565b612100565b6120a4565b611fae565b611f75565b611f57565b611df6565b611d0e565b611cf0565b611cbf565b611ca6565b611c88565b611b59565b611778565b61170e565b611687565b611669565b61164b565b611622565b6115c6565b6111bd565b610e95565b610d86565b610d68565b610d4a565b610c54565b610bcb565b610b51565b610b17565b610a89565b610a30565b6109d9565b610971565b610958565b610932565b61085e565b610836565b61080d565b6107c1565b6105dc565b6105a5565b6104cd565b610484565b61043b565b61041f565b6103ac565b610389565b34610384576040366003190112610384576004356000526035602052602061037660243560406000206127a2565b90546040519160031b1c8152f35b600080fd5b3461038457600036600319011261038457602060ff601754166040519015158152f35b34610384576020366003190112610384576103c5615ad1565b1561040d576103d333615b43565b80156103f9575b156103e757600435601855005b60405163ea8e4eb560e01b8152600490fd5b506005546001600160a01b031633146103da565b604051634ee2123760e11b8152600490fd5b3461038457600036600319011261038457602047604051908152f35b346103845760403660031901126103845761045760043561532e565b60405190600090825b6007831061046d5760e084f35b600190825181526020809101920192019190610460565b346103845760203660031901126103845760043560005260356020526020604060002054604051908152f35b6001600160a01b031690565b6001600160a01b0381160361038457565b3461038457602080600319360112610384576105406004356104ee816104bc565b6002546040516001600160a01b03928316858201528481529116610511826122b3565b6040519061051e826122b3565b601182527069735369676e657228616464726573732960781b85830152615d0a565b91908061058a575b156105785781816105629261057494518301019101615abc565b60405190151581529081906020820190565b0390f35b604051633204506f60e01b8152600490fd5b5080825114610548565b908152602081019190915260400190565b3461038457600036600319011261038457601e5460088110156105d75780602001549061057460405192839283610594565b61278c565b346103845760003660031901126103845761001661571e565b6000526034602052604060002090565b6000805260346020527f2dc2afdad33a5feea586a9545052327b65d28efb10d11fa69e77da986a1031cd90565b6103e76000526035602052600080516020615f7183398151915290565b600160005260306020527fc7874712a1c7fb891b421aa6c0d42dbf3cd912d7a18f183783fb32e938cbaa0190565b600460005260306020527f2f780f5a40ea4901ca784926540b83b7459f13a98fc8f78e5634eb2a01df3af590565b600052602a602052604060002090565b6000526031602052604060002090565b6000526033602052604060002090565b600260005260306020527f89a47dfbb363dd4e64da56b4585033c9abd8a425d24b94630469c44bee7189c290565b600360005260306020527f11a30d68d5ffd3a101d3683e9a6997d49d9351e95dc004c6a4e652b897626df790565b600660005260306020527fd558ed0e54509c62efb2aedb46e6ad1b04c7bdca351e3613e136c946b91686d890565b600760005260306020527f4ebb69666752feecd656ebf5f8cd3c2f1c70bb06a0c3d3744be479e4a580c23390565b600560005260306020527f9d0b70a39d4b3569f175af8ea51ae318eac80460c467ee4a16ee63ec5720706e90565b3461038457602036600319011261038457600435600052602a6020526020604060002054604051908152f35b6001600160a01b03169052565b6001600160a01b03909116815260200190565b34610384576000366003190112610384576000546040516001600160a01b039091168152602090f35b34610384576000366003190112610384576020603254604051908152f35b8015150361038457565b346103845760803660031901126103845760443560243560043560643561088481610854565b61088c615ad1565b1561040d5761089a33615b43565b801561091e575b156103e757156108e757916108da6108d56108e2936108cd6108c8610016976011546128c5565b601155565b6014546128c5565b601455565b6028546128c5565b602855565b601154908103908111610919576011556014549081039081116109195760145560285490810390811161091957602855005b61283a565b506005546001600160a01b031633146108a1565b3461038457600036600319011261038457602060ff60175460081c166040519015158152f35b34610384576000366003190112610384576100166125f3565b346103845760203660031901126103845760043561098e81610854565b610996615ad1565b1561040d576109a433615b43565b80156109c5575b156103e75760ff8019601754169115151617601755600080f35b506005546001600160a01b031633146109ab565b3461038457602036600319011261038457600435600052603160205260806040600020805490600181015490600281015490600360018060a01b039101541691604051938452602084015260408301526060820152f35b34610384576000366003190112610384576020601d54604051908152f35b6020908160408183019282815285518094520193019160005b828110610a75575050505090565b835185529381019392810192600101610a67565b3461038457600036600319011261038457601e546001810180821161091957610ab1816150c3565b90610abf6040519283612305565b808252610ace601f19916150c3565b0191602092368484013760005b81811115610af157604051806105748582610a4e565b60088110156105d75780610b1291850154610b0c82866150da565b52612850565b610adb565b3461038457604036600319011261038457600435600052603360205260406000206024356000526020526020604060002054604051908152f35b3461038457602036600319011261038457600435610b6e81610854565b610b76615ad1565b1561040d57610b8433615b43565b8015610bb7575b156103e75715610ba557610ba0601f54612850565b601f55005b601f5480156109195760001901601f55005b506005546001600160a01b03163314610b8b565b34610384576000366003190112610384576020601b54604051908152f35b606080918051845260208101516020850152604081015160408501520151910152565b6020908160408183019282815285518094520193019160005b828110610c33575050505090565b9091929382608082610c486001948951610be9565b01950193929101610c25565b3461038457604036600319011261038457602435600435818111610d38578082039182116109195760019081830180931161091957610c92836150c3565b92610ca06040519485612305565b808452610caf601f19916150c3565b0160005b818110610d21575050816000905b610cd4575b604051806105748682610c0c565b8351811015610d1c5780610cfb610cf6610cf1610d1694866128c5565b6105f5565b615468565b610d0582876150da565b52610d1081866150da565b50612850565b82610cc1565b610cc6565b602090610d2c615443565b82828801015201610cb3565b60405163baf3f0f760e01b8152600490fd5b34610384576000366003190112610384576020601854604051908152f35b34610384576000366003190112610384576020601f54604051908152f35b346103845760a036600319011261038457604435602435600435608435610dac81610854565b610db4615ad1565b1561040d57610dc233615b43565b8015610e81575b156103e75760009260009480610de9575b60405180610574888883610594565b9091929350601e549483600014610e4457506001610e2382610e3796610e1c610e14610e2c966105f5565b9182546128c5565b90556105f5565b019182546128c5565b90555b6064356141b6565b601e549038808080610dda565b80826040925260346020522093845490810390811161091957610e71610e7a92600192610e3797556105f5565b0191825461289c565b9055610e2f565b506005546001600160a01b03163314610dc9565b346103845760c03660031901126103845760a435602435606435600435604435610ebe85610854565b610ec6615ad1565b1561040d57610ed433615b43565b80156111a9575b156103e757610ee9816105f5565b610ef48382546128c5565b905560019384610f03836105f5565b01610f0f8282546128c5565b9055610f19610605565b541515806111a0575b610f35575b601e54604051908152602090f35b159283159283611192575b610f96610f87610f516003546104b0565b60405190610f7982610f6b89602083019190602083019252565b03601f198101845283612305565b610f81613f3a565b90615cdf565b60208082518301019101613f6a565b93909492919a610fa8601d548861289c565b60843511918215611185575b508161117c575b50610fca575b50505050610f27565b600080516020615f51833981519152996110d997600090156111735750610ffd610ff761100393856129e7565b9161298d565b906128d2565b965b600090156111695750610ff761101e93610ffd926129e7565b945b600261102b846105f5565b016110378682546128c5565b90556003611044846105f5565b016110508782546128c5565b90556001600052603560205280807f8e3caac72b6c5bb0462da38c8c8c3b5fbc00a646bd75367c23c11d594c4e36c95416148015611156575b61112d575b6004600052603560205280807f80eb70dc00a20ebf6b218a7aea19e260b164cf97e49b31f047fca6f74f8ff9ad541614908115611119575b506110eb575b60405194859433866129fa565b0390a138808080808080808080610fc1565b6110f361067d565b6110fe8682546128c5565b905561111461110f86602b546128c5565b602b55565b6110cc565b809150611124610632565b541614386110c6565b61113561064f565b6111408682546128c5565b905561115161110f86602b546128c5565b61108e565b508080611161610632565b541614611089565b9250505094611020565b91505096611005565b90501538610fbb565b601e541015915038610fb4565b61119b826140c7565b610f40565b50811515610f22565b506005546001600160a01b03163314610edb565b60c036600319011261038457600480356111d6816104bc565b6044356064359260843560a435916111ec615ad1565b156115b7576111fa33615b43565b80156115a3575b156115845760175460ff81166115935760081c60ff16156114b857611224612a2c565b61122d83612a4f565b61123d61123986615b43565b1590565b61158457611255611250603654856128d2565b602955565b602954611261816106ab565b546037541180159061156e575b61155e5761127b906106ab565b8054600101905560658214958615611557576112a66112a16112a16112a16003546104b0565b6104b0565b60206040518092631362d6d760e11b825281806112ca8b8983019190602083019252565b03915afa90811561155257600091611524575b50965b6114de575b50601954156114c7575b6113026112fd601954612850565b601955565b61139161138b6112a161137c8761131761234c565b998b8b528160208c01528860408c015261134360608c019b60008d5261133e6019546106bb565b61292f565b6113778c610f6b8b6113566001546104b0565b60405163c85700fb60e01b6020820152968794916024803591908701612961565b615e97565b60208082518301019101612328565b86612901565b84516001600160a01b03906113a5906104b0565b16156114b857509061149c600080516020615f5183398151915293926113e16113ce87516104b0565b60036113db6019546106bb565b01612910565b6113f56113f088600f546128c5565b600f55565b61141c61141761140f61140a603a54886129e7565b61299e565b6015546128c5565b601555565b61145f61144061142a61330e565b60a061143782888d61341f565b910151906129e7565b966114506108e2896028546128c5565b61145985612bb4565b516104b0565b604080513381526001600160a01b03909216602083015281019490945260608401879052608084019290925260a0830191909152819060c0820190565b0390a16114a96001600d55565b61057460405192839283610594565b60405163baf3f0f760e01b8152fd5b6114d083601b55565b6114d983601c55565b6112ef565b60185490876114ed83836128c5565b10611513578761150361150d93611508936128c5565b61289c565b601855565b386112e5565b60405163baf3f0f760e01b81528390fd5b611545915060203d811161154b575b61153d8183612305565b8101906128f2565b386112dd565b503d611533565b612340565b80966112e0565b50604051633204506f60e01b8152fd5b5060385485108061126e5750603954851161126e565b60405163ea8e4eb560e01b8152fd5b5060405163baf3f0f760e01b8152fd5b506005546001600160a01b03163314611201565b604051634ee2123760e11b8152fd5b34610384576020366003190112610384576004356115e3816104bc565b6115eb615ad1565b1561040d576115f933615b43565b801561160e575b156103e75761001690615c01565b506005546001600160a01b03163314611600565b34610384576000366003190112610384576001546040516001600160a01b039091168152602090f35b34610384576000366003190112610384576020601e54604051908152f35b34610384576000366003190112610384576020601954604051908152f35b60403660031901126103845760ff60175416610d38576116a5615ad1565b1561040d576116b333615b43565b80156116fa575b156103e7576116c7612a2c565b6105746116d8602435600435612d5c565b6001600d55604080519384526020840192909252908201529081906060820190565b506005546001600160a01b031633146116ba565b3461038457600036600319011261038457602061177060018060a01b036006541660405161173b816122b3565b601381527267657464656c656761746f72436f756e74282960681b8482015260405191611767836122ce565b60008352615dec565b604051908152f35b6040806003193601126103845760049081359160243560ff60175416611b4a576117a0612a2c565b6117a8615bc4565b90601b546117b682826128c5565b831115611b42576117c792506128c5565b915b6117d8611250603654856128d2565b6117e36029546106ab565b5460375411611b35576117f583612a4f565b6118096112a16112a16112a16003546104b0565b8151637bd4bc1f60e11b815283810186815260209392919084908290819083010381855afa90811561155257600091611b18575b503403611b08579060c0849282519586809263d0bb2ddf60e01b82525afa801561155257600094858096819782938395611acc575b5081151580611aba575b6119d8575b505050801515806119c6575b6118cd575b6118c3876118be6118b98b6118b16118ac34600e546128c5565b600e55565b6012546128c5565b601255565b612bb4565b6100166001600d55565b936118ed61192d9392610ffd6118e784999b9798346129e7565b916129bb565b80956118f9828b615c7f565b61190d6112a16112a16112a16003546104b0565b8451634205de0f60e11b8152918201928352909485928391829160200190565b03915afa8015611552576118c397876118b996600080516020615f51833981519152956118be996000956119a1575b505093513381526001600160a01b039092166020830152604082019290925260608101929092526080820152606f60a08201528060c081015b0390a193388080611892565b61199594955090816119be92903d1061154b5761153d8183612305565b93923861195c565b506001600160a01b038616151561188d565b610ffd6118e76119e893346129e7565b906119f38282615c7f565b611a076112a16112a16112a16003546104b0565b908786518093634205de0f60e11b82528180611a2a888d83019190602083019252565b03915afa91821561155257600080516020615f51833981519152938b91600094611a95575b5087513381526001600160a01b039093166020840152604083019390935260608201929092526080810191909152606e60a08201528060c081015b0390a1388080611881565b611a8a92919450611ab2908b3d8d1161154b5761153d8183612305565b939091611a4f565b506001600160a01b038316151561187c565b945050505050611af491945060c03d8111611b01575b611aec8183612305565b810190613091565b9197949193909238611872565b503d611ae2565b8151633204506f60e01b81528490fd5b611b2f9150843d861161154b5761153d8183612305565b3861183d565b51633204506f60e01b8152fd5b5050916117c9565b50905163baf3f0f760e01b8152fd5b346103845760a036600319011261038457600435611b76816104bc565b60243590611b83826104bc565b60643591611b9083610854565b60405163ab6e844f60e01b81526001600160a01b039083821690602081600481855afa8015611552578391600091611c5a575b501633036103e75715908115611c4f575b50610d3857611be5611bf29261549a565b611bed6125f3565b615c01565b611bfd604435601a55565b611c10575b608435611c0d610605565b55005b611c20611c1b615bc4565b601d55565b611c2b601d54601b55565b611c36601d54601c55565b611c4a61010061ff00196017541617601755565b611c02565b905081161538611bd4565b611c7b915060203d8111611c81575b611c738183612305565b810190612328565b38611bc3565b503d611c69565b34610384576000366003190112610384576020601c54604051908152f35b3461038457600036600319011261038457610016613fc0565b34610384576020366003190112610384576020611ce6600435611ce1816104bc565b615b43565b6040519015158152f35b34610384576000366003190112610384576020601a54604051908152f35b3461038457602036600319011261038457600435611d2a615ad1565b1561040d576005546001600160a01b031633036103e75760009060046020611d556112a185546104b0565b6040516311be646b60e21b815292839182905afa80156115525783808481949382948391611dd8575b505af1611d89615c4f565b5015610578577fcdcc745fe377b103b45fa0cec23ae3ef93d6fc6a84a01f0d18c40b354dd1d5d8611dd2611dc16112a1600b546104b0565b604051938452929081906020820190565b0390a280f35b611df0915060203d8111611c8157611c738183612305565b38611d7e565b3461038457602036600319011261038457611e0f61486a565b50611e18615bc4565b601b549060043582018092116109195761030091611e3e9181811115611f505750614c30565b611f4e60405191805183526020810151602084015260408101516040840152606081015160608401526080810151608084015260a081015160a084015260c081015160c084015260e081015160e0840152610100808201519084015261012080820151908401526101408082015190840152610160808201519084015261018080820151908401526101a080820151908401526101c080820151908401526101e0808201519084015261020080820151908401526102208082015190840152610240808201519084015261026080820151908401526102808082015190840152611f326102a0808301519085019015159052565b6102c0818101511515908401526102e090810151151590830152565bf35b9050614c30565b34610384576000366003190112610384576020602954604051908152f35b34610384576020366003190112610384576020611f9c600435611f97816104bc565b615f19565b6040516001600160a01b039091168152f35b3461038457604036600319011261038457602435611fcb81610854565b611fd3615ad1565b1561040d57611fe133615b43565b8015612090575b156103e757611ff5615bc4565b906000916004358352603560205260408320805492831590811591612088575b81612068575b50612024578380f35b600160401b831015612063578261204391600161205c950181556127a2565b90919082549060031b91821b91600019901b1916179055565b3880808380f35b612282565b15905061207f5760ff845b1660018416143861201b565b60ff6001612073565b905080612015565b506005546001600160a01b03163314611fe8565b6020366003190112610384576120b8615ad1565b1561040d576120c633615b43565b80156120ec575b156103e7576120da612a2c565b6120e5600435613127565b6001600d55005b506005546001600160a01b031633146120cd565b3461038457602036600319011261038457612119615443565b5060043560005260346020526080604060002060036040519161213b83612298565b80548352600181015460208401526002810154604084015201546060820152611f4e6040518092610be9565b346103845760208060031936011261038457610574906004359061218a826104bc565b6006546040516001600160a01b03938416838201528281529216916121ea906121b2816122b3565b6040516121be816122b3565b6018815277697364656c656761746f724e6f646528616464726573732960401b84820152600094615d0a565b919080612224575b61220b575b505060405190151581529081906020820190565b61221d92508082518301019101615abc565b38806121f7565b50808251146121f2565b34610384576000366003190112610384576020611ce6615ad1565b34610384576000366003190112610384576020602854604051908152f35b34610384576000366003190112610384576020611770615bc4565b634e487b7160e01b600052604160045260246000fd5b608081019081106001600160401b0382111761206357604052565b604081019081106001600160401b0382111761206357604052565b602081019081106001600160401b0382111761206357604052565b61010081019081106001600160401b0382111761206357604052565b601f909101601f19168101906001600160401b0382119082101761206357604052565b90816020910312610384575161233d816104bc565b90565b6040513d6000823e3d90fd5b6040519061235982612298565b565b6040519061016082016001600160401b0381118382101761206357604052565b6040519061030082016001600160401b0381118382101761206357604052565b604051906102e082016001600160401b0381118382101761206357604052565b6040519060e082016001600160401b0381118382101761206357604052565b6001600160401b03811161206357601f01601f191660200190565b60405190612402826122ce565b60008252565b60405190612415826122b3565b600f82526e6d696e744379636c6544617973282960881b6020830152565b60405190612440826122b3565b60128252716d61784d696e74735065724379636c65282960701b6020830152565b6040519061246e826122b3565b600c82526b6d696e4d696e74517479282960a01b6020830152565b60405190612496826122b3565b600c82526b6d61784d696e74517479282960a01b6020830152565b604051906124be826122b3565b600f82526e6d696e74466565506572517479282960881b6020830152565b604051906124e9826122b3565b601082526f65616368636c61696d4379636c65282960801b6020830152565b60405190612515826122b3565b601082526f6d696e436c61696d506572446179282960801b6020830152565b60405190612541826122b3565b601082526f6d6178436c61696d506572446179282960801b6020830152565b6040519061256d826122b3565b60168252756d6178476c6f62616c436c61696d506572446179282960501b6020830152565b6040519061259f826122b3565b600982526863617070696e67282960b81b6020830152565b519061235982610854565b919082608091031261038457815191602081015191606060408301516125e781610854565b92015161233d81610854565b6125fb61571e565b61235961278261278761276961275061274161272b600361263d61263861262283546104b0565b61262a612408565b6126326123f5565b91615dec565b603655565b61265a61265561264d83546104b0565b61262a612433565b603755565b61267761267261266a83546104b0565b61262a612461565b603855565b61269461268f61268783546104b0565b61262a612489565b603955565b6126b16126ac6126a483546104b0565b61262a6124b1565b603a55565b6126ce6126c96126c183546104b0565b61262a6124dc565b603b55565b6126eb6126e66126de83546104b0565b61262a612508565b603c55565b6127086127036126fb83546104b0565b61262a612534565b603d55565b61272561272061271883546104b0565b61262a612560565b603e55565b546104b0565b612733612592565b61273b6123f5565b91615cdf565b602080825183010191016125c2565b9592959390919360ff8019604154169115151617604155565b61ff0060415491151560081b169061ff00191617604155565b604055565b603f55565b634e487b7160e01b600052603260045260246000fd5b80548210156105d75760005260206000200190600090565b6103e76000526035602052600080516020615f71833981519152805492831580159190612832575b81612811575b506127f257505050565b600160401b8310156120635782612043916001612359950181556127a2565b1590506128295760ff60005b166001841614386127e8565b60ff600161281d565b9050806127e2565b634e487b7160e01b600052601160045260246000fd5b60001981146109195760010190565b6802b5e3af16b187ffff1981019190821161091957565b683635c9adc5de9fffff1981019190821161091957565b60001981019190821161091957565b9190820391821161091957565b906001820180921161091957565b604701908160471161091957565b9190820180921161091957565b81156128dc570490565b634e487b7160e01b600052601260045260246000fd5b90816020910312610384575190565b6001600160a01b039091169052565b80546001600160a01b0319166001600160a01b03909216919091179055565b600361235992805183556020810151600184015560408101516002840155606060018060a01b03910151169101612910565b9192608093969594919660a084019760018060a01b031684526020840152604083015260608201520152565b908160640291606483040361091957565b90670de0b6b3a76400009182810292818404149015171561091957565b9060648202918083046064149015171561091957565b9060198202918083046019149015171561091957565b8181029291811591840414171561091957565b919260a093969594919660c0840197600180871b03168452600060208501526040840152606083015260808201520152565b6002600d5414612a3d576002600d55565b604051633ee5aeb560e01b8152600490fd5b600180612a5a610632565b541603612b1c57602854610d3857600f54601154601454601554600e54601254604080519687526020870195909552938501929092526060840152608083015260a082015260c08101919091527fb359d8408cffc6b8788774a87b59f0d5be825576ea5fdd7b0917fed6a07e80309060e090a1612ad76000600f55565b612ae16000601155565b612aeb6000601455565b612af56000601555565b612aff6000600e55565b612b096000601255565b612359612b17603254612850565b603255565b50565b9061235991805182526020810151602083015260408101516040830152606081015160608301526080810151608083015260a081015160a083015260c081015160c083015260e081015160e083015261010080820151908301526101208082015190830152612b98610140808301519084019015159052565b61016081810151151590830152610180809101519101906107ed565b612bbc612cc6565b604051622adcd760e31b815290612bd7906004830190612b1f565b60e0816101a48173__$e1247df8a8a3e3350a56478f11053bf229$__5af490811561155257600091612c0e575b50612359916127ba565b9060e0823d8211612c4c575b81612c2760e09383612305565b81010312612c4957509060c0612359920151612c4281610854565b9091612c04565b80fd5b3d9150612c1a565b604051906101a082016001600160401b0381118382101761206357604052816101806000918281528260208201528260408201528260608201528260808201528260a08201528260c08201528260e0820152826101008201528261012082015282610140820152826101608201520152565b612cce612c54565b906000825260006020830152600f546040830152600e546060830152601554608083015260125460a083015260115460c083015260145460e0830152603f54610100830152604054610120830152612d4460ff604154612d39828260081c1661014087019015159052565b161515610160840152565b612359612d526003546104b0565b6101808401612901565b60009283928392811561057857601754612d7a9060081c60ff161590565b801561307a575b61307057612d9190601b546128c5565b808210156130675750612da3816142aa565b602c5493612db4602d5480966128c5565b90603c5482101580612ff8575b15612fef5750612df490603d54808211612fe7575b50808611612fe15785905b611503612def83809961289c565b602d55565b94612e09612e0487602c5461289c565b602c55565b612e1282601c55565b612e216108e28660285461289c565b612e336108e26028546016549061289c565b612e3d6000601655565b612e516112a16112a16112a16003546104b0565b60408051634205de0f60e11b808252600482018a9052949192602092918381602481855afa968715611552578b97612ee4928891612fc4575b508651338152600060208201526040810191909152606081019890985260808801849052606b60a0890152600080516020615f5183398151915297889060c090a1848b875180948192858352600483019190602083019252565b0381865afa8015611552578b899187948a91612fa7575b508851338152600060208201526040810191909152606081019190915260808101869052606c60a082015260c090a18551908152600481018a905291829060249082905afa92831561155257889593612f84575b5050915133815260006020820152604081019190915260608101929092526080820152606d60a08201528060c081015b0390a1565b612f7f93509081612fa092903d1061154b5761153d8183612305565b9138612f4f565b612fbe9150853d871161154b5761153d8183612305565b38612efb565b612fdb9150863d881161154b5761153d8183612305565b38612e8a565b80612de1565b905038612dd6565b94505084612e12565b50603e546130106112a16112a16112a16004546104b0565b604051633cf29c4960e21b8152600481018690529190602090839060249082905afa918215611552578992613047575b5011612dc1565b61306091925060203d811161154b5761153d8183612305565b9038613040565b612da3906142aa565b5084935083925050565b5061308a603b54601c54906128c5565b8210612d81565b91908260c09103126103845781516130a8816104bc565b9160208101519160408201519160608101516130c3816104bc565b9160a0608083015192015190565b604051906130de826122b3565b601382527255736572546f496e737428616464726573732960681b6020830152565b6040519061310d826122b3565b600b82526a6d696e74436f756e74282960a81b6020830152565b60175460081c60ff16612b1c5760049060206131476112a16000546104b0565b60405163111ea8c160e21b815293849182905afa918215611552576000926132bb575b506001916131ac61319061319e61318186546104b0565b604051928391602083016107fa565b03601f198101835282612305565b6131a66130d1565b83615da1565b6001600160a01b038116156132965760058311610578576131dd6131ce613100565b6131d66123f5565b9083615dec565b92601992835491826131ef81836128c5565b87111561328d576131ff916128c5565b915b1561327d575b508461321161330e565b955b61325f575b5050508192505414908115613256575b5061322f57565b613237613fc0565b613242601b54601c55565b61235961010061ff00196017541617601755565b90501538613228565b8184541015613278576132728684613c82565b80613213565b613218565b6132879083613772565b38613207565b50508491613201565b505050506132a5611c1b615bc4565b6132b0601d54601b55565b613242601d54601c55565b6132d491925060203d8111611c8157611c738183612305565b903861316a565b908160e09103126103845780519160208201519160408101519160608201519160808101519160c060a083015192015190565b6040519060c082016001600160401b03811183821017612063576040526000808352602083019281845260408101918083526060820194818652608083019382855260a08401908382526004859860e06133726112a16112a16112a16003546104b0565b604051938480926316f0115b851b82525afa95861561155257809881978296839584926133a3575b50525252525252565b9499509650509850506133cd915060e03d81116133e3575b6133c58183612305565b8101906132db565b9399949b9297919590509a98969492903861339a565b503d6133bb565b9190916000838201938412911290801582169115161761091957565b8181039291600013801582851316918412161761091957565b61343461343f919493946020860151906129e7565b6060850151906129e7565b9061345360408501516080860151906129e7565b6127109081810291818304149015171561091957613477613491916134ce946128d2565b9461349f6134866032546106cb565b6134918351866128c5565b600052602052604060002090565b6134aa8782546133ea565b905560a06134c56134bc6032546106cb565b948351906128c5565b910151906128c5565b6134d9838254613406565b9055565b604051906134ea826122b3565b6017825276676574557365724f6c644461746128616464726573732960481b6020830152565b90816101609103126103845761352461235b565b90805182526020810151602083015260408101516040830152606081015160608301526080810151608083015260a081015160a083015260c081015160c083015260e081015160e0830152610100808201519083015261012080820151908301526135936101408092016125b7565b9082015290565b604051906135a7826122b3565b600a825269647261776e616765282960b01b6020830152565b604051906135cd826122b3565b600c82526b4c53422875696e743235362960a01b6020830152565b604051906135f5826122b3565b6007825266626f6e7573282960c81b6020830152565b60405190613618826122b3565b600682526563616765282960d01b6020830152565b6040519061363a826122b3565b60188252776765744e6f64654c766c446570746828616464726573732960401b6020830152565b6001600160a01b039091168152602081019190915260400190565b9190826040910312610384576020825192015190565b6040519061369f826122b3565b601e82527f6765746e6f6465526e6b41676528616464726573732c75696e743235362900006020830152565b60088110156105d75760200190600090565b604051906136ea826122b3565b601082526f6765744e6f646528616464726573732960801b6020830152565b908160a0910312610384578051916020820151613725816104bc565b91604081015191608060608301516125e781610854565b60405190613749826122b3565b601a82527977697468647261776e496e636f6d654f6628616464726573732960301b6020830152565b919091613780600a546104b0565b9260019061378e82546104b0565b906040936137d36137c58651806137a96020978883016107fa565b03996137bd601f199b8c8101845283612305565b610f816134dd565b848082518301019101613510565b6137e4611239610140830151151590565b613bac5780516137f261064f565b5583810180516138006106db565b556138cb6108c88884018051613814610709565b556138c36060860191825161382761067d565b556138c36080880196875161383a610737565b5560a0890198895161384a610765565b55613859610100820151602e55565b613867610120820151602f55565b61387460c0820151602855565b6138ad6138a86138a06138a061389861389086518851906128c5565b8951906128c5565b8a51906128c5565b8c51906128c5565b601055565b6138ba60e0820151601355565b519051906128c5565b9051906128c5565b51613b99575b51613b86575b6138f96138f46138e561359a565b6138ed6123f5565b9084615dec565b601b55565b601b5461394e613933875161392581613919868a83019190602083019252565b038c8101835282612305565b61392d6135c0565b85615e28565b9161393f6032546106cb565b90600052602052604060002090565b5561395d6115086138e56135e8565b61396b611c1b6138e561360b565b61399a855161398c81613980858883016107fa565b038a8101835282612305565b61399461362d565b84615dec565b60005b818110613acc575050613a14613a066139f260049899946139fe613a2b956139d461141761140a8c6139cd610605565b01546129d1565b6139e56139df610605565b54600f55565b8a519384918a83016107fa565b03878101845283612305565b610f816136dd565b848082518301019101613709565b935050505060ff8019601754169115151617601755565b81613a3a6112a16000546104b0565b85516318c9774160e21b815296879182905afa91821561155257613a9895600093613aa3575b50613a7e613a72613a8a9495546104b0565b955195869283016107fa565b03908101845283612305565b613a9261373c565b90615dec565b613aa0610793565b55565b613a8a9350613a72613ac4613a7e92843d8611611c8157611c738183612305565b945050613a60565b613b4690613b17613b098951632994ed6560e11b89820152613b038d82613af7878b60248401613661565b03908101835282612305565b87615e97565b87808251830101910161367c565b90613b21836105f5565b5587613b2c836105f5565b0155858885838d60088210613b4b575b5050505050612850565b61399d565b613b7c94613af7613b6593613b7396519586938401613661565b613b6d613692565b88615dec565b612043836136cb565b858885838d613b3c565b613b946108d5601454612876565b6138d7565b613ba76108d560135461285f565b6138d1565b855163ea8e4eb560e01b8152600490fd5b60405190613bca826122b3565b600e82526d6d696e74732875696e743235362960901b6020830152565b60405190613bf4826122b3565b600b82526a6d696e746564416765282960a81b6020830152565b60405190613c1b826122b3565b600b82526a6d696e746564717479282960a81b6020830152565b60405190613c42826122b3565b600c82526b6964732875696e743235362960a01b6020830152565b60405190613c6a826122b3565b60098252686d696e74416d74282960b81b6020830152565b919091601992613c966112fd855460010190565b60008052602a6020527f25a1a901705ed15d5376e82511cff743d9474883c82d145cebcc7811e0424a9c613cca8154612850565b905583546040805160208082018490528082529196601f19959091613d0191613cf38a83612305565b613cfb613bbd565b90615da1565b91613d1c613d0d613be7565b613d156123f5565b9085615dec565b93613db8613d3a613d2b613c0e565b613d336123f5565b9087615dec565b97613d698b51613d6181613d55888201906000602083019252565b03848101835282612305565b613b6d613c35565b92848c613d86613d77613c5d565b613d7f6123f5565b908b615dec565b98613d9e613d986112a16000546104b0565b91615f19565b915180809781946333ea87db60e21b8352600483016107fa565b03915afa92831561155257600093613f1b575b50613dd861123984615b43565b613f0a5792613e519492611377613e44938e613a7e8c8f8d908260028f613e1d906112a19f613e0787916106bb565b55846001613e1583546106bb565b0155546106bb565b0155613e2a6001546104b0565b945163c85700fb60e01b8c82015298899560248701612961565b8051810182019101612328565b936001600160a01b03851615613ef95796600182613e95600080516020615f51833981519152999a613e8e8960036113db612f7f9b9a99546106bb565b868661341f565b50541480613eee575b613ee0575b513381526001600160a01b039094166020850152604084019490945260608301939093526080820192909252600060a082015290819060c0820190565b613ee983601b55565b613ea3565b5082601b5410613e9e565b875163baf3f0f760e01b8152600490fd5b8b5163ea8e4eb560e01b8152600490fd5b613f33919350853d8711611c8157611c738183612305565b9138613dcb565b60405190613f47826122b3565b60148252736c6576656c436c617573652875696e743235362960601b6020830152565b908160a0910312610384578051916020820151916040810151916080606083015192015190565b60405190613f9e826122b3565b601382527272616e6b436c617573652875696e743235362960681b6020830152565b613fc8615bc4565b600190815b60088110613fda57505050565b6140739061401f613fec6003546104b0565b61401260405160209261400a82610f6b888783019190602083019252565b610f81613f91565b8051810182019101613f6a565b50505090601f54101590816140b1575b508061409e575b1561408157614051614047826136cb565b90549060031b1c90565b156140785761406e614065614047836136cb565b613b7383601e55565b612850565b613fcd565b61406e83614065565b61406e61408d826136cb565b8154906000199060031b1b19169055565b50601e546140ab8261288d565b14614036565b9050846140bd836105f5565b015410153861402f565b601e906140d482546128a9565b600881106140e157505050565b6140ec6003546104b0565b61410f604091614012835160209261400a82610f6b898783019190602083019252565b5050509183158015906141ae575b8061419e575b61418e57509061414a9291601f5410159081614177575b5080614165575b61414f57612850565b6140d4565b61415881601e55565b61406e83612043836136cb565b5083546141718261288d565b14614141565b90506001614184836105f5565b015410153861413a565b5163baf3f0f760e01b8152600490fd5b5081158061412357508215614123565b50600161411d565b9091906000831561424b57506141cd601e546128a9565b831561429f57600881105b15614299576141e86003546104b0565b61420b604091614012835160209261400a82610f6b898783019190602083019252565b505050918315801590614292575b80614282575b61418e57509061424b9291601f541015908161426b575b50851561425d57806142505761414f57612850565b6141cd565b50601e546141718261288d565b156140815761406e81601e55565b90506001614278836105f5565b0154101538614236565b5081158061421f5750821561421f565b5086614219565b50509050565b601e548111156141d8565b6142b381614c30565b9061430a612e046143026142f76142ec6142e16142d6885160208a0151906128c5565b6060890151906128c5565b6080880151906128c5565b60a0870151906128c5565b60c0860151906128c5565b602c546128c5565b61437761110f61436f61436361435761434b61433f61433360e08a01516101008b0151906128c5565b6101208a0151906128c5565b610140890151906128c5565b610160880151906128c5565b610180870151906128c5565b6101a0860151906128c5565b602b546128c5565b61438a612def6040840151602d546128c5565b6143a361439e6101208401516016546128c5565b601655565b6143b3825160e0840151906128c5565b6143be610e1461064f565b90556143d46020830151610100840151906128c5565b6143df610e146106db565b90556143f56040830151610120840151906128c5565b614400610e14610709565b90556144166060830151610140840151906128c5565b614421610e1461067d565b90556144376080830151610160840151906128c5565b614442610e14610793565b905561445860a0830151610180840151906128c5565b614463610e14610737565b905561447960c08301516101a0840151906128c5565b614484610e14610765565b905560005b6007811061474057506101c08201516144b26144aa8361393f6032546106cb565b9182546133ea565b90556144bd81601b55565b61452461451861450c6145006144f56144ea6144df885160208a0151906128c5565b6040890151906128c5565b6060880151906128c5565b60e0870151906128c5565b610100860151906128c5565b610120850151906128c5565b610140840151906128c5565b80600081156147335750506145436112a16112a16112a16003546104b0565b604051634205de0f60e11b81526004810183905290602090829060249082905afa801561155257826146039161462793600091614714575b505b61458c6108d5826014546128c5565b61459b6108c8836011546128c5565b604080513381526000602082015290810191909152606081019490945260808401859052604e60a0850152600080516020615f5183398151915293849060c090a16145fd6145f2608088015160a0890151906128c5565b60c0880151906128c5565b906128c5565b6145fd61461b610160870151610180880151906128c5565b6101a0870151906128c5565b926000841561470257506146456112a16112a16112a16003546104b0565b604051634205de0f60e11b8152600481018690529190602090839060249082905afa92831561155257612359956146dd946102a0946000916146e3575b505b614698614693826013546128c5565b601355565b6146a76138a8836010546128c5565b604080513381526000602082015290810191909152606081019190915260808101869052604f60a082015260c090a10151151590565b906127ba565b6146fc915060203d60201161154b5761153d8183612305565b38614682565b906146dd92612359956102a093614684565b61472d915060203d60201161154b5761153d8183612305565b3861457b565b614627916146039161457d565b6001908061478357600080516020615f51833981519152845160e0860151905b61477a61476c856128b7565b8760405194859433866129fa565b0390a101614489565b8082036147aa57600080516020615f51833981519152602085015161010086015190614760565b600281036147d257600080516020615f51833981519152604085015161012086015190614760565b600381036147fa57600080516020615f51833981519152606085015161014086015190614760565b6004810361482257600080516020615f51833981519152608085015161016086015190614760565b6005810361484a57600080516020615f5183398151915260a085015161018086015190614760565b600080516020615f5183398151915260c08501516101a086015190614760565b61487261237b565b9060008083528060208401528060408401528060608401528060808401528060a08401528060c08401528060e08401528061010084015280610120840152806101408401528061016084015280610180840152806101a0840152806101c0840152806101e08401528061020084015280610220840152806102408401528061026084015280610280840152806102a0840152806102c08401526102e0830152565b90816103009103126103845761492761237b565b90805182526020810151602083015260408101516040830152606081015160608301526080810151608083015260a081015160a083015260c081015160c083015260e081015160e0830152610100808201519083015261012080820151908301526101408082015190830152610160808201519083015261018080820151908301526101a080820151908301526101c080820151908301526101e08082015190830152610200808201519083015261022080820151908301526102408082015190830152610260808201519083015261028080820151908301526102a0614a0f8183016125b7565b908301526102c0614a218183016125b7565b908301526135936102e08092016125b7565b6000915b60088310614a4457505050565b600190825181526020809101920192019190614a37565b906080604061235993614a7984825160208091805184520151910152565b614a9460208201518386019060208091805184520151910152565b015191019060208091805184520151910152565b90815180825260208080930193019160005b828110614ac8575050505090565b835185529381019392810192600101614aba565b6106008161233d9360208252805160208301526020810151604083015260408101516060830152614b1560608201516080840190614a33565b614c1f6080820151614b2e610180918286019015159052565b614c118460a0850151926101a0938483015260c0860151936101c0948584015260e08701516101e09081850152610100880151610200908186015261012089015191614b8061022093848801906107ed565b6101408a015193614b9761024095868901906107ed565b614bc06101608c015196614bb161026098898b01906107ed565b8c0151610280809901906107ed565b8a0151976102a098898d01528a01516102c0809c01528901516102e08d01528801516103008c01528701516103208b01528601516103408a0152850151610360890152840151610380880190612b1f565b820151610520860190614a5b565b0151916105e0808201520190614aa8565b614c3861486a565b50614c41614f81565b614c4c6003546104b0565b6040516395bf75fd60e01b8152909260c0826004816001600160a01b0388165afa801561155257614e5594614c94614d0892614e3095600091614ea7575b5015156080870152565b614c9c6152bb565b9060a087019060c088019283528152614cbe614cb661064f565b54825161289c565b9052614ccb614cb661067d565b9052828552601b546020860152601e546040860152614ce861508e565b606086015260285460e0860152602d546101008601526101208501612901565b614d20614d166004546104b0565b6101408501612901565b614d38614d2e6009546104b0565b6101608501612901565b614d50614d466001546104b0565b6101808501612901565b614d58610793565b546101a0840152614d67610737565b546101c0840152614d76610765565b546101e0840152614d85610632565b546102008401527fa08b36b7ba7f4defefa1c8f3c69a108432bbe4655c8244397472448770784778546102208401527f8c201e80a21b907aa5b47fe57132b3746ed081b3b8b146bb189ca4224d85a0c354610240840152600760005260356020527f4cdc807314a0b9d33865fa60bdf0631878a9fab6f09e457a18b589bf84168f6c54610260840152614e16612cc6565b610280840152614e25816150ee565b6102c0840152615188565b6102a0820152604051906394e6d3bb60e01b8252818061030094859360048301614adc565b038173__$e1247df8a8a3e3350a56478f11053bf229$__5af491821561155257600092614e8157505090565b61233d9250803d10614ea0575b614e988183612305565b810190614913565b503d614e8e565b614ec8915060c03d8111614ed4575b614ec08183612305565b810190615039565b94505050505038614c8a565b503d614eb6565b60405190614ee8826122e9565b610100368337565b6040519060e082016001600160401b038111838210176120635760405260e0368337565b60408051919082016001600160401b038111838210176120635760405260006020838281520152565b60405190606082016001600160401b038111838210176120635760405281614f63614f14565b8152614f6d614f14565b60208201526040614f7c614f14565b910152565b614f8961239b565b906000808352806020840152806040840152614fa3614edb565b60608401528060808401528060a08401528060c08401528060e08401528061010084015280610120840152806101408401528061016084015280610180840152806101a0840152806101c0840152806101e084015280610200840152806102208401528061024084015261026083015261501b612c54565b610280830152615029614f3d565b6102a083015260606102c0830152565b91908260c091031261038457815161505081610854565b91602081015161505f81610854565b91604082015161506e81610854565b91606081015161507d81610854565b9160a060808301516125e781610854565b604051906020600081845b600883106150ae5750505050612359826122e9565b60018281928654815201940192019192615099565b6001600160401b0381116120635760051b60200190565b80518210156105d75760209160051b010190565b90601b5480830392831161091957615105836150c3565b9260409361511585519182612305565b818152601f19615124836150c3565b01946020953687840137819560009081603254905b86811061514a575050505050505050565b818452603383528484209080890191828a11610919576001926151769190600052602052604060002090565b5461518182896150da565b5201615139565b906151c1615194614f3d565b9261519e816151cf565b8551906020820152526151b081615245565b602086015190602082015252615280565b604084015190602082015252565b906103e760005260356020526040600020805490811561523f5760018216159384156152365760ff60025b1683038381116109195761520e90836127a2565b90549060031b1c94600014615230575061522a6140479261288d565b906127a2565b91505090565b60ff60016151fa565b50508190565b90600260005260356020526040600020805490811561523f5760018216159384156152365760011983018381116109195761520e90836127a2565b90600360005260356020526040600020805490811561523f5760018216159384156152365760011983018381116109195761520e90836127a2565b600090816001815b600f8211156152e8575050602e5481018091116109195761233d9092602f54906128c5565b9093848252603492602093808552604090600282862001548301809311610919576003929588865252832001548101809111610919576153289094612850565b906152c3565b90615337614ef0565b91600181146153d657600281146153935760031461535157565b905061535b6123bb565b600f548152601554602082015260105460408201526013546060820152600e54608082015260125460a082015260145460c082015290565b50905061539e6123bb565b602c548152602d546020820152602b5460408201526016546060820152602e546080820152602f5460a082015260115460c082015290565b5090506153e16123bb565b6153e961064f565b5481526153f46106db565b546020820152615402610709565b54604082015261541061067d565b54606082015261541e610793565b54608082015261542c610737565b5460a082015261543a610765565b5460c082015290565b6040519061545082612298565b60006060838281528260208201528260408201520152565b9060405161547581612298565b6060600382948054845260018101546020850152600281015460408501520154910152565b6001600160a01b039081169081156154e6576000548260018060a01b0319821617600055167fe939feee179e631422bcc8f6e6d7d908cb3f8af38f5372f17c77e15aea5c80ee600080a3565b60405163e6c4247b60e01b8152600490fd5b6156fc6101406123599261553161550f82516104b0565b600280546001600160a01b0319166001600160a01b0392909216919091179055565b61556361554160208301516104b0565b600380546001600160a01b0319166001600160a01b0392909216919091179055565b61559561557360408301516104b0565b600480546001600160a01b0319166001600160a01b0392909216919091179055565b6155c76155a560608301516104b0565b600580546001600160a01b0319166001600160a01b0392909216919091179055565b6155f96155d760808301516104b0565b600680546001600160a01b0319166001600160a01b0392909216919091179055565b61562b61560960a08301516104b0565b600780546001600160a01b0319166001600160a01b0392909216919091179055565b61565d61563b60c08301516104b0565b600880546001600160a01b0319166001600160a01b0392909216919091179055565b61568f61566d60e08301516104b0565b600980546001600160a01b0319166001600160a01b0392909216919091179055565b6156c26156a06101008301516104b0565b600a80546001600160a01b0319166001600160a01b0392909216919091179055565b6156f56156d36101208301516104b0565b600b80546001600160a01b0319166001600160a01b0392909216919091179055565b01516104b0565b600c80546001600160a01b0319166001600160a01b0392909216919091179055565b600061572d6112a182546104b0565b60408051634bf9c0ad60e11b8152929190600490602080868481875afa958615611552578596615a9d575b50815163cfbffe5360e01b81529181838581885afa928315611552578693615a7e575b50805163ab6e844f60e01b815282818681895afa908115611552578791615a61575b508151630536340960e21b8152838187818a5afa908115611552578891615a44575b50825163d1f956b160e01b815291848388818b5afa928315611552578993615a25575b508351631cc3bfab60e31b815293858589818c5afa948515611552578a95615a06575b50805163e09d394d60e01b81529686888a818d5afa9687156115525789988c986159e7575b5082516314ac1b5960e21b81529881908a90818e5afa988915611552578c996159c8575b5082519963013cf08b60e01b8b52818b8d8180615872868201906000602083019252565b03915afa9a8b15611552578d9b6159a9575b508351635e09dbe760e01b81529b828d8381845afa9c8d15611552578e9d615988575b508290855192838092635506ee0b60e11b82525afa9c8d15611552579c615969575b506158d261235b565b9c6158dd908e612901565b8c01906158e991612901565b8a01906158f591612901565b6159029060608a01612901565b61590f9060808901612901565b61591c9060a08801612901565b6159299060c08701612901565b6159369060e08601612901565b615944906101008501612901565b615952906101208401612901565b615960906101408301612901565b612359906154f8565b81615981929d508d3d10611c8157611c738183612305565b9a386158c9565b83919d506159a290823d8411611c8157611c738183612305565b9c906158a7565b6159c1919b50823d8411611c8157611c738183612305565b9938615884565b816159e0929a503d8b11611c8157611c738183612305565b973861584e565b816159ff9299503d8a11611c8157611c738183612305565b963861582a565b615a1e919550863d8811611c8157611c738183612305565b9338615805565b615a3d919350853d8711611c8157611c738183612305565b91386157e2565b615a5b9150843d8611611c8157611c738183612305565b386157bf565b615a789150833d8511611c8157611c738183612305565b3861579d565b615a96919350823d8411611c8157611c738183612305565b913861577b565b81615ab59297503d8811611c8157611c738183612305565b9438615758565b90816020910312610384575161233d81610854565b600254604051615b19916001600160a01b031690615aee816122b3565b6008815267697353616665282960c01b602082015260405191615b10836122ce565b60008352615d0a565b9080615b38575b15610578578060208061233d93518301019101615abc565b506020815114615b20565b615b9d60018060a01b038060025416604051916020941684830152838252615b6a826122b3565b60405190615b77826122b3565b601582527469735365637572654261736528616464726573732960581b85830152615d0a565b9080615bba575b15610578578161233d9282518301019101615abc565b5081815114615ba4565b60035460405161233d916001600160a01b031690615be1816122b3565b600681526569416765282960d01b602082015260405191611767836122ce565b6001600160a01b039081169081156154e657600180546001600160a01b031981168417909155167f8292fce18fa69edf4db7b94ea2e58241df0ae57f97e0a6c9b29067028bf92d76600080a3565b3d15615c7a573d90615c60826123da565b91615c6e6040519384612305565b82523d6000602084013e565b606090565b908015615cdb576001600160a01b0382169182156154e657600080808481945af1615ca8615c4f565b50156105785760207fcec1f18c3ab8ddaaa107a1591e3c369667eec613626611a8deaedef43069fcdd91604051908152a2565b5050565b90615cea9291615d0a565b9060009015615cf7575090565b6040519150615d05826122ce565b815290565b9190823b15615d88578051906020918263ffffffff60e01b92012016916040519180830193845281519160005b838110615d74575050509181615d6460248260009795968897018783820152036004810184520182612305565b51915afa615d70615c4f565b9091565b818101830151858201602401528201615d37565b505050600090604051615d9a816122ce565b6000815290565b9291615daf91600094615d0a565b9080615de1575b615dbd5750565b80519192506001600160a01b0391615ddd91602091810182019101612328565b1690565b506020815114615db6565b9291615dfa91600094615d0a565b9080615e1d575b615e085750565b61233d919250602080825183010191016128f2565b506020815114615e01565b9291615e3691600094615d0a565b9080615e5b575b615e445750565b909150602081805181010312610384576020015190565b506020815114615e3d565b906020825192015163ffffffff60e01b908181169360048110615e8857505050565b60040360031b82901b16169150565b6001600160a01b038116156154e657600080918351908260208601915af190615ebe615c4f565b9115615ec8575090565b805160009190600411615f1357615edf9150615e66565b815115615eef5750805190602001fd5b604051630870274d60e21b81526001600160e01b0319919091166004820152602490fd5b50615edf565b803b6000615f26826123da565b92615f346040519485612305565b82845260208401903c602d815110610d3857602a015160601c9056fe1517c86fcf2bfb8e3468afcc539b0004955da8027797c497ea51d1f1094ab898ecdfbf0bdef04c31b6b583fa641eb3fda9723c1027ee16c0cdd8e9ef0f675d99a26469706673582212202b5117fa1aef5767813f092ab79923e4c0b23acc7fa041d7e36e1714c6b7061664736f6c63430008140033","linkReferences":{"src_19JulyUpdated01Jan/lib/InstanceLib.sol":{"InstanceLib":[{"start":11455,"length":20},{"start":20280,"length":20}]}}},"methodIdentifiers":{"Burn(uint256)":"b90306ad","BurnCoin(uint256,uint256)":"a5d7cda4","LSB(uint256,uint256)":"6f493aad","TVL()":"edaf2d2e","_delegatorCount()":"a1f7f539","_getImplementation(address)":"c54e44b0","_isDelegatorNode(address)":"e01ad5fd","_isSafe()":"e0a9bc2b","_isSecureBase(address)":"af484526","_isSigner(address)":"1f185d16","_txnType107(uint256,uint256)":"a1c25c86","_txnType_101_100(address,uint256,uint256,uint256,uint256,uint256)":"87acdff7","activedirectsCount()":"799e4c45","addLevelnGetRank(uint256,uint256,uint256,uint256,uint256,bool)":"822ffec4","bonus()":"75b4d78c","cage()":"69245009","currentCycle()":"bab2f552","currentLSBversion()":"43a1b5ab","dage()":"725b6fff","getAllComputeData(uint256)":"b9f1a394","getAllData(uint256,uint256)":"12964120","getBalance()":"12065fe0","getHexbase()":"3b9b7955","getNodeLB(uint256)":"da021335","getNodeLvlInfoBatch(uint256,uint256)":"759f22bd","getRankAgeInBatch()":"6de97c66","getRankWithAgeValue()":"29ee350e","getToggleAgeCount(uint256)":"143ec3b7","getToggleAgeValue(uint256,uint256)":"043719b4","id()":"af640d0f","importOld(uint256)":"d3abb8a3","isLock()":"09d8da2e","mintCount()":"9659867e","mints(uint256)":"6350b2c2","moveLvlIncome(uint256,uint256,uint256,uint256,bool)":"7b058ac1","owner()":"8da5cb5b","postInit()":"4a65786c","preinit(address,address,uint256,bool,uint256)":"a93491f3","rank()":"934209ce","resetRank()":"ab57c03a","setActivedirect(bool)":"711e5870","setBonus(uint256)":"0b98f975","setLock(bool)":"619d5194","setSuspend(uint256,bool)":"c8ef7b1a","setcapclaim(uint256,uint256,uint256,bool)":"47a09a1d","storcache()":"5ecf6a8a","syncBaseAddr()":"339459a6","systemAge()":"fdc10bc9","updateOwner(address)":"880cdc31","userCycleMintCount(uint256)":"39b4d61b","withdrawlDage()":"a9bf285b"},"id":52}