{"abi":[{"type":"constructor","inputs":[{"name":"_hex","type":"address","internalType":"address"}],"stateMutability":"nonpayable"},{"type":"fallback","stateMutability":"payable"},{"type":"receive","stateMutability":"payable"},{"type":"function","name":"Burn","inputs":[{"name":"amount","type":"uint256","internalType":"uint256"}],"outputs":[],"stateMutability":"nonpayable"},{"type":"function","name":"BurnCoin","inputs":[],"outputs":[],"stateMutability":"payable"},{"type":"function","name":"LSB","inputs":[{"name":"","type":"uint256","internalType":"uint256"}],"outputs":[{"name":"","type":"int256","internalType":"int256"}],"stateMutability":"view"},{"type":"function","name":"_compute","inputs":[{"name":"endage","type":"uint256","internalType":"uint256"}],"outputs":[{"name":"r","type":"tuple","internalType":"struct InstanceStor.ComputeResult","components":[{"name":"p1","type":"uint256","internalType":"uint256"},{"name":"p2","type":"uint256","internalType":"uint256"},{"name":"p3","type":"uint256","internalType":"uint256"},{"name":"p4","type":"uint256","internalType":"uint256"},{"name":"p5","type":"uint256","internalType":"uint256"},{"name":"p6","type":"uint256","internalType":"uint256"},{"name":"p7","type":"uint256","internalType":"uint256"},{"name":"f1","type":"uint256","internalType":"uint256"},{"name":"f2","type":"uint256","internalType":"uint256"},{"name":"f3","type":"uint256","internalType":"uint256"},{"name":"f4","type":"uint256","internalType":"uint256"},{"name":"f5","type":"uint256","internalType":"uint256"},{"name":"f6","type":"uint256","internalType":"uint256"},{"name":"f7","type":"uint256","internalType":"uint256"},{"name":"lsb","type":"int256","internalType":"int256"}]}],"stateMutability":"view"},{"type":"function","name":"_delegatorCount","inputs":[],"outputs":[{"name":"","type":"uint256","internalType":"uint256"}],"stateMutability":"view"},{"type":"function","name":"_getImplementation","inputs":[{"name":"clone","type":"address","internalType":"address"}],"outputs":[{"name":"impl","type":"address","internalType":"address"}],"stateMutability":"view"},{"type":"function","name":"_importOld","inputs":[{"name":"limit","type":"uint256","internalType":"uint256"}],"outputs":[],"stateMutability":"payable"},{"type":"function","name":"_isDelegatorNode","inputs":[{"name":"sender","type":"address","internalType":"address"}],"outputs":[{"name":"","type":"bool","internalType":"bool"}],"stateMutability":"view"},{"type":"function","name":"_isSafe","inputs":[],"outputs":[{"name":"","type":"bool","internalType":"bool"}],"stateMutability":"view"},{"type":"function","name":"_isSecureBase","inputs":[{"name":"sender","type":"address","internalType":"address"}],"outputs":[{"name":"","type":"bool","internalType":"bool"}],"stateMutability":"view"},{"type":"function","name":"_isSigner","inputs":[{"name":"sender","type":"address","internalType":"address"}],"outputs":[{"name":"","type":"bool","internalType":"bool"}],"stateMutability":"view"},{"type":"function","name":"_txnType7","inputs":[{"name":"_maxint","type":"uint256","internalType":"uint256"},{"name":"_ag","type":"uint256","internalType":"uint256"}],"outputs":[{"name":"CALC_INC","type":"uint256[9]","internalType":"uint256[9]"}],"stateMutability":"payable"},{"type":"function","name":"_txnType_1_0","inputs":[{"name":"paramAdd","type":"address","internalType":"address"},{"name":"_id_maxint","type":"uint256","internalType":"uint256"},{"name":"_qty","type":"uint256","internalType":"uint256"},{"name":"_msgValue","type":"uint256","internalType":"uint256"},{"name":"_type","type":"uint256","internalType":"uint256"}],"outputs":[{"name":"_tvl","type":"uint256","internalType":"uint256"},{"name":"_amt","type":"uint256","internalType":"uint256"}],"stateMutability":"payable"},{"type":"function","name":"addLevelnGetRank","inputs":[{"name":"_amount","type":"uint256","internalType":"uint256"},{"name":"_qty","type":"uint256","internalType":"uint256"},{"name":"_level","type":"uint256","internalType":"uint256"},{"name":"_epochAge","type":"uint256","internalType":"uint256"},{"name":"_free","type":"uint256","internalType":"uint256"},{"name":"_tobeSkipped","type":"bool","internalType":"bool"}],"outputs":[{"name":"currentrnk","type":"uint256","internalType":"uint256"}],"stateMutability":"nonpayable"},{"type":"function","name":"bonus","inputs":[],"outputs":[{"name":"","type":"uint256","internalType":"uint256"}],"stateMutability":"view"},{"type":"function","name":"cage","inputs":[],"outputs":[{"name":"","type":"uint256","internalType":"uint256"}],"stateMutability":"view"},{"type":"function","name":"capStatus","inputs":[],"outputs":[{"name":"totalIncome","type":"uint256","internalType":"uint256"},{"name":"threshold","type":"uint256","internalType":"uint256"},{"name":"_cap","type":"bool","internalType":"bool"},{"name":"currentValue","type":"uint256","internalType":"uint256"}],"stateMutability":"view"},{"type":"function","name":"dage","inputs":[],"outputs":[{"name":"","type":"uint256","internalType":"uint256"}],"stateMutability":"view"},{"type":"function","name":"directsCount","inputs":[],"outputs":[{"name":"","type":"uint256","internalType":"uint256"}],"stateMutability":"view"},{"type":"function","name":"getAllIncome","inputs":[{"name":"typeId","type":"uint256","internalType":"uint256"},{"name":"maxinterwal","type":"uint256","internalType":"uint256"}],"outputs":[{"name":"values","type":"uint256[7]","internalType":"uint256[7]"}],"stateMutability":"view"},{"type":"function","name":"getBalance","inputs":[],"outputs":[{"name":"","type":"uint256","internalType":"uint256"}],"stateMutability":"view"},{"type":"function","name":"getHexbase","inputs":[],"outputs":[{"name":"","type":"address","internalType":"address"}],"stateMutability":"view"},{"type":"function","name":"getNodeLB","inputs":[{"name":"_level","type":"uint256","internalType":"uint256"}],"outputs":[{"name":"","type":"tuple","internalType":"struct InstanceStor.LevelInfoStr","components":[{"name":"lvlbs","type":"uint256","internalType":"uint256"},{"name":"lvlqty","type":"uint256","internalType":"uint256"},{"name":"lvlrwrd","type":"uint256","internalType":"uint256"},{"name":"lvlyei","type":"uint256","internalType":"uint256"}]}],"stateMutability":"view"},{"type":"function","name":"getNodeLvlInfoBatch","inputs":[{"name":"from","type":"uint256","internalType":"uint256"},{"name":"to","type":"uint256","internalType":"uint256"}],"outputs":[{"name":"info","type":"tuple[]","internalType":"struct InstanceStor.LevelInfoStr[]","components":[{"name":"lvlbs","type":"uint256","internalType":"uint256"},{"name":"lvlqty","type":"uint256","internalType":"uint256"},{"name":"lvlrwrd","type":"uint256","internalType":"uint256"},{"name":"lvlyei","type":"uint256","internalType":"uint256"}]}],"stateMutability":"view"},{"type":"function","name":"getRankAgeInBatch","inputs":[],"outputs":[{"name":"rankagebatch","type":"uint256[]","internalType":"uint256[]"}],"stateMutability":"view"},{"type":"function","name":"getRankWithAgeValue","inputs":[],"outputs":[{"name":"","type":"uint256","internalType":"uint256"},{"name":"","type":"uint256","internalType":"uint256"}],"stateMutability":"view"},{"type":"function","name":"getToggleAgeCount","inputs":[{"name":"key","type":"uint256","internalType":"uint256"}],"outputs":[{"name":"","type":"uint256","internalType":"uint256"}],"stateMutability":"view"},{"type":"function","name":"getToggleAgeValue","inputs":[{"name":"key","type":"uint256","internalType":"uint256"},{"name":"index","type":"uint256","internalType":"uint256"}],"outputs":[{"name":"","type":"uint256","internalType":"uint256"}],"stateMutability":"view"},{"type":"function","name":"id","inputs":[],"outputs":[{"name":"","type":"uint256","internalType":"uint256"}],"stateMutability":"view"},{"type":"function","name":"isLock","inputs":[],"outputs":[{"name":"","type":"bool","internalType":"bool"}],"stateMutability":"view"},{"type":"function","name":"mintCount","inputs":[],"outputs":[{"name":"","type":"uint256","internalType":"uint256"}],"stateMutability":"view"},{"type":"function","name":"mints","inputs":[{"name":"","type":"uint256","internalType":"uint256"}],"outputs":[{"name":"amt","type":"uint256","internalType":"uint256"},{"name":"qty","type":"uint256","internalType":"uint256"},{"name":"mage","type":"uint256","internalType":"uint256"},{"name":"nft","type":"address","internalType":"address"}],"stateMutability":"view"},{"type":"function","name":"moveLvlIncome","inputs":[{"name":"_amount","type":"uint256","internalType":"uint256"},{"name":"_qty","type":"uint256","internalType":"uint256"},{"name":"_level","type":"uint256","internalType":"uint256"},{"name":"_epochAge","type":"uint256","internalType":"uint256"},{"name":"_op","type":"bool","internalType":"bool"}],"outputs":[{"name":"lastrnk","type":"uint256","internalType":"uint256"},{"name":"currentrnk","type":"uint256","internalType":"uint256"}],"stateMutability":"nonpayable"},{"type":"function","name":"owner","inputs":[],"outputs":[{"name":"","type":"address","internalType":"address"}],"stateMutability":"view"},{"type":"function","name":"postInit","inputs":[],"outputs":[{"name":"","type":"bool","internalType":"bool"}],"stateMutability":"view"},{"type":"function","name":"preinit","inputs":[{"name":"_hex","type":"address","internalType":"address"},{"name":"_own","type":"address","internalType":"address"},{"name":"_id","type":"uint256","internalType":"uint256"}],"outputs":[],"stateMutability":"nonpayable"},{"type":"function","name":"rank","inputs":[],"outputs":[{"name":"","type":"uint256","internalType":"uint256"}],"stateMutability":"view"},{"type":"function","name":"rankage","inputs":[{"name":"","type":"uint256","internalType":"uint256"}],"outputs":[{"name":"","type":"uint256","internalType":"uint256"}],"stateMutability":"view"},{"type":"function","name":"setBonus","inputs":[{"name":"b","type":"uint256","internalType":"uint256"}],"outputs":[],"stateMutability":"nonpayable"},{"type":"function","name":"setLock","inputs":[{"name":"flag","type":"bool","internalType":"bool"}],"outputs":[],"stateMutability":"nonpayable"},{"type":"function","name":"setSuspend","inputs":[{"name":"key","type":"uint256","internalType":"uint256"},{"name":"value","type":"bool","internalType":"bool"}],"outputs":[],"stateMutability":"nonpayable"},{"type":"function","name":"setdirect","inputs":[{"name":"addremove","type":"bool","internalType":"bool"}],"outputs":[],"stateMutability":"nonpayable"},{"type":"function","name":"systemAge","inputs":[],"outputs":[{"name":"","type":"uint256","internalType":"uint256"}],"stateMutability":"view"},{"type":"function","name":"updateOwner","inputs":[{"name":"_newowner","type":"address","internalType":"address"}],"outputs":[],"stateMutability":"nonpayable"},{"type":"function","name":"userCycleMintCount","inputs":[{"name":"","type":"uint256","internalType":"uint256"}],"outputs":[{"name":"","type":"uint256","internalType":"uint256"}],"stateMutability":"view"},{"type":"function","name":"withdrawlDage","inputs":[],"outputs":[{"name":"","type":"uint256","internalType":"uint256"}],"stateMutability":"view"},{"type":"event","name":"EthBurned","inputs":[{"name":"sender","type":"address","indexed":true,"internalType":"address"},{"name":"amount","type":"uint256","indexed":false,"internalType":"uint256"}],"anonymous":false},{"type":"event","name":"EthTransferred","inputs":[{"name":"to","type":"address","indexed":true,"internalType":"address"},{"name":"amount","type":"uint256","indexed":false,"internalType":"uint256"}],"anonymous":false},{"type":"event","name":"HexBaseUpdated","inputs":[{"name":"previousHexBase","type":"address","indexed":true,"internalType":"address"},{"name":"newHexBase","type":"address","indexed":true,"internalType":"address"}],"anonymous":false},{"type":"event","name":"LogTxns","inputs":[{"name":"from","type":"address","indexed":false,"internalType":"address"},{"name":"orc1155","type":"address","indexed":false,"internalType":"address"},{"name":"_amt","type":"uint256","indexed":false,"internalType":"uint256"},{"name":"_value","type":"uint256","indexed":false,"internalType":"uint256"},{"name":"_time","type":"uint256","indexed":false,"internalType":"uint256"},{"name":"_type","type":"uint256","indexed":false,"internalType":"uint256"}],"anonymous":false},{"type":"event","name":"OwnerUpdated","inputs":[{"name":"previousOwner","type":"address","indexed":true,"internalType":"address"},{"name":"newOwner","type":"address","indexed":true,"internalType":"address"}],"anonymous":false},{"type":"error","name":"GlobalPoolLimitReached","inputs":[]},{"type":"error","name":"ImportLimitExceeded","inputs":[]},{"type":"error","name":"InvalidClone","inputs":[]},{"type":"error","name":"InvalidMintCycleLimit","inputs":[]},{"type":"error","name":"InvalidValue","inputs":[]},{"type":"error","name":"InvalidnewOwner","inputs":[]},{"type":"error","name":"MintLimitExceeded","inputs":[]},{"type":"error","name":"PreInitException","inputs":[]},{"type":"error","name":"ReentrancyGuardReentrantCall","inputs":[]},{"type":"error","name":"StorLocked","inputs":[]},{"type":"error","name":"TargetCallFailed","inputs":[{"name":"selector","type":"bytes4","internalType":"bytes4"}]},{"type":"error","name":"UnsecureORC1155","inputs":[]}],"bytecode":{"object":"0x608034620000d157601f62006cda38819003918201601f19168301916001600160401b03831184841017620000d657808492602094604052833981010312620000d157516001600160a01b03811690819003620000d15780156200008c5760018060a01b03193381600154161760015560005416176000556001600355604051616bed9081620000ed8239f35b60405162461bcd60e51b815260206004820152601360248201527f6f776e2e696e76616c69642e68657862617365000000000000000000000000006044820152606490fd5b600080fd5b634e487b7160e01b600052604160045260246000fdfe60806040526004361015610018575b361561001657005b005b60003560e01c806302a085f2146102f8578063043719b4146102f357806309d8da2e146102ee5780630b98f975146102e957806312065fe0146102e4578063141ca660146102df578063143ec3b7146102da5780631f185d16146102d557806329ee350e146102d05780632c2838e8146102cb57806339b4d61b146102c65780633b9b7955146102c15780634a65786c146102bc57806352902c59146102b7578063619d5194146102b25780636350b2c2146102ad57806369245009146102a85780636de97c66146102a3578063725b6fff1461029e578063759f22bd1461029957806375b4d78c146102945780637b058ac11461028f5780637bfbfecb1461028a578063822ffec414610285578063880cdc31146102805780638da5cb5b1461027b578063932ca2d614610276578063934209ce146102715780639659867e1461026c578063a153154514610267578063a1f7f53914610262578063a20199ac1461025d578063a98bf4f914610258578063a9bf285b14610253578063af4845261461024e578063af640d0f14610249578063b90306ad14610244578063c54e44b01461023f578063c8ef7b1a1461023a578063d2a1590414610235578063d3a1a49914610230578063da0213351461022b578063deb1ba1e14610226578063e01ad5fd14610221578063e0a9bc2b1461021c5763fdc10bc90361000e5761188c565b611871565b6117d7565b611723565b61169c565b611670565b61162a565b611573565b61153b565b61147f565b611461565b611430565b611412565b6113e6565b61139a565b6112ec565b6112b7565b611299565b61127b565b6111bc565b611195565b6110e1565b611004565b610e4f565b610d7d565b610d5f565b610c80565b610bfc565b610b6a565b610b11565b610aba565b6109f9565b6108c3565b61089d565b610876565b61084a565b61078e565b610755565b610645565b610608565b61055b565b61053f565b61049c565b610479565b61043d565b61032c565b610120810192916000915b6009831061031557505050565b600190825181526020809101920192019190610308565b6040366003190112610438576040516103448161194d565b61012036823760ff600454166104275761036461035f616270565b6118af565b61036d336163b4565b80156103a1575b61039d9161038461039192611a04565b6024359060043590612356565b604051918291826102fd565b0390f35b506004906001600160a01b03906020826000541660405194858092630536340960e21b82525afa9283156104225761039d9361039193610384926000926103f2575b50339116149250509150610374565b61041491925060203d811161041b575b61040c81836119be565b8101906119e0565b90386103e3565b503d610402565b6119f8565b600460405163658141c160e01b8152fd5b600080fd5b3461043857604036600319011261043857600435600052601a602052602061046b6024356040600020611aad565b90546040519160031b1c8152f35b3461043857600036600319011261043857602060ff600454166040519015158152f35b34610438576020366003190112610438576104b861035f616270565b6104c1336163b4565b80156104dc575b6104d190611a04565b610016600435600555565b5060046001600160a01b036020816000541660405193848092630536340960e21b82525afa908115610422576104d19260009261051f575b5016331490506104c8565b61053891925060203d811161041b5761040c81836119be565b9038610514565b3461043857600036600319011261043857602047604051908152f35b60203660031901126104385761057261035f616270565b61057b336163b4565b80156105a5575b61058b90611a04565b610593612307565b61059e60043561314c565b6001600355005b5060046001600160a01b036020816000541660405193848092630536340960e21b82525afa9081156104225761058b926000926105e8575b501633149050610582565b61060191925060203d811161041b5761040c81836119be565b90386105dd565b3461043857602036600319011261043857600435600052601a6020526020604060002054604051908152f35b6001600160a01b0381160361043857565b34610438576020806003193601126104385760049081359061066682610634565b8061068861067c6000546001600160a01b031690565b6001600160a01b031690565b60405194858092634bf9c0ad60e11b82525afa918215610422576106dc610716936106f89261039d96600092610732575b506106ea906040519384918783019190916001600160a01b036020820193169052565b03601f1981018452836119be565b6106f261645e565b90616889565b919080610728575b61070990616497565b808251830101910161625b565b60405190151581529081906020820190565b5081518114610700565b6106ea91925061074e90863d881161041b5761040c81836119be565b91906106b9565b3461043857600036600319011261043857600b54600881101561078957600d81015460408051928352602083019190915290f35b611648565b34610438576020366003190112610438576101e06107ad600435614c9a565b60405190805182526020810151602083015260408101516040830152606081015160608301526080810151608083015260a081015160a083015260c081015160c083015260e081015160e0830152610100808201519083015261012080820151908301526101408082015190830152610160808201519083015261018080820151908301526101a080820151908301526101c08091015190820152f35b346104385760203660031901126104385760043560005260156020526020604060002054604051908152f35b346104385760003660031901126104385760206001600160a01b0360005416604051908152f35b3461043857600036600319011261043857602060ff60045460081c166040519015158152f35b34610438576060366003190112610438576004356108e081610634565b6024356108ec81610634565b6001600160a01b0380921680158080156109e5575b6109bb57610977578261092161096c94600054166001600160a01b031690565b610941836001600160a01b03166001600160a01b03196000541617600055565b167fe939feee179e631422bcc8f6e6d7d908cb3f8af38f5372f17c77e15aea5c80ee600080a36165bb565b610016604435600755565b606460405162461bcd60e51b815260206004820152601360248201527f6f776e2e696e76616c69642e68657862617365000000000000000000000000006044820152fd5b60046040517fa596f2f9000000000000000000000000000000000000000000000000000000008152fd5b5083831615610901565b8015150361043857565b3461043857602036600319011261043857600435610a16816109ef565b610a2161035f616270565b610a2a336163b4565b8015610a50575b90610a3e61001692611a04565b60ff8019600454169115151617600455565b506001600160a01b039060046020836000541660405192838092630536340960e21b82525afa80156104225761001693610a3e92600092610a9a575b503391161491925050610a31565b610ab391925060203d811161041b5761040c81836119be565b9038610a8c565b34610438576020366003190112610438576004356000526017602052608060406000208054906001810154906001600160a01b03600360028301549201541691604051938452602084015260408301526060820152f35b34610438576000366003190112610438576020600a54604051908152f35b6020908160408183019282815285518094520193019160005b828110610b56575050505090565b835185529381019392810192600101610b48565b3461043857600036600319011261043857600b546001810190818111610bf757610b9382616194565b91610ba160405193846119be565b808352610bb0601f1991616194565b0136602084013760005b81811115610bd0576040518061039d8582610b2f565b60088110156107895780610bf291600d0154610bec82866161fc565b52611b61565b610bba565b611b4b565b34610438576000366003190112610438576020600854604051908152f35b6020908160408183019282815285518094520193019160005b828110610c41575050505090565b9091929382608082610c746001948951606080918051845260208101516020850152604081015160408501520151910152565b01950193929101610c33565b3461043857604036600319011261043857600435602435808211610d1b57610cab82610cb0926122b2565b61225d565b610cb9816161ac565b9160005b828110610cd2576040518061039d8682610c1a565b80610cfb610cf6610ce6610d169486612287565b6000526019602052604060002090565b616162565b610d0582876161fc565b52610d1081866161fc565b50611b61565b610cbd565b606460405162461bcd60e51b815260206004820152600d60248201527f496e76616c69642072616e6765000000000000000000000000000000000000006044820152fd5b34610438576000366003190112610438576020600554604051908152f35b346104385760a036600319011261043857608435610d9a816109ef565b610da561035f616270565b610dae336163b4565b8015610de5575b90610dc2610dd392611a04565b606435604435602435600435613b8a565b60408051928352602083019190915290f35b506001600160a01b039060046020836000541660405192838092630536340960e21b82525afa801561042257610dd393610dc292600092610e2f575b503391161491925050610db5565b610e4891925060203d811161041b5761040c81836119be565b9038610e21565b6000806003193601126110015760ff6004541661042757610e6e612307565b610e7e610e796164e2565b600255565b610e9261067c82546001600160a01b031690565b60405190817f1b4fc17b000000000000000000000000000000000000000000000000000000009182825281600460209586935afa801561042257610edf918591610fe4575b50349061667c565b6000805260166020527f0263c2b778d062355049effc2dece97bc6547ff8a88a3258daa512061c2153dd610f14348254612287565b9055610f2d610f21614437565b50915050600254611b06565b81610f4261067c85546001600160a01b031690565b9160046040518094819382525afa908115610422577f1517c86fcf2bfb8e3468afcc539b0004955da8027797c497ea51d1f1094ab898928492610fc7575b5050600254604080513381526001600160a01b0393909316602084015260009083015234606083015260808201526103e860a082015260c090a1610fc46001600355565b80f35b610fdd9250803d1061041b5761040c81836119be565b3880610f80565b610ffb9150843d861161041b5761040c81836119be565b38610ed7565b80fd5b346104385760c03660031901126104385760a435611021816109ef565b61102c61035f616270565b611035336163b4565b8015611070575b61039d9161104c61106092611a04565b608435606435604435602435600435613cb5565b6040519081529081906020820190565b506004906001600160a01b03906020826000541660405194858092630536340960e21b82525afa9283156104225761039d936110609361104c926000926110c1575b5033911614925050915061103c565b6110da91925060203d811161041b5761040c81836119be565b90386110b2565b34610438576020366003190112610438576004356110fe81610634565b61110961035f616270565b611112336163b4565b801561112b575b9061112661001692611a04565b611b97565b506001600160a01b039060046020836000541660405192838092630536340960e21b82525afa8015610422576100169361112692600092611175575b503391161491925050611119565b61118e91925060203d811161041b5761040c81836119be565b9038611167565b346104385760003660031901126104385760206001600160a01b0360015416604051908152f35b60a0366003190112610438576004356111d481610634565b6111df61035f616270565b6111e8336163b4565b8015611211575b906111fc610dd392611a04565b60843590606435906044359060243590611bd9565b506001600160a01b039060046020836000541660405192838092630536340960e21b82525afa801561042257610dd3936111fc9260009261125b575b5033911614919250506111ef565b61127491925060203d811161041b5761040c81836119be565b903861124d565b34610438576000366003190112610438576020600b54604051908152f35b34610438576000366003190112610438576020600654604051908152f35b346104385760003660031901126104385760806112d2614437565b916040519384526020840152151560408301526060820152f35b3461043857600036600319011261043857600460206001600160a01b03600054166040519283809263d1f956b160e01b82525afa9081156104225761039d916110609160009161137c575b506040516113448161196a565b601381527f67657464656c656761746f72436f756e7428290000000000000000000000000060208201526113766120f5565b916169bf565b611394915060203d811161041b5761040c81836119be565b38611337565b34610438576040366003190112610438576113b9602435600435615be6565b60405190600090825b600783106113cf5760e084f35b6001908251815260208091019201920191906113c2565b346104385760203660031901126104385760043560005260186020526020604060002054604051908152f35b34610438576000366003190112610438576020600954604051908152f35b3461043857602036600319011261043857602061145760043561145281610634565b6163b4565b6040519015158152f35b34610438576000366003190112610438576020600754604051908152f35b346104385760203660031901126104385760046001600160a01b036020816000541660405193848092630536340960e21b82525afa9182156104225760009261151b575b50339116036114d757610016600435616766565b606460405162461bcd60e51b815260206004820152600f60248201527f6f776e2e6e6f6e617574682e44414f00000000000000000000000000000000006044820152fd5b61153491925060203d811161041b5761040c81836119be565b90386114c3565b3461043857602036600319011261043857602061156260043561155d81610634565b616b3c565b6001600160a01b0360405191168152f35b3461043857604036600319011261043857602435611590816109ef565b61159b61035f616270565b6115a4336163b4565b80156115c0575b906115b861001692611a04565b600435611a4f565b506001600160a01b039060046020836000541660405192838092630536340960e21b82525afa801561042257610016936115b89260009261160a575b5033911614919250506115ab565b61162391925060203d811161041b5761040c81836119be565b90386115fc565b34610438576000366003190112610438576020600c54604051908152f35b634e487b7160e01b600052603260045260246000fd5b600881101561078957600d0190600090565b3461043857602036600319011261043857600435600881101561043857602090600d0154604051908152f35b34610438576020366003190112610438576116b5612e6a565b506004356000526019602052608060406000206003604051916116d783611910565b805483526001810154602084015260028101546040840152015460608201526117216040518092606080918051845260208101516020850152604081015160408501520151910152565bf35b3461043857602036600319011261043857600435611740816109ef565b61174b61035f616270565b611754336163b4565b801561176d575b9061176861001692611a04565b611b70565b506001600160a01b039060046020836000541660405192838092630536340960e21b82525afa80156104225761001693611768926000926117b7575b50339116149192505061175b565b6117d091925060203d811161041b5761040c81836119be565b90386117a9565b346104385760208060031936011261043857600480356117f681610634565b6001600160a01b03928084600054166040519485809263d1f956b160e01b82525afa9081156104225761039d9461071694600093611852575b5060405193168184015282526118448261196a565b61184c616582565b90616983565b61186a919350823d841161041b5761040c81836119be565b913861182f565b34610438576000366003190112610438576020611457616270565b346104385760003660031901126104385760206118a76164e2565b604051908152f35b156118b657565b606460405162461bcd60e51b815260206004820152601260248201527f6f776e2e696e76616c69642e69735361666500000000000000000000000000006044820152fd5b634e487b7160e01b600052604160045260246000fd5b6080810190811067ffffffffffffffff82111761192c57604052565b6118fa565b6060810190811067ffffffffffffffff82111761192c57604052565b610120810190811067ffffffffffffffff82111761192c57604052565b6040810190811067ffffffffffffffff82111761192c57604052565b6020810190811067ffffffffffffffff82111761192c57604052565b60e0810190811067ffffffffffffffff82111761192c57604052565b90601f8019910116810190811067ffffffffffffffff82111761192c57604052565b9081602091031261043857516119f581610634565b90565b6040513d6000823e3d90fd5b15611a0b57565b606460405162461bcd60e51b815260206004820152601b60248201527f6f776e2e6e6f6e617574682e44414f6f725365637572656261736500000000006044820152fd5b611a576164e2565b9081600255600052601a602052604060002091600014611a9e5781548015908115611a92575b50611a87575b5050565b611a9091611ac5565b565b60019150161538611a7d565b60018083541614611a87575050565b80548210156107895760005260206000200190600090565b908154916801000000000000000083101561192c5782611aed916001611a9095018155611aad565b90919082549060031b91821b91600019901b1916179055565b60c8600052601a6020527f89a06886e0f87a6eda50b0ef62069b00c5adfe20a1b83308f38d3e933d4a6cfe9115611a9e5781548015908115611a925750611a87575050565b634e487b7160e01b600052601160045260246000fd5b6000198114610bf75760010190565b15611b8557611b80600c54611b61565b600c55565b600c548015610bf75760001901600c55565b6001600160a01b03811615611baf57611a90906165bb565b60046040517fb31092f1000000000000000000000000000000000000000000000000000000008152fd5b9092949360049160ff8354166120af57611bf1612307565b611c01611bfd826163b4565b1590565b61209f57611c10610e796164e2565b600094611c2761067c87546001600160a01b031690565b906040928351809663cfbffe5360e01b94858352828260209485935afa978815610422578a98612080575b50611c6c611c5e612108565b611c66612120565b8a6169bf565b97881561203457611c8c611c7e612108565b611c86612159565b836169bf565b90611c9a60029a8b54612192565b91611ccf611cb7611ca9612108565b611cb16121b2565b856169bf565b92611cc0612108565b90611cc96121eb565b906169bf565b90611ce4846000526015602052604060002090565b541091821592612017575b5050611fef57611d09906000526015602052604060002090565b8054600101905560018714948515611fe65782611d3061067c8d546001600160a01b031690565b918389518094819382525afa90811561042257611d71916106dc918d91611fc9575b50611d698c8a519384918883019190602083019252565b611cc9612224565b9b8c955b611ef9575b5050879695937f1517c86fcf2bfb8e3468afcc539b0004955da8027797c497ea51d1f1094ab89898611ecf9694611e1894611e06611e0b9560065415611ee0575b611dce611dc9600654611b61565b600655565b8b5485611dd96120bf565b9288845283015289820152606081019e8f52611e016006546000526017602052604060002090565b6122bf565b612a36565b6001600160a01b03168852565b611e60611e2c88516001600160a01b031690565b6003611e446006546000526017602052604060002090565b01906001600160a01b03166001600160a01b0319825416179055565b88611e91611e6d82612bc6565b98611e84611e79614437565b509150508854611b06565b516001600160a01b031690565b9454915195869533879260a09491979695929760c08501986001600160a01b0380921686521660208501526040840152606083015260808201520152565b0390a1611edc6001600355565b9190565b611eea8c54600855565b611ef48c54600955565b611dbb565b909192939450600554918c611f0e8484612287565b10611f795750887f1517c86fcf2bfb8e3468afcc539b0004955da8027797c497ea51d1f1094ab89899989795611ecf9795611e068f9496611f66611f6187611f5c611e0b9a611e189c612287565b6122b2565b600555565b9550509450949650988195979850611d7a565b611fc590875191829162461bcd60e51b8352820160609060208152601360208201527f73746f722e66616b652e6d696e7476616c75650000000000000000000000000060408201520190565b0390fd5b611fe09150853d871161041b5761040c81836119be565b38611d52565b508b8c95611d75565b5085517feb2c7de7000000000000000000000000000000000000000000000000000000008152fd5b8c109150811561202a575b503880611cef565b90508a1138612022565b611fc582885191829162461bcd60e51b8352820160609060208152601560208201527f696e76616c6964206d696e744379636c6544617973000000000000000000000060408201520190565b612098919850823d841161041b5761040c81836119be565b9638611c52565b82604051630d419f7360e41b8152fd5b8260405163658141c160e01b8152fd5b60405190611a9082611910565b60405190611a90826119a2565b67ffffffffffffffff811161192c57601f01601f191660200190565b6040519061210282611986565b60008252565b60405161211481611986565b60008152906000368137565b6040519061212d8261196a565b600f82527f6d696e744379636c6544617973282900000000000000000000000000000000006020830152565b604051906121668261196a565b601282527f6d61784d696e74735065724379636c65282900000000000000000000000000006020830152565b811561219c570490565b634e487b7160e01b600052601260045260246000fd5b604051906121bf8261196a565b600c82527f6d696e4d696e74517479282900000000000000000000000000000000000000006020830152565b604051906121f88261196a565b600c82527f6d61784d696e74517479282900000000000000000000000000000000000000006020830152565b604051906122318261196a565b601982527f636f6d707574654d696e7456616c75652875696e7432353629000000000000006020830152565b9060018201809211610bf757565b90600e8201809211610bf757565b6046019081604611610bf757565b91908201809211610bf757565b600019810191908211610bf757565b600119810191908211610bf757565b91908203918211610bf757565b60036001600160a01b036060611a90948051855560208101516001860155604081015160028601550151169101906001600160a01b03166001600160a01b0319825416179055565b600260035414612318576002600355565b60046040517f3ee5aeb5000000000000000000000000000000000000000000000000000000008152fd5b6040519061234f826119a2565b60e0368337565b906123699291612364612307565b61249f565b906001600355565b6040519061237e8261196a565b601082527f65616368636c61696d4379636c652829000000000000000000000000000000006020830152565b604051906123b78261196a565b601082527f6d696e436c61696d5065724461792829000000000000000000000000000000006020830152565b604051906123f08261196a565b601082527f6d6178436c61696d5065724461792829000000000000000000000000000000006020830152565b604051906124298261196a565b601682527f6d6178476c6f62616c436c61696d5065724461792829000000000000000000006020830152565b604051906124628261196a565b601582527f67657477697468647261776e2875696e743235362900000000000000000000006020830152565b9060098110156107895760051b0190565b9291838115612a30575060025560006124c261067c82546001600160a01b031690565b6040908151809163cfbffe5360e01b825281600460209384935afa918215610422578492612a11575b506124f4614437565b50969150506125066002968754611b06565b603261253587546008549361251b8186612287565b821115612a0a5761252d915084612287565b925b836122b2565b11612a0257612543906147dc565b612562612559612551612108565b611cb1612371565b60095490612287565b9085549182101561257f575b505050505050611a90610e796164e2565b61259261258a612108565b611cb16123aa565b926125a661259e612108565b611c866123e3565b600f6000526016602052926127086126d86126a86126786126486126187fc361f6d77665192d237562bd0853419e4f63406390ab643d0f1cdbcdd3e2cbae54601060005260166020527f2a87e474c76dec5537d547c3958b767dcf7498ad7afcca0a2eb8ad1481fbf5b65b5490612287565b601160005260166020527f8419164215688829c599d418012c77589d6ed4c687dc9e57a4a19678f70f8a31612611565b601260005260166020527f8531638db615388f9d93ea5c79a334675d6050f9d301f5b6af156a74ff569635612611565b601360005260166020527f8e8ddf6db11641650f4fdf401a12def6a7e0b43b7e1e0b4a9bb751fc3ac1eab5612611565b601460005260166020527f7beb2646ec614ee6b553f9ed5c257fdce28fa220de7a1708afec2ddbe81f1b30612611565b601560005260166020527fe3be994f4df1ce307d3423eeebbbb0cd25598c1b97b848f71392674439a00e37612611565b94851015612718575b505061256e565b61272f600492612726612108565b90611cc961241c565b928061274561067c8a546001600160a01b031690565b88519485809263ab6e844f60e01b82525afa908115610422576127899389926129df575b508751908101928352916127819083906020016106dc565b611cc9612455565b10156129b657808211156129ae576127a0916122b2565b9060015b60078111156128275750507f50eede7cc9d9157638c32051246e3b16ef1b4d09c2f4b59ff806a325cf84bf2c805460e08701527f307cc7fa9030ab778db9755dd3a02d67731fde58e03005caf325db0bce1f2eaf805461010088015260166020908152918490556000919091529190915550546009553880808080808080612711565b6128436128338261226b565b6000526016602052604060002090565b5483612915579061291091612862826000526016602052604060002090565b61286d828254612287565b90558561287c6128338461226b565b5561288f61288983612294565b8a61248e565b525b7f1517c86fcf2bfb8e3468afcc539b0004955da8027797c497ea51d1f1094ab8986128be61288983612294565b518754906129086128ce85612279565b875193849333859094939260a0926001600160a01b0360c08401971683526000602084015260006040840152606083015260808201520152565b0390a1611b61565b6127a4565b8381111561296f579061292b84612910936122b2565b938461294c612944846000526016602052604060002090565b918254612287565b905561295a6128338361226b565b55849361296961288983612294565b52612891565b61297d9061291092946122b2565b92612992816000526016602052604060002090565b50846129a06128338361226b565b558461296961288983612294565b5050816127a0565b600483517f1d63fe21000000000000000000000000000000000000000000000000000000008152fd5b8192506129fb90612781923d851161041b5761040c81836119be565b9190612769565b505050505050565b509261252f565b81612a299293503d841161041b5761040c81836119be565b90386124eb565b93505050565b91612ab692612aa7926001600160a01b039586600154169360025492604051957fc85700fb000000000000000000000000000000000000000000000000000000006020880152602487015260448601526064850152608484015260a483015260a48252612aa2826119a2565b616a47565b602080825183010191016119e0565b168015612ac05790565b60046040517fb1bdf8b0000000000000000000000000000000000000000000000000000000008152fd5b60405190612af78261196a565b600682527f706f6f6c282900000000000000000000000000000000000000000000000000006020830152565b908160e09103126104385780519160208201519160408101519160608201519160808101519160c060a083015192015190565b9061271091828102928184041490151715610bf757565b9081606402916064830403610bf757565b81810292918115918404141715610bf757565b91909160008382019384129112908015821691151617610bf757565b81810392916000138015828513169184121617610bf757565b6004906020612be061067c6000546001600160a01b031690565b6040519384809263cfbffe5360e01b82525afa801561042257612cab612c81612c66612ca6612c71612c5b612c6b612c4b612c3c612c60996119f59c600091612cbd575b50612c2d612108565b90612c36612aea565b9061685e565b60208082518301019101612b23565b9e8f9b969e949892959150612b7e565b612b7e565b93612b7e565b612b56565b90612192565b94612c91612c8182600254612287565b6000526018602052604060002090565b612c9c878254612b91565b9055600254612287565b612287565b612cb6828254612bad565b9055612b7e565b612cd5915060203d811161041b5761040c81836119be565b38612c24565b60405190612ce88261196a565b601382527f55736572546f496e7374286164647265737329000000000000000000000000006020830152565b60405190612d218261196a565b600b82527f6d696e74436f756e7428290000000000000000000000000000000000000000006020830152565b60405190612d5a8261196a565b600e82527f6d696e74732875696e74323536290000000000000000000000000000000000006020830152565b60405190612d938261196a565b600b82527f6d696e74656441676528290000000000000000000000000000000000000000006020830152565b60405190612dcc8261196a565b600b82527f6d696e74656471747928290000000000000000000000000000000000000000006020830152565b60405190612e058261196a565b600c82527f6964732875696e743235362900000000000000000000000000000000000000006020830152565b60405190612e3e8261196a565b600982527f6d696e74416d74282900000000000000000000000000000000000000000000006020830152565b60405190612e7782611910565b60006060838281528260208201528260408201520152565b60405190612e9c8261196a565b600a82527f647261776e6167652829000000000000000000000000000000000000000000006020830152565b60405190612ed58261196a565b600c82527f4c53422875696e743235362900000000000000000000000000000000000000006020830152565b60405190612f0e8261196a565b600782527f647261776e2829000000000000000000000000000000000000000000000000006020830152565b91908260c09103126104385781519160208101519160408201519160608101519160a0608083015192015190565b60405190612f758261196a565b601382527f67657452657761726473286164647265737329000000000000000000000000006020830152565b9190826040910312610438576020825192015190565b60405190612fc48261196a565b600782527f626f6e75732829000000000000000000000000000000000000000000000000006020830152565b60405190612ffd8261196a565b600682527f63616765282900000000000000000000000000000000000000000000000000006020830152565b604051906130368261196a565b601982527f67657445666665637469766552616e6b286164647265737329000000000000006020830152565b6040519061306f8261196a565b601f82527f6765746e6f646572616e6b61676528616464726573732c75696e7432353629006020830152565b604051906130a88261196a565b601082527f6765744e6f6465286164647265737329000000000000000000000000000000006020830152565b908160a09103126104385780519160208201516130f081610634565b9160408101519160806060830151613107816109ef565b9201516119f5816109ef565b604051906131208261196a565b601a82527f77697468647261776e496e636f6d654f662861646472657373290000000000006020830152565b60045460081c60ff16613b8757600490602061317361067c6000546001600160a01b031690565b6040519384809263111ea8c160e21b82525afa91821561042257600092613b66575b506131ea6131ce6131dc6131b16001546001600160a01b031690565b604080516001600160a01b03909216602083015290928391820190565b03601f1981018352826119be565b6131e4612cdb565b8461693a565b906001600160a01b03821615613b425760058111613b185761321b61320d612108565b613215612d14565b846169bf565b906006546132298183612287565b831115613b105761323991612287565b81613738575b50806006541490811561372f575b50613256575050565b61327161326c613264612108565b613215612e8f565b600a55565b600a5460085481116136e7575b506132aa61329b61328d612108565b613295612f01565b8461685e565b60208082518301019101612f3a565b601660209081527f4c4dc693d7db52f85fe052106f4b4b920e78e8ef37dee82878a60ab8585faf49969096557fcaff291fe014adc6b72a172705750b4cabe8f8667664d2924a166caab2885648949094557ff06d282f967055cb1eee17e04aa005b9682a620f4bbcfaee55ba78607a3d87ae929092557fec061709de2491458f4c981032059d7d19b0e55f45018bac6b3e660bdc959a59557fc6a239f207aea309a1b4879cb5411b8facfc2bc1e4cc4717ff2598676c399b5f5560076000527f5c9294642c77fdf0ce4b0f45159c977165b1ec2ef3bb94ee3e2a496634c781e855604080516001600160a01b038416928101929092526133d2916133c3916133b590829081016131ce565b6133bd612f68565b8561685e565b60208082518301019101612fa1565b60166020527fa03de401ff86fc22e691d3563b736c9fadf4f2babab79e9b7995ce6f656920a79190915560686000527f5a2cd1a21e67d7dda0aeee7dda01b941de71cc935cebfacc2b9b226beb2ced3355613439611f61613431612108565b613215612fb7565b61344f61326c613447612108565b613215612ff0565b613486613481604051613479816131ce86602083019190916001600160a01b036020820193169052565b611cb1613029565b600b55565b60005b600f8111156135f257506134cb6106dc6134f1936134c36134da94604051938491602083019190916001600160a01b036020820193169052565b612c3661309b565b602080825183010191016130d4565b935050505060ff8019600454169115151617600455565b6004602061350a61067c6000546001600160a01b031690565b604051928380927f6325dd040000000000000000000000000000000000000000000000000000000082525afa90811561042257613588916106dc916000916135d3575b506135806135636001546001600160a01b031690565b604080516001600160a01b03909216602083015290938491820190565b611cc9613113565b600560005260166020527f5696377e725b42a372ecc45f0fbdab5e9555865aef54619ad9381892f667bbf0556135bf600854600955565b611a9061010061ff00196004541617600455565b6135ec915060203d60201161041b5761040c81836119be565b3861354d565b8061360b9161365a575b600b5481111561361057611b61565b613489565b604080516001600160a01b03851660208201529081018290526136559061364c9061363e81606081016131ce565b613646613062565b876169bf565b611aed8361165e565b611b61565b6040517f5329daca0000000000000000000000000000000000000000000000000000000060208201526001600160a01b0384166024820152604481018290526136b4906133c3906136ae81606481016131ce565b86616a47565b906136c9836000526019602052604060002090565b5560016136e0836000526019602052604060002090565b01556135fc565b6008556137126131ce61370a600a54604051928391602083019190602083019252565b611c86612ec8565b6137286008546000526018602052604060002090565b553861327e565b9050153861324d565b6000805260196020527fd2ac945fcc0096878c763e37d6929b78378c1a2defabde8ba7ee5ed1d6e7a5b2547fd2ac945fcc0096878c763e37d6929b78378c1a2defabde8ba7ee5ed1d6e7a5b3549095909491929091905b60065484811015613ab357611dc96137a691611b61565b6137d46131ce6137c6600654604051928391602083019190602083019252565b6137ce612d4d565b8761693a565b6137ea610e796137e2612108565b613215612d86565b61389c6138006137f8612108565b613215612dbf565b9861382560405161381d816131ce60208201906000602083019252565b611cb1612df8565b9861384261383c613834612108565b613646612e31565b94616b3c565b602061385961067c6000546001600160a01b031690565b6040517fcfaa1f6c0000000000000000000000000000000000000000000000000000000081526001600160a01b0390931660048401529194859081906024820190565b0381845afa93841561042257600094613a92575b506001600160a01b03841615613a20575b506138ce611bfd846163b4565b613a0f578a9284846138de612e6a565b9382855281602086015260029586546040870152838660065461390b906000526017602052604060002090565b90613915916122bf565b61391e91612287565b9e61392891612287565b9c61393293612a36565b600654613949906000526017602052604060002090565b6003019061396c91906001600160a01b03166001600160a01b0319825416179055565b61397584612bc6565b50600654600114936139bb60606139f8937f1517c86fcf2bfb8e3468afcc539b0004955da8027797c497ea51d1f1094ab89897613a00575b01516001600160a01b031690565b9254604080513381526001600160a01b03909516602086015284019490945260608301526080820192909252600060a082015290819060c0820190565b0390a161378f565b613a0a8654600855565b6139ad565b6004604051630d419f7360e41b8152fd5b6040517fb771c89600000000000000000000000000000000000000000000000000000000815260006004820152919350602090829060249082905afa90811561042257600091613a73575b5091386138c1565b613a8c915060203d60201161041b5761040c81836119be565b38613a6b565b613aac91945060203d60201161041b5761040c81836119be565b92386138b0565b506000805260196020527fd2ac945fcc0096878c763e37d6929b78378c1a2defabde8ba7ee5ed1d6e7a5b2969096557fd2ac945fcc0096878c763e37d6929b78378c1a2defabde8ba7ee5ed1d6e7a5b3949094559390503861323f565b505080613239565b60046040517fc99d37d2000000000000000000000000000000000000000000000000000000008152fd5b505050613b5061326c6164e2565b613b5b600a54600855565b6135bf600a54600955565b613b8091925060203d60201161041b5761040c81836119be565b9038613195565b50565b919394929460009560009580613ba2575b5050505050565b600b549750949550919390928315613c09576001613beb83613bf493613bd9612944613bfb9a976000526019602052604060002090565b90556000526019602052604060002090565b01918254612287565b90556141e1565b600b54903880808080613b9b565b908060005260196020526040600020908154928303928311610bf757600192613c3d92556000526019602052604060002090565b01928354908103908111610bf757613bfb93556141e1565b60405190613c628261196a565b601482527f6c6576656c436c617573652875696e74323536290000000000000000000000006020830152565b908160a0910312610438578051916020820151916040810151916080606083015192015190565b9194939290613cce866000526019602052604060002090565b613cd9848254612287565b90556001613cf1876000526019602052604060002090565b01613cfd828254612287565b90556000805260196020527fd2ac945fcc0096878c763e37d6929b78378c1a2defabde8ba7ee5ed1d6e7a5b25415158061404c575b613d43575b505050505050600b5490565b15938415928361403e575b6000613d6461067c82546001600160a01b031690565b95604051809763cfbffe5360e01b825281600460209a8b935afa97881561042257613dbb6106dc613dd89a8d613dc895889261401b575b50613db3906040519384918783019190602083019252565b612c36613c55565b8051810182019101613c8e565b979294919a9098600a54906122b2565b1091821561400e575b5081614005575b50613df6575b505050613d37565b600396613e549615613ffc57612c6b613e12613e189386612b7e565b91612b6d565b965b15613ff25750613e12613e3093612c6b92612b7e565b935b6002613e48826000526019602052604060002090565b01613bd9858254612287565b01613e60838254612287565b905560016000819052601a602052613e9a7ff88cd8d612926ebb404e40725c01084b6e9b3ce0344cde068570342cbd448c615b5460011690565b148015613fb6575b613f7b575b506004600052601a6020526001613edd7f06b28f262ad931a15c9e47271fc159a891b2bcb0da2659cac5bbfed4886cf26e613e93565b148015613f3f575b613f04575b50613ef6610f21614437565b388080808080808080613dee565b600b6000526016602052613f377fcfa8b17cfe829ccfb82a1b8bc946a78d914318562253e01c04a5bbac5c20f86b612944565b905538613eea565b5060c8600052601a6020526001613f757f89a06886e0f87a6eda50b0ef62069b00c5adfe20a1b83308f38d3e933d4a6cfe613e93565b14613ee5565b60086000526016602052613fae7f5d722ae86c7aff0f95f426cf86f75793e8cd1a526603df14563c190f75fd2ef3612944565b905538613ea7565b5060c8600052601a6020526001613fec7f89a06886e0f87a6eda50b0ef62069b00c5adfe20a1b83308f38d3e933d4a6cfe613e93565b14613ea2565b9250505093613e32565b50508096613e1a565b90501538613de8565b600b541015915038613de1565b613db391925061403790863d881161041b5761040c81836119be565b9190613d9b565b6140478361408e565b613d4e565b50851515613d32565b604051906140628261196a565b601382527f72616e6b436c617573652875696e7432353629000000000000000000000000006020830152565b6140a361067c6000546001600160a01b031690565b60409182519283809363cfbffe5360e01b8252602091829160049788915afa938415610422576000946141c2575b50600b906140df825461225d565b600881106140f05750505050505050565b61412961411b855161410d816131ce868883019190602083019252565b614115614055565b8961685e565b838082518301019101613c8e565b50505090811580156141ba575b6141ab579061415c9291600c5410159081614189575b5080614177575b61416157611b61565b6140df565b61416a81600b55565b61365586611aed8361165e565b50835461418382612294565b14614153565b905060016141a1836000526019602052604060002090565b015410153861414c565b888651632a9ffab760e21b8152fd5b508015614136565b816141da9295503d861161041b5761040c81836119be565b92386140d1565b6141f661067c6000546001600160a01b031690565b90604080518094819463cfbffe5360e01b8352602092839160049889915afa94851561042257600095614385575b50156142a357600b90614237825461225d565b600881106142485750505050505050565b61426561411b855161410d816131ce868883019190602083019252565b505050908115801561429b575b6141ab57906142969291600c54101590816141895750806141775761416157611b61565b614237565b508015614272565b91509160009493945b600b54811161437d576142e86142da85516142d2816131ce868983019190602083019252565b6133bd614055565b848082518301019101613c8e565b505050908215158061436d575b61435e579061431a9291600c541015908161433c575b501561431f5761365581600b55565b6142ac565b61365561432b8261165e565b8154906000199060031b1b19169055565b90506001614354836000526019602052604060002090565b015410153861430b565b878651632a9ffab760e21b8152fd5b508115806142f5575080156142f5565b505050509050565b61439d919550823d841161041b5761040c81836119be565b9338614224565b604051906143b18261196a565b600982527f63617070696e67282900000000000000000000000000000000000000000000006020830152565b908160e09103126104385780519160208201516143f9816109ef565b916040810151614408816109ef565b916060820151614417816109ef565b916080810151614426816109ef565b9160c060a0830151613107816109ef565b6000906004602061445361067c6000546001600160a01b031690565b6040519283809263cfbffe5360e01b82525afa908115610422576144a391614494916000916147be575b506144866143a4565b61448e6120f5565b9161685e565b602080825183010191016143dd565b600080526019602052959695939490929091906145156144e5897fd2ac945fcc0096878c763e37d6929b78378c1a2defabde8ba7ee5ed1d6e7a5b25b54612b7e565b600080526016602052987f0263c2b778d062355049effc2dece97bc6547ff8a88a3258daa512061c2153dd6144df565b9561451e615b23565b946147b6575b50614720575b6146ba575b6146a9575b5061463b575b61455e575b8084106145565761455090846122b2565b82811191565b506000614550565b60066000526016602052926146359061462f6126d86145ff6145cf6126a87fc6a239f207aea309a1b4879cb5411b8facfc2bc1e4cc4717ff2598676c399b5f5b54600d60005260166020527f1f3872f63ca641494b685e4fa2176636d028d8c80f254656e89768cf27243273612611565b600760005260166020527f5c9294642c77fdf0ce4b0f45159c977165b1ec2ef3bb94ee3e2a496634c781e8612611565b600e60005260166020527fd6e1ce7303b8b03e4f8e61fd057015f1c58732e116f2a323c5d9ed9df544bd9a612611565b90612287565b9261453f565b60056000526016602052936146a39061462f6126787f5696377e725b42a372ecc45f0fbdab5e9555865aef54619ad9381892f667bbf05b54600c60005260166020527f329445f4448b7d20eec86c1386b39f5d1ed2d5f198689536ebcae9f2881958c3612611565b9361453a565b6146b39196612287565b9438614534565b60166020527ff06d282f967055cb1eee17e04aa005b9682a620f4bbcfaee55ba78607a3d87ae54600a600052909761471a9161462f90612618907fd5b9797c47f98351da0d9dc8805f06430ade47345ddb9b2bd6f346a04809cc41612611565b9661452f565b60166020527fcaff291fe014adc6b72a172705750b4cabe8f8667664d2924a166caab288564854600960005290986147b09161462f90614780907f650982f08e47212452de30f662e413cf6044e641dedc09b52c1617e804a2611e612611565b601060005260166020527f2a87e474c76dec5537d547c3958b767dcf7498ad7afcca0a2eb8ad1481fbf5b6612611565b9761452a565b995038614524565b6147d6915060203d811161041b5761040c81836119be565b3861447d565b611a90906147e981614c9a565b8051600f600052601660205261481e7fc361f6d77665192d237562bd0853419e4f63406390ab643d0f1cdbcdd3e2cbae612944565b90556060810151601260005260166020526148587f8531638db615388f9d93ea5c79a334675d6050f9d301f5b6af156a74ff569635612944565b9055602081810151601060005260169091526148937f2a87e474c76dec5537d547c3958b767dcf7498ad7afcca0a2eb8ad1481fbf5b6612944565b9055604081018051601160005260166020526148ce7f8419164215688829c599d418012c77589d6ed4c687dc9e57a4a19678f70f8a31612944565b90556080820151601360005260166020526149087f8e8ddf6db11641650f4fdf401a12def6a7e0b43b7e1e0b4a9bb751fc3ac1eab5612944565b905560a0820151601460005260166020526149427f7beb2646ec614ee6b553f9ed5c257fdce28fa220de7a1708afec2ddbe81f1b30612944565b905560c08201516015600052601660205261497c7fe3be994f4df1ce307d3423eeebbbb0cd25598c1b97b848f71392674439a00e37612944565b9055610100820151600960005260166020526149b77f650982f08e47212452de30f662e413cf6044e641dedc09b52c1617e804a2611e612944565b905561012082018051600a600052601660205290926101c0916149f97fd5b9797c47f98351da0d9dc8805f06430ade47345ddb9b2bd6f346a04809cc41612944565b9055610160810151600c6000526016602052614a347f329445f4448b7d20eec86c1386b39f5d1ed2d5f198689536ebcae9f2881958c3612944565b9055610180810151600d6000526016602052614a6f7f1f3872f63ca641494b685e4fa2176636d028d8c80f254656e89768cf27243273612944565b90556101a0810151600e6000526016602052614aaa7fd6e1ce7303b8b03e4f8e61fd057015f1c58732e116f2a323c5d9ed9df544bd9a612944565b90550151614ac2846000526018602052604060002090565b5551601f6000526016602052614af77f50eede7cc9d9157638c32051246e3b16ef1b4d09c2f4b59ff806a325cf84bf2c612944565b9055516020600081905260169052614b2e7f307cc7fa9030ab778db9755dd3a02d67731fde58e03005caf325db0bce1f2eaf612944565b9055600855565b604051906101e0820182811067ffffffffffffffff82111761192c57604052816101c06000918281528260208201528260408201528260608201528260808201528260a08201528260c08201528260e08201528261010082015282610120820152826101408201528261016082015282610180820152826101a08201520152565b60405190614bc38261196a565b600a82527f73687574646f776e2829000000000000000000000000000000000000000000006020830152565b60405190614bfc8261196a565b601882527f676574557365724964546f496e73742875696e743235362900000000000000006020830152565b60405190614c358261196a565b601182527f696e636f6d654f662861646472657373290000000000000000000000000000006020830152565b60405190614c6e8261196a565b601482527f636f6d70757465546f75722875696e74323536290000000000000000000000006020830152565b90614ca3614b35565b91600090614cbb61067c83546001600160a01b031690565b60409182519163ab6e844f60e01b83526020908184600481845afa938415610422578694615132575b50845163cfbffe5360e01b81528281600481855afa91821561042257858a60049686948b9661510b575b5090614e46859287614d30614d21614bb6565b614d296120f5565b9083616983565b9b8c92614ddc614d3e615b23565b6060890190815281895260166020527f4c4dc693d7db52f85fe052106f4b4b920e78e8ef37dee82878a60ab8585faf4954600860005290929190614dd690614da6907f5d722ae86c7aff0f95f426cf86f75793e8cd1a526603df14563c190f75fd2ef3612611565b600f60005260166020527fc361f6d77665192d237562bd0853419e4f63406390ab643d0f1cdbcdd3e2cbae612611565b906122b2565b8752805160166020527fec061709de2491458f4c981032059d7d19b0e55f45018bac6b3e660bdc959a5954600b600052614e3f9190614dd690612648907fcfa8b17cfe829ccfb82a1b8bc946a78d914318562253e01c04a5bbac5c20f86b612611565b9052615368565b509d94939096926101c0879397015261010082015201526000146150fb5750506106dc614e9391614e856007548b519384918883019190602083019252565b614e8d614bef565b9061693a565b31878b01525b8651948580927f52b06d640000000000000000000000000000000000000000000000000000000082525afa9283156104225786936150dc575b50614f24614f08614eeb6001546001600160a01b031690565b87519182918683019190916001600160a01b036020820193169052565b0394614f1c601f19968781018452836119be565b611cc9614c28565b6005600052601660205294614f5b6126787f5696377e725b42a372ecc45f0fbdab5e9555865aef54619ad9381892f667bbf0614672565b60808a0181815296818111156150ce57614f7891508751906122b2565b86526004600b54600281101580615091575b615053575b101580614ff2575b614fb3575b50505050614fa8575050565b805161016085015252565b614fe493614fd093614fdc92519485918201906004602083019252565b039081018452836119be565b611cc9614c61565b60c086015238808080614f9c565b5060166020527f5c9294642c77fdf0ce4b0f45159c977165b1ec2ef3bb94ee3e2a496634c781e854600e60005261504d906126d8907fd6e1ce7303b8b03e4f8e61fd057015f1c58732e116f2a323c5d9ed9df544bd9a612611565b15614f97565b61508783516150798161506d898201906002602083019252565b038981018352826119be565b615081614c61565b866169bf565b60a08c0152614f8f565b50600660005260166020526150c86126a87fc6a239f207aea309a1b4879cb5411b8facfc2bc1e4cc4717ff2598676c399b5f61459e565b15614f8a565b6150d7916122b2565b614f78565b6150f4919350823d841161041b5761040c81836119be565b9138614ed2565b8c8a01526101208c015250614e99565b8592919650615129614e4691843d861161041b5761040c81836119be565b96919250614d0e565b61514a919450823d841161041b5761040c81836119be565b9238614ce4565b604051906040820182811067ffffffffffffffff82111761192c5760405260006020838281520152565b6040519060a0820182811067ffffffffffffffff82111761192c57604052816151a2615151565b81526151ac615151565b60208201526151b9615151565b60408201526151c6615151565b606082015260806151d5615151565b910152565b604051906151e78261196a565b601882527f6765744261746368526f79616c7479436c6175736573282900000000000000006020830152565b6102a09081818403126104385782601f82011215610438576040805193615239856119a2565b849383019281841161043857935b83851061525657505050505090565b60608583031261043857825160609161526e82611931565b8651825260209182880151838201528588015186820152815201940193615247565b6040519061529d8261196a565b601f82527f676574526f79616c697479416d6f756e7442617463682875696e7432353629006020830152565b9060e0828203126104385780601f8301121561043857604051916152ec836119a2565b829060e0810192831161043857905b8282106153085750505090565b81518152602091820191016152fb565b9060078110156107895760051b0190565b8181029291600082127f8000000000000000000000000000000000000000000000000000000000000000821416610bf7578184051490151715610bf757565b92906000946000946000946000946000946154056153f661538761517b565b9461539187615819565b8751906020820152526153a3876158f6565b6020880151906020820152526153b887615989565b6040880151906020820152526153cd87615a2b565b6060880151906020820152526153e287615aa7565b6080880151906020820152526144866151da565b60208082518301019101615213565b91600854600b54905b86811061545a575050505050602081510151821191829182158094615448575b939261543957505091565b60800151602001511015929050565b5060206060820151015182111561542e565b615496615487604051615479816131ce86602083019190602083019252565b615481615290565b8761685e565b602080825183010191016152c9565b6001905b838211156156f357505082156154b9575b6154b490611b61565b61540e565b6154d86154d0826000526018602052604060002090565b54809c612b91565b9a6154e382896122b2565b90600091604089015189518b825181811080845193841093816156eb575b816156c8575b50156155fa57505050602080835183518082106000146155f25750935b0151910151808211156155ea5750905b808611156155e4575084905b6155498161225d565b8c10156155d657508a5b8181116155c3575b50505b8083116155bb575b82615570916122b2565b91806155a5575b5081615585575b50506154ab565b9a61559761559d926154b4949d615329565b90612b91565b99903861557e565b9a615597829c6155b493615329565b9938615577565b915081615566565b6155ce9294506122b2565b91388061555b565b6155df9061225d565b615553565b90615540565b905090615534565b905093615524565b93919293615672575b5050615610575b5061555e565b8051808611156156695750602085915b0161562b815161225d565b8c101561565a57508a5b818111615643575b5061560a565b61565292949161462f916122b2565b91388061563d565b615664905161225d565b615635565b60209091615620565b808811156156bf5750602087915b018d61568c825161225d565b11156156b057508c5b81811115615603576156a89296506122b2565b933880615603565b6156ba905161225d565b615695565b60209091615680565b905060208601511080156156de575b1538615507565b50816020850151106156d7565b849150615501565b909c6157076157018f612294565b88615318565b51511580156157b9575b6157af578751805184101590816157a0575b508015615779575b1561575d57615751615757918f61574461574a91612294565b85615318565b5190612287565b9d611b61565b9061549a565b9c9d6157738f9161574a61574461575794612294565b9e611b61565b50602088015180518410159081615791575b5061572b565b6020915001518311153861578b565b60209150015183111538615723565b9c61575790611b61565b508d6157d16157c78261165e565b90549060031b1c90565b84101590816157e2575b5015615711565b615810915060406158076158016157fb6157c78561165e565b93612294565b8b615318565b51015190612287565b8311158e6157db565b60c8600052601a6020527f89a06886e0f87a6eda50b0ef62069b00c5adfe20a1b83308f38d3e933d4a6cfe805492919083156158ef57600184166158d757505060c8600052601a6020526157c76158997f89a06886e0f87a6eda50b0ef62069b00c5adfe20a1b83308f38d3e933d4a6cfe615893856122a3565b90611aad565b905460c8600052601a60205260039190911b1c926158937f89a06886e0f87a6eda50b0ef62069b00c5adfe20a1b83308f38d3e933d4a6cfe91612294565b6158936158e49294612294565b90549060031b1c9190565b5091508190565b60026000908152601a6020527f4c287b3e2c2cb129ae3ba596d613d760b15affdac7242e12903c37a886ea1c4f805491939290821561598157600183166159725750506157c79060028452601a602052615893604061595a818720615893856122a3565b90549060031b1c9560028152601a6020522091612294565b9093506158936158e492612294565b509250508190565b60036000818152601a6020527f4ac83fca211703e3ddb90093cd219714e5e3715bf0b4fd15b0441390534a24e28054919493908215615a225760018316615a0a575050615a0290828552601a60205261589360406159ec818820615893856122a3565b905490861b1c96858152601a6020522091612294565b9054911b1c90565b909450615893615a1992612294565b9054911b1c9190565b50935050508190565b60056000908152601a6020527f82f07edc09f3a46c1925d02252613a7fcc7be7d03b538b0c268df85f2f13a7ab805491939290821561598157600183166159725750506157c79060058452601a6020526158936040615a8f818720615893856122a3565b90549060031b1c9560058152601a6020522091612294565b60066000908152601a6020527fe7513fcd4f864b78baf560f46c15980b6aa41b90911efc4ce7454b83cce613b1805491939290821561598157600183166159725750506157c79060068452601a6020526158936040615b0b818720615893856122a3565b90549060031b1c9560068152601a6020522091612294565b600090816001815b600f821115615ba0575050606560005260166020527fa03de401ff86fc22e691d3563b736c9fadf4f2babab79e9b7995ce6f656920a7548101809111610bf75760686000526016602052916119f5907f5a2cd1a21e67d7dda0aeee7dda01b941de71cc935cebfacc2b9b226beb2ced33612611565b9093848252601992602093808552604090600282862001548301809311610bf7576003929588865252832001548101809111610bf757615be09094611b61565b90615b2b565b919091615bf1612342565b92811561603c5760018214615f165760028214615deb5760038214615d0057615c4090615c1c6164e2565b90600854615c2a8282612287565b831115615cf957615c3b9250612287565b614c9a565b9060048114615caa57600514615c535750565b9091506101a0615c616120cc565b9160e08101518352610100810151602084015261012081015160408401526101408101516060840152610160810151608084015261018081015160a0840152015160c082015290565b5090915060c0615cb86120cc565b91805183526020810151602084015260408101516040840152606081015160608401526080810151608084015260a081015160a0840152015160c082015290565b5050614c9a565b50509050615d0c6120cc565b7f0263c2b778d062355049effc2dece97bc6547ff8a88a3258daa512061c2153dd5481527f50eede7cc9d9157638c32051246e3b16ef1b4d09c2f4b59ff806a325cf84bf2c546020808301919091527f307cc7fa9030ab778db9755dd3a02d67731fde58e03005caf325db0bce1f2eaf5460408301527fa03de401ff86fc22e691d3563b736c9fadf4f2babab79e9b7995ce6f656920a75460608301526068600090815260169091527f5a2cd1a21e67d7dda0aeee7dda01b941de71cc935cebfacc2b9b226beb2ced3354608083015260a0820181905260c082015290565b50509050615df76120cc565b7fc361f6d77665192d237562bd0853419e4f63406390ab643d0f1cdbcdd3e2cbae5481527f2a87e474c76dec5537d547c3958b767dcf7498ad7afcca0a2eb8ad1481fbf5b6546020808301919091527f8419164215688829c599d418012c77589d6ed4c687dc9e57a4a19678f70f8a315460408301527f8531638db615388f9d93ea5c79a334675d6050f9d301f5b6af156a74ff5696355460608301527f8e8ddf6db11641650f4fdf401a12def6a7e0b43b7e1e0b4a9bb751fc3ac1eab55460808301527f7beb2646ec614ee6b553f9ed5c257fdce28fa220de7a1708afec2ddbe81f1b305460a08301526015600052601690527fe3be994f4df1ce307d3423eeebbbb0cd25598c1b97b848f71392674439a00e375b5460c082015290565b50509050615f226120cc565b7f5d722ae86c7aff0f95f426cf86f75793e8cd1a526603df14563c190f75fd2ef35481527f650982f08e47212452de30f662e413cf6044e641dedc09b52c1617e804a2611e546020808301919091527fd5b9797c47f98351da0d9dc8805f06430ade47345ddb9b2bd6f346a04809cc415460408301527fcfa8b17cfe829ccfb82a1b8bc946a78d914318562253e01c04a5bbac5c20f86b5460608301527f329445f4448b7d20eec86c1386b39f5d1ed2d5f198689536ebcae9f2881958c35460808301527f1f3872f63ca641494b685e4fa2176636d028d8c80f254656e89768cf272432735460a0830152600e600052601690527fd6e1ce7303b8b03e4f8e61fd057015f1c58732e116f2a323c5d9ed9df544bd9a615f0d565b505090506160486120cc565b7f4c4dc693d7db52f85fe052106f4b4b920e78e8ef37dee82878a60ab8585faf495481527fcaff291fe014adc6b72a172705750b4cabe8f8667664d2924a166caab2885648546020808301919091527ff06d282f967055cb1eee17e04aa005b9682a620f4bbcfaee55ba78607a3d87ae5460408301527fec061709de2491458f4c981032059d7d19b0e55f45018bac6b3e660bdc959a595460608301527f5696377e725b42a372ecc45f0fbdab5e9555865aef54619ad9381892f667bbf05460808301527fc6a239f207aea309a1b4879cb5411b8facfc2bc1e4cc4717ff2598676c399b5f5460a08301526007600052601690527f5c9294642c77fdf0ce4b0f45159c977165b1ec2ef3bb94ee3e2a496634c781e8615f0d565b9060405161616f81611910565b6060600382948054845260018101546020850152600281015460408501520154910152565b67ffffffffffffffff811161192c5760051b60200190565b906161b682616194565b6161c360405191826119be565b82815280926161d4601f1991616194565b019060005b8281106161e557505050565b6020906161f0612e6a565b828285010152016161d9565b80518210156107895760209160051b010190565b1561621757565b606460405162461bcd60e51b815260206004820152601960248201527f6f776e2e7361666567756172642e63616c6c2e6661696c6564000000000000006044820152fd5b9081602091031261043857516119f5816109ef565b6001600160a01b03600054166040518091634bf9c0ad60e11b825281600460209384935afa918215610422576119f5926162f891600091616313575b506040516162b98161196a565b600881527f697353616665282900000000000000000000000000000000000000000000000084820152604051916162ef83611986565b60008352616889565b919080616309575b61070990616210565b5081518114616300565b61632a9150833d851161041b5761040c81836119be565b386162ac565b6040519061633d8261196a565b601582527f69735365637572654261736528616464726573732900000000000000000000006020830152565b1561637057565b606460405162461bcd60e51b815260206004820152601a60248201527f6f776e2e736563757265626173652e63616c6c2e6661696c65640000000000006044820152fd5b6000546001600160a01b0316604051918291634bf9c0ad60e11b835282600460209485935afa928315610422576119f593616420926106dc9260009261643b575b50616418906040519384918783019190916001600160a01b036020820193169052565b6106f2616330565b919080616431575b61070990616369565b5081518114616428565b61641891925061645790863d881161041b5761040c81836119be565b91906163f5565b6040519061646b8261196a565b601182527f69735369676e65722861646472657373290000000000000000000000000000006020830152565b1561649e57565b606460405162461bcd60e51b815260206004820152601660248201527f6f776e2e7369676e65722e63616c6c2e6661696c6564000000000000000000006044820152fd5b600460206001600160a01b03600054166040519283809263111ea8c160e21b82525afa8015610422576119f591600091616564575b506040516165248161196a565b600581527f616765282900000000000000000000000000000000000000000000000000000060208201526040519161655b83611986565b600083526169bf565b61657c915060203d811161041b5761040c81836119be565b38616517565b6040519061658f8261196a565b601882527f697364656c656761746f724e6f646528616464726573732900000000000000006020830152565b6001600160a01b0380911690811561660857600154826001600160a01b0319821617600155167f8292fce18fa69edf4db7b94ea2e58241df0ae57f97e0a6c9b29067028bf92d76600080a3565b606460405162461bcd60e51b815260206004820152601160248201527f6f776e2e696e76616c69642e6f776e65720000000000000000000000000000006044820152fd5b3d15616677573d9061665d826120d9565b9161666b60405193846119be565b82523d6000602084013e565b606090565b908015611a83576001600160a01b03821691821561672257600080808481945af16166a561664c565b50156166de576040519081527fcec1f18c3ab8ddaaa107a1591e3c369667eec613626611a8deaedef43069fcdd9080602081015b0390a2565b606460405162461bcd60e51b815260206004820152601360248201527f6f776e2e7472616e736665722e6661696c6564000000000000000000000000006044820152fd5b606460405162461bcd60e51b815260206004820152600e60248201527f6f776e2e696e76616c69642e746f0000000000000000000000000000000000006044820152fd5b6000600460206001600160a01b03835416604051928380927f46f991ac0000000000000000000000000000000000000000000000000000000082525afa908115610422578284819382938391616840575b505af16167c261664c565b50156167fc5760405190815233907fcdcc745fe377b103b45fa0cec23ae3ef93d6fc6a84a01f0d18c40b354dd1d5d89080602081016166d9565b606460405162461bcd60e51b815260206004820152600f60248201527f6f776e2e6275726e2e6661696c656400000000000000000000000000000000006044820152fd5b616858915060203d811161041b5761040c81836119be565b386167b7565b906168699291616889565b9060009015616876575090565b604051915061688482611986565b815290565b9190823b15616921577fffffffff00000000000000000000000000000000000000000000000000000000815160208093012016916040519180830193845281519160005b83811061690d5750505091816168fa602482600097959688970187838201520360048101845201826119be565b5191620dbba0fa61690961664c565b9091565b8181018301518582016024015282016168cd565b50505060009060405161693381611986565b6000815290565b929161694891600094616889565b9080616978575b6169565750565b6001600160a01b0391925080602080616974935183010191016119e0565b1690565b50602081511461694f565b929161699191600094616889565b90806169b4575b61699f5750565b6119f59192506020808251830101910161625b565b506020815114616998565b92916169cd91600094616889565b90806169f2575b6169db5750565b909150602081805181010312610438576020015190565b5060208151146169d4565b90602082519201517fffffffff00000000000000000000000000000000000000000000000000000000908181169360048110616a3857505050565b60040360031b82901b16169150565b6001600160a01b03811615616af857600080918351908260208601915af190616a6e61664c565b9115616a78575090565b805160009190600411616af257616a8f91506169fd565b815115616a9f5750805190602001fd5b6024907fffffffff00000000000000000000000000000000000000000000000000000000604051917f21c09d34000000000000000000000000000000000000000000000000000000008352166004820152fd5b50616a8f565b606460405162461bcd60e51b815260206004820152601260248201527f6f776e2e696e76616c69642e74617267657400000000000000000000000000006044820152fd5b803b6000616b49826120d9565b92616b5760405194856119be565b82845260208401903c602d815110616b7357602a015160601c90565b606460405162461bcd60e51b815260206004820152601360248201527f4e6f742061206d696e696d616c2070726f7879000000000000000000000000006044820152fdfea2646970667358221220111179d2a85ba4487faf9432b7d750c127c98ffa06297c871c6a515f0797989264736f6c63430008140033","linkReferences":{}},"methodIdentifiers":{"Burn(uint256)":"b90306ad","BurnCoin()":"7bfbfecb","LSB(uint256)":"a98bf4f9","_compute(uint256)":"2c2838e8","_delegatorCount()":"a1f7f539","_getImplementation(address)":"c54e44b0","_importOld(uint256)":"141ca660","_isDelegatorNode(address)":"e01ad5fd","_isSafe()":"e0a9bc2b","_isSecureBase(address)":"af484526","_isSigner(address)":"1f185d16","_txnType7(uint256,uint256)":"02a085f2","_txnType_1_0(address,uint256,uint256,uint256,uint256)":"932ca2d6","addLevelnGetRank(uint256,uint256,uint256,uint256,uint256,bool)":"822ffec4","bonus()":"75b4d78c","cage()":"69245009","capStatus()":"a1531545","dage()":"725b6fff","directsCount()":"d2a15904","getAllIncome(uint256,uint256)":"a20199ac","getBalance()":"12065fe0","getHexbase()":"3b9b7955","getNodeLB(uint256)":"da021335","getNodeLvlInfoBatch(uint256,uint256)":"759f22bd","getRankAgeInBatch()":"6de97c66","getRankWithAgeValue()":"29ee350e","getToggleAgeCount(uint256)":"143ec3b7","getToggleAgeValue(uint256,uint256)":"043719b4","id()":"af640d0f","isLock()":"09d8da2e","mintCount()":"9659867e","mints(uint256)":"6350b2c2","moveLvlIncome(uint256,uint256,uint256,uint256,bool)":"7b058ac1","owner()":"8da5cb5b","postInit()":"4a65786c","preinit(address,address,uint256)":"52902c59","rank()":"934209ce","rankage(uint256)":"d3a1a499","setBonus(uint256)":"0b98f975","setLock(bool)":"619d5194","setSuspend(uint256,bool)":"c8ef7b1a","setdirect(bool)":"deb1ba1e","systemAge()":"fdc10bc9","updateOwner(address)":"880cdc31","userCycleMintCount(uint256)":"39b4d61b","withdrawlDage()":"a9bf285b"},"id":52}