{"abi":[{"type":"constructor","inputs":[{"name":"_hex","type":"address","internalType":"address"}],"stateMutability":"nonpayable"},{"type":"fallback","stateMutability":"payable"},{"type":"receive","stateMutability":"payable"},{"type":"function","name":"Burn","inputs":[{"name":"amount","type":"uint256","internalType":"uint256"}],"outputs":[],"stateMutability":"nonpayable"},{"type":"function","name":"BurnCoin","inputs":[],"outputs":[],"stateMutability":"payable"},{"type":"function","name":"LSB","inputs":[{"name":"","type":"uint256","internalType":"uint256"}],"outputs":[{"name":"","type":"int256","internalType":"int256"}],"stateMutability":"view"},{"type":"function","name":"_compute","inputs":[{"name":"endage","type":"uint256","internalType":"uint256"}],"outputs":[{"name":"r","type":"tuple","internalType":"struct InstanceStor.ComputeResult","components":[{"name":"p1","type":"uint256","internalType":"uint256"},{"name":"p2","type":"uint256","internalType":"uint256"},{"name":"p3","type":"uint256","internalType":"uint256"},{"name":"p4","type":"uint256","internalType":"uint256"},{"name":"p5","type":"uint256","internalType":"uint256"},{"name":"p6","type":"uint256","internalType":"uint256"},{"name":"p7","type":"uint256","internalType":"uint256"},{"name":"f1","type":"uint256","internalType":"uint256"},{"name":"f2","type":"uint256","internalType":"uint256"},{"name":"f3","type":"uint256","internalType":"uint256"},{"name":"f4","type":"uint256","internalType":"uint256"},{"name":"f5","type":"uint256","internalType":"uint256"},{"name":"f6","type":"uint256","internalType":"uint256"},{"name":"f7","type":"uint256","internalType":"uint256"},{"name":"lsb","type":"int256","internalType":"int256"}]}],"stateMutability":"view"},{"type":"function","name":"_delegatorCount","inputs":[],"outputs":[{"name":"","type":"uint256","internalType":"uint256"}],"stateMutability":"view"},{"type":"function","name":"_getImplementation","inputs":[{"name":"clone","type":"address","internalType":"address"}],"outputs":[{"name":"impl","type":"address","internalType":"address"}],"stateMutability":"view"},{"type":"function","name":"_importOld","inputs":[{"name":"limit","type":"uint256","internalType":"uint256"}],"outputs":[],"stateMutability":"payable"},{"type":"function","name":"_isDelegatorNode","inputs":[{"name":"sender","type":"address","internalType":"address"}],"outputs":[{"name":"","type":"bool","internalType":"bool"}],"stateMutability":"view"},{"type":"function","name":"_isSafe","inputs":[],"outputs":[{"name":"","type":"bool","internalType":"bool"}],"stateMutability":"view"},{"type":"function","name":"_isSecureBase","inputs":[{"name":"sender","type":"address","internalType":"address"}],"outputs":[{"name":"","type":"bool","internalType":"bool"}],"stateMutability":"view"},{"type":"function","name":"_isSigner","inputs":[{"name":"sender","type":"address","internalType":"address"}],"outputs":[{"name":"","type":"bool","internalType":"bool"}],"stateMutability":"view"},{"type":"function","name":"_txnType7","inputs":[{"name":"_maxint","type":"uint256","internalType":"uint256"},{"name":"_ag","type":"uint256","internalType":"uint256"}],"outputs":[{"name":"CALC_INC","type":"uint256[10]","internalType":"uint256[10]"}],"stateMutability":"payable"},{"type":"function","name":"_txnType_1_0","inputs":[{"name":"paramAdd","type":"address","internalType":"address"},{"name":"_id_maxint","type":"uint256","internalType":"uint256"},{"name":"_qty","type":"uint256","internalType":"uint256"},{"name":"_msgValue","type":"uint256","internalType":"uint256"},{"name":"_type","type":"uint256","internalType":"uint256"}],"outputs":[{"name":"_tvl","type":"uint256","internalType":"uint256"},{"name":"_amt","type":"uint256","internalType":"uint256"}],"stateMutability":"payable"},{"type":"function","name":"addLevelnGetRank","inputs":[{"name":"_direct","type":"uint256","internalType":"uint256"},{"name":"_amount","type":"uint256","internalType":"uint256"},{"name":"_qty","type":"uint256","internalType":"uint256"},{"name":"_lvlincrank","type":"uint256","internalType":"uint256"},{"name":"_level","type":"uint256","internalType":"uint256"},{"name":"_epochAge","type":"uint256","internalType":"uint256"},{"name":"_free","type":"uint256","internalType":"uint256"},{"name":"_irank","type":"uint256","internalType":"uint256"}],"outputs":[{"name":"lastrnk","type":"uint256","internalType":"uint256"},{"name":"currentrnk","type":"uint256","internalType":"uint256"}],"stateMutability":"nonpayable"},{"type":"function","name":"bonus","inputs":[],"outputs":[{"name":"","type":"uint256","internalType":"uint256"}],"stateMutability":"view"},{"type":"function","name":"cage","inputs":[],"outputs":[{"name":"","type":"uint256","internalType":"uint256"}],"stateMutability":"view"},{"type":"function","name":"capStatus","inputs":[],"outputs":[{"name":"totalIncome","type":"uint256","internalType":"uint256"},{"name":"threshold","type":"uint256","internalType":"uint256"},{"name":"_cap","type":"bool","internalType":"bool"},{"name":"currentValue","type":"uint256","internalType":"uint256"}],"stateMutability":"view"},{"type":"function","name":"dage","inputs":[],"outputs":[{"name":"","type":"uint256","internalType":"uint256"}],"stateMutability":"view"},{"type":"function","name":"getAllIncome","inputs":[{"name":"typeId","type":"uint256","internalType":"uint256"},{"name":"maxinterwal","type":"uint256","internalType":"uint256"}],"outputs":[{"name":"values","type":"uint256[7]","internalType":"uint256[7]"}],"stateMutability":"view"},{"type":"function","name":"getBalance","inputs":[],"outputs":[{"name":"","type":"uint256","internalType":"uint256"}],"stateMutability":"view"},{"type":"function","name":"getHexbase","inputs":[],"outputs":[{"name":"","type":"address","internalType":"address"}],"stateMutability":"view"},{"type":"function","name":"getNodeLB","inputs":[{"name":"_level","type":"uint256","internalType":"uint256"}],"outputs":[{"name":"","type":"uint256","internalType":"uint256"},{"name":"","type":"uint256","internalType":"uint256"},{"name":"","type":"uint256","internalType":"uint256"},{"name":"","type":"uint256","internalType":"uint256"}],"stateMutability":"view"},{"type":"function","name":"getToggleAgeCount","inputs":[{"name":"key","type":"uint256","internalType":"uint256"}],"outputs":[{"name":"","type":"uint256","internalType":"uint256"}],"stateMutability":"view"},{"type":"function","name":"getToggleAgeValue","inputs":[{"name":"key","type":"uint256","internalType":"uint256"},{"name":"index","type":"uint256","internalType":"uint256"}],"outputs":[{"name":"","type":"uint256","internalType":"uint256"}],"stateMutability":"view"},{"type":"function","name":"id","inputs":[],"outputs":[{"name":"","type":"uint256","internalType":"uint256"}],"stateMutability":"view"},{"type":"function","name":"isLock","inputs":[],"outputs":[{"name":"","type":"bool","internalType":"bool"}],"stateMutability":"view"},{"type":"function","name":"levelRestrictionAge","inputs":[],"outputs":[{"name":"","type":"uint256","internalType":"uint256"}],"stateMutability":"view"},{"type":"function","name":"mintCount","inputs":[],"outputs":[{"name":"","type":"uint256","internalType":"uint256"}],"stateMutability":"view"},{"type":"function","name":"mints","inputs":[{"name":"","type":"uint256","internalType":"uint256"}],"outputs":[{"name":"amt","type":"uint256","internalType":"uint256"},{"name":"qty","type":"uint256","internalType":"uint256"},{"name":"mage","type":"uint256","internalType":"uint256"},{"name":"nft","type":"address","internalType":"address"}],"stateMutability":"view"},{"type":"function","name":"moveLvlIncome","inputs":[{"name":"_direct","type":"uint256","internalType":"uint256"},{"name":"_amount","type":"uint256","internalType":"uint256"},{"name":"_qty","type":"uint256","internalType":"uint256"},{"name":"_level","type":"uint256","internalType":"uint256"},{"name":"_epochAge","type":"uint256","internalType":"uint256"},{"name":"_op","type":"bool","internalType":"bool"}],"outputs":[{"name":"lastrnk","type":"uint256","internalType":"uint256"},{"name":"currentrnk","type":"uint256","internalType":"uint256"}],"stateMutability":"nonpayable"},{"type":"function","name":"owner","inputs":[],"outputs":[{"name":"","type":"address","internalType":"address"}],"stateMutability":"view"},{"type":"function","name":"postInit","inputs":[],"outputs":[{"name":"","type":"bool","internalType":"bool"}],"stateMutability":"view"},{"type":"function","name":"preinit","inputs":[{"name":"_hex","type":"address","internalType":"address"},{"name":"_own","type":"address","internalType":"address"},{"name":"_id","type":"uint256","internalType":"uint256"}],"outputs":[],"stateMutability":"nonpayable"},{"type":"function","name":"rank","inputs":[],"outputs":[{"name":"","type":"uint256","internalType":"uint256"}],"stateMutability":"view"},{"type":"function","name":"rankage","inputs":[{"name":"","type":"uint256","internalType":"uint256"}],"outputs":[{"name":"","type":"uint256","internalType":"uint256"}],"stateMutability":"view"},{"type":"function","name":"setBonus","inputs":[{"name":"b","type":"uint256","internalType":"uint256"}],"outputs":[],"stateMutability":"nonpayable"},{"type":"function","name":"setLock","inputs":[{"name":"flag","type":"bool","internalType":"bool"}],"outputs":[],"stateMutability":"nonpayable"},{"type":"function","name":"setSuspend","inputs":[{"name":"key","type":"uint256","internalType":"uint256"},{"name":"value","type":"bool","internalType":"bool"}],"outputs":[],"stateMutability":"nonpayable"},{"type":"function","name":"systemAge","inputs":[],"outputs":[{"name":"","type":"uint256","internalType":"uint256"}],"stateMutability":"view"},{"type":"function","name":"updateOwner","inputs":[{"name":"_newowner","type":"address","internalType":"address"}],"outputs":[],"stateMutability":"nonpayable"},{"type":"function","name":"userCycleMintCount","inputs":[{"name":"","type":"uint256","internalType":"uint256"}],"outputs":[{"name":"","type":"uint256","internalType":"uint256"}],"stateMutability":"view"},{"type":"function","name":"withdrawlDage","inputs":[],"outputs":[{"name":"","type":"uint256","internalType":"uint256"}],"stateMutability":"view"},{"type":"event","name":"EthBurned","inputs":[{"name":"sender","type":"address","indexed":true,"internalType":"address"},{"name":"amount","type":"uint256","indexed":false,"internalType":"uint256"}],"anonymous":false},{"type":"event","name":"EthTransferred","inputs":[{"name":"to","type":"address","indexed":true,"internalType":"address"},{"name":"amount","type":"uint256","indexed":false,"internalType":"uint256"}],"anonymous":false},{"type":"event","name":"HexBaseUpdated","inputs":[{"name":"previousHexBase","type":"address","indexed":true,"internalType":"address"},{"name":"newHexBase","type":"address","indexed":true,"internalType":"address"}],"anonymous":false},{"type":"event","name":"LogTxns","inputs":[{"name":"from","type":"address","indexed":false,"internalType":"address"},{"name":"orc1155","type":"address","indexed":false,"internalType":"address"},{"name":"_amt","type":"uint256","indexed":false,"internalType":"uint256"},{"name":"_value","type":"uint256","indexed":false,"internalType":"uint256"},{"name":"_time","type":"uint256","indexed":false,"internalType":"uint256"},{"name":"_type","type":"uint256","indexed":false,"internalType":"uint256"}],"anonymous":false},{"type":"event","name":"OwnerUpdated","inputs":[{"name":"previousOwner","type":"address","indexed":true,"internalType":"address"},{"name":"newOwner","type":"address","indexed":true,"internalType":"address"}],"anonymous":false},{"type":"error","name":"GlobalPoolLimitReached","inputs":[]},{"type":"error","name":"ImportLimitExceeded","inputs":[]},{"type":"error","name":"InvalidClone","inputs":[]},{"type":"error","name":"InvalidMintCycleLimit","inputs":[]},{"type":"error","name":"InvalidnewOwner","inputs":[]},{"type":"error","name":"MintLimitExceeded","inputs":[]},{"type":"error","name":"PreInitException","inputs":[]},{"type":"error","name":"ReentrancyGuardReentrantCall","inputs":[]},{"type":"error","name":"StorLocked","inputs":[]},{"type":"error","name":"TargetCallFailed","inputs":[{"name":"selector","type":"bytes4","internalType":"bytes4"}]},{"type":"error","name":"UnsecureORC1155","inputs":[]}],"bytecode":{"object":"0x608034620000d157601f62006a1f38819003918201601f19168301916001600160401b03831184841017620000d657808492602094604052833981010312620000d157516001600160a01b03811690819003620000d15780156200008c5760018060a01b031933816001541617600155600054161760005560016003556040516169329081620000ed8239f35b60405162461bcd60e51b815260206004820152601360248201527f6f776e2e696e76616c69642e68657862617365000000000000000000000000006044820152606490fd5b600080fd5b634e487b7160e01b600052604160045260246000fdfe60806040526004361015610018575b361561001657005b005b60003560e01c806302a085f2146102b8578063043719b4146102b357806309d8da2e146102ae5780630b98f975146102a957806312065fe0146102a4578063141ca6601461029f578063143ec3b71461029a5780631f185d16146102955780632bb96697146102905780632c2838e81461028b578063393a9f951461028657806339b4d61b146102815780633b9b79551461027c5780634a65786c1461027757806352902c5914610272578063619d51941461026d5780636350b2c2146102685780636924500914610263578063725b6fff1461025e57806375b4d78c146102595780637bfbfecb14610254578063880cdc311461024f5780638da5cb5b1461024a578063932ca2d614610245578063934209ce146102405780639659867e1461023b578063a153154514610236578063a1f7f53914610231578063a20199ac1461022c578063a98bf4f914610227578063a9bf285b14610222578063af4845261461021d578063af640d0f14610218578063b90306ad14610213578063c54e44b01461020e578063c8ba154e14610209578063c8ef7b1a14610204578063d3a1a499146101ff578063da021335146101fa578063e01ad5fd146101f5578063e0a9bc2b146101f05763fdc10bc90361000e576114f9565b6114de565b611444565b6113ec565b6113c0565b6112dc565b611223565b6111eb565b61112f565b611111565b6110e0565b6110c2565b611096565b61104a565b610f8c565b610f57565b610f39565b610f1b565b610e5c565b610e35565b610d81565b610be5565b610bc7565b610ba9565b610b8b565b610b34565b610a73565b610947565b610921565b6108fa565b6108ce565b6107f9565b610733565b610715565b610605565b6105c8565b61051b565b6104ff565b61045c565b610439565b6103fd565b6102ec565b610140810192916000915b600a83106102d557505050565b6001908251815260208091019201920191906102c8565b60403660031901126103f8576040516103048161159e565b61014036823760ff600454166103e75761032461031f615fce565b61151c565b61032d33616112565b8015610361575b61035d9161034461035192611655565b6024359060043590611f98565b604051918291826102bd565b0390f35b506004906001600160a01b03906020826000541660405194858092630536340960e21b82525afa9283156103e25761035d9361035193610344926000926103b2575b50339116149250509150610334565b6103d491925060203d81116103db575b6103cc818361160f565b810190611631565b90386103a3565b503d6103c2565b611649565b600460405163658141c160e01b8152fd5b600080fd5b346103f85760403660031901126103f857600435600052601d602052602061042b60243560406000206116fe565b90546040519160031b1c8152f35b346103f85760003660031901126103f857602060ff600454166040519015158152f35b346103f85760203660031901126103f85761047861031f615fce565b61048133616112565b801561049c575b61049190611655565b610016600435600555565b5060046001600160a01b036020816000541660405193848092630536340960e21b82525afa9081156103e257610491926000926104df575b501633149050610488565b6104f891925060203d81116103db576103cc818361160f565b90386104d4565b346103f85760003660031901126103f857602047604051908152f35b60203660031901126103f85761053261031f615fce565b61053b33616112565b8015610565575b61054b90611655565b610553611f49565b61055e600435612e12565b6001600355005b5060046001600160a01b036020816000541660405193848092630536340960e21b82525afa9081156103e25761054b926000926105a8575b501633149050610542565b6105c191925060203d81116103db576103cc818361160f565b903861059d565b346103f85760203660031901126103f857600435600052601d6020526020604060002054604051908152f35b6001600160a01b038116036103f857565b346103f8576020806003193601126103f857600490813590610626826105f4565b8061064861063c6000546001600160a01b031690565b6001600160a01b031690565b60405194858092634bf9c0ad60e11b82525afa9182156103e25761069c6106d6936106b89261035d966000926106f2575b506106aa906040519384918783019190916001600160a01b036020820193169052565b03601f19810184528361160f565b6106b26161bc565b906165ce565b9190806106e8575b6106c9906161f5565b8082518301019101615fb9565b60405190151581529081906020820190565b50815181146106c0565b6106aa91925061070e90863d88116103db576103cc818361160f565b9190610679565b346103f85760003660031901126103f8576020601454604051908152f35b346103f85760203660031901126103f8576101e0610752600435614ad4565b60405190805182526020810151602083015260408101516040830152606081015160608301526080810151608083015260a081015160a083015260c081015160c083015260e081015160e0830152610100808201519083015261012080820151908301526101408082015190830152610160808201519083015261018080820151908301526101a080820151908301526101c08091015190820152f35b801515036103f857565b346103f85760c03660031901126103f85760a435610816816107ef565b61082161031f615fce565b61082a33616112565b8015610864575b9061083e61085292611655565b608435606435604435602435600435613951565b60408051928352602083019190915290f35b506001600160a01b039060046020836000541660405192838092630536340960e21b82525afa80156103e2576108529361083e926000926108ae575b503391161491925050610831565b6108c791925060203d81116103db576103cc818361160f565b90386108a0565b346103f85760203660031901126103f85760043560005260156020526020604060002054604051908152f35b346103f85760003660031901126103f85760206001600160a01b0360005416604051908152f35b346103f85760003660031901126103f857602060ff60045460081c166040519015158152f35b346103f85760603660031901126103f857600435610964816105f4565b602435610970816105f4565b6001600160a01b038092168015808015610a69575b610a3f576109fb57826109a56109f094600054166001600160a01b031690565b6109c5836001600160a01b03166001600160a01b03196000541617600055565b167fe939feee179e631422bcc8f6e6d7d908cb3f8af38f5372f17c77e15aea5c80ee600080a3616319565b610016604435600755565b606460405162461bcd60e51b815260206004820152601360248201527f6f776e2e696e76616c69642e68657862617365000000000000000000000000006044820152fd5b60046040517fa596f2f9000000000000000000000000000000000000000000000000000000008152fd5b5083831615610985565b346103f85760203660031901126103f857600435610a90816107ef565b610a9b61031f615fce565b610aa433616112565b8015610aca575b90610ab861001692611655565b60ff8019600454169115151617600455565b506001600160a01b039060046020836000541660405192838092630536340960e21b82525afa80156103e25761001693610ab892600092610b14575b503391161491925050610aab565b610b2d91925060203d81116103db576103cc818361160f565b9038610b06565b346103f85760203660031901126103f8576004356000526017602052608060406000208054906001810154906001600160a01b03600360028301549201541691604051938452602084015260408301526060820152f35b346103f85760003660031901126103f8576020600a54604051908152f35b346103f85760003660031901126103f8576020600854604051908152f35b346103f85760003660031901126103f8576020600554604051908152f35b600080600319360112610d7e5760ff600454166103e757610c04611f49565b610c14610c0f616240565b600255565b610c2861063c82546001600160a01b031690565b60405190816311be646b60e21b9182825281600460209586935afa80156103e257610c5c918591610d61575b5034906163da565b6000805260166020527f0263c2b778d062355049effc2dece97bc6547ff8a88a3258daa512061c2153dd610c91348254611eba565b9055610caa610c9e614254565b50915050600254611757565b81610cbf61063c85546001600160a01b031690565b9160046040518094819382525afa9081156103e2577f1517c86fcf2bfb8e3468afcc539b0004955da8027797c497ea51d1f1094ab898928492610d44575b5050600254604080513381526001600160a01b0393909316602084015260009083015234606083015260808201526103e860a082015260c090a1610d416001600355565b80f35b610d5a9250803d106103db576103cc818361160f565b3880610cfd565b610d789150843d86116103db576103cc818361160f565b38610c54565b80fd5b346103f85760203660031901126103f857600435610d9e816105f4565b610da961031f615fce565b610db233616112565b8015610dcb575b90610dc661001692611655565b61179c565b506001600160a01b039060046020836000541660405192838092630536340960e21b82525afa80156103e25761001693610dc692600092610e15575b503391161491925050610db9565b610e2e91925060203d81116103db576103cc818361160f565b9038610e07565b346103f85760003660031901126103f85760206001600160a01b0360015416604051908152f35b60a03660031901126103f857600435610e74816105f4565b610e7f61031f615fce565b610e8833616112565b8015610eb1575b90610e9c61085292611655565b608435906064359060443590602435906117de565b506001600160a01b039060046020836000541660405192838092630536340960e21b82525afa80156103e25761085293610e9c92600092610efb575b503391161491925050610e8f565b610f1491925060203d81116103db576103cc818361160f565b9038610eed565b346103f85760003660031901126103f8576020600b54604051908152f35b346103f85760003660031901126103f8576020600654604051908152f35b346103f85760003660031901126103f8576080610f72614254565b916040519384526020840152151560408301526060820152f35b346103f85760003660031901126103f857600460206001600160a01b03600054166040519283809263d1f956b160e01b82525afa9081156103e25761035d9161101c9160009161102c575b50604051610fe4816115bb565b601381527f67657464656c656761746f72436f756e742829000000000000000000000000006020820152611016611d0d565b91616704565b6040519081529081906020820190565b611044915060203d81116103db576103cc818361160f565b38610fd7565b346103f85760403660031901126103f8576110696024356004356159f2565b60405190600090825b6007831061107f5760e084f35b600190825181526020809101920192019190611072565b346103f85760203660031901126103f85760043560005260186020526020604060002054604051908152f35b346103f85760003660031901126103f8576020600954604051908152f35b346103f85760203660031901126103f8576020611107600435611102816105f4565b616112565b6040519015158152f35b346103f85760003660031901126103f8576020600754604051908152f35b346103f85760203660031901126103f85760046001600160a01b036020816000541660405193848092630536340960e21b82525afa9182156103e2576000926111cb575b5033911603611187576100166004356164c4565b606460405162461bcd60e51b815260206004820152600f60248201527f6f776e2e6e6f6e617574682e44414f00000000000000000000000000000000006044820152fd5b6111e491925060203d81116103db576103cc818361160f565b9038611173565b346103f85760203660031901126103f857602061121260043561120d816105f4565b616881565b6001600160a01b0360405191168152f35b346103f8576101003660031901126103f85761124061031f615fce565b61124933616112565b8015611279575b61125990611655565b61085260e43560c43560a435608435606435604435602435600435613a75565b5060046001600160a01b036020816000541660405193848092630536340960e21b82525afa9081156103e257611259926000926112bc575b501633149050611250565b6112d591925060203d81116103db576103cc818361160f565b90386112b1565b346103f85760403660031901126103f8576024356112f9816107ef565b61130461031f615fce565b61130d33616112565b8015611329575b9061132161001692611655565b6004356116a0565b506001600160a01b039060046020836000541660405192838092630536340960e21b82525afa80156103e2576100169361132192600092611373575b503391161491925050611314565b61138c91925060203d81116103db576103cc818361160f565b9038611365565b634e487b7160e01b600052603260045260246000fd5b60088110156113bb57600c0190600090565b611393565b346103f85760203660031901126103f85760043560088110156103f857602090600c0154604051908152f35b346103f8576020806003193601126103f85760809060043560005260198152604090816000205491601a8252806000205490601b8352806000205491601c845281600020549382519586528501528301526060820152f35b346103f8576020806003193601126103f85760048035611463816105f4565b6001600160a01b03928084600054166040519485809263d1f956b160e01b82525afa9081156103e25761035d946106d6946000936114bf575b5060405193168184015282526114b1826115bb565b6114b96162e0565b906166c8565b6114d7919350823d84116103db576103cc818361160f565b913861149c565b346103f85760003660031901126103f8576020611107615fce565b346103f85760003660031901126103f8576020611514616240565b604051908152f35b1561152357565b606460405162461bcd60e51b815260206004820152601260248201527f6f776e2e696e76616c69642e69735361666500000000000000000000000000006044820152fd5b634e487b7160e01b600052604160045260246000fd5b6060810190811067ffffffffffffffff82111761159957604052565b611567565b610140810190811067ffffffffffffffff82111761159957604052565b6040810190811067ffffffffffffffff82111761159957604052565b6020810190811067ffffffffffffffff82111761159957604052565b60e0810190811067ffffffffffffffff82111761159957604052565b90601f8019910116810190811067ffffffffffffffff82111761159957604052565b908160209103126103f85751611646816105f4565b90565b6040513d6000823e3d90fd5b1561165c57565b606460405162461bcd60e51b815260206004820152601b60248201527f6f776e2e6e6f6e617574682e44414f6f725365637572656261736500000000006044820152fd5b6116a8616240565b9081600255600052601d6020526040600020916000146116ef57815480159081156116e3575b506116d8575b5050565b6116e191611716565b565b600191501615386116ce565b600180835416146116d8575050565b80548210156113bb5760005260206000200190600090565b9081549168010000000000000000831015611599578261173e9160016116e1950181556116fe565b90919082549060031b91821b91600019901b1916179055565b60c8600052601d6020527f915fdf66858cff90460f130f449e2d78f6f66df207cbd71945619fb7bc9ad3a591156116ef57815480159081156116e357506116d8575050565b6001600160a01b038116156117b4576116e190616319565b60046040517fb31092f1000000000000000000000000000000000000000000000000000000008152fd5b9092949360049160ff835416611cb4576117f6611f49565b61180661180282616112565b1590565b611ca457611815610c0f616240565b60009461182c61063c87546001600160a01b031690565b906040928351809663cfbffe5360e01b94858352828260209485935afa9788156103e2578a98611c85575b50611871611863611d20565b61186b611d38565b8a616704565b978815611c3957611891611883611d20565b61188b611d71565b83616704565b9061189f60029a8b54611dc0565b916118d46118bc6118ae611d20565b6118b6611de0565b85616704565b926118c5611d20565b906118ce611e19565b90616704565b906118e9846000526015602052604060002090565b541091821592611c1c575b5050611bf45761190e906000526015602052604060002090565b8054600101905560018714948515611beb578261193561063c8d546001600160a01b031690565b918389518094819382525afa9081156103e2576119769161069c918d91611bce575b5061196e8c8a519384918883019190602083019252565b6118ce611e52565b9b8c955b611afe575b5050879695937f1517c86fcf2bfb8e3468afcc539b0004955da8027797c497ea51d1f1094ab89898611ad49694611a1d94611a0b611a109560065415611ae5575b6119d36119ce600654611ef2565b600655565b8b54856119de611cc4565b9288845283015289820152606081019e8f52611a066006546000526017602052604060002090565b611f01565b612679565b6001600160a01b03168852565b611a65611a3188516001600160a01b031690565b6003611a496006546000526017602052604060002090565b01906001600160a01b03166001600160a01b0319825416179055565b88611a96611a7282612809565b98611a89611a7e614254565b509150508854611757565b516001600160a01b031690565b9454915195869533879260a09491979695929760c08501986001600160a01b0380921686521660208501526040840152606083015260808201520152565b0390a1611ae16001600355565b9190565b611aef8c54600855565b611af98c54600955565b6119c0565b909192939450600554918c611b138484611eba565b10611b7e5750887f1517c86fcf2bfb8e3468afcc539b0004955da8027797c497ea51d1f1094ab89899989795611ad49795611a0b8f9496611b6b611b6687611b61611a109a611a1d9c611eba565b611ee5565b600555565b955050945094965098819597985061197f565b611bca90875191829162461bcd60e51b8352820160609060208152601360208201527f73746f722e66616b652e6d696e7476616c75650000000000000000000000000060408201520190565b0390fd5b611be59150853d87116103db576103cc818361160f565b38611957565b508b8c9561197a565b5085517feb2c7de7000000000000000000000000000000000000000000000000000000008152fd5b8c1091508115611c2f575b5038806118f4565b90508a1138611c27565b611bca82885191829162461bcd60e51b8352820160609060208152601560208201527f696e76616c6964206d696e744379636c6544617973000000000000000000000060408201520190565b611c9d919850823d84116103db576103cc818361160f565b9638611857565b82604051630d419f7360e41b8152fd5b8260405163658141c160e01b8152fd5b604051906080820182811067ffffffffffffffff82111761159957604052565b604051906116e1826115f3565b67ffffffffffffffff811161159957601f01601f191660200190565b60405190611d1a826115d7565b60008252565b604051611d2c816115d7565b60008152906000368137565b60405190611d45826115bb565b600f82527f6d696e744379636c6544617973282900000000000000000000000000000000006020830152565b60405190611d7e826115bb565b601282527f6d61784d696e74735065724379636c65282900000000000000000000000000006020830152565b634e487b7160e01b600052601160045260246000fd5b8115611dca570490565b634e487b7160e01b600052601260045260246000fd5b60405190611ded826115bb565b600c82527f6d696e4d696e74517479282900000000000000000000000000000000000000006020830152565b60405190611e26826115bb565b600c82527f6d61784d696e74517479282900000000000000000000000000000000000000006020830152565b60405190611e5f826115bb565b601982527f636f6d707574654d696e7456616c75652875696e7432353629000000000000006020830152565b90600e8201809211611e9957565b611daa565b6047019081604711611e9957565b9060018201809211611e9957565b91908201809211611e9957565b600019810191908211611e9957565b600119810191908211611e9957565b91908203918211611e9957565b6000198114611e995760010190565b60036001600160a01b0360606116e1948051855560208101516001860155604081015160028601550151169101906001600160a01b03166001600160a01b0319825416179055565b600260035414611f5a576002600355565b60046040517f3ee5aeb5000000000000000000000000000000000000000000000000000000008152fd5b60405190611f91826115f3565b60e0368337565b90611fab9291611fa6611f49565b6120e1565b906001600355565b60405190611fc0826115bb565b601082527f65616368636c61696d4379636c652829000000000000000000000000000000006020830152565b60405190611ff9826115bb565b601082527f6d696e436c61696d5065724461792829000000000000000000000000000000006020830152565b60405190612032826115bb565b601082527f6d6178436c61696d5065724461792829000000000000000000000000000000006020830152565b6040519061206b826115bb565b601682527f6d6178476c6f62616c436c61696d5065724461792829000000000000000000006020830152565b604051906120a4826115bb565b601582527f67657477697468647261776e2875696e743235362900000000000000000000006020830152565b90600a8110156113bb5760051b0190565b92918381156126735750600255600061210461063c82546001600160a01b031690565b6040908151809163cfbffe5360e01b825281600460209384935afa9182156103e2578492612654575b50612136614254565b50969150506121486002968754611757565b603261217787546008549361215d8186611eba565b82111561264d5761216f915084611eba565b925b83611ee5565b116126455761218590614616565b6121a461219b612193611d20565b6118b6611fb3565b60095490611eba565b908554918210156121c1575b5050505050506116e1610c0f616240565b6121d46121cc611d20565b6118b6611fec565b926121e86121e0611d20565b61188b612025565b600f60005260166020529261234a61231a6122ea6122ba61228a61225a7fc361f6d77665192d237562bd0853419e4f63406390ab643d0f1cdbcdd3e2cbae54601060005260166020527f2a87e474c76dec5537d547c3958b767dcf7498ad7afcca0a2eb8ad1481fbf5b65b5490611eba565b601160005260166020527f8419164215688829c599d418012c77589d6ed4c687dc9e57a4a19678f70f8a31612253565b601260005260166020527f8531638db615388f9d93ea5c79a334675d6050f9d301f5b6af156a74ff569635612253565b601360005260166020527f8e8ddf6db11641650f4fdf401a12def6a7e0b43b7e1e0b4a9bb751fc3ac1eab5612253565b601460005260166020527f7beb2646ec614ee6b553f9ed5c257fdce28fa220de7a1708afec2ddbe81f1b30612253565b601560005260166020527fe3be994f4df1ce307d3423eeebbbb0cd25598c1b97b848f71392674439a00e37612253565b9485101561235a575b50506121b0565b612371600492612368611d20565b906118ce61205e565b928061238761063c8a546001600160a01b031690565b88519485809263ab6e844f60e01b82525afa9081156103e2576123cb938992612622575b508751908101928352916123c390839060200161069c565b6118ce612097565b10156125f957808211156125f1576123e291611ee5565b9060015b600781111561246a5750507f50eede7cc9d9157638c32051246e3b16ef1b4d09c2f4b59ff806a325cf84bf2c80546101008701527f307cc7fa9030ab778db9755dd3a02d67731fde58e03005caf325db0bce1f2eaf805461012088015260166020908152918490556000919091529190915550546009553880808080808080612353565b61248661247682611e8b565b6000526016602052604060002090565b54836125585790612553916124a5826000526016602052604060002090565b6124b0828254611eba565b9055856124bf61247684611e8b565b556124d26124cc83611ec7565b8a6120d0565b525b7f1517c86fcf2bfb8e3468afcc539b0004955da8027797c497ea51d1f1094ab8986125016124cc83611ec7565b5187549061254b61251185611e9e565b875193849333859094939260a0926001600160a01b0360c08401971683526000602084015260006040840152606083015260808201520152565b0390a1611ef2565b6123e6565b838111156125b2579061256e8461255393611ee5565b938461258f612587846000526016602052604060002090565b918254611eba565b905561259d61247683611e8b565b5584936125ac6124cc83611ec7565b526124d4565b6125c0906125539294611ee5565b926125d5816000526016602052604060002090565b50846125e361247683611e8b565b55846125ac6124cc83611ec7565b5050816123e2565b600483517f1d63fe21000000000000000000000000000000000000000000000000000000008152fd5b81925061263e906123c3923d85116103db576103cc818361160f565b91906123ab565b505050505050565b5092612171565b8161266c9293503d84116103db576103cc818361160f565b903861212d565b93505050565b916126f9926126ea926001600160a01b039586600154169360025492604051957fc85700fb000000000000000000000000000000000000000000000000000000006020880152602487015260448601526064850152608484015260a483015260a482526126e5826115f3565b61678c565b60208082518301019101611631565b1680156127035790565b60046040517fb1bdf8b0000000000000000000000000000000000000000000000000000000008152fd5b6040519061273a826115bb565b600682527f706f6f6c282900000000000000000000000000000000000000000000000000006020830152565b908160e09103126103f85780519160208201519160408101519160608201519160808101519160c060a083015192015190565b9061271091828102928184041490151715611e9957565b9081606402916064830403611e9957565b81810292918115918404141715611e9957565b91909160008382019384129112908015821691151617611e9957565b81810392916000138015828513169184121617611e9957565b600490602061282361063c6000546001600160a01b031690565b6040519384809263cfbffe5360e01b82525afa80156103e2576128ee6128c46128a96128e96128b461289e6128ae61288e61287f6128a3996116469c600091612900575b50612870611d20565b9061287961272d565b906165a3565b60208082518301019101612766565b9e8f9b969e9498929591506127c1565b6127c1565b936127c1565b612799565b90611dc0565b946128d46128c482600254611eba565b6000526018602052604060002090565b6128df8782546127d4565b9055600254611eba565b611eba565b6128f98282546127f0565b90556127c1565b612918915060203d81116103db576103cc818361160f565b38612867565b6040519061292b826115bb565b601382527f55736572546f496e7374286164647265737329000000000000000000000000006020830152565b60405190612964826115bb565b600b82527f6d696e74436f756e7428290000000000000000000000000000000000000000006020830152565b6040519061299d826115bb565b600e82527f6d696e74732875696e74323536290000000000000000000000000000000000006020830152565b604051906129d6826115bb565b600b82527f6d696e74656441676528290000000000000000000000000000000000000000006020830152565b60405190612a0f826115bb565b600b82527f6d696e74656471747928290000000000000000000000000000000000000000006020830152565b60405190612a48826115bb565b600c82527f6964732875696e743235362900000000000000000000000000000000000000006020830152565b60405190612a81826115bb565b600982527f6d696e74416d74282900000000000000000000000000000000000000000000006020830152565b604051906080820182811067ffffffffffffffff8211176115995760405260006060838281528260208201528260408201520152565b60405190612af0826115bb565b600a82527f647261776e6167652829000000000000000000000000000000000000000000006020830152565b60405190612b29826115bb565b600c82527f4c53422875696e743235362900000000000000000000000000000000000000006020830152565b60405190612b62826115bb565b600782527f647261776e2829000000000000000000000000000000000000000000000000006020830152565b91908260c09103126103f85781519160208101519160408201519160608101519160a0608083015192015190565b60405190612bc9826115bb565b601382527f67657452657761726473286164647265737329000000000000000000000000006020830152565b91908260409103126103f8576020825192015190565b60405190612c18826115bb565b600782527f626f6e75732829000000000000000000000000000000000000000000000000006020830152565b60405190612c51826115bb565b600682527f63616765282900000000000000000000000000000000000000000000000000006020830152565b60405190612c8a826115bb565b601982527f67657445666665637469766552616e6b286164647265737329000000000000006020830152565b60405190612cc3826115bb565b601f82527f6765746e6f646572616e6b61676528616464726573732c75696e7432353629006020830152565b60405190612cfc826115bb565b601082527f6765744e6f6465286164647265737329000000000000000000000000000000006020830152565b908160a09103126103f8578051916020820151612d44816105f4565b9160408101519160806060830151612d5b816107ef565b920151611646816107ef565b60405190612d74826115bb565b601582527f67657444656c656761746f7228616464726573732900000000000000000000006020830152565b60405190612dad826115bb565b601482527f697344656c656761746f722861646472657373290000000000000000000000006020830152565b60405190612de6826115bb565b601a82527f77697468647261776e496e636f6d654f662861646472657373290000000000006020830152565b60045460081c60ff1661394e576004906020612e3961063c6000546001600160a01b031690565b6040519384809263111ea8c160e21b82525afa9182156103e25760009261392d575b50612eb0612e94612ea2612e776001546001600160a01b031690565b604080516001600160a01b03909216602083015290928391820190565b03601f19810183528261160f565b612eaa61291e565b8461667f565b906001600160a01b0382161561390957600581116138df57612ee1612ed3611d20565b612edb612957565b84616704565b90600654612eef8183611eba565b8311156138d757612eff91611eba565b816134ff575b5080600654149081156134f6575b50612f1c575050565b612f37612f32612f2a611d20565b612edb612ae3565b600a55565b600a5460085481116134ae575b50612f70612f61612f53611d20565b612f5b612b55565b846165a3565b60208082518301019101612b8e565b601660209081527f4c4dc693d7db52f85fe052106f4b4b920e78e8ef37dee82878a60ab8585faf49969096557fcaff291fe014adc6b72a172705750b4cabe8f8667664d2924a166caab2885648949094557ff06d282f967055cb1eee17e04aa005b9682a620f4bbcfaee55ba78607a3d87ae929092557fec061709de2491458f4c981032059d7d19b0e55f45018bac6b3e660bdc959a59557fc6a239f207aea309a1b4879cb5411b8facfc2bc1e4cc4717ff2598676c399b5f5560076000527f5c9294642c77fdf0ce4b0f45159c977165b1ec2ef3bb94ee3e2a496634c781e855604080516001600160a01b03841692810192909252613098916130899161307b9082908101612e94565b613083612bbc565b856165a3565b60208082518301019101612bf5565b60166020527fa03de401ff86fc22e691d3563b736c9fadf4f2babab79e9b7995ce6f656920a79190915560686000527f5a2cd1a21e67d7dda0aeee7dda01b941de71cc935cebfacc2b9b226beb2ced33556130ff611b666130f7611d20565b612edb612c0b565b613115612f3261310d611d20565b612edb612c44565b61314c61314760405161313f81612e9486602083019190916001600160a01b036020820193169052565b6118b6612c7d565b600b55565b60005b600f8111156133bc575061319161069c6131b7936131896131a094604051938491602083019190916001600160a01b036020820193169052565b612879612cef565b60208082518301019101612d28565b935050505060ff8019600454169115151617600455565b6131cc61063c6000546001600160a01b031690565b604051907f6325dd0400000000000000000000000000000000000000000000000000000000808352602083600481855afa9283156103e25760009361339b575b506132536132226001546001600160a01b031690565b604080516001600160a01b0383166020820152919590613245908390810161069c565b61324d612d67565b9061667f565b604051828152602081600481875afa80156103e2576132a49261069c92600092613376575b5061329c90604051938491602083019190916001600160a01b036020820193169052565b6114b9612da0565b6132cb575b5050506132b7600854600955565b6116e161010061ff00196004541617600455565b60209060046040518094819382525afa80156103e25761331d9261069c92600092613351575b5061331590604051938491602083019190916001600160a01b036020820193169052565b6118ce612dd9565b600560005260166020527f5696377e725b42a372ecc45f0fbdab5e9555865aef54619ad9381892f667bbf0553880806132a9565b61331591925061336f9060203d6020116103db576103cc818361160f565b91906132f1565b61329c9192506133949060203d6020116103db576103cc818361160f565b9190613278565b6133b591935060203d6020116103db576103cc818361160f565b913861320c565b806133d591613424575b600b548111156133da57611ef2565b61314f565b604080516001600160a01b038516602082015290810182905261341f90613416906134088160608101612e94565b613410612cb6565b87616704565b61173e836113a9565b611ef2565b6040517f5329daca0000000000000000000000000000000000000000000000000000000060208201526001600160a01b03841660248201526044810182905261347e90613089906134788160648101612e94565b8661678c565b613492836000526019602052604060002090565b906134a784600052601a602052604060002090565b55556133c6565b6008556134d9612e946134d1600a54604051928391602083019190602083019252565b61188b612b1c565b6134ef6008546000526018602052604060002090565b5538612f44565b90501538612f13565b600080527fd2ac945fcc0096878c763e37d6929b78378c1a2defabde8ba7ee5ed1d6e7a5b254601a6020527fb75ecc04ed35f89790e98640e901bda41eceff0cb896cf2765fb697680253750549095909491929091905b6006548481101561387a576119ce61356d91611ef2565b61359b612e9461358d600654604051928391602083019190602083019252565b613595612990565b8761667f565b6135b1610c0f6135a9611d20565b612edb6129c9565b6136636135c76135bf611d20565b612edb612a02565b986135ec6040516135e481612e9460208201906000602083019252565b6118b6612a3b565b986136096136036135fb611d20565b613410612a74565b94616881565b602061362061063c6000546001600160a01b031690565b6040517fcfaa1f6c0000000000000000000000000000000000000000000000000000000081526001600160a01b0390931660048401529194859081906024820190565b0381845afa9384156103e257600094613859575b506001600160a01b038416156137e7575b5061369561180284616112565b6137d6578a9284846136a5612aad565b938285528160208601526002958654604087015283866006546136d2906000526017602052604060002090565b906136dc91611f01565b6136e591611eba565b9e6136ef91611eba565b9c6136f993612679565b600654613710906000526017602052604060002090565b6003019061373391906001600160a01b03166001600160a01b0319825416179055565b61373c84612809565b506006546001149361378260606137bf937f1517c86fcf2bfb8e3468afcc539b0004955da8027797c497ea51d1f1094ab898976137c7575b01516001600160a01b031690565b9254604080513381526001600160a01b03909516602086015284019490945260608301526080820192909252600060a082015290819060c0820190565b0390a1613556565b6137d18654600855565b613774565b6004604051630d419f7360e41b8152fd5b6040517fb771c89600000000000000000000000000000000000000000000000000000000815260006004820152919350602090829060249082905afa9081156103e25760009161383a575b509138613688565b613853915060203d6020116103db576103cc818361160f565b38613832565b61387391945060203d6020116103db576103cc818361160f565b9238613677565b50600080527fd2ac945fcc0096878c763e37d6929b78378c1a2defabde8ba7ee5ed1d6e7a5b296909655601a6020527fb75ecc04ed35f89790e98640e901bda41eceff0cb896cf2765fb6976802537509490945593905038612f05565b505080612eff565b60046040517fc99d37d2000000000000000000000000000000000000000000000000000000008152fd5b505050613917612f32616240565b613922600a54600855565b6132b7600a54600955565b61394791925060203d6020116103db576103cc818361160f565b9038612e5b565b50565b959394909291946000966000968461396b57505050505050565b919395965091939650600b5496846000146139d357613994866000526019602052604060002090565b8054918201809211611e99576139c4966139bd926125879255600052601a602052604060002090565b9055614048565b600b5490388080808080612645565b85600096929652601960205260406000208054918203918211611e995755600052601a6020526040600020938454908103908111611e99576139c49455614048565b60405190613a22826115bb565b601482527f6c6576656c436c617573652875696e74323536290000000000000000000000006020830152565b908160a09103126103f8578051916020820151916040810151916080606083015192015190565b9493959297968615159889613e37575b5050600b5497613a9f876000526019602052604060002090565b613aaa838254611eba565b9055613ac087600052601a602052604060002090565b613acb848254611eba565b90556000805260196020527fd2ac945fcc0096878c763e37d6929b78378c1a2defabde8ba7ee5ed1d6e7a5b25415159081613e2f575b50613b13575b505050505050600b5490565b8391159485159485613e1f575b50506000613b3861063c82546001600160a01b031690565b604051809163cfbffe5360e01b825281600460209384935afa80156103e25761069c613b8991613b96948691613e02575b50613b818c6040519384918783019190602083019252565b612879613a15565b8051810182019101613a4e565b96919293909760028c1192831593613dd3575b505050613bb9575b505050613b07565b613c239615613dca576128ae613bd2613bd893866127c1565b916127b0565b955b15613dc05750613bd2613bf0936128ae926127c1565b925b613c0681600052601b602052604060002090565b613c11848254611eba565b9055600052601c602052604060002090565b613c2e838254611eba565b905560016000819052601d602052613c687f9de6abd965d55c3bb0cdbf6fa175050624c6ff8fe86f682dc08f2a450ede22785b5460011690565b148015613d84575b613d49575b506004600052601d6020526001613cab7fd33c65680209da0447188026adeb57acbe6c3d3a2b5b9c4ecef4d7a917168fd7613c61565b148015613d0d575b613cd2575b50613cc4610c9e614254565b388080808080808080613bb1565b600b6000526016602052613d057fcfa8b17cfe829ccfb82a1b8bc946a78d914318562253e01c04a5bbac5c20f86b612587565b905538613cb8565b5060c8600052601d6020526001613d437f915fdf66858cff90460f130f449e2d78f6f66df207cbd71945619fb7bc9ad3a5613c61565b14613cb3565b60086000526016602052613d7c7f5d722ae86c7aff0f95f426cf86f75793e8cd1a526603df14563c190f75fd2ef3612587565b905538613c75565b5060c8600052601d6020526001613dba7f915fdf66858cff90460f130f449e2d78f6f66df207cbd71945619fb7bc9ad3a5613c61565b14613c70565b9250505092613bf2565b50508095613bda565b613de391929350600a5490611ee5565b10908115613df5575b50388080613ba9565b9050600b54101538613dec565b613e199150843d86116103db576103cc818361160f565b38613b69565b613e2891613ed8565b3882613b20565b905038613b01565b811015613e45575b80613a85565b60145415613e91575b613e63613e5d60145487611ee5565b85111590565b9081613e85575b50613e755738613e3f565b5050505050509050600b54908190565b9050600b541038613e6a565b613e9a85601455565b613e4e565b60405190613eac826115bb565b601382527f72616e6b436c617573652875696e7432353629000000000000000000000000006020830152565b90613eee61063c6000546001600160a01b031690565b906040928351809363cfbffe5360e01b825281600460209384935afa9384156103e257600094614029575b50600b93613f278554611eac565b60088110613f385750505050505050565b613fa490613f75613f678951613f5981612e94868a83019190602083019252565b613f61613e9f565b866165a3565b858082518301019101612bf5565b9086101590818061400b575b80613ff9575b15613fa9575050613f9781600b55565b61341f8661173e836113a9565b613f27565b81613fda575b50613fd15761341f613fc0826113a9565b8154906000199060031b1b19169055565b61341f81600b55565b9050613ff082600052601a602052604060002090565b54101538613faf565b50885461400584611ec7565b14613f87565b508061402184600052601a602052604060002090565b541015613f81565b816140419295503d86116103db576103cc818361160f565b9238613f19565b9061405e61063c6000546001600160a01b031690565b916040938451809463cfbffe5360e01b825281600460209384935afa9485156103e2576000956141a2575b50600b946140978654611eac565b600881106140a9575050505050505050565b6140f490846140e76140d98b516140cb81612e94878b83019190602083019252565b6140d3613e9f565b876165a3565b868082518301019101612bf5565b916140f9575b5050611ef2565b614097565b871015908180614184575b80614172575b1561412e57505061411a81600b55565b6141278761173e836113a9565b38806140ed565b81614153575b5061414a57614145613fc0826113a9565b614127565b61414581600b55565b905061416982600052601a602052604060002090565b54101538614134565b50895461417e84611ec7565b1461410a565b508061419a84600052601a602052604060002090565b541015614104565b816141ba9296503d87116103db576103cc818361160f565b9338614089565b604051906141ce826115bb565b600982527f63617070696e67282900000000000000000000000000000000000000000000006020830152565b908160e09103126103f8578051916020820151614216816107ef565b916040810151614225816107ef565b916060820151614234816107ef565b916080810151614243816107ef565b9160c060a0830151612d5b816107ef565b6000906004602061427061063c6000546001600160a01b031690565b6040519283809263cfbffe5360e01b82525afa9081156103e2576142c0916142b1916000916145f8575b506142a36141c1565b6142ab611d0d565b916165a3565b602080825183010191016141fa565b6000805260196020529396959490929091906142fd867fd2ac945fcc0096878c763e37d6929b78378c1a2defabde8ba7ee5ed1d6e7a5b2546127c1565b97614306615931565b946145f0575b5061455a575b6144f4575b6144e3575b50614475575b614392575b6000805260166020527f0263c2b778d062355049effc2dece97bc6547ff8a88a3258daa512061c2153dd5461435b916127c1565b8084106143895761436c9084611ee5565b905b8282119183811061437f5750600090565b6116469084611ee5565b5060009061436e565b600660005260166020529261435b9061446d9061446761231a6144376144076122ea7fc6a239f207aea309a1b4879cb5411b8facfc2bc1e4cc4717ff2598676c399b5f5b54600d60005260166020527f1f3872f63ca641494b685e4fa2176636d028d8c80f254656e89768cf27243273612253565b600760005260166020527f5c9294642c77fdf0ce4b0f45159c977165b1ec2ef3bb94ee3e2a496634c781e8612253565b600e60005260166020527fd6e1ce7303b8b03e4f8e61fd057015f1c58732e116f2a323c5d9ed9df544bd9a612253565b90611eba565b939050614327565b60056000526016602052936144dd906144676122ba7f5696377e725b42a372ecc45f0fbdab5e9555865aef54619ad9381892f667bbf05b54600c60005260166020527f329445f4448b7d20eec86c1386b39f5d1ed2d5f198689536ebcae9f2881958c3612253565b93614322565b6144ed9196611eba565b943861431c565b60166020527ff06d282f967055cb1eee17e04aa005b9682a620f4bbcfaee55ba78607a3d87ae54600a6000529097614554916144679061225a907fd5b9797c47f98351da0d9dc8805f06430ade47345ddb9b2bd6f346a04809cc41612253565b96614317565b60166020527fcaff291fe014adc6b72a172705750b4cabe8f8667664d2924a166caab288564854600960005290986145ea91614467906145ba907f650982f08e47212452de30f662e413cf6044e641dedc09b52c1617e804a2611e612253565b601060005260166020527f2a87e474c76dec5537d547c3958b767dcf7498ad7afcca0a2eb8ad1481fbf5b6612253565b97614312565b99503861430c565b614610915060203d81116103db576103cc818361160f565b3861429a565b6116e19061462381614ad4565b8051600f60005260166020526146587fc361f6d77665192d237562bd0853419e4f63406390ab643d0f1cdbcdd3e2cbae612587565b90556060810151601260005260166020526146927f8531638db615388f9d93ea5c79a334675d6050f9d301f5b6af156a74ff569635612587565b9055602081810151601060005260169091526146cd7f2a87e474c76dec5537d547c3958b767dcf7498ad7afcca0a2eb8ad1481fbf5b6612587565b9055604081018051601160005260166020526147087f8419164215688829c599d418012c77589d6ed4c687dc9e57a4a19678f70f8a31612587565b90556080820151601360005260166020526147427f8e8ddf6db11641650f4fdf401a12def6a7e0b43b7e1e0b4a9bb751fc3ac1eab5612587565b905560a08201516014600052601660205261477c7f7beb2646ec614ee6b553f9ed5c257fdce28fa220de7a1708afec2ddbe81f1b30612587565b905560c0820151601560005260166020526147b67fe3be994f4df1ce307d3423eeebbbb0cd25598c1b97b848f71392674439a00e37612587565b9055610100820151600960005260166020526147f17f650982f08e47212452de30f662e413cf6044e641dedc09b52c1617e804a2611e612587565b905561012082018051600a600052601660205290926101c0916148337fd5b9797c47f98351da0d9dc8805f06430ade47345ddb9b2bd6f346a04809cc41612587565b9055610160810151600c600052601660205261486e7f329445f4448b7d20eec86c1386b39f5d1ed2d5f198689536ebcae9f2881958c3612587565b9055610180810151600d60005260166020526148a97f1f3872f63ca641494b685e4fa2176636d028d8c80f254656e89768cf27243273612587565b90556101a0810151600e60005260166020526148e47fd6e1ce7303b8b03e4f8e61fd057015f1c58732e116f2a323c5d9ed9df544bd9a612587565b905501516148fc846000526018602052604060002090565b5551601f60005260166020526149317f50eede7cc9d9157638c32051246e3b16ef1b4d09c2f4b59ff806a325cf84bf2c612587565b90555160206000819052601690526149687f307cc7fa9030ab778db9755dd3a02d67731fde58e03005caf325db0bce1f2eaf612587565b9055600855565b604051906101e0820182811067ffffffffffffffff82111761159957604052816101c06000918281528260208201528260408201528260608201528260808201528260a08201528260c08201528260e08201528261010082015282610120820152826101408201528261016082015282610180820152826101a08201520152565b604051906149fd826115bb565b600a82527f73687574646f776e2829000000000000000000000000000000000000000000006020830152565b60405190614a36826115bb565b601882527f676574557365724964546f496e73742875696e743235362900000000000000006020830152565b60405190614a6f826115bb565b601182527f696e636f6d654f662861646472657373290000000000000000000000000000006020830152565b60405190614aa8826115bb565b601482527f636f6d70757465546f75722875696e74323536290000000000000000000000006020830152565b90614add61496f565b91614af361063c6000546001600160a01b031690565b60409182519163ab6e844f60e01b83526020908184600481845afa9384156103e257600094614f46575b50845163cfbffe5360e01b81528281600481855afa9182156103e25785896004968694600096614f1f575b5090614c80859287614b6a614b5b6149f0565b614b63611d0d565b90836166c8565b9b8c92614c16614b78615931565b6060890190815281895260166020527f4c4dc693d7db52f85fe052106f4b4b920e78e8ef37dee82878a60ab8585faf4954600860005290929190614c1090614be0907f5d722ae86c7aff0f95f426cf86f75793e8cd1a526603df14563c190f75fd2ef3612253565b600f60005260166020527fc361f6d77665192d237562bd0853419e4f63406390ab643d0f1cdbcdd3e2cbae612253565b90611ee5565b8752805160166020527fec061709de2491458f4c981032059d7d19b0e55f45018bac6b3e660bdc959a5954600b600052614c799190614c109061228a907fcfa8b17cfe829ccfb82a1b8bc946a78d914318562253e01c04a5bbac5c20f86b612253565b905261517c565b509d94939096926101c087939701526101008201520152600014614f0f57505061069c614cc791614cbf6007548b519384918883019190602083019252565b61324d614a29565b31878a01525b8651948580927f52b06d640000000000000000000000000000000000000000000000000000000082525afa9283156103e257600093614ef0575b50614d92614d5c614d40614d236001546001600160a01b031690565b88519182918783019190916001600160a01b036020820193169052565b0395614d54601f199788810184528361160f565b6118ce614a62565b60056000526016602052614c106122ba7f5696377e725b42a372ecc45f0fbdab5e9555865aef54619ad9381892f667bbf06144ac565b94608088019586526004600b54600281101580614eb3575b614e75575b101580614e14575b614dd5575b50505050614dc75750565b806000915161016085015252565b614e0693614df293614dfe92519485918201906004602083019252565b0390810184528361160f565b6118ce614a9b565b60c085015238808080614dbc565b5060166020527f5c9294642c77fdf0ce4b0f45159c977165b1ec2ef3bb94ee3e2a496634c781e854600e600052614e6f9061231a907fd6e1ce7303b8b03e4f8e61fd057015f1c58732e116f2a323c5d9ed9df544bd9a612253565b15614db7565b614ea98351614e9b81614e8f898201906002602083019252565b0389810183528261160f565b614ea3614a9b565b86616704565b60a08b0152614daf565b5060066000526016602052614eea6122ea7fc6a239f207aea309a1b4879cb5411b8facfc2bc1e4cc4717ff2598676c399b5f6143d6565b15614daa565b614f08919350823d84116103db576103cc818361160f565b9138614d07565b8b8a01526101208b015250614ccd565b8592919650614f3d614c8091843d86116103db576103cc818361160f565b96919250614b48565b614f5e919450823d84116103db576103cc818361160f565b9238614b1d565b604051906040820182811067ffffffffffffffff8211176115995760405260006020838281520152565b6040519060a0820182811067ffffffffffffffff8211176115995760405281614fb6614f65565b8152614fc0614f65565b6020820152614fcd614f65565b6040820152614fda614f65565b60608201526080614fe9614f65565b910152565b60405190614ffb826115bb565b601882527f6765744261746368526f79616c7479436c6175736573282900000000000000006020830152565b6102a09081818403126103f85782601f820112156103f857604080519361504d856115f3565b84938301928184116103f857935b83851061506a57505050505090565b6060858303126103f85782516060916150828261157d565b865182526020918288015183820152858801518682015281520194019361505b565b604051906150b1826115bb565b601f82527f676574526f79616c697479416d6f756e7442617463682875696e7432353629006020830152565b9060e0828203126103f85780601f830112156103f85760405191615100836115f3565b829060e081019283116103f857905b82821061511c5750505090565b815181526020918201910161510f565b9060078110156113bb5760051b0190565b8181029291600082127f8000000000000000000000000000000000000000000000000000000000000000821416611e99578184051490151715611e9957565b929060009460009460009460009460009461521961520a61519b614f8f565b946151a587615627565b8751906020820152526151b787615704565b6020880151906020820152526151cc87615797565b6040880151906020820152526151e187615839565b6060880151906020820152526151f6876158b5565b6080880151906020820152526142a3614fee565b60208082518301019101615027565b91600854600b54905b86811061526e57505050505060208151015182119182918215809461525c575b939261524d57505091565b60800151602001511015929050565b50602060608201510151821115615242565b6152a461529560405161528d81612e9486602083019190602083019252565b6140d36150a4565b602080825183010191016150dd565b6001905b8382111561550157505082156152c7575b6152c290611ef2565b615222565b6152e66152de826000526018602052604060002090565b54809c6127d4565b9a6152f18289611ee5565b90600091604089015189518b825181811080845193841093816154f9575b816154d6575b501561540857505050602080835183518082106000146154005750935b0151910151808211156153f85750905b808611156153f2575084905b61535781611eac565b8c10156153e457508a5b8181116153d1575b50505b8083116153c9575b8261537e91611ee5565b91806153b3575b5081615393575b50506152b9565b9a6153a56153ab926152c2949d61513d565b906127d4565b99903861538c565b9a6153a5829c6153c29361513d565b9938615385565b915081615374565b6153dc929450611ee5565b913880615369565b6153ed90611eac565b615361565b9061534e565b905090615342565b905093615332565b93919293615480575b505061541e575b5061536c565b8051808611156154775750602085915b016154398151611eac565b8c101561546857508a5b818111615451575b50615418565b61546092949161446791611ee5565b91388061544b565b6154729051611eac565b615443565b6020909161542e565b808811156154cd5750602087915b018d61549a8251611eac565b11156154be57508c5b81811115615411576154b6929650611ee5565b933880615411565b6154c89051611eac565b6154a3565b6020909161548e565b905060208601511080156154ec575b1538615315565b50816020850151106154e5565b84915061530f565b909c61551561550f8f611ec7565b8861512c565b51511580156155c7575b6155bd578751805184101590816155ae575b508015615587575b1561556b5761555f615565918f61555261555891611ec7565b8561512c565b5190611eba565b9d611ef2565b906152a8565b9c9d6155818f9161555861555261556594611ec7565b9e611ef2565b5060208801518051841015908161559f575b50615539565b60209150015183111538615599565b60209150015183111538615531565b9c61556590611ef2565b508d6155df6155d5826113a9565b90549060031b1c90565b84101590816155f0575b501561551f565b61561e9150604061561561560f6156096155d5856113a9565b93611ec7565b8b61512c565b51015190611eba565b8311158e6155e9565b60c8600052601d6020527f915fdf66858cff90460f130f449e2d78f6f66df207cbd71945619fb7bc9ad3a5805492919083156156fd57600184166156e557505060c8600052601d6020526155d56156a77f915fdf66858cff90460f130f449e2d78f6f66df207cbd71945619fb7bc9ad3a56156a185611ed6565b906116fe565b905460c8600052601d60205260039190911b1c926156a17f915fdf66858cff90460f130f449e2d78f6f66df207cbd71945619fb7bc9ad3a591611ec7565b6156a16156f29294611ec7565b90549060031b1c9190565b5091508190565b60026000908152601d6020527f64f63e8728b8a1c8ce5fe5058430331934c8d0c3d8a2f2793f19836c1447addb805491939290821561578f57600183166157805750506155d59060028452601d6020526156a160406157688187206156a185611ed6565b90549060031b1c9560028152601d6020522091611ec7565b9093506156a16156f292611ec7565b509250508190565b60036000818152601d6020527f628971151cb24dee737f6abea9bff35ce226e4c8f5760305d49b3725728390908054919493908215615830576001831661581857505061581090828552601d6020526156a160406157fa8188206156a185611ed6565b905490861b1c96858152601d6020522091611ec7565b9054911b1c90565b9094506156a161582792611ec7565b9054911b1c9190565b50935050508190565b60056000908152601d6020527fd19a5fe801b7c1f3d54e7cd62d56e46f02f2ab5a22ee5edcfdddda6c80cf4c11805491939290821561578f57600183166157805750506155d59060058452601d6020526156a1604061589d8187206156a185611ed6565b90549060031b1c9560058152601d6020522091611ec7565b60066000908152601d6020527fe05f340630215c2ef0683a72fde801183a1a4ecac14ded57e11c794e9bcb2069805491939290821561578f57600183166157805750506155d59060068452601d6020526156a160406159198187206156a185611ed6565b90549060031b1c9560068152601d6020522091611ec7565b600090816001815b600f8211156159b2575050606560005260166020527fa03de401ff86fc22e691d3563b736c9fadf4f2babab79e9b7995ce6f656920a7548101809111611e995760686000526016602052917f5a2cd1a21e67d7dda0aeee7dda01b941de71cc935cebfacc2b9b226beb2ced33548101809111611e995790565b9093848252602092601b8452604090818420548101809111611e9957601c9094878552528220548101809111611e99576159ec9094611ef2565b90615939565b9190916159fd611f84565b928115615e485760018214615d225760028214615bf75760038214615b0c57615a4c90615a28616240565b90600854615a368282611eba565b831115615b0557615a479250611eba565b614ad4565b9060048114615ab657600514615a5f5750565b9091506101a0615a6d611ce4565b9160e08101518352610100810151602084015261012081015160408401526101408101516060840152610160810151608084015261018081015160a0840152015160c082015290565b5090915060c0615ac4611ce4565b91805183526020810151602084015260408101516040840152606081015160608401526080810151608084015260a081015160a0840152015160c082015290565b5050614ad4565b50509050615b18611ce4565b7f0263c2b778d062355049effc2dece97bc6547ff8a88a3258daa512061c2153dd5481527f50eede7cc9d9157638c32051246e3b16ef1b4d09c2f4b59ff806a325cf84bf2c546020808301919091527f307cc7fa9030ab778db9755dd3a02d67731fde58e03005caf325db0bce1f2eaf5460408301527fa03de401ff86fc22e691d3563b736c9fadf4f2babab79e9b7995ce6f656920a75460608301526068600090815260169091527f5a2cd1a21e67d7dda0aeee7dda01b941de71cc935cebfacc2b9b226beb2ced3354608083015260a0820181905260c082015290565b50509050615c03611ce4565b7fc361f6d77665192d237562bd0853419e4f63406390ab643d0f1cdbcdd3e2cbae5481527f2a87e474c76dec5537d547c3958b767dcf7498ad7afcca0a2eb8ad1481fbf5b6546020808301919091527f8419164215688829c599d418012c77589d6ed4c687dc9e57a4a19678f70f8a315460408301527f8531638db615388f9d93ea5c79a334675d6050f9d301f5b6af156a74ff5696355460608301527f8e8ddf6db11641650f4fdf401a12def6a7e0b43b7e1e0b4a9bb751fc3ac1eab55460808301527f7beb2646ec614ee6b553f9ed5c257fdce28fa220de7a1708afec2ddbe81f1b305460a08301526015600052601690527fe3be994f4df1ce307d3423eeebbbb0cd25598c1b97b848f71392674439a00e375b5460c082015290565b50509050615d2e611ce4565b7f5d722ae86c7aff0f95f426cf86f75793e8cd1a526603df14563c190f75fd2ef35481527f650982f08e47212452de30f662e413cf6044e641dedc09b52c1617e804a2611e546020808301919091527fd5b9797c47f98351da0d9dc8805f06430ade47345ddb9b2bd6f346a04809cc415460408301527fcfa8b17cfe829ccfb82a1b8bc946a78d914318562253e01c04a5bbac5c20f86b5460608301527f329445f4448b7d20eec86c1386b39f5d1ed2d5f198689536ebcae9f2881958c35460808301527f1f3872f63ca641494b685e4fa2176636d028d8c80f254656e89768cf272432735460a0830152600e600052601690527fd6e1ce7303b8b03e4f8e61fd057015f1c58732e116f2a323c5d9ed9df544bd9a615d19565b50509050615e54611ce4565b7f4c4dc693d7db52f85fe052106f4b4b920e78e8ef37dee82878a60ab8585faf495481527fcaff291fe014adc6b72a172705750b4cabe8f8667664d2924a166caab2885648546020808301919091527ff06d282f967055cb1eee17e04aa005b9682a620f4bbcfaee55ba78607a3d87ae5460408301527fec061709de2491458f4c981032059d7d19b0e55f45018bac6b3e660bdc959a595460608301527f5696377e725b42a372ecc45f0fbdab5e9555865aef54619ad9381892f667bbf05460808301527fc6a239f207aea309a1b4879cb5411b8facfc2bc1e4cc4717ff2598676c399b5f5460a08301526007600052601690527f5c9294642c77fdf0ce4b0f45159c977165b1ec2ef3bb94ee3e2a496634c781e8615d19565b15615f7557565b606460405162461bcd60e51b815260206004820152601960248201527f6f776e2e7361666567756172642e63616c6c2e6661696c6564000000000000006044820152fd5b908160209103126103f85751611646816107ef565b6001600160a01b03600054166040518091634bf9c0ad60e11b825281600460209384935afa9182156103e2576116469261605691600091616071575b50604051616017816115bb565b600881527f6973536166652829000000000000000000000000000000000000000000000000848201526040519161604d836115d7565b600083526165ce565b919080616067575b6106c990615f6e565b508151811461605e565b6160889150833d85116103db576103cc818361160f565b3861600a565b6040519061609b826115bb565b601582527f69735365637572654261736528616464726573732900000000000000000000006020830152565b156160ce57565b606460405162461bcd60e51b815260206004820152601a60248201527f6f776e2e736563757265626173652e63616c6c2e6661696c65640000000000006044820152fd5b6000546001600160a01b0316604051918291634bf9c0ad60e11b835282600460209485935afa9283156103e2576116469361617e9261069c92600092616199575b50616176906040519384918783019190916001600160a01b036020820193169052565b6106b261608e565b91908061618f575b6106c9906160c7565b5081518114616186565b6161769192506161b590863d88116103db576103cc818361160f565b9190616153565b604051906161c9826115bb565b601182527f69735369676e65722861646472657373290000000000000000000000000000006020830152565b156161fc57565b606460405162461bcd60e51b815260206004820152601660248201527f6f776e2e7369676e65722e63616c6c2e6661696c6564000000000000000000006044820152fd5b600460206001600160a01b03600054166040519283809263111ea8c160e21b82525afa80156103e257611646916000916162c2575b50604051616282816115bb565b600581527f61676528290000000000000000000000000000000000000000000000000000006020820152604051916162b9836115d7565b60008352616704565b6162da915060203d81116103db576103cc818361160f565b38616275565b604051906162ed826115bb565b601882527f697364656c656761746f724e6f646528616464726573732900000000000000006020830152565b6001600160a01b0380911690811561636657600154826001600160a01b0319821617600155167f8292fce18fa69edf4db7b94ea2e58241df0ae57f97e0a6c9b29067028bf92d76600080a3565b606460405162461bcd60e51b815260206004820152601160248201527f6f776e2e696e76616c69642e6f776e65720000000000000000000000000000006044820152fd5b3d156163d5573d906163bb82611cf1565b916163c9604051938461160f565b82523d6000602084013e565b606090565b9080156116d4576001600160a01b03821691821561648057600080808481945af16164036163aa565b501561643c576040519081527fcec1f18c3ab8ddaaa107a1591e3c369667eec613626611a8deaedef43069fcdd9080602081015b0390a2565b606460405162461bcd60e51b815260206004820152601360248201527f6f776e2e7472616e736665722e6661696c6564000000000000000000000000006044820152fd5b606460405162461bcd60e51b815260206004820152600e60248201527f6f776e2e696e76616c69642e746f0000000000000000000000000000000000006044820152fd5b6000600460206001600160a01b03835416604051928380926311be646b60e21b82525afa9081156103e2578284819382938391616585575b505af16165076163aa565b50156165415760405190815233907fcdcc745fe377b103b45fa0cec23ae3ef93d6fc6a84a01f0d18c40b354dd1d5d8908060208101616437565b606460405162461bcd60e51b815260206004820152600f60248201527f6f776e2e6275726e2e6661696c656400000000000000000000000000000000006044820152fd5b61659d915060203d81116103db576103cc818361160f565b386164fc565b906165ae92916165ce565b90600090156165bb575090565b60405191506165c9826115d7565b815290565b9190823b15616666577fffffffff00000000000000000000000000000000000000000000000000000000815160208093012016916040519180830193845281519160005b83811061665257505050918161663f6024826000979596889701878382015203600481018452018261160f565b5191620dbba0fa61664e6163aa565b9091565b818101830151858201602401528201616612565b505050600090604051616678816115d7565b6000815290565b929161668d916000946165ce565b90806166bd575b61669b5750565b6001600160a01b03919250806020806166b993518301019101611631565b1690565b506020815114616694565b92916166d6916000946165ce565b90806166f9575b6166e45750565b61164691925060208082518301019101615fb9565b5060208151146166dd565b9291616712916000946165ce565b9080616737575b6167205750565b9091506020818051810103126103f8576020015190565b506020815114616719565b90602082519201517fffffffff0000000000000000000000000000000000000000000000000000000090818116936004811061677d57505050565b60040360031b82901b16169150565b6001600160a01b0381161561683d57600080918351908260208601915af1906167b36163aa565b91156167bd575090565b805160009190600411616837576167d49150616742565b8151156167e45750805190602001fd5b6024907fffffffff00000000000000000000000000000000000000000000000000000000604051917f21c09d34000000000000000000000000000000000000000000000000000000008352166004820152fd5b506167d4565b606460405162461bcd60e51b815260206004820152601260248201527f6f776e2e696e76616c69642e74617267657400000000000000000000000000006044820152fd5b803b600061688e82611cf1565b9261689c604051948561160f565b82845260208401903c602d8151106168b857602a015160601c90565b606460405162461bcd60e51b815260206004820152601360248201527f4e6f742061206d696e696d616c2070726f7879000000000000000000000000006044820152fdfea2646970667358221220573ffb9164b8e15456fdaab06db0c8a7aa38ae4d6de59e031bc5cedafeb8d67264736f6c63430008140033","linkReferences":{}},"methodIdentifiers":{"Burn(uint256)":"b90306ad","BurnCoin()":"7bfbfecb","LSB(uint256)":"a98bf4f9","_compute(uint256)":"2c2838e8","_delegatorCount()":"a1f7f539","_getImplementation(address)":"c54e44b0","_importOld(uint256)":"141ca660","_isDelegatorNode(address)":"e01ad5fd","_isSafe()":"e0a9bc2b","_isSecureBase(address)":"af484526","_isSigner(address)":"1f185d16","_txnType7(uint256,uint256)":"02a085f2","_txnType_1_0(address,uint256,uint256,uint256,uint256)":"932ca2d6","addLevelnGetRank(uint256,uint256,uint256,uint256,uint256,uint256,uint256,uint256)":"c8ba154e","bonus()":"75b4d78c","cage()":"69245009","capStatus()":"a1531545","dage()":"725b6fff","getAllIncome(uint256,uint256)":"a20199ac","getBalance()":"12065fe0","getHexbase()":"3b9b7955","getNodeLB(uint256)":"da021335","getToggleAgeCount(uint256)":"143ec3b7","getToggleAgeValue(uint256,uint256)":"043719b4","id()":"af640d0f","isLock()":"09d8da2e","levelRestrictionAge()":"2bb96697","mintCount()":"9659867e","mints(uint256)":"6350b2c2","moveLvlIncome(uint256,uint256,uint256,uint256,uint256,bool)":"393a9f95","owner()":"8da5cb5b","postInit()":"4a65786c","preinit(address,address,uint256)":"52902c59","rank()":"934209ce","rankage(uint256)":"d3a1a499","setBonus(uint256)":"0b98f975","setLock(bool)":"619d5194","setSuspend(uint256,bool)":"c8ef7b1a","systemAge()":"fdc10bc9","updateOwner(address)":"880cdc31","userCycleMintCount(uint256)":"39b4d61b","withdrawlDage()":"a9bf285b"},"id":53}