{"abi":[{"type":"constructor","inputs":[{"name":"_hex","type":"address","internalType":"address"}],"stateMutability":"nonpayable"},{"type":"fallback","stateMutability":"payable"},{"type":"receive","stateMutability":"payable"},{"type":"function","name":"Burn","inputs":[{"name":"amount","type":"uint256","internalType":"uint256"}],"outputs":[],"stateMutability":"nonpayable"},{"type":"function","name":"BurnCoin","inputs":[],"outputs":[],"stateMutability":"payable"},{"type":"function","name":"LSB","inputs":[{"name":"","type":"uint256","internalType":"uint256"}],"outputs":[{"name":"","type":"int256","internalType":"int256"}],"stateMutability":"view"},{"type":"function","name":"_compute","inputs":[{"name":"endage","type":"uint256","internalType":"uint256"}],"outputs":[{"name":"r","type":"tuple","internalType":"struct InstanceStor.ComputeResult","components":[{"name":"p1","type":"uint256","internalType":"uint256"},{"name":"p2","type":"uint256","internalType":"uint256"},{"name":"p3","type":"uint256","internalType":"uint256"},{"name":"p4","type":"uint256","internalType":"uint256"},{"name":"p5","type":"uint256","internalType":"uint256"},{"name":"p6","type":"uint256","internalType":"uint256"},{"name":"p7","type":"uint256","internalType":"uint256"},{"name":"f1","type":"uint256","internalType":"uint256"},{"name":"f2","type":"uint256","internalType":"uint256"},{"name":"f3","type":"uint256","internalType":"uint256"},{"name":"f4","type":"uint256","internalType":"uint256"},{"name":"f5","type":"uint256","internalType":"uint256"},{"name":"f6","type":"uint256","internalType":"uint256"},{"name":"f7","type":"uint256","internalType":"uint256"},{"name":"lsb","type":"int256","internalType":"int256"}]}],"stateMutability":"view"},{"type":"function","name":"_delegatorCount","inputs":[],"outputs":[{"name":"","type":"uint256","internalType":"uint256"}],"stateMutability":"view"},{"type":"function","name":"_getImplementation","inputs":[{"name":"clone","type":"address","internalType":"address"}],"outputs":[{"name":"impl","type":"address","internalType":"address"}],"stateMutability":"view"},{"type":"function","name":"_importOld","inputs":[{"name":"limit","type":"uint256","internalType":"uint256"}],"outputs":[],"stateMutability":"payable"},{"type":"function","name":"_isDelegatorNode","inputs":[{"name":"sender","type":"address","internalType":"address"}],"outputs":[{"name":"","type":"bool","internalType":"bool"}],"stateMutability":"view"},{"type":"function","name":"_isSafe","inputs":[],"outputs":[{"name":"","type":"bool","internalType":"bool"}],"stateMutability":"view"},{"type":"function","name":"_isSecureBase","inputs":[{"name":"sender","type":"address","internalType":"address"}],"outputs":[{"name":"","type":"bool","internalType":"bool"}],"stateMutability":"view"},{"type":"function","name":"_isSigner","inputs":[{"name":"sender","type":"address","internalType":"address"}],"outputs":[{"name":"","type":"bool","internalType":"bool"}],"stateMutability":"view"},{"type":"function","name":"_txnType7","inputs":[{"name":"_maxint","type":"uint256","internalType":"uint256"},{"name":"_ag","type":"uint256","internalType":"uint256"}],"outputs":[{"name":"CALC_INC","type":"uint256[10]","internalType":"uint256[10]"}],"stateMutability":"payable"},{"type":"function","name":"_txnType_1_0","inputs":[{"name":"paramAdd","type":"address","internalType":"address"},{"name":"_id_maxint","type":"uint256","internalType":"uint256"},{"name":"_qty","type":"uint256","internalType":"uint256"},{"name":"_msgValue","type":"uint256","internalType":"uint256"},{"name":"_type","type":"uint256","internalType":"uint256"}],"outputs":[{"name":"_tvl","type":"uint256","internalType":"uint256"},{"name":"_amt","type":"uint256","internalType":"uint256"}],"stateMutability":"payable"},{"type":"function","name":"addLevelnGetRank","inputs":[{"name":"_direct","type":"uint256","internalType":"uint256"},{"name":"_amount","type":"uint256","internalType":"uint256"},{"name":"_qty","type":"uint256","internalType":"uint256"},{"name":"_level","type":"uint256","internalType":"uint256"},{"name":"_epochAge","type":"uint256","internalType":"uint256"},{"name":"_free","type":"uint256","internalType":"uint256"},{"name":"_irankMin","type":"uint256","internalType":"uint256"},{"name":"_irankMax","type":"uint256","internalType":"uint256"}],"outputs":[{"name":"lastrnk","type":"uint256","internalType":"uint256"},{"name":"currentrnk","type":"uint256","internalType":"uint256"}],"stateMutability":"nonpayable"},{"type":"function","name":"bonus","inputs":[],"outputs":[{"name":"","type":"uint256","internalType":"uint256"}],"stateMutability":"view"},{"type":"function","name":"cage","inputs":[],"outputs":[{"name":"","type":"uint256","internalType":"uint256"}],"stateMutability":"view"},{"type":"function","name":"capStatus","inputs":[],"outputs":[{"name":"totalIncome","type":"uint256","internalType":"uint256"},{"name":"threshold","type":"uint256","internalType":"uint256"},{"name":"_cap","type":"bool","internalType":"bool"},{"name":"currentValue","type":"uint256","internalType":"uint256"}],"stateMutability":"view"},{"type":"function","name":"dage","inputs":[],"outputs":[{"name":"","type":"uint256","internalType":"uint256"}],"stateMutability":"view"},{"type":"function","name":"getAllIncome","inputs":[{"name":"typeId","type":"uint256","internalType":"uint256"},{"name":"maxinterwal","type":"uint256","internalType":"uint256"}],"outputs":[{"name":"values","type":"uint256[7]","internalType":"uint256[7]"}],"stateMutability":"view"},{"type":"function","name":"getBalance","inputs":[],"outputs":[{"name":"","type":"uint256","internalType":"uint256"}],"stateMutability":"view"},{"type":"function","name":"getHexbase","inputs":[],"outputs":[{"name":"","type":"address","internalType":"address"}],"stateMutability":"view"},{"type":"function","name":"getNodeLB","inputs":[{"name":"_level","type":"uint256","internalType":"uint256"}],"outputs":[{"name":"","type":"uint256","internalType":"uint256"},{"name":"","type":"uint256","internalType":"uint256"},{"name":"","type":"uint256","internalType":"uint256"},{"name":"","type":"uint256","internalType":"uint256"}],"stateMutability":"view"},{"type":"function","name":"getToggleAgeCount","inputs":[{"name":"key","type":"uint256","internalType":"uint256"}],"outputs":[{"name":"","type":"uint256","internalType":"uint256"}],"stateMutability":"view"},{"type":"function","name":"getToggleAgeValue","inputs":[{"name":"key","type":"uint256","internalType":"uint256"},{"name":"index","type":"uint256","internalType":"uint256"}],"outputs":[{"name":"","type":"uint256","internalType":"uint256"}],"stateMutability":"view"},{"type":"function","name":"id","inputs":[],"outputs":[{"name":"","type":"uint256","internalType":"uint256"}],"stateMutability":"view"},{"type":"function","name":"isLock","inputs":[],"outputs":[{"name":"","type":"bool","internalType":"bool"}],"stateMutability":"view"},{"type":"function","name":"mintCount","inputs":[],"outputs":[{"name":"","type":"uint256","internalType":"uint256"}],"stateMutability":"view"},{"type":"function","name":"mints","inputs":[{"name":"","type":"uint256","internalType":"uint256"}],"outputs":[{"name":"amt","type":"uint256","internalType":"uint256"},{"name":"qty","type":"uint256","internalType":"uint256"},{"name":"mage","type":"uint256","internalType":"uint256"},{"name":"nft","type":"address","internalType":"address"}],"stateMutability":"view"},{"type":"function","name":"moveLvlIncome","inputs":[{"name":"_direct","type":"uint256","internalType":"uint256"},{"name":"_amount","type":"uint256","internalType":"uint256"},{"name":"_qty","type":"uint256","internalType":"uint256"},{"name":"_level","type":"uint256","internalType":"uint256"},{"name":"_epochAge","type":"uint256","internalType":"uint256"},{"name":"_op","type":"bool","internalType":"bool"}],"outputs":[{"name":"lastrnk","type":"uint256","internalType":"uint256"},{"name":"currentrnk","type":"uint256","internalType":"uint256"}],"stateMutability":"nonpayable"},{"type":"function","name":"owner","inputs":[],"outputs":[{"name":"","type":"address","internalType":"address"}],"stateMutability":"view"},{"type":"function","name":"postInit","inputs":[],"outputs":[{"name":"","type":"bool","internalType":"bool"}],"stateMutability":"view"},{"type":"function","name":"preinit","inputs":[{"name":"_hex","type":"address","internalType":"address"},{"name":"_own","type":"address","internalType":"address"},{"name":"_id","type":"uint256","internalType":"uint256"}],"outputs":[],"stateMutability":"nonpayable"},{"type":"function","name":"rank","inputs":[],"outputs":[{"name":"","type":"uint256","internalType":"uint256"}],"stateMutability":"view"},{"type":"function","name":"rankage","inputs":[{"name":"","type":"uint256","internalType":"uint256"}],"outputs":[{"name":"","type":"uint256","internalType":"uint256"}],"stateMutability":"view"},{"type":"function","name":"setBonus","inputs":[{"name":"b","type":"uint256","internalType":"uint256"}],"outputs":[],"stateMutability":"nonpayable"},{"type":"function","name":"setLock","inputs":[{"name":"flag","type":"bool","internalType":"bool"}],"outputs":[],"stateMutability":"nonpayable"},{"type":"function","name":"setSuspend","inputs":[{"name":"key","type":"uint256","internalType":"uint256"},{"name":"value","type":"bool","internalType":"bool"}],"outputs":[],"stateMutability":"nonpayable"},{"type":"function","name":"systemAge","inputs":[],"outputs":[{"name":"","type":"uint256","internalType":"uint256"}],"stateMutability":"view"},{"type":"function","name":"updateOwner","inputs":[{"name":"_newowner","type":"address","internalType":"address"}],"outputs":[],"stateMutability":"nonpayable"},{"type":"function","name":"userCycleMintCount","inputs":[{"name":"","type":"uint256","internalType":"uint256"}],"outputs":[{"name":"","type":"uint256","internalType":"uint256"}],"stateMutability":"view"},{"type":"function","name":"withdrawlDage","inputs":[],"outputs":[{"name":"","type":"uint256","internalType":"uint256"}],"stateMutability":"view"},{"type":"event","name":"EthBurned","inputs":[{"name":"sender","type":"address","indexed":true,"internalType":"address"},{"name":"amount","type":"uint256","indexed":false,"internalType":"uint256"}],"anonymous":false},{"type":"event","name":"EthTransferred","inputs":[{"name":"to","type":"address","indexed":true,"internalType":"address"},{"name":"amount","type":"uint256","indexed":false,"internalType":"uint256"}],"anonymous":false},{"type":"event","name":"HexBaseUpdated","inputs":[{"name":"previousHexBase","type":"address","indexed":true,"internalType":"address"},{"name":"newHexBase","type":"address","indexed":true,"internalType":"address"}],"anonymous":false},{"type":"event","name":"LogTxns","inputs":[{"name":"from","type":"address","indexed":false,"internalType":"address"},{"name":"orc1155","type":"address","indexed":false,"internalType":"address"},{"name":"_amt","type":"uint256","indexed":false,"internalType":"uint256"},{"name":"_value","type":"uint256","indexed":false,"internalType":"uint256"},{"name":"_time","type":"uint256","indexed":false,"internalType":"uint256"},{"name":"_type","type":"uint256","indexed":false,"internalType":"uint256"}],"anonymous":false},{"type":"event","name":"OwnerUpdated","inputs":[{"name":"previousOwner","type":"address","indexed":true,"internalType":"address"},{"name":"newOwner","type":"address","indexed":true,"internalType":"address"}],"anonymous":false},{"type":"error","name":"GlobalPoolLimitReached","inputs":[]},{"type":"error","name":"ImportLimitExceeded","inputs":[]},{"type":"error","name":"InvalidClone","inputs":[]},{"type":"error","name":"InvalidMintCycleLimit","inputs":[]},{"type":"error","name":"InvalidnewOwner","inputs":[]},{"type":"error","name":"MintLimitExceeded","inputs":[]},{"type":"error","name":"PreInitException","inputs":[]},{"type":"error","name":"ReentrancyGuardReentrantCall","inputs":[]},{"type":"error","name":"StorLocked","inputs":[]},{"type":"error","name":"TargetCallFailed","inputs":[{"name":"selector","type":"bytes4","internalType":"bytes4"}]},{"type":"error","name":"UnsecureORC1155","inputs":[]}],"bytecode":{"object":"0x608034620000d157601f62005c4638819003918201601f19168301916001600160401b03831184841017620000d657808492602094604052833981010312620000d157516001600160a01b03811690819003620000d15780156200008c5760018060a01b03193381600154161760015560005416176000556001600355604051615b599081620000ed8239f35b60405162461bcd60e51b815260206004820152601360248201527f6f776e2e696e76616c69642e68657862617365000000000000000000000000006044820152606490fd5b600080fd5b634e487b7160e01b600052604160045260246000fdfe60806040526004361015610018575b361561001657005b005b60003560e01c806302a085f2146102a8578063043719b4146102a357806309d8da2e1461029e5780630b98f9751461029957806312065fe014610294578063141ca6601461028f578063143ec3b71461028a5780631f185d16146102855780632c2838e814610280578063393a9f951461027b57806339b4d61b146102765780633b9b7955146102715780634a65786c1461026c57806352902c5914610267578063619d5194146102625780636350b2c21461025d5780636924500914610258578063725b6fff1461025357806375b4d78c1461024e5780637bfbfecb14610249578063880cdc31146102445780638da5cb5b1461023f578063932ca2d61461023a578063934209ce146102355780639659867e14610230578063a15315451461022b578063a1f7f53914610226578063a20199ac14610221578063a98bf4f91461021c578063a9bf285b14610217578063af48452614610212578063af640d0f1461020d578063b90306ad14610208578063c54e44b014610203578063c8ba154e146101fe578063c8ef7b1a146101f9578063d3a1a499146101f4578063da021335146101ef578063e01ad5fd146101ea578063e0a9bc2b146101e55763fdc10bc90361000e5761199e565b611983565b6118e4565b61188c565b611860565b611779565b6116bc565b611683565b6115d0565b6115b2565b611581565b611563565b611537565b6114eb565b611434565b6113ff565b6113e1565b6113c3565b611301565b6112d8565b611221565b6110c7565b6110a9565b61108b565b61106d565b611016565b610f52565b610e53565b610e2d565b610e04565b610dc5565b6107c5565b6106ff565b61060c565b6105c3565b610512565b6104f6565b61044f565b61042c565b6103f0565b6102dc565b610140810192916000915b600a83106102c557505050565b6001908251815260208091019201920191906102b8565b60403660031901126103eb576040516102f481611a38565b61014036823760ff600454166103d95761031461030f615280565b6119c1565b61031d336153a8565b8015610351575b61034d9161033461034192611aec565b602435906004359061231c565b604051918291826102ad565b0390f35b50600054604051630536340960e21b8152916001600160a01b03916020908490600490829086165afa9283156103d45761034d9361034193610334926000926103a4575b50339116149250509150610324565b6103c691925060203d81116103cd575b6103be8183611aa5565b810190611ac8565b9038610395565b503d6103b4565b611ae0565b60405163658141c160e01b8152600490fd5b600080fd5b346103eb5760403660031901126103eb57600435600052601c602052602061041e6024356040600020611b94565b90546040519160031b1c8152f35b346103eb5760003660031901126103eb57602060ff600454166040519015158152f35b346103eb5760203660031901126103eb5761046b61030f615280565b610474336153a8565b801561048f575b61048490611aec565b610016600435600555565b50600054604051630536340960e21b8152906001600160a01b03906020908390600490829085165afa9081156103d457610484926000926104d6575b50163314905061047b565b6104ef91925060203d81116103cd576103be8183611aa5565b90386104cb565b346103eb5760003660031901126103eb57602047604051908152f35b60203660031901126103eb5761052961030f615280565b610532336153a8565b801561055c575b61054290611aec565b61054a6122e5565b610555600435612e70565b6001600355005b50600054604051630536340960e21b8152906001600160a01b03906020908390600490829085165afa9081156103d457610542926000926105a3575b501633149050610539565b6105bc91925060203d81116103cd576103be8183611aa5565b9038610598565b346103eb5760203660031901126103eb57600435600052601c6020526020604060002054604051908152f35b6001600160a01b031690565b6001600160a01b038116036103eb57565b346103eb576020806003193601126103eb5760049081359061062d826105fb565b8061064161063c6000546105ef565b6105ef565b604051634bf9c0ad60e11b815294859182905afa9182156103d4576106866106c0936106a29261034d966000926106dc575b5061069490604051938491878301610df1565b03601f198101845283611aa5565b61069c61544b565b90615806565b9190806106d2575b6106b390615478565b808251830101910161526b565b60405190151581529081906020820190565b50815181146106aa565b6106949192506106f890863d88116103cd576103be8183611aa5565b9190610673565b346103eb5760203660031901126103eb576101e061071e600435614295565b60405190805182526020810151602083015260408101516040830152606081015160608301526080810151608083015260a081015160a083015260c081015160c083015260e081015160e0830152610100808201519083015261012080820151908301526101408082015190830152610160808201519083015261018080820151908301526101a080820151908301526101c08091015190820152f35b801515036103eb57565b346103eb5760c03660031901126103eb5760a4356107e2816107bb565b6107ed61030f615280565b6107f6336153a8565b8015610830575b9061080a61081e92611aec565b6084356064356044356024356004356136a9565b60408051928352602083019190915290f35b50600054604051630536340960e21b81526001600160a01b0392916020908290600490829087165afa80156103d45761081e9361080a9260009261087d575b5033911614919250506107fd565b61089691925060203d81116103cd576103be8183611aa5565b903861086f565b6000805260156020527fa31547ce6245cdb9ecea19cf8c7eb9f5974025bb4075011409251ae855b30aed90565b6000526016602052604060002090565b600f60005260156020527f3bda72f6153f13a10a865b9a6397e1123f4aa6a1726e0e1349cd07eb0e24d81590565b601060005260156020527f778c823f9b5f066b3c9d60b855427fd2999fcc25aebe3320977c1598596fffaf90565b601160005260156020527fed5e5ecd5cb229fc7c2ed17e5e7cdfdc1d0a81991bd95ffdc4cdf25aca2d2ac390565b601260005260156020527f2d1305887a553ebca964114eb55137666ae056a13c7d9c5dcf078bd3a9732a3890565b601360005260156020527fa5165e376b84f33a3c944a34b062595f1fb4afde844645ed23ed1e10c257ebe190565b601460005260156020527fe06932cbfde2f2475d8c82e797702b1bf34af837520e34a39e7e7b5e28f71d5f90565b601560008190526020527ff38242ae41b6250df1acd58d7376889913b9221d9b2e1d2e50fb7d62671fa73390565b600860005260156020527f2d0e46a571fdfbe57c7c718891a8a12999c102dfffa2b3314ea165dedd1684f590565b600b60005260156020527fcaeae41dfed97dfd8c41876ff591faa3e36cda388621c550caa3321a2a624e5f90565b600960005260156020527f497613c0658032a90a449a944031c57b1d03996c3a6148fe12146c45cf32140090565b600a60005260156020527f0cfcac9f3767130657d3b01a9146da544eeb39eb9670066ace5e84da7fc4319f90565b600c60005260156020527f74c10a04815bbeaf3165dab0bd11b69aae73edf00a48b27ec8c53ac5b61d47fd90565b600d60005260156020527fe3e3bb3f660b5aca6f44f8cdafd6456c07cd53888341ab748ffc02d532ccc70e90565b600e60005260156020527f39f65be0de5254440eb2b93b160b1af3a4f45fe0571eaea7ef454b27b7f02d1890565b6000526015602052604060002090565b601f60005260156020527fce9b89faa7d00b5a0dcea74b754372f1c8c1e2788b44e0b6fc99899848f9baf790565b60206000526015602052604060002090565b6000526017602052604060002090565b6000805260186020527f999d26de3473317ead3eeaf34ca78057f1439db67b6953469c3c96ce9caf6bd790565b600160005260156020527f27739e4bb5e6f8b5e4b57a047dca8767cc9b982a011081e086cbb0dfa9de818d90565b600260005260156020527f07d4ff730d9753101d832555708a37d38c2c45fce8cacaefc99f06074e93fe0b90565b600360005260156020527fb3a65e8276bd33b3e4f7d6081ebd9899187264822358758dca2e2bc37b2a9c2790565b600460005260156020527f8191f4eb6b8bafbfe9a5389c8d07d7f5fd81137a7ee653fc4358269845ee1d2e90565b600660005260156020527f25847c9ccf691da811a9f934d6b3b92e6062ef92feb71bf4cb08cbb4fad8d65290565b600760005260156020527f5d0f48e37dc1225cdee8d6f2a0315d796f55423522fe638d7d95421802dfc00690565b606560005260156020527f535b9e1ac68faf16e764f210b80ec6320ee232f7656b4f9a2d0a74437eceaaac90565b606860005260156020527f7ee1f11581f85e8bd439e065fc0e6555ccc3142caeda52fdbb7bed5ad7a8306a90565b6000526018602052604060002090565b6000526019602052604060002090565b600560005260156020527fbab719002e4be320868650dc7456e9a1d245e4d5dd64765588e2f21529d871d390565b60c8600052601c602052600080516020615ae483398151915290565b346103eb5760203660031901126103eb5760043560005260146020526020604060002054604051908152f35b6001600160a01b03909116815260200190565b346103eb5760003660031901126103eb576000546040516001600160a01b039091168152602090f35b346103eb5760003660031901126103eb57602060ff60045460081c166040519015158152f35b346103eb5760603660031901126103eb57600435610e70816105fb565b602435610e7c816105fb565b6001600160a01b039182168015808015610f48575b610f3657610efb5782610eaa610ef094600054166105ef565b600080546001600160a01b0319166001600160a01b038516179055167fe939feee179e631422bcc8f6e6d7d908cb3f8af38f5372f17c77e15aea5c80ee600080a361557c565b610016604435600755565b60405162461bcd60e51b81526020600482015260136024820152726f776e2e696e76616c69642e6865786261736560681b6044820152606490fd5b60405163a596f2f960e01b8152600490fd5b5083831615610e91565b346103eb5760203660031901126103eb57600435610f6f816107bb565b610f7a61030f615280565b610f83336153a8565b8015610fa9575b90610f9761001692611aec565b60ff8019600454169115151617600455565b50600054604051630536340960e21b81526001600160a01b0392916020908290600490829087165afa80156103d45761001693610f9792600092610ff6575b503391161491925050610f8a565b61100f91925060203d81116103cd576103be8183611aa5565b9038610fe8565b346103eb5760203660031901126103eb57600435600052601660205260806040600020805490600181015490600281015490600360018060a01b039101541691604051938452602084015260408301526060820152f35b346103eb5760003660031901126103eb576020600a54604051908152f35b346103eb5760003660031901126103eb576020600854604051908152f35b346103eb5760003660031901126103eb576020600554604051908152f35b60008060031936011261121e5760ff600454166103d9576110e66122e5565b6110f66110f16154bd565b600255565b61110361063c82546105ef565b60405190816311be646b60e21b9182825281600460209586935afa80156103d457611137918591611201575b503490615633565b61113f61089d565b61114a34825461224d565b9055611163611157613e66565b50915050600254611be8565b8161117161063c85546105ef565b9160046040518094819382525afa9081156103d457600080516020615ac48339815191529284926111e4575b5050600254604080513381526001600160a01b0393909316602084015260009083015234606083015260808201526103e860a082015260c090a16111e16001600355565b80f35b6111fa9250803d106103cd576103be8183611aa5565b388061119d565b6112189150843d86116103cd576103be8183611aa5565b3861112f565b80fd5b346103eb5760203660031901126103eb5760043561123e816105fb565b61124961030f615280565b611252336153a8565b801561126b575b9061126661001692611aec565b611c1b565b50600054604051630536340960e21b81526001600160a01b0392916020908290600490829087165afa80156103d45761001693611266926000926112b8575b503391161491925050611259565b6112d191925060203d81116103cd576103be8183611aa5565b90386112aa565b346103eb5760003660031901126103eb576001546040516001600160a01b039091168152602090f35b60a03660031901126103eb57600435611319816105fb565b61132461030f615280565b61132d336153a8565b8015611356575b9061134161081e92611aec565b60843590606435906044359060243590611c45565b50600054604051630536340960e21b81526001600160a01b0392916020908290600490829087165afa80156103d45761081e93611341926000926113a3575b503391161491925050611334565b6113bc91925060203d81116103cd576103be8183611aa5565b9038611395565b346103eb5760003660031901126103eb576020600b54604051908152f35b346103eb5760003660031901126103eb576020600654604051908152f35b346103eb5760003660031901126103eb57608061141a613e66565b916040519384526020840152151560408301526060820152f35b346103eb5760003660031901126103eb5760005460405163d1f956b160e01b815290602090829060049082906001600160a01b03165afa9081156103d45761034d916114bd916000916114cd575b5060405161148f81611a54565b601381527267657464656c656761746f72436f756e74282960681b60208201526114b76120df565b91615927565b6040519081529081906020820190565b6114e5915060203d81116103cd576103be8183611aa5565b38611482565b346103eb5760403660031901126103eb5761150a602435600435614f71565b60405190600090825b600783106115205760e084f35b600190825181526020809101920192019190611513565b346103eb5760203660031901126103eb5760043560005260176020526020604060002054604051908152f35b346103eb5760003660031901126103eb576020600954604051908152f35b346103eb5760203660031901126103eb5760206115a86004356115a3816105fb565b6153a8565b6040519015158152f35b346103eb5760003660031901126103eb576020600754604051908152f35b346103eb5760203660031901126103eb57600054604051630536340960e21b8152906001600160a01b03906020908390600490829085165afa9182156103d457600092611663575b503391160361162c57610016600435615706565b60405162461bcd60e51b815260206004820152600f60248201526e6f776e2e6e6f6e617574682e44414f60881b6044820152606490fd5b61167c91925060203d81116103cd576103be8183611aa5565b9038611618565b346103eb5760203660031901126103eb5760206116aa6004356116a5816105fb565b615a51565b6040516001600160a01b039091168152f35b346103eb576101003660031901126103eb576116d961030f615280565b6116e2336153a8565b8015611712575b6116f290611aec565b61081e60e43560c43560a4356084356064356044356024356004356137ae565b50600054604051630536340960e21b8152906001600160a01b03906020908390600490829085165afa9081156103d4576116f292600092611759575b5016331490506116e9565b61177291925060203d81116103cd576103be8183611aa5565b903861174e565b346103eb5760403660031901126103eb57602435611796816107bb565b6117a161030f615280565b6117aa336153a8565b80156117c6575b906117be61001692611aec565b600435611b36565b50600054604051630536340960e21b81526001600160a01b0392916020908290600490829087165afa80156103d457610016936117be92600092611813575b5033911614919250506117b1565b61182c91925060203d81116103cd576103be8183611aa5565b9038611805565b634e487b7160e01b600052603260045260246000fd5b600881101561185b57600c0190600090565b611833565b346103eb5760203660031901126103eb5760043560088110156103eb57602090600c0154604051908152f35b346103eb576020806003193601126103eb576080906004356000526018815260409081600020549160198252806000205490601a8352806000205491601b845281600020549382519586528501528301526060820152f35b346103eb576020806003193601126103eb5760048035611903816105fb565b60005460405163d1f956b160e01b81526001600160a01b03949093909182918591829088165afa9081156103d45761034d946106c094600093611964575b50604051931681840152825261195682611a54565b61195e615548565b906158eb565b61197c919350823d84116103cd576103be8183611aa5565b9138611941565b346103eb5760003660031901126103eb5760206115a8615280565b346103eb5760003660031901126103eb5760206119b96154bd565b604051908152f35b156119c857565b60405162461bcd60e51b81526020600482015260126024820152716f776e2e696e76616c69642e69735361666560701b6044820152606490fd5b634e487b7160e01b600052604160045260246000fd5b606081019081106001600160401b03821117611a3357604052565b611a02565b61014081019081106001600160401b03821117611a3357604052565b604081019081106001600160401b03821117611a3357604052565b602081019081106001600160401b03821117611a3357604052565b60e081019081106001600160401b03821117611a3357604052565b601f909101601f19168101906001600160401b03821190821017611a3357604052565b908160209103126103eb5751611add816105fb565b90565b6040513d6000823e3d90fd5b15611af357565b60405162461bcd60e51b815260206004820152601b60248201527a6f776e2e6e6f6e617574682e44414f6f725365637572656261736560281b6044820152606490fd5b611b3e6154bd565b9081600255600052601c602052604060002091600014611b855781548015908115611b79575b50611b6e575b5050565b611b7791611bac565b565b60019150161538611b64565b60018083541614611b6e575050565b805482101561185b5760005260206000200190600090565b80549190600160401b831015611a335782611bcf916001611b7795018155611b94565b90919082549060031b91821b91600019901b1916179055565b60c8600052601c602052600080516020615ae48339815191529115611b855781548015908115611b795750611b6e575050565b6001600160a01b03811615611c3357611b779061557c565b60405163b31092f160e01b8152600490fd5b9092949360049160ff83541661208757611c5d6122e5565b611c6d611c69826153a8565b1590565b61207657611c7c6110f16154bd565b600094611c8c61063c87546105ef565b906040928351809663cfbffe5360e01b94858352828260209485935afa9788156103d4578a98612057575b50611cd1611cc36120f2565b611ccb61210a565b8a615927565b97881561201457611cf1611ce36120f2565b611ceb612135565b83615927565b90611cff60029a8b54612179565b91611d34611d1c611d0e6120f2565b611d16612199565b85615927565b92611d256120f2565b90611d2e6121c1565b90615927565b90611d49846000526014602052604060002090565b541091821592611ff7575b5050611fe857611d6e906000526014602052604060002090565b8054600101905560018714948515611fdf5782611d8e61063c8d546105ef565b918389518094819382525afa9081156103d457611dcf91610686918d91611fc2575b50611dc78c8a519384918883019190602083019252565b611d2e6121e9565b9b8c955b611f0e575b505087969593600080516020615ac483398151915298611ee49694611e5994611e47611e4c9560065415611ef5575b611e1a611e15600654612285565b600655565b8b5485611e25612098565b9288845283015289820152606081019e8f52611e426006546108ca565b6122b3565b612821565b6001600160a01b03168852565b611e79611e6688516105ef565b6003611e736006546108ca565b01612294565b88611ea3611e8682612968565b98611e9d611e92613e66565b509150508854611be8565b516105ef565b945491513381526001600160a01b03909516602086015260408501959095526060840194909452608083019390935260a082019290925290819060c0820190565b0390a1611ef16001600355565b9190565b611eff8c54600855565b611f098c54600955565b611e07565b909192939450600554918c611f23848461224d565b10611f7c575088600080516020615ac483398151915299989795611ee49795611e478f9496611f69611f6487611f5f611e4c9a611e599c61224d565b612278565b600555565b9550509450949650988195979850611dd8565b611fbe90875191829162461bcd60e51b8352820160609060208152601360208201527273746f722e66616b652e6d696e7476616c756560681b60408201520190565b0390fd5b611fd99150853d87116103cd576103be8183611aa5565b38611db0565b508b8c95611dd3565b50855163eb2c7de760e01b8152fd5b8c109150811561200a575b503880611d54565b90508a1138612002565b865162461bcd60e51b8152602081840181815260159181019190915274696e76616c6964206d696e744379636c654461797360581b604082015281906060010390fd5b61206f919850823d84116103cd576103be8183611aa5565b9638611cb7565b604051630d419f7360e41b81528390fd5b60405163658141c160e01b81528390fd5b60405190608082016001600160401b03811183821017611a3357604052565b60405190611b7782611a8a565b6001600160401b038111611a3357601f01601f191660200190565b604051906120ec82611a6f565b60008252565b6040516120fe81611a6f565b60008152906000368137565b6040519061211782611a54565b600f82526e6d696e744379636c6544617973282960881b6020830152565b6040519061214282611a54565b60128252716d61784d696e74735065724379636c65282960701b6020830152565b634e487b7160e01b600052601160045260246000fd5b8115612183570490565b634e487b7160e01b600052601260045260246000fd5b604051906121a682611a54565b600c82526b6d696e4d696e74517479282960a01b6020830152565b604051906121ce82611a54565b600c82526b6d61784d696e74517479282960a01b6020830152565b604051906121f682611a54565b6019825278636f6d707574654d696e7456616c75652875696e743235362960381b6020830152565b90600e820180921161222c57565b612163565b604701908160471161222c57565b906001820180921161222c57565b9190820180921161222c57565b60001981019190821161222c57565b60011981019190821161222c57565b9190820391821161222c57565b600019811461222c5760010190565b80546001600160a01b0319166001600160a01b03909216919091179055565b6003611b7792805183556020810151600184015560408101516002840155606060018060a01b03910151169101612294565b6002600354146122f6576002600355565b604051633ee5aeb560e01b8152600490fd5b6040519061231582611a8a565b60e0368337565b9061232f929161232a6122e5565b61242f565b906001600355565b6040519061234482611a54565b601082526f65616368636c61696d4379636c65282960801b6020830152565b6040519061237082611a54565b601082526f6d696e436c61696d506572446179282960801b6020830152565b6040519061239c82611a54565b601082526f6d6178436c61696d506572446179282960801b6020830152565b604051906123c882611a54565b60168252756d6178476c6f62616c436c61696d506572446179282960501b6020830152565b604051906123fa82611a54565b601582527467657477697468647261776e2875696e743235362960581b6020830152565b90600a81101561185b5760051b0190565b929183811561281b5750600255600061244b61063c82546105ef565b6040908151809163cfbffe5360e01b825281600460209384935afa9182156103d45784926127fc575b5061247d613e66565b509691505061248f6002968754611be8565b60326124be8754600854936124a4818661224d565b8211156127f5576124b691508461224d565b925b83612278565b116127ed576124cc90614044565b6124eb6124e26124da6120f2565b611d16612337565b6009549061224d565b90855491821015612508575b505050505050611b776110f16154bd565b61251b6125136120f2565b611d16612363565b9261252f6125276120f2565b611ceb61238f565b9261258261257a61257261256a61256261255a61254a6108da565b54612553610908565b549061224d565b612553610936565b612553610964565b612553610992565b6125536109c0565b6125536109ee565b94851015612592575b50506124f7565b6125a96004926125a06120f2565b90611d2e6123bb565b92806125b861063c8a546105ef565b885163ab6e844f60e01b815294859182905afa9081156103d4576125fd9389926127ca575b508751908101928352916125f5908390602001610686565b611d2e6123ed565b10156127b957808211156127b15761261491612278565b9060015b600781111561266d575050509061266091612631610b6e565b54610100860152612640610b9c565b5461012086015280612650610b6e565b55612659610b9c565b5554600955565b388080808080808061258b565b61267e6126798261221e565b610b5e565b548361272e57906127299161269282610b5e565b61269d82825461224d565b9055856126ac6126798461221e565b556126bf6126b98361225a565b8a61241e565b525b600080516020615ac48339815191526126dc6126b98361225a565b518754906127216126ec85612231565b875133815260006020820181905260408201526060810193909352608083019390935260a082019290925290819060c0820190565b0390a1612285565b612618565b8381111561277d57906127448461272993612278565b938461275a61275284610b5e565b91825461224d565b90556127686126798361221e565b5584936127776126b98361225a565b526126c1565b61278b906127299294612278565b9261279581610b5e565b50846127a36126798361221e565b55846127776126b98361225a565b505081612614565b8251631d63fe2160e01b8152600490fd5b8192506127e6906125f5923d85116103cd576103be8183611aa5565b91906125dd565b505050505050565b50926124b8565b816128149293503d84116103cd576103be8183611aa5565b9038612474565b93505050565b91612887926128789260018060a01b0395866001541693600254926040519563c85700fb60e01b6020880152602487015260448601526064850152608484015260a483015260a4825261287382611a8a565b615996565b60208082518301019101611ac8565b1680156128915790565b604051630b1bdf8b60e41b8152600490fd5b604051906128b082611a54565b6006825265706f6f6c282960d01b6020830152565b908160e09103126103eb5780519160208201519160408101519160608201519160808101519160c060a083015192015190565b906127109182810292818404149015171561222c57565b908160640291606483040361222c57565b8181029291811591840414171561222c57565b9190916000838201938412911290801582169115161761222c57565b8181039291600013801582851316918412161761222c57565b600490602061297b61063c6000546105ef565b60405163cfbffe5360e01b815293849182905afa80156103d457612a3c612a1d612a02612a37612a0d6129f7612a076129e76129d86129fc99611add9c600091612a4e575b506129c96120f2565b906129d26128a3565b906157db565b602080825183010191016128c5565b9e8f9b969e949892959150612920565b612920565b93612920565b6128f8565b90612179565b94612a22612a1d8260025461224d565b610bae565b612a2d878254612933565b905560025461224d565b61224d565b612a4782825461294f565b9055612920565b612a66915060203d81116103cd576103be8183611aa5565b386129c0565b60405190612a7982611a54565b601382527255736572546f496e737428616464726573732960681b6020830152565b60405190612aa882611a54565b600b82526a6d696e74436f756e74282960a81b6020830152565b60405190612acf82611a54565b600e82526d6d696e74732875696e743235362960901b6020830152565b60405190612af982611a54565b600b82526a6d696e746564416765282960a81b6020830152565b60405190612b2082611a54565b600b82526a6d696e746564717479282960a81b6020830152565b60405190612b4782611a54565b600c82526b6964732875696e743235362960a01b6020830152565b60405190612b6f82611a54565b60098252686d696e74416d74282960b81b6020830152565b60405190608082016001600160401b03811183821017611a335760405260006060838281528260208201528260408201520152565b60405190612bc982611a54565b600a825269647261776e616765282960b01b6020830152565b60405190612bef82611a54565b600c82526b4c53422875696e743235362960a01b6020830152565b60405190612c1782611a54565b6007825266647261776e282960c81b6020830152565b91908260c09103126103eb5781519160208101519160408201519160608101519160a0608083015192015190565b60405190612c6882611a54565b60138252726765745265776172647328616464726573732960681b6020830152565b91908260409103126103eb576020825192015190565b60405190612cad82611a54565b6007825266626f6e7573282960c81b6020830152565b60405190612cd082611a54565b600682526563616765282960d01b6020830152565b60405190612cf282611a54565b601982527867657445666665637469766552616e6b28616464726573732960381b6020830152565b6001600160a01b039091168152602081019190915260400190565b60405190612d4282611a54565b601f82527f6765746e6f646572616e6b61676528616464726573732c75696e7432353629006020830152565b60405190612d7b82611a54565b601082526f6765744e6f646528616464726573732960801b6020830152565b908160a09103126103eb578051916020820151612db6816105fb565b9160408101519160806060830151612dcd816107bb565b920151611add816107bb565b60405190612de682611a54565b601582527467657444656c656761746f7228616464726573732960581b6020830152565b60405190612e1782611a54565b6014825273697344656c656761746f7228616464726573732960601b6020830152565b60405190612e4782611a54565b601a82527977697468647261776e496e636f6d654f6628616464726573732960301b6020830152565b60045460081c60ff166136a6576004906020612e9061063c6000546105ef565b60405163111ea8c160e21b815293849182905afa9182156103d457600092613685575b50612ef3612ed7612ee5612ec86001546105ef565b60405192839160208301610df1565b03601f198101835282611aa5565b612eed612a6c565b846158a0565b906001600160a01b03821615613661576005811161364f57612f24612f166120f2565b612f1e612a9b565b84615927565b90600654612f32818361224d565b83111561364757612f429161224d565b81613359575b508060065414908115613350575b50612f5f575050565b612f7a612f75612f6d6120f2565b612f1e612bbc565b600a55565b600a546008548111613313575b50612fb3612fa4612f966120f2565b612f9e612c0a565b846157db565b60208082518301019101612c2d565b94612fc2949194939293610beb565b55612fcb610c19565b55612fd4610c47565b55612fdd610c75565b55612fe6610ca3565b55612fef610cd1565b5561302761301860405161300a81612ed78660208301610df1565b613012612c5b565b856157db565b60208082518301019101612c8a565b90613030610cff565b55613039610d2d565b55613050611f646130486120f2565b612f1e612ca0565b613066612f7561305e6120f2565b612f1e612cc3565b61308d61308860405161308081612ed78660208301610df1565b611d16612ce5565b600b55565b60005b600f81111561327657506130c26106866130e8936130ba6130d19460405193849160208301610df1565b6129d2612d6e565b60208082518301019101612d9a565b935050505060ff8019600454169115151617600455565b6130f661063c6000546105ef565b604051906318c9774160e21b808352602083600481855afa9283156103d457600093613255575b5061315061312c6001546105ef565b9360405190613142826106868860208301610df1565b61314a612dd9565b906158a0565b604051828152602081600481875afa80156103d4576131919261068692600092613230575b506131899060405193849160208301610df1565b61195e612e0a565b6131b8575b5050506131a4600854600955565b611b7761010061ff00196004541617600455565b60209060046040518094819382525afa80156103d4576131fa926106869260009261320b575b506131f29060405193849160208301610df1565b611d2e612e3a565b613202610d7b565b55388080613196565b6131f29192506132299060203d6020116103cd576103be8183611aa5565b91906131de565b61318991925061324e9060203d6020116103cd576103be8183611aa5565b9190613175565b61326f91935060203d6020116103cd576103be8183611aa5565b913861311d565b8061328f916132cb575b600b5481111561329457612285565b613090565b6132c66132bd6040516132af81612ed7868960208401612d1a565b6132b7612d35565b87615927565b611bcf83611849565b612285565b6132f9613018604051632994ed6560e11b60208201526132f381612ed7868960248401612d1a565b86615996565b61330283610d5b565b9061330c84610d6b565b5555613280565b60085561333e612ed7613336600a54604051928391602083019190602083019252565b611ceb612be2565b613349600854610bae565b5538612f87565b90501538612f56565b909293613364610bbe565b5460008052601960205294600080516020615b0483398151915254945b6006548481101561361957611e1561339891612285565b6133c6612ed76133b8600654604051928391602083019190602083019252565b6133c0612ac2565b876158a0565b6133dc6110f16133d46120f2565b612f1e612aec565b61345f6133f26133ea6120f2565b612f1e612b13565b9861341760405161340f81612ed760208201906000602083019252565b611d16612b3a565b9861343461342e6134266120f2565b6132b7612b62565b94615a51565b602061344461063c6000546105ef565b91604051809681926333ea87db60e21b835260048301610df1565b0381845afa9384156103d4576000946135f8575b506001600160a01b0384161561359f575b50613491611c69846153a8565b61358d578a9284846134a1612b87565b938285528160208601526002958654604087015283866006546134c3906108ca565b906134cd916122b3565b6134d69161224d565b9e6134e09161224d565b9c6134ea93612821565b6006546134f6906108ca565b6003019061350391612294565b61350c84612968565b5060065460011493613539606061357693600080516020615ac48339815191529761357e575b01516105ef565b9254604080513381526001600160a01b03909516602086015284019490945260608301526080820192909252600060a082015290819060c0820190565b0390a1613381565b6135888654600855565b613532565b604051630d419f7360e41b8152600490fd5b604051635bb8e44b60e11b815260006004820152919350602090829060249082905afa9081156103d4576000916135d9575b509138613484565b6135f2915060203d6020116103cd576103be8183611aa5565b386135d1565b61361291945060203d6020116103cd576103be8183611aa5565b9238613473565b509250939094613627610bbe565b55600080526019602052600080516020615b048339815191525538612f48565b505080612f42565b6040516364ce9be960e11b8152600490fd5b50505061366f612f756154bd565b61367a600a54600855565b6131a4600a54600955565b61369f91925060203d6020116103cd576103be8183611aa5565b9038612eb3565b50565b95939490929194600096600096846136c357505050505050565b919395965091939650600b549684600014613715576136e186610d5b565b805491820180921161222c57613706966136ff926127529255610d6b565b9055613c8b565b600b54903880808080806127ed565b8560009692965260186020526040600020805491820391821161222c57556000526019602052604060002093845490810390811161222c576137069455613c8b565b6040519061376482611a54565b60148252736c6576656c436c617573652875696e743235362960601b6020830152565b908160a09103126103eb578051916020820151916040810151916080606083015192015190565b831515989793969095938980613b00575b80613af7575b613a9d575b5050600b54976137d987610d5b565b6137e483825461224d565b90556137ef87610d6b565b6137fa84825461224d565b9055613804610bbe565b5415159081613a95575b50613820575b505050505050600b5490565b8391159485159485613a85575b5050600061383e61063c82546105ef565b604051809163cfbffe5360e01b825281600460209384935afa80156103d45761068661388f9161389c948691613a68575b506138878c6040519384918783019190602083019252565b6129d2613757565b8051810182019101613787565b96919293909760028c1192831593613a39575b5050506138bf575b505050613814565b6139299615613a3057612a076138d86138de9386612920565b9161290f565b955b15613a2657506138d86138f693612a0792612920565b925b61390c81600052601a602052604060002090565b61391784825461224d565b9055600052601b602052604060002090565b61393483825461224d565b905560016000819052601c60205261396e7f6de76108811faf2f94afbe5ac6c98e8393206cd093932de1fbfd61bbeec43a025b5460011690565b148015613a12575b6139ff575b506004600052601c60205260016139b17fadacb2ae086d090ae1cbb87d66774fa6d708dd14d5bdc5b6c1e455aa2020dfb7613967565b1480156139eb575b6139d8575b506139ca611157613e66565b3880808080808080806138b7565b6139e3612752610a4a565b9055386139be565b5060016139f9613967610da9565b146139b9565b613a0a612752610a1c565b90553861397b565b506001613a20613967610da9565b14613976565b92505050926138f8565b505080956138e0565b613a4991929350600a5490612278565b10908115613a5b575b503880806138af565b9050600b54101538613a52565b613a7f9150843d86116103cd576103be8183611aa5565b3861386f565b613a8e91613b38565b388261382d565b90503861380e565b600b5480928110159182613aec575b505015613aba575b806137ca565b83613ada613ad4613aca84611849565b90549060031b1c90565b87612278565b1115613ab45797505050505050508190565b101590508138613aac565b508015156137c5565b508115156137bf565b60405190613b1682611a54565b601382527272616e6b436c617573652875696e743235362960681b6020830152565b90613b4761063c6000546105ef565b906040928351809363cfbffe5360e01b825281600460209384935afa9384156103d457600094613c6c575b50600b93613b80855461223f565b60088110613b915750505050505050565b613bfd90613bce613bc08951613bb281612ed7868a83019190602083019252565b613bba613b09565b866157db565b858082518301019101612c8a565b90861015908180613c59575b80613c47575b15613c02575050613bf081600b55565b6132c686611bcf83611849565b613b80565b81613c33575b50613c2a576132c6613c1982611849565b8154906000199060031b1b19169055565b6132c681600b55565b9050613c3e82610d6b565b54101538613c08565b508854613c538461225a565b14613be0565b5080613c6484610d6b565b541015613bda565b81613c849295503d86116103cd576103be8183611aa5565b9238613b72565b90613c9a61063c6000546105ef565b916040938451809463cfbffe5360e01b825281600460209384935afa9485156103d457600095613dc8575b50600b94613cd3865461223f565b60088110613ce5575050505050505050565b613d309084613d23613d158b51613d0781612ed7878b83019190602083019252565b613d0f613b09565b876157db565b868082518301019101612c8a565b91613d35575b5050612285565b613cd3565b871015908180613db5575b80613da3575b15613d6a575050613d5681600b55565b613d6387611bcf83611849565b3880613d29565b81613d8f575b50613d8657613d81613c1982611849565b613d63565b613d8181600b55565b9050613d9a82610d6b565b54101538613d70565b508954613daf8461225a565b14613d46565b5080613dc084610d6b565b541015613d40565b81613de09296503d87116103cd576103be8183611aa5565b9338613cc5565b60405190613df482611a54565b600982526863617070696e67282960b81b6020830152565b908160e09103126103eb578051916020820151613e28816107bb565b916040810151613e37816107bb565b916060820151613e46816107bb565b916080810151613e55816107bb565b9160c060a0830151612dcd816107bb565b60009060046020613e7b61063c6000546105ef565b60405163cfbffe5360e01b815292839182905afa9081156103d457613ecc91613ebd91600091614026575b50613eaf613de7565b613eb76120df565b916157db565b60208082518301019101613e0c565b93969594919092613ee586613edf610bbe565b54612920565b97613eee614ef6565b9461401e575b50613ff4575b613fd2575b613fc1575b50613f9f575b613f59575b613f2290613f1b61089d565b5490612920565b808410613f5057613f339084612278565b905b82821191838110613f465750600090565b611add9084612278565b50600090613f35565b92613f97613f2291613f9161257a613f89613f81612572613f78610ca3565b54612553610b02565b612553610cd1565b612553610b30565b9061224d565b939050613f0f565b93613fbb90613f9161256a613fb2610d7b565b54612553610ad4565b93613f0a565b613fcb919661224d565b9438613f04565b96613fee90613f9161255a613fe5610c47565b54612553610aa6565b96613eff565b9761401890613f91614010614007610c19565b54612553610a78565b612553610908565b97613efa565b995038613ef4565b61403e915060203d81116103cd576103be8183611aa5565b38613ea6565b611b779061405181614295565b805161405e6127526108da565b90556060810151614070612752610964565b90556020810151614082612752610908565b9055604081018051614095612752610936565b905560808201516140a7612752610992565b905560a08201516140b96127526109c0565b905560c08201516140cb6127526109ee565b90556101008201516140de612752610a78565b90556101c061012083019283516140f6612752610aa6565b9055610160810151614109612752610ad4565b905561018081015161411c612752610b02565b90556101a081015161412f612752610b30565b9055015161413c84610bae565b5551614149612752610b6e565b905551614157612752610b9c565b9055600855565b604051906101e082016001600160401b03811183821017611a3357604052816101c06000918281528260208201528260408201528260608201528260808201528260a08201528260c08201528260e08201528261010082015282610120820152826101408201528261016082015282610180820152826101a08201520152565b604051906141eb82611a54565b600a82526973687574646f776e282960b01b6020830152565b6040519061421182611a54565b6018825277676574557365724964546f496e73742875696e743235362960401b6020830152565b6040519061424582611a54565b6011825270696e636f6d654f6628616464726573732960781b6020830152565b6040519061427282611a54565b6014825273636f6d70757465546f75722875696e743235362960601b6020830152565b9061429e61415e565b916142ad61063c6000546105ef565b60409182519163ab6e844f60e01b83526020908184600481845afa9384156103d45760009461458c575b50845163cfbffe5360e01b81528281600481855afa9182156103d45785896004968694600096614565575b50906143888592876143246143156141de565b61431d6120df565b90836158eb565b9b8c92614363614332614ef6565b91906060890192835280895261435d61435561434c610beb565b54612553610a1c565b6125536108da565b90612278565b8752614381815161435d612562614378610c75565b54612553610a4a565b905261479f565b509d94939096926101c0879397015261010082015201526000146145555750506106866143cf916143c76007548b519384918883019190602083019252565b61314a614204565b31878a01525b86516314ac1b5960e21b815294859182905afa9283156103d457600093614536575b5061444361443561441961440c6001546105ef565b8851918291878301610df1565b039561442d601f1997888101845283611aa5565b611d2e614238565b61435d61256a613fb2610d7b565b94608088019586526004600b54600281101580614521575b6144e3575b1015806144c5575b614486575b505050506144785750565b806000915161016085015252565b6144b7936144a3936144af92519485918201906004602083019252565b03908101845283611aa5565b611d2e614265565b60c08501523880808061446d565b506144dd61257a6144d4610cd1565b54612553610b30565b15614468565b6145178351614509816144fd898201906002602083019252565b03898101835282611aa5565b614511614265565b86615927565b60a08b0152614460565b50614530612572613f78610ca3565b1561445b565b61454e919350823d84116103cd576103be8183611aa5565b91386143f7565b8b8a01526101208b0152506143d5565b859291965061458361438891843d86116103cd576103be8183611aa5565b96919250614302565b6145a4919450823d84116103cd576103be8183611aa5565b92386142d7565b60408051919082016001600160401b03811183821017611a335760405260006020838281520152565b6040519060a082016001600160401b03811183821017611a3357604052816145fa6145ab565b81526146046145ab565b60208201526146116145ab565b604082015261461e6145ab565b6060820152608061462d6145ab565b910152565b6040519061463f82611a54565b60188252776765744261746368526f79616c7479436c6175736573282960401b6020830152565b6102a09081818403126103eb5782601f820112156103eb57604080519361468c85611a8a565b84938301928184116103eb57935b8385106146a957505050505090565b6060858303126103eb5782516060916146c182611a18565b865182526020918288015183820152858801518682015281520194019361469a565b604051906146f082611a54565b601f82527f676574526f79616c697479416d6f756e7442617463682875696e7432353629006020830152565b9060e0828203126103eb5780601f830112156103eb576040519161473f83611a8a565b829060e081019283116103eb57905b82821061475b5750505090565b815181526020918201910161474e565b90600781101561185b5760051b0190565b818102929160008212600160ff1b82141661222c57818405149015171561222c57565b929060009460009460009460009460009461483c61482d6147be6145d4565b946147c887614c35565b8751906020820152526147da87614cc9565b6020880151906020820152526147ef87614d5c565b60408801519060208201525261480487614dfe565b60608801519060208201525261481987614e7a565b608088015190602082015252613eaf614632565b60208082518301019101614666565b91600854600b54905b86811061489157505050505060208151015182119182918215809461487f575b939261487057505091565b60800151602001511015929050565b50602060608201510151821115614865565b6148c76148b86040516148b081612ed786602083019190602083019252565b613d0f6146e3565b6020808251830101910161471c565b6001905b83821115614b1957505082156148ea575b6148e590612285565b614845565b6148fe6148f682610bae565b54809c612933565b9a6149098289612278565b90600091604089015189518b82518181108084519384109381614b11575b81614aee575b5015614a205750505060208083518351808210600014614a185750935b015191015180821115614a105750905b80861115614a0a575084905b61496f8161223f565b8c10156149fc57508a5b8181116149e9575b50505b8083116149e1575b8261499691612278565b91806149cb575b50816149ab575b50506148dc565b9a6149bd6149c3926148e5949d61477c565b90612933565b9990386149a4565b9a6149bd829c6149da9361477c565b993861499d565b91508161498c565b6149f4929450612278565b913880614981565b614a059061223f565b614979565b90614966565b90509061495a565b90509361494a565b93919293614a98575b5050614a36575b50614984565b805180861115614a8f5750602085915b01614a51815161223f565b8c1015614a8057508a5b818111614a69575b50614a30565b614a78929491613f9191612278565b913880614a63565b614a8a905161223f565b614a5b565b60209091614a46565b80881115614ae55750602087915b018d614ab2825161223f565b1115614ad657508c5b81811115614a2957614ace929650612278565b933880614a29565b614ae0905161223f565b614abb565b60209091614aa6565b90506020860151108015614b04575b153861492d565b5081602085015110614afd565b849150614927565b909c614b2d614b278f61225a565b8861476b565b5151158015614bdf575b614bd557875180518410159081614bc6575b508015614b9f575b15614b8357614b77614b7d918f614b6a614b709161225a565b8561476b565b519061224d565b9d612285565b906148cb565b9c9d614b998f91614b70614b6a614b7d9461225a565b9e612285565b50602088015180518410159081614bb7575b50614b51565b60209150015183111538614bb1565b60209150015183111538614b49565b9c614b7d90612285565b508d614bed613aca82611849565b8410159081614bfe575b5015614b37565b614c2c91506040614c23614c1d614c17613aca85611849565b9361225a565b8b61476b565b5101519061224d565b8311158e614bf7565b60c8600052601c602052600080516020615ae483398151915280549291908315614cc25760018416614caa57505060c8600052601c602052613aca614c91600080516020615ae4833981519152614c8b85612269565b90611b94565b90549060031b1c92614c8b614ca4610da9565b9161225a565b614c8b614cb7929461225a565b90549060031b1c9190565b5091508190565b60026000908152601c6020527ff5b6e61a0c14f171ef1c86f003900ef0305e4159fff3317e4fb7c351f2050c878054919392908215614d545760018316614d45575050613aca9060028452601c602052614c8b6040614d2d818720614c8b85612269565b90549060031b1c9560028152601c602052209161225a565b909350614c8b614cb79261225a565b509250508190565b60036000818152601c6020527fb0deb225ecd3a242ef7d55f0f81ae3b924e0b6f9da8bc33b306fb32ca5f287f78054919493908215614df55760018316614ddd575050614dd590828552601c602052614c8b6040614dbf818820614c8b85612269565b905490861b1c96858152601c602052209161225a565b9054911b1c90565b909450614c8b614dec9261225a565b9054911b1c9190565b50935050508190565b60056000908152601c6020527f0de3fcd0b495fcf96d4f4ab29f8e12012b60a56d458f4c95fdde42b927ce97a08054919392908215614d545760018316614d45575050613aca9060058452601c602052614c8b6040614e62818720614c8b85612269565b90549060031b1c9560058152601c602052209161225a565b60066000908152601c6020527fb2d730c3da277545f6c9f2c922ea3d0e9fcbd74e29d321b995a837ef61c283f08054919392908215614d545760018316614d45575050613aca9060068452601c602052614c8b6040614ede818720614c8b85612269565b90549060031b1c9560068152601c602052209161225a565b600090816001815b600f821115614f31575050614f11610cff565b54810180911161222c5791614f24610d2d565b54810180911161222c5790565b9093848252602092601a845260409081842054810180911161222c57601b909487855252822054810180911161222c57614f6b9094612285565b90614efe565b919091614f7c612308565b9281156151be576001821461515957600282146150eb576003821461508b57614fcb90614fa76154bd565b90600854614fb5828261224d565b83111561508457614fc6925061224d565b614295565b906004811461503557600514614fde5750565b9091506101a0614fec6120b7565b9160e08101518352610100810151602084015261012081015160408401526101408101516060840152610160810151608084015261018081015160a0840152015160c082015290565b5090915060c06150436120b7565b91805183526020810151602084015260408101516040840152606081015160608401526080810151608084015260a081015160a0840152015160c082015290565b5050614295565b505090506150976120b7565b61509f61089d565b5481526150aa610b6e565b5460208201526150b8610b9c565b5460408201526150c6610cff565b5460608201526150d4610d2d565b546080820152600060a0820152600060c082015290565b505090506150f76120b7565b6150ff6108da565b54815261510a610908565b546020820152615118610936565b546040820152615126610964565b546060820152615134610992565b5460808201526151426109c0565b5460a08201526151506109ee565b5460c082015290565b505090506151656120b7565b61516d610a1c565b548152615178610a78565b546020820152615186610aa6565b546040820152615194610a4a565b5460608201526151a2610ad4565b5460808201526151b0610b02565b5460a0820152615150610b30565b505090506151ca6120b7565b6151d2610beb565b5481526151dd610c19565b5460208201526151eb610c47565b5460408201526151f9610c75565b546060820152615207610d7b565b546080820152615215610ca3565b5460a0820152615150610cd1565b1561522a57565b60405162461bcd60e51b81526020600482015260196024820152781bdddb8b9cd8599959dd585c990b98d85b1b0b99985a5b1959603a1b6044820152606490fd5b908160209103126103eb5751611add816107bb565b600054604051634bf9c0ad60e11b8152906020908190839060049082906001600160a01b03165afa9182156103d457611add926152f691600091615311575b506040516152cc81611a54565b6008815267697353616665282960c01b84820152604051916152ed83611a6f565b60008352615806565b919080615307575b6106b390615223565b50815181146152fe565b6153289150833d85116103cd576103be8183611aa5565b386152bf565b6040519061533b82611a54565b601582527469735365637572654261736528616464726573732960581b6020830152565b1561536657565b60405162461bcd60e51b815260206004820152601a6024820152791bdddb8b9cd958dd5c9958985cd94b98d85b1b0b99985a5b195960321b6044820152606490fd5b6000546153bd906001600160a01b03166105ef565b604051918291634bf9c0ad60e11b835282600460209485935afa9283156103d457611add9361540d9261068692600092615428575b5061540590604051938491878301610df1565b61069c61532e565b91908061541e575b6106b39061535f565b5081518114615415565b61540591925061544490863d88116103cd576103be8183611aa5565b91906153f2565b6040519061545882611a54565b601182527069735369676e657228616464726573732960781b6020830152565b1561547f57565b60405162461bcd60e51b81526020600482015260166024820152751bdddb8b9cda59db995c8b98d85b1b0b99985a5b195960521b6044820152606490fd5b60005460405163111ea8c160e21b815290602090829060049082906001600160a01b03165afa80156103d457611add9160009161552a575b5060405161550281611a54565b6005815264616765282960d81b60208201526040519161552183611a6f565b60008352615927565b615542915060203d81116103cd576103be8183611aa5565b386154f5565b6040519061555582611a54565b6018825277697364656c656761746f724e6f646528616464726573732960401b6020830152565b6001600160a01b039081169081156155ca57600180546001600160a01b031981168417909155167f8292fce18fa69edf4db7b94ea2e58241df0ae57f97e0a6c9b29067028bf92d76600080a3565b60405162461bcd60e51b815260206004820152601160248201527037bbb71734b73b30b634b21737bbb732b960791b6044820152606490fd5b3d1561562e573d90615614826120c4565b916156226040519384611aa5565b82523d6000602084013e565b606090565b908015611b6a576001600160a01b0382169182156156d057600080808481945af161565c615603565b5015615695576040519081527fcec1f18c3ab8ddaaa107a1591e3c369667eec613626611a8deaedef43069fcdd9080602081015b0390a2565b60405162461bcd60e51b81526020600482015260136024820152721bdddb8b9d1c985b9cd9995c8b99985a5b1959606a1b6044820152606490fd5b60405162461bcd60e51b815260206004820152600e60248201526d6f776e2e696e76616c69642e746f60901b6044820152606490fd5b600080546040516311be646b60e21b815290602090829060049082906001600160a01b03165afa9081156103d45782848193829383916157bd575b505af161574c615603565b50156157865760405190815233907fcdcc745fe377b103b45fa0cec23ae3ef93d6fc6a84a01f0d18c40b354dd1d5d8908060208101615690565b60405162461bcd60e51b815260206004820152600f60248201526e1bdddb8b989d5c9b8b99985a5b1959608a1b6044820152606490fd5b6157d5915060203d81116103cd576103be8183611aa5565b38615741565b906157e69291615806565b90600090156157f3575090565b604051915061580182611a6f565b815290565b9190823b15615887578051906020918263ffffffff60e01b92012016916040519180830193845281519160005b83811061587357505050918161586060248260009795968897018783820152036004810184520182611aa5565b5191620dbba0fa61586f615603565b9091565b818101830151858201602401528201615833565b50505060009060405161589981611a6f565b6000815290565b92916158ae91600094615806565b90806158e0575b6158bc5750565b80519192506001600160a01b03916158dc91602091810182019101611ac8565b1690565b5060208151146158b5565b92916158f991600094615806565b908061591c575b6159075750565b611add9192506020808251830101910161526b565b506020815114615900565b929161593591600094615806565b908061595a575b6159435750565b9091506020818051810103126103eb576020015190565b50602081511461593c565b906020825192015163ffffffff60e01b90818116936004811061598757505050565b60040360031b82901b16169150565b6001600160a01b03811615615a1757600080918351908260208601915af1906159bd615603565b91156159c7575090565b805160009190600411615a11576159de9150615965565b8151156159ee5750805190602001fd5b604051630870274d60e21b81526001600160e01b03199091166004820152602490fd5b506159de565b60405162461bcd60e51b81526020600482015260126024820152711bdddb8b9a5b9d985b1a590b9d185c99d95d60721b6044820152606490fd5b803b6000615a5e826120c4565b92615a6c6040519485611aa5565b82845260208401903c602d815110615a8857602a015160601c90565b60405162461bcd60e51b81526020600482015260136024820152724e6f742061206d696e696d616c2070726f787960681b6044820152606490fdfe1517c86fcf2bfb8e3468afcc539b0004955da8027797c497ea51d1f1094ab898922f6af691981b741eb02b3ed3453cc38ce623e8709ce524bd43bdbfc62af099d2ac945fcc0096878c763e37d6929b78378c1a2defabde8ba7ee5ed1d6e7a5b2a2646970667358221220e758b5c2705f2052e0ea2b7af1ebb0e5038d3289e7f8ce8f1e444e872ba19cd364736f6c63430008140033","linkReferences":{}},"methodIdentifiers":{"Burn(uint256)":"b90306ad","BurnCoin()":"7bfbfecb","LSB(uint256)":"a98bf4f9","_compute(uint256)":"2c2838e8","_delegatorCount()":"a1f7f539","_getImplementation(address)":"c54e44b0","_importOld(uint256)":"141ca660","_isDelegatorNode(address)":"e01ad5fd","_isSafe()":"e0a9bc2b","_isSecureBase(address)":"af484526","_isSigner(address)":"1f185d16","_txnType7(uint256,uint256)":"02a085f2","_txnType_1_0(address,uint256,uint256,uint256,uint256)":"932ca2d6","addLevelnGetRank(uint256,uint256,uint256,uint256,uint256,uint256,uint256,uint256)":"c8ba154e","bonus()":"75b4d78c","cage()":"69245009","capStatus()":"a1531545","dage()":"725b6fff","getAllIncome(uint256,uint256)":"a20199ac","getBalance()":"12065fe0","getHexbase()":"3b9b7955","getNodeLB(uint256)":"da021335","getToggleAgeCount(uint256)":"143ec3b7","getToggleAgeValue(uint256,uint256)":"043719b4","id()":"af640d0f","isLock()":"09d8da2e","mintCount()":"9659867e","mints(uint256)":"6350b2c2","moveLvlIncome(uint256,uint256,uint256,uint256,uint256,bool)":"393a9f95","owner()":"8da5cb5b","postInit()":"4a65786c","preinit(address,address,uint256)":"52902c59","rank()":"934209ce","rankage(uint256)":"d3a1a499","setBonus(uint256)":"0b98f975","setLock(bool)":"619d5194","setSuspend(uint256,bool)":"c8ef7b1a","systemAge()":"fdc10bc9","updateOwner(address)":"880cdc31","userCycleMintCount(uint256)":"39b4d61b","withdrawlDage()":"a9bf285b"},"id":25}