{"abi":[{"type":"constructor","inputs":[{"name":"_hex","type":"address","internalType":"address"}],"stateMutability":"nonpayable"},{"type":"fallback","stateMutability":"payable"},{"type":"receive","stateMutability":"payable"},{"type":"function","name":"Burn","inputs":[{"name":"amount","type":"uint256","internalType":"uint256"}],"outputs":[],"stateMutability":"nonpayable"},{"type":"function","name":"BurnCoin","inputs":[{"name":"_dollar","type":"uint256","internalType":"uint256"},{"name":"maxinterwal","type":"uint256","internalType":"uint256"}],"outputs":[],"stateMutability":"payable"},{"type":"function","name":"LSB","inputs":[{"name":"","type":"uint256","internalType":"uint256"},{"name":"","type":"uint256","internalType":"uint256"}],"outputs":[{"name":"","type":"int256","internalType":"int256"}],"stateMutability":"view"},{"type":"function","name":"_delegatorCount","inputs":[],"outputs":[{"name":"","type":"uint256","internalType":"uint256"}],"stateMutability":"view"},{"type":"function","name":"_getImplementation","inputs":[{"name":"clone","type":"address","internalType":"address"}],"outputs":[{"name":"impl","type":"address","internalType":"address"}],"stateMutability":"view"},{"type":"function","name":"_isDelegatorNode","inputs":[{"name":"sender","type":"address","internalType":"address"}],"outputs":[{"name":"","type":"bool","internalType":"bool"}],"stateMutability":"view"},{"type":"function","name":"_isSafe","inputs":[],"outputs":[{"name":"","type":"bool","internalType":"bool"}],"stateMutability":"view"},{"type":"function","name":"_isSecureBase","inputs":[{"name":"sender","type":"address","internalType":"address"}],"outputs":[{"name":"","type":"bool","internalType":"bool"}],"stateMutability":"view"},{"type":"function","name":"_isSigner","inputs":[{"name":"sender","type":"address","internalType":"address"}],"outputs":[{"name":"","type":"bool","internalType":"bool"}],"stateMutability":"view"},{"type":"function","name":"_txnType7","inputs":[{"name":"_maxint","type":"uint256","internalType":"uint256"},{"name":"_ag","type":"uint256","internalType":"uint256"}],"outputs":[{"name":"CALC_INC","type":"uint256[9]","internalType":"uint256[9]"}],"stateMutability":"payable"},{"type":"function","name":"_txnType_1_0","inputs":[{"name":"paramAdd","type":"address","internalType":"address"},{"name":"_id_maxint","type":"uint256","internalType":"uint256"},{"name":"_qty","type":"uint256","internalType":"uint256"},{"name":"_msgValue","type":"uint256","internalType":"uint256"},{"name":"_type","type":"uint256","internalType":"uint256"},{"name":"_ag","type":"uint256","internalType":"uint256"}],"outputs":[{"name":"_tvl","type":"uint256","internalType":"uint256"},{"name":"_amt","type":"uint256","internalType":"uint256"}],"stateMutability":"payable"},{"type":"function","name":"addLevelnGetRank","inputs":[{"name":"_amount","type":"uint256","internalType":"uint256"},{"name":"_qty","type":"uint256","internalType":"uint256"},{"name":"_level","type":"uint256","internalType":"uint256"},{"name":"_epochAge","type":"uint256","internalType":"uint256"},{"name":"_free","type":"uint256","internalType":"uint256"},{"name":"_tobeSkipped","type":"bool","internalType":"bool"}],"outputs":[{"name":"currentrnk","type":"uint256","internalType":"uint256"}],"stateMutability":"nonpayable"},{"type":"function","name":"bonus","inputs":[],"outputs":[{"name":"","type":"uint256","internalType":"uint256"}],"stateMutability":"view"},{"type":"function","name":"cage","inputs":[],"outputs":[{"name":"","type":"uint256","internalType":"uint256"}],"stateMutability":"view"},{"type":"function","name":"currentLSBversion","inputs":[],"outputs":[{"name":"","type":"uint256","internalType":"uint256"}],"stateMutability":"view"},{"type":"function","name":"dage","inputs":[],"outputs":[{"name":"","type":"uint256","internalType":"uint256"}],"stateMutability":"view"},{"type":"function","name":"directsCount","inputs":[],"outputs":[{"name":"","type":"uint256","internalType":"uint256"}],"stateMutability":"view"},{"type":"function","name":"getAllComputeData","inputs":[{"name":"maxinterwal","type":"uint256","internalType":"uint256"}],"outputs":[{"name":"cr","type":"tuple","internalType":"struct InstanceStor.ComputeResult","components":[{"name":"p1","type":"uint256","internalType":"uint256"},{"name":"p2","type":"uint256","internalType":"uint256"},{"name":"p3","type":"uint256","internalType":"uint256"},{"name":"p4","type":"uint256","internalType":"uint256"},{"name":"p5","type":"uint256","internalType":"uint256"},{"name":"p6","type":"uint256","internalType":"uint256"},{"name":"p7","type":"uint256","internalType":"uint256"},{"name":"f1","type":"uint256","internalType":"uint256"},{"name":"f2","type":"uint256","internalType":"uint256"},{"name":"f3","type":"uint256","internalType":"uint256"},{"name":"f4","type":"uint256","internalType":"uint256"},{"name":"f5","type":"uint256","internalType":"uint256"},{"name":"f6","type":"uint256","internalType":"uint256"},{"name":"f7","type":"uint256","internalType":"uint256"},{"name":"lsb","type":"int256","internalType":"int256"},{"name":"totInc","type":"uint256","internalType":"uint256"},{"name":"thresholdx","type":"uint256","internalType":"uint256"},{"name":"totIncdollar","type":"uint256","internalType":"uint256"},{"name":"thresholdollarx","type":"uint256","internalType":"uint256"},{"name":"minpay","type":"uint256","internalType":"uint256"},{"name":"minpaydollar","type":"uint256","internalType":"uint256"},{"name":"cap","type":"bool","internalType":"bool"},{"name":"capinc","type":"bool","internalType":"bool"},{"name":"capdollar","type":"bool","internalType":"bool"}]}],"stateMutability":"view"},{"type":"function","name":"getAllData","inputs":[{"name":"typeId","type":"uint256","internalType":"uint256"},{"name":"maxinterwal","type":"uint256","internalType":"uint256"}],"outputs":[{"name":"values","type":"uint256[7]","internalType":"uint256[7]"}],"stateMutability":"view"},{"type":"function","name":"getBalance","inputs":[],"outputs":[{"name":"","type":"uint256","internalType":"uint256"}],"stateMutability":"view"},{"type":"function","name":"getHexbase","inputs":[],"outputs":[{"name":"","type":"address","internalType":"address"}],"stateMutability":"view"},{"type":"function","name":"getNodeLB","inputs":[{"name":"_level","type":"uint256","internalType":"uint256"}],"outputs":[{"name":"","type":"tuple","internalType":"struct InstanceStor.LevelInfoStr","components":[{"name":"lvlbs","type":"uint256","internalType":"uint256"},{"name":"lvlqty","type":"uint256","internalType":"uint256"},{"name":"lvlrwrd","type":"uint256","internalType":"uint256"},{"name":"lvlyei","type":"uint256","internalType":"uint256"}]}],"stateMutability":"view"},{"type":"function","name":"getNodeLvlInfoBatch","inputs":[{"name":"from","type":"uint256","internalType":"uint256"},{"name":"to","type":"uint256","internalType":"uint256"}],"outputs":[{"name":"info","type":"tuple[]","internalType":"struct InstanceStor.LevelInfoStr[]","components":[{"name":"lvlbs","type":"uint256","internalType":"uint256"},{"name":"lvlqty","type":"uint256","internalType":"uint256"},{"name":"lvlrwrd","type":"uint256","internalType":"uint256"},{"name":"lvlyei","type":"uint256","internalType":"uint256"}]}],"stateMutability":"view"},{"type":"function","name":"getRankAgeInBatch","inputs":[],"outputs":[{"name":"rankagebatch","type":"uint256[]","internalType":"uint256[]"}],"stateMutability":"view"},{"type":"function","name":"getRankWithAgeValue","inputs":[],"outputs":[{"name":"","type":"uint256","internalType":"uint256"},{"name":"","type":"uint256","internalType":"uint256"}],"stateMutability":"view"},{"type":"function","name":"getToggleAgeCount","inputs":[{"name":"key","type":"uint256","internalType":"uint256"}],"outputs":[{"name":"","type":"uint256","internalType":"uint256"}],"stateMutability":"view"},{"type":"function","name":"getToggleAgeValue","inputs":[{"name":"key","type":"uint256","internalType":"uint256"},{"name":"index","type":"uint256","internalType":"uint256"}],"outputs":[{"name":"","type":"uint256","internalType":"uint256"}],"stateMutability":"view"},{"type":"function","name":"id","inputs":[],"outputs":[{"name":"","type":"uint256","internalType":"uint256"}],"stateMutability":"view"},{"type":"function","name":"importOld","inputs":[{"name":"limit","type":"uint256","internalType":"uint256"}],"outputs":[],"stateMutability":"payable"},{"type":"function","name":"isLock","inputs":[],"outputs":[{"name":"","type":"bool","internalType":"bool"}],"stateMutability":"view"},{"type":"function","name":"mintCount","inputs":[],"outputs":[{"name":"","type":"uint256","internalType":"uint256"}],"stateMutability":"view"},{"type":"function","name":"mints","inputs":[{"name":"","type":"uint256","internalType":"uint256"}],"outputs":[{"name":"amt","type":"uint256","internalType":"uint256"},{"name":"qty","type":"uint256","internalType":"uint256"},{"name":"mage","type":"uint256","internalType":"uint256"},{"name":"nft","type":"address","internalType":"address"}],"stateMutability":"view"},{"type":"function","name":"moveLvlIncome","inputs":[{"name":"_amount","type":"uint256","internalType":"uint256"},{"name":"_qty","type":"uint256","internalType":"uint256"},{"name":"_level","type":"uint256","internalType":"uint256"},{"name":"_epochAge","type":"uint256","internalType":"uint256"},{"name":"_op","type":"bool","internalType":"bool"}],"outputs":[{"name":"lastrnk","type":"uint256","internalType":"uint256"},{"name":"currentrnk","type":"uint256","internalType":"uint256"}],"stateMutability":"nonpayable"},{"type":"function","name":"owner","inputs":[],"outputs":[{"name":"","type":"address","internalType":"address"}],"stateMutability":"view"},{"type":"function","name":"postInit","inputs":[],"outputs":[{"name":"","type":"bool","internalType":"bool"}],"stateMutability":"view"},{"type":"function","name":"preinit","inputs":[{"name":"_hex","type":"address","internalType":"address"},{"name":"_own","type":"address","internalType":"address"},{"name":"_id","type":"uint256","internalType":"uint256"},{"name":"isnew","type":"bool","internalType":"bool"}],"outputs":[],"stateMutability":"nonpayable"},{"type":"function","name":"rank","inputs":[],"outputs":[{"name":"","type":"uint256","internalType":"uint256"}],"stateMutability":"view"},{"type":"function","name":"setBonus","inputs":[{"name":"b","type":"uint256","internalType":"uint256"}],"outputs":[],"stateMutability":"nonpayable"},{"type":"function","name":"setLock","inputs":[{"name":"flag","type":"bool","internalType":"bool"}],"outputs":[],"stateMutability":"nonpayable"},{"type":"function","name":"setSuspend","inputs":[{"name":"key","type":"uint256","internalType":"uint256"},{"name":"value","type":"bool","internalType":"bool"}],"outputs":[],"stateMutability":"nonpayable"},{"type":"function","name":"setburnclaimdollar","inputs":[{"name":"claim","type":"uint256","internalType":"uint256"},{"name":"claimdollar","type":"uint256","internalType":"uint256"}],"outputs":[],"stateMutability":"nonpayable"},{"type":"function","name":"setdirect","inputs":[{"name":"addremove","type":"bool","internalType":"bool"}],"outputs":[],"stateMutability":"nonpayable"},{"type":"function","name":"storcache","inputs":[],"outputs":[],"stateMutability":"nonpayable"},{"type":"function","name":"syncBaseAddr","inputs":[],"outputs":[],"stateMutability":"nonpayable"},{"type":"function","name":"systemAge","inputs":[],"outputs":[{"name":"","type":"uint256","internalType":"uint256"}],"stateMutability":"view"},{"type":"function","name":"updateOwner","inputs":[{"name":"_newowner","type":"address","internalType":"address"}],"outputs":[],"stateMutability":"nonpayable"},{"type":"function","name":"userCycleMintCount","inputs":[{"name":"","type":"uint256","internalType":"uint256"}],"outputs":[{"name":"","type":"uint256","internalType":"uint256"}],"stateMutability":"view"},{"type":"function","name":"withdrawlDage","inputs":[],"outputs":[{"name":"","type":"uint256","internalType":"uint256"}],"stateMutability":"view"},{"type":"event","name":"CapReset","inputs":[{"name":"invested","type":"uint256","indexed":false,"internalType":"uint256"},{"name":"claimed","type":"uint256","indexed":false,"internalType":"uint256"},{"name":"claimedDollar","type":"uint256","indexed":false,"internalType":"uint256"},{"name":"investedDollar","type":"uint256","indexed":false,"internalType":"uint256"},{"name":"burned","type":"uint256","indexed":false,"internalType":"uint256"},{"name":"burnedDollar","type":"uint256","indexed":false,"internalType":"uint256"},{"name":"ag","type":"uint256","indexed":false,"internalType":"uint256"}],"anonymous":false},{"type":"event","name":"EthBurned","inputs":[{"name":"sender","type":"address","indexed":true,"internalType":"address"},{"name":"amount","type":"uint256","indexed":false,"internalType":"uint256"}],"anonymous":false},{"type":"event","name":"EthTransferred","inputs":[{"name":"to","type":"address","indexed":true,"internalType":"address"},{"name":"amount","type":"uint256","indexed":false,"internalType":"uint256"}],"anonymous":false},{"type":"event","name":"HexBaseUpdated","inputs":[{"name":"previousHexBase","type":"address","indexed":true,"internalType":"address"},{"name":"newHexBase","type":"address","indexed":true,"internalType":"address"}],"anonymous":false},{"type":"event","name":"LogTxns","inputs":[{"name":"from","type":"address","indexed":false,"internalType":"address"},{"name":"orc1155","type":"address","indexed":false,"internalType":"address"},{"name":"_amt","type":"uint256","indexed":false,"internalType":"uint256"},{"name":"_value","type":"uint256","indexed":false,"internalType":"uint256"},{"name":"_time","type":"uint256","indexed":false,"internalType":"uint256"},{"name":"_type","type":"uint256","indexed":false,"internalType":"uint256"}],"anonymous":false},{"type":"event","name":"OwnerUpdated","inputs":[{"name":"previousOwner","type":"address","indexed":true,"internalType":"address"},{"name":"newOwner","type":"address","indexed":true,"internalType":"address"}],"anonymous":false},{"type":"error","name":"CallFailed","inputs":[]},{"type":"error","name":"InvalidAddress","inputs":[]},{"type":"error","name":"InvalidState","inputs":[]},{"type":"error","name":"NotAuthorized","inputs":[]},{"type":"error","name":"NotSafe","inputs":[]},{"type":"error","name":"ReentrancyGuardReentrantCall","inputs":[]},{"type":"error","name":"TargetCallFailed","inputs":[{"name":"selector","type":"bytes4","internalType":"bytes4"}]}],"bytecode":{"object":"0x608034620000bf57601f62006bf338819003918201601f19168301916001600160401b03831184841017620000c457808492602094604052833981010312620000bf57516001600160a01b03811690819003620000bf578015620000ad5760018060a01b03199033826001541617600155600091825416178155600160115580601255806013558060145580601555806016558060175580601855601955604051616b189081620000db8239f35b60405163e6c4247b60e01b8152600490fd5b600080fd5b634e487b7160e01b600052604160045260246000fdfe60806040526004361015610018575b361561001657005b005b60003560e01c806302a085f214610318578063043719b41461031357806309d8da2e1461030e5780630b98f9751461030957806312065fe01461030457806312964120146102ff578063143ec3b7146102fa5780631f185d16146102f55780632697a77a146102f057806329ee350e146102eb578063339459a6146102e657806339b4d61b146102e15780633b9b7955146102dc57806343a1b5ab146102d75780634a65786c146102d25780635ecf6a8a146102cd578063619d5194146102c85780636350b2c2146102c3578063654c668e146102be57806369245009146102b95780636de97c66146102b45780636f493aad146102af578063725b6fff146102aa578063759f22bd146102a557806375b4d78c146102a05780637b058ac11461029b578063822ffec414610296578063880cdc31146102915780638da5cb5b1461028c578063934209ce146102875780639659867e14610282578063a1f7f5391461027d578063a5d7cda414610278578063a663030414610273578063a9bf285b1461026e578063af48452614610269578063af640d0f14610264578063b90306ad1461025f578063b9f1a3941461025a578063c54e44b014610255578063c8ef7b1a14610250578063d2a159041461024b578063d3abb8a314610246578063da02133514610241578063deb1ba1e1461023c578063e01ad5fd14610237578063e0a9bc2b146102325763fdc10bc90361000e5761211d565b612102565b612082565b612008565b611f83565b611f27565b611f09565b611e0e565b611dd6565b611c75565b611b67565b611b49565b611b18565b611afa565b6114b1565b611108565b611093565b611075565b611057565b611030565b610fc5565b610d88565b610c57565b610c39565b610b4a565b610ac6565b610a8c565b6109fa565b6109a2565b61094d565b6108f6565b61088e565b610875565b61084f565b610831565b61080a565b6107de565b6107c5565b61078c565b61065a565b610582565b610545565b6104fc565b6104e0565b61046f565b61044c565b610410565b61034c565b610120810192916000915b6009831061033557505050565b600190825181526020809101920192019190610328565b60408060031936011261040b5780519061036582612186565b61012036833760ff601a54166103fb5761037d61659c565b156103eb5761038b33616621565b80156103d7575b156103c7576103b36103c3926103a66128cd565b6024359060043590612a71565b906001601155519182918261031d565b0390f35b6004905163ea8e4eb560e01b8152fd5b50336001600160a01b036005541614610392565b60049051634ee2123760e11b8152fd5b6004905163baf3f0f760e01b8152fd5b600080fd5b3461040b57604036600319011261040b576004356000526032602052602061043e602435604060002061258f565b90546040519160031b1c8152f35b3461040b57600036600319011261040b57602060ff601a54166040519015158152f35b3461040b57602036600319011261040b5761048861659c565b156104cf5761049633616621565b80156104bb575b156104aa57600435601b55005b600460405163ea8e4eb560e01b8152fd5b50336001600160a01b03600554161461049d565b6004604051634ee2123760e11b8152fd5b3461040b57600036600319011261040b57602047604051908152f35b3461040b57604036600319011261040b5761051860043561590e565b60405190600090825b6007831061052e5760e084f35b600190825181526020809101920192019190610521565b3461040b57602036600319011261040b5760043560005260326020526020604060002054604051908152f35b6001600160a01b0381160361040b57565b3461040b5760208060031936011261040b576106016004356105a381610571565b6001600160a01b038060025416906040519216848301528382526105c6826121a3565b604051906105d3826121a3565b601182527f69735369676e657228616464726573732900000000000000000000000000000085830152616801565b919080610646575b15610635578181610623926103c394518301019101616587565b60405190151581529081906020820190565b6004604051633204506f60e01b8152fd5b5080825114610609565b8015150361040b57565b3461040b57608036600319011261040b5760043561067781610571565b60243561068381610571565b6064359061069082610650565b6001600160a01b03809316908115808015610782575b61077157610747576106f8916000948554826001600160a01b03198216178755167fe939feee179e631422bcc8f6e6d7d908cb3f8af38f5372f17c77e15aea5c80ee8680a36106f361244b565b6166fd565b610703604435601d55565b61070a5780f35b61071a6107156166ab565b602055565b610725602054601e55565b610730602054601f55565b61074461010061ff0019601a541617601a55565b80f35b60046040517fe6c4247b000000000000000000000000000000000000000000000000000000008152fd5b600460405163baf3f0f760e01b8152fd5b50848216156106a6565b3461040b57600036600319011261040b5760215460088110156107c057602381015460408051928352602083019190915290f35b612579565b3461040b57600036600319011261040b57610016615ec1565b3461040b57602036600319011261040b57600435600052602c6020526020604060002054604051908152f35b3461040b57600036600319011261040b5760206001600160a01b0360005416604051908152f35b3461040b57600036600319011261040b576020602f54604051908152f35b3461040b57600036600319011261040b57602060ff601a5460081c166040519015158152f35b3461040b57600036600319011261040b5761001661244b565b3461040b57602036600319011261040b576004356108ab81610650565b6108b361659c565b156104cf576108c133616621565b80156108e2575b156104aa5760ff8019601a54169115151617601a55600080f35b50336001600160a01b0360055416146108c8565b3461040b57602036600319011261040b57600435600052602e602052608060406000208054906001810154906001600160a01b03600360028301549201541691604051938452602084015260408301526060820152f35b3461040b57604036600319011261040b5761096661659c565b156104cf5761097433616621565b801561098e575b156104aa57600435601455602435601655005b50336001600160a01b03600554161461097b565b3461040b57600036600319011261040b5760208054604051908152f35b6020908160408183019282815285518094520193019160005b8281106109e6575050505090565b8351855293810193928101926001016109d8565b3461040b57600036600319011261040b576021546001810190818111610a8757610a2382615b94565b91610a3160405193846121f7565b808352610a40601f1991615b94565b0136602084013760005b81811115610a6057604051806103c385826109bf565b60088110156107c05780610a829160230154610a7c8286615bac565b52612654565b610a4a565b61263e565b3461040b57604036600319011261040b57600435600052603060205260406000206024356000526020526020604060002054604051908152f35b3461040b57600036600319011261040b576020601e54604051908152f35b6020908160408183019282815285518094520193019160005b828110610b0b575050505090565b9091929382608082610b3e6001948951606080918051845260208101516020850152604081015160408501520151910152565b01950193929101610afd565b3461040b57604036600319011261040b5760243560043581811161077157808203918211610a8757600190818301809311610a8757610b8883615b94565b92610b9660405194856121f7565b808452610ba5601f1991615b94565b0160005b818110610c22575050816000905b610bca575b604051806103c38682610ae4565b8351811015610c1d5780610bfc610bf7610be7610c17948661271f565b6000526031602052604060002090565b615b62565b610c068287615bac565b52610c118186615bac565b50612654565b82610bb7565b610bbc565b602090610c2d615b3d565b82828801015201610ba9565b3461040b57600036600319011261040b576020601b54604051908152f35b3461040b5760a036600319011261040b57604435602435600435608435610c7d81610650565b610c8561659c565b156104cf57610c9333616621565b8015610d74575b156104aa5760009260009480610cbb575b6040805186815260208101889052f35b90919293506021549483600014610d2c57506001610d0b82610d1f96610cf9610cf1610d14966000526031602052604060002090565b91825461271f565b90556000526031602052604060002090565b0191825461271f565b90555b606435614198565b6021549038808080610cab565b808260409252603160205220938454908103908111610a8757610d64610d6d92600192610d1f97556000526031602052604060002090565b0191825461273b565b9055610d17565b50336001600160a01b036005541614610c9a565b3461040b5760c036600319011261040b5760643560a435602435600435604435610db184610650565b610db961659c565b156104cf57610dc733616621565b8015610fb1575b156104aa57610de7816000526031602052604060002090565b610df283825461271f565b90556001610e0a826000526031602052604060002090565b01610e1684825461271f565b90556000805260316020527f346dc135129bcc5b8e8f6ff902940f16dc0729d02b27118b912aa326da88b83154151580610fa8575b610e5e575b602154604051908152602090f35b610edb92159485159283610f9a575b610eca610ebb610e856003546001600160a01b031690565b60405190610ead82610e9f89602083019190602083019252565b03601f1981018452836121f7565b610eb5613fff565b906167d6565b60208082518301019101614038565b94939299919890956020549061273b565b60843511918215610f8d575b5081610f84575b50610efc575b505050610e50565b610f6296600396610d0b9660009015610f7b5750610f26610f20610f2c9385612819565b916127a8565b9061269c565b975b60009015610f715750610f20610f4793610f2692612819565b945b610cf96002610d0b846000526031602052604060002090565b90553880808080808080610ef4565b9250505094610f49565b91505097610f2e565b90501538610eee565b6021541015915038610ee7565b610fa382614098565b610e6d565b50801515610e4b565b50336001600160a01b036005541614610dce565b3461040b57602036600319011261040b57600435610fe281610571565b610fea61659c565b156104cf57610ff833616621565b801561101c575b156104aa576001600160a01b038116156104aa57610016906166fd565b50336001600160a01b036005541614610fff565b3461040b57600036600319011261040b5760206001600160a01b0360015416604051908152f35b3461040b57600036600319011261040b576020602154604051908152f35b3461040b57600036600319011261040b576020601c54604051908152f35b3461040b57600036600319011261040b5760206111006001600160a01b03600654166040516110c1816121a3565b601381527f67657464656c656761746f72436f756e7428290000000000000000000000000084820152604051916110f7836121bf565b60008352616934565b604051908152f35b60408060031936011261040b5760049081359160243560ff601a54166114a2576111306128cd565b6111386166ab565b90601e54611146828261271f565b83111561149a57611157925061271f565b915b61119661119161118b6111746003546001600160a01b031690565b61117c612f2e565b906111856122a6565b90616934565b8561269c565b602b55565b6111ac602b54600052602c602052604060002090565b54936111c06003546001600160a01b031690565b946111da6111cc612f2e565b6111d46122df565b88616934565b0361148c576103e760005260326020526001807f4a392a5ba0654924db65f19538db6461a3d6763bf0797df25c3b2d5e7c8c7cef54161480611457575b611449578151602080820183905295906112509061124281604081015b03601f1981018352826121f7565b61124a612f46565b83616934565b340361143a576112dd9161128861127a6112d89361126c612f7f565b611274612293565b916167d6565b888082518301019101612fb8565b946001600160a01b0392831694919392169080151580611431575b611415575b5050508015158061140c575b6113e4575b5050506112d06112cb3460125461271f565b601255565b60155461271f565b601555565b6112e683612908565b836113086112fc6000546001600160a01b031690565b6001600160a01b031690565b8251938480927f1b4fc17b0000000000000000000000000000000000000000000000000000000082525afa9182156113df577f1517c86fcf2bfb8e3468afcc539b0004955da8027797c497ea51d1f1094ab898946000936113aa575b5050513381526001600160a01b0390911660208201526000604082015234606082015260808101919091526103e860a08201528060c081015b0390a16100166001601155565b61139d92935090816113d092903d106113d8575b6113c881836121f7565b810190612790565b919038611364565b503d6113be565b612ff8565b61140492610f266113f86113fe9334612819565b916127b9565b9061677a565b3880806112b9565b508115156112b4565b61142992610f266113f86113fe9334612819565b3880806112a8565b508115156112a3565b505051633204506f60e01b8152fd5b505163baf3f0f760e01b8152fd5b50601d5482516020810191909152611484906114768160408101611234565b61147e612663565b876168af565b311515611217565b5051633204506f60e01b8152fd5b505091611159565b50905163baf3f0f760e01b8152fd5b60c036600319011261040b5760048035906114cb82610571565b6064359160443560a4356084356114e061659c565b15611aea576114ee33616621565b8015611ad6575b15611ac65760ff601a5416611ab65761150c6128cd565b84546001600160a01b031694601d549060409561155a8751806115386020968783019190602083019252565b039961154c601f199b8c81018452836121f7565b611554612663565b906168af565b6001600160a01b03811615611aa7576103e760005260326020526001807f4a392a5ba0654924db65f19538db6461a3d6763bf0797df25c3b2d5e7c8c7cef5416146119d7575b506115b16115ad82616621565b1590565b6119c8576115c46111916033548761269c565b602b546115db81600052602c602052604060002090565b54603454118015906119b2575b6119a35761160090600052602c602052604060002090565b805460010190556001841498891561199c576116536116276003546001600160a01b031690565b89519061164b8261163f8c8a83019190602083019252565b038d81018452836121f7565b6111856126bc565b995b611958575b50601c5415611941575b601c5461167090612654565b601c5561167b612219565b9789895286848a015285888a0152606089019860008a52601c546116a990600052602e602052604060002090565b906116b391612748565b600154885163c85700fb60e01b868201526001600160a01b0390911660248083019190915235604482015260648101889052608481018b905260a4810187905260c491820181529061170590826121f7565b61170e916169f8565b8280825183010191019061172191612790565b6001600160a01b03168088521561193357509161191084926118d36118bc6118376118326118aa6118428e610f268f6103c39f9e7f1517c86fcf2bfb8e3468afcc539b0004955da8027797c497ea51d1f1094ab8989e6117f96117f46117ec611823946117cf61179b61183d98516001600160a01b031690565b60036117b3601c54600052602e602052604060002090565b01906001600160a01b03166001600160a01b0319825416179055565b6117e36117de8a60135461271f565b601355565b60375490612819565b60175461271f565b601755565b61181661180e6003546001600160a01b031690565b61126c61282c565b8051810182019101612865565b9c9491959b9293989050612819565b612819565b93612819565b6127cf565b9161187461185c602f546000526030602052604060002090565b611866838c61271f565b600052602052604060002090565b61187f848254612898565b9055611866846118a561189e602f546000526030602052604060002090565b938c61271f565b61271f565b6118b58282546128b4565b9055612819565b986118c685612908565b516001600160a01b031690565b86513381526001600160a01b039091166020820152604081019490945260608401899052608084019290925260a0830191909152819060c0820190565b0390a161191d6001601155565b5191825260208201929092529081906040820190565b855163baf3f0f760e01b8152fd5b61194a85601e55565b61195385601f55565b611664565b601b54908a611967838361271f565b1061198d578a61197d611987936119829361271f565b61273b565b601b55565b3861165a565b83895163baf3f0f760e01b8152fd5b8099611655565b828851633204506f60e01b8152fd5b506035548710806115e8575060365487116115e8565b50855163ea8e4eb560e01b8152fd5b91989697959493929131156119f55788885163baf3f0f760e01b8152fd5b6013546014546016546017546012546015548d51958652602086019490945260408501929092526060840152608083015260a082015260c08101859052969895979694959394929391927fb359d8408cffc6b8788774a87b59f0d5be825576ea5fdd7b0917fed6a07e80309060e090a1611a6f6000601355565b611a796000601455565b611a836000601655565b611a8d6000601755565b611a976000601255565b611aa16000601555565b386115a0565b82885163baf3f0f760e01b8152fd5b8460405163baf3f0f760e01b8152fd5b8460405163ea8e4eb560e01b8152fd5b50336001600160a01b0360055416146114f5565b84604051634ee2123760e11b8152fd5b3461040b57600036600319011261040b576020601f54604051908152f35b3461040b57602036600319011261040b576020611b3f600435611b3a81610571565b616621565b6040519015158152f35b3461040b57600036600319011261040b576020601d54604051908152f35b3461040b57602036600319011261040b57600435611b8361659c565b156104cf576001600160a01b036005541633036104aa5760009060046020611bb56112fc85546001600160a01b031690565b604051928380927f46f991ac0000000000000000000000000000000000000000000000000000000082525afa80156113df5783808481949382948391611c57575b505af1611c0161674a565b5015610635577fcdcc745fe377b103b45fa0cec23ae3ef93d6fc6a84a01f0d18c40b354dd1d5d8611c51611c406112fc600b546001600160a01b031690565b604051938452929081906020820190565b0390a280f35b611c6f915060203d81116113d8576113c881836121f7565b38611bf6565b3461040b57602036600319011261040b57611c8e61478a565b50611c976166ab565b601e54906004358201809211610a875761030091611cbd9181811115611dcf57506148de565b611dcd60405191805183526020810151602084015260408101516040840152606081015160608401526080810151608084015260a081015160a084015260c081015160c084015260e081015160e0840152610100808201519084015261012080820151908401526101408082015190840152610160808201519084015261018080820151908401526101a080820151908401526101c080820151908401526101e0808201519084015261020080820151908401526102208082015190840152610240808201519084015261026080820151908401526102808082015190840152611db16102a0808301519085019015159052565b6102c0818101511515908401526102e090810151151590830152565bf35b90506148de565b3461040b57602036600319011261040b576020611dfd600435611df881610571565b616aab565b6001600160a01b0360405191168152f35b3461040b57604036600319011261040b57602435611e2b81610650565b611e3361659c565b156104cf57611e4133616621565b8015611ef5575b156104aa57611e556166ab565b906000916004358352603260205260408320805492831590811591611eed575b81611ecd575b50611e84578380f35b68010000000000000000831015611ec85782611ea8916001611ec19501815561258f565b90919082549060031b91821b91600019901b1916179055565b3880808380f35b612138565b159050611ee45760ff845b16600184161438611e7b565b60ff6001611ed8565b905080611e75565b50336001600160a01b036005541614611e48565b3461040b57600036600319011261040b576020602254604051908152f35b602036600319011261040b57611f3b61659c565b156104cf57611f4933616621565b8015611f6f575b156104aa57611f5d6128cd565b611f68600435613485565b6001601155005b50336001600160a01b036005541614611f50565b3461040b57602036600319011261040b57611f9c615b3d565b50600435600052603160205260806040600020600360405191611fbe8361214e565b80548352600181015460208401526002810154604084015201546060820152611dcd6040518092606080918051845260208101516020850152604081015160408501520151910152565b3461040b57602036600319011261040b5760043561202581610650565b61202d61659c565b156104cf5761203b33616621565b801561206e575b156104aa571561205c57612057602254612654565b602255005b6022548015610a875760001901602255005b50336001600160a01b036005541614612042565b3461040b57602036600319011261040b576020611b3f6004356120a481610571565b6001600160a01b038060065416906040519216848301528382526120c7826121a3565b604051906120d4826121a3565b601882527f697364656c656761746f724e6f64652861646472657373290000000000000000858301526168f8565b3461040b57600036600319011261040b576020611b3f61659c565b3461040b57600036600319011261040b5760206111006166ab565b634e487b7160e01b600052604160045260246000fd5b6080810190811067ffffffffffffffff821117611ec857604052565b6060810190811067ffffffffffffffff821117611ec857604052565b610120810190811067ffffffffffffffff821117611ec857604052565b6040810190811067ffffffffffffffff821117611ec857604052565b6020810190811067ffffffffffffffff821117611ec857604052565b60e0810190811067ffffffffffffffff821117611ec857604052565b90601f8019910116810190811067ffffffffffffffff821117611ec857604052565b604051906122268261214e565b565b60405190610300820182811067ffffffffffffffff821117611ec857604052565b604051906101e0820182811067ffffffffffffffff821117611ec857604052565b60405190612226826121db565b67ffffffffffffffff8111611ec857601f01601f191660200190565b604051906122a0826121bf565b60008252565b604051906122b3826121a3565b600f82527f6d696e744379636c6544617973282900000000000000000000000000000000006020830152565b604051906122ec826121a3565b601282527f6d61784d696e74735065724379636c65282900000000000000000000000000006020830152565b60405190612325826121a3565b600c82527f6d696e4d696e74517479282900000000000000000000000000000000000000006020830152565b6040519061235e826121a3565b600c82527f6d61784d696e74517479282900000000000000000000000000000000000000006020830152565b60405190612397826121a3565b600f82527f6d696e74466565506572517479282900000000000000000000000000000000006020830152565b604051906123d0826121a3565b601082527f65616368636c61696d4379636c652829000000000000000000000000000000006020830152565b60405190612409826121a3565b600982527f63617070696e67282900000000000000000000000000000000000000000000006020830152565b919082604091031261040b576020825192015190565b612453615ec1565b61222661257461256e61255f612557600361249661249161247b83546001600160a01b031690565b6124836122a6565b61248b612293565b91616934565b603355565b6124ba6124b56124ad83546001600160a01b031690565b6124836122df565b603455565b6124de6124d96124d183546001600160a01b031690565b612483612318565b603555565b6125026124fd6124f583546001600160a01b031690565b612483612351565b603655565b61252661252161251983546001600160a01b031690565b61248361238a565b603755565b61254a61254561253d83546001600160a01b031690565b6124836123c3565b603855565b546001600160a01b031690565b61126c6123fc565b60208082518301019101612435565b603a5590565b603955565b634e487b7160e01b600052603260045260246000fd5b80548210156107c05760005260206000200190600090565b6103e760005260326020527f4a392a5ba0654924db65f19538db6461a3d6763bf0797df25c3b2d5e7c8c7cef805492831580159190612636575b81612615575b506125f157505050565b68010000000000000000831015611ec85782611ea89160016122269501815561258f565b15905061262d5760ff60005b166001841614386125e7565b60ff6001612621565b9050806125e1565b634e487b7160e01b600052601160045260246000fd5b6000198114610a875760010190565b60405190612670826121a3565b601882527f676574557365724964546f496e73742875696e743235362900000000000000006020830152565b81156126a6570490565b634e487b7160e01b600052601260045260246000fd5b604051906126c9826121a3565b601982527f636f6d707574654d696e7456616c75652875696e7432353629000000000000006020830152565b6046019081604611610a8757565b90601e8201809211610a8757565b9060018201809211610a8757565b91908201809211610a8757565b600019810191908211610a8757565b91908203918211610a8757565b60036001600160a01b036060612226948051855560208101516001860155604081015160028601550151169101906001600160a01b03166001600160a01b0319825416179055565b9081602091031261040b57516127a581610571565b90565b9081606402916064830403610a8757565b90606482029180830460641490151715610a8757565b9061271091828102928184041490151715610a8757565b90601982029180830460191490151715610a8757565b90670de0b6b3a764000091828102928184041490151715610a8757565b81810292918115918404141715610a8757565b60405190612839826121a3565b600682527f706f6f6c282900000000000000000000000000000000000000000000000000006020830152565b908160e091031261040b5780519160208201519160408101519160608201519160808101519160c060a083015192015190565b91909160008382019384129112908015821691151617610a8757565b81810392916000138015828513169184121617610a8757565b6002601154146128de576002601155565b60046040517f3ee5aeb5000000000000000000000000000000000000000000000000000000008152fd5b6013546012548101809111610a875760395461292391612819565b60145411601754916015548301809311610a875761294f61294a61222694603a5490612819565b6127fc565b601654118215612960575b506125a7565b91503861295a565b60405190612975826121db565b60e0368337565b60405190612989826121a3565b601082527f6d6178436c61696d5065724461792829000000000000000000000000000000006020830152565b604051906129c2826121a3565b601082527f6d696e436c61696d5065724461792829000000000000000000000000000000006020830152565b604051906129fb826121a3565b601682527f6d6178476c6f62616c436c61696d5065724461792829000000000000000000006020830152565b60405190612a34826121a3565b601582527f67657477697468647261776e2875696e743235362900000000000000000000006020830152565b9060098110156107c05760051b0190565b929190838215612f285750601a54612a8d9060081c60ff161590565b612f1757601e5490612a9f818361271f565b831115612f1b57612abd612ab56032928461271f565b925b8361273b565b11612f1757612ad1603854601f549061271f565b821015612adc575050565b612ae5906142fd565b600380546001600160a01b0316612b0c612afd61297c565b612b05612293565b9083616934565b6001600052602d60205290612c77612c46612c15612be4612bb3612b82887f4ac3b22e31fa68474eb1c8f858cd447cf1ee3eef7de8984178a7afa8f4fe0cd001546004600052602d602052897faa2e4aefbe0e8a3f17f0ef1a62898433725e8346722aad5b9b38d3974d2160835b01549061271f565b6002600052602d602052887f3acd642f41c4abca13e6953c1b760d7f24daf271c41106e480dd1fea313ccc72612b7a565b6003600052602d602052877f1d82e85504d8f49072f846129ecee69c763b08a82ee3d81cda62b57a7576d37b612b7a565b6005600052602d602052867ff4e70c5971a4cc8cf9f9f8ecc4b5217b9d5f157385b05a56c54d37f26435621c612b7a565b6006600052602d602052857fb166da6939c8546909795cbdc2ac7eb95e976cea31f094e55573dbb6ac49f74f612b7a565b6007600052602d602052847f4d73f294a2cb7f5a471fde2e2c5652a46cf819d439af00ca2c7f02d5472b48b8612b7a565b90612c83612afd6129b5565b821015612cbf575b505050505060195480612c9c575b50565b610100830152612cb5612cb0602f54612654565b602f55565b6122266000601955565b612ccb906124836129ee565b91612cde6004546001600160a01b031690565b92612d06604094855190612cfe82610e9f8b602083019190602083019252565b611185612a27565b1015612f075760009181811115612f0057612d21925061273b565b6001908160005b6007841115612d5c57505050505050612d529060185460e0850152612d4d6000601855565b601f55565b3880808080612c8b565b85612d7185600052602d602052604060002090565b015483612e6d57612e6791612de99184612d9588600052602d602052604060002090565b01612da182825461271f565b9055600089612dba89600052602d602052604060002090565b0155612dce612dc88861272c565b8d612a60565b525b612de2612ddc8761272c565b8c612a60565b519061271f565b937f1517c86fcf2bfb8e3468afcc539b0004955da8027797c497ea51d1f1094ab89888612e18612dc88461272c565b51612e5f612e25856126f5565b8a5193849333859094939260a0926001600160a01b0360c08401971683526000602084015260006040840152606083015260808201520152565b0390a1612654565b92612d28565b9280841115612ee057612e6791612eb4612e8a612de9938761273b565b809686612ea18a600052602d602052604060002090565b01612ead83825461271f565b905561273b565b88612ec988600052602d602052604060002090565b0155600094612eda612dc88861272c565b52612dd0565b612ef1612e679294612de99261273b565b936000612eda612dc88861272c565b5050612d21565b60048351633204506f60e01b8152fd5b5050565b506032612abd8392612ab7565b93505050565b604051612f3a816121bf565b60008152906000368137565b60405190612f53826121a3565b601d82527f636f6d70757465446f6c6c6172546f4f7a6f6e652875696e74323536290000006020830152565b60405190612f8c826121a3565b600a82527f6275726e636e66672829000000000000000000000000000000000000000000006020830152565b91908260c091031261040b578151612fcf81610571565b916020810151916040820151916060810151612fea81610571565b9160a0608083015192015190565b6040513d6000823e3d90fd5b60405190613011826121a3565b601382527f55736572546f496e7374286164647265737329000000000000000000000000006020830152565b6040519061304a826121a3565b600b82527f6d696e74436f756e7428290000000000000000000000000000000000000000006020830152565b60405190613083826121a3565b600e82527f6d696e74732875696e74323536290000000000000000000000000000000000006020830152565b604051906130bc826121a3565b600b82527f6d696e74656441676528290000000000000000000000000000000000000000006020830152565b604051906130f5826121a3565b600b82527f6d696e74656471747928290000000000000000000000000000000000000000006020830152565b6040519061312e826121a3565b600c82527f6964732875696e743235362900000000000000000000000000000000000000006020830152565b60405190613167826121a3565b600982527f6d696e74416d74282900000000000000000000000000000000000000000000006020830152565b604051906131a0826121a3565b600a82527f647261776e6167652829000000000000000000000000000000000000000000006020830152565b604051906131d9826121a3565b600c82527f4c53422875696e743235362900000000000000000000000000000000000000006020830152565b60405190613212826121a3565b600782527f647261776e2829000000000000000000000000000000000000000000000000006020830152565b91908260c091031261040b5781519160208101519160408201519160608101519160a0608083015192015190565b60405190613279826121a3565b601382527f67657452657761726473286164647265737329000000000000000000000000006020830152565b604051906132b2826121a3565b600782527f626f6e75732829000000000000000000000000000000000000000000000000006020830152565b604051906132eb826121a3565b600682527f63616765282900000000000000000000000000000000000000000000000000006020830152565b60405190613324826121a3565b601982527f67657445666665637469766552616e6b286164647265737329000000000000006020830152565b6040519061335d826121a3565b601882527f6765744e6f64654c766c446570746828616464726573732900000000000000006020830152565b60405190613396826121a3565b601e82527f6765746e6f6465526e6b41676528616464726573732c75696e743235362900006020830152565b60088110156107c05760230190600090565b604051906133e1826121a3565b601082527f6765744e6f6465286164647265737329000000000000000000000000000000006020830152565b908160a091031261040b57805191602082015161342981610571565b916040810151916080606083015161344081610650565b9201516127a581610650565b60405190613459826121a3565b601a82527f77697468647261776e496e636f6d654f662861646472657373290000000000006020830152565b601a5460081c60ff16612c995760049060206134ac6112fc6000546001600160a01b031690565b604051938480927f447aa3040000000000000000000000000000000000000000000000000000000082525afa9182156113df57600092613fde575b5061352e6112346135206135036001546001600160a01b031690565b604080516001600160a01b03909216602083015290928391820190565b613528613004565b846168af565b926001600160a01b03841615613fb957600582116106355761356061355161303d565b613559612293565b9086616934565b91601c5461356e818361271f565b841115613fad5761357e9161271f565b909291925b6000805260316020527f346dc135129bcc5b8e8f6ff902940f16dc0729d02b27118b912aa326da88b831547f346dc135129bcc5b8e8f6ff902940f16dc0729d02b27118b912aa326da88b83254909490935b601c54848110156139bf576135ec6135f191612654565b601c55565b60008052602c6020527f4bd6275b77b7e49eb0792b10b407951644bbdba590ba83c6764fe2c9da0b9bef6136258154612654565b9055601c5495613655604051613647816112348b602083019190602083019252565b61364f613076565b8a6168af565b906136706136616130af565b613669612293565b9084616934565b9161367c612afd6130e8565b916136a76040516136998161123460208201906000602083019252565b6136a1613121565b84616934565b906136bc6136b661355161315a565b93616aab565b9a602061371c6136d76112fc6000546001600160a01b031690565b6040519e8f809381927fcfaa1f6c000000000000000000000000000000000000000000000000000000008352600483019190916001600160a01b036020820193169052565b03915afa9b8c156113df5760009c61399e575b5061373c6115ad8d616621565b6104aa5761381b926137aa866137a4876112fc968161376861380c98600052602e602052604060002090565b55836001613782601c54600052602e602052604060002090565b01558b600261379d601c54600052602e602052604060002090565b015561271f565b9d61271f565b9c6138076137c06001546001600160a01b031690565b60405163c85700fb60e01b60208201526001600160a01b0390911660248201526044810193909352606483018890526084830187905260a483018990528260c48101610e9f565b6169f8565b60208082518301019101612790565b6001600160a01b03811615610771577f1517c86fcf2bfb8e3468afcc539b0004955da8027797c497ea51d1f1094ab8989361394861398592613870600391826117b3601c54600052602e602052604060002090565b61183761391761390f6118326118666138be8a610f2661183d6138af6138a061180e8c546001600160a01b031690565b60208082518301019101612865565b9e9491959b9293989050612819565b946118a5613908602f6138ea8c611866886138e485546000526030602052604060002090565b9261271f565b6138f58a8254612898565b9055546000526030602052604060002090565b938a61271f565b9182546128b4565b90556001601c5414613990575b61393a601c54600052602e602052604060002090565b01546001600160a01b031690565b604080513381526001600160a01b03909216602083015281019490945260608401929092526080830191909152600060a0830152819060c0820190565b0390a19493946135d5565b61399983601e55565b613924565b6139b8919c5060203d6020116113d8576113c881836121f7565b9a3861372f565b509391959250936139da600080526031602052604060002090565b556000805260316020527f346dc135129bcc5b8e8f6ff902940f16dc0729d02b27118b912aa326da88b83255601c54838114938415613fa3575b5060011015613ac4575b5050613a2657565b600080526031602052613a5f6117f460017f346dc135129bcc5b8e8f6ff902940f16dc0729d02b27118b912aa326da88b83101546127e6565b600080526031602052613a927f346dc135129bcc5b8e8f6ff902940f16dc0729d02b27118b912aa326da88b83154601355565b613a9d601e54601f55565b613ab0613aab601e54612703565b612908565b61222661010061ff0019601a541617601a55565b613ad2610715613661613193565b602054601e548111613f41575b50613b0c613afd613aee613205565b613af6612293565b90846167d6565b6020808251830101910161323e565b946001613b2a9592959493946001600052602d602052604060002090565b0155602d60209081527f3acd642f41c4abca13e6953c1b760d7f24daf271c41106e480dd1fea313ccc73919091557f1d82e85504d8f49072f846129ecee69c763b08a82ee3d81cda62b57a7576d37c919091557faa2e4aefbe0e8a3f17f0ef1a62898433725e8346722aad5b9b38d3974d216084919091557fb166da6939c8546909795cbdc2ac7eb95e976cea31f094e55573dbb6ac49f7509190915560076000527f4d73f294a2cb7f5a471fde2e2c5652a46cf819d439af00ca2c7f02d5472b48b991909155604080516001600160a01b03841692810192909252613c299161255f91613c1b9082908101611234565b613c2361326c565b856167d6565b602d6020527f4ac3b22e31fa68474eb1c8f858cd447cf1ee3eef7de8984178a7afa8f4fe0cd09190915560046000527faa2e4aefbe0e8a3f17f0ef1a62898433725e8346722aad5b9b38d3974d21608355613c886119826136616132a5565b613c966107156136616132de565b613cd3613cce604051613cc08161123486602083019190916001600160a01b036020820193169052565b613cc8613317565b85616934565b602155565b604080516001600160a01b0383166020820152613cff91613cf79082908101611234565b6136a1613350565b60005b818110613e52575050613d43610e9f613d6993613d3b613d5294604051938491602083019190916001600160a01b036020820193169052565b610eb56133d4565b6020808251830101910161340d565b935050505060ff8019601a54169115151617601a55565b60046020613d826112fc6000546001600160a01b031690565b604051928380927f6325dd040000000000000000000000000000000000000000000000000000000082525afa9081156113df57613e0091610e9f91600091613e33575b50613df8613ddb6001546001600160a01b031690565b604080516001600160a01b03909216602083015290938491820190565b61118561344c565b6005600052602d6020527ff4e70c5971a4cc8cf9f9f8ecc4b5217b9d5f157385b05a56c54d37f26435621d553880613a1e565b613e4c915060203d6020116113d8576113c881836121f7565b38613dc5565b80613e6b91613eb4575b602154811115613e7057612654565b613d02565b604080516001600160a01b0386166020820152908101829052613eaf90613ea690613e9e8160608101611234565b6111d4613389565b611ea8836133c2565b612654565b6040517f5329daca0000000000000000000000000000000000000000000000000000000060208201526001600160a01b038516602482015260448101829052613f0e9061255f90613f088160648101611234565b876169f8565b90613f23836000526031602052604060002090565b556001613f3a836000526031602052604060002090565b0155613e5c565b601e55613f72611234613f64602054604051928391602083019190602083019252565b613f6c6131cc565b83616970565b613f9c613f8b602f546000526030602052604060002090565b601e54600052602052604060002090565b5538613adf565b1593506001613a14565b50508190929192613583565b92505050613fc86107156166ab565b613fd3602054601e55565b613ab0602054601f55565b613ff891925060203d6020116113d8576113c881836121f7565b90386134e7565b6040519061400c826121a3565b601482527f6c6576656c436c617573652875696e74323536290000000000000000000000006020830152565b908160a091031261040b578051916020820151916040810151916080606083015192015190565b6040519061406c826121a3565b601382527f72616e6b436c617573652875696e7432353629000000000000000000000000006020830152565b6021906140a58254612711565b600881106140b257505050565b6003546001600160a01b03166140f66040916140e983516020926140e182610e9f898783019190602083019252565b610eb561405f565b8051810182019101614038565b505050918315801590614190575b80614180575b6103fb57509061413192916022541015908161415e575b508061414c575b61413657612654565b6140a5565b61413f81602155565b613eaf83611ea8836133c2565b5083546141588261272c565b14614128565b90506001614176836000526031602052604060002090565b0154101538614121565b5081158061410a5750821561410a565b506001614104565b9091906000831561422e57506141af602154612711565b83156142aa57600881105b156142a4576003546001600160a01b03166141ee6040916140e983516020926140e182610e9f898783019190602083019252565b50505091831580159061429d575b8061428d575b6103fb57509061422e92916022541015908161426b575b50851561424057806142335761413657612654565b6141af565b506021546141588261272c565b1561424e57613eaf81602155565b613eaf61425a826133c2565b8154906000199060031b1b19169055565b90506001614283836000526031602052604060002090565b0154101538614219565b5081158061420257508215614202565b50866141fc565b50509050565b6021548111156141ba565b604051906142c2826121a3565b601d82527f636f6d707574654f7a6f6e65546f446f6c6c61722875696e74323536290000006020830152565b9081602091031261040b575190565b6122269061477d6102a0614310836148de565b614776614771856147696147646143b06147026146fd886146f46146ef825198614340602085019a8b519061271f565b90614351604086019283519061271f565b9a614362606087019c8d519061271f565b614372608088019182519061271f565b9061438360a089019283519061271f565b9261439460c08a019485519061271f565b9e895160039d8e610d0b6001600052602d602052604060002090565b9055516004600052602d6020526143e78d7faa2e4aefbe0e8a3f17f0ef1a62898433725e8346722aad5b9b38d3974d216083610d0b565b9055516002600052602d60205261441e8c7f3acd642f41c4abca13e6953c1b760d7f24daf271c41106e480dd1fea313ccc72610d0b565b905584516003600052602d6020526144568c7f1d82e85504d8f49072f846129ecee69c763b08a82ee3d81cda62b57a7576d37b610d0b565b9055516005600052602d60205261448d8b7ff4e70c5971a4cc8cf9f9f8ecc4b5217b9d5f157385b05a56c54d37f26435621c610d0b565b9055516006600052602d6020526144c48a7fb166da6939c8546909795cbdc2ac7eb95e976cea31f094e55573dbb6ac49f74f610d0b565b9055516007600052602d6020526144fb897f4d73f294a2cb7f5a471fde2e2c5652a46cf819d439af00ca2c7f02d5472b48b8610d0b565b905560e08501516001600052602d6020526002956146e4916146dc916101c0916145458a7f4ac3b22e31fa68474eb1c8f858cd447cf1ee3eef7de8984178a7afa8f4fe0cd0610d0b565b90556101408101516004600052602d6020526145818a7faa2e4aefbe0e8a3f17f0ef1a62898433725e8346722aad5b9b38d3974d216083610d0b565b90556101008101516002600052602d6020526145bd8a7f3acd642f41c4abca13e6953c1b760d7f24daf271c41106e480dd1fea313ccc72610d0b565b9055610120810180516003600052602d6020529099906145fd827f1d82e85504d8f49072f846129ecee69c763b08a82ee3d81cda62b57a7576d37b610d0b565b90556101608201516005600052602d602052614639827ff4e70c5971a4cc8cf9f9f8ecc4b5217b9d5f157385b05a56c54d37f26435621c610d0b565b90556101808201516006600052602d602052614675827fb166da6939c8546909795cbdc2ac7eb95e976cea31f094e55573dbb6ac49f74f610d0b565b90556101a08201516007600052602d602052906146b2907f4d73f294a2cb7f5a471fde2e2c5652a46cf819d439af00ca2c7f02d5472b48b8610d0b565b90550151926146cd602f546000526030602052604060002090565b90600052602052604060002090565b918254612898565b90555160185461271f565b601855565b5160195461271f565b601955565b61470b8a601e55565b60008415614783575061474d61472b61475c92546001600160a01b031690565b6040519061474582610e9f89602083019190602083019252565b610eb56142b5565b602080825183010191016142ee565b60165461271f565b601655565b60145461271f565b601455565b0151151590565b906125a7565b905061475c565b614792612228565b9060008083528060208401528060408401528060608401528060808401528060a08401528060c08401528060e08401528061010084015280610120840152806101408401528061016084015280610180840152806101a0840152806101c0840152806101e08401528061020084015280610220840152806102408401528061026084015280610280840152806102a0840152806102c08401526102e0830152565b60405190614840826121a3565b600a82527f73687574646f776e2829000000000000000000000000000000000000000000006020830152565b60405190614879826121a3565b601182527f696e636f6d654f662861646472657373290000000000000000000000000000006020830152565b604051906148b2826121a3565b601482527f636f6d70757465546f75722875696e74323536290000000000000000000000006020830152565b906148e761478a565b91600390836148fd83546001600160a01b031690565b92614918614909614833565b614911612293565b90866168f8565b90614921615849565b94909160608501958652828552614a42846001936149c3614984866149516001600052602d602052604060002090565b01546001600052602d602052867f4ac3b22e31fa68474eb1c8f858cd447cf1ee3eef7de8984178a7afa8f4fe0cd0612b7a565b6001600052602d602052600297906149bd90897f4ac3b22e31fa68474eb1c8f858cd447cf1ee3eef7de8984178a7afa8f4fe0cd0612b7a565b9061273b565b885288516004600052602d6020527faa2e4aefbe0e8a3f17f0ef1a62898433725e8346722aad5b9b38d3974d21608380870154614a3b92916149bd91614a0a918990612b7a565b6004600052602d602052897faa2e4aefbe0e8a3f17f0ef1a62898433725e8346722aad5b9b38d3974d216083612b7a565b8952615343565b93909260208a99939901986101c06101008c019b015289528752600014615147575050614a97610e9f614a7d6004546001600160a01b031690565b61154c601d54604051938491602083019190602083019252565b3160408a01525b6009546001600160a01b031692614afb614adf614ac285546001600160a01b031690565b604080516001600160a01b03909216602083015290918291820190565b0395614af3601f19978881018452836121f7565b61118561486c565b6005600052602d60205291614b92614b61857ff4e70c5971a4cc8cf9f9f8ecc4b5217b9d5f157385b05a56c54d37f26435621c01546005600052602d602052847ff4e70c5971a4cc8cf9f9f8ecc4b5217b9d5f157385b05a56c54d37f26435621c612b7a565b6005600052602d602052827ff4e70c5971a4cc8cf9f9f8ecc4b5217b9d5f157385b05a56c54d37f26435621c612b7a565b60808c01818152938181111561513957614baf915084519061273b565b8352600460215483811015806150c2575b615091575b10159182615019575b5050614fd9575b6005600052603260205281614c0c7ff1229d5c96a3de3bdb5814fe87c3432b211770fda268ddcd390c87c4a4feb8e75b5460011690565b14614fbb575b506006600052603260205280614c477f125f38041639e32c103ab47aba064e25405a1fb08d2d6ee74cd07eb22ba6e040614c05565b14614f9b575b60076000526032602052614c807f46bf7effec7da617c09fb0f99690c7f788a904e44d0053fc402fa3db73b36725614c05565b14614f7b575b86518251614c939161271f565b9160408801928351614ca49161271f565b8551614caf9161271f565b9360e089019687518251614cc29161271f565b938a6101208101958651614cd59161271f565b976101408201988951614ce79161271f565b614cf09161575d565b15156102a08801819052610280880191825261024088019283526102208801938452610260880194855261020088019586526101e0880196875290989597929492939290614d4b575b50505050505050505050505050505050565b614db761474d614da38f98614daf614dd0986102e098614dd69c614d89614d7d614a7d6004546001600160a01b031690565b038781018452836121f7565b319052519e51604051948591602083019190602083019252565b039081018452836121f7565b610eb5612f46565b97519051106102c0870190815293519051109401938452565b51151590565b908180614f69575b60009215614f435750505080821015614f3c57505b965b8951888b81614f00575050614e0b90825161271f565b9052600089525b815187614ed95790614e2860009392825161271f565b9052525b815185614eb25790614e4260009392825161271f565b9052525b81519280614e755750614e5c600093825161271f565b9052525b3880808080808080808a818080808080614d39565b9190614e9c614e95614ea595808611600014614eab57805b81865261273b565b825161271f565b9052519061273b565b50614e60565b8590614e8d565b90614e9c614e95614ed395979493808611600014614eab578081865261273b565b91614e46565b90614e9c614e95614efa95999493808611600014614eab578081865261273b565b93614e2c565b614f2e949a50614e9590614f24929493808611600014614f34578080925b5261273b565b905289519061273b565b95614e12565b858092614f1e565b9050614df3565b15614f52575050505b96614df5565b519192509015614f625750614f4c565b9050614f4c565b9150614f758151151590565b91614dde565b600060c088018051614f936101a08b0191825161271f565b905252614c86565b600060a089018051614fb36101808c0191825161271f565b905252614c4d565b8060009151614fd06101608c0191825161271f565b90525238614c12565b61500f60405161500181614ff560208201906004602083019252565b038681018352826121f7565b6150096148a5565b89616934565b60c08a0152614bd5565b6007600052602d6020527f4d73f294a2cb7f5a471fde2e2c5652a46cf819d439af00ca2c7f02d5472b48b8808601546150899450615058929091612b7a565b6007600052602d602052907f4d73f294a2cb7f5a471fde2e2c5652a46cf819d439af00ca2c7f02d5472b48b8612b7a565b153880614bce565b8c60a06150ba8d604051906150b28261163f60208201906002602083019252565b6111856148a5565b910152614bc5565b506006600052602d6020527fb166da6939c8546909795cbdc2ac7eb95e976cea31f094e55573dbb6ac49f74f808701546151339161510291908790612b7a565b6006600052602d602052847fb166da6939c8546909795cbdc2ac7eb95e976cea31f094e55573dbb6ac49f74f612b7a565b15614bc0565b6151429161273b565b614baf565b60408b01526101208a0152614a9e565b604051906040820182811067ffffffffffffffff821117611ec85760405260006020838281520152565b6040519061518e8261216a565b81615197615157565b81526151a1615157565b602082015260406151b0615157565b910152565b604051906151c2826121a3565b601882527f6765744261746368526f79616c7479436c6175736573282900000000000000006020830152565b6102a090818184031261040b5782601f8201121561040b576040805193615214856121db565b849383019281841161040b57935b83851061523157505050505090565b60608583031261040b5782516060916152498261216a565b8651825260209182880151838201528588015186820152815201940193615222565b60405190615278826121a3565b601f82527f676574526f79616c697479416d6f756e7442617463682875696e7432353629006020830152565b9060e08282031261040b5780601f8301121561040b57604051916152c7836121db565b829060e0810192831161040b57905b8282106152e35750505090565b81518152602091820191016152d6565b9060078110156107c05760051b0190565b8181029291600082127f8000000000000000000000000000000000000000000000000000000000000000821416610a87578184051490151715610a8757565b9160009260009260009260009260009261535b615181565b61536483615671565b825190602082015252615376836156e7565b60208301519060208201525261538b83615722565b6040830151906020820152526153c66153b76153af6003546001600160a01b031690565b61126c6151b5565b602080825183010191016151ee565b92601e54926153dd6004546001600160a01b031690565b93602154905b8381106153f35750505050505050565b61542f6154206040516154128161123486602083019190602083019252565b61541a61526b565b896167d6565b602080825183010191016152a4565b6001905b838211156155525750508215615452575b61544d90612654565b6153e3565b61547761546f826146cd602f546000526030602052604060002090565b54809c612898565b9a615482828661273b565b90600091604088015180518881106154fc575b50508083116154f4575b826154a99161273b565b91806154de575b50816154be575b5050615444565b9a6154d06154d69261544d949d615304565b90612898565b9990386154b7565b9a6154d0829c6154ed93615304565b99386154b0565b91508161549f565b808611156155495750602085915b016155158151612711565b89101561553a5750875b818111156154955761553292945061273b565b913880615495565b6155449051612711565b61551f565b6020909161550a565b909c6155666155608f61272c565b8a6152f3565b5151158015615611575b615607578651805184101590816155f8575b5080156155d1575b156155b5576155a96155af918f6155a3612de29161272c565b856152f3565b9d612654565b90615433565b9c9d6155cb8f91612de26155a36155af9461272c565b9e612654565b506020870151805184101590816155e9575b5061558a565b602091500151831115386155e3565b60209150015183111538615582565b9c6155af90612654565b508d61562961561f826133c2565b90549060031b1c90565b841015908161563a575b5015615570565b6156689150604061565f61565961565361561f856133c2565b9361272c565b8d6152f3565b5101519061271f565b8311158e615633565b906103e76000526032602052604060002080549081156156e15760018216159384156156d85760ff60025b168303838111610a87576156b0908361258f565b90549060031b1c946000146156d257506156cc61561f9261272c565b9061258f565b91505090565b60ff600161569c565b50508190565b9060026000526032602052604060002080549081156156e15760018216159384156156d8576001198301838111610a87576156b0908361258f565b9060036000526032602052604060002080549081156156e15760018216159384156156d8576001198301838111610a87576156b0908361258f565b919061577a6157716013546012549061271f565b60395490612819565b9161578b826118a58660145461271f565b93838511801561584057615814855b946157b961294a6157b06017546015549061271f565b603a5490612819565b93601654916157c8818361271f565b600090156158375750610e9f61580e926147456157fa61474d946157f46003546001600160a01b031690565b9361271f565b604051938491602083019190602083019252565b9061271f565b9282841191821561583157835b92811561582c575090565b905090565b84615821565b9150509061271f565b6158148661579a565b600090816001815b600f8211156158c85750506001600052602d6020527f4ac3b22e31fa68474eb1c8f858cd447cf1ee3eef7de8984178a7afa8f4fe0cd0548101809111610a87576004600052602d602052916127a5907faa2e4aefbe0e8a3f17f0ef1a62898433725e8346722aad5b9b38d3974d216083549061271f565b9093848252603192602093808552604090600282862001548301809311610a87576003929588865252832001548101809111610a87576159089094612654565b90615851565b90615917612968565b916001808214615a0457506002808214615a0457506003808214615a045750600481146159885760051461594757565b905061595161226a565b6013548152601754602082015260145460408201526016546060820152601254608082015260155460a0820152600060c082015290565b50905061599361226a565b601854815260195460208201526159b56001600052602d602052604060002090565b5460408201526004600052602d6020527faa2e4aefbe0e8a3f17f0ef1a62898433725e8346722aad5b9b38d3974d21608354606082015260006080820152600060a0820152600060c082015290565b91925050615a1061226a565b7f4ac3b22e31fa68474eb1c8f858cd447cf1ee3eef7de8984178a7afa8f4fe0cd082015481527f3acd642f41c4abca13e6953c1b760d7f24daf271c41106e480dd1fea313ccc728201546020808301919091527f1d82e85504d8f49072f846129ecee69c763b08a82ee3d81cda62b57a7576d37b83015460408301527faa2e4aefbe0e8a3f17f0ef1a62898433725e8346722aad5b9b38d3974d21608383015460608301527ff4e70c5971a4cc8cf9f9f8ecc4b5217b9d5f157385b05a56c54d37f26435621c83015460808301527fb166da6939c8546909795cbdc2ac7eb95e976cea31f094e55573dbb6ac49f74f83015460a08301526007600052602d90527f4d73f294a2cb7f5a471fde2e2c5652a46cf819d439af00ca2c7f02d5472b48b89091015460c082015290565b60405190615b4a8261214e565b60006060838281528260208201528260408201520152565b90604051615b6f8161214e565b6060600382948054845260018101546020850152600281015460408501520154910152565b67ffffffffffffffff8111611ec85760051b60200190565b80518210156107c05760209160051b010190565b615ea56101c061222692615bfa615bde82516001600160a01b031690565b6001600160a01b03166001600160a01b03196002541617600255565b615c2d615c1160208301516001600160a01b031690565b6001600160a01b03166001600160a01b03196003541617600355565b615c60615c4460408301516001600160a01b031690565b6001600160a01b03166001600160a01b03196004541617600455565b615c93615c7760608301516001600160a01b031690565b6001600160a01b03166001600160a01b03196005541617600555565b615cc6615caa60808301516001600160a01b031690565b6001600160a01b03166001600160a01b03196006541617600655565b615cf9615cdd60a08301516001600160a01b031690565b6001600160a01b03166001600160a01b03196007541617600755565b615d2c615d1060c08301516001600160a01b031690565b6001600160a01b03166001600160a01b03196008541617600855565b615d5f615d4360e08301516001600160a01b031690565b6001600160a01b03166001600160a01b03196009541617600955565b615d93615d776101008301516001600160a01b031690565b6001600160a01b03166001600160a01b0319600a541617600a55565b615dc7615dab6101208301516001600160a01b031690565b6001600160a01b03166001600160a01b0319600b541617600b55565b615dfb615ddf6101408301516001600160a01b031690565b6001600160a01b03166001600160a01b0319600c541617600c55565b615e2f615e136101608301516001600160a01b031690565b6001600160a01b03166001600160a01b0319600d541617600d55565b615e63615e476101808301516001600160a01b031690565b6001600160a01b03166001600160a01b0319600e541617600e55565b615e97615e7b6101a08301516001600160a01b031690565b6001600160a01b03166001600160a01b0319600f541617600f55565b01516001600160a01b031690565b6001600160a01b03166001600160a01b03196010541617601055565b615ed66112fc6000546001600160a01b031690565b604051907f97f3815a000000000000000000000000000000000000000000000000000000008252602082600481845afa9182156113df57600092616566575b50604051917fcfbffe53000000000000000000000000000000000000000000000000000000008352602083600481855afa9283156113df57600093616545575b50604051907fab6e844f000000000000000000000000000000000000000000000000000000008252602082600481865afa9182156113df57600092616524575b50604051917f14d8d024000000000000000000000000000000000000000000000000000000008352602083600481875afa9283156113df57600093616503575b50604051927fd1f956b1000000000000000000000000000000000000000000000000000000008452602084600481885afa9384156113df576000946164e2575b50604051937fe61dfd58000000000000000000000000000000000000000000000000000000008552602085600481895afa9485156113df576000956164c1575b506040517fe09d394d0000000000000000000000000000000000000000000000000000000081526020816004818a5afa9081156113df576000916164a2575b506040517f52b06d640000000000000000000000000000000000000000000000000000000081526020816004818b5afa9081156113df57600091616483575b506040517f013cf08b00000000000000000000000000000000000000000000000000000000815260006004820152916020836024818c5afa9283156113df57600093616462575b50604051977f5e09dbe70000000000000000000000000000000000000000000000000000000089526020896004818d5afa9485156113df57600499600096616441575b5060208b6040519b8c80927faa0ddc160000000000000000000000000000000000000000000000000000000082525afa9687156113df5760049a600098616420575b5060208c6040519c8d80927f640274270000000000000000000000000000000000000000000000000000000082525afa9889156113df5760049b60009a6163ff575b5060208d6040519d8e80927f30125cf50000000000000000000000000000000000000000000000000000000082525afa9a8b156113df578d60049d60009d6163dd575b506020906040519e8f80927f24768d910000000000000000000000000000000000000000000000000000000082525afa9c8d156113df5760009d6163bc575b50604051809e81907f9dc969a80000000000000000000000000000000000000000000000000000000082525a92600491602094fa9d8e156113df5760009e61639b575b506162af612249565b6001600160a01b0390911681529d8e906001600160a01b03166020820152604001906162e391906001600160a01b03169052565b6001600160a01b031660608d01526001600160a01b031660808c01526001600160a01b031660a08b01526001600160a01b031660c08a01526001600160a01b031660e08901526001600160a01b03166101008801526001600160a01b03166101208701526001600160a01b03166101408601526001600160a01b03166101608501526001600160a01b03166101808401526001600160a01b03166101a08301526001600160a01b03166101c082015261222690615bc0565b6163b5919e5060203d6020116113d8576113c881836121f7565b9c386162a6565b6163d6919d5060203d6020116113d8576113c881836121f7565b9b38616263565b6020919d506163f890823d84116113d8576113c881836121f7565b9c90616224565b616419919a5060203d6020116113d8576113c881836121f7565b98386161e1565b61643a91985060203d6020116113d8576113c881836121f7565b963861619f565b61645b91965060203d6020116113d8576113c881836121f7565b943861615d565b61647c91935060203d6020116113d8576113c881836121f7565b913861611a565b61649c915060203d6020116113d8576113c881836121f7565b386160d3565b6164bb915060203d6020116113d8576113c881836121f7565b38616094565b6164db91955060203d6020116113d8576113c881836121f7565b9338616055565b6164fc91945060203d6020116113d8576113c881836121f7565b9238616015565b61651d91935060203d6020116113d8576113c881836121f7565b9138615fd5565b61653e91925060203d6020116113d8576113c881836121f7565b9038615f95565b61655f91935060203d6020116113d8576113c881836121f7565b9138615f55565b61658091925060203d6020116113d8576113c881836121f7565b9038615f15565b9081602091031261040b57516127a581610650565b6165f76001600160a01b03600254166040516165b7816121a3565b600881527f69735361666528290000000000000000000000000000000000000000000000006020820152604051916165ee836121bf565b60008352616801565b9080616616575b1561063557806020806127a593518301019101616587565b5060208151146165fe565b6166846001600160a01b038060025416604051916020941684830152838252616649826121a3565b60405190616656826121a3565b601582527f697353656375726542617365286164647265737329000000000000000000000085830152616801565b90806166a1575b1561063557816127a59282518301019101616587565b508181511461668b565b6127a56001600160a01b03600354166040516166c6816121a3565b600681527f69416765282900000000000000000000000000000000000000000000000000006020820152604051916110f7836121bf565b6001600160a01b0380911690811561074757600154826001600160a01b0319821617600155167f8292fce18fa69edf4db7b94ea2e58241df0ae57f97e0a6c9b29067028bf92d76600080a3565b3d15616775573d9061675b82612277565b9161676960405193846121f7565b82523d6000602084013e565b606090565b908015612f17576001600160a01b03821691821561074757600080808481945af16167a361674a565b50156106355760207fcec1f18c3ab8ddaaa107a1591e3c369667eec613626611a8deaedef43069fcdd91604051908152a2565b906167e19291616801565b90600090156167ee575090565b60405191506167fc826121bf565b815290565b9190823b15616896577fffffffff00000000000000000000000000000000000000000000000000000000815160208093012016916040519180830193845281519160005b838110616882575050509181616872602482600097959688970187838201520360048101845201826121f7565b51915afa61687e61674a565b9091565b818101830151858201602401528201616845565b5050506000906040516168a8816121bf565b6000815290565b92916168bd91600094616801565b90806168ed575b6168cb5750565b6001600160a01b03919250806020806168e993518301019101612790565b1690565b5060208151146168c4565b929161690691600094616801565b9080616929575b6169145750565b6127a591925060208082518301019101616587565b50602081511461690d565b929161694291600094616801565b9080616965575b6169505750565b6127a5919250602080825183010191016142ee565b506020815114616949565b929161697e91600094616801565b90806169a3575b61698c5750565b90915060208180518101031261040b576020015190565b506020815114616985565b90602082519201517fffffffff000000000000000000000000000000000000000000000000000000009081811693600481106169e957505050565b60040360031b82901b16169150565b6001600160a01b0381161561074757600080918351908260208601915af190616a1f61674a565b9115616a29575090565b805160009190600411616aa557616a4091506169ae565b815115616a505750805190602001fd5b6040517f21c09d340000000000000000000000000000000000000000000000000000000081527fffffffff00000000000000000000000000000000000000000000000000000000919091166004820152602490fd5b50616a40565b803b6000616ab882612277565b92616ac660405194856121f7565b82845260208401903c602d81511061077157602a015160601c9056fea2646970667358221220bb2af62f17b8b17d054051103a6396c0a25f641b37e069b43be91bcf19a3a16464736f6c63430008140033","linkReferences":{}},"methodIdentifiers":{"Burn(uint256)":"b90306ad","BurnCoin(uint256,uint256)":"a5d7cda4","LSB(uint256,uint256)":"6f493aad","_delegatorCount()":"a1f7f539","_getImplementation(address)":"c54e44b0","_isDelegatorNode(address)":"e01ad5fd","_isSafe()":"e0a9bc2b","_isSecureBase(address)":"af484526","_isSigner(address)":"1f185d16","_txnType7(uint256,uint256)":"02a085f2","_txnType_1_0(address,uint256,uint256,uint256,uint256,uint256)":"a6630304","addLevelnGetRank(uint256,uint256,uint256,uint256,uint256,bool)":"822ffec4","bonus()":"75b4d78c","cage()":"69245009","currentLSBversion()":"43a1b5ab","dage()":"725b6fff","directsCount()":"d2a15904","getAllComputeData(uint256)":"b9f1a394","getAllData(uint256,uint256)":"12964120","getBalance()":"12065fe0","getHexbase()":"3b9b7955","getNodeLB(uint256)":"da021335","getNodeLvlInfoBatch(uint256,uint256)":"759f22bd","getRankAgeInBatch()":"6de97c66","getRankWithAgeValue()":"29ee350e","getToggleAgeCount(uint256)":"143ec3b7","getToggleAgeValue(uint256,uint256)":"043719b4","id()":"af640d0f","importOld(uint256)":"d3abb8a3","isLock()":"09d8da2e","mintCount()":"9659867e","mints(uint256)":"6350b2c2","moveLvlIncome(uint256,uint256,uint256,uint256,bool)":"7b058ac1","owner()":"8da5cb5b","postInit()":"4a65786c","preinit(address,address,uint256,bool)":"2697a77a","rank()":"934209ce","setBonus(uint256)":"0b98f975","setLock(bool)":"619d5194","setSuspend(uint256,bool)":"c8ef7b1a","setburnclaimdollar(uint256,uint256)":"654c668e","setdirect(bool)":"deb1ba1e","storcache()":"5ecf6a8a","syncBaseAddr()":"339459a6","systemAge()":"fdc10bc9","updateOwner(address)":"880cdc31","userCycleMintCount(uint256)":"39b4d61b","withdrawlDage()":"a9bf285b"},"id":52}