{"abi":[{"type":"constructor","inputs":[{"name":"_hex","type":"address","internalType":"address"}],"stateMutability":"nonpayable"},{"type":"fallback","stateMutability":"payable"},{"type":"receive","stateMutability":"payable"},{"type":"function","name":"Burn","inputs":[{"name":"amount","type":"uint256","internalType":"uint256"}],"outputs":[],"stateMutability":"nonpayable"},{"type":"function","name":"BurnCoin","inputs":[{"name":"_dollar","type":"uint256","internalType":"uint256"}],"outputs":[],"stateMutability":"payable"},{"type":"function","name":"LSB","inputs":[{"name":"","type":"uint256","internalType":"uint256"}],"outputs":[{"name":"","type":"int256","internalType":"int256"}],"stateMutability":"view"},{"type":"function","name":"_compute","inputs":[{"name":"endage","type":"uint256","internalType":"uint256"}],"outputs":[{"name":"r","type":"tuple","internalType":"struct InstanceStor.ComputeResult","components":[{"name":"p1","type":"uint256","internalType":"uint256"},{"name":"p2","type":"uint256","internalType":"uint256"},{"name":"p3","type":"uint256","internalType":"uint256"},{"name":"p4","type":"uint256","internalType":"uint256"},{"name":"p5","type":"uint256","internalType":"uint256"},{"name":"p6","type":"uint256","internalType":"uint256"},{"name":"p7","type":"uint256","internalType":"uint256"},{"name":"f1","type":"uint256","internalType":"uint256"},{"name":"f2","type":"uint256","internalType":"uint256"},{"name":"f3","type":"uint256","internalType":"uint256"},{"name":"f4","type":"uint256","internalType":"uint256"},{"name":"f5","type":"uint256","internalType":"uint256"},{"name":"f6","type":"uint256","internalType":"uint256"},{"name":"f7","type":"uint256","internalType":"uint256"},{"name":"lsb","type":"int256","internalType":"int256"}]}],"stateMutability":"view"},{"type":"function","name":"_delegatorCount","inputs":[],"outputs":[{"name":"","type":"uint256","internalType":"uint256"}],"stateMutability":"view"},{"type":"function","name":"_getImplementation","inputs":[{"name":"clone","type":"address","internalType":"address"}],"outputs":[{"name":"impl","type":"address","internalType":"address"}],"stateMutability":"view"},{"type":"function","name":"_importOld","inputs":[{"name":"limit","type":"uint256","internalType":"uint256"}],"outputs":[],"stateMutability":"payable"},{"type":"function","name":"_isDelegatorNode","inputs":[{"name":"sender","type":"address","internalType":"address"}],"outputs":[{"name":"","type":"bool","internalType":"bool"}],"stateMutability":"view"},{"type":"function","name":"_isSafe","inputs":[],"outputs":[{"name":"","type":"bool","internalType":"bool"}],"stateMutability":"view"},{"type":"function","name":"_isSecureBase","inputs":[{"name":"sender","type":"address","internalType":"address"}],"outputs":[{"name":"","type":"bool","internalType":"bool"}],"stateMutability":"view"},{"type":"function","name":"_isSigner","inputs":[{"name":"sender","type":"address","internalType":"address"}],"outputs":[{"name":"","type":"bool","internalType":"bool"}],"stateMutability":"view"},{"type":"function","name":"_txnType7","inputs":[{"name":"_maxint","type":"uint256","internalType":"uint256"},{"name":"_ag","type":"uint256","internalType":"uint256"}],"outputs":[{"name":"CALC_INC","type":"uint256[9]","internalType":"uint256[9]"}],"stateMutability":"payable"},{"type":"function","name":"_txnType_1_0","inputs":[{"name":"paramAdd","type":"address","internalType":"address"},{"name":"_id_maxint","type":"uint256","internalType":"uint256"},{"name":"_qty","type":"uint256","internalType":"uint256"},{"name":"_msgValue","type":"uint256","internalType":"uint256"},{"name":"_type","type":"uint256","internalType":"uint256"}],"outputs":[{"name":"_tvl","type":"uint256","internalType":"uint256"},{"name":"_amt","type":"uint256","internalType":"uint256"}],"stateMutability":"payable"},{"type":"function","name":"addLevelnGetRank","inputs":[{"name":"_amount","type":"uint256","internalType":"uint256"},{"name":"_qty","type":"uint256","internalType":"uint256"},{"name":"_level","type":"uint256","internalType":"uint256"},{"name":"_epochAge","type":"uint256","internalType":"uint256"},{"name":"_free","type":"uint256","internalType":"uint256"},{"name":"_tobeSkipped","type":"bool","internalType":"bool"}],"outputs":[{"name":"currentrnk","type":"uint256","internalType":"uint256"}],"stateMutability":"nonpayable"},{"type":"function","name":"bonus","inputs":[],"outputs":[{"name":"","type":"uint256","internalType":"uint256"}],"stateMutability":"view"},{"type":"function","name":"cage","inputs":[],"outputs":[{"name":"","type":"uint256","internalType":"uint256"}],"stateMutability":"view"},{"type":"function","name":"capStatus","inputs":[],"outputs":[{"name":"totalIncome","type":"uint256","internalType":"uint256"},{"name":"burnedx","type":"uint256","internalType":"uint256"},{"name":"threshold","type":"uint256","internalType":"uint256"},{"name":"_cap","type":"bool","internalType":"bool"},{"name":"currentValue","type":"uint256","internalType":"uint256"}],"stateMutability":"view"},{"type":"function","name":"currentCycle","inputs":[],"outputs":[{"name":"","type":"uint256","internalType":"uint256"}],"stateMutability":"view"},{"type":"function","name":"dage","inputs":[],"outputs":[{"name":"","type":"uint256","internalType":"uint256"}],"stateMutability":"view"},{"type":"function","name":"directsCount","inputs":[],"outputs":[{"name":"","type":"uint256","internalType":"uint256"}],"stateMutability":"view"},{"type":"function","name":"getAllIncome","inputs":[{"name":"typeId","type":"uint256","internalType":"uint256"},{"name":"maxinterwal","type":"uint256","internalType":"uint256"}],"outputs":[{"name":"values","type":"uint256[7]","internalType":"uint256[7]"}],"stateMutability":"view"},{"type":"function","name":"getBalance","inputs":[],"outputs":[{"name":"","type":"uint256","internalType":"uint256"}],"stateMutability":"view"},{"type":"function","name":"getHexbase","inputs":[],"outputs":[{"name":"","type":"address","internalType":"address"}],"stateMutability":"view"},{"type":"function","name":"getNodeLB","inputs":[{"name":"_level","type":"uint256","internalType":"uint256"}],"outputs":[{"name":"","type":"tuple","internalType":"struct InstanceStor.LevelInfoStr","components":[{"name":"lvlbs","type":"uint256","internalType":"uint256"},{"name":"lvlqty","type":"uint256","internalType":"uint256"},{"name":"lvlrwrd","type":"uint256","internalType":"uint256"},{"name":"lvlyei","type":"uint256","internalType":"uint256"}]}],"stateMutability":"view"},{"type":"function","name":"getNodeLvlInfoBatch","inputs":[{"name":"from","type":"uint256","internalType":"uint256"},{"name":"to","type":"uint256","internalType":"uint256"}],"outputs":[{"name":"info","type":"tuple[]","internalType":"struct InstanceStor.LevelInfoStr[]","components":[{"name":"lvlbs","type":"uint256","internalType":"uint256"},{"name":"lvlqty","type":"uint256","internalType":"uint256"},{"name":"lvlrwrd","type":"uint256","internalType":"uint256"},{"name":"lvlyei","type":"uint256","internalType":"uint256"}]}],"stateMutability":"view"},{"type":"function","name":"getRankAgeInBatch","inputs":[],"outputs":[{"name":"rankagebatch","type":"uint256[]","internalType":"uint256[]"}],"stateMutability":"view"},{"type":"function","name":"getRankWithAgeValue","inputs":[],"outputs":[{"name":"","type":"uint256","internalType":"uint256"},{"name":"","type":"uint256","internalType":"uint256"}],"stateMutability":"view"},{"type":"function","name":"getToggleAgeCount","inputs":[{"name":"key","type":"uint256","internalType":"uint256"}],"outputs":[{"name":"","type":"uint256","internalType":"uint256"}],"stateMutability":"view"},{"type":"function","name":"getToggleAgeValue","inputs":[{"name":"key","type":"uint256","internalType":"uint256"},{"name":"index","type":"uint256","internalType":"uint256"}],"outputs":[{"name":"","type":"uint256","internalType":"uint256"}],"stateMutability":"view"},{"type":"function","name":"id","inputs":[],"outputs":[{"name":"","type":"uint256","internalType":"uint256"}],"stateMutability":"view"},{"type":"function","name":"isLock","inputs":[],"outputs":[{"name":"","type":"bool","internalType":"bool"}],"stateMutability":"view"},{"type":"function","name":"mintCount","inputs":[],"outputs":[{"name":"","type":"uint256","internalType":"uint256"}],"stateMutability":"view"},{"type":"function","name":"mints","inputs":[{"name":"","type":"uint256","internalType":"uint256"}],"outputs":[{"name":"amt","type":"uint256","internalType":"uint256"},{"name":"qty","type":"uint256","internalType":"uint256"},{"name":"mage","type":"uint256","internalType":"uint256"},{"name":"nft","type":"address","internalType":"address"}],"stateMutability":"view"},{"type":"function","name":"moveLvlIncome","inputs":[{"name":"_amount","type":"uint256","internalType":"uint256"},{"name":"_qty","type":"uint256","internalType":"uint256"},{"name":"_level","type":"uint256","internalType":"uint256"},{"name":"_epochAge","type":"uint256","internalType":"uint256"},{"name":"_op","type":"bool","internalType":"bool"}],"outputs":[{"name":"lastrnk","type":"uint256","internalType":"uint256"},{"name":"currentrnk","type":"uint256","internalType":"uint256"}],"stateMutability":"nonpayable"},{"type":"function","name":"owner","inputs":[],"outputs":[{"name":"","type":"address","internalType":"address"}],"stateMutability":"view"},{"type":"function","name":"postInit","inputs":[],"outputs":[{"name":"","type":"bool","internalType":"bool"}],"stateMutability":"view"},{"type":"function","name":"preinit","inputs":[{"name":"_hex","type":"address","internalType":"address"},{"name":"_own","type":"address","internalType":"address"},{"name":"_id","type":"uint256","internalType":"uint256"}],"outputs":[],"stateMutability":"nonpayable"},{"type":"function","name":"rank","inputs":[],"outputs":[{"name":"","type":"uint256","internalType":"uint256"}],"stateMutability":"view"},{"type":"function","name":"rankage","inputs":[{"name":"","type":"uint256","internalType":"uint256"}],"outputs":[{"name":"","type":"uint256","internalType":"uint256"}],"stateMutability":"view"},{"type":"function","name":"setBonus","inputs":[{"name":"b","type":"uint256","internalType":"uint256"}],"outputs":[],"stateMutability":"nonpayable"},{"type":"function","name":"setLock","inputs":[{"name":"flag","type":"bool","internalType":"bool"}],"outputs":[],"stateMutability":"nonpayable"},{"type":"function","name":"setSuspend","inputs":[{"name":"key","type":"uint256","internalType":"uint256"},{"name":"value","type":"bool","internalType":"bool"}],"outputs":[],"stateMutability":"nonpayable"},{"type":"function","name":"setdirect","inputs":[{"name":"addremove","type":"bool","internalType":"bool"}],"outputs":[],"stateMutability":"nonpayable"},{"type":"function","name":"systemAge","inputs":[],"outputs":[{"name":"","type":"uint256","internalType":"uint256"}],"stateMutability":"view"},{"type":"function","name":"updateOwner","inputs":[{"name":"_newowner","type":"address","internalType":"address"}],"outputs":[],"stateMutability":"nonpayable"},{"type":"function","name":"userCycleMintCount","inputs":[{"name":"","type":"uint256","internalType":"uint256"}],"outputs":[{"name":"","type":"uint256","internalType":"uint256"}],"stateMutability":"view"},{"type":"function","name":"vaultStatus","inputs":[],"outputs":[{"name":"totclaimed","type":"uint256","internalType":"uint256"},{"name":"totclaimedDollar","type":"uint256","internalType":"uint256"},{"name":"calVaultAmt","type":"uint256","internalType":"uint256"},{"name":"capvault","type":"uint256","internalType":"uint256"}],"stateMutability":"view"},{"type":"function","name":"voultDage","inputs":[],"outputs":[{"name":"","type":"uint256","internalType":"uint256"}],"stateMutability":"view"},{"type":"function","name":"withdrawlDage","inputs":[],"outputs":[{"name":"","type":"uint256","internalType":"uint256"}],"stateMutability":"view"},{"type":"event","name":"EthBurned","inputs":[{"name":"sender","type":"address","indexed":true,"internalType":"address"},{"name":"amount","type":"uint256","indexed":false,"internalType":"uint256"}],"anonymous":false},{"type":"event","name":"EthTransferred","inputs":[{"name":"to","type":"address","indexed":true,"internalType":"address"},{"name":"amount","type":"uint256","indexed":false,"internalType":"uint256"}],"anonymous":false},{"type":"event","name":"HexBaseUpdated","inputs":[{"name":"previousHexBase","type":"address","indexed":true,"internalType":"address"},{"name":"newHexBase","type":"address","indexed":true,"internalType":"address"}],"anonymous":false},{"type":"event","name":"LogTxns","inputs":[{"name":"from","type":"address","indexed":false,"internalType":"address"},{"name":"orc1155","type":"address","indexed":false,"internalType":"address"},{"name":"_amt","type":"uint256","indexed":false,"internalType":"uint256"},{"name":"_value","type":"uint256","indexed":false,"internalType":"uint256"},{"name":"_time","type":"uint256","indexed":false,"internalType":"uint256"},{"name":"_type","type":"uint256","indexed":false,"internalType":"uint256"}],"anonymous":false},{"type":"event","name":"OwnerUpdated","inputs":[{"name":"previousOwner","type":"address","indexed":true,"internalType":"address"},{"name":"newOwner","type":"address","indexed":true,"internalType":"address"}],"anonymous":false},{"type":"error","name":"Auth","inputs":[]},{"type":"error","name":"CallFailed","inputs":[]},{"type":"error","name":"InvalidAddress","inputs":[]},{"type":"error","name":"InvalidOp","inputs":[{"name":"code","type":"uint256","internalType":"uint256"}]},{"type":"error","name":"InvalidState","inputs":[]},{"type":"error","name":"LimitExceeded","inputs":[{"name":"code","type":"uint256","internalType":"uint256"}]},{"type":"error","name":"NotAuthorized","inputs":[]},{"type":"error","name":"NotSafe","inputs":[]},{"type":"error","name":"Pause","inputs":[]},{"type":"error","name":"ReentrancyGuardReentrantCall","inputs":[]},{"type":"error","name":"TargetCallFailed","inputs":[{"name":"selector","type":"bytes4","internalType":"bytes4"}]}],"bytecode":{"object":"0x608034620000bb57601f62006fc938819003918201601f19168301916001600160401b03831184841017620000c057808492602094604052833981010312620000bb57516001600160a01b03811690819003620000bb578015620000a95760018060a01b031990338260015416176001556000918254161781556001600355806004558060055580600655806007558060085580600955600a55604051616ef29081620000d78239f35b60405163e6c4247b60e01b8152600490fd5b600080fd5b634e487b7160e01b600052604160045260246000fdfe60806040526004361015610018575b361561001657005b005b60003560e01c806302a085f214610328578063043719b41461032357806309d8da2e1461031e5780630b98f9751461031957806312065fe014610314578063141ca6601461030f578063143ec3b71461030a5780631f185d161461030557806324a8166e1461030057806329ee350e146102fb5780632c2838e8146102f657806339b4d61b146102f15780633b9b7955146102ec5780634a65786c146102e757806352902c59146102e2578063619d5194146102dd5780636350b2c2146102d857806369245009146102d35780636de97c66146102ce578063725b6fff146102c9578063759f22bd146102c457806375b4d78c146102bf5780637b058ac1146102ba578063822ffec4146102b5578063880cdc31146102b05780638da5cb5b146102ab578063932ca2d6146102a6578063934209ce146102a15780639659867e1461029c578063a153154514610297578063a1f7f53914610292578063a20199ac1461028d578063a98bf4f914610288578063a9bf285b14610283578063af4845261461027e578063af640d0f14610279578063b90306ad14610274578063bab2f5521461026f578063c54e44b01461026a578063c8ef7b1a14610265578063ce6e73ac14610260578063d2a159041461025b578063d3a1a49914610256578063da02133514610251578063deb1ba1e1461024c578063e01ad5fd14610247578063e0a9bc2b14610242578063e164980c1461023d5763fdc10bc90361000e57611aa5565b611a87565b611a6c565b6119d2565b61191d565b611896565b61186a565b611824565b6114b4565b6113fc565b6113c4565b6113a6565b61131f565b611301565b6112d0565b6112b2565b611286565b61123a565b61118c565b61114f565b611131565b611113565b611053565b61102c565b610f77565b610ea0565b610dcd565b610daf565b610cf9565b610c75565b610be3565b610b8a565b610b34565b610a72565b610985565b61095f565b610938565b61090c565b610850565b610817565b6107e4565b6106bb565b61067e565b6105d8565b6105bc565b6104ef565b6104cc565b610490565b61035c565b610120810192916000915b6009831061034557505050565b600190825181526020809101920192019190610338565b60408060031936011261048b5780519061037582611b1b565b61012036833760ff600b541661047b576103946103906166bc565b1590565b61046b576103a1336167b4565b80156103e0575b156103d0576103c16103cc926024359060043590612502565b90519182918261032d565b0390f35b6004905163ea8e4eb560e01b8152fd5b50600460206104066103fa6000546001600160a01b031690565b6001600160a01b031690565b835192838092630536340960e21b82525afa90811561046657600091610438575b506001600160a01b031633146103a8565b610459915060203d811161045f575b6104518183611b8c565b810190611bae565b38610427565b503d610447565b611bc6565b60049051634ee2123760e11b8152fd5b600490516334c2d01160e11b8152fd5b600080fd5b3461048b57604036600319011261048b57600435600052602360205260206104be6024356040600020611bea565b90546040519160031b1c8152f35b3461048b57600036600319011261048b57602060ff600b54166040519015158152f35b3461048b57602036600319011261048b5761050b6103906166bc565b6105ab57610518336167b4565b8015610540575b1561052f57610016600435600c55565b600460405163ea8e4eb560e01b8152fd5b506004602061055a6103fa6000546001600160a01b031690565b60405192838092630536340960e21b82525afa9081156104665760009161058d575b506001600160a01b0316331461051f565b6105a5915060203d811161045f576104518183611b8c565b3861057c565b6004604051634ee2123760e11b8152fd5b3461048b57600036600319011261048b57602047604051908152f35b602036600319011261048b576105ef6103906166bc565b6105ab576105fc336167b4565b8015610613575b1561052f57610016600435612eb6565b506004602061062d6103fa6000546001600160a01b031690565b60405192838092630536340960e21b82525afa90811561046657600091610660575b506001600160a01b03163314610603565b610678915060203d811161045f576104518183611b8c565b3861064f565b3461048b57602036600319011261048b5760043560005260236020526020604060002054604051908152f35b6001600160a01b0381160361048b57565b3461048b5760208060031936011261048b576004356106d9816106aa565b6004826106f16103fa6000546001600160a01b031690565b60405192838092634bf9c0ad60e11b82525afa8015610466576107599261073d926000926107c1575b5061074b906040519384918783019190916001600160a01b036020820193169052565b03601f198101845283611b8c565b610753616847565b90616b91565b9190806107b7575b1561078d57818161077b926103cc945183010191016166a7565b60405190151581529081906020820190565b60046040517f3204506f000000000000000000000000000000000000000000000000000000008152fd5b5080825114610761565b61074b9192506107dd90863d881161045f576104518183611b8c565b919061071a565b3461048b57600036600319011261048b5760806107ff614620565b91604051938452602084015260408301526060820152f35b3461048b57600036600319011261048b57601354600881101561084b57601581015460408051928352602083019190915290f35b611842565b3461048b57602036600319011261048b576101e061086f6004356151f8565b60405190805182526020810151602083015260408101516040830152606081015160608301526080810151608083015260a081015160a083015260c081015160c083015260e081015160e0830152610100808201519083015261012080820151908301526101408082015190830152610160808201519083015261018080820151908301526101a080820151908301526101c08091015190820152f35b3461048b57602036600319011261048b57600435600052601e6020526020604060002054604051908152f35b3461048b57600036600319011261048b5760206001600160a01b0360005416604051908152f35b3461048b57600036600319011261048b57602060ff600b5460081c166040519015158152f35b3461048b57606036600319011261048b576004356109a2816106aa565b6024356109ae816106aa565b6001600160a01b03809216908115808015610a5e575b610a4657610a1c57610a0e916000938454826001600160a01b03198216178655167fe939feee179e631422bcc8f6e6d7d908cb3f8af38f5372f17c77e15aea5c80ee8580a3616959565b610a19604435600e55565b80f35b60046040517fe6c4247b000000000000000000000000000000000000000000000000000000008152fd5b6024604051635258db5f60e01b815260016004820152fd5b50838216156109c4565b8015150361048b57565b3461048b57602036600319011261048b57600435610a8f81610a68565b610a9a6103906166bc565b6105ab57610aa7336167b4565b8015610ac9575b1561052f576100169060ff8019600b54169115151617600b55565b5060046020610ae36103fa6000546001600160a01b031690565b60405192838092630536340960e21b82525afa90811561046657600091610b16575b506001600160a01b03163314610aae565b610b2e915060203d811161045f576104518183611b8c565b38610b05565b3461048b57602036600319011261048b5760043560005260208052608060406000208054906001810154906001600160a01b03600360028301549201541691604051938452602084015260408301526060820152f35b3461048b57600036600319011261048b576020601254604051908152f35b6020908160408183019282815285518094520193019160005b828110610bcf575050505090565b835185529381019392810192600101610bc1565b3461048b57600036600319011261048b576013546001810190818111610c7057610c0c8261662b565b91610c1a6040519384611b8c565b808352610c29601f199161662b565b0136602084013760005b81811115610c4957604051806103cc8582610ba8565b600881101561084b5780610c6b9160150154610c658286616693565b52611cdb565b610c33565b611cc5565b3461048b57600036600319011261048b576020600f54604051908152f35b6020908160408183019282815285518094520193019160005b828110610cba575050505090565b9091929382608082610ced6001948951606080918051845260208101516020850152604081015160408501520151910152565b01950193929101610cac565b3461048b57604036600319011261048b57600435602435808211610d9757818103908111610c705760018101809111610c7057610d3581616643565b9160005b828110610d4e57604051806103cc8682610c93565b80610d77610d72610d62610d92948661238c565b6000526022602052604060002090565b6165f9565b610d818287616693565b52610d8c8186616693565b50611cdb565b610d39565b6024604051635258db5f60e01b8152600d6004820152fd5b3461048b57600036600319011261048b576020600c54604051908152f35b3461048b5760a036600319011261048b57608435610dea81610a68565b610df56103906166bc565b6105ab57610e02336167b4565b8015610e35575b1561052f57610e2390606435604435602435600435613d56565b60408051928352602083019190915290f35b5060046020610e4f6103fa6000546001600160a01b031690565b60405192838092630536340960e21b82525afa90811561046657600091610e82575b506001600160a01b03163314610e09565b610e9a915060203d811161045f576104518183611b8c565b38610e71565b3461048b5760c036600319011261048b5760a435610ebd81610a68565b610ec86103906166bc565b6105ab57610ed5336167b4565b8015610f0c575b1561052f57610efc6103cc91608435606435604435602435600435613e89565b6040519081529081906020820190565b5060046020610f266103fa6000546001600160a01b031690565b60405192838092630536340960e21b82525afa90811561046657600091610f59575b506001600160a01b03163314610edc565b610f71915060203d811161045f576104518183611b8c565b38610f48565b3461048b57602036600319011261048b57600435610f94816106aa565b610f9f6103906166bc565b6105ab57610fac336167b4565b8015610fc1575b1561052f5761001690611d11565b5060046020610fdb6103fa6000546001600160a01b031690565b60405192838092630536340960e21b82525afa9081156104665760009161100e575b506001600160a01b03163314610fb3565b611026915060203d811161045f576104518183611b8c565b38610ffd565b3461048b57600036600319011261048b5760206001600160a01b0360015416604051908152f35b60a036600319011261048b5760043561106b816106aa565b6110766103906166bc565b6105ab57611083336167b4565b80156110a8575b1561052f57610e239060843590606435906044359060243590611d53565b50600460206110c26103fa6000546001600160a01b031690565b60405192838092630536340960e21b82525afa908115610466576000916110f5575b506001600160a01b0316331461108a565b61110d915060203d811161045f576104518183611b8c565b386110e4565b3461048b57600036600319011261048b576020601354604051908152f35b3461048b57600036600319011261048b576020600d54604051908152f35b3461048b57600036600319011261048b5760a061116a6149bb565b9260409291925194855260208501526040840152151560608301526080820152f35b3461048b57600036600319011261048b57600460206001600160a01b03600054166040519283809263d1f956b160e01b82525afa908115610466576103cc91610efc9160009161121c575b506040516111e481611b38565b601381527f67657464656c656761746f72436f756e7428290000000000000000000000000060208201526112166121cf565b91616cc4565b611234915060203d811161045f576104518183611b8c565b386111d7565b3461048b57604036600319011261048b5761125960243560043561620a565b60405190600090825b6007831061126f5760e084f35b600190825181526020809101920192019190611262565b3461048b57602036600319011261048b5760043560005260216020526020604060002054604051908152f35b3461048b57600036600319011261048b576020601054604051908152f35b3461048b57602036600319011261048b5760206112f76004356112f2816106aa565b6167b4565b6040519015158152f35b3461048b57600036600319011261048b576020600e54604051908152f35b3461048b57602036600319011261048b5760046001600160a01b03602061135082600054166001600160a01b031690565b60405193848092630536340960e21b82525afa91821561046657600092611386575b503391160361052f57610016600435616a32565b61139f91925060203d811161045f576104518183611b8c565b9038611372565b3461048b57600036600319011261048b576020601d54604051908152f35b3461048b57602036600319011261048b5760206113eb6004356113e6816106aa565b616e3b565b6001600160a01b0360405191168152f35b3461048b57604036600319011261048b5760243561141981610a68565b6114246103906166bc565b6105ab57611431336167b4565b8015611449575b1561052f5761001690600435611bd2565b50600460206114636103fa6000546001600160a01b031690565b60405192838092630536340960e21b82525afa90811561046657600091611496575b506001600160a01b03163314611438565b6114ae915060203d811161045f576104518183611b8c565b38611485565b60208060031936011261048b57600490813560ff600b5416611814576114d86124b3565b6000926114ef6103fa85546001600160a01b031690565b91818460409485519283809263ab6e844f60e01b82525afa9081156104665786916117f7575b50611526611521616880565b600255565b61155361154e60025461154861153a61221b565b611542612233565b86616cc4565b9061226c565b601d55565b611569601d54600052601e602052604060002090565b5461158361157561221b565b61157d61228c565b84616cc4565b036117da576103e7600052602360205260016115c17f7fb7114ab0bc53b2ffb5bc944cbd8d7055958c60a568e4224480a10dedf18cb95b5460011690565b148061179c575b61177f5783518581018381526115f592906115e790839060200161073d565b6115ef612c26565b90616cc4565b340361175b5761160f6103fa86546001600160a01b031690565b835191858385817f1b4fc17b00000000000000000000000000000000000000000000000000000000958682525afa9081156104665761165c6116749288958a9161173e575b5034906169d6565b61166f61166a34875461238c565b600455565b600555565b61168c61167f6149bb565b5092505050600254611c43565b6116a06103fa87546001600160a01b031690565b9284518094819382525afa908115610466577f1517c86fcf2bfb8e3468afcc539b0004955da8027797c497ea51d1f1094ab898938592611721575b505060025491513381526001600160a01b039190911660208201526000604082015234606082015260808101919091526103e860a082015260c090a1610a196001600355565b6117379250803d1061045f576104518183611b8c565b38806116db565b6117559150863d881161045f576104518183611b8c565b38611654565b5061177b915191829163cdab4c8760e01b83528201906009602083019252565b0390fd5b8351635258db5f60e01b8152600681850190815281906020010390fd5b50600e5484518681019182526117d2916117c49082906020015b03601f198101835282611b8c565b6117cc6121e2565b83616c3f565b3115156115c8565b835163cdab4c8760e01b8152600581850190815281906020010390fd5b61180e9150853d871161045f576104518183611b8c565b38611515565b826040516334c2d01160e11b8152fd5b3461048b57600036600319011261048b576020601454604051908152f35b634e487b7160e01b600052603260045260246000fd5b600881101561084b5760150190600090565b3461048b57602036600319011261048b57600435600881101561048b5760209060150154604051908152f35b3461048b57602036600319011261048b576118af61305d565b506004356000526022602052608060406000206003604051916118d183611ade565b8054835260018101546020840152600281015460408401520154606082015261191b6040518092606080918051845260208101516020850152604081015160408501520151910152565bf35b3461048b57602036600319011261048b5760043561193a81610a68565b6119456103906166bc565b6105ab57611952336167b4565b8015611967575b1561052f5761001690611cea565b50600460206119816103fa6000546001600160a01b031690565b60405192838092630536340960e21b82525afa908115610466576000916119b4575b506001600160a01b03163314611959565b6119cc915060203d811161045f576104518183611b8c565b386119a3565b3461048b5760208060031936011261048b57600480356119f1816106aa565b6001600160a01b03928084600054166040519485809263d1f956b160e01b82525afa908115610466576103cc9461077b94600093611a4d575b506040519316818401528252611a3f82611b38565b611a47616920565b90616c88565b611a65919350823d841161045f576104518183611b8c565b9138611a2a565b3461048b57600036600319011261048b5760206112f76166bc565b3461048b57600036600319011261048b576020601154604051908152f35b3461048b57600036600319011261048b576020611ac0616880565b604051908152f35b634e487b7160e01b600052604160045260246000fd5b6080810190811067ffffffffffffffff821117611afa57604052565b611ac8565b6060810190811067ffffffffffffffff821117611afa57604052565b610120810190811067ffffffffffffffff821117611afa57604052565b6040810190811067ffffffffffffffff821117611afa57604052565b6020810190811067ffffffffffffffff821117611afa57604052565b60e0810190811067ffffffffffffffff821117611afa57604052565b90601f8019910116810190811067ffffffffffffffff821117611afa57604052565b9081602091031261048b5751611bc3816106aa565b90565b6040513d6000823e3d90fd5b90611be891611bdf616880565b80600255611c97565b565b805482101561084b5760005260206000200190600090565b9081549168010000000000000000831015611afa5782611c2a916001611be895018155611bea565b90919082549060031b91821b91600019901b1916179055565b6103e760005260236020526040600020918254801580611c8f575b611c895760019115611c7e571615611c75575b5050565b611be891611c02565b811614611c75575050565b50505050565b508115611c5e565b9060005260236020526040600020918254801580611c8f57611c895760019115611c7e571615611c75575050565b634e487b7160e01b600052601160045260246000fd5b6000198114610c705760010190565b15611cff57611cfa601454611cdb565b601455565b6014548015610c705760001901601455565b6001600160a01b03811615611d2957611be890616959565b60046040517fab8a0360000000000000000000000000000000000000000000000000000000008152fd5b9394929491909160ff600b54166120f557611d6c6124b3565b611d77611521616880565b6103e760005260236020526001611dad7f7fb7114ab0bc53b2ffb5bc944cbd8d7055958c60a568e4224480a10dedf18cb96115ba565b1480612106575b6120f557611dc4610390866167b4565b611d2957600490611de06103fa6000546001600160a01b031690565b602060409182519485809263cfbffe5360e01b82525afa928315610466576000936120d5575b50600292611e1d61154e855461154861153a61221b565b601d54611e3481600052601e602052604060002090565b54611e4e611e4061221b565b611e4861228c565b85616cc4565b1180159061209f575b61208757611e6f90600052601e602052604060002090565b805460010190556001831497881561208057825160208101879052611ea390611e9b81604081016117b6565b61157d612337565b985b61202b575b889950600d989697985415612008575b600d54611ec690611cdb565b600d558686865499611ed6612199565b9a838c528260208d0152868c015260608b019a60008c52600d54611f039060005260208052604060002090565b90611f0d916123c4565b611f1693612c5f565b6001600160a01b0316808852600d546000908152602080526040902060030180546001600160a01b0319169091179055611f4e61221b565b611f5661240c565b611f5f92616cc4565b611f6990856124a0565b60065490611f769161238c565b600655611f8285612da7565b95611f8b6149bb565b5092505050845490611f9c91611c43565b51925490513381526001600160a01b03909316602084015260408301939093526060820193909352608081019190915260a08101919091527f1517c86fcf2bfb8e3468afcc539b0004955da8027797c497ea51d1f1094ab8989060c090a16120046001600355565b9190565b6120128554600f55565b61201c8554601055565b6120268554601155565b611eba565b600c54998961203a8c8361238c565b106120685761205a8a612055819d61205f949d9b9c9d61238c565b6123b7565b600c55565b97969597611eaa565b8351635258db5f60e01b815260056004820152602490fd5b8998611ea5565b825163cdab4c8760e01b815260016004820152602490fd5b506120b36120ab61221b565b61157d6122c5565b861080611e5757506120ce6120c661221b565b61157d6122fe565b8611611e57565b6120ee91935060203d811161045f576104518183611b8c565b9138611e06565b60046040516334c2d01160e11b8152fd5b50600460206121206103fa6000546001600160a01b031690565b6040519283809263ab6e844f60e01b82525afa908115610466576121739161073d9160009161217b575b50612165600e54604051938491602083019190602083019252565b61216d6121e2565b90616c3f565b311515611db4565b612193915060203d811161045f576104518183611b8c565b3861214a565b60405190611be882611ade565b60405190611be882611b70565b67ffffffffffffffff8111611afa57601f01601f191660200190565b604051906121dc82611b54565b60008252565b604051906121ef82611b38565b601882527f676574557365724964546f496e73742875696e743235362900000000000000006020830152565b60405161222781611b54565b60008152906000368137565b6040519061224082611b38565b600f82527f6d696e744379636c6544617973282900000000000000000000000000000000006020830152565b8115612276570490565b634e487b7160e01b600052601260045260246000fd5b6040519061229982611b38565b601282527f6d61784d696e74735065724379636c65282900000000000000000000000000006020830152565b604051906122d282611b38565b600c82527f6d696e4d696e74517479282900000000000000000000000000000000000000006020830152565b6040519061230b82611b38565b600c82527f6d61784d696e74517479282900000000000000000000000000000000000000006020830152565b6040519061234482611b38565b601982527f636f6d707574654d696e7456616c75652875696e7432353629000000000000006020830152565b6046019081604611610c7057565b9060018201809211610c7057565b91908201809211610c7057565b600019810191908211610c7057565b600119810191908211610c7057565b91908203918211610c7057565b60036001600160a01b036060611be8948051855560208101516001860155604081015160028601550151169101906001600160a01b03166001600160a01b0319825416179055565b6040519061241982611b38565b600f82527f6d696e74466565506572517479282900000000000000000000000000000000006020830152565b9061271091828102928184041490151715610c7057565b90601982029180830460191490151715610c7057565b9081606402916064830403610c7057565b90670de0b6b3a764000091828102928184041490151715610c7057565b81810292918115918404141715610c7057565b6002600354146124c4576002600355565b60046040517f3ee5aeb5000000000000000000000000000000000000000000000000000000008152fd5b604051906124fb82611b70565b60e0368337565b9061251592916125106124b3565b61264b565b906001600355565b6040519061252a82611b38565b601082527f65616368636c61696d4379636c652829000000000000000000000000000000006020830152565b6040519061256382611b38565b601082527f6d6178436c61696d5065724461792829000000000000000000000000000000006020830152565b6040519061259c82611b38565b601082527f6d696e436c61696d5065724461792829000000000000000000000000000000006020830152565b604051906125d582611b38565b601682527f6d6178476c6f62616c436c61696d5065724461792829000000000000000000006020830152565b6040519061260e82611b38565b601582527f67657477697468647261776e2875696e743235362900000000000000000000006020830152565b90600981101561084b5760051b0190565b9291838115612c205750600255600061266e6103fa82546001600160a01b031690565b90604091825192839163cfbffe5360e01b835282600460209687935afa918215610466578392612c01575b506126a26149bb565b5097925050506126b56002968754611c43565b60326126e48754600f54936126ca818661238c565b821115612bfa576126dc91508461238c565b925b836123b7565b11612bf2576126f290614daf565b61271161270861270061221b565b611e4861251d565b6010549061238c565b8554101561272a575b5050505050611be8611521616880565b61273d61273561221b565b61157d612556565b91612746614620565b6001600052601f602052909760039693509150876128a86128776128466128156127f66127c58c7f820fef5837650fa3b8e45045b88059d8deaf0810350ec511c47ef768a28c2c9b01546002600052601f6020528d7f5af4fb70d755f38349f04272636124ff9474fedf9ea09deea577daa305383b105b01549061238c565b6003600052601f6020528c7f9e71908050462d95d85d10ec71f33c35476f5af9a2363ff3b4f561b1ea6200506127bd565b6004600052601f6020528b600080516020616e9d8339815191526127bd565b6005600052601f6020528a7f8f7baaeb89fd2366535b48ed7d56321470a1399e8ab1b2456eb79477a77d951b6127bd565b6006600052601f602052897fb59afb99c4de88e28b26eef6d7a02f582ab97b4ec5fdb5cf1f0116f112f13bde6127bd565b6007600052601f602052887f5b3e240a505832e5e6c9a7abee1f9f8788f1ffd3b8bbc82bdedad1079d3734a66127bd565b82612bbe575b6128b8925061238c565b926128d26128c461221b565b6128cc61258f565b83616cc4565b8410156128e3575b5050505061271a565b6128fa6004916128f161221b565b906115ef6125c8565b91806129106103fa8a546001600160a01b031690565b87519384809263ab6e844f60e01b82525afa801561046657612954928991612ba1575b508a54875192830190815261294c90839060200161073d565b6115ef612601565b1015612b8a5780821115612b825761296b916123b7565b92600192835b6007811115612a0d57505050505090816129c49392821180612a04575b6129e1575b506129d2575b60085460e08501526009546101008501526129b46000600855565b6129be6000600955565b54601055565b3880808080808080806128da565b6129dc8154601155565b612999565b6129f96129f16129fe92846123b7565b600a546123b7565b600a55565b38612993565b5081151561298e565b81612a2282600052601f602052604060002090565b015486612b015790612afc9186612a4383600052601f602052604060002090565b01612a4f82825461238c565b90558484612a6784600052601f602052604060002090565b0155612a7b612a7583612399565b8d61263a565b525b7f1517c86fcf2bfb8e3468afcc539b0004955da8027797c497ea51d1f1094ab898612aaa612a7583612399565b518a5490612af4612aba85612370565b895193849333859094939260a0926001600160a01b0360c08401971683526000602084015260006040840152606083015260808201520152565b0390a1611cdb565b612971565b86811115612b665790612b1787612afc936123b7565b9686612b2d83600052601f602052604060002090565b01612b3989825461238c565b905583612b5083600052601f602052604060002090565b01558396612b60612a7583612399565b52612a7d565b612b7490612afc92976123b7565b9583612b60612a7583612399565b50508261296b565b825163cdab4c8760e01b8152600480820152602490fd5b612bb89150823d841161045f576104518183611b8c565b38612933565b612bcd6129f984600a5461238c565b828110612be6576128b892612be1916123b7565b6128ae565b506128b89150876128ae565b505050505050565b50926126de565b612c19919250843d861161045f576104518183611b8c565b9038612699565b93505050565b60405190612c3382611b38565b601d82527f636f6d70757465446f6c6c6172546f4f7a6f6e652875696e74323536290000006020830152565b612ce292612cd3916103fa936001600160a01b039687600154169360025492604051957fc85700fb000000000000000000000000000000000000000000000000000000006020880152602487015260448601526064850152608484015260a483015260a48252612cce82611b70565b616d88565b60208082518301019101611bae565b90811615612ced5790565b604051635258db5f60e01b815260026004820152602490fd5b60405190612d1382611b38565b600682527f706f6f6c282900000000000000000000000000000000000000000000000000006020830152565b908160e091031261048b5780519160208201519160408101519160608201519160808101519160c060a083015192015190565b91909160008382019384129112908015821691151617610c7057565b81810392916000138015828513169184121617610c7057565b6004906020612dc16103fa6000546001600160a01b031690565b6040519384809263cfbffe5360e01b82525afa801561046657612e86612e5c612e47612e81612e4c612e3c611548612e2c612e1d612e4199611bc39c600091612e98575b50612e0e61221b565b90612e17612d06565b90616b66565b60208082518301019101612d3f565b9e8f9b969e9498929591506124a0565b6124a0565b936124a0565b612445565b94612e6c612e5c8260025461238c565b6000526021602052604060002090565b612e77878254612d72565b905560025461238c565b61238c565b612e91828254612d8e565b90556124a0565b612eb0915060203d811161045f576104518183611b8c565b38612e05565b612ec790612ec26124b3565b61333f565b6001600355565b60405190612edb82611b38565b601382527f55736572546f496e7374286164647265737329000000000000000000000000006020830152565b60405190612f1482611b38565b600b82527f6d696e74436f756e7428290000000000000000000000000000000000000000006020830152565b60405190612f4d82611b38565b600e82527f6d696e74732875696e74323536290000000000000000000000000000000000006020830152565b60405190612f8682611b38565b600b82527f6d696e74656441676528290000000000000000000000000000000000000000006020830152565b60405190612fbf82611b38565b600b82527f6d696e74656471747928290000000000000000000000000000000000000000006020830152565b60405190612ff882611b38565b600c82527f6964732875696e743235362900000000000000000000000000000000000000006020830152565b6040519061303182611b38565b600982527f6d696e74416d74282900000000000000000000000000000000000000000000006020830152565b6040519061306a82611ade565b60006060838281528260208201528260408201520152565b6040519061308f82611b38565b600a82527f647261776e6167652829000000000000000000000000000000000000000000006020830152565b604051906130c882611b38565b600c82527f4c53422875696e743235362900000000000000000000000000000000000000006020830152565b6040519061310182611b38565b600782527f647261776e2829000000000000000000000000000000000000000000000000006020830152565b91908260c091031261048b5781519160208101519160408201519160608101519160a0608083015192015190565b6040519061316882611b38565b601382527f67657452657761726473286164647265737329000000000000000000000000006020830152565b919082604091031261048b576020825192015190565b604051906131b782611b38565b600782527f626f6e75732829000000000000000000000000000000000000000000000000006020830152565b604051906131f082611b38565b600682527f63616765282900000000000000000000000000000000000000000000000000006020830152565b6040519061322982611b38565b601982527f67657445666665637469766552616e6b286164647265737329000000000000006020830152565b6040519061326282611b38565b601f82527f6765746e6f646572616e6b61676528616464726573732c75696e7432353629006020830152565b6040519061329b82611b38565b601082527f6765744e6f6465286164647265737329000000000000000000000000000000006020830152565b908160a091031261048b5780519160208201516132e3816106aa565b91604081015191608060608301516132fa81610a68565b920151611bc381610a68565b6040519061331382611b38565b601a82527f77697468647261776e496e636f6d654f662861646472657373290000000000006020830152565b600b5460081c60ff16613d5357600460206133656103fa6000546001600160a01b031690565b6040519283809263111ea8c160e21b82525afa90811561046657600091613d34575b506133c86117b66133c06133a36001546001600160a01b031690565b604080516001600160a01b03909216602083015290928391820190565b6117cc612ece565b916001600160a01b03831615613d105760058111613cf7576133f36133eb61221b565b611e48612f07565b90600d54613401818361238c565b831115613cef576134119161238c565b81613934575b5080600d541490811561392b575b5061342e575050565b61344961344461343c61221b565b611e48613082565b601255565b60125491600f92835481116138de575b5061348561347661346861221b565b6134706130f4565b84616b66565b6020808251830101910161312d565b9460016134a39592959493946001600052601f602052604060002090565b01557f5af4fb70d755f38349f04272636124ff9474fedf9ea09deea577daa305383b11557f9e71908050462d95d85d10ec71f33c35476f5af9a2363ff3b4f561b1ea620051557f44ef42eef5af19d25d4e44ae57c825e0d0624b9f37f2474ab961410a0aa29600557fb59afb99c4de88e28b26eef6d7a02f582ab97b4ec5fdb5cf1f0116f112f13bdf557f5b3e240a505832e5e6c9a7abee1f9f8788f1ffd3b8bbc82bdedad1079d3734a7556000805260226020527fb84cf808d0d5b1ad44962c9bfddd3cfce67763c49ab557cfd0e9f6804faade9a5461358c906135879061245c565b600655565b6135d36135c46040516135b6816117b686602083019190916001600160a01b036020820193169052565b6135be61315b565b85616b66565b60208082518301019101613194565b601f6020527f820fef5837650fa3b8e45045b88059d8deaf0810350ec511c47ef768a28c2c9b919091556004600052600080516020616e9d8339815191525561362861205a61362061221b565b61157d6131aa565b61363e61344461363661221b565b61157d6131e3565b613675613670604051613668816117b686602083019190916001600160a01b036020820193169052565b611e4861321c565b601355565b60005b838111156137e957506136cb6136bc61073d600495946136b46136e295604051938491602083019190916001600160a01b036020820193169052565b612e1761328e565b602080825183010191016132c7565b935050505060ff8019600b54169115151617600b55565b60206136f96103fa6000546001600160a01b031690565b604051938480927f6325dd040000000000000000000000000000000000000000000000000000000082525afa80156104665761073d613779916137ab946000916137ca575b506137716137546001546001600160a01b031690565b604080516001600160a01b03909216602083015290938491820190565b6115ef613306565b6005600052601f6020527f8f7baaeb89fd2366535b48ed7d56321470a1399e8ab1b2456eb79477a77d951c5554601055565b6137b6600254601155565b611be861010061ff0019600b541617600b55565b6137e3915060203d60201161045f576104518183611b8c565b3861373e565b8061380291613851575b60135481111561380757611cdb565b613678565b604080516001600160a01b038516602082015290810182905261384c906138439061383581606081016117b6565b61383d613255565b87616cc4565b611c2a83611858565b611cdb565b6040517f5329daca0000000000000000000000000000000000000000000000000000000060208201526001600160a01b0384166024820152604481018290526138ab906135c4906138a581606481016117b6565b86616d88565b906138c0836000526022602052604060002090565b5560016138d7836000526022602052604060002090565b01556137f3565b600f5561390f6117b6613901601254604051928391602083019190602083019252565b6139096130bb565b83616d00565b61392484546000526021602052604060002090565b5538613459565b90501538613425565b6000805260226020527fb84cf808d0d5b1ad44962c9bfddd3cfce67763c49ab557cfd0e9f6804faade99547fb84cf808d0d5b1ad44962c9bfddd3cfce67763c49ab557cfd0e9f6804faade9a54909590949391929091905b600d5484811015613ca2576139a36139a891611cdb565b600d55565b6139d66117b66139c8600d54604051928391602083019190602083019252565b6139d0612f40565b87616c3f565b6139ec6115216139e461221b565b61157d612f79565b613a9e613a026139fa61221b565b61157d612fb2565b98613a27604051613a1f816117b660208201906000602083019252565b611e48612feb565b98613a44613a3e613a3661221b565b61383d613024565b94616e3b565b6020613a5b6103fa6000546001600160a01b031690565b6040517fcfaa1f6c0000000000000000000000000000000000000000000000000000000081526001600160a01b0390931660048401529194859081906024820190565b0381845afa93841561046657600094613c81575b506001600160a01b03841615613c0f575b50613ad0610390846167b4565b611d29578a928484613ae061305d565b93828552816020860152600295865460408701528386600d54613b0c9060005260208052604060002090565b90613b16916123c4565b613b1f9161238c565b9e613b299161238c565b9c613b3393612c5f565b600d54613b499060005260208052604060002090565b60030190613b6c91906001600160a01b03166001600160a01b0319825416179055565b613b7584612da7565b50600d5460011493613bbb6060613bf8937f1517c86fcf2bfb8e3468afcc539b0004955da8027797c497ea51d1f1094ab89897613c00575b01516001600160a01b031690565b9254604080513381526001600160a01b03909516602086015284019490945260608301526080820192909252600060a082015290819060c0820190565b0390a161398c565b613c0a8654600f55565b613bad565b6040517fb771c89600000000000000000000000000000000000000000000000000000000815260006004820152919350602090829060249082905afa90811561046657600091613c62575b509138613ac3565b613c7b915060203d60201161045f576104518183611b8c565b38613c5a565b613c9b91945060203d60201161045f576104518183611b8c565b9238613ab2565b50925092939094613cbd600080526022602052604060002090565b556000805260226020527fb84cf808d0d5b1ad44962c9bfddd3cfce67763c49ab557cfd0e9f6804faade9a5538613417565b505080613411565b60405163cdab4c8760e01b815260036004820152602490fd5b505050613d1e613444616880565b613d29601254600f55565b6137b6601254601055565b613d4d915060203d60201161045f576104518183611b8c565b38613387565b50565b919394929460009560009580613d6e575b5050505050565b6013549750949550919390928315613ddd576001613dbf83613dc893613dad613da5613dcf9a976000526022602052604060002090565b91825461238c565b90556000526022602052604060002090565b0191825461238c565b90556143aa565b601354903880808080613d67565b908060005260226020526040600020908154928303928311610c7057600192613e1192556000526022602052604060002090565b01928354908103908111610c7057613dcf93556143aa565b60405190613e3682611b38565b601482527f6c6576656c436c617573652875696e74323536290000000000000000000000006020830152565b908160a091031261048b578051916020820151916040810151916080606083015192015190565b9194929092600092613ea56103fa85546001600160a01b031690565b9360405196879563cfbffe5360e01b875286600460209889935afa9788156104665782986141f2575b50613ee3896000526022602052604060002090565b613eee84825461238c565b90556001613f068a6000526022602052604060002090565b01613f1288825461238c565b90556000805260226020527fb84cf808d0d5b1ad44962c9bfddd3cfce67763c49ab557cfd0e9f6804faade99541515806141e9575b613f5b575b50505050505050505060135490565b613f9f8996613f9261073d613faf9a159b613f8a8d159b8c6141db575b60405186810191825293849160200190565b612e17613e29565b8051810182019101613e62565b979294919a9098601254906123b7565b109182156141ce575b50816141c5575b5015613f4c5760039661402396156141bc57611548613fe1613fe793866124a0565b91612472565b965b156141b25750613fe1613fff93611548926124a0565b935b6002614017826000526022602052604060002090565b01613dad85825461238c565b0161402f83825461238c565b90556001600081905260236020526140667fb361aea33a0348d043deace4a562cb920ac10508397ad80f12dfe9a2a063e0476115ba565b148015614175575b614138575b506004600052602360205260016140a97f33b8220312bcdd418636a962462731c74cfa4e2d018a461116daf7a4f539e35d6115ba565b1480156140fb575b6140d0575b506140c261167f6149bb565b388080808080808080613f4c565b6004600052601f6020526140f36002600080516020616e9d833981519152613dbf565b9055386140b6565b506103e7600052602360205260016141327f7fb7114ab0bc53b2ffb5bc944cbd8d7055958c60a568e4224480a10dedf18cb96115ba565b146140b1565b6001600052601f60205261416d60027f820fef5837650fa3b8e45045b88059d8deaf0810350ec511c47ef768a28c2c9b613dbf565b905538614073565b506103e7600052602360205260016141ac7f7fb7114ab0bc53b2ffb5bc944cbd8d7055958c60a568e4224480a10dedf18cb96115ba565b1461406e565b9250505093614001565b50508096613fe9565b90501538613fbf565b6013541015915038613fb8565b6141e48c61424a565b613f78565b50881515613f47565b61420a919850863d881161045f576104518183611b8c565b9638613ece565b6040519061421e82611b38565b601382527f72616e6b436c617573652875696e7432353629000000000000000000000000006020830152565b61425f6103fa6000546001600160a01b031690565b604091825180809363cfbffe5360e01b8252602091829160049485915afa9384156104665760009461438b575b5060139061429a825461237e565b600881106142ab5750505050505050565b6142e46142d688516142c8816117b6868883019190602083019252565b6142d0614211565b89616b66565b838082518301019101613e62565b5050509081158015614383575b6143665790614317929160145410159081614344575b5080614332575b61431c57611cdb565b61429a565b61432581601355565b61384c86611c2a83611858565b50835461433e82612399565b1461430e565b9050600161435c836000526022602052604060002090565b0154101538614307565b8851635258db5f60e01b8152600381880190815281906020010390fd5b5080156142f1565b816143a39295503d861161045f576104518183611b8c565b923861428c565b906143c06103fa6000546001600160a01b031690565b9160409283518093819263cfbffe5360e01b8352602092839160049586915afa9485156104665760009561455e575b501561446e57601390614402825461237e565b600881106144135750505050505050565b6144306142d688516142c8816117b6868883019190602083019252565b5050509081158015614466575b61436657906144619291601454101590816143445750806143325761431c57611cdb565b614402565b50801561443d565b91509160009493945b6013548111614556576144b36144a5875161449d816117b6868983019190602083019252565b6135be614211565b848082518301019101613e62565b5050509082151580614546575b61452957906144e5929160145410159081614507575b50156144ea5761384c81601355565b614477565b61384c6144f682611858565b8154906000199060031b1b19169055565b9050600161451f836000526022602052604060002090565b01541015386144d6565b8751635258db5f60e01b8152600481880190815281906020010390fd5b508115806144c0575080156144c0565b505050509050565b614576919550823d841161045f576104518183611b8c565b93386143ef565b6040519061458a82611b38565b600782527f7661756c742829000000000000000000000000000000000000000000000000006020830152565b919082608091031261048b578151916020810151916060604083015192015190565b604051906145e582611b38565b601d82527f636f6d707574654f7a6f6e65546f446f6c6c61722875696e74323536290000006020830152565b9081602091031261048b575190565b6000806146386103fa6000546001600160a01b031690565b9160405193849363cfbffe5360e01b855284600460209788935afa93841561046657600094614909575b506147cb6147996147676147476147156146e36146b1600161468f6001600052601f602052604060002090565b01546004600052601f6020526001600080516020616e9d8339815191526127bd565b6002600052601f60205260017f5af4fb70d755f38349f04272636124ff9474fedf9ea09deea577daa305383b106127bd565b6003600052601f60205260017f9e71908050462d95d85d10ec71f33c35476f5af9a2363ff3b4f561b1ea6200506127bd565b6001600052601f60205260037f820fef5837650fa3b8e45045b88059d8deaf0810350ec511c47ef768a28c2c9b6127bd565b6004600052601f6020526003600080516020616e9d8339815191526127bd565b6002600052601f60205260037f5af4fb70d755f38349f04272636124ff9474fedf9ea09deea577daa305383b106127bd565b60036000819052601f6020527f9e71908050462d95d85d10ec71f33c35476f5af9a2363ff3b4f561b1ea6200506127bd565b946147f66147e86147da61221b565b6147e261457d565b88616b66565b8280825183010191016145b6565b614808600299949954601154906123b7565b11806148fe575b6148c4575b506000905087156148bf575061485461484660405161483e816117b68c8883019190602083019252565b6134706145d8565b838082518301019101614611565b61486961486482986006546124a0565b612483565b90801515806148b6575b61487d5750505050565b6148ac94955091614897613f7861073d9361489f956123b7565b612e17612c26565b8051810182019101614611565b9038808080611c89565b50818111614873565b614854565b6148e79196506148e0906148db600a5498896124a0565b61226c565b6064900490565b948086116148f6575b80614814565b9450386148f0565b50600a54151561480f565b614921919450853d871161045f576104518183611b8c565b9238614662565b6040519061493582611b38565b600982527f63617070696e67282900000000000000000000000000000000000000000000006020830152565b908160e091031261048b57805191602082015161497d81610a68565b91604081015161498c81610a68565b91606082015161499b81610a68565b9160808101516149aa81610a68565b9160c060a08301516132fa81610a68565b600090600460206149d76103fa6000546001600160a01b031690565b6040519283809263cfbffe5360e01b82525afa90811561046657614a2791614a1891600091614d91575b50614a0a614928565b614a126121cf565b91616b66565b60208082518301019101614961565b6000805260226020529396949092909190614a6f614a66887fb84cf808d0d5b1ad44962c9bfddd3cfce67763c49ab557cfd0e9f6804faade99546124a0565b976004546124a0565b97614a78616157565b94614d89575b50614d1f575b614cb7575b614ca6575b50614c01575b614ab7575b828410614ab057614aaa83856123b7565b82811191565b6000614aaa565b6006600052601f60205292614bfb90614bf5614bc3614b91614b5f614b2d60017fb59afb99c4de88e28b26eef6d7a02f582ab97b4ec5fdb5cf1f0116f112f13bde5b01546006600052601f60205260027fb59afb99c4de88e28b26eef6d7a02f582ab97b4ec5fdb5cf1f0116f112f13bde6127bd565b6006600052601f60205260037fb59afb99c4de88e28b26eef6d7a02f582ab97b4ec5fdb5cf1f0116f112f13bde6127bd565b6007600052601f60205260017f5b3e240a505832e5e6c9a7abee1f9f8788f1ffd3b8bbc82bdedad1079d3734a66127bd565b6007600052601f60205260027f5b3e240a505832e5e6c9a7abee1f9f8788f1ffd3b8bbc82bdedad1079d3734a66127bd565b6007600052601f60205260037f5b3e240a505832e5e6c9a7abee1f9f8788f1ffd3b8bbc82bdedad1079d3734a66127bd565b9061238c565b92614a99565b6005600052601f60205293614ca090614bf5614c6e60017f8f7baaeb89fd2366535b48ed7d56321470a1399e8ab1b2456eb79477a77d951b5b01546005600052601f60205260027f8f7baaeb89fd2366535b48ed7d56321470a1399e8ab1b2456eb79477a77d951b6127bd565b6005600052601f60205260037f8f7baaeb89fd2366535b48ed7d56321470a1399e8ab1b2456eb79477a77d951b6127bd565b93614a94565b614cb0919661238c565b9438614a8e565b6003600052601f6020527f9e71908050462d95d85d10ec71f33c35476f5af9a2363ff3b4f561b1ea620051549097614d1991614bf5906147999060027f9e71908050462d95d85d10ec71f33c35476f5af9a2363ff3b4f561b1ea6200506127bd565b96614a89565b60026000819052601f6020527f5af4fb70d755f38349f04272636124ff9474fedf9ea09deea577daa305383b11549199614d83929091614bf591614767917f5af4fb70d755f38349f04272636124ff9474fedf9ea09deea577daa305383b106127bd565b97614a84565b995038614a7e565b614da9915060203d811161045f576104518183611b8c565b38614a01565b611be8906150c76150c2614dc2836151f8565b80516001600052601f6020526150b9906150b490600390614e03827f820fef5837650fa3b8e45045b88059d8deaf0810350ec511c47ef768a28c2c9b613dbf565b905560608401516004600052601f602052614e2c82600080516020616e9d833981519152613dbf565b90556020848101516002600052601f909152614e68827f5af4fb70d755f38349f04272636124ff9474fedf9ea09deea577daa305383b10613dbf565b90556040840180516003600052601f602052909190614ea7827f9e71908050462d95d85d10ec71f33c35476f5af9a2363ff3b4f561b1ea620050613dbf565b905560808501516005600052601f602052614ee2827f8f7baaeb89fd2366535b48ed7d56321470a1399e8ab1b2456eb79477a77d951b613dbf565b905560a08501516006600052601f602052614f1d827fb59afb99c4de88e28b26eef6d7a02f582ab97b4ec5fdb5cf1f0116f112f13bde613dbf565b905560c08501516007600052601f60205290614f59907f5b3e240a505832e5e6c9a7abee1f9f8788f1ffd3b8bbc82bdedad1079d3734a6613dbf565b905561010084015160026000819052601f602052614f97907f5af4fb70d755f38349f04272636124ff9474fedf9ea09deea577daa305383b10613dbf565b9055610120840180516003600052601f60205290946101c091614fdb60027f9e71908050462d95d85d10ec71f33c35476f5af9a2363ff3b4f561b1ea620050613dbf565b90556101608101516005600052601f60205261501860027f8f7baaeb89fd2366535b48ed7d56321470a1399e8ab1b2456eb79477a77d951b613dbf565b90556101808101516006600052601f60205261505560027fb59afb99c4de88e28b26eef6d7a02f582ab97b4ec5fdb5cf1f0116f112f13bde613dbf565b90556101a08101516007600052601f60205261509260027f5b3e240a505832e5e6c9a7abee1f9f8788f1ffd3b8bbc82bdedad1079d3734a6613dbf565b905501516150aa886000526021602052604060002090565b555160085461238c565b600855565b5160095461238c565b600955565b600f55565b604051906101e0820182811067ffffffffffffffff821117611afa57604052816101c06000918281528260208201528260408201528260608201528260808201528260a08201528260c08201528260e08201528261010082015282610120820152826101408201528261016082015282610180820152826101a08201520152565b6040519061515a82611b38565b600a82527f73687574646f776e2829000000000000000000000000000000000000000000006020830152565b6040519061519382611b38565b601182527f696e636f6d654f662861646472657373290000000000000000000000000000006020830152565b604051906151cc82611b38565b601482527f636f6d70757465546f75722875696e74323536290000000000000000000000006020830152565b906152016150cc565b916152176103fa6000546001600160a01b031690565b6040519163ab6e844f60e01b8352602083600481855afa928315610466576000936158da575b506040519163cfbffe5360e01b8352602083600481845afa908115610466576020936000926158b6575b508360049186896153e461528b61527c61514d565b6152846121cf565b9089616c88565b97615328615297616157565b60608601528085526153226152f060016152bc6001600052601f602052604060002090565b01546001600052601f60205260037f820fef5837650fa3b8e45045b88059d8deaf0810350ec511c47ef768a28c2c9b6127bd565b6001600052601f60205260027f820fef5837650fa3b8e45045b88059d8deaf0810350ec511c47ef768a28c2c9b6127bd565b906123b7565b835260608301516004600052601f6020527f44ef42eef5af19d25d4e44ae57c825e0d0624b9f37f2474ab961410a0aa296005461539e91906153229061537e906003600080516020616e9d8339815191526127bd565b6004600052601f6020526002600080516020616e9d8339815191526127bd565b60608401526103e76000526023602052888860016153db7f7fb7114ab0bc53b2ffb5bc944cbd8d7055958c60a568e4224480a10dedf18cb96115ba565b149c8d93615b12565b9c94909d9295936101c08893980152610100820152015260001461587157505061073d61542491612165600e546040519384918883019190602083019252565b3160408a01525b604051928380927f52b06d640000000000000000000000000000000000000000000000000000000082525afa9081156104665761548c9161073d91600091615852575b506154846137546001546001600160a01b031690565b6115ef615186565b6005600052601f6020526154c4614c6e60017f8f7baaeb89fd2366535b48ed7d56321470a1399e8ab1b2456eb79477a77d951b614c3a565b90816080890152818111600014615844576154e591506080880151906123b7565b60808701526004601354600281101580615805575b6157d7575b101580615774575b615743575b5061572e575b61570b575b61551d57565b6155256149bb565b505091505061553a835160208501519061238c565b61556661555b615550604087019384519061238c565b60608701519061238c565b60808601519061238c565b9061557760a086019283519061238c565b9261558860c087019485519061238c565b90808211615597575050505050565b6155a0916123b7565b8551818111156156f957506155b69086516123b7565b855260005b6020860151818111156156e457506155d79060208701516123b7565b602086015260005b8151818111156156d157506155f59082516123b7565b905260005b6060850151818111156156bc57506156169060608601516123b7565b606085015260005b6080850151818111156156a7575061563a9060808601516123b7565b608085015260005b81518181111561569457506156589082516123b7565b905260005b81518181111561568057506156739082516123b7565b90525b3880808080613d67565b61568d90600093926123b7565b5052615676565b6156a0906000926123b7565b915261565d565b6156b0916123b7565b60006080860152615642565b6156c5916123b7565b6000606086015261561e565b6156dd906000926123b7565b91526155fa565b6156ed916123b7565b600060208701526155df565b615702916123b7565b600086526155bb565b600060a08401805161018086015252600060c0840180516101a086015252615517565b60808401805161016086015260009052615512565b61576990604051906157618261073d60208201906004602083019252565b6115ef6151bf565b60c08601523861550c565b506007600052601f6020527f5b3e240a505832e5e6c9a7abee1f9f8788f1ffd3b8bbc82bdedad1079d3734a7546157d190614bc39060027f5b3e240a505832e5e6c9a7abee1f9f8788f1ffd3b8bbc82bdedad1079d3734a66127bd565b15615507565b6157fb6040516157f3816117b660208201906002602083019252565b611e486151bf565b60a08901526154ff565b506006600052601f60205261583e614b2d60017fb59afb99c4de88e28b26eef6d7a02f582ab97b4ec5fdb5cf1f0116f112f13bde614af9565b156154fa565b61584d916123b7565b6154e5565b61586b915060203d60201161045f576104518183611b8c565b3861546e565b89156158a557505061073d61589991612165600e546040519384918883019190602083019252565b316101208a015261542b565b60408c01526101208b01525061542b565b60049192506158d28591823d841161045f576104518183611b8c565b929150615267565b6158f491935060203d60201161045f576104518183611b8c565b913861523d565b604051906040820182811067ffffffffffffffff821117611afa5760405260006020838281520152565b6040519060a0820182811067ffffffffffffffff821117611afa576040528161594c6158fb565b81526159566158fb565b60208201526159636158fb565b60408201526159706158fb565b6060820152608061597f6158fb565b910152565b6040519061599182611b38565b601882527f6765744261746368526f79616c7479436c6175736573282900000000000000006020830152565b6102a090818184031261048b5782601f8201121561048b5760408051936159e385611b70565b849383019281841161048b57935b838510615a0057505050505090565b60608583031261048b578251606091615a1882611aff565b86518252602091828801518382015285880151868201528152019401936159f1565b60405190615a4782611b38565b601f82527f676574526f79616c697479416d6f756e7442617463682875696e7432353629006020830152565b9060e08282031261048b5780601f8301121561048b5760405191615a9683611b70565b829060e0810192831161048b57905b828210615ab25750505090565b8151815260209182019101615aa5565b90600781101561084b5760051b0190565b8181029291600082127f8000000000000000000000000000000000000000000000000000000000000000821416610c70578184051490151715610c7057565b93909194600095600095600095600095600095615bb1615ba2615b33615925565b96615b3d87615e6b565b895190602082015252615b4f87615f32565b60208a015190602082015252615b6487615fbd565b60408a015190602082015252615b798761605f565b60608a015190602082015252615b8e876160db565b60808a015190602082015252614a0a615984565b602080825183010191016159bd565b92600f54601354905b868110615be0575050505050506020608081606085015101518311159301510151101591565b615c16615c07604051615bff816117b686602083019190602083019252565b6147e2615a3a565b60208082518301019101615a73565b6001905b83821115615d41575050821580615d39575b615c3f575b615c3a90611cdb565b615bba565b615c5e615c56826000526021602052604060002090565b54809d612d72565b9b615c6982896123b7565b9060009160408b015180518b8110615ce3575b5050808311615cdb575b82615c90916123b7565b9180615cc5575b5081615ca5575b5050615c31565b9b615cb7615cbd92615c3a949e615ad3565b90612d72565b9a9038615c9e565b9b615cb7829d615cd493615ad3565b9a38615c97565b915081615c86565b80861115615d305750602085915b01615cfc815161237e565b8c1015615d2157508a5b81811115615c7c57615d199294506123b7565b913880615c7c565b615d2b905161237e565b615d06565b60209091615cf1565b508315615c2c565b909d8e615d56615d5082612399565b8a615ac2565b515115908115615e0a575b50615e0057895180518410159081615df1575b508015615dca575b15615dae57615da28f91615d9b615d95615da894612399565b85615ac2565b519061238c565b9e611cdb565b90615c1a565b9d9e8f615da891615d9b615d95615dc493612399565b9f611cdb565b5060208a015180518410159081615de2575b50615d7c565b60209150015183111538615ddc565b60209150015183111538615d74565b9d615da890611cdb565b9050615e22615e1882611858565b90549060031b1c90565b8410159081615e34575b50158f615d61565b615e6291506040615e59615e53615e4d615e1885611858565b93612399565b8c615ac2565b5101519061238c565b8311158f615e2c565b6103e7600081905260236020527f7fb7114ab0bc53b2ffb5bc944cbd8d7055958c60a568e4224480a10dedf18cb980549392908415615f2a5760018516615f0f5750506000526023602052615e18615ed06040600020615eca856123a8565b90611bea565b90546103e7600052602360205260039190911b1c92615eca7f7fb7114ab0bc53b2ffb5bc944cbd8d7055958c60a568e4224480a10dedf18cb991612399565b9093615f1f9250615eca90612399565b90549060031b1c9190565b509250508190565b6002600090815260236020527f1bcb44d21c67d5659cdd5f45cd32c6d6c6d33d5044115600c6652ecd87939c098054919392908215615f2a5760018316615fae575050615e1890600284526023602052615eca6040615f96818720615eca856123a8565b90549060031b1c956002815260236020522091612399565b909350615eca615f1f92612399565b6003600081815260236020527fca0574cb82515dd8d8feabc9bfece9b4778855cddef4d6e8f68e64178480ff7e8054919493908215616056576001831661603e575050616036908285526023602052615eca6040616020818820615eca856123a8565b905490861b1c9685815260236020522091612399565b9054911b1c90565b909450615eca61604d92612399565b9054911b1c9190565b50935050508190565b6005600090815260236020527f704c3cd83e5804c028f2befbf48b95f696630c4191faa77498f0bcf394fbc1a88054919392908215615f2a5760018316615fae575050615e1890600584526023602052615eca60406160c3818720615eca856123a8565b90549060031b1c956005815260236020522091612399565b6006600090815260236020527fc218e2b733cf67303336f21ce058ad7b82d7ff580c18755103b33fa70179f5f88054919392908215615f2a5760018316615fae575050615e1890600684526023602052615eca604061613f818720615eca856123a8565b90549060031b1c956006815260236020522091612399565b600090816001815b600f8211156161c45750506001600052601f6020527f820fef5837650fa3b8e45045b88059d8deaf0810350ec511c47ef768a28c2c9b548101809111610c70576004600052601f60205291611bc390600080516020616e9d833981519152549061238c565b9093848252602292602093808552604090600282862001548301809311610c70576003929588865252832001548101809111610c70576162049094611cdb565b9061615f565b9190916162156124ee565b928115616557576001821461651857600282146163da576003821461636d576004821461632c5761626c90616248616880565b90600f54616256828261238c565b83111561632557616267925061238c565b6151f8565b90600581146162d65760061461627f5750565b9091506101a061628d6121a6565b9160e08101518352610100810151602084015261012081015160408401526101408101516060840152610160810151608084015261018081015160a0840152015160c082015290565b5090915060c06162e46121a6565b91805183526020810151602084015260408101516040840152606081015160608401526080810151608084015260a081015160a0840152015160c082015290565b50506151f8565b505090506163386121a6565b600a54815260065460208201526007546040820152601154606082015260006080820152600060a0820152600060c082015290565b505090506163796121a6565b60045481526005546020820152600854604082015260095460608201526163ab6001600052601f602052604060002090565b5460808201526004600052601f602052600080516020616e9d8339815191525460a0820152600060c082015290565b505090506163e66121a6565b6001600052601f6020526003807f820fef5837650fa3b8e45045b88059d8deaf0810350ec511c47ef768a28c2c9b5b015482527f5af4fb70d755f38349f04272636124ff9474fedf9ea09deea577daa305383b108101546020808401919091527f9e71908050462d95d85d10ec71f33c35476f5af9a2363ff3b4f561b1ea62005082015460408401526004600052601f90526001600080516020616e9d8339815191525b015460608301527f8f7baaeb89fd2366535b48ed7d56321470a1399e8ab1b2456eb79477a77d951b81015460808301527fb59afb99c4de88e28b26eef6d7a02f582ab97b4ec5fdb5cf1f0116f112f13bde81015460a08301526007600052601f6020527f5b3e240a505832e5e6c9a7abee1f9f8788f1ffd3b8bbc82bdedad1079d3734a6015460c082015290565b505090506165246121a6565b6001600052601f6020526002807f820fef5837650fa3b8e45045b88059d8deaf0810350ec511c47ef768a28c2c9b616415565b505090506165636121a6565b7f820fef5837650fa3b8e45045b88059d8deaf0810350ec511c47ef768a28c2c9c5481527f5af4fb70d755f38349f04272636124ff9474fedf9ea09deea577daa305383b11546020808301919091527f9e71908050462d95d85d10ec71f33c35476f5af9a2363ff3b4f561b1ea6200515460408301526004600052601f9052600180600080516020616e9d83398151915261648a565b9060405161660681611ade565b6060600382948054845260018101546020850152600281015460408501520154910152565b67ffffffffffffffff8111611afa5760051b60200190565b9061664d8261662b565b61665a6040519182611b8c565b828152809261666b601f199161662b565b019060005b82811061667c57505050565b60209061668761305d565b82828501015201616670565b805182101561084b5760209160051b010190565b9081602091031261048b5751611bc381610a68565b6001600160a01b03600054166040518091634bf9c0ad60e11b825281600460209485935afa8015610466576167379160009161675e575b5060405161670081611b38565b600881527f6973536166652829000000000000000000000000000000000000000000000000848201526167316121cf565b91616b91565b9080616754575b1561078d5781611bc392825183010191016166a7565b508181511461673e565b6167759150833d851161045f576104518183611b8c565b386166f3565b6040519061678882611b38565b601582527f69735365637572654261736528616464726573732900000000000000000000006020830152565b6167c96103fa6000546001600160a01b031690565b906040518092634bf9c0ad60e11b825281600460209586935afa8015610466576167379261073d92600092616824575b5061681c906040519384918783019190916001600160a01b036020820193169052565b61075361677b565b61681c91925061684090863d881161045f576104518183611b8c565b91906167f9565b6040519061685482611b38565b601182527f69735369676e65722861646472657373290000000000000000000000000000006020830152565b600460206001600160a01b03600054166040519283809263111ea8c160e21b82525afa801561046657611bc391600091616902575b506040516168c281611b38565b600581527f61676528290000000000000000000000000000000000000000000000000000006020820152604051916168f983611b54565b60008352616cc4565b61691a915060203d811161045f576104518183611b8c565b386168b5565b6040519061692d82611b38565b601882527f697364656c656761746f724e6f646528616464726573732900000000000000006020830152565b6001600160a01b03809116908115610a1c57600154826001600160a01b0319821617600155167f8292fce18fa69edf4db7b94ea2e58241df0ae57f97e0a6c9b29067028bf92d76600080a3565b3d156169d1573d906169b7826121b3565b916169c56040519384611b8c565b82523d6000602084013e565b606090565b908015611c71576001600160a01b038216918215610a1c57600080808481945af16169ff6169a6565b501561078d5760207fcec1f18c3ab8ddaaa107a1591e3c369667eec613626611a8deaedef43069fcdd91604051908152a2565b6000616a486103fa82546001600160a01b031690565b9060405180927f46f991ac00000000000000000000000000000000000000000000000000000000825281600460209586935afa80156104665782808681949382948391616b49575b505af1616a9b6169a6565b501561078d57600482616ab86103fa84546001600160a01b031690565b604051928380927f5e09dbe70000000000000000000000000000000000000000000000000000000082525afa908115610466577fcdcc745fe377b103b45fa0cec23ae3ef93d6fc6a84a01f0d18c40b354dd1d5d8936001600160a01b039392616b2c575b50506040519384521691602090a2565b616b429250803d1061045f576104518183611b8c565b3880616b1c565b616b609150883d8a1161045f576104518183611b8c565b38616a90565b90616b719291616b91565b9060009015616b7e575090565b6040519150616b8c82611b54565b815290565b9190823b15616c26577fffffffff00000000000000000000000000000000000000000000000000000000815160208093012016916040519180830193845281519160005b838110616c12575050509181616c0260248260009795968897018783820152036004810184520182611b8c565b51915afa616c0e6169a6565b9091565b818101830151858201602401528201616bd5565b505050600090604051616c3881611b54565b6000815290565b9291616c4d91600094616b91565b9080616c7d575b616c5b5750565b6001600160a01b0391925080602080616c7993518301019101611bae565b1690565b506020815114616c54565b9291616c9691600094616b91565b9080616cb9575b616ca45750565b611bc3919250602080825183010191016166a7565b506020815114616c9d565b9291616cd291600094616b91565b9080616cf5575b616ce05750565b611bc391925060208082518301019101614611565b506020815114616cd9565b9291616d0e91600094616b91565b9080616d33575b616d1c5750565b90915060208180518101031261048b576020015190565b506020815114616d15565b90602082519201517fffffffff00000000000000000000000000000000000000000000000000000000908181169360048110616d7957505050565b60040360031b82901b16169150565b6001600160a01b03811615610a1c57600080918351908260208601915af190616daf6169a6565b9115616db9575090565b805160009190600411616e3557616dd09150616d3e565b815115616de05750805190602001fd5b6040517f21c09d340000000000000000000000000000000000000000000000000000000081527fffffffff00000000000000000000000000000000000000000000000000000000919091166004820152602490fd5b50616dd0565b803b6000616e48826121b3565b92616e566040519485611b8c565b82845260208401903c602d815110616e7257602a015160601c90565b60046040517fbaf3f0f7000000000000000000000000000000000000000000000000000000008152fdfe44ef42eef5af19d25d4e44ae57c825e0d0624b9f37f2474ab961410a0aa295ffa264697066735822122000ddec5521d795c476658067816f326c40630998f3c43e859f8091cd8ed5750c64736f6c63430008140033","linkReferences":{}},"methodIdentifiers":{"Burn(uint256)":"b90306ad","BurnCoin(uint256)":"ce6e73ac","LSB(uint256)":"a98bf4f9","_compute(uint256)":"2c2838e8","_delegatorCount()":"a1f7f539","_getImplementation(address)":"c54e44b0","_importOld(uint256)":"141ca660","_isDelegatorNode(address)":"e01ad5fd","_isSafe()":"e0a9bc2b","_isSecureBase(address)":"af484526","_isSigner(address)":"1f185d16","_txnType7(uint256,uint256)":"02a085f2","_txnType_1_0(address,uint256,uint256,uint256,uint256)":"932ca2d6","addLevelnGetRank(uint256,uint256,uint256,uint256,uint256,bool)":"822ffec4","bonus()":"75b4d78c","cage()":"69245009","capStatus()":"a1531545","currentCycle()":"bab2f552","dage()":"725b6fff","directsCount()":"d2a15904","getAllIncome(uint256,uint256)":"a20199ac","getBalance()":"12065fe0","getHexbase()":"3b9b7955","getNodeLB(uint256)":"da021335","getNodeLvlInfoBatch(uint256,uint256)":"759f22bd","getRankAgeInBatch()":"6de97c66","getRankWithAgeValue()":"29ee350e","getToggleAgeCount(uint256)":"143ec3b7","getToggleAgeValue(uint256,uint256)":"043719b4","id()":"af640d0f","isLock()":"09d8da2e","mintCount()":"9659867e","mints(uint256)":"6350b2c2","moveLvlIncome(uint256,uint256,uint256,uint256,bool)":"7b058ac1","owner()":"8da5cb5b","postInit()":"4a65786c","preinit(address,address,uint256)":"52902c59","rank()":"934209ce","rankage(uint256)":"d3a1a499","setBonus(uint256)":"0b98f975","setLock(bool)":"619d5194","setSuspend(uint256,bool)":"c8ef7b1a","setdirect(bool)":"deb1ba1e","systemAge()":"fdc10bc9","updateOwner(address)":"880cdc31","userCycleMintCount(uint256)":"39b4d61b","vaultStatus()":"24a8166e","voultDage()":"e164980c","withdrawlDage()":"a9bf285b"},"id":52}