{"abi":[{"type":"constructor","inputs":[{"name":"_hex","type":"address","internalType":"address"}],"stateMutability":"nonpayable"},{"type":"fallback","stateMutability":"payable"},{"type":"receive","stateMutability":"payable"},{"type":"function","name":"Burn","inputs":[{"name":"amount","type":"uint256","internalType":"uint256"}],"outputs":[],"stateMutability":"nonpayable"},{"type":"function","name":"BurnCoin","inputs":[{"name":"_dollar","type":"uint256","internalType":"uint256"},{"name":"maxinterwal","type":"uint256","internalType":"uint256"}],"outputs":[],"stateMutability":"payable"},{"type":"function","name":"LSB","inputs":[{"name":"","type":"uint256","internalType":"uint256"},{"name":"","type":"uint256","internalType":"uint256"}],"outputs":[{"name":"","type":"int256","internalType":"int256"}],"stateMutability":"view"},{"type":"function","name":"TVL","inputs":[],"outputs":[{"name":"","type":"uint256","internalType":"uint256"}],"stateMutability":"view"},{"type":"function","name":"_delegatorCount","inputs":[],"outputs":[{"name":"","type":"uint256","internalType":"uint256"}],"stateMutability":"view"},{"type":"function","name":"_getImplementation","inputs":[{"name":"clone","type":"address","internalType":"address"}],"outputs":[{"name":"impl","type":"address","internalType":"address"}],"stateMutability":"view"},{"type":"function","name":"_isDelegatorNode","inputs":[{"name":"sender","type":"address","internalType":"address"}],"outputs":[{"name":"","type":"bool","internalType":"bool"}],"stateMutability":"view"},{"type":"function","name":"_isSafe","inputs":[],"outputs":[{"name":"","type":"bool","internalType":"bool"}],"stateMutability":"view"},{"type":"function","name":"_isSecureBase","inputs":[{"name":"sender","type":"address","internalType":"address"}],"outputs":[{"name":"","type":"bool","internalType":"bool"}],"stateMutability":"view"},{"type":"function","name":"_isSigner","inputs":[{"name":"sender","type":"address","internalType":"address"}],"outputs":[{"name":"","type":"bool","internalType":"bool"}],"stateMutability":"view"},{"type":"function","name":"_txnType107","inputs":[{"name":"_maxint","type":"uint256","internalType":"uint256"},{"name":"_ag","type":"uint256","internalType":"uint256"}],"outputs":[{"name":"net","type":"uint256","internalType":"uint256"},{"name":"_self","type":"uint256","internalType":"uint256"},{"name":"_selfflush","type":"uint256","internalType":"uint256"}],"stateMutability":"payable"},{"type":"function","name":"_txnType_101_100","inputs":[{"name":"paramAdd","type":"address","internalType":"address"},{"name":"_id_maxint","type":"uint256","internalType":"uint256"},{"name":"_qty","type":"uint256","internalType":"uint256"},{"name":"_msgValue","type":"uint256","internalType":"uint256"},{"name":"_type","type":"uint256","internalType":"uint256"},{"name":"_ag","type":"uint256","internalType":"uint256"}],"outputs":[{"name":"_tvl","type":"uint256","internalType":"uint256"},{"name":"_amt","type":"uint256","internalType":"uint256"}],"stateMutability":"payable"},{"type":"function","name":"activedirectsCount","inputs":[],"outputs":[{"name":"","type":"uint256","internalType":"uint256"}],"stateMutability":"view"},{"type":"function","name":"addLevelnGetRank","inputs":[{"name":"_amount","type":"uint256","internalType":"uint256"},{"name":"_qty","type":"uint256","internalType":"uint256"},{"name":"_level","type":"uint256","internalType":"uint256"},{"name":"_epochAge","type":"uint256","internalType":"uint256"},{"name":"_free","type":"uint256","internalType":"uint256"},{"name":"_tobeSkipped","type":"bool","internalType":"bool"}],"outputs":[{"name":"currentrnk","type":"uint256","internalType":"uint256"}],"stateMutability":"nonpayable"},{"type":"function","name":"bonus","inputs":[],"outputs":[{"name":"","type":"uint256","internalType":"uint256"}],"stateMutability":"view"},{"type":"function","name":"cage","inputs":[],"outputs":[{"name":"","type":"uint256","internalType":"uint256"}],"stateMutability":"view"},{"type":"function","name":"currentCycle","inputs":[],"outputs":[{"name":"","type":"uint256","internalType":"uint256"}],"stateMutability":"view"},{"type":"function","name":"currentLSBversion","inputs":[],"outputs":[{"name":"","type":"uint256","internalType":"uint256"}],"stateMutability":"view"},{"type":"function","name":"dage","inputs":[],"outputs":[{"name":"","type":"uint256","internalType":"uint256"}],"stateMutability":"view"},{"type":"function","name":"getAllComputeData","inputs":[{"name":"maxinterwal","type":"uint256","internalType":"uint256"}],"outputs":[{"name":"cr","type":"tuple","internalType":"struct InstanceStorTypes.ComputeResult","components":[{"name":"p1","type":"uint256","internalType":"uint256"},{"name":"p2","type":"uint256","internalType":"uint256"},{"name":"p3","type":"uint256","internalType":"uint256"},{"name":"p4","type":"uint256","internalType":"uint256"},{"name":"p5","type":"uint256","internalType":"uint256"},{"name":"p6","type":"uint256","internalType":"uint256"},{"name":"p7","type":"uint256","internalType":"uint256"},{"name":"f1","type":"uint256","internalType":"uint256"},{"name":"f2","type":"uint256","internalType":"uint256"},{"name":"f3","type":"uint256","internalType":"uint256"},{"name":"f4","type":"uint256","internalType":"uint256"},{"name":"f5","type":"uint256","internalType":"uint256"},{"name":"f6","type":"uint256","internalType":"uint256"},{"name":"f7","type":"uint256","internalType":"uint256"},{"name":"lsb","type":"int256","internalType":"int256"},{"name":"totInc","type":"uint256","internalType":"uint256"},{"name":"thresholdx","type":"uint256","internalType":"uint256"},{"name":"totIncdollar","type":"uint256","internalType":"uint256"},{"name":"thresholdollarx","type":"uint256","internalType":"uint256"},{"name":"minpay","type":"uint256","internalType":"uint256"},{"name":"minpaydollar","type":"uint256","internalType":"uint256"},{"name":"cap","type":"bool","internalType":"bool"},{"name":"capinc","type":"bool","internalType":"bool"},{"name":"capdollar","type":"bool","internalType":"bool"}]}],"stateMutability":"view"},{"type":"function","name":"getAllData","inputs":[{"name":"typeId","type":"uint256","internalType":"uint256"},{"name":"maxinterwal","type":"uint256","internalType":"uint256"}],"outputs":[{"name":"values","type":"uint256[7]","internalType":"uint256[7]"}],"stateMutability":"view"},{"type":"function","name":"getBalance","inputs":[],"outputs":[{"name":"","type":"uint256","internalType":"uint256"}],"stateMutability":"view"},{"type":"function","name":"getHexbase","inputs":[],"outputs":[{"name":"","type":"address","internalType":"address"}],"stateMutability":"view"},{"type":"function","name":"getNodeLB","inputs":[{"name":"_level","type":"uint256","internalType":"uint256"}],"outputs":[{"name":"","type":"tuple","internalType":"struct InstanceStorTypes.LevelInfoStr","components":[{"name":"lvlbs","type":"uint256","internalType":"uint256"},{"name":"lvlqty","type":"uint256","internalType":"uint256"},{"name":"lvlrwrd","type":"uint256","internalType":"uint256"},{"name":"lvlyei","type":"uint256","internalType":"uint256"}]}],"stateMutability":"view"},{"type":"function","name":"getNodeLvlInfoBatch","inputs":[{"name":"from","type":"uint256","internalType":"uint256"},{"name":"to","type":"uint256","internalType":"uint256"}],"outputs":[{"name":"info","type":"tuple[]","internalType":"struct InstanceStorTypes.LevelInfoStr[]","components":[{"name":"lvlbs","type":"uint256","internalType":"uint256"},{"name":"lvlqty","type":"uint256","internalType":"uint256"},{"name":"lvlrwrd","type":"uint256","internalType":"uint256"},{"name":"lvlyei","type":"uint256","internalType":"uint256"}]}],"stateMutability":"view"},{"type":"function","name":"getRankAgeInBatch","inputs":[],"outputs":[{"name":"rankagebatch","type":"uint256[]","internalType":"uint256[]"}],"stateMutability":"view"},{"type":"function","name":"getRankWithAgeValue","inputs":[],"outputs":[{"name":"","type":"uint256","internalType":"uint256"},{"name":"","type":"uint256","internalType":"uint256"}],"stateMutability":"view"},{"type":"function","name":"getToggleAgeCount","inputs":[{"name":"key","type":"uint256","internalType":"uint256"}],"outputs":[{"name":"","type":"uint256","internalType":"uint256"}],"stateMutability":"view"},{"type":"function","name":"getToggleAgeValue","inputs":[{"name":"key","type":"uint256","internalType":"uint256"},{"name":"index","type":"uint256","internalType":"uint256"}],"outputs":[{"name":"","type":"uint256","internalType":"uint256"}],"stateMutability":"view"},{"type":"function","name":"id","inputs":[],"outputs":[{"name":"","type":"uint256","internalType":"uint256"}],"stateMutability":"view"},{"type":"function","name":"importOld","inputs":[{"name":"limit","type":"uint256","internalType":"uint256"}],"outputs":[],"stateMutability":"payable"},{"type":"function","name":"isLock","inputs":[],"outputs":[{"name":"","type":"bool","internalType":"bool"}],"stateMutability":"view"},{"type":"function","name":"mintCount","inputs":[],"outputs":[{"name":"","type":"uint256","internalType":"uint256"}],"stateMutability":"view"},{"type":"function","name":"mints","inputs":[{"name":"","type":"uint256","internalType":"uint256"}],"outputs":[{"name":"amt","type":"uint256","internalType":"uint256"},{"name":"qty","type":"uint256","internalType":"uint256"},{"name":"mage","type":"uint256","internalType":"uint256"},{"name":"nft","type":"address","internalType":"address"}],"stateMutability":"view"},{"type":"function","name":"moveLvlIncome","inputs":[{"name":"_amount","type":"uint256","internalType":"uint256"},{"name":"_qty","type":"uint256","internalType":"uint256"},{"name":"_level","type":"uint256","internalType":"uint256"},{"name":"_epochAge","type":"uint256","internalType":"uint256"},{"name":"_op","type":"bool","internalType":"bool"}],"outputs":[{"name":"lastrnk","type":"uint256","internalType":"uint256"},{"name":"currentrnk","type":"uint256","internalType":"uint256"}],"stateMutability":"nonpayable"},{"type":"function","name":"owner","inputs":[],"outputs":[{"name":"","type":"address","internalType":"address"}],"stateMutability":"view"},{"type":"function","name":"postInit","inputs":[],"outputs":[{"name":"","type":"bool","internalType":"bool"}],"stateMutability":"view"},{"type":"function","name":"preinit","inputs":[{"name":"_hex","type":"address","internalType":"address"},{"name":"_own","type":"address","internalType":"address"},{"name":"_id","type":"uint256","internalType":"uint256"},{"name":"isnew","type":"bool","internalType":"bool"}],"outputs":[],"stateMutability":"nonpayable"},{"type":"function","name":"rank","inputs":[],"outputs":[{"name":"","type":"uint256","internalType":"uint256"}],"stateMutability":"view"},{"type":"function","name":"resetRank","inputs":[],"outputs":[],"stateMutability":"nonpayable"},{"type":"function","name":"setActivedirect","inputs":[{"name":"addremove","type":"bool","internalType":"bool"}],"outputs":[],"stateMutability":"nonpayable"},{"type":"function","name":"setBonus","inputs":[{"name":"b","type":"uint256","internalType":"uint256"}],"outputs":[],"stateMutability":"nonpayable"},{"type":"function","name":"setLock","inputs":[{"name":"flag","type":"bool","internalType":"bool"}],"outputs":[],"stateMutability":"nonpayable"},{"type":"function","name":"setSuspend","inputs":[{"name":"key","type":"uint256","internalType":"uint256"},{"name":"value","type":"bool","internalType":"bool"}],"outputs":[],"stateMutability":"nonpayable"},{"type":"function","name":"setcapclaim","inputs":[{"name":"claimcap","type":"uint256","internalType":"uint256"},{"name":"claicapmdollar","type":"uint256","internalType":"uint256"},{"name":"_tvl","type":"uint256","internalType":"uint256"},{"name":"action","type":"bool","internalType":"bool"}],"outputs":[],"stateMutability":"nonpayable"},{"type":"function","name":"storcache","inputs":[],"outputs":[],"stateMutability":"nonpayable"},{"type":"function","name":"syncBaseAddr","inputs":[],"outputs":[],"stateMutability":"nonpayable"},{"type":"function","name":"systemAge","inputs":[],"outputs":[{"name":"","type":"uint256","internalType":"uint256"}],"stateMutability":"view"},{"type":"function","name":"updateOwner","inputs":[{"name":"_newowner","type":"address","internalType":"address"}],"outputs":[],"stateMutability":"nonpayable"},{"type":"function","name":"userCycleMintCount","inputs":[{"name":"","type":"uint256","internalType":"uint256"}],"outputs":[{"name":"","type":"uint256","internalType":"uint256"}],"stateMutability":"view"},{"type":"function","name":"withdrawlDage","inputs":[],"outputs":[{"name":"","type":"uint256","internalType":"uint256"}],"stateMutability":"view"},{"type":"event","name":"CapReset","inputs":[{"name":"invested","type":"uint256","indexed":false,"internalType":"uint256"},{"name":"claimed","type":"uint256","indexed":false,"internalType":"uint256"},{"name":"claimedDollar","type":"uint256","indexed":false,"internalType":"uint256"},{"name":"investedDollar","type":"uint256","indexed":false,"internalType":"uint256"},{"name":"burned","type":"uint256","indexed":false,"internalType":"uint256"},{"name":"burnedDollar","type":"uint256","indexed":false,"internalType":"uint256"},{"name":"ag","type":"uint256","indexed":false,"internalType":"uint256"}],"anonymous":false},{"type":"event","name":"EthBurned","inputs":[{"name":"sender","type":"address","indexed":true,"internalType":"address"},{"name":"amount","type":"uint256","indexed":false,"internalType":"uint256"}],"anonymous":false},{"type":"event","name":"EthTransferred","inputs":[{"name":"to","type":"address","indexed":true,"internalType":"address"},{"name":"amount","type":"uint256","indexed":false,"internalType":"uint256"}],"anonymous":false},{"type":"event","name":"HexBaseUpdated","inputs":[{"name":"previousHexBase","type":"address","indexed":true,"internalType":"address"},{"name":"newHexBase","type":"address","indexed":true,"internalType":"address"}],"anonymous":false},{"type":"event","name":"LogTxns","inputs":[{"name":"from","type":"address","indexed":false,"internalType":"address"},{"name":"orc1155","type":"address","indexed":false,"internalType":"address"},{"name":"_amt","type":"uint256","indexed":false,"internalType":"uint256"},{"name":"_value","type":"uint256","indexed":false,"internalType":"uint256"},{"name":"_time","type":"uint256","indexed":false,"internalType":"uint256"},{"name":"_type","type":"uint256","indexed":false,"internalType":"uint256"}],"anonymous":false},{"type":"event","name":"OwnerUpdated","inputs":[{"name":"previousOwner","type":"address","indexed":true,"internalType":"address"},{"name":"newOwner","type":"address","indexed":true,"internalType":"address"}],"anonymous":false},{"type":"error","name":"CallFailed","inputs":[]},{"type":"error","name":"InvalidAddress","inputs":[]},{"type":"error","name":"InvalidState","inputs":[]},{"type":"error","name":"NotAuthorized","inputs":[]},{"type":"error","name":"NotSafe","inputs":[]},{"type":"error","name":"ReentrancyGuardReentrantCall","inputs":[]},{"type":"error","name":"TargetCallFailed","inputs":[{"name":"selector","type":"bytes4","internalType":"bytes4"}]}],"bytecode":{"object":"0x608034620000c357601f62005e2138819003918201601f19168301916001600160401b03831184841017620000c857808492602094604052833981010312620000c357516001600160a01b03811690819003620000c3578015620000b15760018060a01b031990338260015416176001556000918254161781556001600d5580600e5580600f55806010558060115580601255806013558060145580601555601655604051615d429081620000df8239f35b60405163e6c4247b60e01b8152600490fd5b600080fd5b634e487b7160e01b600052604160045260246000fdfe60806040526004361015610018575b361561001657005b005b60003560e01c8063043719b41461034857806309d8da2e146103435780630b98f9751461033e57806312065fe0146103395780631296412014610334578063143ec3b71461032f5780631f185d161461032a5780632697a77a1461032557806329ee350e14610320578063339459a61461031b57806339b4d61b146103165780633b9b79551461031157806343a1b5ab1461030c57806347a09a1d146103075780634a65786c146103025780635ecf6a8a146102fd578063619d5194146102f85780636350b2c2146102f357806369245009146102ee5780636de97c66146102e95780636f493aad146102e4578063711e5870146102df578063725b6fff146102da578063759f22bd146102d557806375b4d78c146102d0578063799e4c45146102cb5780637b058ac1146102c6578063822ffec4146102c157806387acdff7146102bc578063880cdc31146102b75780638da5cb5b146102b2578063934209ce146102ad5780639659867e146102a8578063a1c25c86146102a3578063a1f7f5391461029e578063a5d7cda414610299578063a9bf285b14610294578063ab57c03a1461028f578063af4845261461028a578063af640d0f14610285578063b90306ad14610280578063b9f1a3941461027b578063bab2f55214610276578063c54e44b014610271578063c8ef7b1a1461026c578063d3abb8a314610267578063da02133514610262578063e01ad5fd1461025d578063e0a9bc2b14610258578063edaf2d2e146102535763fdc10bc90361000e5761211d565b6120ff565b6120e4565b61201d565b611fb6565b611f5a565b611e64565b611e2b565b611e0d565b611cac565b611bc4565b611ba6565b611b75565b611b5c565b611b3e565b611895565b61182b565b6117a4565b611786565b611768565b61173f565b6116e3565b6112df565b610fb7565b610ea8565b610e8a565b610e6c565b610d88565b610cff565b610c85565b610c4b565b610bbd565b610b64565b610b0d565b610aa5565b610a8c565b610a66565b610992565b610974565b61094b565b6108ff565b61071a565b6106e3565b61059e565b6104cd565b610484565b61043b565b61041f565b6103ac565b610389565b3461038457604036600319011261038457600435600052603560205260206103766024356040600020612658565b90546040519160031b1c8152f35b600080fd5b3461038457600036600319011261038457602060ff601754166040519015158152f35b34610384576020366003190112610384576103c561584d565b1561040d576103d3336158bf565b80156103f9575b156103e757600435601855005b60405163ea8e4eb560e01b8152600490fd5b506005546001600160a01b031633146103da565b604051634ee2123760e11b8152600490fd5b3461038457600036600319011261038457602047604051908152f35b34610384576040366003190112610384576104576004356150aa565b60405190600090825b6007831061046d5760e084f35b600190825181526020809101920192019190610460565b346103845760203660031901126103845760043560005260356020526020604060002054604051908152f35b6001600160a01b031690565b6001600160a01b0381160361038457565b3461038457602080600319360112610384576105406004356104ee816104bc565b6002546040516001600160a01b0392831685820152848152911661051182612169565b6040519061051e82612169565b601182527069735369676e657228616464726573732960781b85830152615a86565b91908061058a575b156105785781816105629261057494518301019101615838565b60405190151581529081906020820190565b0390f35b604051633204506f60e01b8152600490fd5b5080825114610548565b8015150361038457565b34610384576080366003190112610384576004356105bb816104bc565b602435906105c8826104bc565b606435916105d583610594565b60405163ab6e844f60e01b81526001600160a01b039083821690602081600481855afa80156106cd57839160009161069f575b501633036103e75715908115610694575b506106825761062a61063792615216565b6106326124a9565b61597d565b610642604435601a55565b61064857005b610658610653615940565b601d55565b610663601d54601b55565b61066e601d54601c55565b61001661010061ff00196017541617601755565b60405163baf3f0f760e01b8152600490fd5b905081161538610619565b6106c0915060203d81116106c6575b6106b881836121bb565b8101906121de565b38610608565b503d6106ae565b6121f6565b908152602081019190915260400190565b3461038457600036600319011261038457601e54600881101561071557806020015490610574604051928392836106d2565b612642565b346103845760003660031901126103845761001661549a565b6000526034602052604060002090565b6000805260346020527f2dc2afdad33a5feea586a9545052327b65d28efb10d11fa69e77da986a1031cd90565b6103e76000526035602052600080516020615ced83398151915290565b600160005260306020527fc7874712a1c7fb891b421aa6c0d42dbf3cd912d7a18f183783fb32e938cbaa0190565b600460005260306020527f2f780f5a40ea4901ca784926540b83b7459f13a98fc8f78e5634eb2a01df3af590565b600052602a602052604060002090565b6000526031602052604060002090565b6000526033602052604060002090565b600260005260306020527f89a47dfbb363dd4e64da56b4585033c9abd8a425d24b94630469c44bee7189c290565b600360005260306020527f11a30d68d5ffd3a101d3683e9a6997d49d9351e95dc004c6a4e652b897626df790565b600660005260306020527fd558ed0e54509c62efb2aedb46e6ad1b04c7bdca351e3613e136c946b91686d890565b600760005260306020527f4ebb69666752feecd656ebf5f8cd3c2f1c70bb06a0c3d3744be479e4a580c23390565b600560005260306020527f9d0b70a39d4b3569f175af8ea51ae318eac80460c467ee4a16ee63ec5720706e90565b3461038457602036600319011261038457600435600052602a6020526020604060002054604051908152f35b6001600160a01b03169052565b6001600160a01b03909116815260200190565b34610384576000366003190112610384576000546040516001600160a01b039091168152602090f35b34610384576000366003190112610384576020603254604051908152f35b34610384576080366003190112610384576044356024356004356064356109b881610594565b6109c061584d565b1561040d576109ce336158bf565b8015610a52575b156103e75715610a1b5791610a0e610a09610a1693610a016109fc6100169760115461277b565b601155565b60145461277b565b601455565b60285461277b565b602855565b601154908103908111610a4d57601155601454908103908111610a4d57601455602854908103908111610a4d57602855005b6126f0565b506005546001600160a01b031633146109d5565b3461038457600036600319011261038457602060ff60175460081c166040519015158152f35b34610384576000366003190112610384576100166124a9565b3461038457602036600319011261038457600435610ac281610594565b610aca61584d565b1561040d57610ad8336158bf565b8015610af9575b156103e75760ff8019601754169115151617601755600080f35b506005546001600160a01b03163314610adf565b3461038457602036600319011261038457600435600052603160205260806040600020805490600181015490600281015490600360018060a01b039101541691604051938452602084015260408301526060820152f35b34610384576000366003190112610384576020601d54604051908152f35b6020908160408183019282815285518094520193019160005b828110610ba9575050505090565b835185529381019392810192600101610b9b565b3461038457600036600319011261038457601e5460018101808211610a4d57610be581614e3f565b90610bf360405192836121bb565b808252610c02601f1991614e3f565b0191602092368484013760005b81811115610c2557604051806105748582610b82565b60088110156107155780610c4691850154610c408286614e56565b52612706565b610c0f565b3461038457604036600319011261038457600435600052603360205260406000206024356000526020526020604060002054604051908152f35b3461038457602036600319011261038457600435610ca281610594565b610caa61584d565b1561040d57610cb8336158bf565b8015610ceb575b156103e75715610cd957610cd4601f54612706565b601f55005b601f548015610a4d5760001901601f55005b506005546001600160a01b03163314610cbf565b34610384576000366003190112610384576020601b54604051908152f35b606080918051845260208101516020850152604081015160408501520151910152565b6020908160408183019282815285518094520193019160005b828110610d67575050505090565b9091929382608082610d7c6001948951610d1d565b01950193929101610d59565b346103845760403660031901126103845760243560043581811161068257808203918211610a4d57600190818301809311610a4d57610dc683614e3f565b92610dd460405194856121bb565b808452610de3601f1991614e3f565b0160005b818110610e55575050816000905b610e08575b604051806105748682610d40565b8351811015610e505780610e2f610e2a610e25610e4a948661277b565b610733565b6151e4565b610e398287614e56565b52610e448186614e56565b50612706565b82610df5565b610dfa565b602090610e606151bf565b82828801015201610de7565b34610384576000366003190112610384576020601854604051908152f35b34610384576000366003190112610384576020601f54604051908152f35b346103845760a036600319011261038457604435602435600435608435610ece81610594565b610ed661584d565b1561040d57610ee4336158bf565b8015610fa3575b156103e75760009260009480610f0b575b604051806105748888836106d2565b9091929350601e549483600014610f6657506001610f4582610f5996610f3e610f36610f4e96610733565b91825461277b565b9055610733565b0191825461277b565b90555b606435613f89565b601e549038808080610efc565b808260409252603460205220938454908103908111610a4d57610f93610f9c92600192610f599755610733565b01918254612752565b9055610f51565b506005546001600160a01b03163314610eeb565b346103845760c03660031901126103845760a435602435606435600435604435610fe085610594565b610fe861584d565b1561040d57610ff6336158bf565b80156112cb575b156103e75761100b81610733565b61101683825461277b565b90556001938461102583610733565b0161103182825461277b565b905561103b610743565b541515806112c2575b611057575b601e54604051908152602090f35b1592831592836112b4575b6110b86110a96110736003546104b0565b6040519061109b8261108d89602083019190602083019252565b03601f1981018452836121bb565b6110a3613d0d565b90615a5b565b60208082518301019101613d3d565b93909492919a6110ca601d5488612752565b608435119182156112a7575b508161129e575b506110ec575b50505050611049565b600080516020615ccd833981519152996111fb9760009015611295575061111f611119611125938561289d565b91612843565b90612788565b965b6000901561128b57506111196111409361111f9261289d565b945b600261114d84610733565b0161115986825461277b565b9055600361116684610733565b0161117287825461277b565b90556001600052603560205280807f8e3caac72b6c5bb0462da38c8c8c3b5fbc00a646bd75367c23c11d594c4e36c95416148015611278575b61124f575b6004600052603560205280807f80eb70dc00a20ebf6b218a7aea19e260b164cf97e49b31f047fca6f74f8ff9ad54161490811561123b575b5061120d575b60405194859433866128b0565b0390a1388080808080808080806110e3565b6112156107bb565b61122086825461277b565b905561123661123186602b5461277b565b602b55565b6111ee565b809150611246610770565b541614386111e8565b61125761078d565b61126286825461277b565b905561127361123186602b5461277b565b6111b0565b508080611283610770565b5416146111ab565b9250505094611142565b91505096611127565b905015386110dd565b601e5410159150386110d6565b6112bd82613e9a565b611062565b50811515611044565b506005546001600160a01b03163314610ffd565b60c036600319011261038457600480356112f8816104bc565b6044356064359260843560a4359161130e61584d565b156116d45761131c336158bf565b80156116c0575b156116a15760175460ff81166116b05760081c60ff16156115da576113466128e2565b61134f83612905565b61135f61135b866158bf565b1590565b6116a15761137761137260365485612788565b602955565b602954611383816107e9565b546037541180159061168b575b61167b5761139d906107e9565b8054600101905560658214958615611674576113c86113c36113c36113c36003546104b0565b6104b0565b60206040518092631362d6d760e11b825281806113ec8b8983019190602083019252565b03915afa9081156106cd57600091611646575b50965b611600575b50601954156115e9575b61142461141f601954612706565b601955565b6114b36114ad6113c361149e87611439612202565b998b8b528160208c01528860408c015261146560608c019b60008d526114606019546107f9565b6127e5565b6114998c61108d8b6114786001546104b0565b60405163c85700fb60e01b6020820152968794916024803591908701612817565b615c13565b602080825183010191016121de565b866127b7565b84516001600160a01b03906114c7906104b0565b16156115da5750906115be600080516020615ccd83398151915293926115036114f087516104b0565b60036114fd6019546107f9565b016127c6565b61151761151288600f5461277b565b600f55565b61153e61153961153161152c603a548861289d565b612854565b60155461277b565b601555565b61158161156261154c6130dc565b60a061155982888d6131ed565b9101519061289d565b96611572610a168960285461277b565b61157b85612a57565b516104b0565b604080513381526001600160a01b03909216602083015281019490945260608401879052608084019290925260a0830191909152819060c0820190565b0390a16115cb6001600d55565b610574604051928392836106d2565b60405163baf3f0f760e01b8152fd5b6115f283601b55565b6115fb83601c55565b611411565b601854908761160f838361277b565b10611635578761162561162f9361162a9361277b565b612752565b601855565b38611407565b60405163baf3f0f760e01b81528390fd5b611667915060203d811161166d575b61165f81836121bb565b8101906127a8565b386113ff565b503d611655565b8096611402565b50604051633204506f60e01b8152fd5b5060385485108061139057506039548511611390565b60405163ea8e4eb560e01b8152fd5b5060405163baf3f0f760e01b8152fd5b506005546001600160a01b03163314611323565b604051634ee2123760e11b8152fd5b3461038457602036600319011261038457600435611700816104bc565b61170861584d565b1561040d57611716336158bf565b801561172b575b156103e7576100169061597d565b506005546001600160a01b0316331461171d565b34610384576000366003190112610384576001546040516001600160a01b039091168152602090f35b34610384576000366003190112610384576020601e54604051908152f35b34610384576000366003190112610384576020601954604051908152f35b60403660031901126103845760ff60175416610682576117c261584d565b1561040d576117d0336158bf565b8015611817575b156103e7576117e46128e2565b6105746117f5602435600435612bff565b6001600d55604080519384526020840192909252908201529081906060820190565b506005546001600160a01b031633146117d7565b3461038457600036600319011261038457602061188d60018060a01b036006541660405161185881612169565b601381527267657464656c656761746f72436f756e74282960681b848201526040519161188483612184565b60008352615b68565b604051908152f35b604080600319360112610384576004803560243560ff60175416611b2e576118bb6128e2565b6118c3615940565b90601b546118d1828261277b565b831115611b26576118e2925061277b565b905b6118f361137260365484612788565b6118fe6029546107e9565b5460375411611b165761191082612905565b6119246113c36113c36113c36003546104b0565b8451637bd4bc1f60e11b81528481018381526020908290819083010381855afa9081156106cd57600091611af8575b503403611ae85760c09085519485809263d0bb2ddf60e01b82525afa9182156106cd57600080516020615ccd83398151915294600093848590869187918894611aa4575b611a2a9798995080151580611a92575b611a71575b505080151580611a5f575b611a37575b5050506119d36119ce34600e5461277b565b600e55565b6119e76119e28560125461277b565b601255565b6119f082612a57565b513381526001600160a01b03909416602085015260408401929092523460608401526080830191909152606e60a0830152819060c0820190565b0390a16100166001600d55565b611a579261111f611a4b611a51933461289d565b91612871565b906159fb565b3880806119bc565b506001600160a01b03821615156119b7565b611a8b9161111f611a4b611a85933461289d565b896159fb565b38806119ac565b506001600160a01b038a1615156119a7565b505050505093611a2a929350611ad09060c03d8111611ae1575b611ac881836121bb565b810190612e5f565b949889989750949391929091611997565b503d611abe565b8451633204506f60e01b81528490fd5b611b10915060203d811161166d5761165f81836121bb565b38611953565b8351633204506f60e01b81528390fd5b5050906118e4565b835163baf3f0f760e01b81528390fd5b34610384576000366003190112610384576020601c54604051908152f35b3461038457600036600319011261038457610016613d93565b34610384576020366003190112610384576020611b9c600435611b97816104bc565b6158bf565b6040519015158152f35b34610384576000366003190112610384576020601a54604051908152f35b3461038457602036600319011261038457600435611be061584d565b1561040d576005546001600160a01b031633036103e75760009060046020611c0b6113c385546104b0565b6040516311be646b60e21b815292839182905afa80156106cd5783808481949382948391611c8e575b505af1611c3f6159cb565b5015610578577fcdcc745fe377b103b45fa0cec23ae3ef93d6fc6a84a01f0d18c40b354dd1d5d8611c88611c776113c3600b546104b0565b604051938452929081906020820190565b0390a280f35b611ca6915060203d81116106c6576106b881836121bb565b38611c34565b3461038457602036600319011261038457611cc5614625565b50611cce615940565b601b54906004358201809211610a4d5761030091611cf49181811115611e0657506149d2565b611e0460405191805183526020810151602084015260408101516040840152606081015160608401526080810151608084015260a081015160a084015260c081015160c084015260e081015160e0840152610100808201519084015261012080820151908401526101408082015190840152610160808201519084015261018080820151908401526101a080820151908401526101c080820151908401526101e0808201519084015261020080820151908401526102208082015190840152610240808201519084015261026080820151908401526102808082015190840152611de86102a0808301519085019015159052565b6102c0818101511515908401526102e090810151151590830152565bf35b90506149d2565b34610384576000366003190112610384576020602954604051908152f35b34610384576020366003190112610384576020611e52600435611e4d816104bc565b615c95565b6040516001600160a01b039091168152f35b3461038457604036600319011261038457602435611e8181610594565b611e8961584d565b1561040d57611e97336158bf565b8015611f46575b156103e757611eab615940565b906000916004358352603560205260408320805492831590811591611f3e575b81611f1e575b50611eda578380f35b600160401b831015611f195782611ef9916001611f1295018155612658565b90919082549060031b91821b91600019901b1916179055565b3880808380f35b612138565b159050611f355760ff845b16600184161438611ed1565b60ff6001611f29565b905080611ecb565b506005546001600160a01b03163314611e9e565b602036600319011261038457611f6e61584d565b1561040d57611f7c336158bf565b8015611fa2575b156103e757611f906128e2565b611f9b600435612ef5565b6001600d55005b506005546001600160a01b03163314611f83565b3461038457602036600319011261038457611fcf6151bf565b50600435600052603460205260806040600020600360405191611ff18361214e565b80548352600181015460208401526002810154604084015201546060820152611e046040518092610d1d565b3461038457602080600319360112610384576105749060043590612040826104bc565b6006546040516001600160a01b03938416838201528281529216916120a09061206881612169565b60405161207481612169565b6018815277697364656c656761746f724e6f646528616464726573732960401b84820152600094615a86565b9190806120da575b6120c1575b505060405190151581529081906020820190565b6120d392508082518301019101615838565b38806120ad565b50808251146120a8565b34610384576000366003190112610384576020611b9c61584d565b34610384576000366003190112610384576020602854604051908152f35b3461038457600036600319011261038457602061188d615940565b634e487b7160e01b600052604160045260246000fd5b608081019081106001600160401b03821117611f1957604052565b604081019081106001600160401b03821117611f1957604052565b602081019081106001600160401b03821117611f1957604052565b61010081019081106001600160401b03821117611f1957604052565b601f909101601f19168101906001600160401b03821190821017611f1957604052565b9081602091031261038457516121f3816104bc565b90565b6040513d6000823e3d90fd5b6040519061220f8261214e565b565b6040519061016082016001600160401b03811183821017611f1957604052565b6040519061030082016001600160401b03811183821017611f1957604052565b604051906102a082016001600160401b03811183821017611f1957604052565b6040519060e082016001600160401b03811183821017611f1957604052565b6001600160401b038111611f1957601f01601f191660200190565b604051906122b882612184565b60008252565b604051906122cb82612169565b600f82526e6d696e744379636c6544617973282960881b6020830152565b604051906122f682612169565b60128252716d61784d696e74735065724379636c65282960701b6020830152565b6040519061232482612169565b600c82526b6d696e4d696e74517479282960a01b6020830152565b6040519061234c82612169565b600c82526b6d61784d696e74517479282960a01b6020830152565b6040519061237482612169565b600f82526e6d696e74466565506572517479282960881b6020830152565b6040519061239f82612169565b601082526f65616368636c61696d4379636c65282960801b6020830152565b604051906123cb82612169565b601082526f6d696e436c61696d506572446179282960801b6020830152565b604051906123f782612169565b601082526f6d6178436c61696d506572446179282960801b6020830152565b6040519061242382612169565b60168252756d6178476c6f62616c436c61696d506572446179282960501b6020830152565b6040519061245582612169565b600982526863617070696e67282960b81b6020830152565b519061220f82610594565b9190826080910312610384578151916020810151916060604083015161249d81610594565b9201516121f381610594565b6124b161549a565b61220f61263861263d61261f6126066125f76125e160036124f36124ee6124d883546104b0565b6124e06122be565b6124e86122ab565b91615b68565b603655565b61251061250b61250383546104b0565b6124e06122e9565b603755565b61252d61252861252083546104b0565b6124e0612317565b603855565b61254a61254561253d83546104b0565b6124e061233f565b603955565b61256761256261255a83546104b0565b6124e0612367565b603a55565b61258461257f61257783546104b0565b6124e0612392565b603b55565b6125a161259c61259483546104b0565b6124e06123be565b603c55565b6125be6125b96125b183546104b0565b6124e06123ea565b603d55565b6125db6125d66125ce83546104b0565b6124e0612416565b603e55565b546104b0565b6125e9612448565b6125f16122ab565b91615a5b565b60208082518301019101612478565b9592959390919360ff8019604154169115151617604155565b61ff0060415491151560081b169061ff00191617604155565b604055565b603f55565b634e487b7160e01b600052603260045260246000fd5b80548210156107155760005260206000200190600090565b6103e76000526035602052600080516020615ced8339815191528054928315801591906126e8575b816126c7575b506126a857505050565b600160401b831015611f195782611ef991600161220f95018155612658565b1590506126df5760ff60005b1660018416143861269e565b60ff60016126d3565b905080612698565b634e487b7160e01b600052601160045260246000fd5b6000198114610a4d5760010190565b6802b5e3af16b187ffff19810191908211610a4d57565b683635c9adc5de9fffff19810191908211610a4d57565b600019810191908211610a4d57565b91908203918211610a4d57565b9060018201809211610a4d57565b6047019081604711610a4d57565b91908201809211610a4d57565b8115612792570490565b634e487b7160e01b600052601260045260246000fd5b90816020910312610384575190565b6001600160a01b039091169052565b80546001600160a01b0319166001600160a01b03909216919091179055565b600361220f92805183556020810151600184015560408101516002840155606060018060a01b039101511691016127c6565b9192608093969594919660a084019760018060a01b031684526020840152604083015260608201520152565b9081606402916064830403610a4d57565b90670de0b6b3a764000091828102928184041490151715610a4d57565b90606482029180830460641490151715610a4d57565b90601982029180830460191490151715610a4d57565b81810292918115918404141715610a4d57565b919260a093969594919660c0840197600180871b03168452600060208501526040840152606083015260808201520152565b6002600d54146128f3576002600d55565b604051633ee5aeb560e01b8152600490fd5b600180612910610770565b5416036129bf5760285461068257600f54601154601454601554600e54601254604080519687526020870195909552938501929092526060840152608083015260a082015260c08101919091527fb359d8408cffc6b8788774a87b59f0d5be825576ea5fdd7b0917fed6a07e80309060e090a161298d6000600f55565b6129976000601155565b6129a16000601455565b6129ab6000601555565b6129b56000600e55565b61220f6000601255565b50565b9061220f91805182526020810151602083015260408101516040830152606081015160608301526080810151608083015260a081015160a083015260c081015160c083015260e081015160e083015261010080820151908301526101208082015190830152612a3b610140808301519084019015159052565b610160818101511515908301526101808091015191019061092b565b612a5f612b69565b604051622adcd760e31b815290612a7a9060048301906129c2565b60e0816101a48173__$e1247df8a8a3e3350a56478f11053bf229$__5af49081156106cd57600091612ab1575b5061220f91612670565b9060e0823d8211612aef575b81612aca60e093836121bb565b81010312612aec57509060c061220f920151612ae581610594565b9091612aa7565b80fd5b3d9150612abd565b604051906101a082016001600160401b03811183821017611f1957604052816101806000918281528260208201528260408201528260608201528260808201528260a08201528260c08201528260e0820152826101008201528261012082015282610140820152826101608201520152565b612b71612af7565b906000825260006020830152600f546040830152600e546060830152601554608083015260125460a083015260115460c083015260145460e0830152603f54610100830152604054610120830152612be760ff604154612bdc828260081c1661014087019015159052565b161515610160840152565b61220f612bf56003546104b0565b61018084016127b7565b60175491926000928392839160081c60ff168015612e48575b612e3d57612c2890601b5461277b565b80861015612e345750612c3a8561407d565b602c5490612c4b602d54809361277b565b95603c5487101580612dc5575b612c8f575b50505060165480612c6b5750565b6000601655915060285415612c7c57565b61220f612c8a603254612706565b603255565b90919450603d54808711612dbd575b50858511612db357612cc08580975b611625612cbb83809a612752565b602d55565b9182968060285411600014612da357610a16612cde91602854612752565b612cf2612ced84602c54612752565b602c55565b612d066113c36113c36113c36003546104b0565b604051634205de0f60e11b8152600481018590529390602090859060249082905afa80156106cd57612d7d94600080516020615ccd8339815191529391612d85575b50604080513381526000602082015290810191909152606081019190915260808101839052606b60a082015260c090a1601c55565b388080612c5d565b612d9d915060203d811161166d5761165f81836121bb565b38612d48565b50612dae6000602855565b612cde565b612cc08680612cad565b955038612c9e565b50603e54612ddd6113c36113c36113c36004546104b0565b604051633cf29c4960e21b8152600481018490529190602090839060249082905afa9182156106cd578492612e14575b5011612c58565b612e2d91925060203d811161166d5761165f81836121bb565b9038612e0d565b612c3a9061407d565b509350839250829150565b50612e58603b54601c549061277b565b8610612c18565b91908260c0910312610384578151612e76816104bc565b916020810151916040820151916060810151612e91816104bc565b9160a0608083015192015190565b60405190612eac82612169565b601382527255736572546f496e737428616464726573732960681b6020830152565b60405190612edb82612169565b600b82526a6d696e74436f756e74282960a81b6020830152565b60175460081c60ff166129bf576004906020612f156113c36000546104b0565b60405163111ea8c160e21b815293849182905afa9182156106cd57600092613089575b50600191612f7a612f5e612f6c612f4f86546104b0565b60405192839160208301610938565b03601f1981018352826121bb565b612f74612e9f565b83615b1d565b6001600160a01b03811615613064576005831161057857612fab612f9c612ece565b612fa46122ab565b9083615b68565b9260199283549182612fbd818361277b565b87111561305b57612fcd9161277b565b915b1561304b575b5084612fdf6130dc565b955b61302d575b5050508192505414908115613024575b50612ffd57565b613005613d93565b613010601b54601c55565b61220f61010061ff00196017541617601755565b90501538612ff6565b8184541015613046576130408684613a50565b80612fe1565b612fe6565b6130559083613540565b38612fd5565b50508491612fcf565b50505050613073610653615940565b61307e601d54601b55565b613010601d54601c55565b6130a291925060203d81116106c6576106b881836121bb565b9038612f38565b908160e09103126103845780519160208201519160408101519160608201519160808101519160c060a083015192015190565b6040519060c082016001600160401b03811183821017611f19576040526000808352602083019281845260408101918083526060820194818652608083019382855260a08401908382526004859860e06131406113c36113c36113c36003546104b0565b604051938480926316f0115b851b82525afa9586156106cd5780988197829683958492613171575b50525252525252565b94995096505098505061319b915060e03d81116131b1575b61319381836121bb565b8101906130a9565b9399949b9297919590509a989694929038613168565b503d613189565b91909160008382019384129112908015821691151617610a4d57565b81810392916000138015828513169184121617610a4d57565b61320261320d9194939460208601519061289d565b60608501519061289d565b90613221604085015160808601519061289d565b61271090818102918183041490151715610a4d5761324561325f9161329c94612788565b9461326d613254603254610809565b61325f83518661277b565b600052602052604060002090565b6132788782546131b8565b905560a061329361328a603254610809565b9483519061277b565b9101519061277b565b6132a78382546131d4565b9055565b604051906132b882612169565b6017825276676574557365724f6c644461746128616464726573732960481b6020830152565b9081610160910312610384576132f2612211565b90805182526020810151602083015260408101516040830152606081015160608301526080810151608083015260a081015160a083015260c081015160c083015260e081015160e08301526101008082015190830152610120808201519083015261336161014080920161246d565b9082015290565b6040519061337582612169565b600a825269647261776e616765282960b01b6020830152565b6040519061339b82612169565b600c82526b4c53422875696e743235362960a01b6020830152565b604051906133c382612169565b6007825266626f6e7573282960c81b6020830152565b604051906133e682612169565b600682526563616765282960d01b6020830152565b6040519061340882612169565b60188252776765744e6f64654c766c446570746828616464726573732960401b6020830152565b6001600160a01b039091168152602081019190915260400190565b9190826040910312610384576020825192015190565b6040519061346d82612169565b601e82527f6765746e6f6465526e6b41676528616464726573732c75696e743235362900006020830152565b60088110156107155760200190600090565b604051906134b882612169565b601082526f6765744e6f646528616464726573732960801b6020830152565b908160a09103126103845780519160208201516134f3816104bc565b916040810151916080606083015161249d81610594565b6040519061351782612169565b601a82527977697468647261776e496e636f6d654f6628616464726573732960301b6020830152565b91909161354e600a546104b0565b9260019061355c82546104b0565b906040936135a1613593865180613577602097888301610938565b039961358b601f199b8c81018452836121bb565b6110a36132ab565b8480825183010191016132de565b6135b261135b610140830151151590565b61397a5780516135c061078d565b5583810180516135ce610819565b556136996109fc88840180516135e2610847565b55613691606086019182516135f56107bb565b5561369160808801968751613608610875565b5560a089019889516136186108a3565b55613627610100820151602e55565b613635610120820151602f55565b61364260c0820151602855565b61367b61367661366e61366e61366661365e865188519061277b565b89519061277b565b8a519061277b565b8c519061277b565b601055565b61368860e0820151601355565b5190519061277b565b90519061277b565b51613967575b51613954575b6136c76136c26136b3613368565b6136bb6122ab565b9084615b68565b601b55565b601b5461371c61370187516136f3816136e7868a83019190602083019252565b038c81018352826121bb565b6136fb61338e565b85615ba4565b9161370d603254610809565b90600052602052604060002090565b5561372b61162a6136b36133b6565b6137396106536136b36133d9565b613768855161375a8161374e85888301610938565b038a81018352826121bb565b6137626133fb565b84615b68565b60005b81811061389a5750506137e26137d46137c060049899946137cc6137f9956137a261153961152c8c61379b610743565b0154612887565b6137b36137ad610743565b54600f55565b8a519384918a8301610938565b038781018452836121bb565b6110a36134ab565b8480825183010191016134d7565b935050505060ff8019601754169115151617601755565b816138086113c36000546104b0565b85516318c9774160e21b815296879182905afa9182156106cd5761386695600093613871575b5061384c6138406138589495546104b0565b95519586928301610938565b039081018452836121bb565b61386061350a565b90615b68565b61386e6108d1565b55565b613858935061384061389261384c92843d86116106c6576106b881836121bb565b94505061382e565b613914906138e56138d78951632994ed6560e11b898201526138d18d826138c5878b6024840161342f565b039081018352826121bb565b87615c13565b87808251830101910161344a565b906138ef83610733565b55876138fa83610733565b0155858885838d60088210613919575b5050505050612706565b61376b565b61394a946138c5613933936139419651958693840161342f565b61393b613460565b88615b68565b611ef983613499565b858885838d61390a565b613962610a0960145461272c565b6136a5565b613975610a09601354612715565b61369f565b855163ea8e4eb560e01b8152600490fd5b6040519061399882612169565b600e82526d6d696e74732875696e743235362960901b6020830152565b604051906139c282612169565b600b82526a6d696e746564416765282960a81b6020830152565b604051906139e982612169565b600b82526a6d696e746564717479282960a81b6020830152565b60405190613a1082612169565b600c82526b6964732875696e743235362960a01b6020830152565b60405190613a3882612169565b60098252686d696e74416d74282960b81b6020830152565b919091601992613a6461141f855460010190565b60008052602a6020527f25a1a901705ed15d5376e82511cff743d9474883c82d145cebcc7811e0424a9c613a988154612706565b905583546040805160208082018490528082529196601f19959091613acf91613ac18a836121bb565b613ac961398b565b90615b1d565b91613aea613adb6139b5565b613ae36122ab565b9085615b68565b93613b86613b08613af96139dc565b613b016122ab565b9087615b68565b97613b378b51613b2f81613b23888201906000602083019252565b038481018352826121bb565b61393b613a03565b92848c613b54613b45613a2b565b613b4d6122ab565b908b615b68565b98613b6c613b666113c36000546104b0565b91615c95565b915180809781946333ea87db60e21b835260048301610938565b03915afa9283156106cd57600093613cee575b50613ba661135b846158bf565b613cdd5792613c1f9492611499613c12938e61384c8c8f8d908260028f613beb906113c39f613bd587916107f9565b55846001613be383546107f9565b0155546107f9565b0155613bf86001546104b0565b945163c85700fb60e01b8c82015298899560248701612817565b80518101820191016121de565b936001600160a01b03851615613ccc5796600182613c63600080516020615ccd833981519152999a613c5c8960036114fd613cae9b9a99546107f9565b86866131ed565b50541480613cc1575b613cb3575b513381526001600160a01b039094166020850152604084019490945260608301939093526080820192909252600060a082015290819060c0820190565b0390a1565b613cbc83601b55565b613c71565b5082601b5410613c6c565b875163baf3f0f760e01b8152600490fd5b8b5163ea8e4eb560e01b8152600490fd5b613d06919350853d87116106c6576106b881836121bb565b9138613b99565b60405190613d1a82612169565b60148252736c6576656c436c617573652875696e743235362960601b6020830152565b908160a0910312610384578051916020820151916040810151916080606083015192015190565b60405190613d7182612169565b601382527272616e6b436c617573652875696e743235362960681b6020830152565b613d9b615940565b600190815b60088110613dad57505050565b613e4690613df2613dbf6003546104b0565b613de5604051602092613ddd8261108d888783019190602083019252565b6110a3613d64565b8051810182019101613d3d565b50505090601f5410159081613e84575b5080613e71575b15613e5457613e24613e1a82613499565b90549060031b1c90565b15613e4b57613e41613e38613e1a83613499565b61394183601e55565b612706565b613da0565b613e4183613e38565b613e41613e6082613499565b8154906000199060031b1b19169055565b50601e54613e7e82612743565b14613e09565b905084613e9083610733565b0154101538613e02565b601e90613ea7825461275f565b60088110613eb457505050565b613ebf6003546104b0565b613ee2604091613de58351602092613ddd8261108d898783019190602083019252565b505050918315801590613f81575b80613f71575b613f61575090613f1d9291601f5410159081613f4a575b5080613f38575b613f2257612706565b613ea7565b613f2b81601e55565b613e4183611ef983613499565b508354613f4482612743565b14613f14565b90506001613f5783610733565b0154101538613f0d565b5163baf3f0f760e01b8152600490fd5b50811580613ef657508215613ef6565b506001613ef0565b9091906000831561401e5750613fa0601e5461275f565b831561407257600881105b1561406c57613fbb6003546104b0565b613fde604091613de58351602092613ddd8261108d898783019190602083019252565b505050918315801590614065575b80614055575b613f6157509061401e9291601f541015908161403e575b508515614030578061402357613f2257612706565b613fa0565b50601e54613f4482612743565b15613e5457613e4181601e55565b9050600161404b83610733565b0154101538614009565b50811580613ff257508215613ff2565b5086613fec565b50509050565b601e54811115613fab565b614086816149d2565b906140dd612ced6140d56140ca6140bf6140b46140a9885160208a01519061277b565b60608901519061277b565b60808801519061277b565b60a08701519061277b565b60c08601519061277b565b602c5461277b565b61414a61123161414261413661412a61411e61411261410660e08a01516101008b01519061277b565b6101208a01519061277b565b6101408901519061277b565b6101608801519061277b565b6101808701519061277b565b6101a08601519061277b565b602b5461277b565b61415d612cbb6040840151602d5461277b565b61416d825160e08401519061277b565b614178610f3661078d565b905561418e60208301516101008401519061277b565b614199610f36610819565b90556141af60408301516101208401519061277b565b6141ba610f36610847565b90556141ed6141e16141d660608501516101408601519061277b565b60808501519061277b565b6101608401519061277b565b6141f8610f366107bb565b905561420e60a08301516101808401519061277b565b614219610f36610875565b905561422f60c08301516101a08401519061277b565b61423a610f366108a3565b905560005b6007811061455357506101c08201516142686142608361370d603254610809565b9182546131b8565b905561428361427e61012084015160165461277b565b601655565b60285461012083015180911160001461454357610a166142a591602854612752565b6142ae81601b55565b6143156143096142fd6142f16142e66142db6142d0885160208a01519061277b565b60408901519061277b565b60608801519061277b565b60e08701519061277b565b6101008601519061277b565b6101208501519061277b565b6101408401519061277b565b806000811561452a5750506143346113c36113c36113c36003546104b0565b604051634205de0f60e11b81526004810183905290602090829060249082905afa80156106cd576144066143fa6143ef6143e4866144129561441e9760009161450b575b505b614389610a098260145461277b565b6143986109fc8360115461277b565b604080513381526000602082015290810191909152606081019890985260808801899052604e60a0890152600080516020615ccd83398151915297889060c090a160808a01519061277b565b60a08901519061277b565b60c08801519061277b565b6101608701519061277b565b6101808601519061277b565b6101a08501519061277b565b92600084156144f9575061443c6113c36113c36113c36003546104b0565b604051634205de0f60e11b8152600481018690529190602090839060249082905afa9283156106cd5761220f956144d4946102a0946000916144da575b505b61448f61448a8260135461277b565b601355565b61449e6136768360105461277b565b604080513381526000602082015290810191909152606081019190915260808101869052604f60a082015260c090a10151151590565b90612670565b6144f3915060203d60201161166d5761165f81836121bb565b38614479565b906144d49261220f956102a09361447b565b614524915060203d60201161166d5761165f81836121bb565b38614378565b6144066143fa6143ef6143e461441e956144129561437a565b5061454e6000602855565b6142a5565b80600080516020615ccd83398151915261456f60019386614593565b9061458a61457c8561276d565b8760405194859433866128b0565b0390a10161423f565b9190801561461a576001811461460b57600281146145fc57600381146145ed57600481146145de576005146145d0576101a060c083015192015190565b61018060a083015192015190565b50610160608083015192015190565b50610140606083015192015190565b50610120604083015192015190565b50610100602083015192015190565b5060e0825192015190565b61462d612231565b9060008083528060208401528060408401528060608401528060808401528060a08401528060c08401528060e08401528061010084015280610120840152806101408401528061016084015280610180840152806101a0840152806101c0840152806101e08401528061020084015280610220840152806102408401528061026084015280610280840152806102a0840152806102c08401526102e0830152565b9081610300910312610384576146e2612231565b90805182526020810151602083015260408101516040830152606081015160608301526080810151608083015260a081015160a083015260c081015160c083015260e081015160e0830152610100808201519083015261012080820151908301526101408082015190830152610160808201519083015261018080820151908301526101a080820151908301526101c080820151908301526101e08082015190830152610200808201519083015261022080820151908301526102408082015190830152610260808201519083015261028080820151908301526102a06147ca81830161246d565b908301526102c06147dc81830161246d565b908301526133616102e080920161246d565b6000915b600883106147ff57505050565b6001908251815260208091019201920191906147f2565b906080604061220f9361483484825160208091805184520151910152565b61484f60208201518386019060208091805184520151910152565b015191019060208091805184520151910152565b90815180825260208080930193019160005b828110614883575050505090565b835185529381019392810192600101614875565b6105c0816121f393602082528051602083015260208101516040830152604081015160608301526148d0606082015160808401906147ee565b6149c1826149b360808401516148ed610180918285019015159052565b60a08501516101a0908185015260c08601516101c0908186015260e08701516101e090818701526101008801519161492b610200938489019061092b565b6101208901519361494261022095868a019061092b565b6101408a01519561495961024097888b019061092b565b61496e6101608c0151610260809b019061092b565b8a0151610280809c01528901516102a08d01528801516102c08c01528701516102e08b01528601516103008a01528501516103208901528401516103408801906129c2565b8201516104e0860190614816565b0151916105a0808201520190614863565b6149da614625565b506149e3614d0b565b6149ee6003546104b0565b6040516395bf75fd60e01b8152909260c0826004816001600160a01b0388165afa80156106cd57614bdf94614a36614aa192614bba95600091614c31575b5015156080870152565b614a3e615037565b9060a087019060c088019283528152614a60614a5861078d565b548251612752565b9052614a6d614a586107bb565b9052828552601b546020860152601e546040860152614a8a614e0a565b606086015260285460e086015261010085016127b7565b614ab9614aaf6004546104b0565b61012085016127b7565b614ad1614ac76009546104b0565b61014085016127b7565b614ae9614adf6001546104b0565b61016085016127b7565b614af16108d1565b54610180840152614b00610875565b546101a0840152614b0f6108a3565b546101c08401527fa08b36b7ba7f4defefa1c8f3c69a108432bbe4655c8244397472448770784778546101e08401527f8c201e80a21b907aa5b47fe57132b3746ed081b3b8b146bb189ca4224d85a0c354610200840152600760005260356020527f4cdc807314a0b9d33865fa60bdf0631878a9fab6f09e457a18b589bf84168f6c54610220840152614ba0612b69565b610240840152614baf81614e6a565b610280840152614f04565b610260820152604051906394e6d3bb60e01b8252818061030094859360048301614897565b038173__$e1247df8a8a3e3350a56478f11053bf229$__5af49182156106cd57600092614c0b57505090565b6121f39250803d10614c2a575b614c2281836121bb565b8101906146ce565b503d614c18565b614c52915060c03d8111614c5e575b614c4a81836121bb565b810190614db5565b94505050505038614a2c565b503d614c40565b60405190614c728261219f565b610100368337565b6040519060e082016001600160401b03811183821017611f195760405260e0368337565b60408051919082016001600160401b03811183821017611f195760405260006020838281520152565b60405190606082016001600160401b03811183821017611f195760405281614ced614c9e565b8152614cf7614c9e565b60208201526040614d06614c9e565b910152565b614d13612251565b906000808352806020840152806040840152614d2d614c65565b60608401528060808401528060a08401528060c08401528060e08401528061010084015280610120840152806101408401528061016084015280610180840152806101a0840152806101c0840152806101e084015280610200840152610220830152614d97612af7565b610240830152614da5614cc7565b6102608301526060610280830152565b91908260c0910312610384578151614dcc81610594565b916020810151614ddb81610594565b916040820151614dea81610594565b916060810151614df981610594565b9160a0608083015161249d81610594565b604051906020600081845b60088310614e2a575050505061220f8261219f565b60018281928654815201940192019192614e15565b6001600160401b038111611f195760051b60200190565b80518210156107155760209160051b010190565b90601b54808303928311610a4d57614e8183614e3f565b92604093614e91855191826121bb565b818152601f19614ea083614e3f565b01946020953687840137819560009081603254905b868110614ec6575050505050505050565b818452603383528484209080890191828a11610a4d57600192614ef29190600052602052604060002090565b54614efd8289614e56565b5201614eb5565b90614f3d614f10614cc7565b92614f1a81614f4b565b855190602082015252614f2c81614fc1565b602086015190602082015252614ffc565b604084015190602082015252565b906103e7600052603560205260406000208054908115614fbb576001821615938415614fb25760ff60025b168303838111610a4d57614f8a9083612658565b90549060031b1c94600014614fac5750614fa6613e1a92612743565b90612658565b91505090565b60ff6001614f76565b50508190565b906002600052603560205260406000208054908115614fbb576001821615938415614fb2576001198301838111610a4d57614f8a9083612658565b906003600052603560205260406000208054908115614fbb576001821615938415614fb2576001198301838111610a4d57614f8a9083612658565b600090816001815b600f821115615064575050602e548101809111610a4d576121f39092602f549061277b565b9093848252603492602093808552604090600282862001548301809311610a4d576003929588865252832001548101809111610a4d576150a49094612706565b9061503f565b906150b3614c7a565b9160018114615152576002811461510f576003146150cd57565b90506150d7612271565b600f548152601554602082015260105460408201526013546060820152600e54608082015260125460a082015260145460c082015290565b50905061511a612271565b602c548152602d546020820152602b5460408201526016546060820152602e546080820152602f5460a082015260115460c082015290565b50905061515d612271565b61516561078d565b548152615170610819565b54602082015261517e610847565b54604082015261518c6107bb565b54606082015261519a6108d1565b5460808201526151a8610875565b5460a08201526151b66108a3565b5460c082015290565b604051906151cc8261214e565b60006060838281528260208201528260408201520152565b906040516151f18161214e565b6060600382948054845260018101546020850152600281015460408501520154910152565b6001600160a01b03908116908115615262576000548260018060a01b0319821617600055167fe939feee179e631422bcc8f6e6d7d908cb3f8af38f5372f17c77e15aea5c80ee600080a3565b60405163e6c4247b60e01b8152600490fd5b61547861014061220f926152ad61528b82516104b0565b600280546001600160a01b0319166001600160a01b0392909216919091179055565b6152df6152bd60208301516104b0565b600380546001600160a01b0319166001600160a01b0392909216919091179055565b6153116152ef60408301516104b0565b600480546001600160a01b0319166001600160a01b0392909216919091179055565b61534361532160608301516104b0565b600580546001600160a01b0319166001600160a01b0392909216919091179055565b61537561535360808301516104b0565b600680546001600160a01b0319166001600160a01b0392909216919091179055565b6153a761538560a08301516104b0565b600780546001600160a01b0319166001600160a01b0392909216919091179055565b6153d96153b760c08301516104b0565b600880546001600160a01b0319166001600160a01b0392909216919091179055565b61540b6153e960e08301516104b0565b600980546001600160a01b0319166001600160a01b0392909216919091179055565b61543e61541c6101008301516104b0565b600a80546001600160a01b0319166001600160a01b0392909216919091179055565b61547161544f6101208301516104b0565b600b80546001600160a01b0319166001600160a01b0392909216919091179055565b01516104b0565b600c80546001600160a01b0319166001600160a01b0392909216919091179055565b60006154a96113c382546104b0565b60408051634bf9c0ad60e11b8152929190600490602080868481875afa9586156106cd578596615819575b50815163cfbffe5360e01b81529181838581885afa9283156106cd5786936157fa575b50805163ab6e844f60e01b815282818681895afa9081156106cd5787916157dd575b508151630536340960e21b8152838187818a5afa9081156106cd5788916157c0575b50825163d1f956b160e01b815291848388818b5afa9283156106cd5789936157a1575b508351631cc3bfab60e31b815293858589818c5afa9485156106cd578a95615782575b50805163e09d394d60e01b81529686888a818d5afa9687156106cd5789988c98615763575b5082516314ac1b5960e21b81529881908a90818e5afa9889156106cd578c99615744575b5082519963013cf08b60e01b8b52818b8d81806155ee868201906000602083019252565b03915afa9a8b156106cd578d9b615725575b508351635e09dbe760e01b81529b828d8381845afa9c8d156106cd578e9d615704575b508290855192838092635506ee0b60e11b82525afa9c8d156106cd579c6156e5575b5061564e612211565b9c615659908e6127b7565b8c0190615665916127b7565b8a0190615671916127b7565b61567e9060608a016127b7565b61568b90608089016127b7565b6156989060a088016127b7565b6156a59060c087016127b7565b6156b29060e086016127b7565b6156c09061010085016127b7565b6156ce9061012084016127b7565b6156dc9061014083016127b7565b61220f90615274565b816156fd929d508d3d106106c6576106b881836121bb565b9a38615645565b83919d5061571e90823d84116106c6576106b881836121bb565b9c90615623565b61573d919b50823d84116106c6576106b881836121bb565b9938615600565b8161575c929a503d8b116106c6576106b881836121bb565b97386155ca565b8161577b9299503d8a116106c6576106b881836121bb565b96386155a6565b61579a919550863d88116106c6576106b881836121bb565b9338615581565b6157b9919350853d87116106c6576106b881836121bb565b913861555e565b6157d79150843d86116106c6576106b881836121bb565b3861553b565b6157f49150833d85116106c6576106b881836121bb565b38615519565b615812919350823d84116106c6576106b881836121bb565b91386154f7565b816158319297503d88116106c6576106b881836121bb565b94386154d4565b9081602091031261038457516121f381610594565b600254604051615895916001600160a01b03169061586a81612169565b6008815267697353616665282960c01b60208201526040519161588c83612184565b60008352615a86565b90806158b4575b1561057857806020806121f393518301019101615838565b50602081511461589c565b61591960018060a01b0380600254166040519160209416848301528382526158e682612169565b604051906158f382612169565b601582527469735365637572654261736528616464726573732960581b85830152615a86565b9080615936575b1561057857816121f39282518301019101615838565b5081815114615920565b6003546040516121f3916001600160a01b03169061595d81612169565b600681526569416765282960d01b60208201526040519161188483612184565b6001600160a01b0390811690811561526257600180546001600160a01b031981168417909155167f8292fce18fa69edf4db7b94ea2e58241df0ae57f97e0a6c9b29067028bf92d76600080a3565b3d156159f6573d906159dc82612290565b916159ea60405193846121bb565b82523d6000602084013e565b606090565b908015615a57576001600160a01b03821691821561526257600080808481945af1615a246159cb565b50156105785760207fcec1f18c3ab8ddaaa107a1591e3c369667eec613626611a8deaedef43069fcdd91604051908152a2565b5050565b90615a669291615a86565b9060009015615a73575090565b6040519150615a8182612184565b815290565b9190823b15615b04578051906020918263ffffffff60e01b92012016916040519180830193845281519160005b838110615af0575050509181615ae0602482600097959688970187838201520360048101845201826121bb565b51915afa615aec6159cb565b9091565b818101830151858201602401528201615ab3565b505050600090604051615b1681612184565b6000815290565b9291615b2b91600094615a86565b9080615b5d575b615b395750565b80519192506001600160a01b0391615b59916020918101820191016121de565b1690565b506020815114615b32565b9291615b7691600094615a86565b9080615b99575b615b845750565b6121f3919250602080825183010191016127a8565b506020815114615b7d565b9291615bb291600094615a86565b9080615bd7575b615bc05750565b909150602081805181010312610384576020015190565b506020815114615bb9565b906020825192015163ffffffff60e01b908181169360048110615c0457505050565b60040360031b82901b16169150565b6001600160a01b0381161561526257600080918351908260208601915af190615c3a6159cb565b9115615c44575090565b805160009190600411615c8f57615c5b9150615be2565b815115615c6b5750805190602001fd5b604051630870274d60e21b81526001600160e01b0319919091166004820152602490fd5b50615c5b565b803b6000615ca282612290565b92615cb060405194856121bb565b82845260208401903c602d81511061068257602a015160601c9056fe1517c86fcf2bfb8e3468afcc539b0004955da8027797c497ea51d1f1094ab898ecdfbf0bdef04c31b6b583fa641eb3fda9723c1027ee16c0cdd8e9ef0f675d99a264697066735822122096ad7a1e1520e3703abde1535e9f54359653fc2dfcc42f2a5c273e8dd77045ff64736f6c63430008140033","linkReferences":{"src_19JulyUpdated01Jan/lib/InstanceLib.sol":{"InstanceLib":[{"start":11106,"length":20},{"start":19650,"length":20}]}}},"methodIdentifiers":{"Burn(uint256)":"b90306ad","BurnCoin(uint256,uint256)":"a5d7cda4","LSB(uint256,uint256)":"6f493aad","TVL()":"edaf2d2e","_delegatorCount()":"a1f7f539","_getImplementation(address)":"c54e44b0","_isDelegatorNode(address)":"e01ad5fd","_isSafe()":"e0a9bc2b","_isSecureBase(address)":"af484526","_isSigner(address)":"1f185d16","_txnType107(uint256,uint256)":"a1c25c86","_txnType_101_100(address,uint256,uint256,uint256,uint256,uint256)":"87acdff7","activedirectsCount()":"799e4c45","addLevelnGetRank(uint256,uint256,uint256,uint256,uint256,bool)":"822ffec4","bonus()":"75b4d78c","cage()":"69245009","currentCycle()":"bab2f552","currentLSBversion()":"43a1b5ab","dage()":"725b6fff","getAllComputeData(uint256)":"b9f1a394","getAllData(uint256,uint256)":"12964120","getBalance()":"12065fe0","getHexbase()":"3b9b7955","getNodeLB(uint256)":"da021335","getNodeLvlInfoBatch(uint256,uint256)":"759f22bd","getRankAgeInBatch()":"6de97c66","getRankWithAgeValue()":"29ee350e","getToggleAgeCount(uint256)":"143ec3b7","getToggleAgeValue(uint256,uint256)":"043719b4","id()":"af640d0f","importOld(uint256)":"d3abb8a3","isLock()":"09d8da2e","mintCount()":"9659867e","mints(uint256)":"6350b2c2","moveLvlIncome(uint256,uint256,uint256,uint256,bool)":"7b058ac1","owner()":"8da5cb5b","postInit()":"4a65786c","preinit(address,address,uint256,bool)":"2697a77a","rank()":"934209ce","resetRank()":"ab57c03a","setActivedirect(bool)":"711e5870","setBonus(uint256)":"0b98f975","setLock(bool)":"619d5194","setSuspend(uint256,bool)":"c8ef7b1a","setcapclaim(uint256,uint256,uint256,bool)":"47a09a1d","storcache()":"5ecf6a8a","syncBaseAddr()":"339459a6","systemAge()":"fdc10bc9","updateOwner(address)":"880cdc31","userCycleMintCount(uint256)":"39b4d61b","withdrawlDage()":"a9bf285b"},"id":52}