{"abi":[{"type":"constructor","inputs":[{"name":"_hex","type":"address","internalType":"address"}],"stateMutability":"nonpayable"},{"type":"fallback","stateMutability":"payable"},{"type":"receive","stateMutability":"payable"},{"type":"function","name":"Burn","inputs":[{"name":"amount","type":"uint256","internalType":"uint256"}],"outputs":[],"stateMutability":"nonpayable"},{"type":"function","name":"BurnCoin","inputs":[{"name":"_dollar","type":"uint256","internalType":"uint256"},{"name":"maxinterwal","type":"uint256","internalType":"uint256"}],"outputs":[],"stateMutability":"payable"},{"type":"function","name":"LSB","inputs":[{"name":"","type":"uint256","internalType":"uint256"},{"name":"","type":"uint256","internalType":"uint256"}],"outputs":[{"name":"","type":"int256","internalType":"int256"}],"stateMutability":"view"},{"type":"function","name":"TVL","inputs":[],"outputs":[{"name":"","type":"uint256","internalType":"uint256"}],"stateMutability":"view"},{"type":"function","name":"_delegatorCount","inputs":[],"outputs":[{"name":"","type":"uint256","internalType":"uint256"}],"stateMutability":"view"},{"type":"function","name":"_getImplementation","inputs":[{"name":"clone","type":"address","internalType":"address"}],"outputs":[{"name":"impl","type":"address","internalType":"address"}],"stateMutability":"view"},{"type":"function","name":"_isDelegatorNode","inputs":[{"name":"sender","type":"address","internalType":"address"}],"outputs":[{"name":"","type":"bool","internalType":"bool"}],"stateMutability":"view"},{"type":"function","name":"_isSafe","inputs":[],"outputs":[{"name":"","type":"bool","internalType":"bool"}],"stateMutability":"view"},{"type":"function","name":"_isSecureBase","inputs":[{"name":"sender","type":"address","internalType":"address"}],"outputs":[{"name":"","type":"bool","internalType":"bool"}],"stateMutability":"view"},{"type":"function","name":"_isSigner","inputs":[{"name":"sender","type":"address","internalType":"address"}],"outputs":[{"name":"","type":"bool","internalType":"bool"}],"stateMutability":"view"},{"type":"function","name":"_txnType107","inputs":[{"name":"_maxint","type":"uint256","internalType":"uint256"},{"name":"_ag","type":"uint256","internalType":"uint256"}],"outputs":[{"name":"net","type":"uint256","internalType":"uint256"},{"name":"_self","type":"uint256","internalType":"uint256"},{"name":"_selfflush","type":"uint256","internalType":"uint256"}],"stateMutability":"payable"},{"type":"function","name":"_txnType_101_100","inputs":[{"name":"paramAdd","type":"address","internalType":"address"},{"name":"_id_maxint","type":"uint256","internalType":"uint256"},{"name":"_qty","type":"uint256","internalType":"uint256"},{"name":"_msgValue","type":"uint256","internalType":"uint256"},{"name":"_type","type":"uint256","internalType":"uint256"},{"name":"_ag","type":"uint256","internalType":"uint256"}],"outputs":[{"name":"_tvl","type":"uint256","internalType":"uint256"},{"name":"_amt","type":"uint256","internalType":"uint256"}],"stateMutability":"payable"},{"type":"function","name":"activedirectsCount","inputs":[],"outputs":[{"name":"","type":"uint256","internalType":"uint256"}],"stateMutability":"view"},{"type":"function","name":"addLevelnGetRank","inputs":[{"name":"_amount","type":"uint256","internalType":"uint256"},{"name":"_qty","type":"uint256","internalType":"uint256"},{"name":"_level","type":"uint256","internalType":"uint256"},{"name":"_epochAge","type":"uint256","internalType":"uint256"},{"name":"_free","type":"uint256","internalType":"uint256"},{"name":"_tobeSkipped","type":"bool","internalType":"bool"}],"outputs":[{"name":"currentrnk","type":"uint256","internalType":"uint256"}],"stateMutability":"nonpayable"},{"type":"function","name":"bonus","inputs":[],"outputs":[{"name":"","type":"uint256","internalType":"uint256"}],"stateMutability":"view"},{"type":"function","name":"cage","inputs":[],"outputs":[{"name":"","type":"uint256","internalType":"uint256"}],"stateMutability":"view"},{"type":"function","name":"currentCycle","inputs":[],"outputs":[{"name":"","type":"uint256","internalType":"uint256"}],"stateMutability":"view"},{"type":"function","name":"currentLSBversion","inputs":[],"outputs":[{"name":"","type":"uint256","internalType":"uint256"}],"stateMutability":"view"},{"type":"function","name":"dage","inputs":[],"outputs":[{"name":"","type":"uint256","internalType":"uint256"}],"stateMutability":"view"},{"type":"function","name":"getAllComputeData","inputs":[{"name":"maxinterwal","type":"uint256","internalType":"uint256"}],"outputs":[{"name":"cr","type":"tuple","internalType":"struct InstanceStorTypes.ComputeResult","components":[{"name":"p1","type":"uint256","internalType":"uint256"},{"name":"p2","type":"uint256","internalType":"uint256"},{"name":"p3","type":"uint256","internalType":"uint256"},{"name":"p4","type":"uint256","internalType":"uint256"},{"name":"p5","type":"uint256","internalType":"uint256"},{"name":"p6","type":"uint256","internalType":"uint256"},{"name":"p7","type":"uint256","internalType":"uint256"},{"name":"f1","type":"uint256","internalType":"uint256"},{"name":"f2","type":"uint256","internalType":"uint256"},{"name":"f3","type":"uint256","internalType":"uint256"},{"name":"f4","type":"uint256","internalType":"uint256"},{"name":"f5","type":"uint256","internalType":"uint256"},{"name":"f6","type":"uint256","internalType":"uint256"},{"name":"f7","type":"uint256","internalType":"uint256"},{"name":"lsb","type":"int256","internalType":"int256"},{"name":"totInc","type":"uint256","internalType":"uint256"},{"name":"thresholdx","type":"uint256","internalType":"uint256"},{"name":"totIncdollar","type":"uint256","internalType":"uint256"},{"name":"thresholdollarx","type":"uint256","internalType":"uint256"},{"name":"minpay","type":"uint256","internalType":"uint256"},{"name":"minpaydollar","type":"uint256","internalType":"uint256"},{"name":"cap","type":"bool","internalType":"bool"},{"name":"capinc","type":"bool","internalType":"bool"},{"name":"capdollar","type":"bool","internalType":"bool"}]}],"stateMutability":"view"},{"type":"function","name":"getAllData","inputs":[{"name":"typeId","type":"uint256","internalType":"uint256"},{"name":"maxinterwal","type":"uint256","internalType":"uint256"}],"outputs":[{"name":"values","type":"uint256[7]","internalType":"uint256[7]"}],"stateMutability":"view"},{"type":"function","name":"getBalance","inputs":[],"outputs":[{"name":"","type":"uint256","internalType":"uint256"}],"stateMutability":"view"},{"type":"function","name":"getHexbase","inputs":[],"outputs":[{"name":"","type":"address","internalType":"address"}],"stateMutability":"view"},{"type":"function","name":"getNodeLB","inputs":[{"name":"_level","type":"uint256","internalType":"uint256"}],"outputs":[{"name":"","type":"tuple","internalType":"struct InstanceStorTypes.LevelInfoStr","components":[{"name":"lvlbs","type":"uint256","internalType":"uint256"},{"name":"lvlqty","type":"uint256","internalType":"uint256"},{"name":"lvlrwrd","type":"uint256","internalType":"uint256"},{"name":"lvlyei","type":"uint256","internalType":"uint256"}]}],"stateMutability":"view"},{"type":"function","name":"getNodeLvlInfoBatch","inputs":[{"name":"from","type":"uint256","internalType":"uint256"},{"name":"to","type":"uint256","internalType":"uint256"}],"outputs":[{"name":"info","type":"tuple[]","internalType":"struct InstanceStorTypes.LevelInfoStr[]","components":[{"name":"lvlbs","type":"uint256","internalType":"uint256"},{"name":"lvlqty","type":"uint256","internalType":"uint256"},{"name":"lvlrwrd","type":"uint256","internalType":"uint256"},{"name":"lvlyei","type":"uint256","internalType":"uint256"}]}],"stateMutability":"view"},{"type":"function","name":"getRankAgeInBatch","inputs":[],"outputs":[{"name":"rankagebatch","type":"uint256[]","internalType":"uint256[]"}],"stateMutability":"view"},{"type":"function","name":"getRankWithAgeValue","inputs":[],"outputs":[{"name":"","type":"uint256","internalType":"uint256"},{"name":"","type":"uint256","internalType":"uint256"}],"stateMutability":"view"},{"type":"function","name":"getToggleAgeCount","inputs":[{"name":"key","type":"uint256","internalType":"uint256"}],"outputs":[{"name":"","type":"uint256","internalType":"uint256"}],"stateMutability":"view"},{"type":"function","name":"getToggleAgeValue","inputs":[{"name":"key","type":"uint256","internalType":"uint256"},{"name":"index","type":"uint256","internalType":"uint256"}],"outputs":[{"name":"","type":"uint256","internalType":"uint256"}],"stateMutability":"view"},{"type":"function","name":"id","inputs":[],"outputs":[{"name":"","type":"uint256","internalType":"uint256"}],"stateMutability":"view"},{"type":"function","name":"importOld","inputs":[{"name":"limit","type":"uint256","internalType":"uint256"}],"outputs":[],"stateMutability":"payable"},{"type":"function","name":"isLock","inputs":[],"outputs":[{"name":"","type":"bool","internalType":"bool"}],"stateMutability":"view"},{"type":"function","name":"mintCount","inputs":[],"outputs":[{"name":"","type":"uint256","internalType":"uint256"}],"stateMutability":"view"},{"type":"function","name":"mints","inputs":[{"name":"","type":"uint256","internalType":"uint256"}],"outputs":[{"name":"amt","type":"uint256","internalType":"uint256"},{"name":"qty","type":"uint256","internalType":"uint256"},{"name":"mage","type":"uint256","internalType":"uint256"},{"name":"nft","type":"address","internalType":"address"}],"stateMutability":"view"},{"type":"function","name":"moveLvlIncome","inputs":[{"name":"_amount","type":"uint256","internalType":"uint256"},{"name":"_qty","type":"uint256","internalType":"uint256"},{"name":"_level","type":"uint256","internalType":"uint256"},{"name":"_epochAge","type":"uint256","internalType":"uint256"},{"name":"_op","type":"bool","internalType":"bool"}],"outputs":[{"name":"lastrnk","type":"uint256","internalType":"uint256"},{"name":"currentrnk","type":"uint256","internalType":"uint256"}],"stateMutability":"nonpayable"},{"type":"function","name":"owner","inputs":[],"outputs":[{"name":"","type":"address","internalType":"address"}],"stateMutability":"view"},{"type":"function","name":"postInit","inputs":[],"outputs":[{"name":"","type":"bool","internalType":"bool"}],"stateMutability":"view"},{"type":"function","name":"preinit","inputs":[{"name":"_hex","type":"address","internalType":"address"},{"name":"_own","type":"address","internalType":"address"},{"name":"_id","type":"uint256","internalType":"uint256"},{"name":"isnew","type":"bool","internalType":"bool"},{"name":"_tvl","type":"uint256","internalType":"uint256"}],"outputs":[],"stateMutability":"nonpayable"},{"type":"function","name":"rank","inputs":[],"outputs":[{"name":"","type":"uint256","internalType":"uint256"}],"stateMutability":"view"},{"type":"function","name":"resetRank","inputs":[],"outputs":[],"stateMutability":"nonpayable"},{"type":"function","name":"setActivedirect","inputs":[{"name":"addremove","type":"bool","internalType":"bool"}],"outputs":[],"stateMutability":"nonpayable"},{"type":"function","name":"setBonus","inputs":[{"name":"b","type":"uint256","internalType":"uint256"}],"outputs":[],"stateMutability":"nonpayable"},{"type":"function","name":"setLock","inputs":[{"name":"flag","type":"bool","internalType":"bool"}],"outputs":[],"stateMutability":"nonpayable"},{"type":"function","name":"setSuspend","inputs":[{"name":"key","type":"uint256","internalType":"uint256"},{"name":"value","type":"bool","internalType":"bool"}],"outputs":[],"stateMutability":"nonpayable"},{"type":"function","name":"setcapclaim","inputs":[{"name":"claimcap","type":"uint256","internalType":"uint256"},{"name":"claicapmdollar","type":"uint256","internalType":"uint256"},{"name":"_tvl","type":"uint256","internalType":"uint256"},{"name":"action","type":"bool","internalType":"bool"}],"outputs":[],"stateMutability":"nonpayable"},{"type":"function","name":"storcache","inputs":[],"outputs":[],"stateMutability":"nonpayable"},{"type":"function","name":"syncBaseAddr","inputs":[],"outputs":[],"stateMutability":"nonpayable"},{"type":"function","name":"systemAge","inputs":[],"outputs":[{"name":"","type":"uint256","internalType":"uint256"}],"stateMutability":"view"},{"type":"function","name":"updateOwner","inputs":[{"name":"_newowner","type":"address","internalType":"address"}],"outputs":[],"stateMutability":"nonpayable"},{"type":"function","name":"userCycleMintCount","inputs":[{"name":"","type":"uint256","internalType":"uint256"}],"outputs":[{"name":"","type":"uint256","internalType":"uint256"}],"stateMutability":"view"},{"type":"function","name":"withdrawlDage","inputs":[],"outputs":[{"name":"","type":"uint256","internalType":"uint256"}],"stateMutability":"view"},{"type":"event","name":"CapReset","inputs":[{"name":"invested","type":"uint256","indexed":false,"internalType":"uint256"},{"name":"claimed","type":"uint256","indexed":false,"internalType":"uint256"},{"name":"claimedDollar","type":"uint256","indexed":false,"internalType":"uint256"},{"name":"investedDollar","type":"uint256","indexed":false,"internalType":"uint256"},{"name":"burned","type":"uint256","indexed":false,"internalType":"uint256"},{"name":"burnedDollar","type":"uint256","indexed":false,"internalType":"uint256"},{"name":"ag","type":"uint256","indexed":false,"internalType":"uint256"}],"anonymous":false},{"type":"event","name":"EthBurned","inputs":[{"name":"sender","type":"address","indexed":true,"internalType":"address"},{"name":"amount","type":"uint256","indexed":false,"internalType":"uint256"}],"anonymous":false},{"type":"event","name":"EthTransferred","inputs":[{"name":"to","type":"address","indexed":true,"internalType":"address"},{"name":"amount","type":"uint256","indexed":false,"internalType":"uint256"}],"anonymous":false},{"type":"event","name":"HexBaseUpdated","inputs":[{"name":"previousHexBase","type":"address","indexed":true,"internalType":"address"},{"name":"newHexBase","type":"address","indexed":true,"internalType":"address"}],"anonymous":false},{"type":"event","name":"LogTxns","inputs":[{"name":"from","type":"address","indexed":false,"internalType":"address"},{"name":"orc1155","type":"address","indexed":false,"internalType":"address"},{"name":"_amt","type":"uint256","indexed":false,"internalType":"uint256"},{"name":"_value","type":"uint256","indexed":false,"internalType":"uint256"},{"name":"_time","type":"uint256","indexed":false,"internalType":"uint256"},{"name":"_type","type":"uint256","indexed":false,"internalType":"uint256"}],"anonymous":false},{"type":"event","name":"OwnerUpdated","inputs":[{"name":"previousOwner","type":"address","indexed":true,"internalType":"address"},{"name":"newOwner","type":"address","indexed":true,"internalType":"address"}],"anonymous":false},{"type":"error","name":"CallFailed","inputs":[]},{"type":"error","name":"InvalidAddress","inputs":[]},{"type":"error","name":"InvalidState","inputs":[]},{"type":"error","name":"NotAuthorized","inputs":[]},{"type":"error","name":"NotSafe","inputs":[]},{"type":"error","name":"ReentrancyGuardReentrantCall","inputs":[]},{"type":"error","name":"TargetCallFailed","inputs":[{"name":"selector","type":"bytes4","internalType":"bytes4"}]}],"bytecode":{"object":"0x608034620000c357601f6200609a38819003918201601f19168301916001600160401b03831184841017620000c857808492602094604052833981010312620000c357516001600160a01b03811690819003620000c3578015620000b15760018060a01b031990338260015416176001556000918254161781556001600d5580600e5580600f55806010558060115580601255806013558060145580601555601655604051615fbb9081620000df8239f35b60405163e6c4247b60e01b8152600490fd5b600080fd5b634e487b7160e01b600052604160045260246000fdfe60806040526004361015610018575b361561001657005b005b60003560e01c8063043719b41461034857806309d8da2e146103435780630b98f9751461033e57806312065fe0146103395780631296412014610334578063143ec3b71461032f5780631f185d161461032a57806329ee350e14610325578063339459a61461032057806339b4d61b1461031b5780633b9b79551461031657806343a1b5ab1461031157806347a09a1d1461030c5780634a65786c146103075780635ecf6a8a14610302578063619d5194146102fd5780636350b2c2146102f857806369245009146102f35780636de97c66146102ee5780636f493aad146102e9578063711e5870146102e4578063725b6fff146102df578063759f22bd146102da57806375b4d78c146102d5578063799e4c45146102d05780637b058ac1146102cb578063822ffec4146102c657806387acdff7146102c1578063880cdc31146102bc5780638da5cb5b146102b7578063934209ce146102b25780639659867e146102ad578063a1c25c86146102a8578063a1f7f539146102a3578063a5d7cda41461029e578063a93491f314610299578063a9bf285b14610294578063ab57c03a1461028f578063af4845261461028a578063af640d0f14610285578063b90306ad14610280578063b9f1a3941461027b578063bab2f55214610276578063c54e44b014610271578063c8ef7b1a1461026c578063d3abb8a314610267578063da02133514610262578063e01ad5fd1461025d578063e0a9bc2b14610258578063edaf2d2e146102535763fdc10bc90361000e57612255565b612237565b61221c565b612155565b6120ee565b612092565b611f9c565b611f63565b611f45565b611de4565b611cfc565b611cde565b611cad565b611c94565b611c76565b611b47565b61176f565b611705565b61167e565b611660565b611642565b611619565b6115bd565b6111bd565b610e95565b610d86565b610d68565b610d4a565b610c54565b610bcb565b610b51565b610b17565b610a89565b610a30565b6109d9565b610971565b610958565b610932565b61085e565b610836565b61080d565b6107c1565b6105dc565b6105a5565b6104cd565b610484565b61043b565b61041f565b6103ac565b610389565b3461038457604036600319011261038457600435600052603560205260206103766024356040600020612790565b90546040519160031b1c8152f35b600080fd5b3461038457600036600319011261038457602060ff601754166040519015158152f35b34610384576020366003190112610384576103c5615ac6565b1561040d576103d333615b38565b80156103f9575b156103e757600435601855005b60405163ea8e4eb560e01b8152600490fd5b506005546001600160a01b031633146103da565b604051634ee2123760e11b8152600490fd5b3461038457600036600319011261038457602047604051908152f35b3461038457604036600319011261038457610457600435615323565b60405190600090825b6007831061046d5760e084f35b600190825181526020809101920192019190610460565b346103845760203660031901126103845760043560005260356020526020604060002054604051908152f35b6001600160a01b031690565b6001600160a01b0381160361038457565b3461038457602080600319360112610384576105406004356104ee816104bc565b6002546040516001600160a01b03928316858201528481529116610511826122a1565b6040519061051e826122a1565b601182527069735369676e657228616464726573732960781b85830152615cff565b91908061058a575b156105785781816105629261057494518301019101615ab1565b60405190151581529081906020820190565b0390f35b604051633204506f60e01b8152600490fd5b5080825114610548565b908152602081019190915260400190565b3461038457600036600319011261038457601e5460088110156105d75780602001549061057460405192839283610594565b61277a565b3461038457600036600319011261038457610016615713565b6000526034602052604060002090565b6000805260346020527f2dc2afdad33a5feea586a9545052327b65d28efb10d11fa69e77da986a1031cd90565b6103e76000526035602052600080516020615f6683398151915290565b600160005260306020527fc7874712a1c7fb891b421aa6c0d42dbf3cd912d7a18f183783fb32e938cbaa0190565b600460005260306020527f2f780f5a40ea4901ca784926540b83b7459f13a98fc8f78e5634eb2a01df3af590565b600052602a602052604060002090565b6000526031602052604060002090565b6000526033602052604060002090565b600260005260306020527f89a47dfbb363dd4e64da56b4585033c9abd8a425d24b94630469c44bee7189c290565b600360005260306020527f11a30d68d5ffd3a101d3683e9a6997d49d9351e95dc004c6a4e652b897626df790565b600660005260306020527fd558ed0e54509c62efb2aedb46e6ad1b04c7bdca351e3613e136c946b91686d890565b600760005260306020527f4ebb69666752feecd656ebf5f8cd3c2f1c70bb06a0c3d3744be479e4a580c23390565b600560005260306020527f9d0b70a39d4b3569f175af8ea51ae318eac80460c467ee4a16ee63ec5720706e90565b3461038457602036600319011261038457600435600052602a6020526020604060002054604051908152f35b6001600160a01b03169052565b6001600160a01b03909116815260200190565b34610384576000366003190112610384576000546040516001600160a01b039091168152602090f35b34610384576000366003190112610384576020603254604051908152f35b8015150361038457565b346103845760803660031901126103845760443560243560043560643561088481610854565b61088c615ac6565b1561040d5761089a33615b38565b801561091e575b156103e757156108e757916108da6108d56108e2936108cd6108c86100169760115461289b565b601155565b60145461289b565b601455565b60285461289b565b602855565b601154908103908111610919576011556014549081039081116109195760145560285490810390811161091957602855005b612828565b506005546001600160a01b031633146108a1565b3461038457600036600319011261038457602060ff60175460081c166040519015158152f35b34610384576000366003190112610384576100166125e1565b346103845760203660031901126103845760043561098e81610854565b610996615ac6565b1561040d576109a433615b38565b80156109c5575b156103e75760ff8019601754169115151617601755600080f35b506005546001600160a01b031633146109ab565b3461038457602036600319011261038457600435600052603160205260806040600020805490600181015490600281015490600360018060a01b039101541691604051938452602084015260408301526060820152f35b34610384576000366003190112610384576020601d54604051908152f35b6020908160408183019282815285518094520193019160005b828110610a75575050505090565b835185529381019392810192600101610a67565b3461038457600036600319011261038457601e546001810180821161091957610ab1816150b8565b90610abf60405192836122f3565b808252610ace601f19916150b8565b0191602092368484013760005b81811115610af157604051806105748582610a4e565b60088110156105d75780610b1291850154610b0c82866150cf565b5261283e565b610adb565b3461038457604036600319011261038457600435600052603360205260406000206024356000526020526020604060002054604051908152f35b3461038457602036600319011261038457600435610b6e81610854565b610b76615ac6565b1561040d57610b8433615b38565b8015610bb7575b156103e75715610ba557610ba0601f5461283e565b601f55005b601f5480156109195760001901601f55005b506005546001600160a01b03163314610b8b565b34610384576000366003190112610384576020601b54604051908152f35b606080918051845260208101516020850152604081015160408501520151910152565b6020908160408183019282815285518094520193019160005b828110610c33575050505090565b9091929382608082610c486001948951610be9565b01950193929101610c25565b3461038457604036600319011261038457602435600435818111610d38578082039182116109195760019081830180931161091957610c92836150b8565b92610ca060405194856122f3565b808452610caf601f19916150b8565b0160005b818110610d21575050816000905b610cd4575b604051806105748682610c0c565b8351811015610d1c5780610cfb610cf6610cf1610d16948661289b565b6105f5565b61545d565b610d0582876150cf565b52610d1081866150cf565b5061283e565b82610cc1565b610cc6565b602090610d2c615438565b82828801015201610cb3565b60405163baf3f0f760e01b8152600490fd5b34610384576000366003190112610384576020601854604051908152f35b34610384576000366003190112610384576020601f54604051908152f35b346103845760a036600319011261038457604435602435600435608435610dac81610854565b610db4615ac6565b1561040d57610dc233615b38565b8015610e81575b156103e75760009260009480610de9575b60405180610574888883610594565b9091929350601e549483600014610e4457506001610e2382610e3796610e1c610e14610e2c966105f5565b91825461289b565b90556105f5565b0191825461289b565b90555b6064356141ab565b601e549038808080610dda565b80826040925260346020522093845490810390811161091957610e71610e7a92600192610e3797556105f5565b0191825461285c565b9055610e2f565b506005546001600160a01b03163314610dc9565b346103845760c03660031901126103845760a435602435606435600435604435610ebe85610854565b610ec6615ac6565b1561040d57610ed433615b38565b80156111a9575b156103e757610ee9816105f5565b610ef483825461289b565b905560019384610f03836105f5565b01610f0f82825461289b565b9055610f19610605565b541515806111a0575b610f35575b601e54604051908152602090f35b159283159283611192575b610f96610f87610f516003546104b0565b60405190610f7982610f6b89602083019190602083019252565b03601f1981018452836122f3565b610f81613f2f565b90615cd4565b60208082518301019101613f5f565b93909492919a610fa8601d548861285c565b60843511918215611185575b508161117c575b50610fca575b50505050610f27565b600080516020615f46833981519152996110d997600090156111735750610ffd610ff761100393856129bd565b91612963565b906128a8565b965b600090156111695750610ff761101e93610ffd926129bd565b945b600261102b846105f5565b0161103786825461289b565b90556003611044846105f5565b0161105087825461289b565b90556001600052603560205280807f8e3caac72b6c5bb0462da38c8c8c3b5fbc00a646bd75367c23c11d594c4e36c95416148015611156575b61112d575b6004600052603560205280807f80eb70dc00a20ebf6b218a7aea19e260b164cf97e49b31f047fca6f74f8ff9ad541614908115611119575b506110eb575b60405194859433866129d0565b0390a138808080808080808080610fc1565b6110f361067d565b6110fe86825461289b565b905561111461110f86602b5461289b565b602b55565b6110cc565b809150611124610632565b541614386110c6565b61113561064f565b61114086825461289b565b905561115161110f86602b5461289b565b61108e565b508080611161610632565b541614611089565b9250505094611020565b91505096611005565b90501538610fbb565b601e541015915038610fb4565b61119b826140bc565b610f40565b50811515610f22565b506005546001600160a01b03163314610edb565b60c036600319011261038457600480356111d6816104bc565b6044356064359260843560a435916111ec615ac6565b156115ae576111fa33615b38565b801561159a575b1561157b5760175460ff811661158a5760081c60ff16156114af57611224612a02565b61123461123086615b38565b1590565b61157b5761124c611247603654856128a8565b602955565b602954611258816106ab565b5460375411801590611565575b61155557611272906106ab565b805460010190556065821495861561154e5761129d6112986112986112986003546104b0565b6104b0565b60206040518092631362d6d760e11b825281806112c18b8983019190602083019252565b03915afa9081156115495760009161151b575b50965b6114d5575b50601954156114be575b6112f96112f460195461283e565b601955565b6113886113826112986113738761130e61233a565b998b8b528160208c01528860408c015261133a60608c019b60008d526113356019546106bb565b612905565b61136e8c610f6b8b61134d6001546104b0565b60405163c85700fb60e01b6020820152968794916024803591908701612937565b615e8c565b60208082518301019101612316565b866128d7565b84516001600160a01b039061139c906104b0565b16156114af575090611493600080516020615f4683398151915293926113d86113c587516104b0565b60036113d26019546106bb565b016128e6565b6113ec6113e788600f5461289b565b600f55565b61141361140e611406611401603a54886129bd565b612974565b60155461289b565b601555565b6114566114376114216132e8565b60a061142e82888d6133f9565b910151906129bd565b966114476108e28960285461289b565b61145085612aba565b516104b0565b604080513381526001600160a01b03909216602083015281019490945260608401879052608084019290925260a0830191909152819060c0820190565b0390a16114a06001600d55565b61057460405192839283610594565b60405163baf3f0f760e01b8152fd5b6114c783601b55565b6114d083601c55565b6112e6565b60185490876114e4838361289b565b1061150a57876114fa611504936114ff9361289b565b61285c565b601855565b386112dc565b60405163baf3f0f760e01b81528390fd5b61153c915060203d8111611542575b61153481836122f3565b8101906128c8565b386112d4565b503d61152a565b61232e565b80966112d7565b50604051633204506f60e01b8152fd5b5060385485108061126557506039548511611265565b60405163ea8e4eb560e01b8152fd5b5060405163baf3f0f760e01b8152fd5b506005546001600160a01b03163314611201565b604051634ee2123760e11b8152fd5b34610384576020366003190112610384576004356115da816104bc565b6115e2615ac6565b1561040d576115f033615b38565b8015611605575b156103e75761001690615bf6565b506005546001600160a01b031633146115f7565b34610384576000366003190112610384576001546040516001600160a01b039091168152602090f35b34610384576000366003190112610384576020601e54604051908152f35b34610384576000366003190112610384576020601954604051908152f35b60403660031901126103845760ff60175416610d385761169c615ac6565b1561040d576116aa33615b38565b80156116f1575b156103e7576116be612a02565b6105746116cf602435600435612c62565b6001600d55604080519384526020840192909252908201529081906060820190565b506005546001600160a01b031633146116b1565b3461038457600036600319011261038457602061176760018060a01b0360065416604051611732816122a1565b601381527267657464656c656761746f72436f756e74282960681b848201526040519161175e836122bc565b60008352615de1565b604051908152f35b6040806003193601126103845760049081359160243560ff60175416611b3857611797612a02565b61179f615bb9565b90601b546117ad828261289b565b831115611b30576117be925061289b565b915b6117cf611247603654856128a8565b6117da6029546106ab565b5460375411611b23576117f76112986112986112986003546104b0565b8151637bd4bc1f60e11b815283810186815260209392919084908290819083010381855afa90811561154957600091611b06575b503403611af6579060c0849282519586809263d0bb2ddf60e01b82525afa801561154957600094858096819782938395611aba575b5081151580611aa8575b6119c6575b505050801515806119b4575b6118bb575b6118b1876118ac6118a78b61189f61189a34600e5461289b565b600e55565b60125461289b565b601255565b612aba565b6100166001600d55565b936118db61191b9392610ffd6118d584999b9798346129bd565b91612991565b80956118e7828b615c74565b6118fb6112986112986112986003546104b0565b8451634205de0f60e11b8152918201928352909485928391829160200190565b03915afa8015611549576118b197876118a796600080516020615f46833981519152956118ac9960009561198f575b505093513381526001600160a01b039092166020830152604082019290925260608101929092526080820152606f60a08201528060c081015b0390a193388080611880565b61198394955090816119ac92903d106115425761153481836122f3565b93923861194a565b506001600160a01b038616151561187b565b610ffd6118d56119d693346129bd565b906119e18282615c74565b6119f56112986112986112986003546104b0565b908786518093634205de0f60e11b82528180611a18888d83019190602083019252565b03915afa91821561154957600080516020615f46833981519152938b91600094611a83575b5087513381526001600160a01b039093166020840152604083019390935260608201929092526080810191909152606e60a08201528060c081015b0390a138808061186f565b611a7892919450611aa0908b3d8d116115425761153481836122f3565b939091611a3d565b506001600160a01b038316151561186a565b945050505050611ae291945060c03d8111611aef575b611ada81836122f3565b81019061306b565b9197949193909238611860565b503d611ad0565b8151633204506f60e01b81528490fd5b611b1d9150843d86116115425761153481836122f3565b3861182b565b51633204506f60e01b8152fd5b5050916117c0565b50905163baf3f0f760e01b8152fd5b346103845760a036600319011261038457600435611b64816104bc565b60243590611b71826104bc565b60643591611b7e83610854565b60405163ab6e844f60e01b81526001600160a01b039083821690602081600481855afa8015611549578391600091611c48575b501633036103e75715908115611c3d575b50610d3857611bd3611be09261548f565b611bdb6125e1565b615bf6565b611beb604435601a55565b611bfe575b608435611bfb610605565b55005b611c0e611c09615bb9565b601d55565b611c19601d54601b55565b611c24601d54601c55565b611c3861010061ff00196017541617601755565b611bf0565b905081161538611bc2565b611c69915060203d8111611c6f575b611c6181836122f3565b810190612316565b38611bb1565b503d611c57565b34610384576000366003190112610384576020601c54604051908152f35b3461038457600036600319011261038457610016613fb5565b34610384576020366003190112610384576020611cd4600435611ccf816104bc565b615b38565b6040519015158152f35b34610384576000366003190112610384576020601a54604051908152f35b3461038457602036600319011261038457600435611d18615ac6565b1561040d576005546001600160a01b031633036103e75760009060046020611d4361129885546104b0565b6040516311be646b60e21b815292839182905afa80156115495783808481949382948391611dc6575b505af1611d77615c44565b5015610578577fcdcc745fe377b103b45fa0cec23ae3ef93d6fc6a84a01f0d18c40b354dd1d5d8611dc0611daf611298600b546104b0565b604051938452929081906020820190565b0390a280f35b611dde915060203d8111611c6f57611c6181836122f3565b38611d6c565b3461038457602036600319011261038457611dfd61485f565b50611e06615bb9565b601b549060043582018092116109195761030091611e2c9181811115611f3e5750614c25565b611f3c60405191805183526020810151602084015260408101516040840152606081015160608401526080810151608084015260a081015160a084015260c081015160c084015260e081015160e0840152610100808201519084015261012080820151908401526101408082015190840152610160808201519084015261018080820151908401526101a080820151908401526101c080820151908401526101e0808201519084015261020080820151908401526102208082015190840152610240808201519084015261026080820151908401526102808082015190840152611f206102a0808301519085019015159052565b6102c0818101511515908401526102e090810151151590830152565bf35b9050614c25565b34610384576000366003190112610384576020602954604051908152f35b34610384576020366003190112610384576020611f8a600435611f85816104bc565b615f0e565b6040516001600160a01b039091168152f35b3461038457604036600319011261038457602435611fb981610854565b611fc1615ac6565b1561040d57611fcf33615b38565b801561207e575b156103e757611fe3615bb9565b906000916004358352603560205260408320805492831590811591612076575b81612056575b50612012578380f35b600160401b831015612051578261203191600161204a95018155612790565b90919082549060031b91821b91600019901b1916179055565b3880808380f35b612270565b15905061206d5760ff845b16600184161438612009565b60ff6001612061565b905080612003565b506005546001600160a01b03163314611fd6565b6020366003190112610384576120a6615ac6565b1561040d576120b433615b38565b80156120da575b156103e7576120c8612a02565b6120d3600435613101565b6001600d55005b506005546001600160a01b031633146120bb565b3461038457602036600319011261038457612107615438565b5060043560005260346020526080604060002060036040519161212983612286565b80548352600181015460208401526002810154604084015201546060820152611f3c6040518092610be9565b3461038457602080600319360112610384576105749060043590612178826104bc565b6006546040516001600160a01b03938416838201528281529216916121d8906121a0816122a1565b6040516121ac816122a1565b6018815277697364656c656761746f724e6f646528616464726573732960401b84820152600094615cff565b919080612212575b6121f9575b505060405190151581529081906020820190565b61220b92508082518301019101615ab1565b38806121e5565b50808251146121e0565b34610384576000366003190112610384576020611cd4615ac6565b34610384576000366003190112610384576020602854604051908152f35b34610384576000366003190112610384576020611767615bb9565b634e487b7160e01b600052604160045260246000fd5b608081019081106001600160401b0382111761205157604052565b604081019081106001600160401b0382111761205157604052565b602081019081106001600160401b0382111761205157604052565b61010081019081106001600160401b0382111761205157604052565b601f909101601f19168101906001600160401b0382119082101761205157604052565b90816020910312610384575161232b816104bc565b90565b6040513d6000823e3d90fd5b6040519061234782612286565b565b6040519061016082016001600160401b0381118382101761205157604052565b6040519061030082016001600160401b0381118382101761205157604052565b604051906102e082016001600160401b0381118382101761205157604052565b6040519060e082016001600160401b0381118382101761205157604052565b6001600160401b03811161205157601f01601f191660200190565b604051906123f0826122bc565b60008252565b60405190612403826122a1565b600f82526e6d696e744379636c6544617973282960881b6020830152565b6040519061242e826122a1565b60128252716d61784d696e74735065724379636c65282960701b6020830152565b6040519061245c826122a1565b600c82526b6d696e4d696e74517479282960a01b6020830152565b60405190612484826122a1565b600c82526b6d61784d696e74517479282960a01b6020830152565b604051906124ac826122a1565b600f82526e6d696e74466565506572517479282960881b6020830152565b604051906124d7826122a1565b601082526f65616368636c61696d4379636c65282960801b6020830152565b60405190612503826122a1565b601082526f6d696e436c61696d506572446179282960801b6020830152565b6040519061252f826122a1565b601082526f6d6178436c61696d506572446179282960801b6020830152565b6040519061255b826122a1565b60168252756d6178476c6f62616c436c61696d506572446179282960501b6020830152565b6040519061258d826122a1565b600982526863617070696e67282960b81b6020830152565b519061234782610854565b919082608091031261038457815191602081015191606060408301516125d581610854565b92015161232b81610854565b6125e9615713565b61234761277061277561275761273e61272f612719600361262b61262661261083546104b0565b6126186123f6565b6126206123e3565b91615de1565b603655565b61264861264361263b83546104b0565b612618612421565b603755565b61266561266061265883546104b0565b61261861244f565b603855565b61268261267d61267583546104b0565b612618612477565b603955565b61269f61269a61269283546104b0565b61261861249f565b603a55565b6126bc6126b76126af83546104b0565b6126186124ca565b603b55565b6126d96126d46126cc83546104b0565b6126186124f6565b603c55565b6126f66126f16126e983546104b0565b612618612522565b603d55565b61271361270e61270683546104b0565b61261861254e565b603e55565b546104b0565b612721612580565b6127296123e3565b91615cd4565b602080825183010191016125b0565b9592959390919360ff8019604154169115151617604155565b61ff0060415491151560081b169061ff00191617604155565b604055565b603f55565b634e487b7160e01b600052603260045260246000fd5b80548210156105d75760005260206000200190600090565b6103e76000526035602052600080516020615f66833981519152805492831580159190612820575b816127ff575b506127e057505050565b600160401b831015612051578261203191600161234795018155612790565b1590506128175760ff60005b166001841614386127d6565b60ff600161280b565b9050806127d0565b634e487b7160e01b600052601160045260246000fd5b60001981146109195760010190565b60001981019190821161091957565b9190820391821161091957565b90681b1ae4d6e2ef500000820180921161091957565b906001820180921161091957565b604701908160471161091957565b9190820180921161091957565b81156128b2570490565b634e487b7160e01b600052601260045260246000fd5b90816020910312610384575190565b6001600160a01b039091169052565b80546001600160a01b0319166001600160a01b03909216919091179055565b600361234792805183556020810151600184015560408101516002840155606060018060a01b039101511691016128e6565b9192608093969594919660a084019760018060a01b031684526020840152604083015260608201520152565b908160640291606483040361091957565b90670de0b6b3a76400009182810292818404149015171561091957565b9060648202918083046064149015171561091957565b9060198202918083046019149015171561091957565b8181029291811591840414171561091957565b919260a093969594919660c0840197600180871b03168452600060208501526040840152606083015260808201520152565b6002600d5414612a13576002600d55565b604051633ee5aeb560e01b8152600490fd5b9061234791805182526020810151602083015260408101516040830152606081015160608301526080810151608083015260a081015160a083015260c081015160c083015260e081015160e083015261010080820151908301526101208082015190830152612a9e610140808301519084019015159052565b61016081810151151590830152610180809101519101906107ed565b612ac2612bcc565b604051622adcd760e31b815290612add906004830190612a25565b60e0816101a48173__$e1247df8a8a3e3350a56478f11053bf229$__5af490811561154957600091612b14575b50612347916127a8565b9060e0823d8211612b52575b81612b2d60e093836122f3565b81010312612b4f57509060c0612347920151612b4881610854565b9091612b0a565b80fd5b3d9150612b20565b604051906101a082016001600160401b0381118382101761205157604052816101806000918281528260208201528260408201528260608201528260808201528260a08201528260c08201528260e0820152826101008201528261012082015282610140820152826101608201520152565b612bd4612b5a565b906000825260006020830152600f546040830152600e546060830152601554608083015260125460a083015260115460c083015260145460e0830152603f54610100830152604054610120830152612c4a60ff604154612c3f828260081c1661014087019015159052565b161515610160840152565b612347612c586003546104b0565b61018084016128d7565b600092839291821561057857601754612c7f9060081c60ff161590565b8015612f87575b612f7e57612c9690601b5461289b565b80831015612f755750612ca88261429f565b602c5492612cb9602d54809561289b565b90603c5482101580612f06575b15612efd5750612cf990603d54808211612ef5575b50808511612eef5784905b6114fa612cf483809861285c565b602d55565b93612d0e612d0986602c5461285c565b602c55565b612d1783601c55565b612d266108e28560285461285c565b60165492612d396108e28560285461285c565b612d436000601655565b612d576112986112986112986003546104b0565b60408051634205de0f60e11b808252600482018a905292946020929183816024818a5afa948515611549578b95612de9928491612ed2575b508451338152600060208201526040810191909152606081019690965260808601879052606b60a0870152600080516020615f4683398151915295869060c090a1848b855180948192858352600483019190602083019252565b03818b5afa8015611549578b879187948691612eb5575b508651338152600060208201526040810191909152606081019190915260808101899052606c60a082015260c090a18351908152600481018a905296879060249082905afa90811561154957612347968994879293612e92575b5050915133815260006020820152604081019190915260608101929092526080820152606d60a08201528060c081015b0390a1612f9e565b612e8a93509081612eae92903d106115425761153481836122f3565b9138612e5a565b612ecc9150853d87116115425761153481836122f3565b38612e00565b612ee99150863d88116115425761153481836122f3565b38612d8f565b80612ce6565b905038612cdb565b93505083612d17565b50603e54612f1e6112986112986112986004546104b0565b604051633cf29c4960e21b8152600481018790529190602090839060249082905afa918215611549578892612f55575b5011612cc6565b612f6e91925060203d81116115425761153481836122f3565b9038612f4e565b612ca89061429f565b50839250829150565b50612f97603b54601c549061289b565b8310612c86565b6103e76000526035602052600180604060002054160361306857612347907fb359d8408cffc6b8788774a87b59f0d5be825576ea5fdd7b0917fed6a07e803060e0600f54601154601454601554600e549160125493604051958652602086015260408501526060840152608083015260a08201528360c0820152a16130236000600f55565b61302d6000601155565b6130376000601455565b6130416000601555565b61304b6000600e55565b6130556000601255565b6118ac61306360325461283e565b603255565b50565b91908260c0910312610384578151613082816104bc565b91602081015191604082015191606081015161309d816104bc565b9160a0608083015192015190565b604051906130b8826122a1565b601382527255736572546f496e737428616464726573732960681b6020830152565b604051906130e7826122a1565b600b82526a6d696e74436f756e74282960a81b6020830152565b60175460081c60ff166130685760049060206131216112986000546104b0565b60405163111ea8c160e21b815293849182905afa91821561154957600092613295575b5060019161318661316a61317861315b86546104b0565b604051928391602083016107fa565b03601f1981018352826122f3565b6131806130ab565b83615d96565b6001600160a01b038116156132705760058311610578576131b76131a86130da565b6131b06123e3565b9083615de1565b92601992835491826131c9818361289b565b871115613267576131d99161289b565b915b15613257575b50846131eb6132e8565b955b613239575b5050508192505414908115613230575b5061320957565b613211613fb5565b61321c601b54601c55565b61234761010061ff00196017541617601755565b90501538613202565b81845410156132525761324c8684613c72565b806131ed565b6131f2565b613261908361374c565b386131e1565b505084916131db565b5050505061327f611c09615bb9565b61328a601d54601b55565b61321c601d54601c55565b6132ae91925060203d8111611c6f57611c6181836122f3565b9038613144565b908160e09103126103845780519160208201519160408101519160608201519160808101519160c060a083015192015190565b6040519060c082016001600160401b03811183821017612051576040526000808352602083019281845260408101918083526060820194818652608083019382855260a08401908382526004859860e061334c6112986112986112986003546104b0565b604051938480926316f0115b851b82525afa958615611549578098819782968395849261337d575b50525252525252565b9499509650509850506133a7915060e03d81116133bd575b61339f81836122f3565b8101906132b5565b9399949b9297919590509a989694929038613374565b503d613395565b9190916000838201938412911290801582169115161761091957565b8181039291600013801582851316918412161761091957565b61340e613419919493946020860151906129bd565b6060850151906129bd565b9061342d60408501516080860151906129bd565b612710908181029181830414901517156109195761345161346b916134a8946128a8565b946134796134606032546106cb565b61346b83518661289b565b600052602052604060002090565b6134848782546133c4565b905560a061349f6134966032546106cb565b9483519061289b565b9101519061289b565b6134b38382546133e0565b9055565b604051906134c4826122a1565b6017825276676574557365724f6c644461746128616464726573732960481b6020830152565b9081610160910312610384576134fe612349565b90805182526020810151602083015260408101516040830152606081015160608301526080810151608083015260a081015160a083015260c081015160c083015260e081015160e08301526101008082015190830152610120808201519083015261356d6101408092016125a5565b9082015290565b60405190613581826122a1565b600a825269647261776e616765282960b01b6020830152565b604051906135a7826122a1565b600c82526b4c53422875696e743235362960a01b6020830152565b604051906135cf826122a1565b6007825266626f6e7573282960c81b6020830152565b604051906135f2826122a1565b600682526563616765282960d01b6020830152565b60405190613614826122a1565b60188252776765744e6f64654c766c446570746828616464726573732960401b6020830152565b6001600160a01b039091168152602081019190915260400190565b9190826040910312610384576020825192015190565b60405190613679826122a1565b601e82527f6765746e6f6465526e6b41676528616464726573732c75696e743235362900006020830152565b60088110156105d75760200190600090565b604051906136c4826122a1565b601082526f6765744e6f646528616464726573732960801b6020830152565b908160a09103126103845780519160208201516136ff816104bc565b91604081015191608060608301516125d581610854565b60405190613723826122a1565b601a82527977697468647261776e496e636f6d654f6628616464726573732960301b6020830152565b91909161375a600a546104b0565b9260019061376882546104b0565b906040936137ad61379f8651806137836020978883016107fa565b0399613797601f199b8c81018452836122f3565b610f816134b7565b8480825183010191016134ea565b6137be611230610140830151151590565b613b9c576108d5816138ce92516137d361064f565b558581019081516137e26106db565b556138b56108c88a830180516137f6610709565b556138ad6060850191825161380961067d565b556138ad6080870197885161381c610737565b5560a0880197885161382c610765565b5561383b610100820151602e55565b613849610120820151602f55565b61385660c0820151602855565b61389761389261388a61388261387a613872865188519061289b565b89519061289b565b8a519061289b565b8d519061289b565b8b519061289b565b601055565b6138a460e0820151601355565b5190519061289b565b90519061289b565b876000925111613b8b575b51613b7d575b60135461285c565b6138f06138eb6138dc613574565b6138e46123e3565b9084615de1565b601b55565b601b5461394561392a875161391c81613910868a83019190602083019252565b038c81018352826122f3565b61392461359a565b85615e1d565b916139366032546106cb565b90600052602052604060002090565b556139546114ff6138dc6135c2565b613962611c096138dc6135e5565b613991855161398381613977858883016107fa565b038a81018352826122f3565b61398b613607565b84615de1565b60005b818110613ac3575050613a0b6139fd6139e960049899946139f5613a22956139cb61140e6114018c6139c4610605565b01546129a7565b6139dc6139d6610605565b54600f55565b8a519384918a83016107fa565b038781018452836122f3565b610f816136b7565b8480825183010191016136e3565b935050505060ff8019601754169115151617601755565b81613a316112986000546104b0565b85516318c9774160e21b815296879182905afa91821561154957613a8f95600093613a9a575b50613a75613a69613a819495546104b0565b955195869283016107fa565b039081018452836122f3565b613a89613716565b90615de1565b613a97610793565b55565b613a819350613a69613abb613a7592843d8611611c6f57611c6181836122f3565b945050613a57565b613b3d90613b0e613b008951632994ed6560e11b89820152613afa8d82613aee878b6024840161363b565b039081018352826122f3565b87615e8c565b878082518301019101613656565b90613b18836105f5565b5587613b23836105f5565b0155858885838d60088210613b42575b505050505061283e565b613994565b613b7394613aee613b5c93613b6a9651958693840161363b565b613b6461366c565b88615de1565b612031836136a5565b858885838d613b33565b613b8690612869565b6138c6565b6802b5e3af16b188000091506138c0565b855163ea8e4eb560e01b8152600490fd5b60405190613bba826122a1565b600e82526d6d696e74732875696e743235362960901b6020830152565b60405190613be4826122a1565b600b82526a6d696e746564416765282960a81b6020830152565b60405190613c0b826122a1565b600b82526a6d696e746564717479282960a81b6020830152565b60405190613c32826122a1565b600c82526b6964732875696e743235362960a01b6020830152565b60405190613c5a826122a1565b60098252686d696e74416d74282960b81b6020830152565b919091601992613c866112f4855460010190565b60008052602a6020527f25a1a901705ed15d5376e82511cff743d9474883c82d145cebcc7811e0424a9c613cba815461283e565b905583546040805160208082018490528082529196601f19959091613cf191613ce38a836122f3565b613ceb613bad565b90615d96565b91613d0c613cfd613bd7565b613d056123e3565b9085615de1565b93613da8613d2a613d1b613bfe565b613d236123e3565b9087615de1565b97613d598b51613d5181613d45888201906000602083019252565b038481018352826122f3565b613b64613c25565b92848c613d76613d67613c4d565b613d6f6123e3565b908b615de1565b98613d8e613d886112986000546104b0565b91615f0e565b915180809781946333ea87db60e21b8352600483016107fa565b03915afa92831561154957600093613f10575b50613dc861123084615b38565b613eff5792613e41949261136e613e34938e613a758c8f8d908260028f613e0d906112989f613df787916106bb565b55846001613e0583546106bb565b0155546106bb565b0155613e1a6001546104b0565b945163c85700fb60e01b8c82015298899560248701612937565b8051810182019101612316565b936001600160a01b03851615613eee5796600182613e85600080516020615f46833981519152999a613e7e8960036113d2613ed09b9a99546106bb565b86866133f9565b50541480613ee3575b613ed5575b513381526001600160a01b039094166020850152604084019490945260608301939093526080820192909252600060a082015290819060c0820190565b0390a1565b613ede83601b55565b613e93565b5082601b5410613e8e565b875163baf3f0f760e01b8152600490fd5b8b5163ea8e4eb560e01b8152600490fd5b613f28919350853d8711611c6f57611c6181836122f3565b9138613dbb565b60405190613f3c826122a1565b60148252736c6576656c436c617573652875696e743235362960601b6020830152565b908160a0910312610384578051916020820151916040810151916080606083015192015190565b60405190613f93826122a1565b601382527272616e6b436c617573652875696e743235362960681b6020830152565b613fbd615bb9565b600190815b60088110613fcf57505050565b61406890614014613fe16003546104b0565b614007604051602092613fff82610f6b888783019190602083019252565b610f81613f86565b8051810182019101613f5f565b50505090601f54101590816140a6575b5080614093575b156140765761404661403c826136a5565b90549060031b1c90565b1561406d5761406361405a61403c836136a5565b613b6a83601e55565b61283e565b613fc2565b6140638361405a565b614063614082826136a5565b8154906000199060031b1b19169055565b50601e546140a08261284d565b1461402b565b9050846140b2836105f5565b0154101538614024565b601e906140c9825461287f565b600881106140d657505050565b6140e16003546104b0565b6141046040916140078351602092613fff82610f6b898783019190602083019252565b5050509183158015906141a3575b80614193575b61418357509061413f9291601f541015908161416c575b508061415a575b6141445761283e565b6140c9565b61414d81601e55565b61406383612031836136a5565b5083546141668261284d565b14614136565b90506001614179836105f5565b015410153861412f565b5163baf3f0f760e01b8152600490fd5b5081158061411857508215614118565b506001614112565b9091906000831561424057506141c2601e5461287f565b831561429457600881105b1561428e576141dd6003546104b0565b6142006040916140078351602092613fff82610f6b898783019190602083019252565b505050918315801590614287575b80614277575b6141835750906142409291601f5410159081614260575b5085156142525780614245576141445761283e565b6141c2565b50601e546141668261284d565b156140765761406381601e55565b9050600161426d836105f5565b015410153861422b565b5081158061421457508215614214565b508661420e565b50509050565b601e548111156141cd565b6142a881614c25565b906142ff612d096142f76142ec6142e16142d66142cb885160208a01519061289b565b60608901519061289b565b60808801519061289b565b60a08701519061289b565b60c08601519061289b565b602c5461289b565b61436c61110f61436461435861434c61434061433461432860e08a01516101008b01519061289b565b6101208a01519061289b565b6101408901519061289b565b6101608801519061289b565b6101808701519061289b565b6101a08601519061289b565b602b5461289b565b61437f612cf46040840151602d5461289b565b61439861439361012084015160165461289b565b601655565b6143a8825160e08401519061289b565b6143b3610e1461064f565b90556143c960208301516101008401519061289b565b6143d4610e146106db565b90556143ea60408301516101208401519061289b565b6143f5610e14610709565b905561440b60608301516101408401519061289b565b614416610e1461067d565b905561442c60808301516101608401519061289b565b614437610e14610793565b905561444d60a08301516101808401519061289b565b614458610e14610737565b905561446e60c08301516101a08401519061289b565b614479610e14610765565b905560005b6007811061473557506101c08201516144a761449f836139366032546106cb565b9182546133c4565b90556144b281601b55565b61451961450d6145016144f56144ea6144df6144d4885160208a01519061289b565b60408901519061289b565b60608801519061289b565b60e08701519061289b565b6101008601519061289b565b6101208501519061289b565b6101408401519061289b565b80600081156147285750506145386112986112986112986003546104b0565b604051634205de0f60e11b81526004810183905290602090829060249082905afa801561154957826145f89161461c93600091614709575b505b6145816108d58260145461289b565b6145906108c88360115461289b565b604080513381526000602082015290810191909152606081019490945260808401859052604e60a0850152600080516020615f4683398151915293849060c090a16145f26145e7608088015160a08901519061289b565b60c08801519061289b565b9061289b565b6145f26146106101608701516101808801519061289b565b6101a08701519061289b565b92600084156146f7575061463a6112986112986112986003546104b0565b604051634205de0f60e11b8152600481018690529190602090839060249082905afa92831561154957612347956146d2946102a0946000916146d8575b505b61468d6146888260135461289b565b601355565b61469c6138928360105461289b565b604080513381526000602082015290810191909152606081019190915260808101869052604f60a082015260c090a10151151590565b906127a8565b6146f1915060203d6020116115425761153481836122f3565b38614677565b906146d292612347956102a093614679565b614722915060203d6020116115425761153481836122f3565b38614570565b61461c916145f891614572565b6001908061477857600080516020615f46833981519152845160e0860151905b61476f6147618561288d565b8760405194859433866129d0565b0390a10161447e565b80820361479f57600080516020615f46833981519152602085015161010086015190614755565b600281036147c757600080516020615f46833981519152604085015161012086015190614755565b600381036147ef57600080516020615f46833981519152606085015161014086015190614755565b6004810361481757600080516020615f46833981519152608085015161016086015190614755565b6005810361483f57600080516020615f4683398151915260a085015161018086015190614755565b600080516020615f4683398151915260c08501516101a086015190614755565b614867612369565b9060008083528060208401528060408401528060608401528060808401528060a08401528060c08401528060e08401528061010084015280610120840152806101408401528061016084015280610180840152806101a0840152806101c0840152806101e08401528061020084015280610220840152806102408401528061026084015280610280840152806102a0840152806102c08401526102e0830152565b90816103009103126103845761491c612369565b90805182526020810151602083015260408101516040830152606081015160608301526080810151608083015260a081015160a083015260c081015160c083015260e081015160e0830152610100808201519083015261012080820151908301526101408082015190830152610160808201519083015261018080820151908301526101a080820151908301526101c080820151908301526101e08082015190830152610200808201519083015261022080820151908301526102408082015190830152610260808201519083015261028080820151908301526102a0614a048183016125a5565b908301526102c0614a168183016125a5565b9083015261356d6102e08092016125a5565b6000915b60088310614a3957505050565b600190825181526020809101920192019190614a2c565b906080604061234793614a6e84825160208091805184520151910152565b614a8960208201518386019060208091805184520151910152565b015191019060208091805184520151910152565b90815180825260208080930193019160005b828110614abd575050505090565b835185529381019392810192600101614aaf565b6106008161232b9360208252805160208301526020810151604083015260408101516060830152614b0a60608201516080840190614a28565b614c146080820151614b23610180918286019015159052565b614c068460a0850151926101a0938483015260c0860151936101c0948584015260e08701516101e09081850152610100880151610200908186015261012089015191614b7561022093848801906107ed565b6101408a015193614b8c61024095868901906107ed565b614bb56101608c015196614ba661026098898b01906107ed565b8c0151610280809901906107ed565b8a0151976102a098898d01528a01516102c0809c01528901516102e08d01528801516103008c01528701516103208b01528601516103408a0152850151610360890152840151610380880190612a25565b820151610520860190614a50565b0151916105e0808201520190614a9d565b614c2d61485f565b50614c36614f76565b614c416003546104b0565b6040516395bf75fd60e01b8152909260c0826004816001600160a01b0388165afa801561154957614e4a94614c89614cfd92614e2595600091614e9c575b5015156080870152565b614c916152b0565b9060a087019060c088019283528152614cb3614cab61064f565b54825161285c565b9052614cc0614cab61067d565b9052828552601b546020860152601e546040860152614cdd615083565b606086015260285460e0860152602d5461010086015261012085016128d7565b614d15614d0b6004546104b0565b61014085016128d7565b614d2d614d236009546104b0565b61016085016128d7565b614d45614d3b6001546104b0565b61018085016128d7565b614d4d610793565b546101a0840152614d5c610737565b546101c0840152614d6b610765565b546101e0840152614d7a610632565b546102008401527fa08b36b7ba7f4defefa1c8f3c69a108432bbe4655c8244397472448770784778546102208401527f8c201e80a21b907aa5b47fe57132b3746ed081b3b8b146bb189ca4224d85a0c354610240840152600760005260356020527f4cdc807314a0b9d33865fa60bdf0631878a9fab6f09e457a18b589bf84168f6c54610260840152614e0b612bcc565b610280840152614e1a816150e3565b6102c084015261517d565b6102a0820152604051906394e6d3bb60e01b8252818061030094859360048301614ad1565b038173__$e1247df8a8a3e3350a56478f11053bf229$__5af491821561154957600092614e7657505090565b61232b9250803d10614e95575b614e8d81836122f3565b810190614908565b503d614e83565b614ebd915060c03d8111614ec9575b614eb581836122f3565b81019061502e565b94505050505038614c7f565b503d614eab565b60405190614edd826122d7565b610100368337565b6040519060e082016001600160401b038111838210176120515760405260e0368337565b60408051919082016001600160401b038111838210176120515760405260006020838281520152565b60405190606082016001600160401b038111838210176120515760405281614f58614f09565b8152614f62614f09565b60208201526040614f71614f09565b910152565b614f7e612389565b906000808352806020840152806040840152614f98614ed0565b60608401528060808401528060a08401528060c08401528060e08401528061010084015280610120840152806101408401528061016084015280610180840152806101a0840152806101c0840152806101e0840152806102008401528061022084015280610240840152610260830152615010612b5a565b61028083015261501e614f32565b6102a083015260606102c0830152565b91908260c091031261038457815161504581610854565b91602081015161505481610854565b91604082015161506381610854565b91606081015161507281610854565b9160a060808301516125d581610854565b604051906020600081845b600883106150a35750505050612347826122d7565b6001828192865481520194019201919261508e565b6001600160401b0381116120515760051b60200190565b80518210156105d75760209160051b010190565b90601b54808303928311610919576150fa836150b8565b9260409361510a855191826122f3565b818152601f19615119836150b8565b01946020953687840137819560009081603254905b86811061513f575050505050505050565b818452603383528484209080890191828a116109195760019261516b9190600052602052604060002090565b5461517682896150cf565b520161512e565b906151b6615189614f32565b92615193816151c4565b8551906020820152526151a58161523a565b602086015190602082015252615275565b604084015190602082015252565b906103e760005260356020526040600020805490811561523457600182161593841561522b5760ff60025b168303838111610919576152039083612790565b90549060031b1c94600014615225575061521f61403c9261284d565b90612790565b91505090565b60ff60016151ef565b50508190565b90600260005260356020526040600020805490811561523457600182161593841561522b576001198301838111610919576152039083612790565b90600360005260356020526040600020805490811561523457600182161593841561522b576001198301838111610919576152039083612790565b600090816001815b600f8211156152dd575050602e5481018091116109195761232b9092602f549061289b565b90938482526034926020938085526040906002828620015483018093116109195760039295888652528320015481018091116109195761531d909461283e565b906152b8565b9061532c614ee5565b91600181146153cb57600281146153885760031461534657565b90506153506123a9565b600f548152601554602082015260105460408201526013546060820152600e54608082015260125460a082015260145460c082015290565b5090506153936123a9565b602c548152602d546020820152602b5460408201526016546060820152602e546080820152602f5460a082015260115460c082015290565b5090506153d66123a9565b6153de61064f565b5481526153e96106db565b5460208201526153f7610709565b54604082015261540561067d565b546060820152615413610793565b546080820152615421610737565b5460a082015261542f610765565b5460c082015290565b6040519061544582612286565b60006060838281528260208201528260408201520152565b9060405161546a81612286565b6060600382948054845260018101546020850152600281015460408501520154910152565b6001600160a01b039081169081156154db576000548260018060a01b0319821617600055167fe939feee179e631422bcc8f6e6d7d908cb3f8af38f5372f17c77e15aea5c80ee600080a3565b60405163e6c4247b60e01b8152600490fd5b6156f16101406123479261552661550482516104b0565b600280546001600160a01b0319166001600160a01b0392909216919091179055565b61555861553660208301516104b0565b600380546001600160a01b0319166001600160a01b0392909216919091179055565b61558a61556860408301516104b0565b600480546001600160a01b0319166001600160a01b0392909216919091179055565b6155bc61559a60608301516104b0565b600580546001600160a01b0319166001600160a01b0392909216919091179055565b6155ee6155cc60808301516104b0565b600680546001600160a01b0319166001600160a01b0392909216919091179055565b6156206155fe60a08301516104b0565b600780546001600160a01b0319166001600160a01b0392909216919091179055565b61565261563060c08301516104b0565b600880546001600160a01b0319166001600160a01b0392909216919091179055565b61568461566260e08301516104b0565b600980546001600160a01b0319166001600160a01b0392909216919091179055565b6156b76156956101008301516104b0565b600a80546001600160a01b0319166001600160a01b0392909216919091179055565b6156ea6156c86101208301516104b0565b600b80546001600160a01b0319166001600160a01b0392909216919091179055565b01516104b0565b600c80546001600160a01b0319166001600160a01b0392909216919091179055565b600061572261129882546104b0565b60408051634bf9c0ad60e11b8152929190600490602080868481875afa958615611549578596615a92575b50815163cfbffe5360e01b81529181838581885afa928315611549578693615a73575b50805163ab6e844f60e01b815282818681895afa908115611549578791615a56575b508151630536340960e21b8152838187818a5afa908115611549578891615a39575b50825163d1f956b160e01b815291848388818b5afa928315611549578993615a1a575b508351631cc3bfab60e31b815293858589818c5afa948515611549578a956159fb575b50805163e09d394d60e01b81529686888a818d5afa9687156115495789988c986159dc575b5082516314ac1b5960e21b81529881908a90818e5afa988915611549578c996159bd575b5082519963013cf08b60e01b8b52818b8d8180615867868201906000602083019252565b03915afa9a8b15611549578d9b61599e575b508351635e09dbe760e01b81529b828d8381845afa9c8d15611549578e9d61597d575b508290855192838092635506ee0b60e11b82525afa9c8d15611549579c61595e575b506158c7612349565b9c6158d2908e6128d7565b8c01906158de916128d7565b8a01906158ea916128d7565b6158f79060608a016128d7565b61590490608089016128d7565b6159119060a088016128d7565b61591e9060c087016128d7565b61592b9060e086016128d7565b6159399061010085016128d7565b6159479061012084016128d7565b6159559061014083016128d7565b612347906154ed565b81615976929d508d3d10611c6f57611c6181836122f3565b9a386158be565b83919d5061599790823d8411611c6f57611c6181836122f3565b9c9061589c565b6159b6919b50823d8411611c6f57611c6181836122f3565b9938615879565b816159d5929a503d8b11611c6f57611c6181836122f3565b9738615843565b816159f49299503d8a11611c6f57611c6181836122f3565b963861581f565b615a13919550863d8811611c6f57611c6181836122f3565b93386157fa565b615a32919350853d8711611c6f57611c6181836122f3565b91386157d7565b615a509150843d8611611c6f57611c6181836122f3565b386157b4565b615a6d9150833d8511611c6f57611c6181836122f3565b38615792565b615a8b919350823d8411611c6f57611c6181836122f3565b9138615770565b81615aaa9297503d8811611c6f57611c6181836122f3565b943861574d565b90816020910312610384575161232b81610854565b600254604051615b0e916001600160a01b031690615ae3816122a1565b6008815267697353616665282960c01b602082015260405191615b05836122bc565b60008352615cff565b9080615b2d575b15610578578060208061232b93518301019101615ab1565b506020815114615b15565b615b9260018060a01b038060025416604051916020941684830152838252615b5f826122a1565b60405190615b6c826122a1565b601582527469735365637572654261736528616464726573732960581b85830152615cff565b9080615baf575b15610578578161232b9282518301019101615ab1565b5081815114615b99565b60035460405161232b916001600160a01b031690615bd6816122a1565b600681526569416765282960d01b60208201526040519161175e836122bc565b6001600160a01b039081169081156154db57600180546001600160a01b031981168417909155167f8292fce18fa69edf4db7b94ea2e58241df0ae57f97e0a6c9b29067028bf92d76600080a3565b3d15615c6f573d90615c55826123c8565b91615c6360405193846122f3565b82523d6000602084013e565b606090565b908015615cd0576001600160a01b0382169182156154db57600080808481945af1615c9d615c44565b50156105785760207fcec1f18c3ab8ddaaa107a1591e3c369667eec613626611a8deaedef43069fcdd91604051908152a2565b5050565b90615cdf9291615cff565b9060009015615cec575090565b6040519150615cfa826122bc565b815290565b9190823b15615d7d578051906020918263ffffffff60e01b92012016916040519180830193845281519160005b838110615d69575050509181615d59602482600097959688970187838201520360048101845201826122f3565b51915afa615d65615c44565b9091565b818101830151858201602401528201615d2c565b505050600090604051615d8f816122bc565b6000815290565b9291615da491600094615cff565b9080615dd6575b615db25750565b80519192506001600160a01b0391615dd291602091810182019101612316565b1690565b506020815114615dab565b9291615def91600094615cff565b9080615e12575b615dfd5750565b61232b919250602080825183010191016128c8565b506020815114615df6565b9291615e2b91600094615cff565b9080615e50575b615e395750565b909150602081805181010312610384576020015190565b506020815114615e32565b906020825192015163ffffffff60e01b908181169360048110615e7d57505050565b60040360031b82901b16169150565b6001600160a01b038116156154db57600080918351908260208601915af190615eb3615c44565b9115615ebd575090565b805160009190600411615f0857615ed49150615e5b565b815115615ee45750805190602001fd5b604051630870274d60e21b81526001600160e01b0319919091166004820152602490fd5b50615ed4565b803b6000615f1b826123c8565b92615f2960405194856122f3565b82845260208401903c602d815110610d3857602a015160601c9056fe1517c86fcf2bfb8e3468afcc539b0004955da8027797c497ea51d1f1094ab898ecdfbf0bdef04c31b6b583fa641eb3fda9723c1027ee16c0cdd8e9ef0f675d99a26469706673582212205c74012fd7eb8d50a0e1280152194d906a6fae158e800dceb4941f0734ac22c864736f6c63430008140033","linkReferences":{"src_19JulyUpdated01Jan/lib/InstanceLib.sol":{"InstanceLib":[{"start":11205,"length":20},{"start":20269,"length":20}]}}},"methodIdentifiers":{"Burn(uint256)":"b90306ad","BurnCoin(uint256,uint256)":"a5d7cda4","LSB(uint256,uint256)":"6f493aad","TVL()":"edaf2d2e","_delegatorCount()":"a1f7f539","_getImplementation(address)":"c54e44b0","_isDelegatorNode(address)":"e01ad5fd","_isSafe()":"e0a9bc2b","_isSecureBase(address)":"af484526","_isSigner(address)":"1f185d16","_txnType107(uint256,uint256)":"a1c25c86","_txnType_101_100(address,uint256,uint256,uint256,uint256,uint256)":"87acdff7","activedirectsCount()":"799e4c45","addLevelnGetRank(uint256,uint256,uint256,uint256,uint256,bool)":"822ffec4","bonus()":"75b4d78c","cage()":"69245009","currentCycle()":"bab2f552","currentLSBversion()":"43a1b5ab","dage()":"725b6fff","getAllComputeData(uint256)":"b9f1a394","getAllData(uint256,uint256)":"12964120","getBalance()":"12065fe0","getHexbase()":"3b9b7955","getNodeLB(uint256)":"da021335","getNodeLvlInfoBatch(uint256,uint256)":"759f22bd","getRankAgeInBatch()":"6de97c66","getRankWithAgeValue()":"29ee350e","getToggleAgeCount(uint256)":"143ec3b7","getToggleAgeValue(uint256,uint256)":"043719b4","id()":"af640d0f","importOld(uint256)":"d3abb8a3","isLock()":"09d8da2e","mintCount()":"9659867e","mints(uint256)":"6350b2c2","moveLvlIncome(uint256,uint256,uint256,uint256,bool)":"7b058ac1","owner()":"8da5cb5b","postInit()":"4a65786c","preinit(address,address,uint256,bool,uint256)":"a93491f3","rank()":"934209ce","resetRank()":"ab57c03a","setActivedirect(bool)":"711e5870","setBonus(uint256)":"0b98f975","setLock(bool)":"619d5194","setSuspend(uint256,bool)":"c8ef7b1a","setcapclaim(uint256,uint256,uint256,bool)":"47a09a1d","storcache()":"5ecf6a8a","syncBaseAddr()":"339459a6","systemAge()":"fdc10bc9","updateOwner(address)":"880cdc31","userCycleMintCount(uint256)":"39b4d61b","withdrawlDage()":"a9bf285b"},"id":52}