{"abi":[{"type":"constructor","inputs":[{"name":"_hex","type":"address","internalType":"address"}],"stateMutability":"nonpayable"},{"type":"fallback","stateMutability":"payable"},{"type":"receive","stateMutability":"payable"},{"type":"function","name":"Burn","inputs":[{"name":"amount","type":"uint256","internalType":"uint256"}],"outputs":[],"stateMutability":"nonpayable"},{"type":"function","name":"BurnCoin","inputs":[],"outputs":[],"stateMutability":"payable"},{"type":"function","name":"LSB","inputs":[{"name":"","type":"uint256","internalType":"uint256"}],"outputs":[{"name":"","type":"int256","internalType":"int256"}],"stateMutability":"view"},{"type":"function","name":"_compute","inputs":[{"name":"endage","type":"uint256","internalType":"uint256"}],"outputs":[{"name":"r","type":"tuple","internalType":"struct InstanceStor.ComputeResult","components":[{"name":"p1","type":"uint256","internalType":"uint256"},{"name":"p2","type":"uint256","internalType":"uint256"},{"name":"p3","type":"uint256","internalType":"uint256"},{"name":"p4","type":"uint256","internalType":"uint256"},{"name":"p5","type":"uint256","internalType":"uint256"},{"name":"f1","type":"uint256","internalType":"uint256"},{"name":"f2","type":"uint256","internalType":"uint256"},{"name":"f3","type":"uint256","internalType":"uint256"},{"name":"f4","type":"uint256","internalType":"uint256"},{"name":"f5","type":"uint256","internalType":"uint256"},{"name":"lsb","type":"int256","internalType":"int256"}]}],"stateMutability":"view"},{"type":"function","name":"_delegatorCount","inputs":[],"outputs":[{"name":"","type":"uint256","internalType":"uint256"}],"stateMutability":"view"},{"type":"function","name":"_getImplementation","inputs":[{"name":"clone","type":"address","internalType":"address"}],"outputs":[{"name":"impl","type":"address","internalType":"address"}],"stateMutability":"view"},{"type":"function","name":"_importOld","inputs":[{"name":"limit","type":"uint256","internalType":"uint256"}],"outputs":[],"stateMutability":"payable"},{"type":"function","name":"_isDelegatorNode","inputs":[{"name":"sender","type":"address","internalType":"address"}],"outputs":[{"name":"","type":"bool","internalType":"bool"}],"stateMutability":"view"},{"type":"function","name":"_isSafe","inputs":[],"outputs":[{"name":"","type":"bool","internalType":"bool"}],"stateMutability":"view"},{"type":"function","name":"_isSecureBase","inputs":[{"name":"sender","type":"address","internalType":"address"}],"outputs":[{"name":"","type":"bool","internalType":"bool"}],"stateMutability":"view"},{"type":"function","name":"_isSigner","inputs":[{"name":"sender","type":"address","internalType":"address"}],"outputs":[{"name":"","type":"bool","internalType":"bool"}],"stateMutability":"view"},{"type":"function","name":"_txnType7","inputs":[{"name":"_maxint","type":"uint256","internalType":"uint256"},{"name":"_ag","type":"uint256","internalType":"uint256"}],"outputs":[{"name":"CALC_INC","type":"uint256[8]","internalType":"uint256[8]"}],"stateMutability":"payable"},{"type":"function","name":"_txnType_1_0","inputs":[{"name":"paramAdd","type":"address","internalType":"address"},{"name":"_id_maxint","type":"uint256","internalType":"uint256"},{"name":"_qty","type":"uint256","internalType":"uint256"},{"name":"_msgValue","type":"uint256","internalType":"uint256"},{"name":"_type","type":"uint256","internalType":"uint256"}],"outputs":[{"name":"_tvl","type":"uint256","internalType":"uint256"},{"name":"_amt","type":"uint256","internalType":"uint256"}],"stateMutability":"payable"},{"type":"function","name":"addLevelnGetRank","inputs":[{"name":"_direct","type":"uint256","internalType":"uint256"},{"name":"_amount","type":"uint256","internalType":"uint256"},{"name":"_qty","type":"uint256","internalType":"uint256"},{"name":"_yeildlevel","type":"uint256","internalType":"uint256"},{"name":"_level","type":"uint256","internalType":"uint256"},{"name":"_epochAge","type":"uint256","internalType":"uint256"},{"name":"_free","type":"uint256","internalType":"uint256"},{"name":"_irank","type":"uint256","internalType":"uint256"}],"outputs":[{"name":"lastrnk","type":"uint256","internalType":"uint256"},{"name":"currentrnk","type":"uint256","internalType":"uint256"}],"stateMutability":"nonpayable"},{"type":"function","name":"bonus","inputs":[],"outputs":[{"name":"","type":"uint256","internalType":"uint256"}],"stateMutability":"view"},{"type":"function","name":"cage","inputs":[],"outputs":[{"name":"","type":"uint256","internalType":"uint256"}],"stateMutability":"view"},{"type":"function","name":"capStatus","inputs":[],"outputs":[{"name":"totalIncome","type":"uint256","internalType":"uint256"},{"name":"threshold","type":"uint256","internalType":"uint256"},{"name":"_cap","type":"bool","internalType":"bool"},{"name":"currentValue","type":"uint256","internalType":"uint256"}],"stateMutability":"view"},{"type":"function","name":"comp","inputs":[{"name":"ag","type":"uint256","internalType":"uint256"},{"name":"maxRank","type":"uint256","internalType":"uint256"}],"outputs":[{"name":"roy","type":"uint256","internalType":"uint256"},{"name":"rage","type":"uint256","internalType":"uint256"},{"name":"cond","type":"bool","internalType":"bool"}],"stateMutability":"view"},{"type":"function","name":"dage","inputs":[],"outputs":[{"name":"","type":"uint256","internalType":"uint256"}],"stateMutability":"view"},{"type":"function","name":"getAllIncome","inputs":[{"name":"typeId","type":"uint256","internalType":"uint256"},{"name":"maxinterwal","type":"uint256","internalType":"uint256"}],"outputs":[{"name":"values","type":"uint256[5]","internalType":"uint256[5]"}],"stateMutability":"view"},{"type":"function","name":"getBalance","inputs":[],"outputs":[{"name":"","type":"uint256","internalType":"uint256"}],"stateMutability":"view"},{"type":"function","name":"getHexbase","inputs":[],"outputs":[{"name":"","type":"address","internalType":"address"}],"stateMutability":"view"},{"type":"function","name":"getNodeLB","inputs":[{"name":"_level","type":"uint256","internalType":"uint256"}],"outputs":[{"name":"","type":"uint256","internalType":"uint256"},{"name":"","type":"uint256","internalType":"uint256"},{"name":"","type":"uint256","internalType":"uint256"},{"name":"","type":"uint256","internalType":"uint256"}],"stateMutability":"view"},{"type":"function","name":"getToggleAgeCount","inputs":[{"name":"key","type":"uint256","internalType":"uint256"}],"outputs":[{"name":"","type":"uint256","internalType":"uint256"}],"stateMutability":"view"},{"type":"function","name":"getToggleAgeValue","inputs":[{"name":"key","type":"uint256","internalType":"uint256"},{"name":"index","type":"uint256","internalType":"uint256"}],"outputs":[{"name":"","type":"uint256","internalType":"uint256"}],"stateMutability":"view"},{"type":"function","name":"id","inputs":[],"outputs":[{"name":"","type":"uint256","internalType":"uint256"}],"stateMutability":"view"},{"type":"function","name":"isLock","inputs":[],"outputs":[{"name":"","type":"bool","internalType":"bool"}],"stateMutability":"view"},{"type":"function","name":"levelRestrictionAge","inputs":[],"outputs":[{"name":"","type":"uint256","internalType":"uint256"}],"stateMutability":"view"},{"type":"function","name":"mintCount","inputs":[],"outputs":[{"name":"","type":"uint256","internalType":"uint256"}],"stateMutability":"view"},{"type":"function","name":"mints","inputs":[{"name":"","type":"uint256","internalType":"uint256"}],"outputs":[{"name":"amt","type":"uint256","internalType":"uint256"},{"name":"qty","type":"uint256","internalType":"uint256"},{"name":"mage","type":"uint256","internalType":"uint256"},{"name":"nft","type":"address","internalType":"address"}],"stateMutability":"view"},{"type":"function","name":"moveLvlIncome","inputs":[{"name":"_direct","type":"uint256","internalType":"uint256"},{"name":"_amount","type":"uint256","internalType":"uint256"},{"name":"_qty","type":"uint256","internalType":"uint256"},{"name":"_level","type":"uint256","internalType":"uint256"},{"name":"_epochAge","type":"uint256","internalType":"uint256"},{"name":"_op","type":"bool","internalType":"bool"}],"outputs":[{"name":"lastrnk","type":"uint256","internalType":"uint256"},{"name":"currentrnk","type":"uint256","internalType":"uint256"}],"stateMutability":"nonpayable"},{"type":"function","name":"owner","inputs":[],"outputs":[{"name":"","type":"address","internalType":"address"}],"stateMutability":"view"},{"type":"function","name":"postInit","inputs":[],"outputs":[{"name":"","type":"bool","internalType":"bool"}],"stateMutability":"view"},{"type":"function","name":"preinit","inputs":[{"name":"_hex","type":"address","internalType":"address"},{"name":"_own","type":"address","internalType":"address"},{"name":"_id","type":"uint256","internalType":"uint256"}],"outputs":[],"stateMutability":"nonpayable"},{"type":"function","name":"rank","inputs":[],"outputs":[{"name":"","type":"uint256","internalType":"uint256"}],"stateMutability":"view"},{"type":"function","name":"rankage","inputs":[{"name":"","type":"uint256","internalType":"uint256"}],"outputs":[{"name":"","type":"uint256","internalType":"uint256"}],"stateMutability":"view"},{"type":"function","name":"setBonus","inputs":[{"name":"b","type":"uint256","internalType":"uint256"}],"outputs":[],"stateMutability":"nonpayable"},{"type":"function","name":"setLock","inputs":[{"name":"flag","type":"bool","internalType":"bool"}],"outputs":[],"stateMutability":"nonpayable"},{"type":"function","name":"setSuspend","inputs":[{"name":"key","type":"uint256","internalType":"uint256"},{"name":"value","type":"bool","internalType":"bool"}],"outputs":[],"stateMutability":"nonpayable"},{"type":"function","name":"systemAge","inputs":[],"outputs":[{"name":"","type":"uint256","internalType":"uint256"}],"stateMutability":"view"},{"type":"function","name":"updateOwner","inputs":[{"name":"_newowner","type":"address","internalType":"address"}],"outputs":[],"stateMutability":"nonpayable"},{"type":"function","name":"userCycleMintCount","inputs":[{"name":"","type":"uint256","internalType":"uint256"}],"outputs":[{"name":"","type":"uint256","internalType":"uint256"}],"stateMutability":"view"},{"type":"function","name":"withdrawlDage","inputs":[],"outputs":[{"name":"","type":"uint256","internalType":"uint256"}],"stateMutability":"view"},{"type":"event","name":"EthBurned","inputs":[{"name":"sender","type":"address","indexed":true,"internalType":"address"},{"name":"amount","type":"uint256","indexed":false,"internalType":"uint256"}],"anonymous":false},{"type":"event","name":"EthTransferred","inputs":[{"name":"to","type":"address","indexed":true,"internalType":"address"},{"name":"amount","type":"uint256","indexed":false,"internalType":"uint256"}],"anonymous":false},{"type":"event","name":"HexBaseUpdated","inputs":[{"name":"previousHexBase","type":"address","indexed":true,"internalType":"address"},{"name":"newHexBase","type":"address","indexed":true,"internalType":"address"}],"anonymous":false},{"type":"event","name":"LogTxns","inputs":[{"name":"from","type":"address","indexed":false,"internalType":"address"},{"name":"orc1155","type":"address","indexed":false,"internalType":"address"},{"name":"_amt","type":"uint256","indexed":false,"internalType":"uint256"},{"name":"_value","type":"uint256","indexed":false,"internalType":"uint256"},{"name":"_time","type":"uint256","indexed":false,"internalType":"uint256"},{"name":"_type","type":"uint256","indexed":false,"internalType":"uint256"}],"anonymous":false},{"type":"event","name":"OwnerUpdated","inputs":[{"name":"previousOwner","type":"address","indexed":true,"internalType":"address"},{"name":"newOwner","type":"address","indexed":true,"internalType":"address"}],"anonymous":false},{"type":"error","name":"GlobalPoolLimitReached","inputs":[]},{"type":"error","name":"ImportLimitExceeded","inputs":[]},{"type":"error","name":"InvalidClone","inputs":[]},{"type":"error","name":"InvalidMintCycleLimit","inputs":[]},{"type":"error","name":"InvalidnewOwner","inputs":[]},{"type":"error","name":"MintLimitExceeded","inputs":[]},{"type":"error","name":"PreInitException","inputs":[]},{"type":"error","name":"ReentrancyGuardReentrantCall","inputs":[]},{"type":"error","name":"StorLocked","inputs":[]},{"type":"error","name":"TargetCallFailed","inputs":[{"name":"selector","type":"bytes4","internalType":"bytes4"}]},{"type":"error","name":"UnsecureORC1155","inputs":[]}],"bytecode":{"object":"0x608034620000d157601f62005eaa38819003918201601f19168301916001600160401b03831184841017620000d657808492602094604052833981010312620000d157516001600160a01b03811690819003620000d15780156200008c5760018060a01b03193381600154161760015560005416176000556001600355604051615dbd9081620000ed8239f35b60405162461bcd60e51b815260206004820152601360248201527f6f776e2e696e76616c69642e68657862617365000000000000000000000000006044820152606490fd5b600080fd5b634e487b7160e01b600052604160045260246000fdfe60806040526004361015610018575b361561001657005b005b60003560e01c806302a085f2146102c8578063043719b4146102c357806309d8da2e146102be5780630b98f975146102b957806312065fe0146102b4578063141ca660146102af578063143ec3b7146102aa5780631f185d16146102a55780632bb96697146102a05780632c2838e81461029b578063393a9f951461029657806339b4d61b146102915780633b9b79551461028c5780634a65786c1461028757806352902c5914610282578063619d51941461027d5780636350b2c21461027857806369245009146102735780636ba785b61461026e578063725b6fff1461026957806375b4d78c146102645780637bfbfecb1461025f578063880cdc311461025a5780638da5cb5b14610255578063932ca2d614610250578063934209ce1461024b5780639659867e14610246578063a153154514610241578063a1f7f5391461023c578063a20199ac14610237578063a98bf4f914610232578063a9bf285b1461022d578063af48452614610228578063af640d0f14610223578063b90306ad1461021e578063c54e44b014610219578063c8ba154e14610214578063c8ef7b1a1461020f578063d3a1a4991461020a578063da02133514610205578063e01ad5fd14610200578063e0a9bc2b146101fb5763fdc10bc90361000e57611635565b61161a565b61157b565b611523565b6114f7565b611410565b611353565b61131a565b611267565b611249565b611218565b6111fa565b6111ce565b611182565b6110cb565b611096565b611078565b61105a565b610f98565b610f6f565b610eb8565b610d2d565b610d0f565b610cf1565b610b6b565b610b4d565b610af6565b610a32565b61093b565b610915565b6108ec565b6108c0565b6107e8565b61074e565b610730565b610620565b6105e3565b610532565b610516565b61046f565b61044c565b610410565b6102fc565b610100810192916000915b600883106102e557505050565b6001908251815260208091019201920191906102d8565b604036600319011261040b57604051610314816116ec565b61010036823760ff600454166103f95761033461032f61546d565b611658565b61033d33615598565b8015610371575b61036d91610354610361926117a3565b6024359060043590611f83565b604051918291826102cd565b0390f35b50600054604051630536340960e21b8152916001600160a01b03916020908490600490829086165afa9283156103f45761036d9361036193610354926000926103c4575b50339116149250509150610344565b6103e691925060203d81116103ed575b6103de818361175d565b81019061177f565b90386103b5565b503d6103d4565b611797565b60405163658141c160e01b8152600490fd5b600080fd5b3461040b57604036600319011261040b57600435600052601d602052602061043e602435604060002061184d565b90546040519160031b1c8152f35b3461040b57600036600319011261040b57602060ff600454166040519015158152f35b3461040b57602036600319011261040b5761048b61032f61546d565b61049433615598565b80156104af575b6104a4906117a3565b610016600435600555565b50600054604051630536340960e21b8152906001600160a01b03906020908390600490829085165afa9081156103f4576104a4926000926104f6575b50163314905061049b565b61050f91925060203d81116103ed576103de818361175d565b90386104eb565b3461040b57600036600319011261040b57602047604051908152f35b602036600319011261040b5761054961032f61546d565b61055233615598565b801561057c575b610562906117a3565b61056a611f3b565b610575600435612bb0565b6001600355005b50600054604051630536340960e21b8152906001600160a01b03906020908390600490829085165afa9081156103f457610562926000926105c3575b501633149050610559565b6105dc91925060203d81116103ed576103de818361175d565b90386105b8565b3461040b57602036600319011261040b57600435600052601d6020526020604060002054604051908152f35b6001600160a01b0381160361040b57565b3461040b5760208060031936011261040b576004908135906106418261060f565b6000548190610660906001600160a01b03165b6001600160a01b031690565b604051634bf9c0ad60e11b815294859182905afa9182156103f4576106b76106f1936106d39261036d9660009261070d575b506040516001600160a01b0390911685820190815290926106c5918491602090910190565b03601f19810184528361175d565b6106cd615644565b90615a0a565b919080610703575b6106e490615671565b8082518301019101615458565b60405190151581529081906020820190565b50815181146106db565b6106c591925061072990863d88116103ed576103de818361175d565b9190610692565b3461040b57600036600319011261040b576020601454604051908152f35b3461040b57602036600319011261040b5761016061076d60043561444b565b60405190805182526020810151602083015260408101516040830152606081015160608301526080810151608083015260a081015160a083015260c081015160c083015260e081015160e0830152610100808201519083015261012080820151908301526101408091015190820152f35b8015150361040b57565b3461040b5760c036600319011261040b5760a435610805816107de565b61081061032f61546d565b61081933615598565b8015610853575b9061082d610841926117a3565b608435606435604435602435600435613674565b60408051928352602083019190915290f35b50600054604051630536340960e21b81526001600160a01b0392916020908290600490829087165afa80156103f4576108419361082d926000926108a0575b503391161491925050610820565b6108b991925060203d81116103ed576103de818361175d565b9038610892565b3461040b57602036600319011261040b5760043560005260156020526020604060002054604051908152f35b3461040b57600036600319011261040b576000546040516001600160a01b039091168152602090f35b3461040b57600036600319011261040b57602060ff60045460081c166040519015158152f35b3461040b57606036600319011261040b576004356109588161060f565b6024356109648161060f565b6001600160a01b039182168015808015610a28575b610a16576109db57600080546001600160a01b038381166001600160a01b031983161783556109d09590911616907fe939feee179e631422bcc8f6e6d7d908cb3f8af38f5372f17c77e15aea5c80ee9080a361577a565b610016604435600755565b60405162461bcd60e51b81526020600482015260136024820152726f776e2e696e76616c69642e6865786261736560681b6044820152606490fd5b60405163a596f2f960e01b8152600490fd5b5083831615610979565b3461040b57602036600319011261040b57600435610a4f816107de565b610a5a61032f61546d565b610a6333615598565b8015610a89575b90610a77610016926117a3565b60ff8019600454169115151617600455565b50600054604051630536340960e21b81526001600160a01b0392916020908290600490829087165afa80156103f45761001693610a7792600092610ad6575b503391161491925050610a6a565b610aef91925060203d81116103ed576103de818361175d565b9038610ac8565b3461040b57602036600319011261040b57600435600052601760205260806040600020805490600181015490600281015490600360018060a01b039101541691604051938452602084015260408301526060820152f35b3461040b57600036600319011261040b576020600a54604051908152f35b3461040b5760408060031936011261040b576000546024359060043590610b9a906001600160a01b0316610654565b835163cfbffe5360e01b8152602092918382600481845afa9182156103f457610bf1610be36004948793600091610cd4575b50610bd561420b565b610bdd611d77565b916159df565b828082518301019101614244565b9187519384809263ab6e844f60e01b82525afa9384156103f457610c90610c86610c7f610c74610c648b95610c576106b761036d9c610c999b600091610cb7575b50610c498d8b519384918783019190602083019252565b610c516142c1565b906159df565b80518101820191016142fa565b95610c6e8b611ebd565b90614349565b5194610c6e8a611ebd565b51976114e0565b90549060031b1c90565b91015190611eb0565b93519283526000602084015290921060408201529081906060820190565b610cce9150843d86116103ed576103de818361175d565b38610c32565b610ceb9150843d86116103ed576103de818361175d565b38610bcc565b3461040b57600036600319011261040b576020600854604051908152f35b3461040b57600036600319011261040b576020600554604051908152f35b600080600319360112610eb55760ff600454166103f957610d4c611f3b565b610d5c610d576156b6565b600255565b8054610d70906001600160a01b0316610654565b60405190816311be646b60e21b9182825281600460209586935afa80156103f457610da4918591610e98575b503490615837565b6000805260166020527f0263c2b778d062355049effc2dece97bc6547ff8a88a3258daa512061c2153dd610dd9348254611eb0565b9055610df2610de6613d24565b509150506002546118a6565b82548290610e08906001600160a01b0316610654565b9160046040518094819382525afa9081156103f457600080516020615cc8833981519152928492610e7b575b5050600254604080513381526001600160a01b0393909316602084015260009083015234606083015260808201526103e860a082015260c090a1610e786001600355565b80f35b610e919250803d106103ed576103de818361175d565b3880610e34565b610eaf9150843d86116103ed576103de818361175d565b38610d9c565b80fd5b3461040b57602036600319011261040b57600435610ed58161060f565b610ee061032f61546d565b610ee933615598565b8015610f02575b90610efd610016926117a3565b6118d9565b50600054604051630536340960e21b81526001600160a01b0392916020908290600490829087165afa80156103f45761001693610efd92600092610f4f575b503391161491925050610ef0565b610f6891925060203d81116103ed576103de818361175d565b9038610f41565b3461040b57600036600319011261040b576001546040516001600160a01b039091168152602090f35b60a036600319011261040b57600435610fb08161060f565b610fbb61032f61546d565b610fc433615598565b8015610fed575b90610fd8610841926117a3565b60843590606435906044359060243590611903565b50600054604051630536340960e21b81526001600160a01b0392916020908290600490829087165afa80156103f45761084193610fd89260009261103a575b503391161491925050610fcb565b61105391925060203d81116103ed576103de818361175d565b903861102c565b3461040b57600036600319011261040b576020600b54604051908152f35b3461040b57600036600319011261040b576020600654604051908152f35b3461040b57600036600319011261040b5760806110b1613d24565b916040519384526020840152151560408301526060820152f35b3461040b57600036600319011261040b5760005460405163d1f956b160e01b815290602090829060049082906001600160a01b03165afa9081156103f45761036d9161115491600091611164575b5060405161112681611709565b601381527267657464656c656761746f72436f756e74282960681b602082015261114e611d77565b91615b2b565b6040519081529081906020820190565b61117c915060203d81116103ed576103de818361175d565b38611119565b3461040b57604036600319011261040b576111a1602435600435614faa565b60405190600090825b600583106111b75760a084f35b6001908251815260208091019201920191906111aa565b3461040b57602036600319011261040b5760043560005260186020526020604060002054604051908152f35b3461040b57600036600319011261040b576020600954604051908152f35b3461040b57602036600319011261040b57602061123f60043561123a8161060f565b615598565b6040519015158152f35b3461040b57600036600319011261040b576020600754604051908152f35b3461040b57602036600319011261040b57600054604051630536340960e21b8152906001600160a01b03906020908390600490829085165afa9182156103f4576000926112fa575b50339116036112c35761001660043561590a565b60405162461bcd60e51b815260206004820152600f60248201526e6f776e2e6e6f6e617574682e44414f60881b6044820152606490fd5b61131391925060203d81116103ed576103de818361175d565b90386112af565b3461040b57602036600319011261040b57602061134160043561133c8161060f565b615c55565b6040516001600160a01b039091168152f35b3461040b5761010036600319011261040b5761137061032f61546d565b61137933615598565b80156113a9575b611389906117a3565b61084160e43560c43560a43560843560643560443560243560043561379e565b50600054604051630536340960e21b8152906001600160a01b03906020908390600490829085165afa9081156103f457611389926000926113f0575b501633149050611380565b61140991925060203d81116103ed576103de818361175d565b90386113e5565b3461040b57604036600319011261040b5760243561142d816107de565b61143861032f61546d565b61144133615598565b801561145d575b90611455610016926117a3565b6004356117ef565b50600054604051630536340960e21b81526001600160a01b0392916020908290600490829087165afa80156103f45761001693611455926000926114aa575b503391161491925050611448565b6114c391925060203d81116103ed576103de818361175d565b903861149c565b634e487b7160e01b600052603260045260246000fd5b60088110156114f257600c0190600090565b6114ca565b3461040b57602036600319011261040b57600435600881101561040b57602090600c0154604051908152f35b3461040b5760208060031936011261040b5760809060043560005260198152604090816000205491601a8252806000205490601b8352806000205491601c845281600020549382519586528501528301526060820152f35b3461040b5760208060031936011261040b576004803561159a8161060f565b60005460405163d1f956b160e01b81526001600160a01b03949093909182918591829088165afa9081156103f45761036d946106f1946000936115fb575b5060405193168184015282526115ed82611709565b6115f5615741565b90615aef565b611613919350823d84116103ed576103de818361175d565b91386115d8565b3461040b57600036600319011261040b57602061123f61546d565b3461040b57600036600319011261040b5760206116506156b6565b604051908152f35b1561165f57565b60405162461bcd60e51b81526020600482015260126024820152716f776e2e696e76616c69642e69735361666560701b6044820152606490fd5b634e487b7160e01b600052604160045260246000fd5b6080810190811067ffffffffffffffff8211176116cb57604052565b611699565b6060810190811067ffffffffffffffff8211176116cb57604052565b610100810190811067ffffffffffffffff8211176116cb57604052565b6040810190811067ffffffffffffffff8211176116cb57604052565b6020810190811067ffffffffffffffff8211176116cb57604052565b60e0810190811067ffffffffffffffff8211176116cb57604052565b90601f8019910116810190811067ffffffffffffffff8211176116cb57604052565b9081602091031261040b57516117948161060f565b90565b6040513d6000823e3d90fd5b156117aa57565b60405162461bcd60e51b815260206004820152601b60248201527f6f776e2e6e6f6e617574682e44414f6f725365637572656261736500000000006044820152606490fd5b6117f76156b6565b9081600255600052601d60205260406000209160001461183e5781548015908115611832575b50611827575b5050565b61183091611865565b565b6001915016153861181d565b60018083541614611827575050565b80548210156114f25760005260206000200190600090565b90815491680100000000000000008310156116cb578261188d9160016118309501815561184d565b90919082549060031b91821b91600019901b1916179055565b60c8600052601d602052600080516020615d08833981519152911561183e57815480159081156118325750611827575050565b6001600160a01b038116156118f1576118309061577a565b60405163b31092f160e01b8152600490fd5b94939091929460049260ff845416611d1d5761191d611f3b565b61192d61192983615598565b1590565b611d0c57839061193e610d576156b6565b600054611953906001600160a01b0316610654565b92602060409485519788809263cfbffe5360e01b82525afa9586156103f457600096611cec575b50611994611986611d8a565b61198e611da2565b88615b2b565b958615611ca9576119b46119a6611d8a565b6119ae611dcd565b83615b2b565b906119c26002988954611e11565b916119f76119df6119d1611d8a565b6119d9611e31565b85615b2b565b926119e8611d8a565b906119f1611e59565b90615b2b565b90611a0c846000526015602052604060002090565b541091821592611c8c575b5050611c7c57611a31906000526015602052604060002090565b8054600101905560018514928315611c7457611a4c886135cd565b998a945b611bc7575b505092611ae4611ad7611b9d948960009a9895600080516020615cc88339815191529a9860065415611bae575b611a95611a90600654611ee8565b600655565b611ad28a54611aa2611d2e565b9086825285602083015289820152606081019e8f52611acd6006546000526017602052604060002090565b611ef7565b612577565b6001600160a01b03168852565b8651611b2b906001600160a01b03166003611b0b6006546000526017602052604060002090565b0180546001600160a01b0319166001600160a01b03909216919091179055565b88611b5c611b38826126be565b98611b4f611b44613d24565b5091505088546118a6565b516001600160a01b031690565b945491513381526001600160a01b03909516602086015260408501959095526060840194909452608083019390935260a082019290925290819060c0820190565b0390a1611baa6001600355565b9190565b611bb88a54600855565b611bc28a54600955565b611a82565b9091929350600554918a611bdb8484611eb0565b10611c2e5750611ad78a89611b9d9660009b9996611c1e611c1985611c14600080516020615cc88339815191529f9d9a611ae49a611eb0565b611edb565b600555565b95989a5095985099509450611a55565b611c7090865191829162461bcd60e51b8352820160609060208152601360208201527273746f722e66616b652e6d696e7476616c756560681b60408201520190565b0390fd5b898a94611a50565b845163eb2c7de760e01b81528490fd5b8a1091508115611c9f575b503880611a17565b9050881138611c97565b845162461bcd60e51b8152602081860181815260159181019190915274696e76616c6964206d696e744379636c654461797360581b604082015281906060010390fd5b611d0591965060203d81116103ed576103de818361175d565b943861197a565b604051630d419f7360e41b81528490fd5b60405163658141c160e01b81528490fd5b60405190611830826116af565b6040519060a0820182811067ffffffffffffffff8211176116cb57604052565b67ffffffffffffffff81116116cb57601f01601f191660200190565b60405190611d8482611725565b60008252565b604051611d9681611725565b60008152906000368137565b60405190611daf82611709565b600f82526e6d696e744379636c6544617973282960881b6020830152565b60405190611dda82611709565b60128252716d61784d696e74735065724379636c65282960701b6020830152565b634e487b7160e01b600052601160045260246000fd5b8115611e1b570490565b634e487b7160e01b600052601260045260246000fd5b60405190611e3e82611709565b600c82526b6d696e4d696e74517479282960a01b6020830152565b60405190611e6682611709565b600c82526b6d61784d696e74517479282960a01b6020830152565b90600a8201809211611e8f57565b611dfb565b6047019081604711611e8f57565b9060018201809211611e8f57565b91908201809211611e8f57565b600019810191908211611e8f57565b600119810191908211611e8f57565b91908203918211611e8f57565b6000198114611e8f5760010190565b81518155602082015160018201556040820151600282015560609091015160039190910180546001600160a01b0319166001600160a01b0392909216919091179055565b600260035414611f4c576002600355565b604051633ee5aeb560e01b8152600490fd5b6040519060a0820182811067ffffffffffffffff8211176116cb5760405260a0368337565b90611f969291611f91611f3b565b612096565b906001600355565b60405190611fab82611709565b601082526f65616368636c61696d4379636c65282960801b6020830152565b60405190611fd782611709565b601082526f6d696e436c61696d506572446179282960801b6020830152565b6040519061200382611709565b601082526f6d6178436c61696d506572446179282960801b6020830152565b6040519061202f82611709565b60168252756d6178476c6f62616c436c61696d506572446179282960501b6020830152565b6040519061206182611709565b601582527467657477697468647261776e2875696e743235362960581b6020830152565b9060088110156114f25760051b0190565b92918381156125715750600255600080546120b9906001600160a01b0316610654565b6040908151809163cfbffe5360e01b825281600460209384935afa9182156103f4578492612552575b506120eb613d24565b50969150506120fd60029687546118a6565b603261212c8754600854936121128186611eb0565b82111561254b57612124915084611eb0565b925b83611edb565b116125435761213a90613fc2565b612159612150612148611d8a565b6119d9611f9e565b60095490611eb0565b90855491821015612176575b505050505050611830610d576156b6565b612189612181611d8a565b6119d9611fca565b9261219d612195611d8a565b6119ae611ff6565b600b6000526016602052926122756122456122156121e5600080516020615ce883398151915254600c6000526016602052600080516020615d288339815191525b5490611eb0565b600d60005260166020527f1f3872f63ca641494b685e4fa2176636d028d8c80f254656e89768cf272432736121de565b600e60005260166020527fd6e1ce7303b8b03e4f8e61fd057015f1c58732e116f2a323c5d9ed9df544bd9a6121de565b600f60005260166020527fc361f6d77665192d237562bd0853419e4f63406390ab643d0f1cdbcdd3e2cbae6121de565b94851015612285575b5050612165565b61229c600492612293611d8a565b906119f1612022565b875490939081906122b5906001600160a01b0316610654565b885163ab6e844f60e01b815294859182905afa9081156103f4576122fa938992612520575b508751908101928352916122f29083906020016106b7565b6119f1612054565b101561250f57808211156125075761231191611edb565b9060015b60058111156123975750507f50eede7cc9d9157638c32051246e3b16ef1b4d09c2f4b59ff806a325cf84bf2c805460c08701527f307cc7fa9030ab778db9755dd3a02d67731fde58e03005caf325db0bce1f2eaf805460e08801526016602090815291849055600091909152919091555054600955388080808080808061227e565b6123b36123a382611e81565b6000526016602052604060002090565b548361246e5790612469916123d2826000526016602052604060002090565b6123dd828254611eb0565b9055856123ec6123a384611e81565b556123ff6123f983611ebd565b8a612085565b525b600080516020615cc883398151915261241c6123f983611ebd565b5187549061246161242c85611e94565b875133815260006020820181905260408201526060810193909352608083019390935260a082019290925290819060c0820190565b0390a1611ee8565b612315565b838111156124c857906124848461246993611edb565b93846124a561249d846000526016602052604060002090565b918254611eb0565b90556124b36123a383611e81565b5584936124c26123f983611ebd565b52612401565b6124d6906124699294611edb565b926124eb816000526016602052604060002090565b50846124f96123a383611e81565b55846124c26123f983611ebd565b505081612311565b8251631d63fe2160e01b8152600490fd5b81925061253c906122f2923d85116103ed576103de818361175d565b91906122da565b505050505050565b5092612126565b8161256a9293503d84116103ed576103de818361175d565b90386120e2565b93505050565b916125dd926125ce9260018060a01b0395866001541693600254926040519563c85700fb60e01b6020880152602487015260448601526064850152608484015260a483015260a482526125c982611741565b615b9a565b6020808251830101910161177f565b1680156125e75790565b604051630b1bdf8b60e41b8152600490fd5b6040519061260682611709565b6006825265706f6f6c282960d01b6020830152565b908160e091031261040b5780519160208201519160408101519160608201519160808101519160c060a083015192015190565b9061271091828102928184041490151715611e8f57565b9081606402916064830403611e8f57565b81810292918115918404141715611e8f57565b91909160008382019384129112908015821691151617611e8f57565b81810392916000138015828513169184121617611e8f57565b600054600491906020906126da906001600160a01b0316610654565b60405163cfbffe5360e01b815293849182905afa80156103f4576127a061277661275b61279b612766612750612760612740612731612755996117949c6000916127b2575b50612728611d8a565b90610c516125f9565b6020808251830101910161261b565b9e8f9b969e949892959150612676565b612676565b93612676565b61264e565b90611e11565b9461278661277682600254611eb0565b6000526018602052604060002090565b612791878254612689565b9055600254611eb0565b611eb0565b6127ab8282546126a5565b9055612676565b6127ca915060203d81116103ed576103de818361175d565b3861271f565b604051906127dd82611709565b601382527255736572546f496e737428616464726573732960681b6020830152565b6040519061280c82611709565b600b82526a6d696e74436f756e74282960a81b6020830152565b6040519061283382611709565b600e82526d6d696e74732875696e743235362960901b6020830152565b6040519061285d82611709565b600b82526a6d696e746564416765282960a81b6020830152565b6040519061288482611709565b600b82526a6d696e746564717479282960a81b6020830152565b604051906128ab82611709565b600c82526b6964732875696e743235362960a01b6020830152565b604051906128d382611709565b60098252686d696e74416d74282960b81b6020830152565b604051906128f8826116af565b60006060838281528260208201528260408201520152565b6040519061291d82611709565b600a825269647261776e616765282960b01b6020830152565b6040519061294382611709565b600c82526b4c53422875696e743235362960a01b6020830152565b6040519061296b82611709565b6007825266647261776e282960c81b6020830152565b91908260c091031261040b5781519160208101519160408201519160608101519160a0608083015192015190565b604051906129bc82611709565b60138252726765745265776172647328616464726573732960681b6020830152565b919082604091031261040b576020825192015190565b60405190612a0182611709565b6007825266626f6e7573282960c81b6020830152565b60405190612a2482611709565b600682526563616765282960d01b6020830152565b60405190612a4682611709565b601982527f67657445666665637469766552616e6b286164647265737329000000000000006020830152565b60405190612a7f82611709565b601f82527f6765746e6f646572616e6b61676528616464726573732c75696e7432353629006020830152565b60405190612ab882611709565b601082526f6765744e6f646528616464726573732960801b6020830152565b908160a091031261040b578051916020820151612af38161060f565b9160408101519160806060830151612b0a816107de565b920151611794816107de565b60405190612b2382611709565b601582527467657444656c656761746f7228616464726573732960581b6020830152565b60405190612b5482611709565b6014825273697344656c656761746f7228616464726573732960601b6020830152565b60405190612b8482611709565b601a82527f77697468647261776e496e636f6d654f662861646472657373290000000000006020830152565b60045460081c60ff166135ca5760005460049190602090612bd9906001600160a01b0316610654565b60405163111ea8c160e21b815293849182905afa9182156103f4576000926135a9575b50600154604080516001600160a01b039092166020830152612c3e9190612c3090829081015b03601f19810183528261175d565b612c386127d0565b84615aa4565b906001600160a01b03821615613585576005811161357357612c6f612c61611d8a565b612c696127ff565b84615b2b565b90600654612c7d8183611eb0565b83111561356b57612c8d91611eb0565b816131fc575b5080600654149081156131f3575b50612caa575050565b612cc5612cc0612cb8611d8a565b612c69612910565b600a55565b600a5460085481116131ab575b50612cfe612cef612ce1611d8a565b612ce961295e565b846159df565b60208082518301019101612981565b5050601660209081527f4c4dc693d7db52f85fe052106f4b4b920e78e8ef37dee82878a60ab8585faf49949094557fcaff291fe014adc6b72a172705750b4cabe8f8667664d2924a166caab2885648929092557ff06d282f967055cb1eee17e04aa005b9682a620f4bbcfaee55ba78607a3d87ae5560046000527fec061709de2491458f4c981032059d7d19b0e55f45018bac6b3e660bdc959a5955604080516001600160a01b03841692810192909252612de191612dd291612dc49082908101612c22565b612dcc6129af565b856159df565b602080825183010191016129de565b60166020527fa03de401ff86fc22e691d3563b736c9fadf4f2babab79e9b7995ce6f656920a79190915560686000527f5a2cd1a21e67d7dda0aeee7dda01b941de71cc935cebfacc2b9b226beb2ced3355612e48611c19612e40611d8a565b612c696129f4565b612e5e612cc0612e56611d8a565b612c69612a17565b604080516001600160a01b0383166020820152612e9491612e8f9190612e879082908101612c22565b6119d9612a39565b600b55565b60005b600f8111156130d25750604080516001600160a01b039092166020830152612eff92612ee892612ed992909190612ed190839081016106b7565b610c51612aab565b60208082518301019101612ad7565b935050505060ff8019600454169115151617600455565b600054612f14906001600160a01b0316610654565b604051906318c9774160e21b808352602083600481855afa9283156103f4576000936130b1575b50600154612f7d906001600160a01b0316604080516001600160a01b0383166020820152919590612f6f90839081016106b7565b612f77612b16565b90615aa4565b604051828152602081600481875afa80156103f457612fcd926106b79260009261308c575b50604080516001600160a01b0390921660208301529092612fc591849190820190565b6115f5612b47565b612ff4575b505050612fe0600854600955565b61183061010061ff00196004541617600455565b60209060046040518094819382525afa80156103f457613045926106b792600092613067575b50604080516001600160a01b039092166020830152909261303d91849190820190565b6119f1612b77565b60056000526016602052600080516020615d6883398151915255388080612fd2565b61303d9192506130859060203d6020116103ed576103de818361175d565b919061301a565b612fc59192506130aa9060203d6020116103ed576103de818361175d565b9190612fa2565b6130cb91935060203d6020116103ed576103de818361175d565b9138612f3b565b806130eb9161313a575b600b548111156130f057611ee8565b612e97565b604080516001600160a01b03851660208201529081018290526131359061312c9061311e8160608101612c22565b613126612a72565b87615b2b565b61188d836114e0565b611ee8565b604051632994ed6560e11b60208201526001600160a01b03841660248201526044810182905261317b90612dd2906131758160648101612c22565b86615b9a565b61318f836000526019602052604060002090565b906131a484600052601a602052604060002090565b55556130dc565b6008556131d6612c226131ce600a54604051928391602083019190602083019252565b6119ae612936565b6131ec6008546000526018602052604060002090565b5538612cd2565b90501538612ca1565b60008052600080516020615d4883398151915254601a6020527fb75ecc04ed35f89790e98640e901bda41eceff0cb896cf2765fb697680253750549095909491929091905b6006548481101561352057611a9061325891611ee8565b613286612c22613278600654604051928391602083019190602083019252565b613280612826565b87615aa4565b61329c610d57613294611d8a565b612c69612850565b6133366132b26132aa611d8a565b612c69612877565b986132d76040516132cf81612c2260208201906000602083019252565b6119d961289e565b986132f46132ee6132e6611d8a565b6131266128c6565b94615c55565b60005460209061330c906001600160a01b0316610654565b6040516333ea87db60e21b81526001600160a01b0390931660048401529194859081906024820190565b0381845afa9384156103f4576000946134ff575b506001600160a01b038416156134a6575b5061336861192984615598565b613494578a9284846133786128eb565b938285528160208601526002958654604087015283866006546133a5906000526017602052604060002090565b906133af91611ef7565b6133b891611eb0565b9e6133c291611eb0565b9c6133cc93612577565b6006546133e3906000526017602052604060002090565b60030180546001600160a01b0319166001600160a01b0390921691909117905561340c846126be565b5060065460011493613440606061347d93600080516020615cc883398151915297613485575b01516001600160a01b031690565b9254604080513381526001600160a01b03909516602086015284019490945260608301526080820192909252600060a082015290819060c0820190565b0390a1613241565b61348f8654600855565b613432565b604051630d419f7360e41b8152600490fd5b604051635bb8e44b60e11b815260006004820152919350602090829060249082905afa9081156103f4576000916134e0575b50913861335b565b6134f9915060203d6020116103ed576103de818361175d565b386134d8565b61351991945060203d6020116103ed576103de818361175d565b923861334a565b5060008052600080516020615d4883398151915296909655601a6020527fb75ecc04ed35f89790e98640e901bda41eceff0cb896cf2765fb6976802537509490945593905038612c93565b505080612c8d565b6040516364ce9be960e11b8152600490fd5b505050613593612cc06156b6565b61359e600a54600855565b612fe0600a54600955565b6135c391925060203d6020116103ed576103de818361175d565b9038612bfc565b50565b60005460405163cfbffe5360e01b815291906020908190849060049082906001600160a01b03165afa80156103f45761179493600091613657575b50604051928284015281835261361d83611709565b7f636f6d707574654d696e7456616c75652875696e7432353629000000000000006040519261364b84611709565b60198452830152615b2b565b61366e9150823d84116103ed576103de818361175d565b38613608565b6000968796909592948061368a57505050505050565b919395965091939650600b5496826000146136ff5761249d826136d4926136c261249d6136e19a966000526019602052604060002090565b9055600052601a602052604060002090565b90555b156136f057613b8e565b600b5490388080808080612543565b6136fa6000600b55565b613b8e565b908060005260196020526040600020918254908103908111611e8f576137309255600052601a602052604060002090565b938454908103908111611e8f576136e194556136d7565b6040519061375482611709565b60148252736c6576656c436c617573652875696e743235362960601b6020830152565b908160a091031261040b578051916020820151916040810151916080606083015192015190565b909294919796979593958615159889613afc575b50600b54986137cb886000526019602052604060002090565b6137d6868254611eb0565b90556137ec88600052601a602052604060002090565b6137f7838254611eb0565b9055600080526019602052600080516020615d488339815191525415159081613af4575b5061382e575b50505050505050600b5490565b8290613ae4575b505060005461384c906001600160a01b0316610654565b604051809163cfbffe5360e01b825281600460209384935afa9182156103f4576138ab9261389e91600091613ac7575b5060405190613896826106b78c8783019190602083019252565b610c51613747565b8051810182019101613777565b949193909660028a1192831593613a98575b5050501561382157613921946138e9612760936127606138e36138e3956138ef99612676565b91612665565b96612676565b9261390481600052601b602052604060002090565b61390f848254611eb0565b9055600052601c602052604060002090565b61392c838254611eb0565b905560016000819052601d6020526139667f9de6abd965d55c3bb0cdbf6fa175050624c6ff8fe86f682dc08f2a450ede22785b5460011690565b148015613a6e575b613a33575b506004600052601d60205260016139a97fd33c65680209da0447188026adeb57acbe6c3d3a2b5b9c4ecef4d7a917168fd761395f565b148015613a09575b6139ce575b506139c2610de6613d24565b38808080808080613821565b60096000526016602052613a017f650982f08e47212452de30f662e413cf6044e641dedc09b52c1617e804a2611e61249d565b9055386139b6565b5060c8600052601d6020526001613a2d600080516020615d0883398151915261395f565b146139b1565b60066000526016602052613a667fc6a239f207aea309a1b4879cb5411b8facfc2bc1e4cc4717ff2598676c399b5f61249d565b905538613973565b5060c8600052601d6020526001613a92600080516020615d0883398151915261395f565b1461396e565b613aa891929350600a5490611edb565b10908115613aba575b503880806138bd565b9050600b54101538613ab1565b613ade9150833d85116103ed576103de818361175d565b3861387c565b613aed91613b8e565b3881613835565b90503861381b565b600481106137b25760145415613b51575b613b22613b1c60145486611edb565b87111590565b9081613b45575b50613b3457386137b2565b505050505050509050600b54908190565b9050600b541038613b29565b613b5a84601455565b613b0d565b60405190613b6c82611709565b601382527272616e6b436c617573652875696e743235362960681b6020830152565b600054909190613ba6906001600160a01b0316610654565b916040928351809163cfbffe5360e01b825281600460209384935afa9182156103f457600092613c94575b50600b91613bdf8354611ea2565b60088110613bf05750505050505050565b613c4890613c2d613c1f8951613c1181612c22868a83019190602083019252565b613c19613b5f565b866159df565b8580825183010191016129de565b908710159081613c75575b5080613c63575b613c4d57611ee8565b613bdf565b613c5681600b55565b6131358761188d836114e0565b508454613c6f82611ebd565b14613c3f565b9050613c8b82600052601a602052604060002090565b54101538613c38565b81613cac9293503d84116103ed576103de818361175d565b9038613bd1565b60405190613cc082611709565b600982526863617070696e67282960b81b6020830152565b91908260c091031261040b578151916020810151613cf5816107de565b916040820151613d04816107de565b916060810151613d13816107de565b9160a06080830151612b0a816107de565b60009060046020613d3f61065460005460018060a01b031690565b60405163cfbffe5360e01b815292839182905afa9081156103f457613d8291613d7391600091613fa4575b50610bd5613cb3565b60208082518301019101613cd8565b6000805260196020529295949391613da985600080516020615d4883398151915254612676565b96613db2614ee9565b94613f9c575b50613f18575b613eb2575b613ea1575b50613e39575b6000805260166020527f0263c2b778d062355049effc2dece97bc6547ff8a88a3258daa512061c2153dd54613e0291612676565b808410613e3057613e139084611edb565b905b82821191838110613e265750600090565b6117949084611edb565b50600090613e15565b6005600052601660205292613e0290613e9990613e93612245600080516020615d688339815191525b54600a60005260166020527fd5b9797c47f98351da0d9dc8805f06430ade47345ddb9b2bd6f346a04809cc416121de565b90611eb0565b939050613dce565b613eab9195611eb0565b9338613dc8565b60166020527ff06d282f967055cb1eee17e04aa005b9682a620f4bbcfaee55ba78607a3d87ae5460086000529096613f1291613e93906121e5907f5d722ae86c7aff0f95f426cf86f75793e8cd1a526603df14563c190f75fd2ef36121de565b95613dc3565b60166020527fcaff291fe014adc6b72a172705750b4cabe8f8667664d2924a166caab28856485460076000529097613f9691613e9390613f78907f5c9294642c77fdf0ce4b0f45159c977165b1ec2ef3bb94ee3e2a496634c781e86121de565b600c6000526016602052600080516020615d288339815191526121de565b96613dbe565b985038613db8565b613fbc915060203d81116103ed576103de818361175d565b38613d6a565b61183090613fcf8161444b565b8051600b6000526016602052613ff2600080516020615ce883398151915261249d565b90556060810151600e600052601660205261402c7fd6e1ce7303b8b03e4f8e61fd057015f1c58732e116f2a323c5d9ed9df544bd9a61249d565b9055602081810151600c6000526016909152614055600080516020615d2883398151915261249d565b9055604081018051600d60005260166020526140907f1f3872f63ca641494b685e4fa2176636d028d8c80f254656e89768cf2724327361249d565b90556080820151600f60005260166020526140ca7fc361f6d77665192d237562bd0853419e4f63406390ab643d0f1cdbcdd3e2cbae61249d565b905560c0820151600760005260166020526141047f5c9294642c77fdf0ce4b0f45159c977165b1ec2ef3bb94ee3e2a496634c781e861249d565b905560e082018051600860005260166020529092610140916141457f5d722ae86c7aff0f95f426cf86f75793e8cd1a526603df14563c190f75fd2ef361249d565b9055610120810151600a60005260166020526141807fd5b9797c47f98351da0d9dc8805f06430ade47345ddb9b2bd6f346a04809cc4161249d565b90550151614198846000526018602052604060002090565b5551601f60005260166020526141cd7f50eede7cc9d9157638c32051246e3b16ef1b4d09c2f4b59ff806a325cf84bf2c61249d565b90555160206000819052601690526142047f307cc7fa9030ab778db9755dd3a02d67731fde58e03005caf325db0bce1f2eaf61249d565b9055600855565b6040519061421882611709565b601882527f6765744261746368526f79616c7479436c6175736573282900000000000000006020830152565b6102a090818184031261040b5782601f8201121561040b57604080519361426a85611741565b849383019281841161040b57935b83851061428757505050505090565b60608583031261040b57825160609161429f826116d0565b8651825260209182880151838201528588015186820152815201940193614278565b604051906142ce82611709565b601f82527f676574526f79616c697479416d6f756e7442617463682875696e7432353629006020830152565b9060e08282031261040b5780601f8301121561040b576040519161431d83611741565b829060e0810192831161040b57905b8282106143395750505090565b815181526020918201910161432c565b9060078110156114f25760051b0190565b60405190610160820182811067ffffffffffffffff8211176116cb57604052816101406000918281528260208201528260408201528260608201528260808201528260a08201528260c08201528260e082015282610100820152826101208201520152565b604051906143cc82611709565b600a82526973687574646f776e282960b01b6020830152565b604051906143f282611709565b601882527f676574557365724964546f496e73742875696e743235362900000000000000006020830152565b6040519061442b82611709565b6011825270696e636f6d654f6628616464726573732960781b6020830152565b9061445461435a565b60005490929061446c906001600160a01b0316610654565b6040805163ab6e844f60e01b815292916020908185600481845afa9485156103f457600095614738575b50825163cfbffe5360e01b8152908282600481845afa9182156103f45760c0896145e760049887968b9560009161471b575b506144e36144d46143bf565b6144dc611d77565b9083615aef565b9b8c9261457d6144f1614ee9565b6060890190815281895260166020527f4c4dc693d7db52f85fe052106f4b4b920e78e8ef37dee82878a60ab8585faf495460066000529092919061457790614559907fc6a239f207aea309a1b4879cb5411b8facfc2bc1e4cc4717ff2598676c399b5f6121de565b600b6000526016602052600080516020615ce88339815191526121de565b90611edb565b8752805160166020527fec061709de2491458f4c981032059d7d19b0e55f45018bac6b3e660bdc959a595460096000526145e0919061457790612215907f650982f08e47212452de30f662e413cf6044e641dedc09b52c1617e804a2611e6121de565b90526147e5565b9d949392610140879298939701520152868d015260001461470c5750506106b761462b9161462360075488519384918883019190602083019252565b612f776143e5565b31848901525b83516314ac1b5960e21b815294859182905afa9081156103f457614684936000926146e9575b5060015492516001600160a01b0390931690830190815261467c9083906020016106b7565b6119f161441e565b90156146ba57600560005260166020526146b290614577612245600080516020615d68833981519152613e62565b610120830152565b600560005260166020526146e290614577612245600080516020615d68833981519152613e62565b6080830152565b8192506147059061467c923d85116103ed576103de818361175d565b9190614657565b8a87015260e08a015250614631565b6147329150883d8a116103ed576103de818361175d565b386144c8565b614750919550823d84116103ed576103de818361175d565b9338614496565b604051906040820182811067ffffffffffffffff8211176116cb5760405260006020838281520152565b6040519061478e826116af565b81614797614757565b81526147a1614757565b60208201526147ae614757565b604082015260606147bd614757565b910152565b818102929160008212600160ff1b821416611e8f578184051490151715611e8f57565b939291600094600094600094600094600094600094614871614862614808614781565b9361481284614c91565b86519060208201525261482484614d38565b60208701519060208201525261483984614dcb565b60408701519060208201525261484e84614e6d565b606087015190602082015252610bd561420b565b60208082518301019101614244565b93600b5460078111600014614c875750600794939291905b600854955b82871061489e5750505050505050565b9091929394959b6148e46148d5612c228f6148c790604051928391602083019190602083019252565b6148cf6142c1565b896159df565b602080825183010191016142fa565b908d6000926001915b85831115614c245791505086519081518110159182614c15575b50508015614beb575b15614bd9579061491f91611eb0565b9b5b82156149a2575b845180518210159081614993575b50801561496c575b614957575b61494c90611ee8565b95949392919061488e565b9761496461494c91611ee8565b989050614943565b50606085015180518210159081614984575b5061493e565b6020915001518111153861497e565b60209150015181111538614936565b6149c16149b9826000526018602052604060002090565b54809d612689565b9b6149cc8286611edb565b9060009160408801518851888251818110908351918080614bd0575b80614bae575b15614ade575050505060208083518351808210600014614ad65750935b015191015180821115614ace5750905b80861115614ac8575084905b614a3081611ea2565b891015614aba5750875b818111614aa7575b50505b808311614a9f575b82614a5791611edb565b9180614a89575b5081614a6c575b5050614928565b614a81929c91614a7b916147c2565b90612689565b993880614a65565b9b614a7b829d614a98936147c2565b9a38614a5e565b915081614a4d565b614ab2929450611edb565b913880614a42565b614ac390611ea2565b614a3a565b90614a27565b905090614a1b565b905093614a0b565b9491929394614b58575b505010614af6575b50614a45565b805180861115614b4f5750602085915b01614b118151611ea2565b891015614b405750875b818111614b29575b50614af0565b614b38929491613e9391611edb565b913880614b23565b614b4a9051611ea2565b614b1b565b60209091614b06565b80891115614ba55750602088915b01614b718151611ea2565b841015614b965750825b81811115614ae857614b8e929750611edb565b943880614ae8565b614ba09051611ea2565b614b7b565b60209091614b66565b50826020870151108015614bc3575b156149ee565b5081602086015110614bbd565b508383106149e8565b9c9d90614be591611eb0565b9c614921565b508d60208701519081518110159182614c06575b5050614910565b60200151101590508e38614bff565b60200151101590508e38614907565b614c4b614c3c614c3685979495611ebd565b8d614349565b516040610c90610c86896114e0565b10614c7d57614c70614c7691614c69614c6387611ebd565b85614349565b5190611eb0565b93611ee8565b908f6148ed565b92614c7690611ee8565b9493929190614889565b60c8600052601d602052600080516020615d0883398151915280549291908315614d315760018416614d1957505060c8600052601d602052610c86614ced600080516020615d08833981519152614ce785611ecc565b9061184d565b905460c8600052601d60205260039190911b1c92614ce7600080516020615d0883398151915291611ebd565b614ce7614d269294611ebd565b90549060031b1c9190565b5091508190565b60026000908152601d6020527f64f63e8728b8a1c8ce5fe5058430331934c8d0c3d8a2f2793f19836c1447addb8054919392908215614dc35760018316614db4575050610c869060028452601d602052614ce76040614d9c818720614ce785611ecc565b90549060031b1c9560028152601d6020522091611ebd565b909350614ce7614d2692611ebd565b509250508190565b60036000818152601d6020527f628971151cb24dee737f6abea9bff35ce226e4c8f5760305d49b3725728390908054919493908215614e645760018316614e4c575050614e4490828552601d602052614ce76040614e2e818820614ce785611ecc565b905490861b1c96858152601d6020522091611ebd565b9054911b1c90565b909450614ce7614e5b92611ebd565b9054911b1c9190565b50935050508190565b60056000908152601d6020527fd19a5fe801b7c1f3d54e7cd62d56e46f02f2ab5a22ee5edcfdddda6c80cf4c118054919392908215614dc35760018316614db4575050610c869060058452601d602052614ce76040614ed1818720614ce785611ecc565b90549060031b1c9560058152601d6020522091611ebd565b600090816001815b600f821115614f6a575050606560005260166020527fa03de401ff86fc22e691d3563b736c9fadf4f2babab79e9b7995ce6f656920a7548101809111611e8f5760686000526016602052917f5a2cd1a21e67d7dda0aeee7dda01b941de71cc935cebfacc2b9b226beb2ced33548101809111611e8f5790565b9093848252602092601b8452604090818420548101809111611e8f57601c9094878552528220548101809111611e8f57614fa49094611ee8565b90614ef1565b919091614fb5611f5e565b928115615346576001821461526e57600282146151ba57600382146150dd57614fdc6156b6565b9160085492614feb8385611eb0565b8111156150d75750614ffd8284611eb0565b905b6150088261444b565b600482146150995760058214615056575060061461502557505050565b9091929350615032611d3b565b9261503b6156b6565b84526020840152604083015260608201526000608082015290565b94955050505050610120615068611d3b565b9160a0810151835260c0810151602084015260e0810151604084015261010081015160608401520151608082015290565b9495505050505060806150aa611d3b565b91805183526020810151602084015260408101516040840152606081015160608401520151608082015290565b90614fff565b505090506150e9611d3b565b7f0263c2b778d062355049effc2dece97bc6547ff8a88a3258daa512061c2153dd5481527f50eede7cc9d9157638c32051246e3b16ef1b4d09c2f4b59ff806a325cf84bf2c546020808301919091527f307cc7fa9030ab778db9755dd3a02d67731fde58e03005caf325db0bce1f2eaf5460408301527fa03de401ff86fc22e691d3563b736c9fadf4f2babab79e9b7995ce6f656920a75460608301526068600052601690527f5a2cd1a21e67d7dda0aeee7dda01b941de71cc935cebfacc2b9b226beb2ced335b54608082015290565b505090506151c6611d3b565b600080516020615ce8833981519152548152600080516020615d28833981519152546020808301919091527f1f3872f63ca641494b685e4fa2176636d028d8c80f254656e89768cf272432735460408301527fd6e1ce7303b8b03e4f8e61fd057015f1c58732e116f2a323c5d9ed9df544bd9a546060830152600f600052601690527fc361f6d77665192d237562bd0853419e4f63406390ab643d0f1cdbcdd3e2cbae6151b1565b5050905061527a611d3b565b7fc6a239f207aea309a1b4879cb5411b8facfc2bc1e4cc4717ff2598676c399b5f5481527f5c9294642c77fdf0ce4b0f45159c977165b1ec2ef3bb94ee3e2a496634c781e8546020808301919091527f5d722ae86c7aff0f95f426cf86f75793e8cd1a526603df14563c190f75fd2ef35460408301527f650982f08e47212452de30f662e413cf6044e641dedc09b52c1617e804a2611e546060830152600a600052601690527fd5b9797c47f98351da0d9dc8805f06430ade47345ddb9b2bd6f346a04809cc416151b1565b50509050615352611d3b565b7f4c4dc693d7db52f85fe052106f4b4b920e78e8ef37dee82878a60ab8585faf495481527fcaff291fe014adc6b72a172705750b4cabe8f8667664d2924a166caab2885648546020808301919091527ff06d282f967055cb1eee17e04aa005b9682a620f4bbcfaee55ba78607a3d87ae5460408301527fec061709de2491458f4c981032059d7d19b0e55f45018bac6b3e660bdc959a59546060830152600560005260169052600080516020615d688339815191526151b1565b1561541357565b60405162461bcd60e51b815260206004820152601960248201527f6f776e2e7361666567756172642e63616c6c2e6661696c6564000000000000006044820152606490fd5b9081602091031261040b5751611794816107de565b600054604051634bf9c0ad60e11b8152906020908190839060049082906001600160a01b03165afa9182156103f457611794926154e3916000916154fe575b506040516154b981611709565b6008815267697353616665282960c01b84820152604051916154da83611725565b60008352615a0a565b9190806154f4575b6106e49061540c565b50815181146154eb565b6155159150833d85116103ed576103de818361175d565b386154ac565b6040519061552882611709565b601582527469735365637572654261736528616464726573732960581b6020830152565b1561555357565b60405162461bcd60e51b815260206004820152601a60248201527f6f776e2e736563757265626173652e63616c6c2e6661696c65640000000000006044820152606490fd5b6000546001600160a01b0316604051918291634bf9c0ad60e11b835282600460209485935afa9283156103f45761179493615606926106b792600092615621575b506040516001600160a01b0390911685820190815290926155fe918491602090910190565b6106cd61551b565b919080615617575b6106e49061554c565b508151811461560e565b6155fe91925061563d90863d88116103ed576103de818361175d565b91906155d9565b6040519061565182611709565b601182527069735369676e657228616464726573732960781b6020830152565b1561567857565b60405162461bcd60e51b81526020600482015260166024820152751bdddb8b9cda59db995c8b98d85b1b0b99985a5b195960521b6044820152606490fd5b60005460405163111ea8c160e21b815290602090829060049082906001600160a01b03165afa80156103f45761179491600091615723575b506040516156fb81611709565b6005815264616765282960d81b60208201526040519161571a83611725565b60008352615b2b565b61573b915060203d81116103ed576103de818361175d565b386156ee565b6040519061574e82611709565b601882527f697364656c656761746f724e6f646528616464726573732900000000000000006020830152565b6001600160a01b039081169081156157ce57600154826bffffffffffffffffffffffff60a01b821617600155167f8292fce18fa69edf4db7b94ea2e58241df0ae57f97e0a6c9b29067028bf92d76600080a3565b60405162461bcd60e51b815260206004820152601160248201527037bbb71734b73b30b634b21737bbb732b960791b6044820152606490fd5b3d15615832573d9061581882611d5b565b91615826604051938461175d565b82523d6000602084013e565b606090565b908015611823576001600160a01b0382169182156158d457600080808481945af1615860615807565b5015615899576040519081527fcec1f18c3ab8ddaaa107a1591e3c369667eec613626611a8deaedef43069fcdd9080602081015b0390a2565b60405162461bcd60e51b81526020600482015260136024820152721bdddb8b9d1c985b9cd9995c8b99985a5b1959606a1b6044820152606490fd5b60405162461bcd60e51b815260206004820152600e60248201526d6f776e2e696e76616c69642e746f60901b6044820152606490fd5b600080546040516311be646b60e21b815290602090829060049082906001600160a01b03165afa9081156103f45782848193829383916159c1575b505af1615950615807565b501561598a5760405190815233907fcdcc745fe377b103b45fa0cec23ae3ef93d6fc6a84a01f0d18c40b354dd1d5d8908060208101615894565b60405162461bcd60e51b815260206004820152600f60248201526e1bdddb8b989d5c9b8b99985a5b1959608a1b6044820152606490fd5b6159d9915060203d81116103ed576103de818361175d565b38615945565b906159ea9291615a0a565b90600090156159f7575090565b6040519150615a0582611725565b815290565b9190823b15615a8b578051906020918263ffffffff60e01b92012016916040519180830193845281519160005b838110615a77575050509181615a646024826000979596889701878382015203600481018452018261175d565b5191620dbba0fa615a73615807565b9091565b818101830151858201602401528201615a37565b505050600090604051615a9d81611725565b6000815290565b9291615ab291600094615a0a565b9080615ae4575b615ac05750565b80519192506001600160a01b0391615ae09160209181018201910161177f565b1690565b506020815114615ab9565b9291615afd91600094615a0a565b9080615b20575b615b0b5750565b61179491925060208082518301019101615458565b506020815114615b04565b9291615b3991600094615a0a565b9080615b5e575b615b475750565b90915060208180518101031261040b576020015190565b506020815114615b40565b906020825192015163ffffffff60e01b908181169360048110615b8b57505050565b60040360031b82901b16169150565b6001600160a01b03811615615c1b57600080918351908260208601915af190615bc1615807565b9115615bcb575090565b805160009190600411615c1557615be29150615b69565b815115615bf25750805190602001fd5b604051630870274d60e21b81526001600160e01b03199091166004820152602490fd5b50615be2565b60405162461bcd60e51b81526020600482015260126024820152711bdddb8b9a5b9d985b1a590b9d185c99d95d60721b6044820152606490fd5b803b6000615c6282611d5b565b92615c70604051948561175d565b82845260208401903c602d815110615c8c57602a015160601c90565b60405162461bcd60e51b81526020600482015260136024820152724e6f742061206d696e696d616c2070726f787960681b6044820152606490fdfe1517c86fcf2bfb8e3468afcc539b0004955da8027797c497ea51d1f1094ab898cfa8b17cfe829ccfb82a1b8bc946a78d914318562253e01c04a5bbac5c20f86b915fdf66858cff90460f130f449e2d78f6f66df207cbd71945619fb7bc9ad3a5329445f4448b7d20eec86c1386b39f5d1ed2d5f198689536ebcae9f2881958c3d2ac945fcc0096878c763e37d6929b78378c1a2defabde8ba7ee5ed1d6e7a5b25696377e725b42a372ecc45f0fbdab5e9555865aef54619ad9381892f667bbf0a2646970667358221220cc765ec834e46b00405587644c4b05c3802b19151d42d1fd17a3dc230484a31064736f6c63430008140033","linkReferences":{}},"methodIdentifiers":{"Burn(uint256)":"b90306ad","BurnCoin()":"7bfbfecb","LSB(uint256)":"a98bf4f9","_compute(uint256)":"2c2838e8","_delegatorCount()":"a1f7f539","_getImplementation(address)":"c54e44b0","_importOld(uint256)":"141ca660","_isDelegatorNode(address)":"e01ad5fd","_isSafe()":"e0a9bc2b","_isSecureBase(address)":"af484526","_isSigner(address)":"1f185d16","_txnType7(uint256,uint256)":"02a085f2","_txnType_1_0(address,uint256,uint256,uint256,uint256)":"932ca2d6","addLevelnGetRank(uint256,uint256,uint256,uint256,uint256,uint256,uint256,uint256)":"c8ba154e","bonus()":"75b4d78c","cage()":"69245009","capStatus()":"a1531545","comp(uint256,uint256)":"6ba785b6","dage()":"725b6fff","getAllIncome(uint256,uint256)":"a20199ac","getBalance()":"12065fe0","getHexbase()":"3b9b7955","getNodeLB(uint256)":"da021335","getToggleAgeCount(uint256)":"143ec3b7","getToggleAgeValue(uint256,uint256)":"043719b4","id()":"af640d0f","isLock()":"09d8da2e","levelRestrictionAge()":"2bb96697","mintCount()":"9659867e","mints(uint256)":"6350b2c2","moveLvlIncome(uint256,uint256,uint256,uint256,uint256,bool)":"393a9f95","owner()":"8da5cb5b","postInit()":"4a65786c","preinit(address,address,uint256)":"52902c59","rank()":"934209ce","rankage(uint256)":"d3a1a499","setBonus(uint256)":"0b98f975","setLock(bool)":"619d5194","setSuspend(uint256,bool)":"c8ef7b1a","systemAge()":"fdc10bc9","updateOwner(address)":"880cdc31","userCycleMintCount(uint256)":"39b4d61b","withdrawlDage()":"a9bf285b"},"id":25}