{"abi":[{"type":"constructor","inputs":[{"name":"_hex","type":"address","internalType":"address"}],"stateMutability":"nonpayable"},{"type":"fallback","stateMutability":"payable"},{"type":"receive","stateMutability":"payable"},{"type":"function","name":"Burn","inputs":[{"name":"amount","type":"uint256","internalType":"uint256"}],"outputs":[],"stateMutability":"nonpayable"},{"type":"function","name":"BurnCoin","inputs":[{"name":"_dollar","type":"uint256","internalType":"uint256"}],"outputs":[],"stateMutability":"payable"},{"type":"function","name":"LSB","inputs":[{"name":"","type":"uint256","internalType":"uint256"},{"name":"","type":"uint256","internalType":"uint256"}],"outputs":[{"name":"","type":"int256","internalType":"int256"}],"stateMutability":"view"},{"type":"function","name":"_delegatorCount","inputs":[],"outputs":[{"name":"","type":"uint256","internalType":"uint256"}],"stateMutability":"view"},{"type":"function","name":"_getImplementation","inputs":[{"name":"clone","type":"address","internalType":"address"}],"outputs":[{"name":"impl","type":"address","internalType":"address"}],"stateMutability":"view"},{"type":"function","name":"_importOld","inputs":[{"name":"limit","type":"uint256","internalType":"uint256"}],"outputs":[],"stateMutability":"payable"},{"type":"function","name":"_isDelegatorNode","inputs":[{"name":"sender","type":"address","internalType":"address"}],"outputs":[{"name":"","type":"bool","internalType":"bool"}],"stateMutability":"view"},{"type":"function","name":"_isSafe","inputs":[],"outputs":[{"name":"","type":"bool","internalType":"bool"}],"stateMutability":"view"},{"type":"function","name":"_isSecureBase","inputs":[{"name":"sender","type":"address","internalType":"address"}],"outputs":[{"name":"","type":"bool","internalType":"bool"}],"stateMutability":"view"},{"type":"function","name":"_isSigner","inputs":[{"name":"sender","type":"address","internalType":"address"}],"outputs":[{"name":"","type":"bool","internalType":"bool"}],"stateMutability":"view"},{"type":"function","name":"_txnType7","inputs":[{"name":"_maxint","type":"uint256","internalType":"uint256"},{"name":"_ag","type":"uint256","internalType":"uint256"}],"outputs":[{"name":"CALC_INC","type":"uint256[9]","internalType":"uint256[9]"}],"stateMutability":"payable"},{"type":"function","name":"_txnType_1_0","inputs":[{"name":"paramAdd","type":"address","internalType":"address"},{"name":"_id_maxint","type":"uint256","internalType":"uint256"},{"name":"_qty","type":"uint256","internalType":"uint256"},{"name":"_msgValue","type":"uint256","internalType":"uint256"},{"name":"_type","type":"uint256","internalType":"uint256"},{"name":"_ag","type":"uint256","internalType":"uint256"}],"outputs":[{"name":"_tvl","type":"uint256","internalType":"uint256"},{"name":"_amt","type":"uint256","internalType":"uint256"}],"stateMutability":"payable"},{"type":"function","name":"addLevelnGetRank","inputs":[{"name":"_amount","type":"uint256","internalType":"uint256"},{"name":"_qty","type":"uint256","internalType":"uint256"},{"name":"_level","type":"uint256","internalType":"uint256"},{"name":"_epochAge","type":"uint256","internalType":"uint256"},{"name":"_free","type":"uint256","internalType":"uint256"},{"name":"_tobeSkipped","type":"bool","internalType":"bool"}],"outputs":[{"name":"currentrnk","type":"uint256","internalType":"uint256"}],"stateMutability":"nonpayable"},{"type":"function","name":"bonus","inputs":[],"outputs":[{"name":"","type":"uint256","internalType":"uint256"}],"stateMutability":"view"},{"type":"function","name":"cage","inputs":[],"outputs":[{"name":"","type":"uint256","internalType":"uint256"}],"stateMutability":"view"},{"type":"function","name":"capStatus","inputs":[{"name":"maxinterwal","type":"uint256","internalType":"uint256"}],"outputs":[{"name":"totInc","type":"uint256","internalType":"uint256"},{"name":"thresholdx","type":"uint256","internalType":"uint256"},{"name":"thresholdollarx","type":"uint256","internalType":"uint256"},{"name":"_cap","type":"bool","internalType":"bool"}],"stateMutability":"view"},{"type":"function","name":"capping","inputs":[],"outputs":[{"name":"multiple","type":"uint256","internalType":"uint256"},{"name":"multipledollar","type":"uint256","internalType":"uint256"},{"name":"rw","type":"bool","internalType":"bool"},{"name":"ry","type":"bool","internalType":"bool"},{"name":"self","type":"bool","internalType":"bool"},{"name":"yei","type":"bool","internalType":"bool"}],"stateMutability":"view"},{"type":"function","name":"currentCycle","inputs":[],"outputs":[{"name":"","type":"uint256","internalType":"uint256"}],"stateMutability":"view"},{"type":"function","name":"currentLSBversion","inputs":[],"outputs":[{"name":"","type":"uint256","internalType":"uint256"}],"stateMutability":"view"},{"type":"function","name":"dage","inputs":[],"outputs":[{"name":"","type":"uint256","internalType":"uint256"}],"stateMutability":"view"},{"type":"function","name":"directsCount","inputs":[],"outputs":[{"name":"","type":"uint256","internalType":"uint256"}],"stateMutability":"view"},{"type":"function","name":"getAllIncome","inputs":[{"name":"typeId","type":"uint256","internalType":"uint256"},{"name":"maxinterwal","type":"uint256","internalType":"uint256"}],"outputs":[{"name":"values","type":"uint256[7]","internalType":"uint256[7]"}],"stateMutability":"view"},{"type":"function","name":"getBalance","inputs":[],"outputs":[{"name":"","type":"uint256","internalType":"uint256"}],"stateMutability":"view"},{"type":"function","name":"getHexbase","inputs":[],"outputs":[{"name":"","type":"address","internalType":"address"}],"stateMutability":"view"},{"type":"function","name":"getNodeLB","inputs":[{"name":"_level","type":"uint256","internalType":"uint256"}],"outputs":[{"name":"","type":"tuple","internalType":"struct InstanceStor.LevelInfoStr","components":[{"name":"lvlbs","type":"uint256","internalType":"uint256"},{"name":"lvlqty","type":"uint256","internalType":"uint256"},{"name":"lvlrwrd","type":"uint256","internalType":"uint256"},{"name":"lvlyei","type":"uint256","internalType":"uint256"}]}],"stateMutability":"view"},{"type":"function","name":"getNodeLvlInfoBatch","inputs":[{"name":"from","type":"uint256","internalType":"uint256"},{"name":"to","type":"uint256","internalType":"uint256"}],"outputs":[{"name":"info","type":"tuple[]","internalType":"struct InstanceStor.LevelInfoStr[]","components":[{"name":"lvlbs","type":"uint256","internalType":"uint256"},{"name":"lvlqty","type":"uint256","internalType":"uint256"},{"name":"lvlrwrd","type":"uint256","internalType":"uint256"},{"name":"lvlyei","type":"uint256","internalType":"uint256"}]}],"stateMutability":"view"},{"type":"function","name":"getRankAgeInBatch","inputs":[],"outputs":[{"name":"rankagebatch","type":"uint256[]","internalType":"uint256[]"}],"stateMutability":"view"},{"type":"function","name":"getRankWithAgeValue","inputs":[],"outputs":[{"name":"","type":"uint256","internalType":"uint256"},{"name":"","type":"uint256","internalType":"uint256"}],"stateMutability":"view"},{"type":"function","name":"getToggleAgeCount","inputs":[{"name":"key","type":"uint256","internalType":"uint256"}],"outputs":[{"name":"","type":"uint256","internalType":"uint256"}],"stateMutability":"view"},{"type":"function","name":"getToggleAgeValue","inputs":[{"name":"key","type":"uint256","internalType":"uint256"},{"name":"index","type":"uint256","internalType":"uint256"}],"outputs":[{"name":"","type":"uint256","internalType":"uint256"}],"stateMutability":"view"},{"type":"function","name":"id","inputs":[],"outputs":[{"name":"","type":"uint256","internalType":"uint256"}],"stateMutability":"view"},{"type":"function","name":"isLock","inputs":[],"outputs":[{"name":"","type":"bool","internalType":"bool"}],"stateMutability":"view"},{"type":"function","name":"mintCount","inputs":[],"outputs":[{"name":"","type":"uint256","internalType":"uint256"}],"stateMutability":"view"},{"type":"function","name":"mints","inputs":[{"name":"","type":"uint256","internalType":"uint256"}],"outputs":[{"name":"amt","type":"uint256","internalType":"uint256"},{"name":"qty","type":"uint256","internalType":"uint256"},{"name":"mage","type":"uint256","internalType":"uint256"},{"name":"nft","type":"address","internalType":"address"}],"stateMutability":"view"},{"type":"function","name":"moveLvlIncome","inputs":[{"name":"_amount","type":"uint256","internalType":"uint256"},{"name":"_qty","type":"uint256","internalType":"uint256"},{"name":"_level","type":"uint256","internalType":"uint256"},{"name":"_epochAge","type":"uint256","internalType":"uint256"},{"name":"_op","type":"bool","internalType":"bool"}],"outputs":[{"name":"lastrnk","type":"uint256","internalType":"uint256"},{"name":"currentrnk","type":"uint256","internalType":"uint256"}],"stateMutability":"nonpayable"},{"type":"function","name":"owner","inputs":[],"outputs":[{"name":"","type":"address","internalType":"address"}],"stateMutability":"view"},{"type":"function","name":"postInit","inputs":[],"outputs":[{"name":"","type":"bool","internalType":"bool"}],"stateMutability":"view"},{"type":"function","name":"preinit","inputs":[{"name":"_hex","type":"address","internalType":"address"},{"name":"_own","type":"address","internalType":"address"},{"name":"_id","type":"uint256","internalType":"uint256"}],"outputs":[],"stateMutability":"nonpayable"},{"type":"function","name":"rank","inputs":[],"outputs":[{"name":"","type":"uint256","internalType":"uint256"}],"stateMutability":"view"},{"type":"function","name":"rankage","inputs":[{"name":"","type":"uint256","internalType":"uint256"}],"outputs":[{"name":"","type":"uint256","internalType":"uint256"}],"stateMutability":"view"},{"type":"function","name":"refreshCap","inputs":[],"outputs":[],"stateMutability":"nonpayable"},{"type":"function","name":"setBonus","inputs":[{"name":"b","type":"uint256","internalType":"uint256"}],"outputs":[],"stateMutability":"nonpayable"},{"type":"function","name":"setLock","inputs":[{"name":"flag","type":"bool","internalType":"bool"}],"outputs":[],"stateMutability":"nonpayable"},{"type":"function","name":"setSuspend","inputs":[{"name":"key","type":"uint256","internalType":"uint256"},{"name":"value","type":"bool","internalType":"bool"}],"outputs":[],"stateMutability":"nonpayable"},{"type":"function","name":"setdirect","inputs":[{"name":"addremove","type":"bool","internalType":"bool"}],"outputs":[],"stateMutability":"nonpayable"},{"type":"function","name":"storcache","inputs":[],"outputs":[],"stateMutability":"nonpayable"},{"type":"function","name":"syncBaseAddr","inputs":[],"outputs":[],"stateMutability":"nonpayable"},{"type":"function","name":"systemAge","inputs":[],"outputs":[{"name":"","type":"uint256","internalType":"uint256"}],"stateMutability":"view"},{"type":"function","name":"updateOwner","inputs":[{"name":"_newowner","type":"address","internalType":"address"}],"outputs":[],"stateMutability":"nonpayable"},{"type":"function","name":"userCycleMintCount","inputs":[{"name":"","type":"uint256","internalType":"uint256"}],"outputs":[{"name":"","type":"uint256","internalType":"uint256"}],"stateMutability":"view"},{"type":"function","name":"withdrawlDage","inputs":[],"outputs":[{"name":"","type":"uint256","internalType":"uint256"}],"stateMutability":"view"},{"type":"event","name":"EthBurned","inputs":[{"name":"sender","type":"address","indexed":true,"internalType":"address"},{"name":"amount","type":"uint256","indexed":false,"internalType":"uint256"}],"anonymous":false},{"type":"event","name":"EthTransferred","inputs":[{"name":"to","type":"address","indexed":true,"internalType":"address"},{"name":"amount","type":"uint256","indexed":false,"internalType":"uint256"}],"anonymous":false},{"type":"event","name":"HexBaseUpdated","inputs":[{"name":"previousHexBase","type":"address","indexed":true,"internalType":"address"},{"name":"newHexBase","type":"address","indexed":true,"internalType":"address"}],"anonymous":false},{"type":"event","name":"LogTxns","inputs":[{"name":"from","type":"address","indexed":false,"internalType":"address"},{"name":"orc1155","type":"address","indexed":false,"internalType":"address"},{"name":"_amt","type":"uint256","indexed":false,"internalType":"uint256"},{"name":"_value","type":"uint256","indexed":false,"internalType":"uint256"},{"name":"_time","type":"uint256","indexed":false,"internalType":"uint256"},{"name":"_type","type":"uint256","indexed":false,"internalType":"uint256"}],"anonymous":false},{"type":"event","name":"OwnerUpdated","inputs":[{"name":"previousOwner","type":"address","indexed":true,"internalType":"address"},{"name":"newOwner","type":"address","indexed":true,"internalType":"address"}],"anonymous":false},{"type":"error","name":"Auth","inputs":[]},{"type":"error","name":"CallFailed","inputs":[]},{"type":"error","name":"InvalidAddress","inputs":[]},{"type":"error","name":"InvalidOp","inputs":[{"name":"code","type":"uint256","internalType":"uint256"}]},{"type":"error","name":"InvalidState","inputs":[]},{"type":"error","name":"LimitExceeded","inputs":[{"name":"code","type":"uint256","internalType":"uint256"}]},{"type":"error","name":"NotAuthorized","inputs":[]},{"type":"error","name":"NotSafe","inputs":[]},{"type":"error","name":"Pause","inputs":[]},{"type":"error","name":"ReentrancyGuardReentrantCall","inputs":[]},{"type":"error","name":"TargetCallFailed","inputs":[{"name":"selector","type":"bytes4","internalType":"bytes4"}]}],"bytecode":{"object":"0x608034620000b757601f62006d1e38819003918201601f19168301916001600160401b03831184841017620000bc57808492602094604052833981010312620000b757516001600160a01b03811690819003620000b7578015620000a55760018060a01b0319903382600154161760015560009182541617815560016011558060125580601355806014558060155580601655601755604051616c4b9081620000d38239f35b60405163e6c4247b60e01b8152600490fd5b600080fd5b634e487b7160e01b600052604160045260246000fdfe60806040526004361015610018575b361561001657005b005b60003560e01c806302a085f214610348578063043719b41461034357806309d8da2e1461033e5780630b98f975146103395780630c19aef81461033457806312065fe01461032f578063141ca6601461032a578063143ec3b7146103255780631f185d161461032057806329ee350e1461031b578063339459a61461031657806339b4d61b146103115780633b9b79551461030c57806343a1b5ab146103075780634a65786c1461030257806352902c59146102fd5780635640dbfc146102f85780635ecf6a8a146102f3578063619d5194146102ee5780636350b2c2146102e957806369245009146102e45780636de97c66146102df5780636f493aad146102da578063725b6fff146102d5578063759f22bd146102d057806375b4d78c146102cb5780637b058ac1146102c6578063822ffec4146102c1578063880cdc31146102bc5780638da5cb5b146102b7578063934209ce146102b25780639659867e146102ad578063a1f7f539146102a8578063a20199ac146102a3578063a66303041461029e578063a9bf285b14610299578063aaa65a9c14610294578063af4845261461028f578063af640d0f1461028a578063b90306ad14610285578063bab2f55214610280578063c54e44b01461027b578063c8ef7b1a14610276578063ce6e73ac14610271578063d2a159041461026c578063d3a1a49914610267578063da02133514610262578063deb1ba1e1461025d578063e01ad5fd14610258578063e0a9bc2b146102535763fdc10bc90361000e576120a9565b61208e565b61200e565b611f94565b611f0d565b611ee1565b611e9c565b611b59565b611af2565b611aba565b611a9c565b61197a565b61195c565b61192b565b6118cc565b6118ae565b611286565b61123a565b6111c5565b6111a7565b611189565b611162565b6110e6565b610d9a565b610c69565b610c4b565b610b95565b610b11565b610ad7565b610a45565b6109ec565b610995565b61092d565b61090a565b6108af565b6107c4565b61079e565b610780565b610759565b61072d565b610714565b6106db565b6105f4565b6105b7565b61055b565b61053f565b610510565b61049f565b61047c565b610440565b61037c565b610120810192916000915b6009831061036557505050565b600190825181526020809101920192019190610358565b60408060031936011261043b5780519061039582612117565b61012036833760ff6018541661042b576103ad616685565b1561041b576103bb3361670a565b8015610407575b156103f7576103e36103f3926103d6612882565b6024359060043590612a47565b906001601155519182918261034d565b0390f35b6004905163ea8e4eb560e01b8152fd5b50336001600160a01b0360055416146103c2565b60049051634ee2123760e11b8152fd5b600490516334c2d01160e11b8152fd5b600080fd5b3461043b57604036600319011261043b576004356000526030602052602061046e60243560406000206123cd565b90546040519160031b1c8152f35b3461043b57600036600319011261043b57602060ff601854166040519015158152f35b3461043b57602036600319011261043b576104b8616685565b156104ff576104c63361670a565b80156104eb575b156104da57600435601955005b600460405163ea8e4eb560e01b8152fd5b50336001600160a01b0360055416146104cd565b6004604051634ee2123760e11b8152fd5b3461043b57600036600319011261043b5761001661052c616794565b6105358161549a565b9392505050612426565b3461043b57600036600319011261043b57602047604051908152f35b602036600319011261043b5761056f616685565b156104ff5761057d3361670a565b80156105a3575b156104da57610591612882565b61059c6004356134fc565b6001601155005b50336001600160a01b036005541614610584565b3461043b57602036600319011261043b5760043560005260306020526020604060002054604051908152f35b6001600160a01b0381160361043b57565b3461043b5760208060031936011261043b57610673600435610615816105e3565b6001600160a01b0380600254169060405192168483015283825261063882612134565b6040519061064582612134565b601182527f69735369676e6572286164647265737329000000000000000000000000000000858301526168ea565b9190806106d1575b156106a7578181610695926103f394518301019101616670565b60405190151581529081906020820190565b60046040517f3204506f000000000000000000000000000000000000000000000000000000008152fd5b508082511461067b565b3461043b57600036600319011261043b57601f54600881101561070f57602181015460408051928352602083019190915290f35b611eb9565b3461043b57600036600319011261043b57610016615faa565b3461043b57602036600319011261043b57600435600052602a6020526020604060002054604051908152f35b3461043b57600036600319011261043b5760206001600160a01b0360005416604051908152f35b3461043b57600036600319011261043b576020602d54604051908152f35b3461043b57600036600319011261043b57602060ff60185460081c166040519015158152f35b3461043b57606036600319011261043b576004356107e1816105e3565b6024356107ed816105e3565b6001600160a01b038092169081158080156108a5575b61088d5761086357610855916000938454826001600160a01b03198216178655167fe939feee179e631422bcc8f6e6d7d908cb3f8af38f5372f17c77e15aea5c80ee8580a3610850612268565b6167e6565b610860604435601b55565b80f35b60046040517fe6c4247b000000000000000000000000000000000000000000000000000000008152fd5b6024604051635258db5f60e01b815260016004820152fd5b5083821615610803565b3461043b57600036600319011261043b5760c060315460ff60325460335490604051938452602084015281811615156040840152818160081c1615156060840152818160101c161515608084015260181c16151560a0820152f35b3461043b57600036600319011261043b57610016612268565b8015150361043b57565b3461043b57602036600319011261043b5760043561094a81610923565b610952616685565b156104ff576109603361670a565b8015610981575b156104da5760ff8019601854169115151617601855600080f35b50336001600160a01b036005541614610967565b3461043b57602036600319011261043b57600435600052602c602052608060406000208054906001810154906001600160a01b03600360028301549201541691604051938452602084015260408301526060820152f35b3461043b57600036600319011261043b576020601e54604051908152f35b6020908160408183019282815285518094520193019160005b828110610a31575050505090565b835185529381019392810192600101610a23565b3461043b57600036600319011261043b57601f546001810190818111610ad257610a6e82615c2d565b91610a7c6040519384612188565b808352610a8b601f1991615c2d565b0136602084013760005b81811115610aab57604051806103f38582610a0a565b600881101561070f5780610acd9160210154610ac78286615c95565b526124be565b610a95565b6124a8565b3461043b57604036600319011261043b57600435600052602e60205260406000206024356000526020526020604060002054604051908152f35b3461043b57600036600319011261043b576020601c54604051908152f35b6020908160408183019282815285518094520193019160005b828110610b56575050505090565b9091929382608082610b896001948951606080918051845260208101516020850152604081015160408501520151910152565b01950193929101610b48565b3461043b57604036600319011261043b57600435602435808211610c3357818103908111610ad25760018101809111610ad257610bd181615c45565b9160005b828110610bea57604051806103f38682610b2f565b80610c13610c0e610bfe610c2e948661268f565b600052602f602052604060002090565b615bfb565b610c1d8287615c95565b52610c288186615c95565b506124be565b610bd5565b6024604051635258db5f60e01b8152600d6004820152fd5b3461043b57600036600319011261043b576020601954604051908152f35b3461043b5760a036600319011261043b57604435602435600435608435610c8f81610923565b610c97616685565b156104ff57610ca53361670a565b8015610d86575b156104da5760009260009480610ccd575b6040805186815260208101889052f35b9091929350601f549483600014610d3e57506001610d1d82610d3196610d0b610d03610d2696600052602f602052604060002090565b91825461268f565b9055600052602f602052604060002090565b0191825461268f565b90555b606435614223565b601f549038808080610cbd565b808260409252602f60205220938454908103908111610ad257610d76610d7f92600192610d319755600052602f602052604060002090565b019182546126ba565b9055610d29565b50336001600160a01b036005541614610cac565b3461043b5760c036600319011261043b5760043560643560443560a435602435610dc382610923565b610dcb616685565b156104ff57610dd93361670a565b80156110d2575b156104da57610df983600052602f602052604060002090565b610e0486825461268f565b90556001610e1c84600052602f602052604060002090565b01610e2882825461268f565b905560008052602f6020527fc11d2605466dd88923799a61d7f94d6c8cc580bae52b24870f6853eaa13cc4d6541515806110c9575b610e70575b601f54604051908152602090f35b15908115806110bb575b610ed7610ec8610e926003546001600160a01b031690565b60405190610eba82610eac8a602083019190602083019252565b03601f198101845283612188565b610ec2614082565b906168bf565b602080825183010191016140bb565b92999195610eea601e959295548b6126ba565b608435119182156110ae575b50816110a5575b50610f0c575b50505050610e62565b61100c98600395610f7b956000901561109c5750610f36610f30610f3c93856127ce565b9161275d565b9061256f565b955b600090156110925750610f30610f5793610f36926127ce565b935b6002610f6f82600052602f602052604060002090565b01610d0b85825461268f565b01610f8783825461268f565b9055610f92836124cd565b906001610fb4610fad60016000526030602052604060002090565b5460011690565b14801561108b575b61104e575b50600460005260306020526001610ff77f2f780f5a40ea4901ca784926540b83b7459f13a98fc8f78e5634eb2a01df3af5610fad565b14908115611046575b5061101b575b506124cd565b50388080808080808080610f03565b6004600052602b60205261103e6002600080516020616bf6833981519152610d1d565b905538611006565b905038611000565b6001600052602b60205261108360027ffcc3d43705633578a5e8f1b6d6f38d08eb8cb891174edcc94b1a54972a1aebbd610d1d565b905538610fc1565b5081610fbc565b9250505093610f59565b91505095610f3e565b90501538610efd565b601f541015915038610ef6565b6110c48561411b565b610e7a565b50821515610e5d565b50336001600160a01b036005541614610de0565b3461043b57602036600319011261043b57600435611103816105e3565b61110b616685565b156104ff576111193361670a565b801561114e575b156104da576001600160a01b0381161561113d57610016906167e6565b600460405163055c501b60e51b8152fd5b50336001600160a01b036005541614611120565b3461043b57600036600319011261043b5760206001600160a01b0360015416604051908152f35b3461043b57600036600319011261043b576020601f54604051908152f35b3461043b57600036600319011261043b576020601a54604051908152f35b3461043b57600036600319011261043b5760206112326001600160a01b03600654166040516111f381612134565b601381527f67657464656c656761746f72436f756e74282900000000000000000000000000848201526040519161122983612150565b60008352616a1d565b604051908152f35b3461043b57604036600319011261043b576112596024356004356158d8565b60405190600090825b6007831061126f5760e084f35b600190825181526020809101920192019190611262565b60c036600319011261043b5760048035906112a0826105e3565b60443560643592608435906112b3616685565b1561189e576112c13361670a565b801561188a575b1561187a5760ff60185416611822576112df612882565b6103e7600052603060205260016113157f42e4ed8a28bd93bfb836b3bd3996ada35ff866e155b2ce135e767e31acbdb63f610fad565b1480611832575b6118225761133061132c8261670a565b1590565b61181257600361137461136f61136761135084546001600160a01b031690565b61135861251e565b90611361612536565b90616a1d565b60a43561256f565b602955565b60295461138b81600052602a602052604060002090565b5482546001600160a01b0316906113b16113a361251e565b6113ab61258f565b84616a1d565b11908115916117c8575b506117aa576113d490600052602a602052604060002090565b80546001019055600183149586156117a35761141c6113fa83546001600160a01b031690565b6040519061141482610eac8a602083019190602083019252565b61136161263a565b965b611750575b50601a5415611735575b601a54611439906124be565b601a556114446121aa565b94868652602092858488015260a4356040880152606087019660008852601a5461147890600052602c602052604060002090565b90611482916126c7565b60015460405163c85700fb60e01b868201526001600160a01b03909116602480830191909152356044820152606481018790526084810189905260a480358183015281526114d160c482612188565b6114da91616ae1565b838082518301019101906114ed9161270f565b6001600160a01b031680875215611716575085926116ad61169f61161661161161168d61162189610f3661161c6116028f9c7f1517c86fcf2bfb8e3468afcc539b0004955da8027797c497ea51d1f1094ab8989f9d6115e48f9e6116ec9f6115d26115ca6115d79261159f61156c6115f598516001600160a01b031690565b86611583601a54600052602c602052604060002090565b01906001600160a01b03166001600160a01b0319825416179055565b6115c46115b386546001600160a01b031690565b6115bb61251e565b90611361612724565b906127ce565b60155461268f565b601555565b546001600160a01b031690565b6115ec61251e565b90610ec26127e1565b805181018201910161281a565b9c9491959b92939890506127ce565b6127ce565b936127ce565b61276e565b9161165561163b602d54600052602e602052604060002090565b6116478360a43561268f565b600052602052604060002090565b61166084825461284d565b90556116478461168861167f602d54600052602e602052604060002090565b9360a43561268f565b61268f565b611698828254612869565b90556127ce565b96516001600160a01b031690565b604080513381526001600160a01b039092166020830152810193909352606083019390935260a435608083015260a082019290925290819060c0820190565b0390a16116fa60a4356124cd565b506117056001601155565b604080519182526020820192909252f35b604051635258db5f60e01b815260029181019182529081906020010390fd5b61174060a435601c55565b61174b60a435601d55565b61142d565b601954908761175f838361268f565b10611785578761177561177f9361177a9361268f565b6126ba565b601955565b38611423565b604051635258db5f60e01b8152600581890190815281906020010390fd5b809661141e565b60405163cdab4c8760e01b8152600181880190815281906020010390fd5b90506117e36117d561251e565b6117dd6125c8565b83616a1d565b86109081156117f4575b50386113bb565b61180a915061180161251e565b90611361612601565b8511386117ed565b8360405163055c501b60e51b8152fd5b836040516334c2d01160e11b8152fd5b50611872610eac61184a86546001600160a01b031690565b611864601b54604051938491602083019190602083019252565b61186c6124e5565b90616998565b31151561131c565b8360405163ea8e4eb560e01b8152fd5b50336001600160a01b0360055416146112c8565b83604051634ee2123760e11b8152fd5b3461043b57600036600319011261043b576020601d54604051908152f35b3461043b57602036600319011261043b576118e5616794565b601c54906004358201809211610ad25760809161190a9181811115611924575061549a565b916040519384526020840152604083015215156060820152f35b905061549a565b3461043b57602036600319011261043b57602061195260043561194d816105e3565b61670a565b6040519015158152f35b3461043b57600036600319011261043b576020601b54604051908152f35b3461043b57602036600319011261043b576004356001600160a01b036005541633036104da57600090600460206119c76119bb85546001600160a01b031690565b6001600160a01b031690565b604051928380927f46f991ac0000000000000000000000000000000000000000000000000000000082525afa8015611a975783808481949382948391611a69575b505af1611a13616833565b50156106a7577fcdcc745fe377b103b45fa0cec23ae3ef93d6fc6a84a01f0d18c40b354dd1d5d8611a63611a526119bb600b546001600160a01b031690565b604051938452929081906020820190565b0390a280f35b611a8a915060203d8111611a90575b611a828183612188565b81019061270f565b38611a08565b503d611a78565b6130b0565b3461043b57600036600319011261043b576020602954604051908152f35b3461043b57602036600319011261043b576020611ae1600435611adc816105e3565b616b94565b6001600160a01b0360405191168152f35b3461043b57604036600319011261043b57602435611b0f81610923565b611b17616685565b156104ff57611b253361670a565b8015611b45575b156104da5761001690600435611b40616794565b61247a565b50336001600160a01b036005541614611b2c565b60208060031936011261043b57600480359060ff60185416611e8d57611b7d612882565b611b85616794565b91611ba761136f611ba16113506003546001600160a01b031690565b8561256f565b611bbd602954600052602a602052604060002090565b546003546001600160a01b031690611bd66113a361251e565b03611e6f576103e760005260306020526001611c117f42e4ed8a28bd93bfb836b3bd3996ada35ff866e155b2ce135e767e31acbdb63f610fad565b1480611e3a575b611e1c57611c4d604051611c4581611c37868a83019190602083019252565b03601f198101835282612188565b6117dd612ffe565b3403611dfe5790611c7d611c6f611cca93611c6661251e565b90610ec2613037565b868082518301019101613070565b946001600160a01b0392831694919392169080151580611df5575b611dd9575b50505080151580611dd0575b611da8575b505050611cc5611cc03460125461268f565b601255565b601355565b611cd3826124cd565b5082611cea6119bb6000546001600160a01b031690565b604051928380927f1b4fc17b0000000000000000000000000000000000000000000000000000000082525afa908115611a97577f1517c86fcf2bfb8e3468afcc539b0004955da8027797c497ea51d1f1094ab89893600092611d8b575b5050604080513381526001600160a01b0392909216602083015260009082015234606082015260808101919091526103e860a082015260c090a16100166001601155565b611da19250803d10611a9057611a828183612188565b3880611d47565b611dc892610f36611dbc611dc293346127ce565b91612785565b90616863565b388080611cae565b50811515611ca9565b611ded92610f36611dbc611dc293346127ce565b388080611c9d565b50811515611c98565b60405163cdab4c8760e01b8152600981850190815281906020010390fd5b604051635258db5f60e01b8152600681850190815281906020010390fd5b50601b54604051868101918252611e6791611e59908290602001611c37565b611e616124e5565b83616998565b311515611c18565b60405163cdab4c8760e01b8152600581850190815281906020010390fd5b6040516334c2d01160e11b8152fd5b3461043b57600036600319011261043b5760208054604051908152f35b634e487b7160e01b600052603260045260246000fd5b600881101561070f5760210190600090565b3461043b57602036600319011261043b57600435600881101561043b5760209060210154604051908152f35b3461043b57602036600319011261043b57611f26615bd6565b50600435600052602f60205260806040600020600360405191611f48836120da565b80548352600181015460208401526002810154604084015201546060820152611f926040518092606080918051845260208101516020850152604081015160408501520151910152565bf35b3461043b57602036600319011261043b57600435611fb181610923565b611fb9616685565b156104ff57611fc73361670a565b8015611ffa575b156104da5715611fe857611fe36020546124be565b602055005b6020548015610ad25760001901602055005b50336001600160a01b036005541614611fce565b3461043b57602036600319011261043b576020611952600435612030816105e3565b6001600160a01b0380600654169060405192168483015283825261205382612134565b6040519061206082612134565b601882527f697364656c656761746f724e6f64652861646472657373290000000000000000858301526169e1565b3461043b57600036600319011261043b576020611952616685565b3461043b57600036600319011261043b576020611232616794565b634e487b7160e01b600052604160045260246000fd5b6080810190811067ffffffffffffffff8211176120f657604052565b6120c4565b6060810190811067ffffffffffffffff8211176120f657604052565b610120810190811067ffffffffffffffff8211176120f657604052565b6040810190811067ffffffffffffffff8211176120f657604052565b6020810190811067ffffffffffffffff8211176120f657604052565b60e0810190811067ffffffffffffffff8211176120f657604052565b90601f8019910116810190811067ffffffffffffffff8211176120f657604052565b604051906121b7826120da565b565b604051906101e0820182811067ffffffffffffffff8211176120f657604052565b604051906121b78261216c565b67ffffffffffffffff81116120f657601f01601f191660200190565b6040519061221082612150565b60008252565b91908260c091031261043b57815191602081015191604082015161223981610923565b91606081015161224881610923565b9160a0608083015161225981610923565b92015161226581610923565b90565b612270615faa565b6122cc6001600160a01b03600354166040519061228c82612150565b600082526040519061229d82612134565b600982527f63617070696e672829000000000000000000000000000000000000000000000060208301526168bf565b80511561236f5761235361236a61233a61236561231f6122f8866020806121b799518301019101612216565b9994999792959091939763ff00000060335491151560181b169063ff000000191617603355565b62ff000060335491151560101b169062ff0000191617603355565b61ff0060335491151560081b169061ff00191617603355565b60ff8019603354169115151617603355565b603255565b603155565b60646040517f08c379a000000000000000000000000000000000000000000000000000000000815260206004820152601460248201527f43617070696e67206665746368206661696c65640000000000000000000000006044820152fd5b805482101561070f5760005260206000200190600090565b90815491680100000000000000008310156120f6578261240d9160016121b7950181556123cd565b90919082549060031b91821b91600019901b1916179055565b6103e760005260306020526040600020918254801580612472575b61246c5760019115612461571615612458575b5050565b6121b7916123e5565b811614612458575050565b50505050565b508115612441565b90600052603060205260406000209182548015806124725761246c5760019115612461571615612458575050565b634e487b7160e01b600052601160045260246000fd5b6000198114610ad25760010190565b6122656124d98261549a565b94915050839150612426565b604051906124f282612134565b601882527f676574557365724964546f496e73742875696e743235362900000000000000006020830152565b60405161252a81612150565b60008152906000368137565b6040519061254382612134565b600f82527f6d696e744379636c6544617973282900000000000000000000000000000000006020830152565b8115612579570490565b634e487b7160e01b600052601260045260246000fd5b6040519061259c82612134565b601282527f6d61784d696e74735065724379636c65282900000000000000000000000000006020830152565b604051906125d582612134565b600c82527f6d696e4d696e74517479282900000000000000000000000000000000000000006020830152565b6040519061260e82612134565b600c82527f6d61784d696e74517479282900000000000000000000000000000000000000006020830152565b6040519061264782612134565b601982527f636f6d707574654d696e7456616c75652875696e7432353629000000000000006020830152565b6046019081604611610ad257565b9060018201809211610ad257565b91908201809211610ad257565b600019810191908211610ad257565b600119810191908211610ad257565b91908203918211610ad257565b60036001600160a01b0360606121b7948051855560208101516001860155604081015160028601550151169101906001600160a01b03166001600160a01b0319825416179055565b9081602091031261043b5751612265816105e3565b6040519061273182612134565b600f82527f6d696e74466565506572517479282900000000000000000000000000000000006020830152565b9081606402916064830403610ad257565b9061271091828102928184041490151715610ad257565b90606482029180830460641490151715610ad257565b90601982029180830460191490151715610ad257565b90670de0b6b3a764000091828102928184041490151715610ad257565b81810292918115918404141715610ad257565b604051906127ee82612134565b600682527f706f6f6c282900000000000000000000000000000000000000000000000000006020830152565b908160e091031261043b5780519160208201519160408101519160608201519160808101519160c060a083015192015190565b91909160008382019384129112908015821691151617610ad257565b81810392916000138015828513169184121617610ad257565b600260115414612893576002601155565b60046040517f3ee5aeb5000000000000000000000000000000000000000000000000000000008152fd5b604051906128ca8261216c565b60e0368337565b604051906128de82612134565b601082527f65616368636c61696d4379636c652829000000000000000000000000000000006020830152565b6040519061291782612134565b601082527f6d6178436c61696d5065724461792829000000000000000000000000000000006020830152565b6040519061295082612134565b601082527f6d696e436c61696d5065724461792829000000000000000000000000000000006020830152565b6040519061298982612134565b601682527f6d6178476c6f62616c436c61696d5065724461792829000000000000000000006020830152565b604051906129c282612134565b601582527f67657477697468647261776e2875696e743235362900000000000000000000006020830152565b90600981101561070f5760051b0190565b60405190612a0c82612134565b601d82527f636f6d707574654f7a6f6e65546f446f6c6c61722875696e74323536290000006020830152565b9081602091031261043b575190565b91929092828115612ff65750612a5c816124cd565b601c5494612a6a818761268f565b831115612fe957612a88612a806032928861268f565b965b876126ba565b11612fe257600390612aa182546001600160a01b031690565b612ac0612ab7612aaf61251e565b6113ab6128d1565b601d549061268f565b8410612fc957612ade612ae491612ad561251e565b9061136161290a565b96614395565b6001600052602b602052612c3c612c0b612bda612ba9612b78612b47877ffcc3d43705633578a5e8f1b6d6f38d08eb8cb891174edcc94b1a54972a1aebbd01546004600052602b60205288600080516020616bf68339815191525b01549061268f565b6002600052602b602052877fbd6c10e6ce287735500a1c033be76c57d5e632addc2ff6eff6bb587b8ee0d95c612b3f565b6003600052602b602052867fd3904653c5d0f9b122879aa13f7287465a10522aedd588dbbd607cf6f8b2147f612b3f565b6005600052602b602052857f4b5b933abde5416303ae4347d7fcdf5a17e8022e0fefc2b31c7609ebd3c32fe9612b3f565b6006600052602b602052847f5ac1f6ea00ad8b0f699e3a293cc93d6fdaf7ee608fbc40ffef54db3fb7ebb943612b3f565b6007600052602b602052837f455b6dea826802a5b6200d61a7810fccbd36f05c878743e3ac0e0e7aff3a46e8612b3f565b91612c4e81546001600160a01b031690565b612c61612c5961251e565b6117dd612943565b8410801590612fc2575b15612fa957612c8590612c7c61251e565b9061136161297c565b92612c986004546001600160a01b031690565b97604094612cd0865180612cb48a602083019190602083019252565b039b612cc8601f199d8e8101845283612188565b6113616129b5565b1015612f925760009181811115612f8b57612ceb92506126ba565b91600092600180915b6007831115612ddf5750505096612da992612dae94926121b797989960165460e08c0152601754806101008d015281612dd5575b50612dbd575b612d386000601655565b612d426000601755565b60008215612db3575092612d8a612d9293612d7e93612d6b612da197546001600160a01b031690565b9351948591602083019190602083019252565b03908101845283612188565b610ec26129ff565b60208082518301019101612a38565b60145461268f565b601455565b601d55565b9350505050612da1565b612dd0612dcb602d546124be565b602d55565b612d2e565b9050151538612d28565b90919484612df787600052602b602052604060002090565b015482612ef657612eef91612e709185612e1b8a600052602b602052604060002090565b01612e2782825461268f565b9055600088612e408b600052602b602052604060002090565b0155612e558d612e4f8b61269c565b906129ee565b525b612e69612e638961269c565b8d6129ee565b519061268f565b957f1517c86fcf2bfb8e3468afcc539b0004955da8027797c497ea51d1f1094ab89889612ea08d612e4f8561269c565b51612ee7612ead85612673565b8c5193849333859094939260a0926001600160a01b0360c08401971683526000602084015260006040840152606083015260808201520152565b0390a16124be565b9190612cf4565b9180831115612f6a57612eef91612f3d612f13612e7093866126ba565b809587612f2a8c600052602b602052604060002090565b01612f3683825461268f565b90556126ba565b87612f528a600052602b602052604060002090565b0155600093612f648d612e4f8b61269c565b52612e57565b612f7b612eef9293612e70926126ba565b926000612f648d612e4f8b61269c565b5050612ceb565b845163cdab4c8760e01b8152600480820152602490fd5b60405163cdab4c8760e01b8152600a6004820152602490fd5b5082612c6b565b60405163cdab4c8760e01b815260026004820152602490fd5b5050915090565b506032612a888396612a82565b925050915090565b6040519061300b82612134565b601d82527f636f6d70757465446f6c6c6172546f4f7a6f6e652875696e74323536290000006020830152565b6040519061304482612134565b600a82527f6275726e636e66672829000000000000000000000000000000000000000000006020830152565b91908260c091031261043b578151613087816105e3565b9160208101519160408201519160608101516130a2816105e3565b9160a0608083015192015190565b6040513d6000823e3d90fd5b604051906130c982612134565b601382527f55736572546f496e7374286164647265737329000000000000000000000000006020830152565b6040519061310282612134565b600b82527f6d696e74436f756e7428290000000000000000000000000000000000000000006020830152565b6040519061313b82612134565b600e82527f6d696e74732875696e74323536290000000000000000000000000000000000006020830152565b6040519061317482612134565b600b82527f6d696e74656441676528290000000000000000000000000000000000000000006020830152565b604051906131ad82612134565b600b82527f6d696e74656471747928290000000000000000000000000000000000000000006020830152565b604051906131e682612134565b600c82527f6964732875696e743235362900000000000000000000000000000000000000006020830152565b6040519061321f82612134565b600982527f6d696e74416d74282900000000000000000000000000000000000000000000006020830152565b6040519061325882612134565b600a82527f647261776e6167652829000000000000000000000000000000000000000000006020830152565b6040519061329182612134565b600c82527f4c53422875696e743235362900000000000000000000000000000000000000006020830152565b604051906132ca82612134565b600782527f647261776e2829000000000000000000000000000000000000000000000000006020830152565b91908260c091031261043b5781519160208101519160408201519160608101519160a0608083015192015190565b6040519061333182612134565b601382527f67657452657761726473286164647265737329000000000000000000000000006020830152565b919082604091031261043b576020825192015190565b6040519061338082612134565b600782527f626f6e75732829000000000000000000000000000000000000000000000000006020830152565b604051906133b982612134565b600682527f63616765282900000000000000000000000000000000000000000000000000006020830152565b604051906133f282612134565b601982527f67657445666665637469766552616e6b286164647265737329000000000000006020830152565b6040519061342b82612134565b601f82527f6765746e6f646572616e6b61676528616464726573732c75696e7432353629006020830152565b6040519061346482612134565b601082527f6765744e6f6465286164647265737329000000000000000000000000000000006020830152565b908160a091031261043b5780519160208201516134ac816105e3565b916040810151916080606083015161225981610923565b604051906134d082612134565b601a82527f77697468647261776e496e636f6d654f662861646472657373290000000000006020830152565b60185460081c60ff1661407f5760049060206135236119bb6000546001600160a01b031690565b604051938480927f447aa3040000000000000000000000000000000000000000000000000000000082525afa918215611a975760009261405e575b506135a5611c3761359761357a6001546001600160a01b031690565b604080516001600160a01b03909216602083015290928391820190565b61359f6130bc565b84616998565b906001600160a01b0382161561403a5760058111614021576135d06135c861251e565b6113ab6130f5565b90601a546135de818361268f565b831115614019576135ee9161268f565b81613b18575b5080601a5414908115613b0f575b5061360b575050565b61362661362161361961251e565b6113ab61324b565b601e55565b601e54601c548111613aad575b5061365f61365061364261251e565b61364a6132bd565b846168bf565b602080825183010191016132f6565b94600161367d9592959493946001600052602b602052604060002090565b01557fbd6c10e6ce287735500a1c033be76c57d5e632addc2ff6eff6bb587b8ee0d95d557fd3904653c5d0f9b122879aa13f7287465a10522aedd588dbbd607cf6f8b21480557f8bd115fc6ec81ad72d5ca8a8b3bd3d0177f1b615af6ad35644a4e24a7bed08bd557f5ac1f6ea00ad8b0f699e3a293cc93d6fdaf7ee608fbc40ffef54db3fb7ebb944557f455b6dea826802a5b6200d61a7810fccbd36f05c878743e3ac0e0e7aff3a46e95560008052602f6020527fc11d2605466dd88923799a61d7f94d6c8cc580bae52b24870f6853eaa13cc4d754613761906115d29061279b565b6137a861379960405161378b81611c3786602083019190916001600160a01b036020820193169052565b613793613324565b856168bf565b6020808251830101910161335d565b602b6020527ffcc3d43705633578a5e8f1b6d6f38d08eb8cb891174edcc94b1a54972a1aebbd919091556004600052600080516020616bf6833981519152556137fd61177a6137f561251e565b6113ab613373565b61381361362161380b61251e565b6113ab6133ac565b61385061384b60405161383d81611c3786602083019190916001600160a01b036020820193169052565b6138456133e5565b85616a1d565b601f55565b60005b600f8111156139b85750613895610eac6138bb9361388d6138a494604051938491602083019190916001600160a01b036020820193169052565b610ec2613457565b60208082518301019101613490565b935050505060ff8019601854169115151617601855565b600460206138d46119bb6000546001600160a01b031690565b604051928380927f6325dd040000000000000000000000000000000000000000000000000000000082525afa908115611a975761395291610eac91600091613999575b5061394a61392d6001546001600160a01b031690565b604080516001600160a01b03909216602083015290938491820190565b6113616134c3565b6005600052602b6020527f4b5b933abde5416303ae4347d7fcdf5a17e8022e0fefc2b31c7609ebd3c32fea55601c54601d555b6121b761010061ff00196018541617601855565b6139b2915060203d602011611a9057611a828183612188565b38613917565b806139d191613a20575b601f548111156139d6576124be565b613853565b604080516001600160a01b0385166020820152908101829052613a1b90613a1290613a048160608101611c37565b613a0c61341e565b87616a1d565b61240d83611ecf565b6124be565b6040517f5329daca0000000000000000000000000000000000000000000000000000000060208201526001600160a01b038416602482015260448101829052613a7a9061379990613a748160648101611c37565b86616ae1565b90613a8f83600052602f602052604060002090565b556001613aa683600052602f602052604060002090565b01556139c2565b601c55613ade611c37613ad0601e54604051928391602083019190602083019252565b613ad8613284565b83616a59565b613b08613af7602d54600052602e602052604060002090565b601c54600052602052604060002090565b5538613633565b90501538613602565b60008052602f6020527fc11d2605466dd88923799a61d7f94d6c8cc580bae52b24870f6853eaa13cc4d6547fc11d2605466dd88923799a61d7f94d6c8cc580bae52b24870f6853eaa13cc4d7549395909491929091905b601a5484811015613fba57613b86613b8b916124be565b601a55565b601a5495613bb9604051613bab81611c378b602083019190602083019252565b613bb361312e565b8a616998565b90613bcd613bc561251e565b6113ab613167565b91613be1613bd961251e565b6117dd6131a0565b91613c06604051613bfe81611c3760208201906000602083019252565b6113ab6131d9565b90613c29613c23613c1561251e565b613c1d613212565b86616a1d565b93616b94565b9a613c3f6119bb6000546001600160a01b031690565b6040517fcfaa1f6c0000000000000000000000000000000000000000000000000000000081526001600160a01b039d909d1660048e015260208d602481845afa9c8d15611a975760009d613f99575b506001600160a01b038d1615613f27575b50613cac61132c8d61670a565b61113d57613d8b92613d1a86613d14876119bb9681613cd8613d7c98600052602c602052604060002090565b55836001613cf2601a54600052602c602052604060002090565b01558b6002613d0d601a54600052602c602052604060002090565b015561268f565b9d61268f565b9c613d77613d306001546001600160a01b031690565b60405163c85700fb60e01b60208201526001600160a01b0390911660248201526044810193909352606483018890526084830187905260a483018990528260c48101610eac565b616ae1565b6020808251830101910161270f565b6001600160a01b03811615613f0e577f1517c86fcf2bfb8e3468afcc539b0004955da8027797c497ea51d1f1094ab89893613eb8613ef592613de060039182611583601a54600052602c602052604060002090565b611616613e87613e7f611611611647613e2e8a610f3661161c613e1f613e106115e48c546001600160a01b031690565b6020808251830101910161281a565b9e9491959b92939890506127ce565b94611688613e78602d613e5a8c61164788613e548554600052602e602052604060002090565b9261268f565b613e658a825461284d565b905554600052602e602052604060002090565b938a61268f565b918254612869565b90556001601a5414613f00575b613eaa601a54600052602c602052604060002090565b01546001600160a01b031690565b604080513381526001600160a01b03909216602083015281019490945260608401929092526080830191909152600060a0830152819060c0820190565b0390a1949394613b6f565b613f0983601c55565b613e94565b604051635258db5f60e01b815260026004820152602490fd5b6040517fb771c89600000000000000000000000000000000000000000000000000000000815260006004820152919c50602090829060249082905afa908115611a9757600091613f7a575b509a38613c9f565b613f93915060203d602011611a9057611a828183612188565b38613f72565b613fb3919d5060203d602011611a9057611a828183612188565b9b38613c8e565b5060008052602f6020527fc11d2605466dd88923799a61d7f94d6c8cc580bae52b24870f6853eaa13cc4d6959095557fc11d2605466dd88923799a61d7f94d6c8cc580bae52b24870f6853eaa13cc4d7939093559391929050386135f4565b5050806135ee565b60405163cdab4c8760e01b815260036004820152602490fd5b505050614048613621616794565b614053601e54601c55565b613985601e54601d55565b61407891925060203d602011611a9057611a828183612188565b903861355e565b50565b6040519061408f82612134565b601482527f6c6576656c436c617573652875696e74323536290000000000000000000000006020830152565b908160a091031261043b578051916020820151916040810151916080606083015192015190565b604051906140ef82612134565b601382527f72616e6b436c617573652875696e7432353629000000000000000000000000006020830152565b90601f6141288154612681565b925b600884106141385750509050565b6003546001600160a01b03169360409461417e614170875160209361416882610eac888883019190602083019252565b610ec26140e2565b8280825183010191016140bb565b505050918215801561421b575b614203576141b1949596975054101590816141e1575b50806141cf575b6141b9576124be565b92919061412a565b6141c281601f55565b613a1b8361240d83611ecf565b5083546141db8261269c565b146141a8565b905060016141f983600052602f602052604060002090565b01541015386141a1565b8751635258db5f60e01b815260036004820152602490fd5b50811561418b565b90156142b75790601f6142368154612681565b925b600884106142465750509050565b6003546001600160a01b031693604094614276614170875160209361416882610eac888883019190602083019252565b50505091821580156142af575b614203576142a7949596975054101590816141e15750806141cf576141b9576124be565b929190614238565b508115614283565b506000905b601f548211614391576003546001600160a01b0316916040926142f5614170855160209361416882610eac888883019190602083019252565b5050509183151580614381575b61436a576143259495505410159081614348575b501561432b57613a1b81601f55565b906142bc565b613a1b61433782611ecf565b8154906000199060031b1b19169055565b9050600161436083600052602f602052604060002090565b0154101538614316565b8551635258db5f60e01b8152600480820152602490fd5b5082158061430257508115614302565b9050565b6121b7906146ce6146c96143a8836147ff565b80516001600052602b6020526146c0906146bb906003906143e9827ffcc3d43705633578a5e8f1b6d6f38d08eb8cb891174edcc94b1a54972a1aebbd610d1d565b905560608401516004600052602b60205261441282600080516020616bf6833981519152610d1d565b90556020848101516002600052602b90915261444e827fbd6c10e6ce287735500a1c033be76c57d5e632addc2ff6eff6bb587b8ee0d95c610d1d565b90556040840180516003600052602b60205290919061448d827fd3904653c5d0f9b122879aa13f7287465a10522aedd588dbbd607cf6f8b2147f610d1d565b905560808501516005600052602b6020526144c8827f4b5b933abde5416303ae4347d7fcdf5a17e8022e0fefc2b31c7609ebd3c32fe9610d1d565b905560a08501516006600052602b602052614503827f5ac1f6ea00ad8b0f699e3a293cc93d6fdaf7ee608fbc40ffef54db3fb7ebb943610d1d565b905560c08501516007600052602b6020529061453f907f455b6dea826802a5b6200d61a7810fccbd36f05c878743e3ac0e0e7aff3a46e8610d1d565b905561010084015160026000819052602b60205261457d907fbd6c10e6ce287735500a1c033be76c57d5e632addc2ff6eff6bb587b8ee0d95c610d1d565b9055610120840180516003600052602b60205290946101c0916145c160027fd3904653c5d0f9b122879aa13f7287465a10522aedd588dbbd607cf6f8b2147f610d1d565b90556101608101516005600052602b6020526145fe60027f4b5b933abde5416303ae4347d7fcdf5a17e8022e0fefc2b31c7609ebd3c32fe9610d1d565b90556101808101516006600052602b60205261463b60027f5ac1f6ea00ad8b0f699e3a293cc93d6fdaf7ee608fbc40ffef54db3fb7ebb943610d1d565b90556101a08101516007600052602b60205261467860027f455b6dea826802a5b6200d61a7810fccbd36f05c878743e3ac0e0e7aff3a46e8610d1d565b905501516146b06146a889614699602d54600052602e602052604060002090565b90600052602052604060002090565b91825461284d565b90555160165461268f565b601655565b5160175461268f565b601755565b601c55565b604051906101e0820182811067ffffffffffffffff8211176120f657604052816101c06000918281528260208201528260408201528260608201528260808201528260a08201528260c08201528260e08201528261010082015282610120820152826101408201528261016082015282610180820152826101a08201520152565b6040519061476182612134565b600a82527f73687574646f776e2829000000000000000000000000000000000000000000006020830152565b6040519061479a82612134565b601182527f696e636f6d654f662861646472657373290000000000000000000000000000006020830152565b604051906147d382612134565b601482527f636f6d70757465546f75722875696e74323536290000000000000000000000006020830152565b906148086146d3565b91600383815461481e906001600160a01b031690565b92614827614754565b61482f612203565b61483991866169e1565b6103e76000526030602052600194857f42e4ed8a28bd93bfb836b3bd3996ada35ff866e155b2ce135e767e31acbdb63f546001161491614877615825565b606087019081528187526001600052602b6020527ffcc3d43705633578a5e8f1b6d6f38d08eb8cb891174edcc94b1a54972a1aebbd808a01549089015491979295916148c29161268f565b6001600052602b6020527ffcc3d43705633578a5e8f1b6d6f38d08eb8cb891174edcc94b1a54972a1aebbf54600296916148fc919061268f565b614905916126ba565b825286516004600052602b602052600080516020616bf6833981519152808b0154908a01548392869290916149399161268f565b6004600052602b60205288600080516020616bf6833981519152015461495e9161268f565b614967916126ba565b89526101c09761497a92614e3557615055565b969399909501526101008d0152602096878d0152600014614dfa575050506149c9610eac6149b06004546001600160a01b031690565b611864601b546040519384918983019190602083019252565b3160408901525b6009546001600160a01b031691614a2e614a126149f489546001600160a01b031690565b6040519182918883019190916001600160a01b036020820193169052565b0394614a26601f1996878101845283612188565b61136161478d565b6005600052602b60205295614ac5614a94897f4b5b933abde5416303ae4347d7fcdf5a17e8022e0fefc2b31c7609ebd3c32fe901546005600052602b602052847f4b5b933abde5416303ae4347d7fcdf5a17e8022e0fefc2b31c7609ebd3c32fe9612b3f565b6005600052602b602052827f4b5b933abde5416303ae4347d7fcdf5a17e8022e0fefc2b31c7609ebd3c32fe9612b3f565b60808b018181529781811115614dec57614ae291508851906126ba565b87526004601f548381101580614da6575b614d6d575b10159182614cf5575b5050614cc2575b5050600160005250603060205282614b3f7fc7874712a1c7fb891b421aa6c0d42dbf3cd912d7a18f183783fb32e938cbaa01610fad565b14614ca6575b6004600052603060205282614b797f2f780f5a40ea4901ca784926540b83b7459f13a98fc8f78e5634eb2a01df3af5610fad565b14614c8a575b506005600052603060205281614bb47f9d0b70a39d4b3569f175af8ea51ae318eac80460c467ee4a16ee63ec5720706e610fad565b14614c6c575b506006600052603060205280614bef7fd558ed0e54509c62efb2aedb46e6ad1b04c7bdca351e3613e136c946b91686d8610fad565b14614c4c575b60076000526030602052614c287f4ebb69666752feecd656ebf5f8cd3c2f1c70bb06a0c3d3744be479e4a580c233610fad565b14614c2f57565b600060c083018051614c476101a0860191825161268f565b905252565b600060a084018051614c64610180870191825161268f565b905252614bf5565b8060009151614c81610160870191825161268f565b90525238614bba565b60009051614c9e610140870191825161268f565b505238614b7f565b8451614cb760e0870191825161268f565b905260008552614b45565b614ce0612d7e92614ce8946040519485918201906004602083019252565b6113616147c6565b60c0860152388080614b08565b6007600052602b6020527f455b6dea826802a5b6200d61a7810fccbd36f05c878743e3ac0e0e7aff3a46e8808a0154614d659450614d34929091612b3f565b6007600052602b602052907f455b6dea826802a5b6200d61a7810fccbd36f05c878743e3ac0e0e7aff3a46e8612b3f565b153880614b01565b614d9c604051614d9481614d888b8201906002602083019252565b03898101835282612188565b613a0c6147c6565b60a08d0152614af8565b506006600052602b6020527f5ac1f6ea00ad8b0f699e3a293cc93d6fdaf7ee608fbc40ffef54db3fb7ebb943808b0154614de691612bda91908790612b3f565b15614af3565b614df5916126ba565b614ae2565b15614e25575050614e19610eac6149b06004546001600160a01b031690565b316101208901526149d0565b60408a01526101208901526149d0565b8451614e4660e0870191825161268f565b9052600085528951614e5e610140870191825161268f565b905260008a52615055565b604051906040820182811067ffffffffffffffff8211176120f65760405260006020838281520152565b60405190614ea0826120fb565b81614ea9614e69565b8152614eb3614e69565b60208201526040614ec2614e69565b910152565b60405190614ed482612134565b601882527f6765744261746368526f79616c7479436c6175736573282900000000000000006020830152565b6102a090818184031261043b5782601f8201121561043b576040805193614f268561216c565b849383019281841161043b57935b838510614f4357505050505090565b60608583031261043b578251606091614f5b826120fb565b8651825260209182880151838201528588015186820152815201940193614f34565b60405190614f8a82612134565b601f82527f676574526f79616c697479416d6f756e7442617463682875696e7432353629006020830152565b9060e08282031261043b5780601f8301121561043b5760405191614fd98361216c565b829060e0810192831161043b57905b828210614ff55750505090565b8151815260209182019101614fe8565b90600781101561070f5760051b0190565b8181029291600082127f8000000000000000000000000000000000000000000000000000000000000000821416610ad2578184051490151715610ad257565b9160009260009260009260009260009261506d614e93565b61507683615354565b60208301519060208201525261508b836153f8565b6040830151906020820152526150d46150c56150af6003546001600160a01b031690565b6150b7614ec7565b6150bf612203565b916168bf565b60208082518301019101614f00565b92601c54926150eb6004546001600160a01b031690565b93601f54905b8381106151015750505050505050565b61513d61512e60405161512081611c3786602083019190602083019252565b615128614f7d565b896168bf565b60208082518301019101614fb6565b6001905b838211156152605750508215615160575b61515b906124be565b6150f1565b61518561517d82614699602d54600052602e602052604060002090565b54809c61284d565b9a61519082866126ba565b906000916040880151805188811061520a575b5050808311615202575b826151b7916126ba565b91806151ec575b50816151cc575b5050615152565b9a6151de6151e49261515b949d615016565b9061284d565b9990386151c5565b9a6151de829c6151fb93615016565b99386151be565b9150816151ad565b808611156152575750602085915b016152238151612681565b8910156152485750875b818111156151a3576152409294506126ba565b9138806151a3565b6152529051612681565b61522d565b60209091615218565b909c61527461526e8f61269c565b8a615005565b51511580156152f4575b6152ea576020870151805184101590816152db575b50156152bf576152b36152b9918f6152ad612e699161269c565b85615005565b9d6124be565b90615141565b9c9d6152d58f91612e696152ad6152b99461269c565b9e6124be565b60209150015183111538615293565b9c6152b9906124be565b508d61530c61530282611ecf565b90549060031b1c90565b841015908161531d575b501561527e565b61534b9150604061534261533c61533661530285611ecf565b9361269c565b8d615005565b5101519061268f565b8311158e615316565b6002600090815260306020527f89a47dfbb363dd4e64da56b4585033c9abd8a425d24b94630469c44bee7189c280549193929082156153f057600183166153d6575050615302906002845260306020526153b860406153be8187206153b8856126ab565b906123cd565b90549060031b1c95600281526030602052209161269c565b9093506153b86153e59261269c565b90549060031b1c9190565b509250508190565b6003600081815260306020527f11a30d68d5ffd3a101d3683e9a6997d49d9351e95dc004c6a4e652b897626df7805491949390821561549157600183166154795750506154719082855260306020526153b8604061545b8188206153b8856126ab565b905490861b1c968581526030602052209161269c565b9054911b1c90565b9094506153b86154889261269c565b9054911b1c9190565b50935050508190565b906154a66000926147ff565b60008052602f602052906154ea6154e17fc11d2605466dd88923799a61d7f94d6c8cc580bae52b24870f6853eaa13cc4d6546012549061268f565b603154906127ce565b916154f3615825565b505060335460ff811661576e575b60ff8160081c166156b0575b60ff8160101c166155ee575b60181c60ff1661555e575b5061554861554361553a6015546013549061268f565b603254906127ce565b6127b1565b9082841180156155555790565b50816014541190565b926155e16155c16155a16155818761014060606155e7989a01519101519061268f565b6004600052602b6020526001600080516020616bf6833981519152612b3f565b6004600052602b6020526002600080516020616bf6833981519152612b3f565b6004600052602b6020526003600080516020616bf6833981519152612b3f565b9061268f565b9138615524565b936156a860ff916155e161567661564461561260408801516101208901519061268f565b6003600052602b60205260017fd3904653c5d0f9b122879aa13f7287465a10522aedd588dbbd607cf6f8b2147f612b3f565b6003600052602b60205260027fd3904653c5d0f9b122879aa13f7287465a10522aedd588dbbd607cf6f8b2147f612b3f565b60036000819052602b6020527fd3904653c5d0f9b122879aa13f7287465a10522aedd588dbbd607cf6f8b2147f612b3f565b949050615519565b93615768906155e16157366157046156d260208701516101008801519061268f565b6002600052602b60205260017fbd6c10e6ce287735500a1c033be76c57d5e632addc2ff6eff6bb587b8ee0d95c612b3f565b60026000819052602b6020527fbd6c10e6ce287735500a1c033be76c57d5e632addc2ff6eff6bb587b8ee0d95c612b3f565b6002600052602b60205260037fbd6c10e6ce287735500a1c033be76c57d5e632addc2ff6eff6bb587b8ee0d95c612b3f565b9361550d565b935061581f6157ed6157bb615789845160e08601519061268f565b60016000819052602b6020527ffcc3d43705633578a5e8f1b6d6f38d08eb8cb891174edcc94b1a54972a1aebbd612b3f565b6001600052602b60205260027ffcc3d43705633578a5e8f1b6d6f38d08eb8cb891174edcc94b1a54972a1aebbd612b3f565b6001600052602b60205260037ffcc3d43705633578a5e8f1b6d6f38d08eb8cb891174edcc94b1a54972a1aebbd612b3f565b93615501565b600090816001815b600f8211156158925750506001600052602b6020527ffcc3d43705633578a5e8f1b6d6f38d08eb8cb891174edcc94b1a54972a1aebbd548101809111610ad2576004600052602b6020529161226590600080516020616bf6833981519152549061268f565b9093848252602f92602093808552604090600282862001548301809311610ad2576003929588865252832001548101809111610ad2576158d290946124be565b9061582d565b9190916158e36128bd565b926001808314615aae57506002808314615aae57506003808314615aae575060048214615a435760058214615a02576159429061591e616794565b90601c5461592c828261268f565b8311156159fb5761593d925061268f565b6147ff565b90600681146159ac576007146159555750565b9091506101a06159636121da565b9160e08101518352610100810151602084015261012081015160408401526101408101516060840152610160810151608084015261018081015160a0840152015160c082015290565b5090915060c06159ba6121da565b91805183526020810151602084015260408101516040840152606081015160608401526080810151608084015260a081015160a0840152015160c082015290565b50506147ff565b50509050615a0e6121da565b601254815260135460208201526015546040820152601454606082015260006080820152600060a0820152600060c082015290565b50509050615a4f6121da565b60165481526017546020820152615a716001600052602b602052604060002090565b5460408201526004600052602b602052600080516020616bf683398151915254606082015260006080820152600060a0820152600060c082015290565b9293505050615abb6121da565b7ffcc3d43705633578a5e8f1b6d6f38d08eb8cb891174edcc94b1a54972a1aebbd82015481527fbd6c10e6ce287735500a1c033be76c57d5e632addc2ff6eff6bb587b8ee0d95c8201546020808301919091527fd3904653c5d0f9b122879aa13f7287465a10522aedd588dbbd607cf6f8b2147f8301546040830152600080516020616bf683398151915283015460608301527f4b5b933abde5416303ae4347d7fcdf5a17e8022e0fefc2b31c7609ebd3c32fe983015460808301527f5ac1f6ea00ad8b0f699e3a293cc93d6fdaf7ee608fbc40ffef54db3fb7ebb94383015460a08301526007600052602b90527f455b6dea826802a5b6200d61a7810fccbd36f05c878743e3ac0e0e7aff3a46e89091015460c082015290565b60405190615be3826120da565b60006060838281528260208201528260408201520152565b90604051615c08816120da565b6060600382948054845260018101546020850152600281015460408501520154910152565b67ffffffffffffffff81116120f65760051b60200190565b90615c4f82615c2d565b615c5c6040519182612188565b8281528092615c6d601f1991615c2d565b019060005b828110615c7e57505050565b602090615c89615bd6565b82828501015201615c72565b805182101561070f5760209160051b010190565b615f8e6101c06121b792615ce3615cc782516001600160a01b031690565b6001600160a01b03166001600160a01b03196002541617600255565b615d16615cfa60208301516001600160a01b031690565b6001600160a01b03166001600160a01b03196003541617600355565b615d49615d2d60408301516001600160a01b031690565b6001600160a01b03166001600160a01b03196004541617600455565b615d7c615d6060608301516001600160a01b031690565b6001600160a01b03166001600160a01b03196005541617600555565b615daf615d9360808301516001600160a01b031690565b6001600160a01b03166001600160a01b03196006541617600655565b615de2615dc660a08301516001600160a01b031690565b6001600160a01b03166001600160a01b03196007541617600755565b615e15615df960c08301516001600160a01b031690565b6001600160a01b03166001600160a01b03196008541617600855565b615e48615e2c60e08301516001600160a01b031690565b6001600160a01b03166001600160a01b03196009541617600955565b615e7c615e606101008301516001600160a01b031690565b6001600160a01b03166001600160a01b0319600a541617600a55565b615eb0615e946101208301516001600160a01b031690565b6001600160a01b03166001600160a01b0319600b541617600b55565b615ee4615ec86101408301516001600160a01b031690565b6001600160a01b03166001600160a01b0319600c541617600c55565b615f18615efc6101608301516001600160a01b031690565b6001600160a01b03166001600160a01b0319600d541617600d55565b615f4c615f306101808301516001600160a01b031690565b6001600160a01b03166001600160a01b0319600e541617600e55565b615f80615f646101a08301516001600160a01b031690565b6001600160a01b03166001600160a01b0319600f541617600f55565b01516001600160a01b031690565b6001600160a01b03166001600160a01b03196010541617601055565b615fbf6119bb6000546001600160a01b031690565b604051907f97f3815a000000000000000000000000000000000000000000000000000000008252602082600481845afa918215611a975760009261664f575b50604051917fcfbffe53000000000000000000000000000000000000000000000000000000008352602083600481855afa928315611a975760009361662e575b50604051907fab6e844f000000000000000000000000000000000000000000000000000000008252602082600481865afa918215611a975760009261660d575b50604051917f14d8d024000000000000000000000000000000000000000000000000000000008352602083600481875afa928315611a97576000936165ec575b50604051927fd1f956b1000000000000000000000000000000000000000000000000000000008452602084600481885afa938415611a97576000946165cb575b50604051937fe61dfd58000000000000000000000000000000000000000000000000000000008552602085600481895afa948515611a97576000956165aa575b506040517fe09d394d0000000000000000000000000000000000000000000000000000000081526020816004818a5afa908115611a975760009161658b575b506040517f52b06d640000000000000000000000000000000000000000000000000000000081526020816004818b5afa908115611a975760009161656c575b506040517f013cf08b00000000000000000000000000000000000000000000000000000000815260006004820152916020836024818c5afa928315611a975760009361654b575b50604051977f5e09dbe70000000000000000000000000000000000000000000000000000000089526020896004818d5afa948515611a975760049960009661652a575b5060208b6040519b8c80927faa0ddc160000000000000000000000000000000000000000000000000000000082525afa968715611a975760049a600098616509575b5060208c6040519c8d80927f640274270000000000000000000000000000000000000000000000000000000082525afa988915611a975760049b60009a6164e8575b5060208d6040519d8e80927f30125cf50000000000000000000000000000000000000000000000000000000082525afa9a8b15611a97578d60049d60009d6164c6575b506020906040519e8f80927f24768d910000000000000000000000000000000000000000000000000000000082525afa9c8d15611a975760009d6164a5575b50604051809e81907f9dc969a80000000000000000000000000000000000000000000000000000000082525a92600491602094fa9d8e15611a975760009e616484575b506163986121b9565b6001600160a01b0390911681529d8e906001600160a01b03166020820152604001906163cc91906001600160a01b03169052565b6001600160a01b031660608d01526001600160a01b031660808c01526001600160a01b031660a08b01526001600160a01b031660c08a01526001600160a01b031660e08901526001600160a01b03166101008801526001600160a01b03166101208701526001600160a01b03166101408601526001600160a01b03166101608501526001600160a01b03166101808401526001600160a01b03166101a08301526001600160a01b03166101c08201526121b790615ca9565b61649e919e5060203d602011611a9057611a828183612188565b9c3861638f565b6164bf919d5060203d602011611a9057611a828183612188565b9b3861634c565b6020919d506164e190823d8411611a9057611a828183612188565b9c9061630d565b616502919a5060203d602011611a9057611a828183612188565b98386162ca565b61652391985060203d602011611a9057611a828183612188565b9638616288565b61654491965060203d602011611a9057611a828183612188565b9438616246565b61656591935060203d602011611a9057611a828183612188565b9138616203565b616585915060203d602011611a9057611a828183612188565b386161bc565b6165a4915060203d602011611a9057611a828183612188565b3861617d565b6165c491955060203d602011611a9057611a828183612188565b933861613e565b6165e591945060203d602011611a9057611a828183612188565b92386160fe565b61660691935060203d602011611a9057611a828183612188565b91386160be565b61662791925060203d602011611a9057611a828183612188565b903861607e565b61664891935060203d602011611a9057611a828183612188565b913861603e565b61666991925060203d602011611a9057611a828183612188565b9038615ffe565b9081602091031261043b575161226581610923565b6166e06001600160a01b03600254166040516166a081612134565b600881527f69735361666528290000000000000000000000000000000000000000000000006020820152604051916166d783612150565b600083526168ea565b90806166ff575b156106a7578060208061226593518301019101616670565b5060208151146166e7565b61676d6001600160a01b03806002541660405191602094168483015283825261673282612134565b6040519061673f82612134565b601582527f6973536563757265426173652861646472657373290000000000000000000000858301526168ea565b908061678a575b156106a757816122659282518301019101616670565b5081815114616774565b6122656001600160a01b03600354166040516167af81612134565b600681527f694167652829000000000000000000000000000000000000000000000000000060208201526040519161122983612150565b6001600160a01b0380911690811561086357600154826001600160a01b0319821617600155167f8292fce18fa69edf4db7b94ea2e58241df0ae57f97e0a6c9b29067028bf92d76600080a3565b3d1561685e573d90616844826121e7565b916168526040519384612188565b82523d6000602084013e565b606090565b908015612454576001600160a01b03821691821561086357600080808481945af161688c616833565b50156106a75760207fcec1f18c3ab8ddaaa107a1591e3c369667eec613626611a8deaedef43069fcdd91604051908152a2565b906168ca92916168ea565b90600090156168d7575090565b60405191506168e582612150565b815290565b9190823b1561697f577fffffffff00000000000000000000000000000000000000000000000000000000815160208093012016916040519180830193845281519160005b83811061696b57505050918161695b60248260009795968897018783820152036004810184520182612188565b51915afa616967616833565b9091565b81810183015185820160240152820161692e565b50505060009060405161699181612150565b6000815290565b92916169a6916000946168ea565b90806169d6575b6169b45750565b6001600160a01b03919250806020806169d29351830101910161270f565b1690565b5060208151146169ad565b92916169ef916000946168ea565b9080616a12575b6169fd5750565b61226591925060208082518301019101616670565b5060208151146169f6565b9291616a2b916000946168ea565b9080616a4e575b616a395750565b61226591925060208082518301019101612a38565b506020815114616a32565b9291616a67916000946168ea565b9080616a8c575b616a755750565b90915060208180518101031261043b576020015190565b506020815114616a6e565b90602082519201517fffffffff00000000000000000000000000000000000000000000000000000000908181169360048110616ad257505050565b60040360031b82901b16169150565b6001600160a01b0381161561086357600080918351908260208601915af190616b08616833565b9115616b12575090565b805160009190600411616b8e57616b299150616a97565b815115616b395750805190602001fd5b6040517f21c09d340000000000000000000000000000000000000000000000000000000081527fffffffff00000000000000000000000000000000000000000000000000000000919091166004820152602490fd5b50616b29565b803b6000616ba1826121e7565b92616baf6040519485612188565b82845260208401903c602d815110616bcb57602a015160601c90565b60046040517fbaf3f0f7000000000000000000000000000000000000000000000000000000008152fdfe8bd115fc6ec81ad72d5ca8a8b3bd3d0177f1b615af6ad35644a4e24a7bed08bca26469706673582212202d47da554979a23717dbfe81054c693befd6ff34ca8c2e7644f24c85e0b8086e64736f6c63430008140033","linkReferences":{}},"methodIdentifiers":{"Burn(uint256)":"b90306ad","BurnCoin(uint256)":"ce6e73ac","LSB(uint256,uint256)":"6f493aad","_delegatorCount()":"a1f7f539","_getImplementation(address)":"c54e44b0","_importOld(uint256)":"141ca660","_isDelegatorNode(address)":"e01ad5fd","_isSafe()":"e0a9bc2b","_isSecureBase(address)":"af484526","_isSigner(address)":"1f185d16","_txnType7(uint256,uint256)":"02a085f2","_txnType_1_0(address,uint256,uint256,uint256,uint256,uint256)":"a6630304","addLevelnGetRank(uint256,uint256,uint256,uint256,uint256,bool)":"822ffec4","bonus()":"75b4d78c","cage()":"69245009","capStatus(uint256)":"aaa65a9c","capping()":"5640dbfc","currentCycle()":"bab2f552","currentLSBversion()":"43a1b5ab","dage()":"725b6fff","directsCount()":"d2a15904","getAllIncome(uint256,uint256)":"a20199ac","getBalance()":"12065fe0","getHexbase()":"3b9b7955","getNodeLB(uint256)":"da021335","getNodeLvlInfoBatch(uint256,uint256)":"759f22bd","getRankAgeInBatch()":"6de97c66","getRankWithAgeValue()":"29ee350e","getToggleAgeCount(uint256)":"143ec3b7","getToggleAgeValue(uint256,uint256)":"043719b4","id()":"af640d0f","isLock()":"09d8da2e","mintCount()":"9659867e","mints(uint256)":"6350b2c2","moveLvlIncome(uint256,uint256,uint256,uint256,bool)":"7b058ac1","owner()":"8da5cb5b","postInit()":"4a65786c","preinit(address,address,uint256)":"52902c59","rank()":"934209ce","rankage(uint256)":"d3a1a499","refreshCap()":"0c19aef8","setBonus(uint256)":"0b98f975","setLock(bool)":"619d5194","setSuspend(uint256,bool)":"c8ef7b1a","setdirect(bool)":"deb1ba1e","storcache()":"5ecf6a8a","syncBaseAddr()":"339459a6","systemAge()":"fdc10bc9","updateOwner(address)":"880cdc31","userCycleMintCount(uint256)":"39b4d61b","withdrawlDage()":"a9bf285b"},"id":52}