{"abi":[{"type":"constructor","inputs":[{"name":"_hex","type":"address","internalType":"address"}],"stateMutability":"nonpayable"},{"type":"fallback","stateMutability":"payable"},{"type":"receive","stateMutability":"payable"},{"type":"function","name":"Burn","inputs":[{"name":"amount","type":"uint256","internalType":"uint256"}],"outputs":[],"stateMutability":"nonpayable"},{"type":"function","name":"BurnCoin","inputs":[{"name":"_dollar","type":"uint256","internalType":"uint256"},{"name":"maxinterwal","type":"uint256","internalType":"uint256"}],"outputs":[],"stateMutability":"payable"},{"type":"function","name":"LSB","inputs":[{"name":"","type":"uint256","internalType":"uint256"},{"name":"","type":"uint256","internalType":"uint256"}],"outputs":[{"name":"","type":"int256","internalType":"int256"}],"stateMutability":"view"},{"type":"function","name":"_delegatorCount","inputs":[],"outputs":[{"name":"","type":"uint256","internalType":"uint256"}],"stateMutability":"view"},{"type":"function","name":"_getImplementation","inputs":[{"name":"clone","type":"address","internalType":"address"}],"outputs":[{"name":"impl","type":"address","internalType":"address"}],"stateMutability":"view"},{"type":"function","name":"_isDelegatorNode","inputs":[{"name":"sender","type":"address","internalType":"address"}],"outputs":[{"name":"","type":"bool","internalType":"bool"}],"stateMutability":"view"},{"type":"function","name":"_isSafe","inputs":[],"outputs":[{"name":"","type":"bool","internalType":"bool"}],"stateMutability":"view"},{"type":"function","name":"_isSecureBase","inputs":[{"name":"sender","type":"address","internalType":"address"}],"outputs":[{"name":"","type":"bool","internalType":"bool"}],"stateMutability":"view"},{"type":"function","name":"_isSigner","inputs":[{"name":"sender","type":"address","internalType":"address"}],"outputs":[{"name":"","type":"bool","internalType":"bool"}],"stateMutability":"view"},{"type":"function","name":"_txnType7","inputs":[{"name":"_maxint","type":"uint256","internalType":"uint256"},{"name":"_ag","type":"uint256","internalType":"uint256"}],"outputs":[{"name":"CALC_INC","type":"uint256[9]","internalType":"uint256[9]"}],"stateMutability":"payable"},{"type":"function","name":"_txnType_1_0","inputs":[{"name":"paramAdd","type":"address","internalType":"address"},{"name":"_id_maxint","type":"uint256","internalType":"uint256"},{"name":"_qty","type":"uint256","internalType":"uint256"},{"name":"_msgValue","type":"uint256","internalType":"uint256"},{"name":"_type","type":"uint256","internalType":"uint256"},{"name":"_ag","type":"uint256","internalType":"uint256"}],"outputs":[{"name":"_tvl","type":"uint256","internalType":"uint256"},{"name":"_amt","type":"uint256","internalType":"uint256"}],"stateMutability":"payable"},{"type":"function","name":"addLevelnGetRank","inputs":[{"name":"_amount","type":"uint256","internalType":"uint256"},{"name":"_qty","type":"uint256","internalType":"uint256"},{"name":"_level","type":"uint256","internalType":"uint256"},{"name":"_epochAge","type":"uint256","internalType":"uint256"},{"name":"_free","type":"uint256","internalType":"uint256"},{"name":"_tobeSkipped","type":"bool","internalType":"bool"}],"outputs":[{"name":"currentrnk","type":"uint256","internalType":"uint256"}],"stateMutability":"nonpayable"},{"type":"function","name":"bonus","inputs":[],"outputs":[{"name":"","type":"uint256","internalType":"uint256"}],"stateMutability":"view"},{"type":"function","name":"cage","inputs":[],"outputs":[{"name":"","type":"uint256","internalType":"uint256"}],"stateMutability":"view"},{"type":"function","name":"currentLSBversion","inputs":[],"outputs":[{"name":"","type":"uint256","internalType":"uint256"}],"stateMutability":"view"},{"type":"function","name":"dage","inputs":[],"outputs":[{"name":"","type":"uint256","internalType":"uint256"}],"stateMutability":"view"},{"type":"function","name":"directsCount","inputs":[],"outputs":[{"name":"","type":"uint256","internalType":"uint256"}],"stateMutability":"view"},{"type":"function","name":"getAllComputeData","inputs":[{"name":"maxinterwal","type":"uint256","internalType":"uint256"}],"outputs":[{"name":"cr","type":"tuple","internalType":"struct InstanceStor.ComputeResult","components":[{"name":"p1","type":"uint256","internalType":"uint256"},{"name":"p2","type":"uint256","internalType":"uint256"},{"name":"p3","type":"uint256","internalType":"uint256"},{"name":"p4","type":"uint256","internalType":"uint256"},{"name":"p5","type":"uint256","internalType":"uint256"},{"name":"p6","type":"uint256","internalType":"uint256"},{"name":"p7","type":"uint256","internalType":"uint256"},{"name":"f1","type":"uint256","internalType":"uint256"},{"name":"f2","type":"uint256","internalType":"uint256"},{"name":"f3","type":"uint256","internalType":"uint256"},{"name":"f4","type":"uint256","internalType":"uint256"},{"name":"f5","type":"uint256","internalType":"uint256"},{"name":"f6","type":"uint256","internalType":"uint256"},{"name":"f7","type":"uint256","internalType":"uint256"},{"name":"lsb","type":"int256","internalType":"int256"},{"name":"totInc","type":"uint256","internalType":"uint256"},{"name":"thresholdx","type":"uint256","internalType":"uint256"},{"name":"totIncdollar","type":"uint256","internalType":"uint256"},{"name":"thresholdollarx","type":"uint256","internalType":"uint256"},{"name":"minpay","type":"uint256","internalType":"uint256"},{"name":"minpaydollar","type":"uint256","internalType":"uint256"},{"name":"cap","type":"bool","internalType":"bool"},{"name":"capinc","type":"bool","internalType":"bool"},{"name":"capdollar","type":"bool","internalType":"bool"}]}],"stateMutability":"view"},{"type":"function","name":"getAllData","inputs":[{"name":"typeId","type":"uint256","internalType":"uint256"},{"name":"maxinterwal","type":"uint256","internalType":"uint256"}],"outputs":[{"name":"values","type":"uint256[7]","internalType":"uint256[7]"}],"stateMutability":"view"},{"type":"function","name":"getBalance","inputs":[],"outputs":[{"name":"","type":"uint256","internalType":"uint256"}],"stateMutability":"view"},{"type":"function","name":"getHexbase","inputs":[],"outputs":[{"name":"","type":"address","internalType":"address"}],"stateMutability":"view"},{"type":"function","name":"getNodeLB","inputs":[{"name":"_level","type":"uint256","internalType":"uint256"}],"outputs":[{"name":"","type":"tuple","internalType":"struct InstanceStor.LevelInfoStr","components":[{"name":"lvlbs","type":"uint256","internalType":"uint256"},{"name":"lvlqty","type":"uint256","internalType":"uint256"},{"name":"lvlrwrd","type":"uint256","internalType":"uint256"},{"name":"lvlyei","type":"uint256","internalType":"uint256"}]}],"stateMutability":"view"},{"type":"function","name":"getNodeLvlInfoBatch","inputs":[{"name":"from","type":"uint256","internalType":"uint256"},{"name":"to","type":"uint256","internalType":"uint256"}],"outputs":[{"name":"info","type":"tuple[]","internalType":"struct InstanceStor.LevelInfoStr[]","components":[{"name":"lvlbs","type":"uint256","internalType":"uint256"},{"name":"lvlqty","type":"uint256","internalType":"uint256"},{"name":"lvlrwrd","type":"uint256","internalType":"uint256"},{"name":"lvlyei","type":"uint256","internalType":"uint256"}]}],"stateMutability":"view"},{"type":"function","name":"getRankAgeInBatch","inputs":[],"outputs":[{"name":"rankagebatch","type":"uint256[]","internalType":"uint256[]"}],"stateMutability":"view"},{"type":"function","name":"getRankWithAgeValue","inputs":[],"outputs":[{"name":"","type":"uint256","internalType":"uint256"},{"name":"","type":"uint256","internalType":"uint256"}],"stateMutability":"view"},{"type":"function","name":"getToggleAgeCount","inputs":[{"name":"key","type":"uint256","internalType":"uint256"}],"outputs":[{"name":"","type":"uint256","internalType":"uint256"}],"stateMutability":"view"},{"type":"function","name":"getToggleAgeValue","inputs":[{"name":"key","type":"uint256","internalType":"uint256"},{"name":"index","type":"uint256","internalType":"uint256"}],"outputs":[{"name":"","type":"uint256","internalType":"uint256"}],"stateMutability":"view"},{"type":"function","name":"id","inputs":[],"outputs":[{"name":"","type":"uint256","internalType":"uint256"}],"stateMutability":"view"},{"type":"function","name":"importOld","inputs":[{"name":"limit","type":"uint256","internalType":"uint256"}],"outputs":[],"stateMutability":"payable"},{"type":"function","name":"isLock","inputs":[],"outputs":[{"name":"","type":"bool","internalType":"bool"}],"stateMutability":"view"},{"type":"function","name":"mintCount","inputs":[],"outputs":[{"name":"","type":"uint256","internalType":"uint256"}],"stateMutability":"view"},{"type":"function","name":"mints","inputs":[{"name":"","type":"uint256","internalType":"uint256"}],"outputs":[{"name":"amt","type":"uint256","internalType":"uint256"},{"name":"qty","type":"uint256","internalType":"uint256"},{"name":"mage","type":"uint256","internalType":"uint256"},{"name":"nft","type":"address","internalType":"address"}],"stateMutability":"view"},{"type":"function","name":"moveLvlIncome","inputs":[{"name":"_amount","type":"uint256","internalType":"uint256"},{"name":"_qty","type":"uint256","internalType":"uint256"},{"name":"_level","type":"uint256","internalType":"uint256"},{"name":"_epochAge","type":"uint256","internalType":"uint256"},{"name":"_op","type":"bool","internalType":"bool"}],"outputs":[{"name":"lastrnk","type":"uint256","internalType":"uint256"},{"name":"currentrnk","type":"uint256","internalType":"uint256"}],"stateMutability":"nonpayable"},{"type":"function","name":"owner","inputs":[],"outputs":[{"name":"","type":"address","internalType":"address"}],"stateMutability":"view"},{"type":"function","name":"postInit","inputs":[],"outputs":[{"name":"","type":"bool","internalType":"bool"}],"stateMutability":"view"},{"type":"function","name":"preinit","inputs":[{"name":"_hex","type":"address","internalType":"address"},{"name":"_own","type":"address","internalType":"address"},{"name":"_id","type":"uint256","internalType":"uint256"},{"name":"isnew","type":"bool","internalType":"bool"}],"outputs":[],"stateMutability":"nonpayable"},{"type":"function","name":"rank","inputs":[],"outputs":[{"name":"","type":"uint256","internalType":"uint256"}],"stateMutability":"view"},{"type":"function","name":"setBonus","inputs":[{"name":"b","type":"uint256","internalType":"uint256"}],"outputs":[],"stateMutability":"nonpayable"},{"type":"function","name":"setLock","inputs":[{"name":"flag","type":"bool","internalType":"bool"}],"outputs":[],"stateMutability":"nonpayable"},{"type":"function","name":"setSuspend","inputs":[{"name":"key","type":"uint256","internalType":"uint256"},{"name":"value","type":"bool","internalType":"bool"}],"outputs":[],"stateMutability":"nonpayable"},{"type":"function","name":"setburnclaimdollar","inputs":[{"name":"claim","type":"uint256","internalType":"uint256"},{"name":"claimdollar","type":"uint256","internalType":"uint256"}],"outputs":[],"stateMutability":"nonpayable"},{"type":"function","name":"setdirect","inputs":[{"name":"addremove","type":"bool","internalType":"bool"}],"outputs":[],"stateMutability":"nonpayable"},{"type":"function","name":"storcache","inputs":[],"outputs":[],"stateMutability":"nonpayable"},{"type":"function","name":"syncBaseAddr","inputs":[],"outputs":[],"stateMutability":"nonpayable"},{"type":"function","name":"systemAge","inputs":[],"outputs":[{"name":"","type":"uint256","internalType":"uint256"}],"stateMutability":"view"},{"type":"function","name":"updateOwner","inputs":[{"name":"_newowner","type":"address","internalType":"address"}],"outputs":[],"stateMutability":"nonpayable"},{"type":"function","name":"userCycleMintCount","inputs":[{"name":"","type":"uint256","internalType":"uint256"}],"outputs":[{"name":"","type":"uint256","internalType":"uint256"}],"stateMutability":"view"},{"type":"function","name":"withdrawlDage","inputs":[],"outputs":[{"name":"","type":"uint256","internalType":"uint256"}],"stateMutability":"view"},{"type":"event","name":"CapReset","inputs":[{"name":"invested","type":"uint256","indexed":false,"internalType":"uint256"},{"name":"claimed","type":"uint256","indexed":false,"internalType":"uint256"},{"name":"claimedDollar","type":"uint256","indexed":false,"internalType":"uint256"},{"name":"investedDollar","type":"uint256","indexed":false,"internalType":"uint256"},{"name":"burned","type":"uint256","indexed":false,"internalType":"uint256"},{"name":"burnedDollar","type":"uint256","indexed":false,"internalType":"uint256"},{"name":"ag","type":"uint256","indexed":false,"internalType":"uint256"}],"anonymous":false},{"type":"event","name":"EthBurned","inputs":[{"name":"sender","type":"address","indexed":true,"internalType":"address"},{"name":"amount","type":"uint256","indexed":false,"internalType":"uint256"}],"anonymous":false},{"type":"event","name":"EthTransferred","inputs":[{"name":"to","type":"address","indexed":true,"internalType":"address"},{"name":"amount","type":"uint256","indexed":false,"internalType":"uint256"}],"anonymous":false},{"type":"event","name":"HexBaseUpdated","inputs":[{"name":"previousHexBase","type":"address","indexed":true,"internalType":"address"},{"name":"newHexBase","type":"address","indexed":true,"internalType":"address"}],"anonymous":false},{"type":"event","name":"LogTxns","inputs":[{"name":"from","type":"address","indexed":false,"internalType":"address"},{"name":"orc1155","type":"address","indexed":false,"internalType":"address"},{"name":"_amt","type":"uint256","indexed":false,"internalType":"uint256"},{"name":"_value","type":"uint256","indexed":false,"internalType":"uint256"},{"name":"_time","type":"uint256","indexed":false,"internalType":"uint256"},{"name":"_type","type":"uint256","indexed":false,"internalType":"uint256"}],"anonymous":false},{"type":"event","name":"OwnerUpdated","inputs":[{"name":"previousOwner","type":"address","indexed":true,"internalType":"address"},{"name":"newOwner","type":"address","indexed":true,"internalType":"address"}],"anonymous":false},{"type":"error","name":"CallFailed","inputs":[]},{"type":"error","name":"InvalidAddress","inputs":[]},{"type":"error","name":"InvalidState","inputs":[]},{"type":"error","name":"NotAuthorized","inputs":[]},{"type":"error","name":"NotSafe","inputs":[]},{"type":"error","name":"ReentrancyGuardReentrantCall","inputs":[]},{"type":"error","name":"TargetCallFailed","inputs":[{"name":"selector","type":"bytes4","internalType":"bytes4"}]}],"bytecode":{"object":"0x608034620000bf57601f62006e9a38819003918201601f19168301916001600160401b03831184841017620000c457808492602094604052833981010312620000bf57516001600160a01b03811690819003620000bf578015620000ad5760018060a01b03199033826001541617600155600091825416178155600160115580601255806013558060145580601555806016558060175580601855601955604051616dbf9081620000db8239f35b60405163e6c4247b60e01b8152600490fd5b600080fd5b634e487b7160e01b600052604160045260246000fdfe60806040526004361015610018575b361561001657005b005b60003560e01c806302a085f214610318578063043719b41461031357806309d8da2e1461030e5780630b98f9751461030957806312065fe01461030457806312964120146102ff578063143ec3b7146102fa5780631f185d16146102f55780632697a77a146102f057806329ee350e146102eb578063339459a6146102e657806339b4d61b146102e15780633b9b7955146102dc57806343a1b5ab146102d75780634a65786c146102d25780635ecf6a8a146102cd578063619d5194146102c85780636350b2c2146102c3578063654c668e146102be57806369245009146102b95780636de97c66146102b45780636f493aad146102af578063725b6fff146102aa578063759f22bd146102a557806375b4d78c146102a05780637b058ac11461029b578063822ffec414610296578063880cdc31146102915780638da5cb5b1461028c578063934209ce146102875780639659867e14610282578063a1f7f5391461027d578063a5d7cda414610278578063a663030414610273578063a9bf285b1461026e578063af48452614610269578063af640d0f14610264578063b90306ad1461025f578063b9f1a3941461025a578063c54e44b014610255578063c8ef7b1a14610250578063d2a159041461024b578063d3abb8a314610246578063da02133514610241578063deb1ba1e1461023c578063e01ad5fd14610237578063e0a9bc2b146102325763fdc10bc90361000e57612304565b6122e9565b612269565b6121ef565b61216a565b61210e565b6120f0565b611ff5565b611fbd565b611e5c565b611d2d565b611d0f565b611cde565b611cc0565b61167d565b611280565b61120b565b6111ed565b6111cf565b6111a8565b61113d565b610d88565b610c57565b610c39565b610b4a565b610ac6565b610a8c565b6109fa565b6109a2565b61094d565b6108f6565b61088e565b610875565b61084f565b610831565b61080a565b6107de565b6107c5565b61078c565b61065a565b610582565b610545565b6104fc565b6104e0565b61046f565b61044c565b610410565b61034c565b610120810192916000915b6009831061033557505050565b600190825181526020809101920192019190610328565b60408060031936011261040b578051906103658261236d565b61012036833760ff601a54166103fb5761037d616843565b156103eb5761038b336168c8565b80156103d7575b156103c7576103b36103c3926103a6612ab4565b6024359060043590612c50565b906001601155519182918261031d565b0390f35b6004905163ea8e4eb560e01b8152fd5b50336001600160a01b036005541614610392565b60049051634ee2123760e11b8152fd5b6004905163baf3f0f760e01b8152fd5b600080fd5b3461040b57604036600319011261040b576004356000526032602052602061043e6024356040600020612776565b90546040519160031b1c8152f35b3461040b57600036600319011261040b57602060ff601a54166040519015158152f35b3461040b57602036600319011261040b57610488616843565b156104cf57610496336168c8565b80156104bb575b156104aa57600435601b55005b600460405163ea8e4eb560e01b8152fd5b50336001600160a01b03600554161461049d565b6004604051634ee2123760e11b8152fd5b3461040b57600036600319011261040b57602047604051908152f35b3461040b57604036600319011261040b57610518600435615bb5565b60405190600090825b6007831061052e5760e084f35b600190825181526020809101920192019190610521565b3461040b57602036600319011261040b5760043560005260326020526020604060002054604051908152f35b6001600160a01b0381160361040b57565b3461040b5760208060031936011261040b576106016004356105a381610571565b6001600160a01b038060025416906040519216848301528382526105c68261238a565b604051906105d38261238a565b601182527f69735369676e657228616464726573732900000000000000000000000000000085830152616aa8565b919080610646575b15610635578181610623926103c39451830101910161682e565b60405190151581529081906020820190565b6004604051633204506f60e01b8152fd5b5080825114610609565b8015150361040b57565b3461040b57608036600319011261040b5760043561067781610571565b60243561068381610571565b6064359061069082610650565b6001600160a01b03809316908115808015610782575b61077157610747576106f8916000948554826001600160a01b03198216178755167fe939feee179e631422bcc8f6e6d7d908cb3f8af38f5372f17c77e15aea5c80ee8680a36106f3612632565b6169a4565b610703604435601d55565b61070a5780f35b61071a610715616952565b602055565b610725602054601e55565b610730602054601f55565b61074461010061ff0019601a541617601a55565b80f35b60046040517fe6c4247b000000000000000000000000000000000000000000000000000000008152fd5b600460405163baf3f0f760e01b8152fd5b50848216156106a6565b3461040b57600036600319011261040b5760215460088110156107c057602381015460408051928352602083019190915290f35b612760565b3461040b57600036600319011261040b57610016616168565b3461040b57602036600319011261040b57600435600052602c6020526020604060002054604051908152f35b3461040b57600036600319011261040b5760206001600160a01b0360005416604051908152f35b3461040b57600036600319011261040b576020602f54604051908152f35b3461040b57600036600319011261040b57602060ff601a5460081c166040519015158152f35b3461040b57600036600319011261040b57610016612632565b3461040b57602036600319011261040b576004356108ab81610650565b6108b3616843565b156104cf576108c1336168c8565b80156108e2575b156104aa5760ff8019601a54169115151617601a55600080f35b50336001600160a01b0360055416146108c8565b3461040b57602036600319011261040b57600435600052602e602052608060406000208054906001810154906001600160a01b03600360028301549201541691604051938452602084015260408301526060820152f35b3461040b57604036600319011261040b57610966616843565b156104cf57610974336168c8565b801561098e575b156104aa57600435601455602435601655005b50336001600160a01b03600554161461097b565b3461040b57600036600319011261040b5760208054604051908152f35b6020908160408183019282815285518094520193019160005b8281106109e6575050505090565b8351855293810193928101926001016109d8565b3461040b57600036600319011261040b576021546001810190818111610a8757610a2382615e3b565b91610a3160405193846123de565b808352610a40601f1991615e3b565b0136602084013760005b81811115610a6057604051806103c385826109bf565b60088110156107c05780610a829160230154610a7c8286615e53565b5261283b565b610a4a565b612825565b3461040b57604036600319011261040b57600435600052603060205260406000206024356000526020526020604060002054604051908152f35b3461040b57600036600319011261040b576020601e54604051908152f35b6020908160408183019282815285518094520193019160005b828110610b0b575050505090565b9091929382608082610b3e6001948951606080918051845260208101516020850152604081015160408501520151910152565b01950193929101610afd565b3461040b57604036600319011261040b5760243560043581811161077157808203918211610a8757600190818301809311610a8757610b8883615e3b565b92610b9660405194856123de565b808452610ba5601f1991615e3b565b0160005b818110610c22575050816000905b610bca575b604051806103c38682610ae4565b8351811015610c1d5780610bfc610bf7610be7610c179486612906565b6000526031602052604060002090565b615e09565b610c068287615e53565b52610c118186615e53565b5061283b565b82610bb7565b610bbc565b602090610c2d615de4565b82828801015201610ba9565b3461040b57600036600319011261040b576020601b54604051908152f35b3461040b5760a036600319011261040b57604435602435600435608435610c7d81610650565b610c85616843565b156104cf57610c93336168c8565b8015610d74575b156104aa5760009260009480610cbb575b6040805186815260208101889052f35b90919293506021549483600014610d2c57506001610d0b82610d1f96610cf9610cf1610d14966000526031602052604060002090565b918254612906565b90556000526031602052604060002090565b01918254612906565b90555b606435614388565b6021549038808080610cab565b808260409252603160205220938454908103908111610a8757610d64610d6d92600192610d1f97556000526031602052604060002090565b01918254612922565b9055610d17565b50336001600160a01b036005541614610c9a565b3461040b5760c036600319011261040b5760443560643560a435602435600435610db183610650565b610db9616843565b156104cf57610dc7336168c8565b8015611129575b156104aa57610de7856000526031602052604060002090565b610df2828254612906565b905560019384610e0c876000526031602052604060002090565b01610e18848254612906565b90556000805260316020527f346dc135129bcc5b8e8f6ff902940f16dc0729d02b27118b912aa326da88b83154151580611120575b610e60575b602154604051908152602090f35b610ede92159384159283611112575b610ecd610ebe610ea2610e8a6003546001600160a01b031690565b610eb08c604051938491602083019190602083019252565b03601f1981018452836123de565b610eb86141ef565b90616a7d565b60208082518301019101614228565b959198909660209493945490612922565b60843511918215611105575b50816110fc575b50610eff575b505050610e52565b600395610f6a95600090156110f35750610f25610f1f610f2b9385612a00565b9161298f565b90612883565b955b600090156110e95750610f1f610f4693610f2592612a00565b945b6002610f5e826000526031602052604060002090565b01610cf9858254612906565b01610f76848254612906565b90556001600052603260205281807f0d07fe408fa264e656a9c06e272928e4d4bb400d93cd5b5e74ac592f6170c2fd54161480156110b2575b611075575b506004600052603260205280807f3f52cf82629296489b84e1dbb72f035157400392aa100335795b652755f8cdda54161490811561103d575b50611000575b8080808080808080610ef7565b6004600052602d60205261103560027faa2e4aefbe0e8a3f17f0ef1a62898433725e8346722aad5b9b38d3974d216083610d0b565b905538610ff3565b6103e760005260326020529050807f4a392a5ba0654924db65f19538db6461a3d6763bf0797df25c3b2d5e7c8c7cef54161438610fed565b6001600052602d6020526110aa60027f4ac3b22e31fa68474eb1c8f858cd447cf1ee3eef7de8984178a7afa8f4fe0cd0610d0b565b905538610fb4565b506103e7600052603260205281807f4a392a5ba0654924db65f19538db6461a3d6763bf0797df25c3b2d5e7c8c7cef541614610faf565b9250505094610f48565b91505095610f2d565b90501538610ef1565b6021541015915038610eea565b61111b83614288565b610e6f565b50851515610e4d565b50336001600160a01b036005541614610dce565b3461040b57602036600319011261040b5760043561115a81610571565b611162616843565b156104cf57611170336168c8565b8015611194575b156104aa576001600160a01b038116156104aa57610016906169a4565b50336001600160a01b036005541614611177565b3461040b57600036600319011261040b5760206001600160a01b0360015416604051908152f35b3461040b57600036600319011261040b576020602154604051908152f35b3461040b57600036600319011261040b576020601c54604051908152f35b3461040b57600036600319011261040b5760206112786001600160a01b03600654166040516112398161238a565b601381527f67657464656c656761746f72436f756e74282900000000000000000000000000848201526040519161126f836123a6565b60008352616bdb565b604051908152f35b60408060031936011261040b576004803560243560ff601a541661166e576112a6612ab4565b6112ae616952565b90601e546112bc8282612906565b831115611666576112cd9250612906565b925b61130c6113076113016112ea6003546001600160a01b031690565b6112f261310d565b906112fb61248d565b90616bdb565b86612883565b602b55565b611322602b54600052602c602052604060002090565b546113496113386003546001600160a01b031690565b61134061310d565b906112fb6124c6565b03611657578254601d548251602080820192909252908152601f199161138c91906001600160a01b031661137e6040836123de565b61138661284a565b90616b56565b936001600160a01b039485811615611648576103e760005260326020526001807f4a392a5ba0654924db65f19538db6461a3d6763bf0797df25c3b2d5e7c8c7cef54161461157c575b506114156113eb6003546001600160a01b031690565b84516020810187905260409485018152909361140790826123de565b61140f613125565b84616bdb565b340361156e575093611506918461146f6114607f1517c86fcf2bfb8e3468afcc539b0004955da8027797c497ea51d1f1094ab8989861145261315e565b61145a61247a565b91616a7d565b60208082518301019101613197565b95919a9093941699169280151580611565575b611544575b50508015158061153b575b611513575b5050506114ae6114a934601254612906565b601255565b6114c26114bd85601554612906565b601555565b6114cb82612aef565b513381526001600160a01b039094166020850152604084019290925234606084015260808301919091526103e860a0830152819060c0820190565b0390a16100166001601155565b61153392610f2561152761152d9334612a00565b916129a0565b90616a21565b388080611497565b50811515611492565b61155e91610f256115276115589334612a00565b89616a21565b3880611487565b50891515611482565b8251633204506f60e01b8152fd5b909592949293919031156115995785855163baf3f0f760e01b8152fd5b6013546014546016546017546012546015548a51958652602086019490945260408501929092526060840152608083015260a082015260c08101859052939592949193919290917fb359d8408cffc6b8788774a87b59f0d5be825576ea5fdd7b0917fed6a07e80309060e090a16116106000601355565b61161a6000601455565b6116246000601655565b61162e6000601755565b6116386000601255565b6116426000601555565b386113d5565b50825163baf3f0f760e01b8152fd5b905051633204506f60e01b8152fd5b5050926112cf565b82845163baf3f0f760e01b8152fd5b60c036600319011261040b57600480359061169782610571565b6064359160443560a4356084356116ac616843565b15611cb0576116ba336168c8565b8015611c9c575b15611c8c5760ff601a5416611c7c576116d8612ab4565b84546001600160a01b031694601d54906040956117188751806117046020968783019190602083019252565b039961137e601f199b8c81018452836123de565b6001600160a01b03811615611c6d576103e760005260326020526001807f4a392a5ba0654924db65f19538db6461a3d6763bf0797df25c3b2d5e7c8c7cef541614611b9d575b5061176f61176b826168c8565b1590565b611b8e5761178261130760335487612883565b602b5461179981600052602c602052604060002090565b5460345411801590611b78575b611b69576117be90600052602c602052604060002090565b8054600101905560018414988915611b62576118116117e56003546001600160a01b031690565b895190611809826117fd8c8a83019190602083019252565b038d81018452836123de565b6112fb6128a3565b995b611b1e575b50601c5415611b07575b601c5461182e9061283b565b601c55611839612400565b9789895286848a015285888a0152606089019860008a52601c5461186790600052602e602052604060002090565b906118719161292f565b600154885163c85700fb60e01b868201526001600160a01b0390911660248083019190915235604482015260648101889052608481018b905260a4810187905260c49182018152906118c390826123de565b6118cc91616c9f565b828082518301019101906118df91612977565b6001600160a01b031680885215611af9575091611ad68492611a99611a826119fd6119f8611a70611a088e610f258f6103c39f9e7f1517c86fcf2bfb8e3468afcc539b0004955da8027797c497ea51d1f1094ab8989e6119bf6119ba6119b26119ad6119e99561199061195c611a0399516001600160a01b031690565b6003611974601c54600052602e602052604060002090565b01906001600160a01b03166001600160a01b0319825416179055565b6119a461199f8b601354612906565b601355565b60375490612a00565b6129b6565b601754612906565b601755565b6119dc6119d46003546001600160a01b031690565b611452612a13565b8051810182019101612a4c565b9c9491959b9293989050612a00565b612a00565b93612a00565b6129d3565b91611a3a611a22602f546000526030602052604060002090565b611a2c838c612906565b600052602052604060002090565b611a45848254612a7f565b9055611a2c84611a6b611a64602f546000526030602052604060002090565b938c612906565b612906565b611a7b828254612a9b565b9055612a00565b98611a8c85612aef565b516001600160a01b031690565b86513381526001600160a01b039091166020820152604081019490945260608401899052608084019290925260a0830191909152819060c0820190565b0390a1611ae36001601155565b5191825260208201929092529081906040820190565b855163baf3f0f760e01b8152fd5b611b1085601e55565b611b1985601f55565b611822565b601b54908a611b2d8383612906565b10611b53578a611b43611b4d93611b4893612906565b612922565b601b55565b38611818565b83895163baf3f0f760e01b8152fd5b8099611813565b828851633204506f60e01b8152fd5b506035548710806117a6575060365487116117a6565b50855163ea8e4eb560e01b8152fd5b9198969795949392913115611bbb5788885163baf3f0f760e01b8152fd5b6013546014546016546017546012546015548d51958652602086019490945260408501929092526060840152608083015260a082015260c08101859052969895979694959394929391927fb359d8408cffc6b8788774a87b59f0d5be825576ea5fdd7b0917fed6a07e80309060e090a1611c356000601355565b611c3f6000601455565b611c496000601655565b611c536000601755565b611c5d6000601255565b611c676000601555565b3861175e565b82885163baf3f0f760e01b8152fd5b8460405163baf3f0f760e01b8152fd5b8460405163ea8e4eb560e01b8152fd5b50336001600160a01b0360055416146116c1565b84604051634ee2123760e11b8152fd5b3461040b57600036600319011261040b576020601f54604051908152f35b3461040b57602036600319011261040b576020611d05600435611d0081610571565b6168c8565b6040519015158152f35b3461040b57600036600319011261040b576020601d54604051908152f35b3461040b57602036600319011261040b57600435611d49616843565b156104cf576001600160a01b036005541633036104aa5760009060046020611d87611d7b85546001600160a01b031690565b6001600160a01b031690565b604051928380927f46f991ac0000000000000000000000000000000000000000000000000000000082525afa8015611e575783808481949382948391611e29575b505af1611dd36169f1565b5015610635577fcdcc745fe377b103b45fa0cec23ae3ef93d6fc6a84a01f0d18c40b354dd1d5d8611e23611e12611d7b600b546001600160a01b031690565b604051938452929081906020820190565b0390a280f35b611e4a915060203d8111611e50575b611e4281836123de565b810190612977565b38611dc8565b503d611e38565b6131d7565b3461040b57602036600319011261040b57611e75614a25565b50611e7e616952565b601e54906004358201809211610a875761030091611ea49181811115611fb65750614b79565b611fb460405191805183526020810151602084015260408101516040840152606081015160608401526080810151608084015260a081015160a084015260c081015160c084015260e081015160e0840152610100808201519084015261012080820151908401526101408082015190840152610160808201519084015261018080820151908401526101a080820151908401526101c080820151908401526101e0808201519084015261020080820151908401526102208082015190840152610240808201519084015261026080820151908401526102808082015190840152611f986102a0808301519085019015159052565b6102c0818101511515908401526102e090810151151590830152565bf35b9050614b79565b3461040b57602036600319011261040b576020611fe4600435611fdf81610571565b616d52565b6001600160a01b0360405191168152f35b3461040b57604036600319011261040b5760243561201281610650565b61201a616843565b156104cf57612028336168c8565b80156120dc575b156104aa5761203c616952565b9060009160043583526032602052604083208054928315908115916120d4575b816120b4575b5061206b578380f35b680100000000000000008310156120af578261208f9160016120a895018155612776565b90919082549060031b91821b91600019901b1916179055565b3880808380f35b61231f565b1590506120cb5760ff845b16600184161438612062565b60ff60016120bf565b90508061205c565b50336001600160a01b03600554161461202f565b3461040b57600036600319011261040b576020602254604051908152f35b602036600319011261040b57612122616843565b156104cf57612130336168c8565b8015612156575b156104aa57612144612ab4565b61214f600435613664565b6001601155005b50336001600160a01b036005541614612137565b3461040b57602036600319011261040b57612183615de4565b506004356000526031602052608060406000206003604051916121a583612335565b80548352600181015460208401526002810154604084015201546060820152611fb46040518092606080918051845260208101516020850152604081015160408501520151910152565b3461040b57602036600319011261040b5760043561220c81610650565b612214616843565b156104cf57612222336168c8565b8015612255575b156104aa57156122435761223e60225461283b565b602255005b6022548015610a875760001901602255005b50336001600160a01b036005541614612229565b3461040b57602036600319011261040b576020611d0560043561228b81610571565b6001600160a01b038060065416906040519216848301528382526122ae8261238a565b604051906122bb8261238a565b601882527f697364656c656761746f724e6f6465286164647265737329000000000000000085830152616b9f565b3461040b57600036600319011261040b576020611d05616843565b3461040b57600036600319011261040b576020611278616952565b634e487b7160e01b600052604160045260246000fd5b6080810190811067ffffffffffffffff8211176120af57604052565b6060810190811067ffffffffffffffff8211176120af57604052565b610120810190811067ffffffffffffffff8211176120af57604052565b6040810190811067ffffffffffffffff8211176120af57604052565b6020810190811067ffffffffffffffff8211176120af57604052565b60e0810190811067ffffffffffffffff8211176120af57604052565b90601f8019910116810190811067ffffffffffffffff8211176120af57604052565b6040519061240d82612335565b565b60405190610300820182811067ffffffffffffffff8211176120af57604052565b604051906101e0820182811067ffffffffffffffff8211176120af57604052565b6040519061240d826123c2565b67ffffffffffffffff81116120af57601f01601f191660200190565b60405190612487826123a6565b60008252565b6040519061249a8261238a565b600f82527f6d696e744379636c6544617973282900000000000000000000000000000000006020830152565b604051906124d38261238a565b601282527f6d61784d696e74735065724379636c65282900000000000000000000000000006020830152565b6040519061250c8261238a565b600c82527f6d696e4d696e74517479282900000000000000000000000000000000000000006020830152565b604051906125458261238a565b600c82527f6d61784d696e74517479282900000000000000000000000000000000000000006020830152565b6040519061257e8261238a565b600f82527f6d696e74466565506572517479282900000000000000000000000000000000006020830152565b604051906125b78261238a565b601082527f65616368636c61696d4379636c652829000000000000000000000000000000006020830152565b604051906125f08261238a565b600982527f63617070696e67282900000000000000000000000000000000000000000000006020830152565b919082604091031261040b576020825192015190565b61263a616168565b61240d61275b61275561274661273e600361267d61267861266283546001600160a01b031690565b61266a61248d565b61267261247a565b91616bdb565b603355565b6126a161269c61269483546001600160a01b031690565b61266a6124c6565b603455565b6126c56126c06126b883546001600160a01b031690565b61266a6124ff565b603555565b6126e96126e46126dc83546001600160a01b031690565b61266a612538565b603655565b61270d61270861270083546001600160a01b031690565b61266a612571565b603755565b61273161272c61272483546001600160a01b031690565b61266a6125aa565b603855565b546001600160a01b031690565b6114526125e3565b6020808251830101910161261c565b603a5590565b603955565b634e487b7160e01b600052603260045260246000fd5b80548210156107c05760005260206000200190600090565b6103e760005260326020527f4a392a5ba0654924db65f19538db6461a3d6763bf0797df25c3b2d5e7c8c7cef80549283158015919061281d575b816127fc575b506127d857505050565b680100000000000000008310156120af578261208f91600161240d95018155612776565b1590506128145760ff60005b166001841614386127ce565b60ff6001612808565b9050806127c8565b634e487b7160e01b600052601160045260246000fd5b6000198114610a875760010190565b604051906128578261238a565b601882527f676574557365724964546f496e73742875696e743235362900000000000000006020830152565b811561288d570490565b634e487b7160e01b600052601260045260246000fd5b604051906128b08261238a565b601982527f636f6d707574654d696e7456616c75652875696e7432353629000000000000006020830152565b6046019081604611610a8757565b90601e8201809211610a8757565b9060018201809211610a8757565b91908201809211610a8757565b600019810191908211610a8757565b91908203918211610a8757565b60036001600160a01b03606061240d948051855560208101516001860155604081015160028601550151169101906001600160a01b03166001600160a01b0319825416179055565b9081602091031261040b575161298c81610571565b90565b9081606402916064830403610a8757565b90606482029180830460641490151715610a8757565b90670de0b6b3a764000091828102928184041490151715610a8757565b9061271091828102928184041490151715610a8757565b90601982029180830460191490151715610a8757565b81810292918115918404141715610a8757565b60405190612a208261238a565b600682527f706f6f6c282900000000000000000000000000000000000000000000000000006020830152565b908160e091031261040b5780519160208201519160408101519160608201519160808101519160c060a083015192015190565b91909160008382019384129112908015821691151617610a8757565b81810392916000138015828513169184121617610a8757565b600260115414612ac5576002601155565b60046040517f3ee5aeb5000000000000000000000000000000000000000000000000000000008152fd5b6013546012548101809111610a8757603954612b0a91612a00565b60145411601754916015548301809311610a8757612b2e61240d93603a5490612a00565b601654118215612b3f575b5061278e565b915038612b39565b60405190612b54826123c2565b60e0368337565b60405190612b688261238a565b601082527f6d6178436c61696d5065724461792829000000000000000000000000000000006020830152565b60405190612ba18261238a565b601082527f6d696e436c61696d5065724461792829000000000000000000000000000000006020830152565b60405190612bda8261238a565b601682527f6d6178476c6f62616c436c61696d5065724461792829000000000000000000006020830152565b60405190612c138261238a565b601582527f67657477697468647261776e2875696e743235362900000000000000000000006020830152565b9060098110156107c05760051b0190565b9291908382156131075750601a54612c6c9060081c60ff161590565b6130f657601e5490612c7e8183612906565b8311156130fa57612c9c612c9460329284612906565b925b83612922565b116130f657612cb0603854601f5490612906565b821015612cbb575050565b612cc4906144ed565b600380546001600160a01b0316612ceb612cdc612b5b565b612ce461247a565b9083616bdb565b6001600052602d60205290612e56612e25612df4612dc3612d92612d61887f4ac3b22e31fa68474eb1c8f858cd447cf1ee3eef7de8984178a7afa8f4fe0cd001546004600052602d602052897faa2e4aefbe0e8a3f17f0ef1a62898433725e8346722aad5b9b38d3974d2160835b015490612906565b6002600052602d602052887f3acd642f41c4abca13e6953c1b760d7f24daf271c41106e480dd1fea313ccc72612d59565b6003600052602d602052877f1d82e85504d8f49072f846129ecee69c763b08a82ee3d81cda62b57a7576d37b612d59565b6005600052602d602052867ff4e70c5971a4cc8cf9f9f8ecc4b5217b9d5f157385b05a56c54d37f26435621c612d59565b6006600052602d602052857fb166da6939c8546909795cbdc2ac7eb95e976cea31f094e55573dbb6ac49f74f612d59565b6007600052602d602052847f4d73f294a2cb7f5a471fde2e2c5652a46cf819d439af00ca2c7f02d5472b48b8612d59565b90612e62612cdc612b94565b821015612e9e575b505050505060195480612e7b575b50565b610100830152612e94612e8f602f5461283b565b602f55565b61240d6000601955565b612eaa9061266a612bcd565b91612ebd6004546001600160a01b031690565b92612ee5604094855190612edd82610ea28b602083019190602083019252565b6112fb612c06565b10156130e657600091818111156130df57612f009250612922565b6001908160005b6007841115612f3b57505050505050612f319060185460e0850152612f2c6000601855565b601f55565b3880808080612e6a565b85612f5085600052602d602052604060002090565b01548361304c5761304691612fc89184612f7488600052602d602052604060002090565b01612f80828254612906565b9055600089612f9989600052602d602052604060002090565b0155612fad612fa788612913565b8d612c3f565b525b612fc1612fbb87612913565b8c612c3f565b5190612906565b937f1517c86fcf2bfb8e3468afcc539b0004955da8027797c497ea51d1f1094ab89888612ff7612fa784612913565b5161303e613004856128dc565b8a5193849333859094939260a0926001600160a01b0360c08401971683526000602084015260006040840152606083015260808201520152565b0390a161283b565b92612f07565b92808411156130bf5761304691613093613069612fc89387612922565b8096866130808a600052602d602052604060002090565b0161308c838254612906565b9055612922565b886130a888600052602d602052604060002090565b01556000946130b9612fa788612913565b52612faf565b6130d06130469294612fc892612922565b9360006130b9612fa788612913565b5050612f00565b60048351633204506f60e01b8152fd5b5050565b506032612c9c8392612c96565b93505050565b604051613119816123a6565b60008152906000368137565b604051906131328261238a565b601d82527f636f6d70757465446f6c6c6172546f4f7a6f6e652875696e74323536290000006020830152565b6040519061316b8261238a565b600a82527f6275726e636e66672829000000000000000000000000000000000000000000006020830152565b91908260c091031261040b5781516131ae81610571565b9160208101519160408201519160608101516131c981610571565b9160a0608083015192015190565b6040513d6000823e3d90fd5b604051906131f08261238a565b601382527f55736572546f496e7374286164647265737329000000000000000000000000006020830152565b604051906132298261238a565b600b82527f6d696e74436f756e7428290000000000000000000000000000000000000000006020830152565b604051906132628261238a565b600e82527f6d696e74732875696e74323536290000000000000000000000000000000000006020830152565b6040519061329b8261238a565b600b82527f6d696e74656441676528290000000000000000000000000000000000000000006020830152565b604051906132d48261238a565b600b82527f6d696e74656471747928290000000000000000000000000000000000000000006020830152565b6040519061330d8261238a565b600c82527f6964732875696e743235362900000000000000000000000000000000000000006020830152565b604051906133468261238a565b600982527f6d696e74416d74282900000000000000000000000000000000000000000000006020830152565b6040519061337f8261238a565b600a82527f647261776e6167652829000000000000000000000000000000000000000000006020830152565b604051906133b88261238a565b600c82527f4c53422875696e743235362900000000000000000000000000000000000000006020830152565b604051906133f18261238a565b600782527f647261776e2829000000000000000000000000000000000000000000000000006020830152565b91908260c091031261040b5781519160208101519160408201519160608101519160a0608083015192015190565b604051906134588261238a565b601382527f67657452657761726473286164647265737329000000000000000000000000006020830152565b604051906134918261238a565b600782527f626f6e75732829000000000000000000000000000000000000000000000000006020830152565b604051906134ca8261238a565b600682527f63616765282900000000000000000000000000000000000000000000000000006020830152565b604051906135038261238a565b601982527f67657445666665637469766552616e6b286164647265737329000000000000006020830152565b6040519061353c8261238a565b601882527f6765744e6f64654c766c446570746828616464726573732900000000000000006020830152565b604051906135758261238a565b601e82527f6765746e6f6465526e6b41676528616464726573732c75696e743235362900006020830152565b60088110156107c05760230190600090565b604051906135c08261238a565b601082527f6765744e6f6465286164647265737329000000000000000000000000000000006020830152565b908160a091031261040b57805191602082015161360881610571565b916040810151916080606083015161361f81610650565b92015161298c81610650565b604051906136388261238a565b601a82527f77697468647261776e496e636f6d654f662861646472657373290000000000006020830152565b601a5460081c60ff16612e7857600490602061368b611d7b6000546001600160a01b031690565b604051938480927f447aa3040000000000000000000000000000000000000000000000000000000082525afa918215611e57576000926141ce575b5061371b6136ff61370d6136e26001546001600160a01b031690565b604080516001600160a01b03909216602083015290928391820190565b03601f1981018352826123de565b6137156131e3565b84616b56565b926001600160a01b038416156141a957600582116106355761374d61373e61321c565b61374661247a565b9086616bdb565b91601c5461375b8183612906565b84111561419d5761376b91612906565b909291925b6000805260316020527f346dc135129bcc5b8e8f6ff902940f16dc0729d02b27118b912aa326da88b831547f346dc135129bcc5b8e8f6ff902940f16dc0729d02b27118b912aa326da88b83254909490935b601c5484811015613ba6576137d96137de9161283b565b601c55565b60008052602c6020527f4bd6275b77b7e49eb0792b10b407951644bbdba590ba83c6764fe2c9da0b9bef613812815461283b565b9055601c5495613842604051613834816136ff8b602083019190602083019252565b61383c613255565b8a616b56565b9061385d61384e61328e565b61385661247a565b9084616bdb565b91613869612cdc6132c7565b9161388e604051613886816136ff60208201906000602083019252565b61140f613300565b906138a361389d61373e613339565b93616d52565b9a60206139036138be611d7b6000546001600160a01b031690565b6040519e8f809381927fcfaa1f6c000000000000000000000000000000000000000000000000000000008352600483019190916001600160a01b036020820193169052565b03915afa9b8c15611e575760009c613b85575b5061392361176b8d6168c8565b6104aa57613a02926139918661398b87611d7b968161394f6139f398600052602e602052604060002090565b55836001613969601c54600052602e602052604060002090565b01558b6002613984601c54600052602e602052604060002090565b0155612906565b9d612906565b9c6139ee6139a76001546001600160a01b031690565b60405163c85700fb60e01b60208201526001600160a01b0390911660248201526044810193909352606483018890526084830187905260a483018990528260c48101610ea2565b616c9f565b60208082518301019101612977565b6001600160a01b03811615610771577f1517c86fcf2bfb8e3468afcc539b0004955da8027797c497ea51d1f1094ab89893613b2f613b6c92613a5760039182611974601c54600052602e602052604060002090565b6119fd613afe613af66119f8611a2c613aa58a610f25611a03613a96613a876119d48c546001600160a01b031690565b60208082518301019101612a4c565b9e9491959b9293989050612a00565b94611a6b613aef602f613ad18c611a2c88613acb85546000526030602052604060002090565b92612906565b613adc8a8254612a7f565b9055546000526030602052604060002090565b938a612906565b918254612a9b565b90556001601c5414613b77575b613b21601c54600052602e602052604060002090565b01546001600160a01b031690565b604080513381526001600160a01b03909216602083015281019490945260608401929092526080830191909152600060a0830152819060c0820190565b0390a19493946137c2565b613b8083601e55565b613b0b565b613b9f919c5060203d602011611e5057611e4281836123de565b9a38613916565b50939195925093613bc1600080526031602052604060002090565b556000805260316020527f346dc135129bcc5b8e8f6ff902940f16dc0729d02b27118b912aa326da88b83255601c54838114938415614193575b5060011015613cae575b5050613c0d57565b600080526031602052613c496119ba6119ad60017f346dc135129bcc5b8e8f6ff902940f16dc0729d02b27118b912aa326da88b83101546129ea565b600080526031602052613c7c7f346dc135129bcc5b8e8f6ff902940f16dc0729d02b27118b912aa326da88b83154601355565b613c87601e54601f55565b613c9a613c95601e546128ea565b612aef565b61240d61010061ff0019601a541617601a55565b613cbc61071561384e613372565b602054601e548111614131575b50613cf6613ce7613cd86133e4565b613ce061247a565b9084616a7d565b6020808251830101910161341d565b946001613d149592959493946001600052602d602052604060002090565b0155602d60209081527f3acd642f41c4abca13e6953c1b760d7f24daf271c41106e480dd1fea313ccc73919091557f1d82e85504d8f49072f846129ecee69c763b08a82ee3d81cda62b57a7576d37c919091557faa2e4aefbe0e8a3f17f0ef1a62898433725e8346722aad5b9b38d3974d216084919091557fb166da6939c8546909795cbdc2ac7eb95e976cea31f094e55573dbb6ac49f7509190915560076000527f4d73f294a2cb7f5a471fde2e2c5652a46cf819d439af00ca2c7f02d5472b48b991909155604080516001600160a01b03841692810192909252613e139161274691613e0590829081016136ff565b613e0d61344b565b85616a7d565b602d6020527f4ac3b22e31fa68474eb1c8f858cd447cf1ee3eef7de8984178a7afa8f4fe0cd09190915560046000527faa2e4aefbe0e8a3f17f0ef1a62898433725e8346722aad5b9b38d3974d21608355613e72611b4861384e613484565b613e8061071561384e6134bd565b613ebd613eb8604051613eaa816136ff86602083019190916001600160a01b036020820193169052565b613eb26134f6565b85616bdb565b602155565b604080516001600160a01b0383166020820152613ee991613ee190829081016136ff565b61140f61352f565b60005b81811061403c575050613f2d610ea2613f5393613f25613f3c94604051938491602083019190916001600160a01b036020820193169052565b610eb86135b3565b602080825183010191016135ec565b935050505060ff8019601a54169115151617601a55565b60046020613f6c611d7b6000546001600160a01b031690565b604051928380927f6325dd040000000000000000000000000000000000000000000000000000000082525afa908115611e5757613fea91610ea29160009161401d575b50613fe2613fc56001546001600160a01b031690565b604080516001600160a01b03909216602083015290938491820190565b6112fb61362b565b6005600052602d6020527ff4e70c5971a4cc8cf9f9f8ecc4b5217b9d5f157385b05a56c54d37f26435621d553880613c05565b614036915060203d602011611e5057611e4281836123de565b38613faf565b80614055916140a4575b60215481111561405a5761283b565b613eec565b604080516001600160a01b038616602082015290810182905261409f906140969061408881606081016136ff565b614090613568565b88616bdb565b61208f836135a1565b61283b565b6040517f5329daca0000000000000000000000000000000000000000000000000000000060208201526001600160a01b0385166024820152604481018290526140fe90612746906140f881606481016136ff565b87616c9f565b90614113836000526031602052604060002090565b55600161412a836000526031602052604060002090565b0155614046565b601e556141626136ff614154602054604051928391602083019190602083019252565b61415c6133ab565b83616c17565b61418c61417b602f546000526030602052604060002090565b601e54600052602052604060002090565b5538613cc9565b1593506001613bfb565b50508190929192613770565b925050506141b8610715616952565b6141c3602054601e55565b613c9a602054601f55565b6141e891925060203d602011611e5057611e4281836123de565b90386136c6565b604051906141fc8261238a565b601482527f6c6576656c436c617573652875696e74323536290000000000000000000000006020830152565b908160a091031261040b578051916020820151916040810151916080606083015192015190565b6040519061425c8261238a565b601382527f72616e6b436c617573652875696e7432353629000000000000000000000000006020830152565b60219061429582546128f8565b600881106142a257505050565b6003546001600160a01b03166142e66040916142d983516020926142d182610ea2898783019190602083019252565b610eb861424f565b8051810182019101614228565b505050918315801590614380575b80614370575b6103fb57509061432192916022541015908161434e575b508061433c575b6143265761283b565b614295565b61432f81602155565b61409f8361208f836135a1565b50835461434882612913565b14614318565b90506001614366836000526031602052604060002090565b0154101538614311565b508115806142fa575082156142fa565b5060016142f4565b9091906000831561441e575061439f6021546128f8565b831561449a57600881105b15614494576003546001600160a01b03166143de6040916142d983516020926142d182610ea2898783019190602083019252565b50505091831580159061448d575b8061447d575b6103fb57509061441e92916022541015908161445b575b5085156144305780614423576143265761283b565b61439f565b5060215461434882612913565b1561443e5761409f81602155565b61409f61444a826135a1565b8154906000199060031b1b19169055565b90506001614473836000526031602052604060002090565b0154101538614409565b508115806143f2575082156143f2565b50866143ec565b50509050565b6021548111156143aa565b604051906144b28261238a565b601d82527f636f6d707574654f7a6f6e65546f446f6c6c61722875696e74323536290000006020830152565b9081602091031261040b575190565b6144f681614b79565b908151916020810192835161450a91612906565b906040810191825161451b91612906565b916060820192835161452c91612906565b906080830191825161453d91612906565b9160a0840192835161454e91612906565b9060c0850191825161455f91612906565b9060e08601948551610100880190815161457891612906565b96610120890197885161458a91612906565b956101408a0196875161459c91612906565b936101608b019485516145ae91612906565b956101808c019687516145c091612906565b976101a08d019889516145d291612906565b6145db91612906565b9e8c5160039e8f91826145f96001600052602d602052604060002090565b019081549061460791612906565b9055516004600052602d602052907faa2e4aefbe0e8a3f17f0ef1a62898433725e8346722aad5b9b38d3974d216083019081549061464491612906565b9055516002600052602d6020528d7f3acd642f41c4abca13e6953c1b760d7f24daf271c41106e480dd1fea313ccc72019081549061468191612906565b905589516003600052602d6020528d7f1d82e85504d8f49072f846129ecee69c763b08a82ee3d81cda62b57a7576d37b01908154906146bf91612906565b9055516005600052602d6020528c7ff4e70c5971a4cc8cf9f9f8ecc4b5217b9d5f157385b05a56c54d37f26435621c01908154906146fc91612906565b9055516006600052602d6020528b7fb166da6939c8546909795cbdc2ac7eb95e976cea31f094e55573dbb6ac49f74f019081549061473991612906565b9055516007600052602d6020528a7f4d73f294a2cb7f5a471fde2e2c5652a46cf819d439af00ca2c7f02d5472b48b8019081549061477691612906565b9055516001600052602d6020527f4ac3b22e31fa68474eb1c8f858cd447cf1ee3eef7de8984178a7afa8f4fe0cd28054600297926147b391612906565b9055516004600052602d602052857faa2e4aefbe0e8a3f17f0ef1a62898433725e8346722aad5b9b38d3974d21608301908154906147f091612906565b9055516002600052602d602052847f3acd642f41c4abca13e6953c1b760d7f24daf271c41106e480dd1fea313ccc72019081549061482d91612906565b905585516003600052602d602052847f1d82e85504d8f49072f846129ecee69c763b08a82ee3d81cda62b57a7576d37b019081549061486b91612906565b9055516005600052602d602052837ff4e70c5971a4cc8cf9f9f8ecc4b5217b9d5f157385b05a56c54d37f26435621c01908154906148a891612906565b9055516006600052602d602052827fb166da6939c8546909795cbdc2ac7eb95e976cea31f094e55573dbb6ac49f74f01908154906148e591612906565b9055516007600052602d602052907f4d73f294a2cb7f5a471fde2e2c5652a46cf819d439af00ca2c7f02d5472b48b8019081549061492291612906565b90556101c083015185602f54614942906000526030602052604060002090565b6000918252602052604090209081549061495b91612a7f565b9055516018549061496b91612906565b601855516019549061497c91612906565b60195561498883601e55565b600090841515600014614a0c61240d96614a046149ff614a18976102a097614a1196614a1e57506149e86149c66149f792546001600160a01b031690565b604051906149e082610ea289602083019190602083019252565b610eb86144a5565b602080825183010191016144de565b601654612906565b601655565b601454612906565b601455565b0151151590565b9061278e565b90506149f7565b614a2d61240f565b9060008083528060208401528060408401528060608401528060808401528060a08401528060c08401528060e08401528061010084015280610120840152806101408401528061016084015280610180840152806101a0840152806101c0840152806101e08401528061020084015280610220840152806102408401528061026084015280610280840152806102a0840152806102c08401526102e0830152565b60405190614adb8261238a565b600a82527f73687574646f776e2829000000000000000000000000000000000000000000006020830152565b60405190614b148261238a565b601182527f696e636f6d654f662861646472657373290000000000000000000000000000006020830152565b60405190614b4d8261238a565b601482527f636f6d70757465546f75722875696e74323536290000000000000000000000006020830152565b90614b82614a25565b9160039083614b9883546001600160a01b031690565b92614bb3614ba4614ace565b614bac61247a565b9086616b9f565b90614bbc615af0565b94909160608501958652828552614cdd84600193614c5e614c1f86614bec6001600052602d602052604060002090565b01546001600052602d602052867f4ac3b22e31fa68474eb1c8f858cd447cf1ee3eef7de8984178a7afa8f4fe0cd0612d59565b6001600052602d60205260029790614c5890897f4ac3b22e31fa68474eb1c8f858cd447cf1ee3eef7de8984178a7afa8f4fe0cd0612d59565b90612922565b885288516004600052602d6020527faa2e4aefbe0e8a3f17f0ef1a62898433725e8346722aad5b9b38d3974d21608380870154614cd69291614c5891614ca5918990612d59565b6004600052602d602052897faa2e4aefbe0e8a3f17f0ef1a62898433725e8346722aad5b9b38d3974d216083612d59565b89526155de565b93909260208a99939901986101c06101008c019b0152895287526000146153e2575050614d32610ea2614d186004546001600160a01b031690565b61137e601d54604051938491602083019190602083019252565b3160408a01525b6009546001600160a01b031692614d96614d7a614d5d85546001600160a01b031690565b604080516001600160a01b03909216602083015290918291820190565b0395614d8e601f19978881018452836123de565b6112fb614b07565b6005600052602d60205291614e2d614dfc857ff4e70c5971a4cc8cf9f9f8ecc4b5217b9d5f157385b05a56c54d37f26435621c01546005600052602d602052847ff4e70c5971a4cc8cf9f9f8ecc4b5217b9d5f157385b05a56c54d37f26435621c612d59565b6005600052602d602052827ff4e70c5971a4cc8cf9f9f8ecc4b5217b9d5f157385b05a56c54d37f26435621c612d59565b60808c0181815293818111156153d457614e4a9150845190612922565b83526004602154838110158061535d575b61532c575b101591826152b4575b5050615274575b6005600052603260205281614ea77ff1229d5c96a3de3bdb5814fe87c3432b211770fda268ddcd390c87c4a4feb8e75b5460011690565b14615256575b506006600052603260205280614ee27f125f38041639e32c103ab47aba064e25405a1fb08d2d6ee74cd07eb22ba6e040614ea0565b14615236575b60076000526032602052614f1b7f46bf7effec7da617c09fb0f99690c7f788a904e44d0053fc402fa3db73b36725614ea0565b14615216575b86518251614f2e91612906565b9160408801928351614f3f91612906565b8551614f4a91612906565b9360e089019687518251614f5d91612906565b938a6101208101958651614f7091612906565b976101408201988951614f8291612906565b614f8b91615a07565b15156102a08801819052610280880191825261024088019283526102208801938452610260880194855261020088019586526101e0880196875290989597929492939290614fe6575b50505050505050505050505050505050565b6150526149e861503e8f9861504a61506b986102e0986150719c615024615018614d186004546001600160a01b031690565b038781018452836123de565b319052519e51604051948591602083019190602083019252565b039081018452836123de565b610eb8613125565b97519051106102c0870190815293519051109401938452565b51151590565b908180615204575b600092156151de57505050808210156151d757505b965b8951888b8161519b5750506150a6908251612906565b9052600089525b81518761517457906150c3600093928251612906565b9052525b81518561514d57906150dd600093928251612906565b9052525b8151928061511057506150f76000938251612906565b9052525b3880808080808080808a818080808080614fd4565b91906151376151306151409580861160001461514657805b818652612922565b8251612906565b90525190612922565b506150fb565b8590615128565b9061513761513061516e959794938086116000146151465780818652612922565b916150e1565b90615137615130615195959994938086116000146151465780818652612922565b936150c7565b6151c9949a50615130906151bf9294938086116000146151cf578080925b52612922565b9052895190612922565b956150ad565b8580926151b9565b905061508e565b156151ed575050505b96615090565b5191925090156151fd57506151e7565b90506151e7565b91506152108151151590565b91615079565b600060c08801805161522e6101a08b01918251612906565b905252614f21565b600060a08901805161524e6101808c01918251612906565b905252614ee8565b806000915161526b6101608c01918251612906565b90525238614ead565b6152aa60405161529c8161529060208201906004602083019252565b038681018352826123de565b6152a4614b40565b89616bdb565b60c08a0152614e70565b6007600052602d6020527f4d73f294a2cb7f5a471fde2e2c5652a46cf819d439af00ca2c7f02d5472b48b88086015461532494506152f3929091612d59565b6007600052602d602052907f4d73f294a2cb7f5a471fde2e2c5652a46cf819d439af00ca2c7f02d5472b48b8612d59565b153880614e69565b8c60a06153558d6040519061534d826117fd60208201906002602083019252565b6112fb614b40565b910152614e60565b506006600052602d6020527fb166da6939c8546909795cbdc2ac7eb95e976cea31f094e55573dbb6ac49f74f808701546153ce9161539d91908790612d59565b6006600052602d602052847fb166da6939c8546909795cbdc2ac7eb95e976cea31f094e55573dbb6ac49f74f612d59565b15614e5b565b6153dd91612922565b614e4a565b60408b01526101208a0152614d39565b604051906040820182811067ffffffffffffffff8211176120af5760405260006020838281520152565b6040519061542982612351565b816154326153f2565b815261543c6153f2565b6020820152604061544b6153f2565b910152565b6040519061545d8261238a565b601882527f6765744261746368526f79616c7479436c6175736573282900000000000000006020830152565b6102a090818184031261040b5782601f8201121561040b5760408051936154af856123c2565b849383019281841161040b57935b8385106154cc57505050505090565b60608583031261040b5782516060916154e482612351565b86518252602091828801518382015285880151868201528152019401936154bd565b604051906155138261238a565b601f82527f676574526f79616c697479416d6f756e7442617463682875696e7432353629006020830152565b9060e08282031261040b5780601f8301121561040b5760405191615562836123c2565b829060e0810192831161040b57905b82821061557e5750505090565b8151815260209182019101615571565b9060078110156107c05760051b0190565b8181029291600082127f8000000000000000000000000000000000000000000000000000000000000000821416610a87578184051490151715610a8757565b916000926000926000926000926000926155f661541c565b6155ff8361591b565b82519060208201525261561183615991565b602083015190602082015252615626836159cc565b60408301519060208201525261566161565261564a6003546001600160a01b031690565b611452615450565b60208082518301019101615489565b92601e54926156786004546001600160a01b031690565b93602154905b83811061568e5750505050505050565b6156ca6156bb6040516156ad816136ff86602083019190602083019252565b6156b5615506565b89616a7d565b6020808251830101910161553f565b6001905b838211156157fc57505082156156ed575b6156e89061283b565b61567e565b6157216157198261570a602f546000526030602052604060002090565b90600052602052604060002090565b54809c612a7f565b9a61572c8286612922565b90600091604088015180518881106157a6575b505080831161579e575b8261575391612922565b9180615788575b5081615768575b50506156df565b9a61577a615780926156e8949d61559f565b90612a7f565b999038615761565b9a61577a829c6157979361559f565b993861575a565b915081615749565b808611156157f35750602085915b016157bf81516128f8565b8910156157e45750875b8181111561573f576157dc929450612922565b91388061573f565b6157ee90516128f8565b6157c9565b602090916157b4565b909c61581061580a8f612913565b8a61558e565b51511580156158bb575b6158b1578651805184101590816158a2575b50801561587b575b1561585f57615853615859918f61584d612fc191612913565b8561558e565b9d61283b565b906156ce565b9c9d6158758f91612fc161584d61585994612913565b9e61283b565b50602087015180518410159081615893575b50615834565b6020915001518311153861588d565b6020915001518311153861582c565b9c6158599061283b565b508d6158d36158c9826135a1565b90549060031b1c90565b84101590816158e4575b501561581a565b615912915060406159096159036158fd6158c9856135a1565b93612913565b8d61558e565b51015190612906565b8311158e6158dd565b906103e760005260326020526040600020805490811561598b5760018216159384156159825760ff60025b168303838111610a875761595a9083612776565b90549060031b1c9460001461597c57506159766158c992612913565b90612776565b91505090565b60ff6001615946565b50508190565b90600260005260326020526040600020805490811561598b576001821615938415615982576001198301838111610a875761595a9083612776565b90600360005260326020526040600020805490811561598b576001821615938415615982576001198301838111610a875761595a9083612776565b9190615a24615a1b60135460125490612906565b60395490612a00565b91615a3582611a6b86601454612906565b938385118015615ae757615abb855b94615a60615a5760175460155490612906565b603a5490612a00565b9360165491615a6f8183612906565b60009015615ade5750610ea2615ab5926149e0615aa16149e894615a9b6003546001600160a01b031690565b93612906565b604051938491602083019190602083019252565b90612906565b92828411918215615ad857835b928115615ad3575090565b905090565b84615ac8565b91505090612906565b615abb86615a44565b600090816001815b600f821115615b6f5750506001600052602d6020527f4ac3b22e31fa68474eb1c8f858cd447cf1ee3eef7de8984178a7afa8f4fe0cd0548101809111610a87576004600052602d6020529161298c907faa2e4aefbe0e8a3f17f0ef1a62898433725e8346722aad5b9b38d3974d2160835490612906565b9093848252603192602093808552604090600282862001548301809311610a87576003929588865252832001548101809111610a8757615baf909461283b565b90615af8565b90615bbe612b47565b916001808214615cab57506002808214615cab57506003808214615cab575060048114615c2f57600514615bee57565b9050615bf8612451565b6013548152601754602082015260145460408201526016546060820152601254608082015260155460a0820152600060c082015290565b509050615c3a612451565b60185481526019546020820152615c5c6001600052602d602052604060002090565b5460408201526004600052602d6020527faa2e4aefbe0e8a3f17f0ef1a62898433725e8346722aad5b9b38d3974d21608354606082015260006080820152600060a0820152600060c082015290565b91925050615cb7612451565b7f4ac3b22e31fa68474eb1c8f858cd447cf1ee3eef7de8984178a7afa8f4fe0cd082015481527f3acd642f41c4abca13e6953c1b760d7f24daf271c41106e480dd1fea313ccc728201546020808301919091527f1d82e85504d8f49072f846129ecee69c763b08a82ee3d81cda62b57a7576d37b83015460408301527faa2e4aefbe0e8a3f17f0ef1a62898433725e8346722aad5b9b38d3974d21608383015460608301527ff4e70c5971a4cc8cf9f9f8ecc4b5217b9d5f157385b05a56c54d37f26435621c83015460808301527fb166da6939c8546909795cbdc2ac7eb95e976cea31f094e55573dbb6ac49f74f83015460a08301526007600052602d90527f4d73f294a2cb7f5a471fde2e2c5652a46cf819d439af00ca2c7f02d5472b48b89091015460c082015290565b60405190615df182612335565b60006060838281528260208201528260408201520152565b90604051615e1681612335565b6060600382948054845260018101546020850152600281015460408501520154910152565b67ffffffffffffffff81116120af5760051b60200190565b80518210156107c05760209160051b010190565b61614c6101c061240d92615ea1615e8582516001600160a01b031690565b6001600160a01b03166001600160a01b03196002541617600255565b615ed4615eb860208301516001600160a01b031690565b6001600160a01b03166001600160a01b03196003541617600355565b615f07615eeb60408301516001600160a01b031690565b6001600160a01b03166001600160a01b03196004541617600455565b615f3a615f1e60608301516001600160a01b031690565b6001600160a01b03166001600160a01b03196005541617600555565b615f6d615f5160808301516001600160a01b031690565b6001600160a01b03166001600160a01b03196006541617600655565b615fa0615f8460a08301516001600160a01b031690565b6001600160a01b03166001600160a01b03196007541617600755565b615fd3615fb760c08301516001600160a01b031690565b6001600160a01b03166001600160a01b03196008541617600855565b616006615fea60e08301516001600160a01b031690565b6001600160a01b03166001600160a01b03196009541617600955565b61603a61601e6101008301516001600160a01b031690565b6001600160a01b03166001600160a01b0319600a541617600a55565b61606e6160526101208301516001600160a01b031690565b6001600160a01b03166001600160a01b0319600b541617600b55565b6160a26160866101408301516001600160a01b031690565b6001600160a01b03166001600160a01b0319600c541617600c55565b6160d66160ba6101608301516001600160a01b031690565b6001600160a01b03166001600160a01b0319600d541617600d55565b61610a6160ee6101808301516001600160a01b031690565b6001600160a01b03166001600160a01b0319600e541617600e55565b61613e6161226101a08301516001600160a01b031690565b6001600160a01b03166001600160a01b0319600f541617600f55565b01516001600160a01b031690565b6001600160a01b03166001600160a01b03196010541617601055565b61617d611d7b6000546001600160a01b031690565b604051907f97f3815a000000000000000000000000000000000000000000000000000000008252602082600481845afa918215611e575760009261680d575b50604051917fcfbffe53000000000000000000000000000000000000000000000000000000008352602083600481855afa928315611e57576000936167ec575b50604051907fab6e844f000000000000000000000000000000000000000000000000000000008252602082600481865afa918215611e57576000926167cb575b50604051917f14d8d024000000000000000000000000000000000000000000000000000000008352602083600481875afa928315611e57576000936167aa575b50604051927fd1f956b1000000000000000000000000000000000000000000000000000000008452602084600481885afa938415611e5757600094616789575b50604051937fe61dfd58000000000000000000000000000000000000000000000000000000008552602085600481895afa948515611e5757600095616768575b506040517fe09d394d0000000000000000000000000000000000000000000000000000000081526020816004818a5afa908115611e5757600091616749575b506040517f52b06d640000000000000000000000000000000000000000000000000000000081526020816004818b5afa908115611e575760009161672a575b506040517f013cf08b00000000000000000000000000000000000000000000000000000000815260006004820152916020836024818c5afa928315611e5757600093616709575b50604051977f5e09dbe70000000000000000000000000000000000000000000000000000000089526020896004818d5afa948515611e57576004996000966166e8575b5060208b6040519b8c80927faa0ddc160000000000000000000000000000000000000000000000000000000082525afa968715611e575760049a6000986166c7575b5060208c6040519c8d80927f640274270000000000000000000000000000000000000000000000000000000082525afa988915611e575760049b60009a6166a6575b5060208d6040519d8e80927f30125cf50000000000000000000000000000000000000000000000000000000082525afa9a8b15611e57578d60049d60009d616684575b506020906040519e8f80927f24768d910000000000000000000000000000000000000000000000000000000082525afa9c8d15611e575760009d616663575b50604051809e81907f9dc969a80000000000000000000000000000000000000000000000000000000082525a92600491602094fa9d8e15611e575760009e616642575b50616556612430565b6001600160a01b0390911681529d8e906001600160a01b031660208201526040019061658a91906001600160a01b03169052565b6001600160a01b031660608d01526001600160a01b031660808c01526001600160a01b031660a08b01526001600160a01b031660c08a01526001600160a01b031660e08901526001600160a01b03166101008801526001600160a01b03166101208701526001600160a01b03166101408601526001600160a01b03166101608501526001600160a01b03166101808401526001600160a01b03166101a08301526001600160a01b03166101c082015261240d90615e67565b61665c919e5060203d602011611e5057611e4281836123de565b9c3861654d565b61667d919d5060203d602011611e5057611e4281836123de565b9b3861650a565b6020919d5061669f90823d8411611e5057611e4281836123de565b9c906164cb565b6166c0919a5060203d602011611e5057611e4281836123de565b9838616488565b6166e191985060203d602011611e5057611e4281836123de565b9638616446565b61670291965060203d602011611e5057611e4281836123de565b9438616404565b61672391935060203d602011611e5057611e4281836123de565b91386163c1565b616743915060203d602011611e5057611e4281836123de565b3861637a565b616762915060203d602011611e5057611e4281836123de565b3861633b565b61678291955060203d602011611e5057611e4281836123de565b93386162fc565b6167a391945060203d602011611e5057611e4281836123de565b92386162bc565b6167c491935060203d602011611e5057611e4281836123de565b913861627c565b6167e591925060203d602011611e5057611e4281836123de565b903861623c565b61680691935060203d602011611e5057611e4281836123de565b91386161fc565b61682791925060203d602011611e5057611e4281836123de565b90386161bc565b9081602091031261040b575161298c81610650565b61689e6001600160a01b036002541660405161685e8161238a565b600881527f6973536166652829000000000000000000000000000000000000000000000000602082015260405191616895836123a6565b60008352616aa8565b90806168bd575b15610635578060208061298c9351830101910161682e565b5060208151146168a5565b61692b6001600160a01b0380600254166040519160209416848301528382526168f08261238a565b604051906168fd8261238a565b601582527f697353656375726542617365286164647265737329000000000000000000000085830152616aa8565b9080616948575b15610635578161298c928251830101910161682e565b5081815114616932565b61298c6001600160a01b036003541660405161696d8161238a565b600681527f694167652829000000000000000000000000000000000000000000000000000060208201526040519161126f836123a6565b6001600160a01b0380911690811561074757600154826001600160a01b0319821617600155167f8292fce18fa69edf4db7b94ea2e58241df0ae57f97e0a6c9b29067028bf92d76600080a3565b3d15616a1c573d90616a028261245e565b91616a1060405193846123de565b82523d6000602084013e565b606090565b9080156130f6576001600160a01b03821691821561074757600080808481945af1616a4a6169f1565b50156106355760207fcec1f18c3ab8ddaaa107a1591e3c369667eec613626611a8deaedef43069fcdd91604051908152a2565b90616a889291616aa8565b9060009015616a95575090565b6040519150616aa3826123a6565b815290565b9190823b15616b3d577fffffffff00000000000000000000000000000000000000000000000000000000815160208093012016916040519180830193845281519160005b838110616b29575050509181616b19602482600097959688970187838201520360048101845201826123de565b51915afa616b256169f1565b9091565b818101830151858201602401528201616aec565b505050600090604051616b4f816123a6565b6000815290565b9291616b6491600094616aa8565b9080616b94575b616b725750565b6001600160a01b0391925080602080616b9093518301019101612977565b1690565b506020815114616b6b565b9291616bad91600094616aa8565b9080616bd0575b616bbb5750565b61298c9192506020808251830101910161682e565b506020815114616bb4565b9291616be991600094616aa8565b9080616c0c575b616bf75750565b61298c919250602080825183010191016144de565b506020815114616bf0565b9291616c2591600094616aa8565b9080616c4a575b616c335750565b90915060208180518101031261040b576020015190565b506020815114616c2c565b90602082519201517fffffffff00000000000000000000000000000000000000000000000000000000908181169360048110616c9057505050565b60040360031b82901b16169150565b6001600160a01b0381161561074757600080918351908260208601915af190616cc66169f1565b9115616cd0575090565b805160009190600411616d4c57616ce79150616c55565b815115616cf75750805190602001fd5b6040517f21c09d340000000000000000000000000000000000000000000000000000000081527fffffffff00000000000000000000000000000000000000000000000000000000919091166004820152602490fd5b50616ce7565b803b6000616d5f8261245e565b92616d6d60405194856123de565b82845260208401903c602d81511061077157602a015160601c9056fea2646970667358221220b7bb97ee567a05d821a9e1285700f1efdf88d64982232996ec71bbdf2529e7f164736f6c63430008140033","linkReferences":{}},"methodIdentifiers":{"Burn(uint256)":"b90306ad","BurnCoin(uint256,uint256)":"a5d7cda4","LSB(uint256,uint256)":"6f493aad","_delegatorCount()":"a1f7f539","_getImplementation(address)":"c54e44b0","_isDelegatorNode(address)":"e01ad5fd","_isSafe()":"e0a9bc2b","_isSecureBase(address)":"af484526","_isSigner(address)":"1f185d16","_txnType7(uint256,uint256)":"02a085f2","_txnType_1_0(address,uint256,uint256,uint256,uint256,uint256)":"a6630304","addLevelnGetRank(uint256,uint256,uint256,uint256,uint256,bool)":"822ffec4","bonus()":"75b4d78c","cage()":"69245009","currentLSBversion()":"43a1b5ab","dage()":"725b6fff","directsCount()":"d2a15904","getAllComputeData(uint256)":"b9f1a394","getAllData(uint256,uint256)":"12964120","getBalance()":"12065fe0","getHexbase()":"3b9b7955","getNodeLB(uint256)":"da021335","getNodeLvlInfoBatch(uint256,uint256)":"759f22bd","getRankAgeInBatch()":"6de97c66","getRankWithAgeValue()":"29ee350e","getToggleAgeCount(uint256)":"143ec3b7","getToggleAgeValue(uint256,uint256)":"043719b4","id()":"af640d0f","importOld(uint256)":"d3abb8a3","isLock()":"09d8da2e","mintCount()":"9659867e","mints(uint256)":"6350b2c2","moveLvlIncome(uint256,uint256,uint256,uint256,bool)":"7b058ac1","owner()":"8da5cb5b","postInit()":"4a65786c","preinit(address,address,uint256,bool)":"2697a77a","rank()":"934209ce","setBonus(uint256)":"0b98f975","setLock(bool)":"619d5194","setSuspend(uint256,bool)":"c8ef7b1a","setburnclaimdollar(uint256,uint256)":"654c668e","setdirect(bool)":"deb1ba1e","storcache()":"5ecf6a8a","syncBaseAddr()":"339459a6","systemAge()":"fdc10bc9","updateOwner(address)":"880cdc31","userCycleMintCount(uint256)":"39b4d61b","withdrawlDage()":"a9bf285b"},"id":52}