{"abi":[{"type":"constructor","inputs":[{"name":"_hex","type":"address","internalType":"address"}],"stateMutability":"nonpayable"},{"type":"fallback","stateMutability":"payable"},{"type":"receive","stateMutability":"payable"},{"type":"function","name":"Burn","inputs":[{"name":"amount","type":"uint256","internalType":"uint256"}],"outputs":[],"stateMutability":"nonpayable"},{"type":"function","name":"BurnCoin","inputs":[{"name":"_dollar","type":"uint256","internalType":"uint256"},{"name":"maxinterwal","type":"uint256","internalType":"uint256"}],"outputs":[],"stateMutability":"payable"},{"type":"function","name":"LSB","inputs":[{"name":"","type":"uint256","internalType":"uint256"},{"name":"","type":"uint256","internalType":"uint256"}],"outputs":[{"name":"","type":"int256","internalType":"int256"}],"stateMutability":"view"},{"type":"function","name":"TVL","inputs":[],"outputs":[{"name":"","type":"uint256","internalType":"uint256"}],"stateMutability":"view"},{"type":"function","name":"_delegatorCount","inputs":[],"outputs":[{"name":"","type":"uint256","internalType":"uint256"}],"stateMutability":"view"},{"type":"function","name":"_getImplementation","inputs":[{"name":"clone","type":"address","internalType":"address"}],"outputs":[{"name":"impl","type":"address","internalType":"address"}],"stateMutability":"view"},{"type":"function","name":"_isDelegatorNode","inputs":[{"name":"sender","type":"address","internalType":"address"}],"outputs":[{"name":"","type":"bool","internalType":"bool"}],"stateMutability":"view"},{"type":"function","name":"_isSafe","inputs":[],"outputs":[{"name":"","type":"bool","internalType":"bool"}],"stateMutability":"view"},{"type":"function","name":"_isSecureBase","inputs":[{"name":"sender","type":"address","internalType":"address"}],"outputs":[{"name":"","type":"bool","internalType":"bool"}],"stateMutability":"view"},{"type":"function","name":"_isSigner","inputs":[{"name":"sender","type":"address","internalType":"address"}],"outputs":[{"name":"","type":"bool","internalType":"bool"}],"stateMutability":"view"},{"type":"function","name":"_txnType107","inputs":[{"name":"_maxint","type":"uint256","internalType":"uint256"},{"name":"_ag","type":"uint256","internalType":"uint256"}],"outputs":[{"name":"net","type":"uint256","internalType":"uint256"},{"name":"_self","type":"uint256","internalType":"uint256"},{"name":"_selfflush","type":"uint256","internalType":"uint256"}],"stateMutability":"payable"},{"type":"function","name":"_txnType_101_100","inputs":[{"name":"paramAdd","type":"address","internalType":"address"},{"name":"_id_maxint","type":"uint256","internalType":"uint256"},{"name":"_qty","type":"uint256","internalType":"uint256"},{"name":"_msgValue","type":"uint256","internalType":"uint256"},{"name":"_type","type":"uint256","internalType":"uint256"},{"name":"_ag","type":"uint256","internalType":"uint256"}],"outputs":[{"name":"_tvl","type":"uint256","internalType":"uint256"},{"name":"_amt","type":"uint256","internalType":"uint256"}],"stateMutability":"payable"},{"type":"function","name":"activedirectsCount","inputs":[],"outputs":[{"name":"","type":"uint256","internalType":"uint256"}],"stateMutability":"view"},{"type":"function","name":"addLevelnGetRank","inputs":[{"name":"_amount","type":"uint256","internalType":"uint256"},{"name":"_qty","type":"uint256","internalType":"uint256"},{"name":"_level","type":"uint256","internalType":"uint256"},{"name":"_epochAge","type":"uint256","internalType":"uint256"},{"name":"_free","type":"uint256","internalType":"uint256"},{"name":"_tobeSkipped","type":"bool","internalType":"bool"}],"outputs":[{"name":"currentrnk","type":"uint256","internalType":"uint256"}],"stateMutability":"nonpayable"},{"type":"function","name":"bonus","inputs":[],"outputs":[{"name":"","type":"uint256","internalType":"uint256"}],"stateMutability":"view"},{"type":"function","name":"cage","inputs":[],"outputs":[{"name":"","type":"uint256","internalType":"uint256"}],"stateMutability":"view"},{"type":"function","name":"currentCycle","inputs":[],"outputs":[{"name":"","type":"uint256","internalType":"uint256"}],"stateMutability":"view"},{"type":"function","name":"currentLSBversion","inputs":[],"outputs":[{"name":"","type":"uint256","internalType":"uint256"}],"stateMutability":"view"},{"type":"function","name":"dage","inputs":[],"outputs":[{"name":"","type":"uint256","internalType":"uint256"}],"stateMutability":"view"},{"type":"function","name":"getAllComputeData","inputs":[{"name":"maxinterwal","type":"uint256","internalType":"uint256"}],"outputs":[{"name":"cr","type":"tuple","internalType":"struct InstanceStorTypes.ComputeResult","components":[{"name":"p1","type":"uint256","internalType":"uint256"},{"name":"p2","type":"uint256","internalType":"uint256"},{"name":"p3","type":"uint256","internalType":"uint256"},{"name":"p4","type":"uint256","internalType":"uint256"},{"name":"p5","type":"uint256","internalType":"uint256"},{"name":"p6","type":"uint256","internalType":"uint256"},{"name":"p7","type":"uint256","internalType":"uint256"},{"name":"f1","type":"uint256","internalType":"uint256"},{"name":"f2","type":"uint256","internalType":"uint256"},{"name":"f3","type":"uint256","internalType":"uint256"},{"name":"f4","type":"uint256","internalType":"uint256"},{"name":"f5","type":"uint256","internalType":"uint256"},{"name":"f6","type":"uint256","internalType":"uint256"},{"name":"f7","type":"uint256","internalType":"uint256"},{"name":"lsb","type":"int256","internalType":"int256"},{"name":"totInc","type":"uint256","internalType":"uint256"},{"name":"thresholdx","type":"uint256","internalType":"uint256"},{"name":"totIncdollar","type":"uint256","internalType":"uint256"},{"name":"thresholdollarx","type":"uint256","internalType":"uint256"},{"name":"minpay","type":"uint256","internalType":"uint256"},{"name":"minpaydollar","type":"uint256","internalType":"uint256"},{"name":"cap","type":"bool","internalType":"bool"},{"name":"capinc","type":"bool","internalType":"bool"},{"name":"capdollar","type":"bool","internalType":"bool"}]}],"stateMutability":"view"},{"type":"function","name":"getAllData","inputs":[{"name":"typeId","type":"uint256","internalType":"uint256"},{"name":"maxinterwal","type":"uint256","internalType":"uint256"}],"outputs":[{"name":"values","type":"uint256[7]","internalType":"uint256[7]"}],"stateMutability":"view"},{"type":"function","name":"getBalance","inputs":[],"outputs":[{"name":"","type":"uint256","internalType":"uint256"}],"stateMutability":"view"},{"type":"function","name":"getHexbase","inputs":[],"outputs":[{"name":"","type":"address","internalType":"address"}],"stateMutability":"view"},{"type":"function","name":"getNodeLB","inputs":[{"name":"_level","type":"uint256","internalType":"uint256"}],"outputs":[{"name":"","type":"tuple","internalType":"struct InstanceStorTypes.LevelInfoStr","components":[{"name":"lvlbs","type":"uint256","internalType":"uint256"},{"name":"lvlqty","type":"uint256","internalType":"uint256"},{"name":"lvlrwrd","type":"uint256","internalType":"uint256"},{"name":"lvlyei","type":"uint256","internalType":"uint256"}]}],"stateMutability":"view"},{"type":"function","name":"getRankWithAgeValue","inputs":[],"outputs":[{"name":"","type":"uint256","internalType":"uint256"},{"name":"","type":"uint256","internalType":"uint256"}],"stateMutability":"view"},{"type":"function","name":"getToggleAgeCount","inputs":[{"name":"key","type":"uint256","internalType":"uint256"}],"outputs":[{"name":"","type":"uint256","internalType":"uint256"}],"stateMutability":"view"},{"type":"function","name":"getToggleAgeValue","inputs":[{"name":"key","type":"uint256","internalType":"uint256"},{"name":"index","type":"uint256","internalType":"uint256"}],"outputs":[{"name":"","type":"uint256","internalType":"uint256"}],"stateMutability":"view"},{"type":"function","name":"id","inputs":[],"outputs":[{"name":"","type":"uint256","internalType":"uint256"}],"stateMutability":"view"},{"type":"function","name":"importOld","inputs":[{"name":"limit","type":"uint256","internalType":"uint256"}],"outputs":[],"stateMutability":"payable"},{"type":"function","name":"isLock","inputs":[],"outputs":[{"name":"","type":"bool","internalType":"bool"}],"stateMutability":"view"},{"type":"function","name":"mintCount","inputs":[],"outputs":[{"name":"","type":"uint256","internalType":"uint256"}],"stateMutability":"view"},{"type":"function","name":"mints","inputs":[{"name":"","type":"uint256","internalType":"uint256"}],"outputs":[{"name":"amt","type":"uint256","internalType":"uint256"},{"name":"qty","type":"uint256","internalType":"uint256"},{"name":"mage","type":"uint256","internalType":"uint256"},{"name":"nft","type":"address","internalType":"address"}],"stateMutability":"view"},{"type":"function","name":"moveLvlIncome","inputs":[{"name":"_amount","type":"uint256","internalType":"uint256"},{"name":"_qty","type":"uint256","internalType":"uint256"},{"name":"_level","type":"uint256","internalType":"uint256"},{"name":"_epochAge","type":"uint256","internalType":"uint256"},{"name":"_op","type":"bool","internalType":"bool"}],"outputs":[{"name":"lastrnk","type":"uint256","internalType":"uint256"},{"name":"currentrnk","type":"uint256","internalType":"uint256"}],"stateMutability":"nonpayable"},{"type":"function","name":"owner","inputs":[],"outputs":[{"name":"","type":"address","internalType":"address"}],"stateMutability":"view"},{"type":"function","name":"postInit","inputs":[],"outputs":[{"name":"","type":"bool","internalType":"bool"}],"stateMutability":"view"},{"type":"function","name":"preinit","inputs":[{"name":"_hex","type":"address","internalType":"address"},{"name":"_own","type":"address","internalType":"address"},{"name":"_id","type":"uint256","internalType":"uint256"},{"name":"isnew","type":"bool","internalType":"bool"},{"name":"_tvl","type":"uint256","internalType":"uint256"}],"outputs":[],"stateMutability":"nonpayable"},{"type":"function","name":"rank","inputs":[],"outputs":[{"name":"","type":"uint256","internalType":"uint256"}],"stateMutability":"view"},{"type":"function","name":"resetRank","inputs":[],"outputs":[],"stateMutability":"nonpayable"},{"type":"function","name":"setActivedirect","inputs":[{"name":"addremove","type":"bool","internalType":"bool"}],"outputs":[],"stateMutability":"nonpayable"},{"type":"function","name":"setBonus","inputs":[{"name":"b","type":"uint256","internalType":"uint256"}],"outputs":[],"stateMutability":"nonpayable"},{"type":"function","name":"setLock","inputs":[{"name":"flag","type":"bool","internalType":"bool"}],"outputs":[],"stateMutability":"nonpayable"},{"type":"function","name":"setSuspend","inputs":[{"name":"key","type":"uint256","internalType":"uint256"},{"name":"value","type":"bool","internalType":"bool"}],"outputs":[],"stateMutability":"nonpayable"},{"type":"function","name":"setcapclaim","inputs":[{"name":"claimcap","type":"uint256","internalType":"uint256"},{"name":"claicapmdollar","type":"uint256","internalType":"uint256"},{"name":"_tvl","type":"uint256","internalType":"uint256"},{"name":"action","type":"bool","internalType":"bool"}],"outputs":[],"stateMutability":"nonpayable"},{"type":"function","name":"storcache","inputs":[],"outputs":[],"stateMutability":"nonpayable"},{"type":"function","name":"syncBaseAddr","inputs":[],"outputs":[],"stateMutability":"nonpayable"},{"type":"function","name":"systemAge","inputs":[],"outputs":[{"name":"","type":"uint256","internalType":"uint256"}],"stateMutability":"view"},{"type":"function","name":"updateOwner","inputs":[{"name":"_newowner","type":"address","internalType":"address"}],"outputs":[],"stateMutability":"nonpayable"},{"type":"function","name":"userCycleMintCount","inputs":[{"name":"","type":"uint256","internalType":"uint256"}],"outputs":[{"name":"","type":"uint256","internalType":"uint256"}],"stateMutability":"view"},{"type":"function","name":"withdrawlDage","inputs":[],"outputs":[{"name":"","type":"uint256","internalType":"uint256"}],"stateMutability":"view"},{"type":"event","name":"CapReset","inputs":[{"name":"invested","type":"uint256","indexed":false,"internalType":"uint256"},{"name":"claimed","type":"uint256","indexed":false,"internalType":"uint256"},{"name":"claimedDollar","type":"uint256","indexed":false,"internalType":"uint256"},{"name":"investedDollar","type":"uint256","indexed":false,"internalType":"uint256"},{"name":"burned","type":"uint256","indexed":false,"internalType":"uint256"},{"name":"burnedDollar","type":"uint256","indexed":false,"internalType":"uint256"},{"name":"ag","type":"uint256","indexed":false,"internalType":"uint256"}],"anonymous":false},{"type":"event","name":"EthBurned","inputs":[{"name":"sender","type":"address","indexed":true,"internalType":"address"},{"name":"amount","type":"uint256","indexed":false,"internalType":"uint256"}],"anonymous":false},{"type":"event","name":"EthTransferred","inputs":[{"name":"to","type":"address","indexed":true,"internalType":"address"},{"name":"amount","type":"uint256","indexed":false,"internalType":"uint256"}],"anonymous":false},{"type":"event","name":"HexBaseUpdated","inputs":[{"name":"previousHexBase","type":"address","indexed":true,"internalType":"address"},{"name":"newHexBase","type":"address","indexed":true,"internalType":"address"}],"anonymous":false},{"type":"event","name":"LogTxns","inputs":[{"name":"from","type":"address","indexed":false,"internalType":"address"},{"name":"orc1155","type":"address","indexed":false,"internalType":"address"},{"name":"_amt","type":"uint256","indexed":false,"internalType":"uint256"},{"name":"_value","type":"uint256","indexed":false,"internalType":"uint256"},{"name":"_time","type":"uint256","indexed":false,"internalType":"uint256"},{"name":"_type","type":"uint256","indexed":false,"internalType":"uint256"}],"anonymous":false},{"type":"event","name":"OwnerUpdated","inputs":[{"name":"previousOwner","type":"address","indexed":true,"internalType":"address"},{"name":"newOwner","type":"address","indexed":true,"internalType":"address"}],"anonymous":false},{"type":"error","name":"CallFailed","inputs":[]},{"type":"error","name":"InvalidAddress","inputs":[]},{"type":"error","name":"InvalidState","inputs":[]},{"type":"error","name":"NotAuthorized","inputs":[]},{"type":"error","name":"NotSafe","inputs":[]},{"type":"error","name":"ReentrancyGuardReentrantCall","inputs":[]},{"type":"error","name":"TargetCallFailed","inputs":[{"name":"selector","type":"bytes4","internalType":"bytes4"}]}],"bytecode":{"object":"0x608034620000c357601f62005e9438819003918201601f19168301916001600160401b03831184841017620000c857808492602094604052833981010312620000c357516001600160a01b03811690819003620000c3578015620000b15760018060a01b031990338260015416176001556000918254161781556001600d5580600e5580600f55806010558060115580601255806013558060145580601555601655604051615db59081620000df8239f35b60405163e6c4247b60e01b8152600490fd5b600080fd5b634e487b7160e01b600052604160045260246000fdfe60806040526004361015610018575b361561001657005b005b60003560e01c8063043719b41461032857806309d8da2e146103235780630b98f9751461031e57806312065fe0146103195780631296412014610314578063143ec3b71461030f5780631f185d161461030a57806329ee350e14610305578063339459a61461030057806339b4d61b146102fb5780633b9b7955146102f657806343a1b5ab146102f157806347a09a1d146102ec5780634a65786c146102e75780635ecf6a8a146102e2578063619d5194146102dd5780636350b2c2146102d857806369245009146102d35780636f493aad146102ce578063711e5870146102c9578063725b6fff146102c457806375b4d78c146102bf578063799e4c45146102ba5780637b058ac1146102b5578063822ffec4146102b057806387acdff7146102ab578063880cdc31146102a65780638da5cb5b146102a1578063934209ce1461029c5780639659867e14610297578063a1c25c8614610292578063a1f7f5391461028d578063a5d7cda414610288578063a93491f314610283578063a9bf285b1461027e578063ab57c03a14610279578063af48452614610274578063af640d0f1461026f578063b90306ad1461026a578063b9f1a39414610265578063bab2f55214610260578063c54e44b01461025b578063c8ef7b1a14610256578063d3abb8a314610251578063da0213351461024c578063e01ad5fd14610247578063e0a9bc2b14610242578063edaf2d2e1461023d5763fdc10bc90361000e57612068565b61204a565b61202f565b611f68565b611ec8565b611e6c565b611d76565b611d3d565b611d1f565b611bbe565b611ad6565b611ab8565b611a87565b611a6e565b611a50565b611921565b611540565b6114d6565b61143d565b61141f565b611401565b6113d8565b61137c565b610f73565b610c4b565b610b3c565b610b1e565b610b00565b610ae2565b610a68565b610a2e565b610a10565b6109b9565b610951565b610938565b610912565b61083e565b610816565b6107ed565b6107a1565b6105bc565b610585565b6104ad565b610464565b61041b565b6103ff565b61038c565b610369565b34610364576040366003190112610364576004356000526035602052602061035660243560406000206125a3565b90546040519160031b1c8152f35b600080fd5b3461036457600036600319011261036457602060ff601754166040519015158152f35b34610364576020366003190112610364576103a56158c0565b156103ed576103b333615932565b80156103d9575b156103c757600435601855005b60405163ea8e4eb560e01b8152600490fd5b506005546001600160a01b031633146103ba565b604051634ee2123760e11b8152600490fd5b3461036457600036600319011261036457602047604051908152f35b3461036457604036600319011261036457610437600435615174565b60405190600090825b6007831061044d5760e084f35b600190825181526020809101920192019190610440565b346103645760203660031901126103645760043560005260356020526020604060002054604051908152f35b6001600160a01b031690565b6001600160a01b0381160361036457565b3461036457602080600319360112610364576105206004356104ce8161049c565b6002546040516001600160a01b039283168582015284815291166104f1826120b4565b604051906104fe826120b4565b601182527069735369676e657228616464726573732960781b85830152615af9565b91908061056a575b1561055857818161054292610554945183010191016158ab565b60405190151581529081906020820190565b0390f35b604051633204506f60e01b8152600490fd5b5080825114610528565b908152602081019190915260400190565b3461036457600036600319011261036457601e5460088110156105b75780602001549061055460405192839283610574565b61258d565b346103645760003660031901126103645761001661550d565b6000526034602052604060002090565b6000805260346020527f2dc2afdad33a5feea586a9545052327b65d28efb10d11fa69e77da986a1031cd90565b6103e76000526035602052600080516020615d6083398151915290565b600160005260306020527fc7874712a1c7fb891b421aa6c0d42dbf3cd912d7a18f183783fb32e938cbaa0190565b600460005260306020527f2f780f5a40ea4901ca784926540b83b7459f13a98fc8f78e5634eb2a01df3af590565b600052602a602052604060002090565b6000526031602052604060002090565b6000526033602052604060002090565b600260005260306020527f89a47dfbb363dd4e64da56b4585033c9abd8a425d24b94630469c44bee7189c290565b600360005260306020527f11a30d68d5ffd3a101d3683e9a6997d49d9351e95dc004c6a4e652b897626df790565b600660005260306020527fd558ed0e54509c62efb2aedb46e6ad1b04c7bdca351e3613e136c946b91686d890565b600760005260306020527f4ebb69666752feecd656ebf5f8cd3c2f1c70bb06a0c3d3744be479e4a580c23390565b600560005260306020527f9d0b70a39d4b3569f175af8ea51ae318eac80460c467ee4a16ee63ec5720706e90565b3461036457602036600319011261036457600435600052602a6020526020604060002054604051908152f35b6001600160a01b03169052565b6001600160a01b03909116815260200190565b34610364576000366003190112610364576000546040516001600160a01b039091168152602090f35b34610364576000366003190112610364576020603254604051908152f35b8015150361036457565b346103645760803660031901126103645760443560243560043560643561086481610834565b61086c6158c0565b156103ed5761087a33615932565b80156108fe575b156103c757156108c757916108ba6108b56108c2936108ad6108a8610016976011546126c6565b601155565b6014546126c6565b601455565b6028546126c6565b602855565b6011549081039081116108f9576011556014549081039081116108f9576014556028549081039081116108f957602855005b61263b565b506005546001600160a01b03163314610881565b3461036457600036600319011261036457602060ff60175460081c166040519015158152f35b34610364576000366003190112610364576100166123f4565b346103645760203660031901126103645760043561096e81610834565b6109766158c0565b156103ed5761098433615932565b80156109a5575b156103c75760ff8019601754169115151617601755600080f35b506005546001600160a01b0316331461098b565b3461036457602036600319011261036457600435600052603160205260806040600020805490600181015490600281015490600360018060a01b039101541691604051938452602084015260408301526060820152f35b34610364576000366003190112610364576020601d54604051908152f35b3461036457604036600319011261036457600435600052603360205260406000206024356000526020526020604060002054604051908152f35b3461036457602036600319011261036457600435610a8581610834565b610a8d6158c0565b156103ed57610a9b33615932565b8015610ace575b156103c75715610abc57610ab7601f54612651565b601f55005b601f5480156108f95760001901601f55005b506005546001600160a01b03163314610aa2565b34610364576000366003190112610364576020601b54604051908152f35b34610364576000366003190112610364576020601854604051908152f35b34610364576000366003190112610364576020601f54604051908152f35b346103645760a036600319011261036457604435602435600435608435610b6281610834565b610b6a6158c0565b156103ed57610b7833615932565b8015610c37575b156103c75760009260009480610b9f575b60405180610554888883610574565b9091929350601e549483600014610bfa57506001610bd982610bed96610bd2610bca610be2966105d5565b9182546126c6565b90556105d5565b019182546126c6565b90555b60643561401f565b601e549038808080610b90565b8082604092526034602052209384549081039081116108f957610c27610c3092600192610bed97556105d5565b0191825461269d565b9055610be5565b506005546001600160a01b03163314610b7f565b346103645760c03660031901126103645760a435602435606435600435604435610c7485610834565b610c7c6158c0565b156103ed57610c8a33615932565b8015610f5f575b156103c757610c9f816105d5565b610caa8382546126c6565b905560019384610cb9836105d5565b01610cc58282546126c6565b9055610ccf6105e5565b54151580610f56575b610ceb575b601e54604051908152602090f35b159283159283610f48575b610d4c610d3d610d07600354610490565b60405190610d2f82610d2189602083019190602083019252565b03601f198101845283612106565b610d37613da3565b90615ace565b60208082518301019101613dd3565b93909492919a610d5e601d548861269d565b60843511918215610f3b575b5081610f32575b50610d80575b50505050610cdd565b600080516020615d4083398151915299610e8f9760009015610f295750610db3610dad610db993856127e8565b9161278e565b906126d3565b965b60009015610f1f5750610dad610dd493610db3926127e8565b945b6002610de1846105d5565b01610ded8682546126c6565b90556003610dfa846105d5565b01610e068782546126c6565b90556001600052603560205280807f8e3caac72b6c5bb0462da38c8c8c3b5fbc00a646bd75367c23c11d594c4e36c95416148015610f0c575b610ee3575b6004600052603560205280807f80eb70dc00a20ebf6b218a7aea19e260b164cf97e49b31f047fca6f74f8ff9ad541614908115610ecf575b50610ea1575b60405194859433866127fb565b0390a138808080808080808080610d77565b610ea961065d565b610eb48682546126c6565b9055610eca610ec586602b546126c6565b602b55565b610e82565b809150610eda610612565b54161438610e7c565b610eeb61062f565b610ef68682546126c6565b9055610f07610ec586602b546126c6565b610e44565b508080610f17610612565b541614610e3f565b9250505094610dd6565b91505096610dbb565b90501538610d71565b601e541015915038610d6a565b610f5182613f30565b610cf6565b50811515610cd8565b506005546001600160a01b03163314610c91565b60c03660031901126103645760048035610f8c8161049c565b6044356064359260843560a43591610fa26158c0565b1561136d57610fb033615932565b8015611359575b1561133a5760175460ff81166113495760081c60ff161561126e57610fda61282d565b610fe383612850565b610ff3610fef86615932565b1590565b61133a5761100b611006603654856126d3565b602955565b6029546110178161068b565b5460375411801590611324575b611314576110319061068b565b805460010190556065821495861561130d5761105c611057611057611057600354610490565b610490565b60206040518092631362d6d760e11b825281806110808b8983019190602083019252565b03915afa908115611308576000916112da575b50965b611294575b506019541561127d575b6110b86110b3601954612651565b601955565b611147611141611057611132876110cd61214d565b998b8b528160208c01528860408c01526110f960608c019b60008d526110f460195461069b565b612730565b61112d8c610d218b61110c600154610490565b60405163c85700fb60e01b6020820152968794916024803591908701612762565b615c86565b60208082518301019101612129565b86612702565b84516001600160a01b039061115b90610490565b161561126e575090611252600080516020615d4083398151915293926111976111848751610490565b600361119160195461069b565b01612711565b6111ab6111a688600f546126c6565b600f55565b6111d26111cd6111c56111c0603a54886127e8565b61279f565b6015546126c6565b601555565b6112156111f66111e0613177565b60a06111ed82888d613288565b910151906127e8565b966112066108c2896028546126c6565b61120f856129b5565b51610490565b604080513381526001600160a01b03909216602083015281019490945260608401879052608084019290925260a0830191909152819060c0820190565b0390a161125f6001600d55565b61055460405192839283610574565b60405163baf3f0f760e01b8152fd5b61128683601b55565b61128f83601c55565b6110a5565b60185490876112a383836126c6565b106112c957876112b96112c3936112be936126c6565b61269d565b601855565b3861109b565b60405163baf3f0f760e01b81528390fd5b6112fb915060203d8111611301575b6112f38183612106565b8101906126f3565b38611093565b503d6112e9565b612141565b8096611096565b50604051633204506f60e01b8152fd5b5060385485108061102457506039548511611024565b60405163ea8e4eb560e01b8152fd5b5060405163baf3f0f760e01b8152fd5b506005546001600160a01b03163314610fb7565b604051634ee2123760e11b8152fd5b34610364576020366003190112610364576004356113998161049c565b6113a16158c0565b156103ed576113af33615932565b80156113c4575b156103c757610016906159f0565b506005546001600160a01b031633146113b6565b34610364576000366003190112610364576001546040516001600160a01b039091168152602090f35b34610364576000366003190112610364576020601e54604051908152f35b34610364576000366003190112610364576020601954604051908152f35b60403660031901126103645760ff601754166114c45761145b6158c0565b156103ed5761146933615932565b80156114b0575b156103c75761147d61282d565b61055461148e602435600435612b5d565b6001600d55604080519384526020840192909252908201529081906060820190565b506005546001600160a01b03163314611470565b60405163baf3f0f760e01b8152600490fd5b3461036457600036600319011261036457602061153860018060a01b0360065416604051611503816120b4565b601381527267657464656c656761746f72436f756e74282960681b848201526040519161152f836120cf565b60008352615bdb565b604051908152f35b6040806003193601126103645760049081359160243560ff601754166119125761156861282d565b6115706159b3565b90601b5461157e82826126c6565b83111561190a5761158f92506126c6565b915b6115a0611006603654856126d3565b6115ab60295461068b565b54603754116118fd576115bd83612850565b6115d1611057611057611057600354610490565b8151637bd4bc1f60e11b815283810186815260209392919084908290819083010381855afa908115611308576000916118e0575b5034036118d0579060c0849282519586809263d0bb2ddf60e01b82525afa801561130857600094858096819782938395611894575b5081151580611882575b6117a0575b5050508015158061178e575b611695575b61168b876116866116818b61167961167434600e546126c6565b600e55565b6012546126c6565b601255565b6129b5565b6100166001600d55565b936116b56116f59392610db36116af84999b9798346127e8565b916127bc565b80956116c1828b615a6e565b6116d5611057611057611057600354610490565b8451634205de0f60e11b8152918201928352909485928391829160200190565b03915afa80156113085761168b978761168196600080516020615d408339815191529561168699600095611769575b505093513381526001600160a01b039092166020830152604082019290925260608101929092526080820152606f60a08201528060c081015b0390a19338808061165a565b61175d949550908161178692903d10611301576112f38183612106565b939238611724565b506001600160a01b0386161515611655565b610db36116af6117b093346127e8565b906117bb8282615a6e565b6117cf611057611057611057600354610490565b908786518093634205de0f60e11b825281806117f2888d83019190602083019252565b03915afa91821561130857600080516020615d40833981519152938b9160009461185d575b5087513381526001600160a01b039093166020840152604083019390935260608201929092526080810191909152606e60a08201528060c081015b0390a1388080611649565b6118529291945061187a908b3d8d11611301576112f38183612106565b939091611817565b506001600160a01b0383161515611644565b9450505050506118bc91945060c03d81116118c9575b6118b48183612106565b810190612efa565b919794919390923861163a565b503d6118aa565b8151633204506f60e01b81528490fd5b6118f79150843d8611611301576112f38183612106565b38611605565b51633204506f60e01b8152fd5b505091611591565b50905163baf3f0f760e01b8152fd5b346103645760a03660031901126103645760043561193e8161049c565b6024359061194b8261049c565b6064359161195883610834565b60405163ab6e844f60e01b81526001600160a01b039083821690602081600481855afa8015611308578391600091611a22575b501633036103c75715908115611a17575b506114c4576119ad6119ba92615289565b6119b56123f4565b6159f0565b6119c5604435601a55565b6119d8575b6084356119d56105e5565b55005b6119e86119e36159b3565b601d55565b6119f3601d54601b55565b6119fe601d54601c55565b611a1261010061ff00196017541617601755565b6119ca565b90508116153861199c565b611a43915060203d8111611a49575b611a3b8183612106565b810190612129565b3861198b565b503d611a31565b34610364576000366003190112610364576020601c54604051908152f35b3461036457600036600319011261036457610016613e29565b34610364576020366003190112610364576020611aae600435611aa98161049c565b615932565b6040519015158152f35b34610364576000366003190112610364576020601a54604051908152f35b3461036457602036600319011261036457600435611af26158c0565b156103ed576005546001600160a01b031633036103c75760009060046020611b1d6110578554610490565b6040516311be646b60e21b815292839182905afa80156113085783808481949382948391611ba0575b505af1611b51615a3e565b5015610558577fcdcc745fe377b103b45fa0cec23ae3ef93d6fc6a84a01f0d18c40b354dd1d5d8611b9a611b89611057600b54610490565b604051938452929081906020820190565b0390a280f35b611bb8915060203d8111611a4957611a3b8183612106565b38611b46565b3461036457602036600319011261036457611bd76146d3565b50611be06159b3565b601b549060043582018092116108f95761030091611c069181811115611d185750614a8c565b611d1660405191805183526020810151602084015260408101516040840152606081015160608401526080810151608084015260a081015160a084015260c081015160c084015260e081015160e0840152610100808201519084015261012080820151908401526101408082015190840152610160808201519084015261018080820151908401526101a080820151908401526101c080820151908401526101e0808201519084015261020080820151908401526102208082015190840152610240808201519084015261026080820151908401526102808082015190840152611cfa6102a0808301519085019015159052565b6102c0818101511515908401526102e090810151151590830152565bf35b9050614a8c565b34610364576000366003190112610364576020602954604051908152f35b34610364576020366003190112610364576020611d64600435611d5f8161049c565b615d08565b6040516001600160a01b039091168152f35b3461036457604036600319011261036457602435611d9381610834565b611d9b6158c0565b156103ed57611da933615932565b8015611e58575b156103c757611dbd6159b3565b906000916004358352603560205260408320805492831590811591611e50575b81611e30575b50611dec578380f35b600160401b831015611e2b5782611e0b916001611e24950181556125a3565b90919082549060031b91821b91600019901b1916179055565b3880808380f35b612083565b159050611e475760ff845b16600184161438611de3565b60ff6001611e3b565b905080611ddd565b506005546001600160a01b03163314611db0565b602036600319011261036457611e806158c0565b156103ed57611e8e33615932565b8015611eb4575b156103c757611ea261282d565b611ead600435612f90565b6001600d55005b506005546001600160a01b03163314611e95565b346103645760203660031901126103645761055460408060608151611eec81612099565b6000918183809352826020820152828582015201526004358152603460205220906003815192611f1b84612099565b805484526001810154602085015260028101548385015201546060830152519182918291909160608060808301948051845260208101516020850152604081015160408501520151910152565b3461036457602080600319360112610364576105549060043590611f8b8261049c565b6006546040516001600160a01b0393841683820152828152921691611feb90611fb3816120b4565b604051611fbf816120b4565b6018815277697364656c656761746f724e6f646528616464726573732960401b84820152600094615af9565b919080612025575b61200c575b505060405190151581529081906020820190565b61201e925080825183010191016158ab565b3880611ff8565b5080825114611ff3565b34610364576000366003190112610364576020611aae6158c0565b34610364576000366003190112610364576020602854604051908152f35b346103645760003660031901126103645760206115386159b3565b634e487b7160e01b600052604160045260246000fd5b608081019081106001600160401b03821117611e2b57604052565b604081019081106001600160401b03821117611e2b57604052565b602081019081106001600160401b03821117611e2b57604052565b61010081019081106001600160401b03821117611e2b57604052565b601f909101601f19168101906001600160401b03821190821017611e2b57604052565b90816020910312610364575161213e8161049c565b90565b6040513d6000823e3d90fd5b6040519061215a82612099565b565b6040519061016082016001600160401b03811183821017611e2b57604052565b6040519061030082016001600160401b03811183821017611e2b57604052565b604051906102c082016001600160401b03811183821017611e2b57604052565b6040519060e082016001600160401b03811183821017611e2b57604052565b6001600160401b038111611e2b57601f01601f191660200190565b60405190612203826120cf565b60008252565b60405190612216826120b4565b600f82526e6d696e744379636c6544617973282960881b6020830152565b60405190612241826120b4565b60128252716d61784d696e74735065724379636c65282960701b6020830152565b6040519061226f826120b4565b600c82526b6d696e4d696e74517479282960a01b6020830152565b60405190612297826120b4565b600c82526b6d61784d696e74517479282960a01b6020830152565b604051906122bf826120b4565b600f82526e6d696e74466565506572517479282960881b6020830152565b604051906122ea826120b4565b601082526f65616368636c61696d4379636c65282960801b6020830152565b60405190612316826120b4565b601082526f6d696e436c61696d506572446179282960801b6020830152565b60405190612342826120b4565b601082526f6d6178436c61696d506572446179282960801b6020830152565b6040519061236e826120b4565b60168252756d6178476c6f62616c436c61696d506572446179282960501b6020830152565b604051906123a0826120b4565b600982526863617070696e67282960b81b6020830152565b519061215a82610834565b919082608091031261036457815191602081015191606060408301516123e881610834565b92015161213e81610834565b6123fc61550d565b61215a61258361258861256a61255161254261252c600361243e6124396124238354610490565b61242b612209565b6124336121f6565b91615bdb565b603655565b61245b61245661244e8354610490565b61242b612234565b603755565b61247861247361246b8354610490565b61242b612262565b603855565b6124956124906124888354610490565b61242b61228a565b603955565b6124b26124ad6124a58354610490565b61242b6122b2565b603a55565b6124cf6124ca6124c28354610490565b61242b6122dd565b603b55565b6124ec6124e76124df8354610490565b61242b612309565b603c55565b6125096125046124fc8354610490565b61242b612335565b603d55565b6125266125216125198354610490565b61242b612361565b603e55565b54610490565b612534612393565b61253c6121f6565b91615ace565b602080825183010191016123c3565b9592959390919360ff8019604154169115151617604155565b61ff0060415491151560081b169061ff00191617604155565b604055565b603f55565b634e487b7160e01b600052603260045260246000fd5b80548210156105b75760005260206000200190600090565b6103e76000526035602052600080516020615d60833981519152805492831580159190612633575b81612612575b506125f357505050565b600160401b831015611e2b5782611e0b91600161215a950181556125a3565b15905061262a5760ff60005b166001841614386125e9565b60ff600161261e565b9050806125e3565b634e487b7160e01b600052601160045260246000fd5b60001981146108f95760010190565b6802b5e3af16b187ffff198101919082116108f957565b683635c9adc5de9fffff198101919082116108f957565b6000198101919082116108f957565b919082039182116108f957565b90600182018092116108f957565b60470190816047116108f957565b919082018092116108f957565b81156126dd570490565b634e487b7160e01b600052601260045260246000fd5b90816020910312610364575190565b6001600160a01b039091169052565b80546001600160a01b0319166001600160a01b03909216919091179055565b600361215a92805183556020810151600184015560408101516002840155606060018060a01b03910151169101612711565b9192608093969594919660a084019760018060a01b031684526020840152604083015260608201520152565b90816064029160648304036108f957565b90670de0b6b3a7640000918281029281840414901517156108f957565b906064820291808304606414901517156108f957565b906019820291808304601914901517156108f957565b818102929181159184041417156108f957565b919260a093969594919660c0840197600180871b03168452600060208501526040840152606083015260808201520152565b6002600d541461283e576002600d55565b604051633ee5aeb560e01b8152600490fd5b60018061285b610612565b54160361291d576028546114c457600f54601154601454601554600e54601254604080519687526020870195909552938501929092526060840152608083015260a082015260c08101919091527fb359d8408cffc6b8788774a87b59f0d5be825576ea5fdd7b0917fed6a07e80309060e090a16128d86000600f55565b6128e26000601155565b6128ec6000601455565b6128f66000601555565b6129006000600e55565b61290a6000601255565b61215a612918603254612651565b603255565b50565b9061215a91805182526020810151602083015260408101516040830152606081015160608301526080810151608083015260a081015160a083015260c081015160c083015260e081015160e083015261010080820151908301526101208082015190830152612999610140808301519084019015159052565b61016081810151151590830152610180809101519101906107cd565b6129bd612ac7565b604051622adcd760e31b8152906129d8906004830190612920565b60e0816101a48173__$e1247df8a8a3e3350a56478f11053bf229$__5af490811561130857600091612a0f575b5061215a916125bb565b9060e0823d8211612a4d575b81612a2860e09383612106565b81010312612a4a57509060c061215a920151612a4381610834565b9091612a05565b80fd5b3d9150612a1b565b604051906101a082016001600160401b03811183821017611e2b57604052816101806000918281528260208201528260408201528260608201528260808201528260a08201528260c08201528260e0820152826101008201528261012082015282610140820152826101608201520152565b612acf612a55565b906000825260006020830152600f546040830152600e546060830152601554608083015260125460a083015260115460c083015260145460e0830152603f54610100830152604054610120830152612b4560ff604154612b3a828260081c1661014087019015159052565b161515610160840152565b61215a612b53600354610490565b6101808401612702565b919091600091600092838493861561055857601754612b809060081c60ff161590565b8015612ee3575b612ed757612b9790601b546126c6565b80871015612ece5750612ba986614113565b600180612bb4610612565b541603612dba575050602c5493602d5493612bd46108c28660285461269d565b612bdd82601c55565b60165480612d8b575b50612bfb611057611057611057600354610490565b60408051634205de0f60e11b808252600482018a9052949192602092918381602481855afa968715611308578b97612c8e928891612d6e575b508651338152600060208201526040810191909152606081019890985260808801849052606b60a0890152600080516020615d4083398151915297889060c090a1848b875180948192858352600483019190602083019252565b0381865afa8015611308578b899187948a91612d51575b508851338152600060208201526040810191909152606081019190915260808101869052606c60a082015260c090a18551908152600481018a905291829060249082905afa92831561130857889593612d2e575b5050915133815260006020820152604081019190915260608101929092526080820152606d60a08201528060c081015b0390a1565b612d2993509081612d4a92903d10611301576112f38183612106565b9138612cf9565b612d689150853d8711611301576112f38183612106565b38612ca5565b612d859150863d8811611301576112f38183612106565b38612c34565b612d9d9194506108c29060285461269d565b60165492612dab6000601655565b612db482601c55565b38612be6565b93603e95919554612dd5611057611057611057600454610490565b604051633cf29c4960e21b8152600481018590529190602090839060249082905afa918215611308578392612eae575b5011612e11575b612bdd565b94509250602c5492612e26602d5480956126c6565b603c549095908610612ea357603d54808711612e9b575b50858511612e8b57612e82612e7d612e658780995b6112b9612e6083809c61269d565b602d55565b612e756108c2829a60285461269d565b602c5461269d565b602c55565b612e0c82601c55565b612e82612e7d612e658880612e52565b955038612e3d565b945084935083612bdd565b612ec791925060203d8111611301576112f38183612106565b9038612e05565b612ba990614113565b50505092505080918190565b50612ef3603b54601c54906126c6565b8710612b87565b91908260c0910312610364578151612f118161049c565b916020810151916040820151916060810151612f2c8161049c565b9160a0608083015192015190565b60405190612f47826120b4565b601382527255736572546f496e737428616464726573732960681b6020830152565b60405190612f76826120b4565b600b82526a6d696e74436f756e74282960a81b6020830152565b60175460081c60ff1661291d576004906020612fb0611057600054610490565b60405163111ea8c160e21b815293849182905afa91821561130857600092613124575b50600191613015612ff9613007612fea8654610490565b604051928391602083016107da565b03601f198101835282612106565b61300f612f3a565b83615b90565b6001600160a01b038116156130ff576005831161055857613046613037612f69565b61303f6121f6565b9083615bdb565b926019928354918261305881836126c6565b8711156130f657613068916126c6565b915b156130e6575b508461307a613177565b955b6130c8575b50505081925054149081156130bf575b5061309857565b6130a0613e29565b6130ab601b54601c55565b61215a61010061ff00196017541617601755565b90501538613091565b81845410156130e1576130db8684613aeb565b8061307c565b613081565b6130f090836135db565b38613070565b5050849161306a565b5050505061310e6119e36159b3565b613119601d54601b55565b6130ab601d54601c55565b61313d91925060203d8111611a4957611a3b8183612106565b9038612fd3565b908160e09103126103645780519160208201519160408101519160608201519160808101519160c060a083015192015190565b6040519060c082016001600160401b03811183821017611e2b576040526000808352602083019281845260408101918083526060820194818652608083019382855260a08401908382526004859860e06131db611057611057611057600354610490565b604051938480926316f0115b851b82525afa958615611308578098819782968395849261320c575b50525252525252565b949950965050985050613236915060e03d811161324c575b61322e8183612106565b810190613144565b9399949b9297919590509a989694929038613203565b503d613224565b919091600083820193841291129080158216911516176108f957565b818103929160001380158285131691841216176108f957565b61329d6132a8919493946020860151906127e8565b6060850151906127e8565b906132bc60408501516080860151906127e8565b612710908181029181830414901517156108f9576132e06132fa91613337946126d3565b946133086132ef6032546106ab565b6132fa8351866126c6565b600052602052604060002090565b613313878254613253565b905560a061332e6133256032546106ab565b948351906126c6565b910151906126c6565b61334283825461326f565b9055565b60405190613353826120b4565b6017825276676574557365724f6c644461746128616464726573732960481b6020830152565b90816101609103126103645761338d61215c565b90805182526020810151602083015260408101516040830152606081015160608301526080810151608083015260a081015160a083015260c081015160c083015260e081015160e0830152610100808201519083015261012080820151908301526133fc6101408092016123b8565b9082015290565b60405190613410826120b4565b600a825269647261776e616765282960b01b6020830152565b60405190613436826120b4565b600c82526b4c53422875696e743235362960a01b6020830152565b6040519061345e826120b4565b6007825266626f6e7573282960c81b6020830152565b60405190613481826120b4565b600682526563616765282960d01b6020830152565b604051906134a3826120b4565b60188252776765744e6f64654c766c446570746828616464726573732960401b6020830152565b6001600160a01b039091168152602081019190915260400190565b9190826040910312610364576020825192015190565b60405190613508826120b4565b601e82527f6765746e6f6465526e6b41676528616464726573732c75696e743235362900006020830152565b60088110156105b75760200190600090565b60405190613553826120b4565b601082526f6765744e6f646528616464726573732960801b6020830152565b908160a091031261036457805191602082015161358e8161049c565b91604081015191608060608301516123e881610834565b604051906135b2826120b4565b601a82527977697468647261776e496e636f6d654f6628616464726573732960301b6020830152565b9190916135e9600a54610490565b926001906135f78254610490565b9060409361363c61362e8651806136126020978883016107da565b0399613626601f199b8c8101845283612106565b610d37613346565b848082518301019101613379565b61364d610fef610140830151151590565b613a1557805161365b61062f565b5583810180516136696106bb565b556137346108a8888401805161367d6106e9565b5561372c6060860191825161369061065d565b5561372c608088019687516136a3610717565b5560a089019889516136b3610745565b556136c2610100820151602e55565b6136d0610120820151602f55565b6136dd60c0820151602855565b6137166137116137096137096137016136f986518851906126c6565b8951906126c6565b8a51906126c6565b8c51906126c6565b601055565b61372360e0820151601355565b519051906126c6565b9051906126c6565b51613a02575b516139ef575b61376261375d61374e613403565b6137566121f6565b9084615bdb565b601b55565b601b546137b761379c875161378e81613782868a83019190602083019252565b038c8101835282612106565b613796613429565b85615c17565b916137a86032546106ab565b90600052602052604060002090565b556137c66112be61374e613451565b6137d46119e361374e613474565b61380385516137f5816137e9858883016107da565b038a8101835282612106565b6137fd613496565b84615bdb565b60005b81811061393557505061387d61386f61385b60049899946138676138949561383d6111cd6111c08c6138366105e5565b01546127d2565b61384e6138486105e5565b54600f55565b8a519384918a83016107da565b03878101845283612106565b610d37613546565b848082518301019101613572565b935050505060ff8019601754169115151617601755565b816138a3611057600054610490565b85516318c9774160e21b815296879182905afa918215611308576139019560009361390c575b506138e76138db6138f3949554610490565b955195869283016107da565b03908101845283612106565b6138fb6135a5565b90615bdb565b613909610773565b55565b6138f393506138db61392d6138e792843d8611611a4957611a3b8183612106565b9450506138c9565b6139af906139806139728951632994ed6560e11b8982015261396c8d82613960878b602484016134ca565b03908101835282612106565b87615c86565b8780825183010191016134e5565b9061398a836105d5565b5587613995836105d5565b0155858885838d600882106139b4575b5050505050612651565b613806565b6139e5946139606139ce936139dc965195869384016134ca565b6139d66134fb565b88615bdb565b611e0b83613534565b858885838d6139a5565b6139fd6108b5601454612677565b613740565b613a106108b5601354612660565b61373a565b855163ea8e4eb560e01b8152600490fd5b60405190613a33826120b4565b600e82526d6d696e74732875696e743235362960901b6020830152565b60405190613a5d826120b4565b600b82526a6d696e746564416765282960a81b6020830152565b60405190613a84826120b4565b600b82526a6d696e746564717479282960a81b6020830152565b60405190613aab826120b4565b600c82526b6964732875696e743235362960a01b6020830152565b60405190613ad3826120b4565b60098252686d696e74416d74282960b81b6020830152565b919091601992613aff6110b3855460010190565b60008052602a6020527f25a1a901705ed15d5376e82511cff743d9474883c82d145cebcc7811e0424a9c613b338154612651565b905583546040805160208082018490528082529196601f19959091613b6a91613b5c8a83612106565b613b64613a26565b90615b90565b91613b85613b76613a50565b613b7e6121f6565b9085615bdb565b93613c21613ba3613b94613a77565b613b9c6121f6565b9087615bdb565b97613bd28b51613bca81613bbe888201906000602083019252565b03848101835282612106565b6139d6613a9e565b92848c613bef613be0613ac6565b613be86121f6565b908b615bdb565b98613c07613c01611057600054610490565b91615d08565b915180809781946333ea87db60e21b8352600483016107da565b03915afa92831561130857600093613d84575b50613c41610fef84615932565b613d735792613cba949261112d613cad938e6138e78c8f8d908260028f613c86906110579f613c70879161069b565b55846001613c7e835461069b565b01555461069b565b0155613c93600154610490565b945163c85700fb60e01b8c82015298899560248701612762565b8051810182019101612129565b936001600160a01b03851615613d625796600182613cfe600080516020615d40833981519152999a613cf7896003611191612d299b9a995461069b565b8686613288565b50541480613d57575b613d49575b513381526001600160a01b039094166020850152604084019490945260608301939093526080820192909252600060a082015290819060c0820190565b613d5283601b55565b613d0c565b5082601b5410613d07565b875163baf3f0f760e01b8152600490fd5b8b5163ea8e4eb560e01b8152600490fd5b613d9c919350853d8711611a4957611a3b8183612106565b9138613c34565b60405190613db0826120b4565b60148252736c6576656c436c617573652875696e743235362960601b6020830152565b908160a0910312610364578051916020820151916040810151916080606083015192015190565b60405190613e07826120b4565b601382527272616e6b436c617573652875696e743235362960681b6020830152565b613e316159b3565b600190815b60088110613e4357505050565b613edc90613e88613e55600354610490565b613e7b604051602092613e7382610d21888783019190602083019252565b610d37613dfa565b8051810182019101613dd3565b50505090601f5410159081613f1a575b5080613f07575b15613eea57613eba613eb082613534565b90549060031b1c90565b15613ee157613ed7613ece613eb083613534565b6139dc83601e55565b612651565b613e36565b613ed783613ece565b613ed7613ef682613534565b8154906000199060031b1b19169055565b50601e54613f148261268e565b14613e9f565b905084613f26836105d5565b0154101538613e98565b601e90613f3d82546126aa565b60088110613f4a57505050565b613f55600354610490565b613f78604091613e7b8351602092613e7382610d21898783019190602083019252565b505050918315801590614017575b80614007575b613ff7575090613fb39291601f5410159081613fe0575b5080613fce575b613fb857612651565b613f3d565b613fc181601e55565b613ed783611e0b83613534565b508354613fda8261268e565b14613faa565b90506001613fed836105d5565b0154101538613fa3565b5163baf3f0f760e01b8152600490fd5b50811580613f8c57508215613f8c565b506001613f86565b909190600083156140b45750614036601e546126aa565b831561410857600881105b1561410257614051600354610490565b614074604091613e7b8351602092613e7382610d21898783019190602083019252565b5050509183158015906140fb575b806140eb575b613ff75750906140b49291601f54101590816140d4575b5085156140c657806140b957613fb857612651565b614036565b50601e54613fda8261268e565b15613eea57613ed781601e55565b905060016140e1836105d5565b015410153861409f565b5081158061408857508215614088565b5086614082565b50509050565b601e54811115614041565b61411c81614a8c565b90614173612e7d61416b61416061415561414a61413f885160208a0151906126c6565b6060890151906126c6565b6080880151906126c6565b60a0870151906126c6565b60c0860151906126c6565b602c546126c6565b6141e0610ec56141d86141cc6141c06141b46141a861419c60e08a01516101008b0151906126c6565b6101208a0151906126c6565b610140890151906126c6565b610160880151906126c6565b610180870151906126c6565b6101a0860151906126c6565b602b546126c6565b6141f3612e606040840151602d546126c6565b61420c6142076101208401516016546126c6565b601655565b61421c825160e0840151906126c6565b614227610bca61062f565b905561423d6020830151610100840151906126c6565b614248610bca6106bb565b905561425e6040830151610120840151906126c6565b614269610bca6106e9565b905561427f6060830151610140840151906126c6565b61428a610bca61065d565b90556142a06080830151610160840151906126c6565b6142ab610bca610773565b90556142c160a0830151610180840151906126c6565b6142cc610bca610717565b90556142e260c08301516101a0840151906126c6565b6142ed610bca610745565b905560005b600781106145a957506101c082015161431b614313836137a86032546106ab565b918254613253565b905561432681601b55565b61438d61438161437561436961435e614353614348885160208a0151906126c6565b6040890151906126c6565b6060880151906126c6565b60e0870151906126c6565b610100860151906126c6565b610120850151906126c6565b610140840151906126c6565b806000811561459c5750506143ac611057611057611057600354610490565b604051634205de0f60e11b81526004810183905290602090829060249082905afa8015611308578261446c916144909360009161457d575b505b6143f56108b5826014546126c6565b6144046108a8836011546126c6565b604080513381526000602082015290810191909152606081019490945260808401859052604e60a0850152600080516020615d4083398151915293849060c090a161446661445b608088015160a0890151906126c6565b60c0880151906126c6565b906126c6565b614466614484610160870151610180880151906126c6565b6101a0870151906126c6565b926000841561456b57506144ae611057611057611057600354610490565b604051634205de0f60e11b8152600481018690529190602090839060249082905afa9283156113085761215a95614546946102a09460009161454c575b505b6145016144fc826013546126c6565b601355565b614510613711836010546126c6565b604080513381526000602082015290810191909152606081019190915260808101869052604f60a082015260c090a10151151590565b906125bb565b614565915060203d602011611301576112f38183612106565b386144eb565b906145469261215a956102a0936144ed565b614596915060203d602011611301576112f38183612106565b386143e4565b6144909161446c916143e6565b600190806145ec57600080516020615d40833981519152845160e0860151905b6145e36145d5856126b8565b8760405194859433866127fb565b0390a1016142f2565b80820361461357600080516020615d408339815191526020850151610100860151906145c9565b6002810361463b57600080516020615d408339815191526040850151610120860151906145c9565b6003810361466357600080516020615d408339815191526060850151610140860151906145c9565b6004810361468b57600080516020615d408339815191526080850151610160860151906145c9565b600581036146b357600080516020615d4083398151915260a0850151610180860151906145c9565b600080516020615d4083398151915260c08501516101a0860151906145c9565b6146db61217c565b9060008083528060208401528060408401528060608401528060808401528060a08401528060c08401528060e08401528061010084015280610120840152806101408401528061016084015280610180840152806101a0840152806101c0840152806101e08401528061020084015280610220840152806102408401528061026084015280610280840152806102a0840152806102c08401526102e0830152565b90816103009103126103645761479061217c565b90805182526020810151602083015260408101516040830152606081015160608301526080810151608083015260a081015160a083015260c081015160c083015260e081015160e0830152610100808201519083015261012080820151908301526101408082015190830152610160808201519083015261018080820151908301526101a080820151908301526101c080820151908301526101e08082015190830152610200808201519083015261022080820151908301526102408082015190830152610260808201519083015261028080820151908301526102a06148788183016123b8565b908301526102c061488a8183016123b8565b908301526133fc6102e08092016123b8565b6000915b600883106148ad57505050565b6001908251815260208091019201920191906148a0565b906080604061215a936148e284825160208091805184520151910152565b6148fd60208201518386019060208091805184520151910152565b015191019060208091805184520151910152565b90815180825260208080930193019160005b828110614931575050505090565b835185529381019392810192600101614923565b6105e08161213e936020825280516020830152602081015160408301526040810151606083015261497e6060820151608084019061489c565b614a7b82614a6d608084015161499b610180918285019015159052565b60a08501516101a0908185015260c08601516101c0908186015260e08701516101e09081870152610100880151906102009182880152610120890151926149e861022094858a01906107cd565b6101408a0151946149ff61024096878b01906107cd565b614a286101608c015197614a19610260998a8d01906107cd565b8c0151610280809b01906107cd565b8a01516102a0809c01528901516102c08d01528801516102e08c01528701516103008b01528601516103208a0152850151610340890152840151610360880190612920565b8201516105008601906148c4565b0151916105c0808201520190614911565b614a946146d3565b50614a9d614dce565b614aa8600354610490565b6040516395bf75fd60e01b8152909260c0826004816001600160a01b0388165afa801561130857614ca294614af0614b6492614c7d95600091614cf4575b5015156080870152565b614af8615101565b9060a087019060c088019283528152614b1a614b1261062f565b54825161269d565b9052614b27614b1261065d565b9052828552601b546020860152601e546040860152614b44614ed4565b606086015260285460e0860152602d546101008601526101208501612702565b614b7c614b72600454610490565b6101408501612702565b614b94614b8a600954610490565b6101608501612702565b614bac614ba2600154610490565b6101808501612702565b614bb4610773565b546101a0840152614bc3610717565b546101c0840152614bd2610745565b546101e08401527fa08b36b7ba7f4defefa1c8f3c69a108432bbe4655c8244397472448770784778546102008401527f8c201e80a21b907aa5b47fe57132b3746ed081b3b8b146bb189ca4224d85a0c354610220840152600760005260356020527f4cdc807314a0b9d33865fa60bdf0631878a9fab6f09e457a18b589bf84168f6c54610240840152614c63612ac7565b610260840152614c7281614f34565b6102a0840152614fce565b610280820152604051906394e6d3bb60e01b8252818061030094859360048301614945565b038173__$e1247df8a8a3e3350a56478f11053bf229$__5af491821561130857600092614cce57505090565b61213e9250803d10614ced575b614ce58183612106565b81019061477c565b503d614cdb565b614d15915060c03d8111614d21575b614d0d8183612106565b810190614e7f565b94505050505038614ae6565b503d614d03565b60405190614d35826120ea565b610100368337565b6040519060e082016001600160401b03811183821017611e2b5760405260e0368337565b60408051919082016001600160401b03811183821017611e2b5760405260006020838281520152565b60405190606082016001600160401b03811183821017611e2b5760405281614db0614d61565b8152614dba614d61565b60208201526040614dc9614d61565b910152565b614dd661219c565b906000808352806020840152806040840152614df0614d28565b60608401528060808401528060a08401528060c08401528060e08401528061010084015280610120840152806101408401528061016084015280610180840152806101a0840152806101c0840152806101e08401528061020084015280610220840152610240830152614e61612a55565b610260830152614e6f614d8a565b61028083015260606102a0830152565b91908260c0910312610364578151614e9681610834565b916020810151614ea581610834565b916040820151614eb481610834565b916060810151614ec381610834565b9160a060808301516123e881610834565b604051906020600081845b60088310614ef4575050505061215a826120ea565b60018281928654815201940192019192614edf565b6001600160401b038111611e2b5760051b60200190565b80518210156105b75760209160051b010190565b90601b548083039283116108f957614f4b83614f09565b92604093614f5b85519182612106565b818152601f19614f6a83614f09565b01946020953687840137819560009081603254905b868110614f90575050505050505050565b818452603383528484209080890191828a116108f957600192614fbc9190600052602052604060002090565b54614fc78289614f20565b5201614f7f565b90615007614fda614d8a565b92614fe481615015565b855190602082015252614ff68161508b565b6020860151906020820152526150c6565b604084015190602082015252565b906103e760005260356020526040600020805490811561508557600182161593841561507c5760ff60025b1683038381116108f95761505490836125a3565b90549060031b1c946000146150765750615070613eb09261268e565b906125a3565b91505090565b60ff6001615040565b50508190565b90600260005260356020526040600020805490811561508557600182161593841561507c5760011983018381116108f95761505490836125a3565b90600360005260356020526040600020805490811561508557600182161593841561507c5760011983018381116108f95761505490836125a3565b600090816001815b600f82111561512e575050602e5481018091116108f95761213e9092602f54906126c6565b90938482526034926020938085526040906002828620015483018093116108f95760039295888652528320015481018091116108f95761516e9094612651565b90615109565b9061517d614d3d565b916001811461521c57600281146151d95760031461519757565b90506151a16121bc565b600f548152601554602082015260105460408201526013546060820152600e54608082015260125460a082015260145460c082015290565b5090506151e46121bc565b602c548152602d546020820152602b5460408201526016546060820152602e546080820152602f5460a082015260115460c082015290565b5090506152276121bc565b61522f61062f565b54815261523a6106bb565b5460208201526152486106e9565b54604082015261525661065d565b546060820152615264610773565b546080820152615272610717565b5460a0820152615280610745565b5460c082015290565b6001600160a01b039081169081156152d5576000548260018060a01b0319821617600055167fe939feee179e631422bcc8f6e6d7d908cb3f8af38f5372f17c77e15aea5c80ee600080a3565b60405163e6c4247b60e01b8152600490fd5b6154eb61014061215a926153206152fe8251610490565b600280546001600160a01b0319166001600160a01b0392909216919091179055565b6153526153306020830151610490565b600380546001600160a01b0319166001600160a01b0392909216919091179055565b6153846153626040830151610490565b600480546001600160a01b0319166001600160a01b0392909216919091179055565b6153b66153946060830151610490565b600580546001600160a01b0319166001600160a01b0392909216919091179055565b6153e86153c66080830151610490565b600680546001600160a01b0319166001600160a01b0392909216919091179055565b61541a6153f860a0830151610490565b600780546001600160a01b0319166001600160a01b0392909216919091179055565b61544c61542a60c0830151610490565b600880546001600160a01b0319166001600160a01b0392909216919091179055565b61547e61545c60e0830151610490565b600980546001600160a01b0319166001600160a01b0392909216919091179055565b6154b161548f610100830151610490565b600a80546001600160a01b0319166001600160a01b0392909216919091179055565b6154e46154c2610120830151610490565b600b80546001600160a01b0319166001600160a01b0392909216919091179055565b0151610490565b600c80546001600160a01b0319166001600160a01b0392909216919091179055565b600061551c6110578254610490565b60408051634bf9c0ad60e11b8152929190600490602080868481875afa95861561130857859661588c575b50815163cfbffe5360e01b81529181838581885afa92831561130857869361586d575b50805163ab6e844f60e01b815282818681895afa908115611308578791615850575b508151630536340960e21b8152838187818a5afa908115611308578891615833575b50825163d1f956b160e01b815291848388818b5afa928315611308578993615814575b508351631cc3bfab60e31b815293858589818c5afa948515611308578a956157f5575b50805163e09d394d60e01b81529686888a818d5afa9687156113085789988c986157d6575b5082516314ac1b5960e21b81529881908a90818e5afa988915611308578c996157b7575b5082519963013cf08b60e01b8b52818b8d8180615661868201906000602083019252565b03915afa9a8b15611308578d9b615798575b508351635e09dbe760e01b81529b828d8381845afa9c8d15611308578e9d615777575b508290855192838092635506ee0b60e11b82525afa9c8d15611308579c615758575b506156c161215c565b9c6156cc908e612702565b8c01906156d891612702565b8a01906156e491612702565b6156f19060608a01612702565b6156fe9060808901612702565b61570b9060a08801612702565b6157189060c08701612702565b6157259060e08601612702565b615733906101008501612702565b615741906101208401612702565b61574f906101408301612702565b61215a906152e7565b81615770929d508d3d10611a4957611a3b8183612106565b9a386156b8565b83919d5061579190823d8411611a4957611a3b8183612106565b9c90615696565b6157b0919b50823d8411611a4957611a3b8183612106565b9938615673565b816157cf929a503d8b11611a4957611a3b8183612106565b973861563d565b816157ee9299503d8a11611a4957611a3b8183612106565b9638615619565b61580d919550863d8811611a4957611a3b8183612106565b93386155f4565b61582c919350853d8711611a4957611a3b8183612106565b91386155d1565b61584a9150843d8611611a4957611a3b8183612106565b386155ae565b6158679150833d8511611a4957611a3b8183612106565b3861558c565b615885919350823d8411611a4957611a3b8183612106565b913861556a565b816158a49297503d8811611a4957611a3b8183612106565b9438615547565b90816020910312610364575161213e81610834565b600254604051615908916001600160a01b0316906158dd816120b4565b6008815267697353616665282960c01b6020820152604051916158ff836120cf565b60008352615af9565b9080615927575b15610558578060208061213e935183010191016158ab565b50602081511461590f565b61598c60018060a01b038060025416604051916020941684830152838252615959826120b4565b60405190615966826120b4565b601582527469735365637572654261736528616464726573732960581b85830152615af9565b90806159a9575b15610558578161213e92825183010191016158ab565b5081815114615993565b60035460405161213e916001600160a01b0316906159d0816120b4565b600681526569416765282960d01b60208201526040519161152f836120cf565b6001600160a01b039081169081156152d557600180546001600160a01b031981168417909155167f8292fce18fa69edf4db7b94ea2e58241df0ae57f97e0a6c9b29067028bf92d76600080a3565b3d15615a69573d90615a4f826121db565b91615a5d6040519384612106565b82523d6000602084013e565b606090565b908015615aca576001600160a01b0382169182156152d557600080808481945af1615a97615a3e565b50156105585760207fcec1f18c3ab8ddaaa107a1591e3c369667eec613626611a8deaedef43069fcdd91604051908152a2565b5050565b90615ad99291615af9565b9060009015615ae6575090565b6040519150615af4826120cf565b815290565b9190823b15615b77578051906020918263ffffffff60e01b92012016916040519180830193845281519160005b838110615b63575050509181615b5360248260009795968897018783820152036004810184520182612106565b51915afa615b5f615a3e565b9091565b818101830151858201602401528201615b26565b505050600090604051615b89816120cf565b6000815290565b9291615b9e91600094615af9565b9080615bd0575b615bac5750565b80519192506001600160a01b0391615bcc91602091810182019101612129565b1690565b506020815114615ba5565b9291615be991600094615af9565b9080615c0c575b615bf75750565b61213e919250602080825183010191016126f3565b506020815114615bf0565b9291615c2591600094615af9565b9080615c4a575b615c335750565b909150602081805181010312610364576020015190565b506020815114615c2c565b906020825192015163ffffffff60e01b908181169360048110615c7757505050565b60040360031b82901b16169150565b6001600160a01b038116156152d557600080918351908260208601915af190615cad615a3e565b9115615cb7575090565b805160009190600411615d0257615cce9150615c55565b815115615cde5750805190602001fd5b604051630870274d60e21b81526001600160e01b0319919091166004820152602490fd5b50615cce565b803b6000615d15826121db565b92615d236040519485612106565b82845260208401903c602d8151106114c457602a015160601c9056fe1517c86fcf2bfb8e3468afcc539b0004955da8027797c497ea51d1f1094ab898ecdfbf0bdef04c31b6b583fa641eb3fda9723c1027ee16c0cdd8e9ef0f675d99a2646970667358221220a987fcf4d2011aa112bf11554ec528d4ed49938eb59d0b4210cf30615c03359e64736f6c63430008140033","linkReferences":{"src_19JulyUpdated01Jan/lib/InstanceLib.sol":{"InstanceLib":[{"start":10944,"length":20},{"start":19845,"length":20}]}}},"methodIdentifiers":{"Burn(uint256)":"b90306ad","BurnCoin(uint256,uint256)":"a5d7cda4","LSB(uint256,uint256)":"6f493aad","TVL()":"edaf2d2e","_delegatorCount()":"a1f7f539","_getImplementation(address)":"c54e44b0","_isDelegatorNode(address)":"e01ad5fd","_isSafe()":"e0a9bc2b","_isSecureBase(address)":"af484526","_isSigner(address)":"1f185d16","_txnType107(uint256,uint256)":"a1c25c86","_txnType_101_100(address,uint256,uint256,uint256,uint256,uint256)":"87acdff7","activedirectsCount()":"799e4c45","addLevelnGetRank(uint256,uint256,uint256,uint256,uint256,bool)":"822ffec4","bonus()":"75b4d78c","cage()":"69245009","currentCycle()":"bab2f552","currentLSBversion()":"43a1b5ab","dage()":"725b6fff","getAllComputeData(uint256)":"b9f1a394","getAllData(uint256,uint256)":"12964120","getBalance()":"12065fe0","getHexbase()":"3b9b7955","getNodeLB(uint256)":"da021335","getRankWithAgeValue()":"29ee350e","getToggleAgeCount(uint256)":"143ec3b7","getToggleAgeValue(uint256,uint256)":"043719b4","id()":"af640d0f","importOld(uint256)":"d3abb8a3","isLock()":"09d8da2e","mintCount()":"9659867e","mints(uint256)":"6350b2c2","moveLvlIncome(uint256,uint256,uint256,uint256,bool)":"7b058ac1","owner()":"8da5cb5b","postInit()":"4a65786c","preinit(address,address,uint256,bool,uint256)":"a93491f3","rank()":"934209ce","resetRank()":"ab57c03a","setActivedirect(bool)":"711e5870","setBonus(uint256)":"0b98f975","setLock(bool)":"619d5194","setSuspend(uint256,bool)":"c8ef7b1a","setcapclaim(uint256,uint256,uint256,bool)":"47a09a1d","storcache()":"5ecf6a8a","syncBaseAddr()":"339459a6","systemAge()":"fdc10bc9","updateOwner(address)":"880cdc31","userCycleMintCount(uint256)":"39b4d61b","withdrawlDage()":"a9bf285b"},"id":52}