{"abi":[{"type":"constructor","inputs":[{"name":"_hex","type":"address","internalType":"address"}],"stateMutability":"nonpayable"},{"type":"fallback","stateMutability":"payable"},{"type":"receive","stateMutability":"payable"},{"type":"function","name":"Burn","inputs":[{"name":"amount","type":"uint256","internalType":"uint256"}],"outputs":[],"stateMutability":"nonpayable"},{"type":"function","name":"BurnCoin","inputs":[],"outputs":[],"stateMutability":"payable"},{"type":"function","name":"LSB","inputs":[{"name":"","type":"uint256","internalType":"uint256"}],"outputs":[{"name":"","type":"int256","internalType":"int256"}],"stateMutability":"view"},{"type":"function","name":"_compute","inputs":[{"name":"endage","type":"uint256","internalType":"uint256"}],"outputs":[{"name":"r","type":"tuple","internalType":"struct InstanceStor.ComputeResult","components":[{"name":"p1","type":"uint256","internalType":"uint256"},{"name":"p2","type":"uint256","internalType":"uint256"},{"name":"p3","type":"uint256","internalType":"uint256"},{"name":"p4","type":"uint256","internalType":"uint256"},{"name":"p5","type":"uint256","internalType":"uint256"},{"name":"p6","type":"uint256","internalType":"uint256"},{"name":"p7","type":"uint256","internalType":"uint256"},{"name":"f1","type":"uint256","internalType":"uint256"},{"name":"f2","type":"uint256","internalType":"uint256"},{"name":"f3","type":"uint256","internalType":"uint256"},{"name":"f4","type":"uint256","internalType":"uint256"},{"name":"f5","type":"uint256","internalType":"uint256"},{"name":"f6","type":"uint256","internalType":"uint256"},{"name":"f7","type":"uint256","internalType":"uint256"},{"name":"lsb","type":"int256","internalType":"int256"}]}],"stateMutability":"view"},{"type":"function","name":"_delegatorCount","inputs":[],"outputs":[{"name":"","type":"uint256","internalType":"uint256"}],"stateMutability":"view"},{"type":"function","name":"_getImplementation","inputs":[{"name":"clone","type":"address","internalType":"address"}],"outputs":[{"name":"impl","type":"address","internalType":"address"}],"stateMutability":"view"},{"type":"function","name":"_importOld","inputs":[{"name":"limit","type":"uint256","internalType":"uint256"}],"outputs":[],"stateMutability":"payable"},{"type":"function","name":"_isDelegatorNode","inputs":[{"name":"sender","type":"address","internalType":"address"}],"outputs":[{"name":"","type":"bool","internalType":"bool"}],"stateMutability":"view"},{"type":"function","name":"_isSafe","inputs":[],"outputs":[{"name":"","type":"bool","internalType":"bool"}],"stateMutability":"view"},{"type":"function","name":"_isSecureBase","inputs":[{"name":"sender","type":"address","internalType":"address"}],"outputs":[{"name":"","type":"bool","internalType":"bool"}],"stateMutability":"view"},{"type":"function","name":"_isSigner","inputs":[{"name":"sender","type":"address","internalType":"address"}],"outputs":[{"name":"","type":"bool","internalType":"bool"}],"stateMutability":"view"},{"type":"function","name":"_txnType7","inputs":[{"name":"_maxint","type":"uint256","internalType":"uint256"},{"name":"_ag","type":"uint256","internalType":"uint256"}],"outputs":[{"name":"CALC_INC","type":"uint256[9]","internalType":"uint256[9]"}],"stateMutability":"payable"},{"type":"function","name":"_txnType_1_0","inputs":[{"name":"paramAdd","type":"address","internalType":"address"},{"name":"_id_maxint","type":"uint256","internalType":"uint256"},{"name":"_qty","type":"uint256","internalType":"uint256"},{"name":"_msgValue","type":"uint256","internalType":"uint256"},{"name":"_type","type":"uint256","internalType":"uint256"}],"outputs":[{"name":"_tvl","type":"uint256","internalType":"uint256"},{"name":"_amt","type":"uint256","internalType":"uint256"}],"stateMutability":"payable"},{"type":"function","name":"addLevelnGetRank","inputs":[{"name":"_direct","type":"uint256","internalType":"uint256"},{"name":"_amount","type":"uint256","internalType":"uint256"},{"name":"_qty","type":"uint256","internalType":"uint256"},{"name":"_level","type":"uint256","internalType":"uint256"},{"name":"_epochAge","type":"uint256","internalType":"uint256"},{"name":"_free","type":"uint256","internalType":"uint256"},{"name":"_tobeSkipped","type":"bool","internalType":"bool"}],"outputs":[{"name":"currentrnk","type":"uint256","internalType":"uint256"},{"name":"currentrankage","type":"uint256","internalType":"uint256"}],"stateMutability":"nonpayable"},{"type":"function","name":"bonus","inputs":[],"outputs":[{"name":"","type":"uint256","internalType":"uint256"}],"stateMutability":"view"},{"type":"function","name":"cage","inputs":[],"outputs":[{"name":"","type":"uint256","internalType":"uint256"}],"stateMutability":"view"},{"type":"function","name":"capStatus","inputs":[],"outputs":[{"name":"totalIncome","type":"uint256","internalType":"uint256"},{"name":"threshold","type":"uint256","internalType":"uint256"},{"name":"_cap","type":"bool","internalType":"bool"},{"name":"currentValue","type":"uint256","internalType":"uint256"}],"stateMutability":"view"},{"type":"function","name":"dage","inputs":[],"outputs":[{"name":"","type":"uint256","internalType":"uint256"}],"stateMutability":"view"},{"type":"function","name":"getAllIncome","inputs":[{"name":"typeId","type":"uint256","internalType":"uint256"},{"name":"maxinterwal","type":"uint256","internalType":"uint256"}],"outputs":[{"name":"values","type":"uint256[7]","internalType":"uint256[7]"}],"stateMutability":"view"},{"type":"function","name":"getBalance","inputs":[],"outputs":[{"name":"","type":"uint256","internalType":"uint256"}],"stateMutability":"view"},{"type":"function","name":"getHexbase","inputs":[],"outputs":[{"name":"","type":"address","internalType":"address"}],"stateMutability":"view"},{"type":"function","name":"getNodeLB","inputs":[{"name":"_level","type":"uint256","internalType":"uint256"}],"outputs":[{"name":"","type":"uint256","internalType":"uint256"},{"name":"","type":"uint256","internalType":"uint256"},{"name":"","type":"uint256","internalType":"uint256"},{"name":"","type":"uint256","internalType":"uint256"}],"stateMutability":"view"},{"type":"function","name":"getRankWithAgeValue","inputs":[],"outputs":[{"name":"","type":"uint256","internalType":"uint256"},{"name":"","type":"uint256","internalType":"uint256"}],"stateMutability":"view"},{"type":"function","name":"getToggleAgeCount","inputs":[{"name":"key","type":"uint256","internalType":"uint256"}],"outputs":[{"name":"","type":"uint256","internalType":"uint256"}],"stateMutability":"view"},{"type":"function","name":"getToggleAgeValue","inputs":[{"name":"key","type":"uint256","internalType":"uint256"},{"name":"index","type":"uint256","internalType":"uint256"}],"outputs":[{"name":"","type":"uint256","internalType":"uint256"}],"stateMutability":"view"},{"type":"function","name":"id","inputs":[],"outputs":[{"name":"","type":"uint256","internalType":"uint256"}],"stateMutability":"view"},{"type":"function","name":"isLock","inputs":[],"outputs":[{"name":"","type":"bool","internalType":"bool"}],"stateMutability":"view"},{"type":"function","name":"mintCount","inputs":[],"outputs":[{"name":"","type":"uint256","internalType":"uint256"}],"stateMutability":"view"},{"type":"function","name":"mints","inputs":[{"name":"","type":"uint256","internalType":"uint256"}],"outputs":[{"name":"amt","type":"uint256","internalType":"uint256"},{"name":"qty","type":"uint256","internalType":"uint256"},{"name":"mage","type":"uint256","internalType":"uint256"},{"name":"nft","type":"address","internalType":"address"}],"stateMutability":"view"},{"type":"function","name":"moveLvlIncome","inputs":[{"name":"_direct","type":"uint256","internalType":"uint256"},{"name":"_amount","type":"uint256","internalType":"uint256"},{"name":"_qty","type":"uint256","internalType":"uint256"},{"name":"_level","type":"uint256","internalType":"uint256"},{"name":"_epochAge","type":"uint256","internalType":"uint256"},{"name":"_op","type":"bool","internalType":"bool"}],"outputs":[{"name":"lastrnk","type":"uint256","internalType":"uint256"},{"name":"currentrnk","type":"uint256","internalType":"uint256"}],"stateMutability":"nonpayable"},{"type":"function","name":"owner","inputs":[],"outputs":[{"name":"","type":"address","internalType":"address"}],"stateMutability":"view"},{"type":"function","name":"postInit","inputs":[],"outputs":[{"name":"","type":"bool","internalType":"bool"}],"stateMutability":"view"},{"type":"function","name":"preinit","inputs":[{"name":"_hex","type":"address","internalType":"address"},{"name":"_own","type":"address","internalType":"address"},{"name":"_id","type":"uint256","internalType":"uint256"}],"outputs":[],"stateMutability":"nonpayable"},{"type":"function","name":"rank","inputs":[],"outputs":[{"name":"","type":"uint256","internalType":"uint256"}],"stateMutability":"view"},{"type":"function","name":"rankage","inputs":[{"name":"","type":"uint256","internalType":"uint256"}],"outputs":[{"name":"","type":"uint256","internalType":"uint256"}],"stateMutability":"view"},{"type":"function","name":"setBonus","inputs":[{"name":"b","type":"uint256","internalType":"uint256"}],"outputs":[],"stateMutability":"nonpayable"},{"type":"function","name":"setLock","inputs":[{"name":"flag","type":"bool","internalType":"bool"}],"outputs":[],"stateMutability":"nonpayable"},{"type":"function","name":"setSuspend","inputs":[{"name":"key","type":"uint256","internalType":"uint256"},{"name":"value","type":"bool","internalType":"bool"}],"outputs":[],"stateMutability":"nonpayable"},{"type":"function","name":"systemAge","inputs":[],"outputs":[{"name":"","type":"uint256","internalType":"uint256"}],"stateMutability":"view"},{"type":"function","name":"updateOwner","inputs":[{"name":"_newowner","type":"address","internalType":"address"}],"outputs":[],"stateMutability":"nonpayable"},{"type":"function","name":"userCycleMintCount","inputs":[{"name":"","type":"uint256","internalType":"uint256"}],"outputs":[{"name":"","type":"uint256","internalType":"uint256"}],"stateMutability":"view"},{"type":"function","name":"withdrawlDage","inputs":[],"outputs":[{"name":"","type":"uint256","internalType":"uint256"}],"stateMutability":"view"},{"type":"event","name":"EthBurned","inputs":[{"name":"sender","type":"address","indexed":true,"internalType":"address"},{"name":"amount","type":"uint256","indexed":false,"internalType":"uint256"}],"anonymous":false},{"type":"event","name":"EthTransferred","inputs":[{"name":"to","type":"address","indexed":true,"internalType":"address"},{"name":"amount","type":"uint256","indexed":false,"internalType":"uint256"}],"anonymous":false},{"type":"event","name":"HexBaseUpdated","inputs":[{"name":"previousHexBase","type":"address","indexed":true,"internalType":"address"},{"name":"newHexBase","type":"address","indexed":true,"internalType":"address"}],"anonymous":false},{"type":"event","name":"LogTxns","inputs":[{"name":"from","type":"address","indexed":false,"internalType":"address"},{"name":"orc1155","type":"address","indexed":false,"internalType":"address"},{"name":"_amt","type":"uint256","indexed":false,"internalType":"uint256"},{"name":"_value","type":"uint256","indexed":false,"internalType":"uint256"},{"name":"_time","type":"uint256","indexed":false,"internalType":"uint256"},{"name":"_type","type":"uint256","indexed":false,"internalType":"uint256"}],"anonymous":false},{"type":"event","name":"OwnerUpdated","inputs":[{"name":"previousOwner","type":"address","indexed":true,"internalType":"address"},{"name":"newOwner","type":"address","indexed":true,"internalType":"address"}],"anonymous":false},{"type":"error","name":"GlobalPoolLimitReached","inputs":[]},{"type":"error","name":"ImportLimitExceeded","inputs":[]},{"type":"error","name":"InvalidClone","inputs":[]},{"type":"error","name":"InvalidMintCycleLimit","inputs":[]},{"type":"error","name":"InvalidnewOwner","inputs":[]},{"type":"error","name":"MintLimitExceeded","inputs":[]},{"type":"error","name":"PreInitException","inputs":[]},{"type":"error","name":"ReentrancyGuardReentrantCall","inputs":[]},{"type":"error","name":"StorLocked","inputs":[]},{"type":"error","name":"TargetCallFailed","inputs":[{"name":"selector","type":"bytes4","internalType":"bytes4"}]},{"type":"error","name":"UnsecureORC1155","inputs":[]}],"bytecode":{"object":"0x608034620000d157601f6200689a38819003918201601f19168301916001600160401b03831184841017620000d657808492602094604052833981010312620000d157516001600160a01b03811690819003620000d15780156200008c5760018060a01b031933816001541617600155600054161760005560016003556040516167ad9081620000ed8239f35b60405162461bcd60e51b815260206004820152601360248201527f6f776e2e696e76616c69642e68657862617365000000000000000000000000006044820152606490fd5b600080fd5b634e487b7160e01b600052604160045260246000fdfe60806040526004361015610018575b361561001657005b005b60003560e01c806302a085f2146102b8578063043719b4146102b357806309d8da2e146102ae5780630b98f975146102a957806312065fe0146102a4578063141ca6601461029f578063143ec3b71461029a5780631f185d161461029557806329ee350e146102905780632c2838e81461028b578063393a9f951461028657806339b4d61b146102815780633b9b79551461027c5780634a65786c146102775780634bc21fd61461027257806352902c591461026d578063619d5194146102685780636350b2c214610263578063692450091461025e578063725b6fff1461025957806375b4d78c146102545780637bfbfecb1461024f578063880cdc311461024a5780638da5cb5b14610245578063932ca2d614610240578063934209ce1461023b5780639659867e14610236578063a153154514610231578063a1f7f5391461022c578063a20199ac14610227578063a98bf4f914610222578063a9bf285b1461021d578063af48452614610218578063af640d0f14610213578063b90306ad1461020e578063c54e44b014610209578063c8ef7b1a14610204578063d3a1a499146101ff578063da021335146101fa578063e01ad5fd146101f5578063e0a9bc2b146101f05763fdc10bc90361000e57611535565b61151a565b611480565b611428565b6113fc565b61131d565b6112e5565b611229565b61120b565b6111da565b6111bc565b611190565b611144565b611086565b611051565b611033565b611015565b610f56565b610f2f565b610e7b565b610cc6565b610ca8565b610c8a565b610c6c565b610c15565b610b54565b610a28565b610962565b61093c565b610915565b6108e9565b610814565b61074e565b610715565b610605565b6105c8565b61051b565b6104ff565b61045c565b610439565b6103fd565b6102ec565b610120810192916000915b600983106102d557505050565b6001908251815260208091019201920191906102c8565b60403660031901126103f857604051610304816115da565b61012036823760ff600454166103e75761032461031f615e30565b611558565b61032d33615f74565b8015610361575b61035d9161034461035192611691565b6024359060043590611fd4565b604051918291826102bd565b0390f35b506004906001600160a01b03906020826000541660405194858092630536340960e21b82525afa9283156103e25761035d9361035193610344926000926103b2575b50339116149250509150610334565b6103d491925060203d81116103db575b6103cc818361164b565b81019061166d565b90386103a3565b503d6103c2565b611685565b600460405163658141c160e01b8152fd5b600080fd5b346103f85760403660031901126103f857600435600052601c602052602061042b602435604060002061173a565b90546040519160031b1c8152f35b346103f85760003660031901126103f857602060ff600454166040519015158152f35b346103f85760203660031901126103f85761047861031f615e30565b61048133615f74565b801561049c575b61049190611691565b610016600435600555565b5060046001600160a01b036020816000541660405193848092630536340960e21b82525afa9081156103e257610491926000926104df575b501633149050610488565b6104f891925060203d81116103db576103cc818361164b565b90386104d4565b346103f85760003660031901126103f857602047604051908152f35b60203660031901126103f85761053261031f615e30565b61053b33615f74565b8015610565575b61054b90611691565b610553611f85565b61055e600435612ddb565b6001600355005b5060046001600160a01b036020816000541660405193848092630536340960e21b82525afa9081156103e25761054b926000926105a8575b501633149050610542565b6105c191925060203d81116103db576103cc818361164b565b903861059d565b346103f85760203660031901126103f857600435600052601c6020526020604060002054604051908152f35b6001600160a01b038116036103f857565b346103f8576020806003193601126103f857600490813590610626826105f4565b8061064861063c6000546001600160a01b031690565b6001600160a01b031690565b60405194858092634bf9c0ad60e11b82525afa9182156103e25761069c6106d6936106b89261035d966000926106f2575b506106aa906040519384918783019190916001600160a01b036020820193169052565b03601f19810184528361164b565b6106b261601e565b90616449565b9190806106e8575b6106c990616057565b8082518301019101615e1b565b60405190151581529081906020820190565b50815181146106c0565b6106aa91925061070e90863d88116103db576103cc818361164b565b9190610679565b346103f85760003660031901126103f857600b54600881101561074957600c81015460408051928352602083019190915290f35b6113d4565b346103f85760203660031901126103f8576101e061076d60043561491a565b60405190805182526020810151602083015260408101516040830152606081015160608301526080810151608083015260a081015160a083015260c081015160c083015260e081015160e0830152610100808201519083015261012080820151908301526101408082015190830152610160808201519083015261018080820151908301526101a080820151908301526101c08091015190820152f35b801515036103f857565b346103f85760c03660031901126103f85760a4356108318161080a565b61083c61031f615e30565b61084533615f74565b801561087f575b9061085961086d92611691565b608435606435604435602435600435613816565b60408051928352602083019190915290f35b506001600160a01b039060046020836000541660405192838092630536340960e21b82525afa80156103e25761086d93610859926000926108c9575b50339116149192505061084c565b6108e291925060203d81116103db576103cc818361164b565b90386108bb565b346103f85760203660031901126103f85760043560005260146020526020604060002054604051908152f35b346103f85760003660031901126103f85760206001600160a01b0360005416604051908152f35b346103f85760003660031901126103f857602060ff60045460081c166040519015158152f35b346103f85760e03660031901126103f85760c43561097f8161080a565b61098a61031f615e30565b61099333615f74565b80156109be575b906109a761086d92611691565b60a43560843560643560443560243560043561393a565b506001600160a01b039060046020836000541660405192838092630536340960e21b82525afa80156103e25761086d936109a792600092610a08575b50339116149192505061099a565b610a2191925060203d81116103db576103cc818361164b565b90386109fa565b346103f85760603660031901126103f857600435610a45816105f4565b602435610a51816105f4565b6001600160a01b038092168015808015610b4a575b610b2057610adc5782610a86610ad194600054166001600160a01b031690565b610aa6836001600160a01b03166001600160a01b03196000541617600055565b167fe939feee179e631422bcc8f6e6d7d908cb3f8af38f5372f17c77e15aea5c80ee600080a361617b565b610016604435600755565b606460405162461bcd60e51b815260206004820152601360248201527f6f776e2e696e76616c69642e68657862617365000000000000000000000000006044820152fd5b60046040517fa596f2f9000000000000000000000000000000000000000000000000000000008152fd5b5083831615610a66565b346103f85760203660031901126103f857600435610b718161080a565b610b7c61031f615e30565b610b8533615f74565b8015610bab575b90610b9961001692611691565b60ff8019600454169115151617600455565b506001600160a01b039060046020836000541660405192838092630536340960e21b82525afa80156103e25761001693610b9992600092610bf5575b503391161491925050610b8c565b610c0e91925060203d81116103db576103cc818361164b565b9038610be7565b346103f85760203660031901126103f8576004356000526016602052608060406000208054906001810154906001600160a01b03600360028301549201541691604051938452602084015260408301526060820152f35b346103f85760003660031901126103f8576020600a54604051908152f35b346103f85760003660031901126103f8576020600854604051908152f35b346103f85760003660031901126103f8576020600554604051908152f35b600080600319360112610e785760ff600454166103e757610ce5611f85565b610cf5610cf06160a2565b600255565b610d0961063c82546001600160a01b031690565b60405190817f1b4fc17b000000000000000000000000000000000000000000000000000000009182825281600460209586935afa80156103e257610d56918591610e5b575b50349061623c565b6000805260156020527fa31547ce6245cdb9ecea19cf8c7eb9f5974025bb4075011409251ae855b30aed610d8b348254611ef6565b9055610da4610d986140b7565b50915050600254611793565b81610db961063c85546001600160a01b031690565b9160046040518094819382525afa9081156103e2577f1517c86fcf2bfb8e3468afcc539b0004955da8027797c497ea51d1f1094ab898928492610e3e575b5050600254604080513381526001600160a01b0393909316602084015260009083015234606083015260808201526103e860a082015260c090a1610e3b6001600355565b80f35b610e549250803d106103db576103cc818361164b565b3880610df7565b610e729150843d86116103db576103cc818361164b565b38610d4e565b80fd5b346103f85760203660031901126103f857600435610e98816105f4565b610ea361031f615e30565b610eac33615f74565b8015610ec5575b90610ec061001692611691565b6117d8565b506001600160a01b039060046020836000541660405192838092630536340960e21b82525afa80156103e25761001693610ec092600092610f0f575b503391161491925050610eb3565b610f2891925060203d81116103db576103cc818361164b565b9038610f01565b346103f85760003660031901126103f85760206001600160a01b0360015416604051908152f35b60a03660031901126103f857600435610f6e816105f4565b610f7961031f615e30565b610f8233615f74565b8015610fab575b90610f9661086d92611691565b6084359060643590604435906024359061181a565b506001600160a01b039060046020836000541660405192838092630536340960e21b82525afa80156103e25761086d93610f9692600092610ff5575b503391161491925050610f89565b61100e91925060203d81116103db576103cc818361164b565b9038610fe7565b346103f85760003660031901126103f8576020600b54604051908152f35b346103f85760003660031901126103f8576020600654604051908152f35b346103f85760003660031901126103f857608061106c6140b7565b916040519384526020840152151560408301526060820152f35b346103f85760003660031901126103f857600460206001600160a01b03600054166040519283809263d1f956b160e01b82525afa9081156103e25761035d9161111691600091611126575b506040516110de816115f7565b601381527f67657464656c656761746f72436f756e742829000000000000000000000000006020820152611110611d49565b9161657f565b6040519081529081906020820190565b61113e915060203d81116103db576103cc818361164b565b386110d1565b346103f85760403660031901126103f857611163602435600435615854565b60405190600090825b600783106111795760e084f35b60019082518152602080910192019201919061116c565b346103f85760203660031901126103f85760043560005260176020526020604060002054604051908152f35b346103f85760003660031901126103f8576020600954604051908152f35b346103f85760203660031901126103f85760206112016004356111fc816105f4565b615f74565b6040519015158152f35b346103f85760003660031901126103f8576020600754604051908152f35b346103f85760203660031901126103f85760046001600160a01b036020816000541660405193848092630536340960e21b82525afa9182156103e2576000926112c5575b503391160361128157610016600435616326565b606460405162461bcd60e51b815260206004820152600f60248201527f6f776e2e6e6f6e617574682e44414f00000000000000000000000000000000006044820152fd5b6112de91925060203d81116103db576103cc818361164b565b903861126d565b346103f85760203660031901126103f857602061130c600435611307816105f4565b6166fc565b6001600160a01b0360405191168152f35b346103f85760403660031901126103f85760243561133a8161080a565b61134561031f615e30565b61134e33615f74565b801561136a575b9061136261001692611691565b6004356116dc565b506001600160a01b039060046020836000541660405192838092630536340960e21b82525afa80156103e25761001693611362926000926113b4575b503391161491925050611355565b6113cd91925060203d81116103db576103cc818361164b565b90386113a6565b634e487b7160e01b600052603260045260246000fd5b600881101561074957600c0190600090565b346103f85760203660031901126103f85760043560088110156103f857602090600c0154604051908152f35b346103f8576020806003193601126103f8576080906004356000526018815260409081600020549160198252806000205490601a8352806000205491601b845281600020549382519586528501528301526060820152f35b346103f8576020806003193601126103f8576004803561149f816105f4565b6001600160a01b03928084600054166040519485809263d1f956b160e01b82525afa9081156103e25761035d946106d6946000936114fb575b5060405193168184015282526114ed826115f7565b6114f5616142565b90616543565b611513919350823d84116103db576103cc818361164b565b91386114d8565b346103f85760003660031901126103f8576020611201615e30565b346103f85760003660031901126103f85760206115506160a2565b604051908152f35b1561155f57565b606460405162461bcd60e51b815260206004820152601260248201527f6f776e2e696e76616c69642e69735361666500000000000000000000000000006044820152fd5b634e487b7160e01b600052604160045260246000fd5b6060810190811067ffffffffffffffff8211176115d557604052565b6115a3565b610120810190811067ffffffffffffffff8211176115d557604052565b6040810190811067ffffffffffffffff8211176115d557604052565b6020810190811067ffffffffffffffff8211176115d557604052565b60e0810190811067ffffffffffffffff8211176115d557604052565b90601f8019910116810190811067ffffffffffffffff8211176115d557604052565b908160209103126103f85751611682816105f4565b90565b6040513d6000823e3d90fd5b1561169857565b606460405162461bcd60e51b815260206004820152601b60248201527f6f776e2e6e6f6e617574682e44414f6f725365637572656261736500000000006044820152fd5b6116e46160a2565b9081600255600052601c60205260406000209160001461172b578154801590811561171f575b50611714575b5050565b61171d91611752565b565b6001915016153861170a565b60018083541614611714575050565b80548210156107495760005260206000200190600090565b90815491680100000000000000008310156115d5578261177a91600161171d9501815561173a565b90919082549060031b91821b91600019901b1916179055565b60c8600052601c6020527f922f6af691981b741eb02b3ed3453cc38ce623e8709ce524bd43bdbfc62af099911561172b578154801590811561171f5750611714575050565b6001600160a01b038116156117f05761171d9061617b565b60046040517fb31092f1000000000000000000000000000000000000000000000000000000008152fd5b9092949360049160ff835416611cf057611832611f85565b61184261183e82615f74565b1590565b611ce057611851610cf06160a2565b60009461186861063c87546001600160a01b031690565b906040928351809663cfbffe5360e01b94858352828260209485935afa9788156103e2578a98611cc1575b506118ad61189f611d5c565b6118a7611d74565b8a61657f565b978815611c75576118cd6118bf611d5c565b6118c7611dad565b8361657f565b906118db60029a8b54611dfc565b916119106118f86118ea611d5c565b6118f2611e1c565b8561657f565b92611901611d5c565b9061190a611e55565b9061657f565b90611925846000526014602052604060002090565b541091821592611c58575b5050611c305761194a906000526014602052604060002090565b8054600101905560018714948515611c27578261197161063c8d546001600160a01b031690565b918389518094819382525afa9081156103e2576119b29161069c918d91611c0a575b506119aa8c8a519384918883019190602083019252565b61190a611e8e565b9b8c955b611b3a575b5050879695937f1517c86fcf2bfb8e3468afcc539b0004955da8027797c497ea51d1f1094ab89898611b109694611a5994611a47611a4c9560065415611b21575b611a0f611a0a600654611f2e565b600655565b8b5485611a1a611d00565b9288845283015289820152606081019e8f52611a426006546000526016602052604060002090565b611f3d565b6126b4565b6001600160a01b03168852565b611aa1611a6d88516001600160a01b031690565b6003611a856006546000526016602052604060002090565b01906001600160a01b03166001600160a01b0319825416179055565b88611ad2611aae82612844565b98611ac5611aba6140b7565b509150508854611793565b516001600160a01b031690565b9454915195869533879260a09491979695929760c08501986001600160a01b0380921686521660208501526040840152606083015260808201520152565b0390a1611b1d6001600355565b9190565b611b2b8c54600855565b611b358c54600955565b6119fc565b909192939450600554918c611b4f8484611ef6565b10611bba5750887f1517c86fcf2bfb8e3468afcc539b0004955da8027797c497ea51d1f1094ab89899989795611b109795611a478f9496611ba7611ba287611b9d611a4c9a611a599c611ef6565b611f21565b600555565b95505094509496509881959798506119bb565b611c0690875191829162461bcd60e51b8352820160609060208152601360208201527f73746f722e66616b652e6d696e7476616c75650000000000000000000000000060408201520190565b0390fd5b611c219150853d87116103db576103cc818361164b565b38611993565b508b8c956119b6565b5085517feb2c7de7000000000000000000000000000000000000000000000000000000008152fd5b8c1091508115611c6b575b503880611930565b90508a1138611c63565b611c0682885191829162461bcd60e51b8352820160609060208152601560208201527f696e76616c6964206d696e744379636c6544617973000000000000000000000060408201520190565b611cd9919850823d84116103db576103cc818361164b565b9638611893565b82604051630d419f7360e41b8152fd5b8260405163658141c160e01b8152fd5b604051906080820182811067ffffffffffffffff8211176115d557604052565b6040519061171d8261162f565b67ffffffffffffffff81116115d557601f01601f191660200190565b60405190611d5682611613565b60008252565b604051611d6881611613565b60008152906000368137565b60405190611d81826115f7565b600f82527f6d696e744379636c6544617973282900000000000000000000000000000000006020830152565b60405190611dba826115f7565b601282527f6d61784d696e74735065724379636c65282900000000000000000000000000006020830152565b634e487b7160e01b600052601160045260246000fd5b8115611e06570490565b634e487b7160e01b600052601260045260246000fd5b60405190611e29826115f7565b600c82527f6d696e4d696e74517479282900000000000000000000000000000000000000006020830152565b60405190611e62826115f7565b600c82527f6d61784d696e74517479282900000000000000000000000000000000000000006020830152565b60405190611e9b826115f7565b601982527f636f6d707574654d696e7456616c75652875696e7432353629000000000000006020830152565b90600e8201809211611ed557565b611de6565b6046019081604611611ed557565b9060018201809211611ed557565b91908201809211611ed557565b600019810191908211611ed557565b600119810191908211611ed557565b91908203918211611ed557565b6000198114611ed55760010190565b60036001600160a01b03606061171d948051855560208101516001860155604081015160028601550151169101906001600160a01b03166001600160a01b0319825416179055565b600260035414611f96576002600355565b60046040517f3ee5aeb5000000000000000000000000000000000000000000000000000000008152fd5b60405190611fcd8261162f565b60e0368337565b90611fe79291611fe2611f85565b61211d565b906001600355565b60405190611ffc826115f7565b601082527f65616368636c61696d4379636c652829000000000000000000000000000000006020830152565b60405190612035826115f7565b601082527f6d696e436c61696d5065724461792829000000000000000000000000000000006020830152565b6040519061206e826115f7565b601082527f6d6178436c61696d5065724461792829000000000000000000000000000000006020830152565b604051906120a7826115f7565b601682527f6d6178476c6f62616c436c61696d5065724461792829000000000000000000006020830152565b604051906120e0826115f7565b601582527f67657477697468647261776e2875696e743235362900000000000000000000006020830152565b9060098110156107495760051b0190565b92918381156126ae5750600255600061214061063c82546001600160a01b031690565b6040908151809163cfbffe5360e01b825281600460209384935afa9182156103e257849261268f575b506121726140b7565b50969150506121846002968754611793565b60326121b38754600854936121998186611ef6565b821115612688576121ab915084611ef6565b925b83611f21565b11612680576121c19061445c565b6121e06121d76121cf611d5c565b6118f2611fef565b60095490611ef6565b908554918210156121fd575b50505050505061171d610cf06160a2565b612210612208611d5c565b6118f2612028565b9261222461221c611d5c565b6118c7612061565b600f6000526015602052926123866123566123266122f66122c66122967f3bda72f6153f13a10a865b9a6397e1123f4aa6a1726e0e1349cd07eb0e24d81554601060005260156020527f778c823f9b5f066b3c9d60b855427fd2999fcc25aebe3320977c1598596fffaf5b5490611ef6565b601160005260156020527fed5e5ecd5cb229fc7c2ed17e5e7cdfdc1d0a81991bd95ffdc4cdf25aca2d2ac361228f565b601260005260156020527f2d1305887a553ebca964114eb55137666ae056a13c7d9c5dcf078bd3a9732a3861228f565b601360005260156020527fa5165e376b84f33a3c944a34b062595f1fb4afde844645ed23ed1e10c257ebe161228f565b601460005260156020527fe06932cbfde2f2475d8c82e797702b1bf34af837520e34a39e7e7b5e28f71d5f61228f565b601560008190526020527ff38242ae41b6250df1acd58d7376889913b9221d9b2e1d2e50fb7d62671fa73361228f565b94851015612396575b50506121ec565b6123ad6004926123a4611d5c565b9061190a61209a565b92806123c361063c8a546001600160a01b031690565b88519485809263ab6e844f60e01b82525afa9081156103e25761240793899261265d575b508751908101928352916123ff90839060200161069c565b61190a6120d3565b1015612634578082111561262c5761241e91611f21565b9060015b60078111156124a55750507fce9b89faa7d00b5a0dcea74b754372f1c8c1e2788b44e0b6fc99899848f9baf7805460e08701527f6b9301c903fb63b5bb3b4ed52f960f66e3a0c33bca0ea2f28cf6e34d2eb058dd80546101008801526015602090815291849055600091909152919091555054600955388080808080808061238f565b6124c16124b182611ec7565b6000526015602052604060002090565b5483612593579061258e916124e0826000526015602052604060002090565b6124eb828254611ef6565b9055856124fa6124b184611ec7565b5561250d61250783611f03565b8a61210c565b525b7f1517c86fcf2bfb8e3468afcc539b0004955da8027797c497ea51d1f1094ab89861253c61250783611f03565b5187549061258661254c85611eda565b875193849333859094939260a0926001600160a01b0360c08401971683526000602084015260006040840152606083015260808201520152565b0390a1611f2e565b612422565b838111156125ed57906125a98461258e93611f21565b93846125ca6125c2846000526015602052604060002090565b918254611ef6565b90556125d86124b183611ec7565b5584936125e761250783611f03565b5261250f565b6125fb9061258e9294611f21565b92612610816000526015602052604060002090565b508461261e6124b183611ec7565b55846125e761250783611f03565b50508161241e565b600483517f1d63fe21000000000000000000000000000000000000000000000000000000008152fd5b819250612679906123ff923d85116103db576103cc818361164b565b91906123e7565b505050505050565b50926121ad565b816126a79293503d84116103db576103cc818361164b565b9038612169565b93505050565b9161273492612725926001600160a01b039586600154169360025492604051957fc85700fb000000000000000000000000000000000000000000000000000000006020880152602487015260448601526064850152608484015260a483015260a482526127208261162f565b616607565b6020808251830101910161166d565b16801561273e5790565b60046040517fb1bdf8b0000000000000000000000000000000000000000000000000000000008152fd5b60405190612775826115f7565b600682527f706f6f6c282900000000000000000000000000000000000000000000000000006020830152565b908160e09103126103f85780519160208201519160408101519160608201519160808101519160c060a083015192015190565b9061271091828102928184041490151715611ed557565b9081606402916064830403611ed557565b81810292918115918404141715611ed557565b91909160008382019384129112908015821691151617611ed557565b81810392916000138015828513169184121617611ed557565b600490602061285e61063c6000546001600160a01b031690565b6040519384809263cfbffe5360e01b82525afa80156103e2576129296128ff6128e46129246128ef6128d96128e96128c96128ba6128de996116829c60009161293b575b506128ab611d5c565b906128b4612768565b9061641e565b602080825183010191016127a1565b9e8f9b969e9498929591506127fc565b6127fc565b936127fc565b6127d4565b90611dfc565b9461290f6128ff82600254611ef6565b6000526017602052604060002090565b61291a87825461280f565b9055600254611ef6565b611ef6565b61293482825461282b565b90556127fc565b612953915060203d81116103db576103cc818361164b565b386128a2565b60405190612966826115f7565b601382527f55736572546f496e7374286164647265737329000000000000000000000000006020830152565b6040519061299f826115f7565b600b82527f6d696e74436f756e7428290000000000000000000000000000000000000000006020830152565b604051906129d8826115f7565b600e82527f6d696e74732875696e74323536290000000000000000000000000000000000006020830152565b60405190612a11826115f7565b600b82527f6d696e74656441676528290000000000000000000000000000000000000000006020830152565b60405190612a4a826115f7565b600b82527f6d696e74656471747928290000000000000000000000000000000000000000006020830152565b60405190612a83826115f7565b600c82527f6964732875696e743235362900000000000000000000000000000000000000006020830152565b60405190612abc826115f7565b600982527f6d696e74416d74282900000000000000000000000000000000000000000000006020830152565b604051906080820182811067ffffffffffffffff8211176115d55760405260006060838281528260208201528260408201520152565b60405190612b2b826115f7565b600a82527f647261776e6167652829000000000000000000000000000000000000000000006020830152565b60405190612b64826115f7565b600c82527f4c53422875696e743235362900000000000000000000000000000000000000006020830152565b60405190612b9d826115f7565b600782527f647261776e2829000000000000000000000000000000000000000000000000006020830152565b91908260c09103126103f85781519160208101519160408201519160608101519160a0608083015192015190565b60405190612c04826115f7565b601382527f67657452657761726473286164647265737329000000000000000000000000006020830152565b91908260409103126103f8576020825192015190565b60405190612c53826115f7565b600782527f626f6e75732829000000000000000000000000000000000000000000000000006020830152565b60405190612c8c826115f7565b600682527f63616765282900000000000000000000000000000000000000000000000000006020830152565b60405190612cc5826115f7565b601982527f67657445666665637469766552616e6b286164647265737329000000000000006020830152565b60405190612cfe826115f7565b601f82527f6765746e6f646572616e6b61676528616464726573732c75696e7432353629006020830152565b60405190612d37826115f7565b601082527f6765744e6f6465286164647265737329000000000000000000000000000000006020830152565b908160a09103126103f8578051916020820151612d7f816105f4565b9160408101519160806060830151612d968161080a565b9201516116828161080a565b60405190612daf826115f7565b601a82527f77697468647261776e496e636f6d654f662861646472657373290000000000006020830152565b60045460081c60ff16613813576004906020612e0261063c6000546001600160a01b031690565b6040519384809263111ea8c160e21b82525afa9182156103e2576000926137f2575b50612e79612e5d612e6b612e406001546001600160a01b031690565b604080516001600160a01b03909216602083015290928391820190565b03601f19810183528261164b565b612e73612959565b846164fa565b906001600160a01b038216156137ce57600581116137a457612eaa612e9c611d5c565b612ea4612992565b8461657f565b90600654612eb88183611ef6565b83111561379c57612ec891611ef6565b816133c4575b5080600654149081156133bb575b50612ee5575050565b612f00612efb612ef3611d5c565b612ea4612b1e565b600a55565b600a546008548111613373575b50612f39612f2a612f1c611d5c565b612f24612b90565b8461641e565b60208082518301019101612bc9565b601560209081527f27739e4bb5e6f8b5e4b57a047dca8767cc9b982a011081e086cbb0dfa9de818d969096557f07d4ff730d9753101d832555708a37d38c2c45fce8cacaefc99f06074e93fe0b949094557fb3a65e8276bd33b3e4f7d6081ebd9899187264822358758dca2e2bc37b2a9c27929092557f8191f4eb6b8bafbfe9a5389c8d07d7f5fd81137a7ee653fc4358269845ee1d2e557f25847c9ccf691da811a9f934d6b3b92e6062ef92feb71bf4cb08cbb4fad8d6525560076000527f5d0f48e37dc1225cdee8d6f2a0315d796f55423522fe638d7d95421802dfc00655604080516001600160a01b0384169281019290925261306191613052916130449082908101612e5d565b61304c612bf7565b8561641e565b60208082518301019101612c30565b60156020527f535b9e1ac68faf16e764f210b80ec6320ee232f7656b4f9a2d0a74437eceaaac9190915560686000527f7ee1f11581f85e8bd439e065fc0e6555ccc3142caeda52fdbb7bed5ad7a8306a556130c8611ba26130c0611d5c565b612ea4612c46565b6130de612efb6130d6611d5c565b612ea4612c7f565b61311561311060405161310881612e5d86602083019190916001600160a01b036020820193169052565b6118f2612cb8565b600b55565b60005b600f811115613281575061315a61069c6131809361315261316994604051938491602083019190916001600160a01b036020820193169052565b6128b4612d2a565b60208082518301019101612d63565b935050505060ff8019600454169115151617600455565b6004602061319961063c6000546001600160a01b031690565b604051928380927f6325dd040000000000000000000000000000000000000000000000000000000082525afa9081156103e2576132179161069c91600091613262575b5061320f6131f26001546001600160a01b031690565b604080516001600160a01b03909216602083015290938491820190565b61190a612da2565b600560005260156020527fbab719002e4be320868650dc7456e9a1d245e4d5dd64765588e2f21529d871d35561324e600854600955565b61171d61010061ff00196004541617600455565b61327b915060203d6020116103db576103cc818361164b565b386131dc565b8061329a916132e9575b600b5481111561329f57611f2e565b613118565b604080516001600160a01b03851660208201529081018290526132e4906132db906132cd8160608101612e5d565b6132d5612cf1565b8761657f565b61177a836113ea565b611f2e565b6040517f5329daca0000000000000000000000000000000000000000000000000000000060208201526001600160a01b038416602482015260448101829052613343906130529061333d8160648101612e5d565b86616607565b613357836000526018602052604060002090565b9061336c846000526019602052604060002090565b555561328b565b60085561339e612e5d613396600a54604051928391602083019190602083019252565b6118c7612b57565b6133b46008546000526017602052604060002090565b5538612f0d565b90501538612edc565b600080527f999d26de3473317ead3eeaf34ca78057f1439db67b6953469c3c96ce9caf6bd75460196020527fd2ac945fcc0096878c763e37d6929b78378c1a2defabde8ba7ee5ed1d6e7a5b2549095909491929091905b6006548481101561373f57611a0a61343291611f2e565b613460612e5d613452600654604051928391602083019190602083019252565b61345a6129cb565b876164fa565b613476610cf061346e611d5c565b612ea4612a04565b61352861348c613484611d5c565b612ea4612a3d565b986134b16040516134a981612e5d60208201906000602083019252565b6118f2612a76565b986134ce6134c86134c0611d5c565b6132d5612aaf565b946166fc565b60206134e561063c6000546001600160a01b031690565b6040517fcfaa1f6c0000000000000000000000000000000000000000000000000000000081526001600160a01b0390931660048401529194859081906024820190565b0381845afa9384156103e25760009461371e575b506001600160a01b038416156136ac575b5061355a61183e84615f74565b61369b578a92848461356a612ae8565b93828552816020860152600295865460408701528386600654613597906000526016602052604060002090565b906135a191611f3d565b6135aa91611ef6565b9e6135b491611ef6565b9c6135be936126b4565b6006546135d5906000526016602052604060002090565b600301906135f891906001600160a01b03166001600160a01b0319825416179055565b61360184612844565b50600654600114936136476060613684937f1517c86fcf2bfb8e3468afcc539b0004955da8027797c497ea51d1f1094ab8989761368c575b01516001600160a01b031690565b9254604080513381526001600160a01b03909516602086015284019490945260608301526080820192909252600060a082015290819060c0820190565b0390a161341b565b6136968654600855565b613639565b6004604051630d419f7360e41b8152fd5b6040517fb771c89600000000000000000000000000000000000000000000000000000000815260006004820152919350602090829060249082905afa9081156103e2576000916136ff575b50913861354d565b613718915060203d6020116103db576103cc818361164b565b386136f7565b61373891945060203d6020116103db576103cc818361164b565b923861353c565b50600080527f999d26de3473317ead3eeaf34ca78057f1439db67b6953469c3c96ce9caf6bd79690965560196020527fd2ac945fcc0096878c763e37d6929b78378c1a2defabde8ba7ee5ed1d6e7a5b29490945593905038612ece565b505080612ec8565b60046040517fc99d37d2000000000000000000000000000000000000000000000000000000008152fd5b5050506137dc612efb6160a2565b6137e7600a54600855565b61324e600a54600955565b61380c91925060203d6020116103db576103cc818361164b565b9038612e24565b50565b959394909291946000966000968461383057505050505050565b919395965091939650600b54968460001461389857613859866000526018602052604060002090565b8054918201809211611ed55761388996613882926125c292556000526019602052604060002090565b9055613ea8565b600b5490388080808080612680565b85600096929652601860205260406000208054918203918211611ed5575560005260196020526040600020938454908103908111611ed5576138899455613ea8565b604051906138e7826115f7565b601482527f6c6576656c436c617573652875696e74323536290000000000000000000000006020830152565b908160a09103126103f8578051916020820151916040810151916080606083015192015190565b9495919295613953876000526018602052604060002090565b61395e838254611ef6565b9055613974876000526019602052604060002090565b61397f858254611ef6565b90556000805260186020527f999d26de3473317ead3eeaf34ca78057f1439db67b6953469c3c96ce9caf6bd754151580613cf3575b6139da575b50505050505050600b54906116826139d0836113ea565b90549060031b1c90565b8493159586159586613ce3575b5050600090613a0061063c83546001600160a01b031690565b604051809163cfbffe5360e01b825281600460209485935afa9182156103e257613a5661069c613a73948d613a63958992613cc0575b50613a4e906040519384918783019190602083019252565b6128b46138da565b8051810182019101613913565b98929591949099600a5490611f21565b10918215613cb3575b5081613caa575b50613a90575b50506139b9565b613afa9615613ca1576128e9613aa9613aaf93866127fc565b916127eb565b955b15613c975750613aa9613ac7936128e9926127fc565b925b613add81600052601a602052604060002090565b613ae8848254611ef6565b9055600052601b602052604060002090565b613b05838254611ef6565b905560016000819052601c602052613b3f7f6de76108811faf2f94afbe5ac6c98e8393206cd093932de1fbfd61bbeec43a025b5460011690565b148015613c5b575b613c20575b506004600052601c6020526001613b827fadacb2ae086d090ae1cbb87d66774fa6d708dd14d5bdc5b6c1e455aa2020dfb7613b38565b148015613be4575b613ba9575b50613b9b610d986140b7565b388080808080808080613a89565b600b6000526015602052613bdc7fcaeae41dfed97dfd8c41876ff591faa3e36cda388621c550caa3321a2a624e5f6125c2565b905538613b8f565b5060c8600052601c6020526001613c1a7f922f6af691981b741eb02b3ed3453cc38ce623e8709ce524bd43bdbfc62af099613b38565b14613b8a565b60086000526015602052613c537f2d0e46a571fdfbe57c7c718891a8a12999c102dfffa2b3314ea165dedd1684f56125c2565b905538613b4c565b5060c8600052601c6020526001613c917f922f6af691981b741eb02b3ed3453cc38ce623e8709ce524bd43bdbfc62af099613b38565b14613b47565b9250505092613ac9565b50508095613ab1565b90501538613a83565b600b541015915038613a7c565b613a4e919250613cdc90863d88116103db576103cc818361164b565b9190613a36565b613cec91613d35565b38846139e7565b508615156139b4565b60405190613d09826115f7565b601382527f72616e6b436c617573652875696e7432353629000000000000000000000000006020830152565b90613d4b61063c6000546001600160a01b031690565b906040928351809363cfbffe5360e01b825281600460209384935afa9384156103e257600094613e89575b50600b93613d848554611ee8565b60088110613d955750505050505050565b613e0490613dd2613dc48951613db681612e5d868a83019190602083019252565b613dbe613cfc565b8661641e565b858082518301019101613913565b50505090861015908180613e6b575b80613e59575b15613e09575050613df781600b55565b6132e48661177a836113ea565b613d84565b81613e3a575b50613e31576132e4613e20826113ea565b8154906000199060031b1b19169055565b6132e481600b55565b9050613e50826000526019602052604060002090565b54101538613e0f565b508854613e6584611f03565b14613de7565b5080613e81846000526019602052604060002090565b541015613de1565b81613ea19295503d86116103db576103cc818361164b565b9238613d76565b90613ebe61063c6000546001600160a01b031690565b916040938451809463cfbffe5360e01b825281600460209384935afa9485156103e257600095614005575b50600b94613ef78654611ee8565b60088110613f09575050505050505050565b613f579084613f47613f398b51613f2b81612e5d878b83019190602083019252565b613f33613cfc565b8761641e565b868082518301019101613913565b50505091613f5c575b5050611f2e565b613ef7565b871015908180613fe7575b80613fd5575b15613f91575050613f7d81600b55565b613f8a8761177a836113ea565b3880613f50565b81613fb6575b50613fad57613fa8613e20826113ea565b613f8a565b613fa881600b55565b9050613fcc826000526019602052604060002090565b54101538613f97565b508954613fe184611f03565b14613f6d565b5080613ffd846000526019602052604060002090565b541015613f67565b8161401d9296503d87116103db576103cc818361164b565b9338613ee9565b60405190614031826115f7565b600982527f63617070696e67282900000000000000000000000000000000000000000000006020830152565b908160e09103126103f85780519160208201516140798161080a565b9160408101516140888161080a565b9160608201516140978161080a565b9160808101516140a68161080a565b9160c060a0830151612d968161080a565b600090600460206140d361063c6000546001600160a01b031690565b6040519283809263cfbffe5360e01b82525afa9081156103e257614123916141149160009161443e575b50614106614024565b61410e611d49565b9161641e565b6020808251830101910161405d565b60008052601860205295969593949092909190614195614165897f999d26de3473317ead3eeaf34ca78057f1439db67b6953469c3c96ce9caf6bd75b546127fc565b600080526015602052987fa31547ce6245cdb9ecea19cf8c7eb9f5974025bb4075011409251ae855b30aed61415f565b9561419e615793565b94614436575b506143a0575b61433a575b614329575b506142bb575b6141de575b8084106141d6576141d09084611f21565b82811191565b5060006141d0565b60066000526015602052926142b5906142af61235661427f61424f6123267f25847c9ccf691da811a9f934d6b3b92e6062ef92feb71bf4cb08cbb4fad8d6525b54600d60005260156020527fe3e3bb3f660b5aca6f44f8cdafd6456c07cd53888341ab748ffc02d532ccc70e61228f565b600760005260156020527f5d0f48e37dc1225cdee8d6f2a0315d796f55423522fe638d7d95421802dfc00661228f565b600e60005260156020527f39f65be0de5254440eb2b93b160b1af3a4f45fe0571eaea7ef454b27b7f02d1861228f565b90611ef6565b926141bf565b6005600052601560205293614323906142af6122f67fbab719002e4be320868650dc7456e9a1d245e4d5dd64765588e2f21529d871d35b54600c60005260156020527f74c10a04815bbeaf3165dab0bd11b69aae73edf00a48b27ec8c53ac5b61d47fd61228f565b936141ba565b6143339196611ef6565b94386141b4565b60156020527fb3a65e8276bd33b3e4f7d6081ebd9899187264822358758dca2e2bc37b2a9c2754600a600052909761439a916142af90612296907f0cfcac9f3767130657d3b01a9146da544eeb39eb9670066ace5e84da7fc4319f61228f565b966141af565b60156020527f07d4ff730d9753101d832555708a37d38c2c45fce8cacaefc99f06074e93fe0b5460096000529098614430916142af90614400907f497613c0658032a90a449a944031c57b1d03996c3a6148fe12146c45cf32140061228f565b601060005260156020527f778c823f9b5f066b3c9d60b855427fd2999fcc25aebe3320977c1598596fffaf61228f565b976141aa565b9950386141a4565b614456915060203d81116103db576103cc818361164b565b386140fd565b61171d906144698161491a565b8051600f600052601560205261449e7f3bda72f6153f13a10a865b9a6397e1123f4aa6a1726e0e1349cd07eb0e24d8156125c2565b90556060810151601260005260156020526144d87f2d1305887a553ebca964114eb55137666ae056a13c7d9c5dcf078bd3a9732a386125c2565b9055602081810151601060005260159091526145137f778c823f9b5f066b3c9d60b855427fd2999fcc25aebe3320977c1598596fffaf6125c2565b90556040810180516011600052601560205261454e7fed5e5ecd5cb229fc7c2ed17e5e7cdfdc1d0a81991bd95ffdc4cdf25aca2d2ac36125c2565b90556080820151601360005260156020526145887fa5165e376b84f33a3c944a34b062595f1fb4afde844645ed23ed1e10c257ebe16125c2565b905560a0820151601460005260156020526145c27fe06932cbfde2f2475d8c82e797702b1bf34af837520e34a39e7e7b5e28f71d5f6125c2565b905560c0820151601560008190526020526145fc7ff38242ae41b6250df1acd58d7376889913b9221d9b2e1d2e50fb7d62671fa7336125c2565b9055610100820151600960005260156020526146377f497613c0658032a90a449a944031c57b1d03996c3a6148fe12146c45cf3214006125c2565b905561012082018051600a600052601560205290926101c0916146797f0cfcac9f3767130657d3b01a9146da544eeb39eb9670066ace5e84da7fc4319f6125c2565b9055610160810151600c60005260156020526146b47f74c10a04815bbeaf3165dab0bd11b69aae73edf00a48b27ec8c53ac5b61d47fd6125c2565b9055610180810151600d60005260156020526146ef7fe3e3bb3f660b5aca6f44f8cdafd6456c07cd53888341ab748ffc02d532ccc70e6125c2565b90556101a0810151600e600052601560205261472a7f39f65be0de5254440eb2b93b160b1af3a4f45fe0571eaea7ef454b27b7f02d186125c2565b90550151614742846000526017602052604060002090565b5551601f60005260156020526147777fce9b89faa7d00b5a0dcea74b754372f1c8c1e2788b44e0b6fc99899848f9baf76125c2565b90555160206000819052601590526147ae7f6b9301c903fb63b5bb3b4ed52f960f66e3a0c33bca0ea2f28cf6e34d2eb058dd6125c2565b9055600855565b604051906101e0820182811067ffffffffffffffff8211176115d557604052816101c06000918281528260208201528260408201528260608201528260808201528260a08201528260c08201528260e08201528261010082015282610120820152826101408201528261016082015282610180820152826101a08201520152565b60405190614843826115f7565b600a82527f73687574646f776e2829000000000000000000000000000000000000000000006020830152565b6040519061487c826115f7565b601882527f676574557365724964546f496e73742875696e743235362900000000000000006020830152565b604051906148b5826115f7565b601182527f696e636f6d654f662861646472657373290000000000000000000000000000006020830152565b604051906148ee826115f7565b601482527f636f6d70757465546f75722875696e74323536290000000000000000000000006020830152565b906149236147b5565b9160009061493b61063c83546001600160a01b031690565b60409182519163ab6e844f60e01b83526020908184600481845afa9384156103e2578694614db2575b50845163cfbffe5360e01b81528281600481855afa9182156103e257858a60049686948b96614d8b575b5090614ac68592876149b06149a1614836565b6149a9611d49565b9083616543565b9b8c92614a5c6149be615793565b6060890190815281895260156020527f27739e4bb5e6f8b5e4b57a047dca8767cc9b982a011081e086cbb0dfa9de818d54600860005290929190614a5690614a26907f2d0e46a571fdfbe57c7c718891a8a12999c102dfffa2b3314ea165dedd1684f561228f565b600f60005260156020527f3bda72f6153f13a10a865b9a6397e1123f4aa6a1726e0e1349cd07eb0e24d81561228f565b90611f21565b8752805160156020527f8191f4eb6b8bafbfe9a5389c8d07d7f5fd81137a7ee653fc4358269845ee1d2e54600b600052614abf9190614a56906122c6907fcaeae41dfed97dfd8c41876ff591faa3e36cda388621c550caa3321a2a624e5f61228f565b9052614fe8565b509d94939096926101c087939701526101008201520152600014614d7b57505061069c614b1391614b056007548b519384918883019190602083019252565b614b0d61486f565b906164fa565b31878b01525b8651948580927f52b06d640000000000000000000000000000000000000000000000000000000082525afa9283156103e2578693614d5c575b50614ba4614b88614b6b6001546001600160a01b031690565b87519182918683019190916001600160a01b036020820193169052565b0394614b9c601f199687810184528361164b565b61190a6148a8565b6005600052601560205294614bdb6122f67fbab719002e4be320868650dc7456e9a1d245e4d5dd64765588e2f21529d871d36142f2565b60808a018181529681811115614d4e57614bf89150875190611f21565b86526004600b54600281101580614d11575b614cd3575b101580614c72575b614c33575b50505050614c28575050565b805161016085015252565b614c6493614c5093614c5c92519485918201906004602083019252565b0390810184528361164b565b61190a6148e1565b60c086015238808080614c1c565b5060156020527f5d0f48e37dc1225cdee8d6f2a0315d796f55423522fe638d7d95421802dfc00654600e600052614ccd90612356907f39f65be0de5254440eb2b93b160b1af3a4f45fe0571eaea7ef454b27b7f02d1861228f565b15614c17565b614d078351614cf981614ced898201906002602083019252565b0389810183528261164b565b614d016148e1565b8661657f565b60a08c0152614c0f565b5060066000526015602052614d486123267f25847c9ccf691da811a9f934d6b3b92e6062ef92feb71bf4cb08cbb4fad8d65261421e565b15614c0a565b614d5791611f21565b614bf8565b614d74919350823d84116103db576103cc818361164b565b9138614b52565b8c8a01526101208c015250614b19565b8592919650614da9614ac691843d86116103db576103cc818361164b565b9691925061498e565b614dca919450823d84116103db576103cc818361164b565b9238614964565b604051906040820182811067ffffffffffffffff8211176115d55760405260006020838281520152565b6040519060a0820182811067ffffffffffffffff8211176115d55760405281614e22614dd1565b8152614e2c614dd1565b6020820152614e39614dd1565b6040820152614e46614dd1565b60608201526080614e55614dd1565b910152565b60405190614e67826115f7565b601882527f6765744261746368526f79616c7479436c6175736573282900000000000000006020830152565b6102a09081818403126103f85782601f820112156103f8576040805193614eb98561162f565b84938301928184116103f857935b838510614ed657505050505090565b6060858303126103f8578251606091614eee826115b9565b8651825260209182880151838201528588015186820152815201940193614ec7565b60405190614f1d826115f7565b601f82527f676574526f79616c697479416d6f756e7442617463682875696e7432353629006020830152565b9060e0828203126103f85780601f830112156103f85760405191614f6c8361162f565b829060e081019283116103f857905b828210614f885750505090565b8151815260209182019101614f7b565b9060078110156107495760051b0190565b8181029291600082127f8000000000000000000000000000000000000000000000000000000000000000821416611ed5578184051490151715611ed557565b9290600094600094600094600094600094615085615076615007614dfb565b9461501187615489565b87519060208201525261502387615566565b602088015190602082015252615038876155f9565b60408801519060208201525261504d8761569b565b60608801519060208201525261506287615717565b608088015190602082015252614106614e5a565b60208082518301019101614e93565b91600854600b54905b8681106150da5750505050506020815101518211918291821580946150c8575b93926150b957505091565b60800151602001511015929050565b506020606082015101518211156150ae565b6151106151016040516150f981612e5d86602083019190602083019252565b613f33614f10565b60208082518301019101614f49565b6001905b8382111561536d5750508215615133575b61512e90611f2e565b61508e565b61515261514a826000526017602052604060002090565b54809c61280f565b9a61515d8289611f21565b90600091604089015189518b82518181108084519384109381615365575b81615342575b5015615274575050506020808351835180821060001461526c5750935b0151910151808211156152645750905b8086111561525e575084905b6151c381611ee8565b8c101561525057508a5b81811161523d575b50505b808311615235575b826151ea91611f21565b918061521f575b50816151ff575b5050615125565b9a6152116152179261512e949d614fa9565b9061280f565b9990386151f8565b9a615211829c61522e93614fa9565b99386151f1565b9150816151e0565b615248929450611f21565b9138806151d5565b61525990611ee8565b6151cd565b906151ba565b9050906151ae565b90509361519e565b939192936152ec575b505061528a575b506151d8565b8051808611156152e35750602085915b016152a58151611ee8565b8c10156152d457508a5b8181116152bd575b50615284565b6152cc9294916142af91611f21565b9138806152b7565b6152de9051611ee8565b6152af565b6020909161529a565b808811156153395750602087915b018d6153068251611ee8565b111561532a57508c5b8181111561527d57615322929650611f21565b93388061527d565b6153349051611ee8565b61530f565b602090916152fa565b90506020860151108015615358575b1538615181565b5081602085015110615351565b84915061517b565b909c61538161537b8f611f03565b88614f98565b5151158015615433575b6154295787518051841015908161541a575b5080156153f3575b156153d7576153cb6153d1918f6153be6153c491611f03565b85614f98565b5190611ef6565b9d611f2e565b90615114565b9c9d6153ed8f916153c46153be6153d194611f03565b9e611f2e565b5060208801518051841015908161540b575b506153a5565b60209150015183111538615405565b6020915001518311153861539d565b9c6153d190611f2e565b508d6154416139d0826113ea565b8410159081615452575b501561538b565b6154809150604061547761547161546b6139d0856113ea565b93611f03565b8b614f98565b51015190611ef6565b8311158e61544b565b60c8600052601c6020527f922f6af691981b741eb02b3ed3453cc38ce623e8709ce524bd43bdbfc62af0998054929190831561555f576001841661554757505060c8600052601c6020526139d06155097f922f6af691981b741eb02b3ed3453cc38ce623e8709ce524bd43bdbfc62af09961550385611f12565b9061173a565b905460c8600052601c60205260039190911b1c926155037f922f6af691981b741eb02b3ed3453cc38ce623e8709ce524bd43bdbfc62af09991611f03565b6155036155549294611f03565b90549060031b1c9190565b5091508190565b60026000908152601c6020527ff5b6e61a0c14f171ef1c86f003900ef0305e4159fff3317e4fb7c351f2050c8780549193929082156155f157600183166155e25750506139d09060028452601c60205261550360406155ca81872061550385611f12565b90549060031b1c9560028152601c6020522091611f03565b90935061550361555492611f03565b509250508190565b60036000818152601c6020527fb0deb225ecd3a242ef7d55f0f81ae3b924e0b6f9da8bc33b306fb32ca5f287f78054919493908215615692576001831661567a57505061567290828552601c602052615503604061565c81882061550385611f12565b905490861b1c96858152601c6020522091611f03565b9054911b1c90565b90945061550361568992611f03565b9054911b1c9190565b50935050508190565b60056000908152601c6020527f0de3fcd0b495fcf96d4f4ab29f8e12012b60a56d458f4c95fdde42b927ce97a080549193929082156155f157600183166155e25750506139d09060058452601c60205261550360406156ff81872061550385611f12565b90549060031b1c9560058152601c6020522091611f03565b60066000908152601c6020527fb2d730c3da277545f6c9f2c922ea3d0e9fcbd74e29d321b995a837ef61c283f080549193929082156155f157600183166155e25750506139d09060068452601c602052615503604061577b81872061550385611f12565b90549060031b1c9560068152601c6020522091611f03565b600090816001815b600f821115615814575050606560005260156020527f535b9e1ac68faf16e764f210b80ec6320ee232f7656b4f9a2d0a74437eceaaac548101809111611ed55760686000526015602052917f7ee1f11581f85e8bd439e065fc0e6555ccc3142caeda52fdbb7bed5ad7a8306a548101809111611ed55790565b9093848252602092601a8452604090818420548101809111611ed557601b9094878552528220548101809111611ed55761584e9094611f2e565b9061579b565b91909161585f611fc0565b928115615caa5760018214615b845760028214615a59576003821461596e576158ae9061588a6160a2565b906008546158988282611ef6565b831115615967576158a99250611ef6565b61491a565b9060048114615918576005146158c15750565b9091506101a06158cf611d20565b9160e08101518352610100810151602084015261012081015160408401526101408101516060840152610160810151608084015261018081015160a0840152015160c082015290565b5090915060c0615926611d20565b91805183526020810151602084015260408101516040840152606081015160608401526080810151608084015260a081015160a0840152015160c082015290565b505061491a565b5050905061597a611d20565b7fa31547ce6245cdb9ecea19cf8c7eb9f5974025bb4075011409251ae855b30aed5481527fce9b89faa7d00b5a0dcea74b754372f1c8c1e2788b44e0b6fc99899848f9baf7546020808301919091527f6b9301c903fb63b5bb3b4ed52f960f66e3a0c33bca0ea2f28cf6e34d2eb058dd5460408301527f535b9e1ac68faf16e764f210b80ec6320ee232f7656b4f9a2d0a74437eceaaac5460608301526068600090815260159091527f7ee1f11581f85e8bd439e065fc0e6555ccc3142caeda52fdbb7bed5ad7a8306a54608083015260a0820181905260c082015290565b50509050615a65611d20565b7f3bda72f6153f13a10a865b9a6397e1123f4aa6a1726e0e1349cd07eb0e24d8155481527f778c823f9b5f066b3c9d60b855427fd2999fcc25aebe3320977c1598596fffaf546020808301919091527fed5e5ecd5cb229fc7c2ed17e5e7cdfdc1d0a81991bd95ffdc4cdf25aca2d2ac35460408301527f2d1305887a553ebca964114eb55137666ae056a13c7d9c5dcf078bd3a9732a385460608301527fa5165e376b84f33a3c944a34b062595f1fb4afde844645ed23ed1e10c257ebe15460808301527fe06932cbfde2f2475d8c82e797702b1bf34af837520e34a39e7e7b5e28f71d5f5460a08301526015600081905290527ff38242ae41b6250df1acd58d7376889913b9221d9b2e1d2e50fb7d62671fa7335b5460c082015290565b50509050615b90611d20565b7f2d0e46a571fdfbe57c7c718891a8a12999c102dfffa2b3314ea165dedd1684f55481527f497613c0658032a90a449a944031c57b1d03996c3a6148fe12146c45cf321400546020808301919091527f0cfcac9f3767130657d3b01a9146da544eeb39eb9670066ace5e84da7fc4319f5460408301527fcaeae41dfed97dfd8c41876ff591faa3e36cda388621c550caa3321a2a624e5f5460608301527f74c10a04815bbeaf3165dab0bd11b69aae73edf00a48b27ec8c53ac5b61d47fd5460808301527fe3e3bb3f660b5aca6f44f8cdafd6456c07cd53888341ab748ffc02d532ccc70e5460a0830152600e600052601590527f39f65be0de5254440eb2b93b160b1af3a4f45fe0571eaea7ef454b27b7f02d18615b7b565b50509050615cb6611d20565b7f27739e4bb5e6f8b5e4b57a047dca8767cc9b982a011081e086cbb0dfa9de818d5481527f07d4ff730d9753101d832555708a37d38c2c45fce8cacaefc99f06074e93fe0b546020808301919091527fb3a65e8276bd33b3e4f7d6081ebd9899187264822358758dca2e2bc37b2a9c275460408301527f8191f4eb6b8bafbfe9a5389c8d07d7f5fd81137a7ee653fc4358269845ee1d2e5460608301527fbab719002e4be320868650dc7456e9a1d245e4d5dd64765588e2f21529d871d35460808301527f25847c9ccf691da811a9f934d6b3b92e6062ef92feb71bf4cb08cbb4fad8d6525460a08301526007600052601590527f5d0f48e37dc1225cdee8d6f2a0315d796f55423522fe638d7d95421802dfc006615b7b565b15615dd757565b606460405162461bcd60e51b815260206004820152601960248201527f6f776e2e7361666567756172642e63616c6c2e6661696c6564000000000000006044820152fd5b908160209103126103f857516116828161080a565b6001600160a01b03600054166040518091634bf9c0ad60e11b825281600460209384935afa9182156103e25761168292615eb891600091615ed3575b50604051615e79816115f7565b600881527f69735361666528290000000000000000000000000000000000000000000000008482015260405191615eaf83611613565b60008352616449565b919080615ec9575b6106c990615dd0565b5081518114615ec0565b615eea9150833d85116103db576103cc818361164b565b38615e6c565b60405190615efd826115f7565b601582527f69735365637572654261736528616464726573732900000000000000000000006020830152565b15615f3057565b606460405162461bcd60e51b815260206004820152601a60248201527f6f776e2e736563757265626173652e63616c6c2e6661696c65640000000000006044820152fd5b6000546001600160a01b0316604051918291634bf9c0ad60e11b835282600460209485935afa9283156103e25761168293615fe09261069c92600092615ffb575b50615fd8906040519384918783019190916001600160a01b036020820193169052565b6106b2615ef0565b919080615ff1575b6106c990615f29565b5081518114615fe8565b615fd891925061601790863d88116103db576103cc818361164b565b9190615fb5565b6040519061602b826115f7565b601182527f69735369676e65722861646472657373290000000000000000000000000000006020830152565b1561605e57565b606460405162461bcd60e51b815260206004820152601660248201527f6f776e2e7369676e65722e63616c6c2e6661696c6564000000000000000000006044820152fd5b600460206001600160a01b03600054166040519283809263111ea8c160e21b82525afa80156103e25761168291600091616124575b506040516160e4816115f7565b600581527f616765282900000000000000000000000000000000000000000000000000000060208201526040519161611b83611613565b6000835261657f565b61613c915060203d81116103db576103cc818361164b565b386160d7565b6040519061614f826115f7565b601882527f697364656c656761746f724e6f646528616464726573732900000000000000006020830152565b6001600160a01b038091169081156161c857600154826001600160a01b0319821617600155167f8292fce18fa69edf4db7b94ea2e58241df0ae57f97e0a6c9b29067028bf92d76600080a3565b606460405162461bcd60e51b815260206004820152601160248201527f6f776e2e696e76616c69642e6f776e65720000000000000000000000000000006044820152fd5b3d15616237573d9061621d82611d2d565b9161622b604051938461164b565b82523d6000602084013e565b606090565b908015611710576001600160a01b0382169182156162e257600080808481945af161626561620c565b501561629e576040519081527fcec1f18c3ab8ddaaa107a1591e3c369667eec613626611a8deaedef43069fcdd9080602081015b0390a2565b606460405162461bcd60e51b815260206004820152601360248201527f6f776e2e7472616e736665722e6661696c6564000000000000000000000000006044820152fd5b606460405162461bcd60e51b815260206004820152600e60248201527f6f776e2e696e76616c69642e746f0000000000000000000000000000000000006044820152fd5b6000600460206001600160a01b03835416604051928380927f46f991ac0000000000000000000000000000000000000000000000000000000082525afa9081156103e2578284819382938391616400575b505af161638261620c565b50156163bc5760405190815233907fcdcc745fe377b103b45fa0cec23ae3ef93d6fc6a84a01f0d18c40b354dd1d5d8908060208101616299565b606460405162461bcd60e51b815260206004820152600f60248201527f6f776e2e6275726e2e6661696c656400000000000000000000000000000000006044820152fd5b616418915060203d81116103db576103cc818361164b565b38616377565b906164299291616449565b9060009015616436575090565b604051915061644482611613565b815290565b9190823b156164e1577fffffffff00000000000000000000000000000000000000000000000000000000815160208093012016916040519180830193845281519160005b8381106164cd5750505091816164ba6024826000979596889701878382015203600481018452018261164b565b5191620dbba0fa6164c961620c565b9091565b81810183015185820160240152820161648d565b5050506000906040516164f381611613565b6000815290565b929161650891600094616449565b9080616538575b6165165750565b6001600160a01b03919250806020806165349351830101910161166d565b1690565b50602081511461650f565b929161655191600094616449565b9080616574575b61655f5750565b61168291925060208082518301019101615e1b565b506020815114616558565b929161658d91600094616449565b90806165b2575b61659b5750565b9091506020818051810103126103f8576020015190565b506020815114616594565b90602082519201517fffffffff000000000000000000000000000000000000000000000000000000009081811693600481106165f857505050565b60040360031b82901b16169150565b6001600160a01b038116156166b857600080918351908260208601915af19061662e61620c565b9115616638575090565b8051600091906004116166b25761664f91506165bd565b81511561665f5750805190602001fd5b6024907fffffffff00000000000000000000000000000000000000000000000000000000604051917f21c09d34000000000000000000000000000000000000000000000000000000008352166004820152fd5b5061664f565b606460405162461bcd60e51b815260206004820152601260248201527f6f776e2e696e76616c69642e74617267657400000000000000000000000000006044820152fd5b803b600061670982611d2d565b92616717604051948561164b565b82845260208401903c602d81511061673357602a015160601c90565b606460405162461bcd60e51b815260206004820152601360248201527f4e6f742061206d696e696d616c2070726f7879000000000000000000000000006044820152fdfea26469706673582212200c240ac54c358785b4c057156f002e9bbdc01b9dbd3645efd0f23f691689db0c64736f6c63430008140033","linkReferences":{}},"methodIdentifiers":{"Burn(uint256)":"b90306ad","BurnCoin()":"7bfbfecb","LSB(uint256)":"a98bf4f9","_compute(uint256)":"2c2838e8","_delegatorCount()":"a1f7f539","_getImplementation(address)":"c54e44b0","_importOld(uint256)":"141ca660","_isDelegatorNode(address)":"e01ad5fd","_isSafe()":"e0a9bc2b","_isSecureBase(address)":"af484526","_isSigner(address)":"1f185d16","_txnType7(uint256,uint256)":"02a085f2","_txnType_1_0(address,uint256,uint256,uint256,uint256)":"932ca2d6","addLevelnGetRank(uint256,uint256,uint256,uint256,uint256,uint256,bool)":"4bc21fd6","bonus()":"75b4d78c","cage()":"69245009","capStatus()":"a1531545","dage()":"725b6fff","getAllIncome(uint256,uint256)":"a20199ac","getBalance()":"12065fe0","getHexbase()":"3b9b7955","getNodeLB(uint256)":"da021335","getRankWithAgeValue()":"29ee350e","getToggleAgeCount(uint256)":"143ec3b7","getToggleAgeValue(uint256,uint256)":"043719b4","id()":"af640d0f","isLock()":"09d8da2e","mintCount()":"9659867e","mints(uint256)":"6350b2c2","moveLvlIncome(uint256,uint256,uint256,uint256,uint256,bool)":"393a9f95","owner()":"8da5cb5b","postInit()":"4a65786c","preinit(address,address,uint256)":"52902c59","rank()":"934209ce","rankage(uint256)":"d3a1a499","setBonus(uint256)":"0b98f975","setLock(bool)":"619d5194","setSuspend(uint256,bool)":"c8ef7b1a","systemAge()":"fdc10bc9","updateOwner(address)":"880cdc31","userCycleMintCount(uint256)":"39b4d61b","withdrawlDage()":"a9bf285b"},"id":53}