{"abi":[{"type":"constructor","inputs":[{"name":"_hex","type":"address","internalType":"address"}],"stateMutability":"nonpayable"},{"type":"fallback","stateMutability":"payable"},{"type":"receive","stateMutability":"payable"},{"type":"function","name":"Burn","inputs":[{"name":"amount","type":"uint256","internalType":"uint256"}],"outputs":[],"stateMutability":"nonpayable"},{"type":"function","name":"BurnCoin","inputs":[],"outputs":[],"stateMutability":"payable"},{"type":"function","name":"LSB","inputs":[{"name":"","type":"uint256","internalType":"uint256"}],"outputs":[{"name":"","type":"int256","internalType":"int256"}],"stateMutability":"view"},{"type":"function","name":"_compute","inputs":[{"name":"endage","type":"uint256","internalType":"uint256"}],"outputs":[{"name":"r","type":"tuple","internalType":"struct InstanceStor.ComputeResult","components":[{"name":"p1","type":"uint256","internalType":"uint256"},{"name":"p2","type":"uint256","internalType":"uint256"},{"name":"p3","type":"uint256","internalType":"uint256"},{"name":"p4","type":"uint256","internalType":"uint256"},{"name":"p5","type":"uint256","internalType":"uint256"},{"name":"p6","type":"uint256","internalType":"uint256"},{"name":"p7","type":"uint256","internalType":"uint256"},{"name":"f1","type":"uint256","internalType":"uint256"},{"name":"f2","type":"uint256","internalType":"uint256"},{"name":"f3","type":"uint256","internalType":"uint256"},{"name":"f4","type":"uint256","internalType":"uint256"},{"name":"f5","type":"uint256","internalType":"uint256"},{"name":"f6","type":"uint256","internalType":"uint256"},{"name":"f7","type":"uint256","internalType":"uint256"},{"name":"lsb","type":"int256","internalType":"int256"}]}],"stateMutability":"view"},{"type":"function","name":"_delegatorCount","inputs":[],"outputs":[{"name":"","type":"uint256","internalType":"uint256"}],"stateMutability":"view"},{"type":"function","name":"_getImplementation","inputs":[{"name":"clone","type":"address","internalType":"address"}],"outputs":[{"name":"impl","type":"address","internalType":"address"}],"stateMutability":"view"},{"type":"function","name":"_importOld","inputs":[{"name":"limit","type":"uint256","internalType":"uint256"}],"outputs":[],"stateMutability":"payable"},{"type":"function","name":"_isDelegatorNode","inputs":[{"name":"sender","type":"address","internalType":"address"}],"outputs":[{"name":"","type":"bool","internalType":"bool"}],"stateMutability":"view"},{"type":"function","name":"_isSafe","inputs":[],"outputs":[{"name":"","type":"bool","internalType":"bool"}],"stateMutability":"view"},{"type":"function","name":"_isSecureBase","inputs":[{"name":"sender","type":"address","internalType":"address"}],"outputs":[{"name":"","type":"bool","internalType":"bool"}],"stateMutability":"view"},{"type":"function","name":"_isSigner","inputs":[{"name":"sender","type":"address","internalType":"address"}],"outputs":[{"name":"","type":"bool","internalType":"bool"}],"stateMutability":"view"},{"type":"function","name":"_txnType7","inputs":[{"name":"_maxint","type":"uint256","internalType":"uint256"},{"name":"_ag","type":"uint256","internalType":"uint256"}],"outputs":[{"name":"CALC_INC","type":"uint256[9]","internalType":"uint256[9]"}],"stateMutability":"payable"},{"type":"function","name":"_txnType_1_0","inputs":[{"name":"paramAdd","type":"address","internalType":"address"},{"name":"_id_maxint","type":"uint256","internalType":"uint256"},{"name":"_qty","type":"uint256","internalType":"uint256"},{"name":"_msgValue","type":"uint256","internalType":"uint256"},{"name":"_type","type":"uint256","internalType":"uint256"}],"outputs":[{"name":"_tvl","type":"uint256","internalType":"uint256"},{"name":"_amt","type":"uint256","internalType":"uint256"}],"stateMutability":"payable"},{"type":"function","name":"addLevelnGetRank","inputs":[{"name":"_amount","type":"uint256","internalType":"uint256"},{"name":"_qty","type":"uint256","internalType":"uint256"},{"name":"_level","type":"uint256","internalType":"uint256"},{"name":"_epochAge","type":"uint256","internalType":"uint256"},{"name":"_free","type":"uint256","internalType":"uint256"},{"name":"_tobeSkipped","type":"bool","internalType":"bool"}],"outputs":[{"name":"currentrnk","type":"uint256","internalType":"uint256"}],"stateMutability":"nonpayable"},{"type":"function","name":"bonus","inputs":[],"outputs":[{"name":"","type":"uint256","internalType":"uint256"}],"stateMutability":"view"},{"type":"function","name":"cage","inputs":[],"outputs":[{"name":"","type":"uint256","internalType":"uint256"}],"stateMutability":"view"},{"type":"function","name":"capStatus","inputs":[],"outputs":[{"name":"totalIncome","type":"uint256","internalType":"uint256"},{"name":"threshold","type":"uint256","internalType":"uint256"},{"name":"_cap","type":"bool","internalType":"bool"},{"name":"currentValue","type":"uint256","internalType":"uint256"}],"stateMutability":"view"},{"type":"function","name":"dage","inputs":[],"outputs":[{"name":"","type":"uint256","internalType":"uint256"}],"stateMutability":"view"},{"type":"function","name":"directsCount","inputs":[],"outputs":[{"name":"","type":"uint256","internalType":"uint256"}],"stateMutability":"view"},{"type":"function","name":"getAllIncome","inputs":[{"name":"typeId","type":"uint256","internalType":"uint256"},{"name":"maxinterwal","type":"uint256","internalType":"uint256"}],"outputs":[{"name":"values","type":"uint256[7]","internalType":"uint256[7]"}],"stateMutability":"view"},{"type":"function","name":"getBalance","inputs":[],"outputs":[{"name":"","type":"uint256","internalType":"uint256"}],"stateMutability":"view"},{"type":"function","name":"getHexbase","inputs":[],"outputs":[{"name":"","type":"address","internalType":"address"}],"stateMutability":"view"},{"type":"function","name":"getNodeLB","inputs":[{"name":"_level","type":"uint256","internalType":"uint256"}],"outputs":[{"name":"","type":"tuple","internalType":"struct InstanceStor.LevelInfoStr","components":[{"name":"lvlbs","type":"uint256","internalType":"uint256"},{"name":"lvlqty","type":"uint256","internalType":"uint256"},{"name":"lvlrwrd","type":"uint256","internalType":"uint256"},{"name":"lvlyei","type":"uint256","internalType":"uint256"}]}],"stateMutability":"view"},{"type":"function","name":"getNodeLvlInfoBatch","inputs":[{"name":"from","type":"uint256","internalType":"uint256"},{"name":"to","type":"uint256","internalType":"uint256"}],"outputs":[{"name":"info","type":"tuple[]","internalType":"struct InstanceStor.LevelInfoStr[]","components":[{"name":"lvlbs","type":"uint256","internalType":"uint256"},{"name":"lvlqty","type":"uint256","internalType":"uint256"},{"name":"lvlrwrd","type":"uint256","internalType":"uint256"},{"name":"lvlyei","type":"uint256","internalType":"uint256"}]}],"stateMutability":"view"},{"type":"function","name":"getRankAgeInBatch","inputs":[],"outputs":[{"name":"rankagebatch","type":"uint256[]","internalType":"uint256[]"}],"stateMutability":"view"},{"type":"function","name":"getRankWithAgeValue","inputs":[],"outputs":[{"name":"","type":"uint256","internalType":"uint256"},{"name":"","type":"uint256","internalType":"uint256"}],"stateMutability":"view"},{"type":"function","name":"getToggleAgeCount","inputs":[{"name":"key","type":"uint256","internalType":"uint256"}],"outputs":[{"name":"","type":"uint256","internalType":"uint256"}],"stateMutability":"view"},{"type":"function","name":"getToggleAgeValue","inputs":[{"name":"key","type":"uint256","internalType":"uint256"},{"name":"index","type":"uint256","internalType":"uint256"}],"outputs":[{"name":"","type":"uint256","internalType":"uint256"}],"stateMutability":"view"},{"type":"function","name":"id","inputs":[],"outputs":[{"name":"","type":"uint256","internalType":"uint256"}],"stateMutability":"view"},{"type":"function","name":"isLock","inputs":[],"outputs":[{"name":"","type":"bool","internalType":"bool"}],"stateMutability":"view"},{"type":"function","name":"mintCount","inputs":[],"outputs":[{"name":"","type":"uint256","internalType":"uint256"}],"stateMutability":"view"},{"type":"function","name":"mints","inputs":[{"name":"","type":"uint256","internalType":"uint256"}],"outputs":[{"name":"amt","type":"uint256","internalType":"uint256"},{"name":"qty","type":"uint256","internalType":"uint256"},{"name":"mage","type":"uint256","internalType":"uint256"},{"name":"nft","type":"address","internalType":"address"}],"stateMutability":"view"},{"type":"function","name":"moveLvlIncome","inputs":[{"name":"_amount","type":"uint256","internalType":"uint256"},{"name":"_qty","type":"uint256","internalType":"uint256"},{"name":"_level","type":"uint256","internalType":"uint256"},{"name":"_epochAge","type":"uint256","internalType":"uint256"},{"name":"_op","type":"bool","internalType":"bool"}],"outputs":[{"name":"lastrnk","type":"uint256","internalType":"uint256"},{"name":"currentrnk","type":"uint256","internalType":"uint256"}],"stateMutability":"nonpayable"},{"type":"function","name":"owner","inputs":[],"outputs":[{"name":"","type":"address","internalType":"address"}],"stateMutability":"view"},{"type":"function","name":"postInit","inputs":[],"outputs":[{"name":"","type":"bool","internalType":"bool"}],"stateMutability":"view"},{"type":"function","name":"preinit","inputs":[{"name":"_hex","type":"address","internalType":"address"},{"name":"_own","type":"address","internalType":"address"},{"name":"_id","type":"uint256","internalType":"uint256"}],"outputs":[],"stateMutability":"nonpayable"},{"type":"function","name":"rank","inputs":[],"outputs":[{"name":"","type":"uint256","internalType":"uint256"}],"stateMutability":"view"},{"type":"function","name":"rankage","inputs":[{"name":"","type":"uint256","internalType":"uint256"}],"outputs":[{"name":"","type":"uint256","internalType":"uint256"}],"stateMutability":"view"},{"type":"function","name":"setBonus","inputs":[{"name":"b","type":"uint256","internalType":"uint256"}],"outputs":[],"stateMutability":"nonpayable"},{"type":"function","name":"setLock","inputs":[{"name":"flag","type":"bool","internalType":"bool"}],"outputs":[],"stateMutability":"nonpayable"},{"type":"function","name":"setSuspend","inputs":[{"name":"key","type":"uint256","internalType":"uint256"},{"name":"value","type":"bool","internalType":"bool"}],"outputs":[],"stateMutability":"nonpayable"},{"type":"function","name":"setdirect","inputs":[{"name":"addremove","type":"bool","internalType":"bool"}],"outputs":[],"stateMutability":"nonpayable"},{"type":"function","name":"systemAge","inputs":[],"outputs":[{"name":"","type":"uint256","internalType":"uint256"}],"stateMutability":"view"},{"type":"function","name":"updateOwner","inputs":[{"name":"_newowner","type":"address","internalType":"address"}],"outputs":[],"stateMutability":"nonpayable"},{"type":"function","name":"userCycleMintCount","inputs":[{"name":"","type":"uint256","internalType":"uint256"}],"outputs":[{"name":"","type":"uint256","internalType":"uint256"}],"stateMutability":"view"},{"type":"function","name":"withdrawlDage","inputs":[],"outputs":[{"name":"","type":"uint256","internalType":"uint256"}],"stateMutability":"view"},{"type":"event","name":"EthBurned","inputs":[{"name":"sender","type":"address","indexed":true,"internalType":"address"},{"name":"amount","type":"uint256","indexed":false,"internalType":"uint256"}],"anonymous":false},{"type":"event","name":"EthTransferred","inputs":[{"name":"to","type":"address","indexed":true,"internalType":"address"},{"name":"amount","type":"uint256","indexed":false,"internalType":"uint256"}],"anonymous":false},{"type":"event","name":"HexBaseUpdated","inputs":[{"name":"previousHexBase","type":"address","indexed":true,"internalType":"address"},{"name":"newHexBase","type":"address","indexed":true,"internalType":"address"}],"anonymous":false},{"type":"event","name":"LogTxns","inputs":[{"name":"from","type":"address","indexed":false,"internalType":"address"},{"name":"orc1155","type":"address","indexed":false,"internalType":"address"},{"name":"_amt","type":"uint256","indexed":false,"internalType":"uint256"},{"name":"_value","type":"uint256","indexed":false,"internalType":"uint256"},{"name":"_time","type":"uint256","indexed":false,"internalType":"uint256"},{"name":"_type","type":"uint256","indexed":false,"internalType":"uint256"}],"anonymous":false},{"type":"event","name":"OwnerUpdated","inputs":[{"name":"previousOwner","type":"address","indexed":true,"internalType":"address"},{"name":"newOwner","type":"address","indexed":true,"internalType":"address"}],"anonymous":false},{"type":"error","name":"GlobalPoolLimitReached","inputs":[]},{"type":"error","name":"ImportLimitExceeded","inputs":[]},{"type":"error","name":"InvalidClone","inputs":[]},{"type":"error","name":"InvalidMintCycleLimit","inputs":[]},{"type":"error","name":"InvalidValue","inputs":[]},{"type":"error","name":"InvalidnewOwner","inputs":[]},{"type":"error","name":"MintLimitExceeded","inputs":[]},{"type":"error","name":"PreInitException","inputs":[]},{"type":"error","name":"ReentrancyGuardReentrantCall","inputs":[]},{"type":"error","name":"StorLocked","inputs":[]},{"type":"error","name":"TargetCallFailed","inputs":[{"name":"selector","type":"bytes4","internalType":"bytes4"}]},{"type":"error","name":"UnsecureORC1155","inputs":[]}],"bytecode":{"object":"0x608034620000d157601f62005ea338819003918201601f19168301916001600160401b03831184841017620000d657808492602094604052833981010312620000d157516001600160a01b03811690819003620000d15780156200008c5760018060a01b03193381600154161760015560005416176000556001600355604051615db69081620000ed8239f35b60405162461bcd60e51b815260206004820152601360248201527f6f776e2e696e76616c69642e68657862617365000000000000000000000000006044820152606490fd5b600080fd5b634e487b7160e01b600052604160045260246000fdfe60806040526004361015610018575b361561001657005b005b60003560e01c806302a085f2146102f8578063043719b4146102f357806309d8da2e146102ee5780630b98f975146102e957806312065fe0146102e4578063141ca660146102df578063143ec3b7146102da5780631f185d16146102d557806329ee350e146102d05780632c2838e8146102cb57806339b4d61b146102c65780633b9b7955146102c15780634a65786c146102bc57806352902c59146102b7578063619d5194146102b25780636350b2c2146102ad57806369245009146102a85780636de97c66146102a3578063725b6fff1461029e578063759f22bd1461029957806375b4d78c146102945780637b058ac11461028f5780637bfbfecb1461028a578063822ffec414610285578063880cdc31146102805780638da5cb5b1461027b578063932ca2d614610276578063934209ce146102715780639659867e1461026c578063a153154514610267578063a1f7f53914610262578063a20199ac1461025d578063a98bf4f914610258578063a9bf285b14610253578063af4845261461024e578063af640d0f14610249578063b90306ad14610244578063c54e44b01461023f578063c8ef7b1a1461023a578063d2a1590414610235578063d3a1a49914610230578063da0213351461022b578063deb1ba1e14610226578063e01ad5fd14610221578063e0a9bc2b1461021c5763fdc10bc90361000e57611d04565b611ce9565b611c4a565b611b93565b611b2a565b611afe565b611ab8565b6119fe565b6119c5565b611912565b6118f4565b6118c3565b6118a5565b611879565b61182d565b611786565b611751565b611733565b611715565b611653565b61162a565b611573565b611494565b61133a565b611265565b611247565b611182565b6110f9565b611067565b61100e565b610fb7565b610ef3565b610dea565b610dc4565b610d9b565b610d5c565b610788565b61074f565b61065c565b610613565b610562565b610546565b61049f565b61047c565b610440565b61032c565b610120810192916000915b6009831061031557505050565b600190825181526020809101920192019190610308565b604036600319011261043b5760405161034481611db9565b61012036823760ff600454166104295761036461035f6154fd565b611d27565b61036d33615625565b80156103a1575b61039d9161038461039192611e6d565b60243590600435906126ad565b604051918291826102fd565b0390f35b50600054604051630536340960e21b8152916001600160a01b03916020908490600490829086165afa9283156104245761039d9361039193610384926000926103f4575b50339116149250509150610374565b61041691925060203d811161041d575b61040e8183611e26565b810190611e49565b90386103e5565b503d610404565b611e61565b60405163658141c160e01b8152600490fd5b600080fd5b3461043b57604036600319011261043b57600435600052601a602052602061046e6024356040600020611f15565b90546040519160031b1c8152f35b3461043b57600036600319011261043b57602060ff600454166040519015158152f35b3461043b57602036600319011261043b576104bb61035f6154fd565b6104c433615625565b80156104df575b6104d490611e6d565b610016600435600555565b50600054604051630536340960e21b8152906001600160a01b03906020908390600490829085165afa908115610424576104d492600092610526575b5016331490506104cb565b61053f91925060203d811161041d5761040e8183611e26565b903861051b565b3461043b57600036600319011261043b57602047604051908152f35b602036600319011261043b5761057961035f6154fd565b61058233615625565b80156105ac575b61059290611e6d565b61059a612676565b6105a560043561318f565b6001600355005b50600054604051630536340960e21b8152906001600160a01b03906020908390600490829085165afa90811561042457610592926000926105f3575b501633149050610589565b61060c91925060203d811161041d5761040e8183611e26565b90386105e8565b3461043b57602036600319011261043b57600435600052601a6020526020604060002054604051908152f35b6001600160a01b031690565b6001600160a01b0381160361043b57565b3461043b5760208060031936011261043b5760049081359061067d8261064b565b8061069161068c60005461063f565b61063f565b604051634bf9c0ad60e11b815294859182905afa918215610424576106d6610710936106f29261039d9660009261072c575b506106e490604051938491878301610d88565b03601f198101845283611e26565b6106ec6156c8565b90615a83565b919080610722575b610703906156f5565b80825183010191016154e8565b60405190151581529081906020820190565b50815181146106fa565b6106e491925061074890863d881161041d5761040e8183611e26565b91906106c3565b3461043b57600036600319011261043b57600b54600881101561078357600d81015460408051928352602083019190915290f35b611ad6565b3461043b57602036600319011261043b576101e06107a7600435614432565b60405190805182526020810151602083015260408101516040830152606081015160608301526080810151608083015260a081015160a083015260c081015160c083015260e081015160e0830152610100808201519083015261012080820151908301526101408082015190830152610160808201519083015261018080820151908301526101a080820151908301526101c08091015190820152f35b6000526019602052604060002090565b6000805260166020527f0263c2b778d062355049effc2dece97bc6547ff8a88a3258daa512061c2153dd90565b6000526017602052604060002090565b600f60005260166020527fc361f6d77665192d237562bd0853419e4f63406390ab643d0f1cdbcdd3e2cbae90565b601060005260166020527f2a87e474c76dec5537d547c3958b767dcf7498ad7afcca0a2eb8ad1481fbf5b690565b601160005260166020527f8419164215688829c599d418012c77589d6ed4c687dc9e57a4a19678f70f8a3190565b601260005260166020527f8531638db615388f9d93ea5c79a334675d6050f9d301f5b6af156a74ff56963590565b601360005260166020527f8e8ddf6db11641650f4fdf401a12def6a7e0b43b7e1e0b4a9bb751fc3ac1eab590565b601460005260166020527f7beb2646ec614ee6b553f9ed5c257fdce28fa220de7a1708afec2ddbe81f1b3090565b601560005260166020527fe3be994f4df1ce307d3423eeebbbb0cd25598c1b97b848f71392674439a00e3790565b600860005260166020527f5d722ae86c7aff0f95f426cf86f75793e8cd1a526603df14563c190f75fd2ef390565b600b60005260166020527fcfa8b17cfe829ccfb82a1b8bc946a78d914318562253e01c04a5bbac5c20f86b90565b600960005260166020527f650982f08e47212452de30f662e413cf6044e641dedc09b52c1617e804a2611e90565b600a60005260166020527fd5b9797c47f98351da0d9dc8805f06430ade47345ddb9b2bd6f346a04809cc4190565b600c60005260166020527f329445f4448b7d20eec86c1386b39f5d1ed2d5f198689536ebcae9f2881958c390565b600d60005260166020527f1f3872f63ca641494b685e4fa2176636d028d8c80f254656e89768cf2724327390565b600e60005260166020527fd6e1ce7303b8b03e4f8e61fd057015f1c58732e116f2a323c5d9ed9df544bd9a90565b6000526016602052604060002090565b601f60005260166020527f50eede7cc9d9157638c32051246e3b16ef1b4d09c2f4b59ff806a325cf84bf2c90565b60206000526016602052604060002090565b6000526018602052604060002090565b6000805260196020527fd2ac945fcc0096878c763e37d6929b78378c1a2defabde8ba7ee5ed1d6e7a5b290565b600160005260166020527f4c4dc693d7db52f85fe052106f4b4b920e78e8ef37dee82878a60ab8585faf4990565b600260005260166020527fcaff291fe014adc6b72a172705750b4cabe8f8667664d2924a166caab288564890565b600360005260166020527ff06d282f967055cb1eee17e04aa005b9682a620f4bbcfaee55ba78607a3d87ae90565b600460005260166020527fec061709de2491458f4c981032059d7d19b0e55f45018bac6b3e660bdc959a5990565b600660005260166020527fc6a239f207aea309a1b4879cb5411b8facfc2bc1e4cc4717ff2598676c399b5f90565b600760005260166020527f5c9294642c77fdf0ce4b0f45159c977165b1ec2ef3bb94ee3e2a496634c781e890565b606560005260166020527fa03de401ff86fc22e691d3563b736c9fadf4f2babab79e9b7995ce6f656920a790565b606860005260166020527f5a2cd1a21e67d7dda0aeee7dda01b941de71cc935cebfacc2b9b226beb2ced3390565b600560005260166020527f5696377e725b42a372ecc45f0fbdab5e9555865aef54619ad9381892f667bbf090565b60c8600052601a602052600080516020615d6183398151915290565b3461043b57602036600319011261043b5760043560005260156020526020604060002054604051908152f35b6001600160a01b03909116815260200190565b3461043b57600036600319011261043b576000546040516001600160a01b039091168152602090f35b3461043b57600036600319011261043b57602060ff60045460081c166040519015158152f35b3461043b57606036600319011261043b57600435610e078161064b565b602435610e138161064b565b6001600160a01b039182168015808015610edf575b610ecd57610e925782610e41610e87946000541661063f565b600080546001600160a01b0319166001600160a01b038516179055167fe939feee179e631422bcc8f6e6d7d908cb3f8af38f5372f17c77e15aea5c80ee600080a36157f9565b610016604435600755565b60405162461bcd60e51b81526020600482015260136024820152726f776e2e696e76616c69642e6865786261736560681b6044820152606490fd5b60405163a596f2f960e01b8152600490fd5b5083831615610e28565b8015150361043b57565b3461043b57602036600319011261043b57600435610f1081610ee9565b610f1b61035f6154fd565b610f2433615625565b8015610f4a575b90610f3861001692611e6d565b60ff8019600454169115151617600455565b50600054604051630536340960e21b81526001600160a01b0392916020908290600490829087165afa80156104245761001693610f3892600092610f97575b503391161491925050610f2b565b610fb091925060203d811161041d5761040e8183611e26565b9038610f89565b3461043b57602036600319011261043b57600435600052601760205260806040600020805490600181015490600281015490600360018060a01b039101541691604051938452602084015260408301526060820152f35b3461043b57600036600319011261043b576020600a54604051908152f35b6020908160408183019282815285518094520193019160005b828110611053575050505090565b835185529381019392810192600101611045565b3461043b57600036600319011261043b57600b5460018101908181116110f45761109082615425565b9161109e6040519384611e26565b8083526110ad601f1991615425565b0136602084013760005b818111156110cd576040518061039d858261102c565b600881101561078357806110ef91600d01546110e9828661548c565b52611fb2565b6110b7565b611f9c565b3461043b57600036600319011261043b576020600854604051908152f35b606080918051845260208101516020850152604081015160408501520151910152565b6020908160408183019282815285518094520193019160005b828110611161575050505090565b90919293826080826111766001948951611117565b01950193929101611153565b3461043b57604036600319011261043b57600435602435808211611212576111ad826111b292612618565b6125c3565b6111bb8161543c565b9160005b8281106111d4576040518061039d868261113a565b806111f26111ed6111e861120d94866125ed565b610844565b6153f3565b6111fc828761548c565b52611207818661548c565b50611fb2565b6111bf565b60405162461bcd60e51b815260206004820152600d60248201526c496e76616c69642072616e676560981b6044820152606490fd5b3461043b57600036600319011261043b576020600554604051908152f35b3461043b5760a036600319011261043b5760843561128281610ee9565b61128d61035f6154fd565b61129633615625565b80156112cd575b906112aa6112bb92611e6d565b6064356044356024356004356138cd565b60408051928352602083019190915290f35b50600054604051630536340960e21b81526001600160a01b0392916020908290600490829087165afa8015610424576112bb936112aa9260009261131a575b50339116149192505061129d565b61133391925060203d811161041d5761040e8183611e26565b903861130c565b6000806003193601126114915760ff6004541661042957611359612676565b61136961136461573a565b600255565b61137661068c825461063f565b6040519081631b4fc17b60e01b9182825281600460209586935afa8015610424576113aa918591611474575b5034906158b0565b6113b2610854565b6113bd3482546125ed565b90556113d66113ca614026565b50915050600254611f69565b816113e461068c855461063f565b9160046040518094819382525afa90811561042457600080516020615d41833981519152928492611457575b5050600254604080513381526001600160a01b0393909316602084015260009083015234606083015260808201526103e860a082015260c090a16114546001600355565b80f35b61146d9250803d1061041d5761040e8183611e26565b3880611410565b61148b9150843d861161041d5761040e8183611e26565b386113a2565b80fd5b3461043b5760c036600319011261043b5760a4356114b181610ee9565b6114bc61035f6154fd565b6114c533615625565b8015611500575b61039d916114dc6114f092611e6d565b6084356064356044356024356004356139ce565b6040519081529081906020820190565b50600054604051630536340960e21b8152916001600160a01b03916020908490600490829086165afa9283156104245761039d936114f0936114dc92600092611553575b503391161492505091506114cc565b61156c91925060203d811161041d5761040e8183611e26565b9038611544565b3461043b57602036600319011261043b576004356115908161064b565b61159b61035f6154fd565b6115a433615625565b80156115bd575b906115b861001692611e6d565b611fe8565b50600054604051630536340960e21b81526001600160a01b0392916020908290600490829087165afa801561042457610016936115b89260009261160a575b5033911614919250506115ab565b61162391925060203d811161041d5761040e8183611e26565b90386115fc565b3461043b57600036600319011261043b576001546040516001600160a01b039091168152602090f35b60a036600319011261043b5760043561166b8161064b565b61167661035f6154fd565b61167f33615625565b80156116a8575b906116936112bb92611e6d565b60843590606435906044359060243590612012565b50600054604051630536340960e21b81526001600160a01b0392916020908290600490829087165afa8015610424576112bb93611693926000926116f5575b503391161491925050611686565b61170e91925060203d811161041d5761040e8183611e26565b90386116e7565b3461043b57600036600319011261043b576020600b54604051908152f35b3461043b57600036600319011261043b576020600654604051908152f35b3461043b57600036600319011261043b57608061176c614026565b916040519384526020840152151560408301526060820152f35b3461043b57600036600319011261043b5760005460405163d1f956b160e01b815290602090829060049082906001600160a01b03165afa9081156104245761039d916114f09160009161180f575b506040516117e181611dd5565b601381527267657464656c656761746f72436f756e74282960681b602082015261180961249a565b91615ba4565b611827915060203d811161041d5761040e8183611e26565b386117d4565b3461043b57604036600319011261043b5761184c602435600435615141565b60405190600090825b600783106118625760e084f35b600190825181526020809101920192019190611855565b3461043b57602036600319011261043b5760043560005260186020526020604060002054604051908152f35b3461043b57600036600319011261043b576020600954604051908152f35b3461043b57602036600319011261043b5760206118ea6004356118e58161064b565b615625565b6040519015158152f35b3461043b57600036600319011261043b576020600754604051908152f35b3461043b57602036600319011261043b57600054604051630536340960e21b8152906001600160a01b03906020908390600490829085165afa918215610424576000926119a5575b503391160361196e57610016600435615983565b60405162461bcd60e51b815260206004820152600f60248201526e6f776e2e6e6f6e617574682e44414f60881b6044820152606490fd5b6119be91925060203d811161041d5761040e8183611e26565b903861195a565b3461043b57602036600319011261043b5760206119ec6004356119e78161064b565b615cce565b6040516001600160a01b039091168152f35b3461043b57604036600319011261043b57602435611a1b81610ee9565b611a2661035f6154fd565b611a2f33615625565b8015611a4b575b90611a4361001692611e6d565b600435611eb7565b50600054604051630536340960e21b81526001600160a01b0392916020908290600490829087165afa80156104245761001693611a4392600092611a98575b503391161491925050611a36565b611ab191925060203d811161041d5761040e8183611e26565b9038611a8a565b3461043b57600036600319011261043b576020600c54604051908152f35b634e487b7160e01b600052603260045260246000fd5b600881101561078357600d0190600090565b3461043b57602036600319011261043b57600435600881101561043b57602090600d0154604051908152f35b3461043b57602036600319011261043b57611b43612f17565b50600435600052601960205260806040600020600360405191611b6583611d7e565b80548352600181015460208401526002810154604084015201546060820152611b916040518092611117565bf35b3461043b57602036600319011261043b57600435611bb081610ee9565b611bbb61035f6154fd565b611bc433615625565b8015611bdd575b90611bd861001692611e6d565b611fc1565b50600054604051630536340960e21b81526001600160a01b0392916020908290600490829087165afa80156104245761001693611bd892600092611c2a575b503391161491925050611bcb565b611c4391925060203d811161041d5761040e8183611e26565b9038611c1c565b3461043b5760208060031936011261043b5760048035611c698161064b565b60005460405163d1f956b160e01b81526001600160a01b03949093909182918591829088165afa9081156104245761039d9461071094600093611cca575b506040519316818401528252611cbc82611dd5565b611cc46157c5565b90615b68565b611ce2919350823d841161041d5761040e8183611e26565b9138611ca7565b3461043b57600036600319011261043b5760206118ea6154fd565b3461043b57600036600319011261043b576020611d1f61573a565b604051908152f35b15611d2e57565b60405162461bcd60e51b81526020600482015260126024820152716f776e2e696e76616c69642e69735361666560701b6044820152606490fd5b634e487b7160e01b600052604160045260246000fd5b608081019081106001600160401b03821117611d9957604052565b611d68565b606081019081106001600160401b03821117611d9957604052565b61012081019081106001600160401b03821117611d9957604052565b604081019081106001600160401b03821117611d9957604052565b602081019081106001600160401b03821117611d9957604052565b60e081019081106001600160401b03821117611d9957604052565b601f909101601f19168101906001600160401b03821190821017611d9957604052565b9081602091031261043b5751611e5e8161064b565b90565b6040513d6000823e3d90fd5b15611e7457565b60405162461bcd60e51b815260206004820152601b60248201527a6f776e2e6e6f6e617574682e44414f6f725365637572656261736560281b6044820152606490fd5b611ebf61573a565b9081600255600052601a602052604060002091600014611f065781548015908115611efa575b50611eef575b5050565b611ef891611f2d565b565b60019150161538611ee5565b60018083541614611eef575050565b80548210156107835760005260206000200190600090565b80549190600160401b831015611d995782611f50916001611ef895018155611f15565b90919082549060031b91821b91600019901b1916179055565b60c8600052601a602052600080516020615d618339815191529115611f065781548015908115611efa5750611eef575050565b634e487b7160e01b600052601160045260246000fd5b60001981146110f45760010190565b15611fd657611fd1600c54611fb2565b600c55565b600c5480156110f45760001901600c55565b6001600160a01b0381161561200057611ef8906157f9565b60405163b31092f160e01b8152600490fd5b9092949360049160ff8354166124545761202a612676565b61203a61203682615625565b1590565b6124435761204961136461573a565b60009461205961068c875461063f565b906040928351809663cfbffe5360e01b94858352828260209485935afa978815610424578a98612424575b5061209e6120906124ad565b6120986124c5565b8a615ba4565b9788156123e1576120be6120b06124ad565b6120b86124f0565b83615ba4565b906120cc60029a8b5461251e565b916121016120e96120db6124ad565b6120e361253e565b85615ba4565b926120f26124ad565b906120fb612566565b90615ba4565b90612116846000526015602052604060002090565b5410918215926123c4575b50506123b55761213b906000526015602052604060002090565b80546001019055600187149485156123ac578261215b61068c8d5461063f565b918389518094819382525afa9081156104245761219c916106d6918d9161238f575b506121948c8a519384918883019190602083019252565b6120fb61258e565b9b8c955b6122db575b505087969593600080516020615d41833981519152986122b196946122269461221461221995600654156122c2575b6121e76121e2600654611fb2565b600655565b8b54856121f2612465565b9288845283015289820152606081019e8f5261220f600654610881565b612644565b612bb1565b6001600160a01b03168852565b612246612233885161063f565b6003612240600654610881565b01612625565b8861227061225382612cf8565b9861226a61225f614026565b509150508854611f69565b5161063f565b945491513381526001600160a01b03909516602086015260408501959095526060840194909452608083019390935260a082019290925290819060c0820190565b0390a16122be6001600355565b9190565b6122cc8c54600855565b6122d68c54600955565b6121d4565b909192939450600554918c6122f084846125ed565b10612349575088600080516020615d41833981519152999897956122b197956122148f94966123366123318761232c6122199a6122269c6125ed565b612618565b600555565b95505094509496509881959798506121a5565b61238b90875191829162461bcd60e51b8352820160609060208152601360208201527273746f722e66616b652e6d696e7476616c756560681b60408201520190565b0390fd5b6123a69150853d871161041d5761040e8183611e26565b3861217d565b508b8c956121a0565b50855163eb2c7de760e01b8152fd5b8c10915081156123d7575b503880612121565b90508a11386123cf565b865162461bcd60e51b8152602081840181815260159181019190915274696e76616c6964206d696e744379636c654461797360581b604082015281906060010390fd5b61243c919850823d841161041d5761040e8183611e26565b9638612084565b604051630d419f7360e41b81528390fd5b60405163658141c160e01b81528390fd5b60405190611ef882611d7e565b60405190611ef882611e0b565b6001600160401b038111611d9957601f01601f191660200190565b604051906124a782611df0565b60008252565b6040516124b981611df0565b60008152906000368137565b604051906124d282611dd5565b600f82526e6d696e744379636c6544617973282960881b6020830152565b604051906124fd82611dd5565b60128252716d61784d696e74735065724379636c65282960701b6020830152565b8115612528570490565b634e487b7160e01b600052601260045260246000fd5b6040519061254b82611dd5565b600c82526b6d696e4d696e74517479282960a01b6020830152565b6040519061257382611dd5565b600c82526b6d61784d696e74517479282960a01b6020830152565b6040519061259b82611dd5565b6019825278636f6d707574654d696e7456616c75652875696e743235362960381b6020830152565b90600182018092116110f457565b90600e82018092116110f457565b60460190816046116110f457565b919082018092116110f457565b6000198101919082116110f457565b6001198101919082116110f457565b919082039182116110f457565b80546001600160a01b0319166001600160a01b03909216919091179055565b6003611ef892805183556020810151600184015560408101516002840155606060018060a01b03910151169101612625565b600260035414612687576002600355565b604051633ee5aeb560e01b8152600490fd5b604051906126a682611e0b565b60e0368337565b906126c092916126bb612676565b6127c0565b906001600355565b604051906126d582611dd5565b601082526f65616368636c61696d4379636c65282960801b6020830152565b6040519061270182611dd5565b601082526f6d696e436c61696d506572446179282960801b6020830152565b6040519061272d82611dd5565b601082526f6d6178436c61696d506572446179282960801b6020830152565b6040519061275982611dd5565b60168252756d6178476c6f62616c436c61696d506572446179282960501b6020830152565b6040519061278b82611dd5565b601582527467657477697468647261776e2875696e743235362960581b6020830152565b9060098110156107835760051b0190565b9291838115612bab575060025560006127dc61068c825461063f565b6040908151809163cfbffe5360e01b825281600460209384935afa918215610424578492612b8c575b5061280e614026565b50969150506128206002968754611f69565b603261284f87546008549361283581866125ed565b821115612b85576128479150846125ed565b925b83612618565b11612b7d5761285d906141e1565b61287c61287361286b6124ad565b6120e36126c8565b600954906125ed565b90855491821015612899575b505050505050611ef861136461573a565b6128ac6128a46124ad565b6120e36126f4565b926128c06128b86124ad565b6120b8612720565b9261291361290b6129036128fb6128f36128eb6128db610891565b546128e46108bf565b54906125ed565b6128e46108ed565b6128e461091b565b6128e4610949565b6128e4610977565b6128e46109a5565b94851015612923575b5050612888565b61293a6004926129316124ad565b906120fb61274c565b928061294961068c8a5461063f565b885163ab6e844f60e01b815294859182905afa9081156104245761298e938992612b5a575b508751908101928352916129869083906020016106d6565b6120fb61277e565b1015612b495780821115612b41576129a591612618565b9060015b60078111156129fd57505050906129f0916129c2610b25565b5460e08601526129d0610b53565b54610100860152806129e0610b25565b556129e9610b53565b5554600955565b388080808080808061291c565b612a0e612a09826125d1565b610b15565b5483612abe5790612ab991612a2282610b15565b612a2d8282546125ed565b905585612a3c612a09846125d1565b55612a4f612a49836125fa565b8a6127af565b525b600080516020615d41833981519152612a6c612a49836125fa565b51875490612ab1612a7c856125df565b875133815260006020820181905260408201526060810193909352608083019390935260a082019290925290819060c0820190565b0390a1611fb2565b6129a9565b83811115612b0d5790612ad484612ab993612618565b9384612aea612ae284610b15565b9182546125ed565b9055612af8612a09836125d1565b558493612b07612a49836125fa565b52612a51565b612b1b90612ab99294612618565b92612b2581610b15565b5084612b33612a09836125d1565b5584612b07612a49836125fa565b5050816129a5565b8251631d63fe2160e01b8152600490fd5b819250612b7690612986923d851161041d5761040e8183611e26565b919061296e565b505050505050565b5092612849565b81612ba49293503d841161041d5761040e8183611e26565b9038612805565b93505050565b91612c1792612c089260018060a01b0395866001541693600254926040519563c85700fb60e01b6020880152602487015260448601526064850152608484015260a483015260a48252612c0382611e0b565b615c13565b60208082518301019101611e49565b168015612c215790565b604051630b1bdf8b60e41b8152600490fd5b60405190612c4082611dd5565b6006825265706f6f6c282960d01b6020830152565b908160e091031261043b5780519160208201519160408101519160608201519160808101519160c060a083015192015190565b90612710918281029281840414901517156110f457565b90816064029160648304036110f457565b818102929181159184041417156110f457565b919091600083820193841291129080158216911516176110f457565b818103929160001380158285131691841216176110f457565b6004906020612d0b61068c60005461063f565b60405163cfbffe5360e01b815293849182905afa801561042457612dcc612dad612d92612dc7612d9d612d87612d97612d77612d68612d8c99611e5e9c600091612dde575b50612d596124ad565b90612d62612c33565b90615a58565b60208082518301019101612c55565b9e8f9b969e949892959150612cb0565b612cb0565b93612cb0565b612c88565b9061251e565b94612db2612dad826002546125ed565b610b65565b612dbd878254612cc3565b90556002546125ed565b6125ed565b612dd7828254612cdf565b9055612cb0565b612df6915060203d811161041d5761040e8183611e26565b38612d50565b60405190612e0982611dd5565b601382527255736572546f496e737428616464726573732960681b6020830152565b60405190612e3882611dd5565b600b82526a6d696e74436f756e74282960a81b6020830152565b60405190612e5f82611dd5565b600e82526d6d696e74732875696e743235362960901b6020830152565b60405190612e8982611dd5565b600b82526a6d696e746564416765282960a81b6020830152565b60405190612eb082611dd5565b600b82526a6d696e746564717479282960a81b6020830152565b60405190612ed782611dd5565b600c82526b6964732875696e743235362960a01b6020830152565b60405190612eff82611dd5565b60098252686d696e74416d74282960b81b6020830152565b60405190612f2482611d7e565b60006060838281528260208201528260408201520152565b60405190612f4982611dd5565b600a825269647261776e616765282960b01b6020830152565b60405190612f6f82611dd5565b600c82526b4c53422875696e743235362960a01b6020830152565b60405190612f9782611dd5565b6007825266647261776e282960c81b6020830152565b91908260c091031261043b5781519160208101519160408201519160608101519160a0608083015192015190565b60405190612fe882611dd5565b60138252726765745265776172647328616464726573732960681b6020830152565b919082604091031261043b576020825192015190565b6040519061302d82611dd5565b6007825266626f6e7573282960c81b6020830152565b6040519061305082611dd5565b600682526563616765282960d01b6020830152565b6040519061307282611dd5565b601982527867657445666665637469766552616e6b28616464726573732960381b6020830152565b6001600160a01b039091168152602081019190915260400190565b604051906130c282611dd5565b601f82527f6765746e6f646572616e6b61676528616464726573732c75696e7432353629006020830152565b604051906130fb82611dd5565b601082526f6765744e6f646528616464726573732960801b6020830152565b908160a091031261043b5780519160208201516131368161064b565b916040810151916080606083015161314d81610ee9565b920151611e5e81610ee9565b6040519061316682611dd5565b601a82527977697468647261776e496e636f6d654f6628616464726573732960301b6020830152565b60045460081c60ff166138ca5760049060206131af61068c60005461063f565b60405163111ea8c160e21b815293849182905afa918215610424576000926138a9575b506132126131f66132046131e760015461063f565b60405192839160208301610d88565b03601f198101835282611e26565b61320c612dfc565b84615b1d565b906001600160a01b038216156138855760058111613873576132436132356124ad565b61323d612e2b565b84615ba4565b9060065461325181836125ed565b83111561386b57613261916125ed565b81613597575b50806006541490811561358e575b5061327e575050565b61329961329461328c6124ad565b61323d612f3c565b600a55565b600a546008548111613551575b506132d26132c36132b56124ad565b6132bd612f8a565b84615a58565b60208082518301019101612fad565b946132e1949194939293610ba2565b556132ea610bd0565b556132f3610bfe565b556132fc610c2c565b55613305610c5a565b5561330e610c88565b55613346613337604051613329816131f68660208301610d88565b613331612fdb565b85615a58565b6020808251830101910161300a565b9061334f610cb6565b55613358610ce4565b5561336f6123316133676124ad565b61323d613020565b61338561329461337d6124ad565b61323d613043565b6133ac6133a760405161339f816131f68660208301610d88565b6120e3613065565b600b55565b60005b600f8111156134b157506133e16106d6613407936133d96133f09460405193849160208301610d88565b612d626130ee565b6020808251830101910161311a565b935050505060ff8019600454169115151617600455565b6004602061341961068c60005461063f565b6040516318c9774160e21b815292839182905afa9081156104245761346a916106d691600091613492575b5061346261345360015461063f565b60405193849160208301610d88565b6120fb613159565b613472610d12565b5561347e600854600955565b611ef861010061ff00196004541617600455565b6134ab915060203d60201161041d5761040e8183611e26565b38613444565b806134ca91613506575b600b548111156134cf57611fb2565b6133af565b6135016134f86040516134ea816131f686896020840161309a565b6134f26130b5565b87615ba4565b611f5083611aec565b611fb2565b613534613337604051632994ed6560e11b602082015261352e816131f686896024840161309a565b86615c13565b9061353e83610844565b55600161354a83610844565b01556134bb565b60085561357c6131f6613574600a54604051928391602083019190602083019252565b6120b8612f62565b613587600854610b65565b55386132a6565b90501538613275565b9092936135a2610b75565b549460016135ae610b75565b0154945b6006548481101561384a576121e26135c991611fb2565b6135f76131f66135e9600654604051928391602083019190602083019252565b6135f1612e52565b87615b1d565b61360d6113646136056124ad565b61323d612e7c565b61369061362361361b6124ad565b61323d612ea3565b98613648604051613640816131f660208201906000602083019252565b6120e3612eca565b9861366561365f6136576124ad565b6134f2612ef2565b94615cce565b602061367561068c60005461063f565b91604051809681926333ea87db60e21b835260048301610d88565b0381845afa93841561042457600094613829575b506001600160a01b038416156137d0575b506136c261203684615625565b6137be578a9284846136d2612f17565b938285528160208601526002958654604087015283866006546136f490610881565b906136fe91612644565b613707916125ed565b9e613711916125ed565b9c61371b93612bb1565b60065461372790610881565b6003019061373491612625565b61373d84612cf8565b506006546001149361376a60606137a793600080516020615d41833981519152976137af575b015161063f565b9254604080513381526001600160a01b03909516602086015284019490945260608301526080820192909252600060a082015290819060c0820190565b0390a16135b2565b6137b98654600855565b613763565b604051630d419f7360e41b8152600490fd5b604051635bb8e44b60e11b815260006004820152919350602090829060249082905afa9081156104245760009161380a575b5091386136b5565b613823915060203d60201161041d5761040e8183611e26565b38613802565b61384391945060203d60201161041d5761040e8183611e26565b92386136a4565b509250939094613858610b75565b556001613863610b75565b015538613267565b505080613261565b6040516364ce9be960e11b8152600490fd5b50505061389361329461573a565b61389e600a54600855565b61347e600a54600955565b6138c391925060203d60201161041d5761040e8183611e26565b90386131d2565b50565b9193949294600095600095806138e5575b5050505050565b600b5497509495509193909283156139365760016139188361392193613911612ae26139289a97610844565b9055610844565b019182546125ed565b9055613df5565b600b549038808080806138de565b9080600052601960205260406000209081549283039283116110f45760019261395f9255610844565b019283549081039081116110f4576139289355613df5565b6040519061398482611dd5565b60148252736c6576656c436c617573652875696e743235362960601b6020830152565b908160a091031261043b578051916020820151916040810151916080606083015192015190565b91949392906139dc86610844565b6139e78482546125ed565b905560016139f487610844565b01613a008282546125ed565b9055613a0a610b75565b54151580613c7b575b613a24575b505050505050600b5490565b159384159283613c6d575b6000613a3e61068c825461063f565b95604051809763cfbffe5360e01b825281600460209a8b935afa97881561042457613a956106d6613ab29a8d613aa2958892613c4a575b50613a8d906040519384918783019190602083019252565b612d62613977565b80518101820191016139a7565b979294919a9098600a5490612618565b10918215613c3d575b5081613c34575b50613ad0575b505050613a18565b600396613b239615613c2b57612d97613aec613af29386612cb0565b91612c9f565b965b15613c215750613aec613b0a93612d9792612cb0565b935b6002613b1782610844565b016139118582546125ed565b01613b2f8382546125ed565b905560016000819052601a602052613b697ff88cd8d612926ebb404e40725c01084b6e9b3ce0344cde068570342cbd448c615b5460011690565b148015613c0d575b613bfa575b506004600052601a6020526001613bac7f06b28f262ad931a15c9e47271fc159a891b2bcb0da2659cac5bbfed4886cf26e613b62565b148015613be6575b613bd3575b50613bc56113ca614026565b388080808080808080613ac8565b613bde612ae2610a01565b905538613bb9565b506001613bf4613b62610d40565b14613bb4565b613c05612ae26109d3565b905538613b76565b506001613c1b613b62610d40565b14613b71565b9250505093613b0c565b50508096613af4565b90501538613ac2565b600b541015915038613abb565b613a8d919250613c6690863d881161041d5761040e8183611e26565b9190613a75565b613c7683613cb3565b613a2f565b50851515613a13565b60405190613c9182611dd5565b601382527272616e6b436c617573652875696e743235362960681b6020830152565b613cc161068c60005461063f565b60409182519283809363cfbffe5360e01b8252602091829160049788915afa93841561042457600094613dd6575b50600b90613cfd82546125c3565b60088110613d0e5750505050505050565b613d47613d398551613d2b816131f6868883019190602083019252565b613d33613c84565b89615a58565b8380825183010191016139a7565b5050509081158015613dce575b613dbe5790613d7a9291600c5410159081613da7575b5080613d95575b613d7f57611fb2565b613cfd565b613d8881600b55565b61350186611f5083611aec565b508354613da1826125fa565b14613d71565b90506001613db483610844565b0154101538613d6a565b8551632a9ffab760e21b81528990fd5b508015613d54565b81613dee9295503d861161041d5761040e8183611e26565b9238613cef565b613e0361068c60005461063f565b90604080518094819463cfbffe5360e01b8352602092839160049889915afa94851561042457600095613f88575b5015613eb057600b90613e4482546125c3565b60088110613e555750505050505050565b613e72613d398551613d2b816131f6868883019190602083019252565b5050509081158015613ea8575b613dbe5790613ea39291600c5410159081613da7575080613d9557613d7f57611fb2565b613e44565b508015613e7f565b91509160009493945b600b548111613f8057613ef5613ee78551613edf816131f6868983019190602083019252565b613331613c84565b8480825183010191016139a7565b5050509082151580613f70575b613f605790613f279291600c5410159081613f49575b5015613f2c5761350181600b55565b613eb9565b613501613f3882611aec565b8154906000199060031b1b19169055565b90506001613f5683610844565b0154101538613f18565b8551632a9ffab760e21b81528890fd5b50811580613f0257508015613f02565b505050509050565b613fa0919550823d841161041d5761040e8183611e26565b9338613e31565b60405190613fb482611dd5565b600982526863617070696e67282960b81b6020830152565b908160e091031261043b578051916020820151613fe881610ee9565b916040810151613ff781610ee9565b91606082015161400681610ee9565b91608081015161401581610ee9565b9160c060a083015161314d81610ee9565b6000906004602061403b61068c60005461063f565b60405163cfbffe5360e01b815292839182905afa9081156104245761408c9161407d916000916141c3575b5061406f613fa7565b61407761249a565b91615a58565b60208082518301019101613fcc565b93949190926140b26140a9886140a39a999a610b75565b54612cb0565b986140a3610854565b956140bb6150c9565b946141bb575b50614191575b61416f575b61415e575b5061413c575b6140fb575b8084106140f3576140ed9084612618565b82811191565b5060006140ed565b926141369061413061290b614128614120612903614117610c5a565b546128e4610ab9565b6128e4610c88565b6128e4610ae7565b906125ed565b926140dc565b93614158906141306128fb61414f610d12565b546128e4610a8b565b936140d7565b61416891966125ed565b94386140d1565b9661418b906141306128eb614182610bfe565b546128e4610a5d565b966140cc565b976141b5906141306141ad6141a4610bd0565b546128e4610a2f565b6128e46108bf565b976140c7565b9950386140c1565b6141db915060203d811161041d5761040e8183611e26565b38614066565b611ef8906141ee81614432565b80516141fb612ae2610891565b9055606081015161420d612ae261091b565b9055602081015161421f612ae26108bf565b9055604081018051614232612ae26108ed565b90556080820151614244612ae2610949565b905560a0820151614256612ae2610977565b905560c0820151614268612ae26109a5565b905561010082015161427b612ae2610a2f565b90556101c06101208301928351614293612ae2610a5d565b90556101608101516142a6612ae2610a8b565b90556101808101516142b9612ae2610ab9565b90556101a08101516142cc612ae2610ae7565b905501516142d984610b65565b55516142e6612ae2610b25565b9055516142f4612ae2610b53565b9055600855565b604051906101e082016001600160401b03811183821017611d9957604052816101c06000918281528260208201528260408201528260608201528260808201528260a08201528260c08201528260e08201528261010082015282610120820152826101408201528261016082015282610180820152826101a08201520152565b6040519061438882611dd5565b600a82526973687574646f776e282960b01b6020830152565b604051906143ae82611dd5565b6018825277676574557365724964546f496e73742875696e743235362960401b6020830152565b604051906143e282611dd5565b6011825270696e636f6d654f6628616464726573732960781b6020830152565b6040519061440f82611dd5565b6014825273636f6d70757465546f75722875696e743235362960601b6020830152565b9061443b6142fb565b9160009061444c61068c835461063f565b60409182519163ab6e844f60e01b83526020908184600481845afa93841561042457869461474f575b50845163cfbffe5360e01b81528281600481855afa91821561042457858a60049686948b96614728575b50906145258592876144c16144b261437b565b6144ba61249a565b9083615b68565b9b8c926145006144cf6150c9565b9190606089019283528089526144fa6144f26144e9610ba2565b546128e46109d3565b6128e4610891565b90612618565b875261451e81516144fa6128f3614515610c2c565b546128e4610a01565b9052614962565b509d94939096926101c0879397015261010082015201526000146147185750506106d6614572916145646007548b519384918883019190602083019252565b61456c6143a1565b90615b1d565b31878b01525b86516314ac1b5960e21b815294859182905afa9283156104245786936146f9575b506145d46145b86145ab60015461063f565b8751918291868301610d88565b03946145cc601f1996878101845283611e26565b6120fb6143d5565b946145e36128fb61414f610d12565b60808a0181815296818111156146eb576146009150875190612618565b86526004600b546002811015806146d6575b614698575b10158061467a575b61463b575b50505050614630575050565b805161016085015252565b61466c936146589361466492519485918201906004602083019252565b03908101845283611e26565b6120fb614402565b60c086015238808080614624565b5061469261290b614689610c88565b546128e4610ae7565b1561461f565b6146cc83516146be816146b2898201906002602083019252565b03898101835282611e26565b6146c6614402565b86615ba4565b60a08c0152614617565b506146e5612903614117610c5a565b15614612565b6146f491612618565b614600565b614711919350823d841161041d5761040e8183611e26565b9138614599565b8c8a01526101208c015250614578565b859291965061474661452591843d861161041d5761040e8183611e26565b9691925061449f565b614767919450823d841161041d5761040e8183611e26565b9238614475565b60408051919082016001600160401b03811183821017611d995760405260006020838281520152565b6040519060a082016001600160401b03811183821017611d9957604052816147bd61476e565b81526147c761476e565b60208201526147d461476e565b60408201526147e161476e565b606082015260806147f061476e565b910152565b6040519061480282611dd5565b60188252776765744261746368526f79616c7479436c6175736573282960401b6020830152565b6102a090818184031261043b5782601f8201121561043b57604080519361484f85611e0b565b849383019281841161043b57935b83851061486c57505050505090565b60608583031261043b57825160609161488482611d9e565b865182526020918288015183820152858801518682015281520194019361485d565b604051906148b382611dd5565b601f82527f676574526f79616c697479416d6f756e7442617463682875696e7432353629006020830152565b9060e08282031261043b5780601f8301121561043b576040519161490283611e0b565b829060e0810192831161043b57905b82821061491e5750505090565b8151815260209182019101614911565b9060078110156107835760051b0190565b818102929160008212600160ff1b8214166110f45781840514901517156110f457565b92906000946000946000946000946000946149ff6149f0614981614797565b9461498b87614e08565b87519060208201525261499d87614e9c565b6020880151906020820152526149b287614f2f565b6040880151906020820152526149c787614fd1565b6060880151906020820152526149dc8761504d565b60808801519060208201525261406f6147f5565b60208082518301019101614829565b91600854600b54905b868110614a54575050505050602081510151821191829182158094614a42575b9392614a3357505091565b60800151602001511015929050565b50602060608201510151821115614a28565b614a90614a81604051614a73816131f686602083019190602083019252565b614a7b6148a6565b87615a58565b602080825183010191016148df565b6001905b83821115614ce25750508215614ab3575b614aae90611fb2565b614a08565b614ac7614abf82610b65565b54809c612cc3565b9a614ad28289612618565b90600091604089015189518b82518181108084519384109381614cda575b81614cb7575b5015614be95750505060208083518351808210600014614be15750935b015191015180821115614bd95750905b80861115614bd3575084905b614b38816125c3565b8c1015614bc557508a5b818111614bb2575b50505b808311614baa575b82614b5f91612618565b9180614b94575b5081614b74575b5050614aa5565b9a614b86614b8c92614aae949d61493f565b90612cc3565b999038614b6d565b9a614b86829c614ba39361493f565b9938614b66565b915081614b55565b614bbd929450612618565b913880614b4a565b614bce906125c3565b614b42565b90614b2f565b905090614b23565b905093614b13565b93919293614c61575b5050614bff575b50614b4d565b805180861115614c585750602085915b01614c1a81516125c3565b8c1015614c4957508a5b818111614c32575b50614bf9565b614c4192949161413091612618565b913880614c2c565b614c5390516125c3565b614c24565b60209091614c0f565b80881115614cae5750602087915b018d614c7b82516125c3565b1115614c9f57508c5b81811115614bf257614c97929650612618565b933880614bf2565b614ca990516125c3565b614c84565b60209091614c6f565b90506020860151108015614ccd575b1538614af6565b5081602085015110614cc6565b849150614af0565b909c614cf6614cf08f6125fa565b8861492e565b5151158015614da8575b614d9e57875180518410159081614d8f575b508015614d68575b15614d4c57614d40614d46918f614d33614d39916125fa565b8561492e565b51906125ed565b9d611fb2565b90614a94565b9c9d614d628f91614d39614d33614d46946125fa565b9e611fb2565b50602088015180518410159081614d80575b50614d1a565b60209150015183111538614d7a565b60209150015183111538614d12565b9c614d4690611fb2565b508d614dc0614db682611aec565b90549060031b1c90565b8410159081614dd1575b5015614d00565b614dff91506040614df6614df0614dea614db685611aec565b936125fa565b8b61492e565b510151906125ed565b8311158e614dca565b60c8600052601a602052600080516020615d6183398151915280549291908315614e955760018416614e7d57505060c8600052601a602052614db6614e64600080516020615d61833981519152614e5e85612609565b90611f15565b90549060031b1c92614e5e614e77610d40565b916125fa565b614e5e614e8a92946125fa565b90549060031b1c9190565b5091508190565b60026000908152601a6020527f4c287b3e2c2cb129ae3ba596d613d760b15affdac7242e12903c37a886ea1c4f8054919392908215614f275760018316614f18575050614db69060028452601a602052614e5e6040614f00818720614e5e85612609565b90549060031b1c9560028152601a60205220916125fa565b909350614e5e614e8a926125fa565b509250508190565b60036000818152601a6020527f4ac83fca211703e3ddb90093cd219714e5e3715bf0b4fd15b0441390534a24e28054919493908215614fc85760018316614fb0575050614fa890828552601a602052614e5e6040614f92818820614e5e85612609565b905490861b1c96858152601a60205220916125fa565b9054911b1c90565b909450614e5e614fbf926125fa565b9054911b1c9190565b50935050508190565b60056000908152601a6020527f82f07edc09f3a46c1925d02252613a7fcc7be7d03b538b0c268df85f2f13a7ab8054919392908215614f275760018316614f18575050614db69060058452601a602052614e5e6040615035818720614e5e85612609565b90549060031b1c9560058152601a60205220916125fa565b60066000908152601a6020527fe7513fcd4f864b78baf560f46c15980b6aa41b90911efc4ce7454b83cce613b18054919392908215614f275760018316614f18575050614db69060068452601a602052614e5e60406150b1818720614e5e85612609565b90549060031b1c9560068152601a60205220916125fa565b600090816001815b600f8211156150fb5750506150e4610cb6565b5481018091116110f457611e5e90926128e4610ce4565b90938482526019926020938085526040906002828620015483018093116110f45760039295888652528320015481018091116110f45761513b9094611fb2565b906150d1565b91909161514c612699565b92811561538e576001821461532957600282146152bb576003821461525b5761519b9061517761573a565b9060085461518582826125ed565b8311156152545761519692506125ed565b614432565b9060048114615205576005146151ae5750565b9091506101a06151bc612472565b9160e08101518352610100810151602084015261012081015160408401526101408101516060840152610160810151608084015261018081015160a0840152015160c082015290565b5090915060c0615213612472565b91805183526020810151602084015260408101516040840152606081015160608401526080810151608084015260a081015160a0840152015160c082015290565b5050614432565b50509050615267612472565b61526f610854565b54815261527a610b25565b546020820152615288610b53565b546040820152615296610cb6565b5460608201526152a4610ce4565b546080820152600060a0820152600060c082015290565b505090506152c7612472565b6152cf610891565b5481526152da6108bf565b5460208201526152e86108ed565b5460408201526152f661091b565b546060820152615304610949565b546080820152615312610977565b5460a08201526153206109a5565b5460c082015290565b50509050615335612472565b61533d6109d3565b548152615348610a2f565b546020820152615356610a5d565b546040820152615364610a01565b546060820152615372610a8b565b546080820152615380610ab9565b5460a0820152615320610ae7565b5050905061539a612472565b6153a2610ba2565b5481526153ad610bd0565b5460208201526153bb610bfe565b5460408201526153c9610c2c565b5460608201526153d7610d12565b5460808201526153e5610c5a565b5460a0820152615320610c88565b9060405161540081611d7e565b6060600382948054845260018101546020850152600281015460408501520154910152565b6001600160401b038111611d995760051b60200190565b9061544682615425565b6154536040519182611e26565b8281528092615464601f1991615425565b019060005b82811061547557505050565b602090615480612f17565b82828501015201615469565b80518210156107835760209160051b010190565b156154a757565b60405162461bcd60e51b81526020600482015260196024820152781bdddb8b9cd8599959dd585c990b98d85b1b0b99985a5b1959603a1b6044820152606490fd5b9081602091031261043b5751611e5e81610ee9565b600054604051634bf9c0ad60e11b8152906020908190839060049082906001600160a01b03165afa91821561042457611e5e926155739160009161558e575b5060405161554981611dd5565b6008815267697353616665282960c01b848201526040519161556a83611df0565b60008352615a83565b919080615584575b610703906154a0565b508151811461557b565b6155a59150833d851161041d5761040e8183611e26565b3861553c565b604051906155b882611dd5565b601582527469735365637572654261736528616464726573732960581b6020830152565b156155e357565b60405162461bcd60e51b815260206004820152601a6024820152791bdddb8b9cd958dd5c9958985cd94b98d85b1b0b99985a5b195960321b6044820152606490fd5b60005461563a906001600160a01b031661063f565b604051918291634bf9c0ad60e11b835282600460209485935afa92831561042457611e5e9361568a926106d6926000926156a5575b5061568290604051938491878301610d88565b6106ec6155ab565b91908061569b575b610703906155dc565b5081518114615692565b6156829192506156c190863d881161041d5761040e8183611e26565b919061566f565b604051906156d582611dd5565b601182527069735369676e657228616464726573732960781b6020830152565b156156fc57565b60405162461bcd60e51b81526020600482015260166024820152751bdddb8b9cda59db995c8b98d85b1b0b99985a5b195960521b6044820152606490fd5b60005460405163111ea8c160e21b815290602090829060049082906001600160a01b03165afa801561042457611e5e916000916157a7575b5060405161577f81611dd5565b6005815264616765282960d81b60208201526040519161579e83611df0565b60008352615ba4565b6157bf915060203d811161041d5761040e8183611e26565b38615772565b604051906157d282611dd5565b6018825277697364656c656761746f724e6f646528616464726573732960401b6020830152565b6001600160a01b0390811690811561584757600180546001600160a01b031981168417909155167f8292fce18fa69edf4db7b94ea2e58241df0ae57f97e0a6c9b29067028bf92d76600080a3565b60405162461bcd60e51b815260206004820152601160248201527037bbb71734b73b30b634b21737bbb732b960791b6044820152606490fd5b3d156158ab573d906158918261247f565b9161589f6040519384611e26565b82523d6000602084013e565b606090565b908015611eeb576001600160a01b03821691821561594d57600080808481945af16158d9615880565b5015615912576040519081527fcec1f18c3ab8ddaaa107a1591e3c369667eec613626611a8deaedef43069fcdd9080602081015b0390a2565b60405162461bcd60e51b81526020600482015260136024820152721bdddb8b9d1c985b9cd9995c8b99985a5b1959606a1b6044820152606490fd5b60405162461bcd60e51b815260206004820152600e60248201526d6f776e2e696e76616c69642e746f60901b6044820152606490fd5b600080546040516311be646b60e21b815290602090829060049082906001600160a01b03165afa908115610424578284819382938391615a3a575b505af16159c9615880565b5015615a035760405190815233907fcdcc745fe377b103b45fa0cec23ae3ef93d6fc6a84a01f0d18c40b354dd1d5d890806020810161590d565b60405162461bcd60e51b815260206004820152600f60248201526e1bdddb8b989d5c9b8b99985a5b1959608a1b6044820152606490fd5b615a52915060203d811161041d5761040e8183611e26565b386159be565b90615a639291615a83565b9060009015615a70575090565b6040519150615a7e82611df0565b815290565b9190823b15615b04578051906020918263ffffffff60e01b92012016916040519180830193845281519160005b838110615af0575050509181615add60248260009795968897018783820152036004810184520182611e26565b5191620dbba0fa615aec615880565b9091565b818101830151858201602401528201615ab0565b505050600090604051615b1681611df0565b6000815290565b9291615b2b91600094615a83565b9080615b5d575b615b395750565b80519192506001600160a01b0391615b5991602091810182019101611e49565b1690565b506020815114615b32565b9291615b7691600094615a83565b9080615b99575b615b845750565b611e5e919250602080825183010191016154e8565b506020815114615b7d565b9291615bb291600094615a83565b9080615bd7575b615bc05750565b90915060208180518101031261043b576020015190565b506020815114615bb9565b906020825192015163ffffffff60e01b908181169360048110615c0457505050565b60040360031b82901b16169150565b6001600160a01b03811615615c9457600080918351908260208601915af190615c3a615880565b9115615c44575090565b805160009190600411615c8e57615c5b9150615be2565b815115615c6b5750805190602001fd5b604051630870274d60e21b81526001600160e01b03199091166004820152602490fd5b50615c5b565b60405162461bcd60e51b81526020600482015260126024820152711bdddb8b9a5b9d985b1a590b9d185c99d95d60721b6044820152606490fd5b803b6000615cdb8261247f565b92615ce96040519485611e26565b82845260208401903c602d815110615d0557602a015160601c90565b60405162461bcd60e51b81526020600482015260136024820152724e6f742061206d696e696d616c2070726f787960681b6044820152606490fdfe1517c86fcf2bfb8e3468afcc539b0004955da8027797c497ea51d1f1094ab89889a06886e0f87a6eda50b0ef62069b00c5adfe20a1b83308f38d3e933d4a6cfea2646970667358221220ff50a90b7d41b01dabbb9d234cf2eecc932d61fd6af10b96ec71503b08c8696f64736f6c63430008140033","linkReferences":{}},"methodIdentifiers":{"Burn(uint256)":"b90306ad","BurnCoin()":"7bfbfecb","LSB(uint256)":"a98bf4f9","_compute(uint256)":"2c2838e8","_delegatorCount()":"a1f7f539","_getImplementation(address)":"c54e44b0","_importOld(uint256)":"141ca660","_isDelegatorNode(address)":"e01ad5fd","_isSafe()":"e0a9bc2b","_isSecureBase(address)":"af484526","_isSigner(address)":"1f185d16","_txnType7(uint256,uint256)":"02a085f2","_txnType_1_0(address,uint256,uint256,uint256,uint256)":"932ca2d6","addLevelnGetRank(uint256,uint256,uint256,uint256,uint256,bool)":"822ffec4","bonus()":"75b4d78c","cage()":"69245009","capStatus()":"a1531545","dage()":"725b6fff","directsCount()":"d2a15904","getAllIncome(uint256,uint256)":"a20199ac","getBalance()":"12065fe0","getHexbase()":"3b9b7955","getNodeLB(uint256)":"da021335","getNodeLvlInfoBatch(uint256,uint256)":"759f22bd","getRankAgeInBatch()":"6de97c66","getRankWithAgeValue()":"29ee350e","getToggleAgeCount(uint256)":"143ec3b7","getToggleAgeValue(uint256,uint256)":"043719b4","id()":"af640d0f","isLock()":"09d8da2e","mintCount()":"9659867e","mints(uint256)":"6350b2c2","moveLvlIncome(uint256,uint256,uint256,uint256,bool)":"7b058ac1","owner()":"8da5cb5b","postInit()":"4a65786c","preinit(address,address,uint256)":"52902c59","rank()":"934209ce","rankage(uint256)":"d3a1a499","setBonus(uint256)":"0b98f975","setLock(bool)":"619d5194","setSuspend(uint256,bool)":"c8ef7b1a","setdirect(bool)":"deb1ba1e","systemAge()":"fdc10bc9","updateOwner(address)":"880cdc31","userCycleMintCount(uint256)":"39b4d61b","withdrawlDage()":"a9bf285b"},"id":25}