{"abi":[{"type":"constructor","inputs":[{"name":"_hex","type":"address","internalType":"address"}],"stateMutability":"nonpayable"},{"type":"fallback","stateMutability":"payable"},{"type":"receive","stateMutability":"payable"},{"type":"function","name":"Burn","inputs":[{"name":"amount","type":"uint256","internalType":"uint256"}],"outputs":[],"stateMutability":"nonpayable"},{"type":"function","name":"_delegatorCount","inputs":[],"outputs":[{"name":"","type":"uint256","internalType":"uint256"}],"stateMutability":"view"},{"type":"function","name":"_getImplementation","inputs":[{"name":"clone","type":"address","internalType":"address"}],"outputs":[{"name":"impl","type":"address","internalType":"address"}],"stateMutability":"view"},{"type":"function","name":"_isDelegatorNode","inputs":[{"name":"sender","type":"address","internalType":"address"}],"outputs":[{"name":"","type":"bool","internalType":"bool"}],"stateMutability":"view"},{"type":"function","name":"_isSafe","inputs":[],"outputs":[{"name":"","type":"bool","internalType":"bool"}],"stateMutability":"view"},{"type":"function","name":"_isSecureBase","inputs":[{"name":"sender","type":"address","internalType":"address"}],"outputs":[{"name":"","type":"bool","internalType":"bool"}],"stateMutability":"view"},{"type":"function","name":"_isSigner","inputs":[{"name":"sender","type":"address","internalType":"address"}],"outputs":[{"name":"","type":"bool","internalType":"bool"}],"stateMutability":"view"},{"type":"function","name":"getBalance","inputs":[],"outputs":[{"name":"","type":"uint256","internalType":"uint256"}],"stateMutability":"view"},{"type":"function","name":"getLSB","inputs":[],"outputs":[{"name":"amt","type":"int256","internalType":"int256"}],"stateMutability":"view"},{"type":"function","name":"isNodeStopped","inputs":[{"name":"sender","type":"address","internalType":"address"}],"outputs":[{"name":"","type":"bool","internalType":"bool"}],"stateMutability":"view"},{"type":"function","name":"owner","inputs":[],"outputs":[{"name":"","type":"address","internalType":"address"}],"stateMutability":"view"},{"type":"function","name":"systemAge","inputs":[],"outputs":[{"name":"","type":"uint256","internalType":"uint256"}],"stateMutability":"view"}],"bytecode":{"object":"0x608060405234801561001057600080fd5b506040516110c03803806110c083398101604081905261002f91610060565b600180546001600160a01b0319908116909155600080546001600160a01b0390931692909116919091179055610090565b60006020828403121561007257600080fd5b81516001600160a01b038116811461008957600080fd5b9392505050565b6110218061009f6000396000f3fe6080604052600436106100a55760003560e01c8063af48452611610061578063af48452614610180578063b90306ad146101a0578063c54e44b0146101c0578063e01ad5fd146101e0578063e0a9bc2b14610200578063fdc10bc91461021557005b806301db2f58146100ae57806312065fe0146100d65780631f185d16146100e957806351bfd3ae146101195780638da5cb5b14610139578063a1f7f5391461016b57005b366100ac57005b005b3480156100ba57600080fd5b506100c361022a565b6040519081526020015b60405180910390f35b3480156100e257600080fd5b50476100c3565b3480156100f557600080fd5b50610109610104366004610ec6565b61029d565b60405190151581526020016100cd565b34801561012557600080fd5b50610109610134366004610ec6565b610371565b34801561014557600080fd5b506001546001600160a01b03165b6040516001600160a01b0390911681526020016100cd565b34801561017757600080fd5b506100c361050d565b34801561018c57600080fd5b5061010961019b366004610ec6565b6106a9565b3480156101ac57600080fd5b506100ac6101bb366004610eea565b610767565b3480156101cc57600080fd5b506101536101db366004610ec6565b610852565b3480156101ec57600080fd5b506101096101fb366004610ec6565b6108d2565b34801561020c57600080fd5b50610109610bb2565b34801561022157600080fd5b506100c3610c58565b600061029873b24c339658b44db1376089f2b27c582224d6a74a6040518060400160405280600c81526020016b4c53422875696e743235362960a01b8152506021604051602001610284919060ff91909116815260200190565b604051602081830303815290604052610cf7565b905090565b600080546040805163af0deb9560e01b8152905161036b926001600160a01b03169163af0deb959160048083019260209291908290030181865afa1580156102e9573d6000803e3d6000fd5b505050506040513d601f19601f8201168201806040525081019061030d9190610f03565b6040518060400160405280601181526020017069735369676e657228616464726573732960781b8152508460405160200161035791906001600160a01b0391909116815260200190565b604051602081830303815290604052610d3e565b92915050565b60008061044c60008054906101000a90046001600160a01b03166001600160a01b031663a66bcbe26040518163ffffffff1660e01b8152600401602060405180830381865afa1580156103c8573d6000803e3d6000fd5b505050506040513d601f19601f820116820180604052508101906103ec9190610f03565b6040518060400160405280601381526020017255736572546f496e737428616464726573732960681b8152508560405160200161043891906001600160a01b0391909116815260200190565b604051602081830303815290604052610d79565b90506000806001600160a01b0316826001600160a01b03161415905060006104a7836040518060400160405280600b81526020016a697353757370656e64282960a81b81525060405180602001604052806000815250610d3e565b905060006104e5846040518060400160405280600881526020016769734c6f636b282960c01b81525060405180602001604052806000815250610d3e565b905082158061050357508180156104f95750805b8015610503575082155b9695505050505050565b6000806105c260008054906101000a90046001600160a01b03166001600160a01b031663e1f4cd246040518163ffffffff1660e01b8152600401602060405180830381865afa158015610564573d6000803e3d6000fd5b505050506040513d601f19601f820116820180604052508101906105889190610f03565b6040518060400160405280600c81526020016b72616e6b666f7244414f282960a01b81525060405180602001604052806000815250610cf7565b9050600061069560008054906101000a90046001600160a01b03166001600160a01b031663ab6e844f6040518163ffffffff1660e01b8152600401602060405180830381865afa15801561061a573d6000803e3d6000fd5b505050506040513d601f19601f8201168201806040525081019061063e9190610f03565b6040518060400160405280601d81526020017f67657472616e6b636f756e742875696e743235362c75696e743235362900000081525061067c610c58565b6040805160208101929092528101869052606001610284565b90506106a2816003610f20565b9250505090565b600080546040805163af0deb9560e01b8152905161036b926001600160a01b03169163af0deb959160048083019260209291908290030181865afa1580156106f5573d6000803e3d6000fd5b505050506040513d601f19601f820116820180604052508101906107199190610f03565b6040518060400160405280601581526020017469735365637572654261736528616464726573732960581b8152508460405160200161035791906001600160a01b0391909116815260200190565b60005460408051634162169f60e01b8152905133926001600160a01b031691634162169f9160048083019260209291908290030181865afa1580156107b0573d6000803e3d6000fd5b505050506040513d601f19601f820116820180604052508101906107d49190610f03565b6001600160a01b0316146108215760405162461bcd60e51b815260206004820152600f60248201526e6f776e2e6e6f6e617574682e44414f60881b60448201526064015b60405180910390fd5b60405160009082156108fc0290839083818181858288f1935050505015801561084e573d6000803e3d6000fd5b5050565b600080826001600160a01b0316803b806020016040519081016040528181526000908060200190933c9050602d815110156108c55760405162461bcd60e51b81526020600482015260136024820152724e6f742061206d696e696d616c2070726f787960681b6044820152606401610818565b602a015160601c92915050565b60008061092960008054906101000a90046001600160a01b03166001600160a01b031663e1f4cd246040518163ffffffff1660e01b8152600401602060405180830381865afa158015610564573d6000803e3d6000fd5b905060006109f160008054906101000a90046001600160a01b03166001600160a01b031663ab6e844f6040518163ffffffff1660e01b8152600401602060405180830381865afa158015610981573d6000803e3d6000fd5b505050506040513d601f19601f820116820180604052508101906109a59190610f03565b6040518060400160405280601381526020017255736572546f496e737428616464726573732960681b8152508660405160200161043891906001600160a01b0391909116815260200190565b90506000610ac360008054906101000a90046001600160a01b03166001600160a01b031663ab6e844f6040518163ffffffff1660e01b8152600401602060405180830381865afa158015610a49573d6000803e3d6000fd5b505050506040513d601f19601f82011682018060405250810190610a6d9190610f03565b6040518060400160405280601981526020017f67657445666665637469766552616e6b286164647265737329000000000000008152508460405160200161028491906001600160a01b0391909116815260200190565b90506000610b8760008054906101000a90046001600160a01b03166001600160a01b031663ab6e844f6040518163ffffffff1660e01b8152600401602060405180830381865afa158015610b1b573d6000803e3d6000fd5b505050506040513d601f19601f82011682018060405250810190610b3f9190610f03565b6040518060400160405280600f81526020016e697353746f7028616464726573732960881b8152508560405160200161035791906001600160a01b0391909116815260200190565b90506001600160a01b03831615801590610ba15750838210155b801561050357501595945050505050565b600080546040805163af0deb9560e01b81529051610298926001600160a01b03169163af0deb959160048083019260209291908290030181865afa158015610bfe573d6000803e3d6000fd5b505050506040513d601f19601f82011682018060405250810190610c229190610f03565b60405180604001604052806008815260200167697353616665282960c01b81525060405180602001604052806000815250610d3e565b600080546040805163223df87160e11b81529051610298926001600160a01b03169163447bf0e29160048083019260209291908290030181865afa158015610ca4573d6000803e3d6000fd5b505050506040513d601f19601f82011682018060405250810190610cc89190610f03565b60405180604001604052806005815260200164616765282960d81b815250604051806020016040528060008152505b6000806000610d07868686610db4565b91509150818015610d19575080516020145b15610d355780806020019051810190610d329190610f41565b92505b50509392505050565b6000806000610d4e868686610db4565b91509150818015610d60575080516020145b15610d355780806020019051810190610d329190610f5a565b6000806000610d89868686610db4565b91509150818015610d9b575080516020145b15610d355780806020019051810190610d329190610f03565b60006060846001600160a01b03163b600003610de25750506040805160208101909152600080825290610ea6565b604080516004815260248101918290526001600160a01b03871691610e08908790610fa0565b60405180910390206001600160e01b0319166020820180516001600160e01b03838183161783525050505084604051602001610e45929190610fbc565b60408051601f1981840301815290829052610e5f91610fa0565b600060405180830381855afa9150503d8060008114610e9a576040519150601f19603f3d011682016040523d82523d6000602084013e610e9f565b606091505b5090925090505b935093915050565b6001600160a01b0381168114610ec357600080fd5b50565b600060208284031215610ed857600080fd5b8135610ee381610eae565b9392505050565b600060208284031215610efc57600080fd5b5035919050565b600060208284031215610f1557600080fd5b8151610ee381610eae565b8082018082111561036b57634e487b7160e01b600052601160045260246000fd5b600060208284031215610f5357600080fd5b5051919050565b600060208284031215610f6c57600080fd5b81518015158114610ee357600080fd5b60005b83811015610f97578181015183820152602001610f7f565b50506000910152565b60008251610fb2818460208701610f7c565b9190910192915050565b60008351610fce818460208801610f7c565b835190830190610fe2818360208801610f7c565b0194935050505056fea2646970667358221220b9120adaa150dc19292b340c6d9748cbfad3334af4ed9a392158f17f6f4f2b4764736f6c63430008140033","linkReferences":{}},"methodIdentifiers":{"Burn(uint256)":"b90306ad","_delegatorCount()":"a1f7f539","_getImplementation(address)":"c54e44b0","_isDelegatorNode(address)":"e01ad5fd","_isSafe()":"e0a9bc2b","_isSecureBase(address)":"af484526","_isSigner(address)":"1f185d16","getBalance()":"12065fe0","getLSB()":"01db2f58","isNodeStopped(address)":"51bfd3ae","owner()":"8da5cb5b","systemAge()":"fdc10bc9"},"id":2}