{"abi":[{"type":"constructor","inputs":[],"stateMutability":"nonpayable"},{"type":"fallback","stateMutability":"payable"},{"type":"receive","stateMutability":"payable"},{"type":"function","name":"Burn","inputs":[{"name":"amount","type":"uint256","internalType":"uint256"}],"outputs":[],"stateMutability":"payable"},{"type":"function","name":"UserToForm","inputs":[{"name":"","type":"address","internalType":"address"}],"outputs":[{"name":"","type":"uint256","internalType":"uint256"}],"stateMutability":"view"},{"type":"function","name":"_isSafe","inputs":[],"outputs":[{"name":"","type":"bool","internalType":"bool"}],"stateMutability":"view"},{"type":"function","name":"_isSafeOwner","inputs":[{"name":"sender","type":"address","internalType":"address"}],"outputs":[{"name":"","type":"bool","internalType":"bool"}],"stateMutability":"view"},{"type":"function","name":"_isSigner","inputs":[{"name":"sender","type":"address","internalType":"address"}],"outputs":[{"name":"","type":"bool","internalType":"bool"}],"stateMutability":"view"},{"type":"function","name":"callback","inputs":[{"name":"formId","type":"uint256","internalType":"uint256"}],"outputs":[],"stateMutability":"nonpayable"},{"type":"function","name":"closeTransferTarget","inputs":[{"name":"to","type":"address","internalType":"address"}],"outputs":[],"stateMutability":"nonpayable"},{"type":"function","name":"forms","inputs":[{"name":"","type":"uint256","internalType":"uint256"}],"outputs":[{"name":"from","type":"address","internalType":"address"},{"name":"to","type":"address","internalType":"address"},{"name":"status","type":"bool","internalType":"bool"},{"name":"proposalId","type":"uint256","internalType":"uint256"},{"name":"resolved","type":"bool","internalType":"bool"},{"name":"closed","type":"bool","internalType":"bool"}],"stateMutability":"view"},{"type":"function","name":"getBalance","inputs":[],"outputs":[{"name":"","type":"uint256","internalType":"uint256"}],"stateMutability":"view"},{"type":"function","name":"getForm","inputs":[{"name":"formId","type":"uint256","internalType":"uint256"}],"outputs":[{"name":"from","type":"address","internalType":"address"},{"name":"to","type":"address","internalType":"address"},{"name":"resolved","type":"bool","internalType":"bool"},{"name":"closed","type":"bool","internalType":"bool"},{"name":"status","type":"bool","internalType":"bool"},{"name":"proposalId","type":"uint256","internalType":"uint256"}],"stateMutability":"view"},{"type":"function","name":"getFormsCount","inputs":[],"outputs":[{"name":"","type":"uint256","internalType":"uint256"}],"stateMutability":"view"},{"type":"function","name":"getMandatedVoters","inputs":[{"name":"formId","type":"uint256","internalType":"uint256"},{"name":"inx","type":"uint256","internalType":"uint256"}],"outputs":[{"name":"mandatedvoter","type":"address","internalType":"address"}],"stateMutability":"view"},{"type":"function","name":"getMandatedVotersCount","inputs":[{"name":"formId","type":"uint256","internalType":"uint256"}],"outputs":[{"name":"count","type":"uint256","internalType":"uint256"}],"stateMutability":"view"},{"type":"function","name":"isNodeStopped","inputs":[{"name":"sender","type":"address","internalType":"address"}],"outputs":[{"name":"","type":"bool","internalType":"bool"}],"stateMutability":"view"},{"type":"function","name":"isOwnerOrSafeOwner","inputs":[{"name":"sender","type":"address","internalType":"address"}],"outputs":[{"name":"","type":"bool","internalType":"bool"}],"stateMutability":"view"},{"type":"function","name":"owner","inputs":[],"outputs":[{"name":"","type":"address","internalType":"address"}],"stateMutability":"view"},{"type":"function","name":"reConstruct","inputs":[{"name":"_h","type":"address","internalType":"address"}],"outputs":[],"stateMutability":"nonpayable"},{"type":"function","name":"resolveTransferTarget","inputs":[{"name":"to","type":"address","internalType":"address"}],"outputs":[{"name":"from","type":"address","internalType":"address"}],"stateMutability":"view"},{"type":"function","name":"setOwner","inputs":[{"name":"own","type":"address","internalType":"address"}],"outputs":[],"stateMutability":"nonpayable"},{"type":"function","name":"setUser","inputs":[{"name":"users","type":"address[]","internalType":"address[]"}],"outputs":[],"stateMutability":"nonpayable"},{"type":"function","name":"submitTransferForm","inputs":[{"name":"_from","type":"address","internalType":"address"},{"name":"_mandatedvoters","type":"address[]","internalType":"address[]"}],"outputs":[],"stateMutability":"nonpayable"},{"type":"function","name":"withdraw","inputs":[{"name":"to","type":"address","internalType":"address"},{"name":"amount","type":"uint256","internalType":"uint256"}],"outputs":[],"stateMutability":"payable"}],"bytecode":{"object":"0x60806040526001805460ff60a01b1916600160a01b17905534801561002357600080fd5b5061005d600180546001600160a01b03199081163217909155600080549091167342a290d71609ce160fd79771ebef3457ef737548179055565b600380546001808201835560069091027fc2575a0e9e593c00f959f8c92f12db2869c3395a3b0502d05e2516446f71f85b81018054306001600160a01b031991821681179092557fc2575a0e9e593c00f959f8c92f12db2869c3395a3b0502d05e2516446f71f85c83018054909116821790557fc2575a0e9e593c00f959f8c92f12db2869c3395a3b0502d05e2516446f71f85e8201805460ff1916841790557fc2575a0e9e593c00f959f8c92f12db2869c3395a3b0502d05e2516446f71f860909101805461ffff1916909217909155905460009182526002602052604090912055611eb28061014f6000396000f3fe60806040526004361061012d5760003560e01c80638da5cb5b116100a5578063cab3cc8d1161006c578063cab3cc8d146103de578063cb84b34b146103f3578063db5b18b214610413578063e0a9bc2b14610433578063f3fef3a314610448578063ff585caf1461045b57005b80638da5cb5b14610340578063ac2333451461035e578063b90306ad1461037e578063b94bae9114610391578063c1e6cec2146103b157005b8063379a423c116100f4578063379a423c14610228578063479fa2c3146102485780634ef260a9146102a857806351bfd3ae146102c857806359ab65f7146102e857806376e8217d1461030857005b806312065fe01461013657806313a52c8c1461015857806313af40351461017857806318c864e3146101985780631f185d16146101f857005b3661013457005b005b34801561014257600080fd5b50475b6040519081526020015b60405180910390f35b34801561016457600080fd5b50610134610173366004611b2d565b61047b565b34801561018457600080fd5b50610134610193366004611b7d565b610766565b3480156101a457600080fd5b506101b86101b3366004611b9a565b61081b565b604080516001600160a01b0397881681529690951660208701529215159385019390935260608401529015156080830152151560a082015260c00161014f565b34801561020457600080fd5b50610218610213366004611b7d565b610879565b604051901515815260200161014f565b34801561023457600080fd5b50610218610243366004611b7d565b61094d565b34801561025457600080fd5b50610268610263366004611b9a565b610973565b604080516001600160a01b0397881681529690951660208701529215159385019390935215156060840152901515608083015260a082015260c00161014f565b3480156102b457600080fd5b506101346102c3366004611b7d565b6109f0565b3480156102d457600080fd5b506102186102e3366004611b7d565b610a65565b3480156102f457600080fd5b50610134610303366004611b7d565b610c19565b34801561031457600080fd5b50610328610323366004611bb3565b610d34565b6040516001600160a01b03909116815260200161014f565b34801561034c57600080fd5b506001546001600160a01b0316610328565b34801561036a57600080fd5b50610328610379366004611b7d565b610d96565b61013461038c366004611b9a565b610e54565b34801561039d57600080fd5b506101346103ac366004611bd5565b610f18565b3480156103bd57600080fd5b506101456103cc366004611b7d565b60026020526000908152604090205481565b3480156103ea57600080fd5b50600354610145565b3480156103ff57600080fd5b5061014561040e366004611b9a565b6110a5565b34801561041f57600080fd5b5061021861042e366004611b7d565b6110e0565b34801561043f57600080fd5b5061021861119d565b610134610456366004611c12565b611238565b34801561046757600080fd5b50610134610476366004611b9a565b611398565b816001600160a01b0381166104cc5760405162461bcd60e51b815260206004820152601260248201527137bbb7173232b330bab63a1739b2b73232b960711b60448201526064015b60405180910390fd5b336000908152600260205260409020541561051e5760405162461bcd60e51b815260206004820152601260248201527170726f706f7365722e746f2e65786973747360701b60448201526064016104c3565b600380546001810182556000919091526006027fc2575a0e9e593c00f959f8c92f12db2869c3395a3b0502d05e2516446f71f85b810180546001600160a01b0386166001600160a01b03199182161782557fc2575a0e9e593c00f959f8c92f12db2869c3395a3b0502d05e2516446f71f85c8301805490911633179055835190916105d2917fc2575a0e9e593c00f959f8c92f12db2869c3395a3b0502d05e2516446f71f85d9091019060208601906119d6565b5060018054600283018054928301815560009081526020812090920180546001600160a01b0319166001600160a01b03909216919091179055600354604051610622919060240190815260200190565b60408051601f19818403018152918152602080830180516001600160e01b0316600162a7a35160e01b0319179052600080548351634162169f60e01b815293519495509093610723936001600160a01b0390921692634162169f92600480820193918290030181865afa15801561069d573d6000803e3d6000fd5b505050506040513d601f19601f820116820180604052508101906106c19190611c3e565b306000856007886002018054905060016106db9190611c71565b60006040516024016106f296959493929190611ca8565b60408051601f198184030181529190526020810180516001600160e01b0316633215938f60e01b1790526000611624565b9050808060200190518101906107399190611d31565b600484015550506003546001909101546001600160a01b0316600090815260026020526040902055505050565b60005460408051634162169f60e01b8152905133926001600160a01b031691634162169f9160048083019260209291908290030181865afa1580156107af573d6000803e3d6000fd5b505050506040513d601f19601f820116820180604052508101906107d39190611c3e565b6001600160a01b0316146107f95760405162461bcd60e51b81526004016104c390611d4a565b600180546001600160a01b0319166001600160a01b0392909216919091179055565b6003818154811061082b57600080fd5b6000918252602090912060069091020180546001820154600383015460048401546005909401546001600160a01b039384169550929091169260ff9182169290918082169161010090041686565b600080546040805163af0deb9560e01b81529051610947926001600160a01b03169163af0deb959160048083019260209291908290030181865afa1580156108c5573d6000803e3d6000fd5b505050506040513d601f19601f820116820180604052508101906108e99190611c3e565b6040518060400160405280601181526020017069735369676e657228616464726573732960781b8152508460405160200161093391906001600160a01b0391909116815260200190565b604051602081830303815290604052611733565b92915050565b6000610958826110e0565b806109475750506001546001600160a01b0391821691161490565b6000808080808080600361098860018a611d73565b8154811061099857610998611d86565b6000918252602090912060069091020180546001820154600583015460038401546004909401546001600160a01b039384169d939092169b5060ff8082169b5061010090910481169950909216965090945092505050565b6001600160a01b038116600090815260026020526040812054600390610a1890600190611d73565b81548110610a2857610a28611d86565b60009182526020808320600560069093020191909101805461ff0019166101001790556001600160a01b0390931681526002909252506040812055565b600080610b4060008054906101000a90046001600160a01b03166001600160a01b031663a66bcbe26040518163ffffffff1660e01b8152600401602060405180830381865afa158015610abc573d6000803e3d6000fd5b505050506040513d601f19601f82011682018060405250810190610ae09190611c3e565b6040518060400160405280601381526020017255736572546f496e737428616464726573732960681b81525085604051602001610b2c91906001600160a01b0391909116815260200190565b60405160208183030381529060405261177a565b60408051808201909152600b81526a697353757370656e64282960a81b60208201529091506001600160a01b038216151590600090610bad908490835b6040519080825280601f01601f191660200182016040528015610ba7576020820181803683370190505b50611733565b90506000610bf0846040518060400160405280600881526020016769734c6f636b282960c01b815250600067ffffffffffffffff811115610b7d57610b7d611a75565b9050818015610bfc5750805b8015610c06575082155b80610c0f575082155b9695505050505050565b610c2161119d565b610c625760405162461bcd60e51b81526020600482015260126024820152716f776e2e696e76616c69642e69735361666560701b60448201526064016104c3565b610c6b336110e0565b80610ce9575060005460408051634162169f60e01b8152905133926001600160a01b031691634162169f9160048083019260209291908290030181865afa158015610cba573d6000803e3d6000fd5b505050506040513d601f19601f82011682018060405250810190610cde9190611c3e565b6001600160a01b0316145b610d055760405162461bcd60e51b81526004016104c390611d4a565b60018054326001600160a01b031991821617909155600080549091166001600160a01b03831617905550565b50565b6000806003610d44600186611d73565b81548110610d5457610d54611d86565b90600052602060002090600602019050806002018381548110610d7957610d79611d86565b6000918252602090912001546001600160a01b0316949350505050565b6001600160a01b0381166000908152600260205260408120548103610dbd57506000919050565b6001600160a01b038216600090815260026020526040812054600390610de590600190611d73565b81548110610df557610df5611d86565b60009182526020909120600690910201600381015490915060ff168015610e205750600581015460ff165b8015610e3657506005810154610100900460ff16155b610e41576000610e4d565b80546001600160a01b03165b9392505050565b60005460408051634162169f60e01b8152905133926001600160a01b031691634162169f9160048083019260209291908290030181865afa158015610e9d573d6000803e3d6000fd5b505050506040513d601f19601f82011682018060405250810190610ec19190611c3e565b6001600160a01b031614610ee75760405162461bcd60e51b81526004016104c390611d4a565b60405160009082156108fc0290839083818181858288f19350505050158015610f14573d6000803e3d6000fd5b5050565b60005b8151811015610f145760026000838381518110610f3a57610f3a611d86565b60200260200101516001600160a01b03166001600160a01b031681526020019081526020016000205460000361109357611093828281518110610f7f57610f7f611d86565b6020026020010151838381518110610f9957610f99611d86565b6020026020010151600380546001818101835560069091027fc2575a0e9e593c00f959f8c92f12db2869c3395a3b0502d05e2516446f71f85b810180546001600160a01b039687166001600160a01b0319918216179091557fc2575a0e9e593c00f959f8c92f12db2869c3395a3b0502d05e2516446f71f85c8201805495909616941684179094557fc2575a0e9e593c00f959f8c92f12db2869c3395a3b0502d05e2516446f71f85e8401805460ff1916821790557fc2575a0e9e593c00f959f8c92f12db2869c3395a3b0502d05e2516446f71f860909301805461ffff1916909317909255905460009182526002602052604090912055565b8061109d81611d9c565b915050610f1b565b60008060036110b5600185611d73565b815481106110c5576110c5611d86565b60009182526020909120600260069092020101549392505050565b600080546040805163af0deb9560e01b81529051610947926001600160a01b03169163af0deb959160048083019260209291908290030181865afa15801561112c573d6000803e3d6000fd5b505050506040513d601f19601f820116820180604052508101906111509190611c3e565b604051806040016040528060148152602001736973536166654f776e657228616464726573732960601b8152508460405160200161093391906001600160a01b0391909116815260200190565b600080546040805163af0deb9560e01b81529051611233926001600160a01b03169163af0deb959160048083019260209291908290030181865afa1580156111e9573d6000803e3d6000fd5b505050506040513d601f19601f8201168201806040525081019061120d9190611c3e565b604080518082019091526008815267697353616665282960c01b60208201526000610b7d565b905090565b816001600160a01b0381166112845760405162461bcd60e51b815260206004820152601260248201527137bbb7173232b330bab63a1739b2b73232b960711b60448201526064016104c3565b60005460408051634162169f60e01b8152905133926001600160a01b031691634162169f9160048083019260209291908290030181865afa1580156112cd573d6000803e3d6000fd5b505050506040513d601f19601f820116820180604052508101906112f19190611c3e565b6001600160a01b0316146113175760405162461bcd60e51b81526004016104c390611d4a565b6000821161135c5760405162461bcd60e51b81526020600482015260126024820152711bdddb8b9a5b9d985b1a590b985b5bdd5b9d60721b60448201526064016104c3565b6040516001600160a01b0384169083156108fc029084906000818181858888f19350505050158015611392573d6000803e3d6000fd5b50505050565b806000036113a35750565b600060036113b2600184611d73565b815481106113c2576113c2611d86565b9060005260206000209060060201905060006114a260008054906101000a90046001600160a01b03166001600160a01b0316634162169f6040518163ffffffff1660e01b8152600401602060405180830381865afa158015611428573d6000803e3d6000fd5b505050506040513d601f19601f8201168201806040525081019061144c9190611c3e565b60405180604001604052806012815260200171676574526573756c742875696e743235362960701b815250846004015460405160200161148e91815260200190565b6040516020818303038152906040526117b5565b90506000818060200190518101906114ba9190611dc5565b6003808a01805460ff19908116600485141790915560058b01805490911691831015919091179055955060009450505050505b6002840154811080156115045750600384015460ff165b1561161d5760005460408051634162169f60e01b815290516115f8926001600160a01b031691634162169f9160048083019260209291908290030181865afa158015611554573d6000803e3d6000fd5b505050506040513d601f19601f820116820180604052508101906115789190611c3e565b6040518060400160405280601981526020017f686173566f7465642875696e743235362c61646472657373290000000000000081525086600401548760020185815481106115c8576115c8611d86565b6000918252602091829020015460408051928301939093526001600160a01b031691810191909152606001610933565b60038501805460ff19169115159190911790558061161581611d9c565b9150506114ed565b5050505050565b60606001600160a01b0384166116715760405162461bcd60e51b81526020600482015260126024820152711bdddb8b9a5b9d985b1a590b9d185c99d95d60721b60448201526064016104c3565b600080856001600160a01b0316848660405161168d9190611e16565b60006040518083038185875af1925050503d80600081146116ca576040519150601f19603f3d011682016040523d82523d6000602084013e6116cf565b606091505b50915091508161172a578051156116e95780518082602001fd5b60405162461bcd60e51b81526020600482015260166024820152751bdddb8b9d185c99d95d0b98d85b1b0b99985a5b195960521b60448201526064016104c3565b95945050505050565b60008060006117438686866118d4565b91509150818015611755575080516020145b15611771578080602001905181019061176e9190611e32565b92505b50509392505050565b600080600061178a8686866118d4565b9150915081801561179c575080516020145b15611771578080602001905181019061176e9190611c3e565b6060836001600160a01b03163b6000036117de5750604080516020810190915260008152610e4d565b604080516004815260248101918290526000916117fc908690611e16565b60405180910390206001600160e01b0319166020820180516001600160e01b03838183161783525050505083604051602001611839929190611e4d565b6040516020818303038152906040529050600080866001600160a01b0316836040516118659190611e16565b600060405180830381855afa9150503d80600081146118a0576040519150601f19603f3d011682016040523d82523d6000602084013e6118a5565b606091505b509150915081156118ba579250610e4d915050565b505060408051602081019091526000815295945050505050565b60006060846001600160a01b03163b60000361190257505060408051602081019091526000808252906119ce565b60408051600481526024810191829052600091611920908790611e16565b60405180910390206001600160e01b0319166020820180516001600160e01b0383818316178352505050508460405160200161195d929190611e4d565b6040516020818303038152906040529050856001600160a01b0316816040516119869190611e16565b600060405180830381855afa9150503d80600081146119c1576040519150601f19603f3d011682016040523d82523d6000602084013e6119c6565b606091505b509093509150505b935093915050565b828054828255906000526020600020908101928215611a2b579160200282015b82811115611a2b57825182546001600160a01b0319166001600160a01b039091161782556020909201916001909101906119f6565b50611a37929150611a3b565b5090565b5b80821115611a375760008155600101611a3c565b6001600160a01b0381168114610d3157600080fd5b8035611a7081611a50565b919050565b634e487b7160e01b600052604160045260246000fd5b600082601f830112611a9c57600080fd5b8135602067ffffffffffffffff80831115611ab957611ab9611a75565b8260051b604051601f19603f83011681018181108482111715611ade57611ade611a75565b604052938452858101830193838101925087851115611afc57600080fd5b83870191505b84821015611b2257611b1382611a65565b83529183019190830190611b02565b979650505050505050565b60008060408385031215611b4057600080fd5b8235611b4b81611a50565b9150602083013567ffffffffffffffff811115611b6757600080fd5b611b7385828601611a8b565b9150509250929050565b600060208284031215611b8f57600080fd5b8135610e4d81611a50565b600060208284031215611bac57600080fd5b5035919050565b60008060408385031215611bc657600080fd5b50508035926020909101359150565b600060208284031215611be757600080fd5b813567ffffffffffffffff811115611bfe57600080fd5b611c0a84828501611a8b565b949350505050565b60008060408385031215611c2557600080fd5b8235611c3081611a50565b946020939093013593505050565b600060208284031215611c5057600080fd5b8151610e4d81611a50565b634e487b7160e01b600052601160045260246000fd5b8082018082111561094757610947611c5b565b60005b83811015611c9f578181015183820152602001611c87565b50506000910152565b60e08152600d60e08201526c2ab9b2b9102a3930b739b332b960991b610100820152600061012060018060a01b038916602084015260ff88166040840152806060840152865180828501526101409150611d088183860160208b01611c84565b60ff8716608085015260a0840186905284151560c0850152601f01601f19168301019050611b22565b600060208284031215611d4357600080fd5b5051919050565b6020808252600f908201526e6f776e2e6e6f6e617574682e44414f60881b604082015260600190565b8181038181111561094757610947611c5b565b634e487b7160e01b600052603260045260246000fd5b600060018201611dae57611dae611c5b565b5060010190565b80518015158114611a7057600080fd5b60008060008060008060c08789031215611dde57600080fd5b611de787611db5565b95506020870151945060408701519350606087015192506080870151915060a087015190509295509295509295565b60008251611e28818460208701611c84565b9190910192915050565b600060208284031215611e4457600080fd5b610e4d82611db5565b60008351611e5f818460208801611c84565b835190830190611e73818360208801611c84565b0194935050505056fea2646970667358221220d760673c2ac7cff6f5c27d95baf63d0c57c97b10627fe4b16e47a690b6da273d64736f6c63430008140033","linkReferences":{}},"methodIdentifiers":{"Burn(uint256)":"b90306ad","UserToForm(address)":"c1e6cec2","_isSafe()":"e0a9bc2b","_isSafeOwner(address)":"db5b18b2","_isSigner(address)":"1f185d16","callback(uint256)":"ff585caf","closeTransferTarget(address)":"4ef260a9","forms(uint256)":"18c864e3","getBalance()":"12065fe0","getForm(uint256)":"479fa2c3","getFormsCount()":"cab3cc8d","getMandatedVoters(uint256,uint256)":"76e8217d","getMandatedVotersCount(uint256)":"cb84b34b","isNodeStopped(address)":"51bfd3ae","isOwnerOrSafeOwner(address)":"379a423c","owner()":"8da5cb5b","reConstruct(address)":"59ab65f7","resolveTransferTarget(address)":"ac233345","setOwner(address)":"13af4035","setUser(address[])":"b94bae91","submitTransferForm(address,address[])":"13a52c8c","withdraw(address,uint256)":"f3fef3a3"},"id":2}