{"abi":[{"type":"constructor","inputs":[],"stateMutability":"nonpayable"},{"type":"fallback","stateMutability":"payable"},{"type":"receive","stateMutability":"payable"},{"type":"function","name":"addOwner","inputs":[{"name":"o","type":"address","internalType":"address"}],"outputs":[],"stateMutability":"nonpayable"},{"type":"function","name":"dao","inputs":[],"outputs":[{"name":"","type":"address","internalType":"address"}],"stateMutability":"view"},{"type":"function","name":"getAllAddresses1","inputs":[],"outputs":[{"name":"hexbase_","type":"address","internalType":"address"},{"name":"safe_","type":"address","internalType":"address"},{"name":"dao_","type":"address","internalType":"address"},{"name":"rule_","type":"address","internalType":"address"},{"name":"price_","type":"address","internalType":"address"},{"name":"inst_","type":"address","internalType":"address"},{"name":"nested_","type":"address","internalType":"address"},{"name":"orc1155_","type":"address","internalType":"address"},{"name":"primeData_","type":"address","internalType":"address"},{"name":"inBackendPrime_","type":"address","internalType":"address"}],"stateMutability":"view"},{"type":"function","name":"getAllAddresses2","inputs":[],"outputs":[{"name":"TVLmining_","type":"address","internalType":"address"},{"name":"TVLminingPrime_","type":"address","internalType":"address"},{"name":"TVLreward_","type":"address","internalType":"address"},{"name":"TVLroyality_","type":"address","internalType":"address"},{"name":"TVLtour_","type":"address","internalType":"address"},{"name":"primedata_","type":"address","internalType":"address"}],"stateMutability":"view"},{"type":"function","name":"in741","inputs":[],"outputs":[{"name":"","type":"address","internalType":"address"}],"stateMutability":"view"},{"type":"function","name":"in741Old","inputs":[],"outputs":[{"name":"","type":"address","internalType":"address"}],"stateMutability":"view"},{"type":"function","name":"in741PrimeOld","inputs":[],"outputs":[{"name":"","type":"address","internalType":"address"}],"stateMutability":"view"},{"type":"function","name":"in741Rule","inputs":[],"outputs":[{"name":"","type":"address","internalType":"address"}],"stateMutability":"view"},{"type":"function","name":"inBackendPrime","inputs":[],"outputs":[{"name":"","type":"address","internalType":"address"}],"stateMutability":"view"},{"type":"function","name":"inInstance","inputs":[],"outputs":[{"name":"","type":"address","internalType":"address"}],"stateMutability":"view"},{"type":"function","name":"inInstancePrime","inputs":[],"outputs":[{"name":"","type":"address","internalType":"address"}],"stateMutability":"view"},{"type":"function","name":"inOrc1155","inputs":[],"outputs":[{"name":"","type":"address","internalType":"address"}],"stateMutability":"view"},{"type":"function","name":"inOrc1155Prime","inputs":[],"outputs":[{"name":"","type":"address","internalType":"address"}],"stateMutability":"view"},{"type":"function","name":"inPrice","inputs":[],"outputs":[{"name":"","type":"address","internalType":"address"}],"stateMutability":"view"},{"type":"function","name":"inPrimeData","inputs":[],"outputs":[{"name":"","type":"address","internalType":"address"}],"stateMutability":"view"},{"type":"function","name":"inTreaseryTVLMining","inputs":[],"outputs":[{"name":"","type":"address","internalType":"address"}],"stateMutability":"view"},{"type":"function","name":"inTreaseryTVLMiningPrime","inputs":[],"outputs":[{"name":"","type":"address","internalType":"address"}],"stateMutability":"view"},{"type":"function","name":"inTreaseryTVLReward","inputs":[],"outputs":[{"name":"","type":"address","internalType":"address"}],"stateMutability":"view"},{"type":"function","name":"inTreaseryTVLRoyality","inputs":[],"outputs":[{"name":"","type":"address","internalType":"address"}],"stateMutability":"view"},{"type":"function","name":"inTreaseryTVLTour","inputs":[],"outputs":[{"name":"","type":"address","internalType":"address"}],"stateMutability":"view"},{"type":"function","name":"isOwner","inputs":[{"name":"o","type":"address","internalType":"address"}],"outputs":[{"name":"","type":"bool","internalType":"bool"}],"stateMutability":"view"},{"type":"function","name":"safeguard","inputs":[],"outputs":[{"name":"","type":"address","internalType":"address"}],"stateMutability":"view"},{"type":"function","name":"update741","inputs":[{"name":"nested_","type":"address","internalType":"address"}],"outputs":[],"stateMutability":"nonpayable"},{"type":"function","name":"update741Old","inputs":[{"name":"nested_","type":"address","internalType":"address"}],"outputs":[],"stateMutability":"nonpayable"},{"type":"function","name":"update741PrimeOld","inputs":[{"name":"nested_","type":"address","internalType":"address"}],"outputs":[],"stateMutability":"nonpayable"},{"type":"function","name":"update741Rule","inputs":[{"name":"rule_","type":"address","internalType":"address"}],"outputs":[],"stateMutability":"nonpayable"},{"type":"function","name":"updateBackendPrime","inputs":[{"name":"inBackendPrime_","type":"address","internalType":"address"}],"outputs":[],"stateMutability":"nonpayable"},{"type":"function","name":"updateDAO","inputs":[{"name":"dao_","type":"address","internalType":"address"}],"outputs":[],"stateMutability":"nonpayable"},{"type":"function","name":"updateInstance","inputs":[{"name":"instance_","type":"address","internalType":"address"}],"outputs":[],"stateMutability":"nonpayable"},{"type":"function","name":"updateInstancePrime","inputs":[{"name":"instancePrime_","type":"address","internalType":"address"}],"outputs":[],"stateMutability":"nonpayable"},{"type":"function","name":"updateORC1155","inputs":[{"name":"orc1155_","type":"address","internalType":"address"}],"outputs":[],"stateMutability":"nonpayable"},{"type":"function","name":"updateORC1155Prime","inputs":[{"name":"orc1155Prime_","type":"address","internalType":"address"}],"outputs":[],"stateMutability":"nonpayable"},{"type":"function","name":"updatePrice","inputs":[{"name":"price_","type":"address","internalType":"address"}],"outputs":[],"stateMutability":"nonpayable"},{"type":"function","name":"updatePrimedata","inputs":[{"name":"prime_","type":"address","internalType":"address"}],"outputs":[],"stateMutability":"nonpayable"},{"type":"function","name":"updateSafeguard","inputs":[{"name":"safeguard_","type":"address","internalType":"address"}],"outputs":[],"stateMutability":"nonpayable"},{"type":"function","name":"updateTreasuryTVLMining","inputs":[{"name":"treasury_","type":"address","internalType":"address"}],"outputs":[],"stateMutability":"nonpayable"},{"type":"function","name":"updateTreasuryTVLMiningPrime","inputs":[{"name":"treasury_","type":"address","internalType":"address"}],"outputs":[],"stateMutability":"nonpayable"},{"type":"function","name":"updateTreasuryTVLReward","inputs":[{"name":"treasury_","type":"address","internalType":"address"}],"outputs":[],"stateMutability":"nonpayable"},{"type":"function","name":"updateTreasuryTVLRoyality","inputs":[{"name":"treasury_","type":"address","internalType":"address"}],"outputs":[],"stateMutability":"nonpayable"},{"type":"function","name":"updateTreasuryTVLTour","inputs":[{"name":"treasury_","type":"address","internalType":"address"}],"outputs":[],"stateMutability":"nonpayable"}],"bytecode":{"object":"0x6080604052601080546001600160a01b031990811673c0cee8b561cc4f60869776ca5b0b7a295e04f5af1790915560118054909116739f33b44587a57758c1413dbab6640f6abea5cef417905534801561005857600080fd5b50326000908152601260205260408082208054600160ff1991821681179092553384529183208054909216179055610eba90819061009690396000f3fe6080604052600436106102275760003560e01c80636665858411610122578063aeb14020116100a5578063d05a56511161006c578063d05a56511461077f578063d3d1b0961461079f578063d62bab34146107bf578063e2576819146107df578063e61dfd58146107ff57005b8063aeb14020146106df578063af233190146106ff578063b57dbdc61461071f578063bcb6c0b51461073f578063cfbffe531461075f57005b8063839a47a4116100e9578063839a47a41461063f57806396e85ced1461065f5780639a7c40771461067f578063aa0ddc161461069f578063ab6e844f146106bf57005b8063666585841461059f5780636b4aefc6146105bf5780637065cb48146105df578063753e7d33146105ff5780637c27dd0c1461061f57005b80632f54bf6e116101aa578063447aa30411610171578063447aa304146104bd578063447bf0e2146104dd5780635f7ba561146104fd578063640274271461051d57806364d93c621461053d57005b80632f54bf6e146103f457806330125cf51461043d578063313c5fdc1461045d57806336c24c461461047d5780634162169f1461049d57005b8063236b0402116101ee578063236b0402146102ed578063242fca551461030d57806324768d911461032d578063275424d01461034d57806328b3ab9c1461036d57005b806301c0d48b1461023057806305abae0d1461026d5780631162a5b11461028d578063130fba6d146102ad5780631b67970a146102cd57005b3661022e57005b005b34801561023c57600080fd5b50600e54610250906001600160a01b031681565b6040516001600160a01b0390911681526020015b60405180910390f35b34801561027957600080fd5b5061022e610288366004610e2d565b61081f565b34801561029957600080fd5b5061022e6102a8366004610e2d565b610879565b3480156102b957600080fd5b5061022e6102c8366004610e2d565b6108ca565b3480156102d957600080fd5b5061022e6102e8366004610e2d565b61091b565b3480156102f957600080fd5b5061022e610308366004610e2d565b61096c565b34801561031957600080fd5b5061022e610328366004610e2d565b6109bd565b34801561033957600080fd5b50600a54610250906001600160a01b031681565b34801561035957600080fd5b5061022e610368366004610e2d565b610a0e565b34801561037957600080fd5b50600154600054600254600d54600b54600354600454600e54600f54604080513081526001600160a01b039a8b166020820152988a16908901529588166060880152938716608087015291861660a0860152851660c0850152841660e084015283166101008301529190911661012082015261014001610264565b34801561040057600080fd5b5061042d61040f366004610e2d565b6001600160a01b031660009081526012602052604090205460ff1690565b6040519015158152602001610264565b34801561044957600080fd5b50600954610250906001600160a01b031681565b34801561046957600080fd5b5061022e610478366004610e2d565b610a5f565b34801561048957600080fd5b5061022e610498366004610e2d565b610ab0565b3480156104a957600080fd5b50600054610250906001600160a01b031681565b3480156104c957600080fd5b50601054610250906001600160a01b031681565b3480156104e957600080fd5b50601154610250906001600160a01b031681565b34801561050957600080fd5b5061022e610518366004610e2d565b610b01565b34801561052957600080fd5b50600854610250906001600160a01b031681565b34801561054957600080fd5b50600654600754600854600954600a54600e54604080516001600160a01b0397881681529587166020870152938616938501939093529084166060840152831660808301529190911660a082015260c001610264565b3480156105ab57600080fd5b5061022e6105ba366004610e2d565b610b52565b3480156105cb57600080fd5b50600754610250906001600160a01b031681565b3480156105eb57600080fd5b5061022e6105fa366004610e2d565b610ba3565b34801561060b57600080fd5b5061022e61061a366004610e2d565b610bf6565b34801561062b57600080fd5b50600f54610250906001600160a01b031681565b34801561064b57600080fd5b5061022e61065a366004610e2d565b610c47565b34801561066b57600080fd5b5061022e61067a366004610e2d565b610c98565b34801561068b57600080fd5b50600454610250906001600160a01b031681565b3480156106ab57600080fd5b50600654610250906001600160a01b031681565b3480156106cb57600080fd5b50600354610250906001600160a01b031681565b3480156106eb57600080fd5b5061022e6106fa366004610e2d565b610ce9565b34801561070b57600080fd5b50600c54610250906001600160a01b031681565b34801561072b57600080fd5b50600154610250906001600160a01b031681565b34801561074b57600080fd5b5061022e61075a366004610e2d565b610d3a565b34801561076b57600080fd5b50600254610250906001600160a01b031681565b34801561078b57600080fd5b5061022e61079a366004610e2d565b610d8b565b3480156107ab57600080fd5b50600d54610250906001600160a01b031681565b3480156107cb57600080fd5b50600554610250906001600160a01b031681565b3480156107eb57600080fd5b5061022e6107fa366004610e2d565b610ddc565b34801561080b57600080fd5b50600b54610250906001600160a01b031681565b3360009081526012602052604090205460ff166108575760405162461bcd60e51b815260040161084e90610e5d565b60405180910390fd5b600880546001600160a01b0319166001600160a01b0392909216919091179055565b3360009081526012602052604090205460ff166108a85760405162461bcd60e51b815260040161084e90610e5d565b600180546001600160a01b0319166001600160a01b0392909216919091179055565b3360009081526012602052604090205460ff166108f95760405162461bcd60e51b815260040161084e90610e5d565b600680546001600160a01b0319166001600160a01b0392909216919091179055565b3360009081526012602052604090205460ff1661094a5760405162461bcd60e51b815260040161084e90610e5d565b600a80546001600160a01b0319166001600160a01b0392909216919091179055565b3360009081526012602052604090205460ff1661099b5760405162461bcd60e51b815260040161084e90610e5d565b601080546001600160a01b0319166001600160a01b0392909216919091179055565b3360009081526012602052604090205460ff166109ec5760405162461bcd60e51b815260040161084e90610e5d565b600f80546001600160a01b0319166001600160a01b0392909216919091179055565b3360009081526012602052604090205460ff16610a3d5760405162461bcd60e51b815260040161084e90610e5d565b600b80546001600160a01b0319166001600160a01b0392909216919091179055565b3360009081526012602052604090205460ff16610a8e5760405162461bcd60e51b815260040161084e90610e5d565b600480546001600160a01b0319166001600160a01b0392909216919091179055565b3360009081526012602052604090205460ff16610adf5760405162461bcd60e51b815260040161084e90610e5d565b600780546001600160a01b0319166001600160a01b0392909216919091179055565b3360009081526012602052604090205460ff16610b305760405162461bcd60e51b815260040161084e90610e5d565b600580546001600160a01b0319166001600160a01b0392909216919091179055565b3360009081526012602052604090205460ff16610b815760405162461bcd60e51b815260040161084e90610e5d565b601180546001600160a01b0319166001600160a01b0392909216919091179055565b3360009081526012602052604090205460ff16610bd25760405162461bcd60e51b815260040161084e90610e5d565b6001600160a01b03166000908152601260205260409020805460ff19166001179055565b3360009081526012602052604090205460ff16610c255760405162461bcd60e51b815260040161084e90610e5d565b600280546001600160a01b0319166001600160a01b0392909216919091179055565b3360009081526012602052604090205460ff16610c765760405162461bcd60e51b815260040161084e90610e5d565b600c80546001600160a01b0319166001600160a01b0392909216919091179055565b3360009081526012602052604090205460ff16610cc75760405162461bcd60e51b815260040161084e90610e5d565b600d80546001600160a01b0319166001600160a01b0392909216919091179055565b3360009081526012602052604090205460ff16610d185760405162461bcd60e51b815260040161084e90610e5d565b600380546001600160a01b0319166001600160a01b0392909216919091179055565b3360009081526012602052604090205460ff16610d695760405162461bcd60e51b815260040161084e90610e5d565b600080546001600160a01b0319166001600160a01b0392909216919091179055565b3360009081526012602052604090205460ff16610dba5760405162461bcd60e51b815260040161084e90610e5d565b600e80546001600160a01b0319166001600160a01b0392909216919091179055565b3360009081526012602052604090205460ff16610e0b5760405162461bcd60e51b815260040161084e90610e5d565b600980546001600160a01b0319166001600160a01b0392909216919091179055565b600060208284031215610e3f57600080fd5b81356001600160a01b0381168114610e5657600080fd5b9392505050565b6020808252600d908201526c24b73b30b634b21037bbb732b960991b60408201526060019056fea26469706673582212207ffe6f13977678aa5469090ff94c4b9ee62ae077e308ba6cf445c5df57e1ff3464736f6c63430008140033","linkReferences":{}},"methodIdentifiers":{"addOwner(address)":"7065cb48","dao()":"4162169f","getAllAddresses1()":"28b3ab9c","getAllAddresses2()":"64d93c62","in741()":"ab6e844f","in741Old()":"447aa304","in741PrimeOld()":"447bf0e2","in741Rule()":"cfbffe53","inBackendPrime()":"7c27dd0c","inInstance()":"e61dfd58","inInstancePrime()":"af233190","inOrc1155()":"9a7c4077","inOrc1155Prime()":"d62bab34","inPrice()":"d3d1b096","inPrimeData()":"01c0d48b","inTreaseryTVLMining()":"aa0ddc16","inTreaseryTVLMiningPrime()":"6b4aefc6","inTreaseryTVLReward()":"64027427","inTreaseryTVLRoyality()":"30125cf5","inTreaseryTVLTour()":"24768d91","isOwner(address)":"2f54bf6e","safeguard()":"b57dbdc6","update741(address)":"aeb14020","update741Old(address)":"236b0402","update741PrimeOld(address)":"66658584","update741Rule(address)":"753e7d33","updateBackendPrime(address)":"242fca55","updateDAO(address)":"bcb6c0b5","updateInstance(address)":"275424d0","updateInstancePrime(address)":"839a47a4","updateORC1155(address)":"313c5fdc","updateORC1155Prime(address)":"5f7ba561","updatePrice(address)":"96e85ced","updatePrimedata(address)":"d05a5651","updateSafeguard(address)":"1162a5b1","updateTreasuryTVLMining(address)":"130fba6d","updateTreasuryTVLMiningPrime(address)":"36c24c46","updateTreasuryTVLReward(address)":"05abae0d","updateTreasuryTVLRoyality(address)":"e2576819","updateTreasuryTVLTour(address)":"1b67970a"},"id":0}