{"abi":[{"type":"constructor","inputs":[],"stateMutability":"nonpayable"},{"type":"fallback","stateMutability":"payable"},{"type":"receive","stateMutability":"payable"},{"type":"function","name":"addOrc1155","inputs":[{"name":"newAddr","type":"address","internalType":"address"},{"name":"oldAddr","type":"address","internalType":"address"},{"name":"oldAddrV1","type":"address","internalType":"address"}],"outputs":[],"stateMutability":"nonpayable"},{"type":"function","name":"addOrc1155Prime","inputs":[{"name":"params","type":"bytes","internalType":"bytes"},{"name":"oldAddr","type":"address","internalType":"address"}],"outputs":[],"stateMutability":"nonpayable"},{"type":"function","name":"addProposer","inputs":[{"name":"_a","type":"address","internalType":"address"}],"outputs":[],"stateMutability":"nonpayable"},{"type":"function","name":"daoassembly","inputs":[],"outputs":[{"name":"","type":"address","internalType":"address"}],"stateMutability":"view"},{"type":"function","name":"daocore","inputs":[],"outputs":[{"name":"","type":"address","internalType":"address"}],"stateMutability":"view"},{"type":"function","name":"getProposalsCount","inputs":[],"outputs":[{"name":"","type":"uint256","internalType":"uint256"}],"stateMutability":"view"},{"type":"function","name":"in741","inputs":[],"outputs":[{"name":"","type":"address","internalType":"address"}],"stateMutability":"view"},{"type":"function","name":"in741Old","inputs":[],"outputs":[{"name":"","type":"address","internalType":"address"}],"stateMutability":"view"},{"type":"function","name":"in741Prime","inputs":[],"outputs":[{"name":"","type":"address","internalType":"address"}],"stateMutability":"view"},{"type":"function","name":"in741PrimeOld","inputs":[],"outputs":[{"name":"","type":"address","internalType":"address"}],"stateMutability":"view"},{"type":"function","name":"in741Primev3Old","inputs":[],"outputs":[{"name":"","type":"address","internalType":"address"}],"stateMutability":"view"},{"type":"function","name":"in741Rule","inputs":[],"outputs":[{"name":"","type":"address","internalType":"address"}],"stateMutability":"view"},{"type":"function","name":"in741RuleOld","inputs":[],"outputs":[{"name":"","type":"address","internalType":"address"}],"stateMutability":"view"},{"type":"function","name":"in741RulePrime","inputs":[],"outputs":[{"name":"","type":"address","internalType":"address"}],"stateMutability":"view"},{"type":"function","name":"in741RulePrimeOld","inputs":[],"outputs":[{"name":"","type":"address","internalType":"address"}],"stateMutability":"view"},{"type":"function","name":"inDEAD","inputs":[],"outputs":[{"name":"","type":"address","internalType":"address"}],"stateMutability":"view"},{"type":"function","name":"inDeployerAService","inputs":[],"outputs":[{"name":"","type":"address","internalType":"address"}],"stateMutability":"view"},{"type":"function","name":"inDeployerAsRoot","inputs":[],"outputs":[{"name":"","type":"address","internalType":"address"}],"stateMutability":"view"},{"type":"function","name":"inImportForgePrimeold","inputs":[],"outputs":[{"name":"","type":"address","internalType":"address"}],"stateMutability":"view"},{"type":"function","name":"inInstance","inputs":[],"outputs":[{"name":"","type":"address","internalType":"address"}],"stateMutability":"view"},{"type":"function","name":"inInstancePrime","inputs":[],"outputs":[{"name":"","type":"address","internalType":"address"}],"stateMutability":"view"},{"type":"function","name":"inInstanceStor","inputs":[],"outputs":[{"name":"","type":"address","internalType":"address"}],"stateMutability":"view"},{"type":"function","name":"inNftFactory","inputs":[],"outputs":[{"name":"","type":"address","internalType":"address"}],"stateMutability":"view"},{"type":"function","name":"inNftProxy","inputs":[],"outputs":[{"name":"","type":"address","internalType":"address"}],"stateMutability":"view"},{"type":"function","name":"inOrc1155","inputs":[{"name":"","type":"uint256","internalType":"uint256"}],"outputs":[{"name":"","type":"address","internalType":"address"}],"stateMutability":"view"},{"type":"function","name":"inOrc1155Old","inputs":[{"name":"","type":"uint256","internalType":"uint256"}],"outputs":[{"name":"","type":"address","internalType":"address"}],"stateMutability":"view"},{"type":"function","name":"inOrc1155OldV1","inputs":[{"name":"","type":"uint256","internalType":"uint256"}],"outputs":[{"name":"","type":"address","internalType":"address"}],"stateMutability":"view"},{"type":"function","name":"inOrc1155Prime","inputs":[{"name":"","type":"uint256","internalType":"uint256"}],"outputs":[{"name":"","type":"address","internalType":"address"}],"stateMutability":"view"},{"type":"function","name":"inOrc1155PrimeOld","inputs":[],"outputs":[{"name":"","type":"address","internalType":"address"}],"stateMutability":"view"},{"type":"function","name":"inOrc1155PrimeOldV1","inputs":[],"outputs":[{"name":"","type":"address","internalType":"address"}],"stateMutability":"view"},{"type":"function","name":"inOrc1155machinebullold","inputs":[],"outputs":[{"name":"","type":"address","internalType":"address"}],"stateMutability":"view"},{"type":"function","name":"inPrice","inputs":[],"outputs":[{"name":"","type":"address","internalType":"address"}],"stateMutability":"view"},{"type":"function","name":"inPrimeData","inputs":[],"outputs":[{"name":"","type":"address","internalType":"address"}],"stateMutability":"view"},{"type":"function","name":"inPrimeProxy","inputs":[],"outputs":[{"name":"","type":"address","internalType":"address"}],"stateMutability":"view"},{"type":"function","name":"inTransferPrimeold","inputs":[],"outputs":[{"name":"","type":"address","internalType":"address"}],"stateMutability":"view"},{"type":"function","name":"inTransferold","inputs":[],"outputs":[{"name":"","type":"address","internalType":"address"}],"stateMutability":"view"},{"type":"function","name":"inTreaseryFactory","inputs":[],"outputs":[{"name":"","type":"address","internalType":"address"}],"stateMutability":"view"},{"type":"function","name":"inTreaseryTVLMining","inputs":[],"outputs":[{"name":"","type":"address","internalType":"address"}],"stateMutability":"view"},{"type":"function","name":"inTreaseryTVLMiningImport","inputs":[],"outputs":[{"name":"","type":"address","internalType":"address"}],"stateMutability":"view"},{"type":"function","name":"inTreaseryTVLMiningPrime","inputs":[],"outputs":[{"name":"","type":"address","internalType":"address"}],"stateMutability":"view"},{"type":"function","name":"inTreaseryTVLReward","inputs":[],"outputs":[{"name":"","type":"address","internalType":"address"}],"stateMutability":"view"},{"type":"function","name":"inTreaseryTVLRoyality","inputs":[],"outputs":[{"name":"","type":"address","internalType":"address"}],"stateMutability":"view"},{"type":"function","name":"inTreaseryTVLTour","inputs":[],"outputs":[{"name":"","type":"address","internalType":"address"}],"stateMutability":"view"},{"type":"function","name":"inTreaseryTVLValidator","inputs":[],"outputs":[{"name":"","type":"address","internalType":"address"}],"stateMutability":"view"},{"type":"function","name":"inblank","inputs":[],"outputs":[{"name":"","type":"address","internalType":"address"}],"stateMutability":"view"},{"type":"function","name":"incointransfer","inputs":[],"outputs":[{"name":"","type":"address","internalType":"address"}],"stateMutability":"view"},{"type":"function","name":"infactoryold","inputs":[],"outputs":[{"name":"","type":"address","internalType":"address"}],"stateMutability":"view"},{"type":"function","name":"infactoryprimeold","inputs":[],"outputs":[{"name":"","type":"address","internalType":"address"}],"stateMutability":"view"},{"type":"function","name":"insafeguard","inputs":[],"outputs":[{"name":"","type":"address","internalType":"address"}],"stateMutability":"view"},{"type":"function","name":"insafeguardOld","inputs":[],"outputs":[{"name":"","type":"address","internalType":"address"}],"stateMutability":"view"},{"type":"function","name":"insafeguardPrime","inputs":[],"outputs":[{"name":"","type":"address","internalType":"address"}],"stateMutability":"view"},{"type":"function","name":"insafeguardPrimeOld","inputs":[],"outputs":[{"name":"","type":"address","internalType":"address"}],"stateMutability":"view"},{"type":"function","name":"invalidator","inputs":[],"outputs":[{"name":"","type":"address","internalType":"address"}],"stateMutability":"view"},{"type":"function","name":"invalidatorOld","inputs":[],"outputs":[{"name":"","type":"address","internalType":"address"}],"stateMutability":"view"},{"type":"function","name":"mapOldORC1155","inputs":[{"name":"","type":"address","internalType":"address"}],"outputs":[{"name":"","type":"address","internalType":"address"}],"stateMutability":"view"},{"type":"function","name":"mapOldORC1155Prime","inputs":[{"name":"","type":"address","internalType":"address"}],"outputs":[{"name":"","type":"address","internalType":"address"}],"stateMutability":"view"},{"type":"function","name":"proposals","inputs":[{"name":"","type":"uint256","internalType":"uint256"}],"outputs":[{"name":"","type":"address","internalType":"address"}],"stateMutability":"view"},{"type":"function","name":"s1","inputs":[],"outputs":[{"name":"","type":"address","internalType":"address"}],"stateMutability":"view"},{"type":"function","name":"s2","inputs":[],"outputs":[{"name":"","type":"address","internalType":"address"}],"stateMutability":"view"},{"type":"function","name":"s3","inputs":[],"outputs":[{"name":"","type":"address","internalType":"address"}],"stateMutability":"view"},{"type":"function","name":"submit","inputs":[{"name":"_hexNFTEngine","type":"address","internalType":"address"},{"name":"_hexDaoCore","type":"address","internalType":"address"},{"name":"_hexRules","type":"address","internalType":"address"},{"name":"_hexUserEngine","type":"address","internalType":"address"},{"name":"_hexInstanceEngine","type":"address","internalType":"address"}],"outputs":[],"stateMutability":"nonpayable"},{"type":"function","name":"update741","inputs":[{"name":"addr","type":"address","internalType":"address"}],"outputs":[],"stateMutability":"nonpayable"},{"type":"function","name":"update741Old","inputs":[{"name":"addr","type":"address","internalType":"address"}],"outputs":[],"stateMutability":"nonpayable"},{"type":"function","name":"update741Prime","inputs":[{"name":"addr","type":"address","internalType":"address"}],"outputs":[],"stateMutability":"nonpayable"},{"type":"function","name":"update741PrimeOld","inputs":[{"name":"addr","type":"address","internalType":"address"}],"outputs":[],"stateMutability":"nonpayable"},{"type":"function","name":"update741Primev3Old","inputs":[{"name":"addr","type":"address","internalType":"address"}],"outputs":[],"stateMutability":"nonpayable"},{"type":"function","name":"update741Rule","inputs":[{"name":"addr","type":"address","internalType":"address"}],"outputs":[],"stateMutability":"nonpayable"},{"type":"function","name":"update741RuleOld","inputs":[{"name":"addr","type":"address","internalType":"address"}],"outputs":[],"stateMutability":"nonpayable"},{"type":"function","name":"update741RulePrime","inputs":[{"name":"addr","type":"address","internalType":"address"}],"outputs":[],"stateMutability":"nonpayable"},{"type":"function","name":"update741RulePrimeOld","inputs":[{"name":"addr","type":"address","internalType":"address"}],"outputs":[],"stateMutability":"nonpayable"},{"type":"function","name":"updateCoinTransfer","inputs":[{"name":"addr","type":"address","internalType":"address"}],"outputs":[],"stateMutability":"nonpayable"},{"type":"function","name":"updateDAOAssembly","inputs":[{"name":"_dao","type":"address","internalType":"address"}],"outputs":[],"stateMutability":"nonpayable"},{"type":"function","name":"updateDAOCore","inputs":[{"name":"_dao","type":"address","internalType":"address"}],"outputs":[],"stateMutability":"nonpayable"},{"type":"function","name":"updateDEAD","inputs":[{"name":"addr","type":"address","internalType":"address"}],"outputs":[],"stateMutability":"nonpayable"},{"type":"function","name":"updateFactoryOld","inputs":[{"name":"addr","type":"address","internalType":"address"}],"outputs":[],"stateMutability":"nonpayable"},{"type":"function","name":"updateFactoryPrimeOld","inputs":[{"name":"addr","type":"address","internalType":"address"}],"outputs":[],"stateMutability":"nonpayable"},{"type":"function","name":"updateImportForgePrimeold","inputs":[{"name":"addr","type":"address","internalType":"address"}],"outputs":[],"stateMutability":"nonpayable"},{"type":"function","name":"updateInTransferOld","inputs":[{"name":"addr","type":"address","internalType":"address"}],"outputs":[],"stateMutability":"nonpayable"},{"type":"function","name":"updateInTransferPrimeOld","inputs":[{"name":"addr","type":"address","internalType":"address"}],"outputs":[],"stateMutability":"nonpayable"},{"type":"function","name":"updateInstance","inputs":[{"name":"addr","type":"address","internalType":"address"}],"outputs":[],"stateMutability":"nonpayable"},{"type":"function","name":"updateInstancePrime","inputs":[{"name":"addr","type":"address","internalType":"address"}],"outputs":[],"stateMutability":"nonpayable"},{"type":"function","name":"updateInstanceStor","inputs":[{"name":"addr","type":"address","internalType":"address"}],"outputs":[],"stateMutability":"nonpayable"},{"type":"function","name":"updateNftProxy","inputs":[{"name":"addr","type":"address","internalType":"address"}],"outputs":[],"stateMutability":"nonpayable"},{"type":"function","name":"updateOrc1155","inputs":[{"name":"_o","type":"address","internalType":"address"},{"name":"oldAddr","type":"address","internalType":"address"},{"name":"idx","type":"uint256","internalType":"uint256"}],"outputs":[],"stateMutability":"nonpayable"},{"type":"function","name":"updateOrc1155MachineBullOld","inputs":[{"name":"addr","type":"address","internalType":"address"}],"outputs":[],"stateMutability":"nonpayable"},{"type":"function","name":"updateOrc1155Prime","inputs":[{"name":"_o","type":"address","internalType":"address"},{"name":"oldAddr","type":"address","internalType":"address"},{"name":"idx","type":"uint256","internalType":"uint256"}],"outputs":[],"stateMutability":"nonpayable"},{"type":"function","name":"updateOrc1155PrimeOld","inputs":[{"name":"addr","type":"address","internalType":"address"}],"outputs":[],"stateMutability":"nonpayable"},{"type":"function","name":"updateOrc1155PrimeOldV1","inputs":[{"name":"addr","type":"address","internalType":"address"}],"outputs":[],"stateMutability":"nonpayable"},{"type":"function","name":"updatePrice","inputs":[{"name":"addr","type":"address","internalType":"address"}],"outputs":[],"stateMutability":"nonpayable"},{"type":"function","name":"updatePrimeData","inputs":[{"name":"addr","type":"address","internalType":"address"}],"outputs":[],"stateMutability":"nonpayable"},{"type":"function","name":"updatePrimeProxy","inputs":[{"name":"addr","type":"address","internalType":"address"}],"outputs":[],"stateMutability":"nonpayable"},{"type":"function","name":"updateProposals","inputs":[{"name":"_a","type":"address","internalType":"address"},{"name":"idx","type":"uint256","internalType":"uint256"}],"outputs":[],"stateMutability":"nonpayable"},{"type":"function","name":"updateSafeguard","inputs":[{"name":"addr","type":"address","internalType":"address"}],"outputs":[],"stateMutability":"nonpayable"},{"type":"function","name":"updateSafeguardOld","inputs":[{"name":"addr","type":"address","internalType":"address"}],"outputs":[],"stateMutability":"nonpayable"},{"type":"function","name":"updateSafeguardPrime","inputs":[{"name":"addr","type":"address","internalType":"address"}],"outputs":[],"stateMutability":"nonpayable"},{"type":"function","name":"updateSafeguardPrimeOld","inputs":[{"name":"addr","type":"address","internalType":"address"}],"outputs":[],"stateMutability":"nonpayable"},{"type":"function","name":"updateTreaseryFactory","inputs":[{"name":"addr","type":"address","internalType":"address"}],"outputs":[],"stateMutability":"nonpayable"},{"type":"function","name":"updateTreaseryTVLMiningImport","inputs":[{"name":"addr","type":"address","internalType":"address"}],"outputs":[],"stateMutability":"nonpayable"},{"type":"function","name":"updateTreaseryTVLValidator","inputs":[{"name":"addr","type":"address","internalType":"address"}],"outputs":[],"stateMutability":"nonpayable"},{"type":"function","name":"updateTreasuryTVLMining","inputs":[{"name":"addr","type":"address","internalType":"address"}],"outputs":[],"stateMutability":"nonpayable"},{"type":"function","name":"updateTreasuryTVLMiningPrime","inputs":[{"name":"addr","type":"address","internalType":"address"}],"outputs":[],"stateMutability":"nonpayable"},{"type":"function","name":"updateTreasuryTVLReward","inputs":[{"name":"addr","type":"address","internalType":"address"}],"outputs":[],"stateMutability":"nonpayable"},{"type":"function","name":"updateTreasuryTVLRoyality","inputs":[{"name":"addr","type":"address","internalType":"address"}],"outputs":[],"stateMutability":"nonpayable"},{"type":"function","name":"updateTreasuryTVLTour","inputs":[{"name":"addr","type":"address","internalType":"address"}],"outputs":[],"stateMutability":"nonpayable"},{"type":"function","name":"updateValidator","inputs":[{"name":"addr","type":"address","internalType":"address"}],"outputs":[],"stateMutability":"nonpayable"},{"type":"function","name":"updateValidatorOld","inputs":[{"name":"addr","type":"address","internalType":"address"}],"outputs":[],"stateMutability":"nonpayable"}],"bytecode":{"object":"0x6080604052346200050b5760018060a01b0319600090808254168255600173376c3a0babd0ce07b78f82fc862a6cb7c82342d282825416178155816002541660025573301cad03ad5f18e71e0bf6d578820c5e836201c9826003541617600355735731f74dd52839d69b2b4427ce1439431f76a2ce8260045416176004556005734a516f5916d53ece27c00ab5e3923872ed19f090838254161781558260065416600655826007541660075582600954166009557360c95eb879eec03a0af4528a16f192e61a198f4083600a541617600a557308ff697696398fac0dcee979bb0f1fb7b7fc380b83600b541617600b5582600c5416600c5582600d5416600d5573f134e58248ab8380e911d36c21e1015e5e84814183600e541617600e5582600f5416600f5573882bf41aa8e3fad0695be39e4434af54786eb24a83601054161760105573c0cee8b561cc4f60869776ca5b0b7a295e04f5af808460115416176011558360125416601255836013541617601355739f33b44587a57758c1413dbab6640f6abea5cef483601454161760145573804f8004e7d361ab2a4335685d7c6893e67af7c1836015541617601555620001b962000510565b9173d03060e8ed7754aeed63e4e56b0457662d8164aa8352602091733dbd81ab6b37360016fbc6c96937c60334aaede48385015273085052532254e12989413f7c84dd32686bce74e19384604082015273284bf1d323c35b47fe1991cde5af634e3a661253606082015273b33443339919b2ae34888890d6c28b5666daaa3f6080820152601a5482601a55808310620004e0575b50601a87528387209083885b848110620004c457505050506200026f62000510565b73b8193c79fc3f1d7dfaa0bae85fe3b1bff0558abb8152736e5aa0e705b69459e1525b2c720e820cf3322f1b8482015273ef8fe7c57b613624c06f5ede5ebd639f6d5108176040820152735f141ba4a79fdc86ec5c8c044f721ce873db91b96060820152737117638c0dc12ffffdddf3630ac4ce5c9705e6ff6080820152601b5482601b5580831062000499575b50601b8752838720875b8381106200047e57505050505073951a7bbd21b4a6f49e62e040b992eed7120fcdd983601c541617601c55732463fc29b8b635c4120c4fe32aadc580d199348083601d541617601d55737e2baf007a3761d33afee572a7e7a08c1499b99d9081848254161790557343a87925ba12b33f0e2a40da70e239775db21169836025541617602555730fda18c5b31b5417478c012837909927361143ab83602a541617602a55730239667fa9f2269e36f32daf2ab391dc1ad9373883602b541617602b5573648565deb50c503ef59860d92942eaece0c3e17283602c541617602c5582602d541617602d5581602e541617602e55736c96f2d0c9a8b7fb472a319b1ecf7e8626c7b2ba81602f541617602f55739bfc2af8a5e49a72bfb58e22312ce07d61fe773981603054161760305573da61aaffd272e8755639544b0466e6fa1920b7b681603154161760315561dead81603454161760345580603554166035553390825416179055604051614c309081620005478239f35b82516001600160a01b03168282015591850191840162000307565b601b88528383868a2092830192015b828110620004b8575050620002fd565b898155018490620004a8565b82516001600160a01b0316848201559186019185910162000259565b601a88528383868a2092830192015b828110620004ff5750506200024d565b898155018490620004ef565b600080fd5b6040519060a082016001600160401b038111838210176200053057604052565b634e487b7160e01b600052604160045260246000fdfe6040608081526004803610156200001e575b505036156200001c57005b005b600091823560e01c918263013cf08b1462002c64578263014519e61462002c1657826301c0d48b1462002beb57826305abae0d1462002b9d578263069f3e721462002b4f57826308a887af1462002b245782630a4c99391462002ad65782630c32145a1462002a885782631162a5b11462002a3a578263130fba6d14620029ec5782631477e194146200299857826314d8d024146200296d5782631654f331146200291f5782631a47ded514620028d15782631b4fc17b14620028a65782631b67970a146200285857826321c82677146200282d578263236b040214620027df57826323db6149146200279157826324768d911462002766578263275424d0146200271857826330125cf514620026ed578263335ab5f2146200269f57826336c24c46146200265157826342ac8f79146200260357826343af1d9d14620025d8578263447aa30414620025ad578263447bf0e21462002582578263448f3eef14620025575782634588d010146200250957826345d96de814620024bb57826346f991ac14620024905782634b849a541462002442578263507aa64f14620023f457826351ffe4c514620023c957826352b06d64146200239e578263595e1dd2146200236d5782635ad64af114620023425782635c727e8014620022e25782635e09dbe714620022b75782636325dd04146200228c578263635b2770146200223e5782636402742714620022135782636665858414620021c5578263677494d8146200219a5782636b4aefc614620021705782636cc014de14620021455782636fa1659814620020f757826370ee2af814620020a957826374dfe236146200205b57826374fad9f9146200200d578263753e7d331462001fbf5782638360701d1462001f71578263839a47a41462001f23578263891e91a51462001ed45782639669f18f1462001e8657826396e85ced1462001e3857826397f3815a1462001e0d57826398e527d31462001dec5782639dc969a81462001dc1578263a0449f451462001d73578263a0b8cbb81462001d48578263a11abe2a1462001082578263a2672aa81462001034578263a314150f1462001009578263a5b277f21462000fde578263a5d666a91462000fb3578263a66bcbe21462000f88578263a7acacf81462000f5d578263a7d7fa501462000f32578263a9d5ae6f1462000ee4578263aa0ddc161462000eb9578263ab6e844f1462000e8e578263aeb140201462000e40578263af0deb951462000e15578263af2331901462000dea578263b03cd4181462000dab578263b113bd201462000bd7578263b3a86ab01462000bac578263b771c8961462000b65578263bb2458961462000b3a578263bd811bce1462000b0f578263c16addd01462000aab57508163c5a90db11462000a80578163c7bb7d4d1462000a32578163cc7cf18e14620009d1578163cfaa1f6c1462000992578163cfacc0101462000944578163cfbffe531462000919578163d1f956b114620008ee578163d3d1b09614620008c3578163da1be7d01462000898578163de433f17146200086e578163e09d394d1462000843578163e0cf4e9e14620007fb578163e1f4cd2414620007d0578163e25768191462000782578163e61dfd581462000757578163e7531fc0146200072c578163ed15cbf714620006ed578163ef140ed3146200066d578163efed51bb1462000642578163f144dff0146200061357508063f1cdfda314620005c5578063f606564914620005775763fc58f3531462000527578062000011565b346200057457602036600319011262000574576200054462002cfa565b6006546001600160a01b03919062000560908316331462002db6565b1660018060a01b0319601254161760125580f35b80fd5b50346200057457602036600319011262000574576200059562002cfa565b6006546001600160a01b039190620005b1908316331462002db6565b1660018060a01b0319603654161760365580f35b5034620005745760203660031901126200057457620005e362002cfa565b6006546001600160a01b039190620005ff908316331462002db6565b1660018060a01b0319603154161760315580f35b9050346200063e57816003193601126200063e57602d5490516001600160a01b039091168152602090f35b5080fd5b9050346200063e57816003193601126200063e5760105490516001600160a01b039091168152602090f35b9050346200063e57620006ae620006843662002d7e565b90620006cd8360018060a09896981b03958694620006a88660065416331462002db6565b62002cc2565b90919082549060031b9160018060a01b03809116831b921b1916179055565b1684526019602052832080546001600160a01b0319169190921617905580f35b9050346200063e5760203660031901126200063e576020916001600160a01b03908290826200071b62002cfa565b168152601985522054169051908152f35b9050346200063e57816003193601126200063e57602b5490516001600160a01b039091168152602090f35b9050346200063e57816003193601126200063e5760265490516001600160a01b039091168152602090f35b8234620005745760203660031901126200057457620007a062002cfa565b6006546001600160a01b039190620007bc908316331462002db6565b1660018060a01b0319602254161760225580f35b9050346200063e57816003193601126200063e57600f5490516001600160a01b039091168152602090f35b9050346200063e573660031901126200057457620008406200081c62002cfa565b6200083360018060a01b0360065416331462002db6565b620006ae60243562002c90565b80f35b9050346200063e57816003193601126200063e5760275490516001600160a01b039091168152602090f35b9050346200063e57816003193601126200063e57905490516001600160a01b039091168152602090f35b9050346200063e57816003193601126200063e5760305490516001600160a01b039091168152602090f35b9050346200063e57816003193601126200063e5760295490516001600160a01b039091168152602090f35b9050346200063e57816003193601126200063e5760075490516001600160a01b039091168152602090f35b9050346200063e57816003193601126200063e57600d5490516001600160a01b039091168152602090f35b82346200057457602036600319011262000574576200096262002cfa565b6006546001600160a01b0391906200097e908316331462002db6565b1660018060a01b0319600f541617600f5580f35b9050346200063e5760203660031901126200063e576020916001600160a01b0390829082620009c062002cfa565b168152601885522054169051908152f35b9050346200063e57620006ae620009e83662002d7e565b9062000a128360018060a09896981b0395869462000a0c8660065416331462002db6565b62002cde565b1684526018602052832080546001600160a01b0319169190921617905580f35b823462000574576020366003190112620005745762000a5062002cfa565b6006546001600160a01b03919062000a6c908316331462002db6565b1660018060a01b0319602e541617602e5580f35b9050346200063e57816003193601126200063e57602c5490516001600160a01b039091168152602090f35b9091503462000b0b57602036600319011262000b0b5735601a5481101562000b0b57601a9092527f057c384a7d1c54f3a1b2e5e67b2617b8224fdfd1ea7234eea573a6ff665ff63e9091015490516001600160a01b039091168152602090f35b8280fd5b8382346200063e57816003193601126200063e5760155490516001600160a01b039091168152602090f35b8382346200063e57816003193601126200063e57600e5490516001600160a01b039091168152602090f35b9091503462000b0b57602036600319011262000b0b57359160165483101562000574575062000b9660209262002cde565b905491519160018060a01b039160031b1c168152f35b8382346200063e57816003193601126200063e57601d5490516001600160a01b039091168152602090f35b91503462000b0b578060031936011262000b0b576001600160401b0390823582811162000da7573660238201121562000da7578084013592831162000d945781519385602092601f199562000c348588601f840116018962002d44565b808852366024828401011162000b0b57806024869399989901838901378601015262000c5f62002d16565b908260018060a01b039562000c7a8760065416331462002db6565b8660375416898751998a9363165fd13f60e01b85523087860152896024860152805190816044870152835b82811062000d76575050848392601f8383966064809686010152011681010301925af195861562000d6c57879662000d36575b5060175490600160401b82101562000d2357506019929162000d0787620006ae8460018a960160175562002cc2565b16865252832080546001600160a01b0319169190921617905580f35b634e487b7160e01b885260419052602487fd5b62000d5c919650833d851162000d64575b62000d53818362002d44565b81019062002ed4565b943862000cd8565b503d62000d47565b84513d89823e3d90fd5b8181018801519681016064019690965289968d968f95500162000ca5565b634e487b7160e01b855260418452602485fd5b8480fd5b83346200057457602036600319011262000574576200084062000dcd62002cfa565b62000de460018060a01b0360065416331462002db6565b62002df5565b8382346200063e57816003193601126200063e5760285490516001600160a01b039091168152602090f35b8382346200063e57816003193601126200063e57600c5490516001600160a01b039091168152602090f35b833462000574576020366003190112620005745762000e5e62002cfa565b6006546001600160a01b03919062000e7a908316331462002db6565b1660018060a01b0319601154161760115580f35b8382346200063e57816003193601126200063e5760115490516001600160a01b039091168152602090f35b8382346200063e57816003193601126200063e57601f5490516001600160a01b039091168152602090f35b833462000574576020366003190112620005745762000f0262002cfa565b6006546001600160a01b03919062000f1e908316331462002db6565b1660018060a01b0319600c541617600c5580f35b8382346200063e57816003193601126200063e57600b5490516001600160a01b039091168152602090f35b8382346200063e57816003193601126200063e57601c5490516001600160a01b039091168152602090f35b8382346200063e57816003193601126200063e5760125490516001600160a01b039091168152602090f35b8382346200063e57816003193601126200063e5760055490516001600160a01b039091168152602090f35b8382346200063e57816003193601126200063e57602e5490516001600160a01b039091168152602090f35b9091503462000b0b578260031936011262000b0b575490516001600160a01b03909116815260209150f35b83346200057457602036600319011262000574576200105262002cfa565b6006546001600160a01b0391906200106e908316331462002db6565b1660018060a01b0319602c541617602c5580f35b9091503462000b0b5760a036600319011262000b0b57620010a262002cfa565b91620010ad62002d16565b92620010b862002d2d565b6001600160a01b03936064358581169391929084900362001d44576084359686881680980362001d405786895416330362001d0c57866009541662001ccd5786169185519763501ad8ff60e11b8952602092838a8781885afa998a1562001a1e578b9a62001ca9575b50602980549a8a166001600160a01b03199b8c161790558751631550316b60e21b815284818881895afa90811562001c0a57908a918d9162001c87575b50168a60135416176013558751946245cff960e81b865284868881845afa95861562001c0a578c9662001c63575b5089601196168b8754161786558851631483745560e01b815285818981855afa908d821562001c585787928a94928e929162001c36575b50168d60075416176007558a5192838092630536340960e21b82525afa908c821562001bdd578b939284929062001c14575b50168b600654161760065516958751630a5b38ab60e01b8152848188818b5afa90811562001c0a57908a918d9162001be8575b50168a600d541617600d558751633da8676f60e01b8152848188818b5afa908c821562001bdd57869289949262001267929162001bbb575b5062002df5565b895163131c73ad60e01b815292839182905afa90811562001a1e579089918c9162001b99575b5016896027541617602755865163022ec09560e01b815283818781855afa90811562001a1e579089918c9162001b77575b50168960265416176026558651639ba540fb60e01b815283818781855afa90811562001a1e579089918c9162001b55575b501689601e541617601e558651631af2bfe760e31b815283818781855afa90811562001a1e579089918c9162001b33575b501689601f541617601f55865163b85c9faf60e01b815283818781855afa90811562001a1e579089918c9162001b11575b50168960215416176021558651632510dd9f60e21b815283818781855afa90811562001a1e579089918c9162001aef575b5016896022541617602255865163dabf429d60e01b815283818781855afa908b821562001ae45785949391928896938c929162001ac2575b50168b6023541617602355885196878092630294302f60e61b82525afa94851562001a90578a9562001a9a575b50818394959689602498168b8954161788558851958680926314ac1b5960e21b82525afa93841562001a90579088918b9562001a6c575b5081603295168a86541617855516928651635256382760e11b815282818581885afa90811562001a1e579089918c9162001a4a575b5016896036541617603655865163d63843cd60e01b815282818581885afa90811562001a1e579089918c9162001a28575b50168960375416176037558651631a1575a560e01b815282818581885afa90811562001a1e578b91620019fc575b50601a805415620019eb57808c5289848d20541691601b92835415620019145790620014e9918c8f80878a92522054169162002e1e565b8851631697db0560e01b81529584878781845afa968715620019e1578d97620019bd575b5081549660019788101562001914578b888f80868a92522001541684548910156200196657848f52868f208901546200154b92908e16919062002e1e565b895163378136b960e21b81528d9086818981865afa9182156200194957916200199b575b5082546002101562001914578b60028f80868a9252200154168454600210156200196657849392918f95918e620015b193885260028a89200154169162002e1e565b8a5163a0f0e54f60e01b815286818981855afa94851562001949579462001977575b5081549360039485101562001966578c8f88818689935220015416845486101562001954578f949392620016178f938a938c95888a528a868b200154169162002e1e565b8d5163104e8cbd60e11b815292839182905afa93841562001949579362001925575b508054871015620019145786868f8e9381522001541690805487101562001914578d52848d208601546200167292908c16919062002e1e565b87516001600160401b039290919061020083018481118482101762001902578a52600f8352848301976101e09190888f84368d37905b62001891575b506008541562001880578c8f8060088a92522054168551600510156200186e57908d9160c08701525416845160061015620018805760e08501528b601e5416918451600710156200188057826101008601528c601f54168551600810156200186e576101208601528c602154168551600910156200186e576101408601528c602254168551600a10156200186e576101608601528c602354168551600b10156200186e576101808601528c8b54168551600c10156200186e576101a08601528c8954168551600d10156200186e578f8e916101c08801525416918551600e10156200185d5750908c9392918501528c6033541617603355541693898154168a60055416918a5199611d0591828c01968c8810908811176200184b5750509160c093918a99989697959362002ef68b3960a08401958452878401528a83015230606083015260a06080830152518093520193928a5b82811062001832575050505050039085f09081156200182957501690600954161760095580f35b513d85823e3d90fd5b84518a1686528796509481019493810193830162001802565b8f90604190634e487b7160e01b835252fd5b8f8c918a634e487b7160e01b835252fd5b50634e487b7160e01b8f528188528a8ffd5b634e487b7160e01b8f528188528a8ffd5b60058e81831015620018fa57620018a88362002cde565b905490881b1c16908751831015620018e65782901b87018901526000198114620018d557890189620016a8565b50634e487b7160e01b8f528752898efd5b5050508a8f838a634e487b7160e01b835252fd5b5050620016ae565b634e487b7160e01b8e5260418752898efd5b634e487b7160e01b8e52848752898efd5b62001941919350863d881162000d645762000d53818362002d44565b913862001639565b8c51903d90823e3d90fd5b50634e487b7160e01b8f528588528a8ffd5b634e487b7160e01b8f528588528a8ffd5b62001993919450863d881162000d645762000d53818362002d44565b9238620015d3565b620019b69150863d881162000d645762000d53818362002d44565b386200156f565b620019d9919750853d871162000d645762000d53818362002d44565b95386200150d565b8a513d8f823e3d90fd5b634e487b7160e01b8c52828552878cfd5b62001a179150833d851162000d645762000d53818362002d44565b38620014b2565b88513d8d823e3d90fd5b62001a439150843d861162000d645762000d53818362002d44565b3862001484565b62001a659150843d861162000d645762000d53818362002d44565b3862001453565b62001a88919550833d851162000d645762000d53818362002d44565b93386200141e565b87513d8c823e3d90fd5b8394955062001ab98391823d841162000d645762000d53818362002d44565b959450620013e7565b62001add9150843d861162000d645762000d53818362002d44565b38620013ba565b8951903d90823e3d90fd5b62001b0a9150853d871162000d645762000d53818362002d44565b3862001382565b62001b2c9150853d871162000d645762000d53818362002d44565b3862001351565b62001b4e9150853d871162000d645762000d53818362002d44565b3862001320565b62001b709150853d871162000d645762000d53818362002d44565b38620012ef565b62001b929150853d871162000d645762000d53818362002d44565b38620012be565b62001bb49150853d871162000d645762000d53818362002d44565b386200128d565b62001bd69150843d861162000d645762000d53818362002d44565b3862001260565b8a51903d90823e3d90fd5b62001c039150863d881162000d645762000d53818362002d44565b3862001228565b89513d8e823e3d90fd5b62001c2f9150873d891162000d645762000d53818362002d44565b38620011f5565b62001c519150843d861162000d645762000d53818362002d44565b38620011c3565b8b51903d90823e3d90fd5b62001c7f919650853d871162000d645762000d53818362002d44565b94386200118c565b62001ca29150863d881162000d645762000d53818362002d44565b386200115e565b62001cc5919a50843d861162000d645762000d53818362002d44565b983862001121565b855162461bcd60e51b815260208186015260196024820152781a195e18985cd94b985b1c9958591e4b9cdd589b5a5d1d1959603a1b6044820152606490fd5b855162461bcd60e51b8152602081860152600e60248201526d139bdd08185d5d1a1bdc9a5e995960921b6044820152606490fd5b8880fd5b8780fd5b8382346200063e57816003193601126200063e5760355490516001600160a01b039091168152602090f35b833462000574576020366003190112620005745762001d9162002cfa565b6006546001600160a01b03919062001dad908316331462002db6565b1660018060a01b0319600a541617600a5580f35b8382346200063e57816003193601126200063e5760245490516001600160a01b039091168152602090f35b8382346200063e57816003193601126200063e576020906008549051908152f35b8382346200063e57816003193601126200063e5760095490516001600160a01b039091168152602090f35b833462000574576020366003190112620005745762001e5662002cfa565b6006546001600160a01b03919062001e72908316331462002db6565b1660018060a01b0319602954161760295580f35b833462000574576020366003190112620005745762001ea462002cfa565b6006546001600160a01b03919062001ec0908316331462002db6565b1660018060a01b0319600b541617600b5580f35b833462000574576020366003190112620005745762001ef262002cfa565b600654906001600160a01b039062001f0e828416331462002db6565b6001600160a01b031990921691161760065580f35b833462000574576020366003190112620005745762001f4162002cfa565b6006546001600160a01b03919062001f5d908316331462002db6565b1660018060a01b0319602854161760285580f35b833462000574576020366003190112620005745762001f8f62002cfa565b6006546001600160a01b03919062001fab908316331462002db6565b1660018060a01b0319601554161760155580f35b833462000574576020366003190112620005745762001fdd62002cfa565b6006546001600160a01b03919062001ff9908316331462002db6565b1660018060a01b0319600d541617600d5580f35b83346200057457602036600319011262000574576200202b62002cfa565b6006546001600160a01b03919062002047908316331462002db6565b1660018060a01b0319602b541617602b5580f35b83346200057457602036600319011262000574576200207962002cfa565b6006546001600160a01b03919062002095908316331462002db6565b1660018060a01b0319601054161760105580f35b8334620005745760203660031901126200057457620020c762002cfa565b6006546001600160a01b039190620020e3908316331462002db6565b1660018060a01b0319601e541617601e5580f35b83346200057457602036600319011262000574576200211562002cfa565b6006546001600160a01b03919062002131908316331462002db6565b1660018060a01b0319602754161760275580f35b8382346200063e57816003193601126200063e5760035490516001600160a01b039091168152602090f35b8382346200063e57816003193601126200063e576020805491516001600160a01b03909216825290f35b8382346200063e57816003193601126200063e5760015490516001600160a01b039091168152602090f35b8334620005745760203660031901126200057457620021e362002cfa565b6006546001600160a01b039190620021ff908316331462002db6565b1660018060a01b0319601454161760145580f35b8382346200063e57816003193601126200063e5760215490516001600160a01b039091168152602090f35b83346200057457602036600319011262000574576200225c62002cfa565b6006546001600160a01b03919062002278908316331462002db6565b1660018060a01b0319603254161760325580f35b8382346200063e57816003193601126200063e5760315490516001600160a01b039091168152602090f35b8382346200063e57816003193601126200063e57601e5490516001600160a01b039091168152602090f35b9091503462000b0b57602036600319011262000b0b5735601b5481101562000b0b57601b9092527f3ad8aa4f87544323a9d1e5dd902f40c356527a7955687113db5f9a85ad579dc19091015490516001600160a01b039091168152602090f35b8382346200063e57816003193601126200063e57602f5490516001600160a01b039091168152602090f35b9091503462000b0b57602036600319011262000b0b57359160175483101562000574575062000b9660209262002cc2565b8382346200063e57816003193601126200063e5760325490516001600160a01b039091168152602090f35b8382346200063e57816003193601126200063e57600a5490516001600160a01b039091168152602090f35b83346200057457602036600319011262000574576200241262002cfa565b6006546001600160a01b0391906200242e908316331462002db6565b1660018060a01b0319600e541617600e5580f35b83346200057457602036600319011262000574576200246062002cfa565b6006546001600160a01b0391906200247c908316331462002db6565b1660018060a01b0319602454161760245580f35b8382346200063e57816003193601126200063e5760345490516001600160a01b039091168152602090f35b8334620005745760203660031901126200057457620024d962002cfa565b6006546001600160a01b039190620024f5908316331462002db6565b1660018060a01b0319600754161760075580f35b83346200057457602036600319011262000574576200252762002cfa565b6006546001600160a01b03919062002543908316331462002db6565b1660018060a01b0319603554161760355580f35b8382346200063e57816003193601126200063e5760025490516001600160a01b039091168152602090f35b8382346200063e57816003193601126200063e5760145490516001600160a01b039091168152602090f35b8382346200063e57816003193601126200063e5760135490516001600160a01b039091168152602090f35b8382346200063e57816003193601126200063e5760365490516001600160a01b039091168152602090f35b83346200057457602036600319011262000574576200262162002cfa565b6006546001600160a01b0391906200263d908316331462002db6565b1660018060a01b0319602f541617602f5580f35b83346200057457602036600319011262000574576200266f62002cfa565b6006546001600160a01b0391906200268b908316331462002db6565b1660018060a01b0319602054161760205580f35b8334620005745760203660031901126200057457620026bd62002cfa565b6006546001600160a01b039190620026d9908316331462002db6565b1660018060a01b0319602a541617602a5580f35b8382346200063e57816003193601126200063e5760225490516001600160a01b039091168152602090f35b83346200057457602036600319011262000574576200273662002cfa565b6006546001600160a01b03919062002752908316331462002db6565b1660018060a01b0319602654161760265580f35b8382346200063e57816003193601126200063e5760235490516001600160a01b039091168152602090f35b8334620005745760203660031901126200057457620027af62002cfa565b6006546001600160a01b039190620027cb908316331462002db6565b1660018060a01b0319603354161760335580f35b8334620005745760203660031901126200057457620027fd62002cfa565b6006546001600160a01b03919062002819908316331462002db6565b1660018060a01b0319601354161760135580f35b8382346200063e57816003193601126200063e5760255490516001600160a01b039091168152602090f35b83346200057457602036600319011262000574576200287662002cfa565b6006546001600160a01b03919062002892908316331462002db6565b1660018060a01b0319602354161760235580f35b8382346200063e57816003193601126200063e5760335490516001600160a01b039091168152602090f35b8334620005745760203660031901126200057457620028ef62002cfa565b6006546001600160a01b0391906200290b908316331462002db6565b1660018060a01b0319601c541617601c5580f35b83346200057457602036600319011262000574576200293d62002cfa565b6006546001600160a01b03919062002959908316331462002db6565b1660018060a01b0319603054161760305580f35b8382346200063e57816003193601126200063e5760065490516001600160a01b039091168152602090f35b833462000574576060366003190112620005745762000840620029ba62002cfa565b620029c462002d16565b620029ce62002d2d565b91620029e660018060a01b0360065416331462002db6565b62002e1e565b833462000574576020366003190112620005745762002a0a62002cfa565b6006546001600160a01b03919062002a26908316331462002db6565b1660018060a01b0319601f541617601f5580f35b833462000574576020366003190112620005745762002a5862002cfa565b6006546001600160a01b03919062002a74908316331462002db6565b1660018060a01b0319600954161760095580f35b833462000574576020366003190112620005745762002aa662002cfa565b6006546001600160a01b03919062002ac2908316331462002db6565b1660018060a01b0319601d541617601d5580f35b833462000574576020366003190112620005745762002af462002cfa565b6006546001600160a01b03919062002b10908316331462002db6565b1660018060a01b0319603454161760345580f35b8382346200063e57816003193601126200063e5760375490516001600160a01b039091168152602090f35b833462000574576020366003190112620005745762002b6d62002cfa565b6006546001600160a01b03919062002b89908316331462002db6565b1660018060a01b0319602d541617602d5580f35b833462000574576020366003190112620005745762002bbb62002cfa565b6006546001600160a01b03919062002bd7908316331462002db6565b1660018060a01b0319602154161760215580f35b8382346200063e57816003193601126200063e57602a5490516001600160a01b039091168152602090f35b833462000574576020366003190112620005745762002c3462002cfa565b6006546001600160a01b03919062002c50908316331462002db6565b1660018060a01b0319602554161760255580f35b9091503462000b0b57602036600319011262000b0b57359160085483101562000574575062000b966020925b60085481101562002cac57600860005260206000200190600090565b634e487b7160e01b600052603260045260246000fd5b60175481101562002cac57601760005260206000200190600090565b60165481101562002cac57601660005260206000200190600090565b600435906001600160a01b038216820362002d1157565b600080fd5b602435906001600160a01b038216820362002d1157565b604435906001600160a01b038216820362002d1157565b601f909101601f19168101906001600160401b0382119082101762002d6857604052565b634e487b7160e01b600052604160045260246000fd5b606090600319011262002d11576001600160a01b0390600435828116810362002d115791602435908116810362002d11579060443590565b1562002dbe57565b60405162461bcd60e51b815260206004820152600f60248201526e6f776e2e6e6f6e617574682e44414f60881b6044820152606490fd5b60085490600160401b82101562002d6857620006ae82600162002e1c940160085562002c90565b565b90601654600160401b81101562002d685782620006ae82600162002e46940160165562002cde565b6001600160a01b0392839182168062002ead575b50168062002e86575b5016600081815260186020526040902080546001600160a01b0319169091179055565b600090815260186020526040902080546001600160a01b0319168284161790553862002e63565b600090815260186020526040902080546001600160a01b0319168484161790553862002e5a565b9081602091031262002d1157516001600160a01b038116810362002d11579056fe604060808152346200024a5762001d05803803806200001e8162000265565b928339810160a0828203126200024a5762000039826200028b565b602090620000498285016200028b565b620000568686016200028b565b9262000065606087016200028b565b60808701516001600160401b03978882116200024a57019580601f880112156200024a5786519788116200024f5760059688881b908480620000a981850162000265565b809c815201928201019283116200024a5784809101915b8383106200022f575050506001600160a01b0391821697905087156200021e5760018060a01b03199560019833888b5416178a5560009788541617875560ff1994836011978b888a5416178955168015158062000212575b8062000206575b15620001d4578852601385528a8820805487168b17905583168752898720805486168a1790558216865288862080548516891790556003601455805196865b88811062000175578a51611a649081620002a18239f35b8251811015620001c05780821b830185015184168852601285528a8820805487168b1790556000198114620001ac5789016200015e565b634e487b7160e01b88526004879052602488fd5b634e487b7160e01b88526032600452602488fd5b8b5162461bcd60e51b815260048101879052600b60248201526a2d32b9379039b4b3b732b960a91b6044820152606490fd5b5084831615156200011f565b50848216151562000118565b885163e6c4247b60e01b8152600490fd5b81906200023c846200028b565b8152019101908490620000c0565b600080fd5b634e487b7160e01b600052604160045260246000fd5b6040519190601f01601f191682016001600160401b038111838210176200024f57604052565b51906001600160a01b03821682036200024a5756fe60806040526004361015610018575b361561001657005b005b60003560e01c80630a0d32ca146101a857806312065fe0146101a3578063198e206d1461019e5780631f185d1614610199578063339459a6146101945780633b9b79551461018f57806342f693db1461018a57806360bcf662146101855780636a276f9d146101805780637df73e271461017b57806388f87759146101765780638da5cb5b146101715780638f41f4e61461016c5780639dcba53014610167578063a1f7f53914610162578063af4845261461015d578063b72d419514610158578063b8df453314610153578063b90306ad1461014e578063c54e44b014610149578063d1a6264814610144578063e01ad5fd1461013f578063e0a9bc2b1461013a578063ef9eab9d146101355763fdc10bc90361000e5761122b565b6111e9565b6111c4565b6110fd565b6110df565b611071565b610f89565b610f6b565b610f4d565b610ed6565b610e6c565b610e03565b610de5565b610dbc565b610d74565b610d32565b610d0f565b610bef565b610b3b565b610b12565b6105b5565b610500565b610292565b610244565b610200565b6001600160a01b031690565b6001600160a01b038116036101ca57565b600080fd5b6001600160a01b0316600090815260136020526040902090565b9060018060a01b0316600052602052604060002090565b346101ca5760403660031901126101ca57602060ff610238602435610224816101b9565b6004356000526017845260406000206101e9565b54166040519015158152f35b346101ca5760003660031901126101ca57602047604051908152f35b801515036101ca57565b60409060031901126101ca57600435610282816101b9565b9060243561028f81610260565b90565b346101ca576102a03661026a565b903360005260136020526102bb60ff604060002054166117d6565b6001600160a01b038116916102d18315156118c8565b6001600160a01b03821660009081526018602052604090209060026001818401936102fd855460ff1690565b80156104f0575b156104d257805460ff191660ff85151516178155600081830155845460ff19168555601a5460038201555b61039961038c601a5461037361036e61036a6103638c61035e339161035e886000526019602052604060002090565b6101e9565b5460ff1690565b1590565b61184a565b61035e8961035e33936000526019602052604060002090565b805460ff19166001179055565b016103a4815461189f565b9081905560408051841515815260208101839052879133917ff8c8cd35a98d3e7fc3355d901460945a800b136955f0ce345ed35692537ee2ce9190a310156103e857005b7ffcaa24b1276bfa7dbf77797c0a984b9df924acbeaabd48cd2f1b0eca379b78fa9261041e61047f93600160ff19825416179055565b81156104845761038c8161044261043d61036a610363610447966101cf565b611996565b6101cf565b61045a61045560145461189f565b601455565b61046d610468601a5461189f565b601a55565b60405191829182901515815260200190565b0390a2005b6104ad8161049f61049a6103636104b7956101cf565b6117d6565b610442600160145411611941565b805460ff19169055565b6104c5610455601454611989565b6104cd6119d3565b61045a565b6104eb6104e0825460ff1690565b151585151514611903565b61032f565b506003810154601a541415610304565b346101ca576020806003193601126101ca57610573600435610521816101b9565b6002546040516001600160a01b039283168582015284815291166105448261128d565b604051906105518261128d565b601182527069735369676e657228616464726573732960781b85830152611701565b9190806105ab575b1561059957818161046d926105959451830101910161164a565b0390f35b604051633204506f60e01b8152600490fd5b508082511461057b565b346101ca5760003660031901126101ca576105d96105d46000546101ad565b6101ad565b604051634bf9c0ad60e11b815290602082600481845afa91821561094257600092610af1575b5060405163cfbffe5360e01b815291602083600481855afa92831561094257600093610ad0575b5060405163ab6e844f60e01b815290602082600481865afa91821561094257600092610aaf575b50604051630536340960e21b815291602083600481875afa92831561094257600093610a8e575b5060405163d1f956b160e01b815292602084600481885afa93841561094257600094610a6d575b50604051631cc3bfab60e31b815293602085600481895afa94851561094257600095610a4c575b5060405163e09d394d60e01b81526020816004818a5afa90811561094257600091610a2d575b506040516314ac1b5960e21b81526020816004818b5afa90811561094257600091610a0e575b5060405163013cf08b60e01b815260006004820152916020836024818c5afa928315610942576000936109ed575b50604051635e09dbe760e01b8152976020896004818d5afa948515610942576004996000966109cc575b50604051635506ee0b60e11b8152996020908b90818e5afa9687156109425760049a6000986109ab575b50604051636402742760e01b81529a6020908c90818f5afa9889156109425760049b60009a61098a575b5060208d6040519d8e80926330125cf560e01b82525afa9a8b15610942578d60049d60009d610968575b506020906040519e8f80926324768d9160e01b82525afa9c8d156109425760009d610947575b506040516313b92d3560e31b81529d8e9081905a92600491602094fa9d8e156109425760009e610911575b5061083e61130c565b9e8f9161084b908361132c565b610858906020830161132c565b604001906108659161132c565b6108729060608e0161132c565b61087f9060808d0161132c565b61088c9060a08c0161132c565b6108999060c08b0161132c565b6108a69060e08a0161132c565b6108b490610100890161132c565b6108c290610120880161132c565b6108d090610140870161132c565b6108de90610160860161132c565b6108ec90610180850161132c565b6108fa906101a0840161132c565b610908906101c0830161132c565b6100169061133b565b610934919e5060203d60201161093b575b61092c81836112c8565b8101906112eb565b9c38610835565b503d610922565b611300565b610961919d5060203d60201161093b5761092c81836112c8565b9b3861080a565b6020919d5061098390823d841161093b5761092c81836112c8565b9c906107e4565b6109a4919a5060203d60201161093b5761092c81836112c8565b98386107ba565b6109c591985060203d60201161093b5761092c81836112c8565b9638610790565b6109e691965060203d60201161093b5761092c81836112c8565b9438610766565b610a0791935060203d60201161093b5761092c81836112c8565b913861073c565b610a27915060203d60201161093b5761092c81836112c8565b3861070e565b610a46915060203d60201161093b5761092c81836112c8565b386106e8565b610a6691955060203d60201161093b5761092c81836112c8565b93386106c2565b610a8791945060203d60201161093b5761092c81836112c8565b923861069b565b610aa891935060203d60201161093b5761092c81836112c8565b9138610674565b610ac991925060203d60201161093b5761092c81836112c8565b903861064d565b610aea91935060203d60201161093b5761092c81836112c8565b9138610626565b610b0b91925060203d60201161093b5761092c81836112c8565b90386105ff565b346101ca5760003660031901126101ca576000546040516001600160a01b039091168152602090f35b346101ca57610b493661026a565b90610b5261165f565b15610bdd576005546001600160a01b03919082163303610bcb577fa65933db1726765ba3710fce8d88f0eae1bce0b3609d21f958a3e0e9daa8717d916020911692610b9e8415156118c8565b8360005260128252610bc08160406000209060ff801983541691151516179055565b6040519015158152a2005b60405163ea8e4eb560e01b8152600490fd5b604051634ee2123760e11b8152600490fd5b346101ca57600080600319360112610d0c573381526013602052610c1960ff6040832054166117d6565b610c30610c2b61036a60115460ff1690565b61180f565b610c6f61038c601554610c5a61036e61036a6103633361035e866000526017602052604060002090565b61035e33916000526017602052604060002090565b610c82610c7d60165461189f565b601655565b601654601454906040517f20671cfeca0a197284b9e2d72d8b6e1e147012ff9c4c4970975ab2f3660d9051339180610cc886868360209093929193604081019481520152565b0390a21015610cd45780f35b610ce6600160ff196011541617601155565b60405160018152600080516020611a0f83398151915290602090a1610d096118b3565b80f35b80fd5b346101ca5760003660031901126101ca57602060ff601154166040519015158152f35b346101ca5760203660031901126101ca57600435610d4f816101b9565b60018060a01b03166000526013602052602060ff604060002054166040519015158152f35b346101ca5760603660031901126101ca57602060ff610238602435610d98816101b9565b61035e60443591610da8836101b9565b6004356000526019865260406000206101e9565b346101ca5760003660031901126101ca576001546040516001600160a01b039091168152602090f35b346101ca5760003660031901126101ca576020601a54604051908152f35b346101ca5760203660031901126101ca57600435610e20816101b9565b60018060a01b031660005260186020526080604060002060ff81541690600181015490600360ff6002830154169101549160405193151584526020840152151560408301526060820152f35b346101ca5760003660031901126101ca576020610ece60018060a01b0360065416604051610e998161128d565b601381527267657464656c656761746f72436f756e74282960681b8482015260405191610ec5836112ad565b60008352611798565b604051908152f35b346101ca576020806003193601126101ca57610573600435610ef7816101b9565b6002546040516001600160a01b03928316858201528481529116610f1a8261128d565b60405190610f278261128d565b601582527469735365637572654261736528616464726573732960581b85830152611701565b346101ca5760003660031901126101ca576020601554604051908152f35b346101ca5760003660031901126101ca576020601654604051908152f35b346101ca5760203660031901126101ca57600435610fa561165f565b15610bdd576005546001600160a01b03163303610bcb5760009060046020610fd06105d485546101ad565b6040516311be646b60e21b815292839182905afa80156109425783808481949382948391611053575b505af16110046116d1565b5015610599577fcdcc745fe377b103b45fa0cec23ae3ef93d6fc6a84a01f0d18c40b354dd1d5d861104d61103c6105d4600b546101ad565b604051938452929081906020820190565b0390a280f35b61106b915060203d811161093b5761092c81836112c8565b38610ff9565b346101ca5760203660031901126101ca5760043561108e816101b9565b803b600061109b8261162f565b926110a960405194856112c8565b82845260208401903c602d8151106110cd57602a602091015160601c604051908152f35b60405163baf3f0f760e01b8152600490fd5b346101ca5760003660031901126101ca576020601454604051908152f35b346101ca576020806003193601126101ca576105959060043590611120826101b9565b6006546040516001600160a01b0393841683820152828152921691611180906111488161128d565b6040516111548161128d565b6018815277697364656c656761746f724e6f646528616464726573732960401b84820152600094611701565b9190806111ba575b6111a1575b505060405191829182901515815260200190565b6111b39250808251830101910161164a565b388061118d565b5080825114611188565b346101ca5760003660031901126101ca5760206111df61165f565b6040519015158152f35b346101ca5760203660031901126101ca57600435611206816101b9565b60018060a01b03166000526012602052602060ff604060002054166040519015158152f35b346101ca5760003660031901126101ca576020610ece60018060a01b03600354166040516112588161128d565b600681526569416765282960d01b8482015260405191610ec5836112ad565b634e487b7160e01b600052604160045260246000fd5b604081019081106001600160401b038211176112a857604052565b611277565b602081019081106001600160401b038211176112a857604052565b601f909101601f19168101906001600160401b038211908210176112a857604052565b908160209103126101ca575161028f816101b9565b6040513d6000823e3d90fd5b604051906101e082016001600160401b038111838210176112a857604052565b6001600160a01b039091169052565b61160b6101c061162d9261137461135282516101ad565b600280546001600160a01b0319166001600160a01b0392909216919091179055565b6113a661138460208301516101ad565b600380546001600160a01b0319166001600160a01b0392909216919091179055565b6113d86113b660408301516101ad565b600480546001600160a01b0319166001600160a01b0392909216919091179055565b61140a6113e860608301516101ad565b600580546001600160a01b0319166001600160a01b0392909216919091179055565b61143c61141a60808301516101ad565b600680546001600160a01b0319166001600160a01b0392909216919091179055565b61146e61144c60a08301516101ad565b600780546001600160a01b0319166001600160a01b0392909216919091179055565b6114a061147e60c08301516101ad565b600880546001600160a01b0319166001600160a01b0392909216919091179055565b6114d26114b060e08301516101ad565b600980546001600160a01b0319166001600160a01b0392909216919091179055565b6115056114e36101008301516101ad565b600a80546001600160a01b0319166001600160a01b0392909216919091179055565b6115386115166101208301516101ad565b600b80546001600160a01b0319166001600160a01b0392909216919091179055565b61156b6115496101408301516101ad565b600c80546001600160a01b0319166001600160a01b0392909216919091179055565b61159e61157c6101608301516101ad565b600d80546001600160a01b0319166001600160a01b0392909216919091179055565b6115d16115af6101808301516101ad565b600e80546001600160a01b0319166001600160a01b0392909216919091179055565b6116046115e26101a08301516101ad565b600f80546001600160a01b0319166001600160a01b0392909216919091179055565b01516101ad565b601080546001600160a01b0319166001600160a01b0392909216919091179055565b565b6001600160401b0381116112a857601f01601f191660200190565b908160209103126101ca575161028f81610260565b6002546040516116a7916001600160a01b03169061167c8161128d565b6008815267697353616665282960c01b60208201526040519161169e836112ad565b60008352611701565b90806116c6575b15610599578060208061028f9351830101910161164a565b5060208151146116ae565b3d156116fc573d906116e28261162f565b916116f060405193846112c8565b82523d6000602084013e565b606090565b9190823b1561177f578051906020918263ffffffff60e01b92012016916040519180830193845281519160005b83811061176b57505050918161175b602482600097959688970187838201520360048101845201826112c8565b51915afa6117676116d1565b9091565b81810183015185820160240152820161172e565b505050600090604051611791816112ad565b6000815290565b92916117a691600094611701565b90806117cb575b6117b45750565b9091506020818051810103126101ca576020015190565b5060208151146117ad565b156117dd57565b60405162461bcd60e51b815260206004820152600a6024820152692737ba1039b4b3b732b960b11b6044820152606490fd5b1561181657565b60405162461bcd60e51b815260206004820152600c60248201526b416c7265616479207361666560a01b6044820152606490fd5b1561185157565b60405162461bcd60e51b815260206004820152601060248201526f105b1c9958591e48185c1c1c9bdd995960821b6044820152606490fd5b634e487b7160e01b600052601160045260246000fd5b60001981146118ae5760010190565b611889565b6118be60155461189f565b6015556000601655565b156118cf57565b60405162461bcd60e51b815260206004820152600c60248201526b5a65726f206164647265737360a01b6044820152606490fd5b1561190a57565b60405162461bcd60e51b815260206004820152600f60248201526e082c6e8d2dedc40dad2e6dac2e8c6d608b1b6044820152606490fd5b1561194857565b60405162461bcd60e51b815260206004820152601960248201527821b0b73737ba103932b6b7bb32903630b9ba1039b4b3b732b960391b6044820152606490fd5b80156118ae576000190190565b1561199d57565b60405162461bcd60e51b815260206004820152600e60248201526d20b63932b0b23c9039b4b3b732b960911b6044820152606490fd5b60115460ff81166119e8575b5061162d6118b3565b60ff1916601155600080516020611a0f833981519152602060405160008152a1386119df56fe076cac55475ef0bf37a3223aa6260a31b7df55505a72abbd629afe9f79b1d5b2a2646970667358221220efff0161babe4454bb7808d3bdf78940bb617b8337a08755ba0cf582ae8beb2864736f6c63430008140033a26469706673582212204417a7e22a99cd491e51a3e7fe3b57987f6759226dc2e8ef274a839724b7807664736f6c63430008140033","linkReferences":{}},"methodIdentifiers":{"addOrc1155(address,address,address)":"1477e194","addOrc1155Prime(bytes,address)":"b113bd20","addProposer(address)":"b03cd418","daoassembly()":"d1f956b1","daocore()":"14d8d024","getProposalsCount()":"98e527d3","in741()":"ab6e844f","in741Old()":"447aa304","in741Prime()":"a66bcbe2","in741PrimeOld()":"447bf0e2","in741Primev3Old()":"bd811bce","in741Rule()":"cfbffe53","in741RuleOld()":"bb245896","in741RulePrime()":"e1f4cd24","in741RulePrimeOld()":"efed51bb","inDEAD()":"46f991ac","inDeployerAService()":"677494d8","inDeployerAsRoot()":"de433f17","inImportForgePrimeold()":"e7531fc0","inInstance()":"e61dfd58","inInstancePrime()":"af233190","inInstanceStor()":"e09d394d","inNftFactory()":"08a887af","inNftProxy()":"43af1d9d","inOrc1155(uint256)":"b771c896","inOrc1155Old(uint256)":"c16addd0","inOrc1155OldV1(uint256)":"5c727e80","inOrc1155Prime(uint256)":"595e1dd2","inOrc1155PrimeOld()":"a7acacf8","inOrc1155PrimeOldV1()":"b3a86ab0","inOrc1155machinebullold()":"a5b277f2","inPrice()":"d3d1b096","inPrimeData()":"01c0d48b","inPrimeProxy()":"a0b8cbb8","inTransferPrimeold()":"f144dff0","inTransferold()":"c5a90db1","inTreaseryFactory()":"5e09dbe7","inTreaseryTVLMining()":"aa0ddc16","inTreaseryTVLMiningImport()":"21c82677","inTreaseryTVLMiningPrime()":"6b4aefc6","inTreaseryTVLReward()":"64027427","inTreaseryTVLRoyality()":"30125cf5","inTreaseryTVLTour()":"24768d91","inTreaseryTVLValidator()":"9dc969a8","inblank()":"448f3eef","incointransfer()":"1b4fc17b","infactoryold()":"5ad64af1","infactoryprimeold()":"da1be7d0","insafeguard()":"97f3815a","insafeguardOld()":"51ffe4c5","insafeguardPrime()":"af0deb95","insafeguardPrimeOld()":"a7d7fa50","invalidator()":"52b06d64","invalidatorOld()":"6325dd04","mapOldORC1155(address)":"cfaa1f6c","mapOldORC1155Prime(address)":"ed15cbf7","proposals(uint256)":"013cf08b","s1()":"6cc014de","s2()":"a314150f","s3()":"a5d666a9","submit(address,address,address,address,address)":"a11abe2a","update741(address)":"aeb14020","update741Old(address)":"236b0402","update741Prime(address)":"fc58f353","update741PrimeOld(address)":"66658584","update741Primev3Old(address)":"8360701d","update741Rule(address)":"753e7d33","update741RuleOld(address)":"507aa64f","update741RulePrime(address)":"cfacc010","update741RulePrimeOld(address)":"74dfe236","updateCoinTransfer(address)":"23db6149","updateDAOAssembly(address)":"45d96de8","updateDAOCore(address)":"891e91a5","updateDEAD(address)":"0a4c9939","updateFactoryOld(address)":"42ac8f79","updateFactoryPrimeOld(address)":"1654f331","updateImportForgePrimeold(address)":"74fad9f9","updateInTransferOld(address)":"a2672aa8","updateInTransferPrimeOld(address)":"069f3e72","updateInstance(address)":"275424d0","updateInstancePrime(address)":"839a47a4","updateInstanceStor(address)":"6fa16598","updateNftProxy(address)":"f6065649","updateOrc1155(address,address,uint256)":"cc7cf18e","updateOrc1155MachineBullOld(address)":"c7bb7d4d","updateOrc1155Prime(address,address,uint256)":"ef140ed3","updateOrc1155PrimeOld(address)":"1a47ded5","updateOrc1155PrimeOldV1(address)":"0c32145a","updatePrice(address)":"96e85ced","updatePrimeData(address)":"335ab5f2","updatePrimeProxy(address)":"4588d010","updateProposals(address,uint256)":"e0cf4e9e","updateSafeguard(address)":"1162a5b1","updateSafeguardOld(address)":"a0449f45","updateSafeguardPrime(address)":"a9d5ae6f","updateSafeguardPrimeOld(address)":"9669f18f","updateTreaseryFactory(address)":"70ee2af8","updateTreaseryTVLMiningImport(address)":"014519e6","updateTreaseryTVLValidator(address)":"4b849a54","updateTreasuryTVLMining(address)":"130fba6d","updateTreasuryTVLMiningPrime(address)":"36c24c46","updateTreasuryTVLReward(address)":"05abae0d","updateTreasuryTVLRoyality(address)":"e2576819","updateTreasuryTVLTour(address)":"1b67970a","updateValidator(address)":"635b2770","updateValidatorOld(address)":"f1cdfda3"},"id":9}