{"abi":[{"type":"constructor","inputs":[{"name":"_hex","type":"address","internalType":"address"},{"name":"_price","type":"address","internalType":"address"},{"name":"_old741","type":"address","internalType":"address"}],"stateMutability":"nonpayable"},{"type":"function","name":"dAOAssembly","inputs":[],"outputs":[{"name":"","type":"address","internalType":"address"}],"stateMutability":"view"},{"type":"function","name":"daocore","inputs":[],"outputs":[{"name":"","type":"address","internalType":"address"}],"stateMutability":"view"},{"type":"function","name":"nested741","inputs":[],"outputs":[{"name":"","type":"address","internalType":"address"}],"stateMutability":"view"},{"type":"function","name":"old741","inputs":[],"outputs":[{"name":"","type":"address","internalType":"address"}],"stateMutability":"view"},{"type":"function","name":"price","inputs":[],"outputs":[{"name":"","type":"address","internalType":"address"}],"stateMutability":"view"}],"bytecode":{"object":"0x6080346101b757601f61abfc38819003918201601f19168301926001600160401b03929091838511838610176101a15781606092849260409788528339810103126101b75761004d816101bc565b6100648461005d602085016101bc565b93016101bc565b9160018060a01b03199273c0cee8b561cc4f60869776ca5b0b7a295e04f5af84600154161760015585516118489586820196828810828911176101a15761032583396001600160a01b039485168088526000979092908190036020019088f080156101835785168660035416176003558751615f5e808201908282108483111761018d576020918391614c9e833985815203019088f08015610183578516866002541617600255875191613131808401928484109084111761016f57918391602093611b6d8439815203019086f080156101655790838092168560045416176004551683600154161760015516908254161790555161015490816101d18239f35b86513d87823e3d90fd5b634e487b7160e01b89526041600452602489fd5b88513d89823e3d90fd5b634e487b7160e01b8a52604160045260248afd5b634e487b7160e01b600052604160045260246000fd5b600080fd5b51906001600160a01b03821682036101b75756fe608080604052600436101561001357600080fd5b600090813560e01c90816314837455146100f55750806314d8d024146100ce57806345cff900146100a75780635540c5ac146100805763a035b1fe1461005857600080fd5b3461007d578060031936011261007d576001600160a01b036020915416604051908152f35b80fd5b503461007d578060031936011261007d5760206001600160a01b0360015416604051908152f35b503461007d578060031936011261007d5760206001600160a01b0360025416604051908152f35b503461007d578060031936011261007d5760206001600160a01b0360045416604051908152f35b90503461011a578160031936011261011a576020906001600160a01b03600354168152f35b5080fdfea2646970667358221220720b9a817befdb62cc76dea69b272b84c0df2c9153a7b0626be3b2ce359ace4864736f6c6343000814003360803461009757601f61184838819003918201601f19168301916001600160401b0383118484101761009c5780849260209460405283398101031261009757516001600160a01b038116908190036100975780156100855760018060a01b0319338160015416176001556000541617600055600060125560405161179590816100b38239f35b60405163e6c4247b60e01b8152600490fd5b600080fd5b634e487b7160e01b600052604160045260246000fdfe60806040526004361015610018575b361561001657005b005b60003560e01c806312065fe0146101185780631f185d161461011357806325924f341461010e578063339459a6146101095780633b9b79551461010457806361b7fbd9146100ff5780638da5cb5b146100fa578063a1f7f539146100f5578063af484526146100f0578063b90306ad146100eb578063c54e44b0146100e6578063c89b84fd146100e1578063dbac26e9146100dc578063e01ad5fd146100d7578063e0a9bc2b146100d25763fdc10bc90361000e57610ecf565b610eb4565b610e34565b610df1565b610d2c565b610ca6565b610b98565b610b19565b610aa4565b610a7d565b61098f565b61095e565b610266565b610235565b61014a565b3461013457600036600319011261013457602047604051908152f35b600080fd5b6001600160a01b0381160361013457565b3461013457602080600319360112610134576101c960043561016b81610139565b6001600160a01b0380600254169060405192168483015283825261018e82610f00565b6040519061019b82610f00565b601182527f69735369676e6572286164647265737329000000000000000000000000000000858301526115e6565b91908061022b575b156102015781816101eb926101fd945183010191016114ca565b60405190151581529081906020820190565b0390f35b60046040517f3204506f000000000000000000000000000000000000000000000000000000008152fd5b50808251146101d1565b3461013457602036600319011261013457602061025c60043561025781610139565b61108e565b6040519015158152f35b346101345760003660031901126101345761029861028c6000546001600160a01b031690565b6001600160a01b031690565b604051907f97f3815a000000000000000000000000000000000000000000000000000000008252602082600481845afa91821561078e5760009261093d575b50604051917fcfbffe53000000000000000000000000000000000000000000000000000000008352602083600481855afa92831561078e5760009361091c575b50604051907fab6e844f000000000000000000000000000000000000000000000000000000008252602082600481865afa91821561078e576000926108fb575b50604051917f14d8d024000000000000000000000000000000000000000000000000000000008352602083600481875afa92831561078e576000936108da575b50604051927fd1f956b1000000000000000000000000000000000000000000000000000000008452602084600481885afa93841561078e576000946108b9575b50604051937fe61dfd58000000000000000000000000000000000000000000000000000000008552602085600481895afa94851561078e57600095610898575b506040517fe09d394d0000000000000000000000000000000000000000000000000000000081526020816004818a5afa90811561078e57600091610879575b506040517f52b06d640000000000000000000000000000000000000000000000000000000081526020816004818b5afa90811561078e5760009161085a575b506040517f013cf08b00000000000000000000000000000000000000000000000000000000815260006004820152916020836024818c5afa92831561078e57600093610839575b50604051977f5e09dbe70000000000000000000000000000000000000000000000000000000089526020896004818d5afa94851561078e57600499600096610818575b5060208b6040519b8c80927faa0ddc160000000000000000000000000000000000000000000000000000000082525afa96871561078e5760049a6000986107f7575b5060208c6040519c8d80927f640274270000000000000000000000000000000000000000000000000000000082525afa98891561078e5760049b60009a6107d6575b5060208d6040519d8e80927f30125cf50000000000000000000000000000000000000000000000000000000082525afa9a8b1561078e578d60049d60009d6107b4575b506020906040519e8f80927f24768d910000000000000000000000000000000000000000000000000000000082525afa9c8d1561078e5760009d610793575b50604051809e81907f9dc969a80000000000000000000000000000000000000000000000000000000082525a92600491602094fa9d8e1561078e5760009e61075d575b50610671610f5a565b6001600160a01b0390911681529d8e906001600160a01b03166020820152604001906106a591906001600160a01b03169052565b6001600160a01b031660608d01526001600160a01b031660808c01526001600160a01b031660a08b01526001600160a01b031660c08a01526001600160a01b031660e08901526001600160a01b03166101008801526001600160a01b03166101208701526001600160a01b03166101408601526001600160a01b03166101608501526001600160a01b03166101808401526001600160a01b03166101a08301526001600160a01b03166101c0820152610016906111c7565b610780919e5060203d602011610787575b6107788183610f38565b8101906111a6565b9c38610668565b503d61076e565b6111bb565b6107ad919d5060203d602011610787576107788183610f38565b9b38610625565b6020919d506107cf90823d8411610787576107788183610f38565b9c906105e6565b6107f0919a5060203d602011610787576107788183610f38565b98386105a3565b61081191985060203d602011610787576107788183610f38565b9638610561565b61083291965060203d602011610787576107788183610f38565b943861051f565b61085391935060203d602011610787576107788183610f38565b91386104dc565b610873915060203d602011610787576107788183610f38565b38610495565b610892915060203d602011610787576107788183610f38565b38610456565b6108b291955060203d602011610787576107788183610f38565b9338610417565b6108d391945060203d602011610787576107788183610f38565b92386103d7565b6108f491935060203d602011610787576107788183610f38565b9138610397565b61091591925060203d602011610787576107788183610f38565b9038610357565b61093691935060203d602011610787576107788183610f38565b9138610317565b61095791925060203d602011610787576107788183610f38565b90386102d7565b346101345760003660031901126101345760206001600160a01b0360005416604051908152f35b8015150361013457565b34610134576040366003190112610134576004356109ac81610139565b602435906109b982610985565b6109c16114df565b15610a53576001600160a01b039081600554163303610a2957166000526011602052604060002060ff1981541660ff83151516179055600014610a17576012546000198114610a1257600101601255005b611190565b6012548015610a125760001901601255005b60046040517fea8e4eb5000000000000000000000000000000000000000000000000000000008152fd5b60046040517f9dc4246e000000000000000000000000000000000000000000000000000000008152fd5b346101345760003660031901126101345760206001600160a01b0360015416604051908152f35b34610134576000366003190112610134576020610b116001600160a01b0360065416604051610ad281610f00565b601381527f67657464656c656761746f72436f756e742829000000000000000000000000008482015260405191610b0883610f1c565b60008352611721565b604051908152f35b3461013457602080600319360112610134576101c9600435610b3a81610139565b6001600160a01b03806002541690604051921684830152838252610b5d82610f00565b60405190610b6a82610f00565b601582527f6973536563757265426173652861646472657373290000000000000000000000858301526115e6565b3461013457602036600319011261013457600435610bb46114df565b15610a53576001600160a01b03600554163303610a295760009060046020610be661028c85546001600160a01b031690565b604051928380927f46f991ac0000000000000000000000000000000000000000000000000000000082525afa801561078e5783808481949382948391610c88575b505af1610c326115b6565b5015610201577fcdcc745fe377b103b45fa0cec23ae3ef93d6fc6a84a01f0d18c40b354dd1d5d8610c82610c7161028c600b546001600160a01b031690565b604051938452929081906020820190565b0390a280f35b610ca0915060203d8111610787576107788183610f38565b38610c27565b3461013457602036600319011261013457600435610cc381610139565b803b6000610cd082610f7b565b92610cde6040519485610f38565b82845260208401903c602d815110610d0257602a602091015160601c604051908152f35b60046040517fbaf3f0f7000000000000000000000000000000000000000000000000000000008152fd5b34610134576000366003190112610134576001600160a01b038060035416610d65610d55610faa565b91604092835191610b0883610f1c565b9160045416610d72611564565b92825193602085015282840152818352606083019280841067ffffffffffffffff851117610dec5783610ddd926101fd958552610dae82610f00565b601d82527f67657472616e6b436f756e742875696e743235362c75696e74323536290000006080840152611721565b90519081529081906020820190565b610eea565b34610134576020366003190112610134576001600160a01b03600435610e1681610139565b166000526011602052602060ff604060002054166040519015158152f35b3461013457602036600319011261013457602061025c600435610e5681610139565b6001600160a01b03806006541690604051921684830152838252610e7982610f00565b60405190610e8682610f00565b601882527f697364656c656761746f724e6f64652861646472657373290000000000000000858301526116e5565b3461013457600036600319011261013457602061025c6114df565b34610134576000366003190112610134576020610b11611564565b634e487b7160e01b600052604160045260246000fd5b6040810190811067ffffffffffffffff821117610dec57604052565b6020810190811067ffffffffffffffff821117610dec57604052565b90601f8019910116810190811067ffffffffffffffff821117610dec57604052565b604051906101e0820182811067ffffffffffffffff821117610dec57604052565b67ffffffffffffffff8111610dec57601f01601f191660200190565b60405190610fa482610f1c565b60008252565b60405190610fb782610f00565b600c82527f72616e6b666f7244414f282900000000000000000000000000000000000000006020830152565b60405190610ff082610f00565b601682527f67657455736572546f53746f72286164647265737329000000000000000000006020830152565b6040519061102982610f00565b600682527f72616e6b282900000000000000000000000000000000000000000000000000006020830152565b6040519061106282610f00565b600882527f69734c6f636b28290000000000000000000000000000000000000000000000006020830152565b6001600160a01b03906110b482600354166110a7610faa565b60405191610b0883610f1c565b6110fc6110c96004546001600160a01b031690565b604080516001600160a01b038616602080830191909152815291906110ee9083610f38565b6110f6610fe3565b90611694565b928316156111885761113861112161111261101c565b61111a610f97565b9086611721565b9361112a611055565b611132610f97565b916116e5565b921015918261117f575b508161114c575090565b61117c9150611171611178916001600160a01b03166000526011602052604060002090565b5460ff1690565b1590565b90565b15915038611142565b505050600090565b634e487b7160e01b600052601160045260246000fd5b90816020910312610134575161117c81610139565b6040513d6000823e3d90fd5b6114ac6101c06114c8926112016111e582516001600160a01b031690565b6001600160a01b03166001600160a01b03196002541617600255565b61123461121860208301516001600160a01b031690565b6001600160a01b03166001600160a01b03196003541617600355565b61126761124b60408301516001600160a01b031690565b6001600160a01b03166001600160a01b03196004541617600455565b61129a61127e60608301516001600160a01b031690565b6001600160a01b03166001600160a01b03196005541617600555565b6112cd6112b160808301516001600160a01b031690565b6001600160a01b03166001600160a01b03196006541617600655565b6113006112e460a08301516001600160a01b031690565b6001600160a01b03166001600160a01b03196007541617600755565b61133361131760c08301516001600160a01b031690565b6001600160a01b03166001600160a01b03196008541617600855565b61136661134a60e08301516001600160a01b031690565b6001600160a01b03166001600160a01b03196009541617600955565b61139a61137e6101008301516001600160a01b031690565b6001600160a01b03166001600160a01b0319600a541617600a55565b6113ce6113b26101208301516001600160a01b031690565b6001600160a01b03166001600160a01b0319600b541617600b55565b6114026113e66101408301516001600160a01b031690565b6001600160a01b03166001600160a01b0319600c541617600c55565b61143661141a6101608301516001600160a01b031690565b6001600160a01b03166001600160a01b0319600d541617600d55565b61146a61144e6101808301516001600160a01b031690565b6001600160a01b03166001600160a01b0319600e541617600e55565b61149e6114826101a08301516001600160a01b031690565b6001600160a01b03166001600160a01b0319600f541617600f55565b01516001600160a01b031690565b6001600160a01b03166001600160a01b03196010541617601055565b565b90816020910312610134575161117c81610985565b61153a6001600160a01b03600254166040516114fa81610f00565b600881527f697353616665282900000000000000000000000000000000000000000000000060208201526040519161153183610f1c565b600083526115e6565b9080611559575b15610201578060208061117c935183010191016114ca565b506020815114611541565b61117c6001600160a01b036003541660405161157f81610f00565b600681527f6941676528290000000000000000000000000000000000000000000000000000602082015260405191610b0883610f1c565b3d156115e1573d906115c782610f7b565b916115d56040519384610f38565b82523d6000602084013e565b606090565b9190823b1561167b577fffffffff00000000000000000000000000000000000000000000000000000000815160208093012016916040519180830193845281519160005b83811061166757505050918161165760248260009795968897018783820152036004810184520182610f38565b51915afa6116636115b6565b9091565b81810183015185820160240152820161162a565b50505060009060405161168d81610f1c565b6000815290565b92916116a2916000946115e6565b90806116da575b6116b05750565b9091506020818051810103126101345760206001600160a01b039101516116d681610139565b1690565b5060208151146116a9565b92916116f3916000946115e6565b9080611716575b6117015750565b61117c919250602080825183010191016114ca565b5060208151146116fa565b929161172f916000946115e6565b9080611754575b61173d5750565b909150602081805181010312610134576020015190565b50602081511461173656fea2646970667358221220c905a20474bbd4c63a963eb0f7dde0335588455c7cec23883391e103e4f98df364736f6c634300081400336080346200009e57601f6200313138819003918201601f19168301916001600160401b03831184841017620000a3578084926020946040528339810103126200009e57516001600160a01b038116908190036200009e5780156200008c5760018060a01b031933816001541617600155600054161760005560466011556040516130779081620000ba8239f35b60405163e6c4247b60e01b8152600490fd5b600080fd5b634e487b7160e01b600052604160045260246000fdfe60806040526004361015610018575b361561001657005b005b60003560e01c8063013cf08b146101c857806312065fe0146101c35780631f185d16146101be57806326705c3c146101b9578063339459a6146101b45780633b9b7955146101af57806343859632146101aa57806345a257bc146101a55780635c622a0e146101a0578063604ff4b11461019b578063896d6db1146101965780638da5cb5b1461019157806398e527d31461018c578063995e433914610187578063a1f7f53914610182578063af4845261461017d578063b7ccfe3214610178578063b90306ad14610173578063c54e44b01461016e578063c7f758a814610169578063c9d27afe14610164578063cc48bf161461015f578063d3325a2c1461015a578063e01ad5fd14610155578063e0a9bc2b14610150578063eeebb3c31461014b5763fdc10bc90361000e57611c8f565b611a79565b611a5e565b611a37565b6119a8565b611873565b6116d8565b61163e565b611564565b611456565b6113af565b6112c8565b6112a5565b611221565b611203565b6111dc565b611143565b611064565b611018565b610d66565b610cc4565b610c9d565b6105a5565b610587565b610556565b610529565b610465565b634e487b7160e01b600052603260045260246000fd5b60125481101561021e57600b906012600052027fbb8a6a4669ba250d26cd7a459eca9d215f8307e33aebe50379bc5a3617ec34440190600090565b6101cd565b90600182811c92168015610253575b602083101461023d57565b634e487b7160e01b600052602260045260246000fd5b91607f1691610232565b906000929180549161026e83610223565b9182825260019384811690816000146102d05750600114610290575b50505050565b90919394506000526020928360002092846000945b8386106102bc57505050500101903880808061028a565b8054858701830152940193859082016102a5565b9294505050602093945060ff191683830152151560051b0101903880808061028a565b634e487b7160e01b600052604160045260246000fd5b6040810190811067ffffffffffffffff82111761032557604052565b6102f3565b6020810190811067ffffffffffffffff82111761032557604052565b90601f8019910116810190811067ffffffffffffffff82111761032557604052565b9061038361037c926040519384809261025d565b0383610346565b565b60005b8381106103985750506000910152565b8181015183820152602001610388565b906020916103c181518092818552858086019101610385565b601f01601f1916010190565b99939561041d61044d969f9e9d99936101809d986104619c9660408f6001600160a01b036104076104579f996101a08085528401906103a8565b9516602082015201528d820360608f01526103a8565b9e60808c015260a08b015260c08a015260e089015215156101008801526101208701906001600160a01b03169052565b1515610140850152565b1515610160830152565b0152565b34610524576020366003190112610524576004356012548110156105245761048c906101e3565b506040516104a58161049e818561025d565b0382610346565b6105206104bc60018401546001600160a01b031690565b6002840154906104ce60038601610368565b93600486015495600581015493600682015460078301549060096008850154940154966040519a8b9a8b9560ff8860b01c169960ff8960a81c169960ff6001600160a01b038b60081c169a16986103cd565b0390f35b600080fd5b3461052457600036600319011261052457602047604051908152f35b6001600160a01b0381160361052457565b3461052457602036600319011261052457602061057d60043561057881610545565b612c5f565b6040519015158152f35b34610524576000366003190112610524576020601454604051908152f35b34610524576000366003190112610524576105d76105cb6000546001600160a01b031690565b6001600160a01b031690565b604051907f97f3815a000000000000000000000000000000000000000000000000000000008252602082600481845afa918215610acd57600092610c7c575b50604051917fcfbffe53000000000000000000000000000000000000000000000000000000008352602083600481855afa928315610acd57600093610c5b575b50604051907fab6e844f000000000000000000000000000000000000000000000000000000008252602082600481865afa918215610acd57600092610c3a575b50604051917f14d8d024000000000000000000000000000000000000000000000000000000008352602083600481875afa928315610acd57600093610c19575b50604051927fd1f956b1000000000000000000000000000000000000000000000000000000008452602084600481885afa938415610acd57600094610bf8575b50604051937fe61dfd58000000000000000000000000000000000000000000000000000000008552602085600481895afa948515610acd57600095610bd7575b506040517fe09d394d0000000000000000000000000000000000000000000000000000000081526020816004818a5afa908115610acd57600091610bb8575b506040517f52b06d640000000000000000000000000000000000000000000000000000000081526020816004818b5afa908115610acd57600091610b99575b506040517f013cf08b00000000000000000000000000000000000000000000000000000000815260006004820152916020836024818c5afa928315610acd57600093610b78575b50604051977f5e09dbe70000000000000000000000000000000000000000000000000000000089526020896004818d5afa948515610acd57600499600096610b57575b5060208b6040519b8c80927faa0ddc160000000000000000000000000000000000000000000000000000000082525afa968715610acd5760049a600098610b36575b5060208c6040519c8d80927f640274270000000000000000000000000000000000000000000000000000000082525afa988915610acd5760049b60009a610b15575b5060208d6040519d8e80927f30125cf50000000000000000000000000000000000000000000000000000000082525afa9a8b15610acd578d60049d60009d610af3575b506020906040519e8f80927f24768d910000000000000000000000000000000000000000000000000000000082525afa9c8d15610acd5760009d610ad2575b50604051809e81907f9dc969a80000000000000000000000000000000000000000000000000000000082525a92600491602094fa9d8e15610acd5760009e610a9c575b506109b0611914565b6001600160a01b0390911681529d8e906001600160a01b03166020820152604001906109e491906001600160a01b03169052565b6001600160a01b031660608d01526001600160a01b031660808c01526001600160a01b031660a08b01526001600160a01b031660c08a01526001600160a01b031660e08901526001600160a01b03166101008801526001600160a01b03166101208701526001600160a01b03166101408601526001600160a01b03166101608501526001600160a01b03166101808401526001600160a01b03166101a08301526001600160a01b03166101c0820152610016906128c4565b610abf919e5060203d602011610ac6575b610ab78183610346565b8101906128a3565b9c386109a7565b503d610aad565b6128b8565b610aec919d5060203d602011610ac657610ab78183610346565b9b38610964565b6020919d50610b0e90823d8411610ac657610ab78183610346565b9c90610925565b610b2f919a5060203d602011610ac657610ab78183610346565b98386108e2565b610b5091985060203d602011610ac657610ab78183610346565b96386108a0565b610b7191965060203d602011610ac657610ab78183610346565b943861085e565b610b9291935060203d602011610ac657610ab78183610346565b913861081b565b610bb2915060203d602011610ac657610ab78183610346565b386107d4565b610bd1915060203d602011610ac657610ab78183610346565b38610795565b610bf191955060203d602011610ac657610ab78183610346565b9338610756565b610c1291945060203d602011610ac657610ab78183610346565b9238610716565b610c3391935060203d602011610ac657610ab78183610346565b91386106d6565b610c5491925060203d602011610ac657610ab78183610346565b9038610696565b610c7591935060203d602011610ac657610ab78183610346565b9138610656565b610c9691925060203d602011610ac657610ab78183610346565b9038610616565b346105245760003660031901126105245760206001600160a01b0360005416604051908152f35b3461052457604036600319011261052457600435602435610ce481610545565b6000198201918211610d2957610d1d60ff91600a610d036020956101e3565b5001906001600160a01b0316600052602052604060002090565b54166040519015158152f35b611dd6565b9181601f840112156105245782359167ffffffffffffffff8311610524576020838186019501011161052457565b8015150361052457565b346105245760e03660031901126105245760043560243567ffffffffffffffff811161052457610d9a903690600401610d2e565b604435610da681610545565b606435936001600160e01b031985168086036105245760843560a4359260c43592610dd084610d5c565b610dd933612c5f565b1561100757610df490610ded881515611caa565b1515611cf5565b8315801590610ff5575b610e0790611d40565b80610ed15750610ecc9593610ec4610016989694610eb07f0454182b30f1740c505634bb66f7f3001e232b3c8797a62b1db11b347a891ff4956001600160a01b0395610e8a610e54611935565b92610e60368c8e611971565b84526001600160a01b03881660208501526001600160e01b03198d16604085015215156060840152565b60808201528260a0820152610eab6014546000526013602052604060002090565b612032565b6014549788966040519586951698856121b3565b0390a36121e1565b601455565b968294610fdb88957f74608b2c8ffedaacf37a0fda8ea5cb94ebae20dc104623eb2fabb1bcec211608946001600160a01b03948a610fcd8e997f2dd3ae6155b13a46b2374a1f42e0733244754e572ec9f0034b698efefa8673a19e610f64610ff09f610f5d610f4d8f610f48601454821115611d8b565b611dec565b6000526013602052604060002090565b9283611e4f565b8660036001830192610f8c8c85906001600160a01b03166001600160a01b0319825416179055565b835463ffffffff60a01b1916604089901c63ffffffff60a01b1617845588600282015501559060ff60c01b1960ff60c01b835492151560c01b169116179055565b604051968796169986611f38565b0390a360405190151581529081906020820190565b0390a2005b506001600160a01b0385161515610dfe565b600460405163ea8e4eb560e01b8152fd5b34610524576020366003190112610524576004356000198101908111610d295760086110456040926101e3565b50015460ff825191818160a81c161515835260b01c1615156020820152f35b3461052457602036600319011261052457600435611080612bda565b15611132573330036110ee57801515806110e3575b1561109f57601155005b606460405162461bcd60e51b815260206004820152601660248201527f64616f2e696e76616c69642e70657263656e74616765000000000000000000006044820152fd5b506064811115611095565b606460405162461bcd60e51b815260206004820152600d60248201527f64616f2e66616b652e636f7265000000000000000000000000000000000000006044820152fd5b6004604051634ee2123760e11b8152fd5b346105245760203660031901126105245760043560005260136020526111a06040600020604051906111798261037c818461025d565b600181015490600360028201549101549060ff60405195869560c0875260c08701906103a8565b936001600160a01b03811660208701526001600160e01b03198160401b16604087015260c01c1615156060850152608084015260a08301520390f35b346105245760003660031901126105245760206001600160a01b0360015416604051908152f35b34610524576000366003190112610524576020601254604051908152f35b34610524576020366003190112610524576004356000198101908111610d295761124a906101e3565b50600481015460058201546006830154600784015460089094015460408051948552602085019390935291830152606082019290925260ff60a883901c81161515608083015260b09290921c909116151560a082015260c090f35b346105245760003660031901126105245760206112c0612da9565b604051908152f35b3461052457602080600319360112610524576113476004356112e981610545565b6001600160a01b0380600254169060405192168483015283825261130c82610309565b6040519061131982610309565b601582527f697353656375726542617365286164647265737329000000000000000000000085830152612e2b565b9190806113a5575b1561137b5781816113699261052094518301019101612bc5565b60405190151581529081906020820190565b60046040517f3204506f000000000000000000000000000000000000000000000000000000008152fd5b508082511461134f565b34610524576040366003190112610524576004356024356113cf81610d5c565b6113d833612c5f565b15611007576113eb601454831115611d8b565b6000198201828111610d29577f2dd3ae6155b13a46b2374a1f42e0733244754e572ec9f0034b698efefa8673a1916020916000526013825261144b8160016040600020019060ff60c01b1960ff60c01b835492151560c01b169116179055565b6040519015158152a2005b3461052457602036600319011261052457600435611472612bda565b15611132576001600160a01b0360055416330361100757600090600460206114a46105cb85546001600160a01b031690565b604051928380927f46f991ac0000000000000000000000000000000000000000000000000000000082525afa8015610acd5783808481949382948391611546575b505af16114f0612dfb565b501561137b577fcdcc745fe377b103b45fa0cec23ae3ef93d6fc6a84a01f0d18c40b354dd1d5d861154061152f6105cb600b546001600160a01b031690565b604051938452929081906020820190565b0390a280f35b61155e915060203d8111610ac657610ab78183610346565b386114e5565b346105245760203660031901126105245760043561158181610545565b803b600061158e82611955565b9261159c6040519485610346565b82845260208401903c602d8151106115c057602a602091015160601c604051908152f35b60046040517fbaf3f0f7000000000000000000000000000000000000000000000000000000008152fd5b9361160661163b9896939297949760e0875260e08701906103a8565b966001600160a01b03809316602087015260408601521660608401521515608083015260a082015260c08184039101526103a8565b90565b34610524576020366003190112610524576004356000198101908111610d2957611667906101e3565b506001600160a01b03610520600382600185015416936002810154906008810154906009810154926116c2604051926116ab846116a4818461025d565b0385610346565b6116bb604051809881930161025d565b0386610346565b60405197889760ff85169460081c1692886115ea565b34610524576040366003190112610524576004356024356116f881610d5c565b611700612bda565b156111325761170e33612d44565b156110075781151580611867575b61172590612607565b61173661173183611dec565b6101e3565b509061176e60ff600884015461174d828216612652565b611764600686015461175d612ce9565b111561269d565b60b01c16156126e8565b6117d36117c6600a84016117ae6117a96117a561179e3385906001600160a01b0316600052602052604060002090565b5460ff1690565b1590565b612733565b336001600160a01b0316600052602052604060002090565b805460ff19166001179055565b801561185257600482016117e781546121e1565b90555b6040519015158152339083907f0def80f9a3b4c7a4251442658ccf516bf33ea4acaf31638fc6da8ebdb0f64c7290602090a36004810154600782015480911091821592611843575b505061183a57005b6100169061277e565b60050154101590503880611832565b6005820161186081546121e1565b90556117ea565b5060125482111561171c565b346105245760203660031901126105245760043561189033612c5f565b156110075780151580611908575b6118a790612607565b6000198101818111610d29576118be6008916101e3565b5001600160b01b60ff60b01b1982546118dd60ff8260b01c16156126e8565b161790557f4cf2797951877f41b38931a68643f9249273f32fd396532213aa4f1222c9d16b600080a2005b5060125481111561189e565b604051906101e0820182811067ffffffffffffffff82111761032557604052565b6040519060c0820182811067ffffffffffffffff82111761032557604052565b67ffffffffffffffff811161032557601f01601f191660200190565b92919261197d82611955565b9161198b6040519384610346565b829481845281830111610524578281602093846000960137010152565b346105245760a03660031901126105245767ffffffffffffffff600435818111610524576119da903690600401610d2e565b6024929192356119e981610545565b60643592831161052457366023840112156105245761052093611a19611a27943690602481600401359101611971565b9160843593604435926124ab565b6040519081529081906020820190565b3461052457602036600319011261052457602061057d600435611a5981610545565b612d44565b3461052457600036600319011261052457602061057d612bda565b3461052457608036600319011261052457600480359060243590611a9c82610545565b60443567ffffffffffffffff811161052457611abb9036908301610d2e565b9092611ac5612bda565b15611c7f57611ad333612d44565b15611c6f57611ae6601454861115611d8b565b611af2610f4d86611dec565b91611b20600184015491611b0b60ff8460c01c166121f0565b6040966001600160e01b031984891b1661223b565b6003840154909490918215611c525750805486516001600160a01b03858116602080840191909152825290911692601f19929091611b75906117a590611b67604082610346565b611b6f612274565b87612ef7565b611c44575091611bb29593918360016105209a979514611c00575b600214611bc1575b50505b600282015493611bad60643593610368565b612394565b90519081529081906020820190565b87516001600160a01b0393909316602084015260409081018352611bf9929190611beb9083610346565b611bf36122e6565b90612ea6565b3880611b98565b88516001600160a01b03909416602085015292600290611c3c90611c2e816040810103858101835282610346565b611c366122ad565b85612ea6565b939050611b90565b875163ea8e4eb560e01b8152fd5b611bb2959350610520979492506001600160a01b03915016611b9b565b8260405163ea8e4eb560e01b8152fd5b82604051634ee2123760e11b8152fd5b346105245760003660031901126105245760206112c0612ce9565b15611cb157565b606460405162461bcd60e51b815260206004820152601760248201527f64616f2e74656d706c6174652e656d7074792e646573630000000000000000006044820152fd5b15611cfc57565b606460405162461bcd60e51b815260206004820152601a60248201527f64616f2e74656d706c6174652e7a65726f2e73656c6563746f720000000000006044820152fd5b15611d4757565b606460405162461bcd60e51b815260206004820152601860248201527f64616f2e74656d706c6174652e7a65726f2e74617267657400000000000000006044820152fd5b15611d9257565b606460405162461bcd60e51b815260206004820152601460248201527f64616f2e74656d706c6174652e696e76616c69640000000000000000000000006044820152fd5b634e487b7160e01b600052601160045260246000fd5b600019810191908211610d2957565b90601f8111611e0957505050565b600091825260208220906020601f850160051c83019410611e45575b601f0160051c01915b828110611e3a57505050565b818155600101611e2e565b9092508290611e25565b90929167ffffffffffffffff811161032557611e7581611e6f8454610223565b84611dfb565b6000601f8211600114611eaf5781929394600092611ea4575b50508160011b916000199060031b1c1916179055565b013590503880611e8e565b601f19821694611ec484600052602060002090565b91805b878110611eff575083600195969710611ee5575b505050811b019055565b0135600019600384901b60f8161c19169055388080611edb565b90926020600181928686013581550194019101611ec7565b908060209392818452848401376000828201840152601f01601f1916010190565b91611f5b606094979695926001600160e01b031992608086526080860191611f17565b9616602083015260408201520152565b919091825167ffffffffffffffff811161032557611f8d81611e6f8454610223565b602080601f8311600114611fc8575081929394600092611fbd5750508160011b916000199060031b1c1916179055565b015190503880611e8e565b90601f19831695611fde85600052602060002090565b926000905b88821061201a5750508360019596971061200157505050811b019055565b015160001960f88460031b161c19169055388080611edb565b80600185968294968601518155019501930190611fe3565b908051805167ffffffffffffffff81116103255761205a816120548654610223565b86611dfb565b6020918290601f831160011461213e579282600395936121229360a096600092612133575b50508160011b9160001990881b1c19161786555b6120c96120ad60018801928501516001600160a01b031690565b82906001600160a01b03166001600160a01b0319825416179055565b6121016120e160408501516001600160e01b03191690565b825463ffffffff60a01b191660409190911c63ffffffff60a01b16178255565b60608301511515815460ff60c01b191690151560c01b60ff60c01b16179055565b608081015160028501550151910155565b01519050388061207f565b90601f1983169161215487600052602060002090565b9260005b81811061219c5750936121229360a096936001938360039a9810612184575b505050811b018655612093565b0151600019838a1b60f8161c19169055388080612177565b929386600181928786015181550195019301612158565b906121d66001600160e01b03199160409497969597606085526060850191611f17565b951660208201520152565b6000198114610d295760010190565b156121f757565b606460405162461bcd60e51b815260206004820152601560248201527f64616f2e74656d706c6174652e64697361626c656400000000000000000000006044820152fd5b602490836001600160e01b0319959461038394604051978894166020850152848401378101600083820152036004810185520183610346565b6040519061228182610309565b601582527f69735573657245786973747328616464726573732900000000000000000000006020830152565b604051906122ba82610309565b601682527f67657455736572546f496e7374286164647265737329000000000000000000006020830152565b604051906122f382610309565b601682527f67657455736572546f53746f72286164647265737329000000000000000000006020830152565b6012546801000000000000000081101561032557600181018060125581101561021e57600b906012600052027fbb8a6a4669ba250d26cd7a459eca9d215f8307e33aebe50379bc5a3617ec34440190600090565b81810292918115918404141715610d2957565b9060638201809211610d2957565b92936123db919592946123b06123a861231f565b509586611f6b565b6001850180546001600160a01b0319166001600160a01b038816179055600285015560038401611f6b565b60646123f96123f46123eb612da9565b60115490612373565b612386565b046007830155612407612ce9565b908101809111610d295781600991600686940155612463600882016117c633829074ffffffffffffffffffffffffffffffffffffffff001974ffffffffffffffffffffffffffffffffffffffff0083549260081b169116179055565b01556012546040516001600160a01b03909216825291339183907f336735bcae5ee955b87e8b30bee52920223fa30a865b207ac6d9eee9f19589fb9080602081015b0390a490565b9193906124b733612c5f565b15611007576001600160a01b038516156125dd57612519926124da913691611971565b926124ee6124e661231f565b509485611f6b565b6001840180546001600160a01b0319166001600160a01b038716179055600284015560038301611f6b565b60646125296123f46123eb612da9565b046007820155612537612ce9565b928301809311610d29576009926006820155612591600882016117c633829074ffffffffffffffffffffffffffffffffffffffff001974ffffffffffffffffffffffffffffffffffffffff0083549260081b169116179055565b6103e792018290556012546040516001600160a01b03909216825291339183907f336735bcae5ee955b87e8b30bee52920223fa30a865b207ac6d9eee9f19589fb9080602081016124a5565b60046040517fe6c4247b000000000000000000000000000000000000000000000000000000008152fd5b1561260e57565b606460405162461bcd60e51b815260206004820152600e60248201527f64616f2e696e76616c69642e69640000000000000000000000000000000000006044820152fd5b1561265957565b606460405162461bcd60e51b815260206004820152601160248201527f64616f2e70726f702e6e6f7465786973740000000000000000000000000000006044820152fd5b156126a457565b606460405162461bcd60e51b815260206004820152601060248201527f64616f2e766f74696e672e656e646564000000000000000000000000000000006044820152fd5b156126ef57565b606460405162461bcd60e51b815260206004820152601560248201527f64616f2e616c72656164792e636f6d706c6574656400000000000000000000006044820152fd5b1561273a57565b606460405162461bcd60e51b815260206004820152601160248201527f64616f2e616c72656164792e766f7465640000000000000000000000000000006044820152fd5b7f948f4a9cd986f1118c3fbd459f7a22b23c0693e1ca3ef06a6a8be5aa7d39cc036128456113696127b161173185611dec565b5060088101805460ff60b01b1916600160b01b17815590612827600482015460078301548110159081612895575b5083547fffffffffffffffffffff00ffffffffffffffffffffffffffffffffffffffffff1690151560a81b75ff00000000000000000000000000000000000000000016178355565b815460a81c60ff1680612880575b61284a575b505460a81c60ff1690565b0390a2565b8061286260016128799301546001600160a01b031690565b612873600360028401549301610368565b90612fa3565b503861283a565b5061288e6003820154610223565b1515612835565b9050600583015410386127df565b90816020910312610524575161163b81610545565b6040513d6000823e3d90fd5b612ba96101c0610383926128fe6128e282516001600160a01b031690565b6001600160a01b03166001600160a01b03196002541617600255565b61293161291560208301516001600160a01b031690565b6001600160a01b03166001600160a01b03196003541617600355565b61296461294860408301516001600160a01b031690565b6001600160a01b03166001600160a01b03196004541617600455565b61299761297b60608301516001600160a01b031690565b6001600160a01b03166001600160a01b03196005541617600555565b6129ca6129ae60808301516001600160a01b031690565b6001600160a01b03166001600160a01b03196006541617600655565b6129fd6129e160a08301516001600160a01b031690565b6001600160a01b03166001600160a01b03196007541617600755565b612a30612a1460c08301516001600160a01b031690565b6001600160a01b03166001600160a01b03196008541617600855565b612a63612a4760e08301516001600160a01b031690565b6001600160a01b03166001600160a01b03196009541617600955565b612a97612a7b6101008301516001600160a01b031690565b6001600160a01b03166001600160a01b0319600a541617600a55565b612acb612aaf6101208301516001600160a01b031690565b6001600160a01b03166001600160a01b0319600b541617600b55565b612aff612ae36101408301516001600160a01b031690565b6001600160a01b03166001600160a01b0319600c541617600c55565b612b33612b176101608301516001600160a01b031690565b6001600160a01b03166001600160a01b0319600d541617600d55565b612b67612b4b6101808301516001600160a01b031690565b6001600160a01b03166001600160a01b0319600e541617600e55565b612b9b612b7f6101a08301516001600160a01b031690565b6001600160a01b03166001600160a01b0319600f541617600f55565b01516001600160a01b031690565b6001600160a01b03166001600160a01b03196010541617601055565b90816020910312610524575161163b81610d5c565b612c356001600160a01b0360025416604051612bf581610309565b600881527f6973536166652829000000000000000000000000000000000000000000000000602082015260405191612c2c8361032a565b60008352612e2b565b9080612c54575b1561137b578060208061163b93518301019101612bc5565b506020815114612c3c565b612cc26001600160a01b038060025416604051916020941684830152838252612c8782610309565b60405190612c9482610309565b601182527f69735369676e657228616464726573732900000000000000000000000000000085830152612e2b565b9080612cdf575b1561137b578161163b9282518301019101612bc5565b5081815114612cc9565b61163b6001600160a01b0360035416604051612d0481610309565b600681527f6941676528290000000000000000000000000000000000000000000000000000602082015260405191612d3b8361032a565b60008352612f33565b61163b906001600160a01b038060065416906040519216602083015260208252612d6d82610309565b60405190612d7a82610309565b601882527f697364656c656761746f724e6f646528616464726573732900000000000000006020830152612ef7565b61163b6001600160a01b0360065416604051612dc481610309565b601381527f67657464656c656761746f72436f756e74282900000000000000000000000000602082015260405191612d3b8361032a565b3d15612e26573d90612e0c82611955565b91612e1a6040519384610346565b82523d6000602084013e565b606090565b803b15612e8d576000926001600160e01b03198360208695519101201690612e7d6024604051809360208201958652612e6d8151809260208686019101610385565b8101036004810184520182610346565b51915afa612e89612dfb565b9091565b505050600090604051612e9f8161032a565b6000815290565b9291612eb491600094612e2b565b9080612eec575b612ec25750565b9091506020818051810103126105245760206001600160a01b03910151612ee881610545565b1690565b506020815114612ebb565b9291612f0591600094612e2b565b9080612f28575b612f135750565b61163b91925060208082518301019101612bc5565b506020815114612f0c565b9291612f4191600094612e2b565b9080612f66575b612f4f5750565b909150602081805181010312610524576020015190565b506020815114612f48565b90602082519201516001600160e01b0319908181169360048110612f9457505050565b60040360031b82901b16169150565b9190916001600160a01b038116156125dd57600091829184519160208601915af190612fcd612dfb565b9115612fd7575090565b80516000919060041161303b57612fee9150612f71565b815115612ffe5750805190602001fd5b6040517f21c09d340000000000000000000000000000000000000000000000000000000081526001600160e01b0319919091166004820152602490fd5b50612fee56fea264697066735822122009632208d903a4bafe0d16c0b6e8a67f9b3c09b1a445343b2906665b06749cf064736f6c634300081400336080346200009e57601f62005f5e38819003918201601f19168301916001600160401b03831184841017620000a3578084926020946040528339810103126200009e57516001600160a01b038116908190036200009e5780156200008c5760018060a01b03193381600154161760015560005416176000556001601155604051615ea49081620000ba8239f35b60405163e6c4247b60e01b8152600490fd5b600080fd5b634e487b7160e01b600052604160045260246000fdfe60806040526004361015610018575b361561001657005b005b60003560e01c8063033eeffb146103d35780630e5fd00b146103655780631157a849146103ce57806312065fe0146103c957806313508e37146103c457806319aecf65146103bf5780631bb49f02146103ba5780631c53c280146103b55780631f185d16146103b05780631f5fa838146103ab5780632a687c87146103a65780632bbae52e146103a15780632fefc0bf1461039c57806332ff4eab14610397578063339459a61461039257806333b59a5b1461038d5780633a7b55b8146103885780633b9b7955146103835780633baee0ea1461037e578063419cb27b1461037957806342cc9d5714610374578063445850971461036f57806344668f231461036a57806345145fd7146103655780634d1ec452146103605780634f0f4aa91461035b578063509222cd1461035657806350db85d11461035157806361ea72081461034c578063629d671e1461034757806365d2fbd3146103425780636a8112441461033d5780636b90905b146103385780636fb412ab1461033357806376fe6c451461032e5780637818cdd71461032957806380f85e3314610324578063849c22ad1461031f578063896c354a1461031a5780638da5cb5b1461031557806395f72f491461031057806398b3f2151461030b578063a1f7f53914610306578063a89d693b14610301578063af484526146102fc578063b1c49079146102f7578063b366335e146102f2578063b90306ad146102ed578063c43792e3146102e8578063c54e44b0146102e3578063c871372b146102de578063cf359165146102d9578063d1e0bbc6146102d4578063dcb3fc4a146102cf578063e01ad5fd146102ca578063e0a9bc2b146102c5578063eb95c662146102c0578063f3ca7124146102bb578063fd38093b146102b65763fdc10bc90361000e576138ff565b61388f565b613863565b613837565b61381c565b61379c565b613531565b6134f7565b613475565b6133f6565b613370565b613344565b613236565b6131c0565b6130a2565b613071565b612f52565b612eb7565b612e8b565b612e15565b612dee565b612dae565b612d7f565b612d45565b612cec565b612bce565b612a31565b612907565b6124f2565b611f33565b611ef5565b611ed7565b611cd3565b611c7f565b611b92565b611b31565b610415565b611b13565b611adb565b611aac565b611a78565b61163d565b611616565b6114aa565b611289565b610b91565b610b1b565b610ae3565b610a9a565b610a1f565b61092a565b610843565b61080e565b6107b7565b6105cf565b61055e565b610542565b610465565b346103ff5760203660031901126103ff5760043560005260196020526020604060002054604051908152f35b600080fd5b6001600160a01b038116036103ff57565b346103ff5760203660031901126103ff57602060043561043481610404565b6001600160a01b03809116600052601282526040600020546000526015825260046040600020015416604051908152f35b346103ff5760203660031901126103ff57600435610481613b8b565b600090808252601560205261049f60ff6001604085200154166144e9565b33825260126020526104b6604083205482146144e9565b808252601e60205260ff600160408420015416156104fe576104e56104f191600052601e602052604060002090565b60016000918281550155565b6104fb6001601155565b80f35b606460405162461bcd60e51b815260206004820152601360248201527f6e65737465642e7265712e6e6f746578697374000000000000000000000000006044820152fd5b346103ff5760003660031901126103ff57602047604051908152f35b346103ff5760203660031901126103ff57600435600052601e6020526060604060002060ff600182549201546040519283528181161515602084015260081c1615156040820152f35b60409060031901126103ff576004356105bf81610404565b906024356105cc81610404565b90565b346103ff576105dd366105a7565b6105e5615a16565b156107a6576105f333615a9b565b8015610792575b15610781576106109161060b613b8b565b613e98565b6106376005610629836000526015602052604060002090565b01546001600160a01b031690565b90610641816143a6565b61065a6005610629836000526015602052604060002090565b6106a76106986040518061067660208201906000602083019252565b039361068a601f1995868101845283612ca9565b610692613ab4565b90615bd1565b60208082518301019101613aed565b5050506001600160a01b036106e2600561062960026106d0886000526015602052604060002090565b01546000526015602052604060002090565b1615159081610777575b5061071b575b506106fd6001601155565b604080519182526001600160a01b03929092166020820152f35b0390f35b6107709061073d600561062960026106d0876000526015602052604060002090565b604051630711e58760e41b6020820152600160248201529161076b9083604481015b03908101845283612ca9565b615da9565b50386106f2565b90501515386106ec565b600460405163ea8e4eb560e01b8152fd5b50336001600160a01b0360055416146105fa565b6004604051634ee2123760e11b8152fd5b346103ff5760203660031901126103ff5760206004356107d681610404565b60406001600160a01b039182600091168152601284528181205481526015845260028282200154815260138452205416604051908152f35b346103ff5760203660031901126103ff57600435600052601360205260206001600160a01b0360406000205416604051908152f35b346103ff576020806003193601126103ff576108c260043561086481610404565b6001600160a01b0380600254169060405192168483015283825261088782612c55565b6040519061089482612c55565b601182527f69735369676e657228616464726573732900000000000000000000000000000085830152615c6c565b919080610920575b156108f65781816108e492610717945183010191016159fe565b60405190151581529081906020820190565b60046040517f3204506f000000000000000000000000000000000000000000000000000000008152fd5b50808251146108ca565b346103ff5760203660031901126103ff5761096860043561094a81610404565b61095261555a565b6040519161095f83612c71565b60008352615cae565b6001600160a01b038116156109da576109ca6107179160405161098a81612c55565b600681527f72616e6b282900000000000000000000000000000000000000000000000000006020820152604051916109c183612c71565b60008352615d3b565b6040519081529081906020820190565b60405162461bcd60e51b815260206004820152601560248201527f6e65737465642e73746f722e6e6f7465786973747300000000000000000000006044820152606490fd5b346103ff5760403660031901126103ff57602435610a3b615a16565b156107a657610a4933615a9b565b8015610a86575b1561078157600090808252601a6020526040822054906004358201809211610a81578252601a602052604082205580f35b613b5a565b50336001600160a01b036005541614610a50565b346103ff5760203660031901126103ff57600480356000908152601560209081526040918290209283015460059093015482516001600160a01b03948516815293169083015290f35b346103ff5760203660031901126103ff57600435600052601560205260206001600160a01b0360056040600020015416604051908152f35b346103ff5760403660031901126103ff57602435610b37615a16565b156107a657610b4533615a9b565b8015610b7d575b1561078157600090808252601d6020526040822054906004358201809211610a81578252601d602052604082205580f35b50336001600160a01b036005541614610b4c565b346103ff5760003660031901126103ff57610bc3610bb76000546001600160a01b031690565b6001600160a01b031690565b604051907f97f3815a000000000000000000000000000000000000000000000000000000008252602082600481845afa9182156110b957600092611268575b50604051917fcfbffe53000000000000000000000000000000000000000000000000000000008352602083600481855afa9283156110b957600093611247575b50604051907fab6e844f000000000000000000000000000000000000000000000000000000008252602082600481865afa9182156110b957600092611226575b50604051917f14d8d024000000000000000000000000000000000000000000000000000000008352602083600481875afa9283156110b957600093611205575b50604051927fd1f956b1000000000000000000000000000000000000000000000000000000008452602084600481885afa9384156110b9576000946111e4575b50604051937fe61dfd58000000000000000000000000000000000000000000000000000000008552602085600481895afa9485156110b9576000956111c3575b506040517fe09d394d0000000000000000000000000000000000000000000000000000000081526020816004818a5afa9081156110b9576000916111a4575b506040517f52b06d640000000000000000000000000000000000000000000000000000000081526020816004818b5afa9081156110b957600091611185575b506040517f013cf08b00000000000000000000000000000000000000000000000000000000815260006004820152916020836024818c5afa9283156110b957600093611164575b50604051977f5e09dbe70000000000000000000000000000000000000000000000000000000089526020896004818d5afa9485156110b957600499600096611143575b5060208b6040519b8c80927faa0ddc160000000000000000000000000000000000000000000000000000000082525afa9687156110b95760049a600098611122575b5060208c6040519c8d80927f640274270000000000000000000000000000000000000000000000000000000082525afa9889156110b95760049b60009a611101575b5060208d6040519d8e80927f30125cf50000000000000000000000000000000000000000000000000000000082525afa9a8b156110b9578d60049d60009d6110df575b506020906040519e8f80927f24768d910000000000000000000000000000000000000000000000000000000082525afa9c8d156110b95760009d6110be575b50604051809e81907f9dc969a80000000000000000000000000000000000000000000000000000000082525a92600491602094fa9d8e156110b95760009e611088575b50610f9c612ccb565b6001600160a01b0390911681529d8e906001600160a01b0316602082015260400190610fd091906001600160a01b03169052565b6001600160a01b031660608d01526001600160a01b031660808c01526001600160a01b031660a08b01526001600160a01b031660c08a01526001600160a01b031660e08901526001600160a01b03166101008801526001600160a01b03166101208701526001600160a01b03166101408601526001600160a01b03166101608501526001600160a01b03166101808401526001600160a01b03166101a08301526001600160a01b03166101c0820152610016906156fd565b6110ab919e5060203d6020116110b2575b6110a38183612ca9565b81019061566a565b9c38610f93565b503d611099565b61567f565b6110d8919d5060203d6020116110b2576110a38183612ca9565b9b38610f50565b6020919d506110fa90823d84116110b2576110a38183612ca9565b9c90610f11565b61111b919a5060203d6020116110b2576110a38183612ca9565b9838610ece565b61113c91985060203d6020116110b2576110a38183612ca9565b9638610e8c565b61115d91965060203d6020116110b2576110a38183612ca9565b9438610e4a565b61117e91935060203d6020116110b2576110a38183612ca9565b9138610e07565b61119e915060203d6020116110b2576110a38183612ca9565b38610dc0565b6111bd915060203d6020116110b2576110a38183612ca9565b38610d81565b6111dd91955060203d6020116110b2576110a38183612ca9565b9338610d42565b6111fe91945060203d6020116110b2576110a38183612ca9565b9238610d02565b61121f91935060203d6020116110b2576110a38183612ca9565b9138610cc2565b61124091925060203d6020116110b2576110a38183612ca9565b9038610c82565b61126191935060203d6020116110b2576110a38183612ca9565b9138610c42565b61128291925060203d6020116110b2576110a38183612ca9565b9038610c02565b346103ff576040806003193601126103ff576024356112a6615a16565b1561146c576112b433615a9b565b8015611458575b15611448576000916112d7610bb784546001600160a01b031690565b815180917f447aa30400000000000000000000000000000000000000000000000000000000825281600460209485935afa9081156110b957859161142b575b5084916004355b85811115611329578680f35b8451828101828152819003808252601f199161135a9161134c9060200182612ca9565b61135461568b565b86615d3b565b61136e83600052601a602052604060002090565b55875b6008811061138957505061138490613e89565b61131d565b8651848101848152602081018390526113c191906113b39082906040015b03858101835282612ca9565b6113bb6156c4565b87615d3b565b81156113ff575b906113fa916113f4826113e5876000526016602052604060002090565b90600052602052604060002090565b55613e89565b611371565b959061140e6113fa9288613c82565b61142285600052601d602052604060002090565b559050856113c8565b6114429150823d84116110b2576110a38183612ca9565b38611316565b6004825163ea8e4eb560e01b8152fd5b50336001600160a01b0360055416146112bb565b60048251634ee2123760e11b8152fd5b60e0810192916000915b6007831061149357505050565b600190825181526020809101920192019190611486565b346103ff5760203660031901126103ff576107176004356116046115f4604051926114d484612c8d565b60e03685376115006114f0826000526017602052604060002090565b6001600052602052604060002090565b54845261152a61151a826000526017602052604060002090565b6002600052602052604060002090565b546020850152611557611547826000526017602052604060002090565b6003600052602052604060002090565b546040850152611584611574826000526017602052604060002090565b6004600052602052604060002090565b5460608501526115b16115a1826000526017602052604060002090565b6005600052602052604060002090565b5460808501526115de6115ce826000526017602052604060002090565b6006600052602052604060002090565b5460a08501526000526017602052604060002090565b6007600052602052604060002090565b5460c08201526040519182918261147c565b346103ff5760003660031901126103ff5760206001600160a01b0360005416604051908152f35b346103ff5761164b366105a7565b611653613b8b565b61071761169e611672611664613949565b61166c613961565b33615cae565b6116be611688611680613949565b61166c61399a565b6001600160a01b039386851693851684146139d3565b836116b6610bb782600054166001600160a01b031690565b911614613a1e565b6116c9811515614408565b6116e6846001600160a01b03166000526012602052604060002090565b54158015611a6d575b6116f890614453565b611720611718866001600160a01b03166000526012602052604060002090565b54151561449e565b6117566005610629611745886001600160a01b03166000526012602052604060002090565b546000526015602052604060002090565b6040517f880cdc310000000000000000000000000000000000000000000000000000000060208201526001600160a01b03861660248201529092906117af9080604481015b039461076b601f1996878101845283612ca9565b506117d8610bb760046106296117458a6001600160a01b03166000526012602052604060002090565b6119fa575b6117fa866001600160a01b03166000526012602052604060002090565b54611818866001600160a01b03166000526012602052604060002090565b556118698561184e61183d896001600160a01b03166000526012602052604060002090565b546000526013602052604060002090565b906001600160a01b03166001600160a01b0319825416179055565b6118ab33600461188f611745896001600160a01b03166000526012602052604060002090565b01906001600160a01b03166001600160a01b0319825416179055565b8516141590816119d5575b6118d3846001600160a01b03166000526012602052604060002090565b54936118ee6005610629876000526015602052604060002090565b9561192a61191d600261190b896000526015602052604060002090565b01546000526013602052604060002090565b546001600160a01b031690565b93611967575b50505061193d6001601155565b60405193849384916040919493606084019584526001600160a01b03809216602085015216910152565b61076b6119cc936119806009546001600160a01b031690565b6040517fe3d1d5bf0000000000000000000000000000000000000000000000000000000060208201526001600160a01b039485166024820152949093166044850152836064810161075f565b50388080611930565b60006119f4866001600160a01b03166000526012602052604060002090565b556118b6565b611a67611a2260046106296117458a6001600160a01b03166000526012602052604060002090565b6040517f0399c93c0000000000000000000000000000000000000000000000000000000060208201523360248201529061076b82604481015b03878101845283612ca9565b506117dd565b5084821681146116ef565b346103ff5760203660031901126103ff576004356000526015602052602060ff600160406000200154166040519015158152f35b346103ff5760203660031901126103ff5760043560005260156020526020600360406000200154604051908152f35b346103ff5760203660031901126103ff57600435600052601560205260206001600160a01b0360046040600020015416604051908152f35b346103ff5760003660031901126103ff576020601f54604051908152f35b346103ff5760203660031901126103ff57600435611b4e81610404565b6001600160a01b0390811660009081526012602090815260408083205483526015825280832060020154808452601383529281902054815193845290931690820152f35b346103ff5760203660031901126103ff5760043580600052601560205260406000205460136020526107176001600160a01b0380604060002054169360156020526040600020916004600284015493015416611bfd6005610629846000526015602052604060002090565b906003611c35611c246001611c1c876000526015602052604060002090565b015460ff1690565b946000526015602052604060002090565b01549360405197889788939160c09591989796939260e086019986526001600160a01b03938480931660208801526040870152166060850152166080830152151560a08201520152565b346103ff5760203660031901126103ff576001600160a01b03600435611ca481610404565b1660005260126020526040600020546000526015602052602060ff600160406000200154166040519015158152f35b346103ff57611ce1366105a7565b90611cea615a16565b156107a657611cf833615a9b565b8015611ec3575b156107815781611d1691611d11613b8b565b614013565b611d2f6005610629836000526015602052604060002090565b9160405190611dd4611dce611d8e611d8085611d5f6020968783019190916001600160a01b036020820193169052565b0395611d73601f1997888101835282612ca9565b611d7b613bc6565b615ba7565b848082518301019101613bff565b6040517f654c668e0000000000000000000000000000000000000000000000000000000086820152602481019290925260448201529081606481016113a7565b85615da9565b50611dde836143a6565b611e24611e16611dfd6005610629876000526015602052604060002090565b6040519061068a82611a5b878201906000602083019252565b828082518301019101613aed565b5050506001600160a01b03611e4d600561062960026106d0896000526015602052604060002090565b1615159081611eb9575b50611e69575b50506106fd6001601155565b611eb19161076b611e8e600561062960026106d0896000526015602052604060002090565b91630711e58760e41b604051948501528361075f60248201906001602083019252565b503880611e5d565b9050151538611e57565b50336001600160a01b036005541614611cff565b346103ff5760003660031901126103ff576020601454604051908152f35b346103ff5760203660031901126103ff576001600160a01b03600435611f1a81610404565b1660005260126020526020604060002054604051908152f35b346103ff576020806003193601126103ff5760043590611f51613b8b565b6001611f73611f6e82611c1c866000526015602052604060002090565b61435b565b611f9b611f93336001600160a01b03166000526012602052604060002090565b5484146144e9565b611faf83600052601e602052604060002090565b9281840192611fc7611fc2855460ff1690565b61471d565b611fcf613c45565b600594611fea86610629856000526015602052604060002090565b9560409161202a61201c845180612008888201906000602083019252565b039a61068a601f199c8d8101845283612ca9565b858082518301019101613aed565b50505090612044612040895460ff9060081c1690565b1590565b156122ed575060029561206e87612065886000526015602052604060002090565b015415156147b3565b6000815b612198575b505092849261076b61213299631867546560e21b6120e786888c826121219c60009f9e6120c16120fe9d610629866106d06001600160a01b03956000526015602052604060002090565b161515908161218e575b5061213c575b5050610629906000526015602052604060002090565b93519485015260016024850152836044810161075f565b5084546121119060081c60ff168261484b565b6000526015602052604060002090565b0155805461ff001916610100179055565b6100166001601155565b61062961215a926106d0612185956000526015602052604060002090565b8751630711e58760e41b8a820152600060248201529061076b82604481015b03888101845283612ca9565b50888b826120d1565b90501515386120cb565b6003806121b38a6106d08b6000526015602052604060002090565b01548210156122e757876121ed6121e384846121dd8e6106d0876000526015602052604060002090565b0161421a565b90549060031b1c90565b1461220257506121fc90613e89565b81612072565b8795925099631867546560e21b6120e786888c6121329f996121219c9960009f9e8c6122b361076b9b6120fe9f6122806121e38661227a846122738d6106d061229a98612261836122d19f6106d0906000526015602052604060002090565b01956000526015602052604060002090565b0154613c73565b9061421a565b91846121dd8a6106d08d6000526015602052604060002090565b90919082549060031b91821b91600019901b1916179055565b6122cb856106d0886000526015602052604060002090565b016147fe565b999c505050509650505099508194969750612077565b50612077565b8596506123ee838787631867546560e21b946123b86123b26124169f989e6104e59f9a61076b9b6124059f6002612331612339926000526015602052604060002090565b015415614768565b61237388600361236d895480600261235b866000526015602052604060002090565b01556000526015602052604060002090565b01614237565b8554906001600160a01b0361239684610629856000526015602052604060002090565b16151590816124e8575b506124a1575b50505460081c60ff1690565b8461484b565b6123d4610bb76004610629866000526015602052604060002090565b61241b575050610629906000526015602052604060002090565b93519485015260006024850152836044810161075f565b50600052601e602052604060002090565b612132565b61076b7f1499c592000000000000000000000000000000000000000000000000000000009261217961247761191d61246560046106296124989a6000526015602052604060002090565b95546000526013602052604060002090565b8c51958693840152602483019190916001600160a01b036020820193169052565b508887386120d1565b6124e0916106296124bc926000526015602052604060002090565b8d51630711e58760e41b88820152600160248201529061076b8d836044810161075f565b5086386123a6565b90501515386123a0565b346103ff576040806003193601126103ff5760043561250f613b8b565b61252b611f6e6001611c1c846000526015602052604060002090565b61255161254a610bb76004610629856000526015602052604060002090565b331461463c565b612559613c45565b6107176101006125786005610629856000526015602052604060002090565b61269c601f549486805193826125df6125d16020977f02a085f200000000000000000000000000000000000000000000000000000000898201528061179b60249d8e803590840160209093929193604081019481520152565b878082518301019101614bb9565b988951926125f2888c0194855190613b7e565b978b6126038782019a8b5190613b7e565b6126136060830191825190613b7e565b906126246080840192835190613b7e565b97868a8961263860a088019c8d5190613b7e565b9661265161264c60c08301998a5190613b7e565b615610565b88815161288b575b50509091508251612812575b50505080516127a8575b50805161273e575b506126858651825190613b7e565b6126c1575b5050505050505060e086015190614cea565b51920151926126ab6001601155565b5191825260208201929092529081906040820190565b6127319663a9059cbb60e01b9661076b9561270c61075f9461270261191d6126f1600f546001600160a01b031690565b9b6000526013602052604060002090565b9351905190613b7e565b92519889958601528401602090939291936001600160a01b0360408201951681520152565b508638828180808061268a565b6127a1906127546010546001600160a01b031690565b61076b61276e61191d8a6000526013602052604060002090565b92518b5163a9059cbb60e01b888201526001600160a01b0390941689850190815260208101919091528390604001611a5b565b5038612677565b61280b906127be600c546001600160a01b031690565b61076b6127d861191d8b6000526013602052604060002090565b92518c5163a9059cbb60e01b898201526001600160a01b039094168a850190815260208101919091528390604001612179565b503861266f565b61076b6128829361287661284561191d612834600e546001600160a01b031690565b956000526013602052604060002090565b9151945194859263a9059cbb60e01b8c8501528d8401602090939291936001600160a01b0360408201951681520152565b03898101845283612ca9565b50388988612665565b6128ef63a9059cbb60e01b9461076b936128fb976128c861191d6128b7600d546001600160a01b031690565b986000526013602052604060002090565b915192519788958601528401602090939291936001600160a01b0360408201951681520152565b038a8101845283612ca9565b508f8a89899288612659565b346103ff5760403660031901126103ff57600435602435612926615a16565b156107a65761293433615a9b565b8015612a1d575b15610781576129f36121329261294f613b8b565b80600052601560205261296e611f6e600160406000200160ff90541690565b61298f61298a6001611c1c866000526015602052604060002090565b614687565b6129e36129d96106986129b16005610629886000526015602052604060002090565b6040519061068a826129cb60208201906000602083019252565b03601f198101845283612ca9565b5050501515613b0f565b600052601e602052604060002090565b906001820191612a0f612a0a612040855460ff1690565b6146d2565b55805460ff19166001179055565b50336001600160a01b03600554161461293b565b346103ff5760403660031901126103ff57600435602435612a50613b8b565b612a6c611f6e6001611c1c856000526015602052604060002090565b612a90612a89610bb761191d856000526013602052604060002090565b33146144e9565b612ac2612aac6005610629856000526015602052604060002090565b612ab4614534565b612abc613936565b91615bd1565b9080612ad860209384808251830101910161456d565b1015612ae8576100166001601155565b82612bbf6001600160a01b03927ff526f68a0000000000000000000000000000000000000000000000000000000094612bb3612b9861191d612b83612b75612b59612b456005610629612bc59f6000526015602052604060002090565b976040519182918983019190602083019252565b0397612b6d601f19998a8101845283612ca9565b61069261457c565b8580825183010191016145b5565b99925050506000526013602052604060002090565b612ba0613949565b9060405198899485015260248401614600565b03908101855284612ca9565b16615da9565b50388080612132565b346103ff5760203660031901126103ff576020600435612bed81610404565b6001600160a01b03809116600052601282526040600020546000526015825260056040600020015416604051908152f35b634e487b7160e01b600052604160045260246000fd5b6060810190811067ffffffffffffffff821117612c5057604052565b612c1e565b6040810190811067ffffffffffffffff821117612c5057604052565b6020810190811067ffffffffffffffff821117612c5057604052565b60e0810190811067ffffffffffffffff821117612c5057604052565b90601f8019910116810190811067ffffffffffffffff821117612c5057604052565b604051906101e0820182811067ffffffffffffffff821117612c5057604052565b346103ff576101003660031901126103ff5736604312156103ff57604051612d1381612c8d565b610104813682116103ff576024905b828210612d3557610016846004356152d7565b8135815260209182019101612d22565b346103ff5760403660031901126103ff57600435600052601660205260406000206024356000526020526020604060002054604051908152f35b346103ff5760203660031901126103ff5760043560005260156020526020600260406000200154604051908152f35b346103ff5760403660031901126103ff5760043560005260156020526020612ddf602435600360406000200161421a565b90549060031b1c604051908152f35b346103ff5760003660031901126103ff5760206001600160a01b0360015416604051908152f35b346103ff5760403660031901126103ff57602435612e31615a16565b156107a657612e3f33615a9b565b8015612e77575b1561078157600090808252601c6020526040822054906004358201809211610a81578252601c602052604082205580f35b50336001600160a01b036005541614612e46565b346103ff5760203660031901126103ff57600435600052601d6020526020604060002054604051908152f35b346103ff5760003660031901126103ff576020612f1b6001600160a01b0360065416604051612ee581612c55565b601381527f67657464656c656761746f72436f756e7428290000000000000000000000000084820152604051916109c183612c71565b604051908152f35b610100810192916000915b60088310612f3b57505050565b600190825181526020809101920192019190612f2e565b346103ff5760203660031901126103ff5761071760043561305f6115f4612f77615593565b92612f9e612f8f826000526016602052604060002090565b60008052602052604060002090565b548452612fb86114f0826000526016602052604060002090565b546020850152612fd561151a826000526016602052604060002090565b546040850152612ff2611547826000526016602052604060002090565b54606085015261300f611574826000526016602052604060002090565b54608085015261302c6115a1826000526016602052604060002090565b5460a08501526130496115ce826000526016602052604060002090565b5460c08501526000526016602052604060002090565b5460e082015260405191829182612f23565b346103ff5760203660031901126103ff57602061309860043561309381610404565b615a9b565b6040519015158152f35b346103ff5761316f6130b3366105a7565b906130bc613b8b565b6131056130ca611664613949565b6130d5611680613949565b906130ee6001600160a01b0391828088169116146139d3565b6116b6610bb782600054166001600160a01b031690565b61313261312d6001611c1c611745856001600160a01b03166000526012602052604060002090565b613a69565b6131606129d96106986129b16005610629611745876001600160a01b03166000526012602052604060002090565b613168613c15565b33906140ea565b613188612f8f601f546000526016602052604060002090565b6131928154613b70565b905561319c61563c565b6131b56005610629836000526015602052604060002090565b906106fd6001601155565b346103ff5760203660031901126103ff576131d9615a16565b156107a6576131e733615a9b565b8015613222575b15610781576131fb615b25565b601f5410613212575b610016600435601f54613c8f565b61321a615b25565b601f55613204565b50336001600160a01b0360055416146131ee565b346103ff5760203660031901126103ff57600435613252615a16565b156107a6576001600160a01b036005541633036107815760009060046020613284610bb785546001600160a01b031690565b604051928380927f46f991ac0000000000000000000000000000000000000000000000000000000082525afa80156110b95783808481949382948391613326575b505af16132d0615b77565b50156108f6577fcdcc745fe377b103b45fa0cec23ae3ef93d6fc6a84a01f0d18c40b354dd1d5d861332061330f610bb7600b546001600160a01b031690565b604051938452929081906020820190565b0390a280f35b61333e915060203d81116110b2576110a38183612ca9565b386132c5565b346103ff5760203660031901126103ff57600435600052601b6020526020604060002054604051908152f35b346103ff5760203660031901126103ff5760043561338d81610404565b803b600061339a8261391a565b926133a86040519485612ca9565b82845260208401903c602d8151106133cc57602a602091015160601c604051908152f35b60046040517fbaf3f0f7000000000000000000000000000000000000000000000000000000008152fd5b60403660031901126103ff5760043561340d613b8b565b600090808252601560205261342b60ff60016040852001541661435b565b8152601560205261346c6001600160a01b036005604084200154166040519063d3abb8a360e01b602083015260243560248301526024825261076b82612c34565b50600160115580f35b346103ff5760203660031901126103ff5761349560043561094a81610404565b6001600160a01b038116156109da576108e4610717916040516134b781612c55565b600881527f69734c6f636b28290000000000000000000000000000000000000000000000006020820152604051916134ee83612c71565b60008352615cff565b346103ff5760403660031901126103ff57600435600052601860205260406000206024356000526020526020604060002054604051908152f35b346103ff5760c03660031901126103ff5761213260043560243561355481610404565b60643591608435613563613b8b565b61357f611f6e6001611c1c856000526015602052604060002090565b61359e61254a610bb76004610629866000526015602052604060002090565b6135a6613c45565b6135af816155b8565b6135b8846155e4565b6136e06136536135d76005610629866000526015602052604060002090565b601f546040517fa6630304000000000000000000000000000000000000000000000000000000006020808301919091526001600160a01b03989098166024820152604480359082015260648101899052608481019590955260a480359086015260c4808601919091528452601f1995939061076b60e483612ca9565b61369961368b6136726005610629886000526015602052604060002090565b6040519061068a826128ef898201906000602083019252565b848082518301019101613aed565b5050506001600160a01b036136c2600561062960026106d08a6000526015602052604060002090565b1615159081613793575b50613748575b828082518301019101613bff565b9390806136f0575b50505061500c565b61076b63a9059cbb60e01b9261373f9461075f613715600b546001600160a01b031690565b946040519687938401523360248401602090939291936001600160a01b0360408201951681520152565b503880806136e8565b61378d613769600561062960026106d0896000526015602052604060002090565b604051630711e58760e41b86820152600160248201529061076b8260448101612876565b506136d2565b905015386136cc565b346103ff5760203660031901126103ff5760206130986004356137be81610404565b6001600160a01b038060065416906040519216848301528382526137e182612c55565b604051906137ee82612c55565b601882527f697364656c656761746f724e6f6465286164647265737329000000000000000085830152615cff565b346103ff5760003660031901126103ff576020613098615a16565b346103ff5760203660031901126103ff57600435600052601a6020526020604060002054604051908152f35b346103ff5760203660031901126103ff57600435600052601c6020526020604060002054604051908152f35b346103ff576040806003193601126103ff576001600160a01b036004356138b581610404565b166000818152601260208181528483205483526019815284832054938352908152838220548252601881528382206024358352815290839020549251918252810191909152604090f35b346103ff5760003660031901126103ff576020612f1b615b25565b67ffffffffffffffff8111612c5057601f01601f191660200190565b6040519061394382612c71565b60008252565b60405161395581612c71565b60008152906000368137565b6040519061396e82612c55565b600782527f6f776e65722829000000000000000000000000000000000000000000000000006020830152565b604051906139a782612c55565b600c82527f67657448657862617365282900000000000000000000000000000000000000006020830152565b156139da57565b606460405162461bcd60e51b815260206004820152601760248201527f6e65737465642e696e76616c69642e696e7374616e63650000000000000000006044820152fd5b15613a2557565b606460405162461bcd60e51b815260206004820152601660248201527f6e65737465642e696e76616c69642e68657862617365000000000000000000006044820152fd5b15613a7057565b606460405162461bcd60e51b815260206004820152601860248201527f6e65737465642e706172656e742e6e6f742e65786973747300000000000000006044820152fd5b60405190613ac182612c55565b601282527f6765744e6f64654c422875696e743235362900000000000000000000000000006020830152565b91908260809103126103ff578151916020810151916060604083015192015190565b15613b1657565b606460405162461bcd60e51b815260206004820152601960248201527f6e65737465642e706172656e742e6e6f2e627573696e657373000000000000006044820152fd5b634e487b7160e01b600052601160045260246000fd5b9060018201809211610a8157565b91908201809211610a8157565b600260115414613b9c576002601155565b60046040517f3ee5aeb5000000000000000000000000000000000000000000000000000000008152fd5b60405190613bd382612c55565b601582527f676574436c61696d496e666f28616464726573732900000000000000000000006020830152565b91908260409103126103ff576020825192015190565b613c1d615b25565b601f5410613c35575b613c336005601f54613c8f565b565b613c3d615b25565b601f55613c26565b613c4d615b25565b601f5410613c63575b613c336002601f54613c8f565b613c6b615b25565b601f55613c56565b600019810191908211610a8157565b91908203918211610a8157565b90613ca7612f8f836000526016602052604060002090565b541580613e34575b80613e2b575b613cbd575050565b613cd990613cd3613ccd84613c73565b91613c73565b90613c8f565b613cf8612f8f613ce883613c73565b6000526016602052604060002090565b54613d10612f8f836000526016602052604060002090565b55613d206114f0613ce883613c73565b54613d386114f0836000526016602052604060002090565b55613d4861151a613ce883613c73565b54613d6061151a836000526016602052604060002090565b55613d70611547613ce883613c73565b54613d88611547836000526016602052604060002090565b55613d98611574613ce883613c73565b54613db0611574836000526016602052604060002090565b55613dc06115a1613ce883613c73565b54613dd86115a1836000526016602052604060002090565b55613de86115ce613ce883613c73565b54613e006115ce836000526016602052604060002090565b55613e286115f4613e166115f4613ce885613c73565b54926000526016602052604060002090565b55565b50801515613cb5565b5060018211613caf565b15613e4557565b606460405162461bcd60e51b815260206004820152601560248201527f6e65737465642e616c72656164792e65786973747300000000000000000000006044820152fd5b6000198114610a815760010190565b613f3c91613f4261400f92613ed3613ece6120406001611c1c611745886001600160a01b03166000526012602052604060002090565b613e3e565b613ee6613ee1601454613e89565b601455565b601454948591613f048561184e856000526013602052604060002090565b82613f22866001600160a01b03166000526012602052604060002090565b556001600160a01b03166000526012602052604060002090565b5461425f565b613f6c6004613f5b856000526015602052604060002090565b016001600160a01b03198154169055565b613f9f613f89613f846008546001600160a01b031690565b614184565b600561188f866000526015602052604060002090565b613fb86005610629856000526015602052604060002090565b61076b613fd0610bb76000546001600160a01b031690565b60405163134bd3bd60e11b60208201526001600160a01b0391821660248201529316604484015260648301859052600160848401528260a481016129cb565b5090565b613f3c9161404961400f92613ed3613ece6120406001611c1c611745886001600160a01b03166000526012602052604060002090565b6140626004613f5b856000526015602052604060002090565b61407a613f89613f846008546001600160a01b031690565b6140936005610629856000526015602052604060002090565b61076b6140ab610bb76000546001600160a01b031690565b60405163134bd3bd60e11b60208201526001600160a01b0391821660248201529316604484015260648301859052600060848401528260a481016129cb565b91613f6c61400f9261416e613f3c95614124613ece6120406001611c1c6117458a6001600160a01b03166000526012602052604060002090565b614132613ee1601454613e89565b6014549687916141508761184e856000526013602052604060002090565b82613f22886001600160a01b03166000526012602052604060002090565b600461188f866000526015602052604060002090565b6e5af43d82803e903d91602b57fd5bf390763d602d80600a3d3981f3363d3d373d3d3d363d7300000062ffffff8260881c161760005260781b17602052603760096000f0906001600160a01b038216156141da57565b60046040517fb06ebf3d000000000000000000000000000000000000000000000000000000008152fd5b634e487b7160e01b600052603260045260246000fd5b80548210156142325760005260206000200190600090565b614204565b9081549168010000000000000000831015612c50578261229a916001613c339501815561421a565b919091600092808452602091601583526040808620956002948386890155846001986142948a8201600160ff19825416179055565b55876142aa866000526018602052604060002090565b83805282528489858520555b6142c557505050505050509050565b614333614322828b8a941461433c575b6142e9886000526018602052604060002090565b81875285528686206142fb8154613b70565b9055614311886000526019602052604060002090565b61431b8154613b70565b9055613e89565b956000526015602052604060002090565b015493846142b6565b61435689600361236d8b6000526015602052604060002090565b6142d5565b1561436257565b606460405162461bcd60e51b815260206004820152601560248201527f6e65737465642e757365722e6e6f7461637469766500000000000000000000006044820152fd5b8060005260156020526143c360ff6001604060002001541661435b565b60005260156020526144056001600160a01b03600560406000200154166040519063d3abb8a360e01b6020830152600160248301526024825261076b82612c34565b50565b1561440f57565b606460405162461bcd60e51b815260206004820152601360248201527f6e65737465642e7a65726f2e61646472657373000000000000000000000000006044820152fd5b1561445a57565b606460405162461bcd60e51b815260206004820152601460248201527f6e65737465642e7461726765742e6578697374730000000000000000000000006044820152fd5b156144a557565b606460405162461bcd60e51b815260206004820152601760248201527f6e65737465642e736f757263652e6e6f744578697374730000000000000000006044820152fd5b156144f057565b606460405162461bcd60e51b815260206004820152601560248201527f6e65737465642e696e76616c69642e73656e64657200000000000000000000006044820152fd5b6040519061454182612c55565b600b82527f6d696e74436f756e7428290000000000000000000000000000000000000000006020830152565b908160209103126103ff575190565b6040519061458982612c55565b600e82527f6d696e74732875696e74323536290000000000000000000000000000000000006020830152565b91908260809103126103ff57815191602081015191606060408301519201516105cc81610404565b60005b8381106145f05750506000910152565b81810151838201526020016145e0565b90916001600160a01b036060931682526040602083015261463081518092816040860152602086860191016145dd565b601f01601f1916010190565b1561464357565b606460405162461bcd60e51b815260206004820152601b60248201527f6e65737465642e757365722e696e76616c6964696e7374616e636500000000006044820152fd5b1561468e57565b606460405162461bcd60e51b815260206004820152601560248201527f6e65737465642e696e76616c69642e706172656e7400000000000000000000006044820152fd5b156146d957565b606460405162461bcd60e51b815260206004820152601760248201527f6e65737465642e7265712e616c726561647965786973740000000000000000006044820152fd5b1561472457565b606460405162461bcd60e51b815260206004820152601460248201527f6e65737465642e7265712e6e6f746578697374730000000000000000000000006044820152fd5b1561476f57565b606460405162461bcd60e51b815260206004820152601860248201527f6e65737465642e757365722e6e6f742e646574616368656400000000000000006044820152fd5b156147ba57565b606460405162461bcd60e51b815260206004820152601c60248201527f6e65737465642e757365722e616c72656164792e6465746163686564000000006044820152fd5b80549081156148285760001991820191614818838361421a565b909182549160031b1b1916905555565b634e487b7160e01b600052603160045260246000fd5b8015610a81576000190190565b90614869614863836000526019602052604060002090565b54613b70565b9160029081614882826000526015602052604060002090565b0154906001938492835b61489a575b50505050505050565b600f8085111580614bb0575b15614baa57859060056148ca610bb782610629876000526015602052604060002090565b6148f7575b50506148e86148f0926000526015602052604060002090565b015493613e89565b928561488c565b865b828111156149f2575050506148e86148f0928460001461498f5761494161492a876000526018602052604060002090565b61493389613c73565b600052602052604060002090565b5461496561495d896113e5856000526018602052604060002090565b918254613b7e565b905561497b816000526019602052604060002090565b6149868b8254613b7e565b90555b926148cf565b6149a661492a876000526018602052604060002090565b546149ca6149c2896113e5856000526018602052604060002090565b918254613c82565b90556149e0816000526019602052604060002090565b6149eb8b8254613c82565b9055614989565b90919250614a0e82610629886000526015602052604060002090565b614a188883613c82565b60409187614a4c61368b855180614a386020978883019190602083019252565b039461068a601f1996878101845283612ca9565b50509290878a821580614ba2575b614b915792614ae2949261075f614a8761076b94610629614aef9b9a986000526015602052604060002090565b94601f9a8c8c5491519889957f7b058ac1000000000000000000000000000000000000000000000000000000008d8801526024870193909594919260809360a086019786526020860152604085015260608401521515910152565b8051810182019101613bff565b908715614b47575b808211614b1457505050614b0b905b613e89565b908792916148f9565b614b1d90613e89565b614b36816113e585546000526016602052604060002090565b614b408154613b70565b9055614af7565b9190915b828111614b5e57505050614b0b90613e89565b80614b7b614b8c926113e585546000526016602052604060002090565b614b858154613c73565b905561483e565b614b4b565b5050505050505050614b0b90613e89565b508515614a5a565b50614891565b508115156148a6565b9061012080838303126103ff5781601f840112156103ff576040519281840184811067ffffffffffffffff821117612c5057604052839181019283116103ff57905b828210614c085750505090565b8151815260209182019101614bfb565b60405190614c2582612c55565b600f82527f66726565496e74657276616c73282900000000000000000000000000000000006020830152565b60405190614c5e82612c55565b601582527f67657452616e6b5769746841676556616c7565282900000000000000000000006020830152565b60405190614c9782612c55565b601382527f72616e6b436c617573652875696e7432353629000000000000000000000000006020830152565b908160a09103126103ff578051916020820151916040810151916080606083015192015190565b919091600392614d1b614d0485546001600160a01b031690565b614d0c613949565b90614d15614c18565b90615d3b565b9360008092819082948392849185985b600f8a111580615003575b15614ff5576005614d58610bb782610629856000526015602052604060002090565b614d85575b506002614d77614d7f926000526015602052604060002090565b015499613e89565b98614d2b565b8c614da9614da183610629866000526015602052604060002090565b612ab4614c51565b8c614dbe602092838082518301019101613bff565b829591951580614f8c575b1580614f83575b8015614f7b575b614de6575b5050505050614d5d565b869e8697929394959603614eba575b50614e77928b61076b8c6129cb614e21614e7d9997610629614e6a986000526015602052604060002090565b93601f9a8b5460405197889563208bffb160e21b8c8801526024870193909594919260a09360c08601978652600060208701526040860152606085015260808401521515910152565b805181018201910161456d565b92613b70565b80831015614e9857509098905060028c614d7f8c3880614ddc565b80614311614eb5926113e585546000526016602052604060002090565b614e7d565b9193929a50508a8511614f0d575b509087918c86861080801591614ee4575b50159a929193614df5565b89881015915081614f05575b5080614efd575b38614ed9565b508815614ef7565b905038614ef0565b995095509350859250614f5c614f4e614f2d8b546001600160a01b031690565b60405190614f46826129cb888c83019190602083019252565b610692614c8a565b868082518301019101614cc3565b969350909691509594614f72859b601f54613c82565b11969091614ec8565b506000614dd7565b508a1515614dd0565b99509b50955095509a50614fd5614fc7838d614f46614fb28f546001600160a01b031690565b604051928301938452919283906020016129cb565b8c8082518301019101614cc3565b9e9350909791509695849b859e614fee82601f54613c82565b1199614dc9565b505050505050505050509050565b50801515614d36565b90929192615025614d046003546001600160a01b031690565b93600091829083809481938280985b600f8a1115806152ce575b15614ff557615060610bb76005610629846000526015602052604060002090565b615084575b6002614d7761507e926000526015602052604060002090565b98615034565b8b8a6150b46150a5614da16005610629876000526015602052604060002090565b60208082518301019101613bff565b8293919315615271575b82151580615268575b801561525f575b6150dc575b50505050615065565b938394819d8d9495036151a9575b5061517092614e779261076b8c6129cb8f6151176005610629615161996000526015602052604060002090565b94601f9a8b549060405198899663208bffb160e21b60208901526024880194919260a0949197969360c0870198875260208701526040860152606085015260808401521515910152565b6020808251830101910161456d565b8083101561518757509098905060028a8d386150d3565b806143116151a4926113e585546000526016602052604060002090565b615170565b9350505097508282116151fb575b50898c878b868510808015916151d2575b50159a92916150ea565b898710159150816151f3575b50806151eb575b386151c8565b5088156151e5565b9050386151de565b9350935050506152426152336152196003546001600160a01b031690565b60405190614f46826129cb88602083019190602083019252565b60208082518301019101614cc3565b93509093915092916152578592601f54613c82565b1193386151b7565b508b15156150ce565b508915156150c7565b975050509350975050506152ad6152336152936003546001600160a01b031690565b60405190614f46826129cb87602083019190602083019252565b999350909391509291818a8d829b6152c789601f54613c82565b11976150be565b5080151561503f565b6152df615a16565b156107a6576152ed33615a9b565b80156153f0575b1561078157615301613c45565b61530c811515615404565b6153296153216003546001600160a01b031690565b612ab461544f565b61533d602091828082518301019101615488565b9261535283600052601a602052604060002090565b549160005b6007811061536757505050505050565b806153756153e39285615505565b5115614b06576153858188615505565b518051908482156153e8576153ac6153bd916153a46153c3958b615527565b930151615516565b6153b68589615505565b5190615527565b9061553a565b6113f46153da886000526017602052604060002090565b61493384613b70565b615357565b505050613e89565b50336001600160a01b0360055416146152f4565b1561540b57565b606460405162461bcd60e51b815260206004820152601260248201527f6e65737465642e696e76616c69642e61676500000000000000000000000000006044820152fd5b6040519061545c82612c55565b601882527f6765744261746368526f79616c7479436c6175736573282900000000000000006020830152565b6102a09081818403126103ff5782601f820112156103ff5760408051936154ae85612c8d565b84938301928184116103ff57935b8385106154cb57505050505090565b6060858303126103ff5782516060916154e382612c34565b86518252602091828801518382015285880151868201528152019401936154bc565b9060078110156142325760051b0190565b9081606402916064830403610a8157565b81810292918115918404141715610a8157565b8115615544570490565b634e487b7160e01b600052601260045260246000fd5b6040519061556782612c55565b600682527f73746f72282900000000000000000000000000000000000000000000000000006020830152565b6040519061010080830183811067ffffffffffffffff821117612c5057604052368337565b601f5480600052601a602052604060002054918201809211610a8157600052601a602052604060002055565b601f5480600052601b602052604060002054918201809211610a8157600052601b602052604060002055565b601f5480600052601c602052604060002054918201809211610a8157600052601c602052604060002055565b601f5480600052601d6020526040600020549060018201809211610a8157600052601d602052604060002055565b908160209103126103ff57516105cc81610404565b6040513d6000823e3d90fd5b6040519061569882612c55565b601482527f676574627573696e6573732875696e74323536290000000000000000000000006020830152565b604051906156d182612c55565b601d82527f67657472616e6b436f756e742875696e743235362c75696e74323536290000006020830152565b6159e26101c0613c339261573761571b82516001600160a01b031690565b6001600160a01b03166001600160a01b03196002541617600255565b61576a61574e60208301516001600160a01b031690565b6001600160a01b03166001600160a01b03196003541617600355565b61579d61578160408301516001600160a01b031690565b6001600160a01b03166001600160a01b03196004541617600455565b6157d06157b460608301516001600160a01b031690565b6001600160a01b03166001600160a01b03196005541617600555565b6158036157e760808301516001600160a01b031690565b6001600160a01b03166001600160a01b03196006541617600655565b61583661581a60a08301516001600160a01b031690565b6001600160a01b03166001600160a01b03196007541617600755565b61586961584d60c08301516001600160a01b031690565b6001600160a01b03166001600160a01b03196008541617600855565b61589c61588060e08301516001600160a01b031690565b6001600160a01b03166001600160a01b03196009541617600955565b6158d06158b46101008301516001600160a01b031690565b6001600160a01b03166001600160a01b0319600a541617600a55565b6159046158e86101208301516001600160a01b031690565b6001600160a01b03166001600160a01b0319600b541617600b55565b61593861591c6101408301516001600160a01b031690565b6001600160a01b03166001600160a01b0319600c541617600c55565b61596c6159506101608301516001600160a01b031690565b6001600160a01b03166001600160a01b0319600d541617600d55565b6159a06159846101808301516001600160a01b031690565b6001600160a01b03166001600160a01b0319600e541617600e55565b6159d46159b86101a08301516001600160a01b031690565b6001600160a01b03166001600160a01b0319600f541617600f55565b01516001600160a01b031690565b6001600160a01b03166001600160a01b03196010541617601055565b908160209103126103ff575180151581036103ff5790565b615a716001600160a01b0360025416604051615a3181612c55565b600881527f6973536166652829000000000000000000000000000000000000000000000000602082015260405191615a6883612c71565b60008352615c6c565b9080615a90575b156108f657806020806105cc935183010191016159fe565b506020815114615a78565b615afe6001600160a01b038060025416604051916020941684830152838252615ac382612c55565b60405190615ad082612c55565b601582527f697353656375726542617365286164647265737329000000000000000000000085830152615c6c565b9080615b1b575b156108f657816105cc92825183010191016159fe565b5081815114615b05565b6105cc6001600160a01b0360035416604051615b4081612c55565b600681527f69416765282900000000000000000000000000000000000000000000000000006020820152604051916109c183612c71565b3d15615ba2573d90615b888261391a565b91615b966040519384612ca9565b82523d6000602084013e565b606090565b90615bb191615bdc565b9060009015615bbe575090565b6040519150615bcc82612c71565b815290565b90615bb19291615c6c565b73c7aff2414b0436ddf2d5d72e582feb8930af67f1803b15615c53576000926001600160e01b03198360208695519101201690615c436024604051809360208201958652615c3381518092602086860191016145dd565b8101036004810184520182612ca9565b51915afa615c4f615b77565b9091565b505050600090604051615c6581612c71565b6000815290565b803b15615c53576000926001600160e01b03198360208695519101201690615c436024604051809360208201958652615c3381518092602086860191016145dd565b9291615cbc91600094615c6c565b9080615cf4575b615cca5750565b9091506020818051810103126103ff5760206001600160a01b03910151615cf081610404565b1690565b506020815114615cc3565b9291615d0d91600094615c6c565b9080615d30575b615d1b5750565b6105cc919250602080825183010191016159fe565b506020815114615d14565b9291615d4991600094615c6c565b9080615d6c575b615d575750565b6105cc9192506020808251830101910161456d565b506020815114615d50565b90602082519201516001600160e01b0319908181169360048110615d9a57505050565b60040360031b82901b16169150565b6001600160a01b03811615615e4457600080918351908260208601915af190615dd0615b77565b9115615dda575090565b805160009190600411615e3e57615df19150615d77565b815115615e015750805190602001fd5b6040517f21c09d340000000000000000000000000000000000000000000000000000000081526001600160e01b0319919091166004820152602490fd5b50615df1565b60046040517fe6c4247b000000000000000000000000000000000000000000000000000000008152fdfea264697066735822122064fed98afc8184327872be23706612c8eb7685bca6c86d174f701df30018c0a264736f6c63430008140033","linkReferences":{}},"methodIdentifiers":{"dAOAssembly()":"14837455","daocore()":"14d8d024","nested741()":"45cff900","old741()":"5540c5ac","price()":"a035b1fe"},"id":114}