{"abi":[{"type":"constructor","inputs":[{"name":"_hex","type":"address","internalType":"address"}],"stateMutability":"nonpayable"},{"type":"function","name":"invalidator","inputs":[],"outputs":[{"name":"","type":"address","internalType":"address"}],"stateMutability":"view"},{"type":"function","name":"rule741","inputs":[],"outputs":[{"name":"","type":"address","internalType":"address"}],"stateMutability":"view"},{"type":"function","name":"transferRequest","inputs":[],"outputs":[{"name":"","type":"address","internalType":"address"}],"stateMutability":"view"}],"bytecode":{"object":"0x6080346200018657601f6200a21b38819003918201601f19168301926001600160401b0392909183851183861017620001705781602092849260409788528339810103126200018657516001600160a01b0390818116908190036200018657835190614450918281019281841086851117620001705762005dcb823981835260208160009403019083f0938415620001665782549484166001600160a01b0319958616178355855161355180820190828210848311176200015257602091839162000298833985815203019084f08015620001485784168560015416176001558551916125e280840192848410908411176200013457918391602093620037e98439815203019082f0908115620001295750169060025416176002555161010c90816200018c8239f35b8451903d90823e3d90fd5b634e487b7160e01b85526041600452602485fd5b86513d85823e3d90fd5b634e487b7160e01b86526041600452602486fd5b85513d84823e3d90fd5b634e487b7160e01b600052604160045260246000fd5b600080fdfe6080806040526004361015601257600080fd5b600090813560e01c9081630a5b38ab1460a4575080633da8676f146072576352b06d6414603e57600080fd5b34606f5780600319360112606f57602073ffffffffffffffffffffffffffffffffffffffff60025416604051908152f35b80fd5b5034606f5780600319360112606f57602073ffffffffffffffffffffffffffffffffffffffff60015416604051908152f35b90503460d2578160031936011260d25773ffffffffffffffffffffffffffffffffffffffff60209254168152f35b5080fdfea26469706673582212201c17bd705671c006b0a3f9bc278d0228fbae97a82e8fa5180fd8b917f8607b2964736f6c63430008140033608034620000a357601f6200355138819003918201601f19168301916001600160401b03831184841017620000a857808492602094604052833981010312620000a357516001600160a01b03811690819003620000a3578015620000915760018060a01b0319338160015416176001556000541617600055600160115560016016556040516134929081620000bf8239f35b60405163e6c4247b60e01b8152600490fd5b600080fd5b634e487b7160e01b600052604160045260246000fdfe60806040526004361015610018575b361561001657005b005b60003560e01c806312065fe0146102185780631480a85b1461021357806318c864e31461020e5780631a59ca26146102095780631f185d1614610204578063339459a6146101ff5780633676bd1f146101fa5780633b9b7955146101f5578063479fa2c3146101f05780634ef260a9146101eb57806355ed5fee146101e657806385301b86146101e15780638d6edc14146101dc5780638da5cb5b146101d757806396970c96146101d2578063a1f7f539146101cd578063ab7e46ae146101c8578063ac233345146101c3578063af484526146101be578063b8f1759a146101b9578063b90306ad146101b4578063c1e6cec2146101af578063c54e44b0146101aa578063c9a29150146101a5578063cab3cc8d146101a0578063e01ad5fd1461019b578063e0a9bc2b14610196578063e846034a14610191578063e981bcad1461018c578063ed6c1b5814610187578063f245fe7a146101825763fdc10bc90361000e576120f9565b611936565b611808565b611763565b611745565b61172a565b61165f565b611641565b6115e1565b61155b565b61151d565b61140f565b6113b5565b611384565b61134c565b6112f2565b61127d565b61123d565b611216565b6111f8565b6110cb565b610f5b565b610eb2565b610de4565b610dbd565b610d5c565b6107fc565b610715565b61050d565b6104bc565b61024a565b3461023457600036600319011261023457602047604051908152f35b600080fd5b6001600160a01b0381160361023457565b34610234576040806003193601126102345760043561026881610239565b60243561027481610239565b6001600160a01b0380831615610457578116156104475761041391926102b76102b0836001600160a01b03166000526012602052604060002090565b5415612114565b61040e6103cc6103b860016102ca61215f565b5080546001600160a01b0319166001600160a01b038a161781550180546001600160a01b0319166001600160a01b038716178155966103866103146004546001600160a01b031690565b86516001600160a01b0384166020808301919091528152601f19989161036b9161035191610343604083611004565b61034b6121ce565b906132bf565b916001600160a01b03166000526013602052604060002090565b906001600160a01b03166001600160a01b0319825416179055565b6103c461039b6004546001600160a01b031690565b86516001600160a01b039093166020840152919283906040820190565b03878101845283611004565b61034b612207565b91517f27071121000000000000000000000000000000000000000000000000000000006020820152600160248201529283604481015b03908101845283611004565b613398565b5061044461042b60145492546001600160a01b031690565b6001600160a01b03166000526012602052604060002090565b55005b6004835163e6c4247b60e01b8152fd5b6004845163e6c4247b60e01b8152fd5b634e487b7160e01b600052603260045260246000fd5b6014548110156104b757601460005260011b7fce6d7b5282bd9a3661ae061feed1dbda4e52ab073b1f9285be6e155d9c38d4ec0190600090565b610467565b3461023457602036600319011261023457600435601454811015610234576104e39061047d565b508054600190910154604080516001600160a01b03938416815292909116602083015290f35b0390f35b34610234576000806003193601126107125761052761232c565b61052f613055565b156106e85761053d336130da565b80156106d4575b156106aa57600480546001600160a01b03166105786105726105646123b2565b61056c6123ca565b84613310565b15612cbe565b602061059a61058e85546001600160a01b031690565b6001600160a01b031690565b604051938480927fde433f170000000000000000000000000000000000000000000000000000000082525afa9081156106a557610664928492610671575b506040517f19aecf65000000000000000000000000000000000000000000000000000000006020820152600060248201526001600160a01b038316604480830191909152815261062d9161040e606483611004565b5061065e61064e826001600160a01b03166000526013602052604060002090565b6001600160a01b03198154169055565b80612c39565b61066e6001601155565b80f35b61062d9192506106979060203d811161069e575b61068f8183611004565b81019061273b565b91906105d8565b503d610685565b612750565b60046040517fea8e4eb5000000000000000000000000000000000000000000000000000000008152fd5b50336001600160a01b036005541614610544565b60046040517f9dc4246e000000000000000000000000000000000000000000000000000000008152fd5b80fd5b34610234576020806003193601126102345761079460043561073681610239565b6001600160a01b0380600254169060405192168483015283825261075982610fb0565b6040519061076682610fb0565b601182527f69735369676e657228616464726573732900000000000000000000000000000085830152613211565b9190806107f2575b156107c85781816107b69261050994518301019101613041565b60405190151581529081906020820190565b60046040517f3204506f000000000000000000000000000000000000000000000000000000008152fd5b508082511461079c565b346102345760003660031901126102345761082261058e6000546001600160a01b031690565b60405190634bf9c0ad60e11b8252602082600481845afa9182156106a557600092610d3b575b506040519163cfbffe5360e01b8352602083600481855afa9283156106a557600093610d1a575b506040519063ab6e844f60e01b8252602082600481865afa9182156106a557600092610cf9575b5060405191630536340960e21b8352602083600481875afa9283156106a557600093610cd8575b506040519263d1f956b160e01b8452602084600481885afa9384156106a557600094610cb7575b5060405193631cc3bfab60e31b8552602085600481895afa9485156106a557600095610c96575b5060405163e09d394d60e01b81526020816004818a5afa9081156106a557600091610c77575b506040516314ac1b5960e21b81526020816004818b5afa9081156106a557600091610c58575b5060405163013cf08b60e01b815260006004820152916020836024818c5afa9283156106a557600093610c37575b5060405197635e09dbe760e01b89526020896004818d5afa9485156106a557600499600096610c16575b5060208b6040519b8c8092635506ee0b60e11b82525afa9687156106a55760049a600098610bf5575b5060208c6040519c8d8092636402742760e01b82525afa9889156106a55760049b60009a610bd4575b5060208d6040519d8e80926330125cf560e01b82525afa9a8b156106a5578d60049d60009d610bb2575b506020906040519e8f80926324768d9160e01b82525afa9c8d156106a55760009d610b91575b50604051809e81906313b92d3560e31b82525a92600491602094fa9d8e156106a55760009e610b70575b50610a84611026565b6001600160a01b0390911681529d8e906001600160a01b0316602082015260400190610ab891906001600160a01b03169052565b6001600160a01b031660608d01526001600160a01b031660808c01526001600160a01b031660a08b01526001600160a01b031660c08a01526001600160a01b031660e08901526001600160a01b03166101008801526001600160a01b03166101208701526001600160a01b03166101408601526001600160a01b03166101608501526001600160a01b03166101808401526001600160a01b03166101a08301526001600160a01b03166101c082015261001690612d40565b610b8a919e5060203d60201161069e5761068f8183611004565b9c38610a7b565b610bab919d5060203d60201161069e5761068f8183611004565b9b38610a51565b6020919d50610bcd90823d841161069e5761068f8183611004565b9c90610a2b565b610bee919a5060203d60201161069e5761068f8183611004565b9838610a01565b610c0f91985060203d60201161069e5761068f8183611004565b96386109d8565b610c3091965060203d60201161069e5761068f8183611004565b94386109af565b610c5191935060203d60201161069e5761068f8183611004565b9138610985565b610c71915060203d60201161069e5761068f8183611004565b38610957565b610c90915060203d60201161069e5761068f8183611004565b38610931565b610cb091955060203d60201161069e5761068f8183611004565b933861090b565b610cd191945060203d60201161069e5761068f8183611004565b92386108e4565b610cf291935060203d60201161069e5761068f8183611004565b91386108bd565b610d1391925060203d60201161069e5761068f8183611004565b9038610896565b610d3491935060203d60201161069e5761068f8183611004565b913861086f565b610d5591925060203d60201161069e5761068f8183611004565b9038610848565b3461023457602036600319011261023457610d7561232c565b610d7d613055565b156106e857610d8b336130da565b8015610da9575b156106aa57610da2600435612930565b6001601155005b50336001600160a01b036005541614610d92565b346102345760003660031901126102345760206001600160a01b0360005416604051908152f35b346102345760203660031901126102345760043580151580610ea6575b15610e62576000198101908111610e5d57610e1b9061047d565b50610e416001610e3283546001600160a01b031690565b9201546001600160a01b031690565b604080516001600160a01b039384168152919092166020820152f35b612240565b606460405162461bcd60e51b815260206004820152601760248201527f70726f706f7365722e696e76616c69642e666f726d69640000000000000000006044820152fd5b50601454811115610e01565b3461023457602036600319011261023457600435610ecf81610239565b6001600160a01b038116600091818352601260205260408320549081151580610f4f575b610efb578380f35b6000198201918211610e5d57610f4892610f1761064e9361047d565b505084526012602052836040812055610f2f816122c6565b6001600160a01b03166000526013602052604060002090565b3880808380f35b50601454821115610ef3565b34610234576000366003190112610234576020601654604051908152f35b634e487b7160e01b600052604160045260246000fd5b60e0810190811067ffffffffffffffff821117610fab57604052565b610f79565b6040810190811067ffffffffffffffff821117610fab57604052565b6020810190811067ffffffffffffffff821117610fab57604052565b6080810190811067ffffffffffffffff821117610fab57604052565b90601f8019910116810190811067ffffffffffffffff821117610fab57604052565b604051906101e0820182811067ffffffffffffffff821117610fab57604052565b8060631215610234576040519061105d82610f8f565b81610124918211610234576044905b8282106110795750505090565b813581526020918201910161106c565b8060c31215610234576040519061109f82610f8f565b816101849182116102345760a4905b8282106110bb5750505090565b81358152602091820191016110ae565b3461023457610120366003190112610234576110e636611047565b6110ee61232c565b6110f6613055565b156106e857611104336130da565b80156111e4575b156106aa57600490602061112a61058e6000546001600160a01b031690565b604051938480926369e8d84b60e11b82525afa9081156106a55761040e610402926111bb946000916111c6575b506040516315ec7fad60e01b6020820152600435602482015261118e9080604481015b039261040e601f1994858101845283611004565b506004546001600160a01b031692604051948591637818cdd760e01b602084015260243560248401612d09565b506100166001601155565b6111de915060203d811161069e5761068f8183611004565b38611157565b50336001600160a01b03600554161461110b565b34610234576000366003190112610234576020601754604051908152f35b346102345760003660031901126102345760206001600160a01b0360015416604051908152f35b3461023457602036600319011261023457602060043561125c81610239565b6001600160a01b038091166000526013825260406000205416604051908152f35b346102345760003660031901126102345760206112ea6001600160a01b03600654166040516112ab81610fb0565b601381527f67657464656c656761746f72436f756e7428290000000000000000000000000084820152604051916112e183610fcc565b60008352613310565b604051908152f35b3461023457602036600319011261023457600435601554811015610234576001600160a01b0360209160156000527f55f448fdea98c4d29eb340757ef0a66cd03dbb9538908a6a81d96026b71ec475015416604051908152f35b3461023457602036600319011261023457602061137360043561136e81610239565b612272565b6001600160a01b0360405191168152f35b346102345760203660031901126102345760206113ab6004356113a681610239565b6130da565b6040519015158152f35b34610234576020366003190112610234576004356015548110156104b7576001600160a01b0360209160156000527f55f448fdea98c4d29eb340757ef0a66cd03dbb9538908a6a81d96026b71ec475015416604051908152f35b346102345760203660031901126102345760043561142b613055565b156106e8576001600160a01b036005541633036106aa576000906004602061145d61058e85546001600160a01b031690565b604051928380927f46f991ac0000000000000000000000000000000000000000000000000000000082525afa80156106a557838084819493829483916114ff575b505af16114a96131b6565b50156107c8577fcdcc745fe377b103b45fa0cec23ae3ef93d6fc6a84a01f0d18c40b354dd1d5d86114f96114e861058e600b546001600160a01b031690565b604051938452929081906020820190565b0390a280f35b611517915060203d811161069e5761068f8183611004565b3861149e565b34610234576020366003190112610234576001600160a01b0360043561154281610239565b1660005260126020526020604060002054604051908152f35b346102345760203660031901126102345760043561157881610239565b803b6000611585826121b2565b926115936040519485611004565b82845260208401903c602d8151106115b757602a602091015160601c604051908152f35b60046040517fbaf3f0f7000000000000000000000000000000000000000000000000000000008152fd5b34610234576060366003190112610234576115fa61232c565b611602613055565b156106e857611610336130da565b801561162d575b156106aa57610da26044356024356004356124c7565b50336001600160a01b036005541614611617565b34610234576000366003190112610234576020601454604051908152f35b346102345760208060031936011261023457610509906004359061168282610239565b6116e66001600160a01b03928360065416936040519116838201528281526116a981610fb0565b6040516116b581610fb0565b601881527f697364656c656761746f724e6f6465286164647265737329000000000000000084820152600094613211565b919080611720575b611707575b505060405190151581529081906020820190565b61171992508082518301019101613041565b38806116f3565b50808251146116ee565b346102345760003660031901126102345760206113ab613055565b34610234576000366003190112610234576020601554604051908152f35b346102345760403660031901126102345761177c61232c565b611784613055565b156106e857611792336130da565b80156117f4575b156106aa576111bb6001600160a01b0360045416604051907f33b59a5b000000000000000000000000000000000000000000000000000000006020830152600435602483015260243560448301526044825261040e82610fe8565b50336001600160a01b036005541614611799565b34610234576101803660031901126102345761182336611089565b61182b61232c565b611833613055565b156106e857611841336130da565b8015611922575b156106aa57600490602061186761058e6000546001600160a01b031690565b604051938480926369e8d84b60e11b82525afa9081156106a55761040e610402926118e894600091611904575b506040516315ec7fad60e01b602082015260643560248201526118bb90806044810161117a565b506004546001600160a01b031692604051948591637818cdd760e01b602084015260843560248401612d09565b506118fa6044356024356004356124c7565b6100166001601155565b61191c915060203d811161069e5761068f8183611004565b38611894565b50336001600160a01b036005541614611848565b34610234576000806003193601126107125761195061232c565b61196461058e82546001600160a01b031690565b604090815191828092634bf9c0ad60e11b8252602093849160049687915afa9081156106a55785916120dc575b506119ca82517f339459a60000000000000000000000000000000000000000000000000000000092838683015286825261040e82610fb0565b5083836119e161058e88546001600160a01b031690565b8451928380926369e8d84b60e11b82525afa80156106a557611a199187916120bf575b50835190838683015286825261040e82610fb0565b508383611a3061058e88546001600160a01b031690565b84519283809263ab6e844f60e01b82525afa80156106a557611a679187916120bf5750835190838683015286825261040e82610fb0565b508383611a7e61058e88546001600160a01b031690565b84519283809263cfbffe5360e01b82525afa80156106a557611ab59187916120bf5750835190838683015286825261040e82610fb0565b508383611acc61058e88546001600160a01b031690565b845192838092630536340960e21b82525afa80156106a557611b039187916120bf5750835190838683015286825261040e82610fb0565b508383611b1a61058e88546001600160a01b031690565b84519283809263d1f956b160e01b82525afa80156106a557611b519187916120bf5750835190838683015286825261040e82610fb0565b508383611b6861058e88546001600160a01b031690565b845192838092631cc3bfab60e31b82525afa80156106a557611b9f9187916120bf5750835190838683015286825261040e82610fb0565b508383611bb661058e88546001600160a01b031690565b84519283809263e09d394d60e01b82525afa80156106a557611bed9187916120bf5750835190838683015286825261040e82610fb0565b508383611c0461058e88546001600160a01b031690565b8451928380926314ac1b5960e21b82525afa80156106a557611c3b9187916120bf5750835190838683015286825261040e82610fb0565b50611c5061058e86546001600160a01b031690565b838351809263013cf08b60e01b82528180611c728a8201906000602083019252565b03915afa80156106a557611c9b9187916120bf5750835190838683015286825261040e82610fb0565b50611cb061058e86546001600160a01b031690565b90825184817fb771c89600000000000000000000000000000000000000000000000000000000948582528180611ced8b8201906000602083019252565b03915afa80156106a557611d179188916120a2575b50845190838783015287825261040e82610fb0565b50611d2c61058e87546001600160a01b031690565b84845180928582528180611d478b8201906001602083019252565b03915afa80156106a557611d709188916120a25750845190838783015287825261040e82610fb0565b50611d8561058e87546001600160a01b031690565b84845180928582528180611da08b8201906002602083019252565b03915afa80156106a557611dc99188916120a25750845190838783015287825261040e82610fb0565b50611dde61058e87546001600160a01b031690565b84845180928582528180611df98b8201906003602083019252565b03915afa80156106a557611e229188916120a25750845190838783015287825261040e82610fb0565b5083611e3861058e88546001600160a01b031690565b92845193849182528180611e538a8201906004602083019252565b03915afa9182156106a5578592611e80918891612085575b50845190838783015284825261040e82610fb0565b5083611e9661058e88546001600160a01b031690565b845193848092635e09dbe760e01b82525afa9182156106a5578592611ed09188916120855750845190838783015284825261040e82610fb0565b5083611ee661058e88546001600160a01b031690565b845193848092635506ee0b60e11b82525afa9182156106a5578592611f209188916120855750845190838783015284825261040e82610fb0565b5083611f3661058e88546001600160a01b031690565b845193848092636402742760e01b82525afa9182156106a5578592611f709188916120855750845190838783015284825261040e82610fb0565b5083611f8661058e88546001600160a01b031690565b8451938480926330125cf560e01b82525afa9182156106a5578592611fc09188916120855750845190838783015284825261040e82610fb0565b5083611fd661058e88546001600160a01b031690565b8451938480926324768d9160e01b82525afa9182156106a55785926120109188916120855750845190838783015284825261040e82610fb0565b508361202661058e88546001600160a01b031690565b8451968780926313b92d3560e31b82525afa9283156106a55761205b958794612066575b505193840152825261040e82610fb0565b5061066e6001601155565b61207e919450853d871161069e5761068f8183611004565b923861204a565b61209c9150863d881161069e5761068f8183611004565b38611e6b565b6120b99150863d881161069e5761068f8183611004565b38611d02565b6120d69150853d871161069e5761068f8183611004565b38611a04565b6120f39150833d851161069e5761068f8183611004565b38611991565b346102345760003660031901126102345760206112ea613164565b1561211b57565b606460405162461bcd60e51b815260206004820152601260248201527f70726f706f7365722e746f2e65786973747300000000000000000000000000006044820152fd5b60145468010000000000000000811015610fab5760018101806014558110156104b757601460005260011b7fce6d7b5282bd9a3661ae061feed1dbda4e52ab073b1f9285be6e155d9c38d4ec0190600090565b67ffffffffffffffff8111610fab57601f01601f191660200190565b604051906121db82610fb0565b601682527f6765744e6f6465506172656e74286164647265737329000000000000000000006020830152565b6040519061221482610fb0565b601682527f67657455736572546f496e7374286164647265737329000000000000000000006020830152565b634e487b7160e01b600052601160045260246000fd5b600019810191908211610e5d57565b91908203918211610e5d57565b6001600160a01b038091166000526012602052604060002054801515806122ba575b61229f575050600090565b6000198101908111610e5d576122b49061047d565b50541690565b50601454811115612294565b60155468010000000000000000811015610fab5760018101806015558110156104b7576001600160a01b039060156000527f55f448fdea98c4d29eb340757ef0a66cd03dbb9538908a6a81d96026b71ec4750191166001600160a01b0319825416179055565b60026011541461233d576002601155565b60046040517f3ee5aeb5000000000000000000000000000000000000000000000000000000008152fd5b1561236e57565b606460405162461bcd60e51b815260206004820152601560248201527f7574696c6974792e62617463682e696e76616c696400000000000000000000006044820152fd5b6040516123be81610fcc565b60008152906000368137565b604051906123d782610fb0565b600f82527f6765744e6f646573436f756e74282900000000000000000000000000000000006020830152565b9060018201809211610e5d57565b91908201809211610e5d57565b6000198114610e5d5760010190565b6040519061243a82610fb0565b601882527f6765744e6f6465496e737453746f722875696e743235362900000000000000006020830152565b9190826040910312610234576020825161247f81610239565b92015161248b81610239565b90565b6040519061249b82610fb0565b600682527f64616765282900000000000000000000000000000000000000000000000000006020830152565b8015158061269a575b6124d990612367565b6004906125076124f083546001600160a01b031690565b6124f86123b2565b906125016123ca565b90613310565b928315612693578360165411612684575b61252d6125286016549384612411565b612256565b9484861161267a575b61254790612542613164565b612265565b915b8581111561257b57505050908210905061256a57506125686001601655565b565b61257661256891612403565b601655565b61261f9061259085546001600160a01b031690565b60408051906125e06125d2602093806125b0888783019190602083019252565b03956125c4601f1997888101845283611004565b6125cc61242d565b906131e6565b838082518301019101612466565b6001600160a01b039182169291831561266f5761260f916125ff6123b2565b9161260861248e565b9116613310565b8811612624575b5050505061241e565b612549565b612665937f9c75dd350000000000000000000000000000000000000000000000000000000061040e9251948501528361040289602483019190602083019252565b5038808080612616565b50505050505061241e565b9394508493612536565b61268e6001601655565b612518565b5050505050565b5060648111156124d0565b156126ac57565b606460405162461bcd60e51b815260206004820152601c60248201527f7574696c6974792e62617463682e6c696d69742e6578636565646564000000006044820152fd5b156126f757565b606460405162461bcd60e51b815260206004820152601760248201527f7574696c6974792e756e7365637572652e6661696c65640000000000000000006044820152fd5b90816020910312610234575161248b81610239565b6040513d6000823e3d90fd5b1561276357565b606460405162461bcd60e51b815260206004820152601360248201527f7574696c6974792e696d706f72742e646f6e65000000000000000000000000006044820152fd5b604051906127b482610fb0565b601782527f6765744e6f64654279496e6465782875696e74323536290000000000000000006020830152565b156127e757565b606460405162461bcd60e51b815260206004820152601660248201527f70726f78792e696e76616c69642e696e7374616e6365000000000000000000006044820152fd5b6040519061283882610fb0565b601382527f496e7374546f55736572286164647265737329000000000000000000000000006020830152565b1561286b57565b606460405162461bcd60e51b815260206004820152601260248201527f70726f78792e696e76616c69642e6e6f646500000000000000000000000000006044820152fd5b604051906128bc82610fb0565b601082527f6765744e6f6465286164647265737329000000000000000000000000000000006020830152565b5190811515820361023457565b908160a091031261023457805191602082015161291181610239565b9160408101519161248b6080612929606085016128e8565b93016128e8565b61293d60648211156126a5565b61294e612949306130da565b6126f0565b61296361058e6000546001600160a01b031690565b60405180917f447aa30400000000000000000000000000000000000000000000000000000000825281600460209384935afa9182156106a557600092612c1a575b506129b06105646123b2565b928315612c14576129e16129cf6124f06004546001600160a01b031690565b916129db83871161275c565b82612411565b93808511612c0c575b505b8381106129f95750505050565b612bbf90612bba612bb5604051612bac7f50db85d100000000000000000000000000000000000000000000000000000000612a6183612a3f888b83019190602083019252565b0393612a53601f1995868101835282611004565b612a5b6127a7565b8b6132bf565b6001600160a01b03612a7681831615156127e0565b8131948a8c6001612b1f612b11612af7612b03612acb612ab1612abd8c6040519283918c83019190916001600160a01b036020820193169052565b038b8101835282611004565b612ac561282b565b886132bf565b99612ad98a8c161515612864565b6040519283918983019190916001600160a01b036020820193169052565b03888101835282611004565b612b0b6128af565b856131e6565b8480825183010191016128f5565b5050509590951694612b32811515612864565b148015612c03575b612bc4575b5061040284612b698561036b61040e97986001600160a01b03166000526013602052604060002090565b612b738180612c39565b6004546001600160a01b031695604051978894850152602484019060209093929360408301946001600160a01b03809216845216910152565b50601754612411565b601755565b61241e565b6129ec565b6040516001600160a01b0390941682850190815261040e9461040292612bfa92612bf29083906020016103b8565b61034b61282b565b9350508c612b3f565b50831515612b3a565b9350386129ea565b50505050565b81612c329293503d841161069e5761068f8183611004565b90386129a4565b6014549068010000000000000000821015610fab5760018391612c85612c678584612ca1970160145561047d565b509182906001600160a01b03166001600160a01b0319825416179055565b01906001600160a01b03166001600160a01b0319825416179055565b6001600160a01b0360145491166000526012602052604060002055565b15612cc557565b606460405162461bcd60e51b815260206004820152601260248201527f7574696c6974792e73657475702e646f6e6500000000000000000000000000006044820152fd5b908152610100810192919060209060009082015b60078210612d2b5750505050565b82806001928651815201940191019092612d1d565b6130256101c061256892612d7a612d5e82516001600160a01b031690565b6001600160a01b03166001600160a01b03196002541617600255565b612dad612d9160208301516001600160a01b031690565b6001600160a01b03166001600160a01b03196003541617600355565b612de0612dc460408301516001600160a01b031690565b6001600160a01b03166001600160a01b03196004541617600455565b612e13612df760608301516001600160a01b031690565b6001600160a01b03166001600160a01b03196005541617600555565b612e46612e2a60808301516001600160a01b031690565b6001600160a01b03166001600160a01b03196006541617600655565b612e79612e5d60a08301516001600160a01b031690565b6001600160a01b03166001600160a01b03196007541617600755565b612eac612e9060c08301516001600160a01b031690565b6001600160a01b03166001600160a01b03196008541617600855565b612edf612ec360e08301516001600160a01b031690565b6001600160a01b03166001600160a01b03196009541617600955565b612f13612ef76101008301516001600160a01b031690565b6001600160a01b03166001600160a01b0319600a541617600a55565b612f47612f2b6101208301516001600160a01b031690565b6001600160a01b03166001600160a01b0319600b541617600b55565b612f7b612f5f6101408301516001600160a01b031690565b6001600160a01b03166001600160a01b0319600c541617600c55565b612faf612f936101608301516001600160a01b031690565b6001600160a01b03166001600160a01b0319600d541617600d55565b612fe3612fc76101808301516001600160a01b031690565b6001600160a01b03166001600160a01b0319600e541617600e55565b613017612ffb6101a08301516001600160a01b031690565b6001600160a01b03166001600160a01b0319600f541617600f55565b01516001600160a01b031690565b6001600160a01b03166001600160a01b03196010541617601055565b908160209103126102345761248b906128e8565b6130b06001600160a01b036002541660405161307081610fb0565b600881527f69735361666528290000000000000000000000000000000000000000000000006020820152604051916130a783610fcc565b60008352613211565b90806130cf575b156107c8578060208061248b93518301019101613041565b5060208151146130b7565b61313d6001600160a01b03806002541660405191602094168483015283825261310282610fb0565b6040519061310f82610fb0565b601582527f697353656375726542617365286164647265737329000000000000000000000085830152613211565b908061315a575b156107c8578161248b9282518301019101613041565b5081815114613144565b61248b6001600160a01b036003541660405161317f81610fb0565b600681527f69416765282900000000000000000000000000000000000000000000000000006020820152604051916112e183610fcc565b3d156131e1573d906131c7826121b2565b916131d56040519384611004565b82523d6000602084013e565b606090565b906131f19291613211565b90600090156131fe575090565b604051915061320c82610fcc565b815290565b9190823b156132a6577fffffffff00000000000000000000000000000000000000000000000000000000815160208093012016916040519180830193845281519160005b83811061329257505050918161328260248260009795968897018783820152036004810184520182611004565b51915afa61328e6131b6565b9091565b818101830151858201602401528201613255565b5050506000906040516132b881610fcc565b6000815290565b92916132cd91600094613211565b9080613305575b6132db5750565b9091506020818051810103126102345760206001600160a01b0391015161330181610239565b1690565b5060208151146132d4565b929161331e91600094613211565b9080613343575b61332c5750565b909150602081805181010312610234576020015190565b506020815114613325565b90602082519201517fffffffff0000000000000000000000000000000000000000000000000000000090818116936004811061338957505050565b60040360031b82901b16169150565b6001600160a01b0381161561344b57600080918351908260208601915af1906133bf6131b6565b91156133c9575090565b805160009190600411613445576133e0915061334e565b8151156133f05750805190602001fd5b6040517f21c09d340000000000000000000000000000000000000000000000000000000081527fffffffff00000000000000000000000000000000000000000000000000000000919091166004820152602490fd5b506133e0565b600460405163e6c4247b60e01b8152fdfea2646970667358221220dbae41c2359a8a2b8efcb8e6ac89f738a4cef14293a1875c373e9646ffa567b364736f6c6343000814003360803461009957601f620025e238819003918201601f19168301916001600160401b0383118484101761009e5780849260209460405283398101031261009957516001600160a01b038116908190036100995780156100875760018060a01b0319338160015416176001556000541617600055600160115560405161252d9081620000b58239f35b60405163e6c4247b60e01b8152600490fd5b600080fd5b634e487b7160e01b600052604160045260246000fdfe60806040526004361015610018575b361561001657005b005b60003560e01c80631133b8861461018857806312065fe0146101835780631f185d161461017e578063339459a6146101795780633b9b7955146101745780633c00e40d1461016f5780636ec35cd51461016a5780638da5cb5b146101655780638dab13dc146101605780639498d88b1461015b5780639b03bea6146101565780639fb2726b14610151578063a1f7f5391461014c578063ae9568d714610147578063af48452614610142578063b90306ad1461013d578063c54e44b014610138578063d7a83fc614610133578063e01ad5fd1461012e578063e0a9bc2b14610129578063e3d1d5bf14610124578063f5caf38c1461011f5763fdc10bc90361000e576115e2565b6115a4565b611349565b61132e565b611263565b611223565b61119d565b61108f565b61105e565b611014565b610f9f565b610dc0565b610d78565b610cfa565b610c57565b610c30565b610aaf565b610a40565b610a19565b610321565b610236565b61021a565b6101cb565b6001600160a01b0381160361019e57565b600080fd5b604090600319011261019e576004356101bb8161018d565b906024356101c88161018d565b90565b3461019e57602060ff61020e6001600160a01b036101e8366101a3565b9116600052601284526040600020906001600160a01b0316600052602052604060002090565b54166040519015158152f35b3461019e57600036600319011261019e57602047604051908152f35b3461019e5760208060031936011261019e576102b56004356102578161018d565b6001600160a01b0380600254169060405192168483015283825261027a82611693565b6040519061028782611693565b601182527f69735369676e65722861646472657373290000000000000000000000000000008583015261240d565b919080610317575b156102ed5781816102d7926102e99451830101910161228e565b60405190151581529081906020820190565b0390f35b60046040517f3204506f000000000000000000000000000000000000000000000000000000008152fd5b50808251146102bd565b3461019e57600036600319011261019e576103536103476000546001600160a01b031690565b6001600160a01b031690565b604051907f97f3815a000000000000000000000000000000000000000000000000000000008252602082600481845afa918215610849576000926109f8575b50604051917fcfbffe53000000000000000000000000000000000000000000000000000000008352602083600481855afa928315610849576000936109d7575b50604051907fab6e844f000000000000000000000000000000000000000000000000000000008252602082600481865afa918215610849576000926109b6575b50604051917f14d8d024000000000000000000000000000000000000000000000000000000008352602083600481875afa92831561084957600093610995575b50604051927fd1f956b1000000000000000000000000000000000000000000000000000000008452602084600481885afa93841561084957600094610974575b50604051937fe61dfd58000000000000000000000000000000000000000000000000000000008552602085600481895afa94851561084957600095610953575b506040517fe09d394d0000000000000000000000000000000000000000000000000000000081526020816004818a5afa90811561084957600091610934575b506040517f52b06d640000000000000000000000000000000000000000000000000000000081526020816004818b5afa90811561084957600091610915575b506040517f013cf08b00000000000000000000000000000000000000000000000000000000815260006004820152916020836024818c5afa928315610849576000936108f4575b50604051977f5e09dbe70000000000000000000000000000000000000000000000000000000089526020896004818d5afa948515610849576004996000966108d3575b5060208b6040519b8c80927faa0ddc160000000000000000000000000000000000000000000000000000000082525afa9687156108495760049a6000986108b2575b5060208c6040519c8d80927f640274270000000000000000000000000000000000000000000000000000000082525afa9889156108495760049b60009a610891575b5060208d6040519d8e80927f30125cf50000000000000000000000000000000000000000000000000000000082525afa9a8b15610849578d60049d60009d61086f575b506020906040519e8f80927f24768d910000000000000000000000000000000000000000000000000000000082525afa9c8d156108495760009d61084e575b50604051809e81907f9dc969a80000000000000000000000000000000000000000000000000000000082525a92600491602094fa9d8e156108495760009e610818575b5061072c6116f2565b6001600160a01b0390911681529d8e906001600160a01b031660208201526040019061076091906001600160a01b03169052565b6001600160a01b031660608d01526001600160a01b031660808c01526001600160a01b031660a08b01526001600160a01b031660c08a01526001600160a01b031660e08901526001600160a01b03166101008801526001600160a01b03166101208701526001600160a01b03166101408601526001600160a01b03166101608501526001600160a01b03166101808401526001600160a01b03166101a08301526001600160a01b03166101c082015261001690611f8d565b61083b919e5060203d602011610842575b61083381836116d0565b810190611768565b9c38610723565b503d610829565b611c2a565b610868919d5060203d6020116108425761083381836116d0565b9b386106e0565b6020919d5061088a90823d84116108425761083381836116d0565b9c906106a1565b6108ab919a5060203d6020116108425761083381836116d0565b983861065e565b6108cc91985060203d6020116108425761083381836116d0565b963861061c565b6108ed91965060203d6020116108425761083381836116d0565b94386105da565b61090e91935060203d6020116108425761083381836116d0565b9138610597565b61092e915060203d6020116108425761083381836116d0565b38610550565b61094d915060203d6020116108425761083381836116d0565b38610511565b61096d91955060203d6020116108425761083381836116d0565b93386104d2565b61098e91945060203d6020116108425761083381836116d0565b9238610492565b6109af91935060203d6020116108425761083381836116d0565b9138610452565b6109d091925060203d6020116108425761083381836116d0565b9038610412565b6109f191935060203d6020116108425761083381836116d0565b91386103d2565b610a1291925060203d6020116108425761083381836116d0565b9038610392565b3461019e57600036600319011261019e5760206001600160a01b0360005416604051908152f35b3461019e57602036600319011261019e576001600160a01b03600435610a658161018d565b1660005260186020526020604060002054604051908152f35b9181601f8401121561019e5782359167ffffffffffffffff831161019e576020808501948460051b01011161019e57565b3461019e57606036600319011261019e5767ffffffffffffffff6004803582811161019e57610ae19036908301610a7e565b919060243584811161019e57610afa9036908401610a7e565b909460443590811161019e57610b139036908501610a7e565b959093610b1e6122a3565b15610c2157610b2c33612328565b8015610c0d575b15610bfe57868303610bd6575060005b828110610b4c57005b80610bd0610b5d6001938a89611bfa565b35610b6781610db6565b6001600160a01b03610b7a848b8a611bfa565b35610b848161018d565b166000526012602052610bbf6040600020610ba8610ba3868a8a611bfa565b611c20565b6001600160a01b0316600052602052604060002090565b9060ff801983541691151516179055565b01610b43565b6040517fff633a38000000000000000000000000000000000000000000000000000000008152fd5b60405163ea8e4eb560e01b8152fd5b50336001600160a01b036005541614610b33565b604051634ee2123760e11b8152fd5b3461019e57600036600319011261019e5760206001600160a01b0360015416604051908152f35b3461019e57602036600319011261019e57600435610c748161018d565b6001600160a01b038091166000526015602052806040600020541690601660205260406000205416908060005260126020526102e960ff610ccc846040600020906001600160a01b0316600052602052604060002090565b54166040519384938491939260409160608401956001600160a01b0380921685521660208401521515910152565b3461019e57602036600319011261019e57600435610d178161018d565b610d1f6122a3565b15610d6757610d2d33612328565b8015610d53575b15610d425761001690611d12565b600460405163ea8e4eb560e01b8152fd5b50336001600160a01b036005541614610d34565b6004604051634ee2123760e11b8152fd5b3461019e57602036600319011261019e576001600160a01b03600435610d9d8161018d565b1660005260176020526020604060002054604051908152f35b8015150361019e57565b3461019e57608036600319011261019e57600467ffffffffffffffff813581811161019e57610df29036908401610a7e565b9160243590811161019e57610e0a9036908501610a7e565b6044359391610e1885610db6565b606435610e236122a3565b15610f8f57610e3133612328565b8015610f7b575b15610f6b57828403610f425760005b848110610e5057005b8615610f105781610e81610e68610ba384898b611bfa565b6001600160a01b03166000526018602052604060002090565b5403610eb057876040517fe3913549000000000000000000000000000000000000000000000000000000008152fd5b8082610ec5610e68610ba36001958a8c611bfa565b55610ed1818686611bfa565b35610f07610eff610ee6610ba3858b8d611bfa565b6001600160a01b03166000526017602052604060002090565b9182546117eb565b90555b01610e47565b80610f1e6001928686611bfa565b35610f3b610f33610ee6610ba3858b8d611bfa565b918254611670565b9055610f0a565b866040517fff633a38000000000000000000000000000000000000000000000000000000008152fd5b8660405163ea8e4eb560e01b8152fd5b50336001600160a01b036005541614610e38565b86604051634ee2123760e11b8152fd5b3461019e57600036600319011261019e57602061100c6001600160a01b0360065416604051610fcd81611693565b601381527f67657464656c656761746f72436f756e742829000000000000000000000000008482015260405191611003836116b4565b600083526124bb565b604051908152f35b3461019e5760206110556001600160a01b0361102f366101a3565b9116600052601383526040600020906001600160a01b0316600052602052604060002090565b54604051908152f35b3461019e57602036600319011261019e5760206110856004356110808161018d565b612328565b6040519015158152f35b3461019e57602036600319011261019e576004356110ab6122a3565b15610d67576001600160a01b03600554163303610d4257600090600460206110dd61034785546001600160a01b031690565b604051928380927f46f991ac0000000000000000000000000000000000000000000000000000000082525afa8015610849578380848194938294839161117f575b505af16111296123b2565b50156102ed577fcdcc745fe377b103b45fa0cec23ae3ef93d6fc6a84a01f0d18c40b354dd1d5d8611179611168610347600b546001600160a01b031690565b604051938452929081906020820190565b0390a280f35b611197915060203d81116108425761083381836116d0565b3861111e565b3461019e57602036600319011261019e576004356111ba8161018d565b803b60006111c782611713565b926111d560405194856116d0565b82845260208401903c602d8151106111f957602a602091015160601c604051908152f35b60046040517fbaf3f0f7000000000000000000000000000000000000000000000000000000008152fd5b3461019e57602036600319011261019e5760206004356112428161018d565b6001600160a01b038091166000526014825260406000205416604051908152f35b3461019e5760208060031936011261019e576102e990600435906112868261018d565b6112ea6001600160a01b03928360065416936040519116838201528281526112ad81611693565b6040516112b981611693565b601881527f697364656c656761746f724e6f646528616464726573732900000000000000008482015260009461240d565b919080611324575b61130b575b505060405190151581529081906020820190565b61131d9250808251830101910161228e565b38806112f7565b50808251146112f2565b3461019e57600036600319011261019e5760206110856122a3565b3461019e57611357366101a3565b61135f6122a3565b15610d675761136d33612328565b8015611590575b15610d42576001600160a01b03918281168015611566578383168015611566570361139b57005b60009261153c926113cf6113c2846001600160a01b03166000526016602052604060002090565b546001600160a01b031690565b916113ed846001600160a01b03166000526017602052604060002090565b5461140b836001600160a01b03166000526017602052604060002090565b5561146761142f6113c2866001600160a01b03166000526015602052604060002090565b61144c846001600160a01b03166000526015602052604060002090565b906001600160a01b03166001600160a01b0319825416179055565b6114888361144c846001600160a01b03166000526016602052604060002090565b6114a5846001600160a01b03166000526018602052604060002090565b546114c3836001600160a01b03166000526018602052604060002090565b55821661153f575b5050826114eb826001600160a01b03166000526017602052604060002090565b5561151c61150c826001600160a01b03166000526015602052604060002090565b6001600160a01b03198154169055565b610e6861150c826001600160a01b03166000526016602052604060002090565b55005b61144c61155f926001600160a01b03166000526014602052604060002090565b38806114cb565b60046040517fd92e233d000000000000000000000000000000000000000000000000000000008152fd5b50336001600160a01b036005541614611374565b3461019e57606036600319011261019e576100166004356115c48161018d565b6024356115d08161018d565b604435916115dd83610db6565b6117f8565b3461019e57600036600319011261019e57602061100c6001600160a01b036003541660405161161081611693565b600681527f69416765282900000000000000000000000000000000000000000000000000008482015260405191611003836116b4565b634e487b7160e01b600052601160045260246000fd5b60001981019190821161166b57565b611646565b9190820391821161166b57565b634e487b7160e01b600052604160045260246000fd5b6040810190811067ffffffffffffffff8211176116af57604052565b61167d565b6020810190811067ffffffffffffffff8211176116af57604052565b90601f8019910116810190811067ffffffffffffffff8211176116af57604052565b604051906101e0820182811067ffffffffffffffff8211176116af57604052565b67ffffffffffffffff81116116af57601f01601f191660200190565b6040519061173c82611693565b601682527f67657455736572546f496e7374286164647265737329000000000000000000006020830152565b9081602091031261019e57516101c88161018d565b604051611789816116b4565b60008152906000368137565b604051906117a282611693565b601082527f6d61784d61707065644c696d69742829000000000000000000000000000000006020830152565b9081602091031261019e575190565b906001820180921161166b57565b9190820180921161166b57565b916118196113c2336001600160a01b03166000526014602052604060002090565b928115611aad576001600160a01b0380821615611566578084169485156115665761188461188061187933611861896001600160a01b03166000526012602052604060002090565b906001600160a01b0316600052602052604060002090565b5460ff1690565b1590565b611a83576118e56103476118d66118a36004546001600160a01b031690565b604080516001600160a01b038916602080830191909152815291906118c890836116d0565b6118d061172f565b906123e2565b60208082518301019101611768565b156115665716611a595761195161192a61191b61190a6003546001600160a01b031690565b61191261177d565b906118d0611795565b602080825183010191016117ce565b61194b33611861876001600160a01b03166000526013602052604060002090565b54101590565b611a2f576119fb8361199b7f73e162dc4d0165c5ab2c676b5ce1e58e8333a5e1b0e75ea3957f2ca0aa8abc2e9561144c856001600160a01b03166000526015602052604060002090565b6119bc3361144c856001600160a01b03166000526016602052604060002090565b6119dd8361144c336001600160a01b03166000526014602052604060002090565b61186133916001600160a01b03166000526013602052604060002090565b611a0581546117dd565b9055604080513381526001600160a01b0392909216602083015291151591810191909152606090a2565b60046040517fb111d8ef000000000000000000000000000000000000000000000000000000008152fd5b60046040517f548635ce000000000000000000000000000000000000000000000000000000008152fd5b60046040517f747845de000000000000000000000000000000000000000000000000000000008152fd5b5050506001600160a01b039081811615611bf657611b6d61150c611ae76113c2846001600160a01b03166000526015602052604060002090565b604080513381526001600160a01b038616602082015260009181019190915290948516939084907f73e162dc4d0165c5ab2c676b5ce1e58e8333a5e1b0e75ea3957f2ca0aa8abc2e90606090a2611b5461150c826001600160a01b03166000526015602052604060002090565b6001600160a01b03166000526016602052604060002090565b611b8d61150c336001600160a01b03166000526014602052604060002090565b151580611bcc575b611b9c5750565b611bbe9061186133916001600160a01b03166000526013602052604060002090565b611bc8815461165c565b9055565b50611bee33611861836001600160a01b03166000526013602052604060002090565b541515611b95565b5050565b9190811015611c0a5760051b0190565b634e487b7160e01b600052603260045260246000fd5b356101c88161018d565b6040513d6000823e3d90fd5b604051906060820182811067ffffffffffffffff8211176116af57604052602482527f65737329000000000000000000000000000000000000000000000000000000006040837f67657456616c696461746f7244656c656761746f724f6655736572286164647260208201520152565b9081606091031261019e578051611cbc8161018d565b9160406020830151611ccd8161018d565b9201516101c881610db6565b60405190611ce682611693565b601182527f696e636f6d654f662861646472657373290000000000000000000000000000006020830152565b6001600160a01b039081811615611bf657611d466103476113c2836001600160a01b03166000526015602052604060002090565b611bf657611d5f6103476000546001600160a01b031690565b604051907f6325dd0400000000000000000000000000000000000000000000000000000000908183526020908184600481845afa918215610849578694600093611f6e575b506040516001600160a01b038716828201908152611def91611de19181906020010395611dd9601f19978881018452836116d0565b6118d0611c36565b828082518301019101611ca6565b9890911697951693871580611f66575b611f5c57819060046040518095819382525afa96871561084957611efb61144c96611e7a8961186195611f399c611f14998b99600092611f3b575b50611e6c9192611e6060405195869283019190916001600160a01b036020820193169052565b039081018452836116d0565b611e74611cd9565b906124bb565b611e978a6001600160a01b03166000526017602052604060002090565b55611eb98361144c8b6001600160a01b03166000526015602052604060002090565b611eda8561144c8b6001600160a01b03166000526016602052604060002090565b610bbf85611861856001600160a01b03166000526012602052604060002090565b6001600160a01b03166000526013602052604060002090565b611f1e81546117dd565b90556001600160a01b03166000526014602052604060002090565b565b611e6c9250611f5690843d86116108425761083381836116d0565b91611e3a565b5050505050505050565b508415611dff565b81611f869294503d85116108425761083381836116d0565b9138611da4565b6122726101c0611f3992611fc7611fab82516001600160a01b031690565b6001600160a01b03166001600160a01b03196002541617600255565b611ffa611fde60208301516001600160a01b031690565b6001600160a01b03166001600160a01b03196003541617600355565b61202d61201160408301516001600160a01b031690565b6001600160a01b03166001600160a01b03196004541617600455565b61206061204460608301516001600160a01b031690565b6001600160a01b03166001600160a01b03196005541617600555565b61209361207760808301516001600160a01b031690565b6001600160a01b03166001600160a01b03196006541617600655565b6120c66120aa60a08301516001600160a01b031690565b6001600160a01b03166001600160a01b03196007541617600755565b6120f96120dd60c08301516001600160a01b031690565b6001600160a01b03166001600160a01b03196008541617600855565b61212c61211060e08301516001600160a01b031690565b6001600160a01b03166001600160a01b03196009541617600955565b6121606121446101008301516001600160a01b031690565b6001600160a01b03166001600160a01b0319600a541617600a55565b6121946121786101208301516001600160a01b031690565b6001600160a01b03166001600160a01b0319600b541617600b55565b6121c86121ac6101408301516001600160a01b031690565b6001600160a01b03166001600160a01b0319600c541617600c55565b6121fc6121e06101608301516001600160a01b031690565b6001600160a01b03166001600160a01b0319600d541617600d55565b6122306122146101808301516001600160a01b031690565b6001600160a01b03166001600160a01b0319600e541617600e55565b6122646122486101a08301516001600160a01b031690565b6001600160a01b03166001600160a01b0319600f541617600f55565b01516001600160a01b031690565b6001600160a01b03166001600160a01b03196010541617601055565b9081602091031261019e57516101c881610db6565b6122fe6001600160a01b03600254166040516122be81611693565b600881527f69735361666528290000000000000000000000000000000000000000000000006020820152604051916122f5836116b4565b6000835261240d565b908061231d575b156102ed57806020806101c89351830101910161228e565b506020815114612305565b61238b6001600160a01b03806002541660405191602094168483015283825261235082611693565b6040519061235d82611693565b601582527f69735365637572654261736528616464726573732900000000000000000000008583015261240d565b90806123a8575b156102ed57816101c8928251830101910161228e565b5081815114612392565b3d156123dd573d906123c382611713565b916123d160405193846116d0565b82523d6000602084013e565b606090565b906123ed929161240d565b90600090156123fa575090565b6040519150612408826116b4565b815290565b9190823b156124a2577fffffffff00000000000000000000000000000000000000000000000000000000815160208093012016916040519180830193845281519160005b83811061248e57505050918161247e602482600097959688970187838201520360048101845201826116d0565b51915afa61248a6123b2565b9091565b818101830151858201602401528201612451565b5050506000906040516124b4816116b4565b6000815290565b92916124c99160009461240d565b90806124ec575b6124d75750565b6101c8919250602080825183010191016117ce565b5060208151146124d056fea2646970667358221220d887d8f728b754e59e1c72c35c0da452b2626e0a4cb08becd0652dc4192e3fbf64736f6c6343000814003360a08060405234620015215762000039620044509182380380936200002582846200155e565b82396001600160a01b039281019062001582565b1680156200150f573360018060a01b031960015416176001558060018060a01b031960005416176000554260115560a760255560b4602655601e602a556001602b556001602c556002602d5561c350602e55610258602f556003603055601960315569054b40b1f852bda00000603255670de0b6b3a764000060335569021e19e0c9bab24000006034556001603555610384603655600560455560ff1960465416604655614d584201804211620014f957610258900460805260405160e081016001600160401b03811182821017620014e3576102589160c0916040526002815260646020820152600160408201526023606082015260646080820152600160a0820152015260026016556064601755600160185560236019556064601a556001601b55610258601c55605a606062000171620015a3565b60198152600a602082015282604082015201526019601d55600a601e55605a601f55605a602055620001a2620015a3565b6005815260016020820152605a606061016892836040820152015260056021556001602255602355605a60245560405180604081011060018060401b03604083011117620014e3576020816040600393016040528281520152600360275560036028556200020f620015a3565b610258606061014092838152600b6020820152600a60408201520152603755600b603855600a603955610258603a5561025860606200024d620015a3565b60d28152600b6020820152600a6040820152015260d2603b55600b603c55600a603d55610258603e556040519060c0820182811060018060401b03821117620014e3576040526000825260006020830152600060408301526000606083015260006080830152600060a0830152604051635e09dbe760e01b8152602081600481855afa918215620014b557600492602092600091620014c1575b506001600160a01b03168452605f828501526001604080860191909152516311be646b60e21b815292839182905afa8015620014b5576040916000916200147f575b5060018060a01b03169182606082015260056080820152600160a082015260018060a01b0381511660018060a01b0319603f541617603f5560208101518255015160415560018060a01b03196042541617604255600560435560016044556200047a604051620003998162001526565b60008082526020808301828152604084018381526060850184815261270f60808701908152948052601390935293517f8fa6efc3be94b5b348b21fea823fe8d100408cee9b7f90524494500445d8ff6c55517f8fa6efc3be94b5b348b21fea823fe8d100408cee9b7f90524494500445d8ff6d5591517f8fa6efc3be94b5b348b21fea823fe8d100408cee9b7f90524494500445d8ff6e5590517f8fa6efc3be94b5b348b21fea823fe8d100408cee9b7f90524494500445d8ff6f55517f8fa6efc3be94b5b348b21fea823fe8d100408cee9b7f90524494500445d8ff7055565b620005736040516200048c8162001526565b60078152601960208083019182526000604084018181526060850182815261270f608087019081526001909352601390935293517f4155c2f711f2cdd34f8262ab8fb9b7020a700fe7b6948222152f7670d1fdf34d5591517f4155c2f711f2cdd34f8262ab8fb9b7020a700fe7b6948222152f7670d1fdf34e5591517f4155c2f711f2cdd34f8262ab8fb9b7020a700fe7b6948222152f7670d1fdf34f5590517f4155c2f711f2cdd34f8262ab8fb9b7020a700fe7b6948222152f7670d1fdf35055517f4155c2f711f2cdd34f8262ab8fb9b7020a700fe7b6948222152f7670d1fdf35155565b6200066c604051620005858162001526565b60078152606460208083019182526000604084018181526060850182815261270f608087019081526002909352601390935293517f0b9d2c0c271bb30544eb78c59bdaebdae2728e5f65814c07768a0abe90ed19235591517f0b9d2c0c271bb30544eb78c59bdaebdae2728e5f65814c07768a0abe90ed19245591517f0b9d2c0c271bb30544eb78c59bdaebdae2728e5f65814c07768a0abe90ed19255590517f0b9d2c0c271bb30544eb78c59bdaebdae2728e5f65814c07768a0abe90ed192655517f0b9d2c0c271bb30544eb78c59bdaebdae2728e5f65814c07768a0abe90ed192755565b620007666040516200067e8162001526565b600781526101f46020808301918252600360408401818152600060608601818152601e6080880190815293909152601390935293517f0d2a6872ef858a7f8ead18dc4f3f2e8d35c853d47e2816cbb9cdd49202554e0c5591517f0d2a6872ef858a7f8ead18dc4f3f2e8d35c853d47e2816cbb9cdd49202554e0d5591517f0d2a6872ef858a7f8ead18dc4f3f2e8d35c853d47e2816cbb9cdd49202554e0e5590517f0d2a6872ef858a7f8ead18dc4f3f2e8d35c853d47e2816cbb9cdd49202554e0f55517f0d2a6872ef858a7f8ead18dc4f3f2e8d35c853d47e2816cbb9cdd49202554e1055565b62000862604051620007788162001526565b600781526107d06020808301918252600460408401818152600360608601908152601e60808701908152600093909352601390935293517f01413ff7a3b1d5b6c016c061d48e2c7014700c777a29fcd068fff04265813d5d5591517f01413ff7a3b1d5b6c016c061d48e2c7014700c777a29fcd068fff04265813d5e5591517f01413ff7a3b1d5b6c016c061d48e2c7014700c777a29fcd068fff04265813d5f5590517f01413ff7a3b1d5b6c016c061d48e2c7014700c777a29fcd068fff04265813d6055517f01413ff7a3b1d5b6c016c061d48e2c7014700c777a29fcd068fff04265813d6155565b6200095b604051620008748162001526565b6007815261138860208083019182526004604084018181526060850191825261270f608086019081526005600052601390935293517ff4b2859895858d6aa26d656e4999d552f6a869b74c43bba7d2a941c4d22c35595591517ff4b2859895858d6aa26d656e4999d552f6a869b74c43bba7d2a941c4d22c355a5591517ff4b2859895858d6aa26d656e4999d552f6a869b74c43bba7d2a941c4d22c355b55517ff4b2859895858d6aa26d656e4999d552f6a869b74c43bba7d2a941c4d22c355c55517ff4b2859895858d6aa26d656e4999d552f6a869b74c43bba7d2a941c4d22c355d55565b62000a546040516200096d8162001526565b6007815261271060208083019182526004604084018181526060850191825261270f608086019081526006600052601390935293517f709d0e3cf89777a1e1f9c99632e4494f29b0327befd0df15e277a12d948257955591517f709d0e3cf89777a1e1f9c99632e4494f29b0327befd0df15e277a12d948257965591517f709d0e3cf89777a1e1f9c99632e4494f29b0327befd0df15e277a12d9482579755517f709d0e3cf89777a1e1f9c99632e4494f29b0327befd0df15e277a12d9482579855517f709d0e3cf89777a1e1f9c99632e4494f29b0327befd0df15e277a12d9482579955565b62000b4f60405162000a668162001526565b60078082526161a860208084019182526004604085018181526060860191825261270f60808701908152600095909552601390925293517f8ba6fb577925b0796671c737df59b8aaae861b630513fb12823699e3e0e3ee605590517f8ba6fb577925b0796671c737df59b8aaae861b630513fb12823699e3e0e3ee6155517f8ba6fb577925b0796671c737df59b8aaae861b630513fb12823699e3e0e3ee625590517f8ba6fb577925b0796671c737df59b8aaae861b630513fb12823699e3e0e3ee6355517f8ba6fb577925b0796671c737df59b8aaae861b630513fb12823699e3e0e3ee6455565b6200124560405162000b618162001526565b600080825260066020808401918252600160408501818152600560608701908152608087018381529290955260159283905294517f27739e4bb5e6f8b5e4b57a047dca8767cc9b982a011081e086cbb0dfa9de818d5591517f27739e4bb5e6f8b5e4b57a047dca8767cc9b982a011081e086cbb0dfa9de818e5592517f27739e4bb5e6f8b5e4b57a047dca8767cc9b982a011081e086cbb0dfa9de818f5590517f27739e4bb5e6f8b5e4b57a047dca8767cc9b982a011081e086cbb0dfa9de819055517f27739e4bb5e6f8b5e4b57a047dca8767cc9b982a011081e086cbb0dfa9de81915562000cb560405162000c588162001526565b60008152600360208201526001604082015260056060820152600160808201526002600052826020526040600020906080600491805184556020810151600185015560408101516002850155606081015160038501550151910155565b62000d2460405162000cc78162001526565b60028152600f6020820152600a604082015260056060820152600160808201526003600052826020526040600020906080600491805184556020810151600185015560408101516002850155606081015160038501550151910155565b62000d9360405162000d368162001526565b60028152600f6020820152600a604082015260056060820152600160808201526004600052826020526040600020906080600491805184556020810151600185015560408101516002850155606081015160038501550151910155565b62000e0260405162000da58162001526565b60028152600f6020820152600a604082015260056060820152600160808201526005600052826020526040600020906080600491805184556020810151600185015560408101516002850155606081015160038501550151910155565b6040519062000e118262001526565b60028252604b918260208201526064604082015262000e7660fa91826060820152606460808201526006600052836020526040600020906080600491805184556020810151600185015560408101516002850155606081015160038501550151910155565b62000ee360405162000e888162001526565b6002815284602082015260646040820152826060820152606460808201526007600052836020526040600020906080600491805184556020810151600185015560408101516002850155606081015160038501550151910155565b62000f5060405162000ef58162001526565b6002815284602082015260646040820152826060820152606460808201526008600052836020526040600020906080600491805184556020810151600185015560408101516002850155606081015160038501550151910155565b62000fbd60405162000f628162001526565b6002815284602082015260646040820152826060820152606460808201526009600052836020526040600020906080600491805184556020810151600185015560408101516002850155606081015160038501550151910155565b6200102a60405162000fcf8162001526565b600281528460208201526064604082015282606082015260646080820152600a600052836020526040600020906080600491805184556020810151600185015560408101516002850155606081015160038501550151910155565b620010976040516200103c8162001526565b600281528460208201526064604082015282606082015260646080820152600b600052836020526040600020906080600491805184556020810151600185015560408101516002850155606081015160038501550151910155565b62001104604051620010a98162001526565b600281528460208201526064604082015282606082015260646080820152600c600052836020526040600020906080600491805184556020810151600185015560408101516002850155606081015160038501550151910155565b62001171604051620011168162001526565b600281528460208201526064604082015282606082015260646080820152600d600052836020526040600020906080600491805184556020810151600185015560408101516002850155606081015160038501550151910155565b620011de604051620011838162001526565b600281528460208201526064604082015282606082015260646080820152600e600052836020526040600020906080600491805184556020810151600185015560408101516002850155606081015160038501550151910155565b60405192620011ed8462001526565b60028452602084015260646040840152606083015260646080830152600f6000526020526040600020906080600491805184556020810151600185015560408101516002850155606081015160038501550151910155565b604051620012538162001542565b60128152600a6020808301918252602d60408085019182526003600052601490925292517f63d87a887046e0430be80fdeb014107d7198c879cbf2cddf39a6df195c86cb385590517f63d87a887046e0430be80fdeb014107d7198c879cbf2cddf39a6df195c86cb395590517f63d87a887046e0430be80fdeb014107d7198c879cbf2cddf39a6df195c86cb3a5551620012ed8162001542565b60128152600a6020808301918252605a60408085019182526005600052601490925292517f116126bec5aaa49b347e966c49378cf0c441de9121e306ea3d824584a9615aa25590517f116126bec5aaa49b347e966c49378cf0c441de9121e306ea3d824584a9615aa35590517f116126bec5aaa49b347e966c49378cf0c441de9121e306ea3d824584a9615aa45551620013878162001542565b60098152600a602080830191825261270f6040808501918252600760009081526014845294517f904977a779b22381a36c6463d4166ef55ee8cb3392c83093cb1750f1a00c9d945592517f904977a779b22381a36c6463d4166ef55ee8cb3392c83093cb1750f1a00c9d9555517f904977a779b22381a36c6463d4166ef55ee8cb3392c83093cb1750f1a00c9d96556012905260327f8e1fee8c88a9e04123b21e90cae2727a7715bf522a1e46eb5934ccd05203a6b25560049091526101f47fb4fcd034df3d20faa1c133b66d862ce92732727d40916b48ffb4020cb00fe0535551612e769081620015da823960805181611e160152f35b620014a6915060203d602011620014ad575b6200149d81836200155e565b81019062001582565b3862000329565b503d62001491565b6040513d6000823e3d90fd5b620014dc9150833d8511620014ad576200149d81836200155e565b38620002e7565b634e487b7160e01b600052604160045260246000fd5b634e487b7160e01b600052601160045260246000fd5b60405163e6c4247b60e01b8152600490fd5b600080fd5b60a081019081106001600160401b03821117620014e357604052565b606081019081106001600160401b03821117620014e357604052565b601f909101601f19168101906001600160401b03821190821017620014e357604052565b908160209103126200152157516001600160a01b0381168103620015215790565b60405190608082016001600160401b03811183821017620014e3576040526000606083828152826020820152826040820152015256fe60806040526004361015610018575b361561001657005b005b60003560e01c806304ce9f80146104985780630609a0e31461049357806307175c831461048e57806309307c62146104895780630aa4b750146104845780630b225f1a1461047f5780630ea0d2221461047a57806312065fe01461047557806314be92a51461047057806315a544ed1461046b5780631605aed91461046657806316f0115b14610461578063179b570a1461045c578063192b48ee146104575780631ef6a864146104525780631f185d161461044d578063203bab661461044857806326c5adae14610443578063298fc4601461043e578063339459a6146104395780633688236d146104345780633b9b79551461042f5780633eb71c061461042a5780634151331d14610425578063438fe1921461042057806344ec16bc1461041b5780634b62954f1461041657806353423e8614610411578063541d76671461040c57806354541683146104075780635640dbfc14610402578063592a02a8146103fd5780635962205f146103f85780635a0e9038146103f35780636c7deb5d146103ee5780636f092c5e146103e95780637687e371146103e457806378ef376f146103df5780637bc908c6146103da57806382a3c503146103d5578063840bbc1e146103d05780638da5cb5b146103cb57806391fc8aa8146103c65780639319d0b5146103c15780639d80ab9b146103bc5780639eb8b44e146103b75780639f70207d146103b2578063a03cbb20146103ad578063a19841dd146103a8578063a1f7f539146103a3578063a88fcea61461039e578063ac14611a14610399578063aebcd32a14610394578063af0b21d31461038f578063af4845261461038a578063b49c064c14610385578063b85f1f8d14610380578063b90306ad1461037b578063c54e44b014610376578063c5a136d414610371578063d0bb2ddf1461036c578063dbad649c14610367578063e01ad5fd14610362578063e0a9bc2b1461035d578063e19a5bcf14610358578063eddd0d9c14610353578063f27c35c61461034e578063f2a6bbc714610349578063f4fe8e3c14610344578063f7a9783e1461033f578063fc0e74d11461033a5763fdc10bc90361000e57612602565b6125df565b612566565b6124fa565b6124ab565b612400565b6123b1565b6122f5565b6122da565b61220f565b6121f1565b61219b565b6120fe565b612078565b611f6a565b611f30565b611f0d565b611edc565b611ebe565b611e56565b611df2565b611dd4565b611d5f565b611d25565b611cc5565b611ca7565b611ad0565b611a51565b611a02565b6119e4565b6119bd565b611944565b6118a0565b611882565b611833565b6117cb565b61179f565b611750565b611717565b6116af565b6115b0565b611565565b611547565b6114d1565b6114b3565b61145e565b61140f565b6113f1565b6113ae565b61135f565b611338565b61131a565b610c37565b610bcf565b610ae5565b610a5a565b610973565b6108ac565b61081c565b6107c7565b610776565b610758565b61073a565b6106eb565b6106cf565b6106b1565b610693565b610675565b610620565b610602565b61055f565b3461055a57604036600319011261055a57600080808060243560043560018114610524575b6002146104f2575b50906104ee91604051948594859094939260609260808301968352602083015260408201520152565b0390f35b6021546022546023546025549297509095506104ee945092501061051c576026545b9290916104c5565b602454610514565b935093505050601d5491601e54601f54918060255410156000146105505760026026545b9490506104bd565b6002602054610548565b600080fd5b3461055a57602036600319011261055a57610578612ab5565b156105d85761058633612b3a565b80156105c4575b1561059a57600435602a55005b60046040517fea8e4eb5000000000000000000000000000000000000000000000000000000008152fd5b50336001600160a01b03600554161461058d565b60046040517f9dc4246e000000000000000000000000000000000000000000000000000000008152fd5b3461055a57600036600319011261055a576020603154604051908152f35b3461055a57604036600319011261055a57610639612ab5565b156105d85761064733612b3a565b8015610661575b1561059a57600435603355602435603455005b50336001600160a01b03600554161461064e565b3461055a57600036600319011261055a576020603654604051908152f35b3461055a57600036600319011261055a576020604554604051908152f35b3461055a57600036600319011261055a576020602f54604051908152f35b3461055a57600036600319011261055a57602047604051908152f35b3461055a57602036600319011261055a57610704612ab5565b156105d85761071233612b3a565b8015610726575b1561059a57600435602f55005b50336001600160a01b036005541614610719565b3461055a57600036600319011261055a576020603454604051908152f35b3461055a57600036600319011261055a576020603354604051908152f35b3461055a57600036600319011261055a5760e0601654601754601854601954601a5490601b5492601c5494604051968752602087015260408601526060850152608084015260a083015260c0820152f35b3461055a57604036600319011261055a576107e0612ab5565b156105d8576107ee33612b3a565b8015610808575b1561059a57600435602555602435602655005b50336001600160a01b0360055416146107f5565b3461055a57602036600319011261055a57600435610838612ab5565b156105d85761084633612b3a565b8015610876575b1561059a57670de0b6b3a76400009081810291818304149015171561087157603255005b612ce0565b50336001600160a01b03600554161461084d565b60a090600319011261055a576004359060243590604435906064359060843590565b3461055a576108ba3661088a565b906108c794929394612ab5565b156105d8576108d533612b3a565b801561094e575b1561059a576002936108ec612d91565b9586526020860152604085015260608401526001811461092c575b1461090e57005b8051603b556020810151603c556040810151603d5560600151603e55005b8251603755602083015160385560408301516039556060830151603a55610907565b50336001600160a01b0360055416146108dc565b6001600160a01b0381160361055a57565b3461055a5760208060031936011261055a576109f260043561099481610962565b6001600160a01b038060025416906040519216848301528382526109b7826126d5565b604051906109c4826126d5565b601182527f69735369676e657228616464726573732900000000000000000000000000000085830152612bf4565b919080610a50575b15610a26578181610a14926104ee94518301019101612aa0565b60405190151581529081906020820190565b60046040517f3204506f000000000000000000000000000000000000000000000000000000008152fd5b50808251146109fa565b3461055a5760e036600319011261055a57610a73612ab5565b156105d857610a8133612b3a565b8015610ad1575b1561059a57610a9860405161267c565b600435601655602435601755604435601855606435601955610abb608435601a55565b610ac660a435601b55565b61001660c435601c55565b50336001600160a01b036005541614610a88565b3461055a57602036600319011261055a57600460206001600160a01b0360005416604051928380926369e8d84b60e11b82525afa8015610bc057610b4391600091610b92575b50610b34612def565b90610b3d612e07565b90612ca2565b60315490670de0b6b3a764000091828102928184041490151715610871576104ee91610b7d610b8292610b7860043593612d16565b612cf6565b612d33565b6040519081529081906020820190565b610bb3915060203d8111610bb9575b610bab818361270d565b81019061272f565b38610b2b565b503d610ba1565b612747565b8015150361055a57565b3461055a57602036600319011261055a57600435610bec81610bc5565b610bf4612ab5565b156105d857610c0233612b3a565b8015610c23575b1561059a5760ff8019604654169115151617604655600080f35b50336001600160a01b036005541614610c09565b3461055a57600036600319011261055a57610c69610c5d6000546001600160a01b031690565b6001600160a01b031690565b604051907f97f3815a000000000000000000000000000000000000000000000000000000008252602082600481845afa918215610bc0576000926112f9575b50604051917fcfbffe53000000000000000000000000000000000000000000000000000000008352602083600481855afa928315610bc0576000936112d8575b50604051907fab6e844f000000000000000000000000000000000000000000000000000000008252602082600481865afa918215610bc0576000926112b7575b50604051917f14d8d024000000000000000000000000000000000000000000000000000000008352602083600481875afa928315610bc057600093611296575b50604051927fd1f956b1000000000000000000000000000000000000000000000000000000008452602084600481885afa938415610bc057600094611275575b50604051937fe61dfd58000000000000000000000000000000000000000000000000000000008552602085600481895afa948515610bc057600095611254575b506040517fe09d394d0000000000000000000000000000000000000000000000000000000081526020816004818a5afa908115610bc057600091611235575b506040517f52b06d640000000000000000000000000000000000000000000000000000000081526020816004818b5afa908115610bc057600091611216575b506040517f013cf08b00000000000000000000000000000000000000000000000000000000815260006004820152916020836024818c5afa928315610bc0576000936111f5575b50604051977f5e09dbe70000000000000000000000000000000000000000000000000000000089526020896004818d5afa948515610bc0576004996000966111d4575b5060208b6040519b8c80927faa0ddc160000000000000000000000000000000000000000000000000000000082525afa968715610bc05760049a6000986111b3575b5060208c6040519c8d80927f640274270000000000000000000000000000000000000000000000000000000082525afa988915610bc05760049b60009a611192575b5060208d6040519d8e80927f30125cf50000000000000000000000000000000000000000000000000000000082525afa9a8b15610bc0578d60049d60009d611170575b506020906040519e8f80927f24768d910000000000000000000000000000000000000000000000000000000082525afa9c8d15610bc05760009d61114f575b50604051809e81907f9dc969a80000000000000000000000000000000000000000000000000000000082525a92600491602094fa9d8e15610bc05760009e61112e575b50611042612753565b6001600160a01b0390911681529d8e906001600160a01b031660208201526040019061107691906001600160a01b03169052565b6001600160a01b031660608d01526001600160a01b031660808c01526001600160a01b031660a08b01526001600160a01b031660c08a01526001600160a01b031660e08901526001600160a01b03166101008801526001600160a01b03166101208701526001600160a01b03166101408601526001600160a01b03166101608501526001600160a01b03166101808401526001600160a01b03166101a08301526001600160a01b03166101c082015261001690612783565b611148919e5060203d602011610bb957610bab818361270d565b9c38611039565b611169919d5060203d602011610bb957610bab818361270d565b9b38610ff6565b6020919d5061118b90823d8411610bb957610bab818361270d565b9c90610fb7565b6111ac919a5060203d602011610bb957610bab818361270d565b9838610f74565b6111cd91985060203d602011610bb957610bab818361270d565b9638610f32565b6111ee91965060203d602011610bb957610bab818361270d565b9438610ef0565b61120f91935060203d602011610bb957610bab818361270d565b9138610ead565b61122f915060203d602011610bb957610bab818361270d565b38610e66565b61124e915060203d602011610bb957610bab818361270d565b38610e27565b61126e91955060203d602011610bb957610bab818361270d565b9338610de8565b61128f91945060203d602011610bb957610bab818361270d565b9238610da8565b6112b091935060203d602011610bb957610bab818361270d565b9138610d68565b6112d191925060203d602011610bb957610bab818361270d565b9038610d28565b6112f291935060203d602011610bb957610bab818361270d565b9138610ce8565b61131391925060203d602011610bb957610bab818361270d565b9038610ca8565b3461055a57600036600319011261055a576020602e54604051908152f35b3461055a57600036600319011261055a5760206001600160a01b0360005416604051908152f35b3461055a57602036600319011261055a57611378612ab5565b156105d85761138633612b3a565b801561139a575b1561059a57600435603655005b50336001600160a01b03600554161461138d565b3461055a57602036600319011261055a57600435600052601460205260606040600020805490600260018201549101549060405192835260208301526040820152f35b3461055a57600036600319011261055a576020602c54604051908152f35b3461055a57602036600319011261055a57611428612ab5565b156105d85761143633612b3a565b801561144a575b1561059a57600435602b55005b50336001600160a01b03600554161461143d565b3461055a57604036600319011261055a57611477612ab5565b156105d85761148533612b3a565b801561149f575b1561059a57600435602d55602435602e55005b50336001600160a01b03600554161461148c565b3461055a57600036600319011261055a576020603054604051908152f35b3461055a57602036600319011261055a57600460206001600160a01b0360005416604051928380926369e8d84b60e11b82525afa8015610bc057611526610b82916104ee93600091610b925750610b34612def565b6004356000526012602052610b78611542604060002054612d16565b612d16565b3461055a57600036600319011261055a576020602b54604051908152f35b3461055a57600036600319011261055a57604060275460285482519182526020820152f35b60c090600319011261055a57600435906024359060443590606435906084359060a43590565b3461055a576115be3661158a565b906115ca959295612ab5565b156105d8576115d833612b3a565b801561169b575b1561059a576010831015611657576100169561162894604051966116028861269d565b875260208701526040860152606085015260808401526000526015602052604060002090565b906080600491805184556020810151600185015560408101516002850155606081015160038501550151910155565b606460405162461bcd60e51b815260206004820152600d60248201527f696e76616c6964206c6576656c000000000000000000000000000000000000006044820152fd5b50336001600160a01b0360055416146115df565b3461055a57602036600319011261055a576004356000526015602052604060002080546104ee6001830154926002810154906004600382015491015491604051958695869192608093969594919660a084019784526020840152604083015260608201520152565b3461055a57600036600319011261055a57601d54601e54601f546020805460408051958652918501939093528301526060820152608090f35b3461055a57602036600319011261055a57611769612ab5565b156105d85761177733612b3a565b801561178b575b1561059a57600435603055005b50336001600160a01b03600554161461177e565b3461055a57602036600319011261055a5760043560005260126020526020604060002054604051908152f35b3461055a57602036600319011261055a576004356117e881610bc5565b6117f0612ab5565b156105d8576117fe33612b3a565b801561181f575b1561059a5760ff8019602954169115151617602955600080f35b50336001600160a01b036005541614611805565b3461055a57602036600319011261055a5761184c612ab5565b156105d85761185a33612b3a565b801561186e575b1561059a57600435603555005b50336001600160a01b036005541614611861565b3461055a57600036600319011261055a576020603554604051908152f35b3461055a5760c036600319011261055a576004356118bd81610962565b6064356118c981610962565b6118d1612ab5565b156105d8576118df33612b3a565b8015611930575b1561059a576001600160a01b0390816001600160a01b0319931683603f541617603f556024356040556044356041551690604254161760425560843560435560a435604455600080f35b50336001600160a01b0360055416146118e6565b3461055a57602036600319011261055a57600460206001600160a01b0360005416604051928380926369e8d84b60e11b82525afa908115610bc0576119ab6119a36104ee93670de0b6b3a764000093600091610b925750610b34612def565b600435612d33565b04604051918291829190602083019252565b3461055a57600036600319011261055a5760206001600160a01b0360015416604051908152f35b3461055a57600036600319011261055a576020603254604051908152f35b3461055a57602036600319011261055a57611a1b612ab5565b156105d857611a2933612b3a565b8015611a3d575b1561059a57600435602c55005b50336001600160a01b036005541614611a30565b3461055a57600036600319011261055a57603754603854603954603a54604080519485526020850193909352918301526060820152608090f35b6102a0810192916000915b60078310611aa357505050565b60019060608351918251815260209283810151848301526040809101519082015201920192019190611a96565b3461055a57600080600319360112611ca4576040908151611af08161267c565b815b60e08110611c7f576104ee84611b06612774565b6001600052601460205290611b3f7fb6c61a840592cc84133e4b25bd509abf4659307c57b160799b38490a5aa48f2c612dc7565b612dc7565b825260026000526014602052611b747fa1930aa930426c54c34daad2b9ada7c5d0ef0c96078a3c5bb79f6fa6602c4a7a612dc7565b6020830152611b91611b3a60036000526014602052604060002090565b8282015260046000526014602052611bc87f52102136546d97ed3f65ec1070a32935d3048ea12f310d29c378dc9d6555c0d6612dc7565b606083015260056000526014602052611c007f116126bec5aaa49b347e966c49378cf0c441de9121e306ea3d824584a9615aa2612dc7565b608083015260066000526014602052611c387fe1f6b6a5fb7e47dad87547d4b0671e7e995a1dae22fbe5b3b5d10e2a77ed7aff612dc7565b60a083015260076000526014602052611c707f904977a779b22381a36c6463d4166ef55ee8cb3392c83093cb1750f1a00c9d94612dc7565b60c08301525191829182611a8b565b6020908451611c8d816126b9565b848152848382015284868201528184015201611af2565b80fd5b3461055a57600036600319011261055a576020602554604051908152f35b3461055a57604036600319011261055a57611cde612ab5565b156105d857611cec33612b3a565b8015611d11575b1561059a57611d036040516126d5565b600435602755602435602855005b50336001600160a01b036005541614611cf3565b3461055a57600036600319011261055a57603b54603c54603d54603e54604080519485526020850193909352918301526060820152608090f35b3461055a57600036600319011261055a576020611dcc6001600160a01b0360065416604051611d8d816126d5565b601381527f67657464656c656761746f72436f756e742829000000000000000000000000008482015260405191611dc3836126f1565b60008352612ca2565b604051908152f35b3461055a57600036600319011261055a576020602d54604051908152f35b3461055a57600036600319011261055a57614d5842018042116108715761025890047f000000000000000000000000000000000000000000000000000000000000000081039081116108715761012b90810180911161087157602090604051908152f35b3461055a57602036600319011261055a576004356000526013602052604060002080546104ee6001830154926002810154906004600382015491015491604051958695869192608093969594919660a084019784526020840152604083015260608201520152565b3461055a57600036600319011261055a576020602a54604051908152f35b3461055a57602036600319011261055a576020611f03600435611efe81610962565b612b3a565b6040519015158152f35b3461055a57600036600319011261055a57602060ff604654166040519015158152f35b3461055a57600036600319011261055a57602154602254602354602454604080519485526020850193909352918301526060820152608090f35b3461055a57602036600319011261055a57600435611f86612ab5565b156105d8576001600160a01b0360055416330361059a5760009060046020611fb8610c5d85546001600160a01b031690565b604051928380927f46f991ac0000000000000000000000000000000000000000000000000000000082525afa8015610bc0578380848194938294839161205a575b505af1612004612bc4565b5015610a26577fcdcc745fe377b103b45fa0cec23ae3ef93d6fc6a84a01f0d18c40b354dd1d5d8612054612043610c5d600b546001600160a01b031690565b604051938452929081906020820190565b0390a280f35b612072915060203d8111610bb957610bab818361270d565b38611ff9565b3461055a57602036600319011261055a5760043561209581610962565b803b60006120a282612a84565b926120b0604051948561270d565b82845260208401903c602d8151106120d457602a602091015160601c604051908152f35b60046040517fbaf3f0f7000000000000000000000000000000000000000000000000000000008152fd5b3461055a57608036600319011261055a5760043561211a612ab5565b156105d85761212833612b3a565b8015612187575b1561059a5761214060088210612d46565b60026040519161214f836126b9565b602435835260208301604435815260408401916064358352600052601460205260406000209351845551600184015551910155600080f35b50336001600160a01b03600554161461212f565b3461055a57600036600319011261055a5760c06001600160a01b0380603f5416906040549060415490604254166043549160445493604051958652602086015260408501526060840152608083015260a0820152f35b3461055a57600036600319011261055a576020602654604051908152f35b3461055a5760208060031936011261055a576104ee906004359061223282610962565b6122966001600160a01b0392836006541693604051911683820152828152612259816126d5565b604051612265816126d5565b601881527f697364656c656761746f724e6f6465286164647265737329000000000000000084820152600094612bf4565b9190806122d0575b6122b7575b505060405190151581529081906020820190565b6122c992508082518301019101612aa0565b38806122a3565b508082511461229e565b3461055a57600036600319011261055a576020611f03612ab5565b3461055a576123033661088a565b9061231094929394612ab5565b156105d85761231e33612b3a565b801561239d575b1561059a57600293612335612d91565b95865260208601526040850152606084015260018114612375575b1461235757005b80516021556020810151602255604081015160235560600151602455005b612398836060908051601d556020810151601e556040810151601f550151602055565b612350565b50336001600160a01b036005541614612325565b3461055a57602036600319011261055a576123ca612ab5565b156105d8576123d833612b3a565b80156123ec575b1561059a57600435603155005b50336001600160a01b0360055416146123df565b3461055a5761240e3661158a565b9161241a959395612ab5565b156105d85761242833612b3a565b8015612497575b1561059a5761001695604051956124458761269d565b8652602086015260408501526060840152608083015260005260136020526040600020906080600491805184556020810151600185015560408101516002850155606081015160038501550151910155565b50336001600160a01b03600554161461242f565b3461055a57602036600319011261055a576124c4612ab5565b156105d8576124d233612b3a565b80156124e6575b1561059a57600435604555005b50336001600160a01b0360055416146124d9565b3461055a57604036600319011261055a57600435612516612ab5565b156105d85761252433612b3a565b8015612552575b1561059a5761253c60088210612d46565b6000526012602052602435604060002055600080f35b50336001600160a01b03600554161461252b565b3461055a57602036600319011261055a57600435600460206001600160a01b0360005416604051928380926369e8d84b60e11b82525afa8015610bc0576125b791600091610b925750610b34612def565b90670de0b6b3a764000090818102918183041490151715610871576104ee91610b8291612cf6565b3461055a57600036600319011261055a57602060ff602954166040519015158152f35b3461055a57600036600319011261055a576020611dcc6001600160a01b0360035416604051612630816126d5565b600681527f69416765282900000000000000000000000000000000000000000000000000008482015260405191611dc3836126f1565b634e487b7160e01b600052604160045260246000fd5b60e0810190811067ffffffffffffffff82111761269857604052565b612666565b60a0810190811067ffffffffffffffff82111761269857604052565b6060810190811067ffffffffffffffff82111761269857604052565b6040810190811067ffffffffffffffff82111761269857604052565b6020810190811067ffffffffffffffff82111761269857604052565b90601f8019910116810190811067ffffffffffffffff82111761269857604052565b9081602091031261055a575161274481610962565b90565b6040513d6000823e3d90fd5b604051906101e0820182811067ffffffffffffffff82111761269857604052565b604051906127818261267c565b565b612a686101c0612781926127bd6127a182516001600160a01b031690565b6001600160a01b03166001600160a01b03196002541617600255565b6127f06127d460208301516001600160a01b031690565b6001600160a01b03166001600160a01b03196003541617600355565b61282361280760408301516001600160a01b031690565b6001600160a01b03166001600160a01b03196004541617600455565b61285661283a60608301516001600160a01b031690565b6001600160a01b03166001600160a01b03196005541617600555565b61288961286d60808301516001600160a01b031690565b6001600160a01b03166001600160a01b03196006541617600655565b6128bc6128a060a08301516001600160a01b031690565b6001600160a01b03166001600160a01b03196007541617600755565b6128ef6128d360c08301516001600160a01b031690565b6001600160a01b03166001600160a01b03196008541617600855565b61292261290660e08301516001600160a01b031690565b6001600160a01b03166001600160a01b03196009541617600955565b61295661293a6101008301516001600160a01b031690565b6001600160a01b03166001600160a01b0319600a541617600a55565b61298a61296e6101208301516001600160a01b031690565b6001600160a01b03166001600160a01b0319600b541617600b55565b6129be6129a26101408301516001600160a01b031690565b6001600160a01b03166001600160a01b0319600c541617600c55565b6129f26129d66101608301516001600160a01b031690565b6001600160a01b03166001600160a01b0319600d541617600d55565b612a26612a0a6101808301516001600160a01b031690565b6001600160a01b03166001600160a01b0319600e541617600e55565b612a5a612a3e6101a08301516001600160a01b031690565b6001600160a01b03166001600160a01b0319600f541617600f55565b01516001600160a01b031690565b6001600160a01b03166001600160a01b03196010541617601055565b67ffffffffffffffff811161269857601f01601f191660200190565b9081602091031261055a575161274481610bc5565b612b106001600160a01b0360025416604051612ad0816126d5565b600881527f6973536166652829000000000000000000000000000000000000000000000000602082015260405191612b07836126f1565b60008352612bf4565b9080612b2f575b15610a26578060208061274493518301019101612aa0565b506020815114612b17565b612b9d6001600160a01b038060025416604051916020941684830152838252612b62826126d5565b60405190612b6f826126d5565b601582527f697353656375726542617365286164647265737329000000000000000000000085830152612bf4565b9080612bba575b15610a2657816127449282518301019101612aa0565b5081815114612ba4565b3d15612bef573d90612bd582612a84565b91612be3604051938461270d565b82523d6000602084013e565b606090565b9190823b15612c89577fffffffff00000000000000000000000000000000000000000000000000000000815160208093012016916040519180830193845281519160005b838110612c75575050509181612c656024826000979596889701878382015203600481018452018261270d565b51915afa612c71612bc4565b9091565b818101830151858201602401528201612c38565b505050600090604051612c9b816126f1565b6000815290565b9291612cb091600094612bf4565b9080612cd5575b612cbe5750565b90915060208180518101031261055a576020015190565b506020815114612cb7565b634e487b7160e01b600052601160045260246000fd5b8115612d00570490565b634e487b7160e01b600052601260045260246000fd5b90670de0b6b3a76400009182810292818404149015171561087157565b8181029291811591840414171561087157565b15612d4d57565b606460405162461bcd60e51b815260206004820152600c60248201527f696e76616c69642072616e6b00000000000000000000000000000000000000006044820152fd5b604051906080820182811067ffffffffffffffff8211176126985760405260006060838281528260208201528260408201520152565b90604051612dd4816126b9565b60406002829480548452600181015460208501520154910152565b604051612dfb816126f1565b60008152906000368137565b60405190612e14826126d5565b601282527f6f7a6f6e655072696365496e5553445428290000000000000000000000000000602083015256fea264697066735822122055c84c8522c2fa0c533a5e5cb46feb5f713e9a2077b9c31d76f65a299127c1b964736f6c63430008140033","linkReferences":{}},"methodIdentifiers":{"invalidator()":"52b06d64","rule741()":"0a5b38ab","transferRequest()":"3da8676f"},"id":114}