{"abi":[{"type":"constructor","inputs":[{"name":"_hex","type":"address","internalType":"address"}],"stateMutability":"nonpayable"},{"type":"fallback","stateMutability":"payable"},{"type":"receive","stateMutability":"payable"},{"type":"function","name":"Burn","inputs":[{"name":"amount","type":"uint256","internalType":"uint256"}],"outputs":[],"stateMutability":"nonpayable"},{"type":"function","name":"UserToForm","inputs":[{"name":"","type":"address","internalType":"address"}],"outputs":[{"name":"","type":"uint256","internalType":"uint256"}],"stateMutability":"view"},{"type":"function","name":"_delegatorCount","inputs":[],"outputs":[{"name":"","type":"uint256","internalType":"uint256"}],"stateMutability":"view"},{"type":"function","name":"_getImplementation","inputs":[{"name":"clone","type":"address","internalType":"address"}],"outputs":[{"name":"impl","type":"address","internalType":"address"}],"stateMutability":"view"},{"type":"function","name":"_isDelegatorNode","inputs":[{"name":"sender","type":"address","internalType":"address"}],"outputs":[{"name":"","type":"bool","internalType":"bool"}],"stateMutability":"view"},{"type":"function","name":"_isSafe","inputs":[],"outputs":[{"name":"","type":"bool","internalType":"bool"}],"stateMutability":"view"},{"type":"function","name":"_isSecureBase","inputs":[{"name":"sender","type":"address","internalType":"address"}],"outputs":[{"name":"","type":"bool","internalType":"bool"}],"stateMutability":"view"},{"type":"function","name":"_isSigner","inputs":[{"name":"sender","type":"address","internalType":"address"}],"outputs":[{"name":"","type":"bool","internalType":"bool"}],"stateMutability":"view"},{"type":"function","name":"actualTVL","inputs":[],"outputs":[{"name":"","type":"uint256","internalType":"uint256"}],"stateMutability":"view"},{"type":"function","name":"closeTransferTarget","inputs":[{"name":"to","type":"address","internalType":"address"}],"outputs":[],"stateMutability":"nonpayable"},{"type":"function","name":"currentRefreshId","inputs":[],"outputs":[{"name":"","type":"uint256","internalType":"uint256"}],"stateMutability":"view"},{"type":"function","name":"forms","inputs":[{"name":"","type":"uint256","internalType":"uint256"}],"outputs":[{"name":"from","type":"address","internalType":"address"},{"name":"to","type":"address","internalType":"address"}],"stateMutability":"view"},{"type":"function","name":"getBalance","inputs":[],"outputs":[{"name":"","type":"uint256","internalType":"uint256"}],"stateMutability":"view"},{"type":"function","name":"getForm","inputs":[{"name":"formId","type":"uint256","internalType":"uint256"}],"outputs":[{"name":"from","type":"address","internalType":"address"},{"name":"to","type":"address","internalType":"address"}],"stateMutability":"view"},{"type":"function","name":"getFormsCount","inputs":[],"outputs":[{"name":"","type":"uint256","internalType":"uint256"}],"stateMutability":"view"},{"type":"function","name":"getHexbase","inputs":[],"outputs":[{"name":"","type":"address","internalType":"address"}],"stateMutability":"view"},{"type":"function","name":"getImportedNodeByIndex","inputs":[{"name":"index","type":"uint256","internalType":"uint256"}],"outputs":[{"name":"node","type":"address","internalType":"address"}],"stateMutability":"view"},{"type":"function","name":"getimportedNodeCount","inputs":[],"outputs":[{"name":"nodesCount","type":"uint256","internalType":"uint256"}],"stateMutability":"view"},{"type":"function","name":"importRankBusiness","inputs":[{"name":"_fromAge","type":"uint256","internalType":"uint256"},{"name":"_toAge","type":"uint256","internalType":"uint256"}],"outputs":[],"stateMutability":"nonpayable"},{"type":"function","name":"importedNode","inputs":[{"name":"","type":"uint256","internalType":"uint256"}],"outputs":[{"name":"","type":"address","internalType":"address"}],"stateMutability":"view"},{"type":"function","name":"importuser","inputs":[{"name":"batchSize","type":"uint256","internalType":"uint256"}],"outputs":[],"stateMutability":"nonpayable"},{"type":"function","name":"owner","inputs":[],"outputs":[{"name":"","type":"address","internalType":"address"}],"stateMutability":"view"},{"type":"function","name":"refreshusers","inputs":[{"name":"batchSize","type":"uint256","internalType":"uint256"},{"name":"maxintervals","type":"uint256","internalType":"uint256"},{"name":"lastdays","type":"uint256","internalType":"uint256"}],"outputs":[],"stateMutability":"nonpayable"},{"type":"function","name":"resolveParent","inputs":[{"name":"","type":"address","internalType":"address"}],"outputs":[{"name":"","type":"address","internalType":"address"}],"stateMutability":"view"},{"type":"function","name":"resolveTransferTarget","inputs":[{"name":"to","type":"address","internalType":"address"}],"outputs":[{"name":"","type":"address","internalType":"address"}],"stateMutability":"view"},{"type":"function","name":"setsysdata","inputs":[{"name":"price","type":"uint256","internalType":"uint256"},{"name":"prevAge","type":"uint256","internalType":"uint256"},{"name":"cnt","type":"uint256[7]","internalType":"uint256[7]"}],"outputs":[],"stateMutability":"nonpayable"},{"type":"function","name":"setsysdatawithrefresh","inputs":[{"name":"batchSize","type":"uint256","internalType":"uint256"},{"name":"maxintervals","type":"uint256","internalType":"uint256"},{"name":"lastdays","type":"uint256","internalType":"uint256"},{"name":"price","type":"uint256","internalType":"uint256"},{"name":"prevAge","type":"uint256","internalType":"uint256"},{"name":"cnt","type":"uint256[7]","internalType":"uint256[7]"}],"outputs":[],"stateMutability":"nonpayable"},{"type":"function","name":"submitTransferForm","inputs":[{"name":"_from","type":"address","internalType":"address"},{"name":"_to","type":"address","internalType":"address"}],"outputs":[],"stateMutability":"nonpayable"},{"type":"function","name":"syncBaseAddr","inputs":[],"outputs":[],"stateMutability":"nonpayable"},{"type":"function","name":"syncSystem","inputs":[],"outputs":[],"stateMutability":"nonpayable"},{"type":"function","name":"systemAge","inputs":[],"outputs":[{"name":"","type":"uint256","internalType":"uint256"}],"stateMutability":"view"},{"type":"event","name":"EthBurned","inputs":[{"name":"sender","type":"address","indexed":true,"internalType":"address"},{"name":"amount","type":"uint256","indexed":false,"internalType":"uint256"}],"anonymous":false},{"type":"event","name":"EthTransferred","inputs":[{"name":"to","type":"address","indexed":true,"internalType":"address"},{"name":"amount","type":"uint256","indexed":false,"internalType":"uint256"}],"anonymous":false},{"type":"event","name":"HexBaseUpdated","inputs":[{"name":"previousHexBase","type":"address","indexed":true,"internalType":"address"},{"name":"newHexBase","type":"address","indexed":true,"internalType":"address"}],"anonymous":false},{"type":"event","name":"OwnerUpdated","inputs":[{"name":"previousOwner","type":"address","indexed":true,"internalType":"address"},{"name":"newOwner","type":"address","indexed":true,"internalType":"address"}],"anonymous":false},{"type":"error","name":"CallFailed","inputs":[]},{"type":"error","name":"InvalidAddress","inputs":[]},{"type":"error","name":"InvalidState","inputs":[]},{"type":"error","name":"NotAuthorized","inputs":[]},{"type":"error","name":"NotSafe","inputs":[]},{"type":"error","name":"ReentrancyGuardReentrantCall","inputs":[]},{"type":"error","name":"TargetCallFailed","inputs":[{"name":"selector","type":"bytes4","internalType":"bytes4"}]}],"bytecode":{"object":"0x608034620000a357601f62002f2738819003918201601f19168301916001600160401b03831184841017620000a857808492602094604052833981010312620000a357516001600160a01b03811690819003620000a3578015620000915760018060a01b031933816001541617600155600054161760005560016011556001601655604051612e689081620000bf8239f35b60405163e6c4247b60e01b8152600490fd5b600080fd5b634e487b7160e01b600052604160045260246000fdfe60806040526004361015610018575b361561001657005b005b60003560e01c806312065fe0146102085780631480a85b1461020357806318c864e3146101fe5780631f185d16146101f9578063339459a6146101f45780633676bd1f146101ef5780633b9b7955146101ea578063479fa2c3146101e55780634ef260a9146101e057806355ed5fee146101db57806385301b86146101d65780638d6edc14146101d15780638da5cb5b146101cc57806396970c96146101c7578063a1f7f539146101c2578063ab7e46ae146101bd578063ac233345146101b8578063af484526146101b3578063b8f1759a146101ae578063b90306ad146101a9578063c1e6cec2146101a4578063c54e44b01461019f578063c9a291501461019a578063cab3cc8d14610195578063e01ad5fd14610190578063e0a9bc2b1461018b578063e846034a14610186578063e981bcad14610181578063ed6c1b581461017c578063f245fe7a146101775763fdc10bc90361000e57611d13565b611600565b6114d9565b61144e565b611430565b611415565b61134e565b611330565b6112d0565b611262565b611225565b61113d565b6110f4565b6110c3565b61108a565b611041565b610fd7565b610f98565b610f3b565b610f1d565b610df7565b610c8b565b610be6565b610b37565b610b0e565b610a76565b610519565b610456565b610409565b610246565b3461022457600036600319011261022457602047604051908152f35b600080fd5b6001600160a01b031690565b6001600160a01b0381160361022457565b34610224576040806003193601126102245760043561026481610235565b60243561027081610235565b6001600160a01b03828116156103a4578116156103935761037a919261029f61029883610f64565b5415611d2e565b61037561034c61033860016102b2611d6f565b506102bd8982611da2565b01966102c98689611da2565b61031b6102d7600454610229565b966103166103108851806102ee8760208301610afb565b039a610302601f199c8d8101845283610d30565b61030a611ddc565b90612ccb565b91610f7e565b611da2565b610344610329600454610229565b91865193849160208301610afb565b03878101845283610d30565b61030a611e0e565b9151632707112160e01b6020820152600160248201529283604481015b03908101845283610d30565b612d7e565b5061039061038b6014549254610229565b610f64565b55005b825163e6c4247b60e01b8152600490fd5b835163e6c4247b60e01b8152600490fd5b634e487b7160e01b600052603260045260246000fd5b6014548110156103ea57601460005260206000209060011b0190600090565b6103b5565b6001600160a01b0391821681529116602082015260400190565b346102245760203660031901126102245760043560145481101561022457610430906103cb565b5060018060a01b036001818354169201541690610452604051928392836103ef565b0390f35b3461022457602080600319360112610224576104c960043561047781610235565b6002546040516001600160a01b0392831685820152848152911661049a82610cdf565b604051906104a782610cdf565b601182527069735369676e657228616464726573732960781b85830152612c34565b91908061050f575b156104fd5781816104eb9261045294518301019101612a95565b60405190151581529081906020820190565b604051633204506f60e01b8152600490fd5b50808251146104d1565b346102245760003660031901126102245761053d610538600054610229565b610229565b604051634bf9c0ad60e11b815290602082600481845afa9182156108a657600092610a55575b5060405163cfbffe5360e01b815291602083600481855afa9283156108a657600093610a34575b5060405163ab6e844f60e01b815290602082600481865afa9182156108a657600092610a13575b50604051630536340960e21b815291602083600481875afa9283156108a6576000936109f2575b5060405163d1f956b160e01b815292602084600481885afa9384156108a6576000946109d1575b50604051631cc3bfab60e31b815293602085600481895afa9485156108a6576000956109b0575b5060405163e09d394d60e01b81526020816004818a5afa9081156108a657600091610991575b506040516314ac1b5960e21b81526020816004818b5afa9081156108a657600091610972575b5060405163013cf08b60e01b815260006004820152916020836024818c5afa9283156108a657600093610951575b50604051635e09dbe760e01b8152976020896004818d5afa9485156108a657600499600096610930575b50604051635506ee0b60e11b8152996020908b90818e5afa9687156108a65760049a60009861090f575b50604051636402742760e01b81529a6020908c90818f5afa9889156108a65760049b60009a6108ee575b5060208d6040519d8e80926330125cf560e01b82525afa9a8b156108a6578d60049d60009d6108cc575b506020906040519e8f80926324768d9160e01b82525afa9c8d156108a65760009d6108ab575b506040516313b92d3560e31b81529d8e9081905a92600491602094fa9d8e156108a65760009e610875575b506107a2610d53565b9e8f916107af9083612794565b6107bc9060208301612794565b604001906107c991612794565b6107d69060608e01612794565b6107e39060808d01612794565b6107f09060a08c01612794565b6107fd9060c08b01612794565b61080a9060e08a01612794565b610818906101008901612794565b610826906101208801612794565b610834906101408701612794565b610842906101608601612794565b610850906101808501612794565b61085e906101a08401612794565b61086c906101c08301612794565b610016906127a3565b610898919e5060203d60201161089f575b6108908183610d30565b8101906122b4565b9c38610799565b503d610886565b6122c9565b6108c5919d5060203d60201161089f576108908183610d30565b9b3861076e565b6020919d506108e790823d841161089f576108908183610d30565b9c90610748565b610908919a5060203d60201161089f576108908183610d30565b983861071e565b61092991985060203d60201161089f576108908183610d30565b96386106f4565b61094a91965060203d60201161089f576108908183610d30565b94386106ca565b61096b91935060203d60201161089f576108908183610d30565b91386106a0565b61098b915060203d60201161089f576108908183610d30565b38610672565b6109aa915060203d60201161089f576108908183610d30565b3861064c565b6109ca91955060203d60201161089f576108908183610d30565b9338610626565b6109eb91945060203d60201161089f576108908183610d30565b92386105ff565b610a0c91935060203d60201161089f576108908183610d30565b91386105d8565b610a2d91925060203d60201161089f576108908183610d30565b90386105b1565b610a4e91935060203d60201161089f576108908183610d30565b913861058a565b610a6f91925060203d60201161089f576108908183610d30565b9038610563565b3461022457602036600319011261022457610a8f611f19565b610a97612aa9565b15610ae957610aa533612b1b565b8015610ad5575b15610ac357610abc600435612473565b6001601155005b60405163ea8e4eb560e01b8152600490fd5b506005546001600160a01b03163314610aac565b604051634ee2123760e11b8152600490fd5b6001600160a01b03909116815260200190565b34610224576000366003190112610224576000546040516001600160a01b039091168152602090f35b346102245760203660031901126102245760043580151580610bda575b15610b9b576000198101908111610b9657610b6e906103cb565b50610b866001610b7e8354610229565b920154610229565b90610452604051928392836103ef565b611e40565b60405162461bcd60e51b81526020600482015260176024820152761c1c9bdc1bdcd95c8b9a5b9d985b1a590b999bdc9b5a59604a1b6044820152606490fd5b50601454811115610b54565b3461022457602036600319011261022457600435610c0381610235565b6001600160a01b038116600081815260126020526040812054909281151580610c7f575b610c2f578380f35b6000198201918211610b9657610c7892610c4b610c68936103cb565b505084526012602052836040812055610c6381611ec7565b610f7e565b80546001600160a01b0319169055565b3880808380f35b50601454821115610c27565b34610224576000366003190112610224576020601654604051908152f35b634e487b7160e01b600052604160045260246000fd5b60e081019081106001600160401b03821117610cda57604052565b610ca9565b604081019081106001600160401b03821117610cda57604052565b602081019081106001600160401b03821117610cda57604052565b608081019081106001600160401b03821117610cda57604052565b601f909101601f19168101906001600160401b03821190821017610cda57604052565b604051906101e082016001600160401b03811183821017610cda57604052565b80606312156102245760405190610d8982610cbf565b81610124918211610224576044905b828210610da55750505090565b8135815260209182019101610d98565b8060c312156102245760405190610dcb82610cbf565b816101849182116102245760a4905b828210610de75750505090565b8135815260209182019101610dda565b346102245761012036600319011261022457610e1236610d73565b610e1a611f19565b610e22612aa9565b15610ae957610e3033612b1b565b8015610f09575b15610ac3576004906020610e4f610538600054610229565b6040516369e8d84b60e11b815293849182905afa9081156108a65761037561036992610ee094600091610eeb575b506040516315ec7fad60e01b60208201526004356024820152610eb49080604481015b0392610375601f1994858101845283610d30565b50610ec0600454610229565b92604051948591637818cdd760e01b60208401526024356024840161275d565b506100166001601155565b610f03915060203d811161089f576108908183610d30565b38610e7d565b506005546001600160a01b03163314610e37565b34610224576000366003190112610224576020601754604051908152f35b34610224576000366003190112610224576001546040516001600160a01b039091168152602090f35b6001600160a01b0316600090815260126020526040902090565b6001600160a01b0316600090815260136020526040902090565b34610224576020366003190112610224576020600435610fb781610235565b60018060a01b038091166000526013825260406000205416604051908152f35b3461022457600036600319011261022457602061103960018060a01b036006541660405161100481610cdf565b601381527267657464656c656761746f72436f756e74282960681b848201526040519161103083610cfa565b60008352612d0f565b604051908152f35b3461022457602036600319011261022457600435601554811015610224576015600052600080516020612e1383398151915201546040516001600160a01b039091168152602090f35b346102245760203660031901126102245760206110b16004356110ac81610235565b611e72565b6040516001600160a01b039091168152f35b346102245760203660031901126102245760206110ea6004356110e581610235565b612b1b565b6040519015158152f35b34610224576020366003190112610224576004356015548110156103ea576015600052600080516020612e1383398151915201546040516001600160a01b039091168152602090f35b3461022457602036600319011261022457600435611159612aa9565b15610ae9576005546001600160a01b03163303610ac357600090600460206111846105388554610229565b6040516311be646b60e21b815292839182905afa80156108a65783808481949382948391611207575b505af16111b8612bd9565b50156104fd577fcdcc745fe377b103b45fa0cec23ae3ef93d6fc6a84a01f0d18c40b354dd1d5d86112016111f0610538600b54610229565b604051938452929081906020820190565b0390a280f35b61121f915060203d811161089f576108908183610d30565b386111ad565b346102245760203660031901126102245760043561124281610235565b60018060a01b031660005260126020526020604060002054604051908152f35b346102245760203660031901126102245760043561127f81610235565b803b600061128c82611dc1565b9261129a6040519485610d30565b82845260208401903c602d8151106112be57602a602091015160601c604051908152f35b60405163baf3f0f760e01b8152600490fd5b34610224576060366003190112610224576112e9611f19565b6112f1612aa9565b15610ae9576112ff33612b1b565b801561131c575b15610ac357610abc60443560243560043561206b565b506005546001600160a01b03163314611306565b34610224576000366003190112610224576020601454604051908152f35b346102245760208060031936011261022457610452906004359061137182610235565b6006546040516001600160a01b03938416838201528281529216916113d19061139981610cdf565b6040516113a581610cdf565b6018815277697364656c656761746f724e6f646528616464726573732960401b84820152600094612c34565b91908061140b575b6113f2575b505060405190151581529081906020820190565b61140492508082518301019101612a95565b38806113de565b50808251146113d9565b346102245760003660031901126102245760206110ea612aa9565b34610224576000366003190112610224576020601554604051908152f35b3461022457604036600319011261022457611467611f19565b61146f612aa9565b15610ae95761147d33612b1b565b80156114c5575b15610ac357610ee060018060a01b0360045416604051906333b59a5b60e01b6020830152600435602483015260243560448301526044825261037582610d15565b506005546001600160a01b03163314611484565b3461022457610180366003190112610224576114f436610db5565b6114fc611f19565b611504612aa9565b15610ae95761151233612b1b565b80156115ec575b15610ac3576004906020611531610538600054610229565b6040516369e8d84b60e11b815293849182905afa9081156108a657610375610369926115b2946000916115ce575b506040516315ec7fad60e01b60208201526064356024820152611586908060448101610ea0565b50611592600454610229565b92604051948591637818cdd760e01b60208401526084356024840161275d565b506115c460443560243560043561206b565b6100166001601155565b6115e6915060203d811161089f576108908183610d30565b3861155f565b506005546001600160a01b03163314611519565b3461022457600080600319360112611d105761161a611f19565b6116276105388254610229565b60408051634bf9c0ad60e11b8152600492602092919083908290869082905afa9081156108a6578591611cf3575b5061167582516319ca2cd360e11b92838683015286825261037582610cdf565b5083836116856105388854610229565b84516369e8d84b60e11b815292839182905afa80156108a6576116be918791611cd6575b50835190838683015286825261037582610cdf565b5083836116ce6105388854610229565b845163ab6e844f60e01b815292839182905afa80156108a657611706918791611cd65750835190838683015286825261037582610cdf565b5083836117166105388854610229565b845163cfbffe5360e01b815292839182905afa80156108a65761174e918791611cd65750835190838683015286825261037582610cdf565b50838361175e6105388854610229565b8451630536340960e21b815292839182905afa80156108a657611796918791611cd65750835190838683015286825261037582610cdf565b5083836117a66105388854610229565b845163d1f956b160e01b815292839182905afa80156108a6576117de918791611cd65750835190838683015286825261037582610cdf565b5083836117ee6105388854610229565b8451631cc3bfab60e31b815292839182905afa80156108a657611826918791611cd65750835190838683015286825261037582610cdf565b5083836118366105388854610229565b845163e09d394d60e01b815292839182905afa80156108a65761186e918791611cd65750835190838683015286825261037582610cdf565b50838361187e6105388854610229565b84516314ac1b5960e21b815292839182905afa80156108a6576118b6918791611cd65750835190838683015286825261037582610cdf565b506118c46105388654610229565b838351809263013cf08b60e01b825281806118e68a8201906000602083019252565b03915afa80156108a65761190f918791611cd65750835190838683015286825261037582610cdf565b5061191d6105388654610229565b9082518481635bb8e44b60e11b9485825281806119418b8201906000602083019252565b03915afa80156108a65761196b918891611cb9575b50845190838783015287825261037582610cdf565b506119796105388754610229565b848451809285825281806119948b8201906001602083019252565b03915afa80156108a6576119bd918891611cb95750845190838783015287825261037582610cdf565b506119cb6105388754610229565b848451809285825281806119e68b8201906002602083019252565b03915afa80156108a657611a0f918891611cb95750845190838783015287825261037582610cdf565b50611a1d6105388754610229565b84845180928582528180611a388b8201906003602083019252565b03915afa80156108a657611a61918891611cb95750845190838783015287825261037582610cdf565b5083611a706105388854610229565b92845193849182528180611a8b8a8201906004602083019252565b03915afa9182156108a6578592611ab8918891611c9c575b50845190838783015284825261037582610cdf565b5083611ac76105388854610229565b8451635e09dbe760e01b815293849182905afa9182156108a6578592611b02918891611c9c5750845190838783015284825261037582610cdf565b5083611b116105388854610229565b8451635506ee0b60e11b815293849182905afa9182156108a6578592611b4c918891611c9c5750845190838783015284825261037582610cdf565b5083611b5b6105388854610229565b8451636402742760e01b815293849182905afa9182156108a6578592611b96918891611c9c5750845190838783015284825261037582610cdf565b5083611ba56105388854610229565b84516330125cf560e01b815293849182905afa9182156108a6578592611be0918891611c9c5750845190838783015284825261037582610cdf565b5083611bef6105388854610229565b84516324768d9160e01b815293849182905afa9182156108a6578592611c2a918891611c9c5750845190838783015284825261037582610cdf565b5083611c396105388854610229565b84516313b92d3560e31b815296879182905afa9283156108a657611c6f958794611c7d575b505193840152825261037582610cdf565b50611c7a6001601155565b80f35b611c95919450853d871161089f576108908183610d30565b9238611c5e565b611cb39150863d881161089f576108908183610d30565b38611aa3565b611cd09150863d881161089f576108908183610d30565b38611956565b611ced9150853d871161089f576108908183610d30565b386116a9565b611d0a9150833d851161089f576108908183610d30565b38611655565b80fd5b34610224576000366003190112610224576020611039612b9c565b15611d3557565b60405162461bcd60e51b815260206004820152601260248201527170726f706f7365722e746f2e65786973747360701b6044820152606490fd5b601454600160401b811015610cda5760018101806014558110156103ea57601460005260206000209060011b0190600090565b80546001600160a01b0319166001600160a01b03909216919091179055565b6001600160401b038111610cda57601f01601f191660200190565b60405190611de982610cdf565b60168252756765744e6f6465506172656e7428616464726573732960501b6020830152565b60405190611e1b82610cdf565b601682527567657455736572546f496e737428616464726573732960501b6020830152565b634e487b7160e01b600052601160045260246000fd5b600019810191908211610b9657565b91908203918211610b9657565b6001600160a01b0390811660009081526012602052604090205480151580611ebb575b611ea0575050600090565b6000198101908111610b9657611eb5906103cb565b50541690565b50601454811115611e95565b601554600160401b811015610cda5760018101806015558110156103ea576015600052600080516020612e138339815191520180546001600160a01b0319166001600160a01b03909216919091179055565b600260115414611f2a576002601155565b604051633ee5aeb560e01b8152600490fd5b15611f4357565b60405162461bcd60e51b81526020600482015260156024820152741d5d1a5b1a5d1e4b98985d18da0b9a5b9d985b1a59605a1b6044820152606490fd5b604051611f8c81610cfa565b60008152906000368137565b60405190611fa582610cdf565b600f82526e6765744e6f646573436f756e74282960881b6020830152565b9060018201809211610b9657565b91908201809211610b9657565b6000198114610b965760010190565b60405190611ffa82610cdf565b60188252776765744e6f6465496e737453746f722875696e743235362960401b6020830152565b9190826040910312610224576020825161203a81610235565b92015161204681610235565b90565b6040519061205682610cdf565b600682526564616765282960d01b6020830152565b80151580612218575b61207d90611f3c565b6004906120a461208d8354610229565b612095611f80565b9061209e611f98565b90612d0f565b928315612211578360165411612202575b6120ca6120c56016549384611fd1565b611e56565b948486116121f8575b6120e4906120df612b9c565b611e65565b915b8581111561211857505050908210905061210757506121056001601655565b565b61211361210591611fc3565b601655565b6121b5906121268554610229565b604080519061217661216860209380612146888783019190602083019252565b039561215a601f1997888101845283610d30565b612162611fed565b90612c09565b838082518301019101612021565b6001600160a01b03918216929183156121ed576121a591612195611f80565b9161219e612049565b9116612d0f565b88116121ba575b50505050611fde565b6120e6565b51639c75dd3560e01b92810192909252602482018690526121e392610375908360448101610369565b50388080806121ac565b505050505050611fde565b93945084936120d3565b61220c6001601655565b6120b5565b5050505050565b506064811115612074565b1561222a57565b60405162461bcd60e51b815260206004820152601c60248201527b1d5d1a5b1a5d1e4b98985d18da0b9b1a5b5a5d0b995e18d95959195960221b6044820152606490fd5b1561227557565b60405162461bcd60e51b81526020600482015260176024820152761d5d1a5b1a5d1e4b9d5b9cd958dd5c994b99985a5b1959604a1b6044820152606490fd5b90816020910312610224575161204681610235565b6040513d6000823e3d90fd5b156122dc57565b60405162461bcd60e51b81526020600482015260136024820152727574696c6974792e696d706f72742e646f6e6560681b6044820152606490fd5b6040519061232482610cdf565b60178252766765744e6f64654279496e6465782875696e743235362960481b6020830152565b1561235157565b60405162461bcd60e51b815260206004820152601660248201527570726f78792e696e76616c69642e696e7374616e636560501b6044820152606490fd5b6040519061239c82610cdf565b6013825272496e7374546f5573657228616464726573732960681b6020830152565b156123c557565b60405162461bcd60e51b815260206004820152601260248201527170726f78792e696e76616c69642e6e6f646560701b6044820152606490fd5b6040519061240c82610cdf565b601082526f6765744e6f646528616464726573732960801b6020830152565b5190811515820361022457565b908160a091031261022457805191602082015161245481610235565b91604081015191612046608061246c6060850161242b565b930161242b565b6124806064821115612223565b61249161248c30612b1b565b61226e565b61249f610538600054610229565b6040805163111ea8c160e21b81529160049160209182908590859082905afa9384156108a6576000946126e8575b506124e76124d9611f80565b6124e1611f98565b86612d0f565b9485156126e0576125106124fe61208d8654610229565b9161250a8389116122d5565b82611fd1565b958087116126d8575b505b85811061252a57505050505050565b6126889061268361267e8761267588875161257281612550898d83019190602083019252565b0391612564601f1993848101835282610d30565b61256c612317565b86612ccb565b6001600160a01b0391612588828416151561234a565b8b8231968c600161260f6126016125e76125f36125cc6125b26125be8c89519283918d8301610afb565b038c8101835282610d30565b6125c661238f565b89612ccb565b996125da8c8c1615156123be565b86519283918a8301610afb565b03898101835282610d30565b6125fb6123ff565b86612c09565b858082518301019101612438565b50505097909716966126228115156123be565b1480156126cf575b61268d575b505061036961265a859661264a869761031661037598610f7e565b6126548780612707565b54610229565b948d519687936350db85d160e01b90850152602484016103ef565b50601754611fd1565b601755565b611fde565b61251b565b6126c36126af610369936126bb610375989961265a9551938491898301610afb565b03888101845283610d30565b61030a61238f565b95945050508e8c61262f565b5085151561262a565b955038612519565b505050505050565b612700919450823d841161089f576108908183610d30565b92386124cd565b60145490600160401b821015610cda5760018391612738612730858461273e97016014556103cb565b509182611da2565b01611da2565b6014546001600160a01b03909116600090815260126020526040902055565b908152610100810192919060209060009082015b6007821061277f5750505050565b82806001928651815201940191019092612771565b6001600160a01b039091169052565b612a736101c0612105926127dc6127ba8251610229565b600280546001600160a01b0319166001600160a01b0392909216919091179055565b61280e6127ec6020830151610229565b600380546001600160a01b0319166001600160a01b0392909216919091179055565b61284061281e6040830151610229565b600480546001600160a01b0319166001600160a01b0392909216919091179055565b6128726128506060830151610229565b600580546001600160a01b0319166001600160a01b0392909216919091179055565b6128a46128826080830151610229565b600680546001600160a01b0319166001600160a01b0392909216919091179055565b6128d66128b460a0830151610229565b600780546001600160a01b0319166001600160a01b0392909216919091179055565b6129086128e660c0830151610229565b600880546001600160a01b0319166001600160a01b0392909216919091179055565b61293a61291860e0830151610229565b600980546001600160a01b0319166001600160a01b0392909216919091179055565b61296d61294b610100830151610229565b600a80546001600160a01b0319166001600160a01b0392909216919091179055565b6129a061297e610120830151610229565b600b80546001600160a01b0319166001600160a01b0392909216919091179055565b6129d36129b1610140830151610229565b600c80546001600160a01b0319166001600160a01b0392909216919091179055565b612a066129e4610160830151610229565b600d80546001600160a01b0319166001600160a01b0392909216919091179055565b612a39612a17610180830151610229565b600e80546001600160a01b0319166001600160a01b0392909216919091179055565b612a6c612a4a6101a0830151610229565b600f80546001600160a01b0319166001600160a01b0392909216919091179055565b0151610229565b601080546001600160a01b0319166001600160a01b0392909216919091179055565b90816020910312610224576120469061242b565b600254604051612af1916001600160a01b031690612ac681610cdf565b6008815267697353616665282960c01b602082015260405191612ae883610cfa565b60008352612c34565b9080612b10575b156104fd578060208061204693518301019101612a95565b506020815114612af8565b612b7560018060a01b038060025416604051916020941684830152838252612b4282610cdf565b60405190612b4f82610cdf565b601582527469735365637572654261736528616464726573732960581b85830152612c34565b9080612b92575b156104fd57816120469282518301019101612a95565b5081815114612b7c565b600354604051612046916001600160a01b031690612bb981610cdf565b600681526569416765282960d01b60208201526040519161103083610cfa565b3d15612c04573d90612bea82611dc1565b91612bf86040519384610d30565b82523d6000602084013e565b606090565b90612c149291612c34565b9060009015612c21575090565b6040519150612c2f82610cfa565b815290565b9190823b15612cb2578051906020918263ffffffff60e01b92012016916040519180830193845281519160005b838110612c9e575050509181612c8e60248260009795968897018783820152036004810184520182610d30565b51915afa612c9a612bd9565b9091565b818101830151858201602401528201612c61565b505050600090604051612cc481610cfa565b6000815290565b9291612cd991600094612c34565b9080612d04575b612ce75750565b909150602081805181010312610224576020015161022981610235565b506020815114612ce0565b9291612d1d91600094612c34565b9080612d42575b612d2b5750565b909150602081805181010312610224576020015190565b506020815114612d24565b906020825192015163ffffffff60e01b908181169360048110612d6f57505050565b60040360031b82901b16169150565b6001600160a01b03811615612e0057600080918351908260208601915af190612da5612bd9565b9115612daf575090565b805160009190600411612dfa57612dc69150612d4d565b815115612dd65750805190602001fd5b604051630870274d60e21b81526001600160e01b0319919091166004820152602490fd5b50612dc6565b60405163e6c4247b60e01b8152600490fdfe55f448fdea98c4d29eb340757ef0a66cd03dbb9538908a6a81d96026b71ec475a2646970667358221220fe62c717b2a8b0aaa35a6608763f1ba045acf687e4f8b67866317909f216afba64736f6c63430008140033","linkReferences":{}},"methodIdentifiers":{"Burn(uint256)":"b90306ad","UserToForm(address)":"c1e6cec2","_delegatorCount()":"a1f7f539","_getImplementation(address)":"c54e44b0","_isDelegatorNode(address)":"e01ad5fd","_isSafe()":"e0a9bc2b","_isSecureBase(address)":"af484526","_isSigner(address)":"1f185d16","actualTVL()":"8d6edc14","closeTransferTarget(address)":"4ef260a9","currentRefreshId()":"55ed5fee","forms(uint256)":"18c864e3","getBalance()":"12065fe0","getForm(uint256)":"479fa2c3","getFormsCount()":"cab3cc8d","getHexbase()":"3b9b7955","getImportedNodeByIndex(uint256)":"b8f1759a","getimportedNodeCount()":"e846034a","importRankBusiness(uint256,uint256)":"e981bcad","importedNode(uint256)":"ab7e46ae","importuser(uint256)":"3676bd1f","owner()":"8da5cb5b","refreshusers(uint256,uint256,uint256)":"c9a29150","resolveParent(address)":"96970c96","resolveTransferTarget(address)":"ac233345","setsysdata(uint256,uint256,uint256[7])":"85301b86","setsysdatawithrefresh(uint256,uint256,uint256,uint256,uint256,uint256[7])":"ed6c1b58","submitTransferForm(address,address)":"1480a85b","syncBaseAddr()":"339459a6","syncSystem()":"f245fe7a","systemAge()":"fdc10bc9"},"id":24}