{"abi":[{"type":"constructor","inputs":[{"name":"_hex","type":"address","internalType":"address"}],"stateMutability":"nonpayable"},{"type":"fallback","stateMutability":"payable"},{"type":"receive","stateMutability":"payable"},{"type":"function","name":"Burn","inputs":[{"name":"amount","type":"uint256","internalType":"uint256"}],"outputs":[],"stateMutability":"nonpayable"},{"type":"function","name":"_delegatorCount","inputs":[],"outputs":[{"name":"","type":"uint256","internalType":"uint256"}],"stateMutability":"view"},{"type":"function","name":"_getImplementation","inputs":[{"name":"clone","type":"address","internalType":"address"}],"outputs":[{"name":"impl","type":"address","internalType":"address"}],"stateMutability":"view"},{"type":"function","name":"_isDelegatorNode","inputs":[{"name":"sender","type":"address","internalType":"address"}],"outputs":[{"name":"","type":"bool","internalType":"bool"}],"stateMutability":"view"},{"type":"function","name":"_isSafe","inputs":[],"outputs":[{"name":"","type":"bool","internalType":"bool"}],"stateMutability":"view"},{"type":"function","name":"_isSecureBase","inputs":[{"name":"sender","type":"address","internalType":"address"}],"outputs":[{"name":"","type":"bool","internalType":"bool"}],"stateMutability":"view"},{"type":"function","name":"_isSigner","inputs":[{"name":"sender","type":"address","internalType":"address"}],"outputs":[{"name":"","type":"bool","internalType":"bool"}],"stateMutability":"view"},{"type":"function","name":"getBalance","inputs":[],"outputs":[{"name":"","type":"uint256","internalType":"uint256"}],"stateMutability":"view"},{"type":"function","name":"getHexbase","inputs":[],"outputs":[{"name":"","type":"address","internalType":"address"}],"stateMutability":"view"},{"type":"function","name":"onCallback","inputs":[{"name":"payload","type":"bytes","internalType":"bytes"}],"outputs":[],"stateMutability":"nonpayable"},{"type":"function","name":"owner","inputs":[],"outputs":[{"name":"","type":"address","internalType":"address"}],"stateMutability":"view"},{"type":"function","name":"syncBaseAddr","inputs":[],"outputs":[],"stateMutability":"nonpayable"},{"type":"function","name":"systemAge","inputs":[],"outputs":[{"name":"","type":"uint256","internalType":"uint256"}],"stateMutability":"view"},{"type":"event","name":"EthBurned","inputs":[{"name":"sender","type":"address","indexed":true,"internalType":"address"},{"name":"amount","type":"uint256","indexed":false,"internalType":"uint256"}],"anonymous":false},{"type":"event","name":"EthTransferred","inputs":[{"name":"to","type":"address","indexed":true,"internalType":"address"},{"name":"amount","type":"uint256","indexed":false,"internalType":"uint256"}],"anonymous":false},{"type":"event","name":"HexBaseUpdated","inputs":[{"name":"previousHexBase","type":"address","indexed":true,"internalType":"address"},{"name":"newHexBase","type":"address","indexed":true,"internalType":"address"}],"anonymous":false},{"type":"event","name":"OwnerUpdated","inputs":[{"name":"previousOwner","type":"address","indexed":true,"internalType":"address"},{"name":"newOwner","type":"address","indexed":true,"internalType":"address"}],"anonymous":false},{"type":"error","name":"CallFailed","inputs":[]},{"type":"error","name":"InvalidAddress","inputs":[]},{"type":"error","name":"InvalidState","inputs":[]},{"type":"error","name":"NotAuthorized","inputs":[]},{"type":"error","name":"NotSafe","inputs":[]},{"type":"error","name":"TargetCallFailed","inputs":[{"name":"selector","type":"bytes4","internalType":"bytes4"}]}],"bytecode":{"object":"0x60803461009257601f61157338819003918201601f19168301916001600160401b038311848410176100975780849260209460405283398101031261009257516001600160a01b038116908190036100925780156100805760018060a01b03193381600154161760015560005416176000556040516114c590816100ae8239f35b60405163e6c4247b60e01b8152600490fd5b600080fd5b634e487b7160e01b600052604160045260246000fdfe60806040526004361015610018575b361561001657005b005b60003560e01c806312065fe0146100e85780631f185d16146100e3578063339459a6146100de5780633b9b7955146100d95780638da5cb5b146100d45780639e6c4bd1146100cf578063a1f7f539146100ca578063af484526146100c5578063b90306ad146100c0578063c54e44b0146100bb578063e01ad5fd146100b6578063e0a9bc2b146100b15763fdc10bc90361000e57610b7f565b610b64565b610a9d565b610a64565b610958565b610927565b6108bd565b61084b565b610773565b61074a565b6101ed565b610126565b3461010457600036600319011261010457602047604051908152f35b600080fd5b6001600160a01b031690565b6001600160a01b0381160361010457565b34610104576020806003193601126101045761019960043561014781610115565b6002546040516001600160a01b0392831685820152848152911661016a826107b2565b60405190610177826107b2565b601182527069735369676e657228616464726573732960781b858301526113aa565b9190806101e3575b156101d15781816101bb926101cd9451830101910161129f565b60405190151581529081906020820190565b0390f35b604051633204506f60e01b8152600490fd5b50808251146101a1565b346101045760003660031901126101045761021161020c600054610109565b610109565b604051634bf9c0ad60e11b815290602082600481845afa91821561057a57600092610729575b5060405163cfbffe5360e01b815291602083600481855afa92831561057a57600093610708575b5060405163ab6e844f60e01b815290602082600481865afa91821561057a576000926106e7575b50604051630536340960e21b815291602083600481875afa92831561057a576000936106c6575b5060405163d1f956b160e01b815292602084600481885afa93841561057a576000946106a5575b50604051631cc3bfab60e31b815293602085600481895afa94851561057a57600095610684575b5060405163e09d394d60e01b81526020816004818a5afa90811561057a57600091610665575b506040516314ac1b5960e21b81526020816004818b5afa90811561057a57600091610646575b5060405163013cf08b60e01b815260006004820152916020836024818c5afa92831561057a57600093610625575b50604051635e09dbe760e01b8152976020896004818d5afa94851561057a57600499600096610604575b50604051635506ee0b60e11b8152996020908b90818e5afa96871561057a5760049a6000986105e3575b50604051636402742760e01b81529a6020908c90818f5afa98891561057a5760049b60009a6105c2575b5060208d6040519d8e80926330125cf560e01b82525afa9a8b1561057a578d60049d60009d6105a0575b506020906040519e8f80926324768d9160e01b82525afa9c8d1561057a5760009d61057f575b506040516313b92d3560e31b81529d8e9081905a92600491602094fa9d8e1561057a5760009e610549575b50610476610810565b9e8f916104839083610f9e565b6104909060208301610f9e565b6040019061049d91610f9e565b6104aa9060608e01610f9e565b6104b79060808d01610f9e565b6104c49060a08c01610f9e565b6104d19060c08b01610f9e565b6104de9060e08a01610f9e565b6104ec906101008901610f9e565b6104fa906101208801610f9e565b610508906101408701610f9e565b610516906101608601610f9e565b610524906101808501610f9e565b610532906101a08401610f9e565b610540906101c08301610f9e565b61001690610fad565b61056c919e5060203d602011610573575b61056481836107ed565b810190610bcb565b9c3861046d565b503d61055a565b610be3565b610599919d5060203d6020116105735761056481836107ed565b9b38610442565b6020919d506105bb90823d84116105735761056481836107ed565b9c9061041c565b6105dc919a5060203d6020116105735761056481836107ed565b98386103f2565b6105fd91985060203d6020116105735761056481836107ed565b96386103c8565b61061e91965060203d6020116105735761056481836107ed565b943861039e565b61063f91935060203d6020116105735761056481836107ed565b9138610374565b61065f915060203d6020116105735761056481836107ed565b38610346565b61067e915060203d6020116105735761056481836107ed565b38610320565b61069e91955060203d6020116105735761056481836107ed565b93386102fa565b6106bf91945060203d6020116105735761056481836107ed565b92386102d3565b6106e091935060203d6020116105735761056481836107ed565b91386102ac565b61070191925060203d6020116105735761056481836107ed565b9038610285565b61072291935060203d6020116105735761056481836107ed565b913861025e565b61074391925060203d6020116105735761056481836107ed565b9038610237565b34610104576000366003190112610104576000546040516001600160a01b039091168152602090f35b34610104576000366003190112610104576001546040516001600160a01b039091168152602090f35b634e487b7160e01b600052604160045260246000fd5b604081019081106001600160401b038211176107cd57604052565b61079c565b602081019081106001600160401b038211176107cd57604052565b601f909101601f19168101906001600160401b038211908210176107cd57604052565b604051906101e082016001600160401b038111838210176107cd57604052565b6001600160401b0381116107cd57601f01601f191660200190565b34610104576020366003190112610104576004356001600160401b038111610104573660238201121561010457806004013561088681610830565b9061089460405192836107ed565b808252366024828501011161010457602081600092602461001696018386013783010152610bef565b3461010457600036600319011261010457602061091f60018060a01b03600654166040516108ea816107b2565b601381527267657464656c656761746f72436f756e74282960681b8482015260405191610916836107d2565b60008352611408565b604051908152f35b3461010457602036600319011261010457602061094e60043561094981610115565b611329565b6040519015158152f35b34610104576020366003190112610104576004356109746112b7565b15610a52576005546001600160a01b03163303610a40576000906004602061099f61020c8554610109565b6040516311be646b60e21b815292839182905afa801561057a5783808481949382948391610a22575b505af16109d3610df7565b50156101d1577fcdcc745fe377b103b45fa0cec23ae3ef93d6fc6a84a01f0d18c40b354dd1d5d8610a1c610a0b61020c600b54610109565b604051938452929081906020820190565b0390a280f35b610a3a915060203d81116105735761056481836107ed565b386109c8565b60405163ea8e4eb560e01b8152600490fd5b604051634ee2123760e11b8152600490fd5b34610104576020366003190112610104576020610a8b600435610a8681610115565b611446565b6040516001600160a01b039091168152f35b3461010457602080600319360112610104576101cd9060043590610ac082610115565b6006546040516001600160a01b0393841683820152828152921691610b2090610ae8816107b2565b604051610af4816107b2565b6018815277697364656c656761746f724e6f646528616464726573732960401b848201526000946113aa565b919080610b5a575b610b41575b505060405190151581529081906020820190565b610b539250808251830101910161129f565b3880610b2d565b5080825114610b28565b3461010457600036600319011261010457602061094e6112b7565b3461010457600036600319011261010457602061091f60018060a01b0360035416604051610bac816107b2565b600681526569416765282960d01b8482015260405191610916836107d2565b908160209103126101045751610be081610115565b90565b6040513d6000823e3d90fd5b610c386020610bfd33611446565b610c0b61020c600054610109565b6040516333ea87db60e21b81526001600160a01b0390921660048301529092839190829081906024820190565b03915afa90811561057a57600091610cb9575b506001600160a01b03811615159081610ca9575b50610c97575b60405162461bcd60e51b815260206004820152600a6024820152690496e76616c6964204f760b41b6044820152606490fd5b805115610c6557610ca790610e65565b565b610cb39150611329565b38610c5f565b610cd1915060203d81116105735761056481836107ed565b38610c4b565b805160141015610ce75760340190565b634e487b7160e01b600052603260045260246000fd5b805160151015610ce75760350190565b805160161015610ce75760360190565b805160171015610ce75760370190565b908151811015610ce7570160200190565b634e487b7160e01b600052601160045260246000fd5b601719810191908211610d6357565b610d3e565b90610d7282610830565b610d7f60405191826107ed565b8281528092610d90601f1991610830565b0190602036910137565b6000198114610d635760010190565b9060188201809211610d6357565b6001600160e01b0319909116815281519160005b838110610de15750509060049101016000815290565b8060208092840101516004828601015201610dcb565b3d15610e22573d90610e0882610830565b91610e1660405193846107ed565b82523d6000602084013e565b606090565b15610e2e57565b60405162461bcd60e51b815260206004820152600f60248201526e18d85b1b189858dac819985a5b1959608a1b6044820152606490fd5b90602082015160601c91610ea9610e9c610e8f610e8184610cd7565b516001600160f81b03191690565b6001600160f81b03191690565b6001600160e01b03191690565b610ec9610ebb610e8f610e8185610cfd565b60081c62ffffff60e01b1690565b17610ee9610edc610e8f610e8185610d0d565b60101c61ffff60e01b1690565b17610f08610efc610e8f610e8185610d1d565b60181c60ff60e01b1690565b1791610f1c610f178351610d54565b610d68565b9360005b8551811015610f5a5780610f42610e81610f3c610f5594610da9565b87610d2d565b60001a610f4f8289610d2d565b53610d9a565b610f20565b5060009250610ca79383610f7e610f8c829598604051928391602083019687610db7565b03601f1981018352826107ed565b51925af1610f98610df7565b50610e27565b6001600160a01b039091169052565b61127d6101c0610ca792610fe6610fc48251610109565b600280546001600160a01b0319166001600160a01b0392909216919091179055565b611018610ff66020830151610109565b600380546001600160a01b0319166001600160a01b0392909216919091179055565b61104a6110286040830151610109565b600480546001600160a01b0319166001600160a01b0392909216919091179055565b61107c61105a6060830151610109565b600580546001600160a01b0319166001600160a01b0392909216919091179055565b6110ae61108c6080830151610109565b600680546001600160a01b0319166001600160a01b0392909216919091179055565b6110e06110be60a0830151610109565b600780546001600160a01b0319166001600160a01b0392909216919091179055565b6111126110f060c0830151610109565b600880546001600160a01b0319166001600160a01b0392909216919091179055565b61114461112260e0830151610109565b600980546001600160a01b0319166001600160a01b0392909216919091179055565b611177611155610100830151610109565b600a80546001600160a01b0319166001600160a01b0392909216919091179055565b6111aa611188610120830151610109565b600b80546001600160a01b0319166001600160a01b0392909216919091179055565b6111dd6111bb610140830151610109565b600c80546001600160a01b0319166001600160a01b0392909216919091179055565b6112106111ee610160830151610109565b600d80546001600160a01b0319166001600160a01b0392909216919091179055565b611243611221610180830151610109565b600e80546001600160a01b0319166001600160a01b0392909216919091179055565b6112766112546101a0830151610109565b600f80546001600160a01b0319166001600160a01b0392909216919091179055565b0151610109565b601080546001600160a01b0319166001600160a01b0392909216919091179055565b90816020910312610104575180151581036101045790565b6002546040516112ff916001600160a01b0316906112d4816107b2565b6008815267697353616665282960c01b6020820152604051916112f6836107d2565b600083526113aa565b908061131e575b156101d15780602080610be09351830101910161129f565b506020815114611306565b61138360018060a01b038060025416604051916020941684830152838252611350826107b2565b6040519061135d826107b2565b601582527469735365637572654261736528616464726573732960581b858301526113aa565b90806113a0575b156101d15781610be0928251830101910161129f565b508181511461138a565b803b156113ef57815160209283012060405160009485948201926113df918391610f7e91906001600160e01b03191686610db7565b51915afa6113eb610df7565b9091565b505050600090604051611401816107d2565b6000815290565b9291611416916000946113aa565b908061143b575b6114245750565b909150602081805181010312610104576020015190565b50602081511461141d565b803b600061145382610830565b9261146160405194856107ed565b82845260208401903c602d81511061147d57602a015160601c90565b60405163baf3f0f760e01b8152600490fdfea264697066735822122097f7d08038d307e147f83f06c3fcacd9666e7fefdd9a2872749dbfa73bad974e64736f6c63430008140033","linkReferences":{}},"methodIdentifiers":{"Burn(uint256)":"b90306ad","_delegatorCount()":"a1f7f539","_getImplementation(address)":"c54e44b0","_isDelegatorNode(address)":"e01ad5fd","_isSafe()":"e0a9bc2b","_isSecureBase(address)":"af484526","_isSigner(address)":"1f185d16","getBalance()":"12065fe0","getHexbase()":"3b9b7955","onCallback(bytes)":"9e6c4bd1","owner()":"8da5cb5b","syncBaseAddr()":"339459a6","systemAge()":"fdc10bc9"},"id":25}