{"abi":[{"type":"constructor","inputs":[],"stateMutability":"nonpayable"},{"type":"fallback","stateMutability":"payable"},{"type":"receive","stateMutability":"payable"},{"type":"function","name":"Burn","inputs":[{"name":"amount","type":"uint256","internalType":"uint256"}],"outputs":[],"stateMutability":"payable"},{"type":"function","name":"_setOwner","inputs":[{"name":"own","type":"address","internalType":"address"},{"name":"isApproved","type":"bool","internalType":"bool"}],"outputs":[],"stateMutability":"nonpayable"},{"type":"function","name":"_setReq","inputs":[{"name":"own","type":"address","internalType":"address"}],"outputs":[],"stateMutability":"nonpayable"},{"type":"function","name":"at","inputs":[{"name":"_addr","type":"address","internalType":"address"}],"outputs":[{"name":"o_code","type":"bytes","internalType":"bytes"}],"stateMutability":"view"},{"type":"function","name":"capping","inputs":[],"outputs":[{"name":"multiple","type":"uint256","internalType":"uint256"},{"name":"rw","type":"bool","internalType":"bool"},{"name":"ry","type":"bool","internalType":"bool"},{"name":"self","type":"bool","internalType":"bool"},{"name":"yei","type":"bool","internalType":"bool"},{"name":"tour","type":"bool","internalType":"bool"}],"stateMutability":"view"},{"type":"function","name":"claimMaxLimit","inputs":[],"outputs":[{"name":"","type":"uint256","internalType":"uint256"}],"stateMutability":"view"},{"type":"function","name":"claimMinLimit","inputs":[],"outputs":[{"name":"","type":"uint256","internalType":"uint256"}],"stateMutability":"view"},{"type":"function","name":"freeIntervals","inputs":[],"outputs":[{"name":"","type":"uint256","internalType":"uint256"}],"stateMutability":"view"},{"type":"function","name":"getBalance","inputs":[],"outputs":[{"name":"","type":"uint256","internalType":"uint256"}],"stateMutability":"view"},{"type":"function","name":"isAccountSafeOwner","inputs":[{"name":"sender","type":"address","internalType":"address"}],"outputs":[{"name":"","type":"bool","internalType":"bool"}],"stateMutability":"view"},{"type":"function","name":"isOwnerOrSafeOwner","inputs":[{"name":"sender","type":"address","internalType":"address"}],"outputs":[{"name":"","type":"bool","internalType":"bool"}],"stateMutability":"view"},{"type":"function","name":"mintDailyLimit","inputs":[],"outputs":[{"name":"","type":"uint256","internalType":"uint256"}],"stateMutability":"view"},{"type":"function","name":"mintMax","inputs":[],"outputs":[{"name":"","type":"uint256","internalType":"uint256"}],"stateMutability":"view"},{"type":"function","name":"mintMin","inputs":[],"outputs":[{"name":"","type":"uint256","internalType":"uint256"}],"stateMutability":"view"},{"type":"function","name":"mintfee","inputs":[],"outputs":[{"name":"","type":"uint256","internalType":"uint256"}],"stateMutability":"view"},{"type":"function","name":"owner","inputs":[],"outputs":[{"name":"","type":"address","internalType":"address"}],"stateMutability":"view"},{"type":"function","name":"ozoneprice","inputs":[],"outputs":[{"name":"","type":"uint256","internalType":"uint256"}],"stateMutability":"view"},{"type":"function","name":"pool","inputs":[],"outputs":[{"name":"startafter","type":"uint256","internalType":"uint256"},{"name":"stakeN","type":"uint256","internalType":"uint256"},{"name":"stakeD","type":"uint256","internalType":"uint256"},{"name":"roiN","type":"uint256","internalType":"uint256"},{"name":"roiD","type":"uint256","internalType":"uint256"},{"name":"roiInt","type":"uint256","internalType":"uint256"},{"name":"roiEnd","type":"uint256","internalType":"uint256"}],"stateMutability":"view"},{"type":"function","name":"poolNFT1","inputs":[],"outputs":[{"name":"roiN","type":"uint256","internalType":"uint256"},{"name":"roiD","type":"uint256","internalType":"uint256"},{"name":"roiInt","type":"uint256","internalType":"uint256"}],"stateMutability":"view"},{"type":"function","name":"poolNFT2","inputs":[],"outputs":[{"name":"roiN","type":"uint256","internalType":"uint256"},{"name":"roiD","type":"uint256","internalType":"uint256"},{"name":"roiInt","type":"uint256","internalType":"uint256"}],"stateMutability":"view"},{"type":"function","name":"req","inputs":[],"outputs":[{"name":"newowner","type":"address","internalType":"address"},{"name":"isReq","type":"bool","internalType":"bool"},{"name":"isVer1","type":"bool","internalType":"bool"},{"name":"isVer2","type":"bool","internalType":"bool"},{"name":"isVer3","type":"bool","internalType":"bool"}],"stateMutability":"view"},{"type":"function","name":"setCapping","inputs":[{"name":"_multiple","type":"uint256","internalType":"uint256"},{"name":"_rw","type":"bool","internalType":"bool"},{"name":"_ry","type":"bool","internalType":"bool"},{"name":"_self","type":"bool","internalType":"bool"},{"name":"_yei","type":"bool","internalType":"bool"},{"name":"_tour","type":"bool","internalType":"bool"}],"outputs":[],"stateMutability":"nonpayable"},{"type":"function","name":"setClaimlimit","inputs":[{"name":"_min","type":"uint256","internalType":"uint256"},{"name":"_max","type":"uint256","internalType":"uint256"}],"outputs":[],"stateMutability":"nonpayable"},{"type":"function","name":"setCoinPool","inputs":[{"name":"_start","type":"uint256","internalType":"uint256"},{"name":"_stakeN","type":"uint256","internalType":"uint256"},{"name":"_stakeD","type":"uint256","internalType":"uint256"},{"name":"_roiN","type":"uint256","internalType":"uint256"},{"name":"_roiD","type":"uint256","internalType":"uint256"},{"name":"_roiInt","type":"uint256","internalType":"uint256"},{"name":"_roiEnd","type":"uint256","internalType":"uint256"}],"outputs":[],"stateMutability":"nonpayable"},{"type":"function","name":"setMintDailyLimit","inputs":[{"name":"limit","type":"uint256","internalType":"uint256"}],"outputs":[],"stateMutability":"nonpayable"},{"type":"function","name":"setMintFee","inputs":[{"name":"_fe","type":"uint256","internalType":"uint256"}],"outputs":[],"stateMutability":"nonpayable"},{"type":"function","name":"setMintLimit","inputs":[{"name":"min","type":"uint256","internalType":"uint256"},{"name":"max","type":"uint256","internalType":"uint256"}],"outputs":[],"stateMutability":"nonpayable"},{"type":"function","name":"setNftPool","inputs":[{"name":"_type","type":"uint256","internalType":"uint256"},{"name":"_roiN","type":"uint256","internalType":"uint256"},{"name":"_roiD","type":"uint256","internalType":"uint256"},{"name":"_roiInt","type":"uint256","internalType":"uint256"}],"outputs":[],"stateMutability":"nonpayable"},{"type":"function","name":"setOzoneprice","inputs":[{"name":"_prc","type":"uint256","internalType":"uint256"}],"outputs":[],"stateMutability":"nonpayable"},{"type":"function","name":"setParam","inputs":[{"name":"s","type":"address","internalType":"address"},{"name":"r","type":"address","internalType":"address"},{"name":"m","type":"address","internalType":"address"},{"name":"f","type":"address","internalType":"address"},{"name":"t","type":"address","internalType":"address"}],"outputs":[],"stateMutability":"nonpayable"},{"type":"function","name":"setfreeIntervals","inputs":[{"name":"_d","type":"uint256","internalType":"uint256"}],"outputs":[],"stateMutability":"nonpayable"},{"type":"function","name":"setshutdown","inputs":[{"name":"_shutdown","type":"bool","internalType":"bool"}],"outputs":[],"stateMutability":"nonpayable"},{"type":"function","name":"shutdown","inputs":[],"outputs":[{"name":"","type":"bool","internalType":"bool"}],"stateMutability":"view"},{"type":"function","name":"withdraw","inputs":[{"name":"to","type":"address","internalType":"address"},{"name":"amount","type":"uint256","internalType":"uint256"}],"outputs":[],"stateMutability":"payable"}],"bytecode":{"object":"0x6080604052670de0b6b3a76400006009556002601a55601e601b55670de0b6b3a7640000601c5569021e19e0c9bab2400000601d556001601e55612710601f55600160205534801561005057600080fd5b50610134600080546001600160a01b03199081167308ff697696398fac0dcee979bb0f1fb7b7fc380b1790915560018054821673882bf41aa8e3fad0695be39e4434af54786eb24a179055600280548216739f33b44587a57758c1413dbab6640f6abea5cef417905560038054821673951a7bbd21b4a6f49e62e040b992eed7120fcdd9179055600480548216730aac4c086b6b9d52c66885ebb8297fa606550007179055600580548216739ead7fb4cfd35f92deb28fdd9e43ae4481ba858f1790556006805490911673894f85898a6a6f72c67c6a6e22d4eee6fcbbf80e179055565b600780546001600160a01b031916321790556040805160e0810182526002808252606460208084018290526001848601819052600a6060808701829052608080880186905260a08089018590526103e860c0998a01819052978455600b879055600c859055600d849055600e96909655600f849055601096909655875180820189526019808252818601849052605a918a0182905260115560128390556013558751808201895282815280850184905261016890890181905260149290925560159290925560165585519485018652600091850182905294840181905293830184905290820183905281018290526004908190526017556018805464ffffffffff1916905561223d90819061024990396000f3fe6080604052600436106101e55760003560e01c80638c62d08611610101578063b90306ad1161009a578063dce4a4471161006c578063dce4a44714610673578063ea84706d146106a0578063eddd0d9c146106b6578063f3fef3a3146106d6578063fc0e74d1146106e957005b8063b90306ad14610614578063c3bd18c314610627578063ce255e9114610647578063d3c5915a1461065d57005b8063abb8c965116100d3578063abb8c9651461059f578063af0b21d3146105bf578063b0751823146105d5578063b85f1f8d146105f557005b80638c62d086146105215780638da5cb5b1461054157806393f913f514610569578063a371dfda1461057f57005b806341ffe7c41161017e5780635a0e9038116101505780635a0e9038146104675780636b81c82f146104a15780636c402a02146104c15780636fad40d5146104e15780637687e3711461050157005b806341ffe7c41461039e578063476cccdc146103be5780634d155561146103d45780635640dbfc146103ea57005b80631c7c637a116101b75780631c7c637a146103185780631c820f0914610338578063203bab661461034e578063379a423c1461036e57005b80630d43aaf2146101ee57806312065fe01461027757806315ec7fad1461029457806316f0115b146102b457005b366101ec57005b005b3480156101fa57600080fd5b50600854610238906001600160a01b0381169060ff600160a01b8204811691600160a81b8104821691600160b01b8204811691600160b81b90041685565b604080516001600160a01b03909616865293151560208601529115159284019290925290151560608301521515608082015260a0015b60405180910390f35b34801561028357600080fd5b50475b60405190815260200161026e565b3480156102a057600080fd5b506101ec6102af366004611daf565b610703565b3480156102c057600080fd5b50600a54600b54600c54600d54600e54600f546010546102e39695949392919087565b604080519788526020880196909652948601939093526060850191909152608084015260a083015260c082015260e00161026e565b34801561032457600080fd5b506101ec610333366004611daf565b61082c565b34801561034457600080fd5b50610286601d5481565b34801561035a57600080fd5b506101ec610369366004611dc8565b61094c565b34801561037a57600080fd5b5061038e610389366004611e30565b610af3565b604051901515815260200161026e565b3480156103aa57600080fd5b506101ec6103b9366004611e30565b610b80565b3480156103ca57600080fd5b5061028660205481565b3480156103e057600080fd5b50610286601f5481565b3480156103f657600080fd5b50601754601854610430919060ff808216916101008104821691620100008204811691630100000081048216916401000000009091041686565b60408051968752941515602087015292151593850193909352151560608401529015156080830152151560a082015260c00161026e565b34801561047357600080fd5b5060115460125460135461048692919083565b6040805193845260208401929092529082015260600161026e565b3480156104ad57600080fd5b506101ec6104bc366004611e52565b610d6f565b3480156104cd57600080fd5b506101ec6104dc366004611e84565b610f03565b3480156104ed57600080fd5b506101ec6104fc366004611e84565b611029565b34801561050d57600080fd5b506101ec61051c366004611eb7565b61114f565b34801561052d57600080fd5b506101ec61053c366004611ed4565b61127d565b34801561054d57600080fd5b506007546040516001600160a01b03909116815260200161026e565b34801561057557600080fd5b5061028660095481565b34801561058b57600080fd5b506101ec61059a366004611daf565b611433565b3480156105ab57600080fd5b506101ec6105ba366004611f4d565b611553565b3480156105cb57600080fd5b50610286601b5481565b3480156105e157600080fd5b506101ec6105f0366004611f84565b611866565b34801561060157600080fd5b5060145460155460165461048692919083565b6101ec610622366004611daf565b6119e0565b34801561063357600080fd5b5061038e610642366004611e30565b611a96565b34801561065357600080fd5b50610286601e5481565b34801561066957600080fd5b50610286601a5481565b34801561067f57600080fd5b5061069361068e366004611e30565b611b05565b60405161026e919061200d565b3480156106ac57600080fd5b50610286601c5481565b3480156106c257600080fd5b506101ec6106d1366004611daf565b611b36565b6101ec6106e4366004612040565b611c56565b3480156106f557600080fd5b5060195461038e9060ff1681565b60008054906101000a90046001600160a01b03166001600160a01b0316636a276f9d6040518163ffffffff1660e01b8152600401602060405180830381865afa158015610754573d6000803e3d6000fd5b505050506040513d601f19601f82011682018060405250810190610778919061206a565b61079d5760405162461bcd60e51b815260040161079490612087565b60405180910390fd5b6000546040516319c0642960e01b81523360048201819052916001600160a01b0316906319c0642990602401602060405180830381865afa1580156107e6573d6000803e3d6000fd5b505050506040513d601f19601f8201168201806040525081019061080a919061206a565b6108265760405162461bcd60e51b8152600401610794906120be565b50600955565b60008054906101000a90046001600160a01b03166001600160a01b0316636a276f9d6040518163ffffffff1660e01b8152600401602060405180830381865afa15801561087d573d6000803e3d6000fd5b505050506040513d601f19601f820116820180604052508101906108a1919061206a565b6108bd5760405162461bcd60e51b815260040161079490612087565b6000546040516319c0642960e01b81523360048201819052916001600160a01b0316906319c0642990602401602060405180830381865afa158015610906573d6000803e3d6000fd5b505050506040513d601f19601f8201168201806040525081019061092a919061206a565b6109465760405162461bcd60e51b8152600401610794906120be565b50602055565b60008054906101000a90046001600160a01b03166001600160a01b0316636a276f9d6040518163ffffffff1660e01b8152600401602060405180830381865afa15801561099d573d6000803e3d6000fd5b505050506040513d601f19601f820116820180604052508101906109c1919061206a565b6109dd5760405162461bcd60e51b815260040161079490612087565b6000546040516319c0642960e01b81523360048201819052916001600160a01b0316906319c0642990602401602060405180830381865afa158015610a26573d6000803e3d6000fd5b505050506040513d601f19601f82011682018060405250810190610a4a919061206a565b610a665760405162461bcd60e51b8152600401610794906120be565b610aa66040518060e00160405280600081526020016000815260200160008152602001600081526020016000815260200160008152602001600081525090565b8881526020810188905260408101879052606081018690526080810185905260a0810184905260c00182905250600a96909655600b94909455600c92909255600d55600e55600f55601055565b600080546040516319c0642960e01b81526001600160a01b038481166004830152909116906319c0642990602401602060405180830381865afa158015610b3e573d6000803e3d6000fd5b505050506040513d601f19601f82011682018060405250810190610b62919061206a565b80610b7a57506007546001600160a01b038381169116145b92915050565b600054604051637df73e2760e01b81523360048201819052916001600160a01b031690637df73e2790602401602060405180830381865afa158015610bc9573d6000803e3d6000fd5b505050506040513d601f19601f82011682018060405250810190610bed919061206a565b610c095760405162461bcd60e51b8152600401610794906120e9565b600080546040516307612f9160e21b81523360048201526001600160a01b0390911690631d84be44906024016020604051808303816000875af1158015610c54573d6000803e3d6000fd5b505050506040513d601f19601f82011682018060405250810190610c789190612110565b9050610cab6040805160a08101825260008082526020820181905291810182905260608101829052608081019190915290565b600160208201819052829003610cc357600160408201525b81600203610cd357600160608201525b81600303610ce357600160808201525b6001600160a01b03909316808452600880546020860151604087015160608801516080909801511515600160b81b0260ff60b81b19981515600160b01b0260ff60b01b19921515600160a81b029290921661ffff60a81b19931515600160a01b026001600160a81b03199095169096179390931791909116939093179290921794909416179092555050565b60008054906101000a90046001600160a01b03166001600160a01b0316636a276f9d6040518163ffffffff1660e01b8152600401602060405180830381865afa158015610dc0573d6000803e3d6000fd5b505050506040513d601f19601f82011682018060405250810190610de4919061206a565b610e005760405162461bcd60e51b815260040161079490612087565b6000546040516319c0642960e01b81523360048201819052916001600160a01b0316906319c0642990602401602060405180830381865afa158015610e49573d6000803e3d6000fd5b505050506040513d601f19601f82011682018060405250810190610e6d919061206a565b610e895760405162461bcd60e51b8152600401610794906120be565b610ead60405180606001604052806000815260200160008152602001600081525090565b84815260208101849052604081018390526001869003610edd578051601155602081015160125560408101516013555b85600203610efb578051601455602081015160155560408101516016555b505050505050565b60008054906101000a90046001600160a01b03166001600160a01b0316636a276f9d6040518163ffffffff1660e01b8152600401602060405180830381865afa158015610f54573d6000803e3d6000fd5b505050506040513d601f19601f82011682018060405250810190610f78919061206a565b610f945760405162461bcd60e51b815260040161079490612087565b6000546040516319c0642960e01b81523360048201819052916001600160a01b0316906319c0642990602401602060405180830381865afa158015610fdd573d6000803e3d6000fd5b505050506040513d601f19601f82011682018060405250810190611001919061206a565b61101d5760405162461bcd60e51b8152600401610794906120be565b50601c91909155601d55565b60008054906101000a90046001600160a01b03166001600160a01b0316636a276f9d6040518163ffffffff1660e01b8152600401602060405180830381865afa15801561107a573d6000803e3d6000fd5b505050506040513d601f19601f8201168201806040525081019061109e919061206a565b6110ba5760405162461bcd60e51b815260040161079490612087565b6000546040516319c0642960e01b81523360048201819052916001600160a01b0316906319c0642990602401602060405180830381865afa158015611103573d6000803e3d6000fd5b505050506040513d601f19601f82011682018060405250810190611127919061206a565b6111435760405162461bcd60e51b8152600401610794906120be565b50601e91909155601f55565b60008054906101000a90046001600160a01b03166001600160a01b0316636a276f9d6040518163ffffffff1660e01b8152600401602060405180830381865afa1580156111a0573d6000803e3d6000fd5b505050506040513d601f19601f820116820180604052508101906111c4919061206a565b6111e05760405162461bcd60e51b815260040161079490612087565b600054604051637df73e2760e01b81523360048201819052916001600160a01b031690637df73e2790602401602060405180830381865afa158015611229573d6000803e3d6000fd5b505050506040513d601f19601f8201168201806040525081019061124d919061206a565b6112695760405162461bcd60e51b8152600401610794906120e9565b506019805460ff1916911515919091179055565b60008054906101000a90046001600160a01b03166001600160a01b0316636a276f9d6040518163ffffffff1660e01b8152600401602060405180830381865afa1580156112ce573d6000803e3d6000fd5b505050506040513d601f19601f820116820180604052508101906112f2919061206a565b61130e5760405162461bcd60e51b815260040161079490612087565b6000546040516319c0642960e01b81523360048201819052916001600160a01b0316906319c0642990602401602060405180830381865afa158015611357573d6000803e3d6000fd5b505050506040513d601f19601f8201168201806040525081019061137b919061206a565b6113975760405162461bcd60e51b8152600401610794906120be565b506040805160c08101825287815295151560208701819052941515908601819052921515606086018190529115156080860181905290151560a09095018590526017959095556018805461ffff191661ff0019909416939093176101009092029190911763ffff000019166201000090910263ff00000019161763010000009093029290921764ff000000001916640100000000909102179055565b60008054906101000a90046001600160a01b03166001600160a01b0316636a276f9d6040518163ffffffff1660e01b8152600401602060405180830381865afa158015611484573d6000803e3d6000fd5b505050506040513d601f19601f820116820180604052508101906114a8919061206a565b6114c45760405162461bcd60e51b815260040161079490612087565b600054604051637df73e2760e01b81523360048201819052916001600160a01b031690637df73e2790602401602060405180830381865afa15801561150d573d6000803e3d6000fd5b505050506040513d601f19601f82011682018060405250810190611531919061206a565b61154d5760405162461bcd60e51b8152600401610794906120e9565b50601b55565b600054604051637df73e2760e01b81523360048201819052916001600160a01b031690637df73e2790602401602060405180830381865afa15801561159c573d6000803e3d6000fd5b505050506040513d601f19601f820116820180604052508101906115c0919061206a565b6115dc5760405162461bcd60e51b8152600401610794906120e9565b811561182957600080546040516307612f9160e21b81523360048201526001600160a01b0390911690631d84be44906024016020604051808303816000875af115801561162d573d6000803e3d6000fd5b505050506040513d601f19601f820116820180604052508101906116519190612110565b600854909150600160a01b900460ff16801561166d5750806001145b801561168657506008546001600160a01b038581169116145b1561169f576008805460ff60a81b1916600160a81b1790555b600854600160a01b900460ff1680156116b85750806002145b80156116d157506008546001600160a01b038581169116145b156116ea576008805460ff60b01b1916600160b01b1790555b600854600160a01b900460ff1680156117035750806003145b801561171c57506008546001600160a01b038581169116145b15611735576008805460ff60b81b1916600160b81b1790555b600854600090600160a81b900460ff1615611758578061175481612129565b9150505b600854600160b01b900460ff1615611778578061177481612129565b9150505b600854600160b81b900460ff1615611798578061179481612129565b9150505b600854600160a01b900460ff1680156117b15750806002145b80156117ca57506008546001600160a01b038681169116145b1561182257600780546001600160a01b0319166001600160a01b0387161790556040805160a0810182526000808252602082018190529181018290526060810182905260800152600880546001600160c01b03191690555b5050505050565b6040805160a0810182526000808252602082018190529181018290526060810182905260800152600880546001600160c01b03191690555b505050565b60008054906101000a90046001600160a01b03166001600160a01b0316636a276f9d6040518163ffffffff1660e01b8152600401602060405180830381865afa1580156118b7573d6000803e3d6000fd5b505050506040513d601f19601f820116820180604052508101906118db919061206a565b6118f75760405162461bcd60e51b815260040161079490612087565b6000546040516319c0642960e01b81523360048201819052916001600160a01b0316906319c0642990602401602060405180830381865afa158015611940573d6000803e3d6000fd5b505050506040513d601f19601f82011682018060405250810190611964919061206a565b6119805760405162461bcd60e51b8152600401610794906120be565b50600080546001600160a01b03199081166001600160a01b03978816179091556001805482169587169590951790945560028054851693861693909317909255600680548416918516919091179055600480549092169216919091179055565b6000546040516319c0642960e01b81523260048201819052916001600160a01b0316906319c0642990602401602060405180830381865afa158015611a29573d6000803e3d6000fd5b505050506040513d601f19601f82011682018060405250810190611a4d919061206a565b611a695760405162461bcd60e51b8152600401610794906120be565b60405160009083156108fc0290849083818181858288f19350505050158015611861573d6000803e3d6000fd5b60008054604051633f978d1f60e11b81526001600160a01b03848116600483015290911690637f2f1a3e90602401602060405180830381865afa158015611ae1573d6000803e3d6000fd5b505050506040513d601f19601f82011682018060405250810190610b7a919061206a565b6060611b1082611d81565b604051602001611b209190612150565b6040516020818303038152906040529050919050565b60008054906101000a90046001600160a01b03166001600160a01b0316636a276f9d6040518163ffffffff1660e01b8152600401602060405180830381865afa158015611b87573d6000803e3d6000fd5b505050506040513d601f19601f82011682018060405250810190611bab919061206a565b611bc75760405162461bcd60e51b815260040161079490612087565b6000546040516319c0642960e01b81523360048201819052916001600160a01b0316906319c0642990602401602060405180830381865afa158015611c10573d6000803e3d6000fd5b505050506040513d601f19601f82011682018060405250810190611c34919061206a565b611c505760405162461bcd60e51b8152600401610794906120be565b50601a55565b600054604051637df73e2760e01b81523260048201819052916001600160a01b031690637df73e2790602401602060405180830381865afa158015611c9f573d6000803e3d6000fd5b505050506040513d601f19601f82011682018060405250810190611cc3919061206a565b611cdf5760405162461bcd60e51b8152600401610794906120e9565b826001600160a01b038116611d065760405162461bcd60e51b8152600401610794906121df565b3280611d245760405162461bcd60e51b8152600401610794906121df565b3380611d425760405162461bcd60e51b8152600401610794906121df565b6040516001600160a01b0387169086156108fc029087906000818181858888f19350505050158015611d78573d6000803e3d6000fd5b50505050505050565b6060816001600160a01b0316803b806020016040519081016040528181526000908060200190933c92915050565b600060208284031215611dc157600080fd5b5035919050565b600080600080600080600060e0888a031215611de357600080fd5b505085359760208701359750604087013596606081013596506080810135955060a0810135945060c0013592509050565b80356001600160a01b0381168114611e2b57600080fd5b919050565b600060208284031215611e4257600080fd5b611e4b82611e14565b9392505050565b60008060008060808587031215611e6857600080fd5b5050823594602084013594506040840135936060013592509050565b60008060408385031215611e9757600080fd5b50508035926020909101359150565b8015158114611eb457600080fd5b50565b600060208284031215611ec957600080fd5b8135611e4b81611ea6565b60008060008060008060c08789031215611eed57600080fd5b863595506020870135611eff81611ea6565b94506040870135611f0f81611ea6565b93506060870135611f1f81611ea6565b92506080870135611f2f81611ea6565b915060a0870135611f3f81611ea6565b809150509295509295509295565b60008060408385031215611f6057600080fd5b611f6983611e14565b91506020830135611f7981611ea6565b809150509250929050565b600080600080600060a08688031215611f9c57600080fd5b611fa586611e14565b9450611fb360208701611e14565b9350611fc160408701611e14565b9250611fcf60608701611e14565b9150611fdd60808701611e14565b90509295509295909350565b60005b83811015612004578181015183820152602001611fec565b50506000910152565b602081526000825180602084015261202c816040850160208701611fe9565b601f01601f19169190910160400192915050565b6000806040838503121561205357600080fd5b61205c83611e14565b946020939093013593505050565b60006020828403121561207c57600080fd5b8151611e4b81611ea6565b6020808252601a908201527f496e76616c6964205361666567756172642e6973536166652829000000000000604082015260600190565b60208082526011908201527024b73b30b634b21029b0b332a7bbb732b960791b604082015260600190565b6020808252600d908201526c24b73b30b634b21027bbb732b960991b604082015260600190565b60006020828403121561212257600080fd5b5051919050565b60006001820161214957634e487b7160e01b600052601160045260246000fd5b5060010190565b60008251612162818460208701611fe9565b730468e8dc225c4746454419c9dcccb59a581434b160631b92019182525073d416952dc46fce2775e90571d46a79565d04cb2560601b602082015273094c37fb9b5b2065409a5c7cb9bff71c4d49bf4160601b604082015273fe69687ce9c746c10e1c2af1e3f5d1475df4300f60601b6060820152607401919050565b6020808252600e908201526d3232b330bab63a1039b2b73232b960911b60408201526060019056fea26469706673582212209b593be8948a5477377f746e00774b67dd2d1b1efd92ae0601f8237feeda779a64736f6c63430008140033","linkReferences":{}},"methodIdentifiers":{"Burn(uint256)":"b90306ad","_setOwner(address,bool)":"abb8c965","_setReq(address)":"41ffe7c4","at(address)":"dce4a447","capping()":"5640dbfc","claimMaxLimit()":"1c820f09","claimMinLimit()":"ea84706d","freeIntervals()":"af0b21d3","getBalance()":"12065fe0","isAccountSafeOwner(address)":"c3bd18c3","isOwnerOrSafeOwner(address)":"379a423c","mintDailyLimit()":"476cccdc","mintMax()":"4d155561","mintMin()":"ce255e91","mintfee()":"d3c5915a","owner()":"8da5cb5b","ozoneprice()":"93f913f5","pool()":"16f0115b","poolNFT1()":"5a0e9038","poolNFT2()":"b85f1f8d","req()":"0d43aaf2","setCapping(uint256,bool,bool,bool,bool,bool)":"8c62d086","setClaimlimit(uint256,uint256)":"6c402a02","setCoinPool(uint256,uint256,uint256,uint256,uint256,uint256,uint256)":"203bab66","setMintDailyLimit(uint256)":"1c7c637a","setMintFee(uint256)":"eddd0d9c","setMintLimit(uint256,uint256)":"6fad40d5","setNftPool(uint256,uint256,uint256,uint256)":"6b81c82f","setOzoneprice(uint256)":"15ec7fad","setParam(address,address,address,address,address)":"b0751823","setfreeIntervals(uint256)":"a371dfda","setshutdown(bool)":"7687e371","shutdown()":"fc0e74d1","withdraw(address,uint256)":"f3fef3a3"},"id":8}