{"abi":[{"type":"constructor","inputs":[],"stateMutability":"nonpayable"},{"type":"fallback","stateMutability":"payable"},{"type":"receive","stateMutability":"payable"},{"type":"function","name":"Burn","inputs":[{"name":"amount","type":"uint256","internalType":"uint256"}],"outputs":[],"stateMutability":"payable"},{"type":"function","name":"_setOwner","inputs":[{"name":"own","type":"address","internalType":"address"},{"name":"isApproved","type":"bool","internalType":"bool"}],"outputs":[],"stateMutability":"nonpayable"},{"type":"function","name":"_setReq","inputs":[{"name":"own","type":"address","internalType":"address"}],"outputs":[],"stateMutability":"nonpayable"},{"type":"function","name":"deleteUser","inputs":[{"name":"users","type":"address[]","internalType":"address[]"}],"outputs":[],"stateMutability":"nonpayable"},{"type":"function","name":"getBalance","inputs":[],"outputs":[{"name":"","type":"uint256","internalType":"uint256"}],"stateMutability":"view"},{"type":"function","name":"getNodesCount","inputs":[],"outputs":[{"name":"","type":"uint256","internalType":"uint256"}],"stateMutability":"view"},{"type":"function","name":"isExist","inputs":[{"name":"u","type":"address","internalType":"address"}],"outputs":[{"name":"","type":"bool","internalType":"bool"}],"stateMutability":"view"},{"type":"function","name":"isOwnerOrSafeOwner","inputs":[{"name":"sender","type":"address","internalType":"address"}],"outputs":[{"name":"","type":"bool","internalType":"bool"}],"stateMutability":"view"},{"type":"function","name":"nodes","inputs":[{"name":"","type":"uint256","internalType":"uint256"}],"outputs":[{"name":"","type":"address","internalType":"address"}],"stateMutability":"view"},{"type":"function","name":"nodesStr","inputs":[{"name":"","type":"address","internalType":"address"}],"outputs":[{"name":"exist","type":"bool","internalType":"bool"},{"name":"bal","type":"uint256","internalType":"uint256"},{"name":"msgval","type":"uint256","internalType":"uint256"}],"stateMutability":"view"},{"type":"function","name":"own_reinit","inputs":[{"name":"_h","type":"address","internalType":"address"}],"outputs":[],"stateMutability":"nonpayable"},{"type":"function","name":"owner","inputs":[],"outputs":[{"name":"","type":"address","internalType":"address"}],"stateMutability":"view"},{"type":"function","name":"recompile","inputs":[{"name":"users","type":"address[]","internalType":"address[]"},{"name":"_bals","type":"uint256[]","internalType":"uint256[]"},{"name":"_msgval","type":"uint256[]","internalType":"uint256[]"}],"outputs":[],"stateMutability":"nonpayable"},{"type":"function","name":"req","inputs":[],"outputs":[{"name":"newowner","type":"address","internalType":"address"},{"name":"isReq","type":"bool","internalType":"bool"},{"name":"isVer1","type":"bool","internalType":"bool"},{"name":"isVer2","type":"bool","internalType":"bool"},{"name":"isVer3","type":"bool","internalType":"bool"}],"stateMutability":"view"},{"type":"function","name":"updateUser","inputs":[{"name":"users","type":"address[]","internalType":"address[]"},{"name":"_bals","type":"uint256[]","internalType":"uint256[]"},{"name":"_msgval","type":"uint256[]","internalType":"uint256[]"},{"name":"_op","type":"bool[]","internalType":"bool[]"}],"outputs":[],"stateMutability":"nonpayable"},{"type":"function","name":"withdraw","inputs":[{"name":"to","type":"address","internalType":"address"},{"name":"amount","type":"uint256","internalType":"uint256"}],"outputs":[],"stateMutability":"payable"}],"bytecode":{"object":"0x60806040523480156200001157600080fd5b5060408051600a808252610160820190925260009160208201610140803683370190505090507355464e2df31e770145c6085a5e3874b3bcc5535b8160008151811062000062576200006262000721565b60200260200101906001600160a01b031690816001600160a01b03168152505073761d464d59fc4e5472b2ccfbf077cde7f683121d81600181518110620000ad57620000ad62000721565b60200260200101906001600160a01b031690816001600160a01b031681525050737ab9df72fe514f374aa2e1153c0d04621794ab8f81600281518110620000f857620000f862000721565b60200260200101906001600160a01b031690816001600160a01b031681525050732f1614f6190bd3bd5731a8b6b37dae79aad84c158160038151811062000143576200014362000721565b60200260200101906001600160a01b031690816001600160a01b0316815250507289188449f0d4119715c9a10ea8955fb26ee308816004815181106200018d576200018d62000721565b60200260200101906001600160a01b031690816001600160a01b03168152505073dda88b1c86762f7b698f2b458f0ee4c6e92329ec81600581518110620001d857620001d862000721565b60200260200101906001600160a01b031690816001600160a01b03168152505073610fdc323bf441e94d389ac0b33fd3eff3ea3bad8160068151811062000223576200022362000721565b60200260200101906001600160a01b031690816001600160a01b03168152505073487697d60dcd5a6fb5253f996b0df18b84e92895816007815181106200026e576200026e62000721565b60200260200101906001600160a01b031690816001600160a01b031681525050738cfd47ffa78aea46d8c4bf76cefa64dd1b71993c81600881518110620002b957620002b962000721565b60200260200101906001600160a01b031690816001600160a01b0316815250507301dcc9c653ea9518216a4b19051db036a263c8ed8160098151811062000304576200030462000721565b6001600160a01b039290921660209283029190910182015260408051600a808252610160820190925260009290919082016101408036833701905050905067a688906bd8b000008160008151811062000361576200036162000721565b602002602001018181525050677ce66c50e2840000816001815181106200038c576200038c62000721565b602002602001018181525050671bc16d674ec8000081600281518110620003b757620003b762000721565b60200260200101818152505067d02ab486cedc000081600381518110620003e257620003e262000721565b60200260200101818152505067d02ab486cedc0000816004815181106200040d576200040d62000721565b602002602001018181525050671bc16d674ec800008160058151811062000438576200043862000721565b60200260200101818152505067a688906bd8b000008160068151811062000463576200046362000721565b60200260200101818152505067a688906bd8b00000816007815181106200048e576200048e62000721565b60200260200101818152505067a688906bd8b0000081600881518110620004b957620004b962000721565b6020026020010181815250506753444835ec58000081600981518110620004e457620004e462000721565b602090810291909101015260408051600a8082526101608201909252600091816020016020820280368337019050509050620005228383836200052b565b5050506200075f565b60005b8351811015620006fd576200056584828151811062000551576200055162000721565b60200260200101516200070360201b60201c565b15620005b75760405162461bcd60e51b815260206004820152601560248201527f70726d646174612e616c72656164792e65786973740000000000000000000000604482015260640160405180910390fd5b620005de604051806060016040528060001515815260200160008152602001600081525090565b600181528351849083908110620005f957620005f962000721565b60200260200101518160200181815250508282815181106200061f576200061f62000721565b602002602001015181604001818152505080600f60008785815181106200064a576200064a62000721565b6020908102919091018101516001600160a01b031682528181019290925260409081016000208351815460ff191690151517815591830151600183015591909101516002909101558451600e90869084908110620006ac57620006ac62000721565b60209081029190910181015182546001810184556000938452919092200180546001600160a01b0319166001600160a01b039092169190911790555080620006f48162000737565b9150506200052e565b50505050565b6001600160a01b03166000908152600f602052604090205460ff1690565b634e487b7160e01b600052603260045260246000fd5b6000600182016200075857634e487b7160e01b600052601160045260246000fd5b5060010190565b612251806200076f6000396000f3fe6080604052600436106100ea5760003560e01c806361ea720811610084578063b7fec78c11610056578063b7fec78c1461034a578063b90306ad1461036a578063f31865cd1461037d578063f3fef3a31461039d57005b806361ea7208146102d75780638d2c50c3146102ec5780638da5cb5b1461030c578063abb8c9651461032a57005b80632172b2d2116100bd5780632172b2d21461021a578063379a423c1461027757806341ffe7c41461029757806360af454d146102b757005b806213eb4b146100f35780630d43aaf21461014157806312065fe0146101c55780631c53c280146101e257005b366100f157005b005b3480156100ff57600080fd5b5061012c61010e366004611d4e565b6001600160a01b03166000908152600f602052604090205460ff1690565b60405190151581526020015b60405180910390f35b34801561014d57600080fd5b50600d5461018b906001600160a01b0381169060ff600160a01b8204811691600160a81b8104821691600160b01b8204811691600160b81b90041685565b604080516001600160a01b03909616865293151560208601529115159284019290925290151560608301521515608082015260a001610138565b3480156101d157600080fd5b50475b604051908152602001610138565b3480156101ee57600080fd5b506102026101fd366004611d72565b6103b0565b6040516001600160a01b039091168152602001610138565b34801561022657600080fd5b5061025a610235366004611d4e565b600f6020526000908152604090208054600182015460029092015460ff909116919083565b604080519315158452602084019290925290820152606001610138565b34801561028357600080fd5b5061012c610292366004611d4e565b6103da565b3480156102a357600080fd5b506100f16102b2366004611d4e565b610467565b3480156102c357600080fd5b506100f16102d2366004611d4e565b610727565b3480156102e357600080fd5b50600e546101d4565b3480156102f857600080fd5b506100f1610307366004611e6a565b6107a9565b34801561031857600080fd5b50600c546001600160a01b0316610202565b34801561033657600080fd5b506100f1610345366004611eb5565b610a3d565b34801561035657600080fd5b506100f1610365366004611f49565b610e16565b6100f1610378366004611d72565b611191565b34801561038957600080fd5b506100f1610398366004612052565b61129d565b6100f16103ab3660046120da565b6115d7565b600e81815481106103c057600080fd5b6000918252602090912001546001600160a01b0316905081565b6002546040516319c0642960e01b81526001600160a01b03838116600483015260009216906319c0642990602401602060405180830381865afa158015610425573d6000803e3d6000fd5b505050506040513d601f19601f820116820180604052508101906104499190612106565b806104615750600c546001600160a01b038381169116145b92915050565b600260009054906101000a90046001600160a01b03166001600160a01b0316636a276f9d6040518163ffffffff1660e01b8152600401602060405180830381865afa1580156104ba573d6000803e3d6000fd5b505050506040513d601f19601f820116820180604052508101906104de9190612106565b6105035760405162461bcd60e51b81526004016104fa90612123565b60405180910390fd5b6001546001600160a01b03163314806105835750600254604051637df73e2760e01b81523360048201526001600160a01b0390911690637df73e2790602401602060405180830381865afa15801561055f573d6000803e3d6000fd5b505050506040513d601f19601f820116820180604052508101906105839190612106565b6105c45760405162461bcd60e51b81526020600482015260126024820152716f776d2e66616b652e2064656c656761746560701b60448201526064016104fa565b6002546040516307612f9160e21b81523360048201526000916001600160a01b031690631d84be4490602401602060405180830381865afa15801561060d573d6000803e3d6000fd5b505050506040513d601f19601f82011682018060405250810190610631919061214f565b90506106646040805160a08101825260008082526020820181905291810182905260608101829052608081019190915290565b60016020820181905282900361067c57600160408201525b8160020361068c57600160608201525b8160030361069c57600160808201525b6001600160a01b03909216808352600d80546020850151604086015160608701516080909701511515600160b81b0260ff60b81b19971515600160b01b0260ff60b01b19921515600160a81b029290921661ffff60a81b19931515600160a01b026001600160a81b031990951690961793909317919091169390931792909217939093161790915550565b6000546001600160a01b0316156107755760405162461bcd60e51b81526020600482015260126024820152711bdddb8b9a195e18985cd94b99985a5b195960721b60448201526064016104fa565b600c8054326001600160a01b031991821617909155600080549091166001600160a01b0383161790556107a661177d565b50565b600260009054906101000a90046001600160a01b03166001600160a01b0316636a276f9d6040518163ffffffff1660e01b8152600401602060405180830381865afa1580156107fc573d6000803e3d6000fd5b505050506040513d601f19601f820116820180604052508101906108209190612106565b61083c5760405162461bcd60e51b81526004016104fa90612123565b6002546040516319c0642960e01b81523360048201526001600160a01b03909116906319c0642990602401602060405180830381865afa158015610884573d6000803e3d6000fd5b505050506040513d601f19601f820116820180604052508101906108a89190612106565b6108c45760405162461bcd60e51b81526004016104fa90612168565b60005b8151811015610a395761090b8282815181106108e5576108e5612193565b60200260200101516001600160a01b03166000908152600f602052604090205460ff1690565b61094b5760405162461bcd60e51b81526020600482015260116024820152701c1c9b59185d184b9b9bdd0b995e1a5cdd607a1b60448201526064016104fa565b6000600f600084848151811061096357610963612193565b60200260200101516001600160a01b03166001600160a01b03168152602001908152602001600020600101819055506000600f60008484815181106109aa576109aa612193565b60200260200101516001600160a01b03166001600160a01b0316815260200190815260200160002060020181905550600f60008383815181106109ef576109ef612193565b6020908102919091018101516001600160a01b031682528101919091526040016000908120805460ff19168155600181018290556002015580610a31816121bf565b9150506108c7565b5050565b600260009054906101000a90046001600160a01b03166001600160a01b0316636a276f9d6040518163ffffffff1660e01b8152600401602060405180830381865afa158015610a90573d6000803e3d6000fd5b505050506040513d601f19601f82011682018060405250810190610ab49190612106565b610ad05760405162461bcd60e51b81526004016104fa90612123565b6001546001600160a01b0316331480610b505750600254604051637df73e2760e01b81523360048201526001600160a01b0390911690637df73e2790602401602060405180830381865afa158015610b2c573d6000803e3d6000fd5b505050506040513d601f19601f82011682018060405250810190610b509190612106565b610b915760405162461bcd60e51b81526020600482015260126024820152716f776d2e66616b652e2064656c656761746560701b60448201526064016104fa565b8015610ddb576002546040516307612f9160e21b81523360048201526000916001600160a01b031690631d84be4490602401602060405180830381865afa158015610be0573d6000803e3d6000fd5b505050506040513d601f19601f82011682018060405250810190610c04919061214f565b600d54909150600160a01b900460ff168015610c205750806001145b8015610c395750600d546001600160a01b038481169116145b15610c5257600d805460ff60a81b1916600160a81b1790555b600d54600160a01b900460ff168015610c6b5750806002145b8015610c845750600d546001600160a01b038481169116145b15610c9d57600d805460ff60b01b1916600160b01b1790555b600d54600160a01b900460ff168015610cb65750806003145b8015610ccf5750600d546001600160a01b038481169116145b15610ce857600d805460ff60b81b1916600160b81b1790555b600d54600090600160a81b900460ff1615610d0b5780610d07816121bf565b9150505b600d54600160b01b900460ff1615610d2b5780610d27816121bf565b9150505b600d54600160b81b900460ff1615610d4b5780610d47816121bf565b9150505b600d54600160a01b900460ff168015610d645750806002145b8015610d7d5750600d546001600160a01b038581169116145b15610dd557600c80546001600160a01b0319166001600160a01b0386161790556040805160a0810182526000808252602082018190529181018290526060810182905260800152600d80546001600160c01b03191690555b50505050565b50506040805160a0810182526000808252602082018190529181018290526060810182905260800152600d80546001600160c01b0319169055565b600260009054906101000a90046001600160a01b03166001600160a01b0316636a276f9d6040518163ffffffff1660e01b8152600401602060405180830381865afa158015610e69573d6000803e3d6000fd5b505050506040513d601f19601f82011682018060405250810190610e8d9190612106565b610ea95760405162461bcd60e51b81526004016104fa90612123565b6002546040516319c0642960e01b81523360048201526001600160a01b03909116906319c0642990602401602060405180830381865afa158015610ef1573d6000803e3d6000fd5b505050506040513d601f19601f82011682018060405250810190610f159190612106565b610f315760405162461bcd60e51b81526004016104fa90612168565b60005b845181101561118a57610f528582815181106108e5576108e5612193565b610f925760405162461bcd60e51b81526020600482015260116024820152701c1c9b59185d184b9b9bdd0b995e1a5cdd607a1b60448201526064016104fa565b818181518110610fa457610fa4612193565b60200260200101511561109757838181518110610fc357610fc3612193565b6020026020010151600f6000878481518110610fe157610fe1612193565b60200260200101516001600160a01b03166001600160a01b03168152602001908152602001600020600101600082825461101b91906121d8565b9250508190555082818151811061103457611034612193565b6020026020010151600f600087848151811061105257611052612193565b60200260200101516001600160a01b03166001600160a01b03168152602001908152602001600020600201600082825461108c91906121d8565b909155506111789050565b8381815181106110a9576110a9612193565b6020026020010151600f60008784815181106110c7576110c7612193565b60200260200101516001600160a01b03166001600160a01b03168152602001908152602001600020600101600082825461110191906121eb565b9250508190555082818151811061111a5761111a612193565b6020026020010151600f600087848151811061113857611138612193565b60200260200101516001600160a01b03166001600160a01b03168152602001908152602001600020600201600082825461117291906121eb565b90915550505b80611182816121bf565b915050610f34565b5050505050565b600260009054906101000a90046001600160a01b03166001600160a01b0316636a276f9d6040518163ffffffff1660e01b8152600401602060405180830381865afa1580156111e4573d6000803e3d6000fd5b505050506040513d601f19601f820116820180604052508101906112089190612106565b6112245760405162461bcd60e51b81526004016104fa90612123565b6001546001600160a01b031633146112705760405162461bcd60e51b815260206004820152600f60248201526e6f776e2e6e6f6e617574682e44414f60881b60448201526064016104fa565b60405160009082156108fc0290839083818181858288f19350505050158015610a39573d6000803e3d6000fd5b600260009054906101000a90046001600160a01b03166001600160a01b0316636a276f9d6040518163ffffffff1660e01b8152600401602060405180830381865afa1580156112f0573d6000803e3d6000fd5b505050506040513d601f19601f820116820180604052508101906113149190612106565b6113305760405162461bcd60e51b81526004016104fa90612123565b6002546040516319c0642960e01b81523360048201526001600160a01b03909116906319c0642990602401602060405180830381865afa158015611378573d6000803e3d6000fd5b505050506040513d601f19601f8201168201806040525081019061139c9190612106565b6113b85760405162461bcd60e51b81526004016104fa90612168565b60005b8351811015610dd5576113d98482815181106108e5576108e5612193565b61150657611403604051806060016040528060001515815260200160008152602001600081525090565b60018152835184908390811061141b5761141b612193565b602002602001015181602001818152505082828151811061143e5761143e612193565b602002602001015181604001818152505080600f600087858151811061146657611466612193565b6020908102919091018101516001600160a01b031682528181019290925260409081016000208351815460ff191690151517815591830151600183015591909101516002909101558451600e908690849081106114c5576114c5612193565b60209081029190910181015182546001810184556000938452919092200180546001600160a01b0319166001600160a01b03909216919091179055506115c5565b82818151811061151857611518612193565b6020026020010151600f600086848151811061153657611536612193565b60200260200101516001600160a01b03166001600160a01b031681526020019081526020016000206001018190555081818151811061157757611577612193565b6020026020010151600f600086848151811061159557611595612193565b60200260200101516001600160a01b03166001600160a01b03168152602001908152602001600020600201819055505b806115cf816121bf565b9150506113bb565b816001600160a01b0381166116235760405162461bcd60e51b815260206004820152601260248201527137bbb7173232b330bab63a1739b2b73232b960711b60448201526064016104fa565b600260009054906101000a90046001600160a01b03166001600160a01b0316636a276f9d6040518163ffffffff1660e01b8152600401602060405180830381865afa158015611676573d6000803e3d6000fd5b505050506040513d601f19601f8201168201806040525081019061169a9190612106565b6116b65760405162461bcd60e51b81526004016104fa90612123565b6001546001600160a01b031633146117025760405162461bcd60e51b815260206004820152600f60248201526e6f776e2e6e6f6e617574682e44414f60881b60448201526064016104fa565b600082116117475760405162461bcd60e51b81526020600482015260126024820152711bdddb8b9a5b9d985b1a590b985b5bdd5b9d60721b60448201526064016104fa565b6040516001600160a01b0384169083156108fc029084906000818181858888f19350505050158015610dd5573d6000803e3d6000fd5b6000546001600160a01b031661178f57565b60008054906101000a90046001600160a01b03166001600160a01b0316634162169f6040518163ffffffff1660e01b8152600401602060405180830381865afa1580156117e0573d6000803e3d6000fd5b505050506040513d601f19601f8201168201806040525081019061180491906121fe565b600180546001600160a01b0319166001600160a01b0392831617905560005460408051635abedee360e11b81529051919092169163b57dbdc69160048083019260209291908290030181865afa158015611862573d6000803e3d6000fd5b505050506040513d601f19601f8201168201806040525081019061188691906121fe565b600280546001600160a01b0319166001600160a01b039283161790556000546040805163cfbffe5360e01b81529051919092169163cfbffe539160048083019260209291908290030181865afa1580156118e4573d6000803e3d6000fd5b505050506040513d601f19601f8201168201806040525081019061190891906121fe565b600380546001600160a01b0319166001600160a01b039283161790556000546040805163ab6e844f60e01b81529051919092169163ab6e844f9160048083019260209291908290030181865afa158015611966573d6000803e3d6000fd5b505050506040513d601f19601f8201168201806040525081019061198a91906121fe565b600480546001600160a01b0319166001600160a01b0392831617815560005460408051639a7c407760e01b815290519190931692639a7c407792818101926020929091908290030181865afa1580156119e7573d6000803e3d6000fd5b505050506040513d601f19601f82011682018060405250810190611a0b91906121fe565b600580546001600160a01b0319166001600160a01b0392831617905560005460408051635506ee0b60e11b81529051919092169163aa0ddc169160048083019260209291908290030181865afa158015611a69573d6000803e3d6000fd5b505050506040513d601f19601f82011682018060405250810190611a8d91906121fe565b600780546001600160a01b0319166001600160a01b03928316179055600054604080516335a577e360e11b815290519190921691636b4aefc69160048083019260209291908290030181865afa158015611aeb573d6000803e3d6000fd5b505050506040513d601f19601f82011682018060405250810190611b0f91906121fe565b600880546001600160a01b0319166001600160a01b03928316179055600054604080516324768d9160e01b8152905191909216916324768d919160048083019260209291908290030181865afa158015611b6d573d6000803e3d6000fd5b505050506040513d601f19601f82011682018060405250810190611b9191906121fe565b600b80546001600160a01b0319166001600160a01b0392831617905560005460408051636402742760e01b81529051919092169163640274279160048083019260209291908290030181865afa158015611bef573d6000803e3d6000fd5b505050506040513d601f19601f82011682018060405250810190611c1391906121fe565b600980546001600160a01b0319166001600160a01b03928316179055600054604080516330125cf560e01b8152905191909216916330125cf59160048083019260209291908290030181865afa158015611c71573d6000803e3d6000fd5b505050506040513d601f19601f82011682018060405250810190611c9591906121fe565b600a80546001600160a01b0319166001600160a01b03928316179055600054604080516369e8d84b60e11b81529051919092169163d3d1b0969160048083019260209291908290030181865afa158015611cf3573d6000803e3d6000fd5b505050506040513d601f19601f82011682018060405250810190611d1791906121fe565b600680546001600160a01b0319166001600160a01b0392909216919091179055565b6001600160a01b03811681146107a657600080fd5b600060208284031215611d6057600080fd5b8135611d6b81611d39565b9392505050565b600060208284031215611d8457600080fd5b5035919050565b634e487b7160e01b600052604160045260246000fd5b604051601f8201601f1916810167ffffffffffffffff81118282101715611dca57611dca611d8b565b604052919050565b600067ffffffffffffffff821115611dec57611dec611d8b565b5060051b60200190565b600082601f830112611e0757600080fd5b81356020611e1c611e1783611dd2565b611da1565b82815260059290921b84018101918181019086841115611e3b57600080fd5b8286015b84811015611e5f578035611e5281611d39565b8352918301918301611e3f565b509695505050505050565b600060208284031215611e7c57600080fd5b813567ffffffffffffffff811115611e9357600080fd5b611e9f84828501611df6565b949350505050565b80151581146107a657600080fd5b60008060408385031215611ec857600080fd5b8235611ed381611d39565b91506020830135611ee381611ea7565b809150509250929050565b600082601f830112611eff57600080fd5b81356020611f0f611e1783611dd2565b82815260059290921b84018101918181019086841115611f2e57600080fd5b8286015b84811015611e5f5780358352918301918301611f32565b60008060008060808587031215611f5f57600080fd5b843567ffffffffffffffff80821115611f7757600080fd5b611f8388838901611df6565b9550602091508187013581811115611f9a57600080fd5b611fa689828a01611eee565b955050604087013581811115611fbb57600080fd5b611fc789828a01611eee565b945050606087013581811115611fdc57600080fd5b87019050601f81018813611fef57600080fd5b8035611ffd611e1782611dd2565b81815260059190911b8201830190838101908a83111561201c57600080fd5b928401925b8284101561204357833561203481611ea7565b82529284019290840190612021565b979a9699509497505050505050565b60008060006060848603121561206757600080fd5b833567ffffffffffffffff8082111561207f57600080fd5b61208b87838801611df6565b945060208601359150808211156120a157600080fd5b6120ad87838801611eee565b935060408601359150808211156120c357600080fd5b506120d086828701611eee565b9150509250925092565b600080604083850312156120ed57600080fd5b82356120f881611d39565b946020939093013593505050565b60006020828403121561211857600080fd5b8151611d6b81611ea7565b6020808252601290820152716f776e2e696e76616c69642e69735361666560701b604082015260600190565b60006020828403121561216157600080fd5b5051919050565b60208082526011908201527024b73b30b634b21029b0b332a7bbb732b960791b604082015260600190565b634e487b7160e01b600052603260045260246000fd5b634e487b7160e01b600052601160045260246000fd5b6000600182016121d1576121d16121a9565b5060010190565b80820180821115610461576104616121a9565b81810381811115610461576104616121a9565b60006020828403121561221057600080fd5b8151611d6b81611d3956fea264697066735822122002150acb9ff3071604df29e4b67419cb72b492493d3bde493d4aeb265162ea7964736f6c63430008140033","linkReferences":{}},"methodIdentifiers":{"Burn(uint256)":"b90306ad","_setOwner(address,bool)":"abb8c965","_setReq(address)":"41ffe7c4","deleteUser(address[])":"8d2c50c3","getBalance()":"12065fe0","getNodesCount()":"61ea7208","isExist(address)":"0013eb4b","isOwnerOrSafeOwner(address)":"379a423c","nodes(uint256)":"1c53c280","nodesStr(address)":"2172b2d2","own_reinit(address)":"60af454d","owner()":"8da5cb5b","recompile(address[],uint256[],uint256[])":"f31865cd","req()":"0d43aaf2","updateUser(address[],uint256[],uint256[],bool[])":"b7fec78c","withdraw(address,uint256)":"f3fef3a3"},"id":7}