{"abi":[{"type":"constructor","inputs":[],"stateMutability":"nonpayable"},{"type":"receive","stateMutability":"payable"},{"type":"function","name":"balanceOf","inputs":[{"name":"user","type":"address","internalType":"address"}],"outputs":[{"name":"","type":"uint256","internalType":"uint256"}],"stateMutability":"view"},{"type":"function","name":"claim","inputs":[],"outputs":[],"stateMutability":"nonpayable"},{"type":"function","name":"claimCountOf","inputs":[{"name":"user","type":"address","internalType":"address"},{"name":"epoch","type":"uint256","internalType":"uint256"}],"outputs":[{"name":"","type":"uint256","internalType":"uint256"}],"stateMutability":"view"},{"type":"function","name":"claimLimit","inputs":[],"outputs":[{"name":"","type":"uint256","internalType":"uint256"}],"stateMutability":"view"},{"type":"function","name":"getDelegator","inputs":[{"name":"user","type":"address","internalType":"address"}],"outputs":[{"name":"","type":"address","internalType":"address"}],"stateMutability":"view"},{"type":"function","name":"getUser","inputs":[{"name":"delegator","type":"address","internalType":"address"}],"outputs":[{"name":"","type":"address","internalType":"address"}],"stateMutability":"view"},{"type":"function","name":"incomeOf","inputs":[{"name":"user","type":"address","internalType":"address"}],"outputs":[{"name":"","type":"uint256","internalType":"uint256"}],"stateMutability":"view"},{"type":"function","name":"isDelegator","inputs":[{"name":"del","type":"address","internalType":"address"}],"outputs":[{"name":"","type":"bool","internalType":"bool"}],"stateMutability":"view"},{"type":"function","name":"isDelegatorActive","inputs":[{"name":"del","type":"address","internalType":"address"}],"outputs":[{"name":"","type":"bool","internalType":"bool"}],"stateMutability":"view"},{"type":"function","name":"mapDelegator","inputs":[{"name":"user","type":"address","internalType":"address"}],"outputs":[],"stateMutability":"nonpayable"},{"type":"function","name":"maxWithdraw","inputs":[],"outputs":[{"name":"","type":"uint256","internalType":"uint256"}],"stateMutability":"view"},{"type":"function","name":"minClaim","inputs":[],"outputs":[{"name":"","type":"uint256","internalType":"uint256"}],"stateMutability":"view"},{"type":"function","name":"owner","inputs":[],"outputs":[{"name":"","type":"address","internalType":"address"}],"stateMutability":"view"},{"type":"function","name":"renounceOwnership","inputs":[],"outputs":[],"stateMutability":"nonpayable"},{"type":"function","name":"revertBalance","inputs":[],"outputs":[],"stateMutability":"payable"},{"type":"function","name":"setClaimLimit","inputs":[{"name":"limit","type":"uint256","internalType":"uint256"}],"outputs":[],"stateMutability":"nonpayable"},{"type":"function","name":"setMaxWithdraw","inputs":[{"name":"amount","type":"uint256","internalType":"uint256"}],"outputs":[],"stateMutability":"nonpayable"},{"type":"function","name":"setMinClaim","inputs":[{"name":"amount","type":"uint256","internalType":"uint256"}],"outputs":[],"stateMutability":"nonpayable"},{"type":"function","name":"transferOwnership","inputs":[{"name":"newOwner","type":"address","internalType":"address"}],"outputs":[],"stateMutability":"nonpayable"},{"type":"function","name":"updateDelegators","inputs":[{"name":"dels","type":"address[]","internalType":"address[]"},{"name":"active","type":"bool[]","internalType":"bool[]"}],"outputs":[],"stateMutability":"nonpayable"},{"type":"function","name":"updateIncome","inputs":[{"name":"users","type":"address[]","internalType":"address[]"},{"name":"amounts","type":"uint256[]","internalType":"uint256[]"},{"name":"increase","type":"bool","internalType":"bool"},{"name":"_age","type":"uint256","internalType":"uint256"}],"outputs":[],"stateMutability":"nonpayable"},{"type":"function","name":"withdrawnByEpoch","inputs":[{"name":"epoch","type":"uint256","internalType":"uint256"}],"outputs":[{"name":"","type":"uint256","internalType":"uint256"}],"stateMutability":"view"},{"type":"function","name":"withdrawnIncomeOf","inputs":[{"name":"user","type":"address","internalType":"address"}],"outputs":[{"name":"","type":"uint256","internalType":"uint256"}],"stateMutability":"view"},{"type":"event","name":"Claimed","inputs":[{"name":"user","type":"address","indexed":true,"internalType":"address"},{"name":"amount","type":"uint256","indexed":false,"internalType":"uint256"},{"name":"epoch","type":"uint256","indexed":false,"internalType":"uint256"}],"anonymous":false},{"type":"event","name":"DelegatorMapped","inputs":[{"name":"delegator","type":"address","indexed":true,"internalType":"address"},{"name":"user","type":"address","indexed":true,"internalType":"address"}],"anonymous":false},{"type":"event","name":"OwnershipTransferred","inputs":[{"name":"previousOwner","type":"address","indexed":true,"internalType":"address"},{"name":"newOwner","type":"address","indexed":true,"internalType":"address"}],"anonymous":false},{"type":"error","name":"AlreadyUpdatedForToDay","inputs":[]},{"type":"error","name":"ClaimLimitReached","inputs":[]},{"type":"error","name":"InactiveDelegator","inputs":[]},{"type":"error","name":"InsufficientIncome","inputs":[]},{"type":"error","name":"LengthMismatch","inputs":[]},{"type":"error","name":"NotMapped","inputs":[]},{"type":"error","name":"OwnableInvalidOwner","inputs":[{"name":"owner","type":"address","internalType":"address"}]},{"type":"error","name":"OwnableUnauthorizedAccount","inputs":[{"name":"account","type":"address","internalType":"address"}]},{"type":"error","name":"StaticCallFailed","inputs":[]},{"type":"error","name":"TransferFailed","inputs":[]},{"type":"error","name":"ZeroAddress","inputs":[]}],"bytecode":{"object":"0x60806040908082523461018e5733156101785750600080546001600160a01b0319808216339081178455845194919391926001600160a01b03167f8be0079c531659141344cd1fd0a4f28419497f9722a3daafe3b4186f6b6457e08380a36064600a5568056bc75e2d63100000600b556006670de0b6b3a76400009384600c556064835260019460209186835285852060ff199088828254161790556003845286862073e77ab47de567b3a79849f38dbad1d321b3ace9d890818482541617905580875260048552878720606484825416179055606487526002855287872089838254161790558652600584528287872055848452662386f26fc1000097888888205560c88752808552878720818382541617905560038552878720927355464e2df31e770145c6085a5e3874b3bcc5535b9384828254161790558388526004865260c88989209182541617905560c88752600285528787209182541617905584526005825284842055522055610d3990816101948239f35b631e4fbdf760e01b815260006004820152602490fd5b600080fdfe60406080815260049081361015610020575b5050361561001e57600080fd5b005b600091823560e01c908163020a0ff514610b9357816312595b3614610b5357816337c33c7f14610a7d5781634e71d92d146108145781636f77926b146107da57816370a0823114610791578163715018a6146107285781637c46727c14610700578163841de46e146106b85781638da5cb5b146106925781639a6eb00a146106705781639b03bea6146106395781639fb2726b1461047b578163a64ad59514610443578163ab937cc114610424578163ac7a1b5b14610405578163be610676146103e6578163dcd9bb42146103c4578163e6fbbae214610388578163edce73f114610351578163f2fde38b146102a4578163f33b32f314610164575063fd8ab4820361001157346101605760203660031901126101605760ff816020936001600160a01b0361014d610bb5565b1681526001855220541690519015158152f35b5080fd5b919050346102a057806003193601126102a05767ffffffffffffffff823581811161029c576101969036908501610bd0565b929091602435908111610298576101b09036908601610bd0565b946101b9610cbf565b8585036102715750855b8481106101ce578680f35b6001600160a01b0390816101eb6101e6838989610c85565b610cab565b168852600191602083815260ff9182878c2054161561024a575b610210848b88610c85565b35918215158093036102465760029161022d6101e6878d8d610c85565b168c5252858a209160ff198354169116179055016101c3565b8b80fd5b806102596101e6868c8c610c85565b168b52848252868b20805460ff191686179055610205565b82517fff633a38000000000000000000000000000000000000000000000000000000008152fd5b8580fd5b8480fd5b8280fd5b9050346102a05760203660031901126102a0576102bf610bb5565b906102c8610cbf565b6001600160a01b0380921692831561032257505082548273ffffffffffffffffffffffffffffffffffffffff198216178455167f8be0079c531659141344cd1fd0a4f28419497f9722a3daafe3b4186f6b6457e08380a380f35b908460249251917f1e4fbdf7000000000000000000000000000000000000000000000000000000008352820152fd5b50503461016057602036600319011261016057806020926001600160a01b03610378610bb5565b1681526006845220549051908152f35b5050346101605760203660031901126101605760ff816020936001600160a01b036103b1610bb5565b1681526002855220541690519015158152f35b839034610160576020366003190112610160576103df610cbf565b35600b5580f35b505034610160578160031936011261016057602090600a549051908152f35b505034610160578160031936011261016057602090600b549051908152f35b505034610160578160031936011261016057602090600c549051908152f35b9050346102a05760203660031901126102a057816020936001600160a01b03928361046c610bb5565b16825285522054169051908152f35b919050346102a05760803660031901126102a05767ffffffffffffffff823581811161029c576104ae9036908501610bd0565b906024928335908111610635576104c89036908701610bd0565b9060443593841515850361063157606435926104e2610cbf565b80820361060957895b8281106104f6578a80f35b8890868c8585888c156105cf57505050919250506001600160a01b03806105216101e685888c610c85565b1682526009878c602094838652205414600014610560578c8c517fe3913549000000000000000000000000000000000000000000000000000000008152fd5b918d8261059f6101e68f8a6105988f998f8f8e918e9687948f9e60059f6101e6888b61058b93610c85565b168d528d528b2055610c85565b3598610c85565b16905252898c2080549182018092116105bd57556001905b016104eb565b898d60118e634e487b7160e01b835252fd5b6105f16101e687600199956105988261060299976001600160a01b0397610c85565b168152600560205220918254610c62565b90556105b7565b8888517fff633a38000000000000000000000000000000000000000000000000000000008152fd5b8880fd5b8680fd5b50503461016057602036600319011261016057806020926001600160a01b03610660610bb5565b1681526005845220549051908152f35b8390346101605760203660031901126101605761068b610cbf565b35600c5580f35b5050346101605781600319360112610160576001600160a01b0360209254169051908152f35b919050826003193601126102a0576106ce610cbf565b828080806001600160a01b0381541647905af16106e9610c01565b50156106f3578280f35b516312171d8360e31b8152fd5b9050346102a05760203660031901126102a05760209282913581526007845220549051908152f35b833461078e578060031936011261078e57610741610cbf565b806001600160a01b03815473ffffffffffffffffffffffffffffffffffffffff1981168355167f8be0079c531659141344cd1fd0a4f28419497f9722a3daafe3b4186f6b6457e08280a380f35b80fd5b505034610160576020366003190112610160576107d36020926001600160a01b036107ba610bb5565b1681526005845282808220549160068652205490610c62565b9051908152f35b50503461016057602036600319011261016057602091816001600160a01b039182610803610bb5565b168152600385522054169051908152f35b8383346101605781600319360112610160573382526020908382526001600160a01b0381842054168015610a6e5783526002825260ff818420541615610a46578051828101907f262a9dff00000000000000000000000000000000000000000000000000000000825285815282810181811067ffffffffffffffff821117610a3357835251849182919073c0cee8b561cc4f60869776ca5b0b7a295e04f5af5afa6108bd610c01565b9015610a0b578281805181010312610a075782015133845260088352818420818552835281842054600a5411156109df573384526005835261090a82852054600685528386205490610c62565b92600c5484106109b757600b548085116109af575b503385526006815282852084815401905581855260078152828520848154019055338552600881528285208286528152828520600181540190558480808087335af1610969610c01565b50156109a057825193845283015233917f987d620f307ff6b94d58743cb7a7509f24071586a77759b77c2d4e29f75a2f9a9190a280f35b8583516312171d8360e31b8152fd5b93508661091f565b8583517fdc417a24000000000000000000000000000000000000000000000000000000008152fd5b8482517f9907008b000000000000000000000000000000000000000000000000000000008152fd5b8380fd5b8482517fe10bf1cc000000000000000000000000000000000000000000000000000000008152fd5b602486604189634e487b7160e01b835252fd5b8390517fcbbf0908000000000000000000000000000000000000000000000000000000008152fd5b848251633a3c22ef60e11b8152fd5b9050346102a05760203660031901126102a0576001600160a01b03610aa0610bb5565b16918215610b2d57338452600160205260ff818520541615610b205733845260036020528084209173ffffffffffffffffffffffffffffffffffffffff199284848254161790558385526020528320903390825416179055337f8e2e851cf5758a04675faf37f2aa5655c777ca3103ab57e60845ad85aaf008618380a380f35b51633a3c22ef60e11b8152fd5b517fd92e233d000000000000000000000000000000000000000000000000000000008152fd5b505034610160578060031936011261016057806020926001600160a01b03610b79610bb5565b168152600884528181206024358252845220549051908152f35b83903461016057602036600319011261016057610bae610cbf565b35600a5580f35b600435906001600160a01b0382168203610bcb57565b600080fd5b9181601f84011215610bcb5782359167ffffffffffffffff8311610bcb576020808501948460051b010111610bcb57565b3d15610c5d5767ffffffffffffffff903d828111610c475760405192601f8201601f19908116603f0116840190811184821017610c475760405282523d6000602084013e565b634e487b7160e01b600052604160045260246000fd5b606090565b91908203918211610c6f57565b634e487b7160e01b600052601160045260246000fd5b9190811015610c955760051b0190565b634e487b7160e01b600052603260045260246000fd5b356001600160a01b0381168103610bcb5790565b6001600160a01b03600054163303610cd357565b60246040517f118cdaa7000000000000000000000000000000000000000000000000000000008152336004820152fdfea26469706673582212206de53b20707bd9edc33e9d0704d8502e4b44dd83ed1983df39adf17ff41ef5ae64736f6c63430008140033","linkReferences":{}},"methodIdentifiers":{"balanceOf(address)":"70a08231","claim()":"4e71d92d","claimCountOf(address,uint256)":"12595b36","claimLimit()":"be610676","getDelegator(address)":"a64ad595","getUser(address)":"6f77926b","incomeOf(address)":"9b03bea6","isDelegator(address)":"fd8ab482","isDelegatorActive(address)":"e6fbbae2","mapDelegator(address)":"37c33c7f","maxWithdraw()":"ac7a1b5b","minClaim()":"ab937cc1","owner()":"8da5cb5b","renounceOwnership()":"715018a6","revertBalance()":"841de46e","setClaimLimit(uint256)":"020a0ff5","setMaxWithdraw(uint256)":"dcd9bb42","setMinClaim(uint256)":"9a6eb00a","transferOwnership(address)":"f2fde38b","updateDelegators(address[],bool[])":"f33b32f3","updateIncome(address[],uint256[],bool,uint256)":"9fb2726b","withdrawnByEpoch(uint256)":"7c46727c","withdrawnIncomeOf(address)":"edce73f1"},"id":82}