{"abi":[{"type":"constructor","inputs":[{"name":"_hex","type":"address","internalType":"address"}],"stateMutability":"nonpayable"},{"type":"fallback","stateMutability":"payable"},{"type":"receive","stateMutability":"payable"},{"type":"function","name":"Burn","inputs":[{"name":"amount","type":"uint256","internalType":"uint256"}],"outputs":[],"stateMutability":"nonpayable"},{"type":"function","name":"_delegatorCount","inputs":[],"outputs":[{"name":"","type":"uint256","internalType":"uint256"}],"stateMutability":"view"},{"type":"function","name":"_getImplementation","inputs":[{"name":"clone","type":"address","internalType":"address"}],"outputs":[{"name":"impl","type":"address","internalType":"address"}],"stateMutability":"view"},{"type":"function","name":"_isDelegatorNode","inputs":[{"name":"sender","type":"address","internalType":"address"}],"outputs":[{"name":"","type":"bool","internalType":"bool"}],"stateMutability":"view"},{"type":"function","name":"_isSafe","inputs":[],"outputs":[{"name":"","type":"bool","internalType":"bool"}],"stateMutability":"view"},{"type":"function","name":"_isSecureBase","inputs":[{"name":"sender","type":"address","internalType":"address"}],"outputs":[{"name":"","type":"bool","internalType":"bool"}],"stateMutability":"view"},{"type":"function","name":"_isSigner","inputs":[{"name":"sender","type":"address","internalType":"address"}],"outputs":[{"name":"","type":"bool","internalType":"bool"}],"stateMutability":"view"},{"type":"function","name":"getBalance","inputs":[],"outputs":[{"name":"","type":"uint256","internalType":"uint256"}],"stateMutability":"view"},{"type":"function","name":"getHexbase","inputs":[],"outputs":[{"name":"","type":"address","internalType":"address"}],"stateMutability":"view"},{"type":"function","name":"owner","inputs":[],"outputs":[{"name":"","type":"address","internalType":"address"}],"stateMutability":"view"},{"type":"function","name":"ozonePriceInUSDT","inputs":[],"outputs":[{"name":"","type":"uint256","internalType":"uint256"}],"stateMutability":"view"},{"type":"function","name":"setAddRemoveOwner","inputs":[{"name":"_newowner","type":"address","internalType":"address"}],"outputs":[],"stateMutability":"nonpayable"},{"type":"function","name":"setOzoneprice","inputs":[{"name":"_prc","type":"uint256","internalType":"uint256"}],"outputs":[],"stateMutability":"nonpayable"},{"type":"function","name":"systemAge","inputs":[],"outputs":[{"name":"","type":"uint256","internalType":"uint256"}],"stateMutability":"view"},{"type":"event","name":"EthBurned","inputs":[{"name":"sender","type":"address","indexed":true,"internalType":"address"},{"name":"amount","type":"uint256","indexed":false,"internalType":"uint256"}],"anonymous":false},{"type":"event","name":"EthTransferred","inputs":[{"name":"to","type":"address","indexed":true,"internalType":"address"},{"name":"amount","type":"uint256","indexed":false,"internalType":"uint256"}],"anonymous":false},{"type":"event","name":"HexBaseUpdated","inputs":[{"name":"previousHexBase","type":"address","indexed":true,"internalType":"address"},{"name":"newHexBase","type":"address","indexed":true,"internalType":"address"}],"anonymous":false},{"type":"event","name":"OwnerUpdated","inputs":[{"name":"previousOwner","type":"address","indexed":true,"internalType":"address"},{"name":"newOwner","type":"address","indexed":true,"internalType":"address"}],"anonymous":false},{"type":"error","name":"TargetCallFailed","inputs":[{"name":"selector","type":"bytes4","internalType":"bytes4"}]}],"bytecode":{"object":"0x6080346100d257601f610f7d38819003918201601f19168301916001600160401b038311848410176100d7578084926020946040528339810103126100d257516001600160a01b038116908190036100d257801561008d5760018060a01b0319338160015416176001556000541617600055681e162c177be5cc0000600355604051610e8f90816100ee8239f35b60405162461bcd60e51b815260206004820152601360248201527f6f776e2e696e76616c69642e68657862617365000000000000000000000000006044820152606490fd5b600080fd5b634e487b7160e01b600052604160045260246000fdfe60806040526004361015610018575b361561001657005b005b60003560e01c806312065fe0146100f8578063126dd1e0146100f357806315ec7fad146100ee5780631f185d16146100e95780633b9b7955146100e45780637d8ec03a146100df5780638da5cb5b146100da578063a1f7f539146100d5578063af484526146100d0578063b90306ad146100cb578063c54e44b0146100c6578063e01ad5fd146100c1578063e0a9bc2b146100bc5763fdc10bc90361000e5761080c565b6107f1565b610752565b6106b9565b6105b5565b610584565b6104cd565b6104a4565b610486565b61045d565b610351565b610258565b61012a565b3461011457600036600319011261011457602047604051908152f35b600080fd5b6001600160a01b0381160361011457565b346101145760203660031901126101145760043561014781610119565b60008054604051630536340960e21b815291926001600160a01b0392916020908390600490829087165afa918215610241578392610190918691610213575b5083163314610c4d565b169081156101da57600154826bffffffffffffffffffffffff60a01b821617600155167f8292fce18fa69edf4db7b94ea2e58241df0ae57f97e0a6c9b29067028bf92d768380a380f35b60405162461bcd60e51b815260206004820152601160248201527037bbb71734b73b30b634b21737bbb732b960791b6044820152606490fd5b610234915060203d811161023a575b61022c81836108f2565b810190610914565b38610186565b503d610222565b61092c565b60209060031901126101145760043590565b346101145761026636610246565b61026e6109cb565b156103175761027c33610af6565b908115610295575b61029061001692610e0d565b600355565b600054600492506020906102b9906001600160a01b03165b6001600160a01b031690565b604051630536340960e21b815293849182905afa9182156102415761001692610290916000916102f9575b506001600160a01b0316331492506102849050565b610311915060203d811161023a5761022c81836108f2565b386102e4565b60405162461bcd60e51b81526020600482015260126024820152716f776e2e696e76616c69642e69735361666560701b6044820152606490fd5b34610114576020806003193601126101145760049081359061037282610119565b6000548190610389906001600160a01b03166102ad565b604051634bf9c0ad60e11b815294859182905afa918215610241576103e061041a936103fc9261042c9660009261043a575b506040516001600160a01b0390911685820190815290926103ee918491602090910190565b03601f1981018452836108f2565b6103f6610ba2565b90610cf9565b919080610430575b61040d90610bcf565b80825183010191016109b3565b60405190151581529081906020820190565b0390f35b5081518114610404565b6103ee91925061045690863d881161023a5761022c81836108f2565b91906103bb565b34610114576000366003190112610114576000546040516001600160a01b039091168152602090f35b34610114576000366003190112610114576020600354604051908152f35b34610114576000366003190112610114576001546040516001600160a01b039091168152602090f35b346101145760003660031901126101145760005460405163d1f956b160e01b815290602090829060049082906001600160a01b03165afa9081156102415761042c9161055691600091610566575b50604051610528816108b5565b601381527267657464656c656761746f72436f756e74282960681b6020820152610550610954565b91610dcf565b6040519081529081906020820190565b61057e915060203d811161023a5761022c81836108f2565b3861051b565b346101145760203660031901126101145760206105ab6004356105a681610119565b610af6565b6040519015158152f35b34610114576105c336610246565b60008054604051630536340960e21b81529192916020916001600160a01b039081168383600481845afa92831561024157600493859361060d92899261069a575b50163314610c4d565b6040516311be646b60e21b815292839182905afa9182156102415784808561064c9582958395849261067d575b50505af1610646610c8b565b50610cbb565b60405190815233907fcdcc745fe377b103b45fa0cec23ae3ef93d6fc6a84a01f0d18c40b354dd1d5d890602090a280f35b6106939250803d1061023a5761022c81836108f2565b388061063a565b6106b2919250853d871161023a5761022c81836108f2565b9038610604565b34610114576020366003190112610114576004356106d681610119565b803b60006106e382610938565b926106f160405194856108f2565b82845260208401903c602d81511061071757602a015160405160609190911c8152602090f35b60405162461bcd60e51b81526020600482015260136024820152724e6f742061206d696e696d616c2070726f787960681b6044820152606490fd5b3461011457602080600319360112610114576004803561077181610119565b60005460405163d1f956b160e01b81526001600160a01b03949093909182918591829088165afa9081156102415761042c9461041a946000936107d2575b5060405193168184015282526107c4826108b5565b6107cc610c14565b90610d93565b6107ea919350823d841161023a5761022c81836108f2565b91386107af565b346101145760003660031901126101145760206105ab6109cb565b346101145760003660031901126101145760005460405163111ea8c160e21b815290602090829060049082906001600160a01b03165afa9081156102415761042c9161055691600091610881575b50604051610867816108b5565b6005815264616765282960d81b6020820152610550610954565b610899915060203d811161023a5761022c81836108f2565b3861085a565b634e487b7160e01b600052604160045260246000fd5b6040810190811067ffffffffffffffff8211176108d157604052565b61089f565b6020810190811067ffffffffffffffff8211176108d157604052565b90601f8019910116810190811067ffffffffffffffff8211176108d157604052565b90816020910312610114575161092981610119565b90565b6040513d6000823e3d90fd5b67ffffffffffffffff81116108d157601f01601f191660200190565b60405190610961826108d6565b60008252565b1561096e57565b60405162461bcd60e51b815260206004820152601960248201527f6f776e2e7361666567756172642e63616c6c2e6661696c6564000000000000006044820152606490fd5b90816020910312610114575180151581036101145790565b600054604051634bf9c0ad60e11b8152906020908190839060049082906001600160a01b03165afa9182156102415761092992610a4191600091610a5c575b50604051610a17816108b5565b6008815267697353616665282960c01b8482015260405191610a38836108d6565b60008352610cf9565b919080610a52575b61040d90610967565b5081518114610a49565b610a739150833d851161023a5761022c81836108f2565b38610a0a565b60405190610a86826108b5565b601582527469735365637572654261736528616464726573732960581b6020830152565b15610ab157565b60405162461bcd60e51b815260206004820152601a60248201527f6f776e2e736563757265626173652e63616c6c2e6661696c65640000000000006044820152606490fd5b6000546001600160a01b0316604051918291634bf9c0ad60e11b835282600460209485935afa9283156102415761092993610b64926103e092600092610b7f575b506040516001600160a01b039091168582019081529092610b5c918491602090910190565b6103f6610a79565b919080610b75575b61040d90610aaa565b5081518114610b6c565b610b5c919250610b9b90863d881161023a5761022c81836108f2565b9190610b37565b60405190610baf826108b5565b601182527069735369676e657228616464726573732960781b6020830152565b15610bd657565b60405162461bcd60e51b81526020600482015260166024820152751bdddb8b9cda59db995c8b98d85b1b0b99985a5b195960521b6044820152606490fd5b60405190610c21826108b5565b601882527f697364656c656761746f724e6f646528616464726573732900000000000000006020830152565b15610c5457565b60405162461bcd60e51b815260206004820152600f60248201526e6f776e2e6e6f6e617574682e44414f60881b6044820152606490fd5b3d15610cb6573d90610c9c82610938565b91610caa60405193846108f2565b82523d6000602084013e565b606090565b15610cc257565b60405162461bcd60e51b815260206004820152600f60248201526e1bdddb8b989d5c9b8b99985a5b1959608a1b6044820152606490fd5b9190823b15610d7a578051906020918263ffffffff60e01b92012016916040519180830193845281519160005b838110610d66575050509181610d53602482600097959688970187838201520360048101845201826108f2565b5191620dbba0fa610d62610c8b565b9091565b818101830151858201602401528201610d26565b505050600090604051610d8c816108d6565b6000815290565b9291610da191600094610cf9565b9080610dc4575b610daf5750565b610929919250602080825183010191016109b3565b506020815114610da8565b9291610ddd91600094610cf9565b9080610e02575b610deb5750565b909150602081805181010312610114576020015190565b506020815114610de4565b15610e1457565b60405162461bcd60e51b815260206004820152601b60248201527f6f776e2e6e6f6e617574682e44414f6f725365637572656261736500000000006044820152606490fdfea2646970667358221220d7ed57928f2d64524c3846f3a618b8143dda2b2f54194d58c7a0dec386af999164736f6c63430008140033","linkReferences":{}},"methodIdentifiers":{"Burn(uint256)":"b90306ad","_delegatorCount()":"a1f7f539","_getImplementation(address)":"c54e44b0","_isDelegatorNode(address)":"e01ad5fd","_isSafe()":"e0a9bc2b","_isSecureBase(address)":"af484526","_isSigner(address)":"1f185d16","getBalance()":"12065fe0","getHexbase()":"3b9b7955","owner()":"8da5cb5b","ozonePriceInUSDT()":"7d8ec03a","setAddRemoveOwner(address)":"126dd1e0","setOzoneprice(uint256)":"15ec7fad","systemAge()":"fdc10bc9"},"id":69}