{"abi":[{"type":"constructor","inputs":[{"name":"_hex","type":"address","internalType":"address"}],"stateMutability":"nonpayable"},{"type":"fallback","stateMutability":"payable"},{"type":"receive","stateMutability":"payable"},{"type":"function","name":"Burn","inputs":[{"name":"amount","type":"uint256","internalType":"uint256"}],"outputs":[],"stateMutability":"nonpayable"},{"type":"function","name":"_delegatorCount","inputs":[],"outputs":[{"name":"","type":"uint256","internalType":"uint256"}],"stateMutability":"view"},{"type":"function","name":"_getImplementation","inputs":[{"name":"clone","type":"address","internalType":"address"}],"outputs":[{"name":"impl","type":"address","internalType":"address"}],"stateMutability":"view"},{"type":"function","name":"_isDelegatorNode","inputs":[{"name":"sender","type":"address","internalType":"address"}],"outputs":[{"name":"","type":"bool","internalType":"bool"}],"stateMutability":"view"},{"type":"function","name":"_isSafe","inputs":[],"outputs":[{"name":"","type":"bool","internalType":"bool"}],"stateMutability":"view"},{"type":"function","name":"_isSecureBase","inputs":[{"name":"sender","type":"address","internalType":"address"}],"outputs":[{"name":"","type":"bool","internalType":"bool"}],"stateMutability":"view"},{"type":"function","name":"_isSigner","inputs":[{"name":"sender","type":"address","internalType":"address"}],"outputs":[{"name":"","type":"bool","internalType":"bool"}],"stateMutability":"view"},{"type":"function","name":"getBalance","inputs":[],"outputs":[{"name":"","type":"uint256","internalType":"uint256"}],"stateMutability":"view"},{"type":"function","name":"getHexbase","inputs":[],"outputs":[{"name":"","type":"address","internalType":"address"}],"stateMutability":"view"},{"type":"function","name":"owner","inputs":[],"outputs":[{"name":"","type":"address","internalType":"address"}],"stateMutability":"view"},{"type":"function","name":"ozonePriceInUSDT","inputs":[],"outputs":[{"name":"","type":"uint256","internalType":"uint256"}],"stateMutability":"view"},{"type":"function","name":"setAddRemoveOwner","inputs":[{"name":"_newowner","type":"address","internalType":"address"}],"outputs":[],"stateMutability":"nonpayable"},{"type":"function","name":"setOzoneprice","inputs":[{"name":"_prc","type":"uint256","internalType":"uint256"}],"outputs":[],"stateMutability":"nonpayable"},{"type":"function","name":"syncBaseAddr","inputs":[],"outputs":[],"stateMutability":"nonpayable"},{"type":"function","name":"systemAge","inputs":[],"outputs":[{"name":"","type":"uint256","internalType":"uint256"}],"stateMutability":"view"},{"type":"event","name":"EthBurned","inputs":[{"name":"sender","type":"address","indexed":true,"internalType":"address"},{"name":"amount","type":"uint256","indexed":false,"internalType":"uint256"}],"anonymous":false},{"type":"event","name":"EthTransferred","inputs":[{"name":"to","type":"address","indexed":true,"internalType":"address"},{"name":"amount","type":"uint256","indexed":false,"internalType":"uint256"}],"anonymous":false},{"type":"event","name":"HexBaseUpdated","inputs":[{"name":"previousHexBase","type":"address","indexed":true,"internalType":"address"},{"name":"newHexBase","type":"address","indexed":true,"internalType":"address"}],"anonymous":false},{"type":"event","name":"OwnerUpdated","inputs":[{"name":"previousOwner","type":"address","indexed":true,"internalType":"address"},{"name":"newOwner","type":"address","indexed":true,"internalType":"address"}],"anonymous":false},{"type":"error","name":"CallFailed","inputs":[]},{"type":"error","name":"InvalidAddress","inputs":[]},{"type":"error","name":"InvalidState","inputs":[]},{"type":"error","name":"NotAuthorized","inputs":[]},{"type":"error","name":"NotSafe","inputs":[]},{"type":"error","name":"TargetCallFailed","inputs":[{"name":"selector","type":"bytes4","internalType":"bytes4"}]}],"bytecode":{"object":"0x60803461009f57601f6112c538819003918201601f19168301916001600160401b038311848410176100a45780849260209460405283398101031261009f57516001600160a01b0381169081900361009f57801561008d5760018060a01b031933816001541617600155600054161760005568056bc75e2d6310000060115560405161120a90816100bb8239f35b60405163e6c4247b60e01b8152600490fd5b600080fd5b634e487b7160e01b600052604160045260246000fdfe60806040526004361015610018575b361561001657005b005b60003560e01c806312065fe014610108578063126dd1e01461010357806315ec7fad146100fe5780631f185d16146100f9578063339459a6146100f45780633b9b7955146100ef5780637d8ec03a146100ea5780638da5cb5b146100e5578063a1f7f539146100e0578063af484526146100db578063b90306ad146100d6578063c54e44b0146100d1578063e01ad5fd146100cc578063e0a9bc2b146100c75763fdc10bc90361000e57610ba2565b610b87565b610ac0565b610a52565b61097d565b61094c565b6108e2565b6108b9565b61089b565b610872565b610315565b61024e565b6101f3565b610146565b3461012457600036600319011261012457602047604051908152f35b600080fd5b6001600160a01b031690565b6001600160a01b0381160361012457565b346101245760203660031901126101245760043561016381610135565b6005546001600160a01b039190821633036101cf5781169081156101bd57600180546001600160a01b031981168417909155167f8292fce18fa69edf4db7b94ea2e58241df0ae57f97e0a6c9b29067028bf92d76600080a3005b60405163e6c4247b60e01b8152600490fd5b60405163ea8e4eb560e01b8152600490fd5b60209060031901126101245760043590565b3461012457610201366101e1565b610209610fdc565b1561023c576102173361104e565b8015610228575b156101cf57601155005b506005546001600160a01b0316331461021e565b604051634ee2123760e11b8152600490fd5b3461012457602080600319360112610124576102c160043561026f81610135565b6002546040516001600160a01b0392831685820152848152911661029282610c04565b6040519061029f82610c04565b601182527069735369676e657228616464726573732960781b858301526110ff565b91908061030b575b156102f95781816102e3926102f594518301019101610fc4565b60405190151581529081906020820190565b0390f35b604051633204506f60e01b8152600490fd5b50808251146102c9565b3461012457600036600319011261012457610339610334600054610129565b610129565b604051634bf9c0ad60e11b815290602082600481845afa9182156106a257600092610851575b5060405163cfbffe5360e01b815291602083600481855afa9283156106a257600093610830575b5060405163ab6e844f60e01b815290602082600481865afa9182156106a25760009261080f575b50604051630536340960e21b815291602083600481875afa9283156106a2576000936107ee575b5060405163d1f956b160e01b815292602084600481885afa9384156106a2576000946107cd575b50604051631cc3bfab60e31b815293602085600481895afa9485156106a2576000956107ac575b5060405163e09d394d60e01b81526020816004818a5afa9081156106a25760009161078d575b506040516314ac1b5960e21b81526020816004818b5afa9081156106a25760009161076e575b5060405163013cf08b60e01b815260006004820152916020836024818c5afa9283156106a25760009361074d575b50604051635e09dbe760e01b8152976020896004818d5afa9485156106a25760049960009661072c575b50604051635506ee0b60e11b8152996020908b90818e5afa9687156106a25760049a60009861070b575b50604051636402742760e01b81529a6020908c90818f5afa9889156106a25760049b60009a6106ea575b5060208d6040519d8e80926330125cf560e01b82525afa9a8b156106a2578d60049d60009d6106c8575b506020906040519e8f80926324768d9160e01b82525afa9c8d156106a25760009d6106a7575b506040516313b92d3560e31b81529d8e9081905a92600491602094fa9d8e156106a25760009e610671575b5061059e610c86565b9e8f916105ab9083610ca6565b6105b89060208301610ca6565b604001906105c591610ca6565b6105d29060608e01610ca6565b6105df9060808d01610ca6565b6105ec9060a08c01610ca6565b6105f99060c08b01610ca6565b6106069060e08a01610ca6565b610614906101008901610ca6565b610622906101208801610ca6565b610630906101408701610ca6565b61063e906101608601610ca6565b61064c906101808501610ca6565b61065a906101a08401610ca6565b610668906101c08301610ca6565b61001690610cb5565b610694919e5060203d60201161069b575b61068c8183610c3f565b810190610c62565b9c38610595565b503d610682565b610c7a565b6106c1919d5060203d60201161069b5761068c8183610c3f565b9b3861056a565b6020919d506106e390823d841161069b5761068c8183610c3f565b9c90610544565b610704919a5060203d60201161069b5761068c8183610c3f565b983861051a565b61072591985060203d60201161069b5761068c8183610c3f565b96386104f0565b61074691965060203d60201161069b5761068c8183610c3f565b94386104c6565b61076791935060203d60201161069b5761068c8183610c3f565b913861049c565b610787915060203d60201161069b5761068c8183610c3f565b3861046e565b6107a6915060203d60201161069b5761068c8183610c3f565b38610448565b6107c691955060203d60201161069b5761068c8183610c3f565b9338610422565b6107e791945060203d60201161069b5761068c8183610c3f565b92386103fb565b61080891935060203d60201161069b5761068c8183610c3f565b91386103d4565b61082991925060203d60201161069b5761068c8183610c3f565b90386103ad565b61084a91935060203d60201161069b5761068c8183610c3f565b9138610386565b61086b91925060203d60201161069b5761068c8183610c3f565b903861035f565b34610124576000366003190112610124576000546040516001600160a01b039091168152602090f35b34610124576000366003190112610124576020601154604051908152f35b34610124576000366003190112610124576001546040516001600160a01b039091168152602090f35b3461012457600036600319011261012457602061094460018060a01b036006541660405161090f81610c04565b601381527267657464656c656761746f72436f756e74282960681b848201526040519161093b83610c24565b60008352611196565b604051908152f35b3461012457602036600319011261012457602061097360043561096e81610135565b61104e565b6040519015158152f35b346101245761098b366101e1565b6005546001600160a01b031633036101cf57600090600460206109b16103348554610129565b6040516311be646b60e21b815292839182905afa80156106a25783808481949382948391610a34575b505af16109e56110cf565b50156102f9577fcdcc745fe377b103b45fa0cec23ae3ef93d6fc6a84a01f0d18c40b354dd1d5d8610a2e610a1d610334600b54610129565b604051938452929081906020820190565b0390a280f35b610a4c915060203d811161069b5761068c8183610c3f565b386109da565b3461012457602036600319011261012457600435610a6f81610135565b803b6000610a7c82610fa9565b92610a8a6040519485610c3f565b82845260208401903c602d815110610aae57602a602091015160601c604051908152f35b60405163baf3f0f760e01b8152600490fd5b3461012457602080600319360112610124576102f59060043590610ae382610135565b6006546040516001600160a01b0393841683820152828152921691610b4390610b0b81610c04565b604051610b1781610c04565b6018815277697364656c656761746f724e6f646528616464726573732960401b848201526000946110ff565b919080610b7d575b610b64575b505060405190151581529081906020820190565b610b7692508082518301019101610fc4565b3880610b50565b5080825114610b4b565b34610124576000366003190112610124576020610973610fdc565b3461012457600036600319011261012457602061094460018060a01b0360035416604051610bcf81610c04565b600681526569416765282960d01b848201526040519161093b83610c24565b634e487b7160e01b600052604160045260246000fd5b604081019081106001600160401b03821117610c1f57604052565b610bee565b602081019081106001600160401b03821117610c1f57604052565b601f909101601f19168101906001600160401b03821190821017610c1f57604052565b908160209103126101245751610c7781610135565b90565b6040513d6000823e3d90fd5b604051906101e082016001600160401b03811183821017610c1f57604052565b6001600160a01b039091169052565b610f856101c0610fa792610cee610ccc8251610129565b600280546001600160a01b0319166001600160a01b0392909216919091179055565b610d20610cfe6020830151610129565b600380546001600160a01b0319166001600160a01b0392909216919091179055565b610d52610d306040830151610129565b600480546001600160a01b0319166001600160a01b0392909216919091179055565b610d84610d626060830151610129565b600580546001600160a01b0319166001600160a01b0392909216919091179055565b610db6610d946080830151610129565b600680546001600160a01b0319166001600160a01b0392909216919091179055565b610de8610dc660a0830151610129565b600780546001600160a01b0319166001600160a01b0392909216919091179055565b610e1a610df860c0830151610129565b600880546001600160a01b0319166001600160a01b0392909216919091179055565b610e4c610e2a60e0830151610129565b600980546001600160a01b0319166001600160a01b0392909216919091179055565b610e7f610e5d610100830151610129565b600a80546001600160a01b0319166001600160a01b0392909216919091179055565b610eb2610e90610120830151610129565b600b80546001600160a01b0319166001600160a01b0392909216919091179055565b610ee5610ec3610140830151610129565b600c80546001600160a01b0319166001600160a01b0392909216919091179055565b610f18610ef6610160830151610129565b600d80546001600160a01b0319166001600160a01b0392909216919091179055565b610f4b610f29610180830151610129565b600e80546001600160a01b0319166001600160a01b0392909216919091179055565b610f7e610f5c6101a0830151610129565b600f80546001600160a01b0319166001600160a01b0392909216919091179055565b0151610129565b601080546001600160a01b0319166001600160a01b0392909216919091179055565b565b6001600160401b038111610c1f57601f01601f191660200190565b90816020910312610124575180151581036101245790565b600254604051611024916001600160a01b031690610ff981610c04565b6008815267697353616665282960c01b60208201526040519161101b83610c24565b600083526110ff565b9080611043575b156102f95780602080610c7793518301019101610fc4565b50602081511461102b565b6110a860018060a01b03806002541660405191602094168483015283825261107582610c04565b6040519061108282610c04565b601582527469735365637572654261736528616464726573732960581b858301526110ff565b90806110c5575b156102f95781610c779282518301019101610fc4565b50818151146110af565b3d156110fa573d906110e082610fa9565b916110ee6040519384610c3f565b82523d6000602084013e565b606090565b9190823b1561117d578051906020918263ffffffff60e01b92012016916040519180830193845281519160005b83811061116957505050918161115960248260009795968897018783820152036004810184520182610c3f565b51915afa6111656110cf565b9091565b81810183015185820160240152820161112c565b50505060009060405161118f81610c24565b6000815290565b92916111a4916000946110ff565b90806111c9575b6111b25750565b909150602081805181010312610124576020015190565b5060208151146111ab56fea26469706673582212208d0f55825b63d90b20ca0fe97b0c94f48e983177e15c9a54922317e2a6dc658964736f6c63430008140033","linkReferences":{}},"methodIdentifiers":{"Burn(uint256)":"b90306ad","_delegatorCount()":"a1f7f539","_getImplementation(address)":"c54e44b0","_isDelegatorNode(address)":"e01ad5fd","_isSafe()":"e0a9bc2b","_isSecureBase(address)":"af484526","_isSigner(address)":"1f185d16","getBalance()":"12065fe0","getHexbase()":"3b9b7955","owner()":"8da5cb5b","ozonePriceInUSDT()":"7d8ec03a","setAddRemoveOwner(address)":"126dd1e0","setOzoneprice(uint256)":"15ec7fad","syncBaseAddr()":"339459a6","systemAge()":"fdc10bc9"},"id":2}