{"abi":[{"type":"constructor","inputs":[{"name":"_hex","type":"address","internalType":"address"}],"stateMutability":"nonpayable"},{"type":"fallback","stateMutability":"payable"},{"type":"receive","stateMutability":"payable"},{"type":"function","name":"Burn","inputs":[{"name":"amount","type":"uint256","internalType":"uint256"}],"outputs":[],"stateMutability":"nonpayable"},{"type":"function","name":"_delegatorCount","inputs":[],"outputs":[{"name":"","type":"uint256","internalType":"uint256"}],"stateMutability":"view"},{"type":"function","name":"_getImplementation","inputs":[{"name":"clone","type":"address","internalType":"address"}],"outputs":[{"name":"impl","type":"address","internalType":"address"}],"stateMutability":"view"},{"type":"function","name":"_isDelegatorNode","inputs":[{"name":"sender","type":"address","internalType":"address"}],"outputs":[{"name":"","type":"bool","internalType":"bool"}],"stateMutability":"view"},{"type":"function","name":"_isSafe","inputs":[],"outputs":[{"name":"","type":"bool","internalType":"bool"}],"stateMutability":"view"},{"type":"function","name":"_isSecureBase","inputs":[{"name":"sender","type":"address","internalType":"address"}],"outputs":[{"name":"","type":"bool","internalType":"bool"}],"stateMutability":"view"},{"type":"function","name":"_isSigner","inputs":[{"name":"sender","type":"address","internalType":"address"}],"outputs":[{"name":"","type":"bool","internalType":"bool"}],"stateMutability":"view"},{"type":"function","name":"getBalance","inputs":[],"outputs":[{"name":"","type":"uint256","internalType":"uint256"}],"stateMutability":"view"},{"type":"function","name":"getHexbase","inputs":[],"outputs":[{"name":"","type":"address","internalType":"address"}],"stateMutability":"view"},{"type":"function","name":"owner","inputs":[],"outputs":[{"name":"","type":"address","internalType":"address"}],"stateMutability":"view"},{"type":"function","name":"ozonePriceInUSDT","inputs":[],"outputs":[{"name":"","type":"uint256","internalType":"uint256"}],"stateMutability":"view"},{"type":"function","name":"setAddRemoveOwner","inputs":[{"name":"_newowner","type":"address","internalType":"address"}],"outputs":[],"stateMutability":"nonpayable"},{"type":"function","name":"setOzoneprice","inputs":[{"name":"_prc","type":"uint256","internalType":"uint256"}],"outputs":[],"stateMutability":"nonpayable"},{"type":"function","name":"systemAge","inputs":[],"outputs":[{"name":"","type":"uint256","internalType":"uint256"}],"stateMutability":"view"},{"type":"event","name":"EthBurned","inputs":[{"name":"sender","type":"address","indexed":true,"internalType":"address"},{"name":"amount","type":"uint256","indexed":false,"internalType":"uint256"}],"anonymous":false},{"type":"event","name":"EthTransferred","inputs":[{"name":"to","type":"address","indexed":true,"internalType":"address"},{"name":"amount","type":"uint256","indexed":false,"internalType":"uint256"}],"anonymous":false},{"type":"event","name":"HexBaseUpdated","inputs":[{"name":"previousHexBase","type":"address","indexed":true,"internalType":"address"},{"name":"newHexBase","type":"address","indexed":true,"internalType":"address"}],"anonymous":false},{"type":"event","name":"OwnerUpdated","inputs":[{"name":"previousOwner","type":"address","indexed":true,"internalType":"address"},{"name":"newOwner","type":"address","indexed":true,"internalType":"address"}],"anonymous":false},{"type":"error","name":"TargetCallFailed","inputs":[{"name":"selector","type":"bytes4","internalType":"bytes4"}]}],"bytecode":{"object":"0x6080346100d257601f610f5938819003918201601f19168301916001600160401b038311848410176100d7578084926020946040528339810103126100d257516001600160a01b038116908190036100d257801561008d5760018060a01b0319338160015416176001556000541617600055681e162c177be5cc0000600355604051610e6b90816100ee8239f35b60405162461bcd60e51b815260206004820152601360248201527f6f776e2e696e76616c69642e68657862617365000000000000000000000000006044820152606490fd5b600080fd5b634e487b7160e01b600052604160045260246000fdfe60806040526004361015610018575b361561001657005b005b60003560e01c806312065fe0146100f8578063126dd1e0146100f357806315ec7fad146100ee5780631f185d16146100e95780633b9b7955146100e45780637d8ec03a146100df5780638da5cb5b146100da578063a1f7f539146100d5578063af484526146100d0578063b90306ad146100cb578063c54e44b0146100c6578063e01ad5fd146100c1578063e0a9bc2b146100bc5763fdc10bc90361000e5761080a565b6107ef565b610750565b6106b4565b6105b0565b61057f565b6104c8565b61049f565b610481565b610458565b61034b565b610252565b61012a565b3461011457600036600319011261011457602047604051908152f35b600080fd5b6001600160a01b0381160361011457565b346101145760203660031901126101145760043561014781610119565b60008054604051630536340960e21b815291926001600160a01b0392916020908390600490829087165afa91821561023b57839261019091869161020d575b5083163314610c2b565b169081156101d457600180546001600160a01b031981168417909155167f8292fce18fa69edf4db7b94ea2e58241df0ae57f97e0a6c9b29067028bf92d768380a380f35b60405162461bcd60e51b815260206004820152601160248201527037bbb71734b73b30b634b21737bbb732b960791b6044820152606490fd5b61022e915060203d8111610234575b61022681836108ee565b810190610911565b38610186565b503d61021c565b610929565b60209060031901126101145760043590565b346101145761026036610240565b6102686109c3565b156103115761027633610aeb565b90811561028f575b61028a61001692610deb565b600355565b600054600492506020906102b3906001600160a01b03165b6001600160a01b031690565b604051630536340960e21b815293849182905afa91821561023b576100169261028a916000916102f3575b506001600160a01b03163314925061027e9050565b61030b915060203d81116102345761022681836108ee565b386102de565b60405162461bcd60e51b81526020600482015260126024820152716f776e2e696e76616c69642e69735361666560701b6044820152606490fd5b34610114576020806003193601126101145760049081359061036c82610119565b6000548190610383906001600160a01b03166102a7565b604051634bf9c0ad60e11b815294859182905afa91821561023b576103c8610402936103e49261041496600092610422575b506103d690604051938491878301610445565b03601f1981018452836108ee565b6103de610b85565b90610cd7565b919080610418575b6103f590610bb2565b80825183010191016109ab565b60405190151581529081906020820190565b0390f35b50815181146103ec565b6103d691925061043e90863d88116102345761022681836108ee565b91906103b5565b6001600160a01b03909116815260200190565b34610114576000366003190112610114576000546040516001600160a01b039091168152602090f35b34610114576000366003190112610114576020600354604051908152f35b34610114576000366003190112610114576001546040516001600160a01b039091168152602090f35b346101145760003660031901126101145760005460405163d1f956b160e01b815290602090829060049082906001600160a01b03165afa90811561023b576104149161055191600091610561575b50604051610523816108b3565b601381527267657464656c656761746f72436f756e74282960681b602082015261054b610950565b91610dad565b6040519081529081906020820190565b610579915060203d81116102345761022681836108ee565b38610516565b346101145760203660031901126101145760206105a66004356105a181610119565b610aeb565b6040519015158152f35b34610114576105be36610240565b60008054604051630536340960e21b81529192916020916001600160a01b039081168383600481845afa92831561023b576004938593610608928992610695575b50163314610c2b565b6040516311be646b60e21b815292839182905afa91821561023b5784808561064795829583958492610678575b50505af1610641610c69565b50610c99565b60405190815233907fcdcc745fe377b103b45fa0cec23ae3ef93d6fc6a84a01f0d18c40b354dd1d5d890602090a280f35b61068e9250803d106102345761022681836108ee565b3880610635565b6106ad919250853d87116102345761022681836108ee565b90386105ff565b34610114576020366003190112610114576004356106d181610119565b803b60006106de82610935565b926106ec60405194856108ee565b82845260208401903c602d81511061071557602a61041491015160601c60405191829182610445565b60405162461bcd60e51b81526020600482015260136024820152724e6f742061206d696e696d616c2070726f787960681b6044820152606490fd5b3461011457602080600319360112610114576004803561076f81610119565b60005460405163d1f956b160e01b81526001600160a01b03949093909182918591829088165afa90811561023b5761041494610402946000936107d0575b5060405193168184015282526107c2826108b3565b6107ca610bf7565b90610d71565b6107e8919350823d84116102345761022681836108ee565b91386107ad565b346101145760003660031901126101145760206105a66109c3565b346101145760003660031901126101145760005460405163111ea8c160e21b815290602090829060049082906001600160a01b03165afa90811561023b57610414916105519160009161087f575b50604051610865816108b3565b6005815264616765282960d81b602082015261054b610950565b610897915060203d81116102345761022681836108ee565b38610858565b634e487b7160e01b600052604160045260246000fd5b604081019081106001600160401b038211176108ce57604052565b61089d565b602081019081106001600160401b038211176108ce57604052565b601f909101601f19168101906001600160401b038211908210176108ce57604052565b90816020910312610114575161092681610119565b90565b6040513d6000823e3d90fd5b6001600160401b0381116108ce57601f01601f191660200190565b6040519061095d826108d3565b60008252565b1561096a57565b60405162461bcd60e51b81526020600482015260196024820152781bdddb8b9cd8599959dd585c990b98d85b1b0b99985a5b1959603a1b6044820152606490fd5b90816020910312610114575180151581036101145790565b600054604051634bf9c0ad60e11b8152906020908190839060049082906001600160a01b03165afa91821561023b5761092692610a3991600091610a54575b50604051610a0f816108b3565b6008815267697353616665282960c01b8482015260405191610a30836108d3565b60008352610cd7565b919080610a4a575b6103f590610963565b5081518114610a41565b610a6b9150833d85116102345761022681836108ee565b38610a02565b60405190610a7e826108b3565b601582527469735365637572654261736528616464726573732960581b6020830152565b15610aa957565b60405162461bcd60e51b815260206004820152601a6024820152791bdddb8b9cd958dd5c9958985cd94b98d85b1b0b99985a5b195960321b6044820152606490fd5b6000546001600160a01b0316604051918291634bf9c0ad60e11b835282600460209485935afa92831561023b5761092693610b47926103c892600092610b62575b50610b3f90604051938491878301610445565b6103de610a71565b919080610b58575b6103f590610aa2565b5081518114610b4f565b610b3f919250610b7e90863d88116102345761022681836108ee565b9190610b2c565b60405190610b92826108b3565b601182527069735369676e657228616464726573732960781b6020830152565b15610bb957565b60405162461bcd60e51b81526020600482015260166024820152751bdddb8b9cda59db995c8b98d85b1b0b99985a5b195960521b6044820152606490fd5b60405190610c04826108b3565b6018825277697364656c656761746f724e6f646528616464726573732960401b6020830152565b15610c3257565b60405162461bcd60e51b815260206004820152600f60248201526e6f776e2e6e6f6e617574682e44414f60881b6044820152606490fd5b3d15610c94573d90610c7a82610935565b91610c8860405193846108ee565b82523d6000602084013e565b606090565b15610ca057565b60405162461bcd60e51b815260206004820152600f60248201526e1bdddb8b989d5c9b8b99985a5b1959608a1b6044820152606490fd5b9190823b15610d58578051906020918263ffffffff60e01b92012016916040519180830193845281519160005b838110610d44575050509181610d31602482600097959688970187838201520360048101845201826108ee565b5191620dbba0fa610d40610c69565b9091565b818101830151858201602401528201610d04565b505050600090604051610d6a816108d3565b6000815290565b9291610d7f91600094610cd7565b9080610da2575b610d8d5750565b610926919250602080825183010191016109ab565b506020815114610d86565b9291610dbb91600094610cd7565b9080610de0575b610dc95750565b909150602081805181010312610114576020015190565b506020815114610dc2565b15610df257565b60405162461bcd60e51b815260206004820152601b60248201527a6f776e2e6e6f6e617574682e44414f6f725365637572656261736560281b6044820152606490fdfea26469706673582212200f91498b268e90d8784c990f055b593d9ef1200f193ab3f2c366d7e34ccf821e64736f6c63430008140033","linkReferences":{}},"methodIdentifiers":{"Burn(uint256)":"b90306ad","_delegatorCount()":"a1f7f539","_getImplementation(address)":"c54e44b0","_isDelegatorNode(address)":"e01ad5fd","_isSafe()":"e0a9bc2b","_isSecureBase(address)":"af484526","_isSigner(address)":"1f185d16","getBalance()":"12065fe0","getHexbase()":"3b9b7955","owner()":"8da5cb5b","ozonePriceInUSDT()":"7d8ec03a","setAddRemoveOwner(address)":"126dd1e0","setOzoneprice(uint256)":"15ec7fad","systemAge()":"fdc10bc9"},"id":35}