{"abi":[{"type":"constructor","inputs":[{"name":"_hex","type":"address","internalType":"address"}],"stateMutability":"nonpayable"},{"type":"fallback","stateMutability":"payable"},{"type":"receive","stateMutability":"payable"},{"type":"function","name":"Burn","inputs":[{"name":"amount","type":"uint256","internalType":"uint256"}],"outputs":[],"stateMutability":"nonpayable"},{"type":"function","name":"_delegatorCount","inputs":[],"outputs":[{"name":"","type":"uint256","internalType":"uint256"}],"stateMutability":"view"},{"type":"function","name":"_getImplementation","inputs":[{"name":"clone","type":"address","internalType":"address"}],"outputs":[{"name":"impl","type":"address","internalType":"address"}],"stateMutability":"view"},{"type":"function","name":"_isDelegatorNode","inputs":[{"name":"sender","type":"address","internalType":"address"}],"outputs":[{"name":"","type":"bool","internalType":"bool"}],"stateMutability":"view"},{"type":"function","name":"_isSafe","inputs":[],"outputs":[{"name":"","type":"bool","internalType":"bool"}],"stateMutability":"view"},{"type":"function","name":"_isSecureBase","inputs":[{"name":"sender","type":"address","internalType":"address"}],"outputs":[{"name":"","type":"bool","internalType":"bool"}],"stateMutability":"view"},{"type":"function","name":"_isSigner","inputs":[{"name":"sender","type":"address","internalType":"address"}],"outputs":[{"name":"","type":"bool","internalType":"bool"}],"stateMutability":"view"},{"type":"function","name":"getBalance","inputs":[],"outputs":[{"name":"","type":"uint256","internalType":"uint256"}],"stateMutability":"view"},{"type":"function","name":"getHexbase","inputs":[],"outputs":[{"name":"","type":"address","internalType":"address"}],"stateMutability":"view"},{"type":"function","name":"owner","inputs":[],"outputs":[{"name":"","type":"address","internalType":"address"}],"stateMutability":"view"},{"type":"function","name":"ozonePriceInUSDT","inputs":[],"outputs":[{"name":"","type":"uint256","internalType":"uint256"}],"stateMutability":"view"},{"type":"function","name":"setAddRemoveOwner","inputs":[{"name":"_newowner","type":"address","internalType":"address"}],"outputs":[],"stateMutability":"nonpayable"},{"type":"function","name":"setOzoneprice","inputs":[{"name":"_prc","type":"uint256","internalType":"uint256"}],"outputs":[],"stateMutability":"nonpayable"},{"type":"function","name":"syncBaseAddr","inputs":[],"outputs":[],"stateMutability":"nonpayable"},{"type":"function","name":"systemAge","inputs":[],"outputs":[{"name":"","type":"uint256","internalType":"uint256"}],"stateMutability":"view"},{"type":"event","name":"EthBurned","inputs":[{"name":"sender","type":"address","indexed":true,"internalType":"address"},{"name":"amount","type":"uint256","indexed":false,"internalType":"uint256"}],"anonymous":false},{"type":"event","name":"EthTransferred","inputs":[{"name":"to","type":"address","indexed":true,"internalType":"address"},{"name":"amount","type":"uint256","indexed":false,"internalType":"uint256"}],"anonymous":false},{"type":"event","name":"HexBaseUpdated","inputs":[{"name":"previousHexBase","type":"address","indexed":true,"internalType":"address"},{"name":"newHexBase","type":"address","indexed":true,"internalType":"address"}],"anonymous":false},{"type":"event","name":"OwnerUpdated","inputs":[{"name":"previousOwner","type":"address","indexed":true,"internalType":"address"},{"name":"newOwner","type":"address","indexed":true,"internalType":"address"}],"anonymous":false},{"type":"error","name":"CallFailed","inputs":[]},{"type":"error","name":"InvalidAddress","inputs":[]},{"type":"error","name":"InvalidState","inputs":[]},{"type":"error","name":"NotAuthorized","inputs":[]},{"type":"error","name":"NotSafe","inputs":[]},{"type":"error","name":"TargetCallFailed","inputs":[{"name":"selector","type":"bytes4","internalType":"bytes4"}]}],"bytecode":{"object":"0x6080346100a057601f61108438819003918201601f19168301916001600160401b038311848410176100a5578084926020946040528339810103126100a057516001600160a01b038116908190036100a057801561008e5760018060a01b031933816001541617600155600054161760005569d3c21bcecceda1000000600d55604051610fc890816100bc8239f35b60405163e6c4247b60e01b8152600490fd5b600080fd5b634e487b7160e01b600052604160045260246000fdfe60806040526004361015610018575b361561001657005b005b60003560e01c806312065fe014610108578063126dd1e01461010357806315ec7fad146100fe5780631f185d16146100f9578063339459a6146100f45780633b9b7955146100ef5780637d8ec03a146100ea5780638da5cb5b146100e5578063a1f7f539146100e0578063af484526146100db578063b90306ad146100d6578063c54e44b0146100d1578063e01ad5fd146100cc578063e0a9bc2b146100c75763fdc10bc90361000e57610a2c565b610a11565b61094a565b6108dc565b6107fa565b6107c9565b61075f565b610736565b610718565b6106ef565b610322565b61025b565b610212565b610146565b3461012457600036600319011261012457602047604051908152f35b600080fd5b6001600160a01b031690565b6001600160a01b0381160361012457565b346101245760203660031901126101245760043561016381610135565b61016b610d9a565b156101ee576005546001600160a01b039190821633036101dc5781169081156101ca57600180546001600160a01b031981168417909155167f8292fce18fa69edf4db7b94ea2e58241df0ae57f97e0a6c9b29067028bf92d76600080a3005b60405163e6c4247b60e01b8152600490fd5b60405163ea8e4eb560e01b8152600490fd5b604051634ee2123760e11b8152600490fd5b60209060031901126101245760043590565b346101245761022036610200565b610228610d9a565b156101ee5761023633610e0c565b8015610247575b156101dc57600d55005b506005546001600160a01b0316331461023d565b3461012457602080600319360112610124576102ce60043561027c81610135565b6002546040516001600160a01b0392831685820152848152911661029f82610a8e565b604051906102ac82610a8e565b601182527069735369676e657228616464726573732960781b85830152610ebd565b919080610318575b156103065781816102f09261030294518301019101610d82565b60405190151581529081906020820190565b0390f35b604051633204506f60e01b8152600490fd5b50808251146102d6565b34610124576000806003193601126106ec576103466103418254610129565b610129565b60408051634bf9c0ad60e11b81529160049190602080858581855afa9485156105b35786956106cd575b50825163cfbffe5360e01b81529281848681865afa9384156105b35787946106ae575b50805163ab6e844f60e01b815282818781875afa9081156105b3578891610691575b508151630536340960e21b815283818881885afa9081156105b3578991610674575b50825163d1f956b160e01b81529084828981895afa9182156105b3578a92610655575b508351631cc3bfab60e31b81529285848a818a5afa9384156105b3578b94610636575b50845163e09d394d60e01b81529486868b818b5afa9586156105b3578c96610617575b5080516314ac1b5960e21b815298878a8c818c5afa9788156105b3576104879a8e996105f8575b50808c8451809d819263013cf08b60e01b83528201906000602083019252565b03818d5afa998a156105b3578c9b8f9b6105d9575b50818451809d635e09dbe760e01b825281845afa9b8c156105b3578f9c6105b8575b50819084519d8e8092635506ee0b60e11b82525afa9b8c156105b3578e9c610584575b506104ea610b10565b9c6104f5908e610b30565b8c019061050191610b30565b8a019061050d91610b30565b61051a9060608a01610b30565b6105279060808901610b30565b6105349060a08801610b30565b6105419060c08701610b30565b61054e9060e08601610b30565b61055c906101008501610b30565b61056a906101208401610b30565b610578906101408301610b30565b61058190610b3f565b80f35b816105a5929d508d3d106105ac575b61059d8183610ac9565b810190610aec565b9a386104e1565b503d610593565b610b04565b82919c506105d290823d84116105ac5761059d8183610ac9565b9b906104be565b6105f1919b50823d84116105ac5761059d8183610ac9565b993861049c565b81610610929a503d8b116105ac5761059d8183610ac9565b9738610467565b61062f919650873d89116105ac5761059d8183610ac9565b9438610440565b61064e919450863d88116105ac5761059d8183610ac9565b923861041d565b61066d919250853d87116105ac5761059d8183610ac9565b90386103fa565b61068b9150843d86116105ac5761059d8183610ac9565b386103d7565b6106a89150833d85116105ac5761059d8183610ac9565b386103b5565b6106c6919450823d84116105ac5761059d8183610ac9565b9238610393565b816106e59296503d87116105ac5761059d8183610ac9565b9338610370565b80fd5b34610124576000366003190112610124576000546040516001600160a01b039091168152602090f35b34610124576000366003190112610124576020600d54604051908152f35b34610124576000366003190112610124576001546040516001600160a01b039091168152602090f35b346101245760003660031901126101245760206107c160018060a01b036006541660405161078c81610a8e565b601381527267657464656c656761746f72436f756e74282960681b84820152604051916107b883610aae565b60008352610f54565b604051908152f35b346101245760203660031901126101245760206107f06004356107eb81610135565b610e0c565b6040519015158152f35b346101245761080836610200565b610810610d9a565b156101ee576005546001600160a01b031633036101dc576000906004602061083b6103418554610129565b6040516311be646b60e21b815292839182905afa80156105b357838084819493829483916108be575b505af161086f610e8d565b5015610306577fcdcc745fe377b103b45fa0cec23ae3ef93d6fc6a84a01f0d18c40b354dd1d5d86108b86108a7610341600b54610129565b604051938452929081906020820190565b0390a280f35b6108d6915060203d81116105ac5761059d8183610ac9565b38610864565b34610124576020366003190112610124576004356108f981610135565b803b600061090682610d67565b926109146040519485610ac9565b82845260208401903c602d81511061093857602a602091015160601c604051908152f35b60405163baf3f0f760e01b8152600490fd5b346101245760208060031936011261012457610302906004359061096d82610135565b6006546040516001600160a01b03938416838201528281529216916109cd9061099581610a8e565b6040516109a181610a8e565b6018815277697364656c656761746f724e6f646528616464726573732960401b84820152600094610ebd565b919080610a07575b6109ee575b505060405190151581529081906020820190565b610a0092508082518301019101610d82565b38806109da565b50808251146109d5565b346101245760003660031901126101245760206107f0610d9a565b346101245760003660031901126101245760206107c160018060a01b0360035416604051610a5981610a8e565b600681526569416765282960d01b84820152604051916107b883610aae565b634e487b7160e01b600052604160045260246000fd5b604081019081106001600160401b03821117610aa957604052565b610a78565b602081019081106001600160401b03821117610aa957604052565b601f909101601f19168101906001600160401b03821190821017610aa957604052565b908160209103126101245751610b0181610135565b90565b6040513d6000823e3d90fd5b6040519061016082016001600160401b03811183821017610aa957604052565b6001600160a01b039091169052565b610d43610140610d6592610b78610b568251610129565b600280546001600160a01b0319166001600160a01b0392909216919091179055565b610baa610b886020830151610129565b600380546001600160a01b0319166001600160a01b0392909216919091179055565b610bdc610bba6040830151610129565b600480546001600160a01b0319166001600160a01b0392909216919091179055565b610c0e610bec6060830151610129565b600580546001600160a01b0319166001600160a01b0392909216919091179055565b610c40610c1e6080830151610129565b600680546001600160a01b0319166001600160a01b0392909216919091179055565b610c72610c5060a0830151610129565b600780546001600160a01b0319166001600160a01b0392909216919091179055565b610ca4610c8260c0830151610129565b600880546001600160a01b0319166001600160a01b0392909216919091179055565b610cd6610cb460e0830151610129565b600980546001600160a01b0319166001600160a01b0392909216919091179055565b610d09610ce7610100830151610129565b600a80546001600160a01b0319166001600160a01b0392909216919091179055565b610d3c610d1a610120830151610129565b600b80546001600160a01b0319166001600160a01b0392909216919091179055565b0151610129565b600c80546001600160a01b0319166001600160a01b0392909216919091179055565b565b6001600160401b038111610aa957601f01601f191660200190565b90816020910312610124575180151581036101245790565b600254604051610de2916001600160a01b031690610db781610a8e565b6008815267697353616665282960c01b602082015260405191610dd983610aae565b60008352610ebd565b9080610e01575b156103065780602080610b0193518301019101610d82565b506020815114610de9565b610e6660018060a01b038060025416604051916020941684830152838252610e3382610a8e565b60405190610e4082610a8e565b601582527469735365637572654261736528616464726573732960581b85830152610ebd565b9080610e83575b156103065781610b019282518301019101610d82565b5081815114610e6d565b3d15610eb8573d90610e9e82610d67565b91610eac6040519384610ac9565b82523d6000602084013e565b606090565b9190823b15610f3b578051906020918263ffffffff60e01b92012016916040519180830193845281519160005b838110610f27575050509181610f1760248260009795968897018783820152036004810184520182610ac9565b51915afa610f23610e8d565b9091565b818101830151858201602401528201610eea565b505050600090604051610f4d81610aae565b6000815290565b9291610f6291600094610ebd565b9080610f87575b610f705750565b909150602081805181010312610124576020015190565b506020815114610f6956fea2646970667358221220e5c44e7bd5015207c4d5745ff361f5982649d41a9a3774499aeb3d3200ada11164736f6c63430008140033","linkReferences":{}},"methodIdentifiers":{"Burn(uint256)":"b90306ad","_delegatorCount()":"a1f7f539","_getImplementation(address)":"c54e44b0","_isDelegatorNode(address)":"e01ad5fd","_isSafe()":"e0a9bc2b","_isSecureBase(address)":"af484526","_isSigner(address)":"1f185d16","getBalance()":"12065fe0","getHexbase()":"3b9b7955","owner()":"8da5cb5b","ozonePriceInUSDT()":"7d8ec03a","setAddRemoveOwner(address)":"126dd1e0","setOzoneprice(uint256)":"15ec7fad","syncBaseAddr()":"339459a6","systemAge()":"fdc10bc9"},"id":39}