{"abi":[{"type":"constructor","inputs":[{"name":"_hex","type":"address","internalType":"address"},{"name":"_parent","type":"address","internalType":"address"}],"stateMutability":"nonpayable"},{"type":"fallback","stateMutability":"payable"},{"type":"receive","stateMutability":"payable"},{"type":"function","name":"Burn","inputs":[{"name":"amount","type":"uint256","internalType":"uint256"}],"outputs":[],"stateMutability":"nonpayable"},{"type":"function","name":"Txn","inputs":[{"name":"paramAdd","type":"address","internalType":"address"},{"name":"_id_maxint","type":"uint256","internalType":"uint256"},{"name":"_qty","type":"uint256","internalType":"uint256"},{"name":"_type","type":"uint256","internalType":"uint256"}],"outputs":[],"stateMutability":"payable"},{"type":"function","name":"TxnSys","inputs":[{"name":"paramAdd","type":"address","internalType":"address"},{"name":"_id_maxint","type":"uint256","internalType":"uint256"},{"name":"_qty","type":"uint256","internalType":"uint256"},{"name":"_amt","type":"uint256","internalType":"uint256"}],"outputs":[],"stateMutability":"payable"},{"type":"function","name":"_delegatorCount","inputs":[],"outputs":[{"name":"","type":"uint256","internalType":"uint256"}],"stateMutability":"view"},{"type":"function","name":"_getImplementation","inputs":[{"name":"clone","type":"address","internalType":"address"}],"outputs":[{"name":"impl","type":"address","internalType":"address"}],"stateMutability":"view"},{"type":"function","name":"_isDelegatorNode","inputs":[{"name":"sender","type":"address","internalType":"address"}],"outputs":[{"name":"","type":"bool","internalType":"bool"}],"stateMutability":"view"},{"type":"function","name":"_isSafe","inputs":[],"outputs":[{"name":"","type":"bool","internalType":"bool"}],"stateMutability":"view"},{"type":"function","name":"_isSecureBase","inputs":[{"name":"sender","type":"address","internalType":"address"}],"outputs":[{"name":"","type":"bool","internalType":"bool"}],"stateMutability":"view"},{"type":"function","name":"_isSigner","inputs":[{"name":"sender","type":"address","internalType":"address"}],"outputs":[{"name":"","type":"bool","internalType":"bool"}],"stateMutability":"view"},{"type":"function","name":"forceTransfer","inputs":[{"name":"_inst","type":"address","internalType":"address"}],"outputs":[],"stateMutability":"nonpayable"},{"type":"function","name":"getBalance","inputs":[],"outputs":[{"name":"","type":"uint256","internalType":"uint256"}],"stateMutability":"view"},{"type":"function","name":"getHexbase","inputs":[],"outputs":[{"name":"","type":"address","internalType":"address"}],"stateMutability":"view"},{"type":"function","name":"id","inputs":[],"outputs":[{"name":"","type":"uint256","internalType":"uint256"}],"stateMutability":"view"},{"type":"function","name":"initialize","inputs":[],"outputs":[],"stateMutability":"payable"},{"type":"function","name":"login","inputs":[{"name":"_maxinterval","type":"uint256","internalType":"uint256"}],"outputs":[],"stateMutability":"nonpayable"},{"type":"function","name":"logout","inputs":[],"outputs":[],"stateMutability":"nonpayable"},{"type":"function","name":"name","inputs":[],"outputs":[{"name":"","type":"string","internalType":"string"}],"stateMutability":"view"},{"type":"function","name":"owner","inputs":[],"outputs":[{"name":"","type":"address","internalType":"address"}],"stateMutability":"view"},{"type":"function","name":"parent","inputs":[],"outputs":[{"name":"","type":"address","internalType":"address"}],"stateMutability":"view"},{"type":"function","name":"refresh","inputs":[{"name":"_maxinterval","type":"uint256","internalType":"uint256"}],"outputs":[],"stateMutability":"nonpayable"},{"type":"function","name":"setName","inputs":[{"name":"_name","type":"string","internalType":"string"}],"outputs":[],"stateMutability":"nonpayable"},{"type":"function","name":"setParent","inputs":[{"name":"newparent","type":"address","internalType":"address"}],"outputs":[],"stateMutability":"nonpayable"},{"type":"function","name":"setStop","inputs":[{"name":"s","type":"bool","internalType":"bool"}],"outputs":[],"stateMutability":"nonpayable"},{"type":"function","name":"stopLogin","inputs":[],"outputs":[{"name":"","type":"bool","internalType":"bool"}],"stateMutability":"view"},{"type":"function","name":"stor","inputs":[],"outputs":[{"name":"","type":"address","internalType":"address"}],"stateMutability":"view"},{"type":"function","name":"syncBaseAddr","inputs":[],"outputs":[],"stateMutability":"nonpayable"},{"type":"function","name":"systemAge","inputs":[],"outputs":[{"name":"","type":"uint256","internalType":"uint256"}],"stateMutability":"view"},{"type":"function","name":"validateToken","inputs":[],"outputs":[{"name":"","type":"bool","internalType":"bool"}],"stateMutability":"view"},{"type":"event","name":"EthBurned","inputs":[{"name":"sender","type":"address","indexed":true,"internalType":"address"},{"name":"amount","type":"uint256","indexed":false,"internalType":"uint256"}],"anonymous":false},{"type":"event","name":"EthTransferred","inputs":[{"name":"to","type":"address","indexed":true,"internalType":"address"},{"name":"amount","type":"uint256","indexed":false,"internalType":"uint256"}],"anonymous":false},{"type":"event","name":"HexBaseUpdated","inputs":[{"name":"previousHexBase","type":"address","indexed":true,"internalType":"address"},{"name":"newHexBase","type":"address","indexed":true,"internalType":"address"}],"anonymous":false},{"type":"event","name":"OwnerUpdated","inputs":[{"name":"previousOwner","type":"address","indexed":true,"internalType":"address"},{"name":"newOwner","type":"address","indexed":true,"internalType":"address"}],"anonymous":false},{"type":"event","name":"TVLClaimTxnLog","inputs":[{"name":"to","type":"address","indexed":false,"internalType":"address"},{"name":"_value","type":"uint256","indexed":false,"internalType":"uint256"},{"name":"_time","type":"uint256","indexed":false,"internalType":"uint256"},{"name":"prime","type":"bool","indexed":false,"internalType":"bool"}],"anonymous":false},{"type":"error","name":"CallFailed","inputs":[]},{"type":"error","name":"InvalidAddress","inputs":[]},{"type":"error","name":"InvalidState","inputs":[]},{"type":"error","name":"NotAuthorized","inputs":[]},{"type":"error","name":"NotSafe","inputs":[]},{"type":"error","name":"ReentrancyGuardReentrantCall","inputs":[]},{"type":"error","name":"SessionExpired","inputs":[]},{"type":"error","name":"TargetCallFailed","inputs":[{"name":"selector","type":"bytes4","internalType":"bytes4"}]}],"bytecode":{"object":"0x608034620000c157601f6200276f38819003918201601f19168301916001600160401b03831184841017620000c6578084926040948552833981010312620000c1576200005a60206200005283620000dc565b9201620000dc565b6001600160a01b0391821691908215620000af5760018060a01b0319928360015416908460005416176000556001601155339084331617176001551690601254161760125560405161267d9081620000f28239f35b60405163e6c4247b60e01b8152600490fd5b600080fd5b634e487b7160e01b600052604160045260246000fd5b51906001600160a01b0382168203620000c15756fe60806040526004361015610018575b361561001657005b005b60003560e01c80630399c93c146101d857806306fdde03146101d357806312065fe0146101ce5780631499c592146101c95780631f185d16146101c45780631f3c99c3146101bf578063339459a6146101ba5780633b9b7955146101b55780633dbfd97c146101b057806360f96a8f146101ab578063641657cb146101a65780638129fc1c146101a15780638da5cb5b1461019c5780639c75dd3514610197578063a1f7f53914610192578063a3e884b01461018d578063af48452614610188578063af640d0f14610183578063b28175c41461017e578063b90306ad14610179578063c107930a14610174578063c47f00271461016f578063c54e44b01461016a578063cfcf2c2d14610165578063d4ace81b14610160578063e01ad5fd1461015b578063e0a9bc2b146101565763fdc10bc90361000e57611199565b61117e565b611103565b6110e3565b6110c0565b611052565b610fe0565b610e96565b610dae565b610d85565b610d67565b610d36565b610bac565b610b1b565b610aff565b610ad6565b6108db565b610866565b610833565b61069c565b610673565b610647565b61060e565b61054b565b6104b4565b610498565b6103ca565b6101ff565b6001600160a01b031690565b6001600160a01b038116036101fa57565b600080fd5b346101fa5760203660031901126101fa5760043561021c816101e9565b610224612269565b1561029f57610232336122db565b801561028b575b15610279576102729061024f60155415156111f5565b6102576115fe565b61026b6001600160a01b03821615156119e3565b47906123c9565b6001601155005b60405163ea8e4eb560e01b8152600490fd5b506005546001600160a01b03163314610239565b604051634ee2123760e11b8152600490fd5b90600182811c921680156102e1575b60208310146102cb57565b634e487b7160e01b600052602260045260246000fd5b91607f16916102c0565b634e487b7160e01b600052604160045260246000fd5b604081019081106001600160401b0382111761031c57604052565b6102eb565b602081019081106001600160401b0382111761031c57604052565b61010081019081106001600160401b0382111761031c57604052565b601f909101601f19168101906001600160401b0382119082101761031c57604052565b60005b83811061038e5750506000910152565b818101518382015260200161037e565b604091602082526103be815180928160208601526020868601910161037b565b601f01601f1916010190565b346101fa5760008060031936011261049557604051816014546103ec816102b1565b8084529060019081811690811561046d5750600114610426575b6104228461041681880382610358565b6040519182918261039e565b0390f35b60148352602094506000805160206126288339815191525b82841061045a5750505081610422936104169282010193610406565b805485850187015292850192810161043e565b61042296506104169450602092508593915060ff191682840152151560051b82010193610406565b80fd5b346101fa5760003660031901126101fa57602047604051908152f35b346101fa5760203660031901126101fa576004356104d1816101e9565b6104d9612269565b1561029f576104e7336122db565b8015610537575b156102795761050060155415156111f5565b6105086115fe565b6001600160a01b031661051c8115156119e3565b601280546001600160a01b0319169190911790556001601155005b506005546001600160a01b031633146104ee565b346101fa576020806003193601126101fa576105be60043561056c816101e9565b6002546040516001600160a01b0392831685820152848152911661058f82610301565b6040519061059c82610301565b601182527069735369676e657228616464726573732960781b8583015261243b565b919080610604575b156105f25781816105e09261042294518301019101612254565b60405190151581529081906020820190565b604051633204506f60e01b8152600490fd5b50808251146105c6565b346101fa5760003660031901126101fa576001546001600160a01b0316330361027957600019420142811161064257601655005b611308565b346101fa5760003660031901126101fa57610016611d22565b6001600160a01b03909116815260200190565b346101fa5760003660031901126101fa576000546040516001600160a01b039091168152602090f35b346101fa576020806003193601126101fa576106bd60ff60185416156111b4565b6106ca60155415156111f5565b6106d56001546101dd565b6001600160a01b0391908281163303610279576106f36004546101dd565b9161073061072c6040518061070a86868301610660565b039561071e601f1997888101845283610358565b610726611246565b906124fa565b1590565b610279576004928161074b6107466000546101dd565b6101dd565b60405163111ea8c160e21b815295869182905afa90811561082e576107a2946000926107fd575b5061079491926107886040519586928301610660565b03908101845283610358565b61079c61129b565b906124b6565b908116151590816107f2575b5080156107c5575b6102795761001660043561131e565b506107ed61072c6107d76013546101dd565b6107df6112ca565b6107e7611233565b916124fa565b6107b6565b9050311515386107ae565b610794925061082190843d8611610827575b6108198183610358565b810190611277565b91610772565b503d61080f565b61128f565b346101fa5760003660031901126101fa576012546040516001600160a01b039091168152602090f35b801515036101fa57565b346101fa5760203660031901126101fa576004356108838161085c565b61089060155415156111f5565b610898612269565b1561029f576108a6336122db565b80156108c7575b156102795760ff8019601854169115151617601855600080f35b506005546001600160a01b031633146108ad565b60003660031901126101fa576108ef6115fe565b601554610a98576108fe611d22565b610909600a546101dd565b6109146001546101dd565b90604051906109486020928061092c86868301610660565b0392610940601f1994858101845283610358565b61079c611621565b926001600160a01b03841615610a3557506109f06109e66109eb6109c36109b5610a29976109776004546101dd565b6109b06109856001546101dd565b604051631dd7707560e11b8c8201529384916109a4916024840161165a565b03898101845283610358565b6125a5565b8680825183010191016116b2565b601280546001600160a01b0319166001600160a01b039092169190911790559092565b611690565b601555565b6109b06109fe600a546101dd565b91610a0a6001546101dd565b93610788604051958692634ef260a960e01b9084015260248301610660565b505b6100166001601155565b610a93935091610a7e6109eb93610a8b936109b0610a546004546101dd565b91610a606012546101dd565b61078860405195869263b1c4907960e01b8a8501526024840161165a565b8051810182019101611674565b919091611690565b610a2b565b60405162461bcd60e51b81526020600482015260166024820152751b594b985b1c9958591e4b9a5b9a5d1a585b1a5e995960521b6044820152606490fd5b346101fa5760003660031901126101fa576001546040516001600160a01b039091168152602090f35b346101fa5760203660031901126101fa57610016600435611518565b346101fa5760003660031901126101fa576020610b7d60018060a01b0360065416604051610b4881610301565b601381527267657464656c656761746f72436f756e74282960681b8482015260405191610b7483610321565b60008352612536565b604051908152f35b60809060031901126101fa57600435610b9d816101e9565b90602435906044359060643590565b610bb536610b85565b610bc260155415156111f5565b610bd160ff60185416156111b4565b610bd96116dc565b610be16115fe565b60018103610d155750610bfb610bf6846122db565b611975565b34610c0e575b5050506100166001601155565b6109b0610d0c93610c9d610c2b610c24346119b7565b6064900490565b610c92610c42610c3a346119cd565b6103e8900490565b610c87610c51610c3a346119cd565b93610c7c610c6c86610c6786610c6786346113a3565b6113a3565b610c77600b546101dd565b6123c9565b610c77600d546101dd565b610c77600e546101dd565b610c77600f546101dd565b610cfe610cab6004546101dd565b601554604051636e59fe2560e11b602082015260248101919091526001600160a01b039093166044840152606483019590955260848201939093523460a4820152600160c48201529291839060e4820190565b03601f198101845283610358565b50388080610c01565b91925050600714610d27575b50610a2b565b610d30906118a2565b38610d21565b346101fa5760203660031901126101fa576020610d5d600435610d58816101e9565b6122db565b6040519015158152f35b346101fa5760003660031901126101fa576020601554604051908152f35b346101fa5760003660031901126101fa576013546040516001600160a01b039091168152602090f35b346101fa5760203660031901126101fa57600435610dca612269565b1561029f576005546001600160a01b031633036102795760009060046020610df561074685546101dd565b6040516311be646b60e21b815292839182905afa801561082e5783808481949382948391610e78575b505af1610e29612399565b50156105f2577fcdcc745fe377b103b45fa0cec23ae3ef93d6fc6a84a01f0d18c40b354dd1d5d8610e72610e61610746600b546101dd565b604051938452929081906020820190565b0390a280f35b610e90915060203d8111610827576108198183610358565b38610e1e565b610e9f36610b85565b610eb06015949392945415156111f5565b610eb8612269565b1561029f57610ec6336122db565b8015610f71575b1561027957610eda6115fe565b610ee2612269565b1561029f57610ef0336122db565b8015610f5d575b1561027957610a2993610f0c610bf6856122db565b60018060a01b03928360045416936015549560405196636e59fe2560e11b602089015260248801521660448601526064850152608484015260a4830152600060c483015260c482526109b08261033c565b506005546001600160a01b03163314610ef7565b506005546001600160a01b03163314610ecd565b6040519061030082016001600160401b0381118382101761031c57604052565b604051906101e082016001600160401b0381118382101761031c57604052565b6001600160401b03811161031c57601f01601f191660200190565b346101fa5760203660031901126101fa576004356001600160401b0381116101fa57366023820112156101fa57806004013561101b81610fc5565b906110296040519283610358565b80825236602482850101116101fa576020816000926024610016960183860137830101526116fa565b346101fa5760203660031901126101fa5760043561106f816101e9565b803b600061107c82610fc5565b9261108a6040519485610358565b82845260208401903c602d8151106110ae57602a602091015160601c604051908152f35b60405163baf3f0f760e01b8152600490fd5b346101fa5760003660031901126101fa57602060ff601854166040519015158152f35b346101fa5760003660031901126101fa5760206016544210604051908152f35b346101fa5760203660031901126101fa576020610d5d600435611125816101e9565b6006546040516001600160a01b0392831685820152848152911661114882610301565b6040519061115582610301565b6018825277697364656c656761746f724e6f646528616464726573732960401b858301526124fa565b346101fa5760003660031901126101fa576020610d5d612269565b346101fa5760003660031901126101fa576020610b7d61235c565b156111bb57565b60405162461bcd60e51b81526020600482015260126024820152711b594b9a5b9d985b1a590b9cdd1bdc1c195960721b6044820152606490fd5b156111fc57565b60405162461bcd60e51b815260206004820152600f60248201526e1b594b9a5b9d985b1a590b9a5b9a5d608a1b6044820152606490fd5b6040519061124082610321565b60008252565b6040519061125382610301565b601582527469735573657245786973747328616464726573732960581b6020830152565b908160209103126101fa575161128c816101e9565b90565b6040513d6000823e3d90fd5b604051906112a882610301565b601382527255736572546f496e737428616464726573732960681b6020830152565b604051906112d782610301565b600a825269706f7374496e6974282960b01b6020830152565b6040516112fc81610321565b60008152906000368137565b634e487b7160e01b600052601160045260246000fd5b600354611369906001600160a01b03166113366112f0565b906040519061134482610301565b601382527273657373696f6e54544c5365636f6e6473282960681b6020830152612536565b4201908142116106425761137f91601655611518565b565b6040519061138e82610301565b600682526564616765282960d01b6020830152565b9190820391821161064257565b604051906113bd82610301565b601a825279676574546f67676c65416765436f756e742875696e743235362960301b6020830152565b519061137f8261085c565b90816103009103126101fa57611405610f85565b90805182526020810151602083015260408101516040830152606081015160608301526080810151608083015260a081015160a083015260c081015160c083015260e081015160e0830152610100808201519083015261012080820151908301526101408082015190830152610160808201519083015261018080820151908301526101a080820151908301526101c080820151908301526101e08082015190830152610200808201519083015261022080820151908301526102408082015190830152610260808201519083015261028080820151908301526102a06114ed8183016113e6565b908301526102c06114ff8183016113e6565b908301526115116102e08092016113e6565b9082015290565b61153d6115266013546101dd565b61152e6112f0565b90611537611381565b90612536565b61154982610c6761235c565b116115f5576115596013546101dd565b6040519060016115988361157660208201906103e7602083019252565b039361158a601f1995868101835282610358565b6115926113b0565b84612536565b16156115a357505050565b6115e76115d86115ee936102a0936109b060405192632e7c68e560e21b6020850152836107888a602483019190602083019252565b602080825183010191016113f1565b0151151590565b6115f55750565b61137f906118a2565b60026011541461160f576002601155565b604051633ee5aeb560e01b8152600490fd5b6040519061162e82610301565b601e82527f7265736f6c76655472616e7366657254617267657428616464726573732900006020830152565b6001600160a01b0391821681529116602082015260400190565b91908260409103126101fa576020825192015161128c816101e9565b601380546001600160a01b0319166001600160a01b0392909216919091179055565b908160609103126101fa57805191604060208301516116d0816101e9565b92015161128c816101e9565b6016544210156116e857565b604051630fe82d2560e11b8152600490fd5b61170760155415156111f5565b61170f6116dc565b61171e60ff60185416156111b4565b611726612269565b1561029f57600180549091906001600160a01b03163303610279578051906001600160401b03821161031c57611766826117616014546102b1565b611813565b60209081601f84116001146117a35750928293918392600094611798575b50501b916000199060031b1c191617601455565b015192503880611784565b6014600052919083601f198116600080516020612628833981519152946000905b888383106117f957505050106117e0575b505050811b01601455565b015160001960f88460031b161c191690553880806117d5565b8587015188559096019594850194879350908101906117c4565b601f811161181f575050565b6000906014825260208220906020601f850160051c8301941061185d575b601f0160051c01915b82811061185257505050565b818155600101611846565b909250829061183d565b91908260409103126101fa576020825192015190565b6060919493600093608083019660018060a01b03168352602083015260408201520152565b6118e46118f3916118b46004546101dd565b601554604051631aa0449160e21b6020820152602481019190915260448101929092526109b08260648101610cfe565b60208082518301019101611867565b61190282610c776001546101dd565b61190d6001546101dd565b91604051806119417f992e981f1f6d8cb3a32ce3b31107393c58fbd9a9052cb415a19d578833bf80d695869442918461187d565b0390a161195381610c77600c546101dd565b61195e600c546101dd565b9061197060405192839242918461187d565b0390a1565b1561197c57565b60405162461bcd60e51b81526020600482015260136024820152726d652e756e7365637572652e4f52433131353560681b6044820152606490fd5b9060158202918083046015149015171561064257565b90602d820291808304602d149015171561064257565b156119ea57565b60405162461bcd60e51b815260206004820152600f60248201526e6d652e7a65726f2e6164647265737360881b6044820152606490fd5b6001600160a01b039091169052565b611d006101c061137f92611a69611a4782516101dd565b600280546001600160a01b0319166001600160a01b0392909216919091179055565b611a9b611a7960208301516101dd565b600380546001600160a01b0319166001600160a01b0392909216919091179055565b611acd611aab60408301516101dd565b600480546001600160a01b0319166001600160a01b0392909216919091179055565b611aff611add60608301516101dd565b600580546001600160a01b0319166001600160a01b0392909216919091179055565b611b31611b0f60808301516101dd565b600680546001600160a01b0319166001600160a01b0392909216919091179055565b611b63611b4160a08301516101dd565b600780546001600160a01b0319166001600160a01b0392909216919091179055565b611b95611b7360c08301516101dd565b600880546001600160a01b0319166001600160a01b0392909216919091179055565b611bc7611ba560e08301516101dd565b600980546001600160a01b0319166001600160a01b0392909216919091179055565b611bfa611bd86101008301516101dd565b600a80546001600160a01b0319166001600160a01b0392909216919091179055565b611c2d611c0b6101208301516101dd565b600b80546001600160a01b0319166001600160a01b0392909216919091179055565b611c60611c3e6101408301516101dd565b600c80546001600160a01b0319166001600160a01b0392909216919091179055565b611c93611c716101608301516101dd565b600d80546001600160a01b0319166001600160a01b0392909216919091179055565b611cc6611ca46101808301516101dd565b600e80546001600160a01b0319166001600160a01b0392909216919091179055565b611cf9611cd76101a08301516101dd565b600f80546001600160a01b0319166001600160a01b0392909216919091179055565b01516101dd565b601080546001600160a01b0319166001600160a01b0392909216919091179055565b611d306107466000546101dd565b604051634bf9c0ad60e11b815290602082600481845afa91821561082e57600092612233575b5060405163cfbffe5360e01b815291602083600481855afa92831561082e57600093612212575b5060405163ab6e844f60e01b815290602082600481865afa91821561082e576000926121f1575b50604051630536340960e21b815291602083600481875afa92831561082e576000936121d0575b5060405163d1f956b160e01b815292602084600481885afa93841561082e576000946121af575b50604051631cc3bfab60e31b815293602085600481895afa94851561082e5760009561218e575b5060405163e09d394d60e01b81526020816004818a5afa90811561082e5760009161216f575b506040516314ac1b5960e21b81526020816004818b5afa90811561082e57600091612150575b5060405163013cf08b60e01b815260006004820152916020836024818c5afa92831561082e5760009361212f575b50604051635e09dbe760e01b8152976020896004818d5afa94851561082e5760049960009661210e575b50604051635506ee0b60e11b8152996020908b90818e5afa96871561082e5760049a6000986120ed575b50604051636402742760e01b81529a6020908c90818f5afa98891561082e5760049b60009a6120cc575b5060208d6040519d8e80926330125cf560e01b82525afa9a8b1561082e578d60049d60009d6120aa575b506020906040519e8f80926324768d9160e01b82525afa9c8d1561082e5760009d612089575b506040516313b92d3560e31b81529d8e9081905a92600491602094fa9d8e1561082e5760009e612068575b50611f95610fa5565b9e8f91611fa29083611a21565b611faf9060208301611a21565b60400190611fbc91611a21565b611fc99060608e01611a21565b611fd69060808d01611a21565b611fe39060a08c01611a21565b611ff09060c08b01611a21565b611ffd9060e08a01611a21565b61200b906101008901611a21565b612019906101208801611a21565b612027906101408701611a21565b612035906101608601611a21565b612043906101808501611a21565b612051906101a08401611a21565b61205f906101c08301611a21565b61137f90611a30565b612082919e5060203d602011610827576108198183610358565b9c38611f8c565b6120a3919d5060203d602011610827576108198183610358565b9b38611f61565b6020919d506120c590823d8411610827576108198183610358565b9c90611f3b565b6120e6919a5060203d602011610827576108198183610358565b9838611f11565b61210791985060203d602011610827576108198183610358565b9638611ee7565b61212891965060203d602011610827576108198183610358565b9438611ebd565b61214991935060203d602011610827576108198183610358565b9138611e93565b612169915060203d602011610827576108198183610358565b38611e65565b612188915060203d602011610827576108198183610358565b38611e3f565b6121a891955060203d602011610827576108198183610358565b9338611e19565b6121c991945060203d602011610827576108198183610358565b9238611df2565b6121ea91935060203d602011610827576108198183610358565b9138611dcb565b61220b91925060203d602011610827576108198183610358565b9038611da4565b61222c91935060203d602011610827576108198183610358565b9138611d7d565b61224d91925060203d602011610827576108198183610358565b9038611d56565b908160209103126101fa575161128c8161085c565b6002546040516122b1916001600160a01b03169061228681610301565b6008815267697353616665282960c01b6020820152604051916122a883610321565b6000835261243b565b90806122d0575b156105f2578060208061128c93518301019101612254565b5060208151146122b8565b61233560018060a01b03806002541660405191602094168483015283825261230282610301565b6040519061230f82610301565b601582527469735365637572654261736528616464726573732960581b8583015261243b565b9080612352575b156105f2578161128c9282518301019101612254565b508181511461233c565b60035460405161128c916001600160a01b03169061237981610301565b600681526569416765282960d01b602082015260405191610b7483610321565b3d156123c4573d906123aa82610fc5565b916123b86040519384610358565b82523d6000602084013e565b606090565b908015612437576001600160a01b03821691821561242557600080808481945af16123f2612399565b50156105f25760207fcec1f18c3ab8ddaaa107a1591e3c369667eec613626611a8deaedef43069fcdd91604051908152a2565b60405163e6c4247b60e01b8152600490fd5b5050565b803b1561249d57600092839263ffffffff60e01b9060208151910120169061248d602460405180936020820195865261247d815180926020868601910161037b565b8101036004810184520182610358565b51915afa612499612399565b9091565b5050506000906040516124af81610321565b6000815290565b92916124c49160009461243b565b90806124ef575b6124d25750565b9091506020818051810103126101fa57602001516101dd816101e9565b5060208151146124cb565b92916125089160009461243b565b908061252b575b6125165750565b61128c91925060208082518301019101612254565b50602081511461250f565b92916125449160009461243b565b9080612569575b6125525750565b9091506020818051810103126101fa576020015190565b50602081511461254b565b906020825192015163ffffffff60e01b90818116936004811061259657505050565b60040360031b82901b16169150565b6001600160a01b0381161561242557600080918351908260208601915af1906125cc612399565b91156125d6575090565b805160009190600411612621576125ed9150612574565b8151156125fd5750805190602001fd5b604051630870274d60e21b81526001600160e01b0319919091166004820152602490fd5b506125ed56fece6d7b5282bd9a3661ae061feed1dbda4e52ab073b1f9285be6e155d9c38d4eca2646970667358221220c3110b098f3978e4eee1ddc39a37c6e088f3957dab2f32cb39d30f66418f5a4b64736f6c63430008140033","linkReferences":{}},"methodIdentifiers":{"Burn(uint256)":"b90306ad","Txn(address,uint256,uint256,uint256)":"a3e884b0","TxnSys(address,uint256,uint256,uint256)":"c107930a","_delegatorCount()":"a1f7f539","_getImplementation(address)":"c54e44b0","_isDelegatorNode(address)":"e01ad5fd","_isSafe()":"e0a9bc2b","_isSecureBase(address)":"af484526","_isSigner(address)":"1f185d16","forceTransfer(address)":"0399c93c","getBalance()":"12065fe0","getHexbase()":"3b9b7955","id()":"af640d0f","initialize()":"8129fc1c","login(uint256)":"3dbfd97c","logout()":"1f3c99c3","name()":"06fdde03","owner()":"8da5cb5b","parent()":"60f96a8f","refresh(uint256)":"9c75dd35","setName(string)":"c47f0027","setParent(address)":"1499c592","setStop(bool)":"641657cb","stopLogin()":"cfcf2c2d","stor()":"b28175c4","syncBaseAddr()":"339459a6","systemAge()":"fdc10bc9","validateToken()":"d4ace81b"},"id":28}