{"abi":[{"type":"constructor","inputs":[],"stateMutability":"nonpayable"},{"type":"fallback","stateMutability":"payable"},{"type":"receive","stateMutability":"payable"},{"type":"function","name":"Burn","inputs":[{"name":"amount","type":"uint256","internalType":"uint256"}],"outputs":[],"stateMutability":"payable"},{"type":"function","name":"_Txn","inputs":[{"name":"paramAdd","type":"address","internalType":"address"},{"name":"_id_maxint","type":"uint256","internalType":"uint256"},{"name":"_qty","type":"uint256","internalType":"uint256"},{"name":"_amt","type":"uint256","internalType":"uint256"},{"name":"_level","type":"uint256","internalType":"uint256"}],"outputs":[],"stateMutability":"payable"},{"type":"function","name":"_getMint","inputs":[{"name":"inx","type":"uint256","internalType":"uint256"}],"outputs":[{"name":"orc1155_","type":"address","internalType":"address"}],"stateMutability":"view"},{"type":"function","name":"_getNodeLBPrime","inputs":[],"outputs":[{"name":"business","type":"uint256","internalType":"uint256"},{"name":"qty","type":"uint256","internalType":"uint256"}],"stateMutability":"view"},{"type":"function","name":"_getdetail1","inputs":[],"outputs":[{"name":"id_","type":"uint256","internalType":"uint256"},{"name":"bonus_","type":"uint256","internalType":"uint256"},{"name":"joinage_","type":"uint256","internalType":"uint256"},{"name":"parent_","type":"address","internalType":"address"},{"name":"mintCount_","type":"uint256","internalType":"uint256"},{"name":"isStop_","type":"bool","internalType":"bool"}],"stateMutability":"view"},{"type":"function","name":"_getdetail2","inputs":[],"outputs":[{"name":"mintDailyCount_","type":"uint256","internalType":"uint256"},{"name":"minClaimToday_","type":"uint256","internalType":"uint256"},{"name":"ownerNode_","type":"address","internalType":"address"}],"stateMutability":"view"},{"type":"function","name":"_heirarchy","inputs":[{"name":"_hex","type":"address","internalType":"address"},{"name":"parent","type":"address","internalType":"address"}],"outputs":[],"stateMutability":"nonpayable"},{"type":"function","name":"_primeIncomeInfo","inputs":[{"name":"maxinterwal","type":"uint256","internalType":"uint256"}],"outputs":[{"name":"income","type":"uint256","internalType":"uint256"},{"name":"compincome","type":"uint256","internalType":"uint256"},{"name":"claimedage","type":"uint256","internalType":"uint256"}],"stateMutability":"view"},{"type":"function","name":"_resetuser","inputs":[{"name":"to","type":"address","internalType":"address"}],"outputs":[],"stateMutability":"nonpayable"},{"type":"function","name":"_setBonus","inputs":[{"name":"bp","type":"uint256","internalType":"uint256"}],"outputs":[],"stateMutability":"nonpayable"},{"type":"function","name":"_setOwner","inputs":[{"name":"own","type":"address","internalType":"address"},{"name":"isApproved","type":"bool","internalType":"bool"}],"outputs":[],"stateMutability":"nonpayable"},{"type":"function","name":"_setReq","inputs":[{"name":"own","type":"address","internalType":"address"}],"outputs":[],"stateMutability":"nonpayable"},{"type":"function","name":"_stopNode","inputs":[{"name":"_stop","type":"bool","internalType":"bool"},{"name":"_max","type":"uint256","internalType":"uint256"}],"outputs":[],"stateMutability":"nonpayable"},{"type":"function","name":"getBalance","inputs":[],"outputs":[{"name":"","type":"uint256","internalType":"uint256"}],"stateMutability":"view"},{"type":"function","name":"isOwnerOrSafeOwner","inputs":[{"name":"sender","type":"address","internalType":"address"}],"outputs":[{"name":"","type":"bool","internalType":"bool"}],"stateMutability":"view"},{"type":"function","name":"isStop","inputs":[],"outputs":[{"name":"","type":"bool","internalType":"bool"}],"stateMutability":"view"},{"type":"function","name":"own_reinit","inputs":[{"name":"_h","type":"address","internalType":"address"}],"outputs":[],"stateMutability":"nonpayable"},{"type":"function","name":"owner","inputs":[],"outputs":[{"name":"","type":"address","internalType":"address"}],"stateMutability":"view"},{"type":"function","name":"ownernode","inputs":[],"outputs":[{"name":"","type":"address","internalType":"address"}],"stateMutability":"view"},{"type":"function","name":"req","inputs":[],"outputs":[{"name":"newowner","type":"address","internalType":"address"},{"name":"isReq","type":"bool","internalType":"bool"},{"name":"isVer1","type":"bool","internalType":"bool"},{"name":"isVer2","type":"bool","internalType":"bool"},{"name":"isVer3","type":"bool","internalType":"bool"}],"stateMutability":"view"},{"type":"function","name":"withdraw","inputs":[{"name":"to","type":"address","internalType":"address"},{"name":"amount","type":"uint256","internalType":"uint256"}],"outputs":[],"stateMutability":"payable"},{"type":"event","name":"LogTxns","inputs":[{"name":"from","type":"address","indexed":false,"internalType":"address"},{"name":"orc1155","type":"address","indexed":false,"internalType":"address"},{"name":"_id","type":"uint256","indexed":false,"internalType":"uint256"},{"name":"_qty","type":"uint256","indexed":false,"internalType":"uint256"},{"name":"_amt","type":"uint256","indexed":false,"internalType":"uint256"},{"name":"_time","type":"uint256","indexed":false,"internalType":"uint256"},{"name":"_level","type":"uint256","indexed":false,"internalType":"uint256"}],"anonymous":false}],"bytecode":{"object":"0x6080604052600060125560006013553480156200001b57600080fd5b506200003b739b3d18024fd51961230ef88d6a43babdf0f5e8d662000041565b620006da565b6000546001600160a01b031615620000945760405162461bcd60e51b81526020600482015260126024820152711bdddb8b9a195e18985cd94b99985a5b195960721b604482015260640160405180910390fd5b600c8054326001600160a01b031991821617909155600080549091166001600160a01b038316179055620000c7620000ca565b50565b6000546001600160a01b0316620000dd57565b60008054906101000a90046001600160a01b03166001600160a01b0316634162169f6040518163ffffffff1660e01b8152600401602060405180830381865afa1580156200012f573d6000803e3d6000fd5b505050506040513d601f19601f82011682018060405250810190620001559190620006a8565b600180546001600160a01b0319166001600160a01b0392831617905560005460408051635abedee360e11b81529051919092169163b57dbdc69160048083019260209291908290030181865afa158015620001b4573d6000803e3d6000fd5b505050506040513d601f19601f82011682018060405250810190620001da9190620006a8565b600280546001600160a01b0319166001600160a01b039283161790556000546040805163cfbffe5360e01b81529051919092169163cfbffe539160048083019260209291908290030181865afa15801562000239573d6000803e3d6000fd5b505050506040513d601f19601f820116820180604052508101906200025f9190620006a8565b600380546001600160a01b0319166001600160a01b039283161790556000546040805163ab6e844f60e01b81529051919092169163ab6e844f9160048083019260209291908290030181865afa158015620002be573d6000803e3d6000fd5b505050506040513d601f19601f82011682018060405250810190620002e49190620006a8565b600480546001600160a01b0319166001600160a01b0392831617815560005460408051639a7c407760e01b815290519190931692639a7c407792818101926020929091908290030181865afa15801562000342573d6000803e3d6000fd5b505050506040513d601f19601f82011682018060405250810190620003689190620006a8565b600580546001600160a01b0319166001600160a01b0392831617905560005460408051635506ee0b60e11b81529051919092169163aa0ddc169160048083019260209291908290030181865afa158015620003c7573d6000803e3d6000fd5b505050506040513d601f19601f82011682018060405250810190620003ed9190620006a8565b600780546001600160a01b0319166001600160a01b03928316179055600054604080516335a577e360e11b815290519190921691636b4aefc69160048083019260209291908290030181865afa1580156200044c573d6000803e3d6000fd5b505050506040513d601f19601f82011682018060405250810190620004729190620006a8565b600880546001600160a01b0319166001600160a01b03928316179055600054604080516324768d9160e01b8152905191909216916324768d919160048083019260209291908290030181865afa158015620004d1573d6000803e3d6000fd5b505050506040513d601f19601f82011682018060405250810190620004f79190620006a8565b600b80546001600160a01b0319166001600160a01b0392831617905560005460408051636402742760e01b81529051919092169163640274279160048083019260209291908290030181865afa15801562000556573d6000803e3d6000fd5b505050506040513d601f19601f820116820180604052508101906200057c9190620006a8565b600980546001600160a01b0319166001600160a01b03928316179055600054604080516330125cf560e01b8152905191909216916330125cf59160048083019260209291908290030181865afa158015620005db573d6000803e3d6000fd5b505050506040513d601f19601f82011682018060405250810190620006019190620006a8565b600a80546001600160a01b0319166001600160a01b03928316179055600054604080516369e8d84b60e11b81529051919092169163d3d1b0969160048083019260209291908290030181865afa15801562000660573d6000803e3d6000fd5b505050506040513d601f19601f82011682018060405250810190620006869190620006a8565b600680546001600160a01b0319166001600160a01b0392909216919091179055565b600060208284031215620006bb57600080fd5b81516001600160a01b0381168114620006d357600080fd5b9392505050565b61313f80620006ea6000396000f3fe6080604052600436106101225760003560e01c80638da5cb5b116100a5578063ac3e52c81161006c578063ac3e52c8146103dc578063b90306ad146103ef578063bda71ada14610402578063e658ebd614610422578063e995b63f1461047c578063f3fef3a31461049c57005b80638da5cb5b1461032e57806390fb00e71461034c578063946894e51461036c57806397779e1b146103a2578063abb8c965146103bc57005b806341ffe7c4116100e957806341ffe7c414610259578063463ef7c71461027957806360af454d146102995780637d5886ad146102b95780637e5c8937146102f357005b806304047cb01461012b5780630d43aaf21461016257806312065fe0146101e65780632b17219714610201578063379a423c1461022957005b3661012957005b005b34801561013757600080fd5b506017546001600160a01b03165b6040516001600160a01b0390911681526020015b60405180910390f35b34801561016e57600080fd5b50600d546101ac906001600160a01b0381169060ff600160a01b8204811691600160a81b8104821691600160b01b8204811691600160b81b90041685565b604080516001600160a01b03909616865293151560208601529115159284019290925290151560608301521515608082015260a001610159565b3480156101f257600080fd5b50604051478152602001610159565b34801561020d57600080fd5b50601c54601d5460408051928352602083019190915201610159565b34801561023557600080fd5b50610249610244366004612cc9565b6104af565b6040519015158152602001610159565b34801561026557600080fd5b50610129610274366004612cc9565b61053c565b34801561028557600080fd5b50610129610294366004612ce6565b6107fc565b3480156102a557600080fd5b506101296102b4366004612cc9565b61082c565b3480156102c557600080fd5b506015546016546017546040805193845260208401929092526001600160a01b031690820152606001610159565b3480156102ff57600080fd5b5061031361030e366004612d1f565b6108ae565b60408051938452602084019290925290820152606001610159565b34801561033a57600080fd5b50600c546001600160a01b0316610145565b34801561035857600080fd5b50610129610367366004612d1f565b6108cf565b34801561037857600080fd5b50610145610387366004612d1f565b6000908152601460205260409020546001600160a01b031690565b3480156103ae57600080fd5b50600e546102499060ff1681565b3480156103c857600080fd5b506101296103d7366004612d46565b6108fe565b6101296103ea366004612d74565b610cd7565b6101296103fd366004612d1f565b610dac565b34801561040e57600080fd5b5061012961041d366004612cc9565b610eb8565b34801561042e57600080fd5b50600f54601054601b54601154601254600e54604080519687526020870195909552938501929092526001600160a01b03166060840152608083015260ff16151560a082015260c001610159565b34801561048857600080fd5b50610129610497366004612db8565b610f0e565b6101296104aa366004612de4565b610f56565b6002546040516319c0642960e01b81526001600160a01b03838116600483015260009216906319c0642990602401602060405180830381865afa1580156104fa573d6000803e3d6000fd5b505050506040513d601f19601f8201168201806040525081019061051e9190612e02565b806105365750600c546001600160a01b038381169116145b92915050565b600260009054906101000a90046001600160a01b03166001600160a01b0316636a276f9d6040518163ffffffff1660e01b8152600401602060405180830381865afa15801561058f573d6000803e3d6000fd5b505050506040513d601f19601f820116820180604052508101906105b39190612e02565b6105d85760405162461bcd60e51b81526004016105cf90612e1f565b60405180910390fd5b6001546001600160a01b03163314806106585750600254604051637df73e2760e01b81523360048201526001600160a01b0390911690637df73e2790602401602060405180830381865afa158015610634573d6000803e3d6000fd5b505050506040513d601f19601f820116820180604052508101906106589190612e02565b6106995760405162461bcd60e51b81526020600482015260126024820152716f776d2e66616b652e2064656c656761746560701b60448201526064016105cf565b6002546040516307612f9160e21b81523360048201526000916001600160a01b031690631d84be4490602401602060405180830381865afa1580156106e2573d6000803e3d6000fd5b505050506040513d601f19601f820116820180604052508101906107069190612e4b565b90506107396040805160a08101825260008082526020820181905291810182905260608101829052608081019190915290565b60016020820181905282900361075157600160408201525b8160020361076157600160608201525b8160030361077157600160808201525b6001600160a01b03909216808352600d80546020850151604086015160608701516080909701511515600160b81b0260ff60b81b19971515600160b01b0260ff60b01b19921515600160a81b029290921661ffff60a81b19931515600160a01b026001600160a81b031990951690961793909317919091169390931792909217939093161790915550565b61080582610f8f565b601180546001600160a01b0319166001600160a01b03831617905561082861107a565b5050565b6000546001600160a01b03161561087a5760405162461bcd60e51b81526020600482015260126024820152711bdddb8b9a195e18985cd94b99985a5b195960721b60448201526064016105cf565b600c8054326001600160a01b031991821617909155600080549091166001600160a01b0383161790556108ab61113d565b50565b60008060006019546108bf856116f9565b601a549250925092509193909250565b6017546001600160a01b031633146108f95760405162461bcd60e51b81526004016105cf90612e64565b601055565b600260009054906101000a90046001600160a01b03166001600160a01b0316636a276f9d6040518163ffffffff1660e01b8152600401602060405180830381865afa158015610951573d6000803e3d6000fd5b505050506040513d601f19601f820116820180604052508101906109759190612e02565b6109915760405162461bcd60e51b81526004016105cf90612e1f565b6001546001600160a01b0316331480610a115750600254604051637df73e2760e01b81523360048201526001600160a01b0390911690637df73e2790602401602060405180830381865afa1580156109ed573d6000803e3d6000fd5b505050506040513d601f19601f82011682018060405250810190610a119190612e02565b610a525760405162461bcd60e51b81526020600482015260126024820152716f776d2e66616b652e2064656c656761746560701b60448201526064016105cf565b8015610c9c576002546040516307612f9160e21b81523360048201526000916001600160a01b031690631d84be4490602401602060405180830381865afa158015610aa1573d6000803e3d6000fd5b505050506040513d601f19601f82011682018060405250810190610ac59190612e4b565b600d54909150600160a01b900460ff168015610ae15750806001145b8015610afa5750600d546001600160a01b038481169116145b15610b1357600d805460ff60a81b1916600160a81b1790555b600d54600160a01b900460ff168015610b2c5750806002145b8015610b455750600d546001600160a01b038481169116145b15610b5e57600d805460ff60b01b1916600160b01b1790555b600d54600160a01b900460ff168015610b775750806003145b8015610b905750600d546001600160a01b038481169116145b15610ba957600d805460ff60b81b1916600160b81b1790555b600d54600090600160a81b900460ff1615610bcc5780610bc881612eb1565b9150505b600d54600160b01b900460ff1615610bec5780610be881612eb1565b9150505b600d54600160b81b900460ff1615610c0c5780610c0881612eb1565b9150505b600d54600160a01b900460ff168015610c255750806002145b8015610c3e5750600d546001600160a01b038581169116145b15610c9657600c80546001600160a01b0319166001600160a01b0386161790556040805160a0810182526000808252602082018190529181018290526060810182905260800152600d80546001600160c01b03191690555b50505050565b50506040805160a0810182526000808252602082018190529181018290526060810182905260800152600d80546001600160c01b0319169055565b600e5460ff1615610d1a5760405162461bcd60e51b815260206004820152600d60248201526c189adc1c9b4b9cdd1bdc1c1959609a1b60448201526064016105cf565b6017546001600160a01b03163314610d445760405162461bcd60e51b81526004016105cf90612e64565b610d4c611744565b6013541015610d6b5760006015819055601655610d67611744565b6013555b8060c803610d7f57610d7f858585856117b7565b8060c903610d9357610d9385858585611ae9565b8060ca03610da557610da58482612023565b5050505050565b600260009054906101000a90046001600160a01b03166001600160a01b0316636a276f9d6040518163ffffffff1660e01b8152600401602060405180830381865afa158015610dff573d6000803e3d6000fd5b505050506040513d601f19601f82011682018060405250810190610e239190612e02565b610e3f5760405162461bcd60e51b81526004016105cf90612e1f565b6001546001600160a01b03163314610e8b5760405162461bcd60e51b815260206004820152600f60248201526e6f776e2e6e6f6e617574682e44414f60881b60448201526064016105cf565b60405160009082156108fc0290839083818181858288f19350505050158015610828573d6000803e3d6000fd5b6017546001600160a01b03163314610ee25760405162461bcd60e51b81526004016105cf90612e64565b600c80546001600160a01b039092166001600160a01b0319928316811790915560178054909216179055565b6017546001600160a01b03163314610f385760405162461bcd60e51b81526004016105cf90612e64565b610f4181612074565b5050600e805460ff1916911515919091179055565b60405162461bcd60e51b815260206004820152600e60248201526d1bdddb8b9c995cdd1c9a58dd195960921b60448201526064016105cf565b600f5415610fd35760405162461bcd60e51b8152602060048201526011602482015270189adc1c9b4b9a5b9a5d0b99985a5b1959607a1b60448201526064016105cf565b610fdc8161082c565b610fe4611744565b6013819055601b819055601a55601780546001600160a01b031916339081179091556004805460405163b56e412960e01b8152918201929092526001600160a01b039091169063b56e412990602401602060405180830381865afa158015611050573d6000803e3d6000fd5b505050506040513d601f19601f820116820180604052508101906110749190612e4b565b600f5550565b600f545b601854600f108015906110915750600081115b156108ab57601880546001810182556000919091527fb13d2d76d1f4b7be834882e410b3e3a8afaf69f83600ae24db354391d2378d2e0181905560048054604051630bab927b60e11b81529182018390526001600160a01b03169063175724f690602401602060405180830381865afa158015611112573d6000803e3d6000fd5b505050506040513d601f19601f820116820180604052508101906111369190612e4b565b905061107e565b6000546001600160a01b031661114f57565b60008054906101000a90046001600160a01b03166001600160a01b0316634162169f6040518163ffffffff1660e01b8152600401602060405180830381865afa1580156111a0573d6000803e3d6000fd5b505050506040513d601f19601f820116820180604052508101906111c49190612eca565b600180546001600160a01b0319166001600160a01b0392831617905560005460408051635abedee360e11b81529051919092169163b57dbdc69160048083019260209291908290030181865afa158015611222573d6000803e3d6000fd5b505050506040513d601f19601f820116820180604052508101906112469190612eca565b600280546001600160a01b0319166001600160a01b039283161790556000546040805163cfbffe5360e01b81529051919092169163cfbffe539160048083019260209291908290030181865afa1580156112a4573d6000803e3d6000fd5b505050506040513d601f19601f820116820180604052508101906112c89190612eca565b600380546001600160a01b0319166001600160a01b039283161790556000546040805163ab6e844f60e01b81529051919092169163ab6e844f9160048083019260209291908290030181865afa158015611326573d6000803e3d6000fd5b505050506040513d601f19601f8201168201806040525081019061134a9190612eca565b600480546001600160a01b0319166001600160a01b0392831617815560005460408051639a7c407760e01b815290519190931692639a7c407792818101926020929091908290030181865afa1580156113a7573d6000803e3d6000fd5b505050506040513d601f19601f820116820180604052508101906113cb9190612eca565b600580546001600160a01b0319166001600160a01b0392831617905560005460408051635506ee0b60e11b81529051919092169163aa0ddc169160048083019260209291908290030181865afa158015611429573d6000803e3d6000fd5b505050506040513d601f19601f8201168201806040525081019061144d9190612eca565b600780546001600160a01b0319166001600160a01b03928316179055600054604080516335a577e360e11b815290519190921691636b4aefc69160048083019260209291908290030181865afa1580156114ab573d6000803e3d6000fd5b505050506040513d601f19601f820116820180604052508101906114cf9190612eca565b600880546001600160a01b0319166001600160a01b03928316179055600054604080516324768d9160e01b8152905191909216916324768d919160048083019260209291908290030181865afa15801561152d573d6000803e3d6000fd5b505050506040513d601f19601f820116820180604052508101906115519190612eca565b600b80546001600160a01b0319166001600160a01b0392831617905560005460408051636402742760e01b81529051919092169163640274279160048083019260209291908290030181865afa1580156115af573d6000803e3d6000fd5b505050506040513d601f19601f820116820180604052508101906115d39190612eca565b600980546001600160a01b0319166001600160a01b03928316179055600054604080516330125cf560e01b8152905191909216916330125cf59160048083019260209291908290030181865afa158015611631573d6000803e3d6000fd5b505050506040513d601f19601f820116820180604052508101906116559190612eca565b600a80546001600160a01b0319166001600160a01b03928316179055600054604080516369e8d84b60e11b81529051919092169163d3d1b0969160048083019260209291908290030181865afa1580156116b3573d6000803e3d6000fd5b505050506040513d601f19601f820116820180604052508101906116d79190612eca565b600680546001600160a01b0319166001600160a01b0392909216919091179055565b60008082601a5461170a9190612ee7565b611712611744565b116117245761171f611744565b611732565b82601a546117329190612ee7565b905061173d81612408565b9392505050565b6002546040805163262a9dff60e01b815290516000926001600160a01b03169163262a9dff9160048083019260209291908290030181865afa15801561178e573d6000803e3d6000fd5b505050506040513d601f19601f820116820180604052508101906117b29190612e4b565b905090565b60008060008060009054906101000a90046001600160a01b03166001600160a01b03166301c0d48b6040518163ffffffff1660e01b8152600401602060405180830381865afa15801561180e573d6000803e3d6000fd5b505050506040513d601f19601f820116820180604052508101906118329190612eca565b600c546040516310b9596960e11b81526001600160a01b039182166004820152911690632172b2d290602401606060405180830381865afa15801561187b573d6000803e3d6000fd5b505050506040513d601f19601f8201168201806040525081019061189f9190612efa565b925092509250826118e25760405162461bcd60e51b815260206004820152600d60248201526c626b70726d2e6e6f7072696d6560981b60448201526064016105cf565b6118ec8183612ee7565b93506001600160a01b0387161561194d57601e805460ff19166001179055611913876124d9565b9450601054856119239190612ee7565b84116119315760105461193b565b61193b8585612f31565b601055601e805460ff19169055611a9c565b60108490556003546040805163b252fbe160e01b815290516001600160a01b039092169163b252fbe1916004808201926020929091908290030181865afa15801561199c573d6000803e3d6000fd5b505050506040513d601f19601f820116820180604052508101906119c09190612e4b565b3410611a9c5760008054906101000a90046001600160a01b03166001600160a01b03166301c0d48b6040518163ffffffff1660e01b8152600401602060405180830381865afa158015611a17573d6000803e3d6000fd5b505050506040513d601f19601f82011682018060405250810190611a3b9190612eca565b600c54604051635edc4a8960e01b81526001600160a01b039182166004820152911690635edc4a899034906024016000604051808303818588803b158015611a8257600080fd5b505af1158015611a96573d6000803e3d6000fd5b50505050505b7fc9c5d15cd3df68369726731ef14e6c59e1c88f9323746d9d7b898c49045439c233888888344260c8604051611ad89796959493929190612f44565b60405180910390a150505050505050565b6000600f5411611b315760405162461bcd60e51b8152602060048201526013602482015272189adc1c9b4b9b9bdd0b9858dd1a5d985d1959606a1b60448201526064016105cf565b600360009054906101000a90046001600160a01b03166001600160a01b031663c776fdd76040518163ffffffff1660e01b8152600401602060405180830381865afa158015611b84573d6000803e3d6000fd5b505050506040513d601f19601f82011682018060405250810190611ba89190612e4b565b60155410611bf85760405162461bcd60e51b815260206004820152601960248201527f626b70726d2e62726561636865642e6461696c796c696d69740000000000000060448201526064016105cf565b600360009054906101000a90046001600160a01b03166001600160a01b031663f54a77c86040518163ffffffff1660e01b8152600401602060405180830381865afa158015611c4b573d6000803e3d6000fd5b505050506040513d601f19601f82011682018060405250810190611c6f9190612e4b565b8210158015611cf45750600360009054906101000a90046001600160a01b03166001600160a01b031663c32cfa996040518163ffffffff1660e01b8152600401602060405180830381865afa158015611ccc573d6000803e3d6000fd5b505050506040513d601f19601f82011682018060405250810190611cf09190612e4b565b8211155b611d355760405162461bcd60e51b8152602060048201526012602482015271626b70726d2e6c6f776f726d61782e71747960701b60448201526064016105cf565b6002546040516319c0642960e01b81526001600160a01b038681166004830152909116906319c0642990602401602060405180830381865afa158015611d7f573d6000803e3d6000fd5b505050506040513d601f19601f82011682018060405250810190611da39190612e02565b611de65760405162461bcd60e51b8152602060048201526014602482015273626b70726d2e756e736166652e4f52433131353560601b60448201526064016105cf565b60008111611e6057600354604051635eac822560e01b8152600481018490526001600160a01b0390911690635eac822590602401602060405180830381865afa158015611e37573d6000803e3d6000fd5b505050506040513d601f19601f82011682018060405250810190611e5b9190612e4b565b611e62565b805b600c546013546040516001600160a01b03909216602483015260448201869052606482018590526084820183905260a4820152909150600090611ed590869060c40160408051601f198184030181529190526020810180516001600160e01b0316630a76655760e21b17905260006128fa565b905080806020019051810190611eeb9190612eca565b94506001600160a01b038516611f375760405162461bcd60e51b8152602060048201526011602482015270189adc1c9b4b9b5a5b9d0b99985a5b1959607a1b60448201526064016105cf565b60128054600101908190556000908152601460205260409081902080546001600160a01b0319166001600160a01b0388811691909117909155600454915160248101859052611fb8929091169060440160408051601f198184030181529190526020810180516001600160e01b031663986b729560e01b17905260006128fa565b50611fc383836129f6565b60158054906000611fd383612eb1565b91905055507fc9c5d15cd3df68369726731ef14e6c59e1c88f9323746d9d7b898c49045439c233868686864260c96040516120149796959493929190612f44565b60405180910390a15050505050565b7fc9c5d15cd3df68369726731ef14e6c59e1c88f9323746d9d7b898c49045439c233600084600061205387612074565b42876040516120689796959493929190612f44565b60405180910390a15050565b60008082601a546120859190612ee7565b61208d611744565b1161209f5761209a611744565b6120ad565b82601a546120ad9190612ee7565b905060006120ba82612408565b905080601660008282546120ce9190612ee7565b9091555050601e5460ff16806121df5750601654600360009054906101000a90046001600160a01b03166001600160a01b0316632bfc2e076040518163ffffffff1660e01b8152600401602060405180830381865afa158015612135573d6000803e3d6000fd5b505050506040513d601f19601f820116820180604052508101906121599190612e4b565b111580156121df5750600360009054906101000a90046001600160a01b03166001600160a01b0316635a9bac036040518163ffffffff1660e01b8152600401602060405180830381865afa1580156121b5573d6000803e3d6000fd5b505050506040513d601f19601f820116820180604052508101906121d99190612e4b565b60165411155b6122245760405162461bcd60e51b8152602060048201526016602482015275189adc1c9b4b9bdd995c8bdd5b99195c8b9b1a5b5a5d60521b60448201526064016105cf565b601e5460ff1661223f57600c546001600160a01b031661224c565b6008546001600160a01b03165b6001600160a01b03166108fc829081150290604051600060405180830381858888f19350505050158015612284573d6000803e3d6000fd5b50601e546000906122f29060ff166122a757600c546001600160a01b03166122b4565b6008546001600160a01b03165b6040516024810185905260440160408051601f198184030181529190526020810180516001600160e01b03166301a6952360e41b17905260006128fa565b601a549091505b8381101561237b57601f6000612310600184612f31565b815260200190815260200160002054601f600083815260200190815260200160002060008282546123419190612f82565b90915550601f90506000612356600184612f31565b815260200190815260200160002060009055808061237390612eb1565b9150506122f9565b50601a839055601f6000612390600186612f31565b815260200190815260200160002054601f600085815260200190815260200160002060008282546123c19190612f82565b90915550601f905060006123d6600186612f31565b81526020019081526020016000206000905581601960008282546123fa9190612ee7565b909155509195945050505050565b6003546040805163fc0e74d160e01b815290516000926001600160a01b03169163fc0e74d19160048083019260209291908290030181865afa158015612452573d6000803e3d6000fd5b505050506040513d601f19601f820116820180604052508101906124769190612e02565b15612482575047919050565b601a546000905b838110156124d25761249b8185612faa565b6000828152601f60205260409020546124b49190612fca565b6124be9083612f82565b9150806124ca81612eb1565b915050612489565b5092915050565b600080829050806001600160a01b031663692450096040518163ffffffff1660e01b8152600401602060405180830381865afa15801561251d573d6000803e3d6000fd5b505050506040513d601f19601f820116820180604052508101906125419190612e4b565b6013819055601b819055601a556040805163337dafbd60e11b815290516000916001600160a01b038416916366fb5f7a916004808201926020929091908290030181865afa158015612597573d6000803e3d6000fd5b505050506040513d601f19601f820116820180604052508101906125bb9190612e4b565b90506000826001600160a01b0316639659867e6040518163ffffffff1660e01b8152600401602060405180830381865afa1580156125fd573d6000803e3d6000fd5b505050506040513d601f19601f820116820180604052508101906126219190612e4b565b905060015b818111612868576040516331a8596160e11b8152600481018290526000906001600160a01b03861690636350b2c290602401602060405180830381865afa158015612675573d6000803e3d6000fd5b505050506040513d601f19601f820116820180604052508101906126999190612eca565b9050806001600160a01b031663f9ffedb76040518163ffffffff1660e01b8152600401602060405180830381865afa1580156126d9573d6000803e3d6000fd5b505050506040513d601f19601f820116820180604052508101906126fd9190612e4b565b601381905550806001600160a01b031663d92f24ae6040518163ffffffff1660e01b8152600401602060405180830381865afa158015612741573d6000803e3d6000fd5b505050506040513d601f19601f820116820180604052508101906127659190612e4b565b60108190556127749087612ee7565b600554604051633eb0cceb60e21b815260006004820152919750612855916001600160a01b039182169184169063fac333ac90602401602060405180830381865afa1580156127c7573d6000803e3d6000fd5b505050506040513d601f19601f820116820180604052508101906127eb9190612e4b565b836001600160a01b0316636c51797b6040518163ffffffff1660e01b8152600401602060405180830381865afa158015612829573d6000803e3d6000fd5b505050506040513d601f19601f8201168201806040525081019061284d9190612e4b565b601054611ae9565b508061286081612eb1565b915050612626565b50826001600160a01b03166375b4d78c6040518163ffffffff1660e01b8152600401602060405180830381865afa1580156128a7573d6000803e3d6000fd5b505050506040513d601f19601f820116820180604052508101906128cb9190612e4b565b6010556013548211156128f0576128ee601354836128e99190612f31565b612074565b505b50601a5550919050565b60175460405160609160009182916001600160a01b0316908590612924908990899060240161301e565b60408051601f198184030181529181526020820180516001600160e01b0316630a8c7dad60e21b179052516129599190613060565b60006040518083038185875af1925050503d8060008114612996576040519150601f19603f3d011682016040523d82523d6000602084013e61299b565b606091505b5091509150816129ed5760405162461bcd60e51b815260206004820152601b60248201527f626b70726d2e706172656e742e666f72776172642e6661696c6564000000000060448201526064016105cf565b95945050505050565b80601c6000828254612a089190612ee7565b9250508190555081601d6000828254612a219190612ee7565b9091555050348111612a5b5780341115612a5657612a3f8134612f31565b60106000828254612a509190612ee7565b90915550505b612aeb565b6000612a673483612f31565b9050806010541015612ad25760405162461bcd60e51b815260206004820152602e60248201527f626b70726d2e696e73756666696369656e742e626f6e75735072696d652e746f60448201526d0b98dbdd995c881c185e5b595b9d60921b60648201526084016105cf565b8060106000828254612ae49190612f31565b9091555050505b600080600080600080600360009054906101000a90046001600160a01b03166001600160a01b0316634c05b4a86040518163ffffffff1660e01b815260040160e060405180830381865afa158015612b47573d6000803e3d6000fd5b505050506040513d601f19601f82011682018060405250810190612b6b919061307c565b965050955095509550955095506000846064612b8791906130d0565b612b91878a6130d0565b612b9b91906130e7565b9050612ba88360646130d0565b612bb285836130d0565b612bbc91906130e7565b90506000600188601354612bd09190612ee7565b612bda9190612f31565b905081601f60008381526020019081526020016000206000828254612bff9190612f82565b90915550612c11905082600019612fca565b601f6000612c1f8685612ee7565b81526020019081526020016000206000828254612c3c9190612f82565b9091555050600854612ca7906001600160a01b031630612c5c85876130d0565b6040516001600160a01b039092166024830152604482015260640160408051601f198184030181529190526020810180516001600160e01b031663a9059cbb60e01b179052346128fa565b5050505050505050505050565b6001600160a01b03811681146108ab57600080fd5b600060208284031215612cdb57600080fd5b813561173d81612cb4565b60008060408385031215612cf957600080fd5b8235612d0481612cb4565b91506020830135612d1481612cb4565b809150509250929050565b600060208284031215612d3157600080fd5b5035919050565b80151581146108ab57600080fd5b60008060408385031215612d5957600080fd5b8235612d6481612cb4565b91506020830135612d1481612d38565b600080600080600060a08688031215612d8c57600080fd5b8535612d9781612cb4565b97602087013597506040870135966060810135965060800135945092505050565b60008060408385031215612dcb57600080fd5b8235612dd681612d38565b946020939093013593505050565b60008060408385031215612df757600080fd5b8235612dd681612cb4565b600060208284031215612e1457600080fd5b815161173d81612d38565b6020808252601290820152716f776e2e696e76616c69642e69735361666560701b604082015260600190565b600060208284031215612e5d57600080fd5b5051919050565b60208082526017908201527f626b70726d2e696e76616c69642e6f776e65726e6f6465000000000000000000604082015260600190565b634e487b7160e01b600052601160045260246000fd5b600060018201612ec357612ec3612e9b565b5060010190565b600060208284031215612edc57600080fd5b815161173d81612cb4565b8082018082111561053657610536612e9b565b600080600060608486031215612f0f57600080fd5b8351612f1a81612d38565b602085015160409095015190969495509392505050565b8181038181111561053657610536612e9b565b6001600160a01b03978816815295909616602086015260408501939093526060840191909152608083015260a082015260c081019190915260e00190565b8082018281126000831280158216821582161715612fa257612fa2612e9b565b505092915050565b81810360008312801583831316838312821617156124d2576124d2612e9b565b80820260008212600160ff1b84141615612fe657612fe6612e9b565b818105831482151761053657610536612e9b565b60005b83811015613015578181015183820152602001612ffd565b50506000910152565b60018060a01b0383168152604060208201526000825180604084015261304b816060850160208701612ffa565b601f01601f1916919091016060019392505050565b60008251613072818460208701612ffa565b9190910192915050565b600080600080600080600060e0888a03121561309757600080fd5b5050855160208701516040880151606089015160808a015160a08b015160c0909b0151949c939b50919990985090965094509092509050565b808202811582820484141761053657610536612e9b565b60008261310457634e487b7160e01b600052601260045260246000fd5b50049056fea26469706673582212204c86a78f336b82d74f148d2ab6e92d1aa08dc12c774fd6a9add6911edd2a51d964736f6c63430008140033","linkReferences":{}},"methodIdentifiers":{"Burn(uint256)":"b90306ad","_Txn(address,uint256,uint256,uint256,uint256)":"ac3e52c8","_getMint(uint256)":"946894e5","_getNodeLBPrime()":"2b172197","_getdetail1()":"e658ebd6","_getdetail2()":"7d5886ad","_heirarchy(address,address)":"463ef7c7","_primeIncomeInfo(uint256)":"7e5c8937","_resetuser(address)":"bda71ada","_setBonus(uint256)":"90fb00e7","_setOwner(address,bool)":"abb8c965","_setReq(address)":"41ffe7c4","_stopNode(bool,uint256)":"e995b63f","getBalance()":"12065fe0","isOwnerOrSafeOwner(address)":"379a423c","isStop()":"97779e1b","own_reinit(address)":"60af454d","owner()":"8da5cb5b","ownernode()":"04047cb0","req()":"0d43aaf2","withdraw(address,uint256)":"f3fef3a3"},"id":0}