{"abi":[{"type":"function","name":"LSB","inputs":[{"name":"","type":"uint256","internalType":"uint256"}],"outputs":[{"name":"","type":"int256","internalType":"int256"}],"stateMutability":"view"},{"type":"function","name":"bonus","inputs":[],"outputs":[{"name":"","type":"uint256","internalType":"uint256"}],"stateMutability":"view"},{"type":"function","name":"bonusVal","inputs":[],"outputs":[{"name":"","type":"uint256","internalType":"uint256"}],"stateMutability":"view"},{"type":"function","name":"cage","inputs":[],"outputs":[{"name":"","type":"uint256","internalType":"uint256"}],"stateMutability":"view"},{"type":"function","name":"cageVal","inputs":[],"outputs":[{"name":"","type":"uint256","internalType":"uint256"}],"stateMutability":"view"},{"type":"function","name":"drawn","inputs":[],"outputs":[{"name":"","type":"uint256","internalType":"uint256"},{"name":"","type":"uint256","internalType":"uint256"},{"name":"","type":"uint256","internalType":"uint256"},{"name":"","type":"uint256","internalType":"uint256"},{"name":"","type":"uint256","internalType":"uint256"},{"name":"","type":"uint256","internalType":"uint256"}],"stateMutability":"pure"},{"type":"function","name":"drawnAgeVal","inputs":[],"outputs":[{"name":"","type":"uint256","internalType":"uint256"}],"stateMutability":"view"},{"type":"function","name":"drawnage","inputs":[],"outputs":[{"name":"","type":"uint256","internalType":"uint256"}],"stateMutability":"view"},{"type":"function","name":"getEffectiveRank","inputs":[{"name":"","type":"address","internalType":"address"}],"outputs":[{"name":"","type":"uint256","internalType":"uint256"}],"stateMutability":"view"},{"type":"function","name":"getnoderankage","inputs":[{"name":"","type":"address","internalType":"address"},{"name":"r","type":"uint256","internalType":"uint256"}],"outputs":[{"name":"","type":"uint256","internalType":"uint256"}],"stateMutability":"view"},{"type":"function","name":"ids","inputs":[{"name":"","type":"uint256","internalType":"uint256"}],"outputs":[{"name":"","type":"uint256","internalType":"uint256"}],"stateMutability":"pure"},{"type":"function","name":"mintAmt","inputs":[],"outputs":[{"name":"","type":"uint256","internalType":"uint256"}],"stateMutability":"pure"},{"type":"function","name":"mintCount","inputs":[],"outputs":[{"name":"","type":"uint256","internalType":"uint256"}],"stateMutability":"view"},{"type":"function","name":"mintCountVal","inputs":[],"outputs":[{"name":"","type":"uint256","internalType":"uint256"}],"stateMutability":"view"},{"type":"function","name":"minted","inputs":[{"name":"","type":"uint256","internalType":"uint256"}],"outputs":[{"name":"","type":"address","internalType":"address"}],"stateMutability":"view"},{"type":"function","name":"mintedAge","inputs":[],"outputs":[{"name":"","type":"uint256","internalType":"uint256"}],"stateMutability":"pure"},{"type":"function","name":"mintedqty","inputs":[],"outputs":[{"name":"","type":"uint256","internalType":"uint256"}],"stateMutability":"pure"},{"type":"function","name":"mints","inputs":[{"name":"i","type":"uint256","internalType":"uint256"}],"outputs":[{"name":"","type":"address","internalType":"address"}],"stateMutability":"view"},{"type":"function","name":"mockMint","inputs":[{"name":"nft","type":"address","internalType":"address"}],"outputs":[],"stateMutability":"nonpayable"},{"type":"function","name":"mockSetRank","inputs":[{"name":"r","type":"uint256","internalType":"uint256"}],"outputs":[],"stateMutability":"nonpayable"},{"type":"function","name":"mockSetRankAge","inputs":[{"name":"r","type":"uint256","internalType":"uint256"},{"name":"age","type":"uint256","internalType":"uint256"}],"outputs":[],"stateMutability":"nonpayable"},{"type":"function","name":"rank","inputs":[],"outputs":[{"name":"","type":"uint256","internalType":"uint256"}],"stateMutability":"view"},{"type":"function","name":"rankAge","inputs":[{"name":"","type":"uint256","internalType":"uint256"}],"outputs":[{"name":"","type":"uint256","internalType":"uint256"}],"stateMutability":"view"}],"bytecode":{"object":"0x608080604052346100165761050e908161001c8239f35b600080fdfe6040608081526004908136101561001557600080fd5b600091823560e01c9081630eddbd7d1461045657816312e87ced146103dd5781631f5fa838146103b557816326524621146103845781636350b2c21461034357816366fb5f7a1461032457816368c6bb681461024b57816369245009146102865781636c51797b1461030857816375b4d78c146102a55781637dc0bf3f146102c457816383125b9e146102a55781638407b8fb14610286578163934209ce146102685781639659867e1461024b578163a98bf4f914610223578163ade9dd07146101fb578163cc672821146101d357508063d92f24ae146101b1578063f9ffedb714610196578063fac333ac1461017b578063fcbff1351461015d5763fd915ef21461012057600080fd5b346101595781600319360112610159578060c09151906001809181845281602085015283015280606083015280608083015260a0820152f35b5080fd5b50346101595781600319360112610159576020906003549051908152f35b50346101595760203660031901126101595751908152602090f35b50346101595781600319360112610159576020905160648152f35b503461015957816003193601126101595760209051670de0b6b3a76400008152f35b9050346101f757816003193601126101f75735825260076020526024359082205580f35b8280fd5b9050346101f75760203660031901126101f75760209282913581526007845220549051908152f35b9050346101f75760203660031901126101f75760209282913581526006845220549051908152f35b505034610159578160031936011261015957602091549051908152f35b9050346101f757826003193601126101f75760209250549051908152f35b5050346101595781600319360112610159576020906002549051908152f35b5050346101595781600319360112610159576020906001549051908152f35b9050346101f75760203660031901126101f757359160055483101561030557506102ef60209261048b565b905491519160018060a01b039160031b1c168152f35b80fd5b5050346101595781600319360112610159576020905160018152f35b5050346101595781600319360112610159576020906003549051908152f35b828434610305576020366003190112610305578235926000198401938411610371576020836102ef8661048b565b634e487b7160e01b825260119052602490fd5b505034610159578060031936011261015957806020926103a2610470565b5060243581526007845220549051908152f35b9050346101f75760203660031901126101f757602092506103d4610470565b50549051908152f35b839034610159576020366003190112610159576103f8610470565b906005549068010000000000000000821015610443575080600161041f920160055561048b565b819291549060031b9160018060a01b03809116831b921b1916179055600554815580f35b634e487b7160e01b845260419052602483fd5b839034610159576020366003190112610159578035905580f35b600435906001600160a01b038216820361048657565b600080fd5b6005548110156104c25760056000527f036b6384b5eca791c62761152d0c79bb0604c104a5fb6f4eb0703f3154bb3db00190600090565b634e487b7160e01b600052603260045260246000fdfea2646970667358221220c7075a99a1feb76c00adad918a4da65ee2debe1bf8c0f57d8574ca01b2a94e1f64736f6c63430008140033","linkReferences":{}},"methodIdentifiers":{"LSB(uint256)":"a98bf4f9","bonus()":"75b4d78c","bonusVal()":"83125b9e","cage()":"69245009","cageVal()":"8407b8fb","drawn()":"fd915ef2","drawnAgeVal()":"fcbff135","drawnage()":"66fb5f7a","getEffectiveRank(address)":"1f5fa838","getnoderankage(address,uint256)":"26524621","ids(uint256)":"fac333ac","mintAmt()":"d92f24ae","mintCount()":"9659867e","mintCountVal()":"68c6bb68","minted(uint256)":"7dc0bf3f","mintedAge()":"f9ffedb7","mintedqty()":"6c51797b","mints(uint256)":"6350b2c2","mockMint(address)":"12e87ced","mockSetRank(uint256)":"0eddbd7d","mockSetRankAge(uint256,uint256)":"cc672821","rank()":"934209ce","rankAge(uint256)":"ade9dd07"},"id":61}