{"abi":[{"type":"constructor","inputs":[{"name":"_usdt","type":"address","internalType":"address"},{"name":"_liquidity","type":"address","internalType":"address"},{"name":"_expenses","type":"address","internalType":"address"},{"name":"_depositAmount","type":"uint256","internalType":"uint256"}],"stateMutability":"nonpayable"},{"type":"function","name":"deposit","inputs":[],"outputs":[],"stateMutability":"nonpayable"},{"type":"function","name":"depositAmount","inputs":[],"outputs":[{"name":"","type":"uint256","internalType":"uint256"}],"stateMutability":"view"},{"type":"function","name":"depositCounter","inputs":[],"outputs":[{"name":"","type":"uint256","internalType":"uint256"}],"stateMutability":"view"},{"type":"function","name":"expenses","inputs":[],"outputs":[{"name":"","type":"address","internalType":"contract ExpensesVault"}],"stateMutability":"view"},{"type":"function","name":"liquidity","inputs":[],"outputs":[{"name":"","type":"address","internalType":"contract LiquidityVault"}],"stateMutability":"view"},{"type":"function","name":"liquidityPercent","inputs":[],"outputs":[{"name":"","type":"uint256","internalType":"uint256"}],"stateMutability":"view"},{"type":"function","name":"owner","inputs":[],"outputs":[{"name":"","type":"address","internalType":"address"}],"stateMutability":"view"},{"type":"function","name":"renounceOwnership","inputs":[],"outputs":[],"stateMutability":"nonpayable"},{"type":"function","name":"setDepositAmount","inputs":[{"name":"newAmount","type":"uint256","internalType":"uint256"}],"outputs":[],"stateMutability":"nonpayable"},{"type":"function","name":"setLiquidityPercent","inputs":[{"name":"newPercent","type":"uint256","internalType":"uint256"}],"outputs":[],"stateMutability":"nonpayable"},{"type":"function","name":"transferOwnership","inputs":[{"name":"newOwner","type":"address","internalType":"address"}],"outputs":[],"stateMutability":"nonpayable"},{"type":"function","name":"usdt","inputs":[],"outputs":[{"name":"","type":"address","internalType":"contract IERC20"}],"stateMutability":"view"},{"type":"event","name":"DepositAmountUpdated","inputs":[{"name":"oldAmount","type":"uint256","indexed":false,"internalType":"uint256"},{"name":"newAmount","type":"uint256","indexed":false,"internalType":"uint256"}],"anonymous":false},{"type":"event","name":"Deposited","inputs":[{"name":"user","type":"address","indexed":true,"internalType":"address"},{"name":"amount","type":"uint256","indexed":false,"internalType":"uint256"},{"name":"depositId","type":"uint256","indexed":false,"internalType":"uint256"}],"anonymous":false},{"type":"event","name":"LiquidityPercentUpdated","inputs":[{"name":"oldPercent","type":"uint256","indexed":false,"internalType":"uint256"},{"name":"newPercent","type":"uint256","indexed":false,"internalType":"uint256"}],"anonymous":false},{"type":"event","name":"OwnershipTransferred","inputs":[{"name":"previousOwner","type":"address","indexed":true,"internalType":"address"},{"name":"newOwner","type":"address","indexed":true,"internalType":"address"}],"anonymous":false},{"type":"error","name":"OwnableInvalidOwner","inputs":[{"name":"owner","type":"address","internalType":"address"}]},{"type":"error","name":"OwnableUnauthorizedAccount","inputs":[{"name":"account","type":"address","internalType":"address"}]},{"type":"error","name":"ReentrancyGuardReentrantCall","inputs":[]},{"type":"error","name":"SafeERC20FailedOperation","inputs":[{"name":"token","type":"address","internalType":"address"}]}],"bytecode":{"object":"0x60e03461021257601f61096138819003918201601f191683019291906001600160401b038411838510176102175781608092849260409687528339810103126102125761004b8161022d565b906100586020820161022d565b90606061006685830161022d565b9101519233156101fa5760008054336001600160a01b03198216811783558751956001600160a01b0394909385939192918416907f8be0079c531659141344cd1fd0a4f28419497f9722a3daafe3b4186f6b6457e09080a3600180556032600455169384156101c95750811691821561019757169182156101655783156101305760805260a05260c0526002555161071f9081610242823960805181818161021d01526104b0015260a05181818161024c01526104f4015260c05181818161019b01526102750152f35b845162461bcd60e51b815260206004820152600e60248201526d1253959053125117d05353d5539560921b6044820152606490fd5b845162461bcd60e51b815260206004820152600b60248201526a0494e56414c49445f4558560ac1b6044820152606490fd5b855162461bcd60e51b815260206004820152600b60248201526a494e56414c49445f4c495160a81b6044820152606490fd5b62461bcd60e51b815260206004820152600c60248201526b1253959053125117d554d11560a21b6044820152606490fd5b8451631e4fbdf760e01b815260006004820152602490fd5b600080fd5b634e487b7160e01b600052604160045260246000fd5b51906001600160a01b03821682036102125756fe60406080815260048036101561001457600080fd5b600091823560e01c80631a3f0cda146105185780631a686502146104d45780632f48ab7d14610490578063419759f5146104715780636d8cee56146103d4578063715018a61461036b5780638da5cb5b14610345578063b068375514610327578063d0e30db0146101bf578063e4c5676c1461017b578063ecb3dc88146101585763f2fde38b146100a457600080fd5b34610154576020366003190112610154578135916001600160a01b0391828416809403610150576100d36105b5565b831561012157505082548273ffffffffffffffffffffffffffffffffffffffff198216178455167f8be0079c531659141344cd1fd0a4f28419497f9722a3daafe3b4186f6b6457e08380a380f35b908460249251917f1e4fbdf7000000000000000000000000000000000000000000000000000000008352820152fd5b8480fd5b8280fd5b8382346101775781600319360112610177576020906003549051908152f35b5080fd5b838234610177578160031936011261017757602090516001600160a01b037f0000000000000000000000000000000000000000000000000000000000000000168152f35b508290346101775781600319360112610177576002600154146102ff57600260015560035460001981146102ec5760010160035560025483548082029082820414821517156102d957606490048082039182116102d9579061029d917f0000000000000000000000000000000000000000000000000000000000000000906102736001600160a01b0391827f00000000000000000000000000000000000000000000000000000000000000001633856105f9565b7f0000000000000000000000000000000000000000000000000000000000000000169033906105f9565b7f73a19dd210f1a7f902193214c0ee91dd35ee5b4d920cba8d519eca65a7b488ca60025491600354815193845260208401523392a26001805580f35b602484601187634e487b7160e01b835252fd5b602483601186634e487b7160e01b835252fd5b9050517f3ee5aeb5000000000000000000000000000000000000000000000000000000008152fd5b50903461015457826003193601126101545760209250549051908152f35b8382346101775781600319360112610177576001600160a01b0360209254169051908152f35b83346103d157806003193601126103d1576103846105b5565b806001600160a01b03815473ffffffffffffffffffffffffffffffffffffffff1981168355167f8be0079c531659141344cd1fd0a4f28419497f9722a3daafe3b4186f6b6457e08280a380f35b80fd5b5034610154576020366003190112610154578135916103f16105b5565b821561042f57507ffd021327d6433ee8f1950add99a55088902b53a5fdccc8efe490fbd38fe87059906002548151908152836020820152a160025580f35b6020606492519162461bcd60e51b8352820152600e60248201527f494e56414c49445f414d4f554e540000000000000000000000000000000000006044820152fd5b8382346101775781600319360112610177576020906002549051908152f35b838234610177578160031936011261017757602090516001600160a01b037f0000000000000000000000000000000000000000000000000000000000000000168152f35b838234610177578160031936011261017757602090516001600160a01b037f0000000000000000000000000000000000000000000000000000000000000000168152f35b509034610154576020366003190112610154578035916105366105b5565b60648311610572577f6b530d67c68996304afb6db44f6d94d53daa1b4e09eb4a7f94ecfd990f2927759082548151908152846020820152a15580f35b906020606492519162461bcd60e51b8352820152600f60248201527f494e56414c49445f50455243454e5400000000000000000000000000000000006044820152fd5b6001600160a01b036000541633036105c957565b60246040517f118cdaa7000000000000000000000000000000000000000000000000000000008152336004820152fd5b92906040519160208301917f23b872dd0000000000000000000000000000000000000000000000000000000083526001600160a01b039485809216602486015216604484015260648301526064825260a082019082821067ffffffffffffffff8311176106d357602092600092604052519082865af1156106c7576000513d6106be57508082163b155b61068b575050565b60249250604051917f5274afe7000000000000000000000000000000000000000000000000000000008352166004820152fd5b60011415610683565b6040513d6000823e3d90fd5b634e487b7160e01b600052604160045260246000fdfea26469706673582212208a7f9cb9bd62b9d10eb262e265aabfbc83cc59b014ebbcb70026f42e470f647864736f6c63430008140033","linkReferences":{}},"methodIdentifiers":{"deposit()":"d0e30db0","depositAmount()":"419759f5","depositCounter()":"ecb3dc88","expenses()":"e4c5676c","liquidity()":"1a686502","liquidityPercent()":"b0683755","owner()":"8da5cb5b","renounceOwnership()":"715018a6","setDepositAmount(uint256)":"6d8cee56","setLiquidityPercent(uint256)":"1a3f0cda","transferOwnership(address)":"f2fde38b","usdt()":"2f48ab7d"},"id":85}