{"abi":[{"type":"constructor","inputs":[{"name":"_usdt","type":"address","internalType":"address"}],"stateMutability":"nonpayable"},{"type":"function","name":"isauth","inputs":[{"name":"","type":"address","internalType":"address"}],"outputs":[{"name":"","type":"bool","internalType":"bool"}],"stateMutability":"view"},{"type":"function","name":"owner","inputs":[],"outputs":[{"name":"","type":"address","internalType":"address"}],"stateMutability":"view"},{"type":"function","name":"renounceOwnership","inputs":[],"outputs":[],"stateMutability":"nonpayable"},{"type":"function","name":"setAuth","inputs":[{"name":"user","type":"address","internalType":"address"},{"name":"flag","type":"bool","internalType":"bool"}],"outputs":[],"stateMutability":"nonpayable"},{"type":"function","name":"transferOwnership","inputs":[{"name":"newOwner","type":"address","internalType":"address"}],"outputs":[],"stateMutability":"nonpayable"},{"type":"function","name":"unlock","inputs":[{"name":"user","type":"address","internalType":"address"}],"outputs":[],"stateMutability":"nonpayable"},{"type":"function","name":"unlocked","inputs":[{"name":"","type":"address","internalType":"address"}],"outputs":[{"name":"","type":"bool","internalType":"bool"}],"stateMutability":"view"},{"type":"function","name":"usdt","inputs":[],"outputs":[{"name":"","type":"address","internalType":"contract IERC20"}],"stateMutability":"view"},{"type":"function","name":"withdraw","inputs":[{"name":"amount","type":"uint256","internalType":"uint256"}],"outputs":[],"stateMutability":"nonpayable"},{"type":"event","name":"OwnershipTransferred","inputs":[{"name":"previousOwner","type":"address","indexed":true,"internalType":"address"},{"name":"newOwner","type":"address","indexed":true,"internalType":"address"}],"anonymous":false},{"type":"event","name":"Withdraw","inputs":[{"name":"user","type":"address","indexed":true,"internalType":"address"},{"name":"amount","type":"uint256","indexed":false,"internalType":"uint256"}],"anonymous":false},{"type":"error","name":"InvalidUsdt","inputs":[]},{"type":"error","name":"NotAuth","inputs":[]},{"type":"error","name":"NotEligible","inputs":[]},{"type":"error","name":"OwnableInvalidOwner","inputs":[{"name":"owner","type":"address","internalType":"address"}]},{"type":"error","name":"OwnableUnauthorizedAccount","inputs":[{"name":"account","type":"address","internalType":"address"}]},{"type":"error","name":"ReentrancyGuardReentrantCall","inputs":[]},{"type":"error","name":"SafeERC20FailedOperation","inputs":[{"name":"token","type":"address","internalType":"address"}]}],"bytecode":{"object":"0x60a0346100eb57601f6105fe38819003918201601f19168301916001600160401b038311848410176100f0578084926020946040528339810103126100eb57516001600160a01b03808216918290036100eb5733156100d2576000543360018060a01b0319821617600055604051913391167f8be0079c531659141344cd1fd0a4f28419497f9722a3daafe3b4186f6b6457e0600080a36001805581156100c357506080526040516104f79081610107823960805181818161024801526102fc0152f35b63161c508b60e11b8152600490fd5b604051631e4fbdf760e01b815260006004820152602490fd5b600080fd5b634e487b7160e01b600052604160045260246000fdfe6040608081526004908136101561001557600080fd5b600091823560e01c9081630b44a218146104085781632e1a7d4d146102775781632f48ab7d146102335781632f6c493c146101f0578163715018a6146101a55781638da5cb5b1461017d578163d1846d0c1461013f578163f2fde38b146100c6575063ff5cb0831461008657600080fd5b346100c25760203660031901126100c25760209160ff9082906001600160a01b036100af61045a565b1681526002855220541690519015158152f35b5080fd5b90503461013b57602036600319011261013b576100e161045a565b906100ea610475565b6001600160a01b0391821692831561012557505082546001600160a01b0319811683178455166000805160206104a28339815191528380a380f35b51631e4fbdf760e01b8152908101849052602490fd5b8280fd5b5050346100c25760203660031901126100c25760209160ff9082906001600160a01b0361016a61045a565b1681526003855220541690519015158152f35b5050346100c257816003193601126100c257905490516001600160a01b039091168152602090f35b83346101ed57806003193601126101ed576101be610475565b80546001600160a01b03198116825581906001600160a01b03166000805160206104a28339815191528280a380f35b80fd5b5050346100c25760203660031901126100c25761020b61045a565b610213610475565b6001600160a01b0316825260036020528120805460ff1916600117905580f35b5050346100c257816003193601126100c257517f00000000000000000000000000000000000000000000000000000000000000006001600160a01b03168152602090f35b9190503461013b5760209081600319360112610404578235926002600154146103f65760026001553385526002835260ff8286205416156103e8573385526003835260ff8286205416156103da573380865260038452828620805460ff19169055825163a9059cbb60e01b8186019081526024820192909252604480820187905281527f0000000000000000000000000000000000000000000000000000000000000000929190608081016001600160401b038111828210176103c757855251859188919082865af1156103bd5785513d6103b457506001600160a01b0382163b155b610391575050907f884edad9ce6fa2440d8a54cc123490eb96d2768479d49ff9c7366125a942436491519283523392a26001805580f35b9151635274afe760e01b81526001600160a01b0390911691810191909152602490fd5b6001141561035a565b82513d87823e3d90fd5b634e487b7160e01b895260418452602489fd5b9051637c75aa6f60e11b8152fd5b905163060a6aeb60e51b8152fd5b9051633ee5aeb560e01b8152fd5b8380fd5b5050346100c257806003193601126100c25761042261045a565b906024359182151580930361040457610439610475565b60018060a01b03168352600260205282209060ff8019835416911617905580f35b600435906001600160a01b038216820361047057565b600080fd5b6000546001600160a01b0316330361048957565b60405163118cdaa760e01b8152336004820152602490fdfe8be0079c531659141344cd1fd0a4f28419497f9722a3daafe3b4186f6b6457e0a2646970667358221220096999c66575883d99b1505453b964494ab45dd7d4db33dbdcc580dc7f3769b264736f6c63430008140033","linkReferences":{}},"methodIdentifiers":{"isauth(address)":"ff5cb083","owner()":"8da5cb5b","renounceOwnership()":"715018a6","setAuth(address,bool)":"0b44a218","transferOwnership(address)":"f2fde38b","unlock(address)":"2f6c493c","unlocked(address)":"d1846d0c","usdt()":"2f48ab7d","withdraw(uint256)":"2e1a7d4d"},"id":87}