{"abi":[{"type":"constructor","inputs":[{"name":"_usdt","type":"address","internalType":"address"}],"stateMutability":"nonpayable"},{"type":"function","name":"isauth","inputs":[{"name":"","type":"address","internalType":"address"}],"outputs":[{"name":"","type":"bool","internalType":"bool"}],"stateMutability":"view"},{"type":"function","name":"owner","inputs":[],"outputs":[{"name":"","type":"address","internalType":"address"}],"stateMutability":"view"},{"type":"function","name":"renounceOwnership","inputs":[],"outputs":[],"stateMutability":"nonpayable"},{"type":"function","name":"setAuth","inputs":[{"name":"user","type":"address","internalType":"address"},{"name":"flag","type":"bool","internalType":"bool"}],"outputs":[],"stateMutability":"nonpayable"},{"type":"function","name":"transferOwnership","inputs":[{"name":"newOwner","type":"address","internalType":"address"}],"outputs":[],"stateMutability":"nonpayable"},{"type":"function","name":"unlock","inputs":[{"name":"user","type":"address","internalType":"address"}],"outputs":[],"stateMutability":"nonpayable"},{"type":"function","name":"unlocked","inputs":[{"name":"","type":"address","internalType":"address"}],"outputs":[{"name":"","type":"bool","internalType":"bool"}],"stateMutability":"view"},{"type":"function","name":"usdt","inputs":[],"outputs":[{"name":"","type":"address","internalType":"contract IERC20"}],"stateMutability":"view"},{"type":"function","name":"withdraw","inputs":[{"name":"amount","type":"uint256","internalType":"uint256"}],"outputs":[],"stateMutability":"nonpayable"},{"type":"event","name":"OwnershipTransferred","inputs":[{"name":"previousOwner","type":"address","indexed":true,"internalType":"address"},{"name":"newOwner","type":"address","indexed":true,"internalType":"address"}],"anonymous":false},{"type":"event","name":"Withdraw","inputs":[{"name":"user","type":"address","indexed":true,"internalType":"address"},{"name":"amount","type":"uint256","indexed":false,"internalType":"uint256"}],"anonymous":false},{"type":"error","name":"OwnableInvalidOwner","inputs":[{"name":"owner","type":"address","internalType":"address"}]},{"type":"error","name":"OwnableUnauthorizedAccount","inputs":[{"name":"account","type":"address","internalType":"address"}]},{"type":"error","name":"ReentrancyGuardReentrantCall","inputs":[]},{"type":"error","name":"SafeERC20FailedOperation","inputs":[{"name":"token","type":"address","internalType":"address"}]}],"bytecode":{"object":"0x60a03461010d57601f61066038819003918201601f19168301916001600160401b038311848410176101125780849260209460405283398101031261010d57516001600160a01b038082169182900361010d5733156100f4576000543360018060a01b0319821617600055604051913391167f8be0079c531659141344cd1fd0a4f28419497f9722a3daafe3b4186f6b6457e0600080a36001805581156100c357506080526040516105379081610129823960805181818161026c01526102fd0152f35b62461bcd60e51b815260206004820152600c60248201526b1253959053125117d554d11560a21b6044820152606490fd5b604051631e4fbdf760e01b815260006004820152602490fd5b600080fd5b634e487b7160e01b600052604160045260246000fdfe6040608081526004908136101561001557600080fd5b600091823560e01c9081630b44a218146104685781632e1a7d4d1461029b5781632f48ab7d146102575781632f6c493c14610214578163715018a6146101b75781638da5cb5b1461018f578163d1846d0c14610151578163f2fde38b146100c6575063ff5cb0831461008657600080fd5b346100c25760203660031901126100c25760209160ff9082906001600160a01b036100af6104ba565b1681526002855220541690519015158152f35b5080fd5b90503461014d57602036600319011261014d576100e16104ba565b906100ea6104d5565b6001600160a01b0391821692831561013757505082546001600160a01b0319811683178455167f8be0079c531659141344cd1fd0a4f28419497f9722a3daafe3b4186f6b6457e08380a380f35b51631e4fbdf760e01b8152908101849052602490fd5b8280fd5b5050346100c25760203660031901126100c25760209160ff9082906001600160a01b0361017c6104ba565b1681526003855220541690519015158152f35b5050346100c257816003193601126100c257905490516001600160a01b039091168152602090f35b83346102115780600319360112610211576101d06104d5565b80546001600160a01b03198116825581906001600160a01b03167f8be0079c531659141344cd1fd0a4f28419497f9722a3daafe3b4186f6b6457e08280a380f35b80fd5b5050346100c25760203660031901126100c25761022f6104ba565b6102376104d5565b6001600160a01b0316825260036020528120805460ff1916600117905580f35b5050346100c257816003193601126100c257517f00000000000000000000000000000000000000000000000000000000000000006001600160a01b03168152602090f35b9190503461014d5760209081600319360112610464578235926002600154146104565760026001553385526002835260ff82862054161561042a573385526003835260ff8286205416156103fa573385526003835281852060ff1981541690557f00000000000000000000000000000000000000000000000000000000000000009082518481019063a9059cbb60e01b8252336024820152866044820152604481526080810181811067ffffffffffffffff8211176103e757855251859188919082865af1156103dd5785513d6103d457506001600160a01b0382163b155b6103b1575050907f884edad9ce6fa2440d8a54cc123490eb96d2768479d49ff9c7366125a942436491519283523392a26001805580f35b9151635274afe760e01b81526001600160a01b0390911691810191909152602490fd5b6001141561037a565b82513d87823e3d90fd5b634e487b7160e01b895260418452602489fd5b82606492519162461bcd60e51b8352820152600c60248201526b4e4f545f454c494749424c4560a01b6044820152fd5b82606492519162461bcd60e51b8352820152600860248201526709c9ea8be82aaa8960c31b6044820152fd5b9051633ee5aeb560e01b8152fd5b8380fd5b5050346100c257806003193601126100c2576104826104ba565b9060243591821515809303610464576104996104d5565b60018060a01b03168352600260205282209060ff8019835416911617905580f35b600435906001600160a01b03821682036104d057565b600080fd5b6000546001600160a01b031633036104e957565b60405163118cdaa760e01b8152336004820152602490fdfea2646970667358221220601990e8b933c5c17dbd150eaf2de2fadf6c1d9ea74622e4524179fcc2d5648564736f6c63430008140033","linkReferences":{}},"methodIdentifiers":{"isauth(address)":"ff5cb083","owner()":"8da5cb5b","renounceOwnership()":"715018a6","setAuth(address,bool)":"0b44a218","transferOwnership(address)":"f2fde38b","unlock(address)":"2f6c493c","unlocked(address)":"d1846d0c","usdt()":"2f48ab7d","withdraw(uint256)":"2e1a7d4d"},"id":73}