{"abi":[{"type":"constructor","inputs":[{"name":"_hex","type":"address","internalType":"address"}],"stateMutability":"nonpayable"},{"type":"fallback","stateMutability":"payable"},{"type":"receive","stateMutability":"payable"},{"type":"function","name":"Burn","inputs":[{"name":"amount","type":"uint256","internalType":"uint256"}],"outputs":[],"stateMutability":"nonpayable"},{"type":"function","name":"_delegatorCount","inputs":[],"outputs":[{"name":"","type":"uint256","internalType":"uint256"}],"stateMutability":"view"},{"type":"function","name":"_getImplementation","inputs":[{"name":"clone","type":"address","internalType":"address"}],"outputs":[{"name":"impl","type":"address","internalType":"address"}],"stateMutability":"view"},{"type":"function","name":"_isDelegatorNode","inputs":[{"name":"sender","type":"address","internalType":"address"}],"outputs":[{"name":"","type":"bool","internalType":"bool"}],"stateMutability":"view"},{"type":"function","name":"_isSafe","inputs":[],"outputs":[{"name":"","type":"bool","internalType":"bool"}],"stateMutability":"view"},{"type":"function","name":"_isSecureBase","inputs":[{"name":"sender","type":"address","internalType":"address"}],"outputs":[{"name":"","type":"bool","internalType":"bool"}],"stateMutability":"view"},{"type":"function","name":"_isSigner","inputs":[{"name":"sender","type":"address","internalType":"address"}],"outputs":[{"name":"","type":"bool","internalType":"bool"}],"stateMutability":"view"},{"type":"function","name":"addblacklist","inputs":[{"name":"d","type":"address","internalType":"address"},{"name":"op","type":"bool","internalType":"bool"}],"outputs":[],"stateMutability":"nonpayable"},{"type":"function","name":"blacklisted","inputs":[{"name":"","type":"address","internalType":"address"}],"outputs":[{"name":"","type":"bool","internalType":"bool"}],"stateMutability":"view"},{"type":"function","name":"execute","inputs":[{"name":"proposalId","type":"uint256","internalType":"uint256"},{"name":"isapproved","type":"bool","internalType":"bool"}],"outputs":[],"stateMutability":"nonpayable"},{"type":"function","name":"getBalance","inputs":[],"outputs":[{"name":"","type":"uint256","internalType":"uint256"}],"stateMutability":"view"},{"type":"function","name":"getProposal","inputs":[{"name":"proposalId","type":"uint256","internalType":"uint256"}],"outputs":[{"name":"","type":"string","internalType":"string"},{"name":"","type":"address","internalType":"address"},{"name":"","type":"uint256","internalType":"uint256"},{"name":"","type":"address","internalType":"address"},{"name":"","type":"bool","internalType":"bool"}],"stateMutability":"view"},{"type":"function","name":"getProposalsCount","inputs":[],"outputs":[{"name":"","type":"uint256","internalType":"uint256"}],"stateMutability":"view"},{"type":"function","name":"getResult","inputs":[{"name":"proposalId","type":"uint256","internalType":"uint256"}],"outputs":[{"name":"","type":"uint256","internalType":"uint256"},{"name":"","type":"uint256","internalType":"uint256"},{"name":"","type":"uint256","internalType":"uint256"},{"name":"","type":"uint256","internalType":"uint256"},{"name":"","type":"uint256","internalType":"uint256"}],"stateMutability":"view"},{"type":"function","name":"getsign","inputs":[{"name":"proposalId","type":"uint256","internalType":"uint256"}],"outputs":[{"name":"","type":"bool","internalType":"bool"},{"name":"","type":"bool","internalType":"bool"},{"name":"","type":"bool","internalType":"bool"}],"stateMutability":"view"},{"type":"function","name":"hasVoted","inputs":[{"name":"proposalId","type":"uint256","internalType":"uint256"},{"name":"voter","type":"address","internalType":"address"}],"outputs":[{"name":"","type":"bool","internalType":"bool"}],"stateMutability":"view"},{"type":"function","name":"isNodeStopped","inputs":[{"name":"sender","type":"address","internalType":"address"}],"outputs":[{"name":"","type":"bool","internalType":"bool"}],"stateMutability":"view"},{"type":"function","name":"newProposal","inputs":[{"name":"desc","type":"string","internalType":"string"},{"name":"target","type":"address","internalType":"address"},{"name":"value","type":"uint256","internalType":"uint256"},{"name":"data","type":"bytes","internalType":"bytes"},{"name":"_deadline","type":"uint256","internalType":"uint256"}],"outputs":[{"name":"","type":"uint256","internalType":"uint256"}],"stateMutability":"nonpayable"},{"type":"function","name":"owner","inputs":[],"outputs":[{"name":"","type":"address","internalType":"address"}],"stateMutability":"view"},{"type":"function","name":"proposals","inputs":[{"name":"","type":"uint256","internalType":"uint256"}],"outputs":[{"name":"description","type":"string","internalType":"string"},{"name":"target","type":"address","internalType":"address"},{"name":"value","type":"uint256","internalType":"uint256"},{"name":"data","type":"bytes","internalType":"bytes"},{"name":"votesup","type":"uint256","internalType":"uint256"},{"name":"sign","type":"uint256","internalType":"uint256"},{"name":"votesdown","type":"uint256","internalType":"uint256"},{"name":"deadline","type":"uint256","internalType":"uint256"},{"name":"wincount","type":"uint256","internalType":"uint256"},{"name":"exist","type":"bool","internalType":"bool"},{"name":"creator","type":"address","internalType":"address"}],"stateMutability":"view"},{"type":"function","name":"setWinPer","inputs":[{"name":"_per","type":"uint256","internalType":"uint256"}],"outputs":[],"stateMutability":"nonpayable"},{"type":"function","name":"systemAge","inputs":[],"outputs":[{"name":"","type":"uint256","internalType":"uint256"}],"stateMutability":"view"},{"type":"function","name":"vote","inputs":[{"name":"proposalId","type":"uint256","internalType":"uint256"},{"name":"updown","type":"bool","internalType":"bool"}],"outputs":[],"stateMutability":"nonpayable"}],"bytecode":{"object":"0x6080604052603360035534801561001557600080fd5b506040516200243e3803806200243e83398101604081905261003691610067565b600180546001600160a01b0319908116909155600080546001600160a01b0390931692909116919091179055610097565b60006020828403121561007957600080fd5b81516001600160a01b038116811461009057600080fd5b9392505050565b61239780620000a76000396000f3fe6080604052600436106101385760003560e01c8063a1f7f539116100b0578063d3a308491161006c578063d3a30849146103e2578063dbac26e914610402578063df49ed7c14610432578063e01ad5fd14610452578063e0a9bc2b14610472578063fdc10bc91461048757005b8063a1f7f5391461031c578063af48452614610331578063b90306ad14610351578063c54e44b014610371578063c7f758a814610391578063c9d27afe146103c257005b806351bfd3ae116100ff57806351bfd3ae1461022d578063604ff4b11461024d57806365153c4b1461026d5780638da5cb5b1461028d57806398e527d3146102bf578063995e4339146102d457005b8063013cf08b1461014157806312065fe0146101815780631f185d161461019e5780633595df1a146101ce578063438596321461020d57005b3661013f57005b005b34801561014d57600080fd5b5061016161015c366004611de7565b61049c565b6040516101789b9a99989796959493929190611e50565b60405180910390f35b34801561018d57600080fd5b50475b604051908152602001610178565b3480156101aa57600080fd5b506101be6101b9366004611eed565b610634565b6040519015158152602001610178565b3480156101da57600080fd5b506101ee6101e9366004611de7565b610708565b6040805193151584529115156020840152151590820152606001610178565b34801561021957600080fd5b506101be610228366004611f11565b610756565b34801561023957600080fd5b506101be610248366004611eed565b6107ab565b34801561025957600080fd5b5061013f610268366004611de7565b610947565b34801561027957600080fd5b5061013f610288366004611f4f565b6109d9565b34801561029957600080fd5b506001546001600160a01b03165b6040516001600160a01b039091168152602001610178565b3480156102cb57600080fd5b50600454610190565b3480156102e057600080fd5b506102f46102ef366004611de7565b610b24565b604080519586526020860194909452928401919091526060830152608082015260a001610178565b34801561032857600080fd5b50610190610b85565b34801561033d57600080fd5b506101be61034c366004611eed565b610d31565b34801561035d57600080fd5b5061013f61036c366004611de7565b610def565b34801561037d57600080fd5b506102a761038c366004611eed565b610ed5565b34801561039d57600080fd5b506103b16103ac366004611de7565b610f55565b604051610178959493929190611f74565b3480156103ce57600080fd5b5061013f6103dd366004611f4f565b611056565b3480156103ee57600080fd5b506101906103fd366004612003565b611379565b34801561040e57600080fd5b506101be61041d366004611eed565b60026020526000908152604090205460ff1681565b34801561043e57600080fd5b5061013f61044d36600461209a565b6113e6565b34801561045e57600080fd5b506101be61046d366004611eed565b611499565b34801561047e57600080fd5b506101be611779565b34801561049357600080fd5b50610190611824565b600481815481106104ac57600080fd5b90600052602060002090600b02016000915090508060000180546104cf906120c8565b80601f01602080910402602001604051908101604052809291908181526020018280546104fb906120c8565b80156105485780601f1061051d57610100808354040283529160200191610548565b820191906000526020600020905b81548152906001019060200180831161052b57829003601f168201915b505050506001830154600284015460038501805494956001600160a01b039093169491935090610577906120c8565b80601f01602080910402602001604051908101604052809291908181526020018280546105a3906120c8565b80156105f05780601f106105c5576101008083540402835291602001916105f0565b820191906000526020600020905b8154815290600101906020018083116105d357829003601f168201915b5050505060048301546005840154600685015460078601546008870154600a90970154959693959294509092909160ff81169061010090046001600160a01b03168b565b600080546040805163af0deb9560e01b81529051610702926001600160a01b03169163af0deb959160048083019260209291908290030181865afa158015610680573d6000803e3d6000fd5b505050506040513d601f19601f820116820180604052508101906106a49190612102565b6040518060400160405280601181526020017069735369676e657228616464726573732960781b815250846040516020016106ee91906001600160a01b0391909116815260200190565b6040516020818303038152906040526118c7565b92915050565b6000808080600461071a600187612135565b8154811061072a5761072a612148565b60009182526020909120600b909102016005015460018114966002821496506003909114945092505050565b6000806004610766600186612135565b8154811061077657610776612148565b600091825260208083206001600160a01b03871684526009600b90930201919091019052604090205460ff1691505092915050565b60008061088660008054906101000a90046001600160a01b03166001600160a01b031663a66bcbe26040518163ffffffff1660e01b8152600401602060405180830381865afa158015610802573d6000803e3d6000fd5b505050506040513d601f19601f820116820180604052508101906108269190612102565b6040518060400160405280601381526020017255736572546f496e737428616464726573732960681b8152508560405160200161087291906001600160a01b0391909116815260200190565b60405160208183030381529060405261190e565b90506000806001600160a01b0316826001600160a01b03161415905060006108e1836040518060400160405280600b81526020016a697353757370656e64282960a81b815250604051806020016040528060008152506118c7565b9050600061091f846040518060400160405280600881526020016769734c6f636b282960c01b815250604051806020016040528060008152506118c7565b905082158061093d57508180156109335750805b801561093d575082155b9695505050505050565b61094f611779565b6109955760405162461bcd60e51b81526020600482015260126024820152716f776e2e696e76616c69642e69735361666560701b60448201526064015b60405180910390fd5b3033146109d45760405162461bcd60e51b815260206004820152600d60248201526c6f776e2e66616b652e636f726560981b604482015260640161098c565b600355565b6109e233610634565b610a235760405162461bcd60e51b815260206004820152601260248201527137bbb71734b73b30b634b21739b4b3b732b960711b604482015260640161098c565b60006004610a32600185612135565b81548110610a4257610a42612148565b60009182526020909120600b90910201600a81015490915060ff16610a9d5760405162461bcd60e51b815260206004820152601160248201527019185bcb9c1c9bdc0b9b9bdd195e1a5cdd607a1b604482015260640161098c565b80600801548160040154101580610abf57508060070154610abc611824565b10155b610b015760405162461bcd60e51b815260206004820152601360248201527264616f2e6265666f72652e646561646c696e6560681b604482015260640161098c565b6002816005015410158015610b135750815b9150610b1f8383611949565b505050565b600080808080806004610b38600189612135565b81548110610b4857610b48612148565b90600052602060002090600b0201905080600401548160060154826007015483600801548460050154955095509550955095505091939590929450565b600080610c3a60008054906101000a90046001600160a01b03166001600160a01b031663e1f4cd246040518163ffffffff1660e01b8152600401602060405180830381865afa158015610bdc573d6000803e3d6000fd5b505050506040513d601f19601f82011682018060405250810190610c009190612102565b6040518060400160405280600c81526020016b72616e6b666f7244414f282960a01b81525060405180602001604052806000815250611abc565b90506000610d1d60008054906101000a90046001600160a01b03166001600160a01b031663ab6e844f6040518163ffffffff1660e01b8152600401602060405180830381865afa158015610c92573d6000803e3d6000fd5b505050506040513d601f19601f82011682018060405250810190610cb69190612102565b6040518060400160405280601d81526020017f67657472616e6b636f756e742875696e743235362c75696e7432353629000000815250610cf4611824565b60408051602081019290925281018690526060015b604051602081830303815290604052611abc565b9050610d2a81600361215e565b9250505090565b600080546040805163af0deb9560e01b81529051610702926001600160a01b03169163af0deb959160048083019260209291908290030181865afa158015610d7d573d6000803e3d6000fd5b505050506040513d601f19601f82011682018060405250810190610da19190612102565b6040518060400160405280601581526020017469735365637572654261736528616464726573732960581b815250846040516020016106ee91906001600160a01b0391909116815260200190565b60005460408051634162169f60e01b8152905133926001600160a01b031691634162169f9160048083019260209291908290030181865afa158015610e38573d6000803e3d6000fd5b505050506040513d601f19601f82011682018060405250810190610e5c9190612102565b6001600160a01b031614610ea45760405162461bcd60e51b815260206004820152600f60248201526e6f776e2e6e6f6e617574682e44414f60881b604482015260640161098c565b60405160009082156108fc0290839083818181858288f19350505050158015610ed1573d6000803e3d6000fd5b5050565b600080826001600160a01b0316803b806020016040519081016040528181526000908060200190933c9050602d81511015610f485760405162461bcd60e51b81526020600482015260136024820152724e6f742061206d696e696d616c2070726f787960681b604482015260640161098c565b602a015160601c92915050565b60606000808080806004610f6a600189612135565b81548110610f7a57610f7a612148565b60009182526020909120600b9091020160018101546002820154600a830154835493945084936001600160a01b03938416936101008304169160ff16908590610fc2906120c8565b80601f0160208091040260200160405190810160405280929190818152602001828054610fee906120c8565b801561103b5780601f106110105761010080835404028352916020019161103b565b820191906000526020600020905b81548152906001019060200180831161101e57829003601f168201915b50505050509450955095509550955095505091939590929450565b600061106133610634565b9050600061106d611779565b9050600061107a33611499565b905082806110855750815b8015611095575082806110955750805b6110da5760405162461bcd60e51b81526020600482015260166024820152756f776e2e6e6f6e617574682e64656c656761746f727360501b604482015260640161098c565b3360009081526002602052604090205460ff161561112e5760405162461bcd60e51b815260206004820152601160248201527019185bcb9d5b985d5d1a0b99985a5b1959607a1b604482015260640161098c565b6000600461113d600188612135565b8154811061114d5761114d612148565b60009182526020909120600b90910201600a81015490915060ff166111a85760405162461bcd60e51b815260206004820152601160248201527019185bcb9c1c9bdc0b9b9bdd195e1a5cdd607a1b604482015260640161098c565b806008015481600401541015806111ca57506111c2611824565b816007015410155b6112095760405162461bcd60e51b815260206004820152601060248201526f19185bcb9d9bdd1a5b99cb995b99195960821b604482015260640161098c565b60038160050154106112555760405162461bcd60e51b815260206004820152601560248201527419185bcb985b1c9958591e4b98dbdb5c1b195d1959605a1b604482015260640161098c565b33600090815260098201602052604090205460ff16156112ab5760405162461bcd60e51b815260206004820152601160248201527019185bcb985b1c9958591e4b9d9bdd1959607a1b604482015260640161098c565b846112b75760006112ba565b60015b60ff168160040160008282546112d0919061215e565b909155505084156112e25760006112e5565b60015b60ff168160060160008282546112fb919061215e565b90915550503360008181526009830160205260409020805460ff1916600117905561132590610634565b156113715760058101805490600061133c83612171565b9190505550841580611352575080600501546002145b1561137157611371868260050154600214801561136c5750865b611949565b505050505050565b6000856001600160a01b0381166113c75760405162461bcd60e51b815260206004820152601260248201527137bbb7173232b330bab63a1739b2b73232b960711b604482015260640161098c565b6113d689898989898989611af7565b5050600454979650505050505050565b6113ee611779565b61142f5760405162461bcd60e51b81526020600482015260126024820152716f776e2e696e76616c69642e69735361666560701b604482015260640161098c565b30331461146e5760405162461bcd60e51b815260206004820152600d60248201526c6f776e2e66616b652e636f726560981b604482015260640161098c565b6001600160a01b03919091166000908152600260205260409020805460ff1916911515919091179055565b6000806114f060008054906101000a90046001600160a01b03166001600160a01b031663e1f4cd246040518163ffffffff1660e01b8152600401602060405180830381865afa158015610bdc573d6000803e3d6000fd5b905060006115b860008054906101000a90046001600160a01b03166001600160a01b031663ab6e844f6040518163ffffffff1660e01b8152600401602060405180830381865afa158015611548573d6000803e3d6000fd5b505050506040513d601f19601f8201168201806040525081019061156c9190612102565b6040518060400160405280601381526020017255736572546f496e737428616464726573732960681b8152508660405160200161087291906001600160a01b0391909116815260200190565b9050600061168a60008054906101000a90046001600160a01b03166001600160a01b031663ab6e844f6040518163ffffffff1660e01b8152600401602060405180830381865afa158015611610573d6000803e3d6000fd5b505050506040513d601f19601f820116820180604052508101906116349190612102565b6040518060400160405280601981526020017f67657445666665637469766552616e6b2861646472657373290000000000000081525084604051602001610d0991906001600160a01b0391909116815260200190565b9050600061174e60008054906101000a90046001600160a01b03166001600160a01b031663ab6e844f6040518163ffffffff1660e01b8152600401602060405180830381865afa1580156116e2573d6000803e3d6000fd5b505050506040513d601f19601f820116820180604052508101906117069190612102565b6040518060400160405280600f81526020016e697353746f7028616464726573732960881b815250856040516020016106ee91906001600160a01b0391909116815260200190565b90506001600160a01b038316158015906117685750838210155b801561093d57501595945050505050565b600080546040805163af0deb9560e01b8152905161181f926001600160a01b03169163af0deb959160048083019260209291908290030181865afa1580156117c5573d6000803e3d6000fd5b505050506040513d601f19601f820116820180604052508101906117e99190612102565b60405180604001604052806008815260200167697353616665282960c01b815250604051806020016040528060008152506118c7565b905090565b600080546040805163223df87160e11b8152905161181f926001600160a01b03169163447bf0e29160048083019260209291908290030181865afa158015611870573d6000803e3d6000fd5b505050506040513d601f19601f820116820180604052508101906118949190612102565b60405180604001604052806005815260200164616765282960d81b81525060405180602001604052806000815250611abc565b60008060006118d7868686611bdf565b915091508180156118e9575080516020145b156119055780806020019051810190611902919061218a565b92505b50509392505050565b600080600061191e868686611bdf565b91509150818015611930575080516020145b1561190557808060200190518101906119029190612102565b60006004611958600185612135565b8154811061196857611968612148565b90600052602060002090600b0201905060038160050154106119c45760405162461bcd60e51b815260206004820152601560248201527419185bcb985b1c9958591e4b98dbdb5c1b195d1959605a1b604482015260640161098c565b8180156119d957508060080154816004015410155b80156119ec575080600601548160040154115b6119f75760036119fa565b60045b60ff1660058201819055600403610b1f576001810154600382018054611ab6926001600160a01b03169190611a2e906120c8565b80601f0160208091040260200160405190810160405280929190818152602001828054611a5a906120c8565b8015611aa75780601f10611a7c57610100808354040283529160200191611aa7565b820191906000526020600020905b815481529060010190602001808311611a8a57829003601f168201915b50505050508360020154611cd9565b50505050565b6000806000611acc868686611bdf565b91509150818015611ade575080516020145b15611905578080602001905181019061190291906121a7565b60048054600181018255600091909152600b027f8a35acfbc15ff81a39ae7d344fd709f28e8600b4aa8c65c6b64bfe7fe36bd19b0180611b38888a8361221c565b506001810180546001600160a01b0319166001600160a01b0388161790556002810185905560038101611b6c84868361221c565b506064600354611b7a610b85565b611b8491906122dd565b611b8f90606361215e565b611b9991906122f4565b600882015581611ba7611824565b611bb1919061215e565b6007820155600a01805460ff196101003302166001600160a81b031990911617600117905550505050505050565b60006060846001600160a01b03163b600003611c0d5750506040805160208101909152600080825290611cd1565b604080516004815260248101918290526001600160a01b03871691611c33908790612316565b60405180910390206001600160e01b0319166020820180516001600160e01b03838183161783525050505084604051602001611c70929190612332565b60408051601f1981840301815290829052611c8a91612316565b600060405180830381855afa9150503d8060008114611cc5576040519150601f19603f3d011682016040523d82523d6000602084013e611cca565b606091505b5090925090505b935093915050565b60606001600160a01b038416611d265760405162461bcd60e51b81526020600482015260126024820152711bdddb8b9a5b9d985b1a590b9d185c99d95d60721b604482015260640161098c565b600080856001600160a01b03168486604051611d429190612316565b60006040518083038185875af1925050503d8060008114611d7f576040519150601f19603f3d011682016040523d82523d6000602084013e611d84565b606091505b509150915081611dde57805115611d9d57805181602001fd5b60405162461bcd60e51b81526020600482015260166024820152751bdddb8b9d185c99d95d0b98d85b1b0b99985a5b195960521b604482015260640161098c565b95945050505050565b600060208284031215611df957600080fd5b5035919050565b60005b83811015611e1b578181015183820152602001611e03565b50506000910152565b60008151808452611e3c816020860160208601611e00565b601f01601f19169290920160200192915050565b6000610160808352611e648184018f611e24565b6001600160a01b038e81166020860152604085018e90528482036060860152909150611e90828d611e24565b92508a60808501528960a08501528860c08501528760e08501528661010085015285151561012085015280851661014085015250509c9b505050505050505050505050565b6001600160a01b0381168114611eea57600080fd5b50565b600060208284031215611eff57600080fd5b8135611f0a81611ed5565b9392505050565b60008060408385031215611f2457600080fd5b823591506020830135611f3681611ed5565b809150509250929050565b8015158114611eea57600080fd5b60008060408385031215611f6257600080fd5b823591506020830135611f3681611f41565b60a081526000611f8760a0830188611e24565b6001600160a01b039687166020840152604083019590955250919093166060820152911515608090920191909152919050565b60008083601f840112611fcc57600080fd5b50813567ffffffffffffffff811115611fe457600080fd5b602083019150836020828501011115611ffc57600080fd5b9250929050565b600080600080600080600060a0888a03121561201e57600080fd5b873567ffffffffffffffff8082111561203657600080fd5b6120428b838c01611fba565b909950975060208a0135915061205782611ed5565b909550604089013594506060890135908082111561207457600080fd5b506120818a828b01611fba565b989b979a50959894979596608090950135949350505050565b600080604083850312156120ad57600080fd5b82356120b881611ed5565b91506020830135611f3681611f41565b600181811c908216806120dc57607f821691505b6020821081036120fc57634e487b7160e01b600052602260045260246000fd5b50919050565b60006020828403121561211457600080fd5b8151611f0a81611ed5565b634e487b7160e01b600052601160045260246000fd5b818103818111156107025761070261211f565b634e487b7160e01b600052603260045260246000fd5b808201808211156107025761070261211f565b6000600182016121835761218361211f565b5060010190565b60006020828403121561219c57600080fd5b8151611f0a81611f41565b6000602082840312156121b957600080fd5b5051919050565b634e487b7160e01b600052604160045260246000fd5b601f821115610b1f57600081815260208120601f850160051c810160208610156121fd5750805b601f850160051c820191505b8181101561137157828155600101612209565b67ffffffffffffffff831115612234576122346121c0565b6122488361224283546120c8565b836121d6565b6000601f84116001811461227c57600085156122645750838201355b600019600387901b1c1916600186901b1783556122d6565b600083815260209020601f19861690835b828110156122ad578685013582556020948501946001909201910161228d565b50868210156122ca5760001960f88860031b161c19848701351681555b505060018560011b0183555b5050505050565b80820281158282048414176107025761070261211f565b60008261231157634e487b7160e01b600052601260045260246000fd5b500490565b60008251612328818460208701611e00565b9190910192915050565b60008351612344818460208801611e00565b835190830190612358818360208801611e00565b0194935050505056fea264697066735822122069814e81954aaec8f5f0e084bdad8625a5e6c688003940272cca97d480c014b164736f6c63430008140033","linkReferences":{}},"methodIdentifiers":{"Burn(uint256)":"b90306ad","_delegatorCount()":"a1f7f539","_getImplementation(address)":"c54e44b0","_isDelegatorNode(address)":"e01ad5fd","_isSafe()":"e0a9bc2b","_isSecureBase(address)":"af484526","_isSigner(address)":"1f185d16","addblacklist(address,bool)":"df49ed7c","blacklisted(address)":"dbac26e9","execute(uint256,bool)":"65153c4b","getBalance()":"12065fe0","getProposal(uint256)":"c7f758a8","getProposalsCount()":"98e527d3","getResult(uint256)":"995e4339","getsign(uint256)":"3595df1a","hasVoted(uint256,address)":"43859632","isNodeStopped(address)":"51bfd3ae","newProposal(string,address,uint256,bytes,uint256)":"d3a30849","owner()":"8da5cb5b","proposals(uint256)":"013cf08b","setWinPer(uint256)":"604ff4b1","systemAge()":"fdc10bc9","vote(uint256,bool)":"c9d27afe"},"id":22}