{"abi":[{"type":"function","name":"age","inputs":[],"outputs":[{"name":"","type":"uint256","internalType":"uint256"}],"stateMutability":"view"}],"bytecode":{"object":"0x60808060405234610019574260005560c4908161001f8239f35b600080fdfe6080806040526004361015601257600080fd5b600090813560e01c63262a9dff14602857600080fd5b34608a5781600319360112608a578154420342811160625761012c9004600181019081811160765761011501809111606257602092508152f35b602483634e487b7160e01b81526011600452fd5b602484634e487b7160e01b81526011600452fd5b5080fdfea26469706673582212209ca91a9e5947c0cd32a2fdc55d8ce0eb5260aac35faae0a05e8f5e6c9ed9bf1564736f6c63430008140033","linkReferences":{}},"methodIdentifiers":{"age()":"262a9dff"},"id":120}