{"abi":[{"type":"constructor","inputs":[],"stateMutability":"nonpayable"},{"type":"fallback","stateMutability":"payable"},{"type":"receive","stateMutability":"payable"},{"type":"function","name":"Burn","inputs":[{"name":"amount","type":"uint256","internalType":"uint256"}],"outputs":[],"stateMutability":"payable"},{"type":"function","name":"InstToId","inputs":[{"name":"","type":"address","internalType":"address"}],"outputs":[{"name":"","type":"uint256","internalType":"uint256"}],"stateMutability":"view"},{"type":"function","name":"UserToInst","inputs":[{"name":"","type":"address","internalType":"address"}],"outputs":[{"name":"","type":"address","internalType":"address"}],"stateMutability":"view"},{"type":"function","name":"_addBusiness","inputs":[{"name":"amount","type":"uint256","internalType":"uint256"}],"outputs":[],"stateMutability":"nonpayable"},{"type":"function","name":"_addBusinessPrime","inputs":[{"name":"amount","type":"uint256","internalType":"uint256"}],"outputs":[],"stateMutability":"nonpayable"},{"type":"function","name":"_nested","inputs":[{"name":"parent","type":"address","internalType":"address"},{"name":"user","type":"address","internalType":"address"},{"name":"_ag","type":"uint256","internalType":"uint256"}],"outputs":[{"name":"","type":"uint256","internalType":"uint256"}],"stateMutability":"nonpayable"},{"type":"function","name":"_nestedRoot","inputs":[{"name":"user","type":"address","internalType":"address"},{"name":"_ag","type":"uint256","internalType":"uint256"}],"outputs":[{"name":"","type":"uint256","internalType":"uint256"}],"stateMutability":"nonpayable"},{"type":"function","name":"_resetuser","inputs":[{"name":"from","type":"address","internalType":"address"},{"name":"to","type":"address","internalType":"address"}],"outputs":[],"stateMutability":"nonpayable"},{"type":"function","name":"_setOwner","inputs":[{"name":"own","type":"address","internalType":"address"},{"name":"isApproved","type":"bool","internalType":"bool"}],"outputs":[],"stateMutability":"nonpayable"},{"type":"function","name":"_setReq","inputs":[{"name":"own","type":"address","internalType":"address"}],"outputs":[],"stateMutability":"nonpayable"},{"type":"function","name":"_setrankCount","inputs":[{"name":"_rnk","type":"uint256","internalType":"uint256"},{"name":"_ag","type":"uint256","internalType":"uint256"}],"outputs":[],"stateMutability":"nonpayable"},{"type":"function","name":"activePrime","inputs":[],"outputs":[{"name":"","type":"uint256","internalType":"uint256"}],"stateMutability":"view"},{"type":"function","name":"getBalance","inputs":[],"outputs":[{"name":"","type":"uint256","internalType":"uint256"}],"stateMutability":"view"},{"type":"function","name":"getNode","inputs":[{"name":"_id","type":"uint256","internalType":"uint256"}],"outputs":[{"name":"pid","type":"uint256","internalType":"uint256"},{"name":"cage","type":"uint256","internalType":"uint256"},{"name":"exist","type":"bool","internalType":"bool"},{"name":"stop","type":"bool","internalType":"bool"}],"stateMutability":"view"},{"type":"function","name":"getNodeActiveDirectsCount","inputs":[{"name":"_id","type":"uint256","internalType":"uint256"}],"outputs":[{"name":"count","type":"uint256","internalType":"uint256"}],"stateMutability":"view"},{"type":"function","name":"getNodeById","inputs":[{"name":"_id","type":"uint256","internalType":"uint256"}],"outputs":[{"name":"","type":"address","internalType":"address"}],"stateMutability":"view"},{"type":"function","name":"getNodeByIndex","inputs":[{"name":"index","type":"uint256","internalType":"uint256"}],"outputs":[{"name":"node","type":"address","internalType":"address"}],"stateMutability":"view"},{"type":"function","name":"getNodeChild","inputs":[{"name":"_id","type":"uint256","internalType":"uint256"},{"name":"inx","type":"uint256","internalType":"uint256"}],"outputs":[{"name":"child","type":"address","internalType":"address"}],"stateMutability":"view"},{"type":"function","name":"getNodeDirectsCount","inputs":[{"name":"_id","type":"uint256","internalType":"uint256"}],"outputs":[{"name":"count","type":"uint256","internalType":"uint256"}],"stateMutability":"view"},{"type":"function","name":"getNodeId","inputs":[{"name":"uinst","type":"address","internalType":"address"}],"outputs":[{"name":"","type":"uint256","internalType":"uint256"}],"stateMutability":"view"},{"type":"function","name":"getNodeParent","inputs":[{"name":"_id","type":"uint256","internalType":"uint256"}],"outputs":[{"name":"","type":"uint256","internalType":"uint256"}],"stateMutability":"view"},{"type":"function","name":"getNodesCount","inputs":[],"outputs":[{"name":"nodesCount","type":"uint256","internalType":"uint256"}],"stateMutability":"view"},{"type":"function","name":"getUserById","inputs":[{"name":"_id","type":"uint256","internalType":"uint256"}],"outputs":[{"name":"","type":"address","internalType":"address"}],"stateMutability":"view"},{"type":"function","name":"getUserId","inputs":[{"name":"user","type":"address","internalType":"address"}],"outputs":[{"name":"","type":"uint256","internalType":"uint256"}],"stateMutability":"view"},{"type":"function","name":"getbusiness","inputs":[{"name":"ag","type":"uint256","internalType":"uint256"}],"outputs":[{"name":"","type":"uint256","internalType":"uint256"}],"stateMutability":"view"},{"type":"function","name":"getrankCount","inputs":[{"name":"_ag","type":"uint256","internalType":"uint256"},{"name":"rnk","type":"uint256","internalType":"uint256"}],"outputs":[{"name":"count","type":"uint256","internalType":"uint256"}],"stateMutability":"view"},{"type":"function","name":"isInstance","inputs":[{"name":"uinst","type":"address","internalType":"address"}],"outputs":[{"name":"","type":"bool","internalType":"bool"}],"stateMutability":"view"},{"type":"function","name":"isNode","inputs":[{"name":"_i","type":"uint256","internalType":"uint256"}],"outputs":[{"name":"","type":"bool","internalType":"bool"}],"stateMutability":"view"},{"type":"function","name":"isNodeByInst","inputs":[{"name":"uinst","type":"address","internalType":"address"}],"outputs":[{"name":"","type":"bool","internalType":"bool"}],"stateMutability":"view"},{"type":"function","name":"isOwnerOrSafeOwner","inputs":[{"name":"sender","type":"address","internalType":"address"}],"outputs":[{"name":"","type":"bool","internalType":"bool"}],"stateMutability":"view"},{"type":"function","name":"isStop","inputs":[{"name":"_id","type":"uint256","internalType":"uint256"}],"outputs":[{"name":"","type":"bool","internalType":"bool"}],"stateMutability":"view"},{"type":"function","name":"isUser","inputs":[{"name":"node","type":"address","internalType":"address"}],"outputs":[{"name":"","type":"bool","internalType":"bool"}],"stateMutability":"view"},{"type":"function","name":"isUserInst","inputs":[{"name":"node","type":"address","internalType":"address"},{"name":"_ins","type":"address","internalType":"address"}],"outputs":[{"name":"isIndeed","type":"bool","internalType":"bool"}],"stateMutability":"view"},{"type":"function","name":"kill","inputs":[{"name":"_toSend","type":"address","internalType":"address"}],"outputs":[],"stateMutability":"nonpayable"},{"type":"function","name":"own_reinit","inputs":[{"name":"_h","type":"address","internalType":"address"}],"outputs":[],"stateMutability":"nonpayable"},{"type":"function","name":"owner","inputs":[],"outputs":[{"name":"","type":"address","internalType":"address"}],"stateMutability":"view"},{"type":"function","name":"req","inputs":[],"outputs":[{"name":"newowner","type":"address","internalType":"address"},{"name":"isReq","type":"bool","internalType":"bool"},{"name":"isVer1","type":"bool","internalType":"bool"},{"name":"isVer2","type":"bool","internalType":"bool"},{"name":"isVer3","type":"bool","internalType":"bool"}],"stateMutability":"view"},{"type":"function","name":"setDefaultRankCount","inputs":[],"outputs":[],"stateMutability":"nonpayable"},{"type":"function","name":"setImported","inputs":[{"name":"flg","type":"bool","internalType":"bool"}],"outputs":[],"stateMutability":"nonpayable"},{"type":"function","name":"setStop","inputs":[{"name":"flag","type":"bool","internalType":"bool"}],"outputs":[],"stateMutability":"nonpayable"},{"type":"function","name":"withdraw","inputs":[{"name":"to","type":"address","internalType":"address"},{"name":"amount","type":"uint256","internalType":"uint256"}],"outputs":[],"stateMutability":"payable"}],"bytecode":{"object":"0x6080604052346200002d576200001462000279565b6200001e62000033565b61551c620002b8823961551c90f35b62000039565b60405190565b5f80fd5b5f1b90565b90620000505f19916200003d565b9181191691161790565b90565b90565b90565b6200007c6200007662000082926200005a565b62000060565b6200005d565b90565b90565b90620000a26200009c620000aa9262000063565b62000085565b825462000042565b9055565b90620000bc60ff916200003d565b9181191691161790565b151590565b620000d690620000c6565b90565b90565b90620000f6620000f0620000fe92620000cb565b620000d9565b8254620000ae565b9055565b90565b60018060a01b031690565b62000129620001236200012f926200005a565b62000060565b62000105565b90565b6200013d9062000110565b90565b634e487b7160e01b5f52604160045260245ffd5b5f5260205f2090565b634e487b7160e01b5f52603260045260245ffd5b5490565b620001808162000171565b8210156200019d576200019560019162000154565b910201905f90565b6200015d565b1b90565b91906008620001cb910291620001c460018060a01b0384620001a3565b92620001a3565b9181191691161790565b620001ee620001e8620001f49262000105565b62000060565b62000105565b90565b6200020290620001d5565b90565b6200021090620001f7565b90565b90565b9190620002316200022b6200023a9362000205565b62000213565b908354620001a7565b9055565b90815491680100000000000000008310156200027357826200026a916001620002719501815562000175565b9062000216565b565b62000140565b620002865f601262000088565b620002935f6016620000dc565b620002b5620002a3601162000102565b620002ae5f62000132565b906200023e565b56fe60806040526004361015610018575b361561001657005b005b6100225f356102b1565b80630d43aaf2146102ac5780630e6a8496146102a757806312065fe0146102a2578063175724f61461029d5780631ea3c8b4146102985780632b956ff714610293578063379a423c1461028e5780633a109e92146102895780633e76348914610284578063419cb27b1461027f57806341ffe7c41461027a5780634209fff11461027557806342cc9d571461027057806345145fd71461026b5780634f0f4aa91461026657806354279233146102615780635d4233961461025c57806360af454d1461025757806361ea720814610252578063641657cb1461024d5780636b44e6be146102485780636ed6da9e146102435780638033eded1461023e57806380f85e3314610239578063896c354a146102345780638da5cb5b1461022f5780639380fd5f1461022a578063965c90e314610225578063986b72951461022057806398c6b9e11461021b578063aba8a31d14610216578063abb8c96514610211578063b56e41291461020c578063b805657914610207578063b90306ad14610202578063c6bf7da2146101fd578063cbf0b0c0146101f8578063e4a312d1146101f3578063e89a1160146101ee578063eb95c662146101e95763f3fef3a30361000e57610fd9565b610fa4565b610f6f565b610f0a565b610e9d565b610e68565b610e07565b610dd3565b610d9e565b610d6a565b610d08565b610cd5565b610ca2565b610c6d565b610c3a565b610c05565b610bcf565b610b99565b610b39565b610b04565b610acf565b610a9c565b610a26565b6109f3565b6109bd565b610987565b610921565b6108ae565b6107e9565b6107b4565b610781565b61074c565b610717565b6106e2565b6106ad565b610663565b610611565b610587565b610552565b6104fb565b610469565b60e01c90565b60405190565b5f80fd5b5f80fd5b5f9103126102cf57565b6102c1565b5f1c90565b60018060a01b031690565b6102f06102f5916102d4565b6102d9565b90565b61030290546102e4565b90565b60a01c90565b60ff1690565b61031d61032291610305565b61030b565b90565b61032f9054610311565b90565b60a81c90565b61034461034991610332565b61030b565b90565b6103569054610338565b90565b60b01c90565b61036b61037091610359565b61030b565b90565b61037d905461035f565b90565b60b81c90565b61039261039791610380565b61030b565b90565b6103a49054610386565b90565b600d6103b45f82016102f8565b916103c05f8301610325565b916103cc5f820161034c565b916103e35f6103dc818501610373565b930161039a565b90565b60018060a01b031690565b6103fa906103e6565b90565b610406906103f1565b9052565b151590565b6104189061040a565b9052565b90959492610467946104566104609261044c60809661044260a088019c5f8901906103fd565b602087019061040f565b604085019061040f565b606083019061040f565b019061040f565b565b3461049d576104793660046102c5565b6104996104846103a7565b916104909593956102b7565b9586958661041c565b0390f35b6102bd565b90565b6104ae816104a2565b036104b557565b5f80fd5b905035906104c6826104a5565b565b906020828203126104e1576104de915f016104b9565b90565b6102c1565b91906104f9905f602085019401906103fd565b565b3461052b576105276105166105113660046104c8565b611039565b61051e6102b7565b918291826104e6565b0390f35b6102bd565b610539906104a2565b9052565b9190610550905f60208501940190610530565b565b34610582576105623660046102c5565b61057e61056d61106b565b6105756102b7565b9182918261053d565b0390f35b6102bd565b346105b7576105b36105a261059d3660046104c8565b6110a2565b6105aa6102b7565b9182918261053d565b0390f35b6102bd565b6105c5816103f1565b036105cc57565b5f80fd5b905035906105dd826105bc565b565b919060408382031261060757806105fb610604925f86016105d0565b936020016105d0565b90565b6102c1565b5f0190565b346106405761062a6106243660046105df565b9061170f565b6106326102b7565b8061063c8161060c565b0390f35b6102bd565b9060208282031261065e5761065b915f016105d0565b90565b6102c1565b346106935761068f61067e610679366004610645565b61171b565b6106866102b7565b9182918261053d565b0390f35b6102bd565b91906106ab905f6020850194019061040f565b565b346106dd576106d96106c86106c3366004610645565b611734565b6106d06102b7565b91829182610698565b0390f35b6102bd565b346107125761070e6106fd6106f83660046104c8565b611816565b6107056102b7565b91829182610698565b0390f35b6102bd565b346107475761074361073261072d366004610645565b611838565b61073a6102b7565b91829182610698565b0390f35b6102bd565b3461077c576107786107676107623660046104c8565b61185f565b61076f6102b7565b91829182610698565b0390f35b6102bd565b346107af57610799610794366004610645565b611f30565b6107a16102b7565b806107ab8161060c565b0390f35b6102bd565b346107e4576107e06107cf6107ca366004610645565b611f57565b6107d76102b7565b91829182610698565b0390f35b6102bd565b34610819576108156108046107ff3660046104c8565b611fa1565b61080c6102b7565b9182918261053d565b0390f35b6102bd565b90565b61083561083061083a926103e6565b61081e565b6103e6565b90565b61084690610821565b90565b6108529061083d565b90565b9061085f90610849565b5f5260205260405f2090565b1c90565b61087f906008610884930261086b565b6102d9565b90565b90610892915461086f565b90565b6108ab906108a6600e915f92610855565b610887565b90565b346108de576108da6108c96108c4366004610645565b610895565b6108d16102b7565b918291826104e6565b0390f35b6102bd565b61091861091f9461090e606094989795610904608086019a5f870190610530565b6020850190610530565b604083019061040f565b019061040f565b565b346109555761095161093c6109373660046104c8565b611fc3565b906109489492946102b7565b948594856108e3565b0390f35b6102bd565b9190604083820312610982578061097661097f925f86016105d0565b936020016104b9565b90565b6102c1565b346109b8576109b46109a361099d36600461095a565b90612756565b6109ab6102b7565b9182918261053d565b0390f35b6102bd565b346109ee576109ea6109d96109d33660046105df565b9061276b565b6109e16102b7565b91829182610698565b0390f35b6102bd565b34610a2157610a0b610a06366004610645565b6128d6565b610a136102b7565b80610a1d8161060c565b0390f35b6102bd565b34610a5657610a363660046102c5565b610a52610a41612939565b610a496102b7565b9182918261053d565b0390f35b6102bd565b610a648161040a565b03610a6b57565b5f80fd5b90503590610a7c82610a5b565b565b90602082820312610a9757610a94915f01610a6f565b90565b6102c1565b34610aca57610ab4610aaf366004610a7e565b612a6e565b610abc6102b7565b80610ac68161060c565b0390f35b6102bd565b34610aff57610afb610aea610ae5366004610645565b612a79565b610af26102b7565b91829182610698565b0390f35b6102bd565b34610b3457610b30610b1f610b1a3660046104c8565b612aab565b610b276102b7565b918291826104e6565b0390f35b6102bd565b34610b6757610b51610b4c366004610a7e565b612c02565b610b596102b7565b80610b638161060c565b0390f35b6102bd565b9190604083820312610b945780610b88610b91925f86016104b9565b936020016104b9565b90565b6102c1565b34610bca57610bc6610bb5610baf366004610b6c565b90612c23565b610bbd6102b7565b9182918261053d565b0390f35b6102bd565b34610c0057610bfc610beb610be5366004610b6c565b90612c7c565b610bf36102b7565b918291826104e6565b0390f35b6102bd565b34610c3557610c153660046102c5565b610c31610c20612cbe565b610c286102b7565b918291826104e6565b0390f35b6102bd565b34610c6857610c4a3660046102c5565b610c52612e0a565b610c5a6102b7565b80610c648161060c565b0390f35b6102bd565b34610c9d57610c99610c88610c833660046104c8565b612e45565b610c906102b7565b918291826104e6565b0390f35b6102bd565b34610cd057610cba610cb53660046104c8565b61310c565b610cc26102b7565b80610ccc8161060c565b0390f35b6102bd565b34610d0357610ced610ce83660046104c8565b613366565b610cf56102b7565b80610cff8161060c565b0390f35b6102bd565b34610d3857610d34610d23610d1e3660046104c8565b613371565b610d2b6102b7565b9182918261053d565b0390f35b6102bd565b9190604083820312610d655780610d59610d62925f86016105d0565b93602001610a6f565b90565b6102c1565b34610d9957610d83610d7d366004610d3d565b906137de565b610d8b6102b7565b80610d958161060c565b0390f35b6102bd565b34610dce57610dca610db9610db4366004610645565b6137ea565b610dc16102b7565b9182918261053d565b0390f35b6102bd565b34610e0257610dec610de6366004610b6c565b90613902565b610df46102b7565b80610dfe8161060c565b0390f35b6102bd565b610e1a610e153660046104c8565b613a9d565b610e226102b7565b80610e2c8161060c565b0390f35b90565b610e43906008610e48930261086b565b610e30565b90565b90610e569154610e33565b90565b610e6560125f90610e4b565b90565b34610e9857610e783660046102c5565b610e94610e83610e59565b610e8b6102b7565b9182918261053d565b0390f35b6102bd565b34610ecb57610eb5610eb0366004610645565b613aa8565b610ebd6102b7565b80610ec78161060c565b0390f35b6102bd565b9091606082840312610f0557610f02610eeb845f85016105d0565b93610ef981602086016105d0565b936040016104b9565b90565b6102c1565b34610f3b57610f37610f26610f20366004610ed0565b91613e7a565b610f2e6102b7565b9182918261053d565b0390f35b6102bd565b90610f4a90610849565b5f5260205260405f2090565b610f6c90610f67600f915f92610f40565b610e4b565b90565b34610f9f57610f9b610f8a610f85366004610645565b610f56565b610f926102b7565b9182918261053d565b0390f35b6102bd565b34610fd457610fd0610fbf610fba3660046104c8565b613e90565b610fc76102b7565b9182918261053d565b0390f35b6102bd565b610fed610fe736600461095a565b90614078565b610ff56102b7565b80610fff8161060c565b0390f35b5f90565b61101b611016611020926104a2565b61081e565b6104a2565b90565b9061102d90611007565b5f5260205260405f2090565b60016110526110589261104a611003565b506010611023565b016102f8565b90565b5f90565b6110689061083d565b90565b61107361105b565b5061107d3061105f565b3190565b61108d611092916102d4565b610e30565b90565b61109f9054611081565b90565b60026110bb6110c1926110b361105b565b506010611023565b01611095565b90565b90565b6110db6110d66110e0926110c4565b61081e565b6103e6565b90565b6110ec906110c7565b90565b60209181520190565b5f7f6f776e2e64656661756c742e73656e6465720000000000000000000000000000910152565b61112c60126020926110ef565b611135816110f8565b0190565b61114e9060208101905f81830391015261111f565b90565b1561115857565b6111606102b7565b62461bcd60e51b81528061117660048201611139565b0390fd5b906111a9916111a48261119d6111976111925f6110e3565b6103f1565b916103f1565b1415611151565b6111ab565b565b906111da916111d5816111ce6111c86111c35f6110e3565b6103f1565b916103f1565b1415611151565b6113a2565b565b60018060a01b031690565b6111f36111f8916102d4565b6111dc565b90565b61120590546111e7565b90565b6112119061083d565b90565b601f801991011690565b634e487b7160e01b5f52604160045260245ffd5b9061123c90611214565b810190811067ffffffffffffffff82111761125657604052565b61121e565b60e01b90565b9050519061126e82610a5b565b565b9060208282031261128957611286915f01611261565b90565b6102c1565b6112966102b7565b3d5f823e3d90fd5b5f7f6e65732e696e76616c69642e6973536166650000000000000000000000000000910152565b6112d260126020926110ef565b6112db8161129e565b0190565b6112f49060208101905f8183039101526112c5565b90565b156112fe57565b6113066102b7565b62461bcd60e51b81528061131c600482016112df565b0390fd5b5f7f6e65732e616b652e696e7374616e636500000000000000000000000000000000910152565b61135460106020926110ef565b61135d81611320565b0190565b6113769060208101905f818303910152611347565b90565b1561138057565b6113886102b7565b62461bcd60e51b81528061139e60048201611361565b0390fd5b906113d19160206113bb6113b660026111fb565b611208565b636a276f9d906113c96102b7565b95869261125b565b825281806113e16004820161060c565b03915afa92831561145a5761142a93611401915f9161142c575b506112f7565b61142561142061141b611416600f3390610f40565b611095565b61185f565b611379565b61160a565b565b61144d915060203d8111611453575b6114458183611232565b810190611270565b5f6113fb565b503d61143b565b61128e565b5f7f6e65732e66616b652e63616c6c00000000000000000000000000000000000000910152565b611493600d6020926110ef565b61149c8161145f565b0190565b6114b59060208101905f818303910152611486565b90565b156114bf57565b6114c76102b7565b62461bcd60e51b8152806114dd600482016114a0565b0390fd5b5f7f6e6f7420657869737473206f7220696e76616c69640000000000000000000000910152565b61151560156020926110ef565b61151e816114e1565b0190565b6115379060208101905f818303910152611508565b90565b1561154157565b6115496102b7565b62461bcd60e51b81528061155f60048201611522565b0390fd5b5f1b90565b9061157960018060a01b0391611563565b9181191691161790565b90565b9061159b6115966115a292610849565b611583565b8254611568565b9055565b1b90565b919060086115ca9102916115c460018060a01b03846115a6565b926115a6565b9181191691161790565b91906115ea6115e56115f293610849565b611583565b9083546115aa565b9055565b61160891611602611003565b916115d4565b565b6116eb5f916116e46116f09461166b61162d611628600f3390610f40565b611095565b61166561165f61165a611655600f61164f61164a600e8c90610855565b6102f8565b90610f40565b611095565b6104a2565b916104a2565b146114b8565b61167483611f57565b806116f2575b6116839061153a565b6116ab61169a611695600e8690610855565b6102f8565b6116a6600e8490610855565b611586565b846116de60106116d86116d3600f6116cd6116c8600e8b90610855565b6102f8565b90610f40565b611095565b90611023565b01611586565b600e610855565b6115f6565b565b5061168361170861170283611f57565b1561040a565b905061167a565b906117199161117a565b565b61172d9061172761105b565b50614084565b90565b5f90565b61173c611730565b5061177e602061175461174f60026111fb565b611208565b6319c064299061177385926117676102b7565b9586948593849361125b565b8352600483016104e6565b03915afa9081156117f0575f916117c2575b5090811561179d575b5090565b90506117bb6117b56117af600c6102f8565b926103f1565b916103f1565b145f611799565b6117e3915060203d81116117e9575b6117db8183611232565b810190611270565b5f611790565b503d6117d1565b61128e565b611801611806916102d4565b61030b565b90565b61181390546117f5565b90565b600661182f61183592611827611730565b506010611023565b01611809565b90565b61185761185261185c9261184a611730565b50600f610f40565b611095565b61185f565b90565b600161187861187e92611870611730565b506010611023565b01610325565b90565b5f7f6f776e2e696e76616c69642e6973536166650000000000000000000000000000910152565b6118b560126020926110ef565b6118be81611881565b0190565b6118d79060208101905f8183039101526118a8565b90565b156118e157565b6118e96102b7565b62461bcd60e51b8152806118ff600482016118c2565b0390fd5b60018060a01b031690565b61191a61191f916102d4565b611903565b90565b61192c905461190e565b90565b6119389061083d565b90565b5f7f6f776d2e66616b652e2064656c65676174650000000000000000000000000000910152565b61196f60126020926110ef565b6119788161193b565b0190565b6119919060208101905f818303910152611962565b90565b1561199b57565b6119a36102b7565b62461bcd60e51b8152806119b96004820161197c565b0390fd5b6119ea60206119d46119cf60026111fb565b611208565b636a276f9d906119e26102b7565b93849261125b565b825281806119fa6004820161060c565b03915afa8015611b1c57611a15915f91611aee575b506118da565b611a27611a226001611922565b61192f565b611a39611a33336103f1565b916103f1565b14908115611a55575b611a4e611a5392611994565b611df1565b565b611a9891506020611a6e611a6960026111fb565b611208565b637df73e2790611a8d3392611a816102b7565b9687948593849361125b565b8352600483016104e6565b03915afa918215611ae957611a5392611a4e915f91611abb575b50925050611a42565b611adc915060203d8111611ae2575b611ad48183611232565b810190611270565b5f611ab2565b503d611aca565b61128e565b611b0f915060203d8111611b15575b611b078183611232565b810190611270565b5f611a0f565b503d611afd565b61128e565b90505190611b2e826104a5565b565b90602082820312611b4957611b46915f01611b21565b90565b6102c1565b90611b61611b5a6102b7565b9283611232565b565b611b6d60a0611b4e565b90565b5f90565b5f90565b611b80611b63565b9060208080808086611b90611b70565b815201611b9b611b74565b815201611ba6611b74565b815201611bb1611b74565b815201611bbc611b74565b81525050565b611bca611b78565b90565b90611bd79061040a565b9052565b90565b611bf2611bed611bf792611bdb565b61081e565b6104a2565b90565b90565b611c11611c0c611c1692611bfa565b61081e565b6104a2565b90565b90565b611c30611c2b611c3592611c19565b61081e565b6104a2565b90565b90611c42906103f1565b9052565b611c5090516103f1565b90565b611c5d905161040a565b90565b60a01b90565b90611c7560ff60a01b91611c60565b9181191691161790565b611c889061040a565b90565b90565b90611ca3611c9e611caa92611c7f565b611c8b565b8254611c66565b9055565b60a81b90565b90611cc360ff60a81b91611cae565b9181191691161790565b90611ce2611cdd611ce992611c7f565b611c8b565b8254611cb4565b9055565b60b01b90565b90611d0260ff60b01b91611ced565b9181191691161790565b90611d21611d1c611d2892611c7f565b611c8b565b8254611cf3565b9055565b60b81b90565b90611d4160ff60b81b91611d2c565b9181191691161790565b90611d60611d5b611d6792611c7f565b611c8b565b8254611d32565b9055565b90611ddd60805f611de394611d8d828201611d87848801611c46565b90611586565b611da5828201611d9f60208801611c53565b90611c8e565b611dbd828201611db760408801611c53565b90611ccd565b611dd5828201611dcf60608801611c53565b90611d0c565b019201611c53565b90611d4b565b565b90611def91611d6b565b565b611e33906020611e09611e0460026111fb565b611208565b631d84be4490611e283392611e1c6102b7565b9687948593849361125b565b8352600483016104e6565b03915afa918215611f2b57611ec292611ebb915f91611efd575b5091611e57611bc2565b92611e66600160208601611bcd565b80611e7a611e746001611bde565b916104a2565b14611eea575b80611e94611e8e6002611bfd565b916104a2565b14611ed7575b611ead611ea76003611c1c565b916104a2565b14611ec4575b5f8301611c38565b600d611de5565b565b611ed2600160808501611bcd565b611eb3565b611ee5600160608601611bcd565b611e9a565b611ef8600160408601611bcd565b611e80565b611f1e915060203d8111611f24575b611f168183611232565b810190611b30565b5f611e4d565b503d611f0c565b61128e565b611f39906119bd565b565b611f4f611f4a611f54926110c4565b61081e565b6104a2565b90565b611f82611f8791611f66611730565b50611f7c611f77600f92600e610855565b6102f8565b90610f40565b611095565b611f99611f935f611f3b565b916104a2565b1190565b5490565b6003611fba611fc092611fb261105b565b506010611023565b01611f9d565b90565b611fcb61105b565b50611fd461105b565b50611fdd611730565b50611fe6611730565b50611ffe6002611ff860108490611023565b01611095565b612015600561200f60108590611023565b01611095565b92612043600661203d612035600161202f60108990611023565b01610325565b956010611023565b01611809565b9193929190565b5f7f496e76616c696420536166654f776e6572000000000000000000000000000000910152565b61207e60116020926110ef565b6120878161204a565b0190565b6120a09060208101905f818303910152612071565b90565b156120aa57565b6120b26102b7565b62461bcd60e51b8152806120c86004820161208b565b0390fd5b906120fc929160206120e66120e160026111fb565b611208565b636a276f9d906120f46102b7565b96879261125b565b8252818061210c6004820161060c565b03915afa9384156121f35761216a9461212c915f916121c5575b506118da565b602061214061213b60026111fb565b611208565b6319c064299061215f33926121536102b7565b9889948593849361125b565b8352600483016104e6565b03915afa9384156121c05761218f9461218a915f91612192575b506120a3565b61233c565b90565b6121b3915060203d81116121b9575b6121ab8183611232565b810190611270565b5f612184565b503d6121a1565b61128e565b6121e6915060203d81116121ec575b6121de8183611232565b810190611270565b5f612126565b503d6121d4565b61128e565b67ffffffffffffffff811161221657612212602091611214565b0190565b61121e565b9061222d612228836121f8565b611b4e565b918252565b90813b5f61223f8261221b565b9360208501903c565b60200190565b5190565b60018060a01b031690565b61226961226e916102d4565b612252565b90565b61227b905461225d565b90565b6122879061083d565b90565b90505190612297826105bc565b565b906020828203126122b2576122af915f0161228a565b90565b6102c1565b90565b5f7f6e65732e77726f6e672e68617368000000000000000000000000000000000000910152565b6122ee600e6020926110ef565b6122f7816122ba565b0190565b6123109060208101905f8183039101526122e1565b90565b1561231a57565b6123226102b7565b62461bcd60e51b815280612338600482016122fb565b0390fd5b9061236c9291602061235661235160026111fb565b611208565b636a276f9d906123646102b7565b96879261125b565b8252818061237c6004820161060c565b03915afa9384156124a7576123e19461239c915f91612479575b506112f7565b6123a533612232565b6123b76123b18261224e565b91612248565b2060206123cb6123c65f612271565b61227e565b63e61dfd58906123d96102b7565b97889261125b565b825281806123f16004820161060c565b03915afa9081156124745761243861243261241a61243e94612443995f91612446575b50612232565b61242c6124268261224e565b91612248565b206122b7565b916122b7565b14612313565b612651565b90565b612467915060203d811161246d575b61245f8183611232565b810190612299565b5f612414565b503d612455565b61128e565b61249a915060203d81116124a0575b6124928183611232565b810190611270565b5f612396565b503d612488565b61128e565b5f7f6e65732e616c72656164792e6578697374730000000000000000000000000000910152565b6124e060126020926110ef565b6124e9816124ac565b0190565b6125029060208101905f8183039101526124d3565b90565b1561250c57565b6125146102b7565b62461bcd60e51b81528061252a600482016124ed565b0390fd5b5490565b9061253e5f1991611563565b9181191691161790565b90565b9061256061255b61256792611007565b612548565b8254612532565b9055565b90565b5f5260205f2090565b634e487b7160e01b5f52603260045260245ffd5b5490565b6125988161258b565b8210156125b2576125aa60019161256e565b910201905f90565b612577565b90815491680100000000000000008310156125e757826125df9160016125e59501815561258f565b906115d4565b565b61121e565b906125f690611007565b5f5260205260405f2090565b9061260c90611f3b565b5f5260205260405f2090565b634e487b7160e01b5f52601160045260245ffd5b61263b612641919392936104a2565b926104a2565b820180921161264c57565b612618565b61273f92916126b7915061267561267061266a83611f57565b1561040a565b612505565b61268a33612685600e8490610855565b611586565b6126a8612697601161252e565b6126a3600f3390610f40565b61254b565b6126b2601161256b565b6125b7565b6126f26126c46001611bde565b6126ec6126dd6126d6601586906125ec565b5f90612602565b916126e783611095565b61262c565b9061254b565b6127185f61271361270d612708600f3390610f40565b611095565b91611f3b565b6144c8565b6005612739601061273361272e600f3390610f40565b611095565b90611023565b0161254b565b61275361274e600f3390610f40565b611095565b90565b906127689161276361105b565b6120cc565b90565b612773611730565b5061277d81611f57565b90816127a0575b509081612790575b5090565b61279a9150612a79565b5f61278c565b6127c991506127c4906127be6127b9600f92600e610855565b6102f8565b90610f40565b611095565b6127ee6127e86127e36127de600f8690610f40565b611095565b6104a2565b916104a2565b145f612784565b5f7f6f776e2e686578626173652e6661696c65640000000000000000000000000000910152565b61282960126020926110ef565b612832816127f5565b0190565b61284b9060208101905f81830391015261281c565b90565b1561285557565b61285d6102b7565b62461bcd60e51b81528061287360048201612836565b0390fd5b61288090610821565b90565b61288c90612877565b90565b61289890610821565b90565b6128a49061288f565b90565b6128b09061288f565b90565b90565b906128cb6128c66128d2926128a7565b6128b3565b8254611568565b9055565b61292961292461292f926129146128f46128ef5f612271565b61227e565b61290e6129086129035f6110e3565b6103f1565b916103f1565b1461284e565b61291f32600c611586565b612883565b61289b565b5f6128b6565b612937614740565b565b61294161105b565b5061294c601161252e565b90565b61297d90602061296761296260026111fb565b611208565b636a276f9d906129756102b7565b94859261125b565b8252818061298d6004820161060c565b03915afa918215612a06576129d6926129ad915f916129d8575b506112f7565b6129d16129cc6129c76129c2600f3390610f40565b611095565b61185f565b611379565b612a41565b565b6129f9915060203d81116129ff575b6129f18183611232565b810190611270565b5f6129a7565b503d6129e7565b61128e565b90612a1760ff91611563565b9181191691161790565b90612a36612a31612a3d92611c7f565b611c8b565b8254612a0b565b9055565b612a6c906006612a666010612a60612a5b600f3390610f40565b611095565b90611023565b01612a21565b565b612a779061294f565b565b612a90612a9591612a88611730565b50600f610f40565b611095565b612aa7612aa15f611f3b565b916104a2565b1190565b5f612ac3612ac992612abb611003565b506010611023565b016102f8565b90565b612afa906020612ae4612adf60026111fb565b611208565b636a276f9d90612af26102b7565b94859261125b565b82528180612b0a6004820161060c565b03915afa918215612bf057612b6892612b2a915f91612bc2575b506118da565b6020612b3e612b3960026111fb565b611208565b6319c0642990612b5d3392612b516102b7565b9687948593849361125b565b8352600483016104e6565b03915afa918215612bbd57612b8d92612b88915f91612b8f575b506120a3565b612bf5565b565b612bb0915060203d8111612bb6575b612ba88183611232565b810190611270565b5f612b82565b503d612b9e565b61128e565b612be3915060203d8111612be9575b612bdb8183611232565b810190611270565b5f612b24565b503d612bd1565b61128e565b612c00906016612a21565b565b612c0b90612acc565b565b90612c1790611007565b5f5260205260405f2090565b612c4891612c3e612c4392612c3661105b565b5060156125ec565b612c0d565b611095565b90565b5f5260205f2090565b612c5d81611f9d565b821015612c7757612c6f600191612c4b565b910201905f90565b612577565b612cb55f91612caf612ca9612cbb95612c93611003565b506003612ca36010956010611023565b01612c54565b90610e4b565b90611023565b016102f8565b90565b612cc6611003565b50612cd1600c6102f8565b90565b612d016020612ceb612ce660026111fb565b611208565b636a276f9d90612cf96102b7565b93849261125b565b82528180612d116004820161060c565b03915afa8015612df357612d2c915f91612dc5575b506118da565b612d6d6020612d43612d3e60026111fb565b611208565b6319c0642990612d623392612d566102b7565b9586948593849361125b565b8352600483016104e6565b03915afa8015612dc057612d88915f91612d92575b506120a3565b612d90612df8565b565b612db3915060203d8111612db9575b612dab8183611232565b810190611270565b5f612d82565b503d612da1565b61128e565b612de6915060203d8111612dec575b612dde8183611232565b810190611270565b5f612d26565b503d612dd4565b61128e565b612e08612e03614daa565b614f74565b565b612e12612cd4565b565b5f5260205f2090565b612e268161252e565b821015612e4057612e38600191612e14565b910201905f90565b612577565b612e5c612e6291612e54611003565b506011612e1d565b90610887565b90565b612e93906020612e7d612e7860026111fb565b611208565b636a276f9d90612e8b6102b7565b94859261125b565b82528180612ea36004820161060c565b03915afa918215612f1c57612eec92612ec3915f91612eee575b506112f7565b612ee7612ee2612edd612ed8600f3390610f40565b611095565b61185f565b611379565b612fbf565b565b612f0f915060203d8111612f15575b612f078183611232565b810190611270565b5f612ebd565b503d612efd565b61128e565b5f7f6e65732e73746f70706564000000000000000000000000000000000000000000910152565b612f55600b6020926110ef565b612f5e81612f21565b0190565b612f779060208101905f818303910152612f48565b90565b15612f8157565b612f896102b7565b62461bcd60e51b815280612f9f60048201612f62565b0390fd5b612fac906104a2565b5f198114612fba5760010190565b612618565b61309190612ff6612ff06006612fea6010612fe4612fdf600f3390610f40565b611095565b90611023565b01611809565b1561040a565b80156130f7575b61300690612f7a565b61300f81615276565b6130396002613033601061302d613028600f3390610f40565b611095565b90611023565b01611095565b61304b6130455f611f3b565b916104a2565b11806130b4575b613093575b61308b600861307b6010613075613070600f3390610f40565b611095565b90611023565b019161308683611095565b61262c565b9061254b565b565b6130af6130a86130a36012611095565b612fa3565b601261254b565b613057565b506130df60086130d960106130d36130ce600f3390610f40565b611095565b90611023565b01611095565b6130f16130eb5f611f3b565b916104a2565b14613052565b506130066131056016611809565b9050612ffd565b61311590612e65565b565b61314590602061312f61312a60026111fb565b611208565b636a276f9d9061313d6102b7565b94859261125b565b825281806131556004820161060c565b03915afa9182156131ce5761319e92613175915f916131a0575b506112f7565b61319961319461318f61318a600f3390610f40565b611095565b61185f565b611379565b6131d3565b565b6131c1915060203d81116131c7575b6131b98183611232565b810190611270565b5f61316f565b503d6131af565b61128e565b6132b59061320a61320460066131fe60106131f86131f3600f3390610f40565b611095565b90611023565b01611809565b1561040a565b8015613351575b61321a90612f7a565b61322a613225614daa565b614f74565b613233816152fe565b61325d6002613257601061325161324c600f3390610f40565b611095565b90611023565b01611095565b61326f6132695f611f3b565b916104a2565b118061330e575b6132b7575b6132af600761329f6010613299613294600f3390610f40565b611095565b90611023565b01916132aa83611095565b61262c565b9061254b565b565b61330960046132f160106132eb60026132e560106132df6132da600f3390610f40565b611095565b90611023565b01611095565b90611023565b016133036132fe82611095565b612fa3565b9061254b565b61327b565b506133396007613333601061332d613328600f3390610f40565b611095565b90611023565b01611095565b61334b6133455f611f3b565b916104a2565b14613276565b5061321a61335f6016611809565b9050613211565b61336f90613117565b565b600461338a6133909261338261105b565b506010611023565b01611095565b90565b906133c160206133ab6133a660026111fb565b611208565b636a276f9d906133b96102b7565b93849261125b565b825281806133d16004820161060c565b03915afa80156134f3576133ec915f916134c5575b506118da565b6133fe6133f96001611922565b61192f565b61341061340a336103f1565b916103f1565b1491821561342c575b61342561342a93611994565b6134f8565b565b61346f9250602061344561344060026111fb565b611208565b637df73e279061346433926134586102b7565b9788948593849361125b565b8352600483016104e6565b03915afa9283156134c05761342a93613425915f91613492575b50935050613419565b6134b3915060203d81116134b9575b6134ab8183611232565b810190611270565b5f613489565b503d6134a1565b61128e565b6134e6915060203d81116134ec575b6134de8183611232565b810190611270565b5f6133e6565b503d6134d4565b61128e565b905f146137c657613540602061351661351160026111fb565b611208565b631d84be449061353533926135296102b7565b9586948593849361125b565b8352600483016104e6565b03915afa9081156137c1575f91613793575b5061355f5f600d01610325565b80613778575b80613753575b613740575b61357c5f600d01610325565b80613725575b80613700575b6136ed575b6135995f600d01610325565b90816136d1575b50806136ac575b613699575b6135b55f611f3b565b6135c15f600d0161034c565b61368b575b6135d25f600d01610373565b61367d575b6135e35f600d0161039a565b61366f575b6135f45f600d01610325565b9081613653575b508061362e575b61360b575b505b565b61361690600c611586565b613628613621611bc2565b600d611de5565b5f613607565b5061363b5f600d016102f8565b61364d613647836103f1565b916103f1565b14613602565b90506136686136626002611bfd565b916104a2565b145f6135fb565b61367890612fa3565b6135e8565b61368690612fa3565b6135d7565b61369490612fa3565b6135c6565b6136a760015f600d01611d4b565b6135ac565b506136b95f600d016102f8565b6136cb6136c5836103f1565b916103f1565b146135a7565b90506136e66136e06003611c1c565b916104a2565b145f6135a0565b6136fb60015f600d01611d0c565b61358d565b5061370d5f600d016102f8565b61371f613719846103f1565b916103f1565b14613588565b508061373a6137346002611bfd565b916104a2565b14613582565b61374e60015f600d01611ccd565b613570565b506137605f600d016102f8565b61377261376c846103f1565b916103f1565b1461356b565b508061378d6137876001611bde565b916104a2565b14613565565b6137b4915060203d81116137ba575b6137ac8183611232565b810190611b30565b5f613552565b503d6137a2565b61128e565b506137d96137d2611bc2565b600d611de5565b613609565b906137e891613393565b565b613801613806916137f961105b565b50600f610f40565b611095565b90565b9061383891602061382261381d60026111fb565b611208565b636a276f9d906138306102b7565b95869261125b565b825281806138486004820161060c565b03915afa9283156138c15761389193613868915f91613893575b506112f7565b61388c61388761388261387d600f3390610f40565b611095565b61185f565b611379565b6138c6565b565b6138b4915060203d81116138ba575b6138ac8183611232565b810190611270565b5f613862565b503d6138a2565b61128e565b906138fa6138eb613900936138e66138de6001611bde565b9460156125ec565b612c0d565b916138f583611095565b61262c565b9061254b565b565b9061390c91613809565b565b5f7f6f776e2e6e6f6e617574682e44414f0000000000000000000000000000000000910152565b613942600f6020926110ef565b61394b8161390e565b0190565b6139649060208101905f818303910152613935565b90565b1561396e57565b6139766102b7565b62461bcd60e51b81528061398c6004820161394f565b0390fd5b6139be9060206139a86139a360026111fb565b611208565b636a276f9d906139b66102b7565b94859261125b565b825281806139ce6004820161060c565b03915afa918215613a5057613a20926139ee915f91613a22575b506118da565b613a1b613a036139fe6001611922565b61192f565b613a15613a0f336103f1565b916103f1565b14613967565b613a61565b565b613a43915060203d8111613a49575b613a3b8183611232565b810190611270565b5f6139e8565b503d613a31565b61128e565b613a5e9061083d565b90565b5f80808093613a7f613a7a613a75846110e3565b612883565b613a55565b828215613a94575bf115613a8f57565b61128e565b506108fc613a87565b613aa690613990565b565b613ab1906154db565b565b90613ae49392916020613ace613ac960026111fb565b611208565b636a276f9d90613adc6102b7565b97889261125b565b82528180613af46004820161060c565b03915afa948515613c1f57613b5995613b14915f91613bf1575b506112f7565b613b1d33612232565b613b2f613b298261224e565b91612248565b206020613b43613b3e5f612271565b61227e565b63e61dfd5890613b516102b7565b98899261125b565b82528180613b696004820161060c565b03915afa908115613bec57613bb0613baa613b92613bb694613bbb9a5f91613bbe575b50612232565b613ba4613b9e8261224e565b91612248565b206122b7565b916122b7565b14612313565b613d28565b90565b613bdf915060203d8111613be5575b613bd78183611232565b810190612299565b5f613b8c565b503d613bcd565b61128e565b613c12915060203d8111613c18575b613c0a8183611232565b810190611270565b5f613b0e565b503d613c00565b61128e565b5f7f6e65732e706172656e742e6e6f74657869737473000000000000000000000000910152565b613c5860146020926110ef565b613c6181613c24565b0190565b613c7a9060208101905f818303910152613c4b565b90565b15613c8457565b613c8c6102b7565b62461bcd60e51b815280613ca260048201613c65565b0390fd5b5f7f6e65732e6c6f772e627573696e65737300000000000000000000000000000000910152565b613cda60106020926110ef565b613ce381613ca6565b0190565b613cfc9060208101905f818303910152613ccd565b90565b15613d0657565b613d0e6102b7565b62461bcd60e51b815280613d2460048201613ce7565b0390fd5b91613dde613d3e613e3c93613e63969550614084565b91613d59613d54613d4e83611f57565b1561040a565b612505565b613d6a613d658461185f565b613c7d565b613d9c613d846007613d7e60108790611023565b01611095565b613d96613d905f611f3b565b916104a2565b11613cff565b613db133613dac600e8490610855565b611586565b613dcf613dbe601161252e565b613dca600f3390610f40565b61254b565b613dd9601161256b565b6125b7565b613de783614f74565b613e22613df46001611bde565b613e1c613e0d613e06601588906125ec565b5f90612602565b91613e1783611095565b61262c565b9061254b565b613e36613e31600f3390610f40565b611095565b906144c8565b6005613e5d6010613e57613e52600f3390610f40565b611095565b90611023565b0161254b565b613e77613e72600f3390610f40565b611095565b90565b90613e8d9291613e8861105b565b613ab3565b90565b613ea7613eac91613e9f61105b565b506013612c0d565b611095565b90565b90613ede91613ed981613ed2613ecc613ec75f6110e3565b6103f1565b916103f1565b1415611151565b613ee0565b565b90613f0f916020613ef9613ef460026111fb565b611208565b636a276f9d90613f076102b7565b95869261125b565b82528180613f1f6004820161060c565b03915afa928315613fa157613f7193613f3f915f91613f73575b506118da565b613f6c613f54613f4f6001611922565b61192f565b613f66613f60336103f1565b916103f1565b14613967565b614028565b565b613f94915060203d8111613f9a575b613f8c8183611232565b810190611270565b5f613f39565b503d613f82565b61128e565b5f7f6f776e2e696e76616c69642e616d6f756e740000000000000000000000000000910152565b613fda60126020926110ef565b613fe381613fa6565b0190565b613ffc9060208101905f818303910152613fcd565b90565b1561400657565b61400e6102b7565b62461bcd60e51b81528061402460048201613fe7565b0390fd5b5f80809361405a61405583956140508461404a61404488611f3b565b916104a2565b11613fff565b612883565b613a55565b82821561406f575bf11561406a57565b61128e565b506108fc614062565b9061408291613eaf565b565b6140af6140b49161409361105b565b506140a96140a4600f92600e610855565b6102f8565b90610f40565b611095565b90565b6140c2610140611b4e565b90565b5f90565b606090565b6140d66140b7565b9060208080808080808080808b6140eb611b70565b8152016140f6611b70565b815201614101611b74565b81520161410c6140c5565b8152016141176140c9565b8152016141226140c5565b81520161412d6140c5565b815201614138611b74565b8152016141436140c5565b81520161414e6140c5565b81525050565b61415c6140ce565b90565b90614169906104a2565b9052565b90565b5f5260205f2090565b5490565b61418681614179565b8210156141a057614198600191614170565b910201905f90565b612577565b919060086141c09102916141ba5f19846115a6565b926115a6565b9181191691161790565b91906141e06141db6141e893611007565b612548565b9083546141a5565b9055565b908154916801000000000000000083101561421c578261421491600161421a9501815561417d565b906141ca565b565b61121e565b61422b90516104a2565b90565b5190565b600190818003010490565b61424f9161424961105b565b916141ca565b565b5b81811061425d575050565b8061426a5f60019361423d565b01614252565b909182811061427f575b505050565b61429d6142976142916142a895614232565b92614232565b92612c4b565b918201910190614251565b5f808061427a565b906801000000000000000081116142d957816142ce6142d793611f9d565b90828155614270565b565b61121e565b5190565b60200190565b6142f1826142de565b9167ffffffffffffffff83116143545761431f61431960019261431486866142b0565b6142e2565b92612c4b565b9204915f5b8381106143315750505050565b600190602061434761434286614221565b612548565b9401938184015501614324565b61121e565b90614363916142e8565b565b9061445a6101206008614460946143895f82016143835f8801611c46565b90611586565b6143a26001820161439c60208801611c46565b90611586565b6143bb600182016143b560408801611c53565b90611c8e565b6143d4600282016143ce60608801614221565b9061254b565b6143ed600382016143e76080880161422e565b90614359565b6144066004820161440060a08801614221565b9061254b565b61441f6005820161441960c08801614221565b9061254b565b6144386006820161443260e08801611c53565b90612a21565b6144526007820161444c6101008801614221565b9061254b565b019201614221565b9061254b565b565b9061446c91614365565b565b60ff1690565b61448861448361448d926110c4565b61081e565b61446e565b90565b6144a461449f6144a992611bdb565b61081e565b61446e565b90565b6144c06144bb6144c59261446e565b61081e565b6104a2565b90565b9061459f9161451d6144d8614154565b6144e5836060830161415f565b6144f3600160408301611bcd565b826145066145005f611f3b565b916104a2565b036145b7575b61451860108590611023565b614462565b61454861453561452f60118590612e1d565b90610887565b5f61454260108690611023565b01611586565b61456033600161455a60108690611023565b01611586565b61457261456c5f611f3b565b916104a2565b145f146145a157600761459961459161458b6001614490565b5b6144ac565b926010611023565b0161254b565b565b60076145996145916145b25f614474565b61458c565b6145d86145d160036145cb60108790611023565b0161416d565b85906141ec565b61450c565b6145e690610821565b90565b6145f2906145dd565b90565b6145fe906145dd565b90565b90565b90614619614614614620926145f5565b614601565b8254611568565b9055565b61462d90610821565b90565b61463990614624565b90565b61464590614624565b90565b90565b9061466061465b6146679261463c565b614648565b8254611568565b9055565b61467490610821565b90565b6146809061466b565b90565b61468c9061466b565b90565b90565b906146a76146a26146ae92614683565b61468f565b8254611568565b9055565b6146bb90610821565b90565b6146c7906146b2565b90565b6146d3906146b2565b90565b90565b906146ee6146e96146f5926146ca565b6146d6565b8254611568565b9055565b61470290610821565b90565b61470e906146f9565b90565b61471a906146f9565b90565b90565b9061473561473061473c92614711565b61471d565b8254611568565b9055565b61475161474c5f612271565b61227e565b61476b6147656147605f6110e3565b6103f1565b916103f1565b14614da85761479c60206147866147815f612271565b61227e565b634162169f906147946102b7565b93849261125b565b825281806147ac6004820161060c565b03915afa908115614da3576147d3916147cc915f91614d75575b506145e9565b6001614604565b6147ff60206147e96147e45f612271565b61227e565b63b57dbdc6906147f76102b7565b93849261125b565b8252818061480f6004820161060c565b03915afa908115614d70576148369161482f915f91614d42575b50614630565b600261464b565b614862602061484c6148475f612271565b61227e565b63cfbffe539061485a6102b7565b93849261125b565b825281806148726004820161060c565b03915afa908115614d3d5761489991614892915f91614d0f575b50614677565b6003614692565b6148c560206148af6148aa5f612271565b61227e565b63ab6e844f906148bd6102b7565b93849261125b565b825281806148d56004820161060c565b03915afa908115614d0a576148fc916148f5915f91614cdc575b506146be565b60046146d9565b614928602061491261490d5f612271565b61227e565b639a7c4077906149206102b7565b93849261125b565b825281806149386004820161060c565b03915afa908115614cd75761495f91614958915f91614ca9575b50614705565b6005614720565b61498b60206149756149705f612271565b61227e565b63aa0ddc16906149836102b7565b93849261125b565b8252818061499b6004820161060c565b03915afa8015614ca4576149b8915f91614c76575b506007611586565b6149e460206149ce6149c95f612271565b61227e565b636b4aefc6906149dc6102b7565b93849261125b565b825281806149f46004820161060c565b03915afa8015614c7157614a11915f91614c43575b506008611586565b614a3d6020614a27614a225f612271565b61227e565b6324768d9190614a356102b7565b93849261125b565b82528180614a4d6004820161060c565b03915afa8015614c3e57614a6a915f91614c10575b50600b611586565b614a966020614a80614a7b5f612271565b61227e565b636402742790614a8e6102b7565b93849261125b565b82528180614aa66004820161060c565b03915afa8015614c0b57614ac3915f91614bdd575b506009611586565b614aef6020614ad9614ad45f612271565b61227e565b6330125cf590614ae76102b7565b93849261125b565b82528180614aff6004820161060c565b03915afa8015614bd857614b1c915f91614baa575b50600a611586565b614b486020614b32614b2d5f612271565b61227e565b63d3d1b09690614b406102b7565b93849261125b565b82528180614b586004820161060c565b03915afa8015614ba557614b75915f91614b77575b506006611586565b565b614b98915060203d8111614b9e575b614b908183611232565b810190612299565b5f614b6d565b503d614b86565b61128e565b614bcb915060203d8111614bd1575b614bc38183611232565b810190612299565b5f614b14565b503d614bb9565b61128e565b614bfe915060203d8111614c04575b614bf68183611232565b810190612299565b5f614abb565b503d614bec565b61128e565b614c31915060203d8111614c37575b614c298183611232565b810190612299565b5f614a62565b503d614c1f565b61128e565b614c64915060203d8111614c6a575b614c5c8183611232565b810190612299565b5f614a09565b503d614c52565b61128e565b614c97915060203d8111614c9d575b614c8f8183611232565b810190612299565b5f6149b0565b503d614c85565b61128e565b614cca915060203d8111614cd0575b614cc28183611232565b810190612299565b5f614952565b503d614cb8565b61128e565b614cfd915060203d8111614d03575b614cf58183611232565b810190612299565b5f6148ef565b503d614ceb565b61128e565b614d30915060203d8111614d36575b614d288183611232565b810190612299565b5f61488c565b503d614d1e565b61128e565b614d63915060203d8111614d69575b614d5b8183611232565b810190612299565b5f614829565b503d614d51565b61128e565b614d96915060203d8111614d9c575b614d8e8183611232565b810190612299565b5f6147c6565b503d614d84565b61128e565b565b614db261105b565b50614de06020614dca614dc560026111fb565b611208565b63262a9dff90614dd86102b7565b93849261125b565b82528180614df06004820161060c565b03915afa908115614e34575f91614e06575b5090565b614e27915060203d8111614e2d575b614e1f8183611232565b810190611b30565b5f614e02565b503d614e15565b61128e565b614e48614e4e919392936104a2565b926104a2565b8203918211614e5957565b612618565b90614e6890611bde565b5f5260205260405f2090565b90614e7e90611bfd565b5f5260205260405f2090565b90614e9490611c1c565b5f5260205260405f2090565b90565b614eb7614eb2614ebc92614ea0565b61081e565b6104a2565b90565b90614ec990614ea3565b5f5260205260405f2090565b90565b614eec614ee7614ef192614ed5565b61081e565b6104a2565b90565b90614efe90614ed8565b5f5260205260405f2090565b90565b614f21614f1c614f2692614f0a565b61081e565b6104a2565b90565b90614f3390614f0d565b5f5260205260405f2090565b90565b614f56614f51614f5b92614f3f565b61081e565b6104a2565b90565b90614f6890614f42565b5f5260205260405f2090565b614f92614f8d614f86601584906125ec565b5f90612602565b611095565b614fa4614f9e5f611f3b565b916104a2565b148061525b575b614fb3575b50565b614fcf614fca82614fc46001611bde565b90614e39565b614f74565b61525590615022615007615002614ffb6015614ff586614fef6001611bde565b90614e39565b906125ec565b5f90612602565b611095565b61501d615016601585906125ec565b5f90612602565b61254b565b61507361505761505261504a60156150448661503e6001611bde565b90614e39565b906125ec565b600190614e5e565b611095565b61506e615066601585906125ec565b600190614e5e565b61254b565b6150c46150a86150a361509b60156150958661508f6001611bde565b90614e39565b906125ec565b600290614e74565b611095565b6150bf6150b7601585906125ec565b600290614e74565b61254b565b6151156150f96150f46150ec60156150e6866150e06001611bde565b90614e39565b906125ec565b600390614e8a565b611095565b615110615108601585906125ec565b600390614e8a565b61254b565b61516661514a61514561513d6015615137866151316001611bde565b90614e39565b906125ec565b600490614ebf565b611095565b615161615159601585906125ec565b600490614ebf565b61254b565b6151b761519b61519661518e6015615188866151826001611bde565b90614e39565b906125ec565b600590614ef4565b611095565b6151b26151aa601585906125ec565b600590614ef4565b61254b565b6152086151ec6151e76151df60156151d9866151d36001611bde565b90614e39565b906125ec565b600690614f29565b611095565b6152036151fb601585906125ec565b600690614f29565b61254b565b61525061524861524061523b615233601561522d876152276001611bde565b90614e39565b906125ec565b600790614f5e565b611095565b9260156125ec565b600790614f5e565b61254b565b5f614fb0565b508061527061526a6001611bde565b916104a2565b11614fab565b6152806016611809565b5f146152ba576152a66152b7916152a161529c60145f90612602565b611095565b61262c565b6152b260145f90612602565b61254b565b5b565b6152e16152f9916152dc6152d760146152d1614daa565b90612c0d565b611095565b61262c565b6152f460146152ee614daa565b90612c0d565b61254b565b6152b8565b6153086016611809565b5f146153425761532e61533f9161532961532460135f90612602565b611095565b61262c565b61533a60135f90612602565b61254b565b5b565b6153696153819161536461535f6013615359614daa565b90612c0d565b611095565b61262c565b61537c6013615376614daa565b90612c0d565b61254b565b615340565b506153b4602061539e61539960026111fb565b611208565b636a276f9d906153ac6102b7565b93849261125b565b825281806153c46004820161060c565b03915afa80156154d6576153df915f916154a8575b506118da565b61542060206153f66153f160026111fb565b611208565b6319c064299061541533926154096102b7565b9586948593849361125b565b8352600483016104e6565b03915afa9081156154a3575f91615475575b508015615445575b61544390613967565b565b5061544361545b6154566001611922565b61192f565b61546d615467336103f1565b916103f1565b14905061543a565b615496915060203d811161549c575b61548e8183611232565b810190611270565b5f615432565b503d615484565b61128e565b6154c9915060203d81116154cf575b6154c18183611232565b810190611270565b5f6153d9565b503d6154b7565b61128e565b6154e490615386565b56fea26469706673582212204baae9f314dd1f5fb9710533d1508db003aa6ed8ff9c2bcede6ee3eccb83532164736f6c63430008180033","linkReferences":{}},"methodIdentifiers":{"Burn(uint256)":"b90306ad","InstToId(address)":"e89a1160","UserToInst(address)":"45145fd7","_addBusiness(uint256)":"98c6b9e1","_addBusinessPrime(uint256)":"986b7295","_nested(address,address,uint256)":"e4a312d1","_nestedRoot(address,uint256)":"54279233","_resetuser(address,address)":"1ea3c8b4","_setOwner(address,bool)":"abb8c965","_setReq(address)":"41ffe7c4","_setrankCount(uint256,uint256)":"b8056579","activePrime()":"c6bf7da2","getBalance()":"12065fe0","getNode(uint256)":"4f0f4aa9","getNodeActiveDirectsCount(uint256)":"aba8a31d","getNodeById(uint256)":"0e6a8496","getNodeByIndex(uint256)":"965c90e3","getNodeChild(uint256,uint256)":"896c354a","getNodeDirectsCount(uint256)":"42cc9d57","getNodeId(address)":"b56e4129","getNodeParent(uint256)":"175724f6","getNodesCount()":"61ea7208","getUserById(uint256)":"6ed6da9e","getUserId(address)":"2b956ff7","getbusiness(uint256)":"eb95c662","getrankCount(uint256,uint256)":"80f85e33","isInstance(address)":"6b44e6be","isNode(uint256)":"419cb27b","isNodeByInst(address)":"3e763489","isOwnerOrSafeOwner(address)":"379a423c","isStop(uint256)":"3a109e92","isUser(address)":"4209fff1","isUserInst(address,address)":"5d423396","kill(address)":"cbf0b0c0","own_reinit(address)":"60af454d","owner()":"8da5cb5b","req()":"0d43aaf2","setDefaultRankCount()":"9380fd5f","setImported(bool)":"8033eded","setStop(bool)":"641657cb","withdraw(address,uint256)":"f3fef3a3"},"id":39}