{"abi":[{"type":"constructor","inputs":[],"stateMutability":"nonpayable"},{"type":"receive","stateMutability":"payable"},{"type":"function","name":"balanceOf","inputs":[{"name":"user","type":"address","internalType":"address"}],"outputs":[{"name":"","type":"uint256","internalType":"uint256"}],"stateMutability":"view"},{"type":"function","name":"claim","inputs":[],"outputs":[],"stateMutability":"nonpayable"},{"type":"function","name":"claimCountOf","inputs":[{"name":"user","type":"address","internalType":"address"},{"name":"epoch","type":"uint256","internalType":"uint256"}],"outputs":[{"name":"","type":"uint256","internalType":"uint256"}],"stateMutability":"view"},{"type":"function","name":"claimLimit","inputs":[],"outputs":[{"name":"","type":"uint256","internalType":"uint256"}],"stateMutability":"view"},{"type":"function","name":"getDelegator","inputs":[{"name":"user","type":"address","internalType":"address"}],"outputs":[{"name":"","type":"address","internalType":"address"}],"stateMutability":"view"},{"type":"function","name":"getUser","inputs":[{"name":"delegator","type":"address","internalType":"address"}],"outputs":[{"name":"","type":"address","internalType":"address"}],"stateMutability":"view"},{"type":"function","name":"incomeOf","inputs":[{"name":"user","type":"address","internalType":"address"}],"outputs":[{"name":"","type":"uint256","internalType":"uint256"}],"stateMutability":"view"},{"type":"function","name":"isDelegator","inputs":[{"name":"del","type":"address","internalType":"address"}],"outputs":[{"name":"","type":"bool","internalType":"bool"}],"stateMutability":"view"},{"type":"function","name":"mapDelegator","inputs":[{"name":"user","type":"address","internalType":"address"}],"outputs":[],"stateMutability":"nonpayable"},{"type":"function","name":"maxWithdraw","inputs":[],"outputs":[{"name":"","type":"uint256","internalType":"uint256"}],"stateMutability":"view"},{"type":"function","name":"minClaim","inputs":[],"outputs":[{"name":"","type":"uint256","internalType":"uint256"}],"stateMutability":"view"},{"type":"function","name":"owner","inputs":[],"outputs":[{"name":"","type":"address","internalType":"address"}],"stateMutability":"view"},{"type":"function","name":"renounceOwnership","inputs":[],"outputs":[],"stateMutability":"nonpayable"},{"type":"function","name":"revertBalance","inputs":[],"outputs":[],"stateMutability":"payable"},{"type":"function","name":"setClaimLimit","inputs":[{"name":"limit","type":"uint256","internalType":"uint256"}],"outputs":[],"stateMutability":"nonpayable"},{"type":"function","name":"setMaxWithdraw","inputs":[{"name":"amount","type":"uint256","internalType":"uint256"}],"outputs":[],"stateMutability":"nonpayable"},{"type":"function","name":"setMinClaim","inputs":[{"name":"amount","type":"uint256","internalType":"uint256"}],"outputs":[],"stateMutability":"nonpayable"},{"type":"function","name":"transferOwnership","inputs":[{"name":"newOwner","type":"address","internalType":"address"}],"outputs":[],"stateMutability":"nonpayable"},{"type":"function","name":"updateDelegators","inputs":[{"name":"dels","type":"address[]","internalType":"address[]"},{"name":"active","type":"bool[]","internalType":"bool[]"}],"outputs":[],"stateMutability":"nonpayable"},{"type":"function","name":"updateIncome","inputs":[{"name":"users","type":"address[]","internalType":"address[]"},{"name":"amounts","type":"uint256[]","internalType":"uint256[]"},{"name":"increase","type":"bool","internalType":"bool"},{"name":"_age","type":"uint256","internalType":"uint256"}],"outputs":[],"stateMutability":"nonpayable"},{"type":"function","name":"withdrawnByEpoch","inputs":[{"name":"epoch","type":"uint256","internalType":"uint256"}],"outputs":[{"name":"","type":"uint256","internalType":"uint256"}],"stateMutability":"view"},{"type":"function","name":"withdrawnIncomeOf","inputs":[{"name":"user","type":"address","internalType":"address"}],"outputs":[{"name":"","type":"uint256","internalType":"uint256"}],"stateMutability":"view"},{"type":"event","name":"Claimed","inputs":[{"name":"user","type":"address","indexed":true,"internalType":"address"},{"name":"amount","type":"uint256","indexed":false,"internalType":"uint256"},{"name":"epoch","type":"uint256","indexed":false,"internalType":"uint256"}],"anonymous":false},{"type":"event","name":"DelegatorMapped","inputs":[{"name":"delegator","type":"address","indexed":true,"internalType":"address"},{"name":"user","type":"address","indexed":true,"internalType":"address"}],"anonymous":false},{"type":"event","name":"OwnershipTransferred","inputs":[{"name":"previousOwner","type":"address","indexed":true,"internalType":"address"},{"name":"newOwner","type":"address","indexed":true,"internalType":"address"}],"anonymous":false},{"type":"error","name":"AlreadyUpdatedForToDay","inputs":[]},{"type":"error","name":"ClaimLimitReached","inputs":[]},{"type":"error","name":"InactiveDelegator","inputs":[]},{"type":"error","name":"InsufficientIncome","inputs":[]},{"type":"error","name":"LengthMismatch","inputs":[]},{"type":"error","name":"NotMapped","inputs":[]},{"type":"error","name":"OwnableInvalidOwner","inputs":[{"name":"owner","type":"address","internalType":"address"}]},{"type":"error","name":"OwnableUnauthorizedAccount","inputs":[{"name":"account","type":"address","internalType":"address"}]},{"type":"error","name":"StaticCallFailed","inputs":[]},{"type":"error","name":"TransferFailed","inputs":[]},{"type":"error","name":"ZeroAddress","inputs":[]}],"bytecode":{"object":"0x608080604052346100985733156100825760008054336001600160a01b03198216811783556040519290916001600160a01b0316907f8be0079c531659141344cd1fd0a4f28419497f9722a3daafe3b4186f6b6457e09080a3606460095568056bc75e2d63100000600a55670de0b6b3a7640000600b55610c63908161009e8239f35b631e4fbdf760e01b815260006004820152602490fd5b600080fdfe60406080815260049081361015610020575b5050361561001e57600080fd5b005b600091823560e01c908163020a0ff514610ad557816312595b3614610a9457816337c33c7f146109165781634e71d92d146107215781636f77926b146106e657816370a082311461069e578163715018a6146106415781637c46727c14610619578163841de46e146105d25781638da5cb5b146105aa5781639a6eb00a146105885781639b03bea6146105525781639fb2726b146103c2578163a64ad59514610387578163ab937cc114610368578163ac7a1b5b14610349578163be6106761461032a578163dcd9bb4214610308578163edce73f1146102d0578163f2fde38b14610249578163f33b32f31461015b575063fd8ab4820361001157346101575760203660031901126101575760209160ff9082906001600160a01b03610144610af7565b1681526001855220541690519015158152f35b5080fd5b90503461024557816003193601126102455767ffffffffffffffff9181358381116102415761018d9036908401610b12565b92909360243590811161023d576101a79036908301610b12565b90506101b1610c01565b830361022c5750835b8281106101c5578480f35b6001600160a01b0390816101e26101dd838789610bc7565b610bed565b1686526001809260209082825260ff868a20541615610205575b505050016101ba565b6102136101dd85898b610bc7565b16885252828620805460ff1916831790558138806101fc565b90516001621398b960e31b03198152fd5b8580fd5b8480fd5b8280fd5b90503461024557602036600319011261024557610264610af7565b9061026d610c01565b6001600160a01b039182169283156102ba57505082546001600160a01b0319811683178455167f8be0079c531659141344cd1fd0a4f28419497f9722a3daafe3b4186f6b6457e08380a380f35b51631e4fbdf760e01b8152908101849052602490fd5b5050346101575760203660031901126101575760209181906001600160a01b036102f8610af7565b1681526005845220549051908152f35b83903461015757602036600319011261015757610323610c01565b35600a5580f35b5050346101575781600319360112610157576020906009549051908152f35b505034610157578160031936011261015757602090600a549051908152f35b505034610157578160031936011261015757602090600b549051908152f35b505034610157576020366003190112610157576020916001600160a01b03908290826103b1610af7565b168152600385522054169051908152f35b919050346102455760803660031901126102455767ffffffffffffffff8235818111610241576103f59036908501610b12565b90602492833590811161054e5761040f9036908701610b12565b9060443593841515850361054a5760643592610429610c01565b80820361053757895b82811061043d578a80f35b88908a8c89156104f8579192506001600160a01b039050806104636101dd85888c610bc7565b1682526008878c60209483865220541460001461048a578b5163e391354960e01b81528d90fd5b918d826104c88f948f8a6104c18f998f8f8e918e9687948f996104b46101dd888b6101dd9e610bc7565b168d528d528b2055610bc7565b3598610bc7565b16905252898c2080549182018092116104e657556001905b01610432565b634e487b7160e01b8d5260118c52898dfd5b6001936105309161050a85888b610bc7565b35938b6105216101dd888c8b8060a01b0394610bc7565b16825260205220918254610ba4565b90556104e0565b87516001621398b960e31b031981528990fd5b8880fd5b8680fd5b9050346102455760203660031901126102455760209282916001600160a01b0361057a610af7565b168252845220549051908152f35b839034610157576020366003190112610157576105a3610c01565b35600b5580f35b505034610157578160031936011261015757905490516001600160a01b039091168152602090f35b91905082600319360112610245576105e8610c01565b8280808060018060a01b0381541647905af1610602610b43565b501561060c578280f35b516312171d8360e31b8152fd5b9050346102455760203660031901126102455760209282913581526006845220549051908152f35b833461069b578060031936011261069b5761065a610c01565b80546001600160a01b03198116825581906001600160a01b03167f8be0079c531659141344cd1fd0a4f28419497f9722a3daafe3b4186f6b6457e08280a380f35b80fd5b905034610245576020366003190112610245576020926106df916001600160a01b036106c8610af7565b168252845282808220549160058652205490610ba4565b9051908152f35b505034610157576020366003190112610157576020916001600160a01b0390829082610710610af7565b168152600285522054169051908152f35b83833461015757816003193601126101575733825260036020908152818320549091906001600160a01b031680156109065783526001825260ff8184205416156108f757805163262a9dff60e01b8382019081528582529080830167ffffffffffffffff8111828210176108e457835251849182919073c0cee8b561cc4f60869776ca5b0b7a295e04f5af5afa6107b6610b43565b90156108d45782818051810103126108d0578201513384526007835281842081855283528184205460095411156108c05733845284835261080282852054600585528386205490610ba4565b92600b5484106108b057600a548085116108a8575b503385526005815282852084815401905581855260068152828520848154019055338552600781528285208286528152828520600181540190558480808087335af1610861610b43565b501561089857825193845283015233917f987d620f307ff6b94d58743cb7a7509f24071586a77759b77c2d4e29f75a2f9a9190a280f35b82516312171d8360e31b81528690fd5b935086610817565b82516337105e8960e21b81528690fd5b8151639907008b60e01b81528590fd5b8380fd5b8151633842fc7360e21b81528590fd5b634e487b7160e01b865260418752602486fd5b51631977e12160e31b81528390fd5b8151633a3c22ef60e11b81528590fd5b9190503461024557602090816003193601126108d0576001600160a01b03928361093e610af7565b16938415610a85573386526001845260ff838720541615610a76578251848101906345145fd760e01b8252866024820152602481526060810181811067ffffffffffffffff821117610a6357855251879182919073c0cee8b561cc4f60869776ca5b0b7a295e04f5af5afa6109b1610b43565b90158015610a58575b610a4857848180518101031261054e5784015190811680910361023d5715610a3a5750338452600282526003818520926bffffffffffffffffffffffff60a01b938585825416179055848652528320903390825416179055337f8e2e851cf5758a04675faf37f2aa5655c777ca3103ab57e60845ad85aaf008618380a380f35b905163d92e233d60e01b8152fd5b8351633842fc7360e21b81528390fd5b5084815114156109ba565b634e487b7160e01b895260418552602489fd5b509051633a3c22ef60e11b8152fd5b50905163d92e233d60e01b8152fd5b50503461015757806003193601126101575760209181906001600160a01b03610abb610af7565b168152600784528181206024358252845220549051908152f35b83903461015757602036600319011261015757610af0610c01565b3560095580f35b600435906001600160a01b0382168203610b0d57565b600080fd5b9181601f84011215610b0d5782359167ffffffffffffffff8311610b0d576020808501948460051b010111610b0d57565b3d15610b9f5767ffffffffffffffff903d828111610b895760405192601f8201601f19908116603f0116840190811184821017610b895760405282523d6000602084013e565b634e487b7160e01b600052604160045260246000fd5b606090565b91908203918211610bb157565b634e487b7160e01b600052601160045260246000fd5b9190811015610bd75760051b0190565b634e487b7160e01b600052603260045260246000fd5b356001600160a01b0381168103610b0d5790565b6000546001600160a01b03163303610c1557565b60405163118cdaa760e01b8152336004820152602490fdfea2646970667358221220d2803a5d9cfb23d9ef5c390faf7f33e972bcea0ede784e16e79d1c16b609875e64736f6c63430008140033","linkReferences":{}},"methodIdentifiers":{"balanceOf(address)":"70a08231","claim()":"4e71d92d","claimCountOf(address,uint256)":"12595b36","claimLimit()":"be610676","getDelegator(address)":"a64ad595","getUser(address)":"6f77926b","incomeOf(address)":"9b03bea6","isDelegator(address)":"fd8ab482","mapDelegator(address)":"37c33c7f","maxWithdraw()":"ac7a1b5b","minClaim()":"ab937cc1","owner()":"8da5cb5b","renounceOwnership()":"715018a6","revertBalance()":"841de46e","setClaimLimit(uint256)":"020a0ff5","setMaxWithdraw(uint256)":"dcd9bb42","setMinClaim(uint256)":"9a6eb00a","transferOwnership(address)":"f2fde38b","updateDelegators(address[],bool[])":"f33b32f3","updateIncome(address[],uint256[],bool,uint256)":"9fb2726b","withdrawnByEpoch(uint256)":"7c46727c","withdrawnIncomeOf(address)":"edce73f1"},"id":57}