{"abi":[{"type":"constructor","inputs":[{"name":"_hex","type":"address","internalType":"address"}],"stateMutability":"nonpayable"},{"type":"fallback","stateMutability":"payable"},{"type":"receive","stateMutability":"payable"},{"type":"function","name":"Burn","inputs":[{"name":"amount","type":"uint256","internalType":"uint256"}],"outputs":[],"stateMutability":"nonpayable"},{"type":"function","name":"_delegatorCount","inputs":[],"outputs":[{"name":"","type":"uint256","internalType":"uint256"}],"stateMutability":"view"},{"type":"function","name":"_getImplementation","inputs":[{"name":"clone","type":"address","internalType":"address"}],"outputs":[{"name":"impl","type":"address","internalType":"address"}],"stateMutability":"view"},{"type":"function","name":"_isDelegatorNode","inputs":[{"name":"sender","type":"address","internalType":"address"}],"outputs":[{"name":"","type":"bool","internalType":"bool"}],"stateMutability":"view"},{"type":"function","name":"_isSafe","inputs":[],"outputs":[{"name":"","type":"bool","internalType":"bool"}],"stateMutability":"view"},{"type":"function","name":"_isSecureBase","inputs":[{"name":"sender","type":"address","internalType":"address"}],"outputs":[{"name":"","type":"bool","internalType":"bool"}],"stateMutability":"view"},{"type":"function","name":"_isSigner","inputs":[{"name":"sender","type":"address","internalType":"address"}],"outputs":[{"name":"","type":"bool","internalType":"bool"}],"stateMutability":"view"},{"type":"function","name":"getBalance","inputs":[],"outputs":[{"name":"","type":"uint256","internalType":"uint256"}],"stateMutability":"view"},{"type":"function","name":"getHexbase","inputs":[],"outputs":[{"name":"","type":"address","internalType":"address"}],"stateMutability":"view"},{"type":"function","name":"getUserFromDelegator","inputs":[{"name":"delegator","type":"address","internalType":"address"}],"outputs":[{"name":"","type":"address","internalType":"address"}],"stateMutability":"view"},{"type":"function","name":"getValidatorDelegatorOfUser","inputs":[{"name":"user","type":"address","internalType":"address"}],"outputs":[{"name":"","type":"address","internalType":"address"},{"name":"","type":"address","internalType":"address"}],"stateMutability":"view"},{"type":"function","name":"incomeOf","inputs":[{"name":"user","type":"address","internalType":"address"}],"outputs":[{"name":"","type":"uint256","internalType":"uint256"}],"stateMutability":"view"},{"type":"function","name":"isValidatorDelegatorOf","inputs":[{"name":"user","type":"address","internalType":"address"},{"name":"validator","type":"address","internalType":"address"}],"outputs":[{"name":"","type":"bool","internalType":"bool"}],"stateMutability":"view"},{"type":"function","name":"mapDelegator","inputs":[{"name":"user","type":"address","internalType":"address"},{"name":"vald","type":"address","internalType":"address"}],"outputs":[],"stateMutability":"nonpayable"},{"type":"function","name":"owner","inputs":[],"outputs":[{"name":"","type":"address","internalType":"address"}],"stateMutability":"view"},{"type":"function","name":"systemAge","inputs":[],"outputs":[{"name":"","type":"uint256","internalType":"uint256"}],"stateMutability":"view"},{"type":"function","name":"updateDelegators","inputs":[{"name":"valds","type":"address[]","internalType":"address[]"},{"name":"dels","type":"address[]","internalType":"address[]"},{"name":"active","type":"bool[]","internalType":"bool[]"}],"outputs":[],"stateMutability":"nonpayable"},{"type":"function","name":"updateIncome","inputs":[{"name":"users","type":"address[]","internalType":"address[]"},{"name":"amounts","type":"uint256[]","internalType":"uint256[]"},{"name":"increase","type":"bool","internalType":"bool"},{"name":"_age","type":"uint256","internalType":"uint256"}],"outputs":[],"stateMutability":"nonpayable"},{"type":"event","name":"DelegatorMapped","inputs":[{"name":"validator","type":"address","indexed":true,"internalType":"address"},{"name":"delegator","type":"address","indexed":false,"internalType":"address"},{"name":"user","type":"address","indexed":false,"internalType":"address"}],"anonymous":false},{"type":"event","name":"EthBurned","inputs":[{"name":"sender","type":"address","indexed":true,"internalType":"address"},{"name":"amount","type":"uint256","indexed":false,"internalType":"uint256"}],"anonymous":false},{"type":"event","name":"EthTransferred","inputs":[{"name":"to","type":"address","indexed":true,"internalType":"address"},{"name":"amount","type":"uint256","indexed":false,"internalType":"uint256"}],"anonymous":false},{"type":"event","name":"HexBaseUpdated","inputs":[{"name":"previousHexBase","type":"address","indexed":true,"internalType":"address"},{"name":"newHexBase","type":"address","indexed":true,"internalType":"address"}],"anonymous":false},{"type":"event","name":"OwnerUpdated","inputs":[{"name":"previousOwner","type":"address","indexed":true,"internalType":"address"},{"name":"newOwner","type":"address","indexed":true,"internalType":"address"}],"anonymous":false},{"type":"error","name":"AlreadyMapped","inputs":[]},{"type":"error","name":"AlreadyUpdatedForToDay","inputs":[]},{"type":"error","name":"ClaimLimitReached","inputs":[]},{"type":"error","name":"InactiveDelegator","inputs":[]},{"type":"error","name":"InsufficientIncome","inputs":[]},{"type":"error","name":"LengthMismatch","inputs":[]},{"type":"error","name":"NotExists","inputs":[]},{"type":"error","name":"NotMapped","inputs":[]},{"type":"error","name":"ReentrancyGuardReentrantCall","inputs":[]},{"type":"error","name":"StaticCallFailed","inputs":[]},{"type":"error","name":"TargetCallFailed","inputs":[{"name":"selector","type":"bytes4","internalType":"bytes4"}]},{"type":"error","name":"TransferFailed","inputs":[]},{"type":"error","name":"ZeroAddress","inputs":[]}],"bytecode":{"object":"0x60803461013a57601f61175e38819003918201601f19168301916001600160401b0383118484101761013f5780849260209460405283398101031261013a57516001600160a01b0381169081900361013a5780156100f557600180546001600160a01b0319908116331782556000805490911690921782556003556008602052670de0b6b3a76400007fff905f252a3e3c0d9463eb219097e839e820265a75d7647bd780ba789d6906c88190557355464e2df31e770145c6085a5e3874b3bcc5535b9091527fe68d29741724015a46f4495d932ef1a7f0477bf11955f656d516067ded1696d05560405161160890816101568239f35b60405162461bcd60e51b815260206004820152601360248201527f6f776e2e696e76616c69642e68657862617365000000000000000000000000006044820152606490fd5b600080fd5b634e487b7160e01b600052604160045260246000fdfe60806040526004361015610018575b361561001657005b005b60003560e01c806312065fe0146101385780631f185d16146101335780633b9b79551461012e5780636ec35cd5146101295780638da5cb5b146101245780638dab13dc1461011f5780639b03bea61461011a5780639fb2726b14610115578063a1f7f53914610110578063a8ce509b1461010b578063acbd63af14610106578063af48452614610101578063b90306ad146100fc578063c54e44b0146100f7578063d7a83fc6146100f2578063e01ad5fd146100ed578063e0a9bc2b146100e85763fdc10bc90361000e57610c27565b610c0c565b610b72565b610b32565b610a90565b6109d4565b6109a3565b610954565b61068c565b6105a6565b6104b3565b61046b565b610418565b6103f1565b6102eb565b610293565b61016a565b3461015457600036600319011261015457602047604051908152f35b600080fd5b6001600160a01b0381160361015457565b34610154576020806003193601126101545760049081359061018b82610159565b806101ad6101a16000546001600160a01b031690565b6001600160a01b031690565b60405194858092634bf9c0ad60e11b82525afa91821561028e5761020161023b9361021d9261024d9660009261025b575b5061020f906040519384918783019190916001600160a01b036020820193169052565b03601f198101845283610d3b565b6102176112f6565b906114a7565b919080610251575b61022e9061132f565b80825183010191016110f3565b60405190151581529081906020820190565b0390f35b5081518114610225565b61020f91925061028090863d8811610287575b6102788183610d3b565b810190610d5d565b91906101de565b503d61026e565b610d72565b346101545760003660031901126101545760206001600160a01b0360005416604051908152f35b9181601f840112156101545782359167ffffffffffffffff8311610154576020808501948460051b01011161015457565b346101545760603660031901126101545767ffffffffffffffff6004358181116101545761031d9036906004016102ba565b602492919235828111610154576103389036906004016102ba565b9092604435908111610154576103529036906004016102ba565b939092610365610360611108565b610ddd565b61036e3361124c565b8015610387575b9561038261001697610e28565b610ea3565b506001600160a01b039560046020886000541660405192838092630536340960e21b82525afa801561028e5761001698610382926000926103d1575b503391161491975050610375565b6103ea91925060203d8111610287576102788183610d3b565b90386103c3565b346101545760003660031901126101545760206001600160a01b0360015416604051908152f35b346101545760203660031901126101545760043561043581610159565b6001600160a01b039081166000908152600660209081526040808320546007835292819020548151938516845290931690820152f35b34610154576020366003190112610154576001600160a01b0360043561049081610159565b1660005260086020526020604060002054604051908152f35b8015150361015457565b346101545760803660031901126101545767ffffffffffffffff600435818111610154576104e59036906004016102ba565b91602435908111610154576104fe9036906004016102ba565b6044359161050b836104a9565b610516610360611108565b61051f3361124c565b801561053c575b9461053361001696610e28565b60643594610f94565b506001600160a01b039460046020876000541660405192838092630536340960e21b82525afa801561028e576100169761053392600092610586575b503391161491965050610526565b61059f91925060203d8111610287576102788183610d3b565b9038610578565b3461015457600036600319011261015457600460206001600160a01b03600054166040519283809263d1f956b160e01b82525afa90811561028e5761024d9161063691600091610646575b506040516105fe81610cfe565b601381527f67657464656c656761746f72436f756e742829000000000000000000000000006020820152610630610d9a565b91611594565b6040519081529081906020820190565b61065e915060203d8111610287576102788183610d3b565b386105f1565b60409060031901126101545760043561067c81610159565b9060243561068981610159565b90565b346101545761069a36610664565b906001600160a01b0391828216156108ae576106f66106f26106eb336106d3856001600160a01b03166000526004602052604060002090565b906001600160a01b0316600052602052604060002090565b5460ff1690565b1590565b61092a576000926107116101a185546001600160a01b031690565b60405180917fab6e844f00000000000000000000000000000000000000000000000000000000825281600460209485935afa90811561028e5786918291829161090d575b506040517f45145fd7000000000000000000000000000000000000000000000000000000008582019081526001600160a01b0389166024808401919091528252906107a1604482610d3b565b51915afa6107ad610dad565b90158015610902575b6108d8576101a181836107d2946101a194518301019101610d5d565b156108ae578161084d7fae0545a793105c92763ffd2d1a106bc1e148f147ed5796b8706ba246e751d30d9361081a866001600160a01b03166000526006602052604060002090565b906001600160a01b03167fffffffffffffffffffffffff0000000000000000000000000000000000000000825416179055565b61086e3361081a866001600160a01b03166000526007602052604060002090565b61088f8461081a336001600160a01b03166000526005602052604060002090565b604080513381526001600160a01b03959095166020860152911692a280f35b60046040517fd92e233d000000000000000000000000000000000000000000000000000000008152fd5b60046040517fe10bf1cc000000000000000000000000000000000000000000000000000000008152fd5b5081815114156107b6565b6109249150843d8611610287576102788183610d3b565b38610755565b60046040517f747845de000000000000000000000000000000000000000000000000000000008152fd5b3461015457602060ff6109976001600160a01b0361097136610664565b9116600052600484526040600020906001600160a01b0316600052602052604060002090565b54166040519015158152f35b346101545760203660031901126101545760206109ca6004356109c581610159565b61124c565b6040519015158152f35b346101545760203660031901126101545760046001600160a01b036020816000541660405193848092630536340960e21b82525afa91821561028e57600092610a70575b5033911603610a2c576100166004356113b3565b606460405162461bcd60e51b815260206004820152600f60248201527f6f776e2e6e6f6e617574682e44414f00000000000000000000000000000000006044820152fd5b610a8991925060203d8111610287576102788183610d3b565b9038610a18565b3461015457602036600319011261015457600435610aad81610159565b803b6000610aba82610d7e565b92610ac86040519485610d3b565b82845260208401903c602d815110610aee57602a015160405160609190911c8152602090f35b606460405162461bcd60e51b815260206004820152601360248201527f4e6f742061206d696e696d616c2070726f7879000000000000000000000000006044820152fd5b34610154576020366003190112610154576020600435610b5181610159565b6001600160a01b038091166000526005825260406000205416604051908152f35b34610154576020806003193601126101545760048035610b9181610159565b6001600160a01b03928084600054166040519485809263d1f956b160e01b82525afa90811561028e5761024d9461023b94600093610bed575b506040519316818401528252610bdf82610cfe565b610be761137a565b90611558565b610c05919350823d8411610287576102788183610d3b565b9138610bca565b346101545760003660031901126101545760206109ca611108565b3461015457600036600319011261015457600460206001600160a01b0360005416604051928380927f447aa3040000000000000000000000000000000000000000000000000000000082525afa90811561028e5761024d9161063691600091610cca575b50604051610c9881610cfe565b600581527f61676528290000000000000000000000000000000000000000000000000000006020820152610630610d9a565b610ce2915060203d8111610287576102788183610d3b565b38610c8b565b634e487b7160e01b600052604160045260246000fd5b6040810190811067ffffffffffffffff821117610d1a57604052565b610ce8565b6020810190811067ffffffffffffffff821117610d1a57604052565b90601f8019910116810190811067ffffffffffffffff821117610d1a57604052565b90816020910312610154575161068981610159565b6040513d6000823e3d90fd5b67ffffffffffffffff8111610d1a57601f01601f191660200190565b60405190610da782610d1f565b60008252565b3d15610dd8573d90610dbe82610d7e565b91610dcc6040519384610d3b565b82523d6000602084013e565b606090565b15610de457565b606460405162461bcd60e51b815260206004820152601260248201527f6f776e2e696e76616c69642e69735361666500000000000000000000000000006044820152fd5b15610e2f57565b606460405162461bcd60e51b815260206004820152601b60248201527f6f776e2e6e6f6e617574682e44414f6f725365637572656261736500000000006044820152fd5b9190811015610e835760051b0190565b634e487b7160e01b600052603260045260246000fd5b3561068981610159565b939490929192818303610f3557600091825b848110610ec6575050505050505050565b80610ed4600192848b610e73565b35610ede816104a9565b6001600160a01b03610ef183878c610e73565b35610efb81610159565b1686526004602052610f2060408720610f15848a8c610e73565b35906106d382610159565b9060ff80198354169115151617905501610eb5565b60046040517fff633a38000000000000000000000000000000000000000000000000000000008152fd5b634e487b7160e01b600052601160045260246000fd5b91908203918211610f8257565b610f5f565b91908201809211610f8257565b9291828203610f355760005b828110610fb05750505050505050565b85156110765786610fe6610fcd610fc884878a610e73565b610e99565b6001600160a01b03166000526009602052604060002090565b54036110165760046040517fe3913549000000000000000000000000000000000000000000000000000000008152fd5b808761102b610fcd610fc8600195888b610e73565b55611037818685610e73565b3561106d61106561104c610fc885898c610e73565b6001600160a01b03166000526008602052604060002090565b918254610f87565b90555b01610fa0565b806110846001928685610e73565b356110a161109961104c610fc885898c610e73565b918254610f75565b9055611070565b156110af57565b606460405162461bcd60e51b815260206004820152601960248201527f6f776e2e7361666567756172642e63616c6c2e6661696c6564000000000000006044820152fd5b908160209103126101545751610689816104a9565b6001600160a01b03600054166040518091634bf9c0ad60e11b825281600460209384935afa91821561028e5761068992611190916000916111ab575b5060405161115181610cfe565b600881527f6973536166652829000000000000000000000000000000000000000000000000848201526040519161118783610d1f565b600083526114a7565b9190806111a1575b61022e906110a8565b5081518114611198565b6111c29150833d8511610287576102788183610d3b565b38611144565b604051906111d582610cfe565b601582527f69735365637572654261736528616464726573732900000000000000000000006020830152565b1561120857565b606460405162461bcd60e51b815260206004820152601a60248201527f6f776e2e736563757265626173652e63616c6c2e6661696c65640000000000006044820152fd5b6000546001600160a01b0316604051918291634bf9c0ad60e11b835282600460209485935afa92831561028e57610689936112b892610201926000926112d3575b506112b0906040519384918783019190916001600160a01b036020820193169052565b6102176111c8565b9190806112c9575b61022e90611201565b50815181146112c0565b6112b09192506112ef90863d8811610287576102788183610d3b565b919061128d565b6040519061130382610cfe565b601182527f69735369676e65722861646472657373290000000000000000000000000000006020830152565b1561133657565b606460405162461bcd60e51b815260206004820152601660248201527f6f776e2e7369676e65722e63616c6c2e6661696c6564000000000000000000006044820152fd5b6040519061138782610cfe565b601882527f697364656c656761746f724e6f646528616464726573732900000000000000006020830152565b6000600460206001600160a01b03835416604051928380927f46f991ac0000000000000000000000000000000000000000000000000000000082525afa90811561028e578284819382938391611489575b505af161140f610dad565b50156114455760405190815233907fcdcc745fe377b103b45fa0cec23ae3ef93d6fc6a84a01f0d18c40b354dd1d5d890602090a2565b606460405162461bcd60e51b815260206004820152600f60248201527f6f776e2e6275726e2e6661696c656400000000000000000000000000000000006044820152fd5b6114a1915060203d8111610287576102788183610d3b565b38611404565b9190823b1561153f577fffffffff00000000000000000000000000000000000000000000000000000000815160208093012016916040519180830193845281519160005b83811061152b57505050918161151860248260009795968897018783820152036004810184520182610d3b565b5191620dbba0fa611527610dad565b9091565b8181018301518582016024015282016114eb565b50505060009060405161155181610d1f565b6000815290565b9291611566916000946114a7565b9080611589575b6115745750565b610689919250602080825183010191016110f3565b50602081511461156d565b92916115a2916000946114a7565b90806115c7575b6115b05750565b909150602081805181010312610154576020015190565b5060208151146115a956fea2646970667358221220ac9ff38438fded04cc0d8cc782926b8adbbecd7c89d4ee7e4e7f626e62d255b564736f6c63430008140033","linkReferences":{}},"methodIdentifiers":{"Burn(uint256)":"b90306ad","_delegatorCount()":"a1f7f539","_getImplementation(address)":"c54e44b0","_isDelegatorNode(address)":"e01ad5fd","_isSafe()":"e0a9bc2b","_isSecureBase(address)":"af484526","_isSigner(address)":"1f185d16","getBalance()":"12065fe0","getHexbase()":"3b9b7955","getUserFromDelegator(address)":"d7a83fc6","getValidatorDelegatorOfUser(address)":"8dab13dc","incomeOf(address)":"9b03bea6","isValidatorDelegatorOf(address,address)":"acbd63af","mapDelegator(address,address)":"a8ce509b","owner()":"8da5cb5b","systemAge()":"fdc10bc9","updateDelegators(address[],address[],bool[])":"6ec35cd5","updateIncome(address[],uint256[],bool,uint256)":"9fb2726b"},"id":57}