{"abi":[{"type":"constructor","inputs":[{"name":"_hex","type":"address","internalType":"address"}],"stateMutability":"nonpayable"},{"type":"fallback","stateMutability":"payable"},{"type":"receive","stateMutability":"payable"},{"type":"function","name":"Burn","inputs":[{"name":"amount","type":"uint256","internalType":"uint256"}],"outputs":[],"stateMutability":"nonpayable"},{"type":"function","name":"LSB","inputs":[{"name":"","type":"uint256","internalType":"uint256"}],"outputs":[{"name":"","type":"int256","internalType":"int256"}],"stateMutability":"view"},{"type":"function","name":"_compute","inputs":[{"name":"endage","type":"uint256","internalType":"uint256"}],"outputs":[{"name":"r","type":"tuple","internalType":"struct InstanceStorPrime.ComputeResult","components":[{"name":"p1","type":"uint256","internalType":"uint256"},{"name":"f1","type":"uint256","internalType":"uint256"},{"name":"lsb","type":"int256","internalType":"int256"}]}],"stateMutability":"view"},{"type":"function","name":"_delegatorCount","inputs":[],"outputs":[{"name":"","type":"uint256","internalType":"uint256"}],"stateMutability":"view"},{"type":"function","name":"_getImplementation","inputs":[{"name":"clone","type":"address","internalType":"address"}],"outputs":[{"name":"impl","type":"address","internalType":"address"}],"stateMutability":"view"},{"type":"function","name":"_importOld","inputs":[{"name":"limit","type":"uint256","internalType":"uint256"}],"outputs":[],"stateMutability":"payable"},{"type":"function","name":"_isDelegatorNode","inputs":[{"name":"sender","type":"address","internalType":"address"}],"outputs":[{"name":"","type":"bool","internalType":"bool"}],"stateMutability":"view"},{"type":"function","name":"_isSafe","inputs":[],"outputs":[{"name":"","type":"bool","internalType":"bool"}],"stateMutability":"view"},{"type":"function","name":"_isSecureBase","inputs":[{"name":"sender","type":"address","internalType":"address"}],"outputs":[{"name":"","type":"bool","internalType":"bool"}],"stateMutability":"view"},{"type":"function","name":"_isSigner","inputs":[{"name":"sender","type":"address","internalType":"address"}],"outputs":[{"name":"","type":"bool","internalType":"bool"}],"stateMutability":"view"},{"type":"function","name":"_txnType7","inputs":[{"name":"_maxint","type":"uint256","internalType":"uint256"},{"name":"_ag","type":"uint256","internalType":"uint256"}],"outputs":[{"name":"CALC_INC","type":"uint256[2]","internalType":"uint256[2]"}],"stateMutability":"payable"},{"type":"function","name":"_txnType_1_0","inputs":[{"name":"paramAdd","type":"address","internalType":"address"},{"name":"_id_maxint","type":"uint256","internalType":"uint256"},{"name":"_qty","type":"uint256","internalType":"uint256"},{"name":"_msgValue","type":"uint256","internalType":"uint256"},{"name":"_type","type":"uint256","internalType":"uint256"}],"outputs":[{"name":"_tvl","type":"uint256","internalType":"uint256"},{"name":"_amt","type":"uint256","internalType":"uint256"}],"stateMutability":"payable"},{"type":"function","name":"bonus","inputs":[],"outputs":[{"name":"","type":"uint256","internalType":"uint256"}],"stateMutability":"view"},{"type":"function","name":"cage","inputs":[],"outputs":[{"name":"","type":"uint256","internalType":"uint256"}],"stateMutability":"view"},{"type":"function","name":"dage","inputs":[],"outputs":[{"name":"","type":"uint256","internalType":"uint256"}],"stateMutability":"view"},{"type":"function","name":"getAllIncome","inputs":[{"name":"typeId","type":"uint256","internalType":"uint256"},{"name":"maxinterwal","type":"uint256","internalType":"uint256"}],"outputs":[{"name":"values","type":"uint256[3]","internalType":"uint256[3]"}],"stateMutability":"view"},{"type":"function","name":"getBalance","inputs":[],"outputs":[{"name":"","type":"uint256","internalType":"uint256"}],"stateMutability":"view"},{"type":"function","name":"getHexbase","inputs":[],"outputs":[{"name":"","type":"address","internalType":"address"}],"stateMutability":"view"},{"type":"function","name":"getNodeLB","inputs":[{"name":"_level","type":"uint256","internalType":"uint256"}],"outputs":[{"name":"","type":"tuple","internalType":"struct InstanceStorPrime.LevelInfoStr","components":[{"name":"lvlbs","type":"uint256","internalType":"uint256"},{"name":"lvlqty","type":"uint256","internalType":"uint256"}]}],"stateMutability":"view"},{"type":"function","name":"getToggleAgeCount","inputs":[{"name":"key","type":"uint256","internalType":"uint256"}],"outputs":[{"name":"","type":"uint256","internalType":"uint256"}],"stateMutability":"view"},{"type":"function","name":"getToggleAgeValue","inputs":[{"name":"key","type":"uint256","internalType":"uint256"},{"name":"index","type":"uint256","internalType":"uint256"}],"outputs":[{"name":"","type":"uint256","internalType":"uint256"}],"stateMutability":"view"},{"type":"function","name":"id","inputs":[],"outputs":[{"name":"","type":"uint256","internalType":"uint256"}],"stateMutability":"view"},{"type":"function","name":"isLock","inputs":[],"outputs":[{"name":"","type":"bool","internalType":"bool"}],"stateMutability":"view"},{"type":"function","name":"mintCount","inputs":[],"outputs":[{"name":"","type":"uint256","internalType":"uint256"}],"stateMutability":"view"},{"type":"function","name":"mints","inputs":[{"name":"","type":"uint256","internalType":"uint256"}],"outputs":[{"name":"amt","type":"uint256","internalType":"uint256"},{"name":"qty","type":"uint256","internalType":"uint256"},{"name":"mage","type":"uint256","internalType":"uint256"},{"name":"nft","type":"address","internalType":"address"}],"stateMutability":"view"},{"type":"function","name":"owner","inputs":[],"outputs":[{"name":"","type":"address","internalType":"address"}],"stateMutability":"view"},{"type":"function","name":"postInit","inputs":[],"outputs":[{"name":"","type":"bool","internalType":"bool"}],"stateMutability":"view"},{"type":"function","name":"preinit","inputs":[{"name":"_hex","type":"address","internalType":"address"},{"name":"_own","type":"address","internalType":"address"},{"name":"_id","type":"uint256","internalType":"uint256"}],"outputs":[],"stateMutability":"nonpayable"},{"type":"function","name":"setBonus","inputs":[{"name":"b","type":"uint256","internalType":"uint256"}],"outputs":[],"stateMutability":"nonpayable"},{"type":"function","name":"setLock","inputs":[{"name":"flag","type":"bool","internalType":"bool"}],"outputs":[],"stateMutability":"nonpayable"},{"type":"function","name":"setSuspend","inputs":[{"name":"key","type":"uint256","internalType":"uint256"},{"name":"value","type":"bool","internalType":"bool"}],"outputs":[],"stateMutability":"nonpayable"},{"type":"function","name":"systemAge","inputs":[],"outputs":[{"name":"","type":"uint256","internalType":"uint256"}],"stateMutability":"view"},{"type":"function","name":"updateOwner","inputs":[{"name":"_newowner","type":"address","internalType":"address"}],"outputs":[],"stateMutability":"nonpayable"},{"type":"function","name":"userCycleMintCount","inputs":[{"name":"","type":"uint256","internalType":"uint256"}],"outputs":[{"name":"","type":"uint256","internalType":"uint256"}],"stateMutability":"view"},{"type":"function","name":"withdrawlDage","inputs":[],"outputs":[{"name":"","type":"uint256","internalType":"uint256"}],"stateMutability":"view"},{"type":"event","name":"EthBurned","inputs":[{"name":"sender","type":"address","indexed":true,"internalType":"address"},{"name":"amount","type":"uint256","indexed":false,"internalType":"uint256"}],"anonymous":false},{"type":"event","name":"EthTransferred","inputs":[{"name":"to","type":"address","indexed":true,"internalType":"address"},{"name":"amount","type":"uint256","indexed":false,"internalType":"uint256"}],"anonymous":false},{"type":"event","name":"HexBaseUpdated","inputs":[{"name":"previousHexBase","type":"address","indexed":true,"internalType":"address"},{"name":"newHexBase","type":"address","indexed":true,"internalType":"address"}],"anonymous":false},{"type":"event","name":"LogTxns","inputs":[{"name":"from","type":"address","indexed":false,"internalType":"address"},{"name":"orc1155","type":"address","indexed":false,"internalType":"address"},{"name":"_amt","type":"uint256","indexed":false,"internalType":"uint256"},{"name":"_value","type":"uint256","indexed":false,"internalType":"uint256"},{"name":"_time","type":"uint256","indexed":false,"internalType":"uint256"},{"name":"_type","type":"uint256","indexed":false,"internalType":"uint256"}],"anonymous":false},{"type":"event","name":"OwnerUpdated","inputs":[{"name":"previousOwner","type":"address","indexed":true,"internalType":"address"},{"name":"newOwner","type":"address","indexed":true,"internalType":"address"}],"anonymous":false},{"type":"error","name":"GlobalPoolLimitReached","inputs":[]},{"type":"error","name":"ImportLimitExceeded","inputs":[]},{"type":"error","name":"InvalidClone","inputs":[]},{"type":"error","name":"InvalidMintCycleLimit","inputs":[]},{"type":"error","name":"InvalidValue","inputs":[]},{"type":"error","name":"InvalidnewOwner","inputs":[]},{"type":"error","name":"MintLimitExceeded","inputs":[]},{"type":"error","name":"PreInitException","inputs":[]},{"type":"error","name":"ReentrancyGuardReentrantCall","inputs":[]},{"type":"error","name":"StoPrimeLocked","inputs":[]},{"type":"error","name":"TargetCallFailed","inputs":[{"name":"selector","type":"bytes4","internalType":"bytes4"}]},{"type":"error","name":"UnsecureORC1155","inputs":[]}],"bytecode":{"object":"0x608034620000d157601f62003d3438819003918201601f19168301916001600160401b03831184841017620000d657808492602094604052833981010312620000d157516001600160a01b03811690819003620000d15780156200008c5760018060a01b03193381600154161760015560005416176000556001600355604051613c479081620000ed8239f35b60405162461bcd60e51b815260206004820152601360248201527f6f776e2e696e76616c69642e68657862617365000000000000000000000000006044820152606490fd5b600080fd5b634e487b7160e01b600052604160045260246000fdfe60806040526004361015610018575b361561001657005b005b60003560e01c806302a085f214610248578063043719b41461024357806309d8da2e1461023e5780630b98f9751461023957806312065fe014610234578063141ca6601461022f578063143ec3b71461022a5780631f185d16146102255780632c2838e81461022057806339b4d61b1461021b5780633b9b7955146102165780634a65786c1461021157806352902c591461020c578063619d5194146102075780636350b2c21461020257806369245009146101fd578063725b6fff146101f857806375b4d78c146101f3578063880cdc31146101ee5780638da5cb5b146101e9578063932ca2d6146101e45780639659867e146101df578063a1f7f539146101da578063a20199ac146101d5578063a98bf4f9146101d0578063a9bf285b146101cb578063af484526146101c6578063af640d0f146101c1578063b90306ad146101bc578063c54e44b0146101b7578063c8ef7b1a146101b2578063da021335146101ad578063e01ad5fd146101a8578063e0a9bc2b146101a35763fdc10bc90361000e5761101c565b611001565b610f67565b610f13565b610e5c565b610e24565b610d68565b610d4a565b610d19565b610cfb565b610ccf565b610c83565b610bc5565b610ba7565b610ad6565b610aaf565b6109fb565b6109dd565b6109bf565b6109a1565b61094a565b610889565b610753565b61072d565b610706565b6106da565b6106a0565b610590565b610553565b6104a6565b61048a565b6103e7565b6103c4565b610388565b61027b565b6040810192916000915b6002831061026457505050565b600190825181526020809101920192019190610257565b60408060031936011261038357805190610294826110a0565b8036833760ff60045416610373576102b26102ad61337a565b61103f565b6102bb336134be565b80156102ee575b6102ea926102d26102df92611123565b6024359060043590611a93565b90519182918261024d565b0390f35b506004916001600160a01b039060208260005416845195868092630536340960e21b82525afa93841561036e576102ea946102df936102d29260009261033e575b503391161492505092506102c2565b61036091925060203d8111610367575b61035881836110dd565b8101906110ff565b903861032f565b503d61034e565b611117565b600490516343d0bb5b60e11b8152fd5b600080fd5b3461038357604036600319011261038357600435600052601060205260206103b66024356040600020611186565b90546040519160031b1c8152f35b3461038357600036600319011261038357602060ff600454166040519015158152f35b34610383576020366003190112610383576104036102ad61337a565b61040c336134be565b8015610427575b61041c90611123565b610016600435600555565b5060046001600160a01b036020816000541660405193848092630536340960e21b82525afa90811561036e5761041c9260009261046a575b501633149050610413565b61048391925060203d81116103675761035881836110dd565b903861045f565b3461038357600036600319011261038357602047604051908152f35b6020366003190112610383576104bd6102ad61337a565b6104c6336134be565b80156104f0575b6104d690611123565b6104de611a33565b6104e9600435612619565b6001600355005b5060046001600160a01b036020816000541660405193848092630536340960e21b82525afa90811561036e576104d692600092610533575b5016331490506104cd565b61054c91925060203d81116103675761035881836110dd565b9038610528565b346103835760203660031901126103835760043560005260106020526020604060002054604051908152f35b6001600160a01b0381160361038357565b3461038357602080600319360112610383576004908135906105b18261057f565b806105d36105c76000546001600160a01b031690565b6001600160a01b031690565b60405194858092634bf9c0ad60e11b82525afa91821561036e5761062761066193610643926102ea9660009261067d575b50610635906040519384918783019190916001600160a01b036020820193169052565b03601f1981018452836110dd565b61063d613568565b906138a5565b919080610673575b610654906135a1565b8082518301019101613365565b60405190151581529081906020820190565b508151811461064b565b61063591925061069990863d88116103675761035881836110dd565b9190610604565b346103835760203660031901126103835760606106be600435612e60565b6040805191805183526020810151602084015201516040820152f35b3461038357602036600319011261038357600435600052600b6020526020604060002054604051908152f35b346103835760003660031901126103835760206001600160a01b0360005416604051908152f35b3461038357600036600319011261038357602060ff60045460081c166040519015158152f35b34610383576060366003190112610383576004356107708161057f565b60243561077c8161057f565b6001600160a01b038092168015808015610875575b61084b5761080757826107b16107fc94600054166001600160a01b031690565b6107d1836001600160a01b03166001600160a01b03196000541617600055565b167fe939feee179e631422bcc8f6e6d7d908cb3f8af38f5372f17c77e15aea5c80ee600080a36136c5565b610016604435600755565b606460405162461bcd60e51b815260206004820152601360248201527f6f776e2e696e76616c69642e68657862617365000000000000000000000000006044820152fd5b60046040517fa596f2f9000000000000000000000000000000000000000000000000000000008152fd5b5083831615610791565b8015150361038357565b34610383576020366003190112610383576004356108a68161087f565b6108b16102ad61337a565b6108ba336134be565b80156108e0575b906108ce61001692611123565b60ff8019600454169115151617600455565b506001600160a01b039060046020836000541660405192838092630536340960e21b82525afa801561036e57610016936108ce9260009261092a575b5033911614919250506108c1565b61094391925060203d81116103675761035881836110dd565b903861091c565b3461038357602036600319011261038357600435600052600d602052608060406000208054906001810154906001600160a01b03600360028301549201541691604051938452602084015260408301526060820152f35b34610383576000366003190112610383576020600a54604051908152f35b34610383576000366003190112610383576020600854604051908152f35b34610383576000366003190112610383576020600554604051908152f35b3461038357602036600319011261038357600435610a188161057f565b610a236102ad61337a565b610a2c336134be565b8015610a45575b90610a4061001692611123565b61123f565b506001600160a01b039060046020836000541660405192838092630536340960e21b82525afa801561036e5761001693610a4092600092610a8f575b503391161491925050610a33565b610aa891925060203d81116103675761035881836110dd565b9038610a81565b346103835760003660031901126103835760206001600160a01b0360015416604051908152f35b60a036600319011261038357600435610aee8161057f565b610af96102ad61337a565b610b02336134be565b8015610b3d575b90610b16610b2b92611123565b60843590606435906044359060243590611281565b60408051928352602083019190915290f35b506001600160a01b039060046020836000541660405192838092630536340960e21b82525afa801561036e57610b2b93610b1692600092610b87575b503391161491925050610b09565b610ba091925060203d81116103675761035881836110dd565b9038610b79565b34610383576000366003190112610383576020600654604051908152f35b3461038357600036600319011261038357600460206001600160a01b03600054166040519283809263d1f956b160e01b82525afa90811561036e576102ea91610c5591600091610c65575b50604051610c1d816110a0565b601381527f67657464656c656761746f72436f756e742829000000000000000000000000006020820152610c4f6117e9565b916139db565b6040519081529081906020820190565b610c7d915060203d81116103675761035881836110dd565b38610c10565b3461038357604036600319011261038357610ca2602435600435613205565b60405190600090825b60038310610cb857606084f35b600190825181526020809101920192019190610cab565b3461038357602036600319011261038357600435600052600e6020526020604060002054604051908152f35b34610383576000366003190112610383576020600954604051908152f35b34610383576020366003190112610383576020610d40600435610d3b8161057f565b6134be565b6040519015158152f35b34610383576000366003190112610383576020600754604051908152f35b346103835760203660031901126103835760046001600160a01b036020816000541660405193848092630536340960e21b82525afa91821561036e57600092610e04575b5033911603610dc057610016600435613786565b606460405162461bcd60e51b815260206004820152600f60248201527f6f776e2e6e6f6e617574682e44414f00000000000000000000000000000000006044820152fd5b610e1d91925060203d81116103675761035881836110dd565b9038610dac565b34610383576020366003190112610383576020610e4b600435610e468161057f565b613b96565b6001600160a01b0360405191168152f35b3461038357604036600319011261038357602435610e798161087f565b610e846102ad61337a565b610e8d336134be565b8015610ea9575b90610ea161001692611123565b60043561116e565b506001600160a01b039060046020836000541660405192838092630536340960e21b82525afa801561036e5761001693610ea192600092610ef3575b503391161491925050610e94565b610f0c91925060203d81116103675761035881836110dd565b9038610ee5565b3461038357602036600319011261038357610f2c612f7d565b50600435600052600f6020526040806000208151610f49816110a0565b60206001835493848452015491019081528251918252516020820152f35b34610383576020806003193601126103835760048035610f868161057f565b6001600160a01b03928084600054166040519485809263d1f956b160e01b82525afa90811561036e576102ea9461066194600093610fe2575b506040519316818401528252610fd4826110a0565b610fdc61368c565b9061399f565b610ffa919350823d84116103675761035881836110dd565b9138610fbf565b34610383576000366003190112610383576020610d4061337a565b346103835760003660031901126103835760206110376135ec565b604051908152f35b1561104657565b606460405162461bcd60e51b815260206004820152601260248201527f6f776e2e696e76616c69642e69735361666500000000000000000000000000006044820152fd5b634e487b7160e01b600052604160045260246000fd5b6040810190811067ffffffffffffffff8211176110bc57604052565b61108a565b6020810190811067ffffffffffffffff8211176110bc57604052565b90601f8019910116810190811067ffffffffffffffff8211176110bc57604052565b9081602091031261038357516111148161057f565b90565b6040513d6000823e3d90fd5b1561112a57565b606460405162461bcd60e51b815260206004820152601b60248201527f6f776e2e6e6f6e617574682e44414f6f725365637572656261736500000000006044820152fd5b906111849161117b6135ec565b806002556111ee565b565b805482101561119e5760005260206000200190600090565b634e487b7160e01b600052603260045260246000fd5b8054680100000000000000008110156110bc576111d691600182018155611186565b819291549060031b91821b91600019901b1916179055565b9060005260106020526040600020918254801580611237575b611231576001911561122657161561121d575050565b611184916111b4565b81161461121d575050565b50505050565b508115611207565b6001600160a01b0381161561125757611184906136c5565b60046040517fb31092f1000000000000000000000000000000000000000000000000000000008152fd5b919294939060049060ff82541661177d5761129a611a33565b6112aa6112a6856134be565b1590565b61176d576112cb6112a66112bc6117fc565b6112c46117e9565b908761399f565b61176d576112df6112da6135ec565b600255565b6112f46105c76000546001600160a01b031690565b9382602060409687519586809263cfbffe5360e01b82525afa93841561036e5760009461174d575b50611336611328611835565b61133061184d565b866139db565b80156117015761136161135861134a611835565b611352611886565b886139db565b916002546118d5565b9061137561136d611835565b6113526118f5565b9061138f611381611835565b61138961192e565b896139db565b906113a484600052600b602052604060002090565b5410918215926116e4575b50506116bc576113c990600052600b602052604060002090565b80546001019055600185149384156116b357865160208101899052611403916113f58260408101610627565b6113fd611967565b906139db565b9889945b6115ec575b5050926114ad6114a07f1517c86fcf2bfb8e3468afcc539b0004955da8027797c497ea51d1f1094ab8989694886115c09560009a98600654156115d1575b61145d6114586006546119dc565b600655565b61149b60025461146b61178d565b908682528560208301528b820152606081019d8e52611496600654600052600d602052604060002090565b6119eb565b612006565b6001600160a01b03168752565b6114f56114c187516001600160a01b031690565b60036114d9600654600052600d602052604060002090565b01906001600160a01b03166001600160a01b0319825416179055565b6115806115018961219b565b60008052600f602052967ff4803e074bd026baaf6ed2e288c9515f68c72fb7216eebdd7cae1718a53ec3756115378b82546119b3565b905560008052600f60205260017ff4803e074bd026baaf6ed2e288c9515f68c72fb7216eebdd7cae1718a53ec375016115718782546119b3565b9055516001600160a01b031690565b60025493513381526001600160a01b039091166020820152604081019490945260608401889052608084019290925260a0830191909152819060c0820190565b0390a16115cd6001600355565b9190565b6115dc600254600855565b6115e7600254600955565b61144a565b9091929350600554918961160084846119b3565b1061166357506114a089887f1517c86fcf2bfb8e3468afcc539b0004955da8027797c497ea51d1f1094ab89898966115c09661165461164f8561164a60009f9d9a6114ad9a6119b3565b6119cf565b600555565b9598509550985094965061140c565b6116af90875191829162461bcd60e51b8352820160609060208152601860208201527f73746f727072696d652e66616b652e6d696e7476616c7565000000000000000060408201520190565b0390fd5b50888994611407565b5085517feb2c7de7000000000000000000000000000000000000000000000000000000008152fd5b8a10915081156116f7575b5038806113af565b90508811386116ef565b6116af82885191829162461bcd60e51b8352820160609060208152601560208201527f696e76616c6964206d696e744379636c6544617973000000000000000000000060408201520190565b61176691945060203d81116103675761035881836110dd565b923861131c565b50604051630d419f7360e41b8152fd5b506040516343d0bb5b60e11b8152fd5b604051906080820182811067ffffffffffffffff8211176110bc57604052565b604051906060820182811067ffffffffffffffff8211176110bc57604052565b67ffffffffffffffff81116110bc57601f01601f191660200190565b604051906117f6826110c1565b60008252565b60405190611809826110a0565b600982527f69735072696d65282900000000000000000000000000000000000000000000006020830152565b604051611841816110c1565b60008152906000368137565b6040519061185a826110a0565b601482527f6d696e744379636c65446179735072696d6528290000000000000000000000006020830152565b60405190611893826110a0565b601782527f6d61784d696e74735065724379636c655072696d6528290000000000000000006020830152565b634e487b7160e01b600052601160045260246000fd5b81156118df570490565b634e487b7160e01b600052601260045260246000fd5b60405190611902826110a0565b601182527f6d696e4d696e745174795072696d6528290000000000000000000000000000006020830152565b6040519061193b826110a0565b601182527f6d61784d696e745174795072696d6528290000000000000000000000000000006020830152565b60405190611974826110a0565b601e82527f636f6d707574654d696e7456616c75655072696d652875696e743235362900006020830152565b90600182018092116119ae57565b6118bf565b919082018092116119ae57565b6000198101919082116119ae57565b919082039182116119ae57565b60001981146119ae5760010190565b60036001600160a01b036060611184948051855560208101516001860155604081015160028601550151169101906001600160a01b03166001600160a01b0319825416179055565b600260035414611a44576002600355565b60046040517f3ee5aeb5000000000000000000000000000000000000000000000000000000008152fd5b604051906060820182811067ffffffffffffffff8211176110bc576040526060368337565b90611aa69291611aa1611a33565b611bcb565b906001600355565b60405190611abb826110a0565b601582527f65616368636c61696d4379636c655072696d65282900000000000000000000006020830152565b60405190611af4826110a0565b601582527f6d696e436c61696d5065724461795072696d65282900000000000000000000006020830152565b60405190611b2d826110a0565b601582527f6d6178436c61696d5065724461795072696d65282900000000000000000000006020830152565b60405190611b66826110a0565b601b82527f6d6178476c6f62616c436c61696d5065724461795072696d65282900000000006020830152565b60405190611b9f826110a0565b601a82527f67657477697468647261776e5072696d652875696e74323536290000000000006020830152565b92918381156120005750600255600090611bef6105c783546001600160a01b031690565b60405191829163cfbffe5360e01b835282600460209586935afa91821561036e578492611fe1575b506032611c4860025460085493611c2e81866119b3565b821115611fda57611c409150846119b3565b925b836119cf565b1161123157611c5690612cfd565b611c7b611c72611c64611835565b611c6c611aae565b846139db565b600954906119b3565b9060025491821015611c97575b505050506111846112da6135ec565b611cb0611ca2611835565b611caa611ae7565b836139db565b91611cc4611cbc611835565b611c6c611b20565b6003600052600c602052917fc0da782485e77ae272268ae0a3ff44c1552ecb60b3743924de17a815e0a3cfd75493841015611d01575b5050611c88565b611d1690611d0d611835565b906113fd611b59565b90600485611d2e6105c789546001600160a01b031690565b6040519283809263ab6e844f60e01b82525afa801561036e57611d7692610627928992611fb7575b50611d6e906040519384918a83019190602083019252565b6113fd611b92565b1015611f8d5780821115611f8557611d8d916119cf565b6003600052600c6020527fc0da782485e77ae272268ae0a3ff44c1552ecb60b3743924de17a815e0a3cfd7549080611ec657506001600052600c6020527fd421a5181c571bba3f01190c922c3b2a896fc1d84e86c9f17ac10e67ebef8b5c611df68282546119b3565b90556003600052600c602052827fc0da782485e77ae272268ae0a3ff44c1552ecb60b3743924de17a815e0a3cfd75584525b83516002546040805133815260006020820181905291810191909152606081019290925260808201526102bc60a08201527f1517c86fcf2bfb8e3468afcc539b0004955da8027797c497ea51d1f1094ab8989060c090a17f72edfe78b2d259e5f8bedbff15cf4b63a3c5a819f9534071bf934e42aac19df680549185019190915260206000819052600c905255600254600955388080808080611cfa565b9081811115611f455781611ed9916119cf565b6001600052600c602052907fd421a5181c571bba3f01190c922c3b2a896fc1d84e86c9f17ac10e67ebef8b5c611f108382546119b3565b90556003600052600c6020527fc0da782485e77ae272268ae0a3ff44c1552ecb60b3743924de17a815e0a3cfd7558452611e28565b611f4e916119cf565b50600c60205260036000527fc0da782485e77ae272268ae0a3ff44c1552ecb60b3743924de17a815e0a3cfd7829055818452611e28565b505081611d8d565b60046040517f1d63fe21000000000000000000000000000000000000000000000000000000008152fd5b611d6e919250611fd390893d8b116103675761035881836110dd565b9190611d56565b5092611c42565b611ff9919250833d85116103675761035881836110dd565b9038611c17565b93505050565b906001600160a01b039384600154169360025492604051957fc85700fb000000000000000000000000000000000000000000000000000000006020880152602487015260448601526064850152608484015260a483015260a4825260e0820182811067ffffffffffffffff8211176110bc5761209b926105c79261208c92604052613a9f565b602080825183010191016110ff565b908116156120a65790565b60046040517fb1bdf8b0000000000000000000000000000000000000000000000000000000008152fd5b604051906120dd826110a0565b600b82527f706f6f6c5072696d6528290000000000000000000000000000000000000000006020830152565b908160e09103126103835780519160208201519160408101519160608201519160808101519160c060a083015192015190565b90612710918281029281840414901517156119ae57565b818102929181159184041417156119ae57565b919091600083820193841291129080158216911516176119ae57565b818103929160001380158285131691841216176119ae57565b60049060206121b56105c76000546001600160a01b031690565b6040519384809263cfbffe5360e01b82525afa801561036e5761228061225661223b61227b612246612230612240612220612211612235996111149c600091612292575b50612202611835565b9061220b6120d0565b9061387a565b60208082518301019101612109565b9e8f9b969e949892959150612153565b612153565b93612153565b61213c565b906118d5565b94612266612256826002546119b3565b600052600e602052604060002090565b612271878254612166565b90556002546119b3565b6119b3565b61228b828254612182565b9055612153565b6122aa915060203d81116103675761035881836110dd565b386121f9565b604051906122bd826110a0565b601382527f55736572546f496e7374286164647265737329000000000000000000000000006020830152565b604051906122f6826110a0565b600b82527f6d696e74436f756e7428290000000000000000000000000000000000000000006020830152565b6040519061232f826110a0565b600e82527f6d696e74732875696e74323536290000000000000000000000000000000000006020830152565b60405190612368826110a0565b600b82527f6d696e74656441676528290000000000000000000000000000000000000000006020830152565b604051906123a1826110a0565b600b82527f6d696e74656471747928290000000000000000000000000000000000000000006020830152565b604051906123da826110a0565b600c82527f6964732875696e743235362900000000000000000000000000000000000000006020830152565b60405190612413826110a0565b600982527f6d696e74416d74282900000000000000000000000000000000000000000000006020830152565b604051906080820182811067ffffffffffffffff8211176110bc5760405260006060838281528260208201528260408201520152565b60405190612482826110a0565b600a82527f647261776e6167652829000000000000000000000000000000000000000000006020830152565b604051906124bb826110a0565b600c82527f4c53422875696e743235362900000000000000000000000000000000000000006020830152565b604051906124f4826110a0565b600782527f647261776e2829000000000000000000000000000000000000000000000000006020830152565b90816020910312610383575190565b6040519061253c826110a0565b600782527f626f6e75732829000000000000000000000000000000000000000000000000006020830152565b60405190612575826110a0565b600682527f63616765282900000000000000000000000000000000000000000000000000006020830152565b604051906125ae826110a0565b601082527f6765744e6f6465286164647265737329000000000000000000000000000000006020830152565b908160a09103126103835780519160208201516125f68161057f565b916040810151916080606083015161260d8161087f565b9201516111148161087f565b60045460081c60ff16612cfa5760049060206126406105c76000546001600160a01b031690565b6040519384809263111ea8c160e21b82525afa91821561036e57600092612cd9575b506126b761269b6126a961267e6001546001600160a01b031690565b604080516001600160a01b03909216602083015290928391820190565b03601f1981018352826110dd565b6126b16122b0565b84613956565b906001600160a01b03821615612cb55760058111612c8b576126e26126da611835565b611c6c6122e9565b906006546126f081836119b3565b831115612c8357612700916119b3565b8161289b575b508060065414908115612892575b5061271d575050565b6127ff610627612825936127f761280e9461274961274461273c611835565b611c6c612475565b600a55565b600a546008548111612844575b50612782612773612765611835565b61276d6124e7565b8461387a565b60208082518301019101612520565b6001600052600c6020527fd421a5181c571bba3f01190c922c3b2a896fc1d84e86c9f17ac10e67ebef8b5c556127c461164f6127bc611835565b611c6c61252f565b6127da6127446127d2611835565b611c6c612568565b604080516001600160a01b03909216602083015290938491820190565b61220b6125a1565b602080825183010191016125da565b935050505060ff8019600454169115151617600455565b612830600854600955565b61118461010061ff00196004541617600455565b60085561287561269b612867600a54604051928391602083019190602083019252565b61286f6124ae565b83613a17565b61288b600854600052600e602052604060002090565b5538612756565b90501538612714565b60008052600f6020527ff4803e074bd026baaf6ed2e288c9515f68c72fb7216eebdd7cae1718a53ec375547ff4803e074bd026baaf6ed2e288c9515f68c72fb7216eebdd7cae1718a53ec3765495909491929091905b60065484811015612c2557611458612908916119dc565b61293661269b612928600654604051928391602083019190602083019252565b612930612322565b87613956565b956129536112da612945611835565b61294d61235b565b8a6139db565b61296661295e611835565b611389612394565b9761298b6040516129838161269b60208201906000602083019252565b61294d6123cd565b97612a0b6129b16129ab61299d611835565b6129a5612406565b856139db565b92613b96565b60206129c86105c76000546001600160a01b031690565b6040517fcfaa1f6c0000000000000000000000000000000000000000000000000000000081526001600160a01b0390931660048401529192839081906024820190565b0381845afa91821561036e57600092612c04575b506001600160a01b03821615612b94575b50612a3d6112a6826134be565b612b8357818b8094612a4d61243f565b9683885282602089015260025460408901528388600654612a7890600052600d602052604060002090565b90612a82916119eb565b612a8b916119b3565b9d612a95916119b3565b9b612a9f93612006565b600654612ab690600052600d602052604060002090565b60030190612ad991906001600160a01b03166001600160a01b0319825416179055565b612ae28161219b565b50600654600114612b2760607f1517c86fcf2bfb8e3468afcc539b0004955da8027797c497ea51d1f1094ab89895612b6893612b73575b01516001600160a01b031690565b600254604080513381526001600160a01b03909316602084015282019490945260608101929092526080820192909252600060a082015290819060c0820190565b0390a19594956128f1565b612b7e600254600855565b612b19565b6004604051630d419f7360e41b8152fd5b6040517fb771c896000000000000000000000000000000000000000000000000000000008152600060048201529150602090829060249082905afa90811561036e57600091612be5575b5038612a30565b612bfe915060203d6020116103675761035881836110dd565b38612bde565b612c1e91925060203d6020116103675761035881836110dd565b9038612a1f565b5060008052600f6020527ff4803e074bd026baaf6ed2e288c9515f68c72fb7216eebdd7cae1718a53ec375959095557ff4803e074bd026baaf6ed2e288c9515f68c72fb7216eebdd7cae1718a53ec376959095559392905038612706565b505080612700565b60046040517fc99d37d2000000000000000000000000000000000000000000000000000000008152fd5b505050612cc36127446135ec565b612cce600a54600855565b612830600a54600955565b612cf391925060203d6020116103675761035881836110dd565b9038612662565b50565b612d0681612e60565b80516003600052600c6020527fc0da782485e77ae272268ae0a3ff44c1552ecb60b3743924de17a815e0a3cfd780549182019182106119ae575560208101908151906002600052600c60205260406000209182549081018091116119ae57604092550151612d7e83600052600e602052604060002090565b555160206000819052600c90527f72edfe78b2d259e5f8bedbff15cf4b63a3c5a819f9534071bf934e42aac19df680549182018092116119ae5755600855565b604051906060820182811067ffffffffffffffff8211176110bc5760405260006040838281528260208201520152565b60405190612dfb826110a0565b600a82527f73687574646f776e2829000000000000000000000000000000000000000000006020830152565b60405190612e34826110a0565b601882527f676574557365724964546f496e73742875696e743235362900000000000000006020830152565b90612e69612dbe565b91612e7f6105c76000546001600160a01b031690565b6040519063ab6e844f60e01b82526020918281600481855afa90811561036e578390600092612f5d575b50600491926040519283809263cfbffe5360e01b82525afa90811561036e57612ef691612eef91600091612f40575b50612ee1612dee565b612ee96117e9565b9161399f565b8094613000565b9490916040880152600014612f385750600754604051928301908152612f339350612f25908390602001610627565b612f2d612e27565b90613956565b318252565b855250830152565b612f579150853d87116103675761035881836110dd565b38612ed8565b60049250612f7790823d84116103675761035881836110dd565b91612ea9565b60405190612f8a826110a0565b60006020838281520152565b604051906020820182811067ffffffffffffffff8211176110bc5760405281612fbd612f7d565b9052565b8181029291600082127f80000000000000000000000000000000000000000000000000000000000000008214166119ae5781840514901517156119ae57565b6000928392839283613010612f96565b9161301a81613148565b9190845160209384820152526008545b81811061303957505050505050565b851561304e575b613049906119dc565b61302a565b61306d61306582600052600e602052604060002090565b54809b612166565b9961307882846119cf565b90859187518681518781106130f0575b5050508083116130e8575b8261309d916119cf565b91806130d2575b50816130b2575b5050613040565b996130c46130ca92613049949c612fc1565b90612166565b9890386130ab565b996130c4829b6130e193612fc1565b98386130a4565b915081613093565b80871115613142575085915b0161310781516119a0565b8710156131335750855b818111613120575b8790613088565b61312b9294506119cf565b913880613119565b61313d90516119a0565b613111565b916130fc565b6001600090815260106020527f8c6065603763fec3f5742441d3833f3f43b982453612d76adb39a885e3006b5f80549193929082156131fd57600183166131e357505060018352601060205260408320906001198101908082116119ae576131d360406131bb6131d99461111496611186565b90549060031b1c9660018152601060205220916119c0565b90611186565b90549060031b1c90565b9093506131d36131f2926119c0565b90549060031b1c9190565b509250508190565b919091613210611a6e565b928115613290576132496004916132256135ec565b9060085461323382826119b3565b8311156132895761324492506119b3565b612e60565b91146132525750565b909150602061325f6117ad565b9180518352015160208201526132806020600052600c602052604060002090565b54604082015290565b5050612e60565b5050905061329c6117ad565b7fd421a5181c571bba3f01190c922c3b2a896fc1d84e86c9f17ac10e67ebef8b5c5481527f5d6016397a73f5e079297ac5a36fef17b4d9c3831618e63ab105738020ddd720546020828101919091526003600052600c90527fc0da782485e77ae272268ae0a3ff44c1552ecb60b3743924de17a815e0a3cfd7613280565b1561332157565b606460405162461bcd60e51b815260206004820152601960248201527f6f776e2e7361666567756172642e63616c6c2e6661696c6564000000000000006044820152fd5b9081602091031261038357516111148161087f565b6001600160a01b03600054166040518091634bf9c0ad60e11b825281600460209384935afa91821561036e57611114926134029160009161341d575b506040516133c3816110a0565b600881527f697353616665282900000000000000000000000000000000000000000000000084820152604051916133f9836110c1565b600083526138a5565b919080613413575b6106549061331a565b508151811461340a565b6134349150833d85116103675761035881836110dd565b386133b6565b60405190613447826110a0565b601582527f69735365637572654261736528616464726573732900000000000000000000006020830152565b1561347a57565b606460405162461bcd60e51b815260206004820152601a60248201527f6f776e2e736563757265626173652e63616c6c2e6661696c65640000000000006044820152fd5b6000546001600160a01b0316604051918291634bf9c0ad60e11b835282600460209485935afa92831561036e576111149361352a9261062792600092613545575b50613522906040519384918783019190916001600160a01b036020820193169052565b61063d61343a565b91908061353b575b61065490613473565b5081518114613532565b61352291925061356190863d88116103675761035881836110dd565b91906134ff565b60405190613575826110a0565b601182527f69735369676e65722861646472657373290000000000000000000000000000006020830152565b156135a857565b606460405162461bcd60e51b815260206004820152601660248201527f6f776e2e7369676e65722e63616c6c2e6661696c6564000000000000000000006044820152fd5b600460206001600160a01b03600054166040519283809263111ea8c160e21b82525afa801561036e576111149160009161366e575b5060405161362e816110a0565b600581527f6167652829000000000000000000000000000000000000000000000000000000602082015260405191613665836110c1565b600083526139db565b613686915060203d81116103675761035881836110dd565b38613621565b60405190613699826110a0565b601882527f697364656c656761746f724e6f646528616464726573732900000000000000006020830152565b6001600160a01b0380911690811561371257600154826001600160a01b0319821617600155167f8292fce18fa69edf4db7b94ea2e58241df0ae57f97e0a6c9b29067028bf92d76600080a3565b606460405162461bcd60e51b815260206004820152601160248201527f6f776e2e696e76616c69642e6f776e65720000000000000000000000000000006044820152fd5b3d15613781573d90613767826117cd565b9161377560405193846110dd565b82523d6000602084013e565b606090565b6000600460206001600160a01b03835416604051928380927f46f991ac0000000000000000000000000000000000000000000000000000000082525afa90811561036e57828481938293839161385c575b505af16137e2613756565b50156138185760405190815233907fcdcc745fe377b103b45fa0cec23ae3ef93d6fc6a84a01f0d18c40b354dd1d5d890602090a2565b606460405162461bcd60e51b815260206004820152600f60248201527f6f776e2e6275726e2e6661696c656400000000000000000000000000000000006044820152fd5b613874915060203d81116103675761035881836110dd565b386137d7565b9061388592916138a5565b9060009015613892575090565b60405191506138a0826110c1565b815290565b9190823b1561393d577fffffffff00000000000000000000000000000000000000000000000000000000815160208093012016916040519180830193845281519160005b838110613929575050509181613916602482600097959688970187838201520360048101845201826110dd565b5191620dbba0fa613925613756565b9091565b8181018301518582016024015282016138e9565b50505060009060405161394f816110c1565b6000815290565b9291613964916000946138a5565b9080613994575b6139725750565b6001600160a01b0391925080602080613990935183010191016110ff565b1690565b50602081511461396b565b92916139ad916000946138a5565b90806139d0575b6139bb5750565b61111491925060208082518301019101613365565b5060208151146139b4565b92916139e9916000946138a5565b9080613a0c575b6139f75750565b61111491925060208082518301019101612520565b5060208151146139f0565b9291613a25916000946138a5565b9080613a4a575b613a335750565b909150602081805181010312610383576020015190565b506020815114613a2c565b90602082519201517fffffffff00000000000000000000000000000000000000000000000000000000908181169360048110613a9057505050565b60040360031b82901b16169150565b6001600160a01b03811615613b5257600080918351908260208601915af190613ac6613756565b9115613ad0575090565b805160009190600411613b4c57613ae79150613a55565b815115613af75750805190602001fd5b6040517f21c09d340000000000000000000000000000000000000000000000000000000081527fffffffff00000000000000000000000000000000000000000000000000000000919091166004820152602490fd5b50613ae7565b606460405162461bcd60e51b815260206004820152601260248201527f6f776e2e696e76616c69642e74617267657400000000000000000000000000006044820152fd5b803b6000613ba3826117cd565b92613bb160405194856110dd565b82845260208401903c602d815110613bcd57602a015160601c90565b606460405162461bcd60e51b815260206004820152601360248201527f4e6f742061206d696e696d616c2070726f7879000000000000000000000000006044820152fdfea26469706673582212201843e7fec06c925f42b9c3179d83d398e4801c692b525ae0befdface59b050d664736f6c63430008140033","linkReferences":{}},"methodIdentifiers":{"Burn(uint256)":"b90306ad","LSB(uint256)":"a98bf4f9","_compute(uint256)":"2c2838e8","_delegatorCount()":"a1f7f539","_getImplementation(address)":"c54e44b0","_importOld(uint256)":"141ca660","_isDelegatorNode(address)":"e01ad5fd","_isSafe()":"e0a9bc2b","_isSecureBase(address)":"af484526","_isSigner(address)":"1f185d16","_txnType7(uint256,uint256)":"02a085f2","_txnType_1_0(address,uint256,uint256,uint256,uint256)":"932ca2d6","bonus()":"75b4d78c","cage()":"69245009","dage()":"725b6fff","getAllIncome(uint256,uint256)":"a20199ac","getBalance()":"12065fe0","getHexbase()":"3b9b7955","getNodeLB(uint256)":"da021335","getToggleAgeCount(uint256)":"143ec3b7","getToggleAgeValue(uint256,uint256)":"043719b4","id()":"af640d0f","isLock()":"09d8da2e","mintCount()":"9659867e","mints(uint256)":"6350b2c2","owner()":"8da5cb5b","postInit()":"4a65786c","preinit(address,address,uint256)":"52902c59","setBonus(uint256)":"0b98f975","setLock(bool)":"619d5194","setSuspend(uint256,bool)":"c8ef7b1a","systemAge()":"fdc10bc9","updateOwner(address)":"880cdc31","userCycleMintCount(uint256)":"39b4d61b","withdrawlDage()":"a9bf285b"},"id":53}