{"abi":[{"type":"constructor","inputs":[{"name":"_hex","type":"address","internalType":"address"}],"stateMutability":"nonpayable"},{"type":"fallback","stateMutability":"payable"},{"type":"receive","stateMutability":"payable"},{"type":"function","name":"Burn","inputs":[{"name":"amount","type":"uint256","internalType":"uint256"}],"outputs":[],"stateMutability":"nonpayable"},{"type":"function","name":"_delegatorCount","inputs":[],"outputs":[{"name":"","type":"uint256","internalType":"uint256"}],"stateMutability":"view"},{"type":"function","name":"_getImplementation","inputs":[{"name":"clone","type":"address","internalType":"address"}],"outputs":[{"name":"impl","type":"address","internalType":"address"}],"stateMutability":"view"},{"type":"function","name":"_isDelegatorNode","inputs":[{"name":"sender","type":"address","internalType":"address"}],"outputs":[{"name":"","type":"bool","internalType":"bool"}],"stateMutability":"view"},{"type":"function","name":"_isSafe","inputs":[],"outputs":[{"name":"","type":"bool","internalType":"bool"}],"stateMutability":"view"},{"type":"function","name":"_isSecureBase","inputs":[{"name":"sender","type":"address","internalType":"address"}],"outputs":[{"name":"","type":"bool","internalType":"bool"}],"stateMutability":"view"},{"type":"function","name":"_isSigner","inputs":[{"name":"sender","type":"address","internalType":"address"}],"outputs":[{"name":"","type":"bool","internalType":"bool"}],"stateMutability":"view"},{"type":"function","name":"execute","inputs":[{"name":"proposalId","type":"uint256","internalType":"uint256"},{"name":"_isapproved","type":"bool","internalType":"bool"}],"outputs":[],"stateMutability":"nonpayable"},{"type":"function","name":"getBalance","inputs":[],"outputs":[{"name":"","type":"uint256","internalType":"uint256"}],"stateMutability":"view"},{"type":"function","name":"getHexbase","inputs":[],"outputs":[{"name":"","type":"address","internalType":"address"}],"stateMutability":"view"},{"type":"function","name":"getProposal","inputs":[{"name":"proposalId","type":"uint256","internalType":"uint256"}],"outputs":[{"name":"","type":"string","internalType":"string"},{"name":"","type":"address","internalType":"address"},{"name":"","type":"uint256","internalType":"uint256"},{"name":"","type":"address","internalType":"address"},{"name":"","type":"bool","internalType":"bool"},{"name":"","type":"bool","internalType":"bool"}],"stateMutability":"view"},{"type":"function","name":"getProposalsCount","inputs":[],"outputs":[{"name":"","type":"uint256","internalType":"uint256"}],"stateMutability":"view"},{"type":"function","name":"getResult","inputs":[{"name":"proposalId","type":"uint256","internalType":"uint256"}],"outputs":[{"name":"","type":"uint256","internalType":"uint256"},{"name":"","type":"uint256","internalType":"uint256"},{"name":"","type":"uint256","internalType":"uint256"},{"name":"","type":"uint256","internalType":"uint256"},{"name":"","type":"bool","internalType":"bool"},{"name":"","type":"bool","internalType":"bool"}],"stateMutability":"view"},{"type":"function","name":"getSignCount","inputs":[{"name":"proposalId","type":"uint256","internalType":"uint256"}],"outputs":[{"name":"","type":"uint256","internalType":"uint256"}],"stateMutability":"view"},{"type":"function","name":"getStatus","inputs":[{"name":"proposalId","type":"uint256","internalType":"uint256"}],"outputs":[{"name":"","type":"bool","internalType":"bool"},{"name":"","type":"bool","internalType":"bool"}],"stateMutability":"view"},{"type":"function","name":"hasSigned","inputs":[{"name":"proposalId","type":"uint256","internalType":"uint256"},{"name":"signer","type":"address","internalType":"address"}],"outputs":[{"name":"","type":"bool","internalType":"bool"}],"stateMutability":"view"},{"type":"function","name":"hasVoted","inputs":[{"name":"proposalId","type":"uint256","internalType":"uint256"},{"name":"voter","type":"address","internalType":"address"}],"outputs":[{"name":"","type":"bool","internalType":"bool"}],"stateMutability":"view"},{"type":"function","name":"newProposal","inputs":[{"name":"desc","type":"string","internalType":"string"},{"name":"target","type":"address","internalType":"address"},{"name":"value","type":"uint256","internalType":"uint256"},{"name":"data","type":"bytes","internalType":"bytes"},{"name":"_deadline","type":"uint256","internalType":"uint256"},{"name":"_mustsigned","type":"bool","internalType":"bool"}],"outputs":[{"name":"","type":"uint256","internalType":"uint256"}],"stateMutability":"nonpayable"},{"type":"function","name":"owner","inputs":[],"outputs":[{"name":"","type":"address","internalType":"address"}],"stateMutability":"view"},{"type":"function","name":"proposals","inputs":[{"name":"","type":"uint256","internalType":"uint256"}],"outputs":[{"name":"description","type":"string","internalType":"string"},{"name":"target","type":"address","internalType":"address"},{"name":"value","type":"uint256","internalType":"uint256"},{"name":"data","type":"bytes","internalType":"bytes"},{"name":"votesup","type":"uint256","internalType":"uint256"},{"name":"sign","type":"uint256","internalType":"uint256"},{"name":"votesdown","type":"uint256","internalType":"uint256"},{"name":"deadline","type":"uint256","internalType":"uint256"},{"name":"wincount","type":"uint256","internalType":"uint256"},{"name":"mustsigned","type":"bool","internalType":"bool"},{"name":"exist","type":"bool","internalType":"bool"},{"name":"creator","type":"address","internalType":"address"},{"name":"status","type":"bool","internalType":"bool"},{"name":"resolved","type":"bool","internalType":"bool"}],"stateMutability":"view"},{"type":"function","name":"setWinPer","inputs":[{"name":"_per","type":"uint256","internalType":"uint256"},{"name":"_signer","type":"uint256","internalType":"uint256"}],"outputs":[],"stateMutability":"nonpayable"},{"type":"function","name":"systemAge","inputs":[],"outputs":[{"name":"","type":"uint256","internalType":"uint256"}],"stateMutability":"view"},{"type":"function","name":"vote","inputs":[{"name":"proposalId","type":"uint256","internalType":"uint256"},{"name":"updown","type":"bool","internalType":"bool"}],"outputs":[],"stateMutability":"nonpayable"},{"type":"event","name":"EthBurned","inputs":[{"name":"sender","type":"address","indexed":true,"internalType":"address"},{"name":"amount","type":"uint256","indexed":false,"internalType":"uint256"}],"anonymous":false},{"type":"event","name":"EthTransferred","inputs":[{"name":"to","type":"address","indexed":true,"internalType":"address"},{"name":"amount","type":"uint256","indexed":false,"internalType":"uint256"}],"anonymous":false},{"type":"event","name":"HexBaseUpdated","inputs":[{"name":"previousHexBase","type":"address","indexed":true,"internalType":"address"},{"name":"newHexBase","type":"address","indexed":true,"internalType":"address"}],"anonymous":false},{"type":"event","name":"OwnerUpdated","inputs":[{"name":"previousOwner","type":"address","indexed":true,"internalType":"address"},{"name":"newOwner","type":"address","indexed":true,"internalType":"address"}],"anonymous":false},{"type":"error","name":"TargetCallFailed","inputs":[{"name":"selector","type":"bytes4","internalType":"bytes4"}]}],"bytecode":{"object":"0x6080346100cf57601f6120fa38819003918201601f19168301916001600160401b038311848410176100d4578084926020946040528339810103126100cf57516001600160a01b038116908190036100cf57801561008a5760018060a01b03193381600154161760015560005416176000556033600355600360045560405161200f90816100eb8239f35b60405162461bcd60e51b815260206004820152601360248201527f6f776e2e696e76616c69642e68657862617365000000000000000000000000006044820152606490fd5b600080fd5b634e487b7160e01b600052604160045260246000fdfe60806040526004361015610018575b361561001657005b005b60003560e01c8063013cf08b1461018857806312065fe0146101835780631f185d161461017e5780633b9b7955146101795780634072265b14610174578063438596321461016f5780635c622a0e1461016a57806365153c4b14610165578063709df8d9146101605780638da5cb5b1461015b57806398e527d314610156578063995e433914610151578063a1f7f5391461014c578063af48452614610147578063b90306ad14610142578063c54e44b01461013d578063c7f758a814610138578063c9d27afe14610133578063d153356b1461012e578063e01ad5fd14610129578063e0a9bc2b14610124578063fdc10bc91461011f5763ffa734f00361000e57610f41565b610ef8565b610edd565b610eb6565b610dfb565b610c6d565b610bed565b610b05565b610a30565b61090b565b6108e8565b610864565b610846565b61081f565b6107e0565b610667565b610611565b6105ac565b61056f565b610548565b610517565b6104ea565b610425565b6005548110156101c857600c906005600052027f036b6384b5eca791c62761152d0c79bb0604c104a5fb6f4eb0703f3154bb3db00190600090565b634e487b7160e01b600052603260045260246000fd5b90600182811c9216801561020e575b60208310146101f857565b634e487b7160e01b600052602260045260246000fd5b91607f16916101ed565b9060009291805491610229836101de565b91828252600193848116908160001461028b575060011461024b575b50505050565b90919394506000526020928360002092846000945b838610610277575050505001019038808080610245565b805485870183015294019385908201610260565b9294505050602093945060ff191683830152151560051b01019038808080610245565b634e487b7160e01b600052604160045260246000fd5b6020810190811067ffffffffffffffff8211176102e057604052565b6102ae565b6040810190811067ffffffffffffffff8211176102e057604052565b90601f8019910116810190811067ffffffffffffffff8211176102e057604052565b9061033e6103379260405193848092610218565b0383610301565b565b60005b8381106103535750506000910152565b8181015183820152602001610343565b9060209161037c81518092818552858086019101610340565b601f01601f1916010190565b9b9997959392909e9d9c9a9896949e8c6101c08091528d016103a991610363565b916001600160a01b031660208d015260408c01528a810360608c01526103ce91610363565b9b60808a015260a089015260c088015260e087015261010086015261012085016103f89115159052565b15156101408401526001600160a01b031661016083015215156101808201526101a00161033e9115159052565b346104e55760203660031901126104e5576004356005548110156104e55761044c9061018d565b506040519061045f826103378184610218565b6104e161047660018301546001600160a01b031690565b60028301549061048860038501610323565b946004850154946005810154966006820154916007810154600a6008830154920154936040519a8b9a8b9560ff8860b81c169a60ff8960b01c169a6001600160a01b038a60101c169a60ff808c60081c169b1699610388565b0390f35b600080fd5b346104e55760003660031901126104e557602047604051908152f35b6001600160a01b038116036104e557565b346104e55760203660031901126104e557602061053e60043561053981610506565b6119c2565b6040519015158152f35b346104e55760003660031901126104e55760206001600160a01b0360005416604051908152f35b346104e55760203660031901126104e55760043560001981019081116105a757600561059c60209261018d565b500154604051908152f35b61130e565b346104e55760403660031901126104e5576004356024356105cc81610506565b60001982019182116105a75761060560ff9160096105eb60209561018d565b5001906001600160a01b0316600052602052604060002090565b54166040519015158152f35b346104e55760203660031901126104e55760043560001981019081116105a757600a61063e60409261018d565b50015460ff825191818160b01c161515835260b81c1615156020820152f35b801515036104e557565b346104e55760403660031901126104e5576004356024356106878161065d565b610690336119c2565b1561079c5760056106a86106a38461139d565b61018d565b5061076c61075f600b83016106e96106e46106e06106d93385906001600160a01b0316600052602052604060002090565b5460ff1690565b1590565b611523565b610747600a85015461070160ff8260b81c1615611442565b61071060ff8260081c166113ac565b61071c60ff821661156e565b610733610727611a6c565b600788015411156115b9565b60101c6001600160a01b03163314156114d8565b336001600160a01b0316600052602052604060002090565b805460ff19166001179055565b016107778154611604565b809155600454148015610794575b61078b57005b610016916116d6565b508015610785565b606460405162461bcd60e51b815260206004820152601260248201527f6f776e2e696e76616c69642e7369676e657200000000000000000000000000006044820152fd5b346104e55760403660031901126104e55760043560243561080081610506565b60001982019182116105a75761060560ff91600b6105eb60209561018d565b346104e55760003660031901126104e55760206001600160a01b0360015416604051908152f35b346104e55760003660031901126104e5576020600554604051908152f35b346104e55760203660031901126104e55760043560001981019081116105a75761088d9061018d565b506004810154600682015460078301546008840154600a9094015460408051948552602085019390935291830152606082019290925260ff60b083901c81161515608083015260b89290921c909116151560a082015260c090f35b346104e55760003660031901126104e5576020610903611c06565b604051908152f35b346104e5576020806003193601126104e55760049081359061092c82610506565b8061094e6109426000546001600160a01b031690565b6001600160a01b031690565b60405194858092634bf9c0ad60e11b82525afa918215610a2b576109a26109dc936109be926104e1966000926109f8575b506109b0906040519384918783019190916001600160a01b036020820193169052565b03601f198101845283610301565b6109b86118ba565b90611dc1565b9190806109ee575b6109cf906118f3565b80825183010191016117e5565b60405190151581529081906020820190565b50815181146109c6565b6109b0919250610a1d90863d8811610a24575b610a158183610301565b81019061175a565b919061097f565b503d610a0b565b611772565b346104e55760203660031901126104e55760046001600160a01b0360208160005416604051938480927f14d8d0240000000000000000000000000000000000000000000000000000000082525afa918215610a2b57600092610ae5575b5033911603610aa157610016600435611ccd565b606460405162461bcd60e51b815260206004820152600f60248201527f6f776e2e6e6f6e617574682e44414f00000000000000000000000000000000006044820152fd5b610afe91925060203d8111610a2457610a158183610301565b9038610a8d565b346104e55760203660031901126104e557600435610b2281610506565b803b6000610b2f8261177e565b92610b3d6040519485610301565b82845260208401903c602d815110610b6357602a015160405160609190911c8152602090f35b606460405162461bcd60e51b815260206004820152601360248201527f4e6f742061206d696e696d616c2070726f7879000000000000000000000000006044820152fd5b94919093610bc360a0959897949860c0885260c0880190610363565b976001600160a01b0380931660208801526040870152166060850152151560808401521515910152565b346104e55760203660031901126104e55760043560001981019081116105a757610c169061018d565b506001600160a01b036104e18160018401541691600284015493610c48610c4f600a8301549260405192838092610218565b0382610301565b60405195869560ff84169460ff8560081c169460101c169287610ba7565b346104e55760403660031901126104e557600435602435610c8d8161065d565b610c96336119c2565b8015610dd8575b610ca690611352565b610cb26106a38361139d565b50600a8101906008825493610ccb60ff86841c166113ac565b610ce26007840154610cdb611a6c565b11156113f7565b610cf260ff8660b81c1615611442565b610d256009840195610733610d206106e06106d9338b906001600160a01b0316600052602052604060002090565b61148d565b60008115610dd257506001905b610d4460ff6004860193168354611345565b8255600090610dc55750610d8461075f6001965b610d6a60ff6006880199168954611345565b8855336001600160a01b0316600052602052604060002090565b5491015480911092831593610db9575b505081610dac575b50610da357005b61001690611613565b5460ff1615905038610d9c565b54101591503880610d94565b61075f610d849196610d58565b90610d32565b50610de16117fa565b8015610c9d5750610ca6610df433611b25565b9050610c9d565b346104e55760403660031901126104e557610e146117fa565b15610e7257333003610e2e57600480356003556024359055005b606460405162461bcd60e51b815260206004820152600d60248201527f64616f2e66616b652e636f7265000000000000000000000000000000000000006044820152fd5b606460405162461bcd60e51b815260206004820152601260248201527f6f776e2e696e76616c69642e69735361666500000000000000000000000000006044820152fd5b346104e55760203660031901126104e557602061053e600435610ed881610506565b611b25565b346104e55760003660031901126104e557602061053e6117fa565b346104e55760003660031901126104e5576020610903611a6c565b9181601f840112156104e55782359167ffffffffffffffff83116104e557602083818601950101116104e557565b346104e55760c03660031901126104e55767ffffffffffffffff6004358181116104e557610f73903690600401610f13565b9091602435610f8181610506565b6064358281116104e557610f99903690600401610f13565b9160a43594610fa78661065d565b6001600160a01b038216156111ae5760055490680100000000000000008210156102e057610fdc60019283810160055561018d565b509581116102e057610ff881610ff288546101de565b886111f2565b6000601f8211600114611134579261107b94928261106a93600a99989661111b9c600092611129575b5050600019600383901b1c191690821b1787555b8601906001600160a01b03167fffffffffffffffffffffffff0000000000000000000000000000000000000000825416179055565b604435600285015560038401611246565b6110a161109a61109561108c611c06565b60035490611324565b611337565b6064900490565b60088201556110b96084356110b4611a6c565b611345565b60078201550180543360101b75ffffffffffffffffffffffffffffffffffffffff0000167fffffffffffffffffffff000000000000000000000000000000000000000000ff909116176101001760ff191660ff92151592909216919091179055565b600554604051908152602090f35b013590503880611021565b601f1982169061114988600052602060002090565b91815b81811061119857509383600a9998969361111b9c839461106a9761107b9b991061117e575b505050811b018755611035565b0135600019600384901b60f8161c19169055388080611171565b8b8301358455928501926020928301920161114c565b606460405162461bcd60e51b815260206004820152601260248201527f6f776e2e64656661756c742e73656e64657200000000000000000000000000006044820152fd5b90601f811161120057505050565b600091825260208220906020601f850160051c8301941061123c575b601f0160051c01915b82811061123157505050565b818155600101611225565b909250829061121c565b90929167ffffffffffffffff81116102e05761126c8161126684546101de565b846111f2565b6000601f82116001146112a6578192939460009261129b575b50508160011b916000199060031b1c1916179055565b013590503880611285565b601f198216946112bb84600052602060002090565b91805b8781106112f65750836001959697106112dc575b505050811b019055565b0135600019600384901b60f8161c191690553880806112d2565b909260206001819286860135815501940191016112be565b634e487b7160e01b600052601160045260246000fd5b818102929181159184041417156105a757565b90606382018092116105a757565b919082018092116105a757565b1561135957565b606460405162461bcd60e51b815260206004820152601660248201527f64616f2e6e6f6e617574682e64656c656761746f7273000000000000000000006044820152fd5b6000198101919082116105a757565b156113b357565b606460405162461bcd60e51b815260206004820152601160248201527f64616f2e70726f702e6e6f7465786973740000000000000000000000000000006044820152fd5b156113fe57565b606460405162461bcd60e51b815260206004820152601060248201527f64616f2e766f74696e672e656e646564000000000000000000000000000000006044820152fd5b1561144957565b606460405162461bcd60e51b815260206004820152601560248201527f64616f2e616c72656164792e636f6d706c6574656400000000000000000000006044820152fd5b1561149457565b606460405162461bcd60e51b815260206004820152601160248201527f64616f2e616c72656164792e766f7465640000000000000000000000000000006044820152fd5b156114df57565b606460405162461bcd60e51b815260206004820152601260248201527f64616f2e766f7465722e726573747269637400000000000000000000000000006044820152fd5b1561152a57565b606460405162461bcd60e51b815260206004820152601260248201527f64616f2e616c72656164792e7369676e656400000000000000000000000000006044820152fd5b1561157557565b606460405162461bcd60e51b815260206004820152601360248201527f64616f2e70726f702e6d7573747369676e6564000000000000000000000000006044820152fd5b156115c057565b606460405162461bcd60e51b815260206004820152601360248201527f64616f2e6265666f72652e646561646c696e65000000000000000000000000006044820152fd5b60001981146105a75760010190565b6106a361161f9161139d565b5060ff600a820161163d81600160b81b60ff60b81b19825416179055565b61166f6004840154600885015481101590816116c8575b50825460ff60b01b191690151560b01b60ff60b01b16178255565b5460b01c16806116b3575b6116815750565b8061169960016116b09301546001600160a01b031690565b6116aa600360028401549301610323565b90611edf565b50565b506116c160038201546101de565b151561167a565b905060068501541038611654565b6116e56106a361172b9261139d565b50600a8101805460ff60b81b1916600160b81b178155909280611748575b80611737575b815460ff60b01b191690151560b01b60ff60b01b161781555460b01c60ff1690565b806116b3576116815750565b506004830154600684015410611709565b50600483015460088401541115611703565b908160209103126104e5575161176f81610506565b90565b6040513d6000823e3d90fd5b67ffffffffffffffff81116102e057601f01601f191660200190565b156117a157565b606460405162461bcd60e51b815260206004820152601960248201527f6f776e2e7361666567756172642e63616c6c2e6661696c6564000000000000006044820152fd5b908160209103126104e5575161176f8161065d565b6001600160a01b03600054166040518091634bf9c0ad60e11b825281600460209384935afa918215610a2b5761176f926118829160009161189d575b50604051611843816102e5565b600881527f69735361666528290000000000000000000000000000000000000000000000008482015260405191611879836102c4565b60008352611dc1565b919080611893575b6109cf9061179a565b508151811461188a565b6118b49150833d8511610a2457610a158183610301565b38611836565b604051906118c7826102e5565b601582527f69735365637572654261736528616464726573732900000000000000000000006020830152565b156118fa57565b606460405162461bcd60e51b815260206004820152601a60248201527f6f776e2e736563757265626173652e63616c6c2e6661696c65640000000000006044820152fd5b6040519061194b826102e5565b601182527f69735369676e65722861646472657373290000000000000000000000000000006020830152565b1561197e57565b606460405162461bcd60e51b815260206004820152601660248201527f6f776e2e7369676e65722e63616c6c2e6661696c6564000000000000000000006044820152fd5b6000546001600160a01b0316604051918291634bf9c0ad60e11b835282600460209485935afa928315610a2b5761176f93611a2e926109a292600092611a49575b50611a26906040519384918783019190916001600160a01b036020820193169052565b6109b861193e565b919080611a3f575b6109cf90611977565b5081518114611a36565b611a26919250611a6590863d8811610a2457610a158183610301565b9190611a03565b600460206001600160a01b0360005416604051928380927f447aa3040000000000000000000000000000000000000000000000000000000082525afa8015610a2b5761176f91600091611b07575b50604051611ac7816102e5565b600581527f6167652829000000000000000000000000000000000000000000000000000000602082015260405191611afe836102c4565b60008352611e57565b611b1f915060203d8111610a2457610a158183610301565b38611aba565b6001600160a01b039081600054169060405192839263d1f956b160e01b845283600460209586935afa938415610a2b57600094611be1575b50604051911682820152818152611bb490611b77816102e5565b604051611b83816102e5565b601881527f697364656c656761746f724e6f6465286164647265737329000000000000000084820152600094611dc1565b919080611bd7575b611bc557505090565b61176f925080825183010191016117e5565b5080825114611bbc565b611bb492919450611bfe90843d8611610a2457610a158183610301565b939091611b5d565b600460206001600160a01b03600054166040519283809263d1f956b160e01b82525afa8015610a2b5761176f91600091611c7f575b50604051611c48816102e5565b601381527f67657464656c656761746f72436f756e74282900000000000000000000000000602082015260405191611afe836102c4565b611c97915060203d8111610a2457610a158183610301565b38611c3b565b3d15611cc8573d90611cae8261177e565b91611cbc6040519384610301565b82523d6000602084013e565b606090565b6000600460206001600160a01b03835416604051928380927f46f991ac0000000000000000000000000000000000000000000000000000000082525afa908115610a2b578284819382938391611da3575b505af1611d29611c9d565b5015611d5f5760405190815233907fcdcc745fe377b103b45fa0cec23ae3ef93d6fc6a84a01f0d18c40b354dd1d5d890602090a2565b606460405162461bcd60e51b815260206004820152600f60248201527f6f776e2e6275726e2e6661696c656400000000000000000000000000000000006044820152fd5b611dbb915060203d8111610a2457610a158183610301565b38611d1e565b803b15611e3e576000927fffffffff000000000000000000000000000000000000000000000000000000008360208695519101201690611e2b6024604051809360208201958652611e1b8151809260208686019101610340565b8101036004810184520182610301565b5191620dbba0fa611e3a611c9d565b9091565b505050600090604051611e50816102c4565b6000815290565b9291611e6591600094611dc1565b9080611e8a575b611e735750565b9091506020818051810103126104e5576020015190565b506020815114611e6c565b90602082519201517fffffffff00000000000000000000000000000000000000000000000000000000908181169360048110611ed057505050565b60040360031b82901b16169150565b9190916001600160a01b03811615611f9557600091829184519160208601915af190611f09611c9d565b9115611f13575090565b805160009190600411611f8f57611f2a9150611e95565b815115611f3a5750805190602001fd5b6040517f21c09d340000000000000000000000000000000000000000000000000000000081527fffffffff00000000000000000000000000000000000000000000000000000000919091166004820152602490fd5b50611f2a565b606460405162461bcd60e51b815260206004820152601260248201527f6f776e2e696e76616c69642e74617267657400000000000000000000000000006044820152fdfea264697066735822122077207168870ce1ca9d617f99b8a709d017e2d3446c12fecb53fbcd48abecaff464736f6c63430008140033","linkReferences":{}},"methodIdentifiers":{"Burn(uint256)":"b90306ad","_delegatorCount()":"a1f7f539","_getImplementation(address)":"c54e44b0","_isDelegatorNode(address)":"e01ad5fd","_isSafe()":"e0a9bc2b","_isSecureBase(address)":"af484526","_isSigner(address)":"1f185d16","execute(uint256,bool)":"65153c4b","getBalance()":"12065fe0","getHexbase()":"3b9b7955","getProposal(uint256)":"c7f758a8","getProposalsCount()":"98e527d3","getResult(uint256)":"995e4339","getSignCount(uint256)":"4072265b","getStatus(uint256)":"5c622a0e","hasSigned(uint256,address)":"709df8d9","hasVoted(uint256,address)":"43859632","newProposal(string,address,uint256,bytes,uint256,bool)":"ffa734f0","owner()":"8da5cb5b","proposals(uint256)":"013cf08b","setWinPer(uint256,uint256)":"d153356b","systemAge()":"fdc10bc9","vote(uint256,bool)":"c9d27afe"},"id":50}