{"abi":[{"type":"constructor","inputs":[{"name":"_hex","type":"address","internalType":"address"}],"stateMutability":"nonpayable"},{"type":"fallback","stateMutability":"payable"},{"type":"receive","stateMutability":"payable"},{"type":"function","name":"Burn","inputs":[{"name":"amount","type":"uint256","internalType":"uint256"}],"outputs":[],"stateMutability":"nonpayable"},{"type":"function","name":"_delegatorCount","inputs":[],"outputs":[{"name":"","type":"uint256","internalType":"uint256"}],"stateMutability":"view"},{"type":"function","name":"_getImplementation","inputs":[{"name":"clone","type":"address","internalType":"address"}],"outputs":[{"name":"impl","type":"address","internalType":"address"}],"stateMutability":"view"},{"type":"function","name":"_isDelegatorNode","inputs":[{"name":"sender","type":"address","internalType":"address"}],"outputs":[{"name":"","type":"bool","internalType":"bool"}],"stateMutability":"view"},{"type":"function","name":"_isSafe","inputs":[],"outputs":[{"name":"","type":"bool","internalType":"bool"}],"stateMutability":"view"},{"type":"function","name":"_isSecureBase","inputs":[{"name":"sender","type":"address","internalType":"address"}],"outputs":[{"name":"","type":"bool","internalType":"bool"}],"stateMutability":"view"},{"type":"function","name":"_isSigner","inputs":[{"name":"sender","type":"address","internalType":"address"}],"outputs":[{"name":"","type":"bool","internalType":"bool"}],"stateMutability":"view"},{"type":"function","name":"execute","inputs":[{"name":"proposalId","type":"uint256","internalType":"uint256"},{"name":"isapproved","type":"bool","internalType":"bool"}],"outputs":[],"stateMutability":"nonpayable"},{"type":"function","name":"getBalance","inputs":[],"outputs":[{"name":"","type":"uint256","internalType":"uint256"}],"stateMutability":"view"},{"type":"function","name":"getHexbase","inputs":[],"outputs":[{"name":"","type":"address","internalType":"address"}],"stateMutability":"view"},{"type":"function","name":"getProposal","inputs":[{"name":"proposalId","type":"uint256","internalType":"uint256"}],"outputs":[{"name":"","type":"string","internalType":"string"},{"name":"","type":"address","internalType":"address"},{"name":"","type":"uint256","internalType":"uint256"},{"name":"","type":"address","internalType":"address"},{"name":"","type":"bool","internalType":"bool"}],"stateMutability":"view"},{"type":"function","name":"getProposalsCount","inputs":[],"outputs":[{"name":"","type":"uint256","internalType":"uint256"}],"stateMutability":"view"},{"type":"function","name":"getResult","inputs":[{"name":"proposalId","type":"uint256","internalType":"uint256"}],"outputs":[{"name":"","type":"uint256","internalType":"uint256"},{"name":"","type":"uint256","internalType":"uint256"},{"name":"","type":"uint256","internalType":"uint256"},{"name":"","type":"uint256","internalType":"uint256"},{"name":"","type":"bool","internalType":"bool"},{"name":"","type":"bool","internalType":"bool"}],"stateMutability":"view"},{"type":"function","name":"getsign","inputs":[{"name":"proposalId","type":"uint256","internalType":"uint256"}],"outputs":[{"name":"","type":"uint256","internalType":"uint256"}],"stateMutability":"view"},{"type":"function","name":"hasVoted","inputs":[{"name":"proposalId","type":"uint256","internalType":"uint256"},{"name":"voter","type":"address","internalType":"address"}],"outputs":[{"name":"","type":"bool","internalType":"bool"}],"stateMutability":"view"},{"type":"function","name":"newProposal","inputs":[{"name":"desc","type":"string","internalType":"string"},{"name":"target","type":"address","internalType":"address"},{"name":"value","type":"uint256","internalType":"uint256"},{"name":"data","type":"bytes","internalType":"bytes"},{"name":"_deadline","type":"uint256","internalType":"uint256"}],"outputs":[{"name":"","type":"uint256","internalType":"uint256"}],"stateMutability":"nonpayable"},{"type":"function","name":"owner","inputs":[],"outputs":[{"name":"","type":"address","internalType":"address"}],"stateMutability":"view"},{"type":"function","name":"proposals","inputs":[{"name":"","type":"uint256","internalType":"uint256"}],"outputs":[{"name":"description","type":"string","internalType":"string"},{"name":"target","type":"address","internalType":"address"},{"name":"value","type":"uint256","internalType":"uint256"},{"name":"data","type":"bytes","internalType":"bytes"},{"name":"votesup","type":"uint256","internalType":"uint256"},{"name":"sign","type":"uint256","internalType":"uint256"},{"name":"votesdown","type":"uint256","internalType":"uint256"},{"name":"deadline","type":"uint256","internalType":"uint256"},{"name":"wincount","type":"uint256","internalType":"uint256"},{"name":"exist","type":"bool","internalType":"bool"},{"name":"creator","type":"address","internalType":"address"},{"name":"status","type":"bool","internalType":"bool"},{"name":"resolved","type":"bool","internalType":"bool"}],"stateMutability":"view"},{"type":"function","name":"setWinPer","inputs":[{"name":"_per","type":"uint256","internalType":"uint256"},{"name":"_signer","type":"uint256","internalType":"uint256"}],"outputs":[],"stateMutability":"nonpayable"},{"type":"function","name":"systemAge","inputs":[],"outputs":[{"name":"","type":"uint256","internalType":"uint256"}],"stateMutability":"view"},{"type":"function","name":"vote","inputs":[{"name":"proposalId","type":"uint256","internalType":"uint256"},{"name":"updown","type":"bool","internalType":"bool"}],"outputs":[],"stateMutability":"nonpayable"},{"type":"event","name":"EthBurned","inputs":[{"name":"sender","type":"address","indexed":true,"internalType":"address"},{"name":"amount","type":"uint256","indexed":false,"internalType":"uint256"}],"anonymous":false},{"type":"event","name":"EthTransferred","inputs":[{"name":"to","type":"address","indexed":true,"internalType":"address"},{"name":"amount","type":"uint256","indexed":false,"internalType":"uint256"}],"anonymous":false},{"type":"event","name":"HexBaseUpdated","inputs":[{"name":"previousHexBase","type":"address","indexed":true,"internalType":"address"},{"name":"newHexBase","type":"address","indexed":true,"internalType":"address"}],"anonymous":false},{"type":"event","name":"OwnerUpdated","inputs":[{"name":"previousOwner","type":"address","indexed":true,"internalType":"address"},{"name":"newOwner","type":"address","indexed":true,"internalType":"address"}],"anonymous":false},{"type":"error","name":"TargetCallFailed","inputs":[{"name":"selector","type":"bytes4","internalType":"bytes4"}]}],"bytecode":{"object":"0x6080346100cf57601f611c4c38819003918201601f19168301916001600160401b038311848410176100d4578084926020946040528339810103126100cf57516001600160a01b038116908190036100cf57801561008a5760018060a01b031933816001541617600155600054161760005560336003556003600455604051611b6190816100eb8239f35b60405162461bcd60e51b815260206004820152601360248201527f6f776e2e696e76616c69642e68657862617365000000000000000000000000006044820152606490fd5b600080fd5b634e487b7160e01b600052604160045260246000fdfe60806040526004361015610018575b361561001657005b005b60003560e01c8063013cf08b1461016857806312065fe0146101635780631f185d161461015e5780633595df1a146101595780633b9b795514610154578063438596321461014f57806365153c4b1461014a5780638da5cb5b1461014557806398e527d314610140578063995e43391461013b578063a1f7f53914610136578063af48452614610131578063b90306ad1461012c578063c54e44b014610127578063c7f758a814610122578063c9d27afe1461011d578063d153356b14610118578063d3a3084914610113578063e01ad5fd1461010e578063e0a9bc2b146101095763fdc10bc90361000e57610f59565b610f3e565b610f17565b610ccf565b610c00565b610aaa565b610a3b565b610961565b6108ae565b6107ac565b610789565b610705565b6106e7565b6106be565b6105cd565b610571565b610548565b6104f8565b6104c7565b61049a565b6103e6565b60055481101561018c576005600052600b602060002091020190600090565b634e487b7160e01b600052603260045260246000fd5b90600182811c921680156101d2575b60208310146101bc57565b634e487b7160e01b600052602260045260246000fd5b91607f16916101b1565b90600092918054916101ed836101a2565b91828252600193848116908160001461024f575060011461020f575b50505050565b90919394506000526020928360002092846000945b83861061023b575050505001019038808080610209565b805485870183015294019385908201610224565b9294505050602093945060ff191683830152151560051b01019038808080610209565b634e487b7160e01b600052604160045260246000fd5b602081019081106001600160401b038211176102a357604052565b610272565b604081019081106001600160401b038211176102a357604052565b601f909101601f19168101906001600160401b038211908210176102a357604052565b906103016102fa92604051938480926101dc565b03836102c3565b565b60005b8381106103165750506000910152565b8181015183820152602001610306565b9060209161033f81518092818552858086019101610303565b601f01601f1916010190565b98929561039e959e9d9b956103de99936101809c966103019f9a949960408e61037f6103d49d6101a0808452830190610326565b6001600160a01b03909516602082015201528c820360608e0152610326565b60808b019f909f5260a08a015260c089015260e088015261010087015215156101208601526001600160a01b0316610140850152565b1515610160830152565b019015159052565b34610495576020366003190112610495576004356005548110156104955761040d9061016d565b5060405190610420826102fa81846101dc565b600181015460028201546001600160a01b039182169390926104919290610449600382016102e6565b9560048201549160058101546006820154600783015491600a6008850154940154956040519b8c9b8c9760ff8a60b01c169b60ff808c60a81c169c8c60081c169b169961034b565b0390f35b600080fd5b3461049557600036600319011261049557602047604051908152f35b6001600160a01b0381160361049557565b346104955760203660031901126104955760206104ee6004356104e9816104b6565b6115ec565b6040519015158152f35b3461049557602036600319011261049557600435600019810190811161053057600561052560209261016d565b500154604051908152f35b61108f565b6001600160a01b03909116815260200190565b34610495576000366003190112610495576000546040516001600160a01b039091168152602090f35b3461049557604036600319011261049557600435602435610591816104b6565b6000198201918211610530576105b760ff9160096105b060209561016d565b50016111ea565b54166040519015158152f35b8015150361049557565b34610495576040366003190112610495576004356024356105ed816105c3565b6105f6336115ec565b15610684576000198201918083116105305761067f6106176100169461016d565b5061063260ff61062a33600985016111ea565b541615611201565b61066b600a8201549161064b60ff8460b01c16156111a6565b61065760ff8416611127565b6007610661611686565b9101541115611282565b60081c6001600160a01b0316331415611241565b6112d3565b60405162461bcd60e51b815260206004820152601260248201527137bbb71734b73b30b634b21739b4b3b732b960711b6044820152606490fd5b34610495576000366003190112610495576001546040516001600160a01b039091168152602090f35b34610495576000366003190112610495576020600554604051908152f35b346104955760203660031901126104955760043560001981019081116105305761072e9061016d565b506004810154600682015460078301546008840154600a9094015460408051948552602085019390935291830152606082019290925260ff60a883901c81161515608083015260b09290921c909116151560a082015260c090f35b346104955760003660031901126104955760206107a46117ee565b604051908152f35b3461049557602080600319360112610495576004908135906107cd826104b6565b60005481906001600160a01b0316604051634bf9c0ad60e11b815294859182905afa9182156108a95761082061085a9361083c9261049196600092610876575b5061082e90604051938491878301610535565b03601f1981018452836102c3565b610836611500565b9061197f565b91908061086c575b61084d90611531565b808251830101910161143d565b60405190151581529081906020820190565b5081518114610844565b61082e91925061089b90863d88116108a2575b61089381836102c3565b8101906113b6565b919061080d565b503d610889565b6113ce565b3461049557602036600319011261049557600054604051630536340960e21b8152906001600160a01b03906020908390600490829085165afa9182156108a957600092610941575b503391160361090a576100166004356118ae565b60405162461bcd60e51b815260206004820152600f60248201526e6f776e2e6e6f6e617574682e44414f60881b6044820152606490fd5b61095a91925060203d81116108a25761089381836102c3565b90386108f6565b346104955760203660031901126104955760043561097e816104b6565b803b600061098b826113da565b9261099960405194856102c3565b82845260208401903c602d8151106109c257602a61049191015160601c60405191829182610535565b60405162461bcd60e51b81526020600482015260136024820152724e6f742061206d696e696d616c2070726f787960681b6044820152606490fd5b93610a166080949796939260a0875260a0870190610326565b6001600160a01b03928316602087015260408601979097521660608401521515910152565b3461049557602036600319011261049557600435600019810190811161053057610a649061016d565b5060018060a01b0361049181600184015416926102fa6002820154610a94600a84015493604051938480926101dc565b60405195869560ff85169460081c1692866109fd565b3461049557604036600319011261049557600435602435610aca816105c3565b610ad3336115ec565b8015610bdd575b610ae3906110d3565b610bb2610ba5610afa610af585611118565b61016d565b50600a81015490610b0d60ff8316611127565b610b246007820154610b1d611686565b1115611167565b610b3460ff8360b01c16156111a6565b610b5f600982019261066b610b5a610b56610b4f33886111ea565b5460ff1690565b1590565b611201565b60008515610bd8575060015b610b7d60ff60048401921682546110c6565b9055600085610bca5750610b9c60ff60066001935b01921682546110c6565b905533906111ea565b805460ff19166001179055565b610bbb336115ec565b610bc157005b610016916112d3565b60ff6006610b9c9293610b92565b610b6b565b50610be6611452565b8015610ada5750610ae3610bf933611711565b9050610ada565b3461049557604036600319011261049557610c19611452565b15610c6857333003610c3357600480356003556024359055005b60405162461bcd60e51b815260206004820152600d60248201526c64616f2e66616b652e636f726560981b6044820152606490fd5b60405162461bcd60e51b81526020600482015260126024820152716f776e2e696e76616c69642e69735361666560701b6044820152606490fd5b9181601f84011215610495578235916001600160401b038311610495576020838186019501011161049557565b346104955760a0366003190112610495576001600160401b0360043581811161049557610d00903690600401610ca2565b602435610d0c816104b6565b60643584811161049557610d24903690600401610ca2565b9390926001600160a01b03831615610edd5760055491600160401b8310156102a357610d5760019384810160055561016d565b509682116102a357610d7382610d6d89546101a2565b89610f74565b600090601f8311600114610e635793600a969383610e4a999794610dd294610de398600092610e58575b5050600019600383901b1c191690821b1787555b860180546001600160a01b0319166001600160a01b03909216919091179055565b604435600285015560038401610fc8565b610e09610e02610dfd610df46117ee565b600354906110a5565b6110b8565b6064900490565b6008820155610e21608435610e1c611686565b6110c6565b6007820155018054610100600160a81b0319163360081b610100600160a81b0316178155610ba5565b600554604051908152602090f35b013590503880610d9d565b601f19831691610e7889600052602060002090565b92815b818110610ec757509484610dd294610de398948394610e4a9d9b98600a9d9a10610ead575b505050811b018755610db1565b0135600019600384901b60f8161c19169055388080610ea0565b8383013585559386019360209283019201610e7b565b60405162461bcd60e51b815260206004820152601260248201527137bbb7173232b330bab63a1739b2b73232b960711b6044820152606490fd5b346104955760203660031901126104955760206104ee600435610f39816104b6565b611711565b346104955760003660031901126104955760206104ee611452565b346104955760003660031901126104955760206107a4611686565b90601f8111610f8257505050565b600091825260208220906020601f850160051c83019410610fbe575b601f0160051c01915b828110610fb357505050565b818155600101610fa7565b9092508290610f9e565b9092916001600160401b0381116102a357610fed81610fe784546101a2565b84610f74565b6000601f8211600114611027578192939460009261101c575b50508160011b916000199060031b1c1916179055565b013590503880611006565b601f1982169461103c84600052602060002090565b91805b87811061107757508360019596971061105d575b505050811b019055565b0135600019600384901b60f8161c19169055388080611053565b9092602060018192868601358155019401910161103f565b634e487b7160e01b600052601160045260246000fd5b8181029291811591840414171561053057565b906063820180921161053057565b9190820180921161053057565b156110da57565b60405162461bcd60e51b815260206004820152601660248201527564616f2e6e6f6e617574682e64656c656761746f727360501b6044820152606490fd5b60001981019190821161053057565b1561112e57565b60405162461bcd60e51b815260206004820152601160248201527019185bcb9c1c9bdc0b9b9bdd195e1a5cdd607a1b6044820152606490fd5b1561116e57565b60405162461bcd60e51b815260206004820152601060248201526f19185bcb9d9bdd1a5b99cb995b99195960821b6044820152606490fd5b156111ad57565b60405162461bcd60e51b815260206004820152601560248201527419185bcb985b1c9958591e4b98dbdb5c1b195d1959605a1b6044820152606490fd5b9060018060a01b0316600052602052604060002090565b1561120857565b60405162461bcd60e51b815260206004820152601160248201527019185bcb985b1c9958591e4b9d9bdd1959607a1b6044820152606490fd5b1561124857565b60405162461bcd60e51b815260206004820152601260248201527119185bcb9d9bdd195c8b9c995cdd1c9a58dd60721b6044820152606490fd5b1561128957565b60405162461bcd60e51b815260206004820152601360248201527264616f2e6265666f72652e646561646c696e6560681b6044820152606490fd5b60001981146105305760010190565b610af56112df91611118565b50600581016112ee81546112c4565b8091556004541480156113ae575b611304575050565b600a8101805460ff60b01b1916600160b01b17815561136e92611349918161139b575b8161137157805460ff60a81b191691151560a81b60ff60a81b16919091179055565b60018101546001600160a01b03166113686003600284015493016102e6565b90611a6c565b50565b60048401546006850154109150805460ff60a81b191691151560a81b60ff60a81b16919091179055565b6004840154600885015411159150611327565b5081156112fc565b9081602091031261049557516113cb816104b6565b90565b6040513d6000823e3d90fd5b6001600160401b0381116102a357601f01601f191660200190565b156113fc57565b60405162461bcd60e51b81526020600482015260196024820152781bdddb8b9cd8599959dd585c990b98d85b1b0b99985a5b1959603a1b6044820152606490fd5b9081602091031261049557516113cb816105c3565b600054604051634bf9c0ad60e11b8152906020908190839060049082906001600160a01b03165afa9182156108a9576113cb926114c8916000916114e3575b5060405161149e816102a8565b6008815267697353616665282960c01b84820152604051916114bf83610288565b6000835261197f565b9190806114d9575b61084d906113f5565b50815181146114d0565b6114fa9150833d85116108a25761089381836102c3565b38611491565b6040519061150d826102a8565b601582527469735365637572654261736528616464726573732960581b6020830152565b1561153857565b60405162461bcd60e51b815260206004820152601a6024820152791bdddb8b9cd958dd5c9958985cd94b98d85b1b0b99985a5b195960321b6044820152606490fd5b60405190611587826102a8565b601182527069735369676e657228616464726573732960781b6020830152565b156115ae57565b60405162461bcd60e51b81526020600482015260166024820152751bdddb8b9cda59db995c8b98d85b1b0b99985a5b195960521b6044820152606490fd5b6000546001600160a01b0316604051918291634bf9c0ad60e11b835282600460209485935afa9283156108a9576113cb936116489261082092600092611663575b5061164090604051938491878301610535565b61083661157a565b919080611659575b61084d906115a7565b5081518114611650565b61164091925061167f90863d88116108a25761089381836102c3565b919061162d565b60005460405163111ea8c160e21b815290602090829060049082906001600160a01b03165afa80156108a9576113cb916000916116f3575b506040516116cb816102a8565b6005815264616765282960d81b6020820152604051916116ea83610288565b600083526119fd565b61170b915060203d81116108a25761089381836102c3565b386116be565b60005460405163d1f956b160e01b8152916020916001600160a01b039083908590600490829085165afa9384156108a9576000946117c9575b5060405191168282015281815261179c90611764816102a8565b604051611770816102a8565b6018815277697364656c656761746f724e6f646528616464726573732960401b8482015260009461197f565b9190806117bf575b6117ad57505090565b6113cb9250808251830101910161143d565b50808251146117a4565b61179c929194506117e690843d86116108a25761089381836102c3565b93909161174a565b60005460405163d1f956b160e01b815290602090829060049082906001600160a01b03165afa80156108a9576113cb91600091611860575b50604051611833816102a8565b601381527267657464656c656761746f72436f756e74282960681b6020820152604051916116ea83610288565b611878915060203d81116108a25761089381836102c3565b38611826565b3d156118a9573d9061188f826113da565b9161189d60405193846102c3565b82523d6000602084013e565b606090565b600080546040516311be646b60e21b815290602090829060049082906001600160a01b03165afa9081156108a9578284819382938391611961575b505af16118f461187e565b501561192a5760405190815233907fcdcc745fe377b103b45fa0cec23ae3ef93d6fc6a84a01f0d18c40b354dd1d5d890602090a2565b60405162461bcd60e51b815260206004820152600f60248201526e1bdddb8b989d5c9b8b99985a5b1959608a1b6044820152606490fd5b611979915060203d81116108a25761089381836102c3565b386118e9565b803b156119e457600092839263ffffffff60e01b906020815191012016906119d160246040518093602082019586526119c18151809260208686019101610303565b81010360048101845201826102c3565b5191620dbba0fa6119e061187e565b9091565b5050506000906040516119f681610288565b6000815290565b9291611a0b9160009461197f565b9080611a30575b611a195750565b909150602081805181010312610495576020015190565b506020815114611a12565b906020825192015163ffffffff60e01b908181169360048110611a5d57505050565b60040360031b82901b16169150565b9091906001600160a01b03811615611af157600091829184519160208601915af190611a9661187e565b9115611aa0575090565b805160009190600411611aeb57611ab79150611a3b565b815115611ac75750805190602001fd5b604051630870274d60e21b81526001600160e01b0319919091166004820152602490fd5b50611ab7565b60405162461bcd60e51b81526020600482015260126024820152711bdddb8b9a5b9d985b1a590b9d185c99d95d60721b6044820152606490fdfea2646970667358221220f2315d3e648ceea7fe7e23bc5335a91453d04dc9a2c2b4ccc359a665640c3a9964736f6c63430008140033","linkReferences":{}},"methodIdentifiers":{"Burn(uint256)":"b90306ad","_delegatorCount()":"a1f7f539","_getImplementation(address)":"c54e44b0","_isDelegatorNode(address)":"e01ad5fd","_isSafe()":"e0a9bc2b","_isSecureBase(address)":"af484526","_isSigner(address)":"1f185d16","execute(uint256,bool)":"65153c4b","getBalance()":"12065fe0","getHexbase()":"3b9b7955","getProposal(uint256)":"c7f758a8","getProposalsCount()":"98e527d3","getResult(uint256)":"995e4339","getsign(uint256)":"3595df1a","hasVoted(uint256,address)":"43859632","newProposal(string,address,uint256,bytes,uint256)":"d3a30849","owner()":"8da5cb5b","proposals(uint256)":"013cf08b","setWinPer(uint256,uint256)":"d153356b","systemAge()":"fdc10bc9","vote(uint256,bool)":"c9d27afe"},"id":23}