{"abi":[{"type":"constructor","inputs":[{"name":"_hex","type":"address","internalType":"address"}],"stateMutability":"nonpayable"},{"type":"fallback","stateMutability":"payable"},{"type":"receive","stateMutability":"payable"},{"type":"function","name":"Burn","inputs":[{"name":"amount","type":"uint256","internalType":"uint256"}],"outputs":[],"stateMutability":"nonpayable"},{"type":"function","name":"_delegatorCount","inputs":[],"outputs":[{"name":"","type":"uint256","internalType":"uint256"}],"stateMutability":"view"},{"type":"function","name":"_getImplementation","inputs":[{"name":"clone","type":"address","internalType":"address"}],"outputs":[{"name":"impl","type":"address","internalType":"address"}],"stateMutability":"view"},{"type":"function","name":"_isDelegatorNode","inputs":[{"name":"sender","type":"address","internalType":"address"}],"outputs":[{"name":"","type":"bool","internalType":"bool"}],"stateMutability":"view"},{"type":"function","name":"_isSafe","inputs":[],"outputs":[{"name":"","type":"bool","internalType":"bool"}],"stateMutability":"view"},{"type":"function","name":"_isSecureBase","inputs":[{"name":"sender","type":"address","internalType":"address"}],"outputs":[{"name":"","type":"bool","internalType":"bool"}],"stateMutability":"view"},{"type":"function","name":"_isSigner","inputs":[{"name":"sender","type":"address","internalType":"address"}],"outputs":[{"name":"","type":"bool","internalType":"bool"}],"stateMutability":"view"},{"type":"function","name":"addOrUpdateProposalTemplate","inputs":[{"name":"templateId","type":"uint256","internalType":"uint256"},{"name":"desc","type":"string","internalType":"string"},{"name":"target","type":"address","internalType":"address"},{"name":"selector","type":"bytes4","internalType":"bytes4"},{"name":"deadline","type":"uint256","internalType":"uint256"},{"name":"callType","type":"uint256","internalType":"uint256"},{"name":"active","type":"bool","internalType":"bool"}],"outputs":[],"stateMutability":"nonpayable"},{"type":"function","name":"createProposal","inputs":[{"name":"desc","type":"string","internalType":"string"},{"name":"target","type":"address","internalType":"address"},{"name":"value","type":"uint256","internalType":"uint256"},{"name":"data","type":"bytes","internalType":"bytes"},{"name":"deadline","type":"uint256","internalType":"uint256"}],"outputs":[{"name":"","type":"uint256","internalType":"uint256"}],"stateMutability":"nonpayable"},{"type":"function","name":"declineProposal","inputs":[{"name":"proposalId","type":"uint256","internalType":"uint256"}],"outputs":[],"stateMutability":"nonpayable"},{"type":"function","name":"getBalance","inputs":[],"outputs":[{"name":"","type":"uint256","internalType":"uint256"}],"stateMutability":"view"},{"type":"function","name":"getHexbase","inputs":[],"outputs":[{"name":"","type":"address","internalType":"address"}],"stateMutability":"view"},{"type":"function","name":"getProposal","inputs":[{"name":"proposalId","type":"uint256","internalType":"uint256"}],"outputs":[{"name":"","type":"string","internalType":"string"},{"name":"","type":"address","internalType":"address"},{"name":"","type":"uint256","internalType":"uint256"},{"name":"","type":"address","internalType":"address"},{"name":"","type":"bool","internalType":"bool"},{"name":"","type":"uint256","internalType":"uint256"}],"stateMutability":"view"},{"type":"function","name":"getProposalsCount","inputs":[],"outputs":[{"name":"","type":"uint256","internalType":"uint256"}],"stateMutability":"view"},{"type":"function","name":"getResult","inputs":[{"name":"proposalId","type":"uint256","internalType":"uint256"}],"outputs":[{"name":"","type":"uint256","internalType":"uint256"},{"name":"","type":"uint256","internalType":"uint256"},{"name":"","type":"uint256","internalType":"uint256"},{"name":"","type":"uint256","internalType":"uint256"},{"name":"","type":"bool","internalType":"bool"},{"name":"","type":"bool","internalType":"bool"}],"stateMutability":"view"},{"type":"function","name":"getStatus","inputs":[{"name":"proposalId","type":"uint256","internalType":"uint256"}],"outputs":[{"name":"","type":"bool","internalType":"bool"},{"name":"","type":"bool","internalType":"bool"}],"stateMutability":"view"},{"type":"function","name":"hasVoted","inputs":[{"name":"proposalId","type":"uint256","internalType":"uint256"},{"name":"voter","type":"address","internalType":"address"}],"outputs":[{"name":"","type":"bool","internalType":"bool"}],"stateMutability":"view"},{"type":"function","name":"newProposal","inputs":[{"name":"templateId","type":"uint256","internalType":"uint256"},{"name":"targetuser","type":"address","internalType":"address"},{"name":"params","type":"bytes","internalType":"bytes"},{"name":"value","type":"uint256","internalType":"uint256"}],"outputs":[{"name":"","type":"uint256","internalType":"uint256"}],"stateMutability":"nonpayable"},{"type":"function","name":"owner","inputs":[],"outputs":[{"name":"","type":"address","internalType":"address"}],"stateMutability":"view"},{"type":"function","name":"proposalTemplates","inputs":[{"name":"","type":"uint256","internalType":"uint256"}],"outputs":[{"name":"desc","type":"string","internalType":"string"},{"name":"target","type":"address","internalType":"address"},{"name":"selector","type":"bytes4","internalType":"bytes4"},{"name":"active","type":"bool","internalType":"bool"},{"name":"deadline","type":"uint256","internalType":"uint256"},{"name":"callType","type":"uint256","internalType":"uint256"}],"stateMutability":"view"},{"type":"function","name":"proposals","inputs":[{"name":"","type":"uint256","internalType":"uint256"}],"outputs":[{"name":"description","type":"string","internalType":"string"},{"name":"target","type":"address","internalType":"address"},{"name":"value","type":"uint256","internalType":"uint256"},{"name":"data","type":"bytes","internalType":"bytes"},{"name":"votesup","type":"uint256","internalType":"uint256"},{"name":"votesdown","type":"uint256","internalType":"uint256"},{"name":"deadline","type":"uint256","internalType":"uint256"},{"name":"wincount","type":"uint256","internalType":"uint256"},{"name":"exist","type":"bool","internalType":"bool"},{"name":"creator","type":"address","internalType":"address"},{"name":"status","type":"bool","internalType":"bool"},{"name":"resolved","type":"bool","internalType":"bool"},{"name":"templateId","type":"uint256","internalType":"uint256"}],"stateMutability":"view"},{"type":"function","name":"setProposalTemplateStatus","inputs":[{"name":"templateId","type":"uint256","internalType":"uint256"},{"name":"active","type":"bool","internalType":"bool"}],"outputs":[],"stateMutability":"nonpayable"},{"type":"function","name":"setWinPer","inputs":[{"name":"_per","type":"uint256","internalType":"uint256"}],"outputs":[],"stateMutability":"nonpayable"},{"type":"function","name":"syncBaseAddr","inputs":[],"outputs":[],"stateMutability":"nonpayable"},{"type":"function","name":"systemAge","inputs":[],"outputs":[{"name":"","type":"uint256","internalType":"uint256"}],"stateMutability":"view"},{"type":"function","name":"templateCount","inputs":[],"outputs":[{"name":"","type":"uint256","internalType":"uint256"}],"stateMutability":"view"},{"type":"function","name":"vote","inputs":[{"name":"proposalId","type":"uint256","internalType":"uint256"},{"name":"updown","type":"bool","internalType":"bool"}],"outputs":[],"stateMutability":"nonpayable"},{"type":"event","name":"EthBurned","inputs":[{"name":"sender","type":"address","indexed":true,"internalType":"address"},{"name":"amount","type":"uint256","indexed":false,"internalType":"uint256"}],"anonymous":false},{"type":"event","name":"EthTransferred","inputs":[{"name":"to","type":"address","indexed":true,"internalType":"address"},{"name":"amount","type":"uint256","indexed":false,"internalType":"uint256"}],"anonymous":false},{"type":"event","name":"HexBaseUpdated","inputs":[{"name":"previousHexBase","type":"address","indexed":true,"internalType":"address"},{"name":"newHexBase","type":"address","indexed":true,"internalType":"address"}],"anonymous":false},{"type":"event","name":"OwnerUpdated","inputs":[{"name":"previousOwner","type":"address","indexed":true,"internalType":"address"},{"name":"newOwner","type":"address","indexed":true,"internalType":"address"}],"anonymous":false},{"type":"event","name":"ProposalCreated","inputs":[{"name":"proposalId","type":"uint256","indexed":true,"internalType":"uint256"},{"name":"templateId","type":"uint256","indexed":true,"internalType":"uint256"},{"name":"creator","type":"address","indexed":true,"internalType":"address"},{"name":"target","type":"address","indexed":false,"internalType":"address"}],"anonymous":false},{"type":"event","name":"ProposalDeclined","inputs":[{"name":"proposalId","type":"uint256","indexed":true,"internalType":"uint256"}],"anonymous":false},{"type":"event","name":"ProposalExecuted","inputs":[{"name":"proposalId","type":"uint256","indexed":true,"internalType":"uint256"},{"name":"status","type":"bool","indexed":false,"internalType":"bool"}],"anonymous":false},{"type":"event","name":"ProposalTemplateCreated","inputs":[{"name":"templateId","type":"uint256","indexed":true,"internalType":"uint256"},{"name":"desc","type":"string","indexed":false,"internalType":"string"},{"name":"target","type":"address","indexed":true,"internalType":"address"},{"name":"selector","type":"bytes4","indexed":false,"internalType":"bytes4"},{"name":"callType","type":"uint256","indexed":false,"internalType":"uint256"}],"anonymous":false},{"type":"event","name":"ProposalTemplateStatus","inputs":[{"name":"templateId","type":"uint256","indexed":true,"internalType":"uint256"},{"name":"active","type":"bool","indexed":false,"internalType":"bool"}],"anonymous":false},{"type":"event","name":"ProposalTemplateUpdated","inputs":[{"name":"templateId","type":"uint256","indexed":true,"internalType":"uint256"},{"name":"desc","type":"string","indexed":false,"internalType":"string"},{"name":"target","type":"address","indexed":true,"internalType":"address"},{"name":"selector","type":"bytes4","indexed":false,"internalType":"bytes4"},{"name":"deadline","type":"uint256","indexed":false,"internalType":"uint256"},{"name":"callType","type":"uint256","indexed":false,"internalType":"uint256"}],"anonymous":false},{"type":"event","name":"ProposalVoted","inputs":[{"name":"proposalId","type":"uint256","indexed":true,"internalType":"uint256"},{"name":"voter","type":"address","indexed":true,"internalType":"address"},{"name":"vote","type":"bool","indexed":false,"internalType":"bool"}],"anonymous":false},{"type":"error","name":"CallFailed","inputs":[]},{"type":"error","name":"InvalidAddress","inputs":[]},{"type":"error","name":"InvalidState","inputs":[]},{"type":"error","name":"NotAuthorized","inputs":[]},{"type":"error","name":"NotSafe","inputs":[]},{"type":"error","name":"TargetCallFailed","inputs":[{"name":"selector","type":"bytes4","internalType":"bytes4"}]}],"bytecode":{"object":"0x6080346200009e57601f620030a538819003918201601f19168301916001600160401b03831184841017620000a3578084926020946040528339810103126200009e57516001600160a01b038116908190036200009e5780156200008c5760018060a01b03193381600154161760015560005416176000556001601155604051612feb9081620000ba8239f35b60405163e6c4247b60e01b8152600490fd5b600080fd5b634e487b7160e01b600052604160045260246000fdfe60806040526004361015610018575b361561001657005b005b60003560e01c8063013cf08b146101c857806312065fe0146101c35780631f185d16146101be57806326705c3c146101b9578063339459a6146101b45780633b9b7955146101af57806343859632146101aa57806345a257bc146101a55780635c622a0e146101a0578063604ff4b11461019b578063896d6db1146101965780638da5cb5b1461019157806398e527d31461018c578063995e433914610187578063a1f7f53914610182578063af4845261461017d578063b7ccfe3214610178578063b90306ad14610173578063c54e44b01461016e578063c7f758a814610169578063c9d27afe14610164578063cc48bf161461015f578063d3325a2c1461015a578063e01ad5fd14610155578063e0a9bc2b14610150578063eeebb3c31461014b5763fdc10bc90361000e57611ce6565b611a25565b611a0a565b6119e3565b611954565b61181f565b611684565b61160e565b611546565b611438565b6113a6565b6112bf565b61129c565b611218565b6111fa565b6111d3565b61113a565b61105b565b61100f565b610d66565b610cc4565b610c9d565b6105a5565b610587565b610556565b610529565b610465565b634e487b7160e01b600052603260045260246000fd5b60125481101561021e57600b906012600052027fbb8a6a4669ba250d26cd7a459eca9d215f8307e33aebe50379bc5a3617ec34440190600090565b6101cd565b90600182811c92168015610253575b602083101461023d57565b634e487b7160e01b600052602260045260246000fd5b91607f1691610232565b906000929180549161026e83610223565b9182825260019384811690816000146102d05750600114610290575b50505050565b90919394506000526020928360002092846000945b8386106102bc57505050500101903880808061028a565b8054858701830152940193859082016102a5565b9294505050602093945060ff191683830152151560051b0101903880808061028a565b634e487b7160e01b600052604160045260246000fd5b6040810190811067ffffffffffffffff82111761032557604052565b6102f3565b6020810190811067ffffffffffffffff82111761032557604052565b90601f8019910116810190811067ffffffffffffffff82111761032557604052565b9061038361037c926040519384809261025d565b0383610346565b565b60005b8381106103985750506000910152565b8181015183820152602001610388565b906020916103c181518092818552858086019101610385565b601f01601f1916010190565b99939561041d61044d969f9e9d99936101809d986104619c9660408f6001600160a01b036104076104579f996101a08085528401906103a8565b9516602082015201528d820360608f01526103a8565b9e60808c015260a08b015260c08a015260e089015215156101008801526101208701906001600160a01b03169052565b1515610140850152565b1515610160830152565b0152565b34610524576020366003190112610524576004356012548110156105245761048c906101e3565b506040516104a58161049e818561025d565b0382610346565b6105206104bc60018401546001600160a01b031690565b6002840154906104ce60038601610368565b93600486015495600581015493600682015460078301549060096008850154940154966040519a8b9a8b9560ff8860b01c169960ff8960a81c169960ff6001600160a01b038b60081c169a16986103cd565b0390f35b600080fd5b3461052457600036600319011261052457602047604051908152f35b6001600160a01b0381160361052457565b3461052457602036600319011261052457602061057d60043561057881610545565b612bfd565b6040519015158152f35b34610524576000366003190112610524576020601454604051908152f35b34610524576000366003190112610524576105d76105cb6000546001600160a01b031690565b6001600160a01b031690565b604051907f97f3815a000000000000000000000000000000000000000000000000000000008252602082600481845afa918215610acd57600092610c7c575b50604051917fcfbffe53000000000000000000000000000000000000000000000000000000008352602083600481855afa928315610acd57600093610c5b575b50604051907fab6e844f000000000000000000000000000000000000000000000000000000008252602082600481865afa918215610acd57600092610c3a575b50604051917f14d8d024000000000000000000000000000000000000000000000000000000008352602083600481875afa928315610acd57600093610c19575b50604051927fd1f956b1000000000000000000000000000000000000000000000000000000008452602084600481885afa938415610acd57600094610bf8575b50604051937fe61dfd58000000000000000000000000000000000000000000000000000000008552602085600481895afa948515610acd57600095610bd7575b506040517fe09d394d0000000000000000000000000000000000000000000000000000000081526020816004818a5afa908115610acd57600091610bb8575b506040517f52b06d640000000000000000000000000000000000000000000000000000000081526020816004818b5afa908115610acd57600091610b99575b506040517f013cf08b00000000000000000000000000000000000000000000000000000000815260006004820152916020836024818c5afa928315610acd57600093610b78575b50604051977f5e09dbe70000000000000000000000000000000000000000000000000000000089526020896004818d5afa948515610acd57600499600096610b57575b5060208b6040519b8c80927faa0ddc160000000000000000000000000000000000000000000000000000000082525afa968715610acd5760049a600098610b36575b5060208c6040519c8d80927f640274270000000000000000000000000000000000000000000000000000000082525afa988915610acd5760049b60009a610b15575b5060208d6040519d8e80927f30125cf50000000000000000000000000000000000000000000000000000000082525afa9a8b15610acd578d60049d60009d610af3575b506020906040519e8f80927f24768d910000000000000000000000000000000000000000000000000000000082525afa9c8d15610acd5760009d610ad2575b50604051809e81907f9dc969a80000000000000000000000000000000000000000000000000000000082525a92600491602094fa9d8e15610acd5760009e610a9c575b506109b06118c0565b6001600160a01b0390911681529d8e906001600160a01b03166020820152604001906109e491906001600160a01b03169052565b6001600160a01b031660608d01526001600160a01b031660808c01526001600160a01b031660a08b01526001600160a01b031660c08a01526001600160a01b031660e08901526001600160a01b03166101008801526001600160a01b03166101208701526001600160a01b03166101408601526001600160a01b03166101608501526001600160a01b03166101808401526001600160a01b03166101a08301526001600160a01b03166101c082015261001690612862565b610abf919e5060203d602011610ac6575b610ab78183610346565b8101906122dc565b9c386109a7565b503d610aad565b612856565b610aec919d5060203d602011610ac657610ab78183610346565b9b38610964565b6020919d50610b0e90823d8411610ac657610ab78183610346565b9c90610925565b610b2f919a5060203d602011610ac657610ab78183610346565b98386108e2565b610b5091985060203d602011610ac657610ab78183610346565b96386108a0565b610b7191965060203d602011610ac657610ab78183610346565b943861085e565b610b9291935060203d602011610ac657610ab78183610346565b913861081b565b610bb2915060203d602011610ac657610ab78183610346565b386107d4565b610bd1915060203d602011610ac657610ab78183610346565b38610795565b610bf191955060203d602011610ac657610ab78183610346565b9338610756565b610c1291945060203d602011610ac657610ab78183610346565b9238610716565b610c3391935060203d602011610ac657610ab78183610346565b91386106d6565b610c5491925060203d602011610ac657610ab78183610346565b9038610696565b610c7591935060203d602011610ac657610ab78183610346565b9138610656565b610c9691925060203d602011610ac657610ab78183610346565b9038610616565b346105245760003660031901126105245760206001600160a01b0360005416604051908152f35b3461052457604036600319011261052457600435602435610ce481610545565b6000198201918211610d2957610d1d60ff91600a610d036020956101e3565b5001906001600160a01b0316600052602052604060002090565b54166040519015158152f35b612213565b9181601f840112156105245782359167ffffffffffffffff8311610524576020838186019501011161052457565b8015150361052457565b346105245760e03660031901126105245760043560243567ffffffffffffffff811161052457610d9a903690600401610d2e565b604435610da681610545565b606435936001600160e01b031985168086036105245760843560a4359260c43592610dd084610d5c565b610dd933612bfd565b15610ffe57610df490610ded881515611d01565b1515611d4c565b8315801590610fec575b610e0790611d97565b80610ed15750610ecc9593610ec4610016989694610eb07f0454182b30f1740c505634bb66f7f3001e232b3c8797a62b1db11b347a891ff4956001600160a01b0395610e8a610e546118e1565b92610e60368c8e61191d565b84526001600160a01b03881660208501526001600160e01b03198d16604085015215156060840152565b60808201528260a0820152610eab6014546000526013602052604060002090565b612064565b6014549788966040519586951698856121e5565b0390a3612229565b601455565b968294610fd288957f74608b2c8ffedaacf37a0fda8ea5cb94ebae20dc104623eb2fabb1bcec211608946001600160a01b03948a610fc48e997f2dd3ae6155b13a46b2374a1f42e0733244754e572ec9f0034b698efefa8673a19e610f5b610fe79f610f548e610f446014548210611de2565b6000526013602052604060002090565b9283611e81565b8660036001830192610f838c85906001600160a01b03166001600160a01b0319825416179055565b835463ffffffff60a01b1916604089901c63ffffffff60a01b1617845588600282015501559060ff60c01b1960ff60c01b835492151560c01b169116179055565b604051968796169986611f6a565b0390a360405190151581529081906020820190565b0390a2005b506001600160a01b0385161515610dfe565b600460405163ea8e4eb560e01b8152fd5b34610524576020366003190112610524576004356000198101908111610d2957600861103c6040926101e3565b50015460ff825191818160a81c161515835260b01c1615156020820152f35b3461052457602036600319011261052457600435611077612b78565b15611129573330036110e557801515806110da575b1561109657601155005b606460405162461bcd60e51b815260206004820152601660248201527f64616f2e696e76616c69642e70657263656e74616765000000000000000000006044820152fd5b50606481111561108c565b606460405162461bcd60e51b815260206004820152600d60248201527f64616f2e66616b652e636f7265000000000000000000000000000000000000006044820152fd5b6004604051634ee2123760e11b8152fd5b346105245760203660031901126105245760043560005260136020526111976040600020604051906111708261037c818461025d565b600181015490600360028201549101549060ff60405195869560c0875260c08701906103a8565b936001600160a01b03811660208701526001600160e01b03198160401b16604087015260c01c1615156060850152608084015260a08301520390f35b346105245760003660031901126105245760206001600160a01b0360015416604051908152f35b34610524576000366003190112610524576020601254604051908152f35b34610524576020366003190112610524576004356000198101908111610d2957611241906101e3565b50600481015460058201546006830154600784015460089094015460408051948552602085019390935291830152606082019290925260ff60a883901c81161515608083015260b09290921c909116151560a082015260c090f35b346105245760003660031901126105245760206112b7612d47565b604051908152f35b34610524576020806003193601126105245761133e6004356112e081610545565b6001600160a01b0380600254169060405192168483015283825261130382610309565b6040519061131082610309565b601582527f697353656375726542617365286164647265737329000000000000000000000085830152612dc9565b91908061139c575b156113725781816113609261052094518301019101612b63565b60405190151581529081906020820190565b60046040517f3204506f000000000000000000000000000000000000000000000000000000008152fd5b5080825114611346565b34610524576040366003190112610524576004356024356113c681610d5c565b6113cf33612bfd565b15610ffe5760207f2dd3ae6155b13a46b2374a1f42e0733244754e572ec9f0034b698efefa8673a1916114056014548510611de2565b60008481526013835260409020600101805460ff60c01b191682151560c01b60ff60c01b161790556040519015158152a2005b3461052457602036600319011261052457600435611454612b78565b15611129576001600160a01b03600554163303610ffe57600090600460206114866105cb85546001600160a01b031690565b604051928380927f46f991ac0000000000000000000000000000000000000000000000000000000082525afa8015610acd5783808481949382948391611528575b505af16114d2612d99565b5015611372577fcdcc745fe377b103b45fa0cec23ae3ef93d6fc6a84a01f0d18c40b354dd1d5d86115226115116105cb600b546001600160a01b031690565b604051938452929081906020820190565b0390a280f35b611540915060203d8111610ac657610ab78183610346565b386114c7565b346105245760203660031901126105245760043561156381610545565b803b600061157082611901565b9261157e6040519485610346565b82845260208401903c602d8151106115a257602a602091015160601c604051908152f35b60046040517fbaf3f0f7000000000000000000000000000000000000000000000000000000008152fd5b929695949190936115e760a09560c0865260c08601906103a8565b976001600160a01b0380931660208601526040850152166060830152151560808201520152565b34610524576020366003190112610524576004356000198101908111610d2957611637906101e3565b506001600160a01b036105208160018401541692600281015461037c60088301549161166e6009850154946040519384809261025d565b60405196879660ff85169460081c1692876115cc565b34610524576040366003190112610524576004356024356116a481610d5c565b6116ac612b78565b15611129576116ba33612ce2565b15610ffe5781151580611813575b6116d1906125ab565b6116e26116dd836125f6565b6101e3565b509061171a60ff60088401546116f9828216612605565b6117106006860154611709612c87565b1115612650565b60b01c161561269b565b61177f611772600a840161175a61175561175161174a3385906001600160a01b0316600052602052604060002090565b5460ff1690565b1590565b6126e6565b336001600160a01b0316600052602052604060002090565b805460ff19166001179055565b80156117fe57600482016117938154612229565b90555b6040519015158152339083907f0def80f9a3b4c7a4251442658ccf516bf33ea4acaf31638fc6da8ebdb0f64c7290602090a360048101546007820154809110918215926117ef575b50506117e657005b61001690612731565b600501541015905038806117de565b6005820161180c8154612229565b9055611796565b506012548211156116c8565b346105245760203660031901126105245760043561183c33612bfd565b15610ffe57801515806118b4575b611853906125ab565b6000198101818111610d295761186a6008916101e3565b5001600160b01b60ff60b01b19825461188960ff8260b01c161561269b565b161790557f4cf2797951877f41b38931a68643f9249273f32fd396532213aa4f1222c9d16b600080a2005b5060125481111561184a565b604051906101e0820182811067ffffffffffffffff82111761032557604052565b6040519060c0820182811067ffffffffffffffff82111761032557604052565b67ffffffffffffffff811161032557601f01601f191660200190565b92919261192982611901565b916119376040519384610346565b829481845281830111610524578281602093846000960137010152565b346105245760a03660031901126105245767ffffffffffffffff60043581811161052457611986903690600401610d2e565b60249291923561199581610545565b606435928311610524573660238401121561052457610520936119c56119d394369060248160040135910161191d565b916084359360443592612480565b6040519081529081906020820190565b3461052457602036600319011261052457602061057d600435611a0581610545565b612ce2565b3461052457600036600319011261052457602061057d612b78565b346105245760803660031901126105245760046024358135611a4682610545565b60443567ffffffffffffffff811161052457611a659036908501610d2e565b9290611a6f612b78565b15611cd657611a7d33612ce2565b15611cc657611ae69150611a946014548410611de2565b611aa8836000526013602052604060002090565b90600182015490611abe60ff8360c01c16612238565b6001600160a01b0360409687519586916020946001600160e01b0319878c1b16868501612283565b0392611afa601f1994858101885287610346565b169160038401805480611b39575b61052089611b2a8a8a8a8a600282015493611b2560643593610368565b612369565b90519081529081906020820190565b89546001600160a01b031690611b876117518b51611b7981611b6d8b8b83019190916001600160a01b036020820193169052565b03888101835282610346565b611b816122a3565b85612e44565b611cb757916105209a918a6001611b2a9b9a999897969514611c45575b505054600214611bba575b839495969750611b08565b611c1f611c3d94611c2b6105cb9594611bdd611c3095546001600160a01b031690565b8d517f76fe6c4500000000000000000000000000000000000000000000000000000000888201526001600160a01b039094166024850152929384906044820190565b03908101845283610346565b612ef0565b80518101820191016122dc565b388080611baf565b517f0e5fd00b00000000000000000000000000000000000000000000000000000000868201526001600160a01b0390961660248701529094600291611caf916105cb91611ca19190611c2b826044810103898101845283610346565b8680825183010191016122dc565b94908a611ba4565b8a8a5163ea8e4eb560e01b8152fd5b8460405163ea8e4eb560e01b8152fd5b84604051634ee2123760e11b8152fd5b346105245760003660031901126105245760206112b7612c87565b15611d0857565b606460405162461bcd60e51b815260206004820152601760248201527f64616f2e74656d706c6174652e656d7074792e646573630000000000000000006044820152fd5b15611d5357565b606460405162461bcd60e51b815260206004820152601a60248201527f64616f2e74656d706c6174652e7a65726f2e73656c6563746f720000000000006044820152fd5b15611d9e57565b606460405162461bcd60e51b815260206004820152601860248201527f64616f2e74656d706c6174652e7a65726f2e74617267657400000000000000006044820152fd5b15611de957565b606460405162461bcd60e51b815260206004820152601460248201527f64616f2e74656d706c6174652e696e76616c69640000000000000000000000006044820152fd5b90601f8111611e3b57505050565b600091825260208220906020601f850160051c83019410611e77575b601f0160051c01915b828110611e6c57505050565b818155600101611e60565b9092508290611e57565b90929167ffffffffffffffff811161032557611ea781611ea18454610223565b84611e2d565b6000601f8211600114611ee15781929394600092611ed6575b50508160011b916000199060031b1c1916179055565b013590503880611ec0565b601f19821694611ef684600052602060002090565b91805b878110611f31575083600195969710611f17575b505050811b019055565b0135600019600384901b60f8161c19169055388080611f0d565b90926020600181928686013581550194019101611ef9565b908060209392818452848401376000828201840152601f01601f1916010190565b91611f8d606094979695926001600160e01b031992608086526080860191611f49565b9616602083015260408201520152565b919091825167ffffffffffffffff811161032557611fbf81611ea18454610223565b602080601f8311600114611ffa575081929394600092611fef5750508160011b916000199060031b1c1916179055565b015190503880611ec0565b90601f1983169561201085600052602060002090565b926000905b88821061204c5750508360019596971061203357505050811b019055565b015160001960f88460031b161c19169055388080611f0d565b80600185968294968601518155019501930190612015565b908051805167ffffffffffffffff81116103255761208c816120868654610223565b86611e2d565b6020918290601f8311600114612170579282600395936121549360a096600092612165575b50508160011b9160001990881b1c19161786555b6120fb6120df60018801928501516001600160a01b031690565b82906001600160a01b03166001600160a01b0319825416179055565b61213361211360408501516001600160e01b03191690565b825463ffffffff60a01b191660409190911c63ffffffff60a01b16178255565b60608301511515815460ff60c01b191690151560c01b60ff60c01b16179055565b608081015160028501550151910155565b0151905038806120b1565b90601f1983169161218687600052602060002090565b9260005b8181106121ce5750936121549360a096936001938360039a98106121b6575b505050811b0186556120c5565b0151600019838a1b60f8161c191690553880806121a9565b92938660018192878601518155019501930161218a565b906122086001600160e01b03199160409497969597606085526060850191611f49565b951660208201520152565b634e487b7160e01b600052601160045260246000fd5b6000198114610d295760010190565b1561223f57565b606460405162461bcd60e51b815260206004820152601560248201527f64616f2e74656d706c6174652e64697361626c656400000000000000000000006044820152fd5b909280926001600160e01b03196004951683528483013701016000815290565b604051906122b082610309565b601582527f69735573657245786973747328616464726573732900000000000000000000006020830152565b9081602091031261052457516122f181610545565b90565b6012546801000000000000000081101561032557600181018060125581101561021e57600b906012600052027fbb8a6a4669ba250d26cd7a459eca9d215f8307e33aebe50379bc5a3617ec34440190600090565b81810292918115918404141715610d2957565b9060638201809211610d2957565b92936123b09195929461238561237d6122f4565b509586611f9d565b6001850180546001600160a01b0319166001600160a01b038816179055600285015560038401611f9d565b60646123ce6123c96123c0612d47565b60115490612348565b61235b565b0460078301556123dc612c87565b908101809111610d2957816009916006869401556124386008820161177233829074ffffffffffffffffffffffffffffffffffffffff001974ffffffffffffffffffffffffffffffffffffffff0083549260081b169116179055565b01556012546040516001600160a01b03909216825291339183907f336735bcae5ee955b87e8b30bee52920223fa30a865b207ac6d9eee9f19589fb9080602081015b0390a490565b919492939061248e33612bfd565b15610ffe576001600160a01b03861615612581576124bd926124b191369161191d565b9361238561237d6122f4565b60646124cd6123c96123c0612d47565b0460078301556124db612c87565b908101809111610d295781600991600660009401556125386008820161177233829074ffffffffffffffffffffffffffffffffffffffff001974ffffffffffffffffffffffffffffffffffffffff0083549260081b169116179055565b0155601254906000827f336735bcae5ee955b87e8b30bee52920223fa30a865b207ac6d9eee9f19589fb6040518061247a3396829190916001600160a01b036020820193169052565b60046040517fe6c4247b000000000000000000000000000000000000000000000000000000008152fd5b156125b257565b606460405162461bcd60e51b815260206004820152600e60248201527f64616f2e696e76616c69642e69640000000000000000000000000000000000006044820152fd5b600019810191908211610d2957565b1561260c57565b606460405162461bcd60e51b815260206004820152601160248201527f64616f2e70726f702e6e6f7465786973740000000000000000000000000000006044820152fd5b1561265757565b606460405162461bcd60e51b815260206004820152601060248201527f64616f2e766f74696e672e656e646564000000000000000000000000000000006044820152fd5b156126a257565b606460405162461bcd60e51b815260206004820152601560248201527f64616f2e616c72656164792e636f6d706c6574656400000000000000000000006044820152fd5b156126ed57565b606460405162461bcd60e51b815260206004820152601160248201527f64616f2e616c72656164792e766f7465640000000000000000000000000000006044820152fd5b7f948f4a9cd986f1118c3fbd459f7a22b23c0693e1ca3ef06a6a8be5aa7d39cc036127f86113606127646116dd856125f6565b5060088101805460ff60b01b1916600160b01b178155906127da600482015460078301548110159081612848575b5083547fffffffffffffffffffff00ffffffffffffffffffffffffffffffffffffffffff1690151560a81b75ff00000000000000000000000000000000000000000016178355565b815460a81c60ff1680612833575b6127fd575b505460a81c60ff1690565b0390a2565b80612815600161282c9301546001600160a01b031690565b612826600360028401549301610368565b90612f8b565b50386127ed565b506128416003820154610223565b15156127e8565b905060058301541038612792565b6040513d6000823e3d90fd5b612b476101c06103839261289c61288082516001600160a01b031690565b6001600160a01b03166001600160a01b03196002541617600255565b6128cf6128b360208301516001600160a01b031690565b6001600160a01b03166001600160a01b03196003541617600355565b6129026128e660408301516001600160a01b031690565b6001600160a01b03166001600160a01b03196004541617600455565b61293561291960608301516001600160a01b031690565b6001600160a01b03166001600160a01b03196005541617600555565b61296861294c60808301516001600160a01b031690565b6001600160a01b03166001600160a01b03196006541617600655565b61299b61297f60a08301516001600160a01b031690565b6001600160a01b03166001600160a01b03196007541617600755565b6129ce6129b260c08301516001600160a01b031690565b6001600160a01b03166001600160a01b03196008541617600855565b612a016129e560e08301516001600160a01b031690565b6001600160a01b03166001600160a01b03196009541617600955565b612a35612a196101008301516001600160a01b031690565b6001600160a01b03166001600160a01b0319600a541617600a55565b612a69612a4d6101208301516001600160a01b031690565b6001600160a01b03166001600160a01b0319600b541617600b55565b612a9d612a816101408301516001600160a01b031690565b6001600160a01b03166001600160a01b0319600c541617600c55565b612ad1612ab56101608301516001600160a01b031690565b6001600160a01b03166001600160a01b0319600d541617600d55565b612b05612ae96101808301516001600160a01b031690565b6001600160a01b03166001600160a01b0319600e541617600e55565b612b39612b1d6101a08301516001600160a01b031690565b6001600160a01b03166001600160a01b0319600f541617600f55565b01516001600160a01b031690565b6001600160a01b03166001600160a01b03196010541617601055565b9081602091031261052457516122f181610d5c565b612bd36001600160a01b0360025416604051612b9381610309565b600881527f6973536166652829000000000000000000000000000000000000000000000000602082015260405191612bca8361032a565b60008352612dc9565b9080612bf2575b1561137257806020806122f193518301019101612b63565b506020815114612bda565b612c606001600160a01b038060025416604051916020941684830152838252612c2582610309565b60405190612c3282610309565b601182527f69735369676e657228616464726573732900000000000000000000000000000085830152612dc9565b9080612c7d575b1561137257816122f19282518301019101612b63565b5081815114612c67565b6122f16001600160a01b0360035416604051612ca281610309565b600681527f6941676528290000000000000000000000000000000000000000000000000000602082015260405191612cd98361032a565b60008352612e80565b6122f1906001600160a01b038060065416906040519216602083015260208252612d0b82610309565b60405190612d1882610309565b601882527f697364656c656761746f724e6f646528616464726573732900000000000000006020830152612e44565b6122f16001600160a01b0360065416604051612d6281610309565b601381527f67657464656c656761746f72436f756e74282900000000000000000000000000602082015260405191612cd98361032a565b3d15612dc4573d90612daa82611901565b91612db86040519384610346565b82523d6000602084013e565b606090565b803b15612e2b576000926001600160e01b03198360208695519101201690612e1b6024604051809360208201958652612e0b8151809260208686019101610385565b8101036004810184520182610346565b51915afa612e27612d99565b9091565b505050600090604051612e3d8161032a565b6000815290565b9291612e5291600094612dc9565b9080612e75575b612e605750565b6122f191925060208082518301019101612b63565b506020815114612e59565b9291612e8e91600094612dc9565b9080612eb3575b612e9c5750565b909150602081805181010312610524576020015190565b506020815114612e95565b90602082519201516001600160e01b0319908181169360048110612ee157505050565b60040360031b82901b16169150565b6001600160a01b0381161561258157600080918351908260208601915af190612f17612d99565b9115612f21575090565b805160009190600411612f8557612f389150612ebe565b815115612f485750805190602001fd5b6040517f21c09d340000000000000000000000000000000000000000000000000000000081526001600160e01b0319919091166004820152602490fd5b50612f38565b9190916001600160a01b0381161561258157600091829184519160208601915af190612f17612d9956fea26469706673582212206486a149f64143c3ef86c9d57a619d3414f4e95d70fbf73d5b700acb119d1d6664736f6c63430008140033","linkReferences":{}},"methodIdentifiers":{"Burn(uint256)":"b90306ad","_delegatorCount()":"a1f7f539","_getImplementation(address)":"c54e44b0","_isDelegatorNode(address)":"e01ad5fd","_isSafe()":"e0a9bc2b","_isSecureBase(address)":"af484526","_isSigner(address)":"1f185d16","addOrUpdateProposalTemplate(uint256,string,address,bytes4,uint256,uint256,bool)":"45a257bc","createProposal(string,address,uint256,bytes,uint256)":"d3325a2c","declineProposal(uint256)":"cc48bf16","getBalance()":"12065fe0","getHexbase()":"3b9b7955","getProposal(uint256)":"c7f758a8","getProposalsCount()":"98e527d3","getResult(uint256)":"995e4339","getStatus(uint256)":"5c622a0e","hasVoted(uint256,address)":"43859632","newProposal(uint256,address,bytes,uint256)":"eeebb3c3","owner()":"8da5cb5b","proposalTemplates(uint256)":"896d6db1","proposals(uint256)":"013cf08b","setProposalTemplateStatus(uint256,bool)":"b7ccfe32","setWinPer(uint256)":"604ff4b1","syncBaseAddr()":"339459a6","systemAge()":"fdc10bc9","templateCount()":"26705c3c","vote(uint256,bool)":"c9d27afe"},"id":50}