{"abi":[{"type":"constructor","inputs":[{"name":"_hex","type":"address","internalType":"address"}],"stateMutability":"nonpayable"},{"type":"fallback","stateMutability":"payable"},{"type":"receive","stateMutability":"payable"},{"type":"function","name":"Burn","inputs":[{"name":"amount","type":"uint256","internalType":"uint256"}],"outputs":[],"stateMutability":"nonpayable"},{"type":"function","name":"_delegatorCount","inputs":[],"outputs":[{"name":"","type":"uint256","internalType":"uint256"}],"stateMutability":"view"},{"type":"function","name":"_getImplementation","inputs":[{"name":"clone","type":"address","internalType":"address"}],"outputs":[{"name":"impl","type":"address","internalType":"address"}],"stateMutability":"view"},{"type":"function","name":"_isDelegatorNode","inputs":[{"name":"sender","type":"address","internalType":"address"}],"outputs":[{"name":"","type":"bool","internalType":"bool"}],"stateMutability":"view"},{"type":"function","name":"_isSafe","inputs":[],"outputs":[{"name":"","type":"bool","internalType":"bool"}],"stateMutability":"view"},{"type":"function","name":"_isSecureBase","inputs":[{"name":"sender","type":"address","internalType":"address"}],"outputs":[{"name":"","type":"bool","internalType":"bool"}],"stateMutability":"view"},{"type":"function","name":"_isSigner","inputs":[{"name":"sender","type":"address","internalType":"address"}],"outputs":[{"name":"","type":"bool","internalType":"bool"}],"stateMutability":"view"},{"type":"function","name":"execute","inputs":[{"name":"proposalId","type":"uint256","internalType":"uint256"},{"name":"isapproved","type":"bool","internalType":"bool"}],"outputs":[],"stateMutability":"nonpayable"},{"type":"function","name":"getBalance","inputs":[],"outputs":[{"name":"","type":"uint256","internalType":"uint256"}],"stateMutability":"view"},{"type":"function","name":"getHexbase","inputs":[],"outputs":[{"name":"","type":"address","internalType":"address"}],"stateMutability":"view"},{"type":"function","name":"getProposal","inputs":[{"name":"proposalId","type":"uint256","internalType":"uint256"}],"outputs":[{"name":"","type":"string","internalType":"string"},{"name":"","type":"address","internalType":"address"},{"name":"","type":"uint256","internalType":"uint256"},{"name":"","type":"address","internalType":"address"},{"name":"","type":"bool","internalType":"bool"}],"stateMutability":"view"},{"type":"function","name":"getProposalsCount","inputs":[],"outputs":[{"name":"","type":"uint256","internalType":"uint256"}],"stateMutability":"view"},{"type":"function","name":"getResult","inputs":[{"name":"proposalId","type":"uint256","internalType":"uint256"}],"outputs":[{"name":"","type":"uint256","internalType":"uint256"},{"name":"","type":"uint256","internalType":"uint256"},{"name":"","type":"uint256","internalType":"uint256"},{"name":"","type":"uint256","internalType":"uint256"},{"name":"","type":"bool","internalType":"bool"},{"name":"","type":"bool","internalType":"bool"}],"stateMutability":"view"},{"type":"function","name":"getsign","inputs":[{"name":"proposalId","type":"uint256","internalType":"uint256"}],"outputs":[{"name":"","type":"uint256","internalType":"uint256"}],"stateMutability":"view"},{"type":"function","name":"hasVoted","inputs":[{"name":"proposalId","type":"uint256","internalType":"uint256"},{"name":"voter","type":"address","internalType":"address"}],"outputs":[{"name":"","type":"bool","internalType":"bool"}],"stateMutability":"view"},{"type":"function","name":"newProposal","inputs":[{"name":"desc","type":"string","internalType":"string"},{"name":"target","type":"address","internalType":"address"},{"name":"value","type":"uint256","internalType":"uint256"},{"name":"data","type":"bytes","internalType":"bytes"},{"name":"_deadline","type":"uint256","internalType":"uint256"}],"outputs":[{"name":"","type":"uint256","internalType":"uint256"}],"stateMutability":"nonpayable"},{"type":"function","name":"owner","inputs":[],"outputs":[{"name":"","type":"address","internalType":"address"}],"stateMutability":"view"},{"type":"function","name":"proposals","inputs":[{"name":"","type":"uint256","internalType":"uint256"}],"outputs":[{"name":"description","type":"string","internalType":"string"},{"name":"target","type":"address","internalType":"address"},{"name":"value","type":"uint256","internalType":"uint256"},{"name":"data","type":"bytes","internalType":"bytes"},{"name":"votesup","type":"uint256","internalType":"uint256"},{"name":"sign","type":"uint256","internalType":"uint256"},{"name":"votesdown","type":"uint256","internalType":"uint256"},{"name":"deadline","type":"uint256","internalType":"uint256"},{"name":"wincount","type":"uint256","internalType":"uint256"},{"name":"exist","type":"bool","internalType":"bool"},{"name":"creator","type":"address","internalType":"address"},{"name":"status","type":"bool","internalType":"bool"},{"name":"resolved","type":"bool","internalType":"bool"}],"stateMutability":"view"},{"type":"function","name":"setWinPer","inputs":[{"name":"_per","type":"uint256","internalType":"uint256"},{"name":"_signer","type":"uint256","internalType":"uint256"}],"outputs":[],"stateMutability":"nonpayable"},{"type":"function","name":"systemAge","inputs":[],"outputs":[{"name":"","type":"uint256","internalType":"uint256"}],"stateMutability":"view"},{"type":"function","name":"vote","inputs":[{"name":"proposalId","type":"uint256","internalType":"uint256"},{"name":"updown","type":"bool","internalType":"bool"}],"outputs":[],"stateMutability":"nonpayable"},{"type":"event","name":"EthBurned","inputs":[{"name":"sender","type":"address","indexed":true,"internalType":"address"},{"name":"amount","type":"uint256","indexed":false,"internalType":"uint256"}],"anonymous":false},{"type":"event","name":"EthTransferred","inputs":[{"name":"to","type":"address","indexed":true,"internalType":"address"},{"name":"amount","type":"uint256","indexed":false,"internalType":"uint256"}],"anonymous":false},{"type":"event","name":"HexBaseUpdated","inputs":[{"name":"previousHexBase","type":"address","indexed":true,"internalType":"address"},{"name":"newHexBase","type":"address","indexed":true,"internalType":"address"}],"anonymous":false},{"type":"event","name":"OwnerUpdated","inputs":[{"name":"previousOwner","type":"address","indexed":true,"internalType":"address"},{"name":"newOwner","type":"address","indexed":true,"internalType":"address"}],"anonymous":false},{"type":"error","name":"TargetCallFailed","inputs":[{"name":"selector","type":"bytes4","internalType":"bytes4"}]}],"bytecode":{"object":"0x6080346100cf57601f611caa38819003918201601f19168301916001600160401b038311848410176100d4578084926020946040528339810103126100cf57516001600160a01b038116908190036100cf57801561008a5760018060a01b031933816001541617600155600054161760005560006003556001600455604051611bbf90816100eb8239f35b60405162461bcd60e51b815260206004820152601360248201527f6f776e2e696e76616c69642e68657862617365000000000000000000000000006044820152606490fd5b600080fd5b634e487b7160e01b600052604160045260246000fdfe60806040526004361015610018575b361561001657005b005b60003560e01c8063013cf08b1461016857806312065fe0146101635780631f185d161461015e5780633595df1a146101595780633b9b795514610154578063438596321461014f57806365153c4b1461014a5780638da5cb5b1461014557806398e527d314610140578063995e43391461013b578063a1f7f53914610136578063af48452614610131578063b90306ad1461012c578063c54e44b014610127578063c7f758a814610122578063c9d27afe1461011d578063d153356b14610118578063d3a3084914610113578063e01ad5fd1461010e578063e0a9bc2b146101095763fdc10bc90361000e57610fae565b610f93565b610f6c565b610d1e565b610c4e565b610ada565b610a6b565b610994565b6108e1565b6107cd565b6107aa565b610726565b610708565b6106df565b6105e9565b61057b565b610552565b610515565b6104e4565b6104b7565b610403565b6005548110156101a857600b906005600052027f036b6384b5eca791c62761152d0c79bb0604c104a5fb6f4eb0703f3154bb3db00190600090565b634e487b7160e01b600052603260045260246000fd5b90600182811c921680156101ee575b60208310146101d857565b634e487b7160e01b600052602260045260246000fd5b91607f16916101cd565b9060009291805491610209836101be565b91828252600193848116908160001461026b575060011461022b575b50505050565b90919394506000526020928360002092846000945b838610610257575050505001019038808080610225565b805485870183015294019385908201610240565b9294505050602093945060ff191683830152151560051b01019038808080610225565b634e487b7160e01b600052604160045260246000fd5b6020810190811067ffffffffffffffff8211176102c057604052565b61028e565b6040810190811067ffffffffffffffff8211176102c057604052565b90601f8019910116810190811067ffffffffffffffff8211176102c057604052565b9061031e61031792604051938480926101f8565b03836102e1565b565b60005b8381106103335750506000910152565b8181015183820152602001610323565b9060209161035c81518092818552858086019101610320565b601f01601f1916010190565b9892956103bb959e9d9b956103fb99936101809c9661031e9f9a949960408e61039c6103f19d6101a0808452830190610343565b6001600160a01b03909516602082015201528c820360608e0152610343565b60808b019f909f5260a08a015260c089015260e088015261010087015215156101208601526001600160a01b0316610140850152565b1515610160830152565b019015159052565b346104b25760203660031901126104b2576004356005548110156104b25761042a9061016d565b506040519061043d8261031781846101f8565b600181015460028201546001600160a01b039182169390926104ae929061046660038201610303565b9560048201549160058101546006820154600783015491600a6008850154940154956040519b8c9b8c9760ff8a60b01c169b60ff808c60a81c169c8c60081c169b1699610368565b0390f35b600080fd5b346104b25760003660031901126104b257602047604051908152f35b6001600160a01b038116036104b257565b346104b25760203660031901126104b257602061050b600435610506816104d3565b611633565b6040519015158152f35b346104b25760203660031901126104b257600435600019810190811161054d57600561054260209261016d565b500154604051908152f35b6110e5565b346104b25760003660031901126104b2576000546040516001600160a01b039091168152602090f35b346104b25760403660031901126104b25760043560243561059b816104d3565b600019820191821161054d576105d360ff9160096105ba60209561016d565b50019060018060a01b0316600052602052604060002090565b54166040519015158152f35b801515036104b257565b346104b25760403660031901126104b257600435602435610609816105df565b61061233611633565b156106a55760001982019180831161054d576106a06106336100169461016d565b503360009081526009820160205260409020546106539060ff1615611240565b61068c600a8201549161066c60ff8460b01c16156111fc565b61067860ff841661117d565b60076106826116df565b91015411156112c1565b60081c6001600160a01b0316331415611280565b611312565b60405162461bcd60e51b815260206004820152601260248201527137bbb71734b73b30b634b21739b4b3b732b960711b6044820152606490fd5b346104b25760003660031901126104b2576001546040516001600160a01b039091168152602090f35b346104b25760003660031901126104b2576020600554604051908152f35b346104b25760203660031901126104b257600435600019810190811161054d5761074f9061016d565b506004810154600682015460078301546008840154600a9094015460408051948552602085019390935291830152606082019290925260ff60a883901c81161515608083015260b09290921c909116151560a082015260c090f35b346104b25760003660031901126104b25760206107c561184c565b604051908152f35b346104b2576020806003193601126104b2576004908135906107ee826104d3565b60005481906001600160a01b0316604051634bf9c0ad60e11b815294859182905afa9182156108dc5761085361088d9361086f926104ae966000926108a9575b506040516001600160a01b039091168582019081529092610861918491602090910190565b03601f1981018452836102e1565b610869611544565b906119dd565b91908061089f575b61088090611575565b8082518301019101611481565b60405190151581529081906020820190565b5081518114610877565b6108619192506108ce90863d88116108d5575b6108c681836102e1565b8101906113f5565b919061082e565b503d6108bc565b61140d565b346104b25760203660031901126104b257600054604051630536340960e21b8152906001600160a01b03906020908390600490829085165afa9182156108dc57600092610974575b503391160361093d5761001660043561190c565b60405162461bcd60e51b815260206004820152600f60248201526e6f776e2e6e6f6e617574682e44414f60881b6044820152606490fd5b61098d91925060203d81116108d5576108c681836102e1565b9038610929565b346104b25760203660031901126104b2576004356109b1816104d3565b803b60006109be82611419565b926109cc60405194856102e1565b82845260208401903c602d8151106109f257602a015160405160609190911c8152602090f35b60405162461bcd60e51b81526020600482015260136024820152724e6f742061206d696e696d616c2070726f787960681b6044820152606490fd5b93610a466080949796939260a0875260a0870190610343565b6001600160a01b03928316602087015260408601979097521660608401521515910152565b346104b25760203660031901126104b257600435600019810190811161054d57610a949061016d565b5060018060a01b036104ae81600184015416926103176002820154610ac4600a84015493604051938480926101f8565b60405195869560ff85169460081c169286610a2d565b346104b25760403660031901126104b257600435602435610afa816105df565b610b0333611633565b8015610c2b575b610b1390611129565b610c00610bf3610b2a610b258561116e565b61016d565b50600a81015490610b3d60ff831661117d565b610b546007820154610b4d6116df565b11156111bd565b610b6460ff8360b01c16156111fc565b610ba1600982019261068c610b9c610b98610b9133889060018060a01b0316600052602052604060002090565b5460ff1690565b1590565b611240565b60008515610c26575060015b610bbf60ff600484019216825461111c565b9055600085610c185750610bde60ff60066001935b019216825461111c565b90553360009081526020919091526040902090565b805460ff19166001179055565b610c0933611633565b610c0f57005b61001691611312565b60ff6006610bde9293610bd4565b610bad565b50610c34611496565b8015610b0a5750610b13610c473361176a565b9050610b0a565b346104b25760403660031901126104b257610c67611496565b15610cb657333003610c8157600480356003556024359055005b60405162461bcd60e51b815260206004820152600d60248201526c64616f2e66616b652e636f726560981b6044820152606490fd5b60405162461bcd60e51b81526020600482015260126024820152716f776e2e696e76616c69642e69735361666560701b6044820152606490fd5b9181601f840112156104b25782359167ffffffffffffffff83116104b257602083818601950101116104b257565b346104b25760a03660031901126104b25767ffffffffffffffff6004358181116104b257610d50903690600401610cf0565b602435610d5c816104d3565b6064358481116104b257610d74903690600401610cf0565b9390926001600160a01b03831615610f325760055491680100000000000000008310156102c057610dac60019384810160055561016d565b509682116102c057610dc882610dc289546101be565b89610fc9565b600090601f8311600114610eb85793600a969383610e9f999794610e2794610e3898600092610ead575b5050600019600383901b1c191690821b1787555b860180546001600160a01b0319166001600160a01b03909216919091179055565b60443560028501556003840161101d565b610e5e610e57610e52610e4961184c565b600354906110fb565b61110e565b6064900490565b6008820155610e76608435610e716116df565b61111c565b6007820155018054610100600160a81b0319163360081b610100600160a81b0316178155610bf3565b600554604051908152602090f35b013590503880610df2565b601f19831691610ecd89600052602060002090565b92815b818110610f1c57509484610e2794610e3898948394610e9f9d9b98600a9d9a10610f02575b505050811b018755610e06565b0135600019600384901b60f8161c19169055388080610ef5565b8383013585559386019360209283019201610ed0565b60405162461bcd60e51b815260206004820152601260248201527137bbb7173232b330bab63a1739b2b73232b960711b6044820152606490fd5b346104b25760203660031901126104b257602061050b600435610f8e816104d3565b61176a565b346104b25760003660031901126104b257602061050b611496565b346104b25760003660031901126104b25760206107c56116df565b90601f8111610fd757505050565b600091825260208220906020601f850160051c83019410611013575b601f0160051c01915b82811061100857505050565b818155600101610ffc565b9092508290610ff3565b90929167ffffffffffffffff81116102c0576110438161103d84546101be565b84610fc9565b6000601f821160011461107d5781929394600092611072575b50508160011b916000199060031b1c1916179055565b01359050388061105c565b601f1982169461109284600052602060002090565b91805b8781106110cd5750836001959697106110b3575b505050811b019055565b0135600019600384901b60f8161c191690553880806110a9565b90926020600181928686013581550194019101611095565b634e487b7160e01b600052601160045260246000fd5b8181029291811591840414171561054d57565b906063820180921161054d57565b9190820180921161054d57565b1561113057565b60405162461bcd60e51b815260206004820152601660248201527564616f2e6e6f6e617574682e64656c656761746f727360501b6044820152606490fd5b60001981019190821161054d57565b1561118457565b60405162461bcd60e51b815260206004820152601160248201527019185bcb9c1c9bdc0b9b9bdd195e1a5cdd607a1b6044820152606490fd5b156111c457565b60405162461bcd60e51b815260206004820152601060248201526f19185bcb9d9bdd1a5b99cb995b99195960821b6044820152606490fd5b1561120357565b60405162461bcd60e51b815260206004820152601560248201527419185bcb985b1c9958591e4b98dbdb5c1b195d1959605a1b6044820152606490fd5b1561124757565b60405162461bcd60e51b815260206004820152601160248201527019185bcb985b1c9958591e4b9d9bdd1959607a1b6044820152606490fd5b1561128757565b60405162461bcd60e51b815260206004820152601260248201527119185bcb9d9bdd195c8b9c995cdd1c9a58dd60721b6044820152606490fd5b156112c857565b60405162461bcd60e51b815260206004820152601360248201527264616f2e6265666f72652e646561646c696e6560681b6044820152606490fd5b600019811461054d5760010190565b610b2561131e9161116e565b506005810161132d8154611303565b8091556004541480156113ed575b611343575050565b600a8101805460ff60b01b1916600160b01b1781556113ad9261138891816113da575b816113b057805460ff60a81b191691151560a81b60ff60a81b16919091179055565b60018101546001600160a01b03166113a7600360028401549301610303565b90611aca565b50565b60048401546006850154109150805460ff60a81b191691151560a81b60ff60a81b16919091179055565b6004840154600885015411159150611366565b50811561133b565b908160209103126104b2575161140a816104d3565b90565b6040513d6000823e3d90fd5b67ffffffffffffffff81116102c057601f01601f191660200190565b1561143c57565b60405162461bcd60e51b815260206004820152601960248201527f6f776e2e7361666567756172642e63616c6c2e6661696c6564000000000000006044820152606490fd5b908160209103126104b2575161140a816105df565b600054604051634bf9c0ad60e11b8152906020908190839060049082906001600160a01b03165afa9182156108dc5761140a9261150c91600091611527575b506040516114e2816102c5565b6008815267697353616665282960c01b8482015260405191611503836102a4565b600083526119dd565b91908061151d575b61088090611435565b5081518114611514565b61153e9150833d85116108d5576108c681836102e1565b386114d5565b60405190611551826102c5565b601582527469735365637572654261736528616464726573732960581b6020830152565b1561157c57565b60405162461bcd60e51b815260206004820152601a60248201527f6f776e2e736563757265626173652e63616c6c2e6661696c65640000000000006044820152606490fd5b604051906115ce826102c5565b601182527069735369676e657228616464726573732960781b6020830152565b156115f557565b60405162461bcd60e51b81526020600482015260166024820152751bdddb8b9cda59db995c8b98d85b1b0b99985a5b195960521b6044820152606490fd5b6000546001600160a01b0316604051918291634bf9c0ad60e11b835282600460209485935afa9283156108dc5761140a936116a192610853926000926116bc575b506040516001600160a01b039091168582019081529092611699918491602090910190565b6108696115c1565b9190806116b2575b610880906115ee565b50815181146116a9565b6116999192506116d890863d88116108d5576108c681836102e1565b9190611674565b60005460405163111ea8c160e21b815290602090829060049082906001600160a01b03165afa80156108dc5761140a9160009161174c575b50604051611724816102c5565b6005815264616765282960d81b602082015260405191611743836102a4565b60008352611a5b565b611764915060203d81116108d5576108c681836102e1565b38611717565b60005460405163d1f956b160e01b8152916020916001600160a01b039083908590600490829085165afa9384156108dc57600094611827575b506040519116828201528181526117fa906117bd816102c5565b6040516117c9816102c5565b601881527f697364656c656761746f724e6f64652861646472657373290000000000000000848201526000946119dd565b91908061181d575b61180b57505090565b61140a92508082518301019101611481565b5080825114611802565b6117fa9291945061184490843d86116108d5576108c681836102e1565b9390916117a3565b60005460405163d1f956b160e01b815290602090829060049082906001600160a01b03165afa80156108dc5761140a916000916118be575b50604051611891816102c5565b601381527267657464656c656761746f72436f756e74282960681b602082015260405191611743836102a4565b6118d6915060203d81116108d5576108c681836102e1565b38611884565b3d15611907573d906118ed82611419565b916118fb60405193846102e1565b82523d6000602084013e565b606090565b600080546040516311be646b60e21b815290602090829060049082906001600160a01b03165afa9081156108dc5782848193829383916119bf575b505af16119526118dc565b50156119885760405190815233907fcdcc745fe377b103b45fa0cec23ae3ef93d6fc6a84a01f0d18c40b354dd1d5d890602090a2565b60405162461bcd60e51b815260206004820152600f60248201526e1bdddb8b989d5c9b8b99985a5b1959608a1b6044820152606490fd5b6119d7915060203d81116108d5576108c681836102e1565b38611947565b803b15611a4257600092839263ffffffff60e01b90602081519101201690611a2f6024604051809360208201958652611a1f8151809260208686019101610320565b81010360048101845201826102e1565b5191620dbba0fa611a3e6118dc565b9091565b505050600090604051611a54816102a4565b6000815290565b9291611a69916000946119dd565b9080611a8e575b611a775750565b9091506020818051810103126104b2576020015190565b506020815114611a70565b906020825192015163ffffffff60e01b908181169360048110611abb57505050565b60040360031b82901b16169150565b9091906001600160a01b03811615611b4f57600091829184519160208601915af190611af46118dc565b9115611afe575090565b805160009190600411611b4957611b159150611a99565b815115611b255750805190602001fd5b604051630870274d60e21b81526001600160e01b0319919091166004820152602490fd5b50611b15565b60405162461bcd60e51b81526020600482015260126024820152711bdddb8b9a5b9d985b1a590b9d185c99d95d60721b6044820152606490fdfea264697066735822122049c3fdfe4ac8f46cf3e7e20f92bac465391e4491282a86c13792387ce14b70cc64736f6c63430008140033","linkReferences":{}},"methodIdentifiers":{"Burn(uint256)":"b90306ad","_delegatorCount()":"a1f7f539","_getImplementation(address)":"c54e44b0","_isDelegatorNode(address)":"e01ad5fd","_isSafe()":"e0a9bc2b","_isSecureBase(address)":"af484526","_isSigner(address)":"1f185d16","execute(uint256,bool)":"65153c4b","getBalance()":"12065fe0","getHexbase()":"3b9b7955","getProposal(uint256)":"c7f758a8","getProposalsCount()":"98e527d3","getResult(uint256)":"995e4339","getsign(uint256)":"3595df1a","hasVoted(uint256,address)":"43859632","newProposal(string,address,uint256,bytes,uint256)":"d3a30849","owner()":"8da5cb5b","proposals(uint256)":"013cf08b","setWinPer(uint256,uint256)":"d153356b","systemAge()":"fdc10bc9","vote(uint256,bool)":"c9d27afe"},"id":23}