{"abi":[{"type":"constructor","inputs":[{"name":"_hex","type":"address","internalType":"address"}],"stateMutability":"nonpayable"},{"type":"fallback","stateMutability":"payable"},{"type":"receive","stateMutability":"payable"},{"type":"function","name":"Burn","inputs":[{"name":"amount","type":"uint256","internalType":"uint256"}],"outputs":[],"stateMutability":"nonpayable"},{"type":"function","name":"_delegatorCount","inputs":[],"outputs":[{"name":"","type":"uint256","internalType":"uint256"}],"stateMutability":"view"},{"type":"function","name":"_getImplementation","inputs":[{"name":"clone","type":"address","internalType":"address"}],"outputs":[{"name":"impl","type":"address","internalType":"address"}],"stateMutability":"view"},{"type":"function","name":"_isDelegatorNode","inputs":[{"name":"sender","type":"address","internalType":"address"}],"outputs":[{"name":"","type":"bool","internalType":"bool"}],"stateMutability":"view"},{"type":"function","name":"_isSafe","inputs":[],"outputs":[{"name":"","type":"bool","internalType":"bool"}],"stateMutability":"view"},{"type":"function","name":"_isSecureBase","inputs":[{"name":"sender","type":"address","internalType":"address"}],"outputs":[{"name":"","type":"bool","internalType":"bool"}],"stateMutability":"view"},{"type":"function","name":"_isSigner","inputs":[{"name":"sender","type":"address","internalType":"address"}],"outputs":[{"name":"","type":"bool","internalType":"bool"}],"stateMutability":"view"},{"type":"function","name":"addOrUpdateProposalTemplate","inputs":[{"name":"templateId","type":"uint256","internalType":"uint256"},{"name":"desc","type":"string","internalType":"string"},{"name":"target","type":"address","internalType":"address"},{"name":"selector","type":"bytes4","internalType":"bytes4"},{"name":"deadline","type":"uint256","internalType":"uint256"},{"name":"callType","type":"uint256","internalType":"uint256"},{"name":"active","type":"bool","internalType":"bool"}],"outputs":[],"stateMutability":"nonpayable"},{"type":"function","name":"createProposal","inputs":[{"name":"desc","type":"string","internalType":"string"},{"name":"target","type":"address","internalType":"address"},{"name":"value","type":"uint256","internalType":"uint256"},{"name":"data","type":"bytes","internalType":"bytes"},{"name":"deadline","type":"uint256","internalType":"uint256"}],"outputs":[{"name":"","type":"uint256","internalType":"uint256"}],"stateMutability":"nonpayable"},{"type":"function","name":"declineProposal","inputs":[{"name":"proposalId","type":"uint256","internalType":"uint256"}],"outputs":[],"stateMutability":"nonpayable"},{"type":"function","name":"getBalance","inputs":[],"outputs":[{"name":"","type":"uint256","internalType":"uint256"}],"stateMutability":"view"},{"type":"function","name":"getHexbase","inputs":[],"outputs":[{"name":"","type":"address","internalType":"address"}],"stateMutability":"view"},{"type":"function","name":"getProposal","inputs":[{"name":"proposalId","type":"uint256","internalType":"uint256"}],"outputs":[{"name":"","type":"string","internalType":"string"},{"name":"","type":"address","internalType":"address"},{"name":"","type":"uint256","internalType":"uint256"},{"name":"","type":"address","internalType":"address"},{"name":"","type":"bool","internalType":"bool"},{"name":"","type":"uint256","internalType":"uint256"},{"name":"","type":"bytes","internalType":"bytes"}],"stateMutability":"view"},{"type":"function","name":"getProposalsCount","inputs":[],"outputs":[{"name":"","type":"uint256","internalType":"uint256"}],"stateMutability":"view"},{"type":"function","name":"getResult","inputs":[{"name":"proposalId","type":"uint256","internalType":"uint256"}],"outputs":[{"name":"","type":"uint256","internalType":"uint256"},{"name":"","type":"uint256","internalType":"uint256"},{"name":"","type":"uint256","internalType":"uint256"},{"name":"","type":"uint256","internalType":"uint256"},{"name":"","type":"bool","internalType":"bool"},{"name":"","type":"bool","internalType":"bool"}],"stateMutability":"view"},{"type":"function","name":"getStatus","inputs":[{"name":"proposalId","type":"uint256","internalType":"uint256"}],"outputs":[{"name":"","type":"bool","internalType":"bool"},{"name":"","type":"bool","internalType":"bool"}],"stateMutability":"view"},{"type":"function","name":"hasVoted","inputs":[{"name":"proposalId","type":"uint256","internalType":"uint256"},{"name":"voter","type":"address","internalType":"address"}],"outputs":[{"name":"","type":"bool","internalType":"bool"}],"stateMutability":"view"},{"type":"function","name":"newProposal","inputs":[{"name":"templateId","type":"uint256","internalType":"uint256"},{"name":"targetuser","type":"address","internalType":"address"},{"name":"params","type":"bytes","internalType":"bytes"},{"name":"value","type":"uint256","internalType":"uint256"}],"outputs":[{"name":"","type":"uint256","internalType":"uint256"}],"stateMutability":"nonpayable"},{"type":"function","name":"owner","inputs":[],"outputs":[{"name":"","type":"address","internalType":"address"}],"stateMutability":"view"},{"type":"function","name":"proposalTemplates","inputs":[{"name":"","type":"uint256","internalType":"uint256"}],"outputs":[{"name":"desc","type":"string","internalType":"string"},{"name":"target","type":"address","internalType":"address"},{"name":"selector","type":"bytes4","internalType":"bytes4"},{"name":"active","type":"bool","internalType":"bool"},{"name":"deadline","type":"uint256","internalType":"uint256"},{"name":"callType","type":"uint256","internalType":"uint256"}],"stateMutability":"view"},{"type":"function","name":"proposals","inputs":[{"name":"","type":"uint256","internalType":"uint256"}],"outputs":[{"name":"description","type":"string","internalType":"string"},{"name":"target","type":"address","internalType":"address"},{"name":"value","type":"uint256","internalType":"uint256"},{"name":"data","type":"bytes","internalType":"bytes"},{"name":"votesup","type":"uint256","internalType":"uint256"},{"name":"votesdown","type":"uint256","internalType":"uint256"},{"name":"deadline","type":"uint256","internalType":"uint256"},{"name":"wincount","type":"uint256","internalType":"uint256"},{"name":"exist","type":"bool","internalType":"bool"},{"name":"creator","type":"address","internalType":"address"},{"name":"status","type":"bool","internalType":"bool"},{"name":"resolved","type":"bool","internalType":"bool"},{"name":"templateId","type":"uint256","internalType":"uint256"}],"stateMutability":"view"},{"type":"function","name":"setProposalTemplateStatus","inputs":[{"name":"templateId","type":"uint256","internalType":"uint256"},{"name":"active","type":"bool","internalType":"bool"}],"outputs":[],"stateMutability":"nonpayable"},{"type":"function","name":"setWinPer","inputs":[{"name":"_per","type":"uint256","internalType":"uint256"}],"outputs":[],"stateMutability":"nonpayable"},{"type":"function","name":"syncBaseAddr","inputs":[],"outputs":[],"stateMutability":"nonpayable"},{"type":"function","name":"systemAge","inputs":[],"outputs":[{"name":"","type":"uint256","internalType":"uint256"}],"stateMutability":"view"},{"type":"function","name":"templateCount","inputs":[],"outputs":[{"name":"","type":"uint256","internalType":"uint256"}],"stateMutability":"view"},{"type":"function","name":"vote","inputs":[{"name":"proposalId","type":"uint256","internalType":"uint256"},{"name":"updown","type":"bool","internalType":"bool"}],"outputs":[],"stateMutability":"nonpayable"},{"type":"event","name":"EthBurned","inputs":[{"name":"sender","type":"address","indexed":true,"internalType":"address"},{"name":"amount","type":"uint256","indexed":false,"internalType":"uint256"}],"anonymous":false},{"type":"event","name":"EthTransferred","inputs":[{"name":"to","type":"address","indexed":true,"internalType":"address"},{"name":"amount","type":"uint256","indexed":false,"internalType":"uint256"}],"anonymous":false},{"type":"event","name":"HexBaseUpdated","inputs":[{"name":"previousHexBase","type":"address","indexed":true,"internalType":"address"},{"name":"newHexBase","type":"address","indexed":true,"internalType":"address"}],"anonymous":false},{"type":"event","name":"OwnerUpdated","inputs":[{"name":"previousOwner","type":"address","indexed":true,"internalType":"address"},{"name":"newOwner","type":"address","indexed":true,"internalType":"address"}],"anonymous":false},{"type":"event","name":"ProposalCreated","inputs":[{"name":"proposalId","type":"uint256","indexed":true,"internalType":"uint256"},{"name":"templateId","type":"uint256","indexed":true,"internalType":"uint256"},{"name":"creator","type":"address","indexed":true,"internalType":"address"},{"name":"target","type":"address","indexed":false,"internalType":"address"}],"anonymous":false},{"type":"event","name":"ProposalDeclined","inputs":[{"name":"proposalId","type":"uint256","indexed":true,"internalType":"uint256"}],"anonymous":false},{"type":"event","name":"ProposalExecuted","inputs":[{"name":"proposalId","type":"uint256","indexed":true,"internalType":"uint256"},{"name":"status","type":"bool","indexed":false,"internalType":"bool"}],"anonymous":false},{"type":"event","name":"ProposalTemplateCreated","inputs":[{"name":"templateId","type":"uint256","indexed":true,"internalType":"uint256"},{"name":"desc","type":"string","indexed":false,"internalType":"string"},{"name":"target","type":"address","indexed":true,"internalType":"address"},{"name":"selector","type":"bytes4","indexed":false,"internalType":"bytes4"},{"name":"callType","type":"uint256","indexed":false,"internalType":"uint256"}],"anonymous":false},{"type":"event","name":"ProposalTemplateStatus","inputs":[{"name":"templateId","type":"uint256","indexed":true,"internalType":"uint256"},{"name":"active","type":"bool","indexed":false,"internalType":"bool"}],"anonymous":false},{"type":"event","name":"ProposalTemplateUpdated","inputs":[{"name":"templateId","type":"uint256","indexed":true,"internalType":"uint256"},{"name":"desc","type":"string","indexed":false,"internalType":"string"},{"name":"target","type":"address","indexed":true,"internalType":"address"},{"name":"selector","type":"bytes4","indexed":false,"internalType":"bytes4"},{"name":"deadline","type":"uint256","indexed":false,"internalType":"uint256"},{"name":"callType","type":"uint256","indexed":false,"internalType":"uint256"}],"anonymous":false},{"type":"event","name":"ProposalVoted","inputs":[{"name":"proposalId","type":"uint256","indexed":true,"internalType":"uint256"},{"name":"voter","type":"address","indexed":true,"internalType":"address"},{"name":"vote","type":"bool","indexed":false,"internalType":"bool"}],"anonymous":false},{"type":"error","name":"CallFailed","inputs":[]},{"type":"error","name":"InvalidAddress","inputs":[]},{"type":"error","name":"InvalidState","inputs":[]},{"type":"error","name":"NotAuthorized","inputs":[]},{"type":"error","name":"NotSafe","inputs":[]},{"type":"error","name":"TargetCallFailed","inputs":[{"name":"selector","type":"bytes4","internalType":"bytes4"}]}],"bytecode":{"object":"0x6080346200009e57601f6200313138819003918201601f19168301916001600160401b03831184841017620000a3578084926020946040528339810103126200009e57516001600160a01b038116908190036200009e5780156200008c5760018060a01b031933816001541617600155600054161760005560016011556040516130779081620000ba8239f35b60405163e6c4247b60e01b8152600490fd5b600080fd5b634e487b7160e01b600052604160045260246000fdfe60806040526004361015610018575b361561001657005b005b60003560e01c8063013cf08b146101c857806312065fe0146101c35780631f185d16146101be57806326705c3c146101b9578063339459a6146101b45780633b9b7955146101af57806343859632146101aa57806345a257bc146101a55780635c622a0e146101a0578063604ff4b11461019b578063896d6db1146101965780638da5cb5b1461019157806398e527d31461018c578063995e433914610187578063a1f7f53914610182578063af4845261461017d578063b7ccfe3214610178578063b90306ad14610173578063c54e44b01461016e578063c7f758a814610169578063c9d27afe14610164578063cc48bf161461015f578063d3325a2c1461015a578063e01ad5fd14610155578063e0a9bc2b14610150578063eeebb3c31461014b5763fdc10bc90361000e57611c8f565b611a79565b611a5e565b611a37565b6119a8565b611873565b6116d8565b61163e565b611564565b611456565b6113af565b6112c8565b6112a5565b611221565b611203565b6111dc565b611143565b611064565b611018565b610d66565b610cc4565b610c9d565b6105a5565b610587565b610556565b610529565b610465565b634e487b7160e01b600052603260045260246000fd5b60125481101561021e57600b906012600052027fbb8a6a4669ba250d26cd7a459eca9d215f8307e33aebe50379bc5a3617ec34440190600090565b6101cd565b90600182811c92168015610253575b602083101461023d57565b634e487b7160e01b600052602260045260246000fd5b91607f1691610232565b906000929180549161026e83610223565b9182825260019384811690816000146102d05750600114610290575b50505050565b90919394506000526020928360002092846000945b8386106102bc57505050500101903880808061028a565b8054858701830152940193859082016102a5565b9294505050602093945060ff191683830152151560051b0101903880808061028a565b634e487b7160e01b600052604160045260246000fd5b6040810190811067ffffffffffffffff82111761032557604052565b6102f3565b6020810190811067ffffffffffffffff82111761032557604052565b90601f8019910116810190811067ffffffffffffffff82111761032557604052565b9061038361037c926040519384809261025d565b0383610346565b565b60005b8381106103985750506000910152565b8181015183820152602001610388565b906020916103c181518092818552858086019101610385565b601f01601f1916010190565b99939561041d61044d969f9e9d99936101809d986104619c9660408f6001600160a01b036104076104579f996101a08085528401906103a8565b9516602082015201528d820360608f01526103a8565b9e60808c015260a08b015260c08a015260e089015215156101008801526101208701906001600160a01b03169052565b1515610140850152565b1515610160830152565b0152565b34610524576020366003190112610524576004356012548110156105245761048c906101e3565b506040516104a58161049e818561025d565b0382610346565b6105206104bc60018401546001600160a01b031690565b6002840154906104ce60038601610368565b93600486015495600581015493600682015460078301549060096008850154940154966040519a8b9a8b9560ff8860b01c169960ff8960a81c169960ff6001600160a01b038b60081c169a16986103cd565b0390f35b600080fd5b3461052457600036600319011261052457602047604051908152f35b6001600160a01b0381160361052457565b3461052457602036600319011261052457602061057d60043561057881610545565b612c5f565b6040519015158152f35b34610524576000366003190112610524576020601454604051908152f35b34610524576000366003190112610524576105d76105cb6000546001600160a01b031690565b6001600160a01b031690565b604051907f97f3815a000000000000000000000000000000000000000000000000000000008252602082600481845afa918215610acd57600092610c7c575b50604051917fcfbffe53000000000000000000000000000000000000000000000000000000008352602083600481855afa928315610acd57600093610c5b575b50604051907fab6e844f000000000000000000000000000000000000000000000000000000008252602082600481865afa918215610acd57600092610c3a575b50604051917f14d8d024000000000000000000000000000000000000000000000000000000008352602083600481875afa928315610acd57600093610c19575b50604051927fd1f956b1000000000000000000000000000000000000000000000000000000008452602084600481885afa938415610acd57600094610bf8575b50604051937fe61dfd58000000000000000000000000000000000000000000000000000000008552602085600481895afa948515610acd57600095610bd7575b506040517fe09d394d0000000000000000000000000000000000000000000000000000000081526020816004818a5afa908115610acd57600091610bb8575b506040517f52b06d640000000000000000000000000000000000000000000000000000000081526020816004818b5afa908115610acd57600091610b99575b506040517f013cf08b00000000000000000000000000000000000000000000000000000000815260006004820152916020836024818c5afa928315610acd57600093610b78575b50604051977f5e09dbe70000000000000000000000000000000000000000000000000000000089526020896004818d5afa948515610acd57600499600096610b57575b5060208b6040519b8c80927faa0ddc160000000000000000000000000000000000000000000000000000000082525afa968715610acd5760049a600098610b36575b5060208c6040519c8d80927f640274270000000000000000000000000000000000000000000000000000000082525afa988915610acd5760049b60009a610b15575b5060208d6040519d8e80927f30125cf50000000000000000000000000000000000000000000000000000000082525afa9a8b15610acd578d60049d60009d610af3575b506020906040519e8f80927f24768d910000000000000000000000000000000000000000000000000000000082525afa9c8d15610acd5760009d610ad2575b50604051809e81907f9dc969a80000000000000000000000000000000000000000000000000000000082525a92600491602094fa9d8e15610acd5760009e610a9c575b506109b0611914565b6001600160a01b0390911681529d8e906001600160a01b03166020820152604001906109e491906001600160a01b03169052565b6001600160a01b031660608d01526001600160a01b031660808c01526001600160a01b031660a08b01526001600160a01b031660c08a01526001600160a01b031660e08901526001600160a01b03166101008801526001600160a01b03166101208701526001600160a01b03166101408601526001600160a01b03166101608501526001600160a01b03166101808401526001600160a01b03166101a08301526001600160a01b03166101c0820152610016906128c4565b610abf919e5060203d602011610ac6575b610ab78183610346565b8101906128a3565b9c386109a7565b503d610aad565b6128b8565b610aec919d5060203d602011610ac657610ab78183610346565b9b38610964565b6020919d50610b0e90823d8411610ac657610ab78183610346565b9c90610925565b610b2f919a5060203d602011610ac657610ab78183610346565b98386108e2565b610b5091985060203d602011610ac657610ab78183610346565b96386108a0565b610b7191965060203d602011610ac657610ab78183610346565b943861085e565b610b9291935060203d602011610ac657610ab78183610346565b913861081b565b610bb2915060203d602011610ac657610ab78183610346565b386107d4565b610bd1915060203d602011610ac657610ab78183610346565b38610795565b610bf191955060203d602011610ac657610ab78183610346565b9338610756565b610c1291945060203d602011610ac657610ab78183610346565b9238610716565b610c3391935060203d602011610ac657610ab78183610346565b91386106d6565b610c5491925060203d602011610ac657610ab78183610346565b9038610696565b610c7591935060203d602011610ac657610ab78183610346565b9138610656565b610c9691925060203d602011610ac657610ab78183610346565b9038610616565b346105245760003660031901126105245760206001600160a01b0360005416604051908152f35b3461052457604036600319011261052457600435602435610ce481610545565b6000198201918211610d2957610d1d60ff91600a610d036020956101e3565b5001906001600160a01b0316600052602052604060002090565b54166040519015158152f35b611dd6565b9181601f840112156105245782359167ffffffffffffffff8311610524576020838186019501011161052457565b8015150361052457565b346105245760e03660031901126105245760043560243567ffffffffffffffff811161052457610d9a903690600401610d2e565b604435610da681610545565b606435936001600160e01b031985168086036105245760843560a4359260c43592610dd084610d5c565b610dd933612c5f565b1561100757610df490610ded881515611caa565b1515611cf5565b8315801590610ff5575b610e0790611d40565b80610ed15750610ecc9593610ec4610016989694610eb07f0454182b30f1740c505634bb66f7f3001e232b3c8797a62b1db11b347a891ff4956001600160a01b0395610e8a610e54611935565b92610e60368c8e611971565b84526001600160a01b03881660208501526001600160e01b03198d16604085015215156060840152565b60808201528260a0820152610eab6014546000526013602052604060002090565b612032565b6014549788966040519586951698856121b3565b0390a36121e1565b601455565b968294610fdb88957f74608b2c8ffedaacf37a0fda8ea5cb94ebae20dc104623eb2fabb1bcec211608946001600160a01b03948a610fcd8e997f2dd3ae6155b13a46b2374a1f42e0733244754e572ec9f0034b698efefa8673a19e610f64610ff09f610f5d610f4d8f610f48601454821115611d8b565b611dec565b6000526013602052604060002090565b9283611e4f565b8660036001830192610f8c8c85906001600160a01b03166001600160a01b0319825416179055565b835463ffffffff60a01b1916604089901c63ffffffff60a01b1617845588600282015501559060ff60c01b1960ff60c01b835492151560c01b169116179055565b604051968796169986611f38565b0390a360405190151581529081906020820190565b0390a2005b506001600160a01b0385161515610dfe565b600460405163ea8e4eb560e01b8152fd5b34610524576020366003190112610524576004356000198101908111610d295760086110456040926101e3565b50015460ff825191818160a81c161515835260b01c1615156020820152f35b3461052457602036600319011261052457600435611080612bda565b15611132573330036110ee57801515806110e3575b1561109f57601155005b606460405162461bcd60e51b815260206004820152601660248201527f64616f2e696e76616c69642e70657263656e74616765000000000000000000006044820152fd5b506064811115611095565b606460405162461bcd60e51b815260206004820152600d60248201527f64616f2e66616b652e636f7265000000000000000000000000000000000000006044820152fd5b6004604051634ee2123760e11b8152fd5b346105245760203660031901126105245760043560005260136020526111a06040600020604051906111798261037c818461025d565b600181015490600360028201549101549060ff60405195869560c0875260c08701906103a8565b936001600160a01b03811660208701526001600160e01b03198160401b16604087015260c01c1615156060850152608084015260a08301520390f35b346105245760003660031901126105245760206001600160a01b0360015416604051908152f35b34610524576000366003190112610524576020601254604051908152f35b34610524576020366003190112610524576004356000198101908111610d295761124a906101e3565b50600481015460058201546006830154600784015460089094015460408051948552602085019390935291830152606082019290925260ff60a883901c81161515608083015260b09290921c909116151560a082015260c090f35b346105245760003660031901126105245760206112c0612da9565b604051908152f35b3461052457602080600319360112610524576113476004356112e981610545565b6001600160a01b0380600254169060405192168483015283825261130c82610309565b6040519061131982610309565b601582527f697353656375726542617365286164647265737329000000000000000000000085830152612e2b565b9190806113a5575b1561137b5781816113699261052094518301019101612bc5565b60405190151581529081906020820190565b60046040517f3204506f000000000000000000000000000000000000000000000000000000008152fd5b508082511461134f565b34610524576040366003190112610524576004356024356113cf81610d5c565b6113d833612c5f565b15611007576113eb601454831115611d8b565b6000198201828111610d29577f2dd3ae6155b13a46b2374a1f42e0733244754e572ec9f0034b698efefa8673a1916020916000526013825261144b8160016040600020019060ff60c01b1960ff60c01b835492151560c01b169116179055565b6040519015158152a2005b3461052457602036600319011261052457600435611472612bda565b15611132576001600160a01b0360055416330361100757600090600460206114a46105cb85546001600160a01b031690565b604051928380927f46f991ac0000000000000000000000000000000000000000000000000000000082525afa8015610acd5783808481949382948391611546575b505af16114f0612dfb565b501561137b577fcdcc745fe377b103b45fa0cec23ae3ef93d6fc6a84a01f0d18c40b354dd1d5d861154061152f6105cb600b546001600160a01b031690565b604051938452929081906020820190565b0390a280f35b61155e915060203d8111610ac657610ab78183610346565b386114e5565b346105245760203660031901126105245760043561158181610545565b803b600061158e82611955565b9261159c6040519485610346565b82845260208401903c602d8151106115c057602a602091015160601c604051908152f35b60046040517fbaf3f0f7000000000000000000000000000000000000000000000000000000008152fd5b9361160661163b9896939297949760e0875260e08701906103a8565b966001600160a01b03809316602087015260408601521660608401521515608083015260a082015260c08184039101526103a8565b90565b34610524576020366003190112610524576004356000198101908111610d2957611667906101e3565b506001600160a01b03610520600382600185015416936002810154906008810154906009810154926116c2604051926116ab846116a4818461025d565b0385610346565b6116bb604051809881930161025d565b0386610346565b60405197889760ff85169460081c1692886115ea565b34610524576040366003190112610524576004356024356116f881610d5c565b611700612bda565b156111325761170e33612d44565b156110075781151580611867575b61172590612607565b61173661173183611dec565b6101e3565b509061176e60ff600884015461174d828216612652565b611764600686015461175d612ce9565b111561269d565b60b01c16156126e8565b6117d36117c6600a84016117ae6117a96117a561179e3385906001600160a01b0316600052602052604060002090565b5460ff1690565b1590565b612733565b336001600160a01b0316600052602052604060002090565b805460ff19166001179055565b801561185257600482016117e781546121e1565b90555b6040519015158152339083907f0def80f9a3b4c7a4251442658ccf516bf33ea4acaf31638fc6da8ebdb0f64c7290602090a36004810154600782015480911091821592611843575b505061183a57005b6100169061277e565b60050154101590503880611832565b6005820161186081546121e1565b90556117ea565b5060125482111561171c565b346105245760203660031901126105245760043561189033612c5f565b156110075780151580611908575b6118a790612607565b6000198101818111610d29576118be6008916101e3565b5001600160b01b60ff60b01b1982546118dd60ff8260b01c16156126e8565b161790557f4cf2797951877f41b38931a68643f9249273f32fd396532213aa4f1222c9d16b600080a2005b5060125481111561189e565b604051906101e0820182811067ffffffffffffffff82111761032557604052565b6040519060c0820182811067ffffffffffffffff82111761032557604052565b67ffffffffffffffff811161032557601f01601f191660200190565b92919261197d82611955565b9161198b6040519384610346565b829481845281830111610524578281602093846000960137010152565b346105245760a03660031901126105245767ffffffffffffffff600435818111610524576119da903690600401610d2e565b6024929192356119e981610545565b60643592831161052457366023840112156105245761052093611a19611a27943690602481600401359101611971565b9160843593604435926124ab565b6040519081529081906020820190565b3461052457602036600319011261052457602061057d600435611a5981610545565b612d44565b3461052457600036600319011261052457602061057d612bda565b3461052457608036600319011261052457600480359060243590611a9c82610545565b60443567ffffffffffffffff811161052457611abb9036908301610d2e565b9092611ac5612bda565b15611c7f57611ad333612d44565b15611c6f57611ae6601454861115611d8b565b611af2610f4d86611dec565b91611b20600184015491611b0b60ff8460c01c166121f0565b6040966001600160e01b031984891b1661223b565b6003840154909490918215611c525750805486516001600160a01b03858116602080840191909152825290911692601f19929091611b75906117a590611b67604082610346565b611b6f612274565b87612ef7565b611c44575091611bb29593918360016105209a979514611c00575b600214611bc1575b50505b600282015493611bad60643593610368565b612394565b90519081529081906020820190565b87516001600160a01b0393909316602084015260409081018352611bf9929190611beb9083610346565b611bf36122e6565b90612ea6565b3880611b98565b88516001600160a01b03909416602085015292600290611c3c90611c2e816040810103858101835282610346565b611c366122ad565b85612ea6565b939050611b90565b875163ea8e4eb560e01b8152fd5b611bb2959350610520979492506001600160a01b03915016611b9b565b8260405163ea8e4eb560e01b8152fd5b82604051634ee2123760e11b8152fd5b346105245760003660031901126105245760206112c0612ce9565b15611cb157565b606460405162461bcd60e51b815260206004820152601760248201527f64616f2e74656d706c6174652e656d7074792e646573630000000000000000006044820152fd5b15611cfc57565b606460405162461bcd60e51b815260206004820152601a60248201527f64616f2e74656d706c6174652e7a65726f2e73656c6563746f720000000000006044820152fd5b15611d4757565b606460405162461bcd60e51b815260206004820152601860248201527f64616f2e74656d706c6174652e7a65726f2e74617267657400000000000000006044820152fd5b15611d9257565b606460405162461bcd60e51b815260206004820152601460248201527f64616f2e74656d706c6174652e696e76616c69640000000000000000000000006044820152fd5b634e487b7160e01b600052601160045260246000fd5b600019810191908211610d2957565b90601f8111611e0957505050565b600091825260208220906020601f850160051c83019410611e45575b601f0160051c01915b828110611e3a57505050565b818155600101611e2e565b9092508290611e25565b90929167ffffffffffffffff811161032557611e7581611e6f8454610223565b84611dfb565b6000601f8211600114611eaf5781929394600092611ea4575b50508160011b916000199060031b1c1916179055565b013590503880611e8e565b601f19821694611ec484600052602060002090565b91805b878110611eff575083600195969710611ee5575b505050811b019055565b0135600019600384901b60f8161c19169055388080611edb565b90926020600181928686013581550194019101611ec7565b908060209392818452848401376000828201840152601f01601f1916010190565b91611f5b606094979695926001600160e01b031992608086526080860191611f17565b9616602083015260408201520152565b919091825167ffffffffffffffff811161032557611f8d81611e6f8454610223565b602080601f8311600114611fc8575081929394600092611fbd5750508160011b916000199060031b1c1916179055565b015190503880611e8e565b90601f19831695611fde85600052602060002090565b926000905b88821061201a5750508360019596971061200157505050811b019055565b015160001960f88460031b161c19169055388080611edb565b80600185968294968601518155019501930190611fe3565b908051805167ffffffffffffffff81116103255761205a816120548654610223565b86611dfb565b6020918290601f831160011461213e579282600395936121229360a096600092612133575b50508160011b9160001990881b1c19161786555b6120c96120ad60018801928501516001600160a01b031690565b82906001600160a01b03166001600160a01b0319825416179055565b6121016120e160408501516001600160e01b03191690565b825463ffffffff60a01b191660409190911c63ffffffff60a01b16178255565b60608301511515815460ff60c01b191690151560c01b60ff60c01b16179055565b608081015160028501550151910155565b01519050388061207f565b90601f1983169161215487600052602060002090565b9260005b81811061219c5750936121229360a096936001938360039a9810612184575b505050811b018655612093565b0151600019838a1b60f8161c19169055388080612177565b929386600181928786015181550195019301612158565b906121d66001600160e01b03199160409497969597606085526060850191611f17565b951660208201520152565b6000198114610d295760010190565b156121f757565b606460405162461bcd60e51b815260206004820152601560248201527f64616f2e74656d706c6174652e64697361626c656400000000000000000000006044820152fd5b602490836001600160e01b0319959461038394604051978894166020850152848401378101600083820152036004810185520183610346565b6040519061228182610309565b601582527f69735573657245786973747328616464726573732900000000000000000000006020830152565b604051906122ba82610309565b601682527f67657455736572546f496e7374286164647265737329000000000000000000006020830152565b604051906122f382610309565b601682527f67657455736572546f53746f72286164647265737329000000000000000000006020830152565b6012546801000000000000000081101561032557600181018060125581101561021e57600b906012600052027fbb8a6a4669ba250d26cd7a459eca9d215f8307e33aebe50379bc5a3617ec34440190600090565b81810292918115918404141715610d2957565b9060638201809211610d2957565b92936123db919592946123b06123a861231f565b509586611f6b565b6001850180546001600160a01b0319166001600160a01b038816179055600285015560038401611f6b565b60646123f96123f46123eb612da9565b60115490612373565b612386565b046007830155612407612ce9565b908101809111610d295781600991600686940155612463600882016117c633829074ffffffffffffffffffffffffffffffffffffffff001974ffffffffffffffffffffffffffffffffffffffff0083549260081b169116179055565b01556012546040516001600160a01b03909216825291339183907f336735bcae5ee955b87e8b30bee52920223fa30a865b207ac6d9eee9f19589fb9080602081015b0390a490565b9193906124b733612c5f565b15611007576001600160a01b038516156125dd57612519926124da913691611971565b926124ee6124e661231f565b509485611f6b565b6001840180546001600160a01b0319166001600160a01b038716179055600284015560038301611f6b565b60646125296123f46123eb612da9565b046007820155612537612ce9565b928301809311610d29576009926006820155612591600882016117c633829074ffffffffffffffffffffffffffffffffffffffff001974ffffffffffffffffffffffffffffffffffffffff0083549260081b169116179055565b6103e792018290556012546040516001600160a01b03909216825291339183907f336735bcae5ee955b87e8b30bee52920223fa30a865b207ac6d9eee9f19589fb9080602081016124a5565b60046040517fe6c4247b000000000000000000000000000000000000000000000000000000008152fd5b1561260e57565b606460405162461bcd60e51b815260206004820152600e60248201527f64616f2e696e76616c69642e69640000000000000000000000000000000000006044820152fd5b1561265957565b606460405162461bcd60e51b815260206004820152601160248201527f64616f2e70726f702e6e6f7465786973740000000000000000000000000000006044820152fd5b156126a457565b606460405162461bcd60e51b815260206004820152601060248201527f64616f2e766f74696e672e656e646564000000000000000000000000000000006044820152fd5b156126ef57565b606460405162461bcd60e51b815260206004820152601560248201527f64616f2e616c72656164792e636f6d706c6574656400000000000000000000006044820152fd5b1561273a57565b606460405162461bcd60e51b815260206004820152601160248201527f64616f2e616c72656164792e766f7465640000000000000000000000000000006044820152fd5b7f948f4a9cd986f1118c3fbd459f7a22b23c0693e1ca3ef06a6a8be5aa7d39cc036128456113696127b161173185611dec565b5060088101805460ff60b01b1916600160b01b17815590612827600482015460078301548110159081612895575b5083547fffffffffffffffffffff00ffffffffffffffffffffffffffffffffffffffffff1690151560a81b75ff00000000000000000000000000000000000000000016178355565b815460a81c60ff1680612880575b61284a575b505460a81c60ff1690565b0390a2565b8061286260016128799301546001600160a01b031690565b612873600360028401549301610368565b90612fa3565b503861283a565b5061288e6003820154610223565b1515612835565b9050600583015410386127df565b90816020910312610524575161163b81610545565b6040513d6000823e3d90fd5b612ba96101c0610383926128fe6128e282516001600160a01b031690565b6001600160a01b03166001600160a01b03196002541617600255565b61293161291560208301516001600160a01b031690565b6001600160a01b03166001600160a01b03196003541617600355565b61296461294860408301516001600160a01b031690565b6001600160a01b03166001600160a01b03196004541617600455565b61299761297b60608301516001600160a01b031690565b6001600160a01b03166001600160a01b03196005541617600555565b6129ca6129ae60808301516001600160a01b031690565b6001600160a01b03166001600160a01b03196006541617600655565b6129fd6129e160a08301516001600160a01b031690565b6001600160a01b03166001600160a01b03196007541617600755565b612a30612a1460c08301516001600160a01b031690565b6001600160a01b03166001600160a01b03196008541617600855565b612a63612a4760e08301516001600160a01b031690565b6001600160a01b03166001600160a01b03196009541617600955565b612a97612a7b6101008301516001600160a01b031690565b6001600160a01b03166001600160a01b0319600a541617600a55565b612acb612aaf6101208301516001600160a01b031690565b6001600160a01b03166001600160a01b0319600b541617600b55565b612aff612ae36101408301516001600160a01b031690565b6001600160a01b03166001600160a01b0319600c541617600c55565b612b33612b176101608301516001600160a01b031690565b6001600160a01b03166001600160a01b0319600d541617600d55565b612b67612b4b6101808301516001600160a01b031690565b6001600160a01b03166001600160a01b0319600e541617600e55565b612b9b612b7f6101a08301516001600160a01b031690565b6001600160a01b03166001600160a01b0319600f541617600f55565b01516001600160a01b031690565b6001600160a01b03166001600160a01b03196010541617601055565b90816020910312610524575161163b81610d5c565b612c356001600160a01b0360025416604051612bf581610309565b600881527f6973536166652829000000000000000000000000000000000000000000000000602082015260405191612c2c8361032a565b60008352612e2b565b9080612c54575b1561137b578060208061163b93518301019101612bc5565b506020815114612c3c565b612cc26001600160a01b038060025416604051916020941684830152838252612c8782610309565b60405190612c9482610309565b601182527f69735369676e657228616464726573732900000000000000000000000000000085830152612e2b565b9080612cdf575b1561137b578161163b9282518301019101612bc5565b5081815114612cc9565b61163b6001600160a01b0360035416604051612d0481610309565b600681527f6941676528290000000000000000000000000000000000000000000000000000602082015260405191612d3b8361032a565b60008352612f33565b61163b906001600160a01b038060065416906040519216602083015260208252612d6d82610309565b60405190612d7a82610309565b601882527f697364656c656761746f724e6f646528616464726573732900000000000000006020830152612ef7565b61163b6001600160a01b0360065416604051612dc481610309565b601381527f67657464656c656761746f72436f756e74282900000000000000000000000000602082015260405191612d3b8361032a565b3d15612e26573d90612e0c82611955565b91612e1a6040519384610346565b82523d6000602084013e565b606090565b803b15612e8d576000926001600160e01b03198360208695519101201690612e7d6024604051809360208201958652612e6d8151809260208686019101610385565b8101036004810184520182610346565b51915afa612e89612dfb565b9091565b505050600090604051612e9f8161032a565b6000815290565b9291612eb491600094612e2b565b9080612eec575b612ec25750565b9091506020818051810103126105245760206001600160a01b03910151612ee881610545565b1690565b506020815114612ebb565b9291612f0591600094612e2b565b9080612f28575b612f135750565b61163b91925060208082518301019101612bc5565b506020815114612f0c565b9291612f4191600094612e2b565b9080612f66575b612f4f5750565b909150602081805181010312610524576020015190565b506020815114612f48565b90602082519201516001600160e01b0319908181169360048110612f9457505050565b60040360031b82901b16169150565b9190916001600160a01b038116156125dd57600091829184519160208601915af190612fcd612dfb565b9115612fd7575090565b80516000919060041161303b57612fee9150612f71565b815115612ffe5750805190602001fd5b6040517f21c09d340000000000000000000000000000000000000000000000000000000081526001600160e01b0319919091166004820152602490fd5b50612fee56fea2646970667358221220ccf666624bfd2b27509b2d347c6a3a1c4913ed132f6fd96c3824ce5a2934056564736f6c63430008140033","linkReferences":{}},"methodIdentifiers":{"Burn(uint256)":"b90306ad","_delegatorCount()":"a1f7f539","_getImplementation(address)":"c54e44b0","_isDelegatorNode(address)":"e01ad5fd","_isSafe()":"e0a9bc2b","_isSecureBase(address)":"af484526","_isSigner(address)":"1f185d16","addOrUpdateProposalTemplate(uint256,string,address,bytes4,uint256,uint256,bool)":"45a257bc","createProposal(string,address,uint256,bytes,uint256)":"d3325a2c","declineProposal(uint256)":"cc48bf16","getBalance()":"12065fe0","getHexbase()":"3b9b7955","getProposal(uint256)":"c7f758a8","getProposalsCount()":"98e527d3","getResult(uint256)":"995e4339","getStatus(uint256)":"5c622a0e","hasVoted(uint256,address)":"43859632","newProposal(uint256,address,bytes,uint256)":"eeebb3c3","owner()":"8da5cb5b","proposalTemplates(uint256)":"896d6db1","proposals(uint256)":"013cf08b","setProposalTemplateStatus(uint256,bool)":"b7ccfe32","setWinPer(uint256)":"604ff4b1","syncBaseAddr()":"339459a6","systemAge()":"fdc10bc9","templateCount()":"26705c3c","vote(uint256,bool)":"c9d27afe"},"id":50}