{"abi":[{"type":"constructor","inputs":[{"name":"_hex","type":"address","internalType":"address"}],"stateMutability":"nonpayable"},{"type":"fallback","stateMutability":"payable"},{"type":"receive","stateMutability":"payable"},{"type":"function","name":"Burn","inputs":[{"name":"amount","type":"uint256","internalType":"uint256"}],"outputs":[],"stateMutability":"nonpayable"},{"type":"function","name":"_delegatorCount","inputs":[],"outputs":[{"name":"","type":"uint256","internalType":"uint256"}],"stateMutability":"view"},{"type":"function","name":"_getImplementation","inputs":[{"name":"clone","type":"address","internalType":"address"}],"outputs":[{"name":"impl","type":"address","internalType":"address"}],"stateMutability":"view"},{"type":"function","name":"_isDelegatorNode","inputs":[{"name":"sender","type":"address","internalType":"address"}],"outputs":[{"name":"","type":"bool","internalType":"bool"}],"stateMutability":"view"},{"type":"function","name":"_isSafe","inputs":[],"outputs":[{"name":"","type":"bool","internalType":"bool"}],"stateMutability":"view"},{"type":"function","name":"_isSecureBase","inputs":[{"name":"sender","type":"address","internalType":"address"}],"outputs":[{"name":"","type":"bool","internalType":"bool"}],"stateMutability":"view"},{"type":"function","name":"_isSigner","inputs":[{"name":"sender","type":"address","internalType":"address"}],"outputs":[{"name":"","type":"bool","internalType":"bool"}],"stateMutability":"view"},{"type":"function","name":"getBalance","inputs":[],"outputs":[{"name":"","type":"uint256","internalType":"uint256"}],"stateMutability":"view"},{"type":"function","name":"getHexbase","inputs":[],"outputs":[{"name":"","type":"address","internalType":"address"}],"stateMutability":"view"},{"type":"function","name":"owner","inputs":[],"outputs":[{"name":"","type":"address","internalType":"address"}],"stateMutability":"view"},{"type":"function","name":"setBase","inputs":[{"name":"_f","type":"address","internalType":"address"}],"outputs":[],"stateMutability":"nonpayable"},{"type":"function","name":"syncBaseAddr","inputs":[],"outputs":[],"stateMutability":"nonpayable"},{"type":"function","name":"systemAge","inputs":[],"outputs":[{"name":"","type":"uint256","internalType":"uint256"}],"stateMutability":"view"},{"type":"function","name":"transfer","inputs":[{"name":"u","type":"address","internalType":"address"},{"name":"p","type":"uint256","internalType":"uint256"}],"outputs":[],"stateMutability":"payable"},{"type":"event","name":"EthBurned","inputs":[{"name":"sender","type":"address","indexed":true,"internalType":"address"},{"name":"amount","type":"uint256","indexed":false,"internalType":"uint256"}],"anonymous":false},{"type":"event","name":"EthTransferred","inputs":[{"name":"to","type":"address","indexed":true,"internalType":"address"},{"name":"amount","type":"uint256","indexed":false,"internalType":"uint256"}],"anonymous":false},{"type":"event","name":"HexBaseUpdated","inputs":[{"name":"previousHexBase","type":"address","indexed":true,"internalType":"address"},{"name":"newHexBase","type":"address","indexed":true,"internalType":"address"}],"anonymous":false},{"type":"event","name":"OwnerUpdated","inputs":[{"name":"previousOwner","type":"address","indexed":true,"internalType":"address"},{"name":"newOwner","type":"address","indexed":true,"internalType":"address"}],"anonymous":false},{"type":"event","name":"TreasuryTransfer","inputs":[{"name":"to","type":"address","indexed":true,"internalType":"address"},{"name":"amount","type":"uint256","indexed":false,"internalType":"uint256"},{"name":"executor","type":"address","indexed":true,"internalType":"address"}],"anonymous":false},{"type":"error","name":"InvalidAddress","inputs":[]},{"type":"error","name":"InvalidState","inputs":[]},{"type":"error","name":"NotAuthorized","inputs":[]},{"type":"error","name":"NotSafe","inputs":[]},{"type":"error","name":"TargetCallFailed","inputs":[{"name":"selector","type":"bytes4","internalType":"bytes4"}]}],"bytecode":{"object":"0x60803461009257601f61127d38819003918201601f19168301916001600160401b038311848410176100975780849260209460405283398101031261009257516001600160a01b038116908190036100925780156100805760018060a01b03193381600154161760015560005416176000556040516111cf90816100ae8239f35b60405163e6c4247b60e01b8152600490fd5b600080fd5b634e487b7160e01b600052604160045260246000fdfe60806040526004361015610018575b361561001657005b005b60003560e01c806312065fe0146100f85780631f185d16146100f3578063339459a6146100ee5780633b9b7955146100e95780638da5cb5b146100e4578063a1f7f539146100df578063a9059cbb146100da578063af484526146100d5578063b90306ad146100d0578063be17fe62146100cb578063c54e44b0146100c6578063e01ad5fd146100c1578063e0a9bc2b146100bc5763fdc10bc90361000e57610b00565b610ae5565b610a1e565b6109c2565b61092c565b610820565b6107ef565b610686565b61061c565b6105f3565b6105ca565b6101fd565b610136565b3461011457600036600319011261011457602047604051908152f35b600080fd5b6001600160a01b031690565b6001600160a01b0381160361011457565b3461011457602080600319360112610114576101a960043561015781610125565b6002546040516001600160a01b0392831685820152848152911661017a82610b62565b6040519061018782610b62565b601182527069735369676e657228616464726573732960781b85830152610ff1565b9190806101f3575b156101e15781816101cb926101dd94518301019101610e56565b60405190151581529081906020820190565b0390f35b60405163baf3f0f760e01b8152600490fd5b50808251146101b1565b34610114576000806003193601126105c75761022161021c8254610119565b610119565b60408051634bf9c0ad60e11b81529160049190602080858581855afa94851561048e5786956105a8575b50825163cfbffe5360e01b81529281848681865afa93841561048e578794610589575b50805163ab6e844f60e01b815282818781875afa90811561048e57889161056c575b508151630536340960e21b815283818881885afa90811561048e57899161054f575b50825163d1f956b160e01b81529084828981895afa91821561048e578a92610530575b508351631cc3bfab60e31b81529285848a818a5afa93841561048e578b94610511575b50845163e09d394d60e01b81529486868b818b5afa95861561048e578c966104f2575b5080516314ac1b5960e21b815298878a8c818c5afa97881561048e576103629a8e996104d3575b50808c8451809d819263013cf08b60e01b83528201906000602083019252565b03818d5afa998a1561048e578c9b8f9b6104b4575b50818451809d635e09dbe760e01b825281845afa9b8c1561048e578f9c610493575b50819084519d8e8092635506ee0b60e11b82525afa9b8c1561048e578e9c61045f575b506103c5610be4565b9c6103d0908e610c04565b8c01906103dc91610c04565b8a01906103e891610c04565b6103f59060608a01610c04565b6104029060808901610c04565b61040f9060a08801610c04565b61041c9060c08701610c04565b6104299060e08601610c04565b610437906101008501610c04565b610445906101208401610c04565b610453906101408301610c04565b61045c90610c13565b80f35b81610480929d508d3d10610487575b6104788183610b9d565b810190610bc0565b9a386103bc565b503d61046e565b610bd8565b82919c506104ad90823d8411610487576104788183610b9d565b9b90610399565b6104cc919b50823d8411610487576104788183610b9d565b9938610377565b816104eb929a503d8b11610487576104788183610b9d565b9738610342565b61050a919650873d8911610487576104788183610b9d565b943861031b565b610529919450863d8811610487576104788183610b9d565b92386102f8565b610548919250853d8711610487576104788183610b9d565b90386102d5565b6105669150843d8611610487576104788183610b9d565b386102b2565b6105839150833d8511610487576104788183610b9d565b38610290565b6105a1919450823d8411610487576104788183610b9d565b923861026e565b816105c09296503d8711610487576104788183610b9d565b933861024b565b80fd5b34610114576000366003190112610114576000546040516001600160a01b039091168152602090f35b34610114576000366003190112610114576001546040516001600160a01b039091168152602090f35b3461011457600036600319011261011457602061067e60018060a01b036006541660405161064981610b62565b601381527267657464656c656761746f72436f756e74282960681b848201526040519161067583610b82565b60008352611088565b604051908152f35b60408060031936011261011457600435906106a082610125565b602435916001600160a01b03808216929083156107de576106bf610e6e565b156107cd576106cd33610ee0565b9081156107bf575b50156107af5783804710610709575b6106fd9060008051602061117a83398151915293610f91565b519283523392602090a3005b506004602061071c61021c600054610119565b8351635e09dbe760e01b815292839182905afa801561048e5760008051602061117a8339815191529361078787926106fd94600091610791575b50855163a9059cbb60e01b60208201523060248201526044808201869052815290610782606483610b9d565b6110f7565b50935090506106e4565b6107a9915060203d8111610487576104788183610b9d565b38610756565b5163ea8e4eb560e01b8152600490fd5b6005541633149050386106d5565b8151634ee2123760e11b8152600490fd5b815163e6c4247b60e01b8152600490fd5b3461011457602036600319011261011457602061081660043561081181610125565b610ee0565b6040519015158152f35b346101145760203660031901126101145760043561083c610e6e565b1561091a576005546001600160a01b03163303610908576000906004602061086761021c8554610119565b6040516311be646b60e21b815292839182905afa801561048e57838084819493829483916108ea575b505af161089b610f61565b50156101e1577fcdcc745fe377b103b45fa0cec23ae3ef93d6fc6a84a01f0d18c40b354dd1d5d86108e46108d361021c600b54610119565b604051938452929081906020820190565b0390a280f35b610902915060203d8111610487576104788183610b9d565b38610890565b60405163ea8e4eb560e01b8152600490fd5b604051634ee2123760e11b8152600490fd5b346101145760203660031901126101145760043561094981610125565b610951610e6e565b1561091a576005546001600160a01b0391908216330361090857811680156109b057600080546001600160a01b03198116831782559092167fe939feee179e631422bcc8f6e6d7d908cb3f8af38f5372f17c77e15aea5c80ee8380a380f35b60405163e6c4247b60e01b8152600490fd5b34610114576020366003190112610114576004356109df81610125565b803b60006109ec82610e3b565b926109fa6040519485610b9d565b82845260208401903c602d8151106101e157602a602091015160601c604051908152f35b3461011457602080600319360112610114576101dd9060043590610a4182610125565b6006546040516001600160a01b0393841683820152828152921691610aa190610a6981610b62565b604051610a7581610b62565b6018815277697364656c656761746f724e6f646528616464726573732960401b84820152600094610ff1565b919080610adb575b610ac2575b505060405190151581529081906020820190565b610ad492508082518301019101610e56565b3880610aae565b5080825114610aa9565b34610114576000366003190112610114576020610816610e6e565b3461011457600036600319011261011457602061067e60018060a01b0360035416604051610b2d81610b62565b600681526569416765282960d01b848201526040519161067583610b82565b634e487b7160e01b600052604160045260246000fd5b604081019081106001600160401b03821117610b7d57604052565b610b4c565b602081019081106001600160401b03821117610b7d57604052565b601f909101601f19168101906001600160401b03821190821017610b7d57604052565b908160209103126101145751610bd581610125565b90565b6040513d6000823e3d90fd5b6040519061016082016001600160401b03811183821017610b7d57604052565b6001600160a01b039091169052565b610e17610140610e3992610c4c610c2a8251610119565b600280546001600160a01b0319166001600160a01b0392909216919091179055565b610c7e610c5c6020830151610119565b600380546001600160a01b0319166001600160a01b0392909216919091179055565b610cb0610c8e6040830151610119565b600480546001600160a01b0319166001600160a01b0392909216919091179055565b610ce2610cc06060830151610119565b600580546001600160a01b0319166001600160a01b0392909216919091179055565b610d14610cf26080830151610119565b600680546001600160a01b0319166001600160a01b0392909216919091179055565b610d46610d2460a0830151610119565b600780546001600160a01b0319166001600160a01b0392909216919091179055565b610d78610d5660c0830151610119565b600880546001600160a01b0319166001600160a01b0392909216919091179055565b610daa610d8860e0830151610119565b600980546001600160a01b0319166001600160a01b0392909216919091179055565b610ddd610dbb610100830151610119565b600a80546001600160a01b0319166001600160a01b0392909216919091179055565b610e10610dee610120830151610119565b600b80546001600160a01b0319166001600160a01b0392909216919091179055565b0151610119565b600c80546001600160a01b0319166001600160a01b0392909216919091179055565b565b6001600160401b038111610b7d57601f01601f191660200190565b90816020910312610114575180151581036101145790565b600254604051610eb6916001600160a01b031690610e8b81610b62565b6008815267697353616665282960c01b602082015260405191610ead83610b82565b60008352610ff1565b9080610ed5575b156101e15780602080610bd593518301019101610e56565b506020815114610ebd565b610f3a60018060a01b038060025416604051916020941684830152838252610f0782610b62565b60405190610f1482610b62565b601582527469735365637572654261736528616464726573732960581b85830152610ff1565b9080610f57575b156101e15781610bd59282518301019101610e56565b5081815114610f41565b3d15610f8c573d90610f7282610e3b565b91610f806040519384610b9d565b82523d6000602084013e565b606090565b908015610fed576001600160a01b0382169182156109b057600080808481945af1610fba610f61565b50156101e15760207fcec1f18c3ab8ddaaa107a1591e3c369667eec613626611a8deaedef43069fcdd91604051908152a2565b5050565b9190823b1561106f578051906020918263ffffffff60e01b92012016916040519180830193845281519160005b83811061105b57505050918161104b60248260009795968897018783820152036004810184520182610b9d565b51915afa611057610f61565b9091565b81810183015185820160240152820161101e565b50505060009060405161108181610b82565b6000815290565b929161109691600094610ff1565b90806110bb575b6110a45750565b909150602081805181010312610114576020015190565b50602081511461109d565b906020825192015163ffffffff60e01b9081811693600481106110e857505050565b60040360031b82901b16169150565b6001600160a01b038116156109b057600080918351908260208601915af19061111e610f61565b9115611128575090565b8051600091906004116111735761113f91506110c6565b81511561114f5750805190602001fd5b604051630870274d60e21b81526001600160e01b0319919091166004820152602490fd5b5061113f56fe1e70cf59d0c7a20c88704bfce5a47e636dfa577ebf52a7166641741cef343661a264697066735822122093c6abf7b2a651043e3ebd5dea18d098dd11b24abfd734809d522083cbf865b064736f6c63430008140033","linkReferences":{}},"methodIdentifiers":{"Burn(uint256)":"b90306ad","_delegatorCount()":"a1f7f539","_getImplementation(address)":"c54e44b0","_isDelegatorNode(address)":"e01ad5fd","_isSafe()":"e0a9bc2b","_isSecureBase(address)":"af484526","_isSigner(address)":"1f185d16","getBalance()":"12065fe0","getHexbase()":"3b9b7955","owner()":"8da5cb5b","setBase(address)":"be17fe62","syncBaseAddr()":"339459a6","systemAge()":"fdc10bc9","transfer(address,uint256)":"a9059cbb"},"id":30}