{"abi":[{"type":"constructor","inputs":[],"stateMutability":"nonpayable"},{"type":"fallback","stateMutability":"payable"},{"type":"receive","stateMutability":"payable"},{"type":"function","name":"Burn","inputs":[{"name":"amount","type":"uint256","internalType":"uint256"}],"outputs":[],"stateMutability":"payable"},{"type":"function","name":"_setOwner","inputs":[{"name":"own","type":"address","internalType":"address"},{"name":"isApproved","type":"bool","internalType":"bool"}],"outputs":[],"stateMutability":"nonpayable"},{"type":"function","name":"_setReq","inputs":[{"name":"own","type":"address","internalType":"address"}],"outputs":[],"stateMutability":"nonpayable"},{"type":"function","name":"age","inputs":[],"outputs":[{"name":"","type":"uint256","internalType":"uint256"}],"stateMutability":"view"},{"type":"function","name":"canClaim","inputs":[{"name":"user","type":"address","internalType":"address"}],"outputs":[{"name":"","type":"bool","internalType":"bool"}],"stateMutability":"view"},{"type":"function","name":"doClaim","inputs":[{"name":"_max","type":"uint256","internalType":"uint256"}],"outputs":[],"stateMutability":"payable"},{"type":"function","name":"getBalance","inputs":[],"outputs":[{"name":"","type":"uint256","internalType":"uint256"}],"stateMutability":"view"},{"type":"function","name":"isOwnerOrSafeOwner","inputs":[{"name":"sender","type":"address","internalType":"address"}],"outputs":[{"name":"","type":"bool","internalType":"bool"}],"stateMutability":"view"},{"type":"function","name":"maxclaim","inputs":[],"outputs":[{"name":"","type":"uint256","internalType":"uint256"}],"stateMutability":"view"},{"type":"function","name":"own_reinit","inputs":[{"name":"_h","type":"address","internalType":"address"}],"outputs":[],"stateMutability":"nonpayable"},{"type":"function","name":"owner","inputs":[],"outputs":[{"name":"","type":"address","internalType":"address"}],"stateMutability":"view"},{"type":"function","name":"req","inputs":[],"outputs":[{"name":"newowner","type":"address","internalType":"address"},{"name":"isReq","type":"bool","internalType":"bool"},{"name":"isVer1","type":"bool","internalType":"bool"},{"name":"isVer2","type":"bool","internalType":"bool"},{"name":"isVer3","type":"bool","internalType":"bool"}],"stateMutability":"view"},{"type":"function","name":"setMaxClaim","inputs":[{"name":"_m","type":"uint256","internalType":"uint256"}],"outputs":[],"stateMutability":"nonpayable"},{"type":"function","name":"totalclaimed","inputs":[{"name":"","type":"uint256","internalType":"uint256"}],"outputs":[{"name":"","type":"uint256","internalType":"uint256"}],"stateMutability":"view"},{"type":"function","name":"userClaimedOn","inputs":[{"name":"","type":"address","internalType":"address"}],"outputs":[{"name":"","type":"uint256","internalType":"uint256"}],"stateMutability":"view"},{"type":"function","name":"withdraw","inputs":[{"name":"to","type":"address","internalType":"address"},{"name":"amount","type":"uint256","internalType":"uint256"}],"outputs":[],"stateMutability":"payable"}],"bytecode":{"object":"0x608060405268879458e92253f40000600f553480156200001e57600080fd5b506200003e733da5851bfbd366376e6e8f3ec00a6ec6fb40324c620000ec565b6000546040805163223df87160e11b81529051620000e3926001600160a01b03169163447bf0e29160048083019260209291908290030181865afa1580156200008b573d6000803e3d6000fd5b505050506040513d601f19601f82011682018060405250810190620000b19190620008ab565b6040805180820182526005815264616765282960d81b6020808301919091528251600081529081019092529062000175565b600e556200096e565b6000546001600160a01b0316156200013f5760405162461bcd60e51b81526020600482015260126024820152711bdddb8b9a195e18985cd94b99985a5b195960721b604482015260640160405180910390fd5b600c8054326001600160a01b031991821617909155600080549091166001600160a01b03831617905562000172620001c1565b50565b60008080620001868686866200079f565b9150915081801562000199575080516020145b15620001b85780806020019051810190620001b59190620008dd565b92505b50509392505050565b6000546001600160a01b0316620001d457565b60008054906101000a90046001600160a01b03166001600160a01b0316634162169f6040518163ffffffff1660e01b8152600401602060405180830381865afa15801562000226573d6000803e3d6000fd5b505050506040513d601f19601f820116820180604052508101906200024c9190620008ab565b600180546001600160a01b0319166001600160a01b0392831617905560005460408051635abedee360e11b81529051919092169163b57dbdc69160048083019260209291908290030181865afa158015620002ab573d6000803e3d6000fd5b505050506040513d601f19601f82011682018060405250810190620002d19190620008ab565b600280546001600160a01b0319166001600160a01b039283161790556000546040805163cfbffe5360e01b81529051919092169163cfbffe539160048083019260209291908290030181865afa15801562000330573d6000803e3d6000fd5b505050506040513d601f19601f82011682018060405250810190620003569190620008ab565b600380546001600160a01b0319166001600160a01b039283161790556000546040805163ab6e844f60e01b81529051919092169163ab6e844f9160048083019260209291908290030181865afa158015620003b5573d6000803e3d6000fd5b505050506040513d601f19601f82011682018060405250810190620003db9190620008ab565b600480546001600160a01b0319166001600160a01b0392831617815560005460408051639a7c407760e01b815290519190931692639a7c407792818101926020929091908290030181865afa15801562000439573d6000803e3d6000fd5b505050506040513d601f19601f820116820180604052508101906200045f9190620008ab565b600580546001600160a01b0319166001600160a01b0392831617905560005460408051635506ee0b60e11b81529051919092169163aa0ddc169160048083019260209291908290030181865afa158015620004be573d6000803e3d6000fd5b505050506040513d601f19601f82011682018060405250810190620004e49190620008ab565b600780546001600160a01b0319166001600160a01b03928316179055600054604080516335a577e360e11b815290519190921691636b4aefc69160048083019260209291908290030181865afa15801562000543573d6000803e3d6000fd5b505050506040513d601f19601f82011682018060405250810190620005699190620008ab565b600880546001600160a01b0319166001600160a01b03928316179055600054604080516324768d9160e01b8152905191909216916324768d919160048083019260209291908290030181865afa158015620005c8573d6000803e3d6000fd5b505050506040513d601f19601f82011682018060405250810190620005ee9190620008ab565b600b80546001600160a01b0319166001600160a01b0392831617905560005460408051636402742760e01b81529051919092169163640274279160048083019260209291908290030181865afa1580156200064d573d6000803e3d6000fd5b505050506040513d601f19601f82011682018060405250810190620006739190620008ab565b600980546001600160a01b0319166001600160a01b03928316179055600054604080516330125cf560e01b8152905191909216916330125cf59160048083019260209291908290030181865afa158015620006d2573d6000803e3d6000fd5b505050506040513d601f19601f82011682018060405250810190620006f89190620008ab565b600a80546001600160a01b0319166001600160a01b03928316179055600054604080516369e8d84b60e11b81529051919092169163d3d1b0969160048083019260209291908290030181865afa15801562000757573d6000803e3d6000fd5b505050506040513d601f19601f820116820180604052508101906200077d9190620008ab565b600680546001600160a01b0319166001600160a01b0392909216919091179055565b60006060846001600160a01b03163b600003620007cf5750506040805160208101909152600080825290620008a3565b60408051600481526024810191829052600091620007ef9087906200091d565b60405180910390206001600160e01b0319166020820180516001600160e01b038381831617835250505050846040516020016200082e9291906200093b565b6040516020818303038152906040529050856001600160a01b0316816040516200085991906200091d565b600060405180830381855afa9150503d806000811462000896576040519150601f19603f3d011682016040523d82523d6000602084013e6200089b565b606091505b509093509150505b935093915050565b600060208284031215620008be57600080fd5b81516001600160a01b0381168114620008d657600080fd5b9392505050565b600060208284031215620008f057600080fd5b5051919050565b60005b8381101562000914578181015183820152602001620008fa565b50506000910152565b6000825162000931818460208701620008f7565b9190910192915050565b600083516200094f818460208801620008f7565b83519083019062000965818360208801620008f7565b01949350505050565b611e3d806200097e6000396000f3fe6080604052600436106100eb5760003560e01c806392b41b1b11610084578063bf3506c111610056578063bf3506c1146102d1578063c05ebf48146102f1578063c285c0b01461031e578063f3fef3a31461033e57005b806392b41b1b1461025b578063abb8c96514610288578063b8430d08146102a8578063b90306ad146102be57005b8063379a423c116100bd578063379a423c146101c357806341ffe7c4146101f357806360af454d146102135780638da5cb5b1461023357005b806302686879146100f45780630d43aaf21461010757806312065fe014610190578063262a9dff146101ad57005b366100f257005b005b6100f2610102366004611bf4565b610351565b34801561011357600080fd5b50600d54610151906001600160a01b0381169060ff600160a01b8204811691600160a81b8104821691600160b01b8204811691600160b81b90041685565b604080516001600160a01b03909616865293151560208601529115159284019290925290151560608301521515608082015260a0015b60405180910390f35b34801561019c57600080fd5b50475b604051908152602001610187565b3480156101b957600080fd5b5061019f600e5481565b3480156101cf57600080fd5b506101e36101de366004611c22565b6106d5565b6040519015158152602001610187565b3480156101ff57600080fd5b506100f261020e366004611c22565b610762565b34801561021f57600080fd5b506100f261022e366004611c22565b610a19565b34801561023f57600080fd5b50600c546040516001600160a01b039091168152602001610187565b34801561026757600080fd5b5061019f610276366004611c22565b60106020526000908152604090205481565b34801561029457600080fd5b506100f26102a3366004611c4d565b610a9b565b3480156102b457600080fd5b5061019f600f5481565b6100f26102cc366004611bf4565b610e75565b3480156102dd57600080fd5b506101e36102ec366004611c22565b610f81565b3480156102fd57600080fd5b5061019f61030c366004611bf4565b60116020526000908152604090205481565b34801561032a57600080fd5b506100f2610339366004611bf4565b610f8c565b6100f261034c366004611c86565b611072565b600080546040805163223df87160e11b8152905161040a926001600160a01b03169163447bf0e29160048083019260209291908290030181865afa15801561039d573d6000803e3d6000fd5b505050506040513d601f19601f820116820180604052508101906103c19190611cb2565b604080518082018252601381527255736572546f496e737428616464726573732960681b6020808301919091528251338183015283518082039092018252830190925290611218565b90506001600160a01b0381166104605760405162461bcd60e51b8152602060048201526016602482015275636c61696d2e696e76616c69642e696e7374616e636560501b60448201526064015b60405180910390fd5b600080546040805163223df87160e11b81529051610501926001600160a01b03169163447bf0e29160048083019260209291908290030181865afa1580156104ac573d6000803e3d6000fd5b505050506040513d601f19601f820116820180604052508101906104d09190611cb2565b6040805180820182526005815264616765282960d81b6020808301919091528251600081529081019092529061125f565b9050600e54811161051457600e54610516565b805b600e819055600f546000918252601160205260409091205411156105725760405162461bcd60e51b815260206004820152601360248201527218db185a5b4b9c5d5bdd184b9c995858da1959606a1b6044820152606401610457565b61057b3361129a565b6105ba5760405162461bcd60e51b815260206004820152601060248201526f18db185a5b4b9b9bddcb99985a5b195960821b6044820152606401610457565b6000610610836040518060400160405280601081526020016f636f6d707574652875696e743235362960801b815250866040516020016105fc91815260200190565b604051602081830303815290604052611315565b905060008060008351111561063857828060200190518101906106339190611ccf565b925090505b600e5433600090815260106020908152604080832084905592825260119052908120805483929061066a908490611d0a565b9091555050604051600060248201819052604482018890526064820181905260076084830152906106cb90879060a40160408051601f198184030181529190526020810180516001600160e01b0316630a3e884b60e41b1790526000611437565b5050505050505050565b6002546040516319c0642960e01b81526001600160a01b03838116600483015260009216906319c0642990602401602060405180830381865afa158015610720573d6000803e3d6000fd5b505050506040513d601f19601f820116820180604052508101906107449190611d1d565b8061075c5750600c546001600160a01b038381169116145b92915050565b600260009054906101000a90046001600160a01b03166001600160a01b0316636a276f9d6040518163ffffffff1660e01b8152600401602060405180830381865afa1580156107b5573d6000803e3d6000fd5b505050506040513d601f19601f820116820180604052508101906107d99190611d1d565b6107f55760405162461bcd60e51b815260040161045790611d3a565b6001546001600160a01b03163314806108755750600254604051637df73e2760e01b81523360048201526001600160a01b0390911690637df73e2790602401602060405180830381865afa158015610851573d6000803e3d6000fd5b505050506040513d601f19601f820116820180604052508101906108759190611d1d565b6108b65760405162461bcd60e51b81526020600482015260126024820152716f776d2e66616b652e2064656c656761746560701b6044820152606401610457565b6002546040516307612f9160e21b81523360048201526000916001600160a01b031690631d84be4490602401602060405180830381865afa1580156108ff573d6000803e3d6000fd5b505050506040513d601f19601f820116820180604052508101906109239190611d66565b90506109566040805160a08101825260008082526020820181905291810182905260608101829052608081019190915290565b60016020820181905282900361096e57600160408201525b8160020361097e57600160608201525b8160030361098e57600160808201525b6001600160a01b03909216808352600d80546020850151604086015160608701516080909701511515600160b81b0260ff60b81b19971515600160b01b0260ff60b01b19921515600160a81b029290921661ffff60a81b19931515600160a01b026001600160a81b031990951690961793909317919091169390931792909217939093161790915550565b6000546001600160a01b031615610a675760405162461bcd60e51b81526020600482015260126024820152711bdddb8b9a195e18985cd94b99985a5b195960721b6044820152606401610457565b600c8054326001600160a01b031991821617909155600080549091166001600160a01b038316179055610a98611536565b50565b600260009054906101000a90046001600160a01b03166001600160a01b0316636a276f9d6040518163ffffffff1660e01b8152600401602060405180830381865afa158015610aee573d6000803e3d6000fd5b505050506040513d601f19601f82011682018060405250810190610b129190611d1d565b610b2e5760405162461bcd60e51b815260040161045790611d3a565b6001546001600160a01b0316331480610bae5750600254604051637df73e2760e01b81523360048201526001600160a01b0390911690637df73e2790602401602060405180830381865afa158015610b8a573d6000803e3d6000fd5b505050506040513d601f19601f82011682018060405250810190610bae9190611d1d565b610bef5760405162461bcd60e51b81526020600482015260126024820152716f776d2e66616b652e2064656c656761746560701b6044820152606401610457565b8015610e39576002546040516307612f9160e21b81523360048201526000916001600160a01b031690631d84be4490602401602060405180830381865afa158015610c3e573d6000803e3d6000fd5b505050506040513d601f19601f82011682018060405250810190610c629190611d66565b600d54909150600160a01b900460ff168015610c7e5750806001145b8015610c975750600d546001600160a01b038481169116145b15610cb057600d805460ff60a81b1916600160a81b1790555b600d54600160a01b900460ff168015610cc95750806002145b8015610ce25750600d546001600160a01b038481169116145b15610cfb57600d805460ff60b01b1916600160b01b1790555b600d54600160a01b900460ff168015610d145750806003145b8015610d2d5750600d546001600160a01b038481169116145b15610d4657600d805460ff60b81b1916600160b81b1790555b600d54600090600160a81b900460ff1615610d695780610d6581611d7f565b9150505b600d54600160b01b900460ff1615610d895780610d8581611d7f565b9150505b600d54600160b81b900460ff1615610da95780610da581611d7f565b9150505b600d54600160a01b900460ff168015610dc25750806002145b8015610ddb5750600d546001600160a01b038581169116145b15610e3357600c80546001600160a01b0319166001600160a01b0386161790556040805160a0810182526000808252602082018190529181018290526060810182905260800152600d80546001600160c01b03191690555b50505050565b6040805160a0810182526000808252602082018190529181018290526060810182905260800152600d80546001600160c01b03191690555b5050565b600260009054906101000a90046001600160a01b03166001600160a01b0316636a276f9d6040518163ffffffff1660e01b8152600401602060405180830381865afa158015610ec8573d6000803e3d6000fd5b505050506040513d601f19601f82011682018060405250810190610eec9190611d1d565b610f085760405162461bcd60e51b815260040161045790611d3a565b6001546001600160a01b03163314610f545760405162461bcd60e51b815260206004820152600f60248201526e6f776e2e6e6f6e617574682e44414f60881b6044820152606401610457565b60405160009082156108fc0290839083818181858288f19350505050158015610e71573d6000803e3d6000fd5b600061075c8261129a565b600260009054906101000a90046001600160a01b03166001600160a01b0316636a276f9d6040518163ffffffff1660e01b8152600401602060405180830381865afa158015610fdf573d6000803e3d6000fd5b505050506040513d601f19601f820116820180604052508101906110039190611d1d565b61101f5760405162461bcd60e51b815260040161045790611d3a565b600c546001600160a01b0316331461106d5760405162461bcd60e51b815260206004820152601160248201527037bbb71734b73b30b634b2173bbbb732b960791b6044820152606401610457565b600f55565b816001600160a01b0381166110be5760405162461bcd60e51b815260206004820152601260248201527137bbb7173232b330bab63a1739b2b73232b960711b6044820152606401610457565b600260009054906101000a90046001600160a01b03166001600160a01b0316636a276f9d6040518163ffffffff1660e01b8152600401602060405180830381865afa158015611111573d6000803e3d6000fd5b505050506040513d601f19601f820116820180604052508101906111359190611d1d565b6111515760405162461bcd60e51b815260040161045790611d3a565b6001546001600160a01b0316331461119d5760405162461bcd60e51b815260206004820152600f60248201526e6f776e2e6e6f6e617574682e44414f60881b6044820152606401610457565b600082116111e25760405162461bcd60e51b81526020600482015260126024820152711bdddb8b9a5b9d985b1a590b985b5bdd5b9d60721b6044820152606401610457565b6040516001600160a01b0384169083156108fc029084906000818181858888f19350505050158015610e33573d6000803e3d6000fd5b6000806000611228868686611af2565b9150915081801561123a575080516020145b1561125657808060200190518101906112539190611cb2565b92505b50509392505050565b600080600061126f868686611af2565b91509150818015611281575080516020145b1561125657808060200190518101906112539190611d66565b6000806112f160008054906101000a90046001600160a01b03166001600160a01b031663447bf0e26040518163ffffffff1660e01b8152600401602060405180830381865afa1580156104ac573d6000803e3d6000fd5b6001600160a01b039093166000908152601060205260409020549092141592915050565b6060836001600160a01b03163b60000361133e5750604080516020810190915260008152611430565b6040805160048152602481019182905260009161135c908690611dbc565b60405180910390206001600160e01b0319166020820180516001600160e01b03838183161783525050505083604051602001611399929190611dd8565b6040516020818303038152906040529050600080866001600160a01b0316836040516113c59190611dbc565b600060405180830381855afa9150503d8060008114611400576040519150601f19603f3d011682016040523d82523d6000602084013e611405565b606091505b5091509150811561141a579250611430915050565b6040518060200160405280600081525093505050505b9392505050565b60606001600160a01b0384166114845760405162461bcd60e51b81526020600482015260126024820152711bdddb8b9a5b9d985b1a590b9d185c99d95d60721b6044820152606401610457565b600080856001600160a01b031684866040516114a09190611dbc565b60006040518083038185875af1925050503d80600081146114dd576040519150601f19603f3d011682016040523d82523d6000602084013e6114e2565b606091505b50915091508161152d5760405162461bcd60e51b81526020600482015260166024820152751bdddb8b9d185c99d95d0b98d85b1b0b99985a5b195960521b6044820152606401610457565b95945050505050565b6000546001600160a01b031661154857565b60008054906101000a90046001600160a01b03166001600160a01b0316634162169f6040518163ffffffff1660e01b8152600401602060405180830381865afa158015611599573d6000803e3d6000fd5b505050506040513d601f19601f820116820180604052508101906115bd9190611cb2565b600180546001600160a01b0319166001600160a01b0392831617905560005460408051635abedee360e11b81529051919092169163b57dbdc69160048083019260209291908290030181865afa15801561161b573d6000803e3d6000fd5b505050506040513d601f19601f8201168201806040525081019061163f9190611cb2565b600280546001600160a01b0319166001600160a01b039283161790556000546040805163cfbffe5360e01b81529051919092169163cfbffe539160048083019260209291908290030181865afa15801561169d573d6000803e3d6000fd5b505050506040513d601f19601f820116820180604052508101906116c19190611cb2565b600380546001600160a01b0319166001600160a01b039283161790556000546040805163ab6e844f60e01b81529051919092169163ab6e844f9160048083019260209291908290030181865afa15801561171f573d6000803e3d6000fd5b505050506040513d601f19601f820116820180604052508101906117439190611cb2565b600480546001600160a01b0319166001600160a01b0392831617815560005460408051639a7c407760e01b815290519190931692639a7c407792818101926020929091908290030181865afa1580156117a0573d6000803e3d6000fd5b505050506040513d601f19601f820116820180604052508101906117c49190611cb2565b600580546001600160a01b0319166001600160a01b0392831617905560005460408051635506ee0b60e11b81529051919092169163aa0ddc169160048083019260209291908290030181865afa158015611822573d6000803e3d6000fd5b505050506040513d601f19601f820116820180604052508101906118469190611cb2565b600780546001600160a01b0319166001600160a01b03928316179055600054604080516335a577e360e11b815290519190921691636b4aefc69160048083019260209291908290030181865afa1580156118a4573d6000803e3d6000fd5b505050506040513d601f19601f820116820180604052508101906118c89190611cb2565b600880546001600160a01b0319166001600160a01b03928316179055600054604080516324768d9160e01b8152905191909216916324768d919160048083019260209291908290030181865afa158015611926573d6000803e3d6000fd5b505050506040513d601f19601f8201168201806040525081019061194a9190611cb2565b600b80546001600160a01b0319166001600160a01b0392831617905560005460408051636402742760e01b81529051919092169163640274279160048083019260209291908290030181865afa1580156119a8573d6000803e3d6000fd5b505050506040513d601f19601f820116820180604052508101906119cc9190611cb2565b600980546001600160a01b0319166001600160a01b03928316179055600054604080516330125cf560e01b8152905191909216916330125cf59160048083019260209291908290030181865afa158015611a2a573d6000803e3d6000fd5b505050506040513d601f19601f82011682018060405250810190611a4e9190611cb2565b600a80546001600160a01b0319166001600160a01b03928316179055600054604080516369e8d84b60e11b81529051919092169163d3d1b0969160048083019260209291908290030181865afa158015611aac573d6000803e3d6000fd5b505050506040513d601f19601f82011682018060405250810190611ad09190611cb2565b600680546001600160a01b0319166001600160a01b0392909216919091179055565b60006060846001600160a01b03163b600003611b205750506040805160208101909152600080825290611bec565b60408051600481526024810191829052600091611b3e908790611dbc565b60405180910390206001600160e01b0319166020820180516001600160e01b03838183161783525050505084604051602001611b7b929190611dd8565b6040516020818303038152906040529050856001600160a01b031681604051611ba49190611dbc565b600060405180830381855afa9150503d8060008114611bdf576040519150601f19603f3d011682016040523d82523d6000602084013e611be4565b606091505b509093509150505b935093915050565b600060208284031215611c0657600080fd5b5035919050565b6001600160a01b0381168114610a9857600080fd5b600060208284031215611c3457600080fd5b813561143081611c0d565b8015158114610a9857600080fd5b60008060408385031215611c6057600080fd5b8235611c6b81611c0d565b91506020830135611c7b81611c3f565b809150509250929050565b60008060408385031215611c9957600080fd5b8235611ca481611c0d565b946020939093013593505050565b600060208284031215611cc457600080fd5b815161143081611c0d565b60008060408385031215611ce257600080fd5b825191506020830151611c7b81611c3f565b634e487b7160e01b600052601160045260246000fd5b8082018082111561075c5761075c611cf4565b600060208284031215611d2f57600080fd5b815161143081611c3f565b6020808252601290820152716f776e2e696e76616c69642e69735361666560701b604082015260600190565b600060208284031215611d7857600080fd5b5051919050565b600060018201611d9157611d91611cf4565b5060010190565b60005b83811015611db3578181015183820152602001611d9b565b50506000910152565b60008251611dce818460208701611d98565b9190910192915050565b60008351611dea818460208801611d98565b835190830190611dfe818360208801611d98565b0194935050505056fea26469706673582212200d067642394804b422a98f3530f70e3a4a421938f2425d6cb6aad3c3fabd4aee64736f6c63430008140033","linkReferences":{}},"methodIdentifiers":{"Burn(uint256)":"b90306ad","_setOwner(address,bool)":"abb8c965","_setReq(address)":"41ffe7c4","age()":"262a9dff","canClaim(address)":"bf3506c1","doClaim(uint256)":"02686879","getBalance()":"12065fe0","isOwnerOrSafeOwner(address)":"379a423c","maxclaim()":"b8430d08","own_reinit(address)":"60af454d","owner()":"8da5cb5b","req()":"0d43aaf2","setMaxClaim(uint256)":"c285c0b0","totalclaimed(uint256)":"c05ebf48","userClaimedOn(address)":"92b41b1b","withdraw(address,uint256)":"f3fef3a3"},"id":0}