{"abi":[{"type":"constructor","inputs":[{"name":"_hex","type":"address","internalType":"address"}],"stateMutability":"nonpayable"},{"type":"fallback","stateMutability":"payable"},{"type":"receive","stateMutability":"payable"},{"type":"function","name":"Burn","inputs":[{"name":"amount","type":"uint256","internalType":"uint256"}],"outputs":[],"stateMutability":"nonpayable"},{"type":"function","name":"Resetrank","inputs":[{"name":"limit","type":"uint256","internalType":"uint256"}],"outputs":[],"stateMutability":"nonpayable"},{"type":"function","name":"_delegatorCount","inputs":[],"outputs":[{"name":"","type":"uint256","internalType":"uint256"}],"stateMutability":"view"},{"type":"function","name":"_getImplementation","inputs":[{"name":"clone","type":"address","internalType":"address"}],"outputs":[{"name":"impl","type":"address","internalType":"address"}],"stateMutability":"view"},{"type":"function","name":"_isDelegatorNode","inputs":[{"name":"sender","type":"address","internalType":"address"}],"outputs":[{"name":"","type":"bool","internalType":"bool"}],"stateMutability":"view"},{"type":"function","name":"_isSafe","inputs":[],"outputs":[{"name":"","type":"bool","internalType":"bool"}],"stateMutability":"view"},{"type":"function","name":"_isSecureBase","inputs":[{"name":"sender","type":"address","internalType":"address"}],"outputs":[{"name":"","type":"bool","internalType":"bool"}],"stateMutability":"view"},{"type":"function","name":"_isSigner","inputs":[{"name":"sender","type":"address","internalType":"address"}],"outputs":[{"name":"","type":"bool","internalType":"bool"}],"stateMutability":"view"},{"type":"function","name":"getBalance","inputs":[],"outputs":[{"name":"","type":"uint256","internalType":"uint256"}],"stateMutability":"view"},{"type":"function","name":"getHexbase","inputs":[],"outputs":[{"name":"","type":"address","internalType":"address"}],"stateMutability":"view"},{"type":"function","name":"owner","inputs":[],"outputs":[{"name":"","type":"address","internalType":"address"}],"stateMutability":"view"},{"type":"function","name":"syncBaseAddr","inputs":[],"outputs":[],"stateMutability":"nonpayable"},{"type":"function","name":"systemAge","inputs":[],"outputs":[{"name":"","type":"uint256","internalType":"uint256"}],"stateMutability":"view"},{"type":"event","name":"EthBurned","inputs":[{"name":"sender","type":"address","indexed":true,"internalType":"address"},{"name":"amount","type":"uint256","indexed":false,"internalType":"uint256"}],"anonymous":false},{"type":"event","name":"EthTransferred","inputs":[{"name":"to","type":"address","indexed":true,"internalType":"address"},{"name":"amount","type":"uint256","indexed":false,"internalType":"uint256"}],"anonymous":false},{"type":"event","name":"HexBaseUpdated","inputs":[{"name":"previousHexBase","type":"address","indexed":true,"internalType":"address"},{"name":"newHexBase","type":"address","indexed":true,"internalType":"address"}],"anonymous":false},{"type":"event","name":"OwnerUpdated","inputs":[{"name":"previousOwner","type":"address","indexed":true,"internalType":"address"},{"name":"newOwner","type":"address","indexed":true,"internalType":"address"}],"anonymous":false},{"type":"error","name":"CallFailed","inputs":[]},{"type":"error","name":"InvalidAddress","inputs":[]},{"type":"error","name":"InvalidState","inputs":[]},{"type":"error","name":"NotAuthorized","inputs":[]},{"type":"error","name":"NotSafe","inputs":[]},{"type":"error","name":"ReentrancyGuardReentrantCall","inputs":[]},{"type":"error","name":"TargetCallFailed","inputs":[{"name":"selector","type":"bytes4","internalType":"bytes4"}]}],"bytecode":{"object":"0x60803461009757601f61181738819003918201601f19168301916001600160401b0383118484101761009c5780849260209460405283398101031261009757516001600160a01b038116908190036100975780156100855760018060a01b0319338160015416176001556000541617600055600160115560405161176490816100b38239f35b60405163e6c4247b60e01b8152600490fd5b600080fd5b634e487b7160e01b600052604160045260246000fdfe60806040526004361015610018575b361561001657005b005b60003560e01c806312065fe0146100e85780631f185d16146100e3578063339459a6146100de5780633b9b7955146100d95780638da5cb5b146100d457806391e2f84b146100cf578063a1f7f539146100ca578063af484526146100c5578063b90306ad146100c0578063c54e44b0146100bb578063e01ad5fd146100b6578063e0a9bc2b146100b15763fdc10bc90361000e57610d61565b610d3c565b610c71565b610beb565b610a8f565b610a10565b61099b565b610944565b61090b565b6108e4565b610205565b61011a565b3461010457600036600319011261010457602047604051908152f35b600080fd5b6001600160a01b0381160361010457565b34610104576020806003193601126101045761019960043561013b81610109565b6001600160a01b0380600254169060405192168483015283825261015e82610ddb565b6040519061016b82610ddb565b601182527f69735369676e6572286164647265737329000000000000000000000000000000858301526114ca565b9190806101fb575b156101d15781816101bb926101cd945183010191016113fd565b60405190151581529081906020820190565b0390f35b60046040517f3204506f000000000000000000000000000000000000000000000000000000008152fd5b50808251146101a1565b346101045760003660031901126101045761023761022b6000546001600160a01b031690565b6001600160a01b031690565b604051907f97f3815a000000000000000000000000000000000000000000000000000000008252602082600481845afa918215610714576000926108c3575b50604051917fcfbffe53000000000000000000000000000000000000000000000000000000008352602083600481855afa928315610714576000936108a2575b506040519063ab6e844f60e01b8252602082600481865afa91821561071457600092610881575b50604051917f14d8d024000000000000000000000000000000000000000000000000000000008352602083600481875afa92831561071457600093610860575b50604051927fd1f956b1000000000000000000000000000000000000000000000000000000008452602084600481885afa9384156107145760009461083f575b50604051937fe61dfd58000000000000000000000000000000000000000000000000000000008552602085600481895afa9485156107145760009561081e575b506040517fe09d394d0000000000000000000000000000000000000000000000000000000081526020816004818a5afa908115610714576000916107ff575b506040517f52b06d640000000000000000000000000000000000000000000000000000000081526020816004818b5afa908115610714576000916107e0575b506040517f013cf08b00000000000000000000000000000000000000000000000000000000815260006004820152916020836024818c5afa928315610714576000936107bf575b50604051977f5e09dbe70000000000000000000000000000000000000000000000000000000089526020896004818d5afa9485156107145760049960009661079e575b5060208b6040519b8c80927faa0ddc160000000000000000000000000000000000000000000000000000000082525afa9687156107145760049a60009861077d575b5060208c6040519c8d80927f640274270000000000000000000000000000000000000000000000000000000082525afa9889156107145760049b60009a61075c575b5060208d6040519d8e80927f30125cf50000000000000000000000000000000000000000000000000000000082525afa9a8b15610714578d60049d60009d61073a575b506020906040519e8f80927f24768d910000000000000000000000000000000000000000000000000000000082525afa9c8d156107145760009d610719575b50604051809e81907f9dc969a80000000000000000000000000000000000000000000000000000000082525a92600491602094fa9d8e156107145760009e6106e3575b506105f7610e5e565b6001600160a01b0390911681529d8e906001600160a01b031660208201526040019061062b91906001600160a01b03169052565b6001600160a01b031660608d01526001600160a01b031660808c01526001600160a01b031660a08b01526001600160a01b031660c08a01526001600160a01b031660e08901526001600160a01b03166101008801526001600160a01b03166101208701526001600160a01b03166101408601526001600160a01b03166101608501526001600160a01b03166101808401526001600160a01b03166101a08301526001600160a01b03166101c0820152610016906110fa565b610706919e5060203d60201161070d575b6106fe8183610e18565b810190610e3a565b9c386105ee565b503d6106f4565b610e52565b610733919d5060203d60201161070d576106fe8183610e18565b9b386105ab565b6020919d5061075590823d841161070d576106fe8183610e18565b9c9061056c565b610776919a5060203d60201161070d576106fe8183610e18565b9838610529565b61079791985060203d60201161070d576106fe8183610e18565b96386104e7565b6107b891965060203d60201161070d576106fe8183610e18565b94386104a5565b6107d991935060203d60201161070d576106fe8183610e18565b9138610462565b6107f9915060203d60201161070d576106fe8183610e18565b3861041b565b610818915060203d60201161070d576106fe8183610e18565b386103dc565b61083891955060203d60201161070d576106fe8183610e18565b933861039d565b61085991945060203d60201161070d576106fe8183610e18565b923861035d565b61087a91935060203d60201161070d576106fe8183610e18565b913861031d565b61089b91925060203d60201161070d576106fe8183610e18565b90386102dd565b6108bc91935060203d60201161070d576106fe8183610e18565b91386102b6565b6108dd91925060203d60201161070d576106fe8183610e18565b9038610276565b346101045760003660031901126101045760206001600160a01b0360005416604051908152f35b346101045760003660031901126101045760206001600160a01b0360015416604051908152f35b60209060031901126101045760043590565b346101045761095236610932565b6002601154146109715761096a906002601155610f57565b6001601155005b60046040517f3ee5aeb5000000000000000000000000000000000000000000000000000000008152fd5b34610104576000366003190112610104576020610a086001600160a01b03600654166040516109c981610ddb565b601381527f67657464656c656761746f72436f756e7428290000000000000000000000000084820152604051916109ff83610dfc565b600083526115c9565b604051908152f35b346101045760208060031936011261010457610199600435610a3181610109565b6001600160a01b03806002541690604051921684830152838252610a5482610ddb565b60405190610a6182610ddb565b601582527f6973536563757265426173652861646472657373290000000000000000000000858301526114ca565b3461010457610a9d36610932565b610aa5611415565b15610bc1576001600160a01b03600554163303610b975760009060046020610ad761022b85546001600160a01b031690565b604051928380927f46f991ac0000000000000000000000000000000000000000000000000000000082525afa80156107145783808481949382948391610b79575b505af1610b2361149a565b50156101d1577fcdcc745fe377b103b45fa0cec23ae3ef93d6fc6a84a01f0d18c40b354dd1d5d8610b73610b6261022b600b546001600160a01b031690565b604051938452929081906020820190565b0390a280f35b610b91915060203d811161070d576106fe8183610e18565b38610b18565b60046040517fea8e4eb5000000000000000000000000000000000000000000000000000000008152fd5b60046040517f9dc4246e000000000000000000000000000000000000000000000000000000008152fd5b3461010457602036600319011261010457600435610c0881610109565b803b6000610c1582610e7f565b92610c236040519485610e18565b82845260208401903c602d815110610c4757602a602091015160601c604051908152f35b60046040517fbaf3f0f7000000000000000000000000000000000000000000000000000000008152fd5b3461010457602080600319360112610104576101cd9060043590610c9482610109565b610cf86001600160a01b0392836006541693604051911683820152828152610cbb81610ddb565b604051610cc781610ddb565b601881527f697364656c656761746f724e6f64652861646472657373290000000000000000848201526000946114ca565b919080610d32575b610d19575b505060405190151581529081906020820190565b610d2b925080825183010191016113fd565b3880610d05565b5080825114610d00565b34610104576000366003190112610104576020610d57611415565b6040519015158152f35b34610104576000366003190112610104576020610a086001600160a01b0360035416604051610d8f81610ddb565b600681527f694167652829000000000000000000000000000000000000000000000000000084820152604051916109ff83610dfc565b634e487b7160e01b600052604160045260246000fd5b6040810190811067ffffffffffffffff821117610df757604052565b610dc5565b6020810190811067ffffffffffffffff821117610df757604052565b90601f8019910116810190811067ffffffffffffffff821117610df757604052565b908160209103126101045751610e4f81610109565b90565b6040513d6000823e3d90fd5b604051906101e0820182811067ffffffffffffffff821117610df757604052565b67ffffffffffffffff8111610df757601f01601f191660200190565b60405190610ea882610dfc565b60008252565b60405190610ebb82610ddb565b601682527f6765744e6f646573436f756e74286164647265737329000000000000000000006020830152565b634e487b7160e01b600052601160045260246000fd5b6000198114610f0c5760010190565b610ee7565b60405190610f1e82610ddb565b601882527f676574557365724964546f53746f722875696e743235362900000000000000006020830152565b8015610f0c576000190190565b600090610f6e61022b83546001600160a01b031690565b604090815180918163ab6e844f60e01b91828252602094859160049586915afa801561071457610fb69188916110dd575b50610fa8610eae565b610fb0610e9b565b916115c9565b9560129680885414610fca5795805b610fd4575b5050505050505050565b8754908782146110d757610ff0610feb8693610efd565b601255565b8561100561022b85546001600160a01b031690565b8851938480928882525afa80156107145761104061105c916110719486916110ba575b5061104e8c548b519384918c83019190602083019252565b03601f198101845283610e18565b611056610f11565b90611578565b6001600160a01b038116611077575b50610f4a565b80610fc5565b87517f37e9f5c200000000000000000000000000000000000000000000000000000000888201528681526110b3916110ae82610ddb565b611651565b503861106b565b6110d19150893d8b1161070d576106fe8183610e18565b38611028565b50610fca565b6110f49150853d871161070d576106fe8183610e18565b38610f9f565b6113df6101c06113fb9261113461111882516001600160a01b031690565b6001600160a01b03166001600160a01b03196002541617600255565b61116761114b60208301516001600160a01b031690565b6001600160a01b03166001600160a01b03196003541617600355565b61119a61117e60408301516001600160a01b031690565b6001600160a01b03166001600160a01b03196004541617600455565b6111cd6111b160608301516001600160a01b031690565b6001600160a01b03166001600160a01b03196005541617600555565b6112006111e460808301516001600160a01b031690565b6001600160a01b03166001600160a01b03196006541617600655565b61123361121760a08301516001600160a01b031690565b6001600160a01b03166001600160a01b03196007541617600755565b61126661124a60c08301516001600160a01b031690565b6001600160a01b03166001600160a01b03196008541617600855565b61129961127d60e08301516001600160a01b031690565b6001600160a01b03166001600160a01b03196009541617600955565b6112cd6112b16101008301516001600160a01b031690565b6001600160a01b03166001600160a01b0319600a541617600a55565b6113016112e56101208301516001600160a01b031690565b6001600160a01b03166001600160a01b0319600b541617600b55565b6113356113196101408301516001600160a01b031690565b6001600160a01b03166001600160a01b0319600c541617600c55565b61136961134d6101608301516001600160a01b031690565b6001600160a01b03166001600160a01b0319600d541617600d55565b61139d6113816101808301516001600160a01b031690565b6001600160a01b03166001600160a01b0319600e541617600e55565b6113d16113b56101a08301516001600160a01b031690565b6001600160a01b03166001600160a01b0319600f541617600f55565b01516001600160a01b031690565b6001600160a01b03166001600160a01b03196010541617601055565b565b90816020910312610104575180151581036101045790565b6114706001600160a01b036002541660405161143081610ddb565b600881527f697353616665282900000000000000000000000000000000000000000000000060208201526040519161146783610dfc565b600083526114ca565b908061148f575b156101d15780602080610e4f935183010191016113fd565b506020815114611477565b3d156114c5573d906114ab82610e7f565b916114b96040519384610e18565b82523d6000602084013e565b606090565b9190823b1561155f577fffffffff00000000000000000000000000000000000000000000000000000000815160208093012016916040519180830193845281519160005b83811061154b57505050918161153b60248260009795968897018783820152036004810184520182610e18565b51915afa61154761149a565b9091565b81810183015185820160240152820161150e565b50505060009060405161157181610dfc565b6000815290565b9291611586916000946114ca565b90806115be575b6115945750565b9091506020818051810103126101045760206001600160a01b039101516115ba81610109565b1690565b50602081511461158d565b92916115d7916000946114ca565b90806115fc575b6115e55750565b909150602081805181010312610104576020015190565b5060208151146115de565b90602082519201517fffffffff0000000000000000000000000000000000000000000000000000000090818116936004811061164257505050565b60040360031b82901b16169150565b6001600160a01b0381161561170457600080918351908260208601915af19061167861149a565b9115611682575090565b8051600091906004116116fe576116999150611607565b8151156116a95750805190602001fd5b6040517f21c09d340000000000000000000000000000000000000000000000000000000081527fffffffff00000000000000000000000000000000000000000000000000000000919091166004820152602490fd5b50611699565b60046040517fe6c4247b000000000000000000000000000000000000000000000000000000008152fdfea2646970667358221220c032efab993b82905b67278bfc41e37bb6f90e4c07b31fa5ad03312c002288ac64736f6c63430008140033","linkReferences":{}},"methodIdentifiers":{"Burn(uint256)":"b90306ad","Resetrank(uint256)":"91e2f84b","_delegatorCount()":"a1f7f539","_getImplementation(address)":"c54e44b0","_isDelegatorNode(address)":"e01ad5fd","_isSafe()":"e0a9bc2b","_isSecureBase(address)":"af484526","_isSigner(address)":"1f185d16","getBalance()":"12065fe0","getHexbase()":"3b9b7955","owner()":"8da5cb5b","syncBaseAddr()":"339459a6","systemAge()":"fdc10bc9"},"id":93}