{"abi":[{"type":"constructor","inputs":[{"name":"_hex","type":"address","internalType":"address"}],"stateMutability":"nonpayable"},{"type":"fallback","stateMutability":"payable"},{"type":"receive","stateMutability":"payable"},{"type":"function","name":"Burn","inputs":[{"name":"amount","type":"uint256","internalType":"uint256"}],"outputs":[],"stateMutability":"nonpayable"},{"type":"function","name":"LSB","inputs":[{"name":"","type":"uint256","internalType":"uint256"}],"outputs":[{"name":"","type":"int256","internalType":"int256"}],"stateMutability":"view"},{"type":"function","name":"Txn","inputs":[{"name":"paramAdd","type":"address","internalType":"address"},{"name":"_id_maxint","type":"uint256","internalType":"uint256"},{"name":"_qty","type":"uint256","internalType":"uint256"},{"name":"_level","type":"uint256","internalType":"uint256"}],"outputs":[],"stateMutability":"payable"},{"type":"function","name":"_delegatorCount","inputs":[],"outputs":[{"name":"","type":"uint256","internalType":"uint256"}],"stateMutability":"view"},{"type":"function","name":"_getImplementation","inputs":[{"name":"clone","type":"address","internalType":"address"}],"outputs":[{"name":"impl","type":"address","internalType":"address"}],"stateMutability":"view"},{"type":"function","name":"_isDelegatorNode","inputs":[{"name":"sender","type":"address","internalType":"address"}],"outputs":[{"name":"","type":"bool","internalType":"bool"}],"stateMutability":"view"},{"type":"function","name":"_isSafe","inputs":[],"outputs":[{"name":"","type":"bool","internalType":"bool"}],"stateMutability":"view"},{"type":"function","name":"_isSecureBase","inputs":[{"name":"sender","type":"address","internalType":"address"}],"outputs":[{"name":"","type":"bool","internalType":"bool"}],"stateMutability":"view"},{"type":"function","name":"_isSigner","inputs":[{"name":"sender","type":"address","internalType":"address"}],"outputs":[{"name":"","type":"bool","internalType":"bool"}],"stateMutability":"view"},{"type":"function","name":"bonus","inputs":[],"outputs":[{"name":"","type":"uint256","internalType":"uint256"}],"stateMutability":"view"},{"type":"function","name":"cage","inputs":[],"outputs":[{"name":"","type":"uint256","internalType":"uint256"}],"stateMutability":"view"},{"type":"function","name":"compute","inputs":[{"name":"maxinterwal","type":"uint256","internalType":"uint256"}],"outputs":[{"name":"p3","type":"uint256","internalType":"uint256"}],"stateMutability":"view"},{"type":"function","name":"dage","inputs":[],"outputs":[{"name":"","type":"uint256","internalType":"uint256"}],"stateMutability":"view"},{"type":"function","name":"flush","inputs":[],"outputs":[{"name":"","type":"uint256","internalType":"uint256"}],"stateMutability":"view"},{"type":"function","name":"forceTransfer","inputs":[{"name":"_acct","type":"address","internalType":"address"}],"outputs":[],"stateMutability":"nonpayable"},{"type":"function","name":"getBalance","inputs":[],"outputs":[{"name":"","type":"uint256","internalType":"uint256"}],"stateMutability":"view"},{"type":"function","name":"getmint","inputs":[{"name":"_orc","type":"address","internalType":"address"},{"name":"_id","type":"uint256","internalType":"uint256"},{"name":"_qty","type":"uint256","internalType":"uint256"},{"name":"_amt","type":"uint256","internalType":"uint256"},{"name":"mintage","type":"uint256","internalType":"uint256"}],"outputs":[{"name":"","type":"address","internalType":"address"}],"stateMutability":"nonpayable"},{"type":"function","name":"ibkprm","inputs":[],"outputs":[{"name":"","type":"address","internalType":"address"}],"stateMutability":"view"},{"type":"function","name":"id","inputs":[],"outputs":[{"name":"","type":"uint256","internalType":"uint256"}],"stateMutability":"view"},{"type":"function","name":"init_import","inputs":[{"name":"limit","type":"uint256","internalType":"uint256"}],"outputs":[],"stateMutability":"payable"},{"type":"function","name":"isLock","inputs":[],"outputs":[{"name":"","type":"bool","internalType":"bool"}],"stateMutability":"view"},{"type":"function","name":"isNodeStopped","inputs":[{"name":"sender","type":"address","internalType":"address"}],"outputs":[{"name":"","type":"bool","internalType":"bool"}],"stateMutability":"view"},{"type":"function","name":"isSuspend","inputs":[],"outputs":[{"name":"","type":"bool","internalType":"bool"}],"stateMutability":"view"},{"type":"function","name":"mintCount","inputs":[],"outputs":[{"name":"","type":"uint256","internalType":"uint256"}],"stateMutability":"view"},{"type":"function","name":"mintDailyCount","inputs":[],"outputs":[{"name":"","type":"uint256","internalType":"uint256"}],"stateMutability":"view"},{"type":"function","name":"mints","inputs":[{"name":"","type":"uint256","internalType":"uint256"}],"outputs":[{"name":"","type":"address","internalType":"address"}],"stateMutability":"view"},{"type":"function","name":"owner","inputs":[],"outputs":[{"name":"","type":"address","internalType":"address"}],"stateMutability":"view"},{"type":"function","name":"self","inputs":[],"outputs":[{"name":"","type":"uint256","internalType":"uint256"}],"stateMutability":"view"},{"type":"function","name":"setBonusPrime","inputs":[{"name":"b","type":"uint256","internalType":"uint256"}],"outputs":[],"stateMutability":"nonpayable"},{"type":"function","name":"setLock","inputs":[{"name":"flag","type":"bool","internalType":"bool"}],"outputs":[],"stateMutability":"nonpayable"},{"type":"function","name":"setSuspend","inputs":[{"name":"flag","type":"bool","internalType":"bool"}],"outputs":[],"stateMutability":"nonpayable"},{"type":"function","name":"systemAge","inputs":[],"outputs":[{"name":"","type":"uint256","internalType":"uint256"}],"stateMutability":"view"},{"type":"function","name":"unpaidPrime","inputs":[],"outputs":[{"name":"","type":"uint256","internalType":"uint256"}],"stateMutability":"view"},{"type":"event","name":"LogTxns","inputs":[{"name":"from","type":"address","indexed":false,"internalType":"address"},{"name":"orc1155","type":"address","indexed":false,"internalType":"address"},{"name":"_amt","type":"uint256","indexed":false,"internalType":"uint256"},{"name":"_value","type":"uint256","indexed":false,"internalType":"uint256"},{"name":"_time","type":"uint256","indexed":false,"internalType":"uint256"},{"name":"_type","type":"uint256","indexed":false,"internalType":"uint256"}],"anonymous":false}],"bytecode":{"object":"0x60806040526000600a556000600b553480156200001b57600080fd5b50604051620047ea380380620047ea8339810160408190526200003e916200006f565b60018054600080546001600160a01b039094166001600160a01b0319948516179055339216919091179055620000a1565b6000602082840312156200008257600080fd5b81516001600160a01b03811681146200009a57600080fd5b9392505050565b61473980620000b16000396000f3fe6080604052600436106101da5760003560e01c806377daf7eb11610101578063b1a87bec1161009a578063dee1a74b1161006c578063dee1a74b1461053e578063e01ad5fd1461055e578063e0a9bc2b1461057e578063edd279d814610593578063fdc10bc9146105a657005b8063b1a87bec146104c7578063b8b6c856146104dd578063b90306ad146104fe578063c54e44b01461051e57005b8063a3e884b0116100d3578063a3e884b014610451578063a98bf4f914610464578063af48452614610491578063af640d0f146104b157005b806377daf7eb146103e85780638da5cb5b146104085780639659867e14610426578063a1f7f5391461043c57005b8063619d5194116101735780637104ddb2116101455780637104ddb214610386578063725b6fff1461039c57806374f31bfc146103b257806375b4d78c146103d257005b8063619d5194146103045780636350b2c214610324578063692450091461035a5780636b9f96ea1461037057005b80631f185d16116101ac5780631f185d161461028e57806327bfab88146102ae57806351bfd3ae146102c45780635ed86d5c146102e457005b80630399c93c146101e357806309d8da2e1461020357806312065fe0146102395780631bff68401461025657005b366101e157005b005b3480156101ef57600080fd5b506101e16101fe366004614285565b6105bb565b34801561020f57600080fd5b5060025461022490600160a01b900460ff1681565b60405190151581526020015b60405180910390f35b34801561024557600080fd5b50475b604051908152602001610230565b34801561026257600080fd5b50600254610276906001600160a01b031681565b6040516001600160a01b039091168152602001610230565b34801561029a57600080fd5b506102246102a9366004614285565b61083c565b3480156102ba57600080fd5b50610248600b5481565b3480156102d057600080fd5b506102246102df366004614285565b610910565b3480156102f057600080fd5b506102486102ff3660046142a2565b610a98565b34801561031057600080fd5b506101e161031f3660046142c9565b610b27565b34801561033057600080fd5b5061027661033f3660046142a2565b600c602052600090815260409020546001600160a01b031681565b34801561036657600080fd5b5061024860065481565b34801561037c57600080fd5b5061024860095481565b34801561039257600080fd5b5061024860075481565b3480156103a857600080fd5b5061024860055481565b3480156103be57600080fd5b506101e16103cd3660046142a2565b610c77565b3480156103de57600080fd5b5061024860085481565b3480156103f457600080fd5b506101e16104033660046142c9565b610d65565b34801561041457600080fd5b506001546001600160a01b0316610276565b34801561043257600080fd5b50610248600a5481565b34801561044857600080fd5b50610248610f7a565b6101e161045f3660046142e6565b611126565b34801561047057600080fd5b5061024861047f3660046142a2565b600d6020526000908152604090205481565b34801561049d57600080fd5b506102246104ac366004614285565b611c92565b3480156104bd57600080fd5b5061024860045481565b3480156104d357600080fd5b5061024860035481565b3480156104e957600080fd5b5060025461022490600160a81b900460ff1681565b34801561050a57600080fd5b506101e16105193660046142a2565b611d50565b34801561052a57600080fd5b50610276610539366004614285565b611e14565b34801561054a57600080fd5b50610276610559366004614321565b611e94565b34801561056a57600080fd5b50610224610579366004614285565b611f26565b34801561058a57600080fd5b50610224612206565b6101e16105a13660046142a2565b6122b1565b3480156105b257600080fd5b506102486122bd565b60008054906101000a90046001600160a01b03166001600160a01b031663af2331906040518163ffffffff1660e01b8152600401602060405180830381865afa15801561060c573d6000803e3d6000fd5b505050506040513d601f19601f820116820180604052508101906106309190614365565b6001600160a01b0316803b806020016040519081016040528181526000908060200190933c80519060200120336001600160a01b0316803b806020016040519081016040528181526000908060200190933c80519060200120146106d15760405162461bcd60e51b81526020600482015260136024820152726f776e2e756e617574682e696e7374616e636560681b60448201526064015b60405180910390fd5b6000805460405163013cf08b60e01b8152600481018390526107ab916001600160a01b03169063013cf08b90602401602060405180830381865afa15801561071d573d6000803e3d6000fd5b505050506040513d601f19601f820116820180604052508101906107419190614365565b6040518060400160405280601e81526020017f7265736f6c76655472616e7366657254617267657428616464726573732900008152508460405160200161079791906001600160a01b0391909116815260200190565b604051602081830303815290604052612360565b6001549091506001600160a01b0380831691161461080b5760405162461bcd60e51b815260206004820152601c60248201527f6d652e666f7263655472616e7366657228307830292e6661696c65640000000060448201526064016106c8565b60405133904780156108fc02916000818181858888f19350505050158015610837573d6000803e3d6000fd5b505050565b600080546040805163af0deb9560e01b8152905161090a926001600160a01b03169163af0deb959160048083019260209291908290030181865afa158015610888573d6000803e3d6000fd5b505050506040513d601f19601f820116820180604052508101906108ac9190614365565b6040518060400160405280601181526020017069735369676e657228616464726573732960781b815250846040516020016108f691906001600160a01b0391909116815260200190565b6040516020818303038152906040526123a7565b92915050565b6000806109d760008054906101000a90046001600160a01b03166001600160a01b031663a66bcbe26040518163ffffffff1660e01b8152600401602060405180830381865afa158015610967573d6000803e3d6000fd5b505050506040513d601f19601f8201168201806040525081019061098b9190614365565b6040518060400160405280601381526020017255736572546f496e737428616464726573732960681b8152508560405160200161079791906001600160a01b0391909116815260200190565b90506000806001600160a01b0316826001600160a01b0316141590506000610a32836040518060400160405280600b81526020016a697353757370656e64282960a81b815250604051806020016040528060008152506123a7565b90506000610a70846040518060400160405280600881526020016769734c6f636b282960c01b815250604051806020016040528060008152506123a7565b9050821580610a8e5750818015610a845750805b8015610a8e575082155b9695505050505050565b600080610aa36122bd565b9050600083600554610ab59190614398565b8211610ac15781610acf565b83600554610acf9190614398565b6005549092505b82811015610b1f57610ae881846143ab565b6000828152600d6020526040902054610b0191906143cb565b610b0b90836143fb565b915080610b1781614423565b915050610ad6565b509392505050565b610b2f612206565b610b4b5760405162461bcd60e51b81526004016106c89061443c565b610b5433611c92565b80610bd2575060005460408051634162169f60e01b8152905133926001600160a01b031691634162169f9160048083019260209291908290030181865afa158015610ba3573d6000803e3d6000fd5b505050506040513d601f19601f82011682018060405250810190610bc79190614365565b6001600160a01b0316145b610bee5760405162461bcd60e51b81526004016106c890614468565b600060045411610c105760405162461bcd60e51b81526004016106c890614491565b600254600160a81b900460ff1615610c595760405162461bcd60e51b815260206004820152600c60248201526b1b594b9cdd5cdc195b99195960a21b60448201526064016106c8565b60028054911515600160a01b0260ff60a01b19909216919091179055565b610c7f612206565b610c9b5760405162461bcd60e51b81526004016106c89061443c565b610ca433611c92565b80610d22575060005460408051634162169f60e01b8152905133926001600160a01b031691634162169f9160048083019260209291908290030181865afa158015610cf3573d6000803e3d6000fd5b505050506040513d601f19601f82011682018060405250810190610d179190614365565b6001600160a01b0316145b610d3e5760405162461bcd60e51b81526004016106c890614468565b600060045411610d605760405162461bcd60e51b81526004016106c890614491565b600855565b610d6d612206565b610d895760405162461bcd60e51b81526004016106c89061443c565b610d9233611c92565b80610e10575060005460408051634162169f60e01b8152905133926001600160a01b031691634162169f9160048083019260209291908290030181865afa158015610de1573d6000803e3d6000fd5b505050506040513d601f19601f82011682018060405250810190610e059190614365565b6001600160a01b0316145b610e2c5760405162461bcd60e51b81526004016106c890614468565b600060045411610e4e5760405162461bcd60e51b81526004016106c890614491565b610e566122bd565b600e55600254600160a81b900460ff168015610e70575080155b15610f4a576000610e846103e960006123e2565b9050804711610e935747610e95565b805b9050610f1560008054906101000a90046001600160a01b03166001600160a01b0316636b4aefc66040518163ffffffff1660e01b8152600401602060405180830381865afa158015610eeb573d6000803e3d6000fd5b505050506040513d601f19601f82011682018060405250810190610f0f9190614365565b82612696565b6000805160206146e48339815191523360008084600e546008604051610f40969594939291906144ba565b60405180910390a1505b6002805461ffff60a01b1916600160a81b92151592830260ff60a01b191617600160a01b92909202919091179055565b60008061102f60008054906101000a90046001600160a01b03166001600160a01b031663e1f4cd246040518163ffffffff1660e01b8152600401602060405180830381865afa158015610fd1573d6000803e3d6000fd5b505050506040513d601f19601f82011682018060405250810190610ff59190614365565b6040518060400160405280600c81526020016b72616e6b666f7244414f282960a01b815250604051806020016040528060008152506126cc565b9050600061111260008054906101000a90046001600160a01b03166001600160a01b031663ab6e844f6040518163ffffffff1660e01b8152600401602060405180830381865afa158015611087573d6000803e3d6000fd5b505050506040513d601f19601f820116820180604052508101906110ab9190614365565b6040518060400160405280601d81526020017f67657472616e6b636f756e742875696e743235362c75696e74323536290000008152506110e96122bd565b60408051602081019290925281018690526060015b6040516020818303038152906040526126cc565b905061111f816003614398565b9250505090565b6000600454116111485760405162461bcd60e51b81526004016106c890614491565b600254600160a01b900460ff161561118e5760405162461bcd60e51b81526020600482015260096024820152681b594b9b1bd8dad95960ba1b60448201526064016106c8565b600e546111996122bd565b11156111b0576000600b556111ac6122bd565b600e555b8060010361178357600080546040805163387d334960e21b81529051611288926001600160a01b03169163e1f4cd249160048083019260209291908290030181865afa158015611204573d6000803e3d6000fd5b505050506040513d601f19601f820116820180604052508101906112289190614365565b6040805180820190915260168152756d696e744c696d69745065724461795072696d65282960501b602082015260005b6040519080825280601f01601f191660200182016040528015611282576020820181803683370190505b506126cc565b9050600061133360008054906101000a90046001600160a01b03166001600160a01b031663e1f4cd246040518163ffffffff1660e01b8152600401602060405180830381865afa1580156112e0573d6000803e3d6000fd5b505050506040513d601f19601f820116820180604052508101906113049190614365565b6040805180820190915260118152706d696e4d696e745174795072696d65282960781b60208201526000611258565b905060006113de60008054906101000a90046001600160a01b03166001600160a01b031663e1f4cd246040518163ffffffff1660e01b8152600401602060405180830381865afa15801561138b573d6000803e3d6000fd5b505050506040513d601f19601f820116820180604052508101906113af9190614365565b6040805180820190915260118152706d61784d696e745174795072696d65282960781b60208201526000611258565b905082600b5411156114295760405162461bcd60e51b81526020600482015260146024820152731b594b989c995858da0b99185a5b1e5b1a5b5a5d60621b60448201526064016106c8565b8185101580156114395750808511155b6114765760405162461bcd60e51b815260206004820152600e60248201526d6d652e6c6f776f6d61782e71747960901b60448201526064016106c8565b61147f87611c92565b6114c15760405162461bcd60e51b81526020600482015260136024820152726d652e756e7365637572652e4f52433131353560681b60448201526064016106c8565b60006114cc86612707565b90506000811180156114eb575080600854346114e89190614398565b10155b61152b5760405162461bcd60e51b81526020600482015260116024820152706d652e66616b652e6d696e7476616c756560781b60448201526064016106c8565b806008543461153a9190614398565b6115449190614506565b600855600b805490600061155783614423565b9091555050600a541561156c57600554611570565b600e545b60058190555061158588888884600e546127c0565b600c6000600a6000815461159890614423565b919050819055815260200190815260200160002060006101000a8154816001600160a01b0302191690836001600160a01b0316021790555060006115de82600e54612892565b905061165e60008054906101000a90046001600160a01b03166001600160a01b0316636b4aefc66040518163ffffffff1660e01b8152600401602060405180830381865afa158015611634573d6000803e3d6000fd5b505050506040513d601f19601f820116820180604052508101906116589190614365565b34612696565b60005460408051631417197760e31b8152905161172c926001600160a01b03169163a0b8cbb89160048083019260209291908290030181865afa1580156116a9573d6000803e3d6000fd5b505050506040513d601f19601f820116820180604052508101906116cd9190614365565b6001546040516001600160a01b03909116602482015260448101859052606481018a90526084810184905260a40160408051601f198184030181529190526020810180516001600160e01b03166331f4ec7f60e11b1790526000612a45565b50600a546000908152600c60205260409081902054600e5491516000805160206146e4833981519152926117759233926001600160a01b03909116918c918891906001906144ba565b60405180910390a150505050505b80600703611c8c576005546117998460016123e2565b50600080546040805163387d334960e21b81529051611845926001600160a01b03169163e1f4cd249160048083019260209291908290030181865afa1580156117e6573d6000803e3d6000fd5b505050506040513d601f19601f8201168201806040525081019061180a9190614365565b60408051808201909152601a81527f617070726f766564436c61696d5065724461795072696d65282900000000000060208201526000611258565b90508060035410611c5257600080546040805163387d334960e21b815290516118fb926001600160a01b03169163e1f4cd249160048083019260209291908290030181865afa15801561189c573d6000803e3d6000fd5b505050506040513d601f19601f820116820180604052508101906118c09190614365565b60408051808201909152601b81527f6d6178476c6f62616c436c61696d5065724461795072696d652829000000000060208201526000611258565b905060006119b760008054906101000a90046001600160a01b03166001600160a01b031663a0b8cbb86040518163ffffffff1660e01b8152600401602060405180830381865afa158015611953573d6000803e3d6000fd5b505050506040513d601f19601f820116820180604052508101906119779190614365565b6040518060400160405280601281526020017167657477697468647261776e2875696e742960701b815250600e546040516020016110fe91815260200190565b9050808211611a085760405162461bcd60e51b815260206004820152601960248201527f6d652e676c6f62616c506f6f6c6c696d6974526561636865640000000000000060448201526064016106c8565b82471015611a585760405162461bcd60e51b815260206004820152601760248201527f6d652e62616c616e63652e6e6f74737566666963656e7400000000000000000060448201526064016106c8565b6000546040805163387d334960e21b81529051611afb926001600160a01b03169163e1f4cd249160048083019260209291908290030181865afa158015611aa3573d6000803e3d6000fd5b505050506040513d601f19601f82011682018060405250810190611ac79190614365565b6040805180820190915260168152757769746864726177496e74657276616c44617973282960501b60208201526000611258565b611b059085614398565b935083600e541015611b4a5760405162461bcd60e51b815260206004820152600e60248201526d6d652e6e6f74656c696769626c6560901b60448201526064016106c8565b8215611b565782611b5a565b6003545b925082600354611b6a9190614506565b6003819055508260076000828254611b829190614398565b909155505060005460408051631417197760e31b81529051611c34926001600160a01b03169163a0b8cbb89160048083019260209291908290030181865afa158015611bd2573d6000803e3d6000fd5b505050506040513d601f19601f82011682018060405250810190611bf69190614365565b6040516024810186905260440160408051601f198184030181529190526020810180516001600160e01b0316630594960d60e21b1790526000612a45565b50600154611c4b906001600160a01b031684612696565b5050611c56565b5060005b6000805160206146e48339815191523387600084600e546007604051611c81969594939291906144ba565b60405180910390a150505b50505050565b600080546040805163af0deb9560e01b8152905161090a926001600160a01b03169163af0deb959160048083019260209291908290030181865afa158015611cde573d6000803e3d6000fd5b505050506040513d601f19601f82011682018060405250810190611d029190614365565b6040518060400160405280601581526020017469735365637572654261736528616464726573732960581b815250846040516020016108f691906001600160a01b0391909116815260200190565b60005460408051634162169f60e01b8152905133926001600160a01b031691634162169f9160048083019260209291908290030181865afa158015611d99573d6000803e3d6000fd5b505050506040513d601f19601f82011682018060405250810190611dbd9190614365565b6001600160a01b031614611de35760405162461bcd60e51b81526004016106c890614468565b60405160009082156108fc0290839083818181858288f19350505050158015611e10573d6000803e3d6000fd5b5050565b600080826001600160a01b0316803b806020016040519081016040528181526000908060200190933c9050602d81511015611e875760405162461bcd60e51b81526020600482015260136024820152724e6f742061206d696e696d616c2070726f787960681b60448201526064016106c8565b602a015160601c92915050565b6001546040516001600160a01b03909116602482015260448101859052606481018490526084810183905260a481018290526000908190611f0590889060c40160408051601f198184030181529190526020810180516001600160e01b031663c6c9873d60e01b1790526000612a45565b905080806020019051810190611f1b9190614365565b979650505050505050565b600080611f7d60008054906101000a90046001600160a01b03166001600160a01b031663e1f4cd246040518163ffffffff1660e01b8152600401602060405180830381865afa158015610fd1573d6000803e3d6000fd5b9050600061204560008054906101000a90046001600160a01b03166001600160a01b031663ab6e844f6040518163ffffffff1660e01b8152600401602060405180830381865afa158015611fd5573d6000803e3d6000fd5b505050506040513d601f19601f82011682018060405250810190611ff99190614365565b6040518060400160405280601381526020017255736572546f496e737428616464726573732960681b8152508660405160200161079791906001600160a01b0391909116815260200190565b9050600061211760008054906101000a90046001600160a01b03166001600160a01b031663ab6e844f6040518163ffffffff1660e01b8152600401602060405180830381865afa15801561209d573d6000803e3d6000fd5b505050506040513d601f19601f820116820180604052508101906120c19190614365565b6040518060400160405280601981526020017f67657445666665637469766552616e6b28616464726573732900000000000000815250846040516020016110fe91906001600160a01b0391909116815260200190565b905060006121db60008054906101000a90046001600160a01b03166001600160a01b031663ab6e844f6040518163ffffffff1660e01b8152600401602060405180830381865afa15801561216f573d6000803e3d6000fd5b505050506040513d601f19601f820116820180604052508101906121939190614365565b6040518060400160405280600f81526020016e697353746f7028616464726573732960881b815250856040516020016108f691906001600160a01b0391909116815260200190565b90506001600160a01b038316158015906121f55750838210155b8015610a8e57501595945050505050565b600080546040805163af0deb9560e01b815290516122ac926001600160a01b03169163af0deb959160048083019260209291908290030181865afa158015612252573d6000803e3d6000fd5b505050506040513d601f19601f820116820180604052508101906122769190614365565b60405180604001604052806008815260200167697353616665282960c01b815250604051806020016040528060008152506123a7565b905090565b6122ba81612b55565b50565b600080546040805163223df87160e11b815290516122ac926001600160a01b03169163447bf0e29160048083019260209291908290030181865afa158015612309573d6000803e3d6000fd5b505050506040513d601f19601f8201168201806040525081019061232d9190614365565b60405180604001604052806005815260200164616765282960d81b815250604051806020016040528060008152506126cc565b60008060006123708686866131d6565b91509150818015612382575080516020145b1561239e578080602001905181019061239b9190614365565b92505b50509392505050565b60008060006123b78686866131d6565b915091508180156123c9575080516020145b1561239e578080602001905181019061239b9190614519565b6000806124b160008054906101000a90046001600160a01b03166001600160a01b031663e1f4cd246040518163ffffffff1660e01b8152600401602060405180830381865afa158015612439573d6000803e3d6000fd5b505050506040513d601f19601f8201168201806040525081019061245d9190614365565b60408051808201909152600a81526973687574646f776e282960b01b602082015260005b6040519080825280601f01601f1916602001820160405280156124ab576020820181803683370190505b506123a7565b90508061265157600080856005546124c99190614398565b600e54116124d957600e546124e7565b856005546124e79190614398565b6005549091505b8181101561259f5761250081836143ab565b6000828152600d602052604090205461251991906143cb565b61252390846143fb565b9250600d6000612534600184614506565b815260200190815260200160002054600d6000838152602001908152602001600020600082825461256591906143fb565b90915550600d9050600061257a600184614506565b815260200190815260200160002060009055808061259790614423565b9150506124ee565b506005819055600d60006125b4600184614506565b815260200190815260200160002054600d600083815260200190815260200160002060008282546125e591906143fb565b90915550600d905060006125fa600184614506565b81526020019081526020016000206000905581935084156126325783600360008282546126279190614398565b9091555061264a9050565b83600960008282546126449190614398565b90915550505b505061268f565b479150821561267757816003600082825461266c9190614398565b9091555061268f9050565b81600960008282546126899190614398565b90915550505b5092915050565b6040516001600160a01b0383169082156108fc029083906000818181858888f19350505050158015610837573d6000803e3d6000fd5b60008060006126dc8686866131d6565b915091508180156126ee575080516020145b1561239e578080602001905181019061239b9190614536565b600080546040805163387d334960e21b8152905161090a926001600160a01b03169163e1f4cd249160048083019260209291908290030181865afa158015612753573d6000803e3d6000fd5b505050506040513d601f19601f820116820180604052508101906127779190614365565b6040518060400160405280601e81526020017f636f6d707574654d696e7456616c75655072696d652875696e74323536290000815250846040516020016110fe91815260200190565b6001546040516001600160a01b03909116602482015260448101859052606481018490526084810183905260a48101829052600090819061283190889060c40160408051601f198184030181529190526020810180516001600160e01b031663c85700fb60e01b1790526000612a45565b90506000818060200190518101906128499190614365565b90506001600160a01b038116611f1b5760405162461bcd60e51b815260206004820152600e60248201526d1b594b9b5a5b9d0b99985a5b195960921b60448201526064016106c8565b60008061293f60008054906101000a90046001600160a01b03166001600160a01b031663e1f4cd246040518163ffffffff1660e01b8152600401602060405180830381865afa1580156128e9573d6000803e3d6000fd5b505050506040513d601f19601f8201168201806040525081019061290d9190614365565b6040805180820182526006815265706f6f6c282960d01b602080830191909152825160008152908101909252906132d0565b9050600080600080600080600087806020019051810190612960919061454f565b965096509650965096509650965084606461297b91906145a3565b612985878d6145a3565b61298f91906145ba565b9a5061299c8360646145a3565b6129a6858d6145a3565b6129b091906145ba565b9a508a600d60006129c18a8e614398565b815260200190815260200160002060008282546129de91906143fb565b909155506129f090508b6000196143cb565b600d6000836129ff8b8f614398565b612a099190614398565b81526020019081526020016000206000828254612a2691906143fb565b90915550612a3690508b826145a3565b9b9a5050505050505050505050565b60606001600160a01b038416612a925760405162461bcd60e51b81526020600482015260126024820152711bdddb8b9a5b9d985b1a590b9d185c99d95d60721b60448201526064016106c8565b600080856001600160a01b03168486604051612aae9190614600565b60006040518083038185875af1925050503d8060008114612aeb576040519150601f19603f3d011682016040523d82523d6000602084013e612af0565b606091505b509150915081612b4a57805115612b0957805181602001fd5b60405162461bcd60e51b81526020600482015260166024820152751bdddb8b9d185c99d95d0b98d85b1b0b99985a5b195960521b60448201526064016106c8565b9150505b9392505050565b60045415612b945760405162461bcd60e51b815260206004820152600c60248201526b6d652e69642e65786973747360a01b60448201526064016106c8565b612b9c6122bd565b600e556000805460405163013cf08b60e01b815260048101839052612c65916001600160a01b03169063013cf08b90602401602060405180830381865afa158015612beb573d6000803e3d6000fd5b505050506040513d601f19601f82011682018060405250810190612c0f9190614365565b604080518082018252601e81527f7265736f6c76655472616e73666572546172676574286164647265737329000060208083019190915260015483516001600160a01b0390911691810191909152909101610797565b90506001600160a01b03811615613072576000805460408051635335e5f160e11b81529051612d32926001600160a01b03169163a66bcbe29160048083019260209291908290030181865afa158015612cc2573d6000803e3d6000fd5b505050506040513d601f19601f82011682018060405250810190612ce69190614365565b6040518060400160405280601381526020017255736572546f496e737428616464726573732960681b8152508460405160200161079791906001600160a01b0391909116815260200190565b90506000612d8a60008054906101000a90046001600160a01b03166001600160a01b031663447bf0e26040518163ffffffff1660e01b8152600401602060405180830381865afa158015610967573d6000803e3d6000fd5b90506001600160a01b038216158015612daa57506001600160a01b038116155b15612e74576000805460405163013cf08b60e01b81526004810192909252612e6d916001600160a01b039091169063013cf08b906024015b602060405180830381865afa158015612dff573d6000803e3d6000fd5b505050506040513d601f19601f82011682018060405250810190612e239190614365565b6001546040516001600160a01b03909116602482015260440160408051601f198184030181529190526020810180516001600160e01b0316634ef260a960e01b1790526000612a45565b5050505050565b6002546001600160a01b0316613007576001600160a01b03821615612f30576040805180820190915260048152636964282960e01b6020820152600090612ebd90849083611258565b905060008111612f0f5760405162461bcd60e51b815260206004820152601760248201527f6d652e7061727469616c7570646174652e6661696c656400000000000000000060448201526064016106c8565b50600280546001600160a01b0319166001600160a01b038416179055612f4c565b600280546001600160a01b0319166001600160a01b0383161790555b60005460408051635335e5f160e11b81529051613005926001600160a01b03169163a66bcbe29160048083019260209291908290030181865afa158015612f97573d6000803e3d6000fd5b505050506040513d601f19601f82011682018060405250810190612fbb9190614365565b6001546040516001600160a01b03909116602482015260440160408051601f198184030181529190526020810180516001600160e01b0316635c1d48b960e01b1790526000612a45565b505b6002546001600160a01b0382811691161461302a57613025846133da565b613033565b61303384613975565b60045415611c8c576000805460405163013cf08b60e01b81526004810192909252612e6d916001600160a01b039091169063013cf08b90602401612de2565b60005460408051635335e5f160e11b8152905161312f926001600160a01b03169163a66bcbe29160048083019260209291908290030181865afa1580156130bd573d6000803e3d6000fd5b505050506040513d601f19601f820116820180604052508101906130e19190614365565b604080518082018252601581527469735573657245786973747328616464726573732960581b60208083019190915260015483516001600160a01b03909116918101919091529091016108f6565b156131705760405162461bcd60e51b81526020600482015260116024820152706d652e616c72656164792e65786973747360781b60448201526064016106c8565b6002546001600160a01b0316156131bc5760405162461bcd60e51b815260206004820152601060248201526f6d652e69626b70726d2e65786973747360801b60448201526064016106c8565b600280546001600160a01b03191630179055611e10614054565b60006060846001600160a01b03163b60000361320457505060408051602081019091526000808252906132c8565b604080516004815260248101918290526001600160a01b0387169161322a908790614600565b60405180910390206001600160e01b0319166020820180516001600160e01b0383818316178352505050508460405160200161326792919061461c565b60408051601f198184030181529082905261328191614600565b600060405180830381855afa9150503d80600081146132bc576040519150601f19603f3d011682016040523d82523d6000602084013e6132c1565b606091505b5090925090505b935093915050565b6060836001600160a01b03163b6000036132f95750604080516020810190915260008152612b4e565b6040805160048152602481019182905260009182916001600160a01b03881691613324908890614600565b60405180910390206001600160e01b0319166020820180516001600160e01b0383818316178352505050508560405160200161336192919061461c565b60408051601f198184030181529082905261337b91614600565b600060405180830381855afa9150503d80600081146133b6576040519150601f19603f3d011682016040523d82523d6000602084013e6133bb565b606091505b509150915081612b4a576040518060200160405280600081525061239b565b60025460408051808201909152600b81526a6d696e74436f756e74282960a81b6020820152600091613418916001600160a01b039091169083611258565b9050600a54826134289190614398565b81116134345780613441565b600a546134419083614398565b91508015613674575b81600a54101561367457600a805490600061346483614423565b9091555050600254604080518082018252600e81526d6d696e74732875696e743235362960901b602080830191909152600a548351918201526000936134b7936001600160a01b03909116929101610797565b905060006134fd826040518060400160405280600b81526020016a6d696e746564416765282960a81b815250600067ffffffffffffffff811115611258576112586144f0565b90506000613543836040518060400160405280600b81526020016a6d696e746564717479282960a81b815250600067ffffffffffffffff811115611258576112586144f0565b90506000613589846040518060400160405280600b81526020016a6d696e746564666565282960a81b815250600067ffffffffffffffff811115611258576112586144f0565b600a546000908152600c6020526040902080546001600160a01b0319166001600160a01b03871617905590506135bf8184612892565b50600a546001036135d05760058390555b6001546040516001600160a01b0390911660248201526136209085906044015b60408051601f198184030181529190526020810180516001600160e01b031662e6724f60e21b1790526000612a45565b50600a546000908152600c60205260408082205490516000805160206146e4833981519152926136639233926001600160a01b0390911691879187918a916144ba565b60405180910390a15050505061344a565b80600a541480156136855750600454155b15611e10576002546001546040516001600160a01b0391821660248201526136b49291909116906044016135f0565b5060025460408051808201909152600681526564616765282960d01b60208201526136ea916001600160a01b0316906000611258565b6006819055600554101561375d576006546005819055600254604080518082018252600c81526b4c53422875696e743235362960a01b60208083019190915282519081019490945261374a936001600160a01b03909316929091016110fe565b6005546000908152600d60205260409020555b60025460408051808201909152600681526573656c66282960d01b6020820152613792916001600160a01b0316906000611258565b60079081556002546040805180820190915291825266626f6e7573282960c81b60208301526137ce916001600160a01b03909116906000611258565b60085560025460408051808201909152600681526563616765282960d01b6020820152613806916001600160a01b0316906000611258565b60065560025460408051808201909152600b81526a697353757370656e64282960a81b6020820152613843916001600160a01b0316906000612481565b60028054911515600160a81b0260ff60a81b198316811790915560408051808201909152600881526769734c6f636b282960c01b6020820152613899926001600160a01b03928316921691909117906000612481565b60028054911515600160a01b0260ff60a01b1990921691909117905560005460408051635335e5f160e11b8152905161396e926001600160a01b03169163a66bcbe29160048083019260209291908290030181865afa158015613900573d6000803e3d6000fd5b505050506040513d601f19601f820116820180604052508101906139249190614365565b604080518082018252601181527055736572546f496428616464726573732960781b60208083019190915260015483516001600160a01b03909116918101919091529091016110fe565b6004555050565b60025460408051808201909152600b81526a6d696e74436f756e74282960a81b60208201526000916139b3916001600160a01b039091169083611258565b9050600a54826139c39190614398565b81116139cf57806139dc565b600a546139dc9083614398565b91508015613ca6575b81600a541015613ca657600a80549060006139ff83614423565b9091555050600254604080518082018252600e81526d6d696e74732875696e743235362960901b602080830191909152600a54835191820152600093613a52936001600160a01b03909116929101610797565b90506000613a98826040518060400160405280600b81526020016a6d696e746564416765282960a81b815250600067ffffffffffffffff811115611258576112586144f0565b90506000613ade836040518060400160405280600b81526020016a6d696e746564717479282960a81b815250600067ffffffffffffffff811115611258576112586144f0565b90506000613b26846040518060400160405280600c81526020016b6964732875696e743235362960a01b81525060006040516020016110fe919060ff91909116815260200190565b9050613b3184611e14565b60005460405163ed15cbf760e01b81526001600160a01b03808416600483015292965091169063ed15cbf790602401602060405180830381865afa158015613b7d573d6000803e3d6000fd5b505050506040513d601f19601f82011682018060405250810190613ba19190614365565b9350613bac84611c92565b613bee5760405162461bcd60e51b81526020600482015260136024820152726d652e756e7365637572652e4f52433131353560681b60448201526064016106c8565b6000613bf983612707565b9050613c0885838584886127c0565b600a546000908152600c6020526040902080546001600160a01b0319166001600160a01b0392909216919091179055613c418185612892565b50600a54600103613c525760058490555b600a546000908152600c60205260408082205490516000805160206146e483398151915292613c949233926001600160a01b0390911691889187918b916144ba565b60405180910390a150505050506139e5565b80600a54148015613cb75750600454155b15611e105760025460408051808201909152600a815269647261776e616765282960b01b6020820152613cf5916001600160a01b0316906000611258565b60068190556005541015613d68576006546005819055600254604080518082018252600c81526b4c53422875696e743235362960a01b602080830191909152825190810194909452613d55936001600160a01b03909316929091016110fe565b6005546000908152600d60205260409020555b600254604080518082019091526007815266647261776e282960c81b6020820152613d9e916001600160a01b0316906000611258565b60079081556002546040805180820190915291825266626f6e7573282960c81b6020830152613dda916001600160a01b03909116906000611258565b60085560025460408051808201909152600681526563616765282960d01b6020820152613e12916001600160a01b0316906000611258565b600655600080546040805163223df87160e11b81529051613ede926001600160a01b03169163447bf0e29160048083019260209291908290030181865afa158015613e61573d6000803e3d6000fd5b505050506040513d601f19601f82011682018060405250810190613e859190614365565b604080518082018252601081526f6765744e6f646528616464726573732960801b60208083019190915260025483516001600160a01b03909116918101919091529091015b6040516020818303038152906040526132d0565b905080806020019051810190613ef4919061464b565b60028054600160a81b921515830260ff60a81b19821681179390930460ff161515600160a01b0260ff60a01b1990931661ffff60a01b1990911617919091179055505060005460408051635335e5f160e11b81529051613f8694506001600160a01b03909216925063a66bcbe29160048083019260209291908290030181865afa158015613900573d6000803e3d6000fd5b600455600a54156108375760005460408051631417197760e31b81529051611c8c926001600160a01b03169163a0b8cbb89160048083019260209291908290030181865afa158015613fdc573d6000803e3d6000fd5b505050506040513d601f19601f820116820180604052508101906140009190614365565b6001546002546040516001600160a01b0392831660248201529116604482015260640160408051601f198184030181529190526020810180516001600160e01b031663102c96fd60e01b1790526000612a45565b60008054604080516301c0d48b60e01b8152905161410e926001600160a01b0316916301c0d48b9160048083019260209291908290030181865afa1580156140a0573d6000803e3d6000fd5b505050506040513d601f19601f820116820180604052508101906140c49190614365565b60408051808201825260118152706e6f64657353747228616464726573732960781b60208083019190915260015483516001600160a01b0390911691810191909152909101613eca565b90506000806000808451111561413a578380602001905181019061413291906146ac565b919450925090505b8261417f5760405162461bcd60e51b81526020600482015260156024820152746d652e70726d646174612e6e6f742e65786973747360581b60448201526064016106c8565b6141898183614398565b6008556000805460408051631417197760e31b81529051614245926001600160a01b03169163a0b8cbb89160048083019260209291908290030181865afa1580156141d8573d6000803e3d6000fd5b505050506040513d601f19601f820116820180604052508101906141fc9190614365565b6001546040516001600160a01b03909116602482015260440160408051601f198184030181529190526020810180516001600160e01b031663338f842d60e01b17905234612a45565b90508080602001905181019061425b9190614536565b6004555050600e546006819055600555505050565b6001600160a01b03811681146122ba57600080fd5b60006020828403121561429757600080fd5b8135612b4e81614270565b6000602082840312156142b457600080fd5b5035919050565b80151581146122ba57600080fd5b6000602082840312156142db57600080fd5b8135612b4e816142bb565b600080600080608085870312156142fc57600080fd5b843561430781614270565b966020860135965060408601359560600135945092505050565b600080600080600060a0868803121561433957600080fd5b853561434481614270565b97602087013597506040870135966060810135965060800135945092505050565b60006020828403121561437757600080fd5b8151612b4e81614270565b634e487b7160e01b600052601160045260246000fd5b8082018082111561090a5761090a614382565b818103600083128015838313168383128216171561268f5761268f614382565b80820260008212600160ff1b841416156143e7576143e7614382565b818105831482151761090a5761090a614382565b808201828112600083128015821682158216171561441b5761441b614382565b505092915050565b60006001820161443557614435614382565b5060010190565b6020808252601290820152716f776e2e696e76616c69642e69735361666560701b604082015260600190565b6020808252600f908201526e6f776e2e6e6f6e617574682e44414f60881b604082015260600190565b6020808252600f908201526e1b594b9a5b9d985b1a590b9a5b9a5d608a1b604082015260600190565b6001600160a01b03968716815294909516602085015260408401929092526060830152608082015260a081019190915260c00190565b634e487b7160e01b600052604160045260246000fd5b8181038181111561090a5761090a614382565b60006020828403121561452b57600080fd5b8151612b4e816142bb565b60006020828403121561454857600080fd5b5051919050565b600080600080600080600060e0888a03121561456a57600080fd5b5050855160208701516040880151606089015160808a015160a08b015160c0909b0151949c939b50919990985090965094509092509050565b808202811582820484141761090a5761090a614382565b6000826145d757634e487b7160e01b600052601260045260246000fd5b500490565b60005b838110156145f75781810151838201526020016145df565b50506000910152565b600082516146128184602087016145dc565b9190910192915050565b6000835161462e8184602088016145dc565b8351908301906146428183602088016145dc565b01949350505050565b600080600080600060a0868803121561466357600080fd5b85519450602086015161467581614270565b60408701516060880151919550935061468d816142bb565b608087015190925061469e816142bb565b809150509295509295909350565b6000806000606084860312156146c157600080fd5b83516146cc816142bb565b60208501516040909501519096949550939250505056fe1517c86fcf2bfb8e3468afcc539b0004955da8027797c497ea51d1f1094ab898a26469706673582212203dc20383e48f878a3d407f9d1c9126f53584c628d6d17a8667edc5efb2d4e19564736f6c63430008140033","linkReferences":{}},"methodIdentifiers":{"Burn(uint256)":"b90306ad","LSB(uint256)":"a98bf4f9","Txn(address,uint256,uint256,uint256)":"a3e884b0","_delegatorCount()":"a1f7f539","_getImplementation(address)":"c54e44b0","_isDelegatorNode(address)":"e01ad5fd","_isSafe()":"e0a9bc2b","_isSecureBase(address)":"af484526","_isSigner(address)":"1f185d16","bonus()":"75b4d78c","cage()":"69245009","compute(uint256)":"5ed86d5c","dage()":"725b6fff","flush()":"6b9f96ea","forceTransfer(address)":"0399c93c","getBalance()":"12065fe0","getmint(address,uint256,uint256,uint256,uint256)":"dee1a74b","ibkprm()":"1bff6840","id()":"af640d0f","init_import(uint256)":"edd279d8","isLock()":"09d8da2e","isNodeStopped(address)":"51bfd3ae","isSuspend()":"b8b6c856","mintCount()":"9659867e","mintDailyCount()":"27bfab88","mints(uint256)":"6350b2c2","owner()":"8da5cb5b","self()":"7104ddb2","setBonusPrime(uint256)":"74f31bfc","setLock(bool)":"619d5194","setSuspend(bool)":"77daf7eb","systemAge()":"fdc10bc9","unpaidPrime()":"b1a87bec"},"id":0}