{"abi":[{"type":"constructor","inputs":[{"name":"s1","type":"address","internalType":"address"},{"name":"s2","type":"address","internalType":"address"},{"name":"s3","type":"address","internalType":"address"}],"stateMutability":"nonpayable"},{"type":"function","name":"gethexbAdd","inputs":[],"outputs":[{"name":"","type":"address","internalType":"address"}],"stateMutability":"view"}],"bytecode":{"object":"0x60806040523462000038576200001f6200001862000131565b916200031c565b620000296200003e565b61018062000cb1823961018090f35b62000044565b60405190565b5f80fd5b601f801991011690565b634e487b7160e01b5f52604160045260245ffd5b90620000729062000048565b810190811060018060401b038211176200008b57604052565b62000052565b90620000a8620000a06200003e565b928362000066565b565b5f80fd5b60018060a01b031690565b620000c490620000ae565b90565b620000d281620000b9565b03620000da57565b5f80fd5b90505190620000ed82620000c7565b565b90916060828403126200012b57620001286200010e845f8501620000de565b936200011e8160208601620000de565b93604001620000de565b90565b620000aa565b620001546201bbe380380380620001488162000091565b928339810190620000ef565b909192565b5f0190565b620001686200003e565b3d5f823e3d90fd5b5f1b90565b906200018860018060a01b039162000170565b9181191691161790565b90565b620001ae620001a8620001b492620000ae565b62000192565b620000ae565b90565b620001c29062000195565b90565b620001d090620001b7565b90565b90565b90620001f0620001ea620001f892620001c5565b620001d3565b825462000175565b9055565b5f1c90565b60018060a01b031690565b6200021b6200022191620001fc565b62000201565b90565b6200023090546200020c565b90565b6200023e9062000195565b90565b6200024c9062000233565b90565b6200025a9062000233565b90565b5f80fd5b60e01b90565b5f9103126200027257565b620000aa565b6200028390620000b9565b9052565b91906200029c905f6020850194019062000278565b565b604090620002cc620002d49496959396620002c160608401985f85019062000278565b602083019062000278565b019062000278565b565b620002e19062000233565b90565b620002ef9062000233565b90565b620002fd9062000233565b90565b6200030b9062000233565b90565b620003199062000233565b90565b9190620003286200003e565b611e49810181811060018060401b0382111762000caa57620003548291611e496200cc93843962000159565b03905ff0801562000ca4576200036b905f620001d6565b620003756200003e565b614209810181811060018060401b0382111762000c9e57620003a1829161420962008a8a843962000159565b03905ff0801562000c985792620003c2620003bc5f62000224565b62000241565b63d05a5651620003d2866200024f565b823b1562000c92576200040992620003fd5f8094620003f06200003e565b9687958694859362000261565b83526004830162000287565b03925af1801562000c8c5762000c59575b5090620004266200003e565b92611c8a84019184831060018060401b0384111762000c535784936200045593611c8a6200eadc87396200029e565b03905ff0801562000c4d57620004756200046f5f62000224565b62000241565b9062000486631162a5b191620002d6565b823b1562000c4757620004bd92620004b15f8094620004a46200003e565b9687958694859362000261565b83526004830162000287565b03925af1801562000c415762000c0e575b50620004d96200003e565b614614810181811060018060401b0382111762000c085762000505829161461462004476843962000159565b03905ff0801562000c0257620005256200051f5f62000224565b62000241565b9063bcb6c0b56200053682620002e4565b833b1562000bfc576200056d93620005615f8094620005546200003e565b9788958694859362000261565b83526004830162000287565b03925af191821562000bf6576200058b9262000bc3575b50620002e4565b6360af454d620005a56200059f5f62000224565b62000241565b823b1562000bbd57620005dc92620005d05f8094620005c36200003e565b9687958694859362000261565b83526004830162000287565b03925af1801562000bb75762000b84575b50620005f86200003e565b612492810181811060018060401b0382111762000b7e5762000624829161249262010766843962000159565b03905ff0801562000b7857620006446200063e5f62000224565b62000241565b906396e85ced6200065582620002f2565b833b1562000b72576200068c93620006805f8094620006736200003e565b9788958694859362000261565b83526004830162000287565b03925af191821562000b6c57620006aa9262000b39575b50620002f2565b6360af454d620006c4620006be5f62000224565b62000241565b823b1562000b3357620006fb92620006ef5f8094620006e26200003e565b9687958694859362000261565b83526004830162000287565b03925af1801562000b2d5762000afa575b50620007176200003e565b618feb810181811060018060401b0382111762000af457620007438291618feb62012bf8843962000159565b03905ff0801562000aee57620007636200075d5f62000224565b62000241565b9063753e7d33620007748262000300565b833b1562000ae857620007ab936200079f5f8094620007926200003e565b9788958694859362000261565b83526004830162000287565b03925af191821562000ae257620007c99262000aaf575b5062000300565b906360af454d620007e4620007de5f62000224565b62000241565b833b1562000aa9576200081b936200080f5f8094620008026200003e565b9788958694859362000261565b83526004830162000287565b03925af191821562000aa357620008399262000a70575b506200024f565b6360af454d620008536200084d5f62000224565b62000241565b823b1562000a6a576200088a926200087e5f8094620008716200003e565b9687958694859362000261565b83526004830162000287565b03925af1801562000a645762000a31575b50620008a66200003e565b613645810181811060018060401b0382111762000a2b57620008d2829161364562000e31843962000159565b03905ff0801562000a2557620008e8816200030e565b906360af454d62000903620008fd5f62000224565b62000241565b833b1562000a1f576200093a936200092e5f8094620009216200003e565b9788958694859362000261565b83526004830162000287565b03925af191821562000a19576200095892620009e6575b506200030e565b63f4e52ae890803b15620009e05762000980915f91620009776200003e565b93849262000261565b8252818381620009936004820162000159565b03925af18015620009da57620009a7575b50565b620009cb905f3d8111620009d2575b620009c2818362000066565b81019062000267565b5f620009a4565b503d620009b6565b6200015e565b6200025d565b62000a0a905f3d811162000a11575b62000a01818362000066565b81019062000267565b5f62000951565b503d620009f5565b6200015e565b6200025d565b6200015e565b62000052565b62000a55905f3d811162000a5c575b62000a4c818362000066565b81019062000267565b5f6200089b565b503d62000a40565b6200015e565b6200025d565b62000a94905f3d811162000a9b575b62000a8b818362000066565b81019062000267565b5f62000832565b503d62000a7f565b6200015e565b6200025d565b62000ad3905f3d811162000ada575b62000aca818362000066565b81019062000267565b5f620007c2565b503d62000abe565b6200015e565b6200025d565b6200015e565b62000052565b62000b1e905f3d811162000b25575b62000b15818362000066565b81019062000267565b5f6200070c565b503d62000b09565b6200015e565b6200025d565b62000b5d905f3d811162000b64575b62000b54818362000066565b81019062000267565b5f620006a3565b503d62000b48565b6200015e565b6200025d565b6200015e565b62000052565b62000ba8905f3d811162000baf575b62000b9f818362000066565b81019062000267565b5f620005ed565b503d62000b93565b6200015e565b6200025d565b62000be7905f3d811162000bee575b62000bde818362000066565b81019062000267565b5f62000584565b503d62000bd2565b6200015e565b6200025d565b6200015e565b62000052565b62000c32905f3d811162000c39575b62000c29818362000066565b81019062000267565b5f620004ce565b503d62000c1d565b6200015e565b6200025d565b6200015e565b62000052565b62000c7d905f3d811162000c84575b62000c74818362000066565b81019062000267565b5f6200041a565b503d62000c68565b6200015e565b6200025d565b6200015e565b62000052565b6200015e565b6200005256fe60806040526004361015610013575b6100bd565b61001d5f3561002c565b6321dc78510361000e57610088565b60e01c90565b60405190565b5f80fd5b5f80fd5b5f91031261004a57565b61003c565b60018060a01b031690565b6100639061004f565b90565b61006f9061005a565b9052565b9190610086905f60208501940190610066565b565b346100b857610098366004610040565b6100b46100a361012d565b6100ab610032565b91829182610073565b0390f35b610038565b5f80fd5b5f90565b5f1c90565b60018060a01b031690565b6100e16100e6916100c5565b6100ca565b90565b6100f390546100d5565b90565b90565b61010d6101086101129261004f565b6100f6565b61004f565b90565b61011e906100f9565b90565b61012a90610115565b90565b6101356100c1565b506101476101425f6100e9565b610121565b9056fea26469706673582212207aefa525db716ac112485bc42c1478b99b0a29360fc6e7ce88e0a4f635f066d464736f6c634300081800336080604052346200002d5762000014620000ae565b6200001e62000033565b61357a620000cb823961357a90f35b62000039565b60405190565b5f80fd5b5f1b90565b90620000505f19916200003d565b9181191691161790565b90565b90565b90565b6200007c6200007662000082926200005a565b62000060565b6200005d565b90565b90565b90620000a26200009c620000aa9262000063565b62000085565b825462000042565b9055565b620000bb5f601162000088565b620000c85f601262000088565b56fe60806040526004361015610018575b361561001657005b005b6100225f35610161565b80630d43aaf21461015c57806312065fe0146101575780631ea1469814610152578063265a65221461014d5780632fd8abab14610148578063379a423c146101435780633dd330df1461013e57806341ffe7c41461013957806360af454d1461013457806383028c411461012f5780638da5cb5b1461012a57806390d7f789146101255780639b95fc8d14610120578063abb8c9651461011b578063b2c4c0e314610116578063b90306ad14610111578063bdb537941461010c578063eab23ccc14610107578063f3fef3a3146101025763f4e52ae80361000e57610a27565b6109fd565b61099b565b610966565b61092e565b6108f9565b6108b6565b610833565b6107fa565b6106dc565b6106a7565b61060a565b6105d7565b6105a4565b61056f565b610527565b6104ac565b6103e8565b610377565b610319565b60e01c90565b60405190565b5f80fd5b5f80fd5b5f91031261017f57565b610171565b5f1c90565b60018060a01b031690565b6101a06101a591610184565b610189565b90565b6101b29054610194565b90565b60a01c90565b60ff1690565b6101cd6101d2916101b5565b6101bb565b90565b6101df90546101c1565b90565b60a81c90565b6101f46101f9916101e2565b6101bb565b90565b61020690546101e8565b90565b60b01c90565b61021b61022091610209565b6101bb565b90565b61022d905461020f565b90565b60b81c90565b61024261024791610230565b6101bb565b90565b6102549054610236565b90565b600d6102645f82016101a8565b916102705f83016101d5565b9161027c5f82016101fc565b916102935f61028c818501610223565b930161024a565b90565b60018060a01b031690565b6102aa90610296565b90565b6102b6906102a1565b9052565b151590565b6102c8906102ba565b9052565b9095949261031794610306610310926102fc6080966102f260a088019c5f8901906102ad565b60208701906102bf565b60408501906102bf565b60608301906102bf565b01906102bf565b565b3461034d57610329366004610175565b610349610334610257565b91610340959395610167565b958695866102cc565b0390f35b61016d565b90565b61035e90610352565b9052565b9190610375905f60208501940190610355565b565b346103a757610387366004610175565b6103a3610392610a6a565b61039a610167565b91829182610362565b0390f35b61016d565b1c90565b90565b6103c39060086103c893026103ac565b6103b0565b90565b906103d691546103b3565b90565b6103e560125f906103cb565b90565b34610418576103f8366004610175565b6104146104036103d9565b61040b610167565b91829182610362565b0390f35b61016d565b61042681610352565b0361042d57565b5f80fd5b9050359061043e8261041d565b565b9060208282031261045957610456915f01610431565b90565b610171565b90565b61047561047061047a92610352565b61045e565b610352565b90565b9061048790610461565b5f5260205260405f2090565b6104a9906104a4600f915f9261047d565b6103cb565b90565b346104dc576104d86104c76104c2366004610440565b610493565b6104cf610167565b91829182610362565b0390f35b61016d565b6104ea816102a1565b036104f157565b5f80fd5b90503590610502826104e1565b565b9060208282031261051d5761051a915f016104f5565b90565b610171565b5f0190565b346105555761053f61053a366004610504565b610ef9565b610547610167565b8061055181610522565b0390f35b61016d565b919061056d905f602085019401906102bf565b565b3461059f5761059b61058a610585366004610504565b610f08565b610592610167565b9182918261055a565b0390f35b61016d565b346105d2576105bc6105b7366004610440565b611722565b6105c4610167565b806105ce81610522565b0390f35b61016d565b34610605576105ef6105ea366004610504565b611d45565b6105f7610167565b8061060181610522565b0390f35b61016d565b346106385761062261061d366004610504565b611e31565b61062a610167565b8061063481610522565b0390f35b61016d565b9061064790610461565b5f5260205260405f2090565b61066390600861066893026103ac565b610189565b90565b906106769154610653565b90565b61068f9061068a6013915f9261063d565b61066b565b90565b91906106a5905f602085019401906102ad565b565b346106d7576106d36106c26106bd366004610440565b610679565b6106ca610167565b91829182610692565b0390f35b61016d565b3461070c576106ec366004610175565b6107086106f7611e94565b6106ff610167565b91829182610692565b0390f35b61016d565b61072561072061072a92610296565b61045e565b610296565b90565b61073690610711565b90565b6107429061072d565b90565b9061074f90610739565b5f5260205260405f2090565b61076761076c91610184565b6103b0565b90565b610779905461075b565b90565b610787906010610745565b906107935f830161076f565b916107a06001820161076f565b916107b960036107b2600285016101a8565b93016101a8565b90565b6107f16107f8946107e76060949897956107dd608086019a5f870190610355565b6020850190610355565b60408301906102ad565b01906102ad565b565b3461082e5761082a610815610810366004610504565b61077c565b90610821949294610167565b948594856107bc565b0390f35b61016d565b346108615761084b610846366004610504565b61203a565b610853610167565b8061085d81610522565b0390f35b61016d565b61086f816102ba565b0361087657565b5f80fd5b9050359061088782610866565b565b91906040838203126108b157806108a56108ae925f86016104f5565b9360200161087a565b90565b610171565b346108e5576108cf6108c9366004610889565b90612490565b6108d7610167565b806108e181610522565b0390f35b61016d565b6108f660115f906103cb565b90565b3461092957610909366004610175565b6109256109146108ea565b61091c610167565b91829182610362565b0390f35b61016d565b61094161093c366004610440565b61262b565b610949610167565b8061095381610522565b0390f35b610963600e5f906103cb565b90565b3461099657610976366004610175565b610992610981610957565b610989610167565b91829182610362565b0390f35b61016d565b346109cb576109ab366004610175565b6109c76109b6612636565b6109be610167565b9182918261055a565b0390f35b61016d565b91906040838203126109f857806109ec6109f5925f86016104f5565b93602001610431565b90565b610171565b610a11610a0b3660046109d0565b906128c4565b610a19610167565b80610a2381610522565b0390f35b34610a5557610a37366004610175565b610a3f612908565b610a47610167565b80610a5181610522565b0390f35b61016d565b5f90565b610a679061072d565b90565b610a72610a5a565b50610a7c30610a5e565b3190565b60018060a01b031690565b610a97610a9c91610184565b610a80565b90565b610aa99054610a8b565b90565b610ab59061072d565b90565b601f801991011690565b634e487b7160e01b5f52604160045260245ffd5b90610ae090610ab8565b810190811067ffffffffffffffff821117610afa57604052565b610ac2565b60e01b90565b90505190610b1282610866565b565b90602082820312610b2d57610b2a915f01610b05565b90565b610171565b610b3a610167565b3d5f823e3d90fd5b60209181520190565b5f7f71756575652e696e76616c69642e697353616665000000000000000000000000910152565b610b7f6014602092610b42565b610b8881610b4b565b0190565b610ba19060208101905f818303910152610b72565b90565b15610bab57565b610bb3610167565b62461bcd60e51b815280610bc960048201610b8c565b0390fd5b90610be0610bd9610167565b9283610ad6565b565b67ffffffffffffffff8111610c0057610bfc602091610ab8565b0190565b610ac2565b90610c17610c1283610be2565b610bcd565b918252565b90813b5f610c2982610c05565b9360208501903c565b60200190565b5190565b60018060a01b031690565b610c53610c5891610184565b610c3c565b90565b610c659054610c47565b90565b610c719061072d565b90565b90505190610c81826104e1565b565b90602082820312610c9c57610c99915f01610c74565b90565b610171565b90565b5f7f71756575652e77726f6e672e6861736800000000000000000000000000000000910152565b610cd86010602092610b42565b610ce181610ca4565b0190565b610cfa9060208101905f818303910152610ccb565b90565b15610d0457565b610d0c610167565b62461bcd60e51b815280610d2260048201610ce5565b0390fd5b610d54906020610d3e610d396002610a9f565b610aac565b636a276f9d90610d4c610167565b948592610aff565b82528180610d6460048201610522565b03915afa918215610e8e57610dc992610d84915f91610e60575b50610ba4565b610d8d33610c1c565b610d9f610d9982610c38565b91610c32565b206020610db3610dae5f610c5b565b610c68565b63e61dfd5890610dc1610167565b958692610aff565b82528180610dd960048201610522565b03915afa908115610e5b57610e20610e1a610e02610e2694610e2b975f91610e2d575b50610c1c565b610e14610e0e82610c38565b91610c32565b20610ca1565b91610ca1565b14610cfd565b610ed6565b565b610e4e915060203d8111610e54575b610e468183610ad6565b810190610c83565b5f610dfc565b503d610e3c565b610b32565b610e81915060203d8111610e87575b610e798183610ad6565b810190610b14565b5f610d7e565b503d610e6f565b610b32565b5f1b90565b90610ea960018060a01b0391610e93565b9181191691161790565b90565b90610ecb610ec6610ed292610739565b610eb3565b8254610e98565b9055565b610ef790610ee381612a30565b6002610ef133926010610745565b01610eb6565b565b610f0290610d26565b565b5f90565b610f10610f04565b50610f526020610f28610f236002610a9f565b610aac565b6319c0642990610f478592610f3b610167565b95869485938493610aff565b835260048301610692565b03915afa908115610fc4575f91610f96575b50908115610f71575b5090565b9050610f8f610f89610f83600c6101a8565b926102a1565b916102a1565b145f610f6d565b610fb7915060203d8111610fbd575b610faf8183610ad6565b810190610b14565b5f610f64565b503d610fa5565b610b32565b5f7f6f776e2e696e76616c69642e6973536166650000000000000000000000000000910152565b610ffd6012602092610b42565b61100681610fc9565b0190565b61101f9060208101905f818303910152610ff0565b90565b1561102957565b611031610167565b62461bcd60e51b8152806110476004820161100a565b0390fd5b5f7f496e76616c696420536166654f776e6572000000000000000000000000000000910152565b61107f6011602092610b42565b6110888161104b565b0190565b6110a19060208101905f818303910152611072565b90565b156110ab57565b6110b3610167565b62461bcd60e51b8152806110c96004820161108c565b0390fd5b6110fb9060206110e56110e06002610a9f565b610aac565b636a276f9d906110f3610167565b948592610aff565b8252818061110b60048201610522565b03915afa9182156111f1576111699261112b915f916111c3575b50611022565b602061113f61113a6002610a9f565b610aac565b6319c064299061115e3392611152610167565b96879485938493610aff565b835260048301610692565b03915afa9182156111be5761118e92611189915f91611190575b506110a4565b611356565b565b6111b1915060203d81116111b7575b6111a98183610ad6565b810190610b14565b5f611183565b503d61119f565b610b32565b6111e4915060203d81116111ea575b6111dc8183610ad6565b810190610b14565b5f611125565b503d6111d2565b610b32565b634e487b7160e01b5f52601160045260245ffd5b61121961121f91939293610352565b92610352565b820180921161122a57565b6111f6565b61123890610352565b5f1981146112465760010190565b6111f6565b90565b61126261125d6112679261124b565b61045e565b610296565b90565b6112739061124e565b90565b91602061129792949361129060408201965f8301906102ad565b01906102ad565b565b6112ad6112a86112b29261124b565b61045e565b610352565b90565b1b90565b919060086112d99102916112d360018060a01b03846112b5565b926112b5565b9181191691161790565b91906112f96112f461130193610739565b610eb3565b9083546112b9565b9055565b5f90565b61131b91611315611305565b916112e3565b565b906113295f1991610e93565b9181191691161790565b90565b9061134b61134661135292610461565b611333565b825461131d565b9055565b61136990611364601261076f565b61120a565b90611374601261076f565b5b8061138861138285610352565b91610352565b10806116f6575b156116f1576113a86113a36013839061063d565b6101a8565b6113c26113bc6113b75f61126a565b6102a1565b916102a1565b03611407575b611402906113e15f6113dc6013849061063d565b611309565b6113fd6113f66113f1601261076f565b61122f565b6012611336565b61122f565b611375565b611431600261142b60106114256114206013879061063d565b6101a8565b90610745565b016101a8565b61144b6114456114405f61126a565b6102a1565b916102a1565b14155f146115875761148090602061146a6114655f610c5b565b610c68565b635ad64af190611478610167565b948592610aff565b8252818061149060048201610522565b03915afa918215611582576114029261152f915f91611554575b506114bf6114ba6013859061063d565b6101a8565b6115206114ec60026114e660106114e06114db60138b9061063d565b6101a8565b90610745565b016101a8565b916115116114f8610167565b938492600460208501631567541960e21b815201611276565b60208201810382520382610ad6565b6115295f611299565b91612c09565b5061154c6115476115426013849061063d565b6101a8565b612a30565b5b90506113c8565b611575915060203d811161157b575b61156d8183610ad6565b810190610c83565b5f6114aa565b503d611563565b610b32565b6115b160036115ab60106115a56115a06013879061063d565b6101a8565b90610745565b016101a8565b6115cb6115c56115c05f61126a565b6102a1565b916102a1565b036115da575b6114029061154d565b6116079060206115f16115ec5f610c5b565b610c68565b63da1be7d0906115ff610167565b948592610aff565b8252818061161760048201610522565b03915afa9182156116ec57611402926116b6915f916116be575b506116466116416013859061063d565b6101a8565b6116a7611673600361166d601061166761166260138b9061063d565b6101a8565b90610745565b016101a8565b9161169861167f610167565b938492600460208501631567541960e21b815201611276565b60208201810382520382610ad6565b6116b05f611299565b91612c09565b5090506115d1565b6116df915060203d81116116e5575b6116d78183610ad6565b810190610c83565b5f611631565b503d6116cd565b610b32565b509050565b50611701601161076f565b61171c611716611711601261076f565b610352565b91610352565b1161138f565b61172b906110cd565b565b60018060a01b031690565b61174461174991610184565b61172d565b90565b6117569054611738565b90565b6117629061072d565b90565b5f7f6f776d2e66616b652e2064656c65676174650000000000000000000000000000910152565b6117996012602092610b42565b6117a281611765565b0190565b6117bb9060208101905f81830391015261178c565b90565b156117c557565b6117cd610167565b62461bcd60e51b8152806117e3600482016117a6565b0390fd5b61181460206117fe6117f96002610a9f565b610aac565b636a276f9d9061180c610167565b938492610aff565b8252818061182460048201610522565b03915afa80156119465761183f915f91611918575b50611022565b61185161184c600161174c565b611759565b61186361185d336102a1565b916102a1565b1490811561187f575b61187861187d926117be565b611c06565b565b6118c2915060206118986118936002610a9f565b610aac565b637df73e27906118b733926118ab610167565b96879485938493610aff565b835260048301610692565b03915afa9182156119135761187d92611878915f916118e5575b5092505061186c565b611906915060203d811161190c575b6118fe8183610ad6565b810190610b14565b5f6118dc565b503d6118f4565b610b32565b611939915060203d811161193f575b6119318183610ad6565b810190610b14565b5f611839565b503d611927565b610b32565b905051906119588261041d565b565b9060208282031261197357611970915f0161194b565b90565b610171565b61198260a0610bcd565b90565b5f90565b5f90565b611995611978565b90602080808080866119a5611985565b8152016119b0611989565b8152016119bb611989565b8152016119c6611989565b8152016119d1611989565b81525050565b6119df61198d565b90565b906119ec906102ba565b9052565b90565b611a07611a02611a0c926119f0565b61045e565b610352565b90565b90565b611a26611a21611a2b92611a0f565b61045e565b610352565b90565b90565b611a45611a40611a4a92611a2e565b61045e565b610352565b90565b90611a57906102a1565b9052565b611a6590516102a1565b90565b611a7290516102ba565b90565b60a01b90565b90611a8a60ff60a01b91611a75565b9181191691161790565b611a9d906102ba565b90565b90565b90611ab8611ab3611abf92611a94565b611aa0565b8254611a7b565b9055565b60a81b90565b90611ad860ff60a81b91611ac3565b9181191691161790565b90611af7611af2611afe92611a94565b611aa0565b8254611ac9565b9055565b60b01b90565b90611b1760ff60b01b91611b02565b9181191691161790565b90611b36611b31611b3d92611a94565b611aa0565b8254611b08565b9055565b60b81b90565b90611b5660ff60b81b91611b41565b9181191691161790565b90611b75611b70611b7c92611a94565b611aa0565b8254611b47565b9055565b90611bf260805f611bf894611ba2828201611b9c848801611a5b565b90610eb6565b611bba828201611bb460208801611a68565b90611aa3565b611bd2828201611bcc60408801611a68565b90611ae2565b611bea828201611be460608801611a68565b90611b21565b019201611a68565b90611b60565b565b90611c0491611b80565b565b611c48906020611c1e611c196002610a9f565b610aac565b631d84be4490611c3d3392611c31610167565b96879485938493610aff565b835260048301610692565b03915afa918215611d4057611cd792611cd0915f91611d12575b5091611c6c6119d7565b92611c7b6001602086016119e2565b80611c8f611c8960016119f3565b91610352565b14611cff575b80611ca9611ca36002611a12565b91610352565b14611cec575b611cc2611cbc6003611a31565b91610352565b14611cd9575b5f8301611a4d565b600d611bfa565b565b611ce76001608085016119e2565b611cc8565b611cfa6001606086016119e2565b611caf565b611d0d6001604086016119e2565b611c95565b611d33915060203d8111611d39575b611d2b8183610ad6565b81019061195a565b5f611c62565b503d611d21565b610b32565b611d4e906117e7565b565b5f7f6f776e2e686578626173652e6661696c65640000000000000000000000000000910152565b611d846012602092610b42565b611d8d81611d50565b0190565b611da69060208101905f818303910152611d77565b90565b15611db057565b611db8610167565b62461bcd60e51b815280611dce60048201611d91565b0390fd5b611ddb90610711565b90565b611de790611dd2565b90565b611df390610711565b90565b611dff90611dea565b90565b611e0b90611dea565b90565b90565b90611e26611e21611e2d92611e02565b611e0e565b8254610e98565b9055565b611e84611e7f611e8a92611e6f611e4f611e4a5f610c5b565b610c68565b611e69611e63611e5e5f61126a565b6102a1565b916102a1565b14611da9565b611e7a32600c610eb6565b611dde565b611df6565b5f611e11565b611e92612dbe565b565b611e9c611305565b50611ea7600c6101a8565b90565b611ed8906020611ec2611ebd6002610a9f565b610aac565b636a276f9d90611ed0610167565b948592610aff565b82528180611ee860048201610522565b03915afa91821561201257611f4d92611f08915f91611fe4575b50610ba4565b611f1133610c1c565b611f23611f1d82610c38565b91610c32565b206020611f37611f325f610c5b565b610c68565b63e61dfd5890611f45610167565b958692610aff565b82528180611f5d60048201610522565b03915afa908115611fdf57611fa4611f9e611f86611faa94611faf975f91611fb1575b50610c1c565b611f98611f9282610c38565b91610c32565b20610ca1565b91610ca1565b14610cfd565b612017565b565b611fd2915060203d8111611fd8575b611fca8183610ad6565b810190610c83565b5f611f80565b503d611fc0565b610b32565b612005915060203d811161200b575b611ffd8183610ad6565b810190610b14565b5f611f02565b503d611ff3565b610b32565b6120389061202481612a30565b600361203233926010610745565b01610eb6565b565b61204390611eaa565b565b90612073602061205d6120586002610a9f565b610aac565b636a276f9d9061206b610167565b938492610aff565b8252818061208360048201610522565b03915afa80156121a55761209e915f91612177575b50611022565b6120b06120ab600161174c565b611759565b6120c26120bc336102a1565b916102a1565b149182156120de575b6120d76120dc936117be565b6121aa565b565b612121925060206120f76120f26002610a9f565b610aac565b637df73e2790612116339261210a610167565b97889485938493610aff565b835260048301610692565b03915afa928315612172576120dc936120d7915f91612144575b509350506120cb565b612165915060203d811161216b575b61215d8183610ad6565b810190610b14565b5f61213b565b503d612153565b610b32565b612198915060203d811161219e575b6121908183610ad6565b810190610b14565b5f612098565b503d612186565b610b32565b905f14612478576121f260206121c86121c36002610a9f565b610aac565b631d84be44906121e733926121db610167565b95869485938493610aff565b835260048301610692565b03915afa908115612473575f91612445575b506122115f600d016101d5565b8061242a575b80612405575b6123f2575b61222e5f600d016101d5565b806123d7575b806123b2575b61239f575b61224b5f600d016101d5565b9081612383575b508061235e575b61234b575b6122675f611299565b6122735f600d016101fc565b61233d575b6122845f600d01610223565b61232f575b6122955f600d0161024a565b612321575b6122a65f600d016101d5565b9081612305575b50806122e0575b6122bd575b505b565b6122c890600c610eb6565b6122da6122d36119d7565b600d611bfa565b5f6122b9565b506122ed5f600d016101a8565b6122ff6122f9836102a1565b916102a1565b146122b4565b905061231a6123146002611a12565b91610352565b145f6122ad565b61232a9061122f565b61229a565b6123389061122f565b612289565b6123469061122f565b612278565b61235960015f600d01611b60565b61225e565b5061236b5f600d016101a8565b61237d612377836102a1565b916102a1565b14612259565b90506123986123926003611a31565b91610352565b145f612252565b6123ad60015f600d01611b21565b61223f565b506123bf5f600d016101a8565b6123d16123cb846102a1565b916102a1565b1461223a565b50806123ec6123e66002611a12565b91610352565b14612234565b61240060015f600d01611ae2565b612222565b506124125f600d016101a8565b61242461241e846102a1565b916102a1565b1461221d565b508061243f61243960016119f3565b91610352565b14612217565b612466915060203d811161246c575b61245e8183610ad6565b81019061195a565b5f612204565b503d612454565b610b32565b5061248b6124846119d7565b600d611bfa565b6122bb565b9061249a91612045565b565b5f7f6f776e2e6e6f6e617574682e44414f0000000000000000000000000000000000910152565b6124d0600f602092610b42565b6124d98161249c565b0190565b6124f29060208101905f8183039101526124c3565b90565b156124fc57565b612504610167565b62461bcd60e51b81528061251a600482016124dd565b0390fd5b61254c9060206125366125316002610a9f565b610aac565b636a276f9d90612544610167565b948592610aff565b8252818061255c60048201610522565b03915afa9182156125de576125ae9261257c915f916125b0575b50611022565b6125a961259161258c600161174c565b611759565b6125a361259d336102a1565b916102a1565b146124f5565b6125ef565b565b6125d1915060203d81116125d7575b6125c98183610ad6565b810190610b14565b5f612576565b503d6125bf565b610b32565b6125ec9061072d565b90565b5f8080809361260d6126086126038461126a565b611dde565b6125e3565b828215612622575bf11561261d57565b610b32565b506108fc612615565b6126349061251e565b565b61263e610f04565b5061265a612655600f61264f613434565b9061047d565b61076f565b61267561266f61266a600e61076f565b610352565b91610352565b1190565b5f7f6f776e2e64656661756c742e73656e6465720000000000000000000000000000910152565b6126ad6012602092610b42565b6126b681612679565b0190565b6126cf9060208101905f8183039101526126a0565b90565b156126d957565b6126e1610167565b62461bcd60e51b8152806126f7600482016126ba565b0390fd5b9061272a916127258161271e6127186127135f61126a565b6102a1565b916102a1565b14156126d2565b61272c565b565b9061275b9160206127456127406002610a9f565b610aac565b636a276f9d90612753610167565b958692610aff565b8252818061276b60048201610522565b03915afa9283156127ed576127bd9361278b915f916127bf575b50611022565b6127b86127a061279b600161174c565b611759565b6127b26127ac336102a1565b916102a1565b146124f5565b612874565b565b6127e0915060203d81116127e6575b6127d88183610ad6565b810190610b14565b5f612785565b503d6127ce565b610b32565b5f7f6f776e2e696e76616c69642e616d6f756e740000000000000000000000000000910152565b6128266012602092610b42565b61282f816127f2565b0190565b6128489060208101905f818303910152612819565b90565b1561285257565b61285a610167565b62461bcd60e51b81528061287060048201612833565b0390fd5b5f8080936128a66128a1839561289c8461289661289088611299565b91610352565b1161284b565b611dde565b6125e3565b8282156128bb575bf1156128b657565b610b32565b506108fc6128ae565b906128ce916126fb565b565b60018060a01b031690565b6128e76128ec91610184565b6128d0565b90565b6128f990546128db565b90565b6129059061072d565b90565b612935602061291f61291a60036128ef565b6128fc565b63db2d8b269061292d610167565b938492610aff565b8252818061294560048201610522565b03915afa801561299257612962915f91612964575b50600e611336565b565b612985915060203d811161298b575b61297d8183610ad6565b81019061195a565b5f61295a565b503d612973565b610b32565b6129a16080610bcd565b90565b906129ae90610352565b9052565b6129bc9051610352565b90565b90612a1c60606003612a22946129e25f82016129dc5f88016129b2565b90611336565b6129fb600182016129f5602088016129b2565b90611336565b612a1460028201612a0e60408801611a5b565b90610eb6565b019201611a5b565b90610eb6565b565b90612a2e916129bf565b565b612a465f612a4060108490610745565b0161076f565b612a58612a525f611299565b91610352565b14612a61575b50565b612ad190612acc612a70613434565b612ac45f612abb612a805f61126a565b612ab2612aa9612a8f5f61126a565b94612aa4612a9b612997565b985f8a016129a4565b611299565b602087016129a4565b60408501611a4d565b60608301611a4d565b916010610745565b612a24565b5f612a5e565b606090565b5f7f6f776e2e696e76616c69642e7461726765740000000000000000000000000000910152565b612b106012602092610b42565b612b1981612adc565b0190565b612b329060208101905f818303910152612b03565b90565b15612b3c57565b612b44610167565b62461bcd60e51b815280612b5a60048201612b1d565b0390fd5b3d5f14612b7957612b6e3d610c05565b903d5f602084013e5b565b612b81612ad7565b90612b77565b5f7f6f776e2e7461726765742e63616c6c2e6661696c656400000000000000000000910152565b612bbb6016602092610b42565b612bc481612b87565b0190565b612bdd9060208101905f818303910152612bae565b90565b15612be757565b612bef610167565b62461bcd60e51b815280612c0560048201612bc8565b0390fd5b915f92918392612c17612ad7565b50612c3d81612c36612c30612c2b8861126a565b6102a1565b916102a1565b1415612b35565b91602082019151925af1612c58612c52612b5e565b91612be0565b90565b612c6490610711565b90565b612c7090612c5b565b90565b612c7c90612c5b565b90565b90565b90612c97612c92612c9e92612c73565b612c7f565b8254610e98565b9055565b612cab90610711565b90565b612cb790612ca2565b90565b612cc390612ca2565b90565b90565b90612cde612cd9612ce592612cba565b612cc6565b8254610e98565b9055565b612cf290610711565b90565b612cfe90612ce9565b90565b612d0a90612ce9565b90565b90565b90612d25612d20612d2c92612d01565b612d0d565b8254610e98565b9055565b612d3990610711565b90565b612d4590612d30565b90565b612d5190612d30565b90565b90565b90612d6c612d67612d7392612d48565b612d54565b8254610e98565b9055565b612d8090610711565b90565b612d8c90612d77565b90565b612d9890612d77565b90565b90565b90612db3612dae612dba92612d8f565b612d9b565b8254610e98565b9055565b612dcf612dca5f610c5b565b610c68565b612de9612de3612dde5f61126a565b6102a1565b916102a1565b1461342657612e1a6020612e04612dff5f610c5b565b610c68565b634162169f90612e12610167565b938492610aff565b82528180612e2a60048201610522565b03915afa90811561342157612e5191612e4a915f916133f3575b50612c67565b6001612c82565b612e7d6020612e67612e625f610c5b565b610c68565b63b57dbdc690612e75610167565b938492610aff565b82528180612e8d60048201610522565b03915afa9081156133ee57612eb491612ead915f916133c0575b50612cae565b6002612cc9565b612ee06020612eca612ec55f610c5b565b610c68565b63cfbffe5390612ed8610167565b938492610aff565b82528180612ef060048201610522565b03915afa9081156133bb57612f1791612f10915f9161338d575b50612cf5565b6003612d10565b612f436020612f2d612f285f610c5b565b610c68565b63ab6e844f90612f3b610167565b938492610aff565b82528180612f5360048201610522565b03915afa90811561338857612f7a91612f73915f9161335a575b50612d3c565b6004612d57565b612fa66020612f90612f8b5f610c5b565b610c68565b639a7c407790612f9e610167565b938492610aff565b82528180612fb660048201610522565b03915afa90811561335557612fdd91612fd6915f91613327575b50612d83565b6005612d9e565b6130096020612ff3612fee5f610c5b565b610c68565b63aa0ddc1690613001610167565b938492610aff565b8252818061301960048201610522565b03915afa801561332257613036915f916132f4575b506007610eb6565b613062602061304c6130475f610c5b565b610c68565b636b4aefc69061305a610167565b938492610aff565b8252818061307260048201610522565b03915afa80156132ef5761308f915f916132c1575b506008610eb6565b6130bb60206130a56130a05f610c5b565b610c68565b6324768d91906130b3610167565b938492610aff565b825281806130cb60048201610522565b03915afa80156132bc576130e8915f9161328e575b50600b610eb6565b61311460206130fe6130f95f610c5b565b610c68565b63640274279061310c610167565b938492610aff565b8252818061312460048201610522565b03915afa801561328957613141915f9161325b575b506009610eb6565b61316d60206131576131525f610c5b565b610c68565b6330125cf590613165610167565b938492610aff565b8252818061317d60048201610522565b03915afa80156132565761319a915f91613228575b50600a610eb6565b6131c660206131b06131ab5f610c5b565b610c68565b63d3d1b096906131be610167565b938492610aff565b825281806131d660048201610522565b03915afa8015613223576131f3915f916131f5575b506006610eb6565b565b613216915060203d811161321c575b61320e8183610ad6565b810190610c83565b5f6131eb565b503d613204565b610b32565b613249915060203d811161324f575b6132418183610ad6565b810190610c83565b5f613192565b503d613237565b610b32565b61327c915060203d8111613282575b6132748183610ad6565b810190610c83565b5f613139565b503d61326a565b610b32565b6132af915060203d81116132b5575b6132a78183610ad6565b810190610c83565b5f6130e0565b503d61329d565b610b32565b6132e2915060203d81116132e8575b6132da8183610ad6565b810190610c83565b5f613087565b503d6132d0565b610b32565b613315915060203d811161331b575b61330d8183610ad6565b810190610c83565b5f61302e565b503d613303565b610b32565b613348915060203d811161334e575b6133408183610ad6565b810190610c83565b5f612fd0565b503d613336565b610b32565b61337b915060203d8111613381575b6133738183610ad6565b810190610c83565b5f612f6d565b503d613369565b610b32565b6133ae915060203d81116133b4575b6133a68183610ad6565b810190610c83565b5f612f0a565b503d61339c565b610b32565b6133e1915060203d81116133e7575b6133d98183610ad6565b810190610c83565b5f612ea7565b503d6133cf565b610b32565b613414915060203d811161341a575b61340c8183610ad6565b810190610c83565b5f612e44565b503d613402565b610b32565b565b6134319061072d565b90565b61343c610a5a565b50613469602061345361344e5f610c5b565b610c68565b63447aa30490613461610167565b938492610aff565b8252818061347960048201610522565b03915afa90811561353f576134a361349e6134b9936020935f91613512575b50612d3c565b613428565b63262a9dff906134b1610167565b938492610aff565b825281806134c960048201610522565b03915afa90811561350d575f916134df575b5090565b613500915060203d8111613506575b6134f88183610ad6565b81019061195a565b5f6134db565b503d6134ee565b610b32565b6135329150843d8111613538575b61352a8183610ad6565b810190610c83565b5f613498565b503d613520565b610b3256fea2646970667358221220e138cf86f4b526ff3b01f502d17a636af33c4708e0e17a959f3850d6e3737acd64736f6c634300081800336080604052346200002d5762000014620000ae565b6200001e62000033565b614555620000bf823961455590f35b62000039565b60405190565b5f80fd5b5f1b90565b90620000505f19916200003d565b9181191691161790565b90565b90565b90565b6200007c6200007662000082926200005a565b62000060565b6200005d565b90565b90565b90620000a26200009c620000aa9262000063565b62000085565b825462000042565b9055565b620000bc6033601062000088565b56fe60806040526004361015610018575b361561001657005b005b6100225f35610181565b8063013cf08b1461017c57806307ad4055146101775780630d43aaf21461017257806312065fe01461016d578063379a423c1461016857806341ffe7c4146101635780635be612c71461015e578063604ff4b11461015957806360af454d1461015457806368fd1f511461014f5780638da5cb5b1461014a57806398e527d314610145578063a065974414610140578063abb8c9651461013b578063b90306ad14610136578063c1ce0e9b14610131578063c7f758a81461012c578063c9d27afe14610127578063cbf0b0c014610122578063d3325a2c1461011d578063f3fef3a3146101185763fe0d94c10361000e576110a7565b61107d565b611016565b610ecf565b610e9b565b610e2f565b610d6f565b610d46565b610d12565b610cdd565b610c73565b610c3e565b610c09565b610b4a565b610b17565b610ae2565b610a0f565b6109da565b610972565b610924565b6107b9565b6106ff565b60e01c90565b60405190565b5f80fd5b5f80fd5b5f80fd5b90565b6101a581610199565b036101ac57565b5f80fd5b905035906101bd8261019c565b565b906020828203126101d8576101d5915f016101b0565b90565b610191565b634e487b7160e01b5f52603260045260245ffd5b5490565b5f5260205f2090565b610207816101f1565b82101561022157610219600c916101f5565b910201905f90565b6101dd565b634e487b7160e01b5f52602260045260245ffd5b906001600283049216801561025a575b602083101461025557565b610226565b91607f169161024a565b60209181520190565b5f5260205f2090565b905f92918054906102906102898361023a565b8094610264565b916001811690815f146102e757506001146102ab575b505050565b6102b8919293945061026d565b915f925b8184106102cf57505001905f80806102a6565b600181602092959395548486015201910192906102bc565b92949550505060ff19168252151560200201905f80806102a6565b9061030c91610276565b90565b601f801991011690565b634e487b7160e01b5f52604160045260245ffd5b906103379061030f565b810190811067ffffffffffffffff82111761035157604052565b610319565b9061037661036f92610366610187565b93848092610302565b038361032d565b565b5f1c90565b60018060a01b031690565b61039461039991610378565b61037d565b90565b6103a69054610388565b90565b90565b6103b86103bd91610378565b6103a9565b90565b6103ca90546103ac565b90565b60209181520190565b5f5260205f2090565b905f92918054906103f96103f28361023a565b80946103cd565b916001811690815f146104505750600114610414575b505050565b61042191929394506103d6565b915f925b81841061043857505001905f808061040f565b60018160209295939554848601520191019290610425565b92949550505060ff19168252151560200201905f808061040f565b90610475916103df565b90565b9061049861049192610488610187565b9384809261046b565b038361032d565b565b60ff1690565b6104ac6104b191610378565b61049a565b90565b6104be90546104a0565b90565b6011906104cd826101f1565b81101561056d576104dd916101fe565b506104e95f8201610356565b916104f66001830161039c565b91610503600282016103c0565b9161051060038301610478565b9161051d600482016103c0565b9161052a600583016103c0565b91610537600682016103c0565b91610544600783016104b4565b91610551600882016103c0565b9161056a600b610563600985016104b4565b93016104b4565b90565b5f80fd5b5190565b60209181520190565b5f5b838110610590575050905f910152565b806020918301518185015201610580565b6105c06105c96020936105ce936105b781610571565b93848093610575565b9586910161057e565b61030f565b0190565b60018060a01b031690565b6105e6906105d2565b90565b6105f2906105dd565b9052565b6105ff90610199565b9052565b5190565b60209181520190565b61062f61063860209361063d9361062681610603565b93848093610607565b9586910161057e565b61030f565b0190565b151590565b61064f90610641565b9052565b9896949b9a9997959392906101608a018a81035f8c0152610673916105a1565b9160208a01610681916105e9565b6040890161068e916105f6565b878103606089015261069f91610610565b98608087016106ad916105f6565b60a086016106ba916105f6565b60c085016106c7916105f6565b60e084016106d491610646565b61010083016106e2916105f6565b61012082016106f091610646565b610140016106fd91610646565b565b3461073c5761073861071a6107153660046101bf565b6104c1565b9761072f9b999b979197969296959395610187565b9b8c9b8c610653565b0390f35b61018d565b61074a816105dd565b0361075157565b5f80fd5b9050359061076282610741565b565b61076d81610641565b0361077457565b5f80fd5b9050359061078582610764565b565b91906040838203126107af57806107a36107ac925f8601610755565b93602001610778565b90565b610191565b5f0190565b346107e8576107d26107cc366004610787565b906117cf565b6107da610187565b806107e4816107b4565b0390f35b61018d565b5f9103126107f757565b610191565b60a01c90565b61080e610813916107fc565b61049a565b90565b6108209054610802565b90565b60a81c90565b61083561083a91610823565b61049a565b90565b6108479054610829565b90565b60b01c90565b61085c6108619161084a565b61049a565b90565b61086e9054610850565b90565b60b81c90565b61088361088891610871565b61049a565b90565b6108959054610877565b90565b600d6108a55f820161039c565b916108b15f8301610816565b916108bd5f820161083d565b916108d45f6108cd818501610864565b930161088b565b90565b909594926109229461091161091b926109076080966108fd60a088019c5f8901906105e9565b6020870190610646565b6040850190610646565b6060830190610646565b0190610646565b565b34610958576109343660046107ed565b61095461093f610898565b9161094b959395610187565b958695866108d7565b0390f35b61018d565b9190610970905f602085019401906105f6565b565b346109a2576109823660046107ed565b61099e61098d6117eb565b610995610187565b9182918261095d565b0390f35b61018d565b906020828203126109c0576109bd915f01610755565b90565b610191565b91906109d8905f60208501940190610646565b565b34610a0a57610a066109f56109f03660046109a7565b611805565b6109fd610187565b918291826109c5565b0390f35b61018d565b34610a3d57610a27610a223660046109a7565b611f82565b610a2f610187565b80610a39816107b4565b0390f35b61018d565b5490565b5f5260205f2090565b610a5881610a42565b821015610a7257610a6a600191610a46565b910201905f90565b6101dd565b1c90565b610a8b906008610a909302610a77565b61037d565b90565b90610a9e9154610a7b565b90565b600e610aac81610a42565b821015610ac957610ac691610ac091610a4f565b90610a93565b90565b5f80fd5b9190610ae0905f602085019401906105e9565b565b34610b1257610b0e610afd610af83660046101bf565b610aa1565b610b05610187565b91829182610acd565b0390f35b61018d565b34610b4557610b2f610b2a3660046101bf565b6120ab565b610b37610187565b80610b41816107b4565b0390f35b61018d565b34610b7857610b62610b5d3660046109a7565b6121f7565b610b6a610187565b80610b74816107b4565b0390f35b61018d565b90565b610b94610b8f610b99926105d2565b610b7d565b6105d2565b90565b610ba590610b80565b90565b610bb190610b9c565b90565b90610bbe90610ba8565b5f5260205260405f2090565b610bda906008610bdf9302610a77565b61049a565b90565b90610bed9154610bca565b90565b610c0690610c01600f915f92610bb4565b610be2565b90565b34610c3957610c35610c24610c1f3660046109a7565b610bf0565b610c2c610187565b918291826109c5565b0390f35b61018d565b34610c6e57610c4e3660046107ed565b610c6a610c5961225a565b610c61610187565b91829182610acd565b0390f35b61018d565b34610ca357610c833660046107ed565b610c9f610c8e612270565b610c96610187565b9182918261095d565b0390f35b61018d565b610cb8906008610cbd9302610a77565b6103a9565b90565b90610ccb9154610ca8565b90565b610cda60105f90610cc0565b90565b34610d0d57610ced3660046107ed565b610d09610cf8610cce565b610d00610187565b9182918261095d565b0390f35b61018d565b34610d4157610d2b610d25366004610787565b906126ed565b610d33610187565b80610d3d816107b4565b0390f35b61018d565b610d59610d543660046101bf565b612888565b610d61610187565b80610d6b816107b4565b0390f35b34610d9f57610d7f3660046107ed565b610d9b610d8a612893565b610d92610187565b9182918261095d565b0390f35b61018d565b969492909998979593919961012088018881035f8a0152610dc4916105a1565b9960208801610dd2916105e9565b60408701610ddf916105f6565b60608601610dec916105f6565b60808501610df9916105f6565b60a08401610e06916105f6565b60c08301610e1391610646565b60e08201610e20916105f6565b61010001610e2d91610646565b565b34610e6957610e65610e4a610e453660046101bf565b6128bd565b95610e5c999799959195949294610187565b998a998a610da4565b0390f35b61018d565b9190604083820312610e965780610e8a610e93925f86016101b0565b93602001610778565b90565b610191565b34610eca57610eb4610eae366004610e6e565b90612dfc565b610ebc610187565b80610ec6816107b4565b0390f35b61018d565b34610efd57610ee7610ee23660046109a7565b612e08565b610eef610187565b80610ef9816107b4565b0390f35b61018d565b5f80fd5b5f80fd5b5f80fd5b909182601f83011215610f485781359167ffffffffffffffff8311610f43576020019260018302840111610f3e57565b610f0a565b610f06565b610f02565b909182601f83011215610f875781359167ffffffffffffffff8311610f82576020019260018302840111610f7d57565b610f0a565b610f06565b610f02565b919060a083820312611011575f83013567ffffffffffffffff811161100c5781610fb7918501610f0e565b929093610fc78360208301610755565b92610fd581604084016101b0565b92606083013567ffffffffffffffff811161100757610ff983611004928601610f4d565b9390946080016101b0565b90565b610195565b610195565b610191565b3461104b57611035611029366004610f8c565b959490949391936133fb565b61103d610187565b80611047816107b4565b0390f35b61018d565b9190604083820312611078578061106c611075925f8601610755565b936020016101b0565b90565b610191565b61109161108b366004611050565b906135d5565b611099610187565b806110a3816107b4565b0390f35b346110d5576110bf6110ba3660046101bf565b613a9e565b6110c7610187565b806110d1816107b4565b0390f35b61018d565b60018060a01b031690565b6110f16110f691610378565b6110da565b90565b61110390546110e5565b90565b61110f90610b9c565b90565b60e01b90565b9050519061112582610764565b565b906020828203126111405761113d915f01611118565b90565b610191565b61114d610187565b3d5f823e3d90fd5b5f7f496e76616c696420697353616665000000000000000000000000000000000000910152565b611189600e602092610575565b61119281611155565b0190565b6111ab9060208101905f81830391015261117c565b90565b156111b557565b6111bd610187565b62461bcd60e51b8152806111d360048201611196565b0390fd5b6111e090610b9c565b90565b5f7f66616b652064616f20636f726500000000000000000000000000000000000000910152565b611217600d602092610575565b611220816111e3565b0190565b6112399060208101905f81830391015261120a565b90565b1561124357565b61124b610187565b62461bcd60e51b81528061126160048201611224565b0390fd5b9061129491602061127e61127960026110f9565b611106565b636a276f9d9061128c610187565b958692611112565b825281806112a4600482016107b4565b03915afa92831561131d576112ed936112c4915f916112ef575b506111ae565b6112e86112d0306111d7565b6112e26112dc336105dd565b916105dd565b1461123c565b611636565b565b611310915060203d8111611316575b611308818361032d565b810190611127565b5f6112be565b503d6112fe565b611145565b5f7f6e6f742065786973747300000000000000000000000000000000000000000000910152565b611356600a602092610575565b61135f81611322565b0190565b6113789060208101905f818303910152611349565b90565b1561138257565b61138a610187565b62461bcd60e51b8152806113a060048201611363565b0390fd5b90565b6113bb6113b66113c0926113a4565b610b7d565b610199565b90565b60016113cf9101610199565b90565b90565b6113e96113e46113ee926113d2565b610b7d565b610199565b90565b634e487b7160e01b5f52601160045260245ffd5b61141461141a91939293610199565b92610199565b820391821161142557565b6113f1565b61143961143f91939293610199565b92610199565b820180921161144a57565b6113f1565b1b90565b9190600861147391029161146d60018060a01b038461144f565b9261144f565b9181191691161790565b90565b919061149661149161149e93610ba8565b61147d565b908354611453565b9055565b90565b634e487b7160e01b5f52603160045260245ffd5b5490565b5f5260205f2090565b6114cf816114b9565b8210156114e9576114e16001916114bd565b910201905f90565b6101dd565b5f90565b611504916114fe6114ee565b91611480565b565b61150f816114b9565b801561153057600190039061152d61152783836114c6565b906114f2565b55565b6114a5565b5f1b90565b9061154660ff91611535565b9181191691161790565b61155990610641565b90565b90565b9061157461156f61157b92611550565b61155c565b825461153a565b9055565b5f7f416c726561647920657869737473000000000000000000000000000000000000910152565b6115b3600e602092610575565b6115bc8161157f565b0190565b6115d59060208101905f8183039101526115a6565b90565b156115df57565b6115e7610187565b62461bcd60e51b8152806115fd600482016115c0565b0390fd5b9081549168010000000000000000831015611631578261162991600161162f950181556114c6565b90611480565b565b610319565b905f1461168f5761168c9061166661166161165b611656600f8590610bb4565b6104b4565b15610641565b6115d8565b61167a611673600e6114a2565b8290611601565b611687600191600f610bb4565b61155f565b5b565b6116ab6116a66116a1600f8490610bb4565b6104b4565b61137b565b6116b45f6113a7565b5b806116d16116cb6116c6600e610a42565b610199565b91610199565b10156117b457816116fe6116f86116f36116ed600e8690610a4f565b90610a93565b6105dd565b916105dd565b14611712575b61170d906113c3565b6116b5565b91825b8061174461173e611739611729600e610a42565b61173360016113d5565b90611405565b610199565b91610199565b1015611795576117909061178b611779611773600e61176d8561176760016113d5565b9061142a565b90610a4f565b90610a93565b611785600e8490610a4f565b90611480565b6113c3565b611715565b509161170d906117ad6117a8600e6114a2565b611506565b9050611704565b506117ca906117c55f91600f610bb4565b61155f565b61168d565b906117d991611265565b565b5f90565b6117e890610b9c565b90565b6117f36117db565b506117fd306117df565b3190565b5f90565b61180d611801565b5061184f602061182561182060026110f9565b611106565b6319c06429906118448592611838610187565b95869485938493611112565b835260048301610acd565b03915afa9081156118c1575f91611893575b5090811561186e575b5090565b905061188c611886611880600c61039c565b926105dd565b916105dd565b145f61186a565b6118b4915060203d81116118ba575b6118ac818361032d565b810190611127565b5f611861565b503d6118a2565b611145565b5f7f6f776e2e696e76616c69642e6973536166650000000000000000000000000000910152565b6118fa6012602092610575565b611903816118c6565b0190565b61191c9060208101905f8183039101526118ed565b90565b1561192657565b61192e610187565b62461bcd60e51b81528061194460048201611907565b0390fd5b60018060a01b031690565b61195f61196491610378565b611948565b90565b6119719054611953565b90565b61197d90610b9c565b90565b5f7f6f776d2e66616b652e2064656c65676174650000000000000000000000000000910152565b6119b46012602092610575565b6119bd81611980565b0190565b6119d69060208101905f8183039101526119a7565b90565b156119e057565b6119e8610187565b62461bcd60e51b8152806119fe600482016119c1565b0390fd5b611a2f6020611a19611a1460026110f9565b611106565b636a276f9d90611a27610187565b938492611112565b82528180611a3f600482016107b4565b03915afa8015611b6157611a5a915f91611b33575b5061191f565b611a6c611a676001611967565b611974565b611a7e611a78336105dd565b916105dd565b14908115611a9a575b611a93611a98926119d9565b611e43565b565b611add91506020611ab3611aae60026110f9565b611106565b637df73e2790611ad23392611ac6610187565b96879485938493611112565b835260048301610acd565b03915afa918215611b2e57611a9892611a93915f91611b00575b50925050611a87565b611b21915060203d8111611b27575b611b19818361032d565b810190611127565b5f611af7565b503d611b0f565b611145565b611b54915060203d8111611b5a575b611b4c818361032d565b810190611127565b5f611a54565b503d611b42565b611145565b90505190611b738261019c565b565b90602082820312611b8e57611b8b915f01611b66565b90565b610191565b90611ba6611b9f610187565b928361032d565b565b611bb260a0611b93565b90565b5f90565b5f90565b611bc5611ba8565b9060208080808086611bd5611bb5565b815201611be0611bb9565b815201611beb611bb9565b815201611bf6611bb9565b815201611c01611bb9565b81525050565b611c0f611bbd565b90565b90611c1c90610641565b9052565b90565b611c37611c32611c3c92611c20565b610b7d565b610199565b90565b90565b611c56611c51611c5b92611c3f565b610b7d565b610199565b90565b90611c68906105dd565b9052565b611c7690516105dd565b90565b90611c8a60018060a01b0391611535565b9181191691161790565b90611ca9611ca4611cb092610ba8565b61147d565b8254611c79565b9055565b611cbe9051610641565b90565b60a01b90565b90611cd660ff60a01b91611cc1565b9181191691161790565b90611cf5611cf0611cfc92611550565b61155c565b8254611cc7565b9055565b60a81b90565b90611d1560ff60a81b91611d00565b9181191691161790565b90611d34611d2f611d3b92611550565b61155c565b8254611d06565b9055565b60b01b90565b90611d5460ff60b01b91611d3f565b9181191691161790565b90611d73611d6e611d7a92611550565b61155c565b8254611d45565b9055565b60b81b90565b90611d9360ff60b81b91611d7e565b9181191691161790565b90611db2611dad611db992611550565b61155c565b8254611d84565b9055565b90611e2f60805f611e3594611ddf828201611dd9848801611c6c565b90611c94565b611df7828201611df160208801611cb4565b90611ce0565b611e0f828201611e0960408801611cb4565b90611d1f565b611e27828201611e2160608801611cb4565b90611d5e565b019201611cb4565b90611d9d565b565b90611e4191611dbd565b565b611e85906020611e5b611e5660026110f9565b611106565b631d84be4490611e7a3392611e6e610187565b96879485938493611112565b835260048301610acd565b03915afa918215611f7d57611f1492611f0d915f91611f4f575b5091611ea9611c07565b92611eb8600160208601611c12565b80611ecc611ec660016113d5565b91610199565b14611f3c575b80611ee6611ee06002611c23565b91610199565b14611f29575b611eff611ef96003611c42565b91610199565b14611f16575b5f8301611c5e565b600d611e37565b565b611f24600160808501611c12565b611f05565b611f37600160608601611c12565b611eec565b611f4a600160408601611c12565b611ed2565b611f70915060203d8111611f76575b611f68818361032d565b810190611b75565b5f611e9f565b503d611f5e565b611145565b611f8b90611a02565b565b611fbb906020611fa5611fa060026110f9565b611106565b636a276f9d90611fb3610187565b948592611112565b82528180611fcb600482016107b4565b03915afa9182156120445761201492611feb915f91612016575b506111ae565b61200f611ff7306111d7565b612009612003336105dd565b916105dd565b1461123c565b61209e565b565b612037915060203d811161203d575b61202f818361032d565b810190611127565b5f611fe5565b503d612025565b611145565b906120555f1991611535565b9181191691161790565b61207361206e61207892610199565b610b7d565b610199565b90565b90565b9061209361208e61209a9261205f565b61207b565b8254612049565b9055565b6120a990601061207e565b565b6120b490611f8d565b565b60018060a01b031690565b6120cd6120d291610378565b6120b6565b90565b6120df90546120c1565b90565b6120eb90610b9c565b90565b6121026120fd612107926113a4565b610b7d565b6105d2565b90565b612113906120ee565b90565b5f7f6f776e2e686578626173652e6661696c65640000000000000000000000000000910152565b61214a6012602092610575565b61215381612116565b0190565b61216c9060208101905f81830391015261213d565b90565b1561217657565b61217e610187565b62461bcd60e51b81528061219460048201612157565b0390fd5b6121a190610b80565b90565b6121ad90612198565b90565b6121b990610b80565b90565b6121c5906121b0565b90565b6121d1906121b0565b90565b90565b906121ec6121e76121f3926121c8565b6121d4565b8254611c79565b9055565b61224a612245612250926122356122156122105f6120d5565b6120e2565b61222f6122296122245f61210a565b6105dd565b916105dd565b1461216f565b61224032600c611c94565b6121a4565b6121bc565b5f6121d7565b612258613c39565b565b6122626114ee565b5061226d600c61039c565b90565b6122786117db565b5061228360116101f1565b90565b906122b4602061229e61229960026110f9565b611106565b636a276f9d906122ac610187565b938492611112565b825281806122c4600482016107b4565b03915afa80156123e6576122df915f916123b8575b5061191f565b6122f16122ec6001611967565b611974565b6123036122fd336105dd565b916105dd565b1491821561231f575b61231861231d936119d9565b612407565b565b6123629250602061233861233360026110f9565b611106565b637df73e2790612357339261234b610187565b97889485938493611112565b835260048301610acd565b03915afa9283156123b35761231d93612318915f91612385575b5093505061230c565b6123a6915060203d81116123ac575b61239e818361032d565b810190611127565b5f61237c565b503d612394565b611145565b6123d9915060203d81116123df575b6123d1818361032d565b810190611127565b5f6122d9565b503d6123c7565b611145565b6123f490610199565b5f1981146124025760010190565b6113f1565b905f146126d55761244f602061242561242060026110f9565b611106565b631d84be44906124443392612438610187565b95869485938493611112565b835260048301610acd565b03915afa9081156126d0575f916126a2575b5061246e5f600d01610816565b80612687575b80612662575b61264f575b61248b5f600d01610816565b80612634575b8061260f575b6125fc575b6124a85f600d01610816565b90816125e0575b50806125bb575b6125a8575b6124c45f6113a7565b6124d05f600d0161083d565b61259a575b6124e15f600d01610864565b61258c575b6124f25f600d0161088b565b61257e575b6125035f600d01610816565b9081612562575b508061253d575b61251a575b505b565b61252590600c611c94565b612537612530611c07565b600d611e37565b5f612516565b5061254a5f600d0161039c565b61255c612556836105dd565b916105dd565b14612511565b90506125776125716002611c23565b91610199565b145f61250a565b612587906123eb565b6124f7565b612595906123eb565b6124e6565b6125a3906123eb565b6124d5565b6125b660015f600d01611d9d565b6124bb565b506125c85f600d0161039c565b6125da6125d4836105dd565b916105dd565b146124b6565b90506125f56125ef6003611c42565b91610199565b145f6124af565b61260a60015f600d01611d5e565b61249c565b5061261c5f600d0161039c565b61262e612628846105dd565b916105dd565b14612497565b50806126496126436002611c23565b91610199565b14612491565b61265d60015f600d01611d1f565b61247f565b5061266f5f600d0161039c565b61268161267b846105dd565b916105dd565b1461247a565b508061269c61269660016113d5565b91610199565b14612474565b6126c3915060203d81116126c9575b6126bb818361032d565b810190611b75565b5f612461565b503d6126b1565b611145565b506126e86126e1611c07565b600d611e37565b612518565b906126f791612286565b565b5f7f6f776e2e6e6f6e617574682e44414f0000000000000000000000000000000000910152565b61272d600f602092610575565b612736816126f9565b0190565b61274f9060208101905f818303910152612720565b90565b1561275957565b612761610187565b62461bcd60e51b8152806127776004820161273a565b0390fd5b6127a990602061279361278e60026110f9565b611106565b636a276f9d906127a1610187565b948592611112565b825281806127b9600482016107b4565b03915afa91821561283b5761280b926127d9915f9161280d575b5061191f565b6128066127ee6127e96001611967565b611974565b6128006127fa336105dd565b916105dd565b14612752565b61284c565b565b61282e915060203d8111612834575b612826818361032d565b810190611127565b5f6127d3565b503d61281c565b611145565b61284990610b9c565b90565b5f8080809361286a6128656128608461210a565b6121a4565b612840565b82821561287f575bf11561287a57565b611145565b506108fc612872565b6128919061277b565b565b61289b6117db565b506128a6600e610a42565b90565b606090565b90565b6128ba90610356565b90565b61291c612922916128cc6128a9565b506128d56114ee565b506128de6117db565b506128e76117db565b506128f06117db565b506128f96117db565b50612902611801565b5061290b6117db565b50612914611801565b5060116101fe565b506128ae565b905f8201906129336001840161039c565b92612940600282016103c0565b9261294d600483016103c0565b9261295a600584016103c0565b92612967600682016103c0565b92612974600783016104b4565b926129966129906009612989600887016103c0565b95016104b4565b926128b1565b989796959493929190565b5f7f66616b652064656c656761746500000000000000000000000000000000000000910152565b6129d5600d602092610575565b6129de816129a1565b0190565b6129f79060208101905f8183039101526129c8565b90565b15612a0157565b612a09610187565b62461bcd60e51b815280612a1f600482016129e2565b0390fd5b90612a516020612a3b612a3660026110f9565b611106565b636a276f9d90612a49610187565b938492611112565b82528180612a61600482016107b4565b03915afa8015612b7257612a7c915f91612b44575b506111ae565b612a90612a8b600f3390610bb4565b6104b4565b918215612aab575b612aa4612aa9936129fa565b612cd5565b565b612aee92506020612ac4612abf60026110f9565b611106565b637df73e2790612ae33392612ad7610187565b97889485938493611112565b835260048301610acd565b03915afa928315612b3f57612aa993612aa4915f91612b11575b50935050612a98565b612b32915060203d8111612b38575b612b2a818361032d565b810190611127565b5f612b08565b503d612b20565b611145565b612b65915060203d8111612b6b575b612b5d818361032d565b810190611127565b5f612a76565b503d612b53565b611145565b5f7f566f74696e6720656e6465640000000000000000000000000000000000000000910152565b612bab600c602092610575565b612bb481612b77565b0190565b612bcd9060208101905f818303910152612b9e565b90565b15612bd757565b612bdf610187565b62461bcd60e51b815280612bf560048201612bb8565b0390fd5b5f7f416c726561647920766f74656400000000000000000000000000000000000000910152565b612c2d600d602092610575565b612c3681612bf9565b0190565b612c4f9060208101905f818303910152612c20565b90565b15612c5957565b612c61610187565b62461bcd60e51b815280612c7760048201612c3a565b0390fd5b60ff1690565b612c95612c90612c9a926113a4565b610b7d565b612c7b565b90565b612cb1612cac612cb6926113d2565b610b7d565b612c7b565b90565b612ccd612cc8612cd292612c7b565b610b7d565b610199565b90565b90612d85612cf0612cea612dd29460116101fe565b506128ae565b91612d1f612cfc6142af565b612d19612d13612d0e600688016103c0565b610199565b91610199565b10612bd0565b612d46612d41612d3b612d36600a87013390610bb4565b6104b4565b15610641565b612c52565b805f14612de857612d7f612d63612d5d6001612c9d565b5b612cb9565b612d796004860191612d74836103c0565b61142a565b9061207e565b15610641565b5f14612dd457612dbd612da1612d9b6001612c9d565b5b612cb9565b612db76005840191612db2836103c0565b61142a565b9061207e565b612dcd600a600192013390610bb4565b61155f565b565b612dbd612da1612de35f612c81565b612d9c565b612d7f612d63612df75f612c81565b612d5e565b90612e0691612a23565b565b612e1190614514565b565b5f7f6f776e2e696e76616c69642e73696e6765720000000000000000000000000000910152565b612e476012602092610575565b612e5081612e13565b0190565b612e699060208101905f818303910152612e3a565b90565b15612e7357565b612e7b610187565b62461bcd60e51b815280612e9160048201612e54565b0390fd5b90612edd9695949392916020612eb3612eae60026110f9565b611106565b637df73e2790612ed23392612ec6610187565b9c8d9485938493611112565b835260048301610acd565b03915afa978815612f3257612f0298612efd915f91612f04575b50612e6c565b612fb9565b565b612f25915060203d8111612f2b575b612f1d818361032d565b810190611127565b5f612ef7565b503d612f13565b611145565b5f7f6f776e2e64656661756c742e73656e6465720000000000000000000000000000910152565b612f6b6012602092610575565b612f7481612f37565b0190565b612f8d9060208101905f818303910152612f5e565b90565b15612f9757565b612f9f610187565b62461bcd60e51b815280612fb560048201612f78565b0390fd5b90612fed969594939291612fe883612fe1612fdb612fd65f61210a565b6105dd565b916105dd565b1415612f90565b613372565b565b90565b5490565b5f5260205f2090565b61300881612ff2565b8210156130225761301a600c91612ff6565b910201905f90565b6101dd565b61303081612ff2565b680100000000000000008110156130545761305091600182018155612fff565b9091565b610319565b5090565b601f602091010490565b9190600861308291029161307c5f198461144f565b9261144f565b9181191691161790565b91906130a261309d6130aa9361205f565b61207b565b908354613067565b9055565b6130c0916130ba6117db565b9161308c565b565b5b8181106130ce575050565b806130db5f6001936130ae565b016130c3565b9190601f81116130f1575b505050565b6130fd6131229361026d565b9060206131098461305d565b8301931061312a575b61311b9061305d565b01906130c2565b5f80806130ec565b915061311b81929050613112565b90613148905f1990600802610a77565b191690565b8161315791613138565b906002021790565b9161316a9082613059565b9067ffffffffffffffff82116132295761318e82613188855461023a565b856130e1565b5f90601f83116001146131c1579180916131b0935f926131b5575b505061314d565b90555b565b90915001355f806131a9565b601f198316916131d08561026d565b925f5b818110613211575091600293918560019694106131f7575b505050020190556131b3565b613207910135601f841690613138565b90555f80806131eb565b919360206001819287870135815501950192016131d3565b610319565b90613239929161315f565b565b5090565b9190601f811161324f575b505050565b61325b613280936103d6565b9060206132678461305d565b83019310613288575b6132799061305d565b01906130c2565b5f808061324a565b915061327981929050613270565b916132a1908261323b565b9067ffffffffffffffff8211613360576132c5826132bf855461023a565b8561323f565b5f90601f83116001146132f8579180916132e7935f926132ec575b505061314d565b90555b565b90915001355f806132e0565b601f19831691613307856103d6565b925f5b8181106133485750916002939185600196941061332e575b505050020190556132ea565b61333e910135601f841690613138565b90555f8080613322565b9193602060018192878701358155019501920161330a565b610319565b906133709291613296565b565b946006946133c66133f2956133bd6133f99a966133b45f9b6133cf986133a96133a361339e6011612fef565b613027565b506128ae565b9d8e9291920161322e565b60018b01611c94565b6002890161207e565b60038701613365565b6133e56133dc60106103c0565b6008860161207e565b6133ed6142af565b61142a565b910161207e565b565b9061340a969594939291612e95565b565b9061343b916134368161342f6134296134245f61210a565b6105dd565b916105dd565b1415612f90565b61343d565b565b9061346c91602061345661345160026110f9565b611106565b636a276f9d90613464610187565b958692611112565b8252818061347c600482016107b4565b03915afa9283156134fe576134ce9361349c915f916134d0575b5061191f565b6134c96134b16134ac6001611967565b611974565b6134c36134bd336105dd565b916105dd565b14612752565b613585565b565b6134f1915060203d81116134f7575b6134e9818361032d565b810190611127565b5f613496565b503d6134df565b611145565b5f7f6f776e2e696e76616c69642e616d6f756e740000000000000000000000000000910152565b6135376012602092610575565b61354081613503565b0190565b6135599060208101905f81830391015261352a565b90565b1561356357565b61356b610187565b62461bcd60e51b81528061358160048201613544565b0390fd5b5f8080936135b76135b283956135ad846135a76135a1886113a7565b91610199565b1161355c565b6121a4565b612840565b8282156135cc575bf1156135c757565b611145565b506108fc6135bf565b906135df9161340c565b565b6136239060206135f96135f460026110f9565b611106565b637df73e2790613618339261360c610187565b96879485938493611112565b835260048301610acd565b03915afa9182156136785761364892613643915f9161364a575b50612e6c565b61398c565b565b61366b915060203d8111613671575b613663818361032d565b810190611127565b5f61363d565b503d613659565b611145565b5f7f5374696c6c206163746976650000000000000000000000000000000000000000910152565b6136b1600c602092610575565b6136ba8161367d565b0190565b6136d39060208101905f8183039101526136a4565b90565b156136dd57565b6136e5610187565b62461bcd60e51b8152806136fb600482016136be565b0390fd5b5f7f416c726561647920657865637574656400000000000000000000000000000000910152565b6137336010602092610575565b61373c816136ff565b0190565b6137559060208101905f818303910152613726565b90565b1561375f57565b613767610187565b62461bcd60e51b81528061377d60048201613740565b0390fd5b61379061379691939293610199565b92610199565b916137a2838202610199565b9281840414901517156137b157565b6113f1565b90565b6137cd6137c86137d2926137b6565b610b7d565b610199565b90565b634e487b7160e01b5f52601260045260245ffd5b6137f56137fb91610199565b91610199565b908115613806570490565b6137d5565b905090565b905f929180549061382a6138238361023a565b809461380b565b916001811690815f1461387c5750600114613845575b505050565b61385291929394506103d6565b5f905b83821061386857505001905f8080613840565b600181602092548486015201910190613855565b92949550505060ff191682528015150201905f8080613840565b61389f91613810565b90565b67ffffffffffffffff81116138c0576138bc60209161030f565b0190565b610319565b906138d76138d2836138a2565b611b93565b918252565b606090565b3d5f146138fc576138f13d6138c5565b903d5f602084013e5b565b6139046138dc565b906138fa565b5f7f457865637574696f6e206661696c656400000000000000000000000000000000910152565b61393e6010602092610575565b6139478161390a565b0190565b6139609060208101905f818303910152613931565b90565b1561396a57565b613972610187565b62461bcd60e51b8152806139886004820161394b565b0390fd5b5f806139a561399f613a9c9460116101fe565b506128ae565b6139d36139b06142af565b6139cd6139c76139c2600686016103c0565b610199565b91610199565b116136d6565b6139f06139eb6139e5600784016104b4565b15610641565b613758565b613a4b6139ff600483016103c0565b613a40613a3a613a35613a25613a17600888016103c0565b613a1f612893565b90613781565b613a2f60646137b9565b906137e9565b610199565b91610199565b10156009830161155f565b613a5960016007830161155f565b613a8a613a686001830161039c565b916003613a77600283016103c0565b9101613a81610187565b92839182613896565b03925af1613a966138e1565b50613963565b565b613aa7906135e1565b565b90505190613ab682610741565b565b90602082820312613ad157613ace915f01613aa9565b90565b610191565b613adf90610b80565b90565b613aeb90613ad6565b90565b613af790613ad6565b90565b90565b90613b12613b0d613b1992613aee565b613afa565b8254611c79565b9055565b613b2690610b80565b90565b613b3290613b1d565b90565b613b3e90613b1d565b90565b90565b90613b59613b54613b6092613b35565b613b41565b8254611c79565b9055565b613b6d90610b80565b90565b613b7990613b64565b90565b613b8590613b64565b90565b90565b90613ba0613b9b613ba792613b7c565b613b88565b8254611c79565b9055565b613bb490610b80565b90565b613bc090613bab565b90565b613bcc90613bab565b90565b90565b90613be7613be2613bee92613bc3565b613bcf565b8254611c79565b9055565b613bfb90610b80565b90565b613c0790613bf2565b90565b613c1390613bf2565b90565b90565b90613c2e613c29613c3592613c0a565b613c16565b8254611c79565b9055565b613c4a613c455f6120d5565b6120e2565b613c64613c5e613c595f61210a565b6105dd565b916105dd565b146142a157613c956020613c7f613c7a5f6120d5565b6120e2565b634162169f90613c8d610187565b938492611112565b82528180613ca5600482016107b4565b03915afa90811561429c57613ccc91613cc5915f9161426e575b50613ae2565b6001613afd565b613cf86020613ce2613cdd5f6120d5565b6120e2565b63b57dbdc690613cf0610187565b938492611112565b82528180613d08600482016107b4565b03915afa90811561426957613d2f91613d28915f9161423b575b50613b29565b6002613b44565b613d5b6020613d45613d405f6120d5565b6120e2565b63cfbffe5390613d53610187565b938492611112565b82528180613d6b600482016107b4565b03915afa90811561423657613d9291613d8b915f91614208575b50613b70565b6003613b8b565b613dbe6020613da8613da35f6120d5565b6120e2565b63ab6e844f90613db6610187565b938492611112565b82528180613dce600482016107b4565b03915afa90811561420357613df591613dee915f916141d5575b50613bb7565b6004613bd2565b613e216020613e0b613e065f6120d5565b6120e2565b639a7c407790613e19610187565b938492611112565b82528180613e31600482016107b4565b03915afa9081156141d057613e5891613e51915f916141a2575b50613bfe565b6005613c19565b613e846020613e6e613e695f6120d5565b6120e2565b63aa0ddc1690613e7c610187565b938492611112565b82528180613e94600482016107b4565b03915afa801561419d57613eb1915f9161416f575b506007611c94565b613edd6020613ec7613ec25f6120d5565b6120e2565b636b4aefc690613ed5610187565b938492611112565b82528180613eed600482016107b4565b03915afa801561416a57613f0a915f9161413c575b506008611c94565b613f366020613f20613f1b5f6120d5565b6120e2565b6324768d9190613f2e610187565b938492611112565b82528180613f46600482016107b4565b03915afa801561413757613f63915f91614109575b50600b611c94565b613f8f6020613f79613f745f6120d5565b6120e2565b636402742790613f87610187565b938492611112565b82528180613f9f600482016107b4565b03915afa801561410457613fbc915f916140d6575b506009611c94565b613fe86020613fd2613fcd5f6120d5565b6120e2565b6330125cf590613fe0610187565b938492611112565b82528180613ff8600482016107b4565b03915afa80156140d157614015915f916140a3575b50600a611c94565b614041602061402b6140265f6120d5565b6120e2565b63d3d1b09690614039610187565b938492611112565b82528180614051600482016107b4565b03915afa801561409e5761406e915f91614070575b506006611c94565b565b614091915060203d8111614097575b614089818361032d565b810190613ab8565b5f614066565b503d61407f565b611145565b6140c4915060203d81116140ca575b6140bc818361032d565b810190613ab8565b5f61400d565b503d6140b2565b611145565b6140f7915060203d81116140fd575b6140ef818361032d565b810190613ab8565b5f613fb4565b503d6140e5565b611145565b61412a915060203d8111614130575b614122818361032d565b810190613ab8565b5f613f5b565b503d614118565b611145565b61415d915060203d8111614163575b614155818361032d565b810190613ab8565b5f613f02565b503d61414b565b611145565b614190915060203d8111614196575b614188818361032d565b810190613ab8565b5f613ea9565b503d61417e565b611145565b6141c3915060203d81116141c9575b6141bb818361032d565b810190613ab8565b5f613e4b565b503d6141b1565b611145565b6141f6915060203d81116141fc575b6141ee818361032d565b810190613ab8565b5f613de8565b503d6141e4565b611145565b614229915060203d811161422f575b614221818361032d565b810190613ab8565b5f613d85565b503d614217565b611145565b61425c915060203d8111614262575b614254818361032d565b810190613ab8565b5f613d22565b503d61424a565b611145565b61428f915060203d8111614295575b614287818361032d565b810190613ab8565b5f613cbf565b503d61427d565b611145565b565b6142ac90610b9c565b90565b6142b76117db565b506142e460206142ce6142c95f6120d5565b6120e2565b63447aa304906142dc610187565b938492611112565b825281806142f4600482016107b4565b03915afa9081156143ba5761431e614319614334936020935f9161438d575b50613bb7565b6142a3565b63262a9dff9061432c610187565b938492611112565b82528180614344600482016107b4565b03915afa908115614388575f9161435a575b5090565b61437b915060203d8111614381575b614373818361032d565b810190611b75565b5f614356565b503d614369565b611145565b6143ad9150843d81116143b3575b6143a5818361032d565b810190613ab8565b5f614313565b503d61439b565b611145565b506143ed60206143d76143d260026110f9565b611106565b636a276f9d906143e5610187565b938492611112565b825281806143fd600482016107b4565b03915afa801561450f57614418915f916144e1575b5061191f565b614459602061442f61442a60026110f9565b611106565b6319c064299061444e3392614442610187565b95869485938493611112565b835260048301610acd565b03915afa9081156144dc575f916144ae575b50801561447e575b61447c90612752565b565b5061447c61449461448f6001611967565b611974565b6144a66144a0336105dd565b916105dd565b149050614473565b6144cf915060203d81116144d5575b6144c7818361032d565b810190611127565b5f61446b565b503d6144bd565b611145565b614502915060203d8111614508575b6144fa818361032d565b810190611127565b5f614412565b503d6144f0565b611145565b61451d906143bf565b56fea2646970667358221220e9748ea59c332a049cba75b78cd67b630870bda0b2204342ccffeb6a093e1ea964736f6c634300081800336080604052346200002d576200001462000466565b6200001e62000033565b6133ea62000e1f82396133ea90f35b62000039565b60405190565b5f80fd5b90565b90565b90565b6200005f6200005962000065926200003d565b62000043565b62000040565b90565b601f801991011690565b634e487b7160e01b5f52604160045260245ffd5b90620000929062000068565b810190811060018060401b03821117620000ab57604052565b62000072565b90620000c8620000c062000033565b928362000086565b565b60018060401b038111620000e15760208091020190565b62000072565b90620000fd620000f783620000ca565b620000b1565b918252565b369037565b90620001326200011783620000e7565b92602080620001278693620000ca565b920191039062000102565b565b634e487b7160e01b5f52603260045260245ffd5b5190565b90620001588262000148565b8110156200016a576020809102010190565b62000134565b90565b6200018c62000186620001929262000170565b62000043565b62000040565b90565b60018060a01b031690565b620001ab9062000195565b90565b90620001ba90620001a0565b9052565b90565b620001da620001d4620001e092620001be565b62000043565b62000040565b90565b90565b620001ff620001f96200020592620001e3565b62000043565b62000040565b90565b90565b620002246200021e6200022a9262000208565b62000043565b62000040565b90565b90565b62000249620002436200024f926200022d565b62000043565b62000040565b90565b90565b6200026e62000268620002749262000252565b62000043565b62000040565b90565b90565b620002936200028d620002999262000277565b62000043565b62000040565b90565b90565b620002b8620002b2620002be926200029c565b62000043565b62000040565b90565b90565b620002dd620002d7620002e392620002c1565b62000043565b62000040565b90565b90565b62000302620002fc6200030892620002e6565b62000043565b62000040565b90565b60018060401b038111620003225760208091020190565b62000072565b906200033e62000338836200030b565b620000b1565b918252565b369037565b9062000373620003588362000328565b926020806200036886936200030b565b920191039062000343565b565b90565b620003916200038b620003979262000375565b62000043565b62000040565b90565b5190565b90620003aa826200039a565b811015620003bc576020809102010190565b62000134565b90620003ce9062000040565b9052565b90565b620003ee620003e8620003f492620003d2565b62000043565b62000040565b90565b90565b620004136200040d6200041992620003f7565b62000043565b62000040565b90565b90565b62000438620004326200043e926200041c565b62000043565b62000040565b90565b90565b6200045d62000457620004639262000441565b62000043565b62000040565b90565b620008ec620004806200047a600a62000046565b62000107565b620004b67355464e2df31e770145c6085a5e3874b3bcc5535b620004b083620004a95f62000173565b906200014c565b620001ae565b620004ed73761d464d59fc4e5472b2ccfbf077cde7f683121d620004e783620004e06001620001c1565b906200014c565b620001ae565b62000524737ab9df72fe514f374aa2e1153c0d04621794ab8f6200051e83620005176002620001e6565b906200014c565b620001ae565b6200055b732f1614f6190bd3bd5731a8b6b37dae79aad84c1562000555836200054e60036200020b565b906200014c565b620001ae565b620005917289188449f0d4119715c9a10ea8955fb26ee3086200058b8362000584600462000230565b906200014c565b620001ae565b620005c873dda88b1c86762f7b698f2b458f0ee4c6e92329ec620005c283620005bb600562000255565b906200014c565b620001ae565b620005ff73610fdc323bf441e94d389ac0b33fd3eff3ea3bad620005f983620005f260066200027a565b906200014c565b620001ae565b6200063673487697d60dcd5a6fb5253f996b0df18b84e9289562000630836200062960076200029f565b906200014c565b620001ae565b6200066d738cfd47ffa78aea46d8c4bf76cefa64dd1b71993c6200066783620006606008620002c4565b906200014c565b620001ae565b620006a47301dcc9c653ea9518216a4b19051db036a263c8ed6200069e83620006976009620002e9565b906200014c565b620001ae565b620006ba620006b4600a62000046565b62000348565b90620006ef620006d267a688906bd8b0000062000378565b620006e984620006e25f62000173565b906200039e565b620003c2565b6200072462000706677ce66c50e2840000620003d5565b6200071e84620007176001620001c1565b906200039e565b620003c2565b620007596200073b671bc16d674ec80000620003fa565b62000753846200074c6002620001e6565b906200039e565b620003c2565b6200078e6200077067d02ab486cedc00006200041f565b62000788846200078160036200020b565b906200039e565b620003c2565b620007c3620007a567d02ab486cedc00006200041f565b620007bd84620007b6600462000230565b906200039e565b620003c2565b620007f8620007da671bc16d674ec80000620003fa565b620007f284620007eb600562000255565b906200039e565b620003c2565b6200082d6200080f67a688906bd8b0000062000378565b62000827846200082060066200027a565b906200039e565b620003c2565b620008626200084467a688906bd8b0000062000378565b6200085c846200085560076200029f565b906200039e565b620003c2565b620008976200087967a688906bd8b0000062000378565b62000891846200088a6008620002c4565b906200039e565b620003c2565b620008cc620008ae6753444835ec58000062000444565b620008c684620008bf6009620002e9565b906200039e565b620003c2565b620008e2620008dc600a62000046565b62000348565b9091909162000c7e565b565b6001620008fc910162000040565b90565b6200090b9051620001a0565b90565b151590565b60209181520190565b5f7f70726d646174612e616c72656164792e65786973740000000000000000000000910152565b62000952601560209262000913565b6200095d816200091c565b0190565b620009789060208101905f81830391015262000943565b90565b156200098357565b6200098d62000033565b62461bcd60e51b815280620009a56004820162000961565b0390fd5b620009b56060620000b1565b90565b5f90565b5f90565b620009ca620009a9565b906020808084620009da620009b8565b815201620009e7620009bc565b815201620009f4620009bc565b81525050565b62000a04620009c0565b90565b9062000a13906200090e565b9052565b62000a23905162000040565b90565b62000a3f62000a3962000a459262000195565b62000043565b62000195565b90565b62000a539062000a26565b90565b62000a619062000a48565b90565b9062000a709062000a56565b5f5260205260405f2090565b62000a8890516200090e565b90565b5f1b90565b9062000a9e60ff9162000a8b565b9181191691161790565b62000ab3906200090e565b90565b90565b9062000ad362000acd62000adb9262000aa8565b62000ab6565b825462000a90565b9055565b9062000aed5f199162000a8b565b9181191691161790565b62000b1062000b0a62000b169262000040565b62000043565b62000040565b90565b90565b9062000b3662000b3062000b3e9262000af7565b62000b19565b825462000adf565b9055565b9062000b916040600262000b989462000b6b5f820162000b645f880162000a7c565b9062000ab9565b62000b886001820162000b816020880162000a17565b9062000b1c565b01920162000a17565b9062000b1c565b565b9062000ba69162000b42565b565b90565b5f5260205f2090565b5490565b62000bc38162000bb4565b82101562000be05762000bd860019162000bab565b910201905f90565b62000134565b1b90565b9190600862000c0e91029162000c0760018060a01b038462000be6565b9262000be6565b9181191691161790565b90565b919062000c3662000c3062000c3f9362000a56565b62000c18565b90835462000bea565b9055565b908154916801000000000000000083101562000c78578262000c6f91600162000c769501815562000bb8565b9062000c1b565b565b62000072565b929162000c8b5f62000173565b5b8062000cad62000ca662000ca08862000148565b62000040565b9162000040565b101562000dba5762000db49062000cef62000ce962000ce262000cdc62000cd68a86906200014c565b620008ff565b62000df7565b156200090e565b6200097b565b62000d8062000cfd620009fa565b62000d0c60015f830162000a07565b62000d3162000d2762000d218886906200039e565b62000a17565b60208301620003c2565b62000d5662000d4c62000d468786906200039e565b62000a17565b60408301620003c2565b62000d7a600f62000d7362000d6d8b87906200014c565b620008ff565b9062000a64565b62000b9a565b62000dae62000d90600e62000ba8565b62000da762000da18985906200014c565b620008ff565b9062000c43565b620008ee565b62000c8c565b5050509050565b5f90565b5f1c90565b60ff1690565b62000ddf62000de59162000dc5565b62000dca565b90565b62000df4905462000dd0565b90565b5f62000e1462000e1b9262000e0b62000dc1565b50600f62000a64565b0162000de8565b9056fe60806040526004361015610018575b361561001657005b005b6100225f35610120565b806213eb4b1461011b5780630d43aaf21461011657806312065fe0146101115780631c53c2801461010c5780632172b2d214610107578063379a423c1461010257806341ffe7c4146100fd57806360af454d146100f857806361ea7208146100f35780638d2c50c3146100ee5780638da5cb5b146100e9578063abb8c965146100e4578063b7fec78c146100df578063b90306ad146100da578063f31865cd146100d55763f3fef3a30361000e57610c5a565b610bf9565b610b4f565b610b18565b61090f565b61088a565b610857565b6106f2565b6106bf565b61068c565b610652565b61061a565b6104ef565b6103c5565b610367565b6101b7565b60e01c90565b60405190565b5f80fd5b5f80fd5b5f80fd5b60018060a01b031690565b61014c90610138565b90565b61015881610143565b0361015f57565b5f80fd5b905035906101708261014f565b565b9060208282031261018b57610188915f01610163565b90565b610130565b151590565b61019e90610190565b9052565b91906101b5905f60208501940190610195565b565b346101e7576101e36101d26101cd366004610172565b610c88565b6101da610126565b918291826101a2565b0390f35b61012c565b5f9103126101f657565b610130565b5f1c90565b60018060a01b031690565b61021761021c916101fb565b610200565b90565b610229905461020b565b90565b60a01c90565b60ff1690565b6102446102499161022c565b610232565b90565b6102569054610238565b90565b60a81c90565b61026b61027091610259565b610232565b90565b61027d905461025f565b90565b60b01c90565b61029261029791610280565b610232565b90565b6102a49054610286565b90565b60b81c90565b6102b96102be916102a7565b610232565b90565b6102cb90546102ad565b90565b600d6102db5f820161021f565b916102e75f830161024c565b916102f35f8201610273565b9161030a5f61030381850161029a565b93016102c1565b90565b61031690610143565b9052565b909594926103659461035461035e9261034a60809661034060a088019c5f89019061030d565b6020870190610195565b6040850190610195565b6060830190610195565b0190610195565b565b3461039b576103773660046101ec565b6103976103826102ce565b9161038e959395610126565b9586958661031a565b0390f35b61012c565b90565b6103ac906103a0565b9052565b91906103c3905f602085019401906103a3565b565b346103f5576103d53660046101ec565b6103f16103e0610cb9565b6103e8610126565b918291826103b0565b0390f35b61012c565b610403816103a0565b0361040a57565b5f80fd5b9050359061041b826103fa565b565b9060208282031261043657610433915f0161040e565b90565b610130565b634e487b7160e01b5f52603260045260245ffd5b5490565b5f5260205f2090565b6104658161044f565b82101561047f57610477600191610453565b910201905f90565b61043b565b1c90565b61049890600861049d9302610484565b610200565b90565b906104ab9154610488565b90565b600e6104b98161044f565b8210156104d6576104d3916104cd9161045c565b906104a0565b90565b5f80fd5b91906104ed905f6020850194019061030d565b565b3461051f5761051b61050a61050536600461041d565b6104ae565b610512610126565b918291826104da565b0390f35b61012c565b90565b61053b61053661054092610138565b610524565b610138565b90565b61054c90610527565b90565b61055890610543565b90565b906105659061054f565b5f5260205260405f2090565b61057d610582916101fb565b610232565b90565b61058f9054610571565b90565b90565b6105a16105a6916101fb565b610592565b90565b6105b39054610595565b90565b6105c190600f61055b565b6105cc5f8201610585565b916105e560026105de600185016105a9565b93016105a9565b90565b604090610611610618949695939661060760608401985f850190610195565b60208301906103a3565b01906103a3565b565b3461064d57610649610635610630366004610172565b6105b6565b610640939193610126565b938493846105e8565b0390f35b61012c565b346106825761067e61066d610668366004610172565b610d4a565b610675610126565b918291826101a2565b0390f35b61012c565b5f0190565b346106ba576106a461069f366004610172565b611504565b6106ac610126565b806106b681610687565b0390f35b61012c565b346106ed576106d76106d2366004610172565b611653565b6106df610126565b806106e981610687565b0390f35b61012c565b34610722576107023660046101ec565b61071e61070d6116b6565b610715610126565b918291826103b0565b0390f35b61012c565b5f80fd5b601f801991011690565b634e487b7160e01b5f52604160045260245ffd5b906107539061072b565b810190811067ffffffffffffffff82111761076d57604052565b610735565b9061078561077e610126565b9283610749565b565b67ffffffffffffffff811161079f5760208091020190565b610735565b5f80fd5b909291926107bd6107b882610787565b610772565b93818552602080860192028301928184116107fa57915b8383106107e15750505050565b602080916107ef8486610163565b8152019201916107d4565b6107a4565b9080601f8301121561081d5781602061081a933591016107a8565b90565b610727565b90602082820312610852575f82013567ffffffffffffffff811161084d5761084a92016107ff565b90565b610134565b610130565b346108855761086f61086a366004610822565b611b21565b610877610126565b8061088181610687565b0390f35b61012c565b346108ba5761089a3660046101ec565b6108b66108a5611b30565b6108ad610126565b918291826104da565b0390f35b61012c565b6108c881610190565b036108cf57565b5f80fd5b905035906108e0826108bf565b565b919060408382031261090a57806108fe610907925f8601610163565b936020016108d3565b90565b610130565b3461093e576109286109223660046108e2565b90611fc1565b610930610126565b8061093a81610687565b0390f35b61012c565b67ffffffffffffffff811161095b5760208091020190565b610735565b9092919261097561097082610943565b610772565b93818552602080860192028301928184116109b257915b8383106109995750505050565b602080916109a7848661040e565b81520192019161098c565b6107a4565b9080601f830112156109d5578160206109d293359101610960565b90565b610727565b67ffffffffffffffff81116109f25760208091020190565b610735565b90929192610a0c610a07826109da565b610772565b9381855260208086019202830192818411610a4957915b838310610a305750505050565b60208091610a3e84866108d3565b815201920191610a23565b6107a4565b9080601f83011215610a6c57816020610a69933591016109f7565b90565b610727565b90608082820312610b13575f82013567ffffffffffffffff8111610b0e5781610a9b9184016107ff565b92602083013567ffffffffffffffff8111610b095782610abc9185016109b7565b92604081013567ffffffffffffffff8111610b045783610add9183016109b7565b92606082013567ffffffffffffffff8111610aff57610afc9201610a4e565b90565b610134565b610134565b610134565b610134565b610130565b34610b4a57610b34610b2b366004610a71565b9291909161235a565b610b3c610126565b80610b4681610687565b0390f35b61012c565b610b62610b5d36600461041d565b6124f7565b610b6a610126565b80610b7481610687565b0390f35b91606083830312610bf4575f83013567ffffffffffffffff8111610bef5782610ba29185016107ff565b92602081013567ffffffffffffffff8111610bea5783610bc39183016109b7565b92604082013567ffffffffffffffff8111610be557610be292016109b7565b90565b610134565b610134565b610134565b610130565b34610c2857610c12610c0c366004610b78565b91612956565b610c1a610126565b80610c2481610687565b0390f35b61012c565b9190604083820312610c555780610c49610c52925f8601610163565b9360200161040e565b90565b610130565b610c6e610c68366004610c2d565b90612bae565b610c76610126565b80610c8081610687565b0390f35b5f90565b5f610ca0610ca692610c98610c84565b50600f61055b565b01610585565b90565b5f90565b610cb690610543565b90565b610cc1610ca9565b50610ccb30610cad565b3190565b60018060a01b031690565b610ce6610ceb916101fb565b610ccf565b90565b610cf89054610cda565b90565b610d0490610543565b90565b60e01b90565b90505190610d1a826108bf565b565b90602082820312610d3557610d32915f01610d0d565b90565b610130565b610d42610126565b3d5f823e3d90fd5b610d52610c84565b50610d946020610d6a610d656002610cee565b610cfb565b6319c0642990610d898592610d7d610126565b95869485938493610d07565b8352600483016104da565b03915afa908115610e06575f91610dd8575b50908115610db3575b5090565b9050610dd1610dcb610dc5600c61021f565b92610143565b91610143565b145f610daf565b610df9915060203d8111610dff575b610df18183610749565b810190610d1c565b5f610da6565b503d610de7565b610d3a565b60209181520190565b5f7f6f776e2e696e76616c69642e6973536166650000000000000000000000000000910152565b610e486012602092610e0b565b610e5181610e14565b0190565b610e6a9060208101905f818303910152610e3b565b90565b15610e7457565b610e7c610126565b62461bcd60e51b815280610e9260048201610e55565b0390fd5b60018060a01b031690565b610ead610eb2916101fb565b610e96565b90565b610ebf9054610ea1565b90565b610ecb90610543565b90565b5f7f6f776d2e66616b652e2064656c65676174650000000000000000000000000000910152565b610f026012602092610e0b565b610f0b81610ece565b0190565b610f249060208101905f818303910152610ef5565b90565b15610f2e57565b610f36610126565b62461bcd60e51b815280610f4c60048201610f0f565b0390fd5b610f7d6020610f67610f626002610cee565b610cfb565b636a276f9d90610f75610126565b938492610d07565b82528180610f8d60048201610687565b03915afa80156110af57610fa8915f91611081575b50610e6d565b610fba610fb56001610eb5565b610ec2565b610fcc610fc633610143565b91610143565b14908115610fe8575b610fe1610fe692610f27565b6113c5565b565b61102b91506020611001610ffc6002610cee565b610cfb565b637df73e27906110203392611014610126565b96879485938493610d07565b8352600483016104da565b03915afa91821561107c57610fe692610fe1915f9161104e575b50925050610fd5565b61106f915060203d8111611075575b6110678183610749565b810190610d1c565b5f611045565b503d61105d565b610d3a565b6110a2915060203d81116110a8575b61109a8183610749565b810190610d1c565b5f610fa2565b503d611090565b610d3a565b905051906110c1826103fa565b565b906020828203126110dc576110d9915f016110b4565b90565b610130565b6110eb60a0610772565b90565b5f90565b5f90565b6110fe6110e1565b906020808080808661110e6110ee565b8152016111196110f2565b8152016111246110f2565b81520161112f6110f2565b81520161113a6110f2565b81525050565b6111486110f6565b90565b9061115590610190565b9052565b90565b61117061116b61117592611159565b610524565b6103a0565b90565b90565b61118f61118a61119492611178565b610524565b6103a0565b90565b90565b6111ae6111a96111b392611197565b610524565b6103a0565b90565b906111c090610143565b9052565b634e487b7160e01b5f525f60045260245ffd5b6111e19051610143565b90565b5f1b90565b906111fa60018060a01b03916111e4565b9181191691161790565b90565b9061121c6112176112239261054f565b611204565b82546111e9565b9055565b6112319051610190565b90565b60a01b90565b9061124960ff60a01b91611234565b9181191691161790565b61125c90610190565b90565b90565b9061127761127261127e92611253565b61125f565b825461123a565b9055565b60a81b90565b9061129760ff60a81b91611282565b9181191691161790565b906112b66112b16112bd92611253565b61125f565b8254611288565b9055565b60b01b90565b906112d660ff60b01b916112c1565b9181191691161790565b906112f56112f06112fc92611253565b61125f565b82546112c7565b9055565b60b81b90565b9061131560ff60b81b91611300565b9181191691161790565b9061133461132f61133b92611253565b61125f565b8254611306565b9055565b906113b160805f6113b79461136182820161135b8488016111d7565b90611207565b61137982820161137360208801611227565b90611262565b61139182820161138b60408801611227565b906112a1565b6113a98282016113a360608801611227565b906112e0565b019201611227565b9061131f565b565b906113c39161133f565b565b6114079060206113dd6113d86002610cee565b610cfb565b631d84be44906113fc33926113f0610126565b96879485938493610d07565b8352600483016104da565b03915afa9182156114ff576114969261148f915f916114d1575b509161142b611140565b9261143a60016020860161114b565b8061144e611448600161115c565b916103a0565b146114be575b80611468611462600261117b565b916103a0565b146114ab575b61148161147b600361119a565b916103a0565b14611498575b5f83016111b6565b600d6113b9565b565b6114a660016080850161114b565b611487565b6114b960016060860161114b565b61146e565b6114cc60016040860161114b565b611454565b6114f2915060203d81116114f8575b6114ea8183610749565b8101906110c3565b5f611421565b503d6114e0565b610d3a565b61150d90610f50565b565b60018060a01b031690565b61152661152b916101fb565b61150f565b90565b611538905461151a565b90565b61154490610543565b90565b90565b61155e61155961156392611547565b610524565b610138565b90565b61156f9061154a565b90565b5f7f6f776e2e686578626173652e6661696c65640000000000000000000000000000910152565b6115a66012602092610e0b565b6115af81611572565b0190565b6115c89060208101905f818303910152611599565b90565b156115d257565b6115da610126565b62461bcd60e51b8152806115f0600482016115b3565b0390fd5b6115fd90610527565b90565b611609906115f4565b90565b61161590610527565b90565b6116219061160c565b90565b61162d9061160c565b90565b90565b9061164861164361164f92611624565b611630565b82546111e9565b9055565b6116a66116a16116ac9261169161167161166c5f61152e565b61153b565b61168b6116856116805f611566565b610143565b91610143565b146115cb565b61169c32600c611207565b611600565b611618565b5f611633565b6116b4612d4a565b565b6116be610ca9565b506116c9600e61044f565b90565b5f7f496e76616c696420536166654f776e6572000000000000000000000000000000910152565b6117006011602092610e0b565b611709816116cc565b0190565b6117229060208101905f8183039101526116f3565b90565b1561172c57565b611734610126565b62461bcd60e51b81528061174a6004820161170d565b0390fd5b61177c9060206117666117616002610cee565b610cfb565b636a276f9d90611774610126565b948592610d07565b8252818061178c60048201610687565b03915afa918215611872576117ea926117ac915f91611844575b50610e6d565b60206117c06117bb6002610cee565b610cfb565b6319c06429906117df33926117d3610126565b96879485938493610d07565b8352600483016104da565b03915afa91821561183f5761180f9261180a915f91611811575b50611725565b611a34565b565b611832915060203d8111611838575b61182a8183610749565b810190610d1c565b5f611804565b503d611820565b610d3a565b611865915060203d811161186b575b61185d8183610749565b810190610d1c565b5f6117a6565b503d611853565b610d3a565b61188b61188661189092611547565b610524565b6103a0565b90565b600161189f91016103a0565b90565b5190565b906118b0826118a2565b8110156118c1576020809102010190565b61043b565b5f7f70726d646174612e6e6f742e6578697374000000000000000000000000000000910152565b6118fa6011602092610e0b565b611903816118c6565b0190565b61191c9060208101905f8183039101526118ed565b90565b1561192657565b61192e610126565b62461bcd60e51b81528061194460048201611907565b0390fd5b906119545f19916111e4565b9181191691161790565b61197261196d611977926103a0565b610524565b6103a0565b90565b90565b9061199261198d6119999261195e565b61197a565b8254611948565b9055565b1b90565b919060086119bc9102916119b65f198461199d565b9261199d565b9181191691161790565b91906119dc6119d76119e49361195e565b61197a565b9083546119a1565b9055565b6119fa916119f4610ca9565b916119c6565b565b5f6002611a1b928280820155611a1583600183016119e8565b016119e8565b565b905f03611a2f57611a2d906119fc565b565b6111c4565b90611a3e5f611877565b5b80611a5a611a54611a4f866118a2565b6103a0565b916103a0565b1015611b1c57611b1790611a87611a82611a7d611a788785906118a6565b6111d7565b610c88565b61191f565b611ab9611a935f611877565b6001611ab3600f611aad611aa88a88906118a6565b6111d7565b9061055b565b0161197d565b611aeb611ac55f611877565b6002611ae5600f611adf611ada8a88906118a6565b6111d7565b9061055b565b0161197d565b611b125f611b0d600f611b07611b028987906118a6565b6111d7565b9061055b565b611a1d565b611893565b611a3f565b509050565b611b2a9061174e565b565b5f90565b611b38611b2c565b50611b43600c61021f565b90565b90611b746020611b5e611b596002610cee565b610cfb565b636a276f9d90611b6c610126565b938492610d07565b82528180611b8460048201610687565b03915afa8015611ca657611b9f915f91611c78575b50610e6d565b611bb1611bac6001610eb5565b610ec2565b611bc3611bbd33610143565b91610143565b14918215611bdf575b611bd8611bdd93610f27565b611cdb565b565b611c2292506020611bf8611bf36002610cee565b610cfb565b637df73e2790611c173392611c0b610126565b97889485938493610d07565b8352600483016104da565b03915afa928315611c7357611bdd93611bd8915f91611c45575b50935050611bcc565b611c66915060203d8111611c6c575b611c5e8183610749565b810190610d1c565b5f611c3c565b503d611c54565b610d3a565b611c99915060203d8111611c9f575b611c918183610749565b810190610d1c565b5f611b99565b503d611c87565b610d3a565b634e487b7160e01b5f52601160045260245ffd5b611cc8906103a0565b5f198114611cd65760010190565b611cab565b905f14611fa957611d236020611cf9611cf46002610cee565b610cfb565b631d84be4490611d183392611d0c610126565b95869485938493610d07565b8352600483016104da565b03915afa908115611fa4575f91611f76575b50611d425f600d0161024c565b80611f5b575b80611f36575b611f23575b611d5f5f600d0161024c565b80611f08575b80611ee3575b611ed0575b611d7c5f600d0161024c565b9081611eb4575b5080611e8f575b611e7c575b611d985f611877565b611da45f600d01610273565b611e6e575b611db55f600d0161029a565b611e60575b611dc65f600d016102c1565b611e52575b611dd75f600d0161024c565b9081611e36575b5080611e11575b611dee575b505b565b611df990600c611207565b611e0b611e04611140565b600d6113b9565b5f611dea565b50611e1e5f600d0161021f565b611e30611e2a83610143565b91610143565b14611de5565b9050611e4b611e45600261117b565b916103a0565b145f611dde565b611e5b90611cbf565b611dcb565b611e6990611cbf565b611dba565b611e7790611cbf565b611da9565b611e8a60015f600d0161131f565b611d8f565b50611e9c5f600d0161021f565b611eae611ea883610143565b91610143565b14611d8a565b9050611ec9611ec3600361119a565b916103a0565b145f611d83565b611ede60015f600d016112e0565b611d70565b50611ef05f600d0161021f565b611f02611efc84610143565b91610143565b14611d6b565b5080611f1d611f17600261117b565b916103a0565b14611d65565b611f3160015f600d016112a1565b611d53565b50611f435f600d0161021f565b611f55611f4f84610143565b91610143565b14611d4e565b5080611f70611f6a600161115c565b916103a0565b14611d48565b611f97915060203d8111611f9d575b611f8f8183610749565b8101906110c3565b5f611d35565b503d611f85565b610d3a565b50611fbc611fb5611140565b600d6113b9565b611dec565b90611fcb91611b46565b565b90611ffe9392916020611fe8611fe36002610cee565b610cfb565b636a276f9d90611ff6610126565b978892610d07565b8252818061200e60048201610687565b03915afa9485156120f45761206c9561202e915f916120c6575b50610e6d565b602061204261203d6002610cee565b610cfb565b6319c06429906120613392612055610126565b998a9485938493610d07565b8352600483016104da565b03915afa9485156120c1576120919561208c915f91612093575b50611725565b612198565b565b6120b4915060203d81116120ba575b6120ac8183610749565b810190610d1c565b5f612086565b503d6120a2565b610d3a565b6120e7915060203d81116120ed575b6120df8183610749565b810190610d1c565b5f612028565b503d6120d5565b610d3a565b5190565b90612107826120f9565b811015612118576020809102010190565b61043b565b5190565b9061212b8261211d565b81101561213c576020809102010190565b61043b565b61214b90516103a0565b90565b61215d612163919392936103a0565b926103a0565b820391821161216e57565b611cab565b612182612188919392936103a0565b926103a0565b820180921161219357565b611cab565b9093926121a45f611877565b5b806121c06121ba6121b5866118a2565b6103a0565b916103a0565b1015612352576122aa906121ed6121e86121e36121de8785906118a6565b6111d7565b610c88565b61191f565b6122006121fb8483906120fd565b611227565b5f146122af5761225561221c612217898490612121565b612141565b61224f600161223f600f6122396122348b89906118a6565b6111d7565b9061055b565b019161224a836105a9565b612173565b9061197d565b6122a461226b612266878490612121565b612141565b61229e600261228e600f6122886122838b89906118a6565b6111d7565b9061055b565b0191612299836105a9565b612173565b9061197d565b5b611893565b6121a5565b6122fe6122c56122c0898490612121565b612141565b6122f860016122e8600f6122e26122dd8b89906118a6565b6111d7565b9061055b565b01916122f3836105a9565b61214e565b9061197d565b61234d61231461230f878490612121565b612141565b6123476002612337600f61233161232c8b89906118a6565b6111d7565b9061055b565b0191612342836105a9565b61214e565b9061197d565b6122a5565b505050509050565b90612366939291611fcd565b565b5f7f6f776e2e6e6f6e617574682e44414f0000000000000000000000000000000000910152565b61239c600f602092610e0b565b6123a581612368565b0190565b6123be9060208101905f81830391015261238f565b90565b156123c857565b6123d0610126565b62461bcd60e51b8152806123e6600482016123a9565b0390fd5b6124189060206124026123fd6002610cee565b610cfb565b636a276f9d90612410610126565b948592610d07565b8252818061242860048201610687565b03915afa9182156124aa5761247a92612448915f9161247c575b50610e6d565b61247561245d6124586001610eb5565b610ec2565b61246f61246933610143565b91610143565b146123c1565b6124bb565b565b61249d915060203d81116124a3575b6124958183610749565b810190610d1c565b5f612442565b503d61248b565b610d3a565b6124b890610543565b90565b5f808080936124d96124d46124cf84611566565b611600565b6124af565b8282156124ee575bf1156124e957565b610d3a565b506108fc6124e1565b612500906123ea565b565b906125329291602061251c6125176002610cee565b610cfb565b636a276f9d9061252a610126565b968792610d07565b8252818061254260048201610687565b03915afa938415612628576125a094612562915f916125fa575b50610e6d565b60206125766125716002610cee565b610cfb565b6319c06429906125953392612589610126565b98899485938493610d07565b8352600483016104da565b03915afa9384156125f5576125c5946125c0915f916125c7575b50611725565b6127d0565b565b6125e8915060203d81116125ee575b6125e08183610749565b810190610d1c565b5f6125ba565b503d6125d6565b610d3a565b61261b915060203d8111612621575b6126138183610749565b810190610d1c565b5f61255c565b503d612609565b610d3a565b6126376060610772565b90565b5f90565b61264661262d565b9060208080846126546110f2565b81520161265f61263a565b81520161266a61263a565b81525050565b61267861263e565b90565b90612685906103a0565b9052565b9061269560ff916111e4565b9181191691161790565b906126b46126af6126bb92611253565b61125f565b8254612689565b9055565b9061270360406002612709946126e25f82016126dc5f8801611227565b9061269f565b6126fb600182016126f560208801612141565b9061197d565b019201612141565b9061197d565b565b90612715916126bf565b565b90565b5f5260205f2090565b5490565b61273081612723565b82101561274a5761274260019161271a565b910201905f90565b61043b565b9190600861276f91029161276960018060a01b038461199d565b9261199d565b9181191691161790565b919061278f61278a6127979361054f565b611204565b90835461274f565b9055565b90815491680100000000000000008310156127cb57826127c39160016127c995018155612727565b90612779565b565b610735565b6127d95f611877565b5b806127f56127ef6127ea856118a2565b6103a0565b916103a0565b1015612950576128ce9061282361281d6128186128138685906118a6565b6111d7565b610c88565b15610190565b5f146128d3576128a2612834612670565b61284160015f830161114b565b612860612857612852888690612121565b612141565b6020830161267b565b61287f612876612871898690612121565b612141565b6040830161267b565b61289d600f6128976128928887906118a6565b6111d7565b9061055b565b61270b565b6128c86128af600e612717565b6128c26128bd8685906118a6565b6111d7565b9061279b565b5b611893565b6127da565b61290f6128e96128e4868490612121565b612141565b6001612909600f6129036128fe8988906118a6565b6111d7565b9061055b565b0161197d565b61294b612925612920878490612121565b612141565b6002612945600f61293f61293a8988906118a6565b6111d7565b9061055b565b0161197d565b6128c9565b50505050565b906129619291612502565b565b5f7f6f776e2e64656661756c742e73656e6465720000000000000000000000000000910152565b6129976012602092610e0b565b6129a081612963565b0190565b6129b99060208101905f81830391015261298a565b90565b156129c357565b6129cb610126565b62461bcd60e51b8152806129e1600482016129a4565b0390fd5b90612a1491612a0f81612a08612a026129fd5f611566565b610143565b91610143565b14156129bc565b612a16565b565b90612a45916020612a2f612a2a6002610cee565b610cfb565b636a276f9d90612a3d610126565b958692610d07565b82528180612a5560048201610687565b03915afa928315612ad757612aa793612a75915f91612aa9575b50610e6d565b612aa2612a8a612a856001610eb5565b610ec2565b612a9c612a9633610143565b91610143565b146123c1565b612b5e565b565b612aca915060203d8111612ad0575b612ac28183610749565b810190610d1c565b5f612a6f565b503d612ab8565b610d3a565b5f7f6f776e2e696e76616c69642e616d6f756e740000000000000000000000000000910152565b612b106012602092610e0b565b612b1981612adc565b0190565b612b329060208101905f818303910152612b03565b90565b15612b3c57565b612b44610126565b62461bcd60e51b815280612b5a60048201612b1d565b0390fd5b5f808093612b90612b8b8395612b8684612b80612b7a88611877565b916103a0565b11612b35565b611600565b6124af565b828215612ba5575bf115612ba057565b610d3a565b506108fc612b98565b90612bb8916129e5565b565b90505190612bc78261014f565b565b90602082820312612be257612bdf915f01612bba565b90565b610130565b612bf090610527565b90565b612bfc90612be7565b90565b612c0890612be7565b90565b90565b90612c23612c1e612c2a92612bff565b612c0b565b82546111e9565b9055565b612c3790610527565b90565b612c4390612c2e565b90565b612c4f90612c2e565b90565b90565b90612c6a612c65612c7192612c46565b612c52565b82546111e9565b9055565b612c7e90610527565b90565b612c8a90612c75565b90565b612c9690612c75565b90565b90565b90612cb1612cac612cb892612c8d565b612c99565b82546111e9565b9055565b612cc590610527565b90565b612cd190612cbc565b90565b612cdd90612cbc565b90565b90565b90612cf8612cf3612cff92612cd4565b612ce0565b82546111e9565b9055565b612d0c90610527565b90565b612d1890612d03565b90565b612d2490612d03565b90565b90565b90612d3f612d3a612d4692612d1b565b612d27565b82546111e9565b9055565b612d5b612d565f61152e565b61153b565b612d75612d6f612d6a5f611566565b610143565b91610143565b146133b257612da66020612d90612d8b5f61152e565b61153b565b634162169f90612d9e610126565b938492610d07565b82528180612db660048201610687565b03915afa9081156133ad57612ddd91612dd6915f9161337f575b50612bf3565b6001612c0e565b612e096020612df3612dee5f61152e565b61153b565b63b57dbdc690612e01610126565b938492610d07565b82528180612e1960048201610687565b03915afa90811561337a57612e4091612e39915f9161334c575b50612c3a565b6002612c55565b612e6c6020612e56612e515f61152e565b61153b565b63cfbffe5390612e64610126565b938492610d07565b82528180612e7c60048201610687565b03915afa90811561334757612ea391612e9c915f91613319575b50612c81565b6003612c9c565b612ecf6020612eb9612eb45f61152e565b61153b565b63ab6e844f90612ec7610126565b938492610d07565b82528180612edf60048201610687565b03915afa90811561331457612f0691612eff915f916132e6575b50612cc8565b6004612ce3565b612f326020612f1c612f175f61152e565b61153b565b639a7c407790612f2a610126565b938492610d07565b82528180612f4260048201610687565b03915afa9081156132e157612f6991612f62915f916132b3575b50612d0f565b6005612d2a565b612f956020612f7f612f7a5f61152e565b61153b565b63aa0ddc1690612f8d610126565b938492610d07565b82528180612fa560048201610687565b03915afa80156132ae57612fc2915f91613280575b506007611207565b612fee6020612fd8612fd35f61152e565b61153b565b636b4aefc690612fe6610126565b938492610d07565b82528180612ffe60048201610687565b03915afa801561327b5761301b915f9161324d575b506008611207565b613047602061303161302c5f61152e565b61153b565b6324768d919061303f610126565b938492610d07565b8252818061305760048201610687565b03915afa801561324857613074915f9161321a575b50600b611207565b6130a0602061308a6130855f61152e565b61153b565b636402742790613098610126565b938492610d07565b825281806130b060048201610687565b03915afa8015613215576130cd915f916131e7575b506009611207565b6130f960206130e36130de5f61152e565b61153b565b6330125cf5906130f1610126565b938492610d07565b8252818061310960048201610687565b03915afa80156131e257613126915f916131b4575b50600a611207565b613152602061313c6131375f61152e565b61153b565b63d3d1b0969061314a610126565b938492610d07565b8252818061316260048201610687565b03915afa80156131af5761317f915f91613181575b506006611207565b565b6131a2915060203d81116131a8575b61319a8183610749565b810190612bc9565b5f613177565b503d613190565b610d3a565b6131d5915060203d81116131db575b6131cd8183610749565b810190612bc9565b5f61311e565b503d6131c3565b610d3a565b613208915060203d811161320e575b6132008183610749565b810190612bc9565b5f6130c5565b503d6131f6565b610d3a565b61323b915060203d8111613241575b6132338183610749565b810190612bc9565b5f61306c565b503d613229565b610d3a565b61326e915060203d8111613274575b6132668183610749565b810190612bc9565b5f613013565b503d61325c565b610d3a565b6132a1915060203d81116132a7575b6132998183610749565b810190612bc9565b5f612fba565b503d61328f565b610d3a565b6132d4915060203d81116132da575b6132cc8183610749565b810190612bc9565b5f612f5c565b503d6132c2565b610d3a565b613307915060203d811161330d575b6132ff8183610749565b810190612bc9565b5f612ef9565b503d6132f5565b610d3a565b61333a915060203d8111613340575b6133328183610749565b810190612bc9565b5f612e96565b503d613328565b610d3a565b61336d915060203d8111613373575b6133658183610749565b810190612bc9565b5f612e33565b503d61335b565b610d3a565b6133a0915060203d81116133a6575b6133988183610749565b810190612bc9565b5f612dd0565b503d61338e565b610d3a565b56fea26469706673582212204d84cb11ce30a8fbafd8edf838f9f86727360ce765ad2627653527db1aad6cff64736f6c634300081800336080604052346200002d576200001462000140565b6200001e62000033565b611bcb6200027e8239611bcb90f35b62000039565b60405190565b5f80fd5b5f1b90565b906200005560018060a01b03916200003d565b9181191691161790565b60018060a01b031690565b90565b62000086620000806200008c926200005f565b6200006a565b6200005f565b90565b6200009a906200006d565b90565b620000a8906200008f565b90565b90565b90620000c8620000c2620000d0926200009d565b620000ab565b825462000042565b9055565b90620000e0906200009d565b5f5260205260405f2090565b90620000fa60ff916200003d565b9181191691161790565b151590565b620001149062000104565b90565b90565b90620001346200012e6200013c9262000109565b62000117565b8254620000ec565b9055565b6200016173c0cee8b561cc4f60869776ca5b0b7a295e04f5af6011620000ae565b62000182739f33b44587a57758c1413dbab6640f6abea5cef46012620000ae565b620001a3730239667fa9f2269e36f32daf2ab391dc1ad937386013620000ae565b620001c473648565deb50c503ef59860d92942eaece0c3e1726014620000ae565b620001e573085052532254e12989413f7c84dd32686bce74e16015620000ae565b62000206739bfc2af8a5e49a72bfb58e22312ce07d61fe77396016620000ae565b62000227739bfc2af8a5e49a72bfb58e22312ce07d61fe77396017620000ae565b620002477289188449f0d4119715c9a10ea8955fb26ee3086018620000ae565b6200026160016200025b60193290620000d4565b6200011a565b6200027b60016200027560193390620000d4565b6200011a565b56fe60806040526004361015610018575b361561001657005b005b6100225f35610381565b806301c0d48b1461037c57806305abae0d146103775780630c46c9e9146103725780631162a5b11461036d578063130fba6d146103685780631726c609146103635780631b67970a1461035e578063236b04021461035957806323d02da214610354578063242fca551461034f57806324768d911461034a578063275424d01461034557806328b3ab9c146103405780632f54bf6e1461033b57806330125cf514610336578063313c5fdc1461033157806336c24c461461032c5780634162169f14610327578063447aa30414610322578063447bf0e21461031d5780635ad64af1146103185780635f7ba56114610313578063640274271461030e57806364d93c621461030957806366658584146103045780636b4aefc6146102ff5780637065cb48146102fa57806374fad9f9146102f5578063753e7d33146102f05780637c27dd0c146102eb578063839a47a4146102e657806396e85ced146102e15780639a7c4077146102dc578063a5b277f2146102d7578063aa0ddc16146102d2578063ab6e844f146102cd578063aeb14020146102c8578063af233190146102c3578063b0788f84146102be578063b57dbdc6146102b9578063bcb6c0b5146102b4578063c5a90db1146102af578063cfbffe53146102aa578063d05a5651146102a5578063d1915795146102a0578063d3d1b0961461029b578063d42b09f114610296578063d62bab3414610291578063da1be7d01461028c578063e257681914610287578063e305de5414610282578063e61dfd581461027d578063e7531fc0146102785763fa035c320361000e576111be565b61117a565b611136565b6110f4565b6110c1565b61108c565b611048565b611004565b610fc0565b610f7e565b610f4b565b610f16565b610ed2565b610e90565b610e5b565b610e19565b610de4565b610da2565b610d6d565b610d29565b610ce5565b610ca1565b610c5f565b610c2c565b610bf7565b610bb5565b610b82565b610b4f565b610b1a565b610ad8565b610a9c565b610a0c565b6109ca565b610995565b610951565b61090d565b6108c9565b610889565b610856565b610821565b6107dd565b610774565b6106ab565b610676565b610634565b610601565b6105ce565b61059b565b610568565b610535565b610502565b6104cf565b61049c565b610421565b60e01c90565b60405190565b5f80fd5b5f80fd5b5f91031261039f57565b610391565b1c90565b60018060a01b031690565b6103c39060086103c893026103a4565b6103a8565b90565b906103d691546103b3565b90565b6103e5600e5f906103cb565b90565b60018060a01b031690565b6103fc906103e8565b90565b610408906103f3565b9052565b919061041f905f602085019401906103ff565b565b3461045157610431366004610395565b61044d61043c6103d9565b610444610387565b9182918261040c565b0390f35b61038d565b61045f816103f3565b0361046657565b5f80fd5b9050359061047782610456565b565b906020828203126104925761048f915f0161046a565b90565b610391565b5f0190565b346104ca576104b46104af366004610479565b61136e565b6104bc610387565b806104c681610497565b0390f35b61038d565b346104fd576104e76104e2366004610479565b6113ad565b6104ef610387565b806104f981610497565b0390f35b61038d565b346105305761051a610515366004610479565b6113ec565b610522610387565b8061052c81610497565b0390f35b61038d565b346105635761054d610548366004610479565b61142b565b610555610387565b8061055f81610497565b0390f35b61038d565b346105965761058061057b366004610479565b61146a565b610588610387565b8061059281610497565b0390f35b61038d565b346105c9576105b36105ae366004610479565b6114a9565b6105bb610387565b806105c581610497565b0390f35b61038d565b346105fc576105e66105e1366004610479565b6114e8565b6105ee610387565b806105f881610497565b0390f35b61038d565b3461062f57610619610614366004610479565b611527565b610621610387565b8061062b81610497565b0390f35b61038d565b346106625761064c610647366004610479565b611566565b610654610387565b8061065e81610497565b0390f35b61038d565b610673600a5f906103cb565b90565b346106a657610686366004610395565b6106a2610691610667565b610699610387565b9182918261040c565b0390f35b61038d565b346106d9576106c36106be366004610479565b6115a5565b6106cb610387565b806106d581610497565b0390f35b61038d565b979593919a9998969492909a61014089019b5f8a016106fc916103ff565b60208901610709916103ff565b60408801610716916103ff565b60608701610723916103ff565b60808601610730916103ff565b60a0850161073d916103ff565b60c0840161074a916103ff565b60e08301610757916103ff565b6101008201610765916103ff565b61012001610772916103ff565b565b346107b157610784366004610395565b6107ad61078f6115e1565b966107a49a989a969196959295949394610387565b9a8b9a8b6106de565b0390f35b61038d565b151590565b6107c4906107b6565b9052565b91906107db905f602085019401906107bb565b565b3461080d576108096107f86107f3366004610479565b6116b7565b610800610387565b918291826107c8565b0390f35b61038d565b61081e60095f906103cb565b90565b3461085157610831366004610395565b61084d61083c610812565b610844610387565b9182918261040c565b0390f35b61038d565b346108845761086e610869366004610479565b61170a565b610876610387565b8061088081610497565b0390f35b61038d565b346108b7576108a161089c366004610479565b611749565b6108a9610387565b806108b381610497565b0390f35b61038d565b6108c65f806103cb565b90565b346108f9576108d9366004610395565b6108f56108e46108bc565b6108ec610387565b9182918261040c565b0390f35b61038d565b61090a60115f906103cb565b90565b3461093d5761091d366004610395565b6109396109286108fe565b610930610387565b9182918261040c565b0390f35b61038d565b61094e60125f906103cb565b90565b3461098157610961366004610395565b61097d61096c610942565b610974610387565b9182918261040c565b0390f35b61038d565b61099260165f906103cb565b90565b346109c5576109a5366004610395565b6109c16109b0610986565b6109b8610387565b9182918261040c565b0390f35b61038d565b346109f8576109e26109dd366004610479565b611788565b6109ea610387565b806109f481610497565b0390f35b61038d565b610a0960085f906103cb565b90565b34610a3c57610a1c366004610395565b610a38610a276109fd565b610a2f610387565b9182918261040c565b0390f35b61038d565b9194610a89610a9392989795610a7f60a096610a75610a9a9a610a6b60c08a019e5f8b01906103ff565b60208901906103ff565b60408701906103ff565b60608501906103ff565b60808301906103ff565b01906103ff565b565b34610ad357610aac366004610395565b610acf610ab7611793565b92610ac6969496929192610387565b96879687610a41565b0390f35b61038d565b34610b0657610af0610aeb366004610479565b611847565b610af8610387565b80610b0281610497565b0390f35b61038d565b610b1760075f906103cb565b90565b34610b4a57610b2a366004610395565b610b46610b35610b0b565b610b3d610387565b9182918261040c565b0390f35b61038d565b34610b7d57610b67610b62366004610479565b6118d6565b610b6f610387565b80610b7981610497565b0390f35b61038d565b34610bb057610b9a610b95366004610479565b611915565b610ba2610387565b80610bac81610497565b0390f35b61038d565b34610be357610bcd610bc8366004610479565b611954565b610bd5610387565b80610bdf81610497565b0390f35b61038d565b610bf460105f906103cb565b90565b34610c2757610c07366004610395565b610c23610c12610be8565b610c1a610387565b9182918261040c565b0390f35b61038d565b34610c5a57610c44610c3f366004610479565b611993565b610c4c610387565b80610c5681610497565b0390f35b61038d565b34610c8d57610c77610c72366004610479565b6119d2565b610c7f610387565b80610c8981610497565b0390f35b61038d565b610c9e60045f906103cb565b90565b34610cd157610cb1366004610395565b610ccd610cbc610c92565b610cc4610387565b9182918261040c565b0390f35b61038d565b610ce260155f906103cb565b90565b34610d1557610cf5366004610395565b610d11610d00610cd6565b610d08610387565b9182918261040c565b0390f35b61038d565b610d2660065f906103cb565b90565b34610d5957610d39366004610395565b610d55610d44610d1a565b610d4c610387565b9182918261040c565b0390f35b61038d565b610d6a60035f906103cb565b90565b34610d9d57610d7d366004610395565b610d99610d88610d5e565b610d90610387565b9182918261040c565b0390f35b61038d565b34610dd057610dba610db5366004610479565b611a11565b610dc2610387565b80610dcc81610497565b0390f35b61038d565b610de1600c5f906103cb565b90565b34610e1457610df4366004610395565b610e10610dff610dd5565b610e07610387565b9182918261040c565b0390f35b61038d565b34610e4757610e31610e2c366004610479565b611a50565b610e39610387565b80610e4381610497565b0390f35b61038d565b610e5860015f906103cb565b90565b34610e8b57610e6b366004610395565b610e87610e76610e4c565b610e7e610387565b9182918261040c565b0390f35b61038d565b34610ebe57610ea8610ea3366004610479565b611a8e565b610eb0610387565b80610eba81610497565b0390f35b61038d565b610ecf60145f906103cb565b90565b34610f0257610ee2366004610395565b610efe610eed610ec3565b610ef5610387565b9182918261040c565b0390f35b61038d565b610f1360025f906103cb565b90565b34610f4657610f26366004610395565b610f42610f31610f07565b610f39610387565b9182918261040c565b0390f35b61038d565b34610f7957610f63610f5e366004610479565b611acd565b610f6b610387565b80610f7581610497565b0390f35b61038d565b34610fac57610f96610f91366004610479565b611b0c565b610f9e610387565b80610fa881610497565b0390f35b61038d565b610fbd600d5f906103cb565b90565b34610ff057610fd0366004610395565b610fec610fdb610fb1565b610fe3610387565b9182918261040c565b0390f35b61038d565b61100160185f906103cb565b90565b3461103457611014366004610395565b61103061101f610ff5565b611027610387565b9182918261040c565b0390f35b61038d565b61104560055f906103cb565b90565b3461107857611058366004610395565b611074611063611039565b61106b610387565b9182918261040c565b0390f35b61038d565b61108960175f906103cb565b90565b346110bc5761109c366004610395565b6110b86110a761107d565b6110af610387565b9182918261040c565b0390f35b61038d565b346110ef576110d96110d4366004610479565b611b4b565b6110e1610387565b806110eb81610497565b0390f35b61038d565b346111225761110c611107366004610479565b611b8a565b611114610387565b8061111e81610497565b0390f35b61038d565b611133600b5f906103cb565b90565b3461116657611146366004610395565b611162611151611127565b611159610387565b9182918261040c565b0390f35b61038d565b61117760135f906103cb565b90565b346111aa5761118a366004610395565b6111a661119561116b565b61119d610387565b9182918261040c565b0390f35b61038d565b6111bb600f5f906103cb565b90565b346111ee576111ce366004610395565b6111ea6111d96111af565b6111e1610387565b9182918261040c565b0390f35b61038d565b90565b61120a61120561120f926103e8565b6111f3565b6103e8565b90565b61121b906111f6565b90565b61122790611212565b90565b906112349061121e565b5f5260205260405f2090565b5f1c90565b60ff1690565b61125761125c91611240565b611245565b90565b611269905461124b565b90565b60209181520190565b5f7f496e76616c6964206f776e657200000000000000000000000000000000000000910152565b6112a9600d60209261126c565b6112b281611275565b0190565b6112cb9060208101905f81830391015261129c565b90565b156112d557565b6112dd610387565b62461bcd60e51b8152806112f3600482016112b6565b0390fd5b61131c9061131761131261130d6019339061122a565b61125f565b6112ce565b611361565b565b5f1b90565b9061133460018060a01b039161131e565b9181191691161790565b90565b9061135661135161135d9261121e565b61133e565b8254611323565b9055565b61136c906008611341565b565b611377906112f7565b565b61139e9061139961139461138f6019339061122a565b61125f565b6112ce565b6113a0565b565b6113ab906015611341565b565b6113b690611379565b565b6113dd906113d86113d36113ce6019339061122a565b61125f565b6112ce565b6113df565b565b6113ea906001611341565b565b6113f5906113b8565b565b61141c9061141761141261140d6019339061122a565b61125f565b6112ce565b61141e565b565b611429906006611341565b565b611434906113f7565b565b61145b9061145661145161144c6019339061122a565b61125f565b6112ce565b61145d565b565b61146890600f611341565b565b61147390611436565b565b61149a9061149561149061148b6019339061122a565b61125f565b6112ce565b61149c565b565b6114a790600a611341565b565b6114b290611475565b565b6114d9906114d46114cf6114ca6019339061122a565b61125f565b6112ce565b6114db565b565b6114e6906011611341565b565b6114f1906114b4565b565b6115189061151361150e6115096019339061122a565b61125f565b6112ce565b61151a565b565b611525906017611341565b565b611530906114f3565b565b6115579061155261154d6115486019339061122a565b61125f565b6112ce565b611559565b565b611564906010611341565b565b61156f90611532565b565b6115969061159161158c6115876019339061122a565b61125f565b6112ce565b611598565b565b6115a390600b611341565b565b6115ae90611571565b565b5f90565b6115bd90611212565b90565b6115cc6115d191611240565b6103a8565b90565b6115de90546115c0565b90565b6115e96115b0565b506115f26115b0565b506115fb6115b0565b506116046115b0565b5061160d6115b0565b506116166115b0565b5061161f6115b0565b506116286115b0565b506116316115b0565b5061163a6115b0565b50611644306115b4565b9061164f60016115d4565b916116595f6115d4565b9161166460026115d4565b9161166f600d6115d4565b9161167a600b6115d4565b9161168560036115d4565b9161169060046115d4565b9161169b600e6115d4565b916116a660106115d4565b9199989796959493929190565b5f90565b6116ce6116d3916116c66116b3565b50601961122a565b61125f565b90565b6116fb906116f66116f16116ec6019339061122a565b61125f565b6112ce565b6116fd565b565b611708906004611341565b565b611713906116d6565b565b61173a9061173561173061172b6019339061122a565b61125f565b6112ce565b61173c565b565b611747906007611341565b565b61175290611715565b565b6117799061177461176f61176a6019339061122a565b61125f565b6112ce565b61177b565b565b611786906005611341565b565b61179190611754565b565b61179b6115b0565b506117a46115b0565b506117ad6115b0565b506117b66115b0565b506117bf6115b0565b506117c86115b0565b506117d360066115d4565b906117de60076115d4565b916117e960086115d4565b916117f460096115d4565b916117ff600a6115d4565b9161180a600e6115d4565b91959493929190565b6118389061183361182e6118296019339061122a565b61125f565b6112ce565b61183a565b565b611845906012611341565b565b61185090611813565b565b6118779061187261186d6118686019339061122a565b61125f565b6112ce565b6118be565b565b9061188560ff9161131e565b9181191691161790565b611898906107b6565b90565b90565b906118b36118ae6118ba9261188f565b61189b565b8254611879565b9055565b6118d4906118cf600191601961122a565b61189e565b565b6118df90611852565b565b611906906119016118fc6118f76019339061122a565b61125f565b6112ce565b611908565b565b611913906013611341565b565b61191e906118e1565b565b6119459061194061193b6119366019339061122a565b61125f565b6112ce565b611947565b565b611952906002611341565b565b61195d90611920565b565b6119849061197f61197a6119756019339061122a565b61125f565b6112ce565b611986565b565b61199190600c611341565b565b61199c9061195f565b565b6119c3906119be6119b96119b46019339061122a565b61125f565b6112ce565b6119c5565b565b6119d090600d611341565b565b6119db9061199e565b565b611a02906119fd6119f86119f36019339061122a565b61125f565b6112ce565b611a04565b565b611a0f906003611341565b565b611a1a906119dd565b565b611a4190611a3c611a37611a326019339061122a565b61125f565b6112ce565b611a43565b565b611a4e906014611341565b565b611a5990611a1c565b565b611a8090611a7b611a76611a716019339061122a565b61125f565b6112ce565b611a82565b565b611a8c905f611341565b565b611a9790611a5b565b565b611abe90611ab9611ab4611aaf6019339061122a565b61125f565b6112ce565b611ac0565b565b611acb90600e611341565b565b611ad690611a99565b565b611afd90611af8611af3611aee6019339061122a565b61125f565b6112ce565b611aff565b565b611b0a906016611341565b565b611b1590611ad8565b565b611b3c90611b37611b32611b2d6019339061122a565b61125f565b6112ce565b611b3e565b565b611b49906009611341565b565b611b5490611b17565b565b611b7b90611b76611b71611b6c6019339061122a565b61125f565b6112ce565b611b7d565b565b611b88906018611341565b565b611b9390611b56565b56fea2646970667358221220f226162fcb6a7c737185cb205e5f1db13f296a74e761ab458d49e706ba0665fd64736f6c6343000818003360806040523462000038576200001f6200001862000131565b91620003bf565b620000296200003e565b6117ba620004d082396117ba90f35b62000044565b60405190565b5f80fd5b601f801991011690565b634e487b7160e01b5f52604160045260245ffd5b90620000729062000048565b810190811060018060401b038211176200008b57604052565b62000052565b90620000a8620000a06200003e565b928362000066565b565b5f80fd5b60018060a01b031690565b620000c490620000ae565b90565b620000d281620000b9565b03620000da57565b5f80fd5b90505190620000ed82620000c7565b565b90916060828403126200012b57620001286200010e845f8501620000de565b936200011e8160208601620000de565b93604001620000de565b90565b620000aa565b6200015462001c8a80380380620001488162000091565b928339810190620000ef565b909192565b60a01b90565b906200017060ff60a01b9162000159565b9181191691161790565b151590565b6200018a906200017a565b90565b90565b90620001aa620001a4620001b2926200017f565b6200018d565b82546200015f565b9055565b60a81b90565b90620001cd60ff60a81b91620001b6565b9181191691161790565b90620001f1620001eb620001f9926200017f565b6200018d565b8254620001bc565b9055565b60b01b90565b906200021460ff60b01b91620001fd565b9181191691161790565b90620002386200023262000240926200017f565b6200018d565b825462000203565b9055565b5f1b90565b906200025c60018060a01b039162000244565b9181191691161790565b90565b620002826200027c6200028892620000ae565b62000266565b620000ae565b90565b620002969062000269565b90565b620002a4906200028b565b90565b90565b90620002c4620002be620002cc9262000299565b620002a7565b825462000249565b9055565b90620002dc9062000299565b5f5260205260405f2090565b90620002f660ff9162000244565b9181191691161790565b906200031a6200031462000322926200017f565b6200018d565b8254620002e8565b9055565b62000331906200028b565b90565b90565b90565b620003536200034d620003599262000334565b62000266565b62000337565b90565b906200036a5f199162000244565b9181191691161790565b6200038d62000387620003939262000337565b62000266565b62000337565b90565b90565b90620003b3620003ad620003bb9262000374565b62000396565b82546200035c565b9055565b6200045b9291620004316200044692620003db5f600362000190565b620003e85f6003620001d7565b620003f55f60036200021e565b62000402816001620002aa565b6200040f836002620002aa565b6200041c856003620002aa565b6200042b6001916004620002d0565b62000300565b620004406001916004620002d0565b62000300565b620004556001916004620002d0565b62000300565b6200047560016200046f60043390620002d0565b62000300565b6200048f60016200048960043290620002d0565b62000300565b620004b36001620004ad6004620004a63062000326565b90620002d0565b62000300565b620004cd620004c663687956c76200033a565b5f62000399565b56fe60806040526004361015610013575b61071e565b61001d5f356100ec565b80630d43aaf2146100e757806319c06429146100e25780631d84be44146100dd578063262a9dff146100d85780633587e1dc146100d357806369463ba1146100ce5780636a276f9d146100c95780637df73e27146100c45780639608060f146100bf5780639f2ce594146100ba578063b593a441146100b5578063d5ff5d37146100b05763f6d3378f0361000e576106ea565b61067d565b61064a565b610615565b6105a7565b610538565b610503565b6104d0565b610455565b610420565b6103eb565b610391565b6102ff565b60e01c90565b60405190565b5f80fd5b5f80fd5b5f91031261010a57565b6100fc565b5f1c90565b60018060a01b031690565b61012b6101309161010f565b610114565b90565b61013d905461011f565b90565b60a01c90565b60ff1690565b61015861015d91610140565b610146565b90565b61016a905461014c565b90565b60a81c90565b61017f6101849161016d565b610146565b90565b6101919054610173565b90565b60b01c90565b6101a66101ab91610194565b610146565b90565b6101b8905461019a565b90565b60b81c90565b6101cd6101d2916101bb565b610146565b90565b6101df90546101c1565b90565b60c01c90565b6101f46101f9916101e2565b610146565b90565b61020690546101e8565b90565b60056102165f8201610133565b916102225f8301610160565b9161022e5f8201610187565b9161023a5f83016101ae565b916102465f82016101d5565b9161025e60016102575f85016101fc565b9301610133565b90565b60018060a01b031690565b61027590610261565b90565b6102819061026c565b9052565b151590565b61029390610285565b9052565b949290979695939160e08601985f87016102b091610278565b602086016102bd9161028a565b604085016102ca9161028a565b606084016102d79161028a565b608083016102e49161028a565b60a082016102f19161028a565b60c0016102fd91610278565b565b346103365761030f366004610100565b61033261031a610209565b936103299795979391936100f2565b97889788610297565b0390f35b6100f8565b6103448161026c565b0361034b57565b5f80fd5b9050359061035c8261033b565b565b9060208282031261037757610374915f0161034f565b90565b6100fc565b919061038f905f6020850194019061028a565b565b346103c1576103bd6103ac6103a736600461035e565b610794565b6103b46100f2565b9182918261037c565b0390f35b6100f8565b90565b6103d2906103c6565b9052565b91906103e9905f602085019401906103c9565b565b3461041b5761041761040661040136600461035e565b610833565b61040e6100f2565b918291826103d6565b0390f35b6100f8565b3461045057610430366004610100565b61044c61043b6108d4565b6104436100f2565b918291826103d6565b0390f35b6100f8565b3461048557610465366004610100565b6104816104706108e8565b6104786100f2565b9182918261037c565b0390f35b6100f8565b61049381610285565b0361049a57565b5f80fd5b905035906104ab8261048a565b565b906020828203126104c6576104c3915f0161049e565b90565b6100fc565b5f0190565b346104fe576104e86104e33660046104ad565b610993565b6104f06100f2565b806104fa816104cb565b0390f35b6100f8565b3461053357610513366004610100565b61052f61051e61099e565b6105266100f2565b9182918261037c565b0390f35b6100f8565b346105685761056461055361054e36600461035e565b6109e0565b61055b6100f2565b9182918261037c565b0390f35b6100f8565b90916060828403126105a25761059f610588845f850161034f565b93610596816020860161049e565b9360400161034f565b90565b6100fc565b346105d6576105c06105ba36600461056d565b9161102b565b6105c86100f2565b806105d2816104cb565b0390f35b6100f8565b1c90565b90565b6105f29060086105f793026105db565b6105df565b90565b9061060591546105e2565b90565b6106125f806105fa565b90565b3461064557610625366004610100565b610641610630610608565b6106386100f2565b918291826103d6565b0390f35b6100f8565b346106785761066261065d3660046104ad565b611075565b61066a6100f2565b80610674816104cb565b0390f35b6100f8565b346106ab576106956106903660046104ad565b6110bd565b61069d6100f2565b806106a7816104cb565b0390f35b6100f8565b90916060828403126106e5576106e26106cb845f850161034f565b936106d9816020860161049e565b9360400161049e565b90565b6100fc565b34610719576107036106fd3660046106b0565b916115f5565b61070b6100f2565b80610715816104cb565b0390f35b6100f8565b5f80fd5b5f90565b90565b61073d61073861074292610261565b610726565b610261565b90565b61074e90610729565b90565b61075a90610745565b90565b9061076790610751565b5f5260205260405f2090565b61077f6107849161010f565b610146565b90565b6107919054610773565b90565b6107ab6107b0916107a3610722565b50600461075d565b610787565b90565b5f90565b90565b6107ce6107c96107d3926107b7565b610726565b6103c6565b90565b90565b6107ed6107e86107f2926107d6565b610726565b6103c6565b90565b90565b61080c610807610811926107f5565b610726565b6103c6565b90565b90565b61082b61082661083092610814565b610726565b6103c6565b90565b61083b6107b3565b506108466001610133565b6108586108528361026c565b9161026c565b146108c6576108676002610133565b6108796108738361026c565b9161026c565b146108b85761089a61089461088e6003610133565b9261026c565b9161026c565b146108ab576108a85f610817565b90565b6108b560036107f8565b90565b506108c360026107d9565b90565b506108d160016107ba565b90565b6108dc6107b3565b506108e561166d565b90565b6108f0610722565b506108fa336109e0565b90565b1561090457565b5f80fd5b610936906109313361092b6109256109206001610133565b61026c565b9161026c565b146108fd565b610986565b565b60a01b90565b9061094d60ff60a01b91610938565b9181191691161790565b61096090610285565b90565b90565b9061097b61097661098292610957565b610963565b825461093e565b9055565b610991906003610966565b565b61099c90610908565b565b6109a6610722565b506109b16003610160565b806109d0575b806109c0575b90565b506109cb60036101ae565b6109bd565b506109db6003610187565b6109b7565b6109e8610722565b506109f36001610133565b610a056109ff8361026c565b9161026c565b148015610a3e575b908115610a19575b5090565b9050610a37610a31610a2b6003610133565b9261026c565b9161026c565b145f610a15565b50610a496002610133565b610a5b610a558361026c565b9161026c565b14610a0d565b60209181520190565b5f7f66616b65207369676e6572000000000000000000000000000000000000000000910152565b610a9e600b602092610a61565b610aa781610a6a565b0190565b610ac09060208101905f818303910152610a91565b90565b15610aca57565b610ad26100f2565b62461bcd60e51b815280610ae860048201610aab565b0390fd5b90610b089291610b03610afe336109e0565b610ac3565b610ebe565b565b610b1e610b19610b2392610814565b610726565b610261565b90565b610b2f90610b0a565b90565b5f7f73656c6620746172676574206661696c65640000000000000000000000000000910152565b610b666012602092610a61565b610b6f81610b32565b0190565b610b889060208101905f818303910152610b59565b90565b15610b9257565b610b9a6100f2565b62461bcd60e51b815280610bb060048201610b73565b0390fd5b601f801991011690565b634e487b7160e01b5f52604160045260245ffd5b90610bdc90610bb4565b810190811067ffffffffffffffff821117610bf657604052565b610bbe565b90610c0e610c076100f2565b9283610bd2565b565b610c1a60e0610bfb565b90565b5f90565b5f90565b610c2d610c10565b90602080808080808088610c3f610c1d565b815201610c4a610c21565b815201610c55610c21565b815201610c60610c21565b815201610c6b610c21565b815201610c76610c21565b815201610c81610c1d565b81525050565b610c8f610c25565b90565b90610c9c90610285565b9052565b90610caa9061026c565b9052565b610cb8905161026c565b90565b5f1b90565b90610cd160018060a01b0391610cbb565b9181191691161790565b90565b90610cf3610cee610cfa92610751565b610cdb565b8254610cc0565b9055565b610d089051610285565b90565b60a81b90565b90610d2060ff60a81b91610d0b565b9181191691161790565b90610d3f610d3a610d4692610957565b610963565b8254610d11565b9055565b60b01b90565b90610d5f60ff60b01b91610d4a565b9181191691161790565b90610d7e610d79610d8592610957565b610963565b8254610d50565b9055565b60b81b90565b90610d9e60ff60b81b91610d89565b9181191691161790565b90610dbd610db8610dc492610957565b610963565b8254610d8f565b9055565b60c01b90565b90610ddd60ff60c01b91610dc8565b9181191691161790565b90610dfc610df7610e0392610957565b610963565b8254610dce565b9055565b90610eaa60c06001610eb094610e2a5f8201610e245f8801610cae565b90610cde565b610e425f8201610e3c60208801610cfe565b90610966565b610e5a5f8201610e5460408801610cfe565b90610d2a565b610e725f8201610e6c60608801610cfe565b90610d69565b610e8a5f8201610e8460808801610cfe565b90610da8565b610ea25f8201610e9c60a08801610cfe565b90610de7565b019201610cae565b90610cde565b565b90610ebc91610e07565b565b610f8792610f77610f809282610ee4610ede610ed95f610b26565b61026c565b9161026c565b148015610fc2575b610ef590610b8b565b610f6f610f0133610833565b95610f0a610c87565b9680610f1f610f1960016107ba565b916103c6565b14610faf575b80610f39610f3360026107d9565b916103c6565b14610f9c575b610f52610f4c60036107f8565b916103c6565b14610f89575b610f66600160208901610c92565b60a08701610c92565b5f8501610ca0565b60c08301610ca0565b6005610eb2565b565b610f97600160808901610c92565b610f58565b610faa600160608a01610c92565b610f3f565b610fbd600160408a01610c92565b610f25565b50610fcc83610833565b610fde610fd85f610817565b916103c6565b1180611010575b80610ff0575b610eec565b50610ef5836110076110013361026c565b9161026c565b14159050610feb565b508061102461101e3361026c565b9161026c565b1415610fe5565b906110369291610aec565b565b611066906110613361105b6110556110506003610133565b61026c565b9161026c565b146108fd565b611068565b565b611073906003610d69565b565b61107e90611038565b565b6110ae906110a9336110a361109d6110986002610133565b61026c565b9161026c565b146108fd565b6110b0565b565b6110bb906003610d2a565b565b6110c690611080565b565b906110e492916110df6110da336109e0565b610ac3565b61114c565b565b634e487b7160e01b5f52601160045260245ffd5b611103906103c6565b5f1981146111115760010190565b6110e6565b9061112260ff91610cbb565b9181191691161790565b9061114161113c61114892610957565b610963565b8254611116565b9055565b9161115a6001600501610133565b61117461116e6111695f610b26565b61026c565b9161026c565b148015611595575b61118590610b8b565b5f1461157c5761119433610833565b6111a05f600501610160565b80611561575b8061153c575b80611517575b611504575b6111c35f600501610160565b806114e9575b806114c4575b8061149f575b61148c575b6111e65f600501610160565b9081611470575b508061144b575b80611426575b611413575b6112085f610817565b6112145f600501610187565b611405575b6112255f6005016101ae565b6113f7575b6112365f6005016101d5565b6113e9575b6112475f600501610160565b90816113cd575b50806113a8575b80611383575b611265575b50505b565b6112726001600501610133565b61128c6112866112815f610b26565b61026c565b9161026c565b145f146112c257906112a36112a89291600461075d565b61112c565b5b6112bb6112b4610c87565b6005610eb2565b5f80611260565b506112d86112d36001600501610133565b610833565b806112ec6112e660016107ba565b916103c6565b145f1461132657506112ff906001610cde565b5b61130b5f6003610966565b6113165f6003610d2a565b6113215f6003610d69565b6112a9565b8061133a61133460026107d9565b916103c6565b145f14611353575061134d906002610cde565b5b611300565b61136661136060036107f8565b916103c6565b14611372575b5061134e565b61137d906003610cde565b5f61136c565b506113905f6005016101fc565b6113a261139c83610285565b91610285565b1461125b565b506113b55f600501610133565b6113c76113c18461026c565b9161026c565b14611255565b90506113e26113dc60026107d9565b916103c6565b145f61124e565b6113f2906110fa565b61123b565b611400906110fa565b61122a565b61140e906110fa565b611219565b61142160015f600501610da8565b6111ff565b506114335f6005016101fc565b61144561143f83610285565b91610285565b146111fa565b506114585f600501610133565b61146a6114648461026c565b9161026c565b146111f4565b905061148561147f60036107f8565b916103c6565b145f6111ed565b61149a60015f600501610d69565b6111da565b506114ac5f6005016101fc565b6114be6114b884610285565b91610285565b146111d5565b506114d15f600501610133565b6114e36114dd8561026c565b9161026c565b146111cf565b50806114fe6114f860026107d9565b916103c6565b146111c9565b61151260015f600501610d2a565b6111b7565b506115245f6005016101fc565b61153661153084610285565b91610285565b146111b2565b506115495f600501610133565b61155b6115558561026c565b9161026c565b146111ac565b508061157661157060016107ba565b916103c6565b146111a6565b5050611590611589610c87565b6005610eb2565b611263565b506115ab6115a66001600501610133565b610833565b6115bd6115b75f610817565b916103c6565b11806115c9575b61117c565b506111856115da6001600501610133565b6115ec6115e63361026c565b9161026c565b141590506115c4565b9061160092916110c8565b565b61160e6116139161010f565b6105df565b90565b6116209054611602565b90565b611632611638919392936103c6565b926103c6565b820391821161164357565b6110e6565b61165761165d919392936103c6565b926103c6565b820180921161166857565b6110e6565b6116756107b3565b506116ac61169c61168542611766565b6116966116915f611616565b611766565b90611623565b6116a660016107ba565b90611648565b90565b90565b6116c66116c16116cb926116af565b610726565b6103c6565b90565b6116da620151806116b2565b90565b6116ec6116f2919392936103c6565b926103c6565b916116fe8382026103c6565b92818404149015171561170d57565b6110e6565b61172d60016117286117226116ce565b916107ba565b6116dd565b90565b634e487b7160e01b5f52601260045260245ffd5b611750611756916103c6565b916103c6565b908115611761570490565b611730565b611781906117726107b3565b5061177b611712565b90611744565b9056fea2646970667358221220923d1b6673ba14aa3f3b64d74d6fa99d3cca587d8cdb4bb4d364c74b02c25ac764736f6c634300081800336080604052346200002d5762000014620000ae565b6200001e62000033565b6123cc620000c682396123cc90f35b62000039565b60405190565b5f80fd5b5f1b90565b90620000505f19916200003d565b9181191691161790565b90565b90565b90565b6200007c6200007662000082926200005a565b62000060565b6200005d565b90565b90565b90620000a26200009c620000aa9262000063565b62000085565b825462000042565b9055565b620000c3674563918244f40000600e62000088565b56fe60806040526004361015610018575b361561001657005b005b6100225f356100d1565b80630d43aaf2146100cc57806312065fe0146100c757806315ec7fad146100c2578063379a423c146100bd57806341ffe7c4146100b857806360af454d146100b35780637d8ec03a146100ae5780638da5cb5b146100a9578063abb8c965146100a4578063b90306ad1461009f5763f3fef3a30361000e5761061b565b6105c5565b610591565b61050c565b6104c2565b610453565b610420565b6103eb565b610362565b6102e7565b610289565b60e01c90565b60405190565b5f80fd5b5f80fd5b5f9103126100ef57565b6100e1565b5f1c90565b60018060a01b031690565b610110610115916100f4565b6100f9565b90565b6101229054610104565b90565b60a01c90565b60ff1690565b61013d61014291610125565b61012b565b90565b61014f9054610131565b90565b60a81c90565b61016461016991610152565b61012b565b90565b6101769054610158565b90565b60b01c90565b61018b61019091610179565b61012b565b90565b61019d905461017f565b90565b60b81c90565b6101b26101b7916101a0565b61012b565b90565b6101c490546101a6565b90565b600d6101d45f8201610118565b916101e05f8301610145565b916101ec5f820161016c565b916102035f6101fc818501610193565b93016101ba565b90565b60018060a01b031690565b61021a90610206565b90565b61022690610211565b9052565b151590565b6102389061022a565b9052565b90959492610287946102766102809261026c60809661026260a088019c5f89019061021d565b602087019061022f565b604085019061022f565b606083019061022f565b019061022f565b565b346102bd576102993660046100e5565b6102b96102a46101c7565b916102b09593956100d7565b9586958661023c565b0390f35b6100dd565b90565b6102ce906102c2565b9052565b91906102e5905f602085019401906102c5565b565b34610317576102f73660046100e5565b610313610302610680565b61030a6100d7565b918291826102d2565b0390f35b6100dd565b610325816102c2565b0361032c57565b5f80fd5b9050359061033d8261031c565b565b9060208282031261035857610355915f01610330565b90565b6100e1565b5f0190565b346103905761037a61037536600461033f565b6109f5565b6103826100d7565b8061038c8161035d565b0390f35b6100dd565b61039e81610211565b036103a557565b5f80fd5b905035906103b682610395565b565b906020828203126103d1576103ce915f016103a9565b90565b6100e1565b91906103e9905f6020850194019061022f565b565b3461041b576104176104066104013660046103b8565b610a04565b61040e6100d7565b918291826103d6565b0390f35b6100dd565b3461044e576104386104333660046103b8565b61113c565b6104406100d7565b8061044a8161035d565b0390f35b6100dd565b346104815761046b6104663660046103b8565b61128b565b6104736100d7565b8061047d8161035d565b0390f35b6100dd565b1c90565b90565b61049d9060086104a29302610486565b61048a565b90565b906104b0915461048d565b90565b6104bf600e5f906104a5565b90565b346104f2576104d23660046100e5565b6104ee6104dd6104b3565b6104e56100d7565b918291826102d2565b0390f35b6100dd565b919061050a905f6020850194019061021d565b565b3461053c5761051c3660046100e5565b6105386105276112f2565b61052f6100d7565b918291826104f7565b0390f35b6100dd565b61054a8161022a565b0361055157565b5f80fd5b9050359061056282610541565b565b919060408382031261058c5780610580610589925f86016103a9565b93602001610555565b90565b6100e1565b346105c0576105aa6105a4366004610564565b9061179f565b6105b26100d7565b806105bc8161035d565b0390f35b6100dd565b6105d86105d336600461033f565b61193a565b6105e06100d7565b806105ea8161035d565b0390f35b9190604083820312610616578061060a610613925f86016103a9565b93602001610330565b90565b6100e1565b61062f6106293660046105ee565b90611b90565b6106376100d7565b806106418161035d565b0390f35b5f90565b90565b61066061065b61066592610206565b610649565b610206565b90565b6106719061064c565b90565b61067d90610668565b90565b610688610645565b5061069230610674565b3190565b60018060a01b031690565b6106ad6106b2916100f4565b610696565b90565b6106bf90546106a1565b90565b6106cb90610668565b90565b601f801991011690565b634e487b7160e01b5f52604160045260245ffd5b906106f6906106ce565b810190811067ffffffffffffffff82111761071057604052565b6106d8565b60e01b90565b9050519061072882610541565b565b9060208282031261074357610740915f0161071b565b90565b6100e1565b6107506100d7565b3d5f823e3d90fd5b60209181520190565b5f7f6f776e2e696e76616c69642e6973536166650000000000000000000000000000910152565b6107956012602092610758565b61079e81610761565b0190565b6107b79060208101905f818303910152610788565b90565b156107c157565b6107c96100d7565b62461bcd60e51b8152806107df600482016107a2565b0390fd5b5f7f496e76616c696420536166654f776e6572000000000000000000000000000000910152565b6108176011602092610758565b610820816107e3565b0190565b6108399060208101905f81830391015261080a565b90565b1561084357565b61084b6100d7565b62461bcd60e51b81528061086160048201610824565b0390fd5b61089390602061087d61087860026106b5565b6106c2565b636a276f9d9061088b6100d7565b948592610715565b825281806108a36004820161035d565b03915afa91821561098957610901926108c3915f9161095b575b506107ba565b60206108d76108d260026106b5565b6106c2565b6319c06429906108f633926108ea6100d7565b96879485938493610715565b8352600483016104f7565b03915afa9182156109565761092692610921915f91610928575b5061083c565b6109e8565b565b610949915060203d811161094f575b61094181836106ec565b81019061072a565b5f61091b565b503d610937565b610748565b61097c915060203d8111610982575b61097481836106ec565b81019061072a565b5f6108bd565b503d61096a565b610748565b5f1b90565b9061099f5f199161098e565b9181191691161790565b6109bd6109b86109c2926102c2565b610649565b6102c2565b90565b90565b906109dd6109d86109e4926109a9565b6109c5565b8254610993565b9055565b6109f390600e6109c8565b565b6109fe90610865565b565b5f90565b610a0c610a00565b50610a4e6020610a24610a1f60026106b5565b6106c2565b6319c0642990610a438592610a376100d7565b95869485938493610715565b8352600483016104f7565b03915afa908115610ac0575f91610a92575b50908115610a6d575b5090565b9050610a8b610a85610a7f600c610118565b92610211565b91610211565b145f610a69565b610ab3915060203d8111610ab9575b610aab81836106ec565b81019061072a565b5f610a60565b503d610aa1565b610748565b60018060a01b031690565b610adc610ae1916100f4565b610ac5565b90565b610aee9054610ad0565b90565b610afa90610668565b90565b5f7f6f776d2e66616b652e2064656c65676174650000000000000000000000000000910152565b610b316012602092610758565b610b3a81610afd565b0190565b610b539060208101905f818303910152610b24565b90565b15610b5d57565b610b656100d7565b62461bcd60e51b815280610b7b60048201610b3e565b0390fd5b610bac6020610b96610b9160026106b5565b6106c2565b636a276f9d90610ba46100d7565b938492610715565b82528180610bbc6004820161035d565b03915afa8015610cde57610bd7915f91610cb0575b506107ba565b610be9610be46001610ae4565b610af1565b610bfb610bf533610211565b91610211565b14908115610c17575b610c10610c1592610b56565b610ffd565b565b610c5a91506020610c30610c2b60026106b5565b6106c2565b637df73e2790610c4f3392610c436100d7565b96879485938493610715565b8352600483016104f7565b03915afa918215610cab57610c1592610c10915f91610c7d575b50925050610c04565b610c9e915060203d8111610ca4575b610c9681836106ec565b81019061072a565b5f610c74565b503d610c8c565b610748565b610cd1915060203d8111610cd7575b610cc981836106ec565b81019061072a565b5f610bd1565b503d610cbf565b610748565b90505190610cf08261031c565b565b90602082820312610d0b57610d08915f01610ce3565b90565b6100e1565b90610d23610d1c6100d7565b92836106ec565b565b610d2f60a0610d10565b90565b5f90565b5f90565b610d42610d25565b9060208080808086610d52610d32565b815201610d5d610d36565b815201610d68610d36565b815201610d73610d36565b815201610d7e610d36565b81525050565b610d8c610d3a565b90565b90610d999061022a565b9052565b90565b610db4610daf610db992610d9d565b610649565b6102c2565b90565b90565b610dd3610dce610dd892610dbc565b610649565b6102c2565b90565b90565b610df2610ded610df792610ddb565b610649565b6102c2565b90565b90610e0490610211565b9052565b610e129051610211565b90565b90610e2660018060a01b039161098e565b9181191691161790565b610e3990610668565b90565b90565b90610e54610e4f610e5b92610e30565b610e3c565b8254610e15565b9055565b610e69905161022a565b90565b60a01b90565b90610e8160ff60a01b91610e6c565b9181191691161790565b610e949061022a565b90565b90565b90610eaf610eaa610eb692610e8b565b610e97565b8254610e72565b9055565b60a81b90565b90610ecf60ff60a81b91610eba565b9181191691161790565b90610eee610ee9610ef592610e8b565b610e97565b8254610ec0565b9055565b60b01b90565b90610f0e60ff60b01b91610ef9565b9181191691161790565b90610f2d610f28610f3492610e8b565b610e97565b8254610eff565b9055565b60b81b90565b90610f4d60ff60b81b91610f38565b9181191691161790565b90610f6c610f67610f7392610e8b565b610e97565b8254610f3e565b9055565b90610fe960805f610fef94610f99828201610f93848801610e08565b90610e3f565b610fb1828201610fab60208801610e5f565b90610e9a565b610fc9828201610fc360408801610e5f565b90610ed9565b610fe1828201610fdb60608801610e5f565b90610f18565b019201610e5f565b90610f57565b565b90610ffb91610f77565b565b61103f90602061101561101060026106b5565b6106c2565b631d84be449061103433926110286100d7565b96879485938493610715565b8352600483016104f7565b03915afa918215611137576110ce926110c7915f91611109575b5091611063610d84565b92611072600160208601610d8f565b806110866110806001610da0565b916102c2565b146110f6575b806110a061109a6002610dbf565b916102c2565b146110e3575b6110b96110b36003610dde565b916102c2565b146110d0575b5f8301610dfa565b600d610ff1565b565b6110de600160808501610d8f565b6110bf565b6110f1600160608601610d8f565b6110a6565b611104600160408601610d8f565b61108c565b61112a915060203d8111611130575b61112281836106ec565b810190610cf2565b5f611059565b503d611118565b610748565b61114590610b7f565b565b60018060a01b031690565b61115e611163916100f4565b611147565b90565b6111709054611152565b90565b61117c90610668565b90565b90565b61119661119161119b9261117f565b610649565b610206565b90565b6111a790611182565b90565b5f7f6f776e2e686578626173652e6661696c65640000000000000000000000000000910152565b6111de6012602092610758565b6111e7816111aa565b0190565b6112009060208101905f8183039101526111d1565b90565b1561120a57565b6112126100d7565b62461bcd60e51b815280611228600482016111eb565b0390fd5b6112359061064c565b90565b6112419061122c565b90565b61124d9061064c565b90565b61125990611244565b90565b61126590611244565b90565b90565b9061128061127b6112879261125c565b611268565b8254610e15565b9055565b6112de6112d96112e4926112c96112a96112a45f611166565b611173565b6112c36112bd6112b85f61119e565b610211565b91610211565b14611203565b6112d432600c610e3f565b611238565b611250565b5f61126b565b6112ec611d2c565b565b5f90565b6112fa6112ee565b50611305600c610118565b90565b90611336602061132061131b60026106b5565b6106c2565b636a276f9d9061132e6100d7565b938492610715565b825281806113466004820161035d565b03915afa801561146857611361915f9161143a575b506107ba565b61137361136e6001610ae4565b610af1565b61138561137f33610211565b91610211565b149182156113a1575b61139a61139f93610b56565b6114b9565b565b6113e4925060206113ba6113b560026106b5565b6106c2565b637df73e27906113d933926113cd6100d7565b97889485938493610715565b8352600483016104f7565b03915afa9283156114355761139f9361139a915f91611407575b5093505061138e565b611428915060203d811161142e575b61142081836106ec565b81019061072a565b5f6113fe565b503d611416565b610748565b61145b915060203d8111611461575b61145381836106ec565b81019061072a565b5f61135b565b503d611449565b610748565b61148161147c6114869261117f565b610649565b6102c2565b90565b634e487b7160e01b5f52601160045260245ffd5b6114a6906102c2565b5f1981146114b45760010190565b611489565b905f146117875761150160206114d76114d260026106b5565b6106c2565b631d84be44906114f633926114ea6100d7565b95869485938493610715565b8352600483016104f7565b03915afa908115611782575f91611754575b506115205f600d01610145565b80611739575b80611714575b611701575b61153d5f600d01610145565b806116e6575b806116c1575b6116ae575b61155a5f600d01610145565b9081611692575b508061166d575b61165a575b6115765f61146d565b6115825f600d0161016c565b61164c575b6115935f600d01610193565b61163e575b6115a45f600d016101ba565b611630575b6115b55f600d01610145565b9081611614575b50806115ef575b6115cc575b505b565b6115d790600c610e3f565b6115e96115e2610d84565b600d610ff1565b5f6115c8565b506115fc5f600d01610118565b61160e61160883610211565b91610211565b146115c3565b90506116296116236002610dbf565b916102c2565b145f6115bc565b6116399061149d565b6115a9565b6116479061149d565b611598565b6116559061149d565b611587565b61166860015f600d01610f57565b61156d565b5061167a5f600d01610118565b61168c61168683610211565b91610211565b14611568565b90506116a76116a16003610dde565b916102c2565b145f611561565b6116bc60015f600d01610f18565b61154e565b506116ce5f600d01610118565b6116e06116da84610211565b91610211565b14611549565b50806116fb6116f56002610dbf565b916102c2565b14611543565b61170f60015f600d01610ed9565b611531565b506117215f600d01610118565b61173361172d84610211565b91610211565b1461152c565b508061174e6117486001610da0565b916102c2565b14611526565b611775915060203d811161177b575b61176d81836106ec565b810190610cf2565b5f611513565b503d611763565b610748565b5061179a611793610d84565b600d610ff1565b6115ca565b906117a991611308565b565b5f7f6f776e2e6e6f6e617574682e44414f0000000000000000000000000000000000910152565b6117df600f602092610758565b6117e8816117ab565b0190565b6118019060208101905f8183039101526117d2565b90565b1561180b57565b6118136100d7565b62461bcd60e51b815280611829600482016117ec565b0390fd5b61185b90602061184561184060026106b5565b6106c2565b636a276f9d906118536100d7565b948592610715565b8252818061186b6004820161035d565b03915afa9182156118ed576118bd9261188b915f916118bf575b506107ba565b6118b86118a061189b6001610ae4565b610af1565b6118b26118ac33610211565b91610211565b14611804565b6118fe565b565b6118e0915060203d81116118e6575b6118d881836106ec565b81019061072a565b5f611885565b503d6118ce565b610748565b6118fb90610668565b90565b5f8080809361191c6119176119128461119e565b611238565b6118f2565b828215611931575bf11561192c57565b610748565b506108fc611924565b6119439061182d565b565b5f7f6f776e2e64656661756c742e73656e6465720000000000000000000000000000910152565b6119796012602092610758565b61198281611945565b0190565b61199b9060208101905f81830391015261196c565b90565b156119a557565b6119ad6100d7565b62461bcd60e51b8152806119c360048201611986565b0390fd5b906119f6916119f1816119ea6119e46119df5f61119e565b610211565b91610211565b141561199e565b6119f8565b565b90611a27916020611a11611a0c60026106b5565b6106c2565b636a276f9d90611a1f6100d7565b958692610715565b82528180611a376004820161035d565b03915afa928315611ab957611a8993611a57915f91611a8b575b506107ba565b611a84611a6c611a676001610ae4565b610af1565b611a7e611a7833610211565b91610211565b14611804565b611b40565b565b611aac915060203d8111611ab2575b611aa481836106ec565b81019061072a565b5f611a51565b503d611a9a565b610748565b5f7f6f776e2e696e76616c69642e616d6f756e740000000000000000000000000000910152565b611af26012602092610758565b611afb81611abe565b0190565b611b149060208101905f818303910152611ae5565b90565b15611b1e57565b611b266100d7565b62461bcd60e51b815280611b3c60048201611aff565b0390fd5b5f808093611b72611b6d8395611b6884611b62611b5c8861146d565b916102c2565b11611b17565b611238565b6118f2565b828215611b87575bf115611b8257565b610748565b506108fc611b7a565b90611b9a916119c7565b565b90505190611ba982610395565b565b90602082820312611bc457611bc1915f01611b9c565b90565b6100e1565b611bd29061064c565b90565b611bde90611bc9565b90565b611bea90611bc9565b90565b90565b90611c05611c00611c0c92611be1565b611bed565b8254610e15565b9055565b611c199061064c565b90565b611c2590611c10565b90565b611c3190611c10565b90565b90565b90611c4c611c47611c5392611c28565b611c34565b8254610e15565b9055565b611c609061064c565b90565b611c6c90611c57565b90565b611c7890611c57565b90565b90565b90611c93611c8e611c9a92611c6f565b611c7b565b8254610e15565b9055565b611ca79061064c565b90565b611cb390611c9e565b90565b611cbf90611c9e565b90565b90565b90611cda611cd5611ce192611cb6565b611cc2565b8254610e15565b9055565b611cee9061064c565b90565b611cfa90611ce5565b90565b611d0690611ce5565b90565b90565b90611d21611d1c611d2892611cfd565b611d09565b8254610e15565b9055565b611d3d611d385f611166565b611173565b611d57611d51611d4c5f61119e565b610211565b91610211565b1461239457611d886020611d72611d6d5f611166565b611173565b634162169f90611d806100d7565b938492610715565b82528180611d986004820161035d565b03915afa90811561238f57611dbf91611db8915f91612361575b50611bd5565b6001611bf0565b611deb6020611dd5611dd05f611166565b611173565b63b57dbdc690611de36100d7565b938492610715565b82528180611dfb6004820161035d565b03915afa90811561235c57611e2291611e1b915f9161232e575b50611c1c565b6002611c37565b611e4e6020611e38611e335f611166565b611173565b63cfbffe5390611e466100d7565b938492610715565b82528180611e5e6004820161035d565b03915afa90811561232957611e8591611e7e915f916122fb575b50611c63565b6003611c7e565b611eb16020611e9b611e965f611166565b611173565b63ab6e844f90611ea96100d7565b938492610715565b82528180611ec16004820161035d565b03915afa9081156122f657611ee891611ee1915f916122c8575b50611caa565b6004611cc5565b611f146020611efe611ef95f611166565b611173565b639a7c407790611f0c6100d7565b938492610715565b82528180611f246004820161035d565b03915afa9081156122c357611f4b91611f44915f91612295575b50611cf1565b6005611d0c565b611f776020611f61611f5c5f611166565b611173565b63aa0ddc1690611f6f6100d7565b938492610715565b82528180611f876004820161035d565b03915afa801561229057611fa4915f91612262575b506007610e3f565b611fd06020611fba611fb55f611166565b611173565b636b4aefc690611fc86100d7565b938492610715565b82528180611fe06004820161035d565b03915afa801561225d57611ffd915f9161222f575b506008610e3f565b612029602061201361200e5f611166565b611173565b6324768d91906120216100d7565b938492610715565b825281806120396004820161035d565b03915afa801561222a57612056915f916121fc575b50600b610e3f565b612082602061206c6120675f611166565b611173565b63640274279061207a6100d7565b938492610715565b825281806120926004820161035d565b03915afa80156121f7576120af915f916121c9575b506009610e3f565b6120db60206120c56120c05f611166565b611173565b6330125cf5906120d36100d7565b938492610715565b825281806120eb6004820161035d565b03915afa80156121c457612108915f91612196575b50600a610e3f565b612134602061211e6121195f611166565b611173565b63d3d1b0969061212c6100d7565b938492610715565b825281806121446004820161035d565b03915afa801561219157612161915f91612163575b506006610e3f565b565b612184915060203d811161218a575b61217c81836106ec565b810190611bab565b5f612159565b503d612172565b610748565b6121b7915060203d81116121bd575b6121af81836106ec565b810190611bab565b5f612100565b503d6121a5565b610748565b6121ea915060203d81116121f0575b6121e281836106ec565b810190611bab565b5f6120a7565b503d6121d8565b610748565b61221d915060203d8111612223575b61221581836106ec565b810190611bab565b5f61204e565b503d61220b565b610748565b612250915060203d8111612256575b61224881836106ec565b810190611bab565b5f611ff5565b503d61223e565b610748565b612283915060203d8111612289575b61227b81836106ec565b810190611bab565b5f611f9c565b503d612271565b610748565b6122b6915060203d81116122bc575b6122ae81836106ec565b810190611bab565b5f611f3e565b503d6122a4565b610748565b6122e9915060203d81116122ef575b6122e181836106ec565b810190611bab565b5f611edb565b503d6122d7565b610748565b61231c915060203d8111612322575b61231481836106ec565b810190611bab565b5f611e78565b503d61230a565b610748565b61234f915060203d8111612355575b61234781836106ec565b810190611bab565b5f611e15565b503d61233d565b610748565b612382915060203d8111612388575b61237a81836106ec565b810190611bab565b5f611db2565b503d612370565b610748565b56fea264697066735822122092f6a010c800628f5c9a7027b42d946968204c673e3fa38dbb764acb2207419364736f6c634300081800336080604052346300000033576300000017630000141c565b6300000023630000003a565b6164866300002b65823961648690f35b6300000040565b60405190565b5f80fd5b5f1b90565b9063000000595f19916300000044565b9181191691161790565b90565b90565b90565b630000008a63000000836300000091926300000063565b6300000069565b6300000066565b90565b90565b9063000000b663000000af63000000bf92630000006c565b6300000094565b82546300000049565b9055565b90565b63000000e463000000dd63000000eb9263000000c3565b6300000069565b6300000066565b90565b90630000010d630000010663000001169263000000c6565b6300000094565b82546300000049565b9055565b90565b630000013b6300000134630000014292630000011a565b6300000069565b6300000066565b90565b906300000164630000015d630000016d92630000011d565b6300000094565b82546300000049565b9055565b90565b6300000192630000018b6300000199926300000171565b6300000069565b6300000066565b90565b9063000001bb63000001b463000001c4926300000174565b6300000094565b82546300000049565b9055565b90565b63000001e963000001e263000001f09263000001c8565b6300000069565b6300000066565b90565b906300000212630000020b630000021b9263000001cb565b6300000094565b82546300000049565b9055565b90565b63000002406300000239630000024792630000021f565b6300000069565b6300000066565b90565b90630000026963000002626300000272926300000222565b6300000094565b82546300000049565b9055565b90565b63000002976300000290630000029e926300000276565b6300000069565b6300000066565b90565b9063000002c063000002b963000002c9926300000279565b6300000094565b82546300000049565b9055565b90565b63000002ee63000002e763000002f59263000002cd565b6300000069565b6300000066565b90565b906300000317630000031063000003209263000002d0565b6300000094565b82546300000049565b9055565b90565b6300000345630000033e630000034c926300000324565b6300000069565b6300000066565b90565b90630000036e63000003676300000377926300000327565b6300000094565b82546300000049565b9055565b90565b630000039c630000039563000003a392630000037b565b6300000069565b6300000066565b90565b9063000003c563000003be63000003ce92630000037e565b6300000094565b82546300000049565b9055565b90565b63000003f363000003ec63000003fa9263000003d2565b6300000069565b6300000066565b90565b90630000041c630000041563000004259263000003d5565b6300000094565b82546300000049565b9055565b90565b630000044a63000004436300000451926300000429565b6300000069565b6300000066565b90565b906300000473630000046c630000047c92630000042c565b6300000094565b82546300000049565b9055565b601f801991011690565b634e487b7160e01b5f52604160045260245ffd5b9063000004ac906300000480565b810190811060018060401b0382111763000004c657604052565b630000048a565b9063000004e863000004df630000003a565b9283630000049e565b565b63000004f860e063000004cd565b90565b5f90565b630000050b63000004ea565b90602080808080808088630000052163000004fb565b815201630000053063000004fb565b815201630000053f63000004fb565b815201630000054e63000004fb565b815201630000055d63000004fb565b815201630000056c63000004fb565b815201630000057b63000004fb565b81525050565b630000058d63000004ff565b90565b90630000059e906300000066565b9052565b90565b63000005c363000005bc63000005ca9263000005a2565b6300000069565b6300000066565b90565b90565b63000005ee63000005e763000005f59263000005cd565b6300000069565b6300000066565b90565b90565b6300000619630000061263000006209263000005f8565b6300000069565b6300000066565b90565b630000063190516300000066565b90565b6300000652630000064b6300000659926300000066565b6300000069565b6300000066565b90565b90630000067b63000006746300000684926300000634565b6300000094565b82546300000049565b9055565b90630000076660c06006630000076e9463000006b75f820163000006af5f88016300000623565b90630000065c565b63000006d86001820163000006d0602088016300000623565b90630000065c565b63000006f96002820163000006f1604088016300000623565b90630000065c565b630000071a600382016300000712606088016300000623565b90630000065c565b630000073b600482016300000733608088016300000623565b90630000065c565b630000075c60058201630000075460a088016300000623565b90630000065c565b0192016300000623565b90630000065c565b565b90630000077e916300000688565b565b90565b63000007a1630000079a63000007a8926300000780565b6300000069565b6300000066565b90565b90565b63000007cc63000007c563000007d39263000007ab565b6300000069565b6300000066565b90565b63000007e4606063000004cd565b90565b63000007f363000007d6565b906020808084630000080563000004fb565b815201630000081463000004fb565b815201630000082363000004fb565b81525050565b630000083563000007e7565b90565b90565b630000085963000008526300000860926300000838565b6300000069565b6300000066565b90565b90565b6300000884630000087d630000088b926300000863565b6300000069565b6300000066565b90565b9063000008e86040600263000008f09463000008bd5f820163000008b55f88016300000623565b90630000065c565b63000008de6001820163000008d6602088016300000623565b90630000065c565b0192016300000623565b90630000065c565b565b90630000090091630000088e565b565b90565b6300000923630000091c630000092a926300000902565b6300000069565b6300000066565b90565b630000093b60a063000004cd565b90565b5f90565b630000094e630000092d565b9060208080808086630000096263000004fb565b8152016300000971630000093e565b8152016300000980630000093e565b815201630000098f630000093e565b815201630000099e630000093e565b81525050565b63000009b06300000942565b90565b90565b63000009d463000009cd63000009db9263000009b3565b6300000069565b6300000066565b90565b151590565b9063000009f19063000009de565b9052565b6300000a03905163000009de565b90565b906300000a1660ff916300000044565b9181191691161790565b6300000a2d9063000009de565b90565b90565b906300000a526300000a4b6300000a5b926300000a20565b6300000a30565b82546300000a06565b9055565b60081b90565b906300000a7661ff00916300000a5f565b9181191691161790565b906300000a9f6300000a986300000aa8926300000a20565b6300000a30565b82546300000a65565b9055565b60101b90565b906300000ac462ff0000916300000aac565b9181191691161790565b906300000aed6300000ae66300000af6926300000a20565b6300000a30565b82546300000ab2565b9055565b60181b90565b906300000b1363ff000000916300000afa565b9181191691161790565b906300000b3c6300000b356300000b45926300000a20565b6300000a30565b82546300000b00565b9055565b906300000be2608060016300000bea946300000b785f82016300000b705f88016300000623565b90630000065c565b6300000b988282016300000b906020880163000009f5565b906300000a33565b6300000bb88282016300000bb06040880163000009f5565b906300000a80565b6300000bd88282016300000bd06060880163000009f5565b906300000ace565b01920163000009f5565b906300000b1d565b565b906300000bfa916300000b49565b565b6300000c0a604063000004cd565b90565b90565b6300000c2e6300000c276300000c35926300000c0d565b6300000069565b6300000066565b90565b906300000c46906300000327565b5f5260205260405f2090565b906300000c8b602060016300000c93946300000c815f82016300000c795f88016300000623565b90630000065c565b0192016300000623565b90630000065c565b565b906300000ca3916300000c52565b565b906300000cb390630000037e565b5f5260205260405f2090565b90565b6300000ce06300000cd96300000ce7926300000cbf565b6300000069565b6300000066565b90565b90565b6300000d0b6300000d046300000d12926300000cea565b6300000069565b6300000066565b90565b906300000d23906300000ced565b5f5260205260405f2090565b90565b6300000d506300000d496300000d57926300000d2f565b6300000069565b6300000066565b90565b906300000d689063000009b6565b5f5260205260405f2090565b90565b6300000d956300000d8e6300000d9c926300000d74565b6300000069565b6300000066565b90565b90565b6300000dc06300000db96300000dc7926300000d9f565b6300000069565b6300000066565b90565b906300000dd8906300000da2565b5f5260205260405f2090565b90565b6300000e056300000dfe6300000e0c926300000de4565b6300000069565b6300000066565b90565b906300000e1d906300000de7565b5f5260205260405f2090565b90565b6300000e4a6300000e436300000e51926300000e29565b6300000069565b6300000066565b90565b906300000e62906300000c10565b5f5260205260405f2090565b6300000e7c60a063000004cd565b90565b90565b6300000ea06300000e996300000ea7926300000e7f565b6300000069565b6300000066565b90565b906300000eb8906300000327565b5f5260205260405f2090565b906300000f60608060046300000f68946300000ef35f82016300000eeb5f88016300000623565b90630000065c565b6300000f14600182016300000f0c602088016300000623565b90630000065c565b6300000f35600282016300000f2d604088016300000623565b90630000065c565b6300000f56600382016300000f4e606088016300000623565b90630000065c565b0192016300000623565b90630000065c565b565b906300000f78916300000ec4565b565b906300000f8890630000037e565b5f5260205260405f2090565b90565b6300000fb56300000fae6300000fbc926300000f94565b6300000069565b6300000066565b90565b906300000fcd906300000ced565b5f5260205260405f2090565b906300000fe79063000009b6565b5f5260205260405f2090565b906300001001906300000da2565b5f5260205260405f2090565b90565b630000102e6300001027630000103592630000100d565b6300000069565b6300000066565b90565b90565b630000105963000010526300001060926300001038565b6300000069565b6300000066565b90565b906300001071906300000de7565b5f5260205260405f2090565b90630000108b906300000c10565b5f5260205260405f2090565b90565b63000010b863000010b163000010bf926300001097565b6300000069565b6300000066565b90565b9063000010d090630000109a565b5f5260205260405f2090565b9063000010ea9063000007ae565b5f5260205260405f2090565b90630000110490630000042c565b5f5260205260405f2090565b90565b6300001131630000112a6300001138926300001110565b6300000069565b6300000066565b90565b906300001149906300001113565b5f5260205260405f2090565b90565b6300001176630000116f630000117d926300001155565b6300000069565b6300000066565b90565b90630000118e906300001158565b5f5260205260405f2090565b90565b63000011bb63000011b463000011c292630000119a565b6300000069565b6300000066565b90565b9063000011d390630000119d565b5f5260205260405f2090565b90565b630000120063000011f963000012079263000011df565b6300000069565b6300000066565b90565b9063000012189063000011e2565b5f5260205260405f2090565b906300001232906300000f97565b5f5260205260405f2090565b630000124c606063000004cd565b90565b90565b63000012706300001269630000127792630000124f565b6300000069565b6300000066565b90565b90565b630000129b630000129463000012a292630000127a565b6300000069565b6300000066565b90565b9063000012b3906300000ced565b5f5260205260405f2090565b9063000013196040600263000013219463000012ee5f820163000012e65f88016300000623565b90630000065c565b630000130f600182016300001307602088016300000623565b90630000065c565b0192016300000623565b90630000065c565b565b9063000013319163000012bf565b565b906300001341906300000da2565b5f5260205260405f2090565b90565b630000136e6300001367630000137592630000134d565b6300000069565b6300000066565b90565b906300001386906300000c10565b5f5260205260405f2090565b90565b63000013b363000013ac63000013ba926300001392565b6300000069565b6300000066565b90565b9063000013cb90630000037e565b5f5260205260405f2090565b90565b63000013f863000013f163000013ff9263000013d7565b6300000069565b6300000066565b90565b9063000014109063000009b6565b5f5260205260405f2090565b68015af1d78b58c4000063000014359060306300000097565b671bc16d674ec80000630000144d90603163000000ee565b678ac7230489e8000063000014659060326300000145565b601e6300001476906033630000019c565b670de0b6b3a7640000630000148e90603463000001f3565b680d8d726b7177a8000063000014a7906035630000024a565b670de0b6b3a764000063000014bf90603663000001f3565b670de0b6b3a764000063000014d790603763000001f3565b61014063000014e990603863000002a1565b601463000014fa90603963000002f8565b6001630000150b90603a630000034f565b6002630000151c90603b63000003a6565b612710630000152e90603c63000003fd565b6001630000153f90603d630000034f565b6001630000155090603e630000034f565b612710630000156290603f63000003fd565b600a63000015739060406300000454565b630000157f6300000581565b6001630000158e906300000327565b815f0190630000159f916300000590565b606463000015ae9063000005a5565b816020019063000015c0916300000590565b600163000015cf906300000327565b816040019063000015e1916300000590565b602363000015f09063000005d0565b81606001906300001602916300000590565b606463000016119063000005a5565b81608001906300001623916300000590565b60016300001632906300000327565b8160a001906300001644916300000590565b61025863000016549063000005fb565b8160c001906300001666916300000590565b63000016759060126300000770565b63000016816300000581565b60016300001690906300000327565b815f019063000016a1916300000590565b606463000016b09063000005a5565b816020019063000016c2916300000590565b600163000016d1906300000327565b816040019063000016e3916300000590565b600a63000016f290630000042c565b81606001906300001704916300000590565b606463000017139063000005a5565b81608001906300001725916300000590565b60016300001734906300000327565b8160a001906300001746916300000590565b6103e86300001756906300000783565b8160c001906300001768916300000590565b63000017779060196300000770565b63000017836300000581565b60016300001792906300000327565b815f019063000017a3916300000590565b606463000017b29063000005a5565b816020019063000017c4916300000590565b600163000017d3906300000327565b816040019063000017e5916300000590565b600963000017f49063000007ae565b81606001906300001806916300000590565b600a630000181590630000042c565b81608001906300001827916300000590565b60016300001836906300000327565b8160a001906300001848916300000590565b61025863000018589063000005fb565b8160c00190630000186a916300000590565b63000018799060206300000770565b63000018856300000829565b6019630000189490630000083b565b815f019063000018a5916300000590565b600a63000018b490630000042c565b816020019063000018c6916300000590565b605a63000018d5906300000866565b816040019063000018e7916300000590565b63000018f690602763000008f2565b63000019026300000829565b600a630000191190630000042c565b815f01906300001922916300000590565b60016300001931906300000327565b81602001906300001943916300000590565b6101686300001953906300000905565b81604001906300001965916300000590565b630000197490602a63000008f2565b630000198063000009a4565b6004630000198f9063000009b6565b815f019063000019a0916300000590565b5f816020019063000019b39163000009e3565b5f816040019063000019c69163000009e3565b5f816060019063000019d99163000009e3565b5f816080019063000019ec9163000009e3565b63000019fb90602d6300000bec565b600760196300001a0b6300000bfc565b916300001a19906300000c10565b5f8301906300001a2a916300000590565b6300001a3790630000083b565b60208201906300001a49916300000590565b600e60016300001a5a916300000c38565b906300001a68916300000c95565b600760646300001a786300000bfc565b916300001a86906300000c10565b5f8301906300001a97916300000590565b6300001aa49063000005a5565b60208201906300001ab6916300000590565b600e60026300001ac7916300000ca5565b906300001ad5916300000c95565b60076101f46300001ae66300000bfc565b916300001af4906300000c10565b5f8301906300001b05916300000590565b6300001b12906300000cc2565b60208201906300001b24916300000590565b600e60036300001b35916300000d15565b906300001b43916300000c95565b60076107d06300001b546300000bfc565b916300001b62906300000c10565b5f8301906300001b73916300000590565b6300001b80906300000d32565b60208201906300001b92916300000590565b600e60046300001ba3916300000d5a565b906300001bb1916300000c95565b60076113886300001bc26300000bfc565b916300001bd0906300000c10565b5f8301906300001be1916300000590565b6300001bee906300000d77565b60208201906300001c00916300000590565b600e60056300001c11916300000dca565b906300001c1f916300000c95565b60076127106300001c306300000bfc565b916300001c3e906300000c10565b5f8301906300001c4f916300000590565b6300001c5c9063000003d5565b60208201906300001c6e916300000590565b600e60066300001c7f916300000e0f565b906300001c8d916300000c95565b60076161a86300001c9e6300000bfc565b916300001cac906300000c10565b5f8301906300001cbd916300000590565b6300001cca906300000e2c565b60208201906300001cdc916300000590565b600e60076300001ced916300000e54565b906300001cfb916300000c95565b5f600660016005906001926300001d126300000e6e565b946300001d20906300000e82565b5f8601906300001d31916300000590565b6300001d3e906300000de7565b60208501906300001d50916300000590565b6300001d5d906300000327565b60408401906300001d6f916300000590565b6300001d7c906300000da2565b60608301906300001d8e916300000590565b6300001d9b906300000327565b60808201906300001dad916300000590565b601160016300001dbe916300000eaa565b906300001dcc916300000f6a565b6001600360016005906001926300001de46300000e6e565b946300001df2906300000327565b5f8601906300001e03916300000590565b6300001e10906300000ced565b60208501906300001e22916300000590565b6300001e2f906300000327565b60408401906300001e41916300000590565b6300001e4e906300000da2565b60608301906300001e60916300000590565b6300001e6d906300000327565b60808201906300001e7f916300000590565b601160026300001e90916300000f7a565b906300001e9e916300000f6a565b6002600f600a6005906001926300001eb66300000e6e565b946300001ec490630000037e565b5f8601906300001ed5916300000590565b6300001ee2906300000f97565b60208501906300001ef4916300000590565b6300001f0190630000042c565b60408401906300001f13916300000590565b6300001f20906300000da2565b60608301906300001f32916300000590565b6300001f3f906300000327565b60808201906300001f51916300000590565b601160036300001f62916300000fbf565b906300001f70916300000f6a565b6002600f600a6005906001926300001f886300000e6e565b946300001f9690630000037e565b5f8601906300001fa7916300000590565b6300001fb4906300000f97565b60208501906300001fc6916300000590565b6300001fd390630000042c565b60408401906300001fe5916300000590565b6300001ff2906300000da2565b60608301906300002004916300000590565b6300002011906300000327565b60808201906300002023916300000590565b601160046300002034916300000fd9565b906300002042916300000f6a565b6002600f600a600590600192630000205a6300000e6e565b94630000206890630000037e565b5f8601906300002079916300000590565b6300002086906300000f97565b60208501906300002098916300000590565b63000020a590630000042c565b604084019063000020b7916300000590565b63000020c4906300000da2565b606083019063000020d6916300000590565b63000020e3906300000327565b608082019063000020f5916300000590565b601160056300002106916300000ff3565b906300002114916300000f6a565b6002604b606460fa90606492630000212c6300000e6e565b94630000213a90630000037e565b5f860190630000214b916300000590565b6300002158906300001010565b6020850190630000216a916300000590565b63000021779063000005a5565b60408401906300002189916300000590565b630000219690630000103b565b606083019063000021a8916300000590565b63000021b59063000005a5565b608082019063000021c7916300000590565b6011600663000021d8916300001063565b9063000021e6916300000f6a565b6002604b606460fa9060649263000021fe6300000e6e565b94630000220c90630000037e565b5f860190630000221d916300000590565b630000222a906300001010565b6020850190630000223c916300000590565b63000022499063000005a5565b6040840190630000225b916300000590565b630000226890630000103b565b6060830190630000227a916300000590565b63000022879063000005a5565b60808201906300002299916300000590565b6011600763000022aa91630000107d565b9063000022b8916300000f6a565b6002604b606460fa9060649263000022d06300000e6e565b9463000022de90630000037e565b5f86019063000022ef916300000590565b63000022fc906300001010565b6020850190630000230e916300000590565b630000231b9063000005a5565b6040840190630000232d916300000590565b630000233a90630000103b565b6060830190630000234c916300000590565b63000023599063000005a5565b6080820190630000236b916300000590565b60116008630000237c9163000010c2565b90630000238a916300000f6a565b6002604b606460fa9060649263000023a26300000e6e565b9463000023b090630000037e565b5f86019063000023c1916300000590565b63000023ce906300001010565b602085019063000023e0916300000590565b63000023ed9063000005a5565b604084019063000023ff916300000590565b630000240c90630000103b565b6060830190630000241e916300000590565b630000242b9063000005a5565b6080820190630000243d916300000590565b60116009630000244e9163000010dc565b90630000245c916300000f6a565b6002604b606460fa9060649263000024746300000e6e565b94630000248290630000037e565b5f8601906300002493916300000590565b63000024a0906300001010565b602085019063000024b2916300000590565b63000024bf9063000005a5565b604084019063000024d1916300000590565b63000024de90630000103b565b606083019063000024f0916300000590565b63000024fd9063000005a5565b6080820190630000250f916300000590565b6011600a63000025209163000010f6565b90630000252e916300000f6a565b6002604b606460fa9060649263000025466300000e6e565b94630000255490630000037e565b5f8601906300002565916300000590565b6300002572906300001010565b60208501906300002584916300000590565b63000025919063000005a5565b604084019063000025a3916300000590565b63000025b090630000103b565b606083019063000025c2916300000590565b63000025cf9063000005a5565b608082019063000025e1916300000590565b6011600b63000025f291630000113b565b906300002600916300000f6a565b6002604b606460fa9060649263000026186300000e6e565b94630000262690630000037e565b5f8601906300002637916300000590565b6300002644906300001010565b60208501906300002656916300000590565b63000026639063000005a5565b60408401906300002675916300000590565b630000268290630000103b565b60608301906300002694916300000590565b63000026a19063000005a5565b608082019063000026b3916300000590565b6011600c63000026c4916300001180565b9063000026d2916300000f6a565b6002604b606460fa9060649263000026ea6300000e6e565b9463000026f890630000037e565b5f8601906300002709916300000590565b6300002716906300001010565b60208501906300002728916300000590565b63000027359063000005a5565b60408401906300002747916300000590565b630000275490630000103b565b60608301906300002766916300000590565b63000027739063000005a5565b60808201906300002785916300000590565b6011600d63000027969163000011c5565b9063000027a4916300000f6a565b6002604b606460fa9060649263000027bc6300000e6e565b9463000027ca90630000037e565b5f86019063000027db916300000590565b63000027e8906300001010565b602085019063000027fa916300000590565b63000028079063000005a5565b60408401906300002819916300000590565b630000282690630000103b565b60608301906300002838916300000590565b63000028459063000005a5565b60808201906300002857916300000590565b6011600e630000286891630000120a565b906300002876916300000f6a565b6002604b606460fa90606492630000288e6300000e6e565b94630000289c90630000037e565b5f86019063000028ad916300000590565b63000028ba906300001010565b602085019063000028cc916300000590565b63000028d99063000005a5565b604084019063000028eb916300000590565b63000028f890630000103b565b6060830190630000290a916300000590565b63000029179063000005a5565b60808201906300002929916300000590565b6011600f630000293a916300001224565b906300002948916300000f6a565b6012600a602d90630000295b630000123e565b926300002969906300001252565b5f840190630000297a916300000590565b630000298790630000042c565b60208301906300002999916300000590565b63000029a690630000127d565b604082019063000029b8916300000590565b600f600363000029c99163000012a5565b9063000029d7916300001323565b6012600a605a9063000029ea630000123e565b9263000029f8906300001252565b5f8401906300002a09916300000590565b6300002a1690630000042c565b60208301906300002a28916300000590565b6300002a35906300000866565b60408201906300002a47916300000590565b600f60056300002a58916300001333565b906300002a66916300001323565b6009600a61270f906300002a7a630000123e565b926300002a889063000007ae565b5f8401906300002a99916300000590565b6300002aa690630000042c565b60208301906300002ab8916300000590565b6300002ac5906300001350565b60408201906300002ad7916300000590565b600f60076300002ae8916300001378565b906300002af6916300001323565b6802b5e3af16b18800006300002b0d906300001395565b601060026300002b1e9163000013bd565b906300002b2c91630000065c565b683635c9adc5dea000006300002b439063000013da565b601060046300002b54916300001402565b906300002b6291630000065c565b56fe60806040526004361015610018575b361561001657005b005b6100225f35610421565b806307175c831461041c5780630d43aaf2146104175780630dccef661461041257806312065fe01461040d57806316f0115b1461040857806318a7d28314610403578063192b48ee146103fe57806319e2ae96146103f9578063208ad1e3146103f4578063223c0f01146103ef57806323b1a7ce146103ea57806326c5adae146103e55780632b0ada45146103e057806332557e8f146103db5780633688236d146103d6578063379a423c146103d15780634151331d146103cc57806341ffe7c4146103c757806343c06bc4146103c257806345e8fefd146103bd5780634c05b4a8146103b85780635640dbfc146103b3578063592a02a8146103ae5780635962205f146103a95780635a0e9038146103a45780635b7585b21461039f5780635eac82251461039a57806360af454d14610395578063622fe2ed146103905780636368c1ce1461038b57806366c8c3de14610386578063675f3eb1146103815780636b81c82f1461037c5780636f092c5e1461037757806370d694f014610372578063768f31801461036d57806381f00153146103685780638da5cb5b146103635780638e7ee0581461035e578063909636381461035957806391fc8aa814610354578063a112b7a41461034f578063a371dfda1461034a578063a88fcea614610345578063abb8c96514610340578063ac4e57591461033b578063ad822db414610336578063aebcd32a14610331578063aecb710b1461032c578063af0b21d314610327578063b252fbe114610322578063b85f1f8d1461031d578063b90306ad14610318578063c32cfa9914610313578063c5a136d41461030e578063c776fdd714610309578063db2d8b2614610304578063e72f1fbf146102ff578063edcf9721146102fa578063ef93b640146102f5578063f3fef3a3146102f0578063f4fe8e3c146102eb578063f54a77c8146102e65763fc0e74d10361000e57611cb2565b611c6e565b611c2b565b611c01565b611b9f565b611b6a565b611b27565b611af2565b611aae565b611a68565b611a33565b6119fb565b6119c3565b611965565b611930565b6118e7565b6118b1565b61181b565b6117e6565b61177c565b61171a565b6116d8565b6116a4565b611642565b6115fe565b6115bc565b611587565b61153f565b61150a565b6114c6565b611482565b61141c565b6113a1565b611365565b6112d3565b61129c565b6111f0565b6111bb565b611181565b611149565b6110e7565b610ffe565b610f61565b610e00565b610d6e565b610d2b565b610cf8565b610cc0565b610bf2565b610b67565b610b23565b610ae0565b610a71565b610a3d565b6109dd565b6109a8565b61095f565b6108bc565b610887565b61083c565b610721565b6106ee565b61066f565b6104a5565b60e01c90565b60405190565b5f80fd5b5f80fd5b5f91031261043f57565b610431565b1c90565b90565b61045b9060086104609302610444565b610448565b90565b9061046e915461044b565b90565b61047d60305f90610463565b90565b90565b61048c90610480565b9052565b91906104a3905f60208501940190610483565b565b346104d5576104b5366004610435565b6104d16104c0610471565b6104c8610427565b91829182610490565b0390f35b61042d565b5f1c90565b60018060a01b031690565b6104f66104fb916104da565b6104df565b90565b61050890546104ea565b90565b60a01c90565b60ff1690565b6105236105289161050b565b610511565b90565b6105359054610517565b90565b60a81c90565b61054a61054f91610538565b610511565b90565b61055c905461053e565b90565b60b01c90565b6105716105769161055f565b610511565b90565b6105839054610565565b90565b60b81c90565b61059861059d91610586565b610511565b90565b6105aa905461058c565b90565b600d6105ba5f82016104fe565b916105c65f830161052b565b916105d25f8201610552565b916105e95f6105e2818501610579565b93016105a0565b90565b60018060a01b031690565b610600906105ec565b90565b61060c906105f7565b9052565b151590565b61061e90610610565b9052565b9095949261066d9461065c6106669261065260809661064860a088019c5f890190610603565b6020870190610615565b6040850190610615565b6060830190610615565b0190610615565b565b346106a35761067f366004610435565b61069f61068a6105ad565b91610696959395610427565b95869586610622565b0390f35b61042d565b6106b181610480565b036106b857565b5f80fd5b905035906106c9826106a8565b565b906020828203126106e4576106e1915f016106bc565b90565b610431565b5f0190565b3461071c576107066107013660046106cb565b612142565b61070e610427565b80610718816106e9565b0390f35b61042d565b3461075157610731366004610435565b61074d61073c61215d565b610744610427565b91829182610490565b0390f35b61042d565b610762610767916104da565b610448565b90565b6107749054610756565b90565b60126107845f820161076a565b916107916001830161076a565b9161079e6002820161076a565b916107ab6003830161076a565b916107b86004820161076a565b916107d160066107ca6005850161076a565b930161076a565b90565b949290979695939160e08601985f87016107ed91610483565b602086016107fa91610483565b6040850161080791610483565b6060840161081491610483565b6080830161082191610483565b60a0820161082e91610483565b60c00161083a91610483565b565b346108735761084c366004610435565b61086f610857610777565b93610866979597939193610427565b978897886107d4565b0390f35b61042d565b61088460375f90610463565b90565b346108b757610897366004610435565b6108b36108a2610878565b6108aa610427565b91829182610490565b0390f35b61042d565b346108ea576108d46108cf3660046106cb565b6122f9565b6108dc610427565b806108e6816106e9565b0390f35b61042d565b60e08183031261095a57610905825f83016106bc565b9261091383602084016106bc565b9261092181604085016106bc565b9261092f82606083016106bc565b9261095761094084608085016106bc565b9361094e8160a086016106bc565b9360c0016106bc565b90565b610431565b346109945761097e6109723660046108ef565b95949094939193612642565b610986610427565b80610990816106e9565b0390f35b61042d565b6109a5603a5f90610463565b90565b346109d8576109b8366004610435565b6109d46109c3610999565b6109cb610427565b91829182610490565b0390f35b61042d565b34610a0b576109f56109f03660046106cb565b6127d9565b6109fd610427565b80610a07816106e9565b0390f35b61042d565b9190604083820312610a385780610a2c610a35925f86016106bc565b936020016106bc565b90565b610431565b34610a6c57610a56610a50366004610a10565b90612990565b610a5e610427565b80610a68816106e9565b0390f35b61042d565b34610aa157610a9d610a8c610a873660046106cb565b612a23565b610a94610427565b91829182610490565b0390f35b61042d565b9091606082840312610adb57610ad8610ac1845f85016106bc565b93610acf81602086016106bc565b936040016106bc565b90565b610431565b34610b0f57610af9610af3366004610aa6565b91612c76565b610b01610427565b80610b0b816106e9565b0390f35b61042d565b610b20603d5f90610463565b90565b34610b5357610b33366004610435565b610b4f610b3e610b14565b610b46610427565b91829182610490565b0390f35b61042d565b610b64603c5f90610463565b90565b34610b9757610b77366004610435565b610b93610b82610b58565b610b8a610427565b91829182610490565b0390f35b61042d565b610ba5816105f7565b03610bac57565b5f80fd5b90503590610bbd82610b9c565b565b90602082820312610bd857610bd5915f01610bb0565b90565b610431565b9190610bf0905f60208501940190610615565b565b34610c2257610c1e610c0d610c08366004610bbf565b612c87565b610c15610427565b91829182610bdd565b0390f35b61042d565b90565b610c3e610c39610c4392610480565b610c27565b610480565b90565b90610c5090610c2a565b5f5260205260405f2090565b610c6790600f610c46565b610c725f820161076a565b91610c8b6002610c846001850161076a565b930161076a565b90565b604090610cb7610cbe9496959396610cad60608401985f850190610483565b6020830190610483565b0190610483565b565b34610cf357610cef610cdb610cd63660046106cb565b610c5c565b610ce6939193610427565b93849384610c8e565b0390f35b61042d565b34610d2657610d10610d0b366004610bbf565b613345565b610d18610427565b80610d22816106e9565b0390f35b61042d565b34610d5a57610d44610d3e366004610aa6565b916135f3565b610d4c610427565b80610d56816106e9565b0390f35b61042d565b610d6b60315f90610463565b90565b34610d9e57610d7e366004610435565b610d9a610d89610d5f565b610d91610427565b91829182610490565b0390f35b61042d565b6019610db05f820161076a565b91610dbd6001830161076a565b91610dca6002820161076a565b91610dd76003830161076a565b91610de46004820161076a565b91610dfd6006610df66005850161076a565b930161076a565b90565b34610e3757610e10366004610435565b610e33610e1b610da3565b93610e2a979597939193610427565b978897886107d4565b0390f35b61042d565b610e48610e4d916104da565b610511565b90565b610e5a9054610e3c565b90565b60081c90565b610e6f610e7491610e5d565b610511565b90565b610e819054610e63565b90565b60101c90565b610e96610e9b91610e84565b610511565b90565b610ea89054610e8a565b90565b60181c90565b610ebd610ec291610eab565b610511565b90565b610ecf9054610eb1565b90565b602d610edf5f820161076a565b91610eec60018301610e50565b91610ef960018201610e77565b91610f116001610f0a818501610e9e565b9301610ec5565b90565b90959492610f5f94610f4e610f5892610f44608096610f3a60a088019c5f890190610483565b6020870190610615565b6040850190610615565b6060830190610615565b0190610615565b565b34610f9557610f71366004610435565b610f91610f7c610ed2565b91610f88959395610427565b95869586610f14565b0390f35b61042d565b909160c082840312610ff957610fb2835f84016106bc565b92610fc081602085016106bc565b92610fce82604083016106bc565b92610ff6610fdf84606085016106bc565b93610fed81608086016106bc565b9360a0016106bc565b90565b610431565b346110335761101d611011366004610f9a565b9493909392919261391c565b611025610427565b8061102f816106e9565b0390f35b61042d565b9061104290610c2a565b5f5260205260405f2090565b611059906011611038565b6110645f820161076a565b916110716001830161076a565b9161107e6002820161076a565b9161109760046110906003850161076a565b930161076a565b90565b909594926110e5946110d46110de926110ca6080966110c060a088019c5f890190610483565b6020870190610483565b6040850190610483565b6060830190610483565b0190610483565b565b3461111b576111176111026110fd3660046106cb565b61104e565b9161110e959395610427565b9586958661109a565b0390f35b61042d565b602761112d5f820161076a565b91611146600261113f6001850161076a565b930161076a565b90565b3461117c57611159366004610435565b611178611164611120565b61116f939193610427565b93849384610c8e565b0390f35b61042d565b346111b6576111a06111943660046108ef565b95949094939193613b00565b6111a8610427565b806111b2816106e9565b0390f35b61042d565b346111eb576111e76111d66111d13660046106cb565b613b11565b6111de610427565b91829182610490565b0390f35b61042d565b3461121e57611208611203366004610bbf565b613c74565b611210610427565b8061121a816106e9565b0390f35b61042d565b61122c81610610565b0361123357565b5f80fd5b9050359061124482611223565b565b919060a0838203126112975761125e815f85016106bc565b9261126c8260208301611237565b9261129461127d8460408501611237565b9361128b8160608601611237565b93608001611237565b90565b610431565b346112ce576112b86112af366004611246565b93929092614018565b6112c0610427565b806112ca816106e9565b0390f35b61042d565b34611303576112ff6112ee6112e93660046106cb565b614046565b6112f6610427565b91829182610490565b0390f35b61042d565b60206113155f820161076a565b916113226001830161076a565b9161132f6002820161076a565b9161133c6003830161076a565b916113496004820161076a565b91611362600661135b6005850161076a565b930161076a565b90565b3461139c57611375366004610435565b611398611380611308565b9361138f979597939193610427565b978897886107d4565b0390f35b61042d565b346113d1576113cd6113bc6113b73660046106cb565b6140d1565b6113c4610427565b91829182610490565b0390f35b61042d565b608081830312611417576113ec825f83016106bc565b926114146113fd84602085016106bc565b9361140b81604086016106bc565b936060016106bc565b90565b610431565b3461144e5761143861142f3660046113d6565b929190916143e7565b611440610427565b8061144a816106e9565b0390f35b61042d565b9061145d90610c2a565b5f5260205260405f2090565b61147f9061147a6010915f92611453565b610463565b90565b346114b2576114ae61149d6114983660046106cb565b611469565b6114a5610427565b91829182610490565b0390f35b61042d565b6114c360385f90610463565b90565b346114f6576114d6366004610435565b6114f26114e16114b7565b6114e9610427565b91829182610490565b0390f35b61042d565b61150760395f90610463565b90565b3461153a5761151a366004610435565b6115366115256114fb565b61152d610427565b91829182610490565b0390f35b61042d565b3461156d576115576115523660046106cb565b61457b565b61155f610427565b80611569816106e9565b0390f35b61042d565b9190611585905f60208501940190610603565b565b346115b757611597366004610435565b6115b36115a261458a565b6115aa610427565b91829182611572565b0390f35b61042d565b346115ea576115d46115cf3660046106cb565b614726565b6115dc610427565b806115e6816106e9565b0390f35b61042d565b6115fb60365f90610463565b90565b3461162e5761160e366004610435565b61162a6116196115ef565b611621610427565b91829182610490565b0390f35b61042d565b61163f60345f90610463565b90565b3461167257611652366004610435565b61166e61165d611633565b611665610427565b91829182610490565b0390f35b61042d565b919060408382031261169f578061169361169c925f8601611237565b93602001611237565b90565b610431565b346116d3576116bd6116b7366004611677565b906148a9565b6116c5610427565b806116cf816106e9565b0390f35b61042d565b34611706576116f06116eb3660046106cb565b614a21565b6116f8610427565b80611702816106e9565b0390f35b61042d565b611717603b5f90610463565b90565b3461174a5761172a366004610435565b61174661173561170b565b61173d610427565b91829182610490565b0390f35b61042d565b9190604083820312611777578061176b611774925f8601610bb0565b93602001611237565b90565b610431565b346117ab5761179561178f36600461174f565b90614eaf565b61179d610427565b806117a7816106e9565b0390f35b61042d565b6117c09060086117c59302610444565b610511565b90565b906117d391546117b0565b90565b6117e3602f6001906117c8565b90565b34611816576117f6366004610435565b6118126118016117d6565b611809610427565b91829182610bdd565b0390f35b61042d565b3461184d5761183761182e3660046113d6565b9291909161504b565b61183f610427565b80611849816106e9565b0390f35b61042d565b9061185c90610c2a565b5f5260205260405f2090565b61187390600e611852565b9061188b60016118845f850161076a565b930161076a565b90565b9160206118af9294936118a860408201965f830190610483565b0190610483565b565b346118e2576118c96118c43660046106cb565b611868565b906118de6118d5610427565b9283928361188e565b0390f35b61042d565b3461191c576119066118fa3660046108ef565b9594909493919361522d565b61190e610427565b80611918816106e9565b0390f35b61042d565b61192d60335f90610463565b90565b3461196057611940366004610435565b61195c61194b611921565b611953610427565b91829182610490565b0390f35b61042d565b3461199557611975366004610435565b61199161198061523e565b611988610427565b91829182610490565b0390f35b61042d565b602a6119a75f820161076a565b916119c060026119b96001850161076a565b930161076a565b90565b346119f6576119d3366004610435565b6119f26119de61199a565b6119e9939193610427565b93849384610c8e565b0390f35b61042d565b611a0e611a093660046106cb565b615411565b611a16610427565b80611a20816106e9565b0390f35b611a30603f5f90610463565b90565b34611a6357611a43366004610435565b611a5f611a4e611a24565b611a56610427565b91829182610490565b0390f35b61042d565b34611a9a57611a84611a7b3660046113d6565b92919091615643565b611a8c610427565b80611a96816106e9565b0390f35b61042d565b611aab60405f90610463565b90565b34611ade57611abe366004610435565b611ada611ac9611a9f565b611ad1610427565b91829182610490565b0390f35b61042d565b611aef60355f90610463565b90565b34611b2257611b02366004610435565b611b1e611b0d611ae3565b611b15610427565b91829182610490565b0390f35b61042d565b34611b5657611b40611b3a366004610a10565b906157c9565b611b48610427565b80611b52816106e9565b0390f35b61042d565b611b6760325f90610463565b90565b34611b9a57611b7a366004610435565b611b96611b85611b5b565b611b8d610427565b91829182610490565b0390f35b61042d565b34611bcf57611bcb611bba611bb53660046106cb565b6157d5565b611bc2610427565b91829182610490565b0390f35b61042d565b9190604083820312611bfc5780611bf0611bf9925f8601610bb0565b936020016106bc565b90565b610431565b611c15611c0f366004611bd4565b90615aab565b611c1d610427565b80611c27816106e9565b0390f35b34611c5a57611c44611c3e366004610a10565b90615c4a565b611c4c610427565b80611c56816106e9565b0390f35b61042d565b611c6b603e5f90610463565b90565b34611c9e57611c7e366004610435565b611c9a611c89611c5f565b611c91610427565b91829182610490565b0390f35b61042d565b611caf602f5f906117c8565b90565b34611ce257611cc2366004610435565b611cde611ccd611ca3565b611cd5610427565b91829182610bdd565b0390f35b61042d565b60018060a01b031690565b611cfe611d03916104da565b611ce7565b90565b611d109054611cf2565b90565b611d27611d22611d2c926105ec565b610c27565b6105ec565b90565b611d3890611d13565b90565b611d4490611d2f565b90565b601f801991011690565b634e487b7160e01b5f52604160045260245ffd5b90611d6f90611d47565b810190811067ffffffffffffffff821117611d8957604052565b611d51565b60e01b90565b90505190611da182611223565b565b90602082820312611dbc57611db9915f01611d94565b90565b610431565b611dc9610427565b3d5f823e3d90fd5b60209181520190565b5f7f6f776e2e696e76616c69642e6973536166650000000000000000000000000000910152565b611e0e6012602092611dd1565b611e1781611dda565b0190565b611e309060208101905f818303910152611e01565b90565b15611e3a57565b611e42610427565b62461bcd60e51b815280611e5860048201611e1b565b0390fd5b60018060a01b031690565b611e73611e78916104da565b611e5c565b90565b611e859054611e67565b90565b611e9190611d2f565b90565b5f7f6f776e2e6e6f6e617574682e44414f0000000000000000000000000000000000910152565b611ec8600f602092611dd1565b611ed181611e94565b0190565b611eea9060208101905f818303910152611ebb565b90565b15611ef457565b611efc610427565b62461bcd60e51b815280611f1260048201611ed5565b0390fd5b611f44906020611f2e611f296002611d06565b611d3b565b636a276f9d90611f3c610427565b948592611d8e565b82528180611f54600482016106e9565b03915afa91821561207057611fb292611f74915f91612042575b50611e33565b6020611f88611f836002611d06565b611d3b565b6319c0642990611fa73392611f9b610427565b96879485938493611d8e565b835260048301611572565b03915afa801561203d57611fdd925f9161200f575b508015611fdf575b611fd890611eed565b61211b565b565b50611fd8611ff5611ff06001611e7b565b611e88565b612007612001336105f7565b916105f7565b149050611fcf565b612030915060203d8111612036575b6120288183611d65565b810190611da3565b5f611fc7565b503d61201e565b611dc1565b612063915060203d8111612069575b61205b8183611d65565b810190611da3565b5f611f6e565b503d612051565b611dc1565b90565b61208c61208761209192612075565b610c27565b610480565b90565b634e487b7160e01b5f52601160045260245ffd5b6120b76120bd91939293610480565b92610480565b916120c9838202610480565b9281840414901517156120d857565b612094565b5f1b90565b906120ee5f19916120dd565b9181191691161790565b90565b9061211061210b61211792610c2a565b6120f8565b82546120e2565b9055565b61213961214091612133670de0b6b3a7640000612078565b906120a8565b60366120fb565b565b61214b90611f16565b565b5f90565b61215a90611d2f565b90565b61216561214d565b5061216f30612151565b3190565b6121a190602061218b6121866002611d06565b611d3b565b636a276f9d90612199610427565b948592611d8e565b825281806121b1600482016106e9565b03915afa9182156122cd5761220f926121d1915f9161229f575b50611e33565b60206121e56121e06002611d06565b611d3b565b6319c064299061220433926121f8610427565b96879485938493611d8e565b835260048301611572565b03915afa801561229a5761223a925f9161226c575b50801561223c575b61223590611eed565b6122d2565b565b5061223561225261224d6001611e7b565b611e88565b61226461225e336105f7565b916105f7565b14905061222c565b61228d915060203d8111612293575b6122858183611d65565b810190611da3565b5f612224565b503d61227b565b611dc1565b6122c0915060203d81116122c6575b6122b88183611d65565b810190611da3565b5f6121cb565b503d6122ae565b611dc1565b6122f06122f7916122ea670de0b6b3a7640000612078565b906120a8565b60346120fb565b565b61230290612173565b565b90612338969594939291602061232261231d6002611d06565b611d3b565b636a276f9d90612330610427565b9a8b92611d8e565b82528180612348600482016106e9565b03915afa978815612464576123a698612368915f91612436575b50611e33565b602061237c6123776002611d06565b611d3b565b6319c064299061239b339261238f610427565b9c8d9485938493611d8e565b835260048301611572565b03915afa8015612431576123d1985f91612403575b5080156123d3575b6123cc90611eed565b6125d3565b565b506123cc6123e96123e46001611e7b565b611e88565b6123fb6123f5336105f7565b916105f7565b1490506123c3565b612424915060203d811161242a575b61241c8183611d65565b810190611da3565b5f6123bb565b503d612412565b611dc1565b612457915060203d811161245d575b61244f8183611d65565b810190611da3565b5f612362565b503d612445565b611dc1565b9061247c612475610427565b9283611d65565b565b61248860e0612469565b90565b5f90565b61249761247e565b906020808080808080886124a961248b565b8152016124b461248b565b8152016124bf61248b565b8152016124ca61248b565b8152016124d561248b565b8152016124e061248b565b8152016124eb61248b565b81525050565b6124f961248f565b90565b9061250690610480565b9052565b6125149051610480565b90565b906125bf60c060066125c59461253a5f82016125345f880161250a565b906120fb565b6125536001820161254d6020880161250a565b906120fb565b61256c600282016125666040880161250a565b906120fb565b6125856003820161257f6060880161250a565b906120fb565b61259e600482016125986080880161250a565b906120fb565b6125b7600582016125b160a0880161250a565b906120fb565b01920161250a565b906120fb565b565b906125d191612517565b565b6126399461261e61264098956126156126309661260c5f9b97612603612627986125fb6124f1565b9e8f016124fc565b60208d016124fc565b60408b016124fc565b606089016124fc565b608087016124fc565b60a085016124fc565b60c083016124fc565b60196125c7565b565b90612651969594939291612304565b565b61268190602061266b6126666002611d06565b611d3b565b636a276f9d90612679610427565b948592611d8e565b82528180612691600482016106e9565b03915afa9182156127ad576126ef926126b1915f9161277f575b50611e33565b60206126c56126c06002611d06565b611d3b565b6319c06429906126e433926126d8610427565b96879485938493611d8e565b835260048301611572565b03915afa801561277a5761271a925f9161274c575b50801561271c575b61271590611eed565b6127b2565b565b5061271561273261272d6001611e7b565b611e88565b61274461273e336105f7565b916105f7565b14905061270c565b61276d915060203d8111612773575b6127658183611d65565b810190611da3565b5f612704565b503d61275b565b611dc1565b6127a0915060203d81116127a6575b6127988183611d65565b810190611da3565b5f6126ab565b503d61278e565b611dc1565b6127d06127d7916127ca670de0b6b3a7640000612078565b906120a8565b60356120fb565b565b6127e290612653565b565b906128139160206127fd6127f86002611d06565b611d3b565b636a276f9d9061280b610427565b958692611d8e565b82528180612823600482016106e9565b03915afa92831561293f5761288193612843915f91612911575b50611e33565b60206128576128526002611d06565b611d3b565b6319c0642990612876339261286a610427565b97889485938493611d8e565b835260048301611572565b03915afa801561290c576128ac935f916128de575b5080156128ae575b6128a790611eed565b612944565b565b506128a76128c46128bf6001611e7b565b611e88565b6128d66128d0336105f7565b916105f7565b14905061289e565b6128ff915060203d8111612905575b6128f78183611d65565b810190611da3565b5f612896565b503d6128ed565b611dc1565b612932915060203d8111612938575b61292a8183611d65565b810190611da3565b5f61283d565b503d612920565b611dc1565b61298e9161297061296961298793612963670de0b6b3a7640000612078565b906120a8565b60306120fb565b612981670de0b6b3a7640000612078565b906120a8565b60316120fb565b565b9061299a916127e4565b565b6129a590611d13565b90565b6129b19061299c565b90565b6129bd90611d2f565b90565b905051906129cd826106a8565b565b906020828203126129e8576129e5915f016129c0565b90565b610431565b634e487b7160e01b5f52601260045260245ffd5b612a0d612a1391610480565b91610480565b908115612a1e570490565b6129ed565b612a2b61214d565b50612a50612a39603061076a565b612a4a670de0b6b3a7640000612078565b906120a8565b90612a866020612a70612a6b612a6660066104fe565b6129a8565b6129b4565b637d8ec03a90612a7e610427565b938492611d8e565b82528180612a96600482016106e9565b03915afa8015612aed57612aba93612ab5925f92612abd575b50612a01565b6120a8565b90565b612adf91925060203d8111612ae6575b612ad78183611d65565b8101906129cf565b905f612aaf565b503d612acd565b611dc1565b90612b2292916020612b0c612b076002611d06565b611d3b565b636a276f9d90612b1a610427565b968792611d8e565b82528180612b32600482016106e9565b03915afa938415612c4e57612b9094612b52915f91612c20575b50611e33565b6020612b66612b616002611d06565b611d3b565b6319c0642990612b853392612b79610427565b98899485938493611d8e565b835260048301611572565b03915afa8015612c1b57612bbb945f91612bed575b508015612bbd575b612bb690611eed565b612c53565b565b50612bb6612bd3612bce6001611e7b565b611e88565b612be5612bdf336105f7565b916105f7565b149050612bad565b612c0e915060203d8111612c14575b612c068183611d65565b810190611da3565b5f612ba5565b503d612bfc565b611dc1565b612c41915060203d8111612c47575b612c398183611d65565b810190611da3565b5f612b4c565b503d612c2f565b611dc1565b612c749291612c66612c6d9260386120fb565b60396120fb565b603a6120fb565b565b90612c819291612af2565b565b5f90565b612c8f612c83565b50612cd16020612ca7612ca26002611d06565b611d3b565b6319c0642990612cc68592612cba610427565b95869485938493611d8e565b835260048301611572565b03915afa908115612d43575f91612d15575b50908115612cf0575b5090565b9050612d0e612d08612d02600c6104fe565b926105f7565b916105f7565b145f612cec565b612d36915060203d8111612d3c575b612d2e8183611d65565b810190611da3565b5f612ce3565b503d612d24565b611dc1565b5f7f6f776d2e66616b652e2064656c65676174650000000000000000000000000000910152565b612d7c6012602092611dd1565b612d8581612d48565b0190565b612d9e9060208101905f818303910152612d6f565b90565b15612da857565b612db0610427565b62461bcd60e51b815280612dc660048201612d89565b0390fd5b612df76020612de1612ddc6002611d06565b611d3b565b636a276f9d90612def610427565b938492611d8e565b82528180612e07600482016106e9565b03915afa8015612f2957612e22915f91612efb575b50611e33565b612e34612e2f6001611e7b565b611e88565b612e46612e40336105f7565b916105f7565b14908115612e62575b612e5b612e6092612da1565b613206565b565b612ea591506020612e7b612e766002611d06565b611d3b565b637df73e2790612e9a3392612e8e610427565b96879485938493611d8e565b835260048301611572565b03915afa918215612ef657612e6092612e5b915f91612ec8575b50925050612e4f565b612ee9915060203d8111612eef575b612ee18183611d65565b810190611da3565b5f612ebf565b503d612ed7565b611dc1565b612f1c915060203d8111612f22575b612f148183611d65565b810190611da3565b5f612e1c565b503d612f0a565b611dc1565b612f3860a0612469565b90565b5f90565b5f90565b612f4b612f2e565b9060208080808086612f5b612f3b565b815201612f66612f3f565b815201612f71612f3f565b815201612f7c612f3f565b815201612f87612f3f565b81525050565b612f95612f43565b90565b90612fa290610610565b9052565b90565b612fbd612fb8612fc292612fa6565b610c27565b610480565b90565b90565b612fdc612fd7612fe192612fc5565b610c27565b610480565b90565b90565b612ffb612ff661300092612fe4565b610c27565b610480565b90565b9061300d906105f7565b9052565b61301b90516105f7565b90565b9061302f60018060a01b03916120dd565b9181191691161790565b61304290611d2f565b90565b90565b9061305d61305861306492613039565b613045565b825461301e565b9055565b6130729051610610565b90565b60a01b90565b9061308a60ff60a01b91613075565b9181191691161790565b61309d90610610565b90565b90565b906130b86130b36130bf92613094565b6130a0565b825461307b565b9055565b60a81b90565b906130d860ff60a81b916130c3565b9181191691161790565b906130f76130f26130fe92613094565b6130a0565b82546130c9565b9055565b60b01b90565b9061311760ff60b01b91613102565b9181191691161790565b9061313661313161313d92613094565b6130a0565b8254613108565b9055565b60b81b90565b9061315660ff60b81b91613141565b9181191691161790565b9061317561317061317c92613094565b6130a0565b8254613147565b9055565b906131f260805f6131f8946131a282820161319c848801613011565b90613048565b6131ba8282016131b460208801613068565b906130a3565b6131d28282016131cc60408801613068565b906130e2565b6131ea8282016131e460608801613068565b90613121565b019201613068565b90613160565b565b9061320491613180565b565b61324890602061321e6132196002611d06565b611d3b565b631d84be449061323d3392613231610427565b96879485938493611d8e565b835260048301611572565b03915afa918215613340576132d7926132d0915f91613312575b509161326c612f8d565b9261327b600160208601612f98565b8061328f6132896001612fa9565b91610480565b146132ff575b806132a96132a36002612fc8565b91610480565b146132ec575b6132c26132bc6003612fe7565b91610480565b146132d9575b5f8301613003565b600d6131fa565b565b6132e7600160808501612f98565b6132c8565b6132fa600160608601612f98565b6132af565b61330d600160408601612f98565b613295565b613333915060203d8111613339575b61332b8183611d65565b8101906129cf565b5f613262565b503d613321565b611dc1565b61334e90612dca565b565b906133809291602061336a6133656002611d06565b611d3b565b636a276f9d90613378610427565b968792611d8e565b82528180613390600482016106e9565b03915afa9384156134ac576133ee946133b0915f9161347e575b50611e33565b60206133c46133bf6002611d06565b611d3b565b6319c06429906133e333926133d7610427565b98899485938493611d8e565b835260048301611572565b03915afa801561347957613419945f9161344b575b50801561341b575b61341490611eed565b61359e565b565b5061341461343161342c6001611e7b565b611e88565b61344361343d336105f7565b916105f7565b14905061340b565b61346c915060203d8111613472575b6134648183611d65565b810190611da3565b5f613403565b503d61345a565b611dc1565b61349f915060203d81116134a5575b6134978183611d65565b810190611da3565b5f6133aa565b503d61348d565b611dc1565b90565b6134c86134c36134cd926134b1565b610c27565b610480565b90565b5f7f696e76616c69642072616e6b0000000000000000000000000000000000000000910152565b613504600c602092611dd1565b61350d816134d0565b0190565b6135269060208101905f8183039101526134f7565b90565b1561353057565b613538610427565b62461bcd60e51b81528061354e60048201613511565b0390fd5b61355c6040612469565b90565b9061358a60206001613590946135825f820161357c5f880161250a565b906120fb565b01920161250a565b906120fb565b565b9061359c9161355f565b565b6135ec906135e56135f194936135c7836135c16135bb60086134b4565b91610480565b10613529565b936135dc6135d3613552565b955f87016124fc565b602085016124fc565b600e611852565b613592565b565b906135fe9291613350565b565b906136339594939291602061361d6136186002611d06565b611d3b565b636a276f9d9061362b610427565b998a92611d8e565b82528180613643600482016106e9565b03915afa96871561375f576136a197613663915f91613731575b50611e33565b60206136776136726002611d06565b611d3b565b6319c0642990613696339261368a610427565b9b8c9485938493611d8e565b835260048301611572565b03915afa801561372c576136cc975f916136fe575b5080156136ce575b6136c790611eed565b61389c565b565b506136c76136e46136df6001611e7b565b611e88565b6136f66136f0336105f7565b916105f7565b1490506136be565b61371f915060203d8111613725575b6137178183611d65565b810190611da3565b5f6136b6565b503d61370d565b611dc1565b613752915060203d8111613758575b61374a8183611d65565b810190611da3565b5f61365d565b503d613740565b611dc1565b90565b61377b61377661378092613764565b610c27565b610480565b90565b5f7f696e76616c6964206c6576656c00000000000000000000000000000000000000910152565b6137b7600d602092611dd1565b6137c081613783565b0190565b6137d99060208101905f8183039101526137aa565b90565b156137e357565b6137eb610427565b62461bcd60e51b815280613801600482016137c4565b0390fd5b61380f60a0612469565b90565b906138886080600461388e946138355f820161382f5f880161250a565b906120fb565b61384e600182016138486020880161250a565b906120fb565b613867600282016138616040880161250a565b906120fb565b6138806003820161387a6060880161250a565b906120fb565b01920161250a565b906120fb565b565b9061389a91613812565b565b91939261390561391a966138fc613915966138f361390e966138d1896138cb6138c56010613767565b91610480565b106137dc565b99959193956138ea6138e1613805565b9b5f8d016124fc565b60208b016124fc565b604089016124fc565b606087016124fc565b608085016124fc565b6011611038565b613890565b565b9061392a9594939291613600565b565b90613960969594939291602061394a6139456002611d06565b611d3b565b636a276f9d90613958610427565b9a8b92611d8e565b82528180613970600482016106e9565b03915afa978815613a8c576139ce98613990915f91613a5e575b50611e33565b60206139a461399f6002611d06565b611d3b565b6319c06429906139c333926139b7610427565b9c8d9485938493611d8e565b835260048301611572565b03915afa8015613a59576139f9985f91613a2b575b5080156139fb575b6139f490611eed565b613a91565b565b506139f4613a11613a0c6001611e7b565b611e88565b613a23613a1d336105f7565b916105f7565b1490506139eb565b613a4c915060203d8111613a52575b613a448183611d65565b810190611da3565b5f6139e3565b503d613a3a565b611dc1565b613a7f915060203d8111613a85575b613a778183611d65565b810190611da3565b5f61398a565b503d613a6d565b611dc1565b613af794613adc613afe9895613ad3613aee96613aca5f9b97613ac1613ae598613ab96124f1565b9e8f016124fc565b60208d016124fc565b60408b016124fc565b606089016124fc565b608087016124fc565b60a085016124fc565b60c083016124fc565b60206125c7565b565b90613b0f96959493929161392c565b565b613b2d90613b1d61214d565b50613b28603161076a565b6120a8565b90565b60018060a01b031690565b613b47613b4c916104da565b613b30565b90565b613b599054613b3b565b90565b613b6590611d2f565b90565b90565b613b7f613b7a613b8492613b68565b610c27565b6105ec565b90565b613b9090613b6b565b90565b5f7f6f776e2e686578626173652e6661696c65640000000000000000000000000000910152565b613bc76012602092611dd1565b613bd081613b93565b0190565b613be99060208101905f818303910152613bba565b90565b15613bf357565b613bfb610427565b62461bcd60e51b815280613c1160048201613bd4565b0390fd5b613c1e90611d13565b90565b613c2a90613c15565b90565b613c3690611d13565b90565b613c4290613c2d565b90565b613c4e90613c2d565b90565b90565b90613c69613c64613c7092613c45565b613c51565b825461301e565b9055565b613cc7613cc2613ccd92613cb2613c92613c8d5f613b4f565b613b5c565b613cac613ca6613ca15f613b87565b6105f7565b916105f7565b14613bec565b613cbd32600c613048565b613c21565b613c39565b5f613c54565b613cd5615de6565b565b90613d09949392916020613cf3613cee6002611d06565b611d3b565b636a276f9d90613d01610427565b988992611d8e565b82528180613d19600482016106e9565b03915afa958615613e3557613d7796613d39915f91613e07575b50611e33565b6020613d4d613d486002611d06565b611d3b565b6319c0642990613d6c3392613d60610427565b9a8b9485938493611d8e565b835260048301611572565b03915afa8015613e0257613da2965f91613dd4575b508015613da4575b613d9d90611eed565b613fbe565b565b50613d9d613dba613db56001611e7b565b611e88565b613dcc613dc6336105f7565b916105f7565b149050613d94565b613df5915060203d8111613dfb575b613ded8183611d65565b810190611da3565b5f613d8c565b503d613de3565b611dc1565b613e28915060203d8111613e2e575b613e208183611d65565b810190611da3565b5f613d33565b503d613e16565b611dc1565b613e4460a0612469565b90565b90613e5360ff916120dd565b9181191691161790565b90613e72613e6d613e7992613094565b6130a0565b8254613e47565b9055565b60081b90565b90613e9061ff0091613e7d565b9181191691161790565b90613eaf613eaa613eb692613094565b6130a0565b8254613e83565b9055565b60101b90565b90613ece62ff000091613eba565b9181191691161790565b90613eed613ee8613ef492613094565b6130a0565b8254613ec0565b9055565b60181b90565b90613f0d63ff00000091613ef8565b9181191691161790565b90613f2c613f27613f3392613094565b6130a0565b8254613efe565b9055565b90613faa60806001613fb094613f5a5f8201613f545f880161250a565b906120fb565b613f72828201613f6c60208801613068565b90613e5d565b613f8a828201613f8460408801613068565b90613e9a565b613fa2828201613f9c60608801613068565b90613ed8565b019201613068565b90613f17565b565b90613fbc91613f37565b565b61401694613ffd61400f949395613ff4614006949795919395613feb613fe2613e3a565b995f8b016124fc565b60208901612f98565b60408701612f98565b60608501612f98565b60808301612f98565b602d613fb2565b565b9061402594939291613cd7565b565b90565b61403e61403961404392614027565b610c27565b610480565b90565b6140a861409561406f6140ce9361405b61214d565b50614069600160190161076a565b906120a8565b61408f61407f600260190161076a565b614089606461402a565b906120a8565b90612a01565b6140a2600360190161076a565b906120a8565b6140c86140b8600460190161076a565b6140c2606461402a565b906120a8565b90612a01565b90565b6141336141206140fa614159936140e661214d565b506140f4600160120161076a565b906120a8565b61411a61410a600260120161076a565b614114606461402a565b906120a8565b90612a01565b61412d600360120161076a565b906120a8565b614153614143600460120161076a565b61414d606461402a565b906120a8565b90612a01565b90565b9061418d93929160206141776141726002611d06565b611d3b565b636a276f9d90614185610427565b978892611d8e565b8252818061419d600482016106e9565b03915afa9485156142b9576141fb956141bd915f9161428b575b50611e33565b60206141d16141cc6002611d06565b611d3b565b6319c06429906141f033926141e4610427565b998a9485938493611d8e565b835260048301611572565b03915afa801561428657614226955f91614258575b508015614228575b61422190611eed565b614360565b565b5061422161423e6142396001611e7b565b611e88565b61425061424a336105f7565b916105f7565b149050614218565b614279915060203d811161427f575b6142718183611d65565b810190611da3565b5f614210565b503d614267565b611dc1565b6142ac915060203d81116142b2575b6142a48183611d65565b810190611da3565b5f6141b7565b503d61429a565b611dc1565b6142c86060612469565b90565b6142d36142be565b9060208080846142e161248b565b8152016142ec61248b565b8152016142f761248b565b81525050565b6143056142cb565b90565b9061434c604060026143529461432b5f82016143255f880161250a565b906120fb565b6143446001820161433e6020880161250a565b906120fb565b01920161250a565b906120fb565b565b9061435e91614308565b565b9192614387614390929461437e6143756142fd565b965f88016124fc565b602086016124fc565b604084016124fc565b806143a461439e6001612fa9565b91610480565b146143d7575b6143bd6143b76002612fc8565b91610480565b146143c6575b50565b6143d190602a614354565b5f6143c3565b6143e2826027614354565b6143aa565b906143f393929161415c565b565b61442390602061440d6144086002611d06565b611d3b565b636a276f9d9061441b610427565b948592611d8e565b82528180614433600482016106e9565b03915afa91821561454f5761449192614453915f91614521575b50611e33565b60206144676144626002611d06565b611d3b565b6319c0642990614486339261447a610427565b96879485938493611d8e565b835260048301611572565b03915afa801561451c576144bc925f916144ee575b5080156144be575b6144b790611eed565b614554565b565b506144b76144d46144cf6001611e7b565b611e88565b6144e66144e0336105f7565b916105f7565b1490506144ae565b61450f915060203d8111614515575b6145078183611d65565b810190611da3565b5f6144a6565b503d6144fd565b611dc1565b614542915060203d8111614548575b61453a8183611d65565b810190611da3565b5f61444d565b503d614530565b611dc1565b6145726145799161456c670de0b6b3a7640000612078565b906120a8565b60376120fb565b565b614584906143f5565b565b5f90565b614592614586565b5061459d600c6104fe565b90565b6145ce9060206145b86145b36002611d06565b611d3b565b636a276f9d906145c6610427565b948592611d8e565b825281806145de600482016106e9565b03915afa9182156146fa5761463c926145fe915f916146cc575b50611e33565b602061461261460d6002611d06565b611d3b565b6319c06429906146313392614625610427565b96879485938493611d8e565b835260048301611572565b03915afa80156146c757614667925f91614699575b508015614669575b61466290611eed565b6146ff565b565b5061466261467f61467a6001611e7b565b611e88565b61469161468b336105f7565b916105f7565b149050614659565b6146ba915060203d81116146c0575b6146b28183611d65565b810190611da3565b5f614651565b503d6146a8565b611dc1565b6146ed915060203d81116146f3575b6146e58183611d65565b810190611da3565b5f6145f8565b503d6146db565b611dc1565b61471d61472491614717670de0b6b3a7640000612078565b906120a8565b60326120fb565b565b61472f906145a0565b565b9061476091602061474a6147456002611d06565b611d3b565b636a276f9d90614758610427565b958692611d8e565b82528180614770600482016106e9565b03915afa92831561488c576147ce93614790915f9161485e575b50611e33565b60206147a461479f6002611d06565b611d3b565b6319c06429906147c333926147b7610427565b97889485938493611d8e565b835260048301611572565b03915afa8015614859576147f9935f9161482b575b5080156147fb575b6147f490611eed565b614891565b565b506147f461481161480c6001611e7b565b611e88565b61482361481d336105f7565b916105f7565b1490506147eb565b61484c915060203d8111614852575b6148448183611d65565b810190611da3565b5f6147e3565b503d61483a565b611dc1565b61487f915060203d8111614885575b6148778183611d65565b810190611da3565b5f61478a565b503d61486d565b611dc1565b906148a06148a792602f613e5d565b602f613e9a565b565b906148b391614731565b565b6148e39060206148cd6148c86002611d06565b611d3b565b636a276f9d906148db610427565b948592611d8e565b825281806148f3600482016106e9565b03915afa918215614a0f5761495192614913915f916149e1575b50611e33565b60206149276149226002611d06565b611d3b565b6319c0642990614946339261493a610427565b96879485938493611d8e565b835260048301611572565b03915afa80156149dc5761497c925f916149ae575b50801561497e575b61497790611eed565b614a14565b565b5061497761499461498f6001611e7b565b611e88565b6149a66149a0336105f7565b916105f7565b14905061496e565b6149cf915060203d81116149d5575b6149c78183611d65565b810190611da3565b5f614966565b503d6149bd565b611dc1565b614a02915060203d8111614a08575b6149fa8183611d65565b810190611da3565b5f61490d565b503d6149f0565b611dc1565b614a1f9060336120fb565b565b614a2a906148b5565b565b90614a5a6020614a44614a3f6002611d06565b611d3b565b636a276f9d90614a52610427565b938492611d8e565b82528180614a6a600482016106e9565b03915afa8015614b8c57614a85915f91614b5e575b50611e33565b614a97614a926001611e7b565b611e88565b614aa9614aa3336105f7565b916105f7565b14918215614ac5575b614abe614ac393612da1565b614bc9565b565b614b0892506020614ade614ad96002611d06565b611d3b565b637df73e2790614afd3392614af1610427565b97889485938493611d8e565b835260048301611572565b03915afa928315614b5957614ac393614abe915f91614b2b575b50935050614ab2565b614b4c915060203d8111614b52575b614b448183611d65565b810190611da3565b5f614b22565b503d614b3a565b611dc1565b614b7f915060203d8111614b85575b614b778183611d65565b810190611da3565b5f614a7f565b503d614b6d565b611dc1565b614ba5614ba0614baa92613b68565b610c27565b610480565b90565b614bb690610480565b5f198114614bc45760010190565b612094565b905f14614e9757614c116020614be7614be26002611d06565b611d3b565b631d84be4490614c063392614bfa610427565b95869485938493611d8e565b835260048301611572565b03915afa908115614e92575f91614e64575b50614c305f600d0161052b565b80614e49575b80614e24575b614e11575b614c4d5f600d0161052b565b80614df6575b80614dd1575b614dbe575b614c6a5f600d0161052b565b9081614da2575b5080614d7d575b614d6a575b614c865f614b91565b614c925f600d01610552565b614d5c575b614ca35f600d01610579565b614d4e575b614cb45f600d016105a0565b614d40575b614cc55f600d0161052b565b9081614d24575b5080614cff575b614cdc575b505b565b614ce790600c613048565b614cf9614cf2612f8d565b600d6131fa565b5f614cd8565b50614d0c5f600d016104fe565b614d1e614d18836105f7565b916105f7565b14614cd3565b9050614d39614d336002612fc8565b91610480565b145f614ccc565b614d4990614bad565b614cb9565b614d5790614bad565b614ca8565b614d6590614bad565b614c97565b614d7860015f600d01613160565b614c7d565b50614d8a5f600d016104fe565b614d9c614d96836105f7565b916105f7565b14614c78565b9050614db7614db16003612fe7565b91610480565b145f614c71565b614dcc60015f600d01613121565b614c5e565b50614dde5f600d016104fe565b614df0614dea846105f7565b916105f7565b14614c59565b5080614e0b614e056002612fc8565b91610480565b14614c53565b614e1f60015f600d016130e2565b614c41565b50614e315f600d016104fe565b614e43614e3d846105f7565b916105f7565b14614c3c565b5080614e5e614e586001612fa9565b91610480565b14614c36565b614e85915060203d8111614e8b575b614e7d8183611d65565b8101906129cf565b5f614c23565b503d614e73565b611dc1565b50614eaa614ea3612f8d565b600d6131fa565b614cda565b90614eb991614a2c565b565b90614eec9392916020614ed6614ed16002611d06565b611d3b565b636a276f9d90614ee4610427565b978892611d8e565b82528180614efc600482016106e9565b03915afa94851561501857614f5a95614f1c915f91614fea575b50611e33565b6020614f30614f2b6002611d06565b611d3b565b6319c0642990614f4f3392614f43610427565b998a9485938493611d8e565b835260048301611572565b03915afa8015614fe557614f85955f91614fb7575b508015614f87575b614f8090611eed565b61501d565b565b50614f80614f9d614f986001611e7b565b611e88565b614faf614fa9336105f7565b916105f7565b149050614f77565b614fd8915060203d8111614fde575b614fd08183611d65565b810190611da3565b5f614f6f565b503d614fc6565b611dc1565b61500b915060203d8111615011575b6150038183611d65565b810190611da3565b5f614f16565b503d614ff9565b611dc1565b9161503b615042926150346150499695603b6120fb565b603c6120fb565b603e6120fb565b603f6120fb565b565b90615057939291614ebb565b565b9061508d96959493929160206150776150726002611d06565b611d3b565b636a276f9d90615085610427565b9a8b92611d8e565b8252818061509d600482016106e9565b03915afa9788156151b9576150fb986150bd915f9161518b575b50611e33565b60206150d16150cc6002611d06565b611d3b565b6319c06429906150f033926150e4610427565b9c8d9485938493611d8e565b835260048301611572565b03915afa801561518657615126985f91615158575b508015615128575b61512190611eed565b6151be565b565b5061512161513e6151396001611e7b565b611e88565b61515061514a336105f7565b916105f7565b149050615118565b615179915060203d811161517f575b6151718183611d65565b810190611da3565b5f615110565b503d615167565b611dc1565b6151ac915060203d81116151b2575b6151a48183611d65565b810190611da3565b5f6150b7565b503d61519a565b611dc1565b6152249461520961522b989561520061521b966151f75f9b976151ee615212986151e66124f1565b9e8f016124fc565b60208d016124fc565b60408b016124fc565b606089016124fc565b608087016124fc565b60a085016124fc565b60c083016124fc565b60126125c7565b565b9061523c969594939291615059565b565b61524661214d565b506152a061526e615257603261076a565b615268670de0b6b3a7640000612078565b906120a8565b602061528a61528561528060066104fe565b6129a8565b6129b4565b637d8ec03a90615298610427565b948592611d8e565b825281806152b0600482016106e9565b03915afa9081156152ff576152cc925f926152cf575b50612a01565b90565b6152f191925060203d81116152f8575b6152e98183611d65565b8101906129cf565b905f6152c6565b503d6152df565b611dc1565b61533290602061531c6153176002611d06565b611d3b565b636a276f9d9061532a610427565b948592611d8e565b82528180615342600482016106e9565b03915afa9182156153c45761539492615362915f91615396575b50611e33565b61538f6153776153726001611e7b565b611e88565b615389615383336105f7565b916105f7565b14611eed565b6153d5565b565b6153b7915060203d81116153bd575b6153af8183611d65565b810190611da3565b5f61535c565b503d6153a5565b611dc1565b6153d290611d2f565b90565b5f808080936153f36153ee6153e984613b87565b613c21565b6153c9565b828215615408575bf11561540357565b611dc1565b506108fc6153fb565b61541a90615304565b565b9061544d93929160206154376154326002611d06565b611d3b565b636a276f9d90615445610427565b978892611d8e565b8252818061545d600482016106e9565b03915afa948515615579576154bb9561547d915f9161554b575b50611e33565b602061549161548c6002611d06565b611d3b565b6319c06429906154b033926154a4610427565b998a9485938493611d8e565b835260048301611572565b03915afa8015615546576154e6955f91615518575b5080156154e8575b6154e190611eed565b6155e3565b565b506154e16154fe6154f96001611e7b565b611e88565b61551061550a336105f7565b916105f7565b1490506154d8565b615539915060203d811161553f575b6155318183611d65565b810190611da3565b5f6154d0565b503d615527565b611dc1565b61556c915060203d8111615572575b6155648183611d65565b810190611da3565b5f615477565b503d61555a565b611dc1565b6155886060612469565b90565b906155cf604060026155d5946155ae5f82016155a85f880161250a565b906120fb565b6155c7600182016155c16020880161250a565b906120fb565b01920161250a565b906120fb565b565b906155e19161558b565b565b6156356156419461562c61563c9461560e8561560861560260086134b4565b91610480565b10613529565b9561562361561a61557e565b975f89016124fc565b602087016124fc565b604085016124fc565b600f610c46565b6155d7565b565b9061564f93929161541c565b565b9061568091602061566a6156656002611d06565b611d3b565b636a276f9d90615678610427565b958692611d8e565b82528180615690600482016106e9565b03915afa9283156157ac576156ee936156b0915f9161577e575b50611e33565b60206156c46156bf6002611d06565b611d3b565b6319c06429906156e333926156d7610427565b97889485938493611d8e565b835260048301611572565b03915afa801561577957615719935f9161574b575b50801561571b575b61571490611eed565b6157b1565b565b5061571461573161572c6001611e7b565b611e88565b61574361573d336105f7565b916105f7565b14905061570b565b61576c915060203d8111615772575b6157648183611d65565b810190611da3565b5f615703565b503d61575a565b611dc1565b61579f915060203d81116157a5575b6157978183611d65565b810190611da3565b5f6156aa565b503d61578d565b611dc1565b906157c06157c792603d6120fb565b60406120fb565b565b906157d391615651565b565b6158376158246157fe61585d936157ea61214d565b506157f8600160200161076a565b906120a8565b61581e61580e600260200161076a565b615818606461402a565b906120a8565b90612a01565b615831600360200161076a565b906120a8565b615857615847600460200161076a565b615851606461402a565b906120a8565b90612a01565b90565b5f7f6f776e2e64656661756c742e73656e6465720000000000000000000000000000910152565b6158946012602092611dd1565b61589d81615860565b0190565b6158b69060208101905f818303910152615887565b90565b156158c057565b6158c8610427565b62461bcd60e51b8152806158de600482016158a1565b0390fd5b906159119161590c816159056158ff6158fa5f613b87565b6105f7565b916105f7565b14156158b9565b615913565b565b9061594291602061592c6159276002611d06565b611d3b565b636a276f9d9061593a610427565b958692611d8e565b82528180615952600482016106e9565b03915afa9283156159d4576159a493615972915f916159a6575b50611e33565b61599f6159876159826001611e7b565b611e88565b615999615993336105f7565b916105f7565b14611eed565b615a5b565b565b6159c7915060203d81116159cd575b6159bf8183611d65565b810190611da3565b5f61596c565b503d6159b5565b611dc1565b5f7f6f776e2e696e76616c69642e616d6f756e740000000000000000000000000000910152565b615a0d6012602092611dd1565b615a16816159d9565b0190565b615a2f9060208101905f818303910152615a00565b90565b15615a3957565b615a41610427565b62461bcd60e51b815280615a5760048201615a1a565b0390fd5b5f808093615a8d615a888395615a8384615a7d615a7788614b91565b91610480565b11615a32565b613c21565b6153c9565b828215615aa2575bf115615a9d57565b611dc1565b506108fc615a95565b90615ab5916158e2565b565b90615ae6916020615ad0615acb6002611d06565b611d3b565b636a276f9d90615ade610427565b958692611d8e565b82528180615af6600482016106e9565b03915afa928315615c1257615b5493615b16915f91615be4575b50611e33565b6020615b2a615b256002611d06565b611d3b565b6319c0642990615b493392615b3d610427565b97889485938493611d8e565b835260048301611572565b03915afa8015615bdf57615b7f935f91615bb1575b508015615b81575b615b7a90611eed565b615c17565b565b50615b7a615b97615b926001611e7b565b611e88565b615ba9615ba3336105f7565b916105f7565b149050615b71565b615bd2915060203d8111615bd8575b615bca8183611d65565b810190611da3565b5f615b69565b503d615bc0565b611dc1565b615c05915060203d8111615c0b575b615bfd8183611d65565b810190611da3565b5f615b10565b503d615bf3565b611dc1565b615c43615c4892615c3b83615c35615c2f60086134b4565b91610480565b10613529565b916010611453565b6120fb565b565b90615c5491615ab7565b565b90505190615c6382610b9c565b565b90602082820312615c7e57615c7b915f01615c56565b90565b610431565b615c8c90611d13565b90565b615c9890615c83565b90565b615ca490615c83565b90565b90565b90615cbf615cba615cc692615c9b565b615ca7565b825461301e565b9055565b615cd390611d13565b90565b615cdf90615cca565b90565b615ceb90615cca565b90565b90565b90615d06615d01615d0d92615ce2565b615cee565b825461301e565b9055565b615d1a90611d13565b90565b615d2690615d11565b90565b615d3290615d11565b90565b90565b90615d4d615d48615d5492615d29565b615d35565b825461301e565b9055565b615d6190611d13565b90565b615d6d90615d58565b90565b615d7990615d58565b90565b90565b90615d94615d8f615d9b92615d70565b615d7c565b825461301e565b9055565b615da890611d13565b90565b615db490615d9f565b90565b615dc090615d9f565b90565b90565b90615ddb615dd6615de292615db7565b615dc3565b825461301e565b9055565b615df7615df25f613b4f565b613b5c565b615e11615e0b615e065f613b87565b6105f7565b916105f7565b1461644e57615e426020615e2c615e275f613b4f565b613b5c565b634162169f90615e3a610427565b938492611d8e565b82528180615e52600482016106e9565b03915afa90811561644957615e7991615e72915f9161641b575b50615c8f565b6001615caa565b615ea56020615e8f615e8a5f613b4f565b613b5c565b63b57dbdc690615e9d610427565b938492611d8e565b82528180615eb5600482016106e9565b03915afa90811561641657615edc91615ed5915f916163e8575b50615cd6565b6002615cf1565b615f086020615ef2615eed5f613b4f565b613b5c565b63cfbffe5390615f00610427565b938492611d8e565b82528180615f18600482016106e9565b03915afa9081156163e357615f3f91615f38915f916163b5575b50615d1d565b6003615d38565b615f6b6020615f55615f505f613b4f565b613b5c565b63ab6e844f90615f63610427565b938492611d8e565b82528180615f7b600482016106e9565b03915afa9081156163b057615fa291615f9b915f91616382575b50615d64565b6004615d7f565b615fce6020615fb8615fb35f613b4f565b613b5c565b639a7c407790615fc6610427565b938492611d8e565b82528180615fde600482016106e9565b03915afa90811561637d5761600591615ffe915f9161634f575b50615dab565b6005615dc6565b616031602061601b6160165f613b4f565b613b5c565b63aa0ddc1690616029610427565b938492611d8e565b82528180616041600482016106e9565b03915afa801561634a5761605e915f9161631c575b506007613048565b61608a602061607461606f5f613b4f565b613b5c565b636b4aefc690616082610427565b938492611d8e565b8252818061609a600482016106e9565b03915afa8015616317576160b7915f916162e9575b506008613048565b6160e360206160cd6160c85f613b4f565b613b5c565b6324768d91906160db610427565b938492611d8e565b825281806160f3600482016106e9565b03915afa80156162e457616110915f916162b6575b50600b613048565b61613c60206161266161215f613b4f565b613b5c565b636402742790616134610427565b938492611d8e565b8252818061614c600482016106e9565b03915afa80156162b157616169915f91616283575b506009613048565b616195602061617f61617a5f613b4f565b613b5c565b6330125cf59061618d610427565b938492611d8e565b825281806161a5600482016106e9565b03915afa801561627e576161c2915f91616250575b50600a613048565b6161ee60206161d86161d35f613b4f565b613b5c565b63d3d1b096906161e6610427565b938492611d8e565b825281806161fe600482016106e9565b03915afa801561624b5761621b915f9161621d575b506006613048565b565b61623e915060203d8111616244575b6162368183611d65565b810190615c65565b5f616213565b503d61622c565b611dc1565b616271915060203d8111616277575b6162698183611d65565b810190615c65565b5f6161ba565b503d61625f565b611dc1565b6162a4915060203d81116162aa575b61629c8183611d65565b810190615c65565b5f616161565b503d616292565b611dc1565b6162d7915060203d81116162dd575b6162cf8183611d65565b810190615c65565b5f616108565b503d6162c5565b611dc1565b61630a915060203d8111616310575b6163028183611d65565b810190615c65565b5f6160af565b503d6162f8565b611dc1565b61633d915060203d8111616343575b6163358183611d65565b810190615c65565b5f616056565b503d61632b565b611dc1565b616370915060203d8111616376575b6163688183611d65565b810190615c65565b5f615ff8565b503d61635e565b611dc1565b6163a3915060203d81116163a9575b61639b8183611d65565b810190615c65565b5f615f95565b503d616391565b611dc1565b6163d6915060203d81116163dc575b6163ce8183611d65565b810190615c65565b5f615f32565b503d6163c4565b611dc1565b616409915060203d811161640f575b6164018183611d65565b810190615c65565b5f615ecf565b503d6163f7565b611dc1565b61643c915060203d8111616442575b6164348183611d65565b810190615c65565b5f615e6c565b503d61642a565b611dc1565b56fea2646970667358221220681b6e515984d4dc56137ce4cca247d5937c9c76b146c3bee1b4ec871ef609ed64736f6c63430008180033","linkReferences":{}},"methodIdentifiers":{"gethexbAdd()":"21dc7851"},"id":65}