{"abi":[{"type":"constructor","inputs":[{"name":"_hex","type":"address","internalType":"address"},{"name":"_price","type":"address","internalType":"address"},{"name":"_old741","type":"address","internalType":"address"}],"stateMutability":"nonpayable"},{"type":"function","name":"dAOAssembly","inputs":[],"outputs":[{"name":"","type":"address","internalType":"address"}],"stateMutability":"view"},{"type":"function","name":"daocore","inputs":[],"outputs":[{"name":"","type":"address","internalType":"address"}],"stateMutability":"view"},{"type":"function","name":"nested741","inputs":[],"outputs":[{"name":"","type":"address","internalType":"address"}],"stateMutability":"view"},{"type":"function","name":"old741","inputs":[],"outputs":[{"name":"","type":"address","internalType":"address"}],"stateMutability":"view"},{"type":"function","name":"price","inputs":[],"outputs":[{"name":"","type":"address","internalType":"address"}],"stateMutability":"view"}],"bytecode":{"object":"0x6080346101b757601f6186da38819003918201601f19168301926001600160401b03929091838511838610176101a15781606092849260409788528339810103126101b75761004d816101bc565b6100648461005d602085016101bc565b93016101bc565b9160018060a01b03199273c0cee8b561cc4f60869776ca5b0b7a295e04f5af84600154161760015585516113219586820196828810828911176101a15761032583396001600160a01b039485168088526000979092908190036020019088f0801561018357851686600354161760035587516151e4808201908282108483111761018d5760209183916134f6833985815203019088f08015610183578516866002541617600255875191611eb0808401928484109084111761016f579183916020936116468439815203019086f080156101655790838092168560045416176004551683600154161760015516908254161790555161015490816101d18239f35b86513d87823e3d90fd5b634e487b7160e01b89526041600452602489fd5b88513d89823e3d90fd5b634e487b7160e01b8a52604160045260248afd5b634e487b7160e01b600052604160045260246000fd5b600080fd5b51906001600160a01b03821682036101b75756fe608080604052600436101561001357600080fd5b600090813560e01c90816314837455146100f55750806314d8d024146100ce57806345cff900146100a75780635540c5ac146100805763a035b1fe1461005857600080fd5b3461007d578060031936011261007d576001600160a01b036020915416604051908152f35b80fd5b503461007d578060031936011261007d5760206001600160a01b0360015416604051908152f35b503461007d578060031936011261007d5760206001600160a01b0360025416604051908152f35b503461007d578060031936011261007d5760206001600160a01b0360045416604051908152f35b90503461011a578160031936011261011a576020906001600160a01b03600354168152f35b5080fdfea2646970667358221220f00684c94ff70d89a397f878edd5152f05465798d1e5b32998fed40d45543ba864736f6c634300081400336080346100ca57601f61132138819003918201601f19168301916001600160401b038311848410176100cf578084926020946040528339810103126100ca57516001600160a01b038116908190036100ca5780156100855760018060a01b0319338160015416176001556000541617600055600060045560405161123b90816100e68239f35b60405162461bcd60e51b815260206004820152601360248201527f6f776e2e696e76616c69642e68657862617365000000000000000000000000006044820152606490fd5b600080fd5b634e487b7160e01b600052604160045260246000fdfe60806040526004361015610018575b361561001657005b005b60003560e01c806312065fe0146101085780631f185d161461010357806325924f34146100fe5780633b9b7955146100f957806361b7fbd9146100f45780638da5cb5b146100ef578063a1f7f539146100ea578063af484526146100e5578063b90306ad146100e0578063c54e44b0146100db578063c89b84fd146100d6578063dbac26e9146100d1578063e01ad5fd146100cc578063e0a9bc2b146100c75763fdc10bc90361000e576109a3565b610904565b61086a565b610827565b610714565b610672565b610552565b610481565b6103c3565b61039c565b6102c5565b610294565b610263565b61013a565b3461012457600036600319011261012457602047604051908152f35b600080fd5b6001600160a01b0381160361012457565b34610124576020806003193601126101245760049081359061015b82610129565b8061017d6101716000546001600160a01b031690565b6001600160a01b031690565b60405194858092634bf9c0ad60e11b82525afa91821561025e576101d161020b936101ed9261021d9660009261022b575b506101df906040519384918783019190916001600160a01b036020820193169052565b03601f198101845283610a19565b6101e7610e98565b90611089565b919080610221575b6101fe90610ed1565b8082518301019101610dff565b60405190151581529081906020820190565b0390f35b50815181146101f5565b6101df91925061025090863d8811610257575b6102488183610a19565b810190610a3b565b91906101ae565b503d61023e565b610a53565b3461012457602036600319011261012457602061028a60043561028581610129565b610b72565b6040519015158152f35b346101245760003660031901126101245760206001600160a01b0360005416604051908152f35b8015150361012457565b34610124576040366003190112610124576004356102e281610129565b6024356102ee816102bb565b6001600160a01b03600092600460208386541660405192838092630536340960e21b82525afa801561025e5761032f91869161037e575b5083163314610d30565b16825260036020526040822060ff1981541660ff8315151617905560001461036b5760045460001981146103665760010160045580f35b610d0c565b6004548015610366576000190160045580f35b610396915060203d8111610257576102488183610a19565b38610325565b346101245760003660031901126101245760206001600160a01b0360015416604051908152f35b3461012457600036600319011261012457600460206001600160a01b03600054166040519283809263d1f956b160e01b82525afa90811561025e5761021d9161045391600091610463575b5060405161041b816109dc565b601381527f67657464656c656761746f72436f756e74282900000000000000000000000000602082015261044d610a7b565b916111c7565b6040519081529081906020820190565b61047b915060203d8111610257576102488183610a19565b3861040e565b3461012457602080600319360112610124576004908135906104a282610129565b806104b86101716000546001600160a01b031690565b60405194858092634bf9c0ad60e11b82525afa91821561025e576101d161020b936105149261021d9660009261052f575b5061050c906040519384918783019190916001600160a01b036020820193169052565b6101e7610e14565b919080610525575b6101fe90610e4d565b508151811461051c565b61050c91925061054b90863d8811610257576102488183610a19565b91906104e9565b3461012457602080600319360112610124576004356001600160a01b0391600092808454169060405191630536340960e21b83528383600481845afa92831561025e5760049385936105ae928992610653575b50163314610d30565b604051928380927f46f991ac0000000000000000000000000000000000000000000000000000000082525afa91821561025e5784808561060595829583958492610636575b50505af16105ff61100e565b5061103e565b60405190815233907fcdcc745fe377b103b45fa0cec23ae3ef93d6fc6a84a01f0d18c40b354dd1d5d890602090a280f35b61064c9250803d10610257576102488183610a19565b38806105f3565b61066b919250853d8711610257576102488183610a19565b90386105a5565b346101245760203660031901126101245760043561068f81610129565b803b600061069c82610a5f565b926106aa6040519485610a19565b82845260208401903c602d8151106106d057602a015160405160609190911c8152602090f35b606460405162461bcd60e51b815260206004820152601360248201527f4e6f742061206d696e696d616c2070726f7879000000000000000000000000006044820152fd5b34610124576000806003193601126108245761073a61017182546001600160a01b031690565b906040519063cfbffe5360e01b82526020928383600481845afa801561025e5761077a85916004958591610807575b50610772610a8e565b61044d610a7b565b916040519485809263ab6e844f60e01b82525afa801561025e5761021d94610453946107df94926107e4575b506107d1906101d16107b6610f1c565b94604051958693840160209093929193604081019481520152565b6107d9610cd3565b906111c7565b610d22565b819250610800906107d1923d8511610257576102488183610a19565b91906107a6565b61081e9150833d8511610257576102488183610a19565b38610769565b80fd5b34610124576020366003190112610124576001600160a01b0360043561084c81610129565b166000526003602052602060ff604060002054166040519015158152f35b3461012457602080600319360112610124576004803561088981610129565b6001600160a01b03928084600054166040519485809263d1f956b160e01b82525afa90811561025e5761021d9461020b946000936108e5575b5060405193168184015282526108d7826109dc565b6108df610fd5565b9061118b565b6108fd919350823d8411610257576102488183610a19565b91386108c2565b34610124576000366003190112610124576001600160a01b03600054166040518091634bf9c0ad60e11b825281600460209384935afa90811561025e5761096b61020b9261021d94600091610986575b5061095d610d7b565b610965610a7b565b91611089565b91908061097c575b6101fe90610db4565b5081518114610973565b61099d9150833d8511610257576102488183610a19565b38610954565b346101245760003660031901126101245760206109be610f1c565b604051908152f35b634e487b7160e01b600052604160045260246000fd5b6040810190811067ffffffffffffffff8211176109f857604052565b6109c6565b6020810190811067ffffffffffffffff8211176109f857604052565b90601f8019910116810190811067ffffffffffffffff8211176109f857604052565b908160209103126101245751610a5081610129565b90565b6040513d6000823e3d90fd5b67ffffffffffffffff81116109f857601f01601f191660200190565b60405190610a88826109fd565b60008252565b60405190610a9b826109dc565b600c82527f72616e6b666f7244414f282900000000000000000000000000000000000000006020830152565b60405190610ad4826109dc565b601682527f67657455736572546f53746f72286164647265737329000000000000000000006020830152565b60405190610b0d826109dc565b600682527f72616e6b282900000000000000000000000000000000000000000000000000006020830152565b60405190610b46826109dc565b600882527f69734c6f636b28290000000000000000000000000000000000000000000000006020830152565b610b876101716000546001600160a01b031690565b9060405163cfbffe5360e01b81526020908181600481875afa801561025e57610bbe83916004936000916108075750610772610a8e565b946040519283809263ab6e844f60e01b82525afa801561025e57610c17928492600092610cb0575b506040516001600160a01b03909316908301908152610c099083906020016101d1565b610c11610ac7565b9061113a565b916001600160a01b03831615610ca857610c5b610c44610c35610b00565b610c3d610a7b565b90866111c7565b93610c4d610b39565b610c55610a7b565b9161118b565b9210159182610c9f575b5081610c6f575090565b610a509150610c94610c9b916001600160a01b03166000526003602052604060002090565b5460ff1690565b1590565b15915038610c65565b505050600090565b819250610ccc90610c09923d8511610257576102488183610a19565b9190610be6565b60405190610ce0826109dc565b601d82527f67657472616e6b636f756e742875696e743235362c75696e74323536290000006020830152565b634e487b7160e01b600052601160045260246000fd5b906003820180921161036657565b15610d3757565b606460405162461bcd60e51b815260206004820152600f60248201527f6f776e2e6e6f6e617574682e44414f00000000000000000000000000000000006044820152fd5b60405190610d88826109dc565b600882527f69735361666528290000000000000000000000000000000000000000000000006020830152565b15610dbb57565b606460405162461bcd60e51b815260206004820152601960248201527f6f776e2e7361666567756172642e63616c6c2e6661696c6564000000000000006044820152fd5b908160209103126101245751610a50816102bb565b60405190610e21826109dc565b601582527f69735365637572654261736528616464726573732900000000000000000000006020830152565b15610e5457565b606460405162461bcd60e51b815260206004820152601a60248201527f6f776e2e736563757265626173652e63616c6c2e6661696c65640000000000006044820152fd5b60405190610ea5826109dc565b601182527f69735369676e65722861646472657373290000000000000000000000000000006020830152565b15610ed857565b606460405162461bcd60e51b815260206004820152601660248201527f6f776e2e7369676e65722e63616c6c2e6661696c6564000000000000000000006044820152fd5b600460206001600160a01b0360005416604051928380927f447aa3040000000000000000000000000000000000000000000000000000000082525afa801561025e57610a5091600091610fb7575b50604051610f77816109dc565b600581527f6167652829000000000000000000000000000000000000000000000000000000602082015260405191610fae836109fd565b600083526111c7565b610fcf915060203d8111610257576102488183610a19565b38610f6a565b60405190610fe2826109dc565b601882527f697364656c656761746f724e6f646528616464726573732900000000000000006020830152565b3d15611039573d9061101f82610a5f565b9161102d6040519384610a19565b82523d6000602084013e565b606090565b1561104557565b606460405162461bcd60e51b815260206004820152600f60248201527f6f776e2e6275726e2e6661696c656400000000000000000000000000000000006044820152fd5b9190823b15611121577fffffffff00000000000000000000000000000000000000000000000000000000815160208093012016916040519180830193845281519160005b83811061110d5750505091816110fa60248260009795968897018783820152036004810184520182610a19565b5191620dbba0fa61110961100e565b9091565b8181018301518582016024015282016110cd565b505050600090604051611133816109fd565b6000815290565b929161114891600094611089565b9080611180575b6111565750565b9091506020818051810103126101245760206001600160a01b0391015161117c81610129565b1690565b50602081511461114f565b929161119991600094611089565b90806111bc575b6111a75750565b610a5091925060208082518301019101610dff565b5060208151146111a0565b92916111d591600094611089565b90806111fa575b6111e35750565b909150602081805181010312610124576020015190565b5060208151146111dc56fea2646970667358221220ee39808ee26fc50d06f125609d47cd027e5ff6e637695ea67cc991987d44b87564736f6c634300081400336080346100cf57601f611eb038819003918201601f19168301916001600160401b038311848410176100d4578084926020946040528339810103126100cf57516001600160a01b038116908190036100cf57801561008a5760018060a01b031933816001541617600155600054161760005560006003556001600455604051611dc590816100eb8239f35b60405162461bcd60e51b815260206004820152601360248201527f6f776e2e696e76616c69642e68657862617365000000000000000000000000006044820152606490fd5b600080fd5b634e487b7160e01b600052604160045260246000fdfe60806040526004361015610018575b361561001657005b005b60003560e01c8063013cf08b1461016857806312065fe0146101635780631f185d161461015e5780633595df1a146101595780633b9b795514610154578063438596321461014f57806365153c4b1461014a5780638da5cb5b1461014557806398e527d314610140578063995e43391461013b578063a1f7f53914610136578063af48452614610131578063b90306ad1461012c578063c54e44b014610127578063c7f758a814610122578063c9d27afe1461011d578063d153356b14610118578063d3a3084914610113578063e01ad5fd1461010e578063e0a9bc2b146101095763fdc10bc90361000e5761105b565b611040565b611019565b610d89565b610ca0565b610b26565b610ab6565b6109d8565b610903565b6107de565b6107bb565b610737565b610719565b6106f2565b6105e4565b610575565b61054e565b610511565b6104e0565b6104b3565b610402565b6005548110156101a857600b906005600052027f036b6384b5eca791c62761152d0c79bb0604c104a5fb6f4eb0703f3154bb3db00190600090565b634e487b7160e01b600052603260045260246000fd5b90600182811c921680156101ee575b60208310146101d857565b634e487b7160e01b600052602260045260246000fd5b91607f16916101cd565b9060009291805491610209836101be565b91828252600193848116908160001461026b575060011461022b575b50505050565b90919394506000526020928360002092846000945b838610610257575050505001019038808080610225565b805485870183015294019385908201610240565b9294505050602093945060ff191683830152151560051b01019038808080610225565b634e487b7160e01b600052604160045260246000fd5b6020810190811067ffffffffffffffff8211176102c057604052565b61028e565b6040810190811067ffffffffffffffff8211176102c057604052565b90601f8019910116810190811067ffffffffffffffff8211176102c057604052565b9061031e61031792604051938480926101f8565b03836102e1565b565b60005b8381106103335750506000910152565b8181015183820152602001610323565b9060209161035c81518092818552858086019101610320565b601f01601f1916010190565b9892956103ba959e9d9b956103fa99936101809c9661031e9f9a949960408e6001600160a01b036103a46103f09e6101a0808552840190610343565b9516602082015201528c820360608e0152610343565b9e60808b015260a08a015260c089015260e088015261010087015215156101208601526101408501906001600160a01b03169052565b1515610160830152565b019015159052565b346104ae5760203660031901126104ae576004356005548110156104ae576104299061016d565b506040519061043c8261031781846101f8565b6104aa6001600160a01b0392836001840154169360028401549361046260038201610303565b9560048201549160058101546006820154600783015491600a6008850154940154956040519b8c9b8c9760ff8a60b01c169b60ff808c60a81c169c8c60081c169b1699610368565b0390f35b600080fd5b346104ae5760003660031901126104ae57602047604051908152f35b6001600160a01b038116036104ae57565b346104ae5760203660031901126104ae576020610507600435610502816104cf565b611778565b6040519015158152f35b346104ae5760203660031901126104ae57600435600019810190811161054957600561053e60209261016d565b500154604051908152f35b611192565b346104ae5760003660031901126104ae5760206001600160a01b0360005416604051908152f35b346104ae5760403660031901126104ae57600435602435610595816104cf565b6000198201918211610549576105ce60ff9160096105b460209561016d565b5001906001600160a01b0316600052602052604060002090565b54166040519015158152f35b801515036104ae57565b346104ae5760403660031901126104ae57600435602435610604816105da565b61060d33611778565b156106ae57600019820191808311610549576106a961062e6100169461016d565b5061065c60ff6106543360098501906001600160a01b0316600052602052604060002090565b541615611311565b610695600a8201549161067560ff8460b01c16156112c6565b61068160ff8416611230565b600761068b611822565b91015411156113a7565b60081c6001600160a01b031633141561135c565b611401565b606460405162461bcd60e51b815260206004820152601260248201527f6f776e2e696e76616c69642e7369676e657200000000000000000000000000006044820152fd5b346104ae5760003660031901126104ae5760206001600160a01b0360015416604051908152f35b346104ae5760003660031901126104ae576020600554604051908152f35b346104ae5760203660031901126104ae576004356000198101908111610549576107609061016d565b506004810154600682015460078301546008840154600a9094015460408051948552602085019390935291830152606082019290925260ff60a883901c81161515608083015260b09290921c909116151560a082015260c090f35b346104ae5760003660031901126104ae5760206107d66119bc565b604051908152f35b346104ae576020806003193601126104ae576004908135906107ff826104cf565b806108216108156000546001600160a01b031690565b6001600160a01b031690565b60405194858092634bf9c0ad60e11b82525afa9182156108fe576108756108af93610891926104aa966000926108cb575b50610883906040519384918783019190916001600160a01b036020820193169052565b03601f1981018452836102e1565b61088b611670565b90611b77565b9190806108c1575b6108a2906116a9565b808251830101910161159b565b60405190151581529081906020820190565b5081518114610899565b6108839192506108f090863d88116108f7575b6108e881836102e1565b810190611510565b9190610852565b503d6108de565b611528565b346104ae5760203660031901126104ae5760046001600160a01b0360208160005416604051938480927f14d8d0240000000000000000000000000000000000000000000000000000000082525afa9182156108fe576000926109b8575b503391160361097457610016600435611a83565b606460405162461bcd60e51b815260206004820152600f60248201527f6f776e2e6e6f6e617574682e44414f00000000000000000000000000000000006044820152fd5b6109d191925060203d81116108f7576108e881836102e1565b9038610960565b346104ae5760203660031901126104ae576004356109f5816104cf565b803b6000610a0282611534565b92610a1060405194856102e1565b82845260208401903c602d815110610a3657602a015160405160609190911c8152602090f35b606460405162461bcd60e51b815260206004820152601360248201527f4e6f742061206d696e696d616c2070726f7879000000000000000000000000006044820152fd5b93610a936080949796939260a0875260a0870190610343565b966001600160a01b03809316602087015260408601521660608401521515910152565b346104ae5760203660031901126104ae57600435600019810190811161054957610adf9061016d565b506001600160a01b036104aa81600184015416926103176002820154610b10600a84015493604051938480926101f8565b60405195869560ff85169460081c169286610a7a565b346104ae5760403660031901126104ae57600435602435610b46816105da565b610b4f33611778565b8015610c7d575b610b5f906111d6565b610c52610c45610b76610b7185611221565b61016d565b50600a81015490610b8960ff8316611230565b610ba06007820154610b99611822565b111561127b565b610bb060ff8360b01c16156112c6565b610bee6009820192610695610be9610be5610bde3388906001600160a01b0316600052602052604060002090565b5460ff1690565b1590565b611311565b60008515610c78575060015b610c0c60ff60048401921682546111c9565b9055600085610c6a5750610c2b60ff60066001935b01921682546111c9565b9055336001600160a01b0316600052602052604060002090565b805460ff19166001179055565b610c5b33611778565b610c6157005b61001691611401565b60ff6006610c2b9293610c21565b610bfa565b50610c866115b0565b8015610b565750610b5f610c99336118db565b9050610b56565b346104ae5760403660031901126104ae57610cb96115b0565b15610d1757333003610cd357600480356003556024359055005b606460405162461bcd60e51b815260206004820152600d60248201527f64616f2e66616b652e636f7265000000000000000000000000000000000000006044820152fd5b606460405162461bcd60e51b815260206004820152601260248201527f6f776e2e696e76616c69642e69735361666500000000000000000000000000006044820152fd5b9181601f840112156104ae5782359167ffffffffffffffff83116104ae57602083818601950101116104ae57565b346104ae5760a03660031901126104ae5767ffffffffffffffff6004358181116104ae57610dbb903690600401610d5b565b602435610dc7816104cf565b6064358481116104ae57610ddf903690600401610d5b565b9390926001600160a01b03831615610fd55760055491680100000000000000008310156102c057610e1760019384810160055561016d565b509682116102c057610e3382610e2d89546101be565b89611076565b600090601f8311600114610f5b5793600a969383610f42999794610ea694610eb798600092610f50575b5050600019600383901b1c191690821b1787555b8601906001600160a01b03167fffffffffffffffffffffffff0000000000000000000000000000000000000000825416179055565b6044356002850155600384016110ca565b610edd610ed6610ed1610ec86119bc565b600354906111a8565b6111bb565b6064900490565b6008820155610ef5608435610ef0611822565b6111c9565b60078201550180547fffffffffffffffffffffff0000000000000000000000000000000000000000ff163360081b74ffffffffffffffffffffffffffffffffffffffff0016178155610c45565b600554604051908152602090f35b013590503880610e5d565b601f19831691610f7089600052602060002090565b92815b818110610fbf57509484610ea694610eb798948394610f429d9b98600a9d9a10610fa5575b505050811b018755610e71565b0135600019600384901b60f8161c19169055388080610f98565b8383013585559386019360209283019201610f73565b606460405162461bcd60e51b815260206004820152601260248201527f6f776e2e64656661756c742e73656e64657200000000000000000000000000006044820152fd5b346104ae5760203660031901126104ae57602061050760043561103b816104cf565b6118db565b346104ae5760003660031901126104ae5760206105076115b0565b346104ae5760003660031901126104ae5760206107d6611822565b90601f811161108457505050565b600091825260208220906020601f850160051c830194106110c0575b601f0160051c01915b8281106110b557505050565b8181556001016110a9565b90925082906110a0565b90929167ffffffffffffffff81116102c0576110f0816110ea84546101be565b84611076565b6000601f821160011461112a578192939460009261111f575b50508160011b916000199060031b1c1916179055565b013590503880611109565b601f1982169461113f84600052602060002090565b91805b87811061117a575083600195969710611160575b505050811b019055565b0135600019600384901b60f8161c19169055388080611156565b90926020600181928686013581550194019101611142565b634e487b7160e01b600052601160045260246000fd5b8181029291811591840414171561054957565b906063820180921161054957565b9190820180921161054957565b156111dd57565b606460405162461bcd60e51b815260206004820152601660248201527f64616f2e6e6f6e617574682e64656c656761746f7273000000000000000000006044820152fd5b60001981019190821161054957565b1561123757565b606460405162461bcd60e51b815260206004820152601160248201527f64616f2e70726f702e6e6f7465786973740000000000000000000000000000006044820152fd5b1561128257565b606460405162461bcd60e51b815260206004820152601060248201527f64616f2e766f74696e672e656e646564000000000000000000000000000000006044820152fd5b156112cd57565b606460405162461bcd60e51b815260206004820152601560248201527f64616f2e616c72656164792e636f6d706c6574656400000000000000000000006044820152fd5b1561131857565b606460405162461bcd60e51b815260206004820152601160248201527f64616f2e616c72656164792e766f7465640000000000000000000000000000006044820152fd5b1561136357565b606460405162461bcd60e51b815260206004820152601260248201527f64616f2e766f7465722e726573747269637400000000000000000000000000006044820152fd5b156113ae57565b606460405162461bcd60e51b815260206004820152601360248201527f64616f2e6265666f72652e646561646c696e65000000000000000000000000006044820152fd5b60001981146105495760010190565b610b7161140d91611221565b506005810161141c81546113f2565b809155600454148015611508575b611432575050565b6114a96114ce92600a8301611482817601000000000000000000000000000000000000000000007fffffffffffffffffff00ffffffffffffffffffffffffffffffffffffffffffff825416179055565b816114f5575b816114d1579060ff60a81b1960ff60a81b835492151560a81b169116179055565b60018101546001600160a01b03166114c8600360028401549301610303565b90611c95565b50565b60048401546006850154825460ff60a81b1916911160a81b60ff60a81b1617905550565b6004840154600885015411159150611488565b50811561142a565b908160209103126104ae5751611525816104cf565b90565b6040513d6000823e3d90fd5b67ffffffffffffffff81116102c057601f01601f191660200190565b1561155757565b606460405162461bcd60e51b815260206004820152601960248201527f6f776e2e7361666567756172642e63616c6c2e6661696c6564000000000000006044820152fd5b908160209103126104ae5751611525816105da565b6001600160a01b03600054166040518091634bf9c0ad60e11b825281600460209384935afa9182156108fe576115259261163891600091611653575b506040516115f9816102c5565b600881527f6973536166652829000000000000000000000000000000000000000000000000848201526040519161162f836102a4565b60008352611b77565b919080611649575b6108a290611550565b5081518114611640565b61166a9150833d85116108f7576108e881836102e1565b386115ec565b6040519061167d826102c5565b601582527f69735365637572654261736528616464726573732900000000000000000000006020830152565b156116b057565b606460405162461bcd60e51b815260206004820152601a60248201527f6f776e2e736563757265626173652e63616c6c2e6661696c65640000000000006044820152fd5b60405190611701826102c5565b601182527f69735369676e65722861646472657373290000000000000000000000000000006020830152565b1561173457565b606460405162461bcd60e51b815260206004820152601660248201527f6f776e2e7369676e65722e63616c6c2e6661696c6564000000000000000000006044820152fd5b6000546001600160a01b0316604051918291634bf9c0ad60e11b835282600460209485935afa9283156108fe57611525936117e492610875926000926117ff575b506117dc906040519384918783019190916001600160a01b036020820193169052565b61088b6116f4565b9190806117f5575b6108a29061172d565b50815181146117ec565b6117dc91925061181b90863d88116108f7576108e881836102e1565b91906117b9565b600460206001600160a01b0360005416604051928380927f447aa3040000000000000000000000000000000000000000000000000000000082525afa80156108fe57611525916000916118bd575b5060405161187d816102c5565b600581527f61676528290000000000000000000000000000000000000000000000000000006020820152604051916118b4836102a4565b60008352611c0d565b6118d5915060203d81116108f7576108e881836102e1565b38611870565b6001600160a01b039081600054169060405192839263d1f956b160e01b845283600460209586935afa9384156108fe57600094611997575b5060405191168282015281815261196a9061192d816102c5565b604051611939816102c5565b601881527f697364656c656761746f724e6f6465286164647265737329000000000000000084820152600094611b77565b91908061198d575b61197b57505090565b6115259250808251830101910161159b565b5080825114611972565b61196a929194506119b490843d86116108f7576108e881836102e1565b939091611913565b600460206001600160a01b03600054166040519283809263d1f956b160e01b82525afa80156108fe5761152591600091611a35575b506040516119fe816102c5565b601381527f67657464656c656761746f72436f756e742829000000000000000000000000006020820152604051916118b4836102a4565b611a4d915060203d81116108f7576108e881836102e1565b386119f1565b3d15611a7e573d90611a6482611534565b91611a7260405193846102e1565b82523d6000602084013e565b606090565b6000600460206001600160a01b03835416604051928380927f46f991ac0000000000000000000000000000000000000000000000000000000082525afa9081156108fe578284819382938391611b59575b505af1611adf611a53565b5015611b155760405190815233907fcdcc745fe377b103b45fa0cec23ae3ef93d6fc6a84a01f0d18c40b354dd1d5d890602090a2565b606460405162461bcd60e51b815260206004820152600f60248201527f6f776e2e6275726e2e6661696c656400000000000000000000000000000000006044820152fd5b611b71915060203d81116108f7576108e881836102e1565b38611ad4565b803b15611bf4576000927fffffffff000000000000000000000000000000000000000000000000000000008360208695519101201690611be16024604051809360208201958652611bd18151809260208686019101610320565b81010360048101845201826102e1565b5191620dbba0fa611bf0611a53565b9091565b505050600090604051611c06816102a4565b6000815290565b9291611c1b91600094611b77565b9080611c40575b611c295750565b9091506020818051810103126104ae576020015190565b506020815114611c22565b90602082519201517fffffffff00000000000000000000000000000000000000000000000000000000908181169360048110611c8657505050565b60040360031b82901b16169150565b9190916001600160a01b03811615611d4b57600091829184519160208601915af190611cbf611a53565b9115611cc9575090565b805160009190600411611d4557611ce09150611c4b565b815115611cf05750805190602001fd5b6040517f21c09d340000000000000000000000000000000000000000000000000000000081527fffffffff00000000000000000000000000000000000000000000000000000000919091166004820152602490fd5b50611ce0565b606460405162461bcd60e51b815260206004820152601260248201527f6f776e2e696e76616c69642e74617267657400000000000000000000000000006044820152fdfea264697066735822122069e3dbfae0e5ea9db167263ffa9b075150f220fa650c551933f479fa4897f79064736f6c63430008140033608034620000d157601f620051e438819003918201601f19168301916001600160401b03831184841017620000d657808492602094604052833981010312620000d157516001600160a01b03811690819003620000d15780156200008c5760018060a01b031933816001541617600155600054161760005560016003556040516150f79081620000ed8239f35b60405162461bcd60e51b815260206004820152601360248201527f6f776e2e696e76616c69642e68657862617365000000000000000000000000006044820152606490fd5b600080fd5b634e487b7160e01b600052604160045260246000fdfe60806040526004361015610018575b361561001657005b005b60003560e01c80629db65514610327578063033eeffb146103225780630e5fd00b1461031d57806312065fe0146103185780631bb49f02146103135780631c53c2801461030e5780631f185d16146103095780632a687c87146103045780632fefc0bf146102ff57806332ff4eab146102fa57806333b59a5b146102f55780633a7b55b8146102f05780633b9b7955146102eb5780633baee0ea146102e6578063419cb27b146102e157806342cc9d57146102dc57806344585097146102d75780634f0f4aa9146102d2578063509222cd146102cd57806350db85d1146102c857806361ea7208146102c3578063629d671e146102be57806365d2fbd3146102b95780636a811244146102b457806376fe6c45146102af5780637bb98498146102aa57806380f85e33146102a5578063849c22ad146102a0578063896c354a1461029b5780638da5cb5b1461029657806395f72f491461029157806398b3f2151461028c578063a1f7f53914610287578063a89d693b14610282578063af4845261461027d578063b1c4907914610278578063b366335e14610273578063b90306ad1461026e578063c54e44b014610269578063c871372b14610264578063d1e0bbc61461025f578063dcb3fc4a1461025a578063e01ad5fd14610255578063e0a9bc2b14610250578063eb95c6621461024b578063eb9e9e2c14610246578063f3ca712414610241578063fd38093b1461023c5763fdc10bc90361000e5761288c565b61281c565b6127f0565b61262e565b612602565b6125e7565b61254d565b61235d565b612323565b6122a5565b612203565b612147565b6120f1565b611fde565b611fb7565b611e98565b611dab565b611d7f565b611cd9565b611cb2565b611c72565b611c43565b611c09565b611b63565b611b13565b611578565b611231565b6111f3565b6111d5565b611115565b6110c1565b610fd4565b610f9c565b610f6d565b610f33565b6109da565b61098b565b61081f565b61074b565b6106a5565b61066d565b6105c2565b61049d565b610468565b610403565b6103e7565b610397565b61035a565b3461035557602036600319011261035557600254600019810190811161035057610016906144e0565b612af6565b600080fd5b3461035557602036600319011261035557600435600052600b6020526020604060002054604051908152f35b6001600160a01b0381160361035557565b346103555760203660031901126103555760206004356103b681610386565b6001600160a01b03809116600052600482526040600020546000526007825260046040600020015416604051908152f35b3461035557600036600319011261035557602047604051908152f35b346103555760203660031901126103555760043561042081610386565b6001600160a01b0390811660009081526004602090815260408083205483526007825280832060020154808452600583529281902054815193845290931690820152f35b0390f35b3461035557602036600319011261035557600435600052600560205260206001600160a01b0360406000205416604051908152f35b3461035557602080600319360112610355576004908135906104be82610386565b806104e06104d46000546001600160a01b031690565b6001600160a01b031690565b60405194858092634bf9c0ad60e11b82525afa9182156105bd5761053461056e93610550926104649660009261058a575b50610542906040519384918783019190916001600160a01b036020820193169052565b03601f19810184528361293a565b61054a614b77565b90614e23565b919080610580575b61056190614bb0565b8082518301019101614975565b60405190151581529081906020820190565b5081518114610558565b6105429192506105af90863d88116105b6575b6105a7818361293a565b810190612bad565b9190610511565b503d61059d565b612bc2565b34610355576040366003190112610355576105e36105de614989565b612b62565b6105ec33614acd565b801561060a575b6105fc90612bce565b61001660243560043561470b565b5060046001600160a01b036020816000541660405193848092630536340960e21b82525afa9081156105bd576105fc9260009261064d575b5016331490506105f3565b61066691925060203d81116105b6576105a7818361293a565b9038610642565b3461035557602036600319011261035557600435600052600760205260206001600160a01b0360056040600020015416604051908152f35b34610355576040366003190112610355576106c16105de614989565b6106ca33614acd565b80156106e8575b6106da90612bce565b61001660243560043561475f565b5060046001600160a01b036020816000541660405193848092630536340960e21b82525afa9081156105bd576106da9260009261072b575b5016331490506106d1565b61074491925060203d81116105b6576105a7818361293a565b9038610720565b34610355576040366003190112610355576107676105de614989565b61077033614acd565b801561078e575b61078090612bce565b6100166024356004356147fb565b5060046001600160a01b036020816000541660405193848092630536340960e21b82525afa9081156105bd57610780926000926107d1575b501633149050610777565b6107ea91925060203d81116105b6576105a7818361293a565b90386107c6565b60e0810192916000915b6007831061080857505050565b6001908251815260208091019201920191906107fb565b346103555760203660031901126103555761046460043561097961096960405192610849846128e6565b60e0368537610875610865826000526009602052604060002090565b6001600052602052604060002090565b54845261089f61088f826000526009602052604060002090565b6002600052602052604060002090565b5460208501526108cc6108bc826000526009602052604060002090565b6003600052602052604060002090565b5460408501526108f96108e9826000526009602052604060002090565b6004600052602052604060002090565b546060850152610926610916826000526009602052604060002090565b6005600052602052604060002090565b546080850152610953610943826000526009602052604060002090565b6006600052602052604060002090565b5460a08501526000526009602052604060002090565b6007600052602052604060002090565b5460c0820152604051918291826107f1565b346103555760003660031901126103555760206001600160a01b0360005416604051908152f35b6040906003190112610355576004356109ca81610386565b906024356109d781610386565b90565b3461035557610a396109eb366109b2565b6109f3612b27565b610a0c6109fe61298b565b610a066129a3565b33614eb9565b91610a59610a23610a1b61298b565b610a066129dc565b6001600160a01b03958487169587168614612a15565b85610a516104d482600054166001600160a01b031690565b911614612a60565b610a648315156134a8565b610a81826001600160a01b03166000526004602052604060002090565b54158015610f28575b610a93906134f3565b610abb610ab3826001600160a01b03166000526004602052604060002090565b54151561353e565b610aff6005610af1610ae0846001600160a01b03166000526004602052604060002090565b546000526007602052604060002090565b01546001600160a01b031690565b92604094855194610b686020967f880cdc31000000000000000000000000000000000000000000000000000000008882015280610b4f88602483019190916001600160a01b036020820193169052565b0392610b63601f199485810184528361293a565b614fcc565b50610b916104d46004610af1610ae0886001600160a01b03166000526004602052604060002090565b15610dbd57610d1595610c0991610b63610bc66004610af1610ae08a6001600160a01b03166000526004602052604060002090565b8a517f0399c93c00000000000000000000000000000000000000000000000000000000948101949094523360248501529183604481015b0390810184528361293a565b505b610c28836001600160a01b03166000526004602052604060002090565b54610c46856001600160a01b03166000526004602052604060002090565b55610ca484610c7c610c6b866001600160a01b03166000526004602052604060002090565b546000526005602052604060002090565b906001600160a01b031673ffffffffffffffffffffffffffffffffffffffff19825416179055565b610cf3336004610cca610ae0886001600160a01b03166000526004602052604060002090565b01906001600160a01b031673ffffffffffffffffffffffffffffffffffffffff19825416179055565b821603610d9f575b506001600160a01b03166000526004602052604060002090565b54610464610d326005610af1846000526007602052604060002090565b92610d6e610d616002610d4f866000526007602052604060002090565b01546000526005602052604060002090565b546001600160a01b031690565b90610d796001600355565b519283526001600160a01b03938416602084015290921660408201529081906060820190565b6001600160a01b031660009081526004602052604081205538610cfb565b85600496610dd66104d46000546001600160a01b031690565b89519889809263111ea8c160e21b82525afa9687156105bd57610d1597610e3d91600091610f0b575b50895190610e2f82610e238a8783019190916001600160a01b036020820193169052565b0386810184528361293a565b610e37613589565b90614eb9565b838116151580610f01575b610e55575b505050610c0b565b88517f4fb2e45d0000000000000000000000000000000000000000000000000000000083820152336024820152610ef893610b6391610ea890610ea281604481010384810183528261293a565b84614fcc565b507fa3e884b0000000000000000000000000000000000000000000000000000000008b519485015283610bfd60248201906007606060808401936000815260006020820152600060408201520152565b50388080610e4d565b5080311515610e48565b610f229150833d85116105b6576105a7818361293a565b38610dff565b508084168314610a8a565b34610355576020366003190112610355576020610f63600435600052600760205260ff6001604060002001541690565b6040519015158152f35b346103555760203660031901126103555760043560005260076020526020600360406000200154604051908152f35b3461035557602036600319011261035557600435600052600760205260206001600160a01b0360046040600020015416604051908152f35b346103555760203660031901126103555760043580600052600760205260406000205460056020526104646001600160a01b038060406000205416936007602052604060002091600460028401549301541661103f6005610af1846000526007602052604060002090565b906003611077611066600161105e876000526007602052604060002090565b015460ff1690565b946000526007602052604060002090565b01549360405197889788939160c09591989796939260e086019986526001600160a01b03938480931660208801526040870152166060850152166080830152151560a08201520152565b34610355576020366003190112610355576001600160a01b036004356110e681610386565b1660005260046020526040600020546000526007602052602060ff600160406000200154166040519015158152f35b3461035557611123366109b2565b61112e6105de614989565b61113733614acd565b801561116b575b9161114b61115093612bce565b612c19565b604080519283526001600160a01b0391909116602083015290f35b506001600160a01b039160046020846000541660405192838092630536340960e21b82525afa80156105bd576111509461114b926000926111b5575b50339116149193505061113e565b6111ce91925060203d81116105b6576105a7818361293a565b90386111a7565b34610355576000366003190112610355576020600654604051908152f35b34610355576020366003190112610355576001600160a01b0360043561121881610386565b1660005260046020526020604060002054604051908152f35b346103555760203660031901126103555760043560016112676112628261105e856000526007602052604060002090565b6133fc565b61127b826000526010602052604060002090565b906002908183019260ff8454818160081c168061156f575b61129c90613909565b60101c1661145357506112c6826112bd866000526007602052604060002090565b0154151561399f565b6000815b611316575b5050600090611303610016946112f36112ed865460ff9060101c1690565b82613a92565b6000526007602052604060002090565b0155805462ff0000191662010000179055565b60038061134385611331896000526007602052604060002090565b01546000526007602052604060002090565b015482101561144d578561137d611373848461136d89611331876000526007602052604060002090565b016132c1565b90549060031b1c90565b14611392575061138c906130b9565b816112ca565b83925094611443866114256113039461140c6113f26113736100169c6113c860009c6113318b6000526007602052604060002090565b016113ec876113e58d6113318d6000526007602052604060002090565b0154612e1a565b906132c1565b918461136d8a6113318a6000526007602052604060002090565b90919082549060031b91821b91600019901b1916179055565b61143d85611331856000526007602052604060002090565b016139ea565b94508192506112cf565b506112cf565b826114d56114cf61155d966114c58960036114bf61154c99610534996114936100169f9d61148b876000526007602052604060002090565b015415613954565b0197885480916114ad866000526007602052604060002090565b01556000526007602052604060002090565b016132de565b5460101c60ff1690565b85613a92565b610b63611509610d616114f76004610af1896000526007602052604060002090565b93546000526005602052604060002090565b6040517f1499c5920000000000000000000000000000000000000000000000000000000060208201526001600160a01b0390911660248201529283906044820190565b506000526010602052604060002090565b60026000918281558260018201550155565b50808216611293565b34610355576040806003193601126103555760048035611596612b27565b6115b2611262600161105e846000526007602052604060002090565b6115d76115d06104d484610af1856000526007602052604060002090565b33146135c2565b6115df612e7c565b6115f86005610af1836000526007602052604060002090565b60025490845161166c61165e6020927f02a085f200000000000000000000000000000000000000000000000000000000848201528061164a602497883589840160209093929193604081019481520152565b0394610b63601f199687810184528361293a565b828082518301019101613e02565b94855193868861168185830197885190612b1a565b9661169182840198895190612b1a565b6116a16060850191825190612b1a565b9186886116b46080880195865190612b1a565b956116c560a0890197885190612b1a565b976116de6116d960c083019a8b5190612b1a565b6146b1565b51611a63575b83516119a1575b5050505080516118e3575b508051611826575b5080511580159061181c575b61174d575b89896104646101208a6117288d61010086015190613ed3565b51920151926117376001600355565b5191825260208201929092529081906040820190565b846117696104d460009a969799989a546001600160a01b031690565b8b5196878092635e09dbe760e01b82525afa80156105bd5761046498610120988c6117e29663a9059cbb60e01b966117289a6000966117ed575b50906117bb610bfd9392610b63979851905190612b1a565b915197889485015233908401602090939291936001600160a01b0360408201951681520152565b50938293388061170f565b610b639650610bfd9392916118116117bb92873d89116105b6576105a7818361293a565b9750919293506117a3565b508151151561170a565b848661183d6104d46000546001600160a01b031690565b8d51928380927f9dc969a80000000000000000000000000000000000000000000000000000000082525afa9182156105bd576118bb928d6118af936000926118c2575b509151915163a9059cbb60e01b8a820152338882019081526020810193909352929091610b6391849160400190565b038a810184528361293a565b50386116fe565b610b6392506118dd908b3d8d116105b6576105a7818361293a565b91611880565b85878d6118fb6104d46000546001600160a01b031690565b9051928380927faa0ddc160000000000000000000000000000000000000000000000000000000082525afa9182156105bd57611979928e61196d93600092611980575b509151915163a9059cbb60e01b8b820152338982019081526020810193909352929091610b6391849160400190565b038b810184528361293a565b50386116f6565b610b63925061199b908c8d3d106105b6576105a7818361293a565b9161193e565b6119b66104d46000546001600160a01b031690565b9051928380927f30125cf50000000000000000000000000000000000000000000000000000000082525afa9182156105bd57611a32928f8b9063a9059cbb60e01b94600093611a3c575b50925192519081019390935233898401908152602081019290925290610b639083906040015b038c810184528361293a565b503886888e6116eb565b610b63935090611a5b611a2692843d86116105b6576105a7818361293a565b935090611a00565b611a786104d46000546001600160a01b031690565b9051928380927f640274270000000000000000000000000000000000000000000000000000000082525afa80156105bd578e611aea8f8c938e918d96600092611af0575b5051845163a9059cbb60e01b8782015233818f01908152602081019290925292610b63918490604001610bfd565b506116e4565b610b63919250611b0c90873d89116105b6576105a7818361293a565b9190611abc565b34610355576020366003190112610355576020600435611b3281610386565b6001600160a01b03809116600052600482526040600020546000526007825260056040600020015416604051908152f35b3461035557604036600319011261035557611b7f6105de614989565b611b8833614acd565b8015611ba6575b611b9890612bce565b610016602435600435613811565b5060046001600160a01b036020816000541660405193848092630536340960e21b82525afa9081156105bd57611b9892600092611be9575b501633149050611b8f565b611c0291925060203d81116105b6576105a7818361293a565b9038611bde565b3461035557604036600319011261035557600435600052600860205260406000206024356000526020526020604060002054604051908152f35b346103555760203660031901126103555760043560005260076020526020600260406000200154604051908152f35b346103555760403660031901126103555760043560005260076020526020611ca360243560036040600020016132c1565b90549060031b1c604051908152f35b346103555760003660031901126103555760206001600160a01b0360015416604051908152f35b3461035557604036600319011261035557611cf56105de614989565b611cfe33614acd565b8015611d1c575b611d0e90612bce565b610016602435600435614735565b5060046001600160a01b036020816000541660405193848092630536340960e21b82525afa9081156105bd57611d0e92600092611d5f575b501633149050611d05565b611d7891925060203d81116105b6576105a7818361293a565b9038611d54565b3461035557602036600319011261035557600435600052600f6020526020604060002054604051908152f35b3461035557600036600319011261035557600460206001600160a01b03600054166040519283809263d1f956b160e01b82525afa9081156105bd5761046491611e3b91600091611e4b575b50604051611e0381612902565b601381527f67657464656c656761746f72436f756e742829000000000000000000000000006020820152611e35612978565b91614f46565b6040519081529081906020820190565b611e63915060203d81116105b6576105a7818361293a565b38611df6565b610100810192916000915b60088310611e8157505050565b600190825181526020809101920192019190611e74565b3461035557602036600319011261035557610464600435611fa5610969611ebd614634565b92611ee4611ed5826000526008602052604060002090565b60008052602052604060002090565b548452611efe610865826000526008602052604060002090565b546020850152611f1b61088f826000526008602052604060002090565b546040850152611f386108bc826000526008602052604060002090565b546060850152611f556108e9826000526008602052604060002090565b546080850152611f72610916826000526008602052604060002090565b5460a0850152611f8f610943826000526008602052604060002090565b5460c08501526000526008602052604060002090565b5460e082015260405191829182611e69565b34610355576020366003190112610355576020610f63600435611fd981610386565b614acd565b346103555761207d611fef366109b2565b90611ff8612b27565b6120416120066109fe61298b565b612011610a1b61298b565b9061202a6001600160a01b039182808816911614612a15565b610a516104d482600054166001600160a01b031690565b61206e612069600161105e610ae0856001600160a01b03166000526004602052604060002090565b612aab565b612076612e36565b33906130c8565b612096611ed56002546000526008602052604060002090565b6120a08154612b0c565b90556120aa6146dd565b6120c36005610af1836000526007602052604060002090565b906120cd81613447565b6120d76001600355565b604080519182526001600160a01b03929092166020820152f35b346103555760203660031901126103555761210a614bfb565b60025410612121575b610016600435600254612ebf565b612129614bfb565b80600255600019810190811161035057612142906144e0565b612113565b346103555760203660031901126103555760046001600160a01b036020816000541660405193848092630536340960e21b82525afa9182156105bd576000926121e3575b503391160361219f57610016600435614d04565b606460405162461bcd60e51b815260206004820152600f60248201527f6f776e2e6e6f6e617574682e44414f00000000000000000000000000000000006044820152fd5b6121fc91925060203d81116105b6576105a7818361293a565b903861218b565b346103555760203660031901126103555760043561222081610386565b803b600061222d8261295c565b9261223b604051948561293a565b82845260208401903c602d81511061226157602a015160405160609190911c8152602090f35b606460405162461bcd60e51b815260206004820152601360248201527f4e6f742061206d696e696d616c2070726f7879000000000000000000000000006044820152fd5b6040366003190112610355576004356122bc612b27565b60009080825260076020526122da60ff6001604085200154166133fc565b8152600760205261231a6001600160a01b036005604084200154166040519062a0e53360e51b6020830152602435602483015260248252610b63826128c5565b50600160035580f35b3461035557604036600319011261035557600435600052600a60205260406000206024356000526020526020604060002054604051908152f35b346103555760c03660031901126103555760243560043561237d82610386565b606435906084359061238d612b27565b6123a9611262600161105e846000526007602052604060002090565b6123c86115d06104d46004610af1856000526007602052604060002090565b6123d0612e7c565b6123d982614659565b6123e283614685565b61248f61248161246d6124046005610af1866000526007602052604060002090565b966040519182916020977f932ca2d600000000000000000000000000000000000000000000000000000000898501528960a435926044359060248701919260809396959491966001600160a01b0360a08501981684526020840152604083015260608201520152565b0396610b63601f199889810184528361293a565b83808251830101910161360d565b9290806124ad575b50506124a39350614166565b6100166001600355565b600490826124c66104d46000546001600160a01b031690565b60405193848092635e09dbe760e01b82525afa80156105bd576124a3976125209463a9059cbb60e01b94600093612528575b5060405190810194909452336024850152604484019290925290610b63908360648101610bfd565b503880612497565b610b639350612546610bfd91833d85116105b6576105a7818361293a565b93506124f8565b3461035557602080600319360112610355576004803561256c81610386565b6001600160a01b03928084600054166040519485809263d1f956b160e01b82525afa9081156105bd576104649461056e946000936125c8575b5060405193168184015282526125ba82612902565b6125c2614c9b565b90614f0a565b6125e0919350823d84116105b6576105a7818361293a565b91386125a5565b34610355576000366003190112610355576020610f63614989565b3461035557602036600319011261035557600435600052600c6020526020604060002054604051908152f35b3461035557604036600319011261035557600435600460243561268761268261266a336001600160a01b03166000526004602052604060002090565b54600052600760205260ff6001604060002001541690565b613623565b6126a3611262600161105e866000526007602052604060002090565b6126c46126bf600161105e846000526007602052604060002090565b61366e565b6040517f7bb98498000000000000000000000000000000000000000000000000000000006020808301919091526024820185905260448083018490528252601f19949061271260648461293a565b806127286104d46000546001600160a01b031690565b60405196878092630536340960e21b82525afa80156105bd57612799610bfd6127bd956127aa936100169a60029a6000926127cf575b50610b6391926040519485917fd3a30849000000000000000000000000000000000000000000000000000000008a84015230602484016136dc565b926000526010602052604060002090565b9360018501558082518301019101613783565b815501805461ff001916610100179055565b610b6392506127ea90883d8a116105b6576105a7818361293a565b9161275e565b3461035557602036600319011261035557600435600052600e6020526020604060002054604051908152f35b3461035557604080600319360112610355576001600160a01b0360043561284281610386565b16600081815260046020818152848320548352600b815284832054938352908152838220548252600a81528382206024358352815290839020549251918252810191909152604090f35b346103555760003660031901126103555760206128a7614bfb565b604051908152f35b634e487b7160e01b600052604160045260246000fd5b6060810190811067ffffffffffffffff8211176128e157604052565b6128af565b60e0810190811067ffffffffffffffff8211176128e157604052565b6040810190811067ffffffffffffffff8211176128e157604052565b6020810190811067ffffffffffffffff8211176128e157604052565b90601f8019910116810190811067ffffffffffffffff8211176128e157604052565b67ffffffffffffffff81116128e157601f01601f191660200190565b604051906129858261291e565b60008252565b6040516129978161291e565b60008152906000368137565b604051906129b082612902565b600782527f6f776e65722829000000000000000000000000000000000000000000000000006020830152565b604051906129e982612902565b600c82527f67657448657862617365282900000000000000000000000000000000000000006020830152565b15612a1c57565b606460405162461bcd60e51b815260206004820152601760248201527f6e65737465642e696e76616c69642e696e7374616e63650000000000000000006044820152fd5b15612a6757565b606460405162461bcd60e51b815260206004820152601660248201527f6e65737465642e696e76616c69642e68657862617365000000000000000000006044820152fd5b15612ab257565b606460405162461bcd60e51b815260206004820152601860248201527f6e65737465642e706172656e742e6e6f742e65786973747300000000000000006044820152fd5b634e487b7160e01b600052601160045260246000fd5b906001820180921161035057565b9190820180921161035057565b600260035414612b38576002600355565b60046040517f3ee5aeb5000000000000000000000000000000000000000000000000000000008152fd5b15612b6957565b606460405162461bcd60e51b815260206004820152601260248201527f6f776e2e696e76616c69642e69735361666500000000000000000000000000006044820152fd5b9081602091031261035557516109d781610386565b6040513d6000823e3d90fd5b15612bd557565b606460405162461bcd60e51b815260206004820152601b60248201527f6f776e2e6e6f6e617574682e44414f6f725365637572656261736500000000006044820152fd5b612cc99291612ccf600492612c2c612b27565b612c60612c5b612c57600161105e610ae0886001600160a01b03166000526004602052604060002090565b1590565b61306e565b612c73612c6e6006546130b9565b600655565b600654958691612c9185610c7c856000526005602052604060002090565b82612caf866001600160a01b03166000526004602052604060002090565b556001600160a01b03166000526004602052604060002090565b54613306565b612d0582612ce7866000526007602052604060002090565b0173ffffffffffffffffffffffffffffffffffffffff198154169055565b6020612d1c6104d46000546001600160a01b031690565b6040519384809263e09d394d60e01b82525afa80156105bd57612d4e612d6491612dcd94600091612dfc575b5061322b565b6005610cca876000526007602052604060002090565b612d7d6005610af1866000526007602052604060002090565b610b63612d956104d46000546001600160a01b031690565b6040516352902c5960e01b60208201526001600160a01b03918216602482015293166044840152606483018690528260848101610534565b508160005260076020526001600160a01b036005604060002001541691612df381613447565b91906001600355565b612e14915060203d81116105b6576105a7818361293a565b38612d48565b60001981019190821161035057565b9190820391821161035057565b612e3e614bfb565b60025410612e56575b612e546005600254612ebf565b565b612e5e614bfb565b80600255600019810190811161035057612e77906144e0565b612e47565b612e84614bfb565b60025410612e99575b612e5460028054612ebf565b612ea1614bfb565b80600255600019810190811161035057612eba906144e0565b612e8d565b90612ed7611ed5836000526008602052604060002090565b541580613064575b8061305b575b612eed575050565b612f0990612f03612efd84612e1a565b91612e1a565b90612ebf565b612f28611ed5612f1883612e1a565b6000526008602052604060002090565b54612f40611ed5836000526008602052604060002090565b55612f50610865612f1883612e1a565b54612f68610865836000526008602052604060002090565b55612f7861088f612f1883612e1a565b54612f9061088f836000526008602052604060002090565b55612fa06108bc612f1883612e1a565b54612fb86108bc836000526008602052604060002090565b55612fc86108e9612f1883612e1a565b54612fe06108e9836000526008602052604060002090565b55612ff0610916612f1883612e1a565b54613008610916836000526008602052604060002090565b55613018610943612f1883612e1a565b54613030610943836000526008602052604060002090565b55613058610969613046610969612f1885612e1a565b54926000526008602052604060002090565b55565b50801515612ee5565b5060018211612edf565b1561307557565b606460405162461bcd60e51b815260206004820152601560248201527f6e65737465642e616c72656164792e65786973747300000000000000000000006044820152fd5b60001981146103505760010190565b9161316060049261314b612cc995613101612c5b612c57600161105e610ae08a6001600160a01b03166000526004602052604060002090565b61310f612c6e6006546130b9565b60065496879161312d87610c7c856000526005602052604060002090565b82612caf886001600160a01b03166000526004602052604060002090565b83610cca866000526007602052604060002090565b60206131776104d46000546001600160a01b031690565b6040519384809263e09d394d60e01b82525afa80156105bd576131a86131be9161322794600091612dfc575061322b565b6005610cca866000526007602052604060002090565b6131d76005610af1856000526007602052604060002090565b610b636131ef6104d46000546001600160a01b031690565b6040516352902c5960e01b60208201526001600160a01b03918216602482015293166044840152606483018590528260848101610534565b5090565b6e5af43d82803e903d91602b57fd5bf390763d602d80600a3d3981f3363d3d373d3d3d363d7300000062ffffff8260881c161760005260781b17602052603760096000f0906001600160a01b0382161561328157565b60046040517fb06ebf3d000000000000000000000000000000000000000000000000000000008152fd5b634e487b7160e01b600052603260045260246000fd5b80548210156132d95760005260206000200190600090565b6132ab565b90815491680100000000000000008310156128e1578261140c916001612e54950181556132c1565b919091600092808452602091600783526040808620956002948386890155846001988981018a60ff19825416179055558761334b86600052600a602052604060002090565b83805282528489858520555b61336657505050505050509050565b6133d46133c3828b8a94146133dd575b61338a88600052600a602052604060002090565b818752855286862061339c8154612b0c565b90556133b288600052600b602052604060002090565b6133bc8154612b0c565b90556130b9565b956000526007602052604060002090565b01549384613357565b6133f78960036114bf8b6000526007602052604060002090565b613376565b1561340357565b606460405162461bcd60e51b815260206004820152601560248201527f6e65737465642e757365722e6e6f7461637469766500000000000000000000006044820152fd5b80600052600760205261346460ff600160406000200154166133fc565b60005260076020526134a56001600160a01b03600560406000200154166040519062a0e53360e51b60208301526001602483015260248252610b63826128c5565b50565b156134af57565b606460405162461bcd60e51b815260206004820152601360248201527f6e65737465642e7a65726f2e61646472657373000000000000000000000000006044820152fd5b156134fa57565b606460405162461bcd60e51b815260206004820152601460248201527f6e65737465642e7461726765742e6578697374730000000000000000000000006044820152fd5b1561354557565b606460405162461bcd60e51b815260206004820152601760248201527f6e65737465642e736f757263652e6e6f744578697374730000000000000000006044820152fd5b6040519061359682612902565b601382527f55736572546f496e7374286164647265737329000000000000000000000000006020830152565b156135c957565b606460405162461bcd60e51b815260206004820152601b60248201527f6e65737465642e757365722e696e76616c6964696e7374616e636500000000006044820152fd5b9190826040910312610355576020825192015190565b1561362a57565b606460405162461bcd60e51b815260206004820152601560248201527f6e65737465642e696e76616c69642e73656e64657200000000000000000000006044820152fd5b1561367557565b606460405162461bcd60e51b815260206004820152601560248201527f6e65737465642e696e76616c69642e706172656e7400000000000000000000006044820152fd5b60005b8381106136cc5750506000910152565b81810151838201526020016136bc565b92916080906001600160a01b03600a9360a08752602460a08801527f547269676765722e6e65737465642e70726f706f73616c2e6d6f7665646f776e60c08801527f6c696e650000000000000000000000000000000000000000000000000000000060e0880152166020860152600060408601526101008060608701528151809187015261377481610120936020858a0191016136b9565b601f8019910116850101930152565b90816020910312610355575190565b6040519061379f82612902565b601282527f676574526573756c742875696e743235362900000000000000000000000000006020830152565b5190811515820361035557565b91908260c0910312610355578151916020810151916040820151916060810151916109d760a061380a608085016137cb565b93016137cb565b61384461385091613834611262600161105e846000526007602052604060002090565b6000526010602052604060002090565b9160018301541461366e565b6138656104d46000546001600160a01b031690565b906040518092630536340960e21b825281600460209586935afa9081156105bd57612e54936138c66105346002946138d3946000916138ec575b506138b887546040519384918783019190602083019252565b6138c0613792565b90614df8565b80518101820191016137d8565b50959350505050019060ff801983541691151516179055565b6139039150843d86116105b6576105a7818361293a565b3861389f565b1561391057565b606460405162461bcd60e51b815260206004820152601660248201527f6e65737465642e7265712e6e6f74617070726f766564000000000000000000006044820152fd5b1561395b57565b606460405162461bcd60e51b815260206004820152601860248201527f6e65737465642e757365722e6e6f742e646574616368656400000000000000006044820152fd5b156139a657565b606460405162461bcd60e51b815260206004820152601b60248201527f6e65737465642e757365722e616c726564792e646574616368656400000000006044820152fd5b8054908115613a145760001991820191613a0483836132c1565b909182549160031b1b1916905555565b634e487b7160e01b600052603160045260246000fd5b60405190613a3782612902565b601282527f6765744e6f64654c422875696e743235362900000000000000000000000000006020830152565b9190826080910312610355578151916020810151916060604083015192015190565b8015610350576000190190565b600590613aad82610af1836000526007602052604060002090565b6040805192613af7613ae960209580613acd888201906000602083019252565b0395613ae1601f199788810184528361293a565b6138c0613a2a565b858082518301019101613a63565b5050949093613b19613b1384600052600b602052604060002090565b54612b0c565b9360029687613b32866000526007602052604060002090565b0154966001998a98895b613b50575b50505050505050505050505050565b600f8a111580613df9575b15613df4578a8d88878d888888613b836104d482610af18c6000526007602052604060002090565b613bb5575b50505050505050613ba6613bae926000526007602052604060002090565b0154996130b9565b988b613b3c565b867f393a9f9500000000000000000000000000000000000000000000000000000000958a95610b6395613c559995613c639b9c6003613c19613c08611a2699610af18e6000526007602052604060002090565b9b6000526007602052604060002090565b0154905494519a8b988901526024880194919260a0949197969360c0870198875260208701526040860152606085015260808401521515910152565b89808251830101910161360d565b9115613d5457898d928d925b808211613d1457505092613ba691613ce1613cd9613cb4613c9d613bae98600052600a602052604060002090565b613ca685612e1a565b600052602052604060002090565b5492613cca85600052600a602052604060002090565b90600052602052604060002090565b918254612b1a565b9055613cf781600052600b602052604060002090565b613d028d8254612b1a565b90555b9250508d88878d888888613b88565b613cca9350613d3e9250613d2a909491946130b9565b928391546000526008602052604060002090565b613d488154612b0c565b9055898d928d92613c6f565b898d928d925b818111613db857505092613ba691613d90613d88613cb4613c9d613bae98600052600a602052604060002090565b918254612e29565b9055613da681600052600b602052604060002090565b613db18d8254612e29565b9055613d05565b613dea9350809250613cca613dd99295546000526008602052604060002090565b613de38154612e1a565b9055613a85565b898d928d92613d5a565b613b41565b50801515613b5b565b9061014080838303126103555781601f84011215610355576040519281840184811067ffffffffffffffff8211176128e1576040528391810192831161035557905b828210613e515750505090565b8151815260209182019101613e44565b60405190613e6e82612902565b600f82527f66726565496e74657276616c73282900000000000000000000000000000000006020830152565b60405190613ea782612902565b601382527f6c6576656c496e636f6d654f6e52616e6b2829000000000000000000000000006020830152565b9190916000613eec6104d482546001600160a01b031690565b9060409182519063cfbffe5360e01b80835260209160049383818681855afa9081156105bd578491613f37918891614149575b50613f2861298b565b90613f31613e61565b90614f46565b928588518094819382525afa80156105bd57613f6691869161412c575b50613f5d61298b565b90613f31613e9a565b849885975b600f89111580614123575b15614116578682868d878c8e613f9e6104d46005610af18b6000526007602052604060002090565b613fd1575b505050505050506002613fc3613fcb926000526007602052604060002090565b0154986130b9565b97613f6b565b898115978815908161410c575b8115614104575b50613ff4575b508d9650613fa3565b946105346140889563645d0aa760e11b958b95610b63956140969a600361403e61402d6005610af18d6000526007602052604060002090565b9a6000526007602052604060002090565b01549c60029d8e5494519b8c998a01526024890193909796959260e0959261010086019986526020860152600060408601526060850152608084015260a083015260c08201520152565b88808251830101910161360d565b926140fb575b8d156140eb575b8083116140b857505082868d878c8e89613feb565b6140c1906130b9565b6140da81613cca84546000526008602052604060002090565b6140e48154612b0c565b90556140a3565b8883106140a3579c50819c6140a3565b9c50819c61409c565b90508f613fe5565b8815159150613fde565b5050505050505050509050565b50801515613f76565b6141439150843d86116105b6576105a7818361293a565b38613f54565b6141609150833d85116105b6576105a7818361293a565b38613f1f565b909291926000936141816104d486546001600160a01b031690565b6040805163cfbffe5360e01b80825291936004936020939284818781855afa9081156105bd5785916141bc918d916141495750613f2861298b565b938688518094819382525afa80156105bd576141e1918b916143735750613f5d61298b565b9589975b600f8911158061436a575b15614116578782868d878b8e60059661421a6104d489610af18c6000526007602052604060002090565b614246575b50505050505050506002613fc3614240926000526007602052604060002090565b976141e5565b8a821598891580614361575b8015614358575b614265575b505061421f565b9563645d0aa760e11b958b95610b63956142e99a9561053495600361429e613c086140889e610af18e6000526007602052604060002090565b01549d60029e8f5495519c8d9a8b015260248a0194919260e0969399989794919961010087019a8752602087015260408601526060850152608084015260a083015260c08201520152565b9261434f575b8d1561433f575b80831161430c5750868d878b8e8e8a8a9761425e565b614315906130b9565b61432e81613cca84546000526008602052604060002090565b6143388154612b0c565b90556142f6565b8883106142f6579c50819c6142f6565b9c50819c6142ef565b50811515614259565b50881515614252565b508015156141f0565b6141439150853d87116105b6576105a7818361293a565b1561439157565b606460405162461bcd60e51b815260206004820152601260248201527f6e65737465642e696e76616c69642e61676500000000000000000000000000006044820152fd5b604051906143e282612902565b601882527f6765744261746368526f79616c7479436c6175736573282900000000000000006020830152565b6102a09081818403126103555782601f82011215610355576040805193614434856128e6565b849383019281841161035557935b83851061445157505050505090565b606085830312610355578251606091614469826128c5565b8651825260209182880151838201528588015186820152815201940193614442565b9060078110156132d95760051b0190565b908160640291606483040361035057565b8181029291811591840414171561035057565b81156144ca570490565b634e487b7160e01b600052601260045260246000fd5b6144eb81151561438a565b6145006104d46000546001600160a01b031690565b90604051809263cfbffe5360e01b825281600460209586935afa9081156105bd576145569161454891600091614617575b5061453a6143d5565b614542612978565b91614df8565b83808251830101910161440e565b61456a82600052600c602052604060002090565b5460015b600781111561457e575050505050565b8061459a61460392613cca876000526008602052604060002090565b548015614611576145b36145ad83612e1a565b8661448b565b51878151928315614608576145da6145df926145d26145e5968a6144ad565b94015161449c565b6144ad565b906144c0565b6145fd82613cca886000526009602052604060002090565b556130b9565b61456e565b505050506130b9565b506130b9565b61462e9150853d87116105b6576105a7818361293a565b38614531565b6040519061010080830183811067ffffffffffffffff8211176128e157604052368337565b60025480600052600c60205260406000205491820180921161035057600052600c602052604060002055565b60025480600052600d60205260406000205491820180921161035057600052600d602052604060002055565b60025480600052600e60205260406000205491820180921161035057600052600e602052604060002055565b60025480600052600f602052604060002054906001820180921161035057600052600f602052604060002055565b9080600052600c60205260406000205491820180921161035057600052600c602052604060002055565b9080600052600e60205260406000205491820180921161035057600052600e602052604060002055565b9080600052600f60205260406000205491820180921161035057600052600f602052604060002055565b6040519061479682612902565b601482527f676574627573696e6573732875696e74323536290000000000000000000000006020830152565b604051906147cf82612902565b601d82527f67657472616e6b436f756e742875696e743235362c75696e74323536290000006020830152565b6000906148126104d483546001600160a01b031690565b91604092835192839163111ea8c160e21b835282600460209485935afa9384156105bd57839461490b575b505b8581111561484f57505050505050565b8451828101828152819003808252601f199161488091614872906020018261293a565b61487a614789565b87614f46565b614897613cd984600052600c602052604060002090565b9055835b600881106148b35750506148ae906130b9565b61483f565b86518481018481526020810183905261490692916148ee916148e09082906040010386810183528261293a565b6148e86147c2565b89614f46565b6145fd82613cca876000526008602052604060002090565b61489b565b614923919450823d84116105b6576105a7818361293a565b923861483d565b1561493157565b606460405162461bcd60e51b815260206004820152601960248201527f6f776e2e7361666567756172642e63616c6c2e6661696c6564000000000000006044820152fd5b90816020910312610355576109d7906137cb565b6001600160a01b03600054166040518091634bf9c0ad60e11b825281600460209384935afa9182156105bd576109d792614a1191600091614a2c575b506040516149d281612902565b600881527f69735361666528290000000000000000000000000000000000000000000000008482015260405191614a088361291e565b60008352614e23565b919080614a22575b6105619061492a565b5081518114614a19565b614a439150833d85116105b6576105a7818361293a565b386149c5565b60405190614a5682612902565b601582527f69735365637572654261736528616464726573732900000000000000000000006020830152565b15614a8957565b606460405162461bcd60e51b815260206004820152601a60248201527f6f776e2e736563757265626173652e63616c6c2e6661696c65640000000000006044820152fd5b6000546001600160a01b0316604051918291634bf9c0ad60e11b835282600460209485935afa9283156105bd576109d793614b399261053492600092614b54575b50614b31906040519384918783019190916001600160a01b036020820193169052565b61054a614a49565b919080614b4a575b61056190614a82565b5081518114614b41565b614b31919250614b7090863d88116105b6576105a7818361293a565b9190614b0e565b60405190614b8482612902565b601182527f69735369676e65722861646472657373290000000000000000000000000000006020830152565b15614bb757565b606460405162461bcd60e51b815260206004820152601660248201527f6f776e2e7369676e65722e63616c6c2e6661696c6564000000000000000000006044820152fd5b600460206001600160a01b03600054166040519283809263111ea8c160e21b82525afa80156105bd576109d791600091614c7d575b50604051614c3d81612902565b600581527f6167652829000000000000000000000000000000000000000000000000000000602082015260405191614c748361291e565b60008352614f46565b614c95915060203d81116105b6576105a7818361293a565b38614c30565b60405190614ca882612902565b601882527f697364656c656761746f724e6f646528616464726573732900000000000000006020830152565b3d15614cff573d90614ce58261295c565b91614cf3604051938461293a565b82523d6000602084013e565b606090565b6000600460206001600160a01b03835416604051928380927f46f991ac0000000000000000000000000000000000000000000000000000000082525afa9081156105bd578284819382938391614dda575b505af1614d60614cd4565b5015614d965760405190815233907fcdcc745fe377b103b45fa0cec23ae3ef93d6fc6a84a01f0d18c40b354dd1d5d890602090a2565b606460405162461bcd60e51b815260206004820152600f60248201527f6f776e2e6275726e2e6661696c656400000000000000000000000000000000006044820152fd5b614df2915060203d81116105b6576105a7818361293a565b38614d55565b90614e039291614e23565b9060009015614e10575090565b6040519150614e1e8261291e565b815290565b803b15614ea0576000927fffffffff000000000000000000000000000000000000000000000000000000008360208695519101201690614e8d6024604051809360208201958652614e7d81518092602086860191016136b9565b810103600481018452018261293a565b5191620dbba0fa614e9c614cd4565b9091565b505050600090604051614eb28161291e565b6000815290565b9291614ec791600094614e23565b9080614eff575b614ed55750565b9091506020818051810103126103555760206001600160a01b03910151614efb81610386565b1690565b506020815114614ece565b9291614f1891600094614e23565b9080614f3b575b614f265750565b6109d791925060208082518301019101614975565b506020815114614f1f565b9291614f5491600094614e23565b9080614f77575b614f625750565b6109d791925060208082518301019101613783565b506020815114614f5b565b90602082519201517fffffffff00000000000000000000000000000000000000000000000000000000908181169360048110614fbd57505050565b60040360031b82901b16169150565b6001600160a01b0381161561507d57600080918351908260208601915af190614ff3614cd4565b9115614ffd575090565b805160009190600411615077576150149150614f82565b8151156150245750805190602001fd5b6024907fffffffff00000000000000000000000000000000000000000000000000000000604051917f21c09d34000000000000000000000000000000000000000000000000000000008352166004820152fd5b50615014565b606460405162461bcd60e51b815260206004820152601260248201527f6f776e2e696e76616c69642e74617267657400000000000000000000000000006044820152fdfea2646970667358221220843091b70c1222efa11fab5fd0f23c304efa29292d7034318c4614c4d001327964736f6c63430008140033","linkReferences":{}},"methodIdentifiers":{"dAOAssembly()":"14837455","daocore()":"14d8d024","nested741()":"45cff900","old741()":"5540c5ac","price()":"a035b1fe"},"id":68}