{"abi":[{"type":"constructor","inputs":[{"name":"_hex","type":"address","internalType":"address"}],"stateMutability":"nonpayable"},{"type":"function","name":"instanceStor","inputs":[],"outputs":[{"name":"","type":"address","internalType":"address"}],"stateMutability":"view"}],"bytecode":{"object":"0x6080346100c5576001600160401b0390601f616b2a38819003918201601f1916830191848311848410176100af578084926020946040528339810103126100c557516001600160a01b039190828116908190036100c557604051916169d190818401908111848210176100af576020928492610159843981520301906000f080156100a3571660018060a01b03196000541617600055604051608e90816100cb8239f35b6040513d6000823e3d90fd5b634e487b7160e01b600052604160045260246000fd5b600080fdfe6080806040526004361015601257600080fd5b600090813560e01c63131c73ad14602857600080fd5b346054578160031936011260545773ffffffffffffffffffffffffffffffffffffffff60209254168152f35b5080fdfea2646970667358221220285946afec083a9d408ce0ab02ad5f1cf586eb2c3329bebcddc7925d663299f164736f6c63430008140033608034620000d157601f620069d138819003918201601f19168301916001600160401b03831184841017620000d657808492602094604052833981010312620000d157516001600160a01b03811690819003620000d15780156200008c5760018060a01b031933816001541617600155600054161760005560016003556040516168e49081620000ed8239f35b60405162461bcd60e51b815260206004820152601360248201527f6f776e2e696e76616c69642e68657862617365000000000000000000000000006044820152606490fd5b600080fd5b634e487b7160e01b600052604160045260246000fdfe60806040526004361015610018575b361561001657005b005b60003560e01c806302a085f2146102a8578063043719b4146102a357806309d8da2e1461029e5780630b98f9751461029957806312065fe014610294578063141ca6601461028f578063143ec3b71461028a5780631f185d16146102855780631fc9788a146102805780632c2838e81461027b578063393a9f951461027657806339b4d61b146102715780633b9b79551461026c5780634a65786c1461026757806352902c5914610262578063619d51941461025d5780636350b2c2146102585780636924500914610253578063725b6fff1461024e57806375b4d78c146102495780637bfbfecb14610244578063880cdc311461023f5780638da5cb5b1461023a578063932ca2d614610235578063934209ce146102305780639659867e1461022b578063a153154514610226578063a1f7f53914610221578063a20199ac1461021c578063a98bf4f914610217578063a9bf285b14610212578063af4845261461020d578063af640d0f14610208578063b90306ad14610203578063c54e44b0146101fe578063c8ef7b1a146101f9578063d3a1a499146101f4578063da021335146101ef578063e01ad5fd146101ea578063e0a9bc2b146101e55763fdc10bc90361000e576114e0565b6114c5565b61142b565b6113d3565b6113a7565b6112c3565b61128b565b6111cf565b6111b1565b611180565b611162565b611136565b6110ea565b61102c565b610ff7565b610fd9565b610fbb565b610efc565b610ed5565b610e21565b610c6c565b610c4e565b610c30565b610c12565b610bbb565b610afa565b6109ce565b6109a8565b610981565b610955565b610892565b6107cc565b610705565b6105f5565b6105b8565b61050b565b6104ef565b61044c565b610429565b6103ed565b6102dc565b610140810192916000915b600a83106102c557505050565b6001908251815260208091019201920191906102b8565b60403660031901126103e8576040516102f481611585565b61014036823760ff600454166103d75761031461030f615f67565b611503565b61031d336160ab565b8015610351575b61034d916103346103419261163c565b6024359060043590611f7f565b604051918291826102ad565b0390f35b506004906001600160a01b03906020826000541660405194858092630536340960e21b82525afa9283156103d25761034d9361034193610334926000926103a2575b50339116149250509150610324565b6103c491925060203d81116103cb575b6103bc81836115f6565b810190611618565b9038610393565b503d6103b2565b611630565b600460405163658141c160e01b8152fd5b600080fd5b346103e85760403660031901126103e857600435600052601c602052602061041b60243560406000206116e5565b90546040519160031b1c8152f35b346103e85760003660031901126103e857602060ff600454166040519015158152f35b346103e85760203660031901126103e85761046861030f615f67565b610471336160ab565b801561048c575b6104819061163c565b610016600435600555565b5060046001600160a01b036020816000541660405193848092630536340960e21b82525afa9081156103d257610481926000926104cf575b501633149050610478565b6104e891925060203d81116103cb576103bc81836115f6565b90386104c4565b346103e85760003660031901126103e857602047604051908152f35b60203660031901126103e85761052261030f615f67565b61052b336160ab565b8015610555575b61053b9061163c565b610543611f30565b61054e600435612df9565b6001600355005b5060046001600160a01b036020816000541660405193848092630536340960e21b82525afa9081156103d25761053b92600092610598575b501633149050610532565b6105b191925060203d81116103cb576103bc81836115f6565b903861058d565b346103e85760203660031901126103e857600435600052601c6020526020604060002054604051908152f35b6001600160a01b038116036103e857565b346103e8576020806003193601126103e857600490813590610616826105e4565b8061063861062c6000546001600160a01b031690565b6001600160a01b031690565b60405194858092634bf9c0ad60e11b82525afa9182156103d25761068c6106c6936106a89261034d966000926106e2575b5061069a906040519384918783019190916001600160a01b036020820193169052565b03601f1981018452836115f6565b6106a2616155565b90616580565b9190806106d8575b6106b99061618e565b8082518301019101615f52565b60405190151581529081906020820190565b50815181146106b0565b61069a9192506106fe90863d88116103cb576103bc81836115f6565b9190610669565b346103e85760e03660031901126103e85761072161030f615f67565b61072a336160ab565b8015610769575b61073a9061163c565b61075760c43560a435608435606435604435602435600435613a5c565b60408051928352602083019190915290f35b5060046001600160a01b036020816000541660405193848092630536340960e21b82525afa9081156103d25761073a926000926107ac575b501633149050610731565b6107c591925060203d81116103cb576103bc81836115f6565b90386107a1565b346103e85760203660031901126103e8576101e06107eb600435614a7d565b60405190805182526020810151602083015260408101516040830152606081015160608301526080810151608083015260a081015160a083015260c081015160c083015260e081015160e0830152610100808201519083015261012080820151908301526101408082015190830152610160808201519083015261018080820151908301526101a080820151908301526101c08091015190820152f35b801515036103e857565b346103e85760c03660031901126103e85760a4356108af81610888565b6108ba61030f615f67565b6108c3336160ab565b80156108eb575b906108d76107579261163c565b608435606435604435602435600435613938565b506001600160a01b039060046020836000541660405192838092630536340960e21b82525afa80156103d257610757936108d792600092610935575b5033911614919250506108ca565b61094e91925060203d81116103cb576103bc81836115f6565b9038610927565b346103e85760203660031901126103e85760043560005260146020526020604060002054604051908152f35b346103e85760003660031901126103e85760206001600160a01b0360005416604051908152f35b346103e85760003660031901126103e857602060ff60045460081c166040519015158152f35b346103e85760603660031901126103e8576004356109eb816105e4565b6024356109f7816105e4565b6001600160a01b038092168015808015610af0575b610ac657610a825782610a2c610a7794600054166001600160a01b031690565b610a4c836001600160a01b03166001600160a01b03196000541617600055565b167fe939feee179e631422bcc8f6e6d7d908cb3f8af38f5372f17c77e15aea5c80ee600080a36162b2565b610016604435600755565b606460405162461bcd60e51b815260206004820152601360248201527f6f776e2e696e76616c69642e68657862617365000000000000000000000000006044820152fd5b60046040517fa596f2f9000000000000000000000000000000000000000000000000000000008152fd5b5083831615610a0c565b346103e85760203660031901126103e857600435610b1781610888565b610b2261030f615f67565b610b2b336160ab565b8015610b51575b90610b3f6100169261163c565b60ff8019600454169115151617600455565b506001600160a01b039060046020836000541660405192838092630536340960e21b82525afa80156103d25761001693610b3f92600092610b9b575b503391161491925050610b32565b610bb491925060203d81116103cb576103bc81836115f6565b9038610b8d565b346103e85760203660031901126103e8576004356000526016602052608060406000208054906001810154906001600160a01b03600360028301549201541691604051938452602084015260408301526060820152f35b346103e85760003660031901126103e8576020600a54604051908152f35b346103e85760003660031901126103e8576020600854604051908152f35b346103e85760003660031901126103e8576020600554604051908152f35b600080600319360112610e1e5760ff600454166103d757610c8b611f30565b610c9b610c966161d9565b600255565b610caf61062c82546001600160a01b031690565b60405190817f1b4fc17b000000000000000000000000000000000000000000000000000000009182825281600460209586935afa80156103d257610cfc918591610e01575b503490616373565b6000805260156020527fa31547ce6245cdb9ecea19cf8c7eb9f5974025bb4075011409251ae855b30aed610d31348254611ea1565b9055610d4a610d3e6141fd565b5091505060025461173e565b81610d5f61062c85546001600160a01b031690565b9160046040518094819382525afa9081156103d2577f1517c86fcf2bfb8e3468afcc539b0004955da8027797c497ea51d1f1094ab898928492610de4575b5050600254604080513381526001600160a01b0393909316602084015260009083015234606083015260808201526103e860a082015260c090a1610de16001600355565b80f35b610dfa9250803d106103cb576103bc81836115f6565b3880610d9d565b610e189150843d86116103cb576103bc81836115f6565b38610cf4565b80fd5b346103e85760203660031901126103e857600435610e3e816105e4565b610e4961030f615f67565b610e52336160ab565b8015610e6b575b90610e666100169261163c565b611783565b506001600160a01b039060046020836000541660405192838092630536340960e21b82525afa80156103d25761001693610e6692600092610eb5575b503391161491925050610e59565b610ece91925060203d81116103cb576103bc81836115f6565b9038610ea7565b346103e85760003660031901126103e85760206001600160a01b0360015416604051908152f35b60a03660031901126103e857600435610f14816105e4565b610f1f61030f615f67565b610f28336160ab565b8015610f51575b90610f3c6107579261163c565b608435906064359060443590602435906117c5565b506001600160a01b039060046020836000541660405192838092630536340960e21b82525afa80156103d25761075793610f3c92600092610f9b575b503391161491925050610f2f565b610fb491925060203d81116103cb576103bc81836115f6565b9038610f8d565b346103e85760003660031901126103e8576020600b54604051908152f35b346103e85760003660031901126103e8576020600654604051908152f35b346103e85760003660031901126103e85760806110126141fd565b916040519384526020840152151560408301526060820152f35b346103e85760003660031901126103e857600460206001600160a01b03600054166040519283809263d1f956b160e01b82525afa9081156103d25761034d916110bc916000916110cc575b50604051611084816115a2565b601381527f67657464656c656761746f72436f756e7428290000000000000000000000000060208201526110b6611cf4565b916166b6565b6040519081529081906020820190565b6110e4915060203d81116103cb576103bc81836115f6565b38611077565b346103e85760403660031901126103e85761110960243560043561598b565b60405190600090825b6007831061111f5760e084f35b600190825181526020809101920192019190611112565b346103e85760203660031901126103e85760043560005260176020526020604060002054604051908152f35b346103e85760003660031901126103e8576020600954604051908152f35b346103e85760203660031901126103e85760206111a76004356111a2816105e4565b6160ab565b6040519015158152f35b346103e85760003660031901126103e8576020600754604051908152f35b346103e85760203660031901126103e85760046001600160a01b036020816000541660405193848092630536340960e21b82525afa9182156103d25760009261126b575b50339116036112275761001660043561645d565b606460405162461bcd60e51b815260206004820152600f60248201527f6f776e2e6e6f6e617574682e44414f00000000000000000000000000000000006044820152fd5b61128491925060203d81116103cb576103bc81836115f6565b9038611213565b346103e85760203660031901126103e85760206112b26004356112ad816105e4565b616833565b6001600160a01b0360405191168152f35b346103e85760403660031901126103e8576024356112e081610888565b6112eb61030f615f67565b6112f4336160ab565b8015611310575b906113086100169261163c565b600435611687565b506001600160a01b039060046020836000541660405192838092630536340960e21b82525afa80156103d257610016936113089260009261135a575b5033911614919250506112fb565b61137391925060203d81116103cb576103bc81836115f6565b903861134c565b634e487b7160e01b600052603260045260246000fd5b60088110156113a257600c0190600090565b61137a565b346103e85760203660031901126103e85760043560088110156103e857602090600c0154604051908152f35b346103e8576020806003193601126103e8576080906004356000526018815260409081600020549160198252806000205490601a8352806000205491601b845281600020549382519586528501528301526060820152f35b346103e8576020806003193601126103e8576004803561144a816105e4565b6001600160a01b03928084600054166040519485809263d1f956b160e01b82525afa9081156103d25761034d946106c6946000936114a6575b506040519316818401528252611498826115a2565b6114a0616279565b9061667a565b6114be919350823d84116103cb576103bc81836115f6565b9138611483565b346103e85760003660031901126103e85760206111a7615f67565b346103e85760003660031901126103e85760206114fb6161d9565b604051908152f35b1561150a57565b606460405162461bcd60e51b815260206004820152601260248201527f6f776e2e696e76616c69642e69735361666500000000000000000000000000006044820152fd5b634e487b7160e01b600052604160045260246000fd5b6060810190811067ffffffffffffffff82111761158057604052565b61154e565b610140810190811067ffffffffffffffff82111761158057604052565b6040810190811067ffffffffffffffff82111761158057604052565b6020810190811067ffffffffffffffff82111761158057604052565b60e0810190811067ffffffffffffffff82111761158057604052565b90601f8019910116810190811067ffffffffffffffff82111761158057604052565b908160209103126103e8575161162d816105e4565b90565b6040513d6000823e3d90fd5b1561164357565b606460405162461bcd60e51b815260206004820152601b60248201527f6f776e2e6e6f6e617574682e44414f6f725365637572656261736500000000006044820152fd5b61168f6161d9565b9081600255600052601c6020526040600020916000146116d657815480159081156116ca575b506116bf575b5050565b6116c8916116fd565b565b600191501615386116b5565b600180835416146116bf575050565b80548210156113a25760005260206000200190600090565b908154916801000000000000000083101561158057826117259160016116c8950181556116e5565b90919082549060031b91821b91600019901b1916179055565b60c8600052601c6020527f922f6af691981b741eb02b3ed3453cc38ce623e8709ce524bd43bdbfc62af09991156116d657815480159081156116ca57506116bf575050565b6001600160a01b0381161561179b576116c8906162b2565b60046040517fb31092f1000000000000000000000000000000000000000000000000000000008152fd5b9092949360049160ff835416611c9b576117dd611f30565b6117ed6117e9826160ab565b1590565b611c8b576117fc610c966161d9565b60009461181361062c87546001600160a01b031690565b906040928351809663cfbffe5360e01b94858352828260209485935afa9788156103d2578a98611c6c575b5061185861184a611d07565b611852611d1f565b8a6166b6565b978815611c205761187861186a611d07565b611872611d58565b836166b6565b9061188660029a8b54611da7565b916118bb6118a3611895611d07565b61189d611dc7565b856166b6565b926118ac611d07565b906118b5611e00565b906166b6565b906118d0846000526014602052604060002090565b541091821592611c03575b5050611bdb576118f5906000526014602052604060002090565b8054600101905560018714948515611bd2578261191c61062c8d546001600160a01b031690565b918389518094819382525afa9081156103d25761195d9161068c918d91611bb5575b506119558c8a519384918883019190602083019252565b6118b5611e39565b9b8c955b611ae5575b5050879695937f1517c86fcf2bfb8e3468afcc539b0004955da8027797c497ea51d1f1094ab89898611abb9694611a04946119f26119f79560065415611acc575b6119ba6119b5600654611ed9565b600655565b8b54856119c5611cab565b9288845283015289820152606081019e8f526119ed6006546000526016602052604060002090565b611ee8565b612660565b6001600160a01b03168852565b611a4c611a1888516001600160a01b031690565b6003611a306006546000526016602052604060002090565b01906001600160a01b03166001600160a01b0319825416179055565b88611a7d611a59826127f0565b98611a70611a656141fd565b50915050885461173e565b516001600160a01b031690565b9454915195869533879260a09491979695929760c08501986001600160a01b0380921686521660208501526040840152606083015260808201520152565b0390a1611ac86001600355565b9190565b611ad68c54600855565b611ae08c54600955565b6119a7565b909192939450600554918c611afa8484611ea1565b10611b655750887f1517c86fcf2bfb8e3468afcc539b0004955da8027797c497ea51d1f1094ab89899989795611abb97956119f28f9496611b52611b4d87611b486119f79a611a049c611ea1565b611ecc565b600555565b9550509450949650988195979850611966565b611bb190875191829162461bcd60e51b8352820160609060208152601360208201527f73746f722e66616b652e6d696e7476616c75650000000000000000000000000060408201520190565b0390fd5b611bcc9150853d87116103cb576103bc81836115f6565b3861193e565b508b8c95611961565b5085517feb2c7de7000000000000000000000000000000000000000000000000000000008152fd5b8c1091508115611c16575b5038806118db565b90508a1138611c0e565b611bb182885191829162461bcd60e51b8352820160609060208152601560208201527f696e76616c6964206d696e744379636c6544617973000000000000000000000060408201520190565b611c84919850823d84116103cb576103bc81836115f6565b963861183e565b82604051630d419f7360e41b8152fd5b8260405163658141c160e01b8152fd5b604051906080820182811067ffffffffffffffff82111761158057604052565b604051906116c8826115da565b67ffffffffffffffff811161158057601f01601f191660200190565b60405190611d01826115be565b60008252565b604051611d13816115be565b60008152906000368137565b60405190611d2c826115a2565b600f82527f6d696e744379636c6544617973282900000000000000000000000000000000006020830152565b60405190611d65826115a2565b601282527f6d61784d696e74735065724379636c65282900000000000000000000000000006020830152565b634e487b7160e01b600052601160045260246000fd5b8115611db1570490565b634e487b7160e01b600052601260045260246000fd5b60405190611dd4826115a2565b600c82527f6d696e4d696e74517479282900000000000000000000000000000000000000006020830152565b60405190611e0d826115a2565b600c82527f6d61784d696e74517479282900000000000000000000000000000000000000006020830152565b60405190611e46826115a2565b601982527f636f6d707574654d696e7456616c75652875696e7432353629000000000000006020830152565b90600e8201809211611e8057565b611d91565b6047019081604711611e8057565b9060018201809211611e8057565b91908201809211611e8057565b600019810191908211611e8057565b600119810191908211611e8057565b91908203918211611e8057565b6000198114611e805760010190565b60036001600160a01b0360606116c8948051855560208101516001860155604081015160028601550151169101906001600160a01b03166001600160a01b0319825416179055565b600260035414611f41576002600355565b60046040517f3ee5aeb5000000000000000000000000000000000000000000000000000000008152fd5b60405190611f78826115da565b60e0368337565b90611f929291611f8d611f30565b6120c8565b906001600355565b60405190611fa7826115a2565b601082527f65616368636c61696d4379636c652829000000000000000000000000000000006020830152565b60405190611fe0826115a2565b601082527f6d696e436c61696d5065724461792829000000000000000000000000000000006020830152565b60405190612019826115a2565b601082527f6d6178436c61696d5065724461792829000000000000000000000000000000006020830152565b60405190612052826115a2565b601682527f6d6178476c6f62616c436c61696d5065724461792829000000000000000000006020830152565b6040519061208b826115a2565b601582527f67657477697468647261776e2875696e743235362900000000000000000000006020830152565b90600a8110156113a25760051b0190565b929183811561265a575060025560006120eb61062c82546001600160a01b031690565b6040908151809163cfbffe5360e01b825281600460209384935afa9182156103d257849261263b575b5061211d6141fd565b509691505061212f600296875461173e565b603261215e8754600854936121448186611ea1565b82111561263457612156915084611ea1565b925b83611ecc565b1161262c5761216c906145bf565b61218b61218261217a611d07565b61189d611f9a565b60095490611ea1565b908554918210156121a8575b5050505050506116c8610c966161d9565b6121bb6121b3611d07565b61189d611fd3565b926121cf6121c7611d07565b61187261200c565b600f6000526015602052926123316123016122d16122a16122716122417f3bda72f6153f13a10a865b9a6397e1123f4aa6a1726e0e1349cd07eb0e24d81554601060005260156020527f778c823f9b5f066b3c9d60b855427fd2999fcc25aebe3320977c1598596fffaf5b5490611ea1565b601160005260156020527fed5e5ecd5cb229fc7c2ed17e5e7cdfdc1d0a81991bd95ffdc4cdf25aca2d2ac361223a565b601260005260156020527f2d1305887a553ebca964114eb55137666ae056a13c7d9c5dcf078bd3a9732a3861223a565b601360005260156020527fa5165e376b84f33a3c944a34b062595f1fb4afde844645ed23ed1e10c257ebe161223a565b601460005260156020527fe06932cbfde2f2475d8c82e797702b1bf34af837520e34a39e7e7b5e28f71d5f61223a565b601560008190526020527ff38242ae41b6250df1acd58d7376889913b9221d9b2e1d2e50fb7d62671fa73361223a565b94851015612341575b5050612197565b61235860049261234f611d07565b906118b5612045565b928061236e61062c8a546001600160a01b031690565b88519485809263ab6e844f60e01b82525afa9081156103d2576123b2938992612609575b508751908101928352916123aa90839060200161068c565b6118b561207e565b10156125e057808211156125d8576123c991611ecc565b9060015b60078111156124515750507fce9b89faa7d00b5a0dcea74b754372f1c8c1e2788b44e0b6fc99899848f9baf780546101008701527f6b9301c903fb63b5bb3b4ed52f960f66e3a0c33bca0ea2f28cf6e34d2eb058dd80546101208801526015602090815291849055600091909152919091555054600955388080808080808061233a565b61246d61245d82611e72565b6000526015602052604060002090565b548361253f579061253a9161248c826000526015602052604060002090565b612497828254611ea1565b9055856124a661245d84611e72565b556124b96124b383611eae565b8a6120b7565b525b7f1517c86fcf2bfb8e3468afcc539b0004955da8027797c497ea51d1f1094ab8986124e86124b383611eae565b518754906125326124f885611e85565b875193849333859094939260a0926001600160a01b0360c08401971683526000602084015260006040840152606083015260808201520152565b0390a1611ed9565b6123cd565b8381111561259957906125558461253a93611ecc565b938461257661256e846000526015602052604060002090565b918254611ea1565b905561258461245d83611e72565b5584936125936124b383611eae565b526124bb565b6125a79061253a9294611ecc565b926125bc816000526015602052604060002090565b50846125ca61245d83611e72565b55846125936124b383611eae565b5050816123c9565b600483517f1d63fe21000000000000000000000000000000000000000000000000000000008152fd5b819250612625906123aa923d85116103cb576103bc81836115f6565b9190612392565b505050505050565b5092612158565b816126539293503d84116103cb576103bc81836115f6565b9038612114565b93505050565b916126e0926126d1926001600160a01b039586600154169360025492604051957fc85700fb000000000000000000000000000000000000000000000000000000006020880152602487015260448601526064850152608484015260a483015260a482526126cc826115da565b61673e565b60208082518301019101611618565b1680156126ea5790565b60046040517fb1bdf8b0000000000000000000000000000000000000000000000000000000008152fd5b60405190612721826115a2565b600682527f706f6f6c282900000000000000000000000000000000000000000000000000006020830152565b908160e09103126103e85780519160208201519160408101519160608201519160808101519160c060a083015192015190565b9061271091828102928184041490151715611e8057565b9081606402916064830403611e8057565b81810292918115918404141715611e8057565b91909160008382019384129112908015821691151617611e8057565b81810392916000138015828513169184121617611e8057565b600490602061280a61062c6000546001600160a01b031690565b6040519384809263cfbffe5360e01b82525afa80156103d2576128d56128ab6128906128d061289b61288561289561287561286661288a9961162d9c6000916128e7575b50612857611d07565b90612860612714565b90616555565b6020808251830101910161274d565b9e8f9b969e9498929591506127a8565b6127a8565b936127a8565b612780565b90611da7565b946128bb6128ab82600254611ea1565b6000526017602052604060002090565b6128c68782546127bb565b9055600254611ea1565b611ea1565b6128e08282546127d7565b90556127a8565b6128ff915060203d81116103cb576103bc81836115f6565b3861284e565b60405190612912826115a2565b601382527f55736572546f496e7374286164647265737329000000000000000000000000006020830152565b6040519061294b826115a2565b600b82527f6d696e74436f756e7428290000000000000000000000000000000000000000006020830152565b60405190612984826115a2565b600e82527f6d696e74732875696e74323536290000000000000000000000000000000000006020830152565b604051906129bd826115a2565b600b82527f6d696e74656441676528290000000000000000000000000000000000000000006020830152565b604051906129f6826115a2565b600b82527f6d696e74656471747928290000000000000000000000000000000000000000006020830152565b60405190612a2f826115a2565b600c82527f6964732875696e743235362900000000000000000000000000000000000000006020830152565b60405190612a68826115a2565b600982527f6d696e74416d74282900000000000000000000000000000000000000000000006020830152565b604051906080820182811067ffffffffffffffff8211176115805760405260006060838281528260208201528260408201520152565b60405190612ad7826115a2565b600a82527f647261776e6167652829000000000000000000000000000000000000000000006020830152565b60405190612b10826115a2565b600c82527f4c53422875696e743235362900000000000000000000000000000000000000006020830152565b60405190612b49826115a2565b600782527f647261776e2829000000000000000000000000000000000000000000000000006020830152565b91908260c09103126103e85781519160208101519160408201519160608101519160a0608083015192015190565b60405190612bb0826115a2565b601382527f67657452657761726473286164647265737329000000000000000000000000006020830152565b91908260409103126103e8576020825192015190565b60405190612bff826115a2565b600782527f626f6e75732829000000000000000000000000000000000000000000000000006020830152565b60405190612c38826115a2565b600682527f63616765282900000000000000000000000000000000000000000000000000006020830152565b60405190612c71826115a2565b601982527f67657445666665637469766552616e6b286164647265737329000000000000006020830152565b60405190612caa826115a2565b601f82527f6765746e6f646572616e6b61676528616464726573732c75696e7432353629006020830152565b60405190612ce3826115a2565b601082527f6765744e6f6465286164647265737329000000000000000000000000000000006020830152565b908160a09103126103e8578051916020820151612d2b816105e4565b9160408101519160806060830151612d4281610888565b92015161162d81610888565b60405190612d5b826115a2565b601582527f67657444656c656761746f7228616464726573732900000000000000000000006020830152565b60405190612d94826115a2565b601482527f697344656c656761746f722861646472657373290000000000000000000000006020830152565b60405190612dcd826115a2565b601a82527f77697468647261776e496e636f6d654f662861646472657373290000000000006020830152565b60045460081c60ff16613935576004906020612e2061062c6000546001600160a01b031690565b6040519384809263111ea8c160e21b82525afa9182156103d257600092613914575b50612e97612e7b612e89612e5e6001546001600160a01b031690565b604080516001600160a01b03909216602083015290928391820190565b03601f1981018352826115f6565b612e91612905565b84616631565b906001600160a01b038216156138f057600581116138c657612ec8612eba611d07565b612ec261293e565b846166b6565b90600654612ed68183611ea1565b8311156138be57612ee691611ea1565b816134e6575b5080600654149081156134dd575b50612f03575050565b612f1e612f19612f11611d07565b612ec2612aca565b600a55565b600a546008548111613495575b50612f57612f48612f3a611d07565b612f42612b3c565b84616555565b60208082518301019101612b75565b601560209081527f27739e4bb5e6f8b5e4b57a047dca8767cc9b982a011081e086cbb0dfa9de818d969096557f07d4ff730d9753101d832555708a37d38c2c45fce8cacaefc99f06074e93fe0b949094557fb3a65e8276bd33b3e4f7d6081ebd9899187264822358758dca2e2bc37b2a9c27929092557f8191f4eb6b8bafbfe9a5389c8d07d7f5fd81137a7ee653fc4358269845ee1d2e557f25847c9ccf691da811a9f934d6b3b92e6062ef92feb71bf4cb08cbb4fad8d6525560076000527f5d0f48e37dc1225cdee8d6f2a0315d796f55423522fe638d7d95421802dfc00655604080516001600160a01b0384169281019290925261307f91613070916130629082908101612e7b565b61306a612ba3565b85616555565b60208082518301019101612bdc565b60156020527f535b9e1ac68faf16e764f210b80ec6320ee232f7656b4f9a2d0a74437eceaaac9190915560686000527f7ee1f11581f85e8bd439e065fc0e6555ccc3142caeda52fdbb7bed5ad7a8306a556130e6611b4d6130de611d07565b612ec2612bf2565b6130fc612f196130f4611d07565b612ec2612c2b565b61313361312e60405161312681612e7b86602083019190916001600160a01b036020820193169052565b61189d612c64565b600b55565b60005b600f8111156133a3575061317861068c61319e9361317061318794604051938491602083019190916001600160a01b036020820193169052565b612860612cd6565b60208082518301019101612d0f565b935050505060ff8019600454169115151617600455565b6131b361062c6000546001600160a01b031690565b604051907f6325dd0400000000000000000000000000000000000000000000000000000000808352602083600481855afa9283156103d257600093613382575b5061323a6132096001546001600160a01b031690565b604080516001600160a01b038316602082015291959061322c908390810161068c565b613234612d4e565b90616631565b604051828152602081600481875afa80156103d25761328b9261068c9260009261335d575b5061328390604051938491602083019190916001600160a01b036020820193169052565b6114a0612d87565b6132b2575b50505061329e600854600955565b6116c861010061ff00196004541617600455565b60209060046040518094819382525afa80156103d2576133049261068c92600092613338575b506132fc90604051938491602083019190916001600160a01b036020820193169052565b6118b5612dc0565b600560005260156020527fbab719002e4be320868650dc7456e9a1d245e4d5dd64765588e2f21529d871d355388080613290565b6132fc9192506133569060203d6020116103cb576103bc81836115f6565b91906132d8565b61328391925061337b9060203d6020116103cb576103bc81836115f6565b919061325f565b61339c91935060203d6020116103cb576103bc81836115f6565b91386131f3565b806133bc9161340b575b600b548111156133c157611ed9565b613136565b604080516001600160a01b0385166020820152908101829052613406906133fd906133ef8160608101612e7b565b6133f7612c9d565b876166b6565b61172583611390565b611ed9565b6040517f5329daca0000000000000000000000000000000000000000000000000000000060208201526001600160a01b038416602482015260448101829052613465906130709061345f8160648101612e7b565b8661673e565b613479836000526018602052604060002090565b9061348e846000526019602052604060002090565b55556133ad565b6008556134c0612e7b6134b8600a54604051928391602083019190602083019252565b611872612b03565b6134d66008546000526017602052604060002090565b5538612f2b565b90501538612efa565b600080527f999d26de3473317ead3eeaf34ca78057f1439db67b6953469c3c96ce9caf6bd75460196020527fd2ac945fcc0096878c763e37d6929b78378c1a2defabde8ba7ee5ed1d6e7a5b2549095909491929091905b60065484811015613861576119b561355491611ed9565b613582612e7b613574600654604051928391602083019190602083019252565b61357c612977565b87616631565b613598610c96613590611d07565b612ec26129b0565b61364a6135ae6135a6611d07565b612ec26129e9565b986135d36040516135cb81612e7b60208201906000602083019252565b61189d612a22565b986135f06135ea6135e2611d07565b6133f7612a5b565b94616833565b602061360761062c6000546001600160a01b031690565b6040517fcfaa1f6c0000000000000000000000000000000000000000000000000000000081526001600160a01b0390931660048401529194859081906024820190565b0381845afa9384156103d257600094613840575b506001600160a01b038416156137ce575b5061367c6117e9846160ab565b6137bd578a92848461368c612a94565b938285528160208601526002958654604087015283866006546136b9906000526016602052604060002090565b906136c391611ee8565b6136cc91611ea1565b9e6136d691611ea1565b9c6136e093612660565b6006546136f7906000526016602052604060002090565b6003019061371a91906001600160a01b03166001600160a01b0319825416179055565b613723846127f0565b506006546001149361376960606137a6937f1517c86fcf2bfb8e3468afcc539b0004955da8027797c497ea51d1f1094ab898976137ae575b01516001600160a01b031690565b9254604080513381526001600160a01b03909516602086015284019490945260608301526080820192909252600060a082015290819060c0820190565b0390a161353d565b6137b88654600855565b61375b565b6004604051630d419f7360e41b8152fd5b6040517fb771c89600000000000000000000000000000000000000000000000000000000815260006004820152919350602090829060249082905afa9081156103d257600091613821575b50913861366f565b61383a915060203d6020116103cb576103bc81836115f6565b38613819565b61385a91945060203d6020116103cb576103bc81836115f6565b923861365e565b50600080527f999d26de3473317ead3eeaf34ca78057f1439db67b6953469c3c96ce9caf6bd79690965560196020527fd2ac945fcc0096878c763e37d6929b78378c1a2defabde8ba7ee5ed1d6e7a5b29490945593905038612eec565b505080612ee6565b60046040517fc99d37d2000000000000000000000000000000000000000000000000000000008152fd5b5050506138fe612f196161d9565b613909600a54600855565b61329e600a54600955565b61392e91925060203d6020116103cb576103bc81836115f6565b9038612e42565b50565b959394909291946000966000968461395257505050505050565b919395965091939650600b5496846000146139ba5761397b866000526018602052604060002090565b8054918201809211611e80576139ab966139a49261256e92556000526019602052604060002090565b9055613ff1565b600b549038808080808061262c565b85600096929652601860205260406000208054918203918211611e80575560005260196020526040600020938454908103908111611e80576139ab9455613ff1565b60405190613a09826115a2565b601482527f6c6576656c436c617573652875696e74323536290000000000000000000000006020830152565b908160a09103126103e8578051916020820151916040810151916080606083015192015190565b9392949190969596600b5497613a7c876000526018602052604060002090565b613a87838254611ea1565b9055613a9d876000526019602052604060002090565b613aa8848254611ea1565b90556000805260186020527f999d26de3473317ead3eeaf34ca78057f1439db67b6953469c3c96ce9caf6bd754151580613e3f575b613aef575b50505050505050600b5490565b8492159586159586613e2f575b5050600090613b1561062c83546001600160a01b031690565b604051809163cfbffe5360e01b825281600460209384935afa80156103d25761068c613b6691613b73948791613e12575b50613b5e8d6040519384918783019190602083019252565b6128606139fc565b8051810182019101613a35565b97919392949098613b86600a5484611ecc565b8111938415613e05575b5083613dc0575b505050613ba6575b5050613ae2565b613c109615613db757612895613bbf613bc593866127a8565b91612797565b955b15613dad5750613bbf613bdd93612895926127a8565b925b613bf381600052601a602052604060002090565b613bfe848254611ea1565b9055600052601b602052604060002090565b613c1b838254611ea1565b905560016000819052601c602052613c557f6de76108811faf2f94afbe5ac6c98e8393206cd093932de1fbfd61bbeec43a025b5460011690565b148015613d71575b613d36575b506004600052601c6020526001613c987fadacb2ae086d090ae1cbb87d66774fa6d708dd14d5bdc5b6c1e455aa2020dfb7613c4e565b148015613cfa575b613cbf575b50613cb1610d3e6141fd565b388080808080808080613b9f565b600b6000526015602052613cf27fcaeae41dfed97dfd8c41876ff591faa3e36cda388621c550caa3321a2a624e5f61256e565b905538613ca5565b5060c8600052601c6020526001613d307f922f6af691981b741eb02b3ed3453cc38ce623e8709ce524bd43bdbfc62af099613c4e565b14613ca0565b60086000526015602052613d697f2d0e46a571fdfbe57c7c718891a8a12999c102dfffa2b3314ea165dedd1684f561256e565b905538613c62565b5060c8600052601c6020526001613da77f922f6af691981b741eb02b3ed3453cc38ce623e8709ce524bd43bdbfc62af099613c4e565b14613c5d565b9250505092613bdf565b50508095613bc7565b90919250613de7600b5493613de1613dd786611390565b90549060031b1c90565b90611ecc565b11918215613dfa575b5050388080613b97565b101590503880613df0565b600b541015935038613b90565b613e299150843d86116103cb576103bc81836115f6565b38613b46565b613e3891613e81565b3883613afc565b50861515613add565b60405190613e55826115a2565b601382527f72616e6b436c617573652875696e7432353629000000000000000000000000006020830152565b90613e9761062c6000546001600160a01b031690565b906040928351809363cfbffe5360e01b825281600460209384935afa9384156103d257600094613fd2575b50600b93613ed08554611e93565b60088110613ee15750505050505050565b613f4d90613f1e613f108951613f0281612e7b868a83019190602083019252565b613f0a613e48565b86616555565b858082518301019101612bdc565b90861015908180613fb4575b80613fa2575b15613f52575050613f4081600b55565b6134068661172583611390565b613ed0565b81613f83575b50613f7a57613406613f6982611390565b8154906000199060031b1b19169055565b61340681600b55565b9050613f99826000526019602052604060002090565b54101538613f58565b508854613fae84611eae565b14613f30565b5080613fca846000526019602052604060002090565b541015613f2a565b81613fea9295503d86116103cb576103bc81836115f6565b9238613ec2565b9061400761062c6000546001600160a01b031690565b916040938451809463cfbffe5360e01b825281600460209384935afa9485156103d25760009561414b575b50600b946140408654611e93565b60088110614052575050505050505050565b61409d90846140906140828b5161407481612e7b878b83019190602083019252565b61407c613e48565b87616555565b868082518301019101612bdc565b916140a2575b5050611ed9565b614040565b87101590818061412d575b8061411b575b156140d75750506140c381600b55565b6140d08761172583611390565b3880614096565b816140fc575b506140f3576140ee613f6982611390565b6140d0565b6140ee81600b55565b9050614112826000526019602052604060002090565b541015386140dd565b50895461412784611eae565b146140b3565b5080614143846000526019602052604060002090565b5410156140ad565b816141639296503d87116103cb576103bc81836115f6565b9338614032565b60405190614177826115a2565b600982527f63617070696e67282900000000000000000000000000000000000000000000006020830152565b908160e09103126103e85780519160208201516141bf81610888565b9160408101516141ce81610888565b9160608201516141dd81610888565b9160808101516141ec81610888565b9160c060a0830151612d4281610888565b6000906004602061421961062c6000546001600160a01b031690565b6040519283809263cfbffe5360e01b82525afa9081156103d2576142699161425a916000916145a1575b5061424c61416a565b614254611cf4565b91616555565b602080825183010191016141a3565b6000805260186020529396959490929091906142a6867f999d26de3473317ead3eeaf34ca78057f1439db67b6953469c3c96ce9caf6bd7546127a8565b976142af6158ca565b94614599575b50614503575b61449d575b61448c575b5061441e575b61433b575b6000805260156020527fa31547ce6245cdb9ecea19cf8c7eb9f5974025bb4075011409251ae855b30aed54614304916127a8565b808410614332576143159084611ecc565b905b828211918381106143285750600090565b61162d9084611ecc565b50600090614317565b600660005260156020529261430490614416906144106123016143e06143b06122d17f25847c9ccf691da811a9f934d6b3b92e6062ef92feb71bf4cb08cbb4fad8d6525b54600d60005260156020527fe3e3bb3f660b5aca6f44f8cdafd6456c07cd53888341ab748ffc02d532ccc70e61223a565b600760005260156020527f5d0f48e37dc1225cdee8d6f2a0315d796f55423522fe638d7d95421802dfc00661223a565b600e60005260156020527f39f65be0de5254440eb2b93b160b1af3a4f45fe0571eaea7ef454b27b7f02d1861223a565b90611ea1565b9390506142d0565b6005600052601560205293614486906144106122a17fbab719002e4be320868650dc7456e9a1d245e4d5dd64765588e2f21529d871d35b54600c60005260156020527f74c10a04815bbeaf3165dab0bd11b69aae73edf00a48b27ec8c53ac5b61d47fd61223a565b936142cb565b6144969196611ea1565b94386142c5565b60156020527fb3a65e8276bd33b3e4f7d6081ebd9899187264822358758dca2e2bc37b2a9c2754600a60005290976144fd9161441090612241907f0cfcac9f3767130657d3b01a9146da544eeb39eb9670066ace5e84da7fc4319f61223a565b966142c0565b60156020527f07d4ff730d9753101d832555708a37d38c2c45fce8cacaefc99f06074e93fe0b54600960005290986145939161441090614563907f497613c0658032a90a449a944031c57b1d03996c3a6148fe12146c45cf32140061223a565b601060005260156020527f778c823f9b5f066b3c9d60b855427fd2999fcc25aebe3320977c1598596fffaf61223a565b976142bb565b9950386142b5565b6145b9915060203d81116103cb576103bc81836115f6565b38614243565b6116c8906145cc81614a7d565b8051600f60005260156020526146017f3bda72f6153f13a10a865b9a6397e1123f4aa6a1726e0e1349cd07eb0e24d81561256e565b905560608101516012600052601560205261463b7f2d1305887a553ebca964114eb55137666ae056a13c7d9c5dcf078bd3a9732a3861256e565b9055602081810151601060005260159091526146767f778c823f9b5f066b3c9d60b855427fd2999fcc25aebe3320977c1598596fffaf61256e565b9055604081018051601160005260156020526146b17fed5e5ecd5cb229fc7c2ed17e5e7cdfdc1d0a81991bd95ffdc4cdf25aca2d2ac361256e565b90556080820151601360005260156020526146eb7fa5165e376b84f33a3c944a34b062595f1fb4afde844645ed23ed1e10c257ebe161256e565b905560a0820151601460005260156020526147257fe06932cbfde2f2475d8c82e797702b1bf34af837520e34a39e7e7b5e28f71d5f61256e565b905560c08201516015600081905260205261475f7ff38242ae41b6250df1acd58d7376889913b9221d9b2e1d2e50fb7d62671fa73361256e565b90556101008201516009600052601560205261479a7f497613c0658032a90a449a944031c57b1d03996c3a6148fe12146c45cf32140061256e565b905561012082018051600a600052601560205290926101c0916147dc7f0cfcac9f3767130657d3b01a9146da544eeb39eb9670066ace5e84da7fc4319f61256e565b9055610160810151600c60005260156020526148177f74c10a04815bbeaf3165dab0bd11b69aae73edf00a48b27ec8c53ac5b61d47fd61256e565b9055610180810151600d60005260156020526148527fe3e3bb3f660b5aca6f44f8cdafd6456c07cd53888341ab748ffc02d532ccc70e61256e565b90556101a0810151600e600052601560205261488d7f39f65be0de5254440eb2b93b160b1af3a4f45fe0571eaea7ef454b27b7f02d1861256e565b905501516148a5846000526017602052604060002090565b5551601f60005260156020526148da7fce9b89faa7d00b5a0dcea74b754372f1c8c1e2788b44e0b6fc99899848f9baf761256e565b90555160206000819052601590526149117f6b9301c903fb63b5bb3b4ed52f960f66e3a0c33bca0ea2f28cf6e34d2eb058dd61256e565b9055600855565b604051906101e0820182811067ffffffffffffffff82111761158057604052816101c06000918281528260208201528260408201528260608201528260808201528260a08201528260c08201528260e08201528261010082015282610120820152826101408201528261016082015282610180820152826101a08201520152565b604051906149a6826115a2565b600a82527f73687574646f776e2829000000000000000000000000000000000000000000006020830152565b604051906149df826115a2565b601882527f676574557365724964546f496e73742875696e743235362900000000000000006020830152565b60405190614a18826115a2565b601182527f696e636f6d654f662861646472657373290000000000000000000000000000006020830152565b60405190614a51826115a2565b601482527f636f6d70757465546f75722875696e74323536290000000000000000000000006020830152565b90614a86614918565b91614a9c61062c6000546001600160a01b031690565b60409182519163ab6e844f60e01b83526020908184600481845afa9384156103d257600094614ee9575b50845163cfbffe5360e01b81528281600481855afa9182156103d25785896004968694600096614ec2575b5090614c23859287614b13614b04614999565b614b0c611cf4565b908361667a565b9b8c92614bb9614b216158ca565b6060890190815281895260156020527f27739e4bb5e6f8b5e4b57a047dca8767cc9b982a011081e086cbb0dfa9de818d54600860005290929190613de190614b89907f2d0e46a571fdfbe57c7c718891a8a12999c102dfffa2b3314ea165dedd1684f561223a565b600f60005260156020527f3bda72f6153f13a10a865b9a6397e1123f4aa6a1726e0e1349cd07eb0e24d81561223a565b8752805160156020527f8191f4eb6b8bafbfe9a5389c8d07d7f5fd81137a7ee653fc4358269845ee1d2e54600b600052614c1c9190613de190612271907fcaeae41dfed97dfd8c41876ff591faa3e36cda388621c550caa3321a2a624e5f61223a565b905261511f565b509d94939096926101c087939701526101008201520152600014614eb257505061068c614c6a91614c626007548b519384918883019190602083019252565b6132346149d2565b31878a01525b8651948580927f52b06d640000000000000000000000000000000000000000000000000000000082525afa9283156103d257600093614e93575b50614d35614cff614ce3614cc66001546001600160a01b031690565b88519182918783019190916001600160a01b036020820193169052565b0395614cf7601f19978881018452836115f6565b6118b5614a0b565b60056000526015602052613de16122a17fbab719002e4be320868650dc7456e9a1d245e4d5dd64765588e2f21529d871d3614455565b94608088019586526004600b54600281101580614e56575b614e18575b101580614db7575b614d78575b50505050614d6a5750565b806000915161016085015252565b614da993614d9593614da192519485918201906004602083019252565b039081018452836115f6565b6118b5614a44565b60c085015238808080614d5f565b5060156020527f5d0f48e37dc1225cdee8d6f2a0315d796f55423522fe638d7d95421802dfc00654600e600052614e1290612301907f39f65be0de5254440eb2b93b160b1af3a4f45fe0571eaea7ef454b27b7f02d1861223a565b15614d5a565b614e4c8351614e3e81614e32898201906002602083019252565b038981018352826115f6565b614e46614a44565b866166b6565b60a08b0152614d52565b5060066000526015602052614e8d6122d17f25847c9ccf691da811a9f934d6b3b92e6062ef92feb71bf4cb08cbb4fad8d65261437f565b15614d4d565b614eab919350823d84116103cb576103bc81836115f6565b9138614caa565b8b8a01526101208b015250614c70565b8592919650614ee0614c2391843d86116103cb576103bc81836115f6565b96919250614af1565b614f01919450823d84116103cb576103bc81836115f6565b9238614ac6565b604051906040820182811067ffffffffffffffff8211176115805760405260006020838281520152565b6040519060a0820182811067ffffffffffffffff8211176115805760405281614f59614f08565b8152614f63614f08565b6020820152614f70614f08565b6040820152614f7d614f08565b60608201526080614f8c614f08565b910152565b60405190614f9e826115a2565b601882527f6765744261746368526f79616c7479436c6175736573282900000000000000006020830152565b6102a09081818403126103e85782601f820112156103e8576040805193614ff0856115da565b84938301928184116103e857935b83851061500d57505050505090565b6060858303126103e857825160609161502582611564565b8651825260209182880151838201528588015186820152815201940193614ffe565b60405190615054826115a2565b601f82527f676574526f79616c697479416d6f756e7442617463682875696e7432353629006020830152565b9060e0828203126103e85780601f830112156103e857604051916150a3836115da565b829060e081019283116103e857905b8282106150bf5750505090565b81518152602091820191016150b2565b9060078110156113a25760051b0190565b8181029291600082127f8000000000000000000000000000000000000000000000000000000000000000821416611e80578184051490151715611e8057565b92906000946000946000946000946000946151bc6151ad61513e614f32565b94615148876155c0565b87519060208201525261515a8761569d565b60208801519060208201525261516f87615730565b604088015190602082015252615184876157d2565b6060880151906020820152526151998761584e565b60808801519060208201525261424c614f91565b60208082518301019101614fca565b91600854600b54905b8681106152115750505050506020815101518211918291821580946151ff575b93926151f057505091565b60800151602001511015929050565b506020606082015101518211156151e5565b61524761523860405161523081612e7b86602083019190602083019252565b61407c615047565b60208082518301019101615080565b6001905b838211156154a4575050821561526a575b61526590611ed9565b6151c5565b615289615281826000526017602052604060002090565b54809c6127bb565b9a6152948289611ecc565b90600091604089015189518b8251818110808451938410938161549c575b81615479575b50156153ab57505050602080835183518082106000146153a35750935b01519101518082111561539b5750905b80861115615395575084905b6152fa81611e93565b8c101561538757508a5b818111615374575b50505b80831161536c575b8261532191611ecc565b9180615356575b5081615336575b505061525c565b9a61534861534e92615265949d6150e0565b906127bb565b99903861532f565b9a615348829c615365936150e0565b9938615328565b915081615317565b61537f929450611ecc565b91388061530c565b61539090611e93565b615304565b906152f1565b9050906152e5565b9050936152d5565b93919293615423575b50506153c1575b5061530f565b80518086111561541a5750602085915b016153dc8151611e93565b8c101561540b57508a5b8181116153f4575b506153bb565b61540392949161441091611ecc565b9138806153ee565b6154159051611e93565b6153e6565b602090916153d1565b808811156154705750602087915b018d61543d8251611e93565b111561546157508c5b818111156153b457615459929650611ecc565b9338806153b4565b61546b9051611e93565b615446565b60209091615431565b9050602086015110801561548f575b15386152b8565b5081602085015110615488565b8491506152b2565b909c6154b86154b28f611eae565b886150cf565b515115801561556a575b61556057875180518410159081615551575b50801561552a575b1561550e57615502615508918f6154f56154fb91611eae565b856150cf565b5190611ea1565b9d611ed9565b9061524b565b9c9d6155248f916154fb6154f561550894611eae565b9e611ed9565b50602088015180518410159081615542575b506154dc565b6020915001518311153861553c565b602091500151831115386154d4565b9c61550890611ed9565b508d615578613dd782611390565b8410159081615589575b50156154c2565b6155b7915060406155ae6155a86155a2613dd785611390565b93611eae565b8b6150cf565b51015190611ea1565b8311158e615582565b60c8600052601c6020527f922f6af691981b741eb02b3ed3453cc38ce623e8709ce524bd43bdbfc62af09980549291908315615696576001841661567e57505060c8600052601c602052613dd76156407f922f6af691981b741eb02b3ed3453cc38ce623e8709ce524bd43bdbfc62af09961563a85611ebd565b906116e5565b905460c8600052601c60205260039190911b1c9261563a7f922f6af691981b741eb02b3ed3453cc38ce623e8709ce524bd43bdbfc62af09991611eae565b61563a61568b9294611eae565b90549060031b1c9190565b5091508190565b60026000908152601c6020527ff5b6e61a0c14f171ef1c86f003900ef0305e4159fff3317e4fb7c351f2050c8780549193929082156157285760018316615719575050613dd79060028452601c60205261563a604061570181872061563a85611ebd565b90549060031b1c9560028152601c6020522091611eae565b90935061563a61568b92611eae565b509250508190565b60036000818152601c6020527fb0deb225ecd3a242ef7d55f0f81ae3b924e0b6f9da8bc33b306fb32ca5f287f780549194939082156157c957600183166157b15750506157a990828552601c60205261563a604061579381882061563a85611ebd565b905490861b1c96858152601c6020522091611eae565b9054911b1c90565b90945061563a6157c092611eae565b9054911b1c9190565b50935050508190565b60056000908152601c6020527f0de3fcd0b495fcf96d4f4ab29f8e12012b60a56d458f4c95fdde42b927ce97a080549193929082156157285760018316615719575050613dd79060058452601c60205261563a604061583681872061563a85611ebd565b90549060031b1c9560058152601c6020522091611eae565b60066000908152601c6020527fb2d730c3da277545f6c9f2c922ea3d0e9fcbd74e29d321b995a837ef61c283f080549193929082156157285760018316615719575050613dd79060068452601c60205261563a60406158b281872061563a85611ebd565b90549060031b1c9560068152601c6020522091611eae565b600090816001815b600f82111561594b575050606560005260156020527f535b9e1ac68faf16e764f210b80ec6320ee232f7656b4f9a2d0a74437eceaaac548101809111611e805760686000526015602052917f7ee1f11581f85e8bd439e065fc0e6555ccc3142caeda52fdbb7bed5ad7a8306a548101809111611e805790565b9093848252602092601a8452604090818420548101809111611e8057601b9094878552528220548101809111611e80576159859094611ed9565b906158d2565b919091615996611f6b565b928115615de15760018214615cbb5760028214615b905760038214615aa5576159e5906159c16161d9565b906008546159cf8282611ea1565b831115615a9e576159e09250611ea1565b614a7d565b9060048114615a4f576005146159f85750565b9091506101a0615a06611ccb565b9160e08101518352610100810151602084015261012081015160408401526101408101516060840152610160810151608084015261018081015160a0840152015160c082015290565b5090915060c0615a5d611ccb565b91805183526020810151602084015260408101516040840152606081015160608401526080810151608084015260a081015160a0840152015160c082015290565b5050614a7d565b50509050615ab1611ccb565b7fa31547ce6245cdb9ecea19cf8c7eb9f5974025bb4075011409251ae855b30aed5481527fce9b89faa7d00b5a0dcea74b754372f1c8c1e2788b44e0b6fc99899848f9baf7546020808301919091527f6b9301c903fb63b5bb3b4ed52f960f66e3a0c33bca0ea2f28cf6e34d2eb058dd5460408301527f535b9e1ac68faf16e764f210b80ec6320ee232f7656b4f9a2d0a74437eceaaac5460608301526068600090815260159091527f7ee1f11581f85e8bd439e065fc0e6555ccc3142caeda52fdbb7bed5ad7a8306a54608083015260a0820181905260c082015290565b50509050615b9c611ccb565b7f3bda72f6153f13a10a865b9a6397e1123f4aa6a1726e0e1349cd07eb0e24d8155481527f778c823f9b5f066b3c9d60b855427fd2999fcc25aebe3320977c1598596fffaf546020808301919091527fed5e5ecd5cb229fc7c2ed17e5e7cdfdc1d0a81991bd95ffdc4cdf25aca2d2ac35460408301527f2d1305887a553ebca964114eb55137666ae056a13c7d9c5dcf078bd3a9732a385460608301527fa5165e376b84f33a3c944a34b062595f1fb4afde844645ed23ed1e10c257ebe15460808301527fe06932cbfde2f2475d8c82e797702b1bf34af837520e34a39e7e7b5e28f71d5f5460a08301526015600081905290527ff38242ae41b6250df1acd58d7376889913b9221d9b2e1d2e50fb7d62671fa7335b5460c082015290565b50509050615cc7611ccb565b7f2d0e46a571fdfbe57c7c718891a8a12999c102dfffa2b3314ea165dedd1684f55481527f497613c0658032a90a449a944031c57b1d03996c3a6148fe12146c45cf321400546020808301919091527f0cfcac9f3767130657d3b01a9146da544eeb39eb9670066ace5e84da7fc4319f5460408301527fcaeae41dfed97dfd8c41876ff591faa3e36cda388621c550caa3321a2a624e5f5460608301527f74c10a04815bbeaf3165dab0bd11b69aae73edf00a48b27ec8c53ac5b61d47fd5460808301527fe3e3bb3f660b5aca6f44f8cdafd6456c07cd53888341ab748ffc02d532ccc70e5460a0830152600e600052601590527f39f65be0de5254440eb2b93b160b1af3a4f45fe0571eaea7ef454b27b7f02d18615cb2565b50509050615ded611ccb565b7f27739e4bb5e6f8b5e4b57a047dca8767cc9b982a011081e086cbb0dfa9de818d5481527f07d4ff730d9753101d832555708a37d38c2c45fce8cacaefc99f06074e93fe0b546020808301919091527fb3a65e8276bd33b3e4f7d6081ebd9899187264822358758dca2e2bc37b2a9c275460408301527f8191f4eb6b8bafbfe9a5389c8d07d7f5fd81137a7ee653fc4358269845ee1d2e5460608301527fbab719002e4be320868650dc7456e9a1d245e4d5dd64765588e2f21529d871d35460808301527f25847c9ccf691da811a9f934d6b3b92e6062ef92feb71bf4cb08cbb4fad8d6525460a08301526007600052601590527f5d0f48e37dc1225cdee8d6f2a0315d796f55423522fe638d7d95421802dfc006615cb2565b15615f0e57565b606460405162461bcd60e51b815260206004820152601960248201527f6f776e2e7361666567756172642e63616c6c2e6661696c6564000000000000006044820152fd5b908160209103126103e8575161162d81610888565b6001600160a01b03600054166040518091634bf9c0ad60e11b825281600460209384935afa9182156103d25761162d92615fef9160009161600a575b50604051615fb0816115a2565b600881527f69735361666528290000000000000000000000000000000000000000000000008482015260405191615fe6836115be565b60008352616580565b919080616000575b6106b990615f07565b5081518114615ff7565b6160219150833d85116103cb576103bc81836115f6565b38615fa3565b60405190616034826115a2565b601582527f69735365637572654261736528616464726573732900000000000000000000006020830152565b1561606757565b606460405162461bcd60e51b815260206004820152601a60248201527f6f776e2e736563757265626173652e63616c6c2e6661696c65640000000000006044820152fd5b6000546001600160a01b0316604051918291634bf9c0ad60e11b835282600460209485935afa9283156103d25761162d936161179261068c92600092616132575b5061610f906040519384918783019190916001600160a01b036020820193169052565b6106a2616027565b919080616128575b6106b990616060565b508151811461611f565b61610f91925061614e90863d88116103cb576103bc81836115f6565b91906160ec565b60405190616162826115a2565b601182527f69735369676e65722861646472657373290000000000000000000000000000006020830152565b1561619557565b606460405162461bcd60e51b815260206004820152601660248201527f6f776e2e7369676e65722e63616c6c2e6661696c6564000000000000000000006044820152fd5b600460206001600160a01b03600054166040519283809263111ea8c160e21b82525afa80156103d25761162d9160009161625b575b5060405161621b816115a2565b600581527f6167652829000000000000000000000000000000000000000000000000000000602082015260405191616252836115be565b600083526166b6565b616273915060203d81116103cb576103bc81836115f6565b3861620e565b60405190616286826115a2565b601882527f697364656c656761746f724e6f646528616464726573732900000000000000006020830152565b6001600160a01b038091169081156162ff57600154826001600160a01b0319821617600155167f8292fce18fa69edf4db7b94ea2e58241df0ae57f97e0a6c9b29067028bf92d76600080a3565b606460405162461bcd60e51b815260206004820152601160248201527f6f776e2e696e76616c69642e6f776e65720000000000000000000000000000006044820152fd5b3d1561636e573d9061635482611cd8565b9161636260405193846115f6565b82523d6000602084013e565b606090565b9080156116bb576001600160a01b03821691821561641957600080808481945af161639c616343565b50156163d5576040519081527fcec1f18c3ab8ddaaa107a1591e3c369667eec613626611a8deaedef43069fcdd9080602081015b0390a2565b606460405162461bcd60e51b815260206004820152601360248201527f6f776e2e7472616e736665722e6661696c6564000000000000000000000000006044820152fd5b606460405162461bcd60e51b815260206004820152600e60248201527f6f776e2e696e76616c69642e746f0000000000000000000000000000000000006044820152fd5b6000600460206001600160a01b03835416604051928380927f46f991ac0000000000000000000000000000000000000000000000000000000082525afa9081156103d2578284819382938391616537575b505af16164b9616343565b50156164f35760405190815233907fcdcc745fe377b103b45fa0cec23ae3ef93d6fc6a84a01f0d18c40b354dd1d5d89080602081016163d0565b606460405162461bcd60e51b815260206004820152600f60248201527f6f776e2e6275726e2e6661696c656400000000000000000000000000000000006044820152fd5b61654f915060203d81116103cb576103bc81836115f6565b386164ae565b906165609291616580565b906000901561656d575090565b604051915061657b826115be565b815290565b9190823b15616618577fffffffff00000000000000000000000000000000000000000000000000000000815160208093012016916040519180830193845281519160005b8381106166045750505091816165f1602482600097959688970187838201520360048101845201826115f6565b5191620dbba0fa616600616343565b9091565b8181018301518582016024015282016165c4565b50505060009060405161662a816115be565b6000815290565b929161663f91600094616580565b908061666f575b61664d5750565b6001600160a01b039192508060208061666b93518301019101611618565b1690565b506020815114616646565b929161668891600094616580565b90806166ab575b6166965750565b61162d91925060208082518301019101615f52565b50602081511461668f565b92916166c491600094616580565b90806166e9575b6166d25750565b9091506020818051810103126103e8576020015190565b5060208151146166cb565b90602082519201517fffffffff0000000000000000000000000000000000000000000000000000000090818116936004811061672f57505050565b60040360031b82901b16169150565b6001600160a01b038116156167ef57600080918351908260208601915af190616765616343565b911561676f575090565b8051600091906004116167e95761678691506166f4565b8151156167965750805190602001fd5b6024907fffffffff00000000000000000000000000000000000000000000000000000000604051917f21c09d34000000000000000000000000000000000000000000000000000000008352166004820152fd5b50616786565b606460405162461bcd60e51b815260206004820152601260248201527f6f776e2e696e76616c69642e74617267657400000000000000000000000000006044820152fd5b803b600061684082611cd8565b9261684e60405194856115f6565b82845260208401903c602d81511061686a57602a015160601c90565b606460405162461bcd60e51b815260206004820152601360248201527f4e6f742061206d696e696d616c2070726f7879000000000000000000000000006044820152fdfea2646970667358221220b9312a6dc16c0aa8cefc4f360cc71c3066b4f8ae12a14609ddb9c7a6464d212a64736f6c63430008140033","linkReferences":{}},"methodIdentifiers":{"instanceStor()":"131c73ad"},"id":69}