{"abi":[{"type":"constructor","inputs":[{"name":"_hex","type":"address","internalType":"address"},{"name":"_price","type":"address","internalType":"address"},{"name":"_old741","type":"address","internalType":"address"}],"stateMutability":"nonpayable"},{"type":"function","name":"dAOAssembly","inputs":[],"outputs":[{"name":"","type":"address","internalType":"address"}],"stateMutability":"view"},{"type":"function","name":"daocore","inputs":[],"outputs":[{"name":"","type":"address","internalType":"address"}],"stateMutability":"view"},{"type":"function","name":"nested741","inputs":[],"outputs":[{"name":"","type":"address","internalType":"address"}],"stateMutability":"view"},{"type":"function","name":"old741","inputs":[],"outputs":[{"name":"","type":"address","internalType":"address"}],"stateMutability":"view"},{"type":"function","name":"price","inputs":[],"outputs":[{"name":"","type":"address","internalType":"address"}],"stateMutability":"view"}],"bytecode":{"object":"0x6080346101b757601f617c6638819003918201601f19168301926001600160401b03929091838511838610176101a15781606092849260409788528339810103126101b75761004d816101bc565b6100648461005d602085016101bc565b93016101bc565b9160018060a01b03199273c0cee8b561cc4f60869776ca5b0b7a295e04f5af84600154161760015585516111db9586820196828810828911176101a15761032c83396001600160a01b039485168088526000979092908190036020019088f080156101835785168660035416176003558751614b13808201908282108483111761018d576020918391613153833985815203019088f08015610183578516866002541617600255875191611c4c808401928484109084111761016f579183916020936115078439815203019086f080156101655790838092168560045416176004551683600154161760015516908254161790555161015b90816101d18239f35b86513d87823e3d90fd5b634e487b7160e01b89526041600452602489fd5b88513d89823e3d90fd5b634e487b7160e01b8a52604160045260248afd5b634e487b7160e01b600052604160045260246000fd5b600080fd5b51906001600160a01b03821682036101b75756fe608080604052600436101561001357600080fd5b600090813560e01c90816314837455146100fc5750806314d8d024146100d357806345cff900146100aa5780635540c5ac146100815763a035b1fe1461005857600080fd5b3461007e578060031936011261007e57546040516001600160a01b039091168152602090f35b80fd5b503461007e578060031936011261007e576001546040516001600160a01b039091168152602090f35b503461007e578060031936011261007e576002546040516001600160a01b039091168152602090f35b503461007e578060031936011261007e576004546040516001600160a01b039091168152602090f35b9050346101215781600319360112610121576003546001600160a01b03168152602090f35b5080fdfea2646970667358221220296b9098f08ffb1bb441aaeb3c9fd2c711a3fb86dd97c3123f84567565504c6264736f6c634300081400336080346100ca57601f6111db38819003918201601f19168301916001600160401b038311848410176100cf578084926020946040528339810103126100ca57516001600160a01b038116908190036100ca5780156100855760018060a01b031933816001541617600155600054161760005560006004556040516110f590816100e68239f35b60405162461bcd60e51b815260206004820152601360248201527f6f776e2e696e76616c69642e68657862617365000000000000000000000000006044820152606490fd5b600080fd5b634e487b7160e01b600052604160045260246000fdfe60806040526004361015610018575b361561001657005b005b60003560e01c806312065fe0146101085780631f185d161461010357806325924f34146100fe5780633b9b7955146100f957806361b7fbd9146100f45780638da5cb5b146100ef578063a1f7f539146100ea578063af484526146100e5578063b90306ad146100e0578063c54e44b0146100db578063c89b84fd146100d6578063dbac26e9146100d1578063e01ad5fd146100cc578063e0a9bc2b146100c75763fdc10bc90361000e5761096c565b6108ca565b61082b565b6107e9565b6106d1565b610635565b61052e565b610473565b6103bc565b610393565b6102bd565b61028a565b610246565b61013a565b3461012457600036600319011261012457602047604051908152f35b600080fd5b6001600160a01b0381160361012457565b34610124576020806003193601126101245760049081359061015b82610129565b8061016f61016a6000546107dd565b6107dd565b604051634bf9c0ad60e11b815294859182905afa918215610241576101b46101ee936101d0926102009660009261020e575b506101c290604051938491878301610277565b03601f1981018452836109e0565b6101ca610dc8565b90610f67565b919080610204575b6101e190610df5565b8082518301019101610d39565b60405191829182901515815260200190565b0390f35b50815181146101d8565b6101c291925061023390863d881161023a575b61022b81836109e0565b810190610a03565b91906101a1565b503d610221565b610a1b565b3461012457602036600319011261012457602061026d60043561026881610129565b610af5565b6040519015158152f35b6001600160a01b03909116815260200190565b34610124576000366003190112610124576000546040516001600160a01b039091168152602090f35b8015150361012457565b34610124576040366003190112610124576004356102da81610129565b6024356102e6816102b3565b60018060a01b03600092600460208386541660405192838092630536340960e21b82525afa801561024157610326918691610375575b5083163314610c8f565b16825260036020526040822060ff1981541660ff8315151617905560001461036257600454600019811461035d5760010160045580f35b610c6b565b600454801561035d576000190160045580f35b61038d915060203d811161023a5761022b81836109e0565b3861031c565b34610124576000366003190112610124576001546040516001600160a01b039091168152602090f35b346101245760003660031901126101245760005460405163d1f956b160e01b815290602090829060049082906001600160a01b03165afa908115610241576102009161044591600091610455575b50604051610417816109a5565b601381527267657464656c656761746f72436f756e74282960681b602082015261043f610a42565b91611081565b6040519081529081906020820190565b61046d915060203d811161023a5761022b81836109e0565b3861040a565b34610124576020806003193601126101245760049081359061049482610129565b806104a361016a6000546107dd565b604051634bf9c0ad60e11b815294859182905afa918215610241576101b46101ee936104f0926102009660009261050b575b506104e890604051938491878301610277565b6101ca610d4e565b919080610501575b6101e190610d7f565b50815181146104f8565b6104e891925061052790863d881161023a5761022b81836109e0565b91906104d5565b34610124576020806003193601126101245760043560018060a01b0391600092808454169060405191630536340960e21b83528383600481845afa928315610241576004938593610589928992610616575b50163314610c8f565b6040516311be646b60e21b815292839182905afa918215610241578480856105c8958295839584926105f9575b50505af16105c2610ef9565b50610f29565b60405190815233907fcdcc745fe377b103b45fa0cec23ae3ef93d6fc6a84a01f0d18c40b354dd1d5d890602090a280f35b61060f9250803d1061023a5761022b81836109e0565b38806105b6565b61062e919250853d871161023a5761022b81836109e0565b9038610580565b346101245760203660031901126101245760043561065281610129565b803b600061065f82610a27565b9261066d60405194856109e0565b82845260208401903c602d81511061069657602a61020091015160601c60405191829182610277565b60405162461bcd60e51b81526020600482015260136024820152724e6f742061206d696e696d616c2070726f787960681b6044820152606490fd5b34610124576000806003193601126107da576106f061016a82546107dd565b60405163cfbffe5360e01b815260209290918383600481845afa801561024157610730859160049585916107bd575b50610728610a55565b61043f610a42565b916040519485809263ab6e844f60e01b82525afa8015610241576102009461044594610795949261079a575b50610787906101b461076c610e3a565b94604051958693840160209093929193604081019481520152565b61078f610c32565b90611081565b610c81565b8192506107b690610787923d851161023a5761022b81836109e0565b919061075c565b6107d49150833d851161023a5761022b81836109e0565b3861071f565b80fd5b6001600160a01b031690565b346101245760203660031901126101245760043561080681610129565b60018060a01b03166000526003602052602060ff604060002054166040519015158152f35b3461012457602080600319360112610124576004803561084a81610129565b60005460405163d1f956b160e01b81526001600160a01b03949093909182918591829088165afa90811561024157610200946101ee946000936108ab575b50604051931681840152825261089d826109a5565b6108a5610ec5565b90611045565b6108c3919350823d841161023a5761022b81836109e0565b9138610888565b3461012457600036600319011261012457600054604051634bf9c0ad60e11b8152906020908190839060049082906001600160a01b03165afa908115610241576109346101ee926102009460009161094f575b50610926610ccd565b61092e610a42565b91610f67565b919080610945575b6101e190610cf1565b508151811461093c565b6109669150833d851161023a5761022b81836109e0565b3861091d565b34610124576000366003190112610124576020610987610e3a565b604051908152f35b634e487b7160e01b600052604160045260246000fd5b604081019081106001600160401b038211176109c057604052565b61098f565b602081019081106001600160401b038211176109c057604052565b601f909101601f19168101906001600160401b038211908210176109c057604052565b908160209103126101245751610a1881610129565b90565b6040513d6000823e3d90fd5b6001600160401b0381116109c057601f01601f191660200190565b60405190610a4f826109c5565b60008252565b60405190610a62826109a5565b600c82526b72616e6b666f7244414f282960a01b6020830152565b60405190610a8a826109a5565b601682527567657455736572546f53746f7228616464726573732960501b6020830152565b60405190610abc826109a5565b600682526572616e6b282960d01b6020830152565b60405190610ade826109a5565b600882526769734c6f636b282960c01b6020830152565b610b0361016a6000546107dd565b9060405163cfbffe5360e01b81526020908181600481875afa801561024157610b3a83916004936000916107bd5750610728610a55565b946040519283809263ab6e844f60e01b82525afa801561024157610b85928492600092610c0f575b50610b77906101b46040519485928301610277565b610b7f610a7d565b90611001565b916001600160a01b03831615610c0757610bc9610bb2610ba3610aaf565b610bab610a42565b9086611081565b93610bbb610ad1565b610bc3610a42565b91611045565b9210159182610bfe575b5081610bdd575090565b6001600160a01b031660009081526003602052604090205460ff1615905090565b15915038610bd3565b505050600090565b819250610c2b90610b77923d851161023a5761022b81836109e0565b9190610b62565b60405190610c3f826109a5565b601d82527f67657472616e6b636f756e742875696e743235362c75696e74323536290000006020830152565b634e487b7160e01b600052601160045260246000fd5b906003820180921161035d57565b15610c9657565b60405162461bcd60e51b815260206004820152600f60248201526e6f776e2e6e6f6e617574682e44414f60881b6044820152606490fd5b60405190610cda826109a5565b6008825267697353616665282960c01b6020830152565b15610cf857565b60405162461bcd60e51b81526020600482015260196024820152781bdddb8b9cd8599959dd585c990b98d85b1b0b99985a5b1959603a1b6044820152606490fd5b908160209103126101245751610a18816102b3565b60405190610d5b826109a5565b601582527469735365637572654261736528616464726573732960581b6020830152565b15610d8657565b60405162461bcd60e51b815260206004820152601a6024820152791bdddb8b9cd958dd5c9958985cd94b98d85b1b0b99985a5b195960321b6044820152606490fd5b60405190610dd5826109a5565b601182527069735369676e657228616464726573732960781b6020830152565b15610dfc57565b60405162461bcd60e51b81526020600482015260166024820152751bdddb8b9cda59db995c8b98d85b1b0b99985a5b195960521b6044820152606490fd5b60005460405163111ea8c160e21b815290602090829060049082906001600160a01b03165afa801561024157610a1891600091610ea7575b50604051610e7f816109a5565b6005815264616765282960d81b602082015260405191610e9e836109c5565b60008352611081565b610ebf915060203d811161023a5761022b81836109e0565b38610e72565b60405190610ed2826109a5565b6018825277697364656c656761746f724e6f646528616464726573732960401b6020830152565b3d15610f24573d90610f0a82610a27565b91610f1860405193846109e0565b82523d6000602084013e565b606090565b15610f3057565b60405162461bcd60e51b815260206004820152600f60248201526e1bdddb8b989d5c9b8b99985a5b1959608a1b6044820152606490fd5b9190823b15610fe8578051906020918263ffffffff60e01b92012016916040519180830193845281519160005b838110610fd4575050509181610fc1602482600097959688970187838201520360048101845201826109e0565b5191620dbba0fa610fd0610ef9565b9091565b818101830151858201602401528201610f94565b505050600090604051610ffa816109c5565b6000815290565b929161100f91600094610f67565b908061103a575b61101d5750565b90915060208180518101031261012457602001516107dd81610129565b506020815114611016565b929161105391600094610f67565b9080611076575b6110615750565b610a1891925060208082518301019101610d39565b50602081511461105a565b929161108f91600094610f67565b90806110b4575b61109d5750565b909150602081805181010312610124576020015190565b50602081511461109656fea26469706673582212205f515fddc18c893b3f5eac3aa034891c0e8981dcf53f27b3156ba346f57285cd64736f6c634300081400336080346100cf57601f611c4c38819003918201601f19168301916001600160401b038311848410176100d4578084926020946040528339810103126100cf57516001600160a01b038116908190036100cf57801561008a5760018060a01b031933816001541617600155600054161760005560336003556003600455604051611b6190816100eb8239f35b60405162461bcd60e51b815260206004820152601360248201527f6f776e2e696e76616c69642e68657862617365000000000000000000000000006044820152606490fd5b600080fd5b634e487b7160e01b600052604160045260246000fdfe60806040526004361015610018575b361561001657005b005b60003560e01c8063013cf08b1461016857806312065fe0146101635780631f185d161461015e5780633595df1a146101595780633b9b795514610154578063438596321461014f57806365153c4b1461014a5780638da5cb5b1461014557806398e527d314610140578063995e43391461013b578063a1f7f53914610136578063af48452614610131578063b90306ad1461012c578063c54e44b014610127578063c7f758a814610122578063c9d27afe1461011d578063d153356b14610118578063d3a3084914610113578063e01ad5fd1461010e578063e0a9bc2b146101095763fdc10bc90361000e57610f59565b610f3e565b610f17565b610ccf565b610c00565b610aaa565b610a3b565b610961565b6108ae565b6107ac565b610789565b610705565b6106e7565b6106be565b6105cd565b610571565b610548565b6104f8565b6104c7565b61049a565b6103e6565b60055481101561018c576005600052600b602060002091020190600090565b634e487b7160e01b600052603260045260246000fd5b90600182811c921680156101d2575b60208310146101bc57565b634e487b7160e01b600052602260045260246000fd5b91607f16916101b1565b90600092918054916101ed836101a2565b91828252600193848116908160001461024f575060011461020f575b50505050565b90919394506000526020928360002092846000945b83861061023b575050505001019038808080610209565b805485870183015294019385908201610224565b9294505050602093945060ff191683830152151560051b01019038808080610209565b634e487b7160e01b600052604160045260246000fd5b602081019081106001600160401b038211176102a357604052565b610272565b604081019081106001600160401b038211176102a357604052565b601f909101601f19168101906001600160401b038211908210176102a357604052565b906103016102fa92604051938480926101dc565b03836102c3565b565b60005b8381106103165750506000910152565b8181015183820152602001610306565b9060209161033f81518092818552858086019101610303565b601f01601f1916010190565b98929561039e959e9d9b956103de99936101809c966103019f9a949960408e61037f6103d49d6101a0808452830190610326565b6001600160a01b03909516602082015201528c820360608e0152610326565b60808b019f909f5260a08a015260c089015260e088015261010087015215156101208601526001600160a01b0316610140850152565b1515610160830152565b019015159052565b34610495576020366003190112610495576004356005548110156104955761040d9061016d565b5060405190610420826102fa81846101dc565b600181015460028201546001600160a01b039182169390926104919290610449600382016102e6565b9560048201549160058101546006820154600783015491600a6008850154940154956040519b8c9b8c9760ff8a60b01c169b60ff808c60a81c169c8c60081c169b169961034b565b0390f35b600080fd5b3461049557600036600319011261049557602047604051908152f35b6001600160a01b0381160361049557565b346104955760203660031901126104955760206104ee6004356104e9816104b6565b6115ec565b6040519015158152f35b3461049557602036600319011261049557600435600019810190811161053057600561052560209261016d565b500154604051908152f35b61108f565b6001600160a01b03909116815260200190565b34610495576000366003190112610495576000546040516001600160a01b039091168152602090f35b3461049557604036600319011261049557600435602435610591816104b6565b6000198201918211610530576105b760ff9160096105b060209561016d565b50016111ea565b54166040519015158152f35b8015150361049557565b34610495576040366003190112610495576004356024356105ed816105c3565b6105f6336115ec565b15610684576000198201918083116105305761067f6106176100169461016d565b5061063260ff61062a33600985016111ea565b541615611201565b61066b600a8201549161064b60ff8460b01c16156111a6565b61065760ff8416611127565b6007610661611686565b9101541115611282565b60081c6001600160a01b0316331415611241565b6112d3565b60405162461bcd60e51b815260206004820152601260248201527137bbb71734b73b30b634b21739b4b3b732b960711b6044820152606490fd5b34610495576000366003190112610495576001546040516001600160a01b039091168152602090f35b34610495576000366003190112610495576020600554604051908152f35b346104955760203660031901126104955760043560001981019081116105305761072e9061016d565b506004810154600682015460078301546008840154600a9094015460408051948552602085019390935291830152606082019290925260ff60a883901c81161515608083015260b09290921c909116151560a082015260c090f35b346104955760003660031901126104955760206107a46117ee565b604051908152f35b3461049557602080600319360112610495576004908135906107cd826104b6565b60005481906001600160a01b0316604051634bf9c0ad60e11b815294859182905afa9182156108a95761082061085a9361083c9261049196600092610876575b5061082e90604051938491878301610535565b03601f1981018452836102c3565b610836611500565b9061197f565b91908061086c575b61084d90611531565b808251830101910161143d565b60405190151581529081906020820190565b5081518114610844565b61082e91925061089b90863d88116108a2575b61089381836102c3565b8101906113b6565b919061080d565b503d610889565b6113ce565b3461049557602036600319011261049557600054604051630536340960e21b8152906001600160a01b03906020908390600490829085165afa9182156108a957600092610941575b503391160361090a576100166004356118ae565b60405162461bcd60e51b815260206004820152600f60248201526e6f776e2e6e6f6e617574682e44414f60881b6044820152606490fd5b61095a91925060203d81116108a25761089381836102c3565b90386108f6565b346104955760203660031901126104955760043561097e816104b6565b803b600061098b826113da565b9261099960405194856102c3565b82845260208401903c602d8151106109c257602a61049191015160601c60405191829182610535565b60405162461bcd60e51b81526020600482015260136024820152724e6f742061206d696e696d616c2070726f787960681b6044820152606490fd5b93610a166080949796939260a0875260a0870190610326565b6001600160a01b03928316602087015260408601979097521660608401521515910152565b3461049557602036600319011261049557600435600019810190811161053057610a649061016d565b5060018060a01b0361049181600184015416926102fa6002820154610a94600a84015493604051938480926101dc565b60405195869560ff85169460081c1692866109fd565b3461049557604036600319011261049557600435602435610aca816105c3565b610ad3336115ec565b8015610bdd575b610ae3906110d3565b610bb2610ba5610afa610af585611118565b61016d565b50600a81015490610b0d60ff8316611127565b610b246007820154610b1d611686565b1115611167565b610b3460ff8360b01c16156111a6565b610b5f600982019261066b610b5a610b56610b4f33886111ea565b5460ff1690565b1590565b611201565b60008515610bd8575060015b610b7d60ff60048401921682546110c6565b9055600085610bca5750610b9c60ff60066001935b01921682546110c6565b905533906111ea565b805460ff19166001179055565b610bbb336115ec565b610bc157005b610016916112d3565b60ff6006610b9c9293610b92565b610b6b565b50610be6611452565b8015610ada5750610ae3610bf933611711565b9050610ada565b3461049557604036600319011261049557610c19611452565b15610c6857333003610c3357600480356003556024359055005b60405162461bcd60e51b815260206004820152600d60248201526c64616f2e66616b652e636f726560981b6044820152606490fd5b60405162461bcd60e51b81526020600482015260126024820152716f776e2e696e76616c69642e69735361666560701b6044820152606490fd5b9181601f84011215610495578235916001600160401b038311610495576020838186019501011161049557565b346104955760a0366003190112610495576001600160401b0360043581811161049557610d00903690600401610ca2565b602435610d0c816104b6565b60643584811161049557610d24903690600401610ca2565b9390926001600160a01b03831615610edd5760055491600160401b8310156102a357610d5760019384810160055561016d565b509682116102a357610d7382610d6d89546101a2565b89610f74565b600090601f8311600114610e635793600a969383610e4a999794610dd294610de398600092610e58575b5050600019600383901b1c191690821b1787555b860180546001600160a01b0319166001600160a01b03909216919091179055565b604435600285015560038401610fc8565b610e09610e02610dfd610df46117ee565b600354906110a5565b6110b8565b6064900490565b6008820155610e21608435610e1c611686565b6110c6565b6007820155018054610100600160a81b0319163360081b610100600160a81b0316178155610ba5565b600554604051908152602090f35b013590503880610d9d565b601f19831691610e7889600052602060002090565b92815b818110610ec757509484610dd294610de398948394610e4a9d9b98600a9d9a10610ead575b505050811b018755610db1565b0135600019600384901b60f8161c19169055388080610ea0565b8383013585559386019360209283019201610e7b565b60405162461bcd60e51b815260206004820152601260248201527137bbb7173232b330bab63a1739b2b73232b960711b6044820152606490fd5b346104955760203660031901126104955760206104ee600435610f39816104b6565b611711565b346104955760003660031901126104955760206104ee611452565b346104955760003660031901126104955760206107a4611686565b90601f8111610f8257505050565b600091825260208220906020601f850160051c83019410610fbe575b601f0160051c01915b828110610fb357505050565b818155600101610fa7565b9092508290610f9e565b9092916001600160401b0381116102a357610fed81610fe784546101a2565b84610f74565b6000601f8211600114611027578192939460009261101c575b50508160011b916000199060031b1c1916179055565b013590503880611006565b601f1982169461103c84600052602060002090565b91805b87811061107757508360019596971061105d575b505050811b019055565b0135600019600384901b60f8161c19169055388080611053565b9092602060018192868601358155019401910161103f565b634e487b7160e01b600052601160045260246000fd5b8181029291811591840414171561053057565b906063820180921161053057565b9190820180921161053057565b156110da57565b60405162461bcd60e51b815260206004820152601660248201527564616f2e6e6f6e617574682e64656c656761746f727360501b6044820152606490fd5b60001981019190821161053057565b1561112e57565b60405162461bcd60e51b815260206004820152601160248201527019185bcb9c1c9bdc0b9b9bdd195e1a5cdd607a1b6044820152606490fd5b1561116e57565b60405162461bcd60e51b815260206004820152601060248201526f19185bcb9d9bdd1a5b99cb995b99195960821b6044820152606490fd5b156111ad57565b60405162461bcd60e51b815260206004820152601560248201527419185bcb985b1c9958591e4b98dbdb5c1b195d1959605a1b6044820152606490fd5b9060018060a01b0316600052602052604060002090565b1561120857565b60405162461bcd60e51b815260206004820152601160248201527019185bcb985b1c9958591e4b9d9bdd1959607a1b6044820152606490fd5b1561124857565b60405162461bcd60e51b815260206004820152601260248201527119185bcb9d9bdd195c8b9c995cdd1c9a58dd60721b6044820152606490fd5b1561128957565b60405162461bcd60e51b815260206004820152601360248201527264616f2e6265666f72652e646561646c696e6560681b6044820152606490fd5b60001981146105305760010190565b610af56112df91611118565b50600581016112ee81546112c4565b8091556004541480156113ae575b611304575050565b600a8101805460ff60b01b1916600160b01b17815561136e92611349918161139b575b8161137157805460ff60a81b191691151560a81b60ff60a81b16919091179055565b60018101546001600160a01b03166113686003600284015493016102e6565b90611a6c565b50565b60048401546006850154109150805460ff60a81b191691151560a81b60ff60a81b16919091179055565b6004840154600885015411159150611327565b5081156112fc565b9081602091031261049557516113cb816104b6565b90565b6040513d6000823e3d90fd5b6001600160401b0381116102a357601f01601f191660200190565b156113fc57565b60405162461bcd60e51b81526020600482015260196024820152781bdddb8b9cd8599959dd585c990b98d85b1b0b99985a5b1959603a1b6044820152606490fd5b9081602091031261049557516113cb816105c3565b600054604051634bf9c0ad60e11b8152906020908190839060049082906001600160a01b03165afa9182156108a9576113cb926114c8916000916114e3575b5060405161149e816102a8565b6008815267697353616665282960c01b84820152604051916114bf83610288565b6000835261197f565b9190806114d9575b61084d906113f5565b50815181146114d0565b6114fa9150833d85116108a25761089381836102c3565b38611491565b6040519061150d826102a8565b601582527469735365637572654261736528616464726573732960581b6020830152565b1561153857565b60405162461bcd60e51b815260206004820152601a6024820152791bdddb8b9cd958dd5c9958985cd94b98d85b1b0b99985a5b195960321b6044820152606490fd5b60405190611587826102a8565b601182527069735369676e657228616464726573732960781b6020830152565b156115ae57565b60405162461bcd60e51b81526020600482015260166024820152751bdddb8b9cda59db995c8b98d85b1b0b99985a5b195960521b6044820152606490fd5b6000546001600160a01b0316604051918291634bf9c0ad60e11b835282600460209485935afa9283156108a9576113cb936116489261082092600092611663575b5061164090604051938491878301610535565b61083661157a565b919080611659575b61084d906115a7565b5081518114611650565b61164091925061167f90863d88116108a25761089381836102c3565b919061162d565b60005460405163111ea8c160e21b815290602090829060049082906001600160a01b03165afa80156108a9576113cb916000916116f3575b506040516116cb816102a8565b6005815264616765282960d81b6020820152604051916116ea83610288565b600083526119fd565b61170b915060203d81116108a25761089381836102c3565b386116be565b60005460405163d1f956b160e01b8152916020916001600160a01b039083908590600490829085165afa9384156108a9576000946117c9575b5060405191168282015281815261179c90611764816102a8565b604051611770816102a8565b6018815277697364656c656761746f724e6f646528616464726573732960401b8482015260009461197f565b9190806117bf575b6117ad57505090565b6113cb9250808251830101910161143d565b50808251146117a4565b61179c929194506117e690843d86116108a25761089381836102c3565b93909161174a565b60005460405163d1f956b160e01b815290602090829060049082906001600160a01b03165afa80156108a9576113cb91600091611860575b50604051611833816102a8565b601381527267657464656c656761746f72436f756e74282960681b6020820152604051916116ea83610288565b611878915060203d81116108a25761089381836102c3565b38611826565b3d156118a9573d9061188f826113da565b9161189d60405193846102c3565b82523d6000602084013e565b606090565b600080546040516311be646b60e21b815290602090829060049082906001600160a01b03165afa9081156108a9578284819382938391611961575b505af16118f461187e565b501561192a5760405190815233907fcdcc745fe377b103b45fa0cec23ae3ef93d6fc6a84a01f0d18c40b354dd1d5d890602090a2565b60405162461bcd60e51b815260206004820152600f60248201526e1bdddb8b989d5c9b8b99985a5b1959608a1b6044820152606490fd5b611979915060203d81116108a25761089381836102c3565b386118e9565b803b156119e457600092839263ffffffff60e01b906020815191012016906119d160246040518093602082019586526119c18151809260208686019101610303565b81010360048101845201826102c3565b5191620dbba0fa6119e061187e565b9091565b5050506000906040516119f681610288565b6000815290565b9291611a0b9160009461197f565b9080611a30575b611a195750565b909150602081805181010312610495576020015190565b506020815114611a12565b906020825192015163ffffffff60e01b908181169360048110611a5d57505050565b60040360031b82901b16169150565b9091906001600160a01b03811615611af157600091829184519160208601915af190611a9661187e565b9115611aa0575090565b805160009190600411611aeb57611ab79150611a3b565b815115611ac75750805190602001fd5b604051630870274d60e21b81526001600160e01b0319919091166004820152602490fd5b50611ab7565b60405162461bcd60e51b81526020600482015260126024820152711bdddb8b9a5b9d985b1a590b9d185c99d95d60721b6044820152606490fdfea2646970667358221220eaa4680e0b6afd6a18b40210724a0e7393ed755f347bf4aaf60440aa281a762864736f6c63430008140033608034620000d157601f62004b1338819003918201601f19168301916001600160401b03831184841017620000d657808492602094604052833981010312620000d157516001600160a01b03811690819003620000d15780156200008c5760018060a01b03193381600154161760015560005416176000556001600355604051614a269081620000ed8239f35b60405162461bcd60e51b815260206004820152601360248201527f6f776e2e696e76616c69642e68657862617365000000000000000000000000006044820152606490fd5b600080fd5b634e487b7160e01b600052604160045260246000fdfe60806040526004361015610018575b361561001657005b005b60003560e01c80629db65514610337578063033eeffb146103325780630e5fd00b1461032d57806312065fe0146103285780631bb49f02146103235780631c53c2801461031e5780631f185d16146103195780632a687c87146103145780632fefc0bf1461030f578063307673e81461030a57806332ff4eab1461030557806333b59a5b146103005780633a7b55b8146102fb5780633b9b7955146102f65780633baee0ea146102f1578063419cb27b146102ec57806342cc9d57146102e757806344585097146102e25780634f0f4aa9146102dd578063509222cd146102d857806350db85d1146102d357806361ea7208146102ce578063629d671e146102c957806365d2fbd3146102c45780636a811244146102bf57806376fe6c45146102ba5780637bb98498146102b557806380f85e33146102b0578063849c22ad146102ab578063896c354a146102a65780638da5cb5b146102a157806395f72f491461029c57806398b3f21514610297578063a1f7f53914610292578063a89d693b1461028d578063af48452614610288578063b1c4907914610283578063b366335e1461027e578063b90306ad14610279578063c54e44b014610274578063c871372b1461026f578063d1e0bbc61461026a578063dcb3fc4a14610265578063e01ad5fd14610260578063e0a9bc2b1461025b578063eb95c66214610256578063eb9e9e2c14610251578063f3ca71241461024c578063fd38093b146102475763fdc10bc90361000e57612590565b612522565b6124f6565b61234b565b61231f565b612304565b612265565b6120c6565b61208c565b61200f565b611f73565b611ec0565b611e16565b611ce4565b611cbd565b611bf6565b611b10565b611ae4565b611a3a565b611a11565b6119d1565b6119a2565b611968565b6118be565b61186f565b6113f7565b611193565b611156565b61111e565b611066565b611013565b610f4a565b610f13565b610ee4565b610ebc565b610b54565b610b03565b6109e4565b61090c565b610862565b6107b7565b610780565b6106d6565b6105e3565b6105af565b6104da565b6104a5565b610456565b6103fa565b346103f55760203660031901126103f5576103586103536143a2565b6128be565b610361336144ca565b8015610379575b61037190612920565b610016613dd4565b50600054604051630536340960e21b8152906001600160a01b03906020908390600490829085165afa9081156103f057610371926000926103c0575b501633149050610368565b6103e291925060203d81116103e9575b6103da818361263a565b8101906128ff565b90386103b5565b503d6103d0565b612914565b600080fd5b346103f55760203660031901126103f557600435600052600b6020526020604060002054604051908152f35b6001600160a01b031690565b6001600160a01b038116036103f557565b6001600160a01b03909116815260200190565b346103f55760203660031901126103f557602060043561047581610432565b60018060a01b03809116600052600482526040600020546000526007825260046040600020015416604051908152f35b346103f55760003660031901126103f557602047604051908152f35b9081526001600160a01b03909116602082015260400190565b346103f55760203660031901126103f5576004356104f781610432565b60018060a01b038060009216825260046020526040822054825260076020526040600281842001549283815260056020522054169061053b604051928392836104c1565b0390f35b6000526010602052604060002090565b6000526009602052604060002090565b6000526007602052604060002090565b6000526005602052604060002090565b6000526008602052604060002090565b600052600a602052604060002090565b600052600b602052604060002090565b346103f55760203660031901126103f5576004356000526005602052602060018060a01b0360406000205416604051908152f35b346103f5576020806003193601126103f55760049081359061060482610432565b80610618610613600054610426565b610426565b604051634bf9c0ad60e11b815294859182905afa9182156103f05761065d610697936106799261053b966000926106b3575b5061066b90604051938491878301610443565b03601f19810184528361263a565b61067361456d565b906147ca565b9190806106a9575b61068a9061459a565b808251830101910161438e565b60405190151581529081906020820190565b5081518114610681565b61066b9192506106cf90863d88116103e9576103da818361263a565b919061064a565b346103f55760403660031901126103f5576106f26103536143a2565b6106fb336144ca565b8015610719575b61070b90612920565b610016602435600435614149565b50600054604051630536340960e21b8152906001600160a01b03906020908390600490829085165afa9081156103f05761070b92600092610760575b501633149050610702565b61077991925060203d81116103e9576103da818361263a565b9038610755565b346103f55760203660031901126103f5576004356000526007602052602060018060a01b0360056040600020015416604051908152f35b346103f55760203660031901126103f55760043560009033825260046020526107eb6107e6604084205461405c565b613210565b808252601060205260ff600260408420015460081c1615610827576108126108249161053f565b60026000918281558260018201550155565b80f35b60405162461bcd60e51b81526020600482015260136024820152721b995cdd19590b9c995c4b9b9bdd195e1a5cdd606a1b6044820152606490fd5b346103f55760403660031901126103f55761087e6103536143a2565b610887336144ca565b80156108a5575b61089790612920565b61001660243560043561419d565b50600054604051630536340960e21b8152906001600160a01b03906020908390600490829085165afa9081156103f057610897926000926108ec575b50163314905061088e565b61090591925060203d81116103e9576103da818361263a565b90386108e1565b346103f55760403660031901126103f5576109286103536143a2565b610931336144ca565b801561094f575b61094190612920565b610016602435600435614230565b50600054604051630536340960e21b8152906001600160a01b03906020908390600490829085165afa9081156103f05761094192600092610996575b501633149050610938565b6109af91925060203d81116103e9576103da818361263a565b903861098b565b60e0810192916000915b600783106109cd57505050565b6001908251815260208091019201920191906109c0565b346103f55760203660031901126103f55761053b600435610af1610ae160405192610a0e846125e9565b60e0368537610a2f610a1f8261054f565b6001600052602052604060002090565b548452610a4e610a3e8261054f565b6002600052602052604060002090565b546020850152610a70610a608261054f565b6003600052602052604060002090565b546040850152610a92610a828261054f565b6004600052602052604060002090565b546060850152610ab4610aa48261054f565b6005600052602052604060002090565b546080850152610ad6610ac68261054f565b6006600052602052604060002090565b5460a085015261054f565b6007600052602052604060002090565b5460c0820152604051918291826109b6565b346103f55760003660031901126103f5576000546040516001600160a01b039091168152602090f35b60409060031901126103f557600435610b4481610432565b90602435610b5181610432565b90565b346103f557610bb3610b6536610b2c565b610b6d61289b565b610b86610b7861268b565b610b806126a3565b33614848565b91610bcc610b9d610b9561268b565b610b806126c6565b6001600160a01b039584871695871686146126ee565b85610bc46106138260005416610426565b911614612734565b610bd783151561309b565b610be08261113c565b54158015610eb1575b610bf2906130dd565b610c06610bfe8261113c565b541515613120565b610c236005610c1d610c178461113c565b5461055f565b016127c0565b92604094855194610c6360209663880cdc3160e01b8882015280610c4a8860248301610443565b0392610c5e601f199485810184528361263a565b614935565b50610c786106136004610c1d610c178861113c565b15610d8c57610d1995610cc291610c5e610c996004610c1d610c178a61113c565b918a519362e6724f60e21b9085015283610cb63360248301610443565b0390810184528361263a565b505b610ccd8361113c565b54610cd78561113c565b55610cf384610cee610ce88661113c565b5461056f565b612d4f565b610d0b336004610d05610c178861113c565b01612d4f565b821603610d7a575b5061113c565b5461053b610d2b6005610c1d8461055f565b92610d49610d446002610d3d8661055f565b015461056f565b6127c0565b90610d546001600355565b519283526001600160a01b03938416602084015290921660408201529081906060820190565b610d8560009161113c565b5538610d13565b85600496610d9e610613600054610426565b895163111ea8c160e21b815298899182905afa9687156103f057610d1997610df691600091610e94575b50895190610de882610ddc8a878301610443565b0386810184528361263a565b610df0613166565b90614848565b838116151580610e8a575b610e0e575b505050610cc4565b610c5e610e8193610e498b51634fb2e45d60e01b86820152610e4381610e373360248301610443565b0384810183528261263a565b84614935565b508a5193630a3e884b60e41b9085015283610cb660248201906007606060808401936000815260006020820152600060408201520152565b50388080610e06565b5080311515610e01565b610eab9150833d85116103e9576103da818361263a565b38610dc8565b508084168314610be9565b346103f55760203660031901126103f5576020610eda60043561405c565b6040519015158152f35b346103f55760203660031901126103f55760043560005260076020526020600360406000200154604051908152f35b346103f55760203660031901126103f5576004356000526007602052602060018060a01b0360046040600020015416604051908152f35b346103f55760203660031901126103f557600435806000526007602052604060002054600560205261053b60018060a01b0380604060002054169360076020526040600020916004600284015493015416610fa96005610c1d8461055f565b906003610fcb610fc56001610fbd8761055f565b015460ff1690565b9461055f565b0154604080519788526001600160a01b03988916602089015287019490945286166060860152909416608084015292151560a083015260c082019290925290819060e0820190565b346103f55760203660031901126103f55760043561103081610432565b60018060a01b031660005260046020526040600020546000526007602052602060ff600160406000200154166040519015158152f35b346103f55761107436610b2c565b61107f6103536143a2565b611088336144ca565b80156110b1575b9161109c6110a193612920565b61296a565b9061053b604051928392836104c1565b50600054604051630536340960e21b81526001600160a01b0393916020908290600490829088165afa80156103f0576110a19461109c926000926110fe575b50339116149193505061108f565b61111791925060203d81116103e9576103da818361263a565b90386110f0565b346103f55760003660031901126103f5576020600654604051908152f35b6001600160a01b0316600090815260046020526040902090565b346103f55760203660031901126103f55760043561117381610432565b60018060a01b031660005260046020526020604060002054604051908152f35b346103f55760203660031901126103f55760043560016111be6111b982610fbd8561055f565b612ff7565b6111c78261053f565b906002908183019260ff8454818160081c16806113dd575b6111e8906134e6565b60101c1661133c5750611207826111fe8661055f565b01541515613572565b6000815b61124c575b50506000906112396100169461123461122e865460ff9060101c1690565b82613609565b61055f565b0155805462ff0000191662010000179055565b6003806112638561125c8961055f565b015461055f565b0154821015611336578561129261128884846112828961125c8761055f565b01612ef8565b90549060031b1c90565b146112a757506112a190612d40565b8161120b565b8392509461132c86611319611239946113006112f16112886100169c6112d260009c61125c8b61055f565b016112eb876112e48d61125c8d61055f565b0154612acd565b90612ef8565b91846112828a61125c8a61055f565b90919082549060031b91821b91600019901b1916179055565b6113268561125c8561055f565b016135bc565b9450819250611210565b50611210565b8261139d6113976108129661138d8960036113876113d79961065d996113716100169f9d6113698761055f565b01541561352b565b0197885480916113808661055f565b015561055f565b01612f15565b5460101c60ff1690565b85613609565b610c5e6113bb610d446113b46004610c1d8961055f565b935461056f565b604051630a4ce2c960e11b602082015293849160248301610443565b5061053f565b508082166111df565b908152602081019190915260400190565b346103f5576040806003193601126103f5576004803561141561289b565b6114266111b96001610fbd8461055f565b61144061143961061384610c1d8561055f565b3314613195565b611448612b2f565b6114566005610c1d8361055f565b6002549084516114a461149660209263015042f960e11b848201528061148260249788358984016113e6565b0394610c5e601f199687810184528361263a565b8280825183010191016138ee565b9485805194886114b98584019788519061288e565b966114c98285019889519061288e565b6114d9606086019182519061288e565b9186886114ec608089019586519061288e565b956114fd60a08a019788519061288e565b9861151661151160c083019b8c519061288e565b6140ef565b516117e7575b8351611754575b5050505080516116c3575b508051611633575b50805115801590611629575b611579575b898961053b6101208a6115608d610100860151906139a9565b519201519261156f6001600355565b51928392836113e6565b8461158e61061360009a969799989a54610426565b8b51635e09dbe760e01b815296879182905afa80156103f05761053b98610120988c6115f196611560996000956115fc575b50906115d7610cb692610c5e96975190519061288e565b905196879363a9059cbb60e01b90850152339084016131f5565b509382933880611547565b610c5e9550610cb6929161161f6115d792863d88116103e9576103da818361263a565b96509192506115c0565b5082511515611542565b8486611643610613600054610426565b8d516313b92d3560e31b815292839182905afa9182156103f05761169b928d61168f936000926116a2575b50610c5e919251905193849163a9059cbb60e01b8c840152338984016131f5565b038a810184528361263a565b5038611536565b610c5e92506116bd908b3d8d116103e9576103da818361263a565b9161166e565b85878d6116d4610613600054610426565b9051635506ee0b60e11b815292839182905afa9182156103f05761172c928e61172093600092611733575b50610c5e919251905193849163a9059cbb60e01b8d840152338a84016131f5565b038b810184528361263a565b503861152e565b610c5e925061174e908c8d3d106103e9576103da818361263a565b916116ff565b611762610613600054610426565b90516330125cf560e01b815292839182905afa9182156103f0576117bc928f6117b0936000926117c6575b509151915163a9059cbb60e01b8c820152929091610c5e918491338b84016131f5565b038c810184528361263a565b503886888e611523565b610c5e92506117e1908d803d106103e9576103da818361263a565b9161178d565b6117f5610613600054610426565b9051636402742760e01b815292839182905afa80156103f0578e6118468f8c938e918d9660009261184c575b50610c5e9051928c610cb6875195869263a9059cbb60e01b8b850152339084016131f5565b5061151c565b610c5e91925061186890873d89116103e9576103da818361263a565b9190611821565b346103f55760203660031901126103f557602060043561188e81610432565b60018060a01b03809116600052600482526040600020546000526007825260056040600020015416604051908152f35b346103f55760403660031901126103f5576118da6103536143a2565b6118e3336144ca565b8015611901575b6118f390612920565b610016602435600435613411565b50600054604051630536340960e21b8152906001600160a01b03906020908390600490829085165afa9081156103f0576118f392600092611948575b5016331490506118ea565b61196191925060203d81116103e9576103da818361263a565b903861193d565b346103f55760403660031901126103f557600435600052600860205260406000206024356000526020526020604060002054604051908152f35b346103f55760203660031901126103f55760043560005260076020526020600260406000200154604051908152f35b346103f55760403660031901126103f55760043560005260076020526020611a026024356003604060002001612ef8565b90549060031b1c604051908152f35b346103f55760003660031901126103f5576001546040516001600160a01b039091168152602090f35b346103f55760403660031901126103f557611a566103536143a2565b611a5f336144ca565b8015611a7d575b611a6f90612920565b610016602435600435614173565b50600054604051630536340960e21b8152906001600160a01b03906020908390600490829085165afa9081156103f057611a6f92600092611ac4575b501633149050611a66565b611add91925060203d81116103e9576103da818361263a565b9038611ab9565b346103f55760203660031901126103f557600435600052600f6020526020604060002054604051908152f35b346103f55760003660031901126103f55760005460405163d1f956b160e01b815290602090829060049082906001600160a01b03165afa9081156103f05761053b91611b9991600091611ba9575b50604051611b6b81612604565b601381527267657464656c656761746f72436f756e74282960681b6020820152611b93612678565b916148c8565b6040519081529081906020820190565b611bc1915060203d81116103e9576103da818361263a565b38611b5e565b610100810192916000915b60088310611bdf57505050565b600190825181526020809101920192019190611bd2565b346103f55760203660031901126103f55761053b600435611cab610ae1611c1b614073565b92611c37611c288261057f565b60008052602052604060002090565b548452611c46610a1f8261057f565b546020850152611c58610a3e8261057f565b546040850152611c6a610a608261057f565b546060850152611c7c610a828261057f565b546080850152611c8e610aa48261057f565b5460a0850152611ca0610ac68261057f565b5460c085015261057f565b5460e082015260405191829182611bc7565b346103f55760203660031901126103f5576020610eda600435611cdf81610432565b6144ca565b346103f557611dc3611cf536610b2c565b90611cfe61289b565b611d40611d0c610b7861268b565b611d17610b9561268b565b906001600160a01b0390611d30908216868316146126ee565b610bc46106138260005416610426565b611d59611d546001610fbd610c178561113c565b612779565b611db4611daa611d9b611d736005610c1d610c178761113c565b60405190611d8d8261065d60208201906000602083019252565b611d956127cd565b9061479f565b602080825183010191016127fb565b505050151561281d565b611dbc612ae9565b3390612d90565b611dd1611c2860025461057f565b611ddb815461287b565b9055611de561411b565b611df36005610c1d8361055f565b90611dfd8161303b565b611e076001600355565b61053b604051928392836104c1565b346103f55760203660031901126103f557611e326103536143a2565b611e3b336144ca565b8015611e56575b611e4b90612920565b610016600435612b72565b5060046020611e69610613600054610426565b604051630536340960e21b815292839182905afa80156103f057611e4b91600091611ea2575b506001600160a01b031633149050611e42565b611eba915060203d81116103e9576103da818361263a565b38611e8f565b346103f55760203660031901126103f557600054604051630536340960e21b8152906001600160a01b03906020908390600490829085165afa9182156103f057600092611f53575b5033911603611f1c576100166004356146ce565b60405162461bcd60e51b815260206004820152600f60248201526e6f776e2e6e6f6e617574682e44414f60881b6044820152606490fd5b611f6c91925060203d81116103e9576103da818361263a565b9038611f08565b346103f55760203660031901126103f557600435611f9081610432565b803b6000611f9d8261265d565b92611fab604051948561263a565b82845260208401903c602d815110611fd457602a61053b91015160601c60405191829182610443565b60405162461bcd60e51b81526020600482015260136024820152724e6f742061206d696e696d616c2070726f787960681b6044820152606490fd5b60403660031901126103f55760043561202661289b565b600090808252600760205261204460ff600160408520015416612ff7565b8152600760205261208360018060a01b036005604084200154166040519062a0e53360e51b6020830152602435602483015260248252610c5e826125c9565b50600160035580f35b346103f55760403660031901126103f557600435600052600a60205260406000206024356000526020526020604060002054604051908152f35b346103f55760c03660031901126103f5576024356004356120e682610432565b60643590608435906120f661289b565b6121076111b96001610fbd8461055f565b61211b6114396106136004610c1d8561055f565b612123612b2f565b61212c82614097565b612135836140c3565b6121bd6121af61219b61214c6005610c1d8661055f565b604051634996516b60e11b6020808301919091526001600160a01b039099166024820152604480359082015260648101889052608481019690965260a4803590870152969490819060c4820190565b0396610c5e601f199889810184528361263a565b8380825183010191016131df565b92816121da575b50506121d09350613be2565b6100166001600355565b90816004926121ed610613600054610426565b604051635e09dbe760e01b815294859182905afa80156103f0576121d09761223c94600092612244575b50610c5e9192610cb660405195869263a9059cbb60e01b9084015233602484016131f5565b5038806121c4565b610c5e925061225f90843d86116103e9576103da818361263a565b91612217565b346103f5576020806003193601126103f5576004803561228481610432565b60005460405163d1f956b160e01b81526001600160a01b03949093909182918591829088165afa9081156103f05761053b94610697946000936122e5575b5060405193168184015282526122d782612604565b6122df61466a565b9061488c565b6122fd919350823d84116103e9576103da818361263a565b91386122c2565b346103f55760003660031901126103f5576020610eda6143a2565b346103f55760203660031901126103f557600435600052600c6020526020604060002054604051908152f35b346103f55760403660031901126103f5576024356004356123776107e66123713361113c565b5461405c565b6123886111b96001610fbd8461055f565b61239e6123996001610fbd8561055f565b613254565b6123ac6005610c1d8461055f565b6004836040516123f2611daa6123e4602093806123d0868201906000602083019252565b0397611d8d601f19998a810184528361263a565b8380825183010191016127fb565b6123fb8561053f565b9361244c600286019661242261241d6124198a5460ff9060081c1690565b1590565b613298565b612440604051998a92630f77309360e31b87850152602484016113e6565b0382810189528861263a565b8161245b610613600054610426565b604051630536340960e21b815295869182905afa9384156103f057610016976124c4956124b193610cb6936000926124d5575b5060405163d3a3084960e01b87820152939192610c5e9285913060248401613301565b916001850155808251830101910161338e565b9055805461ff001916610100179055565b610c5e92506124f090873d89116103e9576103da818361263a565b9161248e565b346103f55760203660031901126103f557600435600052600e6020526020604060002054604051908152f35b346103f5576040806003193601126103f55760043561254081610432565b60018060a01b031661053b8260008381526004602052818120548152600b602052818120549381526004602052818120548152600a602052818120602435825260205220549251928392836113e6565b346103f55760003660031901126103f55760206125ab6145df565b604051908152f35b634e487b7160e01b600052604160045260246000fd5b606081019081106001600160401b038211176125e457604052565b6125b3565b60e081019081106001600160401b038211176125e457604052565b604081019081106001600160401b038211176125e457604052565b602081019081106001600160401b038211176125e457604052565b601f909101601f19168101906001600160401b038211908210176125e457604052565b6001600160401b0381116125e457601f01601f191660200190565b604051906126858261261f565b60008252565b6040516126978161261f565b60008152906000368137565b604051906126b082612604565b60078252666f776e6572282960c81b6020830152565b604051906126d382612604565b600c82526b67657448657862617365282960a01b6020830152565b156126f557565b60405162461bcd60e51b81526020600482015260176024820152766e65737465642e696e76616c69642e696e7374616e636560481b6044820152606490fd5b1561273b57565b60405162461bcd60e51b81526020600482015260166024820152756e65737465642e696e76616c69642e6865786261736560501b6044820152606490fd5b1561278057565b60405162461bcd60e51b81526020600482015260186024820152776e65737465642e706172656e742e6e6f742e65786973747360401b6044820152606490fd5b546001600160a01b031690565b604051906127da82612604565b60128252716765744e6f64654c422875696e743235362960701b6020830152565b91908260809103126103f5578151916020810151916060604083015192015190565b1561282457565b60405162461bcd60e51b81526020600482015260196024820152786e65737465642e706172656e742e6e6f2e627573696e65737360381b6044820152606490fd5b634e487b7160e01b600052601160045260246000fd5b906001820180921161288957565b612865565b9190820180921161288957565b6002600354146128ac576002600355565b604051633ee5aeb560e01b8152600490fd5b156128c557565b60405162461bcd60e51b81526020600482015260126024820152716f776e2e696e76616c69642e69735361666560701b6044820152606490fd5b908160209103126103f55751610b5181610432565b6040513d6000823e3d90fd5b1561292757565b60405162461bcd60e51b815260206004820152601b60248201527a6f776e2e6e6f6e617574682e44414f6f725365637572656261736560281b6044820152606490fd5b6129cf92916129d560049261297d61289b565b6129996129946124196001610fbd610c178861113c565b612cfc565b6129ac6129a7600654612d40565b600655565b6006549586916129bf85610cee8561056f565b826129c98661113c565b5561113c565b54612f38565b6129f3826129e28661055f565b0180546001600160a01b0319169055565b6020612a03610613600054610426565b60405163e09d394d60e01b815293849182905afa80156103f057612a36612a4191612a8094600091612aaf575b50612e7a565b6005610d058761055f565b612a4f6005610c1d8661055f565b610c5e612a60610613600054610426565b61065d876040519586936352902c5960e01b602086015260248501612d6e565b506000828152600760205260409020600501546001600160a01b031691612aa68161303b565b91906001600355565b612ac7915060203d81116103e9576103da818361263a565b38612a30565b60001981019190821161288957565b9190820391821161288957565b612af16145df565b60025410612b09575b612b076005600254612bbb565b565b612b116145df565b80600255600019810190811161288957612b2a90613f33565b612afa565b612b376145df565b60025410612b4c575b612b0760028054612bbb565b612b546145df565b80600255600019810190811161288957612b6d90613f33565b612b40565b612b7a6145df565b60025410612b8f575b612b0790600254612bbb565b612b976145df565b9081600255600019820191821161288957612bb4612b0792613f33565b9050612b83565b90612bc8611c288361057f565b541580612cf2575b80612ce9575b612bde575050565b612bfa90612bf4612bee84612acd565b91612acd565b90612bbb565b612c0e611c28612c0983612acd565b61057f565b54612c1b611c288361057f565b55612c2b610a1f612c0983612acd565b54612c38610a1f8361057f565b55612c48610a3e612c0983612acd565b54612c55610a3e8361057f565b55612c65610a60612c0983612acd565b54612c72610a608361057f565b55612c82610a82612c0983612acd565b54612c8f610a828361057f565b55612c9f610aa4612c0983612acd565b54612cac610aa48361057f565b55612cbc610ac6612c0983612acd565b54612cc9610ac68361057f565b55612ce6610ae1612cdf610ae1612c0985612acd565b549261057f565b55565b50801515612bd6565b5060018211612bd0565b15612d0357565b60405162461bcd60e51b81526020600482015260156024820152746e65737465642e616c72656164792e65786973747360581b6044820152606490fd5b60001981146128895760010190565b80546001600160a01b0319166001600160a01b03909216919091179055565b6001600160a01b03918216815291166020820152604081019190915260600190565b91612dea600492612de06129cf95612db56129946124196001610fbd610c178a61113c565b612dc36129a7600654612d40565b600654968791612dd687610cee8561056f565b826129c98861113c565b83610d058661055f565b6020612dfa610613600054610426565b60405163e09d394d60e01b815293849182905afa80156103f057612e2c612e3791612e7694600091612aaf5750612e7a565b6005610d058661055f565b612e456005610c1d8561055f565b610c5e612e56610613600054610426565b61065d866040519586936352902c5960e01b602086015260248501612d6e565b5090565b6e5af43d82803e903d91602b57fd5bf390763d602d80600a3d3981f3363d3d373d3d3d363d7300000062ffffff8260881c161760005260781b17602052603760096000f0906001600160a01b03821615612ed057565b60405163b06ebf3d60e01b8152600490fd5b634e487b7160e01b600052603260045260246000fd5b8054821015612f105760005260206000200190600090565b612ee2565b80549190600160401b8310156125e45782611300916001612b0795018155612ef8565b919091600092808452602091600783526040808620956002948386890155846001988981018a60ff198254161790555587612f728661058f565b83805282528489858520555b612f8d57505050505050509050565b612fda612fd4828b8a9414612fe3575b612fa68861058f565b8187528552868620612fb8815461287b565b9055612fc38861059f565b612fcd815461287b565b9055612d40565b9561055f565b01549384612f7e565b612ff28960036113878b61055f565b612f9d565b15612ffe57565b60405162461bcd60e51b81526020600482015260156024820152746e65737465642e757365722e6e6f7461637469766560581b6044820152606490fd5b80600052600760205261305860ff60016040600020015416612ff7565b600052600760205261309860018060a01b03600560406000200154166040519062a0e53360e51b60208301526001602483015260248252610c5e826125c9565b50565b156130a257565b60405162461bcd60e51b81526020600482015260136024820152726e65737465642e7a65726f2e6164647265737360681b6044820152606490fd5b156130e457565b60405162461bcd60e51b81526020600482015260146024820152736e65737465642e7461726765742e65786973747360601b6044820152606490fd5b1561312757565b60405162461bcd60e51b81526020600482015260176024820152766e65737465642e736f757263652e6e6f7445786973747360481b6044820152606490fd5b6040519061317382612604565b601382527255736572546f496e737428616464726573732960681b6020830152565b1561319c57565b60405162461bcd60e51b815260206004820152601b60248201527a6e65737465642e757365722e696e76616c6964696e7374616e636560281b6044820152606490fd5b91908260409103126103f5576020825192015190565b6001600160a01b039091168152602081019190915260400190565b1561321757565b60405162461bcd60e51b81526020600482015260156024820152743732b9ba32b21734b73b30b634b21739b2b73232b960591b6044820152606490fd5b1561325b57565b60405162461bcd60e51b81526020600482015260156024820152741b995cdd19590b9a5b9d985b1a590b9c185c995b9d605a1b6044820152606490fd5b1561329f57565b60405162461bcd60e51b81526020600482015260176024820152761b995cdd19590b9c995c4b985b1c9958591e595e1a5cdd604a1b6044820152606490fd5b60005b8381106132f15750506000910152565b81810151838201526020016132e1565b9291608090600a9260a08652602460a08701527f547269676765722e6e65737465642e70726f706f73616c2e6d6f7665646f776e60c0870152636c696e6560e01b60e087015260018060a01b03166020860152600060408601526101008060608701528151809187015261337f81610120936020858a0191016132de565b601f8019910116850101930152565b908160209103126103f5575190565b604051906133aa82612604565b6012825271676574526573756c742875696e743235362960701b6020830152565b519081151582036103f557565b91908260c09103126103f557815191602081015191604082015191606081015191610b5160a061340a608085016133cb565b93016133cb565b61342e61343a916134296111b96001610fbd8461055f565b61053f565b91600183015414613254565b613448610613600054610426565b906040518092630536340960e21b825281600460209586935afa9081156103f057612b07936134a361065d6002946134b0946000916134c9575b5061349b87546040519384918783019190602083019252565b611d9561339d565b80518101820191016133d8565b50959350505050019060ff801983541691151516179055565b6134e09150843d86116103e9576103da818361263a565b38613482565b156134ed57565b60405162461bcd60e51b81526020600482015260166024820152751b995cdd19590b9c995c4b9b9bdd185c1c1c9bdd995960521b6044820152606490fd5b1561353257565b60405162461bcd60e51b81526020600482015260186024820152771b995cdd19590b9d5cd95c8b9b9bdd0b99195d1858da195960421b6044820152606490fd5b1561357957565b60405162461bcd60e51b815260206004820152601b60248201527a1b995cdd19590b9d5cd95c8b985b1c99591e4b99195d1858da1959602a1b6044820152606490fd5b80549081156135e657600019918201916135d68383612ef8565b909182549160031b1b1916905555565b634e487b7160e01b600052603160045260246000fd5b8015612889576000190190565b61361b6136158261059f565b5461287b565b600290816136288461055f565b0154906001938492835b613640575b50505050505050565b600f80851115806138e5575b156138df578590600561366561061382610c1d8761055f565b613687575b50506136786136809261055f565b015493612d40565b9285613632565b865b8281111561374f57505050613678613680928960001461370d576136c66136af8661058f565b6136b889612acd565b600052602052604060002090565b546136ee6136e6896136d78561058f565b90600052602052604060002090565b91825461288e565b90556136f98161059f565b61370487825461288e565b90555b9261366a565b6137196136af8661058f565b5461373261372a896136d78561058f565b918254612adc565b905561373d8161059f565b613748878254612adc565b9055613707565b9091925061376082610c1d8761055f565b8a8561376c8a85612adc565b928b6040936137af6137a186518061378d60209a8b83019190602083019252565b0395611d8d601f199788810184528361263a565b8780825183010191016127fb565b50508982979215806138d7575b6138c557610c5e93613840999896938b89979460036137ed6137e7610cb697610c1d6138339f61055f565b9a61055f565b015495549251998a968d63393a9f9560e01b908901526024880194919260a0949197969360c0870198875260208701526040860152606085015260808401521515910152565b80518101820191016131df565b908b1561388b575b80821161386357505061385a90612d40565b90879291613689565b61386c90612d40565b61387a816136d78c5461057f565b613884815461287b565b9055613848565b81811161389d57505061385a90612d40565b806138af6138c0926136d78d5461057f565b6138b98154612acd565b90556135fc565b61388b565b50505050505050505061385a90612d40565b5081156137bc565b50613637565b5081151561364c565b9061014080838303126103f55781601f840112156103f557604051928184016001600160401b038111858210176125e457604052839181019283116103f557905b82821061393c5750505090565b815181526020918201910161392f565b6040519061395982612604565b600f82526e66726565496e74657276616c73282960881b6020830152565b6040519061398482612604565b60168252756765744c6576656c496e636f6d654f6e52616e6b282960501b6020830152565b91906000906139bb6106138354610426565b604080519363cfbffe5360e01b928386526020958681600481855afa9081156103f0578791613a03918591613bc5575b506139f461268b565b906139fd61394c565b906148c8565b94600485518094819382525afa9081156103f057613a4b91613a3d918491613ba8575b50613a2f613977565b613a37612678565b9161479f565b8680825183010191016131df565b9180985b600f8a111580613b9f575b15613b9357868a8986868a8a6005613a7861061382610c1d8c61055f565b613aa1575b50505050505050506002613a93613a9b9261055f565b015499612d40565b98613a4f565b86151580613b8a575b8015613b83575b15613a7d57613b4296948994610c5e94613b3498946003613ae1613adb61065d97610c1d8c61055f565b9961055f565b01549860029c8d5492519a8b9863645d0aa760e11b908a01526024890193909796959260e0959261010086019986526020860152600060408601526060850152608084015260a083015260c08201520152565b8a80825183010191016131df565b91905b808311613b5b5750508a8986868a8a8d96613a7d565b613b6490612d40565b613b72816136d7845461057f565b613b7c815461287b565b9055613b45565b5089613ab1565b50871515613aaa565b50505050505050509050565b50801515613a5a565b613bbf9150883d8a116103e9576103da818361263a565b38613a26565b613bdc9150833d85116103e9576103da818361263a565b386139eb565b90929192613bf4610613600054610426565b60409485519263cfbffe5360e01b928385526020948581600481855afa9081156103f0578691613c2e91600091613bc557506139f461268b565b9460048a518094819382525afa9081156103f057613c6891613c5a91600091613dbd5750613a2f613977565b8580825183010191016131df565b6000949194965b600f88111580613db4575b15613b93578385888489878f8e6005613c9961061382610c1d8d61055f565b613cc3575b5050505050505050506002613cb5613cbd9261055f565b015497612d40565b96613c6f565b81151580613dab575b8015613da2575b15613c9e57948994610c5e94613d52989461065d946003613cfe6137e7613d609e9c610c1d8d61055f565b01549960029d8e5493519b8c9963645d0aa760e11b908b015260248a0194919260e0969399989794919961010087019a8752602087015260408601526060850152608084015260a083015260c08201520152565b8980825183010191016131df565b91905b808311613d7a57505085888489878f8e8b97613c9e565b613d8390612d40565b613d91816136d7845461057f565b613d9b815461287b565b9055613d63565b50871515613cd3565b50881515613ccc565b50801515613c7a565b613bbf9150873d89116103e9576103da818361263a565b600254600019810190811161288957612b0790613f33565b15613df357565b60405162461bcd60e51b81526020600482015260126024820152716e65737465642e696e76616c69642e61676560701b6044820152606490fd5b60405190613e3a82612604565b60188252776765744261746368526f79616c7479436c6175736573282960401b6020830152565b6102a09081818403126103f55782601f820112156103f5576040805193613e87856125e9565b84938301928184116103f557935b838510613ea457505050505090565b6060858303126103f5578251606091613ebc826125c9565b8651825260209182880151838201528588015186820152815201940193613e95565b906007811015612f105760051b0190565b908160640291606483040361288957565b8181029291811591840414171561288957565b8115613f1d570490565b634e487b7160e01b600052601260045260246000fd5b613f3e811515613dec565b613f4c610613600054610426565b90604051809263cfbffe5360e01b825281600460209586935afa9081156103f057613f9491613f869160009161403f575b50613a2f613e2d565b838082518301019101613e61565b613fa882600052600c602052604060002090565b5460015b6007811115613fbc575050505050565b80613fcd61402b926136d78761057f565b54801561403957613fe6613fe083612acd565b86613ede565b518781519283156140305761400d61401292614005614018968a613f00565b940151613eef565b613f00565b90613f13565b614025826136d78861054f565b55612d40565b613fac565b50505050612d40565b50612d40565b6140569150853d87116103e9576103da818361263a565b38613f7d565b600052600760205260ff6001604060002001541690565b604051906101008083016001600160401b038111848210176125e457604052368337565b60025480600052600c60205260406000205491820180921161288957600052600c602052604060002055565b60025480600052600d60205260406000205491820180921161288957600052600d602052604060002055565b60025480600052600e60205260406000205491820180921161288957600052600e602052604060002055565b60025480600052600f602052604060002054906001820180921161288957600052600f602052604060002055565b9080600052600c60205260406000205491820180921161288957600052600c602052604060002055565b9080600052600e60205260406000205491820180921161288957600052600e602052604060002055565b9080600052600f60205260406000205491820180921161288957600052600f602052604060002055565b604051906141d482612604565b6014825273676574627573696e6573732875696e743235362960601b6020830152565b6040519061420482612604565b601d82527f67657472616e6b436f756e742875696e743235362c75696e74323536290000006020830152565b6000906142406106138354610426565b91604092835192839163111ea8c160e21b835282600460209485935afa9384156103f0578394614327575b505b8581111561427d57505050505050565b8451828101828152819003808252601f19916142ae916142a0906020018261263a565b6142a86141c7565b876148c8565b6142c56136e684600052600c602052604060002090565b9055835b600881106142e15750506142dc90612d40565b61426d565b614322906143158851614307816142fb85898b84016113e6565b0386810183528261263a565b61430f6141f7565b896148c8565b614025826136d78761057f565b6142c9565b61433f919450823d84116103e9576103da818361263a565b923861426b565b1561434d57565b60405162461bcd60e51b81526020600482015260196024820152781bdddb8b9cd8599959dd585c990b98d85b1b0b99985a5b1959603a1b6044820152606490fd5b908160209103126103f557610b51906133cb565b600054604051634bf9c0ad60e11b8152906020908190839060049082906001600160a01b03165afa9182156103f057610b519261441891600091614433575b506040516143ee81612604565b6008815267697353616665282960c01b848201526040519161440f8361261f565b600083526147ca565b919080614429575b61068a90614346565b5081518114614420565b61444a9150833d85116103e9576103da818361263a565b386143e1565b6040519061445d82612604565b601582527469735365637572654261736528616464726573732960581b6020830152565b1561448857565b60405162461bcd60e51b815260206004820152601a6024820152791bdddb8b9cd958dd5c9958985cd94b98d85b1b0b99985a5b195960321b6044820152606490fd5b6000546144df906001600160a01b0316610426565b604051918291634bf9c0ad60e11b835282600460209485935afa9283156103f057610b519361452f9261065d9260009261454a575b5061452790604051938491878301610443565b610673614450565b919080614540575b61068a90614481565b5081518114614537565b61452791925061456690863d88116103e9576103da818361263a565b9190614514565b6040519061457a82612604565b601182527069735369676e657228616464726573732960781b6020830152565b156145a157565b60405162461bcd60e51b81526020600482015260166024820152751bdddb8b9cda59db995c8b98d85b1b0b99985a5b195960521b6044820152606490fd5b60005460405163111ea8c160e21b815290602090829060049082906001600160a01b03165afa80156103f057610b519160009161464c575b5060405161462481612604565b6005815264616765282960d81b6020820152604051916146438361261f565b600083526148c8565b614664915060203d81116103e9576103da818361263a565b38614617565b6040519061467782612604565b6018825277697364656c656761746f724e6f646528616464726573732960401b6020830152565b3d156146c9573d906146af8261265d565b916146bd604051938461263a565b82523d6000602084013e565b606090565b600080546040516311be646b60e21b815290602090829060049082906001600160a01b03165afa9081156103f0578284819382938391614781575b505af161471461469e565b501561474a5760405190815233907fcdcc745fe377b103b45fa0cec23ae3ef93d6fc6a84a01f0d18c40b354dd1d5d890602090a2565b60405162461bcd60e51b815260206004820152600f60248201526e1bdddb8b989d5c9b8b99985a5b1959608a1b6044820152606490fd5b614799915060203d81116103e9576103da818361263a565b38614709565b906147aa92916147ca565b90600090156147b7575090565b60405191506147c58261261f565b815290565b803b1561482f57600092839263ffffffff60e01b9060208151910120169061481c602460405180936020820195865261480c81518092602086860191016132de565b810103600481018452018261263a565b5191620dbba0fa61482b61469e565b9091565b5050506000906040516148418161261f565b6000815290565b9291614856916000946147ca565b9080614881575b6148645750565b9091506020818051810103126103f5576020015161042681610432565b50602081511461485d565b929161489a916000946147ca565b90806148bd575b6148a85750565b610b519192506020808251830101910161438e565b5060208151146148a1565b92916148d6916000946147ca565b90806148f9575b6148e45750565b610b519192506020808251830101910161338e565b5060208151146148dd565b906020825192015163ffffffff60e01b90818116936004811061492657505050565b60040360031b82901b16169150565b6001600160a01b038116156149b657600080918351908260208601915af19061495c61469e565b9115614966575090565b8051600091906004116149b05761497d9150614904565b81511561498d5750805190602001fd5b604051630870274d60e21b81526001600160e01b03199091166004820152602490fd5b5061497d565b60405162461bcd60e51b81526020600482015260126024820152711bdddb8b9a5b9d985b1a590b9d185c99d95d60721b6044820152606490fdfea264697066735822122048704e0935d266939cb2cd5bc6d14e678dfa8e53c8ae7adef04f60934676f70964736f6c63430008140033","linkReferences":{}},"methodIdentifiers":{"dAOAssembly()":"14837455","daocore()":"14d8d024","nested741()":"45cff900","old741()":"5540c5ac","price()":"a035b1fe"},"id":34}