{"abi":[{"type":"constructor","inputs":[],"stateMutability":"nonpayable"},{"type":"fallback","stateMutability":"payable"},{"type":"receive","stateMutability":"payable"},{"type":"function","name":"addOrc1155","inputs":[{"name":"newAddr","type":"address","internalType":"address"},{"name":"oldAddr","type":"address","internalType":"address"},{"name":"oldAddrV1","type":"address","internalType":"address"}],"outputs":[],"stateMutability":"nonpayable"},{"type":"function","name":"addOrc1155Prime","inputs":[{"name":"params","type":"bytes","internalType":"bytes"},{"name":"oldAddr","type":"address","internalType":"address"}],"outputs":[],"stateMutability":"nonpayable"},{"type":"function","name":"addProposer","inputs":[{"name":"_a","type":"address","internalType":"address"}],"outputs":[],"stateMutability":"nonpayable"},{"type":"function","name":"daoassembly","inputs":[],"outputs":[{"name":"","type":"address","internalType":"address"}],"stateMutability":"view"},{"type":"function","name":"daocore","inputs":[],"outputs":[{"name":"","type":"address","internalType":"address"}],"stateMutability":"view"},{"type":"function","name":"getProposalsCount","inputs":[],"outputs":[{"name":"","type":"uint256","internalType":"uint256"}],"stateMutability":"view"},{"type":"function","name":"importRankBusiness","inputs":[{"name":"frmage","type":"uint256","internalType":"uint256"},{"name":"toage","type":"uint256","internalType":"uint256"}],"outputs":[],"stateMutability":"nonpayable"},{"type":"function","name":"importuser","inputs":[{"name":"limit","type":"uint256","internalType":"uint256"}],"outputs":[],"stateMutability":"nonpayable"},{"type":"function","name":"in741","inputs":[],"outputs":[{"name":"","type":"address","internalType":"address"}],"stateMutability":"view"},{"type":"function","name":"in741Old","inputs":[],"outputs":[{"name":"","type":"address","internalType":"address"}],"stateMutability":"view"},{"type":"function","name":"in741Prime","inputs":[],"outputs":[{"name":"","type":"address","internalType":"address"}],"stateMutability":"view"},{"type":"function","name":"in741PrimeOld","inputs":[],"outputs":[{"name":"","type":"address","internalType":"address"}],"stateMutability":"view"},{"type":"function","name":"in741Primev3Old","inputs":[],"outputs":[{"name":"","type":"address","internalType":"address"}],"stateMutability":"view"},{"type":"function","name":"in741Rule","inputs":[],"outputs":[{"name":"","type":"address","internalType":"address"}],"stateMutability":"view"},{"type":"function","name":"in741RuleOld","inputs":[],"outputs":[{"name":"","type":"address","internalType":"address"}],"stateMutability":"view"},{"type":"function","name":"in741RulePrime","inputs":[],"outputs":[{"name":"","type":"address","internalType":"address"}],"stateMutability":"view"},{"type":"function","name":"in741RulePrimeOld","inputs":[],"outputs":[{"name":"","type":"address","internalType":"address"}],"stateMutability":"view"},{"type":"function","name":"inDEAD","inputs":[],"outputs":[{"name":"","type":"address","internalType":"address"}],"stateMutability":"view"},{"type":"function","name":"inDeployerAService","inputs":[],"outputs":[{"name":"","type":"address","internalType":"address"}],"stateMutability":"view"},{"type":"function","name":"inDeployerAsRoot","inputs":[],"outputs":[{"name":"","type":"address","internalType":"address"}],"stateMutability":"view"},{"type":"function","name":"inImportForgePrimeold","inputs":[],"outputs":[{"name":"","type":"address","internalType":"address"}],"stateMutability":"view"},{"type":"function","name":"inInstance","inputs":[],"outputs":[{"name":"","type":"address","internalType":"address"}],"stateMutability":"view"},{"type":"function","name":"inInstancePrime","inputs":[],"outputs":[{"name":"","type":"address","internalType":"address"}],"stateMutability":"view"},{"type":"function","name":"inInstanceStor","inputs":[],"outputs":[{"name":"","type":"address","internalType":"address"}],"stateMutability":"view"},{"type":"function","name":"inNftFactory","inputs":[],"outputs":[{"name":"","type":"address","internalType":"address"}],"stateMutability":"view"},{"type":"function","name":"inNftProxy","inputs":[],"outputs":[{"name":"","type":"address","internalType":"address"}],"stateMutability":"view"},{"type":"function","name":"inOrc1155","inputs":[{"name":"","type":"uint256","internalType":"uint256"}],"outputs":[{"name":"","type":"address","internalType":"address"}],"stateMutability":"view"},{"type":"function","name":"inOrc1155Old","inputs":[{"name":"","type":"uint256","internalType":"uint256"}],"outputs":[{"name":"","type":"address","internalType":"address"}],"stateMutability":"view"},{"type":"function","name":"inOrc1155OldV1","inputs":[{"name":"","type":"uint256","internalType":"uint256"}],"outputs":[{"name":"","type":"address","internalType":"address"}],"stateMutability":"view"},{"type":"function","name":"inOrc1155Prime","inputs":[{"name":"","type":"uint256","internalType":"uint256"}],"outputs":[{"name":"","type":"address","internalType":"address"}],"stateMutability":"view"},{"type":"function","name":"inOrc1155PrimeOld","inputs":[],"outputs":[{"name":"","type":"address","internalType":"address"}],"stateMutability":"view"},{"type":"function","name":"inOrc1155PrimeOldV1","inputs":[],"outputs":[{"name":"","type":"address","internalType":"address"}],"stateMutability":"view"},{"type":"function","name":"inOrc1155machinebullold","inputs":[],"outputs":[{"name":"","type":"address","internalType":"address"}],"stateMutability":"view"},{"type":"function","name":"inPrice","inputs":[],"outputs":[{"name":"","type":"address","internalType":"address"}],"stateMutability":"view"},{"type":"function","name":"inPrimeData","inputs":[],"outputs":[{"name":"","type":"address","internalType":"address"}],"stateMutability":"view"},{"type":"function","name":"inPrimeProxy","inputs":[],"outputs":[{"name":"","type":"address","internalType":"address"}],"stateMutability":"view"},{"type":"function","name":"inTransferPrimeold","inputs":[],"outputs":[{"name":"","type":"address","internalType":"address"}],"stateMutability":"view"},{"type":"function","name":"inTransferold","inputs":[],"outputs":[{"name":"","type":"address","internalType":"address"}],"stateMutability":"view"},{"type":"function","name":"inTreaseryFactory","inputs":[],"outputs":[{"name":"","type":"address","internalType":"address"}],"stateMutability":"view"},{"type":"function","name":"inTreaseryTVLMining","inputs":[],"outputs":[{"name":"","type":"address","internalType":"address"}],"stateMutability":"view"},{"type":"function","name":"inTreaseryTVLMiningImport","inputs":[],"outputs":[{"name":"","type":"address","internalType":"address"}],"stateMutability":"view"},{"type":"function","name":"inTreaseryTVLMiningPrime","inputs":[],"outputs":[{"name":"","type":"address","internalType":"address"}],"stateMutability":"view"},{"type":"function","name":"inTreaseryTVLReward","inputs":[],"outputs":[{"name":"","type":"address","internalType":"address"}],"stateMutability":"view"},{"type":"function","name":"inTreaseryTVLRoyality","inputs":[],"outputs":[{"name":"","type":"address","internalType":"address"}],"stateMutability":"view"},{"type":"function","name":"inTreaseryTVLTour","inputs":[],"outputs":[{"name":"","type":"address","internalType":"address"}],"stateMutability":"view"},{"type":"function","name":"inTreaseryTVLValidator","inputs":[],"outputs":[{"name":"","type":"address","internalType":"address"}],"stateMutability":"view"},{"type":"function","name":"inblank","inputs":[],"outputs":[{"name":"","type":"address","internalType":"address"}],"stateMutability":"view"},{"type":"function","name":"incointransfer","inputs":[],"outputs":[{"name":"","type":"address","internalType":"address"}],"stateMutability":"view"},{"type":"function","name":"infactoryold","inputs":[],"outputs":[{"name":"","type":"address","internalType":"address"}],"stateMutability":"view"},{"type":"function","name":"infactoryprimeold","inputs":[],"outputs":[{"name":"","type":"address","internalType":"address"}],"stateMutability":"view"},{"type":"function","name":"insafeguard","inputs":[],"outputs":[{"name":"","type":"address","internalType":"address"}],"stateMutability":"view"},{"type":"function","name":"insafeguardOld","inputs":[],"outputs":[{"name":"","type":"address","internalType":"address"}],"stateMutability":"view"},{"type":"function","name":"insafeguardPrime","inputs":[],"outputs":[{"name":"","type":"address","internalType":"address"}],"stateMutability":"view"},{"type":"function","name":"insafeguardPrimeOld","inputs":[],"outputs":[{"name":"","type":"address","internalType":"address"}],"stateMutability":"view"},{"type":"function","name":"invalidator","inputs":[],"outputs":[{"name":"","type":"address","internalType":"address"}],"stateMutability":"view"},{"type":"function","name":"invalidatorOld","inputs":[],"outputs":[{"name":"","type":"address","internalType":"address"}],"stateMutability":"view"},{"type":"function","name":"mapOldORC1155","inputs":[{"name":"","type":"address","internalType":"address"}],"outputs":[{"name":"","type":"address","internalType":"address"}],"stateMutability":"view"},{"type":"function","name":"mapOldORC1155Prime","inputs":[{"name":"","type":"address","internalType":"address"}],"outputs":[{"name":"","type":"address","internalType":"address"}],"stateMutability":"view"},{"type":"function","name":"proposals","inputs":[{"name":"","type":"uint256","internalType":"uint256"}],"outputs":[{"name":"","type":"address","internalType":"address"}],"stateMutability":"view"},{"type":"function","name":"s1","inputs":[],"outputs":[{"name":"","type":"address","internalType":"address"}],"stateMutability":"view"},{"type":"function","name":"s2","inputs":[],"outputs":[{"name":"","type":"address","internalType":"address"}],"stateMutability":"view"},{"type":"function","name":"s3","inputs":[],"outputs":[{"name":"","type":"address","internalType":"address"}],"stateMutability":"view"},{"type":"function","name":"submit","inputs":[{"name":"_hexNFTEngine","type":"address","internalType":"address"},{"name":"_hexDaoCore","type":"address","internalType":"address"},{"name":"_hexRules","type":"address","internalType":"address"},{"name":"_hexUserEngine","type":"address","internalType":"address"},{"name":"_hexInstanceEngine","type":"address","internalType":"address"}],"outputs":[],"stateMutability":"nonpayable"},{"type":"function","name":"testTxnSys","inputs":[],"outputs":[],"stateMutability":"nonpayable"},{"type":"function","name":"update741","inputs":[{"name":"addr","type":"address","internalType":"address"}],"outputs":[],"stateMutability":"nonpayable"},{"type":"function","name":"update741Old","inputs":[{"name":"addr","type":"address","internalType":"address"}],"outputs":[],"stateMutability":"nonpayable"},{"type":"function","name":"update741Prime","inputs":[{"name":"addr","type":"address","internalType":"address"}],"outputs":[],"stateMutability":"nonpayable"},{"type":"function","name":"update741PrimeOld","inputs":[{"name":"addr","type":"address","internalType":"address"}],"outputs":[],"stateMutability":"nonpayable"},{"type":"function","name":"update741Primev3Old","inputs":[{"name":"addr","type":"address","internalType":"address"}],"outputs":[],"stateMutability":"nonpayable"},{"type":"function","name":"update741Rule","inputs":[{"name":"addr","type":"address","internalType":"address"}],"outputs":[],"stateMutability":"nonpayable"},{"type":"function","name":"update741RuleOld","inputs":[{"name":"addr","type":"address","internalType":"address"}],"outputs":[],"stateMutability":"nonpayable"},{"type":"function","name":"update741RulePrime","inputs":[{"name":"addr","type":"address","internalType":"address"}],"outputs":[],"stateMutability":"nonpayable"},{"type":"function","name":"update741RulePrimeOld","inputs":[{"name":"addr","type":"address","internalType":"address"}],"outputs":[],"stateMutability":"nonpayable"},{"type":"function","name":"updateCoinTransfer","inputs":[{"name":"addr","type":"address","internalType":"address"}],"outputs":[],"stateMutability":"nonpayable"},{"type":"function","name":"updateDAOAssembly","inputs":[{"name":"_dao","type":"address","internalType":"address"}],"outputs":[],"stateMutability":"nonpayable"},{"type":"function","name":"updateDAOCore","inputs":[{"name":"_dao","type":"address","internalType":"address"}],"outputs":[],"stateMutability":"nonpayable"},{"type":"function","name":"updateDEAD","inputs":[{"name":"addr","type":"address","internalType":"address"}],"outputs":[],"stateMutability":"nonpayable"},{"type":"function","name":"updateFactoryOld","inputs":[{"name":"addr","type":"address","internalType":"address"}],"outputs":[],"stateMutability":"nonpayable"},{"type":"function","name":"updateFactoryPrimeOld","inputs":[{"name":"addr","type":"address","internalType":"address"}],"outputs":[],"stateMutability":"nonpayable"},{"type":"function","name":"updateImportForgePrimeold","inputs":[{"name":"addr","type":"address","internalType":"address"}],"outputs":[],"stateMutability":"nonpayable"},{"type":"function","name":"updateInTransferOld","inputs":[{"name":"addr","type":"address","internalType":"address"}],"outputs":[],"stateMutability":"nonpayable"},{"type":"function","name":"updateInTransferPrimeOld","inputs":[{"name":"addr","type":"address","internalType":"address"}],"outputs":[],"stateMutability":"nonpayable"},{"type":"function","name":"updateInstance","inputs":[{"name":"addr","type":"address","internalType":"address"}],"outputs":[],"stateMutability":"nonpayable"},{"type":"function","name":"updateInstancePrime","inputs":[{"name":"addr","type":"address","internalType":"address"}],"outputs":[],"stateMutability":"nonpayable"},{"type":"function","name":"updateInstanceStor","inputs":[{"name":"addr","type":"address","internalType":"address"}],"outputs":[],"stateMutability":"nonpayable"},{"type":"function","name":"updateNftProxy","inputs":[{"name":"addr","type":"address","internalType":"address"}],"outputs":[],"stateMutability":"nonpayable"},{"type":"function","name":"updateOrc1155","inputs":[{"name":"_o","type":"address","internalType":"address"},{"name":"oldAddr","type":"address","internalType":"address"},{"name":"idx","type":"uint256","internalType":"uint256"}],"outputs":[],"stateMutability":"nonpayable"},{"type":"function","name":"updateOrc1155MachineBullOld","inputs":[{"name":"addr","type":"address","internalType":"address"}],"outputs":[],"stateMutability":"nonpayable"},{"type":"function","name":"updateOrc1155Prime","inputs":[{"name":"_o","type":"address","internalType":"address"},{"name":"oldAddr","type":"address","internalType":"address"},{"name":"idx","type":"uint256","internalType":"uint256"}],"outputs":[],"stateMutability":"nonpayable"},{"type":"function","name":"updateOrc1155PrimeOld","inputs":[{"name":"addr","type":"address","internalType":"address"}],"outputs":[],"stateMutability":"nonpayable"},{"type":"function","name":"updateOrc1155PrimeOldV1","inputs":[{"name":"addr","type":"address","internalType":"address"}],"outputs":[],"stateMutability":"nonpayable"},{"type":"function","name":"updatePrice","inputs":[{"name":"addr","type":"address","internalType":"address"}],"outputs":[],"stateMutability":"nonpayable"},{"type":"function","name":"updatePrimeData","inputs":[{"name":"addr","type":"address","internalType":"address"}],"outputs":[],"stateMutability":"nonpayable"},{"type":"function","name":"updatePrimeProxy","inputs":[{"name":"addr","type":"address","internalType":"address"}],"outputs":[],"stateMutability":"nonpayable"},{"type":"function","name":"updateProposals","inputs":[{"name":"_a","type":"address","internalType":"address"},{"name":"idx","type":"uint256","internalType":"uint256"}],"outputs":[],"stateMutability":"nonpayable"},{"type":"function","name":"updateSafeguard","inputs":[{"name":"addr","type":"address","internalType":"address"}],"outputs":[],"stateMutability":"nonpayable"},{"type":"function","name":"updateSafeguardOld","inputs":[{"name":"addr","type":"address","internalType":"address"}],"outputs":[],"stateMutability":"nonpayable"},{"type":"function","name":"updateSafeguardPrime","inputs":[{"name":"addr","type":"address","internalType":"address"}],"outputs":[],"stateMutability":"nonpayable"},{"type":"function","name":"updateSafeguardPrimeOld","inputs":[{"name":"addr","type":"address","internalType":"address"}],"outputs":[],"stateMutability":"nonpayable"},{"type":"function","name":"updateTreaseryFactory","inputs":[{"name":"addr","type":"address","internalType":"address"}],"outputs":[],"stateMutability":"nonpayable"},{"type":"function","name":"updateTreaseryTVLMiningImport","inputs":[{"name":"addr","type":"address","internalType":"address"}],"outputs":[],"stateMutability":"nonpayable"},{"type":"function","name":"updateTreaseryTVLValidator","inputs":[{"name":"addr","type":"address","internalType":"address"}],"outputs":[],"stateMutability":"nonpayable"},{"type":"function","name":"updateTreasuryTVLMining","inputs":[{"name":"addr","type":"address","internalType":"address"}],"outputs":[],"stateMutability":"nonpayable"},{"type":"function","name":"updateTreasuryTVLMiningPrime","inputs":[{"name":"addr","type":"address","internalType":"address"}],"outputs":[],"stateMutability":"nonpayable"},{"type":"function","name":"updateTreasuryTVLReward","inputs":[{"name":"addr","type":"address","internalType":"address"}],"outputs":[],"stateMutability":"nonpayable"},{"type":"function","name":"updateTreasuryTVLRoyality","inputs":[{"name":"addr","type":"address","internalType":"address"}],"outputs":[],"stateMutability":"nonpayable"},{"type":"function","name":"updateTreasuryTVLTour","inputs":[{"name":"addr","type":"address","internalType":"address"}],"outputs":[],"stateMutability":"nonpayable"},{"type":"function","name":"updateValidator","inputs":[{"name":"addr","type":"address","internalType":"address"}],"outputs":[],"stateMutability":"nonpayable"},{"type":"function","name":"updateValidatorOld","inputs":[{"name":"addr","type":"address","internalType":"address"}],"outputs":[],"stateMutability":"nonpayable"}],"bytecode":{"object":"0x6080604052346200050b5760018060a01b0319600090808254168255600173376c3a0babd0ce07b78f82fc862a6cb7c82342d282825416178155816002541660025573301cad03ad5f18e71e0bf6d578820c5e836201c9826003541617600355735731f74dd52839d69b2b4427ce1439431f76a2ce8260045416176004556005734a516f5916d53ece27c00ab5e3923872ed19f090838254161781558260065416600655826007541660075582600954166009557360c95eb879eec03a0af4528a16f192e61a198f4083600a541617600a557308ff697696398fac0dcee979bb0f1fb7b7fc380b83600b541617600b5582600c5416600c5582600d5416600d5573f134e58248ab8380e911d36c21e1015e5e84814183600e541617600e5582600f5416600f5573882bf41aa8e3fad0695be39e4434af54786eb24a83601054161760105573c0cee8b561cc4f60869776ca5b0b7a295e04f5af808460115416176011558360125416601255836013541617601355739f33b44587a57758c1413dbab6640f6abea5cef483601454161760145573804f8004e7d361ab2a4335685d7c6893e67af7c1836015541617601555620001b962000510565b9173d03060e8ed7754aeed63e4e56b0457662d8164aa8352602091733dbd81ab6b37360016fbc6c96937c60334aaede48385015273085052532254e12989413f7c84dd32686bce74e19384604082015273284bf1d323c35b47fe1991cde5af634e3a661253606082015273b33443339919b2ae34888890d6c28b5666daaa3f6080820152601a5482601a55808310620004e0575b50601a87528387209083885b848110620004c457505050506200026f62000510565b73b8193c79fc3f1d7dfaa0bae85fe3b1bff0558abb8152736e5aa0e705b69459e1525b2c720e820cf3322f1b8482015273ef8fe7c57b613624c06f5ede5ebd639f6d5108176040820152735f141ba4a79fdc86ec5c8c044f721ce873db91b96060820152737117638c0dc12ffffdddf3630ac4ce5c9705e6ff6080820152601b5482601b5580831062000499575b50601b8752838720875b8381106200047e57505050505073951a7bbd21b4a6f49e62e040b992eed7120fcdd983601c541617601c55732463fc29b8b635c4120c4fe32aadc580d199348083601d541617601d55737e2baf007a3761d33afee572a7e7a08c1499b99d9081848254161790557343a87925ba12b33f0e2a40da70e239775db21169836025541617602555730fda18c5b31b5417478c012837909927361143ab83602a541617602a55730239667fa9f2269e36f32daf2ab391dc1ad9373883602b541617602b5573648565deb50c503ef59860d92942eaece0c3e17283602c541617602c5582602d541617602d5581602e541617602e55736c96f2d0c9a8b7fb472a319b1ecf7e8626c7b2ba81602f541617602f55739bfc2af8a5e49a72bfb58e22312ce07d61fe773981603054161760305573d6c0fe5cbba38d7270f5da5cd455e8cff3607bbf81603154161760315561dead816034541617603455806035541660355533908254161790556040516166b59081620005478239f35b82516001600160a01b03168282015591850191840162000307565b601b88528383868a2092830192015b828110620004b8575050620002fd565b898155018490620004a8565b82516001600160a01b0316848201559186019185910162000259565b601a88528383868a2092830192015b828110620004ff5750506200024d565b898155018490620004ef565b600080fd5b6040519060a082016001600160401b038111838210176200053057604052565b634e487b7160e01b600052604160045260246000fdfe6040608081526004803610156200001e575b505036156200001c57005b005b600091823560e01c918263013cf08b146200319b578263014519e6146200314e57826301c0d48b1462003124578263050564b3146200303657826305abae0d1462002fe9578263069f3e721462002f9c57826308a887af1462002f725782630a4c99391462002f255782630c32145a1462002ed85782631162a5b11462002e8b578263130fba6d1462002e3e5782631477e1941462002de957826314d8d0241462002dbf5782631654f3311462002d725782631a47ded51462002d255782631b4fc17b1462002cfb5782631b67970a1462002cae57826321c826771462002c84578263236b04021462002c3757826323db61491462002bea57826324768d911462002bc0578263275424d01462002b7357826330125cf51462002b49578263335ab5f21462002afc578383633676bd1f1462002a7a5750826336c24c461462002a2d57826342ac8f7914620029e057826343af1d9d14620029b6578263447aa304146200298c578263447bf0e21462002962578263448f3eef14620029385782634588d01014620028eb57826345d96de8146200289e57826346f991ac14620028745782634b849a541462002827578263507aa64f14620027da57826351ffe4c514620027b057826352b06d641462002786578263595e1dd2146200274d5782635ad64af114620027235782635c727e8014620026c45782635e09dbe7146200269a5782636325dd041462002670578263635b277014620026235782636402742714620025f95782636665858414620025ac578263677494d814620025825782636b4aefc614620025595782636cc014de146200252f5782636fa1659814620024e257826370ee2af8146200249557826374dfe236146200244857826374fad9f914620023fb578263753e7d3314620023ae5782638360701d1462002361578263839a47a41462002314578263891e91a514620022c75782639669f18f146200227a57826396e85ced146200222d57826397f3815a146200220357826398e527d314620021e25782639dc969a814620021b8578263a0449f45146200216b578263a0b8cbb81462002141578263a11abe2a1462001150578263a2672aa81462001103578263a314150f14620010da5783908363a5b277f214620010b0578363a5d666a91462001086578363a66bcbe2146200105c578363a7acacf81462001032578363a7d7fa501462001008578363a9d5ae6f1462000fbb578363aa0ddc161462000f91578363ab6e844f1462000f67578363aeb140201462000f1a578363af0deb951462000ef0578363af2331901462000ec6578363b03cd4181462000e86578363b113bd201462000c93578363b3a86ab01462000c69578363b771c8961462000c22578363bb2458961462000bf8578363bd811bce1462000bce578363c16addd01462000b6c578363c5a90db11462000b42578363c7bb7d4d1462000af5578363cc7cf18e1462000a95578363cfaa1f6c1462000a57578363cfacc0101462000a0a578363cfbffe5314620009e0578363d1f956b114620009b6578363d3d1b096146200098c578363da1be7d01462000962578363de433f17146200093a578363e09d394d1462000910578363e0cf4e9e14620008c7578363e1f4cd24146200089d578363e25768191462000850578363e61dfd581462000826578363e7531fc014620007fc578363e981bcad146200074f5750508163ed15cbf71462000711578163ef140ed31462000691578163efed51bb1462000667578163f144dff0146200063957508063f1cdfda314620005ec578063f6065649146200059f5763fc58f3531462000550578062000011565b346200059c5760203660031901126200059c576200056d620032c2565b6001600160a01b039062000587826006541633146200338d565b166001600160a01b0319601254161760125580f35b80fd5b50346200059c5760203660031901126200059c57620005bd620032c2565b6001600160a01b0390620005d7826006541633146200338d565b166001600160a01b0319603654161760365580f35b50346200059c5760203660031901126200059c576200060a620032c2565b6001600160a01b039062000624826006541633146200338d565b166001600160a01b0319603154161760315580f35b90503462000663578160031936011262000663576020906001600160a01b03602d54169051908152f35b5080fd5b90503462000663578160031936011262000663576020906001600160a01b03601054169051908152f35b9050346200066357620006d3620006a83662003355565b90620006f3836001600160a01b03969496958694620006cd866006541633146200338d565b62003252565b90919082549060031b916001600160a01b03809116831b921b1916179055565b1684526019602052832091166001600160a01b031982541617905580f35b905034620006635760203660031901126200066357602091816001600160a01b0391826200073e620032c2565b168152601985522054169051908152f35b819234620007f85780600319360112620007f8576001600160a01b03620007756200321d565b90549060031b1c1691823b15620007f357839260448492845195869384927fe981bcad00000000000000000000000000000000000000000000000000000000845280359084015260243560248401525af1908115620007ea5750620007d75750f35b620007e29062003307565b6200059c5780f35b513d84823e3d90fd5b505050fd5b5050fd5b50903462000663578160031936011262000663576020906001600160a01b03602b54169051908152f35b50903462000663578160031936011262000663576020906001600160a01b03602654169051908152f35b50346200059c5760203660031901126200059c576200086e620032c2565b6001600160a01b039062000888826006541633146200338d565b166001600160a01b0319602254161760225580f35b50903462000663578160031936011262000663576020906001600160a01b03600f54169051908152f35b50903462000663573660031901126200059c576200090d620008e8620032c2565b620009006001600160a01b036006541633146200338d565b620006d3602435620031cf565b80f35b50903462000663578160031936011262000663576020906001600160a01b03602754169051908152f35b50903462000663578160031936011262000663576001600160a01b0360209254169051908152f35b50903462000663578160031936011262000663576020906001600160a01b03603054169051908152f35b50903462000663578160031936011262000663576020906001600160a01b03602954169051908152f35b50903462000663578160031936011262000663576020906001600160a01b03600754169051908152f35b50903462000663578160031936011262000663576020906001600160a01b03600d54169051908152f35b50346200059c5760203660031901126200059c5762000a28620032c2565b6001600160a01b039062000a42826006541633146200338d565b166001600160a01b0319600f541617600f5580f35b509034620006635760203660031901126200066357602091816001600160a01b03918262000a84620032c2565b168152601885522054169051908152f35b5090346200066357620006d362000aac3662003355565b9062000ad7836001600160a01b0396949695869462000ad1866006541633146200338d565b6200328a565b1684526018602052832091166001600160a01b031982541617905580f35b50346200059c5760203660031901126200059c5762000b13620032c2565b6001600160a01b039062000b2d826006541633146200338d565b166001600160a01b0319602e541617602e5580f35b50903462000663578160031936011262000663576020906001600160a01b03602c54169051908152f35b82903462000bca57602036600319011262000bca573591601a548310156200059c57506001600160a01b03602092601a6000527f057c384a7d1c54f3a1b2e5e67b2617b8224fdfd1ea7234eea573a6ff665ff63e0154169051908152f35b8280fd5b50903462000663578160031936011262000663576020906001600160a01b03601554169051908152f35b50903462000663578160031936011262000663576020906001600160a01b03600e54169051908152f35b82903462000bca57602036600319011262000bca5735916016548310156200059c57506001600160a01b0362000c5a6020936200328a565b92905490519260031b1c168152f35b50903462000663578160031936011262000663576020906001600160a01b03601d54169051908152f35b823462000bca578060031936011262000bca5767ffffffffffffffff90823582811162000e82573660238201121562000e82578084013592831162000e6f5781519385602092601f199562000cf08588601f840116018962003332565b808852366024828401011162000bca57806024869399989901838901378601015262000d1b620032d9565b90826001600160a01b039562000d37876006541633146200338d565b8660375416898751998a937f165fd13f0000000000000000000000000000000000000000000000000000000085523087860152896024860152805190816044870152835b82811062000e51575050848392601f8383966064809686010152011681010301925af195861562000e4757879662000e11575b50601754906801000000000000000082101562000dfc57506019929162000de287620006d38460018a960160175562003252565b16865252832091166001600160a01b031982541617905580f35b604190634e487b7160e01b6000525260246000fd5b62000e37919650833d851162000e3f575b62000e2e818362003332565b810190620034bf565b948762000dae565b503d62000e22565b84513d89823e3d90fd5b8181018801519681016064019690965289968d968f95500162000d7b565b602485604186634e487b7160e01b835252fd5b8480fd5b50346200059c5760203660031901126200059c576200090d62000ea8620032c2565b62000ec06001600160a01b036006541633146200338d565b620033d9565b50903462000663578160031936011262000663576020906001600160a01b03602854169051908152f35b50903462000663578160031936011262000663576020906001600160a01b03600c54169051908152f35b50346200059c5760203660031901126200059c5762000f38620032c2565b6001600160a01b039062000f52826006541633146200338d565b166001600160a01b0319601154161760115580f35b50903462000663578160031936011262000663576020906001600160a01b03601154169051908152f35b50903462000663578160031936011262000663576020906001600160a01b03601f54169051908152f35b50346200059c5760203660031901126200059c5762000fd9620032c2565b6001600160a01b039062000ff3826006541633146200338d565b166001600160a01b0319600c541617600c5580f35b50903462000663578160031936011262000663576020906001600160a01b03600b54169051908152f35b50903462000663578160031936011262000663576020906001600160a01b03601c54169051908152f35b50903462000663578160031936011262000663576020906001600160a01b03601254169051908152f35b50903462000663578160031936011262000663576020906001600160a01b03600554169051908152f35b50903462000663578160031936011262000663576020906001600160a01b03602e54169051908152f35b9083346200059c57806003193601126200059c57506001600160a01b0360209254169051908152f35b83346200059c5760203660031901126200059c5762001121620032c2565b6001600160a01b03906200113b826006541633146200338d565b166001600160a01b0319602c541617602c5580f35b9091503462000bca5760a036600319011262000bca5762001170620032c2565b916200117b620032d9565b9162001186620032f0565b92606435946001600160a01b03948587168097036200213c57608435928684168094036200213c57868954163303620020f9578660095416620020b6578616928551977fa035b1fe000000000000000000000000000000000000000000000000000000008952602092838a8881895afa998a15620020ac578b9a62002088575b50886001600160a01b03199a168a602954161760295587517f5540c5ac000000000000000000000000000000000000000000000000000000008152848189818a5afa90811562001e1357908a918d9162002066575b50168a60135416176013558751957f45cff90000000000000000000000000000000000000000000000000000000000875284878981845afa96871562001e13578c9762002042575b5089601197168b88541617875588517f1483745500000000000000000000000000000000000000000000000000000000815285818a81855afa908d8215620020375787928b94928e929162002015575b50168d60075416176007558a51928380927f14d8d0240000000000000000000000000000000000000000000000000000000082525afa908c821562001fe8578b939284929062001ff3575b50168b60065416176006551687517f0a5b38ab00000000000000000000000000000000000000000000000000000000815284818981855afa908c821562001fe85786928a94928d929162001fc6575b50168c600d541617600d558951928380927f3da8676f0000000000000000000000000000000000000000000000000000000082525afa908b821562001fbb578592899492620013e4929162001f99575b50620033d9565b8851928380927f131c73ad0000000000000000000000000000000000000000000000000000000082525afa90811562001e61579088918b9162001f77575b501688602754161760275585517f022ec09500000000000000000000000000000000000000000000000000000000815282818781855afa90811562001e61579088918b9162001f55575b501688602654161760265585517f9ba540fb00000000000000000000000000000000000000000000000000000000815282818781855afa90811562001e61579088918b9162001f33575b501688601e541617601e5585517fd795ff3800000000000000000000000000000000000000000000000000000000815282818781855afa90811562001e61579088918b9162001f11575b501688601f541617601f5585517fb85c9faf00000000000000000000000000000000000000000000000000000000815282818781855afa90811562001e61579088918b9162001eef575b501688602154161760215585517f9443767c00000000000000000000000000000000000000000000000000000000815282818781855afa90811562001e61579088918b9162001ecd575b501688602254161760225585517fdabf429d00000000000000000000000000000000000000000000000000000000815282818781855afa90811562001e615791888493928895938d9162001eab575b50168a60235416176023558751968780927fa50c0bc00000000000000000000000000000000000000000000000000000000082525afa94851562001ea157899562001e7d575b5086602495168886541617855585516120779081810167ffffffffffffffff928282108483111762001e6b5784918391620034e183393081520301908bf093841562001e6157889081603296168b875416178655169387517fa4ac704e00000000000000000000000000000000000000000000000000000000815283818681895afa90811562001e1357908a918d9162001e3f575b50168a603654161760365587517fd63843cd00000000000000000000000000000000000000000000000000000000815283818681895afa90811562001e1357908a918d9162001e1d575b50168a603754161760375587517f1a1575a500000000000000000000000000000000000000000000000000000000815283818681895afa90811562001e13578c9162001df1575b50601a541562001dde57897f057c384a7d1c54f3a1b2e5e67b2617b8224fdfd1ea7234eea573a6ff665ff63e541690601b9182541562001d155790620017be91836000528c7f3ad8aa4f87544323a9d1e5dd902f40c356527a7955687113db5f9a85ad579dc154169162003407565b8851957f1697db0500000000000000000000000000000000000000000000000000000000875284878781845afa96871562001dd4578d9762001db0575b50601a549660019788101562001d15578b7f057c384a7d1c54f3a1b2e5e67b2617b8224fdfd1ea7234eea573a6ff665ff63f5416835489101562001d0257906200186e91846000528d7f3ad8aa4f87544323a9d1e5dd902f40c356527a7955687113db5f9a85ad579dc254169162003407565b8c8a517fde04dae400000000000000000000000000000000000000000000000000000000815286818981865afa91821562001d4c579162001d8e575b50601a546002101562001d15578b7f057c384a7d1c54f3a1b2e5e67b2617b8224fdfd1ea7234eea573a6ff665ff640541683546002101562001d02578392918f94918e6200191f936000527f3ad8aa4f87544323a9d1e5dd902f40c356527a7955687113db5f9a85ad579dc354169162003407565b8a517fa0f0e54f00000000000000000000000000000000000000000000000000000000815286818981855afa93841562001d4c579362001d6a575b50601a549260039384101562001d02578c7f057c384a7d1c54f3a1b2e5e67b2617b8224fdfd1ea7234eea573a6ff665ff6415416835485101562001d57578f9392620019d38f938a938c95876000527f3ad8aa4f87544323a9d1e5dd902f40c356527a7955687113db5f9a85ad579dc454169162003407565b8d51928380927f209d197a0000000000000000000000000000000000000000000000000000000082525afa92831562001d4c579262001d28575b50601a5487101562001d15578b7f057c384a7d1c54f3a1b2e5e67b2617b8224fdfd1ea7234eea573a6ff665ff642541690805488101562001d02579062001a7d92916000528c7f3ad8aa4f87544323a9d1e5dd902f40c356527a7955687113db5f9a85ad579dc554169162003407565b8851916101e083018381108582111762001cee578a52600e8352848301976101c09190888f84368d37905b62001c7e575b508c62001aba6200321d565b905490861b1c1685516005101562001c5857908d9160c0870152541684516006101562001c6b5760e08501528b601e54169184516007101562001c6b57826101008601528c601f541685516008101562001c58576101208601528c6021541685516009101562001c58576101408601528c602254168551600a101562001c58576101608601528c602354168551600b101562001c58576101808601528c8b54168551600c101562001c58576101a08601528c895416918551600d101562001c455750908c9392918501528c6033541617603355541693898154168a60055416918a519961112891828c01968c88109088111762001c335750509160c093918a999896979593620055588b3960a08401958452878401528a83015230606083015260a06080830152518093520193928a5b82811062001c1a575050505050039085f090811562001c1157501690600954161760095580f35b513d85823e3d90fd5b84518a1686528796509481019493810193830162001bea565b8f90604190634e487b7160e01b835252fd5b8b9089634e487b7160e01b600052526000fd5b8b838a634e487b7160e01b600052526000fd5b8a8289634e487b7160e01b600052526000fd5b60058e8183101562001ce65762001c95836200328a565b905490881b1c1690875183101562001cd35782901b8701890152600019811462001cc25789018962001aa8565b50634e487b7160e01b8f528752898efd5b8d858c634e487b7160e01b600052526000fd5b505062001aae565b89604188634e487b7160e01b600052526000fd5b8a8589634e487b7160e01b600052526000fd5b898488634e487b7160e01b600052526000fd5b62001d44919250863d881162000e3f5762000e2e818362003332565b903862001a0d565b8c51903d90823e3d90fd5b8b868a634e487b7160e01b600052526000fd5b62001d86919350863d881162000e3f5762000e2e818362003332565b91386200195a565b62001da99150863d881162000e3f5762000e2e818362003332565b38620018aa565b62001dcc919750853d871162000e3f5762000e2e818362003332565b9538620017fb565b8a513d8f823e3d90fd5b878286634e487b7160e01b600052526000fd5b62001e0c9150843d861162000e3f5762000e2e818362003332565b386200174f565b89513d8e823e3d90fd5b62001e389150853d871162000e3f5762000e2e818362003332565b3862001708565b62001e5a9150853d871162000e3f5762000e2e818362003332565b38620016be565b87513d8c823e3d90fd5b888d604188634e487b7160e01b835252fd5b8162001e999296503d871162000e3f5762000e2e818362003332565b933862001629565b86513d8b823e3d90fd5b62001ec69150843d861162000e3f5762000e2e818362003332565b38620015e3565b62001ee89150843d861162000e3f5762000e2e818362003332565b3862001594565b62001f0a9150843d861162000e3f5762000e2e818362003332565b386200154a565b62001f2c9150843d861162000e3f5762000e2e818362003332565b3862001500565b62001f4e9150843d861162000e3f5762000e2e818362003332565b38620014b6565b62001f709150843d861162000e3f5762000e2e818362003332565b386200146c565b62001f929150843d861162000e3f5762000e2e818362003332565b3862001422565b62001fb49150843d861162000e3f5762000e2e818362003332565b38620013dd565b8951903d90823e3d90fd5b62001fe19150843d861162000e3f5762000e2e818362003332565b386200138d565b8a51903d90823e3d90fd5b6200200e9150873d891162000e3f5762000e2e818362003332565b386200133e565b620020309150843d861162000e3f5762000e2e818362003332565b38620012f3565b8b51903d90823e3d90fd5b6200205e919750853d871162000e3f5762000e2e818362003332565b9538620012a3565b620020819150863d881162000e3f5762000e2e818362003332565b386200125b565b620020a4919a50843d861162000e3f5762000e2e818362003332565b983862001206565b88513d8d823e3d90fd5b606485602088519162461bcd60e51b8352820152601960248201527f686578626173652e616c72656164792e7375626d6974746564000000000000006044820152fd5b606485602088519162461bcd60e51b8352820152600e60248201527f4e6f7420617574686f72697a65640000000000000000000000000000000000006044820152fd5b600080fd5b83823462000663578160031936011262000663576020906001600160a01b03603554169051908152f35b83346200059c5760203660031901126200059c5762002189620032c2565b6001600160a01b0390620021a3826006541633146200338d565b166001600160a01b0319600a541617600a5580f35b83823462000663578160031936011262000663576020906001600160a01b03602454169051908152f35b83823462000663578160031936011262000663576020906008549051908152f35b83823462000663578160031936011262000663576020906001600160a01b03600954169051908152f35b83346200059c5760203660031901126200059c576200224b620032c2565b6001600160a01b039062002265826006541633146200338d565b166001600160a01b0319602954161760295580f35b83346200059c5760203660031901126200059c5762002298620032c2565b6001600160a01b0390620022b2826006541633146200338d565b166001600160a01b0319600b541617600b5580f35b83346200059c5760203660031901126200059c57620022e5620032c2565b6001600160a01b0319600654916001600160a01b03906200230a33838616146200338d565b1691161760065580f35b83346200059c5760203660031901126200059c5762002332620032c2565b6001600160a01b03906200234c826006541633146200338d565b166001600160a01b0319602854161760285580f35b83346200059c5760203660031901126200059c576200237f620032c2565b6001600160a01b039062002399826006541633146200338d565b166001600160a01b0319601554161760155580f35b83346200059c5760203660031901126200059c57620023cc620032c2565b6001600160a01b0390620023e6826006541633146200338d565b166001600160a01b0319600d541617600d5580f35b83346200059c5760203660031901126200059c5762002419620032c2565b6001600160a01b039062002433826006541633146200338d565b166001600160a01b0319602b541617602b5580f35b83346200059c5760203660031901126200059c5762002466620032c2565b6001600160a01b039062002480826006541633146200338d565b166001600160a01b0319601054161760105580f35b83346200059c5760203660031901126200059c57620024b3620032c2565b6001600160a01b0390620024cd826006541633146200338d565b166001600160a01b0319601e541617601e5580f35b83346200059c5760203660031901126200059c5762002500620032c2565b6001600160a01b03906200251a826006541633146200338d565b166001600160a01b0319602754161760275580f35b83823462000663578160031936011262000663576020906001600160a01b03600354169051908152f35b83823462000663578160031936011262000663576020906001600160a01b038254169051908152f35b83823462000663578160031936011262000663576020906001600160a01b03600154169051908152f35b83346200059c5760203660031901126200059c57620025ca620032c2565b6001600160a01b0390620025e4826006541633146200338d565b166001600160a01b0319601454161760145580f35b83823462000663578160031936011262000663576020906001600160a01b03602154169051908152f35b83346200059c5760203660031901126200059c5762002641620032c2565b6001600160a01b03906200265b826006541633146200338d565b166001600160a01b0319603254161760325580f35b83823462000663578160031936011262000663576020906001600160a01b03603154169051908152f35b83823462000663578160031936011262000663576020906001600160a01b03601e54169051908152f35b9091503462000bca57602036600319011262000bca573591601b548310156200059c57506001600160a01b03602092601b6000527f3ad8aa4f87544323a9d1e5dd902f40c356527a7955687113db5f9a85ad579dc10154169051908152f35b83823462000663578160031936011262000663576020906001600160a01b03602f54169051908152f35b9091503462000bca57602036600319011262000bca5735916017548310156200059c57506001600160a01b0362000c5a60209362003252565b83823462000663578160031936011262000663576020906001600160a01b03603254169051908152f35b83823462000663578160031936011262000663576020906001600160a01b03600a54169051908152f35b83346200059c5760203660031901126200059c57620027f8620032c2565b6001600160a01b039062002812826006541633146200338d565b166001600160a01b0319600e541617600e5580f35b83346200059c5760203660031901126200059c5762002845620032c2565b6001600160a01b03906200285f826006541633146200338d565b166001600160a01b0319602454161760245580f35b83823462000663578160031936011262000663576020906001600160a01b03603454169051908152f35b83346200059c5760203660031901126200059c57620028bc620032c2565b6001600160a01b0390620028d6826006541633146200338d565b166001600160a01b0319600754161760075580f35b83346200059c5760203660031901126200059c5762002909620032c2565b6001600160a01b039062002923826006541633146200338d565b166001600160a01b0319603554161760355580f35b83823462000663578160031936011262000663576020906001600160a01b03600254169051908152f35b83823462000663578160031936011262000663576020906001600160a01b03601454169051908152f35b83823462000663578160031936011262000663576020906001600160a01b03601354169051908152f35b83823462000663578160031936011262000663576020906001600160a01b03603654169051908152f35b83346200059c5760203660031901126200059c57620029fe620032c2565b6001600160a01b039062002a18826006541633146200338d565b166001600160a01b0319602f541617602f5580f35b83346200059c5760203660031901126200059c5762002a4b620032c2565b6001600160a01b039062002a65826006541633146200338d565b166001600160a01b0319602054161760205580f35b92509034620007f8576020366003190112620007f8576001600160a01b0362002aa26200321d565b90549060031b1c1691823b15620007f357839260248492845195869384927f3676bd1f0000000000000000000000000000000000000000000000000000000084528035908401525af1908115620007ea5750620007d75750f35b83346200059c5760203660031901126200059c5762002b1a620032c2565b6001600160a01b039062002b34826006541633146200338d565b166001600160a01b0319602a541617602a5580f35b83823462000663578160031936011262000663576020906001600160a01b03602254169051908152f35b83346200059c5760203660031901126200059c5762002b91620032c2565b6001600160a01b039062002bab826006541633146200338d565b166001600160a01b0319602654161760265580f35b83823462000663578160031936011262000663576020906001600160a01b03602354169051908152f35b83346200059c5760203660031901126200059c5762002c08620032c2565b6001600160a01b039062002c22826006541633146200338d565b166001600160a01b0319603354161760335580f35b83346200059c5760203660031901126200059c5762002c55620032c2565b6001600160a01b039062002c6f826006541633146200338d565b166001600160a01b0319601354161760135580f35b83823462000663578160031936011262000663576020906001600160a01b03602554169051908152f35b83346200059c5760203660031901126200059c5762002ccc620032c2565b6001600160a01b039062002ce6826006541633146200338d565b166001600160a01b0319602354161760235580f35b83823462000663578160031936011262000663576020906001600160a01b03603354169051908152f35b83346200059c5760203660031901126200059c5762002d43620032c2565b6001600160a01b039062002d5d826006541633146200338d565b166001600160a01b0319601c541617601c5580f35b83346200059c5760203660031901126200059c5762002d90620032c2565b6001600160a01b039062002daa826006541633146200338d565b166001600160a01b0319603054161760305580f35b83823462000663578160031936011262000663576020906001600160a01b03600654169051908152f35b83346200059c5760603660031901126200059c576200090d62002e0b620032c2565b62002e15620032d9565b62002e1f620032f0565b9162002e386001600160a01b036006541633146200338d565b62003407565b83346200059c5760203660031901126200059c5762002e5c620032c2565b6001600160a01b039062002e76826006541633146200338d565b166001600160a01b0319601f541617601f5580f35b83346200059c5760203660031901126200059c5762002ea9620032c2565b6001600160a01b039062002ec3826006541633146200338d565b166001600160a01b0319600954161760095580f35b83346200059c5760203660031901126200059c5762002ef6620032c2565b6001600160a01b039062002f10826006541633146200338d565b166001600160a01b0319601d541617601d5580f35b83346200059c5760203660031901126200059c5762002f43620032c2565b6001600160a01b039062002f5d826006541633146200338d565b166001600160a01b0319603454161760345580f35b83823462000663578160031936011262000663576020906001600160a01b03603754169051908152f35b83346200059c5760203660031901126200059c5762002fba620032c2565b6001600160a01b039062002fd4826006541633146200338d565b166001600160a01b0319602d541617602d5580f35b83346200059c5760203660031901126200059c5762003007620032c2565b6001600160a01b039062003021826006541633146200338d565b166001600160a01b0319602154161760215580f35b91503462000bca578260031936011262000bca57620030546200321d565b92906001600160a01b03938491549060031b1c1692601654156200311157908491601683527fd833147d7dc355ba459fc788f669e58cfaf9dc25ddcd0702e87d69c7b5124289541690843b1562000bca5760849083855196879485937f9fb3953b00000000000000000000000000000000000000000000000000000000855284015260056024840152600a6044840152678ac7230489e8000060648401525af1908115620007ea575062003106575080f35b6200090d9062003307565b602485603284634e487b7160e01b835252fd5b83823462000663578160031936011262000663576020906001600160a01b03602a54169051908152f35b83346200059c5760203660031901126200059c576200316c620032c2565b6001600160a01b039062003186826006541633146200338d565b166001600160a01b0319602554161760255580f35b9091503462000bca57602036600319011262000bca5735916008548310156200059c57506001600160a01b0362000c5a6020935b600854811015620032075760086000527ff3f7a9fe364faab93b216da50a3214154f22a0a2b415b23a84c8169e8b636ee30190600090565b634e487b7160e01b600052603260045260246000fd5b60085415620032075760086000527ff3f7a9fe364faab93b216da50a3214154f22a0a2b415b23a84c8169e8b636ee390600090565b601754811015620032075760176000527fc624b66cc0138b8fabc209247f72d758e1cf3343756d543badbf24212bed8c150190600090565b601654811015620032075760166000527fd833147d7dc355ba459fc788f669e58cfaf9dc25ddcd0702e87d69c7b51242890190600090565b600435906001600160a01b03821682036200213c57565b602435906001600160a01b03821682036200213c57565b604435906001600160a01b03821682036200213c57565b67ffffffffffffffff81116200331c57604052565b634e487b7160e01b600052604160045260246000fd5b90601f8019910116810190811067ffffffffffffffff8211176200331c57604052565b60609060031901126200213c576001600160a01b039060043582811681036200213c579160243590811681036200213c579060443590565b156200339557565b606460405162461bcd60e51b815260206004820152600f60248201527f6f776e2e6e6f6e617574682e44414f00000000000000000000000000000000006044820152fd5b60085490680100000000000000008210156200331c57620006d3826001620034059401600855620031cf565b565b90601654680100000000000000008110156200331c5782620006d38260016200343494016016556200328a565b6001600160a01b0392838092168062003499575b50168062003473575b50168060005260186020526040600020906001600160a01b0319825416179055565b600052601860205260406000208282166001600160a01b03198254161790553862003451565b600052601860205260406000208284166001600160a01b03198254161790553862003448565b908160209103126200213c57516001600160a01b03811681036200213c579056fe60803461009757601f61207738819003918201601f19168301916001600160401b0383118484101761009c5780849260209460405283398101031261009757516001600160a01b038116908190036100975780156100855760018060a01b03193381600154161760015560005416176000556001600255604051611fc490816100b38239f35b60405163e6c4247b60e01b8152600490fd5b600080fd5b634e487b7160e01b600052604160045260246000fdfe60806040526004361015610018575b361561001657005b005b60003560e01c80631133b8861461016857806312065fe0146101635780631f185d161461015e5780633b9b7955146101595780636ec35cd5146101545780638da5cb5b1461014f5780638dab13dc1461014a5780639498d88b146101455780639b03bea6146101405780639fb2726b1461013b578063a1f7f53914610136578063ae9568d714610131578063af4845261461012c578063b90306ad14610127578063c54e44b014610122578063d7a83fc61461011d578063e01ad5fd14610118578063e0a9bc2b14610113578063e3d1d5bf1461010e578063f5caf38c146101095763fdc10bc90361000e57610bfa565b610bbc565b610b16565b610afb565b610a61565b610a21565b61099b565b610914565b6108e3565b610899565b6107db565b6106c6565b61067e565b6105a7565b610504565b6104dd565b6103bc565b610364565b610216565b6101fa565b6101ab565b6001600160a01b0381160361017e57565b600080fd5b604090600319011261017e5760043561019b8161016d565b906024356101a88161016d565b90565b3461017e57602060ff6101ee6001600160a01b036101c836610183565b9116600052600384526040600020906001600160a01b0316600052602052604060002090565b54166040519015158152f35b3461017e57600036600319011261017e57602047604051908152f35b3461017e5760208060031936011261017e576004356102348161016d565b60048261025861024c6000546001600160a01b031690565b6001600160a01b031690565b60405192838092634bf9c0ad60e11b82525afa801561035f576102c0926102a49260009261032c575b506102b2906040519384918783019190916001600160a01b036020820193169052565b03601f198101845283610d0e565b6102ba611c63565b90611e68565b919080610322575b156102f85781816102e2926102f494518301019101611ac3565b60405190151581529081906020820190565b0390f35b60046040517f3204506f000000000000000000000000000000000000000000000000000000008152fd5b50808251146102c8565b6102b291925061035190863d8811610358575b6103498183610d0e565b810190610d30565b9190610281565b503d61033f565b610d45565b3461017e57600036600319011261017e5760206001600160a01b0360005416604051908152f35b9181601f8401121561017e5782359167ffffffffffffffff831161017e576020808501948460051b01011161017e57565b3461017e57606036600319011261017e57600467ffffffffffffffff813581811161017e576103ee903690840161038b565b9160243581811161017e57610406903690860161038b565b9160443590811161017e5761041e903690870161038b565b94909361043061042c611ad8565b1590565b6104cd5761043d33611bd0565b8015610463575b156104535761001696506113eb565b8660405163ea8e4eb560e01b8152fd5b5086602061047c61024c6000546001600160a01b031690565b60405192838092630536340960e21b82525afa90811561035f576000916104af575b506001600160a01b03163314610444565b6104c7915060203d8111610358576103498183610d0e565b3861049e565b86604051634ee2123760e11b8152fd5b3461017e57600036600319011261017e5760206001600160a01b0360015416604051908152f35b3461017e57602036600319011261017e576004356105218161016d565b6001600160a01b038091166000526006602052806040600020541690600760205260406000205416908060005260036020526102f460ff610579846040600020906001600160a01b0316600052602052604060002090565b54166040519384938491939260409160608401956001600160a01b0380921685521660208401521515910152565b3461017e57602036600319011261017e576004356105c48161016d565b6105cf61042c611ad8565b61066d576105dc33611bd0565b8015610602575b156105f15761001690611887565b600460405163ea8e4eb560e01b8152fd5b506004602061061c61024c6000546001600160a01b031690565b60405192838092630536340960e21b82525afa90811561035f5760009161064f575b506001600160a01b031633146105e3565b610667915060203d8111610358576103498183610d0e565b3861063e565b6004604051634ee2123760e11b8152fd5b3461017e57602036600319011261017e576001600160a01b036004356106a38161016d565b1660005260086020526020604060002054604051908152f35b8015150361017e57565b3461017e57608036600319011261017e57600467ffffffffffffffff813581811161017e576106f8903690840161038b565b909160243590811161017e57610711903690850161038b565b906044359261071f846106bc565b61072a61042c611ad8565b6107cb5761073733611bd0565b8015610761575b15610751576100169550606435946114ac565b8560405163ea8e4eb560e01b8152fd5b5085602061077a61024c6000546001600160a01b031690565b60405192838092630536340960e21b82525afa90811561035f576000916107ad575b506001600160a01b0316331461073e565b6107c5915060203d8111610358576103498183610d0e565b3861079c565b85604051634ee2123760e11b8152fd5b3461017e57600036600319011261017e57600460206001600160a01b03600054166040519283809263d1f956b160e01b82525afa90811561035f576102f49161086b9160009161087b575b5060405161083381610cd1565b601381527f67657464656c656761746f72436f756e742829000000000000000000000000006020820152610865610d6d565b91611f52565b6040519081529081906020820190565b610893915060203d8111610358576103498183610d0e565b38610826565b3461017e5760206108da6001600160a01b036108b436610183565b9116600052600483526040600020906001600160a01b0316600052602052604060002090565b54604051908152f35b3461017e57602036600319011261017e57602061090a6004356109058161016d565b611bd0565b6040519015158152f35b3461017e57602036600319011261017e5760046001600160a01b03602061094582600054166001600160a01b031690565b60405193848092630536340960e21b82525afa91821561035f5760009261097b575b50339116036105f157610016600435611d05565b61099491925060203d8111610358576103498183610d0e565b9038610967565b3461017e57602036600319011261017e576004356109b88161016d565b803b60006109c582610d51565b926109d36040519485610d0e565b82845260208401903c602d8151106109f757602a602091015160601c604051908152f35b60046040517fbaf3f0f7000000000000000000000000000000000000000000000000000000008152fd5b3461017e57602036600319011261017e576020600435610a408161016d565b6001600160a01b038091166000526005825260406000205416604051908152f35b3461017e5760208060031936011261017e5760048035610a808161016d565b6001600160a01b03928084600054166040519485809263d1f956b160e01b82525afa90811561035f576102f4946102e294600093610adc575b506040519316818401528252610ace82610cd1565b610ad6611c9c565b90611f16565b610af4919350823d8411610358576103498183610d0e565b9138610ab9565b3461017e57600036600319011261017e57602061090a611ad8565b3461017e57610b2436610183565b610b2f61042c611ad8565b61066d57610b3c33611bd0565b8015610b51575b156105f157610016916115c0565b5060046020610b6b61024c6000546001600160a01b031690565b60405192838092630536340960e21b82525afa90811561035f57600091610b9e575b506001600160a01b03163314610b43565b610bb6915060203d8111610358576103498183610d0e565b38610b8d565b3461017e57606036600319011261017e57610016600435610bdc8161016d565b602435610be88161016d565b60443591610bf5836106bc565b610e6b565b3461017e57600036600319011261017e57600460206001600160a01b0360005416604051928380927f447aa3040000000000000000000000000000000000000000000000000000000082525afa90811561035f576102f49161086b91600091610c9d575b50604051610c6b81610cd1565b600581527f61676528290000000000000000000000000000000000000000000000000000006020820152610865610d6d565b610cb5915060203d8111610358576103498183610d0e565b38610c5e565b634e487b7160e01b600052604160045260246000fd5b6040810190811067ffffffffffffffff821117610ced57604052565b610cbb565b6020810190811067ffffffffffffffff821117610ced57604052565b90601f8019910116810190811067ffffffffffffffff821117610ced57604052565b9081602091031261017e57516101a88161016d565b6040513d6000823e3d90fd5b67ffffffffffffffff8111610ced57601f01601f191660200190565b60405190610d7a82610cf2565b60008252565b60405190610d8d82610cd1565b601682527f67657455736572546f496e7374286164647265737329000000000000000000006020830152565b634e487b7160e01b600052601160045260246000fd5b600019810191908211610dde57565b610db9565b91908203918211610dde57565b604051610dfc81610cf2565b60008152906000368137565b60405190610e1582610cd1565b601082527f6d61784d61707065644c696d69742829000000000000000000000000000000006020830152565b9081602091031261017e575190565b9060018201809211610dde57565b91908201809211610dde57565b92916001600160a01b0393848116156113aa578483169283156113aa57610ece61042c610ec733610eaf856001600160a01b03166000526003602052604060002090565b906001600160a01b0316600052602052604060002090565b5460ff1690565b61138057610ee761024c6000546001600160a01b031690565b604096875180927fab6e844f00000000000000000000000000000000000000000000000000000000825281600460209586935afa801561035f57610f6661024c91610f7493600091611363575b508b5190610f58826102a48b8a83019190916001600160a01b036020820193169052565b610f60610d80565b90611e3d565b848082518301019101610d30565b1561135357610fa6610f99336001600160a01b03166000526005602052604060002090565b546001600160a01b031690565b85156111d357166111aa5780600491610fca61024c6000546001600160a01b031690565b8951938480927fcfbffe530000000000000000000000000000000000000000000000000000000082525afa90811561035f5761102161102e926110559460009161118d575b50611018610df0565b90610f60610e08565b8051810182019101610e41565b61104f33610eaf856001600160a01b03166000526004602052604060002090565b54101590565b611164577f73e162dc4d0165c5ab2c676b5ce1e58e8333a5e1b0e75ea3957f2ca0aa8abc2e93949561112d826110cd61115f946110a5876001600160a01b03166000526006602052604060002090565b906001600160a01b031673ffffffffffffffffffffffffffffffffffffffff19825416179055565b6110ee336110a5876001600160a01b03166000526007602052604060002090565b61110f856110a5336001600160a01b03166000526005602052604060002090565b610eaf33916001600160a01b03166000526004602052604060002090565b6111378154610e50565b9055513381526001600160a01b03909216602083015291151560408201529081906060820190565b0390a2565b600486517fb111d8ef000000000000000000000000000000000000000000000000000000008152fd5b6111a49150833d8511610358576103498183610d0e565b3861100f565b600487517f548635ce000000000000000000000000000000000000000000000000000000008152fd5b9350935050939492508181161561134d576112d4927f73e162dc4d0165c5ab2c676b5ce1e58e8333a5e1b0e75ea3957f2ca0aa8abc2e61129e9361122d610f99856001600160a01b03166000526006602052604060002090565b61127b85611251610f99826001600160a01b03166000526007602052604060002090565b95516001600160a01b03968716815295166020860152600060408601529116929081906060820190565b0390a26112bb61129e826001600160a01b03166000526006602052604060002090565b73ffffffffffffffffffffffffffffffffffffffff198154169055565b6001600160a01b03166000526007602052604060002090565b6112f461129e336001600160a01b03166000526005602052604060002090565b61131533610eaf836001600160a01b03166000526004602052604060002090565b5461131d5750565b61133f90610eaf33916001600160a01b03166000526004602052604060002090565b6113498154610dcf565b9055565b50505050565b6004885163d92e233d60e01b8152fd5b61137a9150863d8811610358576103498183610d0e565b38610f34565b60046040517f747845de000000000000000000000000000000000000000000000000000000008152fd5b600460405163d92e233d60e01b8152fd5b91908110156113cb5760051b0190565b634e487b7160e01b600052603260045260246000fd5b356101a88161016d565b93949092919281830361148257600091825b84811061140e575050505050505050565b8061147c61141f600193858c6113bb565b35611429816106bc565b6001600160a01b0361143c84888d6113bb565b356114468161016d565b168752600360205261146b60408820611460858b8d6113bb565b3590610eaf8261016d565b9060ff801983541691151516179055565b016113fd565b60046040517fff633a38000000000000000000000000000000000000000000000000000000008152fd5b92918282036114825760005b8281106114c85750505050505050565b851561158e57866114fe6114e56114e084878a6113bb565b6113e1565b6001600160a01b03166000526009602052604060002090565b540361152e5760046040517fe3913549000000000000000000000000000000000000000000000000000000008152fd5b80876115436114e56114e0600195888b6113bb565b5561154f8186856113bb565b3561158561157d6115646114e085898c6113bb565b6001600160a01b03166000526008602052604060002090565b918254610e5e565b90555b016114b8565b8061159c60019286856113bb565b356115b96115b16115646114e085898c6113bb565b918254610de3565b9055611588565b906001600160a01b038083169081156113aa57821680156113aa57036115e4575050565b816117a8916116086000946001600160a01b03166000526008602052604060002090565b54611626826001600160a01b03166000526008602052604060002090565b5561166761164a610f99846001600160a01b03166000526006602052604060002090565b6110a5836001600160a01b03166000526006602052604060002090565b6116a761168a610f99846001600160a01b03166000526007602052604060002090565b6110a5836001600160a01b03166000526007602052604060002090565b6116e7816110a56116ce610f99836001600160a01b03166000526007602052604060002090565b6001600160a01b03166000526005602052604060002090565b611722611707836001600160a01b03166000526009602052604060002090565b54916001600160a01b03166000526009602052604060002090565b5582611741826001600160a01b03166000526008602052604060002090565b5561176861129e6116ce610f99846001600160a01b03166000526007602052604060002090565b61178861129e826001600160a01b03166000526006602052604060002090565b6114e561129e826001600160a01b03166000526007602052604060002090565b55565b604051906060820182811067ffffffffffffffff821117610ced57604052602482527f65737329000000000000000000000000000000000000000000000000000000006040837f67657456616c696461746f7244656c656761746f724f6655736572286164647260208201520152565b9081606091031261017e5780516118318161016d565b91604060208301516118428161016d565b9201516101a8816106bc565b6040519061185b82610cd1565b601182527f696e636f6d654f662861646472657373290000000000000000000000000000006020830152565b6001600160a01b0390818116156113aa576118ad61024c6000546001600160a01b031690565b604051907f6325dd0400000000000000000000000000000000000000000000000000000000908183526020908184600481845afa91821561035f578694600093611aa4575b50806119446119366040518061191a8b8683019190916001600160a01b036020820193169052565b039661192e601f1998898101845283610d0e565b610f606117ab565b82808251830101910161181b565b97919990991698169460046040518095819382525afa96871561035f57611a436110a5966119c289610eaf95611a819c611a5c998b99600092611a83575b506119b491926119a860405195869283019190916001600160a01b036020820193169052565b03908101845283610d0e565b6119bc61184e565b90611f52565b6119df8a6001600160a01b03166000526008602052604060002090565b55611a01836110a58b6001600160a01b03166000526006602052604060002090565b611a22856110a58b6001600160a01b03166000526007602052604060002090565b61146b85610eaf856001600160a01b03166000526003602052604060002090565b6001600160a01b03166000526004602052604060002090565b611a668154610e50565b90556001600160a01b03166000526005602052604060002090565b565b6119b49250611a9e90843d8611610358576103498183610d0e565b91611982565b81611abc9294503d8511610358576103498183610d0e565b91386118f2565b9081602091031261017e57516101a8816106bc565b6001600160a01b03600054166040518091634bf9c0ad60e11b825281600460209485935afa801561035f57611b5391600091611b7a575b50604051611b1c81610cd1565b600881527f697353616665282900000000000000000000000000000000000000000000000084820152611b4d610d6d565b91611e68565b9080611b70575b156102f857816101a89282518301019101611ac3565b5081815114611b5a565b611b919150833d8511610358576103498183610d0e565b38611b0f565b60405190611ba482610cd1565b601582527f69735365637572654261736528616464726573732900000000000000000000006020830152565b611be561024c6000546001600160a01b031690565b906040518092634bf9c0ad60e11b825281600460209586935afa801561035f57611b53926102a492600092611c40575b50611c38906040519384918783019190916001600160a01b036020820193169052565b6102ba611b97565b611c38919250611c5c90863d8811610358576103498183610d0e565b9190611c15565b60405190611c7082610cd1565b601182527f69735369676e65722861646472657373290000000000000000000000000000006020830152565b60405190611ca982610cd1565b601882527f697364656c656761746f724e6f646528616464726573732900000000000000006020830152565b3d15611d00573d90611ce682610d51565b91611cf46040519384610d0e565b82523d6000602084013e565b606090565b6000611d1b61024c82546001600160a01b031690565b9060405180927f46f991ac00000000000000000000000000000000000000000000000000000000825281600460209586935afa801561035f5782808681949382948391611e20575b505af1611d6e611cd5565b50156102f857600482611d8b61024c84546001600160a01b031690565b604051928380927f5e09dbe70000000000000000000000000000000000000000000000000000000082525afa90811561035f577fcdcc745fe377b103b45fa0cec23ae3ef93d6fc6a84a01f0d18c40b354dd1d5d8936001600160a01b039392611e03575b50506040519384521691806020810161115f565b611e199250803d10610358576103498183610d0e565b3880611def565b611e379150883d8a11610358576103498183610d0e565b38611d63565b90611e489291611e68565b9060009015611e55575090565b6040519150611e6382610cf2565b815290565b9190823b15611efd577fffffffff00000000000000000000000000000000000000000000000000000000815160208093012016916040519180830193845281519160005b838110611ee9575050509181611ed960248260009795968897018783820152036004810184520182610d0e565b51915afa611ee5611cd5565b9091565b818101830151858201602401528201611eac565b505050600090604051611f0f81610cf2565b6000815290565b9291611f2491600094611e68565b9080611f47575b611f325750565b6101a891925060208082518301019101611ac3565b506020815114611f2b565b9291611f6091600094611e68565b9080611f83575b611f6e5750565b6101a891925060208082518301019101610e41565b506020815114611f6756fea26469706673582212203ee3f9349018d639bc04a36ad5449516521d2c0b480ba47ddc9198f061dd73ff64736f6c6343000814003360406080815234620001f55762001128803803806200001e8162000210565b928339810160a082820312620001f557620000398262000236565b9160206200004981830162000236565b906200005786840162000236565b92620000666060820162000236565b608082015190916001600160401b039190828211620001f557019580601f88011215620001f5578651918211620001fa5760059682881b908580620000ad81850162000210565b809681520192820101928311620001f55785809101915b838310620001da575050506001600160a01b039283169590508515620001c95760018054600080546001600160a01b03191690981788556001600160a81b0319163360ff60a01b191617600160a01b178155978316865260038452888620805460ff199081168a1790915594831686528886208054861689179055821685528785208054851688179055805195855b8781106200016a578951610edc90816200024c8239f35b8251811015620001b55780821b83018501518416875260028552898720805487168a1790556000198114620001a157880162000153565b634e487b7160e01b87526011600452602487fd5b634e487b7160e01b87526032600452602487fd5b885163e6c4247b60e01b8152600490fd5b8190620001e78462000236565b8152019101908590620000c4565b600080fd5b634e487b7160e01b600052604160045260246000fd5b6040519190601f01601f191682016001600160401b03811183821017620001fa57604052565b51906001600160a01b0382168203620001f55756fe60806040526004361015610018575b361561001657005b005b60003560e01c806312065fe0146101285780631d0c00e4146101235780631f185d161461011e5780633b9b7955146101195780636a276f9d146101145780637df73e271461010f57806384a8d0451461010a5780638da5cb5b14610105578063a1f7f53914610100578063af484526146100fb578063b90306ad146100f6578063c54e44b0146100f1578063dc3163e8146100ec578063e01ad5fd146100e7578063e0a9bc2b146100e2578063ef9eab9d146100dd5763fdc10bc90361000e57610982565b61093f565b6108ba565b610820565b61077d565b6106f7565b610670565b6105c3565b610505565b6104de565b610424565b6103e1565b6103bb565b610394565b61025b565b61018c565b3461014457600036600319011261014457602047604051908152f35b600080fd5b6001600160a01b0381160361014457565b8015150361014457565b60409060031901126101445760043561017c81610149565b906024356101898161015a565b90565b346101445761019a36610164565b906001600160a01b0391600092600460208286541660405192838092630536340960e21b82525afa908115610256578591610228575b5081339116036101fe576101fb921683526002602052604083209060ff801983541691151516179055565b80f35b60046040517fea8e4eb5000000000000000000000000000000000000000000000000000000008152fd5b610249915060203d811161024f575b6102418183610aaf565b810190610ad1565b386101d0565b503d610237565b610ae6565b34610144576020806003193601126101445760043561027981610149565b60048261029d6102916000546001600160a01b031690565b6001600160a01b031690565b60405192838092634bf9c0ad60e11b82525afa801561025657610305926102e992600092610371575b506102f7906040519384918783019190916001600160a01b036020820193169052565b03601f198101845283610aaf565b6102ff610ba8565b90610d7e565b919080610367575b1561033d5781816103279261033994518301019101610b5a565b60405190151581529081906020820190565b0390f35b60046040517f3204506f000000000000000000000000000000000000000000000000000000008152fd5b508082511461030d565b6102f791925061038d90863d881161024f576102418183610aaf565b91906102c6565b346101445760003660031901126101445760206001600160a01b0360005416604051908152f35b3461014457600036600319011261014457602060ff60015460a01c166040519015158152f35b34610144576020366003190112610144576001600160a01b0360043561040681610149565b166000526003602052602060ff604060002054166040519015158152f35b34610144576020366003190112610144576004356104418161015a565b60046001600160a01b03602061046182600054166001600160a01b031690565b60405193848092630536340960e21b82525afa918215610256576000926104be575b50339116036101fe576100169060ff60a01b1974ff000000000000000000000000000000000000000060015492151560a01b16911617600155565b6104d791925060203d811161024f576102418183610aaf565b9038610483565b346101445760003660031901126101445760206001600160a01b0360015416604051908152f35b3461014457600036600319011261014457600460206001600160a01b03600054166040519283809263d1f956b160e01b82525afa9081156102565761033991610595916000916105a5575b5060405161055d81610a72565b601381527f67657464656c656761746f72436f756e74282900000000000000000000000000602082015261058f610b0e565b91610e68565b6040519081529081906020820190565b6105bd915060203d811161024f576102418183610aaf565b38610550565b3461014457602080600319360112610144576004356105e181610149565b6004826105f96102916000546001600160a01b031690565b60405192838092634bf9c0ad60e11b82525afa801561025657610305926102e99260009261064d575b50610645906040519384918783019190916001600160a01b036020820193169052565b6102ff610b6f565b61064591925061066990863d881161024f576102418183610aaf565b9190610622565b346101445760203660031901126101445760046001600160a01b0360206106a182600054166001600160a01b031690565b60405193848092630536340960e21b82525afa918215610256576000926106d7575b50339116036101fe57610016600435610c4a565b6106f091925060203d811161024f576102418183610aaf565b90386106c3565b346101445760203660031901126101445760043561071481610149565b803b600061072182610af2565b9261072f6040519485610aaf565b82845260208401903c602d81511061075357602a602091015160601c604051908152f35b60046040517fbaf3f0f7000000000000000000000000000000000000000000000000000000008152fd5b346101445761078b36610164565b6001600160a01b03600092600460208386541660405192838092630536340960e21b82525afa908115610256578591610802575b5082339116036101fe5716825260036020526107ea81604084209060ff801983541691151516179055565b156107f25780f35b60ff60a01b196001541660015580f35b61081a915060203d811161024f576102418183610aaf565b386107bf565b3461014457602080600319360112610144576004803561083f81610149565b6001600160a01b03928084600054166040519485809263d1f956b160e01b82525afa90811561025657610339946103279460009361089b575b50604051931681840152825261088d82610a72565b610895610be1565b90610e2c565b6108b3919350823d841161024f576102418183610aaf565b9138610878565b34610144576000366003190112610144576108e06102916000546001600160a01b031690565b6040518091634bf9c0ad60e11b825281600460209485935afa80156102565761030591600091610922575b50610914610b21565b61091c610b0e565b91610d7e565b6109399150833d851161024f576102418183610aaf565b3861090b565b34610144576020366003190112610144576001600160a01b0360043561096481610149565b166000526002602052602060ff604060002054166040519015158152f35b3461014457600036600319011261014457600460206001600160a01b0360005416604051928380927f447aa3040000000000000000000000000000000000000000000000000000000082525afa908115610256576103399161059591600091610a25575b506040516109f381610a72565b600581527f6167652829000000000000000000000000000000000000000000000000000000602082015261058f610b0e565b610a3d915060203d811161024f576102418183610aaf565b386109e6565b7f4e487b7100000000000000000000000000000000000000000000000000000000600052604160045260246000fd5b6040810190811067ffffffffffffffff821117610a8e57604052565b610a43565b6020810190811067ffffffffffffffff821117610a8e57604052565b90601f8019910116810190811067ffffffffffffffff821117610a8e57604052565b90816020910312610144575161018981610149565b6040513d6000823e3d90fd5b67ffffffffffffffff8111610a8e57601f01601f191660200190565b60405190610b1b82610a93565b60008252565b60405190610b2e82610a72565b600882527f69735361666528290000000000000000000000000000000000000000000000006020830152565b9081602091031261014457516101898161015a565b60405190610b7c82610a72565b601582527f69735365637572654261736528616464726573732900000000000000000000006020830152565b60405190610bb582610a72565b601182527f69735369676e65722861646472657373290000000000000000000000000000006020830152565b60405190610bee82610a72565b601882527f697364656c656761746f724e6f646528616464726573732900000000000000006020830152565b3d15610c45573d90610c2b82610af2565b91610c396040519384610aaf565b82523d6000602084013e565b606090565b6000610c6061029182546001600160a01b031690565b9060405180927f46f991ac00000000000000000000000000000000000000000000000000000000825281600460209586935afa80156102565782808681949382948391610d61575b505af1610cb3610c1a565b501561033d57600482610cd061029184546001600160a01b031690565b604051928380927f5e09dbe70000000000000000000000000000000000000000000000000000000082525afa908115610256577fcdcc745fe377b103b45fa0cec23ae3ef93d6fc6a84a01f0d18c40b354dd1d5d8936001600160a01b039392610d44575b50506040519384521691602090a2565b610d5a9250803d1061024f576102418183610aaf565b3880610d34565b610d789150883d8a1161024f576102418183610aaf565b38610ca8565b9190823b15610e13577fffffffff00000000000000000000000000000000000000000000000000000000815160208093012016916040519180830193845281519160005b838110610dff575050509181610def60248260009795968897018783820152036004810184520182610aaf565b51915afa610dfb610c1a565b9091565b818101830151858201602401528201610dc2565b505050600090604051610e2581610a93565b6000815290565b9291610e3a91600094610d7e565b9080610e5d575b610e485750565b61018991925060208082518301019101610b5a565b506020815114610e41565b9291610e7691600094610d7e565b9080610e9b575b610e845750565b909150602081805181010312610144576020015190565b506020815114610e7d56fea26469706673582212209b7c32e0ffe6f9bac7ccf9556656ee74c8efa4a3d6ebcf695b3a6b27a8111d8164736f6c63430008140033a26469706673582212209972a5305ed4cd911c9b7ec8343f6acf2a352d529fc07df36360e88e2f0721d264736f6c63430008140033","linkReferences":{}},"methodIdentifiers":{"addOrc1155(address,address,address)":"1477e194","addOrc1155Prime(bytes,address)":"b113bd20","addProposer(address)":"b03cd418","daoassembly()":"d1f956b1","daocore()":"14d8d024","getProposalsCount()":"98e527d3","importRankBusiness(uint256,uint256)":"e981bcad","importuser(uint256)":"3676bd1f","in741()":"ab6e844f","in741Old()":"447aa304","in741Prime()":"a66bcbe2","in741PrimeOld()":"447bf0e2","in741Primev3Old()":"bd811bce","in741Rule()":"cfbffe53","in741RuleOld()":"bb245896","in741RulePrime()":"e1f4cd24","in741RulePrimeOld()":"efed51bb","inDEAD()":"46f991ac","inDeployerAService()":"677494d8","inDeployerAsRoot()":"de433f17","inImportForgePrimeold()":"e7531fc0","inInstance()":"e61dfd58","inInstancePrime()":"af233190","inInstanceStor()":"e09d394d","inNftFactory()":"08a887af","inNftProxy()":"43af1d9d","inOrc1155(uint256)":"b771c896","inOrc1155Old(uint256)":"c16addd0","inOrc1155OldV1(uint256)":"5c727e80","inOrc1155Prime(uint256)":"595e1dd2","inOrc1155PrimeOld()":"a7acacf8","inOrc1155PrimeOldV1()":"b3a86ab0","inOrc1155machinebullold()":"a5b277f2","inPrice()":"d3d1b096","inPrimeData()":"01c0d48b","inPrimeProxy()":"a0b8cbb8","inTransferPrimeold()":"f144dff0","inTransferold()":"c5a90db1","inTreaseryFactory()":"5e09dbe7","inTreaseryTVLMining()":"aa0ddc16","inTreaseryTVLMiningImport()":"21c82677","inTreaseryTVLMiningPrime()":"6b4aefc6","inTreaseryTVLReward()":"64027427","inTreaseryTVLRoyality()":"30125cf5","inTreaseryTVLTour()":"24768d91","inTreaseryTVLValidator()":"9dc969a8","inblank()":"448f3eef","incointransfer()":"1b4fc17b","infactoryold()":"5ad64af1","infactoryprimeold()":"da1be7d0","insafeguard()":"97f3815a","insafeguardOld()":"51ffe4c5","insafeguardPrime()":"af0deb95","insafeguardPrimeOld()":"a7d7fa50","invalidator()":"52b06d64","invalidatorOld()":"6325dd04","mapOldORC1155(address)":"cfaa1f6c","mapOldORC1155Prime(address)":"ed15cbf7","proposals(uint256)":"013cf08b","s1()":"6cc014de","s2()":"a314150f","s3()":"a5d666a9","submit(address,address,address,address,address)":"a11abe2a","testTxnSys()":"050564b3","update741(address)":"aeb14020","update741Old(address)":"236b0402","update741Prime(address)":"fc58f353","update741PrimeOld(address)":"66658584","update741Primev3Old(address)":"8360701d","update741Rule(address)":"753e7d33","update741RuleOld(address)":"507aa64f","update741RulePrime(address)":"cfacc010","update741RulePrimeOld(address)":"74dfe236","updateCoinTransfer(address)":"23db6149","updateDAOAssembly(address)":"45d96de8","updateDAOCore(address)":"891e91a5","updateDEAD(address)":"0a4c9939","updateFactoryOld(address)":"42ac8f79","updateFactoryPrimeOld(address)":"1654f331","updateImportForgePrimeold(address)":"74fad9f9","updateInTransferOld(address)":"a2672aa8","updateInTransferPrimeOld(address)":"069f3e72","updateInstance(address)":"275424d0","updateInstancePrime(address)":"839a47a4","updateInstanceStor(address)":"6fa16598","updateNftProxy(address)":"f6065649","updateOrc1155(address,address,uint256)":"cc7cf18e","updateOrc1155MachineBullOld(address)":"c7bb7d4d","updateOrc1155Prime(address,address,uint256)":"ef140ed3","updateOrc1155PrimeOld(address)":"1a47ded5","updateOrc1155PrimeOldV1(address)":"0c32145a","updatePrice(address)":"96e85ced","updatePrimeData(address)":"335ab5f2","updatePrimeProxy(address)":"4588d010","updateProposals(address,uint256)":"e0cf4e9e","updateSafeguard(address)":"1162a5b1","updateSafeguardOld(address)":"a0449f45","updateSafeguardPrime(address)":"a9d5ae6f","updateSafeguardPrimeOld(address)":"9669f18f","updateTreaseryFactory(address)":"70ee2af8","updateTreaseryTVLMiningImport(address)":"014519e6","updateTreaseryTVLValidator(address)":"4b849a54","updateTreasuryTVLMining(address)":"130fba6d","updateTreasuryTVLMiningPrime(address)":"36c24c46","updateTreasuryTVLReward(address)":"05abae0d","updateTreasuryTVLRoyality(address)":"e2576819","updateTreasuryTVLTour(address)":"1b67970a","updateValidator(address)":"635b2770","updateValidatorOld(address)":"f1cdfda3"},"id":69}