{"abi":[{"type":"constructor","inputs":[{"name":"_hex","type":"address","internalType":"address"}],"stateMutability":"nonpayable"},{"type":"function","name":"instanceStor","inputs":[],"outputs":[{"name":"","type":"address","internalType":"address"}],"stateMutability":"view"}],"bytecode":{"object":"0x6080346100c5576001600160401b0390601f616ca938819003918201601f1916830191848311848410176100af578084926020946040528339810103126100c557516001600160a01b039190828116908190036100c55760405191616b5090818401908111848210176100af576020928492610159843981520301906000f080156100a3571660018060a01b03196000541617600055604051608e90816100cb8239f35b6040513d6000823e3d90fd5b634e487b7160e01b600052604160045260246000fd5b600080fdfe6080806040526004361015601257600080fd5b600090813560e01c63131c73ad14602857600080fd5b346054578160031936011260545773ffffffffffffffffffffffffffffffffffffffff60209254168152f35b5080fdfea26469706673582212208d3f51f7cf837a2bca1bc23d51480e61dbcb01a6855c090818a16557ee66c68c64736f6c63430008140033608034620000d157601f62006b5038819003918201601f19168301916001600160401b03831184841017620000d657808492602094604052833981010312620000d157516001600160a01b03811690819003620000d15780156200008c5760018060a01b03193381600154161760015560005416176000556001600355604051616a639081620000ed8239f35b60405162461bcd60e51b815260206004820152601360248201527f6f776e2e696e76616c69642e68657862617365000000000000000000000000006044820152606490fd5b600080fd5b634e487b7160e01b600052604160045260246000fdfe60806040526004361015610018575b361561001657005b005b60003560e01c806302a085f2146102d8578063043719b4146102d357806309d8da2e146102ce5780630b98f975146102c957806312065fe0146102c4578063141ca660146102bf578063143ec3b7146102ba5780631f185d16146102b557806329ee350e146102b05780632c2838e8146102ab578063393a9f95146102a657806339b4d61b146102a15780633b9b79551461029c5780634a65786c146102975780634bc21fd61461029257806352902c591461028d578063619d5194146102885780636350b2c214610283578063692450091461027e5780636de97c6614610279578063725b6fff14610274578063759f22bd1461026f57806375b4d78c1461026a5780637bfbfecb14610265578063880cdc31146102605780638da5cb5b1461025b578063932ca2d614610256578063934209ce146102515780639659867e1461024c578063a153154514610247578063a1f7f53914610242578063a20199ac1461023d578063a98bf4f914610238578063a9bf285b14610233578063af4845261461022e578063af640d0f14610229578063b90306ad14610224578063c54e44b01461021f578063c8ef7b1a1461021a578063d3a1a49914610215578063da02133514610210578063e01ad5fd1461020b578063e0a9bc2b146102065763fdc10bc90361000e57611796565b61177b565b6116e1565b61165a565b61162e565b61154f565b611517565b61145b565b61143d565b61140c565b6113ee565b6113c2565b611376565b6112b8565b611283565b611265565b611247565b611188565b611161565b6110ad565b610ef8565b610eda565b610dfb565b610d77565b610ce5565b610c8c565b610c35565b610b74565b610a48565b610982565b61095c565b610935565b610909565b610834565b61076e565b610735565b610625565b6105e8565b61053b565b61051f565b61047c565b610459565b61041d565b61030c565b610120810192916000915b600983106102f557505050565b6001908251815260208091019201920191906102e8565b60403660031901126104185760405161032481611857565b61012036823760ff600454166104075761034461033f6160e6565b6117b9565b61034d3361622a565b8015610381575b61037d916103646103719261190e565b6024359060043590612239565b604051918291826102dd565b0390f35b506004906001600160a01b03906020826000541660405194858092630536340960e21b82525afa9283156104025761037d9361037193610364926000926103d2575b50339116149250509150610354565b6103f491925060203d81116103fb575b6103ec81836118c8565b8101906118ea565b90386103c3565b503d6103e2565b611902565b600460405163658141c160e01b8152fd5b600080fd5b34610418576040366003190112610418576004356000526019602052602061044b60243560406000206119b7565b90546040519160031b1c8152f35b3461041857600036600319011261041857602060ff600454166040519015158152f35b346104185760203660031901126104185761049861033f6160e6565b6104a13361622a565b80156104bc575b6104b19061190e565b610016600435600555565b5060046001600160a01b036020816000541660405193848092630536340960e21b82525afa908115610402576104b1926000926104ff575b5016331490506104a8565b61051891925060203d81116103fb576103ec81836118c8565b90386104f4565b3461041857600036600319011261041857602047604051908152f35b60203660031901126104185761055261033f6160e6565b61055b3361622a565b8015610585575b61056b9061190e565b6105736121ea565b61057e60043561302f565b6001600355005b5060046001600160a01b036020816000541660405193848092630536340960e21b82525afa9081156104025761056b926000926105c8575b501633149050610562565b6105e191925060203d81116103fb576103ec81836118c8565b90386105bd565b346104185760203660031901126104185760043560005260196020526020604060002054604051908152f35b6001600160a01b0381160361041857565b34610418576020806003193601126104185760049081359061064682610614565b8061066861065c6000546001600160a01b031690565b6001600160a01b031690565b60405194858092634bf9c0ad60e11b82525afa918215610402576106bc6106f6936106d89261037d96600092610712575b506106ca906040519384918783019190916001600160a01b036020820193169052565b03601f1981018452836118c8565b6106d26162d4565b906166ff565b919080610708575b6106e99061630d565b80825183010191016160d1565b60405190151581529081906020820190565b50815181146106e0565b6106ca91925061072e90863d88116103fb576103ec81836118c8565b9190610699565b3461041857600036600319011261041857600b54600881101561076957600c81015460408051928352602083019190915290f35b611606565b34610418576020366003190112610418576101e061078d600435614b1a565b60405190805182526020810151602083015260408101516040830152606081015160608301526080810151608083015260a081015160a083015260c081015160c083015260e081015160e0830152610100808201519083015261012080820151908301526101408082015190830152610160808201519083015261018080820151908301526101a080820151908301526101c08091015190820152f35b8015150361041857565b346104185760c03660031901126104185760a4356108518161082a565b61085c61033f6160e6565b6108653361622a565b801561089f575b9061087961088d9261190e565b608435606435604435602435600435613a6d565b60408051928352602083019190915290f35b506001600160a01b039060046020836000541660405192838092630536340960e21b82525afa80156104025761088d93610879926000926108e9575b50339116149192505061086c565b61090291925060203d81116103fb576103ec81836118c8565b90386108db565b346104185760203660031901126104185760043560005260146020526020604060002054604051908152f35b346104185760003660031901126104185760206001600160a01b0360005416604051908152f35b3461041857600036600319011261041857602060ff60045460081c166040519015158152f35b346104185760e03660031901126104185760c43561099f8161082a565b6109aa61033f6160e6565b6109b33361622a565b80156109de575b906109c761088d9261190e565b60a435608435606435604435602435600435613b9d565b506001600160a01b039060046020836000541660405192838092630536340960e21b82525afa80156104025761088d936109c792600092610a28575b5033911614919250506109ba565b610a4191925060203d81116103fb576103ec81836118c8565b9038610a1a565b3461041857606036600319011261041857600435610a6581610614565b602435610a7181610614565b6001600160a01b038092168015808015610b6a575b610b4057610afc5782610aa6610af194600054166001600160a01b031690565b610ac6836001600160a01b03166001600160a01b03196000541617600055565b167fe939feee179e631422bcc8f6e6d7d908cb3f8af38f5372f17c77e15aea5c80ee600080a3616431565b610016604435600755565b606460405162461bcd60e51b815260206004820152601360248201527f6f776e2e696e76616c69642e68657862617365000000000000000000000000006044820152fd5b60046040517fa596f2f9000000000000000000000000000000000000000000000000000000008152fd5b5083831615610a86565b3461041857602036600319011261041857600435610b918161082a565b610b9c61033f6160e6565b610ba53361622a565b8015610bcb575b90610bb96100169261190e565b60ff8019600454169115151617600455565b506001600160a01b039060046020836000541660405192838092630536340960e21b82525afa80156104025761001693610bb992600092610c15575b503391161491925050610bac565b610c2e91925060203d81116103fb576103ec81836118c8565b9038610c07565b34610418576020366003190112610418576004356000526016602052608060406000208054906001810154906001600160a01b03600360028301549201541691604051938452602084015260408301526060820152f35b34610418576000366003190112610418576020600a54604051908152f35b6020908160408183019282815285518094520193019160005b828110610cd1575050505090565b835185529381019392810192600101610cc3565b3461041857600036600319011261041857600b546001810190818111610d7257610d0e8261600a565b91610d1c60405193846118c8565b808352610d2b601f199161600a565b0136602084013760005b81811115610d4b576040518061037d8582610caa565b60088110156107695780610d6d91600c0154610d678286616072565b52612193565b610d35565b612050565b34610418576000366003190112610418576020600854604051908152f35b6020908160408183019282815285518094520193019160005b828110610dbc575050505090565b9091929382608082610def6001948951606080918051845260208101516020850152604081015160408501520151910152565b01950193929101610dae565b3461041857604036600319011261041857600435602435808211610e9657610e2682610e2b92612186565b612131565b610e3481616022565b9160005b828110610e4d576040518061037d8682610d95565b80610e76610e71610e61610e91948661215b565b6000526018602052604060002090565b615fd8565b610e808287616072565b52610e8b8186616072565b50612193565b610e38565b606460405162461bcd60e51b815260206004820152600d60248201527f496e76616c69642072616e6765000000000000000000000000000000000000006044820152fd5b34610418576000366003190112610418576020600554604051908152f35b6000806003193601126110aa5760ff6004541661040757610f176121ea565b610f27610f22616358565b600255565b610f3b61065c82546001600160a01b031690565b60405190817f1b4fc17b000000000000000000000000000000000000000000000000000000009182825281600460209586935afa801561040257610f8891859161108d575b5034906164f2565b6000805260156020527fa31547ce6245cdb9ecea19cf8c7eb9f5974025bb4075011409251ae855b30aed610fbd34825461215b565b9055610fd6610fca6142b7565b50915050600254611a10565b81610feb61065c85546001600160a01b031690565b9160046040518094819382525afa908115610402577f1517c86fcf2bfb8e3468afcc539b0004955da8027797c497ea51d1f1094ab898928492611070575b5050600254604080513381526001600160a01b0393909316602084015260009083015234606083015260808201526103e860a082015260c090a161106d6001600355565b80f35b6110869250803d106103fb576103ec81836118c8565b3880611029565b6110a49150843d86116103fb576103ec81836118c8565b38610f80565b80fd5b34610418576020366003190112610418576004356110ca81610614565b6110d561033f6160e6565b6110de3361622a565b80156110f7575b906110f26100169261190e565b611a55565b506001600160a01b039060046020836000541660405192838092630536340960e21b82525afa801561040257610016936110f292600092611141575b5033911614919250506110e5565b61115a91925060203d81116103fb576103ec81836118c8565b9038611133565b346104185760003660031901126104185760206001600160a01b0360015416604051908152f35b60a0366003190112610418576004356111a081610614565b6111ab61033f6160e6565b6111b43361622a565b80156111dd575b906111c861088d9261190e565b60843590606435906044359060243590611a97565b506001600160a01b039060046020836000541660405192838092630536340960e21b82525afa80156104025761088d936111c892600092611227575b5033911614919250506111bb565b61124091925060203d81116103fb576103ec81836118c8565b9038611219565b34610418576000366003190112610418576020600b54604051908152f35b34610418576000366003190112610418576020600654604051908152f35b3461041857600036600319011261041857608061129e6142b7565b916040519384526020840152151560408301526060820152f35b3461041857600036600319011261041857600460206001600160a01b03600054166040519283809263d1f956b160e01b82525afa9081156104025761037d9161134891600091611358575b5060405161131081611874565b601381527f67657464656c656761746f72436f756e742829000000000000000000000000006020820152611342611fb3565b91616835565b6040519081529081906020820190565b611370915060203d81116103fb576103ec81836118c8565b38611303565b3461041857604036600319011261041857611395602435600435615a5c565b60405190600090825b600783106113ab5760e084f35b60019082518152602080910192019201919061139e565b346104185760203660031901126104185760043560005260176020526020604060002054604051908152f35b34610418576000366003190112610418576020600954604051908152f35b3461041857602036600319011261041857602061143360043561142e81610614565b61622a565b6040519015158152f35b34610418576000366003190112610418576020600754604051908152f35b346104185760203660031901126104185760046001600160a01b036020816000541660405193848092630536340960e21b82525afa918215610402576000926114f7575b50339116036114b3576100166004356165dc565b606460405162461bcd60e51b815260206004820152600f60248201527f6f776e2e6e6f6e617574682e44414f00000000000000000000000000000000006044820152fd5b61151091925060203d81116103fb576103ec81836118c8565b903861149f565b3461041857602036600319011261041857602061153e60043561153981610614565b6169b2565b6001600160a01b0360405191168152f35b346104185760403660031901126104185760243561156c8161082a565b61157761033f6160e6565b6115803361622a565b801561159c575b906115946100169261190e565b600435611959565b506001600160a01b039060046020836000541660405192838092630536340960e21b82525afa80156104025761001693611594926000926115e6575b503391161491925050611587565b6115ff91925060203d81116103fb576103ec81836118c8565b90386115d8565b634e487b7160e01b600052603260045260246000fd5b600881101561076957600c0190600090565b3461041857602036600319011261041857600435600881101561041857602090600c0154604051908152f35b3461041857602036600319011261041857611673612d4d565b506004356000526018602052608060406000206003604051916116958361181a565b805483526001810154602084015260028101546040840152015460608201526116df6040518092606080918051845260208101516020850152604081015160408501520151910152565bf35b3461041857602080600319360112610418576004803561170081610614565b6001600160a01b03928084600054166040519485809263d1f956b160e01b82525afa9081156104025761037d946106f69460009361175c575b50604051931681840152825261174e82611874565b6117566163f8565b906167f9565b611774919350823d84116103fb576103ec81836118c8565b9138611739565b346104185760003660031901126104185760206114336160e6565b346104185760003660031901126104185760206117b1616358565b604051908152f35b156117c057565b606460405162461bcd60e51b815260206004820152601260248201527f6f776e2e696e76616c69642e69735361666500000000000000000000000000006044820152fd5b634e487b7160e01b600052604160045260246000fd5b6080810190811067ffffffffffffffff82111761183657604052565b611804565b6060810190811067ffffffffffffffff82111761183657604052565b610120810190811067ffffffffffffffff82111761183657604052565b6040810190811067ffffffffffffffff82111761183657604052565b6020810190811067ffffffffffffffff82111761183657604052565b60e0810190811067ffffffffffffffff82111761183657604052565b90601f8019910116810190811067ffffffffffffffff82111761183657604052565b9081602091031261041857516118ff81610614565b90565b6040513d6000823e3d90fd5b1561191557565b606460405162461bcd60e51b815260206004820152601b60248201527f6f776e2e6e6f6e617574682e44414f6f725365637572656261736500000000006044820152fd5b611961616358565b908160025560005260196020526040600020916000146119a8578154801590811561199c575b50611991575b5050565b61199a916119cf565b565b60019150161538611987565b60018083541614611991575050565b80548210156107695760005260206000200190600090565b908154916801000000000000000083101561183657826119f791600161199a950181556119b7565b90919082549060031b91821b91600019901b1916179055565b60c860005260196020527fb19a2c0a51bd89835c1a7315e644469c411138cf5794348e40507fe2e33172a891156119a8578154801590811561199c5750611991575050565b6001600160a01b03811615611a6d5761199a90616431565b60046040517fb31092f1000000000000000000000000000000000000000000000000000000008152fd5b9092949360049160ff835416611f6d57611aaf6121ea565b611abf611abb8261622a565b1590565b611f5d57611ace610f22616358565b600094611ae561065c87546001600160a01b031690565b906040928351809663cfbffe5360e01b94858352828260209485935afa978815610402578a98611f3e575b50611b2a611b1c611fc6565b611b24611fde565b8a616835565b978815611ef257611b4a611b3c611fc6565b611b44612017565b83616835565b90611b5860029a8b54612066565b91611b8d611b75611b67611fc6565b611b6f612086565b85616835565b92611b7e611fc6565b90611b876120bf565b90616835565b90611ba2846000526014602052604060002090565b541091821592611ed5575b5050611ead57611bc7906000526014602052604060002090565b8054600101905560018714948515611ea45782611bee61065c8d546001600160a01b031690565b918389518094819382525afa90811561040257611c2f916106bc918d91611e87575b50611c278c8a519384918883019190602083019252565b611b876120f8565b9b8c955b611db7575b5050879695937f1517c86fcf2bfb8e3468afcc539b0004955da8027797c497ea51d1f1094ab89898611d8d9694611cd694611cc4611cc99560065415611d9e575b611c8c611c87600654612193565b600655565b8b5485611c97611f7d565b9288845283015289820152606081019e8f52611cbf6006546000526016602052604060002090565b6121a2565b612919565b6001600160a01b03168852565b611d1e611cea88516001600160a01b031690565b6003611d026006546000526016602052604060002090565b01906001600160a01b03166001600160a01b0319825416179055565b88611d4f611d2b82612aa9565b98611d42611d376142b7565b509150508854611a10565b516001600160a01b031690565b9454915195869533879260a09491979695929760c08501986001600160a01b0380921686521660208501526040840152606083015260808201520152565b0390a1611d9a6001600355565b9190565b611da88c54600855565b611db28c54600955565b611c79565b909192939450600554918c611dcc848461215b565b10611e375750887f1517c86fcf2bfb8e3468afcc539b0004955da8027797c497ea51d1f1094ab89899989795611d8d9795611cc48f9496611e24611e1f87611e1a611cc99a611cd69c61215b565b612186565b600555565b9550509450949650988195979850611c38565b611e8390875191829162461bcd60e51b8352820160609060208152601360208201527f73746f722e66616b652e6d696e7476616c75650000000000000000000000000060408201520190565b0390fd5b611e9e9150853d87116103fb576103ec81836118c8565b38611c10565b508b8c95611c33565b5085517feb2c7de7000000000000000000000000000000000000000000000000000000008152fd5b8c1091508115611ee8575b503880611bad565b90508a1138611ee0565b611e8382885191829162461bcd60e51b8352820160609060208152601560208201527f696e76616c6964206d696e744379636c6544617973000000000000000000000060408201520190565b611f56919850823d84116103fb576103ec81836118c8565b9638611b10565b82604051630d419f7360e41b8152fd5b8260405163658141c160e01b8152fd5b6040519061199a8261181a565b6040519061199a826118ac565b67ffffffffffffffff811161183657601f01601f191660200190565b60405190611fc082611890565b60008252565b604051611fd281611890565b60008152906000368137565b60405190611feb82611874565b600f82527f6d696e744379636c6544617973282900000000000000000000000000000000006020830152565b6040519061202482611874565b601282527f6d61784d696e74735065724379636c65282900000000000000000000000000006020830152565b634e487b7160e01b600052601160045260246000fd5b8115612070570490565b634e487b7160e01b600052601260045260246000fd5b6040519061209382611874565b600c82527f6d696e4d696e74517479282900000000000000000000000000000000000000006020830152565b604051906120cc82611874565b600c82527f6d61784d696e74517479282900000000000000000000000000000000000000006020830152565b6040519061210582611874565b601982527f636f6d707574654d696e7456616c75652875696e7432353629000000000000006020830152565b9060018201809211610d7257565b90600e8201809211610d7257565b6046019081604611610d7257565b91908201809211610d7257565b600019810191908211610d7257565b600119810191908211610d7257565b91908203918211610d7257565b6000198114610d725760010190565b60036001600160a01b03606061199a948051855560208101516001860155604081015160028601550151169101906001600160a01b03166001600160a01b0319825416179055565b6002600354146121fb576002600355565b60046040517f3ee5aeb5000000000000000000000000000000000000000000000000000000008152fd5b60405190612232826118ac565b60e0368337565b9061224c92916122476121ea565b612382565b906001600355565b6040519061226182611874565b601082527f65616368636c61696d4379636c652829000000000000000000000000000000006020830152565b6040519061229a82611874565b601082527f6d696e436c61696d5065724461792829000000000000000000000000000000006020830152565b604051906122d382611874565b601082527f6d6178436c61696d5065724461792829000000000000000000000000000000006020830152565b6040519061230c82611874565b601682527f6d6178476c6f62616c436c61696d5065724461792829000000000000000000006020830152565b6040519061234582611874565b601582527f67657477697468647261776e2875696e743235362900000000000000000000006020830152565b9060098110156107695760051b0190565b9291838115612913575060025560006123a561065c82546001600160a01b031690565b6040908151809163cfbffe5360e01b825281600460209384935afa9182156104025784926128f4575b506123d76142b7565b50969150506123e96002968754611a10565b60326124188754600854936123fe818661215b565b8211156128ed5761241091508461215b565b925b83612186565b116128e5576124269061465c565b61244561243c612434611fc6565b611b6f612254565b6009549061215b565b90855491821015612462575b50505050505061199a610f22616358565b61247561246d611fc6565b611b6f61228d565b92612489612481611fc6565b611b446122c6565b600f6000526015602052926125eb6125bb61258b61255b61252b6124fb7f3bda72f6153f13a10a865b9a6397e1123f4aa6a1726e0e1349cd07eb0e24d81554601060005260156020527f778c823f9b5f066b3c9d60b855427fd2999fcc25aebe3320977c1598596fffaf5b549061215b565b601160005260156020527fed5e5ecd5cb229fc7c2ed17e5e7cdfdc1d0a81991bd95ffdc4cdf25aca2d2ac36124f4565b601260005260156020527f2d1305887a553ebca964114eb55137666ae056a13c7d9c5dcf078bd3a9732a386124f4565b601360005260156020527fa5165e376b84f33a3c944a34b062595f1fb4afde844645ed23ed1e10c257ebe16124f4565b601460005260156020527fe06932cbfde2f2475d8c82e797702b1bf34af837520e34a39e7e7b5e28f71d5f6124f4565b601560008190526020527ff38242ae41b6250df1acd58d7376889913b9221d9b2e1d2e50fb7d62671fa7336124f4565b948510156125fb575b5050612451565b612612600492612609611fc6565b90611b876122ff565b928061262861065c8a546001600160a01b031690565b88519485809263ab6e844f60e01b82525afa9081156104025761266c9389926128c2575b508751908101928352916126649083906020016106bc565b611b87612338565b101561289957808211156128915761268391612186565b9060015b600781111561270a5750507fce9b89faa7d00b5a0dcea74b754372f1c8c1e2788b44e0b6fc99899848f9baf7805460e08701527f6b9301c903fb63b5bb3b4ed52f960f66e3a0c33bca0ea2f28cf6e34d2eb058dd8054610100880152601560209081529184905560009190915291909155505460095538808080808080806125f4565b6127266127168261213f565b6000526015602052604060002090565b54836127f857906127f391612745826000526015602052604060002090565b61275082825461215b565b90558561275f6127168461213f565b5561277261276c83612168565b8a612371565b525b7f1517c86fcf2bfb8e3468afcc539b0004955da8027797c497ea51d1f1094ab8986127a161276c83612168565b518754906127eb6127b18561214d565b875193849333859094939260a0926001600160a01b0360c08401971683526000602084015260006040840152606083015260808201520152565b0390a1612193565b612687565b83811115612852579061280e846127f393612186565b938461282f612827846000526015602052604060002090565b91825461215b565b905561283d6127168361213f565b55849361284c61276c83612168565b52612774565b612860906127f39294612186565b92612875816000526015602052604060002090565b50846128836127168361213f565b558461284c61276c83612168565b505081612683565b600483517f1d63fe21000000000000000000000000000000000000000000000000000000008152fd5b8192506128de90612664923d85116103fb576103ec81836118c8565b919061264c565b505050505050565b5092612412565b8161290c9293503d84116103fb576103ec81836118c8565b90386123ce565b93505050565b916129999261298a926001600160a01b039586600154169360025492604051957fc85700fb000000000000000000000000000000000000000000000000000000006020880152602487015260448601526064850152608484015260a483015260a48252612985826118ac565b6168bd565b602080825183010191016118ea565b1680156129a35790565b60046040517fb1bdf8b0000000000000000000000000000000000000000000000000000000008152fd5b604051906129da82611874565b600682527f706f6f6c282900000000000000000000000000000000000000000000000000006020830152565b908160e09103126104185780519160208201519160408101519160608201519160808101519160c060a083015192015190565b9061271091828102928184041490151715610d7257565b9081606402916064830403610d7257565b81810292918115918404141715610d7257565b91909160008382019384129112908015821691151617610d7257565b81810392916000138015828513169184121617610d7257565b6004906020612ac361065c6000546001600160a01b031690565b6040519384809263cfbffe5360e01b82525afa801561040257612b8e612b64612b49612b89612b54612b3e612b4e612b2e612b1f612b43996118ff9c600091612ba0575b50612b10611fc6565b90612b196129cd565b906166d4565b60208082518301019101612a06565b9e8f9b969e949892959150612a61565b612a61565b93612a61565b612a39565b90612066565b94612b74612b648260025461215b565b6000526017602052604060002090565b612b7f878254612a74565b905560025461215b565b61215b565b612b99828254612a90565b9055612a61565b612bb8915060203d81116103fb576103ec81836118c8565b38612b07565b60405190612bcb82611874565b601382527f55736572546f496e7374286164647265737329000000000000000000000000006020830152565b60405190612c0482611874565b600b82527f6d696e74436f756e7428290000000000000000000000000000000000000000006020830152565b60405190612c3d82611874565b600e82527f6d696e74732875696e74323536290000000000000000000000000000000000006020830152565b60405190612c7682611874565b600b82527f6d696e74656441676528290000000000000000000000000000000000000000006020830152565b60405190612caf82611874565b600b82527f6d696e74656471747928290000000000000000000000000000000000000000006020830152565b60405190612ce882611874565b600c82527f6964732875696e743235362900000000000000000000000000000000000000006020830152565b60405190612d2182611874565b600982527f6d696e74416d74282900000000000000000000000000000000000000000000006020830152565b60405190612d5a8261181a565b60006060838281528260208201528260408201520152565b60405190612d7f82611874565b600a82527f647261776e6167652829000000000000000000000000000000000000000000006020830152565b60405190612db882611874565b600c82527f4c53422875696e743235362900000000000000000000000000000000000000006020830152565b60405190612df182611874565b600782527f647261776e2829000000000000000000000000000000000000000000000000006020830152565b91908260c09103126104185781519160208101519160408201519160608101519160a0608083015192015190565b60405190612e5882611874565b601382527f67657452657761726473286164647265737329000000000000000000000000006020830152565b9190826040910312610418576020825192015190565b60405190612ea782611874565b600782527f626f6e75732829000000000000000000000000000000000000000000000000006020830152565b60405190612ee082611874565b600682527f63616765282900000000000000000000000000000000000000000000000000006020830152565b60405190612f1982611874565b601982527f67657445666665637469766552616e6b286164647265737329000000000000006020830152565b60405190612f5282611874565b601f82527f6765746e6f646572616e6b61676528616464726573732c75696e7432353629006020830152565b60405190612f8b82611874565b601082527f6765744e6f6465286164647265737329000000000000000000000000000000006020830152565b908160a0910312610418578051916020820151612fd381610614565b9160408101519160806060830151612fea8161082a565b9201516118ff8161082a565b6040519061300382611874565b601a82527f77697468647261776e496e636f6d654f662861646472657373290000000000006020830152565b60045460081c60ff16613a6a57600490602061305661065c6000546001600160a01b031690565b6040519384809263111ea8c160e21b82525afa91821561040257600092613a49575b506130cd6130b16130bf6130946001546001600160a01b031690565b604080516001600160a01b03909216602083015290928391820190565b03601f1981018352826118c8565b6130c7612bbe565b846167b0565b906001600160a01b03821615613a2557600581116139fb576130fe6130f0611fc6565b6130f8612bf7565b84616835565b9060065461310c818361215b565b8311156139f35761311c9161215b565b8161361b575b508060065414908115613612575b50613139575050565b61315461314f613147611fc6565b6130f8612d72565b600a55565b600a5460085481116135ca575b5061318d61317e613170611fc6565b613178612de4565b846166d4565b60208082518301019101612e1d565b601560209081527f27739e4bb5e6f8b5e4b57a047dca8767cc9b982a011081e086cbb0dfa9de818d969096557f07d4ff730d9753101d832555708a37d38c2c45fce8cacaefc99f06074e93fe0b949094557fb3a65e8276bd33b3e4f7d6081ebd9899187264822358758dca2e2bc37b2a9c27929092557f8191f4eb6b8bafbfe9a5389c8d07d7f5fd81137a7ee653fc4358269845ee1d2e557f25847c9ccf691da811a9f934d6b3b92e6062ef92feb71bf4cb08cbb4fad8d6525560076000527f5d0f48e37dc1225cdee8d6f2a0315d796f55423522fe638d7d95421802dfc00655604080516001600160a01b038416928101929092526132b5916132a69161329890829081016130b1565b6132a0612e4b565b856166d4565b60208082518301019101612e84565b60156020527f535b9e1ac68faf16e764f210b80ec6320ee232f7656b4f9a2d0a74437eceaaac9190915560686000527f7ee1f11581f85e8bd439e065fc0e6555ccc3142caeda52fdbb7bed5ad7a8306a5561331c611e1f613314611fc6565b6130f8612e9a565b61333261314f61332a611fc6565b6130f8612ed3565b61336961336460405161335c816130b186602083019190916001600160a01b036020820193169052565b611b6f612f0c565b600b55565b60005b600f8111156134d557506133ae6106bc6133d4936133a66133bd94604051938491602083019190916001600160a01b036020820193169052565b612b19612f7e565b60208082518301019101612fb7565b935050505060ff8019600454169115151617600455565b600460206133ed61065c6000546001600160a01b031690565b604051928380927f6325dd040000000000000000000000000000000000000000000000000000000082525afa9081156104025761346b916106bc916000916134b6575b506134636134466001546001600160a01b031690565b604080516001600160a01b03909216602083015290938491820190565b611b87612ff6565b600560005260156020527fbab719002e4be320868650dc7456e9a1d245e4d5dd64765588e2f21529d871d3556134a2600854600955565b61199a61010061ff00196004541617600455565b6134cf915060203d6020116103fb576103ec81836118c8565b38613430565b806134ee9161353d575b600b548111156134f357612193565b61336c565b604080516001600160a01b03851660208201529081018290526135389061352f9061352181606081016130b1565b613529612f45565b87616835565b6119f78361161c565b612193565b6040517f5329daca0000000000000000000000000000000000000000000000000000000060208201526001600160a01b038416602482015260448101829052613597906132a69061359181606481016130b1565b866168bd565b906135ac836000526018602052604060002090565b5560016135c3836000526018602052604060002090565b01556134df565b6008556135f56130b16135ed600a54604051928391602083019190602083019252565b611b44612dab565b61360b6008546000526017602052604060002090565b5538613161565b90501538613130565b6000805260186020527f999d26de3473317ead3eeaf34ca78057f1439db67b6953469c3c96ce9caf6bd7547f999d26de3473317ead3eeaf34ca78057f1439db67b6953469c3c96ce9caf6bd8549095909491929091905b6006548481101561399657611c8761368991612193565b6136b76130b16136a9600654604051928391602083019190602083019252565b6136b1612c30565b876167b0565b6136cd610f226136c5611fc6565b6130f8612c69565b61377f6136e36136db611fc6565b6130f8612ca2565b98613708604051613700816130b160208201906000602083019252565b611b6f612cdb565b9861372561371f613717611fc6565b613529612d14565b946169b2565b602061373c61065c6000546001600160a01b031690565b6040517fcfaa1f6c0000000000000000000000000000000000000000000000000000000081526001600160a01b0390931660048401529194859081906024820190565b0381845afa93841561040257600094613975575b506001600160a01b03841615613903575b506137b1611abb8461622a565b6138f2578a9284846137c1612d4d565b938285528160208601526002958654604087015283866006546137ee906000526016602052604060002090565b906137f8916121a2565b6138019161215b565b9e61380b9161215b565b9c61381593612919565b60065461382c906000526016602052604060002090565b6003019061384f91906001600160a01b03166001600160a01b0319825416179055565b61385884612aa9565b506006546001149361389e60606138db937f1517c86fcf2bfb8e3468afcc539b0004955da8027797c497ea51d1f1094ab898976138e3575b01516001600160a01b031690565b9254604080513381526001600160a01b03909516602086015284019490945260608301526080820192909252600060a082015290819060c0820190565b0390a1613672565b6138ed8654600855565b613890565b6004604051630d419f7360e41b8152fd5b6040517fb771c89600000000000000000000000000000000000000000000000000000000815260006004820152919350602090829060249082905afa90811561040257600091613956575b5091386137a4565b61396f915060203d6020116103fb576103ec81836118c8565b3861394e565b61398f91945060203d6020116103fb576103ec81836118c8565b9238613793565b506000805260186020527f999d26de3473317ead3eeaf34ca78057f1439db67b6953469c3c96ce9caf6bd7969096557f999d26de3473317ead3eeaf34ca78057f1439db67b6953469c3c96ce9caf6bd89490945593905038613122565b50508061311c565b60046040517fc99d37d2000000000000000000000000000000000000000000000000000000008152fd5b505050613a3361314f616358565b613a3e600a54600855565b6134a2600a54600955565b613a6391925060203d6020116103fb576103ec81836118c8565b9038613078565b50565b95939490929460009660009680613a8657505050505050565b919395965091939650600b549684600014613af1576001613ad283613adb93613ac0612827613ae29b976000526018602052604060002090565b90556000526018602052604060002090565b0191825461215b565b90556140b9565b600b54903880808080806128e5565b908060005260186020526040600020908154928303928311610d7257600192613b2592556000526018602052604060002090565b01938454908103908111610d7257613ae294556140b9565b60405190613b4a82611874565b601482527f6c6576656c436c617573652875696e74323536290000000000000000000000006020830152565b908160a0910312610418578051916020820151916040810151916080606083015192015190565b9493929590613bb6876000526018602052604060002090565b613bc182825461215b565b90556001613bd9886000526018602052604060002090565b01613be584825461215b565b90556000805260186020527f999d26de3473317ead3eeaf34ca78057f1439db67b6953469c3c96ce9caf6bd754151580613f4e575b613c40575b50505050505050600b54906118ff613c368361161c565b90549060031b1c90565b8392159586159485613f3e575b50506000613c6561065c82546001600160a01b031690565b95604051809763cfbffe5360e01b825281600460209a8b935afa97881561040257613cbc6106bc613cd99a8d613cc9958892613f1b575b50613cb4906040519384918783019190602083019252565b612b19613b3d565b8051810182019101613b76565b979294919a9098600a5490612186565b10918215613f0e575b5081613f05575b50613cf6575b5050613c1f565b600396613d549615613efc57612b4e613d12613d189386612a61565b91612a50565b965b15613ef25750613d12613d3093612b4e92612a61565b935b6002613d48826000526018602052604060002090565b01613ac085825461215b565b01613d6083825461215b565b9055600160008190526019602052613d9a7ffc941c3961fb6541da34150022cddf959da0fb2353866a6bfbd249c2da0929145b5460011690565b148015613eb6575b613e7b575b50600460005260196020526001613ddd7f77e53f5d8115e854915e54bd6f2fd46db8b881fe7106ff61c7d2a90a39a8983b613d93565b148015613e3f575b613e04575b50613df6610fca6142b7565b388080808080808080613cef565b600b6000526015602052613e377fcaeae41dfed97dfd8c41876ff591faa3e36cda388621c550caa3321a2a624e5f612827565b905538613dea565b5060c860005260196020526001613e757fb19a2c0a51bd89835c1a7315e644469c411138cf5794348e40507fe2e33172a8613d93565b14613de5565b60086000526015602052613eae7f2d0e46a571fdfbe57c7c718891a8a12999c102dfffa2b3314ea165dedd1684f5612827565b905538613da7565b5060c860005260196020526001613eec7fb19a2c0a51bd89835c1a7315e644469c411138cf5794348e40507fe2e33172a8613d93565b14613da2565b9250505093613d32565b50508096613d1a565b90501538613ce9565b600b541015915038613ce2565b613cb4919250613f3790863d88116103fb576103ec81836118c8565b9190613c9c565b613f4791613f90565b3883613c4d565b50861515613c1a565b60405190613f6482611874565b601382527f72616e6b436c617573652875696e7432353629000000000000000000000000006020830152565b90613fa661065c6000546001600160a01b031690565b916040928351809163cfbffe5360e01b825281600460209384935afa9182156104025760009261409a575b50600b91613fdf8354612131565b60088110613ff05750505050505050565b61404b9061402d61401f8951614011816130b1868a83019190602083019252565b614019613f57565b866166d4565b858082518301019101613b76565b505050908710159081614078575b5080614066575b61405057612193565b613fdf565b61405981600b55565b613538876119f78361161c565b50845461407282612168565b14614042565b90506001614090836000526018602052604060002090565b015410153861403b565b816140b29293503d84116103fb576103ec81836118c8565b9038613fd1565b6140ce61065c6000546001600160a01b031690565b6040938451809263cfbffe5360e01b825281600460209384935afa92831561040257600093614205575b50600b926141068454612131565b60088110614118575050505050505050565b61415f9061413961401f8a51614011816130b1868a83019190602083019252565b50505090866000146141ae57881015908161418c575b508061417a575b61416457612193565b614106565b61416d81600b55565b613538886119f78361161c565b50855461418682612168565b14614156565b905060016141a4836000526018602052604060002090565b015410153861414f565b88101590816141e3575b506141da576135386141c98261161c565b8154906000199060031b1b19169055565b61353881600b55565b905060016141fb836000526018602052604060002090565b01541015386141b8565b8161421d9294503d85116103fb576103ec81836118c8565b91386140f8565b6040519061423182611874565b600982527f63617070696e67282900000000000000000000000000000000000000000000006020830152565b908160e09103126104185780519160208201516142798161082a565b9160408101516142888161082a565b9160608201516142978161082a565b9160808101516142a68161082a565b9160c060a0830151612fea8161082a565b600090600460206142d361065c6000546001600160a01b031690565b6040519283809263cfbffe5360e01b82525afa90811561040257614323916143149160009161463e575b50614306614224565b61430e611fb3565b916166d4565b6020808251830101910161425d565b60008052601860205295969593949092909190614395614365897f999d26de3473317ead3eeaf34ca78057f1439db67b6953469c3c96ce9caf6bd75b54612a61565b600080526015602052987fa31547ce6245cdb9ecea19cf8c7eb9f5974025bb4075011409251ae855b30aed61435f565b9561439e615999565b94614636575b506145a0575b61453a575b614529575b506144bb575b6143de575b8084106143d6576143d09084612186565b82811191565b5060006143d0565b60066000526015602052926144b5906144af6125bb61447f61444f61258b7f25847c9ccf691da811a9f934d6b3b92e6062ef92feb71bf4cb08cbb4fad8d6525b54600d60005260156020527fe3e3bb3f660b5aca6f44f8cdafd6456c07cd53888341ab748ffc02d532ccc70e6124f4565b600760005260156020527f5d0f48e37dc1225cdee8d6f2a0315d796f55423522fe638d7d95421802dfc0066124f4565b600e60005260156020527f39f65be0de5254440eb2b93b160b1af3a4f45fe0571eaea7ef454b27b7f02d186124f4565b9061215b565b926143bf565b6005600052601560205293614523906144af61255b7fbab719002e4be320868650dc7456e9a1d245e4d5dd64765588e2f21529d871d35b54600c60005260156020527f74c10a04815bbeaf3165dab0bd11b69aae73edf00a48b27ec8c53ac5b61d47fd6124f4565b936143ba565b614533919661215b565b94386143b4565b60156020527fb3a65e8276bd33b3e4f7d6081ebd9899187264822358758dca2e2bc37b2a9c2754600a600052909761459a916144af906124fb907f0cfcac9f3767130657d3b01a9146da544eeb39eb9670066ace5e84da7fc4319f6124f4565b966143af565b60156020527f07d4ff730d9753101d832555708a37d38c2c45fce8cacaefc99f06074e93fe0b5460096000529098614630916144af90614600907f497613c0658032a90a449a944031c57b1d03996c3a6148fe12146c45cf3214006124f4565b601060005260156020527f778c823f9b5f066b3c9d60b855427fd2999fcc25aebe3320977c1598596fffaf6124f4565b976143aa565b9950386143a4565b614656915060203d81116103fb576103ec81836118c8565b386142fd565b61199a9061466981614b1a565b8051600f600052601560205261469e7f3bda72f6153f13a10a865b9a6397e1123f4aa6a1726e0e1349cd07eb0e24d815612827565b90556060810151601260005260156020526146d87f2d1305887a553ebca964114eb55137666ae056a13c7d9c5dcf078bd3a9732a38612827565b9055602081810151601060005260159091526147137f778c823f9b5f066b3c9d60b855427fd2999fcc25aebe3320977c1598596fffaf612827565b90556040810180516011600052601560205261474e7fed5e5ecd5cb229fc7c2ed17e5e7cdfdc1d0a81991bd95ffdc4cdf25aca2d2ac3612827565b90556080820151601360005260156020526147887fa5165e376b84f33a3c944a34b062595f1fb4afde844645ed23ed1e10c257ebe1612827565b905560a0820151601460005260156020526147c27fe06932cbfde2f2475d8c82e797702b1bf34af837520e34a39e7e7b5e28f71d5f612827565b905560c0820151601560008190526020526147fc7ff38242ae41b6250df1acd58d7376889913b9221d9b2e1d2e50fb7d62671fa733612827565b9055610100820151600960005260156020526148377f497613c0658032a90a449a944031c57b1d03996c3a6148fe12146c45cf321400612827565b905561012082018051600a600052601560205290926101c0916148797f0cfcac9f3767130657d3b01a9146da544eeb39eb9670066ace5e84da7fc4319f612827565b9055610160810151600c60005260156020526148b47f74c10a04815bbeaf3165dab0bd11b69aae73edf00a48b27ec8c53ac5b61d47fd612827565b9055610180810151600d60005260156020526148ef7fe3e3bb3f660b5aca6f44f8cdafd6456c07cd53888341ab748ffc02d532ccc70e612827565b90556101a0810151600e600052601560205261492a7f39f65be0de5254440eb2b93b160b1af3a4f45fe0571eaea7ef454b27b7f02d18612827565b90550151614942846000526017602052604060002090565b5551601f60005260156020526149777fce9b89faa7d00b5a0dcea74b754372f1c8c1e2788b44e0b6fc99899848f9baf7612827565b90555160206000819052601590526149ae7f6b9301c903fb63b5bb3b4ed52f960f66e3a0c33bca0ea2f28cf6e34d2eb058dd612827565b9055600855565b604051906101e0820182811067ffffffffffffffff82111761183657604052816101c06000918281528260208201528260408201528260608201528260808201528260a08201528260c08201528260e08201528261010082015282610120820152826101408201528261016082015282610180820152826101a08201520152565b60405190614a4382611874565b600a82527f73687574646f776e2829000000000000000000000000000000000000000000006020830152565b60405190614a7c82611874565b601882527f676574557365724964546f496e73742875696e743235362900000000000000006020830152565b60405190614ab582611874565b601182527f696e636f6d654f662861646472657373290000000000000000000000000000006020830152565b60405190614aee82611874565b601482527f636f6d70757465546f75722875696e74323536290000000000000000000000006020830152565b90614b236149b5565b91600090614b3b61065c83546001600160a01b031690565b60409182519163ab6e844f60e01b83526020908184600481845afa938415610402578694614fb2575b50845163cfbffe5360e01b81528281600481855afa91821561040257858a60049686948b96614f8b575b5090614cc6859287614bb0614ba1614a36565b614ba9611fb3565b90836167f9565b9b8c92614c5c614bbe615999565b6060890190815281895260156020527f27739e4bb5e6f8b5e4b57a047dca8767cc9b982a011081e086cbb0dfa9de818d54600860005290929190614c5690614c26907f2d0e46a571fdfbe57c7c718891a8a12999c102dfffa2b3314ea165dedd1684f56124f4565b600f60005260156020527f3bda72f6153f13a10a865b9a6397e1123f4aa6a1726e0e1349cd07eb0e24d8156124f4565b90612186565b8752805160156020527f8191f4eb6b8bafbfe9a5389c8d07d7f5fd81137a7ee653fc4358269845ee1d2e54600b600052614cbf9190614c569061252b907fcaeae41dfed97dfd8c41876ff591faa3e36cda388621c550caa3321a2a624e5f6124f4565b90526151e8565b509d94939096926101c087939701526101008201520152600014614f7b5750506106bc614d1391614d056007548b519384918883019190602083019252565b614d0d614a6f565b906167b0565b31878b01525b8651948580927f52b06d640000000000000000000000000000000000000000000000000000000082525afa928315610402578693614f5c575b50614da4614d88614d6b6001546001600160a01b031690565b87519182918683019190916001600160a01b036020820193169052565b0394614d9c601f19968781018452836118c8565b611b87614aa8565b6005600052601560205294614ddb61255b7fbab719002e4be320868650dc7456e9a1d245e4d5dd64765588e2f21529d871d36144f2565b60808a018181529681811115614f4e57614df89150875190612186565b86526004600b54600281101580614f11575b614ed3575b101580614e72575b614e33575b50505050614e28575050565b805161016085015252565b614e6493614e5093614e5c92519485918201906004602083019252565b039081018452836118c8565b611b87614ae1565b60c086015238808080614e1c565b5060156020527f5d0f48e37dc1225cdee8d6f2a0315d796f55423522fe638d7d95421802dfc00654600e600052614ecd906125bb907f39f65be0de5254440eb2b93b160b1af3a4f45fe0571eaea7ef454b27b7f02d186124f4565b15614e17565b614f078351614ef981614eed898201906002602083019252565b038981018352826118c8565b614f01614ae1565b86616835565b60a08c0152614e0f565b5060066000526015602052614f4861258b7f25847c9ccf691da811a9f934d6b3b92e6062ef92feb71bf4cb08cbb4fad8d65261441e565b15614e0a565b614f5791612186565b614df8565b614f74919350823d84116103fb576103ec81836118c8565b9138614d52565b8c8a01526101208c015250614d19565b8592919650614fa9614cc691843d86116103fb576103ec81836118c8565b96919250614b8e565b614fca919450823d84116103fb576103ec81836118c8565b9238614b64565b604051906040820182811067ffffffffffffffff8211176118365760405260006020838281520152565b6040519060a0820182811067ffffffffffffffff8211176118365760405281615022614fd1565b815261502c614fd1565b6020820152615039614fd1565b6040820152615046614fd1565b60608201526080615055614fd1565b910152565b6040519061506782611874565b601882527f6765744261746368526f79616c7479436c6175736573282900000000000000006020830152565b6102a09081818403126104185782601f820112156104185760408051936150b9856118ac565b849383019281841161041857935b8385106150d657505050505090565b6060858303126104185782516060916150ee8261183b565b86518252602091828801518382015285880151868201528152019401936150c7565b6040519061511d82611874565b601f82527f676574526f79616c697479416d6f756e7442617463682875696e7432353629006020830152565b9060e0828203126104185780601f83011215610418576040519161516c836118ac565b829060e0810192831161041857905b8282106151885750505090565b815181526020918201910161517b565b9060078110156107695760051b0190565b8181029291600082127f8000000000000000000000000000000000000000000000000000000000000000821416610d72578184051490151715610d7257565b9290600094600094600094600094600094615285615276615207614ffb565b946152118761568f565b8751906020820152526152238761576c565b602088015190602082015252615238876157ff565b60408801519060208201525261524d876158a1565b6060880151906020820152526152628761591d565b60808801519060208201525261430661505a565b60208082518301019101615093565b91600854600b54905b8681106152da5750505050506020815101518211918291821580946152c8575b93926152b957505091565b60800151602001511015929050565b506020606082015101518211156152ae565b6153166153076040516152f9816130b186602083019190602083019252565b615301615110565b876166d4565b60208082518301019101615149565b6001905b838211156155735750508215615339575b61533490612193565b61528e565b615358615350826000526017602052604060002090565b54809c612a74565b9a6153638289612186565b90600091604089015189518b8251818110808451938410938161556b575b81615548575b501561547a57505050602080835183518082106000146154725750935b01519101518082111561546a5750905b80861115615464575084905b6153c981612131565b8c101561545657508a5b818111615443575b50505b80831161543b575b826153f091612186565b9180615425575b5081615405575b505061532b565b9a61541761541d92615334949d6151a9565b90612a74565b9990386153fe565b9a615417829c615434936151a9565b99386153f7565b9150816153e6565b61544e929450612186565b9138806153db565b61545f90612131565b6153d3565b906153c0565b9050906153b4565b9050936153a4565b939192936154f2575b5050615490575b506153de565b8051808611156154e95750602085915b016154ab8151612131565b8c10156154da57508a5b8181116154c3575b5061548a565b6154d29294916144af91612186565b9138806154bd565b6154e49051612131565b6154b5565b602090916154a0565b8088111561553f5750602087915b018d61550c8251612131565b111561553057508c5b8181111561548357615528929650612186565b933880615483565b61553a9051612131565b615515565b60209091615500565b9050602086015110801561555e575b1538615387565b5081602085015110615557565b849150615381565b909c6155876155818f612168565b88615198565b5151158015615639575b61562f57875180518410159081615620575b5080156155f9575b156155dd576155d16155d7918f6155c46155ca91612168565b85615198565b519061215b565b9d612193565b9061531a565b9c9d6155f38f916155ca6155c46155d794612168565b9e612193565b50602088015180518410159081615611575b506155ab565b6020915001518311153861560b565b602091500151831115386155a3565b9c6155d790612193565b508d615647613c368261161c565b8410159081615658575b5015615591565b6156869150604061567d615677615671613c368561161c565b93612168565b8b615198565b5101519061215b565b8311158e615651565b60c860005260196020527fb19a2c0a51bd89835c1a7315e644469c411138cf5794348e40507fe2e33172a880549291908315615765576001841661574d57505060c86000526019602052613c3661570f7fb19a2c0a51bd89835c1a7315e644469c411138cf5794348e40507fe2e33172a861570985612177565b906119b7565b905460c8600052601960205260039190911b1c926157097fb19a2c0a51bd89835c1a7315e644469c411138cf5794348e40507fe2e33172a891612168565b61570961575a9294612168565b90549060031b1c9190565b5091508190565b6002600090815260196020527f6f678ad17c55bce407239525f4bf7f1fe99197d3eb69bfdd9a0db84a9a11b58180549193929082156157f757600183166157e8575050613c369060028452601960205261570960406157d081872061570985612177565b90549060031b1c956002815260196020522091612168565b90935061570961575a92612168565b509250508190565b6003600081815260196020527f3e323a6e0522b016fa22111dfed945f89456f9f44f69eac00209d92607a5b94080549194939082156158985760018316615880575050615878908285526019602052615709604061586281882061570985612177565b905490861b1c9685815260196020522091612168565b9054911b1c90565b90945061570961588f92612168565b9054911b1c9190565b50935050508190565b6005600090815260196020527fef6a8f673ca5476c495d0ab5aa04e3cd3d07628b2ff5d0e5202b94c5c6f13bdc80549193929082156157f757600183166157e8575050613c3690600584526019602052615709604061590581872061570985612177565b90549060031b1c956005815260196020522091612168565b6006600090815260196020527f4ca1d5f267eb2abf27b670f18ee76f6c205873a2168eb2e690c8c4babcc357dd80549193929082156157f757600183166157e8575050613c3690600684526019602052615709604061598181872061570985612177565b90549060031b1c956006815260196020522091612168565b600090816001815b600f821115615a16575050606560005260156020527f535b9e1ac68faf16e764f210b80ec6320ee232f7656b4f9a2d0a74437eceaaac548101809111610d725760686000526015602052916118ff907f7ee1f11581f85e8bd439e065fc0e6555ccc3142caeda52fdbb7bed5ad7a8306a6124f4565b9093848252601892602093808552604090600282862001548301809311610d72576003929588865252832001548101809111610d7257615a569094612193565b906159a1565b919091615a67612225565b928115615eb25760018214615d8c5760028214615c615760038214615b7657615ab690615a92616358565b90600854615aa0828261215b565b831115615b6f57615ab1925061215b565b614b1a565b9060048114615b2057600514615ac95750565b9091506101a0615ad7611f8a565b9160e08101518352610100810151602084015261012081015160408401526101408101516060840152610160810151608084015261018081015160a0840152015160c082015290565b5090915060c0615b2e611f8a565b91805183526020810151602084015260408101516040840152606081015160608401526080810151608084015260a081015160a0840152015160c082015290565b5050614b1a565b50509050615b82611f8a565b7fa31547ce6245cdb9ecea19cf8c7eb9f5974025bb4075011409251ae855b30aed5481527fce9b89faa7d00b5a0dcea74b754372f1c8c1e2788b44e0b6fc99899848f9baf7546020808301919091527f6b9301c903fb63b5bb3b4ed52f960f66e3a0c33bca0ea2f28cf6e34d2eb058dd5460408301527f535b9e1ac68faf16e764f210b80ec6320ee232f7656b4f9a2d0a74437eceaaac5460608301526068600090815260159091527f7ee1f11581f85e8bd439e065fc0e6555ccc3142caeda52fdbb7bed5ad7a8306a54608083015260a0820181905260c082015290565b50509050615c6d611f8a565b7f3bda72f6153f13a10a865b9a6397e1123f4aa6a1726e0e1349cd07eb0e24d8155481527f778c823f9b5f066b3c9d60b855427fd2999fcc25aebe3320977c1598596fffaf546020808301919091527fed5e5ecd5cb229fc7c2ed17e5e7cdfdc1d0a81991bd95ffdc4cdf25aca2d2ac35460408301527f2d1305887a553ebca964114eb55137666ae056a13c7d9c5dcf078bd3a9732a385460608301527fa5165e376b84f33a3c944a34b062595f1fb4afde844645ed23ed1e10c257ebe15460808301527fe06932cbfde2f2475d8c82e797702b1bf34af837520e34a39e7e7b5e28f71d5f5460a08301526015600081905290527ff38242ae41b6250df1acd58d7376889913b9221d9b2e1d2e50fb7d62671fa7335b5460c082015290565b50509050615d98611f8a565b7f2d0e46a571fdfbe57c7c718891a8a12999c102dfffa2b3314ea165dedd1684f55481527f497613c0658032a90a449a944031c57b1d03996c3a6148fe12146c45cf321400546020808301919091527f0cfcac9f3767130657d3b01a9146da544eeb39eb9670066ace5e84da7fc4319f5460408301527fcaeae41dfed97dfd8c41876ff591faa3e36cda388621c550caa3321a2a624e5f5460608301527f74c10a04815bbeaf3165dab0bd11b69aae73edf00a48b27ec8c53ac5b61d47fd5460808301527fe3e3bb3f660b5aca6f44f8cdafd6456c07cd53888341ab748ffc02d532ccc70e5460a0830152600e600052601590527f39f65be0de5254440eb2b93b160b1af3a4f45fe0571eaea7ef454b27b7f02d18615d83565b50509050615ebe611f8a565b7f27739e4bb5e6f8b5e4b57a047dca8767cc9b982a011081e086cbb0dfa9de818d5481527f07d4ff730d9753101d832555708a37d38c2c45fce8cacaefc99f06074e93fe0b546020808301919091527fb3a65e8276bd33b3e4f7d6081ebd9899187264822358758dca2e2bc37b2a9c275460408301527f8191f4eb6b8bafbfe9a5389c8d07d7f5fd81137a7ee653fc4358269845ee1d2e5460608301527fbab719002e4be320868650dc7456e9a1d245e4d5dd64765588e2f21529d871d35460808301527f25847c9ccf691da811a9f934d6b3b92e6062ef92feb71bf4cb08cbb4fad8d6525460a08301526007600052601590527f5d0f48e37dc1225cdee8d6f2a0315d796f55423522fe638d7d95421802dfc006615d83565b90604051615fe58161181a565b6060600382948054845260018101546020850152600281015460408501520154910152565b67ffffffffffffffff81116118365760051b60200190565b9061602c8261600a565b61603960405191826118c8565b828152809261604a601f199161600a565b019060005b82811061605b57505050565b602090616066612d4d565b8282850101520161604f565b80518210156107695760209160051b010190565b1561608d57565b606460405162461bcd60e51b815260206004820152601960248201527f6f776e2e7361666567756172642e63616c6c2e6661696c6564000000000000006044820152fd5b9081602091031261041857516118ff8161082a565b6001600160a01b03600054166040518091634bf9c0ad60e11b825281600460209384935afa918215610402576118ff9261616e91600091616189575b5060405161612f81611874565b600881527f6973536166652829000000000000000000000000000000000000000000000000848201526040519161616583611890565b600083526166ff565b91908061617f575b6106e990616086565b5081518114616176565b6161a09150833d85116103fb576103ec81836118c8565b38616122565b604051906161b382611874565b601582527f69735365637572654261736528616464726573732900000000000000000000006020830152565b156161e657565b606460405162461bcd60e51b815260206004820152601a60248201527f6f776e2e736563757265626173652e63616c6c2e6661696c65640000000000006044820152fd5b6000546001600160a01b0316604051918291634bf9c0ad60e11b835282600460209485935afa928315610402576118ff93616296926106bc926000926162b1575b5061628e906040519384918783019190916001600160a01b036020820193169052565b6106d26161a6565b9190806162a7575b6106e9906161df565b508151811461629e565b61628e9192506162cd90863d88116103fb576103ec81836118c8565b919061626b565b604051906162e182611874565b601182527f69735369676e65722861646472657373290000000000000000000000000000006020830152565b1561631457565b606460405162461bcd60e51b815260206004820152601660248201527f6f776e2e7369676e65722e63616c6c2e6661696c6564000000000000000000006044820152fd5b600460206001600160a01b03600054166040519283809263111ea8c160e21b82525afa8015610402576118ff916000916163da575b5060405161639a81611874565b600581527f61676528290000000000000000000000000000000000000000000000000000006020820152604051916163d183611890565b60008352616835565b6163f2915060203d81116103fb576103ec81836118c8565b3861638d565b6040519061640582611874565b601882527f697364656c656761746f724e6f646528616464726573732900000000000000006020830152565b6001600160a01b0380911690811561647e57600154826001600160a01b0319821617600155167f8292fce18fa69edf4db7b94ea2e58241df0ae57f97e0a6c9b29067028bf92d76600080a3565b606460405162461bcd60e51b815260206004820152601160248201527f6f776e2e696e76616c69642e6f776e65720000000000000000000000000000006044820152fd5b3d156164ed573d906164d382611f97565b916164e160405193846118c8565b82523d6000602084013e565b606090565b90801561198d576001600160a01b03821691821561659857600080808481945af161651b6164c2565b5015616554576040519081527fcec1f18c3ab8ddaaa107a1591e3c369667eec613626611a8deaedef43069fcdd9080602081015b0390a2565b606460405162461bcd60e51b815260206004820152601360248201527f6f776e2e7472616e736665722e6661696c6564000000000000000000000000006044820152fd5b606460405162461bcd60e51b815260206004820152600e60248201527f6f776e2e696e76616c69642e746f0000000000000000000000000000000000006044820152fd5b6000600460206001600160a01b03835416604051928380927f46f991ac0000000000000000000000000000000000000000000000000000000082525afa9081156104025782848193829383916166b6575b505af16166386164c2565b50156166725760405190815233907fcdcc745fe377b103b45fa0cec23ae3ef93d6fc6a84a01f0d18c40b354dd1d5d890806020810161654f565b606460405162461bcd60e51b815260206004820152600f60248201527f6f776e2e6275726e2e6661696c656400000000000000000000000000000000006044820152fd5b6166ce915060203d81116103fb576103ec81836118c8565b3861662d565b906166df92916166ff565b90600090156166ec575090565b60405191506166fa82611890565b815290565b9190823b15616797577fffffffff00000000000000000000000000000000000000000000000000000000815160208093012016916040519180830193845281519160005b838110616783575050509181616770602482600097959688970187838201520360048101845201826118c8565b5191620dbba0fa61677f6164c2565b9091565b818101830151858201602401528201616743565b5050506000906040516167a981611890565b6000815290565b92916167be916000946166ff565b90806167ee575b6167cc5750565b6001600160a01b03919250806020806167ea935183010191016118ea565b1690565b5060208151146167c5565b9291616807916000946166ff565b908061682a575b6168155750565b6118ff919250602080825183010191016160d1565b50602081511461680e565b9291616843916000946166ff565b9080616868575b6168515750565b909150602081805181010312610418576020015190565b50602081511461684a565b90602082519201517fffffffff000000000000000000000000000000000000000000000000000000009081811693600481106168ae57505050565b60040360031b82901b16169150565b6001600160a01b0381161561696e57600080918351908260208601915af1906168e46164c2565b91156168ee575090565b805160009190600411616968576169059150616873565b8151156169155750805190602001fd5b6024907fffffffff00000000000000000000000000000000000000000000000000000000604051917f21c09d34000000000000000000000000000000000000000000000000000000008352166004820152fd5b50616905565b606460405162461bcd60e51b815260206004820152601260248201527f6f776e2e696e76616c69642e74617267657400000000000000000000000000006044820152fd5b803b60006169bf82611f97565b926169cd60405194856118c8565b82845260208401903c602d8151106169e957602a015160601c90565b606460405162461bcd60e51b815260206004820152601360248201527f4e6f742061206d696e696d616c2070726f7879000000000000000000000000006044820152fdfea2646970667358221220af3f81d87363cc33d61a5f5d91a438f0d3568d2a646c93244fd341db59f209b764736f6c63430008140033","linkReferences":{}},"methodIdentifiers":{"instanceStor()":"131c73ad"},"id":69}