{"abi":[{"type":"constructor","inputs":[{"name":"_hex","type":"address","internalType":"address"},{"name":"_price","type":"address","internalType":"address"},{"name":"_old741","type":"address","internalType":"address"}],"stateMutability":"nonpayable"},{"type":"function","name":"dAOAssembly","inputs":[],"outputs":[{"name":"","type":"address","internalType":"address"}],"stateMutability":"view"},{"type":"function","name":"daocore","inputs":[],"outputs":[{"name":"","type":"address","internalType":"address"}],"stateMutability":"view"},{"type":"function","name":"nested741","inputs":[],"outputs":[{"name":"","type":"address","internalType":"address"}],"stateMutability":"view"},{"type":"function","name":"old741","inputs":[],"outputs":[{"name":"","type":"address","internalType":"address"}],"stateMutability":"view"},{"type":"function","name":"price","inputs":[],"outputs":[{"name":"","type":"address","internalType":"address"}],"stateMutability":"view"}],"bytecode":{"object":"0x6080346101b757601f6184ce38819003918201601f19168301926001600160401b03929091838511838610176101a15781606092849260409788528339810103126101b75761004d816101bc565b6100648461005d602085016101bc565b93016101bc565b9160018060a01b03199273c0cee8b561cc4f60869776ca5b0b7a295e04f5af84600154161760015585516111c49586820196828810828911176101a15761032c83396001600160a01b039485168088526000979092908190036020019088f08015610183578516866003541617600355875161515d808201908282108483111761018d576020918391613371833985815203019088f08015610183578516866002541617600255875191611e81808401928484109084111761016f579183916020936114f08439815203019086f080156101655790838092168560045416176004551683600154161760015516908254161790555161015b90816101d18239f35b86513d87823e3d90fd5b634e487b7160e01b89526041600452602489fd5b88513d89823e3d90fd5b634e487b7160e01b8a52604160045260248afd5b634e487b7160e01b600052604160045260246000fd5b600080fd5b51906001600160a01b03821682036101b75756fe608080604052600436101561001357600080fd5b600090813560e01c90816314837455146100fc5750806314d8d024146100d357806345cff900146100aa5780635540c5ac146100815763a035b1fe1461005857600080fd5b3461007e578060031936011261007e57546040516001600160a01b039091168152602090f35b80fd5b503461007e578060031936011261007e576001546040516001600160a01b039091168152602090f35b503461007e578060031936011261007e576002546040516001600160a01b039091168152602090f35b503461007e578060031936011261007e576004546040516001600160a01b039091168152602090f35b9050346101215781600319360112610121576003546001600160a01b03168152602090f35b5080fdfea26469706673582212209752cca5ec9a936369e5ee4d89f93512d7c3e73cebf7f2074418728ef15ac13164736f6c634300081400336080346100ca57601f6111c438819003918201601f19168301916001600160401b038311848410176100cf578084926020946040528339810103126100ca57516001600160a01b038116908190036100ca5780156100855760018060a01b031933816001541617600155600054161760005560006004556040516110de90816100e68239f35b60405162461bcd60e51b815260206004820152601360248201527f6f776e2e696e76616c69642e68657862617365000000000000000000000000006044820152606490fd5b600080fd5b634e487b7160e01b600052604160045260246000fdfe60806040526004361015610018575b361561001657005b005b60003560e01c806312065fe0146101085780631f185d161461010357806325924f34146100fe5780633b9b7955146100f957806361b7fbd9146100f45780638da5cb5b146100ef578063a1f7f539146100ea578063af484526146100e5578063b90306ad146100e0578063c54e44b0146100db578063c89b84fd146100d6578063dbac26e9146100d1578063e01ad5fd146100cc578063e0a9bc2b146100c75763fdc10bc90361000e57610963565b6108c1565b610822565b6107e0565b6106d1565b610635565b61052e565b610473565b6103bc565b610393565b6102bd565b61028a565b610246565b61013a565b3461012457600036600319011261012457602047604051908152f35b600080fd5b6001600160a01b0381160361012457565b34610124576020806003193601126101245760049081359061015b82610129565b8061016f61016a6000546107d4565b6107d4565b604051634bf9c0ad60e11b815294859182905afa918215610241576101b46101ee936101d0926102009660009261020e575b506101c290604051938491878301610277565b03601f1981018452836109d7565b6101ca610db1565b90610f50565b919080610204575b6101e190610dde565b8082518301019101610d22565b60405191829182901515815260200190565b0390f35b50815181146101d8565b6101c291925061023390863d881161023a575b61022b81836109d7565b8101906109fa565b91906101a1565b503d610221565b610a12565b3461012457602036600319011261012457602061026d60043561026881610129565b610aec565b6040519015158152f35b6001600160a01b03909116815260200190565b34610124576000366003190112610124576000546040516001600160a01b039091168152602090f35b8015150361012457565b34610124576040366003190112610124576004356102da81610129565b6024356102e6816102b3565b60018060a01b03600092600460208386541660405192838092630536340960e21b82525afa801561024157610326918691610375575b5083163314610c62565b16825260036020526040822060ff1981541660ff8315151617905560001461036257600454600019811461035d5760010160045580f35b610ca0565b600454801561035d576000190160045580f35b61038d915060203d811161023a5761022b81836109d7565b3861031c565b34610124576000366003190112610124576001546040516001600160a01b039091168152602090f35b346101245760003660031901126101245760005460405163d1f956b160e01b815290602090829060049082906001600160a01b03165afa908115610241576102009161044591600091610455575b506040516104178161099c565b601381527267657464656c656761746f72436f756e74282960681b602082015261043f610a39565b9161106a565b6040519081529081906020820190565b61046d915060203d811161023a5761022b81836109d7565b3861040a565b34610124576020806003193601126101245760049081359061049482610129565b806104a361016a6000546107d4565b604051634bf9c0ad60e11b815294859182905afa918215610241576101b46101ee936104f0926102009660009261050b575b506104e890604051938491878301610277565b6101ca610d37565b919080610501575b6101e190610d68565b50815181146104f8565b6104e891925061052790863d881161023a5761022b81836109d7565b91906104d5565b34610124576020806003193601126101245760043560018060a01b0391600092808454169060405191630536340960e21b83528383600481845afa928315610241576004938593610589928992610616575b50163314610c62565b6040516311be646b60e21b815292839182905afa918215610241578480856105c8958295839584926105f9575b50505af16105c2610ee2565b50610f12565b60405190815233907fcdcc745fe377b103b45fa0cec23ae3ef93d6fc6a84a01f0d18c40b354dd1d5d890602090a280f35b61060f9250803d1061023a5761022b81836109d7565b38806105b6565b61062e919250853d871161023a5761022b81836109d7565b9038610580565b346101245760203660031901126101245760043561065281610129565b803b600061065f82610a1e565b9261066d60405194856109d7565b82845260208401903c602d81511061069657602a61020091015160601c60405191829182610277565b60405162461bcd60e51b81526020600482015260136024820152724e6f742061206d696e696d616c2070726f787960681b6044820152606490fd5b34610124576000806003193601126107d1576106f061016a82546107d4565b60405163cfbffe5360e01b8152919060208084600481855afa80156102415761072f829160049686916107b4575b50610727610a4c565b61043f610a39565b926040519586809263ab6e844f60e01b82525afa90811561024157610200946104459492610791575b50610783906101b4610768610e23565b94604051958693840160209093929193604081019481520152565b61078b610c29565b9061106a565b8192506107ad90610783923d851161023a5761022b81836109d7565b9190610758565b6107cb9150833d851161023a5761022b81836109d7565b3861071e565b80fd5b6001600160a01b031690565b34610124576020366003190112610124576004356107fd81610129565b60018060a01b03166000526003602052602060ff604060002054166040519015158152f35b3461012457602080600319360112610124576004803561084181610129565b60005460405163d1f956b160e01b81526001600160a01b03949093909182918591829088165afa90811561024157610200946101ee946000936108a2575b5060405193168184015282526108948261099c565b61089c610eae565b9061102e565b6108ba919350823d841161023a5761022b81836109d7565b913861087f565b3461012457600036600319011261012457600054604051634bf9c0ad60e11b8152906020908190839060049082906001600160a01b03165afa9081156102415761092b6101ee9261020094600091610946575b5061091d610cb6565b610925610a39565b91610f50565b91908061093c575b6101e190610cda565b5081518114610933565b61095d9150833d851161023a5761022b81836109d7565b38610914565b3461012457600036600319011261012457602061097e610e23565b604051908152f35b634e487b7160e01b600052604160045260246000fd5b604081019081106001600160401b038211176109b757604052565b610986565b602081019081106001600160401b038211176109b757604052565b601f909101601f19168101906001600160401b038211908210176109b757604052565b908160209103126101245751610a0f81610129565b90565b6040513d6000823e3d90fd5b6001600160401b0381116109b757601f01601f191660200190565b60405190610a46826109bc565b60008252565b60405190610a598261099c565b600c82526b72616e6b666f7244414f282960a01b6020830152565b60405190610a818261099c565b601682527567657455736572546f53746f7228616464726573732960501b6020830152565b60405190610ab38261099c565b600682526572616e6b282960d01b6020830152565b60405190610ad58261099c565b600882526769734c6f636b282960c01b6020830152565b610afa61016a6000546107d4565b9060405163cfbffe5360e01b81526020908181600481875afa801561024157610b3183916004936000916107b45750610727610a4c565b946040519283809263ab6e844f60e01b82525afa801561024157610b7c928492600092610c06575b50610b6e906101b46040519485928301610277565b610b76610a74565b90610fea565b916001600160a01b03831615610bfe57610bc0610ba9610b9a610aa6565b610ba2610a39565b908661106a565b93610bb2610ac8565b610bba610a39565b9161102e565b9210159182610bf5575b5081610bd4575090565b6001600160a01b031660009081526003602052604090205460ff1615905090565b15915038610bca565b505050600090565b819250610c2290610b6e923d851161023a5761022b81836109d7565b9190610b59565b60405190610c368261099c565b601d82527f67657472616e6b636f756e742875696e743235362c75696e74323536290000006020830152565b15610c6957565b60405162461bcd60e51b815260206004820152600f60248201526e6f776e2e6e6f6e617574682e44414f60881b6044820152606490fd5b634e487b7160e01b600052601160045260246000fd5b60405190610cc38261099c565b6008825267697353616665282960c01b6020830152565b15610ce157565b60405162461bcd60e51b81526020600482015260196024820152781bdddb8b9cd8599959dd585c990b98d85b1b0b99985a5b1959603a1b6044820152606490fd5b908160209103126101245751610a0f816102b3565b60405190610d448261099c565b601582527469735365637572654261736528616464726573732960581b6020830152565b15610d6f57565b60405162461bcd60e51b815260206004820152601a6024820152791bdddb8b9cd958dd5c9958985cd94b98d85b1b0b99985a5b195960321b6044820152606490fd5b60405190610dbe8261099c565b601182527069735369676e657228616464726573732960781b6020830152565b15610de557565b60405162461bcd60e51b81526020600482015260166024820152751bdddb8b9cda59db995c8b98d85b1b0b99985a5b195960521b6044820152606490fd5b60005460405163111ea8c160e21b815290602090829060049082906001600160a01b03165afa801561024157610a0f91600091610e90575b50604051610e688161099c565b6005815264616765282960d81b602082015260405191610e87836109bc565b6000835261106a565b610ea8915060203d811161023a5761022b81836109d7565b38610e5b565b60405190610ebb8261099c565b6018825277697364656c656761746f724e6f646528616464726573732960401b6020830152565b3d15610f0d573d90610ef382610a1e565b91610f0160405193846109d7565b82523d6000602084013e565b606090565b15610f1957565b60405162461bcd60e51b815260206004820152600f60248201526e1bdddb8b989d5c9b8b99985a5b1959608a1b6044820152606490fd5b9190823b15610fd1578051906020918263ffffffff60e01b92012016916040519180830193845281519160005b838110610fbd575050509181610faa602482600097959688970187838201520360048101845201826109d7565b5191620dbba0fa610fb9610ee2565b9091565b818101830151858201602401528201610f7d565b505050600090604051610fe3816109bc565b6000815290565b9291610ff891600094610f50565b9080611023575b6110065750565b90915060208180518101031261012457602001516107d481610129565b506020815114610fff565b929161103c91600094610f50565b908061105f575b61104a5750565b610a0f91925060208082518301019101610d22565b506020815114611043565b929161107891600094610f50565b908061109d575b6110865750565b909150602081805181010312610124576020015190565b50602081511461107f56fea26469706673582212203076ae48dadbcb3dc34f188d02035a3cf557a9d2269a0d87fa1d67751cdf8bfb64736f6c634300081400336080346100cf57601f611e8138819003918201601f19168301916001600160401b038311848410176100d4578084926020946040528339810103126100cf57516001600160a01b038116908190036100cf57801561008a5760018060a01b031933816001541617600155600054161760005560336003556003600455604051611d9690816100eb8239f35b60405162461bcd60e51b815260206004820152601360248201527f6f776e2e696e76616c69642e68657862617365000000000000000000000000006044820152606490fd5b600080fd5b634e487b7160e01b600052604160045260246000fdfe60806040526004361015610018575b361561001657005b005b60003560e01c8063013cf08b1461018857806312065fe0146101835780631f185d161461017e5780633b9b7955146101795780634072265b14610174578063438596321461016f5780635c622a0e1461016a57806365153c4b14610165578063709df8d9146101605780638da5cb5b1461015b57806398e527d314610156578063995e433914610151578063a1f7f5391461014c578063af48452614610147578063b90306ad14610142578063c54e44b01461013d578063c7f758a814610138578063c9d27afe14610133578063d153356b1461012e578063e01ad5fd14610129578063e0a9bc2b14610124578063fdc10bc91461011f5763ffa734f00361000e57610e68565b610e20565b610e05565b610dde565b610d3c565b610bd2565b610b53565b610a73565b6109c0565b6108be565b61089b565b610817565b6107f9565b6107d0565b610791565b610646565b6105f0565b61059e565b610561565b610538565b6104f4565b6104c7565b610409565b6005548110156101ac576005600052600c602060002091020190600090565b634e487b7160e01b600052603260045260246000fd5b90600182811c921680156101f2575b60208310146101dc57565b634e487b7160e01b600052602260045260246000fd5b91607f16916101d1565b906000929180549161020d836101c2565b91828252600193848116908160001461026f575060011461022f575b50505050565b90919394506000526020928360002092846000945b83861061025b575050505001019038808080610229565b805485870183015294019385908201610244565b9294505050602093945060ff191683830152151560051b01019038808080610229565b634e487b7160e01b600052604160045260246000fd5b602081019081106001600160401b038211176102c357604052565b610292565b604081019081106001600160401b038211176102c357604052565b601f909101601f19168101906001600160401b038211908210176102c357604052565b9061032161031a92604051938480926101fc565b03836102e3565b565b60005b8381106103365750506000910152565b8181015183820152602001610326565b9060209161035f81518092818552858086019101610323565b601f01601f1916010190565b9b9997959392909e9d9c9a9896949e8c6101c08091528d0161038c91610346565b6001600160a01b0390921660208d015260408c01528a810360608c01526103b291610346565b9b60808a015260a089015260c088015260e087015261010086015261012085016103dc9115159052565b15156101408401526001600160a01b031661016083015215156101808201526101a0016103219115159052565b346104c25760203660031901126104c2576004356005548110156104c2576104309061018d565b50604051906104438261031a81846101fc565b600181015460028201546104be916001600160a01b031661046660038501610306565b946004850154946005810154966006820154916007810154600a6008830154920154936040519a8b9a8b9560ff8860b81c169a60ff8960b01c169a60018060a01b038a60101c169a60ff808c60081c169b169961036b565b0390f35b600080fd5b346104c25760003660031901126104c257602047604051908152f35b6001600160a01b038116036104c257565b346104c25760203660031901126104c257602061051b600435610516816104e3565b611821565b6040519015158152f35b6001600160a01b03909116815260200190565b346104c25760003660031901126104c2576000546040516001600160a01b039091168152602090f35b346104c25760203660031901126104c257600435600019810190811161059957600561058e60209261018d565b500154604051908152f35b6111ec565b346104c25760403660031901126104c2576004356024356105be816104e3565b6000198201918211610599576105e460ff9160096105dd60209561018d565b5001611347565b54166040519015158152f35b346104c25760203660031901126104c257600435600019810190811161059957600a61061d60409261018d565b50015460ff825191818160b01c161515835260b81c1615156020820152f35b801515036104c257565b346104c25760403660031901126104c2576004356024356106668161063c565b61066f33611821565b1561075757600561068761068284611275565b61018d565b5061072761071a600b83016106b56106b06106ac6106a53385611347565b5460ff1690565b1590565b6113df565b610713600a8501546106cd60ff8260b81c1615611303565b6106dc60ff8260081c16611284565b6106e860ff8216611420565b6106ff6106f36118bb565b60078801541115611462565b60101c6001600160a01b031633141561139e565b3390611347565b805460ff19166001179055565b0161073281546114a4565b80915560045414801561074f575b61074657005b61001691611575565b508015610740565b60405162461bcd60e51b815260206004820152601260248201527137bbb71734b73b30b634b21739b4b3b732b960711b6044820152606490fd5b346104c25760403660031901126104c2576004356024356107b1816104e3565b6000198201918211610599576105e460ff91600b6105dd60209561018d565b346104c25760003660031901126104c2576001546040516001600160a01b039091168152602090f35b346104c25760003660031901126104c2576020600554604051908152f35b346104c25760203660031901126104c2576004356000198101908111610599576108409061018d565b506004810154600682015460078301546008840154600a9094015460408051948552602085019390935291830152606082019290925260ff60b083901c81161515608083015260b89290921c909116151560a082015260c090f35b346104c25760003660031901126104c25760206108b6611a23565b604051908152f35b346104c2576020806003193601126104c2576004908135906108df826104e3565b60005481906001600160a01b0316604051634bf9c0ad60e11b815294859182905afa9182156109bb5761093261096c9361094e926104be96600092610988575b5061094090604051938491878301610525565b03601f1981018452836102e3565b610948611735565b90611bb4565b91908061097e575b61095f90611766565b8082518301019101611672565b60405190151581529081906020820190565b5081518114610956565b6109409192506109ad90863d88116109b4575b6109a581836102e3565b8101906115eb565b919061091f565b503d61099b565b611603565b346104c25760203660031901126104c257600054604051630536340960e21b8152906001600160a01b03906020908390600490829085165afa9182156109bb57600092610a53575b5033911603610a1c57610016600435611ae3565b60405162461bcd60e51b815260206004820152600f60248201526e6f776e2e6e6f6e617574682e44414f60881b6044820152606490fd5b610a6c91925060203d81116109b4576109a581836102e3565b9038610a08565b346104c25760203660031901126104c257600435610a90816104e3565b803b6000610a9d8261160f565b92610aab60405194856102e3565b82845260208401903c602d815110610ad457602a6104be91015160601c60405191829182610525565b60405162461bcd60e51b81526020600482015260136024820152724e6f742061206d696e696d616c2070726f787960681b6044820152606490fd5b94919093610b2b60a0959897949860c0885260c0880190610346565b97600180871b0380931660208801526040870152166060850152151560808401521515910152565b346104c25760203660031901126104c257600435600019810190811161059957610b7c9061018d565b5060018060a01b036104be8160018401541691600284015493610bad610bb4600a83015492604051928380926101fc565b03826102e3565b60405195869560ff84169460ff8560081c169460101c169287610b0f565b346104c25760403660031901126104c257600435602435610bf28161063c565b610bfb33611821565b8015610d19575b610c0b90611230565b610c1761068283611275565b50600a8101906008825493610c3060ff86841c16611284565b610c476007840154610c406118bb565b11156112c4565b610c5760ff8660b81c1615611303565b610c7760098401956106ff610c726106ac6106a5338b611347565b61135e565b60008115610d1357506001905b610c9660ff6004860193168354611223565b8255600090610d065750610cc561071a6001965b610cbc60ff6006880199168954611223565b88553390611347565b5491015480911092831593610cfa575b505081610ced575b50610ce457005b610016906114d0565b5460ff1615905038610cdd565b54101591503880610cd5565b61071a610cc59196610caa565b90610c84565b50610d22611687565b8015610c025750610c0b610d3533611946565b9050610c02565b346104c25760403660031901126104c257610d55611687565b15610da457333003610d6f57600480356003556024359055005b60405162461bcd60e51b815260206004820152600d60248201526c64616f2e66616b652e636f726560981b6044820152606490fd5b60405162461bcd60e51b81526020600482015260126024820152716f776e2e696e76616c69642e69735361666560701b6044820152606490fd5b346104c25760203660031901126104c257602061051b600435610e00816104e3565b611946565b346104c25760003660031901126104c257602061051b611687565b346104c25760003660031901126104c25760206108b66118bb565b9181601f840112156104c2578235916001600160401b0383116104c257602083818601950101116104c257565b346104c25760c03660031901126104c2576001600160401b036004358181116104c257610e99903690600401610e3b565b9091602435610ea7816104e3565b6064358281116104c257610ebf903690600401610e3b565b9160a43594610ecd8661063c565b6001600160a01b038216156110975760055490600160401b8210156102c357610efd60019283810160055561018d565b509581116102c357610f1981610f1388546101c2565b886110d1565b6000601f821160011461101d5792610f88949282610f7793600a9998966110049c600092611012575b5050600019600383901b1c191690821b1787555b860180546001600160a01b0319166001600160a01b03909216919091179055565b604435600285015560038401611125565b610fae610fa7610fa2610f99611a23565b60035490611202565b611215565b6064900490565b6008820155610fc6608435610fc16118bb565b611223565b60078201550180543360101b62010000600160b01b0316610100600160b01b0319909116176101001760ff191660ff92151592909216919091179055565b600554604051908152602090f35b013590503880610f42565b601f1982169061103288600052602060002090565b91815b81811061108157509383600a999896936110049c8394610f7797610f889b9910611067575b505050811b018755610f56565b0135600019600384901b60f8161c1916905538808061105a565b8b83013584559285019260209283019201611035565b60405162461bcd60e51b815260206004820152601260248201527137bbb7173232b330bab63a1739b2b73232b960711b6044820152606490fd5b90601f81116110df57505050565b600091825260208220906020601f850160051c8301941061111b575b601f0160051c01915b82811061111057505050565b818155600101611104565b90925082906110fb565b9092916001600160401b0381116102c35761114a8161114484546101c2565b846110d1565b6000601f82116001146111845781929394600092611179575b50508160011b916000199060031b1c1916179055565b013590503880611163565b601f1982169461119984600052602060002090565b91805b8781106111d45750836001959697106111ba575b505050811b019055565b0135600019600384901b60f8161c191690553880806111b0565b9092602060018192868601358155019401910161119c565b634e487b7160e01b600052601160045260246000fd5b8181029291811591840414171561059957565b906063820180921161059957565b9190820180921161059957565b1561123757565b60405162461bcd60e51b815260206004820152601660248201527564616f2e6e6f6e617574682e64656c656761746f727360501b6044820152606490fd5b60001981019190821161059957565b1561128b57565b60405162461bcd60e51b815260206004820152601160248201527019185bcb9c1c9bdc0b9b9bdd195e1a5cdd607a1b6044820152606490fd5b156112cb57565b60405162461bcd60e51b815260206004820152601060248201526f19185bcb9d9bdd1a5b99cb995b99195960821b6044820152606490fd5b1561130a57565b60405162461bcd60e51b815260206004820152601560248201527419185bcb985b1c9958591e4b98dbdb5c1b195d1959605a1b6044820152606490fd5b9060018060a01b0316600052602052604060002090565b1561136557565b60405162461bcd60e51b815260206004820152601160248201527019185bcb985b1c9958591e4b9d9bdd1959607a1b6044820152606490fd5b156113a557565b60405162461bcd60e51b815260206004820152601260248201527119185bcb9d9bdd195c8b9c995cdd1c9a58dd60721b6044820152606490fd5b156113e657565b60405162461bcd60e51b815260206004820152601260248201527119185bcb985b1c9958591e4b9cda59db995960721b6044820152606490fd5b1561142757565b60405162461bcd60e51b815260206004820152601360248201527219185bcb9c1c9bdc0b9b5d5cdd1cda59db9959606a1b6044820152606490fd5b1561146957565b60405162461bcd60e51b815260206004820152601360248201527264616f2e6265666f72652e646561646c696e6560681b6044820152606490fd5b60001981146105995760010190565b805460ff60b01b191691151560b01b60ff60b01b16919091179055565b6106826114dc91611275565b50600a8101805460ff60b81b1916600160b81b17815560ff90611513600484015460088501548110159081611567575b50826114b3565b5460b01c1680611552575b6115255750565b600181015461154f91906001600160a01b0316611549600360028401549301610306565b90611ca1565b50565b5061156060038201546101c2565b151561151e565b90506006850154103861150c565b6115846106826115bc92611275565b50600a8101805460ff60b81b1916600160b81b1781559092806115d9575b806115c8575b6115b290826114b3565b5460b01c60ff1690565b80611552576115255750565b5060048301546006840154106115a8565b506004830154600884015411156115a2565b908160209103126104c25751611600816104e3565b90565b6040513d6000823e3d90fd5b6001600160401b0381116102c357601f01601f191660200190565b1561163157565b60405162461bcd60e51b81526020600482015260196024820152781bdddb8b9cd8599959dd585c990b98d85b1b0b99985a5b1959603a1b6044820152606490fd5b908160209103126104c257516116008161063c565b600054604051634bf9c0ad60e11b8152906020908190839060049082906001600160a01b03165afa9182156109bb57611600926116fd91600091611718575b506040516116d3816102c8565b6008815267697353616665282960c01b84820152604051916116f4836102a8565b60008352611bb4565b91908061170e575b61095f9061162a565b5081518114611705565b61172f9150833d85116109b4576109a581836102e3565b386116c6565b60405190611742826102c8565b601582527469735365637572654261736528616464726573732960581b6020830152565b1561176d57565b60405162461bcd60e51b815260206004820152601a6024820152791bdddb8b9cd958dd5c9958985cd94b98d85b1b0b99985a5b195960321b6044820152606490fd5b604051906117bc826102c8565b601182527069735369676e657228616464726573732960781b6020830152565b156117e357565b60405162461bcd60e51b81526020600482015260166024820152751bdddb8b9cda59db995c8b98d85b1b0b99985a5b195960521b6044820152606490fd5b6000546001600160a01b0316604051918291634bf9c0ad60e11b835282600460209485935afa9283156109bb576116009361187d9261093292600092611898575b5061187590604051938491878301610525565b6109486117af565b91908061188e575b61095f906117dc565b5081518114611885565b6118759192506118b490863d88116109b4576109a581836102e3565b9190611862565b60005460405163111ea8c160e21b815290602090829060049082906001600160a01b03165afa80156109bb5761160091600091611928575b50604051611900816102c8565b6005815264616765282960d81b60208201526040519161191f836102a8565b60008352611c32565b611940915060203d81116109b4576109a581836102e3565b386118f3565b60005460405163d1f956b160e01b8152916020916001600160a01b039083908590600490829085165afa9384156109bb576000946119fe575b506040519116828201528181526119d190611999816102c8565b6040516119a5816102c8565b6018815277697364656c656761746f724e6f646528616464726573732960401b84820152600094611bb4565b9190806119f4575b6119e257505090565b61160092508082518301019101611672565b50808251146119d9565b6119d192919450611a1b90843d86116109b4576109a581836102e3565b93909161197f565b60005460405163d1f956b160e01b815290602090829060049082906001600160a01b03165afa80156109bb5761160091600091611a95575b50604051611a68816102c8565b601381527267657464656c656761746f72436f756e74282960681b60208201526040519161191f836102a8565b611aad915060203d81116109b4576109a581836102e3565b38611a5b565b3d15611ade573d90611ac48261160f565b91611ad260405193846102e3565b82523d6000602084013e565b606090565b600080546040516311be646b60e21b815290602090829060049082906001600160a01b03165afa9081156109bb578284819382938391611b96575b505af1611b29611ab3565b5015611b5f5760405190815233907fcdcc745fe377b103b45fa0cec23ae3ef93d6fc6a84a01f0d18c40b354dd1d5d890602090a2565b60405162461bcd60e51b815260206004820152600f60248201526e1bdddb8b989d5c9b8b99985a5b1959608a1b6044820152606490fd5b611bae915060203d81116109b4576109a581836102e3565b38611b1e565b803b15611c1957600092839263ffffffff60e01b90602081519101201690611c066024604051809360208201958652611bf68151809260208686019101610323565b81010360048101845201826102e3565b5191620dbba0fa611c15611ab3565b9091565b505050600090604051611c2b816102a8565b6000815290565b9291611c4091600094611bb4565b9080611c65575b611c4e5750565b9091506020818051810103126104c2576020015190565b506020815114611c47565b906020825192015163ffffffff60e01b908181169360048110611c9257505050565b60040360031b82901b16169150565b9091906001600160a01b03811615611d2657600091829184519160208601915af190611ccb611ab3565b9115611cd5575090565b805160009190600411611d2057611cec9150611c70565b815115611cfc5750805190602001fd5b604051630870274d60e21b81526001600160e01b0319919091166004820152602490fd5b50611cec565b60405162461bcd60e51b81526020600482015260126024820152711bdddb8b9a5b9d985b1a590b9d185c99d95d60721b6044820152606490fdfea2646970667358221220f8f4fa5f540c6f60708e136817910fa03fa20722776df8c7e2401fde43d4980a64736f6c63430008140033608034620000d157601f6200515d38819003918201601f19168301916001600160401b03831184841017620000d657808492602094604052833981010312620000d157516001600160a01b03811690819003620000d15780156200008c5760018060a01b031933816001541617600155600054161760005560016003556040516150709081620000ed8239f35b60405162461bcd60e51b815260206004820152601360248201527f6f776e2e696e76616c69642e68657862617365000000000000000000000000006044820152606490fd5b600080fd5b634e487b7160e01b600052604160045260246000fdfe60806040526004361015610018575b361561001657005b005b60003560e01c80629db65514610347578063033eeffb146103425780630e5fd00b1461033d57806312065fe0146103385780631bb49f02146103335780631c53c2801461032e5780631f185d16146103295780632a687c87146103245780632fefc0bf1461031f578063307673e81461031a57806332ff4eab1461031557806333b59a5b146103105780633a7b55b81461030b5780633b9b7955146103065780633baee0ea14610301578063419cb27b146102fc57806342cc9d57146102f757806344585097146102f25780634f0f4aa9146102ed578063509222cd146102e857806350db85d1146102e357806361ea7208146102de578063629d671e146102d957806365d2fbd3146102d45780636a811244146102cf5780636fb412ab146102ca57806376fe6c45146102c55780637bb98498146102c057806380f85e33146102bb578063849c22ad146102b6578063896c354a146102b15780638da5cb5b146102ac57806395f72f49146102a757806398b3f215146102a2578063a1f7f5391461029d578063a89d693b14610298578063af48452614610293578063b1c490791461028e578063b366335e14610289578063b90306ad14610284578063c54e44b01461027f578063c871372b1461027a578063d1e0bbc614610275578063dcb3fc4a14610270578063e01ad5fd1461026b578063e0a9bc2b14610266578063eb95c66214610261578063eb9e9e2c1461025c578063f3ca712414610257578063fd38093b146102525763fdc10bc90361000e57612874565b612806565b6127da565b61262c565b612600565b6125e5565b612546565b6123b1565b612377565b6122fa565b61225e565b6121ab565b612101565b611fd5565b611fae565b611ee7565b611e01565b611dd5565b611d2b565b611d02565b611cc2565b611c93565b611c59565b611baf565b611b60565b611a19565b611540565b611224565b6111e7565b6111af565b6110f7565b6110a4565b610fdb565b610fa4565b610f75565b610f4d565b610b64565b610b13565b6109f4565b61091c565b610872565b6107c7565b610790565b6106e6565b6105f3565b6105bf565b6104ea565b6104b5565b610466565b61040a565b34610405576020366003190112610405576103686103636149ec565b612ba2565b61037133614b14565b8015610389575b61038190612c04565b61001661441e565b50600054604051630536340960e21b8152906001600160a01b03906020908390600490829085165afa90811561040057610381926000926103d0575b501633149050610378565b6103f291925060203d81116103f9575b6103ea818361291e565b810190612be3565b90386103c5565b503d6103e0565b612bf8565b600080fd5b3461040557602036600319011261040557600435600052600b6020526020604060002054604051908152f35b6001600160a01b031690565b6001600160a01b0381160361040557565b6001600160a01b03909116815260200190565b3461040557602036600319011261040557602060043561048581610442565b60018060a01b03809116600052600482526040600020546000526007825260046040600020015416604051908152f35b3461040557600036600319011261040557602047604051908152f35b9081526001600160a01b03909116602082015260400190565b346104055760203660031901126104055760043561050781610442565b60018060a01b038060009216825260046020526040822054825260076020526040600281842001549283815260056020522054169061054b604051928392836104d1565b0390f35b6000526010602052604060002090565b6000526009602052604060002090565b6000526007602052604060002090565b6000526005602052604060002090565b6000526008602052604060002090565b600052600a602052604060002090565b600052600b602052604060002090565b34610405576020366003190112610405576004356000526005602052602060018060a01b0360406000205416604051908152f35b34610405576020806003193601126104055760049081359061061482610442565b80610628610623600054610436565b610436565b604051634bf9c0ad60e11b815294859182905afa9182156104005761066d6106a7936106899261054b966000926106c3575b5061067b90604051938491878301610453565b03601f19810184528361291e565b610683614bb7565b90614e14565b9190806106b9575b61069a90614be4565b80825183010191016149d8565b60405190151581529081906020820190565b5081518114610691565b61067b9192506106df90863d88116103f9576103ea818361291e565b919061065a565b34610405576040366003190112610405576107026103636149ec565b61070b33614b14565b8015610729575b61071b90612c04565b610016602435600435614793565b50600054604051630536340960e21b8152906001600160a01b03906020908390600490829085165afa9081156104005761071b92600092610770575b501633149050610712565b61078991925060203d81116103f9576103ea818361291e565b9038610765565b34610405576020366003190112610405576004356000526007602052602060018060a01b0360056040600020015416604051908152f35b346104055760203660031901126104055760043560009033825260046020526107fb6107f660408420546146a6565b61357f565b808252601060205260ff600260408420015460081c1615610837576108226108349161054f565b60026000918281558260018201550155565b80f35b60405162461bcd60e51b81526020600482015260136024820152721b995cdd19590b9c995c4b9b9bdd195e1a5cdd606a1b6044820152606490fd5b346104055760403660031901126104055761088e6103636149ec565b61089733614b14565b80156108b5575b6108a790612c04565b6100166024356004356147e7565b50600054604051630536340960e21b8152906001600160a01b03906020908390600490829085165afa908115610400576108a7926000926108fc575b50163314905061089e565b61091591925060203d81116103f9576103ea818361291e565b90386108f1565b34610405576040366003190112610405576109386103636149ec565b61094133614b14565b801561095f575b61095190612c04565b61001660243560043561487a565b50600054604051630536340960e21b8152906001600160a01b03906020908390600490829085165afa90811561040057610951926000926109a6575b501633149050610948565b6109bf91925060203d81116103f9576103ea818361291e565b903861099b565b60e0810192916000915b600783106109dd57505050565b6001908251815260208091019201920191906109d0565b346104055760203660031901126104055761054b600435610b01610af160405192610a1e846128cd565b60e0368537610a3f610a2f8261055f565b6001600052602052604060002090565b548452610a5e610a4e8261055f565b6002600052602052604060002090565b546020850152610a80610a708261055f565b6003600052602052604060002090565b546040850152610aa2610a928261055f565b6004600052602052604060002090565b546060850152610ac4610ab48261055f565b6005600052602052604060002090565b546080850152610ae6610ad68261055f565b6006600052602052604060002090565b5460a085015261055f565b6007600052602052604060002090565b5460c0820152604051918291826109c6565b34610405576000366003190112610405576000546040516001600160a01b039091168152602090f35b604090600319011261040557600435610b5481610442565b90602435610b6181610442565b90565b3461040557610bc36004610b7736610b3c565b9190610b81612b7f565b610b9a610b8c61296f565b610b94612987565b33614e92565b610bad610ba561296f565b610b946129aa565b6001600160a01b039585871692871683146129d2565b610be160009187610bd961062382865416610436565b911614612a18565b610bec821515613485565b610bf5856111cd565b54158015610f42575b610c07906134c7565b610c1b610c13846111cd565b54151561350a565b610c386005610c32610c2c866111cd565b5461056f565b01612aa4565b92604092835197610c7860209963880cdc3160e01b8b82015280610c5f8b60248301610453565b0397610c73601f19998a810184528361291e565b614f7f565b50610c8c61062388610c32610c2c876111cd565b15610e3557610ccf610ca488610c32610c2c876111cd565b865162e6724f60e21b8c82015290610c7382610cc33360248301610453565b038a810184528361291e565b505b610cda836111cd565b54610ce4896111cd565b55610d0088610cfb610cf5866111cd565b5461057f565b6130b3565b610d173388610d11610c2c8c6111cd565b016130b3565b821603610e25575b610d28866111cd565b5495610d386005610c328961056f565b97610d56610d516002610d4a8b61056f565b015461057f565b612aa4565b9581610d656106238754610436565b87516314ac1b5960e21b8152998a9182905afa9182156104005761054b98610dcf9693610e00575b50865163e1430d4f60e01b918101919091526001600160a01b03948516602482015293909216604484015290610c739083606481015b0390810184528361291e565b50610dda6001600355565b519283526001600160a01b03938416602084015290921660408201529081906060820190565b610c739350610e1e610dc391833d85116103f9576103ea818361291e565b9350610d8d565b81610e2f826111cd565b55610d1f565b88610e436106238654610436565b865163111ea8c160e21b815298899182905afa80156104005783610e8d916004998791610f25575b50610e7f8c610cc38a519485928301610453565b610e87613550565b90614e92565b818116151580610f1b575b610ea3575b50610cd1565b610f1490610edb8751634fb2e45d60e01b8d820152610ed581610ec93360248301610453565b038b810183528261291e565b82614f7f565b508651630a3e884b60e41b8c8201526000602482018190526044820181905260648201526007608482015290610c738260a48101610cc3565b5038610e9d565b5080311515610e98565b610f3c91508c8d3d106103f9576103ea818361291e565b38610e6b565b508286168214610bfe565b34610405576020366003190112610405576020610f6b6004356146a6565b6040519015158152f35b346104055760203660031901126104055760043560005260076020526020600360406000200154604051908152f35b34610405576020366003190112610405576004356000526007602052602060018060a01b0360046040600020015416604051908152f35b3461040557602036600319011261040557600435806000526007602052604060002054600560205261054b60018060a01b038060406000205416936007602052604060002091600460028401549301541661103a6005610c328461056f565b90600361105c611056600161104e8761056f565b015460ff1690565b9461056f565b0154604080519788526001600160a01b03988916602089015287019490945286166060860152909416608084015292151560a083015260c082019290925290819060e0820190565b34610405576020366003190112610405576004356110c181610442565b60018060a01b031660005260046020526040600020546000526007602052602060ff600160406000200154166040519015158152f35b346104055761110536610b3c565b6111106103636149ec565b61111933614b14565b8015611142575b9161112d61113293612c04565b612c4e565b9061054b604051928392836104d1565b50600054604051630536340960e21b81526001600160a01b0393916020908290600490829088165afa8015610400576111329461112d9260009261118f575b503391161491935050611120565b6111a891925060203d81116103f9576103ea818361291e565b9038611181565b34610405576000366003190112610405576020600654604051908152f35b6001600160a01b0316600090815260046020526040902090565b346104055760203660031901126104055760043561120481610442565b60018060a01b031660005260046020526020604060002054604051908152f35b3461040557602036600319011261040557600435600161124f61124a8261104e8561056f565b6133e1565b6112588261054f565b906002908183019260ff8454818160081c1680611526575b6112799061395f565b60101c1661142957506112988261128f8661056f565b015415156139eb565b6000815b611340575b506100169360009291506112ed906001600160a01b036112d06005610c32866112c98661056f565b015461056f565b16611300575b84546112e89060101c60ff1682613a82565b61056f565b0155805462ff0000191662010000179055565b61133a6113156005610c32866112c98661056f565b604051636f58dd0f60e11b60208201526000602482015290610c73826044810161066d565b506112d6565b600380611350856112c98961056f565b0154821015611423578561137f611375848461136f896112c98761056f565b016132e2565b90549060031b1c90565b14611394575061138e906130a4565b8161129c565b83925094611419866114066112ed946113ed6113de6113756100169c6113bf60009c6112c98b61056f565b016113d8876113d18d6112c98d61056f565b0154612e31565b906132e2565b918461136f8a6112c98a61056f565b90919082549060031b91821b91600019901b1916179055565b611413856112c98561056f565b01613a35565b94508192506112a1565b506112a1565b826114a96114a36108229661147a8960036114746114e39961066d9961145e6100169f9d6114568761056f565b0154156139a4565b01978854809161146d8661056f565b015561056f565b016132ff565b83546001600160a01b036114926005610c328461056f565b166114e9575b505460101c60ff1690565b85613a82565b610c736114c7610d516114c06004610c328961056f565b935461057f565b604051630a4ce2c960e11b602082015293849160248301610453565b5061054f565b6114fa6005610c3261151f9361056f565b604051636f58dd0f60e11b60208201526001602482015290610c73826044810161066d565b5038611498565b50808216611270565b908152602081019190915260400190565b3461040557604080600319360112610405576004803561155e612b7f565b61156f61124a600161104e8461056f565b61158961158261062384610c328561056f565b33146136b5565b611591612e93565b61159f6005610c328361056f565b6002549084516115ed6115df60209263015042f960e11b84820152806115cb602497883589840161152f565b0394610c73601f199687810184528361291e565b828082518301019101613d52565b9486865194878361160386830198895190612b72565b97611613858401998a5190612b72565b6116236060850191825190612b72565b91886116356080870194855190612b72565b9761164660a08801998a5190612b72565b9661165f61165a60c08301998a5190612b72565b614739565b5161197b575b82516118cd575b505050805161181f575b50805161177e575b505061168d8351825190612b72565b6116c3575b898961054b6101008a6116aa8d60e086015190613e62565b51920151926116b96001600355565b519283928361152f565b846116d861062360009a969799989a54610436565b8b516324768d9160e01b815296879182905afa80156104005761054b98610100988c611746966116aa99600095611751575b5090610dc39161172e610c739697611724610d518d61057f565b9251905190612b72565b915197889463a9059cbb60e01b908601528401613715565b509382933880611692565b610c7395509061172e611774610dc39493863d88116103f9576103ea818361291e565b965050909161170a565b8661178d610623600054610436565b8d516313b92d3560e31b815293849182905afa918215610400576117e8928d928c928a6000936117f0575b5050610cc36117cd610d51610c73949561057f565b9151945163a9059cbb60e01b8c820152948592898401613715565b50833861167e565b610c739350610d51611815610cc393836117cd94903d106103f9576103ea818361291e565b945050508a6117b8565b878d61182f610623600054610436565b9051635506ee0b60e11b815294859182905afa908115610400578b611897928f8b908b9760009361189e575b5061188b90611870610d51610c73959661057f565b9551905195869363a9059cbb60e01b908501528b8401613715565b038c810184528361291e565b5038611676565b610c73935090611870610d516118c361188b94863d88116103f9576103ea818361291e565b955050509061185b565b6118db610623600054610436565b90516330125cf560e01b815295869182905afa908115610400578c8f928b611943948c9860009361194c575b506119379061191c610d51610c73959661057f565b9551905195869363a9059cbb60e01b908501528c8401613715565b038d810184528361291e565b5038888e61166c565b610c7393509061191c610d5161197161193794863d88116103f9576103ea818361291e565b9550505090611907565b611989610623600054610436565b9051636402742760e01b815295869182905afa938415610400578e6119e68f8f8c988f8f968d906000936119ec575b50610dc36119cc610d51610c73959661057f565b9551885163a9059cbb60e01b8b8201529687938401613715565b50611665565b610c7393506119cc610d51611a10610dc3938c8d3d106103f9576103ea818361291e565b955050506119b8565b3461040557604036600319011261040557602435600435611a38612b7f565b611a4961124a600161104e8461056f565b611a62611a5b610623610d518461057f565b331461357f565b611a89611a736005610c328461056f565b611a7b6135c3565b611a8361295c565b91614de9565b9082611a9f6020938480825183010191016135ea565b1015611ab0575b6100166001600355565b611b49611b5793611b22610d51611b18611b0a611ae8611ad46005610c328a61056f565b956040519182918b83019190602083019252565b0395611afc601f199788810184528361291e565b611b046135f9565b90614de9565b878082518301019101613623565b979250505061057f565b93610dc3611b2e61296f565b604051968793637a937b4560e11b9085015260248401613693565b6001600160a01b0316614f7f565b50388080611aa6565b34610405576020366003190112610405576020600435611b7f81610442565b60018060a01b03809116600052600482526040600020546000526007825260056040600020015416604051908152f35b3461040557604036600319011261040557611bcb6103636149ec565b611bd433614b14565b8015611bf2575b611be490612c04565b61001660243560043561388f565b50600054604051630536340960e21b8152906001600160a01b03906020908390600490829085165afa90811561040057611be492600092611c39575b501633149050611bdb565b611c5291925060203d81116103f9576103ea818361291e565b9038611c2e565b3461040557604036600319011261040557600435600052600860205260406000206024356000526020526020604060002054604051908152f35b346104055760203660031901126104055760043560005260076020526020600260406000200154604051908152f35b346104055760403660031901126104055760043560005260076020526020611cf360243560036040600020016132e2565b90549060031b1c604051908152f35b34610405576000366003190112610405576001546040516001600160a01b039091168152602090f35b3461040557604036600319011261040557611d476103636149ec565b611d5033614b14565b8015611d6e575b611d6090612c04565b6100166024356004356147bd565b50600054604051630536340960e21b8152906001600160a01b03906020908390600490829085165afa90811561040057611d6092600092611db5575b501633149050611d57565b611dce91925060203d81116103f9576103ea818361291e565b9038611daa565b3461040557602036600319011261040557600435600052600f6020526020604060002054604051908152f35b346104055760003660031901126104055760005460405163d1f956b160e01b815290602090829060049082906001600160a01b03165afa9081156104005761054b91611e8a91600091611e9a575b50604051611e5c816128e8565b601381527267657464656c656761746f72436f756e74282960681b6020820152611e8461295c565b91614f12565b6040519081529081906020820190565b611eb2915060203d81116103f9576103ea818361291e565b38611e4f565b610100810192916000915b60088310611ed057505050565b600190825181526020809101920192019190611ec3565b346104055760203660031901126104055761054b600435611f9c610af1611f0c6146bd565b92611f28611f198261058f565b60008052602052604060002090565b548452611f37610a2f8261058f565b546020850152611f49610a4e8261058f565b546040850152611f5b610a708261058f565b546060850152611f6d610a928261058f565b546080850152611f7f610ab48261058f565b5460a0850152611f91610ad68261058f565b5460c085015261058f565b5460e082015260405191829182611eb8565b34610405576020366003190112610405576020610f6b600435611fd081610442565b614b14565b34610405576120ae611fe636610b3c565b90611fef612b7f565b612031611ffd610b8c61296f565b612008610ba561296f565b906001600160a01b0390612021908216868316146129d2565b610bd96106238260005416610436565b61204a612045600161104e610c2c856111cd565b612a5d565b61209f6120956120866120646005610c32610c2c876111cd565b6040519061207e8261066d60208201906000602083019252565b611b04612ab1565b60208082518301019101612adf565b5050501515612b01565b6120a7612e4d565b33906130f4565b6120bc611f1960025461058f565b6120c68154612b5f565b90556120d0614765565b6120de6005610c328361056f565b906120e881613425565b6120f26001600355565b61054b604051928392836104d1565b346104055760203660031901126104055761211d6103636149ec565b61212633614b14565b8015612141575b61213690612c04565b610016600435612ed6565b5060046020612154610623600054610436565b604051630536340960e21b815292839182905afa8015610400576121369160009161218d575b506001600160a01b03163314905061212d565b6121a5915060203d81116103f9576103ea818361291e565b3861217a565b3461040557602036600319011261040557600054604051630536340960e21b8152906001600160a01b03906020908390600490829085165afa9182156104005760009261223e575b503391160361220757610016600435614d18565b60405162461bcd60e51b815260206004820152600f60248201526e6f776e2e6e6f6e617574682e44414f60881b6044820152606490fd5b61225791925060203d81116103f9576103ea818361291e565b90386121f3565b346104055760203660031901126104055760043561227b81610442565b803b600061228882612941565b92612296604051948561291e565b82845260208401903c602d8151106122bf57602a61054b91015160601c60405191829182610453565b60405162461bcd60e51b81526020600482015260136024820152724e6f742061206d696e696d616c2070726f787960681b6044820152606490fd5b604036600319011261040557600435612311612b7f565b600090808252600760205261232f60ff6001604085200154166133e1565b8152600760205261236e60018060a01b036005604084200154166040519062a0e53360e51b6020830152602435602483015260248252610c73826128ad565b50600160035580f35b3461040557604036600319011261040557600435600052600a60205260406000206024356000526020526020604060002054604051908152f35b346104055760c0366003190112610405576024356004356123d182610442565b60643590608435906123e1612b7f565b6123f261124a600161104e8461056f565b6124066115826106236004610c328561056f565b61240e612e93565b612417826146e1565b6124208361470d565b6124a861249a6124866124376005610c328661056f565b604051634996516b60e11b6020808301919091526001600160a01b039099166024820152604480359082015260648101889052608481019690965260a4803590870152969490819060c4820190565b0396610c73601f199889810184528361291e565b8380825183010191016136ff565b92816124bb575b5050611aa6935061416c565b90816004926124ce610623600054610436565b604051635e09dbe760e01b815294859182905afa801561040057611aa69761251d94600092612525575b50610c739192610dc360405195869263a9059cbb60e01b908401523360248401613715565b5038806124af565b610c73925061254090843d86116103f9576103ea818361291e565b916124f8565b3461040557602080600319360112610405576004803561256581610442565b60005460405163d1f956b160e01b81526001600160a01b03949093909182918591829088165afa9081156104005761054b946106a7946000936125c6575b5060405193168184015282526125b8826128e8565b6125c0614cb4565b90614ed6565b6125de919350823d84116103f9576103ea818361291e565b91386125a3565b34610405576000366003190112610405576020610f6b6149ec565b3461040557602036600319011261040557600435600052600c6020526020604060002054604051908152f35b34610405576040366003190112610405576024356004356126586107f6612652336111cd565b546146a6565b61266961124a600161104e8461056f565b61267f61267a600161104e8561056f565b613730565b61268d6005610c328461056f565b6004836040516126d36120956126c5602093806126b1868201906000602083019252565b039761207e601f19998a810184528361291e565b838082518301019101612adf565b6126dc8561054f565b9361272d60028601966127036126fe6126fa8a5460ff9060081c1690565b1590565b613774565b612721604051998a92630f77309360e31b878501526024840161152f565b0382810189528861291e565b8161273c610623600054610436565b604051630536340960e21b815295869182905afa93841561040057610016976127a89561279593610dc3936000926127b9575b50604051600162058cb160e41b031987820152939192610c7392859130602484016137ba565b91600185015580825183010191016135ea565b9055805461ff001916610100179055565b610c7392506127d490873d89116103f9576103ea818361291e565b9161276f565b3461040557602036600319011261040557600435600052600e6020526020604060002054604051908152f35b34610405576040806003193601126104055760043561282481610442565b60018060a01b031661054b8260008381526004602052818120548152600b602052818120549381526004602052818120548152600a6020528181206024358252602052205492519283928361152f565b3461040557600036600319011261040557602061288f614c29565b604051908152f35b634e487b7160e01b600052604160045260246000fd5b606081019081106001600160401b038211176128c857604052565b612897565b60e081019081106001600160401b038211176128c857604052565b604081019081106001600160401b038211176128c857604052565b602081019081106001600160401b038211176128c857604052565b601f909101601f19168101906001600160401b038211908210176128c857604052565b6001600160401b0381116128c857601f01601f191660200190565b6040519061296982612903565b60008252565b60405161297b81612903565b60008152906000368137565b60405190612994826128e8565b60078252666f776e6572282960c81b6020830152565b604051906129b7826128e8565b600c82526b67657448657862617365282960a01b6020830152565b156129d957565b60405162461bcd60e51b81526020600482015260176024820152766e65737465642e696e76616c69642e696e7374616e636560481b6044820152606490fd5b15612a1f57565b60405162461bcd60e51b81526020600482015260166024820152756e65737465642e696e76616c69642e6865786261736560501b6044820152606490fd5b15612a6457565b60405162461bcd60e51b81526020600482015260186024820152776e65737465642e706172656e742e6e6f742e65786973747360401b6044820152606490fd5b546001600160a01b031690565b60405190612abe826128e8565b60128252716765744e6f64654c422875696e743235362960701b6020830152565b9190826080910312610405578151916020810151916060604083015192015190565b15612b0857565b60405162461bcd60e51b81526020600482015260196024820152786e65737465642e706172656e742e6e6f2e627573696e65737360381b6044820152606490fd5b634e487b7160e01b600052601160045260246000fd5b9060018201809211612b6d57565b612b49565b91908201809211612b6d57565b600260035414612b90576002600355565b604051633ee5aeb560e01b8152600490fd5b15612ba957565b60405162461bcd60e51b81526020600482015260126024820152716f776e2e696e76616c69642e69735361666560701b6044820152606490fd5b908160209103126104055751610b6181610442565b6040513d6000823e3d90fd5b15612c0b57565b60405162461bcd60e51b815260206004820152601b60248201527a6f776e2e6e6f6e617574682e44414f6f725365637572656261736560281b6044820152606490fd5b9190612c58612b7f565b612c74612c6f6126fa600161104e610c2c866111cd565b613060565b612c87612c826006546130a4565b600655565b612cab60065493612c9b83610cfb8761057f565b84612ca5846111cd565b556111cd565b54612cb68482613322565b612cd56004612cc48661056f565b0180546001600160a01b0319169055565b612ce3610623600054610436565b9060405192839263e09d394d60e01b845283600460209586935afa801561040057612d1c612d2791600796600091612e14575b50613264565b6005610d118961056f565b612d7a612d386005610c328961056f565b91612d47610623600054610436565b612d66896040519384936352902c5960e01b8a860152602485016130d2565b0392610c73601f199485810184528361291e565b5081151580612df5575b612db7575b5050600084815291905260409020600501546001600160a01b031691612dae81613425565b91906001600355565b612dc86005610c32612ded9461056f565b604051636f58dd0f60e11b858201526001602482015291610c73908360448101610dc3565b503880612d89565b506001600160a01b03612e0c6005610c328561056f565b161515612d84565b612e2b9150863d88116103f9576103ea818361291e565b38612d16565b600019810191908211612b6d57565b91908203918211612b6d57565b612e55614c29565b60025410612e6d575b612e6b6005600254612f1f565b565b612e75614c29565b806002556000198101908111612b6d57612e8e9061457d565b612e5e565b612e9b614c29565b60025410612eb0575b612e6b60028054612f1f565b612eb8614c29565b806002556000198101908111612b6d57612ed19061457d565b612ea4565b612ede614c29565b60025410612ef3575b612e6b90600254612f1f565b612efb614c29565b90816002556000198201918211612b6d57612f18612e6b9261457d565b9050612ee7565b90612f2c611f198361058f565b541580613056575b8061304d575b612f42575050565b612f5e90612f58612f5284612e31565b91612e31565b90612f1f565b612f72611f19612f6d83612e31565b61058f565b54612f7f611f198361058f565b55612f8f610a2f612f6d83612e31565b54612f9c610a2f8361058f565b55612fac610a4e612f6d83612e31565b54612fb9610a4e8361058f565b55612fc9610a70612f6d83612e31565b54612fd6610a708361058f565b55612fe6610a92612f6d83612e31565b54612ff3610a928361058f565b55613003610ab4612f6d83612e31565b54613010610ab48361058f565b55613020610ad6612f6d83612e31565b5461302d610ad68361058f565b5561304a610af1613043610af1612f6d85612e31565b549261058f565b55565b50801515612f3a565b5060018211612f34565b1561306757565b60405162461bcd60e51b81526020600482015260156024820152746e65737465642e616c72656164792e65786973747360581b6044820152606490fd5b6000198114612b6d5760010190565b80546001600160a01b0319166001600160a01b03909216919091179055565b6001600160a01b03918216815291166020820152604081019190915260600190565b9161310c612c6f6126fa600161104e610c2c866111cd565b61311a612c826006546130a4565b61315261313b6006549461313184610cfb8861057f565b85612ca5856111cd565b54926131478585613322565b6004610d118661056f565b60046020613164610623600054610436565b60405163e09d394d60e01b815292839182905afa9081156104005761319f916131949160009161324c5750613264565b6005610d118661056f565b6131df6131b06005610c328661056f565b916131bf610623600054610436565b612d66866040519384936352902c5960e01b6020860152602485016130d2565b508115158061322d575b6131f257505090565b6132036005610c326132299461056f565b604051636f58dd0f60e11b60208201526001602482015291610c73908360448101610dc3565b5090565b506001600160a01b036132446005610c328561056f565b1615156131e9565b612e2b915060203d81116103f9576103ea818361291e565b6e5af43d82803e903d91602b57fd5bf390763d602d80600a3d3981f3363d3d373d3d3d363d7300000062ffffff8260881c161760005260781b17602052603760096000f0906001600160a01b038216156132ba57565b60405163b06ebf3d60e01b8152600490fd5b634e487b7160e01b600052603260045260246000fd5b80548210156132fa5760005260206000200190600090565b6132cc565b80549190600160401b8310156128c857826113ed916001612e6b950181556132e2565b919091600092808452602091600783526040808620956002948386890155846001988981018a60ff19825416179055558761335c8661059f565b83805282528489858520555b61337757505050505050509050565b6133c46133be828b8a94146133cd575b6133908861059f565b81875285528686206133a28154612b5f565b90556133ad886105af565b6133b78154612b5f565b90556130a4565b9561056f565b01549384613368565b6133dc8960036114748b61056f565b613387565b156133e857565b60405162461bcd60e51b81526020600482015260156024820152746e65737465642e757365722e6e6f7461637469766560581b6044820152606490fd5b80600052600760205261344260ff600160406000200154166133e1565b600052600760205261348260018060a01b03600560406000200154166040519062a0e53360e51b60208301526001602483015260248252610c73826128ad565b50565b1561348c57565b60405162461bcd60e51b81526020600482015260136024820152726e65737465642e7a65726f2e6164647265737360681b6044820152606490fd5b156134ce57565b60405162461bcd60e51b81526020600482015260146024820152736e65737465642e7461726765742e65786973747360601b6044820152606490fd5b1561351157565b60405162461bcd60e51b81526020600482015260176024820152766e65737465642e736f757263652e6e6f7445786973747360481b6044820152606490fd5b6040519061355d826128e8565b601382527255736572546f496e737428616464726573732960681b6020830152565b1561358657565b60405162461bcd60e51b81526020600482015260156024820152743732b9ba32b21734b73b30b634b21739b2b73232b960591b6044820152606490fd5b604051906135d0826128e8565b600b82526a6d696e74436f756e74282960a81b6020830152565b90816020910312610405575190565b60405190613606826128e8565b600e82526d6d696e74732875696e743235362960901b6020830152565b91908260809103126104055781519160208101519160606040830151920151610b6181610442565b60005b83811061365e5750506000910152565b818101518382015260200161364e565b906020916136878151809281855285808601910161364b565b601f01601f1916010190565b6001600160a01b039091168152604060208201819052610b619291019061366e565b156136bc57565b60405162461bcd60e51b815260206004820152601b60248201527a6e65737465642e757365722e696e76616c6964696e7374616e636560281b6044820152606490fd5b9190826040910312610405576020825192015190565b6001600160a01b039091168152602081019190915260400190565b1561373757565b60405162461bcd60e51b81526020600482015260156024820152741b995cdd19590b9a5b9d985b1a590b9c185c995b9d605a1b6044820152606490fd5b1561377b57565b60405162461bcd60e51b81526020600482015260176024820152761b995cdd19590b9c995c4b985b1c9958591e595e1a5cdd604a1b6044820152606490fd5b929161382760a09160009360c08752602460c08801527f547269676765722e6e65737465642e70726f706f73616c2e6d6f7665646f776e60e0880152636c696e6560e01b610100880152600180851b0316602087015283604087015261012080606088015286019061366e565b93600a60808201520152565b60405190613840826128e8565b60128252716765745374617475732875696e743235362960701b6020830152565b5190811515820361040557565b919082604091031261040557610b61602061388884613861565b9301613861565b6138ac6138b8916138a761124a600161104e8461056f565b61054f565b91600183015414613730565b6138c6610623600054610436565b906040518092630536340960e21b825281600460209586935afa90811561040057612e6b9361392161066d60029461392e94600091613942575b5061391987546040519384918783019190602083019252565b611b04613833565b805181018201910161386e565b5091019060ff801983541691151516179055565b6139599150843d86116103f9576103ea818361291e565b38613900565b1561396657565b60405162461bcd60e51b81526020600482015260166024820152751b995cdd19590b9c995c4b9b9bdd185c1c1c9bdd995960521b6044820152606490fd5b156139ab57565b60405162461bcd60e51b81526020600482015260186024820152771b995cdd19590b9d5cd95c8b9b9bdd0b99195d1858da195960421b6044820152606490fd5b156139f257565b60405162461bcd60e51b815260206004820152601b60248201527a1b995cdd19590b9d5cd95c8b985b1c99591e4b99195d1858da1959602a1b6044820152606490fd5b8054908115613a5f5760001991820191613a4f83836132e2565b909182549160031b1b1916905555565b634e487b7160e01b600052603160045260246000fd5b8015612b6d576000190190565b613a94613a8e826105af565b54612b5f565b60029081613aa18461056f565b0154906001938492835b613ab9575b50505050505050565b600f8085111580613d49575b15613d435785906005613ade61062382610c328761056f565b613b00575b5050613af1613af99261056f565b0154936130a4565b9285613aab565b865b82811115613bc857505050613af1613af99289600014613b8657613b3f613b288661059f565b613b3189612e31565b600052602052604060002090565b54613b67613b5f89613b508561059f565b90600052602052604060002090565b918254612b72565b9055613b72816105af565b613b7d878254612b72565b90555b92613ae3565b613b92613b288661059f565b54613bab613ba389613b508561059f565b918254612e40565b9055613bb6816105af565b613bc1878254612e40565b9055613b80565b90919250613bd982610c328761056f565b8a89613be58a85612e40565b926040613c26613c18825180613c046020998a83019190602083019252565b039461207e601f199687810184528361291e565b868082518301019101612adf565b5050949091888b841580613d3b575b613d2957610c7393613ca4999896938b613c5a613c979a9895610c32610dc39661056f565b97549151988995637b058ac160e01b8d8801526024870193909594919260809360a086019786526020860152604085015260608401521515910152565b80518101820191016136ff565b908b15613cef575b808211613cc7575050613cbe906130a4565b90879291613b02565b613cd0906130a4565b613cde81613b508c5461058f565b613ce88154612b5f565b9055613cac565b818111613d01575050613cbe906130a4565b80613d13613d2492613b508d5461058f565b613d1d8154612e31565b9055613a75565b613cef565b505050505050505050613cbe906130a4565b508715613c35565b50613ab0565b50811515613ac5565b9061012080838303126104055781601f8401121561040557604051928184016001600160401b038111858210176128c8576040528391810192831161040557905b828210613da05750505090565b8151815260209182019101613d93565b60405190613dbd826128e8565b600f82526e66726565496e74657276616c73282960881b6020830152565b60405190613de8826128e8565b601582527467657452616e6b5769746841676556616c7565282960581b6020830152565b60405190613e19826128e8565b601382527272616e6b436c617573652875696e743235362960681b6020830152565b908160a0910312610405578051916020820151916040810151916080606083015192015190565b91906004906020613e77610623600054610436565b60405163cfbffe5360e01b815293849182905afa9182156104005760009261414b575b50613eb4613ea661296f565b613eae613db0565b84614f12565b906000809360009060009560009360009260009a5b600f8c111580614142575b1561413457613eea6106236005610c328461056f565b613f0b575b6002613efd613f059261056f565b01549b6130a4565b9a613ec9565b8b613f37613f28613f206005610c328661056f565b611a7b613ddb565b602080825183010191016136ff565b829192156140eb575b811515806140e2575b80156140da575b613f5d575b505050613eef565b838b9184959e8e949503614018575b5092613fe592610c73613fd69361066d8e613f8e6005610c32613feb9b61056f565b9460025460405197889563208bffb160e21b60208801526024870193909594919260a09360c08601978652600060208701526040860152606085015260808401521515910152565b602080825183010191016135ea565b91612b5f565b8082101561400057509860028c613f05613f55565b806133ad61401392613b5060025461058f565b613feb565b939a5050505083821161406b575b5088888b86841080801591614042575b50159992919038613f6c565b8a861015915081614063575b508061405b575b38614036565b508715614055565b90503861404e565b935093509350506140bc6140ad60405161409f8161409187602083019190602083019252565b03601f19810183528261291e565b6140a7613e0c565b86614de9565b60208082518301019101613e3b565b9493509095915094926140d28593600254612e40565b119338614026565b506000613f50565b508a1515613f49565b965050995092509350506141146140ad60405161409f816140918c602083019190602083019252565b9a9350909591509492828c819b61412d88600254612e40565b1196613f40565b505050505050505050509050565b50801515613ed4565b61416591925060203d6020116103f9576103ea818361291e565b9038613e9a565b9291600460009260206141826106238654610436565b60405163cfbffe5360e01b815293849182905afa9182156104005784926143fd575b506141b0613ea661296f565b918480809181978294839b5b600f8d1115806143f4575b156143e5576141dd6106236005610c328461056f565b6141fe575b60026141f06141f89261056f565b01549c6130a4565b9b6141bc565b8c614213613f28613f206005610c328661056f565b829192158061438c575b1580614383575b801561437a575b614238575b5050506141e2565b8b849e948c928f959687036142e0575b5092610c73613fd69361066d8e6142b3989561426b6005610c32613fe59b61056f565b956002549060405198899663208bffb160e21b60208901526024880194919260a0949197969360c0870198875260208701526040860152606085015260808401521515910152565b808210156142c857509960028d6141f8614230565b806133ad6142db92613b5060025461058f565b6142b3565b94505050509750838211614336575b5087898c8c8785108080159161430d575b50159a9290939138614248565b8b87101591508161432e575b5080614326575b38614300565b508815614320565b905038614319565b9350935093505061435c6140ad60405161409f8161409187602083019190602083019252565b9493509095915094926143728593600254612e40565b1193386142ef565b508c151561422b565b508a1515614224565b97509450509350945098506143c46140ad6040516143b68161409187602083019190602083019252565b6143be613e0c565b8c614de9565b9c93509096915095938d8194829d6143de82600254612e40565b119761421d565b50505050505050505050509050565b508015156141c7565b61441791925060203d6020116103f9576103ea818361291e565b90386141a4565b6002546000198101908111612b6d57612e6b9061457d565b1561443d57565b60405162461bcd60e51b81526020600482015260126024820152716e65737465642e696e76616c69642e61676560701b6044820152606490fd5b60405190614484826128e8565b60188252776765744261746368526f79616c7479436c6175736573282960401b6020830152565b6102a09081818403126104055782601f820112156104055760408051936144d1856128cd565b849383019281841161040557935b8385106144ee57505050505090565b606085830312610405578251606091614506826128ad565b86518252602091828801518382015285880151868201528152019401936144df565b9060078110156132fa5760051b0190565b9081606402916064830403612b6d57565b81810292918115918404141715612b6d57565b8115614567570490565b634e487b7160e01b600052601260045260246000fd5b614588811515614436565b614596610623600054610436565b90604051809263cfbffe5360e01b825281600460209586935afa908115610400576145de916145d091600091614689575b50611a7b614477565b8380825183010191016144ab565b6145f282600052600c602052604060002090565b5460015b6007811115614606575050505050565b8061461761467592613b508761058f565b5480156146835761463061462a83612e31565b86614528565b5187815192831561467a5761465761465c9261464f614662968a61454a565b940151614539565b61454a565b9061455d565b61466f82613b508861055f565b556130a4565b6145f6565b505050506130a4565b506130a4565b6146a09150853d87116103f9576103ea818361291e565b386145c7565b600052600760205260ff6001604060002001541690565b604051906101008083016001600160401b038111848210176128c857604052368337565b60025480600052600c602052604060002054918201809211612b6d57600052600c602052604060002055565b60025480600052600d602052604060002054918201809211612b6d57600052600d602052604060002055565b60025480600052600e602052604060002054918201809211612b6d57600052600e602052604060002055565b60025480600052600f6020526040600020549060018201809211612b6d57600052600f602052604060002055565b9080600052600c602052604060002054918201809211612b6d57600052600c602052604060002055565b9080600052600e602052604060002054918201809211612b6d57600052600e602052604060002055565b9080600052600f602052604060002054918201809211612b6d57600052600f602052604060002055565b6040519061481e826128e8565b6014825273676574627573696e6573732875696e743235362960601b6020830152565b6040519061484e826128e8565b601d82527f67657472616e6b436f756e742875696e743235362c75696e74323536290000006020830152565b60009061488a6106238354610436565b91604092835192839163111ea8c160e21b835282600460209485935afa938415610400578394614971575b505b858111156148c757505050505050565b8451828101828152819003808252601f19916148f8916148ea906020018261291e565b6148f2614811565b87614f12565b61490f613b5f84600052600c602052604060002090565b9055835b6008811061492b575050614926906130a4565b6148b7565b61496c9061495f88516149518161494585898b840161152f565b0386810183528261291e565b614959614841565b89614f12565b61466f82613b508761058f565b614913565b614989919450823d84116103f9576103ea818361291e565b92386148b5565b1561499757565b60405162461bcd60e51b81526020600482015260196024820152781bdddb8b9cd8599959dd585c990b98d85b1b0b99985a5b1959603a1b6044820152606490fd5b9081602091031261040557610b6190613861565b600054604051634bf9c0ad60e11b8152906020908190839060049082906001600160a01b03165afa91821561040057610b6192614a6291600091614a7d575b50604051614a38816128e8565b6008815267697353616665282960c01b8482015260405191614a5983612903565b60008352614e14565b919080614a73575b61069a90614990565b5081518114614a6a565b614a949150833d85116103f9576103ea818361291e565b38614a2b565b60405190614aa7826128e8565b601582527469735365637572654261736528616464726573732960581b6020830152565b15614ad257565b60405162461bcd60e51b815260206004820152601a6024820152791bdddb8b9cd958dd5c9958985cd94b98d85b1b0b99985a5b195960321b6044820152606490fd5b600054614b29906001600160a01b0316610436565b604051918291634bf9c0ad60e11b835282600460209485935afa92831561040057610b6193614b799261066d92600092614b94575b50614b7190604051938491878301610453565b610683614a9a565b919080614b8a575b61069a90614acb565b5081518114614b81565b614b71919250614bb090863d88116103f9576103ea818361291e565b9190614b5e565b60405190614bc4826128e8565b601182527069735369676e657228616464726573732960781b6020830152565b15614beb57565b60405162461bcd60e51b81526020600482015260166024820152751bdddb8b9cda59db995c8b98d85b1b0b99985a5b195960521b6044820152606490fd5b60005460405163111ea8c160e21b815290602090829060049082906001600160a01b03165afa801561040057610b6191600091614c96575b50604051614c6e816128e8565b6005815264616765282960d81b602082015260405191614c8d83612903565b60008352614f12565b614cae915060203d81116103f9576103ea818361291e565b38614c61565b60405190614cc1826128e8565b6018825277697364656c656761746f724e6f646528616464726573732960401b6020830152565b3d15614d13573d90614cf982612941565b91614d07604051938461291e565b82523d6000602084013e565b606090565b600080546040516311be646b60e21b815290602090829060049082906001600160a01b03165afa908115610400578284819382938391614dcb575b505af1614d5e614ce8565b5015614d945760405190815233907fcdcc745fe377b103b45fa0cec23ae3ef93d6fc6a84a01f0d18c40b354dd1d5d890602090a2565b60405162461bcd60e51b815260206004820152600f60248201526e1bdddb8b989d5c9b8b99985a5b1959608a1b6044820152606490fd5b614de3915060203d81116103f9576103ea818361291e565b38614d53565b90614df49291614e14565b9060009015614e01575090565b6040519150614e0f82612903565b815290565b803b15614e7957600092839263ffffffff60e01b90602081519101201690614e666024604051809360208201958652614e56815180926020868601910161364b565b810103600481018452018261291e565b5191620dbba0fa614e75614ce8565b9091565b505050600090604051614e8b81612903565b6000815290565b9291614ea091600094614e14565b9080614ecb575b614eae5750565b909150602081805181010312610405576020015161043681610442565b506020815114614ea7565b9291614ee491600094614e14565b9080614f07575b614ef25750565b610b61919250602080825183010191016149d8565b506020815114614eeb565b9291614f2091600094614e14565b9080614f43575b614f2e5750565b610b61919250602080825183010191016135ea565b506020815114614f27565b906020825192015163ffffffff60e01b908181169360048110614f7057505050565b60040360031b82901b16169150565b6001600160a01b0381161561500057600080918351908260208601915af190614fa6614ce8565b9115614fb0575090565b805160009190600411614ffa57614fc79150614f4e565b815115614fd75750805190602001fd5b604051630870274d60e21b81526001600160e01b03199091166004820152602490fd5b50614fc7565b60405162461bcd60e51b81526020600482015260126024820152711bdddb8b9a5b9d985b1a590b9d185c99d95d60721b6044820152606490fdfea264697066735822122058c13d2df3e267322cbdfcf7f184212c75f1324efe356a9e28ceceb37c7ab3fe64736f6c63430008140033","linkReferences":{}},"methodIdentifiers":{"dAOAssembly()":"14837455","daocore()":"14d8d024","nested741()":"45cff900","old741()":"5540c5ac","price()":"a035b1fe"},"id":34}