{"abi":[{"type":"constructor","inputs":[{"name":"_hex","type":"address","internalType":"address"}],"stateMutability":"nonpayable"},{"type":"function","name":"instanceStor","inputs":[],"outputs":[{"name":"","type":"address","internalType":"address"}],"stateMutability":"view"}],"bytecode":{"object":"0x6080346100c5576001600160401b0390601f616b3d38819003918201601f1916830191848311848410176100af578084926020946040528339810103126100c557516001600160a01b039190828116908190036100c557604051916169e490818401908111848210176100af576020928492610159843981520301906000f080156100a3571660018060a01b03196000541617600055604051608e90816100cb8239f35b6040513d6000823e3d90fd5b634e487b7160e01b600052604160045260246000fd5b600080fdfe6080806040526004361015601257600080fd5b600090813560e01c63131c73ad14602857600080fd5b346054578160031936011260545773ffffffffffffffffffffffffffffffffffffffff60209254168152f35b5080fdfea264697066735822122015b8c7b811d46b9a95a951aba0dada05c95a4055beb10960d10af50fb85dbbaa64736f6c63430008140033608034620000d157601f620069e438819003918201601f19168301916001600160401b03831184841017620000d657808492602094604052833981010312620000d157516001600160a01b03811690819003620000d15780156200008c5760018060a01b031933816001541617600155600054161760005560016003556040516168f79081620000ed8239f35b60405162461bcd60e51b815260206004820152601360248201527f6f776e2e696e76616c69642e68657862617365000000000000000000000000006044820152606490fd5b600080fd5b634e487b7160e01b600052604160045260246000fdfe60806040526004361015610018575b361561001657005b005b60003560e01c806302a085f2146102b8578063043719b4146102b357806309d8da2e146102ae5780630b98f975146102a957806312065fe0146102a4578063141ca6601461029f578063143ec3b71461029a5780631f185d161461029557806329ee350e146102905780632c2838e81461028b578063393a9f951461028657806339b4d61b146102815780633b9b79551461027c5780634a65786c146102775780634bc21fd61461027257806352902c591461026d578063619d5194146102685780636350b2c214610263578063692450091461025e578063725b6fff1461025957806375b4d78c146102545780637bfbfecb1461024f578063880cdc311461024a5780638da5cb5b14610245578063932ca2d614610240578063934209ce1461023b5780639659867e14610236578063a153154514610231578063a1f7f5391461022c578063a20199ac14610227578063a98bf4f914610222578063a9bf285b1461021d578063af48452614610218578063af640d0f14610213578063b90306ad1461020e578063c54e44b014610209578063c8ef7b1a14610204578063d3a1a499146101ff578063da021335146101fa578063e01ad5fd146101f5578063e0a9bc2b146101f05763fdc10bc90361000e57611535565b61151a565b611480565b611428565b6113fc565b61131d565b6112e5565b611229565b61120b565b6111da565b6111bc565b611190565b611144565b611086565b611051565b611033565b611015565b610f56565b610f2f565b610e7b565b610cc6565b610ca8565b610c8a565b610c6c565b610c15565b610b54565b610a28565b610962565b61093c565b610915565b6108e9565b610814565b61074e565b610715565b610605565b6105c8565b61051b565b6104ff565b61045c565b610439565b6103fd565b6102ec565b610120810192916000915b600983106102d557505050565b6001908251815260208091019201920191906102c8565b60403660031901126103f857604051610304816115da565b61012036823760ff600454166103e75761032461031f615f7a565b611558565b61032d336160be565b8015610361575b61035d9161034461035192611691565b6024359060043590611fd4565b604051918291826102bd565b0390f35b506004906001600160a01b03906020826000541660405194858092630536340960e21b82525afa9283156103e25761035d9361035193610344926000926103b2575b50339116149250509150610334565b6103d491925060203d81116103db575b6103cc818361164b565b81019061166d565b90386103a3565b503d6103c2565b611685565b600460405163658141c160e01b8152fd5b600080fd5b346103f85760403660031901126103f857600435600052601c602052602061042b602435604060002061173a565b90546040519160031b1c8152f35b346103f85760003660031901126103f857602060ff600454166040519015158152f35b346103f85760203660031901126103f85761047861031f615f7a565b610481336160be565b801561049c575b61049190611691565b610016600435600555565b5060046001600160a01b036020816000541660405193848092630536340960e21b82525afa9081156103e257610491926000926104df575b501633149050610488565b6104f891925060203d81116103db576103cc818361164b565b90386104d4565b346103f85760003660031901126103f857602047604051908152f35b60203660031901126103f85761053261031f615f7a565b61053b336160be565b8015610565575b61054b90611691565b610553611f85565b61055e600435612e4d565b6001600355005b5060046001600160a01b036020816000541660405193848092630536340960e21b82525afa9081156103e25761054b926000926105a8575b501633149050610542565b6105c191925060203d81116103db576103cc818361164b565b903861059d565b346103f85760203660031901126103f857600435600052601c6020526020604060002054604051908152f35b6001600160a01b038116036103f857565b346103f8576020806003193601126103f857600490813590610626826105f4565b8061064861063c6000546001600160a01b031690565b6001600160a01b031690565b60405194858092634bf9c0ad60e11b82525afa9182156103e25761069c6106d6936106b89261035d966000926106f2575b506106aa906040519384918783019190916001600160a01b036020820193169052565b03601f19810184528361164b565b6106b2616168565b90616593565b9190806106e8575b6106c9906161a1565b8082518301019101615f65565b60405190151581529081906020820190565b50815181146106c0565b6106aa91925061070e90863d88116103db576103cc818361164b565b9190610679565b346103f85760003660031901126103f857600b54600881101561074957600c81015460408051928352602083019190915290f35b6113d4565b346103f85760203660031901126103f8576101e061076d600435614a8a565b60405190805182526020810151602083015260408101516040830152606081015160608301526080810151608083015260a081015160a083015260c081015160c083015260e081015160e0830152610100808201519083015261012080820151908301526101408082015190830152610160808201519083015261018080820151908301526101a080820151908301526101c08091015190820152f35b801515036103f857565b346103f85760c03660031901126103f85760a4356108318161080a565b61083c61031f615f7a565b610845336160be565b801561087f575b9061085961086d92611691565b60843560643560443560243560043561398c565b60408051928352602083019190915290f35b506001600160a01b039060046020836000541660405192838092630536340960e21b82525afa80156103e25761086d93610859926000926108c9575b50339116149192505061084c565b6108e291925060203d81116103db576103cc818361164b565b90386108bb565b346103f85760203660031901126103f85760043560005260146020526020604060002054604051908152f35b346103f85760003660031901126103f85760206001600160a01b0360005416604051908152f35b346103f85760003660031901126103f857602060ff60045460081c166040519015158152f35b346103f85760e03660031901126103f85760c43561097f8161080a565b61098a61031f615f7a565b610993336160be565b80156109be575b906109a761086d92611691565b60a435608435606435604435602435600435613ab0565b506001600160a01b039060046020836000541660405192838092630536340960e21b82525afa80156103e25761086d936109a792600092610a08575b50339116149192505061099a565b610a2191925060203d81116103db576103cc818361164b565b90386109fa565b346103f85760603660031901126103f857600435610a45816105f4565b602435610a51816105f4565b6001600160a01b038092168015808015610b4a575b610b2057610adc5782610a86610ad194600054166001600160a01b031690565b610aa6836001600160a01b03166001600160a01b03196000541617600055565b167fe939feee179e631422bcc8f6e6d7d908cb3f8af38f5372f17c77e15aea5c80ee600080a36162c5565b610016604435600755565b606460405162461bcd60e51b815260206004820152601360248201527f6f776e2e696e76616c69642e68657862617365000000000000000000000000006044820152fd5b60046040517fa596f2f9000000000000000000000000000000000000000000000000000000008152fd5b5083831615610a66565b346103f85760203660031901126103f857600435610b718161080a565b610b7c61031f615f7a565b610b85336160be565b8015610bab575b90610b9961001692611691565b60ff8019600454169115151617600455565b506001600160a01b039060046020836000541660405192838092630536340960e21b82525afa80156103e25761001693610b9992600092610bf5575b503391161491925050610b8c565b610c0e91925060203d81116103db576103cc818361164b565b9038610be7565b346103f85760203660031901126103f8576004356000526016602052608060406000208054906001810154906001600160a01b03600360028301549201541691604051938452602084015260408301526060820152f35b346103f85760003660031901126103f8576020600a54604051908152f35b346103f85760003660031901126103f8576020600854604051908152f35b346103f85760003660031901126103f8576020600554604051908152f35b600080600319360112610e785760ff600454166103e757610ce5611f85565b610cf5610cf06161ec565b600255565b610d0961063c82546001600160a01b031690565b60405190817f1b4fc17b000000000000000000000000000000000000000000000000000000009182825281600460209586935afa80156103e257610d56918591610e5b575b503490616386565b6000805260156020527fa31547ce6245cdb9ecea19cf8c7eb9f5974025bb4075011409251ae855b30aed610d8b348254611ef6565b9055610da4610d98614227565b50915050600254611793565b81610db961063c85546001600160a01b031690565b9160046040518094819382525afa9081156103e2577f1517c86fcf2bfb8e3468afcc539b0004955da8027797c497ea51d1f1094ab898928492610e3e575b5050600254604080513381526001600160a01b0393909316602084015260009083015234606083015260808201526103e860a082015260c090a1610e3b6001600355565b80f35b610e549250803d106103db576103cc818361164b565b3880610df7565b610e729150843d86116103db576103cc818361164b565b38610d4e565b80fd5b346103f85760203660031901126103f857600435610e98816105f4565b610ea361031f615f7a565b610eac336160be565b8015610ec5575b90610ec061001692611691565b6117d8565b506001600160a01b039060046020836000541660405192838092630536340960e21b82525afa80156103e25761001693610ec092600092610f0f575b503391161491925050610eb3565b610f2891925060203d81116103db576103cc818361164b565b9038610f01565b346103f85760003660031901126103f85760206001600160a01b0360015416604051908152f35b60a03660031901126103f857600435610f6e816105f4565b610f7961031f615f7a565b610f82336160be565b8015610fab575b90610f9661086d92611691565b6084359060643590604435906024359061181a565b506001600160a01b039060046020836000541660405192838092630536340960e21b82525afa80156103e25761086d93610f9692600092610ff5575b503391161491925050610f89565b61100e91925060203d81116103db576103cc818361164b565b9038610fe7565b346103f85760003660031901126103f8576020600b54604051908152f35b346103f85760003660031901126103f8576020600654604051908152f35b346103f85760003660031901126103f857608061106c614227565b916040519384526020840152151560408301526060820152f35b346103f85760003660031901126103f857600460206001600160a01b03600054166040519283809263d1f956b160e01b82525afa9081156103e25761035d9161111691600091611126575b506040516110de816115f7565b601381527f67657464656c656761746f72436f756e742829000000000000000000000000006020820152611110611d49565b916166c9565b6040519081529081906020820190565b61113e915060203d81116103db576103cc818361164b565b386110d1565b346103f85760403660031901126103f85761116360243560043561599e565b60405190600090825b600783106111795760e084f35b60019082518152602080910192019201919061116c565b346103f85760203660031901126103f85760043560005260176020526020604060002054604051908152f35b346103f85760003660031901126103f8576020600954604051908152f35b346103f85760203660031901126103f85760206112016004356111fc816105f4565b6160be565b6040519015158152f35b346103f85760003660031901126103f8576020600754604051908152f35b346103f85760203660031901126103f85760046001600160a01b036020816000541660405193848092630536340960e21b82525afa9182156103e2576000926112c5575b503391160361128157610016600435616470565b606460405162461bcd60e51b815260206004820152600f60248201527f6f776e2e6e6f6e617574682e44414f00000000000000000000000000000000006044820152fd5b6112de91925060203d81116103db576103cc818361164b565b903861126d565b346103f85760203660031901126103f857602061130c600435611307816105f4565b616846565b6001600160a01b0360405191168152f35b346103f85760403660031901126103f85760243561133a8161080a565b61134561031f615f7a565b61134e336160be565b801561136a575b9061136261001692611691565b6004356116dc565b506001600160a01b039060046020836000541660405192838092630536340960e21b82525afa80156103e25761001693611362926000926113b4575b503391161491925050611355565b6113cd91925060203d81116103db576103cc818361164b565b90386113a6565b634e487b7160e01b600052603260045260246000fd5b600881101561074957600c0190600090565b346103f85760203660031901126103f85760043560088110156103f857602090600c0154604051908152f35b346103f8576020806003193601126103f8576080906004356000526018815260409081600020549160198252806000205490601a8352806000205491601b845281600020549382519586528501528301526060820152f35b346103f8576020806003193601126103f8576004803561149f816105f4565b6001600160a01b03928084600054166040519485809263d1f956b160e01b82525afa9081156103e25761035d946106d6946000936114fb575b5060405193168184015282526114ed826115f7565b6114f561628c565b9061668d565b611513919350823d84116103db576103cc818361164b565b91386114d8565b346103f85760003660031901126103f8576020611201615f7a565b346103f85760003660031901126103f85760206115506161ec565b604051908152f35b1561155f57565b606460405162461bcd60e51b815260206004820152601260248201527f6f776e2e696e76616c69642e69735361666500000000000000000000000000006044820152fd5b634e487b7160e01b600052604160045260246000fd5b6060810190811067ffffffffffffffff8211176115d557604052565b6115a3565b610120810190811067ffffffffffffffff8211176115d557604052565b6040810190811067ffffffffffffffff8211176115d557604052565b6020810190811067ffffffffffffffff8211176115d557604052565b60e0810190811067ffffffffffffffff8211176115d557604052565b90601f8019910116810190811067ffffffffffffffff8211176115d557604052565b908160209103126103f85751611682816105f4565b90565b6040513d6000823e3d90fd5b1561169857565b606460405162461bcd60e51b815260206004820152601b60248201527f6f776e2e6e6f6e617574682e44414f6f725365637572656261736500000000006044820152fd5b6116e46161ec565b9081600255600052601c60205260406000209160001461172b578154801590811561171f575b50611714575b5050565b61171d91611752565b565b6001915016153861170a565b60018083541614611714575050565b80548210156107495760005260206000200190600090565b90815491680100000000000000008310156115d5578261177a91600161171d9501815561173a565b90919082549060031b91821b91600019901b1916179055565b60c8600052601c6020527f922f6af691981b741eb02b3ed3453cc38ce623e8709ce524bd43bdbfc62af099911561172b578154801590811561171f5750611714575050565b6001600160a01b038116156117f05761171d906162c5565b60046040517fb31092f1000000000000000000000000000000000000000000000000000000008152fd5b9092949360049160ff835416611cf057611832611f85565b61184261183e826160be565b1590565b611ce057611851610cf06161ec565b60009461186861063c87546001600160a01b031690565b906040928351809663cfbffe5360e01b94858352828260209485935afa9788156103e2578a98611cc1575b506118ad61189f611d5c565b6118a7611d74565b8a6166c9565b978815611c75576118cd6118bf611d5c565b6118c7611dad565b836166c9565b906118db60029a8b54611dfc565b916119106118f86118ea611d5c565b6118f2611e1c565b856166c9565b92611901611d5c565b9061190a611e55565b906166c9565b90611925846000526014602052604060002090565b541091821592611c58575b5050611c305761194a906000526014602052604060002090565b8054600101905560018714948515611c27578261197161063c8d546001600160a01b031690565b918389518094819382525afa9081156103e2576119b29161069c918d91611c0a575b506119aa8c8a519384918883019190602083019252565b61190a611e8e565b9b8c955b611b3a575b5050879695937f1517c86fcf2bfb8e3468afcc539b0004955da8027797c497ea51d1f1094ab89898611b109694611a5994611a47611a4c9560065415611b21575b611a0f611a0a600654611f2e565b600655565b8b5485611a1a611d00565b9288845283015289820152606081019e8f52611a426006546000526016602052604060002090565b611f3d565b6126b4565b6001600160a01b03168852565b611aa1611a6d88516001600160a01b031690565b6003611a856006546000526016602052604060002090565b01906001600160a01b03166001600160a01b0319825416179055565b88611ad2611aae82612844565b98611ac5611aba614227565b509150508854611793565b516001600160a01b031690565b9454915195869533879260a09491979695929760c08501986001600160a01b0380921686521660208501526040840152606083015260808201520152565b0390a1611b1d6001600355565b9190565b611b2b8c54600855565b611b358c54600955565b6119fc565b909192939450600554918c611b4f8484611ef6565b10611bba5750887f1517c86fcf2bfb8e3468afcc539b0004955da8027797c497ea51d1f1094ab89899989795611b109795611a478f9496611ba7611ba287611b9d611a4c9a611a599c611ef6565b611f21565b600555565b95505094509496509881959798506119bb565b611c0690875191829162461bcd60e51b8352820160609060208152601360208201527f73746f722e66616b652e6d696e7476616c75650000000000000000000000000060408201520190565b0390fd5b611c219150853d87116103db576103cc818361164b565b38611993565b508b8c956119b6565b5085517feb2c7de7000000000000000000000000000000000000000000000000000000008152fd5b8c1091508115611c6b575b503880611930565b90508a1138611c63565b611c0682885191829162461bcd60e51b8352820160609060208152601560208201527f696e76616c6964206d696e744379636c6544617973000000000000000000000060408201520190565b611cd9919850823d84116103db576103cc818361164b565b9638611893565b82604051630d419f7360e41b8152fd5b8260405163658141c160e01b8152fd5b604051906080820182811067ffffffffffffffff8211176115d557604052565b6040519061171d8261162f565b67ffffffffffffffff81116115d557601f01601f191660200190565b60405190611d5682611613565b60008252565b604051611d6881611613565b60008152906000368137565b60405190611d81826115f7565b600f82527f6d696e744379636c6544617973282900000000000000000000000000000000006020830152565b60405190611dba826115f7565b601282527f6d61784d696e74735065724379636c65282900000000000000000000000000006020830152565b634e487b7160e01b600052601160045260246000fd5b8115611e06570490565b634e487b7160e01b600052601260045260246000fd5b60405190611e29826115f7565b600c82527f6d696e4d696e74517479282900000000000000000000000000000000000000006020830152565b60405190611e62826115f7565b600c82527f6d61784d696e74517479282900000000000000000000000000000000000000006020830152565b60405190611e9b826115f7565b601982527f636f6d707574654d696e7456616c75652875696e7432353629000000000000006020830152565b90600e8201809211611ed557565b611de6565b6046019081604611611ed557565b9060018201809211611ed557565b91908201809211611ed557565b600019810191908211611ed557565b600119810191908211611ed557565b91908203918211611ed557565b6000198114611ed55760010190565b60036001600160a01b03606061171d948051855560208101516001860155604081015160028601550151169101906001600160a01b03166001600160a01b0319825416179055565b600260035414611f96576002600355565b60046040517f3ee5aeb5000000000000000000000000000000000000000000000000000000008152fd5b60405190611fcd8261162f565b60e0368337565b90611fe79291611fe2611f85565b61211d565b906001600355565b60405190611ffc826115f7565b601082527f65616368636c61696d4379636c652829000000000000000000000000000000006020830152565b60405190612035826115f7565b601082527f6d696e436c61696d5065724461792829000000000000000000000000000000006020830152565b6040519061206e826115f7565b601082527f6d6178436c61696d5065724461792829000000000000000000000000000000006020830152565b604051906120a7826115f7565b601682527f6d6178476c6f62616c436c61696d5065724461792829000000000000000000006020830152565b604051906120e0826115f7565b601582527f67657477697468647261776e2875696e743235362900000000000000000000006020830152565b9060098110156107495760051b0190565b92918381156126ae5750600255600061214061063c82546001600160a01b031690565b6040908151809163cfbffe5360e01b825281600460209384935afa9182156103e257849261268f575b50612172614227565b50969150506121846002968754611793565b60326121b38754600854936121998186611ef6565b821115612688576121ab915084611ef6565b925b83611f21565b11612680576121c1906145cc565b6121e06121d76121cf611d5c565b6118f2611fef565b60095490611ef6565b908554918210156121fd575b50505050505061171d610cf06161ec565b612210612208611d5c565b6118f2612028565b9261222461221c611d5c565b6118c7612061565b600f6000526015602052926123866123566123266122f66122c66122967f3bda72f6153f13a10a865b9a6397e1123f4aa6a1726e0e1349cd07eb0e24d81554601060005260156020527f778c823f9b5f066b3c9d60b855427fd2999fcc25aebe3320977c1598596fffaf5b5490611ef6565b601160005260156020527fed5e5ecd5cb229fc7c2ed17e5e7cdfdc1d0a81991bd95ffdc4cdf25aca2d2ac361228f565b601260005260156020527f2d1305887a553ebca964114eb55137666ae056a13c7d9c5dcf078bd3a9732a3861228f565b601360005260156020527fa5165e376b84f33a3c944a34b062595f1fb4afde844645ed23ed1e10c257ebe161228f565b601460005260156020527fe06932cbfde2f2475d8c82e797702b1bf34af837520e34a39e7e7b5e28f71d5f61228f565b601560008190526020527ff38242ae41b6250df1acd58d7376889913b9221d9b2e1d2e50fb7d62671fa73361228f565b94851015612396575b50506121ec565b6123ad6004926123a4611d5c565b9061190a61209a565b92806123c361063c8a546001600160a01b031690565b88519485809263ab6e844f60e01b82525afa9081156103e25761240793899261265d575b508751908101928352916123ff90839060200161069c565b61190a6120d3565b1015612634578082111561262c5761241e91611f21565b9060015b60078111156124a55750507fce9b89faa7d00b5a0dcea74b754372f1c8c1e2788b44e0b6fc99899848f9baf7805460e08701527f6b9301c903fb63b5bb3b4ed52f960f66e3a0c33bca0ea2f28cf6e34d2eb058dd80546101008801526015602090815291849055600091909152919091555054600955388080808080808061238f565b6124c16124b182611ec7565b6000526015602052604060002090565b5483612593579061258e916124e0826000526015602052604060002090565b6124eb828254611ef6565b9055856124fa6124b184611ec7565b5561250d61250783611f03565b8a61210c565b525b7f1517c86fcf2bfb8e3468afcc539b0004955da8027797c497ea51d1f1094ab89861253c61250783611f03565b5187549061258661254c85611eda565b875193849333859094939260a0926001600160a01b0360c08401971683526000602084015260006040840152606083015260808201520152565b0390a1611f2e565b612422565b838111156125ed57906125a98461258e93611f21565b93846125ca6125c2846000526015602052604060002090565b918254611ef6565b90556125d86124b183611ec7565b5584936125e761250783611f03565b5261250f565b6125fb9061258e9294611f21565b92612610816000526015602052604060002090565b508461261e6124b183611ec7565b55846125e761250783611f03565b50508161241e565b600483517f1d63fe21000000000000000000000000000000000000000000000000000000008152fd5b819250612679906123ff923d85116103db576103cc818361164b565b91906123e7565b505050505050565b50926121ad565b816126a79293503d84116103db576103cc818361164b565b9038612169565b93505050565b9161273492612725926001600160a01b039586600154169360025492604051957fc85700fb000000000000000000000000000000000000000000000000000000006020880152602487015260448601526064850152608484015260a483015260a482526127208261162f565b616751565b6020808251830101910161166d565b16801561273e5790565b60046040517fb1bdf8b0000000000000000000000000000000000000000000000000000000008152fd5b60405190612775826115f7565b600682527f706f6f6c282900000000000000000000000000000000000000000000000000006020830152565b908160e09103126103f85780519160208201519160408101519160608201519160808101519160c060a083015192015190565b9061271091828102928184041490151715611ed557565b9081606402916064830403611ed557565b81810292918115918404141715611ed557565b91909160008382019384129112908015821691151617611ed557565b81810392916000138015828513169184121617611ed557565b600490602061285e61063c6000546001600160a01b031690565b6040519384809263cfbffe5360e01b82525afa80156103e2576129296128ff6128e46129246128ef6128d96128e96128c96128ba6128de996116829c60009161293b575b506128ab611d5c565b906128b4612768565b90616568565b602080825183010191016127a1565b9e8f9b969e9498929591506127fc565b6127fc565b936127fc565b6127d4565b90611dfc565b9461290f6128ff82600254611ef6565b6000526017602052604060002090565b61291a87825461280f565b9055600254611ef6565b611ef6565b61293482825461282b565b90556127fc565b612953915060203d81116103db576103cc818361164b565b386128a2565b60405190612966826115f7565b601382527f55736572546f496e7374286164647265737329000000000000000000000000006020830152565b6040519061299f826115f7565b600b82527f6d696e74436f756e7428290000000000000000000000000000000000000000006020830152565b604051906129d8826115f7565b600e82527f6d696e74732875696e74323536290000000000000000000000000000000000006020830152565b60405190612a11826115f7565b600b82527f6d696e74656441676528290000000000000000000000000000000000000000006020830152565b60405190612a4a826115f7565b600b82527f6d696e74656471747928290000000000000000000000000000000000000000006020830152565b60405190612a83826115f7565b600c82527f6964732875696e743235362900000000000000000000000000000000000000006020830152565b60405190612abc826115f7565b600982527f6d696e74416d74282900000000000000000000000000000000000000000000006020830152565b604051906080820182811067ffffffffffffffff8211176115d55760405260006060838281528260208201528260408201520152565b60405190612b2b826115f7565b600a82527f647261776e6167652829000000000000000000000000000000000000000000006020830152565b60405190612b64826115f7565b600c82527f4c53422875696e743235362900000000000000000000000000000000000000006020830152565b60405190612b9d826115f7565b600782527f647261776e2829000000000000000000000000000000000000000000000000006020830152565b91908260c09103126103f85781519160208101519160408201519160608101519160a0608083015192015190565b60405190612c04826115f7565b601382527f67657452657761726473286164647265737329000000000000000000000000006020830152565b91908260409103126103f8576020825192015190565b60405190612c53826115f7565b600782527f626f6e75732829000000000000000000000000000000000000000000000000006020830152565b60405190612c8c826115f7565b600682527f63616765282900000000000000000000000000000000000000000000000000006020830152565b60405190612cc5826115f7565b601982527f67657445666665637469766552616e6b286164647265737329000000000000006020830152565b60405190612cfe826115f7565b601f82527f6765746e6f646572616e6b61676528616464726573732c75696e7432353629006020830152565b60405190612d37826115f7565b601082527f6765744e6f6465286164647265737329000000000000000000000000000000006020830152565b908160a09103126103f8578051916020820151612d7f816105f4565b9160408101519160806060830151612d968161080a565b9201516116828161080a565b60405190612daf826115f7565b601582527f67657444656c656761746f7228616464726573732900000000000000000000006020830152565b60405190612de8826115f7565b601482527f697344656c656761746f722861646472657373290000000000000000000000006020830152565b60405190612e21826115f7565b601a82527f77697468647261776e496e636f6d654f662861646472657373290000000000006020830152565b60045460081c60ff16613989576004906020612e7461063c6000546001600160a01b031690565b6040519384809263111ea8c160e21b82525afa9182156103e257600092613968575b50612eeb612ecf612edd612eb26001546001600160a01b031690565b604080516001600160a01b03909216602083015290928391820190565b03601f19810183528261164b565b612ee5612959565b84616644565b906001600160a01b03821615613944576005811161391a57612f1c612f0e611d5c565b612f16612992565b846166c9565b90600654612f2a8183611ef6565b83111561391257612f3a91611ef6565b8161353a575b508060065414908115613531575b50612f57575050565b612f72612f6d612f65611d5c565b612f16612b1e565b600a55565b600a5460085481116134e9575b50612fab612f9c612f8e611d5c565b612f96612b90565b84616568565b60208082518301019101612bc9565b601560209081527f27739e4bb5e6f8b5e4b57a047dca8767cc9b982a011081e086cbb0dfa9de818d969096557f07d4ff730d9753101d832555708a37d38c2c45fce8cacaefc99f06074e93fe0b949094557fb3a65e8276bd33b3e4f7d6081ebd9899187264822358758dca2e2bc37b2a9c27929092557f8191f4eb6b8bafbfe9a5389c8d07d7f5fd81137a7ee653fc4358269845ee1d2e557f25847c9ccf691da811a9f934d6b3b92e6062ef92feb71bf4cb08cbb4fad8d6525560076000527f5d0f48e37dc1225cdee8d6f2a0315d796f55423522fe638d7d95421802dfc00655604080516001600160a01b038416928101929092526130d3916130c4916130b69082908101612ecf565b6130be612bf7565b85616568565b60208082518301019101612c30565b60156020527f535b9e1ac68faf16e764f210b80ec6320ee232f7656b4f9a2d0a74437eceaaac9190915560686000527f7ee1f11581f85e8bd439e065fc0e6555ccc3142caeda52fdbb7bed5ad7a8306a5561313a611ba2613132611d5c565b612f16612c46565b613150612f6d613148611d5c565b612f16612c7f565b61318761318260405161317a81612ecf86602083019190916001600160a01b036020820193169052565b6118f2612cb8565b600b55565b60005b600f8111156133f757506131cc61069c6131f2936131c46131db94604051938491602083019190916001600160a01b036020820193169052565b6128b4612d2a565b60208082518301019101612d63565b935050505060ff8019600454169115151617600455565b61320761063c6000546001600160a01b031690565b604051907f6325dd0400000000000000000000000000000000000000000000000000000000808352602083600481855afa9283156103e2576000936133d6575b5061328e61325d6001546001600160a01b031690565b604080516001600160a01b0383166020820152919590613280908390810161069c565b613288612da2565b90616644565b604051828152602081600481875afa80156103e2576132df9261069c926000926133b1575b506132d790604051938491602083019190916001600160a01b036020820193169052565b6114f5612ddb565b613306575b5050506132f2600854600955565b61171d61010061ff00196004541617600455565b60209060046040518094819382525afa80156103e2576133589261069c9260009261338c575b5061335090604051938491602083019190916001600160a01b036020820193169052565b61190a612e14565b600560005260156020527fbab719002e4be320868650dc7456e9a1d245e4d5dd64765588e2f21529d871d3553880806132e4565b6133509192506133aa9060203d6020116103db576103cc818361164b565b919061332c565b6132d79192506133cf9060203d6020116103db576103cc818361164b565b91906132b3565b6133f091935060203d6020116103db576103cc818361164b565b9138613247565b806134109161345f575b600b5481111561341557611f2e565b61318a565b604080516001600160a01b038516602082015290810182905261345a90613451906134438160608101612ecf565b61344b612cf1565b876166c9565b61177a836113ea565b611f2e565b6040517f5329daca0000000000000000000000000000000000000000000000000000000060208201526001600160a01b0384166024820152604481018290526134b9906130c4906134b38160648101612ecf565b86616751565b6134cd836000526018602052604060002090565b906134e2846000526019602052604060002090565b5555613401565b600855613514612ecf61350c600a54604051928391602083019190602083019252565b6118c7612b57565b61352a6008546000526017602052604060002090565b5538612f7f565b90501538612f4e565b600080527f999d26de3473317ead3eeaf34ca78057f1439db67b6953469c3c96ce9caf6bd75460196020527fd2ac945fcc0096878c763e37d6929b78378c1a2defabde8ba7ee5ed1d6e7a5b2549095909491929091905b600654848110156138b557611a0a6135a891611f2e565b6135d6612ecf6135c8600654604051928391602083019190602083019252565b6135d06129cb565b87616644565b6135ec610cf06135e4611d5c565b612f16612a04565b61369e6136026135fa611d5c565b612f16612a3d565b9861362760405161361f81612ecf60208201906000602083019252565b6118f2612a76565b9861364461363e613636611d5c565b61344b612aaf565b94616846565b602061365b61063c6000546001600160a01b031690565b6040517fcfaa1f6c0000000000000000000000000000000000000000000000000000000081526001600160a01b0390931660048401529194859081906024820190565b0381845afa9384156103e257600094613894575b506001600160a01b03841615613822575b506136d061183e846160be565b613811578a9284846136e0612ae8565b9382855281602086015260029586546040870152838660065461370d906000526016602052604060002090565b9061371791611f3d565b61372091611ef6565b9e61372a91611ef6565b9c613734936126b4565b60065461374b906000526016602052604060002090565b6003019061376e91906001600160a01b03166001600160a01b0319825416179055565b61377784612844565b50600654600114936137bd60606137fa937f1517c86fcf2bfb8e3468afcc539b0004955da8027797c497ea51d1f1094ab89897613802575b01516001600160a01b031690565b9254604080513381526001600160a01b03909516602086015284019490945260608301526080820192909252600060a082015290819060c0820190565b0390a1613591565b61380c8654600855565b6137af565b6004604051630d419f7360e41b8152fd5b6040517fb771c89600000000000000000000000000000000000000000000000000000000815260006004820152919350602090829060249082905afa9081156103e257600091613875575b5091386136c3565b61388e915060203d6020116103db576103cc818361164b565b3861386d565b6138ae91945060203d6020116103db576103cc818361164b565b92386136b2565b50600080527f999d26de3473317ead3eeaf34ca78057f1439db67b6953469c3c96ce9caf6bd79690965560196020527fd2ac945fcc0096878c763e37d6929b78378c1a2defabde8ba7ee5ed1d6e7a5b29490945593905038612f40565b505080612f3a565b60046040517fc99d37d2000000000000000000000000000000000000000000000000000000008152fd5b505050613952612f6d6161ec565b61395d600a54600855565b6132f2600a54600955565b61398291925060203d6020116103db576103cc818361164b565b9038612e96565b50565b95939490929194600096600096846139a657505050505050565b919395965091939650600b549684600014613a0e576139cf866000526018602052604060002090565b8054918201809211611ed5576139ff966139f8926125c292556000526019602052604060002090565b905561401b565b600b5490388080808080612680565b85600096929652601860205260406000208054918203918211611ed5575560005260196020526040600020938454908103908111611ed5576139ff945561401b565b60405190613a5d826115f7565b601482527f6c6576656c436c617573652875696e74323536290000000000000000000000006020830152565b908160a09103126103f8578051916020820151916040810151916080606083015192015190565b9495919295613ac9876000526018602052604060002090565b613ad4838254611ef6565b9055613aea876000526019602052604060002090565b613af5858254611ef6565b90556000805260186020527f999d26de3473317ead3eeaf34ca78057f1439db67b6953469c3c96ce9caf6bd754151580613e69575b613b50575b50505050505050600b5490611682613b46836113ea565b90549060031b1c90565b8493159586159586613e59575b5050600090613b7661063c83546001600160a01b031690565b604051809163cfbffe5360e01b825281600460209485935afa9182156103e257613bcc61069c613be9948d613bd9958992613e36575b50613bc4906040519384918783019190602083019252565b6128b4613a50565b8051810182019101613a89565b98929591949099600a5490611f21565b10918215613e29575b5081613e20575b50613c06575b5050613b2f565b613c709615613e17576128e9613c1f613c2593866127fc565b916127eb565b955b15613e0d5750613c1f613c3d936128e9926127fc565b925b613c5381600052601a602052604060002090565b613c5e848254611ef6565b9055600052601b602052604060002090565b613c7b838254611ef6565b905560016000819052601c602052613cb57f6de76108811faf2f94afbe5ac6c98e8393206cd093932de1fbfd61bbeec43a025b5460011690565b148015613dd1575b613d96575b506004600052601c6020526001613cf87fadacb2ae086d090ae1cbb87d66774fa6d708dd14d5bdc5b6c1e455aa2020dfb7613cae565b148015613d5a575b613d1f575b50613d11610d98614227565b388080808080808080613bff565b600b6000526015602052613d527fcaeae41dfed97dfd8c41876ff591faa3e36cda388621c550caa3321a2a624e5f6125c2565b905538613d05565b5060c8600052601c6020526001613d907f922f6af691981b741eb02b3ed3453cc38ce623e8709ce524bd43bdbfc62af099613cae565b14613d00565b60086000526015602052613dc97f2d0e46a571fdfbe57c7c718891a8a12999c102dfffa2b3314ea165dedd1684f56125c2565b905538613cc2565b5060c8600052601c6020526001613e077f922f6af691981b741eb02b3ed3453cc38ce623e8709ce524bd43bdbfc62af099613cae565b14613cbd565b9250505092613c3f565b50508095613c27565b90501538613bf9565b600b541015915038613bf2565b613bc4919250613e5290863d88116103db576103cc818361164b565b9190613bac565b613e6291613eab565b3884613b5d565b50861515613b2a565b60405190613e7f826115f7565b601382527f72616e6b436c617573652875696e7432353629000000000000000000000000006020830152565b90613ec161063c6000546001600160a01b031690565b906040928351809363cfbffe5360e01b825281600460209384935afa9384156103e257600094613ffc575b50600b93613efa8554611ee8565b60088110613f0b5750505050505050565b613f7790613f48613f3a8951613f2c81612ecf868a83019190602083019252565b613f34613e72565b86616568565b858082518301019101612c30565b90861015908180613fde575b80613fcc575b15613f7c575050613f6a81600b55565b61345a8661177a836113ea565b613efa565b81613fad575b50613fa45761345a613f93826113ea565b8154906000199060031b1b19169055565b61345a81600b55565b9050613fc3826000526019602052604060002090565b54101538613f82565b508854613fd884611f03565b14613f5a565b5080613ff4846000526019602052604060002090565b541015613f54565b816140149295503d86116103db576103cc818361164b565b9238613eec565b9061403161063c6000546001600160a01b031690565b916040938451809463cfbffe5360e01b825281600460209384935afa9485156103e257600095614175575b50600b9461406a8654611ee8565b6008811061407c575050505050505050565b6140c790846140ba6140ac8b5161409e81612ecf878b83019190602083019252565b6140a6613e72565b87616568565b868082518301019101612c30565b916140cc575b5050611f2e565b61406a565b871015908180614157575b80614145575b156141015750506140ed81600b55565b6140fa8761177a836113ea565b38806140c0565b81614126575b5061411d57614118613f93826113ea565b6140fa565b61411881600b55565b905061413c826000526019602052604060002090565b54101538614107565b50895461415184611f03565b146140dd565b508061416d846000526019602052604060002090565b5410156140d7565b8161418d9296503d87116103db576103cc818361164b565b933861405c565b604051906141a1826115f7565b600982527f63617070696e67282900000000000000000000000000000000000000000000006020830152565b908160e09103126103f85780519160208201516141e98161080a565b9160408101516141f88161080a565b9160608201516142078161080a565b9160808101516142168161080a565b9160c060a0830151612d968161080a565b6000906004602061424361063c6000546001600160a01b031690565b6040519283809263cfbffe5360e01b82525afa9081156103e25761429391614284916000916145ae575b50614276614194565b61427e611d49565b91616568565b602080825183010191016141cd565b600080526018602052959695939490929091906143056142d5897f999d26de3473317ead3eeaf34ca78057f1439db67b6953469c3c96ce9caf6bd75b546127fc565b600080526015602052987fa31547ce6245cdb9ecea19cf8c7eb9f5974025bb4075011409251ae855b30aed6142cf565b9561430e6158dd565b946145a6575b50614510575b6144aa575b614499575b5061442b575b61434e575b808410614346576143409084611f21565b82811191565b506000614340565b60066000526015602052926144259061441f6123566143ef6143bf6123267f25847c9ccf691da811a9f934d6b3b92e6062ef92feb71bf4cb08cbb4fad8d6525b54600d60005260156020527fe3e3bb3f660b5aca6f44f8cdafd6456c07cd53888341ab748ffc02d532ccc70e61228f565b600760005260156020527f5d0f48e37dc1225cdee8d6f2a0315d796f55423522fe638d7d95421802dfc00661228f565b600e60005260156020527f39f65be0de5254440eb2b93b160b1af3a4f45fe0571eaea7ef454b27b7f02d1861228f565b90611ef6565b9261432f565b60056000526015602052936144939061441f6122f67fbab719002e4be320868650dc7456e9a1d245e4d5dd64765588e2f21529d871d35b54600c60005260156020527f74c10a04815bbeaf3165dab0bd11b69aae73edf00a48b27ec8c53ac5b61d47fd61228f565b9361432a565b6144a39196611ef6565b9438614324565b60156020527fb3a65e8276bd33b3e4f7d6081ebd9899187264822358758dca2e2bc37b2a9c2754600a600052909761450a9161441f90612296907f0cfcac9f3767130657d3b01a9146da544eeb39eb9670066ace5e84da7fc4319f61228f565b9661431f565b60156020527f07d4ff730d9753101d832555708a37d38c2c45fce8cacaefc99f06074e93fe0b54600960005290986145a09161441f90614570907f497613c0658032a90a449a944031c57b1d03996c3a6148fe12146c45cf32140061228f565b601060005260156020527f778c823f9b5f066b3c9d60b855427fd2999fcc25aebe3320977c1598596fffaf61228f565b9761431a565b995038614314565b6145c6915060203d81116103db576103cc818361164b565b3861426d565b61171d906145d981614a8a565b8051600f600052601560205261460e7f3bda72f6153f13a10a865b9a6397e1123f4aa6a1726e0e1349cd07eb0e24d8156125c2565b90556060810151601260005260156020526146487f2d1305887a553ebca964114eb55137666ae056a13c7d9c5dcf078bd3a9732a386125c2565b9055602081810151601060005260159091526146837f778c823f9b5f066b3c9d60b855427fd2999fcc25aebe3320977c1598596fffaf6125c2565b9055604081018051601160005260156020526146be7fed5e5ecd5cb229fc7c2ed17e5e7cdfdc1d0a81991bd95ffdc4cdf25aca2d2ac36125c2565b90556080820151601360005260156020526146f87fa5165e376b84f33a3c944a34b062595f1fb4afde844645ed23ed1e10c257ebe16125c2565b905560a0820151601460005260156020526147327fe06932cbfde2f2475d8c82e797702b1bf34af837520e34a39e7e7b5e28f71d5f6125c2565b905560c08201516015600081905260205261476c7ff38242ae41b6250df1acd58d7376889913b9221d9b2e1d2e50fb7d62671fa7336125c2565b9055610100820151600960005260156020526147a77f497613c0658032a90a449a944031c57b1d03996c3a6148fe12146c45cf3214006125c2565b905561012082018051600a600052601560205290926101c0916147e97f0cfcac9f3767130657d3b01a9146da544eeb39eb9670066ace5e84da7fc4319f6125c2565b9055610160810151600c60005260156020526148247f74c10a04815bbeaf3165dab0bd11b69aae73edf00a48b27ec8c53ac5b61d47fd6125c2565b9055610180810151600d600052601560205261485f7fe3e3bb3f660b5aca6f44f8cdafd6456c07cd53888341ab748ffc02d532ccc70e6125c2565b90556101a0810151600e600052601560205261489a7f39f65be0de5254440eb2b93b160b1af3a4f45fe0571eaea7ef454b27b7f02d186125c2565b905501516148b2846000526017602052604060002090565b5551601f60005260156020526148e77fce9b89faa7d00b5a0dcea74b754372f1c8c1e2788b44e0b6fc99899848f9baf76125c2565b905551602060008190526015905261491e7f6b9301c903fb63b5bb3b4ed52f960f66e3a0c33bca0ea2f28cf6e34d2eb058dd6125c2565b9055600855565b604051906101e0820182811067ffffffffffffffff8211176115d557604052816101c06000918281528260208201528260408201528260608201528260808201528260a08201528260c08201528260e08201528261010082015282610120820152826101408201528261016082015282610180820152826101a08201520152565b604051906149b3826115f7565b600a82527f73687574646f776e2829000000000000000000000000000000000000000000006020830152565b604051906149ec826115f7565b601882527f676574557365724964546f496e73742875696e743235362900000000000000006020830152565b60405190614a25826115f7565b601182527f696e636f6d654f662861646472657373290000000000000000000000000000006020830152565b60405190614a5e826115f7565b601482527f636f6d70757465546f75722875696e74323536290000000000000000000000006020830152565b90614a93614925565b91614aa961063c6000546001600160a01b031690565b60409182519163ab6e844f60e01b83526020908184600481845afa9384156103e257600094614efc575b50845163cfbffe5360e01b81528281600481855afa9182156103e25785896004968694600096614ed5575b5090614c36859287614b20614b116149a6565b614b19611d49565b908361668d565b9b8c92614bcc614b2e6158dd565b6060890190815281895260156020527f27739e4bb5e6f8b5e4b57a047dca8767cc9b982a011081e086cbb0dfa9de818d54600860005290929190614bc690614b96907f2d0e46a571fdfbe57c7c718891a8a12999c102dfffa2b3314ea165dedd1684f561228f565b600f60005260156020527f3bda72f6153f13a10a865b9a6397e1123f4aa6a1726e0e1349cd07eb0e24d81561228f565b90611f21565b8752805160156020527f8191f4eb6b8bafbfe9a5389c8d07d7f5fd81137a7ee653fc4358269845ee1d2e54600b600052614c2f9190614bc6906122c6907fcaeae41dfed97dfd8c41876ff591faa3e36cda388621c550caa3321a2a624e5f61228f565b9052615132565b509d94939096926101c087939701526101008201520152600014614ec557505061069c614c7d91614c756007548b519384918883019190602083019252565b6132886149df565b31878a01525b8651948580927f52b06d640000000000000000000000000000000000000000000000000000000082525afa9283156103e257600093614ea6575b50614d48614d12614cf6614cd96001546001600160a01b031690565b88519182918783019190916001600160a01b036020820193169052565b0395614d0a601f199788810184528361164b565b61190a614a18565b60056000526015602052614bc66122f67fbab719002e4be320868650dc7456e9a1d245e4d5dd64765588e2f21529d871d3614462565b94608088019586526004600b54600281101580614e69575b614e2b575b101580614dca575b614d8b575b50505050614d7d5750565b806000915161016085015252565b614dbc93614da893614db492519485918201906004602083019252565b0390810184528361164b565b61190a614a51565b60c085015238808080614d72565b5060156020527f5d0f48e37dc1225cdee8d6f2a0315d796f55423522fe638d7d95421802dfc00654600e600052614e2590612356907f39f65be0de5254440eb2b93b160b1af3a4f45fe0571eaea7ef454b27b7f02d1861228f565b15614d6d565b614e5f8351614e5181614e45898201906002602083019252565b0389810183528261164b565b614e59614a51565b866166c9565b60a08b0152614d65565b5060066000526015602052614ea06123267f25847c9ccf691da811a9f934d6b3b92e6062ef92feb71bf4cb08cbb4fad8d65261438e565b15614d60565b614ebe919350823d84116103db576103cc818361164b565b9138614cbd565b8b8a01526101208b015250614c83565b8592919650614ef3614c3691843d86116103db576103cc818361164b565b96919250614afe565b614f14919450823d84116103db576103cc818361164b565b9238614ad3565b604051906040820182811067ffffffffffffffff8211176115d55760405260006020838281520152565b6040519060a0820182811067ffffffffffffffff8211176115d55760405281614f6c614f1b565b8152614f76614f1b565b6020820152614f83614f1b565b6040820152614f90614f1b565b60608201526080614f9f614f1b565b910152565b60405190614fb1826115f7565b601882527f6765744261746368526f79616c7479436c6175736573282900000000000000006020830152565b6102a09081818403126103f85782601f820112156103f85760408051936150038561162f565b84938301928184116103f857935b83851061502057505050505090565b6060858303126103f8578251606091615038826115b9565b8651825260209182880151838201528588015186820152815201940193615011565b60405190615067826115f7565b601f82527f676574526f79616c697479416d6f756e7442617463682875696e7432353629006020830152565b9060e0828203126103f85780601f830112156103f857604051916150b68361162f565b829060e081019283116103f857905b8282106150d25750505090565b81518152602091820191016150c5565b9060078110156107495760051b0190565b8181029291600082127f8000000000000000000000000000000000000000000000000000000000000000821416611ed5578184051490151715611ed557565b92906000946000946000946000946000946151cf6151c0615151614f45565b9461515b876155d3565b87519060208201525261516d876156b0565b60208801519060208201525261518287615743565b604088015190602082015252615197876157e5565b6060880151906020820152526151ac87615861565b608088015190602082015252614276614fa4565b60208082518301019101614fdd565b91600854600b54905b868110615224575050505050602081510151821191829182158094615212575b939261520357505091565b60800151602001511015929050565b506020606082015101518211156151f8565b61525a61524b60405161524381612ecf86602083019190602083019252565b6140a661505a565b60208082518301019101615093565b6001905b838211156154b7575050821561527d575b61527890611f2e565b6151d8565b61529c615294826000526017602052604060002090565b54809c61280f565b9a6152a78289611f21565b90600091604089015189518b825181811080845193841093816154af575b8161548c575b50156153be57505050602080835183518082106000146153b65750935b0151910151808211156153ae5750905b808611156153a8575084905b61530d81611ee8565b8c101561539a57508a5b818111615387575b50505b80831161537f575b8261533491611f21565b9180615369575b5081615349575b505061526f565b9a61535b61536192615278949d6150f3565b9061280f565b999038615342565b9a61535b829c615378936150f3565b993861533b565b91508161532a565b615392929450611f21565b91388061531f565b6153a390611ee8565b615317565b90615304565b9050906152f8565b9050936152e8565b93919293615436575b50506153d4575b50615322565b80518086111561542d5750602085915b016153ef8151611ee8565b8c101561541e57508a5b818111615407575b506153ce565b61541692949161441f91611f21565b913880615401565b6154289051611ee8565b6153f9565b602090916153e4565b808811156154835750602087915b018d6154508251611ee8565b111561547457508c5b818111156153c75761546c929650611f21565b9338806153c7565b61547e9051611ee8565b615459565b60209091615444565b905060208601511080156154a2575b15386152cb565b508160208501511061549b565b8491506152c5565b909c6154cb6154c58f611f03565b886150e2565b515115801561557d575b61557357875180518410159081615564575b50801561553d575b156155215761551561551b918f61550861550e91611f03565b856150e2565b5190611ef6565b9d611f2e565b9061525e565b9c9d6155378f9161550e61550861551b94611f03565b9e611f2e565b50602088015180518410159081615555575b506154ef565b6020915001518311153861554f565b602091500151831115386154e7565b9c61551b90611f2e565b508d61558b613b46826113ea565b841015908161559c575b50156154d5565b6155ca915060406155c16155bb6155b5613b46856113ea565b93611f03565b8b6150e2565b51015190611ef6565b8311158e615595565b60c8600052601c6020527f922f6af691981b741eb02b3ed3453cc38ce623e8709ce524bd43bdbfc62af099805492919083156156a9576001841661569157505060c8600052601c602052613b466156537f922f6af691981b741eb02b3ed3453cc38ce623e8709ce524bd43bdbfc62af09961564d85611f12565b9061173a565b905460c8600052601c60205260039190911b1c9261564d7f922f6af691981b741eb02b3ed3453cc38ce623e8709ce524bd43bdbfc62af09991611f03565b61564d61569e9294611f03565b90549060031b1c9190565b5091508190565b60026000908152601c6020527ff5b6e61a0c14f171ef1c86f003900ef0305e4159fff3317e4fb7c351f2050c87805491939290821561573b576001831661572c575050613b469060028452601c60205261564d604061571481872061564d85611f12565b90549060031b1c9560028152601c6020522091611f03565b90935061564d61569e92611f03565b509250508190565b60036000818152601c6020527fb0deb225ecd3a242ef7d55f0f81ae3b924e0b6f9da8bc33b306fb32ca5f287f780549194939082156157dc57600183166157c45750506157bc90828552601c60205261564d60406157a681882061564d85611f12565b905490861b1c96858152601c6020522091611f03565b9054911b1c90565b90945061564d6157d392611f03565b9054911b1c9190565b50935050508190565b60056000908152601c6020527f0de3fcd0b495fcf96d4f4ab29f8e12012b60a56d458f4c95fdde42b927ce97a0805491939290821561573b576001831661572c575050613b469060058452601c60205261564d604061584981872061564d85611f12565b90549060031b1c9560058152601c6020522091611f03565b60066000908152601c6020527fb2d730c3da277545f6c9f2c922ea3d0e9fcbd74e29d321b995a837ef61c283f0805491939290821561573b576001831661572c575050613b469060068452601c60205261564d60406158c581872061564d85611f12565b90549060031b1c9560068152601c6020522091611f03565b600090816001815b600f82111561595e575050606560005260156020527f535b9e1ac68faf16e764f210b80ec6320ee232f7656b4f9a2d0a74437eceaaac548101809111611ed55760686000526015602052917f7ee1f11581f85e8bd439e065fc0e6555ccc3142caeda52fdbb7bed5ad7a8306a548101809111611ed55790565b9093848252602092601a8452604090818420548101809111611ed557601b9094878552528220548101809111611ed5576159989094611f2e565b906158e5565b9190916159a9611fc0565b928115615df45760018214615cce5760028214615ba35760038214615ab8576159f8906159d46161ec565b906008546159e28282611ef6565b831115615ab1576159f39250611ef6565b614a8a565b9060048114615a6257600514615a0b5750565b9091506101a0615a19611d20565b9160e08101518352610100810151602084015261012081015160408401526101408101516060840152610160810151608084015261018081015160a0840152015160c082015290565b5090915060c0615a70611d20565b91805183526020810151602084015260408101516040840152606081015160608401526080810151608084015260a081015160a0840152015160c082015290565b5050614a8a565b50509050615ac4611d20565b7fa31547ce6245cdb9ecea19cf8c7eb9f5974025bb4075011409251ae855b30aed5481527fce9b89faa7d00b5a0dcea74b754372f1c8c1e2788b44e0b6fc99899848f9baf7546020808301919091527f6b9301c903fb63b5bb3b4ed52f960f66e3a0c33bca0ea2f28cf6e34d2eb058dd5460408301527f535b9e1ac68faf16e764f210b80ec6320ee232f7656b4f9a2d0a74437eceaaac5460608301526068600090815260159091527f7ee1f11581f85e8bd439e065fc0e6555ccc3142caeda52fdbb7bed5ad7a8306a54608083015260a0820181905260c082015290565b50509050615baf611d20565b7f3bda72f6153f13a10a865b9a6397e1123f4aa6a1726e0e1349cd07eb0e24d8155481527f778c823f9b5f066b3c9d60b855427fd2999fcc25aebe3320977c1598596fffaf546020808301919091527fed5e5ecd5cb229fc7c2ed17e5e7cdfdc1d0a81991bd95ffdc4cdf25aca2d2ac35460408301527f2d1305887a553ebca964114eb55137666ae056a13c7d9c5dcf078bd3a9732a385460608301527fa5165e376b84f33a3c944a34b062595f1fb4afde844645ed23ed1e10c257ebe15460808301527fe06932cbfde2f2475d8c82e797702b1bf34af837520e34a39e7e7b5e28f71d5f5460a08301526015600081905290527ff38242ae41b6250df1acd58d7376889913b9221d9b2e1d2e50fb7d62671fa7335b5460c082015290565b50509050615cda611d20565b7f2d0e46a571fdfbe57c7c718891a8a12999c102dfffa2b3314ea165dedd1684f55481527f497613c0658032a90a449a944031c57b1d03996c3a6148fe12146c45cf321400546020808301919091527f0cfcac9f3767130657d3b01a9146da544eeb39eb9670066ace5e84da7fc4319f5460408301527fcaeae41dfed97dfd8c41876ff591faa3e36cda388621c550caa3321a2a624e5f5460608301527f74c10a04815bbeaf3165dab0bd11b69aae73edf00a48b27ec8c53ac5b61d47fd5460808301527fe3e3bb3f660b5aca6f44f8cdafd6456c07cd53888341ab748ffc02d532ccc70e5460a0830152600e600052601590527f39f65be0de5254440eb2b93b160b1af3a4f45fe0571eaea7ef454b27b7f02d18615cc5565b50509050615e00611d20565b7f27739e4bb5e6f8b5e4b57a047dca8767cc9b982a011081e086cbb0dfa9de818d5481527f07d4ff730d9753101d832555708a37d38c2c45fce8cacaefc99f06074e93fe0b546020808301919091527fb3a65e8276bd33b3e4f7d6081ebd9899187264822358758dca2e2bc37b2a9c275460408301527f8191f4eb6b8bafbfe9a5389c8d07d7f5fd81137a7ee653fc4358269845ee1d2e5460608301527fbab719002e4be320868650dc7456e9a1d245e4d5dd64765588e2f21529d871d35460808301527f25847c9ccf691da811a9f934d6b3b92e6062ef92feb71bf4cb08cbb4fad8d6525460a08301526007600052601590527f5d0f48e37dc1225cdee8d6f2a0315d796f55423522fe638d7d95421802dfc006615cc5565b15615f2157565b606460405162461bcd60e51b815260206004820152601960248201527f6f776e2e7361666567756172642e63616c6c2e6661696c6564000000000000006044820152fd5b908160209103126103f857516116828161080a565b6001600160a01b03600054166040518091634bf9c0ad60e11b825281600460209384935afa9182156103e257611682926160029160009161601d575b50604051615fc3816115f7565b600881527f69735361666528290000000000000000000000000000000000000000000000008482015260405191615ff983611613565b60008352616593565b919080616013575b6106c990615f1a565b508151811461600a565b6160349150833d85116103db576103cc818361164b565b38615fb6565b60405190616047826115f7565b601582527f69735365637572654261736528616464726573732900000000000000000000006020830152565b1561607a57565b606460405162461bcd60e51b815260206004820152601a60248201527f6f776e2e736563757265626173652e63616c6c2e6661696c65640000000000006044820152fd5b6000546001600160a01b0316604051918291634bf9c0ad60e11b835282600460209485935afa9283156103e2576116829361612a9261069c92600092616145575b50616122906040519384918783019190916001600160a01b036020820193169052565b6106b261603a565b91908061613b575b6106c990616073565b5081518114616132565b61612291925061616190863d88116103db576103cc818361164b565b91906160ff565b60405190616175826115f7565b601182527f69735369676e65722861646472657373290000000000000000000000000000006020830152565b156161a857565b606460405162461bcd60e51b815260206004820152601660248201527f6f776e2e7369676e65722e63616c6c2e6661696c6564000000000000000000006044820152fd5b600460206001600160a01b03600054166040519283809263111ea8c160e21b82525afa80156103e2576116829160009161626e575b5060405161622e816115f7565b600581527f616765282900000000000000000000000000000000000000000000000000000060208201526040519161626583611613565b600083526166c9565b616286915060203d81116103db576103cc818361164b565b38616221565b60405190616299826115f7565b601882527f697364656c656761746f724e6f646528616464726573732900000000000000006020830152565b6001600160a01b0380911690811561631257600154826001600160a01b0319821617600155167f8292fce18fa69edf4db7b94ea2e58241df0ae57f97e0a6c9b29067028bf92d76600080a3565b606460405162461bcd60e51b815260206004820152601160248201527f6f776e2e696e76616c69642e6f776e65720000000000000000000000000000006044820152fd5b3d15616381573d9061636782611d2d565b91616375604051938461164b565b82523d6000602084013e565b606090565b908015611710576001600160a01b03821691821561642c57600080808481945af16163af616356565b50156163e8576040519081527fcec1f18c3ab8ddaaa107a1591e3c369667eec613626611a8deaedef43069fcdd9080602081015b0390a2565b606460405162461bcd60e51b815260206004820152601360248201527f6f776e2e7472616e736665722e6661696c6564000000000000000000000000006044820152fd5b606460405162461bcd60e51b815260206004820152600e60248201527f6f776e2e696e76616c69642e746f0000000000000000000000000000000000006044820152fd5b6000600460206001600160a01b03835416604051928380927f46f991ac0000000000000000000000000000000000000000000000000000000082525afa9081156103e257828481938293839161654a575b505af16164cc616356565b50156165065760405190815233907fcdcc745fe377b103b45fa0cec23ae3ef93d6fc6a84a01f0d18c40b354dd1d5d89080602081016163e3565b606460405162461bcd60e51b815260206004820152600f60248201527f6f776e2e6275726e2e6661696c656400000000000000000000000000000000006044820152fd5b616562915060203d81116103db576103cc818361164b565b386164c1565b906165739291616593565b9060009015616580575090565b604051915061658e82611613565b815290565b9190823b1561662b577fffffffff00000000000000000000000000000000000000000000000000000000815160208093012016916040519180830193845281519160005b8381106166175750505091816166046024826000979596889701878382015203600481018452018261164b565b5191620dbba0fa616613616356565b9091565b8181018301518582016024015282016165d7565b50505060009060405161663d81611613565b6000815290565b929161665291600094616593565b9080616682575b6166605750565b6001600160a01b039192508060208061667e9351830101910161166d565b1690565b506020815114616659565b929161669b91600094616593565b90806166be575b6166a95750565b61168291925060208082518301019101615f65565b5060208151146166a2565b92916166d791600094616593565b90806166fc575b6166e55750565b9091506020818051810103126103f8576020015190565b5060208151146166de565b90602082519201517fffffffff0000000000000000000000000000000000000000000000000000000090818116936004811061674257505050565b60040360031b82901b16169150565b6001600160a01b0381161561680257600080918351908260208601915af190616778616356565b9115616782575090565b8051600091906004116167fc576167999150616707565b8151156167a95750805190602001fd5b6024907fffffffff00000000000000000000000000000000000000000000000000000000604051917f21c09d34000000000000000000000000000000000000000000000000000000008352166004820152fd5b50616799565b606460405162461bcd60e51b815260206004820152601260248201527f6f776e2e696e76616c69642e74617267657400000000000000000000000000006044820152fd5b803b600061685382611d2d565b92616861604051948561164b565b82845260208401903c602d81511061687d57602a015160601c90565b606460405162461bcd60e51b815260206004820152601360248201527f4e6f742061206d696e696d616c2070726f7879000000000000000000000000006044820152fdfea2646970667358221220773b8cd79933945220ec5ef1847fb16f1187b79ab9881f7f5bdeeb1eff806d7d64736f6c63430008140033","linkReferences":{}},"methodIdentifiers":{"instanceStor()":"131c73ad"},"id":69}