{"abi":[{"type":"constructor","inputs":[{"name":"_hex","type":"address","internalType":"address"}],"stateMutability":"nonpayable"},{"type":"function","name":"rule741","inputs":[],"outputs":[{"name":"","type":"address","internalType":"address"}],"stateMutability":"view"},{"type":"function","name":"transferRequest","inputs":[],"outputs":[{"name":"","type":"address","internalType":"address"}],"stateMutability":"view"}],"bytecode":{"object":"0x60803461012157601f61593738819003918201601f19168301926001600160401b039290918385118386101761010b57816020928492604097885283398101031261012157516001600160a01b0390818116908190036101215783519061359e91828101928184108685111761010b57612399823981835260208160009403019083f09384156101015782549484166001600160a01b03199586161783558551916121b980840192848410908411176100ed579183916020936101e08439815203019082f09081156100e25750169060015416176001555160b990816101278239f35b8451903d90823e3d90fd5b634e487b7160e01b85526041600452602485fd5b85513d84823e3d90fd5b634e487b7160e01b600052604160045260246000fd5b600080fdfe6080806040526004361015601257600080fd5b600090813560e01c9081630a5b38ab14605d5750633da8676f14603457600080fd5b34605a5780600319360112605a576001546040516001600160a01b039091168152602090f35b80fd5b905034607f5781600319360112607f5790546001600160a01b03168152602090f35b5080fdfea264697066735822122069d5045fefa57a9c40c6ba94091526893d4ac9c258d3275d289d7df6c79c223864736f6c634300081400336080346100ca57601f6121b938819003918201601f19168301916001600160401b038311848410176100cf578084926020946040528339810103126100ca57516001600160a01b038116908190036100ca5780156100855760018060a01b031933816001541617600155600054161760005560016003556040516120d390816100e68239f35b60405162461bcd60e51b815260206004820152601360248201527f6f776e2e696e76616c69642e68657862617365000000000000000000000000006044820152606490fd5b600080fd5b634e487b7160e01b600052604160045260246000fdfe60806040526004361015610018575b361561001657005b005b60003560e01c806312065fe0146101a857806318c864e3146101a35780631f185d161461019e5780633294adf0146101995780633676bd1f146101945780633b9b79551461018f578063479fa2c31461018a5780634ef260a9146101855780638da5cb5b146101805780639fb3953b1461017b578063a1f7f53914610176578063ab7e46ae14610171578063ac2333451461016c578063af48452614610167578063b8f1759a14610162578063b90306ad1461015d578063c1e6cec214610158578063c54e44b014610153578063cab3cc8d1461014e578063e01ad5fd14610149578063e0a9bc2b14610144578063e846034a1461013f578063e981bcad1461013a578063fdc10bc9146101355763ff585caf0361000e57610f2e565b610e9b565b610ddf565b610dc1565b610d1f565b610c80565b610c62565b610bc6565b610b89565b610a68565b610a1f565b6109ee565b6109b5565b61096c565b6108b5565b610747565b61071e565b610666565b6105b7565b61058e565b610550565b6103b7565b6102af565b61020f565b346101c45760003660031901126101c457602047604051908152f35b600080fd5b634e487b7160e01b600052603260045260246000fd5b6005548110156101fe57600560005260206000209060021b0190600090565b6101c9565b6001600160a01b031690565b346101c45760203660031901126101c4576004356005548110156101c457610236906101df565b50805460018201546002830154600390930154604080516001600160a01b039485168152938316602085015260ff60a093841c811615159185019190915260608401949094528381161515608084015260081c90921615159181019190915260c090f35b0390f35b6001600160a01b038116036101c457565b346101c4576020806003193601126101c4576004908135906102d08261029e565b806102e46102df600054610203565b610203565b604051634bf9c0ad60e11b815294859182905afa9182156103b257610329610363936103459261029a9660009261037f575b506103379060405193849187830161057b565b03601f198101845283611085565b61033f611d18565b90611e57565b919080610375575b61035690611d45565b8082518301019101611be7565b60405190151581529081906020820190565b508151811461034d565b6103379192506103a490863d88116103ab575b61039c8183611085565b8101906110a8565b9190610316565b503d610392565b6110c0565b346101c4576020806003193601126101c4576004356103d58161029e565b6001600160a01b03811615610516576103f76103f033610b6f565b5415610fa6565b61040a610402610ffd565b509182611030565b6104456004600183019361041e3386611030565b600554604051600162a7a35160e01b03198382015260248101919091529283906044820190565b03610458601f1991828101865285611085565b816104676102df600054610203565b604051630536340960e21b815294859182905afa9283156103b2576002946104da946104cd936104bc936000926104f5575b5060405163d3a3084960e01b878201529391926104c892859130602484016110ef565b03908101845283611085565b611fc2565b805181018201910161115e565b9101556104f26104ed6005549254610203565b610b6f565b55005b6104c8925061051090873d89116103ab5761039c8183611085565b91610499565b60405162461bcd60e51b815260048101839052601260248201527137bbb7173232b330bab63a1739b2b73232b960711b6044820152606490fd5b346101c45760203660031901126101c457610569611ac5565b6105746004356116df565b6001600355005b6001600160a01b03909116815260200190565b346101c45760003660031901126101c4576000546040516001600160a01b039091168152602090f35b346101c45760203660031901126101c4576004358015158061065a575b6105dd906111ab565b6000198101908111610655576105f2906101df565b50805460018201546003830154600290930154604080516001600160a01b039485168152938316602085015260ff80861615159185019190915260089490941c84161515606084015260a091821c9093161515608083015281019190915260c090f35b6111f1565b506005548111156105d4565b346101c45760203660031901126101c4576004356106838161029e565b6001600160a01b03166000818152600460205260408120549091906000198101908111610655576106b56003916101df565b5001805461ff001916610100179055808252600460205260408220829055600654600160401b8110156107195760018101806006558110156101fe576006835260008051602061207e8339815191520180546001600160a01b031916909117905580f35b610fe7565b346101c45760003660031901126101c4576001546040516001600160a01b039091168152602090f35b60803660031901126101c45760043561075f8161029e565b610767611ac5565b6107756102df600054610203565b60405163ab6e844f60e01b815291906020908184600481845afa9384156103b257600094610891575b50816004916040519283809263de433f1760e01b82525afa9081156103b2576107fe916107dc91600091610874575b5060405191829185830161057b565b03946107f0601f1996878101845283611085565b6107f8611b49565b90611ed5565b906001600160a01b038216610818575b6100166001600355565b604051636083c98560e11b918101919091526001600160a01b03909216602480840191909152356044808401919091523560648084019190915235608483015261086a926104c8908360a481016104bc565b503880808061080e565b61088b9150843d86116103ab5761039c8183611085565b386107cd565b60049194506108ad8391823d84116103ab5761039c8183611085565b94915061079e565b346101c45760003660031901126101c45760005460405163d1f956b160e01b815290602090829060049082906001600160a01b03165afa9081156103b25761029a9161093e9160009161094e575b506040516109108161104f565b601381527267657464656c656761746f72436f756e74282960681b6020820152610938611231565b91611f55565b6040519081529081906020820190565b610966915060203d81116103ab5761039c8183611085565b38610903565b346101c45760203660031901126101c4576004356006548110156101c457600660005260008051602061207e83398151915201546040516001600160a01b039091168152602090f35b346101c45760203660031901126101c45760206109dc6004356109d78161029e565b6113bc565b6040516001600160a01b039091168152f35b346101c45760203660031901126101c4576020610a15600435610a108161029e565b611c75565b6040519015158152f35b346101c45760203660031901126101c4576004356006548110156101fe57600660005260008051602061207e83398151915201546040516001600160a01b039091168152602090f35b346101c4576020806003193601126101c45760043560018060a01b0391600092808454169060405191630536340960e21b83528383600481845afa9283156103b2576004938593610ac3928992610b50575b5016331461116d565b6040516311be646b60e21b815292839182905afa9182156103b257848085610b0295829583958492610b33575b50505af1610afc611dbe565b50611dee565b60405190815233907fcdcc745fe377b103b45fa0cec23ae3ef93d6fc6a84a01f0d18c40b354dd1d5d890602090a280f35b610b499250803d106103ab5761039c8183611085565b3880610af0565b610b68919250853d87116103ab5761039c8183611085565b9038610aba565b6001600160a01b0316600090815260046020526040902090565b346101c45760203660031901126101c457600435610ba68161029e565b60018060a01b031660005260046020526020604060002054604051908152f35b346101c45760203660031901126101c457600435610be38161029e565b803b6000610bf082611216565b92610bfe6040519485611085565b82845260208401903c602d815110610c2757602a61029a91015160601c6040519182918261057b565b60405162461bcd60e51b81526020600482015260136024820152724e6f742061206d696e696d616c2070726f787960681b6044820152606490fd5b346101c45760003660031901126101c4576020600554604051908152f35b346101c4576020806003193601126101c45760048035610c9f8161029e565b60005460405163d1f956b160e01b81526001600160a01b03949093909182918591829088165afa9081156103b25761029a9461036394600093610d00575b506040519316818401528252610cf28261104f565b610cfa611d8a565b90611f19565b610d18919350823d84116103ab5761039c8183611085565b9138610cdd565b346101c45760003660031901126101c457600054604051634bf9c0ad60e11b8152906020908190839060049082906001600160a01b03165afa9081156103b257610d896103639261029a94600091610da4575b50610d7b611b7b565b610d83611231565b91611e57565b919080610d9a575b61035690611b9f565b5081518114610d91565b610dbb9150833d85116103ab5761039c8183611085565b38610d72565b346101c45760003660031901126101c4576020600654604051908152f35b346101c45760403660031901126101c457610df8611ac5565b610e09610e0430611c75565b6114b0565b60046020610e1b6102df600054610203565b60405163ab6e844f60e01b815292839182905afa80156103b257610e7291600091610e7d575b506040516333b59a5b60e01b6020820152600435602480830191909152356044820152906104c88260648101610329565b506100166001600355565b610e95915060203d81116103ab5761039c8183611085565b38610e41565b346101c45760003660031901126101c45760005460405163111ea8c160e21b815290602090829060049082906001600160a01b03165afa9081156103b25761029a9161093e91600091610f10575b50604051610ef68161104f565b6005815264616765282960d81b6020820152610938611231565b610f28915060203d81116103ab5761039c8183611085565b38610ee9565b346101c45760203660031901126101c457600054604051630536340960e21b8152906001600160a01b03906020908390600490829085165afa9081156103b257610f8292600092610f8d575016331461116d565b6100166004356112b8565b610b6891925060203d81116103ab5761039c8183611085565b15610fad57565b60405162461bcd60e51b815260206004820152601260248201527170726f706f7365722e746f2e65786973747360701b6044820152606490fd5b634e487b7160e01b600052604160045260246000fd5b600554600160401b8110156107195760018101806005558110156101fe57600560005260206000209060021b0190600090565b80546001600160a01b0319166001600160a01b03909216919091179055565b604081019081106001600160401b0382111761071957604052565b602081019081106001600160401b0382111761071957604052565b601f909101601f19168101906001600160401b0382119082101761071957604052565b908160209103126101c457516110bd8161029e565b90565b6040513d6000823e3d90fd5b60005b8381106110df5750506000910152565b81810151838201526020016110cf565b9291608090600a9260a08652600d60a08701526c2ab9b2b9102a3930b739b332b960991b60c087015260018060a01b031660208601526000604086015260e0606086015280518060e087015261114f81610100936020858a0191016110cc565b601f8019910116850101930152565b908160209103126101c4575190565b1561117457565b60405162461bcd60e51b815260206004820152600f60248201526e6f776e2e6e6f6e617574682e44414f60881b6044820152606490fd5b156111b257565b60405162461bcd60e51b81526020600482015260176024820152761c1c9bdc1bdcd95c8b9a5b9d985b1a590b999bdc9b5a59604a1b6044820152606490fd5b634e487b7160e01b600052601160045260246000fd5b60001981019190821161065557565b6001600160401b03811161071957601f01601f191660200190565b6040519061123e8261106a565b60008252565b604051906112518261104f565b6012825271676574526573756c742875696e743235362960701b6020830152565b519081151582036101c457565b91908260c09103126101c4578151916020810151916040820151916060810151916110bd60a06112b160808501611272565b9301611272565b80156113b9576112d86112dd916112d36005548211156111ab565b611207565b6101df565b506112ec6102df600054610203565b604051918291630536340960e21b835282600460209485935afa9081156103b2576113606113889361135361032960039561139a9860009161139c575b5061134560028701546040519384918783019190602083019252565b61134d611244565b90611e2c565b805181018201910161127f565b60018701805460ff60a01b191692151560a01b60ff60a01b1692909217909155969350505050565b019060ff801983541691151516179055565b565b6113b39150843d86116103ab5761039c8183611085565b38611329565b50565b6113c581610b6f565b548015159081611458575b5015611452576112d86113e56113eb92610b6f565b54611207565b50600181015460a01c60ff16908161143c575b8161141b575b60009115611417576110bd915054610203565b5090565b9050611436611432600383015460ff9060081c1690565b1590565b90611404565b905061144c600382015460ff1690565b906113fe565b50600090565b90506005541015386113d0565b1561146c57565b60405162461bcd60e51b815260206004820152601c60248201527b1d5d1a5b1a5d1e4b98985d18da0b9b1a5b5a5d0b995e18d95959195960221b6044820152606490fd5b156114b757565b60405162461bcd60e51b81526020600482015260176024820152761d5d1a5b1a5d1e4b9d5b9cd958dd5c994b99985a5b1959604a1b6044820152606490fd5b6040516115028161106a565b60008152906000368137565b6040519061151b8261104f565b600f82526e6765744e6f646573436f756e74282960881b6020830152565b1561154057565b60405162461bcd60e51b81526020600482015260136024820152727574696c6974792e696d706f72742e646f6e6560681b6044820152606490fd5b9190820180921161065557565b60001981146106555760010190565b604051906115a48261104f565b60178252766765744e6f64654279496e6465782875696e743235362960481b6020830152565b156115d157565b60405162461bcd60e51b815260206004820152601660248201527570726f78792e696e76616c69642e696e7374616e636560501b6044820152606490fd5b6040519061161c8261104f565b6013825272496e7374546f5573657228616464726573732960681b6020830152565b1561164557565b60405162461bcd60e51b815260206004820152601260248201527170726f78792e696e76616c69642e6e6f646560701b6044820152606490fd5b6040519061168c8261104f565b601082526f6765744e6f646528616464726573732960801b6020830152565b908160a09103126101c45780519160208201516116c78161029e565b916040810151916110bd60806112b160608501611272565b6116ec6064821115611465565b6116f8610e0430611c75565b6000906117086102df8354610203565b6040805163111ea8c160e21b808252600495939092916020919082818981855afa80156103b257611752918791611aae575b506117436114f6565b9061174c61150e565b90611f55565b958615611aa457835183818a8163ab6e844f60e01b968782525afa9081156103b25761179d9161178b918991611a8757506117436114f6565b91611797838a11611539565b8261157b565b96808811611a7f575b505b8681106117b9575050505050505050565b6117c66102df8754610203565b90845186815284818b81865afa9283156103b2578a918994611a60575b506118178751806117fb868a83019190602083019252565b039561180f601f1997888101845283611085565b6107f8611597565b6001600160a01b039061182d81831615156115ca565b87895180958c825281865afa9384156103b257818a8f968b8f946118799592611a3b575b50611865611871929351948592830161057b565b038a8101845283611085565b6107f861160f565b92611887838516151561163e565b888a5180968d825281845afa80156103b2576118e98f966118c78f6001948f91978f98946118db9592611a1a575b506118d39192519384918a830161057b565b038d8101845283611085565b61134d61167f565b8480825183010191016116ab565b50505094909416936118fc81151561163e565b148015611a11575b6119a6575b50506119158280611ae8565b866119236102df8c54610203565b8951948580928a82525afa80156103b2576119809561197a948c92611985575b5089516350db85d160e01b8a8201526001600160a01b039384166024820152939092166044840152906104c89083606481016104bc565b50611588565b6117a8565b6104c892506119a0908a3d8c116103ab5761039c8183611085565b91611943565b8951948580928d82525afa9283156103b2578c936119e7926119db928d926119ee575b50611871908b519384918c830161057b565b03888101845283611085565b8638611909565b611871919250611a0a908b3d8d116103ab5761039c8183611085565b91906119c9565b50821515611904565b6118d39250611a35908a3d8c116103ab5761039c8183611085565b916118b5565b6118719250611a5961186591833d85116103ab5761039c8183611085565b9250611851565b611a78919450863d88116103ab5761039c8183611085565b92386117e3565b9650386117a6565b611a9e9150863d88116103ab5761039c8183611085565b3861173a565b5050505050505050565b611a9e9150843d86116103ab5761039c8183611085565b600260035414611ad6576002600355565b604051633ee5aeb560e01b8152600490fd5b60055490600160401b82101561071957611b0d610402836001600395016005556101df565b60018101611b1b8482611030565b805460ff60a01b1916600160a01b17905501805461ffff1916600117905560055490611b4690610b6f565b55565b60405190611b568261104f565b601682527567657455736572546f496e737428616464726573732960501b6020830152565b60405190611b888261104f565b6008825267697353616665282960c01b6020830152565b15611ba657565b60405162461bcd60e51b81526020600482015260196024820152781bdddb8b9cd8599959dd585c990b98d85b1b0b99985a5b1959603a1b6044820152606490fd5b908160209103126101c4576110bd90611272565b60405190611c088261104f565b601582527469735365637572654261736528616464726573732960581b6020830152565b15611c3357565b60405162461bcd60e51b815260206004820152601a6024820152791bdddb8b9cd958dd5c9958985cd94b98d85b1b0b99985a5b195960321b6044820152606490fd5b600054611c8a906001600160a01b0316610203565b604051918291634bf9c0ad60e11b835282600460209485935afa9283156103b2576110bd93611cda9261032992600092611cf5575b50611cd29060405193849187830161057b565b61033f611bfb565b919080611ceb575b61035690611c2c565b5081518114611ce2565b611cd2919250611d1190863d88116103ab5761039c8183611085565b9190611cbf565b60405190611d258261104f565b601182527069735369676e657228616464726573732960781b6020830152565b15611d4c57565b60405162461bcd60e51b81526020600482015260166024820152751bdddb8b9cda59db995c8b98d85b1b0b99985a5b195960521b6044820152606490fd5b60405190611d978261104f565b6018825277697364656c656761746f724e6f646528616464726573732960401b6020830152565b3d15611de9573d90611dcf82611216565b91611ddd6040519384611085565b82523d6000602084013e565b606090565b15611df557565b60405162461bcd60e51b815260206004820152600f60248201526e1bdddb8b989d5c9b8b99985a5b1959608a1b6044820152606490fd5b90611e379291611e57565b9060009015611e44575090565b6040519150611e528261106a565b815290565b803b15611ebc57600092839263ffffffff60e01b90602081519101201690611ea96024604051809360208201958652611e9981518092602086860191016110cc565b8101036004810184520182611085565b5191620dbba0fa611eb8611dbe565b9091565b505050600090604051611ece8161106a565b6000815290565b9291611ee391600094611e57565b9080611f0e575b611ef15750565b9091506020818051810103126101c457602001516102038161029e565b506020815114611eea565b9291611f2791600094611e57565b9080611f4a575b611f355750565b6110bd91925060208082518301019101611be7565b506020815114611f2e565b9291611f6391600094611e57565b9080611f86575b611f715750565b6110bd9192506020808251830101910161115e565b506020815114611f6a565b906020825192015163ffffffff60e01b908181169360048110611fb357505050565b60040360031b82901b16169150565b6001600160a01b0381161561204357600080918351908260208601915af190611fe9611dbe565b9115611ff3575090565b80516000919060041161203d5761200a9150611f91565b81511561201a5750805190602001fd5b604051630870274d60e21b81526001600160e01b03199091166004820152602490fd5b5061200a565b60405162461bcd60e51b81526020600482015260126024820152711bdddb8b9a5b9d985b1a590b9d185c99d95d60721b6044820152606490fdfef652222313e28459528d920b65115c16c04f3efc82aaedc97be59f3f377c0d3fa2646970667358221220346dfc7e24e29065a98bdf9650f79215c62b704d6befed8bd832b8512a31de2864736f6c634300081400336080346200099f57601f6200359e38819003918201601f19168301916001600160401b03831184841017620009a4578084926020946040528339810103126200099f57516001600160a01b038116908190036200099f5780156200095a5760018060a01b0319338160015416176001556000541617600055601e601755600360185560046019556001601a556001601b556002601c5561c350601d55610258601e556003601f55601960205568878678326eac900000602155670de0b6b3a764000060225569021e19e0c9bab240000060235560016024556005602d5560ff19602e5416602e5561025860c0620000f5620009fa565b6002815260646020820152600160408201526023606082015260646080820152600160a082015201526002600755606460085560016009556023600a556064600b556001600c55610258600d55605a60406200015062000a43565b60198152600a602082015201526019600e55600a600f55605a60105560406200017862000a43565b6005815260016020820152610168918291015260056011556001601255601355600160a0620001a6620009fa565b600481528260208201528260408201528260608201528260808201528260c0820152015260046014556501010101010165ffffffffffff196015541617601555620001f062000a7d565b610258606061014092838152600b6020820152600a60408201520152602555600b602655600a60275561025860285561025860606200022e62000a7d565b60d28152600b6020820152600a6040820152015260d2602955600b602a55600a602b55610258602c556200029a62000265620009ba565b6000815260006020820152600060408201526000606082015261270f6080820152600080526004602052604060002062000ab3565b620002de620002a8620009ba565b6007815260196020820152600060408201526000606082015261270f608082015260016000526004602052604060002062000ab3565b62000322620002ec620009ba565b6007815260646020820152600060408201526000606082015261270f608082015260026000526004602052604060002062000ab3565b6200036662000330620009ba565b600781526101f460208201526003604082015260006060820152601e608082015260036000526004602052604060002062000ab3565b620003aa62000374620009ba565b600781526107d060208201526004604082015260006060820152601e608082015260046000526004602052604060002062000ab3565b620003ef620003b8620009ba565b600781526113886020820152600460408201526004606082015261270f608082015260056000526004602052604060002062000ab3565b62000434620003fd620009ba565b600781526127106020820152600460408201526004606082015261270f608082015260066000526004602052604060002062000ab3565b6200047962000442620009ba565b600781526161a86020820152600460408201526004606082015261270f608082015260076000526004602052604060002062000ab3565b620004bc62000487620009ba565b600081526006602082015260016040820152600560608201526001608082015260016000526006602052604060002062000ab3565b620004ff620004ca620009ba565b600081526003602082015260016040820152600560608201526001608082015260026000526006602052604060002062000ab3565b620005426200050d620009ba565b60028152600f6020820152600a6040820152600560608201526001608082015260036000526006602052604060002062000ab3565b6200058562000550620009ba565b60028152600f6020820152600a6040820152600560608201526001608082015260046000526006602052604060002062000ab3565b620005c862000593620009ba565b60028152600f6020820152600a6040820152600560608201526001608082015260056000526006602052604060002062000ab3565b62000857620005d6620009ba565b60028152604b90816020820152606460408201526200061360fa918260608201526064608082015260066000526006602052604060002062000ab3565b6200065462000621620009ba565b60028152836020820152606460408201528260608201526064608082015260076000526006602052604060002062000ab3565b6200069562000662620009ba565b60028152836020820152606460408201528260608201526064608082015260086000526006602052604060002062000ab3565b620006d6620006a3620009ba565b60028152836020820152606460408201528260608201526064608082015260096000526006602052604060002062000ab3565b62000717620006e4620009ba565b600281528360208201526064604082015282606082015260646080820152600a6000526006602052604060002062000ab3565b6200075862000725620009ba565b600281528360208201526064604082015282606082015260646080820152600b6000526006602052604060002062000ab3565b6200079962000766620009ba565b600281528360208201526064604082015282606082015260646080820152600c6000526006602052604060002062000ab3565b620007da620007a7620009ba565b600281528360208201526064604082015282606082015260646080820152600d6000526006602052604060002062000ab3565b6200081b620007e8620009ba565b600281528360208201526064604082015282606082015260646080820152600e6000526006602052604060002062000ab3565b62000825620009ba565b9160028352602083015260646040830152606082015260646080820152600f6000526006602052604060002062000ab3565b6200088c62000865620009da565b60128152600a6020820152602d604082015260036000526005602052604060002062000a62565b620008c16200089a620009da565b60128152600a6020820152605a604082015260056000526005602052604060002062000a62565b620008f7620008cf620009da565b60098152600a602082015261270f604082015260076000526005602052604060002062000a62565b600360205260327fc3a24b0501bd2c13a7e57f2db4369ec4c223447539fc0724a9d55ac4a06ebd4d5560046000526101f47f83ec6a1f0257b830b5e016457c9cf1435391bf56cc98f369a58a54fe9377246555604051612abb908162000ae38239f35b60405162461bcd60e51b815260206004820152601360248201527f6f776e2e696e76616c69642e68657862617365000000000000000000000000006044820152606490fd5b600080fd5b634e487b7160e01b600052604160045260246000fd5b6040519060a082016001600160401b03811183821017620009a457604052565b60405190606082016001600160401b03811183821017620009a457604052565b6040519060e082016001600160401b03811183821017620009a4576040528160c06000918281528260208201528260408201528260608201528260808201528260a08201520152565b62000a4d620009da565b90600082526000602083015260006040830152565b90604060029180518455602081015160018501550151910155565b60405190608082016001600160401b03811183821017620009a45760405260006060838281528260208201528260408201520152565b90608060049180518455602081015160018501556040810151600285015560608101516003850155015191015556fe60806040526004361015610018575b361561001657005b005b60003560e01c80630609a0e31461040857806307175c831461040357806309307c62146103fe5780630b225f1a146103f95780630ea0d222146103f457806312065fe0146103ef57806314be92a5146103ea57806315a544ed146103e55780631605aed9146103e057806316f0115b146103db578063192b48ee146103d65780631ef6a864146103d15780631f185d16146103cc57806326c5adae146103c7578063298fc460146103c25780633688236d146103bd5780633b9b7955146103b85780634151331d146103b3578063438fe192146103ae57806344ec16bc146103a95780634b62954f146103a457806353423e861461039f578063541d76671461039a57806354541683146103955780635640dbfc14610390578063582003d11461038b578063592a02a8146103865780635962205f146103815780635a0e90381461037c57806363b2b474146103775780636b81c82f146103725780636c7deb5d1461036d5780636f092c5e146103685780637687e3711461036357806378ef376f1461035e5780637bc908c6146103595780638da5cb5b146103545780638e3719e71461034f57806391fc8aa81461034a5780639319d0b514610345578063991bf5cc146103405780639d80ab9b1461033b5780639eb8b44e14610336578063a19841dd14610331578063a1f7f5391461032c578063a88fcea614610327578063aebcd32a14610322578063af0b21d31461031d578063af48452614610318578063b49c064c14610313578063b85f1f8d1461030e578063b90306ad14610309578063bcf71cd814610304578063c54e44b0146102ff578063c5a136d4146102fa578063e01ad5fd146102f5578063e0a9bc2b146102f0578063eddd0d9c146102eb578063f27c35c6146102e6578063f2a6bbc7146102e1578063f4fe8e3c146102dc578063fc0e74d1146102d75763fdc10bc90361000e57612074565b612051565b611fa7565b611f00565b611e24565b611d7d565b611d62565b611cc3565b611bd5565b611b39565b611a8c565b6119d9565b6119af565b61198c565b61195b565b61193d565b6118f4565b6118d6565b61182f565b611801565b61163e565b6115cb565b6114b7565b611410565b6113f2565b6113d4565b6113ab565b61138d565b6112e6565b611222565b6111f6565b61114f565b611075565b611039565b61100f565b610fc6565b610e8e565b610e43565b610dd6565b610db8565b610d44565b610d26565b610c79565b610bd2565b610bb4565b610b78565b610b39565b610b08565b610a44565b610980565b61088f565b6107cb565b610724565b6106d3565b6106b5565b610697565b6105f0565b6105d4565b6105b6565b610598565b6104eb565b6104ce565b346104c95760203660031901126104c95761042961042461228a565b612707565b610432336123b2565b801561044d575b61044290612748565b610016600435601755565b50600054604051630536340960e21b8152906001600160a01b03906020908390600490829085165afa9081156104c45761044292600092610494575b501633149050610439565b6104b691925060203d81116104bd575b6104ae81836121a9565b8101906121cc565b9038610489565b503d6104a4565b6121e4565b600080fd5b346104c95760003660031901126104c95760208054604051908152f35b346104c95760403660031901126104c95761050761042461228a565b610510336123b2565b8015610531575b61052090612748565b610016602435600435602255602355565b50600054604051630536340960e21b8152906001600160a01b03906020908390600490829085165afa9081156104c45761052092600092610578575b501633149050610517565b61059191925060203d81116104bd576104ae81836121a9565b903861056d565b346104c95760003660031901126104c9576020602d54604051908152f35b346104c95760003660031901126104c9576020601e54604051908152f35b346104c95760003660031901126104c957602047604051908152f35b346104c95760203660031901126104c95761060c61042461228a565b610615336123b2565b8015610630575b61062590612748565b610016600435601e55565b50600054604051630536340960e21b8152906001600160a01b03906020908390600490829085165afa9081156104c45761062592600092610677575b50163314905061061c565b61069091925060203d81116104bd576104ae81836121a9565b903861066c565b346104c95760003660031901126104c9576020602354604051908152f35b346104c95760003660031901126104c9576020602254604051908152f35b346104c95760003660031901126104c95760e0600754600854600954600a54600b5490600c5492600d5494604051968752602087015260408601526060850152608084015260a083015260c0820152f35b346104c95760203660031901126104c95761074061042461228a565b610749336123b2565b8015610764575b61075990612748565b6100166004356127d8565b50600054604051630536340960e21b8152906001600160a01b03906020908390600490829085165afa9081156104c457610759926000926107ab575b501633149050610750565b6107c491925060203d81116104bd576104ae81836121a9565b90386107a0565b346104c95760a03660031901126104c9576107e761042461228a565b6107f0336123b2565b8015610817575b61080090612748565b6100166084356064356044356024356004356129aa565b50600054604051630536340960e21b8152906001600160a01b03906020908390600490829085165afa9081156104c4576108009260009261085e575b5016331490506107f7565b61087791925060203d81116104bd576104ae81836121a9565b9038610853565b6001600160a01b038116036104c957565b346104c9576020806003193601126104c9576004908135906108b08261087e565b60005481906001600160a01b0316604051634bf9c0ad60e11b815294859182905afa9182156104c45761090361093d9361091f9261094f9660009261095d575b5061091190604051938491878301610b26565b03601f1981018452836121a9565b61091961244c565b906125f3565b919080610953575b61093090612479565b8082518301019101612275565b60405190151581529081906020820190565b0390f35b5081518114610927565b61091191925061097990863d88116104bd576104ae81836121a9565b91906108f0565b346104c95760203660031901126104c9576000546040516369e8d84b60e11b815290602090829060049082906001600160a01b03165afa80156104c4576109e8610a0c9161094f93600091610a1c575b506109d9612a1f565b906109e2612a37565b906126c9565b610a0760043591610a026109fd602054612792565b612792565b612a65565b6127c5565b6040519081529081906020820190565b610a34915060203d81116104bd576104ae81836121a9565b386109d0565b801515036104c957565b346104c95760203660031901126104c957600435610a6181610a3a565b610a6c61042461228a565b610a75336123b2565b8015610a9b575b90610a8961001692612748565b60ff8019602e54169115151617602e55565b50600054604051630536340960e21b81526001600160a01b0392916020908290600490829087165afa80156104c45761001693610a8992600092610ae8575b503391161491925050610a7c565b610b0191925060203d81116104bd576104ae81836121a9565b9038610ada565b346104c95760003660031901126104c9576020601d54604051908152f35b6001600160a01b03909116815260200190565b346104c95760003660031901126104c9576000546040516001600160a01b039091168152602090f35b6040919493926060820195825260208201520152565b346104c95760203660031901126104c95760043560005260056020526040600020805461094f6002600184015493015460405193849384610b62565b346104c95760003660031901126104c9576020601b54604051908152f35b346104c95760203660031901126104c957610bee61042461228a565b610bf7336123b2565b8015610c12575b610c0790612748565b610016600435601a55565b50600054604051630536340960e21b8152906001600160a01b03906020908390600490829085165afa9081156104c457610c0792600092610c59575b501633149050610bfe565b610c7291925060203d81116104bd576104ae81836121a9565b9038610c4e565b346104c95760403660031901126104c957610c9561042461228a565b610c9e336123b2565b8015610cbf575b610cae90612748565b610016602435600435601c55601d55565b50600054604051630536340960e21b8152906001600160a01b03906020908390600490829085165afa9081156104c457610cae92600092610d06575b501633149050610ca5565b610d1f91925060203d81116104bd576104ae81836121a9565b9038610cfb565b346104c95760003660031901126104c9576020601f54604051908152f35b346104c95760203660031901126104c9576000546040516369e8d84b60e11b815290602090829060049082906001600160a01b03165afa80156104c457610d9c610a0c9161094f93600091610a1c57506109d9612a1f565b6004356000526003602052610a026109fd604060002054612792565b346104c95760003660031901126104c9576020601a54604051908152f35b346104c95760003660031901126104c95760e060145460155460405191825260ff9081811615156020840152818160081c1615156040840152818160101c1615156060840152818160181c1615156080840152818160201c16151560a084015260281c16151560c0820152f35b346104c95760003660031901126104c957604060185460195482519182526020820152f35b60c09060031901126104c957600435906024359060443590606435906084359060a43590565b346104c957610e9c36610e68565b91610eab61042496949661228a565b610eb4336123b2565b8015610f3b575b610ec490612748565b6010841015610f06576100169560405195610ede8761211d565b86526020860152604085015260608401526080830152600052600660205260406000206127e6565b60405162461bcd60e51b815260206004820152600d60248201526c1a5b9d985b1a59081b195d995b609a1b6044820152606490fd5b50600054604051630536340960e21b8152906001600160a01b03906020908390600490829085165afa9081156104c457610ec492600092610f82575b501633149050610ebb565b610f9b91925060203d81116104bd576104ae81836121a9565b9038610f77565b9192608093969594919660a084019784526020840152604083015260608201520152565b346104c95760203660031901126104c95760043560005260066020526040600020805461094f600183015492600281015490600460038201549101549160405195869586610fa2565b346104c95760003660031901126104c957600e54600f549061094f60105460405193849384610b62565b346104c95760003660031901126104c9576020601854604051908152f35b60809060031901126104c95760043590602435906044359060643590565b346104c95761108336611057565b9261109261042493929361228a565b61109b336123b2565b80156110e3575b906110ae600292612748565b6110b6612963565b50600181146110d2575b146110c757005b601155601255601355005b82600e5583600f55846010556110c0565b50600054604051630536340960e21b81526001600160a01b0392916020908290600490829087165afa80156104c4576002936110ae9260009261112f575b5033911614919250506110a2565b61114891925060203d81116104bd576104ae81836121a9565b9038611121565b346104c95760203660031901126104c95761116b61042461228a565b611174336123b2565b801561118f575b61118490612748565b610016600435601f55565b50600054604051630536340960e21b8152906001600160a01b03906020908390600490829085165afa9081156104c457611184926000926111d6575b50163314905061117b565b6111ef91925060203d81116104bd576104ae81836121a9565b90386111cb565b346104c95760203660031901126104c95760043560005260036020526020604060002054604051908152f35b346104c95760203660031901126104c95760043561123f81610a3a565b61124a61042461228a565b611253336123b2565b8015611279575b9061126761001692612748565b60ff8019601654169115151617601655565b50600054604051630536340960e21b81526001600160a01b0392916020908290600490829087165afa80156104c45761001693611267926000926112c6575b50339116149192505061125a565b6112df91925060203d81116104bd576104ae81836121a9565b90386112b8565b346104c95760203660031901126104c95761130261042461228a565b61130b336123b2565b8015611326575b61131b90612748565b610016600435602455565b50600054604051630536340960e21b8152906001600160a01b03906020908390600490829085165afa9081156104c45761131b9260009261136d575b501633149050611312565b61138691925060203d81116104bd576104ae81836121a9565b9038611362565b346104c95760003660031901126104c9576020602454604051908152f35b346104c95760003660031901126104c9576001546040516001600160a01b039091168152602090f35b346104c95760003660031901126104c9576020601954604051908152f35b346104c95760003660031901126104c9576020602154604051908152f35b346104c95760203660031901126104c95761142c61042461228a565b611435336123b2565b8015611450575b61144590612748565b610016600435601b55565b50600054604051630536340960e21b8152906001600160a01b03906020908390600490829085165afa9081156104c45761144592600092611497575b50163314905061143c565b6114b091925060203d81116104bd576104ae81836121a9565b903861148c565b346104c95760e03660031901126104c9576024356114d481610a3a565b6044356114e081610a3a565b6064356114ec81610a3a565b6084356114f881610a3a565b60a4359161150583610a3a565b60c4359361151285610a3a565b61151d61042461228a565b611526336123b2565b8015611542575b9561153a61001697612748565b600435612815565b50600054604051630536340960e21b81526001600160a01b039791602090829060049082908c165afa80156104c4576100169861153a9260009261158f575b50339116149197505061152d565b6115a891925060203d81116104bd576104ae81836121a9565b9038611581565b9094939260609260808301968352602083015260408201520152565b346104c95760003660031901126104c9576025546026549061094f60275460285490604051948594856115af565b6102a0810192916000915b6007831061161157505050565b60019060608351918251815260209283810151848301526040809101519082015201920192019190611604565b346104c95760003660031901126104c95760405161165b8161213d565b60005b60e081106117ec5761094f6116716121f0565b600160005260056020526116a97f1471eb6eb2c5e789fc3de43f8ce62938c7d1836ec861730447e2ada8fd81017b612982565b612982565b8152600260005260056020526116de7f89832631fb3c3307a103ba2c84ab569c64d6182a18893dcd163f0f1c2090733a612982565b60208201526116fb6116a460036000526005602052604060002090565b6040820152600460005260056020526117337f3eec716f11ba9e820c81ca75eb978ffb45831ef8b7a53e5e422c26008e1ca6d5612982565b60608201526005600081905260205261176b7f458b30c2d72bfd2c6317304a4594ecbafe5f729d3111b65fdc3a33bd48e5432d612982565b6080820152600660005260056020526117a37f069400f22b28c6c362558d92f66163cec5671cba50b61abd2eecfcd0eaeac518612982565b60a0820152600760005260056020526117db7feddb6698d7c569ff62ff64f1f1492bf14a54594835ba0faac91f84b4f5d81460612982565b60c0820152604051918291826115f9565b6020906117f7612963565b818401520161165e565b346104c95760003660031901126104c957602954602a549061094f602b54602c5490604051948594856115af565b346104c95760003660031901126104c95760005460405163d1f956b160e01b815290602090829060049082906001600160a01b03165afa9081156104c45761094f91610a0c916000916118b8575b5060405161188a81612173565b601381527267657464656c656761746f72436f756e74282960681b60208201526118b261221a565b916126c9565b6118d0915060203d81116104bd576104ae81836121a9565b3861187d565b346104c95760003660031901126104c9576020601c54604051908152f35b346104c95760203660031901126104c95760043560005260046020526040600020805461094f600183015492600281015490600460038201549101549160405195869586610fa2565b346104c95760003660031901126104c9576020601754604051908152f35b346104c95760203660031901126104c957602061198260043561197d8161087e565b6123b2565b6040519015158152f35b346104c95760003660031901126104c957602060ff602e54166040519015158152f35b346104c95760003660031901126104c9576011546012549061094f60135460405193849384610b62565b346104c95760203660031901126104c957600054604051630536340960e21b8152906001600160a01b03906020908390600490829085165afa9182156104c457600092611a6c575b5033911603611a3557610016600435612522565b60405162461bcd60e51b815260206004820152600f60248201526e6f776e2e6e6f6e617574682e44414f60881b6044820152606490fd5b611a8591925060203d81116104bd576104ae81836121a9565b9038611a21565b346104c95760403660031901126104c957611aa861042461228a565b611ab1336123b2565b8015611ad2575b611ac190612748565b610016602435600435601855601955565b50600054604051630536340960e21b8152906001600160a01b03906020908390600490829085165afa9081156104c457611ac192600092611b19575b501633149050611ab8565b611b3291925060203d81116104bd576104ae81836121a9565b9038611b0e565b346104c95760203660031901126104c957600435611b568161087e565b803b6000611b63826121ff565b92611b7160405194856121a9565b82845260208401903c602d815110611b9a57602a61094f91015160601c60405191829182610b26565b60405162461bcd60e51b81526020600482015260136024820152724e6f742061206d696e696d616c2070726f787960681b6044820152606490fd5b346104c957611be336611057565b90611bf261042494939461228a565b611bfb336123b2565b8015611c57575b92611c0e600294612748565b611c1a6008821061290c565b60405194611c2786612158565b85526020850191825260408501928352600052600560205260406000209351845551600184015551910155600080f35b50600054604051630536340960e21b81526001600160a01b0394916020908290600490829089165afa80156104c457600295611c0e92600092611ca3575b503391161491945050611c02565b611cbc91925060203d81116104bd576104ae81836121a9565b9038611c95565b346104c9576020806003193601126104c95760048035611ce28161087e565b60005460405163d1f956b160e01b81526001600160a01b03949093909182918591829088165afa9081156104c45761094f9461093d94600093611d43575b506040519316818401528252611d3582612173565b611d3d6124be565b9061268d565b611d5b919350823d84116104bd576104ae81836121a9565b9138611d20565b346104c95760003660031901126104c957602061198261228a565b346104c95760203660031901126104c957611d9961042461228a565b611da2336123b2565b8015611dbd575b611db290612748565b610016600435602055565b50600054604051630536340960e21b8152906001600160a01b03906020908390600490829085165afa9081156104c457611db292600092611e04575b501633149050611da9565b611e1d91925060203d81116104bd576104ae81836121a9565b9038611df9565b346104c957611e3236610e68565b91611e4161042496949661228a565b611e4a336123b2565b8015611e93575b95611e5e61001697612748565b60405195611e6b8761211d565b86526020860152604085015260608401526080830152600052600460205260406000206127e6565b50600054604051630536340960e21b81526001600160a01b039791602090829060049082908c165afa80156104c45761001698611e5e92600092611ee0575b503391161491975050611e51565b611ef991925060203d81116104bd576104ae81836121a9565b9038611ed2565b346104c95760203660031901126104c957611f1c61042461228a565b611f25336123b2565b8015611f40575b611f3590612748565b610016600435602d55565b50600054604051630536340960e21b8152906001600160a01b03906020908390600490829085165afa9081156104c457611f3592600092611f87575b501633149050611f2c565b611fa091925060203d81116104bd576104ae81836121a9565b9038611f7c565b346104c95760403660031901126104c957611fc361042461228a565b611fcc336123b2565b8015611fea575b611fdc90612748565b610016602435600435612947565b50600054604051630536340960e21b8152906001600160a01b03906020908390600490829085165afa9081156104c457611fdc92600092612031575b501633149050611fd3565b61204a91925060203d81116104bd576104ae81836121a9565b9038612026565b346104c95760003660031901126104c957602060ff601654166040519015158152f35b346104c95760003660031901126104c95760005460405163111ea8c160e21b815290602090829060049082906001600160a01b03165afa9081156104c45761094f91610a0c916000916120e9575b506040516120cf81612173565b6005815264616765282960d81b60208201526118b261221a565b612101915060203d81116104bd576104ae81836121a9565b386120c2565b634e487b7160e01b600052604160045260246000fd5b60a081019081106001600160401b0382111761213857604052565b612107565b60e081019081106001600160401b0382111761213857604052565b606081019081106001600160401b0382111761213857604052565b604081019081106001600160401b0382111761213857604052565b602081019081106001600160401b0382111761213857604052565b601f909101601f19168101906001600160401b0382119082101761213857604052565b908160209103126104c957516121e18161087e565b90565b6040513d6000823e3d90fd5b604051906121fd8261213d565b565b6001600160401b03811161213857601f01601f191660200190565b604051906122278261218e565b60008252565b1561223457565b60405162461bcd60e51b81526020600482015260196024820152781bdddb8b9cd8599959dd585c990b98d85b1b0b99985a5b1959603a1b6044820152606490fd5b908160209103126104c957516121e181610a3a565b600054604051634bf9c0ad60e11b8152906020908190839060049082906001600160a01b03165afa9182156104c4576121e1926123009160009161231b575b506040516122d681612173565b6008815267697353616665282960c01b84820152604051916122f78361218e565b600083526125f3565b919080612311575b6109309061222d565b5081518114612308565b6123329150833d85116104bd576104ae81836121a9565b386122c9565b6040519061234582612173565b601582527469735365637572654261736528616464726573732960581b6020830152565b1561237057565b60405162461bcd60e51b815260206004820152601a6024820152791bdddb8b9cd958dd5c9958985cd94b98d85b1b0b99985a5b195960321b6044820152606490fd5b6000546001600160a01b0316604051918291634bf9c0ad60e11b835282600460209485935afa9283156104c4576121e19361240e9261090392600092612429575b5061240690604051938491878301610b26565b610919612338565b91908061241f575b61093090612369565b5081518114612416565b61240691925061244590863d88116104bd576104ae81836121a9565b91906123f3565b6040519061245982612173565b601182527069735369676e657228616464726573732960781b6020830152565b1561248057565b60405162461bcd60e51b81526020600482015260166024820152751bdddb8b9cda59db995c8b98d85b1b0b99985a5b195960521b6044820152606490fd5b604051906124cb82612173565b6018825277697364656c656761746f724e6f646528616464726573732960401b6020830152565b3d1561251d573d90612503826121ff565b9161251160405193846121a9565b82523d6000602084013e565b606090565b600080546040516311be646b60e21b815290602090829060049082906001600160a01b03165afa9081156104c45782848193829383916125d5575b505af16125686124f2565b501561259e5760405190815233907fcdcc745fe377b103b45fa0cec23ae3ef93d6fc6a84a01f0d18c40b354dd1d5d890602090a2565b60405162461bcd60e51b815260206004820152600f60248201526e1bdddb8b989d5c9b8b99985a5b1959608a1b6044820152606490fd5b6125ed915060203d81116104bd576104ae81836121a9565b3861255d565b9190823b15612674578051906020918263ffffffff60e01b92012016916040519180830193845281519160005b83811061266057505050918161264d602482600097959688970187838201520360048101845201826121a9565b5191620dbba0fa61265c6124f2565b9091565b818101830151858201602401528201612620565b5050506000906040516126868161218e565b6000815290565b929161269b916000946125f3565b90806126be575b6126a95750565b6121e191925060208082518301019101612275565b5060208151146126a2565b92916126d7916000946125f3565b90806126fc575b6126e55750565b9091506020818051810103126104c9576020015190565b5060208151146126de565b1561270e57565b60405162461bcd60e51b81526020600482015260126024820152716f776e2e696e76616c69642e69735361666560701b6044820152606490fd5b1561274f57565b60405162461bcd60e51b815260206004820152601b60248201527a6f776e2e6e6f6e617574682e44414f6f725365637572656261736560281b6044820152606490fd5b90670de0b6b3a7640000918281029281840414901517156127af57565b634e487b7160e01b600052601160045260246000fd5b818102929181159184041417156127af57565b6127e190612792565b602155565b906080600491805184556020810151600185015560408101516002850155606081015160038501550151910155565b6128ed946121fd97946128866128ce956128b19460c09a966040519061283a8261213d565b8282521515928360208301521515948560408301521515958660608301521515978860808301521515998a60a083015215159b8c91015260145560ff8019601554169115151617601555565b6015805462ffff00191660089290921b61ff00169190911791151560101b62ff000016919091179055565b63ff00000060155491151560181b169063ff000000191617601555565b6015805460ff60201b191691151560201b60ff60201b16919091179055565b6015805460ff60281b191691151560281b60ff60281b16919091179055565b1561291357565b60405162461bcd60e51b815260206004820152600c60248201526b696e76616c69642072616e6b60a01b6044820152606490fd5b6129536008821061290c565b6000526003602052604060002055565b6040519061297082612158565b60006040838281528260208201520152565b9060405161298f81612158565b60406002829480548452600181015460208501520154910152565b6040516080810191906001600160401b038311818410176121385760608791600294604052858152866020820152876040820152015260018114612a0a575b146129f5575b50505050565b602955602a55602b55602c55388080806129ef565b826025558360265584602755856028556129e9565b604051612a2b8161218e565b60008152906000368137565b60405190612a4482612173565b60128252716f7a6f6e655072696365496e55534454282960701b6020830152565b8115612a6f570490565b634e487b7160e01b600052601260045260246000fdfea264697066735822122078868abb94814161feb07a1f5220610559fddc90763651727156909275580e2664736f6c63430008140033","linkReferences":{}},"methodIdentifiers":{"rule741()":"0a5b38ab","transferRequest()":"3da8676f"},"id":34}