{"abi":[{"type":"constructor","inputs":[{"name":"_hex","type":"address","internalType":"address"},{"name":"_price","type":"address","internalType":"address"},{"name":"_old741","type":"address","internalType":"address"}],"stateMutability":"nonpayable"},{"type":"function","name":"dAOAssembly","inputs":[],"outputs":[{"name":"","type":"address","internalType":"address"}],"stateMutability":"view"},{"type":"function","name":"daocore","inputs":[],"outputs":[{"name":"","type":"address","internalType":"address"}],"stateMutability":"view"},{"type":"function","name":"nested741","inputs":[],"outputs":[{"name":"","type":"address","internalType":"address"}],"stateMutability":"view"},{"type":"function","name":"old741","inputs":[],"outputs":[{"name":"","type":"address","internalType":"address"}],"stateMutability":"view"},{"type":"function","name":"price","inputs":[],"outputs":[{"name":"","type":"address","internalType":"address"}],"stateMutability":"view"}],"bytecode":{"object":"0x6080346101b757601f61797938819003918201601f19168301926001600160401b03929091838511838610176101a15781606092849260409788528339810103126101b75761004d816101bc565b6100648461005d602085016101bc565b93016101bc565b9160018060a01b03199273c0cee8b561cc4f60869776ca5b0b7a295e04f5af84600154161760015585516111db9586820196828810828911176101a15761032c83396001600160a01b039485168088526000979092908190036020019088f080156101835785168660035416176003558751614826808201908282108483111761018d576020918391613153833985815203019088f08015610183578516866002541617600255875191611c4c808401928484109084111761016f579183916020936115078439815203019086f080156101655790838092168560045416176004551683600154161760015516908254161790555161015b90816101d18239f35b86513d87823e3d90fd5b634e487b7160e01b89526041600452602489fd5b88513d89823e3d90fd5b634e487b7160e01b8a52604160045260248afd5b634e487b7160e01b600052604160045260246000fd5b600080fd5b51906001600160a01b03821682036101b75756fe608080604052600436101561001357600080fd5b600090813560e01c90816314837455146100fc5750806314d8d024146100d357806345cff900146100aa5780635540c5ac146100815763a035b1fe1461005857600080fd5b3461007e578060031936011261007e57546040516001600160a01b039091168152602090f35b80fd5b503461007e578060031936011261007e576001546040516001600160a01b039091168152602090f35b503461007e578060031936011261007e576002546040516001600160a01b039091168152602090f35b503461007e578060031936011261007e576004546040516001600160a01b039091168152602090f35b9050346101215781600319360112610121576003546001600160a01b03168152602090f35b5080fdfea264697066735822122015bfeef4e2d96394acc547622d9faa81553671f4a8a8eb4190dc1994d7817f9364736f6c634300081400336080346100ca57601f6111db38819003918201601f19168301916001600160401b038311848410176100cf578084926020946040528339810103126100ca57516001600160a01b038116908190036100ca5780156100855760018060a01b031933816001541617600155600054161760005560006004556040516110f590816100e68239f35b60405162461bcd60e51b815260206004820152601360248201527f6f776e2e696e76616c69642e68657862617365000000000000000000000000006044820152606490fd5b600080fd5b634e487b7160e01b600052604160045260246000fdfe60806040526004361015610018575b361561001657005b005b60003560e01c806312065fe0146101085780631f185d161461010357806325924f34146100fe5780633b9b7955146100f957806361b7fbd9146100f45780638da5cb5b146100ef578063a1f7f539146100ea578063af484526146100e5578063b90306ad146100e0578063c54e44b0146100db578063c89b84fd146100d6578063dbac26e9146100d1578063e01ad5fd146100cc578063e0a9bc2b146100c75763fdc10bc90361000e5761096c565b6108ca565b61082b565b6107e9565b6106d1565b610635565b61052e565b610473565b6103bc565b610393565b6102bd565b61028a565b610246565b61013a565b3461012457600036600319011261012457602047604051908152f35b600080fd5b6001600160a01b0381160361012457565b34610124576020806003193601126101245760049081359061015b82610129565b8061016f61016a6000546107dd565b6107dd565b604051634bf9c0ad60e11b815294859182905afa918215610241576101b46101ee936101d0926102009660009261020e575b506101c290604051938491878301610277565b03601f1981018452836109e0565b6101ca610dc8565b90610f67565b919080610204575b6101e190610df5565b8082518301019101610d39565b60405191829182901515815260200190565b0390f35b50815181146101d8565b6101c291925061023390863d881161023a575b61022b81836109e0565b810190610a03565b91906101a1565b503d610221565b610a1b565b3461012457602036600319011261012457602061026d60043561026881610129565b610af5565b6040519015158152f35b6001600160a01b03909116815260200190565b34610124576000366003190112610124576000546040516001600160a01b039091168152602090f35b8015150361012457565b34610124576040366003190112610124576004356102da81610129565b6024356102e6816102b3565b60018060a01b03600092600460208386541660405192838092630536340960e21b82525afa801561024157610326918691610375575b5083163314610c8f565b16825260036020526040822060ff1981541660ff8315151617905560001461036257600454600019811461035d5760010160045580f35b610c6b565b600454801561035d576000190160045580f35b61038d915060203d811161023a5761022b81836109e0565b3861031c565b34610124576000366003190112610124576001546040516001600160a01b039091168152602090f35b346101245760003660031901126101245760005460405163d1f956b160e01b815290602090829060049082906001600160a01b03165afa908115610241576102009161044591600091610455575b50604051610417816109a5565b601381527267657464656c656761746f72436f756e74282960681b602082015261043f610a42565b91611081565b6040519081529081906020820190565b61046d915060203d811161023a5761022b81836109e0565b3861040a565b34610124576020806003193601126101245760049081359061049482610129565b806104a361016a6000546107dd565b604051634bf9c0ad60e11b815294859182905afa918215610241576101b46101ee936104f0926102009660009261050b575b506104e890604051938491878301610277565b6101ca610d4e565b919080610501575b6101e190610d7f565b50815181146104f8565b6104e891925061052790863d881161023a5761022b81836109e0565b91906104d5565b34610124576020806003193601126101245760043560018060a01b0391600092808454169060405191630536340960e21b83528383600481845afa928315610241576004938593610589928992610616575b50163314610c8f565b6040516311be646b60e21b815292839182905afa918215610241578480856105c8958295839584926105f9575b50505af16105c2610ef9565b50610f29565b60405190815233907fcdcc745fe377b103b45fa0cec23ae3ef93d6fc6a84a01f0d18c40b354dd1d5d890602090a280f35b61060f9250803d1061023a5761022b81836109e0565b38806105b6565b61062e919250853d871161023a5761022b81836109e0565b9038610580565b346101245760203660031901126101245760043561065281610129565b803b600061065f82610a27565b9261066d60405194856109e0565b82845260208401903c602d81511061069657602a61020091015160601c60405191829182610277565b60405162461bcd60e51b81526020600482015260136024820152724e6f742061206d696e696d616c2070726f787960681b6044820152606490fd5b34610124576000806003193601126107da576106f061016a82546107dd565b60405163cfbffe5360e01b815260209290918383600481845afa801561024157610730859160049585916107bd575b50610728610a55565b61043f610a42565b916040519485809263ab6e844f60e01b82525afa8015610241576102009461044594610795949261079a575b50610787906101b461076c610e3a565b94604051958693840160209093929193604081019481520152565b61078f610c32565b90611081565b610c81565b8192506107b690610787923d851161023a5761022b81836109e0565b919061075c565b6107d49150833d851161023a5761022b81836109e0565b3861071f565b80fd5b6001600160a01b031690565b346101245760203660031901126101245760043561080681610129565b60018060a01b03166000526003602052602060ff604060002054166040519015158152f35b3461012457602080600319360112610124576004803561084a81610129565b60005460405163d1f956b160e01b81526001600160a01b03949093909182918591829088165afa90811561024157610200946101ee946000936108ab575b50604051931681840152825261089d826109a5565b6108a5610ec5565b90611045565b6108c3919350823d841161023a5761022b81836109e0565b9138610888565b3461012457600036600319011261012457600054604051634bf9c0ad60e11b8152906020908190839060049082906001600160a01b03165afa908115610241576109346101ee926102009460009161094f575b50610926610ccd565b61092e610a42565b91610f67565b919080610945575b6101e190610cf1565b508151811461093c565b6109669150833d851161023a5761022b81836109e0565b3861091d565b34610124576000366003190112610124576020610987610e3a565b604051908152f35b634e487b7160e01b600052604160045260246000fd5b604081019081106001600160401b038211176109c057604052565b61098f565b602081019081106001600160401b038211176109c057604052565b601f909101601f19168101906001600160401b038211908210176109c057604052565b908160209103126101245751610a1881610129565b90565b6040513d6000823e3d90fd5b6001600160401b0381116109c057601f01601f191660200190565b60405190610a4f826109c5565b60008252565b60405190610a62826109a5565b600c82526b72616e6b666f7244414f282960a01b6020830152565b60405190610a8a826109a5565b601682527567657455736572546f53746f7228616464726573732960501b6020830152565b60405190610abc826109a5565b600682526572616e6b282960d01b6020830152565b60405190610ade826109a5565b600882526769734c6f636b282960c01b6020830152565b610b0361016a6000546107dd565b9060405163cfbffe5360e01b81526020908181600481875afa801561024157610b3a83916004936000916107bd5750610728610a55565b946040519283809263ab6e844f60e01b82525afa801561024157610b85928492600092610c0f575b50610b77906101b46040519485928301610277565b610b7f610a7d565b90611001565b916001600160a01b03831615610c0757610bc9610bb2610ba3610aaf565b610bab610a42565b9086611081565b93610bbb610ad1565b610bc3610a42565b91611045565b9210159182610bfe575b5081610bdd575090565b6001600160a01b031660009081526003602052604090205460ff1615905090565b15915038610bd3565b505050600090565b819250610c2b90610b77923d851161023a5761022b81836109e0565b9190610b62565b60405190610c3f826109a5565b601d82527f67657472616e6b636f756e742875696e743235362c75696e74323536290000006020830152565b634e487b7160e01b600052601160045260246000fd5b906003820180921161035d57565b15610c9657565b60405162461bcd60e51b815260206004820152600f60248201526e6f776e2e6e6f6e617574682e44414f60881b6044820152606490fd5b60405190610cda826109a5565b6008825267697353616665282960c01b6020830152565b15610cf857565b60405162461bcd60e51b81526020600482015260196024820152781bdddb8b9cd8599959dd585c990b98d85b1b0b99985a5b1959603a1b6044820152606490fd5b908160209103126101245751610a18816102b3565b60405190610d5b826109a5565b601582527469735365637572654261736528616464726573732960581b6020830152565b15610d8657565b60405162461bcd60e51b815260206004820152601a6024820152791bdddb8b9cd958dd5c9958985cd94b98d85b1b0b99985a5b195960321b6044820152606490fd5b60405190610dd5826109a5565b601182527069735369676e657228616464726573732960781b6020830152565b15610dfc57565b60405162461bcd60e51b81526020600482015260166024820152751bdddb8b9cda59db995c8b98d85b1b0b99985a5b195960521b6044820152606490fd5b60005460405163111ea8c160e21b815290602090829060049082906001600160a01b03165afa801561024157610a1891600091610ea7575b50604051610e7f816109a5565b6005815264616765282960d81b602082015260405191610e9e836109c5565b60008352611081565b610ebf915060203d811161023a5761022b81836109e0565b38610e72565b60405190610ed2826109a5565b6018825277697364656c656761746f724e6f646528616464726573732960401b6020830152565b3d15610f24573d90610f0a82610a27565b91610f1860405193846109e0565b82523d6000602084013e565b606090565b15610f3057565b60405162461bcd60e51b815260206004820152600f60248201526e1bdddb8b989d5c9b8b99985a5b1959608a1b6044820152606490fd5b9190823b15610fe8578051906020918263ffffffff60e01b92012016916040519180830193845281519160005b838110610fd4575050509181610fc1602482600097959688970187838201520360048101845201826109e0565b5191620dbba0fa610fd0610ef9565b9091565b818101830151858201602401528201610f94565b505050600090604051610ffa816109c5565b6000815290565b929161100f91600094610f67565b908061103a575b61101d5750565b90915060208180518101031261012457602001516107dd81610129565b506020815114611016565b929161105391600094610f67565b9080611076575b6110615750565b610a1891925060208082518301019101610d39565b50602081511461105a565b929161108f91600094610f67565b90806110b4575b61109d5750565b909150602081805181010312610124576020015190565b50602081511461109656fea26469706673582212205f515fddc18c893b3f5eac3aa034891c0e8981dcf53f27b3156ba346f57285cd64736f6c634300081400336080346100cf57601f611c4c38819003918201601f19168301916001600160401b038311848410176100d4578084926020946040528339810103126100cf57516001600160a01b038116908190036100cf57801561008a5760018060a01b031933816001541617600155600054161760005560006003556001600455604051611b6190816100eb8239f35b60405162461bcd60e51b815260206004820152601360248201527f6f776e2e696e76616c69642e68657862617365000000000000000000000000006044820152606490fd5b600080fd5b634e487b7160e01b600052604160045260246000fdfe60806040526004361015610018575b361561001657005b005b60003560e01c8063013cf08b1461016857806312065fe0146101635780631f185d161461015e5780633595df1a146101595780633b9b795514610154578063438596321461014f57806365153c4b1461014a5780638da5cb5b1461014557806398e527d314610140578063995e43391461013b578063a1f7f53914610136578063af48452614610131578063b90306ad1461012c578063c54e44b014610127578063c7f758a814610122578063c9d27afe1461011d578063d153356b14610118578063d3a3084914610113578063e01ad5fd1461010e578063e0a9bc2b146101095763fdc10bc90361000e57610f59565b610f3e565b610f17565b610ccf565b610c00565b610aaa565b610a3b565b610961565b6108ae565b6107ac565b610789565b610705565b6106e7565b6106be565b6105cd565b610571565b610548565b6104f8565b6104c7565b61049a565b6103e6565b60055481101561018c576005600052600b602060002091020190600090565b634e487b7160e01b600052603260045260246000fd5b90600182811c921680156101d2575b60208310146101bc57565b634e487b7160e01b600052602260045260246000fd5b91607f16916101b1565b90600092918054916101ed836101a2565b91828252600193848116908160001461024f575060011461020f575b50505050565b90919394506000526020928360002092846000945b83861061023b575050505001019038808080610209565b805485870183015294019385908201610224565b9294505050602093945060ff191683830152151560051b01019038808080610209565b634e487b7160e01b600052604160045260246000fd5b602081019081106001600160401b038211176102a357604052565b610272565b604081019081106001600160401b038211176102a357604052565b601f909101601f19168101906001600160401b038211908210176102a357604052565b906103016102fa92604051938480926101dc565b03836102c3565b565b60005b8381106103165750506000910152565b8181015183820152602001610306565b9060209161033f81518092818552858086019101610303565b601f01601f1916010190565b98929561039e959e9d9b956103de99936101809c966103019f9a949960408e61037f6103d49d6101a0808452830190610326565b6001600160a01b03909516602082015201528c820360608e0152610326565b60808b019f909f5260a08a015260c089015260e088015261010087015215156101208601526001600160a01b0316610140850152565b1515610160830152565b019015159052565b34610495576020366003190112610495576004356005548110156104955761040d9061016d565b5060405190610420826102fa81846101dc565b600181015460028201546001600160a01b039182169390926104919290610449600382016102e6565b9560048201549160058101546006820154600783015491600a6008850154940154956040519b8c9b8c9760ff8a60b01c169b60ff808c60a81c169c8c60081c169b169961034b565b0390f35b600080fd5b3461049557600036600319011261049557602047604051908152f35b6001600160a01b0381160361049557565b346104955760203660031901126104955760206104ee6004356104e9816104b6565b6115ec565b6040519015158152f35b3461049557602036600319011261049557600435600019810190811161053057600561052560209261016d565b500154604051908152f35b61108f565b6001600160a01b03909116815260200190565b34610495576000366003190112610495576000546040516001600160a01b039091168152602090f35b3461049557604036600319011261049557600435602435610591816104b6565b6000198201918211610530576105b760ff9160096105b060209561016d565b50016111ea565b54166040519015158152f35b8015150361049557565b34610495576040366003190112610495576004356024356105ed816105c3565b6105f6336115ec565b15610684576000198201918083116105305761067f6106176100169461016d565b5061063260ff61062a33600985016111ea565b541615611201565b61066b600a8201549161064b60ff8460b01c16156111a6565b61065760ff8416611127565b6007610661611686565b9101541115611282565b60081c6001600160a01b0316331415611241565b6112d3565b60405162461bcd60e51b815260206004820152601260248201527137bbb71734b73b30b634b21739b4b3b732b960711b6044820152606490fd5b34610495576000366003190112610495576001546040516001600160a01b039091168152602090f35b34610495576000366003190112610495576020600554604051908152f35b346104955760203660031901126104955760043560001981019081116105305761072e9061016d565b506004810154600682015460078301546008840154600a9094015460408051948552602085019390935291830152606082019290925260ff60a883901c81161515608083015260b09290921c909116151560a082015260c090f35b346104955760003660031901126104955760206107a46117ee565b604051908152f35b3461049557602080600319360112610495576004908135906107cd826104b6565b60005481906001600160a01b0316604051634bf9c0ad60e11b815294859182905afa9182156108a95761082061085a9361083c9261049196600092610876575b5061082e90604051938491878301610535565b03601f1981018452836102c3565b610836611500565b9061197f565b91908061086c575b61084d90611531565b808251830101910161143d565b60405190151581529081906020820190565b5081518114610844565b61082e91925061089b90863d88116108a2575b61089381836102c3565b8101906113b6565b919061080d565b503d610889565b6113ce565b3461049557602036600319011261049557600054604051630536340960e21b8152906001600160a01b03906020908390600490829085165afa9182156108a957600092610941575b503391160361090a576100166004356118ae565b60405162461bcd60e51b815260206004820152600f60248201526e6f776e2e6e6f6e617574682e44414f60881b6044820152606490fd5b61095a91925060203d81116108a25761089381836102c3565b90386108f6565b346104955760203660031901126104955760043561097e816104b6565b803b600061098b826113da565b9261099960405194856102c3565b82845260208401903c602d8151106109c257602a61049191015160601c60405191829182610535565b60405162461bcd60e51b81526020600482015260136024820152724e6f742061206d696e696d616c2070726f787960681b6044820152606490fd5b93610a166080949796939260a0875260a0870190610326565b6001600160a01b03928316602087015260408601979097521660608401521515910152565b3461049557602036600319011261049557600435600019810190811161053057610a649061016d565b5060018060a01b0361049181600184015416926102fa6002820154610a94600a84015493604051938480926101dc565b60405195869560ff85169460081c1692866109fd565b3461049557604036600319011261049557600435602435610aca816105c3565b610ad3336115ec565b8015610bdd575b610ae3906110d3565b610bb2610ba5610afa610af585611118565b61016d565b50600a81015490610b0d60ff8316611127565b610b246007820154610b1d611686565b1115611167565b610b3460ff8360b01c16156111a6565b610b5f600982019261066b610b5a610b56610b4f33886111ea565b5460ff1690565b1590565b611201565b60008515610bd8575060015b610b7d60ff60048401921682546110c6565b9055600085610bca5750610b9c60ff60066001935b01921682546110c6565b905533906111ea565b805460ff19166001179055565b610bbb336115ec565b610bc157005b610016916112d3565b60ff6006610b9c9293610b92565b610b6b565b50610be6611452565b8015610ada5750610ae3610bf933611711565b9050610ada565b3461049557604036600319011261049557610c19611452565b15610c6857333003610c3357600480356003556024359055005b60405162461bcd60e51b815260206004820152600d60248201526c64616f2e66616b652e636f726560981b6044820152606490fd5b60405162461bcd60e51b81526020600482015260126024820152716f776e2e696e76616c69642e69735361666560701b6044820152606490fd5b9181601f84011215610495578235916001600160401b038311610495576020838186019501011161049557565b346104955760a0366003190112610495576001600160401b0360043581811161049557610d00903690600401610ca2565b602435610d0c816104b6565b60643584811161049557610d24903690600401610ca2565b9390926001600160a01b03831615610edd5760055491600160401b8310156102a357610d5760019384810160055561016d565b509682116102a357610d7382610d6d89546101a2565b89610f74565b600090601f8311600114610e635793600a969383610e4a999794610dd294610de398600092610e58575b5050600019600383901b1c191690821b1787555b860180546001600160a01b0319166001600160a01b03909216919091179055565b604435600285015560038401610fc8565b610e09610e02610dfd610df46117ee565b600354906110a5565b6110b8565b6064900490565b6008820155610e21608435610e1c611686565b6110c6565b6007820155018054610100600160a81b0319163360081b610100600160a81b0316178155610ba5565b600554604051908152602090f35b013590503880610d9d565b601f19831691610e7889600052602060002090565b92815b818110610ec757509484610dd294610de398948394610e4a9d9b98600a9d9a10610ead575b505050811b018755610db1565b0135600019600384901b60f8161c19169055388080610ea0565b8383013585559386019360209283019201610e7b565b60405162461bcd60e51b815260206004820152601260248201527137bbb7173232b330bab63a1739b2b73232b960711b6044820152606490fd5b346104955760203660031901126104955760206104ee600435610f39816104b6565b611711565b346104955760003660031901126104955760206104ee611452565b346104955760003660031901126104955760206107a4611686565b90601f8111610f8257505050565b600091825260208220906020601f850160051c83019410610fbe575b601f0160051c01915b828110610fb357505050565b818155600101610fa7565b9092508290610f9e565b9092916001600160401b0381116102a357610fed81610fe784546101a2565b84610f74565b6000601f8211600114611027578192939460009261101c575b50508160011b916000199060031b1c1916179055565b013590503880611006565b601f1982169461103c84600052602060002090565b91805b87811061107757508360019596971061105d575b505050811b019055565b0135600019600384901b60f8161c19169055388080611053565b9092602060018192868601358155019401910161103f565b634e487b7160e01b600052601160045260246000fd5b8181029291811591840414171561053057565b906063820180921161053057565b9190820180921161053057565b156110da57565b60405162461bcd60e51b815260206004820152601660248201527564616f2e6e6f6e617574682e64656c656761746f727360501b6044820152606490fd5b60001981019190821161053057565b1561112e57565b60405162461bcd60e51b815260206004820152601160248201527019185bcb9c1c9bdc0b9b9bdd195e1a5cdd607a1b6044820152606490fd5b1561116e57565b60405162461bcd60e51b815260206004820152601060248201526f19185bcb9d9bdd1a5b99cb995b99195960821b6044820152606490fd5b156111ad57565b60405162461bcd60e51b815260206004820152601560248201527419185bcb985b1c9958591e4b98dbdb5c1b195d1959605a1b6044820152606490fd5b9060018060a01b0316600052602052604060002090565b1561120857565b60405162461bcd60e51b815260206004820152601160248201527019185bcb985b1c9958591e4b9d9bdd1959607a1b6044820152606490fd5b1561124857565b60405162461bcd60e51b815260206004820152601260248201527119185bcb9d9bdd195c8b9c995cdd1c9a58dd60721b6044820152606490fd5b1561128957565b60405162461bcd60e51b815260206004820152601360248201527264616f2e6265666f72652e646561646c696e6560681b6044820152606490fd5b60001981146105305760010190565b610af56112df91611118565b50600581016112ee81546112c4565b8091556004541480156113ae575b611304575050565b600a8101805460ff60b01b1916600160b01b17815561136e92611349918161139b575b8161137157805460ff60a81b191691151560a81b60ff60a81b16919091179055565b60018101546001600160a01b03166113686003600284015493016102e6565b90611a6c565b50565b60048401546006850154109150805460ff60a81b191691151560a81b60ff60a81b16919091179055565b6004840154600885015411159150611327565b5081156112fc565b9081602091031261049557516113cb816104b6565b90565b6040513d6000823e3d90fd5b6001600160401b0381116102a357601f01601f191660200190565b156113fc57565b60405162461bcd60e51b81526020600482015260196024820152781bdddb8b9cd8599959dd585c990b98d85b1b0b99985a5b1959603a1b6044820152606490fd5b9081602091031261049557516113cb816105c3565b600054604051634bf9c0ad60e11b8152906020908190839060049082906001600160a01b03165afa9182156108a9576113cb926114c8916000916114e3575b5060405161149e816102a8565b6008815267697353616665282960c01b84820152604051916114bf83610288565b6000835261197f565b9190806114d9575b61084d906113f5565b50815181146114d0565b6114fa9150833d85116108a25761089381836102c3565b38611491565b6040519061150d826102a8565b601582527469735365637572654261736528616464726573732960581b6020830152565b1561153857565b60405162461bcd60e51b815260206004820152601a6024820152791bdddb8b9cd958dd5c9958985cd94b98d85b1b0b99985a5b195960321b6044820152606490fd5b60405190611587826102a8565b601182527069735369676e657228616464726573732960781b6020830152565b156115ae57565b60405162461bcd60e51b81526020600482015260166024820152751bdddb8b9cda59db995c8b98d85b1b0b99985a5b195960521b6044820152606490fd5b6000546001600160a01b0316604051918291634bf9c0ad60e11b835282600460209485935afa9283156108a9576113cb936116489261082092600092611663575b5061164090604051938491878301610535565b61083661157a565b919080611659575b61084d906115a7565b5081518114611650565b61164091925061167f90863d88116108a25761089381836102c3565b919061162d565b60005460405163111ea8c160e21b815290602090829060049082906001600160a01b03165afa80156108a9576113cb916000916116f3575b506040516116cb816102a8565b6005815264616765282960d81b6020820152604051916116ea83610288565b600083526119fd565b61170b915060203d81116108a25761089381836102c3565b386116be565b60005460405163d1f956b160e01b8152916020916001600160a01b039083908590600490829085165afa9384156108a9576000946117c9575b5060405191168282015281815261179c90611764816102a8565b604051611770816102a8565b6018815277697364656c656761746f724e6f646528616464726573732960401b8482015260009461197f565b9190806117bf575b6117ad57505090565b6113cb9250808251830101910161143d565b50808251146117a4565b61179c929194506117e690843d86116108a25761089381836102c3565b93909161174a565b60005460405163d1f956b160e01b815290602090829060049082906001600160a01b03165afa80156108a9576113cb91600091611860575b50604051611833816102a8565b601381527267657464656c656761746f72436f756e74282960681b6020820152604051916116ea83610288565b611878915060203d81116108a25761089381836102c3565b38611826565b3d156118a9573d9061188f826113da565b9161189d60405193846102c3565b82523d6000602084013e565b606090565b600080546040516311be646b60e21b815290602090829060049082906001600160a01b03165afa9081156108a9578284819382938391611961575b505af16118f461187e565b501561192a5760405190815233907fcdcc745fe377b103b45fa0cec23ae3ef93d6fc6a84a01f0d18c40b354dd1d5d890602090a2565b60405162461bcd60e51b815260206004820152600f60248201526e1bdddb8b989d5c9b8b99985a5b1959608a1b6044820152606490fd5b611979915060203d81116108a25761089381836102c3565b386118e9565b803b156119e457600092839263ffffffff60e01b906020815191012016906119d160246040518093602082019586526119c18151809260208686019101610303565b81010360048101845201826102c3565b5191620dbba0fa6119e061187e565b9091565b5050506000906040516119f681610288565b6000815290565b9291611a0b9160009461197f565b9080611a30575b611a195750565b909150602081805181010312610495576020015190565b506020815114611a12565b906020825192015163ffffffff60e01b908181169360048110611a5d57505050565b60040360031b82901b16169150565b9091906001600160a01b03811615611af157600091829184519160208601915af190611a9661187e565b9115611aa0575090565b805160009190600411611aeb57611ab79150611a3b565b815115611ac75750805190602001fd5b604051630870274d60e21b81526001600160e01b0319919091166004820152602490fd5b50611ab7565b60405162461bcd60e51b81526020600482015260126024820152711bdddb8b9a5b9d985b1a590b9d185c99d95d60721b6044820152606490fdfea2646970667358221220cafd3dcdd10044b7694fbd0422addd4554a19bec76fea7952dc2923ad56540a564736f6c63430008140033608034620000d157601f6200482638819003918201601f19168301916001600160401b03831184841017620000d657808492602094604052833981010312620000d157516001600160a01b03811690819003620000d15780156200008c5760018060a01b031933816001541617600155600054161760005560016003556040516147399081620000ed8239f35b60405162461bcd60e51b815260206004820152601360248201527f6f776e2e696e76616c69642e68657862617365000000000000000000000000006044820152606490fd5b600080fd5b634e487b7160e01b600052604160045260246000fdfe60806040526004361015610018575b361561001657005b005b60003560e01c80629db65514610327578063033eeffb146103225780630e5fd00b1461031d57806312065fe0146103185780631bb49f02146103135780631c53c2801461030e5780631f185d16146103095780632a687c87146103045780632fefc0bf146102ff57806332ff4eab146102fa57806333b59a5b146102f55780633a7b55b8146102f05780633b9b7955146102eb5780633baee0ea146102e6578063419cb27b146102e157806342cc9d57146102dc57806344585097146102d75780634f0f4aa9146102d2578063509222cd146102cd57806350db85d1146102c857806361ea7208146102c3578063629d671e146102be57806365d2fbd3146102b95780636a811244146102b457806376fe6c45146102af5780637bb98498146102aa57806380f85e33146102a5578063849c22ad146102a0578063896c354a1461029b5780638da5cb5b1461029657806395f72f491461029157806398b3f2151461028c578063a1f7f53914610287578063a89d693b14610282578063af4845261461027d578063b1c4907914610278578063b366335e14610273578063b90306ad1461026e578063c54e44b014610269578063c871372b14610264578063d1e0bbc61461025f578063dcb3fc4a1461025a578063e01ad5fd14610255578063e0a9bc2b14610250578063eb95c6621461024b578063eb9e9e2c14610246578063f3ca712414610241578063fd38093b1461023c5763fdc10bc90361000e5761235b565b6122ed565b6122c1565b61217d565b612151565b612136565b612097565b611ef8565b611ebe565b611e41565b611da5565b611cf2565b611c9c565b611bc5565b611b9e565b611ad7565b6119f1565b6119c5565b61191b565b6118f2565b6118b2565b611883565b611849565b61179f565b611750565b6112d8565b611062565b611025565b610fed565b610f35565b610ee2565b610e19565b610de2565b610db3565b610d8b565b610a23565b6109d2565b6108b3565b6107db565b610731565b6106fa565b61064b565b610543565b61050f565b61043a565b610405565b6103b6565b61035a565b346103555760203660031901126103555760025460001981019081116103505761001690613c38565b61258b565b600080fd5b3461035557602036600319011261035557600435600052600b6020526020604060002054604051908152f35b6001600160a01b031690565b6001600160a01b0381160361035557565b6001600160a01b03909116815260200190565b346103555760203660031901126103555760206004356103d581610392565b60018060a01b03809116600052600482526040600020546000526007825260046040600020015416604051908152f35b3461035557600036600319011261035557602047604051908152f35b9081526001600160a01b03909116602082015260400190565b346103555760203660031901126103555760043561045781610392565b60018060a01b038060009216825260046020526040822054825260076020526040600281842001549283815260056020522054169061049b60405192839283610421565b0390f35b6000526009602052604060002090565b6000526007602052604060002090565b6000526005602052604060002090565b6000526010602052604060002090565b6000526008602052604060002090565b600052600a602052604060002090565b600052600b602052604060002090565b34610355576020366003190112610355576004356000526005602052602060018060a01b0360406000205416604051908152f35b34610355576020806003193601126103555760049081359061056482610392565b80610578610573600054610386565b610386565b604051634bf9c0ad60e11b815294859182905afa918215610646576105bd6105f7936105d99261049b96600092610613575b506105cb906040519384918783016103a3565b03601f198101845283612405565b6105d3614280565b906144dd565b919080610609575b6105ea906142ad565b80825183010191016140a1565b60405190151581529081906020820190565b50815181146105e1565b6105cb91925061063890863d881161063f575b6106308183612405565b81019061262d565b91906105aa565b503d610626565b612642565b346103555760403660031901126103555761066c6106676140b5565b6125ec565b610675336141dd565b8015610693575b6106859061264e565b610016602435600435613e5c565b50600054604051630536340960e21b8152906001600160a01b03906020908390600490829085165afa90811561064657610685926000926106da575b50163314905061067c565b6106f391925060203d811161063f576106308183612405565b90386106cf565b34610355576020366003190112610355576004356000526007602052602060018060a01b0360056040600020015416604051908152f35b346103555760403660031901126103555761074d6106676140b5565b610756336141dd565b8015610774575b6107669061264e565b610016602435600435613eb0565b50600054604051630536340960e21b8152906001600160a01b03906020908390600490829085165afa90811561064657610766926000926107bb575b50163314905061075d565b6107d491925060203d811161063f576106308183612405565b90386107b0565b34610355576040366003190112610355576107f76106676140b5565b610800336141dd565b801561081e575b6108109061264e565b610016602435600435613f43565b50600054604051630536340960e21b8152906001600160a01b03906020908390600490829085165afa9081156106465761081092600092610865575b501633149050610807565b61087e91925060203d811161063f576106308183612405565b903861085a565b60e0810192916000915b6007831061089c57505050565b60019082518152602080910192019201919061088f565b346103555760203660031901126103555761049b6004356109c06109b0604051926108dd846123b4565b60e03685376108fe6108ee8261049f565b6001600052602052604060002090565b54845261091d61090d8261049f565b6002600052602052604060002090565b54602085015261093f61092f8261049f565b6003600052602052604060002090565b5460408501526109616109518261049f565b6004600052602052604060002090565b5460608501526109836109738261049f565b6005600052602052604060002090565b5460808501526109a56109958261049f565b6006600052602052604060002090565b5460a085015261049f565b6007600052602052604060002090565b5460c082015260405191829182610885565b34610355576000366003190112610355576000546040516001600160a01b039091168152602090f35b604090600319011261035557600435610a1381610392565b90602435610a2081610392565b90565b3461035557610a82610a34366109fb565b610a3c6125c9565b610a55610a47612456565b610a4f61246e565b3361455b565b91610a9b610a6c610a64612456565b610a4f612491565b6001600160a01b039584871695871686146124b9565b85610a936105738260005416610386565b9116146124ff565b610aa6831515612d84565b610aaf8261100b565b54158015610d80575b610ac190612dc6565b610ad5610acd8261100b565b541515612e09565b610af26005610aec610ae68461100b565b546104af565b016125bc565b92604094855194610b3260209663880cdc3160e01b8882015280610b1988602483016103a3565b0392610b2d601f1994858101845283612405565b614648565b50610b476105736004610aec610ae68861100b565b15610c5b57610be895610b9191610b2d610b686004610aec610ae68a61100b565b918a519362e6724f60e21b9085015283610b8533602483016103a3565b03908101845283612405565b505b610b9c8361100b565b54610ba68561100b565b55610bc284610bbd610bb78661100b565b546104bf565b612a38565b610bda336004610bd4610ae68861100b565b01612a38565b821603610c49575b5061100b565b5461049b610bfa6005610aec846104af565b92610c18610c136002610c0c866104af565b01546104bf565b6125bc565b90610c236001600355565b519283526001600160a01b03938416602084015290921660408201529081906060820190565b610c5460009161100b565b5538610be2565b85600496610c6d610573600054610386565b895163111ea8c160e21b815298899182905afa96871561064657610be897610cc591600091610d63575b50895190610cb782610cab8a8783016103a3565b03868101845283612405565b610cbf612e4f565b9061455b565b838116151580610d59575b610cdd575b505050610b93565b610b2d610d5093610d188b51634fb2e45d60e01b86820152610d1281610d0633602483016103a3565b03848101835282612405565b84614648565b508a5193630a3e884b60e41b9085015283610b8560248201906007606060808401936000815260006020820152600060408201520152565b50388080610cd5565b5080311515610cd0565b610d7a9150833d851161063f576106308183612405565b38610c97565b508084168314610ab8565b34610355576020366003190112610355576020610da9600435613d6f565b6040519015158152f35b346103555760203660031901126103555760043560005260076020526020600360406000200154604051908152f35b34610355576020366003190112610355576004356000526007602052602060018060a01b0360046040600020015416604051908152f35b3461035557602036600319011261035557600435806000526007602052604060002054600560205261049b60018060a01b0380604060002054169360076020526040600020916004600284015493015416610e786005610aec846104af565b906003610e9a610e946001610e8c876104af565b015460ff1690565b946104af565b0154604080519788526001600160a01b03988916602089015287019490945286166060860152909416608084015292151560a083015260c082019290925290819060e0820190565b3461035557602036600319011261035557600435610eff81610392565b60018060a01b031660005260046020526040600020546000526007602052602060ff600160406000200154166040519015158152f35b3461035557610f43366109fb565b610f4e6106676140b5565b610f57336141dd565b8015610f80575b91610f6b610f709361264e565b612698565b9061049b60405192839283610421565b50600054604051630536340960e21b81526001600160a01b0393916020908290600490829088165afa801561064657610f7094610f6b92600092610fcd575b503391161491935050610f5e565b610fe691925060203d811161063f576106308183612405565b9038610fbf565b34610355576000366003190112610355576020600654604051908152f35b6001600160a01b0316600090815260046020526040902090565b346103555760203660031901126103555760043561104281610392565b60018060a01b031660005260046020526020604060002054604051908152f35b3461035557602036600319011261035557600435600161108d61108882610e8c856104af565b612ce0565b611096826104cf565b906002908183019260ff8454818160081c16806112be575b6110b79061318f565b60101c1661120b57506110d6826110cd866104af565b0154151561321b565b6000815b61111b575b5050600090611108610016946111036110fd865460ff9060101c1690565b82613307565b6104af565b0155805462ff0000191662010000179055565b6003806111328561112b896104af565b01546104af565b0154821015611205578561116161115784846111518961112b876104af565b01612be1565b90549060031b1c90565b14611176575061117090612a29565b816110da565b839250946111fb866111e8611108946111cf6111c06111576100169c6111a160009c61112b8b6104af565b016111ba876111b38d61112b8d6104af565b01546127ff565b90612be1565b91846111518a61112b8a6104af565b90919082549060031b91821b91600019901b1916179055565b6111f58561112b856104af565b01613265565b94508192506110df565b506110df565b8261126c6112666112ac9661125c8960036112566112a6996105bd996112406100169f9d611238876104af565b0154156131d4565b01978854809161124f866104af565b01556104af565b01612bfe565b5460101c60ff1690565b85613307565b610b2d61128a610c136112836004610aec896104af565b93546104bf565b604051630a4ce2c960e11b6020820152938491602483016103a3565b506104cf565b60026000918281558260018201550155565b508082166110ae565b908152602081019190915260400190565b346103555760408060031936011261035557600480356112f66125c9565b6113076110886001610e8c846104af565b61132161131a61057384610aec856104af565b3314612e7e565b611329612861565b6113376005610aec836104af565b60025490845161138561137760209263015042f960e11b848201528061136360249788358984016112c7565b0394610b2d601f1996878101845283612405565b8280825183010191016135f5565b94858051948861139a858401978851906125af565b966113aa828501988951906125af565b6113ba60608601918251906125af565b9186886113cd60808901958651906125af565b956113de60a08a01978851906125af565b986113f76113f260c083019b8c51906125af565b613e02565b516116c8575b8351611635575b5050505080516115a4575b508051611514575b5080511580159061150a575b61145a575b898961049b6101208a6114418d610100860151906136ad565b51920151926114506001600355565b51928392836112c7565b8461146f61057360009a969799989a54610386565b8b51635e09dbe760e01b815296879182905afa80156106465761049b98610120988c6114d296611441996000956114dd575b50906114b8610b8592610b2d9697519051906125af565b905196879363a9059cbb60e01b9085015233908401612ede565b509382933880611428565b610b2d9550610b8592916115006114b892863d881161063f576106308183612405565b96509192506114a1565b5082511515611423565b8486611524610573600054610386565b8d516313b92d3560e31b815292839182905afa9182156106465761157c928d61157093600092611583575b50610b2d919251905193849163a9059cbb60e01b8c84015233898401612ede565b038a8101845283612405565b5038611417565b610b2d925061159e908b3d8d1161063f576106308183612405565b9161154f565b85878d6115b5610573600054610386565b9051635506ee0b60e11b815292839182905afa9182156106465761160d928e61160193600092611614575b50610b2d919251905193849163a9059cbb60e01b8d840152338a8401612ede565b038b8101845283612405565b503861140f565b610b2d925061162f908c8d3d1061063f576106308183612405565b916115e0565b611643610573600054610386565b90516330125cf560e01b815292839182905afa9182156106465761169d928f611691936000926116a7575b509151915163a9059cbb60e01b8c820152929091610b2d918491338b8401612ede565b038c8101845283612405565b503886888e611404565b610b2d92506116c2908d803d1061063f576106308183612405565b9161166e565b6116d6610573600054610386565b9051636402742760e01b815292839182905afa8015610646578e6117278f8c938e918d9660009261172d575b50610b2d9051928c610b85875195869263a9059cbb60e01b8b85015233908401612ede565b506113fd565b610b2d91925061174990873d891161063f576106308183612405565b9190611702565b3461035557602036600319011261035557602060043561176f81610392565b60018060a01b03809116600052600482526040600020546000526007825260056040600020015416604051908152f35b34610355576040366003190112610355576117bb6106676140b5565b6117c4336141dd565b80156117e2575b6117d49061264e565b6100166024356004356130b4565b50600054604051630536340960e21b8152906001600160a01b03906020908390600490829085165afa908115610646576117d492600092611829575b5016331490506117cb565b61184291925060203d811161063f576106308183612405565b903861181e565b3461035557604036600319011261035557600435600052600860205260406000206024356000526020526020604060002054604051908152f35b346103555760203660031901126103555760043560005260076020526020600260406000200154604051908152f35b3461035557604036600319011261035557600435600052600760205260206118e36024356003604060002001612be1565b90549060031b1c604051908152f35b34610355576000366003190112610355576001546040516001600160a01b039091168152602090f35b34610355576040366003190112610355576119376106676140b5565b611940336141dd565b801561195e575b6119509061264e565b610016602435600435613e86565b50600054604051630536340960e21b8152906001600160a01b03906020908390600490829085165afa90811561064657611950926000926119a5575b501633149050611947565b6119be91925060203d811161063f576106308183612405565b903861199a565b3461035557602036600319011261035557600435600052600f6020526020604060002054604051908152f35b346103555760003660031901126103555760005460405163d1f956b160e01b815290602090829060049082906001600160a01b03165afa9081156106465761049b91611a7a91600091611a8a575b50604051611a4c816123cf565b601381527267657464656c656761746f72436f756e74282960681b6020820152611a74612443565b916145db565b6040519081529081906020820190565b611aa2915060203d811161063f576106308183612405565b38611a3f565b610100810192916000915b60088310611ac057505050565b600190825181526020809101920192019190611ab3565b346103555760203660031901126103555761049b600435611b8c6109b0611afc613d86565b92611b18611b09826104df565b60008052602052604060002090565b548452611b276108ee826104df565b546020850152611b3961090d826104df565b546040850152611b4b61092f826104df565b546060850152611b5d610951826104df565b546080850152611b6f610973826104df565b5460a0850152611b81610995826104df565b5460c08501526104df565b5460e082015260405191829182611aa8565b34610355576020366003190112610355576020610da9600435611bc081610392565b6141dd565b3461035557611c49611bd6366109fb565b90611bdf6125c9565b611c21611bed610a47612456565b611bf8610a64612456565b906001600160a01b0390611c11908216868316146124b9565b610a936105738260005416610386565b611c3a611c356001610e8c610ae68561100b565b612544565b611c4261281b565b3390612a79565b611c57611b096002546104df565b611c6181546125a1565b9055611c6b613e2e565b611c796005610aec836104af565b90611c8381612d24565b611c8d6001600355565b61049b60405192839283610421565b3461035557602036600319011261035557611cb56142f2565b60025410611ccc575b6100166004356002546128a4565b611cd46142f2565b80600255600019810190811161035057611ced90613c38565b611cbe565b3461035557602036600319011261035557600054604051630536340960e21b8152906001600160a01b03906020908390600490829085165afa91821561064657600092611d85575b5033911603611d4e576100166004356143e1565b60405162461bcd60e51b815260206004820152600f60248201526e6f776e2e6e6f6e617574682e44414f60881b6044820152606490fd5b611d9e91925060203d811161063f576106308183612405565b9038611d3a565b3461035557602036600319011261035557600435611dc281610392565b803b6000611dcf82612428565b92611ddd6040519485612405565b82845260208401903c602d815110611e0657602a61049b91015160601c604051918291826103a3565b60405162461bcd60e51b81526020600482015260136024820152724e6f742061206d696e696d616c2070726f787960681b6044820152606490fd5b604036600319011261035557600435611e586125c9565b6000908082526007602052611e7660ff600160408520015416612ce0565b81526007602052611eb560018060a01b036005604084200154166040519062a0e53360e51b6020830152602435602483015260248252610b2d82612394565b50600160035580f35b3461035557604036600319011261035557600435600052600a60205260406000206024356000526020526020604060002054604051908152f35b346103555760c036600319011261035557602435600435611f1882610392565b6064359060843590611f286125c9565b611f396110886001610e8c846104af565b611f4d61131a6105736004610aec856104af565b611f55612861565b611f5e82613daa565b611f6783613dd6565b611fef611fe1611fcd611f7e6005610aec866104af565b604051634996516b60e11b6020808301919091526001600160a01b039099166024820152604480359082015260648101889052608481019690965260a4803590870152969490819060c4820190565b0396610b2d601f1998898101845283612405565b838082518301019101612ec8565b928161200c575b50506120029350613900565b6100166001600355565b908160049261201f610573600054610386565b604051635e09dbe760e01b815294859182905afa8015610646576120029761206e94600092612076575b50610b2d9192610b8560405195869263a9059cbb60e01b908401523360248401612ede565b503880611ff6565b610b2d925061209190843d861161063f576106308183612405565b91612049565b346103555760208060031936011261035557600480356120b681610392565b60005460405163d1f956b160e01b81526001600160a01b03949093909182918591829088165afa9081156106465761049b946105f794600093612117575b506040519316818401528252612109826123cf565b61211161437d565b9061459f565b61212f919350823d841161063f576106308183612405565b91386120f4565b34610355576000366003190112610355576020610da96140b5565b3461035557602036600319011261035557600435600052600c6020526020604060002054604051908152f35b346103555760403660031901126103555760043560046024356121b06121ab6121a53361100b565b54613d6f565b612ef9565b6121c16110886001610e8c866104af565b6121d76121d26001610e8c846104af565b612f3d565b604051602093630f77309360e31b85830152816121f88483602484016112c7565b039461220c601f1996878101855284612405565b8061221b610573600054610386565b604051630536340960e21b815296879182905afa801561064657612275610b8561228e9561227b936100169a60029a6000926122a0575b5060405163d3a3084960e01b88820152939192610b2d9285913060248401612fa4565b926104cf565b9360018501558082518301019101613031565b815501805461ff001916610100179055565b610b2d92506122bb90883d8a1161063f576106308183612405565b91612252565b3461035557602036600319011261035557600435600052600e6020526020604060002054604051908152f35b34610355576040806003193601126103555760043561230b81610392565b60018060a01b031661049b8260008381526004602052818120548152600b602052818120549381526004602052818120548152600a602052818120602435825260205220549251928392836112c7565b346103555760003660031901126103555760206123766142f2565b604051908152f35b634e487b7160e01b600052604160045260246000fd5b606081019081106001600160401b038211176123af57604052565b61237e565b60e081019081106001600160401b038211176123af57604052565b604081019081106001600160401b038211176123af57604052565b602081019081106001600160401b038211176123af57604052565b601f909101601f19168101906001600160401b038211908210176123af57604052565b6001600160401b0381116123af57601f01601f191660200190565b60405190612450826123ea565b60008252565b604051612462816123ea565b60008152906000368137565b6040519061247b826123cf565b60078252666f776e6572282960c81b6020830152565b6040519061249e826123cf565b600c82526b67657448657862617365282960a01b6020830152565b156124c057565b60405162461bcd60e51b81526020600482015260176024820152766e65737465642e696e76616c69642e696e7374616e636560481b6044820152606490fd5b1561250657565b60405162461bcd60e51b81526020600482015260166024820152756e65737465642e696e76616c69642e6865786261736560501b6044820152606490fd5b1561254b57565b60405162461bcd60e51b81526020600482015260186024820152776e65737465642e706172656e742e6e6f742e65786973747360401b6044820152606490fd5b634e487b7160e01b600052601160045260246000fd5b906001820180921161035057565b9190820180921161035057565b546001600160a01b031690565b6002600354146125da576002600355565b604051633ee5aeb560e01b8152600490fd5b156125f357565b60405162461bcd60e51b81526020600482015260126024820152716f776e2e696e76616c69642e69735361666560701b6044820152606490fd5b908160209103126103555751610a2081610392565b6040513d6000823e3d90fd5b1561265557565b60405162461bcd60e51b815260206004820152601b60248201527a6f776e2e6e6f6e617574682e44414f6f725365637572656261736560281b6044820152606490fd5b61270192916127076004926126ab6125c9565b6126cb6126c66126c26001610e8c610ae68861100b565b1590565b6129e5565b6126de6126d9600654612a29565b600655565b6006549586916126f185610bbd856104bf565b826126fb8661100b565b5561100b565b54612c21565b61272582612714866104af565b0180546001600160a01b0319169055565b6020612735610573600054610386565b60405163e09d394d60e01b815293849182905afa801561064657612768612773916127b2946000916127e1575b50612b63565b6005610bd4876104af565b6127816005610aec866104af565b610b2d612792610573600054610386565b6105bd876040519586936352902c5960e01b602086015260248501612a57565b506000828152600760205260409020600501546001600160a01b0316916127d881612d24565b91906001600355565b6127f9915060203d811161063f576106308183612405565b38612762565b60001981019190821161035057565b9190820391821161035057565b6128236142f2565b6002541061283b575b61283960056002546128a4565b565b6128436142f2565b8060025560001981019081116103505761285c90613c38565b61282c565b6128696142f2565b6002541061287e575b612839600280546128a4565b6128866142f2565b8060025560001981019081116103505761289f90613c38565b612872565b906128b1611b09836104df565b5415806129db575b806129d2575b6128c7575050565b6128e3906128dd6128d7846127ff565b916127ff565b906128a4565b6128f7611b096128f2836127ff565b6104df565b54612904611b09836104df565b556129146108ee6128f2836127ff565b546129216108ee836104df565b5561293161090d6128f2836127ff565b5461293e61090d836104df565b5561294e61092f6128f2836127ff565b5461295b61092f836104df565b5561296b6109516128f2836127ff565b54612978610951836104df565b556129886109736128f2836127ff565b54612995610973836104df565b556129a56109956128f2836127ff565b546129b2610995836104df565b556129cf6109b06129c86109b06128f2856127ff565b54926104df565b55565b508015156128bf565b50600182116128b9565b156129ec57565b60405162461bcd60e51b81526020600482015260156024820152746e65737465642e616c72656164792e65786973747360581b6044820152606490fd5b60001981146103505760010190565b80546001600160a01b0319166001600160a01b03909216919091179055565b6001600160a01b03918216815291166020820152604081019190915260600190565b91612ad3600492612ac961270195612a9e6126c66126c26001610e8c610ae68a61100b565b612aac6126d9600654612a29565b600654968791612abf87610bbd856104bf565b826126fb8861100b565b83610bd4866104af565b6020612ae3610573600054610386565b60405163e09d394d60e01b815293849182905afa801561064657612b15612b2091612b5f946000916127e15750612b63565b6005610bd4866104af565b612b2e6005610aec856104af565b610b2d612b3f610573600054610386565b6105bd866040519586936352902c5960e01b602086015260248501612a57565b5090565b6e5af43d82803e903d91602b57fd5bf390763d602d80600a3d3981f3363d3d373d3d3d363d7300000062ffffff8260881c161760005260781b17602052603760096000f0906001600160a01b03821615612bb957565b60405163b06ebf3d60e01b8152600490fd5b634e487b7160e01b600052603260045260246000fd5b8054821015612bf95760005260206000200190600090565b612bcb565b80549190600160401b8310156123af57826111cf91600161283995018155612be1565b919091600092808452602091600783526040808620956002948386890155846001988981018a60ff198254161790555587612c5b866104ef565b83805282528489858520555b612c7657505050505050509050565b612cc3612cbd828b8a9414612ccc575b612c8f886104ef565b8187528552868620612ca181546125a1565b9055612cac886104ff565b612cb681546125a1565b9055612a29565b956104af565b01549384612c67565b612cdb8960036112568b6104af565b612c86565b15612ce757565b60405162461bcd60e51b81526020600482015260156024820152746e65737465642e757365722e6e6f7461637469766560581b6044820152606490fd5b806000526007602052612d4160ff60016040600020015416612ce0565b6000526007602052612d8160018060a01b03600560406000200154166040519062a0e53360e51b60208301526001602483015260248252610b2d82612394565b50565b15612d8b57565b60405162461bcd60e51b81526020600482015260136024820152726e65737465642e7a65726f2e6164647265737360681b6044820152606490fd5b15612dcd57565b60405162461bcd60e51b81526020600482015260146024820152736e65737465642e7461726765742e65786973747360601b6044820152606490fd5b15612e1057565b60405162461bcd60e51b81526020600482015260176024820152766e65737465642e736f757263652e6e6f7445786973747360481b6044820152606490fd5b60405190612e5c826123cf565b601382527255736572546f496e737428616464726573732960681b6020830152565b15612e8557565b60405162461bcd60e51b815260206004820152601b60248201527a6e65737465642e757365722e696e76616c6964696e7374616e636560281b6044820152606490fd5b9190826040910312610355576020825192015190565b6001600160a01b039091168152602081019190915260400190565b15612f0057565b60405162461bcd60e51b81526020600482015260156024820152743732b9ba32b21734b73b30b634b21739b2b73232b960591b6044820152606490fd5b15612f4457565b60405162461bcd60e51b81526020600482015260156024820152741b995cdd19590b9a5b9d985b1a590b9c185c995b9d605a1b6044820152606490fd5b60005b838110612f945750506000910152565b8181015183820152602001612f84565b9291608090600a9260a08652602460a08701527f547269676765722e6e65737465642e70726f706f73616c2e6d6f7665646f776e60c0870152636c696e6560e01b60e087015260018060a01b03166020860152600060408601526101008060608701528151809187015261302281610120936020858a019101612f81565b601f8019910116850101930152565b90816020910312610355575190565b6040519061304d826123cf565b6012825271676574526573756c742875696e743235362960701b6020830152565b5190811515820361035557565b91908260c091031261035557815191602081015191604082015191606081015191610a2060a06130ad6080850161306e565b930161306e565b6130d16130dd916130cc6110886001610e8c846104af565b6104cf565b91600183015414612f3d565b6130eb610573600054610386565b906040518092630536340960e21b825281600460209586935afa908115610646576128399361314c6105bd60029461315994600091613172575b5061313e87546040519384918783019190602083019252565b613146613040565b906144b2565b805181018201910161307b565b50959350505050019060ff801983541691151516179055565b6131899150843d861161063f576106308183612405565b38613125565b1561319657565b60405162461bcd60e51b81526020600482015260166024820152751b995cdd19590b9c995c4b9b9bdd185c1c1c9bdd995960521b6044820152606490fd5b156131db57565b60405162461bcd60e51b81526020600482015260186024820152771b995cdd19590b9d5cd95c8b9b9bdd0b99195d1858da195960421b6044820152606490fd5b1561322257565b60405162461bcd60e51b815260206004820152601b60248201527a1b995cdd19590b9d5cd95c8b985b1c99591e4b99195d1858da1959602a1b6044820152606490fd5b805490811561328f576000199182019161327f8383612be1565b909182549160031b1b1916905555565b634e487b7160e01b600052603160045260246000fd5b604051906132b2826123cf565b600e82526d6c766c62732875696e743235362960901b6020830152565b604051906132dc826123cf565b600f82526e6c766c7174792875696e743235362960881b6020830152565b8015610350576000190190565b60059061331782610aec836104af565b9060409182519161335860209380613336868201906000602083019252565b039361334a601f1995868101845283612405565b6133526132a5565b906145db565b9261339561336987610aec856104af565b86519061338d82613381868201906000602083019252565b03878101845283612405565b6133526132cf565b936133a86133a2846104ff565b546125a1565b93600296876133b6866104af565b0154966001998a98895b6133d4575b50505050505050505050505050565b600f8a1115806135ec575b156135e7578a8d88868d878b886133fc61057382610aec8c6104af565b613423575b5050505050505061341461341c926104af565b015499612a29565b988b6133c0565b866134a39798958a95610b2d956134959995600361345061344a61160198610aec8d6104af565b9a6104af565b015499549351998a9763393a9f9560e01b908901526024880194919260a0949197969360c0870198875260208701526040860152606085015260808401521515910152565b898082518301019101612ec8565b911561356857898d928d925b808211613533575050926134149161350b6135036134e96134d261341c986104ef565b6134db856127ff565b600052602052604060002090565b54926134f4856104ef565b90600052602052604060002090565b9182546125af565b9055613516816104ff565b6135218d82546125af565b90555b9250508d88868d878b88613401565b6134f49350613552925061354990949194612a29565b928391546104df565b61355c81546125a1565b9055898d928d926134af565b898d928d925b8181116135b657505092613414916135996135916134e96134d261341c986104ef565b91825461280e565b90556135a4816104ff565b6135af8d825461280e565b9055613524565b6135dd93508092506134f46135cc9295546104df565b6135d681546127ff565b90556132fa565b898d928d9261356e565b6133c5565b508015156133df565b9061014080838303126103555781601f8401121561035557604051928184016001600160401b038111858210176123af576040528391810192831161035557905b8282106136435750505090565b8151815260209182019101613636565b60405190613660826123cf565b600f82526e66726565496e74657276616c73282960881b6020830152565b6040519061368b826123cf565b60138252726c6576656c496e636f6d654f6e52616e6b282960681b6020830152565b9190916000926136c06105738554610386565b9360409485519063cfbffe5360e01b9384835260209160049383818681855afa9081156106465784916137069188916138e3575b506136fd612456565b90613352613653565b96858b518094819382525afa8015610646576137359186916138c6575b5061372c612456565b9061335261367e565b94849885975b600f891115806138bd575b156138b057868489878e87878f6137646105736005610aec8c6104af565b61378d575b5050505050505050600261377f613787926104af565b015498612a29565b9761373b565b801597881590816138a6575b811561389e575b506137ae575b8e9750613769565b936105bd61383b96948a94610b2d9461382d9860036137da6137d46005610aec8c6104af565b996104af565b01549860029c8d5493519a8b9863645d0aa760e11b908a01526024890193909796959260e0959261010086019986526020860152600060408601526060850152608084015260a083015260c08201520152565b888082518301019101612ec8565b92613895575b8d15613885575b80831161385d5750508489878e87878f6137a6565b61386690612a29565b613874816134f484546104df565b61387e81546125a1565b9055613848565b888310613848579c50819c613848565b9c50819c613841565b90508f6137a0565b8815159150613799565b5050505050505050509050565b50801515613746565b6138dd9150843d861161063f576106308183612405565b38613723565b6138fa9150833d851161063f576106308183612405565b386136f4565b909291926000936139146105738654610386565b6040805163cfbffe5360e01b80825291936004936020939284818781855afa90811561064657859161394f918d916138e357506136fd612456565b938688518094819382525afa801561064657613974918b91613ada575061372c612456565b9589975b600f89111580613ad1575b156138b05760058284878e888c8f8f6139a26105738a610aec8d6104af565b6139c4575b505050505050505050600261377f6139be926104af565b97613978565b811598891580613ac8575b8015613abf575b6139e1575b506139a7565b948a94610b2d9461382d98946105bd946003613a0761344a613a5b9e9c610aec8d6104af565b01549960029d8e5494519b8c9963645d0aa760e11b908b015260248a0194919260e0969399989794919961010087019a8752602087015260408601526060850152608084015260a083015260c08201520152565b92613ab6575b8d15613aa6575b808311613a7e575084878e888c8f8f8a976139db565b613a8790612a29565b613a95816134f484546104df565b613a9f81546125a1565b9055613a68565b888310613a68579c50819c613a68565b9c50819c613a61565b508715156139d6565b508815156139cf565b50801515613983565b6138dd9150853d871161063f576106308183612405565b15613af857565b60405162461bcd60e51b81526020600482015260126024820152716e65737465642e696e76616c69642e61676560701b6044820152606490fd5b60405190613b3f826123cf565b60188252776765744261746368526f79616c7479436c6175736573282960401b6020830152565b6102a09081818403126103555782601f82011215610355576040805193613b8c856123b4565b849383019281841161035557935b838510613ba957505050505090565b606085830312610355578251606091613bc182612394565b8651825260209182880151838201528588015186820152815201940193613b9a565b906007811015612bf95760051b0190565b908160640291606483040361035057565b8181029291811591840414171561035057565b8115613c22570490565b634e487b7160e01b600052601260045260246000fd5b613c43811515613af1565b613c51610573600054610386565b90604051809263cfbffe5360e01b825281600460209586935afa90811561064657613ca791613c9991600091613d52575b50613c8b613b32565b613c93612443565b916144b2565b838082518301019101613b66565b613cbb82600052600c602052604060002090565b5460015b6007811115613ccf575050505050565b80613ce0613d3e926134f4876104df565b548015613d4c57613cf9613cf3836127ff565b86613be3565b51878151928315613d4357613d20613d2592613d18613d2b968a613c05565b940151613bf4565b613c05565b90613c18565b613d38826134f48861049f565b55612a29565b613cbf565b50505050612a29565b50612a29565b613d699150853d871161063f576106308183612405565b38613c82565b600052600760205260ff6001604060002001541690565b604051906101008083016001600160401b038111848210176123af57604052368337565b60025480600052600c60205260406000205491820180921161035057600052600c602052604060002055565b60025480600052600d60205260406000205491820180921161035057600052600d602052604060002055565b60025480600052600e60205260406000205491820180921161035057600052600e602052604060002055565b60025480600052600f602052604060002054906001820180921161035057600052600f602052604060002055565b9080600052600c60205260406000205491820180921161035057600052600c602052604060002055565b9080600052600e60205260406000205491820180921161035057600052600e602052604060002055565b9080600052600f60205260406000205491820180921161035057600052600f602052604060002055565b60405190613ee7826123cf565b6014825273676574627573696e6573732875696e743235362960601b6020830152565b60405190613f17826123cf565b601d82527f67657472616e6b436f756e742875696e743235362c75696e74323536290000006020830152565b600090613f536105738354610386565b91604092835192839163111ea8c160e21b835282600460209485935afa93841561064657839461403a575b505b85811115613f9057505050505050565b8451828101828152819003808252601f1991613fc191613fb39060200182612405565b613fbb613eda565b876145db565b613fd861350384600052600c602052604060002090565b9055835b60088110613ff4575050613fef90612a29565b613f80565b61403590614028885161401a8161400e85898b84016112c7565b03868101835282612405565b614022613f0a565b896145db565b613d38826134f4876104df565b613fdc565b614052919450823d841161063f576106308183612405565b9238613f7e565b1561406057565b60405162461bcd60e51b81526020600482015260196024820152781bdddb8b9cd8599959dd585c990b98d85b1b0b99985a5b1959603a1b6044820152606490fd5b9081602091031261035557610a209061306e565b600054604051634bf9c0ad60e11b8152906020908190839060049082906001600160a01b03165afa91821561064657610a209261412b91600091614146575b50604051614101816123cf565b6008815267697353616665282960c01b8482015260405191614122836123ea565b600083526144dd565b91908061413c575b6105ea90614059565b5081518114614133565b61415d9150833d851161063f576106308183612405565b386140f4565b60405190614170826123cf565b601582527469735365637572654261736528616464726573732960581b6020830152565b1561419b57565b60405162461bcd60e51b815260206004820152601a6024820152791bdddb8b9cd958dd5c9958985cd94b98d85b1b0b99985a5b195960321b6044820152606490fd5b6000546141f2906001600160a01b0316610386565b604051918291634bf9c0ad60e11b835282600460209485935afa92831561064657610a2093614242926105bd9260009261425d575b5061423a906040519384918783016103a3565b6105d3614163565b919080614253575b6105ea90614194565b508151811461424a565b61423a91925061427990863d881161063f576106308183612405565b9190614227565b6040519061428d826123cf565b601182527069735369676e657228616464726573732960781b6020830152565b156142b457565b60405162461bcd60e51b81526020600482015260166024820152751bdddb8b9cda59db995c8b98d85b1b0b99985a5b195960521b6044820152606490fd5b60005460405163111ea8c160e21b815290602090829060049082906001600160a01b03165afa801561064657610a209160009161435f575b50604051614337816123cf565b6005815264616765282960d81b602082015260405191614356836123ea565b600083526145db565b614377915060203d811161063f576106308183612405565b3861432a565b6040519061438a826123cf565b6018825277697364656c656761746f724e6f646528616464726573732960401b6020830152565b3d156143dc573d906143c282612428565b916143d06040519384612405565b82523d6000602084013e565b606090565b600080546040516311be646b60e21b815290602090829060049082906001600160a01b03165afa908115610646578284819382938391614494575b505af16144276143b1565b501561445d5760405190815233907fcdcc745fe377b103b45fa0cec23ae3ef93d6fc6a84a01f0d18c40b354dd1d5d890602090a2565b60405162461bcd60e51b815260206004820152600f60248201526e1bdddb8b989d5c9b8b99985a5b1959608a1b6044820152606490fd5b6144ac915060203d811161063f576106308183612405565b3861441c565b906144bd92916144dd565b90600090156144ca575090565b60405191506144d8826123ea565b815290565b803b1561454257600092839263ffffffff60e01b9060208151910120169061452f602460405180936020820195865261451f8151809260208686019101612f81565b8101036004810184520182612405565b5191620dbba0fa61453e6143b1565b9091565b505050600090604051614554816123ea565b6000815290565b9291614569916000946144dd565b9080614594575b6145775750565b909150602081805181010312610355576020015161038681610392565b506020815114614570565b92916145ad916000946144dd565b90806145d0575b6145bb5750565b610a20919250602080825183010191016140a1565b5060208151146145b4565b92916145e9916000946144dd565b908061460c575b6145f75750565b610a2091925060208082518301019101613031565b5060208151146145f0565b906020825192015163ffffffff60e01b90818116936004811061463957505050565b60040360031b82901b16169150565b6001600160a01b038116156146c957600080918351908260208601915af19061466f6143b1565b9115614679575090565b8051600091906004116146c3576146909150614617565b8151156146a05750805190602001fd5b604051630870274d60e21b81526001600160e01b03199091166004820152602490fd5b50614690565b60405162461bcd60e51b81526020600482015260126024820152711bdddb8b9a5b9d985b1a590b9d185c99d95d60721b6044820152606490fdfea2646970667358221220cf034d520098a80342691959fce0f9900bbc676dc2e3c6d456162b53cb28546164736f6c63430008140033","linkReferences":{}},"methodIdentifiers":{"dAOAssembly()":"14837455","daocore()":"14d8d024","nested741()":"45cff900","old741()":"5540c5ac","price()":"a035b1fe"},"id":34}