{"abi":[{"type":"constructor","inputs":[{"name":"_hex","type":"address","internalType":"address"}],"stateMutability":"nonpayable"},{"type":"function","name":"rule741","inputs":[],"outputs":[{"name":"","type":"address","internalType":"address"}],"stateMutability":"view"},{"type":"function","name":"transferRequest","inputs":[],"outputs":[{"name":"","type":"address","internalType":"address"}],"stateMutability":"view"}],"bytecode":{"object":"0x60803461012157601f61592d38819003918201601f19168301926001600160401b039290918385118386101761010b57816020928492604097885283398101031261012157516001600160a01b039081811690819003610121578351906138a391828101928184108685111761010b5761208a823981835260208160009403019083f09384156101015782549484166001600160a01b0319958616178355855191611eaa80840192848410908411176100ed579183916020936101e08439815203019082f09081156100e25750169060015416176001555160b990816101278239f35b8451903d90823e3d90fd5b634e487b7160e01b85526041600452602485fd5b85513d84823e3d90fd5b634e487b7160e01b600052604160045260246000fd5b600080fdfe6080806040526004361015601257600080fd5b600090813560e01c9081630a5b38ab14605d5750633da8676f14603457600080fd5b34605a5780600319360112605a576001546040516001600160a01b039091168152602090f35b80fd5b905034607f5781600319360112607f5790546001600160a01b03168152602090f35b5080fdfea264697066735822122091c443bceb2bfef50f0ddff900f95c14aafca3f110c2a8e10db01de4b5aa0d5564736f6c6343000814003360803461009757601f611eaa38819003918201601f19168301916001600160401b0383118484101761009c5780849260209460405283398101031261009757516001600160a01b038116908190036100975780156100855760018060a01b03193381600154161760015560005416176000556001600255604051611df790816100b38239f35b60405163e6c4247b60e01b8152600490fd5b600080fd5b634e487b7160e01b600052604160045260246000fdfe60806040526004361015610018575b361561001657005b005b60003560e01c806312065fe01461019857806318c864e3146101935780631f185d161461018e5780633676bd1f146101895780633b9b795514610184578063479fa2c31461017f5780634ef260a91461017a5780638da5cb5b146101755780639fb3953b14610170578063a1f7f5391461016b578063ab7e46ae14610166578063ac23334514610161578063af4845261461015c578063b8f1759a14610157578063b90306ad14610152578063c1e6cec21461014d578063c54e44b014610148578063cab3cc8d14610143578063e01ad5fd1461013e578063e0a9bc2b14610139578063e846034a14610134578063e84adc131461012f578063e981bcad1461012a5763fdc10bc90361000e57610dcd565b610d11565b610bae565b610b90565b610b12565b610a73565b610a55565b6109e7565b6109aa565b6108fe565b6108b5565b610884565b61084b565b610802565b610730565b6105b5565b61058c565b6104cc565b610412565b6103e9565b6103ab565b610296565b610229565b346101b45760003660031901126101b457602047604051908152f35b600080fd5b634e487b7160e01b600052603260045260246000fd5b6004548110156101ee57600460005260206000209060021b0190600090565b6101b9565b6001600160a01b031690565b6001600160a01b039182168152911660208201526040810191909152901515606082015260800190565b346101b45760203660031901126101b4576004356004548110156101b457610250906101cf565b5060018060a01b0361028181835416916001840154169260ff600360028301549201541690604051948594856101ff565b0390f35b6001600160a01b038116036101b457565b346101b4576020806003193601126101b4576004356102b481610285565b6004826102ca6102c56000546101f3565b6101f3565b604051634bf9c0ad60e11b815292839182905afa80156103a6576103239261030792600092610373575b50610315906040519384918783016103d6565b03601f198101845283610efe565b61031d6119e8565b90611ba5565b919080610369575b156103575781816103459261028194518301019101611900565b60405190151581529081906020820190565b604051633204506f60e01b8152600490fd5b508082511461032b565b61031591925061039890863d881161039f575b6103908183610efe565b810190610f67565b91906102f4565b503d610386565b610f7f565b346101b45760203660031901126101b4576103c4611824565b6103cf60043561143e565b6001600255005b6001600160a01b03909116815260200190565b346101b45760003660031901126101b4576000546040516001600160a01b039091168152602090f35b346101b45760203660031901126101b457600435801515806104c0575b156104815761044061044591611067565b6101cf565b5061045081546101f3565b61028161046060018401546101f3565b926104746003600283015492015460ff1690565b90604051948594856101ff565b60405162461bcd60e51b81526020600482015260176024820152761c1c9bdc1bdcd95c8b9a5b9d985b1a590b999bdc9b5a59604a1b6044820152606490fd5b5060045481111561042f565b346101b45760203660031901126101b4576004356104e981610285565b6001600160a01b039081166000818152600360205260408120549092919080151580610580575b610518578380f35b600019810190811161057b5761052d906101cf565b5050808352600360205260408320839055600554600160401b8110156105765780600161055d92016005556107e7565b909283549160031b92831b921b19161790553880808380f35b610e60565b611051565b50600454811115610510565b346101b45760003660031901126101b4576001546040516001600160a01b039091168152602090f35b60803660031901126101b4576004356105cd81610285565b6105d5611824565b6105e36102c56000546101f3565b60405163ab6e844f60e01b815291906020908184600481845afa9384156103a65760009461070c575b50816004916040519283809263de433f1760e01b82525afa9081156103a65761066c9161064a916000916106ef575b506040519182918583016103d6565b039461065e601f1996878101845283610efe565b6106666118aa565b90611c20565b906001600160a01b038216610686575b6100166001600255565b604051636083c98560e11b918101919091526001600160a01b0390921660248084019190915235604480840191909152356064808401919091523560848301526106e5926106e0908360a481015b03908101845283610efe565b611d0d565b503880808061067c565b6107069150843d861161039f576103908183610efe565b3861063b565b60049194506107288391823d841161039f576103908183610efe565b94915061060c565b346101b45760003660031901126101b45760005460405163d1f956b160e01b815290602090829060049082906001600160a01b03165afa9081156103a657610281916107b9916000916107c9575b5060405161078b81610ec8565b601381527267657464656c656761746f72436f756e74282960681b60208201526107b3610f3c565b91611ca0565b6040519081529081906020820190565b6107e1915060203d811161039f576103908183610efe565b3861077e565b6005548110156101ee57600560005260206000200190600090565b346101b45760203660031901126101b4576004356005548110156101b4576005600052600080516020611da283398151915201546040516001600160a01b039091168152602090f35b346101b45760203660031901126101b457602061087260043561086d81610285565b6110d2565b6040516001600160a01b039091168152f35b346101b45760203660031901126101b45760206108ab6004356108a681610285565b611945565b6040519015158152f35b346101b45760203660031901126101b4576004356005548110156101ee576005600052600080516020611da283398151915201546040516001600160a01b039091168152602090f35b346101b45760203660031901126101b457600460018060a01b03602061092782600054166101f3565b604051630536340960e21b815293849182905afa9182156103a657600092610970575b503391160361095e57610016600435611a79565b60405163ea8e4eb560e01b8152600490fd5b61098991925060203d811161039f576103908183610efe565b903861094a565b6001600160a01b0316600090815260036020526040902090565b346101b45760203660031901126101b4576004356109c781610285565b60018060a01b031660005260036020526020604060002054604051908152f35b346101b45760203660031901126101b457600435610a0481610285565b803b6000610a1182610f21565b92610a1f6040519485610efe565b82845260208401903c602d815110610a4357602a602091015160601c604051908152f35b60405163baf3f0f760e01b8152600490fd5b346101b45760003660031901126101b4576020600454604051908152f35b346101b4576020806003193601126101b45760048035610a9281610285565b60005460405163d1f956b160e01b81526001600160a01b03949093909182918591829088165afa9081156103a6576102819461034594600093610af3575b506040519316818401528252610ae582610ec8565b610aed611a15565b90611c64565b610b0b919350823d841161039f576103908183610efe565b9138610ad0565b346101b45760003660031901126101b457610b316102c56000546101f3565b6040518091634bf9c0ad60e11b825281600460209485935afa80156103a65761032391600091610b73575b50610b656118dc565b610b6d610f3c565b91611ba5565b610b8a9150833d851161039f576103908183610efe565b38610b5c565b346101b45760003660031901126101b4576020600554604051908152f35b346101b4576040806003193601126101b45760043590610bcd82610285565b6001600160a01b03821615610d01576000913383526020916003835280842054610cc957610c04610bfc610e76565b509283610ea9565b60046001830193610c153386610ea9565b610c1d610f4f565b81610c2b6102c589546101f3565b8551630536340960e21b815294859182905afa9283156103a657600294610c8c94610c7f93610307938b92610ca8575b506106e0919251938491630ffa734f60e41b88840152602435903060248501610fae565b8051810182019101611042565b910155610ca4610c9f60045492546101f3565b610990565b5580f35b6106e09250610cc390873d891161039f576103908183610efe565b91610c5b565b5162461bcd60e51b815260048101839052601260248201527170726f706f7365722e746f2e65786973747360701b6044820152606490fd5b5163e6c4247b60e01b8152600490fd5b346101b45760403660031901126101b457610d2a611824565b610d3b610d3630611945565b611227565b60046020610d4d6102c56000546101f3565b60405163ab6e844f60e01b815292839182905afa80156103a657610da491600091610daf575b506040516333b59a5b60e01b6020820152600435602480830191909152356044820152906106e08260648101610307565b506100166001600255565b610dc7915060203d811161039f576103908183610efe565b38610d73565b346101b45760003660031901126101b45760005460405163111ea8c160e21b815290602090829060049082906001600160a01b03165afa9081156103a657610281916107b991600091610e42575b50604051610e2881610ec8565b6005815264616765282960d81b60208201526107b3610f3c565b610e5a915060203d811161039f576103908183610efe565b38610e1b565b634e487b7160e01b600052604160045260246000fd5b600454600160401b8110156105765760018101806004558110156101ee57600460005260206000209060021b0190600090565b80546001600160a01b0319166001600160a01b03909216919091179055565b604081019081106001600160401b0382111761057657604052565b602081019081106001600160401b0382111761057657604052565b601f909101601f19168101906001600160401b0382119082101761057657604052565b6001600160401b03811161057657601f01601f191660200190565b60405190610f4982610ee3565b60008252565b604051610f5b81610ee3565b60008152906000368137565b908160209103126101b45751610f7c81610285565b90565b6040513d6000823e3d90fd5b60005b838110610f9e5750506000910152565b8181015183820152602001610f8e565b60009260a09295949560c08352602660c08401527f547269676765722e496e7374616e63652e70726f706f73616c2e55736572547260e08401526530b739b332b960d11b610100840152600180851b031660208301528360408301526101208060608401528151809184015261102e816101409360208587019101610f8b565b601f80199101168201019460808201520152565b908160209103126101b4575190565b634e487b7160e01b600052601160045260246000fd5b60001981019190821161057b57565b6040519061108382610ec8565b60128252716765745374617475732875696e743235362960701b6020830152565b519081151582036101b457565b91908260409103126101b457610f7c60206110cb846110a4565b93016110a4565b6110db90610990565b54801515806111d0575b156111ca576104406110f691611067565b50600381015460ff166111c0576111116102c56000546101f3565b6040518091630536340960e21b825281600460209384935afa80156103a65761030761116d9161117a946000916111a3575b5061115f60028701546040519384918783019190602083019252565b611167611076565b90611b7a565b80518101820191016110b1565b8192919261119b575b506000911561119757610f7c9150546101f3565b5090565b915038611183565b6111ba9150843d861161039f576103908183610efe565b38611143565b610f7c90546101f3565b50600090565b506004548111156110e5565b156111e357565b60405162461bcd60e51b815260206004820152601c60248201527b1d5d1a5b1a5d1e4b98985d18da0b9b1a5b5a5d0b995e18d95959195960221b6044820152606490fd5b1561122e57565b60405162461bcd60e51b81526020600482015260176024820152761d5d1a5b1a5d1e4b9d5b9cd958dd5c994b99985a5b1959604a1b6044820152606490fd5b6040519061127a82610ec8565b600f82526e6765744e6f646573436f756e74282960881b6020830152565b1561129f57565b60405162461bcd60e51b81526020600482015260136024820152727574696c6974792e696d706f72742e646f6e6560681b6044820152606490fd5b9190820180921161057b57565b600019811461057b5760010190565b6040519061130382610ec8565b60178252766765744e6f64654279496e6465782875696e743235362960481b6020830152565b1561133057565b60405162461bcd60e51b815260206004820152601660248201527570726f78792e696e76616c69642e696e7374616e636560501b6044820152606490fd5b6040519061137b82610ec8565b6013825272496e7374546f5573657228616464726573732960681b6020830152565b156113a457565b60405162461bcd60e51b815260206004820152601260248201527170726f78792e696e76616c69642e6e6f646560701b6044820152606490fd5b604051906113eb82610ec8565b601082526f6765744e6f646528616464726573732960801b6020830152565b908160a09103126101b457805191602082015161142681610285565b91604081015191610f7c60806110cb606085016110a4565b61144b60648211156111dc565b611457610d3630611945565b6000906114676102c583546101f3565b6040805163111ea8c160e21b808252600495939092916020919082818981855afa80156103a6576114b191879161180d575b506114a2610f4f565b906114ab61126d565b90611ca0565b95861561180357835183818a8163ab6e844f60e01b968782525afa9081156103a6576114fc916114ea9189916117e657506114a2610f4f565b916114f6838a11611298565b826112da565b968088116117de575b505b868110611518575050505050505050565b6115256102c587546101f3565b90845186815284818b81865afa9283156103a6578a9189946117bf575b5061157687518061155a868a83019190602083019252565b039561156e601f1997888101845283610efe565b6106666112f6565b6001600160a01b039061158c8183161515611329565b87895180958c825281865afa9384156103a657818a8f968b8f946115d8959261179a575b506115c46115d092935194859283016103d6565b038a8101845283610efe565b61066661136e565b926115e6838516151561139d565b888a5180968d825281845afa80156103a6576116488f966116268f6001948f91978f989461163a9592611779575b506116329192519384918a83016103d6565b038d8101845283610efe565b6111676113de565b84808251830101910161140a565b505050949094169361165b81151561139d565b148015611770575b611705575b50506116748280611845565b866116826102c58c546101f3565b8951948580928a82525afa80156103a6576116df956116d9948c926116e4575b5089516350db85d160e01b8a8201526001600160a01b039384166024820152939092166044840152906106e09083606481016106d4565b506112e7565b611507565b6106e092506116ff908a3d8c1161039f576103908183610efe565b916116a2565b8951948580928d82525afa9283156103a6578c936117469261173a928d9261174d575b506115d0908b519384918c83016103d6565b03888101845283610efe565b8638611668565b6115d0919250611769908b3d8d1161039f576103908183610efe565b9190611728565b50821515611663565b6116329250611794908a3d8c1161039f576103908183610efe565b91611614565b6115d092506117b86115c491833d851161039f576103908183610efe565b92506115b0565b6117d7919450863d881161039f576103908183610efe565b9238611542565b965038611505565b6117fd9150863d881161039f576103908183610efe565b38611499565b5050505050505050565b6117fd9150843d861161039f576103908183610efe565b60028054146118335760028055565b604051633ee5aeb560e01b8152600490fd5b60045490600160401b8210156105765761187261186a836001600395016004556101cf565b509182610ea9565b61187f8360018301610ea9565b01805460ff191660011790556004546001600160a01b03909116600090815260036020526040902055565b604051906118b782610ec8565b601682527567657455736572546f496e737428616464726573732960501b6020830152565b604051906118e982610ec8565b6008825267697353616665282960c01b6020830152565b908160209103126101b457610f7c906110a4565b6040519061192182610ec8565b601582527469735365637572654261736528616464726573732960581b6020830152565b6119536102c56000546101f3565b906040518092634bf9c0ad60e11b825281600460209586935afa80156103a65761199e92610307926000926119c5575b50611996906040519384918783016103d6565b61031d611914565b90806119bb575b156103575781610f7c9282518301019101611900565b50818151146119a5565b6119969192506119e190863d881161039f576103908183610efe565b9190611983565b604051906119f582610ec8565b601182527069735369676e657228616464726573732960781b6020830152565b60405190611a2282610ec8565b6018825277697364656c656761746f724e6f646528616464726573732960401b6020830152565b3d15611a74573d90611a5a82610f21565b91611a686040519384610efe565b82523d6000602084013e565b606090565b6000611a886102c582546101f3565b9060405180926311be646b60e21b825281600460209586935afa80156103a65782808681949382948391611b5d575b505af1611ac2611a49565b501561035757600482611ad86102c584546101f3565b604051635e09dbe760e01b815292839182905afa9081156103a6577fcdcc745fe377b103b45fa0cec23ae3ef93d6fc6a84a01f0d18c40b354dd1d5d893611b3b9392611b40575b50506040519384526001600160a01b0316929081906020820190565b0390a2565b611b569250803d1061039f576103908183610efe565b3880611b1f565b611b749150883d8a1161039f576103908183610efe565b38611ab7565b90611b859291611ba5565b9060009015611b92575090565b6040519150611ba082610ee3565b815290565b803b15611c0757600092839263ffffffff60e01b90602081519101201690611bf76024604051809360208201958652611be78151809260208686019101610f8b565b8101036004810184520182610efe565b51915afa611c03611a49565b9091565b505050600090604051611c1981610ee3565b6000815290565b9291611c2e91600094611ba5565b9080611c59575b611c3c5750565b9091506020818051810103126101b457602001516101f381610285565b506020815114611c35565b9291611c7291600094611ba5565b9080611c95575b611c805750565b610f7c91925060208082518301019101611900565b506020815114611c79565b9291611cae91600094611ba5565b9080611cd1575b611cbc5750565b610f7c91925060208082518301019101611042565b506020815114611cb5565b906020825192015163ffffffff60e01b908181169360048110611cfe57505050565b60040360031b82901b16169150565b6001600160a01b03811615611d8f57600080918351908260208601915af190611d34611a49565b9115611d3e575090565b805160009190600411611d8957611d559150611cdc565b815115611d655750805190602001fd5b604051630870274d60e21b81526001600160e01b0319919091166004820152602490fd5b50611d55565b60405163e6c4247b60e01b8152600490fdfe036b6384b5eca791c62761152d0c79bb0604c104a5fb6f4eb0703f3154bb3db0a264697066735822122049100cca052c8055b2b1b73995d1bba39b8a51ad3b3c470dc05020e3283bf39c64736f6c6343000814003360803462000b24576001600160401b0390601f620038a338819003918201601f19168301918483118484101762000afc5780849260209460405283398101031262000b2457516001600160a01b0381169081900362000b2457801562000b125760018060a01b031933816001541617600155600054161760005560a760155561010e601655601e601a556001601b556001601c556002601d5561c350601e55610258601f556003602055601960215568878678326eac900000602255670de0b6b3a764000060235569021e19e0c9bab24000006024556001602555600360265560016027556007602855600560355560ff19603654166036556040519060e08201908282109082111762000afc576102589160c0916040526002815260646020820152600160408201526023606082015260646080820152600160a0820152015260026006556064600755600160085560236009556064600a556001600b55610258600c5560b460606200017262000b69565b60198152600a6020820152605a604082015201526019600d55600a600e55605a600f5560b4601055620001a462000b69565b600581526001602082015260b460606101689283604082015201526005601155600160125560135560b460145560016080620001df62000b29565b6003815282602082015282604082015282606082015201526003601755630101010163ffffffff1960185416176018556200021962000b69565b610258606061014092838152600b6020820152600a60408201520152602955600b602a55600a602b55610258602c5561025860606200025762000b69565b60d28152600b6020820152600a6040820152015260d2602d55600b602e55600a602f55610258603055600760606200028e62000b69565b60038152600160208201526001604082015201526003603155600160325560016033556007603455620002f9620002c462000b29565b6000815260006020820152600060408201526000606082015261270f6080820152600080526003602052604060002062000b9f565b6200033d6200030762000b29565b6007815260196020820152600060408201526000606082015261270f608082015260016000526003602052604060002062000b9f565b620003816200034b62000b29565b6007815260646020820152600060408201526000606082015261270f608082015260026000526003602052604060002062000b9f565b620003c56200038f62000b29565b600781526101f460208201526003604082015260006060820152601e608082015260036000526003602052604060002062000b9f565b62000409620003d362000b29565b600781526107d060208201526004604082015260036060820152601e608082015260046000526003602052604060002062000b9f565b6200044e6200041762000b29565b600781526113886020820152600460408201526004606082015261270f608082015260056000526003602052604060002062000b9f565b620004936200045c62000b29565b600781526127106020820152600460408201526004606082015261270f608082015260066000526003602052604060002062000b9f565b620004d8620004a162000b29565b600781526161a86020820152600460408201526004606082015261270f608082015260076000526003602052604060002062000b9f565b6200051b620004e662000b29565b600081526006602082015260016040820152600560608201526001608082015260016000526005602052604060002062000b9f565b6200055e6200052962000b29565b600081526003602082015260016040820152600560608201526001608082015260026000526005602052604060002062000b9f565b620005a16200056c62000b29565b60028152600f6020820152600a6040820152600560608201526001608082015260036000526005602052604060002062000b9f565b620005e4620005af62000b29565b60028152600f6020820152600a6040820152600560608201526001608082015260046000526005602052604060002062000b9f565b62000627620005f262000b29565b60028152600f6020820152600a6040820152600560608201526001608082015260056000526005602052604060002062000b9f565b6200066a6200063562000b29565b60028152604b60208201526064604082015260fa60608201526064608082015260066000526005602052604060002062000b9f565b620006ad6200067862000b29565b60028152604b60208201526064604082015260fa60608201526064608082015260076000526005602052604060002062000b9f565b620006f0620006bb62000b29565b60028152604b60208201526064604082015260fa60608201526064608082015260086000526005602052604060002062000b9f565b62000733620006fe62000b29565b60028152604b60208201526064604082015260fa60608201526064608082015260096000526005602052604060002062000b9f565b620007766200074162000b29565b60028152604b60208201526064604082015260fa606082015260646080820152600a6000526005602052604060002062000b9f565b620007b96200078462000b29565b60028152604b60208201526064604082015260fa606082015260646080820152600b6000526005602052604060002062000b9f565b620007fc620007c762000b29565b60028152604b60208201526064604082015260fa606082015260646080820152600c6000526005602052604060002062000b9f565b6200083f6200080a62000b29565b60028152604b60208201526064604082015260fa606082015260646080820152600d6000526005602052604060002062000b9f565b620008826200084d62000b29565b60028152604b60208201526064604082015260fa606082015260646080820152600e6000526005602052604060002062000b9f565b620008c56200089062000b29565b60028152604b60208201526064604082015260fa606082015260646080820152600f6000526005602052604060002062000b9f565b620008cf62000b49565b60128152600a6020808301918252602d604084019081526003600052600490915291517f2e174c10e159ea99b867ce3205125c24a42d128804e4070ed6fcc8cc98166aa055517f2e174c10e159ea99b867ce3205125c24a42d128804e4070ed6fcc8cc98166aa155517f2e174c10e159ea99b867ce3205125c24a42d128804e4070ed6fcc8cc98166aa2556200096462000b49565b60128152600a6020808301918252605a604084019081526005600052600490915291517f04cde762ef08b6b6c5ded8e8c4c0b3f4e5c9ad7342c88fcc93681b4588b73f0555517f04cde762ef08b6b6c5ded8e8c4c0b3f4e5c9ad7342c88fcc93681b4588b73f0655517f04cde762ef08b6b6c5ded8e8c4c0b3f4e5c9ad7342c88fcc93681b4588b73f0755620009f962000b49565b60098152600a602080830182815261270f604080860191825260076000908152600480865296517fbeb3bad75134cb432e5707980e3245c52c5998a1125ee30f2f0dbf3925b1e5515592517fbeb3bad75134cb432e5707980e3245c52c5998a1125ee30f2f0dbf3925b1e5525590517fbeb3bad75134cb432e5707980e3245c52c5998a1125ee30f2f0dbf3925b1e55355600290925260327f679795a0195a1b76cdebb7c51d74e058aee92919b8c3389af86ef24535e8a28c55929092526101f47fee60d0579bcffd98e668647d59fec1ff86a7fb340ce572e844f234ae73a6918f556005600f55601381905560a760155560165551612cd4908162000bcf8239f35b634e487b7160e01b600052604160045260246000fd5b60405163e6c4247b60e01b8152600490fd5b600080fd5b6040519060a082016001600160401b0381118382101762000afc57604052565b60405190606082016001600160401b0381118382101762000afc57604052565b60405190608082016001600160401b0381118382101762000afc5760405260006060838281528260208201528260408201520152565b90608060049180518455602081015160018501556040810151600285015560608101516003850155015191015556fe60806040526004361015610018575b361561001657005b005b60003560e01c806304ce9f80146104885780630609a0e31461048357806307175c831461047e57806309307c62146104795780630b225f1a146104745780630ea0d2221461046f57806312065fe01461046a57806314be92a51461046557806315a544ed146104605780631605aed91461045b57806316f0115b14610456578063179b570a14610451578063192b48ee1461044c5780631ef6a864146104475780631f185d1614610442578063203bab661461043d57806326c5adae14610438578063298fc460146104335780633688236d1461042e5780633b9b7955146104295780634151331d14610424578063438fe1921461041f57806344ec16bc1461041a5780634b62954f1461041557806353423e8614610410578063541d76671461040b57806354541683146104065780635640dbfc14610401578063592a02a8146103fc5780635962205f146103f75780635a0e9038146103f2578063622fe2ed146103ed57806368400cb3146103e85780636c7deb5d146103e35780636f092c5e146103de5780637687e371146103d957806378ef376f146103d45780637bc908c6146103cf578063840bbc1e146103ca5780638da5cb5b146103c557806391fc8aa8146103c05780639319d0b5146103bb57806395cea094146103b65780639d80ab9b146103b15780639eb8b44e146103ac5780639f70207d146103a7578063a19841dd146103a2578063a1f7f5391461039d578063a88fcea614610398578063aebcd32a14610393578063af0b21d31461038e578063af48452614610389578063b338677514610384578063b49c064c1461037f578063b85f1f8d1461037a578063b90306ad14610375578063c54e44b014610370578063c5a136d41461036b578063dbad649c14610366578063e01ad5fd14610361578063e0a9bc2b1461035c578063e19a5bcf14610357578063eddd0d9c14610352578063f27c35c61461034d578063f2a6bbc714610348578063f4fe8e3c14610343578063f5de7bd21461033e578063f7a9783e14610339578063fbfa77cf14610334578063fc0e74d11461032f5763fdc10bc90361000e5761229d565b61227a565b61224c565b6121e9565b612138565b612090565b611feb565b611f47565b611ea2565b611dfe565b611de3565b611d44565b611d26565b611c78565b611c0a565b611b8a565b611b5c565b611b39565b611b1b565b611aea565b611acc565b611a83565b611a65565b6119be565b611990565b611972565b61179b565b611728565b61170a565b611665565b611647565b61161e565b6115a2565b611584565b6114df565b611423565b6113f7565b611352565b611334565b61125d565b61122f565b6111e6565b61111e565b6110a6565b611088565b611014565b610ff7565b610f4c565b610ea7565b610e89565b610e46565b610e1d565b610dec565b610d30565b610c6c565b610bb5565b610aba565b610a05565b61093e565b610893565b610842565b610824565b610806565b610761565b610745565b610727565b610709565b61065e565b610640565b610559565b6104a9565b9094939260609260808301968352602083015260408201520152565b346105545760403660031901126105545760008080806024356004356001811461051e575b6002146104ec575b50906104e8916040519485948561048d565b0390f35b6011546012546013546015549297509095506104e89450925011610516576016545b9290916104d6565b60145461050e565b935093505050600d5491600e54600f549180601554111560001461054a5760026016545b9490506104ce565b6002601054610542565b600080fd5b3461055457602036600319011261055457610579610575612477565b1590565b61062e5761058633612554565b80156105af575b1561059d57610016600435601a55565b60405163ea8e4eb560e01b8152600490fd5b50600460206105c76105c2600054612330565b612330565b604051630536340960e21b815292839182905afa908115610629576000916105fb575b506001600160a01b0316331461058d565b61061c915060203d8111610622575b61061481836123de565b810190612401565b386105ea565b503d61060a565b612419565b604051634ee2123760e11b8152600490fd5b34610554576000366003190112610554576020602154604051908152f35b346105545760403660031901126105545761067a610575612477565b61062e5761068733612554565b80156106a4575b1561059d57610016602435600435602355602455565b50600460206106b76105c2600054612330565b604051630536340960e21b815292839182905afa908115610629576000916106eb575b506001600160a01b0316331461068e565b610703915060203d81116106225761061481836123de565b386106da565b34610554576000366003190112610554576020603554604051908152f35b34610554576000366003190112610554576020601f54604051908152f35b3461055457600036600319011261055457602047604051908152f35b346105545760203660031901126105545761077d610575612477565b61062e5761078a33612554565b80156107a1575b1561059d57610016600435601f55565b50600460206107b46105c2600054612330565b604051630536340960e21b815292839182905afa908115610629576000916107e8575b506001600160a01b03163314610791565b610800915060203d81116106225761061481836123de565b386107d7565b34610554576000366003190112610554576020602454604051908152f35b34610554576000366003190112610554576020602354604051908152f35b346105545760003660031901126105545760e0600654600754600854600954600a5490600b5492600c5494604051968752602087015260408601526060850152608084015260a083015260c0820152f35b34610554576040366003190112610554576108af610575612477565b61062e576108bc33612554565b80156108d9575b1561059d57610016602435600435601555601655565b50600460206108ec6105c2600054612330565b604051630536340960e21b815292839182905afa90811561062957600091610920575b506001600160a01b031633146108c3565b610938915060203d81116106225761061481836123de565b3861090f565b346105545760203660031901126105545761095a610575612477565b61062e5761096733612554565b801561097e575b1561059d576100166004356128b9565b50600460206109916105c2600054612330565b604051630536340960e21b815292839182905afa908115610629576000916109c5575b506001600160a01b0316331461096e565b6109dd915060203d81116106225761061481836123de565b386109b4565b60a0906003190112610554576004359060243590604435906064359060843590565b3461055457610a13366109e3565b92610a22610575939293612477565b61062e57610a2f33612554565b8015610a44575b1561059d5761001694612bb3565b5060046020610a576105c2600054612330565b604051630536340960e21b815292839182905afa90811561062957600091610a8b575b506001600160a01b03163314610a36565b610aa3915060203d81116106225761061481836123de565b38610a7a565b6001600160a01b0381160361055457565b346105545760208060031936011261055457600435610ad881610aa9565b600482610ae96105c2600054612330565b604051634bf9c0ad60e11b815292839182905afa801561062957610b4292610b2692600092610b92575b50610b3490604051938491878301610e0a565b03601f1981018452836123de565b610b3c6125d0565b90612762565b919080610b88575b15610b76578181610b64926104e894518301019101612462565b60405190151581529081906020820190565b604051633204506f60e01b8152600490fd5b5080825114610b4a565b610b34919250610bae90863d88116106225761061481836123de565b9190610b13565b346105545760e036600319011261055457610bd1610575612477565b61062e57610bde33612554565b8015610c07575b1561059d5761001660c43560a435608435606435604435602435600435612ac5565b5060046020610c1a6105c2600054612330565b604051630536340960e21b815292839182905afa90811561062957600091610c4e575b506001600160a01b03163314610be5565b610c66915060203d81116106225761061481836123de565b38610c3d565b34610554576020366003190112610554576000546040516369e8d84b60e11b815290602090829060049082906001600160a01b03165afa801561062957610cd4610cf8916104e893600091610d08575b50610cc5612c38565b90610cce612c50565b90612835565b610cf360043591610cee610ce9602154612873565b612873565b612c7e565b6128a6565b6040519081529081906020820190565b610d20915060203d81116106225761061481836123de565b38610cbc565b8015150361055457565b3461055457602036600319011261055457600435610d4d81610d26565b610d58610575612477565b61062e57610d6533612554565b8015610d87575b1561059d576100169060ff8019603654169115151617603655565b5060046020610d9a6105c2600054612330565b604051630536340960e21b815292839182905afa90811561062957600091610dce575b506001600160a01b03163314610d6c565b610de6915060203d81116106225761061481836123de565b38610dbd565b34610554576000366003190112610554576020601e54604051908152f35b6001600160a01b03909116815260200190565b34610554576000366003190112610554576000546040516001600160a01b039091168152602090f35b3461055457602036600319011261055457600435600052600460205260606040600020805490600260018201549101549060405192835260208301526040820152f35b34610554576000366003190112610554576020601c54604051908152f35b3461055457602036600319011261055457610ec3610575612477565b61062e57610ed033612554565b8015610ee7575b1561059d57610016600435601b55565b5060046020610efa6105c2600054612330565b604051630536340960e21b815292839182905afa90811561062957600091610f2e575b506001600160a01b03163314610ed7565b610f46915060203d81116106225761061481836123de565b38610f1d565b3461055457604036600319011261055457610f68610575612477565b61062e57610f7533612554565b8015610f92575b1561059d57610016602435600435601d55601e55565b5060046020610fa56105c2600054612330565b604051630536340960e21b815292839182905afa90811561062957600091610fd9575b506001600160a01b03163314610f7c565b610ff1915060203d81116106225761061481836123de565b38610fc8565b346105545760003660031901126105545760208054604051908152f35b34610554576020366003190112610554576000546040516369e8d84b60e11b815290602090829060049082906001600160a01b03165afa80156106295761106c610cf8916104e893600091610d085750610cc5612c38565b6004356000526002602052610cee610ce9604060002054612873565b34610554576000366003190112610554576020601b54604051908152f35b346105545760003660031901126105545760a060175460ff60185460405192835281811615156020840152818160081c1615156040840152818160101c161515606084015260181c1615156080820152f35b60c090600319011261055457600435906024359060443590606435906084359060a43590565b346105545761112c366110f8565b9361113b610575949294612477565b61062e5761114833612554565b801561115d575b1561059d57610016956128f6565b50600460206111706105c2600054612330565b604051630536340960e21b815292839182905afa908115610629576000916111a4575b506001600160a01b0316331461114f565b6111bc915060203d81116106225761061481836123de565b38611193565b9192608093969594919660a084019784526020840152604083015260608201520152565b34610554576020366003190112610554576004356000526005602052604060002080546104e86001830154926002810154906004600382015491015491604051958695866111c2565b3461055457600036600319011261055457600d54600e54906104e8600f54601054906040519485948561048d565b346105545760a03660031901126105545760243561127a81610d26565b60443561128681610d26565b60643561129281610d26565b6084359161129f83610d26565b6112aa610575612477565b61062e576112b733612554565b80156112cf575b1561059d57610016936004356129b2565b50600460206112e26105c2600054612330565b604051630536340960e21b815292839182905afa90811561062957600091611316575b506001600160a01b031633146112be565b61132e915060203d81116106225761061481836123de565b38611305565b34610554576000366003190112610554576020602754604051908152f35b346105545760203660031901126105545761136e610575612477565b61062e5761137b33612554565b8015611392575b1561059d57610016600435602055565b50600460206113a56105c2600054612330565b604051630536340960e21b815292839182905afa908115610629576000916113d9575b506001600160a01b03163314611382565b6113f1915060203d81116106225761061481836123de565b386113c8565b346105545760203660031901126105545760043560005260026020526020604060002054604051908152f35b346105545760203660031901126105545760043561144081610d26565b61144b610575612477565b61062e5761145833612554565b801561147a575b1561059d576100169060ff8019601954169115151617601955565b506004602061148d6105c2600054612330565b604051630536340960e21b815292839182905afa908115610629576000916114c1575b506001600160a01b0316331461145f565b6114d9915060203d81116106225761061481836123de565b386114b0565b34610554576020366003190112610554576114fb610575612477565b61062e5761150833612554565b801561151f575b1561059d57610016600435602555565b50600460206115326105c2600054612330565b604051630536340960e21b815292839182905afa90811561062957600091611566575b506001600160a01b0316331461150f565b61157e915060203d81116106225761061481836123de565b38611555565b34610554576000366003190112610554576020602554604051908152f35b34610554576020366003190112610554576000546040516369e8d84b60e11b815290602090829060049082906001600160a01b03165afa9081156106295761160c6116046104e893670de0b6b3a764000093600091610d085750610cc5612c38565b6004356128a6565b04604051918291829190602083019252565b34610554576000366003190112610554576001546040516001600160a01b039091168152602090f35b34610554576000366003190112610554576020602254604051908152f35b3461055457602036600319011261055457611681610575612477565b61062e5761168e33612554565b80156116a5575b1561059d57610016600435601c55565b50600460206116b86105c2600054612330565b604051630536340960e21b815292839182905afa908115610629576000916116ec575b506001600160a01b03163314611695565b611704915060203d81116106225761061481836123de565b386116db565b34610554576000366003190112610554576020602854604051908152f35b3461055457600036600319011261055457602954602a54906104e8602b54602c54906040519485948561048d565b6102a0810192916000915b6007831061176e57505050565b60019060608351918251815260209283810151848301526040809101519082015201920192019190611761565b346105545760008060031936011261196f5760409081516117bb8161238d565b815b60e0811061194a576104e8846117d1612425565b600160005260046020529061180a7fabd6e7cb50984ff9c2f3e18a2660c3353dadf4e3291deeb275dae2cd1e44fe05612c10565b612c10565b82526002600052600460205261183f7f91da3fd0782e51c6b3986e9e672fd566868e71f3dbc2d6c2cd6fbb3e361af2a7612c10565b602083015261185c61180560036000526004602052604060002090565b82820152600460008190526020526118937f1a1e6821cde7d0159c0d293177871e09677b4e42307c7db3ba94f8648a5a050f612c10565b6060830152600560005260046020526118cb7f04cde762ef08b6b6c5ded8e8c4c0b3f4e5c9ad7342c88fcc93681b4588b73f05612c10565b6080830152600660005260046020526119037fc59312466997bb42aaaf719ece141047820e6b34531e1670dc1852a453648f0f612c10565b60a08301526007600052600460205261193b7fbeb3bad75134cb432e5707980e3245c52c5998a1125ee30f2f0dbf3925b1e551612c10565b60c08301525191829182611756565b602090845161195881612352565b8481528483820152848682015281840152016117bd565b80fd5b34610554576000366003190112610554576020601554604051908152f35b3461055457600036600319011261055457602d54602e54906104e8602f54603054906040519485948561048d565b346105545760003660031901126105545760005460405163d1f956b160e01b815290602090829060049082906001600160a01b03165afa908115610629576104e891610cf891600091611a47575b50604051611a19816123a8565b601381527267657464656c656761746f72436f756e74282960681b6020820152611a4161244f565b91612835565b611a5f915060203d81116106225761061481836123de565b38611a0c565b34610554576000366003190112610554576020601d54604051908152f35b34610554576020366003190112610554576004356000526003602052604060002080546104e86001830154926002810154906004600382015491015491604051958695866111c2565b34610554576000366003190112610554576020601a54604051908152f35b34610554576020366003190112610554576020611b11600435611b0c81610aa9565b612554565b6040519015158152f35b34610554576000366003190112610554576020602654604051908152f35b3461055457600036600319011261055457602060ff603654166040519015158152f35b3461055457600036600319011261055457601154601254906104e8601354601454906040519485948561048d565b3461055457602036600319011261055457600460018060a01b036020611bb38260005416612330565b604051630536340960e21b815293849182905afa91821561062957600092611bea575b503391160361059d57610016600435612661565b611c0391925060203d81116106225761061481836123de565b9038611bd6565b3461055457602036600319011261055457600435611c2781610aa9565b803b6000611c3482612434565b92611c4260405194856123de565b82845260208401903c602d815110611c6657602a602091015160601c604051908152f35b60405163baf3f0f760e01b8152600490fd5b3461055457608036600319011261055457611c94610575612477565b61062e57611ca133612554565b8015611cc1575b1561059d57610016606435604435602435600435612a5c565b5060046020611cd46105c2600054612330565b604051630536340960e21b815292839182905afa90811561062957600091611d08575b506001600160a01b03163314611ca8565b611d20915060203d81116106225761061481836123de565b38611cf7565b34610554576000366003190112610554576020601654604051908152f35b34610554576020806003193601126105545760048035611d6381610aa9565b60005460405163d1f956b160e01b81526001600160a01b03949093909182918591829088165afa908115610629576104e894610b6494600093611dc4575b506040519316818401528252611db6826123a8565b611dbe6125fd565b906127f9565b611ddc919350823d84116106225761061481836123de565b9138611da1565b34610554576000366003190112610554576020611b11612477565b3461055457611e0c366109e3565b92611e1b610575939293612477565b61062e57611e2833612554565b8015611e3d575b1561059d5761001694612b55565b5060046020611e506105c2600054612330565b604051630536340960e21b815292839182905afa90811561062957600091611e84575b506001600160a01b03163314611e2f565b611e9c915060203d81116106225761061481836123de565b38611e73565b3461055457602036600319011261055457611ebe610575612477565b61062e57611ecb33612554565b8015611ee2575b1561059d57610016600435602155565b5060046020611ef56105c2600054612330565b604051630536340960e21b815292839182905afa90811561062957600091611f29575b506001600160a01b03163314611ed2565b611f41915060203d81116106225761061481836123de565b38611f18565b3461055457611f55366110f8565b93611f64610575949294612477565b61062e57611f7133612554565b8015611f86575b1561059d5761001695612974565b5060046020611f996105c2600054612330565b604051630536340960e21b815292839182905afa90811561062957600091611fcd575b506001600160a01b03163314611f78565b611fe5915060203d81116106225761061481836123de565b38611fbc565b3461055457602036600319011261055457612007610575612477565b61062e5761201433612554565b801561202b575b1561059d57610016600435603555565b506004602061203e6105c2600054612330565b604051630536340960e21b815292839182905afa90811561062957600091612072575b506001600160a01b0316331461201b565b61208a915060203d81116106225761061481836123de565b38612061565b34610554576040366003190112610554576120ac610575612477565b61062e576120b933612554565b80156120d3575b1561059d57610016602435600435612aa9565b50600460206120e66105c2600054612330565b604051630536340960e21b815292839182905afa9081156106295760009161211a575b506001600160a01b031633146120c0565b612132915060203d81116106225761061481836123de565b38612109565b3461055457606036600319011261055457612154610575612477565b61062e5761216133612554565b8015612184575b1561059d57610016604435602435600435602755602655602855565b50600460206121976105c2600054612330565b604051630536340960e21b815292839182905afa908115610629576000916121cb575b506001600160a01b03163314612168565b6121e3915060203d81116106225761061481836123de565b386121ba565b34610554576020366003190112610554576000546040516369e8d84b60e11b815290602090829060049082906001600160a01b03165afa801561062957612241610cf8916104e893600091610d085750610cc5612c38565b610cee600435612873565b3461055457600036600319011261055457603154603254906104e8603354603454906040519485948561048d565b3461055457600036600319011261055457602060ff601954166040519015158152f35b346105545760003660031901126105545760005460405163111ea8c160e21b815290602090829060049082906001600160a01b03165afa908115610629576104e891610cf891600091612312575b506040516122f8816123a8565b6005815264616765282960d81b6020820152611a4161244f565b61232a915060203d81116106225761061481836123de565b386122eb565b6001600160a01b031690565b634e487b7160e01b600052604160045260246000fd5b606081019081106001600160401b0382111761236d57604052565b61233c565b60a081019081106001600160401b0382111761236d57604052565b60e081019081106001600160401b0382111761236d57604052565b604081019081106001600160401b0382111761236d57604052565b602081019081106001600160401b0382111761236d57604052565b601f909101601f19168101906001600160401b0382119082101761236d57604052565b90816020910312610554575161241681610aa9565b90565b6040513d6000823e3d90fd5b604051906124328261238d565b565b6001600160401b03811161236d57601f01601f191660200190565b6040519061245c826123c3565b60008252565b90816020910312610554575161241681610d26565b600054604051634bf9c0ad60e11b81526020918290829060049082906001600160a01b03165afa8015610629576124df91600091612506575b506040516124bd816123a8565b6008815267697353616665282960c01b848201526124d961244f565b91612762565b90806124fc575b15610b7657816124169282518301019101612462565b50818151146124e6565b61251d9150833d85116106225761061481836123de565b386124b0565b60405190612530826123a8565b601582527469735365637572654261736528616464726573732960581b6020830152565b6125626105c2600054612330565b906040518092634bf9c0ad60e11b825281600460209586935afa8015610629576124df92610b26926000926125ad575b506125a590604051938491878301610e0a565b610b3c612523565b6125a59192506125c990863d88116106225761061481836123de565b9190612592565b604051906125dd826123a8565b601182527069735369676e657228616464726573732960781b6020830152565b6040519061260a826123a8565b6018825277697364656c656761746f724e6f646528616464726573732960401b6020830152565b3d1561265c573d9061264282612434565b9161265060405193846123de565b82523d6000602084013e565b606090565b60006126706105c28254612330565b9060405180926311be646b60e21b825281600460209586935afa80156106295782808681949382948391612745575b505af16126aa612631565b5015610b76576004826126c06105c28454612330565b604051635e09dbe760e01b815292839182905afa908115610629577fcdcc745fe377b103b45fa0cec23ae3ef93d6fc6a84a01f0d18c40b354dd1d5d8936127239392612728575b50506040519384526001600160a01b0316929081906020820190565b0390a2565b61273e9250803d106106225761061481836123de565b3880612707565b61275c9150883d8a116106225761061481836123de565b3861269f565b9190823b156127e0578051906020918263ffffffff60e01b92012016916040519180830193845281519160005b8381106127cc5750505091816127bc602482600097959688970187838201520360048101845201826123de565b51915afa6127c8612631565b9091565b81810183015185820160240152820161278f565b5050506000906040516127f2816123c3565b6000815290565b929161280791600094612762565b908061282a575b6128155750565b61241691925060208082518301019101612462565b50602081511461280e565b929161284391600094612762565b9080612868575b6128515750565b909150602081805181010312610554576020015190565b50602081511461284a565b90670de0b6b3a76400009182810292818404149015171561289057565b634e487b7160e01b600052601160045260246000fd5b8181029291811591840414171561289057565b6128c290612873565b602255565b906080600491805184556020810151600185015560408101516002850155606081015160038501550151910155565b92949194939093601084101561293f57612432956040519561291787612372565b86526020860152604085015260608401526080830152600052600560205260406000206128c7565b60405162461bcd60e51b815260206004820152600d60248201526c1a5b9d985b1a59081b195d995b609a1b6044820152606490fd5b9261243295929491946040519561298a87612372565b86526020860152604085015260608401526080830152600052600360205260406000206128c7565b608061ff009162ff000094969593604051906129cd82612372565b8282521515978860208301521515948560408301521515968760608301521515928391015260175560ff63ff0000006018549260181b1696169063ffffffff1916179160081b16179160101b161717601855565b15612a2857565b60405162461bcd60e51b815260206004820152600c60248201526b696e76616c69642072616e6b60a01b6044820152606490fd5b91600292939193612a6f60088210612a21565b60405194612a7c86612352565b85526020850191825260408501928352600052600460205260406000209351845551600184015551910155565b612ab560088210612a21565b6000526002602052604060002055565b60405160e081016001600160401b0381118282101761236d57889160c0916040528381528460208201528560408201528660608201528760808201528860a08201520152600655600755600855600955600a55600b55600c55565b60405190608082016001600160401b0381118382101761236d5760405260006060838281528260208201528260408201520152565b600290856060612b63612b20565b858152866020820152876040820152015260018114612b9e575b14612b89575b50505050565b60115560125560135560145538808080612b83565b82600d5583600e5584600f5585601055612b7d565b600290856060612bc1612b20565b858152866020820152876040820152015260018114612bfb575b14612be65750505050565b602d55602e55602f5560305538808080612b83565b8260295583602a5584602b5585602c55612bdb565b90604051612c1d81612352565b60406002829480548452600181015460208501520154910152565b604051612c44816123c3565b60008152906000368137565b60405190612c5d826123a8565b60128252716f7a6f6e655072696365496e55534454282960701b6020830152565b8115612c88570490565b634e487b7160e01b600052601260045260246000fdfea264697066735822122015e3c154559fb8c06380e5ee4c17fef991e7a3f47f3de8610bbd50bf8596be2264736f6c63430008140033","linkReferences":{}},"methodIdentifiers":{"rule741()":"0a5b38ab","transferRequest()":"3da8676f"},"id":34}