{"abi":[{"type":"constructor","inputs":[{"name":"_hex","type":"address","internalType":"address"}],"stateMutability":"nonpayable"},{"type":"function","name":"instanceStor","inputs":[],"outputs":[{"name":"","type":"address","internalType":"address"}],"stateMutability":"view"}],"bytecode":{"object":"0x6080346100c5576001600160401b0390601f616c7538819003918201601f1916830191848311848410176100af578084926020946040528339810103126100c557516001600160a01b039190828116908190036100c55760405191616b1c90818401908111848210176100af576020928492610159843981520301906000f080156100a3571660018060a01b03196000541617600055604051608e90816100cb8239f35b6040513d6000823e3d90fd5b634e487b7160e01b600052604160045260246000fd5b600080fdfe6080806040526004361015601257600080fd5b600090813560e01c63131c73ad14602857600080fd5b346054578160031936011260545773ffffffffffffffffffffffffffffffffffffffff60209254168152f35b5080fdfea26469706673582212208abba703b5c32a039fe91a108cf8039cfb802c2d0c3761ede2c89818f6702d8364736f6c63430008140033608034620000b757601f62006b1c38819003918201601f19168301916001600160401b03831184841017620000bc57808492602094604052833981010312620000b757516001600160a01b03811690819003620000b7578015620000a55760018060a01b0319903382600154161760015560009182541617815560016002558060035580600455806005558060065580600755600855604051616a499081620000d38239f35b60405163e6c4247b60e01b8152600490fd5b600080fd5b634e487b7160e01b600052604160045260246000fdfe60806040526004361015610018575b361561001657005b005b60003560e01c806302a085f214610328578063043719b41461032357806309d8da2e1461031e5780630b98f975146103195780630c19aef81461031457806312065fe01461030f578063141ca6601461030a578063143ec3b7146103055780631f185d161461030057806329ee350e146102fb5780632c2838e8146102f657806339b4d61b146102f15780633b9b7955146102ec57806343a1b5ab146102e75780634a65786c146102e257806352902c59146102dd578063619d5194146102d85780636350b2c2146102d357806369245009146102ce5780636de97c66146102c95780636f493aad146102c4578063725b6fff146102bf578063759f22bd146102ba57806375b4d78c146102b55780637b058ac1146102b0578063822ffec4146102ab578063880cdc31146102a65780638da5cb5b146102a1578063934209ce1461029c5780639659867e14610297578063a1f7f53914610292578063a20199ac1461028d578063a663030414610288578063a9bf285b14610283578063aaa65a9c1461027e578063af48452614610279578063af640d0f14610274578063b90306ad1461026f578063bab2f5521461026a578063c54e44b014610265578063c8ef7b1a14610260578063ce6e73ac1461025b578063d2a1590414610256578063d3a1a49914610251578063da0213351461024c578063deb1ba1e14610247578063e01ad5fd14610242578063e0a9bc2b1461023d5763fdc10bc90361000e57611acd565b611ab2565b611a18565b611963565b6118dd565b6118b1565b61186b565b61150f565b611457565b61141f565b611401565b61137a565b61135c565b61132b565b6112cc565b6112ae565b6111ea565b61119e565b6110f0565b6110d2565b6110b4565b61108d565b610fd8565b610f01565b610e2e565b610e10565b610d5b565b610cd7565b610c9d565b610c0b565b610bb2565b610b5b565b610a99565b61099f565b610979565b61095b565b610934565b610908565b61084c565b610813565b6106ea565b6106ad565b610607565b6105eb565b6105bc565b6104ef565b6104cc565b610490565b61035c565b610120810192916000915b6009831061034557505050565b600190825181526020809101920192019190610338565b60408060031936011261048b5780519061037582611b43565b61012036833760ff6009541661047b57610394610390616206565b1590565b61046b576103a1336162fe565b80156103e0575b156103d0576103c16103cc9260243590600435906127bd565b90519182918261032d565b0390f35b6004905163ea8e4eb560e01b8152fd5b50600460206104066103fa6000546001600160a01b031690565b6001600160a01b031690565b835192838092630536340960e21b82525afa90811561046657600091610438575b506001600160a01b031633146103a8565b610459915060203d811161045f575b6104518183611bb4565b810190611bd6565b38610427565b503d610447565b611bee565b60049051634ee2123760e11b8152fd5b600490516334c2d01160e11b8152fd5b600080fd5b3461048b57604036600319011261048b57600435600052602160205260206104be6024356040600020611c0e565b90546040519160031b1c8152f35b3461048b57600036600319011261048b57602060ff600954166040519015158152f35b3461048b57602036600319011261048b5761050b610390616206565b6105ab57610518336162fe565b8015610540575b1561052f57610016600435600a55565b600460405163ea8e4eb560e01b8152fd5b506004602061055a6103fa6000546001600160a01b031690565b60405192838092630536340960e21b82525afa9081156104665760009161058d575b506001600160a01b0316331461051f565b6105a5915060203d811161045f576104518183611bb4565b3861057c565b6004604051634ee2123760e11b8152fd5b3461048b57600036600319011261048b576100166105d86163ca565b6105e1816159da565b9392505050611c67565b3461048b57600036600319011261048b57602047604051908152f35b602036600319011261048b5761061e610390616206565b6105ab5761062b336162fe565b8015610642575b1561052f57610016600435613010565b506004602061065c6103fa6000546001600160a01b031690565b60405192838092630536340960e21b82525afa9081156104665760009161068f575b506001600160a01b03163314610632565b6106a7915060203d811161045f576104518183611bb4565b3861067e565b3461048b57602036600319011261048b5760043560005260216020526020604060002054604051908152f35b6001600160a01b0381160361048b57565b3461048b5760208060031936011261048b57600435610708816106d9565b6004826107206103fa6000546001600160a01b031690565b60405192838092634bf9c0ad60e11b82525afa8015610466576107889261076c926000926107f0575b5061077a906040519384918783019190916001600160a01b036020820193169052565b03601f198101845283611bb4565b610782616391565b906166e8565b9190806107e6575b156107bc5781816107aa926103cc945183010191016161f1565b60405190151581529081906020820190565b60046040517f3204506f000000000000000000000000000000000000000000000000000000008152fd5b5080825114610790565b61077a91925061080c90863d881161045f576104518183611bb4565b9190610749565b3461048b57600036600319011261048b57601054600881101561084757601281015460408051928352602083019190915290f35b611889565b3461048b57602036600319011261048b576101e061086b600435614b7d565b60405190805182526020810151602083015260408101516040830152606081015160608301526080810151608083015260a081015160a083015260c081015160c083015260e081015160e0830152610100808201519083015261012080820151908301526101408082015190830152610160808201519083015261018080820151908301526101a080820151908301526101c08091015190820152f35b3461048b57602036600319011261048b57600435600052601b6020526020604060002054604051908152f35b3461048b57600036600319011261048b5760206001600160a01b0360005416604051908152f35b3461048b57600036600319011261048b576020601e54604051908152f35b3461048b57600036600319011261048b57602060ff60095460081c166040519015158152f35b3461048b57606036600319011261048b576004356109bc816106d9565b6024356109c8816106d9565b6001600160a01b03809216908115808015610a85575b610a6d57610a4357610a359160009384548273ffffffffffffffffffffffffffffffffffffffff198216178655167fe939feee179e631422bcc8f6e6d7d908cb3f8af38f5372f17c77e15aea5c80ee8580a36164a3565b610a40604435600c55565b80f35b60046040517fe6c4247b000000000000000000000000000000000000000000000000000000008152fd5b6024604051635258db5f60e01b815260016004820152fd5b50838216156109de565b8015150361048b57565b3461048b57602036600319011261048b57600435610ab681610a8f565b610ac1610390616206565b6105ab57610ace336162fe565b8015610af0575b1561052f576100169060ff8019600954169115151617600955565b5060046020610b0a6103fa6000546001600160a01b031690565b60405192838092630536340960e21b82525afa90811561046657600091610b3d575b506001600160a01b03163314610ad5565b610b55915060203d811161045f576104518183611bb4565b38610b2c565b3461048b57602036600319011261048b57600435600052601d602052608060406000208054906001810154906001600160a01b03600360028301549201541691604051938452602084015260408301526060820152f35b3461048b57600036600319011261048b576020600f54604051908152f35b6020908160408183019282815285518094520193019160005b828110610bf7575050505090565b835185529381019392810192600101610be9565b3461048b57600036600319011261048b576010546001810190818111610c9857610c3482616175565b91610c426040519384611bb4565b808352610c51601f1991616175565b0136602084013760005b81811115610c7157604051806103cc8582610bd0565b60088110156108475780610c939160120154610c8d82866161dd565b52611cff565b610c5b565b611ce9565b3461048b57604036600319011261048b57600435600052601f60205260406000206024356000526020526020604060002054604051908152f35b3461048b57600036600319011261048b576020600d54604051908152f35b6020908160408183019282815285518094520193019160005b828110610d1c575050505090565b9091929382608082610d4f6001948951606080918051845260208101516020850152604081015160408501520151910152565b01950193929101610d0e565b3461048b57604036600319011261048b57600435602435808211610df857818103908111610c985760018101809111610c9857610d978161618d565b9160005b828110610db057604051806103cc8682610cf5565b80610dd8610dd3610dc4610df3948661259b565b60005260208052604060002090565b616143565b610de282876161dd565b52610ded81866161dd565b50611cff565b610d9b565b6024604051635258db5f60e01b8152600d6004820152fd5b3461048b57600036600319011261048b576020600a54604051908152f35b3461048b5760a036600319011261048b57608435610e4b81610a8f565b610e56610390616206565b6105ab57610e63336162fe565b8015610e96575b1561052f57610e8490606435604435602435600435614023565b60408051928352602083019190915290f35b5060046020610eb06103fa6000546001600160a01b031690565b60405192838092630536340960e21b82525afa90811561046657600091610ee3575b506001600160a01b03163314610e6a565b610efb915060203d811161045f576104518183611bb4565b38610ed2565b3461048b5760c036600319011261048b5760a435610f1e81610a8f565b610f29610390616206565b6105ab57610f36336162fe565b8015610f6d575b1561052f57610f5d6103cc91608435606435604435602435600435614148565b6040519081529081906020820190565b5060046020610f876103fa6000546001600160a01b031690565b60405192838092630536340960e21b82525afa90811561046657600091610fba575b506001600160a01b03163314610f3d565b610fd2915060203d811161045f576104518183611bb4565b38610fa9565b3461048b57602036600319011261048b57600435610ff5816106d9565b611000610390616206565b6105ab5761100d336162fe565b8015611022575b1561052f5761001690611d35565b506004602061103c6103fa6000546001600160a01b031690565b60405192838092630536340960e21b82525afa9081156104665760009161106f575b506001600160a01b03163314611014565b611087915060203d811161045f576104518183611bb4565b3861105e565b3461048b57600036600319011261048b5760206001600160a01b0360015416604051908152f35b3461048b57600036600319011261048b576020601054604051908152f35b3461048b57600036600319011261048b576020600b54604051908152f35b3461048b57600036600319011261048b57600460206001600160a01b03600054166040519283809263d1f956b160e01b82525afa908115610466576103cc91610f5d91600091611180575b5060405161114881611b60565b601381527f67657464656c656761746f72436f756e74282900000000000000000000000000602082015261117a6123de565b9161681b565b611198915060203d811161045f576104518183611bb4565b3861113b565b3461048b57604036600319011261048b576111bd602435600435615e1f565b60405190600090825b600783106111d35760e084f35b6001908251815260208091019201920191906111c6565b60c036600319011261048b57600435611202816106d9565b61120d610390616206565b6105ab5761121a336162fe565b8015611243575b1561052f57610e849060a4359060843590606435906044359060243590611d8f565b506004602061125d6103fa6000546001600160a01b031690565b60405192838092630536340960e21b82525afa90811561046657600091611290575b506001600160a01b03163314611221565b6112a8915060203d811161045f576104518183611bb4565b3861127f565b3461048b57600036600319011261048b576020600e54604051908152f35b3461048b57602036600319011261048b576112e56163ca565b600d54906004358201809211610c985760809161130a918181111561132457506159da565b916040519384526020840152604083015215156060820152f35b90506159da565b3461048b57602036600319011261048b57602061135260043561134d816106d9565b6162fe565b6040519015158152f35b3461048b57600036600319011261048b576020600c54604051908152f35b3461048b57602036600319011261048b5760046001600160a01b0360206113ab82600054166001600160a01b031690565b60405193848092630536340960e21b82525afa918215610466576000926113e1575b503391160361052f57610016600435616589565b6113fa91925060203d811161045f576104518183611bb4565b90386113cd565b3461048b57600036600319011261048b576020601a54604051908152f35b3461048b57602036600319011261048b576020611446600435611441816106d9565b616992565b6001600160a01b0360405191168152f35b3461048b57604036600319011261048b5760243561147481610a8f565b61147f610390616206565b6105ab5761148c336162fe565b80156114a4575b1561052f5761001690600435611bfa565b50600460206114be6103fa6000546001600160a01b031690565b60405192838092630536340960e21b82525afa908115610466576000916114f1575b506001600160a01b03163314611493565b611509915060203d811161045f576104518183611bb4565b386114e0565b60208060031936011261048b5760049081359160ff6009541661185c57611534612770565b8060009361154c6103fa86546001600160a01b031690565b908460409283519586809263cfbffe5360e01b82525afa93841561046657869461183d575b5061157a6163ca565b936115a56115a061159a61158c61242a565b611594612442565b8561681b565b8761247b565b601a55565b6115bb601a54600052601b602052604060002090565b546115d56115c761242a565b6115cf61249b565b8461681b565b03611820576103e7600052602160205260016116137fb149ba332085eda4d73c14ffa5390e0d7d3e897d4b6450481101115a495082e75b5460011690565b14806117e2575b6117c5578251868101838152611647929061163990839060200161076c565b611641612fd7565b9061681b565b34036117a8576116616103fa87546001600160a01b031690565b825191868386817f1b4fc17b00000000000000000000000000000000000000000000000000000000958682525afa908115610466576116ae6116c79289958b9161178b575b50349061652d565b6116c26116bd3460035461259b565b600355565b600455565b6116d085611d77565b506116e56103fa88546001600160a01b031690565b9383518095819382525afa918215610466577f1517c86fcf2bfb8e3468afcc539b0004955da8027797c497ea51d1f1094ab898948693611766575b5050513381526001600160a01b0390911660208201526000604082015234606082015260808101919091526103e860a08201528060c081015b0390a1610a406001600255565b611759929350908161178392903d1061045f576104518183611bb4565b919038611720565b6117a29150863d881161045f576104518183611bb4565b386116a6565b815163cdab4c8760e01b8152600981850190815281906020010390fd5b8251635258db5f60e01b8152600681860190815281906020010390fd5b50600c5483518781019182526118189161180a9082906020015b03601f198101835282611bb4565b6118126123f1565b83616796565b31151561161a565b825163cdab4c8760e01b8152600581860190815281906020010390fd5b611855919450853d871161045f576104518183611bb4565b9238611571565b6040516334c2d01160e11b8152fd5b3461048b57600036600319011261048b576020601154604051908152f35b634e487b7160e01b600052603260045260246000fd5b60088110156108475760120190600090565b3461048b57602036600319011261048b57600435600881101561048b5760209060120154604051908152f35b3461048b57602036600319011261048b576118f661611e565b50600435600052602080526080604060002060036040519161191783611b06565b805483526001810154602084015260028101546040840152015460608201526119616040518092606080918051845260208101516020850152604081015160408501520151910152565bf35b3461048b57602036600319011261048b5760043561198081610a8f565b61198b610390616206565b6105ab57611998336162fe565b80156119ad575b1561052f5761001690611d0e565b50600460206119c76103fa6000546001600160a01b031690565b60405192838092630536340960e21b82525afa908115610466576000916119fa575b506001600160a01b0316331461199f565b611a12915060203d811161045f576104518183611bb4565b386119e9565b3461048b5760208060031936011261048b5760048035611a37816106d9565b6001600160a01b03928084600054166040519485809263d1f956b160e01b82525afa908115610466576103cc946107aa94600093611a93575b506040519316818401528252611a8582611b60565b611a8d61646a565b906167df565b611aab919350823d841161045f576104518183611bb4565b9138611a70565b3461048b57600036600319011261048b576020611352616206565b3461048b57600036600319011261048b576020611ae86163ca565b604051908152f35b634e487b7160e01b600052604160045260246000fd5b6080810190811067ffffffffffffffff821117611b2257604052565b611af0565b6060810190811067ffffffffffffffff821117611b2257604052565b610120810190811067ffffffffffffffff821117611b2257604052565b6040810190811067ffffffffffffffff821117611b2257604052565b6020810190811067ffffffffffffffff821117611b2257604052565b60e0810190811067ffffffffffffffff821117611b2257604052565b90601f8019910116810190811067ffffffffffffffff821117611b2257604052565b9081602091031261048b5751611beb816106d9565b90565b6040513d6000823e3d90fd5b90611c0c91611c076163ca565b611cbb565b565b80548210156108475760005260206000200190600090565b9081549168010000000000000000831015611b225782611c4e916001611c0c95018155611c0e565b90919082549060031b91821b91600019901b1916179055565b6103e760005260216020526040600020918254801580611cb3575b611cad5760019115611ca2571615611c99575b5050565b611c0c91611c26565b811614611c99575050565b50505050565b508115611c82565b9060005260216020526040600020918254801580611cb357611cad5760019115611ca2571615611c99575050565b634e487b7160e01b600052601160045260246000fd5b6000198114610c985760010190565b15611d2357611d1e601154611cff565b601155565b6011548015610c985760001901601155565b6001600160a01b03811615611d4d57611c0c906164a3565b60046040517fab8a0360000000000000000000000000000000000000000000000000000000008152fd5b611beb611d83826159da565b94915050839150611c67565b90939295949160ff6009541661230457611da7612770565b6103e760005260216020526001611ddd7fb149ba332085eda4d73c14ffa5390e0d7d3e897d4b6450481101115a495082e761160c565b1480612315575b61230457611df4610390836162fe565b611d4d57600093611e0f6103fa86546001600160a01b031690565b6040918251809563cfbffe5360e01b938483528260046020998a935afa9182156104665789926122e5575b50611e606115a0611e5a611e4c61242a565b611e54612442565b8661681b565b8a61247b565b601a54611e7781600052601b602052604060002090565b54611e8b611e8361242a565b611e5461249b565b118015906122af575b61229757611eac90600052601b602052604060002090565b80546001019055600183149b8c1561229057611ee08651611ed8816117fc8b8d83019190602083019252565b611594612546565b9c5b612243575b50600b541561222c575b600b54611efd90611cff565b600b5585611f096123a8565b9a8d8c5281898d015289878d015260608c019b8b8d52600b54611f3690600052601d602052604060002090565b90611f40916125d3565b8d8a600154611f55906001600160a01b031690565b895163c85700fb60e01b8d8201526001600160a01b0391909116602482015260448101939093526064830193909352608482015260a480820192909252908152611fa060c482611bb4565b611fa9916168df565b86808251830101910190611fbc91611bd6565b6001600160a01b0316808a52156122145761204e6120466120406120539361202f611fee8e516001600160a01b031690565b6003612006600b54600052601d602052604060002090565b01906001600160a01b031673ffffffffffffffffffffffffffffffffffffffff19825416179055565b61203761242a565b90611641612628565b876126bc565b60065461259b565b600655565b846120686103fa89546001600160a01b031690565b92600485518095819382525afa948515610466578a6121a461219661210b61210661218461211c866121e89f8f997f1517c86fcf2bfb8e3468afcc539b0004955da8027797c497ea51d1f1094ab8989f612111916120ea6121e09f926120f79361211696916121f7575b506120db61242a565b906120e46126cf565b906166bd565b8051810182019101612708565b9c9491959b92939890506126bc565b6126bc565b936126bc565b612661565b9061247b565b9161214e612136601e54600052601f602052604060002090565b612140838b61259b565b600052602052604060002090565b61215984825461273b565b90556121408461217f612178601e54600052601f602052604060002090565b938b61259b565b61259b565b61218f828254612757565b90556126bc565b9a516001600160a01b031690565b945195869533879260a09491979695929760c08501986001600160a01b0380921686521660208501526040840152606083015260808201520152565b0390a1611d77565b506121f36001600255565b9190565b61220e9150833d851161045f576104518183611bb4565b386120d2565b8351635258db5f60e01b815260026004820152602490fd5b61223588600d55565b61223e88600e55565b611ef1565b600a54908d612252838361259b565b10612278578d6122686122729361226d9361259b565b6125c6565b600a55565b38611ee7565b8651635258db5f60e01b815260056004820152602490fd5b809c611ee2565b855163cdab4c8760e01b815260016004820152602490fd5b506122c36122bb61242a565b6115946124d4565b871080611e9457506122de6122d661242a565b61159461250d565b8711611e94565b6122fd919250873d891161045f576104518183611bb4565b9038611e3a565b60046040516334c2d01160e11b8152fd5b506004602061232f6103fa6000546001600160a01b031690565b6040519283809263ab6e844f60e01b82525afa908115610466576123829161076c9160009161238a575b50612374600c54604051938491602083019190602083019252565b61237c6123f1565b90616796565b311515611de4565b6123a2915060203d811161045f576104518183611bb4565b38612359565b60405190611c0c82611b06565b60405190611c0c82611b98565b67ffffffffffffffff8111611b2257601f01601f191660200190565b604051906123eb82611b7c565b60008252565b604051906123fe82611b60565b601882527f676574557365724964546f496e73742875696e743235362900000000000000006020830152565b60405161243681611b7c565b60008152906000368137565b6040519061244f82611b60565b600f82527f6d696e744379636c6544617973282900000000000000000000000000000000006020830152565b8115612485570490565b634e487b7160e01b600052601260045260246000fd5b604051906124a882611b60565b601282527f6d61784d696e74735065724379636c65282900000000000000000000000000006020830152565b604051906124e182611b60565b600c82527f6d696e4d696e74517479282900000000000000000000000000000000000000006020830152565b6040519061251a82611b60565b600c82527f6d61784d696e74517479282900000000000000000000000000000000000000006020830152565b6040519061255382611b60565b601982527f636f6d707574654d696e7456616c75652875696e7432353629000000000000006020830152565b6046019081604611610c9857565b9060018201809211610c9857565b91908201809211610c9857565b600019810191908211610c9857565b600119810191908211610c9857565b91908203918211610c9857565b60036001600160a01b036060611c0c948051855560208101516001860155604081015160028601550151169101906001600160a01b031673ffffffffffffffffffffffffffffffffffffffff19825416179055565b6040519061263582611b60565b600f82527f6d696e74466565506572517479282900000000000000000000000000000000006020830152565b9061271091828102928184041490151715610c9857565b90601982029180830460191490151715610c9857565b9081606402916064830403610c9857565b90670de0b6b3a764000091828102928184041490151715610c9857565b81810292918115918404141715610c9857565b604051906126dc82611b60565b600682527f706f6f6c282900000000000000000000000000000000000000000000000000006020830152565b908160e091031261048b5780519160208201519160408101519160608201519160808101519160c060a083015192015190565b91909160008382019384129112908015821691151617610c9857565b81810392916000138015828513169184121617610c9857565b600280541461277f5760028055565b60046040517f3ee5aeb5000000000000000000000000000000000000000000000000000000008152fd5b604051906127b682611b98565b60e0368337565b906127d092916127cb612770565b61294e565b906001600255565b604051906127e582611b60565b601082527f65616368636c61696d4379636c652829000000000000000000000000000000006020830152565b6040519061281e82611b60565b601082527f6d6178436c61696d5065724461792829000000000000000000000000000000006020830152565b6040519061285782611b60565b601082527f6d696e436c61696d5065724461792829000000000000000000000000000000006020830152565b6040519061289082611b60565b601682527f6d6178476c6f62616c436c61696d5065724461792829000000000000000000006020830152565b604051906128c982611b60565b601582527f67657477697468647261776e2875696e743235362900000000000000000000006020830152565b9060098110156108475760051b0190565b6040519061291382611b60565b601d82527f636f6d707574654f7a6f6e65546f446f6c6c61722875696e74323536290000006020830152565b9081602091031261048b575190565b929190838215612fd157506000906129706103fa83546001600160a01b031690565b906040805193849363cfbffe5360e01b855284600460209687935afa948515610466578195612fb2575b506129a486611d77565b600d54936129b2818661259b565b881115612fa5576129d06129c86032928761259b565b955b866125c6565b11612f9c576129fa6129f16129e361242a565b6129eb6127d8565b8961681b565b600e549061259b565b8710612f8457612a1c612a16612a0e61242a565b6129eb612811565b946146af565b601c6020527f6de76108811faf2f94afbe5ac6c98e8393206cd093932de1fbfd61bbeec43a0554600460005260039490612b7290612b4190612b1090612adf90612aae90612a7d908b6000805160206169f48339815191525b01549061259b565b6002600052601c6020528a7ff5b6e61a0c14f171ef1c86f003900ef0305e4159fff3317e4fb7c351f2050c87612a75565b6003600052601c602052897fb0deb225ecd3a242ef7d55f0f81ae3b924e0b6f9da8bc33b306fb32ca5f287f7612a75565b6005600052601c602052887f0de3fcd0b495fcf96d4f4ab29f8e12012b60a56d458f4c95fdde42b927ce97a0612a75565b6006600052601c602052877fb2d730c3da277545f6c9f2c922ea3d0e9fcbd74e29d321b995a837ef61c283f0612a75565b6007600052601c602052867ff83d70dc1f3bc56ae93d2f099ba46d689c41cc22a3494b582010b224cccab8fb612a75565b90612b8c612b7e61242a565b612b8661284a565b8a61681b565b8210801590612f7d575b15612f65579060049594939291612bbc612bae61242a565b612bb6612883565b8b61681b565b88612bd16103fa87546001600160a01b031690565b8751998a809263ab6e844f60e01b82525afa978815610466578598612f46575b5085518981018c8152819003808252601f1999612c1e9291612c169060200183611bb4565b6116416128bc565b1015612f2f5780821115612f2557612c35916125c6565b8a905b948395600191825b6007811115612d1b575050505092612ce49592611c0c99989592612ce9989560e06007549101526101008d600854918291015281612d11575b50612cf9575b612c896000600755565b612c936000600855565b8215612cee575093612cc7612ccf93612cbb93612cdc97519485918883019190602083019252565b03908101845283611bb4565b6120e4612906565b805181018201910161293f565b60055461259b565b600555565b600e55565b945050505050612cdc565b612d0c612d07601e54611cff565b601e55565b612c7f565b9050151538612c79565b90919293978c908984612d3885600052601c602052604060002090565b0154898888612e3b5793612dd1879694612de294612dd8947f1517c86fcf2bfb8e3468afcc539b0004955da8027797c497ea51d1f1094ab89898612d89612e319c600052601c602052604060002090565b01612d9583825461259b565b90558b612dac8b600052601c602052604060002090565b0155612dc0612dba8a6125a8565b836128f5565b525b612dcb886125a8565b906128f5565b519061259b565b9b612dcb856125a8565b51612e29612def8561257f565b8c5193849333859094939260a0926001600160a01b0360c08401971683526000602084015260006040840152606083015260808201520152565b0390a1611cff565b908d939291612c40565b97905080821115612eda577f1517c86fcf2bfb8e3468afcc539b0004955da8027797c497ea51d1f1094ab89893612dd1612e31979694612eaf85612e85612dd896612de2986125c6565b90819d612e9c8c600052601c602052604060002090565b01612ea883825461259b565b90556125c6565b8a612ec48a600052601c602052604060002090565b01558d9a612ed4612dba8a6125a8565b52612dc2565b612e3195949297507f1517c86fcf2bfb8e3468afcc539b0004955da8027797c497ea51d1f1094ab89893612dd1612f17612de294612dd8946125c6565b998d612ed4612dba8a6125a8565b5050818a90612c38565b845163cdab4c8760e01b8152600480820152602490fd5b612f5e919850893d8b1161045f576104518183611bb4565b9638612bf1565b845163cdab4c8760e01b8152600a6004820152602490fd5b5082612b96565b825163cdab4c8760e01b815260026004820152602490fd5b50505050505050565b5060326129d088956129ca565b612fca919550843d861161045f576104518183611bb4565b933861299a565b93505050565b60405190612fe482611b60565b601d82527f636f6d70757465446f6c6c6172546f4f7a6f6e652875696e74323536290000006020830152565b6130219061301c612770565b613474565b6001600255565b6040519061303582611b60565b601382527f55736572546f496e7374286164647265737329000000000000000000000000006020830152565b6040519061306e82611b60565b600b82527f6d696e74436f756e7428290000000000000000000000000000000000000000006020830152565b604051906130a782611b60565b600e82527f6d696e74732875696e74323536290000000000000000000000000000000000006020830152565b604051906130e082611b60565b600b82527f6d696e74656441676528290000000000000000000000000000000000000000006020830152565b6040519061311982611b60565b600b82527f6d696e74656471747928290000000000000000000000000000000000000000006020830152565b6040519061315282611b60565b600c82527f6964732875696e743235362900000000000000000000000000000000000000006020830152565b6040519061318b82611b60565b600982527f6d696e74416d74282900000000000000000000000000000000000000000000006020830152565b604051906131c482611b60565b600a82527f647261776e6167652829000000000000000000000000000000000000000000006020830152565b604051906131fd82611b60565b600c82527f4c53422875696e743235362900000000000000000000000000000000000000006020830152565b6040519061323682611b60565b600782527f647261776e2829000000000000000000000000000000000000000000000000006020830152565b91908260c091031261048b5781519160208101519160408201519160608101519160a0608083015192015190565b6040519061329d82611b60565b601382527f67657452657761726473286164647265737329000000000000000000000000006020830152565b919082604091031261048b576020825192015190565b604051906132ec82611b60565b600782527f626f6e75732829000000000000000000000000000000000000000000000000006020830152565b6040519061332582611b60565b600682527f63616765282900000000000000000000000000000000000000000000000000006020830152565b6040519061335e82611b60565b601982527f67657445666665637469766552616e6b286164647265737329000000000000006020830152565b6040519061339782611b60565b601f82527f6765746e6f646572616e6b61676528616464726573732c75696e7432353629006020830152565b604051906133d082611b60565b601082527f6765744e6f6465286164647265737329000000000000000000000000000000006020830152565b908160a091031261048b578051916020820151613418816106d9565b916040810151916080606083015161342f81610a8f565b920151611beb81610a8f565b6040519061344882611b60565b601a82527f77697468647261776e496e636f6d654f662861646472657373290000000000006020830152565b60095460081c60ff1661402057600490602061349b6103fa6000546001600160a01b031690565b6040519384809263111ea8c160e21b82525afa91821561046657600092613fff575b506135046117fc6134f66134d96001546001600160a01b031690565b604080516001600160a01b03909216602083015290928391820190565b6134fe613028565b84616796565b906001600160a01b03821615613fdb5760058111613fc25761352f61352761242a565b6115cf613061565b90600b5461353d818361259b565b831115613fba5761354d9161259b565b81613a6e575b5080600b5414908115613a65575b5061356a575050565b61358561358061357861242a565b6115cf6131b7565b600f55565b600f8054600d548111613a04575b506135bf6135b06135a261242a565b6135aa613229565b856166bd565b60208082518301019101613262565b9460016135dd9592959493946001600052601c602052604060002090565b01557ff5b6e61a0c14f171ef1c86f003900ef0305e4159fff3317e4fb7c351f2050c88557fb0deb225ecd3a242ef7d55f0f81ae3b924e0b6f9da8bc33b306fb32ca5f287f8557fadacb2ae086d090ae1cbb87d66774fa6d708dd14d5bdc5b6c1e455aa2020dfb8557fb2d730c3da277545f6c9f2c922ea3d0e9fcbd74e29d321b995a837ef61c283f1557ff83d70dc1f3bc56ae93d2f099ba46d689c41cc22a3494b582010b224cccab8fc5560008052602080527f29ab76e7ca72530a8284597fb76b039d796325740b21528d71ade454c6f2dbea546136c09061204e90612678565b6137076136f86040516136ea816117fc87602083019190916001600160a01b036020820193169052565b6136f2613290565b866166bd565b602080825183010191016132c9565b601c6020527f6de76108811faf2f94afbe5ac6c98e8393206cd093932de1fbfd61bbeec43a029190915560046000526000805160206169f48339815191525561375c61226d61375461242a565b6115946132df565b61377261358061376a61242a565b611594613318565b6137a96137a460405161379c816117fc87602083019190916001600160a01b036020820193169052565b611e54613351565b601055565b60005b818111156139115750506137ee61076c613814936137e66137fd94604051938491602083019190916001600160a01b036020820193169052565b6120e46133c3565b602080825183010191016133fc565b935050505060ff8019600954169115151617600955565b6004602061382d6103fa6000546001600160a01b031690565b604051928380927f6325dd040000000000000000000000000000000000000000000000000000000082525afa908115610466576138ab9161076c916000916138f2575b506138a36138866001546001600160a01b031690565b604080516001600160a01b03909216602083015290938491820190565b61164161343b565b6005600052601c6020527f0de3fcd0b495fcf96d4f4ab29f8e12012b60a56d458f4c95fdde42b927ce97a155600d54600e555b611c0c61010061ff00196009541617600955565b61390b915060203d60201161045f576104518183611bb4565b38613870565b8061392a91613979575b60105481111561392f57611cff565b6137ac565b604080516001600160a01b03861660208201529081018290526139749061396b9061395d81606081016117fc565b61396561338a565b8861681b565b611c4e8361189f565b611cff565b6040517f5329daca0000000000000000000000000000000000000000000000000000000060208201526001600160a01b0385166024820152604481018290526139d3906136f8906139cd81606481016117fc565b876168df565b906139e78360005260208052604060002090565b5560016139fd8360005260208052604060002090565b015561391b565b600d55613a346117fc613a268354604051928391602083019190602083019252565b613a2e6131f0565b84616857565b613a5e613a4d601e54600052601f602052604060002090565b600d54600052602052604060002090565b5538613593565b90501538613561565b60008052602080527f29ab76e7ca72530a8284597fb76b039d796325740b21528d71ade454c6f2dbe9547f29ab76e7ca72530a8284597fb76b039d796325740b21528d71ade454c6f2dbea549395909491929091905b600b5484811015613f5c57613adb613ae091611cff565b600b55565b600b5495613b0e604051613b00816117fc8b602083019190602083019252565b613b0861309a565b8a616796565b90613b22613b1a61242a565b6115cf6130d3565b91613b3c613b2e61242a565b613b3661310c565b8361681b565b91613b61604051613b59816117fc60208201906000602083019252565b6115cf613145565b90613b7e613b78613b7061242a565b611e5461317e565b93616992565b9a613b946103fa6000546001600160a01b031690565b6040517fcfaa1f6c0000000000000000000000000000000000000000000000000000000081526001600160a01b039d909d1660048e015260208d602481845afa9c8d156104665760009d613f3b575b506001600160a01b038d1615613ec9575b50613c016103908d6162fe565b611d4d57613ce092613c6f86613c69876103fa9681613c2d613cd198600052601d602052604060002090565b55836001613c47600b54600052601d602052604060002090565b01558b6002613c62600b54600052601d602052604060002090565b015561259b565b9d61259b565b9c613ccc613c856001546001600160a01b031690565b60405163c85700fb60e01b60208201526001600160a01b0390911660248201526044810193909352606483018890526084830187905260a483018990528260c4810161076c565b6168df565b60208082518301019101611bd6565b926001600160a01b03841615613eb057600490613d1060039586612006600b54600052601d602052604060002090565b6020613d276103fa6000546001600160a01b031690565b6040519384809263cfbffe5360e01b82525afa8015610466577f1517c86fcf2bfb8e3468afcc539b0004955da8027797c497ea51d1f1094ab8989561210b613e10613e08612106612140613db78a612116612111613da8613d99613e419c613e7e9f600091613e9757506120db61242a565b60208082518301019101612708565b9e9491959b92939890506126bc565b9461217f613e01601e613de38c61214088613ddd8554600052601f602052604060002090565b9261259b565b613dee8a825461273b565b905554600052601f602052604060002090565b938a61259b565b918254612757565b90556001600b5414613e89575b613e33600b54600052601d602052604060002090565b01546001600160a01b031690565b604080513381526001600160a01b03909216602083015281019490945260608401929092526080830191909152600060a0830152819060c0820190565b0390a1949394613ac4565b613e9283600d55565b613e1d565b61220e915060203d60201161045f576104518183611bb4565b604051635258db5f60e01b815260026004820152602490fd5b6040517fb771c89600000000000000000000000000000000000000000000000000000000815260006004820152919c50602090829060249082905afa90811561046657600091613f1c575b509a38613bf4565b613f35915060203d60201161045f576104518183611bb4565b38613f14565b613f55919d5060203d60201161045f576104518183611bb4565b9b38613be3565b5060008052602080527f29ab76e7ca72530a8284597fb76b039d796325740b21528d71ade454c6f2dbe9959095557f29ab76e7ca72530a8284597fb76b039d796325740b21528d71ade454c6f2dbea93909355939192905038613553565b50508061354d565b60405163cdab4c8760e01b815260036004820152602490fd5b505050613fe96135806163ca565b613ff4600f54600d55565b6138de600f54600e55565b61401991925060203d60201161045f576104518183611bb4565b90386134bd565b50565b91939492946000956000958061403b575b5050505050565b60105497509495509193909283156140a857600161408a836140939361407961407161409a9a9760005260208052604060002090565b91825461259b565b905560005260208052604060002090565b0191825461259b565b90556144dd565b601054903880808080614034565b816000526020805260406000208054918203918211610c985755600052602080526001604060002001928354908103908111610c985761409a93556144dd565b604051906140f582611b60565b601482527f6c6576656c436c617573652875696e74323536290000000000000000000000006020830152565b908160a091031261048b578051916020820151916040810151916080606083015192015190565b9190926000956141626103fa88546001600160a01b031690565b9360405197889563cfbffe5360e01b875286600460209b8c935afa958615610466578196614326575b5061419f8560005260208052604060002090565b6141aa83825461259b565b905560016141c18660005260208052604060002090565b016141cd88825461259b565b905560008052602080527f29ab76e7ca72530a8284597fb76b039d796325740b21528d71ade454c6f2dbe95415158061431d575b614215575b50505050505050505060105490565b61425861426897159961424b8b15988961430f575b604051906142438261076c8c8783019190602083019252565b6120e46140e8565b8051810182019101614121565b96929b919a9097600f54906125c6565b10918215614302575b50816142f9575b5015614206576142d69760039761408a97156142f05761211661429e6142a493866126bc565b9161268e565b985b156142e6575061429e6142bc93612116926126bc565b945b614079600261408a8460005260208052604060002090565b9055388080808080808080614206565b92505050946142be565b505080986142a6565b90501538614278565b6010541015915038614271565b6143188861437e565b61422a565b50841515614201565b61433e919650893d8b1161045f576104518183611bb4565b943861418b565b6040519061435282611b60565b601382527f72616e6b436c617573652875696e7432353629000000000000000000000000006020830152565b6143936103fa6000546001600160a01b031690565b604091825180809363cfbffe5360e01b8252602091829160049485915afa938415610466576000946144be575b506010906143ce825461258d565b600881106143df5750505050505050565b61441861440a88516143fc816117fc868883019190602083019252565b614404614345565b896166bd565b838082518301019101614121565b50505090811580156144b6575b614499579061444b929160115410159081614478575b5080614466575b61445057611cff565b6143ce565b61445981601055565b61397486611c4e8361189f565b508354614472826125a8565b14614442565b9050600161448f8360005260208052604060002090565b015410153861443b565b8851635258db5f60e01b8152600381880190815281906020010390fd5b508015614425565b816144d69295503d861161045f576104518183611bb4565b92386143c0565b906144f36103fa6000546001600160a01b031690565b9160409283518093819263cfbffe5360e01b8352602092839160049586915afa94851561046657600095614690575b50156145a157601090614535825461258d565b600881106145465750505050505050565b61456361440a88516143fc816117fc868883019190602083019252565b5050509081158015614599575b61449957906145949291601154101590816144785750806144665761445057611cff565b614535565b508015614570565b91509160009493945b6010548111614688576145e66145d887516145d0816117fc868983019190602083019252565b6135aa614345565b848082518301019101614121565b5050509082151580614678575b61465b579061461892916011541015908161463a575b501561461d5761397481601055565b6145aa565b6139746146298261189f565b8154906000199060031b1b19169055565b905060016146518360005260208052604060002090565b0154101538614609565b8751635258db5f60e01b8152600481880190815281906020010390fd5b508115806145f3575080156145f3565b505050509050565b6146a8919550823d841161045f576104518183611bb4565b9338614522565b611c0c90614a4c614a476146c283614b7d565b80516001600052601c602052614a3e90614a3990600390614703827f6de76108811faf2f94afbe5ac6c98e8393206cd093932de1fbfd61bbeec43a0261408a565b905560608401516004600052601c60205261472c826000805160206169f483398151915261408a565b90556020848101516002600052601c909152614768827ff5b6e61a0c14f171ef1c86f003900ef0305e4159fff3317e4fb7c351f2050c8761408a565b90556040840180516003600052601c6020529091906147a7827fb0deb225ecd3a242ef7d55f0f81ae3b924e0b6f9da8bc33b306fb32ca5f287f761408a565b905560808501516005600052601c6020526147e2827f0de3fcd0b495fcf96d4f4ab29f8e12012b60a56d458f4c95fdde42b927ce97a061408a565b905560a08501516006600052601c60205261481d827fb2d730c3da277545f6c9f2c922ea3d0e9fcbd74e29d321b995a837ef61c283f061408a565b905560c08501516007600052601c60205290614859907ff83d70dc1f3bc56ae93d2f099ba46d689c41cc22a3494b582010b224cccab8fb61408a565b905560e08401516001600052601c6020526002946101c09161489b877f6de76108811faf2f94afbe5ac6c98e8393206cd093932de1fbfd61bbeec43a0261408a565b90556101408101516004600052601c6020526148c5876000805160206169f483398151915261408a565b90556101008101516002600052601c602052614901877ff5b6e61a0c14f171ef1c86f003900ef0305e4159fff3317e4fb7c351f2050c8761408a565b9055610120810180516003600052601c602052909690614941827fb0deb225ecd3a242ef7d55f0f81ae3b924e0b6f9da8bc33b306fb32ca5f287f761408a565b90556101608201516005600052601c60205261497d827f0de3fcd0b495fcf96d4f4ab29f8e12012b60a56d458f4c95fdde42b927ce97a061408a565b90556101808201516006600052601c6020526149b9827fb2d730c3da277545f6c9f2c922ea3d0e9fcbd74e29d321b995a837ef61c283f061408a565b90556101a08201516007600052601c602052906149f6907ff83d70dc1f3bc56ae93d2f099ba46d689c41cc22a3494b582010b224cccab8fb61408a565b90550151614a2e614a2689614a17601e54600052601f602052604060002090565b90600052602052604060002090565b91825461273b565b90555160075461259b565b600755565b5160085461259b565b600855565b600d55565b604051906101e0820182811067ffffffffffffffff821117611b2257604052816101c06000918281528260208201528260408201528260608201528260808201528260a08201528260c08201528260e08201528261010082015282610120820152826101408201528261016082015282610180820152826101a08201520152565b60405190614adf82611b60565b600a82527f73687574646f776e2829000000000000000000000000000000000000000000006020830152565b60405190614b1882611b60565b601182527f696e636f6d654f662861646472657373290000000000000000000000000000006020830152565b60405190614b5182611b60565b601482527f636f6d70757465546f75722875696e74323536290000000000000000000000006020830152565b90614b86614a51565b91614b9c6103fa6000546001600160a01b031690565b9060405163ab6e844f60e01b8152602081600481865afa90811561046657600091615337575b506040519263cfbffe5360e01b8452602084600481845afa9182156104665786600495600094615311575b506101c09060209495614c10614c01614ad2565b614c096123de565b90896167df565b6103e76000526021602052614d6f8189876001614c4c7fb149ba332085eda4d73c14ffa5390e0d7d3e897d4b6450481101115a495082e761160c565b1495614cea614c59615d6d565b60608b0152808a52614ce4614cb26001614c7e6001600052601c602052604060002090565b01546001600052601c60205260037f6de76108811faf2f94afbe5ac6c98e8393206cd093932de1fbfd61bbeec43a02612a75565b6001600052601c60205260027f6de76108811faf2f94afbe5ac6c98e8393206cd093932de1fbfd61bbeec43a02612a75565b906125c6565b885260608801516004600052601c6020527fadacb2ae086d090ae1cbb87d66774fa6d708dd14d5bdc5b6c1e455aa2020dfb8548891614d6191614ce490614d419060036000805160206169f4833981519152612a75565b6004600052601c60205260026000805160206169f4833981519152612a75565b60608a01526152d757615542565b97909601526101008d0152878c01526000146152935750505061076c614da891612374600c546040519384918883019190602083019252565b3160408701525b604051938480927f52b06d640000000000000000000000000000000000000000000000000000000082525afa91821561046657600092615272575b50614e3c614e20614e036001546001600160a01b031690565b604080516001600160a01b03909216602083015290918291820190565b0393614e34601f1995868101845283611bb4565b611641614b0b565b6005600052601c6020527f0de3fcd0b495fcf96d4f4ab29f8e12012b60a56d458f4c95fdde42b927ce97a154909290614ecd90614e9b9060027f0de3fcd0b495fcf96d4f4ab29f8e12012b60a56d458f4c95fdde42b927ce97a0612a75565b6005600052601c60205260037f0de3fcd0b495fcf96d4f4ab29f8e12012b60a56d458f4c95fdde42b927ce97a0612a75565b60808601818152938181111561526457614eea91508451906125c6565b835260046010546002811015806151cf575b615195575b101580615100575b6150ce575b5050600160008190526021602052614f457f2b59c9df127166d3570f589f0cb7377a6b175795e70ab275ebf42fa16c0a23f461160c565b146150b2575b600460005260216020526001614f807f1ae06646c6742a506302a1833f6c3f508643fd4c5dcb1e323706d5c3441af29861160c565b14615094575b600560005260216020526001614fbb7ffb8633a1617da4af6a760ee9a6f35275b7a2d26730de1bb585e883dd94ef868f61160c565b14615076575b50600660005260216020526001614ff77f1e9146371cd3d4aba9c38f989c3ffa4877e0f71f671d10756cafc7d2b05d7f7e61160c565b14615056575b6007600052602160205260016150327f179bb4a3e3b811a5a7f3a6ad1b01db6cfc15b3d397314eec0425cf5b96616d8261160c565b1461503957565b600060c0830180516150516101a0860191825161259b565b905252565b600060a08301805161506e610180860191825161259b565b905252614ffd565b806000915161508b610160860191825161259b565b90525238614fc1565b600060608401516150ab610140860191825161259b565b5052614f86565b82516150c360e0850191825161259b565b905260008352614f4b565b6150f4916150ec6040519283612cbb60208201906004602083019252565b611641614b44565b60c08401523880614f0e565b506007600052601c6020527ff83d70dc1f3bc56ae93d2f099ba46d689c41cc22a3494b582010b224cccab8fc5461518f9061515d9060027ff83d70dc1f3bc56ae93d2f099ba46d689c41cc22a3494b582010b224cccab8fb612a75565b6007600052601c60205260037ff83d70dc1f3bc56ae93d2f099ba46d689c41cc22a3494b582010b224cccab8fb612a75565b15614f09565b6151c56040516151bd816151b160208201906002602083019252565b03868101835282611bb4565b611e54614b44565b60a0880152614f01565b506006600052601c6020527fb2d730c3da277545f6c9f2c922ea3d0e9fcbd74e29d321b995a837ef61c283f15461525e9061522c9060027fb2d730c3da277545f6c9f2c922ea3d0e9fcbd74e29d321b995a837ef61c283f0612a75565b6006600052601c60205260037fb2d730c3da277545f6c9f2c922ea3d0e9fcbd74e29d321b995a837ef61c283f0612a75565b15614efc565b61526d916125c6565b614eea565b61528c91925060203d60201161045f576104518183611bb4565b9038614dea565b156152c657505061076c6152ba91612374600c546040519384918883019190602083019252565b31610120870152614daf565b604089015261012088015250614daf565b87516152e860e08a0191825161259b565b90526000885260608801516153036101408a0191825161259b565b905260006060890152615542565b602094509061532f6101c092863d881161045f576104518183611bb4565b945090614bed565b615350915060203d60201161045f576104518183611bb4565b38614bc2565b604051906040820182811067ffffffffffffffff821117611b225760405260006020838281520152565b6040519061538d82611b27565b81615396615356565b81526153a0615356565b602082015260406153af615356565b910152565b604051906153c182611b60565b601882527f6765744261746368526f79616c7479436c6175736573282900000000000000006020830152565b6102a090818184031261048b5782601f8201121561048b57604080519361541385611b98565b849383019281841161048b57935b83851061543057505050505090565b60608583031261048b57825160609161544882611b27565b8651825260209182880151838201528588015186820152815201940193615421565b6040519061547782611b60565b601f82527f676574526f79616c697479416d6f756e7442617463682875696e7432353629006020830152565b9060e08282031261048b5780601f8301121561048b57604051916154c683611b98565b829060e0810192831161048b57905b8282106154e25750505090565b81518152602091820191016154d5565b9060078110156108475760051b0190565b8181029291600082127f8000000000000000000000000000000000000000000000000000000000000000821416610c98578184051490151715610c9857565b9190916000946000946000946000946000946155b26155a3615562615380565b9361556c84615818565b602087015190602082015252615581846158bc565b6040870151906020820152526155956153b4565b61559d6123de565b916166bd565b602080825183010191016153ed565b93600d54601054905b8381106155cb5750505050505050565b6156016155f26040516155ea816117fc86602083019190602083019252565b61440461546a565b602080825183010191016154a3565b6001905b838211156157245750508215615624575b61561f90611cff565b6155bb565b61564961564182614a17601e54600052601f602052604060002090565b54809c61273b565b9a61565482866125c6565b90600091604088015180518881106156ce575b50508083116156c6575b8261567b916125c6565b91806156b0575b5081615690575b5050615616565b9a6156a26156a89261561f949d615503565b9061273b565b999038615689565b9a6156a2829c6156bf93615503565b9938615682565b915081615671565b8086111561571b5750602085915b016156e7815161258d565b89101561570c5750875b81811115615667576157049294506125c6565b913880615667565b615716905161258d565b6156f1565b602090916156dc565b909c6157386157328f6125a8565b8a6154f2565b51511580156157b8575b6157ae5760208701518051841015908161579f575b50156157835761577761577d918f615771612dd1916125a8565b856154f2565b9d611cff565b90615605565b9c9d6157998f91612dd161577161577d946125a8565b9e611cff565b60209150015183111538615757565b9c61577d90611cff565b508d6157d06157c68261189f565b90549060031b1c90565b84101590816157e1575b5015615742565b61580f915060406158066158006157fa6157c68561189f565b936125a8565b8d6154f2565b5101519061259b565b8311158e6157da565b6002600090815260216020527f914a2534c436de5a3f77164e6b9b90d20144139ce899b6a8d30a442e7b9ef53380549193929082156158b4576001831661589a5750506157c69060028452602160205261587c604061588281872061587c856125b7565b90611c0e565b90549060031b1c9560028152602160205220916125a8565b90935061587c6158a9926125a8565b90549060031b1c9190565b509250508190565b6003600081815260216020527fbae8fb7bb9008c9bfa6625328b7613a2bedfb2f936a7718f51173039a77c107c8054919493908215615955576001831661593d57505061593590828552602160205261587c604061591f81882061587c856125b7565b905490861b1c96858152602160205220916125a8565b9054911b1c90565b90945061587c61594c926125a8565b9054911b1c9190565b50935050508190565b6040519061596b82611b60565b600982527f63617070696e67282900000000000000000000000000000000000000000000006020830152565b91908260c091031261048b5781519160208101519160408201516159ba81610a8f565b9160608101516159c981610a8f565b9160a0608083015161342f81610a8f565b906159e6600092614b7d565b906159fc6103fa6000546001600160a01b031690565b60405192839163cfbffe5360e01b835282600460209687935afa801561046657615a38615a4691615a8694600091615d50575b5061559561595e565b858082518301019101615997565b6000805260208052929893969294909392906121067f29ab76e7ca72530a8284597fb76b039d796325740b21528d71ade454c6f2dbe9546003549061259b565b97615a8f615d6d565b5050615ccb575b615c0d575b50615b4f575b615ad8575b50615abd615ac2916121066006546004549061259b565b61269f565b908284118015615acf5790565b50816005541190565b615b47615ac29295615b41615b21614d41615b01866101406060615abd9901519101519061259b565b6004600052601c60205260016000805160206169f4833981519152612a75565b6004600052601c60205260036000805160206169f4833981519152612a75565b9061259b565b949150615aa6565b94615c0790615b41615bd5615ba3615b7160408701516101208801519061259b565b6003600052601c60205260017fb0deb225ecd3a242ef7d55f0f81ae3b924e0b6f9da8bc33b306fb32ca5f287f7612a75565b6003600052601c60205260027fb0deb225ecd3a242ef7d55f0f81ae3b924e0b6f9da8bc33b306fb32ca5f287f7612a75565b60036000819052601c6020527fb0deb225ecd3a242ef7d55f0f81ae3b924e0b6f9da8bc33b306fb32ca5f287f7612a75565b94615aa1565b96615b41615c92615c60615c2e615cc4959b8801516101008901519061259b565b6002600052601c60205260017ff5b6e61a0c14f171ef1c86f003900ef0305e4159fff3317e4fb7c351f2050c87612a75565b60026000819052601c6020527ff5b6e61a0c14f171ef1c86f003900ef0305e4159fff3317e4fb7c351f2050c87612a75565b6002600052601c60205260037ff5b6e61a0c14f171ef1c86f003900ef0305e4159fff3317e4fb7c351f2050c87612a75565b9538615a9b565b9750615d4a615d18614cb2615ce6875160e08901519061259b565b60016000819052601c6020527f6de76108811faf2f94afbe5ac6c98e8393206cd093932de1fbfd61bbeec43a02612a75565b6001600052601c60205260037f6de76108811faf2f94afbe5ac6c98e8393206cd093932de1fbfd61bbeec43a02612a75565b97615a96565b615d679150873d891161045f576104518183611bb4565b38615a2f565b600090816001815b600f821115615ddc5750506001600052601c6020527f6de76108811faf2f94afbe5ac6c98e8393206cd093932de1fbfd61bbeec43a02548101809111610c98576004600052601c602052916000805160206169f4833981519152548101809111610c985790565b90938482526020928380526040600281852001548201809211610c9857600391948785528052832001548101809111610c9857615e199094611cff565b90615d75565b919091615e2a6127a9565b926001808314615ff657506002808314615ff657506003808314615ff65760048314615f8a5760058314615f495750615e8990615e656163ca565b90600d54615e73828261259b565b831115615f4257615e84925061259b565b614b7d565b9060068114615ef357600714615e9c5750565b9091506101a0615eaa6123b5565b9160e08101518352610100810151602084015261012081015160408401526101408101516060840152610160810151608084015261018081015160a0840152015160c082015290565b5090915060c0615f016123b5565b91805183526020810151602084015260408101516040840152606081015160608401526080810151608084015260a081015160a0840152015160c082015290565b5050614b7d565b9293505050615f566123b5565b9054815260045460208201526006546040820152600554606082015260006080820152600060a0820152600060c082015290565b5050509050615f976123b5565b60075481526008546020820152615fb96001600052601c602052604060002090565b5460408201526004600052601c6020526000805160206169f483398151915254606082015260006080820152600060a0820152600060c082015290565b92935050506160036123b5565b7f6de76108811faf2f94afbe5ac6c98e8393206cd093932de1fbfd61bbeec43a0282015481527ff5b6e61a0c14f171ef1c86f003900ef0305e4159fff3317e4fb7c351f2050c878201546020808301919091527fb0deb225ecd3a242ef7d55f0f81ae3b924e0b6f9da8bc33b306fb32ca5f287f783015460408301526000805160206169f483398151915283015460608301527f0de3fcd0b495fcf96d4f4ab29f8e12012b60a56d458f4c95fdde42b927ce97a083015460808301527fb2d730c3da277545f6c9f2c922ea3d0e9fcbd74e29d321b995a837ef61c283f083015460a08301526007600052601c90527ff83d70dc1f3bc56ae93d2f099ba46d689c41cc22a3494b582010b224cccab8fb9091015460c082015290565b6040519061612b82611b06565b60006060838281528260208201528260408201520152565b9060405161615081611b06565b6060600382948054845260018101546020850152600281015460408501520154910152565b67ffffffffffffffff8111611b225760051b60200190565b9061619782616175565b6161a46040519182611bb4565b82815280926161b5601f1991616175565b019060005b8281106161c657505050565b6020906161d161611e565b828285010152016161ba565b80518210156108475760209160051b010190565b9081602091031261048b5751611beb81610a8f565b6001600160a01b03600054166040518091634bf9c0ad60e11b825281600460209485935afa801561046657616281916000916162a8575b5060405161624a81611b60565b600881527f69735361666528290000000000000000000000000000000000000000000000008482015261627b6123de565b916166e8565b908061629e575b156107bc5781611beb92825183010191016161f1565b5081815114616288565b6162bf9150833d851161045f576104518183611bb4565b3861623d565b604051906162d282611b60565b601582527f69735365637572654261736528616464726573732900000000000000000000006020830152565b6163136103fa6000546001600160a01b031690565b906040518092634bf9c0ad60e11b825281600460209586935afa8015610466576162819261076c9260009261636e575b50616366906040519384918783019190916001600160a01b036020820193169052565b6107826162c5565b61636691925061638a90863d881161045f576104518183611bb4565b9190616343565b6040519061639e82611b60565b601182527f69735369676e65722861646472657373290000000000000000000000000000006020830152565b600460206001600160a01b03600054166040519283809263111ea8c160e21b82525afa801561046657611beb9160009161644c575b5060405161640c81611b60565b600581527f616765282900000000000000000000000000000000000000000000000000000060208201526040519161644383611b7c565b6000835261681b565b616464915060203d811161045f576104518183611bb4565b386163ff565b6040519061647782611b60565b601882527f697364656c656761746f724e6f646528616464726573732900000000000000006020830152565b6001600160a01b03809116908115610a43576001548273ffffffffffffffffffffffffffffffffffffffff19821617600155167f8292fce18fa69edf4db7b94ea2e58241df0ae57f97e0a6c9b29067028bf92d76600080a3565b3d15616528573d9061650e826123c2565b9161651c6040519384611bb4565b82523d6000602084013e565b606090565b908015611c95576001600160a01b038216918215610a4357600080808481945af16165566164fd565b50156107bc5760207fcec1f18c3ab8ddaaa107a1591e3c369667eec613626611a8deaedef43069fcdd91604051908152a2565b600061659f6103fa82546001600160a01b031690565b9060405180927f46f991ac00000000000000000000000000000000000000000000000000000000825281600460209586935afa801561046657828086819493829483916166a0575b505af16165f26164fd565b50156107bc5760048261660f6103fa84546001600160a01b031690565b604051928380927f5e09dbe70000000000000000000000000000000000000000000000000000000082525afa908115610466577fcdcc745fe377b103b45fa0cec23ae3ef93d6fc6a84a01f0d18c40b354dd1d5d8936001600160a01b039392616683575b50506040519384521691602090a2565b6166999250803d1061045f576104518183611bb4565b3880616673565b6166b79150883d8a1161045f576104518183611bb4565b386165e7565b906166c892916166e8565b90600090156166d5575090565b60405191506166e382611b7c565b815290565b9190823b1561677d577fffffffff00000000000000000000000000000000000000000000000000000000815160208093012016916040519180830193845281519160005b83811061676957505050918161675960248260009795968897018783820152036004810184520182611bb4565b51915afa6167656164fd565b9091565b81810183015185820160240152820161672c565b50505060009060405161678f81611b7c565b6000815290565b92916167a4916000946166e8565b90806167d4575b6167b25750565b6001600160a01b03919250806020806167d093518301019101611bd6565b1690565b5060208151146167ab565b92916167ed916000946166e8565b9080616810575b6167fb5750565b611beb919250602080825183010191016161f1565b5060208151146167f4565b9291616829916000946166e8565b908061684c575b6168375750565b611beb9192506020808251830101910161293f565b506020815114616830565b9291616865916000946166e8565b908061688a575b6168735750565b90915060208180518101031261048b576020015190565b50602081511461686c565b90602082519201517fffffffff000000000000000000000000000000000000000000000000000000009081811693600481106168d057505050565b60040360031b82901b16169150565b6001600160a01b03811615610a4357600080918351908260208601915af1906169066164fd565b9115616910575090565b80516000919060041161698c576169279150616895565b8151156169375750805190602001fd5b6040517f21c09d340000000000000000000000000000000000000000000000000000000081527fffffffff00000000000000000000000000000000000000000000000000000000919091166004820152602490fd5b50616927565b803b600061699f826123c2565b926169ad6040519485611bb4565b82845260208401903c602d8151106169c957602a015160601c90565b60046040517fbaf3f0f7000000000000000000000000000000000000000000000000000000008152fdfeadacb2ae086d090ae1cbb87d66774fa6d708dd14d5bdc5b6c1e455aa2020dfb7a264697066735822122064f92724dcdba1aee834acd9b5a04a34a925a9f8794337a0e63a3fb4afb7e46a64736f6c63430008140033","linkReferences":{}},"methodIdentifiers":{"instanceStor()":"131c73ad"},"id":69}