{"abi":[{"type":"constructor","inputs":[{"name":"_hex","type":"address","internalType":"address"},{"name":"_price","type":"address","internalType":"address"},{"name":"_old741","type":"address","internalType":"address"}],"stateMutability":"nonpayable"},{"type":"function","name":"dAOAssembly","inputs":[],"outputs":[{"name":"","type":"address","internalType":"address"}],"stateMutability":"view"},{"type":"function","name":"daocore","inputs":[],"outputs":[{"name":"","type":"address","internalType":"address"}],"stateMutability":"view"},{"type":"function","name":"nested741","inputs":[],"outputs":[{"name":"","type":"address","internalType":"address"}],"stateMutability":"view"},{"type":"function","name":"old741","inputs":[],"outputs":[{"name":"","type":"address","internalType":"address"}],"stateMutability":"view"},{"type":"function","name":"price","inputs":[],"outputs":[{"name":"","type":"address","internalType":"address"}],"stateMutability":"view"}],"bytecode":{"object":"0x6080346101b757601f61948738819003918201601f19168301926001600160401b03929091838511838610176101a15781606092849260409788528339810103126101b75761004d816101bc565b6100648461005d602085016101bc565b93016101bc565b9160018060a01b03199273c0cee8b561cc4f60869776ca5b0b7a295e04f5af846001541617600155855161130a9586820196828810828911176101a15761032583396001600160a01b039485168088526000979092908190036020019088f080156101835785168660035416176003558751615d5e808201908282108483111761018d576020918391613729833985815203019088f080156101835785168660025416176002558751916120fa808401928484109084111761016f5791839160209361162f8439815203019086f080156101655790838092168560045416176004551683600154161760015516908254161790555161015490816101d18239f35b86513d87823e3d90fd5b634e487b7160e01b89526041600452602489fd5b88513d89823e3d90fd5b634e487b7160e01b8a52604160045260248afd5b634e487b7160e01b600052604160045260246000fd5b600080fd5b51906001600160a01b03821682036101b75756fe608080604052600436101561001357600080fd5b600090813560e01c90816314837455146100f55750806314d8d024146100ce57806345cff900146100a75780635540c5ac146100805763a035b1fe1461005857600080fd5b3461007d578060031936011261007d576001600160a01b036020915416604051908152f35b80fd5b503461007d578060031936011261007d5760206001600160a01b0360015416604051908152f35b503461007d578060031936011261007d5760206001600160a01b0360025416604051908152f35b503461007d578060031936011261007d5760206001600160a01b0360045416604051908152f35b90503461011a578160031936011261011a576020906001600160a01b03600354168152f35b5080fdfea26469706673582212200d6e81ca1a3bc95b6a6d024846fe43ca0dab670e4dc907f21ef39f2e950a034a64736f6c634300081400336080346100ca57601f61130a38819003918201601f19168301916001600160401b038311848410176100cf578084926020946040528339810103126100ca57516001600160a01b038116908190036100ca5780156100855760018060a01b0319338160015416176001556000541617600055600060045560405161122490816100e68239f35b60405162461bcd60e51b815260206004820152601360248201527f6f776e2e696e76616c69642e68657862617365000000000000000000000000006044820152606490fd5b600080fd5b634e487b7160e01b600052604160045260246000fdfe60806040526004361015610018575b361561001657005b005b60003560e01c806312065fe0146101085780631f185d161461010357806325924f34146100fe5780633b9b7955146100f957806361b7fbd9146100f45780638da5cb5b146100ef578063a1f7f539146100ea578063af484526146100e5578063b90306ad146100e0578063c54e44b0146100db578063c89b84fd146100d6578063dbac26e9146100d1578063e01ad5fd146100cc578063e0a9bc2b146100c75763fdc10bc90361000e5761099a565b6108fb565b610861565b61081e565b610714565b610672565b610552565b610481565b6103c3565b61039c565b6102c5565b610294565b610263565b61013a565b3461012457600036600319011261012457602047604051908152f35b600080fd5b6001600160a01b0381160361012457565b34610124576020806003193601126101245760049081359061015b82610129565b8061017d6101716000546001600160a01b031690565b6001600160a01b031690565b60405194858092634bf9c0ad60e11b82525afa91821561025e576101d161020b936101ed9261021d9660009261022b575b506101df906040519384918783019190916001600160a01b036020820193169052565b03601f198101845283610a10565b6101e7610e81565b90611072565b919080610221575b6101fe90610eba565b8082518301019101610de8565b60405190151581529081906020820190565b0390f35b50815181146101f5565b6101df91925061025090863d8811610257575b6102488183610a10565b810190610a32565b91906101ae565b503d61023e565b610a4a565b3461012457602036600319011261012457602061028a60043561028581610129565b610b69565b6040519015158152f35b346101245760003660031901126101245760206001600160a01b0360005416604051908152f35b8015150361012457565b34610124576040366003190112610124576004356102e281610129565b6024356102ee816102bb565b6001600160a01b03600092600460208386541660405192838092630536340960e21b82525afa801561025e5761032f91869161037e575b5083163314610d03565b16825260036020526040822060ff1981541660ff8315151617905560001461036b5760045460001981146103665760010160045580f35b610d4e565b6004548015610366576000190160045580f35b610396915060203d8111610257576102488183610a10565b38610325565b346101245760003660031901126101245760206001600160a01b0360015416604051908152f35b3461012457600036600319011261012457600460206001600160a01b03600054166040519283809263d1f956b160e01b82525afa90811561025e5761021d9161045391600091610463575b5060405161041b816109d3565b601381527f67657464656c656761746f72436f756e74282900000000000000000000000000602082015261044d610a72565b916111b0565b6040519081529081906020820190565b61047b915060203d8111610257576102488183610a10565b3861040e565b3461012457602080600319360112610124576004908135906104a282610129565b806104b86101716000546001600160a01b031690565b60405194858092634bf9c0ad60e11b82525afa91821561025e576101d161020b936105149261021d9660009261052f575b5061050c906040519384918783019190916001600160a01b036020820193169052565b6101e7610dfd565b919080610525575b6101fe90610e36565b508151811461051c565b61050c91925061054b90863d8811610257576102488183610a10565b91906104e9565b3461012457602080600319360112610124576004356001600160a01b0391600092808454169060405191630536340960e21b83528383600481845afa92831561025e5760049385936105ae928992610653575b50163314610d03565b604051928380927f46f991ac0000000000000000000000000000000000000000000000000000000082525afa91821561025e5784808561060595829583958492610636575b50505af16105ff610ff7565b50611027565b60405190815233907fcdcc745fe377b103b45fa0cec23ae3ef93d6fc6a84a01f0d18c40b354dd1d5d890602090a280f35b61064c9250803d10610257576102488183610a10565b38806105f3565b61066b919250853d8711610257576102488183610a10565b90386105a5565b346101245760203660031901126101245760043561068f81610129565b803b600061069c82610a56565b926106aa6040519485610a10565b82845260208401903c602d8151106106d057602a015160405160609190911c8152602090f35b606460405162461bcd60e51b815260206004820152601360248201527f4e6f742061206d696e696d616c2070726f7879000000000000000000000000006044820152fd5b346101245760008060031936011261081b5761073a61017182546001600160a01b031690565b906040519163cfbffe5360e01b835260208084600481855afa801561025e57610779829160049686916107fe575b50610771610a85565b61044d610a72565b926040519586809263ab6e844f60e01b82525afa90811561025e5761021d9461045394926107db575b506107cd906101d16107b2610f05565b94604051958693840160209093929193604081019481520152565b6107d5610cca565b906111b0565b8192506107f7906107cd923d8511610257576102488183610a10565b91906107a2565b6108159150833d8511610257576102488183610a10565b38610768565b80fd5b34610124576020366003190112610124576001600160a01b0360043561084381610129565b166000526003602052602060ff604060002054166040519015158152f35b3461012457602080600319360112610124576004803561088081610129565b6001600160a01b03928084600054166040519485809263d1f956b160e01b82525afa90811561025e5761021d9461020b946000936108dc575b5060405193168184015282526108ce826109d3565b6108d6610fbe565b90611174565b6108f4919350823d8411610257576102488183610a10565b91386108b9565b34610124576000366003190112610124576001600160a01b03600054166040518091634bf9c0ad60e11b825281600460209384935afa90811561025e5761096261020b9261021d9460009161097d575b50610954610d64565b61095c610a72565b91611072565b919080610973575b6101fe90610d9d565b508151811461096a565b6109949150833d8511610257576102488183610a10565b3861094b565b346101245760003660031901126101245760206109b5610f05565b604051908152f35b634e487b7160e01b600052604160045260246000fd5b6040810190811067ffffffffffffffff8211176109ef57604052565b6109bd565b6020810190811067ffffffffffffffff8211176109ef57604052565b90601f8019910116810190811067ffffffffffffffff8211176109ef57604052565b908160209103126101245751610a4781610129565b90565b6040513d6000823e3d90fd5b67ffffffffffffffff81116109ef57601f01601f191660200190565b60405190610a7f826109f4565b60008252565b60405190610a92826109d3565b600c82527f72616e6b666f7244414f282900000000000000000000000000000000000000006020830152565b60405190610acb826109d3565b601682527f67657455736572546f53746f72286164647265737329000000000000000000006020830152565b60405190610b04826109d3565b600682527f72616e6b282900000000000000000000000000000000000000000000000000006020830152565b60405190610b3d826109d3565b600882527f69734c6f636b28290000000000000000000000000000000000000000000000006020830152565b610b7e6101716000546001600160a01b031690565b9060405163cfbffe5360e01b81526020908181600481875afa801561025e57610bb583916004936000916107fe5750610771610a85565b946040519283809263ab6e844f60e01b82525afa801561025e57610c0e928492600092610ca7575b506040516001600160a01b03909316908301908152610c009083906020016101d1565b610c08610abe565b90611123565b916001600160a01b03831615610c9f57610c52610c3b610c2c610af7565b610c34610a72565b90866111b0565b93610c44610b30565b610c4c610a72565b91611174565b9210159182610c96575b5081610c66575090565b610a479150610c8b610c92916001600160a01b03166000526003602052604060002090565b5460ff1690565b1590565b15915038610c5c565b505050600090565b819250610cc390610c00923d8511610257576102488183610a10565b9190610bdd565b60405190610cd7826109d3565b601d82527f67657472616e6b636f756e742875696e743235362c75696e74323536290000006020830152565b15610d0a57565b606460405162461bcd60e51b815260206004820152600f60248201527f6f776e2e6e6f6e617574682e44414f00000000000000000000000000000000006044820152fd5b634e487b7160e01b600052601160045260246000fd5b60405190610d71826109d3565b600882527f69735361666528290000000000000000000000000000000000000000000000006020830152565b15610da457565b606460405162461bcd60e51b815260206004820152601960248201527f6f776e2e7361666567756172642e63616c6c2e6661696c6564000000000000006044820152fd5b908160209103126101245751610a47816102bb565b60405190610e0a826109d3565b601582527f69735365637572654261736528616464726573732900000000000000000000006020830152565b15610e3d57565b606460405162461bcd60e51b815260206004820152601a60248201527f6f776e2e736563757265626173652e63616c6c2e6661696c65640000000000006044820152fd5b60405190610e8e826109d3565b601182527f69735369676e65722861646472657373290000000000000000000000000000006020830152565b15610ec157565b606460405162461bcd60e51b815260206004820152601660248201527f6f776e2e7369676e65722e63616c6c2e6661696c6564000000000000000000006044820152fd5b600460206001600160a01b0360005416604051928380927f447aa3040000000000000000000000000000000000000000000000000000000082525afa801561025e57610a4791600091610fa0575b50604051610f60816109d3565b600581527f6167652829000000000000000000000000000000000000000000000000000000602082015260405191610f97836109f4565b600083526111b0565b610fb8915060203d8111610257576102488183610a10565b38610f53565b60405190610fcb826109d3565b601882527f697364656c656761746f724e6f646528616464726573732900000000000000006020830152565b3d15611022573d9061100882610a56565b916110166040519384610a10565b82523d6000602084013e565b606090565b1561102e57565b606460405162461bcd60e51b815260206004820152600f60248201527f6f776e2e6275726e2e6661696c656400000000000000000000000000000000006044820152fd5b9190823b1561110a577fffffffff00000000000000000000000000000000000000000000000000000000815160208093012016916040519180830193845281519160005b8381106110f65750505091816110e360248260009795968897018783820152036004810184520182610a10565b5191620dbba0fa6110f2610ff7565b9091565b8181018301518582016024015282016110b6565b50505060009060405161111c816109f4565b6000815290565b929161113191600094611072565b9080611169575b61113f5750565b9091506020818051810103126101245760206001600160a01b0391015161116581610129565b1690565b506020815114611138565b929161118291600094611072565b90806111a5575b6111905750565b610a4791925060208082518301019101610de8565b506020815114611189565b92916111be91600094611072565b90806111e3575b6111cc5750565b909150602081805181010312610124576020015190565b5060208151146111c556fea2646970667358221220eaef448ad9487daeb65d893b870f1c83da5b3723d4eaf4bb5197f2218f82def664736f6c634300081400336080346100cf57601f6120fa38819003918201601f19168301916001600160401b038311848410176100d4578084926020946040528339810103126100cf57516001600160a01b038116908190036100cf57801561008a5760018060a01b03193381600154161760015560005416176000556033600355600360045560405161200f90816100eb8239f35b60405162461bcd60e51b815260206004820152601360248201527f6f776e2e696e76616c69642e68657862617365000000000000000000000000006044820152606490fd5b600080fd5b634e487b7160e01b600052604160045260246000fdfe60806040526004361015610018575b361561001657005b005b60003560e01c8063013cf08b1461018857806312065fe0146101835780631f185d161461017e5780633b9b7955146101795780634072265b14610174578063438596321461016f5780635c622a0e1461016a57806365153c4b14610165578063709df8d9146101605780638da5cb5b1461015b57806398e527d314610156578063995e433914610151578063a1f7f5391461014c578063af48452614610147578063b90306ad14610142578063c54e44b01461013d578063c7f758a814610138578063c9d27afe14610133578063d153356b1461012e578063e01ad5fd14610129578063e0a9bc2b14610124578063fdc10bc91461011f5763ffa734f00361000e57610f41565b610ef8565b610edd565b610eb6565b610dfb565b610c6d565b610bed565b610b05565b610a30565b61090b565b6108e8565b610864565b610846565b61081f565b6107e0565b610667565b610611565b6105ac565b61056f565b610548565b610517565b6104ea565b610425565b6005548110156101c857600c906005600052027f036b6384b5eca791c62761152d0c79bb0604c104a5fb6f4eb0703f3154bb3db00190600090565b634e487b7160e01b600052603260045260246000fd5b90600182811c9216801561020e575b60208310146101f857565b634e487b7160e01b600052602260045260246000fd5b91607f16916101ed565b9060009291805491610229836101de565b91828252600193848116908160001461028b575060011461024b575b50505050565b90919394506000526020928360002092846000945b838610610277575050505001019038808080610245565b805485870183015294019385908201610260565b9294505050602093945060ff191683830152151560051b01019038808080610245565b634e487b7160e01b600052604160045260246000fd5b6020810190811067ffffffffffffffff8211176102e057604052565b6102ae565b6040810190811067ffffffffffffffff8211176102e057604052565b90601f8019910116810190811067ffffffffffffffff8211176102e057604052565b9061033e6103379260405193848092610218565b0383610301565b565b60005b8381106103535750506000910152565b8181015183820152602001610343565b9060209161037c81518092818552858086019101610340565b601f01601f1916010190565b9b9997959392909e9d9c9a9896949e8c6101c08091528d016103a991610363565b916001600160a01b031660208d015260408c01528a810360608c01526103ce91610363565b9b60808a015260a089015260c088015260e087015261010086015261012085016103f89115159052565b15156101408401526001600160a01b031661016083015215156101808201526101a00161033e9115159052565b346104e55760203660031901126104e5576004356005548110156104e55761044c9061018d565b506040519061045f826103378184610218565b6104e161047660018301546001600160a01b031690565b60028301549061048860038501610323565b946004850154946005810154966006820154916007810154600a6008830154920154936040519a8b9a8b9560ff8860b81c169a60ff8960b01c169a6001600160a01b038a60101c169a60ff808c60081c169b1699610388565b0390f35b600080fd5b346104e55760003660031901126104e557602047604051908152f35b6001600160a01b038116036104e557565b346104e55760203660031901126104e557602061053e60043561053981610506565b6119c2565b6040519015158152f35b346104e55760003660031901126104e55760206001600160a01b0360005416604051908152f35b346104e55760203660031901126104e55760043560001981019081116105a757600561059c60209261018d565b500154604051908152f35b61130e565b346104e55760403660031901126104e5576004356024356105cc81610506565b60001982019182116105a75761060560ff9160096105eb60209561018d565b5001906001600160a01b0316600052602052604060002090565b54166040519015158152f35b346104e55760203660031901126104e55760043560001981019081116105a757600a61063e60409261018d565b50015460ff825191818160b01c161515835260b81c1615156020820152f35b801515036104e557565b346104e55760403660031901126104e5576004356024356106878161065d565b610690336119c2565b1561079c5760056106a86106a38461139d565b61018d565b5061076c61075f600b83016106e96106e46106e06106d93385906001600160a01b0316600052602052604060002090565b5460ff1690565b1590565b611523565b610747600a85015461070160ff8260b81c1615611442565b61071060ff8260081c166113ac565b61071c60ff821661156e565b610733610727611a6c565b600788015411156115b9565b60101c6001600160a01b03163314156114d8565b336001600160a01b0316600052602052604060002090565b805460ff19166001179055565b016107778154611604565b809155600454148015610794575b61078b57005b610016916116d6565b508015610785565b606460405162461bcd60e51b815260206004820152601260248201527f6f776e2e696e76616c69642e7369676e657200000000000000000000000000006044820152fd5b346104e55760403660031901126104e55760043560243561080081610506565b60001982019182116105a75761060560ff91600b6105eb60209561018d565b346104e55760003660031901126104e55760206001600160a01b0360015416604051908152f35b346104e55760003660031901126104e5576020600554604051908152f35b346104e55760203660031901126104e55760043560001981019081116105a75761088d9061018d565b506004810154600682015460078301546008840154600a9094015460408051948552602085019390935291830152606082019290925260ff60b083901c81161515608083015260b89290921c909116151560a082015260c090f35b346104e55760003660031901126104e5576020610903611c06565b604051908152f35b346104e5576020806003193601126104e55760049081359061092c82610506565b8061094e6109426000546001600160a01b031690565b6001600160a01b031690565b60405194858092634bf9c0ad60e11b82525afa918215610a2b576109a26109dc936109be926104e1966000926109f8575b506109b0906040519384918783019190916001600160a01b036020820193169052565b03601f198101845283610301565b6109b86118ba565b90611dc1565b9190806109ee575b6109cf906118f3565b80825183010191016117e5565b60405190151581529081906020820190565b50815181146109c6565b6109b0919250610a1d90863d8811610a24575b610a158183610301565b81019061175a565b919061097f565b503d610a0b565b611772565b346104e55760203660031901126104e55760046001600160a01b0360208160005416604051938480927f14d8d0240000000000000000000000000000000000000000000000000000000082525afa918215610a2b57600092610ae5575b5033911603610aa157610016600435611ccd565b606460405162461bcd60e51b815260206004820152600f60248201527f6f776e2e6e6f6e617574682e44414f00000000000000000000000000000000006044820152fd5b610afe91925060203d8111610a2457610a158183610301565b9038610a8d565b346104e55760203660031901126104e557600435610b2281610506565b803b6000610b2f8261177e565b92610b3d6040519485610301565b82845260208401903c602d815110610b6357602a015160405160609190911c8152602090f35b606460405162461bcd60e51b815260206004820152601360248201527f4e6f742061206d696e696d616c2070726f7879000000000000000000000000006044820152fd5b94919093610bc360a0959897949860c0885260c0880190610363565b976001600160a01b0380931660208801526040870152166060850152151560808401521515910152565b346104e55760203660031901126104e55760043560001981019081116105a757610c169061018d565b506001600160a01b036104e18160018401541691600284015493610c48610c4f600a8301549260405192838092610218565b0382610301565b60405195869560ff84169460ff8560081c169460101c169287610ba7565b346104e55760403660031901126104e557600435602435610c8d8161065d565b610c96336119c2565b8015610dd8575b610ca690611352565b610cb26106a38361139d565b50600a8101906008825493610ccb60ff86841c166113ac565b610ce26007840154610cdb611a6c565b11156113f7565b610cf260ff8660b81c1615611442565b610d256009840195610733610d206106e06106d9338b906001600160a01b0316600052602052604060002090565b61148d565b60008115610dd257506001905b610d4460ff6004860193168354611345565b8255600090610dc55750610d8461075f6001965b610d6a60ff6006880199168954611345565b8855336001600160a01b0316600052602052604060002090565b5491015480911092831593610db9575b505081610dac575b50610da357005b61001690611613565b5460ff1615905038610d9c565b54101591503880610d94565b61075f610d849196610d58565b90610d32565b50610de16117fa565b8015610c9d5750610ca6610df433611b25565b9050610c9d565b346104e55760403660031901126104e557610e146117fa565b15610e7257333003610e2e57600480356003556024359055005b606460405162461bcd60e51b815260206004820152600d60248201527f64616f2e66616b652e636f7265000000000000000000000000000000000000006044820152fd5b606460405162461bcd60e51b815260206004820152601260248201527f6f776e2e696e76616c69642e69735361666500000000000000000000000000006044820152fd5b346104e55760203660031901126104e557602061053e600435610ed881610506565b611b25565b346104e55760003660031901126104e557602061053e6117fa565b346104e55760003660031901126104e5576020610903611a6c565b9181601f840112156104e55782359167ffffffffffffffff83116104e557602083818601950101116104e557565b346104e55760c03660031901126104e55767ffffffffffffffff6004358181116104e557610f73903690600401610f13565b9091602435610f8181610506565b6064358281116104e557610f99903690600401610f13565b9160a43594610fa78661065d565b6001600160a01b038216156111ae5760055490680100000000000000008210156102e057610fdc60019283810160055561018d565b509581116102e057610ff881610ff288546101de565b886111f2565b6000601f8211600114611134579261107b94928261106a93600a99989661111b9c600092611129575b5050600019600383901b1c191690821b1787555b8601906001600160a01b03167fffffffffffffffffffffffff0000000000000000000000000000000000000000825416179055565b604435600285015560038401611246565b6110a161109a61109561108c611c06565b60035490611324565b611337565b6064900490565b60088201556110b96084356110b4611a6c565b611345565b60078201550180543360101b75ffffffffffffffffffffffffffffffffffffffff0000167fffffffffffffffffffff000000000000000000000000000000000000000000ff909116176101001760ff191660ff92151592909216919091179055565b600554604051908152602090f35b013590503880611021565b601f1982169061114988600052602060002090565b91815b81811061119857509383600a9998969361111b9c839461106a9761107b9b991061117e575b505050811b018755611035565b0135600019600384901b60f8161c19169055388080611171565b8b8301358455928501926020928301920161114c565b606460405162461bcd60e51b815260206004820152601260248201527f6f776e2e64656661756c742e73656e64657200000000000000000000000000006044820152fd5b90601f811161120057505050565b600091825260208220906020601f850160051c8301941061123c575b601f0160051c01915b82811061123157505050565b818155600101611225565b909250829061121c565b90929167ffffffffffffffff81116102e05761126c8161126684546101de565b846111f2565b6000601f82116001146112a6578192939460009261129b575b50508160011b916000199060031b1c1916179055565b013590503880611285565b601f198216946112bb84600052602060002090565b91805b8781106112f65750836001959697106112dc575b505050811b019055565b0135600019600384901b60f8161c191690553880806112d2565b909260206001819286860135815501940191016112be565b634e487b7160e01b600052601160045260246000fd5b818102929181159184041417156105a757565b90606382018092116105a757565b919082018092116105a757565b1561135957565b606460405162461bcd60e51b815260206004820152601660248201527f64616f2e6e6f6e617574682e64656c656761746f7273000000000000000000006044820152fd5b6000198101919082116105a757565b156113b357565b606460405162461bcd60e51b815260206004820152601160248201527f64616f2e70726f702e6e6f7465786973740000000000000000000000000000006044820152fd5b156113fe57565b606460405162461bcd60e51b815260206004820152601060248201527f64616f2e766f74696e672e656e646564000000000000000000000000000000006044820152fd5b1561144957565b606460405162461bcd60e51b815260206004820152601560248201527f64616f2e616c72656164792e636f6d706c6574656400000000000000000000006044820152fd5b1561149457565b606460405162461bcd60e51b815260206004820152601160248201527f64616f2e616c72656164792e766f7465640000000000000000000000000000006044820152fd5b156114df57565b606460405162461bcd60e51b815260206004820152601260248201527f64616f2e766f7465722e726573747269637400000000000000000000000000006044820152fd5b1561152a57565b606460405162461bcd60e51b815260206004820152601260248201527f64616f2e616c72656164792e7369676e656400000000000000000000000000006044820152fd5b1561157557565b606460405162461bcd60e51b815260206004820152601360248201527f64616f2e70726f702e6d7573747369676e6564000000000000000000000000006044820152fd5b156115c057565b606460405162461bcd60e51b815260206004820152601360248201527f64616f2e6265666f72652e646561646c696e65000000000000000000000000006044820152fd5b60001981146105a75760010190565b6106a361161f9161139d565b5060ff600a820161163d81600160b81b60ff60b81b19825416179055565b61166f6004840154600885015481101590816116c8575b50825460ff60b01b191690151560b01b60ff60b01b16178255565b5460b01c16806116b3575b6116815750565b8061169960016116b09301546001600160a01b031690565b6116aa600360028401549301610323565b90611edf565b50565b506116c160038201546101de565b151561167a565b905060068501541038611654565b6116e56106a361172b9261139d565b50600a8101805460ff60b81b1916600160b81b178155909280611748575b80611737575b815460ff60b01b191690151560b01b60ff60b01b161781555460b01c60ff1690565b806116b3576116815750565b506004830154600684015410611709565b50600483015460088401541115611703565b908160209103126104e5575161176f81610506565b90565b6040513d6000823e3d90fd5b67ffffffffffffffff81116102e057601f01601f191660200190565b156117a157565b606460405162461bcd60e51b815260206004820152601960248201527f6f776e2e7361666567756172642e63616c6c2e6661696c6564000000000000006044820152fd5b908160209103126104e5575161176f8161065d565b6001600160a01b03600054166040518091634bf9c0ad60e11b825281600460209384935afa918215610a2b5761176f926118829160009161189d575b50604051611843816102e5565b600881527f69735361666528290000000000000000000000000000000000000000000000008482015260405191611879836102c4565b60008352611dc1565b919080611893575b6109cf9061179a565b508151811461188a565b6118b49150833d8511610a2457610a158183610301565b38611836565b604051906118c7826102e5565b601582527f69735365637572654261736528616464726573732900000000000000000000006020830152565b156118fa57565b606460405162461bcd60e51b815260206004820152601a60248201527f6f776e2e736563757265626173652e63616c6c2e6661696c65640000000000006044820152fd5b6040519061194b826102e5565b601182527f69735369676e65722861646472657373290000000000000000000000000000006020830152565b1561197e57565b606460405162461bcd60e51b815260206004820152601660248201527f6f776e2e7369676e65722e63616c6c2e6661696c6564000000000000000000006044820152fd5b6000546001600160a01b0316604051918291634bf9c0ad60e11b835282600460209485935afa928315610a2b5761176f93611a2e926109a292600092611a49575b50611a26906040519384918783019190916001600160a01b036020820193169052565b6109b861193e565b919080611a3f575b6109cf90611977565b5081518114611a36565b611a26919250611a6590863d8811610a2457610a158183610301565b9190611a03565b600460206001600160a01b0360005416604051928380927f447aa3040000000000000000000000000000000000000000000000000000000082525afa8015610a2b5761176f91600091611b07575b50604051611ac7816102e5565b600581527f6167652829000000000000000000000000000000000000000000000000000000602082015260405191611afe836102c4565b60008352611e57565b611b1f915060203d8111610a2457610a158183610301565b38611aba565b6001600160a01b039081600054169060405192839263d1f956b160e01b845283600460209586935afa938415610a2b57600094611be1575b50604051911682820152818152611bb490611b77816102e5565b604051611b83816102e5565b601881527f697364656c656761746f724e6f6465286164647265737329000000000000000084820152600094611dc1565b919080611bd7575b611bc557505090565b61176f925080825183010191016117e5565b5080825114611bbc565b611bb492919450611bfe90843d8611610a2457610a158183610301565b939091611b5d565b600460206001600160a01b03600054166040519283809263d1f956b160e01b82525afa8015610a2b5761176f91600091611c7f575b50604051611c48816102e5565b601381527f67657464656c656761746f72436f756e74282900000000000000000000000000602082015260405191611afe836102c4565b611c97915060203d8111610a2457610a158183610301565b38611c3b565b3d15611cc8573d90611cae8261177e565b91611cbc6040519384610301565b82523d6000602084013e565b606090565b6000600460206001600160a01b03835416604051928380927f46f991ac0000000000000000000000000000000000000000000000000000000082525afa908115610a2b578284819382938391611da3575b505af1611d29611c9d565b5015611d5f5760405190815233907fcdcc745fe377b103b45fa0cec23ae3ef93d6fc6a84a01f0d18c40b354dd1d5d890602090a2565b606460405162461bcd60e51b815260206004820152600f60248201527f6f776e2e6275726e2e6661696c656400000000000000000000000000000000006044820152fd5b611dbb915060203d8111610a2457610a158183610301565b38611d1e565b803b15611e3e576000927fffffffff000000000000000000000000000000000000000000000000000000008360208695519101201690611e2b6024604051809360208201958652611e1b8151809260208686019101610340565b8101036004810184520182610301565b5191620dbba0fa611e3a611c9d565b9091565b505050600090604051611e50816102c4565b6000815290565b9291611e6591600094611dc1565b9080611e8a575b611e735750565b9091506020818051810103126104e5576020015190565b506020815114611e6c565b90602082519201517fffffffff00000000000000000000000000000000000000000000000000000000908181169360048110611ed057505050565b60040360031b82901b16169150565b9190916001600160a01b03811615611f9557600091829184519160208601915af190611f09611c9d565b9115611f13575090565b805160009190600411611f8f57611f2a9150611e95565b815115611f3a5750805190602001fd5b6040517f21c09d340000000000000000000000000000000000000000000000000000000081527fffffffff00000000000000000000000000000000000000000000000000000000919091166004820152602490fd5b50611f2a565b606460405162461bcd60e51b815260206004820152601260248201527f6f776e2e696e76616c69642e74617267657400000000000000000000000000006044820152fdfea264697066735822122077207168870ce1ca9d617f99b8a709d017e2d3446c12fecb53fbcd48abecaff464736f6c63430008140033608034620000d157601f62005d5e38819003918201601f19168301916001600160401b03831184841017620000d657808492602094604052833981010312620000d157516001600160a01b03811690819003620000d15780156200008c5760018060a01b03193381600154161760015560005416176000556001600355604051615c719081620000ed8239f35b60405162461bcd60e51b815260206004820152601360248201527f6f776e2e696e76616c69642e68657862617365000000000000000000000000006044820152606490fd5b600080fd5b634e487b7160e01b600052604160045260246000fdfe60806040526004361015610018575b361561001657005b005b60003560e01c80629db65514610347578063033eeffb146103425780630e5fd00b1461033d57806312065fe0146103385780631bb49f02146103335780631c53c2801461032e5780631f185d16146103295780632a687c87146103245780632fefc0bf1461031f578063307673e81461031a57806332ff4eab1461031557806333b59a5b146103105780633a7b55b81461030b5780633b9b7955146103065780633baee0ea14610301578063419cb27b146102fc57806342cc9d57146102f757806344585097146102f25780634f0f4aa9146102ed578063509222cd146102e857806350db85d1146102e357806361ea7208146102de578063629d671e146102d957806365d2fbd3146102d45780636a811244146102cf5780636fb412ab146102ca57806376fe6c45146102c55780637bb98498146102c057806380f85e33146102bb578063849c22ad146102b6578063896c354a146102b15780638da5cb5b146102ac57806395f72f49146102a757806398b3f215146102a2578063a1f7f5391461029d578063a89d693b14610298578063af48452614610293578063b1c490791461028e578063b366335e14610289578063b90306ad14610284578063c54e44b01461027f578063c871372b1461027a578063d1e0bbc614610275578063dcb3fc4a14610270578063e01ad5fd1461026b578063e0a9bc2b14610266578063eb95c66214610261578063eb9e9e2c1461025c578063f3ca712414610257578063fd38093b146102525763fdc10bc90361000e57612f54565b612ee4565b612eb8565b612c81565b612c55565b612c3a565b612ba0565b6129a1565b612967565b6128e9565b612847565b61278b565b6126db565b61255f565b612538565b612419565b61232c565b612300565b61225a565b612233565b6121f3565b6121c4565b61218a565b6120e4565b612094565b611ef0565b61186d565b611456565b611418565b6113fa565b61133a565b6112e6565b6111f9565b6111c1565b611192565b611158565b610b3d565b610aee565b610982565b6108ae565b610808565b610737565b6106ff565b610659565b610549565b610514565b6104af565b610493565b610443565b610406565b3461040157602036600319011261040157610368610363615503565b6132d5565b61037133615647565b8015610389575b61038190613341565b610016614efa565b5060046001600160a01b036020816000541660405193848092630536340960e21b82525afa9081156103fc57610381926000926103cc575b501633149050610378565b6103ee91925060203d81116103f5575b6103e68183613002565b810190613320565b90386103c1565b503d6103dc565b613335565b600080fd5b3461040157602036600319011261040157600435600052600b6020526020604060002054604051908152f35b6001600160a01b0381160361040157565b3461040157602036600319011261040157602060043561046281610432565b6001600160a01b03809116600052600482526040600020546000526007825260046040600020015416604051908152f35b3461040157600036600319011261040157602047604051908152f35b34610401576020366003190112610401576004356104cc81610432565b6001600160a01b0390811660009081526004602090815260408083205483526007825280832060020154808452600583529281902054815193845290931690820152f35b0390f35b3461040157602036600319011261040157600435600052600560205260206001600160a01b0360406000205416604051908152f35b34610401576020806003193601126104015760049081359061056a82610432565b8061058c6105806000546001600160a01b031690565b6001600160a01b031690565b60405194858092634bf9c0ad60e11b82525afa9182156103fc576105e061061a936105fc9261051096600092610636575b506105ee906040519384918783019190916001600160a01b036020820193169052565b03601f198101845283613002565b6105f66156f1565b9061599d565b91908061062c575b61060d9061572a565b80825183010191016154ef565b60405190151581529081906020820190565b5081518114610604565b6105ee91925061065290863d88116103f5576103e68183613002565b91906105bd565b3461040157604036600319011261040157610675610363615503565b61067e33615647565b801561069c575b61068e90613341565b610016602435600435615285565b5060046001600160a01b036020816000541660405193848092630536340960e21b82525afa9081156103fc5761068e926000926106df575b501633149050610685565b6106f891925060203d81116103f5576103e68183613002565b90386106d4565b3461040157602036600319011261040157600435600052600760205260206001600160a01b0360056040600020015416604051908152f35b3461040157602036600319011261040157600435600090338252600460205261077d6107786040842054600052600760205260ff6001604060002001541690565b613ea7565b808252601060205260ff600260408420015460081c16156107c4576107af6107c1916000526010602052604060002090565b60026000918281558260018201550155565b80f35b606460405162461bcd60e51b815260206004820152601360248201527f6e65737465642e7265712e6e6f746578697374000000000000000000000000006044820152fd5b3461040157604036600319011261040157610824610363615503565b61082d33615647565b801561084b575b61083d90613341565b6100166024356004356152d9565b5060046001600160a01b036020816000541660405193848092630536340960e21b82525afa9081156103fc5761083d9260009261088e575b501633149050610834565b6108a791925060203d81116103f5576103e68183613002565b9038610883565b34610401576040366003190112610401576108ca610363615503565b6108d333615647565b80156108f1575b6108e390613341565b610016602435600435615375565b5060046001600160a01b036020816000541660405193848092630536340960e21b82525afa9081156103fc576108e392600092610934575b5016331490506108da565b61094d91925060203d81116103f5576103e68183613002565b9038610929565b60e0810192916000915b6007831061096b57505050565b60019082518152602080910192019201919061095e565b3461040157602036600319011261040157610510600435610adc610acc604051926109ac84612fae565b60e03685376109d86109c8826000526009602052604060002090565b6001600052602052604060002090565b548452610a026109f2826000526009602052604060002090565b6002600052602052604060002090565b546020850152610a2f610a1f826000526009602052604060002090565b6003600052602052604060002090565b546040850152610a5c610a4c826000526009602052604060002090565b6004600052602052604060002090565b546060850152610a89610a79826000526009602052604060002090565b6005600052602052604060002090565b546080850152610ab6610aa6826000526009602052604060002090565b6006600052602052604060002090565b5460a08501526000526009602052604060002090565b6007600052602052604060002090565b5460c082015260405191829182610954565b346104015760003660031901126104015760206001600160a01b0360005416604051908152f35b604090600319011261040157600435610b2d81610432565b90602435610b3a81610432565b90565b3461040157610b9b610b4e36610b15565b610b5661329a565b610b6f610b61613053565b610b6961306b565b33615a33565b610b82610b7a613053565b610b696130a4565b906001600160a01b0394859182851692839116146130dd565b610bc060009286610bb8610580828754166001600160a01b031690565b911614613128565b610bcb811515613d8d565b610be8836001600160a01b03166000526004602052604060002090565b5415801561114d575b610bfa90613dd8565b610c22610c1a856001600160a01b03166000526004602052604060002090565b541515613e23565b6004610c686005610c5a610c49886001600160a01b03166000526004602052604060002090565b546000526007602052604060002090565b01546001600160a01b031690565b92604092835197610cd16020997f880cdc31000000000000000000000000000000000000000000000000000000008b82015280610cb88a602483019190916001600160a01b036020820193169052565b0397610ccc601f19998a8101845283613002565b615b46565b50610cf961058085610c5a610c498c6001600160a01b03166000526004602052604060002090565b15610ffc57610d68610d2585610c5a610c498c6001600160a01b03166000526004602052604060002090565b86517f0399c93c000000000000000000000000000000000000000000000000000000008c82015233602482015290610ccc82604481015b038a8101845283613002565b505b610d87886001600160a01b03166000526004602052604060002090565b54610da5886001600160a01b03166000526004602052604060002090565b55610e0387610ddb610dca8b6001600160a01b03166000526004602052604060002090565b546000526005602052604060002090565b906001600160a01b031673ffffffffffffffffffffffffffffffffffffffff19825416179055565b610e513385610e28610c498b6001600160a01b03166000526004602052604060002090565b01906001600160a01b031673ffffffffffffffffffffffffffffffffffffffff19825416179055565b871603610fd8575b610e76856001600160a01b03166000526004602052604060002090565b5495610e916005610c5a896000526007602052604060002090565b97610ecd610ec06002610eae8b6000526007602052604060002090565b01546000526005602052604060002090565b546001600160a01b031690565b9581610ee361058086546001600160a01b031690565b8751968780927f52b06d640000000000000000000000000000000000000000000000000000000082525afa9182156103fc5761051098610f80967fe1430d4f000000000000000000000000000000000000000000000000000000009694610fb1575b508751918201959095526001600160a01b0393841660248201529290931660448301529091610ccc9083606481015b03908101845283613002565b50610f8b6001600355565b519283526001600160a01b03938416602084015290921660408201529081906060820190565b610ccc945090610fd0610f7492843d86116103f5576103e68183613002565b945090610f45565b80610ff6876001600160a01b03166000526004602052604060002090565b55610e59565b8861101161058085546001600160a01b031690565b86519586809263111ea8c160e21b82525afa80156103fc5788611068916004968691611130575b5087516001600160a01b03909216828d0190815261105a908390602001610d5c565b611062613e6e565b90615a33565b818116151580611126575b61107e575b50610d6a565b85517f4fb2e45d000000000000000000000000000000000000000000000000000000008b8201523360248201526044888101825261111f92916110cb916110c59082613002565b82615b46565b508651907fa3e884b0000000000000000000000000000000000000000000000000000000008c830152610ccc82610d5c60248201906007606060808401936000815260006020820152600060408201520152565b5038611078565b5080311515611073565b61114791508c8d3d106103f5576103e68183613002565b38611038565b508385168114610bf1565b34610401576020366003190112610401576020611188600435600052600760205260ff6001604060002001541690565b6040519015158152f35b346104015760203660031901126104015760043560005260076020526020600360406000200154604051908152f35b3461040157602036600319011261040157600435600052600760205260206001600160a01b0360046040600020015416604051908152f35b346104015760203660031901126104015760043580600052600760205260406000205460056020526105106001600160a01b03806040600020541693600760205260406000209160046002840154930154166112646005610c5a846000526007602052604060002090565b90600361129c61128b6001611283876000526007602052604060002090565b015460ff1690565b946000526007602052604060002090565b01549360405197889788939160c09591989796939260e086019986526001600160a01b03938480931660208801526040870152166060850152166080830152151560a08201520152565b34610401576020366003190112610401576001600160a01b0360043561130b81610432565b1660005260046020526040600020546000526007602052602060ff600160406000200154166040519015158152f35b346104015761134836610b15565b611353610363615503565b61135c33615647565b8015611390575b9161137061137593613341565b61338c565b604080519283526001600160a01b0391909116602083015290f35b506001600160a01b039160046020846000541660405192838092630536340960e21b82525afa80156103fc5761137594611370926000926113da575b503391161491935050611363565b6113f391925060203d81116103f5576103e68183613002565b90386113cc565b34610401576000366003190112610401576020600654604051908152f35b34610401576020366003190112610401576001600160a01b0360043561143d81610432565b1660005260046020526020604060002054604051908152f35b3461040157602036600319011261040157600435600161148c61148782611283856000526007602052604060002090565b613ce1565b6114a0826000526010602052604060002090565b906002908183019260ff8454818160081c1680611864575b6114c1906142e2565b60101c166116e857506114eb826114e2866000526007602052604060002090565b01541515614378565b6000815b6115bd575b50508061155f846001600160a01b036115376005610c5a6000976115256100169b6000526007602052604060002090565b01546000526007602052604060002090565b16611572575b845461154f9060101c60ff1682614410565b6000526007602052604060002090565b0155805462ff0000191662010000179055565b6115b76115926005610c5a86611525866000526007602052604060002090565b604051636f58dd0f60e11b60208201526000602482015290610ccc82604481016105e0565b5061153d565b6003806115d885611525896000526007602052604060002090565b01548210156116e25785611612611608848461160289611525876000526007602052604060002090565b01613ba6565b90549060031b1c90565b14611627575061162190613902565b816114ef565b839250946116d8866116ba61155f946116a16116876116086100169c61165d60009c6115258b6000526007602052604060002090565b016116818761167a8d6115258d6000526007602052604060002090565b015461361a565b90613ba6565b91846116028a6115258a6000526007602052604060002090565b90919082549060031b91821b91600019901b1916179055565b6116d285611525856000526007602052604060002090565b016143c3565b94508192506114f4565b506114f4565b8261179461178e6107af9661175a89600361175461180b996105e0996117286100169f9d611720876000526007602052604060002090565b01541561432d565b019788548091611742866000526007602052604060002090565b01556000526007602052604060002090565b01613bc3565b83546001600160a01b0361177d6005610c5a846000526007602052604060002090565b1661181c575b505460101c60ff1690565b85614410565b610ccc6117c8610ec06117b66004610c5a896000526007602052604060002090565b93546000526005602052604060002090565b6040517f1499c5920000000000000000000000000000000000000000000000000000000060208201526001600160a01b0390911660248201529283906044820190565b506000526010602052604060002090565b6118386005610c5a61185d936000526007602052604060002090565b604051636f58dd0f60e11b60208201526001602482015290610ccc82604481016105e0565b5038611783565b508082166114b8565b3461040157604080600319360112610401576004803561188b61329a565b6118a76114876001611283846000526007602052604060002090565b6118cc6118c561058084610c5a856000526007602052604060002090565b3314614003565b6118d461367c565b6118ed6005610c5a836000526007602052604060002090565b6002549084516119616119536020927f02a085f200000000000000000000000000000000000000000000000000000000848201528061193f602497883589840160209093929193604081019481520152565b0394610ccc601f1996878101845283613002565b828082518301019101614793565b948686519487836119778683019889519061328d565b97611987858401998a519061328d565b611997606085019182519061328d565b91886119a9608087019485519061328d565b976119ba60a08801998a519061328d565b966119d36119ce60c08301998a519061328d565b61522b565b51611e14575b8251611d20575b5050508051611c2e575b508051611b4d575b5050611a01835182519061328d565b611a43575b89896105106101008a611a1e8d60e0860151906148c4565b5192015192611a2d6001600355565b5191825260208201929092529081906040820190565b84611a5f61058060009a969799989a546001600160a01b031690565b8b51968780927f24768d910000000000000000000000000000000000000000000000000000000082525afa80156103fc5761051098610100988c611b099663a9059cbb60e01b968996611a1e9b600097611b14575b5090611ae4610f74949392611ada610ec0610ccc9a9b6000526005602052604060002090565b935190519061328d565b92519889958601528401602090939291936001600160a01b0360408201951681520152565b509382933880611a06565b610ccc9750610f7494939291611ada610ec0611b3f611ae4948a3d8c116103f5576103e68183613002565b9a5050509192939450611ab4565b86611b636105806000546001600160a01b031690565b8d51938480927f9dc969a80000000000000000000000000000000000000000000000000000000082525afa9182156103fc57611bf7928d928c928a600093611bff575b5050610d5c611bc6610ec0610ccc94956000526005602052604060002090565b9151945194859263a9059cbb60e01b8d850152898401602090939291936001600160a01b0360408201951681520152565b5083386119f2565b610ccc9350610ec0611c24610d5c9383611bc694903d106103f5576103e68183613002565b945050508a611ba6565b91878d611c466105806000546001600160a01b031690565b9051928380927faa0ddc160000000000000000000000000000000000000000000000000000000082525afa9081156103fc578b611ce8928f8b908b9763a9059cbb60e01b95600094611cef575b5090611cdc91611cb4610ec0610ccc96976000526005602052604060002090565b905191519687948501528b8401602090939291936001600160a01b0360408201951681520152565b038c8101845283613002565b50386119ea565b610ccc945090611cb4610ec0611d15611cdc9594873d89116103f5576103e68183613002565b965050509091611c93565b611d386105806000979497546001600160a01b031690565b9051928380927f30125cf50000000000000000000000000000000000000000000000000000000082525afa9081156103fc578c8f928b611dda948c9863a9059cbb60e01b95600094611de3575b5090611dce91611da6610ec0610ccc96976000526005602052604060002090565b905191519687948501528c8401602090939291936001600160a01b0360408201951681520152565b038d8101845283613002565b5038888e6119e0565b610ccc945090611da6610ec0611e09611dce9594873d89116103f5576103e68183613002565b965050509091611d85565b611e296105806000546001600160a01b031690565b9051958680927f640274270000000000000000000000000000000000000000000000000000000082525afa9384156103fc578e611ebd8f8f8c988f8f968d90600093611ec3575b50610f74611e8f610ec0610ccc95966000526005602052604060002090565b9551885163a9059cbb60e01b8b8201526001600160a01b039097169287019283526020830152859160400190565b506119d9565b610ccc9350611e8f610ec0611ee7610f74938c8d3d106103f5576103e68183613002565b95505050611e70565b3461040157604036600319011261040157600435602435611f0f61329a565b611f2b6114876001611283856000526007602052604060002090565b611f4f611f48610580610ec0856000526005602052604060002090565b3314613ea7565b611f81611f6b6005610c5a856000526007602052604060002090565b611f73613ef2565b611f7b613040565b91615972565b9080611f97602093848082518301019101613f2b565b1015611fa8575b6100166001600355565b826120856001600160a01b03927ff526f68a000000000000000000000000000000000000000000000000000000009461207961205e610ec061204961203b6120196120056005610c5a61208b9f6000526007602052604060002090565b976040519182918983019190602083019252565b039761202d601f19998a8101845283613002565b612035613f3a565b90615972565b858082518301019101613f73565b99925050506000526005602052604060002090565b612066613053565b9060405198899485015260248401613fe3565b03908101855284613002565b16615b46565b50388080611f9e565b346104015760203660031901126104015760206004356120b381610432565b6001600160a01b03809116600052600482526040600020546000526007825260056040600020015416604051908152f35b3461040157604036600319011261040157612100610363615503565b61210933615647565b8015612127575b61211990613341565b6100166024356004356141f5565b5060046001600160a01b036020816000541660405193848092630536340960e21b82525afa9081156103fc576121199260009261216a575b501633149050612110565b61218391925060203d81116103f5576103e68183613002565b903861215f565b3461040157604036600319011261040157600435600052600860205260406000206024356000526020526020604060002054604051908152f35b346104015760203660031901126104015760043560005260076020526020600260406000200154604051908152f35b3461040157604036600319011261040157600435600052600760205260206122246024356003604060002001613ba6565b90549060031b1c604051908152f35b346104015760003660031901126104015760206001600160a01b0360015416604051908152f35b3461040157604036600319011261040157612276610363615503565b61227f33615647565b801561229d575b61228f90613341565b6100166024356004356152af565b5060046001600160a01b036020816000541660405193848092630536340960e21b82525afa9081156103fc5761228f926000926122e0575b501633149050612286565b6122f991925060203d81116103f5576103e68183613002565b90386122d5565b3461040157602036600319011261040157600435600052600f6020526020604060002054604051908152f35b3461040157600036600319011261040157600460206001600160a01b03600054166040519283809263d1f956b160e01b82525afa9081156103fc57610510916123bc916000916123cc575b5060405161238481612fca565b601381527f67657464656c656761746f72436f756e7428290000000000000000000000000060208201526123b6613040565b91615ac0565b6040519081529081906020820190565b6123e4915060203d81116103f5576103e68183613002565b38612377565b610100810192916000915b6008831061240257505050565b6001908251815260208091019201920191906123f5565b3461040157602036600319011261040157610510600435612526610acc61243e6151ae565b92612465612456826000526008602052604060002090565b60008052602052604060002090565b54845261247f6109c8826000526008602052604060002090565b54602085015261249c6109f2826000526008602052604060002090565b5460408501526124b9610a1f826000526008602052604060002090565b5460608501526124d6610a4c826000526008602052604060002090565b5460808501526124f3610a79826000526008602052604060002090565b5460a0850152612510610aa6826000526008602052604060002090565b5460c08501526000526008602052604060002090565b5460e0820152604051918291826123ea565b3461040157602036600319011261040157602061118860043561255a81610432565b615647565b346104015761266761257036610b15565b9061257961329a565b6125c2612587610b61613053565b612592610b7a613053565b906125ab6001600160a01b0391828088169116146130dd565b610bb861058082600054166001600160a01b031690565b6125ef6125ea6001611283610c49856001600160a01b03166000526004602052604060002090565b613173565b61265861264e61263f61261d6005610c5a610c49876001600160a01b03166000526004602052604060002090565b60405190612637826105e060208201906000602083019252565b6120356131be565b602080825183010191016131f7565b5050501515613219565b612660613636565b3390613911565b6126806124566002546000526008602052604060002090565b61268a815461327a565b9055612694615257565b6126ad6005610c5a836000526007602052604060002090565b906126b781613d2c565b6126c16001600355565b604080519182526001600160a01b03929092166020820152f35b34610401576020366003190112610401576126f7610363615503565b61270033615647565b801561271b575b61271090613341565b6100166004356136bf565b50600460206127356105806000546001600160a01b031690565b60405192838092630536340960e21b82525afa80156103fc576127109160009161276d575b506001600160a01b031633149050612707565b612785915060203d81116103f5576103e68183613002565b3861275a565b346104015760203660031901126104015760046001600160a01b036020816000541660405193848092630536340960e21b82525afa9182156103fc57600092612827575b50339116036127e35761001660043561587e565b606460405162461bcd60e51b815260206004820152600f60248201527f6f776e2e6e6f6e617574682e44414f00000000000000000000000000000000006044820152fd5b61284091925060203d81116103f5576103e68183613002565b90386127cf565b346104015760203660031901126104015760043561286481610432565b803b600061287182613024565b9261287f6040519485613002565b82845260208401903c602d8151106128a557602a015160405160609190911c8152602090f35b606460405162461bcd60e51b815260206004820152601360248201527f4e6f742061206d696e696d616c2070726f7879000000000000000000000000006044820152fd5b60403660031901126104015760043561290061329a565b600090808252600760205261291e60ff600160408520015416613ce1565b8152600760205261295e6001600160a01b036005604084200154166040519062a0e53360e51b6020830152602435602483015260248252610ccc82612f8d565b50600160035580f35b3461040157604036600319011261040157600435600052600a60205260406000206024356000526020526020604060002054604051908152f35b346104015760c0366003190112610401576024356004356129c182610432565b60643590608435906129d161329a565b6129ed6114876001611283846000526007602052604060002090565b612a0c6118c56105806004610c5a856000526007602052604060002090565b612a1461367c565b612a1d826151d3565b612a26836151ff565b612ad3612ac5612ab1612a486005610c5a866000526007602052604060002090565b966040519182916020977f932ca2d600000000000000000000000000000000000000000000000000000000898501528960a435926044359060248701919260809396959491966001600160a01b0360a08501981684526020840152604083015260608201520152565b0396610ccc601f1998898101845283613002565b83808251830101910161404e565b929080612ae7575b5050611f9e9350614c0b565b60049082612b006105806000546001600160a01b031690565b604051938480927f5e09dbe70000000000000000000000000000000000000000000000000000000082525afa80156103fc57611f9e97612b739463a9059cbb60e01b94600093612b7b575b5060405190810194909452336024850152604484019290925290610ccc908360648101610f74565b503880612adb565b610ccc9350612b99610f7491833d85116103f5576103e68183613002565b9350612b4b565b34610401576020806003193601126104015760048035612bbf81610432565b6001600160a01b03928084600054166040519485809263d1f956b160e01b82525afa9081156103fc576105109461061a94600093612c1b575b506040519316818401528252612c0d82612fca565b612c15615815565b90615a84565b612c33919350823d84116103f5576103e68183613002565b9138612bf8565b34610401576000366003190112610401576020611188615503565b3461040157602036600319011261040157600435600052600c6020526020604060002054604051908152f35b346104015760403660031901126104015760043560243590612cd4610778612cbc336001600160a01b03166000526004602052604060002090565b54600052600760205260ff6001604060002001541690565b612cf06114876001611283846000526007602052604060002090565b612d11612d0c6001611283856000526007602052604060002090565b614064565b612d2a6005610c5a846000526007602052604060002090565b600483604051612d7061264e612d6260209380612d4e868201906000602083019252565b0397612637601f19998a8101845283613002565b8380825183010191016131f7565b612d84856000526010602052604060002090565b93612df06002860196612dab612da6612da28a5460ff9060081c1690565b1590565b6140af565b6040517f7bb984980000000000000000000000000000000000000000000000000000000085820152602481019190915260448101989098526064828101895288613002565b81612e066105806000546001600160a01b031690565b60405195868092630536340960e21b82525afa9384156103fc5761001697612e8695612e7393610f7493600092612e97575b50610ccc91926040519485917fffa734f0000000000000000000000000000000000000000000000000000000008984015230602484016140fa565b9160018501558082518301019101613f2b565b9055805461ff001916610100179055565b610ccc9250612eb290873d89116103f5576103e68183613002565b91612e38565b3461040157602036600319011261040157600435600052600e6020526020604060002054604051908152f35b3461040157604080600319360112610401576001600160a01b03600435612f0a81610432565b16600081815260046020818152848320548352600b815284832054938352908152838220548252600a81528382206024358352815290839020549251918252810191909152604090f35b34610401576000366003190112610401576020612f6f615775565b604051908152f35b634e487b7160e01b600052604160045260246000fd5b6060810190811067ffffffffffffffff821117612fa957604052565b612f77565b60e0810190811067ffffffffffffffff821117612fa957604052565b6040810190811067ffffffffffffffff821117612fa957604052565b6020810190811067ffffffffffffffff821117612fa957604052565b90601f8019910116810190811067ffffffffffffffff821117612fa957604052565b67ffffffffffffffff8111612fa957601f01601f191660200190565b6040519061304d82612fe6565b60008252565b60405161305f81612fe6565b60008152906000368137565b6040519061307882612fca565b600782527f6f776e65722829000000000000000000000000000000000000000000000000006020830152565b604051906130b182612fca565b600c82527f67657448657862617365282900000000000000000000000000000000000000006020830152565b156130e457565b606460405162461bcd60e51b815260206004820152601760248201527f6e65737465642e696e76616c69642e696e7374616e63650000000000000000006044820152fd5b1561312f57565b606460405162461bcd60e51b815260206004820152601660248201527f6e65737465642e696e76616c69642e68657862617365000000000000000000006044820152fd5b1561317a57565b606460405162461bcd60e51b815260206004820152601860248201527f6e65737465642e706172656e742e6e6f742e65786973747300000000000000006044820152fd5b604051906131cb82612fca565b601282527f6765744e6f64654c422875696e743235362900000000000000000000000000006020830152565b9190826080910312610401578151916020810151916060604083015192015190565b1561322057565b606460405162461bcd60e51b815260206004820152601960248201527f6e65737465642e706172656e742e6e6f2e627573696e657373000000000000006044820152fd5b634e487b7160e01b600052601160045260246000fd5b906001820180921161328857565b613264565b9190820180921161328857565b6002600354146132ab576002600355565b60046040517f3ee5aeb5000000000000000000000000000000000000000000000000000000008152fd5b156132dc57565b606460405162461bcd60e51b815260206004820152601260248201527f6f776e2e696e76616c69642e69735361666500000000000000000000000000006044820152fd5b908160209103126104015751610b3a81610432565b6040513d6000823e3d90fd5b1561334857565b606460405162461bcd60e51b815260206004820152601b60248201527f6f776e2e6e6f6e617574682e44414f6f725365637572656261736500000000006044820152fd5b919061339661329a565b6133c66133c1612da26001611283610c49866001600160a01b03166000526004602052604060002090565b6138b7565b6133d96133d4600654613902565b600655565b613430600654936133f883610ddb876000526005602052604060002090565b84613416846001600160a01b03166000526004602052604060002090565b556001600160a01b03166000526004602052604060002090565b5461343b8482613beb565b6134726004613454866000526007602052604060002090565b0173ffffffffffffffffffffffffffffffffffffffff198154169055565b6134876105806000546001600160a01b031690565b9060405192839263e09d394d60e01b845283600460209586935afa80156103fc576134c06134d6916007966000916135fd575b50613b10565b6005610e28896000526007602052604060002090565b61354f6134f26005610c5a896000526007602052604060002090565b916135086105806000546001600160a01b031690565b6040516352902c5960e01b878201526001600160a01b039182166024820152911660448201526064810188905280608481015b0392610ccc601f1994858101845283613002565b50811515806135d3575b61358a575b505083600052526001600160a01b03600560406000200154169161358181613d2c565b91906001600355565b6135a66005610c5a6135cb946000526007602052604060002090565b604051636f58dd0f60e11b858201526001602482015291610ccc908360448101610f74565b50388061355e565b506001600160a01b036135f56005610c5a856000526007602052604060002090565b161515613559565b6136149150863d88116103f5576103e68183613002565b386134ba565b60001981019190821161328857565b9190820391821161328857565b61363e615775565b60025410613656575b6136546005600254613708565b565b61365e615775565b8060025560001981019081116132885761367790615068565b613647565b613684615775565b60025410613699575b61365460028054613708565b6136a1615775565b806002556000198101908111613288576136ba90615068565b61368d565b6136c7615775565b600254106136dc575b61365490600254613708565b6136e4615775565b908160025560001982019182116132885761370161365492615068565b90506136d0565b90613720612456836000526008602052604060002090565b5415806138ad575b806138a4575b613736575050565b6137529061374c6137468461361a565b9161361a565b90613708565b6137716124566137618361361a565b6000526008602052604060002090565b54613789612456836000526008602052604060002090565b556137996109c86137618361361a565b546137b16109c8836000526008602052604060002090565b556137c16109f26137618361361a565b546137d96109f2836000526008602052604060002090565b556137e9610a1f6137618361361a565b54613801610a1f836000526008602052604060002090565b55613811610a4c6137618361361a565b54613829610a4c836000526008602052604060002090565b55613839610a796137618361361a565b54613851610a79836000526008602052604060002090565b55613861610aa66137618361361a565b54613879610aa6836000526008602052604060002090565b556138a1610acc61388f610acc6137618561361a565b54926000526008602052604060002090565b55565b5080151561372e565b5060018211613728565b156138be57565b606460405162461bcd60e51b815260206004820152601560248201527f6e65737465642e616c72656164792e65786973747300000000000000000000006044820152fd5b60001981146132885760010190565b9161393d6133c1612da26001611283610c49866001600160a01b03166000526004602052604060002090565b61394b6133d4600654613902565b6139ad61398b6006549461396d84610ddb886000526005602052604060002090565b85613416856001600160a01b03166000526004602052604060002090565b54926139978585613beb565b6004610e28866000526007602052604060002090565b600460206139c66105806000546001600160a01b031690565b6040519283809263e09d394d60e01b82525afa9081156103fc57613a0b916139f591600091613af85750613b10565b6005610e28866000526007602052604060002090565b613a75613a276005610c5a866000526007602052604060002090565b91613a3d6105806000546001600160a01b031690565b6040516352902c5960e01b60208201526001600160a01b0391821660248201529116604482015260648101859052806084810161353b565b5081151580613ace575b613a8857505090565b613aa46005610c5a613aca946000526007602052604060002090565b604051636f58dd0f60e11b60208201526001602482015291610ccc908360448101610f74565b5090565b506001600160a01b03613af06005610c5a856000526007602052604060002090565b161515613a7f565b613614915060203d81116103f5576103e68183613002565b6e5af43d82803e903d91602b57fd5bf390763d602d80600a3d3981f3363d3d373d3d3d363d7300000062ffffff8260881c161760005260781b17602052603760096000f0906001600160a01b03821615613b6657565b60046040517fb06ebf3d000000000000000000000000000000000000000000000000000000008152fd5b634e487b7160e01b600052603260045260246000fd5b8054821015613bbe5760005260206000200190600090565b613b90565b9081549168010000000000000000831015612fa957826116a191600161365495018155613ba6565b919091600092808452602091600783526040808620956002948386890155846001988981018a60ff198254161790555587613c3086600052600a602052604060002090565b83805282528489858520555b613c4b57505050505050509050565b613cb9613ca8828b8a9414613cc2575b613c6f88600052600a602052604060002090565b8187528552868620613c81815461327a565b9055613c9788600052600b602052604060002090565b613ca1815461327a565b9055613902565b956000526007602052604060002090565b01549384613c3c565b613cdc8960036117548b6000526007602052604060002090565b613c5b565b15613ce857565b606460405162461bcd60e51b815260206004820152601560248201527f6e65737465642e757365722e6e6f7461637469766500000000000000000000006044820152fd5b806000526007602052613d4960ff60016040600020015416613ce1565b6000526007602052613d8a6001600160a01b03600560406000200154166040519062a0e53360e51b60208301526001602483015260248252610ccc82612f8d565b50565b15613d9457565b606460405162461bcd60e51b815260206004820152601360248201527f6e65737465642e7a65726f2e61646472657373000000000000000000000000006044820152fd5b15613ddf57565b606460405162461bcd60e51b815260206004820152601460248201527f6e65737465642e7461726765742e6578697374730000000000000000000000006044820152fd5b15613e2a57565b606460405162461bcd60e51b815260206004820152601760248201527f6e65737465642e736f757263652e6e6f744578697374730000000000000000006044820152fd5b60405190613e7b82612fca565b601382527f55736572546f496e7374286164647265737329000000000000000000000000006020830152565b15613eae57565b606460405162461bcd60e51b815260206004820152601560248201527f6e65737465642e696e76616c69642e73656e64657200000000000000000000006044820152fd5b60405190613eff82612fca565b600b82527f6d696e74436f756e7428290000000000000000000000000000000000000000006020830152565b90816020910312610401575190565b60405190613f4782612fca565b600e82527f6d696e74732875696e74323536290000000000000000000000000000000000006020830152565b91908260809103126104015781519160208101519160606040830151920151610b3a81610432565b60005b838110613fae5750506000910152565b8181015183820152602001613f9e565b90602091613fd781518092818552858086019101613f9b565b601f01601f1916010190565b6040906001600160a01b03610b3a94931681528160208201520190613fbe565b1561400a57565b606460405162461bcd60e51b815260206004820152601b60248201527f6e65737465642e757365722e696e76616c6964696e7374616e636500000000006044820152fd5b9190826040910312610401576020825192015190565b1561406b57565b606460405162461bcd60e51b815260206004820152601560248201527f6e65737465642e696e76616c69642e706172656e7400000000000000000000006044820152fd5b156140b657565b606460405162461bcd60e51b815260206004820152601760248201527f6e65737465642e7265712e616c726561647965786973740000000000000000006044820152fd5b929161418260a0916001600160a01b0360009460c08852602460c08901527f547269676765722e6e65737465642e70726f706f73616c2e6d6f7665646f776e60e08901527f6c696e6500000000000000000000000000000000000000000000000000000000610100890152166020870152836040870152610120806060880152860190613fbe565b93600a60808201520152565b6040519061419b82612fca565b601282527f6765745374617475732875696e743235362900000000000000000000000000006020830152565b5190811515820361040157565b919082604091031261040157610b3a60206141ee846141c7565b93016141c7565b614228614234916142186114876001611283846000526007602052604060002090565b6000526010602052604060002090565b91600183015414614064565b6142496105806000546001600160a01b031690565b906040518092630536340960e21b825281600460209586935afa9081156103fc57613654936142a46105e06002946142b1946000916142c5575b5061429c87546040519384918783019190602083019252565b61203561418e565b80518101820191016141d4565b5091019060ff801983541691151516179055565b6142dc9150843d86116103f5576103e68183613002565b38614283565b156142e957565b606460405162461bcd60e51b815260206004820152601660248201527f6e65737465642e7265712e6e6f74617070726f766564000000000000000000006044820152fd5b1561433457565b606460405162461bcd60e51b815260206004820152601860248201527f6e65737465642e757365722e6e6f742e646574616368656400000000000000006044820152fd5b1561437f57565b606460405162461bcd60e51b815260206004820152601b60248201527f6e65737465642e757365722e616c726564792e646574616368656400000000006044820152fd5b80549081156143ed57600019918201916143dd8383613ba6565b909182549160031b1b1916905555565b634e487b7160e01b600052603160045260246000fd5b8015613288576000190190565b61442d61442782600052600b602052604060002090565b5461327a565b60029081614445846000526007602052604060002090565b0154906001938492835b61445d575b50505050505050565b600f808511158061478a575b15614784578590600561448d61058082610c5a876000526007602052604060002090565b6144ba575b50506144ab6144b3926000526007602052604060002090565b015493613902565b928561444f565b865b828111156145c4575050506144ab6144b39289600014614561576145046144ed86600052600a602052604060002090565b6144f68961361a565b600052602052604060002090565b5461453761452f8961452085600052600a602052604060002090565b90600052602052604060002090565b91825461328d565b905561454d81600052600b602052604060002090565b61455887825461328d565b90555b92614492565b6145786144ed86600052600a602052604060002090565b5461459c6145948961452085600052600a602052604060002090565b918254613629565b90556145b281600052600b602052604060002090565b6145bd878254613629565b905561455b565b909192506145e082610c5a876000526007602052604060002090565b8a896145ec8a85613629565b92604061462d61461f82518061460b6020998a83019190602083019252565b0394612637601f1996878101845283613002565b8680825183010191016131f7565b5050949091888b84158061477c575b61476a57610ccc936146cf999896938b61466c6146c29a9895610c5a610f74966000526007602052604060002090565b975491519889957f7b058ac1000000000000000000000000000000000000000000000000000000008d8801526024870193909594919260809360a086019786526020860152604085015260608401521515910152565b805181018201910161404e565b908b15614725575b8082116146f25750506146e990613902565b908792916144bc565b6146fb90613902565b614714816145208c546000526008602052604060002090565b61471e815461327a565b90556146d7565b8181116147375750506146e990613902565b80614754614765926145208d546000526008602052604060002090565b61475e815461361a565b9055614403565b614725565b5050505050505050506146e990613902565b50871561463c565b50614454565b50811515614469565b9061012080838303126104015781601f84011215610401576040519281840184811067ffffffffffffffff821117612fa9576040528391810192831161040157905b8282106147e25750505090565b81518152602091820191016147d5565b604051906147ff82612fca565b600f82527f66726565496e74657276616c73282900000000000000000000000000000000006020830152565b6040519061483882612fca565b601582527f67657452616e6b5769746841676556616c7565282900000000000000000000006020830152565b6040519061487182612fca565b601382527f72616e6b436c617573652875696e7432353629000000000000000000000000006020830152565b908160a0910312610401578051916020820151916040810151916080606083015192015190565b919060049060206148e06105806000546001600160a01b031690565b6040519384809263cfbffe5360e01b82525afa9182156103fc57600092614bea575b5061491c61490e613053565b6149166147f2565b84615ac0565b906000809360009060009560009360009260009a5b600f8c111580614be1575b15614bd35761495d6105806005610c5a846000526007602052604060002090565b614989575b600261497b614983926000526007602052604060002090565b01549b613902565b9a614931565b8b6149c06149b16149a96005610c5a866000526007602052604060002090565b611f7361482b565b6020808251830101910161404e565b82919215614b8a575b81151580614b81575b8015614b79575b6149e6575b505050614962565b838b9184959e8e949503614ab7575b5092614a7992610ccc614a6a936105e08e614a226005610c5a614a7f9b6000526007602052604060002090565b9460025460405197889563208bffb160e21b60208801526024870193909594919260a09360c08601978652600060208701526040860152606085015260808401521515910152565b60208082518301019101613f2b565b9161327a565b80821015614a9457509860028c6149836149de565b80613c97614ab2926145206002546000526008602052604060002090565b614a7f565b939a50505050838211614b0a575b5088888b86841080801591614ae1575b501599929190386149f5565b8a861015915081614b02575b5080614afa575b38614ad5565b508715614af4565b905038614aed565b93509350935050614b5b614b4c604051614b3e81614b3087602083019190602083019252565b03601f198101835282613002565b614b46614864565b86615972565b6020808251830101910161489d565b949350909591509492614b718593600254613629565b119338614ac5565b5060006149d9565b508a15156149d2565b96505099509250935050614bb3614b4c604051614b3e81614b308c602083019190602083019252565b9a9350909591509492828c819b614bcc88600254613629565b11966149c9565b505050505050505050509050565b5080151561493c565b614c0491925060203d6020116103f5576103e68183613002565b9038614902565b929160046000926020614c2861058086546001600160a01b031690565b6040519384809263cfbffe5360e01b82525afa9182156103fc578492614ed9575b50614c5561490e613053565b918480809181978294839b5b600f8d111580614ed0575b15614ec157614c8d6105806005610c5a846000526007602052604060002090565b614cb9575b6002614cab614cb3926000526007602052604060002090565b01549c613902565b9b614c61565b8c614cd96149b16149a96005610c5a866000526007602052604060002090565b8291921580614e68575b1580614e5f575b8015614e56575b614cfe575b505050614c92565b8b849e948c928f95968703614dbc575b5092610ccc614a6a936105e08e614d849895614d3c6005610c5a614a799b6000526007602052604060002090565b956002549060405198899663208bffb160e21b60208901526024880194919260a0949197969360c0870198875260208701526040860152606085015260808401521515910152565b80821015614d9957509960028d614cb3614cf6565b80613c97614db7926145206002546000526008602052604060002090565b614d84565b94505050509750838211614e12575b5087898c8c87851080801591614de9575b50159a9290939138614d0e565b8b871015915081614e0a575b5080614e02575b38614ddc565b508815614dfc565b905038614df5565b93509350935050614e38614b4c604051614b3e81614b3087602083019190602083019252565b949350909591509492614e4e8593600254613629565b119338614dcb565b508c1515614cf1565b508a1515614cea565b9750945050935094509850614ea0614b4c604051614e9281614b3087602083019190602083019252565b614e9a614864565b8c615972565b9c93509096915095938d8194829d614eba82600254613629565b1197614ce3565b50505050505050505050509050565b50801515614c6c565b614ef391925060203d6020116103f5576103e68183613002565b9038614c49565b60025460001981019081116132885761365490615068565b15614f1957565b606460405162461bcd60e51b815260206004820152601260248201527f6e65737465642e696e76616c69642e61676500000000000000000000000000006044820152fd5b60405190614f6a82612fca565b601882527f6765744261746368526f79616c7479436c6175736573282900000000000000006020830152565b6102a09081818403126104015782601f82011215610401576040805193614fbc85612fae565b849383019281841161040157935b838510614fd957505050505090565b606085830312610401578251606091614ff182612f8d565b8651825260209182880151838201528588015186820152815201940193614fca565b906007811015613bbe5760051b0190565b908160640291606483040361328857565b8181029291811591840414171561328857565b8115615052570490565b634e487b7160e01b600052601260045260246000fd5b615073811515614f12565b6150886105806000546001600160a01b031690565b90604051809263cfbffe5360e01b825281600460209586935afa9081156103fc576150d0916150c291600091615191575b50611f73614f5d565b838082518301019101614f96565b6150e482600052600c602052604060002090565b5460015b60078111156150f8575050505050565b8061511461517d92614520876000526008602052604060002090565b54801561518b5761512d6151278361361a565b86615013565b51878151928315615182576151546151599261514c61515f968a615035565b940151615024565b615035565b90615048565b61517782614520886000526009602052604060002090565b55613902565b6150e8565b50505050613902565b50613902565b6151a89150853d87116103f5576103e68183613002565b386150b9565b6040519061010080830183811067ffffffffffffffff821117612fa957604052368337565b60025480600052600c60205260406000205491820180921161328857600052600c602052604060002055565b60025480600052600d60205260406000205491820180921161328857600052600d602052604060002055565b60025480600052600e60205260406000205491820180921161328857600052600e602052604060002055565b60025480600052600f602052604060002054906001820180921161328857600052600f602052604060002055565b9080600052600c60205260406000205491820180921161328857600052600c602052604060002055565b9080600052600e60205260406000205491820180921161328857600052600e602052604060002055565b9080600052600f60205260406000205491820180921161328857600052600f602052604060002055565b6040519061531082612fca565b601482527f676574627573696e6573732875696e74323536290000000000000000000000006020830152565b6040519061534982612fca565b601d82527f67657472616e6b436f756e742875696e743235362c75696e74323536290000006020830152565b60009061538c61058083546001600160a01b031690565b91604092835192839163111ea8c160e21b835282600460209485935afa9384156103fc578394615485575b505b858111156153c957505050505050565b8451828101828152819003808252601f19916153fa916153ec9060200182613002565b6153f4615303565b87615ac0565b61541161452f84600052600c602052604060002090565b9055835b6008811061542d57505061542890613902565b6153b9565b86518481018481526020810183905261548092916154689161545a90829060400103868101835282613002565b61546261533c565b89615ac0565b61517782614520876000526008602052604060002090565b615415565b61549d919450823d84116103f5576103e68183613002565b92386153b7565b156154ab57565b606460405162461bcd60e51b815260206004820152601960248201527f6f776e2e7361666567756172642e63616c6c2e6661696c6564000000000000006044820152fd5b9081602091031261040157610b3a906141c7565b6001600160a01b03600054166040518091634bf9c0ad60e11b825281600460209384935afa9182156103fc57610b3a9261558b916000916155a6575b5060405161554c81612fca565b600881527f6973536166652829000000000000000000000000000000000000000000000000848201526040519161558283612fe6565b6000835261599d565b91908061559c575b61060d906154a4565b5081518114615593565b6155bd9150833d85116103f5576103e68183613002565b3861553f565b604051906155d082612fca565b601582527f69735365637572654261736528616464726573732900000000000000000000006020830152565b1561560357565b606460405162461bcd60e51b815260206004820152601a60248201527f6f776e2e736563757265626173652e63616c6c2e6661696c65640000000000006044820152fd5b6000546001600160a01b0316604051918291634bf9c0ad60e11b835282600460209485935afa9283156103fc57610b3a936156b3926105e0926000926156ce575b506156ab906040519384918783019190916001600160a01b036020820193169052565b6105f66155c3565b9190806156c4575b61060d906155fc565b50815181146156bb565b6156ab9192506156ea90863d88116103f5576103e68183613002565b9190615688565b604051906156fe82612fca565b601182527f69735369676e65722861646472657373290000000000000000000000000000006020830152565b1561573157565b606460405162461bcd60e51b815260206004820152601660248201527f6f776e2e7369676e65722e63616c6c2e6661696c6564000000000000000000006044820152fd5b600460206001600160a01b03600054166040519283809263111ea8c160e21b82525afa80156103fc57610b3a916000916157f7575b506040516157b781612fca565b600581527f61676528290000000000000000000000000000000000000000000000000000006020820152604051916157ee83612fe6565b60008352615ac0565b61580f915060203d81116103f5576103e68183613002565b386157aa565b6040519061582282612fca565b601882527f697364656c656761746f724e6f646528616464726573732900000000000000006020830152565b3d15615879573d9061585f82613024565b9161586d6040519384613002565b82523d6000602084013e565b606090565b6000600460206001600160a01b03835416604051928380927f46f991ac0000000000000000000000000000000000000000000000000000000082525afa9081156103fc578284819382938391615954575b505af16158da61584e565b50156159105760405190815233907fcdcc745fe377b103b45fa0cec23ae3ef93d6fc6a84a01f0d18c40b354dd1d5d890602090a2565b606460405162461bcd60e51b815260206004820152600f60248201527f6f776e2e6275726e2e6661696c656400000000000000000000000000000000006044820152fd5b61596c915060203d81116103f5576103e68183613002565b386158cf565b9061597d929161599d565b906000901561598a575090565b604051915061599882612fe6565b815290565b803b15615a1a576000927fffffffff000000000000000000000000000000000000000000000000000000008360208695519101201690615a0760246040518093602082019586526159f78151809260208686019101613f9b565b8101036004810184520182613002565b5191620dbba0fa615a1661584e565b9091565b505050600090604051615a2c81612fe6565b6000815290565b9291615a419160009461599d565b9080615a79575b615a4f5750565b9091506020818051810103126104015760206001600160a01b03910151615a7581610432565b1690565b506020815114615a48565b9291615a929160009461599d565b9080615ab5575b615aa05750565b610b3a919250602080825183010191016154ef565b506020815114615a99565b9291615ace9160009461599d565b9080615af1575b615adc5750565b610b3a91925060208082518301019101613f2b565b506020815114615ad5565b90602082519201517fffffffff00000000000000000000000000000000000000000000000000000000908181169360048110615b3757505050565b60040360031b82901b16169150565b6001600160a01b03811615615bf757600080918351908260208601915af190615b6d61584e565b9115615b77575090565b805160009190600411615bf157615b8e9150615afc565b815115615b9e5750805190602001fd5b6024907fffffffff00000000000000000000000000000000000000000000000000000000604051917f21c09d34000000000000000000000000000000000000000000000000000000008352166004820152fd5b50615b8e565b606460405162461bcd60e51b815260206004820152601260248201527f6f776e2e696e76616c69642e74617267657400000000000000000000000000006044820152fdfea26469706673582212208694093eb88fea375ae6e1b551943e72f96c5580bce0cc9546f79a93eca3d8f664736f6c63430008140033","linkReferences":{}},"methodIdentifiers":{"dAOAssembly()":"14837455","daocore()":"14d8d024","nested741()":"45cff900","old741()":"5540c5ac","price()":"a035b1fe"},"id":69}