{"abi":[{"type":"constructor","inputs":[{"name":"_hex","type":"address","internalType":"address"}],"stateMutability":"nonpayable"},{"type":"function","name":"rule741","inputs":[],"outputs":[{"name":"","type":"address","internalType":"address"}],"stateMutability":"view"},{"type":"function","name":"transferRequest","inputs":[],"outputs":[{"name":"","type":"address","internalType":"address"}],"stateMutability":"view"}],"bytecode":{"object":"0x6080346200012d57601f6200676d38819003918201601f19168301926001600160401b0392909183851183861017620001175781602092849260409788528339810103126200012d57516001600160a01b0390818116908190036200012d5783519061432291828101928184108685111762000117576200244b823981835260208160009403019083f09384156200010d5782549484166001600160a01b031995861617835585519161225f8084019284841090841117620000f957918391602093620001ec8439815203019082f0908115620000ee5750169060015416176001555160b99081620001338239f35b8451903d90823e3d90fd5b634e487b7160e01b85526041600452602485fd5b85513d84823e3d90fd5b634e487b7160e01b600052604160045260246000fd5b600080fdfe6080806040526004361015601257600080fd5b600090813560e01c9081630a5b38ab14605d5750633da8676f14603457600080fd5b34605a5780600319360112605a576001546040516001600160a01b039091168152602090f35b80fd5b905034607f5781600319360112607f5790546001600160a01b03168152602090f35b5080fdfea26469706673582212204b85a117755a36bf544a9a7d32543dc25600365dbb13d2a808709f29d00cc2d564736f6c634300081400336080346100ca57601f61225f38819003918201601f19168301916001600160401b038311848410176100cf578084926020946040528339810103126100ca57516001600160a01b038116908190036100ca5780156100855760018060a01b0319338160015416176001556000541617600055600160035560405161217990816100e68239f35b60405162461bcd60e51b815260206004820152601360248201527f6f776e2e696e76616c69642e68657862617365000000000000000000000000006044820152606490fd5b600080fd5b634e487b7160e01b600052604160045260246000fdfe60806040526004361015610018575b361561001657005b005b60003560e01c806312065fe0146101a857806318c864e3146101a35780631f185d161461019e57806324480afe146101995780633294adf0146101945780633676bd1f1461018f5780633b9b79551461018a578063479fa2c31461018557806349fbed12146101805780634ef260a91461017b5780638da5cb5b14610176578063a1f7f53914610171578063ab7e46ae1461016c578063ac23334514610167578063af48452614610162578063b8f1759a1461015d578063b90306ad14610158578063c1e6cec214610153578063c54e44b01461014e578063cab3cc8d14610149578063e01ad5fd14610144578063e0a9bc2b1461013f578063e846034a1461013a578063fdc10bc9146101355763ff585caf0361000e57610e0e565b610deb565b610dcd565b610d2b565b610c8c565b610c6e565b610bd5565b610b98565b610a94565b610a3f565b610a0e565b6109d5565b610980565b6108c9565b6108a0565b6107db565b6106b7565b61060e565b6105e5565b6105c0565b6103ff565b6103e1565b6102b8565b610230565b346101c45760003660031901126101c457602047604051908152f35b600080fd5b60209060031901126101c45760043590565b634e487b7160e01b600052603260045260246000fd5b60055481101561022b57600560005260021b7f036b6384b5eca791c62761152d0c79bb0604c104a5fb6f4eb0703f3154bb3db00190600090565b6101db565b346101c45761023e366101c9565b6005548110156101c45761025360c0916101f1565b5060ff60018060a01b03808354169282600182015460036002840154930154936040519687528116602087015260a01c161515604085015260608401528181161515608084015260081c16151560a0820152f35b6001600160a01b038116036101c457565b346101c4576020806003193601126101c4576004908135906102d9826102a7565b60005481906102f8906001600160a01b03165b6001600160a01b031690565b604051634bf9c0ad60e11b815294859182905afa9182156103dc5761034f6103899361036b9261039b966000926103a9575b506040516001600160a01b03909116858201908152909261035d918491602090910190565b03601f198101845283610f5d565b610365611d4e565b90611f1d565b91908061039f575b61037c90611d7b565b8082518301019101611c11565b60405190151581529081906020820190565b0390f35b5081518114610373565b61035d9192506103ce90863d88116103d5575b6103c68183610f5d565b810190610f7f565b919061032a565b503d6103bc565b610f97565b346101c45760003660031901126101c4576020600754604051908152f35b346101c4576020806003193601126101c45760043561041d816102a7565b6001600160a01b0381161561058657336000908152600460205260409020610446905415610e80565b610471610451610ed7565b5080546001600160a01b0319166001600160a01b03909316929092178255565b6001810180546001600160a01b03191633178155600554604051600162a7a35160e01b0319858201526024808201929092529081529092600490601f196104b9604485610f5d565b60005482906104d0906001600160a01b03166102ec565b604051630536340960e21b815294859182905afa9283156103dc57600294610543946105369361052593600092610565575b5060405163d3a3084960e01b878201529391926105319285913060248401610fc6565b03908101845283610f5d565b612088565b8051810182019101611035565b91015560055490546001600160a01b0316600090815260046020526040902055005b610531925061058090873d89116103d5576103c68183610f5d565b91610502565b60405162461bcd60e51b815260048101839052601260248201527137bbb7173232b330bab63a1739b2b73232b960711b6044820152606490fd5b346101c4576105de6105d1366101c9565b6105d9611a27565b6115f4565b6001600355005b346101c45760003660031901126101c4576000546040516001600160a01b039091168152602090f35b346101c45761061c366101c9565b801515806106ab575b61062e90611082565b60001981019081116106a657610643906101f1565b50805460018201546003830154600290930154604080516001600160a01b039485168152938316602085015260ff80861615159185019190915260089490941c84161515606084015260a091821c9093161515608083015281019190915260c090f35b6110ce565b50600554811115610625565b346101c4576106c5366101c9565b6106cd611a27565b6106da606482111561136d565b6106eb6106e630611ca2565b6113b9565b61070a60079161070583546106fe611dc0565b1015611ac9565b611b20565b9060005b82518110156107435761073e9061073961073484548061072e8589611b52565b52611497565b600755565b611497565b61070e565b6000548390600490602090610760906001600160a01b03166102ec565b60405163ab6e844f60e01b815292839182905afa80156103dc576107ac9261034f926000926107b7575b50604051637aefe0bb60e01b6020820152926105319184919060248301611b66565b506100166001600355565b6105319192506107d49060203d81116103d5576103c68183610f5d565b919061078a565b346101c45760203660031901126101c4576004356107f8816102a7565b6001600160a01b031660008181526004602052604081205490919060001981019081116106a65761082a6003916101f1565b500161010061ff00198254161790558082526004602052816040812055600654600160401b81101561089b57600181018060065581101561022b577ff652222313e28459528d920b65115c16c04f3efc82aaedc97be59f3f377c0d3f0180546001600160a01b031916909117905580f35b610ec1565b346101c45760003660031901126101c4576001546040516001600160a01b039091168152602090f35b346101c45760003660031901126101c45760005460405163d1f956b160e01b815290602090829060049082906001600160a01b03165afa9081156103dc5761039b9161095291600091610962575b5060405161092481610f25565b601381527267657464656c656761746f72436f756e74282960681b602082015261094c61110f565b9161201b565b6040519081529081906020820190565b61097a915060203d81116103d5576103c68183610f5d565b38610917565b346101c45761098e366101c9565b6006548110156101c45760066000527ff652222313e28459528d920b65115c16c04f3efc82aaedc97be59f3f377c0d3f01546040516001600160a01b039091168152602090f35b346101c45760203660031901126101c45760206109fc6004356109f7816102a7565b6112a1565b6040516001600160a01b039091168152f35b346101c45760203660031901126101c4576020610a35600435610a30816102a7565b611ca2565b6040519015158152f35b346101c457610a4d366101c9565b60065481101561022b5760066000527ff652222313e28459528d920b65115c16c04f3efc82aaedc97be59f3f377c0d3f01546040516001600160a01b039091168152602090f35b346101c457610aa2366101c9565b60008054604051630536340960e21b81529192916020916001600160a01b039081168383600481845afa9283156103dc576004938593610aec928992610b79575b50163314611044565b6040516311be646b60e21b815292839182905afa9182156103dc57848085610b2b95829583958492610b5c575b50505af1610b25611e84565b50611eb4565b60405190815233907fcdcc745fe377b103b45fa0cec23ae3ef93d6fc6a84a01f0d18c40b354dd1d5d890602090a280f35b610b729250803d106103d5576103c68183610f5d565b3880610b19565b610b91919250853d87116103d5576103c68183610f5d565b9038610ae3565b346101c45760203660031901126101c457600435610bb5816102a7565b60018060a01b031660005260046020526020604060002054604051908152f35b346101c45760203660031901126101c457600435610bf2816102a7565b803b6000610bff826110f3565b92610c0d6040519485610f5d565b82845260208401903c602d815110610c3357602a015160405160609190911c8152602090f35b60405162461bcd60e51b81526020600482015260136024820152724e6f742061206d696e696d616c2070726f787960681b6044820152606490fd5b346101c45760003660031901126101c4576020600554604051908152f35b346101c4576020806003193601126101c45760048035610cab816102a7565b60005460405163d1f956b160e01b81526001600160a01b03949093909182918591829088165afa9081156103dc5761039b9461038994600093610d0c575b506040519316818401528252610cfe82610f25565b610d06611e4b565b90611fdf565b610d24919350823d84116103d5576103c68183610f5d565b9138610ce9565b346101c45760003660031901126101c457600054604051634bf9c0ad60e11b8152906020908190839060049082906001600160a01b03165afa9081156103dc57610d956103899261039b94600091610db0575b50610d87611ba1565b610d8f61110f565b91611f1d565b919080610da6575b61037c90611bc5565b5081518114610d9d565b610dc79150833d85116103d5576103c68183610f5d565b38610d7e565b346101c45760003660031901126101c4576020600654604051908152f35b346101c45760003660031901126101c4576020610e06611dc0565b604051908152f35b346101c457610e1c366101c9565b600054604051630536340960e21b81526001600160a01b0392916020908290600490829087165afa80156103dc5761001693610e6292600092610e675750163314611044565b611196565b610b9191925060203d81116103d5576103c68183610f5d565b15610e8757565b60405162461bcd60e51b815260206004820152601260248201527170726f706f7365722e746f2e65786973747360701b6044820152606490fd5b634e487b7160e01b600052604160045260246000fd5b600554600160401b81101561089b57600181018060055581101561022b57600560005260021b7f036b6384b5eca791c62761152d0c79bb0604c104a5fb6f4eb0703f3154bb3db00190600090565b6040810190811067ffffffffffffffff82111761089b57604052565b6020810190811067ffffffffffffffff82111761089b57604052565b90601f8019910116810190811067ffffffffffffffff82111761089b57604052565b908160209103126101c45751610f94816102a7565b90565b6040513d6000823e3d90fd5b60005b838110610fb65750506000910152565b8181015183820152602001610fa6565b9291608090600a9260a08652600d60a08701526c2ab9b2b9102a3930b739b332b960991b60c087015260018060a01b031660208601526000604086015260e0606086015280518060e087015261102681610100936020858a019101610fa3565b601f8019910116850101930152565b908160209103126101c4575190565b1561104b57565b60405162461bcd60e51b815260206004820152600f60248201526e6f776e2e6e6f6e617574682e44414f60881b6044820152606490fd5b1561108957565b60405162461bcd60e51b815260206004820152601760248201527f70726f706f7365722e696e76616c69642e666f726d69640000000000000000006044820152606490fd5b634e487b7160e01b600052601160045260246000fd5b6000198101919082116106a657565b67ffffffffffffffff811161089b57601f01601f191660200190565b6040519061111c82610f41565b60008252565b6040519061112f82610f25565b6012825271676574526573756c742875696e743235362960701b6020830152565b519081151582036101c457565b91908260c09103126101c457815191602081015191604082015191606081015191610f9460a061118f60808501611150565b9301611150565b801561129e576111b66111bb916111b1600554821115611082565b6110e4565b6101f1565b506000546111d1906001600160a01b03166102ec565b604051918291630536340960e21b835282600460209485935afa9081156103dc5761124561126d9361123861034f60039561127f98600091611281575b5061122a60028701546040519384918783019190602083019252565b611232611122565b90611ef2565b805181018201910161115d565b60018701805460ff60a01b191692151560a01b60ff60a01b1692909217909155969350505050565b019060ff801983541691151516179055565b565b6112989150843d86116103d5576103c68183610f5d565b3861120e565b50565b6001600160a01b0381166000908152600460205260409020548015159081611360575b501561135a576001600160a01b031660009081526004602052604090206112ef906111b690546110e4565b50600181015460a01c60ff169081611344575b81611323575b6000911561131f57546001600160a01b0316905090565b5090565b905061133e61133a600383015460ff9060081c1690565b1590565b90611308565b9050611354600382015460ff1690565b90611302565b50600090565b90506005541015386112c4565b1561137457565b60405162461bcd60e51b815260206004820152601c60248201527f7574696c6974792e62617463682e6c696d69742e6578636565646564000000006044820152606490fd5b156113c057565b60405162461bcd60e51b815260206004820152601760248201527f7574696c6974792e756e7365637572652e6661696c65640000000000000000006044820152606490fd5b60405161141181610f41565b60008152906000368137565b6040519061142a82610f25565b600f82526e6765744e6f646573436f756e74282960881b6020830152565b1561144f57565b60405162461bcd60e51b81526020600482015260136024820152727574696c6974792e696d706f72742e646f6e6560681b6044820152606490fd5b919082018092116106a657565b60001981146106a65760010190565b604051906114b382610f25565b601782527f6765744e6f64654279496e6465782875696e74323536290000000000000000006020830152565b156114e657565b60405162461bcd60e51b815260206004820152601660248201527570726f78792e696e76616c69642e696e7374616e636560501b6044820152606490fd5b6040519061153182610f25565b6013825272496e7374546f5573657228616464726573732960681b6020830152565b1561155a57565b60405162461bcd60e51b815260206004820152601260248201527170726f78792e696e76616c69642e6e6f646560701b6044820152606490fd5b604051906115a182610f25565b601082526f6765744e6f646528616464726573732960801b6020830152565b908160a09103126101c45780519160208201516115dc816102a7565b91604081015191610f94608061118f60608501611150565b611601606482111561136d565b61160d6106e630611ca2565b60008054909190611626906001600160a01b03166102ec565b6040805163111ea8c160e21b808252600495939092916020919082818981855afa80156103dc57611670918791611a10575b50611661611405565b9061166a61141d565b9061201b565b958615611a0657835183818a8163ab6e844f60e01b968782525afa9081156103dc576116bb916116a99189916119e95750611661611405565b916116b5838a11611448565b8261148a565b968088116119e1575b505b8681106116d7575050505050505050565b85546116eb906001600160a01b03166102ec565b90845186815284818b81865afa9283156103dc578a9189946119c2575b50611742875180611720868a83019190602083019252565b0395611734601f1997888101845283610f5d565b61173c6114a6565b90611f9b565b6001600160a01b039061175881831615156114df565b87895180958c825281865afa9384156103dc57818a8f968b8f946117af959261199d575b5091516001600160a01b03909316918301918252906117a79083906020015b038a8101845283610f5d565b61173c611524565b926117bd8385161515611553565b888a5180968d825281845afa80156103dc576118318f9661180f8f6001948f91978f9894611823959261197c575b5091516001600160a01b039092168883019081529192909161181b91849160200190565b038d8101845283610f5d565b611232611594565b8480825183010191016115c0565b5050509490941693611844811515611553565b148015611973575b6118f6575b505061185d8280611a4a565b89548790611873906001600160a01b03166102ec565b8951948580928a82525afa80156103dc576118d0956118ca948c926118d5575b5089516350db85d160e01b8a8201526001600160a01b03938416602482015293909216604484015290610531908360648101610525565b50611497565b6116c6565b61053192506118f0908a3d8c116103d5576103c68183610f5d565b91611893565b8951948580928d82525afa9283156103dc578c936119499261193d928d92611950575b508a516001600160a01b039091168a820190815290926117a7918491602090910190565b03888101845283610f5d565b8638611851565b6117a791925061196c908b3d8d116103d5576103c68183610f5d565b9190611919565b5082151561184c565b61181b9250611997908a3d8c116103d5576103c68183610f5d565b916117eb565b6117a792506119bb61179b91833d85116103d5576103c68183610f5d565b925061177c565b6119da919450863d88116103d5576103c68183610f5d565b9238611708565b9650386116c4565b611a009150863d88116103d5576103c68183610f5d565b38611658565b5050505050505050565b611a009150843d86116103d5576103c68183610f5d565b600260035414611a38576002600355565b604051633ee5aeb560e01b8152600490fd5b60055490600160401b82101561089b57611a6f610451836001600395016005556101f1565b6001810180546001600160a01b0319166001600160a01b038516178155805460ff60a01b1916600160a01b17905501805461ffff191660011790556005546001600160a01b03909116600090815260046020526040902055565b15611ad057565b60405162461bcd60e51b815260206004820152601060248201526f7574696c6974792e6167652e646f6e6560801b6044820152606490fd5b67ffffffffffffffff811161089b5760051b60200190565b90611b2a82611b08565b611b376040519182610f5d565b8281528092611b48601f1991611b08565b0190602036910137565b805182101561022b5760209160051b010190565b6020908160408183019282815285518094520193019160005b828110611b8d575050505090565b835185529381019392810192600101611b7f565b60405190611bae82610f25565b6008825267697353616665282960c01b6020830152565b15611bcc57565b60405162461bcd60e51b815260206004820152601960248201527f6f776e2e7361666567756172642e63616c6c2e6661696c6564000000000000006044820152606490fd5b908160209103126101c457610f9490611150565b60405190611c3282610f25565b601582527469735365637572654261736528616464726573732960581b6020830152565b15611c5d57565b60405162461bcd60e51b815260206004820152601a60248201527f6f776e2e736563757265626173652e63616c6c2e6661696c65640000000000006044820152606490fd5b6000546001600160a01b0316604051918291634bf9c0ad60e11b835282600460209485935afa9283156103dc57610f9493611d109261034f92600092611d2b575b506040516001600160a01b039091168582019081529092611d08918491602090910190565b610365611c25565b919080611d21575b61037c90611c56565b5081518114611d18565b611d08919250611d4790863d88116103d5576103c68183610f5d565b9190611ce3565b60405190611d5b82610f25565b601182527069735369676e657228616464726573732960781b6020830152565b15611d8257565b60405162461bcd60e51b81526020600482015260166024820152751bdddb8b9cda59db995c8b98d85b1b0b99985a5b195960521b6044820152606490fd5b60005460405163111ea8c160e21b815290602090829060049082906001600160a01b03165afa80156103dc57610f9491600091611e2d575b50604051611e0581610f25565b6005815264616765282960d81b602082015260405191611e2483610f41565b6000835261201b565b611e45915060203d81116103d5576103c68183610f5d565b38611df8565b60405190611e5882610f25565b601882527f697364656c656761746f724e6f646528616464726573732900000000000000006020830152565b3d15611eaf573d90611e95826110f3565b91611ea36040519384610f5d565b82523d6000602084013e565b606090565b15611ebb57565b60405162461bcd60e51b815260206004820152600f60248201526e1bdddb8b989d5c9b8b99985a5b1959608a1b6044820152606490fd5b90611efd9291611f1d565b9060009015611f0a575090565b6040519150611f1882610f41565b815290565b803b15611f8257600092839263ffffffff60e01b90602081519101201690611f6f6024604051809360208201958652611f5f8151809260208686019101610fa3565b8101036004810184520182610f5d565b5191620dbba0fa611f7e611e84565b9091565b505050600090604051611f9481610f41565b6000815290565b9291611fa991600094611f1d565b9080611fd4575b611fb75750565b9091506020818051810103126101c457602001516102ec816102a7565b506020815114611fb0565b9291611fed91600094611f1d565b9080612010575b611ffb5750565b610f9491925060208082518301019101611c11565b506020815114611ff4565b929161202991600094611f1d565b908061204c575b6120375750565b610f9491925060208082518301019101611035565b506020815114612030565b906020825192015163ffffffff60e01b90818116936004811061207957505050565b60040360031b82901b16169150565b6001600160a01b0381161561210957600080918351908260208601915af1906120af611e84565b91156120b9575090565b805160009190600411612103576120d09150612057565b8151156120e05750805190602001fd5b604051630870274d60e21b81526001600160e01b03199091166004820152602490fd5b506120d0565b60405162461bcd60e51b81526020600482015260126024820152711bdddb8b9a5b9d985b1a590b9d185c99d95d60721b6044820152606490fdfea2646970667358221220244ecbbe399eb42f884785489a5d0fa6f9050938023841353c828c2120c710d864736f6c634300081400336080346200193757601f6200432238819003918201601f19168301916001600160401b03831184841017620018dc578084926020946040528339810103126200193757516001600160a01b0381169081900362001937578015620018f25760018060a01b0319338160015416176001556000541617600055601e6024556001602555600160265560026027556103e86028556102586029556003602a556019602b5568878678326eac900000602c55670de0b6b3a7640000602e5569021e19e0c9bab2400000602f55600160305561014060315560a0603255600560335560ff196034541660345561025860c0620000f66200193c565b6002815260646020820152600160408201526023606082015260646080820152600160a0820152015260026006556064600755600160085560236009556064600a556001600b55610258600c556200014d6200193c565b6002815261025860c06103f29283602082015260016040820152600b6060820152600a6080820152600160a082015201526002600d5580600e556001600f55600b601055600a601155600160125561025860135561025860c0620001b06200193c565b60028152836020820152600160408201526044606082015260646080820152600160a0820152015260026014556015556001601655604460175560646018556001601955610258601a556078604062000208620019bc565b60198152600a602082015201526019601b55600a601c556078601d55604062000230620019bc565b600a8152600160208201526101689182910152600a601e556001601f5560205560405160c0810181811060018060401b03821117620018dc5760019160a091604052600481528260208201528260408201528260608201528260808201520152600460215564010101010164ffffffffff19602254161760225562000320620002b86200195c565b680821ab0d44149800008152601e60208083019182526001600052602d905290517f4ac3b22e31fa68474eb1c8f858cd447cf1ee3eef7de8984178a7afa8f4fe0cd055517f4ac3b22e31fa68474eb1c8f858cd447cf1ee3eef7de8984178a7afa8f4fe0cd155565b620003966200032e6200195c565b681043561a88293000008152601e60208083019182526002600052602d905290517f3acd642f41c4abca13e6953c1b760d7f24daf271c41106e480dd1fea313ccc7255517f3acd642f41c4abca13e6953c1b760d7f24daf271c41106e480dd1fea313ccc7355565b6200040c620003a46200195c565b682086ac3510526000008152601e60208083019182526003600052602d905290517f1d82e85504d8f49072f846129ecee69c763b08a82ee3d81cda62b57a7576d37b55517f1d82e85504d8f49072f846129ecee69c763b08a82ee3d81cda62b57a7576d37c55565b620004826200041a6200195c565b6830ca024f987b9000008152601e60208083019182526004600052602d905290517faa2e4aefbe0e8a3f17f0ef1a62898433725e8346722aad5b9b38d3974d21608355517faa2e4aefbe0e8a3f17f0ef1a62898433725e8346722aad5b9b38d3974d21608455565b620004f8620004906200195c565b685150ae84a8cdf000008152601e60208083019182526005600052602d905290517ff4e70c5971a4cc8cf9f9f8ecc4b5217b9d5f157385b05a56c54d37f26435621c55517ff4e70c5971a4cc8cf9f9f8ecc4b5217b9d5f157385b05a56c54d37f26435621d55565b6200056e620005066200195c565b6871d75ab9b9205000008152601e60208083019182526006600052602d905290517fb166da6939c8546909795cbdc2ac7eb95e976cea31f094e55573dbb6ac49f74f55517fb166da6939c8546909795cbdc2ac7eb95e976cea31f094e55573dbb6ac49f75055565b620005e46200057c6200195c565b68a2a15d09519be000008152601e60208083019182526007600052602d905290517f4d73f294a2cb7f5a471fde2e2c5652a46cf819d439af00ca2c7f02d5472b48b855517f4d73f294a2cb7f5a471fde2e2c5652a46cf819d439af00ca2c7f02d5472b48b955565b62000652620005f26200195c565b600781526019602080830191825260016000526003905290517fa15bc60c955c405d20d9149c709e2460f1c2d9a497496a7f46004d1772c3054c55517fa15bc60c955c405d20d9149c709e2460f1c2d9a497496a7f46004d1772c3054d55565b620006c0620006606200195c565b600781526064602080830191825260026000526003905290517fc3a24b0501bd2c13a7e57f2db4369ec4c223447539fc0724a9d55ac4a06ebd4d55517fc3a24b0501bd2c13a7e57f2db4369ec4c223447539fc0724a9d55ac4a06ebd4e55565b6200072f620006ce6200195c565b600781526101f4602080830191825260036000819052905290517fcbc4e5fb02c3d1de23a9f1e014b4d2ee5aeaea9505df5e855c9210bf472495af55517fcbc4e5fb02c3d1de23a9f1e014b4d2ee5aeaea9505df5e855c9210bf472495b055565b6200079e6200073d6200195c565b600781526107d0602080830191825260046000526003905290517f83ec6a1f0257b830b5e016457c9cf1435391bf56cc98f369a58a54fe9377246555517f83ec6a1f0257b830b5e016457c9cf1435391bf56cc98f369a58a54fe9377246655565b6200080d620007ac6200195c565b60078152611388602080830191825260056000526003905290517f405aad32e1adbac89bb7f176e338b8fc6e994ca210c9bb7bdca249b46594225055517f405aad32e1adbac89bb7f176e338b8fc6e994ca210c9bb7bdca249b46594225155565b6200087c6200081b6200195c565b60078152612710602080830191825260066000526003905290517fc69056f16cbaa3c616b828e333ab7d3a32310765507f8f58359e99ebb7a885f355517fc69056f16cbaa3c616b828e333ab7d3a32310765507f8f58359e99ebb7a885f455565b620008ee6200088a6200195c565b60078082526161a86020808401918252600092909252600390915290517ff2c49132ed1cee2a7e75bde50d332a2f81f1d01e5456d8a19d1df09bd561dbd255517ff2c49132ed1cee2a7e75bde50d332a2f81f1d01e5456d8a19d1df09bd561dbd355565b620008f86200197c565b600080825260066020808401918252600160408501818152600560608701818152608088018481529390965290925293517f1471eb6eb2c5e789fc3de43f8ce62938c7d1836ec861730447e2ada8fd81017b5590517f1471eb6eb2c5e789fc3de43f8ce62938c7d1836ec861730447e2ada8fd81017c55517f1471eb6eb2c5e789fc3de43f8ce62938c7d1836ec861730447e2ada8fd81017d55517f1471eb6eb2c5e789fc3de43f8ce62938c7d1836ec861730447e2ada8fd81017e55517f1471eb6eb2c5e789fc3de43f8ce62938c7d1836ec861730447e2ada8fd81017f55620009e26200197c565b60018082526003602080840191825260408401838152600560608601818152608087019586526002600052925293517f89832631fb3c3307a103ba2c84ab569c64d6182a18893dcd163f0f1c2090733a5590517f89832631fb3c3307a103ba2c84ab569c64d6182a18893dcd163f0f1c2090733b5591517f89832631fb3c3307a103ba2c84ab569c64d6182a18893dcd163f0f1c2090733c5590517f89832631fb3c3307a103ba2c84ab569c64d6182a18893dcd163f0f1c2090733d55517f89832631fb3c3307a103ba2c84ab569c64d6182a18893dcd163f0f1c2090733e5562000acc6200197c565b60028152600f6020808301918252600a6040840190815260056060850181815260016080870190815260036000529190935293517fa9bc9a3a348c357ba16b37005d7e6b3236198c0e939f4af8c5f19b8deeb8ebc05591517fa9bc9a3a348c357ba16b37005d7e6b3236198c0e939f4af8c5f19b8deeb8ebc15590517fa9bc9a3a348c357ba16b37005d7e6b3236198c0e939f4af8c5f19b8deeb8ebc255517fa9bc9a3a348c357ba16b37005d7e6b3236198c0e939f4af8c5f19b8deeb8ebc355517fa9bc9a3a348c357ba16b37005d7e6b3236198c0e939f4af8c5f19b8deeb8ebc45562000bba6200197c565b60028152600f6020808301918252600a6040840190815260056060850181815260016080870190815260046000529190935293517f3eec716f11ba9e820c81ca75eb978ffb45831ef8b7a53e5e422c26008e1ca6d55591517f3eec716f11ba9e820c81ca75eb978ffb45831ef8b7a53e5e422c26008e1ca6d65590517f3eec716f11ba9e820c81ca75eb978ffb45831ef8b7a53e5e422c26008e1ca6d755517f3eec716f11ba9e820c81ca75eb978ffb45831ef8b7a53e5e422c26008e1ca6d855517f3eec716f11ba9e820c81ca75eb978ffb45831ef8b7a53e5e422c26008e1ca6d95562000ca86200197c565b60028152600f6020808301918252600a6040840190815260056060850181815260016080870190815260008390529190935293517f458b30c2d72bfd2c6317304a4594ecbafe5f729d3111b65fdc3a33bd48e5432d5591517f458b30c2d72bfd2c6317304a4594ecbafe5f729d3111b65fdc3a33bd48e5432e5590517f458b30c2d72bfd2c6317304a4594ecbafe5f729d3111b65fdc3a33bd48e5432f55517f458b30c2d72bfd2c6317304a4594ecbafe5f729d3111b65fdc3a33bd48e5433055517f458b30c2d72bfd2c6317304a4594ecbafe5f729d3111b65fdc3a33bd48e543315562000d966200197c565b60028152604b602080830191825260646040840181815260fa60608601908152608086019283526006600052600590935293517f069400f22b28c6c362558d92f66163cec5671cba50b61abd2eecfcd0eaeac5185591517f069400f22b28c6c362558d92f66163cec5671cba50b61abd2eecfcd0eaeac5195591517f069400f22b28c6c362558d92f66163cec5671cba50b61abd2eecfcd0eaeac51a5590517f069400f22b28c6c362558d92f66163cec5671cba50b61abd2eecfcd0eaeac51b55517f069400f22b28c6c362558d92f66163cec5671cba50b61abd2eecfcd0eaeac51c5562000e846200197c565b60028152604b602080830191825260646040840181815260fa60608601908152608086019283526007600052600590935293517feddb6698d7c569ff62ff64f1f1492bf14a54594835ba0faac91f84b4f5d814605591517feddb6698d7c569ff62ff64f1f1492bf14a54594835ba0faac91f84b4f5d814615591517feddb6698d7c569ff62ff64f1f1492bf14a54594835ba0faac91f84b4f5d814625590517feddb6698d7c569ff62ff64f1f1492bf14a54594835ba0faac91f84b4f5d8146355517feddb6698d7c569ff62ff64f1f1492bf14a54594835ba0faac91f84b4f5d814645562000f726200197c565b60028152604b602080830191825260646040840181815260fa60608601908152608086019283526008600052600590935293517ffb33122aa9f93cc639ebe80a7bc4784c11e6053dde89c6f4f7e268c6a623da1e5591517ffb33122aa9f93cc639ebe80a7bc4784c11e6053dde89c6f4f7e268c6a623da1f5591517ffb33122aa9f93cc639ebe80a7bc4784c11e6053dde89c6f4f7e268c6a623da205590517ffb33122aa9f93cc639ebe80a7bc4784c11e6053dde89c6f4f7e268c6a623da2155517ffb33122aa9f93cc639ebe80a7bc4784c11e6053dde89c6f4f7e268c6a623da2255620010606200197c565b60028152604b602080830191825260646040840181815260fa60608601908152608086019283526009600052600590935293517fc0a4a8be475dfebc377ebef2d7c4ff47656f572a08dd92b81017efcdba0febe15591517fc0a4a8be475dfebc377ebef2d7c4ff47656f572a08dd92b81017efcdba0febe25591517fc0a4a8be475dfebc377ebef2d7c4ff47656f572a08dd92b81017efcdba0febe35590517fc0a4a8be475dfebc377ebef2d7c4ff47656f572a08dd92b81017efcdba0febe455517fc0a4a8be475dfebc377ebef2d7c4ff47656f572a08dd92b81017efcdba0febe5556200114e6200197c565b60028152604b602080830191825260646040840181815260fa6060860190815260808601928352600a600052600590935293517fa18b128af1c8fc61ff46f02d146e54546f34d340574cf2cef6a753cba6b6701d5591517fa18b128af1c8fc61ff46f02d146e54546f34d340574cf2cef6a753cba6b6701e5591517fa18b128af1c8fc61ff46f02d146e54546f34d340574cf2cef6a753cba6b6701f5590517fa18b128af1c8fc61ff46f02d146e54546f34d340574cf2cef6a753cba6b6702055517fa18b128af1c8fc61ff46f02d146e54546f34d340574cf2cef6a753cba6b67021556200123c6200197c565b60028152604b602080830191825260646040840181815260fa6060860190815260808601928352600b600052600590935293517f40f28f99a40bc9f6beea1013afdbc3cdcc689eb76b82c4de06c0acf1e1932ed55591517f40f28f99a40bc9f6beea1013afdbc3cdcc689eb76b82c4de06c0acf1e1932ed65591517f40f28f99a40bc9f6beea1013afdbc3cdcc689eb76b82c4de06c0acf1e1932ed75590517f40f28f99a40bc9f6beea1013afdbc3cdcc689eb76b82c4de06c0acf1e1932ed855517f40f28f99a40bc9f6beea1013afdbc3cdcc689eb76b82c4de06c0acf1e1932ed9556200132a6200197c565b60028152604b602080830191825260646040840181815260fa6060860190815260808601928352600c600052600590935293517ff907e7e6656fa73566b18c1215272fe9fca2c55c552e62c923e21e000ac4b4e65591517ff907e7e6656fa73566b18c1215272fe9fca2c55c552e62c923e21e000ac4b4e75591517ff907e7e6656fa73566b18c1215272fe9fca2c55c552e62c923e21e000ac4b4e85590517ff907e7e6656fa73566b18c1215272fe9fca2c55c552e62c923e21e000ac4b4e955517ff907e7e6656fa73566b18c1215272fe9fca2c55c552e62c923e21e000ac4b4ea55620014186200197c565b60028152604b602080830191825260646040840181815260fa6060860190815260808601928352600d600052600590935293517f03145c75015e7a856ecd94c41432ef3cb669d6360af23433588937fefdfac8255591517f03145c75015e7a856ecd94c41432ef3cb669d6360af23433588937fefdfac8265591517f03145c75015e7a856ecd94c41432ef3cb669d6360af23433588937fefdfac8275590517f03145c75015e7a856ecd94c41432ef3cb669d6360af23433588937fefdfac82855517f03145c75015e7a856ecd94c41432ef3cb669d6360af23433588937fefdfac82955620015066200197c565b60028152604b602080830191825260646040840181815260fa6060860190815260808601928352600e600052600590935293517f783638979e3582b3ffd6d53fc06c949ac31d1ac75a5e2c3531fbe1f91045eb535591517f783638979e3582b3ffd6d53fc06c949ac31d1ac75a5e2c3531fbe1f91045eb545591517f783638979e3582b3ffd6d53fc06c949ac31d1ac75a5e2c3531fbe1f91045eb555590517f783638979e3582b3ffd6d53fc06c949ac31d1ac75a5e2c3531fbe1f91045eb5655517f783638979e3582b3ffd6d53fc06c949ac31d1ac75a5e2c3531fbe1f91045eb5755620015f46200197c565b60028152604b602080830191825260646040840181815260fa6060860190815260808601928352600f600052600590935293517f58f00e8ecc6f5419941dd0bafec65a4cc188d31713fb1fe224257460930df8af5591517f58f00e8ecc6f5419941dd0bafec65a4cc188d31713fb1fe224257460930df8b05591517f58f00e8ecc6f5419941dd0bafec65a4cc188d31713fb1fe224257460930df8b15590517f58f00e8ecc6f5419941dd0bafec65a4cc188d31713fb1fe224257460930df8b255517f58f00e8ecc6f5419941dd0bafec65a4cc188d31713fb1fe224257460930df8b35562001773620016e66200199c565b60128152600a6020808301918252602d604084019081526003600052600490915291517f2e174c10e159ea99b867ce3205125c24a42d128804e4070ed6fcc8cc98166aa055517f2e174c10e159ea99b867ce3205125c24a42d128804e4070ed6fcc8cc98166aa155517f2e174c10e159ea99b867ce3205125c24a42d128804e4070ed6fcc8cc98166aa255565b6200180e620017816200199c565b60128152600a6020808301918252605a604084019081526005600052600490915291517f04cde762ef08b6b6c5ded8e8c4c0b3f4e5c9ad7342c88fcc93681b4588b73f0555517f04cde762ef08b6b6c5ded8e8c4c0b3f4e5c9ad7342c88fcc93681b4588b73f0655517f04cde762ef08b6b6c5ded8e8c4c0b3f4e5c9ad7342c88fcc93681b4588b73f0755565b620018aa6200181c6200199c565b60098152600a602080830191825261270f604084019081526007600052600490915291517fbeb3bad75134cb432e5707980e3245c52c5998a1125ee30f2f0dbf3925b1e55155517fbeb3bad75134cb432e5707980e3245c52c5998a1125ee30f2f0dbf3925b1e55255517fbeb3bad75134cb432e5707980e3245c52c5998a1125ee30f2f0dbf3925b1e55355565b6001603355600160ff19603454161760345566038d7ea4c68000602e55600a602b556040516129469081620019dc8239f35b634e487b7160e01b600052604160045260246000fd5b60405162461bcd60e51b815260206004820152601360248201527f6f776e2e696e76616c69642e68657862617365000000000000000000000000006044820152606490fd5b600080fd5b6040519060e082016001600160401b03811183821017620018dc57604052565b60408051919082016001600160401b03811183821017620018dc57604052565b6040519060a082016001600160401b03811183821017620018dc57604052565b60405190606082016001600160401b03811183821017620018dc57604052565b620019c66200199c565b9060008252600060208301526000604083015256fe60806040526004361015610018575b361561001657005b005b60003560e01c806307175c83146103c857806309307c62146103c35780630b225f1a146103be5780630ea0d222146103b957806311df44db146103b457806312065fe0146103af57806314be92a5146103aa57806315a544ed146103a55780631605aed9146103a057806316f0115b1461039b578063192b48ee146103965780631f185d161461039157806326c5adae1461038c578063298fc460146103875780633688236d146103825780633b9b79551461037d5780634151331d14610378578063438fe1921461037357806343c06bc41461036e57806344ec16bc146103695780634b62954f146103645780634dd4396c1461035f57806353423e861461035a57806354541683146103555780635640dbfc14610350578063592a02a81461034b5780635962205f146103465780635a0e9038146103415780636b81c82f1461033c5780636c7deb5d146103375780637687e3711461033257806378ef376f1461032d5780637bc908c61461032857806388ed3bb5146103235780638c62d0861461031e5780638da5cb5b1461031957806391fc8aa8146103145780639319d0b51461030f5780639ce7ce0f1461030a5780639eb8b44e14610305578063a1f7f53914610300578063a88fcea6146102fb578063a9df70b9146102f6578063aebcd32a146102f1578063af0b21d3146102ec578063af484526146102e7578063b49c064c146102e2578063b5939a37146102dd578063b85f1f8d146102d8578063b90306ad146102d3578063c54e44b0146102ce578063c5a136d4146102c9578063e01ad5fd146102c4578063e0a9bc2b146102bf578063e2a1f69a146102ba578063eddd0d9c146102b5578063f2a6bbc7146102b0578063fc0e74d1146102ab5763fdc10bc90361000e57611dd5565b611db2565b611d0b565b611c64565b611c0c565b611bf1565b611b52565b611a64565b6119cb565b611918565b6118e7565b6118c9565b6118a6565b611875565b611857565b611812565b611765565b611747565b6116a0565b6114dd565b6113db565b611334565b611316565b6112ed565b611201565b6111e3565b6111c5565b61111e565b61105a565b610fb3565b610ed9565b610e89565b610e31565b610d7b565b610d1c565b610cfe565b610ce0565b610c9b565b610bee565b610b47565b610a9a565b610a7c565b610a2f565b610a06565b6109e8565b610924565b610858565b610759565b6106a1565b610649565b61062b565b61060d565b610566565b61054a565b6104ee565b6104d0565b6104b2565b6103eb565b346103e65760003660031901126103e6576020602b54604051908152f35b600080fd5b346103e65760403660031901126103e65761040c610407611fd8565b61246f565b61041533612103565b8015610436575b610425906124b0565b610016602435600435602e55602f55565b50600054604051630536340960e21b8152906001600160a01b03906020908390600490829085165afa9081156104ad576104259260009261047d575b50163314905061041c565b61049f91925060203d81116104a6575b6104978183611ef3565b810190611f15565b9038610472565b503d61048d565b611f2d565b346103e65760003660031901126103e6576020603354604051908152f35b346103e65760003660031901126103e6576020602954604051908152f35b346103e65760003660031901126103e657600d54600e54600f54601054601154601254601354604080519788526020880196909652948601939093526060850191909152608084015260a083015260c082015260e090f35b0390f35b346103e65760003660031901126103e657602047604051908152f35b346103e65760203660031901126103e657610582610407611fd8565b61058b33612103565b80156105a6575b61059b906124b0565b610016600435602955565b50600054604051630536340960e21b8152906001600160a01b03906020908390600490829085165afa9081156104ad5761059b926000926105ed575b501633149050610592565b61060691925060203d81116104a6576104978183611ef3565b90386105e2565b346103e65760003660031901126103e6576020602f54604051908152f35b346103e65760003660031901126103e6576020602e54604051908152f35b346103e65760003660031901126103e657600654600754600854600954600a54600b54600c54604080519788526020880196909652948601939093526060850191909152608084015260a083015260c082015260e090f35b346103e65760203660031901126103e6576106bd610407611fd8565b6106c633612103565b80156106e1575b6106d6906124b0565b610016600435612542565b50600054604051630536340960e21b8152906001600160a01b03906020908390600490829085165afa9081156104ad576106d692600092610728575b5016331490506106cd565b61074191925060203d81116104a6576104978183611ef3565b903861071d565b6001600160a01b038116036103e657565b346103e6576020806003193601126103e65760049081359061077a82610748565b60005481906001600160a01b0316604051634bf9c0ad60e11b815294859182905afa9182156104ad576107df610819936107fb9261054696600092610835575b506040516001600160a01b0390911685820190815290926107ed918491602090910190565b03601f198101845283611ef3565b6107f56121af565b9061235b565b91908061082b575b61080c906121dc565b8082518301019101611fc3565b60405190151581529081906020820190565b5081518114610803565b6107ed91925061085190863d88116104a6576104978183611ef3565b91906107ba565b346103e65760203660031901126103e6576000546040516369e8d84b60e11b815290602090829060049082906001600160a01b03165afa80156104ad576108c86108ec91610546936000916108fc575b50604051906108b682611e9f565b600082526108c26128c2565b90612431565b6108e7600435916108e26108dd602b546124fc565b6124fc565b6128f0565b61252f565b6040519081529081906020820190565b610914915060203d81116104a6576104978183611ef3565b386108a8565b801515036103e657565b346103e65760203660031901126103e6576004356109418161091a565b61094c610407611fd8565b61095533612103565b801561097b575b90610969610016926124b0565b60ff8019603454169115151617603455565b50600054604051630536340960e21b81526001600160a01b0392916020908290600490829087165afa80156104ad5761001693610969926000926109c8575b50339116149192505061095c565b6109e191925060203d81116104a6576104978183611ef3565b90386109ba565b346103e65760003660031901126103e6576020602854604051908152f35b346103e65760003660031901126103e6576000546040516001600160a01b039091168152602090f35b346103e65760203660031901126103e65760043560005260046020526040600020805461054660026001840154930154604051938493846040919493926060820195825260208201520152565b346103e65760003660031901126103e6576020602654604051908152f35b346103e65760603660031901126103e657610ab6610407611fd8565b610abf33612103565b8015610ae0575b610acf906124b0565b61001660443560243560043561264b565b50600054604051630536340960e21b8152906001600160a01b03906020908390600490829085165afa9081156104ad57610acf92600092610b27575b501633149050610ac6565b610b4091925060203d81116104a6576104978183611ef3565b9038610b1c565b346103e65760203660031901126103e657610b63610407611fd8565b610b6c33612103565b8015610b87575b610b7c906124b0565b610016600435602555565b50600054604051630536340960e21b8152906001600160a01b03906020908390600490829085165afa9081156104ad57610b7c92600092610bce575b501633149050610b73565b610be791925060203d81116104a6576104978183611ef3565b9038610bc3565b346103e65760403660031901126103e657610c0a610407611fd8565b610c1333612103565b8015610c34575b610c23906124b0565b610016602435600435602755602855565b50600054604051630536340960e21b8152906001600160a01b03906020908390600490829085165afa9081156104ad57610c2392600092610c7b575b501633149050610c1a565b610c9491925060203d81116104a6576104978183611ef3565b9038610c70565b346103e65760203660031901126103e657600435600052602d602052604060002060018154910154906105466040519283928360209093929193604081019481520152565b346103e65760003660031901126103e6576020602a54604051908152f35b346103e65760003660031901126103e6576020602554604051908152f35b346103e65760003660031901126103e65760c060215460ff60225460405192835281811615156020840152818160081c1615156040840152818160101c1615156060840152818160181c161515608084015260201c16151560a0820152f35b346103e65760c03660031901126103e657610d97610407611fd8565b610da033612103565b8015610dca575b610db0906124b0565b61001660a435608435606435604435602435600435612550565b50600054604051630536340960e21b8152906001600160a01b03906020908390600490829085165afa9081156104ad57610db092600092610e11575b501633149050610da7565b610e2a91925060203d81116104a6576104978183611ef3565b9038610e06565b346103e65760203660031901126103e657600435600052600560205260a06040600020805490600181015490600281015460046003830154920154926040519485526020850152604084015260608301526080820152f35b346103e65760003660031901126103e657601b54601c54601d5460408051938452602084019290925290820152606090f35b60809060031901126103e65760043590602435906044359060643590565b346103e657610ee736610ebb565b92610ef6610407939293611fd8565b610eff33612103565b8015610f47575b90610f126002926124b0565b610f1a612779565b5060018114610f36575b14610f2b57005b601e55601f55602055005b82601b5583601c5584601d55610f24565b50600054604051630536340960e21b81526001600160a01b0392916020908290600490829087165afa80156104ad57600293610f1292600092610f93575b503391161491925050610f06565b610fac91925060203d81116104a6576104978183611ef3565b9038610f85565b346103e65760203660031901126103e657610fcf610407611fd8565b610fd833612103565b8015610ff3575b610fe8906124b0565b610016600435602a55565b50600054604051630536340960e21b8152906001600160a01b03906020908390600490829085165afa9081156104ad57610fe89260009261103a575b501633149050610fdf565b61105391925060203d81116104a6576104978183611ef3565b903861102f565b346103e65760203660031901126103e6576004356110778161091a565b611082610407611fd8565b61108b33612103565b80156110b1575b9061109f610016926124b0565b60ff8019602354169115151617602355565b50600054604051630536340960e21b81526001600160a01b0392916020908290600490829087165afa80156104ad576100169361109f926000926110fe575b503391161491925050611092565b61111791925060203d81116104a6576104978183611ef3565b90386110f0565b346103e65760203660031901126103e65761113a610407611fd8565b61114333612103565b801561115e575b611153906124b0565b610016600435603055565b50600054604051630536340960e21b8152906001600160a01b03906020908390600490829085165afa9081156104ad57611153926000926111a5575b50163314905061114a565b6111be91925060203d81116104a6576104978183611ef3565b903861119a565b346103e65760003660031901126103e6576020603054604051908152f35b346103e65760003660031901126103e6576020603154604051908152f35b346103e65760c03660031901126103e65760243561121e8161091a565b60443561122a8161091a565b6064356112368161091a565b608435906112438261091a565b60a435926112508461091a565b61125b610407611fd8565b61126433612103565b8015611280575b94611278610016966124b0565b60043561269a565b50600054604051630536340960e21b81526001600160a01b039691602090829060049082908b165afa80156104ad5761001697611278926000926112cd575b50339116149196505061126b565b6112e691925060203d81116104a6576104978183611ef3565b90386112bf565b346103e65760003660031901126103e6576001546040516001600160a01b039091168152602090f35b346103e65760003660031901126103e6576020602c54604051908152f35b346103e65760203660031901126103e657611350610407611fd8565b61135933612103565b8015611374575b611369906124b0565b610016600435602655565b50600054604051630536340960e21b8152906001600160a01b03906020908390600490829085165afa9081156104ad57611369926000926113bb575b501633149050611360565b6113d491925060203d81116104a6576104978183611ef3565b90386113b0565b346103e6576101003660031901126103e6576113f8610407611fd8565b61140133612103565b8015611431575b611411906124b0565b61001660e43560c43560a4356084356064356044356024356004356127c0565b50600054604051630536340960e21b8152906001600160a01b03906020908390600490829085165afa9081156104ad5761141192600092611478575b501633149050611408565b61149191925060203d81116104a6576104978183611ef3565b903861146d565b6102a0810192916000915b600783106114b057505050565b600190606083519182518152602092838101518483015260408091015190820152019201920191906114a3565b346103e65760003660031901126103e6576040516114fa81611ebb565b60005b60e0811061168b57610546611510611f39565b600160005260046020526115487fabd6e7cb50984ff9c2f3e18a2660c3353dadf4e3291deeb275dae2cd1e44fe05612798565b612798565b81526002600052600460205261157d7f91da3fd0782e51c6b3986e9e672fd566868e71f3dbc2d6c2cd6fbb3e361af2a7612798565b602082015261159a61154360036000526004602052604060002090565b6040820152600460008190526020526115d27f1a1e6821cde7d0159c0d293177871e09677b4e42307c7db3ba94f8648a5a050f612798565b60608201526005600052600460205261160a7f04cde762ef08b6b6c5ded8e8c4c0b3f4e5c9ad7342c88fcc93681b4588b73f05612798565b6080820152600660005260046020526116427fc59312466997bb42aaaf719ece141047820e6b34531e1670dc1852a453648f0f612798565b60a08201526007600052600460205261167a7fbeb3bad75134cb432e5707980e3245c52c5998a1125ee30f2f0dbf3925b1e551612798565b60c082015260405191829182611498565b602090611696612779565b81840152016114fd565b346103e65760003660031901126103e65760005460405163d1f956b160e01b815290602090829060049082906001600160a01b03165afa9081156104ad57610546916108ec91600091611729575b506040516116fb81611ed7565b601381527267657464656c656761746f72436f756e74282960681b6020820152611723611f64565b91612431565b611741915060203d81116104a6576104978183611ef3565b386116ee565b346103e65760003660031901126103e6576020602754604051908152f35b346103e65760403660031901126103e657611781610407611fd8565b61178a33612103565b80156117ab575b61179a906124b0565b610016602435600435603155603255565b50600054604051630536340960e21b8152906001600160a01b03906020908390600490829085165afa9081156104ad5761179a926000926117f2575b501633149050611791565b61180b91925060203d81116104a6576104978183611ef3565b90386117e7565b346103e65760203660031901126103e6576004356000526003602052604060002060018154910154906105466040519283928360209093929193604081019481520152565b346103e65760003660031901126103e6576020602454604051908152f35b346103e65760203660031901126103e657602061189c60043561189781610748565b612103565b6040519015158152f35b346103e65760003660031901126103e657602060ff603454166040519015158152f35b346103e65760003660031901126103e6576020603254604051908152f35b346103e65760003660031901126103e657601e54601f54602080546040805194855291840192909252820152606090f35b346103e65760203660031901126103e657600054604051630536340960e21b8152906001600160a01b03906020908390600490829085165afa9182156104ad576000926119ab575b50339116036119745761001660043561228a565b60405162461bcd60e51b815260206004820152600f60248201526e6f776e2e6e6f6e617574682e44414f60881b6044820152606490fd5b6119c491925060203d81116104a6576104978183611ef3565b9038611960565b346103e65760203660031901126103e6576004356119e881610748565b803b60006119f582611f48565b92611a036040519485611ef3565b82845260208401903c602d815110611a2957602a015160405160609190911c8152602090f35b60405162461bcd60e51b81526020600482015260136024820152724e6f742061206d696e696d616c2070726f787960681b6044820152606490fd5b346103e657611a7236610ebb565b90611a81610407949394611fd8565b611a8a33612103565b8015611ae6575b92611a9d6002946124b0565b611aa960088210612610565b60405194611ab686611e7e565b85526020850191825260408501928352600052600460205260406000209351845551600184015551910155600080f35b50600054604051630536340960e21b81526001600160a01b0394916020908290600490829089165afa80156104ad57600295611a9d92600092611b32575b503391161491945050611a91565b611b4b91925060203d81116104a6576104978183611ef3565b9038611b24565b346103e6576020806003193601126103e65760048035611b7181610748565b60005460405163d1f956b160e01b81526001600160a01b03949093909182918591829088165afa9081156104ad576105469461081994600093611bd2575b506040519316818401528252611bc482611ed7565b611bcc612221565b906123f5565b611bea919350823d84116104a6576104978183611ef3565b9138611baf565b346103e65760003660031901126103e657602061189c611fd8565b346103e65760003660031901126103e657601454601554601654601754601854601954601a54604080519788526020880196909652948601939093526060850191909152608084015260a083015260c082015260e090f35b346103e65760203660031901126103e657611c80610407611fd8565b611c8933612103565b8015611ca4575b611c99906124b0565b610016600435602b55565b50600054604051630536340960e21b8152906001600160a01b03906020908390600490829085165afa9081156104ad57611c9992600092611ceb575b501633149050611c90565b611d0491925060203d81116104a6576104978183611ef3565b9038611ce0565b346103e65760203660031901126103e657611d27610407611fd8565b611d3033612103565b8015611d4b575b611d40906124b0565b610016600435603355565b50600054604051630536340960e21b8152906001600160a01b03906020908390600490829085165afa9081156104ad57611d4092600092611d92575b501633149050611d37565b611dab91925060203d81116104a6576104978183611ef3565b9038611d87565b346103e65760003660031901126103e657602060ff602354166040519015158152f35b346103e65760003660031901126103e65760005460405163111ea8c160e21b815290602090829060049082906001600160a01b03165afa9081156104ad57610546916108ec91600091611e4a575b50604051611e3081611ed7565b6005815264616765282960d81b6020820152611723611f64565b611e62915060203d81116104a6576104978183611ef3565b38611e23565b634e487b7160e01b600052604160045260246000fd5b6060810190811067ffffffffffffffff821117611e9a57604052565b611e68565b6020810190811067ffffffffffffffff821117611e9a57604052565b60e0810190811067ffffffffffffffff821117611e9a57604052565b6040810190811067ffffffffffffffff821117611e9a57604052565b90601f8019910116810190811067ffffffffffffffff821117611e9a57604052565b908160209103126103e65751611f2a81610748565b90565b6040513d6000823e3d90fd5b60405190611f4682611ebb565b565b67ffffffffffffffff8111611e9a57601f01601f191660200190565b60405190611f7182611e9f565b60008252565b15611f7e57565b60405162461bcd60e51b815260206004820152601960248201527f6f776e2e7361666567756172642e63616c6c2e6661696c6564000000000000006044820152606490fd5b908160209103126103e65751611f2a8161091a565b600054604051634bf9c0ad60e11b8152906020908190839060049082906001600160a01b03165afa9182156104ad57611f2a9261204e91600091612069575b5060405161202481611ed7565b6008815267697353616665282960c01b848201526040519161204583611e9f565b6000835261235b565b91908061205f575b61080c90611f77565b5081518114612056565b6120809150833d85116104a6576104978183611ef3565b38612017565b6040519061209382611ed7565b601582527469735365637572654261736528616464726573732960581b6020830152565b156120be57565b60405162461bcd60e51b815260206004820152601a60248201527f6f776e2e736563757265626173652e63616c6c2e6661696c65640000000000006044820152606490fd5b6000546001600160a01b0316604051918291634bf9c0ad60e11b835282600460209485935afa9283156104ad57611f2a93612171926107df9260009261218c575b506040516001600160a01b039091168582019081529092612169918491602090910190565b6107f5612086565b919080612182575b61080c906120b7565b5081518114612179565b6121699192506121a890863d88116104a6576104978183611ef3565b9190612144565b604051906121bc82611ed7565b601182527069735369676e657228616464726573732960781b6020830152565b156121e357565b60405162461bcd60e51b81526020600482015260166024820152751bdddb8b9cda59db995c8b98d85b1b0b99985a5b195960521b6044820152606490fd5b6040519061222e82611ed7565b601882527f697364656c656761746f724e6f646528616464726573732900000000000000006020830152565b3d15612285573d9061226b82611f48565b916122796040519384611ef3565b82523d6000602084013e565b606090565b600080546040516311be646b60e21b815290602090829060049082906001600160a01b03165afa9081156104ad57828481938293839161233d575b505af16122d061225a565b50156123065760405190815233907fcdcc745fe377b103b45fa0cec23ae3ef93d6fc6a84a01f0d18c40b354dd1d5d890602090a2565b60405162461bcd60e51b815260206004820152600f60248201526e1bdddb8b989d5c9b8b99985a5b1959608a1b6044820152606490fd5b612355915060203d81116104a6576104978183611ef3565b386122c5565b9190823b156123dc578051906020918263ffffffff60e01b92012016916040519180830193845281519160005b8381106123c85750505091816123b560248260009795968897018783820152036004810184520182611ef3565b5191620dbba0fa6123c461225a565b9091565b818101830151858201602401528201612388565b5050506000906040516123ee81611e9f565b6000815290565b92916124039160009461235b565b9080612426575b6124115750565b611f2a91925060208082518301019101611fc3565b50602081511461240a565b929161243f9160009461235b565b9080612464575b61244d5750565b9091506020818051810103126103e6576020015190565b506020815114612446565b1561247657565b60405162461bcd60e51b81526020600482015260126024820152716f776e2e696e76616c69642e69735361666560701b6044820152606490fd5b156124b757565b60405162461bcd60e51b815260206004820152601b60248201527f6f776e2e6e6f6e617574682e44414f6f725365637572656261736500000000006044820152606490fd5b90670de0b6b3a76400009182810292818404149015171561251957565b634e487b7160e01b600052601160045260246000fd5b8181029291811591840414171561251957565b61254b906124fc565b602c55565b91929394909460108310156125db576040519460a086019486861067ffffffffffffffff871117611e9a57611f46976125ac96604052875260208701526040860152606085015260808401526000526005602052604060002090565b906080600491805184556020810151600185015560408101516002850155606081015160038501550151910155565b60405162461bcd60e51b815260206004820152600d60248201526c1a5b9d985b1a59081b195d995b609a1b6044820152606490fd5b1561261757565b60405162461bcd60e51b815260206004820152600c60248201526b696e76616c69642072616e6b60a01b6044820152606490fd5b9161265860088410612610565b60405192604084019284841067ffffffffffffffff851117611e9a57600193604052845260208401918252600052600360205260406000209251835551910155565b939491946040519360c0850185811067ffffffffffffffff821117611e9a57611f469760a09761275a9761273d96612712946040528282521515928360208301521515948560408301521515958660608301521515978860808301521515998a91015260215560ff8019602254169115151617602255565b6022805462ffff00191660089290921b61ff00169190911791151560101b62ff000016919091179055565b63ff00000060225491151560181b169063ff000000191617602255565b64ff0000000060225491151560201b169064ff00000000191617602255565b6040519061278682611e7e565b60006040838281528260208201520152565b906040516127a581611e7e565b60406002829480548452600181015460208501520154910152565b949196939095926040519760e089019789891067ffffffffffffffff8a1117611e9a57600398604052808a528160208b01528260408b01528360608b01528460808b01528560a08b01528660c08b0152600188146128a1575b5050505050505060028114612867575b146128315750565b8051601455602081015160155560408101516016556060810151601755608081015160185560a081015160195560c00151601a55565b8251600d556020830151600e556040830151600f556060830151601055608083015160115560a083015160125560c0830151601355612829565b600655600755600855600955600a55600b55600c5538808080808080612819565b604051906128cf82611ed7565b60128252716f7a6f6e655072696365496e55534454282960701b6020830152565b81156128fa570490565b634e487b7160e01b600052601260045260246000fdfea2646970667358221220b8d6add050aac3760669749cebeec6e68c6c1b9b9ceb9bacb9f5a4c9a8fdbf7064736f6c63430008140033","linkReferences":{}},"methodIdentifiers":{"rule741()":"0a5b38ab","transferRequest()":"3da8676f"},"id":34}