{"abi":[{"type":"constructor","inputs":[{"name":"_hex","type":"address","internalType":"address"},{"name":"_price","type":"address","internalType":"address"},{"name":"_old741","type":"address","internalType":"address"}],"stateMutability":"nonpayable"},{"type":"function","name":"dAOAssembly","inputs":[],"outputs":[{"name":"","type":"address","internalType":"address"}],"stateMutability":"view"},{"type":"function","name":"daocore","inputs":[],"outputs":[{"name":"","type":"address","internalType":"address"}],"stateMutability":"view"},{"type":"function","name":"nested741","inputs":[],"outputs":[{"name":"","type":"address","internalType":"address"}],"stateMutability":"view"},{"type":"function","name":"old741","inputs":[],"outputs":[{"name":"","type":"address","internalType":"address"}],"stateMutability":"view"},{"type":"function","name":"price","inputs":[],"outputs":[{"name":"","type":"address","internalType":"address"}],"stateMutability":"view"}],"bytecode":{"object":"0x6080346101b757601f6190f038819003918201601f19168301926001600160401b03929091838511838610176101a15781606092849260409788528339810103126101b75761004d816101bc565b6100648461005d602085016101bc565b93016101bc565b9160018060a01b03199273c0cee8b561cc4f60869776ca5b0b7a295e04f5af84600154161760015585516113219586820196828810828911176101a15761032583396001600160a01b039485168088526000979092908190036020019088f080156101835785168660035416176003558751615bfa808201908282108483111761018d5760209183916134f6833985815203019088f08015610183578516866002541617600255875191611eb0808401928484109084111761016f579183916020936116468439815203019086f080156101655790838092168560045416176004551683600154161760015516908254161790555161015490816101d18239f35b86513d87823e3d90fd5b634e487b7160e01b89526041600452602489fd5b88513d89823e3d90fd5b634e487b7160e01b8a52604160045260248afd5b634e487b7160e01b600052604160045260246000fd5b600080fd5b51906001600160a01b03821682036101b75756fe608080604052600436101561001357600080fd5b600090813560e01c90816314837455146100f55750806314d8d024146100ce57806345cff900146100a75780635540c5ac146100805763a035b1fe1461005857600080fd5b3461007d578060031936011261007d576001600160a01b036020915416604051908152f35b80fd5b503461007d578060031936011261007d5760206001600160a01b0360015416604051908152f35b503461007d578060031936011261007d5760206001600160a01b0360025416604051908152f35b503461007d578060031936011261007d5760206001600160a01b0360045416604051908152f35b90503461011a578160031936011261011a576020906001600160a01b03600354168152f35b5080fdfea26469706673582212202e51bf3120d805093a1789a923a50b5fc66858feb3881cd5787cd4e6e9f3d6f464736f6c634300081400336080346100ca57601f61132138819003918201601f19168301916001600160401b038311848410176100cf578084926020946040528339810103126100ca57516001600160a01b038116908190036100ca5780156100855760018060a01b0319338160015416176001556000541617600055600060045560405161123b90816100e68239f35b60405162461bcd60e51b815260206004820152601360248201527f6f776e2e696e76616c69642e68657862617365000000000000000000000000006044820152606490fd5b600080fd5b634e487b7160e01b600052604160045260246000fdfe60806040526004361015610018575b361561001657005b005b60003560e01c806312065fe0146101085780631f185d161461010357806325924f34146100fe5780633b9b7955146100f957806361b7fbd9146100f45780638da5cb5b146100ef578063a1f7f539146100ea578063af484526146100e5578063b90306ad146100e0578063c54e44b0146100db578063c89b84fd146100d6578063dbac26e9146100d1578063e01ad5fd146100cc578063e0a9bc2b146100c75763fdc10bc90361000e576109a3565b610904565b61086a565b610827565b610714565b610672565b610552565b610481565b6103c3565b61039c565b6102c5565b610294565b610263565b61013a565b3461012457600036600319011261012457602047604051908152f35b600080fd5b6001600160a01b0381160361012457565b34610124576020806003193601126101245760049081359061015b82610129565b8061017d6101716000546001600160a01b031690565b6001600160a01b031690565b60405194858092634bf9c0ad60e11b82525afa91821561025e576101d161020b936101ed9261021d9660009261022b575b506101df906040519384918783019190916001600160a01b036020820193169052565b03601f198101845283610a19565b6101e7610e98565b90611089565b919080610221575b6101fe90610ed1565b8082518301019101610dff565b60405190151581529081906020820190565b0390f35b50815181146101f5565b6101df91925061025090863d8811610257575b6102488183610a19565b810190610a3b565b91906101ae565b503d61023e565b610a53565b3461012457602036600319011261012457602061028a60043561028581610129565b610b72565b6040519015158152f35b346101245760003660031901126101245760206001600160a01b0360005416604051908152f35b8015150361012457565b34610124576040366003190112610124576004356102e281610129565b6024356102ee816102bb565b6001600160a01b03600092600460208386541660405192838092630536340960e21b82525afa801561025e5761032f91869161037e575b5083163314610d30565b16825260036020526040822060ff1981541660ff8315151617905560001461036b5760045460001981146103665760010160045580f35b610d0c565b6004548015610366576000190160045580f35b610396915060203d8111610257576102488183610a19565b38610325565b346101245760003660031901126101245760206001600160a01b0360015416604051908152f35b3461012457600036600319011261012457600460206001600160a01b03600054166040519283809263d1f956b160e01b82525afa90811561025e5761021d9161045391600091610463575b5060405161041b816109dc565b601381527f67657464656c656761746f72436f756e74282900000000000000000000000000602082015261044d610a7b565b916111c7565b6040519081529081906020820190565b61047b915060203d8111610257576102488183610a19565b3861040e565b3461012457602080600319360112610124576004908135906104a282610129565b806104b86101716000546001600160a01b031690565b60405194858092634bf9c0ad60e11b82525afa91821561025e576101d161020b936105149261021d9660009261052f575b5061050c906040519384918783019190916001600160a01b036020820193169052565b6101e7610e14565b919080610525575b6101fe90610e4d565b508151811461051c565b61050c91925061054b90863d8811610257576102488183610a19565b91906104e9565b3461012457602080600319360112610124576004356001600160a01b0391600092808454169060405191630536340960e21b83528383600481845afa92831561025e5760049385936105ae928992610653575b50163314610d30565b604051928380927f46f991ac0000000000000000000000000000000000000000000000000000000082525afa91821561025e5784808561060595829583958492610636575b50505af16105ff61100e565b5061103e565b60405190815233907fcdcc745fe377b103b45fa0cec23ae3ef93d6fc6a84a01f0d18c40b354dd1d5d890602090a280f35b61064c9250803d10610257576102488183610a19565b38806105f3565b61066b919250853d8711610257576102488183610a19565b90386105a5565b346101245760203660031901126101245760043561068f81610129565b803b600061069c82610a5f565b926106aa6040519485610a19565b82845260208401903c602d8151106106d057602a015160405160609190911c8152602090f35b606460405162461bcd60e51b815260206004820152601360248201527f4e6f742061206d696e696d616c2070726f7879000000000000000000000000006044820152fd5b34610124576000806003193601126108245761073a61017182546001600160a01b031690565b906040519063cfbffe5360e01b82526020928383600481845afa801561025e5761077a85916004958591610807575b50610772610a8e565b61044d610a7b565b916040519485809263ab6e844f60e01b82525afa801561025e5761021d94610453946107df94926107e4575b506107d1906101d16107b6610f1c565b94604051958693840160209093929193604081019481520152565b6107d9610cd3565b906111c7565b610d22565b819250610800906107d1923d8511610257576102488183610a19565b91906107a6565b61081e9150833d8511610257576102488183610a19565b38610769565b80fd5b34610124576020366003190112610124576001600160a01b0360043561084c81610129565b166000526003602052602060ff604060002054166040519015158152f35b3461012457602080600319360112610124576004803561088981610129565b6001600160a01b03928084600054166040519485809263d1f956b160e01b82525afa90811561025e5761021d9461020b946000936108e5575b5060405193168184015282526108d7826109dc565b6108df610fd5565b9061118b565b6108fd919350823d8411610257576102488183610a19565b91386108c2565b34610124576000366003190112610124576001600160a01b03600054166040518091634bf9c0ad60e11b825281600460209384935afa90811561025e5761096b61020b9261021d94600091610986575b5061095d610d7b565b610965610a7b565b91611089565b91908061097c575b6101fe90610db4565b5081518114610973565b61099d9150833d8511610257576102488183610a19565b38610954565b346101245760003660031901126101245760206109be610f1c565b604051908152f35b634e487b7160e01b600052604160045260246000fd5b6040810190811067ffffffffffffffff8211176109f857604052565b6109c6565b6020810190811067ffffffffffffffff8211176109f857604052565b90601f8019910116810190811067ffffffffffffffff8211176109f857604052565b908160209103126101245751610a5081610129565b90565b6040513d6000823e3d90fd5b67ffffffffffffffff81116109f857601f01601f191660200190565b60405190610a88826109fd565b60008252565b60405190610a9b826109dc565b600c82527f72616e6b666f7244414f282900000000000000000000000000000000000000006020830152565b60405190610ad4826109dc565b601682527f67657455736572546f53746f72286164647265737329000000000000000000006020830152565b60405190610b0d826109dc565b600682527f72616e6b282900000000000000000000000000000000000000000000000000006020830152565b60405190610b46826109dc565b600882527f69734c6f636b28290000000000000000000000000000000000000000000000006020830152565b610b876101716000546001600160a01b031690565b9060405163cfbffe5360e01b81526020908181600481875afa801561025e57610bbe83916004936000916108075750610772610a8e565b946040519283809263ab6e844f60e01b82525afa801561025e57610c17928492600092610cb0575b506040516001600160a01b03909316908301908152610c099083906020016101d1565b610c11610ac7565b9061113a565b916001600160a01b03831615610ca857610c5b610c44610c35610b00565b610c3d610a7b565b90866111c7565b93610c4d610b39565b610c55610a7b565b9161118b565b9210159182610c9f575b5081610c6f575090565b610a509150610c94610c9b916001600160a01b03166000526003602052604060002090565b5460ff1690565b1590565b15915038610c65565b505050600090565b819250610ccc90610c09923d8511610257576102488183610a19565b9190610be6565b60405190610ce0826109dc565b601d82527f67657472616e6b636f756e742875696e743235362c75696e74323536290000006020830152565b634e487b7160e01b600052601160045260246000fd5b906003820180921161036657565b15610d3757565b606460405162461bcd60e51b815260206004820152600f60248201527f6f776e2e6e6f6e617574682e44414f00000000000000000000000000000000006044820152fd5b60405190610d88826109dc565b600882527f69735361666528290000000000000000000000000000000000000000000000006020830152565b15610dbb57565b606460405162461bcd60e51b815260206004820152601960248201527f6f776e2e7361666567756172642e63616c6c2e6661696c6564000000000000006044820152fd5b908160209103126101245751610a50816102bb565b60405190610e21826109dc565b601582527f69735365637572654261736528616464726573732900000000000000000000006020830152565b15610e5457565b606460405162461bcd60e51b815260206004820152601a60248201527f6f776e2e736563757265626173652e63616c6c2e6661696c65640000000000006044820152fd5b60405190610ea5826109dc565b601182527f69735369676e65722861646472657373290000000000000000000000000000006020830152565b15610ed857565b606460405162461bcd60e51b815260206004820152601660248201527f6f776e2e7369676e65722e63616c6c2e6661696c6564000000000000000000006044820152fd5b600460206001600160a01b0360005416604051928380927f447aa3040000000000000000000000000000000000000000000000000000000082525afa801561025e57610a5091600091610fb7575b50604051610f77816109dc565b600581527f6167652829000000000000000000000000000000000000000000000000000000602082015260405191610fae836109fd565b600083526111c7565b610fcf915060203d8111610257576102488183610a19565b38610f6a565b60405190610fe2826109dc565b601882527f697364656c656761746f724e6f646528616464726573732900000000000000006020830152565b3d15611039573d9061101f82610a5f565b9161102d6040519384610a19565b82523d6000602084013e565b606090565b1561104557565b606460405162461bcd60e51b815260206004820152600f60248201527f6f776e2e6275726e2e6661696c656400000000000000000000000000000000006044820152fd5b9190823b15611121577fffffffff00000000000000000000000000000000000000000000000000000000815160208093012016916040519180830193845281519160005b83811061110d5750505091816110fa60248260009795968897018783820152036004810184520182610a19565b5191620dbba0fa61110961100e565b9091565b8181018301518582016024015282016110cd565b505050600090604051611133816109fd565b6000815290565b929161114891600094611089565b9080611180575b6111565750565b9091506020818051810103126101245760206001600160a01b0391015161117c81610129565b1690565b50602081511461114f565b929161119991600094611089565b90806111bc575b6111a75750565b610a5091925060208082518301019101610dff565b5060208151146111a0565b92916111d591600094611089565b90806111fa575b6111e35750565b909150602081805181010312610124576020015190565b5060208151146111dc56fea26469706673582212207f7a4ab010501de8da910743fff6ddc1603eae88cabafbeeed4076857fdfb0a764736f6c634300081400336080346100cf57601f611eb038819003918201601f19168301916001600160401b038311848410176100d4578084926020946040528339810103126100cf57516001600160a01b038116908190036100cf57801561008a5760018060a01b031933816001541617600155600054161760005560336003556003600455604051611dc590816100eb8239f35b60405162461bcd60e51b815260206004820152601360248201527f6f776e2e696e76616c69642e68657862617365000000000000000000000000006044820152606490fd5b600080fd5b634e487b7160e01b600052604160045260246000fdfe60806040526004361015610018575b361561001657005b005b60003560e01c8063013cf08b1461016857806312065fe0146101635780631f185d161461015e5780633595df1a146101595780633b9b795514610154578063438596321461014f57806365153c4b1461014a5780638da5cb5b1461014557806398e527d314610140578063995e43391461013b578063a1f7f53914610136578063af48452614610131578063b90306ad1461012c578063c54e44b014610127578063c7f758a814610122578063c9d27afe1461011d578063d153356b14610118578063d3a3084914610113578063e01ad5fd1461010e578063e0a9bc2b146101095763fdc10bc90361000e5761105b565b611040565b611019565b610d89565b610ca0565b610b26565b610ab6565b6109d8565b610903565b6107de565b6107bb565b610737565b610719565b6106f2565b6105e4565b610575565b61054e565b610511565b6104e0565b6104b3565b610402565b6005548110156101a857600b906005600052027f036b6384b5eca791c62761152d0c79bb0604c104a5fb6f4eb0703f3154bb3db00190600090565b634e487b7160e01b600052603260045260246000fd5b90600182811c921680156101ee575b60208310146101d857565b634e487b7160e01b600052602260045260246000fd5b91607f16916101cd565b9060009291805491610209836101be565b91828252600193848116908160001461026b575060011461022b575b50505050565b90919394506000526020928360002092846000945b838610610257575050505001019038808080610225565b805485870183015294019385908201610240565b9294505050602093945060ff191683830152151560051b01019038808080610225565b634e487b7160e01b600052604160045260246000fd5b6020810190811067ffffffffffffffff8211176102c057604052565b61028e565b6040810190811067ffffffffffffffff8211176102c057604052565b90601f8019910116810190811067ffffffffffffffff8211176102c057604052565b9061031e61031792604051938480926101f8565b03836102e1565b565b60005b8381106103335750506000910152565b8181015183820152602001610323565b9060209161035c81518092818552858086019101610320565b601f01601f1916010190565b9892956103ba959e9d9b956103fa99936101809c9661031e9f9a949960408e6001600160a01b036103a46103f09e6101a0808552840190610343565b9516602082015201528c820360608e0152610343565b9e60808b015260a08a015260c089015260e088015261010087015215156101208601526101408501906001600160a01b03169052565b1515610160830152565b019015159052565b346104ae5760203660031901126104ae576004356005548110156104ae576104299061016d565b506040519061043c8261031781846101f8565b6104aa6001600160a01b0392836001840154169360028401549361046260038201610303565b9560048201549160058101546006820154600783015491600a6008850154940154956040519b8c9b8c9760ff8a60b01c169b60ff808c60a81c169c8c60081c169b1699610368565b0390f35b600080fd5b346104ae5760003660031901126104ae57602047604051908152f35b6001600160a01b038116036104ae57565b346104ae5760203660031901126104ae576020610507600435610502816104cf565b611778565b6040519015158152f35b346104ae5760203660031901126104ae57600435600019810190811161054957600561053e60209261016d565b500154604051908152f35b611192565b346104ae5760003660031901126104ae5760206001600160a01b0360005416604051908152f35b346104ae5760403660031901126104ae57600435602435610595816104cf565b6000198201918211610549576105ce60ff9160096105b460209561016d565b5001906001600160a01b0316600052602052604060002090565b54166040519015158152f35b801515036104ae57565b346104ae5760403660031901126104ae57600435602435610604816105da565b61060d33611778565b156106ae57600019820191808311610549576106a961062e6100169461016d565b5061065c60ff6106543360098501906001600160a01b0316600052602052604060002090565b541615611311565b610695600a8201549161067560ff8460b01c16156112c6565b61068160ff8416611230565b600761068b611822565b91015411156113a7565b60081c6001600160a01b031633141561135c565b611401565b606460405162461bcd60e51b815260206004820152601260248201527f6f776e2e696e76616c69642e7369676e657200000000000000000000000000006044820152fd5b346104ae5760003660031901126104ae5760206001600160a01b0360015416604051908152f35b346104ae5760003660031901126104ae576020600554604051908152f35b346104ae5760203660031901126104ae576004356000198101908111610549576107609061016d565b506004810154600682015460078301546008840154600a9094015460408051948552602085019390935291830152606082019290925260ff60a883901c81161515608083015260b09290921c909116151560a082015260c090f35b346104ae5760003660031901126104ae5760206107d66119bc565b604051908152f35b346104ae576020806003193601126104ae576004908135906107ff826104cf565b806108216108156000546001600160a01b031690565b6001600160a01b031690565b60405194858092634bf9c0ad60e11b82525afa9182156108fe576108756108af93610891926104aa966000926108cb575b50610883906040519384918783019190916001600160a01b036020820193169052565b03601f1981018452836102e1565b61088b611670565b90611b77565b9190806108c1575b6108a2906116a9565b808251830101910161159b565b60405190151581529081906020820190565b5081518114610899565b6108839192506108f090863d88116108f7575b6108e881836102e1565b810190611510565b9190610852565b503d6108de565b611528565b346104ae5760203660031901126104ae5760046001600160a01b0360208160005416604051938480927f14d8d0240000000000000000000000000000000000000000000000000000000082525afa9182156108fe576000926109b8575b503391160361097457610016600435611a83565b606460405162461bcd60e51b815260206004820152600f60248201527f6f776e2e6e6f6e617574682e44414f00000000000000000000000000000000006044820152fd5b6109d191925060203d81116108f7576108e881836102e1565b9038610960565b346104ae5760203660031901126104ae576004356109f5816104cf565b803b6000610a0282611534565b92610a1060405194856102e1565b82845260208401903c602d815110610a3657602a015160405160609190911c8152602090f35b606460405162461bcd60e51b815260206004820152601360248201527f4e6f742061206d696e696d616c2070726f7879000000000000000000000000006044820152fd5b93610a936080949796939260a0875260a0870190610343565b966001600160a01b03809316602087015260408601521660608401521515910152565b346104ae5760203660031901126104ae57600435600019810190811161054957610adf9061016d565b506001600160a01b036104aa81600184015416926103176002820154610b10600a84015493604051938480926101f8565b60405195869560ff85169460081c169286610a7a565b346104ae5760403660031901126104ae57600435602435610b46816105da565b610b4f33611778565b8015610c7d575b610b5f906111d6565b610c52610c45610b76610b7185611221565b61016d565b50600a81015490610b8960ff8316611230565b610ba06007820154610b99611822565b111561127b565b610bb060ff8360b01c16156112c6565b610bee6009820192610695610be9610be5610bde3388906001600160a01b0316600052602052604060002090565b5460ff1690565b1590565b611311565b60008515610c78575060015b610c0c60ff60048401921682546111c9565b9055600085610c6a5750610c2b60ff60066001935b01921682546111c9565b9055336001600160a01b0316600052602052604060002090565b805460ff19166001179055565b610c5b33611778565b610c6157005b61001691611401565b60ff6006610c2b9293610c21565b610bfa565b50610c866115b0565b8015610b565750610b5f610c99336118db565b9050610b56565b346104ae5760403660031901126104ae57610cb96115b0565b15610d1757333003610cd357600480356003556024359055005b606460405162461bcd60e51b815260206004820152600d60248201527f64616f2e66616b652e636f7265000000000000000000000000000000000000006044820152fd5b606460405162461bcd60e51b815260206004820152601260248201527f6f776e2e696e76616c69642e69735361666500000000000000000000000000006044820152fd5b9181601f840112156104ae5782359167ffffffffffffffff83116104ae57602083818601950101116104ae57565b346104ae5760a03660031901126104ae5767ffffffffffffffff6004358181116104ae57610dbb903690600401610d5b565b602435610dc7816104cf565b6064358481116104ae57610ddf903690600401610d5b565b9390926001600160a01b03831615610fd55760055491680100000000000000008310156102c057610e1760019384810160055561016d565b509682116102c057610e3382610e2d89546101be565b89611076565b600090601f8311600114610f5b5793600a969383610f42999794610ea694610eb798600092610f50575b5050600019600383901b1c191690821b1787555b8601906001600160a01b03167fffffffffffffffffffffffff0000000000000000000000000000000000000000825416179055565b6044356002850155600384016110ca565b610edd610ed6610ed1610ec86119bc565b600354906111a8565b6111bb565b6064900490565b6008820155610ef5608435610ef0611822565b6111c9565b60078201550180547fffffffffffffffffffffff0000000000000000000000000000000000000000ff163360081b74ffffffffffffffffffffffffffffffffffffffff0016178155610c45565b600554604051908152602090f35b013590503880610e5d565b601f19831691610f7089600052602060002090565b92815b818110610fbf57509484610ea694610eb798948394610f429d9b98600a9d9a10610fa5575b505050811b018755610e71565b0135600019600384901b60f8161c19169055388080610f98565b8383013585559386019360209283019201610f73565b606460405162461bcd60e51b815260206004820152601260248201527f6f776e2e64656661756c742e73656e64657200000000000000000000000000006044820152fd5b346104ae5760203660031901126104ae57602061050760043561103b816104cf565b6118db565b346104ae5760003660031901126104ae5760206105076115b0565b346104ae5760003660031901126104ae5760206107d6611822565b90601f811161108457505050565b600091825260208220906020601f850160051c830194106110c0575b601f0160051c01915b8281106110b557505050565b8181556001016110a9565b90925082906110a0565b90929167ffffffffffffffff81116102c0576110f0816110ea84546101be565b84611076565b6000601f821160011461112a578192939460009261111f575b50508160011b916000199060031b1c1916179055565b013590503880611109565b601f1982169461113f84600052602060002090565b91805b87811061117a575083600195969710611160575b505050811b019055565b0135600019600384901b60f8161c19169055388080611156565b90926020600181928686013581550194019101611142565b634e487b7160e01b600052601160045260246000fd5b8181029291811591840414171561054957565b906063820180921161054957565b9190820180921161054957565b156111dd57565b606460405162461bcd60e51b815260206004820152601660248201527f64616f2e6e6f6e617574682e64656c656761746f7273000000000000000000006044820152fd5b60001981019190821161054957565b1561123757565b606460405162461bcd60e51b815260206004820152601160248201527f64616f2e70726f702e6e6f7465786973740000000000000000000000000000006044820152fd5b1561128257565b606460405162461bcd60e51b815260206004820152601060248201527f64616f2e766f74696e672e656e646564000000000000000000000000000000006044820152fd5b156112cd57565b606460405162461bcd60e51b815260206004820152601560248201527f64616f2e616c72656164792e636f6d706c6574656400000000000000000000006044820152fd5b1561131857565b606460405162461bcd60e51b815260206004820152601160248201527f64616f2e616c72656164792e766f7465640000000000000000000000000000006044820152fd5b1561136357565b606460405162461bcd60e51b815260206004820152601260248201527f64616f2e766f7465722e726573747269637400000000000000000000000000006044820152fd5b156113ae57565b606460405162461bcd60e51b815260206004820152601360248201527f64616f2e6265666f72652e646561646c696e65000000000000000000000000006044820152fd5b60001981146105495760010190565b610b7161140d91611221565b506005810161141c81546113f2565b809155600454148015611508575b611432575050565b6114a96114ce92600a8301611482817601000000000000000000000000000000000000000000007fffffffffffffffffff00ffffffffffffffffffffffffffffffffffffffffffff825416179055565b816114f5575b816114d1579060ff60a81b1960ff60a81b835492151560a81b169116179055565b60018101546001600160a01b03166114c8600360028401549301610303565b90611c95565b50565b60048401546006850154825460ff60a81b1916911160a81b60ff60a81b1617905550565b6004840154600885015411159150611488565b50811561142a565b908160209103126104ae5751611525816104cf565b90565b6040513d6000823e3d90fd5b67ffffffffffffffff81116102c057601f01601f191660200190565b1561155757565b606460405162461bcd60e51b815260206004820152601960248201527f6f776e2e7361666567756172642e63616c6c2e6661696c6564000000000000006044820152fd5b908160209103126104ae5751611525816105da565b6001600160a01b03600054166040518091634bf9c0ad60e11b825281600460209384935afa9182156108fe576115259261163891600091611653575b506040516115f9816102c5565b600881527f6973536166652829000000000000000000000000000000000000000000000000848201526040519161162f836102a4565b60008352611b77565b919080611649575b6108a290611550565b5081518114611640565b61166a9150833d85116108f7576108e881836102e1565b386115ec565b6040519061167d826102c5565b601582527f69735365637572654261736528616464726573732900000000000000000000006020830152565b156116b057565b606460405162461bcd60e51b815260206004820152601a60248201527f6f776e2e736563757265626173652e63616c6c2e6661696c65640000000000006044820152fd5b60405190611701826102c5565b601182527f69735369676e65722861646472657373290000000000000000000000000000006020830152565b1561173457565b606460405162461bcd60e51b815260206004820152601660248201527f6f776e2e7369676e65722e63616c6c2e6661696c6564000000000000000000006044820152fd5b6000546001600160a01b0316604051918291634bf9c0ad60e11b835282600460209485935afa9283156108fe57611525936117e492610875926000926117ff575b506117dc906040519384918783019190916001600160a01b036020820193169052565b61088b6116f4565b9190806117f5575b6108a29061172d565b50815181146117ec565b6117dc91925061181b90863d88116108f7576108e881836102e1565b91906117b9565b600460206001600160a01b0360005416604051928380927f447aa3040000000000000000000000000000000000000000000000000000000082525afa80156108fe57611525916000916118bd575b5060405161187d816102c5565b600581527f61676528290000000000000000000000000000000000000000000000000000006020820152604051916118b4836102a4565b60008352611c0d565b6118d5915060203d81116108f7576108e881836102e1565b38611870565b6001600160a01b039081600054169060405192839263d1f956b160e01b845283600460209586935afa9384156108fe57600094611997575b5060405191168282015281815261196a9061192d816102c5565b604051611939816102c5565b601881527f697364656c656761746f724e6f6465286164647265737329000000000000000084820152600094611b77565b91908061198d575b61197b57505090565b6115259250808251830101910161159b565b5080825114611972565b61196a929194506119b490843d86116108f7576108e881836102e1565b939091611913565b600460206001600160a01b03600054166040519283809263d1f956b160e01b82525afa80156108fe5761152591600091611a35575b506040516119fe816102c5565b601381527f67657464656c656761746f72436f756e742829000000000000000000000000006020820152604051916118b4836102a4565b611a4d915060203d81116108f7576108e881836102e1565b386119f1565b3d15611a7e573d90611a6482611534565b91611a7260405193846102e1565b82523d6000602084013e565b606090565b6000600460206001600160a01b03835416604051928380927f46f991ac0000000000000000000000000000000000000000000000000000000082525afa9081156108fe578284819382938391611b59575b505af1611adf611a53565b5015611b155760405190815233907fcdcc745fe377b103b45fa0cec23ae3ef93d6fc6a84a01f0d18c40b354dd1d5d890602090a2565b606460405162461bcd60e51b815260206004820152600f60248201527f6f776e2e6275726e2e6661696c656400000000000000000000000000000000006044820152fd5b611b71915060203d81116108f7576108e881836102e1565b38611ad4565b803b15611bf4576000927fffffffff000000000000000000000000000000000000000000000000000000008360208695519101201690611be16024604051809360208201958652611bd18151809260208686019101610320565b81010360048101845201826102e1565b5191620dbba0fa611bf0611a53565b9091565b505050600090604051611c06816102a4565b6000815290565b9291611c1b91600094611b77565b9080611c40575b611c295750565b9091506020818051810103126104ae576020015190565b506020815114611c22565b90602082519201517fffffffff00000000000000000000000000000000000000000000000000000000908181169360048110611c8657505050565b60040360031b82901b16169150565b9190916001600160a01b03811615611d4b57600091829184519160208601915af190611cbf611a53565b9115611cc9575090565b805160009190600411611d4557611ce09150611c4b565b815115611cf05750805190602001fd5b6040517f21c09d340000000000000000000000000000000000000000000000000000000081527fffffffff00000000000000000000000000000000000000000000000000000000919091166004820152602490fd5b50611ce0565b606460405162461bcd60e51b815260206004820152601260248201527f6f776e2e696e76616c69642e74617267657400000000000000000000000000006044820152fdfea2646970667358221220b77ead30e81fb9e9ec3c843d81534fb6707afbe1492c47e04582965bc1cb2bf964736f6c63430008140033608034620000d157601f62005bfa38819003918201601f19168301916001600160401b03831184841017620000d657808492602094604052833981010312620000d157516001600160a01b03811690819003620000d15780156200008c5760018060a01b03193381600154161760015560005416176000556001600355604051615b0d9081620000ed8239f35b60405162461bcd60e51b815260206004820152601360248201527f6f776e2e696e76616c69642e68657862617365000000000000000000000000006044820152606490fd5b600080fd5b634e487b7160e01b600052604160045260246000fdfe60806040526004361015610018575b361561001657005b005b60003560e01c80629db65514610347578063033eeffb146103425780630e5fd00b1461033d57806312065fe0146103385780631bb49f02146103335780631c53c2801461032e5780631f185d16146103295780632a687c87146103245780632fefc0bf1461031f578063307673e81461031a57806332ff4eab1461031557806333b59a5b146103105780633a7b55b81461030b5780633b9b7955146103065780633baee0ea14610301578063419cb27b146102fc57806342cc9d57146102f757806344585097146102f25780634f0f4aa9146102ed578063509222cd146102e857806350db85d1146102e357806361ea7208146102de578063629d671e146102d957806365d2fbd3146102d45780636a811244146102cf5780636fb412ab146102ca57806376fe6c45146102c55780637bb98498146102c057806380f85e33146102bb578063849c22ad146102b6578063896c354a146102b15780638da5cb5b146102ac57806395f72f49146102a757806398b3f215146102a2578063a1f7f5391461029d578063a89d693b14610298578063af48452614610293578063b1c490791461028e578063b366335e14610289578063b90306ad14610284578063c54e44b01461027f578063c871372b1461027a578063d1e0bbc614610275578063dcb3fc4a14610270578063e01ad5fd1461026b578063e0a9bc2b14610266578063eb95c66214610261578063eb9e9e2c1461025c578063f3ca712414610257578063fd38093b146102525763fdc10bc90361000e57612e72565b612e02565b612dd6565b612b9f565b612b73565b612b58565b612abe565b6128bf565b612885565b612807565b612765565b6126a9565b6125f9565b61247d565b612456565b612337565b61224a565b61221e565b612178565b612151565b612111565b6120e2565b6120a8565b612002565b611fb2565b611e0e565b61178b565b611456565b611418565b6113fa565b61133a565b6112e6565b6111f9565b6111c1565b611192565b611158565b610b3d565b610aee565b610982565b6108ae565b610808565b610737565b6106ff565b610659565b610549565b610514565b6104af565b610493565b610443565b610406565b346104015760203660031901126104015761036861036361539f565b6131f3565b610371336154e3565b8015610389575b6103819061325f565b610016614d9c565b5060046001600160a01b036020816000541660405193848092630536340960e21b82525afa9081156103fc57610381926000926103cc575b501633149050610378565b6103ee91925060203d81116103f5575b6103e68183612f20565b81019061323e565b90386103c1565b503d6103dc565b613253565b600080fd5b3461040157602036600319011261040157600435600052600b6020526020604060002054604051908152f35b6001600160a01b0381160361040157565b3461040157602036600319011261040157602060043561046281610432565b6001600160a01b03809116600052600482526040600020546000526007825260046040600020015416604051908152f35b3461040157600036600319011261040157602047604051908152f35b34610401576020366003190112610401576004356104cc81610432565b6001600160a01b0390811660009081526004602090815260408083205483526007825280832060020154808452600583529281902054815193845290931690820152f35b0390f35b3461040157602036600319011261040157600435600052600560205260206001600160a01b0360406000205416604051908152f35b34610401576020806003193601126104015760049081359061056a82610432565b8061058c6105806000546001600160a01b031690565b6001600160a01b031690565b60405194858092634bf9c0ad60e11b82525afa9182156103fc576105e061061a936105fc9261051096600092610636575b506105ee906040519384918783019190916001600160a01b036020820193169052565b03601f198101845283612f20565b6105f661558d565b90615839565b91908061062c575b61060d906155c6565b808251830101910161538b565b60405190151581529081906020820190565b5081518114610604565b6105ee91925061065290863d88116103f5576103e68183612f20565b91906105bd565b346104015760403660031901126104015761067561036361539f565b61067e336154e3565b801561069c575b61068e9061325f565b610016602435600435615127565b5060046001600160a01b036020816000541660405193848092630536340960e21b82525afa9081156103fc5761068e926000926106df575b501633149050610685565b6106f891925060203d81116103f5576103e68183612f20565b90386106d4565b3461040157602036600319011261040157600435600052600760205260206001600160a01b0360056040600020015416604051908152f35b3461040157602036600319011261040157600435600090338252600460205261077d6107786040842054600052600760205260ff6001604060002001541690565b613c98565b808252601060205260ff600260408420015460081c16156107c4576107af6107c1916000526010602052604060002090565b60026000918281558260018201550155565b80f35b606460405162461bcd60e51b815260206004820152601360248201527f6e65737465642e7265712e6e6f746578697374000000000000000000000000006044820152fd5b346104015760403660031901126104015761082461036361539f565b61082d336154e3565b801561084b575b61083d9061325f565b61001660243560043561517b565b5060046001600160a01b036020816000541660405193848092630536340960e21b82525afa9081156103fc5761083d9260009261088e575b501633149050610834565b6108a791925060203d81116103f5576103e68183612f20565b9038610883565b34610401576040366003190112610401576108ca61036361539f565b6108d3336154e3565b80156108f1575b6108e39061325f565b610016602435600435615217565b5060046001600160a01b036020816000541660405193848092630536340960e21b82525afa9081156103fc576108e392600092610934575b5016331490506108da565b61094d91925060203d81116103f5576103e68183612f20565b9038610929565b60e0810192916000915b6007831061096b57505050565b60019082518152602080910192019201919061095e565b3461040157602036600319011261040157610510600435610adc610acc604051926109ac84612ecc565b60e03685376109d86109c8826000526009602052604060002090565b6001600052602052604060002090565b548452610a026109f2826000526009602052604060002090565b6002600052602052604060002090565b546020850152610a2f610a1f826000526009602052604060002090565b6003600052602052604060002090565b546040850152610a5c610a4c826000526009602052604060002090565b6004600052602052604060002090565b546060850152610a89610a79826000526009602052604060002090565b6005600052602052604060002090565b546080850152610ab6610aa6826000526009602052604060002090565b6006600052602052604060002090565b5460a08501526000526009602052604060002090565b6007600052602052604060002090565b5460c082015260405191829182610954565b346104015760003660031901126104015760206001600160a01b0360005416604051908152f35b604090600319011261040157600435610b2d81610432565b90602435610b3a81610432565b90565b3461040157610b9b610b4e36610b15565b610b566131b8565b610b6f610b61612f71565b610b69612f89565b336158cf565b610b82610b7a612f71565b610b69612fc2565b906001600160a01b039485918285169283911614612ffb565b610bc060009286610bb8610580828754166001600160a01b031690565b911614613046565b610bcb811515613b7e565b610be8836001600160a01b03166000526004602052604060002090565b5415801561114d575b610bfa90613bc9565b610c22610c1a856001600160a01b03166000526004602052604060002090565b541515613c14565b6004610c686005610c5a610c49886001600160a01b03166000526004602052604060002090565b546000526007602052604060002090565b01546001600160a01b031690565b92604092835197610cd16020997f880cdc31000000000000000000000000000000000000000000000000000000008b82015280610cb88a602483019190916001600160a01b036020820193169052565b0397610ccc601f19998a8101845283612f20565b6159e2565b50610cf961058085610c5a610c498c6001600160a01b03166000526004602052604060002090565b15610ffc57610d68610d2585610c5a610c498c6001600160a01b03166000526004602052604060002090565b86517f0399c93c000000000000000000000000000000000000000000000000000000008c82015233602482015290610ccc82604481015b038a8101845283612f20565b505b610d87886001600160a01b03166000526004602052604060002090565b54610da5886001600160a01b03166000526004602052604060002090565b55610e0387610ddb610dca8b6001600160a01b03166000526004602052604060002090565b546000526005602052604060002090565b906001600160a01b031673ffffffffffffffffffffffffffffffffffffffff19825416179055565b610e513385610e28610c498b6001600160a01b03166000526004602052604060002090565b01906001600160a01b031673ffffffffffffffffffffffffffffffffffffffff19825416179055565b871603610fd8575b610e76856001600160a01b03166000526004602052604060002090565b5495610e916005610c5a896000526007602052604060002090565b97610ecd610ec06002610eae8b6000526007602052604060002090565b01546000526005602052604060002090565b546001600160a01b031690565b9581610ee361058086546001600160a01b031690565b8751968780927f52b06d640000000000000000000000000000000000000000000000000000000082525afa9182156103fc5761051098610f80967fe1430d4f000000000000000000000000000000000000000000000000000000009694610fb1575b508751918201959095526001600160a01b0393841660248201529290931660448301529091610ccc9083606481015b03908101845283612f20565b50610f8b6001600355565b519283526001600160a01b03938416602084015290921660408201529081906060820190565b610ccc945090610fd0610f7492843d86116103f5576103e68183612f20565b945090610f45565b80610ff6876001600160a01b03166000526004602052604060002090565b55610e59565b8861101161058085546001600160a01b031690565b86519586809263111ea8c160e21b82525afa80156103fc5788611068916004968691611130575b5087516001600160a01b03909216828d0190815261105a908390602001610d5c565b611062613c5f565b906158cf565b818116151580611126575b61107e575b50610d6a565b85517f4fb2e45d000000000000000000000000000000000000000000000000000000008b8201523360248201526044888101825261111f92916110cb916110c59082612f20565b826159e2565b508651907fa3e884b0000000000000000000000000000000000000000000000000000000008c830152610ccc82610d5c60248201906007606060808401936000815260006020820152600060408201520152565b5038611078565b5080311515611073565b61114791508c8d3d106103f5576103e68183612f20565b38611038565b508385168114610bf1565b34610401576020366003190112610401576020611188600435600052600760205260ff6001604060002001541690565b6040519015158152f35b346104015760203660031901126104015760043560005260076020526020600360406000200154604051908152f35b3461040157602036600319011261040157600435600052600760205260206001600160a01b0360046040600020015416604051908152f35b346104015760203660031901126104015760043580600052600760205260406000205460056020526105106001600160a01b03806040600020541693600760205260406000209160046002840154930154166112646005610c5a846000526007602052604060002090565b90600361129c61128b6001611283876000526007602052604060002090565b015460ff1690565b946000526007602052604060002090565b01549360405197889788939160c09591989796939260e086019986526001600160a01b03938480931660208801526040870152166060850152166080830152151560a08201520152565b34610401576020366003190112610401576001600160a01b0360043561130b81610432565b1660005260046020526040600020546000526007602052602060ff600160406000200154166040519015158152f35b346104015761134836610b15565b61135361036361539f565b61135c336154e3565b8015611390575b916113706113759361325f565b6132aa565b604080519283526001600160a01b0391909116602083015290f35b506001600160a01b039160046020846000541660405192838092630536340960e21b82525afa80156103fc5761137594611370926000926113da575b503391161491935050611363565b6113f391925060203d81116103f5576103e68183612f20565b90386113cc565b34610401576000366003190112610401576020600654604051908152f35b34610401576020366003190112610401576001600160a01b0360043561143d81610432565b1660005260046020526020604060002054604051908152f35b3461040157602036600319011261040157600435600161148c61148782611283856000526007602052604060002090565b613ad2565b6114a0826000526010602052604060002090565b906002908183019260ff8454818160081c1680611782575b6114c1906140e9565b60101c1661167857506114eb826114e2866000526007602052604060002090565b0154151561417f565b6000815b61153b575b505060009061152861001694611518611512865460ff9060101c1690565b82614217565b6000526007602052604060002090565b0155805462ff0000191662010000179055565b60038061156885611556896000526007602052604060002090565b01546000526007602052604060002090565b015482101561167257856115a2611598848461159289611556876000526007602052604060002090565b01613997565b90549060031b1c90565b146115b757506115b19061378f565b816114ef565b839250946116688661164a611528946116316116176115986100169c6115ed60009c6115568b6000526007602052604060002090565b016116118761160a8d6115568d6000526007602052604060002090565b01546134a7565b90613997565b91846115928a6115568a6000526007602052604060002090565b90919082549060031b91821b91600019901b1916179055565b61166285611556856000526007602052604060002090565b016141ca565b94508192506114f4565b506114f4565b826116fa6116f46107af966116ea8960036116e4611771996105e0996116b86100169f9d6116b0876000526007602052604060002090565b015415614134565b0197885480916116d2866000526007602052604060002090565b01556000526007602052604060002090565b016139b4565b5460101c60ff1690565b85614217565b610ccc61172e610ec061171c6004610c5a896000526007602052604060002090565b93546000526005602052604060002090565b6040517f1499c5920000000000000000000000000000000000000000000000000000000060208201526001600160a01b0390911660248201529283906044820190565b506000526010602052604060002090565b508082166114b8565b346104015760408060031936011261040157600480356117a96131b8565b6117c56114876001611283846000526007602052604060002090565b6117ea6117e361058084610c5a856000526007602052604060002090565b3314613df4565b6117f2613509565b61180b6005610c5a836000526007602052604060002090565b60025490845161187f6118716020927f02a085f200000000000000000000000000000000000000000000000000000000848201528061185d602497883589840160209093929193604081019481520152565b0394610ccc601f1996878101845283612f20565b8280825183010191016145b8565b94868651948783611895868301988951906131ab565b976118a5858401998a51906131ab565b6118b560608501918251906131ab565b91886118c760808701948551906131ab565b976118d860a08801998a51906131ab565b966118f16118ec60c08301998a51906131ab565b6150cd565b51611d32575b8251611c3e575b5050508051611b4c575b508051611a6b575b505061191f83518251906131ab565b611961575b89896105106101008a61193c8d60e0860151906146e9565b519201519261194b6001600355565b5191825260208201929092529081906040820190565b8461197d61058060009a969799989a546001600160a01b031690565b8b51968780927f24768d910000000000000000000000000000000000000000000000000000000082525afa80156103fc5761051098610100988c611a279663a9059cbb60e01b96899661193c9b600097611a32575b5090611a02610f749493926119f8610ec0610ccc9a9b6000526005602052604060002090565b93519051906131ab565b92519889958601528401602090939291936001600160a01b0360408201951681520152565b509382933880611924565b610ccc9750610f74949392916119f8610ec0611a5d611a02948a3d8c116103f5576103e68183612f20565b9a50505091929394506119d2565b86611a816105806000546001600160a01b031690565b8d51938480927f9dc969a80000000000000000000000000000000000000000000000000000000082525afa9182156103fc57611b15928d928c928a600093611b1d575b5050610d5c611ae4610ec0610ccc94956000526005602052604060002090565b9151945194859263a9059cbb60e01b8d850152898401602090939291936001600160a01b0360408201951681520152565b508338611910565b610ccc9350610ec0611b42610d5c9383611ae494903d106103f5576103e68183612f20565b945050508a611ac4565b91878d611b646105806000546001600160a01b031690565b9051928380927faa0ddc160000000000000000000000000000000000000000000000000000000082525afa9081156103fc578b611c06928f8b908b9763a9059cbb60e01b95600094611c0d575b5090611bfa91611bd2610ec0610ccc96976000526005602052604060002090565b905191519687948501528b8401602090939291936001600160a01b0360408201951681520152565b038c8101845283612f20565b5038611908565b610ccc945090611bd2610ec0611c33611bfa9594873d89116103f5576103e68183612f20565b965050509091611bb1565b611c566105806000979497546001600160a01b031690565b9051928380927f30125cf50000000000000000000000000000000000000000000000000000000082525afa9081156103fc578c8f928b611cf8948c9863a9059cbb60e01b95600094611d01575b5090611cec91611cc4610ec0610ccc96976000526005602052604060002090565b905191519687948501528c8401602090939291936001600160a01b0360408201951681520152565b038d8101845283612f20565b5038888e6118fe565b610ccc945090611cc4610ec0611d27611cec9594873d89116103f5576103e68183612f20565b965050509091611ca3565b611d476105806000546001600160a01b031690565b9051958680927f640274270000000000000000000000000000000000000000000000000000000082525afa9384156103fc578e611ddb8f8f8c988f8f968d90600093611de1575b50610f74611dad610ec0610ccc95966000526005602052604060002090565b9551885163a9059cbb60e01b8b8201526001600160a01b039097169287019283526020830152859160400190565b506118f7565b610ccc9350611dad610ec0611e05610f74938c8d3d106103f5576103e68183612f20565b95505050611d8e565b3461040157604036600319011261040157600435602435611e2d6131b8565b611e496114876001611283856000526007602052604060002090565b611e6d611e66610580610ec0856000526005602052604060002090565b3314613c98565b611e9f611e896005610c5a856000526007602052604060002090565b611e91613ce3565b611e99612f5e565b9161580e565b9080611eb5602093848082518301019101613d1c565b1015611ec6575b6100166001600355565b82611fa36001600160a01b03927ff526f68a0000000000000000000000000000000000000000000000000000000094611f97611f7c610ec0611f67611f59611f37611f236005610c5a611fa99f6000526007602052604060002090565b976040519182918983019190602083019252565b0397611f4b601f19998a8101845283612f20565b611f53613d2b565b9061580e565b858082518301019101613d64565b99925050506000526005602052604060002090565b611f84612f71565b9060405198899485015260248401613dd4565b03908101855284612f20565b166159e2565b50388080611ebc565b34610401576020366003190112610401576020600435611fd181610432565b6001600160a01b03809116600052600482526040600020546000526007825260056040600020015416604051908152f35b346104015760403660031901126104015761201e61036361539f565b612027336154e3565b8015612045575b6120379061325f565b610016602435600435613ff7565b5060046001600160a01b036020816000541660405193848092630536340960e21b82525afa9081156103fc5761203792600092612088575b50163314905061202e565b6120a191925060203d81116103f5576103e68183612f20565b903861207d565b3461040157604036600319011261040157600435600052600860205260406000206024356000526020526020604060002054604051908152f35b346104015760203660031901126104015760043560005260076020526020600260406000200154604051908152f35b3461040157604036600319011261040157600435600052600760205260206121426024356003604060002001613997565b90549060031b1c604051908152f35b346104015760003660031901126104015760206001600160a01b0360015416604051908152f35b346104015760403660031901126104015761219461036361539f565b61219d336154e3565b80156121bb575b6121ad9061325f565b610016602435600435615151565b5060046001600160a01b036020816000541660405193848092630536340960e21b82525afa9081156103fc576121ad926000926121fe575b5016331490506121a4565b61221791925060203d81116103f5576103e68183612f20565b90386121f3565b3461040157602036600319011261040157600435600052600f6020526020604060002054604051908152f35b3461040157600036600319011261040157600460206001600160a01b03600054166040519283809263d1f956b160e01b82525afa9081156103fc57610510916122da916000916122ea575b506040516122a281612ee8565b601381527f67657464656c656761746f72436f756e7428290000000000000000000000000060208201526122d4612f5e565b9161595c565b6040519081529081906020820190565b612302915060203d81116103f5576103e68183612f20565b38612295565b610100810192916000915b6008831061232057505050565b600190825181526020809101920192019190612313565b3461040157602036600319011261040157610510600435612444610acc61235c615050565b92612383612374826000526008602052604060002090565b60008052602052604060002090565b54845261239d6109c8826000526008602052604060002090565b5460208501526123ba6109f2826000526008602052604060002090565b5460408501526123d7610a1f826000526008602052604060002090565b5460608501526123f4610a4c826000526008602052604060002090565b546080850152612411610a79826000526008602052604060002090565b5460a085015261242e610aa6826000526008602052604060002090565b5460c08501526000526008602052604060002090565b5460e082015260405191829182612308565b3461040157602036600319011261040157602061118860043561247881610432565b6154e3565b346104015761258561248e36610b15565b906124976131b8565b6124e06124a5610b61612f71565b6124b0610b7a612f71565b906124c96001600160a01b039182808816911614612ffb565b610bb861058082600054166001600160a01b031690565b61250d6125086001611283610c49856001600160a01b03166000526004602052604060002090565b613091565b61257661256c61255d61253b6005610c5a610c49876001600160a01b03166000526004602052604060002090565b60405190612555826105e060208201906000602083019252565b611f536130dc565b60208082518301019101613115565b5050501515613137565b61257e6134c3565b339061379e565b61259e6123746002546000526008602052604060002090565b6125a88154613198565b90556125b26150f9565b6125cb6005610c5a836000526007602052604060002090565b906125d581613b1d565b6125df6001600355565b604080519182526001600160a01b03929092166020820152f35b346104015760203660031901126104015761261561036361539f565b61261e336154e3565b8015612639575b61262e9061325f565b61001660043561354c565b50600460206126536105806000546001600160a01b031690565b60405192838092630536340960e21b82525afa80156103fc5761262e9160009161268b575b506001600160a01b031633149050612625565b6126a3915060203d81116103f5576103e68183612f20565b38612678565b346104015760203660031901126104015760046001600160a01b036020816000541660405193848092630536340960e21b82525afa9182156103fc57600092612745575b50339116036127015761001660043561571a565b606460405162461bcd60e51b815260206004820152600f60248201527f6f776e2e6e6f6e617574682e44414f00000000000000000000000000000000006044820152fd5b61275e91925060203d81116103f5576103e68183612f20565b90386126ed565b346104015760203660031901126104015760043561278281610432565b803b600061278f82612f42565b9261279d6040519485612f20565b82845260208401903c602d8151106127c357602a015160405160609190911c8152602090f35b606460405162461bcd60e51b815260206004820152601360248201527f4e6f742061206d696e696d616c2070726f7879000000000000000000000000006044820152fd5b60403660031901126104015760043561281e6131b8565b600090808252600760205261283c60ff600160408520015416613ad2565b8152600760205261287c6001600160a01b036005604084200154166040519062a0e53360e51b6020830152602435602483015260248252610ccc82612eab565b50600160035580f35b3461040157604036600319011261040157600435600052600a60205260406000206024356000526020526020604060002054604051908152f35b346104015760c0366003190112610401576024356004356128df82610432565b60643590608435906128ef6131b8565b61290b6114876001611283846000526007602052604060002090565b61292a6117e36105806004610c5a856000526007602052604060002090565b612932613509565b61293b82615075565b612944836150a1565b6129f16129e36129cf6129666005610c5a866000526007602052604060002090565b966040519182916020977f932ca2d600000000000000000000000000000000000000000000000000000000898501528960a435926044359060248701919260809396959491966001600160a01b0360a08501981684526020840152604083015260608201520152565b0396610ccc601f1998898101845283612f20565b838082518301019101613e3f565b929080612a05575b5050611ebc9350614a6a565b60049082612a1e6105806000546001600160a01b031690565b604051938480927f5e09dbe70000000000000000000000000000000000000000000000000000000082525afa80156103fc57611ebc97612a919463a9059cbb60e01b94600093612a99575b5060405190810194909452336024850152604484019290925290610ccc908360648101610f74565b5038806129f9565b610ccc9350612ab7610f7491833d85116103f5576103e68183612f20565b9350612a69565b34610401576020806003193601126104015760048035612add81610432565b6001600160a01b03928084600054166040519485809263d1f956b160e01b82525afa9081156103fc576105109461061a94600093612b39575b506040519316818401528252612b2b82612ee8565b612b336156b1565b90615920565b612b51919350823d84116103f5576103e68183612f20565b9138612b16565b3461040157600036600319011261040157602061118861539f565b3461040157602036600319011261040157600435600052600c6020526020604060002054604051908152f35b346104015760403660031901126104015760043560243590612bf2610778612bda336001600160a01b03166000526004602052604060002090565b54600052600760205260ff6001604060002001541690565b612c0e6114876001611283846000526007602052604060002090565b612c2f612c2a6001611283856000526007602052604060002090565b613e55565b612c486005610c5a846000526007602052604060002090565b600483604051612c8e61256c612c8060209380612c6c868201906000602083019252565b0397612555601f19998a8101845283612f20565b838082518301019101613115565b612ca2856000526010602052604060002090565b93612d0e6002860196612cc9612cc4612cc08a5460ff9060081c1690565b1590565b613ea0565b6040517f7bb984980000000000000000000000000000000000000000000000000000000085820152602481019190915260448101989098526064828101895288612f20565b81612d246105806000546001600160a01b031690565b60405195868092630536340960e21b82525afa9384156103fc5761001697612da495612d9193610f7493600092612db5575b50610ccc91926040519485917fd3a3084900000000000000000000000000000000000000000000000000000000898401523060248401613eeb565b9160018501558082518301019101613d1c565b9055805461ff001916610100179055565b610ccc9250612dd090873d89116103f5576103e68183612f20565b91612d56565b3461040157602036600319011261040157600435600052600e6020526020604060002054604051908152f35b3461040157604080600319360112610401576001600160a01b03600435612e2881610432565b16600081815260046020818152848320548352600b815284832054938352908152838220548252600a81528382206024358352815290839020549251918252810191909152604090f35b34610401576000366003190112610401576020612e8d615611565b604051908152f35b634e487b7160e01b600052604160045260246000fd5b6060810190811067ffffffffffffffff821117612ec757604052565b612e95565b60e0810190811067ffffffffffffffff821117612ec757604052565b6040810190811067ffffffffffffffff821117612ec757604052565b6020810190811067ffffffffffffffff821117612ec757604052565b90601f8019910116810190811067ffffffffffffffff821117612ec757604052565b67ffffffffffffffff8111612ec757601f01601f191660200190565b60405190612f6b82612f04565b60008252565b604051612f7d81612f04565b60008152906000368137565b60405190612f9682612ee8565b600782527f6f776e65722829000000000000000000000000000000000000000000000000006020830152565b60405190612fcf82612ee8565b600c82527f67657448657862617365282900000000000000000000000000000000000000006020830152565b1561300257565b606460405162461bcd60e51b815260206004820152601760248201527f6e65737465642e696e76616c69642e696e7374616e63650000000000000000006044820152fd5b1561304d57565b606460405162461bcd60e51b815260206004820152601660248201527f6e65737465642e696e76616c69642e68657862617365000000000000000000006044820152fd5b1561309857565b606460405162461bcd60e51b815260206004820152601860248201527f6e65737465642e706172656e742e6e6f742e65786973747300000000000000006044820152fd5b604051906130e982612ee8565b601282527f6765744e6f64654c422875696e743235362900000000000000000000000000006020830152565b9190826080910312610401578151916020810151916060604083015192015190565b1561313e57565b606460405162461bcd60e51b815260206004820152601960248201527f6e65737465642e706172656e742e6e6f2e627573696e657373000000000000006044820152fd5b634e487b7160e01b600052601160045260246000fd5b90600182018092116131a657565b613182565b919082018092116131a657565b6002600354146131c9576002600355565b60046040517f3ee5aeb5000000000000000000000000000000000000000000000000000000008152fd5b156131fa57565b606460405162461bcd60e51b815260206004820152601260248201527f6f776e2e696e76616c69642e69735361666500000000000000000000000000006044820152fd5b908160209103126104015751610b3a81610432565b6040513d6000823e3d90fd5b1561326657565b606460405162461bcd60e51b815260206004820152601b60248201527f6f776e2e6e6f6e617574682e44414f6f725365637572656261736500000000006044820152fd5b613356929161335c6004926132bd6131b8565b6132ed6132e8612cc06001611283610c49886001600160a01b03166000526004602052604060002090565b613744565b6133006132fb60065461378f565b600655565b60065495869161331e85610ddb856000526005602052604060002090565b8261333c866001600160a01b03166000526004602052604060002090565b556001600160a01b03166000526004602052604060002090565b546139dc565b61339282613374866000526007602052604060002090565b0173ffffffffffffffffffffffffffffffffffffffff198154169055565b60206133a96105806000546001600160a01b031690565b6040519384809263e09d394d60e01b82525afa80156103fc576133db6133f19161345a94600091613489575b50613901565b6005610e28876000526007602052604060002090565b61340a6005610c5a866000526007602052604060002090565b610ccc6134226105806000546001600160a01b031690565b6040516352902c5960e01b60208201526001600160a01b039182166024820152931660448401526064830186905282608481016105e0565b508160005260076020526001600160a01b03600560406000200154169161348081613b1d565b91906001600355565b6134a1915060203d81116103f5576103e68183612f20565b386133d5565b6000198101919082116131a657565b919082039182116131a657565b6134cb615611565b600254106134e3575b6134e16005600254613595565b565b6134eb615611565b8060025560001981019081116131a65761350490614f0a565b6134d4565b613511615611565b60025410613526575b6134e160028054613595565b61352e615611565b8060025560001981019081116131a65761354790614f0a565b61351a565b613554615611565b60025410613569575b6134e190600254613595565b613571615611565b908160025560001982019182116131a65761358e6134e192614f0a565b905061355d565b906135ad612374836000526008602052604060002090565b54158061373a575b80613731575b6135c3575050565b6135df906135d96135d3846134a7565b916134a7565b90613595565b6135fe6123746135ee836134a7565b6000526008602052604060002090565b54613616612374836000526008602052604060002090565b556136266109c86135ee836134a7565b5461363e6109c8836000526008602052604060002090565b5561364e6109f26135ee836134a7565b546136666109f2836000526008602052604060002090565b55613676610a1f6135ee836134a7565b5461368e610a1f836000526008602052604060002090565b5561369e610a4c6135ee836134a7565b546136b6610a4c836000526008602052604060002090565b556136c6610a796135ee836134a7565b546136de610a79836000526008602052604060002090565b556136ee610aa66135ee836134a7565b54613706610aa6836000526008602052604060002090565b5561372e610acc61371c610acc6135ee856134a7565b54926000526008602052604060002090565b55565b508015156135bb565b50600182116135b5565b1561374b57565b606460405162461bcd60e51b815260206004820152601560248201527f6e65737465642e616c72656164792e65786973747300000000000000000000006044820152fd5b60001981146131a65760010190565b91613836600492613821613356956137d76132e8612cc06001611283610c498a6001600160a01b03166000526004602052604060002090565b6137e56132fb60065461378f565b60065496879161380387610ddb856000526005602052604060002090565b8261333c886001600160a01b03166000526004602052604060002090565b83610e28866000526007602052604060002090565b602061384d6105806000546001600160a01b031690565b6040519384809263e09d394d60e01b82525afa80156103fc5761387e613894916138fd946000916134895750613901565b6005610e28866000526007602052604060002090565b6138ad6005610c5a856000526007602052604060002090565b610ccc6138c56105806000546001600160a01b031690565b6040516352902c5960e01b60208201526001600160a01b039182166024820152931660448401526064830185905282608481016105e0565b5090565b6e5af43d82803e903d91602b57fd5bf390763d602d80600a3d3981f3363d3d373d3d3d363d7300000062ffffff8260881c161760005260781b17602052603760096000f0906001600160a01b0382161561395757565b60046040517fb06ebf3d000000000000000000000000000000000000000000000000000000008152fd5b634e487b7160e01b600052603260045260246000fd5b80548210156139af5760005260206000200190600090565b613981565b9081549168010000000000000000831015612ec757826116319160016134e195018155613997565b919091600092808452602091600783526040808620956002948386890155846001988981018a60ff198254161790555587613a2186600052600a602052604060002090565b83805282528489858520555b613a3c57505050505050509050565b613aaa613a99828b8a9414613ab3575b613a6088600052600a602052604060002090565b8187528552868620613a728154613198565b9055613a8888600052600b602052604060002090565b613a928154613198565b905561378f565b956000526007602052604060002090565b01549384613a2d565b613acd8960036116e48b6000526007602052604060002090565b613a4c565b15613ad957565b606460405162461bcd60e51b815260206004820152601560248201527f6e65737465642e757365722e6e6f7461637469766500000000000000000000006044820152fd5b806000526007602052613b3a60ff60016040600020015416613ad2565b6000526007602052613b7b6001600160a01b03600560406000200154166040519062a0e53360e51b60208301526001602483015260248252610ccc82612eab565b50565b15613b8557565b606460405162461bcd60e51b815260206004820152601360248201527f6e65737465642e7a65726f2e61646472657373000000000000000000000000006044820152fd5b15613bd057565b606460405162461bcd60e51b815260206004820152601460248201527f6e65737465642e7461726765742e6578697374730000000000000000000000006044820152fd5b15613c1b57565b606460405162461bcd60e51b815260206004820152601760248201527f6e65737465642e736f757263652e6e6f744578697374730000000000000000006044820152fd5b60405190613c6c82612ee8565b601382527f55736572546f496e7374286164647265737329000000000000000000000000006020830152565b15613c9f57565b606460405162461bcd60e51b815260206004820152601560248201527f6e65737465642e696e76616c69642e73656e64657200000000000000000000006044820152fd5b60405190613cf082612ee8565b600b82527f6d696e74436f756e7428290000000000000000000000000000000000000000006020830152565b90816020910312610401575190565b60405190613d3882612ee8565b600e82527f6d696e74732875696e74323536290000000000000000000000000000000000006020830152565b91908260809103126104015781519160208101519160606040830151920151610b3a81610432565b60005b838110613d9f5750506000910152565b8181015183820152602001613d8f565b90602091613dc881518092818552858086019101613d8c565b601f01601f1916010190565b6040906001600160a01b03610b3a94931681528160208201520190613daf565b15613dfb57565b606460405162461bcd60e51b815260206004820152601b60248201527f6e65737465642e757365722e696e76616c6964696e7374616e636500000000006044820152fd5b9190826040910312610401576020825192015190565b15613e5c57565b606460405162461bcd60e51b815260206004820152601560248201527f6e65737465642e696e76616c69642e706172656e7400000000000000000000006044820152fd5b15613ea757565b606460405162461bcd60e51b815260206004820152601760248201527f6e65737465642e7265712e616c726561647965786973740000000000000000006044820152fd5b9291613f736080916001600160a01b03600a9460a08852602460a08901527f547269676765722e6e65737465642e70726f706f73616c2e6d6f7665646f776e60c08901527f6c696e650000000000000000000000000000000000000000000000000000000060e089015216602087015260006040870152610100806060880152860190613daf565b930152565b60405190613f8582612ee8565b601282527f676574526573756c742875696e743235362900000000000000000000000000006020830152565b5190811515820361040157565b91908260c091031261040157815191602081015191604082015191606081015191610b3a60a0613ff060808501613fb1565b9301613fb1565b61402a6140369161401a6114876001611283846000526007602052604060002090565b6000526010602052604060002090565b91600183015414613e55565b61404b6105806000546001600160a01b031690565b906040518092630536340960e21b825281600460209586935afa9081156103fc576134e1936140a66105e06002946140b3946000916140cc575b5061409e87546040519384918783019190602083019252565b611f53613f78565b8051810182019101613fbe565b50959350505050019060ff801983541691151516179055565b6140e39150843d86116103f5576103e68183612f20565b38614085565b156140f057565b606460405162461bcd60e51b815260206004820152601660248201527f6e65737465642e7265712e6e6f74617070726f766564000000000000000000006044820152fd5b1561413b57565b606460405162461bcd60e51b815260206004820152601860248201527f6e65737465642e757365722e6e6f742e646574616368656400000000000000006044820152fd5b1561418657565b606460405162461bcd60e51b815260206004820152601b60248201527f6e65737465642e757365722e616c726564792e646574616368656400000000006044820152fd5b80549081156141f457600019918201916141e48383613997565b909182549160031b1b1916905555565b634e487b7160e01b600052603160045260246000fd5b80156131a6576000190190565b61423461422e82600052600b602052604060002090565b54613198565b6002908161424c846000526007602052604060002090565b0154906001938492835b614264575b50505050505050565b600f80851115806145af575b156145a9578590600561429461058082610c5a876000526007602052604060002090565b6142c1575b50506142b26142ba926000526007602052604060002090565b01549361378f565b9285614256565b865b828111156143cb575050506142b26142ba92896000146143685761430b6142f486600052600a602052604060002090565b6142fd896134a7565b600052602052604060002090565b5461433e6143368961432785600052600a602052604060002090565b90600052602052604060002090565b9182546131ab565b905561435481600052600b602052604060002090565b61435f8782546131ab565b90555b92614299565b61437f6142f486600052600a602052604060002090565b546143a361439b8961432785600052600a602052604060002090565b9182546134b6565b90556143b981600052600b602052604060002090565b6143c48782546134b6565b9055614362565b819293506143e88592610c5a886000526007602052604060002090565b6143f289836134b6565b908c60408c6144356144278351806144136020998a83019190602083019252565b0396612555601f1998898101845283612f20565b868082518301019101613115565b505091898215806145a1575b61458f577f393a9f9500000000000000000000000000000000000000000000000000000000958a958a610ccc966144e79a968c966144f49e9f6144ab61449a610f7499610c5a6003946000526007602052604060002090565b9c6000526007602052604060002090565b0154905494519b8c988901526024880194919260a0949197969360c0870198875260208701526040860152606085015260808401521515910152565b8051810182019101613e3f565b908b1561454a575b80821161451757505061450e9061378f565b908792916142c3565b6145209061378f565b614539816143278c546000526008602052604060002090565b6145438154613198565b90556144fc565b81811161455c57505061450e9061378f565b8061457961458a926143278d546000526008602052604060002090565b61458381546134a7565b905561420a565b61454a565b505050505050505061450e915061378f565b508315614441565b5061425b565b50811515614270565b9061012080838303126104015781601f84011215610401576040519281840184811067ffffffffffffffff821117612ec7576040528391810192831161040157905b8282106146075750505090565b81518152602091820191016145fa565b6040519061462482612ee8565b600f82527f66726565496e74657276616c73282900000000000000000000000000000000006020830152565b6040519061465d82612ee8565b601582527f67657452616e6b5769746841676556616c7565282900000000000000000000006020830152565b6040519061469682612ee8565b601382527f72616e6b436c617573652875696e7432353629000000000000000000000000006020830152565b908160a0910312610401578051916020820151916040810151916080606083015192015190565b919060049060206147056105806000546001600160a01b031690565b6040519384809263cfbffe5360e01b82525afa9182156103fc57600092614a49575b50600361473e856000526007602052604060002090565b015461475961474b612f71565b614753614617565b8561595c565b9060009360009460009060009660009360009260009b5b600f8d111580614a40575b15614a315761479c6105806005610c5a846000526007602052604060002090565b6147c8575b60026147ba6147c2926000526007602052604060002090565b01549c61378f565b9b614770565b8c6147ff6147f06147e86005610c5a866000526007602052604060002090565b611e91614650565b60208082518301019101613e3f565b829192156149da575b811515806149d1575b80156149c9575b614825575b5050506147a1565b8b849e948c928f959687036148f1575b5092610ccc6147f0936105e08e6148b998956148636005610c5a6148b29b6000526007602052604060002090565b95600254906040519889966325e10feb60e11b60208901526024880194919260c0949197969360e087019887526020870152600060408701526060860152608085015260a08401521515910152565b5091613198565b808210156148ce57509960028d6147c261481d565b80613a886148ec926143276002546000526008602052604060002090565b6148b9565b94505050509750828203614947575b5087898c8c8785108080159161491e575b50159a9290939138614835565b8b87101591508161493f575b5080614937575b38614911565b508815614931565b90503861492a565b6149916149826040516149748161496687602083019190602083019252565b03601f198101835282612f20565b61497c614689565b8761580e565b602080825183010191016146c2565b91925092508585116149a6575b505050614900565b9397509350945095506149be859294966002546134b6565b11933880808061499e565b506000614818565b508c1515614811565b96505095509250509750614a11614982604051614a038161496688602083019190602083019252565b614a0b614689565b8b61580e565b9b9350909591509492818d819c614a2a886002546134b6565b1196614808565b50505050505050505050509050565b5080151561477b565b614a6391925060203d6020116103f5576103e68183612f20565b9038614727565b92919060049160006020614a8861058083546001600160a01b031690565b6040519586809263cfbffe5360e01b82525afa9384156103fc578194614d7b575b506003614ac0876000526007602052604060002090565b015490614adc614ace612f71565b614ad6614617565b8761595c565b8180809181988295835b600f81111580614d72575b15614d6257614b136105808f610c5a6005916000526007602052604060002090565b614b44575b614b3c6002600f9f614b34906000526007602052604060002090565b01549161378f565b909d50614ae6565b614b646147f08f6005610c5a6147e8926000526007602052604060002090565b8215614d1b575b82151580614d12575b8015614d09575b614b87575b5050614b18565b919e9c8f908c8f8f94958e938703614c4f575b5092610ccc6147f0936105e08f8f614c179996614bc96005610c5a6148b29c6000526007602052604060002090565b9660025491604051998a976325e10feb60e11b60208a015260248901959260c09592989794919860e08801998852602088015260408701526060860152608085015260a08401521515910152565b80821015614c2c57509a9c614b3c6002614b80565b80613a88614c4a926143276002546000526008602052604060002090565b614c17565b8c94919d5087879693949603614ca4575b5088861080801591614c7b575b50159c909394929194614b9a565b8c881015915081614c9c575b5080614c94575b38614c6d565b508915614c8e565b905038614c87565b614cd1614982604051614cc3816149668c602083019190602083019252565b614ccb614689565b8c61580e565b91925092508a8a11614ce6575b505050614c60565b939c50985099509a50614cfe8697999b6002546134b6565b119838808080614cde565b508b1515614b7b565b508c1515614b74565b955095509250509850614d43614982604051614cc38161496688602083019190602083019252565b9c935090959150949281809c614d5b876002546134b6565b1195614b6b565b5050505050505050505050509050565b508d1515614af1565b614d9591945060203d6020116103f5576103e68183612f20565b9238614aa9565b60025460001981019081116131a6576134e190614f0a565b15614dbb57565b606460405162461bcd60e51b815260206004820152601260248201527f6e65737465642e696e76616c69642e61676500000000000000000000000000006044820152fd5b60405190614e0c82612ee8565b601882527f6765744261746368526f79616c7479436c6175736573282900000000000000006020830152565b6102a09081818403126104015782601f82011215610401576040805193614e5e85612ecc565b849383019281841161040157935b838510614e7b57505050505090565b606085830312610401578251606091614e9382612eab565b8651825260209182880151838201528588015186820152815201940193614e6c565b9060078110156139af5760051b0190565b90816064029160648304036131a657565b818102929181159184041417156131a657565b8115614ef4570490565b634e487b7160e01b600052601260045260246000fd5b614f15811515614db4565b614f2a6105806000546001600160a01b031690565b90604051809263cfbffe5360e01b825281600460209586935afa9081156103fc57614f7291614f6491600091615033575b50611e91614dff565b838082518301019101614e38565b614f8682600052600c602052604060002090565b5460015b6007811115614f9a575050505050565b80614fb661501f92614327876000526008602052604060002090565b54801561502d57614fcf614fc9836134a7565b86614eb5565b5187815192831561502457614ff6614ffb92614fee615001968a614ed7565b940151614ec6565b614ed7565b90614eea565b61501982614327886000526009602052604060002090565b5561378f565b614f8a565b5050505061378f565b5061378f565b61504a9150853d87116103f5576103e68183612f20565b38614f5b565b6040519061010080830183811067ffffffffffffffff821117612ec757604052368337565b60025480600052600c6020526040600020549182018092116131a657600052600c602052604060002055565b60025480600052600d6020526040600020549182018092116131a657600052600d602052604060002055565b60025480600052600e6020526040600020549182018092116131a657600052600e602052604060002055565b60025480600052600f60205260406000205490600182018092116131a657600052600f602052604060002055565b9080600052600c6020526040600020549182018092116131a657600052600c602052604060002055565b9080600052600e6020526040600020549182018092116131a657600052600e602052604060002055565b9080600052600f6020526040600020549182018092116131a657600052600f602052604060002055565b604051906151b282612ee8565b601482527f676574627573696e6573732875696e74323536290000000000000000000000006020830152565b604051906151eb82612ee8565b601d82527f67657472616e6b436f756e742875696e743235362c75696e74323536290000006020830152565b60009061522e61058083546001600160a01b031690565b91604092835192839163111ea8c160e21b835282600460209485935afa9384156103fc578394615321575b505b8581111561526b57505050505050565b8451828101828152819003808252601f19916152969161528e9060200182612f20565b614ad66151a5565b6152ad61433684600052600c602052604060002090565b9055835b600881106152c95750506152c49061378f565b61525b565b86518481018481526020810183905261531c9291615304916152f690829060400103868101835282612f20565b6152fe6151de565b8961595c565b61501982614327876000526008602052604060002090565b6152b1565b615339919450823d84116103f5576103e68183612f20565b9238615259565b1561534757565b606460405162461bcd60e51b815260206004820152601960248201527f6f776e2e7361666567756172642e63616c6c2e6661696c6564000000000000006044820152fd5b9081602091031261040157610b3a90613fb1565b6001600160a01b03600054166040518091634bf9c0ad60e11b825281600460209384935afa9182156103fc57610b3a9261542791600091615442575b506040516153e881612ee8565b600881527f6973536166652829000000000000000000000000000000000000000000000000848201526040519161541e83612f04565b60008352615839565b919080615438575b61060d90615340565b508151811461542f565b6154599150833d85116103f5576103e68183612f20565b386153db565b6040519061546c82612ee8565b601582527f69735365637572654261736528616464726573732900000000000000000000006020830152565b1561549f57565b606460405162461bcd60e51b815260206004820152601a60248201527f6f776e2e736563757265626173652e63616c6c2e6661696c65640000000000006044820152fd5b6000546001600160a01b0316604051918291634bf9c0ad60e11b835282600460209485935afa9283156103fc57610b3a9361554f926105e09260009261556a575b50615547906040519384918783019190916001600160a01b036020820193169052565b6105f661545f565b919080615560575b61060d90615498565b5081518114615557565b61554791925061558690863d88116103f5576103e68183612f20565b9190615524565b6040519061559a82612ee8565b601182527f69735369676e65722861646472657373290000000000000000000000000000006020830152565b156155cd57565b606460405162461bcd60e51b815260206004820152601660248201527f6f776e2e7369676e65722e63616c6c2e6661696c6564000000000000000000006044820152fd5b600460206001600160a01b03600054166040519283809263111ea8c160e21b82525afa80156103fc57610b3a91600091615693575b5060405161565381612ee8565b600581527f616765282900000000000000000000000000000000000000000000000000000060208201526040519161568a83612f04565b6000835261595c565b6156ab915060203d81116103f5576103e68183612f20565b38615646565b604051906156be82612ee8565b601882527f697364656c656761746f724e6f646528616464726573732900000000000000006020830152565b3d15615715573d906156fb82612f42565b916157096040519384612f20565b82523d6000602084013e565b606090565b6000600460206001600160a01b03835416604051928380927f46f991ac0000000000000000000000000000000000000000000000000000000082525afa9081156103fc5782848193829383916157f0575b505af16157766156ea565b50156157ac5760405190815233907fcdcc745fe377b103b45fa0cec23ae3ef93d6fc6a84a01f0d18c40b354dd1d5d890602090a2565b606460405162461bcd60e51b815260206004820152600f60248201527f6f776e2e6275726e2e6661696c656400000000000000000000000000000000006044820152fd5b615808915060203d81116103f5576103e68183612f20565b3861576b565b906158199291615839565b9060009015615826575090565b604051915061583482612f04565b815290565b803b156158b6576000927fffffffff0000000000000000000000000000000000000000000000000000000083602086955191012016906158a360246040518093602082019586526158938151809260208686019101613d8c565b8101036004810184520182612f20565b5191620dbba0fa6158b26156ea565b9091565b5050506000906040516158c881612f04565b6000815290565b92916158dd91600094615839565b9080615915575b6158eb5750565b9091506020818051810103126104015760206001600160a01b0391015161591181610432565b1690565b5060208151146158e4565b929161592e91600094615839565b9080615951575b61593c5750565b610b3a9192506020808251830101910161538b565b506020815114615935565b929161596a91600094615839565b908061598d575b6159785750565b610b3a91925060208082518301019101613d1c565b506020815114615971565b90602082519201517fffffffff000000000000000000000000000000000000000000000000000000009081811693600481106159d357505050565b60040360031b82901b16169150565b6001600160a01b03811615615a9357600080918351908260208601915af190615a096156ea565b9115615a13575090565b805160009190600411615a8d57615a2a9150615998565b815115615a3a5750805190602001fd5b6024907fffffffff00000000000000000000000000000000000000000000000000000000604051917f21c09d34000000000000000000000000000000000000000000000000000000008352166004820152fd5b50615a2a565b606460405162461bcd60e51b815260206004820152601260248201527f6f776e2e696e76616c69642e74617267657400000000000000000000000000006044820152fdfea264697066735822122073ebcc11492ab47adf549783c73eac70cf77f9886e67da0891f9bc76b20fe7c764736f6c63430008140033","linkReferences":{}},"methodIdentifiers":{"dAOAssembly()":"14837455","daocore()":"14d8d024","nested741()":"45cff900","old741()":"5540c5ac","price()":"a035b1fe"},"id":70}