{"abi":[{"type":"constructor","inputs":[{"name":"_hex","type":"address","internalType":"address"}],"stateMutability":"nonpayable"},{"type":"function","name":"instance","inputs":[],"outputs":[{"name":"","type":"address","internalType":"address"}],"stateMutability":"view"},{"type":"function","name":"tVLFactory","inputs":[],"outputs":[{"name":"","type":"address","internalType":"address"}],"stateMutability":"view"},{"type":"function","name":"tVLMining","inputs":[],"outputs":[{"name":"","type":"address","internalType":"address"}],"stateMutability":"view"},{"type":"function","name":"tVLReward","inputs":[],"outputs":[{"name":"","type":"address","internalType":"address"}],"stateMutability":"view"},{"type":"function","name":"tVLRoyality","inputs":[],"outputs":[{"name":"","type":"address","internalType":"address"}],"stateMutability":"view"},{"type":"function","name":"tVLTour","inputs":[],"outputs":[{"name":"","type":"address","internalType":"address"}],"stateMutability":"view"},{"type":"function","name":"tVLValidator","inputs":[],"outputs":[{"name":"","type":"address","internalType":"address"}],"stateMutability":"view"}],"bytecode":{"object":"0x60803461023957601f613b7938819003918201601f19168301926001600160401b039290919083851183861017610223578083926040968752833960209283918101031261023957516001600160a01b039190828116908190036102395784519161259f928381019381851087861117610223576103f482398284528681600095868582015203019084f09485156102195783549585166001600160a01b031996871617845586516111e68082019491808610848711176101e7578481612993978489833985815203019087f080156101fb578716886001541617600155885181810181811085821117610205578186918489833985815203019087f080156101fb578716886002541617600255885181810181811085821117610205578186918489833985815203019087f080156101fb578716886003541617600355885181810181811085821117610205578186918489833985815203019087f080156101fb578716886004541617600455885181810181811085821117610205578186918489833985815203019087f080156101fb57871688600554161760055588519481860193868510908511176101e75790859392918439815203019082f09081156101dc575016906006541617600655516101b5908161023f8239f35b8451903d90823e3d90fd5b634e487b7160e01b87526041600452602487fd5b89513d88823e3d90fd5b634e487b7160e01b88526041600452602488fd5b86513d85823e3d90fd5b634e487b7160e01b600052604160045260246000fd5b600080fdfe60806040818152600436101561001457600080fd5b600091823560e01c908163022ec0951461015c575080639443767c146101355780639ba540fb1461010e578063a50c0bc0146100e7578063b85c9faf146100c0578063d795ff38146100995763dabf429d1461006f57600080fd5b346100955781600319360112610095576020906001600160a01b03600554169051908152f35b5080fd5b50346100955781600319360112610095576020906001600160a01b03600254169051908152f35b50346100955781600319360112610095576020906001600160a01b03600354169051908152f35b50346100955781600319360112610095576020906001600160a01b03600654169051908152f35b50346100955781600319360112610095576020906001600160a01b03600154169051908152f35b50346100955781600319360112610095576020906001600160a01b03600454169051908152f35b8390346100955781600319360112610095576001600160a01b0360209254168152f3fea2646970667358221220984867fa865b1b5889a6031e33d49a5de13c1c2ebe86aec7c4cb9c9e76d6996664736f6c63430008140033608034620000f457601f6200259f38819003918201601f19168301916001600160401b03831184841017620000f9578084926040948552833981010312620000f4576200005a602062000052836200010f565b92016200010f565b6001600160a01b0391821691908215620000af5760018060a01b0319928360015416908460005416176000556001600355339084331617176001551690600454161760045560405161247a9081620001258239f35b60405162461bcd60e51b815260206004820152601360248201527f6f776e2e696e76616c69642e68657862617365000000000000000000000000006044820152606490fd5b600080fd5b634e487b7160e01b600052604160045260246000fd5b51906001600160a01b0382168203620000f45756fe60806040526004361015610018575b361561001657005b005b60003560e01c80630399c93c1461016857806306fdde031461016357806312065fe01461015e5780631499c592146101595780631f185d16146101545780633b9b79551461014f57806360f96a8f1461014a5780638129fc1c146101455780638da5cb5b14610140578063a1f7f5391461013b578063a3e884b014610136578063af48452614610131578063af640d0f1461012c578063b28175c414610127578063b90306ad14610122578063c107930a1461011d578063c47f002714610118578063c54e44b014610113578063e01ad5fd1461010e578063e0a9bc2b146101095763fdc10bc90361000e576113c6565b6113ab565b611311565b61126f565b6111fc565b610fd8565b610f1c565b610ef5565b610ed7565b610ea6565b610bd4565b610aef565b610ac8565b610662565b61063b565b610614565b610504565b610450565b610434565b61034f565b610183565b6001600160a01b0381160361017e57565b600080fd5b3461017e57602036600319011261017e576004356101a08161016d565b6101b06101ab611ce3565b6115c3565b6101b933611e27565b80156101d2575b906101cd6100169261160e565b611bab565b506001600160a01b039060046020836000541660405192838092630536340960e21b82525afa801561024c57610016936101cd9260009261021c575b5033911614919250506101c0565b61023e91925060203d8111610245575b61023681836102de565b8101906114c2565b903861020e565b503d61022c565b6114da565b90600182811c92168015610281575b602083101461026b57565b634e487b7160e01b600052602260045260246000fd5b91607f1691610260565b634e487b7160e01b600052604160045260246000fd5b6040810190811067ffffffffffffffff8211176102bd57604052565b61028b565b6020810190811067ffffffffffffffff8211176102bd57604052565b90601f8019910116810190811067ffffffffffffffff8211176102bd57604052565b60005b8381106103135750506000910152565b8181015183820152602001610303565b604091602082526103438151809281602086015260208686019101610300565b601f01601f1916010190565b3461017e5760008060031936011261043157604051908060065461037281610251565b8085529160019180831690811561040757506001146103ac575b6103a88561039c818703826102de565b60405191829182610323565b0390f35b9250600683527ff652222313e28459528d920b65115c16c04f3efc82aaedc97be59f3f377c0d3f5b8284106103ef57505050810160200161039c826103a861038c565b805460208587018101919091529093019281016103d4565b8695506103a89693506020925061039c94915060ff191682840152151560051b820101929361038c565b80fd5b3461017e57600036600319011261017e57602047604051908152f35b3461017e57602036600319011261017e5760043561046d8161016d565b6104786101ab611ce3565b61048133611e27565b801561049a575b906104956100169261160e565b611c31565b506001600160a01b039060046020836000541660405192838092630536340960e21b82525afa801561024c5761001693610495926000926104e4575b503391161491925050610488565b6104fd91925060203d81116102455761023681836102de565b90386104d6565b3461017e5760208060031936011261017e576004908135906105258261016d565b8061054761053b6000546001600160a01b031690565b6001600160a01b031690565b60405194858092634bf9c0ad60e11b82525afa91821561024c5761059b6105d5936105b7926103a8966000926105f1575b506105a9906040519384918783019190916001600160a01b036020820193169052565b03601f1981018452836102de565b6105b1611ed1565b906121a4565b9190806105e7575b6105c890611f0a565b8082518301019101611ccb565b60405190151581529081906020820190565b50815181146105bf565b6105a991925061060d90863d88116102455761023681836102de565b9190610578565b3461017e57600036600319011261017e5760206001600160a01b0360005416604051908152f35b3461017e57600036600319011261017e5760206001600160a01b0360045416604051908152f35b60008060031936011261043157610677611487565b600754610a845761069261053b82546001600160a01b031690565b60408051907f013cf08b00000000000000000000000000000000000000000000000000000000918281526020938482806106d460048201906000602083019252565b0381845afa91821561024c578692610a65575b5060015483516001600160a01b03909116868201818152829003808352601f1994919261072b92909161071d90602001836102de565b6107256114f9565b9061223a565b916001600160a01b0383161561096757505060048561075461053b89546001600160a01b031690565b85519283809263ab6e844f60e01b82525afa90811561024c5761080d6107ff7f3baee0ea000000000000000000000000000000000000000000000000000000006108689561083a958b610863968e92610942575b506107ee6107fa92936107c36001546001600160a01b031690565b8d51938401969096526001600160a01b03908116602484015290941660448201529283906064820190565b038981018452836102de565b61234f565b88808251830101910161154e565b939091936001600160a01b031673ffffffffffffffffffffffffffffffffffffffff196004541617600455565b6001600160a01b031673ffffffffffffffffffffffffffffffffffffffff196005541617600555565b600755565b8361087d61053b87546001600160a01b031690565b835194855260006004860152849060249082905afa90811561024c5761090e947f4ef260a90000000000000000000000000000000000000000000000000000000094879361091d575b506109026107fa93946108e16001546001600160a01b031690565b9051968793840152602483019190916001600160a01b036020820193169052565b039081018452836102de565b505b61091a6001600355565b80f35b6107fa935061093b61090291833d85116102455761023681836102de565b93506108c6565b6107fa92506109606107ee91833d85116102455761023681836102de565b92506107a8565b869394809792965060049350519283809263ab6e844f60e01b82525afa93841561024c57610a3f9561086395610a1395610a06948a92610a44575b506107fa91926109026109bd6004546001600160a01b031690565b91517fb1c4907900000000000000000000000000000000000000000000000000000000898201526001600160a01b03928316602482015295909116604486015284906064820190565b8051810182019101611532565b9190916001600160a01b031673ffffffffffffffffffffffffffffffffffffffff196005541617600555565b610910565b6107fa9250610a5f90873d89116102455761023681836102de565b916109a2565b610a7d919250853d87116102455761023681836102de565b90386106e7565b606460405162461bcd60e51b815260206004820152601660248201527f6d652e616c72656164792e696e697469616c697a6564000000000000000000006044820152fd5b3461017e57600036600319011261017e5760206001600160a01b0360015416604051908152f35b3461017e57600036600319011261017e57600460206001600160a01b03600054166040519283809263d1f956b160e01b82525afa90811561024c576103a891610b7f91600091610b8f575b50604051610b47816102a1565b601381527f67657464656c656761746f72436f756e742829000000000000000000000000006020820152610b796114e6565b916122c7565b6040519081529081906020820190565b610ba7915060203d81116102455761023681836102de565b38610b3a565b608090600319011261017e57600435610bc58161016d565b90602435906044359060643590565b610bdd36610bad565b92610bee6007939293541515611578565b610bf6611487565b60018403610c1257610c0893506118ea565b6100166001600355565b50916007915014610c24575b50610c08565b600090610c3b61053b83546001600160a01b031690565b906040908151809363ab6e844f60e01b825281600460209687935afa91821561024c57610cc392610cb5928791610e89575b5060075485517f6a8112440000000000000000000000000000000000000000000000000000000088820152602481019190915260448101929092526107fa826064810161059b565b838082518301019101611880565b819291471015610e03575b80471015610ce0575b50505050610c1e565b610cf461053b86546001600160a01b031690565b9082519085826004817faa0ddc1600000000000000000000000000000000000000000000000000000000968782525afa801561024c57610d3b928891610de6575b50611fbe565b83610d5061053b87546001600160a01b031690565b91600484518094819382525afa93841561024c577f992e981f1f6d8cb3a32ce3b31107393c58fbd9a9052cb415a19d578833bf80d69594610dc1575b5050516001600160a01b03909216825260208201524260408201526000606082015280608081015b0390a13880808080610cd7565b610db49294509081610dde92903d106102455761023681836102de565b929038610d8c565b610dfd9150873d89116102455761023681836102de565b38610d35565b610e1e83610e196001546001600160a01b031690565b611fbe565b7f992e981f1f6d8cb3a32ce3b31107393c58fbd9a9052cb415a19d578833bf80d6610e81610e546001546001600160a01b031690565b84516001600160a01b03909116815260208101869052426040820152600060608201529081906080820190565b0390a1610cce565b610ea09150863d88116102455761023681836102de565b38610c6d565b3461017e57602036600319011261017e576020610ecd600435610ec88161016d565b611e27565b6040519015158152f35b3461017e57600036600319011261017e576020600754604051908152f35b3461017e57600036600319011261017e5760206001600160a01b0360055416604051908152f35b3461017e57602036600319011261017e5760046001600160a01b036020816000541660405193848092630536340960e21b82525afa91821561024c57600092610fb8575b5033911603610f74576100166004356120ac565b606460405162461bcd60e51b815260206004820152600f60248201527f6f776e2e6e6f6e617574682e44414f00000000000000000000000000000000006044820152fd5b610fd191925060203d81116102455761023681836102de565b9038610f60565b610fe136610bad565b610ff16007949394541515611578565b610ffc6101ab611ce3565b61100533611e27565b801561117d575b6110159061160e565b61101d611487565b6110286101ab611ce3565b61103133611e27565b8015611114575b9361104460049561160e565b61105561105085611e27565b611835565b60206001600160a01b03600054166040519687809263ab6e844f60e01b82525afa91821561024c576110e1956000936110ec575b50600754604051636e59fe2560e11b602082015260248101919091526001600160a01b0390951660448601526064850191909152608484019290925260a4830191909152600060c48301526107fa8260e4810161059b565b506100166001600355565b6107fa93509061110c61059b9260203d81116102455761023681836102de565b935090611089565b506001600160a01b039360046020866000541660405192838092630536340960e21b82525afa801561024c576004966110449260009261115d575b503391161491955050611038565b61117691925060203d81116102455761023681836102de565b903861114f565b5060046001600160a01b036020816000541660405193848092630536340960e21b82525afa90811561024c57611015926000926111c0575b50163314905061100c565b6111d991925060203d81116102455761023681836102de565b90386111b5565b67ffffffffffffffff81116102bd57601f01601f191660200190565b3461017e57602036600319011261017e5760043567ffffffffffffffff811161017e573660238201121561017e578060040135611238816111e0565b9061124660405192836102de565b808252366024828501011161017e57602081600092602461001696018386013783010152611659565b3461017e57602036600319011261017e5760043561128c8161016d565b803b6000611299826111e0565b926112a760405194856102de565b82845260208401903c602d8151106112cd57602a015160405160609190911c8152602090f35b606460405162461bcd60e51b815260206004820152601360248201527f4e6f742061206d696e696d616c2070726f7879000000000000000000000000006044820152fd5b3461017e5760208060031936011261017e57600480356113308161016d565b6001600160a01b03928084600054166040519485809263d1f956b160e01b82525afa90811561024c576103a8946105d59460009361138c575b50604051931681840152825261137e826102a1565b611386611f55565b9061228b565b6113a4919350823d84116102455761023681836102de565b9138611369565b3461017e57600036600319011261017e576020610ecd611ce3565b3461017e57600036600319011261017e57600460206001600160a01b0360005416604051928380927f447aa3040000000000000000000000000000000000000000000000000000000082525afa90811561024c576103a891610b7f91600091611469575b50604051611437816102a1565b600581527f61676528290000000000000000000000000000000000000000000000000000006020820152610b796114e6565b611481915060203d81116102455761023681836102de565b3861142a565b600260035414611498576002600355565b60046040517f3ee5aeb5000000000000000000000000000000000000000000000000000000008152fd5b9081602091031261017e57516114d78161016d565b90565b6040513d6000823e3d90fd5b604051906114f3826102c2565b60008252565b60405190611506826102a1565b601e82527f7265736f6c76655472616e7366657254617267657428616464726573732900006020830152565b919082604091031261017e57602082519201516114d78161016d565b9081606091031261017e578051916040602083015161156c8161016d565b9201516114d78161016d565b1561157f57565b606460405162461bcd60e51b815260206004820152600f60248201527f6d652e696e76616c69642e696e697400000000000000000000000000000000006044820152fd5b156115ca57565b606460405162461bcd60e51b815260206004820152601260248201527f6f776e2e696e76616c69642e69735361666500000000000000000000000000006044820152fd5b1561161557565b606460405162461bcd60e51b815260206004820152601b60248201527f6f776e2e6e6f6e617574682e44414f6f725365637572656261736500000000006044820152fd5b6116666007541515611578565b6116716101ab611ce3565b6001906001600160a01b0382541633036117805761168d611487565b80519067ffffffffffffffff82116102bd576116b3826116ae600654610251565b6117c4565b60209081601f84116001146116fb57509282939183926000946116f0575b50501b916000199060031b1c1916176006555b6116ee6001600355565b565b0151925038806116d1565b6006600052919083601f1981167ff652222313e28459528d920b65115c16c04f3efc82aaedc97be59f3f377c0d3f946000905b88838310611766575050501061174d575b505050811b016006556116e4565b015160001960f88460031b161c1916905538808061173f565b85870151885590960195948501948793509081019061172e565b606460405162461bcd60e51b815260206004820152601160248201527f6f776e2e696e76616c69642e6f776e65720000000000000000000000000000006044820152fd5b601f81116117d0575050565b600090600682527ff652222313e28459528d920b65115c16c04f3efc82aaedc97be59f3f377c0d3f906020601f850160051c8301941061182b575b601f0160051c01915b82811061182057505050565b818155600101611814565b909250829061180b565b1561183c57565b606460405162461bcd60e51b815260206004820152601360248201527f6d652e756e7365637572652e4f524331313535000000000000000000000000006044820152fd5b919082604091031261017e576020825192015190565b634e487b7160e01b600052601160045260246000fd5b906015820291808304601514901517156118c257565b611896565b90602d820291808304602d14901517156118c257565b919082039182116118c257565b6118f661105082611e27565b3461190057505050565b61191361190c346118ac565b6064900490565b91611928611920346118c7565b6103e8900490565b93611935611920346118c7565b9461194d866119488361194889346118dd565b6118dd565b9160009561196561053b88546001600160a01b031690565b9260409384519586917f5e09dbe70000000000000000000000000000000000000000000000000000000083528260046020998a935afa801561024c576119b1928b91611b945750611fbe565b6004856119c861053b8b546001600160a01b031690565b8651928380927f640274270000000000000000000000000000000000000000000000000000000082525afa92831561024c57600493611a0d928b91611b945750611fbe565b84611a2261053b8a546001600160a01b031690565b8551938480927f30125cf50000000000000000000000000000000000000000000000000000000082525afa801561024c57611a63928991611b7d5750611fbe565b600483611a7a61053b89546001600160a01b031690565b8451928380927f24768d910000000000000000000000000000000000000000000000000000000082525afa97881561024c57600498611abf928991611b7d5750611fbe565b82611ad461053b88546001600160a01b031690565b83519889809263ab6e844f60e01b82525afa93841561024c57611b4f97636e59fe2560e11b9795611b52575b5060075492519384019690965260248301919091526001600160a01b039093166044820152606481019390935260848301919091523460a4830152600160c48301526107fa8260e4810161059b565b50565b6107fa955090611b7361059b949392863d88116102455761023681836102de565b9550909192611b00565b610dfd9150863d88116102455761023681836102de565b610dfd9150883d8a116102455761023681836102de565b611bdf90611bbc6007541515611578565b611bc4611487565b611bd86001600160a01b0382161515611be6565b4790611fbe565b6001600355565b15611bed57565b606460405162461bcd60e51b815260206004820152600f60248201527f6d652e7a65726f2e6164647265737300000000000000000000000000000000006044820152fd5b6001600160a01b0390611c476007541515611578565b611c4f611487565b16611c5b811515611be6565b73ffffffffffffffffffffffffffffffffffffffff1960045416176004556001600355565b15611c8757565b606460405162461bcd60e51b815260206004820152601960248201527f6f776e2e7361666567756172642e63616c6c2e6661696c6564000000000000006044820152fd5b9081602091031261017e5751801515810361017e5790565b6001600160a01b03600054166040518091634bf9c0ad60e11b825281600460209384935afa91821561024c576114d792611d6b91600091611d86575b50604051611d2c816102a1565b600881527f69735361666528290000000000000000000000000000000000000000000000008482015260405191611d62836102c2565b600083526121a4565b919080611d7c575b6105c890611c80565b5081518114611d73565b611d9d9150833d85116102455761023681836102de565b38611d1f565b60405190611db0826102a1565b601582527f69735365637572654261736528616464726573732900000000000000000000006020830152565b15611de357565b606460405162461bcd60e51b815260206004820152601a60248201527f6f776e2e736563757265626173652e63616c6c2e6661696c65640000000000006044820152fd5b6000546001600160a01b0316604051918291634bf9c0ad60e11b835282600460209485935afa92831561024c576114d793611e939261059b92600092611eae575b50611e8b906040519384918783019190916001600160a01b036020820193169052565b6105b1611da3565b919080611ea4575b6105c890611ddc565b5081518114611e9b565b611e8b919250611eca90863d88116102455761023681836102de565b9190611e68565b60405190611ede826102a1565b601182527f69735369676e65722861646472657373290000000000000000000000000000006020830152565b15611f1157565b606460405162461bcd60e51b815260206004820152601660248201527f6f776e2e7369676e65722e63616c6c2e6661696c6564000000000000000000006044820152fd5b60405190611f62826102a1565b601882527f697364656c656761746f724e6f646528616464726573732900000000000000006020830152565b3d15611fb9573d90611f9f826111e0565b91611fad60405193846102de565b82523d6000602084013e565b606090565b9080156120a8576001600160a01b03821691821561206457600080808481945af1611fe7611f8e565b5015612020576040519081527fcec1f18c3ab8ddaaa107a1591e3c369667eec613626611a8deaedef43069fcdd9080602081015b0390a2565b606460405162461bcd60e51b815260206004820152601360248201527f6f776e2e7472616e736665722e6661696c6564000000000000000000000000006044820152fd5b606460405162461bcd60e51b815260206004820152600e60248201527f6f776e2e696e76616c69642e746f0000000000000000000000000000000000006044820152fd5b5050565b6000600460206001600160a01b03835416604051928380927f46f991ac0000000000000000000000000000000000000000000000000000000082525afa90811561024c578284819382938391612186575b505af1612108611f8e565b50156121425760405190815233907fcdcc745fe377b103b45fa0cec23ae3ef93d6fc6a84a01f0d18c40b354dd1d5d890806020810161201b565b606460405162461bcd60e51b815260206004820152600f60248201527f6f776e2e6275726e2e6661696c656400000000000000000000000000000000006044820152fd5b61219e915060203d81116102455761023681836102de565b386120fd565b803b15612221576000927fffffffff00000000000000000000000000000000000000000000000000000000836020869551910120169061220e60246040518093602082019586526121fe8151809260208686019101610300565b81010360048101845201826102de565b5191620dbba0fa61221d611f8e565b9091565b505050600090604051612233816102c2565b6000815290565b9291612248916000946121a4565b9080612280575b6122565750565b90915060208180518101031261017e5760206001600160a01b0391015161227c8161016d565b1690565b50602081511461224f565b9291612299916000946121a4565b90806122bc575b6122a75750565b6114d791925060208082518301019101611ccb565b5060208151146122a0565b92916122d5916000946121a4565b90806122fa575b6122e35750565b90915060208180518101031261017e576020015190565b5060208151146122dc565b90602082519201517fffffffff0000000000000000000000000000000000000000000000000000000090818116936004811061234057505050565b60040360031b82901b16169150565b6001600160a01b0381161561240057600080918351908260208601915af190612376611f8e565b9115612380575090565b8051600091906004116123fa576123979150612305565b8151156123a75750805190602001fd5b6024907fffffffff00000000000000000000000000000000000000000000000000000000604051917f21c09d34000000000000000000000000000000000000000000000000000000008352166004820152fd5b50612397565b606460405162461bcd60e51b815260206004820152601260248201527f6f776e2e696e76616c69642e74617267657400000000000000000000000000006044820152fdfea2646970667358221220b1f1d748879c233c5acaf319a5a7fb9149f689e1f61c30ffdbda3e4c87baef0364736f6c634300081400336080346100c557601f6111e638819003918201601f19168301916001600160401b038311848410176100ca578084926020946040528339810103126100c557516001600160a01b038116908190036100c55780156100805760018060a01b031933816001541617600155600054161760005560405161110590816100e18239f35b60405162461bcd60e51b815260206004820152601360248201527f6f776e2e696e76616c69642e68657862617365000000000000000000000000006044820152606490fd5b600080fd5b634e487b7160e01b600052604160045260246000fdfe60806040526004361015610018575b361561001657005b005b60003560e01c806312065fe0146100d85780631f185d16146100d35780633b9b7955146100ce5780638da5cb5b146100c9578063a1f7f539146100c4578063a9059cbb146100bf578063af484526146100ba578063b90306ad146100b5578063c54e44b0146100b0578063e01ad5fd146100ab578063e0a9bc2b146100a65763fdc10bc90361000e576106d7565b6106bc565b610622565b610580565b6104c4565b610493565b61033f565b610281565b61025a565b610233565b61010a565b346100f45760003660031901126100f457602047604051908152f35b600080fd5b6001600160a01b038116036100f457565b346100f4576020806003193601126100f45760049081359061012b826100f9565b8061014d6101416000546001600160a01b031690565b6001600160a01b031690565b60405194858092634bf9c0ad60e11b82525afa91821561022e576101a16101db936101bd926101ed966000926101fb575b506101af906040519384918783019190916001600160a01b036020820193169052565b03601f1981018452836107eb565b6101b7610bd8565b90610eab565b9190806101f1575b6101ce90610c11565b80825183010191016109d2565b60405190151581529081906020820190565b0390f35b50815181146101c5565b6101af91925061022090863d8811610227575b61021881836107eb565b81019061080d565b919061017e565b503d61020e565b610825565b346100f45760003660031901126100f45760206001600160a01b0360005416604051908152f35b346100f45760003660031901126100f45760206001600160a01b0360015416604051908152f35b346100f45760003660031901126100f457600460206001600160a01b03600054166040519283809263d1f956b160e01b82525afa90811561022e576101ed9161031191600091610321575b506040516102d9816107ae565b601381527f67657464656c656761746f72436f756e74282900000000000000000000000000602082015261030b610974565b91610f98565b6040519081529081906020820190565b610339915060203d81116102275761021881836107eb565b386102cc565b60403660031901126100f457600435610357816100f9565b6001600160a01b03908181161561044f576103706109ea565b1561040b5761037e33610b2e565b91821561039c575b5061039361001692610831565b6024359061087c565b9150600460206103b76101416000546001600160a01b031690565b60405192838092630536340960e21b82525afa801561022e5761001693610393926000926103eb575b501633149250610386565b61040491925060203d81116102275761021881836107eb565b90386103e0565b606460405162461bcd60e51b815260206004820152601260248201527f6f776e2e696e76616c69642e69735361666500000000000000000000000000006044820152fd5b606460405162461bcd60e51b815260206004820152601260248201527f6f776e2e64656661756c742e73656e64657200000000000000000000000000006044820152fd5b346100f45760203660031901126100f45760206104ba6004356104b5816100f9565b610b2e565b6040519015158152f35b346100f45760203660031901126100f45760046001600160a01b036020816000541660405193848092630536340960e21b82525afa91821561022e57600092610560575b503391160361051c57610016600435610db3565b606460405162461bcd60e51b815260206004820152600f60248201527f6f776e2e6e6f6e617574682e44414f00000000000000000000000000000000006044820152fd5b61057991925060203d81116102275761021881836107eb565b9038610508565b346100f45760203660031901126100f45760043561059d816100f9565b803b60006105aa82610958565b926105b860405194856107eb565b82845260208401903c602d8151106105de57602a015160405160609190911c8152602090f35b606460405162461bcd60e51b815260206004820152601360248201527f4e6f742061206d696e696d616c2070726f7879000000000000000000000000006044820152fd5b346100f4576020806003193601126100f45760048035610641816100f9565b6001600160a01b03928084600054166040519485809263d1f956b160e01b82525afa90811561022e576101ed946101db9460009361069d575b50604051931681840152825261068f826107ae565b610697610c5c565b90610f5c565b6106b5919350823d84116102275761021881836107eb565b913861067a565b346100f45760003660031901126100f45760206104ba6109ea565b346100f45760003660031901126100f457600460206001600160a01b0360005416604051928380927f447aa3040000000000000000000000000000000000000000000000000000000082525afa90811561022e576101ed916103119160009161077a575b50604051610748816107ae565b600581527f6167652829000000000000000000000000000000000000000000000000000000602082015261030b610974565b610792915060203d81116102275761021881836107eb565b3861073b565b634e487b7160e01b600052604160045260246000fd5b6040810190811067ffffffffffffffff8211176107ca57604052565b610798565b6020810190811067ffffffffffffffff8211176107ca57604052565b90601f8019910116810190811067ffffffffffffffff8211176107ca57604052565b908160209103126100f45751610822816100f9565b90565b6040513d6000823e3d90fd5b1561083857565b606460405162461bcd60e51b815260206004820152601b60248201527f6f776e2e6e6f6e617574682e44414f6f725365637572656261736500000000006044820152fd5b908047106108c9575b61088f8183610cc5565b60405190815233916001600160a01b0316907f1e70cf59d0c7a20c88704bfce5a47e636dfa577ebf52a7166641741cef34366190602090a3565b68056bc75e2d631000008101811161094257671bc16d674ec800008101808211610942576040517fa9059cbb00000000000000000000000000000000000000000000000000000000602082015230602482015260448082019290925290815261093c906109376064826107eb565b610fd6565b50610885565b634e487b7160e01b600052601160045260246000fd5b67ffffffffffffffff81116107ca57601f01601f191660200190565b60405190610981826107cf565b60008252565b1561098e57565b606460405162461bcd60e51b815260206004820152601960248201527f6f776e2e7361666567756172642e63616c6c2e6661696c6564000000000000006044820152fd5b908160209103126100f4575180151581036100f45790565b6001600160a01b03600054166040518091634bf9c0ad60e11b825281600460209384935afa91821561022e5761082292610a7291600091610a8d575b50604051610a33816107ae565b600881527f69735361666528290000000000000000000000000000000000000000000000008482015260405191610a69836107cf565b60008352610eab565b919080610a83575b6101ce90610987565b5081518114610a7a565b610aa49150833d85116102275761021881836107eb565b38610a26565b60405190610ab7826107ae565b601582527f69735365637572654261736528616464726573732900000000000000000000006020830152565b15610aea57565b606460405162461bcd60e51b815260206004820152601a60248201527f6f776e2e736563757265626173652e63616c6c2e6661696c65640000000000006044820152fd5b6000546001600160a01b0316604051918291634bf9c0ad60e11b835282600460209485935afa92831561022e5761082293610b9a926101a192600092610bb5575b50610b92906040519384918783019190916001600160a01b036020820193169052565b6101b7610aaa565b919080610bab575b6101ce90610ae3565b5081518114610ba2565b610b92919250610bd190863d88116102275761021881836107eb565b9190610b6f565b60405190610be5826107ae565b601182527f69735369676e65722861646472657373290000000000000000000000000000006020830152565b15610c1857565b606460405162461bcd60e51b815260206004820152601660248201527f6f776e2e7369676e65722e63616c6c2e6661696c6564000000000000000000006044820152fd5b60405190610c69826107ae565b601882527f697364656c656761746f724e6f646528616464726573732900000000000000006020830152565b3d15610cc0573d90610ca682610958565b91610cb460405193846107eb565b82523d6000602084013e565b606090565b908015610daf576001600160a01b038216918215610d6b57600080808481945af1610cee610c95565b5015610d27576040519081527fcec1f18c3ab8ddaaa107a1591e3c369667eec613626611a8deaedef43069fcdd9080602081015b0390a2565b606460405162461bcd60e51b815260206004820152601360248201527f6f776e2e7472616e736665722e6661696c6564000000000000000000000000006044820152fd5b606460405162461bcd60e51b815260206004820152600e60248201527f6f776e2e696e76616c69642e746f0000000000000000000000000000000000006044820152fd5b5050565b6000600460206001600160a01b03835416604051928380927f46f991ac0000000000000000000000000000000000000000000000000000000082525afa90811561022e578284819382938391610e8d575b505af1610e0f610c95565b5015610e495760405190815233907fcdcc745fe377b103b45fa0cec23ae3ef93d6fc6a84a01f0d18c40b354dd1d5d8908060208101610d22565b606460405162461bcd60e51b815260206004820152600f60248201527f6f776e2e6275726e2e6661696c656400000000000000000000000000000000006044820152fd5b610ea5915060203d81116102275761021881836107eb565b38610e04565b9190823b15610f43577fffffffff00000000000000000000000000000000000000000000000000000000815160208093012016916040519180830193845281519160005b838110610f2f575050509181610f1c602482600097959688970187838201520360048101845201826107eb565b5191620dbba0fa610f2b610c95565b9091565b818101830151858201602401528201610eef565b505050600090604051610f55816107cf565b6000815290565b9291610f6a91600094610eab565b9080610f8d575b610f785750565b610822919250602080825183010191016109d2565b506020815114610f71565b9291610fa691600094610eab565b9080610fcb575b610fb45750565b9091506020818051810103126100f4576020015190565b506020815114610fad565b602081016000808084518482732fb8b5508b072e1d0e0d2e7e4a1a1a7955589a9a5af192611002610c95565b931561100e5750505090565b51916004831091826110c65750517fffffffff0000000000000000000000000000000000000000000000000000000092838216926110b1575b505090505b81511561105c5750805190602001fd5b6040517f21c09d340000000000000000000000000000000000000000000000000000000081527fffffffff00000000000000000000000000000000000000000000000000000000919091166004820152602490fd5b8391925060040360031b1b1616808380611047565b9250505061104c56fea2646970667358221220fd4a3498359bbc753bce2f1abd8bedd2d402255e46bee53dd25730fd7b4c8c7e64736f6c63430008140033","linkReferences":{}},"methodIdentifiers":{"instance()":"022ec095","tVLFactory()":"9ba540fb","tVLMining()":"d795ff38","tVLReward()":"b85c9faf","tVLRoyality()":"9443767c","tVLTour()":"dabf429d","tVLValidator()":"a50c0bc0"},"id":69}