{"abi":[{"type":"constructor","inputs":[{"name":"_hex","type":"address","internalType":"address"}],"stateMutability":"nonpayable"},{"type":"function","name":"rule741","inputs":[],"outputs":[{"name":"","type":"address","internalType":"address"}],"stateMutability":"view"},{"type":"function","name":"transferRequest","inputs":[],"outputs":[{"name":"","type":"address","internalType":"address"}],"stateMutability":"view"}],"bytecode":{"object":"0x6080346200012d57601f62006e9c38819003918201601f19168301926001600160401b0392909183851183861017620001175781602092849260409788528339810103126200012d57516001600160a01b0390818116908190036200012d5783519061473f91828101928184108685111762000117576200275d823981835260208160009403019083f09384156200010d5782549484166001600160a01b031995861617835585519161255a8084019284841090841117620000f957918391602093620002038439815203019082f0908115620000ee5750169060015416176001555160d09081620001338239f35b8451903d90823e3d90fd5b634e487b7160e01b85526041600452602485fd5b85513d84823e3d90fd5b634e487b7160e01b600052604160045260246000fd5b600080fdfe6080806040526004361015601257600080fd5b600090813560e01c9081630a5b38ab1460685750633da8676f14603457600080fd5b3460655780600319360112606557602073ffffffffffffffffffffffffffffffffffffffff60015416604051908152f35b80fd5b9050346096578160031936011260965773ffffffffffffffffffffffffffffffffffffffff60209254168152f35b5080fdfea2646970667358221220679e230bb50d76b7abc88732ac42f5c762606d05cb19ca37b7b9a1a54ae954cb64736f6c634300081400336080346100ca57601f61255a38819003918201601f19168301916001600160401b038311848410176100cf578084926020946040528339810103126100ca57516001600160a01b038116908190036100ca5780156100855760018060a01b0319338160015416176001556000541617600055600160035560405161247490816100e68239f35b60405162461bcd60e51b815260206004820152601360248201527f6f776e2e696e76616c69642e68657862617365000000000000000000000000006044820152606490fd5b600080fd5b634e487b7160e01b600052604160045260246000fdfe60806040526004361015610018575b361561001657005b005b60003560e01c806312065fe0146101a857806318c864e3146101a35780631f185d161461019e5780633294adf0146101995780633676bd1f146101945780633b9b79551461018f578063479fa2c31461018a5780634ef260a9146101855780638da5cb5b146101805780639fb3953b1461017b578063a1f7f53914610176578063ab7e46ae14610171578063ac2333451461016c578063af48452614610167578063b8f1759a14610162578063b90306ad1461015d578063c1e6cec214610158578063c54e44b014610153578063cab3cc8d1461014e578063e01ad5fd14610149578063e0a9bc2b14610144578063e846034a1461013f578063e981bcad1461013a578063fdc10bc9146101355763ff585caf0361000e576110a5565b610ffd565b610f22565b610f04565b610e65565b610dcb565b610dad565b610d0b565b610ccd565b610bad565b610b53565b610b22565b610aea565b610a90565b6109d2565b61081c565b6107f5565b610721565b610672565b61064b565b610620565b6103e3565b6102be565b61021e565b346101c45760003660031901126101c457602047604051908152f35b600080fd5b634e487b7160e01b600052603260045260246000fd5b60055481101561021957600560005260021b7f036b6384b5eca791c62761152d0c79bb0604c104a5fb6f4eb0703f3154bb3db00190600090565b6101c9565b346101c45760203660031901126101c4576004356005548110156101c457610245906101df565b50805460018201546002830154600390930154604080516001600160a01b039485168152938316602085015260ff60a093841c811615159185019190915260608401949094528381161515608084015260081c90921615159181019190915260c090f35b0390f35b6001600160a01b038116036101c457565b346101c4576020806003193601126101c4576004908135906102df826102ad565b806103016102f56000546001600160a01b031690565b6001600160a01b031690565b60405194858092634bf9c0ad60e11b82525afa9182156103de5761035561038f93610371926102a9966000926103ab575b50610363906040519384918783019190916001600160a01b036020820193169052565b03601f198101845283611205565b61036b61203d565b906121a0565b9190806103a1575b61038290612076565b8082518301019101611efb565b60405190151581529081906020820190565b5081518114610379565b6103639192506103d090863d88116103d7575b6103c88183611205565b810190611227565b9190610332565b503d6103be565b61123f565b346101c4576020806003193601126101c457600435610401816102ad565b6001600160a01b038116156105dc57610437610430336001600160a01b03166000526004602052604060002090565b5415611119565b61046d61044261117a565b509182906001600160a01b031673ffffffffffffffffffffffffffffffffffffffff19825416179055565b60018101805473ffffffffffffffffffffffffffffffffffffffff191633178155916104d2906004906005546040519384917fff585caf0000000000000000000000000000000000000000000000000000000084840152602483019190602083019252565b036104e5601f1991828101865285611205565b816104fb6102f56000546001600160a01b031690565b60405194858092630536340960e21b82525afa9283156103de576002946105859461057893610567936000926105bb575b5061057391926040519485917fd3a308490000000000000000000000000000000000000000000000000000000089840152306024840161126e565b03908101845283611205565b612349565b80518101820191016112ee565b9101556105b861059f60055492546001600160a01b031690565b6001600160a01b03166000526004602052604060002090565b55005b61057392506105d690873d89116103d7576103c88183611205565b9161052c565b6064826040519062461bcd60e51b82526004820152601260248201527f6f776e2e64656661756c742e73656e64657200000000000000000000000000006044820152fd5b346101c45760203660031901126101c457610639611d65565b610644600435611934565b6001600355005b346101c45760003660031901126101c45760206001600160a01b0360005416604051908152f35b346101c45760203660031901126101c45760043580151580610715575b61069890611348565b6000198101908111610710576106ad906101df565b50805460018201546003830154600290930154604080516001600160a01b039485168152938316602085015260ff80861615159185019190915260089490941c84161515606084015260a091821c9093161515608083015281019190915260c090f35b611393565b5060055481111561068f565b346101c45760203660031901126101c4576001600160a01b03600435610746816102ad565b166000908082526004602052604082205460001981019081116107105761076e6003916101df565b500161010061ff00198254161790558082526004602052816040812055600654680100000000000000008110156107f0576001810180600655811015610219577ff652222313e28459528d920b65115c16c04f3efc82aaedc97be59f3f377c0d3f019073ffffffffffffffffffffffffffffffffffffffff1982541617905580f35b611164565b346101c45760003660031901126101c45760206001600160a01b0360015416604051908152f35b60803660031901126101c457600435610834816102ad565b61083c611d65565b6108516102f56000546001600160a01b031690565b6040519163ab6e844f60e01b83526020918284600481845afa9384156103de576000946109ae575b5082600491604051928380927fde433f170000000000000000000000000000000000000000000000000000000082525afa9081156103de57610902916108e091600091610991575b506040519182918683019190916001600160a01b036020820193169052565b03946108f4601f1996878101845283611205565b6108fc611e3e565b90612236565b906001600160a01b03821661091c575b6100166001600355565b610987937fc107930a00000000000000000000000000000000000000000000000000000000936105676105739360405196879384015260643590604435906024359060248601909493926060926001600160a01b036080840197168352602083015260408201520152565b5038808080610912565b6109a89150853d87116103d7576103c88183611205565b386108c1565b60049194506109ca8491823d84116103d7576103c88183611205565b949150610879565b346101c45760003660031901126101c457600460206001600160a01b03600054166040519283809263d1f956b160e01b82525afa9081156103de576102a991610a6291600091610a72575b50604051610a2a816111cd565b601381527f67657464656c656761746f72436f756e742829000000000000000000000000006020820152610a5c6113d4565b916122c3565b6040519081529081906020820190565b610a8a915060203d81116103d7576103c88183611205565b38610a1d565b346101c45760203660031901126101c4576004356006548110156101c4576001600160a01b0360209160066000527ff652222313e28459528d920b65115c16c04f3efc82aaedc97be59f3f377c0d3f015416604051908152f35b346101c45760203660031901126101c4576020610b11600435610b0c816102ad565b61159c565b6001600160a01b0360405191168152f35b346101c45760203660031901126101c4576020610b49600435610b44816102ad565b611f93565b6040519015158152f35b346101c45760203660031901126101c457600435600654811015610219576001600160a01b0360209160066000527ff652222313e28459528d920b65115c16c04f3efc82aaedc97be59f3f377c0d3f015416604051908152f35b346101c4576020806003193601126101c4576004356001600160a01b0391600092808454169060405191630536340960e21b83528383600481845afa9283156103de576004938593610c09928992610cae575b501633146112fd565b604051928380927f46f991ac0000000000000000000000000000000000000000000000000000000082525afa9182156103de57848085610c6095829583958492610c91575b50505af1610c5a6120fa565b5061212a565b60405190815233907fcdcc745fe377b103b45fa0cec23ae3ef93d6fc6a84a01f0d18c40b354dd1d5d890602090a280f35b610ca79250803d106103d7576103c88183611205565b3880610c4e565b610cc6919250853d87116103d7576103c88183611205565b9038610c00565b346101c45760203660031901126101c4576001600160a01b03600435610cf2816102ad565b1660005260046020526020604060002054604051908152f35b346101c45760203660031901126101c457600435610d28816102ad565b803b6000610d35826113b8565b92610d436040519485611205565b82845260208401903c602d815110610d6957602a015160405160609190911c8152602090f35b606460405162461bcd60e51b815260206004820152601360248201527f4e6f742061206d696e696d616c2070726f7879000000000000000000000000006044820152fd5b346101c45760003660031901126101c4576020600554604051908152f35b346101c4576020806003193601126101c45760048035610dea816102ad565b6001600160a01b03928084600054166040519485809263d1f956b160e01b82525afa9081156103de576102a99461038f94600093610e46575b506040519316818401528252610e38826111cd565b610e406120c1565b90612287565b610e5e919350823d84116103d7576103c88183611205565b9138610e23565b346101c45760003660031901126101c4576001600160a01b03600054166040518091634bf9c0ad60e11b825281600460209384935afa9081156103de57610ecc61038f926102a994600091610ee7575b50610ebe611e77565b610ec66113d4565b916121a0565b919080610edd575b61038290611eb0565b5081518114610ed4565b610efe9150833d85116103d7576103c88183611205565b38610eb5565b346101c45760003660031901126101c4576020600654604051908152f35b346101c45760403660031901126101c457610f3b611d65565b610f4c610f4730611f93565b6116bc565b60046020610f656102f56000546001600160a01b031690565b6040519283809263ab6e844f60e01b82525afa80156103de57610fd491600091610fdf575b506040517f33b59a5b000000000000000000000000000000000000000000000000000000006020820152600435602480830191909152356044820152906105738260648101610355565b506100166001600355565b610ff7915060203d81116103d7576103c88183611205565b38610f8a565b346101c45760003660031901126101c457600460206001600160a01b03600054166040519283809263111ea8c160e21b82525afa9081156103de576102a991610a6291600091611087575b50604051611055816111cd565b600581527f61676528290000000000000000000000000000000000000000000000000000006020820152610a5c6113d4565b61109f915060203d81116103d7576103c88183611205565b38611048565b346101c45760203660031901126101c45760046001600160a01b036020816000541660405193848092630536340960e21b82525afa9081156103de576110f59260009261110057501633146112fd565b610016600435611466565b610cc691925060203d81116103d7576103c88183611205565b1561112057565b606460405162461bcd60e51b815260206004820152601260248201527f70726f706f7365722e746f2e65786973747300000000000000000000000000006044820152fd5b634e487b7160e01b600052604160045260246000fd5b600554680100000000000000008110156107f057600181018060055581101561021957600560005260021b7f036b6384b5eca791c62761152d0c79bb0604c104a5fb6f4eb0703f3154bb3db00190600090565b6040810190811067ffffffffffffffff8211176107f057604052565b6020810190811067ffffffffffffffff8211176107f057604052565b90601f8019910116810190811067ffffffffffffffff8211176107f057604052565b908160209103126101c4575161123c816102ad565b90565b6040513d6000823e3d90fd5b60005b83811061125e5750506000910152565b818101518382015260200161124e565b92916080906001600160a01b03600a9360a08752600d60a08801527f55736572205472616e736665720000000000000000000000000000000000000060c08801521660208601526000604086015260e0606086015280518060e08701526112df81610100936020858a01910161124b565b601f8019910116850101930152565b908160209103126101c4575190565b1561130457565b606460405162461bcd60e51b815260206004820152600f60248201527f6f776e2e6e6f6e617574682e44414f00000000000000000000000000000000006044820152fd5b1561134f57565b606460405162461bcd60e51b815260206004820152601760248201527f70726f706f7365722e696e76616c69642e666f726d69640000000000000000006044820152fd5b634e487b7160e01b600052601160045260246000fd5b60001981019190821161071057565b67ffffffffffffffff81116107f057601f01601f191660200190565b604051906113e1826111e9565b60008252565b604051906113f4826111cd565b601282527f676574526573756c742875696e743235362900000000000000000000000000006020830152565b519081151582036101c457565b91908260c09103126101c45781519160208101519160408201519160608101519161123c60a061145f60808501611420565b9301611420565b80156115995761148661148b91611481600554821115611348565b6113a9565b6101df565b506114a16102f56000546001600160a01b031690565b604051918291630536340960e21b835282600460209485935afa9081156103de576115156115689361150861035560039561157a9860009161157c575b506114fa60028701546040519384918783019190602083019252565b6115026113e7565b90612175565b805181018201910161142d565b9794509250505060018301907fffffffffffffffffffffff00ffffffffffffffffffffffffffffffffffffffff74ff0000000000000000000000000000000000000000835492151560a01b169116179055565b019060ff801983541691151516179055565b565b6115939150843d86116103d7576103c88183611205565b386114de565b50565b6115b9816001600160a01b03166000526004602052604060002090565b548015159081611664575b501561165e576114866115ed6115f3926001600160a01b03166000526004602052604060002090565b546113a9565b50600181015460a01c60ff169081611648575b81611627575b6000911561162357546001600160a01b0316905090565b5090565b905061164261163e600383015460ff9060081c1690565b1590565b9061160c565b9050611658600382015460ff1690565b90611606565b50600090565b90506005541015386115c4565b1561167857565b606460405162461bcd60e51b815260206004820152601c60248201527f7574696c6974792e62617463682e6c696d69742e6578636565646564000000006044820152fd5b156116c357565b606460405162461bcd60e51b815260206004820152601760248201527f7574696c6974792e756e7365637572652e6661696c65640000000000000000006044820152fd5b604051611713816111e9565b60008152906000368137565b6040519061172c826111cd565b600f82527f6765744e6f646573436f756e74282900000000000000000000000000000000006020830152565b1561175f57565b606460405162461bcd60e51b815260206004820152601360248201527f7574696c6974792e696d706f72742e646f6e65000000000000000000000000006044820152fd5b9190820180921161071057565b60001981146107105760010190565b604051906117cc826111cd565b601782527f6765744e6f64654279496e6465782875696e74323536290000000000000000006020830152565b156117ff57565b606460405162461bcd60e51b815260206004820152601660248201527f70726f78792e696e76616c69642e696e7374616e6365000000000000000000006044820152fd5b60405190611850826111cd565b601382527f496e7374546f55736572286164647265737329000000000000000000000000006020830152565b1561188357565b606460405162461bcd60e51b815260206004820152601260248201527f70726f78792e696e76616c69642e6e6f646500000000000000000000000000006044820152fd5b604051906118d4826111cd565b601082527f6765744e6f6465286164647265737329000000000000000000000000000000006020830152565b908160a09103126101c457805191602082015161191c816102ad565b9160408101519161123c608061145f60608501611420565b6119416064821115611671565b61194d610f4730611f93565b6000906119646102f583546001600160a01b031690565b9160409081519163111ea8c160e21b9485845260209060049482818781855afa80156103de576119ad918691611d4e575b5061199e611707565b906119a761171f565b906122c3565b958615611d445783518381888163ab6e844f60e01b968782525afa9081156103de576119f8916119e6918891611d27575061199e611707565b916119f2838a11611758565b826117a3565b96808811611d1f575b505b868110611a14575050505050505050565b611a286102f586546001600160a01b031690565b9084519189835284838981845afa9283156103de578793611d00575b50611a78865180611a5c858983019190602083019252565b0394611a70601f1996878101845283611205565b6108fc6117bf565b906001600160a01b03611a8e81841615156117f8565b87518c815287818c81865afa80156103de57611ae3918b91611ce3575b50895190611adb82611acf888d83019190916001600160a01b036020820193169052565b03898101845283611205565b6108fc611843565b91611af1828416151561187c565b8851938d855288858d81855afa9485156103de57611b4e6001928c8f988f611b5c958f9192611cbe575b5091516001600160a01b0390931691830191825290611b469083906020015b038c8101845283611205565b6115026118c7565b8a8082518301019101611900565b5050509390931692611b6f81151561187c565b148015611cb5575b611c38575b50611b878280611da0565b86611b9c6102f58b546001600160a01b031690565b8951948580928a82525afa80156103de57611c1295611c0c948b92611c17575b5089517f50db85d1000000000000000000000000000000000000000000000000000000008a8201526001600160a01b03938416602482015293909216604484015290610573908360648101610567565b506117b0565b611a03565b6105739250611c32908a3d8c116103d7576103c88183611205565b91611bbc565b928c88918a518096819382525afa9283156103de578a93611c8c92611c80928c92611c92575b50611adb908b519384918c83019190916001600160a01b036020820193169052565b03888101845283611205565b38611b7c565b611adb919250611cae908b3d8d116103d7576103c88183611205565b9190611c5e565b50811515611b77565b611b469250611cdc611b3a91833d85116103d7576103c88183611205565b9250611b1b565b611cfa9150893d8b116103d7576103c88183611205565b38611aab565b611d18919350853d87116103d7576103c88183611205565b9138611a44565b965038611a01565b611d3e9150863d88116103d7576103c88183611205565b38611995565b5050505050505050565b611d3e9150843d86116103d7576103c88183611205565b600260035414611d76576002600355565b60046040517f3ee5aeb5000000000000000000000000000000000000000000000000000000008152fd5b60055490680100000000000000008210156107f057611dca610442836001600395016005556101df565b600181810180547fffffffffffffffffffffff000000000000000000000000000000000000000000166001600160a01b0395909516948517740100000000000000000000000000000000000000001790559101805461ffff1916909117905560055460009182526004602052604090912055565b60405190611e4b826111cd565b601682527f67657455736572546f496e7374286164647265737329000000000000000000006020830152565b60405190611e84826111cd565b600882527f69735361666528290000000000000000000000000000000000000000000000006020830152565b15611eb757565b606460405162461bcd60e51b815260206004820152601960248201527f6f776e2e7361666567756172642e63616c6c2e6661696c6564000000000000006044820152fd5b908160209103126101c45761123c90611420565b60405190611f1c826111cd565b601582527f69735365637572654261736528616464726573732900000000000000000000006020830152565b15611f4f57565b606460405162461bcd60e51b815260206004820152601a60248201527f6f776e2e736563757265626173652e63616c6c2e6661696c65640000000000006044820152fd5b6000546001600160a01b0316604051918291634bf9c0ad60e11b835282600460209485935afa9283156103de5761123c93611fff926103559260009261201a575b50611ff7906040519384918783019190916001600160a01b036020820193169052565b61036b611f0f565b919080612010575b61038290611f48565b5081518114612007565b611ff791925061203690863d88116103d7576103c88183611205565b9190611fd4565b6040519061204a826111cd565b601182527f69735369676e65722861646472657373290000000000000000000000000000006020830152565b1561207d57565b606460405162461bcd60e51b815260206004820152601660248201527f6f776e2e7369676e65722e63616c6c2e6661696c6564000000000000000000006044820152fd5b604051906120ce826111cd565b601882527f697364656c656761746f724e6f646528616464726573732900000000000000006020830152565b3d15612125573d9061210b826113b8565b916121196040519384611205565b82523d6000602084013e565b606090565b1561213157565b606460405162461bcd60e51b815260206004820152600f60248201527f6f776e2e6275726e2e6661696c656400000000000000000000000000000000006044820152fd5b9061218092916121a0565b906000901561218d575090565b604051915061219b826111e9565b815290565b803b1561221d576000927fffffffff00000000000000000000000000000000000000000000000000000000836020869551910120169061220a60246040518093602082019586526121fa815180926020868601910161124b565b8101036004810184520182611205565b5191620dbba0fa6122196120fa565b9091565b50505060009060405161222f816111e9565b6000815290565b9291612244916000946121a0565b908061227c575b6122525750565b9091506020818051810103126101c45760206001600160a01b03910151612278816102ad565b1690565b50602081511461224b565b9291612295916000946121a0565b90806122b8575b6122a35750565b61123c91925060208082518301019101611efb565b50602081511461229c565b92916122d1916000946121a0565b90806122f4575b6122df5750565b61123c919250602080825183010191016112ee565b5060208151146122d8565b90602082519201517fffffffff0000000000000000000000000000000000000000000000000000000090818116936004811061233a57505050565b60040360031b82901b16169150565b6001600160a01b038116156123fa57600080918351908260208601915af1906123706120fa565b911561237a575090565b8051600091906004116123f45761239191506122ff565b8151156123a15750805190602001fd5b6024907fffffffff00000000000000000000000000000000000000000000000000000000604051917f21c09d34000000000000000000000000000000000000000000000000000000008352166004820152fd5b50612391565b606460405162461bcd60e51b815260206004820152601260248201527f6f776e2e696e76616c69642e74617267657400000000000000000000000000006044820152fdfea26469706673582212208d5f8c978c7a9c8fd65ce06f9d0d032dd1379b29f914dca0397d7c042609b1d264736f6c6343000814003360803462001a9057601f6200473f38819003918201601f19168301916001600160401b0383118484101762001a955780849260209460405283398101031262001a9057516001600160a01b0381169081900362001a9057801562001a4b5760018060a01b0319338160015416176001556000541617600055601e601755600360185560046019556001601a556001601b556002601c5561c350601d55610258601e556003601f55601960205568878678326eac900000602155670de0b6b3a764000060225569021e19e0c9bab240000060235560016024556005602d5560ff19602e5416602e5561025860c0620000f562001aeb565b6002815260646020820152600160408201526023606082015260646080820152600160a082015201526002600755606460085560016009556023600a556064600b556001600c55610258600d55605a60406200015062001b34565b60198152600a602082015201526019600e55600a600f55605a60105560406200017862001b34565b6005815260016020820152610168918291015260056011556001601255601355600160a0620001a662001aeb565b600481528260208201528260408201528260608201528260808201528260c0820152015260046014556501010101010165ffffffffffff196015541617601555620001f062001b53565b610258606061014092838152600b6020820152600a60408201520152602555600b602655600a60275561025860285561025860606200022e62001b53565b60d28152600b6020820152600a6040820152015260d2602955600b602a55600a602b55610258602c55620003466200026562001aab565b60008082526020808301828152604084018381526060850184815261270f60808701908152948052600490935293517f17ef568e3e12ab5b9c7254a8d58478811de00f9e6eb34345acd53bf8fd09d3ec55517f17ef568e3e12ab5b9c7254a8d58478811de00f9e6eb34345acd53bf8fd09d3ed5591517f17ef568e3e12ab5b9c7254a8d58478811de00f9e6eb34345acd53bf8fd09d3ee5590517f17ef568e3e12ab5b9c7254a8d58478811de00f9e6eb34345acd53bf8fd09d3ef55517f17ef568e3e12ab5b9c7254a8d58478811de00f9e6eb34345acd53bf8fd09d3f055565b6200043b6200035462001aab565b60078152601960208083019182526000604084018181526060850182815261270f608087019081526001909352600490935293517fabd6e7cb50984ff9c2f3e18a2660c3353dadf4e3291deeb275dae2cd1e44fe055591517fabd6e7cb50984ff9c2f3e18a2660c3353dadf4e3291deeb275dae2cd1e44fe065591517fabd6e7cb50984ff9c2f3e18a2660c3353dadf4e3291deeb275dae2cd1e44fe075590517fabd6e7cb50984ff9c2f3e18a2660c3353dadf4e3291deeb275dae2cd1e44fe0855517fabd6e7cb50984ff9c2f3e18a2660c3353dadf4e3291deeb275dae2cd1e44fe0955565b620005306200044962001aab565b60078152606460208083019182526000604084018181526060850182815261270f608087019081526002909352600490935293517f91da3fd0782e51c6b3986e9e672fd566868e71f3dbc2d6c2cd6fbb3e361af2a75591517f91da3fd0782e51c6b3986e9e672fd566868e71f3dbc2d6c2cd6fbb3e361af2a85591517f91da3fd0782e51c6b3986e9e672fd566868e71f3dbc2d6c2cd6fbb3e361af2a95590517f91da3fd0782e51c6b3986e9e672fd566868e71f3dbc2d6c2cd6fbb3e361af2aa55517f91da3fd0782e51c6b3986e9e672fd566868e71f3dbc2d6c2cd6fbb3e361af2ab55565b620006266200053e62001aab565b600781526101f46020808301918252600360408401818152600060608601818152601e6080880190815293909152600490935293517f2e174c10e159ea99b867ce3205125c24a42d128804e4070ed6fcc8cc98166aa05591517f2e174c10e159ea99b867ce3205125c24a42d128804e4070ed6fcc8cc98166aa15591517f2e174c10e159ea99b867ce3205125c24a42d128804e4070ed6fcc8cc98166aa25590517f2e174c10e159ea99b867ce3205125c24a42d128804e4070ed6fcc8cc98166aa355517f2e174c10e159ea99b867ce3205125c24a42d128804e4070ed6fcc8cc98166aa455565b6200071a6200063462001aab565b600781526107d06020808301918252600460408401818152600060608601818152601e60808801908152918490529290935293517f1a1e6821cde7d0159c0d293177871e09677b4e42307c7db3ba94f8648a5a050f5591517f1a1e6821cde7d0159c0d293177871e09677b4e42307c7db3ba94f8648a5a05105591517f1a1e6821cde7d0159c0d293177871e09677b4e42307c7db3ba94f8648a5a051155517f1a1e6821cde7d0159c0d293177871e09677b4e42307c7db3ba94f8648a5a051255517f1a1e6821cde7d0159c0d293177871e09677b4e42307c7db3ba94f8648a5a051355565b6200080f6200072862001aab565b6007815261138860208083019182526004604084018181526060850182815261270f6080870190815260056000529290935293517f04cde762ef08b6b6c5ded8e8c4c0b3f4e5c9ad7342c88fcc93681b4588b73f055591517f04cde762ef08b6b6c5ded8e8c4c0b3f4e5c9ad7342c88fcc93681b4588b73f065591517f04cde762ef08b6b6c5ded8e8c4c0b3f4e5c9ad7342c88fcc93681b4588b73f075590517f04cde762ef08b6b6c5ded8e8c4c0b3f4e5c9ad7342c88fcc93681b4588b73f0855517f04cde762ef08b6b6c5ded8e8c4c0b3f4e5c9ad7342c88fcc93681b4588b73f0955565b620009046200081d62001aab565b6007815261271060208083019182526004604084018181526060850182815261270f6080870190815260066000529290935293517fc59312466997bb42aaaf719ece141047820e6b34531e1670dc1852a453648f0f5591517fc59312466997bb42aaaf719ece141047820e6b34531e1670dc1852a453648f105591517fc59312466997bb42aaaf719ece141047820e6b34531e1670dc1852a453648f115590517fc59312466997bb42aaaf719ece141047820e6b34531e1670dc1852a453648f1255517fc59312466997bb42aaaf719ece141047820e6b34531e1670dc1852a453648f1355565b620009fa6200091262001aab565b60078082526161a860208084019182526004604085018181526060860182815261270f608088019081526000969096529190925293517fbeb3bad75134cb432e5707980e3245c52c5998a1125ee30f2f0dbf3925b1e5515590517fbeb3bad75134cb432e5707980e3245c52c5998a1125ee30f2f0dbf3925b1e55255517fbeb3bad75134cb432e5707980e3245c52c5998a1125ee30f2f0dbf3925b1e5535590517fbeb3bad75134cb432e5707980e3245c52c5998a1125ee30f2f0dbf3925b1e55455517fbeb3bad75134cb432e5707980e3245c52c5998a1125ee30f2f0dbf3925b1e55555565b62000aeb62000a0862001aab565b60008082526006602080840182815260016040860181815260056060880190815260808801838152929096529390925293517f3e5fec24aa4dc4e5aee2e025e51e1392c72a2500577559fae9665c6d52bd6a315592517f3e5fec24aa4dc4e5aee2e025e51e1392c72a2500577559fae9665c6d52bd6a3255517f3e5fec24aa4dc4e5aee2e025e51e1392c72a2500577559fae9665c6d52bd6a3355517f3e5fec24aa4dc4e5aee2e025e51e1392c72a2500577559fae9665c6d52bd6a3455517f3e5fec24aa4dc4e5aee2e025e51e1392c72a2500577559fae9665c6d52bd6a3555565b62000bde62000af962001aab565b600080825260036020808401918252600160408501818152600560608701908152608087019283526002909552600690925293517f8819ef417987f8ae7a81f42cdfb18815282fe989326fbff903d13cf0e03ace295590517f8819ef417987f8ae7a81f42cdfb18815282fe989326fbff903d13cf0e03ace2a55517f8819ef417987f8ae7a81f42cdfb18815282fe989326fbff903d13cf0e03ace2b55517f8819ef417987f8ae7a81f42cdfb18815282fe989326fbff903d13cf0e03ace2c55517f8819ef417987f8ae7a81f42cdfb18815282fe989326fbff903d13cf0e03ace2d55565b62000cd462000bec62001aab565b60028152600f6020808301918252600a604084019081526005606085019081526001608086019081526003600052600690935293517f75f96ab15d697e93042dc45b5c896c4b27e89bb6eaf39475c5c371cb2513f7d25591517f75f96ab15d697e93042dc45b5c896c4b27e89bb6eaf39475c5c371cb2513f7d35590517f75f96ab15d697e93042dc45b5c896c4b27e89bb6eaf39475c5c371cb2513f7d45590517f75f96ab15d697e93042dc45b5c896c4b27e89bb6eaf39475c5c371cb2513f7d555517f75f96ab15d697e93042dc45b5c896c4b27e89bb6eaf39475c5c371cb2513f7d655565b62000dca62000ce262001aab565b60028152600f6020808301918252600a604084019081526005606085019081526001608086019081526004600052600690935293517fc5069e24aaadb2addc3e52e868fcf3f4f8acf5a87e24300992fd4540c2a87eed5591517fc5069e24aaadb2addc3e52e868fcf3f4f8acf5a87e24300992fd4540c2a87eee5590517fc5069e24aaadb2addc3e52e868fcf3f4f8acf5a87e24300992fd4540c2a87eef5590517fc5069e24aaadb2addc3e52e868fcf3f4f8acf5a87e24300992fd4540c2a87ef055517fc5069e24aaadb2addc3e52e868fcf3f4f8acf5a87e24300992fd4540c2a87ef155565b62000ec062000dd862001aab565b60028152600f6020808301918252600a60408401908152600560608501818152600160808701908152600092909252600690935293517fbfd358e93f18da3ed276c3afdbdba00b8f0b6008a03476a6a86bd6320ee6938b5591517fbfd358e93f18da3ed276c3afdbdba00b8f0b6008a03476a6a86bd6320ee6938c5590517fbfd358e93f18da3ed276c3afdbdba00b8f0b6008a03476a6a86bd6320ee6938d55517fbfd358e93f18da3ed276c3afdbdba00b8f0b6008a03476a6a86bd6320ee6938e55517fbfd358e93f18da3ed276c3afdbdba00b8f0b6008a03476a6a86bd6320ee6938f55565b6200181662000ece62001aab565b60028152604b602080830182815260646040850181815260fa60608701818152608088019384526006600081905290955295517f697b2bd7bb2984c4e0dc14c79c987d37818484a62958b9c45a0e8b962f20650f5591517f697b2bd7bb2984c4e0dc14c79c987d37818484a62958b9c45a0e8b962f2065105590517f697b2bd7bb2984c4e0dc14c79c987d37818484a62958b9c45a0e8b962f2065115590517f697b2bd7bb2984c4e0dc14c79c987d37818484a62958b9c45a0e8b962f20651255517f697b2bd7bb2984c4e0dc14c79c987d37818484a62958b9c45a0e8b962f2065135590620010a262000fc162001aab565b60028152602080820185815260646040840181815260608501878152608086019283526007600052600690945293517f4ced6d0d36392b04cc5d8761b1327b3bbba6e1089c77f60a9a9ca18e05e4f00e5590517f4ced6d0d36392b04cc5d8761b1327b3bbba6e1089c77f60a9a9ca18e05e4f00f5591517f4ced6d0d36392b04cc5d8761b1327b3bbba6e1089c77f60a9a9ca18e05e4f01055517f4ced6d0d36392b04cc5d8761b1327b3bbba6e1089c77f60a9a9ca18e05e4f01155517f4ced6d0d36392b04cc5d8761b1327b3bbba6e1089c77f60a9a9ca18e05e4f01255565b62001191620010b062001aab565b60028152602080820185815260646040840181815260608501878152608086019283526008600052600690945293517fb8d683c9d414f481826f3e7fe14b3ac6ae8c73450778287390c4bb8cb9f2e80b5590517fb8d683c9d414f481826f3e7fe14b3ac6ae8c73450778287390c4bb8cb9f2e80c5591517fb8d683c9d414f481826f3e7fe14b3ac6ae8c73450778287390c4bb8cb9f2e80d55517fb8d683c9d414f481826f3e7fe14b3ac6ae8c73450778287390c4bb8cb9f2e80e55517fb8d683c9d414f481826f3e7fe14b3ac6ae8c73450778287390c4bb8cb9f2e80f55565b620012806200119f62001aab565b60028152602080820185815260646040840181815260608501878152608086019283526009600052600690945293517fca4d0c6c94a9477136dd41a99cc19ecbe441c8f6609efe7c6fa65be007a473235590517fca4d0c6c94a9477136dd41a99cc19ecbe441c8f6609efe7c6fa65be007a473245591517fca4d0c6c94a9477136dd41a99cc19ecbe441c8f6609efe7c6fa65be007a4732555517fca4d0c6c94a9477136dd41a99cc19ecbe441c8f6609efe7c6fa65be007a4732655517fca4d0c6c94a9477136dd41a99cc19ecbe441c8f6609efe7c6fa65be007a4732755565b6200136f6200128e62001aab565b6002815260208082018581526064604084018181526060850187815260808601928352600a600052600690945293517f4da38fc8e544afc56a4c2a17752b8ddb67d8e23ac4583c9029d2e2d1dbe6c9885590517f4da38fc8e544afc56a4c2a17752b8ddb67d8e23ac4583c9029d2e2d1dbe6c9895591517f4da38fc8e544afc56a4c2a17752b8ddb67d8e23ac4583c9029d2e2d1dbe6c98a55517f4da38fc8e544afc56a4c2a17752b8ddb67d8e23ac4583c9029d2e2d1dbe6c98b55517f4da38fc8e544afc56a4c2a17752b8ddb67d8e23ac4583c9029d2e2d1dbe6c98c55565b6200145e6200137d62001aab565b6002815260208082018581526064604084018181526060850187815260808601928352600b600052600690945293517f85291c2e7881182c13e19eca9b58927ebfdc2c5d04882018eeb33d8241d357115590517f85291c2e7881182c13e19eca9b58927ebfdc2c5d04882018eeb33d8241d357125591517f85291c2e7881182c13e19eca9b58927ebfdc2c5d04882018eeb33d8241d3571355517f85291c2e7881182c13e19eca9b58927ebfdc2c5d04882018eeb33d8241d3571455517f85291c2e7881182c13e19eca9b58927ebfdc2c5d04882018eeb33d8241d3571555565b6200154d6200146c62001aab565b6002815260208082018581526064604084018181526060850187815260808601928352600c600052600690945293517f0b94fa1b86997cc1f1148bfbe25b674e8cefc7cc6f976aa8d7c7966bd4cca3475590517f0b94fa1b86997cc1f1148bfbe25b674e8cefc7cc6f976aa8d7c7966bd4cca3485591517f0b94fa1b86997cc1f1148bfbe25b674e8cefc7cc6f976aa8d7c7966bd4cca34955517f0b94fa1b86997cc1f1148bfbe25b674e8cefc7cc6f976aa8d7c7966bd4cca34a55517f0b94fa1b86997cc1f1148bfbe25b674e8cefc7cc6f976aa8d7c7966bd4cca34b55565b6200163c6200155b62001aab565b6002815260208082018581526064604084018181526060850187815260808601928352600d600052600690945293517f248457bacb20e239ae314d8db91c0f270e453c28ee138c84f97aea6cfcf9a4995590517f248457bacb20e239ae314d8db91c0f270e453c28ee138c84f97aea6cfcf9a49a5591517f248457bacb20e239ae314d8db91c0f270e453c28ee138c84f97aea6cfcf9a49b55517f248457bacb20e239ae314d8db91c0f270e453c28ee138c84f97aea6cfcf9a49c55517f248457bacb20e239ae314d8db91c0f270e453c28ee138c84f97aea6cfcf9a49d55565b6200172b6200164a62001aab565b6002815260208082018581526064604084018181526060850187815260808601928352600e600052600690945293517faca6cdb4b5fe0ec50731a73f714dd191dc1911bfeb3f9eeb9e94ed0f6065ef8d5590517faca6cdb4b5fe0ec50731a73f714dd191dc1911bfeb3f9eeb9e94ed0f6065ef8e5591517faca6cdb4b5fe0ec50731a73f714dd191dc1911bfeb3f9eeb9e94ed0f6065ef8f55517faca6cdb4b5fe0ec50731a73f714dd191dc1911bfeb3f9eeb9e94ed0f6065ef9055517faca6cdb4b5fe0ec50731a73f714dd191dc1911bfeb3f9eeb9e94ed0f6065ef9155565b6200173562001aab565b6002815260208082019384526064604083018181526060840194855260808401918252600f600052600690925291517ff130046d53bc87538ab17e4752ba5f5082985eecc06ccb932c5a55e8242dd5025592517ff130046d53bc87538ab17e4752ba5f5082985eecc06ccb932c5a55e8242dd5035591517ff130046d53bc87538ab17e4752ba5f5082985eecc06ccb932c5a55e8242dd50455517ff130046d53bc87538ab17e4752ba5f5082985eecc06ccb932c5a55e8242dd50555517ff130046d53bc87538ab17e4752ba5f5082985eecc06ccb932c5a55e8242dd50655565b620018b16200182462001acb565b60128152600a6020808301918252602d604084019081526003600052600590915291517fa9bc9a3a348c357ba16b37005d7e6b3236198c0e939f4af8c5f19b8deeb8ebc055517fa9bc9a3a348c357ba16b37005d7e6b3236198c0e939f4af8c5f19b8deeb8ebc155517fa9bc9a3a348c357ba16b37005d7e6b3236198c0e939f4af8c5f19b8deeb8ebc255565b6200194c620018bf62001acb565b60128152600a6020808301918252605a604084019081526005600081905290915291517f458b30c2d72bfd2c6317304a4594ecbafe5f729d3111b65fdc3a33bd48e5432d55517f458b30c2d72bfd2c6317304a4594ecbafe5f729d3111b65fdc3a33bd48e5432e55517f458b30c2d72bfd2c6317304a4594ecbafe5f729d3111b65fdc3a33bd48e5432f55565b620019e86200195a62001acb565b60098152600a602080830191825261270f604084019081526007600052600590915291517feddb6698d7c569ff62ff64f1f1492bf14a54594835ba0faac91f84b4f5d8146055517feddb6698d7c569ff62ff64f1f1492bf14a54594835ba0faac91f84b4f5d8146155517feddb6698d7c569ff62ff64f1f1492bf14a54594835ba0faac91f84b4f5d8146255565b600360205260327fc3a24b0501bd2c13a7e57f2db4369ec4c223447539fc0724a9d55ac4a06ebd4d5560046000526101f47f83ec6a1f0257b830b5e016457c9cf1435391bf56cc98f369a58a54fe9377246555604051612bb5908162001b8a8239f35b60405162461bcd60e51b815260206004820152601360248201527f6f776e2e696e76616c69642e68657862617365000000000000000000000000006044820152606490fd5b600080fd5b634e487b7160e01b600052604160045260246000fd5b6040519060a082016001600160401b0381118382101762001a9557604052565b60405190606082016001600160401b0381118382101762001a9557604052565b6040519060e082016001600160401b0381118382101762001a95576040528160c06000918281528260208201528260408201528260608201528260808201528260a08201520152565b62001b3e62001acb565b90600082526000602083015260006040830152565b60405190608082016001600160401b0381118382101762001a95576040526000606083828152826020820152826040820152015256fe60806040526004361015610018575b361561001657005b005b60003560e01c80630609a0e31461040857806307175c831461040357806309307c62146103fe5780630b225f1a146103f95780630ea0d222146103f457806312065fe0146103ef57806314be92a5146103ea57806315a544ed146103e55780631605aed9146103e057806316f0115b146103db578063192b48ee146103d65780631ef6a864146103d15780631f185d16146103cc57806326c5adae146103c7578063298fc460146103c25780633688236d146103bd5780633b9b7955146103b85780634151331d146103b3578063438fe192146103ae57806344ec16bc146103a95780634b62954f146103a457806353423e861461039f578063541d76671461039a57806354541683146103955780635640dbfc14610390578063582003d11461038b578063592a02a8146103865780635962205f146103815780635a0e90381461037c57806363b2b474146103775780636b81c82f146103725780636c7deb5d1461036d5780636f092c5e146103685780637687e3711461036357806378ef376f1461035e5780637bc908c6146103595780638da5cb5b146103545780638e3719e71461034f57806391fc8aa81461034a5780639319d0b514610345578063991bf5cc146103405780639d80ab9b1461033b5780639eb8b44e14610336578063a19841dd14610331578063a1f7f5391461032c578063a88fcea614610327578063aebcd32a14610322578063af0b21d31461031d578063af48452614610318578063b49c064c14610313578063b85f1f8d1461030e578063b90306ad14610309578063bcf71cd814610304578063c54e44b0146102ff578063c5a136d4146102fa578063e01ad5fd146102f5578063e0a9bc2b146102f0578063eddd0d9c146102eb578063f27c35c6146102e6578063f2a6bbc7146102e1578063f4fe8e3c146102dc578063fc0e74d1146102d75763fdc10bc90361000e576120c1565b61209e565b611ff8565b611f55565b611e52565b611daf565b611d94565b611cfa565b611c0f565b611b6d565b611ac4565b611a08565b6119d6565b6119b3565b611982565b611964565b6118fc565b6118de565b611830565b6117f6565b611633565b6115b4565b6114bf565b61141c565b6113fe565b6113e0565b6113b9565b61139b565b6112f8565b611237565b61120b565b611168565b611091565b611055565b611023565b610fbb565b610e72565b610e27565b610dba565b610d9c565b610d2b565b610d0d565b610c64565b610bc1565b610ba3565b610b56565b610b2f565b610b11565b610a50565b61098f565b61087b565b6107bb565b610718565b6106c7565b6106a9565b61068b565b6105e8565b6105cc565b6105ae565b610590565b6104e7565b6104ca565b346104c55760203660031901126104c55761042961042461230d565b612807565b61043233612451565b801561044d575b61044290612852565b610016600435601755565b5060046001600160a01b036020816000541660405193848092630536340960e21b82525afa9081156104c05761044292600092610490575b501633149050610439565b6104b291925060203d81116104b9575b6104aa8183612229565b81019061224b565b9038610485565b503d6104a0565b612263565b600080fd5b346104c55760003660031901126104c55760208054604051908152f35b346104c55760403660031901126104c55761050361042461230d565b61050c33612451565b801561052d575b61051c90612852565b610016602435600435602255602355565b5060046001600160a01b036020816000541660405193848092630536340960e21b82525afa9081156104c05761051c92600092610570575b501633149050610513565b61058991925060203d81116104b9576104aa8183612229565b9038610565565b346104c55760003660031901126104c5576020602d54604051908152f35b346104c55760003660031901126104c5576020601e54604051908152f35b346104c55760003660031901126104c557602047604051908152f35b346104c55760203660031901126104c55761060461042461230d565b61060d33612451565b8015610628575b61061d90612852565b610016600435601e55565b5060046001600160a01b036020816000541660405193848092630536340960e21b82525afa9081156104c05761061d9260009261066b575b501633149050610614565b61068491925060203d81116104b9576104aa8183612229565b9038610660565b346104c55760003660031901126104c5576020602354604051908152f35b346104c55760003660031901126104c5576020602254604051908152f35b346104c55760003660031901126104c55760e0600754600854600954600a54600b5490600c5492600d5494604051968752602087015260408601526060850152608084015260a083015260c0820152f35b346104c55760203660031901126104c55761073461042461230d565b61073d33612451565b8015610758575b61074d90612852565b6100166004356128e3565b5060046001600160a01b036020816000541660405193848092630536340960e21b82525afa9081156104c05761074d9260009261079b575b501633149050610744565b6107b491925060203d81116104b9576104aa8183612229565b9038610790565b346104c55760a03660031901126104c5576107d761042461230d565b6107e033612451565b8015610807575b6107f090612852565b610016608435606435604435602435600435612a98565b5060046001600160a01b036020816000541660405193848092630536340960e21b82525afa9081156104c0576107f09260009261084a575b5016331490506107e7565b61086391925060203d81116104b9576104aa8183612229565b903861083f565b6001600160a01b038116036104c557565b346104c5576020806003193601126104c55760049081359061089c8261086a565b806108be6108b26000546001600160a01b031690565b6001600160a01b031690565b60405194858092634bf9c0ad60e11b82525afa9182156104c05761091261094c9361092e9261095e9660009261096c575b50610920906040519384918783019190916001600160a01b036020820193169052565b03601f198101845283612229565b6109286124fb565b906126dc565b919080610962575b61093f90612534565b80825183010191016122f8565b60405190151581529081906020820190565b0390f35b5081518114610936565b61092091925061098890863d88116104b9576104aa8183612229565b91906108ef565b346104c55760203660031901126104c557600460206001600160a01b0360005416604051928380926369e8d84b60e11b82525afa80156104c0576109f4610a189161095e93600091610a28575b506109e5612b0e565b906109ee612b26565b906127c9565b610a1360043591610a0e610a0960205461289d565b61289d565b612b5f565b6128d0565b6040519081529081906020820190565b610a40915060203d81116104b9576104aa8183612229565b386109dc565b801515036104c557565b346104c55760203660031901126104c557600435610a6d81610a46565b610a7861042461230d565b610a8133612451565b8015610aa7575b90610a9561001692612852565b60ff8019602e54169115151617602e55565b506001600160a01b039060046020836000541660405192838092630536340960e21b82525afa80156104c05761001693610a9592600092610af1575b503391161491925050610a88565b610b0a91925060203d81116104b9576104aa8183612229565b9038610ae3565b346104c55760003660031901126104c5576020601d54604051908152f35b346104c55760003660031901126104c55760206001600160a01b0360005416604051908152f35b346104c55760203660031901126104c55760043560005260056020526040600020805461095e60026001840154930154604051938493846040919493926060820195825260208201520152565b346104c55760003660031901126104c5576020601b54604051908152f35b346104c55760203660031901126104c557610bdd61042461230d565b610be633612451565b8015610c01575b610bf690612852565b610016600435601a55565b5060046001600160a01b036020816000541660405193848092630536340960e21b82525afa9081156104c057610bf692600092610c44575b501633149050610bed565b610c5d91925060203d81116104b9576104aa8183612229565b9038610c39565b346104c55760403660031901126104c557610c8061042461230d565b610c8933612451565b8015610caa575b610c9990612852565b610016602435600435601c55601d55565b5060046001600160a01b036020816000541660405193848092630536340960e21b82525afa9081156104c057610c9992600092610ced575b501633149050610c90565b610d0691925060203d81116104b9576104aa8183612229565b9038610ce2565b346104c55760003660031901126104c5576020601f54604051908152f35b346104c55760203660031901126104c557600460206001600160a01b0360005416604051928380926369e8d84b60e11b82525afa80156104c057610d80610a189161095e93600091610a2857506109e5612b0e565b6004356000526003602052610a0e610a0960406000205461289d565b346104c55760003660031901126104c5576020601a54604051908152f35b346104c55760003660031901126104c55760e060145460155460405191825260ff9081811615156020840152818160081c1615156040840152818160101c1615156060840152818160181c1615156080840152818160201c16151560a084015260281c16151560c0820152f35b346104c55760003660031901126104c557604060185460195482519182526020820152f35b60c09060031901126104c557600435906024359060443590606435906084359060a43590565b346104c557610e8036610e4c565b91610e8f61042496949661230d565b610e9833612451565b8015610f58575b610ea890612852565b6010841015610f14576100169560405195610ec287612198565b8652602086015260408501526060840152608083015260005260066020526040600020906080600491805184556020810151600185015560408101516002850155606081015160038501550151910155565b606460405162461bcd60e51b815260206004820152600d60248201527f696e76616c6964206c6576656c000000000000000000000000000000000000006044820152fd5b5060046001600160a01b036020816000541660405193848092630536340960e21b82525afa9081156104c057610ea892600092610f9b575b501633149050610e9f565b610fb491925060203d81116104b9576104aa8183612229565b9038610f90565b346104c55760203660031901126104c55760043560005260066020526040600020805461095e6001830154926002810154906004600382015491015491604051958695869192608093969594919660a084019784526020840152604083015260608201520152565b346104c55760003660031901126104c557600e54600f5460105460408051938452602084019290925290820152606090f35b346104c55760003660031901126104c5576020601854604051908152f35b60809060031901126104c55760043590602435906044359060643590565b346104c55761109f36611073565b926110ae61042493929361230d565b6110b733612451565b80156110ff575b906110ca600292612852565b6110d2612a51565b50600181146110ee575b146110e357005b601155601255601355005b82600e5583600f55846010556110dc565b506001600160a01b039060046020836000541660405192838092630536340960e21b82525afa80156104c0576002936110ca92600092611148575b5033911614919250506110be565b61116191925060203d81116104b9576104aa8183612229565b903861113a565b346104c55760203660031901126104c55761118461042461230d565b61118d33612451565b80156111a8575b61119d90612852565b610016600435601f55565b5060046001600160a01b036020816000541660405193848092630536340960e21b82525afa9081156104c05761119d926000926111eb575b501633149050611194565b61120491925060203d81116104b9576104aa8183612229565b90386111e0565b346104c55760203660031901126104c55760043560005260036020526020604060002054604051908152f35b346104c55760203660031901126104c55760043561125481610a46565b61125f61042461230d565b61126833612451565b801561128e575b9061127c61001692612852565b60ff8019601654169115151617601655565b506001600160a01b039060046020836000541660405192838092630536340960e21b82525afa80156104c0576100169361127c926000926112d8575b50339116149192505061126f565b6112f191925060203d81116104b9576104aa8183612229565b90386112ca565b346104c55760203660031901126104c55761131461042461230d565b61131d33612451565b8015611338575b61132d90612852565b610016600435602455565b5060046001600160a01b036020816000541660405193848092630536340960e21b82525afa9081156104c05761132d9260009261137b575b501633149050611324565b61139491925060203d81116104b9576104aa8183612229565b9038611370565b346104c55760003660031901126104c5576020602454604051908152f35b346104c55760003660031901126104c55760206001600160a01b0360015416604051908152f35b346104c55760003660031901126104c5576020601954604051908152f35b346104c55760003660031901126104c5576020602154604051908152f35b346104c55760203660031901126104c55761143861042461230d565b61144133612451565b801561145c575b61145190612852565b610016600435601b55565b5060046001600160a01b036020816000541660405193848092630536340960e21b82525afa9081156104c0576114519260009261149f575b501633149050611448565b6114b891925060203d81116104b9576104aa8183612229565b9038611494565b346104c55760e03660031901126104c5576024356114dc81610a46565b6044356114e881610a46565b6064356114f481610a46565b60843561150081610a46565b60a4359161150d83610a46565b60c4359361151a85610a46565b61152561042461230d565b61152e33612451565b801561154a575b9561154261001697612852565b6004356128f1565b506001600160a01b039560046020886000541660405192838092630536340960e21b82525afa80156104c0576100169861154292600092611594575b503391161491975050611535565b6115ad91925060203d81116104b9576104aa8183612229565b9038611586565b346104c55760003660031901126104c557602554602654602754602854604080519485526020850193909352918301526060820152608090f35b6102a0810192916000915b6007831061160657505050565b600190606083519182518152602092838101518483015260408091015190820152019201920191906115f9565b346104c55760003660031901126104c557604051611650816121b9565b60005b60e081106117e15761095e61166661226f565b6001600052600560205261169e7f1471eb6eb2c5e789fc3de43f8ce62938c7d1836ec861730447e2ada8fd81017b612a70565b612a70565b8152600260005260056020526116d37f89832631fb3c3307a103ba2c84ab569c64d6182a18893dcd163f0f1c2090733a612a70565b60208201526116f061169960036000526005602052604060002090565b6040820152600460005260056020526117287f3eec716f11ba9e820c81ca75eb978ffb45831ef8b7a53e5e422c26008e1ca6d5612a70565b6060820152600560008190526020526117607f458b30c2d72bfd2c6317304a4594ecbafe5f729d3111b65fdc3a33bd48e5432d612a70565b6080820152600660005260056020526117987f069400f22b28c6c362558d92f66163cec5671cba50b61abd2eecfcd0eaeac518612a70565b60a0820152600760005260056020526117d07feddb6698d7c569ff62ff64f1f1492bf14a54594835ba0faac91f84b4f5d81460612a70565b60c0820152604051918291826115ee565b6020906117ec612a51565b8184015201611653565b346104c55760003660031901126104c557602954602a54602b54602c54604080519485526020850193909352918301526060820152608090f35b346104c55760003660031901126104c557600460206001600160a01b03600054166040519283809263d1f956b160e01b82525afa9081156104c05761095e91610a18916000916118c0575b50604051611888816121f1565b601381527f67657464656c656761746f72436f756e7428290000000000000000000000000060208201526118ba61229a565b916127c9565b6118d8915060203d81116104b9576104aa8183612229565b3861187b565b346104c55760003660031901126104c5576020601c54604051908152f35b346104c55760203660031901126104c55760043560005260046020526040600020805461095e6001830154926002810154906004600382015491015491604051958695869192608093969594919660a084019784526020840152604083015260608201520152565b346104c55760003660031901126104c5576020601754604051908152f35b346104c55760203660031901126104c55760206119a96004356119a48161086a565b612451565b6040519015158152f35b346104c55760003660031901126104c557602060ff602e54166040519015158152f35b346104c55760003660031901126104c55760115460125460135460408051938452602084019290925290820152606090f35b346104c55760203660031901126104c55760046001600160a01b036020816000541660405193848092630536340960e21b82525afa9182156104c057600092611aa4575b5033911603611a60576100166004356125e8565b606460405162461bcd60e51b815260206004820152600f60248201527f6f776e2e6e6f6e617574682e44414f00000000000000000000000000000000006044820152fd5b611abd91925060203d81116104b9576104aa8183612229565b9038611a4c565b346104c55760403660031901126104c557611ae061042461230d565b611ae933612451565b8015611b0a575b611af990612852565b610016602435600435601855601955565b5060046001600160a01b036020816000541660405193848092630536340960e21b82525afa9081156104c057611af992600092611b4d575b501633149050611af0565b611b6691925060203d81116104b9576104aa8183612229565b9038611b42565b346104c55760203660031901126104c557600435611b8a8161086a565b803b6000611b978261227e565b92611ba56040519485612229565b82845260208401903c602d815110611bcb57602a015160405160609190911c8152602090f35b606460405162461bcd60e51b815260206004820152601360248201527f4e6f742061206d696e696d616c2070726f7879000000000000000000000000006044820152fd5b346104c557611c1d36611073565b90611c2c61042494939461230d565b611c3533612451565b8015611c91575b92611c48600294612852565b611c54600882106129ea565b60405194611c61866121d5565b85526020850191825260408501928352600052600560205260406000209351845551600184015551910155600080f35b506001600160a01b039260046020856000541660405192838092630536340960e21b82525afa80156104c057600295611c4892600092611cda575b503391161491945050611c3c565b611cf391925060203d81116104b9576104aa8183612229565b9038611ccc565b346104c5576020806003193601126104c55760048035611d198161086a565b6001600160a01b03928084600054166040519485809263d1f956b160e01b82525afa9081156104c05761095e9461094c94600093611d75575b506040519316818401528252611d67826121f1565b611d6f61257f565b9061278d565b611d8d919350823d84116104b9576104aa8183612229565b9138611d52565b346104c55760003660031901126104c55760206119a961230d565b346104c55760203660031901126104c557611dcb61042461230d565b611dd433612451565b8015611def575b611de490612852565b610016600435602055565b5060046001600160a01b036020816000541660405193848092630536340960e21b82525afa9081156104c057611de492600092611e32575b501633149050611ddb565b611e4b91925060203d81116104b9576104aa8183612229565b9038611e27565b346104c557611e6036610e4c565b91611e6f61042496949661230d565b611e7833612451565b8015611eeb575b95611e8c61001697612852565b60405195611e9987612198565b8652602086015260408501526060840152608083015260005260046020526040600020906080600491805184556020810151600185015560408101516002850155606081015160038501550151910155565b506001600160a01b039560046020886000541660405192838092630536340960e21b82525afa80156104c05761001698611e8c92600092611f35575b503391161491975050611e7f565b611f4e91925060203d81116104b9576104aa8183612229565b9038611f27565b346104c55760203660031901126104c557611f7161042461230d565b611f7a33612451565b8015611f95575b611f8a90612852565b610016600435602d55565b5060046001600160a01b036020816000541660405193848092630536340960e21b82525afa9081156104c057611f8a92600092611fd8575b501633149050611f81565b611ff191925060203d81116104b9576104aa8183612229565b9038611fcd565b346104c55760403660031901126104c55761201461042461230d565b61201d33612451565b801561203b575b61202d90612852565b610016602435600435612a35565b5060046001600160a01b036020816000541660405193848092630536340960e21b82525afa9081156104c05761202d9260009261207e575b501633149050612024565b61209791925060203d81116104b9576104aa8183612229565b9038612073565b346104c55760003660031901126104c557602060ff601654166040519015158152f35b346104c55760003660031901126104c557600460206001600160a01b0360005416604051928380927f447aa3040000000000000000000000000000000000000000000000000000000082525afa9081156104c05761095e91610a1891600091612164575b50604051612132816121f1565b600581527f616765282900000000000000000000000000000000000000000000000000000060208201526118ba61229a565b61217c915060203d81116104b9576104aa8183612229565b38612125565b634e487b7160e01b600052604160045260246000fd5b60a0810190811067ffffffffffffffff8211176121b457604052565b612182565b60e0810190811067ffffffffffffffff8211176121b457604052565b6060810190811067ffffffffffffffff8211176121b457604052565b6040810190811067ffffffffffffffff8211176121b457604052565b6020810190811067ffffffffffffffff8211176121b457604052565b90601f8019910116810190811067ffffffffffffffff8211176121b457604052565b908160209103126104c557516122608161086a565b90565b6040513d6000823e3d90fd5b6040519061227c826121b9565b565b67ffffffffffffffff81116121b457601f01601f191660200190565b604051906122a78261220d565b60008252565b156122b457565b606460405162461bcd60e51b815260206004820152601960248201527f6f776e2e7361666567756172642e63616c6c2e6661696c6564000000000000006044820152fd5b908160209103126104c5575161226081610a46565b6001600160a01b03600054166040518091634bf9c0ad60e11b825281600460209384935afa9182156104c05761226092612395916000916123b0575b50604051612356816121f1565b600881527f6973536166652829000000000000000000000000000000000000000000000000848201526040519161238c8361220d565b600083526126dc565b9190806123a6575b61093f906122ad565b508151811461239d565b6123c79150833d85116104b9576104aa8183612229565b38612349565b604051906123da826121f1565b601582527f69735365637572654261736528616464726573732900000000000000000000006020830152565b1561240d57565b606460405162461bcd60e51b815260206004820152601a60248201527f6f776e2e736563757265626173652e63616c6c2e6661696c65640000000000006044820152fd5b6000546001600160a01b0316604051918291634bf9c0ad60e11b835282600460209485935afa9283156104c057612260936124bd92610912926000926124d8575b506124b5906040519384918783019190916001600160a01b036020820193169052565b6109286123cd565b9190806124ce575b61093f90612406565b50815181146124c5565b6124b59192506124f490863d88116104b9576104aa8183612229565b9190612492565b60405190612508826121f1565b601182527f69735369676e65722861646472657373290000000000000000000000000000006020830152565b1561253b57565b606460405162461bcd60e51b815260206004820152601660248201527f6f776e2e7369676e65722e63616c6c2e6661696c6564000000000000000000006044820152fd5b6040519061258c826121f1565b601882527f697364656c656761746f724e6f646528616464726573732900000000000000006020830152565b3d156125e3573d906125c98261227e565b916125d76040519384612229565b82523d6000602084013e565b606090565b6000600460206001600160a01b03835416604051928380927f46f991ac0000000000000000000000000000000000000000000000000000000082525afa9081156104c05782848193829383916126be575b505af16126446125b8565b501561267a5760405190815233907fcdcc745fe377b103b45fa0cec23ae3ef93d6fc6a84a01f0d18c40b354dd1d5d890602090a2565b606460405162461bcd60e51b815260206004820152600f60248201527f6f776e2e6275726e2e6661696c656400000000000000000000000000000000006044820152fd5b6126d6915060203d81116104b9576104aa8183612229565b38612639565b9190823b15612774577fffffffff00000000000000000000000000000000000000000000000000000000815160208093012016916040519180830193845281519160005b83811061276057505050918161274d60248260009795968897018783820152036004810184520182612229565b5191620dbba0fa61275c6125b8565b9091565b818101830151858201602401528201612720565b5050506000906040516127868161220d565b6000815290565b929161279b916000946126dc565b90806127be575b6127a95750565b612260919250602080825183010191016122f8565b5060208151146127a2565b92916127d7916000946126dc565b90806127fc575b6127e55750565b9091506020818051810103126104c5576020015190565b5060208151146127de565b1561280e57565b606460405162461bcd60e51b815260206004820152601260248201527f6f776e2e696e76616c69642e69735361666500000000000000000000000000006044820152fd5b1561285957565b606460405162461bcd60e51b815260206004820152601b60248201527f6f776e2e6e6f6e617574682e44414f6f725365637572656261736500000000006044820152fd5b90670de0b6b3a7640000918281029281840414901517156128ba57565b634e487b7160e01b600052601160045260246000fd5b818102929181159184041417156128ba57565b6128ec9061289d565b602155565b6129c99461227c97946129626129aa9561298d9460c09a9660405190612916826121b9565b8282521515928360208301521515948560408301521515958660608301521515978860808301521515998a60a083015215159b8c91015260145560ff8019601554169115151617601555565b6015805462ffff00191660089290921b61ff00169190911791151560101b62ff000016919091179055565b63ff00000060155491151560181b169063ff000000191617601555565b64ff0000000060155491151560201b169064ff00000000191617601555565b65ff000000000060155491151560281b169065ff0000000000191617601555565b156129f157565b606460405162461bcd60e51b815260206004820152600c60248201527f696e76616c69642072616e6b00000000000000000000000000000000000000006044820152fd5b612a41600882106129ea565b6000526003602052604060002055565b60405190612a5e826121d5565b60006040838281528260208201520152565b90604051612a7d816121d5565b60406002829480548452600181015460208501520154910152565b60405190608082019180831067ffffffffffffffff8411176121b45760608791600294604052858152866020820152876040820152015260018114612af9575b14612ae4575b50505050565b602955602a55602b55602c5538808080612ade565b82602555836026558460275585602855612ad8565b604051612b1a8161220d565b60008152906000368137565b60405190612b33826121f1565b601282527f6f7a6f6e655072696365496e55534454282900000000000000000000000000006020830152565b8115612b69570490565b634e487b7160e01b600052601260045260246000fdfea2646970667358221220f93291fa5255e198e7bd7130a30b8874cfbfd26504ff53076c280aa606e599a464736f6c63430008140033","linkReferences":{}},"methodIdentifiers":{"rule741()":"0a5b38ab","transferRequest()":"3da8676f"},"id":70}