{"abi":[{"type":"constructor","inputs":[{"name":"_hex","type":"address","internalType":"address"}],"stateMutability":"nonpayable"},{"type":"function","name":"rule741","inputs":[],"outputs":[{"name":"","type":"address","internalType":"address"}],"stateMutability":"view"},{"type":"function","name":"transferRequest","inputs":[],"outputs":[{"name":"","type":"address","internalType":"address"}],"stateMutability":"view"}],"bytecode":{"object":"0x6080346200012d57601f62006aff38819003918201601f19168301926001600160401b0392909183851183861017620001175781602092849260409788528339810103126200012d57516001600160a01b0390818116908190036200012d5783519061442b9182810192818410868511176200011757620026d4823981835260208160009403019083f09384156200010d5782549484166001600160a01b03199586161783558551916124e88084019284841090841117620000f957918391602093620001ec8439815203019082f0908115620000ee5750169060015416176001555160b99081620001338239f35b8451903d90823e3d90fd5b634e487b7160e01b85526041600452602485fd5b85513d84823e3d90fd5b634e487b7160e01b600052604160045260246000fd5b600080fdfe6080806040526004361015601257600080fd5b600090813560e01c9081630a5b38ab14605d5750633da8676f14603457600080fd5b34605a5780600319360112605a576001546040516001600160a01b039091168152602090f35b80fd5b905034607f5781600319360112607f5790546001600160a01b03168152602090f35b5080fdfea26469706673582212208f2f87a7c38070ab3e7cffc6e1ff691bf8eebc2c544bfcb3d48cbd524bd303ba64736f6c634300081400336080346100ca57601f6124e838819003918201601f19168301916001600160401b038311848410176100cf578084926020946040528339810103126100ca57516001600160a01b038116908190036100ca5780156100855760018060a01b0319338160015416176001556000541617600055600160035560405161240290816100e68239f35b60405162461bcd60e51b815260206004820152601360248201527f6f776e2e696e76616c69642e68657862617365000000000000000000000000006044820152606490fd5b600080fd5b634e487b7160e01b600052604160045260246000fdfe60806040526004361015610018575b361561001657005b005b60003560e01c806312065fe0146101c857806313a52c8c146101c357806318c864e3146101be5780631f185d16146101b957806324480afe146101b45780633676bd1f146101af5780633b9b7955146101aa578063479fa2c3146101a557806349fbed12146101a05780634ef260a91461019b57806376e8217d146101965780638da5cb5b14610191578063a1f7f5391461018c578063ab7e46ae14610187578063ac23334514610182578063af4845261461017d578063b8f1759a14610178578063b90306ad14610173578063c1e6cec21461016e578063c54e44b014610169578063cab3cc8d14610164578063cb84b34b1461015f578063e01ad5fd1461015a578063e0a9bc2b14610155578063e846034a14610150578063fdc10bc91461014b5763ff585caf0361000e57610e9f565b610e7c565b610e5e565b610dbc565b610d1d565b610cc7565b610ca9565b610c10565b610bd3565b610acc565b610a71565b610a40565b610a07565b6109ac565b6108dd565b6108b4565b610842565b610782565b610653565b6105a2565b610579565b61054e565b610530565b61040b565b61037c565b610287565b346101e45760003660031901126101e457602047604051908152f35b600080fd5b6001600160a01b038116036101e457565b634e487b7160e01b600052604160045260246000fd5b6040810190811067ffffffffffffffff82111761022c57604052565b6101fa565b6020810190811067ffffffffffffffff82111761022c57604052565b90601f8019910116810190811067ffffffffffffffff82111761022c57604052565b67ffffffffffffffff811161022c5760051b60200190565b346101e45760403660031901126101e4576004356102a4816101e9565b60243567ffffffffffffffff81116101e457366023820112156101e45780600401356102cf8161026f565b916102dd604051938461024d565b81835260209160248385019160051b830101913683116101e457602401905b82821061030d576100168587610f17565b838091833561031b816101e9565b8152019101906102fc565b634e487b7160e01b600052603260045260246000fd5b600554811015610377576006906005600052027f036b6384b5eca791c62761152d0c79bb0604c104a5fb6f4eb0703f3154bb3db00190600090565b610326565b346101e45760203660031901126101e4576004356005548110156101e4576103a39061033c565b508054600182015460038301546004840154600590940154604080516001600160a01b03958616815294909316602085015260ff91821615159284019290925260608301939093528281161515608083015260081c909116151560a082015260c090f35b0390f35b346101e4576020806003193601126101e45760049081359061042c826101e9565b600054819061044b906001600160a01b03165b6001600160a01b031690565b604051634bf9c0ad60e11b815294859182905afa91821561052b576104a26104dc936104be92610407966000926104f8575b506040516001600160a01b0390911685820190815290926104b0918491602090910190565b03601f19810184528361024d565b6104b8611fe3565b906121a6565b9190806104ee575b6104cf90612010565b8082518301019101611ea6565b60405190151581529081906020820190565b50815181146104c6565b6104b091925061051d90863d8811610524575b610515818361024d565b81019061125c565b919061047d565b503d61050b565b611274565b346101e45760003660031901126101e4576020600754604051908152f35b346101e45760203660031901126101e457610567611cd7565b6105726004356118a4565b6001600355005b346101e45760003660031901126101e4576000546040516001600160a01b039091168152602090f35b346101e45760203660031901126101e45760043580151580610647575b6105c89061135f565b6000198101908111610642576105dd9061033c565b508054600182015460058301546003840154600490940154604080516001600160a01b03958616815294909316602085015260ff80831615159385019390935260089190911c82161515606084015292161515608082015260a081019190915260c090f35b611176565b506005548111156105bf565b346101e45760203660031901126101e45760043561066f611cd7565b61067c6064821115611609565b61068d61068830611f37565b611655565b6106ac6007916106a783546106a0612055565b1015611d76565b611db5565b9060005b82518110156106e5576106e0906106db6106d68454806106d08589611de7565b52611733565b600755565b611733565b6106b0565b6000548390600490602090610702906001600160a01b031661043f565b60405163ab6e844f60e01b815292839182905afa801561052b57610753926104a29260009261075e575b50604051637aefe0bb60e01b60208201529261074e9184919060248301611dfb565b612311565b506100166001600355565b61074e91925061077b9060203d811161052457610515818361024d565b919061072c565b346101e45760203660031901126101e45760043561079f816101e9565b6001600160a01b03166000818152600460205260408120549091906000198101908111610642576107d160059161033c565b500161010061ff00198254161790558082526004602052816040812055600654600160401b81101561022c576001810180600655811015610377577ff652222313e28459528d920b65115c16c04f3efc82aaedc97be59f3f377c0d3f0180546001600160a01b031916909117905580f35b346101e45760403660031901126101e457600435801515806108a8575b6108689061135f565b60001981019081116106425761088f61088260209261033c565b5060026024359101610994565b905460405160039290921b1c6001600160a01b03168152f35b5060055481111561085f565b346101e45760003660031901126101e4576001546040516001600160a01b039091168152602090f35b346101e45760003660031901126101e45760005460405163d1f956b160e01b815290602090829060049082906001600160a01b03165afa90811561052b576104079161096691600091610976575b5060405161093881610210565b601381527267657464656c656761746f72436f756e74282960681b60208201526109606113d6565b916122a4565b6040519081529081906020820190565b61098e915060203d811161052457610515818361024d565b3861092b565b80548210156103775760005260206000200190600090565b346101e45760203660031901126101e4576004356006548110156101e45760066000527ff652222313e28459528d920b65115c16c04f3efc82aaedc97be59f3f377c0d3f01546040516001600160a01b039091168152602090f35b346101e45760203660031901126101e4576020610a2e600435610a29816101e9565b611540565b6040516001600160a01b039091168152f35b346101e45760203660031901126101e4576020610a67600435610a62816101e9565b611f37565b6040519015158152f35b346101e45760203660031901126101e4576004356006548110156103775760066000527ff652222313e28459528d920b65115c16c04f3efc82aaedc97be59f3f377c0d3f01546040516001600160a01b039091168152602090f35b346101e4576020806003193601126101e45760043560018060a01b0391600092808454169060405191630536340960e21b83528383600481845afa92831561052b576004938593610b27928992610bb4575b50163314611321565b6040516311be646b60e21b815292839182905afa91821561052b57848085610b6695829583958492610b97575b50505af1610b6061210d565b5061213d565b60405190815233907fcdcc745fe377b103b45fa0cec23ae3ef93d6fc6a84a01f0d18c40b354dd1d5d890602090a280f35b610bad9250803d1061052457610515818361024d565b3880610b54565b610bcc919250853d871161052457610515818361024d565b9038610b1e565b346101e45760203660031901126101e457600435610bf0816101e9565b60018060a01b031660005260046020526020604060002054604051908152f35b346101e45760203660031901126101e457600435610c2d816101e9565b803b6000610c3a826113ba565b92610c48604051948561024d565b82845260208401903c602d815110610c6e57602a015160405160609190911c8152602090f35b60405162461bcd60e51b81526020600482015260136024820152724e6f742061206d696e696d616c2070726f787960681b6044820152606490fd5b346101e45760003660031901126101e4576020600554604051908152f35b346101e45760203660031901126101e45760043580151580610d11575b610ced9061135f565b6000198101908111610642576002610d0660209261033c565b500154604051908152f35b50600554811115610ce4565b346101e4576020806003193601126101e45760048035610d3c816101e9565b60005460405163d1f956b160e01b81526001600160a01b03949093909182918591829088165afa90811561052b57610407946104dc94600093610d9d575b506040519316818401528252610d8f82610210565b610d976120e0565b90612268565b610db5919350823d841161052457610515818361024d565b9138610d7a565b346101e45760003660031901126101e457600054604051634bf9c0ad60e11b8152906020908190839060049082906001600160a01b03165afa90811561052b57610e266104dc9261040794600091610e41575b50610e18611e36565b610e206113d6565b916121a6565b919080610e37575b6104cf90611e5a565b5081518114610e2e565b610e589150833d851161052457610515818361024d565b38610e0f565b346101e45760003660031901126101e4576020600654604051908152f35b346101e45760003660031901126101e4576020610e97612055565b604051908152f35b346101e45760203660031901126101e457600054604051630536340960e21b8152906001600160a01b03906020908390600490829085165afa90811561052b57610ef392600092610efe5750163314611321565b61001660043561143e565b610bcc91925060203d811161052457610515818361024d565b6001600160a01b038116156110ac57336000908152600460205260409020610f409054156110e6565b610f6b610f4b611127565b5080546001600160a01b0319166001600160a01b03909316929092178255565b6001810180546001600160a01b0319163317815591610fa490610f9260028401918261118c565b6001546001600160a01b031690611221565b60055460046040519182610fce60209263ff585caf60e01b84840152602483019190602083019252565b03610fe1601f199182810186528561024d565b6000548290610ff8906001600160a01b031661043f565b604051630536340960e21b815294859182905afa92831561052b57600494611066946110599361104d9360009261108b575b5060405163d3a3084960e01b8782015293919261074e92859130602484016112a3565b0390810184528361024d565b8051810182019101611312565b91015560055490546001600160a01b0316600090815260046020526040902055565b55565b61074e92506110a690873d891161052457610515818361024d565b9161102a565b60405162461bcd60e51b815260206004820152601260248201527137bbb7173232b330bab63a1739b2b73232b960711b6044820152606490fd5b156110ed57565b60405162461bcd60e51b815260206004820152601260248201527170726f706f7365722e746f2e65786973747360701b6044820152606490fd5b600554600160401b81101561022c576001810180600555811015610377576006906005600052027f036b6384b5eca791c62761152d0c79bb0604c104a5fb6f4eb0703f3154bb3db00190600090565b634e487b7160e01b600052601160045260246000fd5b81519167ffffffffffffffff831161022c57600160401b831161022c5781548383558084106111f8575b506111cb602080920192600052602060002090565b9060005b8481106111dd575050505050565b83516001600160a01b031683820155928101926001016111cf565b6000838152846020822092830192015b8281106112165750506111b6565b818155600101611208565b8054600160401b81101561022c5761123e91600182018155610994565b819291549060031b9160018060a01b03809116831b921b1916179055565b908160209103126101e45751611271816101e9565b90565b6040513d6000823e3d90fd5b60005b8381106112935750506000910152565b8181015183820152602001611283565b929160809060079260a08652600d60a08701526c2ab9b2b9102a3930b739b332b960991b60c087015260018060a01b031660208601526000604086015260e0606086015280518060e087015261130381610100936020858a019101611280565b601f8019910116850101930152565b908160209103126101e4575190565b1561132857565b60405162461bcd60e51b815260206004820152600f60248201526e6f776e2e6e6f6e617574682e44414f60881b6044820152606490fd5b1561136657565b60405162461bcd60e51b815260206004820152601760248201527f70726f706f7365722e696e76616c69642e666f726d69640000000000000000006044820152606490fd5b60001981019190821161064257565b67ffffffffffffffff811161022c57601f01601f191660200190565b604051906113e382610231565b60008252565b604051906113f682610210565b6012825271676574526573756c742875696e743235362960701b6020830152565b908160a09103126101e4578051916020820151916040810151916080606083015192015190565b801561153d5761145e6114639161145960055482111561135f565b6113ab565b61033c565b50600054611479906001600160a01b031661043f565b906040518092630536340960e21b825281600460209384935afa801561052b576114eb6005926114de6104a260039461151e98600091611520575b506114d060048901546040519384918783019190602083019252565b6114d86113e9565b9061217b565b8051810182019101611417565b858801805460ff19166004831460ff16179055935061150992505050565b101591019060ff801983541691151516179055565b565b6115379150843d861161052457610515818361024d565b386114b4565b50565b6001600160a01b03811660009081526004602052604090205480151590816115fc575b50156115f6576001600160a01b0316600090815260046020526040902061158e9061145e90546113ab565b50600381015460ff1690816115e0575b816115bf575b600091156115bb57546001600160a01b0316905090565b5090565b90506115da6115d6600583015460ff9060081c1690565b1590565b906115a4565b90506115f0600582015460ff1690565b9061159e565b50600090565b9050600554101538611563565b1561161057565b60405162461bcd60e51b815260206004820152601c60248201527f7574696c6974792e62617463682e6c696d69742e6578636565646564000000006044820152606490fd5b1561165c57565b60405162461bcd60e51b815260206004820152601760248201527f7574696c6974792e756e7365637572652e6661696c65640000000000000000006044820152606490fd5b6040516116ad81610231565b60008152906000368137565b604051906116c682610210565b600f82526e6765744e6f646573436f756e74282960881b6020830152565b156116eb57565b60405162461bcd60e51b81526020600482015260136024820152727574696c6974792e696d706f72742e646f6e6560681b6044820152606490fd5b9190820180921161064257565b60001981146106425760010190565b6040519061174f82610210565b601782527f6765744e6f64654279496e6465782875696e74323536290000000000000000006020830152565b1561178257565b60405162461bcd60e51b815260206004820152601660248201527570726f78792e696e76616c69642e696e7374616e636560501b6044820152606490fd5b604051906117cd82610210565b6013825272496e7374546f5573657228616464726573732960681b6020830152565b156117f657565b60405162461bcd60e51b815260206004820152601260248201527170726f78792e696e76616c69642e6e6f646560701b6044820152606490fd5b6040519061183d82610210565b601082526f6765744e6f646528616464726573732960801b6020830152565b519081151582036101e457565b908160a09103126101e4578051916020820151611885816101e9565b91604081015191611271608061189d6060850161185c565b930161185c565b6118b16064821115611609565b6118bd61068830611f37565b600080549091906118d6906001600160a01b031661043f565b6040805163111ea8c160e21b808252600495939092916020919082818981855afa801561052b57611920918791611cc0575b506119116116a1565b9061191a6116b9565b906122a4565b958615611cb657835183818a8163ab6e844f60e01b968782525afa90811561052b5761196b91611959918991611c9957506119116116a1565b91611965838a116116e4565b82611726565b96808811611c91575b505b868110611987575050505050505050565b855461199b906001600160a01b031661043f565b90845186815284818b81865afa92831561052b578a918994611c72575b506119f28751806119d0868a83019190602083019252565b03956119e4601f199788810184528361024d565b6119ec611742565b90612224565b6001600160a01b0390611a08818316151561177b565b87895180958c825281865afa93841561052b57818a8f968b8f94611a5f9592611c4d575b5091516001600160a01b0390931691830191825290611a579083906020015b038a810184528361024d565b6119ec6117c0565b92611a6d83851615156117ef565b888a5180968d825281845afa801561052b57611ae18f96611abf8f6001948f91978f9894611ad39592611c2c575b5091516001600160a01b0390921688830190815291929091611acb91849160200190565b038d810184528361024d565b6114d8611830565b848082518301019101611869565b5050509490941693611af48115156117ef565b148015611c23575b611ba6575b5050611b0d8280611cfa565b89548790611b23906001600160a01b031661043f565b8951948580928a82525afa801561052b57611b8095611b7a948c92611b85575b5089516350db85d160e01b8a8201526001600160a01b0393841660248201529390921660448401529061074e90836064810161104d565b50611733565b611976565b61074e9250611ba0908a3d8c1161052457610515818361024d565b91611b43565b8951948580928d82525afa92831561052b578c93611bf992611bed928d92611c00575b508a516001600160a01b039091168a82019081529092611a57918491602090910190565b0388810184528361024d565b8638611b01565b611a57919250611c1c908b3d8d1161052457610515818361024d565b9190611bc9565b50821515611afc565b611acb9250611c47908a3d8c1161052457610515818361024d565b91611a9b565b611a579250611c6b611a4b91833d851161052457610515818361024d565b9250611a2c565b611c8a919450863d881161052457610515818361024d565b92386119b8565b965038611974565b611cb09150863d881161052457610515818361024d565b38611908565b5050505050505050565b611cb09150843d861161052457610515818361024d565b600260035414611ce8576002600355565b604051633ee5aeb560e01b8152600490fd5b60055490600160401b82101561022c57611d1e610f4b83600160059501855561033c565b6001810180546001600160a01b0319166001600160a01b03851617905560038101600160ff1982541617905501600161ffff198254161790556110886005549160018060a01b03166000526004602052604060002090565b15611d7d57565b60405162461bcd60e51b815260206004820152601060248201526f7574696c6974792e6167652e646f6e6560801b6044820152606490fd5b90611dbf8261026f565b611dcc604051918261024d565b8281528092611ddd601f199161026f565b0190602036910137565b80518210156103775760209160051b010190565b6020908160408183019282815285518094520193019160005b828110611e22575050505090565b835185529381019392810192600101611e14565b60405190611e4382610210565b6008825267697353616665282960c01b6020830152565b15611e6157565b60405162461bcd60e51b815260206004820152601960248201527f6f776e2e7361666567756172642e63616c6c2e6661696c6564000000000000006044820152606490fd5b908160209103126101e4576112719061185c565b60405190611ec782610210565b601582527469735365637572654261736528616464726573732960581b6020830152565b15611ef257565b60405162461bcd60e51b815260206004820152601a60248201527f6f776e2e736563757265626173652e63616c6c2e6661696c65640000000000006044820152606490fd5b6000546001600160a01b0316604051918291634bf9c0ad60e11b835282600460209485935afa92831561052b5761127193611fa5926104a292600092611fc0575b506040516001600160a01b039091168582019081529092611f9d918491602090910190565b6104b8611eba565b919080611fb6575b6104cf90611eeb565b5081518114611fad565b611f9d919250611fdc90863d881161052457610515818361024d565b9190611f78565b60405190611ff082610210565b601182527069735369676e657228616464726573732960781b6020830152565b1561201757565b60405162461bcd60e51b81526020600482015260166024820152751bdddb8b9cda59db995c8b98d85b1b0b99985a5b195960521b6044820152606490fd5b60005460405163111ea8c160e21b815290602090829060049082906001600160a01b03165afa801561052b57611271916000916120c2575b5060405161209a81610210565b6005815264616765282960d81b6020820152604051916120b983610231565b600083526122a4565b6120da915060203d811161052457610515818361024d565b3861208d565b604051906120ed82610210565b6011825270697364656c656761746f724e6f6465282960781b6020830152565b3d15612138573d9061211e826113ba565b9161212c604051938461024d565b82523d6000602084013e565b606090565b1561214457565b60405162461bcd60e51b815260206004820152600f60248201526e1bdddb8b989d5c9b8b99985a5b1959608a1b6044820152606490fd5b9061218692916121a6565b9060009015612193575090565b60405191506121a182610231565b815290565b803b1561220b57600092839263ffffffff60e01b906020815191012016906121f860246040518093602082019586526121e88151809260208686019101611280565b810103600481018452018261024d565b5191620dbba0fa61220761210d565b9091565b50505060009060405161221d81610231565b6000815290565b9291612232916000946121a6565b908061225d575b6122405750565b9091506020818051810103126101e4576020015161043f816101e9565b506020815114612239565b9291612276916000946121a6565b9080612299575b6122845750565b61127191925060208082518301019101611ea6565b50602081511461227d565b92916122b2916000946121a6565b90806122d5575b6122c05750565b61127191925060208082518301019101611312565b5060208151146122b9565b906020825192015163ffffffff60e01b90818116936004811061230257505050565b60040360031b82901b16169150565b6001600160a01b0381161561239257600080918351908260208601915af19061233861210d565b9115612342575090565b80516000919060041161238c5761235991506122e0565b8151156123695750805190602001fd5b604051630870274d60e21b81526001600160e01b03199091166004820152602490fd5b50612359565b60405162461bcd60e51b81526020600482015260126024820152711bdddb8b9a5b9d985b1a590b9d185c99d95d60721b6044820152606490fdfea2646970667358221220ba9996847683ae07b46b7c6b8cdbad7bff7013c0c397bdbeb1427a96e876d89d64736f6c634300081400336080346200195557601f6200442b38819003918201601f19168301916001600160401b038311848410176200195a578084926020946040528339810103126200195557516001600160a01b0381169081900362001955578015620019105760018060a01b0319338160015416176001556000541617600055601e6025556001602655600160275560026028556103e8602955610258602a556003602b556019602c5568878678326eac900000602d55670de0b6b3a7640000602f5569021e19e0c9bab2400000603055600160315561014060325560a0603355600560345561025860c0620000ec620019f0565b6002815260646020820152600160408201526023606082015260646080820152600160a082015201526002600755606460085560016009556023600a556064600b556001600c55610258600d556200014362001970565b6002815261025860c06103f29283602082015260016040820152600b6060820152600a6080820152600160a082015201526002600e5580600f556001601055600b601155600a601255600160135561025860145561025860c0620001a662001970565b60028152836020820152600160408201526044606082015260646080820152600160a0820152015260026015556016556001601755604460185560646019556001601a55610258601b5560786040620001fe62001a25565b60198152600a602082015201526019601c55600a601d556078601e5560406200022662001a25565b600a8152600160208201526101689182910152600a601f556001602055602155600160c062000254620019f0565b600481528260208201528260408201528260608201528260808201528260a0820152015260046022556501010101010165ffffffffffff1960235416176023556200030a620002a262001990565b680821ab0d44149800008152601e60208083019182526001600052602e905290517f4e1bfaee23456dd6cf092fb5066e35933f450286bf7ee4d24ec3330c285e042155517f4e1bfaee23456dd6cf092fb5066e35933f450286bf7ee4d24ec3330c285e042255565b620003806200031862001990565b681043561a88293000008152601e60208083019182526002600052602e905290517fd94e2bcc6ed143dd333bd53f075a84d4f0c4906d562552f27ce799455ef3fbfe55517fd94e2bcc6ed143dd333bd53f075a84d4f0c4906d562552f27ce799455ef3fbff55565b620003f66200038e62001990565b682086ac3510526000008152601e60208083019182526003600052602e905290517f9195d495cacf52be485273f02d3734fd98a3782a837f8c47cb8eb6f21940a5b455517f9195d495cacf52be485273f02d3734fd98a3782a837f8c47cb8eb6f21940a5b555565b6200046c6200040462001990565b6830ca024f987b9000008152601e60208083019182526004600052602e905290517f5cde18e55ce81c08b9cd5550e62ab78f9cf8322cd1e8450162ad320300213e1055517f5cde18e55ce81c08b9cd5550e62ab78f9cf8322cd1e8450162ad320300213e1155565b620004e26200047a62001990565b685150ae84a8cdf000008152601e60208083019182526005600052602e905290517f3390e21c5e6493f95cabf8d53d3fcd6c294d36805c68a3e820e0999fed12367555517f3390e21c5e6493f95cabf8d53d3fcd6c294d36805c68a3e820e0999fed12367655565b62000558620004f062001990565b6871d75ab9b9205000008152601e60208083019182526006600052602e905290517ff7ff29c252773d06b0d3e0fc4b8fcea5da74f25b364cda586b7e40ecbb6e01da55517ff7ff29c252773d06b0d3e0fc4b8fcea5da74f25b364cda586b7e40ecbb6e01db55565b620005ce6200056662001990565b68a2a15d09519be000008152601e60208083019182526007600052602e905290517f192bdc05a7b013438e82d7997fc71a400da7596202a0b5448662f297c1b564e055517f192bdc05a7b013438e82d7997fc71a400da7596202a0b5448662f297c1b564e155565b6200063c620005dc62001990565b600781526019602080830191825260016000526003905290517fa15bc60c955c405d20d9149c709e2460f1c2d9a497496a7f46004d1772c3054c55517fa15bc60c955c405d20d9149c709e2460f1c2d9a497496a7f46004d1772c3054d55565b620006aa6200064a62001990565b600781526064602080830191825260026000526003905290517fc3a24b0501bd2c13a7e57f2db4369ec4c223447539fc0724a9d55ac4a06ebd4d55517fc3a24b0501bd2c13a7e57f2db4369ec4c223447539fc0724a9d55ac4a06ebd4e55565b62000719620006b862001990565b600781526101f4602080830191825260036000819052905290517fcbc4e5fb02c3d1de23a9f1e014b4d2ee5aeaea9505df5e855c9210bf472495af55517fcbc4e5fb02c3d1de23a9f1e014b4d2ee5aeaea9505df5e855c9210bf472495b055565b620007886200072762001990565b600781526107d0602080830191825260046000526003905290517f83ec6a1f0257b830b5e016457c9cf1435391bf56cc98f369a58a54fe9377246555517f83ec6a1f0257b830b5e016457c9cf1435391bf56cc98f369a58a54fe9377246655565b620007f76200079662001990565b60078152611388602080830191825260056000526003905290517f405aad32e1adbac89bb7f176e338b8fc6e994ca210c9bb7bdca249b46594225055517f405aad32e1adbac89bb7f176e338b8fc6e994ca210c9bb7bdca249b46594225155565b620008666200080562001990565b60078152612710602080830191825260066000526003905290517fc69056f16cbaa3c616b828e333ab7d3a32310765507f8f58359e99ebb7a885f355517fc69056f16cbaa3c616b828e333ab7d3a32310765507f8f58359e99ebb7a885f455565b620008d86200087462001990565b60078082526161a86020808401918252600092909252600390915290517ff2c49132ed1cee2a7e75bde50d332a2f81f1d01e5456d8a19d1df09bd561dbd255517ff2c49132ed1cee2a7e75bde50d332a2f81f1d01e5456d8a19d1df09bd561dbd355565b620008e2620019b0565b60008082526006602080840182815260016040860181815260056060880190815260808801838152929096529390925293517f3e5fec24aa4dc4e5aee2e025e51e1392c72a2500577559fae9665c6d52bd6a315592517f3e5fec24aa4dc4e5aee2e025e51e1392c72a2500577559fae9665c6d52bd6a3255517f3e5fec24aa4dc4e5aee2e025e51e1392c72a2500577559fae9665c6d52bd6a3355517f3e5fec24aa4dc4e5aee2e025e51e1392c72a2500577559fae9665c6d52bd6a3455517f3e5fec24aa4dc4e5aee2e025e51e1392c72a2500577559fae9665c6d52bd6a3555620009cd620019b0565b60018082526003602080840191825260408401838152600560608601908152608086019485526002600052600690925293517f8819ef417987f8ae7a81f42cdfb18815282fe989326fbff903d13cf0e03ace295590517f8819ef417987f8ae7a81f42cdfb18815282fe989326fbff903d13cf0e03ace2a5591517f8819ef417987f8ae7a81f42cdfb18815282fe989326fbff903d13cf0e03ace2b5590517f8819ef417987f8ae7a81f42cdfb18815282fe989326fbff903d13cf0e03ace2c55517f8819ef417987f8ae7a81f42cdfb18815282fe989326fbff903d13cf0e03ace2d5562000aba620019b0565b60028152600f6020808301918252600a604084019081526005606085019081526001608086019081526003600052600690935293517f75f96ab15d697e93042dc45b5c896c4b27e89bb6eaf39475c5c371cb2513f7d25591517f75f96ab15d697e93042dc45b5c896c4b27e89bb6eaf39475c5c371cb2513f7d35590517f75f96ab15d697e93042dc45b5c896c4b27e89bb6eaf39475c5c371cb2513f7d45590517f75f96ab15d697e93042dc45b5c896c4b27e89bb6eaf39475c5c371cb2513f7d555517f75f96ab15d697e93042dc45b5c896c4b27e89bb6eaf39475c5c371cb2513f7d65562000baa620019b0565b60028152600f6020808301918252600a604084019081526005606085019081526001608086019081526004600052600690935293517fc5069e24aaadb2addc3e52e868fcf3f4f8acf5a87e24300992fd4540c2a87eed5591517fc5069e24aaadb2addc3e52e868fcf3f4f8acf5a87e24300992fd4540c2a87eee5590517fc5069e24aaadb2addc3e52e868fcf3f4f8acf5a87e24300992fd4540c2a87eef5590517fc5069e24aaadb2addc3e52e868fcf3f4f8acf5a87e24300992fd4540c2a87ef055517fc5069e24aaadb2addc3e52e868fcf3f4f8acf5a87e24300992fd4540c2a87ef15562000c9a620019b0565b60028152600f6020808301918252600a60408401908152600560608501818152600160808701908152600092909252600690935293517fbfd358e93f18da3ed276c3afdbdba00b8f0b6008a03476a6a86bd6320ee6938b5591517fbfd358e93f18da3ed276c3afdbdba00b8f0b6008a03476a6a86bd6320ee6938c5590517fbfd358e93f18da3ed276c3afdbdba00b8f0b6008a03476a6a86bd6320ee6938d55517fbfd358e93f18da3ed276c3afdbdba00b8f0b6008a03476a6a86bd6320ee6938e55517fbfd358e93f18da3ed276c3afdbdba00b8f0b6008a03476a6a86bd6320ee6938f5562000d8a620019b0565b60028152604b602080830191825260646040840181815260fa60608601908152608086019283526006600081905290935293517f697b2bd7bb2984c4e0dc14c79c987d37818484a62958b9c45a0e8b962f20650f5591517f697b2bd7bb2984c4e0dc14c79c987d37818484a62958b9c45a0e8b962f2065105591517f697b2bd7bb2984c4e0dc14c79c987d37818484a62958b9c45a0e8b962f2065115590517f697b2bd7bb2984c4e0dc14c79c987d37818484a62958b9c45a0e8b962f20651255517f697b2bd7bb2984c4e0dc14c79c987d37818484a62958b9c45a0e8b962f2065135562000e78620019b0565b60028152604b602080830191825260646040840181815260fa60608601908152608086019283526007600052600690935293517f4ced6d0d36392b04cc5d8761b1327b3bbba6e1089c77f60a9a9ca18e05e4f00e5591517f4ced6d0d36392b04cc5d8761b1327b3bbba6e1089c77f60a9a9ca18e05e4f00f5591517f4ced6d0d36392b04cc5d8761b1327b3bbba6e1089c77f60a9a9ca18e05e4f0105590517f4ced6d0d36392b04cc5d8761b1327b3bbba6e1089c77f60a9a9ca18e05e4f01155517f4ced6d0d36392b04cc5d8761b1327b3bbba6e1089c77f60a9a9ca18e05e4f0125562000f66620019b0565b60028152604b602080830191825260646040840181815260fa60608601908152608086019283526008600052600690935293517fb8d683c9d414f481826f3e7fe14b3ac6ae8c73450778287390c4bb8cb9f2e80b5591517fb8d683c9d414f481826f3e7fe14b3ac6ae8c73450778287390c4bb8cb9f2e80c5591517fb8d683c9d414f481826f3e7fe14b3ac6ae8c73450778287390c4bb8cb9f2e80d5590517fb8d683c9d414f481826f3e7fe14b3ac6ae8c73450778287390c4bb8cb9f2e80e55517fb8d683c9d414f481826f3e7fe14b3ac6ae8c73450778287390c4bb8cb9f2e80f5562001054620019b0565b60028152604b602080830191825260646040840181815260fa60608601908152608086019283526009600052600690935293517fca4d0c6c94a9477136dd41a99cc19ecbe441c8f6609efe7c6fa65be007a473235591517fca4d0c6c94a9477136dd41a99cc19ecbe441c8f6609efe7c6fa65be007a473245591517fca4d0c6c94a9477136dd41a99cc19ecbe441c8f6609efe7c6fa65be007a473255590517fca4d0c6c94a9477136dd41a99cc19ecbe441c8f6609efe7c6fa65be007a4732655517fca4d0c6c94a9477136dd41a99cc19ecbe441c8f6609efe7c6fa65be007a473275562001142620019b0565b60028152604b602080830191825260646040840181815260fa6060860190815260808601928352600a600052600690935293517f4da38fc8e544afc56a4c2a17752b8ddb67d8e23ac4583c9029d2e2d1dbe6c9885591517f4da38fc8e544afc56a4c2a17752b8ddb67d8e23ac4583c9029d2e2d1dbe6c9895591517f4da38fc8e544afc56a4c2a17752b8ddb67d8e23ac4583c9029d2e2d1dbe6c98a5590517f4da38fc8e544afc56a4c2a17752b8ddb67d8e23ac4583c9029d2e2d1dbe6c98b55517f4da38fc8e544afc56a4c2a17752b8ddb67d8e23ac4583c9029d2e2d1dbe6c98c5562001230620019b0565b60028152604b602080830191825260646040840181815260fa6060860190815260808601928352600b600052600690935293517f85291c2e7881182c13e19eca9b58927ebfdc2c5d04882018eeb33d8241d357115591517f85291c2e7881182c13e19eca9b58927ebfdc2c5d04882018eeb33d8241d357125591517f85291c2e7881182c13e19eca9b58927ebfdc2c5d04882018eeb33d8241d357135590517f85291c2e7881182c13e19eca9b58927ebfdc2c5d04882018eeb33d8241d3571455517f85291c2e7881182c13e19eca9b58927ebfdc2c5d04882018eeb33d8241d35715556200131e620019b0565b60028152604b602080830191825260646040840181815260fa6060860190815260808601928352600c600052600690935293517f0b94fa1b86997cc1f1148bfbe25b674e8cefc7cc6f976aa8d7c7966bd4cca3475591517f0b94fa1b86997cc1f1148bfbe25b674e8cefc7cc6f976aa8d7c7966bd4cca3485591517f0b94fa1b86997cc1f1148bfbe25b674e8cefc7cc6f976aa8d7c7966bd4cca3495590517f0b94fa1b86997cc1f1148bfbe25b674e8cefc7cc6f976aa8d7c7966bd4cca34a55517f0b94fa1b86997cc1f1148bfbe25b674e8cefc7cc6f976aa8d7c7966bd4cca34b556200140c620019b0565b60028152604b602080830191825260646040840181815260fa6060860190815260808601928352600d600052600690935293517f248457bacb20e239ae314d8db91c0f270e453c28ee138c84f97aea6cfcf9a4995591517f248457bacb20e239ae314d8db91c0f270e453c28ee138c84f97aea6cfcf9a49a5591517f248457bacb20e239ae314d8db91c0f270e453c28ee138c84f97aea6cfcf9a49b5590517f248457bacb20e239ae314d8db91c0f270e453c28ee138c84f97aea6cfcf9a49c55517f248457bacb20e239ae314d8db91c0f270e453c28ee138c84f97aea6cfcf9a49d55620014fa620019b0565b60028152604b602080830191825260646040840181815260fa6060860190815260808601928352600e600052600690935293517faca6cdb4b5fe0ec50731a73f714dd191dc1911bfeb3f9eeb9e94ed0f6065ef8d5591517faca6cdb4b5fe0ec50731a73f714dd191dc1911bfeb3f9eeb9e94ed0f6065ef8e5591517faca6cdb4b5fe0ec50731a73f714dd191dc1911bfeb3f9eeb9e94ed0f6065ef8f5590517faca6cdb4b5fe0ec50731a73f714dd191dc1911bfeb3f9eeb9e94ed0f6065ef9055517faca6cdb4b5fe0ec50731a73f714dd191dc1911bfeb3f9eeb9e94ed0f6065ef9155620015e8620019b0565b60028152604b602080830191825260646040840181815260fa6060860190815260808601928352600f600052600690935293517ff130046d53bc87538ab17e4752ba5f5082985eecc06ccb932c5a55e8242dd5025591517ff130046d53bc87538ab17e4752ba5f5082985eecc06ccb932c5a55e8242dd5035591517ff130046d53bc87538ab17e4752ba5f5082985eecc06ccb932c5a55e8242dd5045590517ff130046d53bc87538ab17e4752ba5f5082985eecc06ccb932c5a55e8242dd50555517ff130046d53bc87538ab17e4752ba5f5082985eecc06ccb932c5a55e8242dd5065562001767620016da620019d0565b60128152600a6020808301918252602d604084019081526003600052600490915291517f2e174c10e159ea99b867ce3205125c24a42d128804e4070ed6fcc8cc98166aa055517f2e174c10e159ea99b867ce3205125c24a42d128804e4070ed6fcc8cc98166aa155517f2e174c10e159ea99b867ce3205125c24a42d128804e4070ed6fcc8cc98166aa255565b6200180262001775620019d0565b60128152600a6020808301918252605a604084019081526005600052600490915291517f04cde762ef08b6b6c5ded8e8c4c0b3f4e5c9ad7342c88fcc93681b4588b73f0555517f04cde762ef08b6b6c5ded8e8c4c0b3f4e5c9ad7342c88fcc93681b4588b73f0655517f04cde762ef08b6b6c5ded8e8c4c0b3f4e5c9ad7342c88fcc93681b4588b73f0755565b6200189e62001810620019d0565b60098152600a602080830191825261270f604084019081526007600052600490915291517fbeb3bad75134cb432e5707980e3245c52c5998a1125ee30f2f0dbf3925b1e55155517fbeb3bad75134cb432e5707980e3245c52c5998a1125ee30f2f0dbf3925b1e55255517fbeb3bad75134cb432e5707980e3245c52c5998a1125ee30f2f0dbf3925b1e55355565b60056020526802b5e3af16b18800007f89832631fb3c3307a103ba2c84ab569c64d6182a18893dcd163f0f1c2090733a556004600052683635c9adc5dea000007f3eec716f11ba9e820c81ca75eb978ffb45831ef8b7a53e5e422c26008e1ca6d5556040516129e6908162001a458239f35b60405162461bcd60e51b815260206004820152601360248201527f6f776e2e696e76616c69642e68657862617365000000000000000000000000006044820152606490fd5b600080fd5b634e487b7160e01b600052604160045260246000fd5b6040519060e082016001600160401b038111838210176200195a57604052565b60408051919082016001600160401b038111838210176200195a57604052565b6040519060a082016001600160401b038111838210176200195a57604052565b60405190606082016001600160401b038111838210176200195a57604052565b620019fa62001970565b9060008083528060208401528060408401528060608401528060808401528060a084015260c0830152565b62001a2f620019d0565b9060008252600060208301526000604083015256fe60806040526004361015610018575b361561001657005b005b60003560e01c806307175c83146103b857806309307c62146103b35780630b225f1a146103ae5780630ea0d222146103a957806311df44db146103a457806312065fe01461039f57806314be92a51461039a57806316f0115b14610395578063192b48ee146103905780631f185d161461038b57806326c5adae14610386578063298fc460146103815780633688236d1461037c5780633b9b7955146103775780634151331d14610372578063438fe1921461036d57806343c06bc41461036857806344ec16bc146103635780634b62954f1461035e5780634dd4396c1461035957806353423e8614610354578063545416831461034f5780635640dbfc1461034a578063592a02a8146103455780635962205f146103405780635a0e90381461033b5780636b81c82f146103365780636c7deb5d146103315780636f092c5e1461032c5780637687e3711461032757806388ed3bb5146103225780638da5cb5b1461031d57806391fc8aa8146103185780639319d0b514610313578063991bf5cc1461030e5780639ce7ce0f146103095780639eb8b44e14610304578063a1f7f539146102ff578063a88fcea6146102fa578063a9df70b9146102f5578063ace71f48146102f0578063aebcd32a146102eb578063af0b21d3146102e6578063af484526146102e1578063b49c064c146102dc578063b5939a37146102d7578063b85f1f8d146102d2578063b90306ad146102cd578063c54e44b0146102c8578063c5a136d4146102c3578063e01ad5fd146102be578063e0a9bc2b146102b9578063e2a1f69a146102b4578063eddd0d9c146102af578063f2a6bbc7146102aa578063f4fe8e3c146102a5578063fc0e74d1146102a05763fdc10bc90361000e57611e5c565b611e39565b611d8f565b611ce8565b611c41565b611be9565b611bce565b611b2f565b611a41565b6119a8565b6118f5565b6118c3565b6118a5565b611882565b611851565b611833565b6117ee565b611747565b61169a565b61167c565b6115d5565b611412565b611310565b611218565b611171565b611153565b61112a565b61110c565b611048565b61101c565b610f75565b610e9b565b610e4b565b610df3565b610d3d565b610cd0565b610cb2565b610c94565b610c4f565b610ba2565b610afb565b610a4e565b610a30565b6109e3565b6109ba565b61099c565b6108d8565b61080c565b61070d565b610655565b6105fd565b610556565b61053a565b6104de565b6104c0565b6104a2565b6103db565b346103d65760003660031901126103d6576020602c54604051908152f35b600080fd5b346103d65760403660031901126103d6576103fc6103f761205f565b6124ea565b6104053361218a565b8015610426575b6104159061252b565b610016602435600435602f55603055565b50600054604051630536340960e21b8152906001600160a01b03906020908390600490829085165afa90811561049d576104159260009261046d575b50163314905061040c565b61048f91925060203d8111610496575b6104878183611f7a565b810190611f9c565b9038610462565b503d61047d565b611fb4565b346103d65760003660031901126103d6576020603454604051908152f35b346103d65760003660031901126103d6576020602a54604051908152f35b346103d65760003660031901126103d657600e54600f54601054601154601254601354601454604080519788526020880196909652948601939093526060850191909152608084015260a083015260c082015260e090f35b0390f35b346103d65760003660031901126103d657602047604051908152f35b346103d65760203660031901126103d6576105726103f761205f565b61057b3361218a565b8015610596575b61058b9061252b565b610016600435602a55565b50600054604051630536340960e21b8152906001600160a01b03906020908390600490829085165afa90811561049d5761058b926000926105dd575b501633149050610582565b6105f691925060203d8111610496576104878183611f7a565b90386105d2565b346103d65760003660031901126103d657600754600854600954600a54600b54600c54600d54604080519788526020880196909652948601939093526060850191909152608084015260a083015260c082015260e090f35b346103d65760203660031901126103d6576106716103f761205f565b61067a3361218a565b8015610695575b61068a9061252b565b6100166004356125bd565b50600054604051630536340960e21b8152906001600160a01b03906020908390600490829085165afa90811561049d5761068a926000926106dc575b501633149050610681565b6106f591925060203d8111610496576104878183611f7a565b90386106d1565b6001600160a01b038116036103d657565b346103d6576020806003193601126103d65760049081359061072e826106fc565b60005481906001600160a01b0316604051634bf9c0ad60e11b815294859182905afa91821561049d576107936107cd936107af92610536966000926107e9575b506040516001600160a01b0390911685820190815290926107a1918491602090910190565b03601f198101845283611f7a565b6107a9612236565b906123d6565b9190806107df575b6107c090612263565b808251830101910161204a565b60405190151581529081906020820190565b50815181146107b7565b6107a191925061080590863d8811610496576104878183611f7a565b919061076e565b346103d65760203660031901126103d6576000546040516369e8d84b60e11b815290602090829060049082906001600160a01b03165afa801561049d5761087c6108a091610536936000916108b0575b506040519061086a82611f42565b60008252610876612962565b906124ac565b61089b60043591610896610891602c54612577565b612577565b612990565b6125aa565b6040519081529081906020820190565b6108c8915060203d8111610496576104878183611f7a565b3861085c565b801515036103d657565b346103d65760203660031901126103d6576004356108f5816108ce565b6109006103f761205f565b6109093361218a565b801561092f575b9061091d6100169261252b565b60ff8019603554169115151617603555565b50600054604051630536340960e21b81526001600160a01b0392916020908290600490829087165afa801561049d576100169361091d9260009261097c575b503391161491925050610910565b61099591925060203d8111610496576104878183611f7a565b903861096e565b346103d65760003660031901126103d6576020602954604051908152f35b346103d65760003660031901126103d6576000546040516001600160a01b039091168152602090f35b346103d65760203660031901126103d65760043560005260046020526040600020805461053660026001840154930154604051938493846040919493926060820195825260208201520152565b346103d65760003660031901126103d6576020602754604051908152f35b346103d65760603660031901126103d657610a6a6103f761205f565b610a733361218a565b8015610a94575b610a839061252b565b6100166044356024356004356126c6565b50600054604051630536340960e21b8152906001600160a01b03906020908390600490829085165afa90811561049d57610a8392600092610adb575b501633149050610a7a565b610af491925060203d8111610496576104878183611f7a565b9038610ad0565b346103d65760203660031901126103d657610b176103f761205f565b610b203361218a565b8015610b3b575b610b309061252b565b610016600435602655565b50600054604051630536340960e21b8152906001600160a01b03906020908390600490829085165afa90811561049d57610b3092600092610b82575b501633149050610b27565b610b9b91925060203d8111610496576104878183611f7a565b9038610b77565b346103d65760403660031901126103d657610bbe6103f761205f565b610bc73361218a565b8015610be8575b610bd79061252b565b610016602435600435602855602955565b50600054604051630536340960e21b8152906001600160a01b03906020908390600490829085165afa90811561049d57610bd792600092610c2f575b501633149050610bce565b610c4891925060203d8111610496576104878183611f7a565b9038610c24565b346103d65760203660031901126103d657600435600052602e602052604060002060018154910154906105366040519283928360209093929193604081019481520152565b346103d65760003660031901126103d6576020602b54604051908152f35b346103d65760003660031901126103d6576020602654604051908152f35b346103d65760003660031901126103d65760e060225460235460405191825260ff9081811615156020840152818160081c1615156040840152818160101c1615156060840152818160181c1615156080840152818160201c16151560a084015260281c16151560c0820152f35b346103d65760c03660031901126103d657610d596103f761205f565b610d623361218a565b8015610d8c575b610d729061252b565b61001660a4356084356064356044356024356004356125cb565b50600054604051630536340960e21b8152906001600160a01b03906020908390600490829085165afa90811561049d57610d7292600092610dd3575b501633149050610d69565b610dec91925060203d8111610496576104878183611f7a565b9038610dc8565b346103d65760203660031901126103d657600435600052600660205260a06040600020805490600181015490600281015460046003830154920154926040519485526020850152604084015260608301526080820152f35b346103d65760003660031901126103d657601c54601d54601e5460408051938452602084019290925290820152606090f35b60809060031901126103d65760043590602435906044359060643590565b346103d657610ea936610e7d565b92610eb86103f793929361205f565b610ec13361218a565b8015610f09575b90610ed460029261252b565b610edc61280e565b5060018114610ef8575b14610eed57005b601f55602055602155005b82601c5583601d5584601e55610ee6565b50600054604051630536340960e21b81526001600160a01b0392916020908290600490829087165afa801561049d57600293610ed492600092610f55575b503391161491925050610ec8565b610f6e91925060203d8111610496576104878183611f7a565b9038610f47565b346103d65760203660031901126103d657610f916103f761205f565b610f9a3361218a565b8015610fb5575b610faa9061252b565b610016600435602b55565b50600054604051630536340960e21b8152906001600160a01b03906020908390600490829085165afa90811561049d57610faa92600092610ffc575b501633149050610fa1565b61101591925060203d8111610496576104878183611f7a565b9038610ff1565b346103d65760203660031901126103d65760043560005260056020526020604060002054604051908152f35b346103d65760203660031901126103d657600435611065816108ce565b6110706103f761205f565b6110793361218a565b801561109f575b9061108d6100169261252b565b60ff8019602454169115151617602455565b50600054604051630536340960e21b81526001600160a01b0392916020908290600490829087165afa801561049d576100169361108d926000926110ec575b503391161491925050611080565b61110591925060203d8111610496576104878183611f7a565b90386110de565b346103d65760003660031901126103d6576020603254604051908152f35b346103d65760003660031901126103d6576001546040516001600160a01b039091168152602090f35b346103d65760003660031901126103d6576020602d54604051908152f35b346103d65760203660031901126103d65761118d6103f761205f565b6111963361218a565b80156111b1575b6111a69061252b565b610016600435602755565b50600054604051630536340960e21b8152906001600160a01b03906020908390600490829085165afa90811561049d576111a6926000926111f8575b50163314905061119d565b61121191925060203d8111610496576104878183611f7a565b90386111ed565b346103d65760e03660031901126103d657602435611235816108ce565b604435611241816108ce565b60643561124d816108ce565b608435611259816108ce565b60a43591611266836108ce565b60c43593611273856108ce565b61127e6103f761205f565b6112873361218a565b80156112a3575b9561129b6100169761252b565b600435612715565b50600054604051630536340960e21b81526001600160a01b039791602090829060049082908c165afa801561049d576100169861129b926000926112f0575b50339116149197505061128e565b61130991925060203d8111610496576104878183611f7a565b90386112e2565b346103d6576101003660031901126103d65761132d6103f761205f565b6113363361218a565b8015611366575b6113469061252b565b61001660e43560c43560a435608435606435604435602435600435612871565b50600054604051630536340960e21b8152906001600160a01b03906020908390600490829085165afa90811561049d57611346926000926113ad575b50163314905061133d565b6113c691925060203d8111610496576104878183611f7a565b90386113a2565b6102a0810192916000915b600783106113e557505050565b600190606083519182518152602092838101518483015260408091015190820152019201920191906113d8565b346103d65760003660031901126103d65760405161142f81611f05565b60005b60e081106115c057610536611445611fc0565b6001600052600460205261147d7fabd6e7cb50984ff9c2f3e18a2660c3353dadf4e3291deeb275dae2cd1e44fe0561282d565b61282d565b8152600260005260046020526114b27f91da3fd0782e51c6b3986e9e672fd566868e71f3dbc2d6c2cd6fbb3e361af2a761282d565b60208201526114cf61147860036000526004602052604060002090565b6040820152600460008190526020526115077f1a1e6821cde7d0159c0d293177871e09677b4e42307c7db3ba94f8648a5a050f61282d565b60608201526005600052600460205261153f7f04cde762ef08b6b6c5ded8e8c4c0b3f4e5c9ad7342c88fcc93681b4588b73f0561282d565b6080820152600660005260046020526115777fc59312466997bb42aaaf719ece141047820e6b34531e1670dc1852a453648f0f61282d565b60a0820152600760005260046020526115af7fbeb3bad75134cb432e5707980e3245c52c5998a1125ee30f2f0dbf3925b1e55161282d565b60c0820152604051918291826113cd565b6020906115cb61280e565b8184015201611432565b346103d65760003660031901126103d65760005460405163d1f956b160e01b815290602090829060049082906001600160a01b03165afa90811561049d57610536916108a09160009161165e575b5060405161163081611f5e565b601381527267657464656c656761746f72436f756e74282960681b6020820152611658611feb565b916124ac565b611676915060203d8111610496576104878183611f7a565b38611623565b346103d65760003660031901126103d6576020602854604051908152f35b346103d65760403660031901126103d6576116b66103f761205f565b6116bf3361218a565b80156116e0575b6116cf9061252b565b610016602435600435603255603355565b50600054604051630536340960e21b8152906001600160a01b03906020908390600490829085165afa90811561049d576116cf92600092611727575b5016331490506116c6565b61174091925060203d8111610496576104878183611f7a565b903861171c565b346103d65760203660031901126103d6576117636103f761205f565b61176c3361218a565b8015611787575b61177c9061252b565b610016600435603155565b50600054604051630536340960e21b8152906001600160a01b03906020908390600490829085165afa90811561049d5761177c926000926117ce575b501633149050611773565b6117e791925060203d8111610496576104878183611f7a565b90386117c3565b346103d65760203660031901126103d6576004356000526003602052604060002060018154910154906105366040519283928360209093929193604081019481520152565b346103d65760003660031901126103d6576020602554604051908152f35b346103d65760203660031901126103d6576020611878600435611873816106fc565b61218a565b6040519015158152f35b346103d65760003660031901126103d657602060ff603554166040519015158152f35b346103d65760003660031901126103d6576020603354604051908152f35b346103d65760003660031901126103d657601f5460208054602154604080519485529284019190915290820152606090f35b346103d65760203660031901126103d657600054604051630536340960e21b8152906001600160a01b03906020908390600490829085165afa91821561049d57600092611988575b503391160361195157610016600435612305565b60405162461bcd60e51b815260206004820152600f60248201526e6f776e2e6e6f6e617574682e44414f60881b6044820152606490fd5b6119a191925060203d8111610496576104878183611f7a565b903861193d565b346103d65760203660031901126103d6576004356119c5816106fc565b803b60006119d282611fcf565b926119e06040519485611f7a565b82845260208401903c602d815110611a0657602a015160405160609190911c8152602090f35b60405162461bcd60e51b81526020600482015260136024820152724e6f742061206d696e696d616c2070726f787960681b6044820152606490fd5b346103d657611a4f36610e7d565b90611a5e6103f794939461205f565b611a673361218a565b8015611ac3575b92611a7a60029461252b565b611a866008821061268b565b60405194611a9386611f26565b85526020850191825260408501928352600052600460205260406000209351845551600184015551910155600080f35b50600054604051630536340960e21b81526001600160a01b0394916020908290600490829089165afa801561049d57600295611a7a92600092611b0f575b503391161491945050611a6e565b611b2891925060203d8111610496576104878183611f7a565b9038611b01565b346103d6576020806003193601126103d65760048035611b4e816106fc565b60005460405163d1f956b160e01b81526001600160a01b03949093909182918591829088165afa90811561049d57610536946107cd94600093611baf575b506040519316818401528252611ba182611f5e565b611ba96122a8565b90612470565b611bc7919350823d8411610496576104878183611f7a565b9138611b8c565b346103d65760003660031901126103d657602061187861205f565b346103d65760003660031901126103d657601554601654601754601854601954601a54601b54604080519788526020880196909652948601939093526060850191909152608084015260a083015260c082015260e090f35b346103d65760203660031901126103d657611c5d6103f761205f565b611c663361218a565b8015611c81575b611c769061252b565b610016600435602c55565b50600054604051630536340960e21b8152906001600160a01b03906020908390600490829085165afa90811561049d57611c7692600092611cc8575b501633149050611c6d565b611ce191925060203d8111610496576104878183611f7a565b9038611cbd565b346103d65760203660031901126103d657611d046103f761205f565b611d0d3361218a565b8015611d28575b611d1d9061252b565b610016600435603455565b50600054604051630536340960e21b8152906001600160a01b03906020908390600490829085165afa90811561049d57611d1d92600092611d6f575b501633149050611d14565b611d8891925060203d8111610496576104878183611f7a565b9038611d64565b346103d65760403660031901126103d657611dab6103f761205f565b611db43361218a565b8015611dd2575b611dc49061252b565b610016602435600435612855565b50600054604051630536340960e21b8152906001600160a01b03906020908390600490829085165afa90811561049d57611dc492600092611e19575b501633149050611dbb565b611e3291925060203d8111610496576104878183611f7a565b9038611e0e565b346103d65760003660031901126103d657602060ff602454166040519015158152f35b346103d65760003660031901126103d65760005460405163111ea8c160e21b815290602090829060049082906001600160a01b03165afa90811561049d57610536916108a091600091611ed1575b50604051611eb781611f5e565b6005815264616765282960d81b6020820152611658611feb565b611ee9915060203d8111610496576104878183611f7a565b38611eaa565b634e487b7160e01b600052604160045260246000fd5b60e0810190811067ffffffffffffffff821117611f2157604052565b611eef565b6060810190811067ffffffffffffffff821117611f2157604052565b6020810190811067ffffffffffffffff821117611f2157604052565b6040810190811067ffffffffffffffff821117611f2157604052565b90601f8019910116810190811067ffffffffffffffff821117611f2157604052565b908160209103126103d65751611fb1816106fc565b90565b6040513d6000823e3d90fd5b60405190611fcd82611f05565b565b67ffffffffffffffff8111611f2157601f01601f191660200190565b60405190611ff882611f42565b60008252565b1561200557565b60405162461bcd60e51b815260206004820152601960248201527f6f776e2e7361666567756172642e63616c6c2e6661696c6564000000000000006044820152606490fd5b908160209103126103d65751611fb1816108ce565b600054604051634bf9c0ad60e11b8152906020908190839060049082906001600160a01b03165afa91821561049d57611fb1926120d5916000916120f0575b506040516120ab81611f5e565b6008815267697353616665282960c01b84820152604051916120cc83611f42565b600083526123d6565b9190806120e6575b6107c090611ffe565b50815181146120dd565b6121079150833d8511610496576104878183611f7a565b3861209e565b6040519061211a82611f5e565b601582527469735365637572654261736528616464726573732960581b6020830152565b1561214557565b60405162461bcd60e51b815260206004820152601a60248201527f6f776e2e736563757265626173652e63616c6c2e6661696c65640000000000006044820152606490fd5b6000546001600160a01b0316604051918291634bf9c0ad60e11b835282600460209485935afa92831561049d57611fb1936121f89261079392600092612213575b506040516001600160a01b0390911685820190815290926121f0918491602090910190565b6107a961210d565b919080612209575b6107c09061213e565b5081518114612200565b6121f091925061222f90863d8811610496576104878183611f7a565b91906121cb565b6040519061224382611f5e565b601182527069735369676e657228616464726573732960781b6020830152565b1561226a57565b60405162461bcd60e51b81526020600482015260166024820152751bdddb8b9cda59db995c8b98d85b1b0b99985a5b195960521b6044820152606490fd5b604051906122b582611f5e565b6011825270697364656c656761746f724e6f6465282960781b6020830152565b3d15612300573d906122e682611fcf565b916122f46040519384611f7a565b82523d6000602084013e565b606090565b600080546040516311be646b60e21b815290602090829060049082906001600160a01b03165afa90811561049d5782848193829383916123b8575b505af161234b6122d5565b50156123815760405190815233907fcdcc745fe377b103b45fa0cec23ae3ef93d6fc6a84a01f0d18c40b354dd1d5d890602090a2565b60405162461bcd60e51b815260206004820152600f60248201526e1bdddb8b989d5c9b8b99985a5b1959608a1b6044820152606490fd5b6123d0915060203d8111610496576104878183611f7a565b38612340565b9190823b15612457578051906020918263ffffffff60e01b92012016916040519180830193845281519160005b83811061244357505050918161243060248260009795968897018783820152036004810184520182611f7a565b5191620dbba0fa61243f6122d5565b9091565b818101830151858201602401528201612403565b50505060009060405161246981611f42565b6000815290565b929161247e916000946123d6565b90806124a1575b61248c5750565b611fb19192506020808251830101910161204a565b506020815114612485565b92916124ba916000946123d6565b90806124df575b6124c85750565b9091506020818051810103126103d6576020015190565b5060208151146124c1565b156124f157565b60405162461bcd60e51b81526020600482015260126024820152716f776e2e696e76616c69642e69735361666560701b6044820152606490fd5b1561253257565b60405162461bcd60e51b815260206004820152601b60248201527f6f776e2e6e6f6e617574682e44414f6f725365637572656261736500000000006044820152606490fd5b90670de0b6b3a76400009182810292818404149015171561259457565b634e487b7160e01b600052601160045260246000fd5b8181029291811591840414171561259457565b6125c690612577565b602d55565b9192939490946010831015612656576040519460a086019486861067ffffffffffffffff871117611f2157611fcd9761262796604052875260208701526040860152606085015260808401526000526006602052604060002090565b906080600491805184556020810151600185015560408101516002850155606081015160038501550151910155565b60405162461bcd60e51b815260206004820152600d60248201526c1a5b9d985b1a59081b195d995b609a1b6044820152606490fd5b1561269257565b60405162461bcd60e51b815260206004820152600c60248201526b696e76616c69642072616e6b60a01b6044820152606490fd5b916126d36008841061268b565b60405192604084019284841067ffffffffffffffff851117611f2157600193604052845260208401918252600052600360205260406000209251835551910155565b6127ed94611fcd97946127866127ce956127b19460c09a966040519061273a82611f05565b8282521515928360208301521515948560408301521515958660608301521515978860808301521515998a60a083015215159b8c91015260225560ff8019602354169115151617602355565b6023805462ffff00191660089290921b61ff00169190911791151560101b62ff000016919091179055565b63ff00000060235491151560181b169063ff000000191617602355565b64ff0000000060235491151560201b169064ff00000000191617602355565b65ff000000000060235491151560281b169065ff0000000000191617602355565b6040519061281b82611f26565b60006040838281528260208201520152565b9060405161283a81611f26565b60406002829480548452600181015460208501520154910152565b6128616008821061268b565b6000526005602052604060002055565b9491926003969397949197604051986128898a611f05565b808a528160208b01528260408b01528360608b01528460808b01528560a08b01528660c08b015260018814612941575b5050505050505060028114612907575b146128d15750565b8051601555602081015160165560408101516017556060810151601855608081015160195560a0810151601a5560c00151601b55565b8251600e556020830151600f5560408301516010556060830151601155608083015160125560a083015160135560c08301516014556128c9565b600755600855600955600a55600b55600c55600d55388080808080806128b9565b6040519061296f82611f5e565b60128252716f7a6f6e655072696365496e55534454282960701b6020830152565b811561299a570490565b634e487b7160e01b600052601260045260246000fdfea26469706673582212208b9ed0050058a7a266651ec6afa6abc7294dab6883adbc1d971594ee994518ce64736f6c63430008140033","linkReferences":{}},"methodIdentifiers":{"rule741()":"0a5b38ab","transferRequest()":"3da8676f"},"id":33}