{"abi":[{"type":"constructor","inputs":[{"name":"_hex","type":"address","internalType":"address"}],"stateMutability":"nonpayable"},{"type":"function","name":"instanceStor","inputs":[],"outputs":[{"name":"","type":"address","internalType":"address"}],"stateMutability":"view"}],"bytecode":{"object":"0x6080346100c5576001600160401b0390601f616ddf38819003918201601f1916830191848311848410176100af578084926020946040528339810103126100c557516001600160a01b039190828116908190036100c55760405191616c8690818401908111848210176100af576020928492610159843981520301906000f080156100a3571660018060a01b03196000541617600055604051608e90816100cb8239f35b6040513d6000823e3d90fd5b634e487b7160e01b600052604160045260246000fd5b600080fdfe6080806040526004361015601257600080fd5b600090813560e01c63131c73ad14602857600080fd5b346054578160031936011260545773ffffffffffffffffffffffffffffffffffffffff60209254168152f35b5080fdfea2646970667358221220d3905df334704069adda03c5c36d0831382f623a7950c01489752d5621fc46f564736f6c63430008140033608034620000d157601f62006c8638819003918201601f19168301916001600160401b03831184841017620000d657808492602094604052833981010312620000d157516001600160a01b03811690819003620000d15780156200008c5760018060a01b03193381600154161760015560005416176000556001600355604051616b999081620000ed8239f35b60405162461bcd60e51b815260206004820152601360248201527f6f776e2e696e76616c69642e68657862617365000000000000000000000000006044820152606490fd5b600080fd5b634e487b7160e01b600052604160045260246000fdfe60806040526004361015610018575b361561001657005b005b60003560e01c806302a085f2146102f8578063043719b4146102f357806309d8da2e146102ee5780630b98f975146102e957806312065fe0146102e4578063141ca660146102df578063143ec3b7146102da5780631f185d16146102d557806329ee350e146102d05780632c2838e8146102cb57806339b4d61b146102c65780633b9b7955146102c15780634a65786c146102bc57806352902c59146102b7578063619d5194146102b25780636350b2c2146102ad57806369245009146102a85780636de97c66146102a3578063725b6fff1461029e578063759f22bd1461029957806375b4d78c146102945780637b058ac11461028f5780637bfbfecb1461028a578063822ffec414610285578063880cdc31146102805780638da5cb5b1461027b578063932ca2d614610276578063934209ce146102715780639659867e1461026c578063a153154514610267578063a1f7f53914610262578063a20199ac1461025d578063a98bf4f914610258578063a9bf285b14610253578063af4845261461024e578063af640d0f14610249578063b90306ad14610244578063c54e44b01461023f578063c8ef7b1a1461023a578063d2a1590414610235578063d3a1a49914610230578063da0213351461022b578063deb1ba1e14610226578063e01ad5fd14610221578063e0a9bc2b1461021c5763fdc10bc90361000e57611895565b61187a565b6117e0565b61172c565b6116a5565b611679565b611633565b61157c565b611544565b611488565b61146a565b611439565b61141b565b6113ef565b6113a3565b6112f5565b6112b8565b61129a565b61127c565b6111bd565b611196565b6110e2565b611005565b610e4f565b610d7d565b610d5f565b610c80565b610bfc565b610b6a565b610b11565b610aba565b6109f9565b6108c3565b61089d565b610876565b61084a565b61078e565b610755565b610645565b610608565b61055b565b61053f565b61049c565b610479565b61043d565b61032c565b610120810192916000915b6009831061031557505050565b600190825181526020809101920192019190610308565b60403660031901126104385760405161034481611956565b61012036823760ff600454166104275761036461035f61621c565b6118b8565b61036d33616360565b80156103a1575b61039d9161038461039192611a0d565b6024359060043590612304565b604051918291826102fd565b0390f35b506004906001600160a01b03906020826000541660405194858092630536340960e21b82525afa9283156104225761039d9361039193610384926000926103f2575b50339116149250509150610374565b61041491925060203d811161041b575b61040c81836119c7565b8101906119e9565b90386103e3565b503d610402565b611a01565b600460405163658141c160e01b8152fd5b600080fd5b3461043857604036600319011261043857600435600052601a602052602061046b6024356040600020611a70565b90546040519160031b1c8152f35b3461043857600036600319011261043857602060ff600454166040519015158152f35b34610438576020366003190112610438576104b861035f61621c565b6104c133616360565b80156104dc575b6104d190611a0d565b610016600435600555565b5060046001600160a01b036020816000541660405193848092630536340960e21b82525afa908115610422576104d19260009261051f575b5016331490506104c8565b61053891925060203d811161041b5761040c81836119c7565b9038610514565b3461043857600036600319011261043857602047604051908152f35b60203660031901126104385761057261035f61621c565b61057b33616360565b80156105a5575b61058b90611a0d565b6105936122b5565b61059e600435613101565b6001600355005b5060046001600160a01b036020816000541660405193848092630536340960e21b82525afa9081156104225761058b926000926105e8575b501633149050610582565b61060191925060203d811161041b5761040c81836119c7565b90386105dd565b3461043857602036600319011261043857600435600052601a6020526020604060002054604051908152f35b6001600160a01b0381160361043857565b34610438576020806003193601126104385760049081359061066682610634565b8061068861067c6000546001600160a01b031690565b6001600160a01b031690565b60405194858092634bf9c0ad60e11b82525afa918215610422576106dc610716936106f89261039d96600092610732575b506106ea906040519384918783019190916001600160a01b036020820193169052565b03601f1981018452836119c7565b6106f261640a565b90616835565b919080610728575b61070990616443565b8082518301019101616207565b60405190151581529081906020820190565b5081518114610700565b6106ea91925061074e90863d881161041b5761040c81836119c7565b91906106b9565b3461043857600036600319011261043857600b54600881101561078957600d81015460408051928352602083019190915290f35b611651565b34610438576020366003190112610438576101e06107ad600435614c4c565b60405190805182526020810151602083015260408101516040830152606081015160608301526080810151608083015260a081015160a083015260c081015160c083015260e081015160e0830152610100808201519083015261012080820151908301526101408082015190830152610160808201519083015261018080820151908301526101a080820151908301526101c08091015190820152f35b346104385760203660031901126104385760043560005260156020526020604060002054604051908152f35b346104385760003660031901126104385760206001600160a01b0360005416604051908152f35b3461043857600036600319011261043857602060ff60045460081c166040519015158152f35b34610438576060366003190112610438576004356108e081610634565b6024356108ec81610634565b6001600160a01b0380921680158080156109e5575b6109bb57610977578261092161096c94600054166001600160a01b031690565b610941836001600160a01b03166001600160a01b03196000541617600055565b167fe939feee179e631422bcc8f6e6d7d908cb3f8af38f5372f17c77e15aea5c80ee600080a3616567565b610016604435600755565b606460405162461bcd60e51b815260206004820152601360248201527f6f776e2e696e76616c69642e68657862617365000000000000000000000000006044820152fd5b60046040517fa596f2f9000000000000000000000000000000000000000000000000000000008152fd5b5083831615610901565b8015150361043857565b3461043857602036600319011261043857600435610a16816109ef565b610a2161035f61621c565b610a2a33616360565b8015610a50575b90610a3e61001692611a0d565b60ff8019600454169115151617600455565b506001600160a01b039060046020836000541660405192838092630536340960e21b82525afa80156104225761001693610a3e92600092610a9a575b503391161491925050610a31565b610ab391925060203d811161041b5761040c81836119c7565b9038610a8c565b34610438576020366003190112610438576004356000526017602052608060406000208054906001810154906001600160a01b03600360028301549201541691604051938452602084015260408301526060820152f35b34610438576000366003190112610438576020600a54604051908152f35b6020908160408183019282815285518094520193019160005b828110610b56575050505090565b835185529381019392810192600101610b48565b3461043857600036600319011261043857600b546001810190818111610bf757610b9382616140565b91610ba160405193846119c7565b808352610bb0601f1991616140565b0136602084013760005b81811115610bd0576040518061039d8582610b2f565b60088110156107895780610bf291600d0154610bec82866161a8565b52611b60565b610bba565b611b4a565b34610438576000366003190112610438576020600854604051908152f35b6020908160408183019282815285518094520193019160005b828110610c41575050505090565b9091929382608082610c746001948951606080918051845260208101516020850152604081015160408501520151910152565b01950193929101610c33565b3461043857604036600319011261043857600435602435808211610d1b57610cab82610cb092612260565b61220b565b610cb981616158565b9160005b828110610cd2576040518061039d8682610c1a565b80610cfb610cf6610ce6610d169486612235565b6000526019602052604060002090565b61610e565b610d0582876161a8565b52610d1081866161a8565b50611b60565b610cbd565b606460405162461bcd60e51b815260206004820152600d60248201527f496e76616c69642072616e6765000000000000000000000000000000000000006044820152fd5b34610438576000366003190112610438576020600554604051908152f35b346104385760a036600319011261043857608435610d9a816109ef565b610da561035f61621c565b610dae33616360565b8015610de5575b90610dc2610dd392611a0d565b606435604435602435600435613b3f565b60408051928352602083019190915290f35b506001600160a01b039060046020836000541660405192838092630536340960e21b82525afa801561042257610dd393610dc292600092610e2f575b503391161491925050610db5565b610e4891925060203d811161041b5761040c81836119c7565b9038610e21565b6000806003193601126110025760ff6004541661042757610e6e6122b5565b610e7e610e7961648e565b600255565b610e9261067c82546001600160a01b031690565b60405190817f1b4fc17b000000000000000000000000000000000000000000000000000000009182825281600460209586935afa801561042257610edf918591610fe5575b503490616628565b6000805260166020527f0263c2b778d062355049effc2dece97bc6547ff8a88a3258daa512061c2153dd610f14348254612235565b9055610f2e610f216143ec565b5092505050600254611ac9565b81610f4361067c85546001600160a01b031690565b9160046040518094819382525afa908115610422577f1517c86fcf2bfb8e3468afcc539b0004955da8027797c497ea51d1f1094ab898928492610fc8575b5050600254604080513381526001600160a01b0393909316602084015260009083015234606083015260808201526103e860a082015260c090a1610fc56001600355565b80f35b610fde9250803d1061041b5761040c81836119c7565b3880610f81565b610ffc9150843d861161041b5761040c81836119c7565b38610ed7565b80fd5b346104385760c03660031901126104385760a435611022816109ef565b61102d61035f61621c565b61103633616360565b8015611071575b61039d9161104d61106192611a0d565b608435606435604435602435600435613c6a565b6040519081529081906020820190565b506004906001600160a01b03906020826000541660405194858092630536340960e21b82525afa9283156104225761039d936110619361104d926000926110c2575b5033911614925050915061103d565b6110db91925060203d811161041b5761040c81836119c7565b90386110b3565b34610438576020366003190112610438576004356110ff81610634565b61110a61035f61621c565b61111333616360565b801561112c575b9061112761001692611a0d565b611b96565b506001600160a01b039060046020836000541660405192838092630536340960e21b82525afa8015610422576100169361112792600092611176575b50339116149192505061111a565b61118f91925060203d811161041b5761040c81836119c7565b9038611168565b346104385760003660031901126104385760206001600160a01b0360015416604051908152f35b60a0366003190112610438576004356111d581610634565b6111e061035f61621c565b6111e933616360565b8015611212575b906111fd610dd392611a0d565b60843590606435906044359060243590611bd8565b506001600160a01b039060046020836000541660405192838092630536340960e21b82525afa801561042257610dd3936111fd9260009261125c575b5033911614919250506111f0565b61127591925060203d811161041b5761040c81836119c7565b903861124e565b34610438576000366003190112610438576020600b54604051908152f35b34610438576000366003190112610438576020600654604051908152f35b346104385760003660031901126104385760a06112d36143ec565b9260409291925194855260208501526040840152151560608301526080820152f35b3461043857600036600319011261043857600460206001600160a01b03600054166040519283809263d1f956b160e01b82525afa9081156104225761039d9161106191600091611385575b5060405161134d81611973565b601381527f67657464656c656761746f72436f756e74282900000000000000000000000000602082015261137f6120a3565b9161696b565b61139d915060203d811161041b5761040c81836119c7565b38611340565b34610438576040366003190112610438576113c2602435600435615b92565b60405190600090825b600783106113d85760e084f35b6001908251815260208091019201920191906113cb565b346104385760203660031901126104385760043560005260186020526020604060002054604051908152f35b34610438576000366003190112610438576020600954604051908152f35b3461043857602036600319011261043857602061146060043561145b81610634565b616360565b6040519015158152f35b34610438576000366003190112610438576020600754604051908152f35b346104385760203660031901126104385760046001600160a01b036020816000541660405193848092630536340960e21b82525afa91821561042257600092611524575b50339116036114e057610016600435616712565b606460405162461bcd60e51b815260206004820152600f60248201527f6f776e2e6e6f6e617574682e44414f00000000000000000000000000000000006044820152fd5b61153d91925060203d811161041b5761040c81836119c7565b90386114cc565b3461043857602036600319011261043857602061156b60043561156681610634565b616ae8565b6001600160a01b0360405191168152f35b3461043857604036600319011261043857602435611599816109ef565b6115a461035f61621c565b6115ad33616360565b80156115c9575b906115c161001692611a0d565b600435611a58565b506001600160a01b039060046020836000541660405192838092630536340960e21b82525afa801561042257610016936115c192600092611613575b5033911614919250506115b4565b61162c91925060203d811161041b5761040c81836119c7565b9038611605565b34610438576000366003190112610438576020600c54604051908152f35b634e487b7160e01b600052603260045260246000fd5b600881101561078957600d0190600090565b3461043857602036600319011261043857600435600881101561043857602090600d0154604051908152f35b34610438576020366003190112610438576116be612e1f565b506004356000526019602052608060406000206003604051916116e083611919565b8054835260018101546020840152600281015460408401520154606082015261172a6040518092606080918051845260208101516020850152604081015160408501520151910152565bf35b3461043857602036600319011261043857600435611749816109ef565b61175461035f61621c565b61175d33616360565b8015611776575b9061177161001692611a0d565b611b6f565b506001600160a01b039060046020836000541660405192838092630536340960e21b82525afa80156104225761001693611771926000926117c0575b503391161491925050611764565b6117d991925060203d811161041b5761040c81836119c7565b90386117b2565b346104385760208060031936011261043857600480356117ff81610634565b6001600160a01b03928084600054166040519485809263d1f956b160e01b82525afa9081156104225761039d946107169460009361185b575b50604051931681840152825261184d82611973565b61185561652e565b9061692f565b611873919350823d841161041b5761040c81836119c7565b9138611838565b3461043857600036600319011261043857602061146061621c565b346104385760003660031901126104385760206118b061648e565b604051908152f35b156118bf57565b606460405162461bcd60e51b815260206004820152601260248201527f6f776e2e696e76616c69642e69735361666500000000000000000000000000006044820152fd5b634e487b7160e01b600052604160045260246000fd5b6080810190811067ffffffffffffffff82111761193557604052565b611903565b6060810190811067ffffffffffffffff82111761193557604052565b610120810190811067ffffffffffffffff82111761193557604052565b6040810190811067ffffffffffffffff82111761193557604052565b6020810190811067ffffffffffffffff82111761193557604052565b60e0810190811067ffffffffffffffff82111761193557604052565b90601f8019910116810190811067ffffffffffffffff82111761193557604052565b9081602091031261043857516119fe81610634565b90565b6040513d6000823e3d90fd5b15611a1457565b606460405162461bcd60e51b815260206004820152601b60248201527f6f776e2e6e6f6e617574682e44414f6f725365637572656261736500000000006044820152fd5b90611a6e91611a6561648e565b80600255611b1c565b565b80548210156107895760005260206000200190600090565b90815491680100000000000000008310156119355782611ab0916001611a6e95018155611a70565b90919082549060031b91821b91600019901b1916179055565b60c8600052601a6020526040600020918254801580611b14575b611b0e5760019115611b03571615611afa575b5050565b611a6e91611a88565b811614611afa575050565b50505050565b508115611ae3565b90600052601a6020526040600020918254801580611b1457611b0e5760019115611b03571615611afa575050565b634e487b7160e01b600052601160045260246000fd5b6000198114610bf75760010190565b15611b8457611b7f600c54611b60565b600c55565b600c548015610bf75760001901600c55565b6001600160a01b03811615611bae57611a6e90616567565b60046040517fb31092f1000000000000000000000000000000000000000000000000000000008152fd5b94939091929460049260ff84541661205d57611bf26122b5565b611c02611bfe83616360565b1590565b61204d578390611c13610e7961648e565b611c2861067c6000546001600160a01b031690565b92602060409485519485809263cfbffe5360e01b82525afa9283156104225760009361202d575b50611c69611c5b6120b6565b611c636120ce565b8561696b565b958615611fe157611c89611c7b6120b6565b611c83612107565b8661696b565b611c966002988954612140565b90611cb0611ca26120b6565b611caa612160565b8861696b565b90611cca611cbc6120b6565b611cc4612199565b8961696b565b90611cdf846000526015602052604060002090565b541091821592611fc4575b5050611f9c57611d04906000526015602052604060002090565b8054600101905560018614938415611f93578551602081018a9052611d3e91611d3082604081016106dc565b611d386121d2565b9061696b565b998a945b611eca575b505092611de8611ddb611ea0948960009a98957f1517c86fcf2bfb8e3468afcc539b0004955da8027797c497ea51d1f1094ab8989a9860065415611eb1575b611d99611d94600654611b60565b600655565b611dd68a54611da661206d565b9086825285602083015289820152606081019e8f52611dd16006546000526017602052604060002090565b61226d565b6129eb565b6001600160a01b03168852565b611e30611dfc88516001600160a01b031690565b6003611e146006546000526017602052604060002090565b01906001600160a01b03166001600160a01b0319825416179055565b88611e62611e3d82612b7b565b98611e55611e496143ec565b50925050508854611ac9565b516001600160a01b031690565b9454915195869533879260a09491979695929760c08501986001600160a01b0380921686521660208501526040840152606083015260808201520152565b0390a1611ead6001600355565b9190565b611ebb8a54600855565b611ec58a54600955565b611d86565b9091929350600554918a611ede8484612235565b10611f435750611ddb8a89611ea09660009b9996611f33611f2e85611f297f1517c86fcf2bfb8e3468afcc539b0004955da8027797c497ea51d1f1094ab8989f9d9a611de89a612235565b612260565b600555565b95989a5095985099509450611d47565b611f8f90865191829162461bcd60e51b8352820160609060208152601360208201527f73746f722e66616b652e6d696e7476616c75650000000000000000000000000060408201520190565b0390fd5b50898a94611d42565b5084517feb2c7de7000000000000000000000000000000000000000000000000000000008152fd5b8b1091508115611fd7575b503880611cea565b9050891138611fcf565b611f8f90855191829162461bcd60e51b8352820160609060208152601560208201527f696e76616c6964206d696e744379636c6544617973000000000000000000000060408201520190565b61204691935060203d811161041b5761040c81836119c7565b9138611c4f565b83604051630d419f7360e41b8152fd5b8360405163658141c160e01b8152fd5b60405190611a6e82611919565b60405190611a6e826119ab565b67ffffffffffffffff811161193557601f01601f191660200190565b604051906120b08261198f565b60008252565b6040516120c28161198f565b60008152906000368137565b604051906120db82611973565b600f82527f6d696e744379636c6544617973282900000000000000000000000000000000006020830152565b6040519061211482611973565b601282527f6d61784d696e74735065724379636c65282900000000000000000000000000006020830152565b811561214a570490565b634e487b7160e01b600052601260045260246000fd5b6040519061216d82611973565b600c82527f6d696e4d696e74517479282900000000000000000000000000000000000000006020830152565b604051906121a682611973565b600c82527f6d61784d696e74517479282900000000000000000000000000000000000000006020830152565b604051906121df82611973565b601982527f636f6d707574654d696e7456616c75652875696e7432353629000000000000006020830152565b9060018201809211610bf757565b90600e8201809211610bf757565b6046019081604611610bf757565b91908201809211610bf757565b600019810191908211610bf757565b600119810191908211610bf757565b91908203918211610bf757565b60036001600160a01b036060611a6e948051855560208101516001860155604081015160028601550151169101906001600160a01b03166001600160a01b0319825416179055565b6002600354146122c6576002600355565b60046040517f3ee5aeb5000000000000000000000000000000000000000000000000000000008152fd5b604051906122fd826119ab565b60e0368337565b9061231792916123126122b5565b61244d565b906001600355565b6040519061232c82611973565b601082527f65616368636c61696d4379636c652829000000000000000000000000000000006020830152565b6040519061236582611973565b601082527f6d696e436c61696d5065724461792829000000000000000000000000000000006020830152565b6040519061239e82611973565b601082527f6d6178436c61696d5065724461792829000000000000000000000000000000006020830152565b604051906123d782611973565b601682527f6d6178476c6f62616c436c61696d5065724461792829000000000000000000006020830152565b6040519061241082611973565b601582527f67657477697468647261776e2875696e743235362900000000000000000000006020830152565b9060098110156107895760051b0190565b92918381156129e55750600255600061247061067c82546001600160a01b031690565b6040908151809163cfbffe5360e01b825281600460209384935afa9182156104225784926129c6575b506124a26143ec565b5097925050506124b56002968754611ac9565b60326124e48754600854936124ca8186612235565b8211156129bf576124dc915084612235565b925b83612260565b116129b7576124f29061478e565b6125116125086125006120b6565b611c6361231f565b60095490612235565b9085549182101561252e575b505050505050611a6e610e7961648e565b6125416125396120b6565b611c63612358565b9261255b61254d6120b6565b612555612391565b8361696b565b600f6000526016602052926126bd61268d61265d61262d6125fd6125cd7fc361f6d77665192d237562bd0853419e4f63406390ab643d0f1cdbcdd3e2cbae54601060005260166020527f2a87e474c76dec5537d547c3958b767dcf7498ad7afcca0a2eb8ad1481fbf5b65b5490612235565b601160005260166020527f8419164215688829c599d418012c77589d6ed4c687dc9e57a4a19678f70f8a316125c6565b601260005260166020527f8531638db615388f9d93ea5c79a334675d6050f9d301f5b6af156a74ff5696356125c6565b601360005260166020527f8e8ddf6db11641650f4fdf401a12def6a7e0b43b7e1e0b4a9bb751fc3ac1eab56125c6565b601460005260166020527f7beb2646ec614ee6b553f9ed5c257fdce28fa220de7a1708afec2ddbe81f1b306125c6565b601560005260166020527fe3be994f4df1ce307d3423eeebbbb0cd25598c1b97b848f71392674439a00e376125c6565b948510156126cd575b505061251d565b6126e46004926126db6120b6565b90611d386123ca565b92806126fa61067c8a546001600160a01b031690565b88519485809263ab6e844f60e01b82525afa9081156104225761273e938992612994575b508751908101928352916127369083906020016106dc565b611d38612403565b101561296b57808211156129635761275591612260565b9060015b60078111156127dc5750507f50eede7cc9d9157638c32051246e3b16ef1b4d09c2f4b59ff806a325cf84bf2c805460e08701527f307cc7fa9030ab778db9755dd3a02d67731fde58e03005caf325db0bce1f2eaf8054610100880152601660209081529184905560009190915291909155505460095538808080808080806126c6565b6127f86127e882612219565b6000526016602052604060002090565b54836128ca57906128c591612817826000526016602052604060002090565b612822828254612235565b9055856128316127e884612219565b5561284461283e83612242565b8a61243c565b525b7f1517c86fcf2bfb8e3468afcc539b0004955da8027797c497ea51d1f1094ab89861287361283e83612242565b518754906128bd61288385612227565b875193849333859094939260a0926001600160a01b0360c08401971683526000602084015260006040840152606083015260808201520152565b0390a1611b60565b612759565b8381111561292457906128e0846128c593612260565b93846129016128f9846000526016602052604060002090565b918254612235565b905561290f6127e883612219565b55849361291e61283e83612242565b52612846565b612932906128c59294612260565b92612947816000526016602052604060002090565b50846129556127e883612219565b558461291e61283e83612242565b505081612755565b600483517f1d63fe21000000000000000000000000000000000000000000000000000000008152fd5b8192506129b090612736923d851161041b5761040c81836119c7565b919061271e565b505050505050565b50926124de565b816129de9293503d841161041b5761040c81836119c7565b9038612499565b93505050565b91612a6b92612a5c926001600160a01b039586600154169360025492604051957fc85700fb000000000000000000000000000000000000000000000000000000006020880152602487015260448601526064850152608484015260a483015260a48252612a57826119ab565b6169f3565b602080825183010191016119e9565b168015612a755790565b60046040517fb1bdf8b0000000000000000000000000000000000000000000000000000000008152fd5b60405190612aac82611973565b600682527f706f6f6c282900000000000000000000000000000000000000000000000000006020830152565b908160e09103126104385780519160208201519160408101519160608201519160808101519160c060a083015192015190565b9061271091828102928184041490151715610bf757565b9081606402916064830403610bf757565b81810292918115918404141715610bf757565b91909160008382019384129112908015821691151617610bf757565b81810392916000138015828513169184121617610bf757565b6004906020612b9561067c6000546001600160a01b031690565b6040519384809263cfbffe5360e01b82525afa801561042257612c60612c36612c1b612c5b612c26612c10612c20612c00612bf1612c15996119fe9c600091612c72575b50612be26120b6565b90612beb612a9f565b9061680a565b60208082518301019101612ad8565b9e8f9b969e949892959150612b33565b612b33565b93612b33565b612b0b565b90612140565b94612c46612c3682600254612235565b6000526018602052604060002090565b612c51878254612b46565b9055600254612235565b612235565b612c6b828254612b62565b9055612b33565b612c8a915060203d811161041b5761040c81836119c7565b38612bd9565b60405190612c9d82611973565b601382527f55736572546f496e7374286164647265737329000000000000000000000000006020830152565b60405190612cd682611973565b600b82527f6d696e74436f756e7428290000000000000000000000000000000000000000006020830152565b60405190612d0f82611973565b600e82527f6d696e74732875696e74323536290000000000000000000000000000000000006020830152565b60405190612d4882611973565b600b82527f6d696e74656441676528290000000000000000000000000000000000000000006020830152565b60405190612d8182611973565b600b82527f6d696e74656471747928290000000000000000000000000000000000000000006020830152565b60405190612dba82611973565b600c82527f6964732875696e743235362900000000000000000000000000000000000000006020830152565b60405190612df382611973565b600982527f6d696e74416d74282900000000000000000000000000000000000000000000006020830152565b60405190612e2c82611919565b60006060838281528260208201528260408201520152565b60405190612e5182611973565b600a82527f647261776e6167652829000000000000000000000000000000000000000000006020830152565b60405190612e8a82611973565b600c82527f4c53422875696e743235362900000000000000000000000000000000000000006020830152565b60405190612ec382611973565b600782527f647261776e2829000000000000000000000000000000000000000000000000006020830152565b91908260c09103126104385781519160208101519160408201519160608101519160a0608083015192015190565b60405190612f2a82611973565b601382527f67657452657761726473286164647265737329000000000000000000000000006020830152565b9190826040910312610438576020825192015190565b60405190612f7982611973565b600782527f626f6e75732829000000000000000000000000000000000000000000000000006020830152565b60405190612fb282611973565b600682527f63616765282900000000000000000000000000000000000000000000000000006020830152565b60405190612feb82611973565b601982527f67657445666665637469766552616e6b286164647265737329000000000000006020830152565b6040519061302482611973565b601f82527f6765746e6f646572616e6b61676528616464726573732c75696e7432353629006020830152565b6040519061305d82611973565b601082527f6765744e6f6465286164647265737329000000000000000000000000000000006020830152565b908160a09103126104385780519160208201516130a581610634565b91604081015191608060608301516130bc816109ef565b9201516119fe816109ef565b604051906130d582611973565b601a82527f77697468647261776e496e636f6d654f662861646472657373290000000000006020830152565b60045460081c60ff16613b3c57600490602061312861067c6000546001600160a01b031690565b6040519384809263111ea8c160e21b82525afa91821561042257600092613b1b575b5061319f6131836131916131666001546001600160a01b031690565b604080516001600160a01b03909216602083015290928391820190565b03601f1981018352826119c7565b613199612c90565b846168e6565b906001600160a01b03821615613af75760058111613acd576131d06131c26120b6565b6131ca612cc9565b8461696b565b906006546131de8183612235565b831115613ac5576131ee91612235565b816136ed575b5080600654149081156136e4575b5061320b575050565b6132266132216132196120b6565b6131ca612e44565b600a55565b600a54600854811161369c575b5061325f6132506132426120b6565b61324a612eb6565b8461680a565b60208082518301019101612eef565b601660209081527f4c4dc693d7db52f85fe052106f4b4b920e78e8ef37dee82878a60ab8585faf49969096557fcaff291fe014adc6b72a172705750b4cabe8f8667664d2924a166caab2885648949094557ff06d282f967055cb1eee17e04aa005b9682a620f4bbcfaee55ba78607a3d87ae929092557fec061709de2491458f4c981032059d7d19b0e55f45018bac6b3e660bdc959a59557fc6a239f207aea309a1b4879cb5411b8facfc2bc1e4cc4717ff2598676c399b5f5560076000527f5c9294642c77fdf0ce4b0f45159c977165b1ec2ef3bb94ee3e2a496634c781e855604080516001600160a01b03841692810192909252613387916133789161336a9082908101613183565b613372612f1d565b8561680a565b60208082518301019101612f56565b60166020527fa03de401ff86fc22e691d3563b736c9fadf4f2babab79e9b7995ce6f656920a79190915560686000527f5a2cd1a21e67d7dda0aeee7dda01b941de71cc935cebfacc2b9b226beb2ced33556133ee611f2e6133e66120b6565b6131ca612f6c565b6134046132216133fc6120b6565b6131ca612fa5565b61343b61343660405161342e8161318386602083019190916001600160a01b036020820193169052565b611c63612fde565b600b55565b60005b600f8111156135a757506134806106dc6134a69361347861348f94604051938491602083019190916001600160a01b036020820193169052565b612beb613050565b60208082518301019101613089565b935050505060ff8019600454169115151617600455565b600460206134bf61067c6000546001600160a01b031690565b604051928380927f6325dd040000000000000000000000000000000000000000000000000000000082525afa9081156104225761353d916106dc91600091613588575b506135356135186001546001600160a01b031690565b604080516001600160a01b03909216602083015290938491820190565b611d386130c8565b600560005260166020527f5696377e725b42a372ecc45f0fbdab5e9555865aef54619ad9381892f667bbf055613574600854600955565b611a6e61010061ff00196004541617600455565b6135a1915060203d60201161041b5761040c81836119c7565b38613502565b806135c09161360f575b600b548111156135c557611b60565b61343e565b604080516001600160a01b038516602082015290810182905261360a90613601906135f38160608101613183565b6135fb613017565b8761696b565b611ab083611667565b611b60565b6040517f5329daca0000000000000000000000000000000000000000000000000000000060208201526001600160a01b03841660248201526044810182905261366990613378906136638160648101613183565b866169f3565b9061367e836000526019602052604060002090565b556001613695836000526019602052604060002090565b01556135b1565b6008556136c76131836136bf600a54604051928391602083019190602083019252565b612555612e7d565b6136dd6008546000526018602052604060002090565b5538613233565b90501538613202565b6000805260196020527fd2ac945fcc0096878c763e37d6929b78378c1a2defabde8ba7ee5ed1d6e7a5b2547fd2ac945fcc0096878c763e37d6929b78378c1a2defabde8ba7ee5ed1d6e7a5b3549095909491929091905b60065484811015613a6857611d9461375b91611b60565b61378961318361377b600654604051928391602083019190602083019252565b613783612d02565b876168e6565b61379f610e796137976120b6565b6131ca612d3b565b6138516137b56137ad6120b6565b6131ca612d74565b986137da6040516137d28161318360208201906000602083019252565b611c63612dad565b986137f76137f16137e96120b6565b6135fb612de6565b94616ae8565b602061380e61067c6000546001600160a01b031690565b6040517fcfaa1f6c0000000000000000000000000000000000000000000000000000000081526001600160a01b0390931660048401529194859081906024820190565b0381845afa93841561042257600094613a47575b506001600160a01b038416156139d5575b50613883611bfe84616360565b6139c4578a928484613893612e1f565b938285528160208601526002958654604087015283866006546138c0906000526017602052604060002090565b906138ca9161226d565b6138d391612235565b9e6138dd91612235565b9c6138e7936129eb565b6006546138fe906000526017602052604060002090565b6003019061392191906001600160a01b03166001600160a01b0319825416179055565b61392a84612b7b565b506006546001149361397060606139ad937f1517c86fcf2bfb8e3468afcc539b0004955da8027797c497ea51d1f1094ab898976139b5575b01516001600160a01b031690565b9254604080513381526001600160a01b03909516602086015284019490945260608301526080820192909252600060a082015290819060c0820190565b0390a1613744565b6139bf8654600855565b613962565b6004604051630d419f7360e41b8152fd5b6040517fb771c89600000000000000000000000000000000000000000000000000000000815260006004820152919350602090829060249082905afa90811561042257600091613a28575b509138613876565b613a41915060203d60201161041b5761040c81836119c7565b38613a20565b613a6191945060203d60201161041b5761040c81836119c7565b9238613865565b506000805260196020527fd2ac945fcc0096878c763e37d6929b78378c1a2defabde8ba7ee5ed1d6e7a5b2969096557fd2ac945fcc0096878c763e37d6929b78378c1a2defabde8ba7ee5ed1d6e7a5b394909455939050386131f4565b5050806131ee565b60046040517fc99d37d2000000000000000000000000000000000000000000000000000000008152fd5b505050613b0561322161648e565b613b10600a54600855565b613574600a54600955565b613b3591925060203d60201161041b5761040c81836119c7565b903861314a565b50565b919394929460009560009580613b57575b5050505050565b600b549750949550919390928315613bbe576001613ba083613ba993613b8e6128f9613bb09a976000526019602052604060002090565b90556000526019602052604060002090565b01918254612235565b9055614196565b600b54903880808080613b50565b908060005260196020526040600020908154928303928311610bf757600192613bf292556000526019602052604060002090565b01928354908103908111610bf757613bb09355614196565b60405190613c1782611973565b601482527f6c6576656c436c617573652875696e74323536290000000000000000000000006020830152565b908160a0910312610438578051916020820151916040810151916080606083015192015190565b9194939290613c83866000526019602052604060002090565b613c8e848254612235565b90556001613ca6876000526019602052604060002090565b01613cb2828254612235565b90556000805260196020527fd2ac945fcc0096878c763e37d6929b78378c1a2defabde8ba7ee5ed1d6e7a5b254151580614001575b613cf8575b505050505050600b5490565b159384159283613ff3575b6000613d1961067c82546001600160a01b031690565b95604051809763cfbffe5360e01b825281600460209a8b935afa97881561042257613d706106dc613d8d9a8d613d7d958892613fd0575b50613d68906040519384918783019190602083019252565b612beb613c0a565b8051810182019101613c43565b979294919a9098600a5490612260565b10918215613fc3575b5081613fba575b50613dab575b505050613cec565b600396613e099615613fb157612c20613dc7613dcd9386612b33565b91612b22565b965b15613fa75750613dc7613de593612c2092612b33565b935b6002613dfd826000526019602052604060002090565b01613b8e858254612235565b01613e15838254612235565b905560016000819052601a602052613e4f7ff88cd8d612926ebb404e40725c01084b6e9b3ce0344cde068570342cbd448c615b5460011690565b148015613f6b575b613f30575b506004600052601a6020526001613e927f06b28f262ad931a15c9e47271fc159a891b2bcb0da2659cac5bbfed4886cf26e613e48565b148015613ef4575b613eb9575b50613eab610f216143ec565b388080808080808080613da3565b600b6000526016602052613eec7fcfa8b17cfe829ccfb82a1b8bc946a78d914318562253e01c04a5bbac5c20f86b6128f9565b905538613e9f565b5060c8600052601a6020526001613f2a7f89a06886e0f87a6eda50b0ef62069b00c5adfe20a1b83308f38d3e933d4a6cfe613e48565b14613e9a565b60086000526016602052613f637f5d722ae86c7aff0f95f426cf86f75793e8cd1a526603df14563c190f75fd2ef36128f9565b905538613e5c565b5060c8600052601a6020526001613fa17f89a06886e0f87a6eda50b0ef62069b00c5adfe20a1b83308f38d3e933d4a6cfe613e48565b14613e57565b9250505093613de7565b50508096613dcf565b90501538613d9d565b600b541015915038613d96565b613d68919250613fec90863d881161041b5761040c81836119c7565b9190613d50565b613ffc83614043565b613d03565b50851515613ce7565b6040519061401782611973565b601382527f72616e6b436c617573652875696e7432353629000000000000000000000000006020830152565b61405861067c6000546001600160a01b031690565b60409182519283809363cfbffe5360e01b8252602091829160049788915afa93841561042257600094614177575b50600b90614094825461220b565b600881106140a55750505050505050565b6140de6140d085516140c281613183868883019190602083019252565b6140ca61400a565b8961680a565b838082518301019101613c43565b505050908115801561416f575b61416057906141119291600c541015908161413e575b508061412c575b61411657611b60565b614094565b61411f81600b55565b61360a86611ab083611667565b50835461413882612242565b14614108565b90506001614156836000526019602052604060002090565b0154101538614101565b888651632a9ffab760e21b8152fd5b5080156140eb565b8161418f9295503d861161041b5761040c81836119c7565b9238614086565b6141ab61067c6000546001600160a01b031690565b90604080518094819463cfbffe5360e01b8352602092839160049889915afa9485156104225760009561433a575b501561425857600b906141ec825461220b565b600881106141fd5750505050505050565b61421a6140d085516140c281613183868883019190602083019252565b5050509081158015614250575b614160579061424b9291600c541015908161413e57508061412c5761411657611b60565b6141ec565b508015614227565b91509160009493945b600b5481116143325761429d61428f855161428781613183868983019190602083019252565b61337261400a565b848082518301019101613c43565b5050509082151580614322575b61431357906142cf9291600c54101590816142f1575b50156142d45761360a81600b55565b614261565b61360a6142e082611667565b8154906000199060031b1b19169055565b90506001614309836000526019602052604060002090565b01541015386142c0565b878651632a9ffab760e21b8152fd5b508115806142aa575080156142aa565b505050509050565b614352919550823d841161041b5761040c81836119c7565b93386141d9565b6040519061436682611973565b600982527f63617070696e67282900000000000000000000000000000000000000000000006020830152565b908160e09103126104385780519160208201516143ae816109ef565b9160408101516143bd816109ef565b9160608201516143cc816109ef565b9160808101516143db816109ef565b9160c060a08301516130bc816109ef565b6000906004602061440861067c6000546001600160a01b031690565b6040519283809263cfbffe5360e01b82525afa908115610422576144589161444991600091614770575b5061443b614359565b6144436120a3565b9161680a565b60208082518301019101614392565b60008052601960205293969490929091906144c8614498887fd2ac945fcc0096878c763e37d6929b78378c1a2defabde8ba7ee5ed1d6e7a5b25b54612b33565b600080526016602052977f0263c2b778d062355049effc2dece97bc6547ff8a88a3258daa512061c2153dd614492565b976144d1615acf565b94614768575b506146d2575b61466c575b61465b575b506145ed575b614510575b828410614509576145038385612260565b82811191565b6000614503565b60066000526016602052926145e7906145e161268d6145b161458161265d7fc6a239f207aea309a1b4879cb5411b8facfc2bc1e4cc4717ff2598676c399b5f5b54600d60005260166020527f1f3872f63ca641494b685e4fa2176636d028d8c80f254656e89768cf272432736125c6565b600760005260166020527f5c9294642c77fdf0ce4b0f45159c977165b1ec2ef3bb94ee3e2a496634c781e86125c6565b600e60005260166020527fd6e1ce7303b8b03e4f8e61fd057015f1c58732e116f2a323c5d9ed9df544bd9a6125c6565b90612235565b926144f2565b6005600052601660205293614655906145e161262d7f5696377e725b42a372ecc45f0fbdab5e9555865aef54619ad9381892f667bbf05b54600c60005260166020527f329445f4448b7d20eec86c1386b39f5d1ed2d5f198689536ebcae9f2881958c36125c6565b936144ed565b6146659196612235565b94386144e7565b60166020527ff06d282f967055cb1eee17e04aa005b9682a620f4bbcfaee55ba78607a3d87ae54600a60005290976146cc916145e1906125cd907fd5b9797c47f98351da0d9dc8805f06430ade47345ddb9b2bd6f346a04809cc416125c6565b966144e2565b60166020527fcaff291fe014adc6b72a172705750b4cabe8f8667664d2924a166caab28856485460096000529098614762916145e190614732907f650982f08e47212452de30f662e413cf6044e641dedc09b52c1617e804a2611e6125c6565b601060005260166020527f2a87e474c76dec5537d547c3958b767dcf7498ad7afcca0a2eb8ad1481fbf5b66125c6565b976144dd565b9950386144d7565b614788915060203d811161041b5761040c81836119c7565b38614432565b611a6e9061479b81614c4c565b8051600f60005260166020526147d07fc361f6d77665192d237562bd0853419e4f63406390ab643d0f1cdbcdd3e2cbae6128f9565b905560608101516012600052601660205261480a7f8531638db615388f9d93ea5c79a334675d6050f9d301f5b6af156a74ff5696356128f9565b9055602081810151601060005260169091526148457f2a87e474c76dec5537d547c3958b767dcf7498ad7afcca0a2eb8ad1481fbf5b66128f9565b9055604081018051601160005260166020526148807f8419164215688829c599d418012c77589d6ed4c687dc9e57a4a19678f70f8a316128f9565b90556080820151601360005260166020526148ba7f8e8ddf6db11641650f4fdf401a12def6a7e0b43b7e1e0b4a9bb751fc3ac1eab56128f9565b905560a0820151601460005260166020526148f47f7beb2646ec614ee6b553f9ed5c257fdce28fa220de7a1708afec2ddbe81f1b306128f9565b905560c08201516015600052601660205261492e7fe3be994f4df1ce307d3423eeebbbb0cd25598c1b97b848f71392674439a00e376128f9565b9055610100820151600960005260166020526149697f650982f08e47212452de30f662e413cf6044e641dedc09b52c1617e804a2611e6128f9565b905561012082018051600a600052601660205290926101c0916149ab7fd5b9797c47f98351da0d9dc8805f06430ade47345ddb9b2bd6f346a04809cc416128f9565b9055610160810151600c60005260166020526149e67f329445f4448b7d20eec86c1386b39f5d1ed2d5f198689536ebcae9f2881958c36128f9565b9055610180810151600d6000526016602052614a217f1f3872f63ca641494b685e4fa2176636d028d8c80f254656e89768cf272432736128f9565b90556101a0810151600e6000526016602052614a5c7fd6e1ce7303b8b03e4f8e61fd057015f1c58732e116f2a323c5d9ed9df544bd9a6128f9565b90550151614a74846000526018602052604060002090565b5551601f6000526016602052614aa97f50eede7cc9d9157638c32051246e3b16ef1b4d09c2f4b59ff806a325cf84bf2c6128f9565b9055516020600081905260169052614ae07f307cc7fa9030ab778db9755dd3a02d67731fde58e03005caf325db0bce1f2eaf6128f9565b9055600855565b604051906101e0820182811067ffffffffffffffff82111761193557604052816101c06000918281528260208201528260408201528260608201528260808201528260a08201528260c08201528260e08201528261010082015282610120820152826101408201528261016082015282610180820152826101a08201520152565b60405190614b7582611973565b600a82527f73687574646f776e2829000000000000000000000000000000000000000000006020830152565b60405190614bae82611973565b601882527f676574557365724964546f496e73742875696e743235362900000000000000006020830152565b60405190614be782611973565b601182527f696e636f6d654f662861646472657373290000000000000000000000000000006020830152565b60405190614c2082611973565b601482527f636f6d70757465546f75722875696e74323536290000000000000000000000006020830152565b90614c55614ae7565b91600090614c6d61067c83546001600160a01b031690565b60409182519163ab6e844f60e01b83526020908184600481845afa9384156104225786946150de575b50845163cfbffe5360e01b81528281600481855afa91821561042257858a60049686948b966150b7575b5090614df8859287614ce2614cd3614b68565b614cdb6120a3565b908361692f565b9b8c92614d8e614cf0615acf565b6060890190815281895260166020527f4c4dc693d7db52f85fe052106f4b4b920e78e8ef37dee82878a60ab8585faf4954600860005290929190614d8890614d58907f5d722ae86c7aff0f95f426cf86f75793e8cd1a526603df14563c190f75fd2ef36125c6565b600f60005260166020527fc361f6d77665192d237562bd0853419e4f63406390ab643d0f1cdbcdd3e2cbae6125c6565b90612260565b8752805160166020527fec061709de2491458f4c981032059d7d19b0e55f45018bac6b3e660bdc959a5954600b600052614df19190614d88906125fd907fcfa8b17cfe829ccfb82a1b8bc946a78d914318562253e01c04a5bbac5c20f86b6125c6565b9052615314565b509d94939096926101c0879397015261010082015201526000146150a75750506106dc614e4591614e376007548b519384918883019190602083019252565b614e3f614ba1565b906168e6565b31878b01525b8651948580927f52b06d640000000000000000000000000000000000000000000000000000000082525afa928315610422578693615088575b50614ed6614eba614e9d6001546001600160a01b031690565b87519182918683019190916001600160a01b036020820193169052565b0394614ece601f19968781018452836119c7565b611d38614bda565b6005600052601660205294614f0d61262d7f5696377e725b42a372ecc45f0fbdab5e9555865aef54619ad9381892f667bbf0614624565b60808a01818152968181111561507a57614f2a9150875190612260565b86526004600b5460028110158061503d575b615005575b101580614fa4575b614f65575b50505050614f5a575050565b805161016085015252565b614f9693614f8293614f8e92519485918201906004602083019252565b039081018452836119c7565b611d38614c13565b60c086015238808080614f4e565b5060166020527f5c9294642c77fdf0ce4b0f45159c977165b1ec2ef3bb94ee3e2a496634c781e854600e600052614fff9061268d907fd6e1ce7303b8b03e4f8e61fd057015f1c58732e116f2a323c5d9ed9df544bd9a6125c6565b15614f49565b615033835161502b8161501f898201906002602083019252565b038981018352826119c7565b611c83614c13565b60a08c0152614f41565b506006600052601660205261507461265d7fc6a239f207aea309a1b4879cb5411b8facfc2bc1e4cc4717ff2598676c399b5f614550565b15614f3c565b61508391612260565b614f2a565b6150a0919350823d841161041b5761040c81836119c7565b9138614e84565b8c8a01526101208c015250614e4b565b85929196506150d5614df891843d861161041b5761040c81836119c7565b96919250614cc0565b6150f6919450823d841161041b5761040c81836119c7565b9238614c96565b604051906040820182811067ffffffffffffffff8211176119355760405260006020838281520152565b6040519060a0820182811067ffffffffffffffff821117611935576040528161514e6150fd565b81526151586150fd565b60208201526151656150fd565b60408201526151726150fd565b606082015260806151816150fd565b910152565b6040519061519382611973565b601882527f6765744261746368526f79616c7479436c6175736573282900000000000000006020830152565b6102a09081818403126104385782601f820112156104385760408051936151e5856119ab565b849383019281841161043857935b83851061520257505050505090565b60608583031261043857825160609161521a8261193a565b86518252602091828801518382015285880151868201528152019401936151f3565b6040519061524982611973565b601f82527f676574526f79616c697479416d6f756e7442617463682875696e7432353629006020830152565b9060e0828203126104385780601f830112156104385760405191615298836119ab565b829060e0810192831161043857905b8282106152b45750505090565b81518152602091820191016152a7565b9060078110156107895760051b0190565b8181029291600082127f8000000000000000000000000000000000000000000000000000000000000000821416610bf7578184051490151715610bf757565b92906000946000946000946000946000946153b16153a2615333615127565b9461533d876157c5565b87519060208201525261534f876158a2565b60208801519060208201525261536487615935565b604088015190602082015252615379876159d7565b60608801519060208201525261538e87615a53565b60808801519060208201525261443b615186565b602080825183010191016151bf565b91600854600b54905b8681106154065750505050506020815101518211918291821580946153f4575b93926153e557505091565b60800151602001511015929050565b506020606082015101518211156153da565b6154426154336040516154258161318386602083019190602083019252565b61542d61523c565b8761680a565b60208082518301019101615275565b6001905b8382111561569f5750508215615465575b61546090611b60565b6153ba565b61548461547c826000526018602052604060002090565b54809c612b46565b9a61548f8289612260565b90600091604089015189518b82518181108084519384109381615697575b81615674575b50156155a6575050506020808351835180821060001461559e5750935b0151910151808211156155965750905b80861115615590575084905b6154f58161220b565b8c101561558257508a5b81811161556f575b50505b808311615567575b8261551c91612260565b9180615551575b5081615531575b5050615457565b9a61554361554992615460949d6152d5565b90612b46565b99903861552a565b9a615543829c615560936152d5565b9938615523565b915081615512565b61557a929450612260565b913880615507565b61558b9061220b565b6154ff565b906154ec565b9050906154e0565b9050936154d0565b9391929361561e575b50506155bc575b5061550a565b8051808611156156155750602085915b016155d7815161220b565b8c101561560657508a5b8181116155ef575b506155b6565b6155fe9294916145e191612260565b9138806155e9565b615610905161220b565b6155e1565b602090916155cc565b8088111561566b5750602087915b018d615638825161220b565b111561565c57508c5b818111156155af57615654929650612260565b9338806155af565b615666905161220b565b615641565b6020909161562c565b9050602086015110801561568a575b15386154b3565b5081602085015110615683565b8491506154ad565b909c6156b36156ad8f612242565b886152c4565b5151158015615765575b61575b5787518051841015908161574c575b508015615725575b15615709576156fd615703918f6156f06156f691612242565b856152c4565b5190612235565b9d611b60565b90615446565b9c9d61571f8f916156f66156f061570394612242565b9e611b60565b5060208801518051841015908161573d575b506156d7565b60209150015183111538615737565b602091500151831115386156cf565b9c61570390611b60565b508d61577d61577382611667565b90549060031b1c90565b841015908161578e575b50156156bd565b6157bc915060406157b36157ad6157a761577385611667565b93612242565b8b6152c4565b51015190612235565b8311158e615787565b60c8600052601a6020527f89a06886e0f87a6eda50b0ef62069b00c5adfe20a1b83308f38d3e933d4a6cfe8054929190831561589b576001841661588357505060c8600052601a6020526157736158457f89a06886e0f87a6eda50b0ef62069b00c5adfe20a1b83308f38d3e933d4a6cfe61583f85612251565b90611a70565b905460c8600052601a60205260039190911b1c9261583f7f89a06886e0f87a6eda50b0ef62069b00c5adfe20a1b83308f38d3e933d4a6cfe91612242565b61583f6158909294612242565b90549060031b1c9190565b5091508190565b60026000908152601a6020527f4c287b3e2c2cb129ae3ba596d613d760b15affdac7242e12903c37a886ea1c4f805491939290821561592d576001831661591e5750506157739060028452601a60205261583f604061590681872061583f85612251565b90549060031b1c9560028152601a6020522091612242565b90935061583f61589092612242565b509250508190565b60036000818152601a6020527f4ac83fca211703e3ddb90093cd219714e5e3715bf0b4fd15b0441390534a24e280549194939082156159ce57600183166159b65750506159ae90828552601a60205261583f604061599881882061583f85612251565b905490861b1c96858152601a6020522091612242565b9054911b1c90565b90945061583f6159c592612242565b9054911b1c9190565b50935050508190565b60056000908152601a6020527f82f07edc09f3a46c1925d02252613a7fcc7be7d03b538b0c268df85f2f13a7ab805491939290821561592d576001831661591e5750506157739060058452601a60205261583f6040615a3b81872061583f85612251565b90549060031b1c9560058152601a6020522091612242565b60066000908152601a6020527fe7513fcd4f864b78baf560f46c15980b6aa41b90911efc4ce7454b83cce613b1805491939290821561592d576001831661591e5750506157739060068452601a60205261583f6040615ab781872061583f85612251565b90549060031b1c9560068152601a6020522091612242565b600090816001815b600f821115615b4c575050606560005260166020527fa03de401ff86fc22e691d3563b736c9fadf4f2babab79e9b7995ce6f656920a7548101809111610bf75760686000526016602052916119fe907f5a2cd1a21e67d7dda0aeee7dda01b941de71cc935cebfacc2b9b226beb2ced336125c6565b9093848252601992602093808552604090600282862001548301809311610bf7576003929588865252832001548101809111610bf757615b8c9094611b60565b90615ad7565b919091615b9d6122f0565b928115615fe85760018214615ec25760028214615d975760038214615cac57615bec90615bc861648e565b90600854615bd68282612235565b831115615ca557615be79250612235565b614c4c565b9060048114615c5657600514615bff5750565b9091506101a0615c0d61207a565b9160e08101518352610100810151602084015261012081015160408401526101408101516060840152610160810151608084015261018081015160a0840152015160c082015290565b5090915060c0615c6461207a565b91805183526020810151602084015260408101516040840152606081015160608401526080810151608084015260a081015160a0840152015160c082015290565b5050614c4c565b50509050615cb861207a565b7f0263c2b778d062355049effc2dece97bc6547ff8a88a3258daa512061c2153dd5481527f50eede7cc9d9157638c32051246e3b16ef1b4d09c2f4b59ff806a325cf84bf2c546020808301919091527f307cc7fa9030ab778db9755dd3a02d67731fde58e03005caf325db0bce1f2eaf5460408301527fa03de401ff86fc22e691d3563b736c9fadf4f2babab79e9b7995ce6f656920a75460608301526068600090815260169091527f5a2cd1a21e67d7dda0aeee7dda01b941de71cc935cebfacc2b9b226beb2ced3354608083015260a0820181905260c082015290565b50509050615da361207a565b7fc361f6d77665192d237562bd0853419e4f63406390ab643d0f1cdbcdd3e2cbae5481527f2a87e474c76dec5537d547c3958b767dcf7498ad7afcca0a2eb8ad1481fbf5b6546020808301919091527f8419164215688829c599d418012c77589d6ed4c687dc9e57a4a19678f70f8a315460408301527f8531638db615388f9d93ea5c79a334675d6050f9d301f5b6af156a74ff5696355460608301527f8e8ddf6db11641650f4fdf401a12def6a7e0b43b7e1e0b4a9bb751fc3ac1eab55460808301527f7beb2646ec614ee6b553f9ed5c257fdce28fa220de7a1708afec2ddbe81f1b305460a08301526015600052601690527fe3be994f4df1ce307d3423eeebbbb0cd25598c1b97b848f71392674439a00e375b5460c082015290565b50509050615ece61207a565b7f5d722ae86c7aff0f95f426cf86f75793e8cd1a526603df14563c190f75fd2ef35481527f650982f08e47212452de30f662e413cf6044e641dedc09b52c1617e804a2611e546020808301919091527fd5b9797c47f98351da0d9dc8805f06430ade47345ddb9b2bd6f346a04809cc415460408301527fcfa8b17cfe829ccfb82a1b8bc946a78d914318562253e01c04a5bbac5c20f86b5460608301527f329445f4448b7d20eec86c1386b39f5d1ed2d5f198689536ebcae9f2881958c35460808301527f1f3872f63ca641494b685e4fa2176636d028d8c80f254656e89768cf272432735460a0830152600e600052601690527fd6e1ce7303b8b03e4f8e61fd057015f1c58732e116f2a323c5d9ed9df544bd9a615eb9565b50509050615ff461207a565b7f4c4dc693d7db52f85fe052106f4b4b920e78e8ef37dee82878a60ab8585faf495481527fcaff291fe014adc6b72a172705750b4cabe8f8667664d2924a166caab2885648546020808301919091527ff06d282f967055cb1eee17e04aa005b9682a620f4bbcfaee55ba78607a3d87ae5460408301527fec061709de2491458f4c981032059d7d19b0e55f45018bac6b3e660bdc959a595460608301527f5696377e725b42a372ecc45f0fbdab5e9555865aef54619ad9381892f667bbf05460808301527fc6a239f207aea309a1b4879cb5411b8facfc2bc1e4cc4717ff2598676c399b5f5460a08301526007600052601690527f5c9294642c77fdf0ce4b0f45159c977165b1ec2ef3bb94ee3e2a496634c781e8615eb9565b9060405161611b81611919565b6060600382948054845260018101546020850152600281015460408501520154910152565b67ffffffffffffffff81116119355760051b60200190565b9061616282616140565b61616f60405191826119c7565b8281528092616180601f1991616140565b019060005b82811061619157505050565b60209061619c612e1f565b82828501015201616185565b80518210156107895760209160051b010190565b156161c357565b606460405162461bcd60e51b815260206004820152601960248201527f6f776e2e7361666567756172642e63616c6c2e6661696c6564000000000000006044820152fd5b9081602091031261043857516119fe816109ef565b6001600160a01b03600054166040518091634bf9c0ad60e11b825281600460209384935afa918215610422576119fe926162a4916000916162bf575b5060405161626581611973565b600881527f6973536166652829000000000000000000000000000000000000000000000000848201526040519161629b8361198f565b60008352616835565b9190806162b5575b610709906161bc565b50815181146162ac565b6162d69150833d851161041b5761040c81836119c7565b38616258565b604051906162e982611973565b601582527f69735365637572654261736528616464726573732900000000000000000000006020830152565b1561631c57565b606460405162461bcd60e51b815260206004820152601a60248201527f6f776e2e736563757265626173652e63616c6c2e6661696c65640000000000006044820152fd5b6000546001600160a01b0316604051918291634bf9c0ad60e11b835282600460209485935afa928315610422576119fe936163cc926106dc926000926163e7575b506163c4906040519384918783019190916001600160a01b036020820193169052565b6106f26162dc565b9190806163dd575b61070990616315565b50815181146163d4565b6163c491925061640390863d881161041b5761040c81836119c7565b91906163a1565b6040519061641782611973565b601182527f69735369676e65722861646472657373290000000000000000000000000000006020830152565b1561644a57565b606460405162461bcd60e51b815260206004820152601660248201527f6f776e2e7369676e65722e63616c6c2e6661696c6564000000000000000000006044820152fd5b600460206001600160a01b03600054166040519283809263111ea8c160e21b82525afa8015610422576119fe91600091616510575b506040516164d081611973565b600581527f61676528290000000000000000000000000000000000000000000000000000006020820152604051916165078361198f565b6000835261696b565b616528915060203d811161041b5761040c81836119c7565b386164c3565b6040519061653b82611973565b601882527f697364656c656761746f724e6f646528616464726573732900000000000000006020830152565b6001600160a01b038091169081156165b457600154826001600160a01b0319821617600155167f8292fce18fa69edf4db7b94ea2e58241df0ae57f97e0a6c9b29067028bf92d76600080a3565b606460405162461bcd60e51b815260206004820152601160248201527f6f776e2e696e76616c69642e6f776e65720000000000000000000000000000006044820152fd5b3d15616623573d9061660982612087565b9161661760405193846119c7565b82523d6000602084013e565b606090565b908015611af6576001600160a01b0382169182156166ce57600080808481945af16166516165f8565b501561668a576040519081527fcec1f18c3ab8ddaaa107a1591e3c369667eec613626611a8deaedef43069fcdd9080602081015b0390a2565b606460405162461bcd60e51b815260206004820152601360248201527f6f776e2e7472616e736665722e6661696c6564000000000000000000000000006044820152fd5b606460405162461bcd60e51b815260206004820152600e60248201527f6f776e2e696e76616c69642e746f0000000000000000000000000000000000006044820152fd5b6000600460206001600160a01b03835416604051928380927f46f991ac0000000000000000000000000000000000000000000000000000000082525afa9081156104225782848193829383916167ec575b505af161676e6165f8565b50156167a85760405190815233907fcdcc745fe377b103b45fa0cec23ae3ef93d6fc6a84a01f0d18c40b354dd1d5d8908060208101616685565b606460405162461bcd60e51b815260206004820152600f60248201527f6f776e2e6275726e2e6661696c656400000000000000000000000000000000006044820152fd5b616804915060203d811161041b5761040c81836119c7565b38616763565b906168159291616835565b9060009015616822575090565b60405191506168308261198f565b815290565b9190823b156168cd577fffffffff00000000000000000000000000000000000000000000000000000000815160208093012016916040519180830193845281519160005b8381106168b95750505091816168a6602482600097959688970187838201520360048101845201826119c7565b5191620dbba0fa6168b56165f8565b9091565b818101830151858201602401528201616879565b5050506000906040516168df8161198f565b6000815290565b92916168f491600094616835565b9080616924575b6169025750565b6001600160a01b0391925080602080616920935183010191016119e9565b1690565b5060208151146168fb565b929161693d91600094616835565b9080616960575b61694b5750565b6119fe91925060208082518301019101616207565b506020815114616944565b929161697991600094616835565b908061699e575b6169875750565b909150602081805181010312610438576020015190565b506020815114616980565b90602082519201517fffffffff000000000000000000000000000000000000000000000000000000009081811693600481106169e457505050565b60040360031b82901b16169150565b6001600160a01b03811615616aa457600080918351908260208601915af190616a1a6165f8565b9115616a24575090565b805160009190600411616a9e57616a3b91506169a9565b815115616a4b5750805190602001fd5b6024907fffffffff00000000000000000000000000000000000000000000000000000000604051917f21c09d34000000000000000000000000000000000000000000000000000000008352166004820152fd5b50616a3b565b606460405162461bcd60e51b815260206004820152601260248201527f6f776e2e696e76616c69642e74617267657400000000000000000000000000006044820152fd5b803b6000616af582612087565b92616b0360405194856119c7565b82845260208401903c602d815110616b1f57602a015160601c90565b606460405162461bcd60e51b815260206004820152601360248201527f4e6f742061206d696e696d616c2070726f7879000000000000000000000000006044820152fdfea2646970667358221220a4f69a7483392428313f648354ec55c4d00ab1ffea4cc13af0379951d315039564736f6c63430008140033","linkReferences":{}},"methodIdentifiers":{"instanceStor()":"131c73ad"},"id":69}