{"abi":[{"type":"constructor","inputs":[{"name":"_hex","type":"address","internalType":"address"},{"name":"_price","type":"address","internalType":"address"},{"name":"_old741","type":"address","internalType":"address"}],"stateMutability":"nonpayable"},{"type":"function","name":"dAOAssembly","inputs":[],"outputs":[{"name":"","type":"address","internalType":"address"}],"stateMutability":"view"},{"type":"function","name":"daocore","inputs":[],"outputs":[{"name":"","type":"address","internalType":"address"}],"stateMutability":"view"},{"type":"function","name":"nested741","inputs":[],"outputs":[{"name":"","type":"address","internalType":"address"}],"stateMutability":"view"},{"type":"function","name":"old741","inputs":[],"outputs":[{"name":"","type":"address","internalType":"address"}],"stateMutability":"view"},{"type":"function","name":"price","inputs":[],"outputs":[{"name":"","type":"address","internalType":"address"}],"stateMutability":"view"}],"bytecode":{"object":"0x6080346101b757601f61792138819003918201601f19168301926001600160401b03929091838511838610176101a15781606092849260409788528339810103126101b75761004d816101bc565b6100648461005d602085016101bc565b93016101bc565b9160018060a01b03199273c0cee8b561cc4f60869776ca5b0b7a295e04f5af846001541617600155855161121a9586820196828810828911176101a15761032c83396001600160a01b039485168088526000979092908190036020019088f080156101835785168660035416176003558751614731808201908282108483111761018d5760209183916131f0833985815203019088f08015610183578516866002541617600255875191611caa808401928484109084111761016f579183916020936115468439815203019086f080156101655790838092168560045416176004551683600154161760015516908254161790555161015b90816101d18239f35b86513d87823e3d90fd5b634e487b7160e01b89526041600452602489fd5b88513d89823e3d90fd5b634e487b7160e01b8a52604160045260248afd5b634e487b7160e01b600052604160045260246000fd5b600080fd5b51906001600160a01b03821682036101b75756fe608080604052600436101561001357600080fd5b600090813560e01c90816314837455146100fc5750806314d8d024146100d357806345cff900146100aa5780635540c5ac146100815763a035b1fe1461005857600080fd5b3461007e578060031936011261007e57546040516001600160a01b039091168152602090f35b80fd5b503461007e578060031936011261007e576001546040516001600160a01b039091168152602090f35b503461007e578060031936011261007e576002546040516001600160a01b039091168152602090f35b503461007e578060031936011261007e576004546040516001600160a01b039091168152602090f35b9050346101215781600319360112610121576003546001600160a01b03168152602090f35b5080fdfea2646970667358221220f4583b3b4d644e13e5913680fd7371a5df4d44e3bc6f81b64095670886223d8864736f6c634300081400336080346100ca57601f61121a38819003918201601f19168301916001600160401b038311848410176100cf578084926020946040528339810103126100ca57516001600160a01b038116908190036100ca5780156100855760018060a01b0319338160015416176001556000541617600055600060045560405161113490816100e68239f35b60405162461bcd60e51b815260206004820152601360248201527f6f776e2e696e76616c69642e68657862617365000000000000000000000000006044820152606490fd5b600080fd5b634e487b7160e01b600052604160045260246000fdfe60806040526004361015610018575b361561001657005b005b60003560e01c806312065fe0146101085780631f185d161461010357806325924f34146100fe5780633b9b7955146100f957806361b7fbd9146100f45780638da5cb5b146100ef578063a1f7f539146100ea578063af484526146100e5578063b90306ad146100e0578063c54e44b0146100db578063c89b84fd146100d6578063dbac26e9146100d1578063e01ad5fd146100cc578063e0a9bc2b146100c75763fdc10bc90361000e57610988565b6108e6565b610847565b610805565b6106f2565b610659565b610552565b61047d565b6103c6565b61039d565b6102c7565b610294565b610263565b61013a565b3461012457600036600319011261012457602047604051908152f35b600080fd5b6001600160a01b0381160361012457565b34610124576020806003193601126101245760049081359061015b82610129565b600054819061017a906001600160a01b03165b6001600160a01b031690565b604051634bf9c0ad60e11b815294859182905afa91821561025e576101d161020b936101ed9261021d9660009261022b575b506040516001600160a01b0390911685820190815290926101df918491602090910190565b03601f1981018452836109fe565b6101e7610e02565b90610fa6565b919080610221575b6101fe90610e2f565b8082518301019101610d70565b60405190151581529081906020820190565b0390f35b50815181146101f5565b6101df91925061025090863d8811610257575b61024881836109fe565b810190610a20565b91906101ac565b503d61023e565b610a38565b3461012457602036600319011261012457602061028a60043561028581610129565b610b13565b6040519015158152f35b34610124576000366003190112610124576000546040516001600160a01b039091168152602090f35b8015150361012457565b34610124576040366003190112610124576004356102e481610129565b6024356102f0816102bd565b60018060a01b03600092600460208386541660405192838092630536340960e21b82525afa801561025e5761033091869161037f575b5083163314610cc2565b16825260036020526040822060ff1981541660ff8315151617905560001461036c5760045460001981146103675760010160045580f35b610c9e565b6004548015610367576000190160045580f35b610397915060203d81116102575761024881836109fe565b38610326565b34610124576000366003190112610124576001546040516001600160a01b039091168152602090f35b346101245760003660031901126101245760005460405163d1f956b160e01b815290602090829060049082906001600160a01b03165afa90811561025e5761021d9161044f9160009161045f575b50604051610421816109c1565b601381527267657464656c656761746f72436f756e74282960681b6020820152610449610a60565b916110c0565b6040519081529081906020820190565b610477915060203d81116102575761024881836109fe565b38610414565b34610124576020806003193601126101245760049081359061049e82610129565b60005481906104b5906001600160a01b031661016e565b604051634bf9c0ad60e11b815294859182905afa91821561025e576101d161020b936105149261021d9660009261052f575b506040516001600160a01b03909116858201908152909261050c918491602090910190565b6101e7610d85565b919080610525575b6101fe90610db6565b508151811461051c565b61050c91925061054b90863d88116102575761024881836109fe565b91906104e7565b34610124576020806003193601126101245760043560018060a01b0391600092808454169060405191630536340960e21b83528383600481845afa92831561025e5760049385936105ad92899261063a575b50163314610cc2565b6040516311be646b60e21b815292839182905afa91821561025e578480856105ec9582958395849261061d575b50505af16105e6610f38565b50610f68565b60405190815233907fcdcc745fe377b103b45fa0cec23ae3ef93d6fc6a84a01f0d18c40b354dd1d5d890602090a280f35b6106339250803d106102575761024881836109fe565b38806105da565b610652919250853d87116102575761024881836109fe565b90386105a4565b346101245760203660031901126101245760043561067681610129565b803b600061068382610a44565b9261069160405194856109fe565b82845260208401903c602d8151106106b757602a015160405160609190911c8152602090f35b60405162461bcd60e51b81526020600482015260136024820152724e6f742061206d696e696d616c2070726f787960681b6044820152606490fd5b3461012457600080600319360112610802578054610718906001600160a01b031661016e565b60405163cfbffe5360e01b815260209290918383600481845afa801561025e57610758859160049585916107e5575b50610750610a73565b610449610a60565b916040519485809263ab6e844f60e01b82525afa801561025e5761021d9461044f946107bd94926107c2575b506107af906101d1610794610e74565b94604051958693840160209093929193604081019481520152565b6107b7610c65565b906110c0565b610cb4565b8192506107de906107af923d85116102575761024881836109fe565b9190610784565b6107fc9150833d85116102575761024881836109fe565b38610747565b80fd5b346101245760203660031901126101245760043561082281610129565b60018060a01b03166000526003602052602060ff604060002054166040519015158152f35b3461012457602080600319360112610124576004803561086681610129565b60005460405163d1f956b160e01b81526001600160a01b03949093909182918591829088165afa90811561025e5761021d9461020b946000936108c7575b5060405193168184015282526108b9826109c1565b6108c1610eff565b90611084565b6108df919350823d84116102575761024881836109fe565b91386108a4565b3461012457600036600319011261012457600054604051634bf9c0ad60e11b8152906020908190839060049082906001600160a01b03165afa90811561025e5761095061020b9261021d9460009161096b575b50610942610d00565b61094a610a60565b91610fa6565b919080610961575b6101fe90610d24565b5081518114610958565b6109829150833d85116102575761024881836109fe565b38610939565b346101245760003660031901126101245760206109a3610e74565b604051908152f35b634e487b7160e01b600052604160045260246000fd5b6040810190811067ffffffffffffffff8211176109dd57604052565b6109ab565b6020810190811067ffffffffffffffff8211176109dd57604052565b90601f8019910116810190811067ffffffffffffffff8211176109dd57604052565b908160209103126101245751610a3581610129565b90565b6040513d6000823e3d90fd5b67ffffffffffffffff81116109dd57601f01601f191660200190565b60405190610a6d826109e2565b60008252565b60405190610a80826109c1565b600c82526b72616e6b666f7244414f282960a01b6020830152565b60405190610aa8826109c1565b601682527567657455736572546f53746f7228616464726573732960501b6020830152565b60405190610ada826109c1565b600682526572616e6b282960d01b6020830152565b60405190610afc826109c1565b600882526769734c6f636b282960c01b6020830152565b600054610b28906001600160a01b031661016e565b9060405163cfbffe5360e01b81526020908181600481875afa801561025e57610b5f83916004936000916107e55750610750610a73565b946040519283809263ab6e844f60e01b82525afa801561025e57610bb8928492600092610c42575b506040516001600160a01b03909316908301908152610baa9083906020016101d1565b610bb2610a9b565b90611040565b916001600160a01b03831615610c3a57610bfc610be5610bd6610acd565b610bde610a60565b90866110c0565b93610bee610aef565b610bf6610a60565b91611084565b9210159182610c31575b5081610c10575090565b6001600160a01b031660009081526003602052604090205460ff1615905090565b15915038610c06565b505050600090565b819250610c5e90610baa923d85116102575761024881836109fe565b9190610b87565b60405190610c72826109c1565b601d82527f67657472616e6b636f756e742875696e743235362c75696e74323536290000006020830152565b634e487b7160e01b600052601160045260246000fd5b906003820180921161036757565b15610cc957565b60405162461bcd60e51b815260206004820152600f60248201526e6f776e2e6e6f6e617574682e44414f60881b6044820152606490fd5b60405190610d0d826109c1565b6008825267697353616665282960c01b6020830152565b15610d2b57565b60405162461bcd60e51b815260206004820152601960248201527f6f776e2e7361666567756172642e63616c6c2e6661696c6564000000000000006044820152606490fd5b908160209103126101245751610a35816102bd565b60405190610d92826109c1565b601582527469735365637572654261736528616464726573732960581b6020830152565b15610dbd57565b60405162461bcd60e51b815260206004820152601a60248201527f6f776e2e736563757265626173652e63616c6c2e6661696c65640000000000006044820152606490fd5b60405190610e0f826109c1565b601182527069735369676e657228616464726573732960781b6020830152565b15610e3657565b60405162461bcd60e51b81526020600482015260166024820152751bdddb8b9cda59db995c8b98d85b1b0b99985a5b195960521b6044820152606490fd5b60005460405163111ea8c160e21b815290602090829060049082906001600160a01b03165afa801561025e57610a3591600091610ee1575b50604051610eb9816109c1565b6005815264616765282960d81b602082015260405191610ed8836109e2565b600083526110c0565b610ef9915060203d81116102575761024881836109fe565b38610eac565b60405190610f0c826109c1565b601882527f697364656c656761746f724e6f646528616464726573732900000000000000006020830152565b3d15610f63573d90610f4982610a44565b91610f5760405193846109fe565b82523d6000602084013e565b606090565b15610f6f57565b60405162461bcd60e51b815260206004820152600f60248201526e1bdddb8b989d5c9b8b99985a5b1959608a1b6044820152606490fd5b9190823b15611027578051906020918263ffffffff60e01b92012016916040519180830193845281519160005b838110611013575050509181611000602482600097959688970187838201520360048101845201826109fe565b5191620dbba0fa61100f610f38565b9091565b818101830151858201602401528201610fd3565b505050600090604051611039816109e2565b6000815290565b929161104e91600094610fa6565b9080611079575b61105c5750565b909150602081805181010312610124576020015161016e81610129565b506020815114611055565b929161109291600094610fa6565b90806110b5575b6110a05750565b610a3591925060208082518301019101610d70565b506020815114611099565b92916110ce91600094610fa6565b90806110f3575b6110dc5750565b909150602081805181010312610124576020015190565b5060208151146110d556fea264697066735822122050756a2820c283297632e47ac756de6dc1bd53b9aef862877f3349322df3de2a64736f6c634300081400336080346100cf57601f611caa38819003918201601f19168301916001600160401b038311848410176100d4578084926020946040528339810103126100cf57516001600160a01b038116908190036100cf57801561008a5760018060a01b031933816001541617600155600054161760005560006003556001600455604051611bbf90816100eb8239f35b60405162461bcd60e51b815260206004820152601360248201527f6f776e2e696e76616c69642e68657862617365000000000000000000000000006044820152606490fd5b600080fd5b634e487b7160e01b600052604160045260246000fdfe60806040526004361015610018575b361561001657005b005b60003560e01c8063013cf08b1461016857806312065fe0146101635780631f185d161461015e5780633595df1a146101595780633b9b795514610154578063438596321461014f57806365153c4b1461014a5780638da5cb5b1461014557806398e527d314610140578063995e43391461013b578063a1f7f53914610136578063af48452614610131578063b90306ad1461012c578063c54e44b014610127578063c7f758a814610122578063c9d27afe1461011d578063d153356b14610118578063d3a3084914610113578063e01ad5fd1461010e578063e0a9bc2b146101095763fdc10bc90361000e57610fae565b610f93565b610f6c565b610d1e565b610c4e565b610ada565b610a6b565b610994565b6108e1565b6107cd565b6107aa565b610726565b610708565b6106df565b6105e9565b61057b565b610552565b610515565b6104e4565b6104b7565b610403565b6005548110156101a857600b906005600052027f036b6384b5eca791c62761152d0c79bb0604c104a5fb6f4eb0703f3154bb3db00190600090565b634e487b7160e01b600052603260045260246000fd5b90600182811c921680156101ee575b60208310146101d857565b634e487b7160e01b600052602260045260246000fd5b91607f16916101cd565b9060009291805491610209836101be565b91828252600193848116908160001461026b575060011461022b575b50505050565b90919394506000526020928360002092846000945b838610610257575050505001019038808080610225565b805485870183015294019385908201610240565b9294505050602093945060ff191683830152151560051b01019038808080610225565b634e487b7160e01b600052604160045260246000fd5b6020810190811067ffffffffffffffff8211176102c057604052565b61028e565b6040810190811067ffffffffffffffff8211176102c057604052565b90601f8019910116810190811067ffffffffffffffff8211176102c057604052565b9061031e61031792604051938480926101f8565b03836102e1565b565b60005b8381106103335750506000910152565b8181015183820152602001610323565b9060209161035c81518092818552858086019101610320565b601f01601f1916010190565b9892956103bb959e9d9b956103fb99936101809c9661031e9f9a949960408e61039c6103f19d6101a0808452830190610343565b6001600160a01b03909516602082015201528c820360608e0152610343565b60808b019f909f5260a08a015260c089015260e088015261010087015215156101208601526001600160a01b0316610140850152565b1515610160830152565b019015159052565b346104b25760203660031901126104b2576004356005548110156104b25761042a9061016d565b506040519061043d8261031781846101f8565b600181015460028201546001600160a01b039182169390926104ae929061046660038201610303565b9560048201549160058101546006820154600783015491600a6008850154940154956040519b8c9b8c9760ff8a60b01c169b60ff808c60a81c169c8c60081c169b1699610368565b0390f35b600080fd5b346104b25760003660031901126104b257602047604051908152f35b6001600160a01b038116036104b257565b346104b25760203660031901126104b257602061050b600435610506816104d3565b611633565b6040519015158152f35b346104b25760203660031901126104b257600435600019810190811161054d57600561054260209261016d565b500154604051908152f35b6110e5565b346104b25760003660031901126104b2576000546040516001600160a01b039091168152602090f35b346104b25760403660031901126104b25760043560243561059b816104d3565b600019820191821161054d576105d360ff9160096105ba60209561016d565b50019060018060a01b0316600052602052604060002090565b54166040519015158152f35b801515036104b257565b346104b25760403660031901126104b257600435602435610609816105df565b61061233611633565b156106a55760001982019180831161054d576106a06106336100169461016d565b503360009081526009820160205260409020546106539060ff1615611240565b61068c600a8201549161066c60ff8460b01c16156111fc565b61067860ff841661117d565b60076106826116df565b91015411156112c1565b60081c6001600160a01b0316331415611280565b611312565b60405162461bcd60e51b815260206004820152601260248201527137bbb71734b73b30b634b21739b4b3b732b960711b6044820152606490fd5b346104b25760003660031901126104b2576001546040516001600160a01b039091168152602090f35b346104b25760003660031901126104b2576020600554604051908152f35b346104b25760203660031901126104b257600435600019810190811161054d5761074f9061016d565b506004810154600682015460078301546008840154600a9094015460408051948552602085019390935291830152606082019290925260ff60a883901c81161515608083015260b09290921c909116151560a082015260c090f35b346104b25760003660031901126104b25760206107c561184c565b604051908152f35b346104b2576020806003193601126104b2576004908135906107ee826104d3565b60005481906001600160a01b0316604051634bf9c0ad60e11b815294859182905afa9182156108dc5761085361088d9361086f926104ae966000926108a9575b506040516001600160a01b039091168582019081529092610861918491602090910190565b03601f1981018452836102e1565b610869611544565b906119dd565b91908061089f575b61088090611575565b8082518301019101611481565b60405190151581529081906020820190565b5081518114610877565b6108619192506108ce90863d88116108d5575b6108c681836102e1565b8101906113f5565b919061082e565b503d6108bc565b61140d565b346104b25760203660031901126104b257600054604051630536340960e21b8152906001600160a01b03906020908390600490829085165afa9182156108dc57600092610974575b503391160361093d5761001660043561190c565b60405162461bcd60e51b815260206004820152600f60248201526e6f776e2e6e6f6e617574682e44414f60881b6044820152606490fd5b61098d91925060203d81116108d5576108c681836102e1565b9038610929565b346104b25760203660031901126104b2576004356109b1816104d3565b803b60006109be82611419565b926109cc60405194856102e1565b82845260208401903c602d8151106109f257602a015160405160609190911c8152602090f35b60405162461bcd60e51b81526020600482015260136024820152724e6f742061206d696e696d616c2070726f787960681b6044820152606490fd5b93610a466080949796939260a0875260a0870190610343565b6001600160a01b03928316602087015260408601979097521660608401521515910152565b346104b25760203660031901126104b257600435600019810190811161054d57610a949061016d565b5060018060a01b036104ae81600184015416926103176002820154610ac4600a84015493604051938480926101f8565b60405195869560ff85169460081c169286610a2d565b346104b25760403660031901126104b257600435602435610afa816105df565b610b0333611633565b8015610c2b575b610b1390611129565b610c00610bf3610b2a610b258561116e565b61016d565b50600a81015490610b3d60ff831661117d565b610b546007820154610b4d6116df565b11156111bd565b610b6460ff8360b01c16156111fc565b610ba1600982019261068c610b9c610b98610b9133889060018060a01b0316600052602052604060002090565b5460ff1690565b1590565b611240565b60008515610c26575060015b610bbf60ff600484019216825461111c565b9055600085610c185750610bde60ff60066001935b019216825461111c565b90553360009081526020919091526040902090565b805460ff19166001179055565b610c0933611633565b610c0f57005b61001691611312565b60ff6006610bde9293610bd4565b610bad565b50610c34611496565b8015610b0a5750610b13610c473361176a565b9050610b0a565b346104b25760403660031901126104b257610c67611496565b15610cb657333003610c8157600480356003556024359055005b60405162461bcd60e51b815260206004820152600d60248201526c64616f2e66616b652e636f726560981b6044820152606490fd5b60405162461bcd60e51b81526020600482015260126024820152716f776e2e696e76616c69642e69735361666560701b6044820152606490fd5b9181601f840112156104b25782359167ffffffffffffffff83116104b257602083818601950101116104b257565b346104b25760a03660031901126104b25767ffffffffffffffff6004358181116104b257610d50903690600401610cf0565b602435610d5c816104d3565b6064358481116104b257610d74903690600401610cf0565b9390926001600160a01b03831615610f325760055491680100000000000000008310156102c057610dac60019384810160055561016d565b509682116102c057610dc882610dc289546101be565b89610fc9565b600090601f8311600114610eb85793600a969383610e9f999794610e2794610e3898600092610ead575b5050600019600383901b1c191690821b1787555b860180546001600160a01b0319166001600160a01b03909216919091179055565b60443560028501556003840161101d565b610e5e610e57610e52610e4961184c565b600354906110fb565b61110e565b6064900490565b6008820155610e76608435610e716116df565b61111c565b6007820155018054610100600160a81b0319163360081b610100600160a81b0316178155610bf3565b600554604051908152602090f35b013590503880610df2565b601f19831691610ecd89600052602060002090565b92815b818110610f1c57509484610e2794610e3898948394610e9f9d9b98600a9d9a10610f02575b505050811b018755610e06565b0135600019600384901b60f8161c19169055388080610ef5565b8383013585559386019360209283019201610ed0565b60405162461bcd60e51b815260206004820152601260248201527137bbb7173232b330bab63a1739b2b73232b960711b6044820152606490fd5b346104b25760203660031901126104b257602061050b600435610f8e816104d3565b61176a565b346104b25760003660031901126104b257602061050b611496565b346104b25760003660031901126104b25760206107c56116df565b90601f8111610fd757505050565b600091825260208220906020601f850160051c83019410611013575b601f0160051c01915b82811061100857505050565b818155600101610ffc565b9092508290610ff3565b90929167ffffffffffffffff81116102c0576110438161103d84546101be565b84610fc9565b6000601f821160011461107d5781929394600092611072575b50508160011b916000199060031b1c1916179055565b01359050388061105c565b601f1982169461109284600052602060002090565b91805b8781106110cd5750836001959697106110b3575b505050811b019055565b0135600019600384901b60f8161c191690553880806110a9565b90926020600181928686013581550194019101611095565b634e487b7160e01b600052601160045260246000fd5b8181029291811591840414171561054d57565b906063820180921161054d57565b9190820180921161054d57565b1561113057565b60405162461bcd60e51b815260206004820152601660248201527564616f2e6e6f6e617574682e64656c656761746f727360501b6044820152606490fd5b60001981019190821161054d57565b1561118457565b60405162461bcd60e51b815260206004820152601160248201527019185bcb9c1c9bdc0b9b9bdd195e1a5cdd607a1b6044820152606490fd5b156111c457565b60405162461bcd60e51b815260206004820152601060248201526f19185bcb9d9bdd1a5b99cb995b99195960821b6044820152606490fd5b1561120357565b60405162461bcd60e51b815260206004820152601560248201527419185bcb985b1c9958591e4b98dbdb5c1b195d1959605a1b6044820152606490fd5b1561124757565b60405162461bcd60e51b815260206004820152601160248201527019185bcb985b1c9958591e4b9d9bdd1959607a1b6044820152606490fd5b1561128757565b60405162461bcd60e51b815260206004820152601260248201527119185bcb9d9bdd195c8b9c995cdd1c9a58dd60721b6044820152606490fd5b156112c857565b60405162461bcd60e51b815260206004820152601360248201527264616f2e6265666f72652e646561646c696e6560681b6044820152606490fd5b600019811461054d5760010190565b610b2561131e9161116e565b506005810161132d8154611303565b8091556004541480156113ed575b611343575050565b600a8101805460ff60b01b1916600160b01b1781556113ad9261138891816113da575b816113b057805460ff60a81b191691151560a81b60ff60a81b16919091179055565b60018101546001600160a01b03166113a7600360028401549301610303565b90611aca565b50565b60048401546006850154109150805460ff60a81b191691151560a81b60ff60a81b16919091179055565b6004840154600885015411159150611366565b50811561133b565b908160209103126104b2575161140a816104d3565b90565b6040513d6000823e3d90fd5b67ffffffffffffffff81116102c057601f01601f191660200190565b1561143c57565b60405162461bcd60e51b815260206004820152601960248201527f6f776e2e7361666567756172642e63616c6c2e6661696c6564000000000000006044820152606490fd5b908160209103126104b2575161140a816105df565b600054604051634bf9c0ad60e11b8152906020908190839060049082906001600160a01b03165afa9182156108dc5761140a9261150c91600091611527575b506040516114e2816102c5565b6008815267697353616665282960c01b8482015260405191611503836102a4565b600083526119dd565b91908061151d575b61088090611435565b5081518114611514565b61153e9150833d85116108d5576108c681836102e1565b386114d5565b60405190611551826102c5565b601582527469735365637572654261736528616464726573732960581b6020830152565b1561157c57565b60405162461bcd60e51b815260206004820152601a60248201527f6f776e2e736563757265626173652e63616c6c2e6661696c65640000000000006044820152606490fd5b604051906115ce826102c5565b601182527069735369676e657228616464726573732960781b6020830152565b156115f557565b60405162461bcd60e51b81526020600482015260166024820152751bdddb8b9cda59db995c8b98d85b1b0b99985a5b195960521b6044820152606490fd5b6000546001600160a01b0316604051918291634bf9c0ad60e11b835282600460209485935afa9283156108dc5761140a936116a192610853926000926116bc575b506040516001600160a01b039091168582019081529092611699918491602090910190565b6108696115c1565b9190806116b2575b610880906115ee565b50815181146116a9565b6116999192506116d890863d88116108d5576108c681836102e1565b9190611674565b60005460405163111ea8c160e21b815290602090829060049082906001600160a01b03165afa80156108dc5761140a9160009161174c575b50604051611724816102c5565b6005815264616765282960d81b602082015260405191611743836102a4565b60008352611a5b565b611764915060203d81116108d5576108c681836102e1565b38611717565b60005460405163d1f956b160e01b8152916020916001600160a01b039083908590600490829085165afa9384156108dc57600094611827575b506040519116828201528181526117fa906117bd816102c5565b6040516117c9816102c5565b601881527f697364656c656761746f724e6f64652861646472657373290000000000000000848201526000946119dd565b91908061181d575b61180b57505090565b61140a92508082518301019101611481565b5080825114611802565b6117fa9291945061184490843d86116108d5576108c681836102e1565b9390916117a3565b60005460405163d1f956b160e01b815290602090829060049082906001600160a01b03165afa80156108dc5761140a916000916118be575b50604051611891816102c5565b601381527267657464656c656761746f72436f756e74282960681b602082015260405191611743836102a4565b6118d6915060203d81116108d5576108c681836102e1565b38611884565b3d15611907573d906118ed82611419565b916118fb60405193846102e1565b82523d6000602084013e565b606090565b600080546040516311be646b60e21b815290602090829060049082906001600160a01b03165afa9081156108dc5782848193829383916119bf575b505af16119526118dc565b50156119885760405190815233907fcdcc745fe377b103b45fa0cec23ae3ef93d6fc6a84a01f0d18c40b354dd1d5d890602090a2565b60405162461bcd60e51b815260206004820152600f60248201526e1bdddb8b989d5c9b8b99985a5b1959608a1b6044820152606490fd5b6119d7915060203d81116108d5576108c681836102e1565b38611947565b803b15611a4257600092839263ffffffff60e01b90602081519101201690611a2f6024604051809360208201958652611a1f8151809260208686019101610320565b81010360048101845201826102e1565b5191620dbba0fa611a3e6118dc565b9091565b505050600090604051611a54816102a4565b6000815290565b9291611a69916000946119dd565b9080611a8e575b611a775750565b9091506020818051810103126104b2576020015190565b506020815114611a70565b906020825192015163ffffffff60e01b908181169360048110611abb57505050565b60040360031b82901b16169150565b9091906001600160a01b03811615611b4f57600091829184519160208601915af190611af46118dc565b9115611afe575090565b805160009190600411611b4957611b159150611a99565b815115611b255750805190602001fd5b604051630870274d60e21b81526001600160e01b0319919091166004820152602490fd5b50611b15565b60405162461bcd60e51b81526020600482015260126024820152711bdddb8b9a5b9d985b1a590b9d185c99d95d60721b6044820152606490fdfea264697066735822122049c3fdfe4ac8f46cf3e7e20f92bac465391e4491282a86c13792387ce14b70cc64736f6c63430008140033608034620000d157601f6200473138819003918201601f19168301916001600160401b03831184841017620000d657808492602094604052833981010312620000d157516001600160a01b03811690819003620000d15780156200008c5760018060a01b031933816001541617600155600054161760005560016003556040516146449081620000ed8239f35b60405162461bcd60e51b815260206004820152601360248201527f6f776e2e696e76616c69642e68657862617365000000000000000000000000006044820152606490fd5b600080fd5b634e487b7160e01b600052604160045260246000fdfe60806040526004361015610018575b361561001657005b005b60003560e01c8063033eeffb146103085780630e5fd00b1461030357806312065fe0146102fe5780631bb49f02146102f95780631c53c280146102f45780631f185d16146102ef5780632a687c87146102ea5780632fefc0bf146102e557806332ff4eab146102e057806333b59a5b146102db5780633a7b55b8146102d65780633b9b7955146102d15780633baee0ea146102cc578063419cb27b146102c757806342cc9d57146102c257806344585097146102bd578063477968f2146102b85780634f0f4aa9146102b3578063509222cd146102ae57806350db85d1146102a957806361ea7208146102a4578063629d671e1461029f5780636a8112441461029a57806376fe6c451461029557806380f85e3314610290578063849c22ad1461028b578063896c354a146102865780638da5cb5b1461028157806395f72f491461027c57806398b3f21514610277578063a1f7f53914610272578063a87af7691461026d578063a89d693b14610268578063af48452614610263578063b1c490791461025e578063b366335e14610259578063b90306ad14610254578063c54e44b01461024f578063c871372b1461024a578063d1e0bbc614610245578063dcb3fc4a14610240578063e01ad5fd1461023b578063e0a9bc2b14610236578063eb95c66214610231578063f3ca71241461022c578063fd38093b146102275763fdc10bc90361000e57612326565b6122b6565b61228a565b61225e565b612243565b6121a4565b611fd4565b611f9a565b611f12565b611e79565b611dc6565b611d13565b611bf2565b611bcb565b611aac565b6119b7565b6118f6565b6118ca565b611820565b6117f7565b6117b7565b611788565b61174e565b6116ff565b6112b5565b611278565b61125a565b611197565b611144565b61105a565b610ecc565b610e95565b610e66565b610e2c565b610998565b610947565b6107db565b610703565b610659565b610622565b610573565b61044e565b61041a565b6103b5565b610399565b61034a565b3461033457602036600319011261033457600435600052600b6020526020604060002054604051908152f35b600080fd5b6001600160a01b0381160361033457565b3461033457602036600319011261033457602060043561036981610339565b60018060a01b03809116600052600482526040600020546000526007825260046040600020015416604051908152f35b3461033457600036600319011261033457602047604051908152f35b34610334576020366003190112610334576004356103d281610339565b6001600160a01b0390811660009081526004602090815260408083205483526007825280832060020154808452600583529281902054815193845290931690820152f35b0390f35b34610334576020366003190112610334576004356000526005602052602060018060a01b0360406000205416604051908152f35b34610334576020806003193601126103345760049081359061046f82610339565b600054819061048e906001600160a01b03165b6001600160a01b031690565b604051634bf9c0ad60e11b815294859182905afa91821561056e576104e561051f93610501926104169660009261053b575b506040516001600160a01b0390911685820190815290926104f3918491602090910190565b03601f1981018452836123f1565b6104fb614168565b906143ca565b919080610531575b61051290614195565b8082518301019101613f7c565b60405190151581529081906020820190565b5081518114610509565b6104f391925061056090863d8811610567575b61055881836123f1565b81019061261c565b91906104c0565b503d61054e565b612631565b346103345760403660031901126103345761059461058f613f91565b6125db565b61059d336140bc565b80156105bb575b6105ad9061263d565b610016602435600435613d10565b50600054604051630536340960e21b8152906001600160a01b03906020908390600490829085165afa90811561056e576105ad92600092610602575b5016331490506105a4565b61061b91925060203d81116105675761055881836123f1565b90386105f7565b34610334576020366003190112610334576004356000526007602052602060018060a01b0360056040600020015416604051908152f35b346103345760403660031901126103345761067561058f613f91565b61067e336140bc565b801561069c575b61068e9061263d565b610016602435600435613d64565b50600054604051630536340960e21b8152906001600160a01b03906020908390600490829085165afa90811561056e5761068e926000926106e3575b501633149050610685565b6106fc91925060203d81116105675761055881836123f1565b90386106d8565b346103345760403660031901126103345761071f61058f613f91565b610728336140bc565b8015610746575b6107389061263d565b610016602435600435613df7565b50600054604051630536340960e21b8152906001600160a01b03906020908390600490829085165afa90811561056e576107389260009261078d575b50163314905061072f565b6107a691925060203d81116105675761055881836123f1565b9038610782565b60e0810192916000915b600783106107c457505050565b6001908251815260208091019201920191906107b7565b34610334576020366003190112610334576104166004356109356109256040519261080584612380565b60e0368537610831610821826000526009602052604060002090565b6001600052602052604060002090565b54845261085b61084b826000526009602052604060002090565b6002600052602052604060002090565b546020850152610888610878826000526009602052604060002090565b6003600052602052604060002090565b5460408501526108b56108a5826000526009602052604060002090565b6004600052602052604060002090565b5460608501526108e26108d2826000526009602052604060002090565b6005600052602052604060002090565b54608085015261090f6108ff826000526009602052604060002090565b6006600052602052604060002090565b5460a08501526000526009602052604060002090565b6007600052602052604060002090565b5460c0820152604051918291826107ad565b34610334576000366003190112610334576000546040516001600160a01b039091168152602090f35b60409060031901126103345760043561098881610339565b9060243561099581610339565b90565b34610334576109f76109a936610970565b6109b16125b8565b6109ca6109bc612442565b6109c461245a565b33614464565b91610a186109e16109d9612442565b6109c461247d565b6001600160a01b039584871695871686146124a5565b6000548690610a109082166001600160a01b0316610482565b9116146124f1565b610a23831515612e50565b6001600160a01b038216600090815260046020526040902054158015610e21575b610a4d90612e92565b6001600160a01b0381166000908152600460205260409020610a7190541515612ed5565b610ab46005610aa6610a958460018060a01b03166000526004602052604060002090565b546000526007602052604060002090565b01546001600160a01b031690565b6040805163880cdc3160e01b6020808301919091526001600160a01b03861660248084019190915282529196919592601f1991610afb91610af66044836123f1565b614553565b50610b236104826004610aa6610a958860018060a01b03166000526004602052604060002090565b15610ce857610c4095610b8091610af6610b576004610aa6610a958a60018060a01b03166000526004602052604060002090565b8a5162e6724f60e21b948101949094523360248501529183604481015b039081018452836123f1565b505b6001600160a01b0383811660009081526004602090815260408083205493881683528083208490559282526005905220610bd89085905b80546001600160a01b0319166001600160a01b03909216919091179055565b610c1d336004610bfd610a958860018060a01b03166000526004602052604060002090565b0180546001600160a01b0319166001600160a01b03909216919091179055565b821603610cca575b506001600160a01b0316600090815260046020526040902090565b54610416610c5d6005610aa6846000526007602052604060002090565b92610c99610c8c6002610c7a866000526007602052604060002090565b01546000526005602052604060002090565b546001600160a01b031690565b90610ca46001600355565b519283526001600160a01b03938416602084015290921660408201529081906060820190565b6001600160a01b031660009081526004602052604081205538610c25565b600054600496908190610d03906001600160a01b0316610482565b895163111ea8c160e21b815298899182905afa96871561056e57610c4097610d6791600091610e04575b5089516001600160a01b038816848201908152909190610d599083906020015b038681018452836123f1565b610d61612f21565b90614464565b838116151580610dfa575b610d7f575b505050610b82565b8851634fb2e45d60e01b83820152336024820152610df193610af691610db990610db38160448101038481018352826123f1565b84614553565b508a5193630a3e884b60e41b9085015283610b7460248201906007606060808401936000815260006020820152600060408201520152565b50388080610d77565b5080311515610d72565b610e1b9150833d85116105675761055881836123f1565b38610d2d565b508084168314610a44565b34610334576020366003190112610334576020610e5c600435600052600760205260ff6001604060002001541690565b6040519015158152f35b346103345760203660031901126103345760043560005260076020526020600360406000200154604051908152f35b34610334576020366003190112610334576004356000526007602052602060018060a01b0360046040600020015416604051908152f35b346103345760008060031936011261105757610eee610ee96141da565b600255565b610f04600254610eff811515613afd565b612890565b8154610f18906001600160a01b0316610482565b90604051809263cfbffe5360e01b825281600460209586935afa90811561056e57610f6d91610f5f91869161103a575b50610f51613b3e565b610f5961242f565b9161439f565b838082518301019101613b77565b610f8182600052600c602052604060002090565b5460015b6007811115610f92578580f35b80610fbd61102692610fae876000526008602052604060002090565b90600052602052604060002090565b54801561103457610fd6610fd083612890565b86613bf4565b5187815192831561102b57610ffd61100292610ff5611008968a613c16565b940151613c05565b613c16565b90613c29565b61102082610fae886000526009602052604060002090565b55612a92565b610f85565b50505050612a92565b50612a92565b6110519150853d87116105675761055881836123f1565b38610f48565b80fd5b3461033457602036600319011261033457600435806000526007602052604060002054600560205261041660018060a01b03806040600020541693600760205260406000209160046002840154930154166110c46005610aa6846000526007602052604060002090565b9060036110fc6110eb60016110e3876000526007602052604060002090565b015460ff1690565b946000526007602052604060002090565b0154604080519788526001600160a01b03988916602089015287019490945286166060860152909416608084015292151560a083015260c082019290925290819060e0820190565b346103345760203660031901126103345760043561116181610339565b60018060a01b031660005260046020526040600020546000526007602052602060ff600160406000200154166040519015158152f35b34610334576111a536610970565b6111b061058f613f91565b6111b9336140bc565b80156111ed575b916111cd6111d29361263d565b612689565b604080519283526001600160a01b0391909116602083015290f35b50600054604051630536340960e21b81526001600160a01b0393916020908290600490829088165afa801561056e576111d2946111cd9260009261123a575b5033911614919350506111c0565b61125391925060203d81116105675761055881836123f1565b903861122c565b34610334576000366003190112610334576020600654604051908152f35b346103345760203660031901126103345760043561129581610339565b60018060a01b031660005260046020526020604060002054604051908152f35b34610334576040806003193601126103345760048035906112d46125b8565b6112f56112f060016110e3856000526007602052604060002090565b612dac565b61131a61131361048283610aa6866000526007602052604060002090565b3314612f50565b611325610ee96141da565b61133e6005610aa6846000526007602052604060002090565b906002549284519361139b61138d60209663015042f960e11b8882015280611379602495863587840160209093929193604081019481520152565b0396610af6601f19988981018452836123f1565b868082518301019101613631565b938451956113ae818701978851906125ab565b946113be898801968751906125ab565b936113cf60608901958651906125ab565b946113e060808a01968751906125ab565b996113f96113f460e08c019c8d51906125ab565b613cb6565b8951611657575b80516115ae575b508051611507575b508451611450575b89896104168961142c8a60c08e0151906136ab565b5191519261143a6001600355565b5191825260208201929092529081906040820190565b6000549497939594929392849061146f906001600160a01b0316610482565b8b516313b92d3560e31b815293849182905afa97881561056e576104169861142c9760c0968d6114d6966000946114e0575b509351935163a9059cbb60e01b9181019190915233948101948552602085019390935291929091610af6918490604001610b74565b5094829338611417565b610af69450906114ff610b7492843d86116105675761055881836123f1565b9450906114a1565b60005483908590611520906001600160a01b0316610482565b8d51635506ee0b60e11b815292839182905afa91821561056e57611586928d61157a9360009261158d575b509151915163a9059cbb60e01b88820152338682019081526020810193909352929091610af691849160400190565b038881018452836123f1565b503861140f565b610af692506115a890893d8b116105675761055881836123f1565b9161154b565b600054849086908e906115c9906001600160a01b0316610482565b90516330125cf560e01b815292839182905afa91821561056e5761162f928e61162393600092611636575b509151915163a9059cbb60e01b89820152338782019081526020810193909352929091610af691849160400190565b038981018452836123f1565b5038611407565b610af69250611651908a3d8c116105675761055881836123f1565b916115f4565b600054849086908e90611672906001600160a01b0316610482565b9051636402742760e01b815292839182905afa801561056e578b6116cc918f6116d8946000926116de575b509151915163a9059cbb60e01b8a820152338882019081526020810193909352929091610af691849160400190565b038a81018452836123f1565b50611400565b610af692506116f9908b3d8d116105675761055881836123f1565b9161169d565b3461033457602036600319011261033457602060043561171e81610339565b60018060a01b03809116600052600482526040600020546000526007825260056040600020015416604051908152f35b3461033457604036600319011261033457600435600052600860205260406000206024356000526020526020604060002054604051908152f35b346103345760203660031901126103345760043560005260076020526020600260406000200154604051908152f35b3461033457604036600319011261033457600435600052600760205260206117e86024356003604060002001612c85565b90549060031b1c604051908152f35b34610334576000366003190112610334576001546040516001600160a01b039091168152602090f35b346103345760403660031901126103345761183c61058f613f91565b611845336140bc565b8015611863575b6118559061263d565b610016602435600435613d3a565b50600054604051630536340960e21b8152906001600160a01b03906020908390600490829085165afa90811561056e57611855926000926118aa575b50163314905061184c565b6118c391925060203d81116105675761055881836123f1565b903861189f565b3461033457602036600319011261033457600435600052600f6020526020604060002054604051908152f35b346103345760003660031901126103345760005460405163d1f956b160e01b815290602090829060049082906001600160a01b03165afa90811561056e576104169161197f9160009161198f575b506040516119518161239c565b601381527267657464656c656761746f72436f756e74282960681b602082015261197961242f565b916144e4565b6040519081529081906020820190565b6119a7915060203d81116105675761055881836123f1565b38611944565b8015150361033457565b34610334576060366003190112610334576024356119d481610339565b6044356119e0816119ad565b6119eb61058f613f91565b6119f4336140bc565b8015611a10575b91611a086100169361263d565b6004356130d6565b50600054604051630536340960e21b81526001600160a01b0393916020908290600490829088165afa801561056e5761001694611a0892600092611a5d575b5033911614919350506119fb565b611a7691925060203d81116105675761055881836123f1565b9038611a4f565b610100810192916000915b60088310611a9557505050565b600190825181526020809101920192019190611a88565b3461033457602036600319011261033457610416600435611bb9610925611ad1613c49565b92611af8611ae9826000526008602052604060002090565b60008052602052604060002090565b548452611b12610821826000526008602052604060002090565b546020850152611b2f61084b826000526008602052604060002090565b546040850152611b4c610878826000526008602052604060002090565b546060850152611b696108a5826000526008602052604060002090565b546080850152611b866108d2826000526008602052604060002090565b5460a0850152611ba36108ff826000526008602052604060002090565b5460c08501526000526008602052604060002090565b5460e082015260405191829182611a7d565b34610334576020366003190112610334576020610e5c600435611bed81610339565b6140bc565b3461033457611c9f611c0336610970565b90611c0c6125b8565b611c55611c1a6109bc612442565b611c256109d9612442565b906001600160a01b0390611c3e908216868316146124a5565b600054610a109082166001600160a01b0316610482565b611c81611c7c60016110e3610a958560018060a01b03166000526004602052604060002090565b612536565b611c8c610ee96141da565b611c986002805461289f565b3390612aa1565b611cb8611ae96002546000526008602052604060002090565b611cc28154612598565b9055611ccc613ce2565b611ce56005610aa6836000526007602052604060002090565b90611cef81612df0565b611cf96001600355565b604080519182526001600160a01b03929092166020820152f35b3461033457602036600319011261033457611d2f61058f613f91565b611d38336140bc565b8015611d53575b611d489061263d565b61001660043561287d565b50600054600490602090611d6f906001600160a01b0316610482565b604051630536340960e21b815292839182905afa801561056e57611d4891600091611da8575b506001600160a01b031633149050611d3f565b611dc0915060203d81116105675761055881836123f1565b38611d95565b3461033457602036600319011261033457600054604051630536340960e21b8152906001600160a01b03906020908390600490829085165afa91821561056e57600092611e59575b5033911603611e22576100166004356142ce565b60405162461bcd60e51b815260206004820152600f60248201526e6f776e2e6e6f6e617574682e44414f60881b6044820152606490fd5b611e7291925060203d81116105675761055881836123f1565b9038611e0e565b3461033457602036600319011261033457600435611e9681610339565b803b6000611ea382612413565b92611eb160405194856123f1565b82845260208401903c602d815110611ed757602a015160405160609190911c8152602090f35b60405162461bcd60e51b81526020600482015260136024820152724e6f742061206d696e696d616c2070726f787960681b6044820152606490fd5b604036600319011261033457600435611f296125b8565b611f316141da565b6002556000908082526007602052611f5260ff600160408520015416612dac565b81526007602052611f9160018060a01b036005604084200154166040519062a0e53360e51b6020830152602435602483015260248252610af68261235f565b50600160035580f35b3461033457604036600319011261033457600435600052600a60205260406000206024356000526020526020604060002054604051908152f35b346103345760c036600319011261033457602435600435611ff482610339565b60643590608435906120046125b8565b6120206112f060016110e3846000526007602052604060002090565b61203f6113136104826004610aa6856000526007602052604060002090565b61204a610ee96141da565b6120566002805461289f565b61205f82613c5e565b61206883613c8a565b6120e76120d961137961208a6005610aa6866000526007602052604060002090565b604051634996516b60e11b6020808301919091526001600160a01b039099166024820152604480359082015260648101889052608481019690965260a4803590870152969490819060c4820190565b838082518301019101612f9c565b9281612104575b50506120fa93506138e1565b6100166001600355565b60005460049291908190612120906001600160a01b0316610482565b604051635e09dbe760e01b815294859182905afa801561056e576120fa9761217b94600092612183575b5060405163a9059cbb60e01b9381019390935233602484015260448301939093529091610af6908360648101610b74565b5038806120ee565b610af6925061219e90843d86116105675761055881836123f1565b9161214a565b346103345760208060031936011261033457600480356121c381610339565b60005460405163d1f956b160e01b81526001600160a01b03949093909182918591829088165afa90811561056e576104169461051f94600093612224575b5060405193168184015282526122168261239c565b61221e614265565b906144a8565b61223c919350823d84116105675761055881836123f1565b9138612201565b34610334576000366003190112610334576020610e5c613f91565b3461033457602036600319011261033457600435600052600c6020526020604060002054604051908152f35b3461033457602036600319011261033457600435600052600e6020526020604060002054604051908152f35b3461033457604080600319360112610334576004356122d481610339565b6001600160a01b0316600081815260046020818152848320548352600b815284832054938352908152838220548252600a81528382206024358352815290839020549251918252810191909152604090f35b346103345760003660031901126103345760206123416141da565b604051908152f35b634e487b7160e01b600052604160045260246000fd5b6060810190811067ffffffffffffffff82111761237b57604052565b612349565b60e0810190811067ffffffffffffffff82111761237b57604052565b6040810190811067ffffffffffffffff82111761237b57604052565b6020810190811067ffffffffffffffff82111761237b57604052565b610100810190811067ffffffffffffffff82111761237b57604052565b90601f8019910116810190811067ffffffffffffffff82111761237b57604052565b67ffffffffffffffff811161237b57601f01601f191660200190565b6040519061243c826123b8565b60008252565b60405161244e816123b8565b60008152906000368137565b604051906124678261239c565b60078252666f776e6572282960c81b6020830152565b6040519061248a8261239c565b600c82526b67657448657862617365282960a01b6020830152565b156124ac57565b60405162461bcd60e51b815260206004820152601760248201527f6e65737465642e696e76616c69642e696e7374616e63650000000000000000006044820152606490fd5b156124f857565b60405162461bcd60e51b81526020600482015260166024820152756e65737465642e696e76616c69642e6865786261736560501b6044820152606490fd5b1561253d57565b60405162461bcd60e51b815260206004820152601860248201527f6e65737465642e706172656e742e6e6f742e65786973747300000000000000006044820152606490fd5b634e487b7160e01b600052601160045260246000fd5b90600182018092116125a657565b612582565b919082018092116125a657565b6002600354146125c9576002600355565b604051633ee5aeb560e01b8152600490fd5b156125e257565b60405162461bcd60e51b81526020600482015260126024820152716f776e2e696e76616c69642e69735361666560701b6044820152606490fd5b90816020910312610334575161099581610339565b6040513d6000823e3d90fd5b1561264457565b60405162461bcd60e51b815260206004820152601b60248201527f6f776e2e6e6f6e617574682e44414f6f725365637572656261736500000000006044820152606490fd5b612736929161273c60049261269c6125b8565b6126cf6126ca6126c660016110e3610a958860018060a01b03166000526004602052604060002090565b1590565b612a4e565b6126e26126dd600654612a92565b600655565b60065495869161270085610bb9856000526005602052604060002090565b6001600160a01b038516600090815260046020526040902083905b556001600160a01b0316600090815260046020526040902090565b54612ce3565b61276582612754866000526007602052604060002090565b0180546001600160a01b0319169055565b60005460209061277d906001600160a01b0316610482565b60405163e09d394d60e01b815293849182905afa801561056e576127b06127c6916128309460009161285f575b50612c07565b6005610bfd876000526007602052604060002090565b6127df6005610aa6866000526007602052604060002090565b600054610af6906127f8906001600160a01b0316610482565b6040516352902c5960e01b60208201526001600160a01b039182166024820152931660448401526064830186905282608481016104e5565b506000828152600760205260409020600501546001600160a01b03169161285681612df0565b91906001600355565b612877915060203d81116105675761055881836123f1565b386127aa565b61288e906128896141da565b61289f565b565b6000198101919082116125a657565b906128b7611ae9836000526008602052604060002090565b541580612a44575b80612a3b575b6128cd575050565b6128e9906128e36128dd84612890565b91612890565b9061289f565b612908611ae96128f883612890565b6000526008602052604060002090565b54612920611ae9836000526008602052604060002090565b556129306108216128f883612890565b54612948610821836000526008602052604060002090565b5561295861084b6128f883612890565b5461297061084b836000526008602052604060002090565b556129806108786128f883612890565b54612998610878836000526008602052604060002090565b556129a86108a56128f883612890565b546129c06108a5836000526008602052604060002090565b556129d06108d26128f883612890565b546129e86108d2836000526008602052604060002090565b556129f86108ff6128f883612890565b54612a106108ff836000526008602052604060002090565b55612a38610925612a266109256128f885612890565b54926000526008602052604060002090565b55565b508015156128c5565b50600182116128bf565b15612a5557565b60405162461bcd60e51b81526020600482015260156024820152746e65737465642e616c72656164792e65786973747360581b6044820152606490fd5b60001981146125a65760010190565b91612b39600492612b2461273695612ad96126ca6126c660016110e3610a958a60018060a01b03166000526004602052604060002090565b612ae76126dd600654612a92565b600654968791612b0587610bb9856000526005602052604060002090565b6001600160a01b0387166000908152600460205260409020839061271b565b83610bfd866000526007602052604060002090565b600054602090612b51906001600160a01b0316610482565b60405163e09d394d60e01b815293849182905afa801561056e57612b83612b9991612c039460009161285f5750612c07565b6005610bfd866000526007602052604060002090565b612bb26005610aa6856000526007602052604060002090565b600054610af690612bcb906001600160a01b0316610482565b6040516352902c5960e01b60208201526001600160a01b039182166024820152931660448401526064830185905282608481016104e5565b5090565b6e5af43d82803e903d91602b57fd5bf390763d602d80600a3d3981f3363d3d373d3d3d363d7300000062ffffff8260881c161760005260781b17602052603760096000f0906001600160a01b03821615612c5d57565b60405163b06ebf3d60e01b8152600490fd5b634e487b7160e01b600052603260045260246000fd5b8054821015612c9d5760005260206000200190600090565b612c6f565b908154916801000000000000000083101561237b5782612cca91600161288e95018155612c85565b90919082549060031b91821b91600019901b1916179055565b91906000818152602093600785526040808320926002948386860155806001958681018760ff19825416179055558385905b612d2457505050505050509050565b612d7e612d6d82888a9414612d87575b878652600a8c528686208187528c52868620612d508154612598565b9055878652600b8c52868620612d668154612598565b9055612a92565b956000526007602052604060002090565b01549384612d15565b612da7856003612da18b6000526007602052604060002090565b01612ca2565b612d34565b15612db357565b60405162461bcd60e51b81526020600482015260156024820152746e65737465642e757365722e6e6f7461637469766560581b6044820152606490fd5b806000526007602052612e0d60ff60016040600020015416612dac565b6000526007602052612e4d60018060a01b03600560406000200154166040519062a0e53360e51b60208301526001602483015260248252610af68261235f565b50565b15612e5757565b60405162461bcd60e51b81526020600482015260136024820152726e65737465642e7a65726f2e6164647265737360681b6044820152606490fd5b15612e9957565b60405162461bcd60e51b81526020600482015260146024820152736e65737465642e7461726765742e65786973747360601b6044820152606490fd5b15612edc57565b60405162461bcd60e51b815260206004820152601760248201527f6e65737465642e736f757263652e6e6f744578697374730000000000000000006044820152606490fd5b60405190612f2e8261239c565b601382527255736572546f496e737428616464726573732960681b6020830152565b15612f5757565b60405162461bcd60e51b815260206004820152601b60248201527f6e65737465642e757365722e696e76616c6964696e7374616e636500000000006044820152606490fd5b9190826040910312610334576020825192015190565b15612fb957565b60405162461bcd60e51b815260206004820152601860248201527f6e65737465642e757365722e6e6f742e646574616368656400000000000000006044820152606490fd5b1561300557565b60405162461bcd60e51b815260206004820152601760248201527f6e65737465642e706172656e742e6e6f746163746976650000000000000000006044820152606490fd5b1561305157565b60405162461bcd60e51b815260206004820152601b60248201527f6e65737465642e757365722e616c726564792e646574616368656400000000006044820152606490fd5b80549081156130c057600019918201916130b08383612c85565b909182549160031b1b1916905555565b634e487b7160e01b600052603160045260246000fd5b9190916001926130f76112f0856110e3856000526007602052604060002090565b613102610ee96141da565b82613275575060029261312c84613123846000526007602052604060002090565b0154151561304a565b6000815b613158575b5050600061288e93613151836000526007602052604060002090565b01556133a6565b60038061318587613173876000526007602052604060002090565b01546000526007602052604060002090565b015482101561326f57836131bf6131b584846131af8b613173876000526007602052604060002090565b01612c85565b90549060031b1c90565b146131d457506131ce90612a92565b81613130565b600092508061324b8793612cca6132316131b58961322b8761322461288e9f6131736132699c61321283613173896000526007602052604060002090565b01956000526007602052604060002090565b0154612890565b90612c85565b91846131af886131738c6000526007602052604060002090565b61326383613173876000526007602052604060002090565b01613096565b93613135565b50613135565b61288e93506132f69061329f6002613297856000526007602052604060002090565b015415612fb2565b6001600160a01b03811660009081526004602052604090206132dc906132d79054600052600760205260ff6001604060002001541690565b612ffe565b6001600160a01b0316600090815260046020526040902090565b54600261330d836000526007602052604060002090565b015561332e816003612da16002613173846000526007602052604060002090565b6133a6565b604051906133408261239c565b600e82526d6c766c62732875696e743235362960901b6020830152565b6040519061336a8261239c565b600f82526e6c766c7174792875696e743235362960881b6020830152565b60ff1660ff81146125a65760010190565b80156125a6576000190190565b6134556005916133c483610aa6836000526007602052604060002090565b6040805191613403602093806133e1868201906000602083019252565b03926133f5601f19948581018452836123f1565b6133fd613333565b906144e4565b9161343f61341f88610aa6886000526007602052604060002090565b82519061343782610d4d898201906000602083019252565b6133fd61335d565b9460029687916000526007602052604060002090565b0154946001978896875b613471575b5050505050505050505050565b600f60ff8916111580613628575b156136235788878c868b878b886134a761048282610aa68c6000526007602052604060002090565b6134d9575b505050505050506134ca6134d2926000526007602052604060002090565b015497613388565b968961345f565b948894610af69461356398946116cc94600361351b61350a6135719e9c610aa68d6000526007602052604060002090565b9a6000526007602052604060002090565b015499549351998a9763393a9f9560e01b908901526024880194919360ff9197969360a09560c088019988526020880152604087015216606085015260808401521515910152565b888082518301019101612f9c565b908c156135d457908a915b80821161359c5750506134ca6134d2925b925050878c868b878b886134ac565b6135a7919250612a92565b6135c081610fae8d546000526008602052604060002090565b6135ca8154612598565b9055908a9161357c565b908a915b8181116135ed5750506134ca6134d29261358d565b61360a81610fae61361b9495546000526008602052604060002090565b6136148154612890565b9055613399565b908a916135d8565b613464565b5080151561347f565b9061010080838303126103345781601f840112156103345760405192613656846123d4565b8391810192831161033457905b8282106136705750505090565b8151815260209182019101613663565b6040519061368d8261239c565b600f82526e66726565496e74657276616c73282960881b6020830152565b600080549293926136c4906001600160a01b0316610482565b9060409182519586809263cfbffe5360e01b8252602098899160049586915afa801561056e576137079185916138c4575b506136fe612442565b906133fd613680565b93839484965b600f881115806138bb575b156138af57600561373a61048282610aa6856000526007602052604060002090565b613767575b506002613759613761926000526007602052604060002090565b015497612a92565b9661370d565b84898c8a86888415968715806138a6575b801561389f575b613790575b5050505050505061373f565b936104e561383296948a94610af69460036137d06137bf6138249b610aa68b6000526007602052604060002090565b986000526007602052604060002090565b01549760029b8c549251998a9763645d0aa760e11b90890152602488019260e0949197969592610100850198855260006020860152600060408601526060850152608084015260a083015260c08201520152565b8d8082518301019101612f9c565b92613896575b8915613886575b8083116138535750898c8a86888a95613784565b61385c90612a92565b61387581610fae84546000526008602052604060002090565b61387f8154612598565b905561383f565b87831061383f579850819861383f565b98508198613838565b508d61377f565b50861515613778565b50505050505050509050565b50801515613718565b6138db9150893d8b116105675761055881836123f1565b386136f5565b60005491939290916138fb906001600160a01b0316610482565b936004602060409687519283809263cfbffe5360e01b82525afa801561056e5761392f91600091613ae457506136fe612442565b6000956000945b600f86111580613adb575b15613ad15784848988600561396761048282610aa6896000526007602052604060002090565b613998575b5050505050600261398a613992926000526007602052604060002090565b015495612a92565b94613936565b81151580613ac9575b8015613ac0575b1561396c5791610af6613a5094926104e56139d4613a4196610aa68b6000526007602052604060002090565b938b8b60036139ed8d6000526007602052604060002090565b01549460029b8c549251998a9763645d0aa760e11b60208a01526024890193909796959260e0959261010086019986526020860152604085015260006060850152608084015260a083015260c08201520152565b60208082518301019101612f9c565b91908815613ab7575b8a15613aa6575b808311613a73575050848988889361396c565b613a7c90612a92565b613a9581610fae84546000526008602052604060002090565b613a9f8154612598565b9055613a60565b60048310613a605799508199613a60565b99508199613a59565b508315156139a8565b5060006139a1565b5050505050509050565b50801515613941565b6138db915060203d6020116105675761055881836123f1565b15613b0457565b60405162461bcd60e51b81526020600482015260126024820152716e65737465642e696e76616c69642e61676560701b6044820152606490fd5b60405190613b4b8261239c565b601882527f6765744261746368526f79616c7479436c6175736573282900000000000000006020830152565b6102a09081818403126103345782601f82011215610334576040805193613b9d85612380565b849383019281841161033457935b838510613bba57505050505090565b606085830312610334578251606091613bd28261235f565b8651825260209182880151838201528588015186820152815201940193613bab565b906007811015612c9d5760051b0190565b90816064029160648304036125a657565b818102929181159184041417156125a657565b8115613c33570490565b634e487b7160e01b600052601260045260246000fd5b60405190613c56826123d4565b610100368337565b60025480600052600c6020526040600020549182018092116125a657600052600c602052604060002055565b60025480600052600d6020526040600020549182018092116125a657600052600d602052604060002055565b60025480600052600e6020526040600020549182018092116125a657600052600e602052604060002055565b60025480600052600f60205260406000205490600182018092116125a657600052600f602052604060002055565b9080600052600c6020526040600020549182018092116125a657600052600c602052604060002055565b9080600052600e6020526040600020549182018092116125a657600052600e602052604060002055565b9080600052600f6020526040600020549182018092116125a657600052600f602052604060002055565b60405190613d9b8261239c565b6014825273676574627573696e6573732875696e743235362960601b6020830152565b60405190613dcb8261239c565b601d82527f67657472616e6b436f756e742875696e743235362c75696e74323536290000006020830152565b60008054909190613e10906001600160a01b0316610482565b91604092835192839163111ea8c160e21b835282600460209485935afa93841561056e578394613f11575b505b85811115613e4d57505050505050565b8451828101828152819003808252601f1991613e7e91613e7090602001826123f1565b613e78613d8e565b876144e4565b613e9d613e9584600052600c602052604060002090565b9182546125ab565b9055835b60088110613eb9575050613eb490612a92565b613e3d565b865184810184815260208101839052613f0c9291613ef491613ee6908290604001038681018352826123f1565b613eee613dbe565b896144e4565b61102082610fae876000526008602052604060002090565b613ea1565b613f29919450823d84116105675761055881836123f1565b9238613e3b565b15613f3757565b60405162461bcd60e51b815260206004820152601960248201527f6f776e2e7361666567756172642e63616c6c2e6661696c6564000000000000006044820152606490fd5b908160209103126103345751610995816119ad565b600054604051634bf9c0ad60e11b8152906020908190839060049082906001600160a01b03165afa91821561056e576109959261400791600091614022575b50604051613fdd8161239c565b6008815267697353616665282960c01b8482015260405191613ffe836123b8565b600083526143ca565b919080614018575b61051290613f30565b508151811461400f565b6140399150833d85116105675761055881836123f1565b38613fd0565b6040519061404c8261239c565b601582527469735365637572654261736528616464726573732960581b6020830152565b1561407757565b60405162461bcd60e51b815260206004820152601a60248201527f6f776e2e736563757265626173652e63616c6c2e6661696c65640000000000006044820152606490fd5b6000546001600160a01b0316604051918291634bf9c0ad60e11b835282600460209485935afa92831561056e576109959361412a926104e592600092614145575b506040516001600160a01b039091168582019081529092614122918491602090910190565b6104fb61403f565b91908061413b575b61051290614070565b5081518114614132565b61412291925061416190863d88116105675761055881836123f1565b91906140fd565b604051906141758261239c565b601182527069735369676e657228616464726573732960781b6020830152565b1561419c57565b60405162461bcd60e51b81526020600482015260166024820152751bdddb8b9cda59db995c8b98d85b1b0b99985a5b195960521b6044820152606490fd5b60005460405163111ea8c160e21b815290602090829060049082906001600160a01b03165afa801561056e5761099591600091614247575b5060405161421f8161239c565b6005815264616765282960d81b60208201526040519161423e836123b8565b600083526144e4565b61425f915060203d81116105675761055881836123f1565b38614212565b604051906142728261239c565b601882527f697364656c656761746f724e6f646528616464726573732900000000000000006020830152565b3d156142c9573d906142af82612413565b916142bd60405193846123f1565b82523d6000602084013e565b606090565b600080546040516311be646b60e21b815290602090829060049082906001600160a01b03165afa90811561056e578284819382938391614381575b505af161431461429e565b501561434a5760405190815233907fcdcc745fe377b103b45fa0cec23ae3ef93d6fc6a84a01f0d18c40b354dd1d5d890602090a2565b60405162461bcd60e51b815260206004820152600f60248201526e1bdddb8b989d5c9b8b99985a5b1959608a1b6044820152606490fd5b614399915060203d81116105675761055881836123f1565b38614309565b906143aa92916143ca565b90600090156143b7575090565b60405191506143c5826123b8565b815290565b9190823b1561444b578051906020918263ffffffff60e01b92012016916040519180830193845281519160005b838110614437575050509181614424602482600097959688970187838201520360048101845201826123f1565b5191620dbba0fa61443361429e565b9091565b8181018301518582016024015282016143f7565b50505060009060405161445d816123b8565b6000815290565b9291614472916000946143ca565b908061449d575b6144805750565b909150602081805181010312610334576020015161048281610339565b506020815114614479565b92916144b6916000946143ca565b90806144d9575b6144c45750565b61099591925060208082518301019101613f7c565b5060208151146144bd565b92916144f2916000946143ca565b9080614517575b6145005750565b909150602081805181010312610334576020015190565b5060208151146144f9565b906020825192015163ffffffff60e01b90818116936004811061454457505050565b60040360031b82901b16169150565b6001600160a01b038116156145d457600080918351908260208601915af19061457a61429e565b9115614584575090565b8051600091906004116145ce5761459b9150614522565b8151156145ab5750805190602001fd5b604051630870274d60e21b81526001600160e01b03199091166004820152602490fd5b5061459b565b60405162461bcd60e51b81526020600482015260126024820152711bdddb8b9a5b9d985b1a590b9d185c99d95d60721b6044820152606490fdfea2646970667358221220f99c8a51b7e80dc6c16024cf6ccf72ff9559eb07ae0dd88e742515f9a7ca382464736f6c63430008140033","linkReferences":{}},"methodIdentifiers":{"dAOAssembly()":"14837455","daocore()":"14d8d024","nested741()":"45cff900","old741()":"5540c5ac","price()":"a035b1fe"},"id":34}