{"abi":[{"type":"constructor","inputs":[{"name":"_hex","type":"address","internalType":"address"},{"name":"_price","type":"address","internalType":"address"},{"name":"_old741","type":"address","internalType":"address"}],"stateMutability":"nonpayable"},{"type":"function","name":"dAOAssembly","inputs":[],"outputs":[{"name":"","type":"address","internalType":"address"}],"stateMutability":"view"},{"type":"function","name":"daocore","inputs":[],"outputs":[{"name":"","type":"address","internalType":"address"}],"stateMutability":"view"},{"type":"function","name":"nested741","inputs":[],"outputs":[{"name":"","type":"address","internalType":"address"}],"stateMutability":"view"},{"type":"function","name":"old741","inputs":[],"outputs":[{"name":"","type":"address","internalType":"address"}],"stateMutability":"view"},{"type":"function","name":"price","inputs":[],"outputs":[{"name":"","type":"address","internalType":"address"}],"stateMutability":"view"}],"bytecode":{"object":"0x6080346101b757601f6181a038819003918201601f19168301926001600160401b03929091838511838610176101a15781606092849260409788528339810103126101b75761004d816101bc565b6100648461005d602085016101bc565b93016101bc565b9160018060a01b03199273c0cee8b561cc4f60869776ca5b0b7a295e04f5af84600154161760015585516110759586820196828810828911176101a15761032c83396001600160a01b039485168088526000979092908190036020019088f080156101835785168660035416176003558751615146808201908282108483111761018d57602091839161305a833985815203019088f08015610183578516866002541617600255875191611cb9808401928484109084111761016f579183916020936113a18439815203019086f080156101655790838092168560045416176004551683600154161760015516908254161790555161015b90816101d18239f35b86513d87823e3d90fd5b634e487b7160e01b89526041600452602489fd5b88513d89823e3d90fd5b634e487b7160e01b8a52604160045260248afd5b634e487b7160e01b600052604160045260246000fd5b600080fd5b51906001600160a01b03821682036101b75756fe608080604052600436101561001357600080fd5b600090813560e01c90816314837455146100fc5750806314d8d024146100d357806345cff900146100aa5780635540c5ac146100815763a035b1fe1461005857600080fd5b3461007e578060031936011261007e57546040516001600160a01b039091168152602090f35b80fd5b503461007e578060031936011261007e576001546040516001600160a01b039091168152602090f35b503461007e578060031936011261007e576002546040516001600160a01b039091168152602090f35b503461007e578060031936011261007e576004546040516001600160a01b039091168152602090f35b9050346101215781600319360112610121576003546001600160a01b03168152602090f35b5080fdfea26469706673582212203d99579804fb8e997046c72ed951cb4f9681bcdb224512eecdb746a8c30c8b3b64736f6c6343000814003360803461009757601f61107538819003918201601f19168301916001600160401b0383118484101761009c5780849260209460405283398101031261009757516001600160a01b038116908190036100975780156100855760018060a01b03193381600154161760015560005416176000556000600355604051610fc290816100b38239f35b60405163e6c4247b60e01b8152600490fd5b600080fd5b634e487b7160e01b600052604160045260246000fdfe60806040526004361015610018575b361561001657005b005b60003560e01c806312065fe0146101085780631f185d161461010357806325924f34146100fe5780633b9b7955146100f957806361b7fbd9146100f45780638da5cb5b146100ef578063a1f7f539146100ea578063af484526146100e5578063b90306ad146100e0578063c54e44b0146100db578063c89b84fd146100d6578063dbac26e9146100d1578063e01ad5fd146100cc578063e0a9bc2b146100c75763fdc10bc90361000e57610845565b6107c7565b610728565b6106e6565b6105d7565b610569565b6104e9565b610452565b61039b565b610372565b6102ca565b610297565b610253565b61013a565b3461012457600036600319011261012457602047604051908152f35b600080fd5b6001600160a01b0381160361012457565b34610124576020806003193601126101245760043561015881610129565b60048261016e6101696000546106da565b6106da565b604051634bf9c0ad60e11b815292839182905afa801561024e576101c7926101ab9260009261021b575b506101b990604051938491878301610284565b03601f1981018452836108b9565b6101c1610c1a565b90610e37565b919080610211575b156101ff5781816101e9926101fb94518301019101610bd4565b60405191829182901515815260200190565b0390f35b604051633204506f60e01b8152600490fd5b50808251146101cf565b6101b991925061024090863d8811610247575b61023881836108b9565b8101906108dc565b9190610198565b503d61022e565b6108f4565b3461012457602036600319011261012457602061027a60043561027581610129565b6109ce565b6040519015158152f35b6001600160a01b03909116815260200190565b34610124576000366003190112610124576000546040516001600160a01b039091168152602090f35b8015150361012457565b34610124576040366003190112610124576004356102e781610129565b6024356102f3816102c0565b600460018060a01b03602061030b82600054166106da565b604051630536340960e21b815293849182905afa91821561024e57600092610352575b50339116036103405761001691610b5a565b60405163ea8e4eb560e01b8152600490fd5b61036b91925060203d81116102475761023881836108b9565b903861032e565b34610124576000366003190112610124576001546040516001600160a01b039091168152602090f35b346101245760003660031901126101245760005460405163d1f956b160e01b815290602090829060049082906001600160a01b03165afa90811561024e576101fb9161042491600091610434575b506040516103f68161087e565b601381527267657464656c656761746f72436f756e74282960681b602082015261041e61091b565b91610f4e565b6040519081529081906020820190565b61044c915060203d81116102475761023881836108b9565b386103e9565b34610124576020806003193601126101245760043561047081610129565b6004826104816101696000546106da565b604051634bf9c0ad60e11b815292839182905afa801561024e576101c7926101ab926000926104c6575b506104be90604051938491878301610284565b6101c1610be9565b6104be9192506104e290863d88116102475761023881836108b9565b91906104ab565b3461012457602036600319011261012457600460018060a01b03602061051282600054166106da565b604051630536340960e21b815293849182905afa91821561024e57600092610549575b503391160361034057610016600435610d36565b61056291925060203d81116102475761023881836108b9565b9038610535565b346101245760203660031901126101245760043561058681610129565b803b600061059382610900565b926105a160405194856108b9565b82845260208401903c602d8151106105c557602a602091015160601c604051908152f35b60405163baf3f0f760e01b8152600490fd5b34610124576000806003193601126106d7576105f661016982546106da565b60405163cfbffe5360e01b8152919060208084600481855afa801561024e57610635829160049686916106ba575b5061062d61092e565b61041e61091b565b926040519586809263ab6e844f60e01b82525afa90811561024e576101fb946104249492610697575b50610689906101ab61066e610c47565b94604051958693840160209093929193604081019481520152565b610691610b0b565b90610f4e565b8192506106b390610689923d85116102475761023881836108b9565b919061065e565b6106d19150833d85116102475761023881836108b9565b38610624565b80fd5b6001600160a01b031690565b346101245760203660031901126101245760043561070381610129565b60018060a01b03166000526002602052602060ff604060002054166040519015158152f35b3461012457602080600319360112610124576004803561074781610129565b60005460405163d1f956b160e01b81526001600160a01b03949093909182918591829088165afa90811561024e576101fb946101e9946000936107a8575b50604051931681840152825261079a8261087e565b6107a2610cd2565b90610f12565b6107c0919350823d84116102475761023881836108b9565b9138610785565b34610124576000366003190112610124576107e66101696000546106da565b6040518091634bf9c0ad60e11b825281600460209485935afa801561024e576101c791600091610828575b5061081a610bb0565b61082261091b565b91610e37565b61083f9150833d85116102475761023881836108b9565b38610811565b34610124576000366003190112610124576020610860610c47565b604051908152f35b634e487b7160e01b600052604160045260246000fd5b604081019081106001600160401b0382111761089957604052565b610868565b602081019081106001600160401b0382111761089957604052565b601f909101601f19168101906001600160401b0382119082101761089957604052565b9081602091031261012457516108f181610129565b90565b6040513d6000823e3d90fd5b6001600160401b03811161089957601f01601f191660200190565b604051906109288261089e565b60008252565b6040519061093b8261087e565b600c82526b72616e6b666f7244414f282960a01b6020830152565b604051906109638261087e565b601682527567657455736572546f53746f7228616464726573732960501b6020830152565b604051906109958261087e565b600682526572616e6b282960d01b6020830152565b604051906109b78261087e565b600882526769734c6f636b282960c01b6020830152565b6109dc6101696000546106da565b9060405163cfbffe5360e01b81526020908181600481875afa801561024e57610a1383916004936000916106ba575061062d61092e565b946040519283809263ab6e844f60e01b82525afa801561024e57610a5e928492600092610ae8575b50610a50906101ab6040519485928301610284565b610a58610956565b90610ece565b916001600160a01b03831615610ae057610aa2610a8b610a7c610988565b610a8461091b565b9086610f4e565b93610a946109aa565b610a9c61091b565b91610f12565b9210159182610ad7575b5081610ab6575090565b6001600160a01b031660009081526002602052604090205460ff1615905090565b15915038610aac565b505050600090565b819250610b0490610a50923d85116102475761023881836108b9565b9190610a3b565b60405190610b188261087e565b601d82527f67657472616e6b636f756e742875696e743235362c75696e74323536290000006020830152565b634e487b7160e01b600052601160045260246000fd5b60018060a01b03166000526002602052604060002060ff1981541660ff83151516179055600014610b9e576003546000198114610b9957600101600355565b610b44565b6003548015610b995760001901600355565b60405190610bbd8261087e565b6008825267697353616665282960c01b6020830152565b9081602091031261012457516108f1816102c0565b60405190610bf68261087e565b601582527469735365637572654261736528616464726573732960581b6020830152565b60405190610c278261087e565b601182527069735369676e657228616464726573732960781b6020830152565b60005460405163111ea8c160e21b815290602090829060049082906001600160a01b03165afa801561024e576108f191600091610cb4575b50604051610c8c8161087e565b6005815264616765282960d81b602082015260405191610cab8361089e565b60008352610f4e565b610ccc915060203d81116102475761023881836108b9565b38610c7f565b60405190610cdf8261087e565b6018825277697364656c656761746f724e6f646528616464726573732960401b6020830152565b3d15610d31573d90610d1782610900565b91610d2560405193846108b9565b82523d6000602084013e565b606090565b6000610d4561016982546106da565b9060405180926311be646b60e21b825281600460209586935afa801561024e5782808681949382948391610e1a575b505af1610d7f610d06565b50156101ff57600482610d9561016984546106da565b604051635e09dbe760e01b815292839182905afa90811561024e577fcdcc745fe377b103b45fa0cec23ae3ef93d6fc6a84a01f0d18c40b354dd1d5d893610df89392610dfd575b50506040519384526001600160a01b0316929081906020820190565b0390a2565b610e139250803d106102475761023881836108b9565b3880610ddc565b610e319150883d8a116102475761023881836108b9565b38610d74565b9190823b15610eb5578051906020918263ffffffff60e01b92012016916040519180830193845281519160005b838110610ea1575050509181610e91602482600097959688970187838201520360048101845201826108b9565b51915afa610e9d610d06565b9091565b818101830151858201602401528201610e64565b505050600090604051610ec78161089e565b6000815290565b9291610edc91600094610e37565b9080610f07575b610eea5750565b90915060208180518101031261012457602001516106da81610129565b506020815114610ee3565b9291610f2091600094610e37565b9080610f43575b610f2e5750565b6108f191925060208082518301019101610bd4565b506020815114610f27565b9291610f5c91600094610e37565b9080610f81575b610f6a5750565b909150602081805181010312610124576020015190565b506020815114610f6356fea26469706673582212205b5baf158511b170d92af112649815d22484a4502f8a8112f3293694a3b3f8f764736f6c6343000814003360803461009b57601f611cb938819003918201601f19168301916001600160401b038311848410176100a05780849260209460405283398101031261009b57516001600160a01b0381169081900361009b5780156100895760018060a01b0319338160015416176001556000541617600055603360025560038055604051611c0290816100b78239f35b60405163e6c4247b60e01b8152600490fd5b600080fd5b634e487b7160e01b600052604160045260246000fdfe60806040526004361015610018575b361561001657005b005b60003560e01c8063013cf08b1461018857806312065fe0146101835780631f185d161461017e5780633b9b7955146101795780634072265b14610174578063438596321461016f5780635c622a0e1461016a57806365153c4b14610165578063709df8d9146101605780638da5cb5b1461015b57806398e527d314610156578063995e433914610151578063a1f7f5391461014c578063af48452614610147578063b90306ad14610142578063c54e44b01461013d578063c7f758a814610138578063c9d27afe14610133578063d153356b1461012e578063e01ad5fd14610129578063e0a9bc2b14610124578063fdc10bc91461011f5763ffa734f00361000e57610dd5565b610d8d565b610d72565b610d4b565b610cd1565b610b67565b610ae8565b610a36565b6109b6565b6108a1565b61087e565b6107fa565b6107dc565b6107b3565b610774565b610651565b6105fb565b6105a9565b61056c565b610543565b6104ff565b6104d2565b610415565b6004548110156101ac576004600052600c602060002091020190600090565b634e487b7160e01b600052603260045260246000fd5b90600182811c921680156101f2575b60208310146101dc57565b634e487b7160e01b600052602260045260246000fd5b91607f16916101d1565b906000929180549161020d836101c2565b91828252600193848116908160001461026f575060011461022f575b50505050565b90919394506000526020928360002092846000945b83861061025b575050505001019038808080610229565b805485870183015294019385908201610244565b9294505050602093945060ff191683830152151560051b01019038808080610229565b634e487b7160e01b600052604160045260246000fd5b602081019081106001600160401b038211176102c357604052565b610292565b604081019081106001600160401b038211176102c357604052565b601f909101601f19168101906001600160401b038211908210176102c357604052565b6001600160a01b031690565b9061032d61032692604051938480926101fc565b03836102e3565b565b60005b8381106103425750506000910152565b8181015183820152602001610332565b9060209161036b8151809281855285808601910161032f565b601f01601f1916010190565b9b9997959392909e9d9c9a9896949e8c6101c08091528d0161039891610352565b6001600160a01b0390921660208d015260408c01528a810360608c01526103be91610352565b9b60808a015260a089015260c088015260e087015261010086015261012085016103e89115159052565b15156101408401526001600160a01b031661016083015215156101808201526101a00161032d9115159052565b346104cd5760203660031901126104cd576004356004548110156104cd5761043c9061018d565b506040519061044f8261032681846101fc565b6104c961045f6001830154610306565b60028301549061047160038501610312565b946004850154946005810154966006820154916007810154600a6008830154920154936040519a8b9a8b9560ff8860b81c169a60ff8960b01c169a60018060a01b038a60101c169a60ff808c60081c169b1699610377565b0390f35b600080fd5b346104cd5760003660031901126104cd57602047604051908152f35b6001600160a01b038116036104cd57565b346104cd5760203660031901126104cd576020610526600435610521816104ee565b6116a6565b6040519015158152f35b6001600160a01b03909116815260200190565b346104cd5760003660031901126104cd576000546040516001600160a01b039091168152602090f35b346104cd5760203660031901126104cd5760043560001981019081116105a457600561059960209261018d565b500154604051908152f35b611138565b346104cd5760403660031901126104cd576004356024356105c9816104ee565b60001982019182116105a4576105ef60ff9160096105e860209561018d565b5001611293565b54166040519015158152f35b346104cd5760203660031901126104cd5760043560001981019081116105a457600a61062860409261018d565b50015460ff825191818160b01c161515835260b81c1615156020820152f35b801515036104cd57565b346104cd5760403660031901126104cd5760043560243561067181610647565b61067a336116a6565b1561076257600561069261068d846111c1565b61018d565b50610732610725600b83016106c06106bb6106b76106b03385611293565b5460ff1690565b1590565b61132b565b61071e600a8501546106d860ff8260b81c161561124f565b6106e760ff8260081c166111d0565b6106f360ff821661136c565b61070a6106fe611722565b600788015411156113ae565b60101c6001600160a01b03163314156112ea565b3390611293565b805460ff19166001179055565b0161073d81546113f0565b80915560035414801561075a575b61075157005b610016916114bf565b50801561074b565b60405163ea8e4eb560e01b8152600490fd5b346104cd5760403660031901126104cd57600435602435610794816104ee565b60001982019182116105a4576105ef60ff91600b6105e860209561018d565b346104cd5760003660031901126104cd576001546040516001600160a01b039091168152602090f35b346104cd5760003660031901126104cd576020600454604051908152f35b346104cd5760203660031901126104cd5760043560001981019081116105a4576108239061018d565b506004810154600682015460078301546008840154600a9094015460408051948552602085019390935291830152606082019290925260ff60b083901c81161515608083015260b89290921c909116151560a082015260c090f35b346104cd5760003660031901126104cd57602061089961188a565b604051908152f35b346104cd576020806003193601126104cd576004356108bf816104ee565b6004826108d56108d0600054610306565b610306565b604051634bf9c0ad60e11b815292839182905afa80156109b15761092e926109129260009261097e575b5061092090604051938491878301610530565b03601f1981018452836102e3565b610928611648565b90611a4b565b919080610974575b15610962578181610950926104c994518301019101611587565b60405190151581529081906020820190565b604051633204506f60e01b8152600490fd5b5080825114610936565b6109209192506109a390863d88116109aa575b61099b81836102e3565b810190611535565b91906108ff565b503d610991565b61154d565b346104cd5760203660031901126104cd57600460018060a01b0360206109df8260005416610306565b604051630536340960e21b815293849182905afa9182156109b157600092610a16575b50339116036107625761001660043561194a565b610a2f91925060203d81116109aa5761099b81836102e3565b9038610a02565b346104cd5760203660031901126104cd57600435610a53816104ee565b803b6000610a6082611559565b92610a6e60405194856102e3565b82845260208401903c602d815110610a9257602a602091015160601c604051908152f35b60405163baf3f0f760e01b8152600490fd5b94919093610ac060a0959897949860c0885260c0880190610352565b97600180871b0380931660208801526040870152166060850152151560808401521515910152565b346104cd5760203660031901126104cd5760043560001981019081116105a457610b119061018d565b5060018060a01b036104c98160018401541691600284015493610b42610b49600a83015492604051928380926101fc565b03826102e3565b60405195869560ff84169460ff8560081c169460101c169287610aa4565b346104cd5760403660031901126104cd57600435602435610b8781610647565b610b90336116a6565b8015610cae575b610ba09061117c565b610bac61068d836111c1565b50600a8101906008825493610bc560ff86841c166111d0565b610bdc6007840154610bd5611722565b1115611210565b610bec60ff8660b81c161561124f565b610c0c600984019561070a610c076106b76106b0338b611293565b6112aa565b60008115610ca857506001905b610c2b60ff600486019316835461116f565b8255600090610c9b5750610c5a6107256001965b610c5160ff600688019916895461116f565b88553390611293565b5491015480911092831593610c8f575b505081610c82575b50610c7957005b6100169061141c565b5460ff1615905038610c72565b54101591503880610c6a565b610725610c5a9196610c3f565b90610c19565b50610cb761159c565b8015610b975750610ba0610cca336117ad565b9050610b97565b346104cd5760403660031901126104cd57610cea61159c565b15610d3957333003610d0457600435600255602435600355005b60405162461bcd60e51b815260206004820152600d60248201526c64616f2e66616b652e636f726560981b6044820152606490fd5b604051634ee2123760e11b8152600490fd5b346104cd5760203660031901126104cd576020610526600435610d6d816104ee565b6117ad565b346104cd5760003660031901126104cd57602061052661159c565b346104cd5760003660031901126104cd576020610899611722565b9181601f840112156104cd578235916001600160401b0383116104cd57602083818601950101116104cd57565b346104cd5760c03660031901126104cd576001600160401b03600480358281116104cd57610e069036908301610da8565b9092602435610e14816104ee565b6064358281116104cd57610e2b9036908601610da8565b9160a43594610e3986610647565b6001600160a01b0382161561100c57865490600160401b8210156102c357610e676001928381018a5561018d565b509581116102c357610e8381610e7d88546101c2565b8861101d565b6000601f8211600114610f8e57610ef693600a969383610f729a999794610ee5946104c99e600092610f83575b5050600019600383901b1c191690821b1787555b860180546001600160a01b0319166001600160a01b03909216919091179055565b604435600285015560038401611071565b610f1c610f15610f10610f0761188a565b6002549061114e565b611161565b6064900490565b6008820155610f34608435610f2f611722565b61116f565b60078201550180543360101b62010000600160b01b0316610100600160b01b0319909116176101001760ff191660ff92151592909216919091179055565b546040519081529081906020820190565b013590503880610eb0565b601f19821690610fa388600052602060002090565b91815b818110610ff65750938084610ee5946104c99e610ef69995610f729e9d9b98600a9d9a10610fdc575b505050811b018755610ec4565b0135600019600384901b60f8161c19169055388080610fcf565b8c83013584559285019260209283019201610fa6565b60405163e6c4247b60e01b81528790fd5b90601f811161102b57505050565b600091825260208220906020601f850160051c83019410611067575b601f0160051c01915b82811061105c57505050565b818155600101611050565b9092508290611047565b9092916001600160401b0381116102c3576110968161109084546101c2565b8461101d565b6000601f82116001146110d057819293946000926110c5575b50508160011b916000199060031b1c1916179055565b0135905038806110af565b601f198216946110e584600052602060002090565b91805b878110611120575083600195969710611106575b505050811b019055565b0135600019600384901b60f8161c191690553880806110fc565b909260206001819286860135815501940191016110e8565b634e487b7160e01b600052601160045260246000fd5b818102929181159184041417156105a457565b90606382018092116105a457565b919082018092116105a457565b1561118357565b60405162461bcd60e51b815260206004820152601660248201527564616f2e6e6f6e617574682e64656c656761746f727360501b6044820152606490fd5b6000198101919082116105a457565b156111d757565b60405162461bcd60e51b815260206004820152601160248201527019185bcb9c1c9bdc0b9b9bdd195e1a5cdd607a1b6044820152606490fd5b1561121757565b60405162461bcd60e51b815260206004820152601060248201526f19185bcb9d9bdd1a5b99cb995b99195960821b6044820152606490fd5b1561125657565b60405162461bcd60e51b815260206004820152601560248201527419185bcb985b1c9958591e4b98dbdb5c1b195d1959605a1b6044820152606490fd5b9060018060a01b0316600052602052604060002090565b156112b157565b60405162461bcd60e51b815260206004820152601160248201527019185bcb985b1c9958591e4b9d9bdd1959607a1b6044820152606490fd5b156112f157565b60405162461bcd60e51b815260206004820152601260248201527119185bcb9d9bdd195c8b9c995cdd1c9a58dd60721b6044820152606490fd5b1561133257565b60405162461bcd60e51b815260206004820152601260248201527119185bcb985b1c9958591e4b9cda59db995960721b6044820152606490fd5b1561137357565b60405162461bcd60e51b815260206004820152601360248201527219185bcb9c1c9bdc0b9b5d5cdd1cda59db9959606a1b6044820152606490fd5b156113b557565b60405162461bcd60e51b815260206004820152601360248201527264616f2e6265666f72652e646561646c696e6560681b6044820152606490fd5b60001981146105a45760010190565b805460ff60b01b191691151560b01b60ff60b01b16919091179055565b61068d611428916111c1565b50600a8101805460ff60b81b1916600160b81b17815560ff9061145f6004840154600885015481101590816114b1575b50826113ff565b5460b01c168061149c575b6114715750565b806114826001611499930154610306565b611493600360028401549301610312565b90611b35565b50565b506114aa60038201546101c2565b151561146a565b905060068501541038611458565b6114ce61068d611506926111c1565b50600a8101805460ff60b81b1916600160b81b178155909280611523575b80611512575b6114fc90826113ff565b5460b01c60ff1690565b8061149c576114715750565b5060048301546006840154106114f2565b506004830154600884015411156114ec565b908160209103126104cd575161154a816104ee565b90565b6040513d6000823e3d90fd5b6001600160401b0381116102c357601f01601f191660200190565b60405190611581826102a8565b60008252565b908160209103126104cd575161154a81610647565b600054604051634bf9c0ad60e11b81526020918290829060049082906001600160a01b03165afa80156109b1576116049160009161162b575b506040516115e2816102c8565b6008815267697353616665282960c01b848201526115fe611574565b91611a4b565b9080611621575b15610962578161154a9282518301019101611587565b508181511461160b565b6116429150833d85116109aa5761099b81836102e3565b386115d5565b60405190611655826102c8565b601582527469735365637572654261736528616464726573732960581b6020830152565b60405190611686826102c8565b601182527069735369676e657228616464726573732960781b6020830152565b6116b46108d0600054610306565b906040518092634bf9c0ad60e11b825281600460209586935afa80156109b15761160492610912926000926116ff575b506116f790604051938491878301610530565b610928611679565b6116f791925061171b90863d88116109aa5761099b81836102e3565b91906116e4565b60005460405163111ea8c160e21b815290602090829060049082906001600160a01b03165afa80156109b15761154a9160009161178f575b50604051611767816102c8565b6005815264616765282960d81b602082015260405191611786836102a8565b60008352611ac6565b6117a7915060203d81116109aa5761099b81836102e3565b3861175a565b60005460405163d1f956b160e01b8152916020916001600160a01b039083908590600490829085165afa9384156109b157600094611865575b5060405191168282015281815261183890611800816102c8565b60405161180c816102c8565b6018815277697364656c656761746f724e6f646528616464726573732960401b84820152600094611a4b565b91908061185b575b61184957505090565b61154a92508082518301019101611587565b5080825114611840565b6118389291945061188290843d86116109aa5761099b81836102e3565b9390916117e6565b60005460405163d1f956b160e01b815290602090829060049082906001600160a01b03165afa80156109b15761154a916000916118fc575b506040516118cf816102c8565b601381527267657464656c656761746f72436f756e74282960681b602082015260405191611786836102a8565b611914915060203d81116109aa5761099b81836102e3565b386118c2565b3d15611945573d9061192b82611559565b9161193960405193846102e3565b82523d6000602084013e565b606090565b60006119596108d08254610306565b9060405180926311be646b60e21b825281600460209586935afa80156109b15782808681949382948391611a2e575b505af161199361191a565b5015610962576004826119a96108d08454610306565b604051635e09dbe760e01b815292839182905afa9081156109b1577fcdcc745fe377b103b45fa0cec23ae3ef93d6fc6a84a01f0d18c40b354dd1d5d893611a0c9392611a11575b50506040519384526001600160a01b0316929081906020820190565b0390a2565b611a279250803d106109aa5761099b81836102e3565b38806119f0565b611a459150883d8a116109aa5761099b81836102e3565b38611988565b803b15611aad57600092839263ffffffff60e01b90602081519101201690611a9d6024604051809360208201958652611a8d815180926020868601910161032f565b81010360048101845201826102e3565b51915afa611aa961191a565b9091565b505050600090604051611abf816102a8565b6000815290565b9291611ad491600094611a4b565b9080611af9575b611ae25750565b9091506020818051810103126104cd576020015190565b506020815114611adb565b906020825192015163ffffffff60e01b908181169360048110611b2657505050565b60040360031b82901b16169150565b9091906001600160a01b03811615611bba57600091829184519160208601915af190611b5f61191a565b9115611b69575090565b805160009190600411611bb457611b809150611b04565b815115611b905750805190602001fd5b604051630870274d60e21b81526001600160e01b0319919091166004820152602490fd5b50611b80565b60405163e6c4247b60e01b8152600490fdfea2646970667358221220b53d2a155b3abd613e78619f577762bdca3188c2fc6bca6c41345b780145488364736f6c634300081400336080346200009e57601f6200514638819003918201601f19168301916001600160401b03831184841017620000a3578084926020946040528339810103126200009e57516001600160a01b038116908190036200009e5780156200008c5760018060a01b0319338160015416176001556000541617600055600160025560405161508c9081620000ba8239f35b60405163e6c4247b60e01b8152600490fd5b600080fd5b634e487b7160e01b600052604160045260246000fdfe60806040526004361015610018575b361561001657005b005b60003560e01c80629db65514610367578063033eeffb146103625780630e5fd00b1461035d57806312065fe0146103585780631bb49f02146103535780631c53c2801461034e5780631f185d16146103495780632a687c87146103445780632fefc0bf1461033f578063307673e81461033a57806332ff4eab1461033557806333b59a5b146103305780633a7b55b81461032b5780633b9b7955146103265780633baee0ea14610321578063419cb27b1461031c57806342cc9d5714610317578063445850971461031257806344668f231461030d5780634f0f4aa914610308578063509222cd1461030357806350db85d1146102fe57806361ea7208146102f9578063629d671e146102f457806365d2fbd3146102ef5780636a811244146102ea5780636fb412ab146102e557806376fe6c45146102e05780637bb98498146102db57806380f85e33146102d6578063849c22ad146102d1578063896c354a146102cc5780638da5cb5b146102c757806395f72f49146102c257806398b3f215146102bd578063a1f7f539146102b8578063a89d693b146102b3578063af484526146102ae578063b1c49079146102a9578063b366335e146102a4578063b90306ad1461029f578063c43792e31461029a578063c54e44b014610295578063c871372b14610290578063d1e0bbc61461028b578063dcb3fc4a14610286578063e01ad5fd14610281578063e0a9bc2b1461027c578063eb95c66214610277578063eb9e9e2c14610272578063f3ca71241461026d578063fd38093b146102685763fdc10bc90361000e57612929565b6128bb565b61288f565b6126e5565b6126b9565b61269e565b6125ff565b61246d565b612433565b6123b6565b612348565b61231c565b61229c565b6121f7565b6120cb565b6120a4565b611fdd565b611ef7565b611ecb565b611e23565b611dfa565b611dba565b611d8b565b611d51565b611ca9565b611c5a565b611b13565b61163a565b61131e565b6112e1565b6112a9565b6111f9565b6111a6565b6110dd565b6110bf565b611088565b611059565b611031565b610bac565b610b5b565b610a3c565b610966565b6108be565b610813565b6107dc565b610734565b610639565b610605565b610530565b6104fb565b6104ac565b610450565b3461044b57602036600319011261044b57610387610383614ab9565b1590565b6104395761039433614b96565b80156103ba575b156103a857610016614533565b60405163ea8e4eb560e01b8152600490fd5b50600460206103d26103cd60005461047c565b61047c565b604051630536340960e21b815292839182905afa90811561043457600091610406575b506001600160a01b0316331461039b565b610427915060203d811161042d575b61041f81836129d3565b810190612c55565b386103f5565b503d610415565b612c6a565b604051634ee2123760e11b8152600490fd5b600080fd5b3461044b57602036600319011261044b57600435600052600a6020526020604060002054604051908152f35b6001600160a01b031690565b6001600160a01b0381160361044b57565b6001600160a01b03909116815260200190565b3461044b57602036600319011261044b5760206004356104cb81610488565b60018060a01b03809116600052600382526040600020546000526006825260046040600020015416604051908152f35b3461044b57600036600319011261044b57602047604051908152f35b9081526001600160a01b03909116602082015260400190565b3461044b57602036600319011261044b5760043561054d81610488565b60018060a01b038060009216825260036020526040822054825260066020526040600281842001549283815260046020522054169061059160405192839283610517565b0390f35b600052600f602052604060002090565b6000526008602052604060002090565b6000526006602052604060002090565b6000526004602052604060002090565b6000526007602052604060002090565b6000526009602052604060002090565b600052600a602052604060002090565b3461044b57602036600319011261044b576004356000526004602052602060018060a01b0360406000205416604051908152f35b3461044b5760208060031936011261044b5760043561065781610488565b6004826106686103cd60005461047c565b604051634bf9c0ad60e11b815292839182905afa8015610434576106c1926106a592600092610711575b506106b390604051938491878301610499565b03601f1981018452836129d3565b6106bb614c12565b90614e5a565b919080610707575b156106f55781816106e39261059194518301019101614aa5565b60405190151581529081906020820190565b604051633204506f60e01b8152600490fd5b50808251146106c9565b6106b391925061072d90863d881161042d5761041f81836129d3565b9190610692565b3461044b57604036600319011261044b57610750610383614ab9565b6104395761075d33614b96565b8015610777575b156103a8576100166024356004356148a8565b506004602061078a6103cd60005461047c565b604051630536340960e21b815292839182905afa908115610434576000916107be575b506001600160a01b03163314610764565b6107d6915060203d811161042d5761041f81836129d3565b386107ad565b3461044b57602036600319011261044b576004356000526006602052602060018060a01b0360056040600020015416604051908152f35b3461044b57602036600319011261044b57600435600090338252600360205261084761084260408420546147bb565b61368d565b808252600f60205260ff600260408420015460081c16156108835761086e61088091610595565b60026000918281558260018201550155565b80f35b60405162461bcd60e51b81526020600482015260136024820152721b995cdd19590b9c995c4b9b9bdd195e1a5cdd606a1b6044820152606490fd5b3461044b57604036600319011261044b576108da610383614ab9565b610439576108e733614b96565b8015610901575b156103a8576100166024356004356148fc565b50600460206109146103cd60005461047c565b604051630536340960e21b815292839182905afa90811561043457600091610948575b506001600160a01b031633146108ee565b610960915060203d811161042d5761041f81836129d3565b38610937565b3461044b57604036600319011261044b57610982610383614ab9565b6104395761098f33614b96565b80156109a9575b156103a85761001660243560043561498f565b50600460206109bc6103cd60005461047c565b604051630536340960e21b815292839182905afa908115610434576000916109f0575b506001600160a01b03163314610996565b610a08915060203d811161042d5761041f81836129d3565b386109df565b60e0810192916000915b60078310610a2557505050565b600190825181526020809101920192019190610a18565b3461044b57602036600319011261044b57610591600435610b49610b3960405192610a6684612982565b60e0368537610a87610a77826105a5565b6001600052602052604060002090565b548452610aa6610a96826105a5565b6002600052602052604060002090565b546020850152610ac8610ab8826105a5565b6003600052602052604060002090565b546040850152610aea610ada826105a5565b6004600052602052604060002090565b546060850152610b0c610afc826105a5565b6005600052602052604060002090565b546080850152610b2e610b1e826105a5565b6006600052602052604060002090565b5460a08501526105a5565b6007600052602052604060002090565b5460c082015260405191829182610a0e565b3461044b57600036600319011261044b576000546040516001600160a01b039091168152602090f35b604090600319011261044b57600435610b9c81610488565b90602435610ba981610488565b90565b3461044b57610c0e610bbd36610b84565b610bc5612c34565b610bde610bd0612a24565b610bd8612a3c565b33614ed5565b90610bf2610bea612a24565b610bd8612a5f565b6001600160a01b03828116959194909390919084168614612a87565b610c2c60009484610c246103cd8289541661047c565b911614612acd565b610c37851515613593565b610c40826112c7565b54158015611026575b610c52906135d5565b610c66610c5e826112c7565b541515613618565b610c836005610c7d610c77846112c7565b546105b5565b01612b59565b9360409182519060209763880cdc3160e01b89840152610cc560249380610cac89878301610499565b0399610cc0601f199b8c81018452836129d3565b614fc2565b50600496610cdc6103cd89610c7d610c77876112c7565b15610f1657610d1e610cf489610c7d610c77876112c7565b875162e6724f60e21b8d82015290610cc082610d12338a8301610499565b038d81018452836129d3565b505b610d29836112c7565b54610d33886112c7565b55610d4f87610d4a610d44866112c7565b546105c5565b613142565b610d663389610d60610c778b6112c7565b01613142565b821614159485610f06575b610d7a816112c7565b5497610d8a6005610c7d8b6105b5565b99610da8610da36002610d9c8d6105b5565b01546105c5565b612b59565b9715610e825780610dbc6103cd885461047c565b88516314ac1b5960e21b81529a8b9182905afa9283156104345761059199610e299794610e5b575b50875163e3d1d5bf60e01b928101929092526001600160a01b03948516958201958652909316602085015291929091610cc09184906040015b039081018452836129d3565b505b610e356001600255565b519283526001600160a01b03938416602084015290921660408201529081906060820190565b610cc0945090610e7a610e1d92843d861161042d5761041f81836129d3565b945090610de4565b809250610e926103cd875461047c565b87516314ac1b5960e21b8152998a9182905afa9182156104345761059198610edb9693610ee1575b50610e1d610cc093948851968793639498d88b60e01b908501528301610499565b50610e2b565b610cc09350610eff610e1d91833d851161042d5761041f81836129d3565b9350610eba565b83610f10836112c7565b55610d71565b878a610f256103cd885461047c565b885163111ea8c160e21b815292839182905afa90811561043457610f6e9185918891611009575b50610f608d610d128b519485928301610499565b610f6861365e565b90614ed5565b818116151580610fff575b610f84575b50610d20565b8651634fb2e45d60e01b8c820152610ff89190610fbe90610fb88d82610fac338c8301610499565b039081018352826129d3565b82614fc2565b50875190630a3e884b60e41b8d830152610cc082610d12898201906007606060808401936000815260006020820152600060408201520152565b5038610f7e565b5080311515610f79565b61102091508d803d1061042d5761041f81836129d3565b38610f4c565b508083168514610c49565b3461044b57602036600319011261044b57602061104f6004356147bb565b6040519015158152f35b3461044b57602036600319011261044b5760043560005260066020526020600360406000200154604051908152f35b3461044b57602036600319011261044b576004356000526006602052602060018060a01b0360046040600020015416604051908152f35b3461044b57600036600319011261044b576020601054604051908152f35b3461044b57602036600319011261044b57600435806000526006602052604060002054600460205261059160018060a01b038060406000205416936006602052604060002091600460028401549301541661113c6005610c7d846105b5565b90600361115e6111586001611150876105b5565b015460ff1690565b946105b5565b0154604080519788526001600160a01b03988916602089015287019490945286166060860152909416608084015292151560a083015260c082019290925290819060e0820190565b3461044b57602036600319011261044b576004356111c381610488565b60018060a01b031660005260036020526040600020546000526006602052602060ff600160406000200154166040519015158152f35b3461044b5761120736610b84565b611212610383614ab9565b6104395761121f33614b96565b8015611244575b156103a85761123491612c76565b9061059160405192839283610517565b50600460206112576103cd60005461047c565b604051630536340960e21b815292839182905afa9081156104345760009161128b575b506001600160a01b03163314611226565b6112a3915060203d811161042d5761041f81836129d3565b3861127a565b3461044b57600036600319011261044b576020600554604051908152f35b6001600160a01b0316600090815260036020526040902090565b3461044b57602036600319011261044b576004356112fe81610488565b60018060a01b031660005260036020526020604060002054604051908152f35b3461044b57602036600319011261044b57600435600161134961134482611150856105b5565b6134ef565b61135282610595565b906002908183019260ff8454818160081c1680611620575b61137390613a6d565b60101c16611523575061139282611389866105b5565b01541515613af9565b6000815b61143a575b506100169360009291506113e7906001600160a01b036113ca6005610c7d866113c3866105b5565b01546105b5565b166113fa575b84546113e29060101c60ff1682613b90565b6105b5565b0155805462ff0000191662010000179055565b61143461140f6005610c7d866113c3866105b5565b604051636f58dd0f60e11b60208201526000602482015290610cc082604481016106a5565b506113d0565b60038061144a856113c3896105b5565b015482101561151d578561147961146f8484611469896113c3876105b5565b016133f0565b90549060031b1c90565b1461148e575061148890613133565b81611396565b83925094611513866115006113e7946114e76114d861146f6100169c6114b960009c6113c38b6105b5565b016114d2876114cb8d6113c38d6105b5565b0154612ebf565b906133f0565b91846114698a6113c38a6105b5565b90919082549060031b91821b91600019901b1916179055565b61150d856113c3856105b5565b01613b43565b945081925061139b565b5061139b565b826115a361159d61086e9661157489600361156e6115dd996106a5996115586100169f9d611550876105b5565b015415613ab2565b019788548091611567866105b5565b01556105b5565b0161340d565b83546001600160a01b0361158c6005610c7d846105b5565b166115e3575b505460101c60ff1690565b85613b90565b610cc06115c1610da36115ba6004610c7d896105b5565b93546105c5565b604051630a4ce2c960e11b602082015293849160248301610499565b50610595565b6115f46005610c7d611619936105b5565b604051636f58dd0f60e11b60208201526001602482015290610cc082604481016106a5565b5038611592565b5080821661136a565b908152602081019190915260400190565b3461044b5760408060031936011261044b5760048035611658612c34565b6116696113446001611150846105b5565b61168361167c6103cd84610c7d856105b5565b33146137c3565b61168b612f21565b6116996005610c7d836105b5565b6010549084516116e76116d960209263015042f960e11b84820152806116c56024978835898401611629565b0394610cc0601f19968781018452836129d3565b828082518301019101613e67565b948686519487836116fd86830198895190612c27565b9761170d858401998a5190612c27565b61171d6060850191825190612c27565b918861172f6080870194855190612c27565b9761174060a08801998a5190612c27565b9661175961175460c08301998a5190612c27565b61484e565b51611a75575b82516119d3575b5050508051611925575b508051611878575b50506117878351825190612c27565b6117bd575b89896105916101008a6117a48d60e086015190613f77565b51920151926117b36001600255565b5192839283611629565b846117d26103cd60009a969799989a5461047c565b8b516324768d9160e01b815296879182905afa80156104345761059198610100988c611840966117a49960009561184b575b5090610e1d91611828610cc0969761181e610da38d6105c5565b9251905190612c27565b915197889463a9059cbb60e01b908601528401613823565b50938293388061178c565b610cc095509061182861186e610e1d9493863d881161042d5761041f81836129d3565b9650509091611804565b866118876103cd60005461047c565b8d516313b92d3560e31b815293849182905afa918215610434576118ee928d928c928a6000936118f6575b50506118e26118c7610da3610cc094956105c5565b9151945163a9059cbb60e01b8c820152948592898401613823565b038a81018452836129d3565b508338611778565b610cc09350610da361191b6118e293836118c794903d1061042d5761041f81836129d3565b945050508a6118b2565b878d6119356103cd60005461047c565b9051635506ee0b60e11b815294859182905afa908115610434578b61199d928f8b908b976000936119a4575b5061199190611976610da3610cc095966105c5565b9551905195869363a9059cbb60e01b908501528b8401613823565b038c81018452836129d3565b5038611770565b610cc0935090611976610da36119c961199194863d881161042d5761041f81836129d3565b9550505090611961565b6119e16103cd60005461047c565b90516330125cf560e01b815295869182905afa908115610434578c8f928b611a3d948c98600093611a46575b50610d1290611a22610da3610cc095966105c5565b9551905195869363a9059cbb60e01b908501528c8401613823565b5038888e611766565b610cc0935090611a22610da3611a6b610d1294863d881161042d5761041f81836129d3565b9550505090611a0d565b611a836103cd60005461047c565b9051636402742760e01b815295869182905afa938415610434578e611ae08f8f8c988f8f968d90600093611ae6575b50610e1d611ac6610da3610cc095966105c5565b9551885163a9059cbb60e01b8b8201529687938401613823565b5061175f565b610cc09350611ac6610da3611b0a610e1d938c8d3d1061042d5761041f81836129d3565b95505050611ab2565b3461044b57604036600319011261044b57602435600435611b32612c34565b611b436113446001611150846105b5565b611b5c611b556103cd610da3846105c5565b331461368d565b611b83611b6d6005610c7d846105b5565b611b756136d1565b611b7d612a11565b91614e2f565b9082611b996020938480825183010191016136f8565b1015611baa575b6100166001600255565b611c43611c5193611c1c610da3611c12611c04611be2611bce6005610c7d8a6105b5565b956040519182918b83019190602083019252565b0395611bf6601f19978881018452836129d3565b611bfe613707565b90614e2f565b878082518301019101613731565b97925050506105c5565b93610e1d611c28612a24565b604051968793637a937b4560e11b90850152602484016137a1565b6001600160a01b0316614fc2565b50388080611ba0565b3461044b57602036600319011261044b576020600435611c7981610488565b60018060a01b03809116600052600382526040600020546000526006825260056040600020015416604051908152f35b3461044b57604036600319011261044b57611cc5610383614ab9565b61043957611cd233614b96565b8015611cec575b156103a85761001660243560043561399d565b5060046020611cff6103cd60005461047c565b604051630536340960e21b815292839182905afa90811561043457600091611d33575b506001600160a01b03163314611cd9565b611d4b915060203d811161042d5761041f81836129d3565b38611d22565b3461044b57604036600319011261044b57600435600052600760205260406000206024356000526020526020604060002054604051908152f35b3461044b57602036600319011261044b5760043560005260066020526020600260406000200154604051908152f35b3461044b57604036600319011261044b5760043560005260066020526020611deb60243560036040600020016133f0565b90549060031b1c604051908152f35b3461044b57600036600319011261044b576001546040516001600160a01b039091168152602090f35b3461044b57604036600319011261044b57611e3f610383614ab9565b61043957611e4c33614b96565b8015611e66575b156103a8576100166024356004356148d2565b5060046020611e796103cd60005461047c565b604051630536340960e21b815292839182905afa90811561043457600091611ead575b506001600160a01b03163314611e53565b611ec5915060203d811161042d5761041f81836129d3565b38611e9c565b3461044b57602036600319011261044b57600435600052600e6020526020604060002054604051908152f35b3461044b57600036600319011261044b5760005460405163d1f956b160e01b815290602090829060049082906001600160a01b03165afa9081156104345761059191611f8091600091611f90575b50604051611f528161299d565b601381527267657464656c656761746f72436f756e74282960681b6020820152611f7a612a11565b91614f55565b6040519081529081906020820190565b611fa8915060203d811161042d5761041f81836129d3565b38611f45565b610100810192916000915b60088310611fc657505050565b600190825181526020809101920192019190611fb9565b3461044b57602036600319011261044b57610591600435612092610b396120026147d2565b9261201e61200f826105d5565b60008052602052604060002090565b54845261202d610a77826105d5565b54602085015261203f610a96826105d5565b546040850152612051610ab8826105d5565b546060850152612063610ada826105d5565b546080850152612075610afc826105d5565b5460a0850152612087610b1e826105d5565b5460c08501526105d5565b5460e082015260405191829182611fae565b3461044b57602036600319011261044b57602061104f6004356120c681610488565b614b96565b3461044b576121a46120dc36610b84565b906120e5612c34565b6121276120f3610bd0612a24565b6120fe610bea612a24565b906001600160a01b039061211790821686831614612a87565b610c246103cd826000541661047c565b61214061213b6001611150610c77856112c7565b612b12565b61219561218b61217c61215a6005610c7d610c77876112c7565b60405190612174826106a560208201906000602083019252565b611bfe612b66565b60208082518301019101612b94565b5050501515612bb6565b61219d612edb565b3390613183565b6121b261200f6010546105d5565b6121bc8154612c14565b90556121c661487a565b6121d46005610c7d836105b5565b906121de81613533565b6121e86001600255565b61059160405192839283610517565b3461044b57602036600319011261044b57612213610383614ab9565b6104395761222033614b96565b8015612237575b156103a857610016600435612f65565b506004602061224a6103cd60005461047c565b604051630536340960e21b815292839182905afa9081156104345760009161227e575b506001600160a01b03163314612227565b612296915060203d811161042d5761041f81836129d3565b3861226d565b3461044b57602036600319011261044b57600460018060a01b0360206122c5826000541661047c565b604051630536340960e21b815293849182905afa918215610434576000926122fc575b50339116036103a857610016600435614d2e565b61231591925060203d811161042d5761041f81836129d3565b90386122e8565b3461044b57602036600319011261044b57600435600052600c6020526020604060002054604051908152f35b3461044b57602036600319011261044b5760043561236581610488565b803b6000612372826129f6565b9261238060405194856129d3565b82845260208401903c602d8151106123a457602a602091015160601c604051908152f35b60405163baf3f0f760e01b8152600490fd5b604036600319011261044b576004356123cd612c34565b60009080825260066020526123eb60ff6001604085200154166134ef565b8152600660205261242a60018060a01b036005604084200154166040519062a0e53360e51b6020830152602435602483015260248252610cc082612962565b50600160025580f35b3461044b57604036600319011261044b57600435600052600960205260406000206024356000526020526020604060002054604051908152f35b3461044b5760c036600319011261044b5760243560043561248d82610488565b606435906084359061249d612c34565b6124ae6113446001611150846105b5565b6124c261167c6103cd6004610c7d856105b5565b6124ca612f21565b6124d3826147f6565b6124dc83614822565b6125616125536124f06005610c7d856105b5565b601054604051632998c0c160e21b6020808301919091526001600160a01b03999099166024820152604480359082015260648101889052608481019690965260a480359087015260c4808701919091528552601f19969490610cc060e4836129d3565b83808251830101910161380d565b9281612574575b5050611ba09350614281565b90816004926125876103cd60005461047c565b604051635e09dbe760e01b815294859182905afa801561043457611ba0976125d6946000926125de575b50610cc09192610e1d60405195869263a9059cbb60e01b908401523360248401613823565b503880612568565b610cc092506125f990843d861161042d5761041f81836129d3565b916125b1565b3461044b5760208060031936011261044b576004803561261e81610488565b60005460405163d1f956b160e01b81526001600160a01b03949093909182918591829088165afa90811561043457610591946106e39460009361267f575b5060405193168184015282526126718261299d565b612679614cca565b90614f19565b612697919350823d841161042d5761041f81836129d3565b913861265c565b3461044b57600036600319011261044b57602061104f614ab9565b3461044b57602036600319011261044b57600435600052600b6020526020604060002054604051908152f35b3461044b57604036600319011261044b5760243560043561271161084261270b336112c7565b546147bb565b6127226113446001611150846105b5565b6127386127336001611150856105b5565b61383e565b6127466005610c7d846105b5565b60048360405161278c61218b61277e6020938061276a868201906000602083019252565b0397612174601f19998a81018452836129d3565b838082518301019101612b94565b61279585610595565b936127e260028601966127b86127b36103838a5460ff9060081c1690565b613882565b6127d6604051998a92630f77309360e31b8785015260248401611629565b038281018952886129d3565b816127f16103cd60005461047c565b604051630536340960e21b815295869182905afa938415610434576100169761285d9561284a93610e1d9360009261286e575b50604051600162058cb160e41b031987820152939192610cc092859130602484016138c8565b91600185015580825183010191016136f8565b9055805461ff001916610100179055565b610cc0925061288990873d891161042d5761041f81836129d3565b91612824565b3461044b57602036600319011261044b57600435600052600d6020526020604060002054604051908152f35b3461044b5760408060031936011261044b576004356128d981610488565b60018060a01b03166105918260008381526003602052818120548152600a602052818120549381526003602052818120548152600960205281812060243582526020522054925192839283611629565b3461044b57600036600319011261044b576020612944614c3f565b604051908152f35b634e487b7160e01b600052604160045260246000fd5b606081019081106001600160401b0382111761297d57604052565b61294c565b60e081019081106001600160401b0382111761297d57604052565b604081019081106001600160401b0382111761297d57604052565b602081019081106001600160401b0382111761297d57604052565b601f909101601f19168101906001600160401b0382119082101761297d57604052565b6001600160401b03811161297d57601f01601f191660200190565b60405190612a1e826129b8565b60008252565b604051612a30816129b8565b60008152906000368137565b60405190612a498261299d565b60078252666f776e6572282960c81b6020830152565b60405190612a6c8261299d565b600c82526b67657448657862617365282960a01b6020830152565b15612a8e57565b60405162461bcd60e51b81526020600482015260176024820152766e65737465642e696e76616c69642e696e7374616e636560481b6044820152606490fd5b15612ad457565b60405162461bcd60e51b81526020600482015260166024820152756e65737465642e696e76616c69642e6865786261736560501b6044820152606490fd5b15612b1957565b60405162461bcd60e51b81526020600482015260186024820152776e65737465642e706172656e742e6e6f742e65786973747360401b6044820152606490fd5b546001600160a01b031690565b60405190612b738261299d565b60128252716765744e6f64654c422875696e743235362960701b6020830152565b919082608091031261044b578151916020810151916060604083015192015190565b15612bbd57565b60405162461bcd60e51b81526020600482015260196024820152786e65737465642e706172656e742e6e6f2e627573696e65737360381b6044820152606490fd5b634e487b7160e01b600052601160045260246000fd5b9060018201809211612c2257565b612bfe565b91908201809211612c2257565b6002805414612c435760028055565b604051633ee5aeb560e01b8152600490fd5b9081602091031261044b5751610ba981610488565b6040513d6000823e3d90fd5b9190612c80612c34565b612c9c612c976103836001611150610c77866112c7565b6130ef565b6005612cb0612cab8254613133565b600555565b612cd3815494612cc384610d4a886105c5565b85612ccd856112c7565b556112c7565b54612cde8582613430565b612cfd6004612cec876105b5565b0180546001600160a01b0319169055565b600092612d0d6103cd855461047c565b6040928351809263e09d394d60e01b825281600460209586935afa90811561043457612d4e91612d44918991612ea2575b50613372565b86610d608b6105b5565b84612d5c81610c7d8b6105b5565b91612d8c85612d6e6103cd8b5461047c565b6116c58d8a519384936352902c5960e01b8b86015260248501613161565b5080151580612e84575b612e41575b5050600482612dad6103cd895461047c565b86516318c9774160e21b815292839182905afa93841561043457600694612dfa93610e1d938a92612e20575b50875163d5ec0ea160e01b87820152939192610cc092859160248301610499565b508685525290912001546001600160a01b031691612e1781613533565b91906001600255565b610cc09250612e3b90873d891161042d5761041f81836129d3565b91612dd9565b612e7c91610c7d612e51926105b5565b8551636f58dd0f60e11b858201526001602482015290610cc082604481015b038581018452836129d3565b508438612d9b565b506001600160a01b03612e9a83610c7d846105b5565b161515612d96565b612eb99150853d871161042d5761041f81836129d3565b38612d3e565b600019810191908211612c2257565b91908203918211612c2257565b612ee3614c3f565b60105410612efb575b612ef96005601054612fae565b565b612f03614c3f565b806010556000198101908111612c2257612f1c90614692565b612eec565b612f29614c3f565b60105410612f3f575b612ef96002601054612fae565b612f47614c3f565b806010556000198101908111612c2257612f6090614692565b612f32565b612f6d614c3f565b60105410612f82575b612ef990601054612fae565b612f8a614c3f565b90816010556000198201918211612c2257612fa7612ef992614692565b9050612f76565b90612fbb61200f836105d5565b5415806130e5575b806130dc575b612fd1575050565b612fed90612fe7612fe184612ebf565b91612ebf565b90612fae565b61300161200f612ffc83612ebf565b6105d5565b5461300e61200f836105d5565b5561301e610a77612ffc83612ebf565b5461302b610a77836105d5565b5561303b610a96612ffc83612ebf565b54613048610a96836105d5565b55613058610ab8612ffc83612ebf565b54613065610ab8836105d5565b55613075610ada612ffc83612ebf565b54613082610ada836105d5565b55613092610afc612ffc83612ebf565b5461309f610afc836105d5565b556130af610b1e612ffc83612ebf565b546130bc610b1e836105d5565b556130d9610b396130d2610b39612ffc85612ebf565b54926105d5565b55565b50801515612fc9565b5060018211612fc3565b156130f657565b60405162461bcd60e51b81526020600482015260156024820152746e65737465642e616c72656164792e65786973747360581b6044820152606490fd5b6000198114612c225760010190565b80546001600160a01b0319166001600160a01b03909216919091179055565b6001600160a01b03918216815291166020820152604081019190915260600190565b9161319b612c976103836001611150610c77866112c7565b6005916131ab612cab8454613133565b6131e26131cb8454956131c185610d4a896105c5565b86612ccd866112c7565b54916131d78684613430565b6004610d60876105b5565b6131f06103cd60005461047c565b9060405193849263e09d394d60e01b845283600460209586935afa8015610434576132286132329160049760009161335b5750613372565b82610d60896105b5565b61323f81610c7d886105b5565b91613271856132526103cd60005461047c565b6116c58a6040519384936352902c5960e01b8b86015260248501613161565b508015158061333d575b613301575b5050816132916103cd60005461047c565b6040516318c9774160e21b815295869182905afa908115610434576132dc946000926132e0575b50610cc09192610e1d60405195869263d5ec0ea160e01b9084015260248301610499565b5090565b610cc092506132fb90843d861161042d5761041f81836129d3565b916132b8565b61333591610c7d613311926105b5565b604051636f58dd0f60e11b858201526001602482015290610cc08260448101612e70565b503880613280565b506001600160a01b0361335383610c7d846105b5565b16151561327b565b612eb99150863d881161042d5761041f81836129d3565b6e5af43d82803e903d91602b57fd5bf390763d602d80600a3d3981f3363d3d373d3d3d363d7300000062ffffff8260881c161760005260781b17602052603760096000f0906001600160a01b038216156133c857565b60405163b06ebf3d60e01b8152600490fd5b634e487b7160e01b600052603260045260246000fd5b80548210156134085760005260206000200190600090565b6133da565b80549190600160401b83101561297d57826114e7916001612ef9950181556133f0565b919091600092808452602091600683526040808620956002948386890155846001988981018a60ff19825416179055558761346a866105e5565b83805282528489858520555b61348557505050505050509050565b6134d26134cc828b8a94146134db575b61349e886105e5565b81875285528686206134b08154612c14565b90556134bb886105f5565b6134c58154612c14565b9055613133565b956105b5565b01549384613476565b6134ea89600361156e8b6105b5565b613495565b156134f657565b60405162461bcd60e51b81526020600482015260156024820152746e65737465642e757365722e6e6f7461637469766560581b6044820152606490fd5b80600052600660205261355060ff600160406000200154166134ef565b600052600660205261359060018060a01b03600560406000200154166040519062a0e53360e51b60208301526001602483015260248252610cc082612962565b50565b1561359a57565b60405162461bcd60e51b81526020600482015260136024820152726e65737465642e7a65726f2e6164647265737360681b6044820152606490fd5b156135dc57565b60405162461bcd60e51b81526020600482015260146024820152736e65737465642e7461726765742e65786973747360601b6044820152606490fd5b1561361f57565b60405162461bcd60e51b81526020600482015260176024820152766e65737465642e736f757263652e6e6f7445786973747360481b6044820152606490fd5b6040519061366b8261299d565b601382527255736572546f496e737428616464726573732960681b6020830152565b1561369457565b60405162461bcd60e51b81526020600482015260156024820152743732b9ba32b21734b73b30b634b21739b2b73232b960591b6044820152606490fd5b604051906136de8261299d565b600b82526a6d696e74436f756e74282960a81b6020830152565b9081602091031261044b575190565b604051906137148261299d565b600e82526d6d696e74732875696e743235362960901b6020830152565b919082608091031261044b5781519160208101519160606040830151920151610ba981610488565b60005b83811061376c5750506000910152565b818101518382015260200161375c565b9060209161379581518092818552858086019101613759565b601f01601f1916010190565b6001600160a01b039091168152604060208201819052610ba99291019061377c565b156137ca57565b60405162461bcd60e51b815260206004820152601b60248201527a6e65737465642e757365722e696e76616c6964696e7374616e636560281b6044820152606490fd5b919082604091031261044b576020825192015190565b6001600160a01b039091168152602081019190915260400190565b1561384557565b60405162461bcd60e51b81526020600482015260156024820152741b995cdd19590b9a5b9d985b1a590b9c185c995b9d605a1b6044820152606490fd5b1561388957565b60405162461bcd60e51b81526020600482015260176024820152761b995cdd19590b9c995c4b985b1c9958591e595e1a5cdd604a1b6044820152606490fd5b929161393560a09160009360c08752602460c08801527f547269676765722e6e65737465642e70726f706f73616c2e6d6f7665646f776e60e0880152636c696e6560e01b610100880152600180851b0316602087015283604087015261012080606088015286019061377c565b93600a60808201520152565b6040519061394e8261299d565b60128252716765745374617475732875696e743235362960701b6020830152565b5190811515820361044b57565b919082604091031261044b57610ba960206139968461396f565b930161396f565b6139ba6139c6916139b56113446001611150846105b5565b610595565b9160018301541461383e565b6139d46103cd60005461047c565b906040518092630536340960e21b825281600460209586935afa90811561043457612ef993613a2f6106a5600294613a3c94600091613a50575b50613a2787546040519384918783019190602083019252565b611bfe613941565b805181018201910161397c565b5091019060ff801983541691151516179055565b613a679150843d861161042d5761041f81836129d3565b38613a0e565b15613a7457565b60405162461bcd60e51b81526020600482015260166024820152751b995cdd19590b9c995c4b9b9bdd185c1c1c9bdd995960521b6044820152606490fd5b15613ab957565b60405162461bcd60e51b81526020600482015260186024820152771b995cdd19590b9d5cd95c8b9b9bdd0b99195d1858da195960421b6044820152606490fd5b15613b0057565b60405162461bcd60e51b815260206004820152601b60248201527a1b995cdd19590b9d5cd95c8b985b1c99591e4b99195d1858da1959602a1b6044820152606490fd5b8054908115613b6d5760001991820191613b5d83836133f0565b909182549160031b1b1916905555565b634e487b7160e01b600052603160045260246000fd5b8015612c22576000190190565b90613ba3613b9d836105f5565b54612c14565b9160029081613bb1826105b5565b0154906001938492835b613bc9575b50505050505050565b600f8085111580613e5e575b15613e585785906005613bee6103cd82610c7d876105b5565b613c10575b5050613c01613c09926105b5565b015493613133565b9285613bbb565b865b82811115613cd857505050613c01613c099284600014613c9657613c4f613c38876105e5565b613c4189612ebf565b600052602052604060002090565b54613c77613c6f89613c60856105e5565b90600052602052604060002090565b918254612c27565b9055613c82816105f5565b613c8d8b8254612c27565b90555b92613bf3565b613ca2613c38876105e5565b54613cbb613cb389613c60856105e5565b918254612ece565b9055613cc6816105f5565b613cd18b8254612ece565b9055613c90565b90919250613ce982610c7d886105b5565b613cf38883612ece565b60409187613d35613d27855180613d136020978883019190602083019252565b0394612174601f19968781018452836129d3565b848082518301019101612b94565b50509290878a821580613e50575b613e3f5792613da79492610e1d613d65610cc094610c7d613db49b9a986105b5565b9460109a8c8c549151988995637b058ac160e01b8d8801526024870193909594919260809360a086019786526020860152604085015260608401521515910152565b805181018201910161380d565b908715613e00575b808211613dd857505050613dcf90613133565b90879291613c12565b613de190613133565b613def81613c6085546105d5565b613df98154612c14565b9055613dbc565b9190915b828111613e1757505050613dcf90613133565b80613e29613e3a92613c6085546105d5565b613e338154612ebf565b9055613b83565b613e04565b5050505050505050613dcf90613133565b508515613d43565b50613bc0565b50811515613bd5565b90610120808383031261044b5781601f8401121561044b57604051928184016001600160401b0381118582101761297d576040528391810192831161044b57905b828210613eb55750505090565b8151815260209182019101613ea8565b60405190613ed28261299d565b600f82526e66726565496e74657276616c73282960881b6020830152565b60405190613efd8261299d565b601582527467657452616e6b5769746841676556616c7565282960581b6020830152565b60405190613f2e8261299d565b601382527272616e6b436c617573652875696e743235362960681b6020830152565b908160a091031261044b578051916020820151916040810151916080606083015192015190565b91906004906020613f8c6103cd60005461047c565b60405163cfbffe5360e01b815293849182905afa91821561043457600092614260575b50613fc9613fbb612a24565b613fc3613ec5565b84614f55565b906000809360009060009560009360009260009a5b600f8c111580614257575b1561424957613fff6103cd6005610c7d846105b5565b614020575b600261401261401a926105b5565b01549b613133565b9a613fde565b8b61404c61403d6140356005610c7d866105b5565b611b75613ef0565b6020808251830101910161380d565b82919215614200575b811515806141f7575b80156141ef575b614072575b505050614004565b838b9184959e8e94950361412d575b50926140fa92610cc06140eb936106a58e6140a36005610c7d6141009b6105b5565b9460105460405197889563208bffb160e21b60208801526024870193909594919260a09360c08601978652600060208701526040860152606085015260808401521515910152565b602080825183010191016136f8565b91612c14565b8082101561411557509860028c61401a61406a565b806134bb61412892613c606010546105d5565b614100565b939a50505050838211614180575b5088888b86841080801591614157575b50159992919038614081565b8a861015915081614178575b5080614170575b3861414b565b50871561416a565b905038614163565b935093509350506141d16141c26040516141b4816141a687602083019190602083019252565b03601f1981018352826129d3565b6141bc613f21565b86614e2f565b60208082518301019101613f50565b9493509095915094926141e78593601054612ece565b11933861413b565b506000614065565b508a151561405e565b965050995092509350506142296141c26040516141b4816141a68c602083019190602083019252565b9a9350909591509492828c819b61424288601054612ece565b1196614055565b505050505050505050509050565b50801515613fe9565b61427a91925060203d60201161042d5761041f81836129d3565b9038613faf565b9291600460009260206142976103cd865461047c565b60405163cfbffe5360e01b815293849182905afa918215610434578492614512575b506142c5613fbb612a24565b918480809181978294839b5b600f8d111580614509575b156144fa576142f26103cd6005610c7d846105b5565b614313575b600261430561430d926105b5565b01549c613133565b9b6142d1565b8c61432861403d6140356005610c7d866105b5565b82919215806144a1575b1580614498575b801561448f575b61434d575b5050506142f7565b8b849e948c928f959687036143f5575b5092610cc06140eb936106a58e6143c898956143806005610c7d6140fa9b6105b5565b956010549060405198899663208bffb160e21b60208901526024880194919260a0949197969360c0870198875260208701526040860152606085015260808401521515910152565b808210156143dd57509960028d61430d614345565b806134bb6143f092613c606010546105d5565b6143c8565b9450505050975083821161444b575b5087898c8c87851080801591614422575b50159a929093913861435d565b8b871015915081614443575b508061443b575b38614415565b508815614435565b90503861442e565b935093509350506144716141c26040516141b4816141a687602083019190602083019252565b9493509095915094926144878593601054612ece565b119338614404565b508c1515614340565b508a1515614339565b97509450509350945098506144d96141c26040516144cb816141a687602083019190602083019252565b6144d3613f21565b8c614e2f565b9c93509096915095938d8194829d6144f382601054612ece565b1197614332565b50505050505050505050509050565b508015156142dc565b61452c91925060203d60201161042d5761041f81836129d3565b90386142b9565b6010546000198101908111612c2257612ef990614692565b1561455257565b60405162461bcd60e51b81526020600482015260126024820152716e65737465642e696e76616c69642e61676560701b6044820152606490fd5b604051906145998261299d565b60188252776765744261746368526f79616c7479436c6175736573282960401b6020830152565b6102a090818184031261044b5782601f8201121561044b5760408051936145e685612982565b849383019281841161044b57935b83851061460357505050505090565b60608583031261044b57825160609161461b82612962565b86518252602091828801518382015285880151868201528152019401936145f4565b9060078110156134085760051b0190565b9081606402916064830403612c2257565b81810292918115918404141715612c2257565b811561467c570490565b634e487b7160e01b600052601260045260246000fd5b61469d81151561454b565b6146ab6103cd60005461047c565b90604051809263cfbffe5360e01b825281600460209586935afa908115610434576146f3916146e59160009161479e575b50611b7561458c565b8380825183010191016145c0565b61470782600052600b602052604060002090565b5460015b600781111561471b575050505050565b8061472c61478a92613c60876105d5565b5480156147985761474561473f83612ebf565b8661463d565b5187815192831561478f5761476c61477192614764614777968a61465f565b94015161464e565b61465f565b90614672565b61478482613c60886105a5565b55613133565b61470b565b50505050613133565b50613133565b6147b59150853d871161042d5761041f81836129d3565b386146dc565b600052600660205260ff6001604060002001541690565b604051906101008083016001600160401b0381118482101761297d57604052368337565b60105480600052600b602052604060002054918201809211612c2257600052600b602052604060002055565b60105480600052600c602052604060002054918201809211612c2257600052600c602052604060002055565b60105480600052600d602052604060002054918201809211612c2257600052600d602052604060002055565b60105480600052600e6020526040600020549060018201809211612c2257600052600e602052604060002055565b9080600052600b602052604060002054918201809211612c2257600052600b602052604060002055565b9080600052600d602052604060002054918201809211612c2257600052600d602052604060002055565b9080600052600e602052604060002054918201809211612c2257600052600e602052604060002055565b604051906149338261299d565b6014825273676574627573696e6573732875696e743235362960601b6020830152565b604051906149638261299d565b601d82527f67657472616e6b436f756e742875696e743235362c75696e74323536290000006020830152565b60009061499f6103cd835461047c565b91604092835192839163111ea8c160e21b835282600460209485935afa938415610434578394614a86575b505b858111156149dc57505050505050565b8451828101828152819003808252601f1991614a0d916149ff90602001826129d3565b614a07614926565b87614f55565b614a24613c6f84600052600b602052604060002090565b9055835b60088110614a40575050614a3b90613133565b6149cc565b614a8190614a748851614a6681614a5a85898b8401611629565b038681018352826129d3565b614a6e614956565b89614f55565b61478482613c60876105d5565b614a28565b614a9e919450823d841161042d5761041f81836129d3565b92386149ca565b9081602091031261044b57610ba99061396f565b600054604051634bf9c0ad60e11b81526020918290829060049082906001600160a01b03165afa801561043457614b2191600091614b48575b50604051614aff8161299d565b6008815267697353616665282960c01b84820152614b1b612a11565b91614e5a565b9080614b3e575b156106f55781610ba99282518301019101614aa5565b5081815114614b28565b614b5f9150833d851161042d5761041f81836129d3565b38614af2565b60405190614b728261299d565b601582527469735365637572654261736528616464726573732960581b6020830152565b614ba46103cd60005461047c565b906040518092634bf9c0ad60e11b825281600460209586935afa801561043457614b21926106a592600092614bef575b50614be790604051938491878301610499565b6106bb614b65565b614be7919250614c0b90863d881161042d5761041f81836129d3565b9190614bd4565b60405190614c1f8261299d565b601182527069735369676e657228616464726573732960781b6020830152565b60005460405163111ea8c160e21b815290602090829060049082906001600160a01b03165afa801561043457610ba991600091614cac575b50604051614c848161299d565b6005815264616765282960d81b602082015260405191614ca3836129b8565b60008352614f55565b614cc4915060203d811161042d5761041f81836129d3565b38614c77565b60405190614cd78261299d565b6018825277697364656c656761746f724e6f646528616464726573732960401b6020830152565b3d15614d29573d90614d0f826129f6565b91614d1d60405193846129d3565b82523d6000602084013e565b606090565b6000614d3d6103cd825461047c565b9060405180926311be646b60e21b825281600460209586935afa80156104345782808681949382948391614e12575b505af1614d77614cfe565b50156106f557600482614d8d6103cd845461047c565b604051635e09dbe760e01b815292839182905afa908115610434577fcdcc745fe377b103b45fa0cec23ae3ef93d6fc6a84a01f0d18c40b354dd1d5d893614df09392614df5575b50506040519384526001600160a01b0316929081906020820190565b0390a2565b614e0b9250803d1061042d5761041f81836129d3565b3880614dd4565b614e299150883d8a1161042d5761041f81836129d3565b38614d6c565b90614e3a9291614e5a565b9060009015614e47575090565b6040519150614e55826129b8565b815290565b803b15614ebc57600092839263ffffffff60e01b90602081519101201690614eac6024604051809360208201958652614e9c8151809260208686019101613759565b81010360048101845201826129d3565b51915afa614eb8614cfe565b9091565b505050600090604051614ece816129b8565b6000815290565b9291614ee391600094614e5a565b9080614f0e575b614ef15750565b90915060208180518101031261044b576020015161047c81610488565b506020815114614eea565b9291614f2791600094614e5a565b9080614f4a575b614f355750565b610ba991925060208082518301019101614aa5565b506020815114614f2e565b9291614f6391600094614e5a565b9080614f86575b614f715750565b610ba9919250602080825183010191016136f8565b506020815114614f6a565b906020825192015163ffffffff60e01b908181169360048110614fb357505050565b60040360031b82901b16169150565b6001600160a01b0381161561504457600080918351908260208601915af190614fe9614cfe565b9115614ff3575090565b80516000919060041161503e5761500a9150614f91565b81511561501a5750805190602001fd5b604051630870274d60e21b81526001600160e01b0319919091166004820152602490fd5b5061500a565b60405163e6c4247b60e01b8152600490fdfea26469706673582212204da38077a5e7ecd72412c580a8bd2b95bf2d63ee86dde9ed1a4463989775b86064736f6c63430008140033","linkReferences":{}},"methodIdentifiers":{"dAOAssembly()":"14837455","daocore()":"14d8d024","nested741()":"45cff900","old741()":"5540c5ac","price()":"a035b1fe"},"id":34}