{"abi":[{"type":"constructor","inputs":[{"name":"_hex","type":"address","internalType":"address"}],"stateMutability":"nonpayable"},{"type":"function","name":"rule741","inputs":[],"outputs":[{"name":"","type":"address","internalType":"address"}],"stateMutability":"view"},{"type":"function","name":"transferRequest","inputs":[],"outputs":[{"name":"","type":"address","internalType":"address"}],"stateMutability":"view"}],"bytecode":{"object":"0x60803461012557601f620069ef38819003918201601f19168301926001600160401b039290918385118386101761010f57816020928492604097885283398101031261012557516001600160a01b0390818116908190036101255783519061429a91828101928184108685111761010f5762002755823981835260208160009403019083f09384156101055782549484166001600160a01b031995861617835585519161255a80840192848410908411176100f157918391602093620001fb8439815203019082f09081156100e65750169060015416176001555160d090816200012b8239f35b8451903d90823e3d90fd5b634e487b7160e01b85526041600452602485fd5b85513d84823e3d90fd5b634e487b7160e01b600052604160045260246000fd5b600080fdfe6080806040526004361015601257600080fd5b600090813560e01c9081630a5b38ab1460685750633da8676f14603457600080fd5b3460655780600319360112606557602073ffffffffffffffffffffffffffffffffffffffff60015416604051908152f35b80fd5b9050346096578160031936011260965773ffffffffffffffffffffffffffffffffffffffff60209254168152f35b5080fdfea26469706673582212201befaa8739e171e392722efa27a0db593bc56e9ba968a15ef03e40e98ebb240464736f6c634300081400336080346100ca57601f61255a38819003918201601f19168301916001600160401b038311848410176100cf578084926020946040528339810103126100ca57516001600160a01b038116908190036100ca5780156100855760018060a01b0319338160015416176001556000541617600055600160035560405161247490816100e68239f35b60405162461bcd60e51b815260206004820152601360248201527f6f776e2e696e76616c69642e68657862617365000000000000000000000000006044820152606490fd5b600080fd5b634e487b7160e01b600052604160045260246000fdfe60806040526004361015610018575b361561001657005b005b60003560e01c806312065fe0146101a857806318c864e3146101a35780631f185d161461019e5780633294adf0146101995780633676bd1f146101945780633b9b79551461018f578063479fa2c31461018a5780634ef260a9146101855780638da5cb5b146101805780639fb3953b1461017b578063a1f7f53914610176578063ab7e46ae14610171578063ac2333451461016c578063af48452614610167578063b8f1759a14610162578063b90306ad1461015d578063c1e6cec214610158578063c54e44b014610153578063cab3cc8d1461014e578063e01ad5fd14610149578063e0a9bc2b14610144578063e846034a1461013f578063e981bcad1461013a578063fdc10bc9146101355763ff585caf0361000e576110a5565b610ffd565b610f22565b610f04565b610e65565b610dcb565b610dad565b610d0b565b610ccd565b610bad565b610b53565b610b22565b610aea565b610a90565b6109d2565b61081c565b6107f5565b610721565b610672565b61064b565b610620565b6103e3565b6102be565b61021e565b346101c45760003660031901126101c457602047604051908152f35b600080fd5b634e487b7160e01b600052603260045260246000fd5b60055481101561021957600560005260021b7f036b6384b5eca791c62761152d0c79bb0604c104a5fb6f4eb0703f3154bb3db00190600090565b6101c9565b346101c45760203660031901126101c4576004356005548110156101c457610245906101df565b50805460018201546002830154600390930154604080516001600160a01b039485168152938316602085015260ff60a093841c811615159185019190915260608401949094528381161515608084015260081c90921615159181019190915260c090f35b0390f35b6001600160a01b038116036101c457565b346101c4576020806003193601126101c4576004908135906102df826102ad565b806103016102f56000546001600160a01b031690565b6001600160a01b031690565b60405194858092634bf9c0ad60e11b82525afa9182156103de5761035561038f93610371926102a9966000926103ab575b50610363906040519384918783019190916001600160a01b036020820193169052565b03601f198101845283611205565b61036b61203d565b906121a0565b9190806103a1575b61038290612076565b8082518301019101611efb565b60405190151581529081906020820190565b5081518114610379565b6103639192506103d090863d88116103d7575b6103c88183611205565b810190611227565b9190610332565b503d6103be565b61123f565b346101c4576020806003193601126101c457600435610401816102ad565b6001600160a01b038116156105dc57610437610430336001600160a01b03166000526004602052604060002090565b5415611119565b61046d61044261117a565b509182906001600160a01b031673ffffffffffffffffffffffffffffffffffffffff19825416179055565b60018101805473ffffffffffffffffffffffffffffffffffffffff191633178155916104d2906004906005546040519384917fff585caf0000000000000000000000000000000000000000000000000000000084840152602483019190602083019252565b036104e5601f1991828101865285611205565b816104fb6102f56000546001600160a01b031690565b60405194858092630536340960e21b82525afa9283156103de576002946105859461057893610567936000926105bb575b5061057391926040519485917fd3a308490000000000000000000000000000000000000000000000000000000089840152306024840161126e565b03908101845283611205565b612349565b80518101820191016112ee565b9101556105b861059f60055492546001600160a01b031690565b6001600160a01b03166000526004602052604060002090565b55005b61057392506105d690873d89116103d7576103c88183611205565b9161052c565b6064826040519062461bcd60e51b82526004820152601260248201527f6f776e2e64656661756c742e73656e64657200000000000000000000000000006044820152fd5b346101c45760203660031901126101c457610639611d65565b610644600435611934565b6001600355005b346101c45760003660031901126101c45760206001600160a01b0360005416604051908152f35b346101c45760203660031901126101c45760043580151580610715575b61069890611348565b6000198101908111610710576106ad906101df565b50805460018201546003830154600290930154604080516001600160a01b039485168152938316602085015260ff80861615159185019190915260089490941c84161515606084015260a091821c9093161515608083015281019190915260c090f35b611393565b5060055481111561068f565b346101c45760203660031901126101c4576001600160a01b03600435610746816102ad565b166000908082526004602052604082205460001981019081116107105761076e6003916101df565b500161010061ff00198254161790558082526004602052816040812055600654680100000000000000008110156107f0576001810180600655811015610219577ff652222313e28459528d920b65115c16c04f3efc82aaedc97be59f3f377c0d3f019073ffffffffffffffffffffffffffffffffffffffff1982541617905580f35b611164565b346101c45760003660031901126101c45760206001600160a01b0360015416604051908152f35b60803660031901126101c457600435610834816102ad565b61083c611d65565b6108516102f56000546001600160a01b031690565b6040519163ab6e844f60e01b83526020918284600481845afa9384156103de576000946109ae575b5082600491604051928380927fde433f170000000000000000000000000000000000000000000000000000000082525afa9081156103de57610902916108e091600091610991575b506040519182918683019190916001600160a01b036020820193169052565b03946108f4601f1996878101845283611205565b6108fc611e3e565b90612236565b906001600160a01b03821661091c575b6100166001600355565b610987937fc107930a00000000000000000000000000000000000000000000000000000000936105676105739360405196879384015260643590604435906024359060248601909493926060926001600160a01b036080840197168352602083015260408201520152565b5038808080610912565b6109a89150853d87116103d7576103c88183611205565b386108c1565b60049194506109ca8491823d84116103d7576103c88183611205565b949150610879565b346101c45760003660031901126101c457600460206001600160a01b03600054166040519283809263d1f956b160e01b82525afa9081156103de576102a991610a6291600091610a72575b50604051610a2a816111cd565b601381527f67657464656c656761746f72436f756e742829000000000000000000000000006020820152610a5c6113d4565b916122c3565b6040519081529081906020820190565b610a8a915060203d81116103d7576103c88183611205565b38610a1d565b346101c45760203660031901126101c4576004356006548110156101c4576001600160a01b0360209160066000527ff652222313e28459528d920b65115c16c04f3efc82aaedc97be59f3f377c0d3f015416604051908152f35b346101c45760203660031901126101c4576020610b11600435610b0c816102ad565b61159c565b6001600160a01b0360405191168152f35b346101c45760203660031901126101c4576020610b49600435610b44816102ad565b611f93565b6040519015158152f35b346101c45760203660031901126101c457600435600654811015610219576001600160a01b0360209160066000527ff652222313e28459528d920b65115c16c04f3efc82aaedc97be59f3f377c0d3f015416604051908152f35b346101c4576020806003193601126101c4576004356001600160a01b0391600092808454169060405191630536340960e21b83528383600481845afa9283156103de576004938593610c09928992610cae575b501633146112fd565b604051928380927f46f991ac0000000000000000000000000000000000000000000000000000000082525afa9182156103de57848085610c6095829583958492610c91575b50505af1610c5a6120fa565b5061212a565b60405190815233907fcdcc745fe377b103b45fa0cec23ae3ef93d6fc6a84a01f0d18c40b354dd1d5d890602090a280f35b610ca79250803d106103d7576103c88183611205565b3880610c4e565b610cc6919250853d87116103d7576103c88183611205565b9038610c00565b346101c45760203660031901126101c4576001600160a01b03600435610cf2816102ad565b1660005260046020526020604060002054604051908152f35b346101c45760203660031901126101c457600435610d28816102ad565b803b6000610d35826113b8565b92610d436040519485611205565b82845260208401903c602d815110610d6957602a015160405160609190911c8152602090f35b606460405162461bcd60e51b815260206004820152601360248201527f4e6f742061206d696e696d616c2070726f7879000000000000000000000000006044820152fd5b346101c45760003660031901126101c4576020600554604051908152f35b346101c4576020806003193601126101c45760048035610dea816102ad565b6001600160a01b03928084600054166040519485809263d1f956b160e01b82525afa9081156103de576102a99461038f94600093610e46575b506040519316818401528252610e38826111cd565b610e406120c1565b90612287565b610e5e919350823d84116103d7576103c88183611205565b9138610e23565b346101c45760003660031901126101c4576001600160a01b03600054166040518091634bf9c0ad60e11b825281600460209384935afa9081156103de57610ecc61038f926102a994600091610ee7575b50610ebe611e77565b610ec66113d4565b916121a0565b919080610edd575b61038290611eb0565b5081518114610ed4565b610efe9150833d85116103d7576103c88183611205565b38610eb5565b346101c45760003660031901126101c4576020600654604051908152f35b346101c45760403660031901126101c457610f3b611d65565b610f4c610f4730611f93565b6116bc565b60046020610f656102f56000546001600160a01b031690565b6040519283809263ab6e844f60e01b82525afa80156103de57610fd491600091610fdf575b506040517f33b59a5b000000000000000000000000000000000000000000000000000000006020820152600435602480830191909152356044820152906105738260648101610355565b506100166001600355565b610ff7915060203d81116103d7576103c88183611205565b38610f8a565b346101c45760003660031901126101c457600460206001600160a01b03600054166040519283809263111ea8c160e21b82525afa9081156103de576102a991610a6291600091611087575b50604051611055816111cd565b600581527f61676528290000000000000000000000000000000000000000000000000000006020820152610a5c6113d4565b61109f915060203d81116103d7576103c88183611205565b38611048565b346101c45760203660031901126101c45760046001600160a01b036020816000541660405193848092630536340960e21b82525afa9081156103de576110f59260009261110057501633146112fd565b610016600435611466565b610cc691925060203d81116103d7576103c88183611205565b1561112057565b606460405162461bcd60e51b815260206004820152601260248201527f70726f706f7365722e746f2e65786973747300000000000000000000000000006044820152fd5b634e487b7160e01b600052604160045260246000fd5b600554680100000000000000008110156107f057600181018060055581101561021957600560005260021b7f036b6384b5eca791c62761152d0c79bb0604c104a5fb6f4eb0703f3154bb3db00190600090565b6040810190811067ffffffffffffffff8211176107f057604052565b6020810190811067ffffffffffffffff8211176107f057604052565b90601f8019910116810190811067ffffffffffffffff8211176107f057604052565b908160209103126101c4575161123c816102ad565b90565b6040513d6000823e3d90fd5b60005b83811061125e5750506000910152565b818101518382015260200161124e565b92916080906001600160a01b03600a9360a08752600d60a08801527f55736572205472616e736665720000000000000000000000000000000000000060c08801521660208601526000604086015260e0606086015280518060e08701526112df81610100936020858a01910161124b565b601f8019910116850101930152565b908160209103126101c4575190565b1561130457565b606460405162461bcd60e51b815260206004820152600f60248201527f6f776e2e6e6f6e617574682e44414f00000000000000000000000000000000006044820152fd5b1561134f57565b606460405162461bcd60e51b815260206004820152601760248201527f70726f706f7365722e696e76616c69642e666f726d69640000000000000000006044820152fd5b634e487b7160e01b600052601160045260246000fd5b60001981019190821161071057565b67ffffffffffffffff81116107f057601f01601f191660200190565b604051906113e1826111e9565b60008252565b604051906113f4826111cd565b601282527f676574526573756c742875696e743235362900000000000000000000000000006020830152565b519081151582036101c457565b91908260c09103126101c45781519160208101519160408201519160608101519161123c60a061145f60808501611420565b9301611420565b80156115995761148661148b91611481600554821115611348565b6113a9565b6101df565b506114a16102f56000546001600160a01b031690565b604051918291630536340960e21b835282600460209485935afa9081156103de576115156115689361150861035560039561157a9860009161157c575b506114fa60028701546040519384918783019190602083019252565b6115026113e7565b90612175565b805181018201910161142d565b9794509250505060018301907fffffffffffffffffffffff00ffffffffffffffffffffffffffffffffffffffff74ff0000000000000000000000000000000000000000835492151560a01b169116179055565b019060ff801983541691151516179055565b565b6115939150843d86116103d7576103c88183611205565b386114de565b50565b6115b9816001600160a01b03166000526004602052604060002090565b548015159081611664575b501561165e576114866115ed6115f3926001600160a01b03166000526004602052604060002090565b546113a9565b50600181015460a01c60ff169081611648575b81611627575b6000911561162357546001600160a01b0316905090565b5090565b905061164261163e600383015460ff9060081c1690565b1590565b9061160c565b9050611658600382015460ff1690565b90611606565b50600090565b90506005541015386115c4565b1561167857565b606460405162461bcd60e51b815260206004820152601c60248201527f7574696c6974792e62617463682e6c696d69742e6578636565646564000000006044820152fd5b156116c357565b606460405162461bcd60e51b815260206004820152601760248201527f7574696c6974792e756e7365637572652e6661696c65640000000000000000006044820152fd5b604051611713816111e9565b60008152906000368137565b6040519061172c826111cd565b600f82527f6765744e6f646573436f756e74282900000000000000000000000000000000006020830152565b1561175f57565b606460405162461bcd60e51b815260206004820152601360248201527f7574696c6974792e696d706f72742e646f6e65000000000000000000000000006044820152fd5b9190820180921161071057565b60001981146107105760010190565b604051906117cc826111cd565b601782527f6765744e6f64654279496e6465782875696e74323536290000000000000000006020830152565b156117ff57565b606460405162461bcd60e51b815260206004820152601660248201527f70726f78792e696e76616c69642e696e7374616e6365000000000000000000006044820152fd5b60405190611850826111cd565b601382527f496e7374546f55736572286164647265737329000000000000000000000000006020830152565b1561188357565b606460405162461bcd60e51b815260206004820152601260248201527f70726f78792e696e76616c69642e6e6f646500000000000000000000000000006044820152fd5b604051906118d4826111cd565b601082527f6765744e6f6465286164647265737329000000000000000000000000000000006020830152565b908160a09103126101c457805191602082015161191c816102ad565b9160408101519161123c608061145f60608501611420565b6119416064821115611671565b61194d610f4730611f93565b6000906119646102f583546001600160a01b031690565b9160409081519163111ea8c160e21b9485845260209060049482818781855afa80156103de576119ad918691611d4e575b5061199e611707565b906119a761171f565b906122c3565b958615611d445783518381888163ab6e844f60e01b968782525afa9081156103de576119f8916119e6918891611d27575061199e611707565b916119f2838a11611758565b826117a3565b96808811611d1f575b505b868110611a14575050505050505050565b611a286102f586546001600160a01b031690565b9084519189835284838981845afa9283156103de578793611d00575b50611a78865180611a5c858983019190602083019252565b0394611a70601f1996878101845283611205565b6108fc6117bf565b906001600160a01b03611a8e81841615156117f8565b87518c815287818c81865afa80156103de57611ae3918b91611ce3575b50895190611adb82611acf888d83019190916001600160a01b036020820193169052565b03898101845283611205565b6108fc611843565b91611af1828416151561187c565b8851938d855288858d81855afa9485156103de57611b4e6001928c8f988f611b5c958f9192611cbe575b5091516001600160a01b0390931691830191825290611b469083906020015b038c8101845283611205565b6115026118c7565b8a8082518301019101611900565b5050509390931692611b6f81151561187c565b148015611cb5575b611c38575b50611b878280611da0565b86611b9c6102f58b546001600160a01b031690565b8951948580928a82525afa80156103de57611c1295611c0c948b92611c17575b5089517f50db85d1000000000000000000000000000000000000000000000000000000008a8201526001600160a01b03938416602482015293909216604484015290610573908360648101610567565b506117b0565b611a03565b6105739250611c32908a3d8c116103d7576103c88183611205565b91611bbc565b928c88918a518096819382525afa9283156103de578a93611c8c92611c80928c92611c92575b50611adb908b519384918c83019190916001600160a01b036020820193169052565b03888101845283611205565b38611b7c565b611adb919250611cae908b3d8d116103d7576103c88183611205565b9190611c5e565b50811515611b77565b611b469250611cdc611b3a91833d85116103d7576103c88183611205565b9250611b1b565b611cfa9150893d8b116103d7576103c88183611205565b38611aab565b611d18919350853d87116103d7576103c88183611205565b9138611a44565b965038611a01565b611d3e9150863d88116103d7576103c88183611205565b38611995565b5050505050505050565b611d3e9150843d86116103d7576103c88183611205565b600260035414611d76576002600355565b60046040517f3ee5aeb5000000000000000000000000000000000000000000000000000000008152fd5b60055490680100000000000000008210156107f057611dca610442836001600395016005556101df565b600181810180547fffffffffffffffffffffff000000000000000000000000000000000000000000166001600160a01b0395909516948517740100000000000000000000000000000000000000001790559101805461ffff1916909117905560055460009182526004602052604090912055565b60405190611e4b826111cd565b601682527f67657455736572546f496e7374286164647265737329000000000000000000006020830152565b60405190611e84826111cd565b600882527f69735361666528290000000000000000000000000000000000000000000000006020830152565b15611eb757565b606460405162461bcd60e51b815260206004820152601960248201527f6f776e2e7361666567756172642e63616c6c2e6661696c6564000000000000006044820152fd5b908160209103126101c45761123c90611420565b60405190611f1c826111cd565b601582527f69735365637572654261736528616464726573732900000000000000000000006020830152565b15611f4f57565b606460405162461bcd60e51b815260206004820152601a60248201527f6f776e2e736563757265626173652e63616c6c2e6661696c65640000000000006044820152fd5b6000546001600160a01b0316604051918291634bf9c0ad60e11b835282600460209485935afa9283156103de5761123c93611fff926103559260009261201a575b50611ff7906040519384918783019190916001600160a01b036020820193169052565b61036b611f0f565b919080612010575b61038290611f48565b5081518114612007565b611ff791925061203690863d88116103d7576103c88183611205565b9190611fd4565b6040519061204a826111cd565b601182527f69735369676e65722861646472657373290000000000000000000000000000006020830152565b1561207d57565b606460405162461bcd60e51b815260206004820152601660248201527f6f776e2e7369676e65722e63616c6c2e6661696c6564000000000000000000006044820152fd5b604051906120ce826111cd565b601882527f697364656c656761746f724e6f646528616464726573732900000000000000006020830152565b3d15612125573d9061210b826113b8565b916121196040519384611205565b82523d6000602084013e565b606090565b1561213157565b606460405162461bcd60e51b815260206004820152600f60248201527f6f776e2e6275726e2e6661696c656400000000000000000000000000000000006044820152fd5b9061218092916121a0565b906000901561218d575090565b604051915061219b826111e9565b815290565b803b1561221d576000927fffffffff00000000000000000000000000000000000000000000000000000000836020869551910120169061220a60246040518093602082019586526121fa815180926020868601910161124b565b8101036004810184520182611205565b5191620dbba0fa6122196120fa565b9091565b50505060009060405161222f816111e9565b6000815290565b9291612244916000946121a0565b908061227c575b6122525750565b9091506020818051810103126101c45760206001600160a01b03910151612278816102ad565b1690565b50602081511461224b565b9291612295916000946121a0565b90806122b8575b6122a35750565b61123c91925060208082518301019101611efb565b50602081511461229c565b92916122d1916000946121a0565b90806122f4575b6122df5750565b61123c919250602080825183010191016112ee565b5060208151146122d8565b90602082519201517fffffffff0000000000000000000000000000000000000000000000000000000090818116936004811061233a57505050565b60040360031b82901b16169150565b6001600160a01b038116156123fa57600080918351908260208601915af1906123706120fa565b911561237a575090565b8051600091906004116123f45761239191506122ff565b8151156123a15750805190602001fd5b6024907fffffffff00000000000000000000000000000000000000000000000000000000604051917f21c09d34000000000000000000000000000000000000000000000000000000008352166004820152fd5b50612391565b606460405162461bcd60e51b815260206004820152601260248201527f6f776e2e696e76616c69642e74617267657400000000000000000000000000006044820152fdfea2646970667358221220b6f653ff2cfb3f295a5513237f8577eebabc8aa6a1edaf6c59320b695e88ed2164736f6c634300081400336080346200156957601f6200429a38819003918201601f19168301916001600160401b038311848410176200156e578084926020946040528339810103126200156957516001600160a01b0381169081900362001569578015620015245760018060a01b0319338160015416176001556000541617600055601e601755600360185560046019556001601a556001601b556002601c5561c350601d55610258601e556003601f55601960205568878678326eac900000602155670de0b6b3a764000060225569021e19e0c9bab240000060235560016024556005602d5560ff19602e5416602e5561025860c0620000f5620015e4565b6002815260646020820152600160408201526023606082015260646080820152600160a082015201526002600755606460085560016009556023600a556064600b556001600c55610258600d55605a6040620001506200162d565b60198152600a602082015201526019600e55600a600f55605a6010556040620001786200162d565b6005815260016020820152610168918291015260056011556001601255601355600160a0620001a6620015e4565b600481528260208201528260408201528260608201528260808201528260c0820152015260046014556501010101010165ffffffffffff196015541617601555620001f06200164c565b610258606061014092838152600b6020820152600a60408201520152602555600b602655600a60275561025860285561025860606200022e6200164c565b60d28152600b6020820152600a6040820152015260d2602955600b602a55600a602b55610258602c556200026162001584565b600781526019602080830191825260016000526004905290517fabd6e7cb50984ff9c2f3e18a2660c3353dadf4e3291deeb275dae2cd1e44fe0555517fabd6e7cb50984ff9c2f3e18a2660c3353dadf4e3291deeb275dae2cd1e44fe0655620002c962001584565b600781526064602080830191825260026000526004905290517f91da3fd0782e51c6b3986e9e672fd566868e71f3dbc2d6c2cd6fbb3e361af2a755517f91da3fd0782e51c6b3986e9e672fd566868e71f3dbc2d6c2cd6fbb3e361af2a8556200033162001584565b600781526101f4602080830191825260036000526004905290517f2e174c10e159ea99b867ce3205125c24a42d128804e4070ed6fcc8cc98166aa055517f2e174c10e159ea99b867ce3205125c24a42d128804e4070ed6fcc8cc98166aa1556200039a62001584565b600781526107d0602080830191825260046000819052905290517f1a1e6821cde7d0159c0d293177871e09677b4e42307c7db3ba94f8648a5a050f55517f1a1e6821cde7d0159c0d293177871e09677b4e42307c7db3ba94f8648a5a0510556200040362001584565b60078152611388602080830191825260056000526004905290517f04cde762ef08b6b6c5ded8e8c4c0b3f4e5c9ad7342c88fcc93681b4588b73f0555517f04cde762ef08b6b6c5ded8e8c4c0b3f4e5c9ad7342c88fcc93681b4588b73f06556200046c62001584565b60078152612710602080830191825260066000526004905290517fc59312466997bb42aaaf719ece141047820e6b34531e1670dc1852a453648f0f55517fc59312466997bb42aaaf719ece141047820e6b34531e1670dc1852a453648f1055620004d562001584565b600781526001602082016161a88152600760005260046020526040600020925183555191015562000505620015a4565b60008082526006602080840182815260016040860181815260056060880190815260808801838152929096529390925293517f3e5fec24aa4dc4e5aee2e025e51e1392c72a2500577559fae9665c6d52bd6a315592517f3e5fec24aa4dc4e5aee2e025e51e1392c72a2500577559fae9665c6d52bd6a3255517f3e5fec24aa4dc4e5aee2e025e51e1392c72a2500577559fae9665c6d52bd6a3355517f3e5fec24aa4dc4e5aee2e025e51e1392c72a2500577559fae9665c6d52bd6a3455517f3e5fec24aa4dc4e5aee2e025e51e1392c72a2500577559fae9665c6d52bd6a3555620005f0620015a4565b600080825260036020808401918252600160408501818152600560608701908152608087019283526002909552600690925293517f8819ef417987f8ae7a81f42cdfb18815282fe989326fbff903d13cf0e03ace295590517f8819ef417987f8ae7a81f42cdfb18815282fe989326fbff903d13cf0e03ace2a55517f8819ef417987f8ae7a81f42cdfb18815282fe989326fbff903d13cf0e03ace2b55517f8819ef417987f8ae7a81f42cdfb18815282fe989326fbff903d13cf0e03ace2c55517f8819ef417987f8ae7a81f42cdfb18815282fe989326fbff903d13cf0e03ace2d55620006dd620015a4565b60028152600f6020808301918252600a604084019081526005606085019081526001608086019081526003600052600690935293517f75f96ab15d697e93042dc45b5c896c4b27e89bb6eaf39475c5c371cb2513f7d25591517f75f96ab15d697e93042dc45b5c896c4b27e89bb6eaf39475c5c371cb2513f7d35590517f75f96ab15d697e93042dc45b5c896c4b27e89bb6eaf39475c5c371cb2513f7d45590517f75f96ab15d697e93042dc45b5c896c4b27e89bb6eaf39475c5c371cb2513f7d555517f75f96ab15d697e93042dc45b5c896c4b27e89bb6eaf39475c5c371cb2513f7d655620007cd620015a4565b60028152600f6020808301918252600a604084019081526005606085019081526001608086019081526004600052600690935293517fc5069e24aaadb2addc3e52e868fcf3f4f8acf5a87e24300992fd4540c2a87eed5591517fc5069e24aaadb2addc3e52e868fcf3f4f8acf5a87e24300992fd4540c2a87eee5590517fc5069e24aaadb2addc3e52e868fcf3f4f8acf5a87e24300992fd4540c2a87eef5590517fc5069e24aaadb2addc3e52e868fcf3f4f8acf5a87e24300992fd4540c2a87ef055517fc5069e24aaadb2addc3e52e868fcf3f4f8acf5a87e24300992fd4540c2a87ef155620008bd620015a4565b60028152600f6020808301918252600a60408401908152600560608501818152600160808701908152600092909252600690935293517fbfd358e93f18da3ed276c3afdbdba00b8f0b6008a03476a6a86bd6320ee6938b5591517fbfd358e93f18da3ed276c3afdbdba00b8f0b6008a03476a6a86bd6320ee6938c5590517fbfd358e93f18da3ed276c3afdbdba00b8f0b6008a03476a6a86bd6320ee6938d55517fbfd358e93f18da3ed276c3afdbdba00b8f0b6008a03476a6a86bd6320ee6938e55517fbfd358e93f18da3ed276c3afdbdba00b8f0b6008a03476a6a86bd6320ee6938f55620009ad620015a4565b60028152604b602080830191825260646040840181815260fa60608601908152608086019283526006600081905290935293517f697b2bd7bb2984c4e0dc14c79c987d37818484a62958b9c45a0e8b962f20650f5591517f697b2bd7bb2984c4e0dc14c79c987d37818484a62958b9c45a0e8b962f2065105591517f697b2bd7bb2984c4e0dc14c79c987d37818484a62958b9c45a0e8b962f2065115590517f697b2bd7bb2984c4e0dc14c79c987d37818484a62958b9c45a0e8b962f20651255517f697b2bd7bb2984c4e0dc14c79c987d37818484a62958b9c45a0e8b962f2065135562000a9b620015a4565b60028152604b602080830191825260646040840181815260fa60608601908152608086019283526007600052600690935293517f4ced6d0d36392b04cc5d8761b1327b3bbba6e1089c77f60a9a9ca18e05e4f00e5591517f4ced6d0d36392b04cc5d8761b1327b3bbba6e1089c77f60a9a9ca18e05e4f00f5591517f4ced6d0d36392b04cc5d8761b1327b3bbba6e1089c77f60a9a9ca18e05e4f0105590517f4ced6d0d36392b04cc5d8761b1327b3bbba6e1089c77f60a9a9ca18e05e4f01155517f4ced6d0d36392b04cc5d8761b1327b3bbba6e1089c77f60a9a9ca18e05e4f0125562000b89620015a4565b60028152604b602080830191825260646040840181815260fa60608601908152608086019283526008600052600690935293517fb8d683c9d414f481826f3e7fe14b3ac6ae8c73450778287390c4bb8cb9f2e80b5591517fb8d683c9d414f481826f3e7fe14b3ac6ae8c73450778287390c4bb8cb9f2e80c5591517fb8d683c9d414f481826f3e7fe14b3ac6ae8c73450778287390c4bb8cb9f2e80d5590517fb8d683c9d414f481826f3e7fe14b3ac6ae8c73450778287390c4bb8cb9f2e80e55517fb8d683c9d414f481826f3e7fe14b3ac6ae8c73450778287390c4bb8cb9f2e80f5562000c77620015a4565b60028152604b602080830191825260646040840181815260fa60608601908152608086019283526009600052600690935293517fca4d0c6c94a9477136dd41a99cc19ecbe441c8f6609efe7c6fa65be007a473235591517fca4d0c6c94a9477136dd41a99cc19ecbe441c8f6609efe7c6fa65be007a473245591517fca4d0c6c94a9477136dd41a99cc19ecbe441c8f6609efe7c6fa65be007a473255590517fca4d0c6c94a9477136dd41a99cc19ecbe441c8f6609efe7c6fa65be007a4732655517fca4d0c6c94a9477136dd41a99cc19ecbe441c8f6609efe7c6fa65be007a473275562000d65620015a4565b60028152604b602080830191825260646040840181815260fa6060860190815260808601928352600a600052600690935293517f4da38fc8e544afc56a4c2a17752b8ddb67d8e23ac4583c9029d2e2d1dbe6c9885591517f4da38fc8e544afc56a4c2a17752b8ddb67d8e23ac4583c9029d2e2d1dbe6c9895591517f4da38fc8e544afc56a4c2a17752b8ddb67d8e23ac4583c9029d2e2d1dbe6c98a5590517f4da38fc8e544afc56a4c2a17752b8ddb67d8e23ac4583c9029d2e2d1dbe6c98b55517f4da38fc8e544afc56a4c2a17752b8ddb67d8e23ac4583c9029d2e2d1dbe6c98c5562000e53620015a4565b60028152604b602080830191825260646040840181815260fa6060860190815260808601928352600b600052600690935293517f85291c2e7881182c13e19eca9b58927ebfdc2c5d04882018eeb33d8241d357115591517f85291c2e7881182c13e19eca9b58927ebfdc2c5d04882018eeb33d8241d357125591517f85291c2e7881182c13e19eca9b58927ebfdc2c5d04882018eeb33d8241d357135590517f85291c2e7881182c13e19eca9b58927ebfdc2c5d04882018eeb33d8241d3571455517f85291c2e7881182c13e19eca9b58927ebfdc2c5d04882018eeb33d8241d357155562000f41620015a4565b60028152604b602080830191825260646040840181815260fa6060860190815260808601928352600c600052600690935293517f0b94fa1b86997cc1f1148bfbe25b674e8cefc7cc6f976aa8d7c7966bd4cca3475591517f0b94fa1b86997cc1f1148bfbe25b674e8cefc7cc6f976aa8d7c7966bd4cca3485591517f0b94fa1b86997cc1f1148bfbe25b674e8cefc7cc6f976aa8d7c7966bd4cca3495590517f0b94fa1b86997cc1f1148bfbe25b674e8cefc7cc6f976aa8d7c7966bd4cca34a55517f0b94fa1b86997cc1f1148bfbe25b674e8cefc7cc6f976aa8d7c7966bd4cca34b556200102f620015a4565b60028152604b602080830191825260646040840181815260fa6060860190815260808601928352600d600052600690935293517f248457bacb20e239ae314d8db91c0f270e453c28ee138c84f97aea6cfcf9a4995591517f248457bacb20e239ae314d8db91c0f270e453c28ee138c84f97aea6cfcf9a49a5591517f248457bacb20e239ae314d8db91c0f270e453c28ee138c84f97aea6cfcf9a49b5590517f248457bacb20e239ae314d8db91c0f270e453c28ee138c84f97aea6cfcf9a49c55517f248457bacb20e239ae314d8db91c0f270e453c28ee138c84f97aea6cfcf9a49d556200111d620015a4565b60028152604b602080830191825260646040840181815260fa6060860190815260808601928352600e600052600690935293517faca6cdb4b5fe0ec50731a73f714dd191dc1911bfeb3f9eeb9e94ed0f6065ef8d5591517faca6cdb4b5fe0ec50731a73f714dd191dc1911bfeb3f9eeb9e94ed0f6065ef8e5591517faca6cdb4b5fe0ec50731a73f714dd191dc1911bfeb3f9eeb9e94ed0f6065ef8f5590517faca6cdb4b5fe0ec50731a73f714dd191dc1911bfeb3f9eeb9e94ed0f6065ef9055517faca6cdb4b5fe0ec50731a73f714dd191dc1911bfeb3f9eeb9e94ed0f6065ef91556200120b620015a4565b60028152604b602080830191825260646040840181815260fa6060860190815260808601928352600f600052600690935293517ff130046d53bc87538ab17e4752ba5f5082985eecc06ccb932c5a55e8242dd5025591517ff130046d53bc87538ab17e4752ba5f5082985eecc06ccb932c5a55e8242dd5035591517ff130046d53bc87538ab17e4752ba5f5082985eecc06ccb932c5a55e8242dd5045590517ff130046d53bc87538ab17e4752ba5f5082985eecc06ccb932c5a55e8242dd50555517ff130046d53bc87538ab17e4752ba5f5082985eecc06ccb932c5a55e8242dd506556200138a620012fd620015c4565b60128152600a6020808301918252602d604084019081526003600052600590915291517fa9bc9a3a348c357ba16b37005d7e6b3236198c0e939f4af8c5f19b8deeb8ebc055517fa9bc9a3a348c357ba16b37005d7e6b3236198c0e939f4af8c5f19b8deeb8ebc155517fa9bc9a3a348c357ba16b37005d7e6b3236198c0e939f4af8c5f19b8deeb8ebc255565b6200142562001398620015c4565b60128152600a6020808301918252605a604084019081526005600081905290915291517f458b30c2d72bfd2c6317304a4594ecbafe5f729d3111b65fdc3a33bd48e5432d55517f458b30c2d72bfd2c6317304a4594ecbafe5f729d3111b65fdc3a33bd48e5432e55517f458b30c2d72bfd2c6317304a4594ecbafe5f729d3111b65fdc3a33bd48e5432f55565b620014c162001433620015c4565b60098152600a602080830191825261270f604084019081526007600052600590915291517feddb6698d7c569ff62ff64f1f1492bf14a54594835ba0faac91f84b4f5d8146055517feddb6698d7c569ff62ff64f1f1492bf14a54594835ba0faac91f84b4f5d8146155517feddb6698d7c569ff62ff64f1f1492bf14a54594835ba0faac91f84b4f5d8146255565b600360205260327fc3a24b0501bd2c13a7e57f2db4369ec4c223447539fc0724a9d55ac4a06ebd4d5560046000526101f47f83ec6a1f0257b830b5e016457c9cf1435391bf56cc98f369a58a54fe9377246555604051612c179081620016838239f35b60405162461bcd60e51b815260206004820152601360248201527f6f776e2e696e76616c69642e68657862617365000000000000000000000000006044820152606490fd5b600080fd5b634e487b7160e01b600052604160045260246000fd5b60408051919082016001600160401b038111838210176200156e57604052565b6040519060a082016001600160401b038111838210176200156e57604052565b60405190606082016001600160401b038111838210176200156e57604052565b6040519060e082016001600160401b038111838210176200156e576040528160c06000918281528260208201528260408201528260608201528260808201528260a08201520152565b62001637620015c4565b90600082526000602083015260006040830152565b60405190608082016001600160401b038111838210176200156e576040526000606083828152826020820152826040820152015256fe60806040526004361015610018575b361561001657005b005b60003560e01c80630609a0e31461040857806307175c831461040357806309307c62146103fe5780630b225f1a146103f95780630ea0d222146103f457806312065fe0146103ef57806314be92a5146103ea57806315a544ed146103e55780631605aed9146103e057806316f0115b146103db578063192b48ee146103d65780631ef6a864146103d15780631f185d16146103cc57806326c5adae146103c7578063298fc460146103c25780633688236d146103bd5780633b9b7955146103b85780634151331d146103b3578063438fe192146103ae57806343c06bc4146103a957806344ec16bc146103a45780634b62954f1461039f57806353423e861461039a578063541d76671461039557806354541683146103905780635640dbfc1461038b578063582003d114610386578063592a02a8146103815780635962205f1461037c5780635a0e90381461037757806363b2b474146103725780636b81c82f1461036d5780636c7deb5d146103685780636f092c5e146103635780637687e3711461035e57806378ef376f146103595780637bc908c6146103545780638da5cb5b1461034f5780638e3719e71461034a57806391fc8aa8146103455780639319d0b514610340578063991bf5cc1461033b5780639d80ab9b146103365780639eb8b44e14610331578063a19841dd1461032c578063a1f7f53914610327578063a88fcea614610322578063aebcd32a1461031d578063af0b21d314610318578063af48452614610313578063b49c064c1461030e578063b85f1f8d14610309578063b90306ad14610304578063bcf71cd8146102ff578063c54e44b0146102fa578063c5a136d4146102f5578063e01ad5fd146102f0578063e0a9bc2b146102eb578063eddd0d9c146102e6578063f2a6bbc7146102e1578063f4fe8e3c146102dc578063fc0e74d1146102d75763fdc10bc90361000e57611f9f565b611f7c565b611ed6565b611e33565b611d90565b611d75565b611cdb565b611bf0565b611b4e565b611aa5565b6119e9565b6119b7565b611994565b611963565b611945565b611900565b6118e2565b611834565b6117fa565b611637565b6115b8565b6114c3565b611420565b611402565b6113e4565b6113bd565b61139f565b6112fc565b61123b565b61120f565b61116c565b611095565b611059565b611027565b610fcf565b610f1d565b610ef4565b610e87565b610e69565b610ded565b610dcf565b610d26565b610c83565b610bda565b610bbc565b610b6f565b610b48565b610b2a565b610a69565b61098f565b61087b565b6107bb565b610718565b6106c7565b6106a9565b61068b565b6105e8565b6105cc565b6105ae565b610590565b6104e7565b6104ca565b346104c55760203660031901126104c5576104296104246121cf565b6126c9565b61043233612313565b801561044d575b61044290612714565b610016600435601755565b5060046001600160a01b036020816000541660405193848092630536340960e21b82525afa9081156104c05761044292600092610490575b501633149050610439565b6104b291925060203d81116104b9575b6104aa81836120eb565b81019061210d565b9038610485565b503d6104a0565b612125565b600080fd5b346104c55760003660031901126104c55760208054604051908152f35b346104c55760403660031901126104c5576105036104246121cf565b61050c33612313565b801561052d575b61051c90612714565b610016602435600435602255602355565b5060046001600160a01b036020816000541660405193848092630536340960e21b82525afa9081156104c05761051c92600092610570575b501633149050610513565b61058991925060203d81116104b9576104aa81836120eb565b9038610565565b346104c55760003660031901126104c5576020602d54604051908152f35b346104c55760003660031901126104c5576020601e54604051908152f35b346104c55760003660031901126104c557602047604051908152f35b346104c55760203660031901126104c5576106046104246121cf565b61060d33612313565b8015610628575b61061d90612714565b610016600435601e55565b5060046001600160a01b036020816000541660405193848092630536340960e21b82525afa9081156104c05761061d9260009261066b575b501633149050610614565b61068491925060203d81116104b9576104aa81836120eb565b9038610660565b346104c55760003660031901126104c5576020602354604051908152f35b346104c55760003660031901126104c5576020602254604051908152f35b346104c55760003660031901126104c55760e0600754600854600954600a54600b5490600c5492600d5494604051968752602087015260408601526060850152608084015260a083015260c0820152f35b346104c55760203660031901126104c5576107346104246121cf565b61073d33612313565b8015610758575b61074d90612714565b6100166004356127a5565b5060046001600160a01b036020816000541660405193848092630536340960e21b82525afa9081156104c05761074d9260009261079b575b501633149050610744565b6107b491925060203d81116104b9576104aa81836120eb565b9038610790565b346104c55760a03660031901126104c5576107d76104246121cf565b6107e033612313565b8015610807575b6107f090612714565b610016608435606435604435602435600435612a89565b5060046001600160a01b036020816000541660405193848092630536340960e21b82525afa9081156104c0576107f09260009261084a575b5016331490506107e7565b61086391925060203d81116104b9576104aa81836120eb565b903861083f565b6001600160a01b038116036104c557565b346104c5576020806003193601126104c55760049081359061089c8261086a565b806108be6108b26000546001600160a01b031690565b6001600160a01b031690565b60405194858092634bf9c0ad60e11b82525afa9182156104c05761091261094c9361092e9261095e9660009261096c575b50610920906040519384918783019190916001600160a01b036020820193169052565b03601f1981018452836120eb565b6109286123bd565b9061259e565b919080610962575b61093f906123f6565b80825183010191016121ba565b60405190151581529081906020820190565b0390f35b5081518114610936565b61092091925061098890863d88116104b9576104aa81836120eb565b91906108ef565b346104c55760203660031901126104c557600460206001600160a01b0360005416604051928380926369e8d84b60e11b82525afa80156104c0576109ed91600091610a41575b506109de612aff565b906109e7612b17565b9061268b565b60205490670de0b6b3a764000091828102928184041490151715610a3c5761095e91610a27610a2c92610a2260043593612775565b612b50565b612792565b6040519081529081906020820190565b61275f565b610a59915060203d81116104b9576104aa81836120eb565b386109d5565b801515036104c557565b346104c55760203660031901126104c557600435610a8681610a5f565b610a916104246121cf565b610a9a33612313565b8015610ac0575b90610aae61001692612714565b60ff8019602e54169115151617602e55565b506001600160a01b039060046020836000541660405192838092630536340960e21b82525afa80156104c05761001693610aae92600092610b0a575b503391161491925050610aa1565b610b2391925060203d81116104b9576104aa81836120eb565b9038610afc565b346104c55760003660031901126104c5576020601d54604051908152f35b346104c55760003660031901126104c55760206001600160a01b0360005416604051908152f35b346104c55760203660031901126104c55760043560005260056020526040600020805461095e60026001840154930154604051938493846040919493926060820195825260208201520152565b346104c55760003660031901126104c5576020601b54604051908152f35b346104c55760603660031901126104c557610bf66104246121cf565b610bff33612313565b8015610c20575b610c0f90612714565b6100166044356024356004356128de565b5060046001600160a01b036020816000541660405193848092630536340960e21b82525afa9081156104c057610c0f92600092610c63575b501633149050610c06565b610c7c91925060203d81116104b9576104aa81836120eb565b9038610c58565b346104c55760203660031901126104c557610c9f6104246121cf565b610ca833612313565b8015610cc3575b610cb890612714565b610016600435601a55565b5060046001600160a01b036020816000541660405193848092630536340960e21b82525afa9081156104c057610cb892600092610d06575b501633149050610caf565b610d1f91925060203d81116104b9576104aa81836120eb565b9038610cfb565b346104c55760403660031901126104c557610d426104246121cf565b610d4b33612313565b8015610d6c575b610d5b90612714565b610016602435600435601c55601d55565b5060046001600160a01b036020816000541660405193848092630536340960e21b82525afa9081156104c057610d5b92600092610daf575b501633149050610d52565b610dc891925060203d81116104b9576104aa81836120eb565b9038610da4565b346104c55760003660031901126104c5576020601f54604051908152f35b346104c55760203660031901126104c557600460206001600160a01b0360005416604051928380926369e8d84b60e11b82525afa80156104c057610e42610a2c9161095e93600091610a4157506109de612aff565b610a22610e64610e5e6004356000526003602052604060002090565b54612b70565b612775565b346104c55760003660031901126104c5576020601a54604051908152f35b346104c55760003660031901126104c55760e060145460155460405191825260ff9081811615156020840152818160081c1615156040840152818160101c1615156060840152818160181c1615156080840152818160201c16151560a084015260281c16151560c0820152f35b346104c55760003660031901126104c55760185460195460408051928352602083019190915290f35b346104c55760c03660031901126104c557610f396104246121cf565b610f4233612313565b8015610f6c575b610f5290612714565b61001660a4356084356064356044356024356004356127c4565b5060046001600160a01b036020816000541660405193848092630536340960e21b82525afa9081156104c057610f5292600092610faf575b501633149050610f49565b610fc891925060203d81116104b9576104aa81836120eb565b9038610fa4565b346104c55760203660031901126104c557600435600052600660205260a06040600020805490600181015490600281015460046003830154920154926040519485526020850152604084015260608301526080820152f35b346104c55760003660031901126104c557600e54600f5460105460408051938452602084019290925290820152606090f35b346104c55760003660031901126104c5576020601854604051908152f35b60809060031901126104c55760043590602435906044359060643590565b346104c5576110a336611077565b926110b26104249392936121cf565b6110bb33612313565b8015611103575b906110ce600292612714565b6110d6612a42565b50600181146110f2575b146110e757005b601155601255601355005b82600e5583600f55846010556110e0565b506001600160a01b039060046020836000541660405192838092630536340960e21b82525afa80156104c0576002936110ce9260009261114c575b5033911614919250506110c2565b61116591925060203d81116104b9576104aa81836120eb565b903861113e565b346104c55760203660031901126104c5576111886104246121cf565b61119133612313565b80156111ac575b6111a190612714565b610016600435601f55565b5060046001600160a01b036020816000541660405193848092630536340960e21b82525afa9081156104c0576111a1926000926111ef575b501633149050611198565b61120891925060203d81116104b9576104aa81836120eb565b90386111e4565b346104c55760203660031901126104c55760043560005260036020526020604060002054604051908152f35b346104c55760203660031901126104c55760043561125881610a5f565b6112636104246121cf565b61126c33612313565b8015611292575b9061128061001692612714565b60ff8019601654169115151617601655565b506001600160a01b039060046020836000541660405192838092630536340960e21b82525afa80156104c05761001693611280926000926112dc575b503391161491925050611273565b6112f591925060203d81116104b9576104aa81836120eb565b90386112ce565b346104c55760203660031901126104c5576113186104246121cf565b61132133612313565b801561133c575b61133190612714565b610016600435602455565b5060046001600160a01b036020816000541660405193848092630536340960e21b82525afa9081156104c0576113319260009261137f575b501633149050611328565b61139891925060203d81116104b9576104aa81836120eb565b9038611374565b346104c55760003660031901126104c5576020602454604051908152f35b346104c55760003660031901126104c55760206001600160a01b0360015416604051908152f35b346104c55760003660031901126104c5576020601954604051908152f35b346104c55760003660031901126104c5576020602154604051908152f35b346104c55760203660031901126104c55761143c6104246121cf565b61144533612313565b8015611460575b61145590612714565b610016600435601b55565b5060046001600160a01b036020816000541660405193848092630536340960e21b82525afa9081156104c057611455926000926114a3575b50163314905061144c565b6114bc91925060203d81116104b9576104aa81836120eb565b9038611498565b346104c55760e03660031901126104c5576024356114e081610a5f565b6044356114ec81610a5f565b6064356114f881610a5f565b60843561150481610a5f565b60a4359161151183610a5f565b60c4359361151e85610a5f565b6115296104246121cf565b61153233612313565b801561154e575b9561154661001697612714565b60043561292d565b506001600160a01b039560046020886000541660405192838092630536340960e21b82525afa80156104c0576100169861154692600092611598575b503391161491975050611539565b6115b191925060203d81116104b9576104aa81836120eb565b903861158a565b346104c55760003660031901126104c557602554602654602754602854604080519485526020850193909352918301526060820152608090f35b6102a0810192916000915b6007831061160a57505050565b600190606083519182518152602092838101518483015260408091015190820152019201920191906115fd565b346104c55760003660031901126104c55760405161165481612076565b60005b60e081106117e55761095e61166a612131565b600160005260056020526116a27f1471eb6eb2c5e789fc3de43f8ce62938c7d1836ec861730447e2ada8fd81017b612a61565b612a61565b8152600260005260056020526116d77f89832631fb3c3307a103ba2c84ab569c64d6182a18893dcd163f0f1c2090733a612a61565b60208201526116f461169d60036000526005602052604060002090565b60408201526004600052600560205261172c7f3eec716f11ba9e820c81ca75eb978ffb45831ef8b7a53e5e422c26008e1ca6d5612a61565b6060820152600560008190526020526117647f458b30c2d72bfd2c6317304a4594ecbafe5f729d3111b65fdc3a33bd48e5432d612a61565b60808201526006600052600560205261179c7f069400f22b28c6c362558d92f66163cec5671cba50b61abd2eecfcd0eaeac518612a61565b60a0820152600760005260056020526117d47feddb6698d7c569ff62ff64f1f1492bf14a54594835ba0faac91f84b4f5d81460612a61565b60c0820152604051918291826115f2565b6020906117f0612a42565b8184015201611657565b346104c55760003660031901126104c557602954602a54602b54602c54604080519485526020850193909352918301526060820152608090f35b346104c55760003660031901126104c557600460206001600160a01b03600054166040519283809263d1f956b160e01b82525afa9081156104c05761095e91610a2c916000916118c4575b5060405161188c816120b3565b601381527f67657464656c656761746f72436f756e7428290000000000000000000000000060208201526118be61215c565b9161268b565b6118dc915060203d81116104b9576104aa81836120eb565b3861187f565b346104c55760003660031901126104c5576020601c54604051908152f35b346104c55760203660031901126104c55760043560005260046020526040600020600181549101549061095e6040519283928360209093929193604081019481520152565b346104c55760003660031901126104c5576020601754604051908152f35b346104c55760203660031901126104c557602061198a6004356119858161086a565b612313565b6040519015158152f35b346104c55760003660031901126104c557602060ff602e54166040519015158152f35b346104c55760003660031901126104c55760115460125460135460408051938452602084019290925290820152606090f35b346104c55760203660031901126104c55760046001600160a01b036020816000541660405193848092630536340960e21b82525afa9182156104c057600092611a85575b5033911603611a41576100166004356124aa565b606460405162461bcd60e51b815260206004820152600f60248201527f6f776e2e6e6f6e617574682e44414f00000000000000000000000000000000006044820152fd5b611a9e91925060203d81116104b9576104aa81836120eb565b9038611a2d565b346104c55760403660031901126104c557611ac16104246121cf565b611aca33612313565b8015611aeb575b611ada90612714565b610016602435600435601855601955565b5060046001600160a01b036020816000541660405193848092630536340960e21b82525afa9081156104c057611ada92600092611b2e575b501633149050611ad1565b611b4791925060203d81116104b9576104aa81836120eb565b9038611b23565b346104c55760203660031901126104c557600435611b6b8161086a565b803b6000611b7882612140565b92611b8660405194856120eb565b82845260208401903c602d815110611bac57602a015160405160609190911c8152602090f35b606460405162461bcd60e51b815260206004820152601360248201527f4e6f742061206d696e696d616c2070726f7879000000000000000000000000006044820152fd5b346104c557611bfe36611077565b90611c0d6104249493946121cf565b611c1633612313565b8015611c72575b92611c29600294612714565b611c3560088210612893565b60405194611c4286612097565b85526020850191825260408501928352600052600560205260406000209351845551600184015551910155600080f35b506001600160a01b039260046020856000541660405192838092630536340960e21b82525afa80156104c057600295611c2992600092611cbb575b503391161491945050611c1d565b611cd491925060203d81116104b9576104aa81836120eb565b9038611cad565b346104c5576020806003193601126104c55760048035611cfa8161086a565b6001600160a01b03928084600054166040519485809263d1f956b160e01b82525afa9081156104c05761095e9461094c94600093611d56575b506040519316818401528252611d48826120b3565b611d50612441565b9061264f565b611d6e919350823d84116104b9576104aa81836120eb565b9138611d33565b346104c55760003660031901126104c557602061198a6121cf565b346104c55760203660031901126104c557611dac6104246121cf565b611db533612313565b8015611dd0575b611dc590612714565b610016600435602055565b5060046001600160a01b036020816000541660405193848092630536340960e21b82525afa9081156104c057611dc592600092611e13575b501633149050611dbc565b611e2c91925060203d81116104b9576104aa81836120eb565b9038611e08565b346104c55760203660031901126104c557611e4f6104246121cf565b611e5833612313565b8015611e73575b611e6890612714565b610016600435602d55565b5060046001600160a01b036020816000541660405193848092630536340960e21b82525afa9081156104c057611e6892600092611eb6575b501633149050611e5f565b611ecf91925060203d81116104b9576104aa81836120eb565b9038611eab565b346104c55760403660031901126104c557611ef26104246121cf565b611efb33612313565b8015611f19575b611f0b90612714565b610016602435600435612a26565b5060046001600160a01b036020816000541660405193848092630536340960e21b82525afa9081156104c057611f0b92600092611f5c575b501633149050611f02565b611f7591925060203d81116104b9576104aa81836120eb565b9038611f51565b346104c55760003660031901126104c557602060ff601654166040519015158152f35b346104c55760003660031901126104c557600460206001600160a01b0360005416604051928380927f447aa3040000000000000000000000000000000000000000000000000000000082525afa9081156104c05761095e91610a2c91600091612042575b50604051612010816120b3565b600581527f616765282900000000000000000000000000000000000000000000000000000060208201526118be61215c565b61205a915060203d81116104b9576104aa81836120eb565b38612003565b634e487b7160e01b600052604160045260246000fd5b60e0810190811067ffffffffffffffff82111761209257604052565b612060565b6060810190811067ffffffffffffffff82111761209257604052565b6040810190811067ffffffffffffffff82111761209257604052565b6020810190811067ffffffffffffffff82111761209257604052565b90601f8019910116810190811067ffffffffffffffff82111761209257604052565b908160209103126104c557516121228161086a565b90565b6040513d6000823e3d90fd5b6040519061213e82612076565b565b67ffffffffffffffff811161209257601f01601f191660200190565b60405190612169826120cf565b60008252565b1561217657565b606460405162461bcd60e51b815260206004820152601960248201527f6f776e2e7361666567756172642e63616c6c2e6661696c6564000000000000006044820152fd5b908160209103126104c5575161212281610a5f565b6001600160a01b03600054166040518091634bf9c0ad60e11b825281600460209384935afa9182156104c0576121229261225791600091612272575b50604051612218816120b3565b600881527f6973536166652829000000000000000000000000000000000000000000000000848201526040519161224e836120cf565b6000835261259e565b919080612268575b61093f9061216f565b508151811461225f565b6122899150833d85116104b9576104aa81836120eb565b3861220b565b6040519061229c826120b3565b601582527f69735365637572654261736528616464726573732900000000000000000000006020830152565b156122cf57565b606460405162461bcd60e51b815260206004820152601a60248201527f6f776e2e736563757265626173652e63616c6c2e6661696c65640000000000006044820152fd5b6000546001600160a01b0316604051918291634bf9c0ad60e11b835282600460209485935afa9283156104c0576121229361237f926109129260009261239a575b50612377906040519384918783019190916001600160a01b036020820193169052565b61092861228f565b919080612390575b61093f906122c8565b5081518114612387565b6123779192506123b690863d88116104b9576104aa81836120eb565b9190612354565b604051906123ca826120b3565b601182527f69735369676e65722861646472657373290000000000000000000000000000006020830152565b156123fd57565b606460405162461bcd60e51b815260206004820152601660248201527f6f776e2e7369676e65722e63616c6c2e6661696c6564000000000000000000006044820152fd5b6040519061244e826120b3565b601882527f697364656c656761746f724e6f646528616464726573732900000000000000006020830152565b3d156124a5573d9061248b82612140565b9161249960405193846120eb565b82523d6000602084013e565b606090565b6000600460206001600160a01b03835416604051928380927f46f991ac0000000000000000000000000000000000000000000000000000000082525afa9081156104c0578284819382938391612580575b505af161250661247a565b501561253c5760405190815233907fcdcc745fe377b103b45fa0cec23ae3ef93d6fc6a84a01f0d18c40b354dd1d5d890602090a2565b606460405162461bcd60e51b815260206004820152600f60248201527f6f776e2e6275726e2e6661696c656400000000000000000000000000000000006044820152fd5b612598915060203d81116104b9576104aa81836120eb565b386124fb565b9190823b15612636577fffffffff00000000000000000000000000000000000000000000000000000000815160208093012016916040519180830193845281519160005b83811061262257505050918161260f602482600097959688970187838201520360048101845201826120eb565b5191620dbba0fa61261e61247a565b9091565b8181018301518582016024015282016125e2565b505050600090604051612648816120cf565b6000815290565b929161265d9160009461259e565b9080612680575b61266b5750565b612122919250602080825183010191016121ba565b506020815114612664565b92916126999160009461259e565b90806126be575b6126a75750565b9091506020818051810103126104c5576020015190565b5060208151146126a0565b156126d057565b606460405162461bcd60e51b815260206004820152601260248201527f6f776e2e696e76616c69642e69735361666500000000000000000000000000006044820152fd5b1561271b57565b606460405162461bcd60e51b815260206004820152601b60248201527f6f776e2e6e6f6e617574682e44414f6f725365637572656261736500000000006044820152fd5b634e487b7160e01b600052601160045260246000fd5b90670de0b6b3a764000091828102928184041490151715610a3c57565b81810292918115918404141715610a3c57565b670de0b6b3a764000090818102918183041490151715610a3c57602155565b919293949094601083101561284f576040519460a086019486861067ffffffffffffffff8711176120925761213e9761282096604052875260208701526040860152606085015260808401526000526006602052604060002090565b906080600491805184556020810151600185015560408101516002850155606081015160038501550151910155565b606460405162461bcd60e51b815260206004820152600d60248201527f696e76616c6964206c6576656c000000000000000000000000000000000000006044820152fd5b1561289a57565b606460405162461bcd60e51b815260206004820152600c60248201527f696e76616c69642072616e6b00000000000000000000000000000000000000006044820152fd5b916128eb60088410612893565b60405192604084019284841067ffffffffffffffff85111761209257600193604052845260208401918252600052600460205260406000209251835551910155565b612a059461213e979461299e6129e6956129c99460c09a966040519061295282612076565b8282521515928360208301521515948560408301521515958660608301521515978860808301521515998a60a083015215159b8c91015260145560ff8019601554169115151617601555565b6015805462ffff00191660089290921b61ff00169190911791151560101b62ff000016919091179055565b63ff00000060155491151560181b169063ff000000191617601555565b64ff0000000060155491151560201b169064ff00000000191617601555565b65ff000000000060155491151560281b169065ff0000000000191617601555565b612a3260088210612893565b6000526003602052604060002055565b60405190612a4f82612097565b60006040838281528260208201520152565b90604051612a6e81612097565b60406002829480548452600181015460208501520154910152565b60405190608082019180831067ffffffffffffffff8411176120925760608791600294604052858152866020820152876040820152015260018114612aea575b14612ad5575b50505050565b602955602a55602b55602c5538808080612acf565b82602555836026558460275585602855612ac9565b604051612b0b816120cf565b60008152906000368137565b60405190612b24826120b3565b601282527f6f7a6f6e655072696365496e55534454282900000000000000000000000000006020830152565b8115612b5a570490565b634e487b7160e01b600052601260045260246000fd5b8015612bdb578080600114612bd457600214610a3c576001670de0b6b3a7640000815b808211612bab57505081600019048111610a3c570290565b909280600019048111610a3c57818416612bcb575b800292811c90612b93565b80920291612bc0565b5050600190565b5060009056fea2646970667358221220ff4cfdf39004cb4cb70fb72ccca72ce7d79f6bce5fa14e684a6b28c881c896fb64736f6c63430008140033","linkReferences":{}},"methodIdentifiers":{"rule741()":"0a5b38ab","transferRequest()":"3da8676f"},"id":69}