{"abi":[{"type":"constructor","inputs":[{"name":"_hex","type":"address","internalType":"address"},{"name":"_price","type":"address","internalType":"address"},{"name":"_old741","type":"address","internalType":"address"}],"stateMutability":"nonpayable"},{"type":"function","name":"dAOAssembly","inputs":[],"outputs":[{"name":"","type":"address","internalType":"address"}],"stateMutability":"view"},{"type":"function","name":"daocore","inputs":[],"outputs":[{"name":"","type":"address","internalType":"address"}],"stateMutability":"view"},{"type":"function","name":"nested741","inputs":[],"outputs":[{"name":"","type":"address","internalType":"address"}],"stateMutability":"view"},{"type":"function","name":"old741","inputs":[],"outputs":[{"name":"","type":"address","internalType":"address"}],"stateMutability":"view"},{"type":"function","name":"price","inputs":[],"outputs":[{"name":"","type":"address","internalType":"address"}],"stateMutability":"view"}],"bytecode":{"object":"0x6080346101b757601f617dbc38819003918201601f19168301926001600160401b03929091838511838610176101a15781606092849260409788528339810103126101b75761004d816101bc565b6100648461005d602085016101bc565b93016101bc565b9160018060a01b03199273c0cee8b561cc4f60869776ca5b0b7a295e04f5af846001541617600155855161121a9586820196828810828911176101a15761032c83396001600160a01b039485168088526000979092908190036020019088f080156101835785168660035416176003558751614bcc808201908282108483111761018d5760209183916131f0833985815203019088f08015610183578516866002541617600255875191611caa808401928484109084111761016f579183916020936115468439815203019086f080156101655790838092168560045416176004551683600154161760015516908254161790555161015b90816101d18239f35b86513d87823e3d90fd5b634e487b7160e01b89526041600452602489fd5b88513d89823e3d90fd5b634e487b7160e01b8a52604160045260248afd5b634e487b7160e01b600052604160045260246000fd5b600080fd5b51906001600160a01b03821682036101b75756fe608080604052600436101561001357600080fd5b600090813560e01c90816314837455146100fc5750806314d8d024146100d357806345cff900146100aa5780635540c5ac146100815763a035b1fe1461005857600080fd5b3461007e578060031936011261007e57546040516001600160a01b039091168152602090f35b80fd5b503461007e578060031936011261007e576001546040516001600160a01b039091168152602090f35b503461007e578060031936011261007e576002546040516001600160a01b039091168152602090f35b503461007e578060031936011261007e576004546040516001600160a01b039091168152602090f35b9050346101215781600319360112610121576003546001600160a01b03168152602090f35b5080fdfea2646970667358221220d7b953ccf27e071ba9b07b40f4341483461dec0522f1ac5e1496bb2512b82a0864736f6c634300081400336080346100ca57601f61121a38819003918201601f19168301916001600160401b038311848410176100cf578084926020946040528339810103126100ca57516001600160a01b038116908190036100ca5780156100855760018060a01b0319338160015416176001556000541617600055600060045560405161113490816100e68239f35b60405162461bcd60e51b815260206004820152601360248201527f6f776e2e696e76616c69642e68657862617365000000000000000000000000006044820152606490fd5b600080fd5b634e487b7160e01b600052604160045260246000fdfe60806040526004361015610018575b361561001657005b005b60003560e01c806312065fe0146101085780631f185d161461010357806325924f34146100fe5780633b9b7955146100f957806361b7fbd9146100f45780638da5cb5b146100ef578063a1f7f539146100ea578063af484526146100e5578063b90306ad146100e0578063c54e44b0146100db578063c89b84fd146100d6578063dbac26e9146100d1578063e01ad5fd146100cc578063e0a9bc2b146100c75763fdc10bc90361000e57610988565b6108e6565b610847565b610805565b6106f2565b610659565b610552565b61047d565b6103c6565b61039d565b6102c7565b610294565b610263565b61013a565b3461012457600036600319011261012457602047604051908152f35b600080fd5b6001600160a01b0381160361012457565b34610124576020806003193601126101245760049081359061015b82610129565b600054819061017a906001600160a01b03165b6001600160a01b031690565b604051634bf9c0ad60e11b815294859182905afa91821561025e576101d161020b936101ed9261021d9660009261022b575b506040516001600160a01b0390911685820190815290926101df918491602090910190565b03601f1981018452836109fe565b6101e7610e02565b90610fa6565b919080610221575b6101fe90610e2f565b8082518301019101610d70565b60405190151581529081906020820190565b0390f35b50815181146101f5565b6101df91925061025090863d8811610257575b61024881836109fe565b810190610a20565b91906101ac565b503d61023e565b610a38565b3461012457602036600319011261012457602061028a60043561028581610129565b610b13565b6040519015158152f35b34610124576000366003190112610124576000546040516001600160a01b039091168152602090f35b8015150361012457565b34610124576040366003190112610124576004356102e481610129565b6024356102f0816102bd565b60018060a01b03600092600460208386541660405192838092630536340960e21b82525afa801561025e5761033091869161037f575b5083163314610cc2565b16825260036020526040822060ff1981541660ff8315151617905560001461036c5760045460001981146103675760010160045580f35b610c9e565b6004548015610367576000190160045580f35b610397915060203d81116102575761024881836109fe565b38610326565b34610124576000366003190112610124576001546040516001600160a01b039091168152602090f35b346101245760003660031901126101245760005460405163d1f956b160e01b815290602090829060049082906001600160a01b03165afa90811561025e5761021d9161044f9160009161045f575b50604051610421816109c1565b601381527267657464656c656761746f72436f756e74282960681b6020820152610449610a60565b916110c0565b6040519081529081906020820190565b610477915060203d81116102575761024881836109fe565b38610414565b34610124576020806003193601126101245760049081359061049e82610129565b60005481906104b5906001600160a01b031661016e565b604051634bf9c0ad60e11b815294859182905afa91821561025e576101d161020b936105149261021d9660009261052f575b506040516001600160a01b03909116858201908152909261050c918491602090910190565b6101e7610d85565b919080610525575b6101fe90610db6565b508151811461051c565b61050c91925061054b90863d88116102575761024881836109fe565b91906104e7565b34610124576020806003193601126101245760043560018060a01b0391600092808454169060405191630536340960e21b83528383600481845afa92831561025e5760049385936105ad92899261063a575b50163314610cc2565b6040516311be646b60e21b815292839182905afa91821561025e578480856105ec9582958395849261061d575b50505af16105e6610f38565b50610f68565b60405190815233907fcdcc745fe377b103b45fa0cec23ae3ef93d6fc6a84a01f0d18c40b354dd1d5d890602090a280f35b6106339250803d106102575761024881836109fe565b38806105da565b610652919250853d87116102575761024881836109fe565b90386105a4565b346101245760203660031901126101245760043561067681610129565b803b600061068382610a44565b9261069160405194856109fe565b82845260208401903c602d8151106106b757602a015160405160609190911c8152602090f35b60405162461bcd60e51b81526020600482015260136024820152724e6f742061206d696e696d616c2070726f787960681b6044820152606490fd5b3461012457600080600319360112610802578054610718906001600160a01b031661016e565b60405163cfbffe5360e01b815260209290918383600481845afa801561025e57610758859160049585916107e5575b50610750610a73565b610449610a60565b916040519485809263ab6e844f60e01b82525afa801561025e5761021d9461044f946107bd94926107c2575b506107af906101d1610794610e74565b94604051958693840160209093929193604081019481520152565b6107b7610c65565b906110c0565b610cb4565b8192506107de906107af923d85116102575761024881836109fe565b9190610784565b6107fc9150833d85116102575761024881836109fe565b38610747565b80fd5b346101245760203660031901126101245760043561082281610129565b60018060a01b03166000526003602052602060ff604060002054166040519015158152f35b3461012457602080600319360112610124576004803561086681610129565b60005460405163d1f956b160e01b81526001600160a01b03949093909182918591829088165afa90811561025e5761021d9461020b946000936108c7575b5060405193168184015282526108b9826109c1565b6108c1610eff565b90611084565b6108df919350823d84116102575761024881836109fe565b91386108a4565b3461012457600036600319011261012457600054604051634bf9c0ad60e11b8152906020908190839060049082906001600160a01b03165afa90811561025e5761095061020b9261021d9460009161096b575b50610942610d00565b61094a610a60565b91610fa6565b919080610961575b6101fe90610d24565b5081518114610958565b6109829150833d85116102575761024881836109fe565b38610939565b346101245760003660031901126101245760206109a3610e74565b604051908152f35b634e487b7160e01b600052604160045260246000fd5b6040810190811067ffffffffffffffff8211176109dd57604052565b6109ab565b6020810190811067ffffffffffffffff8211176109dd57604052565b90601f8019910116810190811067ffffffffffffffff8211176109dd57604052565b908160209103126101245751610a3581610129565b90565b6040513d6000823e3d90fd5b67ffffffffffffffff81116109dd57601f01601f191660200190565b60405190610a6d826109e2565b60008252565b60405190610a80826109c1565b600c82526b72616e6b666f7244414f282960a01b6020830152565b60405190610aa8826109c1565b601682527567657455736572546f53746f7228616464726573732960501b6020830152565b60405190610ada826109c1565b600682526572616e6b282960d01b6020830152565b60405190610afc826109c1565b600882526769734c6f636b282960c01b6020830152565b600054610b28906001600160a01b031661016e565b9060405163cfbffe5360e01b81526020908181600481875afa801561025e57610b5f83916004936000916107e55750610750610a73565b946040519283809263ab6e844f60e01b82525afa801561025e57610bb8928492600092610c42575b506040516001600160a01b03909316908301908152610baa9083906020016101d1565b610bb2610a9b565b90611040565b916001600160a01b03831615610c3a57610bfc610be5610bd6610acd565b610bde610a60565b90866110c0565b93610bee610aef565b610bf6610a60565b91611084565b9210159182610c31575b5081610c10575090565b6001600160a01b031660009081526003602052604090205460ff1615905090565b15915038610c06565b505050600090565b819250610c5e90610baa923d85116102575761024881836109fe565b9190610b87565b60405190610c72826109c1565b601d82527f67657472616e6b636f756e742875696e743235362c75696e74323536290000006020830152565b634e487b7160e01b600052601160045260246000fd5b906003820180921161036757565b15610cc957565b60405162461bcd60e51b815260206004820152600f60248201526e6f776e2e6e6f6e617574682e44414f60881b6044820152606490fd5b60405190610d0d826109c1565b6008825267697353616665282960c01b6020830152565b15610d2b57565b60405162461bcd60e51b815260206004820152601960248201527f6f776e2e7361666567756172642e63616c6c2e6661696c6564000000000000006044820152606490fd5b908160209103126101245751610a35816102bd565b60405190610d92826109c1565b601582527469735365637572654261736528616464726573732960581b6020830152565b15610dbd57565b60405162461bcd60e51b815260206004820152601a60248201527f6f776e2e736563757265626173652e63616c6c2e6661696c65640000000000006044820152606490fd5b60405190610e0f826109c1565b601182527069735369676e657228616464726573732960781b6020830152565b15610e3657565b60405162461bcd60e51b81526020600482015260166024820152751bdddb8b9cda59db995c8b98d85b1b0b99985a5b195960521b6044820152606490fd5b60005460405163111ea8c160e21b815290602090829060049082906001600160a01b03165afa801561025e57610a3591600091610ee1575b50604051610eb9816109c1565b6005815264616765282960d81b602082015260405191610ed8836109e2565b600083526110c0565b610ef9915060203d81116102575761024881836109fe565b38610eac565b60405190610f0c826109c1565b601882527f697364656c656761746f724e6f646528616464726573732900000000000000006020830152565b3d15610f63573d90610f4982610a44565b91610f5760405193846109fe565b82523d6000602084013e565b606090565b15610f6f57565b60405162461bcd60e51b815260206004820152600f60248201526e1bdddb8b989d5c9b8b99985a5b1959608a1b6044820152606490fd5b9190823b15611027578051906020918263ffffffff60e01b92012016916040519180830193845281519160005b838110611013575050509181611000602482600097959688970187838201520360048101845201826109fe565b5191620dbba0fa61100f610f38565b9091565b818101830151858201602401528201610fd3565b505050600090604051611039816109e2565b6000815290565b929161104e91600094610fa6565b9080611079575b61105c5750565b909150602081805181010312610124576020015161016e81610129565b506020815114611055565b929161109291600094610fa6565b90806110b5575b6110a05750565b610a3591925060208082518301019101610d70565b506020815114611099565b92916110ce91600094610fa6565b90806110f3575b6110dc5750565b909150602081805181010312610124576020015190565b5060208151146110d556fea264697066735822122050756a2820c283297632e47ac756de6dc1bd53b9aef862877f3349322df3de2a64736f6c634300081400336080346100cf57601f611caa38819003918201601f19168301916001600160401b038311848410176100d4578084926020946040528339810103126100cf57516001600160a01b038116908190036100cf57801561008a5760018060a01b031933816001541617600155600054161760005560006003556001600455604051611bbf90816100eb8239f35b60405162461bcd60e51b815260206004820152601360248201527f6f776e2e696e76616c69642e68657862617365000000000000000000000000006044820152606490fd5b600080fd5b634e487b7160e01b600052604160045260246000fdfe60806040526004361015610018575b361561001657005b005b60003560e01c8063013cf08b1461016857806312065fe0146101635780631f185d161461015e5780633595df1a146101595780633b9b795514610154578063438596321461014f57806365153c4b1461014a5780638da5cb5b1461014557806398e527d314610140578063995e43391461013b578063a1f7f53914610136578063af48452614610131578063b90306ad1461012c578063c54e44b014610127578063c7f758a814610122578063c9d27afe1461011d578063d153356b14610118578063d3a3084914610113578063e01ad5fd1461010e578063e0a9bc2b146101095763fdc10bc90361000e57610fae565b610f93565b610f6c565b610d1e565b610c4e565b610ada565b610a6b565b610994565b6108e1565b6107cd565b6107aa565b610726565b610708565b6106df565b6105e9565b61057b565b610552565b610515565b6104e4565b6104b7565b610403565b6005548110156101a857600b906005600052027f036b6384b5eca791c62761152d0c79bb0604c104a5fb6f4eb0703f3154bb3db00190600090565b634e487b7160e01b600052603260045260246000fd5b90600182811c921680156101ee575b60208310146101d857565b634e487b7160e01b600052602260045260246000fd5b91607f16916101cd565b9060009291805491610209836101be565b91828252600193848116908160001461026b575060011461022b575b50505050565b90919394506000526020928360002092846000945b838610610257575050505001019038808080610225565b805485870183015294019385908201610240565b9294505050602093945060ff191683830152151560051b01019038808080610225565b634e487b7160e01b600052604160045260246000fd5b6020810190811067ffffffffffffffff8211176102c057604052565b61028e565b6040810190811067ffffffffffffffff8211176102c057604052565b90601f8019910116810190811067ffffffffffffffff8211176102c057604052565b9061031e61031792604051938480926101f8565b03836102e1565b565b60005b8381106103335750506000910152565b8181015183820152602001610323565b9060209161035c81518092818552858086019101610320565b601f01601f1916010190565b9892956103bb959e9d9b956103fb99936101809c9661031e9f9a949960408e61039c6103f19d6101a0808452830190610343565b6001600160a01b03909516602082015201528c820360608e0152610343565b60808b019f909f5260a08a015260c089015260e088015261010087015215156101208601526001600160a01b0316610140850152565b1515610160830152565b019015159052565b346104b25760203660031901126104b2576004356005548110156104b25761042a9061016d565b506040519061043d8261031781846101f8565b600181015460028201546001600160a01b039182169390926104ae929061046660038201610303565b9560048201549160058101546006820154600783015491600a6008850154940154956040519b8c9b8c9760ff8a60b01c169b60ff808c60a81c169c8c60081c169b1699610368565b0390f35b600080fd5b346104b25760003660031901126104b257602047604051908152f35b6001600160a01b038116036104b257565b346104b25760203660031901126104b257602061050b600435610506816104d3565b611633565b6040519015158152f35b346104b25760203660031901126104b257600435600019810190811161054d57600561054260209261016d565b500154604051908152f35b6110e5565b346104b25760003660031901126104b2576000546040516001600160a01b039091168152602090f35b346104b25760403660031901126104b25760043560243561059b816104d3565b600019820191821161054d576105d360ff9160096105ba60209561016d565b50019060018060a01b0316600052602052604060002090565b54166040519015158152f35b801515036104b257565b346104b25760403660031901126104b257600435602435610609816105df565b61061233611633565b156106a55760001982019180831161054d576106a06106336100169461016d565b503360009081526009820160205260409020546106539060ff1615611240565b61068c600a8201549161066c60ff8460b01c16156111fc565b61067860ff841661117d565b60076106826116df565b91015411156112c1565b60081c6001600160a01b0316331415611280565b611312565b60405162461bcd60e51b815260206004820152601260248201527137bbb71734b73b30b634b21739b4b3b732b960711b6044820152606490fd5b346104b25760003660031901126104b2576001546040516001600160a01b039091168152602090f35b346104b25760003660031901126104b2576020600554604051908152f35b346104b25760203660031901126104b257600435600019810190811161054d5761074f9061016d565b506004810154600682015460078301546008840154600a9094015460408051948552602085019390935291830152606082019290925260ff60a883901c81161515608083015260b09290921c909116151560a082015260c090f35b346104b25760003660031901126104b25760206107c561184c565b604051908152f35b346104b2576020806003193601126104b2576004908135906107ee826104d3565b60005481906001600160a01b0316604051634bf9c0ad60e11b815294859182905afa9182156108dc5761085361088d9361086f926104ae966000926108a9575b506040516001600160a01b039091168582019081529092610861918491602090910190565b03601f1981018452836102e1565b610869611544565b906119dd565b91908061089f575b61088090611575565b8082518301019101611481565b60405190151581529081906020820190565b5081518114610877565b6108619192506108ce90863d88116108d5575b6108c681836102e1565b8101906113f5565b919061082e565b503d6108bc565b61140d565b346104b25760203660031901126104b257600054604051630536340960e21b8152906001600160a01b03906020908390600490829085165afa9182156108dc57600092610974575b503391160361093d5761001660043561190c565b60405162461bcd60e51b815260206004820152600f60248201526e6f776e2e6e6f6e617574682e44414f60881b6044820152606490fd5b61098d91925060203d81116108d5576108c681836102e1565b9038610929565b346104b25760203660031901126104b2576004356109b1816104d3565b803b60006109be82611419565b926109cc60405194856102e1565b82845260208401903c602d8151106109f257602a015160405160609190911c8152602090f35b60405162461bcd60e51b81526020600482015260136024820152724e6f742061206d696e696d616c2070726f787960681b6044820152606490fd5b93610a466080949796939260a0875260a0870190610343565b6001600160a01b03928316602087015260408601979097521660608401521515910152565b346104b25760203660031901126104b257600435600019810190811161054d57610a949061016d565b5060018060a01b036104ae81600184015416926103176002820154610ac4600a84015493604051938480926101f8565b60405195869560ff85169460081c169286610a2d565b346104b25760403660031901126104b257600435602435610afa816105df565b610b0333611633565b8015610c2b575b610b1390611129565b610c00610bf3610b2a610b258561116e565b61016d565b50600a81015490610b3d60ff831661117d565b610b546007820154610b4d6116df565b11156111bd565b610b6460ff8360b01c16156111fc565b610ba1600982019261068c610b9c610b98610b9133889060018060a01b0316600052602052604060002090565b5460ff1690565b1590565b611240565b60008515610c26575060015b610bbf60ff600484019216825461111c565b9055600085610c185750610bde60ff60066001935b019216825461111c565b90553360009081526020919091526040902090565b805460ff19166001179055565b610c0933611633565b610c0f57005b61001691611312565b60ff6006610bde9293610bd4565b610bad565b50610c34611496565b8015610b0a5750610b13610c473361176a565b9050610b0a565b346104b25760403660031901126104b257610c67611496565b15610cb657333003610c8157600480356003556024359055005b60405162461bcd60e51b815260206004820152600d60248201526c64616f2e66616b652e636f726560981b6044820152606490fd5b60405162461bcd60e51b81526020600482015260126024820152716f776e2e696e76616c69642e69735361666560701b6044820152606490fd5b9181601f840112156104b25782359167ffffffffffffffff83116104b257602083818601950101116104b257565b346104b25760a03660031901126104b25767ffffffffffffffff6004358181116104b257610d50903690600401610cf0565b602435610d5c816104d3565b6064358481116104b257610d74903690600401610cf0565b9390926001600160a01b03831615610f325760055491680100000000000000008310156102c057610dac60019384810160055561016d565b509682116102c057610dc882610dc289546101be565b89610fc9565b600090601f8311600114610eb85793600a969383610e9f999794610e2794610e3898600092610ead575b5050600019600383901b1c191690821b1787555b860180546001600160a01b0319166001600160a01b03909216919091179055565b60443560028501556003840161101d565b610e5e610e57610e52610e4961184c565b600354906110fb565b61110e565b6064900490565b6008820155610e76608435610e716116df565b61111c565b6007820155018054610100600160a81b0319163360081b610100600160a81b0316178155610bf3565b600554604051908152602090f35b013590503880610df2565b601f19831691610ecd89600052602060002090565b92815b818110610f1c57509484610e2794610e3898948394610e9f9d9b98600a9d9a10610f02575b505050811b018755610e06565b0135600019600384901b60f8161c19169055388080610ef5565b8383013585559386019360209283019201610ed0565b60405162461bcd60e51b815260206004820152601260248201527137bbb7173232b330bab63a1739b2b73232b960711b6044820152606490fd5b346104b25760203660031901126104b257602061050b600435610f8e816104d3565b61176a565b346104b25760003660031901126104b257602061050b611496565b346104b25760003660031901126104b25760206107c56116df565b90601f8111610fd757505050565b600091825260208220906020601f850160051c83019410611013575b601f0160051c01915b82811061100857505050565b818155600101610ffc565b9092508290610ff3565b90929167ffffffffffffffff81116102c0576110438161103d84546101be565b84610fc9565b6000601f821160011461107d5781929394600092611072575b50508160011b916000199060031b1c1916179055565b01359050388061105c565b601f1982169461109284600052602060002090565b91805b8781106110cd5750836001959697106110b3575b505050811b019055565b0135600019600384901b60f8161c191690553880806110a9565b90926020600181928686013581550194019101611095565b634e487b7160e01b600052601160045260246000fd5b8181029291811591840414171561054d57565b906063820180921161054d57565b9190820180921161054d57565b1561113057565b60405162461bcd60e51b815260206004820152601660248201527564616f2e6e6f6e617574682e64656c656761746f727360501b6044820152606490fd5b60001981019190821161054d57565b1561118457565b60405162461bcd60e51b815260206004820152601160248201527019185bcb9c1c9bdc0b9b9bdd195e1a5cdd607a1b6044820152606490fd5b156111c457565b60405162461bcd60e51b815260206004820152601060248201526f19185bcb9d9bdd1a5b99cb995b99195960821b6044820152606490fd5b1561120357565b60405162461bcd60e51b815260206004820152601560248201527419185bcb985b1c9958591e4b98dbdb5c1b195d1959605a1b6044820152606490fd5b1561124757565b60405162461bcd60e51b815260206004820152601160248201527019185bcb985b1c9958591e4b9d9bdd1959607a1b6044820152606490fd5b1561128757565b60405162461bcd60e51b815260206004820152601260248201527119185bcb9d9bdd195c8b9c995cdd1c9a58dd60721b6044820152606490fd5b156112c857565b60405162461bcd60e51b815260206004820152601360248201527264616f2e6265666f72652e646561646c696e6560681b6044820152606490fd5b600019811461054d5760010190565b610b2561131e9161116e565b506005810161132d8154611303565b8091556004541480156113ed575b611343575050565b600a8101805460ff60b01b1916600160b01b1781556113ad9261138891816113da575b816113b057805460ff60a81b191691151560a81b60ff60a81b16919091179055565b60018101546001600160a01b03166113a7600360028401549301610303565b90611aca565b50565b60048401546006850154109150805460ff60a81b191691151560a81b60ff60a81b16919091179055565b6004840154600885015411159150611366565b50811561133b565b908160209103126104b2575161140a816104d3565b90565b6040513d6000823e3d90fd5b67ffffffffffffffff81116102c057601f01601f191660200190565b1561143c57565b60405162461bcd60e51b815260206004820152601960248201527f6f776e2e7361666567756172642e63616c6c2e6661696c6564000000000000006044820152606490fd5b908160209103126104b2575161140a816105df565b600054604051634bf9c0ad60e11b8152906020908190839060049082906001600160a01b03165afa9182156108dc5761140a9261150c91600091611527575b506040516114e2816102c5565b6008815267697353616665282960c01b8482015260405191611503836102a4565b600083526119dd565b91908061151d575b61088090611435565b5081518114611514565b61153e9150833d85116108d5576108c681836102e1565b386114d5565b60405190611551826102c5565b601582527469735365637572654261736528616464726573732960581b6020830152565b1561157c57565b60405162461bcd60e51b815260206004820152601a60248201527f6f776e2e736563757265626173652e63616c6c2e6661696c65640000000000006044820152606490fd5b604051906115ce826102c5565b601182527069735369676e657228616464726573732960781b6020830152565b156115f557565b60405162461bcd60e51b81526020600482015260166024820152751bdddb8b9cda59db995c8b98d85b1b0b99985a5b195960521b6044820152606490fd5b6000546001600160a01b0316604051918291634bf9c0ad60e11b835282600460209485935afa9283156108dc5761140a936116a192610853926000926116bc575b506040516001600160a01b039091168582019081529092611699918491602090910190565b6108696115c1565b9190806116b2575b610880906115ee565b50815181146116a9565b6116999192506116d890863d88116108d5576108c681836102e1565b9190611674565b60005460405163111ea8c160e21b815290602090829060049082906001600160a01b03165afa80156108dc5761140a9160009161174c575b50604051611724816102c5565b6005815264616765282960d81b602082015260405191611743836102a4565b60008352611a5b565b611764915060203d81116108d5576108c681836102e1565b38611717565b60005460405163d1f956b160e01b8152916020916001600160a01b039083908590600490829085165afa9384156108dc57600094611827575b506040519116828201528181526117fa906117bd816102c5565b6040516117c9816102c5565b601881527f697364656c656761746f724e6f64652861646472657373290000000000000000848201526000946119dd565b91908061181d575b61180b57505090565b61140a92508082518301019101611481565b5080825114611802565b6117fa9291945061184490843d86116108d5576108c681836102e1565b9390916117a3565b60005460405163d1f956b160e01b815290602090829060049082906001600160a01b03165afa80156108dc5761140a916000916118be575b50604051611891816102c5565b601381527267657464656c656761746f72436f756e74282960681b602082015260405191611743836102a4565b6118d6915060203d81116108d5576108c681836102e1565b38611884565b3d15611907573d906118ed82611419565b916118fb60405193846102e1565b82523d6000602084013e565b606090565b600080546040516311be646b60e21b815290602090829060049082906001600160a01b03165afa9081156108dc5782848193829383916119bf575b505af16119526118dc565b50156119885760405190815233907fcdcc745fe377b103b45fa0cec23ae3ef93d6fc6a84a01f0d18c40b354dd1d5d890602090a2565b60405162461bcd60e51b815260206004820152600f60248201526e1bdddb8b989d5c9b8b99985a5b1959608a1b6044820152606490fd5b6119d7915060203d81116108d5576108c681836102e1565b38611947565b803b15611a4257600092839263ffffffff60e01b90602081519101201690611a2f6024604051809360208201958652611a1f8151809260208686019101610320565b81010360048101845201826102e1565b5191620dbba0fa611a3e6118dc565b9091565b505050600090604051611a54816102a4565b6000815290565b9291611a69916000946119dd565b9080611a8e575b611a775750565b9091506020818051810103126104b2576020015190565b506020815114611a70565b906020825192015163ffffffff60e01b908181169360048110611abb57505050565b60040360031b82901b16169150565b9091906001600160a01b03811615611b4f57600091829184519160208601915af190611af46118dc565b9115611afe575090565b805160009190600411611b4957611b159150611a99565b815115611b255750805190602001fd5b604051630870274d60e21b81526001600160e01b0319919091166004820152602490fd5b50611b15565b60405162461bcd60e51b81526020600482015260126024820152711bdddb8b9a5b9d985b1a590b9d185c99d95d60721b6044820152606490fdfea264697066735822122049c3fdfe4ac8f46cf3e7e20f92bac465391e4491282a86c13792387ce14b70cc64736f6c63430008140033608034620000d157601f62004bcc38819003918201601f19168301916001600160401b03831184841017620000d657808492602094604052833981010312620000d157516001600160a01b03811690819003620000d15780156200008c5760018060a01b03193381600154161760015560005416176000556001600355604051614adf9081620000ed8239f35b60405162461bcd60e51b815260206004820152601360248201527f6f776e2e696e76616c69642e68657862617365000000000000000000000000006044820152606490fd5b600080fd5b634e487b7160e01b600052604160045260246000fdfe60806040526004361015610018575b361561001657005b005b60003560e01c80629db65514610327578063033eeffb146103225780630e5fd00b1461031d57806312065fe0146103185780631bb49f02146103135780631c53c2801461030e5780631f185d16146103095780632a687c87146103045780632fefc0bf146102ff57806332ff4eab146102fa57806333b59a5b146102f55780633a7b55b8146102f05780633b9b7955146102eb5780633baee0ea146102e6578063419cb27b146102e157806342cc9d57146102dc57806344585097146102d75780634f0f4aa9146102d2578063509222cd146102cd57806350db85d1146102c857806361ea7208146102c3578063629d671e146102be57806365d2fbd3146102b95780636a811244146102b457806376fe6c45146102af5780637bb98498146102aa57806380f85e33146102a5578063849c22ad146102a0578063896c354a1461029b5780638da5cb5b1461029657806395f72f491461029157806398b3f2151461028c578063a1f7f53914610287578063a89d693b14610282578063af4845261461027d578063b1c4907914610278578063b366335e14610273578063b90306ad1461026e578063c54e44b014610269578063c871372b14610264578063d1e0bbc61461025f578063dcb3fc4a1461025a578063e01ad5fd14610255578063e0a9bc2b14610250578063eb95c6621461024b578063eb9e9e2c14610246578063f3ca712414610241578063fd38093b1461023c5763fdc10bc90361000e576125dc565b61256c565b612540565b6123ae565b612382565b612367565b6122c8565b612107565b6120cd565b612050565b611fb7565b611f04565b611eae565b611d9c565b611d75565b611c56565b611b70565b611b44565b611a9a565b611a71565b611a31565b611a02565b6119c8565b61191e565b6118cf565b61148d565b611174565b611137565b611119565b611056565b611003565b610f19565b610ee2565b610eb3565b610e79565b6109e5565b610994565b610828565b610750565b6106a6565b61066f565b6105c0565b61049b565b610467565b610402565b6103e6565b610397565b61035a565b346103555760203660031901126103555760025460001981019081116103505761001690613faf565b612838565b600080fd5b3461035557602036600319011261035557600435600052600b6020526020604060002054604051908152f35b6001600160a01b0381160361035557565b346103555760203660031901126103555760206004356103b681610386565b60018060a01b03809116600052600482526040600020546000526007825260046040600020015416604051908152f35b3461035557600036600319011261035557602047604051908152f35b346103555760203660031901126103555760043561041f81610386565b6001600160a01b0390811660009081526004602090815260408083205483526007825280832060020154808452600583529281902054815193845290931690820152f35b0390f35b34610355576020366003190112610355576004356000526005602052602060018060a01b0360406000205416604051908152f35b3461035557602080600319360112610355576004908135906104bc82610386565b60005481906104db906001600160a01b03165b6001600160a01b031690565b604051634bf9c0ad60e11b815294859182905afa9182156105bb5761053261056c9361054e9261046396600092610588575b506040516001600160a01b039091168582019081529092610540918491602090910190565b03601f1981018452836126a7565b610548614621565b90614883565b91908061057e575b61055f9061464e565b8082518301019101614436565b60405190151581529081906020820190565b5081518114610556565b6105409192506105ad90863d88116105b4575b6105a581836126a7565b8101906128cd565b919061050d565b503d61059b565b6128e2565b34610355576040366003190112610355576105e16105dc61444a565b61288c565b6105ea33614575565b8015610608575b6105fa906128ee565b6100166024356004356141ca565b50600054604051630536340960e21b8152906001600160a01b03906020908390600490829085165afa9081156105bb576105fa9260009261064f575b5016331490506105f1565b61066891925060203d81116105b4576105a581836126a7565b9038610644565b34610355576020366003190112610355576004356000526007602052602060018060a01b0360056040600020015416604051908152f35b34610355576040366003190112610355576106c26105dc61444a565b6106cb33614575565b80156106e9575b6106db906128ee565b61001660243560043561421e565b50600054604051630536340960e21b8152906001600160a01b03906020908390600490829085165afa9081156105bb576106db92600092610730575b5016331490506106d2565b61074991925060203d81116105b4576105a581836126a7565b9038610725565b346103555760403660031901126103555761076c6105dc61444a565b61077533614575565b8015610793575b610785906128ee565b6100166024356004356142b1565b50600054604051630536340960e21b8152906001600160a01b03906020908390600490829085165afa9081156105bb57610785926000926107da575b50163314905061077c565b6107f391925060203d81116105b4576105a581836126a7565b90386107cf565b60e0810192916000915b6007831061081157505050565b600190825181526020809101920192019190610804565b34610355576020366003190112610355576104636004356109826109726040519261085284612636565b60e036853761087e61086e826000526009602052604060002090565b6001600052602052604060002090565b5484526108a8610898826000526009602052604060002090565b6002600052602052604060002090565b5460208501526108d56108c5826000526009602052604060002090565b6003600052602052604060002090565b5460408501526109026108f2826000526009602052604060002090565b6004600052602052604060002090565b54606085015261092f61091f826000526009602052604060002090565b6005600052602052604060002090565b54608085015261095c61094c826000526009602052604060002090565b6006600052602052604060002090565b5460a08501526000526009602052604060002090565b6007600052602052604060002090565b5460c0820152604051918291826107fa565b34610355576000366003190112610355576000546040516001600160a01b039091168152602090f35b6040906003190112610355576004356109d581610386565b906024356109e281610386565b90565b3461035557610a446109f6366109bd565b6109fe612869565b610a17610a096126f8565b610a11612710565b33614901565b91610a65610a2e610a266126f8565b610a11612733565b6001600160a01b0395848716958716861461275b565b6000548690610a5d9082166001600160a01b03166104cf565b9116146127a7565b610a70831515613158565b6001600160a01b038216600090815260046020526040902054158015610e6e575b610a9a9061319a565b6001600160a01b0381166000908152600460205260409020610abe905415156131dd565b610b016005610af3610ae28460018060a01b03166000526004602052604060002090565b546000526007602052604060002090565b01546001600160a01b031690565b6040805163880cdc3160e01b6020808301919091526001600160a01b03861660248084019190915282529196919592601f1991610b4891610b436044836126a7565b6149ee565b50610b706104cf6004610af3610ae28860018060a01b03166000526004602052604060002090565b15610d3557610c8d95610bcd91610b43610ba46004610af3610ae28a60018060a01b03166000526004602052604060002090565b8a5162e6724f60e21b948101949094523360248501529183604481015b039081018452836126a7565b505b6001600160a01b0383811660009081526004602090815260408083205493881683528083208490559282526005905220610c259085905b80546001600160a01b0319166001600160a01b03909216919091179055565b610c6a336004610c4a610ae28860018060a01b03166000526004602052604060002090565b0180546001600160a01b0319166001600160a01b03909216919091179055565b821603610d17575b506001600160a01b0316600090815260046020526040902090565b54610463610caa6005610af3846000526007602052604060002090565b92610ce6610cd96002610cc7866000526007602052604060002090565b01546000526005602052604060002090565b546001600160a01b031690565b90610cf16001600355565b519283526001600160a01b03938416602084015290921660408201529081906060820190565b6001600160a01b031660009081526004602052604081205538610c72565b600054600496908190610d50906001600160a01b03166104cf565b895163111ea8c160e21b815298899182905afa9687156105bb57610c8d97610db491600091610e51575b5089516001600160a01b038816848201908152909190610da69083906020015b038681018452836126a7565b610dae613229565b90614901565b838116151580610e47575b610dcc575b505050610bcf565b8851634fb2e45d60e01b83820152336024820152610e3e93610b4391610e0690610e008160448101038481018352826126a7565b846149ee565b508a5193630a3e884b60e41b9085015283610bc160248201906007606060808401936000815260006020820152600060408201520152565b50388080610dc4565b5080311515610dbf565b610e689150833d85116105b4576105a581836126a7565b38610d7a565b508084168314610a91565b34610355576020366003190112610355576020610ea9600435600052600760205260ff6001604060002001541690565b6040519015158152f35b346103555760203660031901126103555760043560005260076020526020600360406000200154604051908152f35b34610355576020366003190112610355576004356000526007602052602060018060a01b0360046040600020015416604051908152f35b3461035557602036600319011261035557600435806000526007602052604060002054600560205261046360018060a01b0380604060002054169360076020526040600020916004600284015493015416610f836005610af3846000526007602052604060002090565b906003610fbb610faa6001610fa2876000526007602052604060002090565b015460ff1690565b946000526007602052604060002090565b0154604080519788526001600160a01b03988916602089015287019490945286166060860152909416608084015292151560a083015260c082019290925290819060e0820190565b346103555760203660031901126103555760043561102081610386565b60018060a01b031660005260046020526040600020546000526007602052602060ff600160406000200154166040519015158152f35b3461035557611064366109bd565b61106f6105dc61444a565b61107833614575565b80156110ac575b9161108c611091936128ee565b61293a565b604080519283526001600160a01b0391909116602083015290f35b50600054604051630536340960e21b81526001600160a01b0393916020908290600490829088165afa80156105bb576110919461108c926000926110f9575b50339116149193505061107f565b61111291925060203d81116105b4576105a581836126a7565b90386110eb565b34610355576000366003190112610355576020600654604051908152f35b346103555760203660031901126103555760043561115481610386565b60018060a01b031660005260046020526020604060002054604051908152f35b346103555760203660031901126103555760043560016111aa6111a582610fa2856000526007602052604060002090565b6130b4565b6111be826000526010602052604060002090565b6002918282019160ff8354818160081c1680611484575b6111de9061356d565b60101c166113b45750611208836111ff866000526007602052604060002090565b015415156135fe565b6000815b61127b575b5050600061124c9261122d856000526007602052604060002090565b01555b80546112429060101c60ff16846136fd565b5460101c60ff1690565b61125257005b611269610016916000526010602052604060002090565b60026000918281558260018201550155565b6003806112a886611296896000526007602052604060002090565b01546000526007602052604060002090565b01548210156113ae5785806112e36112d985856112d38b611296876000526007602052604060002090565b01612fac565b90549060031b1c90565b146112f95750506112f390612db9565b8161120c565b600093509061138a826113718895846112d3886112966113606112d961124c9f9b61135a876113536113a89f6112968361134183611296896000526007602052604060002090565b01956000526007602052604060002090565b0154612b2e565b90612fac565b966000526007602052604060002090565b90919082549060031b91821b91600019901b1916179055565b6113a283611296896000526007602052604060002090565b0161364a565b92611211565b50611211565b8361147e92610532926113e061124c976113d88a6000526007602052604060002090565b0154156135b2565b0154816113f7886000526007602052604060002090565b015561141d86600361141784611296846000526007602052604060002090565b01612fc9565b610b43611454610cd961143f6004610af38b6000526007602052604060002090565b93610cc78a6000526007602052604060002090565b604051630a4ce2c960e11b60208201526001600160a01b0390911660248201529283906044820190565b50611230565b508082166111d5565b34610355576040806003193601126103555760048035906114ac612869565b6114c86111a56001610fa2856000526007602052604060002090565b6114ed6114e66104cf83610af3866000526007602052604060002090565b3314613258565b6114f5612b83565b61150e6005610af3846000526007602052604060002090565b906002549284519361156b61155d60209663015042f960e11b8882015280611549602495863587840160209093929193604081019481520152565b0396610b43601f19988981018452836126a7565b868082518301019101613997565b9384519561157e8187019788519061285c565b9461158e8988019687519061285c565b9361159f606089019586519061285c565b946115b060808a019687519061285c565b996115c96115c460e08c019c8d519061285c565b614170565b8951611827575b805161177e575b5080516116d7575b508451611620575b8989610463896115fc8a60c08e015190613c3d565b5191519261160a6001600355565b5191825260208201929092529081906040820190565b6000549497939594929392849061163f906001600160a01b03166104cf565b8b516313b92d3560e31b815293849182905afa9788156105bb57610463986115fc9760c0968d6116a6966000946116b0575b509351935163a9059cbb60e01b9181019190915233948101948552602085019390935291929091610b43918490604001610bc1565b50948293386115e7565b610b439450906116cf610bc192843d86116105b4576105a581836126a7565b945090611671565b600054839085906116f0906001600160a01b03166104cf565b8d51635506ee0b60e11b815292839182905afa9182156105bb57611756928d61174a9360009261175d575b509151915163a9059cbb60e01b88820152338682019081526020810193909352929091610b4391849160400190565b038881018452836126a7565b50386115df565b610b43925061177890893d8b116105b4576105a581836126a7565b9161171b565b600054849086908e90611799906001600160a01b03166104cf565b90516330125cf560e01b815292839182905afa9182156105bb576117ff928e6117f393600092611806575b509151915163a9059cbb60e01b89820152338782019081526020810193909352929091610b4391849160400190565b038981018452836126a7565b50386115d7565b610b439250611821908a3d8c116105b4576105a581836126a7565b916117c4565b600054849086908e90611842906001600160a01b03166104cf565b9051636402742760e01b815292839182905afa80156105bb578b61189c918f6118a8946000926118ae575b509151915163a9059cbb60e01b8a820152338882019081526020810193909352929091610b4391849160400190565b038a81018452836126a7565b506115d0565b610b4392506118c9908b3d8d116105b4576105a581836126a7565b9161186d565b346103555760203660031901126103555760206004356118ee81610386565b60018060a01b03809116600052600482526040600020546000526007825260056040600020015416604051908152f35b346103555760403660031901126103555761193a6105dc61444a565b61194333614575565b8015611961575b611953906128ee565b610016602435600435613475565b50600054604051630536340960e21b8152906001600160a01b03906020908390600490829085165afa9081156105bb57611953926000926119a8575b50163314905061194a565b6119c191925060203d81116105b4576105a581836126a7565b903861199d565b3461035557604036600319011261035557600435600052600860205260406000206024356000526020526020604060002054604051908152f35b346103555760203660031901126103555760043560005260076020526020600260406000200154604051908152f35b346103555760403660031901126103555760043560005260076020526020611a626024356003604060002001612fac565b90549060031b1c604051908152f35b34610355576000366003190112610355576001546040516001600160a01b039091168152602090f35b3461035557604036600319011261035557611ab66105dc61444a565b611abf33614575565b8015611add575b611acf906128ee565b6100166024356004356141f4565b50600054604051630536340960e21b8152906001600160a01b03906020908390600490829085165afa9081156105bb57611acf92600092611b24575b501633149050611ac6565b611b3d91925060203d81116105b4576105a581836126a7565b9038611b19565b3461035557602036600319011261035557600435600052600f6020526020604060002054604051908152f35b346103555760003660031901126103555760005460405163d1f956b160e01b815290602090829060049082906001600160a01b03165afa9081156105bb5761046391611bf991600091611c09575b50604051611bcb81612652565b601381527267657464656c656761746f72436f756e74282960681b6020820152611bf36126e5565b91614981565b6040519081529081906020820190565b611c21915060203d81116105b4576105a581836126a7565b38611bbe565b610100810192916000915b60088310611c3f57505050565b600190825181526020809101920192019190611c32565b3461035557602036600319011261035557610463600435611d63610972611c7b614103565b92611ca2611c93826000526008602052604060002090565b60008052602052604060002090565b548452611cbc61086e826000526008602052604060002090565b546020850152611cd9610898826000526008602052604060002090565b546040850152611cf66108c5826000526008602052604060002090565b546060850152611d136108f2826000526008602052604060002090565b546080850152611d3061091f826000526008602052604060002090565b5460a0850152611d4d61094c826000526008602052604060002090565b5460c08501526000526008602052604060002090565b5460e082015260405191829182611c27565b34610355576020366003190112610355576020610ea9600435611d9781610386565b614575565b3461035557611e3a611dad366109bd565b90611db6612869565b611dff611dc4610a096126f8565b611dcf610a266126f8565b906001600160a01b0390611de89082168683161461275b565b600054610a5d9082166001600160a01b03166104cf565b611e2b611e266001610fa2610ae28560018060a01b03166000526004602052604060002090565b6127ec565b611e33612b3d565b3390612dc8565b611e53611c936002546000526008602052604060002090565b611e5d815461284e565b9055611e6761419c565b611e806005610af3836000526007602052604060002090565b90611e8a816130f8565b611e946001600355565b604080519182526001600160a01b03929092166020820152f35b3461035557602036600319011261035557611ec7614693565b60025410611ede575b610016600435600254612bc6565b611ee6614693565b80600255600019810190811161035057611eff90613faf565b611ed0565b3461035557602036600319011261035557600054604051630536340960e21b8152906001600160a01b03906020908390600490829085165afa9182156105bb57600092611f97575b5033911603611f6057610016600435614787565b60405162461bcd60e51b815260206004820152600f60248201526e6f776e2e6e6f6e617574682e44414f60881b6044820152606490fd5b611fb091925060203d81116105b4576105a581836126a7565b9038611f4c565b3461035557602036600319011261035557600435611fd481610386565b803b6000611fe1826126c9565b92611fef60405194856126a7565b82845260208401903c602d81511061201557602a015160405160609190911c8152602090f35b60405162461bcd60e51b81526020600482015260136024820152724e6f742061206d696e696d616c2070726f787960681b6044820152606490fd5b604036600319011261035557600435612067612869565b600090808252600760205261208560ff6001604085200154166130b4565b815260076020526120c460018060a01b036005604084200154166040519062a0e53360e51b6020830152602435602483015260248252610b4382612615565b50600160035580f35b3461035557604036600319011261035557600435600052600a60205260406000206024356000526020526020604060002054604051908152f35b346103555760c03660031901126103555760243560043561212782610386565b6064359060843590612137612869565b6121536111a56001610fa2846000526007602052604060002090565b6121726114e66104cf6004610af3856000526007602052604060002090565b61217a612b83565b61218382614118565b61218c83614144565b61220b6121fd6115496121ae6005610af3866000526007602052604060002090565b604051634996516b60e11b6020808301919091526001600160a01b039099166024820152604480359082015260648101889052608481019690965260a4803590870152969490819060c4820190565b8380825183010191016132a4565b9281612228575b505061221e9350613a11565b6100166001600355565b60005460049291908190612244906001600160a01b03166104cf565b604051635e09dbe760e01b815294859182905afa80156105bb5761221e9761229f946000926122a7575b5060405163a9059cbb60e01b9381019390935233602484015260448301939093529091610b43908360648101610bc1565b503880612212565b610b4392506122c290843d86116105b4576105a581836126a7565b9161226e565b346103555760208060031936011261035557600480356122e781610386565b60005460405163d1f956b160e01b81526001600160a01b03949093909182918591829088165afa9081156105bb576104639461056c94600093612348575b50604051931681840152825261233a82612652565b61234261471e565b90614945565b612360919350823d84116105b4576105a581836126a7565b9138612325565b34610355576000366003190112610355576020610ea961444a565b3461035557602036600319011261035557600435600052600c6020526020604060002054604051908152f35b346103555760403660031901126103555760043560046024356124066124016123e93360018060a01b03166000526004602052604060002090565b54600052600760205260ff6001604060002001541690565b6132ba565b6124226111a56001610fa2866000526007602052604060002090565b61244361243e6001610fa2846000526007602052604060002090565b6132fe565b604051630f77309360e31b6020808301919091526024820185905260448083018490528252601f1994906124786064846126a7565b600054819061248f906001600160a01b03166104cf565b604051630536340960e21b815296879182905afa80156105bb576124e9610bc161250d956124fa936100169a60029a60009261251f575b5060405163d3a3084960e01b88820152939192610b439285913060248401613365565b926000526010602052604060002090565b93600185015580825183010191016133f2565b815501805461ff001916610100179055565b610b43925061253a90883d8a116105b4576105a581836126a7565b916124c6565b3461035557602036600319011261035557600435600052600e6020526020604060002054604051908152f35b34610355576040806003193601126103555760043561258a81610386565b6001600160a01b0316600081815260046020818152848320548352600b815284832054938352908152838220548252600a81528382206024358352815290839020549251918252810191909152604090f35b346103555760003660031901126103555760206125f7614693565b604051908152f35b634e487b7160e01b600052604160045260246000fd5b6060810190811067ffffffffffffffff82111761263157604052565b6125ff565b60e0810190811067ffffffffffffffff82111761263157604052565b6040810190811067ffffffffffffffff82111761263157604052565b6020810190811067ffffffffffffffff82111761263157604052565b610100810190811067ffffffffffffffff82111761263157604052565b90601f8019910116810190811067ffffffffffffffff82111761263157604052565b67ffffffffffffffff811161263157601f01601f191660200190565b604051906126f28261266e565b60008252565b6040516127048161266e565b60008152906000368137565b6040519061271d82612652565b60078252666f776e6572282960c81b6020830152565b6040519061274082612652565b600c82526b67657448657862617365282960a01b6020830152565b1561276257565b60405162461bcd60e51b815260206004820152601760248201527f6e65737465642e696e76616c69642e696e7374616e63650000000000000000006044820152606490fd5b156127ae57565b60405162461bcd60e51b81526020600482015260166024820152756e65737465642e696e76616c69642e6865786261736560501b6044820152606490fd5b156127f357565b60405162461bcd60e51b815260206004820152601860248201527f6e65737465642e706172656e742e6e6f742e65786973747300000000000000006044820152606490fd5b634e487b7160e01b600052601160045260246000fd5b906001820180921161035057565b9190820180921161035057565b60026003541461287a576002600355565b604051633ee5aeb560e01b8152600490fd5b1561289357565b60405162461bcd60e51b81526020600482015260126024820152716f776e2e696e76616c69642e69735361666560701b6044820152606490fd5b9081602091031261035557516109e281610386565b6040513d6000823e3d90fd5b156128f557565b60405162461bcd60e51b815260206004820152601b60248201527f6f776e2e6e6f6e617574682e44414f6f725365637572656261736500000000006044820152606490fd5b6129e792916129ed60049261294d612869565b61298061297b6129776001610fa2610ae28860018060a01b03166000526004602052604060002090565b1590565b612d75565b61299361298e600654612db9565b600655565b6006549586916129b185610c06856000526005602052604060002090565b6001600160a01b038516600090815260046020526040902083905b556001600160a01b0316600090815260046020526040902090565b54612ff1565b612a1682612a05866000526007602052604060002090565b0180546001600160a01b0319169055565b600054602090612a2e906001600160a01b03166104cf565b60405163e09d394d60e01b815293849182905afa80156105bb57612a61612a7791612ae194600091612b10575b50612f2e565b6005610c4a876000526007602052604060002090565b612a906005610af3866000526007602052604060002090565b600054610b4390612aa9906001600160a01b03166104cf565b6040516352902c5960e01b60208201526001600160a01b03918216602482015293166044840152606483018690528260848101610532565b506000828152600760205260409020600501546001600160a01b031691612b07816130f8565b91906001600355565b612b28915060203d81116105b4576105a581836126a7565b38612a5b565b60001981019190821161035057565b612b45614693565b60025410612b5d575b612b5b6005600254612bc6565b565b612b65614693565b80600255600019810190811161035057612b7e90613faf565b612b4e565b612b8b614693565b60025410612ba0575b612b5b60028054612bc6565b612ba8614693565b80600255600019810190811161035057612bc190613faf565b612b94565b90612bde611c93836000526008602052604060002090565b541580612d6b575b80612d62575b612bf4575050565b612c1090612c0a612c0484612b2e565b91612b2e565b90612bc6565b612c2f611c93612c1f83612b2e565b6000526008602052604060002090565b54612c47611c93836000526008602052604060002090565b55612c5761086e612c1f83612b2e565b54612c6f61086e836000526008602052604060002090565b55612c7f610898612c1f83612b2e565b54612c97610898836000526008602052604060002090565b55612ca76108c5612c1f83612b2e565b54612cbf6108c5836000526008602052604060002090565b55612ccf6108f2612c1f83612b2e565b54612ce76108f2836000526008602052604060002090565b55612cf761091f612c1f83612b2e565b54612d0f61091f836000526008602052604060002090565b55612d1f61094c612c1f83612b2e565b54612d3761094c836000526008602052604060002090565b55612d5f610972612d4d610972612c1f85612b2e565b54926000526008602052604060002090565b55565b50801515612bec565b5060018211612be6565b15612d7c57565b60405162461bcd60e51b81526020600482015260156024820152746e65737465642e616c72656164792e65786973747360581b6044820152606490fd5b60001981146103505760010190565b91612e60600492612e4b6129e795612e0061297b6129776001610fa2610ae28a60018060a01b03166000526004602052604060002090565b612e0e61298e600654612db9565b600654968791612e2c87610c06856000526005602052604060002090565b6001600160a01b038716600090815260046020526040902083906129cc565b83610c4a866000526007602052604060002090565b600054602090612e78906001600160a01b03166104cf565b60405163e09d394d60e01b815293849182905afa80156105bb57612eaa612ec091612f2a94600091612b105750612f2e565b6005610c4a866000526007602052604060002090565b612ed96005610af3856000526007602052604060002090565b600054610b4390612ef2906001600160a01b03166104cf565b6040516352902c5960e01b60208201526001600160a01b03918216602482015293166044840152606483018590528260848101610532565b5090565b6e5af43d82803e903d91602b57fd5bf390763d602d80600a3d3981f3363d3d373d3d3d363d7300000062ffffff8260881c161760005260781b17602052603760096000f0906001600160a01b03821615612f8457565b60405163b06ebf3d60e01b8152600490fd5b634e487b7160e01b600052603260045260246000fd5b8054821015612fc45760005260206000200190600090565b612f96565b90815491680100000000000000008310156126315782611371916001612b5b95018155612fac565b91906000818152602093600785526040808320926002948386860155806001958681018760ff19825416179055558385905b61303257505050505050509050565b61308c61307b82888a9414613095575b878652600a8c528686208187528c5286862061305e815461284e565b9055878652600b8c52868620613074815461284e565b9055612db9565b956000526007602052604060002090565b01549384613023565b6130af8560036114178b6000526007602052604060002090565b613042565b156130bb57565b60405162461bcd60e51b81526020600482015260156024820152746e65737465642e757365722e6e6f7461637469766560581b6044820152606490fd5b80600052600760205261311560ff600160406000200154166130b4565b600052600760205261315560018060a01b03600560406000200154166040519062a0e53360e51b60208301526001602483015260248252610b4382612615565b50565b1561315f57565b60405162461bcd60e51b81526020600482015260136024820152726e65737465642e7a65726f2e6164647265737360681b6044820152606490fd5b156131a157565b60405162461bcd60e51b81526020600482015260146024820152736e65737465642e7461726765742e65786973747360601b6044820152606490fd5b156131e457565b60405162461bcd60e51b815260206004820152601760248201527f6e65737465642e736f757263652e6e6f744578697374730000000000000000006044820152606490fd5b6040519061323682612652565b601382527255736572546f496e737428616464726573732960681b6020830152565b1561325f57565b60405162461bcd60e51b815260206004820152601b60248201527f6e65737465642e757365722e696e76616c6964696e7374616e636500000000006044820152606490fd5b9190826040910312610355576020825192015190565b156132c157565b60405162461bcd60e51b81526020600482015260156024820152743732b9ba32b21734b73b30b634b21739b2b73232b960591b6044820152606490fd5b1561330557565b60405162461bcd60e51b81526020600482015260156024820152741b995cdd19590b9a5b9d985b1a590b9c185c995b9d605a1b6044820152606490fd5b60005b8381106133555750506000910152565b8181015183820152602001613345565b9291608090600a9260a08652602460a08701527f547269676765722e6e65737465642e70726f706f73616c2e6d6f7665646f776e60c0870152636c696e6560e01b60e087015260018060a01b0316602086015260006040860152610100806060870152815180918701526133e381610120936020858a019101613342565b601f8019910116850101930152565b90816020910312610355575190565b6040519061340e82612652565b6012825271676574526573756c742875696e743235362960701b6020830152565b5190811515820361035557565b91908260c0910312610355578151916020810151916040820151916060810151916109e260a061346e6080850161342f565b930161342f565b6134a86134b4916134986111a56001610fa2846000526007602052604060002090565b6000526010602052604060002090565b916001830154146132fe565b6000546134c9906001600160a01b03166104cf565b906040518092630536340960e21b825281600460209586935afa9081156105bb57612b5b9361352a61053260029461353794600091613550575b5061351c87546040519384918783019190602083019252565b613524613401565b90614858565b805181018201910161343c565b50959350505050019060ff801983541691151516179055565b6135679150843d86116105b4576105a581836126a7565b38613503565b1561357457565b60405162461bcd60e51b81526020600482015260166024820152751b995cdd19590b9c995c4b9b9bdd185c1c1c9bdd995960521b6044820152606490fd5b156135b957565b60405162461bcd60e51b815260206004820152601860248201527f6e65737465642e757365722e6e6f742e646574616368656400000000000000006044820152606490fd5b1561360557565b60405162461bcd60e51b815260206004820152601b60248201527f6e65737465642e757365722e616c726564792e646574616368656400000000006044820152606490fd5b805490811561367457600019918201916136648383612fac565b909182549160031b1b1916905555565b634e487b7160e01b600052603160045260246000fd5b6040519061369782612652565b600e82526d6c766c62732875696e743235362960901b6020830152565b604051906136c182612652565b600f82526e6c766c7174792875696e743235362960881b6020830152565b60ff1660ff81146103505760010190565b8015610350576000190190565b6137ac60059161371b83610af3836000526007602052604060002090565b604080519161375a60209380613738868201906000602083019252565b039261374c601f19948581018452836126a7565b61375461368a565b90614981565b9161379661377688610af3886000526007602052604060002090565b82519061378e82610d9a898201906000602083019252565b6137546136b4565b9460029687916000526007602052604060002090565b0154946001978896875b6137c8575b5050505050505050505050565b600f60ff891611158061398e575b156139895788878c868b878b886137fe6104cf82610af38c6000526007602052604060002090565b613830575b50505050505050613821613829926000526007602052604060002090565b0154976136df565b96896137b6565b948894610b43946138ba989461189c9460036138726138616138c89e9c610af38d6000526007602052604060002090565b9a6000526007602052604060002090565b015499549351998a9763393a9f9560e01b908901526024880194919360ff9197969360a09560c088019988526020880152604087015216606085015260808401521515910152565b8880825183010191016132a4565b908c1561393a57908a915b8082116138f3575050613821613829925b925050878c868b878b88613803565b6138fe919250612db9565b613926816139178d546000526008602052604060002090565b90600052602052604060002090565b613930815461284e565b9055908a916138d3565b908a915b818111613953575050613821613829926138e4565b613970816139176139819495546000526008602052604060002090565b61397a8154612b2e565b90556136f0565b908a9161393e565b6137bb565b508015156137d6565b9061010080838303126103555781601f8401121561035557604051926139bc8461268a565b8391810192831161035557905b8282106139d65750505090565b81518152602091820191016139c9565b604051906139f382612652565b600f82526e66726565496e74657276616c73282960881b6020830152565b6000549193929091613a2b906001600160a01b03166104cf565b936004602060409687519283809263cfbffe5360e01b82525afa80156105bb57613a6991600091613c1e575b50613a606126f8565b906137546139e6565b6000956000945b600f86111580613c15575b15613c0b57848489886005613aa16104cf82610af3896000526007602052604060002090565b613ad2575b50505050506002613ac4613acc926000526007602052604060002090565b015495612db9565b94613a70565b81151580613c03575b8015613bfa575b15613aa65791610b43613b8a9492610532613b0e613b7b96610af38b6000526007602052604060002090565b938b8b6003613b278d6000526007602052604060002090565b01549460029b8c549251998a9763645d0aa760e11b60208a01526024890193909796959260e0959261010086019986526020860152604085015260006060850152608084015260a083015260c08201520152565b602080825183010191016132a4565b91908815613bf1575b8a15613be0575b808311613bad5750508489888893613aa6565b613bb690612db9565b613bcf8161391784546000526008602052604060002090565b613bd9815461284e565b9055613b9a565b60048310613b9a5799508199613b9a565b99508199613b93565b50831515613ae2565b506000613adb565b5050505050509050565b50801515613a7b565b613c37915060203d6020116105b4576105a581836126a7565b38613a57565b60008054929392613c56906001600160a01b03166104cf565b9060409182519586809263cfbffe5360e01b8252602098899160049586915afa80156105bb57613c8f918591613e4c5750613a606126f8565b93839484965b600f88111580613e43575b15613e37576005613cc26104cf82610af3856000526007602052604060002090565b613cef575b506002613ce1613ce9926000526007602052604060002090565b015497612db9565b96613c95565b84898c8a8688841596871580613e2e575b8015613e27575b613d18575b50505050505050613cc7565b93610532613dba96948a94610b43946003613d58613d47613dac9b610af38b6000526007602052604060002090565b986000526007602052604060002090565b01549760029b8c549251998a9763645d0aa760e11b90890152602488019260e0949197969592610100850198855260006020860152600060408601526060850152608084015260a083015260c08201520152565b8d80825183010191016132a4565b92613e1e575b8915613e0e575b808311613ddb5750898c8a86888a95613d0c565b613de490612db9565b613dfd8161391784546000526008602052604060002090565b613e07815461284e565b9055613dc7565b878310613dc75798508198613dc7565b98508198613dc0565b508d613d07565b50861515613d00565b50505050505050509050565b50801515613ca0565b613c379150893d8b116105b4576105a581836126a7565b15613e6a57565b60405162461bcd60e51b81526020600482015260126024820152716e65737465642e696e76616c69642e61676560701b6044820152606490fd5b60405190613eb182612652565b601882527f6765744261746368526f79616c7479436c6175736573282900000000000000006020830152565b6102a09081818403126103555782601f82011215610355576040805193613f0385612636565b849383019281841161035557935b838510613f2057505050505090565b606085830312610355578251606091613f3882612615565b8651825260209182880151838201528588015186820152815201940193613f11565b906007811015612fc45760051b0190565b908160640291606483040361035057565b8181029291811591840414171561035057565b8115613f99570490565b634e487b7160e01b600052601260045260246000fd5b613fba811515613e63565b600054613fcf906001600160a01b03166104cf565b90604051809263cfbffe5360e01b825281600460209586935afa9081156105bb5761402591614017916000916140e6575b50614009613ea4565b6140116126e5565b91614858565b838082518301019101613edd565b61403982600052600c602052604060002090565b5460015b600781111561404d575050505050565b806140696140d292613917876000526008602052604060002090565b5480156140e05761408261407c83612b2e565b86613f5a565b518781519283156140d7576140a96140ae926140a16140b4968a613f7c565b940151613f6b565b613f7c565b90613f8f565b6140cc82613917886000526009602052604060002090565b55612db9565b61403d565b50505050612db9565b50612db9565b6140fd9150853d87116105b4576105a581836126a7565b38614000565b604051906141108261268a565b610100368337565b60025480600052600c60205260406000205491820180921161035057600052600c602052604060002055565b60025480600052600d60205260406000205491820180921161035057600052600d602052604060002055565b60025480600052600e60205260406000205491820180921161035057600052600e602052604060002055565b60025480600052600f602052604060002054906001820180921161035057600052600f602052604060002055565b9080600052600c60205260406000205491820180921161035057600052600c602052604060002055565b9080600052600e60205260406000205491820180921161035057600052600e602052604060002055565b9080600052600f60205260406000205491820180921161035057600052600f602052604060002055565b6040519061425582612652565b6014825273676574627573696e6573732875696e743235362960601b6020830152565b6040519061428582612652565b601d82527f67657472616e6b436f756e742875696e743235362c75696e74323536290000006020830152565b600080549091906142ca906001600160a01b03166104cf565b91604092835192839163111ea8c160e21b835282600460209485935afa9384156105bb5783946143cb575b505b8581111561430757505050505050565b8451828101828152819003808252601f19916143389161432a90602001826126a7565b614332614248565b87614981565b61435761434f84600052600c602052604060002090565b91825461285c565b9055835b6008811061437357505061436e90612db9565b6142f7565b8651848101848152602081018390526143c692916143ae916143a0908290604001038681018352826126a7565b6143a8614278565b89614981565b6140cc82613917876000526008602052604060002090565b61435b565b6143e3919450823d84116105b4576105a581836126a7565b92386142f5565b156143f157565b60405162461bcd60e51b815260206004820152601960248201527f6f776e2e7361666567756172642e63616c6c2e6661696c6564000000000000006044820152606490fd5b90816020910312610355576109e29061342f565b600054604051634bf9c0ad60e11b8152906020908190839060049082906001600160a01b03165afa9182156105bb576109e2926144c0916000916144db575b5060405161449681612652565b6008815267697353616665282960c01b84820152604051916144b78361266e565b60008352614883565b9190806144d1575b61055f906143ea565b50815181146144c8565b6144f29150833d85116105b4576105a581836126a7565b38614489565b6040519061450582612652565b601582527469735365637572654261736528616464726573732960581b6020830152565b1561453057565b60405162461bcd60e51b815260206004820152601a60248201527f6f776e2e736563757265626173652e63616c6c2e6661696c65640000000000006044820152606490fd5b6000546001600160a01b0316604051918291634bf9c0ad60e11b835282600460209485935afa9283156105bb576109e2936145e392610532926000926145fe575b506040516001600160a01b0390911685820190815290926145db918491602090910190565b6105486144f8565b9190806145f4575b61055f90614529565b50815181146145eb565b6145db91925061461a90863d88116105b4576105a581836126a7565b91906145b6565b6040519061462e82612652565b601182527069735369676e657228616464726573732960781b6020830152565b1561465557565b60405162461bcd60e51b81526020600482015260166024820152751bdddb8b9cda59db995c8b98d85b1b0b99985a5b195960521b6044820152606490fd5b60005460405163111ea8c160e21b815290602090829060049082906001600160a01b03165afa80156105bb576109e291600091614700575b506040516146d881612652565b6005815264616765282960d81b6020820152604051916146f78361266e565b60008352614981565b614718915060203d81116105b4576105a581836126a7565b386146cb565b6040519061472b82612652565b601882527f697364656c656761746f724e6f646528616464726573732900000000000000006020830152565b3d15614782573d90614768826126c9565b9161477660405193846126a7565b82523d6000602084013e565b606090565b600080546040516311be646b60e21b815290602090829060049082906001600160a01b03165afa9081156105bb57828481938293839161483a575b505af16147cd614757565b50156148035760405190815233907fcdcc745fe377b103b45fa0cec23ae3ef93d6fc6a84a01f0d18c40b354dd1d5d890602090a2565b60405162461bcd60e51b815260206004820152600f60248201526e1bdddb8b989d5c9b8b99985a5b1959608a1b6044820152606490fd5b614852915060203d81116105b4576105a581836126a7565b386147c2565b906148639291614883565b9060009015614870575090565b604051915061487e8261266e565b815290565b803b156148e857600092839263ffffffff60e01b906020815191012016906148d560246040518093602082019586526148c58151809260208686019101613342565b81010360048101845201826126a7565b5191620dbba0fa6148e4614757565b9091565b5050506000906040516148fa8161266e565b6000815290565b929161490f91600094614883565b908061493a575b61491d5750565b90915060208180518101031261035557602001516104cf81610386565b506020815114614916565b929161495391600094614883565b9080614976575b6149615750565b6109e291925060208082518301019101614436565b50602081511461495a565b929161498f91600094614883565b90806149b2575b61499d5750565b6109e2919250602080825183010191016133f2565b506020815114614996565b906020825192015163ffffffff60e01b9081811693600481106149df57505050565b60040360031b82901b16169150565b6001600160a01b03811615614a6f57600080918351908260208601915af190614a15614757565b9115614a1f575090565b805160009190600411614a6957614a3691506149bd565b815115614a465750805190602001fd5b604051630870274d60e21b81526001600160e01b03199091166004820152602490fd5b50614a36565b60405162461bcd60e51b81526020600482015260126024820152711bdddb8b9a5b9d985b1a590b9d185c99d95d60721b6044820152606490fdfea26469706673582212207b146b76f3fb0439001ccbe6cca8564c96771056248736eab881062fe85b3d4564736f6c63430008140033","linkReferences":{}},"methodIdentifiers":{"dAOAssembly()":"14837455","daocore()":"14d8d024","nested741()":"45cff900","old741()":"5540c5ac","price()":"a035b1fe"},"id":34}