{"abi":[{"type":"constructor","inputs":[{"name":"_hex","type":"address","internalType":"address"}],"stateMutability":"nonpayable"},{"type":"function","name":"rule741","inputs":[],"outputs":[{"name":"","type":"address","internalType":"address"}],"stateMutability":"view"},{"type":"function","name":"transferRequest","inputs":[],"outputs":[{"name":"","type":"address","internalType":"address"}],"stateMutability":"view"}],"bytecode":{"object":"0x6080346200012d57601f6200674c38819003918201601f19168301926001600160401b0392909183851183861017620001175781602092849260409788528339810103126200012d57516001600160a01b0390818116908190036200012d578351906143f6918281019281841086851117620001175762002356823981835260208160009403019083f09384156200010d5782549484166001600160a01b031995861617835585519161216a8084019284841090841117620000f957918391602093620001ec8439815203019082f0908115620000ee5750169060015416176001555160b99081620001338239f35b8451903d90823e3d90fd5b634e487b7160e01b85526041600452602485fd5b85513d84823e3d90fd5b634e487b7160e01b600052604160045260246000fd5b600080fdfe6080806040526004361015601257600080fd5b600090813560e01c9081630a5b38ab14605d5750633da8676f14603457600080fd5b34605a5780600319360112605a576001546040516001600160a01b039091168152602090f35b80fd5b905034607f5781600319360112607f5790546001600160a01b03168152602090f35b5080fdfea2646970667358221220c85b083613ee604757aaf64c95f99b7a09b1177fedfe2935f30c067fe043183264736f6c634300081400336080346100ca57601f61216a38819003918201601f19168301916001600160401b038311848410176100cf578084926020946040528339810103126100ca57516001600160a01b038116908190036100ca5780156100855760018060a01b0319338160015416176001556000541617600055600160035560405161208490816100e68239f35b60405162461bcd60e51b815260206004820152601360248201527f6f776e2e696e76616c69642e68657862617365000000000000000000000000006044820152606490fd5b600080fd5b634e487b7160e01b600052604160045260246000fdfe60806040526004361015610018575b361561001657005b005b60003560e01c806312065fe0146101a857806318c864e3146101a35780631f185d161461019e57806324480afe146101995780633294adf0146101945780633676bd1f1461018f5780633b9b79551461018a578063479fa2c31461018557806349fbed12146101805780634ef260a91461017b5780638da5cb5b14610176578063a1f7f53914610171578063ab7e46ae1461016c578063ac23334514610167578063af48452614610162578063b8f1759a1461015d578063b90306ad14610158578063c1e6cec214610153578063c54e44b01461014e578063cab3cc8d14610149578063e01ad5fd14610144578063e0a9bc2b1461013f578063e846034a1461013a578063fdc10bc9146101355763ff585caf0361000e57610daf565b610d8c565b610d6e565b610ccc565b610c2d565b610c0f565b610b73565b610b36565b610a18565b6109d5565b6109a4565b61096b565b610928565b610871565b610848565b610790565b610676565b6105cd565b6105a4565b61056c565b6103d3565b6103b5565b6102a9565b610221565b346101c45760003660031901126101c457602047604051908152f35b600080fd5b60209060031901126101c45760043590565b634e487b7160e01b600052603260045260246000fd5b60055481101561021057600560005260206000209060021b0190600090565b6101db565b6001600160a01b031690565b346101c45761022f366101c9565b6005548110156101c45761024460c0916101f1565b5060ff60018060a01b03808354169282600182015460036002840154930154936040519687528116602087015260a01c161515604085015260608401528181161515608084015260081c16151560a0820152f35b6001600160a01b038116036101c457565b346101c4576020806003193601126101c4576004908135906102ca82610298565b806102de6102d9600054610215565b610215565b604051634bf9c0ad60e11b815294859182905afa9182156103b05761032361035d9361033f9261036f9660009261037d575b5061033190604051938491878301610591565b03601f198101845283610f00565b610339611c3e565b90611e08565b919080610373575b61035090611c6b565b8082518301019101611b0d565b60405190151581529081906020820190565b0390f35b5081518114610347565b6103319192506103a290863d88116103a9575b61039a8183610f00565b810190610f23565b9190610310565b503d610390565b610f3b565b346101c45760003660031901126101c4576020600754604051908152f35b346101c4576020806003193601126101c4576004356103f181610298565b6001600160a01b038116156105325761041361040c33610b1c565b5415610e21565b61042661041e610e78565b509182610eab565b6104616004600183019361043a3386610eab565b600554604051600162a7a35160e01b03198382015260248101919091529283906044820190565b03610474601f1991828101865285610f00565b816104836102d9600054610215565b604051630536340960e21b815294859182905afa9283156103b0576002946104f6946104e9936104d893600092610511575b5060405163d3a3084960e01b878201529391926104e49285913060248401610f6a565b03908101845283610f00565b611f73565b8051810182019101610fd9565b91015561050e6105096005549254610215565b610b1c565b55005b6104e4925061052c90873d89116103a95761039a8183610f00565b916104b5565b60405162461bcd60e51b815260048101839052601260248201527137bbb7173232b330bab63a1739b2b73232b960711b6044820152606490fd5b346101c45761058a61057d366101c9565b610585611946565b61155a565b6001600355005b6001600160a01b03909116815260200190565b346101c45760003660031901126101c4576000546040516001600160a01b039091168152602090f35b346101c4576105db366101c9565b8015158061066a575b6105ed90611026565b600019810190811161066557610602906101f1565b50805460018201546003830154600290930154604080516001600160a01b039485168152938316602085015260ff80861615159185019190915260089490941c84161515606084015260a091821c9093161515608083015281019190915260c090f35b61106c565b506005548111156105e4565b346101c457610684366101c9565b61068c611946565b61069960648211156112e0565b6106aa6106a530611b9b565b61132b565b6106c96007916106c483546106bd611cb0565b10156119ca565b611a20565b9060005b8251811015610702576106fd906106f86106f38454806106ed8589611a52565b52611403565b600755565b611403565b6106cd565b82600460206107156102d9600054610215565b60405163ab6e844f60e01b815292839182905afa80156103b057610761926103239260009261076c575b50604051637aefe0bb60e01b6020820152926104e49184919060248301611a66565b506100166001600355565b6104e49192506107899060203d81116103a95761039a8183610f00565b919061073f565b346101c45760203660031901126101c4576004356107ad81610298565b6001600160a01b03166000818152600460205260408120549091906000198101908111610665576107df6003916101f1565b5001805461ff001916610100179055808252600460205260408220829055600654600160401b811015610843576001810180600655811015610210576006835260008051602061202f8339815191520180546001600160a01b031916909117905580f35b610e62565b346101c45760003660031901126101c4576001546040516001600160a01b039091168152602090f35b346101c45760003660031901126101c45760005460405163d1f956b160e01b815290602090829060049082906001600160a01b03165afa9081156103b05761036f916108fa9160009161090a575b506040516108cc81610eca565b601381527267657464656c656761746f72436f756e74282960681b60208201526108f46110ac565b91611f06565b6040519081529081906020820190565b610922915060203d81116103a95761039a8183610f00565b386108bf565b346101c457610936366101c9565b6006548110156101c457600660005260008051602061202f83398151915201546040516001600160a01b039091168152602090f35b346101c45760203660031901126101c457602061099260043561098d81610298565b611237565b6040516001600160a01b039091168152f35b346101c45760203660031901126101c45760206109cb6004356109c681610298565b611b9b565b6040519015158152f35b346101c4576109e3366101c9565b60065481101561021057600660005260008051602061202f83398151915201546040516001600160a01b039091168152602090f35b346101c457610a26366101c9565b60008054604051630536340960e21b81529192916020916001600160a01b039081168383600481845afa9283156103b0576004938593610a70928992610afd575b50163314610fe8565b6040516311be646b60e21b815292839182905afa9182156103b057848085610aaf95829583958492610ae0575b50505af1610aa9611d6f565b50611d9f565b60405190815233907fcdcc745fe377b103b45fa0cec23ae3ef93d6fc6a84a01f0d18c40b354dd1d5d890602090a280f35b610af69250803d106103a95761039a8183610f00565b3880610a9d565b610b15919250853d87116103a95761039a8183610f00565b9038610a67565b6001600160a01b0316600090815260046020526040902090565b346101c45760203660031901126101c457600435610b5381610298565b60018060a01b031660005260046020526020604060002054604051908152f35b346101c45760203660031901126101c457600435610b9081610298565b803b6000610b9d82611091565b92610bab6040519485610f00565b82845260208401903c602d815110610bd457602a61036f91015160601c60405191829182610591565b60405162461bcd60e51b81526020600482015260136024820152724e6f742061206d696e696d616c2070726f787960681b6044820152606490fd5b346101c45760003660031901126101c4576020600554604051908152f35b346101c4576020806003193601126101c45760048035610c4c81610298565b60005460405163d1f956b160e01b81526001600160a01b03949093909182918591829088165afa9081156103b05761036f9461035d94600093610cad575b506040519316818401528252610c9f82610eca565b610ca7611d3b565b90611eca565b610cc5919350823d84116103a95761039a8183610f00565b9138610c8a565b346101c45760003660031901126101c457600054604051634bf9c0ad60e11b8152906020908190839060049082906001600160a01b03165afa9081156103b057610d3661035d9261036f94600091610d51575b50610d28611aa1565b610d306110ac565b91611e08565b919080610d47575b61035090611ac5565b5081518114610d3e565b610d689150833d85116103a95761039a8183610f00565b38610d1f565b346101c45760003660031901126101c4576020600654604051908152f35b346101c45760003660031901126101c4576020610da7611cb0565b604051908152f35b346101c457610dbd366101c9565b600054604051630536340960e21b81526001600160a01b0392916020908290600490829087165afa80156103b05761001693610e0392600092610e085750163314610fe8565b611133565b610b1591925060203d81116103a95761039a8183610f00565b15610e2857565b60405162461bcd60e51b815260206004820152601260248201527170726f706f7365722e746f2e65786973747360701b6044820152606490fd5b634e487b7160e01b600052604160045260246000fd5b600554600160401b81101561084357600181018060055581101561021057600560005260206000209060021b0190600090565b80546001600160a01b0319166001600160a01b03909216919091179055565b604081019081106001600160401b0382111761084357604052565b602081019081106001600160401b0382111761084357604052565b601f909101601f19168101906001600160401b0382119082101761084357604052565b908160209103126101c45751610f3881610298565b90565b6040513d6000823e3d90fd5b60005b838110610f5a5750506000910152565b8181015183820152602001610f4a565b9291608090600a9260a08652600d60a08701526c2ab9b2b9102a3930b739b332b960991b60c087015260018060a01b031660208601526000604086015260e0606086015280518060e0870152610fca81610100936020858a019101610f47565b601f8019910116850101930152565b908160209103126101c4575190565b15610fef57565b60405162461bcd60e51b815260206004820152600f60248201526e6f776e2e6e6f6e617574682e44414f60881b6044820152606490fd5b1561102d57565b60405162461bcd60e51b81526020600482015260176024820152761c1c9bdc1bdcd95c8b9a5b9d985b1a590b999bdc9b5a59604a1b6044820152606490fd5b634e487b7160e01b600052601160045260246000fd5b60001981019190821161066557565b6001600160401b03811161084357601f01601f191660200190565b604051906110b982610ee5565b60008252565b604051906110cc82610eca565b6012825271676574526573756c742875696e743235362960701b6020830152565b519081151582036101c457565b91908260c09103126101c457815191602081015191604082015191606081015191610f3860a061112c608085016110ed565b93016110ed565b8015611234576111536111589161114e600554821115611026565b611082565b6101f1565b506111676102d9600054610215565b604051918291630536340960e21b835282600460209485935afa9081156103b0576111db611203936111ce61032360039561121598600091611217575b506111c060028701546040519384918783019190602083019252565b6111c86110bf565b90611ddd565b80518101820191016110fa565b60018701805460ff60a01b191692151560a01b60ff60a01b1692909217909155969350505050565b019060ff801983541691151516179055565b565b61122e9150843d86116103a95761039a8183610f00565b386111a4565b50565b61124081610b1c565b5480151590816112d3575b50156112cd5761115361126061126692610b1c565b54611082565b50600181015460a01c60ff1690816112b7575b81611296575b6000911561129257610f38915054610215565b5090565b90506112b16112ad600383015460ff9060081c1690565b1590565b9061127f565b90506112c7600382015460ff1690565b90611279565b50600090565b905060055410153861124b565b156112e757565b60405162461bcd60e51b815260206004820152601c60248201527b1d5d1a5b1a5d1e4b98985d18da0b9b1a5b5a5d0b995e18d95959195960221b6044820152606490fd5b1561133257565b60405162461bcd60e51b81526020600482015260176024820152761d5d1a5b1a5d1e4b9d5b9cd958dd5c994b99985a5b1959604a1b6044820152606490fd5b60405161137d81610ee5565b60008152906000368137565b6040519061139682610eca565b600f82526e6765744e6f646573436f756e74282960881b6020830152565b156113bb57565b60405162461bcd60e51b81526020600482015260136024820152727574696c6974792e696d706f72742e646f6e6560681b6044820152606490fd5b9190820180921161066557565b60001981146106655760010190565b6040519061141f82610eca565b60178252766765744e6f64654279496e6465782875696e743235362960481b6020830152565b1561144c57565b60405162461bcd60e51b815260206004820152601660248201527570726f78792e696e76616c69642e696e7374616e636560501b6044820152606490fd5b6040519061149782610eca565b6013825272496e7374546f5573657228616464726573732960681b6020830152565b156114c057565b60405162461bcd60e51b815260206004820152601260248201527170726f78792e696e76616c69642e6e6f646560701b6044820152606490fd5b6040519061150782610eca565b601082526f6765744e6f646528616464726573732960801b6020830152565b908160a09103126101c457805191602082015161154281610298565b91604081015191610f38608061112c606085016110ed565b61156760648211156112e0565b6115736106a530611b9b565b6000906115836102d98354610215565b6040805163111ea8c160e21b808252600495939092916020919082818981855afa80156103b0576115cd91879161192f575b506115be611371565b906115c7611389565b90611f06565b95861561192557835183818a8163ab6e844f60e01b968782525afa9081156103b0576116189161160691899161190857506115be611371565b91611612838a116113b4565b826113f6565b96808811611900575b505b868110611634575050505050505050565b6116416102d98754610215565b90845186815284818b81865afa9283156103b0578a9189946118e1575b50611698875180611676868a83019190602083019252565b039561168a601f1997888101845283610f00565b611692611412565b90611e86565b6001600160a01b03906116ae8183161515611445565b87895180958c825281865afa9384156103b057818a8f968b8f946116fa95926118bc575b506116e66116f29293519485928301610591565b038a8101845283610f00565b61169261148a565b9261170883851615156114b9565b888a5180968d825281845afa80156103b05761176a8f966117488f6001948f91978f989461175c959261189b575b506117549192519384918a8301610591565b038d8101845283610f00565b6111c86114fa565b848082518301019101611526565b505050949094169361177d8115156114b9565b148015611892575b611827575b50506117968280611969565b866117a46102d98c54610215565b8951948580928a82525afa80156103b057611801956117fb948c92611806575b5089516350db85d160e01b8a8201526001600160a01b039384166024820152939092166044840152906104e49083606481016104d8565b50611403565b611623565b6104e49250611821908a3d8c116103a95761039a8183610f00565b916117c4565b8951948580928d82525afa9283156103b0578c936118689261185c928d9261186f575b506116f2908b519384918c8301610591565b03888101845283610f00565b863861178a565b6116f291925061188b908b3d8d116103a95761039a8183610f00565b919061184a565b50821515611785565b61175492506118b6908a3d8c116103a95761039a8183610f00565b91611736565b6116f292506118da6116e691833d85116103a95761039a8183610f00565b92506116d2565b6118f9919450863d88116103a95761039a8183610f00565b923861165e565b965038611621565b61191f9150863d88116103a95761039a8183610f00565b386115b5565b5050505050505050565b61191f9150843d86116103a95761039a8183610f00565b600260035414611957576002600355565b604051633ee5aeb560e01b8152600490fd5b60055490600160401b8210156108435761198e61041e836001600395016005556101f1565b6001810161199c8482610eab565b805460ff60a01b1916600160a01b17905501805461ffff19166001179055600554906119c790610b1c565b55565b156119d157565b60405162461bcd60e51b815260206004820152601060248201526f7574696c6974792e6167652e646f6e6560801b6044820152606490fd5b6001600160401b0381116108435760051b60200190565b90611a2a82611a09565b611a376040519182610f00565b8281528092611a48601f1991611a09565b0190602036910137565b80518210156102105760209160051b010190565b6020908160408183019282815285518094520193019160005b828110611a8d575050505090565b835185529381019392810192600101611a7f565b60405190611aae82610eca565b6008825267697353616665282960c01b6020830152565b15611acc57565b60405162461bcd60e51b81526020600482015260196024820152781bdddb8b9cd8599959dd585c990b98d85b1b0b99985a5b1959603a1b6044820152606490fd5b908160209103126101c457610f38906110ed565b60405190611b2e82610eca565b601582527469735365637572654261736528616464726573732960581b6020830152565b15611b5957565b60405162461bcd60e51b815260206004820152601a6024820152791bdddb8b9cd958dd5c9958985cd94b98d85b1b0b99985a5b195960321b6044820152606490fd5b600054611bb0906001600160a01b0316610215565b604051918291634bf9c0ad60e11b835282600460209485935afa9283156103b057610f3893611c009261032392600092611c1b575b50611bf890604051938491878301610591565b610339611b21565b919080611c11575b61035090611b52565b5081518114611c08565b611bf8919250611c3790863d88116103a95761039a8183610f00565b9190611be5565b60405190611c4b82610eca565b601182527069735369676e657228616464726573732960781b6020830152565b15611c7257565b60405162461bcd60e51b81526020600482015260166024820152751bdddb8b9cda59db995c8b98d85b1b0b99985a5b195960521b6044820152606490fd5b60005460405163111ea8c160e21b815290602090829060049082906001600160a01b03165afa80156103b057610f3891600091611d1d575b50604051611cf581610eca565b6005815264616765282960d81b602082015260405191611d1483610ee5565b60008352611f06565b611d35915060203d81116103a95761039a8183610f00565b38611ce8565b60405190611d4882610eca565b6018825277697364656c656761746f724e6f646528616464726573732960401b6020830152565b3d15611d9a573d90611d8082611091565b91611d8e6040519384610f00565b82523d6000602084013e565b606090565b15611da657565b60405162461bcd60e51b815260206004820152600f60248201526e1bdddb8b989d5c9b8b99985a5b1959608a1b6044820152606490fd5b90611de89291611e08565b9060009015611df5575090565b6040519150611e0382610ee5565b815290565b803b15611e6d57600092839263ffffffff60e01b90602081519101201690611e5a6024604051809360208201958652611e4a8151809260208686019101610f47565b8101036004810184520182610f00565b5191620dbba0fa611e69611d6f565b9091565b505050600090604051611e7f81610ee5565b6000815290565b9291611e9491600094611e08565b9080611ebf575b611ea25750565b9091506020818051810103126101c4576020015161021581610298565b506020815114611e9b565b9291611ed891600094611e08565b9080611efb575b611ee65750565b610f3891925060208082518301019101611b0d565b506020815114611edf565b9291611f1491600094611e08565b9080611f37575b611f225750565b610f3891925060208082518301019101610fd9565b506020815114611f1b565b906020825192015163ffffffff60e01b908181169360048110611f6457505050565b60040360031b82901b16169150565b6001600160a01b03811615611ff457600080918351908260208601915af190611f9a611d6f565b9115611fa4575090565b805160009190600411611fee57611fbb9150611f42565b815115611fcb5750805190602001fd5b604051630870274d60e21b81526001600160e01b03199091166004820152602490fd5b50611fbb565b60405162461bcd60e51b81526020600482015260126024820152711bdddb8b9a5b9d985b1a590b9d185c99d95d60721b6044820152606490fdfef652222313e28459528d920b65115c16c04f3efc82aaedc97be59f3f377c0d3fa2646970667358221220ccd0de30bb0e54aeab98d76f12406b2eb9d6790cdedf367d56412b6b03209c8b64736f6c634300081400336080346200169257601f620043f638819003918201601f19168301916001600160401b0383118484101762001697578084926020946040528339810103126200169257516001600160a01b03811690819003620016925780156200164d5760018060a01b0319338160015416176001556000541617600055601e602555600460265560016027556001602855600260295561c350602a55610258602b556003602c556019602d5568878678326eac900000602e55670de0b6b3a764000060305569021e19e0c9bab2400000603155600160325561014060335560a0603455600560355560ff196036541660365561025860c0620000fb6200172d565b6002815260646020820152600160408201526023606082015260646080820152600160a082015201526002600755606460085560016009556023600a556064600b556001600c55610258600d5562000152620016ad565b6002815261025860c06103f29283602082015260016040820152600b6060820152600a6080820152600160a082015201526002600e5580600f556001601055600b601155600a601255600160135561025860145561025860c0620001b5620016ad565b60028152836020820152600160408201526044606082015260646080820152600160a0820152015260026015556016556001601755604460185560646019556001601a55610258601b55607860406200020d62001762565b60198152600a602082015201526019601c55600a601d556078601e5560406200023562001762565b600a8152600160208201526101689182910152600a601f556001602055602155600160a0620002636200172d565b60048152826020820152826040820152826060820152826080820152600060c08201520152600460225564010101010165ffffffffffff196023541617602355620002d9620002b1620016cd565b680821ab0d44149800008152601e60208201526001600052602f60205260406000206200179c565b6200030f620002e7620016cd565b681043561a88293000008152601e60208201526002600052602f60205260406000206200179c565b620003456200031d620016cd565b682086ac3510526000008152601e60208201526003600052602f60205260406000206200179c565b6200037b62000353620016cd565b6830ca024f987b9000008152601e60208201526004600052602f60205260406000206200179c565b620003b162000389620016cd565b685150ae84a8cdf000008152601e60208201526005600052602f60205260406000206200179c565b620003e7620003bf620016cd565b6871d75ab9b9205000008152601e60208201526006600052602f60205260406000206200179c565b6200041d620003f5620016cd565b68a2a15d09519be000008152601e60208201526007600052602f60205260406000206200179c565b6200044b6200042b620016cd565b60078152601960208201526001600052600460205260406000206200179c565b6200047962000459620016cd565b60078152606460208201526002600052600460205260406000206200179c565b620004a862000487620016cd565b600781526101f460208201526003600052600460205260406000206200179c565b620004d7620004b6620016cd565b600781526107d060208201526004600052600460205260406000206200179c565b62000506620004e5620016cd565b6007815261138860208201526005600052600460205260406000206200179c565b6200053562000514620016cd565b6007815261271060208201526006600052600460205260406000206200179c565b6200056462000543620016cd565b600781526161a860208201526007600052600460205260406000206200179c565b6200056e620016ed565b60008082526006602080840182815260016040860181815260056060880190815260808801838152929096529390925293517f3e5fec24aa4dc4e5aee2e025e51e1392c72a2500577559fae9665c6d52bd6a315592517f3e5fec24aa4dc4e5aee2e025e51e1392c72a2500577559fae9665c6d52bd6a3255517f3e5fec24aa4dc4e5aee2e025e51e1392c72a2500577559fae9665c6d52bd6a3355517f3e5fec24aa4dc4e5aee2e025e51e1392c72a2500577559fae9665c6d52bd6a3455517f3e5fec24aa4dc4e5aee2e025e51e1392c72a2500577559fae9665c6d52bd6a355562000659620016ed565b60018082526003602080840191825260408401838152600560608601908152608086019485526002600052600690925293517f8819ef417987f8ae7a81f42cdfb18815282fe989326fbff903d13cf0e03ace295590517f8819ef417987f8ae7a81f42cdfb18815282fe989326fbff903d13cf0e03ace2a5591517f8819ef417987f8ae7a81f42cdfb18815282fe989326fbff903d13cf0e03ace2b5590517f8819ef417987f8ae7a81f42cdfb18815282fe989326fbff903d13cf0e03ace2c55517f8819ef417987f8ae7a81f42cdfb18815282fe989326fbff903d13cf0e03ace2d5562000746620016ed565b60028152600f6020808301918252600a604084019081526005606085019081526001608086019081526003600052600690935293517f75f96ab15d697e93042dc45b5c896c4b27e89bb6eaf39475c5c371cb2513f7d25591517f75f96ab15d697e93042dc45b5c896c4b27e89bb6eaf39475c5c371cb2513f7d35590517f75f96ab15d697e93042dc45b5c896c4b27e89bb6eaf39475c5c371cb2513f7d45590517f75f96ab15d697e93042dc45b5c896c4b27e89bb6eaf39475c5c371cb2513f7d555517f75f96ab15d697e93042dc45b5c896c4b27e89bb6eaf39475c5c371cb2513f7d65562000836620016ed565b60028152600f6020808301918252600a604084019081526005606085019081526001608086019081526004600052600690935293517fc5069e24aaadb2addc3e52e868fcf3f4f8acf5a87e24300992fd4540c2a87eed5591517fc5069e24aaadb2addc3e52e868fcf3f4f8acf5a87e24300992fd4540c2a87eee5590517fc5069e24aaadb2addc3e52e868fcf3f4f8acf5a87e24300992fd4540c2a87eef5590517fc5069e24aaadb2addc3e52e868fcf3f4f8acf5a87e24300992fd4540c2a87ef055517fc5069e24aaadb2addc3e52e868fcf3f4f8acf5a87e24300992fd4540c2a87ef15562000926620016ed565b60028152600f6020808301918252600a60408401908152600560608501818152600160808701908152600092909252600690935293517fbfd358e93f18da3ed276c3afdbdba00b8f0b6008a03476a6a86bd6320ee6938b5591517fbfd358e93f18da3ed276c3afdbdba00b8f0b6008a03476a6a86bd6320ee6938c5590517fbfd358e93f18da3ed276c3afdbdba00b8f0b6008a03476a6a86bd6320ee6938d55517fbfd358e93f18da3ed276c3afdbdba00b8f0b6008a03476a6a86bd6320ee6938e55517fbfd358e93f18da3ed276c3afdbdba00b8f0b6008a03476a6a86bd6320ee6938f5562000a16620016ed565b60028152604b602080830191825260646040840181815260fa60608601908152608086019283526006600081905290935293517f697b2bd7bb2984c4e0dc14c79c987d37818484a62958b9c45a0e8b962f20650f5591517f697b2bd7bb2984c4e0dc14c79c987d37818484a62958b9c45a0e8b962f2065105591517f697b2bd7bb2984c4e0dc14c79c987d37818484a62958b9c45a0e8b962f2065115590517f697b2bd7bb2984c4e0dc14c79c987d37818484a62958b9c45a0e8b962f20651255517f697b2bd7bb2984c4e0dc14c79c987d37818484a62958b9c45a0e8b962f2065135562000b04620016ed565b60028152604b602080830191825260646040840181815260fa60608601908152608086019283526007600052600690935293517f4ced6d0d36392b04cc5d8761b1327b3bbba6e1089c77f60a9a9ca18e05e4f00e5591517f4ced6d0d36392b04cc5d8761b1327b3bbba6e1089c77f60a9a9ca18e05e4f00f5591517f4ced6d0d36392b04cc5d8761b1327b3bbba6e1089c77f60a9a9ca18e05e4f0105590517f4ced6d0d36392b04cc5d8761b1327b3bbba6e1089c77f60a9a9ca18e05e4f01155517f4ced6d0d36392b04cc5d8761b1327b3bbba6e1089c77f60a9a9ca18e05e4f0125562000bf2620016ed565b60028152604b602080830191825260646040840181815260fa60608601908152608086019283526008600052600690935293517fb8d683c9d414f481826f3e7fe14b3ac6ae8c73450778287390c4bb8cb9f2e80b5591517fb8d683c9d414f481826f3e7fe14b3ac6ae8c73450778287390c4bb8cb9f2e80c5591517fb8d683c9d414f481826f3e7fe14b3ac6ae8c73450778287390c4bb8cb9f2e80d5590517fb8d683c9d414f481826f3e7fe14b3ac6ae8c73450778287390c4bb8cb9f2e80e55517fb8d683c9d414f481826f3e7fe14b3ac6ae8c73450778287390c4bb8cb9f2e80f5562000ce0620016ed565b60028152604b602080830191825260646040840181815260fa60608601908152608086019283526009600052600690935293517fca4d0c6c94a9477136dd41a99cc19ecbe441c8f6609efe7c6fa65be007a473235591517fca4d0c6c94a9477136dd41a99cc19ecbe441c8f6609efe7c6fa65be007a473245591517fca4d0c6c94a9477136dd41a99cc19ecbe441c8f6609efe7c6fa65be007a473255590517fca4d0c6c94a9477136dd41a99cc19ecbe441c8f6609efe7c6fa65be007a4732655517fca4d0c6c94a9477136dd41a99cc19ecbe441c8f6609efe7c6fa65be007a473275562000dce620016ed565b60028152604b602080830191825260646040840181815260fa6060860190815260808601928352600a600052600690935293517f4da38fc8e544afc56a4c2a17752b8ddb67d8e23ac4583c9029d2e2d1dbe6c9885591517f4da38fc8e544afc56a4c2a17752b8ddb67d8e23ac4583c9029d2e2d1dbe6c9895591517f4da38fc8e544afc56a4c2a17752b8ddb67d8e23ac4583c9029d2e2d1dbe6c98a5590517f4da38fc8e544afc56a4c2a17752b8ddb67d8e23ac4583c9029d2e2d1dbe6c98b55517f4da38fc8e544afc56a4c2a17752b8ddb67d8e23ac4583c9029d2e2d1dbe6c98c5562000ebc620016ed565b60028152604b602080830191825260646040840181815260fa6060860190815260808601928352600b600052600690935293517f85291c2e7881182c13e19eca9b58927ebfdc2c5d04882018eeb33d8241d357115591517f85291c2e7881182c13e19eca9b58927ebfdc2c5d04882018eeb33d8241d357125591517f85291c2e7881182c13e19eca9b58927ebfdc2c5d04882018eeb33d8241d357135590517f85291c2e7881182c13e19eca9b58927ebfdc2c5d04882018eeb33d8241d3571455517f85291c2e7881182c13e19eca9b58927ebfdc2c5d04882018eeb33d8241d357155562000faa620016ed565b60028152604b602080830191825260646040840181815260fa6060860190815260808601928352600c600052600690935293517f0b94fa1b86997cc1f1148bfbe25b674e8cefc7cc6f976aa8d7c7966bd4cca3475591517f0b94fa1b86997cc1f1148bfbe25b674e8cefc7cc6f976aa8d7c7966bd4cca3485591517f0b94fa1b86997cc1f1148bfbe25b674e8cefc7cc6f976aa8d7c7966bd4cca3495590517f0b94fa1b86997cc1f1148bfbe25b674e8cefc7cc6f976aa8d7c7966bd4cca34a55517f0b94fa1b86997cc1f1148bfbe25b674e8cefc7cc6f976aa8d7c7966bd4cca34b5562001098620016ed565b60028152604b602080830191825260646040840181815260fa6060860190815260808601928352600d600052600690935293517f248457bacb20e239ae314d8db91c0f270e453c28ee138c84f97aea6cfcf9a4995591517f248457bacb20e239ae314d8db91c0f270e453c28ee138c84f97aea6cfcf9a49a5591517f248457bacb20e239ae314d8db91c0f270e453c28ee138c84f97aea6cfcf9a49b5590517f248457bacb20e239ae314d8db91c0f270e453c28ee138c84f97aea6cfcf9a49c55517f248457bacb20e239ae314d8db91c0f270e453c28ee138c84f97aea6cfcf9a49d5562001186620016ed565b60028152604b602080830191825260646040840181815260fa6060860190815260808601928352600e600052600690935293517faca6cdb4b5fe0ec50731a73f714dd191dc1911bfeb3f9eeb9e94ed0f6065ef8d5591517faca6cdb4b5fe0ec50731a73f714dd191dc1911bfeb3f9eeb9e94ed0f6065ef8e5591517faca6cdb4b5fe0ec50731a73f714dd191dc1911bfeb3f9eeb9e94ed0f6065ef8f5590517faca6cdb4b5fe0ec50731a73f714dd191dc1911bfeb3f9eeb9e94ed0f6065ef9055517faca6cdb4b5fe0ec50731a73f714dd191dc1911bfeb3f9eeb9e94ed0f6065ef915562001274620016ed565b60028152604b602080830191825260646040840181815260fa6060860190815260808601928352600f600052600690935293517ff130046d53bc87538ab17e4752ba5f5082985eecc06ccb932c5a55e8242dd5025591517ff130046d53bc87538ab17e4752ba5f5082985eecc06ccb932c5a55e8242dd5035591517ff130046d53bc87538ab17e4752ba5f5082985eecc06ccb932c5a55e8242dd5045590517ff130046d53bc87538ab17e4752ba5f5082985eecc06ccb932c5a55e8242dd50555517ff130046d53bc87538ab17e4752ba5f5082985eecc06ccb932c5a55e8242dd506556200138d620013666200170d565b60128152600a6020820152602d604082015260036000526005602052604060002062001781565b620013c26200139b6200170d565b60128152600a6020820152605a604082015260056000526005602052604060002062001781565b620013f8620013d06200170d565b60098152600a602082015261270f604082015260076000526005602052604060002062001781565b60036020526802b5e3af16b18800007fc3a24b0501bd2c13a7e57f2db4369ec4c223447539fc0724a9d55ac4a06ebd4d556004600052683635c9adc5dea000007f83ec6a1f0257b830b5e016457c9cf1435391bf56cc98f369a58a54fe9377246555600160358190556036805460ff1916909117905566038d7ea4c68000603055600a602d55620014ac6200148c620016cd565b60028152601960208201526001600052600460205260406000206200179c565b620014da620014ba620016cd565b60028152606460208201526002600052600460205260406000206200179c565b62001509620014e8620016cd565b600281526101f460208201526003600052600460205260406000206200179c565b6200153862001517620016cd565b600281526107d060208201526004600052600460205260406000206200179c565b6200156762001546620016cd565b6002815261138860208201526005600052600460205260406000206200179c565b6200159662001575620016cd565b6002815261271060208201526006600052600460205260406000206200179c565b620015c5620015a4620016cd565b600281526161a860208201526007600052600460205260406000206200179c565b620015fa620015d36200170d565b60128152600a6020820152602d604082015260026000526005602052604060002062001781565b6200162f620016086200170d565b60128152600a6020820152605a604082015260046000526005602052604060002062001781565b6200163d620013d06200170d565b604051612c489081620017ae8239f35b60405162461bcd60e51b815260206004820152601360248201527f6f776e2e696e76616c69642e68657862617365000000000000000000000000006044820152606490fd5b600080fd5b634e487b7160e01b600052604160045260246000fd5b6040519060e082016001600160401b038111838210176200169757604052565b60408051919082016001600160401b038111838210176200169757604052565b6040519060a082016001600160401b038111838210176200169757604052565b60405190606082016001600160401b038111838210176200169757604052565b62001737620016ad565b9060008083528060208401528060408401528060608401528060808401528060a084015260c0830152565b6200176c6200170d565b90600082526000602083015260006040830152565b90604060029180518455602081015160018501550151910155565b90602060019180518455015191015556fe60806040526004361015610018575b361561001657005b005b60003560e01c80630609a0e31461042857806307175c831461042357806309307c621461041e5780630b225f1a146104195780630ea0d2221461041457806311df44db1461040f57806312065fe01461040a57806314be92a51461040557806315a544ed146104005780631605aed9146103fb57806316f0115b146103f6578063192b48ee146103f15780631f185d16146103ec57806326c5adae146103e7578063298fc460146103e25780632e1fd49d146103dd5780633688236d146103d85780633b9b7955146103d35780634151331d146103ce578063438fe192146103c957806343c06bc4146103c457806344ec16bc146103bf5780634b62954f146103ba5780634dd4396c146103b557806353423e86146103b0578063541d7667146103ab57806354541683146103a65780635640dbfc146103a1578063592a02a81461039c5780635962205f146103975780635a0e9038146103925780636b81c82f1461038d5780636c7deb5d146103885780636f092c5e146103835780637687e3711461037e57806378ef376f146103795780637bc908c61461037457806388ed3bb51461036f5780638da5cb5b1461036a57806391fc8aa8146103655780639319d0b514610360578063991bf5cc1461035b5780639ce7ce0f146103565780639eb8b44e14610351578063a1f7f5391461034c578063a88fcea614610347578063a9df70b914610342578063aebcd32a1461033d578063af0b21d314610338578063af48452614610333578063b49c064c1461032e578063b5939a3714610329578063b85f1f8d14610324578063b90306ad1461031f578063c54e44b01461031a578063c5a136d414610315578063e01ad5fd14610310578063e0a9bc2b1461030b578063e2a1f69a14610306578063e7ed24f114610301578063eddd0d9c146102fc578063f2a6bbc7146102f7578063f4fe8e3c146102f2578063fc0e74d1146102ed5763fdc10bc90361000e576120c2565b61209f565b611ff5565b611f4e565b611ea7565b611e00565b611dc8565b611dad565b611d0e565b611c20565b611b84565b611ad1565b611aa7565b611a89565b611a66565b611a35565b611a17565b6119d2565b611925565b611907565b611860565b61169d565b61159b565b6114a3565b6113fc565b6113de565b6113b5565b611397565b611379565b6112d2565b61120e565b6111e2565b61113b565b611061565b611019565b610fc1565b610f0b565b610e9e565b610e80565b610e0f565b610df1565b610dac565b610cff565b610c58565b610bab565b610b8d565b610b51565b610b12565b610ae1565b610ac3565b6109ff565b61093b565b61084e565b610796565b61075e565b610740565b610722565b61067b565b61065f565b610623565b6105d7565b6105b9565b61050c565b6104ee565b346104e95760203660031901126104e9576104496104446122bd565b61273a565b610452336123e5565b801561046d575b6104629061277b565b610016600435602555565b50600054604051630536340960e21b8152906001600160a01b03906020908390600490829085165afa9081156104e457610462926000926104b4575b501633149050610459565b6104d691925060203d81116104dd575b6104ce81836121dc565b8101906121ff565b90386104a9565b503d6104c4565b612217565b600080fd5b346104e95760003660031901126104e9576020602d54604051908152f35b346104e95760403660031901126104e9576105286104446122bd565b610531336123e5565b8015610552575b6105419061277b565b610016602435600435603055603155565b50600054604051630536340960e21b8152906001600160a01b03906020908390600490829085165afa9081156104e45761054192600092610599575b501633149050610538565b6105b291925060203d81116104dd576104ce81836121dc565b903861058e565b346104e95760003660031901126104e9576020603554604051908152f35b346104e95760003660031901126104e9576020602b54604051908152f35b93909796959260c0959260e08601998652602086015260408501526060840152608083015260a08201520152565b346104e95760003660031901126104e957600e54600f549061065b6010546011546012546013549160145493604051978897886105f5565b0390f35b346104e95760003660031901126104e957602047604051908152f35b346104e95760203660031901126104e9576106976104446122bd565b6106a0336123e5565b80156106bb575b6106b09061277b565b610016600435602b55565b50600054604051630536340960e21b8152906001600160a01b03906020908390600490829085165afa9081156104e4576106b092600092610702575b5016331490506106a7565b61071b91925060203d81116104dd576104ce81836121dc565b90386106f7565b346104e95760003660031901126104e9576020603154604051908152f35b346104e95760003660031901126104e9576020603054604051908152f35b346104e95760003660031901126104e9576007546008549061065b600954600a54600b54600c5491600d5493604051978897886105f5565b346104e95760203660031901126104e9576107b26104446122bd565b6107bb336123e5565b80156107d6575b6107cb9061277b565b61001660043561280b565b50600054604051630536340960e21b8152906001600160a01b03906020908390600490829085165afa9081156104e4576107cb9260009261081d575b5016331490506107c2565b61083691925060203d81116104dd576104ce81836121dc565b9038610812565b6001600160a01b038116036104e957565b346104e9576020806003193601126104e95760049081359061086f8261083d565b60005481906001600160a01b0316604051634bf9c0ad60e11b815294859182905afa9182156104e4576108c26108fc936108de9261065b96600092610918575b506108d090604051938491878301610aff565b03601f1981018452836121dc565b6108d861247f565b90612626565b91908061090e575b6108ef906124ac565b80825183010191016122a8565b60405190151581529081906020820190565b50815181146108e6565b6108d091925061093490863d88116104dd576104ce81836121dc565b91906108af565b346104e95760203660031901126104e9576000546040516369e8d84b60e11b815290602090829060049082906001600160a01b03165afa80156104e4576109a36109c79161065b936000916109d7575b50610994612bac565b9061099d612bc4565b906126fc565b6109c2600435916109bd6109b8602d546127c5565b6127c5565b612bf2565b6127f8565b6040519081529081906020820190565b6109ef915060203d81116104dd576104ce81836121dc565b3861098b565b801515036104e957565b346104e95760203660031901126104e957600435610a1c816109f5565b610a276104446122bd565b610a30336123e5565b8015610a56575b90610a446100169261277b565b60ff8019603654169115151617603655565b50600054604051630536340960e21b81526001600160a01b0392916020908290600490829087165afa80156104e45761001693610a4492600092610aa3575b503391161491925050610a37565b610abc91925060203d81116104dd576104ce81836121dc565b9038610a95565b346104e95760003660031901126104e9576020602654604051908152f35b346104e95760003660031901126104e9576020602a54604051908152f35b6001600160a01b03909116815260200190565b346104e95760003660031901126104e9576000546040516001600160a01b039091168152602090f35b6040919493926060820195825260208201520152565b346104e95760203660031901126104e95760043560005260056020526040600020805461065b6002600184015493015460405193849384610b3b565b346104e95760003660031901126104e9576020602854604051908152f35b346104e95760603660031901126104e957610bc76104446122bd565b610bd0336123e5565b8015610bf1575b610be09061277b565b610016604435602435600435612913565b50600054604051630536340960e21b8152906001600160a01b03906020908390600490829085165afa9081156104e457610be092600092610c38575b501633149050610bd7565b610c5191925060203d81116104dd576104ce81836121dc565b9038610c2d565b346104e95760203660031901126104e957610c746104446122bd565b610c7d336123e5565b8015610c98575b610c8d9061277b565b610016600435602755565b50600054604051630536340960e21b8152906001600160a01b03906020908390600490829085165afa9081156104e457610c8d92600092610cdf575b501633149050610c84565b610cf891925060203d81116104dd576104ce81836121dc565b9038610cd4565b346104e95760403660031901126104e957610d1b6104446122bd565b610d24336123e5565b8015610d45575b610d349061277b565b610016602435600435602955602a55565b50600054604051630536340960e21b8152906001600160a01b03906020908390600490829085165afa9081156104e457610d3492600092610d8c575b501633149050610d2b565b610da591925060203d81116104dd576104ce81836121dc565b9038610d81565b346104e95760203660031901126104e957600435600052602f6020526040600020600181549101549061065b6040519283928360209093929193604081019481520152565b346104e95760003660031901126104e9576020602c54604051908152f35b346104e95760203660031901126104e9576000546040516369e8d84b60e11b815290602090829060049082906001600160a01b03165afa80156104e457610e676109c79161065b936000916109d75750610994612bac565b60043560005260036020526109bd6040600020546127c5565b346104e95760003660031901126104e9576020602754604051908152f35b346104e95760003660031901126104e95760e060225460235460405191825260ff9081811615156020840152818160081c1615156040840152818160101c1615156060840152818160181c1615156080840152818160201c16151560a084015260281c16151560c0820152f35b346104e95760c03660031901126104e957610f276104446122bd565b610f30336123e5565b8015610f5a575b610f409061277b565b61001660a435608435606435604435602435600435612819565b50600054604051630536340960e21b8152906001600160a01b03906020908390600490829085165afa9081156104e457610f4092600092610fa1575b501633149050610f37565b610fba91925060203d81116104dd576104ce81836121dc565b9038610f96565b346104e95760203660031901126104e957600435600052600660205260a06040600020805490600181015490600281015460046003830154920154926040519485526020850152604084015260608301526080820152f35b346104e95760003660031901126104e957601c54601d549061065b601e5460405193849384610b3b565b60809060031901126104e95760043590602435906044359060643590565b346104e95761106f36611043565b9261107e6104449392936122bd565b611087336123e5565b80156110cf575b9061109a60029261277b565b6110a2612a74565b50600181146110be575b146110b357005b601f55602055602155005b82601c5583601d5584601e556110ac565b50600054604051630536340960e21b81526001600160a01b0392916020908290600490829087165afa80156104e45760029361109a9260009261111b575b50339116149192505061108e565b61113491925060203d81116104dd576104ce81836121dc565b903861110d565b346104e95760203660031901126104e9576111576104446122bd565b611160336123e5565b801561117b575b6111709061277b565b610016600435602c55565b50600054604051630536340960e21b8152906001600160a01b03906020908390600490829085165afa9081156104e457611170926000926111c2575b501633149050611167565b6111db91925060203d81116104dd576104ce81836121dc565b90386111b7565b346104e95760203660031901126104e95760043560005260036020526020604060002054604051908152f35b346104e95760203660031901126104e95760043561122b816109f5565b6112366104446122bd565b61123f336123e5565b8015611265575b906112536100169261277b565b60ff8019602454169115151617602455565b50600054604051630536340960e21b81526001600160a01b0392916020908290600490829087165afa80156104e45761001693611253926000926112b2575b503391161491925050611246565b6112cb91925060203d81116104dd576104ce81836121dc565b90386112a4565b346104e95760203660031901126104e9576112ee6104446122bd565b6112f7336123e5565b8015611312575b6113079061277b565b610016600435603255565b50600054604051630536340960e21b8152906001600160a01b03906020908390600490829085165afa9081156104e45761130792600092611359575b5016331490506112fe565b61137291925060203d81116104dd576104ce81836121dc565b903861134e565b346104e95760003660031901126104e9576020603254604051908152f35b346104e95760003660031901126104e9576020603354604051908152f35b346104e95760003660031901126104e9576001546040516001600160a01b039091168152602090f35b346104e95760003660031901126104e9576020602e54604051908152f35b346104e95760203660031901126104e9576114186104446122bd565b611421336123e5565b801561143c575b6114319061277b565b610016600435602855565b50600054604051630536340960e21b8152906001600160a01b03906020908390600490829085165afa9081156104e45761143192600092611483575b501633149050611428565b61149c91925060203d81116104dd576104ce81836121dc565b9038611478565b346104e95760e03660031901126104e9576024356114c0816109f5565b6044356114cc816109f5565b6064356114d8816109f5565b6084356114e4816109f5565b60a435916114f1836109f5565b60c435936114fe856109f5565b6115096104446122bd565b611512336123e5565b801561152e575b956115266100169761277b565b600435612961565b50600054604051630536340960e21b81526001600160a01b039791602090829060049082908c165afa80156104e457610016986115269260009261157b575b503391161491975050611519565b61159491925060203d81116104dd576104ce81836121dc565b903861156d565b346104e9576101003660031901126104e9576115b86104446122bd565b6115c1336123e5565b80156115f1575b6115d19061277b565b61001660e43560c43560a435608435606435604435602435600435612abb565b50600054604051630536340960e21b8152906001600160a01b03906020908390600490829085165afa9081156104e4576115d192600092611638575b5016331490506115c8565b61165191925060203d81116104dd576104ce81836121dc565b903861162d565b6102a0810192916000915b6007831061167057505050565b60019060608351918251815260209283810151848301526040809101519082015201920192019190611663565b346104e95760003660031901126104e9576040516116ba8161216b565b60005b60e0811061184b5761065b6116d0612223565b600160005260056020526117087f1471eb6eb2c5e789fc3de43f8ce62938c7d1836ec861730447e2ada8fd81017b612a93565b612a93565b81526002600052600560205261173d7f89832631fb3c3307a103ba2c84ab569c64d6182a18893dcd163f0f1c2090733a612a93565b602082015261175a61170360036000526005602052604060002090565b6040820152600460005260056020526117927f3eec716f11ba9e820c81ca75eb978ffb45831ef8b7a53e5e422c26008e1ca6d5612a93565b6060820152600560008190526020526117ca7f458b30c2d72bfd2c6317304a4594ecbafe5f729d3111b65fdc3a33bd48e5432d612a93565b6080820152600660005260056020526118027f069400f22b28c6c362558d92f66163cec5671cba50b61abd2eecfcd0eaeac518612a93565b60a08201526007600052600560205261183a7feddb6698d7c569ff62ff64f1f1492bf14a54594835ba0faac91f84b4f5d81460612a93565b60c082015260405191829182611658565b602090611856612a74565b81840152016116bd565b346104e95760003660031901126104e95760005460405163d1f956b160e01b815290602090829060049082906001600160a01b03165afa9081156104e45761065b916109c7916000916118e9575b506040516118bb816121a6565b601381527267657464656c656761746f72436f756e74282960681b60208201526118e361224d565b916126fc565b611901915060203d81116104dd576104ce81836121dc565b386118ae565b346104e95760003660031901126104e9576020602954604051908152f35b346104e95760403660031901126104e9576119416104446122bd565b61194a336123e5565b801561196b575b61195a9061277b565b610016602435600435603355603455565b50600054604051630536340960e21b8152906001600160a01b03906020908390600490829085165afa9081156104e45761195a926000926119b2575b501633149050611951565b6119cb91925060203d81116104dd576104ce81836121dc565b90386119a7565b346104e95760203660031901126104e95760043560005260046020526040600020600181549101549061065b6040519283928360209093929193604081019481520152565b346104e95760003660031901126104e9576020602554604051908152f35b346104e95760203660031901126104e9576020611a5c600435611a578161083d565b6123e5565b6040519015158152f35b346104e95760003660031901126104e957602060ff603654166040519015158152f35b346104e95760003660031901126104e9576020603454604051908152f35b346104e95760003660031901126104e957601f546020549061065b60215460405193849384610b3b565b346104e95760203660031901126104e957600054604051630536340960e21b8152906001600160a01b03906020908390600490829085165afa9182156104e457600092611b64575b5033911603611b2d57610016600435612555565b60405162461bcd60e51b815260206004820152600f60248201526e6f776e2e6e6f6e617574682e44414f60881b6044820152606490fd5b611b7d91925060203d81116104dd576104ce81836121dc565b9038611b19565b346104e95760203660031901126104e957600435611ba18161083d565b803b6000611bae82612232565b92611bbc60405194856121dc565b82845260208401903c602d815110611be557602a61065b91015160601c60405191829182610aff565b60405162461bcd60e51b81526020600482015260136024820152724e6f742061206d696e696d616c2070726f787960681b6044820152606490fd5b346104e957611c2e36611043565b90611c3d6104449493946122bd565b611c46336123e5565b8015611ca2575b92611c5960029461277b565b611c65600882106128d8565b60405194611c728661218b565b85526020850191825260408501928352600052600560205260406000209351845551600184015551910155600080f35b50600054604051630536340960e21b81526001600160a01b0394916020908290600490829089165afa80156104e457600295611c5992600092611cee575b503391161491945050611c4d565b611d0791925060203d81116104dd576104ce81836121dc565b9038611ce0565b346104e9576020806003193601126104e95760048035611d2d8161083d565b60005460405163d1f956b160e01b81526001600160a01b03949093909182918591829088165afa9081156104e45761065b946108fc94600093611d8e575b506040519316818401528252611d80826121a6565b611d886124f1565b906126c0565b611da6919350823d84116104dd576104ce81836121dc565b9138611d6b565b346104e95760003660031901126104e9576020611a5c6122bd565b346104e95760003660031901126104e9576015546016549061065b601754601854601954601a5491601b5493604051978897886105f5565b346104e95760203660031901126104e957611e1c6104446122bd565b611e25336123e5565b8015611e40575b611e359061277b565b610016600435602655565b50600054604051630536340960e21b8152906001600160a01b03906020908390600490829085165afa9081156104e457611e3592600092611e87575b501633149050611e2c565b611ea091925060203d81116104dd576104ce81836121dc565b9038611e7c565b346104e95760203660031901126104e957611ec36104446122bd565b611ecc336123e5565b8015611ee7575b611edc9061277b565b610016600435602d55565b50600054604051630536340960e21b8152906001600160a01b03906020908390600490829085165afa9081156104e457611edc92600092611f2e575b501633149050611ed3565b611f4791925060203d81116104dd576104ce81836121dc565b9038611f23565b346104e95760203660031901126104e957611f6a6104446122bd565b611f73336123e5565b8015611f8e575b611f839061277b565b610016600435603555565b50600054604051630536340960e21b8152906001600160a01b03906020908390600490829085165afa9081156104e457611f8392600092611fd5575b501633149050611f7a565b611fee91925060203d81116104dd576104ce81836121dc565b9038611fca565b346104e95760403660031901126104e9576120116104446122bd565b61201a336123e5565b8015612038575b61202a9061277b565b610016602435600435612a58565b50600054604051630536340960e21b8152906001600160a01b03906020908390600490829085165afa9081156104e45761202a9260009261207f575b501633149050612021565b61209891925060203d81116104dd576104ce81836121dc565b9038612074565b346104e95760003660031901126104e957602060ff602454166040519015158152f35b346104e95760003660031901126104e95760005460405163111ea8c160e21b815290602090829060049082906001600160a01b03165afa9081156104e45761065b916109c791600091612137575b5060405161211d816121a6565b6005815264616765282960d81b60208201526118e361224d565b61214f915060203d81116104dd576104ce81836121dc565b38612110565b634e487b7160e01b600052604160045260246000fd5b60e081019081106001600160401b0382111761218657604052565b612155565b606081019081106001600160401b0382111761218657604052565b604081019081106001600160401b0382111761218657604052565b602081019081106001600160401b0382111761218657604052565b601f909101601f19168101906001600160401b0382119082101761218657604052565b908160209103126104e957516122148161083d565b90565b6040513d6000823e3d90fd5b604051906122308261216b565b565b6001600160401b03811161218657601f01601f191660200190565b6040519061225a826121c1565b60008252565b1561226757565b60405162461bcd60e51b81526020600482015260196024820152781bdddb8b9cd8599959dd585c990b98d85b1b0b99985a5b1959603a1b6044820152606490fd5b908160209103126104e95751612214816109f5565b600054604051634bf9c0ad60e11b8152906020908190839060049082906001600160a01b03165afa9182156104e457612214926123339160009161234e575b50604051612309816121a6565b6008815267697353616665282960c01b848201526040519161232a836121c1565b60008352612626565b919080612344575b6108ef90612260565b508151811461233b565b6123659150833d85116104dd576104ce81836121dc565b386122fc565b60405190612378826121a6565b601582527469735365637572654261736528616464726573732960581b6020830152565b156123a357565b60405162461bcd60e51b815260206004820152601a6024820152791bdddb8b9cd958dd5c9958985cd94b98d85b1b0b99985a5b195960321b6044820152606490fd5b6000546001600160a01b0316604051918291634bf9c0ad60e11b835282600460209485935afa9283156104e45761221493612441926108c29260009261245c575b5061243990604051938491878301610aff565b6108d861236b565b919080612452575b6108ef9061239c565b5081518114612449565b61243991925061247890863d88116104dd576104ce81836121dc565b9190612426565b6040519061248c826121a6565b601182527069735369676e657228616464726573732960781b6020830152565b156124b357565b60405162461bcd60e51b81526020600482015260166024820152751bdddb8b9cda59db995c8b98d85b1b0b99985a5b195960521b6044820152606490fd5b604051906124fe826121a6565b6018825277697364656c656761746f724e6f646528616464726573732960401b6020830152565b3d15612550573d9061253682612232565b9161254460405193846121dc565b82523d6000602084013e565b606090565b600080546040516311be646b60e21b815290602090829060049082906001600160a01b03165afa9081156104e4578284819382938391612608575b505af161259b612525565b50156125d15760405190815233907fcdcc745fe377b103b45fa0cec23ae3ef93d6fc6a84a01f0d18c40b354dd1d5d890602090a2565b60405162461bcd60e51b815260206004820152600f60248201526e1bdddb8b989d5c9b8b99985a5b1959608a1b6044820152606490fd5b612620915060203d81116104dd576104ce81836121dc565b38612590565b9190823b156126a7578051906020918263ffffffff60e01b92012016916040519180830193845281519160005b838110612693575050509181612680602482600097959688970187838201520360048101845201826121dc565b5191620dbba0fa61268f612525565b9091565b818101830151858201602401528201612653565b5050506000906040516126b9816121c1565b6000815290565b92916126ce91600094612626565b90806126f1575b6126dc5750565b612214919250602080825183010191016122a8565b5060208151146126d5565b929161270a91600094612626565b908061272f575b6127185750565b9091506020818051810103126104e9576020015190565b506020815114612711565b1561274157565b60405162461bcd60e51b81526020600482015260126024820152716f776e2e696e76616c69642e69735361666560701b6044820152606490fd5b1561278257565b60405162461bcd60e51b815260206004820152601b60248201527a6f776e2e6e6f6e617574682e44414f6f725365637572656261736560281b6044820152606490fd5b90670de0b6b3a7640000918281029281840414901517156127e257565b634e487b7160e01b600052601160045260246000fd5b818102929181159184041417156127e257565b612814906127c5565b602e55565b91929394909460108310156128a3576040519460a08601946001600160401b03861187871017612186576122309761287496604052875260208701526040860152606085015260808401526000526006602052604060002090565b906080600491805184556020810151600185015560408101516002850155606081015160038501550151910155565b60405162461bcd60e51b815260206004820152600d60248201526c1a5b9d985b1a59081b195d995b609a1b6044820152606490fd5b156128df57565b60405162461bcd60e51b815260206004820152600c60248201526b696e76616c69642072616e6b60a01b6044820152606490fd5b91612920600884106128d8565b6040805193908401926001600160401b0384118585101761218657600193604052845260208401918252600052600460205260406000209251835551910155565b612a399461223097946129d2612a1a956129fd9460c09a96604051906129868261216b565b8282521515928360208301521515948560408301521515958660608301521515978860808301521515998a60a083015215159b8c91015260225560ff8019602354169115151617602355565b6023805462ffff00191660089290921b61ff00169190911791151560101b62ff000016919091179055565b63ff00000060235491151560181b169063ff000000191617602355565b6023805460ff60201b191691151560201b60ff60201b16919091179055565b6023805460ff60281b191691151560281b60ff60281b16919091179055565b612a64600882106128d8565b6000526003602052604060002055565b60405190612a818261218b565b60006040838281528260208201520152565b90604051612aa08161218b565b60406002829480548452600181015460208501520154910152565b949192600396939794919760405198612ad38a61216b565b808a528160208b01528260408b01528360608b01528460808b01528560a08b01528660c08b015260018814612b8b575b5050505050505060028114612b51575b14612b1b5750565b8051601555602081015160165560408101516017556060810151601855608081015160195560a0810151601a5560c00151601b55565b8251600e556020830151600f5560408301516010556060830151601155608083015160125560a083015160135560c0830151601455612b13565b600755600855600955600a55600b55600c55600d5538808080808080612b03565b604051612bb8816121c1565b60008152906000368137565b60405190612bd1826121a6565b60128252716f7a6f6e655072696365496e55534454282960701b6020830152565b8115612bfc570490565b634e487b7160e01b600052601260045260246000fdfea2646970667358221220b1f8e29d1a56ec84fa838f16da15d433032d56e67266e49b0fce12139a70417a64736f6c63430008140033","linkReferences":{}},"methodIdentifiers":{"rule741()":"0a5b38ab","transferRequest()":"3da8676f"},"id":34}