{"abi":[{"type":"constructor","inputs":[],"stateMutability":"nonpayable"},{"type":"fallback","stateMutability":"payable"},{"type":"receive","stateMutability":"payable"},{"type":"function","name":"addOrc1155","inputs":[{"name":"newAddr","type":"address","internalType":"address"},{"name":"oldAddr","type":"address","internalType":"address"},{"name":"oldAddrV1","type":"address","internalType":"address"}],"outputs":[],"stateMutability":"nonpayable"},{"type":"function","name":"addOrc1155Prime","inputs":[{"name":"params","type":"bytes","internalType":"bytes"},{"name":"oldAddr","type":"address","internalType":"address"}],"outputs":[],"stateMutability":"nonpayable"},{"type":"function","name":"addProposer","inputs":[{"name":"_a","type":"address","internalType":"address"}],"outputs":[],"stateMutability":"nonpayable"},{"type":"function","name":"daoassembly","inputs":[],"outputs":[{"name":"","type":"address","internalType":"address"}],"stateMutability":"view"},{"type":"function","name":"daocore","inputs":[],"outputs":[{"name":"","type":"address","internalType":"address"}],"stateMutability":"view"},{"type":"function","name":"getProposalsCount","inputs":[],"outputs":[{"name":"","type":"uint256","internalType":"uint256"}],"stateMutability":"view"},{"type":"function","name":"importBusiness","inputs":[{"name":"limit","type":"uint256","internalType":"uint256"}],"outputs":[],"stateMutability":"nonpayable"},{"type":"function","name":"importuser","inputs":[{"name":"limit","type":"uint256","internalType":"uint256"}],"outputs":[],"stateMutability":"nonpayable"},{"type":"function","name":"in741","inputs":[],"outputs":[{"name":"","type":"address","internalType":"address"}],"stateMutability":"view"},{"type":"function","name":"in741Old","inputs":[],"outputs":[{"name":"","type":"address","internalType":"address"}],"stateMutability":"view"},{"type":"function","name":"in741Prime","inputs":[],"outputs":[{"name":"","type":"address","internalType":"address"}],"stateMutability":"view"},{"type":"function","name":"in741PrimeOld","inputs":[],"outputs":[{"name":"","type":"address","internalType":"address"}],"stateMutability":"view"},{"type":"function","name":"in741Primev3Old","inputs":[],"outputs":[{"name":"","type":"address","internalType":"address"}],"stateMutability":"view"},{"type":"function","name":"in741Rule","inputs":[],"outputs":[{"name":"","type":"address","internalType":"address"}],"stateMutability":"view"},{"type":"function","name":"in741RuleOld","inputs":[],"outputs":[{"name":"","type":"address","internalType":"address"}],"stateMutability":"view"},{"type":"function","name":"in741RulePrime","inputs":[],"outputs":[{"name":"","type":"address","internalType":"address"}],"stateMutability":"view"},{"type":"function","name":"in741RulePrimeOld","inputs":[],"outputs":[{"name":"","type":"address","internalType":"address"}],"stateMutability":"view"},{"type":"function","name":"inDEAD","inputs":[],"outputs":[{"name":"","type":"address","internalType":"address"}],"stateMutability":"view"},{"type":"function","name":"inDeployerAService","inputs":[],"outputs":[{"name":"","type":"address","internalType":"address"}],"stateMutability":"view"},{"type":"function","name":"inDeployerAsRoot","inputs":[],"outputs":[{"name":"","type":"address","internalType":"address"}],"stateMutability":"view"},{"type":"function","name":"inImportForgePrimeold","inputs":[],"outputs":[{"name":"","type":"address","internalType":"address"}],"stateMutability":"view"},{"type":"function","name":"inInstance","inputs":[],"outputs":[{"name":"","type":"address","internalType":"address"}],"stateMutability":"view"},{"type":"function","name":"inInstancePrime","inputs":[],"outputs":[{"name":"","type":"address","internalType":"address"}],"stateMutability":"view"},{"type":"function","name":"inInstanceStor","inputs":[],"outputs":[{"name":"","type":"address","internalType":"address"}],"stateMutability":"view"},{"type":"function","name":"inNftFactory","inputs":[],"outputs":[{"name":"","type":"address","internalType":"address"}],"stateMutability":"view"},{"type":"function","name":"inNftProxy","inputs":[],"outputs":[{"name":"","type":"address","internalType":"address"}],"stateMutability":"view"},{"type":"function","name":"inOrc1155","inputs":[{"name":"","type":"uint256","internalType":"uint256"}],"outputs":[{"name":"","type":"address","internalType":"address"}],"stateMutability":"view"},{"type":"function","name":"inOrc1155Old","inputs":[{"name":"","type":"uint256","internalType":"uint256"}],"outputs":[{"name":"","type":"address","internalType":"address"}],"stateMutability":"view"},{"type":"function","name":"inOrc1155OldV1","inputs":[{"name":"","type":"uint256","internalType":"uint256"}],"outputs":[{"name":"","type":"address","internalType":"address"}],"stateMutability":"view"},{"type":"function","name":"inOrc1155Prime","inputs":[{"name":"","type":"uint256","internalType":"uint256"}],"outputs":[{"name":"","type":"address","internalType":"address"}],"stateMutability":"view"},{"type":"function","name":"inOrc1155PrimeOld","inputs":[],"outputs":[{"name":"","type":"address","internalType":"address"}],"stateMutability":"view"},{"type":"function","name":"inOrc1155PrimeOldV1","inputs":[],"outputs":[{"name":"","type":"address","internalType":"address"}],"stateMutability":"view"},{"type":"function","name":"inOrc1155machinebullold","inputs":[],"outputs":[{"name":"","type":"address","internalType":"address"}],"stateMutability":"view"},{"type":"function","name":"inPrice","inputs":[],"outputs":[{"name":"","type":"address","internalType":"address"}],"stateMutability":"view"},{"type":"function","name":"inPrimeData","inputs":[],"outputs":[{"name":"","type":"address","internalType":"address"}],"stateMutability":"view"},{"type":"function","name":"inPrimeProxy","inputs":[],"outputs":[{"name":"","type":"address","internalType":"address"}],"stateMutability":"view"},{"type":"function","name":"inTransferPrimeold","inputs":[],"outputs":[{"name":"","type":"address","internalType":"address"}],"stateMutability":"view"},{"type":"function","name":"inTransferold","inputs":[],"outputs":[{"name":"","type":"address","internalType":"address"}],"stateMutability":"view"},{"type":"function","name":"inTreaseryFactory","inputs":[],"outputs":[{"name":"","type":"address","internalType":"address"}],"stateMutability":"view"},{"type":"function","name":"inTreaseryTVLMining","inputs":[],"outputs":[{"name":"","type":"address","internalType":"address"}],"stateMutability":"view"},{"type":"function","name":"inTreaseryTVLMiningImport","inputs":[],"outputs":[{"name":"","type":"address","internalType":"address"}],"stateMutability":"view"},{"type":"function","name":"inTreaseryTVLMiningPrime","inputs":[],"outputs":[{"name":"","type":"address","internalType":"address"}],"stateMutability":"view"},{"type":"function","name":"inTreaseryTVLReward","inputs":[],"outputs":[{"name":"","type":"address","internalType":"address"}],"stateMutability":"view"},{"type":"function","name":"inTreaseryTVLRoyality","inputs":[],"outputs":[{"name":"","type":"address","internalType":"address"}],"stateMutability":"view"},{"type":"function","name":"inTreaseryTVLTour","inputs":[],"outputs":[{"name":"","type":"address","internalType":"address"}],"stateMutability":"view"},{"type":"function","name":"inTreaseryTVLValidator","inputs":[],"outputs":[{"name":"","type":"address","internalType":"address"}],"stateMutability":"view"},{"type":"function","name":"inblank","inputs":[],"outputs":[{"name":"","type":"address","internalType":"address"}],"stateMutability":"view"},{"type":"function","name":"infactoryold","inputs":[],"outputs":[{"name":"","type":"address","internalType":"address"}],"stateMutability":"view"},{"type":"function","name":"infactoryprimeold","inputs":[],"outputs":[{"name":"","type":"address","internalType":"address"}],"stateMutability":"view"},{"type":"function","name":"insafeguard","inputs":[],"outputs":[{"name":"","type":"address","internalType":"address"}],"stateMutability":"view"},{"type":"function","name":"insafeguardOld","inputs":[],"outputs":[{"name":"","type":"address","internalType":"address"}],"stateMutability":"view"},{"type":"function","name":"insafeguardPrime","inputs":[],"outputs":[{"name":"","type":"address","internalType":"address"}],"stateMutability":"view"},{"type":"function","name":"insafeguardPrimeOld","inputs":[],"outputs":[{"name":"","type":"address","internalType":"address"}],"stateMutability":"view"},{"type":"function","name":"invalidator","inputs":[],"outputs":[{"name":"","type":"address","internalType":"address"}],"stateMutability":"view"},{"type":"function","name":"mapOldORC1155","inputs":[{"name":"","type":"address","internalType":"address"}],"outputs":[{"name":"","type":"address","internalType":"address"}],"stateMutability":"view"},{"type":"function","name":"mapOldORC1155Prime","inputs":[{"name":"","type":"address","internalType":"address"}],"outputs":[{"name":"","type":"address","internalType":"address"}],"stateMutability":"view"},{"type":"function","name":"proposals","inputs":[{"name":"","type":"uint256","internalType":"uint256"}],"outputs":[{"name":"","type":"address","internalType":"address"}],"stateMutability":"view"},{"type":"function","name":"s1","inputs":[],"outputs":[{"name":"","type":"address","internalType":"address"}],"stateMutability":"view"},{"type":"function","name":"s2","inputs":[],"outputs":[{"name":"","type":"address","internalType":"address"}],"stateMutability":"view"},{"type":"function","name":"s3","inputs":[],"outputs":[{"name":"","type":"address","internalType":"address"}],"stateMutability":"view"},{"type":"function","name":"submit","inputs":[{"name":"_hexNFTEngine","type":"address","internalType":"address"},{"name":"_hexDaoCore","type":"address","internalType":"address"},{"name":"_hexRules","type":"address","internalType":"address"},{"name":"_hexUserEngine","type":"address","internalType":"address"},{"name":"_hexInstanceEngine","type":"address","internalType":"address"}],"outputs":[],"stateMutability":"nonpayable"},{"type":"function","name":"update741","inputs":[{"name":"addr","type":"address","internalType":"address"}],"outputs":[],"stateMutability":"nonpayable"},{"type":"function","name":"update741Old","inputs":[{"name":"addr","type":"address","internalType":"address"}],"outputs":[],"stateMutability":"nonpayable"},{"type":"function","name":"update741Prime","inputs":[{"name":"addr","type":"address","internalType":"address"}],"outputs":[],"stateMutability":"nonpayable"},{"type":"function","name":"update741PrimeOld","inputs":[{"name":"addr","type":"address","internalType":"address"}],"outputs":[],"stateMutability":"nonpayable"},{"type":"function","name":"update741Primev3Old","inputs":[{"name":"addr","type":"address","internalType":"address"}],"outputs":[],"stateMutability":"nonpayable"},{"type":"function","name":"update741Rule","inputs":[{"name":"addr","type":"address","internalType":"address"}],"outputs":[],"stateMutability":"nonpayable"},{"type":"function","name":"update741RuleOld","inputs":[{"name":"addr","type":"address","internalType":"address"}],"outputs":[],"stateMutability":"nonpayable"},{"type":"function","name":"update741RulePrime","inputs":[{"name":"addr","type":"address","internalType":"address"}],"outputs":[],"stateMutability":"nonpayable"},{"type":"function","name":"update741RulePrimeOld","inputs":[{"name":"addr","type":"address","internalType":"address"}],"outputs":[],"stateMutability":"nonpayable"},{"type":"function","name":"updateDAOAssembly","inputs":[{"name":"_dao","type":"address","internalType":"address"}],"outputs":[],"stateMutability":"nonpayable"},{"type":"function","name":"updateDAOCore","inputs":[{"name":"_dao","type":"address","internalType":"address"}],"outputs":[],"stateMutability":"nonpayable"},{"type":"function","name":"updateDEAD","inputs":[{"name":"addr","type":"address","internalType":"address"}],"outputs":[],"stateMutability":"nonpayable"},{"type":"function","name":"updateFactoryOld","inputs":[{"name":"addr","type":"address","internalType":"address"}],"outputs":[],"stateMutability":"nonpayable"},{"type":"function","name":"updateFactoryPrimeOld","inputs":[{"name":"addr","type":"address","internalType":"address"}],"outputs":[],"stateMutability":"nonpayable"},{"type":"function","name":"updateImportForgePrimeold","inputs":[{"name":"addr","type":"address","internalType":"address"}],"outputs":[],"stateMutability":"nonpayable"},{"type":"function","name":"updateInTransferOld","inputs":[{"name":"addr","type":"address","internalType":"address"}],"outputs":[],"stateMutability":"nonpayable"},{"type":"function","name":"updateInTransferPrimeOld","inputs":[{"name":"addr","type":"address","internalType":"address"}],"outputs":[],"stateMutability":"nonpayable"},{"type":"function","name":"updateInstance","inputs":[{"name":"addr","type":"address","internalType":"address"}],"outputs":[],"stateMutability":"nonpayable"},{"type":"function","name":"updateInstancePrime","inputs":[{"name":"addr","type":"address","internalType":"address"}],"outputs":[],"stateMutability":"nonpayable"},{"type":"function","name":"updateInstanceStor","inputs":[{"name":"addr","type":"address","internalType":"address"}],"outputs":[],"stateMutability":"nonpayable"},{"type":"function","name":"updateNftProxy","inputs":[{"name":"addr","type":"address","internalType":"address"}],"outputs":[],"stateMutability":"nonpayable"},{"type":"function","name":"updateOrc1155","inputs":[{"name":"_o","type":"address","internalType":"address"},{"name":"oldAddr","type":"address","internalType":"address"},{"name":"idx","type":"uint256","internalType":"uint256"}],"outputs":[],"stateMutability":"nonpayable"},{"type":"function","name":"updateOrc1155MachineBullOld","inputs":[{"name":"addr","type":"address","internalType":"address"}],"outputs":[],"stateMutability":"nonpayable"},{"type":"function","name":"updateOrc1155Prime","inputs":[{"name":"_o","type":"address","internalType":"address"},{"name":"oldAddr","type":"address","internalType":"address"},{"name":"idx","type":"uint256","internalType":"uint256"}],"outputs":[],"stateMutability":"nonpayable"},{"type":"function","name":"updateOrc1155PrimeOld","inputs":[{"name":"addr","type":"address","internalType":"address"}],"outputs":[],"stateMutability":"nonpayable"},{"type":"function","name":"updateOrc1155PrimeOldV1","inputs":[{"name":"addr","type":"address","internalType":"address"}],"outputs":[],"stateMutability":"nonpayable"},{"type":"function","name":"updatePrice","inputs":[{"name":"addr","type":"address","internalType":"address"}],"outputs":[],"stateMutability":"nonpayable"},{"type":"function","name":"updatePrimeData","inputs":[{"name":"addr","type":"address","internalType":"address"}],"outputs":[],"stateMutability":"nonpayable"},{"type":"function","name":"updatePrimeProxy","inputs":[{"name":"addr","type":"address","internalType":"address"}],"outputs":[],"stateMutability":"nonpayable"},{"type":"function","name":"updateProposals","inputs":[{"name":"_a","type":"address","internalType":"address"},{"name":"idx","type":"uint256","internalType":"uint256"}],"outputs":[],"stateMutability":"nonpayable"},{"type":"function","name":"updateSafeguard","inputs":[{"name":"addr","type":"address","internalType":"address"}],"outputs":[],"stateMutability":"nonpayable"},{"type":"function","name":"updateSafeguardOld","inputs":[{"name":"addr","type":"address","internalType":"address"}],"outputs":[],"stateMutability":"nonpayable"},{"type":"function","name":"updateSafeguardPrime","inputs":[{"name":"addr","type":"address","internalType":"address"}],"outputs":[],"stateMutability":"nonpayable"},{"type":"function","name":"updateSafeguardPrimeOld","inputs":[{"name":"addr","type":"address","internalType":"address"}],"outputs":[],"stateMutability":"nonpayable"},{"type":"function","name":"updateTreaseryFactory","inputs":[{"name":"addr","type":"address","internalType":"address"}],"outputs":[],"stateMutability":"nonpayable"},{"type":"function","name":"updateTreaseryTVLMiningImport","inputs":[{"name":"addr","type":"address","internalType":"address"}],"outputs":[],"stateMutability":"nonpayable"},{"type":"function","name":"updateTreaseryTVLValidator","inputs":[{"name":"addr","type":"address","internalType":"address"}],"outputs":[],"stateMutability":"nonpayable"},{"type":"function","name":"updateTreasuryTVLMining","inputs":[{"name":"addr","type":"address","internalType":"address"}],"outputs":[],"stateMutability":"nonpayable"},{"type":"function","name":"updateTreasuryTVLMiningPrime","inputs":[{"name":"addr","type":"address","internalType":"address"}],"outputs":[],"stateMutability":"nonpayable"},{"type":"function","name":"updateTreasuryTVLReward","inputs":[{"name":"addr","type":"address","internalType":"address"}],"outputs":[],"stateMutability":"nonpayable"},{"type":"function","name":"updateTreasuryTVLRoyality","inputs":[{"name":"addr","type":"address","internalType":"address"}],"outputs":[],"stateMutability":"nonpayable"},{"type":"function","name":"updateTreasuryTVLTour","inputs":[{"name":"addr","type":"address","internalType":"address"}],"outputs":[],"stateMutability":"nonpayable"},{"type":"function","name":"updateValidator","inputs":[{"name":"addr","type":"address","internalType":"address"}],"outputs":[],"stateMutability":"nonpayable"}],"bytecode":{"object":"0x608060405234620004ed5760018060a01b0319600090808254168255600173376c3a0babd0ce07b78f82fc862a6cb7c82342d282825416178155816002541660025573301cad03ad5f18e71e0bf6d578820c5e836201c9826003541617600355735731f74dd52839d69b2b4427ce1439431f76a2ce8260045416176004556005734a516f5916d53ece27c00ab5e3923872ed19f090838254161781558260065416600655826007541660075582600954166009557360c95eb879eec03a0af4528a16f192e61a198f4083600a541617600a557308ff697696398fac0dcee979bb0f1fb7b7fc380b83600b541617600b5582600c5416600c5582600d5416600d5573f134e58248ab8380e911d36c21e1015e5e84814183600e541617600e5582600f5416600f5573882bf41aa8e3fad0695be39e4434af54786eb24a83601054161760105573c0cee8b561cc4f60869776ca5b0b7a295e04f5af808460115416176011558360125416601255836013541617601355739f33b44587a57758c1413dbab6640f6abea5cef483601454161760145573804f8004e7d361ab2a4335685d7c6893e67af7c1836015541617601555620001b9620004f2565b9173d03060e8ed7754aeed63e4e56b0457662d8164aa8352602091733dbd81ab6b37360016fbc6c96937c60334aaede48385015273085052532254e12989413f7c84dd32686bce74e19384604082015273284bf1d323c35b47fe1991cde5af634e3a661253606082015273b33443339919b2ae34888890d6c28b5666daaa3f6080820152601a5482601a55808310620004c2575b50601a87528387209083885b848110620004a657505050506200026f620004f2565b73b8193c79fc3f1d7dfaa0bae85fe3b1bff0558abb8152736e5aa0e705b69459e1525b2c720e820cf3322f1b8482015273ef8fe7c57b613624c06f5ede5ebd639f6d5108176040820152735f141ba4a79fdc86ec5c8c044f721ce873db91b96060820152737117638c0dc12ffffdddf3630ac4ce5c9705e6ff6080820152601b5482601b558083106200047b575b50601b8752838720875b8381106200046057505050505073951a7bbd21b4a6f49e62e040b992eed7120fcdd983601c541617601c55732463fc29b8b635c4120c4fe32aadc580d199348083601d541617601d55737e2baf007a3761d33afee572a7e7a08c1499b99d9081848254161790557343a87925ba12b33f0e2a40da70e239775db21169836025541617602555730fda18c5b31b5417478c012837909927361143ab83602a541617602a55730239667fa9f2269e36f32daf2ab391dc1ad9373883602b541617602b5573648565deb50c503ef59860d92942eaece0c3e17283602c541617602c5582602d541617602d5581602e541617602e55736c96f2d0c9a8b7fb472a319b1ecf7e8626c7b2ba81602f541617602f55739bfc2af8a5e49a72bfb58e22312ce07d61fe773981603054161760305561dead816032541617603255806033541660335533908254161790556040516157829081620005298239f35b82516001600160a01b03168282015591850191840162000307565b601b88528383868a2092830192015b8281106200049a575050620002fd565b8981550184906200048a565b82516001600160a01b0316848201559186019185910162000259565b601a88528383868a2092830192015b828110620004e15750506200024d565b898155018490620004d1565b600080fd5b6040519060a082016001600160401b038111838210176200051257604052565b634e487b7160e01b600052604160045260246000fdfe6040608081526004803610156200001e575b505036156200001c57005b005b600091823560e01c918263013cf08b1462002d84578263014519e61462002d3357826301c0d48b1462002d0857826305abae0d1462002cb7578263069f3e721462002c6657826308a887af1462002c3b5782630a4c99391462002bea5782630c32145a1462002b995782631162a5b11462002b48578263130fba6d1462002af75782631477e1941462002aa357826314d8d0241462002a785782631654f3311462002a275782631a47ded514620029d65782631b67970a146200298557826321c82677146200295a578263236b0402146200290957826324768d9114620028de578263275424d0146200288d57826330125cf51462002862578263335ab5f21462002811578383633676bd1f146200279e5750826336c24c46146200274d57826342ac8f7914620026fc57826343af1d9d14620026d1578263447aa30414620026a6578263447bf0e2146200267b578263448f3eef14620026505782634588d01014620025ff57826345d96de814620025ae57826346f991ac14620025835783836349fbed1214620024f3575082634b849a5414620024a2578263507aa64f146200245157826351ffe4c5146200242657826352b06d6414620023fb578263595e1dd214620023ca5782635ad64af1146200239f5782635c727e8014620023405782635e09dbe71462002315578263635b277014620022c4578263640274271462002299578263666585841462002248578263677494d8146200221d5782636b4aefc614620021f35782636cc014de14620021c85782636fa16598146200217757826370ee2af8146200212657826374dfe23614620020d557826374fad9f91462002084578263753e7d3314620020335782638360701d1462001fe2578263839a47a41462001f91578263891e91a51462001f425782639669f18f1462001ef157826396e85ced1462001ea057826397f3815a1462001e7557826398e527d31462001e545782639dc969a81462001e29578263a0449f451462001dd8578263a0b8cbb81462001dad578263a11abe2a146200103a578263a2672aa81462000fe9578263a314150f1462000fbe578263a5b277f21462000f93578263a5d666a91462000f68578263a66bcbe21462000f3d578263a7acacf81462000f12578263a7d7fa501462000ee7578263a9d5ae6f1462000e96578263aa0ddc161462000e6b578263ab6e844f1462000e40578263aeb140201462000def578263af0deb951462000dc4578263af2331901462000d99578263b03cd4181462000d5a578263b113bd201462000b83578263b3a86ab01462000b58578263b771c8961462000b11578263bb2458961462000ae6578263bd811bce1462000abb578263c16addd01462000a5857508163c5a90db11462000a2d578163c7bb7d4d14620009dc578163cc7cf18e146200097b578163cfaa1f6c146200093c578163cfacc01014620008eb578163cfbffe5314620008c0578163d1f956b11462000895578163d3d1b096146200086a578163da1be7d0146200083f578163de433f171462000815578163e09d394d14620007ea578163e0cf4e9e14620007a2578163e1f4cd241462000777578163e25768191462000726578163e61dfd5814620006fb578163e7531fc014620006d0578163ed15cbf71462000691578163ef140ed31462000611578163efed51bb14620005e6578163f144dff014620005b757508063f606564914620005665763fc58f3531462000513578062000011565b346200056357602036600319011262000563576200053062002ea3565b6006546001600160a01b0391906200054c908316331462002f6e565b166001600160601b0360a01b601254161760125580f35b80fd5b50346200056357602036600319011262000563576200058462002ea3565b6006546001600160a01b039190620005a0908316331462002f6e565b166001600160601b0360a01b603454161760345580f35b905034620005e25781600319360112620005e257602d5490516001600160a01b039091168152602090f35b5080fd5b905034620005e25781600319360112620005e25760105490516001600160a01b039091168152602090f35b905034620005e25762000652620006283662002f36565b90620006718360018060a09896981b039586946200064c8660065416331462002f6e565b62002e33565b90919082549060031b9160018060a01b03809116831b921b1916179055565b1684526019602052832091166001600160601b0360a01b82541617905580f35b905034620005e2576020366003190112620005e2576020916001600160a01b0390829082620006bf62002ea3565b168152601985522054169051908152f35b905034620005e25781600319360112620005e257602b5490516001600160a01b039091168152602090f35b905034620005e25781600319360112620005e25760265490516001600160a01b039091168152602090f35b82346200056357602036600319011262000563576200074462002ea3565b6006546001600160a01b03919062000760908316331462002f6e565b166001600160601b0360a01b602254161760225580f35b905034620005e25781600319360112620005e257600f5490516001600160a01b039091168152602090f35b905034620005e2573660031901126200056357620007e7620007c362002ea3565b620007da60018060a01b0360065416331462002f6e565b6200065260243562002db0565b80f35b905034620005e25781600319360112620005e25760275490516001600160a01b039091168152602090f35b905034620005e25781600319360112620005e257905490516001600160a01b039091168152602090f35b905034620005e25781600319360112620005e25760305490516001600160a01b039091168152602090f35b905034620005e25781600319360112620005e25760295490516001600160a01b039091168152602090f35b905034620005e25781600319360112620005e25760075490516001600160a01b039091168152602090f35b905034620005e25781600319360112620005e257600d5490516001600160a01b039091168152602090f35b82346200056357602036600319011262000563576200090962002ea3565b6006546001600160a01b03919062000925908316331462002f6e565b166001600160601b0360a01b600f541617600f5580f35b905034620005e2576020366003190112620005e2576020916001600160a01b03908290826200096a62002ea3565b168152601885522054169051908152f35b905034620005e25762000652620009923662002f36565b90620009bc8360018060a09896981b03958694620009b68660065416331462002f6e565b62002e6b565b1684526018602052832091166001600160601b0360a01b82541617905580f35b8234620005635760203660031901126200056357620009fa62002ea3565b6006546001600160a01b03919062000a16908316331462002f6e565b166001600160601b0360a01b602e541617602e5580f35b905034620005e25781600319360112620005e257602c5490516001600160a01b039091168152602090f35b9091503462000ab757602036600319011262000ab75735601a5481101562000ab757601a6000527f057c384a7d1c54f3a1b2e5e67b2617b8224fdfd1ea7234eea573a6ff665ff63e015490516001600160a01b03909116815260209150f35b8280fd5b838234620005e25781600319360112620005e25760155490516001600160a01b039091168152602090f35b838234620005e25781600319360112620005e257600e5490516001600160a01b039091168152602090f35b9091503462000ab757602036600319011262000ab757359160165483101562000563575062000b4260209262002e6b565b905491519160018060a01b039160031b1c168152f35b838234620005e25781600319360112620005e257601d5490516001600160a01b039091168152602090f35b91503462000ab7578060031936011262000ab75767ffffffffffffffff90823582811162000d56573660238201121562000d56578084013592831162000d435781519385602092601f199562000be18588601f840116018962002f13565b808852366024828401011162000ab757806024869399989901838901378601015262000c0c62002eba565b908260018060a01b039562000c278760065416331462002f6e565b8660355416898751998a9363165fd13f60e01b85523087860152896024860152805190816044870152835b82811062000d25575050848392601f8383966064809686010152011681010301925af195861562000d1b57879662000ce5575b5060175490600160401b82101562000cd057506019929162000cb487620006528460018a960160175562002e33565b16865252832091166001600160601b0360a01b82541617905580f35b604190634e487b7160e01b6000525260246000fd5b62000d0b919650833d851162000d13575b62000d02818362002f13565b8101906200308f565b943862000c85565b503d62000cf6565b84513d89823e3d90fd5b8181018801519681016064019690965289968d968f95500162000c52565b634e487b7160e01b855260418452602485fd5b8480fd5b8334620005635760203660031901126200056357620007e762000d7c62002ea3565b62000d9360018060a01b0360065416331462002f6e565b62002fad565b838234620005e25781600319360112620005e25760285490516001600160a01b039091168152602090f35b838234620005e25781600319360112620005e257600c5490516001600160a01b039091168152602090f35b833462000563576020366003190112620005635762000e0d62002ea3565b6006546001600160a01b03919062000e29908316331462002f6e565b166001600160601b0360a01b601154161760115580f35b838234620005e25781600319360112620005e25760115490516001600160a01b039091168152602090f35b838234620005e25781600319360112620005e257601f5490516001600160a01b039091168152602090f35b833462000563576020366003190112620005635762000eb462002ea3565b6006546001600160a01b03919062000ed0908316331462002f6e565b166001600160601b0360a01b600c541617600c5580f35b838234620005e25781600319360112620005e257600b5490516001600160a01b039091168152602090f35b838234620005e25781600319360112620005e257601c5490516001600160a01b039091168152602090f35b838234620005e25781600319360112620005e25760125490516001600160a01b039091168152602090f35b838234620005e25781600319360112620005e25760055490516001600160a01b039091168152602090f35b838234620005e25781600319360112620005e257602e5490516001600160a01b039091168152602090f35b9091503462000ab7578260031936011262000ab7575490516001600160a01b03909116815260209150f35b83346200056357602036600319011262000563576200100762002ea3565b6006546001600160a01b03919062001023908316331462002f6e565b166001600160601b0360a01b602c541617602c5580f35b9091503462000ab75760a036600319011262000ab7576200105a62002ea3565b916200106562002eba565b916200107062002ed1565b6001600160a01b03606435818116969195929087900362001da8576084359286841680940362001da85786895416330362001d7457866009541662001d315786169285519763501ad8ff60e11b8952602092838a8881895afa998a1562001a98578b9a62001d0d575b50886001600160601b0360a01b9a168a60295416176029558751631550316b60e21b8152848189818a5afa90811562001a5657908a918d9162001ceb575b50168a60135416176013558751956245cff960e81b875284878981845afa96871562001a56578c9762001cc7575b5089601197168b8854161787558851631483745560e01b815285818a81855afa908d821562001cbc5787928b94928e929162001c9a575b50168d60075416176007558a5192838092630536340960e21b82525afa908c821562001c6d578b939284929062001c78575b50168b6006541617600655168751630a5b38ab60e01b815284818981855afa908c821562001c6d5786928a94928d929162001c4b575b50168c600d541617600d55895192838092633da8676f60e01b82525afa908b821562001c4057859289949262001222929162001c1e575b5062002fad565b885163131c73ad60e01b815292839182905afa90811562001ae6579088918b9162001bfc575b5016886027541617602755855163022ec09560e01b815282818781855afa90811562001ae6579088918b9162001bda575b50168860265416176026558551639ba540fb60e01b815282818781855afa90811562001ae6579088918b9162001bb8575b501688601e541617601e558551631af2bfe760e31b815282818781855afa90811562001ae6579088918b9162001b96575b501688601f541617601f55855163b85c9faf60e01b815282818781855afa90811562001ae6579088918b9162001b74575b50168860215416176021558551632510dd9f60e21b815282818781855afa90811562001ae6579088918b9162001b52575b5016886022541617602255855163dabf429d60e01b815282818781855afa90811562001ae65791888493928895938d9162001b30575b50168a6023541617602355875196878092630294302f60e61b82525afa94851562001b2657899562001b02575b508660249516888654161785558551926115779384810167ffffffffffffffff958282108783111762001af05784918391620030b183393081520301908bf0801562001ae65790888092168a603154161760315516928651635256382760e11b815282818581885afa90811562001a98579089918c9162001ac4575b5016896034541617603455865163d63843cd60e01b815282818581885afa90811562001a98579089918c9162001aa2575b5016896035541617603555865193631a1575a560e01b855282858581845afa94851562001a98578b9562001a74575b50601a541562001a6057887f057c384a7d1c54f3a1b2e5e67b2617b8224fdfd1ea7234eea573a6ff665ff63e541694601b95865415620019aa5790620014eb91876000528b7f3ad8aa4f87544323a9d1e5dd902f40c356527a7955687113db5f9a85ad579dc154169162002fd6565b8751631697db0560e01b81529483868681855afa95861562001a56578c9662001a32575b50601a5495600196871015620019aa578a7f057c384a7d1c54f3a1b2e5e67b2617b8224fdfd1ea7234eea573a6ff665ff63f54168254881015620018fe57906200158291836000528c7f3ad8aa4f87544323a9d1e5dd902f40c356527a7955687113db5f9a85ad579dc254169162002fd6565b885163378136b960e21b815284818781865afa908115620019e2578d9162001a10575b50601a5460021015620019aa578a7f057c384a7d1c54f3a1b2e5e67b2617b8224fdfd1ea7234eea573a6ff665ff6405416825460021015620018fe57906200161691836000528c7f3ad8aa4f87544323a9d1e5dd902f40c356527a7955687113db5f9a85ad579dc354169162002fd6565b885163a0f0e54f60e01b81529184838781845afa928315620019e2578d93620019ec575b50601a5492600393841015620018fe578b7f057c384a7d1c54f3a1b2e5e67b2617b8224fdfd1ea7234eea573a6ff665ff64154168354851015620019125791620016b1879285948f8b976000527f3ad8aa4f87544323a9d1e5dd902f40c356527a7955687113db5f9a85ad579dc454169162002fd6565b8b5163104e8cbd60e11b815293849182905afa918215620019e2578d92620019be575b50601a54861015620019aa578a7f057c384a7d1c54f3a1b2e5e67b2617b8224fdfd1ea7234eea573a6ff665ff6425416908054871015620018fe57906200174492916000528b7f3ad8aa4f87544323a9d1e5dd902f40c356527a7955687113db5f9a85ad579dc554169162002fd6565b8751906101e082018281108482111762001996578952600e82528b84830197876101c09283368c37905b62001926575b508b6200178062002dfe565b905490851b1c168451600510156200191257908c9160c08601525416835160061015620018fe5760e08401528a601e5416835160071015620018fe576101008401528a601f5416835160081015620018fe576101208401528a60215416835160091015620018fe576101408401528a602254168351600a1015620018fe576101608401528a602354168351600b1015620018fe576101808401528a8954168351600c1015620018fe576101a08401528a875416908351600d1015620018fe57908b9291840152541693898154168a60055416918a519961112591828c01968c881090881117620018ec5750509160c093918a999896979593620046288b3960a08401958452878401528a83015230606083015260a06080830152518093520193928a5b828110620018d3575050505050039085f0908115620018ca57501690600954161760095580f35b513d85823e3d90fd5b84518a16865287965094810194938101938301620018a3565b8f90604190634e487b7160e01b835252fd5b89603288634e487b7160e01b600052526000fd5b8a603289634e487b7160e01b600052526000fd5b6005808210156200198f578d6200193d8362002e6b565b905490871b1c169086518310156200197b5782901b860188015260001981146200196a578801886200176e565b634e487b7160e01b8f528188528a8ffd5b8c60328b634e487b7160e01b600052526000fd5b5062001774565b88604187634e487b7160e01b600052526000fd5b88603287634e487b7160e01b600052526000fd5b620019da919250853d871162000d135762000d02818362002f13565b9038620016d4565b8a513d8f823e3d90fd5b62001a08919350853d871162000d135762000d02818362002f13565b91386200163a565b62001a2b9150853d871162000d135762000d02818362002f13565b38620015a5565b62001a4e919650843d861162000d135762000d02818362002f13565b94386200150f565b89513d8e823e3d90fd5b86603285634e487b7160e01b600052526000fd5b62001a90919550833d851162000d135762000d02818362002f13565b93386200147c565b88513d8d823e3d90fd5b62001abd9150843d861162000d135762000d02818362002f13565b386200144d565b62001adf9150843d861162000d135762000d02818362002f13565b386200141c565b87513d8c823e3d90fd5b634e487b7160e01b8d5260418652888dfd5b8162001b1e9296503d871162000d135762000d02818362002f13565b9338620013a0565b86513d8b823e3d90fd5b62001b4b9150843d861162000d135762000d02818362002f13565b3862001373565b62001b6d9150843d861162000d135762000d02818362002f13565b386200133d565b62001b8f9150843d861162000d135762000d02818362002f13565b386200130c565b62001bb19150843d861162000d135762000d02818362002f13565b38620012db565b62001bd39150843d861162000d135762000d02818362002f13565b38620012aa565b62001bf59150843d861162000d135762000d02818362002f13565b3862001279565b62001c179150843d861162000d135762000d02818362002f13565b3862001248565b62001c399150843d861162000d135762000d02818362002f13565b386200121b565b8951903d90823e3d90fd5b62001c669150843d861162000d135762000d02818362002f13565b38620011e4565b8a51903d90823e3d90fd5b62001c939150873d891162000d135762000d02818362002f13565b38620011ae565b62001cb59150843d861162000d135762000d02818362002f13565b386200117c565b8b51903d90823e3d90fd5b62001ce3919750853d871162000d135762000d02818362002f13565b953862001145565b62001d069150863d881162000d135762000d02818362002f13565b3862001117565b62001d29919a50843d861162000d135762000d02818362002f13565b9838620010d9565b855162461bcd60e51b8152602081870152601960248201527f686578626173652e616c72656164792e7375626d6974746564000000000000006044820152606490fd5b855162461bcd60e51b8152602081870152600e60248201526d139bdd08185d5d1a1bdc9a5e995960921b6044820152606490fd5b600080fd5b838234620005e25781600319360112620005e25760335490516001600160a01b039091168152602090f35b833462000563576020366003190112620005635762001df662002ea3565b6006546001600160a01b03919062001e12908316331462002f6e565b166001600160601b0360a01b600a541617600a5580f35b838234620005e25781600319360112620005e25760245490516001600160a01b039091168152602090f35b838234620005e25781600319360112620005e2576020906008549051908152f35b838234620005e25781600319360112620005e25760095490516001600160a01b039091168152602090f35b833462000563576020366003190112620005635762001ebe62002ea3565b6006546001600160a01b03919062001eda908316331462002f6e565b166001600160601b0360a01b602954161760295580f35b833462000563576020366003190112620005635762001f0f62002ea3565b6006546001600160a01b03919062001f2b908316331462002f6e565b166001600160601b0360a01b600b541617600b5580f35b833462000563576020366003190112620005635762001f6062002ea3565b600654906001600160a01b039062001f7c828416331462002f6e565b16906001600160601b0360a01b161760065580f35b833462000563576020366003190112620005635762001faf62002ea3565b6006546001600160a01b03919062001fcb908316331462002f6e565b166001600160601b0360a01b602854161760285580f35b83346200056357602036600319011262000563576200200062002ea3565b6006546001600160a01b0391906200201c908316331462002f6e565b166001600160601b0360a01b601554161760155580f35b83346200056357602036600319011262000563576200205162002ea3565b6006546001600160a01b0391906200206d908316331462002f6e565b166001600160601b0360a01b600d541617600d5580f35b8334620005635760203660031901126200056357620020a262002ea3565b6006546001600160a01b039190620020be908316331462002f6e565b166001600160601b0360a01b602b541617602b5580f35b8334620005635760203660031901126200056357620020f362002ea3565b6006546001600160a01b0391906200210f908316331462002f6e565b166001600160601b0360a01b601054161760105580f35b83346200056357602036600319011262000563576200214462002ea3565b6006546001600160a01b03919062002160908316331462002f6e565b166001600160601b0360a01b601e541617601e5580f35b83346200056357602036600319011262000563576200219562002ea3565b6006546001600160a01b039190620021b1908316331462002f6e565b166001600160601b0360a01b602754161760275580f35b838234620005e25781600319360112620005e25760035490516001600160a01b039091168152602090f35b838234620005e25781600319360112620005e2576020805491516001600160a01b03909216825290f35b838234620005e25781600319360112620005e25760015490516001600160a01b039091168152602090f35b83346200056357602036600319011262000563576200226662002ea3565b6006546001600160a01b03919062002282908316331462002f6e565b166001600160601b0360a01b601454161760145580f35b838234620005e25781600319360112620005e25760215490516001600160a01b039091168152602090f35b8334620005635760203660031901126200056357620022e262002ea3565b6006546001600160a01b039190620022fe908316331462002f6e565b166001600160601b0360a01b603154161760315580f35b838234620005e25781600319360112620005e257601e5490516001600160a01b039091168152602090f35b9091503462000ab757602036600319011262000ab75735601b5481101562000ab757601b6000527f3ad8aa4f87544323a9d1e5dd902f40c356527a7955687113db5f9a85ad579dc1015490516001600160a01b03909116815260209150f35b838234620005e25781600319360112620005e257602f5490516001600160a01b039091168152602090f35b9091503462000ab757602036600319011262000ab757359160175483101562000563575062000b4260209262002e33565b838234620005e25781600319360112620005e25760315490516001600160a01b039091168152602090f35b838234620005e25781600319360112620005e257600a5490516001600160a01b039091168152602090f35b83346200056357602036600319011262000563576200246f62002ea3565b6006546001600160a01b0391906200248b908316331462002f6e565b166001600160601b0360a01b600e541617600e5580f35b8334620005635760203660031901126200056357620024c062002ea3565b6006546001600160a01b039190620024dc908316331462002f6e565b166001600160601b0360a01b602454161760245580f35b925090346200257f5760203660031901126200257f576200251362002dfe565b905460039190911b1c6001600160a01b031691823b156200257a57839260248492845195869384926324fdf68960e11b84528035908401525af19081156200257157506200255e5750f35b620025699062002ee8565b620005635780f35b513d84823e3d90fd5b505050fd5b5050fd5b838234620005e25781600319360112620005e25760325490516001600160a01b039091168152602090f35b8334620005635760203660031901126200056357620025cc62002ea3565b6006546001600160a01b039190620025e8908316331462002f6e565b166001600160601b0360a01b600754161760075580f35b83346200056357602036600319011262000563576200261d62002ea3565b6006546001600160a01b03919062002639908316331462002f6e565b166001600160601b0360a01b603354161760335580f35b838234620005e25781600319360112620005e25760025490516001600160a01b039091168152602090f35b838234620005e25781600319360112620005e25760145490516001600160a01b039091168152602090f35b838234620005e25781600319360112620005e25760135490516001600160a01b039091168152602090f35b838234620005e25781600319360112620005e25760345490516001600160a01b039091168152602090f35b83346200056357602036600319011262000563576200271a62002ea3565b6006546001600160a01b03919062002736908316331462002f6e565b166001600160601b0360a01b602f541617602f5580f35b83346200056357602036600319011262000563576200276b62002ea3565b6006546001600160a01b03919062002787908316331462002f6e565b166001600160601b0360a01b602054161760205580f35b9250346200257f5760203660031901126200257f57620027bd62002dfe565b905460039190911b1c6001600160a01b0316803b156200257a576024849284519586938492633676bd1f60e01b84528035908401525af190811562002571575062002806575080f35b620007e79062002ee8565b83346200056357602036600319011262000563576200282f62002ea3565b6006546001600160a01b0391906200284b908316331462002f6e565b166001600160601b0360a01b602a541617602a5580f35b838234620005e25781600319360112620005e25760225490516001600160a01b039091168152602090f35b8334620005635760203660031901126200056357620028ab62002ea3565b6006546001600160a01b039190620028c7908316331462002f6e565b166001600160601b0360a01b602654161760265580f35b838234620005e25781600319360112620005e25760235490516001600160a01b039091168152602090f35b83346200056357602036600319011262000563576200292762002ea3565b6006546001600160a01b03919062002943908316331462002f6e565b166001600160601b0360a01b601354161760135580f35b838234620005e25781600319360112620005e25760255490516001600160a01b039091168152602090f35b8334620005635760203660031901126200056357620029a362002ea3565b6006546001600160a01b039190620029bf908316331462002f6e565b166001600160601b0360a01b602354161760235580f35b8334620005635760203660031901126200056357620029f462002ea3565b6006546001600160a01b03919062002a10908316331462002f6e565b166001600160601b0360a01b601c541617601c5580f35b833462000563576020366003190112620005635762002a4562002ea3565b6006546001600160a01b03919062002a61908316331462002f6e565b166001600160601b0360a01b603054161760305580f35b838234620005e25781600319360112620005e25760065490516001600160a01b039091168152602090f35b8334620005635760603660031901126200056357620007e762002ac562002ea3565b62002acf62002eba565b62002ad962002ed1565b9162002af160018060a01b0360065416331462002f6e565b62002fd6565b833462000563576020366003190112620005635762002b1562002ea3565b6006546001600160a01b03919062002b31908316331462002f6e565b166001600160601b0360a01b601f541617601f5580f35b833462000563576020366003190112620005635762002b6662002ea3565b6006546001600160a01b03919062002b82908316331462002f6e565b166001600160601b0360a01b600954161760095580f35b833462000563576020366003190112620005635762002bb762002ea3565b6006546001600160a01b03919062002bd3908316331462002f6e565b166001600160601b0360a01b601d541617601d5580f35b833462000563576020366003190112620005635762002c0862002ea3565b6006546001600160a01b03919062002c24908316331462002f6e565b166001600160601b0360a01b603254161760325580f35b838234620005e25781600319360112620005e25760355490516001600160a01b039091168152602090f35b833462000563576020366003190112620005635762002c8462002ea3565b6006546001600160a01b03919062002ca0908316331462002f6e565b166001600160601b0360a01b602d541617602d5580f35b833462000563576020366003190112620005635762002cd562002ea3565b6006546001600160a01b03919062002cf1908316331462002f6e565b166001600160601b0360a01b602154161760215580f35b838234620005e25781600319360112620005e257602a5490516001600160a01b039091168152602090f35b833462000563576020366003190112620005635762002d5162002ea3565b6006546001600160a01b03919062002d6d908316331462002f6e565b166001600160601b0360a01b602554161760255580f35b9091503462000ab757602036600319011262000ab757359160085483101562000563575062000b426020925b60085481101562002de85760086000527ff3f7a9fe364faab93b216da50a3214154f22a0a2b415b23a84c8169e8b636ee30190600090565b634e487b7160e01b600052603260045260246000fd5b6008541562002de85760086000527ff3f7a9fe364faab93b216da50a3214154f22a0a2b415b23a84c8169e8b636ee390600090565b60175481101562002de85760176000527fc624b66cc0138b8fabc209247f72d758e1cf3343756d543badbf24212bed8c150190600090565b60165481101562002de85760166000527fd833147d7dc355ba459fc788f669e58cfaf9dc25ddcd0702e87d69c7b51242890190600090565b600435906001600160a01b038216820362001da857565b602435906001600160a01b038216820362001da857565b604435906001600160a01b038216820362001da857565b67ffffffffffffffff811162002efd57604052565b634e487b7160e01b600052604160045260246000fd5b90601f8019910116810190811067ffffffffffffffff82111762002efd57604052565b606090600319011262001da8576001600160a01b0390600435828116810362001da85791602435908116810362001da8579060443590565b1562002f7657565b60405162461bcd60e51b815260206004820152600f60248201526e6f776e2e6e6f6e617574682e44414f60881b6044820152606490fd5b60085490600160401b82101562002efd576200065282600162002fd4940160085562002db0565b565b90601654600160401b81101562002efd57826200065282600162002ffe940160165562002e6b565b6001600160a01b0392839182168062003067575b5016806200303f575b50168060005260186020526040600020906001600160601b0360a01b825416179055565b600052601860205260406000208282166001600160601b0360a01b825416179055386200301b565b600052601860205260406000208284166001600160601b0360a01b8254161790553862003012565b9081602091031262001da857516001600160a01b038116810362001da8579056fe6080346100ca57601f61157738819003918201601f19168301916001600160401b038311848410176100cf578084926020946040528339810103126100ca57516001600160a01b038116908190036100ca5780156100855760018060a01b0319338160015416176001556000541617600055600160035560405161149190816100e68239f35b60405162461bcd60e51b815260206004820152601360248201527f6f776e2e696e76616c69642e68657862617365000000000000000000000000006044820152606490fd5b600080fd5b634e487b7160e01b600052604160045260246000fdfe60806040526004361015610018575b361561001657005b005b60003560e01c806312065fe0146101385780631f185d16146101335780633b9b79551461012e5780636ec35cd5146101295780638da5cb5b146101245780638dab13dc1461011f5780639b03bea61461011a5780639fb2726b14610115578063a1f7f53914610110578063a8ce509b1461010b578063acbd63af14610106578063af48452614610101578063b90306ad146100fc578063c54e44b0146100f7578063d7a83fc6146100f2578063e01ad5fd146100ed578063e0a9bc2b146100e85763fdc10bc90361000e57610b82565b610b67565b610ac8565b610a89565b6109f0565b61093d565b61090c565b6108c2565b61068e565b6105af565b6104b9565b610472565b61041f565b6103f6565b6102ed565b610293565b61016a565b3461015457600036600319011261015457602047604051908152f35b600080fd5b6001600160a01b0381160361015457565b34610154576020806003193601126101545760049081359061018b82610159565b60005481906101aa906001600160a01b03165b6001600160a01b031690565b604051634bf9c0ad60e11b815294859182905afa91821561028e5761020161023b9361021d9261024d9660009261025b575b506040516001600160a01b03909116858201908152909261020f918491602090910190565b03601f198101845283610c68565b6102176111d7565b90611347565b919080610251575b61022e90611204565b8082518301019101610feb565b60405190151581529081906020820190565b0390f35b5081518114610225565b61020f91925061028090863d8811610287575b6102788183610c68565b810190610c8a565b91906101dc565b503d61026e565b610c9f565b34610154576000366003190112610154576000546040516001600160a01b039091168152602090f35b9181601f840112156101545782359167ffffffffffffffff8311610154576020808501948460051b01011161015457565b346101545760603660031901126101545767ffffffffffffffff6004358181116101545761031f9036906004016102bc565b6024929192358281116101545761033a9036906004016102bc565b9092604435908111610154576103549036906004016102bc565b939092610367610362611000565b610d0a565b6103703361112b565b8015610389575b9561038461001697610d4b565b610dc7565b50600054604051630536340960e21b81526001600160a01b039791602090829060049082908c165afa801561028e5761001698610384926000926103d6575b503391161491975050610377565b6103ef91925060203d8111610287576102788183610c68565b90386103c8565b34610154576000366003190112610154576001546040516001600160a01b039091168152602090f35b346101545760203660031901126101545760043561043c81610159565b6001600160a01b039081166000908152600660209081526040808320546007835292819020548151938516845290931690820152f35b346101545760203660031901126101545760043561048f81610159565b60018060a01b031660005260086020526020604060002054604051908152f35b8015150361015457565b346101545760803660031901126101545767ffffffffffffffff600435818111610154576104eb9036906004016102bc565b91602435908111610154576105049036906004016102bc565b60443591610511836104af565b61051c610362611000565b6105253361112b565b8015610542575b9461053961001696610d4b565b60643594610ea1565b50600054604051630536340960e21b81526001600160a01b039691602090829060049082908b165afa801561028e57610016976105399260009261058f575b50339116149196505061052c565b6105a891925060203d8111610287576102788183610c68565b9038610581565b346101545760003660031901126101545760005460405163d1f956b160e01b815290602090829060049082906001600160a01b03165afa90811561028e5761024d9161063891600091610648575b5060405161060a81610c2b565b601381527267657464656c656761746f72436f756e74282960681b6020820152610632610cc7565b9161141d565b6040519081529081906020820190565b610660915060203d8111610287576102788183610c68565b386105fd565b60409060031901126101545760043561067e81610159565b9060243561068b81610159565b90565b346101545761069c36610666565b6001600160a01b03919082821615610864576106f66106f26106eb336106d48560018060a01b03166000526004602052604060002090565b9060018060a01b0316600052602052604060002090565b5460ff1690565b1590565b6108b05760008054909390610713906001600160a01b031661019e565b604051809163ab6e844f60e01b825281600460209485935afa90811561028e57869182918291610893575b506040516345145fd760e01b8582019081526001600160a01b038916602480840191909152825290610771604482610c68565b51915afa61077d610cda565b90158015610888575b6108765761019e81836107a29461019e94518301019101610c8a565b1561086457816108087fae0545a793105c92763ffd2d1a106bc1e148f147ed5796b8706ba246e751d30d936107e98660018060a01b03166000526006602052604060002090565b80546001600160a01b0319166001600160a01b03909216919091179055565b6001600160a01b038416600090815260076020526040902061082b9033906107e9565b3360009081526005602052604090206108459085906107e9565b604080513381526001600160a01b03959095166020860152911692a280f35b60405163d92e233d60e01b8152600490fd5b604051633842fc7360e21b8152600490fd5b508181511415610786565b6108aa9150843d8611610287576102788183610c68565b3861073e565b604051633a3c22ef60e11b8152600490fd5b3461015457602060ff6109006108d736610666565b6001600160a01b0391821660009081526004865260408082209290931681526020919091522090565b54166040519015158152f35b3461015457602036600319011261015457602061093360043561092e81610159565b61112b565b6040519015158152f35b3461015457602036600319011261015457600054604051630536340960e21b8152906001600160a01b03906020908390600490829085165afa91821561028e576000926109d0575b503391160361099957610016600435611276565b60405162461bcd60e51b815260206004820152600f60248201526e6f776e2e6e6f6e617574682e44414f60881b6044820152606490fd5b6109e991925060203d8111610287576102788183610c68565b9038610985565b3461015457602036600319011261015457600435610a0d81610159565b803b6000610a1a82610cab565b92610a286040519485610c68565b82845260208401903c602d815110610a4e57602a015160405160609190911c8152602090f35b60405162461bcd60e51b81526020600482015260136024820152724e6f742061206d696e696d616c2070726f787960681b6044820152606490fd5b34610154576020366003190112610154576020600435610aa881610159565b60018060a01b038091166000526005825260406000205416604051908152f35b34610154576020806003193601126101545760048035610ae781610159565b60005460405163d1f956b160e01b81526001600160a01b03949093909182918591829088165afa90811561028e5761024d9461023b94600093610b48575b506040519316818401528252610b3a82610c2b565b610b42611249565b906113e1565b610b60919350823d8411610287576102788183610c68565b9138610b25565b34610154576000366003190112610154576020610933611000565b346101545760003660031901126101545760005460405163111ea8c160e21b815290602090829060049082906001600160a01b03165afa90811561028e5761024d9161063891600091610bf7575b50604051610bdd81610c2b565b6005815264616765282960d81b6020820152610632610cc7565b610c0f915060203d8111610287576102788183610c68565b38610bd0565b634e487b7160e01b600052604160045260246000fd5b6040810190811067ffffffffffffffff821117610c4757604052565b610c15565b6020810190811067ffffffffffffffff821117610c4757604052565b90601f8019910116810190811067ffffffffffffffff821117610c4757604052565b90816020910312610154575161068b81610159565b6040513d6000823e3d90fd5b67ffffffffffffffff8111610c4757601f01601f191660200190565b60405190610cd482610c4c565b60008252565b3d15610d05573d90610ceb82610cab565b91610cf96040519384610c68565b82523d6000602084013e565b606090565b15610d1157565b60405162461bcd60e51b81526020600482015260126024820152716f776e2e696e76616c69642e69735361666560701b6044820152606490fd5b15610d5257565b60405162461bcd60e51b815260206004820152601b60248201527f6f776e2e6e6f6e617574682e44414f6f725365637572656261736500000000006044820152606490fd5b9190811015610da75760051b0190565b634e487b7160e01b600052603260045260246000fd5b3561068b81610159565b939490929192818303610e5757600091825b848110610dea575050505050505050565b80610df8600192848b610d97565b35610e02816104af565b610e0d82868b610d97565b35610e1781610159565b838060a01b031686526004602052610e4260408720610e37848a8c610d97565b35906106d482610159565b9060ff80198354169115151617905501610dd9565b6040516001621398b960e31b03198152600490fd5b634e487b7160e01b600052601160045260246000fd5b91908203918211610e8f57565b610e6c565b91908201809211610e8f57565b9291828203610e575760005b828110610ebd5750505050505050565b8515610f6d5786610ef4610eda610ed584878a610d97565b610dbd565b6001600160a01b0316600090815260096020526040902090565b5403610f0c5760405163e391354960e01b8152600490fd5b8087610f21610eda610ed5600195888b610d97565b55610f2d818685610d97565b35610f64610f5c610f42610ed585898c610d97565b6001600160a01b0316600090815260086020526040902090565b918254610e94565b90555b01610ead565b80610f7b6001928685610d97565b35610f98610f90610f42610ed585898c610d97565b918254610e82565b9055610f67565b15610fa657565b60405162461bcd60e51b815260206004820152601960248201527f6f776e2e7361666567756172642e63616c6c2e6661696c6564000000000000006044820152606490fd5b90816020910312610154575161068b816104af565b600054604051634bf9c0ad60e11b8152906020908190839060049082906001600160a01b03165afa91821561028e5761068b9261107691600091611091575b5060405161104c81610c2b565b6008815267697353616665282960c01b848201526040519161106d83610c4c565b60008352611347565b919080611087575b61022e90610f9f565b508151811461107e565b6110a89150833d8511610287576102788183610c68565b3861103f565b604051906110bb82610c2b565b601582527469735365637572654261736528616464726573732960581b6020830152565b156110e657565b60405162461bcd60e51b815260206004820152601a60248201527f6f776e2e736563757265626173652e63616c6c2e6661696c65640000000000006044820152606490fd5b6000546001600160a01b0316604051918291634bf9c0ad60e11b835282600460209485935afa92831561028e5761068b9361119992610201926000926111b4575b506040516001600160a01b039091168582019081529092611191918491602090910190565b6102176110ae565b9190806111aa575b61022e906110df565b50815181146111a1565b6111919192506111d090863d8811610287576102788183610c68565b919061116c565b604051906111e482610c2b565b601182527069735369676e657228616464726573732960781b6020830152565b1561120b57565b60405162461bcd60e51b81526020600482015260166024820152751bdddb8b9cda59db995c8b98d85b1b0b99985a5b195960521b6044820152606490fd5b6040519061125682610c2b565b6011825270697364656c656761746f724e6f6465282960781b6020830152565b600080546040516311be646b60e21b815290602090829060049082906001600160a01b03165afa90811561028e578284819382938391611329575b505af16112bc610cda565b50156112f25760405190815233907fcdcc745fe377b103b45fa0cec23ae3ef93d6fc6a84a01f0d18c40b354dd1d5d890602090a2565b60405162461bcd60e51b815260206004820152600f60248201526e1bdddb8b989d5c9b8b99985a5b1959608a1b6044820152606490fd5b611341915060203d8111610287576102788183610c68565b386112b1565b9190823b156113c8578051906020918263ffffffff60e01b92012016916040519180830193845281519160005b8381106113b45750505091816113a160248260009795968897018783820152036004810184520182610c68565b5191620dbba0fa6113b0610cda565b9091565b818101830151858201602401528201611374565b5050506000906040516113da81610c4c565b6000815290565b92916113ef91600094611347565b9080611412575b6113fd5750565b61068b91925060208082518301019101610feb565b5060208151146113f6565b929161142b91600094611347565b9080611450575b6114395750565b909150602081805181010312610154576020015190565b50602081511461143256fea2646970667358221220a41292d1bf514b0bb9c38e84645c6f467c5d0f17ded59cc094597e03f877a46764736f6c63430008140033604060808152346200021a5762001125803803806200001e8162000235565b928339810160a0828203126200021a5762000039826200025b565b602090620000498285016200025b565b91620000578686016200025b565b9462000066606082016200025b565b608082015190916001600160401b0391908282116200021a57019580601f880112156200021a5786519182116200021f5760059682881b908580620000ad81850162000235565b8096815201928201019283116200021a5785809101915b838310620001ff575050506001600160a01b039283169790508715620001bb5782908160018060a01b03199760019a338a8d5416178c556000998a54161789558160ff19988c8a60035416176003551689528987528b89208b8982541617905516875289872089878254161790551685528785208785825416179055805195855b8781106200015c578951610eb49081620002718239f35b8251811015620001a75780821b83018501518416875260048552898720805487168a17905560001981146200019357880162000145565b634e487b7160e01b87526011600452602487fd5b634e487b7160e01b87526032600452602487fd5b885162461bcd60e51b815260048101859052601360248201527f6f776e2e696e76616c69642e68657862617365000000000000000000000000006044820152606490fd5b81906200020c846200025b565b8152019101908590620000c4565b600080fd5b634e487b7160e01b600052604160045260246000fd5b6040519190601f01601f191682016001600160401b038111838210176200021f57604052565b51906001600160a01b03821682036200021a5756fe60806040526004361015610018575b361561001657005b005b60003560e01c806312065fe0146101285780631d0c00e4146101235780631f185d161461011e5780633b9b7955146101195780636a276f9d146101145780637df73e271461010f57806384a8d0451461010a5780638da5cb5b14610105578063a1f7f53914610100578063af484526146100fb578063b90306ad146100f6578063c54e44b0146100f1578063dc3163e8146100ec578063e01ad5fd146100e7578063e0a9bc2b146100e2578063ef9eab9d146100dd5763fdc10bc90361000e576109c5565b610983565b6108e1565b610842565b6107bf565b610726565b610627565b610552565b61049b565b610472565b6103dc565b61039a565b610377565b61034e565b61023a565b61018c565b3461014457600036600319011261014457602047604051908152f35b600080fd5b6001600160a01b0381160361014457565b8015150361014457565b60409060031901126101445760043561017c81610149565b906024356101898161015a565b90565b3461014457600461019c36610164565b60008054604051630536340960e21b8152919491936001600160a01b039290916020918691829086165afa93841561023557610204946101e7918791610207575b5083163314610cbe565b1683526004602052604083209060ff801983541691151516179055565b80f35b610228915060203d811161022e575b6102208183610aab565b810190610acd565b386101dd565b503d610216565b610ae2565b34610144576020806003193601126101445760049081359061025b82610149565b600054819061027a906001600160a01b03165b6001600160a01b031690565b604051634bf9c0ad60e11b815294859182905afa918215610235576102d161030b936102ed9261031d9660009261032b575b506040516001600160a01b0390911685820190815290926102df918491602090910190565b03601f198101845283610aab565b6102e7610c1f565b90610d6a565b919080610321575b6102fe90610c4c565b8082518301019101610b8d565b60405190151581529081906020820190565b0390f35b50815181146102f5565b6102df91925061034790863d881161022e576102208183610aab565b91906102ac565b34610144576000366003190112610144576000546040516001600160a01b039091168152602090f35b3461014457600036600319011261014457602060ff600354166040519015158152f35b34610144576020366003190112610144576004356103b781610149565b60018060a01b03166000526005602052602060ff604060002054166040519015158152f35b34610144576020366003190112610144576004356103f98161015a565b600054604051630536340960e21b8152906001600160a01b03906020908390600490829085165afa9081156102355761043d92600092610452575b50163314610cbe565b60ff8019600354169115151617600355600080f35b61046b91925060203d811161022e576102208183610aab565b9038610434565b34610144576000366003190112610144576001546040516001600160a01b039091168152602090f35b346101445760003660031901126101445760005460405163d1f956b160e01b815290602090829060049082906001600160a01b03165afa9081156102355761031d9161052491600091610534575b506040516104f681610a6e565b601381527267657464656c656761746f72436f756e74282960681b602082015261051e610b0a565b91610e40565b6040519081529081906020820190565b61054c915060203d811161022e576102208183610aab565b386104e9565b34610144576020806003193601126101445760049081359061057382610149565b600054819061058a906001600160a01b031661026e565b604051634bf9c0ad60e11b815294859182905afa918215610235576102d161030b936105e99261031d96600092610604575b506040516001600160a01b0390911685820190815290926105e1918491602090910190565b6102e7610ba2565b9190806105fa575b6102fe90610bd3565b50815181146105f1565b6105e191925061062090863d881161022e576102208183610aab565b91906105bc565b34610144576020806003193601126101445760043560018060a01b0391600092808454169060405191630536340960e21b83528383600481845afa92831561023557600493859361068192899261070e5750163314610cbe565b6040516311be646b60e21b815292839182905afa918215610235578480856106c0958295839584926106f1575b50505af16106ba610cfc565b50610d2c565b60405190815233907fcdcc745fe377b103b45fa0cec23ae3ef93d6fc6a84a01f0d18c40b354dd1d5d890602090a280f35b6107079250803d1061022e576102208183610aab565b38806106ae565b61046b919250853d871161022e576102208183610aab565b346101445760203660031901126101445760043561074381610149565b803b600061075082610aee565b9261075e6040519485610aab565b82845260208401903c602d81511061078457602a015160405160609190911c8152602090f35b60405162461bcd60e51b81526020600482015260136024820152724e6f742061206d696e696d616c2070726f787960681b6044820152606490fd5b34610144576107cd36610164565b60018060a01b03600092600460208386541660405192838092630536340960e21b82525afa80156102355761080c918691610207575083163314610cbe565b168252600560205261082d81604084209060ff801983541691151516179055565b156108355780f35b60ff196003541660035580f35b3461014457602080600319360112610144576004803561086181610149565b60005460405163d1f956b160e01b81526001600160a01b03949093909182918591829088165afa9081156102355761031d9461030b946000936108c2575b5060405193168184015282526108b482610a6e565b6108bc610c91565b90610e04565b6108da919350823d841161022e576102208183610aab565b913861089f565b3461014457600036600319011261014457600054604051634bf9c0ad60e11b8152906020908190839060049082906001600160a01b03165afa9081156102355761094b61030b9261031d94600091610966575b5061093d610b1d565b610945610b0a565b91610d6a565b91908061095c575b6102fe90610b41565b5081518114610953565b61097d9150833d851161022e576102208183610aab565b38610934565b34610144576020366003190112610144576004356109a081610149565b60018060a01b03166000526004602052602060ff604060002054166040519015158152f35b346101445760003660031901126101445760005460405163111ea8c160e21b815290602090829060049082906001600160a01b03165afa9081156102355761031d9161052491600091610a3a575b50604051610a2081610a6e565b6005815264616765282960d81b602082015261051e610b0a565b610a52915060203d811161022e576102208183610aab565b38610a13565b634e487b7160e01b600052604160045260246000fd5b6040810190811067ffffffffffffffff821117610a8a57604052565b610a58565b6020810190811067ffffffffffffffff821117610a8a57604052565b90601f8019910116810190811067ffffffffffffffff821117610a8a57604052565b90816020910312610144575161018981610149565b6040513d6000823e3d90fd5b67ffffffffffffffff8111610a8a57601f01601f191660200190565b60405190610b1782610a8f565b60008252565b60405190610b2a82610a6e565b6008825267697353616665282960c01b6020830152565b15610b4857565b60405162461bcd60e51b815260206004820152601960248201527f6f776e2e7361666567756172642e63616c6c2e6661696c6564000000000000006044820152606490fd5b9081602091031261014457516101898161015a565b60405190610baf82610a6e565b601582527469735365637572654261736528616464726573732960581b6020830152565b15610bda57565b60405162461bcd60e51b815260206004820152601a60248201527f6f776e2e736563757265626173652e63616c6c2e6661696c65640000000000006044820152606490fd5b60405190610c2c82610a6e565b601182527069735369676e657228616464726573732960781b6020830152565b15610c5357565b60405162461bcd60e51b81526020600482015260166024820152751bdddb8b9cda59db995c8b98d85b1b0b99985a5b195960521b6044820152606490fd5b60405190610c9e82610a6e565b6011825270697364656c656761746f724e6f6465282960781b6020830152565b15610cc557565b60405162461bcd60e51b815260206004820152600f60248201526e6f776e2e6e6f6e617574682e44414f60881b6044820152606490fd5b3d15610d27573d90610d0d82610aee565b91610d1b6040519384610aab565b82523d6000602084013e565b606090565b15610d3357565b60405162461bcd60e51b815260206004820152600f60248201526e1bdddb8b989d5c9b8b99985a5b1959608a1b6044820152606490fd5b9190823b15610deb578051906020918263ffffffff60e01b92012016916040519180830193845281519160005b838110610dd7575050509181610dc460248260009795968897018783820152036004810184520182610aab565b5191620dbba0fa610dd3610cfc565b9091565b818101830151858201602401528201610d97565b505050600090604051610dfd81610a8f565b6000815290565b9291610e1291600094610d6a565b9080610e35575b610e205750565b61018991925060208082518301019101610b8d565b506020815114610e19565b9291610e4e91600094610d6a565b9080610e73575b610e5c5750565b909150602081805181010312610144576020015190565b506020815114610e5556fea26469706673582212205ef1f19277c7ad61d936ef75f655974131bfd15d31935f12b58771063b2fafd864736f6c63430008140033a26469706673582212203f208395f7c38eaa6e8c299b189da0b6e91e035ea8af32bb6f329e48321d35d164736f6c63430008140033","linkReferences":{}},"methodIdentifiers":{"addOrc1155(address,address,address)":"1477e194","addOrc1155Prime(bytes,address)":"b113bd20","addProposer(address)":"b03cd418","daoassembly()":"d1f956b1","daocore()":"14d8d024","getProposalsCount()":"98e527d3","importBusiness(uint256)":"49fbed12","importuser(uint256)":"3676bd1f","in741()":"ab6e844f","in741Old()":"447aa304","in741Prime()":"a66bcbe2","in741PrimeOld()":"447bf0e2","in741Primev3Old()":"bd811bce","in741Rule()":"cfbffe53","in741RuleOld()":"bb245896","in741RulePrime()":"e1f4cd24","in741RulePrimeOld()":"efed51bb","inDEAD()":"46f991ac","inDeployerAService()":"677494d8","inDeployerAsRoot()":"de433f17","inImportForgePrimeold()":"e7531fc0","inInstance()":"e61dfd58","inInstancePrime()":"af233190","inInstanceStor()":"e09d394d","inNftFactory()":"08a887af","inNftProxy()":"43af1d9d","inOrc1155(uint256)":"b771c896","inOrc1155Old(uint256)":"c16addd0","inOrc1155OldV1(uint256)":"5c727e80","inOrc1155Prime(uint256)":"595e1dd2","inOrc1155PrimeOld()":"a7acacf8","inOrc1155PrimeOldV1()":"b3a86ab0","inOrc1155machinebullold()":"a5b277f2","inPrice()":"d3d1b096","inPrimeData()":"01c0d48b","inPrimeProxy()":"a0b8cbb8","inTransferPrimeold()":"f144dff0","inTransferold()":"c5a90db1","inTreaseryFactory()":"5e09dbe7","inTreaseryTVLMining()":"aa0ddc16","inTreaseryTVLMiningImport()":"21c82677","inTreaseryTVLMiningPrime()":"6b4aefc6","inTreaseryTVLReward()":"64027427","inTreaseryTVLRoyality()":"30125cf5","inTreaseryTVLTour()":"24768d91","inTreaseryTVLValidator()":"9dc969a8","inblank()":"448f3eef","infactoryold()":"5ad64af1","infactoryprimeold()":"da1be7d0","insafeguard()":"97f3815a","insafeguardOld()":"51ffe4c5","insafeguardPrime()":"af0deb95","insafeguardPrimeOld()":"a7d7fa50","invalidator()":"52b06d64","mapOldORC1155(address)":"cfaa1f6c","mapOldORC1155Prime(address)":"ed15cbf7","proposals(uint256)":"013cf08b","s1()":"6cc014de","s2()":"a314150f","s3()":"a5d666a9","submit(address,address,address,address,address)":"a11abe2a","update741(address)":"aeb14020","update741Old(address)":"236b0402","update741Prime(address)":"fc58f353","update741PrimeOld(address)":"66658584","update741Primev3Old(address)":"8360701d","update741Rule(address)":"753e7d33","update741RuleOld(address)":"507aa64f","update741RulePrime(address)":"cfacc010","update741RulePrimeOld(address)":"74dfe236","updateDAOAssembly(address)":"45d96de8","updateDAOCore(address)":"891e91a5","updateDEAD(address)":"0a4c9939","updateFactoryOld(address)":"42ac8f79","updateFactoryPrimeOld(address)":"1654f331","updateImportForgePrimeold(address)":"74fad9f9","updateInTransferOld(address)":"a2672aa8","updateInTransferPrimeOld(address)":"069f3e72","updateInstance(address)":"275424d0","updateInstancePrime(address)":"839a47a4","updateInstanceStor(address)":"6fa16598","updateNftProxy(address)":"f6065649","updateOrc1155(address,address,uint256)":"cc7cf18e","updateOrc1155MachineBullOld(address)":"c7bb7d4d","updateOrc1155Prime(address,address,uint256)":"ef140ed3","updateOrc1155PrimeOld(address)":"1a47ded5","updateOrc1155PrimeOldV1(address)":"0c32145a","updatePrice(address)":"96e85ced","updatePrimeData(address)":"335ab5f2","updatePrimeProxy(address)":"4588d010","updateProposals(address,uint256)":"e0cf4e9e","updateSafeguard(address)":"1162a5b1","updateSafeguardOld(address)":"a0449f45","updateSafeguardPrime(address)":"a9d5ae6f","updateSafeguardPrimeOld(address)":"9669f18f","updateTreaseryFactory(address)":"70ee2af8","updateTreaseryTVLMiningImport(address)":"014519e6","updateTreaseryTVLValidator(address)":"4b849a54","updateTreasuryTVLMining(address)":"130fba6d","updateTreasuryTVLMiningPrime(address)":"36c24c46","updateTreasuryTVLReward(address)":"05abae0d","updateTreasuryTVLRoyality(address)":"e2576819","updateTreasuryTVLTour(address)":"1b67970a","updateValidator(address)":"635b2770"},"id":34}