{"abi":[{"type":"constructor","inputs":[{"name":"_hex","type":"address","internalType":"address"},{"name":"_price","type":"address","internalType":"address"},{"name":"_old741","type":"address","internalType":"address"}],"stateMutability":"nonpayable"},{"type":"function","name":"dAOAssembly","inputs":[],"outputs":[{"name":"","type":"address","internalType":"address"}],"stateMutability":"view"},{"type":"function","name":"daocore","inputs":[],"outputs":[{"name":"","type":"address","internalType":"address"}],"stateMutability":"view"},{"type":"function","name":"nested741","inputs":[],"outputs":[{"name":"","type":"address","internalType":"address"}],"stateMutability":"view"},{"type":"function","name":"old741","inputs":[],"outputs":[{"name":"","type":"address","internalType":"address"}],"stateMutability":"view"},{"type":"function","name":"price","inputs":[],"outputs":[{"name":"","type":"address","internalType":"address"}],"stateMutability":"view"}],"bytecode":{"object":"0x6080346101b757601f61790038819003918201601f19168301926001600160401b03929091838511838610176101a15781606092849260409788528339810103126101b75761004d816101bc565b6100648461005d602085016101bc565b93016101bc565b9160018060a01b03199273c0cee8b561cc4f60869776ca5b0b7a295e04f5af846001541617600155855161121a9586820196828810828911176101a15761032c83396001600160a01b039485168088526000979092908190036020019088f080156101835785168660035416176003558751614710808201908282108483111761018d5760209183916131f0833985815203019088f08015610183578516866002541617600255875191611caa808401928484109084111761016f579183916020936115468439815203019086f080156101655790838092168560045416176004551683600154161760015516908254161790555161015b90816101d18239f35b86513d87823e3d90fd5b634e487b7160e01b89526041600452602489fd5b88513d89823e3d90fd5b634e487b7160e01b8a52604160045260248afd5b634e487b7160e01b600052604160045260246000fd5b600080fd5b51906001600160a01b03821682036101b75756fe608080604052600436101561001357600080fd5b600090813560e01c90816314837455146100fc5750806314d8d024146100d357806345cff900146100aa5780635540c5ac146100815763a035b1fe1461005857600080fd5b3461007e578060031936011261007e57546040516001600160a01b039091168152602090f35b80fd5b503461007e578060031936011261007e576001546040516001600160a01b039091168152602090f35b503461007e578060031936011261007e576002546040516001600160a01b039091168152602090f35b503461007e578060031936011261007e576004546040516001600160a01b039091168152602090f35b9050346101215781600319360112610121576003546001600160a01b03168152602090f35b5080fdfea264697066735822122070d88acacb1f935923569a2f6dee1f382bc9356816356b603be856cfe943dd2964736f6c634300081400336080346100ca57601f61121a38819003918201601f19168301916001600160401b038311848410176100cf578084926020946040528339810103126100ca57516001600160a01b038116908190036100ca5780156100855760018060a01b0319338160015416176001556000541617600055600060045560405161113490816100e68239f35b60405162461bcd60e51b815260206004820152601360248201527f6f776e2e696e76616c69642e68657862617365000000000000000000000000006044820152606490fd5b600080fd5b634e487b7160e01b600052604160045260246000fdfe60806040526004361015610018575b361561001657005b005b60003560e01c806312065fe0146101085780631f185d161461010357806325924f34146100fe5780633b9b7955146100f957806361b7fbd9146100f45780638da5cb5b146100ef578063a1f7f539146100ea578063af484526146100e5578063b90306ad146100e0578063c54e44b0146100db578063c89b84fd146100d6578063dbac26e9146100d1578063e01ad5fd146100cc578063e0a9bc2b146100c75763fdc10bc90361000e57610988565b6108e6565b610847565b610805565b6106f2565b610659565b610552565b61047d565b6103c6565b61039d565b6102c7565b610294565b610263565b61013a565b3461012457600036600319011261012457602047604051908152f35b600080fd5b6001600160a01b0381160361012457565b34610124576020806003193601126101245760049081359061015b82610129565b600054819061017a906001600160a01b03165b6001600160a01b031690565b604051634bf9c0ad60e11b815294859182905afa91821561025e576101d161020b936101ed9261021d9660009261022b575b506040516001600160a01b0390911685820190815290926101df918491602090910190565b03601f1981018452836109fe565b6101e7610e02565b90610fa6565b919080610221575b6101fe90610e2f565b8082518301019101610d70565b60405190151581529081906020820190565b0390f35b50815181146101f5565b6101df91925061025090863d8811610257575b61024881836109fe565b810190610a20565b91906101ac565b503d61023e565b610a38565b3461012457602036600319011261012457602061028a60043561028581610129565b610b13565b6040519015158152f35b34610124576000366003190112610124576000546040516001600160a01b039091168152602090f35b8015150361012457565b34610124576040366003190112610124576004356102e481610129565b6024356102f0816102bd565b60018060a01b03600092600460208386541660405192838092630536340960e21b82525afa801561025e5761033091869161037f575b5083163314610cc2565b16825260036020526040822060ff1981541660ff8315151617905560001461036c5760045460001981146103675760010160045580f35b610c9e565b6004548015610367576000190160045580f35b610397915060203d81116102575761024881836109fe565b38610326565b34610124576000366003190112610124576001546040516001600160a01b039091168152602090f35b346101245760003660031901126101245760005460405163d1f956b160e01b815290602090829060049082906001600160a01b03165afa90811561025e5761021d9161044f9160009161045f575b50604051610421816109c1565b601381527267657464656c656761746f72436f756e74282960681b6020820152610449610a60565b916110c0565b6040519081529081906020820190565b610477915060203d81116102575761024881836109fe565b38610414565b34610124576020806003193601126101245760049081359061049e82610129565b60005481906104b5906001600160a01b031661016e565b604051634bf9c0ad60e11b815294859182905afa91821561025e576101d161020b936105149261021d9660009261052f575b506040516001600160a01b03909116858201908152909261050c918491602090910190565b6101e7610d85565b919080610525575b6101fe90610db6565b508151811461051c565b61050c91925061054b90863d88116102575761024881836109fe565b91906104e7565b34610124576020806003193601126101245760043560018060a01b0391600092808454169060405191630536340960e21b83528383600481845afa92831561025e5760049385936105ad92899261063a575b50163314610cc2565b6040516311be646b60e21b815292839182905afa91821561025e578480856105ec9582958395849261061d575b50505af16105e6610f38565b50610f68565b60405190815233907fcdcc745fe377b103b45fa0cec23ae3ef93d6fc6a84a01f0d18c40b354dd1d5d890602090a280f35b6106339250803d106102575761024881836109fe565b38806105da565b610652919250853d87116102575761024881836109fe565b90386105a4565b346101245760203660031901126101245760043561067681610129565b803b600061068382610a44565b9261069160405194856109fe565b82845260208401903c602d8151106106b757602a015160405160609190911c8152602090f35b60405162461bcd60e51b81526020600482015260136024820152724e6f742061206d696e696d616c2070726f787960681b6044820152606490fd5b3461012457600080600319360112610802578054610718906001600160a01b031661016e565b60405163cfbffe5360e01b815260209290918383600481845afa801561025e57610758859160049585916107e5575b50610750610a73565b610449610a60565b916040519485809263ab6e844f60e01b82525afa801561025e5761021d9461044f946107bd94926107c2575b506107af906101d1610794610e74565b94604051958693840160209093929193604081019481520152565b6107b7610c65565b906110c0565b610cb4565b8192506107de906107af923d85116102575761024881836109fe565b9190610784565b6107fc9150833d85116102575761024881836109fe565b38610747565b80fd5b346101245760203660031901126101245760043561082281610129565b60018060a01b03166000526003602052602060ff604060002054166040519015158152f35b3461012457602080600319360112610124576004803561086681610129565b60005460405163d1f956b160e01b81526001600160a01b03949093909182918591829088165afa90811561025e5761021d9461020b946000936108c7575b5060405193168184015282526108b9826109c1565b6108c1610eff565b90611084565b6108df919350823d84116102575761024881836109fe565b91386108a4565b3461012457600036600319011261012457600054604051634bf9c0ad60e11b8152906020908190839060049082906001600160a01b03165afa90811561025e5761095061020b9261021d9460009161096b575b50610942610d00565b61094a610a60565b91610fa6565b919080610961575b6101fe90610d24565b5081518114610958565b6109829150833d85116102575761024881836109fe565b38610939565b346101245760003660031901126101245760206109a3610e74565b604051908152f35b634e487b7160e01b600052604160045260246000fd5b6040810190811067ffffffffffffffff8211176109dd57604052565b6109ab565b6020810190811067ffffffffffffffff8211176109dd57604052565b90601f8019910116810190811067ffffffffffffffff8211176109dd57604052565b908160209103126101245751610a3581610129565b90565b6040513d6000823e3d90fd5b67ffffffffffffffff81116109dd57601f01601f191660200190565b60405190610a6d826109e2565b60008252565b60405190610a80826109c1565b600c82526b72616e6b666f7244414f282960a01b6020830152565b60405190610aa8826109c1565b601682527567657455736572546f53746f7228616464726573732960501b6020830152565b60405190610ada826109c1565b600682526572616e6b282960d01b6020830152565b60405190610afc826109c1565b600882526769734c6f636b282960c01b6020830152565b600054610b28906001600160a01b031661016e565b9060405163cfbffe5360e01b81526020908181600481875afa801561025e57610b5f83916004936000916107e55750610750610a73565b946040519283809263ab6e844f60e01b82525afa801561025e57610bb8928492600092610c42575b506040516001600160a01b03909316908301908152610baa9083906020016101d1565b610bb2610a9b565b90611040565b916001600160a01b03831615610c3a57610bfc610be5610bd6610acd565b610bde610a60565b90866110c0565b93610bee610aef565b610bf6610a60565b91611084565b9210159182610c31575b5081610c10575090565b6001600160a01b031660009081526003602052604090205460ff1615905090565b15915038610c06565b505050600090565b819250610c5e90610baa923d85116102575761024881836109fe565b9190610b87565b60405190610c72826109c1565b601d82527f67657472616e6b636f756e742875696e743235362c75696e74323536290000006020830152565b634e487b7160e01b600052601160045260246000fd5b906003820180921161036757565b15610cc957565b60405162461bcd60e51b815260206004820152600f60248201526e6f776e2e6e6f6e617574682e44414f60881b6044820152606490fd5b60405190610d0d826109c1565b6008825267697353616665282960c01b6020830152565b15610d2b57565b60405162461bcd60e51b815260206004820152601960248201527f6f776e2e7361666567756172642e63616c6c2e6661696c6564000000000000006044820152606490fd5b908160209103126101245751610a35816102bd565b60405190610d92826109c1565b601582527469735365637572654261736528616464726573732960581b6020830152565b15610dbd57565b60405162461bcd60e51b815260206004820152601a60248201527f6f776e2e736563757265626173652e63616c6c2e6661696c65640000000000006044820152606490fd5b60405190610e0f826109c1565b601182527069735369676e657228616464726573732960781b6020830152565b15610e3657565b60405162461bcd60e51b81526020600482015260166024820152751bdddb8b9cda59db995c8b98d85b1b0b99985a5b195960521b6044820152606490fd5b60005460405163111ea8c160e21b815290602090829060049082906001600160a01b03165afa801561025e57610a3591600091610ee1575b50604051610eb9816109c1565b6005815264616765282960d81b602082015260405191610ed8836109e2565b600083526110c0565b610ef9915060203d81116102575761024881836109fe565b38610eac565b60405190610f0c826109c1565b601882527f697364656c656761746f724e6f646528616464726573732900000000000000006020830152565b3d15610f63573d90610f4982610a44565b91610f5760405193846109fe565b82523d6000602084013e565b606090565b15610f6f57565b60405162461bcd60e51b815260206004820152600f60248201526e1bdddb8b989d5c9b8b99985a5b1959608a1b6044820152606490fd5b9190823b15611027578051906020918263ffffffff60e01b92012016916040519180830193845281519160005b838110611013575050509181611000602482600097959688970187838201520360048101845201826109fe565b5191620dbba0fa61100f610f38565b9091565b818101830151858201602401528201610fd3565b505050600090604051611039816109e2565b6000815290565b929161104e91600094610fa6565b9080611079575b61105c5750565b909150602081805181010312610124576020015161016e81610129565b506020815114611055565b929161109291600094610fa6565b90806110b5575b6110a05750565b610a3591925060208082518301019101610d70565b506020815114611099565b92916110ce91600094610fa6565b90806110f3575b6110dc5750565b909150602081805181010312610124576020015190565b5060208151146110d556fea264697066735822122050756a2820c283297632e47ac756de6dc1bd53b9aef862877f3349322df3de2a64736f6c634300081400336080346100cf57601f611caa38819003918201601f19168301916001600160401b038311848410176100d4578084926020946040528339810103126100cf57516001600160a01b038116908190036100cf57801561008a5760018060a01b031933816001541617600155600054161760005560006003556001600455604051611bbf90816100eb8239f35b60405162461bcd60e51b815260206004820152601360248201527f6f776e2e696e76616c69642e68657862617365000000000000000000000000006044820152606490fd5b600080fd5b634e487b7160e01b600052604160045260246000fdfe60806040526004361015610018575b361561001657005b005b60003560e01c8063013cf08b1461016857806312065fe0146101635780631f185d161461015e5780633595df1a146101595780633b9b795514610154578063438596321461014f57806365153c4b1461014a5780638da5cb5b1461014557806398e527d314610140578063995e43391461013b578063a1f7f53914610136578063af48452614610131578063b90306ad1461012c578063c54e44b014610127578063c7f758a814610122578063c9d27afe1461011d578063d153356b14610118578063d3a3084914610113578063e01ad5fd1461010e578063e0a9bc2b146101095763fdc10bc90361000e57610fae565b610f93565b610f6c565b610d1e565b610c4e565b610ada565b610a6b565b610994565b6108e1565b6107cd565b6107aa565b610726565b610708565b6106df565b6105e9565b61057b565b610552565b610515565b6104e4565b6104b7565b610403565b6005548110156101a857600b906005600052027f036b6384b5eca791c62761152d0c79bb0604c104a5fb6f4eb0703f3154bb3db00190600090565b634e487b7160e01b600052603260045260246000fd5b90600182811c921680156101ee575b60208310146101d857565b634e487b7160e01b600052602260045260246000fd5b91607f16916101cd565b9060009291805491610209836101be565b91828252600193848116908160001461026b575060011461022b575b50505050565b90919394506000526020928360002092846000945b838610610257575050505001019038808080610225565b805485870183015294019385908201610240565b9294505050602093945060ff191683830152151560051b01019038808080610225565b634e487b7160e01b600052604160045260246000fd5b6020810190811067ffffffffffffffff8211176102c057604052565b61028e565b6040810190811067ffffffffffffffff8211176102c057604052565b90601f8019910116810190811067ffffffffffffffff8211176102c057604052565b9061031e61031792604051938480926101f8565b03836102e1565b565b60005b8381106103335750506000910152565b8181015183820152602001610323565b9060209161035c81518092818552858086019101610320565b601f01601f1916010190565b9892956103bb959e9d9b956103fb99936101809c9661031e9f9a949960408e61039c6103f19d6101a0808452830190610343565b6001600160a01b03909516602082015201528c820360608e0152610343565b60808b019f909f5260a08a015260c089015260e088015261010087015215156101208601526001600160a01b0316610140850152565b1515610160830152565b019015159052565b346104b25760203660031901126104b2576004356005548110156104b25761042a9061016d565b506040519061043d8261031781846101f8565b600181015460028201546001600160a01b039182169390926104ae929061046660038201610303565b9560048201549160058101546006820154600783015491600a6008850154940154956040519b8c9b8c9760ff8a60b01c169b60ff808c60a81c169c8c60081c169b1699610368565b0390f35b600080fd5b346104b25760003660031901126104b257602047604051908152f35b6001600160a01b038116036104b257565b346104b25760203660031901126104b257602061050b600435610506816104d3565b611633565b6040519015158152f35b346104b25760203660031901126104b257600435600019810190811161054d57600561054260209261016d565b500154604051908152f35b6110e5565b346104b25760003660031901126104b2576000546040516001600160a01b039091168152602090f35b346104b25760403660031901126104b25760043560243561059b816104d3565b600019820191821161054d576105d360ff9160096105ba60209561016d565b50019060018060a01b0316600052602052604060002090565b54166040519015158152f35b801515036104b257565b346104b25760403660031901126104b257600435602435610609816105df565b61061233611633565b156106a55760001982019180831161054d576106a06106336100169461016d565b503360009081526009820160205260409020546106539060ff1615611240565b61068c600a8201549161066c60ff8460b01c16156111fc565b61067860ff841661117d565b60076106826116df565b91015411156112c1565b60081c6001600160a01b0316331415611280565b611312565b60405162461bcd60e51b815260206004820152601260248201527137bbb71734b73b30b634b21739b4b3b732b960711b6044820152606490fd5b346104b25760003660031901126104b2576001546040516001600160a01b039091168152602090f35b346104b25760003660031901126104b2576020600554604051908152f35b346104b25760203660031901126104b257600435600019810190811161054d5761074f9061016d565b506004810154600682015460078301546008840154600a9094015460408051948552602085019390935291830152606082019290925260ff60a883901c81161515608083015260b09290921c909116151560a082015260c090f35b346104b25760003660031901126104b25760206107c561184c565b604051908152f35b346104b2576020806003193601126104b2576004908135906107ee826104d3565b60005481906001600160a01b0316604051634bf9c0ad60e11b815294859182905afa9182156108dc5761085361088d9361086f926104ae966000926108a9575b506040516001600160a01b039091168582019081529092610861918491602090910190565b03601f1981018452836102e1565b610869611544565b906119dd565b91908061089f575b61088090611575565b8082518301019101611481565b60405190151581529081906020820190565b5081518114610877565b6108619192506108ce90863d88116108d5575b6108c681836102e1565b8101906113f5565b919061082e565b503d6108bc565b61140d565b346104b25760203660031901126104b257600054604051630536340960e21b8152906001600160a01b03906020908390600490829085165afa9182156108dc57600092610974575b503391160361093d5761001660043561190c565b60405162461bcd60e51b815260206004820152600f60248201526e6f776e2e6e6f6e617574682e44414f60881b6044820152606490fd5b61098d91925060203d81116108d5576108c681836102e1565b9038610929565b346104b25760203660031901126104b2576004356109b1816104d3565b803b60006109be82611419565b926109cc60405194856102e1565b82845260208401903c602d8151106109f257602a015160405160609190911c8152602090f35b60405162461bcd60e51b81526020600482015260136024820152724e6f742061206d696e696d616c2070726f787960681b6044820152606490fd5b93610a466080949796939260a0875260a0870190610343565b6001600160a01b03928316602087015260408601979097521660608401521515910152565b346104b25760203660031901126104b257600435600019810190811161054d57610a949061016d565b5060018060a01b036104ae81600184015416926103176002820154610ac4600a84015493604051938480926101f8565b60405195869560ff85169460081c169286610a2d565b346104b25760403660031901126104b257600435602435610afa816105df565b610b0333611633565b8015610c2b575b610b1390611129565b610c00610bf3610b2a610b258561116e565b61016d565b50600a81015490610b3d60ff831661117d565b610b546007820154610b4d6116df565b11156111bd565b610b6460ff8360b01c16156111fc565b610ba1600982019261068c610b9c610b98610b9133889060018060a01b0316600052602052604060002090565b5460ff1690565b1590565b611240565b60008515610c26575060015b610bbf60ff600484019216825461111c565b9055600085610c185750610bde60ff60066001935b019216825461111c565b90553360009081526020919091526040902090565b805460ff19166001179055565b610c0933611633565b610c0f57005b61001691611312565b60ff6006610bde9293610bd4565b610bad565b50610c34611496565b8015610b0a5750610b13610c473361176a565b9050610b0a565b346104b25760403660031901126104b257610c67611496565b15610cb657333003610c8157600480356003556024359055005b60405162461bcd60e51b815260206004820152600d60248201526c64616f2e66616b652e636f726560981b6044820152606490fd5b60405162461bcd60e51b81526020600482015260126024820152716f776e2e696e76616c69642e69735361666560701b6044820152606490fd5b9181601f840112156104b25782359167ffffffffffffffff83116104b257602083818601950101116104b257565b346104b25760a03660031901126104b25767ffffffffffffffff6004358181116104b257610d50903690600401610cf0565b602435610d5c816104d3565b6064358481116104b257610d74903690600401610cf0565b9390926001600160a01b03831615610f325760055491680100000000000000008310156102c057610dac60019384810160055561016d565b509682116102c057610dc882610dc289546101be565b89610fc9565b600090601f8311600114610eb85793600a969383610e9f999794610e2794610e3898600092610ead575b5050600019600383901b1c191690821b1787555b860180546001600160a01b0319166001600160a01b03909216919091179055565b60443560028501556003840161101d565b610e5e610e57610e52610e4961184c565b600354906110fb565b61110e565b6064900490565b6008820155610e76608435610e716116df565b61111c565b6007820155018054610100600160a81b0319163360081b610100600160a81b0316178155610bf3565b600554604051908152602090f35b013590503880610df2565b601f19831691610ecd89600052602060002090565b92815b818110610f1c57509484610e2794610e3898948394610e9f9d9b98600a9d9a10610f02575b505050811b018755610e06565b0135600019600384901b60f8161c19169055388080610ef5565b8383013585559386019360209283019201610ed0565b60405162461bcd60e51b815260206004820152601260248201527137bbb7173232b330bab63a1739b2b73232b960711b6044820152606490fd5b346104b25760203660031901126104b257602061050b600435610f8e816104d3565b61176a565b346104b25760003660031901126104b257602061050b611496565b346104b25760003660031901126104b25760206107c56116df565b90601f8111610fd757505050565b600091825260208220906020601f850160051c83019410611013575b601f0160051c01915b82811061100857505050565b818155600101610ffc565b9092508290610ff3565b90929167ffffffffffffffff81116102c0576110438161103d84546101be565b84610fc9565b6000601f821160011461107d5781929394600092611072575b50508160011b916000199060031b1c1916179055565b01359050388061105c565b601f1982169461109284600052602060002090565b91805b8781106110cd5750836001959697106110b3575b505050811b019055565b0135600019600384901b60f8161c191690553880806110a9565b90926020600181928686013581550194019101611095565b634e487b7160e01b600052601160045260246000fd5b8181029291811591840414171561054d57565b906063820180921161054d57565b9190820180921161054d57565b1561113057565b60405162461bcd60e51b815260206004820152601660248201527564616f2e6e6f6e617574682e64656c656761746f727360501b6044820152606490fd5b60001981019190821161054d57565b1561118457565b60405162461bcd60e51b815260206004820152601160248201527019185bcb9c1c9bdc0b9b9bdd195e1a5cdd607a1b6044820152606490fd5b156111c457565b60405162461bcd60e51b815260206004820152601060248201526f19185bcb9d9bdd1a5b99cb995b99195960821b6044820152606490fd5b1561120357565b60405162461bcd60e51b815260206004820152601560248201527419185bcb985b1c9958591e4b98dbdb5c1b195d1959605a1b6044820152606490fd5b1561124757565b60405162461bcd60e51b815260206004820152601160248201527019185bcb985b1c9958591e4b9d9bdd1959607a1b6044820152606490fd5b1561128757565b60405162461bcd60e51b815260206004820152601260248201527119185bcb9d9bdd195c8b9c995cdd1c9a58dd60721b6044820152606490fd5b156112c857565b60405162461bcd60e51b815260206004820152601360248201527264616f2e6265666f72652e646561646c696e6560681b6044820152606490fd5b600019811461054d5760010190565b610b2561131e9161116e565b506005810161132d8154611303565b8091556004541480156113ed575b611343575050565b600a8101805460ff60b01b1916600160b01b1781556113ad9261138891816113da575b816113b057805460ff60a81b191691151560a81b60ff60a81b16919091179055565b60018101546001600160a01b03166113a7600360028401549301610303565b90611aca565b50565b60048401546006850154109150805460ff60a81b191691151560a81b60ff60a81b16919091179055565b6004840154600885015411159150611366565b50811561133b565b908160209103126104b2575161140a816104d3565b90565b6040513d6000823e3d90fd5b67ffffffffffffffff81116102c057601f01601f191660200190565b1561143c57565b60405162461bcd60e51b815260206004820152601960248201527f6f776e2e7361666567756172642e63616c6c2e6661696c6564000000000000006044820152606490fd5b908160209103126104b2575161140a816105df565b600054604051634bf9c0ad60e11b8152906020908190839060049082906001600160a01b03165afa9182156108dc5761140a9261150c91600091611527575b506040516114e2816102c5565b6008815267697353616665282960c01b8482015260405191611503836102a4565b600083526119dd565b91908061151d575b61088090611435565b5081518114611514565b61153e9150833d85116108d5576108c681836102e1565b386114d5565b60405190611551826102c5565b601582527469735365637572654261736528616464726573732960581b6020830152565b1561157c57565b60405162461bcd60e51b815260206004820152601a60248201527f6f776e2e736563757265626173652e63616c6c2e6661696c65640000000000006044820152606490fd5b604051906115ce826102c5565b601182527069735369676e657228616464726573732960781b6020830152565b156115f557565b60405162461bcd60e51b81526020600482015260166024820152751bdddb8b9cda59db995c8b98d85b1b0b99985a5b195960521b6044820152606490fd5b6000546001600160a01b0316604051918291634bf9c0ad60e11b835282600460209485935afa9283156108dc5761140a936116a192610853926000926116bc575b506040516001600160a01b039091168582019081529092611699918491602090910190565b6108696115c1565b9190806116b2575b610880906115ee565b50815181146116a9565b6116999192506116d890863d88116108d5576108c681836102e1565b9190611674565b60005460405163111ea8c160e21b815290602090829060049082906001600160a01b03165afa80156108dc5761140a9160009161174c575b50604051611724816102c5565b6005815264616765282960d81b602082015260405191611743836102a4565b60008352611a5b565b611764915060203d81116108d5576108c681836102e1565b38611717565b60005460405163d1f956b160e01b8152916020916001600160a01b039083908590600490829085165afa9384156108dc57600094611827575b506040519116828201528181526117fa906117bd816102c5565b6040516117c9816102c5565b601881527f697364656c656761746f724e6f64652861646472657373290000000000000000848201526000946119dd565b91908061181d575b61180b57505090565b61140a92508082518301019101611481565b5080825114611802565b6117fa9291945061184490843d86116108d5576108c681836102e1565b9390916117a3565b60005460405163d1f956b160e01b815290602090829060049082906001600160a01b03165afa80156108dc5761140a916000916118be575b50604051611891816102c5565b601381527267657464656c656761746f72436f756e74282960681b602082015260405191611743836102a4565b6118d6915060203d81116108d5576108c681836102e1565b38611884565b3d15611907573d906118ed82611419565b916118fb60405193846102e1565b82523d6000602084013e565b606090565b600080546040516311be646b60e21b815290602090829060049082906001600160a01b03165afa9081156108dc5782848193829383916119bf575b505af16119526118dc565b50156119885760405190815233907fcdcc745fe377b103b45fa0cec23ae3ef93d6fc6a84a01f0d18c40b354dd1d5d890602090a2565b60405162461bcd60e51b815260206004820152600f60248201526e1bdddb8b989d5c9b8b99985a5b1959608a1b6044820152606490fd5b6119d7915060203d81116108d5576108c681836102e1565b38611947565b803b15611a4257600092839263ffffffff60e01b90602081519101201690611a2f6024604051809360208201958652611a1f8151809260208686019101610320565b81010360048101845201826102e1565b5191620dbba0fa611a3e6118dc565b9091565b505050600090604051611a54816102a4565b6000815290565b9291611a69916000946119dd565b9080611a8e575b611a775750565b9091506020818051810103126104b2576020015190565b506020815114611a70565b906020825192015163ffffffff60e01b908181169360048110611abb57505050565b60040360031b82901b16169150565b9091906001600160a01b03811615611b4f57600091829184519160208601915af190611af46118dc565b9115611afe575090565b805160009190600411611b4957611b159150611a99565b815115611b255750805190602001fd5b604051630870274d60e21b81526001600160e01b0319919091166004820152602490fd5b50611b15565b60405162461bcd60e51b81526020600482015260126024820152711bdddb8b9a5b9d985b1a590b9d185c99d95d60721b6044820152606490fdfea264697066735822122049c3fdfe4ac8f46cf3e7e20f92bac465391e4491282a86c13792387ce14b70cc64736f6c63430008140033608034620000d157601f6200471038819003918201601f19168301916001600160401b03831184841017620000d657808492602094604052833981010312620000d157516001600160a01b03811690819003620000d15780156200008c5760018060a01b031933816001541617600155600054161760005560016003556040516146239081620000ed8239f35b60405162461bcd60e51b815260206004820152601360248201527f6f776e2e696e76616c69642e68657862617365000000000000000000000000006044820152606490fd5b600080fd5b634e487b7160e01b600052604160045260246000fdfe60806040526004361015610018575b361561001657005b005b60003560e01c80629db65514610307578063033eeffb146103025780630e5fd00b146102fd57806312065fe0146102f85780631bb49f02146102f35780631c53c280146102ee5780631f185d16146102e95780632a687c87146102e45780632fefc0bf146102df57806332ff4eab146102da57806333b59a5b146102d55780633a7b55b8146102d05780633b9b7955146102cb5780633baee0ea146102c6578063419cb27b146102c157806342cc9d57146102bc57806344585097146102b75780634f0f4aa9146102b2578063509222cd146102ad57806350db85d1146102a857806361ea7208146102a3578063629d671e1461029e5780636a8112441461029957806376fe6c451461029457806380f85e331461028f578063849c22ad1461028a578063896c354a146102855780638da5cb5b1461028057806395f72f491461027b57806398b3f21514610276578063a1f7f53914610271578063a87af7691461026c578063a89d693b14610267578063af48452614610262578063b1c490791461025d578063b366335e14610258578063b90306ad14610253578063c54e44b01461024e578063c871372b14610249578063d1e0bbc614610244578063dcb3fc4a1461023f578063e01ad5fd1461023a578063e0a9bc2b14610235578063eb95c66214610230578063f3ca71241461022b578063fd38093b146102265763fdc10bc90361000e5761213c565b6120cc565b6120a0565b612074565b612059565b611fba565b611df9565b611dbf565b611d42565b611ca9565b611bf6565b611ba0565b611a8e565b611a67565b611948565b611853565b611792565b611766565b6116bc565b611693565b611653565b611624565b6115ea565b61159b565b611154565b611117565b6110f9565b611036565b610fe3565b610ef9565b610ec2565b610e93565b610e59565b6109c5565b610974565b610808565b610730565b610686565b61064f565b6105a0565b61047b565b610447565b6103e2565b6103c6565b610377565b61033a565b346103355760203660031901126103355760025460001981019081116103305761001690613ad4565b612398565b600080fd5b3461033557602036600319011261033557600435600052600b6020526020604060002054604051908152f35b6001600160a01b0381160361033557565b3461033557602036600319011261033557602060043561039681610366565b60018060a01b03809116600052600482526040600020546000526007825260046040600020015416604051908152f35b3461033557600036600319011261033557602047604051908152f35b34610335576020366003190112610335576004356103ff81610366565b6001600160a01b0390811660009081526004602090815260408083205483526007825280832060020154808452600583529281902054815193845290931690820152f35b0390f35b34610335576020366003190112610335576004356000526005602052602060018060a01b0360406000205416604051908152f35b34610335576020806003193601126103355760049081359061049c82610366565b60005481906104bb906001600160a01b03165b6001600160a01b031690565b604051634bf9c0ad60e11b815294859182905afa91821561059b5761051261054c9361052e9261044396600092610568575b506040516001600160a01b039091168582019081529092610520918491602090910190565b03601f198101845283612207565b610528614147565b906143a9565b91908061055e575b61053f90614174565b8082518301019101613f5b565b60405190151581529081906020820190565b5081518114610536565b61052091925061058d90863d8811610594575b6105858183612207565b81019061242d565b91906104ed565b503d61057b565b612442565b34610335576040366003190112610335576105c16105bc613f70565b6123ec565b6105ca3361409b565b80156105e8575b6105da9061244e565b610016602435600435613cef565b50600054604051630536340960e21b8152906001600160a01b03906020908390600490829085165afa90811561059b576105da9260009261062f575b5016331490506105d1565b61064891925060203d8111610594576105858183612207565b9038610624565b34610335576020366003190112610335576004356000526007602052602060018060a01b0360056040600020015416604051908152f35b34610335576040366003190112610335576106a26105bc613f70565b6106ab3361409b565b80156106c9575b6106bb9061244e565b610016602435600435613d43565b50600054604051630536340960e21b8152906001600160a01b03906020908390600490829085165afa90811561059b576106bb92600092610710575b5016331490506106b2565b61072991925060203d8111610594576105858183612207565b9038610705565b346103355760403660031901126103355761074c6105bc613f70565b6107553361409b565b8015610773575b6107659061244e565b610016602435600435613dd6565b50600054604051630536340960e21b8152906001600160a01b03906020908390600490829085165afa90811561059b57610765926000926107ba575b50163314905061075c565b6107d391925060203d8111610594576105858183612207565b90386107af565b60e0810192916000915b600783106107f157505050565b6001908251815260208091019201920191906107e4565b34610335576020366003190112610335576104436004356109626109526040519261083284612196565b60e036853761085e61084e826000526009602052604060002090565b6001600052602052604060002090565b548452610888610878826000526009602052604060002090565b6002600052602052604060002090565b5460208501526108b56108a5826000526009602052604060002090565b6003600052602052604060002090565b5460408501526108e26108d2826000526009602052604060002090565b6004600052602052604060002090565b54606085015261090f6108ff826000526009602052604060002090565b6005600052602052604060002090565b54608085015261093c61092c826000526009602052604060002090565b6006600052602052604060002090565b5460a08501526000526009602052604060002090565b6007600052602052604060002090565b5460c0820152604051918291826107da565b34610335576000366003190112610335576000546040516001600160a01b039091168152602090f35b6040906003190112610335576004356109b581610366565b906024356109c281610366565b90565b3461033557610a246109d63661099d565b6109de6123c9565b6109f76109e9612258565b6109f1612270565b33614443565b91610a45610a0e610a06612258565b6109f1612293565b6001600160a01b039584871695871686146122bb565b6000548690610a3d9082166001600160a01b03166104af565b911614612307565b610a50831515612cd7565b6001600160a01b038216600090815260046020526040902054158015610e4e575b610a7a90612d19565b6001600160a01b0381166000908152600460205260409020610a9e90541515612d5c565b610ae16005610ad3610ac28460018060a01b03166000526004602052604060002090565b546000526007602052604060002090565b01546001600160a01b031690565b6040805163880cdc3160e01b6020808301919091526001600160a01b03861660248084019190915282529196919592601f1991610b2891610b23604483612207565b614532565b50610b506104af6004610ad3610ac28860018060a01b03166000526004602052604060002090565b15610d1557610c6d95610bad91610b23610b846004610ad3610ac28a60018060a01b03166000526004602052604060002090565b8a5162e6724f60e21b948101949094523360248501529183604481015b03908101845283612207565b505b6001600160a01b0383811660009081526004602090815260408083205493881683528083208490559282526005905220610c059085905b80546001600160a01b0319166001600160a01b03909216919091179055565b610c4a336004610c2a610ac28860018060a01b03166000526004602052604060002090565b0180546001600160a01b0319166001600160a01b03909216919091179055565b821603610cf7575b506001600160a01b0316600090815260046020526040902090565b54610443610c8a6005610ad3846000526007602052604060002090565b92610cc6610cb96002610ca7866000526007602052604060002090565b01546000526005602052604060002090565b546001600160a01b031690565b90610cd16001600355565b519283526001600160a01b03938416602084015290921660408201529081906060820190565b6001600160a01b031660009081526004602052604081205538610c52565b600054600496908190610d30906001600160a01b03166104af565b895163111ea8c160e21b815298899182905afa96871561059b57610c6d97610d9491600091610e31575b5089516001600160a01b038816848201908152909190610d869083906020015b03868101845283612207565b610d8e612da8565b90614443565b838116151580610e27575b610dac575b505050610baf565b8851634fb2e45d60e01b83820152336024820152610e1e93610b2391610de690610de0816044810103848101835282612207565b84614532565b508a5193630a3e884b60e41b9085015283610ba160248201906007606060808401936000815260006020820152600060408201520152565b50388080610da4565b5080311515610d9f565b610e489150833d8511610594576105858183612207565b38610d5a565b508084168314610a71565b34610335576020366003190112610335576020610e89600435600052600760205260ff6001604060002001541690565b6040519015158152f35b346103355760203660031901126103355760043560005260076020526020600360406000200154604051908152f35b34610335576020366003190112610335576004356000526007602052602060018060a01b0360046040600020015416604051908152f35b3461033557602036600319011261033557600435806000526007602052604060002054600560205261044360018060a01b0380604060002054169360076020526040600020916004600284015493015416610f636005610ad3846000526007602052604060002090565b906003610f9b610f8a6001610f82876000526007602052604060002090565b015460ff1690565b946000526007602052604060002090565b0154604080519788526001600160a01b03988916602089015287019490945286166060860152909416608084015292151560a083015260c082019290925290819060e0820190565b346103355760203660031901126103355760043561100081610366565b60018060a01b031660005260046020526040600020546000526007602052602060ff600160406000200154166040519015158152f35b34610335576110443661099d565b61104f6105bc613f70565b6110583361409b565b801561108c575b9161106c6110719361244e565b61249a565b604080519283526001600160a01b0391909116602083015290f35b50600054604051630536340960e21b81526001600160a01b0393916020908290600490829088165afa801561059b576110719461106c926000926110d9575b50339116149193505061105f565b6110f291925060203d8111610594576105858183612207565b90386110cb565b34610335576000366003190112610335576020600654604051908152f35b346103355760203660031901126103355760043561113481610366565b60018060a01b031660005260046020526020604060002054604051908152f35b34610335576040806003193601126103355760048035906111736123c9565b61119461118f6001610f82856000526007602052604060002090565b612c33565b6111b96111b26104af83610ad3866000526007602052604060002090565b3314612dd7565b6111c16126e3565b6111da6005610ad3846000526007602052604060002090565b906002549284519361123761122960209663015042f960e11b8882015280611215602495863587840160209093929193604081019481520152565b0396610b23601f1998898101845283612207565b8680825183010191016134bc565b9384519561124a818701978851906123bc565b9461125a898801968751906123bc565b9361126b60608901958651906123bc565b9461127c60808a01968751906123bc565b9961129561129060e08c019c8d51906123bc565b613c95565b89516114f3575b805161144a575b5080516113a3575b5084516112ec575b8989610443896112c88a60c08e015190613762565b519151926112d66001600355565b5191825260208201929092529081906040820190565b6000549497939594929392849061130b906001600160a01b03166104af565b8b516313b92d3560e31b815293849182905afa97881561059b57610443986112c89760c0968d6113729660009461137c575b509351935163a9059cbb60e01b9181019190915233948101948552602085019390935291929091610b23918490604001610ba1565b50948293386112b3565b610b2394509061139b610ba192843d8611610594576105858183612207565b94509061133d565b600054839085906113bc906001600160a01b03166104af565b8d51635506ee0b60e11b815292839182905afa91821561059b57611422928d61141693600092611429575b509151915163a9059cbb60e01b88820152338682019081526020810193909352929091610b2391849160400190565b03888101845283612207565b50386112ab565b610b23925061144490893d8b11610594576105858183612207565b916113e7565b600054849086908e90611465906001600160a01b03166104af565b90516330125cf560e01b815292839182905afa91821561059b576114cb928e6114bf936000926114d2575b509151915163a9059cbb60e01b89820152338782019081526020810193909352929091610b2391849160400190565b03898101845283612207565b50386112a3565b610b2392506114ed908a3d8c11610594576105858183612207565b91611490565b600054849086908e9061150e906001600160a01b03166104af565b9051636402742760e01b815292839182905afa801561059b578b611568918f6115749460009261157a575b509151915163a9059cbb60e01b8a820152338882019081526020810193909352929091610b2391849160400190565b038a8101845283612207565b5061129c565b610b239250611595908b3d8d11610594576105858183612207565b91611539565b346103355760203660031901126103355760206004356115ba81610366565b60018060a01b03809116600052600482526040600020546000526007825260056040600020015416604051908152f35b3461033557604036600319011261033557600435600052600860205260406000206024356000526020526020604060002054604051908152f35b346103355760203660031901126103355760043560005260076020526020600260406000200154604051908152f35b3461033557604036600319011261033557600435600052600760205260206116846024356003604060002001612b0c565b90549060031b1c604051908152f35b34610335576000366003190112610335576001546040516001600160a01b039091168152602090f35b34610335576040366003190112610335576116d86105bc613f70565b6116e13361409b565b80156116ff575b6116f19061244e565b610016602435600435613d19565b50600054604051630536340960e21b8152906001600160a01b03906020908390600490829085165afa90811561059b576116f192600092611746575b5016331490506116e8565b61175f91925060203d8111610594576105858183612207565b903861173b565b3461033557602036600319011261033557600435600052600f6020526020604060002054604051908152f35b346103355760003660031901126103355760005460405163d1f956b160e01b815290602090829060049082906001600160a01b03165afa90811561059b576104439161181b9160009161182b575b506040516117ed816121b2565b601381527267657464656c656761746f72436f756e74282960681b6020820152611815612245565b916144c3565b6040519081529081906020820190565b611843915060203d8111610594576105858183612207565b386117e0565b8015150361033557565b346103355760603660031901126103355760243561187081610366565b60443561187c81611849565b6118876105bc613f70565b6118903361409b565b80156118ac575b916118a46100169361244e565b600435612f5d565b50600054604051630536340960e21b81526001600160a01b0393916020908290600490829088165afa801561059b57610016946118a4926000926118f9575b503391161491935050611897565b61191291925060203d8111610594576105858183612207565b90386118eb565b610100810192916000915b6008831061193157505050565b600190825181526020809101920192019190611924565b3461033557602036600319011261033557610443600435611a5561095261196d613c28565b92611994611985826000526008602052604060002090565b60008052602052604060002090565b5484526119ae61084e826000526008602052604060002090565b5460208501526119cb610878826000526008602052604060002090565b5460408501526119e86108a5826000526008602052604060002090565b546060850152611a056108d2826000526008602052604060002090565b546080850152611a226108ff826000526008602052604060002090565b5460a0850152611a3f61092c826000526008602052604060002090565b5460c08501526000526008602052604060002090565b5460e082015260405191829182611919565b34610335576020366003190112610335576020610e89600435611a8981610366565b61409b565b3461033557611b2c611a9f3661099d565b90611aa86123c9565b611af1611ab66109e9612258565b611ac1610a06612258565b906001600160a01b0390611ada908216868316146122bb565b600054610a3d9082166001600160a01b03166104af565b611b1d611b186001610f82610ac28560018060a01b03166000526004602052604060002090565b61234c565b611b2561269d565b3390612928565b611b456119856002546000526008602052604060002090565b611b4f81546123ae565b9055611b59613cc1565b611b726005610ad3836000526007602052604060002090565b90611b7c81612c77565b611b866001600355565b604080519182526001600160a01b03929092166020820152f35b3461033557602036600319011261033557611bb96141b9565b60025410611bd0575b610016600435600254612726565b611bd86141b9565b80600255600019810190811161033057611bf190613ad4565b611bc2565b3461033557602036600319011261033557600054604051630536340960e21b8152906001600160a01b03906020908390600490829085165afa91821561059b57600092611c89575b5033911603611c52576100166004356142ad565b60405162461bcd60e51b815260206004820152600f60248201526e6f776e2e6e6f6e617574682e44414f60881b6044820152606490fd5b611ca291925060203d8111610594576105858183612207565b9038611c3e565b3461033557602036600319011261033557600435611cc681610366565b803b6000611cd382612229565b92611ce16040519485612207565b82845260208401903c602d815110611d0757602a015160405160609190911c8152602090f35b60405162461bcd60e51b81526020600482015260136024820152724e6f742061206d696e696d616c2070726f787960681b6044820152606490fd5b604036600319011261033557600435611d596123c9565b6000908082526007602052611d7760ff600160408520015416612c33565b81526007602052611db660018060a01b036005604084200154166040519062a0e53360e51b6020830152602435602483015260248252610b2382612175565b50600160035580f35b3461033557604036600319011261033557600435600052600a60205260406000206024356000526020526020604060002054604051908152f35b346103355760c036600319011261033557602435600435611e1982610366565b6064359060843590611e296123c9565b611e4561118f6001610f82846000526007602052604060002090565b611e646111b26104af6004610ad3856000526007602052604060002090565b611e6c6126e3565b611e7582613c3d565b611e7e83613c69565b611efd611eef611215611ea06005610ad3866000526007602052604060002090565b604051634996516b60e11b6020808301919091526001600160a01b039099166024820152604480359082015260648101889052608481019690965260a4803590870152969490819060c4820190565b838082518301019101612e23565b9281611f1a575b5050611f109350613536565b6100166001600355565b60005460049291908190611f36906001600160a01b03166104af565b604051635e09dbe760e01b815294859182905afa801561059b57611f1097611f9194600092611f99575b5060405163a9059cbb60e01b9381019390935233602484015260448301939093529091610b23908360648101610ba1565b503880611f04565b610b239250611fb490843d8611610594576105858183612207565b91611f60565b34610335576020806003193601126103355760048035611fd981610366565b60005460405163d1f956b160e01b81526001600160a01b03949093909182918591829088165afa90811561059b576104439461054c9460009361203a575b50604051931681840152825261202c826121b2565b612034614244565b90614487565b612052919350823d8411610594576105858183612207565b9138612017565b34610335576000366003190112610335576020610e89613f70565b3461033557602036600319011261033557600435600052600c6020526020604060002054604051908152f35b3461033557602036600319011261033557600435600052600e6020526020604060002054604051908152f35b3461033557604080600319360112610335576004356120ea81610366565b6001600160a01b0316600081815260046020818152848320548352600b815284832054938352908152838220548252600a81528382206024358352815290839020549251918252810191909152604090f35b346103355760003660031901126103355760206121576141b9565b604051908152f35b634e487b7160e01b600052604160045260246000fd5b6060810190811067ffffffffffffffff82111761219157604052565b61215f565b60e0810190811067ffffffffffffffff82111761219157604052565b6040810190811067ffffffffffffffff82111761219157604052565b6020810190811067ffffffffffffffff82111761219157604052565b610100810190811067ffffffffffffffff82111761219157604052565b90601f8019910116810190811067ffffffffffffffff82111761219157604052565b67ffffffffffffffff811161219157601f01601f191660200190565b60405190612252826121ce565b60008252565b604051612264816121ce565b60008152906000368137565b6040519061227d826121b2565b60078252666f776e6572282960c81b6020830152565b604051906122a0826121b2565b600c82526b67657448657862617365282960a01b6020830152565b156122c257565b60405162461bcd60e51b815260206004820152601760248201527f6e65737465642e696e76616c69642e696e7374616e63650000000000000000006044820152606490fd5b1561230e57565b60405162461bcd60e51b81526020600482015260166024820152756e65737465642e696e76616c69642e6865786261736560501b6044820152606490fd5b1561235357565b60405162461bcd60e51b815260206004820152601860248201527f6e65737465642e706172656e742e6e6f742e65786973747300000000000000006044820152606490fd5b634e487b7160e01b600052601160045260246000fd5b906001820180921161033057565b9190820180921161033057565b6002600354146123da576002600355565b604051633ee5aeb560e01b8152600490fd5b156123f357565b60405162461bcd60e51b81526020600482015260126024820152716f776e2e696e76616c69642e69735361666560701b6044820152606490fd5b9081602091031261033557516109c281610366565b6040513d6000823e3d90fd5b1561245557565b60405162461bcd60e51b815260206004820152601b60248201527f6f776e2e6e6f6e617574682e44414f6f725365637572656261736500000000006044820152606490fd5b612547929161254d6004926124ad6123c9565b6124e06124db6124d76001610f82610ac28860018060a01b03166000526004602052604060002090565b1590565b6128d5565b6124f36124ee600654612919565b600655565b60065495869161251185610be6856000526005602052604060002090565b6001600160a01b038516600090815260046020526040902083905b556001600160a01b0316600090815260046020526040902090565b54612b6a565b61257682612565866000526007602052604060002090565b0180546001600160a01b0319169055565b60005460209061258e906001600160a01b03166104af565b60405163e09d394d60e01b815293849182905afa801561059b576125c16125d79161264194600091612670575b50612a8e565b6005610c2a876000526007602052604060002090565b6125f06005610ad3866000526007602052604060002090565b600054610b2390612609906001600160a01b03166104af565b6040516352902c5960e01b60208201526001600160a01b03918216602482015293166044840152606483018690528260848101610512565b506000828152600760205260409020600501546001600160a01b03169161266781612c77565b91906001600355565b612688915060203d8111610594576105858183612207565b386125bb565b60001981019190821161033057565b6126a56141b9565b600254106126bd575b6126bb6005600254612726565b565b6126c56141b9565b806002556000198101908111610330576126de90613ad4565b6126ae565b6126eb6141b9565b60025410612700575b6126bb60028054612726565b6127086141b9565b8060025560001981019081116103305761272190613ad4565b6126f4565b9061273e611985836000526008602052604060002090565b5415806128cb575b806128c2575b612754575050565b6127709061276a6127648461268e565b9161268e565b90612726565b61278f61198561277f8361268e565b6000526008602052604060002090565b546127a7611985836000526008602052604060002090565b556127b761084e61277f8361268e565b546127cf61084e836000526008602052604060002090565b556127df61087861277f8361268e565b546127f7610878836000526008602052604060002090565b556128076108a561277f8361268e565b5461281f6108a5836000526008602052604060002090565b5561282f6108d261277f8361268e565b546128476108d2836000526008602052604060002090565b556128576108ff61277f8361268e565b5461286f6108ff836000526008602052604060002090565b5561287f61092c61277f8361268e565b5461289761092c836000526008602052604060002090565b556128bf6109526128ad61095261277f8561268e565b54926000526008602052604060002090565b55565b5080151561274c565b5060018211612746565b156128dc57565b60405162461bcd60e51b81526020600482015260156024820152746e65737465642e616c72656164792e65786973747360581b6044820152606490fd5b60001981146103305760010190565b916129c06004926129ab612547956129606124db6124d76001610f82610ac28a60018060a01b03166000526004602052604060002090565b61296e6124ee600654612919565b60065496879161298c87610be6856000526005602052604060002090565b6001600160a01b0387166000908152600460205260409020839061252c565b83610c2a866000526007602052604060002090565b6000546020906129d8906001600160a01b03166104af565b60405163e09d394d60e01b815293849182905afa801561059b57612a0a612a2091612a8a946000916126705750612a8e565b6005610c2a866000526007602052604060002090565b612a396005610ad3856000526007602052604060002090565b600054610b2390612a52906001600160a01b03166104af565b6040516352902c5960e01b60208201526001600160a01b03918216602482015293166044840152606483018590528260848101610512565b5090565b6e5af43d82803e903d91602b57fd5bf390763d602d80600a3d3981f3363d3d373d3d3d363d7300000062ffffff8260881c161760005260781b17602052603760096000f0906001600160a01b03821615612ae457565b60405163b06ebf3d60e01b8152600490fd5b634e487b7160e01b600052603260045260246000fd5b8054821015612b245760005260206000200190600090565b612af6565b90815491680100000000000000008310156121915782612b519160016126bb95018155612b0c565b90919082549060031b91821b91600019901b1916179055565b91906000818152602093600785526040808320926002948386860155806001958681018760ff19825416179055558385905b612bab57505050505050509050565b612c05612bf482888a9414612c0e575b878652600a8c528686208187528c52868620612bd781546123ae565b9055878652600b8c52868620612bed81546123ae565b9055612919565b956000526007602052604060002090565b01549384612b9c565b612c2e856003612c288b6000526007602052604060002090565b01612b29565b612bbb565b15612c3a57565b60405162461bcd60e51b81526020600482015260156024820152746e65737465642e757365722e6e6f7461637469766560581b6044820152606490fd5b806000526007602052612c9460ff60016040600020015416612c33565b6000526007602052612cd460018060a01b03600560406000200154166040519062a0e53360e51b60208301526001602483015260248252610b2382612175565b50565b15612cde57565b60405162461bcd60e51b81526020600482015260136024820152726e65737465642e7a65726f2e6164647265737360681b6044820152606490fd5b15612d2057565b60405162461bcd60e51b81526020600482015260146024820152736e65737465642e7461726765742e65786973747360601b6044820152606490fd5b15612d6357565b60405162461bcd60e51b815260206004820152601760248201527f6e65737465642e736f757263652e6e6f744578697374730000000000000000006044820152606490fd5b60405190612db5826121b2565b601382527255736572546f496e737428616464726573732960681b6020830152565b15612dde57565b60405162461bcd60e51b815260206004820152601b60248201527f6e65737465642e757365722e696e76616c6964696e7374616e636500000000006044820152606490fd5b9190826040910312610335576020825192015190565b15612e4057565b60405162461bcd60e51b815260206004820152601860248201527f6e65737465642e757365722e6e6f742e646574616368656400000000000000006044820152606490fd5b15612e8c57565b60405162461bcd60e51b815260206004820152601760248201527f6e65737465642e706172656e742e6e6f746163746976650000000000000000006044820152606490fd5b15612ed857565b60405162461bcd60e51b815260206004820152601b60248201527f6e65737465642e757365722e616c726564792e646574616368656400000000006044820152606490fd5b8054908115612f475760001991820191612f378383612b0c565b909182549160031b1b1916905555565b634e487b7160e01b600052603160045260246000fd5b919091600192612f7e61118f85610f82856000526007602052604060002090565b826130f15750600292612fa884612f9f846000526007602052604060002090565b01541515612ed1565b6000815b612fd4575b505060006126bb93612fcd836000526007602052604060002090565b0155613222565b60038061300187612fef876000526007602052604060002090565b01546000526007602052604060002090565b01548210156130eb578361303b613031848461302b8b612fef876000526007602052604060002090565b01612b0c565b90549060031b1c90565b14613050575061304a90612919565b81612fac565b60009250806130c78793612b516130ad613031896130a7876130a06126bb9f612fef6130e59c61308e83612fef896000526007602052604060002090565b01956000526007602052604060002090565b015461268e565b90612b0c565b918461302b88612fef8c6000526007602052604060002090565b6130df83612fef876000526007602052604060002090565b01612f1d565b93612fb1565b50612fb1565b6126bb93506131729061311b6002613113856000526007602052604060002090565b015415612e39565b6001600160a01b0381166000908152600460205260409020613158906131539054600052600760205260ff6001604060002001541690565b612e85565b6001600160a01b0316600090815260046020526040902090565b546002613189836000526007602052604060002090565b01556131aa816003612c286002612fef846000526007602052604060002090565b613222565b604051906131bc826121b2565b600e82526d6c766c62732875696e743235362960901b6020830152565b604051906131e6826121b2565b600f82526e6c766c7174792875696e743235362960881b6020830152565b60ff1660ff81146103305760010190565b8015610330576000190190565b6132d160059161324083610ad3836000526007602052604060002090565b604080519161327f6020938061325d868201906000602083019252565b0392613271601f1994858101845283612207565b6132796131af565b906144c3565b916132bb61329b88610ad3886000526007602052604060002090565b8251906132b382610d7a898201906000602083019252565b6132796131d9565b9460029687916000526007602052604060002090565b0154946001978896875b6132ed575b5050505050505050505050565b600f60ff89161115806134b3575b156134ae5788878c868b878b886133236104af82610ad38c6000526007602052604060002090565b613355575b5050505050505061334661334e926000526007602052604060002090565b015497613204565b96896132db565b948894610b23946133df98946115689460036133976133866133ed9e9c610ad38d6000526007602052604060002090565b9a6000526007602052604060002090565b015499549351998a9763393a9f9560e01b908901526024880194919360ff9197969360a09560c088019988526020880152604087015216606085015260808401521515910152565b888082518301019101612e23565b908c1561345f57908a915b80821161341857505061334661334e925b925050878c868b878b88613328565b613423919250612919565b61344b8161343c8d546000526008602052604060002090565b90600052602052604060002090565b61345581546123ae565b9055908a916133f8565b908a915b81811161347857505061334661334e92613409565b6134958161343c6134a69495546000526008602052604060002090565b61349f815461268e565b9055613215565b908a91613463565b6132e0565b508015156132fb565b9061010080838303126103355781601f8401121561033557604051926134e1846121ea565b8391810192831161033557905b8282106134fb5750505090565b81518152602091820191016134ee565b60405190613518826121b2565b600f82526e66726565496e74657276616c73282960881b6020830152565b6000549193929091613550906001600160a01b03166104af565b936004602060409687519283809263cfbffe5360e01b82525afa801561059b5761358e91600091613743575b50613585612258565b9061327961350b565b6000956000945b600f8611158061373a575b15613730578484898860056135c66104af82610ad3896000526007602052604060002090565b6135f7575b505050505060026135e96135f1926000526007602052604060002090565b015495612919565b94613595565b81151580613728575b801561371f575b156135cb5791610b236136af94926105126136336136a096610ad38b6000526007602052604060002090565b938b8b600361364c8d6000526007602052604060002090565b01549460029b8c549251998a9763645d0aa760e11b60208a01526024890193909796959260e0959261010086019986526020860152604085015260006060850152608084015260a083015260c08201520152565b60208082518301019101612e23565b91908815613716575b8a15613705575b8083116136d257505084898888936135cb565b6136db90612919565b6136f48161343c84546000526008602052604060002090565b6136fe81546123ae565b90556136bf565b600483106136bf57995081996136bf565b995081996136b8565b50831515613607565b506000613600565b5050505050509050565b508015156135a0565b61375c915060203d602011610594576105858183612207565b3861357c565b6000805492939261377b906001600160a01b03166104af565b9060409182519586809263cfbffe5360e01b8252602098899160049586915afa801561059b576137b49185916139715750613585612258565b93839484965b600f88111580613968575b1561395c5760056137e76104af82610ad3856000526007602052604060002090565b613814575b50600261380661380e926000526007602052604060002090565b015497612919565b966137ba565b84898c8a8688841596871580613953575b801561394c575b61383d575b505050505050506137ec565b936105126138df96948a94610b2394600361387d61386c6138d19b610ad38b6000526007602052604060002090565b986000526007602052604060002090565b01549760029b8c549251998a9763645d0aa760e11b90890152602488019260e0949197969592610100850198855260006020860152600060408601526060850152608084015260a083015260c08201520152565b8d8082518301019101612e23565b92613943575b8915613933575b8083116139005750898c8a86888a95613831565b61390990612919565b6139228161343c84546000526008602052604060002090565b61392c81546123ae565b90556138ec565b8783106138ec57985081986138ec565b985081986138e5565b508d61382c565b50861515613825565b50505050505050509050565b508015156137c5565b61375c9150893d8b11610594576105858183612207565b1561398f57565b60405162461bcd60e51b81526020600482015260126024820152716e65737465642e696e76616c69642e61676560701b6044820152606490fd5b604051906139d6826121b2565b601882527f6765744261746368526f79616c7479436c6175736573282900000000000000006020830152565b6102a09081818403126103355782601f82011215610335576040805193613a2885612196565b849383019281841161033557935b838510613a4557505050505090565b606085830312610335578251606091613a5d82612175565b8651825260209182880151838201528588015186820152815201940193613a36565b906007811015612b245760051b0190565b908160640291606483040361033057565b8181029291811591840414171561033057565b8115613abe570490565b634e487b7160e01b600052601260045260246000fd5b613adf811515613988565b600054613af4906001600160a01b03166104af565b90604051809263cfbffe5360e01b825281600460209586935afa90811561059b57613b4a91613b3c91600091613c0b575b50613b2e6139c9565b613b36612245565b9161437e565b838082518301019101613a02565b613b5e82600052600c602052604060002090565b5460015b6007811115613b72575050505050565b80613b8e613bf79261343c876000526008602052604060002090565b548015613c0557613ba7613ba18361268e565b86613a7f565b51878151928315613bfc57613bce613bd392613bc6613bd9968a613aa1565b940151613a90565b613aa1565b90613ab4565b613bf18261343c886000526009602052604060002090565b55612919565b613b62565b50505050612919565b50612919565b613c229150853d8711610594576105858183612207565b38613b25565b60405190613c35826121ea565b610100368337565b60025480600052600c60205260406000205491820180921161033057600052600c602052604060002055565b60025480600052600d60205260406000205491820180921161033057600052600d602052604060002055565b60025480600052600e60205260406000205491820180921161033057600052600e602052604060002055565b60025480600052600f602052604060002054906001820180921161033057600052600f602052604060002055565b9080600052600c60205260406000205491820180921161033057600052600c602052604060002055565b9080600052600e60205260406000205491820180921161033057600052600e602052604060002055565b9080600052600f60205260406000205491820180921161033057600052600f602052604060002055565b60405190613d7a826121b2565b6014825273676574627573696e6573732875696e743235362960601b6020830152565b60405190613daa826121b2565b601d82527f67657472616e6b436f756e742875696e743235362c75696e74323536290000006020830152565b60008054909190613def906001600160a01b03166104af565b91604092835192839163111ea8c160e21b835282600460209485935afa93841561059b578394613ef0575b505b85811115613e2c57505050505050565b8451828101828152819003808252601f1991613e5d91613e4f9060200182612207565b613e57613d6d565b876144c3565b613e7c613e7484600052600c602052604060002090565b9182546123bc565b9055835b60088110613e98575050613e9390612919565b613e1c565b865184810184815260208101839052613eeb9291613ed391613ec590829060400103868101835282612207565b613ecd613d9d565b896144c3565b613bf18261343c876000526008602052604060002090565b613e80565b613f08919450823d8411610594576105858183612207565b9238613e1a565b15613f1657565b60405162461bcd60e51b815260206004820152601960248201527f6f776e2e7361666567756172642e63616c6c2e6661696c6564000000000000006044820152606490fd5b9081602091031261033557516109c281611849565b600054604051634bf9c0ad60e11b8152906020908190839060049082906001600160a01b03165afa91821561059b576109c292613fe691600091614001575b50604051613fbc816121b2565b6008815267697353616665282960c01b8482015260405191613fdd836121ce565b600083526143a9565b919080613ff7575b61053f90613f0f565b5081518114613fee565b6140189150833d8511610594576105858183612207565b38613faf565b6040519061402b826121b2565b601582527469735365637572654261736528616464726573732960581b6020830152565b1561405657565b60405162461bcd60e51b815260206004820152601a60248201527f6f776e2e736563757265626173652e63616c6c2e6661696c65640000000000006044820152606490fd5b6000546001600160a01b0316604051918291634bf9c0ad60e11b835282600460209485935afa92831561059b576109c2936141099261051292600092614124575b506040516001600160a01b039091168582019081529092614101918491602090910190565b61052861401e565b91908061411a575b61053f9061404f565b5081518114614111565b61410191925061414090863d8811610594576105858183612207565b91906140dc565b60405190614154826121b2565b601182527069735369676e657228616464726573732960781b6020830152565b1561417b57565b60405162461bcd60e51b81526020600482015260166024820152751bdddb8b9cda59db995c8b98d85b1b0b99985a5b195960521b6044820152606490fd5b60005460405163111ea8c160e21b815290602090829060049082906001600160a01b03165afa801561059b576109c291600091614226575b506040516141fe816121b2565b6005815264616765282960d81b60208201526040519161421d836121ce565b600083526144c3565b61423e915060203d8111610594576105858183612207565b386141f1565b60405190614251826121b2565b601882527f697364656c656761746f724e6f646528616464726573732900000000000000006020830152565b3d156142a8573d9061428e82612229565b9161429c6040519384612207565b82523d6000602084013e565b606090565b600080546040516311be646b60e21b815290602090829060049082906001600160a01b03165afa90811561059b578284819382938391614360575b505af16142f361427d565b50156143295760405190815233907fcdcc745fe377b103b45fa0cec23ae3ef93d6fc6a84a01f0d18c40b354dd1d5d890602090a2565b60405162461bcd60e51b815260206004820152600f60248201526e1bdddb8b989d5c9b8b99985a5b1959608a1b6044820152606490fd5b614378915060203d8111610594576105858183612207565b386142e8565b9061438992916143a9565b9060009015614396575090565b60405191506143a4826121ce565b815290565b9190823b1561442a578051906020918263ffffffff60e01b92012016916040519180830193845281519160005b83811061441657505050918161440360248260009795968897018783820152036004810184520182612207565b5191620dbba0fa61441261427d565b9091565b8181018301518582016024015282016143d6565b50505060009060405161443c816121ce565b6000815290565b9291614451916000946143a9565b908061447c575b61445f5750565b90915060208180518101031261033557602001516104af81610366565b506020815114614458565b9291614495916000946143a9565b90806144b8575b6144a35750565b6109c291925060208082518301019101613f5b565b50602081511461449c565b92916144d1916000946143a9565b90806144f6575b6144df5750565b909150602081805181010312610335576020015190565b5060208151146144d8565b906020825192015163ffffffff60e01b90818116936004811061452357505050565b60040360031b82901b16169150565b6001600160a01b038116156145b357600080918351908260208601915af19061455961427d565b9115614563575090565b8051600091906004116145ad5761457a9150614501565b81511561458a5750805190602001fd5b604051630870274d60e21b81526001600160e01b03199091166004820152602490fd5b5061457a565b60405162461bcd60e51b81526020600482015260126024820152711bdddb8b9a5b9d985b1a590b9d185c99d95d60721b6044820152606490fdfea2646970667358221220d2f4ea8c0a06cce693258d06c86a0e3c4b1e2686f3accda0a35346cb6236672564736f6c63430008140033","linkReferences":{}},"methodIdentifiers":{"dAOAssembly()":"14837455","daocore()":"14d8d024","nested741()":"45cff900","old741()":"5540c5ac","price()":"a035b1fe"},"id":68}