{"abi":[{"type":"constructor","inputs":[{"name":"_hex","type":"address","internalType":"address"}],"stateMutability":"nonpayable"},{"type":"function","name":"instanceStor","inputs":[],"outputs":[{"name":"","type":"address","internalType":"address"}],"stateMutability":"view"}],"bytecode":{"object":"0x6080346100c5576001600160401b0390601f61707238819003918201601f1916830191848311848410176100af578084926020946040528339810103126100c557516001600160a01b039190828116908190036100c55760405191616f1990818401908111848210176100af576020928492610159843981520301906000f080156100a3571660018060a01b03196000541617600055604051608e90816100cb8239f35b6040513d6000823e3d90fd5b634e487b7160e01b600052604160045260246000fd5b600080fdfe6080806040526004361015601257600080fd5b600090813560e01c63131c73ad14602857600080fd5b346054578160031936011260545773ffffffffffffffffffffffffffffffffffffffff60209254168152f35b5080fdfea2646970667358221220b14d6233993cecb0e55e2c3055511f8180f73cfcbe5054ade9225ba382b08b3264736f6c63430008140033608034620000bb57601f62006f1938819003918201601f19168301916001600160401b03831184841017620000c057808492602094604052833981010312620000bb57516001600160a01b03811690819003620000bb578015620000a95760018060a01b031990338260015416176001556000918254161781556001600355806004558060055580600655806007558060085580600955600a55604051616e429081620000d78239f35b60405163e6c4247b60e01b8152600490fd5b600080fd5b634e487b7160e01b600052604160045260246000fdfe60806040526004361015610018575b361561001657005b005b60003560e01c806302a085f214610318578063043719b414610313578063074bcb181461030e57806309d8da2e146103095780630b98f9751461030457806312065fe0146102ff578063141ca660146102fa578063143ec3b7146102f55780631f185d16146102f057806329ee350e146102eb5780632c2838e8146102e657806339b4d61b146102e15780633b9b7955146102dc5780634a65786c146102d757806352902c59146102d2578063619d5194146102cd5780636350b2c2146102c857806369245009146102c35780636de97c66146102be578063725b6fff146102b9578063759f22bd146102b457806375b4d78c146102af5780637b058ac1146102aa578063822ffec4146102a5578063880cdc31146102a05780638da5cb5b1461029b578063932ca2d614610296578063934209ce146102915780639659867e1461028c578063a153154514610287578063a1f7f53914610282578063a20199ac1461027d578063a98bf4f914610278578063a9bf285b14610273578063af4845261461026e578063af640d0f14610269578063b90306ad14610264578063bab2f5521461025f578063c54e44b01461025a578063c8ef7b1a14610255578063ce6e73ac14610250578063d2a159041461024b578063d3a1a49914610246578063da02133514610241578063deb1ba1e1461023c578063e01ad5fd14610237578063e0a9bc2b146102325763fdc10bc90361000e57611a62565b611a47565b6119ad565b6118f8565b611871565b611845565b6117ff565b61148f565b6113d7565b61139f565b611381565b6112fa565b6112dc565b6112ab565b61128d565b611261565b611215565b611167565b61112a565b61110c565b6110ee565b61102e565b611007565b610f52565b610e7b565b610da8565b610d8a565b610cd4565b610c50565b610bbe565b610b65565b610b0f565b610a4d565b610960565b61093a565b610913565b6108e7565b61082b565b6107f2565b6106c9565b61068c565b6105e6565b6105ca565b6104fd565b6104da565b6104bc565b610480565b61034c565b610120810192916000915b6009831061033557505050565b600190825181526020809101920192019190610328565b60408060031936011261047b5780519061036582611ad8565b61012036833760ff600b541661046b57610384610380616609565b1590565b61045b5761039133616701565b80156103d0575b156103c0576103b16103bc92602435906004359061248b565b90519182918261031d565b0390f35b6004905163ea8e4eb560e01b8152fd5b50600460206103f66103ea6000546001600160a01b031690565b6001600160a01b031690565b835192838092630536340960e21b82525afa90811561045657600091610428575b506001600160a01b03163314610398565b610449915060203d811161044f575b6104418183611b49565b810190611b6b565b38610417565b503d610437565b611b83565b60049051634ee2123760e11b8152fd5b600490516334c2d01160e11b8152fd5b600080fd5b3461047b57604036600319011261047b57600435600052602360205260206104ae6024356040600020611ba7565b90546040519160031b1c8152f35b3461047b57600036600319011261047b576020601154604051908152f35b3461047b57600036600319011261047b57602060ff600b54166040519015158152f35b3461047b57602036600319011261047b57610519610380616609565b6105b95761052633616701565b801561054e575b1561053d57610016600435600c55565b600460405163ea8e4eb560e01b8152fd5b50600460206105686103ea6000546001600160a01b031690565b60405192838092630536340960e21b82525afa9081156104565760009161059b575b506001600160a01b0316331461052d565b6105b3915060203d811161044f576104418183611b49565b3861058a565b6004604051634ee2123760e11b8152fd5b3461047b57600036600319011261047b57602047604051908152f35b602036600319011261047b576105fd610380616609565b6105b95761060a33616701565b8015610621575b1561053d57610016600435613160565b506004602061063b6103ea6000546001600160a01b031690565b60405192838092630536340960e21b82525afa9081156104565760009161066e575b506001600160a01b03163314610611565b610686915060203d811161044f576104418183611b49565b3861065d565b3461047b57602036600319011261047b5760043560005260236020526020604060002054604051908152f35b6001600160a01b0381160361047b57565b3461047b5760208060031936011261047b576004356106e7816106b8565b6004826106ff6103ea6000546001600160a01b031690565b60405192838092634bf9c0ad60e11b82525afa8015610456576107679261074b926000926107cf575b50610759906040519384918783019190916001600160a01b036020820193169052565b03601f198101845283611b49565b610761616794565b90616ade565b9190806107c5575b1561079b578181610789926103bc945183010191016165f4565b60405190151581529081906020820190565b60046040517f3204506f000000000000000000000000000000000000000000000000000000008152fd5b508082511461076f565b6107599192506107eb90863d881161044f576104418183611b49565b9190610728565b3461047b57600036600319011261047b57601354600881101561082657601581015460408051928352602083019190915290f35b61181d565b3461047b57602036600319011261047b576101e061084a600435615145565b60405190805182526020810151602083015260408101516040830152606081015160608301526080810151608083015260a081015160a083015260c081015160c083015260e081015160e0830152610100808201519083015261012080820151908301526101408082015190830152610160808201519083015261018080820151908301526101a080820151908301526101c08091015190820152f35b3461047b57602036600319011261047b57600435600052601e6020526020604060002054604051908152f35b3461047b57600036600319011261047b5760206001600160a01b0360005416604051908152f35b3461047b57600036600319011261047b57602060ff600b5460081c166040519015158152f35b3461047b57606036600319011261047b5760043561097d816106b8565b602435610989816106b8565b6001600160a01b03809216908115808015610a39575b610a21576109f7576109e9916000938454826001600160a01b03198216178655167fe939feee179e631422bcc8f6e6d7d908cb3f8af38f5372f17c77e15aea5c80ee8580a36168a6565b6109f4604435600e55565b80f35b60046040517fe6c4247b000000000000000000000000000000000000000000000000000000008152fd5b6024604051635258db5f60e01b815260016004820152fd5b508382161561099f565b8015150361047b57565b3461047b57602036600319011261047b57600435610a6a81610a43565b610a75610380616609565b6105b957610a8233616701565b8015610aa4575b1561053d576100169060ff8019600b54169115151617600b55565b5060046020610abe6103ea6000546001600160a01b031690565b60405192838092630536340960e21b82525afa90811561045657600091610af1575b506001600160a01b03163314610a89565b610b09915060203d811161044f576104418183611b49565b38610ae0565b3461047b57602036600319011261047b5760043560005260208052608060406000208054906001810154906001600160a01b03600360028301549201541691604051938452602084015260408301526060820152f35b3461047b57600036600319011261047b576020601254604051908152f35b6020908160408183019282815285518094520193019160005b828110610baa575050505090565b835185529381019392810192600101610b9c565b3461047b57600036600319011261047b576013546001810190818111610c4b57610be782616578565b91610bf56040519384611b49565b808352610c04601f1991616578565b0136602084013760005b81811115610c2457604051806103bc8582610b83565b60088110156108265780610c469160150154610c4082866165e0565b52611c98565b610c0e565b611c82565b3461047b57600036600319011261047b576020600f54604051908152f35b6020908160408183019282815285518094520193019160005b828110610c95575050505090565b9091929382608082610cc86001948951606080918051845260208101516020850152604081015160408501520151910152565b01950193929101610c87565b3461047b57604036600319011261047b57600435602435808211610d7257818103908111610c4b5760018101809111610c4b57610d1081616590565b9160005b828110610d2957604051806103bc8682610c6e565b80610d52610d4d610d3d610d6d9486612332565b6000526022602052604060002090565b616546565b610d5c82876165e0565b52610d6781866165e0565b50611c98565b610d14565b6024604051635258db5f60e01b8152600d6004820152fd5b3461047b57600036600319011261047b576020600c54604051908152f35b3461047b5760a036600319011261047b57608435610dc581610a43565b610dd0610380616609565b6105b957610ddd33616701565b8015610e10575b1561053d57610dfe90606435604435602435600435613fea565b60408051928352602083019190915290f35b5060046020610e2a6103ea6000546001600160a01b031690565b60405192838092630536340960e21b82525afa90811561045657600091610e5d575b506001600160a01b03163314610de4565b610e75915060203d811161044f576104418183611b49565b38610e4c565b3461047b5760c036600319011261047b5760a435610e9881610a43565b610ea3610380616609565b6105b957610eb033616701565b8015610ee7575b1561053d57610ed76103bc9160843560643560443560243560043561411d565b6040519081529081906020820190565b5060046020610f016103ea6000546001600160a01b031690565b60405192838092630536340960e21b82525afa90811561045657600091610f34575b506001600160a01b03163314610eb7565b610f4c915060203d811161044f576104418183611b49565b38610f23565b3461047b57602036600319011261047b57600435610f6f816106b8565b610f7a610380616609565b6105b957610f8733616701565b8015610f9c575b1561053d5761001690611cce565b5060046020610fb66103ea6000546001600160a01b031690565b60405192838092630536340960e21b82525afa90811561045657600091610fe9575b506001600160a01b03163314610f8e565b611001915060203d811161044f576104418183611b49565b38610fd8565b3461047b57600036600319011261047b5760206001600160a01b0360015416604051908152f35b60a036600319011261047b57600435611046816106b8565b611051610380616609565b6105b95761105e33616701565b8015611083575b1561053d57610dfe9060843590606435906044359060243590611d10565b506004602061109d6103ea6000546001600160a01b031690565b60405192838092630536340960e21b82525afa908115610456576000916110d0575b506001600160a01b03163314611065565b6110e8915060203d811161044f576104418183611b49565b386110bf565b3461047b57600036600319011261047b576020601354604051908152f35b3461047b57600036600319011261047b576020600d54604051908152f35b3461047b57600036600319011261047b5760a06111456148a4565b9260409291925194855260208501526040840152151560608301526080820152f35b3461047b57600036600319011261047b57600460206001600160a01b03600054166040519283809263d1f956b160e01b82525afa908115610456576103bc91610ed7916000916111f7575b506040516111bf81611af5565b601381527f67657464656c656761746f72436f756e7428290000000000000000000000000060208201526111f1612175565b91616c14565b61120f915060203d811161044f576104418183611b49565b386111b2565b3461047b57604036600319011261047b57611234602435600435616157565b60405190600090825b6007831061124a5760e084f35b60019082518152602080910192019201919061123d565b3461047b57602036600319011261047b5760043560005260216020526020604060002054604051908152f35b3461047b57600036600319011261047b576020601054604051908152f35b3461047b57602036600319011261047b5760206112d26004356112cd816106b8565b616701565b6040519015158152f35b3461047b57600036600319011261047b576020600e54604051908152f35b3461047b57602036600319011261047b5760046001600160a01b03602061132b82600054166001600160a01b031690565b60405193848092630536340960e21b82525afa91821561045657600092611361575b503391160361053d5761001660043561697f565b61137a91925060203d811161044f576104418183611b49565b903861134d565b3461047b57600036600319011261047b576020601d54604051908152f35b3461047b57602036600319011261047b5760206113c66004356113c1816106b8565b616d8b565b6001600160a01b0360405191168152f35b3461047b57604036600319011261047b576024356113f481610a43565b6113ff610380616609565b6105b95761140c33616701565b8015611424575b1561053d5761001690600435611b8f565b506004602061143e6103ea6000546001600160a01b031690565b60405192838092630536340960e21b82525afa90811561045657600091611471575b506001600160a01b03163314611413565b611489915060203d811161044f576104418183611b49565b38611460565b60208060031936011261047b57600490813560ff600b54166117ef576114b361243c565b6000926114ca6103ea85546001600160a01b031690565b91818460409485519283809263ab6e844f60e01b82525afa9081156104565786916117d2575b506115016114fc6167cd565b600255565b61152e6115296002546115236115156121c1565b61151d6121d9565b86616c14565b90612212565b601d55565b611544601d54600052601e602052604060002090565b5461155e6115506121c1565b611558612232565b84616c14565b036117b5576103e76000526023602052600161159c7f7fb7114ab0bc53b2ffb5bc944cbd8d7055958c60a568e4224480a10dedf18cb95b5460011690565b1480611777575b61175a5783518581018381526115d092906115c290839060200161074b565b6115ca6125bb565b90616c14565b3403611736576115ea6103ea86546001600160a01b031690565b835191858385817f1b4fc17b00000000000000000000000000000000000000000000000000000000958682525afa9081156104565761163761164f9288958a91611719575b503490616923565b61164a611645348754612332565b600455565b600555565b61166761165a6148a4565b5092505050600254611c00565b61167b6103ea87546001600160a01b031690565b9284518094819382525afa908115610456577f1517c86fcf2bfb8e3468afcc539b0004955da8027797c497ea51d1f1094ab8989385926116fc575b505060025491513381526001600160a01b039190911660208201526000604082015234606082015260808101919091526103e860a082015260c090a16109f46001600355565b6117129250803d1061044f576104418183611b49565b38806116b6565b6117309150863d881161044f576104418183611b49565b3861162f565b50611756915191829163cdab4c8760e01b83528201906009602083019252565b0390fd5b8351635258db5f60e01b8152600681850190815281906020010390fd5b50600e5484518681019182526117ad9161179f9082906020015b03601f198101835282611b49565b6117a7612188565b83616b8f565b3115156115a3565b835163cdab4c8760e01b8152600581850190815281906020010390fd5b6117e99150853d871161044f576104418183611b49565b386114f0565b826040516334c2d01160e11b8152fd5b3461047b57600036600319011261047b576020601454604051908152f35b634e487b7160e01b600052603260045260246000fd5b60088110156108265760150190600090565b3461047b57602036600319011261047b57600435600881101561047b5760209060150154604051908152f35b3461047b57602036600319011261047b5761188a613307565b506004356000526022602052608060406000206003604051916118ac83611a9b565b805483526001810154602084015260028101546040840152015460608201526118f66040518092606080918051845260208101516020850152604081015160408501520151910152565bf35b3461047b57602036600319011261047b5760043561191581610a43565b611920610380616609565b6105b95761192d33616701565b8015611942575b1561053d5761001690611ca7565b506004602061195c6103ea6000546001600160a01b031690565b60405192838092630536340960e21b82525afa9081156104565760009161198f575b506001600160a01b03163314611934565b6119a7915060203d811161044f576104418183611b49565b3861197e565b3461047b5760208060031936011261047b57600480356119cc816106b8565b6001600160a01b03928084600054166040519485809263d1f956b160e01b82525afa908115610456576103bc9461078994600093611a28575b506040519316818401528252611a1a82611af5565b611a2261686d565b90616bd8565b611a40919350823d841161044f576104418183611b49565b9138611a05565b3461047b57600036600319011261047b5760206112d2616609565b3461047b57600036600319011261047b576020611a7d6167cd565b604051908152f35b634e487b7160e01b600052604160045260246000fd5b6080810190811067ffffffffffffffff821117611ab757604052565b611a85565b6060810190811067ffffffffffffffff821117611ab757604052565b610120810190811067ffffffffffffffff821117611ab757604052565b6040810190811067ffffffffffffffff821117611ab757604052565b6020810190811067ffffffffffffffff821117611ab757604052565b60e0810190811067ffffffffffffffff821117611ab757604052565b90601f8019910116810190811067ffffffffffffffff821117611ab757604052565b9081602091031261047b5751611b80816106b8565b90565b6040513d6000823e3d90fd5b90611ba591611b9c6167cd565b80600255611c54565b565b80548210156108265760005260206000200190600090565b9081549168010000000000000000831015611ab75782611be7916001611ba595018155611ba7565b90919082549060031b91821b91600019901b1916179055565b6103e760005260236020526040600020918254801580611c4c575b611c465760019115611c3b571615611c32575b5050565b611ba591611bbf565b811614611c32575050565b50505050565b508115611c1b565b9060005260236020526040600020918254801580611c4c57611c465760019115611c3b571615611c32575050565b634e487b7160e01b600052601160045260246000fd5b6000198114610c4b5760010190565b15611cbc57611cb7601454611c98565b601455565b6014548015610c4b5760001901601455565b6001600160a01b03811615611ce657611ba5906168a6565b60046040517fab8a0360000000000000000000000000000000000000000000000000000000008152fd5b9394929491909160ff600b541661209b57611d2961243c565b611d346114fc6167cd565b6103e760005260236020526001611d6a7f7fb7114ab0bc53b2ffb5bc944cbd8d7055958c60a568e4224480a10dedf18cb9611595565b14806120ac575b61209b57611d8161038086616701565b611ce657600490611d9d6103ea6000546001600160a01b031690565b602060409182519485809263cfbffe5360e01b82525afa9283156104565760009361207b575b50600292611dda61152985546115236115156121c1565b601d54611df181600052601e602052604060002090565b54611e0b611dfd6121c1565b611e05612232565b85616c14565b11801590612045575b61202d57611e2c90600052601e602052604060002090565b805460010190556001831497881561202657825160208101879052611e6090611e588160408101611791565b6115586122dd565b985b611fd1575b889950600d989697985415611fb8575b600d54611e8390611c98565b600d558686865499611e9361213f565b9a838c528260208d0152868c015260608b019a60008c52600d54611ec09060005260208052604060002090565b90611eca9161236a565b611ed393612f09565b6001600160a01b0316808852600d546000908152602080526040902060030180546001600160a01b0319169091179055611f0b6121c1565b611f136123b2565b611f1c92616c14565b611f269085612429565b600655611f3285613051565b95611f3b6148a4565b5092505050845490611f4c91611c00565b51925490513381526001600160a01b03909316602084015260408301939093526060820193909352608081019190915260a08101919091527f1517c86fcf2bfb8e3468afcc539b0004955da8027797c497ea51d1f1094ab8989060c090a1611fb46001600355565b9190565b611fc28554600f55565b611fcc8554601055565b611e77565b600c549989611fe08c83612332565b1061200e576120008a611ffb819d612005949d9b9c9d612332565b61235d565b600c55565b97969597611e67565b8351635258db5f60e01b815260056004820152602490fd5b8998611e62565b825163cdab4c8760e01b815260016004820152602490fd5b506120596120516121c1565b61155861226b565b861080611e14575061207461206c6121c1565b6115586122a4565b8611611e14565b61209491935060203d811161044f576104418183611b49565b9138611dc3565b60046040516334c2d01160e11b8152fd5b50600460206120c66103ea6000546001600160a01b031690565b6040519283809263ab6e844f60e01b82525afa908115610456576121199161074b91600091612121575b5061210b600e54604051938491602083019190602083019252565b612113612188565b90616b8f565b311515611d71565b612139915060203d811161044f576104418183611b49565b386120f0565b60405190611ba582611a9b565b60405190611ba582611b2d565b67ffffffffffffffff8111611ab757601f01601f191660200190565b6040519061218282611b11565b60008252565b6040519061219582611af5565b601882527f676574557365724964546f496e73742875696e743235362900000000000000006020830152565b6040516121cd81611b11565b60008152906000368137565b604051906121e682611af5565b600f82527f6d696e744379636c6544617973282900000000000000000000000000000000006020830152565b811561221c570490565b634e487b7160e01b600052601260045260246000fd5b6040519061223f82611af5565b601282527f6d61784d696e74735065724379636c65282900000000000000000000000000006020830152565b6040519061227882611af5565b600c82527f6d696e4d696e74517479282900000000000000000000000000000000000000006020830152565b604051906122b182611af5565b600c82527f6d61784d696e74517479282900000000000000000000000000000000000000006020830152565b604051906122ea82611af5565b601982527f636f6d707574654d696e7456616c75652875696e7432353629000000000000006020830152565b6046019081604611610c4b57565b9060018201809211610c4b57565b91908201809211610c4b57565b600019810191908211610c4b57565b600119810191908211610c4b57565b91908203918211610c4b57565b60036001600160a01b036060611ba5948051855560208101516001860155604081015160028601550151169101906001600160a01b03166001600160a01b0319825416179055565b604051906123bf82611af5565b600f82527f6d696e74466565506572517479282900000000000000000000000000000000006020830152565b9061271091828102928184041490151715610c4b57565b90601982029180830460191490151715610c4b57565b9081606402916064830403610c4b57565b81810292918115918404141715610c4b57565b60026003541461244d576002600355565b60046040517f3ee5aeb5000000000000000000000000000000000000000000000000000000008152fd5b6040519061248482611b2d565b60e0368337565b9061249e929161249961243c565b6126b0565b906001600355565b604051906124b382611af5565b601082527f65616368636c61696d4379636c652829000000000000000000000000000000006020830152565b604051906124ec82611af5565b601082527f6d6178436c61696d5065724461792829000000000000000000000000000000006020830152565b6040519061252582611af5565b600782527f7661756c742829000000000000000000000000000000000000000000000000006020830152565b919082608091031261047b578151916020810151916060604083015192015190565b6040519061258082611af5565b601d82527f636f6d707574654f7a6f6e65546f446f6c6c61722875696e74323536290000006020830152565b9081602091031261047b575190565b604051906125c882611af5565b601d82527f636f6d70757465446f6c6c6172546f4f7a6f6e652875696e74323536290000006020830152565b6040519061260182611af5565b601082527f6d696e436c61696d5065724461792829000000000000000000000000000000006020830152565b6040519061263a82611af5565b601682527f6d6178476c6f62616c436c61696d5065724461792829000000000000000000006020830152565b6040519061267382611af5565b601582527f67657477697468647261776e2875696e743235362900000000000000000000006020830152565b9060098110156108265760051b0190565b9291838115612f03575060025560006126d36103ea82546001600160a01b031690565b604090815191829163cfbffe5360e01b835282600460209485935afa928315610456578493612ee4575b506127066148a4565b5097925050506127196002968754611c00565b60326127488754600f549361272e8186612332565b821115612edd57612740915084612332565b925b8361235d565b11612ed55761275690614cfc565b61277561276c6127646121c1565b61151d6124a6565b60105490612332565b93855494851015612792575b505050505050611ba56114fc6167cd565b6127a561279d6121c1565b61151d6124df565b601f6020527f820fef5837650fa3b8e45045b88059d8deaf0810350ec511c47ef768a28c2c9c546004600052600194919061285d9061282c906127fb9088600080516020616ded8339815191525b015490612332565b6002600052601f602052877f5af4fb70d755f38349f04272636124ff9474fedf9ea09deea577daa305383b106127f3565b6003600052601f602052867f9e71908050462d95d85d10ec71f33c35476f5af9a2363ff3b4f561b1ea6200506127f3565b956129046128d36128a261288360039a8b6127f36001600052601f602052604060002090565b6004600052601f6020528a600080516020616ded8339815191526127f3565b6002600052601f602052897f5af4fb70d755f38349f04272636124ff9474fedf9ea09deea577daa305383b106127f3565b6003600052601f602052887f9e71908050462d95d85d10ec71f33c35476f5af9a2363ff3b4f561b1ea6200506127f3565b9061292f6129216129136121c1565b61291b612518565b84616ab3565b858082518301019101612551565b9b90889c61293f6011548461235d565b11612e91575b5050508961299d88519461299761298987612967848c83019190602083019252565b039761297b601f19998a8101835282611b49565b612983612573565b88616ab3565b8980825183010191016125ac565b90612429565b6001600052601f602052612b06612b01612af88d612ac7612a96612a65612a46612a15857f820fef5837650fa3b8e45045b88059d8deaf0810350ec511c47ef768a28c2c9b01546002600052601f602052867f5af4fb70d755f38349f04272636124ff9474fedf9ea09deea577daa305383b106127f3565b6003600052601f602052857f9e71908050462d95d85d10ec71f33c35476f5af9a2363ff3b4f561b1ea6200506127f3565b6004600052601f60205284600080516020616ded8339815191526127f3565b6005600052601f602052837f8f7baaeb89fd2366535b48ed7d56321470a1399e8ab1b2456eb79477a77d951b6127f3565b6006600052601f602052827fb59afb99c4de88e28b26eef6d7a02f582ab97b4ec5fdb5cf1f0116f112f13bde6127f3565b6007600052601f602052907f5b3e240a505832e5e6c9a7abee1f9f8788f1ffd3b8bbc82bdedad1079d3734a66127f3565b94600654612429565b600655565b60065490818111612e0b575b5050612b1d91612332565b93612b31612b296121c1565b6115586125f4565b851015612b43575b5050505050612781565b612b5a600492612b516121c1565b906115ca61262d565b9281612b706103ea89546001600160a01b031690565b89519485809263ab6e844f60e01b82525afa90811561045657612bbd938892612de8575b508c548951938401908152612bb59190849060200103908101845283611b49565b6115ca612666565b1015612dd15780821115612dc957612bd49161235d565b93835b6007811115612c545750505050509081612c2093928211612c30575b505060085460e0850152600954610100850152612c106000600855565b612c1a6000600955565b54601055565b3880808080808080808080612b39565b612c40612c4891612c4d9361235d565b600a5461235d565b600a55565b3880612bf3565b81612c6982600052601f602052604060002090565b015486612d485790612d439186612c8a83600052601f602052604060002090565b01612c96828254612332565b90558484612cae84600052601f602052604060002090565b0155612cc2612cbc8361233f565b8d61269f565b525b7f1517c86fcf2bfb8e3468afcc539b0004955da8027797c497ea51d1f1094ab898612cf1612cbc8361233f565b518a5490612d3b612d0185612316565b895193849333859094939260a0926001600160a01b0360c08401971683526000602084015260006040840152606083015260808201520152565b0390a1611c98565b612bd7565b86811115612dad5790612d5e87612d439361235d565b9686612d7483600052601f602052604060002090565b01612d80898254612332565b905583612d9783600052601f602052604060002090565b01558396612da7612cbc8361233f565b52612cc4565b612dbb90612d43929761235d565b9583612da7612cbc8361233f565b505080612bd4565b835163cdab4c8760e01b8152600480820152602490fd5b612bb5919250612e0490843d861161044f576104418183611b49565b9190612b94565b612e32612e3e612e21612e5a94612e4c9461235d565b8c518b810191825292839160200190565b03888101835282611b49565b612e466125bb565b86616ab3565b8780825183010191016125ac565b91612e6a612c4884600a54612332565b828110612e8557612b1d92612e7e9161235d565b9138612b12565b50612b1d915086612e7e565b612eb591929c50612eae90612ea9600a549e8f612429565b612212565b6064900490565b9a808c11612ecb575b506011555b388080612945565b9a50612ec3612ebe565b505050505050565b5092612742565b612efc919350823d841161044f576104418183611b49565b91386126fd565b93505050565b612f8c92612f7d916103ea936001600160a01b039687600154169360025492604051957fc85700fb000000000000000000000000000000000000000000000000000000006020880152602487015260448601526064850152608484015260a483015260a48252612f7882611b2d565b616cd8565b60208082518301019101611b6b565b90811615612f975790565b604051635258db5f60e01b815260026004820152602490fd5b60405190612fbd82611af5565b600682527f706f6f6c282900000000000000000000000000000000000000000000000000006020830152565b908160e091031261047b5780519160208201519160408101519160608201519160808101519160c060a083015192015190565b91909160008382019384129112908015821691151617610c4b57565b81810392916000138015828513169184121617610c4b57565b600490602061306b6103ea6000546001600160a01b031690565b6040519384809263cfbffe5360e01b82525afa8015610456576131306131066130f161312b6130f66130e66115236130d66130c76130eb99611b809c600091613142575b506130b86121c1565b906130c1612fb0565b90616ab3565b60208082518301019101612fe9565b9e8f9b969e949892959150612429565b612429565b93612429565b6123eb565b9461311661310682600254612332565b6000526021602052604060002090565b61312187825461301c565b9055600254612332565b612332565b61313b828254613038565b9055612429565b61315a915060203d811161044f576104418183611b49565b386130af565b6131719061316c61243c565b6135e9565b6001600355565b6040519061318582611af5565b601382527f55736572546f496e7374286164647265737329000000000000000000000000006020830152565b604051906131be82611af5565b600b82527f6d696e74436f756e7428290000000000000000000000000000000000000000006020830152565b604051906131f782611af5565b600e82527f6d696e74732875696e74323536290000000000000000000000000000000000006020830152565b6040519061323082611af5565b600b82527f6d696e74656441676528290000000000000000000000000000000000000000006020830152565b6040519061326982611af5565b600b82527f6d696e74656471747928290000000000000000000000000000000000000000006020830152565b604051906132a282611af5565b600c82527f6964732875696e743235362900000000000000000000000000000000000000006020830152565b604051906132db82611af5565b600982527f6d696e74416d74282900000000000000000000000000000000000000000000006020830152565b6040519061331482611a9b565b60006060838281528260208201528260408201520152565b6040519061333982611af5565b600a82527f647261776e6167652829000000000000000000000000000000000000000000006020830152565b6040519061337282611af5565b600c82527f4c53422875696e743235362900000000000000000000000000000000000000006020830152565b604051906133ab82611af5565b600782527f647261776e2829000000000000000000000000000000000000000000000000006020830152565b91908260c091031261047b5781519160208101519160408201519160608101519160a0608083015192015190565b6040519061341282611af5565b601382527f67657452657761726473286164647265737329000000000000000000000000006020830152565b919082604091031261047b576020825192015190565b6040519061346182611af5565b600782527f626f6e75732829000000000000000000000000000000000000000000000000006020830152565b6040519061349a82611af5565b600682527f63616765282900000000000000000000000000000000000000000000000000006020830152565b604051906134d382611af5565b601982527f67657445666665637469766552616e6b286164647265737329000000000000006020830152565b6040519061350c82611af5565b601f82527f6765746e6f646572616e6b61676528616464726573732c75696e7432353629006020830152565b6040519061354582611af5565b601082527f6765744e6f6465286164647265737329000000000000000000000000000000006020830152565b908160a091031261047b57805191602082015161358d816106b8565b91604081015191608060608301516135a481610a43565b920151611b8081610a43565b604051906135bd82611af5565b601a82527f77697468647261776e496e636f6d654f662861646472657373290000000000006020830152565b600b5460081c60ff16613fe7576004602061360f6103ea6000546001600160a01b031690565b6040519283809263111ea8c160e21b82525afa90811561045657600091613fc8575b5061367261179161366a61364d6001546001600160a01b031690565b604080516001600160a01b03909216602083015290928391820190565b6117a7613178565b916001600160a01b03831615613fa45760058111613f8b5761369d6136956121c1565b611e056131b1565b90600d546136ab8183612332565b831115613f83576136bb91612332565b81613bc8575b5080600d5414908115613bbf575b506136d8575050565b6136f36136ee6136e66121c1565b611e0561332c565b601255565b60125491600f9283548111613b72575b5061372961371a6137126121c1565b61291b61339e565b602080825183010191016133d7565b9460016137479592959493946001600052601f602052604060002090565b01557f5af4fb70d755f38349f04272636124ff9474fedf9ea09deea577daa305383b11557f9e71908050462d95d85d10ec71f33c35476f5af9a2363ff3b4f561b1ea620051557f44ef42eef5af19d25d4e44ae57c825e0d0624b9f37f2474ab961410a0aa29600557fb59afb99c4de88e28b26eef6d7a02f582ab97b4ec5fdb5cf1f0116f112f13bdf557f5b3e240a505832e5e6c9a7abee1f9f8788f1ffd3b8bbc82bdedad1079d3734a7556000805260226020527fb84cf808d0d5b1ad44962c9bfddd3cfce67763c49ab557cfd0e9f6804faade9a5461382b90612b0190612402565b6138726138636040516138558161179186602083019190916001600160a01b036020820193169052565b61385d613405565b85616ab3565b6020808251830101910161343e565b601f6020527f820fef5837650fa3b8e45045b88059d8deaf0810350ec511c47ef768a28c2c9b919091556004600052600080516020616ded833981519152556138c76120006138bf6121c1565b611558613454565b6138dd6136ee6138d56121c1565b61155861348d565b61391461390f6040516139078161179186602083019190916001600160a01b036020820193169052565b611e056134c6565b601355565b60005b83811115613a7d575061396a61395b61074b6004959461395361398195604051938491602083019190916001600160a01b036020820193169052565b6130c1613538565b60208082518301019101613571565b935050505060ff8019600b54169115151617600b55565b60206139986103ea6000546001600160a01b031690565b604051938480927f6325dd040000000000000000000000000000000000000000000000000000000082525afa80156104565761074b613a1891613a4a94600091613a5e575b50613a106139f36001546001600160a01b031690565b604080516001600160a01b03909216602083015290938491820190565b6115ca6135b0565b6005600052601f6020527f8f7baaeb89fd2366535b48ed7d56321470a1399e8ab1b2456eb79477a77d951c5554601055565b611ba561010061ff0019600b541617600b55565b613a77915060203d60201161044f576104418183611b49565b386139dd565b80613a9691613ae5575b601354811115613a9b57611c98565b613917565b604080516001600160a01b0385166020820152908101829052613ae090613ad790613ac98160608101611791565b613ad16134ff565b87616c14565b611be783611833565b611c98565b6040517f5329daca0000000000000000000000000000000000000000000000000000000060208201526001600160a01b038416602482015260448101829052613b3f9061386390613b398160648101611791565b86616cd8565b90613b54836000526022602052604060002090565b556001613b6b836000526022602052604060002090565b0155613a87565b600f55613ba3611791613b95601254604051928391602083019190602083019252565b613b9d613365565b83616c50565b613bb884546000526021602052604060002090565b5538613703565b905015386136cf565b6000805260226020527fb84cf808d0d5b1ad44962c9bfddd3cfce67763c49ab557cfd0e9f6804faade99547fb84cf808d0d5b1ad44962c9bfddd3cfce67763c49ab557cfd0e9f6804faade9a54909590949391929091905b600d5484811015613f3657613c37613c3c91611c98565b600d55565b613c6a611791613c5c600d54604051928391602083019190602083019252565b613c646131ea565b87616b8f565b613c806114fc613c786121c1565b611558613223565b613d32613c96613c8e6121c1565b61155861325c565b98613cbb604051613cb38161179160208201906000602083019252565b611e05613295565b98613cd8613cd2613cca6121c1565b613ad16132ce565b94616d8b565b6020613cef6103ea6000546001600160a01b031690565b6040517fcfaa1f6c0000000000000000000000000000000000000000000000000000000081526001600160a01b0390931660048401529194859081906024820190565b0381845afa93841561045657600094613f15575b506001600160a01b03841615613ea3575b50613d6461038084616701565b611ce6578a928484613d74613307565b93828552816020860152600295865460408701528386600d54613da09060005260208052604060002090565b90613daa9161236a565b613db391612332565b9e613dbd91612332565b9c613dc793612f09565b600d54613ddd9060005260208052604060002090565b60030190613e0091906001600160a01b03166001600160a01b0319825416179055565b613e0984613051565b50600d5460011493613e4f6060613e8c937f1517c86fcf2bfb8e3468afcc539b0004955da8027797c497ea51d1f1094ab89897613e94575b01516001600160a01b031690565b9254604080513381526001600160a01b03909516602086015284019490945260608301526080820192909252600060a082015290819060c0820190565b0390a1613c20565b613e9e8654600f55565b613e41565b6040517fb771c89600000000000000000000000000000000000000000000000000000000815260006004820152919350602090829060249082905afa90811561045657600091613ef6575b509138613d57565b613f0f915060203d60201161044f576104418183611b49565b38613eee565b613f2f91945060203d60201161044f576104418183611b49565b9238613d46565b50925092939094613f51600080526022602052604060002090565b556000805260226020527fb84cf808d0d5b1ad44962c9bfddd3cfce67763c49ab557cfd0e9f6804faade9a55386136c1565b5050806136bb565b60405163cdab4c8760e01b815260036004820152602490fd5b505050613fb26136ee6167cd565b613fbd601254600f55565b613a4a601254601055565b613fe1915060203d60201161044f576104418183611b49565b38613631565b50565b919394929460009560009580614002575b5050505050565b60135497509495509193909283156140715760016140538361405c936140416140396140639a976000526022602052604060002090565b918254612332565b90556000526022602052604060002090565b01918254612332565b905561463e565b601354903880808080613ffb565b908060005260226020526040600020908154928303928311610c4b576001926140a592556000526022602052604060002090565b01928354908103908111610c4b57614063935561463e565b604051906140ca82611af5565b601482527f6c6576656c436c617573652875696e74323536290000000000000000000000006020830152565b908160a091031261047b578051916020820151916040810151916080606083015192015190565b91949290926000926141396103ea85546001600160a01b031690565b9360405196879563cfbffe5360e01b875286600460209889935afa978815610456578298614486575b50614177896000526022602052604060002090565b614182848254612332565b9055600161419a8a6000526022602052604060002090565b016141a6888254612332565b90556000805260226020527fb84cf808d0d5b1ad44962c9bfddd3cfce67763c49ab557cfd0e9f6804faade995415158061447d575b6141ef575b50505050505050505060135490565b614233899661422661074b6142439a159b61421e8d159b8c61446f575b60405186810191825293849160200190565b6130c16140bd565b80518101820191016140f6565b979294919a90986012549061235d565b10918215614462575b5081614459575b50156141e0576003966142b796156144505761152361427561427b9386612429565b91612418565b965b1561444657506142756142939361152392612429565b935b60026142ab826000526022602052604060002090565b01614041858254612332565b016142c3838254612332565b90556001600081905260236020526142fa7fb361aea33a0348d043deace4a562cb920ac10508397ad80f12dfe9a2a063e047611595565b148015614409575b6143cc575b5060046000526023602052600161433d7f33b8220312bcdd418636a962462731c74cfa4e2d018a461116daf7a4f539e35d611595565b14801561438f575b614364575b5061435661165a6148a4565b3880808080808080806141e0565b6004600052601f6020526143876002600080516020616ded833981519152614053565b90553861434a565b506103e7600052602360205260016143c67f7fb7114ab0bc53b2ffb5bc944cbd8d7055958c60a568e4224480a10dedf18cb9611595565b14614345565b6001600052601f60205261440160027f820fef5837650fa3b8e45045b88059d8deaf0810350ec511c47ef768a28c2c9b614053565b905538614307565b506103e7600052602360205260016144407f7fb7114ab0bc53b2ffb5bc944cbd8d7055958c60a568e4224480a10dedf18cb9611595565b14614302565b9250505093614295565b5050809661427d565b90501538614253565b601354101591503861424c565b6144788c6144de565b61420c565b508815156141db565b61449e919850863d881161044f576104418183611b49565b9638614162565b604051906144b282611af5565b601382527f72616e6b436c617573652875696e7432353629000000000000000000000000006020830152565b6144f36103ea6000546001600160a01b031690565b604091825180809363cfbffe5360e01b8252602091829160049485915afa9384156104565760009461461f575b5060139061452e8254612324565b6008811061453f5750505050505050565b61457861456a885161455c81611791868883019190602083019252565b6145646144a5565b89616ab3565b8380825183010191016140f6565b5050509081158015614617575b6145fa57906145ab9291601454101590816145d8575b50806145c6575b6145b057611c98565b61452e565b6145b981601355565b613ae086611be783611833565b5083546145d28261233f565b146145a2565b905060016145f0836000526022602052604060002090565b015410153861459b565b8851635258db5f60e01b8152600381880190815281906020010390fd5b508015614585565b816146379295503d861161044f576104418183611b49565b9238614520565b906146546103ea6000546001600160a01b031690565b9160409283518093819263cfbffe5360e01b8352602092839160049586915afa948515610456576000956147f2575b5015614702576013906146968254612324565b600881106146a75750505050505050565b6146c461456a885161455c81611791868883019190602083019252565b50505090811580156146fa575b6145fa57906146f59291601454101590816145d85750806145c6576145b057611c98565b614696565b5080156146d1565b91509160009493945b60135481116147ea57614747614739875161473181611791868983019190602083019252565b61385d6144a5565b8480825183010191016140f6565b50505090821515806147da575b6147bd579061477992916014541015908161479b575b501561477e57613ae081601355565b61470b565b613ae061478a82611833565b8154906000199060031b1b19169055565b905060016147b3836000526022602052604060002090565b015410153861476a565b8751635258db5f60e01b8152600481880190815281906020010390fd5b5081158061475457508015614754565b505050509050565b61480a919550823d841161044f576104418183611b49565b9338614683565b6040519061481e82611af5565b600982527f63617070696e67282900000000000000000000000000000000000000000000006020830152565b908160e091031261047b57805191602082015161486681610a43565b91604081015161487581610a43565b91606082015161488481610a43565b91608081015161489381610a43565b9160c060a08301516135a481610a43565b600090600460206148c06103ea6000546001600160a01b031690565b6040519283809263cfbffe5360e01b82525afa908115610456576149109161490191600091614cde575b506148f3614811565b6148fb612175565b91616ab3565b6020808251830101910161484a565b600080526022602052939694909290919061495861494f887fb84cf808d0d5b1ad44962c9bfddd3cfce67763c49ab557cfd0e9f6804faade9954612429565b97600454612429565b976149616160a4565b94614cd6575b50614c3a575b614ba0575b614b8f575b50614aea575b6149a0575b82841061499957614993838561235d565b82811191565b6000614993565b6006600052601f60205292614ae490614ade614aac614a7a614a48614a1660017fb59afb99c4de88e28b26eef6d7a02f582ab97b4ec5fdb5cf1f0116f112f13bde5b01546006600052601f60205260027fb59afb99c4de88e28b26eef6d7a02f582ab97b4ec5fdb5cf1f0116f112f13bde6127f3565b6006600052601f60205260037fb59afb99c4de88e28b26eef6d7a02f582ab97b4ec5fdb5cf1f0116f112f13bde6127f3565b6007600052601f60205260017f5b3e240a505832e5e6c9a7abee1f9f8788f1ffd3b8bbc82bdedad1079d3734a66127f3565b6007600052601f60205260027f5b3e240a505832e5e6c9a7abee1f9f8788f1ffd3b8bbc82bdedad1079d3734a66127f3565b6007600052601f60205260037f5b3e240a505832e5e6c9a7abee1f9f8788f1ffd3b8bbc82bdedad1079d3734a66127f3565b90612332565b92614982565b6005600052601f60205293614b8990614ade614b5760017f8f7baaeb89fd2366535b48ed7d56321470a1399e8ab1b2456eb79477a77d951b5b01546005600052601f60205260027f8f7baaeb89fd2366535b48ed7d56321470a1399e8ab1b2456eb79477a77d951b6127f3565b6005600052601f60205260037f8f7baaeb89fd2366535b48ed7d56321470a1399e8ab1b2456eb79477a77d951b6127f3565b9361497d565b614b999196612332565b9438614977565b6003600052601f6020527f9e71908050462d95d85d10ec71f33c35476f5af9a2363ff3b4f561b1ea620051549097614c3491614ade90614c029060027f9e71908050462d95d85d10ec71f33c35476f5af9a2363ff3b4f561b1ea6200506127f3565b60036000819052601f6020527f9e71908050462d95d85d10ec71f33c35476f5af9a2363ff3b4f561b1ea6200506127f3565b96614972565b60026000819052601f6020527f5af4fb70d755f38349f04272636124ff9474fedf9ea09deea577daa305383b11549199614cd0929091614ade91614c9e917f5af4fb70d755f38349f04272636124ff9474fedf9ea09deea577daa305383b106127f3565b6002600052601f60205260037f5af4fb70d755f38349f04272636124ff9474fedf9ea09deea577daa305383b106127f3565b9761496d565b995038614967565b614cf6915060203d811161044f576104418183611b49565b386148ea565b611ba59061501461500f614d0f83615145565b80516001600052601f6020526150069061500190600390614d50827f820fef5837650fa3b8e45045b88059d8deaf0810350ec511c47ef768a28c2c9b614053565b905560608401516004600052601f602052614d7982600080516020616ded833981519152614053565b90556020848101516002600052601f909152614db5827f5af4fb70d755f38349f04272636124ff9474fedf9ea09deea577daa305383b10614053565b90556040840180516003600052601f602052909190614df4827f9e71908050462d95d85d10ec71f33c35476f5af9a2363ff3b4f561b1ea620050614053565b905560808501516005600052601f602052614e2f827f8f7baaeb89fd2366535b48ed7d56321470a1399e8ab1b2456eb79477a77d951b614053565b905560a08501516006600052601f602052614e6a827fb59afb99c4de88e28b26eef6d7a02f582ab97b4ec5fdb5cf1f0116f112f13bde614053565b905560c08501516007600052601f60205290614ea6907f5b3e240a505832e5e6c9a7abee1f9f8788f1ffd3b8bbc82bdedad1079d3734a6614053565b905561010084015160026000819052601f602052614ee4907f5af4fb70d755f38349f04272636124ff9474fedf9ea09deea577daa305383b10614053565b9055610120840180516003600052601f60205290946101c091614f2860027f9e71908050462d95d85d10ec71f33c35476f5af9a2363ff3b4f561b1ea620050614053565b90556101608101516005600052601f602052614f6560027f8f7baaeb89fd2366535b48ed7d56321470a1399e8ab1b2456eb79477a77d951b614053565b90556101808101516006600052601f602052614fa260027fb59afb99c4de88e28b26eef6d7a02f582ab97b4ec5fdb5cf1f0116f112f13bde614053565b90556101a08101516007600052601f602052614fdf60027f5b3e240a505832e5e6c9a7abee1f9f8788f1ffd3b8bbc82bdedad1079d3734a6614053565b90550151614ff7886000526021602052604060002090565b5551600854612332565b600855565b51600954612332565b600955565b600f55565b604051906101e0820182811067ffffffffffffffff821117611ab757604052816101c06000918281528260208201528260408201528260608201528260808201528260a08201528260c08201528260e08201528261010082015282610120820152826101408201528261016082015282610180820152826101a08201520152565b604051906150a782611af5565b600a82527f73687574646f776e2829000000000000000000000000000000000000000000006020830152565b604051906150e082611af5565b601182527f696e636f6d654f662861646472657373290000000000000000000000000000006020830152565b6040519061511982611af5565b601482527f636f6d70757465546f75722875696e74323536290000000000000000000000006020830152565b9061514e615019565b916151646103ea6000546001600160a01b031690565b6040519163ab6e844f60e01b8352602083600481855afa92831561045657600093615827575b506040519163cfbffe5360e01b8352602083600481845afa90811561045657602093600092615803575b508360049186896153316151d86151c961509a565b6151d1612175565b9089616bd8565b976152756151e46160a4565b606086015280855261526f61523d60016152096001600052601f602052604060002090565b01546001600052601f60205260037f820fef5837650fa3b8e45045b88059d8deaf0810350ec511c47ef768a28c2c9b6127f3565b6001600052601f60205260027f820fef5837650fa3b8e45045b88059d8deaf0810350ec511c47ef768a28c2c9b6127f3565b9061235d565b835260608301516004600052601f6020527f44ef42eef5af19d25d4e44ae57c825e0d0624b9f37f2474ab961410a0aa29600546152eb919061526f906152cb906003600080516020616ded8339815191526127f3565b6004600052601f6020526002600080516020616ded8339815191526127f3565b60608401526103e76000526023602052888860016153287f7fb7114ab0bc53b2ffb5bc944cbd8d7055958c60a568e4224480a10dedf18cb9611595565b149c8d93615a5f565b9c94909d9295936101c0889398015261010082015201526000146157be57505061074b6153719161210b600e546040519384918883019190602083019252565b3160408a01525b604051928380927f52b06d640000000000000000000000000000000000000000000000000000000082525afa908115610456576153d99161074b9160009161579f575b506153d16139f36001546001600160a01b031690565b6115ca6150d3565b6005600052601f602052615411614b5760017f8f7baaeb89fd2366535b48ed7d56321470a1399e8ab1b2456eb79477a77d951b614b23565b9081608089015281811160001461579157615432915060808801519061235d565b60808701526004601354600281101580615752575b615724575b1015806156c1575b615690575b5061567b575b615658575b61546a57565b6154726148a4565b50509150506154878351602085015190612332565b6154b36154a861549d6040870193845190612332565b606087015190612332565b608086015190612332565b906154c460a0860192835190612332565b926154d560c0870194855190612332565b908082116154e4575050505050565b6154ed9161235d565b855181811115615646575061550390865161235d565b855260005b602086015181811115615631575061552490602087015161235d565b602086015260005b81518181111561561e575061554290825161235d565b905260005b606085015181811115615609575061556390606086015161235d565b606085015260005b6080850151818111156155f4575061558790608086015161235d565b608085015260005b8151818111156155e157506155a590825161235d565b905260005b8151818111156155cd57506155c090825161235d565b90525b3880808080613ffb565b6155da906000939261235d565b50526155c3565b6155ed9060009261235d565b91526155aa565b6155fd9161235d565b6000608086015261558f565b6156129161235d565b6000606086015261556b565b61562a9060009261235d565b9152615547565b61563a9161235d565b6000602087015261552c565b61564f9161235d565b60008652615508565b600060a08401805161018086015252600060c0840180516101a086015252615464565b6080840180516101608601526000905261545f565b6156b690604051906156ae8261074b60208201906004602083019252565b6115ca61510c565b60c086015238615459565b506007600052601f6020527f5b3e240a505832e5e6c9a7abee1f9f8788f1ffd3b8bbc82bdedad1079d3734a75461571e90614aac9060027f5b3e240a505832e5e6c9a7abee1f9f8788f1ffd3b8bbc82bdedad1079d3734a66127f3565b15615454565b6157486040516157408161179160208201906002602083019252565b611e0561510c565b60a089015261544c565b506006600052601f60205261578b614a1660017fb59afb99c4de88e28b26eef6d7a02f582ab97b4ec5fdb5cf1f0116f112f13bde6149e2565b15615447565b61579a9161235d565b615432565b6157b8915060203d60201161044f576104418183611b49565b386153bb565b89156157f257505061074b6157e69161210b600e546040519384918883019190602083019252565b316101208a0152615378565b60408c01526101208b015250615378565b600491925061581f8591823d841161044f576104418183611b49565b9291506151b4565b61584191935060203d60201161044f576104418183611b49565b913861518a565b604051906040820182811067ffffffffffffffff821117611ab75760405260006020838281520152565b6040519060a0820182811067ffffffffffffffff821117611ab75760405281615899615848565b81526158a3615848565b60208201526158b0615848565b60408201526158bd615848565b606082015260806158cc615848565b910152565b604051906158de82611af5565b601882527f6765744261746368526f79616c7479436c6175736573282900000000000000006020830152565b6102a090818184031261047b5782601f8201121561047b57604080519361593085611b2d565b849383019281841161047b57935b83851061594d57505050505090565b60608583031261047b57825160609161596582611abc565b865182526020918288015183820152858801518682015281520194019361593e565b6040519061599482611af5565b601f82527f676574526f79616c697479416d6f756e7442617463682875696e7432353629006020830152565b9060e08282031261047b5780601f8301121561047b57604051916159e383611b2d565b829060e0810192831161047b57905b8282106159ff5750505090565b81518152602091820191016159f2565b9060078110156108265760051b0190565b8181029291600082127f8000000000000000000000000000000000000000000000000000000000000000821416610c4b578184051490151715610c4b57565b93909194600095600095600095600095600095615afe615aef615a80615872565b96615a8a87615db8565b895190602082015252615a9c87615e7f565b60208a015190602082015252615ab187615f0a565b60408a015190602082015252615ac687615fac565b60608a015190602082015252615adb87616028565b60808a0151906020820152526148f36158d1565b6020808251830101910161590a565b92600f54601354905b868110615b2d575050505050506020608081606085015101518311159301510151101591565b615b63615b54604051615b4c8161179186602083019190602083019252565b612983615987565b602080825183010191016159c0565b6001905b83821115615c8e575050821580615c86575b615b8c575b615b8790611c98565b615b07565b615bab615ba3826000526021602052604060002090565b54809d61301c565b9b615bb6828961235d565b9060009160408b015180518b8110615c30575b5050808311615c28575b82615bdd9161235d565b9180615c12575b5081615bf2575b5050615b7e565b9b615c04615c0a92615b87949e615a20565b9061301c565b9a9038615beb565b9b615c04829d615c2193615a20565b9a38615be4565b915081615bd3565b80861115615c7d5750602085915b01615c498151612324565b8c1015615c6e57508a5b81811115615bc957615c6692945061235d565b913880615bc9565b615c789051612324565b615c53565b60209091615c3e565b508315615b79565b909d8e615ca3615c9d8261233f565b8a615a0f565b515115908115615d57575b50615d4d57895180518410159081615d3e575b508015615d17575b15615cfb57615cef8f91615ce8615ce2615cf59461233f565b85615a0f565b5190612332565b9e611c98565b90615b67565b9d9e8f615cf591615ce8615ce2615d119361233f565b9f611c98565b5060208a015180518410159081615d2f575b50615cc9565b60209150015183111538615d29565b60209150015183111538615cc1565b9d615cf590611c98565b9050615d6f615d6582611833565b90549060031b1c90565b8410159081615d81575b50158f615cae565b615daf91506040615da6615da0615d9a615d6585611833565b9361233f565b8c615a0f565b51015190612332565b8311158f615d79565b6103e7600081905260236020527f7fb7114ab0bc53b2ffb5bc944cbd8d7055958c60a568e4224480a10dedf18cb980549392908415615e775760018516615e5c5750506000526023602052615d65615e1d6040600020615e178561234e565b90611ba7565b90546103e7600052602360205260039190911b1c92615e177f7fb7114ab0bc53b2ffb5bc944cbd8d7055958c60a568e4224480a10dedf18cb99161233f565b9093615e6c9250615e179061233f565b90549060031b1c9190565b509250508190565b6002600090815260236020527f1bcb44d21c67d5659cdd5f45cd32c6d6c6d33d5044115600c6652ecd87939c098054919392908215615e775760018316615efb575050615d6590600284526023602052615e176040615ee3818720615e178561234e565b90549060031b1c95600281526023602052209161233f565b909350615e17615e6c9261233f565b6003600081815260236020527fca0574cb82515dd8d8feabc9bfece9b4778855cddef4d6e8f68e64178480ff7e8054919493908215615fa35760018316615f8b575050615f83908285526023602052615e176040615f6d818820615e178561234e565b905490861b1c968581526023602052209161233f565b9054911b1c90565b909450615e17615f9a9261233f565b9054911b1c9190565b50935050508190565b6005600090815260236020527f704c3cd83e5804c028f2befbf48b95f696630c4191faa77498f0bcf394fbc1a88054919392908215615e775760018316615efb575050615d6590600584526023602052615e176040616010818720615e178561234e565b90549060031b1c95600581526023602052209161233f565b6006600090815260236020527fc218e2b733cf67303336f21ce058ad7b82d7ff580c18755103b33fa70179f5f88054919392908215615e775760018316615efb575050615d6590600684526023602052615e17604061608c818720615e178561234e565b90549060031b1c95600681526023602052209161233f565b600090816001815b600f8211156161115750506001600052601f6020527f820fef5837650fa3b8e45045b88059d8deaf0810350ec511c47ef768a28c2c9b548101809111610c4b576004600052601f60205291611b8090600080516020616ded8339815191525490612332565b9093848252602292602093808552604090600282862001548301809311610c4b576003929588865252832001548101809111610c4b576161519094611c98565b906160ac565b919091616162612477565b9281156164a45760018214616465576002821461632757600382146162ba5760048214616279576161b9906161956167cd565b90600f546161a38282612332565b831115616272576161b49250612332565b615145565b9060058114616223576006146161cc5750565b9091506101a06161da61214c565b9160e08101518352610100810151602084015261012081015160408401526101408101516060840152610160810151608084015261018081015160a0840152015160c082015290565b5090915060c061623161214c565b91805183526020810151602084015260408101516040840152606081015160608401526080810151608084015260a081015160a0840152015160c082015290565b5050615145565b5050905061628561214c565b600a54815260065460208201526007546040820152601154606082015260006080820152600060a0820152600060c082015290565b505090506162c661214c565b60045481526005546020820152600854604082015260095460608201526162f86001600052601f602052604060002090565b5460808201526004600052601f602052600080516020616ded8339815191525460a0820152600060c082015290565b5050905061633361214c565b6001600052601f6020526003807f820fef5837650fa3b8e45045b88059d8deaf0810350ec511c47ef768a28c2c9b5b015482527f5af4fb70d755f38349f04272636124ff9474fedf9ea09deea577daa305383b108101546020808401919091527f9e71908050462d95d85d10ec71f33c35476f5af9a2363ff3b4f561b1ea62005082015460408401526004600052601f90526001600080516020616ded8339815191525b015460608301527f8f7baaeb89fd2366535b48ed7d56321470a1399e8ab1b2456eb79477a77d951b81015460808301527fb59afb99c4de88e28b26eef6d7a02f582ab97b4ec5fdb5cf1f0116f112f13bde81015460a08301526007600052601f6020527f5b3e240a505832e5e6c9a7abee1f9f8788f1ffd3b8bbc82bdedad1079d3734a6015460c082015290565b5050905061647161214c565b6001600052601f6020526002807f820fef5837650fa3b8e45045b88059d8deaf0810350ec511c47ef768a28c2c9b616362565b505090506164b061214c565b7f820fef5837650fa3b8e45045b88059d8deaf0810350ec511c47ef768a28c2c9c5481527f5af4fb70d755f38349f04272636124ff9474fedf9ea09deea577daa305383b11546020808301919091527f9e71908050462d95d85d10ec71f33c35476f5af9a2363ff3b4f561b1ea6200515460408301526004600052601f9052600180600080516020616ded8339815191526163d7565b9060405161655381611a9b565b6060600382948054845260018101546020850152600281015460408501520154910152565b67ffffffffffffffff8111611ab75760051b60200190565b9061659a82616578565b6165a76040519182611b49565b82815280926165b8601f1991616578565b019060005b8281106165c957505050565b6020906165d4613307565b828285010152016165bd565b80518210156108265760209160051b010190565b9081602091031261047b5751611b8081610a43565b6001600160a01b03600054166040518091634bf9c0ad60e11b825281600460209485935afa801561045657616684916000916166ab575b5060405161664d81611af5565b600881527f69735361666528290000000000000000000000000000000000000000000000008482015261667e612175565b91616ade565b90806166a1575b1561079b5781611b8092825183010191016165f4565b508181511461668b565b6166c29150833d851161044f576104418183611b49565b38616640565b604051906166d582611af5565b601582527f69735365637572654261736528616464726573732900000000000000000000006020830152565b6167166103ea6000546001600160a01b031690565b906040518092634bf9c0ad60e11b825281600460209586935afa8015610456576166849261074b92600092616771575b50616769906040519384918783019190916001600160a01b036020820193169052565b6107616166c8565b61676991925061678d90863d881161044f576104418183611b49565b9190616746565b604051906167a182611af5565b601182527f69735369676e65722861646472657373290000000000000000000000000000006020830152565b600460206001600160a01b03600054166040519283809263111ea8c160e21b82525afa801561045657611b809160009161684f575b5060405161680f81611af5565b600581527f616765282900000000000000000000000000000000000000000000000000000060208201526040519161684683611b11565b60008352616c14565b616867915060203d811161044f576104418183611b49565b38616802565b6040519061687a82611af5565b601882527f697364656c656761746f724e6f646528616464726573732900000000000000006020830152565b6001600160a01b038091169081156109f757600154826001600160a01b0319821617600155167f8292fce18fa69edf4db7b94ea2e58241df0ae57f97e0a6c9b29067028bf92d76600080a3565b3d1561691e573d9061690482612159565b916169126040519384611b49565b82523d6000602084013e565b606090565b908015611c2e576001600160a01b0382169182156109f757600080808481945af161694c6168f3565b501561079b5760207fcec1f18c3ab8ddaaa107a1591e3c369667eec613626611a8deaedef43069fcdd91604051908152a2565b60006169956103ea82546001600160a01b031690565b9060405180927f46f991ac00000000000000000000000000000000000000000000000000000000825281600460209586935afa80156104565782808681949382948391616a96575b505af16169e86168f3565b501561079b57600482616a056103ea84546001600160a01b031690565b604051928380927f5e09dbe70000000000000000000000000000000000000000000000000000000082525afa908115610456577fcdcc745fe377b103b45fa0cec23ae3ef93d6fc6a84a01f0d18c40b354dd1d5d8936001600160a01b039392616a79575b50506040519384521691602090a2565b616a8f9250803d1061044f576104418183611b49565b3880616a69565b616aad9150883d8a1161044f576104418183611b49565b386169dd565b90616abe9291616ade565b9060009015616acb575090565b6040519150616ad982611b11565b815290565b9190823b15616b76577fffffffff00000000000000000000000000000000000000000000000000000000815160208093012016916040519180830193845281519160005b838110616b62575050509181616b4f60248260009795968897018783820152036004810184520182611b49565b5191620dbba0fa616b5e6168f3565b9091565b818101830151858201602401528201616b22565b505050600090604051616b8881611b11565b6000815290565b9291616b9d91600094616ade565b9080616bcd575b616bab5750565b6001600160a01b0391925080602080616bc993518301019101611b6b565b1690565b506020815114616ba4565b9291616be691600094616ade565b9080616c09575b616bf45750565b611b80919250602080825183010191016165f4565b506020815114616bed565b9291616c2291600094616ade565b9080616c45575b616c305750565b611b80919250602080825183010191016125ac565b506020815114616c29565b9291616c5e91600094616ade565b9080616c83575b616c6c5750565b90915060208180518101031261047b576020015190565b506020815114616c65565b90602082519201517fffffffff00000000000000000000000000000000000000000000000000000000908181169360048110616cc957505050565b60040360031b82901b16169150565b6001600160a01b038116156109f757600080918351908260208601915af190616cff6168f3565b9115616d09575090565b805160009190600411616d8557616d209150616c8e565b815115616d305750805190602001fd5b6040517f21c09d340000000000000000000000000000000000000000000000000000000081527fffffffff00000000000000000000000000000000000000000000000000000000919091166004820152602490fd5b50616d20565b803b6000616d9882612159565b92616da66040519485611b49565b82845260208401903c602d815110616dc257602a015160601c90565b60046040517fbaf3f0f7000000000000000000000000000000000000000000000000000000008152fdfe44ef42eef5af19d25d4e44ae57c825e0d0624b9f37f2474ab961410a0aa295ffa2646970667358221220cdaf0f8fda563a1ca20b463982d27481be5a7f5f6e609fb530e59656f15b565864736f6c63430008140033","linkReferences":{}},"methodIdentifiers":{"instanceStor()":"131c73ad"},"id":69}