{"abi":[{"type":"constructor","inputs":[{"name":"_hex","type":"address","internalType":"address"}],"stateMutability":"nonpayable"},{"type":"function","name":"instance","inputs":[],"outputs":[{"name":"","type":"address","internalType":"address"}],"stateMutability":"view"},{"type":"function","name":"tVLFactory","inputs":[],"outputs":[{"name":"","type":"address","internalType":"address"}],"stateMutability":"view"}],"bytecode":{"object":"0x60803461012657601f61325938819003918201601f19168301926001600160401b039290918385118386101761011057816020928492604097885283398101031261012657516001600160a01b03908181169081900361012657835190611f25918281019281841086851117610110576101e58239818352858160009485602082015203019083f09384156101065782549484166001600160a01b031995861617835585519161114f80840192848410908411176100f25791839160209361210a8439815203019082f09081156100e75750169060015416176001555160b9908161012c8239f35b8451903d90823e3d90fd5b634e487b7160e01b85526041600452602485fd5b85513d84823e3d90fd5b634e487b7160e01b600052604160045260246000fd5b600080fdfe6080806040526004361015601257600080fd5b600090813560e01c908163022ec09514605d5750639ba540fb14603457600080fd5b34605a5780600319360112605a576001546040516001600160a01b039091168152602090f35b80fd5b905034607f5781600319360112607f5790546001600160a01b03168152602090f35b5080fdfea2646970667358221220340e858377db3f44b30ac55365cf83a28a02e8ff69231cb5f69293d5ef00d6c164736f6c63430008140033608034620000f457601f62001f2538819003918201601f19168301916001600160401b03831184841017620000f9578084926040948552833981010312620000f4576200005a602062000052836200010f565b92016200010f565b6001600160a01b0391821691908215620000af5760018060a01b03199283600154169084600054161760005560016003553390843316171760015516906004541617600455604051611e009081620001258239f35b60405162461bcd60e51b815260206004820152601360248201527f6f776e2e696e76616c69642e68657862617365000000000000000000000000006044820152606490fd5b600080fd5b634e487b7160e01b600052604160045260246000fd5b51906001600160a01b0382168203620000f45756fe60806040526004361015610018575b361561001657005b005b60003560e01c80630399c93c1461014857806312065fe0146101435780631f185d161461013e5780633b9b79551461013957806360f96a8f146101345780638129fc1c1461012f578063859d603c1461012a5780638da5cb5b14610125578063a1f7f53914610120578063a3e884b01461011b578063af48452614610116578063af640d0f14610111578063b28175c41461010c578063b90306ad14610107578063c107930a14610102578063c54e44b0146100fd578063e01ad5fd146100f8578063e0a9bc2b146100f35763fdc10bc90361000e57610f12565b610ef7565b610e58565b610dbf565b610bad565b610afa565b610ad1565b610ab3565b610a82565b610915565b610837565b61080e565b61074b565b6103b6565b61038d565b610364565b610250565b610234565b610163565b6001600160a01b0381160361015e57565b600080fd5b3461015e57602036600319011261015e576004356101808161014d565b61019061018b611752565b61114d565b6101993361187d565b80156101b2575b906101ad6100169261118e565b611504565b50600054604051630536340960e21b81526001600160a01b0392916020908290600490829087165afa801561022f57610016936101ad926000926101ff575b5033911614919250506101a0565b61022191925060203d8111610228575b610219818361101b565b81019061103d565b90386101f1565b503d61020f565b611055565b3461015e57600036600319011261015e57602047604051908152f35b3461015e5760208060031936011261015e576004908135906102718261014d565b6000548190610290906001600160a01b03165b6001600160a01b031690565b604051634bf9c0ad60e11b815294859182905afa91821561022f576102e7610321936103039261033396600092610341575b506040516001600160a01b0390911685820190815290926102f5918491602090910190565b03601f19810184528361101b565b6102fd611929565b90611ba4565b919080610337575b61031490611956565b808251830101910161173d565b60405190151581529081906020820190565b0390f35b508151811461030b565b6102f591925061035d90863d881161022857610219818361101b565b91906102c2565b3461015e57600036600319011261015e576000546040516001600160a01b039091168152602090f35b3461015e57600036600319011261015e576004546040516001600160a01b039091168152602090f35b60008060031936011261073e576103cb610fa5565b6006546107005780546103e6906001600160a01b0316610284565b6040805163013cf08b60e01b8082526000600483015292602091908282602481845afa91821561022f5786926106e1575b5060015484516001600160a01b03909116848201818152829003808352601f1994919261045b92909161044d906020018361101b565b610455611090565b90611c22565b916001600160a01b0383161561061757505085546004908490610486906001600160a01b0316610284565b865163ab6e844f60e01b815292839182905afa91821561022f576105066104f861054b9261055095610529958c916105fa575b506001548a51631dd7707560e11b8b8201526001600160a01b03938416602482015292166044830152606488810183526104f3908361101b565b611d0f565b8680825183010191016110e5565b600480546001600160a01b0319166001600160a01b039092169190911790559092565b60018060a01b03166bffffffffffffffffffffffff60a01b6005541617600555565b600655565b84548290610566906001600160a01b0316610284565b845195865260006004870152859060249082905afa90811561022f576105ca9486926105d9575b506001549351634ef260a960e01b938101939093526001600160a01b03909316602483015290916104f39083604481015b0390810184528361101b565b505b6105d66001600355565b80f35b6104f392506105f490843d861161022857610219818361101b565b9161058d565b6106119150893d8b1161022857610219818361101b565b386104b9565b858594959296975060049350519283809263ab6e844f60e01b82525afa93841561022f576106bb9561054b956106999561068c948a926106c0575b50600454925163b1c4907960e01b878201526001600160a01b039384166024820152939092166044840152906104f39083606481016105be565b80518101820191016110c9565b600580546001600160a01b0319166001600160a01b0390921691909117905590565b6105cc565b6104f392506106db90873d891161022857610219818361101b565b91610652565b6106f9919250833d851161022857610219818361101b565b9038610417565b60405162461bcd60e51b81526020600482015260166024820152751b594b985b1c9958591e4b9a5b9a5d1a585b1a5e995960521b6044820152606490fd5b80fd5b8015150361015e57565b3461015e57604036600319011261015e5760043561076881610741565b6024356107748161014d565b61077f61018b611752565b6107883361187d565b80156107a1575b9161079c6100169361118e565b61157d565b50600054604051630536340960e21b81526001600160a01b0393916020908290600490829088165afa801561022f576100169461079c926000926107ee575b50339116149193505061078f565b61080791925060203d811161022857610219818361101b565b90386107e0565b3461015e57600036600319011261015e576001546040516001600160a01b039091168152602090f35b3461015e57600036600319011261015e5760005460405163d1f956b160e01b815290602090829060049082906001600160a01b03165afa90811561022f57610333916108c0916000916108d0575b5060405161089281610fde565b601381527267657464656c656761746f72436f756e74282960681b60208201526108ba61107d565b91611ca2565b6040519081529081906020820190565b6108e8915060203d811161022857610219818361101b565b38610885565b608090600319011261015e576004356109068161014d565b90602435906044359060643590565b61091e366108ee565b9261092f600693929354151561110f565b610937610fa5565b6001840361095357610949935061122b565b6100166001600355565b50916007915014610965575b50610949565b61096d610fa5565b600054610982906001600160a01b0316610284565b604051809163ab6e844f60e01b825281600460209485935afa92831561022f576109ef936109e292600091610a65575b50600654604051631aa0449160e21b86820152602481019190915260448101929092526104f382606481016102e7565b805181018201910161121c565b80471015610a09575b50610a036001600355565b3861095f565b6001547f9e02be43f018109b8d6e8d5b1dbc2539fcd1630bee6f79c4df7989d895fe798f91610a5c91610a469082906001600160a01b03166119f8565b6040805191825242602083015290918291820190565b0390a1386109f8565b610a7c9150843d861161022857610219818361101b565b386109b2565b3461015e57602036600319011261015e576020610aa9600435610aa48161014d565b61187d565b6040519015158152f35b3461015e57600036600319011261015e576020600654604051908152f35b3461015e57600036600319011261015e576005546040516001600160a01b039091168152602090f35b3461015e57602036600319011261015e57600054604051630536340960e21b8152906001600160a01b03906020908390600490829085165afa91821561022f57600092610b8d575b5033911603610b5657610016600435611acf565b60405162461bcd60e51b815260206004820152600f60248201526e6f776e2e6e6f6e617574682e44414f60881b6044820152606490fd5b610ba691925060203d811161022857610219818361101b565b9038610b42565b610bb6366108ee565b610bc6600694939454151561110f565b610bd161018b611752565b610bda3361187d565b8015610d58575b610bea9061118e565b610bf2610fa5565b610bfd61018b611752565b610c063361187d565b8015610cec575b93610c1960049561118e565b610c2a610c258561187d565b6111da565b60005460405163ab6e844f60e01b81529560209187919082906001600160a01b03165afa91821561022f57610cb995600093610cc4575b50600654604051636e59fe2560e11b602082015260248101919091526001600160a01b0390951660448601526064850191909152608484019290925260a4830191909152600060c48301526104f38260e481016102e7565b506100166001600355565b6104f3935090610ce46102e79260203d811161022857610219818361101b565b935090610c61565b50600054604051630536340960e21b81526001600160a01b039591602090829060049082908a165afa801561022f57600496610c1992600092610d38575b503391161491955050610c0d565b610d5191925060203d811161022857610219818361101b565b9038610d2a565b50600054604051630536340960e21b8152906001600160a01b03906020908390600490829085165afa90811561022f57610bea92600092610d9f575b501633149050610be1565b610db891925060203d811161022857610219818361101b565b9038610d94565b3461015e57602036600319011261015e57600435610ddc8161014d565b803b6000610de982611061565b92610df7604051948561101b565b82845260208401903c602d815110610e1d57602a015160405160609190911c8152602090f35b60405162461bcd60e51b81526020600482015260136024820152724e6f742061206d696e696d616c2070726f787960681b6044820152606490fd5b3461015e5760208060031936011261015e5760048035610e778161014d565b60005460405163d1f956b160e01b81526001600160a01b03949093909182918591829088165afa90811561022f576103339461032194600093610ed8575b506040519316818401528252610eca82610fde565b610ed261199b565b90611c66565b610ef0919350823d841161022857610219818361101b565b9138610eb5565b3461015e57600036600319011261015e576020610aa9611752565b3461015e57600036600319011261015e5760005460405163111ea8c160e21b815290602090829060049082906001600160a01b03165afa90811561022f57610333916108c091600091610f87575b50604051610f6d81610fde565b6005815264616765282960d81b60208201526108ba61107d565b610f9f915060203d811161022857610219818361101b565b38610f60565b600260035414610fb6576002600355565b604051633ee5aeb560e01b8152600490fd5b634e487b7160e01b600052604160045260246000fd5b6040810190811067ffffffffffffffff821117610ffa57604052565b610fc8565b6020810190811067ffffffffffffffff821117610ffa57604052565b90601f8019910116810190811067ffffffffffffffff821117610ffa57604052565b9081602091031261015e57516110528161014d565b90565b6040513d6000823e3d90fd5b67ffffffffffffffff8111610ffa57601f01601f191660200190565b6040519061108a82610fff565b60008252565b6040519061109d82610fde565b601e82527f7265736f6c76655472616e7366657254617267657428616464726573732900006020830152565b919082604091031261015e57602082519201516110528161014d565b9081606091031261015e57805191604060208301516111038161014d565b9201516110528161014d565b1561111657565b60405162461bcd60e51b815260206004820152600f60248201526e1b594b9a5b9d985b1a590b9a5b9a5d608a1b6044820152606490fd5b1561115457565b60405162461bcd60e51b81526020600482015260126024820152716f776e2e696e76616c69642e69735361666560701b6044820152606490fd5b1561119557565b60405162461bcd60e51b815260206004820152601b60248201527f6f776e2e6e6f6e617574682e44414f6f725365637572656261736500000000006044820152606490fd5b156111e157565b60405162461bcd60e51b81526020600482015260136024820152726d652e756e7365637572652e4f52433131353560681b6044820152606490fd5b9081602091031261015e575190565b90611234610fa5565b611240610c258361187d565b34611255575b5050506112536001600355565b565b611268611261346114c6565b6064900490565b9261127d611275346114e1565b6103e8900490565b9061128a611275346114e1565b916112a28361129d8361129d8a346114f7565b6114f7565b916000966112b9610284895460018060a01b031690565b926040938451958691635e09dbe760e01b83528260046020998a935afa801561022f576112ed928c91611499575b506119f8565b88546004908690611306906001600160a01b0316610284565b8651636402742760e01b815292839182905afa92831561022f57600493611333928c9161149957506119f8565b88548590611349906001600160a01b0316610284565b85516330125cf560e01b815293849182905afa801561022f57611372928a9161147c57506119f8565b8654600490849061138b906001600160a01b0316610284565b84516324768d9160e01b815292839182905afa94851561022f576004956113b8928a9161147c57506119f8565b865483906113ce906001600160a01b0316610284565b835163ab6e844f60e01b815295869182905afa93841561022f5761144a9794611453575b506006549151636e59fe2560e11b9381019390935260248301919091526001600160a01b039094166044820152606481019290925260848201929092523460a4820152600160c4820152906104f38260e481016102e7565b50388080611246565b6104f39450906114736102e79392853d871161022857610219818361101b565b945090916113f2565b6114939150863d881161022857610219818361101b565b386112e7565b6114939150883d8a1161022857610219818361101b565b634e487b7160e01b600052601160045260246000fd5b906015820291808304601514901517156114dc57565b6114b0565b90602d820291808304602d14901517156114dc57565b919082039182116114dc57565b61153890611515600654151561110f565b61151d610fa5565b6115316001600160a01b038216151561153f565b47906119f8565b6001600355565b1561154657565b60405162461bcd60e51b815260206004820152600f60248201526e6d652e7a65726f2e6164647265737360881b6044820152606490fd5b9061158b600654151561110f565b611593610fa5565b6115a76001600160a01b038216151561153f565b6000546004906020906115c2906001600160a01b0316610284565b60405163ab6e844f60e01b815292839182905afa90811561022f576116769361165392846105be93600092611680575b506006546040805160208101929092526001600160a01b0392909216918101919091529115156060808401919091528252906104f390601f199061163760808261101b565b60405163a87af76960e01b6020820152948591602483016116c5565b5060018060a01b03166bffffffffffffffffffffffff60a01b6004541617600455565b6112536001600355565b6104f3925061169c9060203d811161022857610219818361101b565b916115f2565b60005b8381106116b55750506000910152565b81810151838201526020016116a5565b604091602082526116e581518092816020860152602086860191016116a2565b601f01601f1916010190565b156116f857565b60405162461bcd60e51b815260206004820152601960248201527f6f776e2e7361666567756172642e63616c6c2e6661696c6564000000000000006044820152606490fd5b9081602091031261015e575161105281610741565b600054604051634bf9c0ad60e11b8152906020908190839060049082906001600160a01b03165afa91821561022f57611052926117c8916000916117e3575b5060405161179e81610fde565b6008815267697353616665282960c01b84820152604051916117bf83610fff565b60008352611ba4565b9190806117d9575b610314906116f1565b50815181146117d0565b6117fa9150833d851161022857610219818361101b565b38611791565b6040519061180d82610fde565b601582527469735365637572654261736528616464726573732960581b6020830152565b1561183857565b60405162461bcd60e51b815260206004820152601a60248201527f6f776e2e736563757265626173652e63616c6c2e6661696c65640000000000006044820152606490fd5b6000546001600160a01b0316604051918291634bf9c0ad60e11b835282600460209485935afa92831561022f57611052936118eb926102e792600092611906575b506040516001600160a01b0390911685820190815290926118e3918491602090910190565b6102fd611800565b9190806118fc575b61031490611831565b50815181146118f3565b6118e391925061192290863d881161022857610219818361101b565b91906118be565b6040519061193682610fde565b601182527069735369676e657228616464726573732960781b6020830152565b1561195d57565b60405162461bcd60e51b81526020600482015260166024820152751bdddb8b9cda59db995c8b98d85b1b0b99985a5b195960521b6044820152606490fd5b604051906119a882610fde565b6011825270697364656c656761746f724e6f6465282960781b6020830152565b3d156119f3573d906119d982611061565b916119e7604051938461101b565b82523d6000602084013e565b606090565b908015611acb576001600160a01b038216918215611a9557600080808481945af1611a216119c8565b5015611a5a576040519081527fcec1f18c3ab8ddaaa107a1591e3c369667eec613626611a8deaedef43069fcdd9080602081015b0390a2565b60405162461bcd60e51b81526020600482015260136024820152721bdddb8b9d1c985b9cd9995c8b99985a5b1959606a1b6044820152606490fd5b60405162461bcd60e51b815260206004820152600e60248201526d6f776e2e696e76616c69642e746f60901b6044820152606490fd5b5050565b600080546040516311be646b60e21b815290602090829060049082906001600160a01b03165afa90811561022f578284819382938391611b86575b505af1611b156119c8565b5015611b4f5760405190815233907fcdcc745fe377b103b45fa0cec23ae3ef93d6fc6a84a01f0d18c40b354dd1d5d8908060208101611a55565b60405162461bcd60e51b815260206004820152600f60248201526e1bdddb8b989d5c9b8b99985a5b1959608a1b6044820152606490fd5b611b9e915060203d811161022857610219818361101b565b38611b0a565b803b15611c0957600092839263ffffffff60e01b90602081519101201690611bf66024604051809360208201958652611be681518092602086860191016116a2565b810103600481018452018261101b565b5191620dbba0fa611c056119c8565b9091565b505050600090604051611c1b81610fff565b6000815290565b9291611c3091600094611ba4565b9080611c5b575b611c3e5750565b90915060208180518101031261015e57602001516102848161014d565b506020815114611c37565b9291611c7491600094611ba4565b9080611c97575b611c825750565b6110529192506020808251830101910161173d565b506020815114611c7b565b9291611cb091600094611ba4565b9080611cd3575b611cbe5750565b6110529192506020808251830101910161121c565b506020815114611cb7565b906020825192015163ffffffff60e01b908181169360048110611d0057505050565b60040360031b82901b16169150565b6001600160a01b03811615611d9057600080918351908260208601915af190611d366119c8565b9115611d40575090565b805160009190600411611d8a57611d579150611cde565b815115611d675750805190602001fd5b604051630870274d60e21b81526001600160e01b03199091166004820152602490fd5b50611d57565b60405162461bcd60e51b81526020600482015260126024820152711bdddb8b9a5b9d985b1a590b9d185c99d95d60721b6044820152606490fdfea264697066735822122085e198314c3cad935845b748aa7265bbbc34145f2432731cdc628f47ab61851564736f6c634300081400336080346100c557601f61114f38819003918201601f19168301916001600160401b038311848410176100ca578084926020946040528339810103126100c557516001600160a01b038116908190036100c55780156100805760018060a01b031933816001541617600155600054161760005560405161106e90816100e18239f35b60405162461bcd60e51b815260206004820152601360248201527f6f776e2e696e76616c69642e68657862617365000000000000000000000000006044820152606490fd5b600080fd5b634e487b7160e01b600052604160045260246000fdfe60806040526004361015610018575b361561001657005b005b60003560e01c806312065fe0146100d85780631f185d16146100d35780633b9b7955146100ce5780638da5cb5b146100c9578063a1f7f539146100c4578063a9059cbb146100bf578063af484526146100ba578063b90306ad146100b5578063c54e44b0146100b0578063e01ad5fd146100ab578063e0a9bc2b146100a65763fdc10bc90361000e576106b7565b61069c565b6105fd565b610564565b6104b1565b610480565b61033c565b610285565b61025c565b610233565b61010a565b346100f45760003660031901126100f457602047604051908152f35b600080fd5b6001600160a01b038116036100f457565b346100f4576020806003193601126100f45760049081359061012b826100f9565b600054819061014a906001600160a01b03165b6001600160a01b031690565b604051634bf9c0ad60e11b815294859182905afa91821561022e576101a16101db936101bd926101ed966000926101fb575b506040516001600160a01b0390911685820190815290926101af918491602090910190565b03601f19810184528361079d565b6101b7610bbc565b90610e37565b9190806101f1575b6101ce90610be9565b80825183010191016109cd565b60405190151581529081906020820190565b0390f35b50815181146101c5565b6101af91925061022090863d8811610227575b610218818361079d565b8101906107bf565b919061017c565b503d61020e565b6107d7565b346100f45760003660031901126100f4576000546040516001600160a01b039091168152602090f35b346100f45760003660031901126100f4576001546040516001600160a01b039091168152602090f35b346100f45760003660031901126100f45760005460405163d1f956b160e01b815290602090829060049082906001600160a01b03165afa90811561022e576101ed9161030e9160009161031e575b506040516102e081610760565b601381527267657464656c656761746f72436f756e74282960681b602082015261030861096e565b91610f0d565b6040519081529081906020820190565b610336915060203d811161022757610218818361079d565b386102d3565b60403660031901126100f457600435610354816100f9565b6001600160a01b0390808216156104465761036d6109e5565b1561040c5761037b33610b10565b918215610399575b50610390610016926107e3565b6024359061085b565b6000549092506004906020906103b7906001600160a01b031661013e565b604051630536340960e21b815292839182905afa801561022e5761001693610390926000926103ec575b501633149250610383565b61040591925060203d811161022757610218818361079d565b90386103e1565b60405162461bcd60e51b81526020600482015260126024820152716f776e2e696e76616c69642e69735361666560701b6044820152606490fd5b60405162461bcd60e51b815260206004820152601260248201527137bbb7173232b330bab63a1739b2b73232b960711b6044820152606490fd5b346100f45760203660031901126100f45760206104a76004356104a2816100f9565b610b10565b6040519015158152f35b346100f45760203660031901126100f457600054604051630536340960e21b8152906001600160a01b03906020908390600490829085165afa91821561022e57600092610544575b503391160361050d57610016600435610d62565b60405162461bcd60e51b815260206004820152600f60248201526e6f776e2e6e6f6e617574682e44414f60881b6044820152606490fd5b61055d91925060203d811161022757610218818361079d565b90386104f9565b346100f45760203660031901126100f457600435610581816100f9565b803b600061058e82610952565b9261059c604051948561079d565b82845260208401903c602d8151106105c257602a015160405160609190911c8152602090f35b60405162461bcd60e51b81526020600482015260136024820152724e6f742061206d696e696d616c2070726f787960681b6044820152606490fd5b346100f4576020806003193601126100f4576004803561061c816100f9565b60005460405163d1f956b160e01b81526001600160a01b03949093909182918591829088165afa90811561022e576101ed946101db9460009361067d575b50604051931681840152825261066f82610760565b610677610c2e565b90610ed1565b610695919350823d841161022757610218818361079d565b913861065a565b346100f45760003660031901126100f45760206104a76109e5565b346100f45760003660031901126100f45760005460405163111ea8c160e21b815290602090829060049082906001600160a01b03165afa90811561022e576101ed9161030e9160009161072c575b5060405161071281610760565b6005815264616765282960d81b602082015261030861096e565b610744915060203d811161022757610218818361079d565b38610705565b634e487b7160e01b600052604160045260246000fd5b6040810190811067ffffffffffffffff82111761077c57604052565b61074a565b6020810190811067ffffffffffffffff82111761077c57604052565b90601f8019910116810190811067ffffffffffffffff82111761077c57604052565b908160209103126100f457516107d4816100f9565b90565b6040513d6000823e3d90fd5b156107ea57565b60405162461bcd60e51b815260206004820152601b60248201527f6f776e2e6e6f6e617574682e44414f6f725365637572656261736500000000006044820152606490fd5b9068056bc75e2d63100000820180921161084557565b634e487b7160e01b600052601160045260246000fd5b908047106108a8575b61086e8183610c8b565b60405190815233916001600160a01b0316907f1e70cf59d0c7a20c88704bfce5a47e636dfa577ebf52a7166641741cef34366190602090a3565b6108b18161082f565b6000546004906020906108cc906001600160a01b031661013e565b604051635e09dbe760e01b815292839182905afa801561022e57610928926101a19260009261092e575b5060405163a9059cbb60e01b60208201523060248201526044810191909152916109239083906064820190565b610f7c565b50610864565b61092391925061094b9060203d811161022757610218818361079d565b91906108f6565b67ffffffffffffffff811161077c57601f01601f191660200190565b6040519061097b82610781565b60008252565b1561098857565b60405162461bcd60e51b815260206004820152601960248201527f6f776e2e7361666567756172642e63616c6c2e6661696c6564000000000000006044820152606490fd5b908160209103126100f4575180151581036100f45790565b600054604051634bf9c0ad60e11b8152906020908190839060049082906001600160a01b03165afa91821561022e576107d492610a5b91600091610a76575b50604051610a3181610760565b6008815267697353616665282960c01b8482015260405191610a5283610781565b60008352610e37565b919080610a6c575b6101ce90610981565b5081518114610a63565b610a8d9150833d851161022757610218818361079d565b38610a24565b60405190610aa082610760565b601582527469735365637572654261736528616464726573732960581b6020830152565b15610acb57565b60405162461bcd60e51b815260206004820152601a60248201527f6f776e2e736563757265626173652e63616c6c2e6661696c65640000000000006044820152606490fd5b6000546001600160a01b0316604051918291634bf9c0ad60e11b835282600460209485935afa92831561022e576107d493610b7e926101a192600092610b99575b506040516001600160a01b039091168582019081529092610b76918491602090910190565b6101b7610a93565b919080610b8f575b6101ce90610ac4565b5081518114610b86565b610b76919250610bb590863d881161022757610218818361079d565b9190610b51565b60405190610bc982610760565b601182527069735369676e657228616464726573732960781b6020830152565b15610bf057565b60405162461bcd60e51b81526020600482015260166024820152751bdddb8b9cda59db995c8b98d85b1b0b99985a5b195960521b6044820152606490fd5b60405190610c3b82610760565b6011825270697364656c656761746f724e6f6465282960781b6020830152565b3d15610c86573d90610c6c82610952565b91610c7a604051938461079d565b82523d6000602084013e565b606090565b908015610d5e576001600160a01b038216918215610d2857600080808481945af1610cb4610c5b565b5015610ced576040519081527fcec1f18c3ab8ddaaa107a1591e3c369667eec613626611a8deaedef43069fcdd9080602081015b0390a2565b60405162461bcd60e51b81526020600482015260136024820152721bdddb8b9d1c985b9cd9995c8b99985a5b1959606a1b6044820152606490fd5b60405162461bcd60e51b815260206004820152600e60248201526d6f776e2e696e76616c69642e746f60901b6044820152606490fd5b5050565b600080546040516311be646b60e21b815290602090829060049082906001600160a01b03165afa90811561022e578284819382938391610e19575b505af1610da8610c5b565b5015610de25760405190815233907fcdcc745fe377b103b45fa0cec23ae3ef93d6fc6a84a01f0d18c40b354dd1d5d8908060208101610ce8565b60405162461bcd60e51b815260206004820152600f60248201526e1bdddb8b989d5c9b8b99985a5b1959608a1b6044820152606490fd5b610e31915060203d811161022757610218818361079d565b38610d9d565b9190823b15610eb8578051906020918263ffffffff60e01b92012016916040519180830193845281519160005b838110610ea4575050509181610e916024826000979596889701878382015203600481018452018261079d565b5191620dbba0fa610ea0610c5b565b9091565b818101830151858201602401528201610e64565b505050600090604051610eca81610781565b6000815290565b9291610edf91600094610e37565b9080610f02575b610eed5750565b6107d4919250602080825183010191016109cd565b506020815114610ee6565b9291610f1b91600094610e37565b9080610f40575b610f295750565b9091506020818051810103126100f4576020015190565b506020815114610f22565b906020825192015163ffffffff60e01b908181169360048110610f6d57505050565b60040360031b82901b16169150565b6001600160a01b03811615610ffe57600080918351908260208601915af190610fa3610c5b565b9115610fad575090565b805160009190600411610ff857610fc49150610f4b565b815115610fd45750805190602001fd5b604051630870274d60e21b81526001600160e01b0319919091166004820152602490fd5b50610fc4565b60405162461bcd60e51b81526020600482015260126024820152711bdddb8b9a5b9d985b1a590b9d185c99d95d60721b6044820152606490fdfea2646970667358221220d9daeeaece2878cb35d283d36779eb1f0d482243d84807ce6d064c728681869764736f6c63430008140033","linkReferences":{}},"methodIdentifiers":{"instance()":"022ec095","tVLFactory()":"9ba540fb"},"id":53}