{"abi":[{"type":"constructor","inputs":[{"name":"_hex","type":"address","internalType":"address"}],"stateMutability":"nonpayable"},{"type":"function","name":"rule741","inputs":[],"outputs":[{"name":"","type":"address","internalType":"address"}],"stateMutability":"view"},{"type":"function","name":"transferRequest","inputs":[],"outputs":[{"name":"","type":"address","internalType":"address"}],"stateMutability":"view"}],"bytecode":{"object":"0x6080346200012d57601f62006b8e38819003918201601f19168301926001600160401b0392909183851183861017620001175781602092849260409788528339810103126200012d57516001600160a01b0390818116908190036200012d578351906145eb9182810192818410868511176200011757620025a3823981835260208160009403019083f09384156200010d5782549484166001600160a01b03199586161783558551916123a08084019284841090841117620000f957918391602093620002038439815203019082f0908115620000ee5750169060015416176001555160d09081620001338239f35b8451903d90823e3d90fd5b634e487b7160e01b85526041600452602485fd5b85513d84823e3d90fd5b634e487b7160e01b600052604160045260246000fd5b600080fdfe6080806040526004361015601257600080fd5b600090813560e01c9081630a5b38ab1460685750633da8676f14603457600080fd5b3460655780600319360112606557602073ffffffffffffffffffffffffffffffffffffffff60015416604051908152f35b80fd5b9050346096578160031936011260965773ffffffffffffffffffffffffffffffffffffffff60209254168152f35b5080fdfea2646970667358221220b52f583a7eb87c3af4b2a030bcdd05231abdc142db833497ce0843da123aee1264736f6c634300081400336080346100ca57601f6123a038819003918201601f19168301916001600160401b038311848410176100cf578084926020946040528339810103126100ca57516001600160a01b038116908190036100ca5780156100855760018060a01b031933816001541617600155600054161760005560016003556040516122ba90816100e68239f35b60405162461bcd60e51b815260206004820152601360248201527f6f776e2e696e76616c69642e68657862617365000000000000000000000000006044820152606490fd5b600080fd5b634e487b7160e01b600052604160045260246000fdfe60806040526004361015610018575b361561001657005b005b60003560e01c806312065fe01461019857806318c864e3146101935780631f185d161461018e5780633676bd1f146101895780633b9b795514610184578063479fa2c31461017f5780634ef260a91461017a5780638da5cb5b146101755780639fb3953b14610170578063a1f7f5391461016b578063ab7e46ae14610166578063ac23334514610161578063af4845261461015c578063b8f1759a14610157578063b90306ad14610152578063c1e6cec21461014d578063c54e44b014610148578063cab3cc8d14610143578063e01ad5fd1461013e578063e0a9bc2b14610139578063e846034a14610134578063e84adc131461012f578063e981bcad1461012a5763fdc10bc90361000e57610faf565b610ed4565b610cc2565b610ca4565b610c05565b610b6b565b610b4d565b610aab565b610a6d565b6109b1565b610957565b610926565b6108ee565b610894565b61079f565b6105d8565b6105b1565b6104ef565b610406565b6103df565b6103b4565b61028f565b61020e565b346101b45760003660031901126101b457602047604051908152f35b600080fd5b634e487b7160e01b600052603260045260246000fd5b60055481101561020957600560005260021b7f036b6384b5eca791c62761152d0c79bb0604c104a5fb6f4eb0703f3154bb3db00190600090565b6101b9565b346101b45760203660031901126101b4576004356005548110156101b457610235906101cf565b50805460018201546002830154600390930154604080516001600160a01b0394851681529390921660208401529082019290925260ff90911615156060820152608090f35b0390f35b6001600160a01b038116036101b457565b346101b4576020806003193601126101b4576004908135906102b08261027e565b806102d26102c66000546001600160a01b031690565b6001600160a01b031690565b60405194858092634bf9c0ad60e11b82525afa9182156103af57610326610360936103429261027a9660009261037c575b50610334906040519384918783019190916001600160a01b036020820193169052565b03601f1981018452836110f8565b61033c611dda565b90611fe6565b919080610372575b61035390611e13565b8082518301019101611c98565b60405190151581529081906020820190565b508151811461034a565b6103349192506103a190863d88116103a8575b61039981836110f8565b810190611161565b9190610303565b503d61038f565b611179565b346101b45760203660031901126101b4576103cd611af8565b6103d86004356116c7565b6001600355005b346101b45760003660031901126101b45760206001600160a01b0360005416604051908152f35b346101b45760203660031901126101b457600435801515806104e3575b1561049f576104346104399161127a565b6101cf565b5080546001600160a01b031661027a61045c60018401546001600160a01b031690565b926104706003600283015492015460ff1690565b604080516001600160a01b03958616815295909416602086015292840152901515606083015281906080820190565b606460405162461bcd60e51b815260206004820152601760248201527f70726f706f7365722e696e76616c69642e666f726d69640000000000000000006044820152fd5b50600554811115610423565b346101b45760203660031901126101b45760043561050c8161027e565b6001600160a01b038091169060009180835260046020526040832054801515806105a5575b610539578380f35b60001981019081116105a05761054e906101cf565b505080835260046020528260408120556006546801000000000000000081101561059b57806001610582920160065561085d565b909283549160031b92831b921b19161790553880808380f35b611057565b611264565b50600554811115610531565b346101b45760003660031901126101b45760206001600160a01b0360015416604051908152f35b60803660031901126101b4576004356105f08161027e565b6105f8611af8565b61060d6102c66000546001600160a01b031690565b6040519163ab6e844f60e01b83526020918284600481845afa9384156103af5760009461077b575b5082600491604051928380927fde433f170000000000000000000000000000000000000000000000000000000082525afa9081156103af576106be9161069c9160009161075e575b506040519182918683019190916001600160a01b036020820193169052565b03946106b0601f19968781018452836110f8565b6106b8611bdb565b9061207c565b906001600160a01b0382166106d8575b6100166001600355565b610754937fc107930a000000000000000000000000000000000000000000000000000000009361074361074f9360405196879384015260643590604435906024359060248601909493926060926001600160a01b036080840197168352602083015260408201520152565b039081018452836110f8565b61218f565b50388080806106ce565b6107759150853d87116103a85761039981836110f8565b3861067d565b60049194506107978491823d84116103a85761039981836110f8565b949150610635565b346101b45760003660031901126101b457600460206001600160a01b03600054166040519283809263d1f956b160e01b82525afa9081156103af5761027a9161082f9160009161083f575b506040516107f7816110c0565b601381527f67657464656c656761746f72436f756e742829000000000000000000000000006020820152610829611136565b91612109565b6040519081529081906020820190565b610857915060203d81116103a85761039981836110f8565b386107ea565b6006548110156102095760066000527ff652222313e28459528d920b65115c16c04f3efc82aaedc97be59f3f377c0d3f0190600090565b346101b45760203660031901126101b4576004356006548110156101b4576001600160a01b0360209160066000527ff652222313e28459528d920b65115c16c04f3efc82aaedc97be59f3f377c0d3f015416604051908152f35b346101b45760203660031901126101b45760206109156004356109108161027e565b6112f0565b6001600160a01b0360405191168152f35b346101b45760203660031901126101b457602061094d6004356109488161027e565b611d30565b6040519015158152f35b346101b45760203660031901126101b457600435600654811015610209576001600160a01b0360209160066000527ff652222313e28459528d920b65115c16c04f3efc82aaedc97be59f3f377c0d3f015416604051908152f35b346101b45760203660031901126101b45760046001600160a01b036020816000541660405193848092630536340960e21b82525afa9182156103af57600092610a4d575b5033911603610a0957610016600435611ec7565b606460405162461bcd60e51b815260206004820152600f60248201527f6f776e2e6e6f6e617574682e44414f00000000000000000000000000000000006044820152fd5b610a6691925060203d81116103a85761039981836110f8565b90386109f5565b346101b45760203660031901126101b4576001600160a01b03600435610a928161027e565b1660005260046020526020604060002054604051908152f35b346101b45760203660031901126101b457600435610ac88161027e565b803b6000610ad58261111a565b92610ae360405194856110f8565b82845260208401903c602d815110610b0957602a015160405160609190911c8152602090f35b606460405162461bcd60e51b815260206004820152601360248201527f4e6f742061206d696e696d616c2070726f7879000000000000000000000000006044820152fd5b346101b45760003660031901126101b4576020600554604051908152f35b346101b4576020806003193601126101b45760048035610b8a8161027e565b6001600160a01b03928084600054166040519485809263d1f956b160e01b82525afa9081156103af5761027a9461036094600093610be6575b506040519316818401528252610bd8826110c0565b610be0611e5e565b906120cd565b610bfe919350823d84116103a85761039981836110f8565b9138610bc3565b346101b45760003660031901126101b4576001600160a01b03600054166040518091634bf9c0ad60e11b825281600460209384935afa9081156103af57610c6c6103609261027a94600091610c87575b50610c5e611c14565b610c66611136565b91611fe6565b919080610c7d575b61035390611c4d565b5081518114610c74565b610c9e9150833d85116103a85761039981836110f8565b38610c55565b346101b45760003660031901126101b4576020600654604051908152f35b346101b4576040806003193601126101b45760043590610ce18261027e565b6001600160a01b03821615610e91576000913383526020916004835280842054610e4e57610d3b610d1061106d565b509283906001600160a01b031673ffffffffffffffffffffffffffffffffffffffff19825416179055565b60018201805473ffffffffffffffffffffffffffffffffffffffff19163317815592600490610d68611149565b81610d7d6102c689546001600160a01b031690565b855194858092630536340960e21b82525afa9283156103af57600294610df694610de993610326938b92610e2d575b5061074f9192519384917fffa734f000000000000000000000000000000000000000000000000000000000888401526024359030602485016111a8565b8051810182019101611255565b910155610e29610e1060055492546001600160a01b031690565b6001600160a01b03166000526004602052604060002090565b5580f35b61074f9250610e4890873d89116103a85761039981836110f8565b91610dac565b82606491519062461bcd60e51b82526004820152601260248201527f70726f706f7365722e746f2e65786973747300000000000000000000000000006044820152fd5b6064905162461bcd60e51b815260206004820152601260248201527f6f776e2e64656661756c742e73656e64657200000000000000000000000000006044820152fd5b346101b45760403660031901126101b457610eed611af8565b610efe610ef930611d30565b611467565b60046020610f176102c66000546001600160a01b031690565b6040519283809263ab6e844f60e01b82525afa80156103af57610f8691600091610f91575b506040517f33b59a5b0000000000000000000000000000000000000000000000000000000060208201526004356024808301919091523560448201529061074f8260648101610326565b506100166001600355565b610fa9915060203d81116103a85761039981836110f8565b38610f3c565b346101b45760003660031901126101b457600460206001600160a01b03600054166040519283809263111ea8c160e21b82525afa9081156103af5761027a9161082f91600091611039575b50604051611007816110c0565b600581527f61676528290000000000000000000000000000000000000000000000000000006020820152610829611136565b611051915060203d81116103a85761039981836110f8565b38610ffa565b634e487b7160e01b600052604160045260246000fd5b6005546801000000000000000081101561059b57600181018060055581101561020957600560005260021b7f036b6384b5eca791c62761152d0c79bb0604c104a5fb6f4eb0703f3154bb3db00190600090565b6040810190811067ffffffffffffffff82111761059b57604052565b6020810190811067ffffffffffffffff82111761059b57604052565b90601f8019910116810190811067ffffffffffffffff82111761059b57604052565b67ffffffffffffffff811161059b57601f01601f191660200190565b60405190611143826110dc565b60008252565b604051611155816110dc565b60008152906000368137565b908160209103126101b457516111768161027e565b90565b6040513d6000823e3d90fd5b60005b8381106111985750506000910152565b8181015183820152602001611188565b6000926001600160a01b0360a09396959660c08452602660c08501527f547269676765722e496e7374616e63652e70726f706f73616c2e55736572547260e08501527f616e73666572000000000000000000000000000000000000000000000000000061010085015216602083015283604083015261012080606084015281518091840152611241816101409360208587019101611185565b601f80199101168201019460808201520152565b908160209103126101b4575190565b634e487b7160e01b600052601160045260246000fd5b6000198101919082116105a057565b60405190611296826110c0565b601282527f6765745374617475732875696e743235362900000000000000000000000000006020830152565b519081151582036101b457565b91908260409103126101b45761117660206112e9846112c2565b93016112c2565b61130d906001600160a01b03166000526004602052604060002090565b5480151580611410575b1561140a576104346113289161127a565b50600381015460ff166113fd5761134a6102c66000546001600160a01b031690565b6040518091630536340960e21b825281600460209384935afa80156103af576103266113a6916113b3946000916113e0575b5061139860028701546040519384918783019190602083019252565b6113a0611289565b90611fbb565b80518101820191016112cf565b819291926113d8575b50600091156113d457546001600160a01b0316905090565b5090565b9150386113bc565b6113f79150843d86116103a85761039981836110f8565b3861137c565b546001600160a01b031690565b50600090565b50600554811115611317565b1561142357565b606460405162461bcd60e51b815260206004820152601c60248201527f7574696c6974792e62617463682e6c696d69742e6578636565646564000000006044820152fd5b1561146e57565b606460405162461bcd60e51b815260206004820152601760248201527f7574696c6974792e756e7365637572652e6661696c65640000000000000000006044820152fd5b604051906114bf826110c0565b600f82527f6765744e6f646573436f756e74282900000000000000000000000000000000006020830152565b156114f257565b606460405162461bcd60e51b815260206004820152601360248201527f7574696c6974792e696d706f72742e646f6e65000000000000000000000000006044820152fd5b919082018092116105a057565b60001981146105a05760010190565b6040519061155f826110c0565b601782527f6765744e6f64654279496e6465782875696e74323536290000000000000000006020830152565b1561159257565b606460405162461bcd60e51b815260206004820152601660248201527f70726f78792e696e76616c69642e696e7374616e6365000000000000000000006044820152fd5b604051906115e3826110c0565b601382527f496e7374546f55736572286164647265737329000000000000000000000000006020830152565b1561161657565b606460405162461bcd60e51b815260206004820152601260248201527f70726f78792e696e76616c69642e6e6f646500000000000000000000000000006044820152fd5b60405190611667826110c0565b601082527f6765744e6f6465286164647265737329000000000000000000000000000000006020830152565b908160a09103126101b45780519160208201516116af8161027e565b9160408101519161117660806112e9606085016112c2565b6116d4606482111561141c565b6116e0610ef930611d30565b6000906116f76102c683546001600160a01b031690565b9160409081519163111ea8c160e21b9485845260209060049482818781855afa80156103af57611740918691611ae1575b50611731611149565b9061173a6114b2565b90612109565b958615611ad75783518381888163ab6e844f60e01b968782525afa9081156103af5761178b91611779918891611aba5750611731611149565b91611785838a116114eb565b82611536565b96808811611ab2575b505b8681106117a7575050505050505050565b6117bb6102c686546001600160a01b031690565b9084519189835284838981845afa9283156103af578793611a93575b5061180b8651806117ef858983019190602083019252565b0394611803601f19968781018452836110f8565b6106b8611552565b906001600160a01b03611821818416151561158b565b87518c815287818c81865afa80156103af57611876918b91611a76575b5089519061186e82611862888d83019190916001600160a01b036020820193169052565b038981018452836110f8565b6106b86115d6565b91611884828416151561160f565b8851938d855288858d81855afa9485156103af576118e16001928c8f988f6118ef958f9192611a51575b5091516001600160a01b03909316918301918252906118d99083906020015b038c81018452836110f8565b6113a061165a565b8a8082518301019101611693565b505050939093169261190281151561160f565b148015611a48575b6119cb575b5061191a8280611b33565b8661192f6102c68b546001600160a01b031690565b8951948580928a82525afa80156103af576119a59561199f948b926119aa575b5089517f50db85d1000000000000000000000000000000000000000000000000000000008a8201526001600160a01b0393841660248201529390921660448401529061074f908360648101610743565b50611543565b611796565b61074f92506119c5908a3d8c116103a85761039981836110f8565b9161194f565b928c88918a518096819382525afa9283156103af578a93611a1f92611a13928c92611a25575b5061186e908b519384918c83019190916001600160a01b036020820193169052565b038881018452836110f8565b3861190f565b61186e919250611a41908b3d8d116103a85761039981836110f8565b91906119f1565b5081151561190a565b6118d99250611a6f6118cd91833d85116103a85761039981836110f8565b92506118ae565b611a8d9150893d8b116103a85761039981836110f8565b3861183e565b611aab919350853d87116103a85761039981836110f8565b91386117d7565b965038611794565b611ad19150863d88116103a85761039981836110f8565b38611728565b5050505050505050565b611ad19150843d86116103a85761039981836110f8565b600260035414611b09576002600355565b60046040517f3ee5aeb5000000000000000000000000000000000000000000000000000000008152fd5b600554906801000000000000000082101561059b57611b88611b5d836001600395016005556101cf565b509182906001600160a01b031673ffffffffffffffffffffffffffffffffffffffff19825416179055565b60018101805473ffffffffffffffffffffffffffffffffffffffff19166001600160a01b03851617905501600160ff198254161790556001600160a01b0360055491166000526004602052604060002055565b60405190611be8826110c0565b601682527f67657455736572546f496e7374286164647265737329000000000000000000006020830152565b60405190611c21826110c0565b600882527f69735361666528290000000000000000000000000000000000000000000000006020830152565b15611c5457565b606460405162461bcd60e51b815260206004820152601960248201527f6f776e2e7361666567756172642e63616c6c2e6661696c6564000000000000006044820152fd5b908160209103126101b457611176906112c2565b60405190611cb9826110c0565b601582527f69735365637572654261736528616464726573732900000000000000000000006020830152565b15611cec57565b606460405162461bcd60e51b815260206004820152601a60248201527f6f776e2e736563757265626173652e63616c6c2e6661696c65640000000000006044820152fd5b6000546001600160a01b0316604051918291634bf9c0ad60e11b835282600460209485935afa9283156103af5761117693611d9c9261032692600092611db7575b50611d94906040519384918783019190916001600160a01b036020820193169052565b61033c611cac565b919080611dad575b61035390611ce5565b5081518114611da4565b611d94919250611dd390863d88116103a85761039981836110f8565b9190611d71565b60405190611de7826110c0565b601182527f69735369676e65722861646472657373290000000000000000000000000000006020830152565b15611e1a57565b606460405162461bcd60e51b815260206004820152601660248201527f6f776e2e7369676e65722e63616c6c2e6661696c6564000000000000000000006044820152fd5b60405190611e6b826110c0565b601882527f697364656c656761746f724e6f646528616464726573732900000000000000006020830152565b3d15611ec2573d90611ea88261111a565b91611eb660405193846110f8565b82523d6000602084013e565b606090565b6000600460206001600160a01b03835416604051928380927f46f991ac0000000000000000000000000000000000000000000000000000000082525afa9081156103af578284819382938391611f9d575b505af1611f23611e97565b5015611f595760405190815233907fcdcc745fe377b103b45fa0cec23ae3ef93d6fc6a84a01f0d18c40b354dd1d5d890602090a2565b606460405162461bcd60e51b815260206004820152600f60248201527f6f776e2e6275726e2e6661696c656400000000000000000000000000000000006044820152fd5b611fb5915060203d81116103a85761039981836110f8565b38611f18565b90611fc69291611fe6565b9060009015611fd3575090565b6040519150611fe1826110dc565b815290565b803b15612063576000927fffffffff00000000000000000000000000000000000000000000000000000000836020869551910120169061205060246040518093602082019586526120408151809260208686019101611185565b81010360048101845201826110f8565b5191620dbba0fa61205f611e97565b9091565b505050600090604051612075816110dc565b6000815290565b929161208a91600094611fe6565b90806120c2575b6120985750565b9091506020818051810103126101b45760206001600160a01b039101516120be8161027e565b1690565b506020815114612091565b92916120db91600094611fe6565b90806120fe575b6120e95750565b61117691925060208082518301019101611c98565b5060208151146120e2565b929161211791600094611fe6565b908061213a575b6121255750565b61117691925060208082518301019101611255565b50602081511461211e565b90602082519201517fffffffff0000000000000000000000000000000000000000000000000000000090818116936004811061218057505050565b60040360031b82901b16169150565b6001600160a01b0381161561224057600080918351908260208601915af1906121b6611e97565b91156121c0575090565b80516000919060041161223a576121d79150612145565b8151156121e75750805190602001fd5b6024907fffffffff00000000000000000000000000000000000000000000000000000000604051917f21c09d34000000000000000000000000000000000000000000000000000000008352166004820152fd5b506121d7565b606460405162461bcd60e51b815260206004820152601260248201527f6f776e2e696e76616c69642e74617267657400000000000000000000000000006044820152fdfea26469706673582212202a4503b58edd93aa20b89aff89a807c3322de73325dc061ca57e9f526c96baaa64736f6c6343000814003360803462001a8657601f620045eb38819003918201601f19168301916001600160401b0383118484101762001a8b5780849260209460405283398101031262001a8657516001600160a01b0381169081900362001a8657801562001a415760018060a01b0319338160015416176001556000541617600055601e601755600160185560016019556002601a5561c350601b55610258601c556003601d556019601e5568878678326eac900000601f55670de0b6b3a764000060205569021e19e0c9bab240000060215560016022556005602b5560ff19602c5416602c5561025860c0620000eb62001ae1565b6002815260646020820152600160408201526023606082015260646080820152600160a082015201526002600755606460085560016009556023600a556064600b556001600c55610258600d55605a60406200014662001b2a565b60198152600a602082015201526019600e55600a600f55605a60105560406200016e62001b2a565b6005815260016020820152610168918291015260056011556001601255601355600160a06200019c62001ae1565b600481528260208201528260408201528260608201528260808201528260c0820152015260046014556501010101010165ffffffffffff196015541617601555620001e662001b49565b610258606061014092838152600b6020820152600a60408201520152602355600b602455600a60255561025860265561025860606200022462001b49565b60d28152600b6020820152600a6040820152015260d2602755600b602855600a602955610258602a556200033c6200025b62001aa1565b60008082526020808301828152604084018381526060850184815261270f60808701908152948052600490935293517f17ef568e3e12ab5b9c7254a8d58478811de00f9e6eb34345acd53bf8fd09d3ec55517f17ef568e3e12ab5b9c7254a8d58478811de00f9e6eb34345acd53bf8fd09d3ed5591517f17ef568e3e12ab5b9c7254a8d58478811de00f9e6eb34345acd53bf8fd09d3ee5590517f17ef568e3e12ab5b9c7254a8d58478811de00f9e6eb34345acd53bf8fd09d3ef55517f17ef568e3e12ab5b9c7254a8d58478811de00f9e6eb34345acd53bf8fd09d3f055565b620004316200034a62001aa1565b60078152601960208083019182526000604084018181526060850182815261270f608087019081526001909352600490935293517fabd6e7cb50984ff9c2f3e18a2660c3353dadf4e3291deeb275dae2cd1e44fe055591517fabd6e7cb50984ff9c2f3e18a2660c3353dadf4e3291deeb275dae2cd1e44fe065591517fabd6e7cb50984ff9c2f3e18a2660c3353dadf4e3291deeb275dae2cd1e44fe075590517fabd6e7cb50984ff9c2f3e18a2660c3353dadf4e3291deeb275dae2cd1e44fe0855517fabd6e7cb50984ff9c2f3e18a2660c3353dadf4e3291deeb275dae2cd1e44fe0955565b620005266200043f62001aa1565b60078152606460208083019182526000604084018181526060850182815261270f608087019081526002909352600490935293517f91da3fd0782e51c6b3986e9e672fd566868e71f3dbc2d6c2cd6fbb3e361af2a75591517f91da3fd0782e51c6b3986e9e672fd566868e71f3dbc2d6c2cd6fbb3e361af2a85591517f91da3fd0782e51c6b3986e9e672fd566868e71f3dbc2d6c2cd6fbb3e361af2a95590517f91da3fd0782e51c6b3986e9e672fd566868e71f3dbc2d6c2cd6fbb3e361af2aa55517f91da3fd0782e51c6b3986e9e672fd566868e71f3dbc2d6c2cd6fbb3e361af2ab55565b6200061c6200053462001aa1565b600781526101f46020808301918252600360408401818152600060608601818152601e6080880190815293909152600490935293517f2e174c10e159ea99b867ce3205125c24a42d128804e4070ed6fcc8cc98166aa05591517f2e174c10e159ea99b867ce3205125c24a42d128804e4070ed6fcc8cc98166aa15591517f2e174c10e159ea99b867ce3205125c24a42d128804e4070ed6fcc8cc98166aa25590517f2e174c10e159ea99b867ce3205125c24a42d128804e4070ed6fcc8cc98166aa355517f2e174c10e159ea99b867ce3205125c24a42d128804e4070ed6fcc8cc98166aa455565b620007106200062a62001aa1565b600781526107d06020808301918252600460408401818152600060608601818152601e60808801908152918490529290935293517f1a1e6821cde7d0159c0d293177871e09677b4e42307c7db3ba94f8648a5a050f5591517f1a1e6821cde7d0159c0d293177871e09677b4e42307c7db3ba94f8648a5a05105591517f1a1e6821cde7d0159c0d293177871e09677b4e42307c7db3ba94f8648a5a051155517f1a1e6821cde7d0159c0d293177871e09677b4e42307c7db3ba94f8648a5a051255517f1a1e6821cde7d0159c0d293177871e09677b4e42307c7db3ba94f8648a5a051355565b620008056200071e62001aa1565b6007815261138860208083019182526004604084018181526060850182815261270f6080870190815260056000529290935293517f04cde762ef08b6b6c5ded8e8c4c0b3f4e5c9ad7342c88fcc93681b4588b73f055591517f04cde762ef08b6b6c5ded8e8c4c0b3f4e5c9ad7342c88fcc93681b4588b73f065591517f04cde762ef08b6b6c5ded8e8c4c0b3f4e5c9ad7342c88fcc93681b4588b73f075590517f04cde762ef08b6b6c5ded8e8c4c0b3f4e5c9ad7342c88fcc93681b4588b73f0855517f04cde762ef08b6b6c5ded8e8c4c0b3f4e5c9ad7342c88fcc93681b4588b73f0955565b620008fa6200081362001aa1565b6007815261271060208083019182526004604084018181526060850182815261270f6080870190815260066000529290935293517fc59312466997bb42aaaf719ece141047820e6b34531e1670dc1852a453648f0f5591517fc59312466997bb42aaaf719ece141047820e6b34531e1670dc1852a453648f105591517fc59312466997bb42aaaf719ece141047820e6b34531e1670dc1852a453648f115590517fc59312466997bb42aaaf719ece141047820e6b34531e1670dc1852a453648f1255517fc59312466997bb42aaaf719ece141047820e6b34531e1670dc1852a453648f1355565b620009f06200090862001aa1565b60078082526161a860208084019182526004604085018181526060860182815261270f608088019081526000969096529190925293517fbeb3bad75134cb432e5707980e3245c52c5998a1125ee30f2f0dbf3925b1e5515590517fbeb3bad75134cb432e5707980e3245c52c5998a1125ee30f2f0dbf3925b1e55255517fbeb3bad75134cb432e5707980e3245c52c5998a1125ee30f2f0dbf3925b1e5535590517fbeb3bad75134cb432e5707980e3245c52c5998a1125ee30f2f0dbf3925b1e55455517fbeb3bad75134cb432e5707980e3245c52c5998a1125ee30f2f0dbf3925b1e55555565b62000ae1620009fe62001aa1565b60008082526006602080840182815260016040860181815260056060880190815260808801838152929096529390925293517f3e5fec24aa4dc4e5aee2e025e51e1392c72a2500577559fae9665c6d52bd6a315592517f3e5fec24aa4dc4e5aee2e025e51e1392c72a2500577559fae9665c6d52bd6a3255517f3e5fec24aa4dc4e5aee2e025e51e1392c72a2500577559fae9665c6d52bd6a3355517f3e5fec24aa4dc4e5aee2e025e51e1392c72a2500577559fae9665c6d52bd6a3455517f3e5fec24aa4dc4e5aee2e025e51e1392c72a2500577559fae9665c6d52bd6a3555565b62000bd462000aef62001aa1565b600080825260036020808401918252600160408501818152600560608701908152608087019283526002909552600690925293517f8819ef417987f8ae7a81f42cdfb18815282fe989326fbff903d13cf0e03ace295590517f8819ef417987f8ae7a81f42cdfb18815282fe989326fbff903d13cf0e03ace2a55517f8819ef417987f8ae7a81f42cdfb18815282fe989326fbff903d13cf0e03ace2b55517f8819ef417987f8ae7a81f42cdfb18815282fe989326fbff903d13cf0e03ace2c55517f8819ef417987f8ae7a81f42cdfb18815282fe989326fbff903d13cf0e03ace2d55565b62000cca62000be262001aa1565b60028152600f6020808301918252600a604084019081526005606085019081526001608086019081526003600052600690935293517f75f96ab15d697e93042dc45b5c896c4b27e89bb6eaf39475c5c371cb2513f7d25591517f75f96ab15d697e93042dc45b5c896c4b27e89bb6eaf39475c5c371cb2513f7d35590517f75f96ab15d697e93042dc45b5c896c4b27e89bb6eaf39475c5c371cb2513f7d45590517f75f96ab15d697e93042dc45b5c896c4b27e89bb6eaf39475c5c371cb2513f7d555517f75f96ab15d697e93042dc45b5c896c4b27e89bb6eaf39475c5c371cb2513f7d655565b62000dc062000cd862001aa1565b60028152600f6020808301918252600a604084019081526005606085019081526001608086019081526004600052600690935293517fc5069e24aaadb2addc3e52e868fcf3f4f8acf5a87e24300992fd4540c2a87eed5591517fc5069e24aaadb2addc3e52e868fcf3f4f8acf5a87e24300992fd4540c2a87eee5590517fc5069e24aaadb2addc3e52e868fcf3f4f8acf5a87e24300992fd4540c2a87eef5590517fc5069e24aaadb2addc3e52e868fcf3f4f8acf5a87e24300992fd4540c2a87ef055517fc5069e24aaadb2addc3e52e868fcf3f4f8acf5a87e24300992fd4540c2a87ef155565b62000eb662000dce62001aa1565b60028152600f6020808301918252600a60408401908152600560608501818152600160808701908152600092909252600690935293517fbfd358e93f18da3ed276c3afdbdba00b8f0b6008a03476a6a86bd6320ee6938b5591517fbfd358e93f18da3ed276c3afdbdba00b8f0b6008a03476a6a86bd6320ee6938c5590517fbfd358e93f18da3ed276c3afdbdba00b8f0b6008a03476a6a86bd6320ee6938d55517fbfd358e93f18da3ed276c3afdbdba00b8f0b6008a03476a6a86bd6320ee6938e55517fbfd358e93f18da3ed276c3afdbdba00b8f0b6008a03476a6a86bd6320ee6938f55565b6200180c62000ec462001aa1565b60028152604b602080830182815260646040850181815260fa60608701818152608088019384526006600081905290955295517f697b2bd7bb2984c4e0dc14c79c987d37818484a62958b9c45a0e8b962f20650f5591517f697b2bd7bb2984c4e0dc14c79c987d37818484a62958b9c45a0e8b962f2065105590517f697b2bd7bb2984c4e0dc14c79c987d37818484a62958b9c45a0e8b962f2065115590517f697b2bd7bb2984c4e0dc14c79c987d37818484a62958b9c45a0e8b962f20651255517f697b2bd7bb2984c4e0dc14c79c987d37818484a62958b9c45a0e8b962f20651355906200109862000fb762001aa1565b60028152602080820185815260646040840181815260608501878152608086019283526007600052600690945293517f4ced6d0d36392b04cc5d8761b1327b3bbba6e1089c77f60a9a9ca18e05e4f00e5590517f4ced6d0d36392b04cc5d8761b1327b3bbba6e1089c77f60a9a9ca18e05e4f00f5591517f4ced6d0d36392b04cc5d8761b1327b3bbba6e1089c77f60a9a9ca18e05e4f01055517f4ced6d0d36392b04cc5d8761b1327b3bbba6e1089c77f60a9a9ca18e05e4f01155517f4ced6d0d36392b04cc5d8761b1327b3bbba6e1089c77f60a9a9ca18e05e4f01255565b62001187620010a662001aa1565b60028152602080820185815260646040840181815260608501878152608086019283526008600052600690945293517fb8d683c9d414f481826f3e7fe14b3ac6ae8c73450778287390c4bb8cb9f2e80b5590517fb8d683c9d414f481826f3e7fe14b3ac6ae8c73450778287390c4bb8cb9f2e80c5591517fb8d683c9d414f481826f3e7fe14b3ac6ae8c73450778287390c4bb8cb9f2e80d55517fb8d683c9d414f481826f3e7fe14b3ac6ae8c73450778287390c4bb8cb9f2e80e55517fb8d683c9d414f481826f3e7fe14b3ac6ae8c73450778287390c4bb8cb9f2e80f55565b620012766200119562001aa1565b60028152602080820185815260646040840181815260608501878152608086019283526009600052600690945293517fca4d0c6c94a9477136dd41a99cc19ecbe441c8f6609efe7c6fa65be007a473235590517fca4d0c6c94a9477136dd41a99cc19ecbe441c8f6609efe7c6fa65be007a473245591517fca4d0c6c94a9477136dd41a99cc19ecbe441c8f6609efe7c6fa65be007a4732555517fca4d0c6c94a9477136dd41a99cc19ecbe441c8f6609efe7c6fa65be007a4732655517fca4d0c6c94a9477136dd41a99cc19ecbe441c8f6609efe7c6fa65be007a4732755565b620013656200128462001aa1565b6002815260208082018581526064604084018181526060850187815260808601928352600a600052600690945293517f4da38fc8e544afc56a4c2a17752b8ddb67d8e23ac4583c9029d2e2d1dbe6c9885590517f4da38fc8e544afc56a4c2a17752b8ddb67d8e23ac4583c9029d2e2d1dbe6c9895591517f4da38fc8e544afc56a4c2a17752b8ddb67d8e23ac4583c9029d2e2d1dbe6c98a55517f4da38fc8e544afc56a4c2a17752b8ddb67d8e23ac4583c9029d2e2d1dbe6c98b55517f4da38fc8e544afc56a4c2a17752b8ddb67d8e23ac4583c9029d2e2d1dbe6c98c55565b620014546200137362001aa1565b6002815260208082018581526064604084018181526060850187815260808601928352600b600052600690945293517f85291c2e7881182c13e19eca9b58927ebfdc2c5d04882018eeb33d8241d357115590517f85291c2e7881182c13e19eca9b58927ebfdc2c5d04882018eeb33d8241d357125591517f85291c2e7881182c13e19eca9b58927ebfdc2c5d04882018eeb33d8241d3571355517f85291c2e7881182c13e19eca9b58927ebfdc2c5d04882018eeb33d8241d3571455517f85291c2e7881182c13e19eca9b58927ebfdc2c5d04882018eeb33d8241d3571555565b620015436200146262001aa1565b6002815260208082018581526064604084018181526060850187815260808601928352600c600052600690945293517f0b94fa1b86997cc1f1148bfbe25b674e8cefc7cc6f976aa8d7c7966bd4cca3475590517f0b94fa1b86997cc1f1148bfbe25b674e8cefc7cc6f976aa8d7c7966bd4cca3485591517f0b94fa1b86997cc1f1148bfbe25b674e8cefc7cc6f976aa8d7c7966bd4cca34955517f0b94fa1b86997cc1f1148bfbe25b674e8cefc7cc6f976aa8d7c7966bd4cca34a55517f0b94fa1b86997cc1f1148bfbe25b674e8cefc7cc6f976aa8d7c7966bd4cca34b55565b620016326200155162001aa1565b6002815260208082018581526064604084018181526060850187815260808601928352600d600052600690945293517f248457bacb20e239ae314d8db91c0f270e453c28ee138c84f97aea6cfcf9a4995590517f248457bacb20e239ae314d8db91c0f270e453c28ee138c84f97aea6cfcf9a49a5591517f248457bacb20e239ae314d8db91c0f270e453c28ee138c84f97aea6cfcf9a49b55517f248457bacb20e239ae314d8db91c0f270e453c28ee138c84f97aea6cfcf9a49c55517f248457bacb20e239ae314d8db91c0f270e453c28ee138c84f97aea6cfcf9a49d55565b620017216200164062001aa1565b6002815260208082018581526064604084018181526060850187815260808601928352600e600052600690945293517faca6cdb4b5fe0ec50731a73f714dd191dc1911bfeb3f9eeb9e94ed0f6065ef8d5590517faca6cdb4b5fe0ec50731a73f714dd191dc1911bfeb3f9eeb9e94ed0f6065ef8e5591517faca6cdb4b5fe0ec50731a73f714dd191dc1911bfeb3f9eeb9e94ed0f6065ef8f55517faca6cdb4b5fe0ec50731a73f714dd191dc1911bfeb3f9eeb9e94ed0f6065ef9055517faca6cdb4b5fe0ec50731a73f714dd191dc1911bfeb3f9eeb9e94ed0f6065ef9155565b6200172b62001aa1565b6002815260208082019384526064604083018181526060840194855260808401918252600f600052600690925291517ff130046d53bc87538ab17e4752ba5f5082985eecc06ccb932c5a55e8242dd5025592517ff130046d53bc87538ab17e4752ba5f5082985eecc06ccb932c5a55e8242dd5035591517ff130046d53bc87538ab17e4752ba5f5082985eecc06ccb932c5a55e8242dd50455517ff130046d53bc87538ab17e4752ba5f5082985eecc06ccb932c5a55e8242dd50555517ff130046d53bc87538ab17e4752ba5f5082985eecc06ccb932c5a55e8242dd50655565b620018a76200181a62001ac1565b60128152600a6020808301918252602d604084019081526003600052600590915291517fa9bc9a3a348c357ba16b37005d7e6b3236198c0e939f4af8c5f19b8deeb8ebc055517fa9bc9a3a348c357ba16b37005d7e6b3236198c0e939f4af8c5f19b8deeb8ebc155517fa9bc9a3a348c357ba16b37005d7e6b3236198c0e939f4af8c5f19b8deeb8ebc255565b62001942620018b562001ac1565b60128152600a6020808301918252605a604084019081526005600081905290915291517f458b30c2d72bfd2c6317304a4594ecbafe5f729d3111b65fdc3a33bd48e5432d55517f458b30c2d72bfd2c6317304a4594ecbafe5f729d3111b65fdc3a33bd48e5432e55517f458b30c2d72bfd2c6317304a4594ecbafe5f729d3111b65fdc3a33bd48e5432f55565b620019de6200195062001ac1565b60098152600a602080830191825261270f604084019081526007600052600590915291517feddb6698d7c569ff62ff64f1f1492bf14a54594835ba0faac91f84b4f5d8146055517feddb6698d7c569ff62ff64f1f1492bf14a54594835ba0faac91f84b4f5d8146155517feddb6698d7c569ff62ff64f1f1492bf14a54594835ba0faac91f84b4f5d8146255565b600360205260327fc3a24b0501bd2c13a7e57f2db4369ec4c223447539fc0724a9d55ac4a06ebd4d5560046000526101f47f83ec6a1f0257b830b5e016457c9cf1435391bf56cc98f369a58a54fe9377246555604051612a6b908162001b808239f35b60405162461bcd60e51b815260206004820152601360248201527f6f776e2e696e76616c69642e68657862617365000000000000000000000000006044820152606490fd5b600080fd5b634e487b7160e01b600052604160045260246000fd5b6040519060a082016001600160401b0381118382101762001a8b57604052565b60405190606082016001600160401b0381118382101762001a8b57604052565b6040519060e082016001600160401b0381118382101762001a8b576040528160c06000918281528260208201528260408201528260608201528260808201528260a08201520152565b62001b3462001ac1565b90600082526000602083015260006040830152565b60405190608082016001600160401b0381118382101762001a8b576040526000606083828152826020820152826040820152015256fe60806040526004361015610018575b361561001657005b005b60003560e01c80630609a0e3146103c857806307175c83146103c357806309307c62146103be5780630b225f1a146103b95780630ea0d222146103b457806312065fe0146103af57806314be92a5146103aa57806315a544ed146103a55780631605aed9146103a057806316f0115b1461039b578063192b48ee146103965780631ef6a864146103915780631f185d161461038c57806326c5adae14610387578063298fc460146103825780633688236d1461037d5780633b9b7955146103785780634151331d14610373578063438fe1921461036e57806344ec16bc146103695780634b62954f1461036457806353423e861461035f578063541d76671461035a57806354541683146103555780635640dbfc14610350578063592a02a81461034b5780635962205f146103465780635a0e9038146103415780636b81c82f1461033c5780636c7deb5d146103375780636f092c5e146103325780637687e3711461032d57806378ef376f146103285780637bc908c6146103235780638da5cb5b1461031e57806391fc8aa8146103195780639319d0b514610314578063991bf5cc1461030f5780639d80ab9b1461030a5780639eb8b44e14610305578063a19841dd14610300578063a1f7f539146102fb578063a88fcea6146102f6578063aebcd32a146102f1578063af0b21d3146102ec578063af484526146102e7578063b49c064c146102e2578063b85f1f8d146102dd578063b90306ad146102d8578063c54e44b0146102d3578063c5a136d4146102ce578063e01ad5fd146102c9578063e0a9bc2b146102c4578063eddd0d9c146102bf578063f27c35c6146102ba578063f2a6bbc7146102b5578063f4fe8e3c146102b0578063fc0e74d1146102ab5763fdc10bc90361000e57611f77565b611f54565b611eae565b611e0b565b611d08565b611c65565b611c4a565b611bb0565b611ac5565b611a23565b611967565b611935565b611912565b6118e1565b6118c3565b61185b565b61183d565b61178f565b611755565b611592565b611513565b61141e565b61137b565b61135d565b611336565b611318565b611275565b6111b4565b611188565b6110e5565b61100e565b610fbe565b610f56565b610e0d565b610d7a565b610d5c565b610ceb565b610ccd565b610c24565b610b81565b610b63565b610b16565b610aef565b610ad1565b610a10565b61094f565b61083b565b61077b565b6106d8565b610687565b61066a565b61064c565b6105a9565b61058d565b61056f565b610551565b6104a8565b61048a565b34610485576020366003190112610485576103e96103e46121c3565b6126bd565b6103f233612307565b801561040d575b61040290612708565b610016600435601755565b5060046001600160a01b036020816000541660405193848092630536340960e21b82525afa9081156104805761040292600092610450575b5016331490506103f9565b61047291925060203d8111610479575b61046a81836120df565b810190612101565b9038610445565b503d610460565b612119565b600080fd5b34610485576000366003190112610485576020601e54604051908152f35b34610485576040366003190112610485576104c46103e46121c3565b6104cd33612307565b80156104ee575b6104dd90612708565b610016602435600435602055602155565b5060046001600160a01b036020816000541660405193848092630536340960e21b82525afa908115610480576104dd92600092610531575b5016331490506104d4565b61054a91925060203d81116104795761046a81836120df565b9038610526565b34610485576000366003190112610485576020602b54604051908152f35b34610485576000366003190112610485576020601c54604051908152f35b3461048557600036600319011261048557602047604051908152f35b34610485576020366003190112610485576105c56103e46121c3565b6105ce33612307565b80156105e9575b6105de90612708565b610016600435601c55565b5060046001600160a01b036020816000541660405193848092630536340960e21b82525afa908115610480576105de9260009261062c575b5016331490506105d5565b61064591925060203d81116104795761046a81836120df565b9038610621565b34610485576000366003190112610485576020602154604051908152f35b346104855760003660031901126104855760208054604051908152f35b346104855760003660031901126104855760e0600754600854600954600a54600b5490600c5492600d5494604051968752602087015260408601526060850152608084015260a083015260c0820152f35b34610485576020366003190112610485576106f46103e46121c3565b6106fd33612307565b8015610718575b61070d90612708565b610016600435612799565b5060046001600160a01b036020816000541660405193848092630536340960e21b82525afa9081156104805761070d9260009261075b575b501633149050610704565b61077491925060203d81116104795761046a81836120df565b9038610750565b346104855760a0366003190112610485576107976103e46121c3565b6107a033612307565b80156107c7575b6107b090612708565b61001660843560643560443560243560043561294e565b5060046001600160a01b036020816000541660405193848092630536340960e21b82525afa908115610480576107b09260009261080a575b5016331490506107a7565b61082391925060203d81116104795761046a81836120df565b90386107ff565b6001600160a01b0381160361048557565b34610485576020806003193601126104855760049081359061085c8261082a565b8061087e6108726000546001600160a01b031690565b6001600160a01b031690565b60405194858092634bf9c0ad60e11b82525afa918215610480576108d261090c936108ee9261091e9660009261092c575b506108e0906040519384918783019190916001600160a01b036020820193169052565b03601f1981018452836120df565b6108e86123b1565b90612592565b919080610922575b6108ff906123ea565b80825183010191016121ae565b60405190151581529081906020820190565b0390f35b50815181146108f6565b6108e091925061094890863d88116104795761046a81836120df565b91906108af565b3461048557602036600319011261048557600460206001600160a01b0360005416604051928380926369e8d84b60e11b82525afa8015610480576109b46109d89161091e936000916109e8575b506109a56129c4565b906109ae6129dc565b9061267f565b6109d3600435916109ce6109c9601e54612753565b612753565b612a15565b612786565b6040519081529081906020820190565b610a00915060203d81116104795761046a81836120df565b3861099c565b8015150361048557565b3461048557602036600319011261048557600435610a2d81610a06565b610a386103e46121c3565b610a4133612307565b8015610a67575b90610a5561001692612708565b60ff8019602c54169115151617602c55565b506001600160a01b039060046020836000541660405192838092630536340960e21b82525afa80156104805761001693610a5592600092610ab1575b503391161491925050610a48565b610aca91925060203d81116104795761046a81836120df565b9038610aa3565b34610485576000366003190112610485576020601b54604051908152f35b346104855760003660031901126104855760206001600160a01b0360005416604051908152f35b346104855760203660031901126104855760043560005260056020526040600020805461091e60026001840154930154604051938493846040919493926060820195825260208201520152565b34610485576000366003190112610485576020601954604051908152f35b3461048557602036600319011261048557610b9d6103e46121c3565b610ba633612307565b8015610bc1575b610bb690612708565b610016600435601855565b5060046001600160a01b036020816000541660405193848092630536340960e21b82525afa90811561048057610bb692600092610c04575b501633149050610bad565b610c1d91925060203d81116104795761046a81836120df565b9038610bf9565b3461048557604036600319011261048557610c406103e46121c3565b610c4933612307565b8015610c6a575b610c5990612708565b610016602435600435601a55601b55565b5060046001600160a01b036020816000541660405193848092630536340960e21b82525afa90811561048057610c5992600092610cad575b501633149050610c50565b610cc691925060203d81116104795761046a81836120df565b9038610ca2565b34610485576000366003190112610485576020601d54604051908152f35b3461048557602036600319011261048557600460206001600160a01b0360005416604051928380926369e8d84b60e11b82525afa801561048057610d406109d89161091e936000916109e857506109a56129c4565b60043560005260036020526109ce6109c9604060002054612753565b34610485576000366003190112610485576020601854604051908152f35b346104855760003660031901126104855760e060145460155460405191825260ff9081811615156020840152818160081c1615156040840152818160101c1615156060840152818160181c1615156080840152818160201c16151560a084015260281c16151560c0820152f35b60c090600319011261048557600435906024359060443590606435906084359060a43590565b3461048557610e1b36610de7565b91610e2a6103e49694966121c3565b610e3333612307565b8015610ef3575b610e4390612708565b6010841015610eaf576100169560405195610e5d8761204e565b8652602086015260408501526060840152608083015260005260066020526040600020906080600491805184556020810151600185015560408101516002850155606081015160038501550151910155565b606460405162461bcd60e51b815260206004820152600d60248201527f696e76616c6964206c6576656c000000000000000000000000000000000000006044820152fd5b5060046001600160a01b036020816000541660405193848092630536340960e21b82525afa90811561048057610e4392600092610f36575b501633149050610e3a565b610f4f91925060203d81116104795761046a81836120df565b9038610f2b565b346104855760203660031901126104855760043560005260066020526040600020805461091e6001830154926002810154906004600382015491015491604051958695869192608093969594919660a084019784526020840152604083015260608201520152565b3461048557600036600319011261048557600e54600f5460105460408051938452602084019290925290820152606090f35b60809060031901126104855760043590602435906044359060643590565b346104855761101c36610ff0565b9261102b6103e49392936121c3565b61103433612307565b801561107c575b90611047600292612708565b61104f612907565b506001811461106b575b1461106057005b601155601255601355005b82600e5583600f5584601055611059565b506001600160a01b039060046020836000541660405192838092630536340960e21b82525afa801561048057600293611047926000926110c5575b50339116149192505061103b565b6110de91925060203d81116104795761046a81836120df565b90386110b7565b34610485576020366003190112610485576111016103e46121c3565b61110a33612307565b8015611125575b61111a90612708565b610016600435601d55565b5060046001600160a01b036020816000541660405193848092630536340960e21b82525afa9081156104805761111a92600092611168575b501633149050611111565b61118191925060203d81116104795761046a81836120df565b903861115d565b346104855760203660031901126104855760043560005260036020526020604060002054604051908152f35b34610485576020366003190112610485576004356111d181610a06565b6111dc6103e46121c3565b6111e533612307565b801561120b575b906111f961001692612708565b60ff8019601654169115151617601655565b506001600160a01b039060046020836000541660405192838092630536340960e21b82525afa801561048057610016936111f992600092611255575b5033911614919250506111ec565b61126e91925060203d81116104795761046a81836120df565b9038611247565b34610485576020366003190112610485576112916103e46121c3565b61129a33612307565b80156112b5575b6112aa90612708565b610016600435602255565b5060046001600160a01b036020816000541660405193848092630536340960e21b82525afa908115610480576112aa926000926112f8575b5016331490506112a1565b61131191925060203d81116104795761046a81836120df565b90386112ed565b34610485576000366003190112610485576020602254604051908152f35b346104855760003660031901126104855760206001600160a01b0360015416604051908152f35b34610485576000366003190112610485576020601f54604051908152f35b34610485576020366003190112610485576113976103e46121c3565b6113a033612307565b80156113bb575b6113b090612708565b610016600435601955565b5060046001600160a01b036020816000541660405193848092630536340960e21b82525afa908115610480576113b0926000926113fe575b5016331490506113a7565b61141791925060203d81116104795761046a81836120df565b90386113f3565b346104855760e03660031901126104855760243561143b81610a06565b60443561144781610a06565b60643561145381610a06565b60843561145f81610a06565b60a4359161146c83610a06565b60c4359361147985610a06565b6114846103e46121c3565b61148d33612307565b80156114a9575b956114a161001697612708565b6004356127a7565b506001600160a01b039560046020886000541660405192838092630536340960e21b82525afa801561048057610016986114a1926000926114f3575b503391161491975050611494565b61150c91925060203d81116104795761046a81836120df565b90386114e5565b3461048557600036600319011261048557602354602454602554602654604080519485526020850193909352918301526060820152608090f35b6102a0810192916000915b6007831061156557505050565b60019060608351918251815260209283810151848301526040809101519082015201920192019190611558565b34610485576000366003190112610485576040516115af8161206f565b60005b60e081106117405761091e6115c5612125565b600160005260056020526115fd7f1471eb6eb2c5e789fc3de43f8ce62938c7d1836ec861730447e2ada8fd81017b612926565b612926565b8152600260005260056020526116327f89832631fb3c3307a103ba2c84ab569c64d6182a18893dcd163f0f1c2090733a612926565b602082015261164f6115f860036000526005602052604060002090565b6040820152600460005260056020526116877f3eec716f11ba9e820c81ca75eb978ffb45831ef8b7a53e5e422c26008e1ca6d5612926565b6060820152600560008190526020526116bf7f458b30c2d72bfd2c6317304a4594ecbafe5f729d3111b65fdc3a33bd48e5432d612926565b6080820152600660005260056020526116f77f069400f22b28c6c362558d92f66163cec5671cba50b61abd2eecfcd0eaeac518612926565b60a08201526007600052600560205261172f7feddb6698d7c569ff62ff64f1f1492bf14a54594835ba0faac91f84b4f5d81460612926565b60c08201526040519182918261154d565b60209061174b612907565b81840152016115b2565b3461048557600036600319011261048557602754602854602954602a54604080519485526020850193909352918301526060820152608090f35b3461048557600036600319011261048557600460206001600160a01b03600054166040519283809263d1f956b160e01b82525afa9081156104805761091e916109d89160009161181f575b506040516117e7816120a7565b601381527f67657464656c656761746f72436f756e742829000000000000000000000000006020820152611819612150565b9161267f565b611837915060203d81116104795761046a81836120df565b386117da565b34610485576000366003190112610485576020601a54604051908152f35b346104855760203660031901126104855760043560005260046020526040600020805461091e6001830154926002810154906004600382015491015491604051958695869192608093969594919660a084019784526020840152604083015260608201520152565b34610485576000366003190112610485576020601754604051908152f35b346104855760203660031901126104855760206119086004356119038161082a565b612307565b6040519015158152f35b3461048557600036600319011261048557602060ff602c54166040519015158152f35b346104855760003660031901126104855760115460125460135460408051938452602084019290925290820152606090f35b346104855760203660031901126104855760046001600160a01b036020816000541660405193848092630536340960e21b82525afa91821561048057600092611a03575b50339116036119bf5761001660043561249e565b606460405162461bcd60e51b815260206004820152600f60248201527f6f776e2e6e6f6e617574682e44414f00000000000000000000000000000000006044820152fd5b611a1c91925060203d81116104795761046a81836120df565b90386119ab565b3461048557602036600319011261048557600435611a408161082a565b803b6000611a4d82612134565b92611a5b60405194856120df565b82845260208401903c602d815110611a8157602a015160405160609190911c8152602090f35b606460405162461bcd60e51b815260206004820152601360248201527f4e6f742061206d696e696d616c2070726f7879000000000000000000000000006044820152fd5b3461048557611ad336610ff0565b90611ae26103e49493946121c3565b611aeb33612307565b8015611b47575b92611afe600294612708565b611b0a600882106128a0565b60405194611b178661208b565b85526020850191825260408501928352600052600560205260406000209351845551600184015551910155600080f35b506001600160a01b039260046020856000541660405192838092630536340960e21b82525afa801561048057600295611afe92600092611b90575b503391161491945050611af2565b611ba991925060203d81116104795761046a81836120df565b9038611b82565b34610485576020806003193601126104855760048035611bcf8161082a565b6001600160a01b03928084600054166040519485809263d1f956b160e01b82525afa9081156104805761091e9461090c94600093611c2b575b506040519316818401528252611c1d826120a7565b611c25612435565b90612643565b611c43919350823d84116104795761046a81836120df565b9138611c08565b346104855760003660031901126104855760206119086121c3565b3461048557602036600319011261048557611c816103e46121c3565b611c8a33612307565b8015611ca5575b611c9a90612708565b610016600435601e55565b5060046001600160a01b036020816000541660405193848092630536340960e21b82525afa90811561048057611c9a92600092611ce8575b501633149050611c91565b611d0191925060203d81116104795761046a81836120df565b9038611cdd565b3461048557611d1636610de7565b91611d256103e49694966121c3565b611d2e33612307565b8015611da1575b95611d4261001697612708565b60405195611d4f8761204e565b8652602086015260408501526060840152608083015260005260046020526040600020906080600491805184556020810151600185015560408101516002850155606081015160038501550151910155565b506001600160a01b039560046020886000541660405192838092630536340960e21b82525afa80156104805761001698611d4292600092611deb575b503391161491975050611d35565b611e0491925060203d81116104795761046a81836120df565b9038611ddd565b3461048557602036600319011261048557611e276103e46121c3565b611e3033612307565b8015611e4b575b611e4090612708565b610016600435602b55565b5060046001600160a01b036020816000541660405193848092630536340960e21b82525afa90811561048057611e4092600092611e8e575b501633149050611e37565b611ea791925060203d81116104795761046a81836120df565b9038611e83565b3461048557604036600319011261048557611eca6103e46121c3565b611ed333612307565b8015611ef1575b611ee390612708565b6100166024356004356128eb565b5060046001600160a01b036020816000541660405193848092630536340960e21b82525afa90811561048057611ee392600092611f34575b501633149050611eda565b611f4d91925060203d81116104795761046a81836120df565b9038611f29565b3461048557600036600319011261048557602060ff601654166040519015158152f35b3461048557600036600319011261048557600460206001600160a01b0360005416604051928380927f447aa3040000000000000000000000000000000000000000000000000000000082525afa9081156104805761091e916109d89160009161201a575b50604051611fe8816120a7565b600581527f61676528290000000000000000000000000000000000000000000000000000006020820152611819612150565b612032915060203d81116104795761046a81836120df565b38611fdb565b634e487b7160e01b600052604160045260246000fd5b60a0810190811067ffffffffffffffff82111761206a57604052565b612038565b60e0810190811067ffffffffffffffff82111761206a57604052565b6060810190811067ffffffffffffffff82111761206a57604052565b6040810190811067ffffffffffffffff82111761206a57604052565b6020810190811067ffffffffffffffff82111761206a57604052565b90601f8019910116810190811067ffffffffffffffff82111761206a57604052565b9081602091031261048557516121168161082a565b90565b6040513d6000823e3d90fd5b604051906121328261206f565b565b67ffffffffffffffff811161206a57601f01601f191660200190565b6040519061215d826120c3565b60008252565b1561216a57565b606460405162461bcd60e51b815260206004820152601960248201527f6f776e2e7361666567756172642e63616c6c2e6661696c6564000000000000006044820152fd5b90816020910312610485575161211681610a06565b6001600160a01b03600054166040518091634bf9c0ad60e11b825281600460209384935afa918215610480576121169261224b91600091612266575b5060405161220c816120a7565b600881527f69735361666528290000000000000000000000000000000000000000000000008482015260405191612242836120c3565b60008352612592565b91908061225c575b6108ff90612163565b5081518114612253565b61227d9150833d85116104795761046a81836120df565b386121ff565b60405190612290826120a7565b601582527f69735365637572654261736528616464726573732900000000000000000000006020830152565b156122c357565b606460405162461bcd60e51b815260206004820152601a60248201527f6f776e2e736563757265626173652e63616c6c2e6661696c65640000000000006044820152fd5b6000546001600160a01b0316604051918291634bf9c0ad60e11b835282600460209485935afa9283156104805761211693612373926108d29260009261238e575b5061236b906040519384918783019190916001600160a01b036020820193169052565b6108e8612283565b919080612384575b6108ff906122bc565b508151811461237b565b61236b9192506123aa90863d88116104795761046a81836120df565b9190612348565b604051906123be826120a7565b601182527f69735369676e65722861646472657373290000000000000000000000000000006020830152565b156123f157565b606460405162461bcd60e51b815260206004820152601660248201527f6f776e2e7369676e65722e63616c6c2e6661696c6564000000000000000000006044820152fd5b60405190612442826120a7565b601882527f697364656c656761746f724e6f646528616464726573732900000000000000006020830152565b3d15612499573d9061247f82612134565b9161248d60405193846120df565b82523d6000602084013e565b606090565b6000600460206001600160a01b03835416604051928380927f46f991ac0000000000000000000000000000000000000000000000000000000082525afa908115610480578284819382938391612574575b505af16124fa61246e565b50156125305760405190815233907fcdcc745fe377b103b45fa0cec23ae3ef93d6fc6a84a01f0d18c40b354dd1d5d890602090a2565b606460405162461bcd60e51b815260206004820152600f60248201527f6f776e2e6275726e2e6661696c656400000000000000000000000000000000006044820152fd5b61258c915060203d81116104795761046a81836120df565b386124ef565b9190823b1561262a577fffffffff00000000000000000000000000000000000000000000000000000000815160208093012016916040519180830193845281519160005b838110612616575050509181612603602482600097959688970187838201520360048101845201826120df565b5191620dbba0fa61261261246e565b9091565b8181018301518582016024015282016125d6565b50505060009060405161263c816120c3565b6000815290565b929161265191600094612592565b9080612674575b61265f5750565b612116919250602080825183010191016121ae565b506020815114612658565b929161268d91600094612592565b90806126b2575b61269b5750565b909150602081805181010312610485576020015190565b506020815114612694565b156126c457565b606460405162461bcd60e51b815260206004820152601260248201527f6f776e2e696e76616c69642e69735361666500000000000000000000000000006044820152fd5b1561270f57565b606460405162461bcd60e51b815260206004820152601b60248201527f6f776e2e6e6f6e617574682e44414f6f725365637572656261736500000000006044820152fd5b90670de0b6b3a76400009182810292818404149015171561277057565b634e487b7160e01b600052601160045260246000fd5b8181029291811591840414171561277057565b6127a290612753565b601f55565b61287f946121329794612818612860956128439460c09a96604051906127cc8261206f565b8282521515928360208301521515948560408301521515958660608301521515978860808301521515998a60a083015215159b8c91015260145560ff8019601554169115151617601555565b6015805462ffff00191660089290921b61ff00169190911791151560101b62ff000016919091179055565b63ff00000060155491151560181b169063ff000000191617601555565b64ff0000000060155491151560201b169064ff00000000191617601555565b65ff000000000060155491151560281b169065ff0000000000191617601555565b156128a757565b606460405162461bcd60e51b815260206004820152600c60248201527f696e76616c69642072616e6b00000000000000000000000000000000000000006044820152fd5b6128f7600882106128a0565b6000526003602052604060002055565b604051906129148261208b565b60006040838281528260208201520152565b906040516129338161208b565b60406002829480548452600181015460208501520154910152565b60405190608082019180831067ffffffffffffffff84111761206a57606087916002946040528581528660208201528760408201520152600181146129af575b1461299a575b50505050565b602755602855602955602a5538808080612994565b8260235583602455846025558560265561298e565b6040516129d0816120c3565b60008152906000368137565b604051906129e9826120a7565b601282527f6f7a6f6e655072696365496e55534454282900000000000000000000000000006020830152565b8115612a1f570490565b634e487b7160e01b600052601260045260246000fdfea264697066735822122022f0b90081791c0f1778ad721c66464006e7a9fbd682a45c61f771ae85df829764736f6c63430008140033","linkReferences":{}},"methodIdentifiers":{"rule741()":"0a5b38ab","transferRequest()":"3da8676f"},"id":69}