{"abi":[{"type":"constructor","inputs":[{"name":"_hex","type":"address","internalType":"address"},{"name":"_price","type":"address","internalType":"address"},{"name":"_old741","type":"address","internalType":"address"}],"stateMutability":"nonpayable"},{"type":"function","name":"dAOAssembly","inputs":[],"outputs":[{"name":"","type":"address","internalType":"address"}],"stateMutability":"view"},{"type":"function","name":"daocore","inputs":[],"outputs":[{"name":"","type":"address","internalType":"address"}],"stateMutability":"view"},{"type":"function","name":"nested741","inputs":[],"outputs":[{"name":"","type":"address","internalType":"address"}],"stateMutability":"view"},{"type":"function","name":"old741","inputs":[],"outputs":[{"name":"","type":"address","internalType":"address"}],"stateMutability":"view"},{"type":"function","name":"price","inputs":[],"outputs":[{"name":"","type":"address","internalType":"address"}],"stateMutability":"view"}],"bytecode":{"object":"0x6080346101b757601f618a6f38819003918201601f19168301926001600160401b03929091838511838610176101a15781606092849260409788528339810103126101b75761004d816101bc565b6100648461005d602085016101bc565b93016101bc565b9160018060a01b03199273c0cee8b561cc4f60869776ca5b0b7a295e04f5af84600154161760015585516113219586820196828810828911176101a15761032583396001600160a01b039485168088526000979092908190036020019088f080156101835785168660035416176003558751615579808201908282108483111761018d5760209183916134f6833985815203019088f08015610183578516866002541617600255875191611eb0808401928484109084111761016f579183916020936116468439815203019086f080156101655790838092168560045416176004551683600154161760015516908254161790555161015490816101d18239f35b86513d87823e3d90fd5b634e487b7160e01b89526041600452602489fd5b88513d89823e3d90fd5b634e487b7160e01b8a52604160045260248afd5b634e487b7160e01b600052604160045260246000fd5b600080fd5b51906001600160a01b03821682036101b75756fe608080604052600436101561001357600080fd5b600090813560e01c90816314837455146100f55750806314d8d024146100ce57806345cff900146100a75780635540c5ac146100805763a035b1fe1461005857600080fd5b3461007d578060031936011261007d576001600160a01b036020915416604051908152f35b80fd5b503461007d578060031936011261007d5760206001600160a01b0360015416604051908152f35b503461007d578060031936011261007d5760206001600160a01b0360025416604051908152f35b503461007d578060031936011261007d5760206001600160a01b0360045416604051908152f35b90503461011a578160031936011261011a576020906001600160a01b03600354168152f35b5080fdfea26469706673582212208f0be62dbeb345681d69d312fe597f466567a6786f8c8542a03cc56a78dccfa564736f6c634300081400336080346100ca57601f61132138819003918201601f19168301916001600160401b038311848410176100cf578084926020946040528339810103126100ca57516001600160a01b038116908190036100ca5780156100855760018060a01b0319338160015416176001556000541617600055600060045560405161123b90816100e68239f35b60405162461bcd60e51b815260206004820152601360248201527f6f776e2e696e76616c69642e68657862617365000000000000000000000000006044820152606490fd5b600080fd5b634e487b7160e01b600052604160045260246000fdfe60806040526004361015610018575b361561001657005b005b60003560e01c806312065fe0146101085780631f185d161461010357806325924f34146100fe5780633b9b7955146100f957806361b7fbd9146100f45780638da5cb5b146100ef578063a1f7f539146100ea578063af484526146100e5578063b90306ad146100e0578063c54e44b0146100db578063c89b84fd146100d6578063dbac26e9146100d1578063e01ad5fd146100cc578063e0a9bc2b146100c75763fdc10bc90361000e576109a3565b610904565b61086a565b610827565b610714565b610672565b610552565b610481565b6103c3565b61039c565b6102c5565b610294565b610263565b61013a565b3461012457600036600319011261012457602047604051908152f35b600080fd5b6001600160a01b0381160361012457565b34610124576020806003193601126101245760049081359061015b82610129565b8061017d6101716000546001600160a01b031690565b6001600160a01b031690565b60405194858092634bf9c0ad60e11b82525afa91821561025e576101d161020b936101ed9261021d9660009261022b575b506101df906040519384918783019190916001600160a01b036020820193169052565b03601f198101845283610a19565b6101e7610e98565b90611089565b919080610221575b6101fe90610ed1565b8082518301019101610dff565b60405190151581529081906020820190565b0390f35b50815181146101f5565b6101df91925061025090863d8811610257575b6102488183610a19565b810190610a3b565b91906101ae565b503d61023e565b610a53565b3461012457602036600319011261012457602061028a60043561028581610129565b610b72565b6040519015158152f35b346101245760003660031901126101245760206001600160a01b0360005416604051908152f35b8015150361012457565b34610124576040366003190112610124576004356102e281610129565b6024356102ee816102bb565b6001600160a01b03600092600460208386541660405192838092630536340960e21b82525afa801561025e5761032f91869161037e575b5083163314610d30565b16825260036020526040822060ff1981541660ff8315151617905560001461036b5760045460001981146103665760010160045580f35b610d0c565b6004548015610366576000190160045580f35b610396915060203d8111610257576102488183610a19565b38610325565b346101245760003660031901126101245760206001600160a01b0360015416604051908152f35b3461012457600036600319011261012457600460206001600160a01b03600054166040519283809263d1f956b160e01b82525afa90811561025e5761021d9161045391600091610463575b5060405161041b816109dc565b601381527f67657464656c656761746f72436f756e74282900000000000000000000000000602082015261044d610a7b565b916111c7565b6040519081529081906020820190565b61047b915060203d8111610257576102488183610a19565b3861040e565b3461012457602080600319360112610124576004908135906104a282610129565b806104b86101716000546001600160a01b031690565b60405194858092634bf9c0ad60e11b82525afa91821561025e576101d161020b936105149261021d9660009261052f575b5061050c906040519384918783019190916001600160a01b036020820193169052565b6101e7610e14565b919080610525575b6101fe90610e4d565b508151811461051c565b61050c91925061054b90863d8811610257576102488183610a19565b91906104e9565b3461012457602080600319360112610124576004356001600160a01b0391600092808454169060405191630536340960e21b83528383600481845afa92831561025e5760049385936105ae928992610653575b50163314610d30565b604051928380927f46f991ac0000000000000000000000000000000000000000000000000000000082525afa91821561025e5784808561060595829583958492610636575b50505af16105ff61100e565b5061103e565b60405190815233907fcdcc745fe377b103b45fa0cec23ae3ef93d6fc6a84a01f0d18c40b354dd1d5d890602090a280f35b61064c9250803d10610257576102488183610a19565b38806105f3565b61066b919250853d8711610257576102488183610a19565b90386105a5565b346101245760203660031901126101245760043561068f81610129565b803b600061069c82610a5f565b926106aa6040519485610a19565b82845260208401903c602d8151106106d057602a015160405160609190911c8152602090f35b606460405162461bcd60e51b815260206004820152601360248201527f4e6f742061206d696e696d616c2070726f7879000000000000000000000000006044820152fd5b34610124576000806003193601126108245761073a61017182546001600160a01b031690565b906040519063cfbffe5360e01b82526020928383600481845afa801561025e5761077a85916004958591610807575b50610772610a8e565b61044d610a7b565b916040519485809263ab6e844f60e01b82525afa801561025e5761021d94610453946107df94926107e4575b506107d1906101d16107b6610f1c565b94604051958693840160209093929193604081019481520152565b6107d9610cd3565b906111c7565b610d22565b819250610800906107d1923d8511610257576102488183610a19565b91906107a6565b61081e9150833d8511610257576102488183610a19565b38610769565b80fd5b34610124576020366003190112610124576001600160a01b0360043561084c81610129565b166000526003602052602060ff604060002054166040519015158152f35b3461012457602080600319360112610124576004803561088981610129565b6001600160a01b03928084600054166040519485809263d1f956b160e01b82525afa90811561025e5761021d9461020b946000936108e5575b5060405193168184015282526108d7826109dc565b6108df610fd5565b9061118b565b6108fd919350823d8411610257576102488183610a19565b91386108c2565b34610124576000366003190112610124576001600160a01b03600054166040518091634bf9c0ad60e11b825281600460209384935afa90811561025e5761096b61020b9261021d94600091610986575b5061095d610d7b565b610965610a7b565b91611089565b91908061097c575b6101fe90610db4565b5081518114610973565b61099d9150833d8511610257576102488183610a19565b38610954565b346101245760003660031901126101245760206109be610f1c565b604051908152f35b634e487b7160e01b600052604160045260246000fd5b6040810190811067ffffffffffffffff8211176109f857604052565b6109c6565b6020810190811067ffffffffffffffff8211176109f857604052565b90601f8019910116810190811067ffffffffffffffff8211176109f857604052565b908160209103126101245751610a5081610129565b90565b6040513d6000823e3d90fd5b67ffffffffffffffff81116109f857601f01601f191660200190565b60405190610a88826109fd565b60008252565b60405190610a9b826109dc565b600c82527f72616e6b666f7244414f282900000000000000000000000000000000000000006020830152565b60405190610ad4826109dc565b601682527f67657455736572546f53746f72286164647265737329000000000000000000006020830152565b60405190610b0d826109dc565b600682527f72616e6b282900000000000000000000000000000000000000000000000000006020830152565b60405190610b46826109dc565b600882527f69734c6f636b28290000000000000000000000000000000000000000000000006020830152565b610b876101716000546001600160a01b031690565b9060405163cfbffe5360e01b81526020908181600481875afa801561025e57610bbe83916004936000916108075750610772610a8e565b946040519283809263ab6e844f60e01b82525afa801561025e57610c17928492600092610cb0575b506040516001600160a01b03909316908301908152610c099083906020016101d1565b610c11610ac7565b9061113a565b916001600160a01b03831615610ca857610c5b610c44610c35610b00565b610c3d610a7b565b90866111c7565b93610c4d610b39565b610c55610a7b565b9161118b565b9210159182610c9f575b5081610c6f575090565b610a509150610c94610c9b916001600160a01b03166000526003602052604060002090565b5460ff1690565b1590565b15915038610c65565b505050600090565b819250610ccc90610c09923d8511610257576102488183610a19565b9190610be6565b60405190610ce0826109dc565b601d82527f67657472616e6b636f756e742875696e743235362c75696e74323536290000006020830152565b634e487b7160e01b600052601160045260246000fd5b906003820180921161036657565b15610d3757565b606460405162461bcd60e51b815260206004820152600f60248201527f6f776e2e6e6f6e617574682e44414f00000000000000000000000000000000006044820152fd5b60405190610d88826109dc565b600882527f69735361666528290000000000000000000000000000000000000000000000006020830152565b15610dbb57565b606460405162461bcd60e51b815260206004820152601960248201527f6f776e2e7361666567756172642e63616c6c2e6661696c6564000000000000006044820152fd5b908160209103126101245751610a50816102bb565b60405190610e21826109dc565b601582527f69735365637572654261736528616464726573732900000000000000000000006020830152565b15610e5457565b606460405162461bcd60e51b815260206004820152601a60248201527f6f776e2e736563757265626173652e63616c6c2e6661696c65640000000000006044820152fd5b60405190610ea5826109dc565b601182527f69735369676e65722861646472657373290000000000000000000000000000006020830152565b15610ed857565b606460405162461bcd60e51b815260206004820152601660248201527f6f776e2e7369676e65722e63616c6c2e6661696c6564000000000000000000006044820152fd5b600460206001600160a01b0360005416604051928380927f447aa3040000000000000000000000000000000000000000000000000000000082525afa801561025e57610a5091600091610fb7575b50604051610f77816109dc565b600581527f6167652829000000000000000000000000000000000000000000000000000000602082015260405191610fae836109fd565b600083526111c7565b610fcf915060203d8111610257576102488183610a19565b38610f6a565b60405190610fe2826109dc565b601882527f697364656c656761746f724e6f646528616464726573732900000000000000006020830152565b3d15611039573d9061101f82610a5f565b9161102d6040519384610a19565b82523d6000602084013e565b606090565b1561104557565b606460405162461bcd60e51b815260206004820152600f60248201527f6f776e2e6275726e2e6661696c656400000000000000000000000000000000006044820152fd5b9190823b15611121577fffffffff00000000000000000000000000000000000000000000000000000000815160208093012016916040519180830193845281519160005b83811061110d5750505091816110fa60248260009795968897018783820152036004810184520182610a19565b5191620dbba0fa61110961100e565b9091565b8181018301518582016024015282016110cd565b505050600090604051611133816109fd565b6000815290565b929161114891600094611089565b9080611180575b6111565750565b9091506020818051810103126101245760206001600160a01b0391015161117c81610129565b1690565b50602081511461114f565b929161119991600094611089565b90806111bc575b6111a75750565b610a5091925060208082518301019101610dff565b5060208151146111a0565b92916111d591600094611089565b90806111fa575b6111e35750565b909150602081805181010312610124576020015190565b5060208151146111dc56fea26469706673582212207f7a4ab010501de8da910743fff6ddc1603eae88cabafbeeed4076857fdfb0a764736f6c634300081400336080346100cf57601f611eb038819003918201601f19168301916001600160401b038311848410176100d4578084926020946040528339810103126100cf57516001600160a01b038116908190036100cf57801561008a5760018060a01b031933816001541617600155600054161760005560336003556003600455604051611dc590816100eb8239f35b60405162461bcd60e51b815260206004820152601360248201527f6f776e2e696e76616c69642e68657862617365000000000000000000000000006044820152606490fd5b600080fd5b634e487b7160e01b600052604160045260246000fdfe60806040526004361015610018575b361561001657005b005b60003560e01c8063013cf08b1461016857806312065fe0146101635780631f185d161461015e5780633595df1a146101595780633b9b795514610154578063438596321461014f57806365153c4b1461014a5780638da5cb5b1461014557806398e527d314610140578063995e43391461013b578063a1f7f53914610136578063af48452614610131578063b90306ad1461012c578063c54e44b014610127578063c7f758a814610122578063c9d27afe1461011d578063d153356b14610118578063d3a3084914610113578063e01ad5fd1461010e578063e0a9bc2b146101095763fdc10bc90361000e5761105b565b611040565b611019565b610d89565b610ca0565b610b26565b610ab6565b6109d8565b610903565b6107de565b6107bb565b610737565b610719565b6106f2565b6105e4565b610575565b61054e565b610511565b6104e0565b6104b3565b610402565b6005548110156101a857600b906005600052027f036b6384b5eca791c62761152d0c79bb0604c104a5fb6f4eb0703f3154bb3db00190600090565b634e487b7160e01b600052603260045260246000fd5b90600182811c921680156101ee575b60208310146101d857565b634e487b7160e01b600052602260045260246000fd5b91607f16916101cd565b9060009291805491610209836101be565b91828252600193848116908160001461026b575060011461022b575b50505050565b90919394506000526020928360002092846000945b838610610257575050505001019038808080610225565b805485870183015294019385908201610240565b9294505050602093945060ff191683830152151560051b01019038808080610225565b634e487b7160e01b600052604160045260246000fd5b6020810190811067ffffffffffffffff8211176102c057604052565b61028e565b6040810190811067ffffffffffffffff8211176102c057604052565b90601f8019910116810190811067ffffffffffffffff8211176102c057604052565b9061031e61031792604051938480926101f8565b03836102e1565b565b60005b8381106103335750506000910152565b8181015183820152602001610323565b9060209161035c81518092818552858086019101610320565b601f01601f1916010190565b9892956103ba959e9d9b956103fa99936101809c9661031e9f9a949960408e6001600160a01b036103a46103f09e6101a0808552840190610343565b9516602082015201528c820360608e0152610343565b9e60808b015260a08a015260c089015260e088015261010087015215156101208601526101408501906001600160a01b03169052565b1515610160830152565b019015159052565b346104ae5760203660031901126104ae576004356005548110156104ae576104299061016d565b506040519061043c8261031781846101f8565b6104aa6001600160a01b0392836001840154169360028401549361046260038201610303565b9560048201549160058101546006820154600783015491600a6008850154940154956040519b8c9b8c9760ff8a60b01c169b60ff808c60a81c169c8c60081c169b1699610368565b0390f35b600080fd5b346104ae5760003660031901126104ae57602047604051908152f35b6001600160a01b038116036104ae57565b346104ae5760203660031901126104ae576020610507600435610502816104cf565b611778565b6040519015158152f35b346104ae5760203660031901126104ae57600435600019810190811161054957600561053e60209261016d565b500154604051908152f35b611192565b346104ae5760003660031901126104ae5760206001600160a01b0360005416604051908152f35b346104ae5760403660031901126104ae57600435602435610595816104cf565b6000198201918211610549576105ce60ff9160096105b460209561016d565b5001906001600160a01b0316600052602052604060002090565b54166040519015158152f35b801515036104ae57565b346104ae5760403660031901126104ae57600435602435610604816105da565b61060d33611778565b156106ae57600019820191808311610549576106a961062e6100169461016d565b5061065c60ff6106543360098501906001600160a01b0316600052602052604060002090565b541615611311565b610695600a8201549161067560ff8460b01c16156112c6565b61068160ff8416611230565b600761068b611822565b91015411156113a7565b60081c6001600160a01b031633141561135c565b611401565b606460405162461bcd60e51b815260206004820152601260248201527f6f776e2e696e76616c69642e7369676e657200000000000000000000000000006044820152fd5b346104ae5760003660031901126104ae5760206001600160a01b0360015416604051908152f35b346104ae5760003660031901126104ae576020600554604051908152f35b346104ae5760203660031901126104ae576004356000198101908111610549576107609061016d565b506004810154600682015460078301546008840154600a9094015460408051948552602085019390935291830152606082019290925260ff60a883901c81161515608083015260b09290921c909116151560a082015260c090f35b346104ae5760003660031901126104ae5760206107d66119bc565b604051908152f35b346104ae576020806003193601126104ae576004908135906107ff826104cf565b806108216108156000546001600160a01b031690565b6001600160a01b031690565b60405194858092634bf9c0ad60e11b82525afa9182156108fe576108756108af93610891926104aa966000926108cb575b50610883906040519384918783019190916001600160a01b036020820193169052565b03601f1981018452836102e1565b61088b611670565b90611b77565b9190806108c1575b6108a2906116a9565b808251830101910161159b565b60405190151581529081906020820190565b5081518114610899565b6108839192506108f090863d88116108f7575b6108e881836102e1565b810190611510565b9190610852565b503d6108de565b611528565b346104ae5760203660031901126104ae5760046001600160a01b0360208160005416604051938480927f14d8d0240000000000000000000000000000000000000000000000000000000082525afa9182156108fe576000926109b8575b503391160361097457610016600435611a83565b606460405162461bcd60e51b815260206004820152600f60248201527f6f776e2e6e6f6e617574682e44414f00000000000000000000000000000000006044820152fd5b6109d191925060203d81116108f7576108e881836102e1565b9038610960565b346104ae5760203660031901126104ae576004356109f5816104cf565b803b6000610a0282611534565b92610a1060405194856102e1565b82845260208401903c602d815110610a3657602a015160405160609190911c8152602090f35b606460405162461bcd60e51b815260206004820152601360248201527f4e6f742061206d696e696d616c2070726f7879000000000000000000000000006044820152fd5b93610a936080949796939260a0875260a0870190610343565b966001600160a01b03809316602087015260408601521660608401521515910152565b346104ae5760203660031901126104ae57600435600019810190811161054957610adf9061016d565b506001600160a01b036104aa81600184015416926103176002820154610b10600a84015493604051938480926101f8565b60405195869560ff85169460081c169286610a7a565b346104ae5760403660031901126104ae57600435602435610b46816105da565b610b4f33611778565b8015610c7d575b610b5f906111d6565b610c52610c45610b76610b7185611221565b61016d565b50600a81015490610b8960ff8316611230565b610ba06007820154610b99611822565b111561127b565b610bb060ff8360b01c16156112c6565b610bee6009820192610695610be9610be5610bde3388906001600160a01b0316600052602052604060002090565b5460ff1690565b1590565b611311565b60008515610c78575060015b610c0c60ff60048401921682546111c9565b9055600085610c6a5750610c2b60ff60066001935b01921682546111c9565b9055336001600160a01b0316600052602052604060002090565b805460ff19166001179055565b610c5b33611778565b610c6157005b61001691611401565b60ff6006610c2b9293610c21565b610bfa565b50610c866115b0565b8015610b565750610b5f610c99336118db565b9050610b56565b346104ae5760403660031901126104ae57610cb96115b0565b15610d1757333003610cd357600480356003556024359055005b606460405162461bcd60e51b815260206004820152600d60248201527f64616f2e66616b652e636f7265000000000000000000000000000000000000006044820152fd5b606460405162461bcd60e51b815260206004820152601260248201527f6f776e2e696e76616c69642e69735361666500000000000000000000000000006044820152fd5b9181601f840112156104ae5782359167ffffffffffffffff83116104ae57602083818601950101116104ae57565b346104ae5760a03660031901126104ae5767ffffffffffffffff6004358181116104ae57610dbb903690600401610d5b565b602435610dc7816104cf565b6064358481116104ae57610ddf903690600401610d5b565b9390926001600160a01b03831615610fd55760055491680100000000000000008310156102c057610e1760019384810160055561016d565b509682116102c057610e3382610e2d89546101be565b89611076565b600090601f8311600114610f5b5793600a969383610f42999794610ea694610eb798600092610f50575b5050600019600383901b1c191690821b1787555b8601906001600160a01b03167fffffffffffffffffffffffff0000000000000000000000000000000000000000825416179055565b6044356002850155600384016110ca565b610edd610ed6610ed1610ec86119bc565b600354906111a8565b6111bb565b6064900490565b6008820155610ef5608435610ef0611822565b6111c9565b60078201550180547fffffffffffffffffffffff0000000000000000000000000000000000000000ff163360081b74ffffffffffffffffffffffffffffffffffffffff0016178155610c45565b600554604051908152602090f35b013590503880610e5d565b601f19831691610f7089600052602060002090565b92815b818110610fbf57509484610ea694610eb798948394610f429d9b98600a9d9a10610fa5575b505050811b018755610e71565b0135600019600384901b60f8161c19169055388080610f98565b8383013585559386019360209283019201610f73565b606460405162461bcd60e51b815260206004820152601260248201527f6f776e2e64656661756c742e73656e64657200000000000000000000000000006044820152fd5b346104ae5760203660031901126104ae57602061050760043561103b816104cf565b6118db565b346104ae5760003660031901126104ae5760206105076115b0565b346104ae5760003660031901126104ae5760206107d6611822565b90601f811161108457505050565b600091825260208220906020601f850160051c830194106110c0575b601f0160051c01915b8281106110b557505050565b8181556001016110a9565b90925082906110a0565b90929167ffffffffffffffff81116102c0576110f0816110ea84546101be565b84611076565b6000601f821160011461112a578192939460009261111f575b50508160011b916000199060031b1c1916179055565b013590503880611109565b601f1982169461113f84600052602060002090565b91805b87811061117a575083600195969710611160575b505050811b019055565b0135600019600384901b60f8161c19169055388080611156565b90926020600181928686013581550194019101611142565b634e487b7160e01b600052601160045260246000fd5b8181029291811591840414171561054957565b906063820180921161054957565b9190820180921161054957565b156111dd57565b606460405162461bcd60e51b815260206004820152601660248201527f64616f2e6e6f6e617574682e64656c656761746f7273000000000000000000006044820152fd5b60001981019190821161054957565b1561123757565b606460405162461bcd60e51b815260206004820152601160248201527f64616f2e70726f702e6e6f7465786973740000000000000000000000000000006044820152fd5b1561128257565b606460405162461bcd60e51b815260206004820152601060248201527f64616f2e766f74696e672e656e646564000000000000000000000000000000006044820152fd5b156112cd57565b606460405162461bcd60e51b815260206004820152601560248201527f64616f2e616c72656164792e636f6d706c6574656400000000000000000000006044820152fd5b1561131857565b606460405162461bcd60e51b815260206004820152601160248201527f64616f2e616c72656164792e766f7465640000000000000000000000000000006044820152fd5b1561136357565b606460405162461bcd60e51b815260206004820152601260248201527f64616f2e766f7465722e726573747269637400000000000000000000000000006044820152fd5b156113ae57565b606460405162461bcd60e51b815260206004820152601360248201527f64616f2e6265666f72652e646561646c696e65000000000000000000000000006044820152fd5b60001981146105495760010190565b610b7161140d91611221565b506005810161141c81546113f2565b809155600454148015611508575b611432575050565b6114a96114ce92600a8301611482817601000000000000000000000000000000000000000000007fffffffffffffffffff00ffffffffffffffffffffffffffffffffffffffffffff825416179055565b816114f5575b816114d1579060ff60a81b1960ff60a81b835492151560a81b169116179055565b60018101546001600160a01b03166114c8600360028401549301610303565b90611c95565b50565b60048401546006850154825460ff60a81b1916911160a81b60ff60a81b1617905550565b6004840154600885015411159150611488565b50811561142a565b908160209103126104ae5751611525816104cf565b90565b6040513d6000823e3d90fd5b67ffffffffffffffff81116102c057601f01601f191660200190565b1561155757565b606460405162461bcd60e51b815260206004820152601960248201527f6f776e2e7361666567756172642e63616c6c2e6661696c6564000000000000006044820152fd5b908160209103126104ae5751611525816105da565b6001600160a01b03600054166040518091634bf9c0ad60e11b825281600460209384935afa9182156108fe576115259261163891600091611653575b506040516115f9816102c5565b600881527f6973536166652829000000000000000000000000000000000000000000000000848201526040519161162f836102a4565b60008352611b77565b919080611649575b6108a290611550565b5081518114611640565b61166a9150833d85116108f7576108e881836102e1565b386115ec565b6040519061167d826102c5565b601582527f69735365637572654261736528616464726573732900000000000000000000006020830152565b156116b057565b606460405162461bcd60e51b815260206004820152601a60248201527f6f776e2e736563757265626173652e63616c6c2e6661696c65640000000000006044820152fd5b60405190611701826102c5565b601182527f69735369676e65722861646472657373290000000000000000000000000000006020830152565b1561173457565b606460405162461bcd60e51b815260206004820152601660248201527f6f776e2e7369676e65722e63616c6c2e6661696c6564000000000000000000006044820152fd5b6000546001600160a01b0316604051918291634bf9c0ad60e11b835282600460209485935afa9283156108fe57611525936117e492610875926000926117ff575b506117dc906040519384918783019190916001600160a01b036020820193169052565b61088b6116f4565b9190806117f5575b6108a29061172d565b50815181146117ec565b6117dc91925061181b90863d88116108f7576108e881836102e1565b91906117b9565b600460206001600160a01b0360005416604051928380927f447aa3040000000000000000000000000000000000000000000000000000000082525afa80156108fe57611525916000916118bd575b5060405161187d816102c5565b600581527f61676528290000000000000000000000000000000000000000000000000000006020820152604051916118b4836102a4565b60008352611c0d565b6118d5915060203d81116108f7576108e881836102e1565b38611870565b6001600160a01b039081600054169060405192839263d1f956b160e01b845283600460209586935afa9384156108fe57600094611997575b5060405191168282015281815261196a9061192d816102c5565b604051611939816102c5565b601881527f697364656c656761746f724e6f6465286164647265737329000000000000000084820152600094611b77565b91908061198d575b61197b57505090565b6115259250808251830101910161159b565b5080825114611972565b61196a929194506119b490843d86116108f7576108e881836102e1565b939091611913565b600460206001600160a01b03600054166040519283809263d1f956b160e01b82525afa80156108fe5761152591600091611a35575b506040516119fe816102c5565b601381527f67657464656c656761746f72436f756e742829000000000000000000000000006020820152604051916118b4836102a4565b611a4d915060203d81116108f7576108e881836102e1565b386119f1565b3d15611a7e573d90611a6482611534565b91611a7260405193846102e1565b82523d6000602084013e565b606090565b6000600460206001600160a01b03835416604051928380927f46f991ac0000000000000000000000000000000000000000000000000000000082525afa9081156108fe578284819382938391611b59575b505af1611adf611a53565b5015611b155760405190815233907fcdcc745fe377b103b45fa0cec23ae3ef93d6fc6a84a01f0d18c40b354dd1d5d890602090a2565b606460405162461bcd60e51b815260206004820152600f60248201527f6f776e2e6275726e2e6661696c656400000000000000000000000000000000006044820152fd5b611b71915060203d81116108f7576108e881836102e1565b38611ad4565b803b15611bf4576000927fffffffff000000000000000000000000000000000000000000000000000000008360208695519101201690611be16024604051809360208201958652611bd18151809260208686019101610320565b81010360048101845201826102e1565b5191620dbba0fa611bf0611a53565b9091565b505050600090604051611c06816102a4565b6000815290565b9291611c1b91600094611b77565b9080611c40575b611c295750565b9091506020818051810103126104ae576020015190565b506020815114611c22565b90602082519201517fffffffff00000000000000000000000000000000000000000000000000000000908181169360048110611c8657505050565b60040360031b82901b16169150565b9190916001600160a01b03811615611d4b57600091829184519160208601915af190611cbf611a53565b9115611cc9575090565b805160009190600411611d4557611ce09150611c4b565b815115611cf05750805190602001fd5b6040517f21c09d340000000000000000000000000000000000000000000000000000000081527fffffffff00000000000000000000000000000000000000000000000000000000919091166004820152602490fd5b50611ce0565b606460405162461bcd60e51b815260206004820152601260248201527f6f776e2e696e76616c69642e74617267657400000000000000000000000000006044820152fdfea2646970667358221220b77ead30e81fb9e9ec3c843d81534fb6707afbe1492c47e04582965bc1cb2bf964736f6c63430008140033608034620000d157601f6200557938819003918201601f19168301916001600160401b03831184841017620000d657808492602094604052833981010312620000d157516001600160a01b03811690819003620000d15780156200008c5760018060a01b0319338160015416176001556000541617600055600160035560405161548c9081620000ed8239f35b60405162461bcd60e51b815260206004820152601360248201527f6f776e2e696e76616c69642e68657862617365000000000000000000000000006044820152606490fd5b600080fd5b634e487b7160e01b600052604160045260246000fdfe60806040526004361015610018575b361561001657005b005b60003560e01c80629db65514610337578063033eeffb146103325780630e5fd00b1461032d57806312065fe0146103285780631bb49f02146103235780631c53c2801461031e5780631f185d16146103195780632a687c87146103145780632fefc0bf1461030f578063307673e81461030a57806332ff4eab1461030557806333b59a5b146103005780633a7b55b8146102fb5780633b9b7955146102f65780633baee0ea146102f1578063419cb27b146102ec57806342cc9d57146102e757806344585097146102e25780634f0f4aa9146102dd578063509222cd146102d857806350db85d1146102d357806361ea7208146102ce578063629d671e146102c957806365d2fbd3146102c45780636a811244146102bf57806376fe6c45146102ba5780637bb98498146102b557806380f85e33146102b0578063849c22ad146102ab578063896c354a146102a65780638da5cb5b146102a157806395f72f491461029c57806398b3f21514610297578063a1f7f53914610292578063a89d693b1461028d578063af48452614610288578063b1c4907914610283578063b366335e1461027e578063b90306ad14610279578063c54e44b014610274578063c871372b1461026f578063d1e0bbc61461026a578063dcb3fc4a14610265578063e01ad5fd14610260578063e0a9bc2b1461025b578063eb95c66214610256578063eb9e9e2c14610251578063f3ca71241461024c578063fd38093b146102475763fdc10bc90361000e57612b0b565b612a9b565b612a6f565b612838565b61280c565b6127f1565b612757565b612567565b61252d565b6124af565b61240d565b612351565b6122a1565b61211f565b6120f8565b611fd9565b611eec565b611ec0565b611e1a565b611df3565b611db3565b611d84565b611d4a565b611ca4565b611c54565b6116b9565b611384565b611346565b611328565b611268565b611214565b611127565b6110ef565b6110c0565b611086565b610b2d565b610ade565b610972565b61089e565b6107f8565b610727565b6106ef565b610649565b610539565b610504565b61049f565b610483565b610433565b6103f6565b346103f15760203660031901126103f157610358610353614d1e565b612e8c565b61036133614e62565b8015610379575b61037190612ef8565b610016614715565b5060046001600160a01b036020816000541660405193848092630536340960e21b82525afa9081156103ec57610371926000926103bc575b501633149050610368565b6103de91925060203d81116103e5575b6103d68183612bb9565b810190612ed7565b90386103b1565b503d6103cc565b612eec565b600080fd5b346103f15760203660031901126103f157600435600052600b6020526020604060002054604051908152f35b6001600160a01b038116036103f157565b346103f15760203660031901126103f157602060043561045281610422565b6001600160a01b03809116600052600482526040600020546000526007825260046040600020015416604051908152f35b346103f15760003660031901126103f157602047604051908152f35b346103f15760203660031901126103f1576004356104bc81610422565b6001600160a01b0390811660009081526004602090815260408083205483526007825280832060020154808452600583529281902054815193845290931690820152f35b0390f35b346103f15760203660031901126103f157600435600052600560205260206001600160a01b0360406000205416604051908152f35b346103f1576020806003193601126103f15760049081359061055a82610422565b8061057c6105706000546001600160a01b031690565b6001600160a01b031690565b60405194858092634bf9c0ad60e11b82525afa9182156103ec576105d061060a936105ec9261050096600092610626575b506105de906040519384918783019190916001600160a01b036020820193169052565b03601f198101845283612bb9565b6105e6614f0c565b906151b8565b91908061061c575b6105fd90614f45565b8082518301019101614d0a565b60405190151581529081906020820190565b50815181146105f4565b6105de91925061064290863d88116103e5576103d68183612bb9565b91906105ad565b346103f15760403660031901126103f157610665610353614d1e565b61066e33614e62565b801561068c575b61067e90612ef8565b610016602435600435614aa0565b5060046001600160a01b036020816000541660405193848092630536340960e21b82525afa9081156103ec5761067e926000926106cf575b501633149050610675565b6106e891925060203d81116103e5576103d68183612bb9565b90386106c4565b346103f15760203660031901126103f157600435600052600760205260206001600160a01b0360056040600020015416604051908152f35b346103f15760203660031901126103f157600435600090338252600460205261076d6107686040842054600052600760205260ff6001604060002001541690565b613992565b808252601060205260ff600260408420015460081c16156107b45761079f6107b1916000526010602052604060002090565b60026000918281558260018201550155565b80f35b606460405162461bcd60e51b815260206004820152601360248201527f6e65737465642e7265712e6e6f746578697374000000000000000000000000006044820152fd5b346103f15760403660031901126103f157610814610353614d1e565b61081d33614e62565b801561083b575b61082d90612ef8565b610016602435600435614af4565b5060046001600160a01b036020816000541660405193848092630536340960e21b82525afa9081156103ec5761082d9260009261087e575b501633149050610824565b61089791925060203d81116103e5576103d68183612bb9565b9038610873565b346103f15760403660031901126103f1576108ba610353614d1e565b6108c333614e62565b80156108e1575b6108d390612ef8565b610016602435600435614b90565b5060046001600160a01b036020816000541660405193848092630536340960e21b82525afa9081156103ec576108d392600092610924575b5016331490506108ca565b61093d91925060203d81116103e5576103d68183612bb9565b9038610919565b60e0810192916000915b6007831061095b57505050565b60019082518152602080910192019201919061094e565b346103f15760203660031901126103f157610500600435610acc610abc6040519261099c84612b65565b60e03685376109c86109b8826000526009602052604060002090565b6001600052602052604060002090565b5484526109f26109e2826000526009602052604060002090565b6002600052602052604060002090565b546020850152610a1f610a0f826000526009602052604060002090565b6003600052602052604060002090565b546040850152610a4c610a3c826000526009602052604060002090565b6004600052602052604060002090565b546060850152610a79610a69826000526009602052604060002090565b6005600052602052604060002090565b546080850152610aa6610a96826000526009602052604060002090565b6006600052602052604060002090565b5460a08501526000526009602052604060002090565b6007600052602052604060002090565b5460c082015260405191829182610944565b346103f15760003660031901126103f15760206001600160a01b0360005416604051908152f35b60409060031901126103f157600435610b1d81610422565b90602435610b2a81610422565b90565b346103f157610b8c610b3e36610b05565b610b46612e51565b610b5f610b51612c0a565b610b59612c22565b3361524e565b91610bac610b76610b6e612c0a565b610b59612c5b565b6001600160a01b03958487169587168614612c94565b85610ba461057082600054166001600160a01b031690565b911614612cdf565b610bb7831515613817565b610bd4826001600160a01b03166000526004602052604060002090565b5415801561107b575b610be690613862565b610c0e610c06826001600160a01b03166000526004602052604060002090565b5415156138ad565b610c526005610c44610c33846001600160a01b03166000526004602052604060002090565b546000526007602052604060002090565b01546001600160a01b031690565b92604094855194610cbb6020967f880cdc31000000000000000000000000000000000000000000000000000000008882015280610ca288602483019190916001600160a01b036020820193169052565b0392610cb6601f1994858101845283612bb9565b615361565b50610ce46105706004610c44610c33886001600160a01b03166000526004602052604060002090565b15610f1057610e6895610d5c91610cb6610d196004610c44610c338a6001600160a01b03166000526004602052604060002090565b8a517f0399c93c00000000000000000000000000000000000000000000000000000000948101949094523360248501529183604481015b03908101845283612bb9565b505b610d7b836001600160a01b03166000526004602052604060002090565b54610d99856001600160a01b03166000526004602052604060002090565b55610df784610dcf610dbe866001600160a01b03166000526004602052604060002090565b546000526005602052604060002090565b906001600160a01b031673ffffffffffffffffffffffffffffffffffffffff19825416179055565b610e46336004610e1d610c33886001600160a01b03166000526004602052604060002090565b01906001600160a01b031673ffffffffffffffffffffffffffffffffffffffff19825416179055565b821603610ef2575b506001600160a01b03166000526004602052604060002090565b54610500610e856005610c44846000526007602052604060002090565b92610ec1610eb46002610ea2866000526007602052604060002090565b01546000526005602052604060002090565b546001600160a01b031690565b90610ecc6001600355565b519283526001600160a01b03938416602084015290921660408201529081906060820190565b6001600160a01b031660009081526004602052604081205538610e4e565b85600496610f296105706000546001600160a01b031690565b89519889809263111ea8c160e21b82525afa9687156103ec57610e6897610f909160009161105e575b50895190610f8282610f768a8783019190916001600160a01b036020820193169052565b03868101845283612bb9565b610f8a6138f8565b9061524e565b838116151580611054575b610fa8575b505050610d5e565b88517f4fb2e45d000000000000000000000000000000000000000000000000000000008382015233602482015261104b93610cb691610ffb90610ff5816044810103848101835282612bb9565b84615361565b507fa3e884b0000000000000000000000000000000000000000000000000000000008b519485015283610d5060248201906007606060808401936000815260006020820152600060408201520152565b50388080610fa0565b5080311515610f9b565b6110759150833d85116103e5576103d68183612bb9565b38610f52565b508084168314610bdd565b346103f15760203660031901126103f15760206110b6600435600052600760205260ff6001604060002001541690565b6040519015158152f35b346103f15760203660031901126103f15760043560005260076020526020600360406000200154604051908152f35b346103f15760203660031901126103f157600435600052600760205260206001600160a01b0360046040600020015416604051908152f35b346103f15760203660031901126103f15760043580600052600760205260406000205460056020526105006001600160a01b03806040600020541693600760205260406000209160046002840154930154166111926005610c44846000526007602052604060002090565b9060036111ca6111b960016111b1876000526007602052604060002090565b015460ff1690565b946000526007602052604060002090565b01549360405197889788939160c09591989796939260e086019986526001600160a01b03938480931660208801526040870152166060850152166080830152151560a08201520152565b346103f15760203660031901126103f1576001600160a01b0360043561123981610422565b1660005260046020526040600020546000526007602052602060ff600160406000200154166040519015158152f35b346103f15761127636610b05565b611281610353614d1e565b61128a33614e62565b80156112be575b9161129e6112a393612ef8565b612f43565b604080519283526001600160a01b0391909116602083015290f35b506001600160a01b039160046020846000541660405192838092630536340960e21b82525afa80156103ec576112a39461129e92600092611308575b503391161491935050611291565b61132191925060203d81116103e5576103d68183612bb9565b90386112fa565b346103f15760003660031901126103f1576020600654604051908152f35b346103f15760203660031901126103f1576001600160a01b0360043561136b81610422565b1660005260046020526020604060002054604051908152f35b346103f15760203660031901126103f15760043560016113ba6113b5826111b1856000526007602052604060002090565b61376b565b6113ce826000526010602052604060002090565b906002908183019260ff8454818160081c16806116b0575b6113ef90613cbd565b60101c166115a6575061141982611410866000526007602052604060002090565b01541515613d53565b6000815b611469575b505060009061145661001694611446611440865460ff9060101c1690565b82613deb565b6000526007602052604060002090565b0155805462ff0000191662010000179055565b60038061149685611484896000526007602052604060002090565b01546000526007602052604060002090565b01548210156115a057856114d06114c684846114c089611484876000526007602052604060002090565b01613630565b90549060031b1c90565b146114e557506114df90613428565b8161141d565b83925094611596866115786114569461155f6115456114c66100169c61151b60009c6114848b6000526007602052604060002090565b0161153f876115388d6114848d6000526007602052604060002090565b0154613140565b90613630565b91846114c08a6114848a6000526007602052604060002090565b90919082549060031b91821b91600019901b1916179055565b61159085611484856000526007602052604060002090565b01613d9e565b9450819250611422565b50611422565b8261162861162261079f9661161889600361161261169f996105d0996115e66100169f9d6115de876000526007602052604060002090565b015415613d08565b019788548091611600866000526007602052604060002090565b01556000526007602052604060002090565b0161364d565b5460101c60ff1690565b85613deb565b610cb661165c610eb461164a6004610c44896000526007602052604060002090565b93546000526005602052604060002090565b6040517f1499c5920000000000000000000000000000000000000000000000000000000060208201526001600160a01b0390911660248201529283906044820190565b506000526010602052604060002090565b508082166113e6565b346103f1576040806003193601126103f157600480356116d7612e51565b6116f36113b560016111b1846000526007602052604060002090565b61171861171161057084610c44856000526007602052604060002090565b3314613931565b6117206131a2565b6117396005610c44836000526007602052604060002090565b6002549084516117ad61179f6020927f02a085f200000000000000000000000000000000000000000000000000000000848201528061178b602497883589840160209093929193604081019481520152565b0394610cb6601f1996878101845283612bb9565b82808251830101910161418c565b9485519386886117c285830197885190612e44565b966117d282840198895190612e44565b6117e26060850191825190612e44565b9186886117f56080880195865190612e44565b9561180660a0890197885190612e44565b9761181f61181a60c083019a8b5190612e44565b614a46565b51611ba4575b8351611ae2575b505050508051611a24575b508051611967575b5080511580159061195d575b61188e575b89896105006101208a6118698d6101008601519061425d565b51920151926118786001600355565b5191825260208201929092529081906040820190565b846118aa61057060009a969799989a546001600160a01b031690565b8b5196878092635e09dbe760e01b82525afa80156103ec5761050098610120988c6119239663a9059cbb60e01b966118699a60009661192e575b50906118fc610d509392610cb6979851905190612e44565b915197889485015233908401602090939291936001600160a01b0360408201951681520152565b509382933880611850565b610cb69650610d509392916119526118fc92873d89116103e5576103d68183612bb9565b9750919293506118e4565b508151151561184b565b848661197e6105706000546001600160a01b031690565b8d51928380927f9dc969a80000000000000000000000000000000000000000000000000000000082525afa9182156103ec576119fc928d6119f093600092611a03575b509151915163a9059cbb60e01b8a820152338882019081526020810193909352929091610cb691849160400190565b038a8101845283612bb9565b503861183f565b610cb69250611a1e908b3d8d116103e5576103d68183612bb9565b916119c1565b85878d611a3c6105706000546001600160a01b031690565b9051928380927faa0ddc160000000000000000000000000000000000000000000000000000000082525afa9182156103ec57611aba928e611aae93600092611ac1575b509151915163a9059cbb60e01b8b820152338982019081526020810193909352929091610cb691849160400190565b038b8101845283612bb9565b5038611837565b610cb69250611adc908c8d3d106103e5576103d68183612bb9565b91611a7f565b611af76105706000546001600160a01b031690565b9051928380927f30125cf50000000000000000000000000000000000000000000000000000000082525afa9182156103ec57611b73928f8b9063a9059cbb60e01b94600093611b7d575b50925192519081019390935233898401908152602081019290925290610cb69083906040015b038c8101845283612bb9565b503886888e61182c565b610cb6935090611b9c611b6792843d86116103e5576103d68183612bb9565b935090611b41565b611bb96105706000546001600160a01b031690565b9051928380927f640274270000000000000000000000000000000000000000000000000000000082525afa80156103ec578e611c2b8f8c938e918d96600092611c31575b5051845163a9059cbb60e01b8782015233818f01908152602081019290925292610cb6918490604001610d50565b50611825565b610cb6919250611c4d90873d89116103e5576103d68183612bb9565b9190611bfd565b346103f15760203660031901126103f1576020600435611c7381610422565b6001600160a01b03809116600052600482526040600020546000526007825260056040600020015416604051908152f35b346103f15760403660031901126103f157611cc0610353614d1e565b611cc933614e62565b8015611ce7575b611cd990612ef8565b610016602435600435613bcb565b5060046001600160a01b036020816000541660405193848092630536340960e21b82525afa9081156103ec57611cd992600092611d2a575b501633149050611cd0565b611d4391925060203d81116103e5576103d68183612bb9565b9038611d1f565b346103f15760403660031901126103f157600435600052600860205260406000206024356000526020526020604060002054604051908152f35b346103f15760203660031901126103f15760043560005260076020526020600260406000200154604051908152f35b346103f15760403660031901126103f15760043560005260076020526020611de46024356003604060002001613630565b90549060031b1c604051908152f35b346103f15760003660031901126103f15760206001600160a01b0360015416604051908152f35b346103f15760403660031901126103f157611e36610353614d1e565b611e3f33614e62565b8015611e5d575b611e4f90612ef8565b610016602435600435614aca565b5060046001600160a01b036020816000541660405193848092630536340960e21b82525afa9081156103ec57611e4f92600092611ea0575b501633149050611e46565b611eb991925060203d81116103e5576103d68183612bb9565b9038611e95565b346103f15760203660031901126103f157600435600052600f6020526020604060002054604051908152f35b346103f15760003660031901126103f157600460206001600160a01b03600054166040519283809263d1f956b160e01b82525afa9081156103ec5761050091611f7c91600091611f8c575b50604051611f4481612b81565b601381527f67657464656c656761746f72436f756e742829000000000000000000000000006020820152611f76612bf7565b916152db565b6040519081529081906020820190565b611fa4915060203d81116103e5576103d68183612bb9565b38611f37565b610100810192916000915b60088310611fc257505050565b600190825181526020809101920192019190611fb5565b346103f15760203660031901126103f1576105006004356120e6610abc611ffe6149c9565b92612025612016826000526008602052604060002090565b60008052602052604060002090565b54845261203f6109b8826000526008602052604060002090565b54602085015261205c6109e2826000526008602052604060002090565b546040850152612079610a0f826000526008602052604060002090565b546060850152612096610a3c826000526008602052604060002090565b5460808501526120b3610a69826000526008602052604060002090565b5460a08501526120d0610a96826000526008602052604060002090565b5460c08501526000526008602052604060002090565b5460e082015260405191829182611faa565b346103f15760203660031901126103f15760206110b660043561211a81610422565b614e62565b346103f15761222d61213036610b05565b90612139612e51565b612182612147610b51612c0a565b612152610b6e612c0a565b9061216b6001600160a01b039182808816911614612c94565b610ba461057082600054166001600160a01b031690565b6121af6121aa60016111b1610c33856001600160a01b03166000526004602052604060002090565b612d2a565b61221e6122146122056121dd6005610c44610c33876001600160a01b03166000526004602052604060002090565b604051906121f7826105d060208201906000602083019252565b6121ff612d75565b9061518d565b60208082518301019101612dae565b5050501515612dd0565b61222661315c565b3390613437565b6122466120166002546000526008602052604060002090565b6122508154612e31565b905561225a614a72565b6122736005610c44836000526007602052604060002090565b9061227d816137b6565b6122876001600355565b604080519182526001600160a01b03929092166020820152f35b346103f15760203660031901126103f1576122bd610353614d1e565b6122c633614e62565b80156122e1575b6122d690612ef8565b6100166004356131e5565b50600460206122fb6105706000546001600160a01b031690565b60405192838092630536340960e21b82525afa80156103ec576122d691600091612333575b506001600160a01b0316331490506122cd565b61234b915060203d81116103e5576103d68183612bb9565b38612320565b346103f15760203660031901126103f15760046001600160a01b036020816000541660405193848092630536340960e21b82525afa9182156103ec576000926123ed575b50339116036123a957610016600435615099565b606460405162461bcd60e51b815260206004820152600f60248201527f6f776e2e6e6f6e617574682e44414f00000000000000000000000000000000006044820152fd5b61240691925060203d81116103e5576103d68183612bb9565b9038612395565b346103f15760203660031901126103f15760043561242a81610422565b803b600061243782612bdb565b926124456040519485612bb9565b82845260208401903c602d81511061246b57602a015160405160609190911c8152602090f35b606460405162461bcd60e51b815260206004820152601360248201527f4e6f742061206d696e696d616c2070726f7879000000000000000000000000006044820152fd5b60403660031901126103f1576004356124c6612e51565b60009080825260076020526124e460ff60016040852001541661376b565b815260076020526125246001600160a01b036005604084200154166040519062a0e53360e51b6020830152602435602483015260248252610cb682612b44565b50600160035580f35b346103f15760403660031901126103f157600435600052600a60205260406000206024356000526020526020604060002054604051908152f35b346103f15760c03660031901126103f15760243560043561258782610422565b6064359060843590612597612e51565b6125b36113b560016111b1846000526007602052604060002090565b6125d26117116105706004610c44856000526007602052604060002090565b6125da6131a2565b6125e3826149ee565b6125ec83614a1a565b61269961268b61267761260e6005610c44866000526007602052604060002090565b966040519182916020977f932ca2d600000000000000000000000000000000000000000000000000000000898501528960a435926044359060248701919260809396959491966001600160a01b0360a08501981684526020840152604083015260608201520152565b0396610cb6601f1998898101845283612bb9565b83808251830101910161397c565b9290806126b7575b50506126ad93506144f5565b6100166001600355565b600490826126d06105706000546001600160a01b031690565b60405193848092635e09dbe760e01b82525afa80156103ec576126ad9761272a9463a9059cbb60e01b94600093612732575b5060405190810194909452336024850152604484019290925290610cb6908360648101610d50565b5038806126a1565b610cb69350612750610d5091833d85116103e5576103d68183612bb9565b9350612702565b346103f1576020806003193601126103f1576004803561277681610422565b6001600160a01b03928084600054166040519485809263d1f956b160e01b82525afa9081156103ec576105009461060a946000936127d2575b5060405193168184015282526127c482612b81565b6127cc615030565b9061529f565b6127ea919350823d84116103e5576103d68183612bb9565b91386127af565b346103f15760003660031901126103f15760206110b6614d1e565b346103f15760203660031901126103f157600435600052600c6020526020604060002054604051908152f35b346103f15760403660031901126103f1576004356024359061288b610768612873336001600160a01b03166000526004602052604060002090565b54600052600760205260ff6001604060002001541690565b6128a76113b560016111b1846000526007602052604060002090565b6128c86128c360016111b1856000526007602052604060002090565b6139dd565b6128e16005610c44846000526007602052604060002090565b60048360405161292761221461291960209380612905868201906000602083019252565b03976121f7601f19998a8101845283612bb9565b838082518301019101612dae565b61293b856000526010602052604060002090565b936129a7600286019661296261295d6129598a5460ff9060081c1690565b1590565b613a28565b6040517f7bb984980000000000000000000000000000000000000000000000000000000085820152602481019190915260448101989098526064828101895288612bb9565b816129bd6105706000546001600160a01b031690565b60405195868092630536340960e21b82525afa9384156103ec5761001697612a3d95612a2a93610d5093600092612a4e575b50610cb691926040519485917fd3a3084900000000000000000000000000000000000000000000000000000000898401523060248401613a96565b9160018501558082518301019101613b3d565b9055805461ff001916610100179055565b610cb69250612a6990873d89116103e5576103d68183612bb9565b916129ef565b346103f15760203660031901126103f157600435600052600e6020526020604060002054604051908152f35b346103f1576040806003193601126103f1576001600160a01b03600435612ac181610422565b16600081815260046020818152848320548352600b815284832054938352908152838220548252600a81528382206024358352815290839020549251918252810191909152604090f35b346103f15760003660031901126103f1576020612b26614f90565b604051908152f35b634e487b7160e01b600052604160045260246000fd5b6060810190811067ffffffffffffffff821117612b6057604052565b612b2e565b60e0810190811067ffffffffffffffff821117612b6057604052565b6040810190811067ffffffffffffffff821117612b6057604052565b6020810190811067ffffffffffffffff821117612b6057604052565b90601f8019910116810190811067ffffffffffffffff821117612b6057604052565b67ffffffffffffffff8111612b6057601f01601f191660200190565b60405190612c0482612b9d565b60008252565b604051612c1681612b9d565b60008152906000368137565b60405190612c2f82612b81565b600782527f6f776e65722829000000000000000000000000000000000000000000000000006020830152565b60405190612c6882612b81565b600c82527f67657448657862617365282900000000000000000000000000000000000000006020830152565b15612c9b57565b606460405162461bcd60e51b815260206004820152601760248201527f6e65737465642e696e76616c69642e696e7374616e63650000000000000000006044820152fd5b15612ce657565b606460405162461bcd60e51b815260206004820152601660248201527f6e65737465642e696e76616c69642e68657862617365000000000000000000006044820152fd5b15612d3157565b606460405162461bcd60e51b815260206004820152601860248201527f6e65737465642e706172656e742e6e6f742e65786973747300000000000000006044820152fd5b60405190612d8282612b81565b601282527f6765744e6f64654c422875696e743235362900000000000000000000000000006020830152565b91908260809103126103f1578151916020810151916060604083015192015190565b15612dd757565b606460405162461bcd60e51b815260206004820152601960248201527f6e65737465642e706172656e742e6e6f2e627573696e657373000000000000006044820152fd5b634e487b7160e01b600052601160045260246000fd5b9060018201809211612e3f57565b612e1b565b91908201809211612e3f57565b600260035414612e62576002600355565b60046040517f3ee5aeb5000000000000000000000000000000000000000000000000000000008152fd5b15612e9357565b606460405162461bcd60e51b815260206004820152601260248201527f6f776e2e696e76616c69642e69735361666500000000000000000000000000006044820152fd5b908160209103126103f15751610b2a81610422565b6040513d6000823e3d90fd5b15612eff57565b606460405162461bcd60e51b815260206004820152601b60248201527f6f776e2e6e6f6e617574682e44414f6f725365637572656261736500000000006044820152fd5b612fef9291612ff5600492612f56612e51565b612f86612f8161295960016111b1610c33886001600160a01b03166000526004602052604060002090565b6133dd565b612f99612f94600654613428565b600655565b600654958691612fb785610dcf856000526005602052604060002090565b82612fd5866001600160a01b03166000526004602052604060002090565b556001600160a01b03166000526004602052604060002090565b54613675565b61302b8261300d866000526007602052604060002090565b0173ffffffffffffffffffffffffffffffffffffffff198154169055565b60206130426105706000546001600160a01b031690565b6040519384809263e09d394d60e01b82525afa80156103ec5761307461308a916130f394600091613122575b5061359a565b6005610e1d876000526007602052604060002090565b6130a36005610c44866000526007602052604060002090565b610cb66130bb6105706000546001600160a01b031690565b6040516352902c5960e01b60208201526001600160a01b039182166024820152931660448401526064830186905282608481016105d0565b508160005260076020526001600160a01b036005604060002001541691613119816137b6565b91906001600355565b61313a915060203d81116103e5576103d68183612bb9565b3861306e565b600019810191908211612e3f57565b91908203918211612e3f57565b613164614f90565b6002541061317c575b61317a600560025461322e565b565b613184614f90565b806002556000198101908111612e3f5761319d90614883565b61316d565b6131aa614f90565b600254106131bf575b61317a6002805461322e565b6131c7614f90565b806002556000198101908111612e3f576131e090614883565b6131b3565b6131ed614f90565b60025410613202575b61317a9060025461322e565b61320a614f90565b90816002556000198201918211612e3f5761322761317a92614883565b90506131f6565b90613246612016836000526008602052604060002090565b5415806133d3575b806133ca575b61325c575050565b6132789061327261326c84613140565b91613140565b9061322e565b61329761201661328783613140565b6000526008602052604060002090565b546132af612016836000526008602052604060002090565b556132bf6109b861328783613140565b546132d76109b8836000526008602052604060002090565b556132e76109e261328783613140565b546132ff6109e2836000526008602052604060002090565b5561330f610a0f61328783613140565b54613327610a0f836000526008602052604060002090565b55613337610a3c61328783613140565b5461334f610a3c836000526008602052604060002090565b5561335f610a6961328783613140565b54613377610a69836000526008602052604060002090565b55613387610a9661328783613140565b5461339f610a96836000526008602052604060002090565b556133c7610abc6133b5610abc61328785613140565b54926000526008602052604060002090565b55565b50801515613254565b506001821161324e565b156133e457565b606460405162461bcd60e51b815260206004820152601560248201527f6e65737465642e616c72656164792e65786973747300000000000000000000006044820152fd5b6000198114612e3f5760010190565b916134cf6004926134ba612fef95613470612f8161295960016111b1610c338a6001600160a01b03166000526004602052604060002090565b61347e612f94600654613428565b60065496879161349c87610dcf856000526005602052604060002090565b82612fd5886001600160a01b03166000526004602052604060002090565b83610e1d866000526007602052604060002090565b60206134e66105706000546001600160a01b031690565b6040519384809263e09d394d60e01b82525afa80156103ec5761351761352d9161359694600091613122575061359a565b6005610e1d866000526007602052604060002090565b6135466005610c44856000526007602052604060002090565b610cb661355e6105706000546001600160a01b031690565b6040516352902c5960e01b60208201526001600160a01b039182166024820152931660448401526064830185905282608481016105d0565b5090565b6e5af43d82803e903d91602b57fd5bf390763d602d80600a3d3981f3363d3d373d3d3d363d7300000062ffffff8260881c161760005260781b17602052603760096000f0906001600160a01b038216156135f057565b60046040517fb06ebf3d000000000000000000000000000000000000000000000000000000008152fd5b634e487b7160e01b600052603260045260246000fd5b80548210156136485760005260206000200190600090565b61361a565b9081549168010000000000000000831015612b60578261155f91600161317a95018155613630565b919091600092808452602091600783526040808620956002948386890155846001988981018a60ff1982541617905555876136ba86600052600a602052604060002090565b83805282528489858520555b6136d557505050505050509050565b613743613732828b8a941461374c575b6136f988600052600a602052604060002090565b818752855286862061370b8154612e31565b905561372188600052600b602052604060002090565b61372b8154612e31565b9055613428565b956000526007602052604060002090565b015493846136c6565b6137668960036116128b6000526007602052604060002090565b6136e5565b1561377257565b606460405162461bcd60e51b815260206004820152601560248201527f6e65737465642e757365722e6e6f7461637469766500000000000000000000006044820152fd5b8060005260076020526137d360ff6001604060002001541661376b565b60005260076020526138146001600160a01b03600560406000200154166040519062a0e53360e51b60208301526001602483015260248252610cb682612b44565b50565b1561381e57565b606460405162461bcd60e51b815260206004820152601360248201527f6e65737465642e7a65726f2e61646472657373000000000000000000000000006044820152fd5b1561386957565b606460405162461bcd60e51b815260206004820152601460248201527f6e65737465642e7461726765742e6578697374730000000000000000000000006044820152fd5b156138b457565b606460405162461bcd60e51b815260206004820152601760248201527f6e65737465642e736f757263652e6e6f744578697374730000000000000000006044820152fd5b6040519061390582612b81565b601382527f55736572546f496e7374286164647265737329000000000000000000000000006020830152565b1561393857565b606460405162461bcd60e51b815260206004820152601b60248201527f6e65737465642e757365722e696e76616c6964696e7374616e636500000000006044820152fd5b91908260409103126103f1576020825192015190565b1561399957565b606460405162461bcd60e51b815260206004820152601560248201527f6e65737465642e696e76616c69642e73656e64657200000000000000000000006044820152fd5b156139e457565b606460405162461bcd60e51b815260206004820152601560248201527f6e65737465642e696e76616c69642e706172656e7400000000000000000000006044820152fd5b15613a2f57565b606460405162461bcd60e51b815260206004820152601760248201527f6e65737465642e7265712e616c726561647965786973740000000000000000006044820152fd5b60005b838110613a865750506000910152565b8181015183820152602001613a76565b92916080906001600160a01b03600a9360a08752602460a08801527f547269676765722e6e65737465642e70726f706f73616c2e6d6f7665646f776e60c08801527f6c696e650000000000000000000000000000000000000000000000000000000060e08801521660208601526000604086015261010080606087015281518091870152613b2e81610120936020858a019101613a73565b601f8019910116850101930152565b908160209103126103f1575190565b60405190613b5982612b81565b601282527f676574526573756c742875696e743235362900000000000000000000000000006020830152565b519081151582036103f157565b91908260c09103126103f157815191602081015191604082015191606081015191610b2a60a0613bc460808501613b85565b9301613b85565b613bfe613c0a91613bee6113b560016111b1846000526007602052604060002090565b6000526010602052604060002090565b916001830154146139dd565b613c1f6105706000546001600160a01b031690565b906040518092630536340960e21b825281600460209586935afa9081156103ec5761317a93613c7a6105d0600294613c8794600091613ca0575b50613c7287546040519384918783019190602083019252565b6121ff613b4c565b8051810182019101613b92565b50959350505050019060ff801983541691151516179055565b613cb79150843d86116103e5576103d68183612bb9565b38613c59565b15613cc457565b606460405162461bcd60e51b815260206004820152601660248201527f6e65737465642e7265712e6e6f74617070726f766564000000000000000000006044820152fd5b15613d0f57565b606460405162461bcd60e51b815260206004820152601860248201527f6e65737465642e757365722e6e6f742e646574616368656400000000000000006044820152fd5b15613d5a57565b606460405162461bcd60e51b815260206004820152601b60248201527f6e65737465642e757365722e616c726564792e646574616368656400000000006044820152fd5b8054908115613dc85760001991820191613db88383613630565b909182549160031b1b1916905555565b634e487b7160e01b600052603160045260246000fd5b8015612e3f576000190190565b613e08613e0282600052600b602052604060002090565b54612e31565b60029081613e20846000526007602052604060002090565b0154906001938492835b613e38575b50505050505050565b600f8085111580614183575b1561417d5785906005613e6861057082610c44876000526007602052604060002090565b613e95575b5050613e86613e8e926000526007602052604060002090565b015493613428565b9285613e2a565b865b82811115613f9f57505050613e86613e8e9289600014613f3c57613edf613ec886600052600a602052604060002090565b613ed189613140565b600052602052604060002090565b54613f12613f0a89613efb85600052600a602052604060002090565b90600052602052604060002090565b918254612e44565b9055613f2881600052600b602052604060002090565b613f33878254612e44565b90555b92613e6d565b613f53613ec886600052600a602052604060002090565b54613f77613f6f89613efb85600052600a602052604060002090565b91825461314f565b9055613f8d81600052600b602052604060002090565b613f9887825461314f565b9055613f36565b81929350613fbc8592610c44886000526007602052604060002090565b613fc6898361314f565b908c60408c614009613ffb835180613fe76020998a83019190602083019252565b03966121f7601f1998898101845283612bb9565b868082518301019101612dae565b50509189821580614175575b614163577f393a9f9500000000000000000000000000000000000000000000000000000000958a958a610cb6966140bb9a968c966140c89e9f61407f61406e610d5099610c446003946000526007602052604060002090565b9c6000526007602052604060002090565b0154905494519b8c988901526024880194919260a0949197969360c0870198875260208701526040860152606085015260808401521515910152565b805181018201910161397c565b908b1561411e575b8082116140eb5750506140e290613428565b90879291613e97565b6140f490613428565b61410d81613efb8c546000526008602052604060002090565b6141178154612e31565b90556140d0565b8181116141305750506140e290613428565b8061414d61415e92613efb8d546000526008602052604060002090565b6141578154613140565b9055613dde565b61411e565b50505050505050506140e29150613428565b508315614015565b50613e2f565b50811515613e44565b9061014080838303126103f15781601f840112156103f1576040519281840184811067ffffffffffffffff821117612b6057604052839181019283116103f157905b8282106141db5750505090565b81518152602091820191016141ce565b604051906141f882612b81565b600f82527f66726565496e74657276616c73282900000000000000000000000000000000006020830152565b6040519061423182612b81565b601682527f6765744c6576656c496e636f6d654f6e52616e6b2829000000000000000000006020830152565b91909160009261427761057085546001600160a01b031690565b9060409081519163cfbffe5360e01b938484526020938481600481855afa9081156103ec5785916142c1918b916144d8575b506142b2612c0a565b906142bb6141eb565b906152db565b95600484518094819382525afa9081156103ec57614309916142fb918a916144bb575b506142ed614224565b6142f5612bf7565b9161518d565b84808251830101910161397c565b9790948180975b600f891115806144b2575b156144a55785878585888d600561434361057082610c448b6000526007602052604060002090565b614376575b505050505050506002614368614370926000526007602052604060002090565b015498613428565b97614310565b8115158061449c575b8015614495575b1561434857946105d061441695630fe4bc4560e11b958a95610cb69560036143d36143c26144249d610c448c6000526007602052604060002090565b996000526007602052604060002090565b01549b60029c8d5493519a8b98890152602488019260c094919796959260e085019885526020850152600060408501526060840152608083015260a08201520152565b89808251830101910161397c565b91908a831015838f8261448a575b5050614481575b80831161444e575050878585888d8b95614348565b61445790613428565b61447081613efb84546000526008602052604060002090565b61447a8154612e31565b9055614439565b95508195614439565b10159050838f614432565b5088614386565b5086151561437f565b5050505050505050509050565b5080151561431b565b6144d29150863d88116103e5576103d68183612bb9565b386142e4565b6144ef9150833d85116103e5576103d68183612bb9565b386142a9565b90929160009061450f61057083546001600160a01b031690565b9060409283519163cfbffe5360e01b938484526020938481600481855afa9081156103ec5785916145499186916144d857506142b2612c0a565b95600488518094819382525afa9081156103ec57614574916142fb9185916144bb57506142ed614224565b98909483975b600f8911158061470c575b156144a557828686848b8d8960056145ae61057082610c448c6000526007602052604060002090565b6145da575b505050505050505060026143686145d4926000526007602052604060002090565b9761457a565b82151580614703575b80156146fa575b156145b35761467a95630fe4bc4560e11b958a95610cb6956146889a9560036146386146276105d098610c448d6000526007602052604060002090565b9a6000526007602052604060002090565b01549c60029d8e5494519b8c998a01526024890193909796959260c0959260e08601998652602086015260408501526060840152608083015260a08201520152565b88808251830101910161397c565b919089831015838f826146ef575b50506146e6575b8083116146b35750508686848b8d8989966145b3565b6146bc90613428565b6146d581613efb84546000526008602052604060002090565b6146df8154612e31565b905561469d565b9650819661469d565b10159050838f614696565b508115156145ea565b508715156145e3565b50801515614585565b6002546000198101908111612e3f5761317a90614883565b1561473457565b606460405162461bcd60e51b815260206004820152601260248201527f6e65737465642e696e76616c69642e61676500000000000000000000000000006044820152fd5b6040519061478582612b81565b601882527f6765744261746368526f79616c7479436c6175736573282900000000000000006020830152565b6102a09081818403126103f15782601f820112156103f15760408051936147d785612b65565b84938301928184116103f157935b8385106147f457505050505090565b6060858303126103f157825160609161480c82612b44565b86518252602091828801518382015285880151868201528152019401936147e5565b9060078110156136485760051b0190565b9081606402916064830403612e3f57565b81810292918115918404141715612e3f57565b811561486d570490565b634e487b7160e01b600052601260045260246000fd5b61488e81151561472d565b6148a36105706000546001600160a01b031690565b90604051809263cfbffe5360e01b825281600460209586935afa9081156103ec576148eb916148dd916000916149ac575b506142ed614778565b8380825183010191016147b1565b6148ff82600052600c602052604060002090565b5460015b6007811115614913575050505050565b8061492f61499892613efb876000526008602052604060002090565b5480156149a65761494861494283613140565b8661482e565b5187815192831561499d5761496f6149749261496761497a968a614850565b94015161483f565b614850565b90614863565b61499282613efb886000526009602052604060002090565b55613428565b614903565b50505050613428565b50613428565b6149c39150853d87116103e5576103d68183612bb9565b386148d4565b6040519061010080830183811067ffffffffffffffff821117612b6057604052368337565b60025480600052600c602052604060002054918201809211612e3f57600052600c602052604060002055565b60025480600052600d602052604060002054918201809211612e3f57600052600d602052604060002055565b60025480600052600e602052604060002054918201809211612e3f57600052600e602052604060002055565b60025480600052600f6020526040600020549060018201809211612e3f57600052600f602052604060002055565b9080600052600c602052604060002054918201809211612e3f57600052600c602052604060002055565b9080600052600e602052604060002054918201809211612e3f57600052600e602052604060002055565b9080600052600f602052604060002054918201809211612e3f57600052600f602052604060002055565b60405190614b2b82612b81565b601482527f676574627573696e6573732875696e74323536290000000000000000000000006020830152565b60405190614b6482612b81565b601d82527f67657472616e6b436f756e742875696e743235362c75696e74323536290000006020830152565b600090614ba761057083546001600160a01b031690565b91604092835192839163111ea8c160e21b835282600460209485935afa9384156103ec578394614ca0575b505b85811115614be457505050505050565b8451828101828152819003808252601f1991614c1591614c079060200182612bb9565b614c0f614b1e565b876152db565b614c2c613f0a84600052600c602052604060002090565b9055835b60088110614c48575050614c4390613428565b614bd4565b865184810184815260208101839052614c9b9291614c8391614c7590829060400103868101835282612bb9565b614c7d614b57565b896152db565b61499282613efb876000526008602052604060002090565b614c30565b614cb8919450823d84116103e5576103d68183612bb9565b9238614bd2565b15614cc657565b606460405162461bcd60e51b815260206004820152601960248201527f6f776e2e7361666567756172642e63616c6c2e6661696c6564000000000000006044820152fd5b908160209103126103f157610b2a90613b85565b6001600160a01b03600054166040518091634bf9c0ad60e11b825281600460209384935afa9182156103ec57610b2a92614da691600091614dc1575b50604051614d6781612b81565b600881527f69735361666528290000000000000000000000000000000000000000000000008482015260405191614d9d83612b9d565b600083526151b8565b919080614db7575b6105fd90614cbf565b5081518114614dae565b614dd89150833d85116103e5576103d68183612bb9565b38614d5a565b60405190614deb82612b81565b601582527f69735365637572654261736528616464726573732900000000000000000000006020830152565b15614e1e57565b606460405162461bcd60e51b815260206004820152601a60248201527f6f776e2e736563757265626173652e63616c6c2e6661696c65640000000000006044820152fd5b6000546001600160a01b0316604051918291634bf9c0ad60e11b835282600460209485935afa9283156103ec57610b2a93614ece926105d092600092614ee9575b50614ec6906040519384918783019190916001600160a01b036020820193169052565b6105e6614dde565b919080614edf575b6105fd90614e17565b5081518114614ed6565b614ec6919250614f0590863d88116103e5576103d68183612bb9565b9190614ea3565b60405190614f1982612b81565b601182527f69735369676e65722861646472657373290000000000000000000000000000006020830152565b15614f4c57565b606460405162461bcd60e51b815260206004820152601660248201527f6f776e2e7369676e65722e63616c6c2e6661696c6564000000000000000000006044820152fd5b600460206001600160a01b03600054166040519283809263111ea8c160e21b82525afa80156103ec57610b2a91600091615012575b50604051614fd281612b81565b600581527f616765282900000000000000000000000000000000000000000000000000000060208201526040519161500983612b9d565b600083526152db565b61502a915060203d81116103e5576103d68183612bb9565b38614fc5565b6040519061503d82612b81565b601882527f697364656c656761746f724e6f646528616464726573732900000000000000006020830152565b3d15615094573d9061507a82612bdb565b916150886040519384612bb9565b82523d6000602084013e565b606090565b6000600460206001600160a01b03835416604051928380927f46f991ac0000000000000000000000000000000000000000000000000000000082525afa9081156103ec57828481938293839161516f575b505af16150f5615069565b501561512b5760405190815233907fcdcc745fe377b103b45fa0cec23ae3ef93d6fc6a84a01f0d18c40b354dd1d5d890602090a2565b606460405162461bcd60e51b815260206004820152600f60248201527f6f776e2e6275726e2e6661696c656400000000000000000000000000000000006044820152fd5b615187915060203d81116103e5576103d68183612bb9565b386150ea565b9061519892916151b8565b90600090156151a5575090565b60405191506151b382612b9d565b815290565b803b15615235576000927fffffffff00000000000000000000000000000000000000000000000000000000836020869551910120169061522260246040518093602082019586526152128151809260208686019101613a73565b8101036004810184520182612bb9565b5191620dbba0fa615231615069565b9091565b50505060009060405161524781612b9d565b6000815290565b929161525c916000946151b8565b9080615294575b61526a5750565b9091506020818051810103126103f15760206001600160a01b0391015161529081610422565b1690565b506020815114615263565b92916152ad916000946151b8565b90806152d0575b6152bb5750565b610b2a91925060208082518301019101614d0a565b5060208151146152b4565b92916152e9916000946151b8565b908061530c575b6152f75750565b610b2a91925060208082518301019101613b3d565b5060208151146152f0565b90602082519201517fffffffff0000000000000000000000000000000000000000000000000000000090818116936004811061535257505050565b60040360031b82901b16169150565b6001600160a01b0381161561541257600080918351908260208601915af190615388615069565b9115615392575090565b80516000919060041161540c576153a99150615317565b8151156153b95750805190602001fd5b6024907fffffffff00000000000000000000000000000000000000000000000000000000604051917f21c09d34000000000000000000000000000000000000000000000000000000008352166004820152fd5b506153a9565b606460405162461bcd60e51b815260206004820152601260248201527f6f776e2e696e76616c69642e74617267657400000000000000000000000000006044820152fdfea2646970667358221220c6c53578eb387f38007f6c4c73abbba87b9080ad5f9b504bcafcbcb4dd4c9d6464736f6c63430008140033","linkReferences":{}},"methodIdentifiers":{"dAOAssembly()":"14837455","daocore()":"14d8d024","nested741()":"45cff900","old741()":"5540c5ac","price()":"a035b1fe"},"id":69}