{"abi":[{"type":"constructor","inputs":[{"name":"_hex","type":"address","internalType":"address"}],"stateMutability":"nonpayable"},{"type":"function","name":"deployNFTCat","inputs":[],"outputs":[],"stateMutability":"nonpayable"},{"type":"function","name":"deployNFTLion","inputs":[],"outputs":[],"stateMutability":"nonpayable"},{"type":"function","name":"deployNFTMachineBull","inputs":[],"outputs":[],"stateMutability":"nonpayable"},{"type":"function","name":"deployNFTMonalisa","inputs":[],"outputs":[],"stateMutability":"nonpayable"},{"type":"function","name":"deployNFTNeonlit","inputs":[],"outputs":[],"stateMutability":"nonpayable"},{"type":"function","name":"hexb","inputs":[],"outputs":[{"name":"","type":"address","internalType":"address"}],"stateMutability":"view"},{"type":"function","name":"nFTCat","inputs":[],"outputs":[{"name":"","type":"address","internalType":"address"}],"stateMutability":"view"},{"type":"function","name":"nFTLion","inputs":[],"outputs":[{"name":"","type":"address","internalType":"address"}],"stateMutability":"view"},{"type":"function","name":"nFTMachineBull","inputs":[],"outputs":[{"name":"","type":"address","internalType":"address"}],"stateMutability":"view"},{"type":"function","name":"nFTMonalisa","inputs":[],"outputs":[{"name":"","type":"address","internalType":"address"}],"stateMutability":"view"},{"type":"function","name":"nFTNeonlit","inputs":[],"outputs":[{"name":"","type":"address","internalType":"address"}],"stateMutability":"view"},{"type":"function","name":"nFTProxy","inputs":[],"outputs":[{"name":"","type":"address","internalType":"address"}],"stateMutability":"view"},{"type":"function","name":"nftFactory","inputs":[],"outputs":[{"name":"","type":"address","internalType":"address"}],"stateMutability":"view"}],"bytecode":{"object":"0x60803461012457601f6171ec38819003918201601f19168301926001600160401b039290918385118386101761010e57816020928492604097885283398101031261012457516001600160a01b038082169290918390036101245760018060a01b031992808460025416176002558451916159c292838101938185108386111761010e5761182a823980600094039084f0801561010457841685845416178355855191610fa880840192848410908411176100f0579183916020936108828439815203019082f09081156100e557501690600154161760015551610758908161012a8239f35b8451903d90823e3d90fd5b634e487b7160e01b85526041600452602485fd5b86513d85823e3d90fd5b634e487b7160e01b600052604160045260246000fd5b600080fdfe608060408181526004908136101561001657600080fd5b600092833560e01c9081631697db05146105d7575080631a1575a5146105ae5780631f281210146104f9578063209d197a146104d05780632e417d8e1461041b5780635f3ed2831461036657806361358ffe14610283578063a0f0e54f1461025a578063a4ac704e14610231578063bc9df3d714610208578063d63843cd146101e0578063de04dae4146101b35763ed4fe597146100b357600080fd5b346101af57826003193601126101af5782546002548251638cfa829d60e01b81526001600160a01b03949092851691851690869081858281875afa9485156101a55791610122959391602095938295610181575b50875163165fd13f60e01b81529687958694859384016106e7565b03925af19182156101785750839161014a575b501660018060a01b0319600654161760065580f35b61016b915060203d8111610171575b61016381836105fc565b8101906106c8565b38610135565b503d610159565b513d85823e3d90fd5b61019e9195503d8084833e61019681836105fc565b810190610658565b9338610107565b86513d84823e3d90fd5b8280fd5b8382346101dc57816003193601126101dc5760055490516001600160a01b039091168152602090f35b5080fd5b8382346101dc57816003193601126101dc57905490516001600160a01b039091168152602090f35b8382346101dc57816003193601126101dc5760025490516001600160a01b039091168152602090f35b8382346101dc57816003193601126101dc5760015490516001600160a01b039091168152602090f35b8382346101dc57816003193601126101dc5760065490516001600160a01b039091168152602090f35b50346101af57826003193601126101af578254600254825163062d856360e11b81526001600160a01b039392909190841690841686838781855afa92831561035c57916102f193916020938993610340575b5088865180968195829463165fd13f60e01b84528c84016106e7565b03925af191821561033757508491610319575b5082546001600160a01b031916911617905580f35b610331915060203d81116101715761016381836105fc565b38610304565b513d86823e3d90fd5b6103559193503d808b833e61019681836105fc565b91386102d5565b84513d89823e3d90fd5b50346101af57826003193601126101af5782546002548251631a24f64f60e31b81526001600160a01b03949092851691851690869081858281875afa9485156101a557916103d59593916020959382956101815750875163165fd13f60e01b81529687958694859384016106e7565b03925af1918215610178575083916103fd575b501660018060a01b0319600554161760055580f35b610415915060203d81116101715761016381836105fc565b386103e8565b50346101af57826003193601126101af5782546002548251634c54bc5560e01b81526001600160a01b03949092851691851690869081858281875afa9485156101a5579161048a9593916020959382956101815750875163165fd13f60e01b81529687958694859384016106e7565b03925af1918215610178575083916104b2575b501660018060a01b0319600754161760075580f35b6104ca915060203d81116101715761016381836105fc565b3861049d565b8382346101dc57816003193601126101dc5760075490516001600160a01b039091168152602090f35b50346101af57826003193601126101af578254600254825163f0ea449760e01b81526001600160a01b03949092851691851690869081858281875afa9485156101a557916105689593916020959382956101815750875163165fd13f60e01b81529687958694859384016106e7565b03925af191821561017857508391610590575b501660018060a01b0319600354161760035580f35b6105a8915060203d81116101715761016381836105fc565b3861057b565b8382346101dc57816003193601126101dc5760035490516001600160a01b039091168152602090f35b849084346101af57826003193601126101af57546001600160a01b0316815260209150f35b601f909101601f19168101906001600160401b0382119082101761061f57604052565b634e487b7160e01b600052604160045260246000fd5b60005b8381106106485750506000910152565b8181015183820152602001610638565b6020818303126106c35780516001600160401b03918282116106c357019082601f830112156106c357815190811161061f57604051926106a2601f8301601f1916602001856105fc565b818452602082840101116106c3576106c09160208085019101610635565b90565b600080fd5b908160209103126106c357516001600160a01b03811681036106c35790565b909160609260018060a01b03168252604060208301526107168151809281604086015260208686019101610635565b601f01601f191601019056fea26469706673582212207119dd298886d16a56903d93f110f939a1655f86a679122c493c0412820de89764736f6c634300081400336080346100c557601f610fa838819003918201601f19168301916001600160401b038311848410176100ca578084926020946040528339810103126100c557516001600160a01b038116908190036100c55780156100805760018060a01b0319338160015416176001556000541617600055604051610ec790816100e18239f35b60405162461bcd60e51b815260206004820152601360248201527f6f776e2e696e76616c69642e68657862617365000000000000000000000000006044820152606490fd5b600080fd5b634e487b7160e01b600052604160045260246000fdfe60806040526004361015610018575b361561001657005b005b60003560e01c806312065fe0146100d85780631f185d16146100d35780633b9b7955146100ce5780638da5cb5b146100c95780639e6c4bd1146100c4578063a1f7f539146100bf578063af484526146100ba578063b90306ad146100b5578063c54e44b0146100b0578063e01ad5fd146100ab578063e0a9bc2b146100a65763fdc10bc90361000e57610791565b6106ef565b610650565b6105b4565b610501565b61043e565b610387565b610315565b61025d565b610234565b61010a565b346100f45760003660031901126100f457602047604051908152f35b600080fd5b6001600160a01b038116036100f457565b346100f4576020806003193601126100f45760049081359061012b826100f9565b600054819061014a906001600160a01b03165b6001600160a01b031690565b604051634bf9c0ad60e11b815294859182905afa91821561021c5761018f6101c9936101ab926101db966000926101e9575b5061019d90604051938491878301610221565b03601f1981018452836102d7565b6101a5610c3f565b90610db6565b9190806101df575b6101bc90610c6c565b8082518301019101610bad565b60405191829182901515815260200190565b0390f35b50815181146101b3565b61019d91925061020e90863d8811610215575b61020681836102d7565b810190610b1d565b919061017c565b503d6101fc565b610b35565b6001600160a01b03909116815260200190565b346100f45760003660031901126100f4576000546040516001600160a01b039091168152602090f35b346100f45760003660031901126100f4576001546040516001600160a01b039091168152602090f35b634e487b7160e01b600052604160045260246000fd5b604081019081106001600160401b038211176102b757604052565b610286565b602081019081106001600160401b038211176102b757604052565b601f909101601f19168101906001600160401b038211908210176102b757604052565b6001600160401b0381116102b757601f01601f191660200190565b346100f45760203660031901126100f4576004356001600160401b0381116100f457366023820112156100f4578060040135610350816102fa565b9061035e60405192836102d7565b80825236602482850101116100f457602081600092602461001696018386013783010152610824565b346100f45760003660031901126100f45760005460405163d1f956b160e01b815290602090829060049082906001600160a01b03165afa90811561021c576101db9161041091600091610420575b506040516103e28161029c565b601381527267657464656c656761746f72436f756e74282960681b602082015261040a6108c9565b91610e53565b6040519081529081906020820190565b610438915060203d81116102155761020681836102d7565b386103d5565b346100f4576020806003193601126100f45760049081359061045f826100f9565b6000548190610476906001600160a01b031661013e565b604051634bf9c0ad60e11b815294859182905afa91821561021c5761018f6101c9936104c3926101db966000926104de575b506104bb90604051938491878301610221565b6101a5610bc5565b9190806104d4575b6101bc90610bf6565b50815181146104cb565b6104bb9192506104fa90863d88116102155761020681836102d7565b91906104a8565b346100f45760203660031901126100f457600054604051630536340960e21b8152906001600160a01b03906020908390600490829085165afa91821561021c57600092610594575b503391160361055d57610016600435610ce5565b60405162461bcd60e51b815260206004820152600f60248201526e6f776e2e6e6f6e617574682e44414f60881b6044820152606490fd5b6105ad91925060203d81116102155761020681836102d7565b9038610549565b346100f45760203660031901126100f4576004356105d1816100f9565b803b60006105de826102fa565b926105ec60405194856102d7565b82845260208401903c602d81511061061557602a6101db91015160601c60405191829182610221565b60405162461bcd60e51b81526020600482015260136024820152724e6f742061206d696e696d616c2070726f787960681b6044820152606490fd5b346100f4576020806003193601126100f4576004803561066f816100f9565b60005460405163d1f956b160e01b81526001600160a01b03949093909182918591829088165afa90811561021c576101db946101c9946000936106d0575b5060405193168184015282526106c28261029c565b6106ca610cb1565b90610e17565b6106e8919350823d84116102155761020681836102d7565b91386106ad565b346100f45760003660031901126100f457600054604051634bf9c0ad60e11b8152906020908190839060049082906001600160a01b03165afa90811561021c576107596101c9926101db94600091610774575b5061074b610b41565b6107536108c9565b91610db6565b91908061076a575b6101bc90610b65565b5081518114610761565b61078b9150833d85116102155761020681836102d7565b38610742565b346100f45760003660031901126100f45760005460405163111ea8c160e21b815290602090829060049082906001600160a01b03165afa90811561021c576101db9161041091600091610806575b506040516107ec8161029c565b6005815264616765282960d81b602082015261040a6108c9565b61081e915060203d81116102155761020681836102d7565b386107df565b805161082d5750565b610836906109d9565b565b8051601410156108485760340190565b634e487b7160e01b600052603260045260246000fd5b8051601510156108485760350190565b8051601610156108485760360190565b8051601710156108485760370190565b908151811015610848570160200190565b634e487b7160e01b600052601160045260246000fd5b6017198101919082116108c457565b61089f565b604051906108d6826102bc565b60008252565b906108e6826102fa565b6108f360405191826102d7565b8281528092610904601f19916102fa565b0190602036910137565b60001981146108c45760010190565b90601882018092116108c457565b6001600160e01b0319909116815281519160005b8381106109555750509060049101016000815290565b806020809284010151600482860101520161093f565b3d15610996573d9061097c826102fa565b9161098a60405193846102d7565b82523d6000602084013e565b606090565b156109a257565b60405162461bcd60e51b815260206004820152600f60248201526e18d85b1b189858dac819985a5b1959608a1b6044820152606490fd5b90815115610b1957602082015160601c91610a24610a17610a0a6109fc84610838565b516001600160f81b03191690565b6001600160f81b03191690565b6001600160e01b03191690565b610a44610a36610a0a6109fc8561085e565b60081c62ffffff60e01b1690565b17610a64610a57610a0a6109fc8561086e565b60101c61ffff60e01b1690565b17610a83610a77610a0a6109fc8561087e565b60181c60ff60e01b1690565b1791610a97610a9283516108b5565b6108dc565b9360005b8551811015610ad55780610abd6109fc610ab7610ad09461091d565b8761088e565b60001a610aca828961088e565b5361090e565b610a9b565b50600092506108369383610af9610b0782959860405192839160208301968761092b565b03601f1981018352826102d7565b51925af1610b1361096b565b5061099b565b9050565b908160209103126100f45751610b32816100f9565b90565b6040513d6000823e3d90fd5b60405190610b4e8261029c565b6008825267697353616665282960c01b6020830152565b15610b6c57565b60405162461bcd60e51b81526020600482015260196024820152781bdddb8b9cd8599959dd585c990b98d85b1b0b99985a5b1959603a1b6044820152606490fd5b908160209103126100f4575180151581036100f45790565b60405190610bd28261029c565b601582527469735365637572654261736528616464726573732960581b6020830152565b15610bfd57565b60405162461bcd60e51b815260206004820152601a6024820152791bdddb8b9cd958dd5c9958985cd94b98d85b1b0b99985a5b195960321b6044820152606490fd5b60405190610c4c8261029c565b601182527069735369676e657228616464726573732960781b6020830152565b15610c7357565b60405162461bcd60e51b81526020600482015260166024820152751bdddb8b9cda59db995c8b98d85b1b0b99985a5b195960521b6044820152606490fd5b60405190610cbe8261029c565b6018825277697364656c656761746f724e6f646528616464726573732960401b6020830152565b600080546040516311be646b60e21b815290602090829060049082906001600160a01b03165afa90811561021c578284819382938391610d98575b505af1610d2b61096b565b5015610d615760405190815233907fcdcc745fe377b103b45fa0cec23ae3ef93d6fc6a84a01f0d18c40b354dd1d5d890602090a2565b60405162461bcd60e51b815260206004820152600f60248201526e1bdddb8b989d5c9b8b99985a5b1959608a1b6044820152606490fd5b610db0915060203d81116102155761020681836102d7565b38610d20565b803b15610dfe5781516020928301206040516000948594820192610deb918391610af991906001600160e01b0319168661092b565b5191620dbba0fa610dfa61096b565b9091565b505050600090604051610e10816102bc565b6000815290565b9291610e2591600094610db6565b9080610e48575b610e335750565b610b3291925060208082518301019101610bad565b506020815114610e2c565b9291610e6191600094610db6565b9080610e86575b610e6f5750565b9091506020818051810103126100f4576020015190565b506020815114610e6856fea26469706673582212200a0b3cfd4f5967c65f3a39041a89b46dfc521f484fe9994d4f432da5fe3c0eae64736f6c6343000814003360808060405234610016576159a6908161001c8239f35b600080fdfe60808060405260043610156200001457600080fd5b60003560e01c9081630c5b0ac61462000bfc57508063145d523f1462000a37578063165fd13f14620007bb5780634c54bc5514620005f65780638cfa829d1462000448578063d127b27814620002c65763f0ea4497146200007457600080fd5b34620002c1576000366003190112620002c15760405161034081016001600160401b03811182821017620002ab57604052601980825260005b610320811062000299575060005b8181106200020057620001a883620001e6604051620000da8162000db4565b60048152620001d7602093632634b7b760e11b85840152604051620000ff8162000d98565b604481527f68747470733a2f2f6f7a6f6e6531336164633764613864323537636163643631868201527f3163306432386539383661663235376232323931302e6f7a6f6e6573746f72656040820152632e696f2f60e01b6060820152604051936200016a8562000d98565b8452858401908152604084019164174876e800835260608501908152620001bf6040519889968980890152516080604089015260c088019062000d71565b925192603f19938488830301606089015262000d71565b9251608086015251908483030160a085015262000e5d565b03601f19810184528362000dd0565b620001fc60405192828493845283019062000d71565b0390f35b600181019081811162000283576200021c6200027d9262000f65565b6200025d6040519182602091654c696f6e5f5f60d01b838301526200024c81518092602695868601910162000d4c565b810103600681018452018262000dd0565b62000269828662000ecd565b5262000276818562000ecd565b5062000ebd565b620000bb565b634e487b7160e01b600052601160045260246000fd5b806060602080938601015201620000ad565b634e487b7160e01b600052604160045260246000fd5b600080fd5b34620002c1576000366003190112620002c1576040516101e081016001600160401b03811182821017620002ab57604052600e80825260005b6101c0811062000436575060005b818110620003cc57620001fc620003b7846040516200032c8162000db4565b600c81526b135858da1a5b9948109d5b1b60a21b602082015260405190620003548262000d98565b604482527f68747470733a2f2f6f7a6f6e653561346630623564623737626637336239353460208301527f6461363430336162326433313138633463616436632e6f7a6f6e6573746f72656040830152632e696f2f60e01b606083015262000ef8565b60405191829160208352602083019062000d71565b60018101908181116200028357620003e8620004309262000f65565b6200025d60405191826020916d4d616368696e652042756c6c5f5f60901b838301526200042081518092602e95868601910162000d4c565b8101038681018452018262000dd0565b6200030d565b806060602080938601015201620002ff565b34620002c1576000366003190112620002c15760405161020081016001600160401b03811182821017620002ab57604052600f80825260005b6101e08110620005e4575060005b8181106200057957620001a883620001e6604051620004ae8162000db4565b60038152620001d76020936210d85d60ea1b85840152604051620004d28162000d98565b604481527f68747470733a2f2f6f7a6f6e6563383433313931313037663531656665363762868201527f3736636637333932366563353831353232343461332e6f7a6f6e6573746f72656040820152632e696f2f60e01b6060820152604051936200053d8562000d98565b84528584019081526040840191620493e0835260608501908152620001bf6040519889968980890152516080604089015260c088019062000d71565b6001810190818111620002835762000595620005de9262000f65565b6200025d60405191826020916d02a34329029ba3cb6329021b0ba160951b83830152620005cd81518092602e95868601910162000d4c565b810103600e81018452018262000dd0565b6200048f565b80606060208093860101520162000481565b34620002c1576000366003190112620002c15760405160a081016001600160401b03811182821017620002ab576040526004815260005b60808110620007a9575060005b600481106200072a57620001a882620001e66040516200065a8162000db4565b60088152620001d7602093674d6f6e616c69736160c01b85840152604051620006838162000d98565b604481527f68747470733a2f2f6f7a6f6e6533643262323938313134653364633732616436868201527f3636386366616635383931373433656562343237352e6f7a6f6e6573746f72656040820152632e696f2f60e01b606082015260405193620006ee8562000d98565b84528584019081526040840191620186a0835260608501908152620001bf6040519889968980890152516080604089015260c088019062000d71565b6001810190818111620002835762000746620007a39262000f65565b6200078a604051918260209168026b7b730b634b9b0960bd1b838301526200077981518092602995868601910162000d4c565b810103600981018452018262000dd0565b62000796828562000ecd565b5262000276818462000ecd565b6200063a565b8060606020809385010152016200062d565b34620002c1576040366003190112620002c1576004356001600160a01b03811690819003620002c157602435906001600160401b038211620002c15736602383011215620002c15760048201356001600160401b038111620002c157820191366024840111620002c157602081840312620002c1576024810135906001600160401b038211620002c1570191608083820312620002c15760405191620008618362000d98565b60248401356001600160401b038111620002c157620008899060248085019187010162000e10565b835260448401356001600160401b038111620002c157620008b39060248085019187010162000e10565b60208401908152606485013560408501908152949093906084810135906001600160401b038211620002c157602485016043838301011215620002c15780820160240135946001600160401b038611620002ab578560051b91604051966200091f602085018962000dd0565b8752602087019060248301604485878401010111620002c157604485820101915b60448587840101018310620009fd575050505050606082018490525051925193516040519461493680870194919290916001600160401b03861188871017620002ab57620009b9608094620009aa8a99620009cd966200103b8c3960a08a5260a08a019062000d71565b9088820360208a015262000d71565b916040870152858203606087015262000e5d565b92015203906000f08015620009f1576040516001600160a01b039091168152602090f35b6040513d6000823e3d90fd5b6001600160401b03833511620002c15760208060449262000a29602488018588358c8901010162000e10565b815201930192905062000940565b34620002c1576000366003190112620002c15760405161024081016001600160401b03811182821017620002ab57604052601180825260005b610220811062000bea575060005b81811062000b7057620001a883620001e660405162000a9d8162000db4565b60068152620001d760209365223930b3b7b760d11b8584015260405162000ac48162000d98565b604481527f68747470733a2f2f6f7a6f6e6536306436366338373231663436653434653735868201527f3662366130383461663936643830336632623936362e6f7a6f6e6573746f72656040820152632e696f2f60e01b60608201526040519362000b2f8562000d98565b8452858401908152604084019167016345785d8a0000835260608501908152620001bf6040519889968980890152516080604089015260c088019062000d71565b6001810180821162000bd5579062000b8c62000bcf9262000f65565b6200025d604051918260209167447261676f6e5f5f60c01b8383015262000bbe81518092602895868601910162000d4c565b810103600881018452018262000dd0565b62000a7e565b82634e487b7160e01b60005260045260246000fd5b80606060208093860101520162000a70565b34620002c1576000366003190112620002c15761032081016001600160401b03811182821017620002ab57604052601880825260005b610300811062000d3a575060005b81811062000ce557620001fc620003b78460405162000c5f8162000db4565b600781526613995bdb9b1a5d60ca1b60208201526040519062000c828262000d98565b604482527f68747470733a2f2f6f7a6f6e653962373834363336616238633665343162636360208301527f6464643336646136356234663461626334323736652e6f7a6f6e6573746f72656040830152632e696f2f60e01b606083015262000ef8565b6001810190818111620002835762000d0162000d349262000f65565b6200025d6040519182602091684e656f6e6c69745f5f60b81b838301526200077981518092602995868601910162000d4c565b62000c40565b80606060208093860101520162000c32565b60005b83811062000d605750506000910152565b818101518382015260200162000d4f565b9060209162000d8c8151809281855285808601910162000d4c565b601f01601f1916010190565b608081019081106001600160401b03821117620002ab57604052565b604081019081106001600160401b03821117620002ab57604052565b601f909101601f19168101906001600160401b03821190821017620002ab57604052565b6001600160401b038111620002ab57601f01601f191660200190565b81601f82011215620002c15780359062000e2a8262000df4565b9262000e3a604051948562000dd0565b82845260208383010111620002c157816000926020809301838601378301015290565b908082519081815260208091019281808460051b8301019501936000915b84831062000e8c5750505050505090565b909192939495848062000eac600193601f198682030187528a5162000d71565b980193019301919493929062000e7b565b6000198114620002835760010190565b805182101562000ee25760209160051b010190565b634e487b7160e01b600052603260045260246000fd5b62000f53620001a89362000f62936040519362000f158562000d98565b845260208401908152604084019162030d40835260608501908152620001bf604051978896602080890152516080604089015260c088019062000d71565b03601f19810183528262000dd0565b90565b80156200101a57600081805b62001003575062000f828162000df4565b9162000f92604051938462000dd0565b81835280601f1962000fa48462000df4565b01926020933685870137905b62000fbb5750505090565b80156200028357600019018091600a91603083830681018091116200028357865182101562000ee25760f81b6001600160f81b03191660001a90860185015304908162000fb0565b9062001011600a9162000ebd565b91048062000f71565b50604051620010298162000db4565b60018152600360fc1b60208201529056fe6080604052346200068a5762004936803803806200001d81620006b8565b92833981019060a0818303126200068a5780516001600160401b0391908281116200068a578362000050918301620006de565b926020808301518481116200068a57826200006d918501620006de565b93604084015160608501518281116200068a57850194601f908582880112156200068a57865195848711620006745760059787891b8780620000b1818401620006b8565b809b81520191830101928084116200068a57888301915b8483106200068f575050505050608001519460018060a01b0386168096036200068a57875184811162000674576002546001998a82811c9216801562000669575b8883101462000653578185849311620005fe575b508790858311600114620005945760009262000588575b5050600019600383901b1c191690891b176002555b8515620005435760018060a01b03199260049633858954161788556003948554161784558860065589518581116200052e576009548a81811c9116801562000523575b888210146200050e57848111620004c4575b5086848211600114620004565781908b9c60009c9b9c926200044a575b505060001982871b1c191690891b176009559697965b6010556000985b620001ee575b6040516141e59081620007518239f35b8051891015620004445760088054898101908181116200042f576801000000000000000092838210156200041a5782815582821015620004055760005287600020015581518a1015620003f057858a891b83010151906007805491821015620003c6578a8201808255821015620003db57600052866000200190805190868211620003c65782548b81811c91168015620003bb575b89821014620003a6578581116200035d575b508790858311600114620002f6576000919083620002ea575b505060001982871b1c1916908a1b1790555b6000198914620002d5579787019787620001d8565b601186634e487b7160e01b6000525260246000fd5b015190503880620002ae565b90601f1983169184600052896000209260005b81811062000347575090848e95949392106200032e575b505050811b019055620002c0565b015160001983891b60f8161c1916905538808062000320565b828401518555938e0193928b01928b0162000309565b8360005288600020868085018d1c8201928b86106200039c575b018c1c01908c905b8281106200038f57505062000295565b60008155018c906200037f565b9250819262000377565b60228a634e487b7160e01b6000525260246000fd5b90607f169062000283565b604189634e487b7160e01b6000525260246000fd5b603289634e487b7160e01b6000525260246000fd5b603287634e487b7160e01b6000525260246000fd5b60328a634e487b7160e01b6000525260246000fd5b60418a634e487b7160e01b6000525260246000fd5b601189634e487b7160e01b6000525260246000fd5b620001de565b015190503880620001bb565b601f1982169b6009600052886000209c60005b818110620004ae5750918c9d91848e9d9e95941062000495575b505050811b01600955979697620001d1565b015160001983891b60f8161c1916905538808062000483565b828401518f559d8d019d928a01928a0162000469565b600960005287600020858084018c1c8201928a851062000504575b018b1c01908b905b828110620004f75750506200019e565b60008155018b90620004e7565b92508192620004df565b602289634e487b7160e01b6000525260246000fd5b90607f16906200018c565b604188634e487b7160e01b6000525260246000fd5b60405162461bcd60e51b815260048101869052601360248201527f6f776e2e696e76616c69642e68657862617365000000000000000000000000006044820152606490fd5b01519050388062000134565b908b9350601f198316916002600052896000209260005b8b828210620005e75750508411620005cd575b505050811b0160025562000149565b015160001960f88460031b161c19169055388080620005be565b8385015186558f97909501949384019301620005ab565b909150600260005287600020858085018c1c8201928a861062000649575b918d9186959493018d1c01915b828110620006395750506200011d565b600081558594508d910162000629565b925081926200061c565b634e487b7160e01b600052602260045260246000fd5b91607f169162000109565b634e487b7160e01b600052604160045260246000fd5b600080fd5b82518981116200068a578a91620006ac84848094890101620006de565b815201920191620000c8565b6040519190601f01601f191682016001600160401b038111838210176200067457604052565b919080601f840112156200068a5782516001600160401b038111620006745760209062000714601f8201601f19168301620006b8565b928184528282870101116200068a5760005b8181106200073c57508260009394955001015290565b85810183015184820184015282016200072656fe60806040526004361015610018575b361561001657005b005b60003560e01c8062fdd58e146102e757806301ffc9a7146102e257806302fe5305146102dd57806306eb36db146102d857806306fdde03146102d35780630dccc9ad146102ce5780630e89341c146102c957806312065fe0146102c457806318dcfd71146102bf5780631f185d16146102ba5780632796f7c6146102b55780632defa859146102b05780632eb2c2d6146102ab5780633b9b7955146102a65780634622ab03146102a15780634e1273f41461029c5780635718e17b146102975780635fac2d9d146102925780636c51797b1461028d57806378a89567146102885780637eb1a7381461028357806381fbf0a51461027e5780638da5cb5b14610279578063a1f7f53914610274578063a22cb4651461026f578063abbbf8d71461026a578063af48452614610265578063b505c66d14610260578063b90306ad1461025b578063c3c916d914610256578063c54e44b014610251578063c85700fb1461024c578063d878fe1014610247578063e01ad5fd14610242578063e0a9bc2b1461023d578063e834a83414610238578063e985e9c514610233578063edd38c011461022e578063f242432a14610229578063f356eedb14610224578063f526f68a1461021f578063f9ffedb71461021a578063fac333ac14610215578063fcf56368146102105763fdc10bc90361000e57611aa6565b611a7d565b611a3e565b611a20565b6118fb565b6118dd565b61182a565b6117db565b611783565b611765565b61174a565b6116ab565b61164f565b61157e565b611545565b611527565b611425565b611399565b611368565b6112c9565b611221565b61116a565b611141565b611123565b610fe8565b610fc0565b610fa2565b610f84565b610f44565b610e89565b610df0565b610d70565b610c55565b610bb7565b610b48565b610a55565b610a37565b610a1b565b61088f565b6107fd565b610733565b610564565b6104b3565b61036f565b61031e565b6001600160a01b031690565b6001600160a01b0381160361030957565b600080fd5b610104359061031c826102f8565b565b34610309576040366003190112610309576020610354600435610340816102f8565b602435600052600083526040600020611ad9565b54604051908152f35b6001600160e01b031981160361030957565b3461030957602036600319011261030957602060043561038e8161035d565b63ffffffff60e01b16636cdb3d1360e11b81149081156103cc575b81156103bb575b506040519015158152f35b6301ffc9a760e01b149050386103b0565b6303a24d0760e21b811491506103a9565b634e487b7160e01b600052604160045260246000fd5b604081019081106001600160401b0382111761040e57604052565b6103dd565b602081019081106001600160401b0382111761040e57604052565b601f909101601f19168101906001600160401b0382119082101761040e57604052565b6001600160401b03811161040e57601f01601f191660200190565b81601f820112156103095780359061048382610451565b92610491604051948561042e565b8284526020838301011161030957816000926020809301838601378301015290565b34610309576020366003190112610309576004356001600160401b038111610309576104e390369060040161046c565b600354604051630536340960e21b81526001600160a01b0392916020908290600490829087165afa801561055f576100169361052a9260009261052f575b50163314612302565b6125e4565b61055191925060203d8111610558575b610549818361042e565b8101906122ed565b9038610521565b503d61053f565b61202d565b3461030957600036600319011261030957600461057f613ca6565b60035460405163cfbffe5360e01b81529260209184919082906001600160a01b03165afa801561055f576105bb926000916105db575b50613175565b600f5481039081116105d657604051908152602090f35b0390f35b611b1b565b6105f3915060203d811161055857610549818361042e565b386105b5565b90600182811c92168015610629575b602083101461061357565b634e487b7160e01b600052602260045260246000fd5b91607f1691610608565b9060405191826000825492610647846105f9565b9081845260019485811690816000146106b45750600114610671575b505061031c9250038361042e565b9093915060005260209081600020936000915b81831061069c57505061031c93508201013880610663565b85548884018501529485019487945091830191610684565b91505061031c94506020925060ff191682840152151560051b8201013880610663565b60005b8381106106ea5750506000910152565b81810151838201526020016106da565b90602091610713815180928185528580860191016106d7565b601f01601f1916010190565b9060206107309281815201906106fa565b90565b34610309576000806003193601126107fa5760405181600954610755816105f9565b808452906001908181169081156107d2575060011461078b575b6105d28461077f8188038261042e565b6040519182918261071f565b60098352602094506000805160206141908339815191525b8284106107bf57505050816105d29361077f928201019361076f565b80548585018701529285019281016107a3565b6105d2965061077f9450602092508593915060ff191682840152151560051b8201019361076f565b80fd5b34610309576000806003193601126107fa576040518160025461081f816105f9565b808452906001908181169081156107d25750600114610848576105d28461077f8188038261042e565b60028352602094506000805160206141308339815191525b82841061087c57505050816105d29361077f928201019361076f565b8054858501870152928501928101610860565b346103095760203660031901126103095760006004358072184f03e93ff9f4daa797ed6e38ed64bf6a1f0160401b80821015610a0d575b506904ee2d6d415b85acef8160201b808310156109fe575b50662386f26fc10000808310156109ef575b506305f5e100808310156109e0575b50612710808310156109d1575b5060648210156109c1575b600a809210156109b7575b6001908160216109338287016123cb565b95860101905b610981575b6040516105d29061077f816109736109628a61095c60208501612340565b906123b4565b64173539b7b760d91b815260050190565b03601f19810183528261042e565b600019019083906f181899199a1a9b1b9c1cb0b131b232b360811b8282061a8353049182156109b257919082610939565b61093e565b9160010191610922565b9190606460029104910191610917565b6004919392049101913861090c565b600891939204910191386108ff565b601091939204910191386108f0565b602091939204910191386108de565b6040935081049150386108c6565b3461030957600036600319011261030957602047604051908152f35b34610309576000366003190112610309576020601254604051908152f35b346103095760208060031936011261030957600490813590610a76826102f8565b80610a8a610a856003546102ec565b6102ec565b604051634bf9c0ad60e11b815294859182905afa91821561055f57610acf610b0993610aeb926105d296600092610b25575b50610add90604051938491878301610ba4565b03601f19810184528361042e565b610ae5613c34565b90613e55565b919080610b1b575b610afc90613c61565b808251830101910161348c565b60405190151581529081906020820190565b5081518114610af3565b610add919250610b4190863d881161055857610549818361042e565b9190610abc565b3461030957602036600319011261030957600354604051630536340960e21b8152906001600160a01b03906020908390600490829085165afa90811561055f57610b9c9260009261052f5750163314612302565b600435601155005b6001600160a01b03909116815260200190565b3461030957600036600319011261030957600a546040516001600160a01b039091168152602090f35b6001600160401b03811161040e5760051b60200190565b81601f8201121561030957803591610c0e83610be0565b92610c1c604051948561042e565b808452602092838086019260051b820101928311610309578301905b828210610c46575050505090565b81358152908301908301610c38565b346103095760a03660031901126103095760048035610c73816102f8565b602435610c7f816102f8565b6001600160401b039060443582811161030957610c9f9036908601610bf7565b9060643583811161030957610cb79036908701610bf7565b9260843590811161030957610ccf903690870161046c565b936001600160a01b03808216903382141580610d4e575b610d2f57831615610d175715610d00576100169550611c82565b604051626a0d4560e21b8152600081880152602490fd5b604051632bfa23e760e11b8152600081890152602490fd5b60405163711bec9160e11b815280610d4a8533838d01611c06565b0390fd5b5081600052600160205260ff610d68336040600020611ad9565b541615610ce6565b34610309576000366003190112610309576003546040516001600160a01b039091168152602090f35b634e487b7160e01b600052603260045260246000fd5b600754811015610dca57600760005260206000200190600090565b610d99565b60085415610dca576008600090815260008051602061417083398151915291565b34610309576020366003190112610309576004356007548110156103095760076000526105d290610e309060008051602061415083398151915201610633565b6040519182916020835260208301906106fa565b90815180825260208080930193019160005b828110610e64575050505090565b835185529381019392810192600101610e56565b906020610730928181520190610e44565b34610309576040366003190112610309576004356001600160401b038082116103095736602383011215610309578160040135610ec581610be0565b92610ed3604051948561042e565b81845260209160248386019160051b8301019136831161030957602401905b828210610f2b5785602435868111610309576105d291610f19610f1f923690600401610bf7565b90611b61565b60405191829182610e78565b8380918335610f39816102f8565b815201910190610ef2565b3461030957602036600319011261030957600435600754811015610dca5760076000526105d290610e309060008051602061415083398151915201610633565b34610309576000366003190112610309576020601154604051908152f35b34610309576000366003190112610309576020600c54604051908152f35b34610309576000366003190112610309576020600854604051908152f35b8015150361030957565b346103095760c036600319011261030957600435611005816102f8565b602435611011816102f8565b604435606435906084359261102584610fde565b60a4356001600160401b0381116103095761104490369060040161046c565b936110666001600160a01b0361105d8482161515612902565b87161515612902565b1561111a57600494602061107e610a856003546102ec565b60405163cfbffe5360e01b815297889182905afa95861561055f576110d66110c76110ed986110e8936000916110fc575b506110b861309d565b906110c161345c565b90613e2a565b6020808251830101910161348c565b60ff8019601454169115151617601455565b6134a1565b61001660ff1960145416601455565b611114915060203d811161055857610549818361042e565b386110af565b610016946134a1565b34610309576000366003190112610309576020601054604051908152f35b34610309576000366003190112610309576004546040516001600160a01b039091168152602090f35b346103095760003660031901126103095760035460405163d1f956b160e01b815290602090829060049082906001600160a01b03165afa90811561055f576105d2916111f391600091611203575b506040516111c5816103f3565b601381527267657464656c656761746f72436f756e74282960681b60208201526111ed612039565b91613f53565b6040519081529081906020820190565b61121b915060203d811161055857610549818361042e565b386111b8565b346103095760403660031901126103095760043561123e816102f8565b60243561124a81610fde565b6001600160a01b0382169182156112b157611272903360005260016020526040600020611ad9565b9015159060ff1981541660ff83161790556040519081527f17307eab39ab6107e8899845ad3d59bd9653f200f220920489ca2b5937696c3160203392a3005b60405162ced3e160e81b815260006004820152602490fd5b3461030957602080600319360112610309576001600160401b03600435818111610309573660238201121561030957806004013561130681610be0565b92611314604051948561042e565b818452848401906024809360051b8501019336851161030957838101925b858410611342576100168761241d565b833583811161030957889161135d839288369187010161046c565b815201930192611332565b3461030957602036600319011261030957602061138f60043561138a816102f8565b613b98565b6040519015158152f35b610120366003190112610309576001600160401b03600435818111610309576113c690369060040161046c565b602435828111610309576113de90369060040161046c565b90604435928311610309576113fa61001693369060040161046c565b60843592611407846102f8565b61140f61030e565b9360e4359360c4359360a4359360643592612cf6565b346103095760208060031936011261030957600354604051630536340960e21b81526004803593926001600160a01b0391908216908490849081845afa92831561055f5760049385936114829260009261150f5750163314612302565b6040516311be646b60e21b815292839182905afa91821561055f57600080856114c2958295839584926114f2575b50505af16114bc61204c565b50613dec565b60405190815233907fcdcc745fe377b103b45fa0cec23ae3ef93d6fc6a84a01f0d18c40b354dd1d5d890602090a2005b6115089250803d1061055857610549818361042e565b38806114b0565b610551919250853d871161055857610549818361042e565b34610309576000366003190112610309576020601354604051908152f35b3461030957602036600319011261030957602061156c600435611567816102f8565b61407d565b6040516001600160a01b039091168152f35b60a03660031901126103095760048035611597816102f8565b60206115a7610a856003546102ec565b60405163ab6e844f60e01b815293849182905afa90811561055f57611610611625926105d294600091611631575b50604051906115eb82610acf8660208301610ba4565b33916001600160a01b03916116099190611603612892565b90613ed3565b16146128c4565b60843590606435906044359060243590612943565b60405191829182610ba4565b611649915060203d811161055857610549818361042e565b386115d5565b3461030957602036600319011261030957600354604051630536340960e21b8152906001600160a01b03906020908390600490829085165afa90811561055f576116a39260009261052f5750163314612302565b600435601055005b346103095760208060031936011261030957600480356116ca816102f8565b60035460405163d1f956b160e01b81526001600160a01b03949093909182918591829088165afa90811561055f576105d294610b099460009361172b575b50604051931681840152825261171d826103f3565b611725613d31565b90613f17565b611743919350823d841161055857610549818361042e565b9138611708565b3461030957600036600319011261030957602061138f613a70565b34610309576000366003190112610309576020600f54604051908152f35b3461030957604036600319011261030957602060ff6117cf6004356117a7816102f8565b602435906117b4826102f8565b6001600160a01b031660009081526001855260409020611ad9565b54166040519015158152f35b346103095760203660031901126103095760206117fd600435611567816102f8565b6001600160a01b0381161515908161181a57506040519015158152f35b6118249150613b98565b386103b0565b346103095760a036600319011261030957600435611847816102f8565b602435611853816102f8565b6084356001600160401b0381116103095761187290369060040161046c565b906001600160a01b0383163381141590816118ba575b5061189e57610016926064359160443591611c20565b60405163711bec9160e11b815280610d4a853360048401611c06565b9050600052600160205260ff6118d4336040600020611ad9565b54161538611888565b34610309576000366003190112610309576020600d54604051908152f35b3461030957604036600319011261030957600435611918816102f8565b6024356001600160401b0381116103095761193790369060040161046c565b6001600160a01b039161194d8184161515612902565b611955613a70565b156119e65761196333613b98565b92831561197d575b506119786100169361335b565b6133a5565b925060046020611991610a856003546102ec565b604051630536340960e21b815292839182905afa801561055f5761001694611978926000926119c6575b50163314935061196b565b6119df91925060203d811161055857610549818361042e565b90386119bb565b60405162461bcd60e51b81526020600482015260126024820152716f776e2e696e76616c69642e69735361666560701b6044820152606490fd5b34610309576000366003190112610309576020600e54604051908152f35b34610309576020366003190112610309576004356008548110156103095760086000526000805160206141708339815191520154604051908152602090f35b3461030957600036600319011261030957600b546040516001600160a01b039091168152602090f35b34610309576000366003190112610309576020611ac1613ca6565b604051908152f35b6000526000602052604060002090565b9060018060a01b0316600052602052604060002090565b611b069160005260006020526040600020611ad9565b5490565b908152602081019190915260400190565b634e487b7160e01b600052601160045260246000fd5b60001981146105d65760010190565b805115610dca5760200190565b8051821015610dca5760209160051b010190565b91909180518351808203611bea575050805190611b7d82610be0565b91611b8b604051938461042e565b808352611b9a601f1991610be0565b0190602091368385013760005b8151811015611be25780611bcd611bdd9260051b85808287010151918a01015190611af0565b611bd78287611b4d565b52611b31565b611ba7565b509193505050565b610d4a604051928392635b05999160e01b845260048401611b0a565b6001600160a01b0391821681529116602082015260400190565b92939290916001600160a01b0380841615611c6957821615611c515761031c94611c4991611f8f565b929091611c82565b604051626a0d4560e21b815260006004820152602490fd5b604051632bfa23e760e11b815260006004820152602490fd5b91939290611c936001865114613613565b6001600160a01b038381168015159081611f78575b50611cff575b611cba83878487613837565b8116611cc8575b5050505050565b8451600103611cee57602080611ce4960151920151923361216a565b3880808080611cc1565b611cfa949192336122b6565b611ce4565b600c54600f54809111611d13575b50611cae565b611d26611d2260145460ff1690565b1590565b15611f5c5750611d3a610a856003546102ec565b60405163ab6e844f60e01b8152602091908281600481855afa801561055f57611d22611d8d610acf611dbf93611dc495600091611f3f575b50611d858c6040519384918b8301610ba4565b611603612892565b611d9a878216151561365b565b611dae611da68a611b40565b51151561369e565b611db661309d565b906117256136dc565b613700565b600482611dcf613ca6565b926040519283809263cfbffe5360e01b82525afa90811561055f57611e9793600092611f22575b5050611e19611e058383613175565b611e1081151561373f565b600f5490612a3e565b91611e59611e51611e39611e2b61309d565b611e3361377c565b86613f53565b93611e4261309d565b90611e4b6137a4565b90613f53565b6012546124a5565b811015611f0f575b5060135481611e79611e7289611b40565b51836124a5565b11611ef5575b50508015159081611ee1575b81611ecd575b506137d1565b611eb4611eaf611ea685611b40565b51600f546124a5565b600f55565b611ec7611ec2601354611b31565b601355565b38611d0d565b9050611ed885611b40565b51111538611e91565b9050611eec85611b40565b51151590611e8b565b611efe91612a3e565b611f0786611b40565b523880611e7f565b601255611f1c6000601355565b38611e61565b611f389250803d1061055857610549818361042e565b3880611df6565b611f569150883d8a1161055857610549818361042e565b38611d72565b611eaf611f7391611f6c86611b40565b51906124a5565b611ec7565b9050611f88610a85600b546102ec565b1438611ca8565b9160405192600184526020840152604083019160018352606084015260808301604052565b9081602091031261030957516107308161035d565b909260a0926107309594600180861b03168352600060208401526040830152606082015281608082015201906106fa565b919261073095949160a094600180871b0380921685521660208401526040830152606082015281608082015201906106fa565b6040513d6000823e3d90fd5b6040519061204682610413565b60008252565b3d15612077573d9061205d82610451565b9161206b604051938461042e565b82523d6000602084013e565b606090565b9293919093843b61208e575050505050565b6020916120b1604051948593849363f23a6e6160e01b9889865260048601611fc9565b038160006001600160a01b0388165af16000918161213a575b5061210357826120d861204c565b80519190826120fc57604051632bfa23e760e11b815280610d4a8460048301610ba4565b9050602001fd5b6001600160e01b0319160361211d57503880808080611cc1565b604051632bfa23e760e11b8152908190610d4a9060048301610ba4565b61215c91925060203d8111612163575b612154818361042e565b810190611fb4565b90386120ca565b503d61214a565b939290949194853b61217f575b505050505050565b6121a2602093604051958694859463f23a6e6160e01b998a875260048701611ffa565b038160006001600160a01b0388165af1600091816121e4575b506121c957826120d861204c565b6001600160e01b0319160361211d5750388080808080612177565b6121fd91925060203d811161216357612154818361042e565b90386121bb565b9261223361073095936122419360018060a01b031686526000602087015260a0604087015260a0860190610e44565b908482036060860152610e44565b9160808184039101526106fa565b93906107309593612233916122419460018060a01b03809216885216602087015260a0604087015260a0860190610e44565b9293919093843b612293575050505050565b6020916120b1604051948593849363bc197c8160e01b9889865260048601612204565b939290949194853b6122ca57505050505050565b6121a2602093604051958694859463bc197c8160e01b998a87526004870161224f565b908160209103126103095751610730816102f8565b1561230957565b60405162461bcd60e51b815260206004820152600f60248201526e6f776e2e6e6f6e617574682e44414f60881b6044820152606490fd5b60025460009291612350826105f9565b916001908181169081156123a1575060011461236b57505050565b9091929350600260005260209081600020906000915b85831061239057505050500190565b805485840152918301918101612381565b60ff191683525050811515909102019150565b906123c7602092828151948592016106d7565b0190565b906123d582610451565b6123e2604051918261042e565b82815280926123f3601f1991610451565b0190602036910137565b8115612407570490565b634e487b7160e01b600052601260045260246000fd5b90600460018060a01b036020816003541660405193848092630536340960e21b82525afa90811561055f5761245c9260009261052f5750163314612302565b60005b82518110156124a05760085490600182018092116105d65761248361249b926124b2565b6124966124908286611b4d565b5161278e565b611b31565b61245f565b509050565b919082018092116105d657565b600854600160401b81101561040e576001810180600855811015610dca5760086000526000805160206141708339815191520155565b601f81116124f4575050565b6000906002825260208220906020601f850160051c83019410612532575b601f0160051c01915b82811061252757505050565b81815560010161251b565b9092508290612512565b601f8111612548575050565b6000906009825260208220906020601f850160051c83019410612586575b601f0160051c01915b82811061257b57505050565b81815560010161256f565b9092508290612566565b90601f811161259e57505050565b600091825260208220906020601f850160051c830194106125da575b601f0160051c01915b8281106125cf57505050565b8181556001016125c3565b90925082906125ba565b80519091906001600160401b03811161040e5761260b816126066002546105f9565b6124e8565b602080601f8311600114612647575081929360009261263c575b50508160011b916000199060031b1c191617600255565b015190503880612625565b6002600052601f19831694909190600080516020614130833981519152926000905b8782106126a1575050836001959610612688575b505050811b01600255565b015160001960f88460031b161c1916905538808061267d565b80600185968294968601518155019501930190612669565b80519091906001600160401b03811161040e576126e0816126db6009546105f9565b61253c565b602080601f831160011461271c5750819293600092612711575b50508160011b916000199060031b1c191617600955565b0151905038806126fa565b6009600052601f19831694909190600080516020614190833981519152926000905b87821061277657505083600195961061275d575b505050811b01600955565b015160001960f88460031b161c19169055388080612752565b8060018596829496860151815501950193019061273e565b60075490600160401b82101561040e5760019081830180600755831015610dca576007600052805160008051602061415083398151915290930192906020906001600160401b03831161040e576127ef836127e987546105f9565b87612590565b81601f8411600114612828575092829391839260009461281d575b50501b916000199060031b1c1916179055565b01519250388061280a565b919083601f19811661283f88600052602060002090565b946000905b88838310612878575050501061285f575b505050811b019055565b015160001960f88460031b161c19169055388080612855565b858701518855909601959485019487935090810190612844565b6040519061289f826103f3565b601682527567657455736572546f53746f7228616464726573732960501b6020830152565b156128cb57565b60405162461bcd60e51b815260206004820152600f60248201526e37bbb7173ab730baba341739ba37b960891b6044820152606490fd5b1561290957565b60405162461bcd60e51b815260206004820152601260248201527137bbb7173232b330bab63a1739b2b73232b960711b6044820152606490fd5b9293909161295b6001600160a01b0385161515612902565b612963612cd3565b60105460115490828201908183116105d657106129f0576129e5946129df9361299761299285610973956124a5565b601155565b6129a030612c6b565b976129b26129ad88612a2f565b610daf565b50946129c2610a856003546102ec565b9360405198899763b505c66d60e01b60208a015260248901612b66565b82613fc2565b506107306001600655565b60405162461bcd60e51b81526020600482015260176024820152761bdc98cc4c4d4d4b9cdd5c1c1b1e4b989c995858da1959604a1b6044820152606490fd5b6000198101919082116105d657565b919082039182116105d657565b60025460009291612a5b826105f9565b908181526001928381169081600014612ab55750600114612a7b57505050565b9092935060026000526020928360002092846000945b838610612aa15750505050010190565b805485870183015294019385908201612a91565b91935050602093945060ff191683830152151560051b010190565b9060009291805491612ae1836105f9565b918282526001938481169081600014612b435750600114612b03575b50505050565b90919394506000526020928360002092846000945b838610612b2f575050505001019038808080612afd565b805485870183015294019385908201612b18565b9294505050602093945060ff191683830152151560051b01019038808080612afd565b9490979591969293610120808752600090600954612b83816105f9565b80928a01526001908181169081600014612c435750600114612bf8575b505086979899612bbd8261010099612bcb940360208c0152612a4b565b9089820360408b0152612ad0565b60608801999099526001600160a01b03948516608088015260a087015260c086015260e085015216910152565b6009600090815292506020906000805160206141908339815191525b838510612c2e575050505086016101400189612bbd612ba0565b8054858c016101400152938201938101612c14565b60ff1916610140808c019190915292151560051b8a0190920192508b9150612bbd9050612ba0565b6e5af43d82803e903d91602b57fd5bf390763d602d80600a3d3981f3363d3d373d3d3d363d7300000062ffffff8260881c161760005260781b17602052603760096000f0906001600160a01b03821615612cc157565b60405163b06ebf3d60e01b8152600490fd5b600260065414612ce4576002600655565b604051633ee5aeb560e01b8152600490fd5b612dc59693612d8c612d9192612d87612d96969561052a612dc09a612df49f8d9f9d90612d52612d7192612d28612cd3565b6001600160a01b0390612d4990612d428584161515612e10565b1515612e55565b84161515612e94565b612d6c612d66610a85610a856003546102ec565b15612ed7565b61399f565b612d82612d7d33613b98565b612f1a565b613d65565b6126b9565b6124b2565b61278e565b612da9612da46004546102ec565b612f60565b612db285600c55565b612dbb83600e55565b600d55565b601255565b612dd06004546102ec565b90612de6612ddc610dcf565b90549060031b1c90565b612dee612039565b92612f82565b600a80546001600160a01b0319163317905561031c6001600655565b15612e1757565b60405162461bcd60e51b81526020600482015260166024820152751bdc98cc4c4d4d4b9a195e18985cd94b99985a5b195960521b6044820152606490fd5b15612e5c57565b60405162461bcd60e51b815260206004820152601060248201526f6f7263313135352e7174792e7a65726f60801b6044820152606490fd5b15612e9b57565b60405162461bcd60e51b81526020600482015260146024820152736f7263313135352e6163636f756e742e7a65726f60601b6044820152606490fd5b15612ede57565b60405162461bcd60e51b81526020600482015260146024820152731bdc98cc4c4d4d4b985b1c9958591e4b9a5b9a5d60621b6044820152606490fd5b15612f2157565b60405162461bcd60e51b81526020600482015260176024820152761bdc98cc4c4d4d4b9d5b9cd958dd5c994b99985a5b1959604a1b6044820152606490fd5b600b80546001600160a01b0319166001600160a01b0392909216919091179055565b92916001600160a01b03841691908215611c6957612f9f91611f8f565b91600190612faf82845114613613565b8251845190818103611bea57505081806000905b613050575b508351036130265760006020840151600080516020614110833981519152612ffc6020880151604051918291339583611b0a565b0390a45b81510361301c579060208061031c95930151910151913361207c565b61031c9333612281565b60006040516000805160206140f0833981519152339180613048898983613812565b0390a4613000565b845181101561309857806130929160051b61308b6130838b61307e602080868d010151958d01015194611ac9565b611ad9565b9182546124a5565b9055611b31565b81612fc3565b612fc8565b6040516130a981610413565b60008152906000368137565b604051906130c2826103f3565b600a82526973687574646f776e282960b01b6020830152565b604051906130e8826103f3565b601b82527a6765744e6674506f6f6c2875696e743235362c75696e743235362960281b6020830152565b9190826080910312610309578151916020810151916060604083015192015190565b90670de0b6b3a7640000918281029281840414901517156105d657565b90816064029160648304036105d657565b818102929181159184041417156105d657565b9061318f61318161309d565b6131896130b5565b84613f17565b613353576000600e546040516020906131ed6131df826131bd86868301919060206040840193600181520152565b03926131d1601f199485810183528261042e565b6131d96130db565b89613e2a565b838082518301019101613112565b6131fa84889b959b6124a5565b891061334657670de0b6b3a764000099816132ee575b5050505061325e929161325191613249604051928361323d89888301919060206040840193600281520152565b0390810184528361042e565b6110c16130db565b8051810182019101613112565b959192909386613284575b5050505050905004600c5480821161327f575090565b905090565b6132a4926132996132b3989361329f936124a5565b90612a3e565b6123fd565b90816132be57505050806124a5565b803880808080613269565b6132e8926132e26132dc6132d7936132d7600c54613134565b613162565b91613151565b906123fd565b906124a5565b9161331161325e9796949261329f61330b613251989c968c6124a5565b8d612a3e565b9182613326575050505b959181939438613210565b6133419350906132e26132dc6132d7936132d7600c54613134565b61331b565b5050505050505091505090565b5050600c5490565b1561336257565b60405162461bcd60e51b815260206004820152601b60248201527a6f776e2e6e6f6e617574682e44414f6f725365637572656261736560281b6044820152606490fd5b600b549091906001600160a01b0390811690831681146134575760085415610dca576008600052600080516020614170833981519152546133e69082611af0565b92836133f25750505050565b6134318161343f9561343a94600160ff196014541617601455613413610dcf565b9390546040519461342386610413565b6000865260031b1c91611c20565b612d8281612f60565b613582565b61344e60ff1960145416601455565b38808080612afd565b505050565b60405190613469826103f3565b6014825273616c6c6f77466f7263655472616e73666572282960601b6020830152565b90816020910312610309575161073081610fde565b9493929190816000526000602052826134be876040600020611ad9565b5410613543576001600160a01b03861633141580613510575b6134f4579161031c94959161343a936134ee612039565b93611c20565b60405163711bec9160e11b815280610d4a883360048401611c06565b5061353e611d226135373361307e8a60018060a01b03166000526001602052604060002090565b5460ff1690565b6134d7565b60405162461bcd60e51b81526020600482015260176024820152761bdc98cc4c4d4d4b9d1c985b9cd9995c8b99985a5b1959604a1b6044820152606490fd5b8051156135ec576004602061359b610a856003546102ec565b6040516343af1d9d60e01b815292839182905afa801561055f576135ec92610acf926000926135ef575b50604051639e6c4bd160e01b6020820152926135e7918491906024830161071f565b613fc2565b50565b6135e791925061360c9060203d811161055857610549818361042e565b91906135c5565b1561361a57565b60405162461bcd60e51b81526020600482015260196024820152781bdc98cc4c4d4d4b98985d18da0b9b9bdd0b985b1b1bddd959603a1b6044820152606490fd5b1561366257565b60405162461bcd60e51b81526020600482015260146024820152731bdc98cc4c4d4d4b9cdd1bdc8b9a5b9d985b1a5960621b6044820152606490fd5b156136a557565b60405162461bcd60e51b815260206004820152600f60248201526e6f7263313135352e6c65737351747960881b6044820152606490fd5b604051906136e9826103f3565b600882526769734c6f636b282960c01b6020830152565b1561370757565b60405162461bcd60e51b815260206004820152601060248201526f6f7263313135352e696e61637469766560801b6044820152606490fd5b1561374657565b60405162461bcd60e51b815260206004820152600e60248201526d1bdc98cc4c4d4d4b9b1bd8dad95960921b6044820152606490fd5b60405190613789826103f3565b600c82526b6d61784e465453656e64282960a01b6020830152565b604051906137b1826103f3565b60118252704e465453656e645065724379636c65282960781b6020830152565b156137d857565b60405162461bcd60e51b815260206004820152601260248201527137b93198989a9a973634b6b4ba1737bb32b960711b6044820152606490fd5b909161382961073093604084526040840190610e44565b916020818403910152610e44565b9392918051835190818103611bea57505060005b815181101561391e57600581901b82810160209081015191860101516001600160a01b03929185908985166138ad575b61388e948216613893575b505050611b31565b61384b565b6138a39161307e61308392611ac9565b9055388481613886565b91929390506138bf8961307e84611ac9565b548381106138e7579186918461388e969594036138df8c61307e85611ac9565b55945061387b565b6040516303dee4c560e01b81526001600160a01b038b16600482015260248101919091526044810184905260648101839052608490fd5b50805193949391929160010361396e576020908101519101516040516001600160a01b0393841694909316923392600080516020614110833981519152928291613969919083611b0a565b0390a4565b6040516001600160a01b03938416949093169233926000805160206140f08339815191529282916139699183613812565b6001600160a01b039081169081156139ed57600380546001600160a01b031981168417909155167fe939feee179e631422bcc8f6e6d7d908cb3f8af38f5372f17c77e15aea5c80ee600080a3565b60405162461bcd60e51b81526020600482015260136024820152726f776e2e696e76616c69642e6865786261736560681b6044820152606490fd5b15613a2f57565b60405162461bcd60e51b81526020600482015260196024820152781bdddb8b9cd8599959dd585c990b98d85b1b0b99985a5b1959603a1b6044820152606490fd5b600354604051634bf9c0ad60e11b8152906020908190839060049082906001600160a01b03165afa91821561055f5761073092613ae691600091613b01575b50604051613abc816103f3565b6008815267697353616665282960c01b8482015260405191613add83610413565b60008352613e55565b919080613af7575b610afc90613a28565b5081518114613aee565b613b189150833d851161055857610549818361042e565b38613aaf565b60405190613b2b826103f3565b601582527469735365637572654261736528616464726573732960581b6020830152565b15613b5657565b60405162461bcd60e51b815260206004820152601a6024820152791bdddb8b9cd958dd5c9958985cd94b98d85b1b0b99985a5b195960321b6044820152606490fd5b613ba6610a856003546102ec565b604051918291634bf9c0ad60e11b835282600460209485935afa92831561055f5761073093613bf692610acf92600092613c11575b50613bee90604051938491878301610ba4565b610ae5613b1e565b919080613c07575b610afc90613b4f565b5081518114613bfe565b613bee919250613c2d90863d881161055857610549818361042e565b9190613bdb565b60405190613c41826103f3565b601182527069735369676e657228616464726573732960781b6020830152565b15613c6857565b60405162461bcd60e51b81526020600482015260166024820152751bdddb8b9cda59db995c8b98d85b1b0b99985a5b195960521b6044820152606490fd5b60035460405163111ea8c160e21b815290602090829060049082906001600160a01b03165afa801561055f5761073091600091613d13575b50604051613ceb816103f3565b6005815264616765282960d81b602082015260405191613d0a83610413565b60008352613f53565b613d2b915060203d811161055857610549818361042e565b38613cde565b60405190613d3e826103f3565b6018825277697364656c656761746f724e6f646528616464726573732960401b6020830152565b6001600160a01b03908116908115613db357600480546001600160a01b031981168417909155167f8292fce18fa69edf4db7b94ea2e58241df0ae57f97e0a6c9b29067028bf92d76600080a3565b60405162461bcd60e51b815260206004820152601160248201527037bbb71734b73b30b634b21737bbb732b960791b6044820152606490fd5b15613df357565b60405162461bcd60e51b815260206004820152600f60248201526e1bdddb8b989d5c9b8b99985a5b1959608a1b6044820152606490fd5b90613e359291613e55565b9060009015613e42575090565b6040519150613e5082610413565b815290565b803b15613eba57600092839263ffffffff60e01b90602081519101201690613ea76024604051809360208201958652613e9781518092602086860191016106d7565b810103600481018452018261042e565b5191620dbba0fa613eb661204c565b9091565b505050600090604051613ecc81610413565b6000815290565b9291613ee191600094613e55565b9080613f0c575b613eef5750565b90915060208180518101031261030957602001516102ec816102f8565b506020815114613ee8565b9291613f2591600094613e55565b9080613f48575b613f335750565b6107309192506020808251830101910161348c565b506020815114613f2c565b9291613f6191600094613e55565b9080613f86575b613f6f5750565b909150602081805181010312610309576020015190565b506020815114613f68565b906020825192015163ffffffff60e01b908181169360048110613fb357505050565b60040360031b82901b16169150565b6001600160a01b0381161561404357600080918351908260208601915af190613fe961204c565b9115613ff3575090565b80516000919060041161403d5761400a9150613f91565b81511561401a5750805190602001fd5b604051630870274d60e21b81526001600160e01b03199091166004820152602490fd5b5061400a565b60405162461bcd60e51b81526020600482015260126024820152711bdddb8b9a5b9d985b1a590b9d185c99d95d60721b6044820152606490fd5b803b600061408a82610451565b92614098604051948561042e565b82845260208401903c602d8151106140b457602a015160601c90565b60405162461bcd60e51b81526020600482015260136024820152724e6f742061206d696e696d616c2070726f787960681b6044820152606490fdfe4a39dc06d4c0dbc64b70af90fd698a233a518aa5d07e595d983b8c0526c8f7fbc3d58168c5ae7397731d063d5bbf3d657854427343f4c083240f7aacaa2d0f62405787fa12a823e0f2b7631cc41b3ba8828b3321ca811111fa75cd3aa3bb5acea66cc928b5edb82af9bd49922954155ab7b0942694bea4ce44661d9a8736c688f3f7a9fe364faab93b216da50a3214154f22a0a2b415b23a84c8169e8b636ee36e1540171b6c0c960b71a7020d9f60077f6af931a8bbf590da0223dacf75c7afa2646970667358221220ab5f4a157ffb1c483c045f47bcac8dba9c58651b772a8afc9574ab426ea1b66964736f6c63430008140033a264697066735822122071be3547bab2ce510f3ebbf04652dc30b94f0898fb674ec715b8e08b4662d90564736f6c63430008140033","linkReferences":{}},"methodIdentifiers":{"deployNFTCat()":"ed4fe597","deployNFTLion()":"1f281210","deployNFTMachineBull()":"5f3ed283","deployNFTMonalisa()":"2e417d8e","deployNFTNeonlit()":"61358ffe","hexb()":"bc9df3d7","nFTCat()":"a0f0e54f","nFTLion()":"1a1575a5","nFTMachineBull()":"de04dae4","nFTMonalisa()":"209d197a","nFTNeonlit()":"1697db05","nFTProxy()":"a4ac704e","nftFactory()":"d63843cd"},"id":34}