{"abi":[{"type":"constructor","inputs":[{"name":"_hex","type":"address","internalType":"address"},{"name":"_price","type":"address","internalType":"address"},{"name":"_old741","type":"address","internalType":"address"}],"stateMutability":"nonpayable"},{"type":"function","name":"dAOAssembly","inputs":[],"outputs":[{"name":"","type":"address","internalType":"address"}],"stateMutability":"view"},{"type":"function","name":"daocore","inputs":[],"outputs":[{"name":"","type":"address","internalType":"address"}],"stateMutability":"view"},{"type":"function","name":"nested741","inputs":[],"outputs":[{"name":"","type":"address","internalType":"address"}],"stateMutability":"view"},{"type":"function","name":"old741","inputs":[],"outputs":[{"name":"","type":"address","internalType":"address"}],"stateMutability":"view"},{"type":"function","name":"price","inputs":[],"outputs":[{"name":"","type":"address","internalType":"address"}],"stateMutability":"view"}],"bytecode":{"object":"0x6080346101b757601f617aa738819003918201601f19168301926001600160401b03929091838511838610176101a15781606092849260409788528339810103126101b75761004d816101bc565b6100648461005d602085016101bc565b93016101bc565b9160018060a01b03199273c0cee8b561cc4f60869776ca5b0b7a295e04f5af84600154161760015585516112c79586820196828810828911176101a15761032c83396001600160a01b039485168088526000979092908190036020019088f0801561018357851686600354161760035587516148bc808201908282108483111761018d5760209183916131eb833985815203019088f08015610183578516866002541617600255875191611bf8808401928484109084111761016f579183916020936115f38439815203019086f080156101655790838092168560045416176004551683600154161760015516908254161790555161015b90816101d18239f35b86513d87823e3d90fd5b634e487b7160e01b89526041600452602489fd5b88513d89823e3d90fd5b634e487b7160e01b8a52604160045260248afd5b634e487b7160e01b600052604160045260246000fd5b600080fd5b51906001600160a01b03821682036101b75756fe608080604052600436101561001357600080fd5b600090813560e01c90816314837455146100fc5750806314d8d024146100d357806345cff900146100aa5780635540c5ac146100815763a035b1fe1461005857600080fd5b3461007e578060031936011261007e57546040516001600160a01b039091168152602090f35b80fd5b503461007e578060031936011261007e576001546040516001600160a01b039091168152602090f35b503461007e578060031936011261007e576002546040516001600160a01b039091168152602090f35b503461007e578060031936011261007e576004546040516001600160a01b039091168152602090f35b9050346101215781600319360112610121576003546001600160a01b03168152602090f35b5080fdfea264697066735822122040bfae40b889c9969f3bec1752e7f01b5b1c01b8cfdd531c7b6dd3e046fa9dd064736f6c634300081400336080346100c557601f6112c738819003918201601f19168301916001600160401b038311848410176100ca578084926020946040528339810103126100c557516001600160a01b038116908190036100c55780156100805760018060a01b03193381600154161760015560005416176000556040516111e690816100e18239f35b60405162461bcd60e51b815260206004820152601360248201527f6f776e2e696e76616c69642e68657862617365000000000000000000000000006044820152606490fd5b600080fd5b634e487b7160e01b600052604160045260246000fdfe60806040526004361015610018575b361561001657005b005b60003560e01c806312065fe0146101085780631f185d161461010357806325924f34146100fe5780633b9b7955146100f95780638da5cb5b146100f4578063a1f7f539146100ef578063af484526146100ea578063b90306ad146100e5578063c54e44b0146100e0578063c89b84fd146100db578063dbac26e9146100d6578063df49ed7c146100d1578063e01ad5fd146100cc578063e0a9bc2b146100c75763fdc10bc90361000e57610b7d565b610adb565b610a42565b61099d565b610951565b610853565b6107ba565b6106b3565b6105de565b61052d565b610504565b6104db565b610263565b61013a565b3461012457600036600319011261012457602047604051908152f35b600080fd5b6001600160a01b0381160361012457565b34610124576020806003193601126101245760049081359061015b82610129565b600054819061017a906001600160a01b03165b6001600160a01b031690565b604051634bf9c0ad60e11b815294859182905afa91821561025e576101d161020b936101ed9261021d9660009261022b575b506040516001600160a01b0390911685820190815290926101df918491602090910190565b03601f198101845283610bf3565b6101e7610ec0565b90611058565b919080610221575b6101fe90610eed565b8082518301019101610e2e565b60405190151581529081906020820190565b0390f35b50815181146101f5565b6101df91925061025090863d8811610257575b6102488183610bf3565b810190610c15565b91906101ac565b503d61023e565b610c2d565b34610124576020806003193601126101245760043561028181610129565b600054610296906001600160a01b031661016e565b90604090815163cfbffe5360e01b81528481600481875afa801561025e576102d7916000916104be575b506102c9610c68565b6102d1610c55565b91611172565b825163ab6e844f60e01b8082529491908681600481865afa90811561025e576000916104a1575b5084516001600160a01b038516888201908152819003808252601f199261033b929161032d9060200183610bf3565b610335610c90565b906110f2565b9285518781528881600481855afa90811561025e57899161039791600091610484575b5088516001600160a01b03881684820190815290919061038990839060200103878101845283610bf3565b610391610cbf565b90611172565b97600488518094819382525afa97881561025e5761021d986103f7938693600092610463575b5088516001600160a01b0390941692840192835290916103e99190849060200103908101845283610bf3565b6103f1610cf8565b90611136565b6001600160a01b0390921615159485610458575b50508361044f575b508261042b575b505190151581529081906020820190565b6001600160a01b031660009081526003602052604090205460ff161591503861041a565b15925038610413565b10159350388061040b565b6103e9925061047e90843d8611610257576102488183610bf3565b916103bd565b61049b9150833d8511610257576102488183610bf3565b3861035e565b6104b89150873d8911610257576102488183610bf3565b386102fe565b6104d59150863d8811610257576102488183610bf3565b386102c0565b34610124576000366003190112610124576000546040516001600160a01b039091168152602090f35b34610124576000366003190112610124576001546040516001600160a01b039091168152602090f35b346101245760003660031901126101245760005460405163d1f956b160e01b815290602090829060049082906001600160a01b03165afa90811561025e5761021d916105b0916000916105c0575b5060405161058881610bb6565b601381527267657464656c656761746f72436f756e74282960681b60208201526102d1610c55565b6040519081529081906020820190565b6105d8915060203d8111610257576102488183610bf3565b3861057b565b3461012457602080600319360112610124576004908135906105ff82610129565b6000548190610616906001600160a01b031661016e565b604051634bf9c0ad60e11b815294859182905afa91821561025e576101d161020b936106759261021d96600092610690575b506040516001600160a01b03909116858201908152909261066d918491602090910190565b6101e7610e43565b919080610686575b6101fe90610e74565b508151811461067d565b61066d9192506106ac90863d8811610257576102488183610bf3565b9190610648565b34610124576020806003193601126101245760043560018060a01b0391600092808454169060405191630536340960e21b83528383600481845afa92831561025e57600493859361070e92899261079b575b50163314610d80565b6040516311be646b60e21b815292839182905afa91821561025e5784808561074d9582958395849261077e575b50505af1610747610fea565b5061101a565b60405190815233907fcdcc745fe377b103b45fa0cec23ae3ef93d6fc6a84a01f0d18c40b354dd1d5d890602090a280f35b6107949250803d10610257576102488183610bf3565b388061073b565b6107b3919250853d8711610257576102488183610bf3565b9038610705565b34610124576020366003190112610124576004356107d781610129565b803b60006107e482610c39565b926107f26040519485610bf3565b82845260208401903c602d81511061081857602a015160405160609190911c8152602090f35b60405162461bcd60e51b81526020600482015260136024820152724e6f742061206d696e696d616c2070726f787960681b6044820152606490fd5b346101245760008060031936011261094e578054610879906001600160a01b031661016e565b60405163cfbffe5360e01b815260209290918383600481845afa801561025e576108b08591600495859161093757506102c9610c68565b916040519485809263ab6e844f60e01b82525afa801561025e5761021d946105b09461090f9492610914575b50610907906101d16108ec610f32565b94604051958693840160209093929193604081019481520152565b610391610d23565b610d5c565b81925061093090610907923d8511610257576102488183610bf3565b91906108dc565b6104d59150833d8511610257576102488183610bf3565b80fd5b346101245760203660031901126101245760043561096e81610129565b60018060a01b03166000526003602052602060ff604060002054166040519015158152f35b8015150361012457565b34610124576040366003190112610124576004356109ba81610129565b6024356109c681610993565b60018060a01b03600092600460208386541660405192838092630536340960e21b82525afa801561025e57610a06918691610a24575b5083163314610d80565b1682526003602052604082209060ff80198354169115151617905580f35b610a3c915060203d8111610257576102488183610bf3565b386109fc565b34610124576020806003193601126101245760048035610a6181610129565b60005460405163d1f956b160e01b81526001600160a01b03949093909182918591829088165afa90811561025e5761021d9461020b94600093610abc575b506040519316818401528252610ab482610bb6565b6103f1610fbd565b610ad4919350823d8411610257576102488183610bf3565b9138610a9f565b3461012457600036600319011261012457600054604051634bf9c0ad60e11b8152906020908190839060049082906001600160a01b03165afa90811561025e57610b4561020b9261021d94600091610b60575b50610b37610dbe565b610b3f610c55565b91611058565b919080610b56575b6101fe90610de2565b5081518114610b4d565b610b779150833d8511610257576102488183610bf3565b38610b2e565b34610124576000366003190112610124576020610b98610f32565b604051908152f35b634e487b7160e01b600052604160045260246000fd5b6040810190811067ffffffffffffffff821117610bd257604052565b610ba0565b6020810190811067ffffffffffffffff821117610bd257604052565b90601f8019910116810190811067ffffffffffffffff821117610bd257604052565b908160209103126101245751610c2a81610129565b90565b6040513d6000823e3d90fd5b67ffffffffffffffff8111610bd257601f01601f191660200190565b60405190610c6282610bd7565b60008252565b60405190610c7582610bb6565b600c82526b72616e6b666f7244414f282960a01b6020830152565b60405190610c9d82610bb6565b601382527255736572546f496e737428616464726573732960681b6020830152565b60405190610ccc82610bb6565b601982527f67657445666665637469766552616e6b286164647265737329000000000000006020830152565b60405190610d0582610bb6565b600f82526e697353746f7028616464726573732960881b6020830152565b60405190610d3082610bb6565b601d82527f67657472616e6b636f756e742875696e743235362c75696e74323536290000006020830152565b9060038201809211610d6a57565b634e487b7160e01b600052601160045260246000fd5b15610d8757565b60405162461bcd60e51b815260206004820152600f60248201526e6f776e2e6e6f6e617574682e44414f60881b6044820152606490fd5b60405190610dcb82610bb6565b6008825267697353616665282960c01b6020830152565b15610de957565b60405162461bcd60e51b815260206004820152601960248201527f6f776e2e7361666567756172642e63616c6c2e6661696c6564000000000000006044820152606490fd5b908160209103126101245751610c2a81610993565b60405190610e5082610bb6565b601582527469735365637572654261736528616464726573732960581b6020830152565b15610e7b57565b60405162461bcd60e51b815260206004820152601a60248201527f6f776e2e736563757265626173652e63616c6c2e6661696c65640000000000006044820152606490fd5b60405190610ecd82610bb6565b601182527069735369676e657228616464726573732960781b6020830152565b15610ef457565b60405162461bcd60e51b81526020600482015260166024820152751bdddb8b9cda59db995c8b98d85b1b0b99985a5b195960521b6044820152606490fd5b60005460405163111ea8c160e21b815290602090829060049082906001600160a01b03165afa801561025e57610c2a91600091610f9f575b50604051610f7781610bb6565b6005815264616765282960d81b602082015260405191610f9683610bd7565b60008352611172565b610fb7915060203d8111610257576102488183610bf3565b38610f6a565b60405190610fca82610bb6565b6011825270697364656c656761746f724e6f6465282960781b6020830152565b3d15611015573d90610ffb82610c39565b916110096040519384610bf3565b82523d6000602084013e565b606090565b1561102157565b60405162461bcd60e51b815260206004820152600f60248201526e1bdddb8b989d5c9b8b99985a5b1959608a1b6044820152606490fd5b9190823b156110d9578051906020918263ffffffff60e01b92012016916040519180830193845281519160005b8381106110c55750505091816110b260248260009795968897018783820152036004810184520182610bf3565b5191620dbba0fa6110c1610fea565b9091565b818101830151858201602401528201611085565b5050506000906040516110eb81610bd7565b6000815290565b929161110091600094611058565b908061112b575b61110e5750565b909150602081805181010312610124576020015161016e81610129565b506020815114611107565b929161114491600094611058565b9080611167575b6111525750565b610c2a91925060208082518301019101610e2e565b50602081511461114b565b929161118091600094611058565b90806111a5575b61118e5750565b909150602081805181010312610124576020015190565b50602081511461118756fea2646970667358221220a31525337979cf304a1bf54654bb25a49cdb680e494f21ce72b97efaca7a1c8364736f6c634300081400336080346100ca57601f611bf838819003918201601f19168301916001600160401b038311848410176100cf578084926020946040528339810103126100ca57516001600160a01b038116908190036100ca5780156100855760018060a01b03193381600154161760015560005416176000556033600355604051611b1290816100e68239f35b60405162461bcd60e51b815260206004820152601360248201527f6f776e2e696e76616c69642e68657862617365000000000000000000000000006044820152606490fd5b600080fd5b634e487b7160e01b600052604160045260246000fdfe60806040526004361015610018575b361561001657005b005b60003560e01c8063013cf08b1461016857806312065fe0146101635780631f185d161461015e5780633595df1a146101595780633b9b795514610154578063438596321461014f578063604ff4b11461014a57806365153c4b146101455780638da5cb5b1461014057806398e527d31461013b578063995e433914610136578063a1f7f53914610131578063af4845261461012c578063b90306ad14610127578063c54e44b014610122578063c7f758a81461011d578063c9d27afe14610118578063d3a3084914610113578063e01ad5fd1461010e578063e0a9bc2b146101095763fdc10bc90361000e57610fd9565b610fbe565b610f97565b610d41565b610b6a565b610afb565b610a24565b610971565b61085d565b61083a565b6107d6565b6107b8565b61078f565b610677565b6105d1565b61056d565b610544565b6104f2565b6104c1565b610494565b6103db565b6004548110156101a857600b906004600052027f8a35acfbc15ff81a39ae7d344fd709f28e8600b4aa8c65c6b64bfe7fe36bd19b0190600090565b634e487b7160e01b600052603260045260246000fd5b90600182811c921680156101ee575b60208310146101d857565b634e487b7160e01b600052602260045260246000fd5b91607f16916101cd565b9060009291805491610209836101be565b91828252600193848116908160001461026b575060011461022b575b50505050565b90919394506000526020928360002092846000945b838610610257575050505001019038808080610225565b805485870183015294019385908201610240565b9294505050602093945060ff191683830152151560051b01019038808080610225565b634e487b7160e01b600052604160045260246000fd5b6020810190811067ffffffffffffffff8211176102c057604052565b61028e565b6040810190811067ffffffffffffffff8211176102c057604052565b90601f8019910116810190811067ffffffffffffffff8211176102c057604052565b9061031e61031792604051938480926101f8565b03836102e1565b565b60005b8381106103335750506000910152565b8181015183820152602001610323565b9060209161035c81518092818552858086019101610320565b601f01601f1916010190565b99959197939261014099959c9b979361038d6103b2938d610160908181520190610343565b6001600160a01b039a8b1660208e015260408d01929092528b820360608d0152610343565b9a60808a015260a089015260c088015260e0870152610100860152151561012085015216910152565b3461048f57602036600319011261048f5760043560045481101561048f5761040460ff9161016d565b5061048b604051916104218361041a81846101f8565b03846102e1565b600181015460028201546040516001600160a01b03959286169391906104558161044e81600387016101f8565b03826102e1565b6004830154600584015490600685015492600786015494600a6008880154970154986040519c8d9c8b60081c169a16988c610368565b0390f35b600080fd5b3461048f57600036600319011261048f57602047604051908152f35b6001600160a01b0381160361048f57565b3461048f57602036600319011261048f5760206104e86004356104e3816104b0565b611592565b6040519015158152f35b3461048f57602036600319011261048f57600435600019810190811161053f57600561051f60609261016d565b500154600360405191600181148352600281146020840152146040820152f35b611110565b3461048f57600036600319011261048f576000546040516001600160a01b039091168152602090f35b3461048f57604036600319011261048f5760043560243561058d816104b0565b600019820191821161053f576105c560ff9160096105ac60209561016d565b50019060018060a01b0316600052602052604060002090565b54166040519015158152f35b3461048f57602036600319011261048f576105ea6113f5565b15610633573330036105fe57600435600355005b60405162461bcd60e51b815260206004820152600d60248201526c64616f2e66616b652e636f726560981b6044820152606490fd5b60405162461bcd60e51b81526020600482015260126024820152716f776e2e696e76616c69642e69735361666560701b6044820152606490fd5b8015150361048f57565b3461048f57604036600319011261048f576004356024356106978161066d565b6106a033611592565b1561075557600019820182811161053f576106ba9061016d565b50916106cc60ff600a850154166111a8565b6004830154600884015411801590610740575b156107055760026005610016940154101591826106fd575b506112ba565b9150386106f7565b60405162461bcd60e51b815260206004820152601360248201527264616f2e6265666f72652e646561646c696e6560681b6044820152606490fd5b5061074961163e565b600784015411156106df565b60405162461bcd60e51b815260206004820152601260248201527137bbb71734b73b30b634b21739b4b3b732b960711b6044820152606490fd5b3461048f57600036600319011261048f576001546040516001600160a01b039091168152602090f35b3461048f57600036600319011261048f576020600454604051908152f35b3461048f57602036600319011261048f57600435600019810190811161053f5761080160a09161016d565b50600481015490600681015490600781015460056008830154920154926040519485526020850152604084015260608301526080820152f35b3461048f57600036600319011261048f57602061085561179f565b604051908152f35b3461048f5760208060031936011261048f5760049081359061087e826104b0565b60005481906001600160a01b0316604051634bf9c0ad60e11b815294859182905afa91821561096c576108e361091d936108ff9261048b96600092610939575b506040516001600160a01b0390911685820190815290926108f1918491602090910190565b03601f1981018452836102e1565b6108f96114a3565b90611930565b91908061092f575b610910906114d4565b80825183010191016113e0565b60405190151581529081906020820190565b5081518114610907565b6108f191925061095e90863d8811610965575b61095681836102e1565b810190611354565b91906108be565b503d61094c565b61136c565b3461048f57602036600319011261048f57600054604051630536340960e21b8152906001600160a01b03906020908390600490829085165afa91821561096c57600092610a04575b50339116036109cd5761001660043561185f565b60405162461bcd60e51b815260206004820152600f60248201526e6f776e2e6e6f6e617574682e44414f60881b6044820152606490fd5b610a1d91925060203d81116109655761095681836102e1565b90386109b9565b3461048f57602036600319011261048f57600435610a41816104b0565b803b6000610a4e82611378565b92610a5c60405194856102e1565b82845260208401903c602d815110610a8257602a015160405160609190911c8152602090f35b60405162461bcd60e51b81526020600482015260136024820152724e6f742061206d696e696d616c2070726f787960681b6044820152606490fd5b93610ad66080949796939260a0875260a0870190610343565b6001600160a01b03928316602087015260408601979097521660608401521515910152565b3461048f57602036600319011261048f57600435600019810190811161053f57610b249061016d565b5060018060a01b0361048b81600184015416926103176002820154610b54600a84015493604051938480926101f8565b60405195869560ff85169460081c169286610abd565b3461048f57604036600319011261048f57600435602435610b8a8161066d565b610b9333611592565b8015610cf0575b610ba390611154565b610bb4610baf83611199565b61016d565b5091610bcc610bc7600a85015460ff1690565b6111a8565b610be36007840154610bdc61163e565b11156111e8565b6005830192610bf56003855410611227565b610c97610c8a60098301610c34610c2f610c2b610c2433859060018060a01b0316600052602052604060002090565b5460ff1690565b1590565b61126b565b60008615610ceb575060015b610c5260ff6004870192168254611147565b905585159360008515610cdd5750610c7560ff60066001935b0192168254611147565b90553360009081526020919091526040902090565b805460ff19166001179055565b610ca033611592565b610ca657005b610cb084546112ab565b8094558015610cd3575b610cc057005b6002610016931491826106fd57506112ba565b5060028314610cba565b60ff6006610c759293610c6b565b610c40565b50610cf96113f5565b8015610b9a5750610ba3610d0c336116c9565b9050610b9a565b9181601f8401121561048f5782359167ffffffffffffffff831161048f576020838186019501011161048f57565b3461048f5760a036600319011261048f5767ffffffffffffffff6004803582811161048f57610d739036908301610d13565b60249391933590610d83826104b0565b60643583811161048f57610d9a9036908601610d13565b9290916001600160a01b03821615610f5e57855490680100000000000000008210156102c057610dd0600192838101895561016d565b509581116102c057610dec81610de688546101be565b88610ff4565b6000601f8211600114610ee157610e5e93600a969383610ec5999794610e4d9461048b9d600092610ed6575b5050600019600383901b1c191690821b1787555b860180546001600160a01b0319166001600160a01b03909216919091179055565b604435600285015560038401611048565b610e84610e7d610e78610e6f61179f565b60035490611126565b611139565b6064900490565b6008820155610e9c608435610e9761163e565b611147565b6007820155018054610100600160a81b0319163360081b610100600160a81b0316178155610c8a565b546040519081529081906020820190565b013590503880610e18565b601f19821690610ef688600052602060002090565b91815b818110610f485750938084610e4d9461048b9d610e5e9995610ec59d9b98600a9d9a10610f2e575b505050811b018755610e2c565b0135600019600384901b60f8161c19169055388080610f21565b8b83013584559285019260209283019201610ef9565b60405162461bcd60e51b8152602081880152601260248201527137bbb7173232b330bab63a1739b2b73232b960711b6044820152606490fd5b3461048f57602036600319011261048f5760206104e8600435610fb9816104b0565b6116c9565b3461048f57600036600319011261048f5760206104e86113f5565b3461048f57600036600319011261048f57602061085561163e565b90601f811161100257505050565b600091825260208220906020601f850160051c8301941061103e575b601f0160051c01915b82811061103357505050565b818155600101611027565b909250829061101e565b90929167ffffffffffffffff81116102c05761106e8161106884546101be565b84610ff4565b6000601f82116001146110a8578192939460009261109d575b50508160011b916000199060031b1c1916179055565b013590503880611087565b601f198216946110bd84600052602060002090565b91805b8781106110f85750836001959697106110de575b505050811b019055565b0135600019600384901b60f8161c191690553880806110d4565b909260206001819286860135815501940191016110c0565b634e487b7160e01b600052601160045260246000fd5b8181029291811591840414171561053f57565b906063820180921161053f57565b9190820180921161053f57565b1561115b57565b60405162461bcd60e51b81526020600482015260166024820152756f776e2e6e6f6e617574682e64656c656761746f727360501b6044820152606490fd5b60001981019190821161053f57565b156111af57565b60405162461bcd60e51b815260206004820152601160248201527019185bcb9c1c9bdc0b9b9bdd195e1a5cdd607a1b6044820152606490fd5b156111ef57565b60405162461bcd60e51b815260206004820152601060248201526f19185bcb9d9bdd1a5b99cb995b99195960821b6044820152606490fd5b1561122e57565b60405162461bcd60e51b815260206004820152601560248201527419185bcb985b1c9958591e4b98dbdb5c1b195d1959605a1b6044820152606490fd5b1561127257565b60405162461bcd60e51b815260206004820152601160248201527019185bcb985b1c9958591e4b9d9bdd1959607a1b6044820152606490fd5b600019811461053f5760010190565b6112c8610baf600492611199565b509160058301906112dc6003835410611227565b80611343575b80611333575b1561132a5760ff825b16809155146112fd5750565b600181015461132791906001600160a01b0316611321600360028401549301610303565b90611a1d565b50565b60ff60036112f1565b50818301546006840154106112e8565b5081830154600884015411156112e2565b9081602091031261048f5751611369816104b0565b90565b6040513d6000823e3d90fd5b67ffffffffffffffff81116102c057601f01601f191660200190565b1561139b57565b60405162461bcd60e51b815260206004820152601960248201527f6f776e2e7361666567756172642e63616c6c2e6661696c6564000000000000006044820152606490fd5b9081602091031261048f57516113698161066d565b600054604051634bf9c0ad60e11b8152906020908190839060049082906001600160a01b03165afa91821561096c576113699261146b91600091611486575b50604051611441816102c5565b6008815267697353616665282960c01b8482015260405191611462836102a4565b60008352611930565b91908061147c575b61091090611394565b5081518114611473565b61149d9150833d85116109655761095681836102e1565b38611434565b604051906114b0826102c5565b601582527469735365637572654261736528616464726573732960581b6020830152565b156114db57565b60405162461bcd60e51b815260206004820152601a60248201527f6f776e2e736563757265626173652e63616c6c2e6661696c65640000000000006044820152606490fd5b6040519061152d826102c5565b601182527069735369676e657228616464726573732960781b6020830152565b1561155457565b60405162461bcd60e51b81526020600482015260166024820152751bdddb8b9cda59db995c8b98d85b1b0b99985a5b195960521b6044820152606490fd5b6000546001600160a01b0316604051918291634bf9c0ad60e11b835282600460209485935afa92831561096c5761136993611600926108e39260009261161b575b506040516001600160a01b0390911685820190815290926115f8918491602090910190565b6108f9611520565b919080611611575b6109109061154d565b5081518114611608565b6115f891925061163790863d88116109655761095681836102e1565b91906115d3565b60005460405163111ea8c160e21b815290602090829060049082906001600160a01b03165afa801561096c57611369916000916116ab575b50604051611683816102c5565b6005815264616765282960d81b6020820152604051916116a2836102a4565b600083526119ae565b6116c3915060203d81116109655761095681836102e1565b38611676565b60005460405163d1f956b160e01b8152916020916001600160a01b039083908590600490829085165afa93841561096c5760009461177a575b5060405191168282015281815261174d9061171c816102c5565b604051611728816102c5565b6011815270697364656c656761746f724e6f6465282960781b84820152600094611930565b919080611770575b61175e57505090565b611369925080825183010191016113e0565b5080825114611755565b61174d9291945061179790843d86116109655761095681836102e1565b939091611702565b60005460405163d1f956b160e01b815290602090829060049082906001600160a01b03165afa801561096c5761136991600091611811575b506040516117e4816102c5565b601381527267657464656c656761746f72436f756e74282960681b6020820152604051916116a2836102a4565b611829915060203d81116109655761095681836102e1565b386117d7565b3d1561185a573d9061184082611378565b9161184e60405193846102e1565b82523d6000602084013e565b606090565b600080546040516311be646b60e21b815290602090829060049082906001600160a01b03165afa90811561096c578284819382938391611912575b505af16118a561182f565b50156118db5760405190815233907fcdcc745fe377b103b45fa0cec23ae3ef93d6fc6a84a01f0d18c40b354dd1d5d890602090a2565b60405162461bcd60e51b815260206004820152600f60248201526e1bdddb8b989d5c9b8b99985a5b1959608a1b6044820152606490fd5b61192a915060203d81116109655761095681836102e1565b3861189a565b803b1561199557600092839263ffffffff60e01b9060208151910120169061198260246040518093602082019586526119728151809260208686019101610320565b81010360048101845201826102e1565b5191620dbba0fa61199161182f565b9091565b5050506000906040516119a7816102a4565b6000815290565b92916119bc91600094611930565b90806119e1575b6119ca5750565b90915060208180518101031261048f576020015190565b5060208151146119c3565b906020825192015163ffffffff60e01b908181169360048110611a0e57505050565b60040360031b82901b16169150565b9091906001600160a01b03811615611aa257600091829184519160208601915af190611a4761182f565b9115611a51575090565b805160009190600411611a9c57611a6891506119ec565b815115611a785750805190602001fd5b604051630870274d60e21b81526001600160e01b0319919091166004820152602490fd5b50611a68565b60405162461bcd60e51b81526020600482015260126024820152711bdddb8b9a5b9d985b1a590b9d185c99d95d60721b6044820152606490fdfea2646970667358221220f092a5c25aac371a189c02f4651afe80ae12854f95364781299306bab4a3bb6b64736f6c63430008140033608034620000d157601f620048bc38819003918201601f19168301916001600160401b03831184841017620000d657808492602094604052833981010312620000d157516001600160a01b03811690819003620000d15780156200008c5760018060a01b031933816001541617600155600054161760005560016003556040516147cf9081620000ed8239f35b60405162461bcd60e51b815260206004820152601360248201527f6f776e2e696e76616c69642e68657862617365000000000000000000000000006044820152606490fd5b600080fd5b634e487b7160e01b600052604160045260246000fdfe60806040526004361015610018575b361561001657005b005b60003560e01c8063033eeffb146103085780630e5fd00b1461030357806312065fe0146102fe5780631bb49f02146102f95780631c53c280146102f45780631f185d16146102ef5780632a687c87146102ea5780632fefc0bf146102e557806332ff4eab146102e05780633a7b55b8146102db5780633b9b7955146102d65780633baee0ea146102d1578063419cb27b146102cc57806342cc9d57146102c757806344585097146102c2578063477968f2146102bd5780634f0f4aa9146102b8578063509222cd146102b357806350db85d1146102ae57806361ea7208146102a9578063629d671e146102a45780636a8112441461029f5780636a9dd2741461029a57806376fe6c451461029557806380f85e3314610290578063849c22ad1461028b578063896c354a146102865780638da5cb5b1461028157806395f72f491461027c57806398b3f21514610277578063a1f7f53914610272578063a87af7691461026d578063a89d693b14610268578063af48452614610263578063b1c490791461025e578063b366335e14610259578063b90306ad14610254578063c54e44b01461024f578063c871372b1461024a578063d1e0bbc614610245578063dcb3fc4a14610240578063e01ad5fd1461023b578063e0a9bc2b14610236578063eb95c66214610231578063f3ca71241461022c578063fd38093b146102275763fdc10bc90361000e57612342565b6122d2565b6122a6565b61227a565b61225f565b6121c0565b611ff0565b611fb6565b611f2e565b611e95565b611de2565b611d2f565b611c0e565b611be7565b611ac8565b6119d3565b611912565b6118e6565b61183c565b611813565b6117d3565b6117a4565b61176a565b61171b565b611694565b611163565b611126565b611108565b611045565b610ff2565b610f08565b610e5f565b610e28565b610df9565b610dbf565b610928565b6108d7565b61073e565b610659565b610622565b610573565b61044e565b61041a565b6103b5565b610399565b61034a565b3461033457602036600319011261033457600435600052600b6020526020604060002054604051908152f35b600080fd5b6001600160a01b0381160361033457565b3461033457602036600319011261033457602060043561036981610339565b60018060a01b03809116600052600482526040600020546000526007825260046040600020015416604051908152f35b3461033457600036600319011261033457602047604051908152f35b34610334576020366003190112610334576004356103d281610339565b6001600160a01b0390811660009081526004602090815260408083205483526007825280832060020154808452600583529281902054815193845290931690820152f35b0390f35b34610334576020366003190112610334576004356000526005602052602060018060a01b0360406000205416604051908152f35b34610334576020806003193601126103345760049081359061046f82610339565b600054819061048e906001600160a01b03165b6001600160a01b031690565b604051634bf9c0ad60e11b815294859182905afa91821561056e576104e561051f93610501926104169660009261053b575b506040516001600160a01b0390911685820190815290926104f3918491602090910190565b03601f19810184528361165a565b6104fb6142ff565b90614555565b919080610531575b6105129061432c565b8082518301019101614113565b60405190151581529081906020820190565b5081518114610509565b6104f391925061056090863d8811610567575b610558818361165a565b81019061256e565b91906104c0565b503d61054e565b612583565b346103345760403660031901126103345761059461058f614128565b61252d565b61059d33614253565b80156105bb575b6105ad9061258f565b610016602435600435613e0c565b50600054604051630536340960e21b8152906001600160a01b03906020908390600490829085165afa90811561056e576105ad92600092610602575b5016331490506105a4565b61061b91925060203d811161056757610558818361165a565b90386105f7565b34610334576020366003190112610334576004356000526007602052602060018060a01b0360056040600020015416604051908152f35b346103345760403660031901126103345761067561058f614128565b61067e33614253565b801561069c575b61068e9061258f565b610016602435600435613e60565b50600054604051630536340960e21b8152906001600160a01b03906020908390600490829085165afa90811561056e5761068e926000926106e3575b501633149050610685565b6106fc91925060203d811161056757610558818361165a565b90386106d8565b6020908160408183019282815285518094520193019160005b82811061072a575050505090565b83518552938101939281019260010161071c565b34610334576020366003190112610334576104166004356108c06108b060405192610768846115e9565b6007845260e036602086013761079b61078b826000526009602052604060002090565b6001600052602052604060002090565b546107a585613cd9565b526107cd6107bd826000526009602052604060002090565b6002600052602052604060002090565b546107d785613ce6565b526107ff6107ef826000526009602052604060002090565b6003600052602052604060002090565b5461080985613cf6565b52610831610821826000526009602052604060002090565b6004600052602052604060002090565b5461083b85613d06565b52610863610853826000526009602052604060002090565b6005600052602052604060002090565b5461086d85613d16565b52610895610885826000526009602052604060002090565b6006600052602052604060002090565b5461089f85613d26565b526000526009602052604060002090565b6007600052602052604060002090565b546108ca82613d36565b5260405191829182610703565b34610334576000366003190112610334576000546040516001600160a01b039091168152602090f35b60409060031901126103345760043561091881610339565b9060243561092581610339565b90565b346103345761098861093936610900565b61094161250a565b61095a61094c612394565b6109546123ac565b336145ef565b916109a9610971610969612394565b6109546123cf565b6001600160a01b03838116969095861687146123f7565b60005485906109a19082166001600160a01b0316610482565b911614612443565b8282166109b7811515612da2565b6001600160a01b038316600090815260046020526040902054158015610db6575b6109e190612de4565b6001600160a01b0382166000908152600460205260409020610a0590541515612e27565b610a486005610a3a610a298560018060a01b03166000526004602052604060002090565b546000526007602052604060002090565b01546001600160a01b031690565b6040805163880cdc3160e01b6020808301919091526001600160a01b0387166024808401919091528252919791969192601f199291610a9191610a8c60448361165a565b6146de565b50610ab96104826004610a3a610a298960018060a01b03166000526004602052604060002090565b15610c7d5750610bd595610b1791610a8c610aee6004610a3a610a298a60018060a01b03166000526004602052604060002090565b8a5162e6724f60e21b948101949094523360248501529183604481015b0390810184528361165a565b505b6001600160a01b0383811660009081526004602090815260408083205493881683528083208490559282526005905220610b6f9085905b80546001600160a01b0319166001600160a01b03909216919091179055565b610bb4336004610b94610a298860018060a01b03166000526004602052604060002090565b0180546001600160a01b0319166001600160a01b03909216919091179055565b03610c5f575b506001600160a01b0316600090815260046020526040902090565b54610416610bf26005610a3a846000526007602052604060002090565b92610c2e610c216002610c0f866000526007602052604060002090565b01546000526005602052604060002090565b546001600160a01b031690565b90610c396001600355565b519283526001600160a01b03938416602084015290921660408201529081906060820190565b6001600160a01b031660009081526004602052604081205538610bba565b60005460049791908290610c99906001600160a01b0316610482565b8a5163111ea8c160e21b8152998a9182905afa97881561056e57610bd598610cfc91600091610d99575b508a516001600160a01b038916858201908152909190610cee9083906020010387810184528361165a565b610cf6612e73565b906145ef565b908116151580610d8f575b610d14575b505050610b19565b8851634fb2e45d60e01b83820152336024820152610d8693610a8c91610d4e90610d4881604481010384810183528261165a565b846146de565b508a5193630a3e884b60e41b9085015283610b0b60248201906007606060808401936000815260006020820152600060408201520152565b50388080610d0c565b5080311515610d07565b610db09150843d861161056757610558818361165a565b38610cc3565b508481146109d8565b34610334576020366003190112610334576020610def600435600052600760205260ff6001604060002001541690565b6040519015158152f35b346103345760203660031901126103345760043560005260076020526020600360406000200154604051908152f35b34610334576020366003190112610334576004356000526007602052602060018060a01b0360046040600020015416604051908152f35b3461033457600080600319360112610f0557610e7c61058f614128565b610e8533614253565b8015610ea0575b610e959061258f565b610e9d613b5a565b80f35b508054604051630536340960e21b8152906001600160a01b03906020908390600490829085165afa90811561056e57610e95928492610ee5575b501633149050610e8c565b610efe91925060203d811161056757610558818361165a565b9038610eda565b80fd5b3461033457602036600319011261033457600435806000526007602052604060002054600560205261041660018060a01b0380604060002054169360076020526040600020916004600284015493015416610f726005610a3a846000526007602052604060002090565b906003610faa610f996001610f91876000526007602052604060002090565b015460ff1690565b946000526007602052604060002090565b0154604080519788526001600160a01b03988916602089015287019490945286166060860152909416608084015292151560a083015260c082019290925290819060e0820190565b346103345760203660031901126103345760043561100f81610339565b60018060a01b031660005260046020526040600020546000526007602052602060ff600160406000200154166040519015158152f35b346103345761105336610900565b61105e61058f614128565b61106733614253565b801561109b575b9161107b6110809361258f565b6125db565b604080519283526001600160a01b0391909116602083015290f35b50600054604051630536340960e21b81526001600160a01b0393916020908290600490829088165afa801561056e576110809461107b926000926110e8575b50339116149193505061106e565b61110191925060203d811161056757610558818361165a565b90386110da565b34610334576000366003190112610334576020600654604051908152f35b346103345760203660031901126103345760043561114381610339565b60018060a01b031660005260046020526020604060002054604051908152f35b346103345760408060031936011261033457600480359061118261250a565b6111a361119e6001610f91856000526007602052604060002090565b612cfe565b6111c86111c161048283610a3a866000526007602052604060002090565b3314612ea2565b6111d86111d3614371565b600255565b6111f16005610a3a846000526007602052604060002090565b906002549284519361124e61124060209663015042f960e11b888201528061122c602495863587840160209093929193604081019481520152565b0396610a8c601f199889810184528361165a565b86808251830101910161357b565b93845195611261818701978851906124fd565b94611271898801968751906124fd565b9361128260608901958651906124fd565b9461129360808a01968751906124fd565b996112ac6112a760e08c019c8d51906124fd565b613db2565b895161150a575b8051611461575b5080516113ba575b508451611303575b8989610416896112df8a60c08e0151906135f5565b519151926112ed6001600355565b5191825260208201929092529081906040820190565b60005494979395949293928490611322906001600160a01b0316610482565b8b516313b92d3560e31b815293849182905afa97881561056e57610416986112df9760c0968d61138996600094611393575b509351935163a9059cbb60e01b9181019190915233948101948552602085019390935291929091610a8c918490604001610b0b565b50948293386112ca565b610a8c9450906113b2610b0b92843d861161056757610558818361165a565b945090611354565b600054839085906113d3906001600160a01b0316610482565b8d51635506ee0b60e11b815292839182905afa91821561056e57611439928d61142d93600092611440575b509151915163a9059cbb60e01b88820152338682019081526020810193909352929091610a8c91849160400190565b0388810184528361165a565b50386112c2565b610a8c925061145b90893d8b1161056757610558818361165a565b916113fe565b600054849086908e9061147c906001600160a01b0316610482565b90516330125cf560e01b815292839182905afa91821561056e576114e2928e6114d6936000926114e9575b509151915163a9059cbb60e01b89820152338782019081526020810193909352929091610a8c91849160400190565b0389810184528361165a565b50386112ba565b610a8c9250611504908a3d8c1161056757610558818361165a565b916114a7565b600054849086908e90611525906001600160a01b0316610482565b9051636402742760e01b815292839182905afa801561056e578b61157f918f61158b94600092611591575b509151915163a9059cbb60e01b8a820152338882019081526020810193909352929091610a8c91849160400190565b038a810184528361165a565b506112b3565b610a8c92506115ac908b3d8d1161056757610558818361165a565b91611550565b634e487b7160e01b600052604160045260246000fd5b6060810190811067ffffffffffffffff8211176115e457604052565b6115b2565b610100810190811067ffffffffffffffff8211176115e457604052565b6040810190811067ffffffffffffffff8211176115e457604052565b6020810190811067ffffffffffffffff8211176115e457604052565b60e0810190811067ffffffffffffffff8211176115e457604052565b90601f8019910116810190811067ffffffffffffffff8211176115e457604052565b67ffffffffffffffff81116115e45760051b60200190565b34610334576020806003193601126103345760043567ffffffffffffffff81116103345736602382011215610334578060040135906116d28261167c565b916116e0604051938461165a565b80835260248484019160051b8301019136831161033457602401905b82821061170c5761001684613e8a565b813581529084019084016116fc565b3461033457602036600319011261033457602060043561173a81610339565b60018060a01b03809116600052600482526040600020546000526007825260056040600020015416604051908152f35b3461033457604036600319011261033457600435600052600860205260406000206024356000526020526020604060002054604051908152f35b346103345760203660031901126103345760043560005260076020526020600260406000200154604051908152f35b3461033457604036600319011261033457600435600052600760205260206118046024356003604060002001612bd7565b90549060031b1c604051908152f35b34610334576000366003190112610334576001546040516001600160a01b039091168152602090f35b346103345760403660031901126103345761185861058f614128565b61186133614253565b801561187f575b6118719061258f565b610016602435600435613e36565b50600054604051630536340960e21b8152906001600160a01b03906020908390600490829085165afa90811561056e57611871926000926118c6575b501633149050611868565b6118df91925060203d811161056757610558818361165a565b90386118bb565b3461033457602036600319011261033457600435600052600f6020526020604060002054604051908152f35b346103345760003660031901126103345760005460405163d1f956b160e01b815290602090829060049082906001600160a01b03165afa90811561056e576104169161199b916000916119ab575b5060405161196d81611606565b601381527267657464656c656761746f72436f756e74282960681b6020820152611995612381565b9161466f565b6040519081529081906020820190565b6119c3915060203d811161056757610558818361165a565b38611960565b8015150361033457565b34610334576060366003190112610334576024356119f081610339565b6044356119fc816119c9565b611a0761058f614128565b611a1033614253565b8015611a2c575b91611a246100169361258f565b600435613028565b50600054604051630536340960e21b81526001600160a01b0393916020908290600490829088165afa801561056e5761001694611a2492600092611a79575b503391161491935050611a17565b611a9291925060203d811161056757610558818361165a565b9038611a6b565b610100810192916000915b60088310611ab157505050565b600190825181526020809101920192019190611aa4565b3461033457602036600319011261033457610416600435611bd56108b0611aed613cc4565b92611b14611b05826000526008602052604060002090565b60008052602052604060002090565b548452611b2e61078b826000526008602052604060002090565b546020850152611b4b6107bd826000526008602052604060002090565b546040850152611b686107ef826000526008602052604060002090565b546060850152611b85610821826000526008602052604060002090565b546080850152611ba2610853826000526008602052604060002090565b5460a0850152611bbf610885826000526008602052604060002090565b5460c08501526000526008602052604060002090565b5460e082015260405191829182611a99565b34610334576020366003190112610334576020610def600435611c0981610339565b614253565b3461033457611cbb611c1f36610900565b90611c2861250a565b611c71611c3661094c612394565b611c41610969612394565b906001600160a01b0390611c5a908216868316146123f7565b6000546109a19082166001600160a01b0316610482565b611c9d611c986001610f91610a298560018060a01b03166000526004602052604060002090565b612488565b611ca86111d3614371565b611cb4600280546127f1565b33906129f3565b611cd4611b056002546000526008602052604060002090565b611cde81546124ea565b9055611ce8613dde565b611d016005610a3a836000526007602052604060002090565b90611d0b81612d42565b611d156001600355565b604080519182526001600160a01b03929092166020820152f35b3461033457602036600319011261033457611d4b61058f614128565b611d5433614253565b8015611d6f575b611d649061258f565b6100166004356127cf565b50600054600490602090611d8b906001600160a01b0316610482565b604051630536340960e21b815292839182905afa801561056e57611d6491600091611dc4575b506001600160a01b031633149050611d5b565b611ddc915060203d811161056757610558818361165a565b38611db1565b3461033457602036600319011261033457600054604051630536340960e21b8152906001600160a01b03906020908390600490829085165afa91821561056e57600092611e75575b5033911603611e3e57610016600435614459565b60405162461bcd60e51b815260206004820152600f60248201526e6f776e2e6e6f6e617574682e44414f60881b6044820152606490fd5b611e8e91925060203d811161056757610558818361165a565b9038611e2a565b3461033457602036600319011261033457600435611eb281610339565b803b6000611ebf82612365565b92611ecd604051948561165a565b82845260208401903c602d815110611ef357602a015160405160609190911c8152602090f35b60405162461bcd60e51b81526020600482015260136024820152724e6f742061206d696e696d616c2070726f787960681b6044820152606490fd5b604036600319011261033457600435611f4561250a565b611f4d614371565b6002556000908082526007602052611f6e60ff600160408520015416612cfe565b81526007602052611fad60018060a01b036005604084200154166040519062a0e53360e51b6020830152602435602483015260248252610a8c826115c8565b50600160035580f35b3461033457604036600319011261033457600435600052600a60205260406000206024356000526020526020604060002054604051908152f35b346103345760c03660031901126103345760243560043561201082610339565b606435906084359061202061250a565b61203c61119e6001610f91846000526007602052604060002090565b61205b6111c16104826004610a3a856000526007602052604060002090565b6120666111d3614371565b612072600280546127f1565b61207b82613d5a565b61208483613d86565b6121036120f561122c6120a66005610a3a866000526007602052604060002090565b604051634996516b60e11b6020808301919091526001600160a01b039099166024820152604480359082015260648101889052608481019690965260a4803590870152969490819060c4820190565b838082518301019101612eee565b9281612120575b5050612116935061380c565b6100166001600355565b6000546004929190819061213c906001600160a01b0316610482565b604051635e09dbe760e01b815294859182905afa801561056e57612116976121979460009261219f575b5060405163a9059cbb60e01b9381019390935233602484015260448301939093529091610a8c908360648101610b0b565b50388061210a565b610a8c92506121ba90843d861161056757610558818361165a565b91612166565b346103345760208060031936011261033457600480356121df81610339565b60005460405163d1f956b160e01b81526001600160a01b03949093909182918591829088165afa90811561056e576104169461051f94600093612240575b50604051931681840152825261223282611606565b61223a6143fc565b90614633565b612258919350823d841161056757610558818361165a565b913861221d565b34610334576000366003190112610334576020610def614128565b3461033457602036600319011261033457600435600052600c6020526020604060002054604051908152f35b3461033457602036600319011261033457600435600052600e6020526020604060002054604051908152f35b3461033457604080600319360112610334576004356122f081610339565b6001600160a01b0316600081815260046020818152848320548352600b815284832054938352908152838220548252600a81528382206024358352815290839020549251918252810191909152604090f35b3461033457600036600319011261033457602061235d614371565b604051908152f35b67ffffffffffffffff81116115e457601f01601f191660200190565b6040519061238e82611622565b60008252565b6040516123a081611622565b60008152906000368137565b604051906123b982611606565b60078252666f776e6572282960c81b6020830152565b604051906123dc82611606565b600c82526b67657448657862617365282960a01b6020830152565b156123fe57565b60405162461bcd60e51b815260206004820152601760248201527f6e65737465642e696e76616c69642e696e7374616e63650000000000000000006044820152606490fd5b1561244a57565b60405162461bcd60e51b81526020600482015260166024820152756e65737465642e696e76616c69642e6865786261736560501b6044820152606490fd5b1561248f57565b60405162461bcd60e51b815260206004820152601860248201527f6e65737465642e706172656e742e6e6f742e65786973747300000000000000006044820152606490fd5b634e487b7160e01b600052601160045260246000fd5b90600182018092116124f857565b6124d4565b919082018092116124f857565b60026003541461251b576002600355565b604051633ee5aeb560e01b8152600490fd5b1561253457565b60405162461bcd60e51b81526020600482015260126024820152716f776e2e696e76616c69642e69735361666560701b6044820152606490fd5b90816020910312610334575161092581610339565b6040513d6000823e3d90fd5b1561259657565b60405162461bcd60e51b815260206004820152601b60248201527f6f776e2e6e6f6e617574682e44414f6f725365637572656261736500000000006044820152606490fd5b612688929161268e6004926125ee61250a565b61262161261c6126186001610f91610a298860018060a01b03166000526004602052604060002090565b1590565b6129a0565b61263461262f6006546129e4565b600655565b60065495869161265285610b50856000526005602052604060002090565b6001600160a01b038516600090815260046020526040902083905b556001600160a01b0316600090815260046020526040902090565b54612c35565b6126b7826126a6866000526007602052604060002090565b0180546001600160a01b0319169055565b6000546020906126cf906001600160a01b0316610482565b60405163e09d394d60e01b815293849182905afa801561056e5761270261271891612782946000916127b1575b50612b59565b6005610b94876000526007602052604060002090565b6127316005610a3a866000526007602052604060002090565b600054610a8c9061274a906001600160a01b0316610482565b6040516352902c5960e01b60208201526001600160a01b039182166024820152931660448401526064830186905282608481016104e5565b506000828152600760205260409020600501546001600160a01b0316916127a881612d42565b91906001600355565b6127c9915060203d811161056757610558818361165a565b386126fc565b6127e0906127db614371565b6127f1565b565b6000198101919082116124f857565b90612809611b05836000526008602052604060002090565b541580612996575b8061298d575b61281f575050565b61283b9061283561282f846127e2565b916127e2565b906127f1565b61285a611b0561284a836127e2565b6000526008602052604060002090565b54612872611b05836000526008602052604060002090565b5561288261078b61284a836127e2565b5461289a61078b836000526008602052604060002090565b556128aa6107bd61284a836127e2565b546128c26107bd836000526008602052604060002090565b556128d26107ef61284a836127e2565b546128ea6107ef836000526008602052604060002090565b556128fa61082161284a836127e2565b54612912610821836000526008602052604060002090565b5561292261085361284a836127e2565b5461293a610853836000526008602052604060002090565b5561294a61088561284a836127e2565b54612962610885836000526008602052604060002090565b5561298a6108b06129786108b061284a856127e2565b54926000526008602052604060002090565b55565b50801515612817565b5060018211612811565b156129a757565b60405162461bcd60e51b81526020600482015260156024820152746e65737465642e616c72656164792e65786973747360581b6044820152606490fd5b60001981146124f85760010190565b91612a8b600492612a7661268895612a2b61261c6126186001610f91610a298a60018060a01b03166000526004602052604060002090565b612a3961262f6006546129e4565b600654968791612a5787610b50856000526005602052604060002090565b6001600160a01b0387166000908152600460205260409020839061266d565b83610b94866000526007602052604060002090565b600054602090612aa3906001600160a01b0316610482565b60405163e09d394d60e01b815293849182905afa801561056e57612ad5612aeb91612b55946000916127b15750612b59565b6005610b94866000526007602052604060002090565b612b046005610a3a856000526007602052604060002090565b600054610a8c90612b1d906001600160a01b0316610482565b6040516352902c5960e01b60208201526001600160a01b039182166024820152931660448401526064830185905282608481016104e5565b5090565b6e5af43d82803e903d91602b57fd5bf390763d602d80600a3d3981f3363d3d373d3d3d363d7300000062ffffff8260881c161760005260781b17602052603760096000f0906001600160a01b03821615612baf57565b60405163b06ebf3d60e01b8152600490fd5b634e487b7160e01b600052603260045260246000fd5b8054821015612bef5760005260206000200190600090565b612bc1565b90815491680100000000000000008310156115e45782612c1c9160016127e095018155612bd7565b90919082549060031b91821b91600019901b1916179055565b91906000818152602093600785526040808320926002948386860155806001958681018760ff19825416179055558385905b612c7657505050505050509050565b612cd0612cbf82888a9414612cd9575b878652600a8c528686208187528c52868620612ca281546124ea565b9055878652600b8c52868620612cb881546124ea565b90556129e4565b956000526007602052604060002090565b01549384612c67565b612cf9856003612cf38b6000526007602052604060002090565b01612bf4565b612c86565b15612d0557565b60405162461bcd60e51b81526020600482015260156024820152746e65737465642e757365722e6e6f7461637469766560581b6044820152606490fd5b806000526007602052612d5f60ff60016040600020015416612cfe565b6000526007602052612d9f60018060a01b03600560406000200154166040519062a0e53360e51b60208301526001602483015260248252610a8c826115c8565b50565b15612da957565b60405162461bcd60e51b81526020600482015260136024820152726e65737465642e7a65726f2e6164647265737360681b6044820152606490fd5b15612deb57565b60405162461bcd60e51b81526020600482015260146024820152736e65737465642e7461726765742e65786973747360601b6044820152606490fd5b15612e2e57565b60405162461bcd60e51b815260206004820152601760248201527f6e65737465642e736f757263652e6e6f744578697374730000000000000000006044820152606490fd5b60405190612e8082611606565b601382527255736572546f496e737428616464726573732960681b6020830152565b15612ea957565b60405162461bcd60e51b815260206004820152601b60248201527f6e65737465642e757365722e696e76616c6964696e7374616e636500000000006044820152606490fd5b9190826040910312610334576020825192015190565b15612f0b57565b60405162461bcd60e51b815260206004820152601860248201527f6e65737465642e757365722e6e6f742e646574616368656400000000000000006044820152606490fd5b15612f5757565b60405162461bcd60e51b815260206004820152601760248201527f6e65737465642e706172656e742e6e6f746163746976650000000000000000006044820152606490fd5b15612fa357565b60405162461bcd60e51b815260206004820152601b60248201527f6e65737465642e757365722e616c726564792e646574616368656400000000006044820152606490fd5b805490811561301257600019918201916130028383612bd7565b909182549160031b1b1916905555565b634e487b7160e01b600052603160045260246000fd5b91909160019261304961119e85610f91856000526007602052604060002090565b6130546111d3614371565b826131c7575060029261307e84613075846000526007602052604060002090565b01541515612f9c565b6000815b6130aa575b505060006127e0936130a3836000526007602052604060002090565b01556132f8565b6003806130d7876130c5876000526007602052604060002090565b01546000526007602052604060002090565b01548210156131c1578361311161310784846131018b6130c5876000526007602052604060002090565b01612bd7565b90549060031b1c90565b146131265750613120906129e4565b81613082565b600092508061319d8793612c1c6131836131078961317d876131766127e09f6130c56131bb9c613164836130c5896000526007602052604060002090565b01956000526007602052604060002090565b01546127e2565b90612bd7565b9184613101886130c58c6000526007602052604060002090565b6131b5836130c5876000526007602052604060002090565b01612fe8565b93613087565b50613087565b6127e09350613248906131f160026131e9856000526007602052604060002090565b015415612f04565b6001600160a01b038116600090815260046020526040902061322e906132299054600052600760205260ff6001604060002001541690565b612f50565b6001600160a01b0316600090815260046020526040902090565b54600261325f836000526007602052604060002090565b0155613280816003612cf360026130c5846000526007602052604060002090565b6132f8565b6040519061329282611606565b600e82526d6c766c62732875696e743235362960901b6020830152565b604051906132bc82611606565b600f82526e6c766c7174792875696e743235362960881b6020830152565b60ff1660ff81146124f85760010190565b80156124f8576000190190565b6133b560059161331683610a3a836000526007602052604060002090565b9060409081519161335760209380613335868201906000602083019252565b0395613349601f199788810184528361165a565b613351613285565b9061466f565b9361339f61337388610a3a866000526007602052604060002090565b8351906133978261338b898201906000602083019252565b0385810184528361165a565b6133516132af565b9260029687916000526007602052604060002090565b0154946001978896875b6133d1575b5050505050505050505050565b600f60ff8916111580613572575b1561356d578886888d888c61340561048289610a3a8a6000526007602052604060002090565b613435575b505050505061342661342e926000526007602052604060002090565b0154976132da565b96896133bf565b926114d66134ae9693610a8c936134a0979661345f8c610a3a8d6000526007602052604060002090565b96549151978895637b058ac160e01b908701528d60248701939095949160809360ff9160a08701988752602087015216604085015260608401521515910152565b888082518301019101612eee565b908c1561351e57908a915b8082116134d757505061342661342e925b92505086888d888c61340a565b6134e29192506129e4565b61350a816134fb8d546000526008602052604060002090565b90600052602052604060002090565b61351481546124ea565b9055908a916134b9565b908a915b81811161353757505061342661342e926134ca565b613554816134fb6135659495546000526008602052604060002090565b61355e81546127e2565b90556132eb565b908a91613522565b6133c4565b508015156133df565b9061010080838303126103345781601f8401121561033457604051926135a0846115e9565b8391810192831161033457905b8282106135ba5750505090565b81518152602091820191016135ad565b604051906135d782611606565b600f82526e66726565496e74657276616c73282960881b6020830152565b6000805492939261360e906001600160a01b0316610482565b90604091825180809263cfbffe5360e01b8252602092839160049586915afa801561056e576136509185916137ef575b50613647612394565b906133516135ca565b839784965b600f881115806137e6575b156137da57898883898760059461368861048287610a3a8a6000526007602052604060002090565b6136ba575b50505050505060026136ac6136b4926000526007602052604060002090565b0154976129e4565b96613655565b888515968715806137d1575b80156137ca575b6136d9575b505061368d565b926104e561374f9593610a8c9361370261375d9997610a3a8e6000526007602052604060002090565b9560029a8b549151988996630fe4bc4560e11b9088015260248701919260c093969594919660e0840197600085526000602086015260408501526060840152608083015260a08201520152565b878082518301019101612eee565b926137c1575b8c156137b1575b80831161377e57508389878e888e956136d2565b613787906129e4565b6137a0816134fb84546000526008602052604060002090565b6137aa81546124ea565b905561376a565b87831061376a579b50819b61376a565b9b50819b613763565b508d6136cd565b508515156136c6565b50505050505050509050565b50801515613660565b6138069150833d851161056757610558818361165a565b3861363e565b6000549193929091613826906001600160a01b0316610482565b906004602060409384519283809263cfbffe5360e01b82525afa801561056e5761385a916000916139f55750613647612394565b6000956000945b600f861115806139ec575b156139e257858486848b87600561389461048282610a3a8b6000526007602052604060002090565b6138c7575b5050505050505060026138b96138c1926000526007602052604060002090565b0154956129e4565b94613861565b861515806139da575b80156139d1575b1561389957926104e56139509593610a8c9361390561395f9997610a3a8d6000526007602052604060002090565b9560029a8b549151988996630fe4bc4560e11b6020890152602488019260c094919796959260e085019885526020850152600060408501526060840152608083015260a08201520152565b60208082518301019101612eee565b919088156139c8575b8a156139b7575b8083116139845750508486848b878b95613899565b61398d906129e4565b6139a6816134fb84546000526008602052604060002090565b6139b081546124ea565b905561396f565b6004831061396f579950819961396f565b99508199613968565b508315156138d7565b5060006138d0565b5050505050509050565b5080151561386c565b613806915060203d60201161056757610558818361165a565b15613a1557565b60405162461bcd60e51b81526020600482015260126024820152716e65737465642e696e76616c69642e61676560701b6044820152606490fd5b60405190613a5c82611606565b601882527f6765744261746368526f79616c7479436c6175736573282900000000000000006020830152565b6102a09081818403126103345782601f82011215610334576040805193613aae8561163e565b849383019281841161033457935b838510613acb57505050505090565b606085830312610334578251606091613ae3826115c8565b8651825260209182880151838201528588015186820152815201940193613abc565b906007811015612bef5760051b0190565b90816064029160648304036124f857565b818102929181159184041417156124f857565b8115613b44570490565b634e487b7160e01b600052601260045260246000fd5b613b656111d3614371565b613b7b600254613b76811515613a0e565b6127e2565b600054613b90906001600160a01b0316610482565b90604051809263cfbffe5360e01b825281600460209586935afa90811561056e57613be691613bd891600091613ca7575b50613bca613a4f565b613bd2612381565b9161452a565b838082518301019101613a88565b613bfa82600052600c602052604060002090565b5460015b6007811115613c0e575050505050565b80613c2a613c93926134fb876000526008602052604060002090565b548015613ca157613c43613c3d836127e2565b86613b05565b51878151928315613c9857613c6a613c6f92613c62613c75968a613b27565b940151613b16565b613b27565b90613b3a565b613c8d826134fb886000526009602052604060002090565b556129e4565b613bfe565b505050506129e4565b506129e4565b613cbe9150853d871161056757610558818361165a565b38613bc1565b60405190613cd1826115e9565b610100368337565b805115612bef5760200190565b805160011015612bef5760400190565b805160021015612bef5760600190565b805160031015612bef5760800190565b805160041015612bef5760a00190565b805160051015612bef5760c00190565b805160061015612bef5760e00190565b8051821015612bef5760209160051b010190565b60025480600052600c6020526040600020549182018092116124f857600052600c602052604060002055565b60025480600052600d6020526040600020549182018092116124f857600052600d602052604060002055565b60025480600052600e6020526040600020549182018092116124f857600052600e602052604060002055565b60025480600052600f60205260406000205490600182018092116124f857600052600f602052604060002055565b9080600052600c6020526040600020549182018092116124f857600052600c602052604060002055565b9080600052600e6020526040600020549182018092116124f857600052600e602052604060002055565b9080600052600f6020526040600020549182018092116124f857600052600f602052604060002055565b613e9561058f614128565b613e9e33614253565b8015613ff7575b613eae9061258f565b60008054909190613ec7906001600160a01b0316610482565b604092835192839263111ea8c160e21b845283600460209687935afa92831561056e578293613fd8575b50815b8151811015613fd057613f078183613d46565b518651868101828152819003808252601f1991613f3991613f2b906020018261165a565b613f3361405e565b8861466f565b613f58613f5084600052600c602052604060002090565b9182546124fd565b9055845b878960088310613f79575050505050613f74906129e4565b613ef4565b5190810184815260208101839052613fcb9291613fb391613fa59082906040010386810183528261165a565b613fad61408e565b8a61466f565b613c8d826134fb876000526008602052604060002090565b613f5c565b505050505050565b613ff0919350843d861161056757610558818361165a565b9138613ef1565b50600054604051630536340960e21b8152906001600160a01b03906020908390600490829085165afa90811561056e57613eae9260009261403e575b501633149050613ea5565b61405791925060203d811161056757610558818361165a565b9038614033565b6040519061406b82611606565b6014825273676574627573696e6573732875696e743235362960601b6020830152565b6040519061409b82611606565b601d82527f67657472616e6b436f756e742875696e743235362c75696e74323536290000006020830152565b156140ce57565b60405162461bcd60e51b815260206004820152601960248201527f6f776e2e7361666567756172642e63616c6c2e6661696c6564000000000000006044820152606490fd5b908160209103126103345751610925816119c9565b600054604051634bf9c0ad60e11b8152906020908190839060049082906001600160a01b03165afa91821561056e576109259261419e916000916141b9575b5060405161417481611606565b6008815267697353616665282960c01b848201526040519161419583611622565b60008352614555565b9190806141af575b610512906140c7565b50815181146141a6565b6141d09150833d851161056757610558818361165a565b38614167565b604051906141e382611606565b601582527469735365637572654261736528616464726573732960581b6020830152565b1561420e57565b60405162461bcd60e51b815260206004820152601a60248201527f6f776e2e736563757265626173652e63616c6c2e6661696c65640000000000006044820152606490fd5b6000546001600160a01b0316604051918291634bf9c0ad60e11b835282600460209485935afa92831561056e57610925936142c1926104e5926000926142dc575b506040516001600160a01b0390911685820190815290926142b9918491602090910190565b6104fb6141d6565b9190806142d2575b61051290614207565b50815181146142c9565b6142b99192506142f890863d881161056757610558818361165a565b9190614294565b6040519061430c82611606565b601182527069735369676e657228616464726573732960781b6020830152565b1561433357565b60405162461bcd60e51b81526020600482015260166024820152751bdddb8b9cda59db995c8b98d85b1b0b99985a5b195960521b6044820152606490fd5b60005460405163111ea8c160e21b815290602090829060049082906001600160a01b03165afa801561056e57610925916000916143de575b506040516143b681611606565b6005815264616765282960d81b6020820152604051916143d583611622565b6000835261466f565b6143f6915060203d811161056757610558818361165a565b386143a9565b6040519061440982611606565b6011825270697364656c656761746f724e6f6465282960781b6020830152565b3d15614454573d9061443a82612365565b91614448604051938461165a565b82523d6000602084013e565b606090565b600080546040516311be646b60e21b815290602090829060049082906001600160a01b03165afa90811561056e57828481938293839161450c575b505af161449f614429565b50156144d55760405190815233907fcdcc745fe377b103b45fa0cec23ae3ef93d6fc6a84a01f0d18c40b354dd1d5d890602090a2565b60405162461bcd60e51b815260206004820152600f60248201526e1bdddb8b989d5c9b8b99985a5b1959608a1b6044820152606490fd5b614524915060203d811161056757610558818361165a565b38614494565b906145359291614555565b9060009015614542575090565b604051915061455082611622565b815290565b9190823b156145d6578051906020918263ffffffff60e01b92012016916040519180830193845281519160005b8381106145c25750505091816145af6024826000979596889701878382015203600481018452018261165a565b5191620dbba0fa6145be614429565b9091565b818101830151858201602401528201614582565b5050506000906040516145e881611622565b6000815290565b92916145fd91600094614555565b9080614628575b61460b5750565b909150602081805181010312610334576020015161048281610339565b506020815114614604565b929161464191600094614555565b9080614664575b61464f5750565b61092591925060208082518301019101614113565b506020815114614648565b929161467d91600094614555565b90806146a2575b61468b5750565b909150602081805181010312610334576020015190565b506020815114614684565b906020825192015163ffffffff60e01b9081811693600481106146cf57505050565b60040360031b82901b16169150565b6001600160a01b0381161561475f57600080918351908260208601915af190614705614429565b911561470f575090565b8051600091906004116147595761472691506146ad565b8151156147365750805190602001fd5b604051630870274d60e21b81526001600160e01b03199091166004820152602490fd5b50614726565b60405162461bcd60e51b81526020600482015260126024820152711bdddb8b9a5b9d985b1a590b9d185c99d95d60721b6044820152606490fdfea2646970667358221220df62269dcb3441b12b0bb15daa9080094450819a6499df3814cd7671cae260cd64736f6c63430008140033","linkReferences":{}},"methodIdentifiers":{"dAOAssembly()":"14837455","daocore()":"14d8d024","nested741()":"45cff900","old741()":"5540c5ac","price()":"a035b1fe"},"id":34}