{"abi":[{"type":"constructor","inputs":[{"name":"_hex","type":"address","internalType":"address"},{"name":"_price","type":"address","internalType":"address"},{"name":"_old741","type":"address","internalType":"address"}],"stateMutability":"nonpayable"},{"type":"function","name":"dAOAssembly","inputs":[],"outputs":[{"name":"","type":"address","internalType":"address"}],"stateMutability":"view"},{"type":"function","name":"daocore","inputs":[],"outputs":[{"name":"","type":"address","internalType":"address"}],"stateMutability":"view"},{"type":"function","name":"nested741","inputs":[],"outputs":[{"name":"","type":"address","internalType":"address"}],"stateMutability":"view"},{"type":"function","name":"old741","inputs":[],"outputs":[{"name":"","type":"address","internalType":"address"}],"stateMutability":"view"},{"type":"function","name":"price","inputs":[],"outputs":[{"name":"","type":"address","internalType":"address"}],"stateMutability":"view"}],"bytecode":{"object":"0x6080346101b757601f61827938819003918201601f19168301926001600160401b03929091838511838610176101a15781606092849260409788528339810103126101b75761004d816101bc565b6100648461005d602085016101bc565b93016101bc565b9160018060a01b03199273c0cee8b561cc4f60869776ca5b0b7a295e04f5af84600154161760015585516111db9586820196828810828911176101a15761032c83396001600160a01b039485168088526000979092908190036020019088f080156101835785168660035416176003558751615126808201908282108483111761018d576020918391613153833985815203019088f08015610183578516866002541617600255875191611c4c808401928484109084111761016f579183916020936115078439815203019086f080156101655790838092168560045416176004551683600154161760015516908254161790555161015b90816101d18239f35b86513d87823e3d90fd5b634e487b7160e01b89526041600452602489fd5b88513d89823e3d90fd5b634e487b7160e01b8a52604160045260248afd5b634e487b7160e01b600052604160045260246000fd5b600080fd5b51906001600160a01b03821682036101b75756fe608080604052600436101561001357600080fd5b600090813560e01c90816314837455146100fc5750806314d8d024146100d357806345cff900146100aa5780635540c5ac146100815763a035b1fe1461005857600080fd5b3461007e578060031936011261007e57546040516001600160a01b039091168152602090f35b80fd5b503461007e578060031936011261007e576001546040516001600160a01b039091168152602090f35b503461007e578060031936011261007e576002546040516001600160a01b039091168152602090f35b503461007e578060031936011261007e576004546040516001600160a01b039091168152602090f35b9050346101215781600319360112610121576003546001600160a01b03168152602090f35b5080fdfea26469706673582212206e4bc006c1fa7781aeb62cfd3f3991becffaf677ca1f211ed917334dd1e1ea2264736f6c634300081400336080346100ca57601f6111db38819003918201601f19168301916001600160401b038311848410176100cf578084926020946040528339810103126100ca57516001600160a01b038116908190036100ca5780156100855760018060a01b031933816001541617600155600054161760005560006004556040516110f590816100e68239f35b60405162461bcd60e51b815260206004820152601360248201527f6f776e2e696e76616c69642e68657862617365000000000000000000000000006044820152606490fd5b600080fd5b634e487b7160e01b600052604160045260246000fdfe60806040526004361015610018575b361561001657005b005b60003560e01c806312065fe0146101085780631f185d161461010357806325924f34146100fe5780633b9b7955146100f957806361b7fbd9146100f45780638da5cb5b146100ef578063a1f7f539146100ea578063af484526146100e5578063b90306ad146100e0578063c54e44b0146100db578063c89b84fd146100d6578063dbac26e9146100d1578063e01ad5fd146100cc578063e0a9bc2b146100c75763fdc10bc90361000e5761096c565b6108ca565b61082b565b6107e9565b6106d1565b610635565b61052e565b610473565b6103bc565b610393565b6102bd565b61028a565b610246565b61013a565b3461012457600036600319011261012457602047604051908152f35b600080fd5b6001600160a01b0381160361012457565b34610124576020806003193601126101245760049081359061015b82610129565b8061016f61016a6000546107dd565b6107dd565b604051634bf9c0ad60e11b815294859182905afa918215610241576101b46101ee936101d0926102009660009261020e575b506101c290604051938491878301610277565b03601f1981018452836109e0565b6101ca610dc8565b90610f67565b919080610204575b6101e190610df5565b8082518301019101610d39565b60405191829182901515815260200190565b0390f35b50815181146101d8565b6101c291925061023390863d881161023a575b61022b81836109e0565b810190610a03565b91906101a1565b503d610221565b610a1b565b3461012457602036600319011261012457602061026d60043561026881610129565b610af5565b6040519015158152f35b6001600160a01b03909116815260200190565b34610124576000366003190112610124576000546040516001600160a01b039091168152602090f35b8015150361012457565b34610124576040366003190112610124576004356102da81610129565b6024356102e6816102b3565b60018060a01b03600092600460208386541660405192838092630536340960e21b82525afa801561024157610326918691610375575b5083163314610c8f565b16825260036020526040822060ff1981541660ff8315151617905560001461036257600454600019811461035d5760010160045580f35b610c6b565b600454801561035d576000190160045580f35b61038d915060203d811161023a5761022b81836109e0565b3861031c565b34610124576000366003190112610124576001546040516001600160a01b039091168152602090f35b346101245760003660031901126101245760005460405163d1f956b160e01b815290602090829060049082906001600160a01b03165afa908115610241576102009161044591600091610455575b50604051610417816109a5565b601381527267657464656c656761746f72436f756e74282960681b602082015261043f610a42565b91611081565b6040519081529081906020820190565b61046d915060203d811161023a5761022b81836109e0565b3861040a565b34610124576020806003193601126101245760049081359061049482610129565b806104a361016a6000546107dd565b604051634bf9c0ad60e11b815294859182905afa918215610241576101b46101ee936104f0926102009660009261050b575b506104e890604051938491878301610277565b6101ca610d4e565b919080610501575b6101e190610d7f565b50815181146104f8565b6104e891925061052790863d881161023a5761022b81836109e0565b91906104d5565b34610124576020806003193601126101245760043560018060a01b0391600092808454169060405191630536340960e21b83528383600481845afa928315610241576004938593610589928992610616575b50163314610c8f565b6040516311be646b60e21b815292839182905afa918215610241578480856105c8958295839584926105f9575b50505af16105c2610ef9565b50610f29565b60405190815233907fcdcc745fe377b103b45fa0cec23ae3ef93d6fc6a84a01f0d18c40b354dd1d5d890602090a280f35b61060f9250803d1061023a5761022b81836109e0565b38806105b6565b61062e919250853d871161023a5761022b81836109e0565b9038610580565b346101245760203660031901126101245760043561065281610129565b803b600061065f82610a27565b9261066d60405194856109e0565b82845260208401903c602d81511061069657602a61020091015160601c60405191829182610277565b60405162461bcd60e51b81526020600482015260136024820152724e6f742061206d696e696d616c2070726f787960681b6044820152606490fd5b34610124576000806003193601126107da576106f061016a82546107dd565b60405163cfbffe5360e01b815260209290918383600481845afa801561024157610730859160049585916107bd575b50610728610a55565b61043f610a42565b916040519485809263ab6e844f60e01b82525afa8015610241576102009461044594610795949261079a575b50610787906101b461076c610e3a565b94604051958693840160209093929193604081019481520152565b61078f610c32565b90611081565b610c81565b8192506107b690610787923d851161023a5761022b81836109e0565b919061075c565b6107d49150833d851161023a5761022b81836109e0565b3861071f565b80fd5b6001600160a01b031690565b346101245760203660031901126101245760043561080681610129565b60018060a01b03166000526003602052602060ff604060002054166040519015158152f35b3461012457602080600319360112610124576004803561084a81610129565b60005460405163d1f956b160e01b81526001600160a01b03949093909182918591829088165afa90811561024157610200946101ee946000936108ab575b50604051931681840152825261089d826109a5565b6108a5610ec5565b90611045565b6108c3919350823d841161023a5761022b81836109e0565b9138610888565b3461012457600036600319011261012457600054604051634bf9c0ad60e11b8152906020908190839060049082906001600160a01b03165afa908115610241576109346101ee926102009460009161094f575b50610926610ccd565b61092e610a42565b91610f67565b919080610945575b6101e190610cf1565b508151811461093c565b6109669150833d851161023a5761022b81836109e0565b3861091d565b34610124576000366003190112610124576020610987610e3a565b604051908152f35b634e487b7160e01b600052604160045260246000fd5b604081019081106001600160401b038211176109c057604052565b61098f565b602081019081106001600160401b038211176109c057604052565b601f909101601f19168101906001600160401b038211908210176109c057604052565b908160209103126101245751610a1881610129565b90565b6040513d6000823e3d90fd5b6001600160401b0381116109c057601f01601f191660200190565b60405190610a4f826109c5565b60008252565b60405190610a62826109a5565b600c82526b72616e6b666f7244414f282960a01b6020830152565b60405190610a8a826109a5565b601682527567657455736572546f53746f7228616464726573732960501b6020830152565b60405190610abc826109a5565b600682526572616e6b282960d01b6020830152565b60405190610ade826109a5565b600882526769734c6f636b282960c01b6020830152565b610b0361016a6000546107dd565b9060405163cfbffe5360e01b81526020908181600481875afa801561024157610b3a83916004936000916107bd5750610728610a55565b946040519283809263ab6e844f60e01b82525afa801561024157610b85928492600092610c0f575b50610b77906101b46040519485928301610277565b610b7f610a7d565b90611001565b916001600160a01b03831615610c0757610bc9610bb2610ba3610aaf565b610bab610a42565b9086611081565b93610bbb610ad1565b610bc3610a42565b91611045565b9210159182610bfe575b5081610bdd575090565b6001600160a01b031660009081526003602052604090205460ff1615905090565b15915038610bd3565b505050600090565b819250610c2b90610b77923d851161023a5761022b81836109e0565b9190610b62565b60405190610c3f826109a5565b601d82527f67657472616e6b636f756e742875696e743235362c75696e74323536290000006020830152565b634e487b7160e01b600052601160045260246000fd5b906003820180921161035d57565b15610c9657565b60405162461bcd60e51b815260206004820152600f60248201526e6f776e2e6e6f6e617574682e44414f60881b6044820152606490fd5b60405190610cda826109a5565b6008825267697353616665282960c01b6020830152565b15610cf857565b60405162461bcd60e51b81526020600482015260196024820152781bdddb8b9cd8599959dd585c990b98d85b1b0b99985a5b1959603a1b6044820152606490fd5b908160209103126101245751610a18816102b3565b60405190610d5b826109a5565b601582527469735365637572654261736528616464726573732960581b6020830152565b15610d8657565b60405162461bcd60e51b815260206004820152601a6024820152791bdddb8b9cd958dd5c9958985cd94b98d85b1b0b99985a5b195960321b6044820152606490fd5b60405190610dd5826109a5565b601182527069735369676e657228616464726573732960781b6020830152565b15610dfc57565b60405162461bcd60e51b81526020600482015260166024820152751bdddb8b9cda59db995c8b98d85b1b0b99985a5b195960521b6044820152606490fd5b60005460405163111ea8c160e21b815290602090829060049082906001600160a01b03165afa801561024157610a1891600091610ea7575b50604051610e7f816109a5565b6005815264616765282960d81b602082015260405191610e9e836109c5565b60008352611081565b610ebf915060203d811161023a5761022b81836109e0565b38610e72565b60405190610ed2826109a5565b6018825277697364656c656761746f724e6f646528616464726573732960401b6020830152565b3d15610f24573d90610f0a82610a27565b91610f1860405193846109e0565b82523d6000602084013e565b606090565b15610f3057565b60405162461bcd60e51b815260206004820152600f60248201526e1bdddb8b989d5c9b8b99985a5b1959608a1b6044820152606490fd5b9190823b15610fe8578051906020918263ffffffff60e01b92012016916040519180830193845281519160005b838110610fd4575050509181610fc1602482600097959688970187838201520360048101845201826109e0565b5191620dbba0fa610fd0610ef9565b9091565b818101830151858201602401528201610f94565b505050600090604051610ffa816109c5565b6000815290565b929161100f91600094610f67565b908061103a575b61101d5750565b90915060208180518101031261012457602001516107dd81610129565b506020815114611016565b929161105391600094610f67565b9080611076575b6110615750565b610a1891925060208082518301019101610d39565b50602081511461105a565b929161108f91600094610f67565b90806110b4575b61109d5750565b909150602081805181010312610124576020015190565b50602081511461109656fea2646970667358221220b38ec9a255b49d2b5435c2c6ae4f7260d7e2cb690a546b506f99290f10e3237d64736f6c634300081400336080346100cf57601f611c4c38819003918201601f19168301916001600160401b038311848410176100d4578084926020946040528339810103126100cf57516001600160a01b038116908190036100cf57801561008a5760018060a01b031933816001541617600155600054161760005560336003556003600455604051611b6190816100eb8239f35b60405162461bcd60e51b815260206004820152601360248201527f6f776e2e696e76616c69642e68657862617365000000000000000000000000006044820152606490fd5b600080fd5b634e487b7160e01b600052604160045260246000fdfe60806040526004361015610018575b361561001657005b005b60003560e01c8063013cf08b1461016857806312065fe0146101635780631f185d161461015e5780633595df1a146101595780633b9b795514610154578063438596321461014f57806365153c4b1461014a5780638da5cb5b1461014557806398e527d314610140578063995e43391461013b578063a1f7f53914610136578063af48452614610131578063b90306ad1461012c578063c54e44b014610127578063c7f758a814610122578063c9d27afe1461011d578063d153356b14610118578063d3a3084914610113578063e01ad5fd1461010e578063e0a9bc2b146101095763fdc10bc90361000e57610f59565b610f3e565b610f17565b610ccf565b610c00565b610aaa565b610a3b565b610961565b6108ae565b6107ac565b610789565b610705565b6106e7565b6106be565b6105cd565b610571565b610548565b6104f8565b6104c7565b61049a565b6103e6565b60055481101561018c576005600052600b602060002091020190600090565b634e487b7160e01b600052603260045260246000fd5b90600182811c921680156101d2575b60208310146101bc57565b634e487b7160e01b600052602260045260246000fd5b91607f16916101b1565b90600092918054916101ed836101a2565b91828252600193848116908160001461024f575060011461020f575b50505050565b90919394506000526020928360002092846000945b83861061023b575050505001019038808080610209565b805485870183015294019385908201610224565b9294505050602093945060ff191683830152151560051b01019038808080610209565b634e487b7160e01b600052604160045260246000fd5b602081019081106001600160401b038211176102a357604052565b610272565b604081019081106001600160401b038211176102a357604052565b601f909101601f19168101906001600160401b038211908210176102a357604052565b906103016102fa92604051938480926101dc565b03836102c3565b565b60005b8381106103165750506000910152565b8181015183820152602001610306565b9060209161033f81518092818552858086019101610303565b601f01601f1916010190565b98929561039e959e9d9b956103de99936101809c966103019f9a949960408e61037f6103d49d6101a0808452830190610326565b6001600160a01b03909516602082015201528c820360608e0152610326565b60808b019f909f5260a08a015260c089015260e088015261010087015215156101208601526001600160a01b0316610140850152565b1515610160830152565b019015159052565b34610495576020366003190112610495576004356005548110156104955761040d9061016d565b5060405190610420826102fa81846101dc565b600181015460028201546001600160a01b039182169390926104919290610449600382016102e6565b9560048201549160058101546006820154600783015491600a6008850154940154956040519b8c9b8c9760ff8a60b01c169b60ff808c60a81c169c8c60081c169b169961034b565b0390f35b600080fd5b3461049557600036600319011261049557602047604051908152f35b6001600160a01b0381160361049557565b346104955760203660031901126104955760206104ee6004356104e9816104b6565b6115ec565b6040519015158152f35b3461049557602036600319011261049557600435600019810190811161053057600561052560209261016d565b500154604051908152f35b61108f565b6001600160a01b03909116815260200190565b34610495576000366003190112610495576000546040516001600160a01b039091168152602090f35b3461049557604036600319011261049557600435602435610591816104b6565b6000198201918211610530576105b760ff9160096105b060209561016d565b50016111ea565b54166040519015158152f35b8015150361049557565b34610495576040366003190112610495576004356024356105ed816105c3565b6105f6336115ec565b15610684576000198201918083116105305761067f6106176100169461016d565b5061063260ff61062a33600985016111ea565b541615611201565b61066b600a8201549161064b60ff8460b01c16156111a6565b61065760ff8416611127565b6007610661611686565b9101541115611282565b60081c6001600160a01b0316331415611241565b6112d3565b60405162461bcd60e51b815260206004820152601260248201527137bbb71734b73b30b634b21739b4b3b732b960711b6044820152606490fd5b34610495576000366003190112610495576001546040516001600160a01b039091168152602090f35b34610495576000366003190112610495576020600554604051908152f35b346104955760203660031901126104955760043560001981019081116105305761072e9061016d565b506004810154600682015460078301546008840154600a9094015460408051948552602085019390935291830152606082019290925260ff60a883901c81161515608083015260b09290921c909116151560a082015260c090f35b346104955760003660031901126104955760206107a46117ee565b604051908152f35b3461049557602080600319360112610495576004908135906107cd826104b6565b60005481906001600160a01b0316604051634bf9c0ad60e11b815294859182905afa9182156108a95761082061085a9361083c9261049196600092610876575b5061082e90604051938491878301610535565b03601f1981018452836102c3565b610836611500565b9061197f565b91908061086c575b61084d90611531565b808251830101910161143d565b60405190151581529081906020820190565b5081518114610844565b61082e91925061089b90863d88116108a2575b61089381836102c3565b8101906113b6565b919061080d565b503d610889565b6113ce565b3461049557602036600319011261049557600054604051630536340960e21b8152906001600160a01b03906020908390600490829085165afa9182156108a957600092610941575b503391160361090a576100166004356118ae565b60405162461bcd60e51b815260206004820152600f60248201526e6f776e2e6e6f6e617574682e44414f60881b6044820152606490fd5b61095a91925060203d81116108a25761089381836102c3565b90386108f6565b346104955760203660031901126104955760043561097e816104b6565b803b600061098b826113da565b9261099960405194856102c3565b82845260208401903c602d8151106109c257602a61049191015160601c60405191829182610535565b60405162461bcd60e51b81526020600482015260136024820152724e6f742061206d696e696d616c2070726f787960681b6044820152606490fd5b93610a166080949796939260a0875260a0870190610326565b6001600160a01b03928316602087015260408601979097521660608401521515910152565b3461049557602036600319011261049557600435600019810190811161053057610a649061016d565b5060018060a01b0361049181600184015416926102fa6002820154610a94600a84015493604051938480926101dc565b60405195869560ff85169460081c1692866109fd565b3461049557604036600319011261049557600435602435610aca816105c3565b610ad3336115ec565b8015610bdd575b610ae3906110d3565b610bb2610ba5610afa610af585611118565b61016d565b50600a81015490610b0d60ff8316611127565b610b246007820154610b1d611686565b1115611167565b610b3460ff8360b01c16156111a6565b610b5f600982019261066b610b5a610b56610b4f33886111ea565b5460ff1690565b1590565b611201565b60008515610bd8575060015b610b7d60ff60048401921682546110c6565b9055600085610bca5750610b9c60ff60066001935b01921682546110c6565b905533906111ea565b805460ff19166001179055565b610bbb336115ec565b610bc157005b610016916112d3565b60ff6006610b9c9293610b92565b610b6b565b50610be6611452565b8015610ada5750610ae3610bf933611711565b9050610ada565b3461049557604036600319011261049557610c19611452565b15610c6857333003610c3357600480356003556024359055005b60405162461bcd60e51b815260206004820152600d60248201526c64616f2e66616b652e636f726560981b6044820152606490fd5b60405162461bcd60e51b81526020600482015260126024820152716f776e2e696e76616c69642e69735361666560701b6044820152606490fd5b9181601f84011215610495578235916001600160401b038311610495576020838186019501011161049557565b346104955760a0366003190112610495576001600160401b0360043581811161049557610d00903690600401610ca2565b602435610d0c816104b6565b60643584811161049557610d24903690600401610ca2565b9390926001600160a01b03831615610edd5760055491600160401b8310156102a357610d5760019384810160055561016d565b509682116102a357610d7382610d6d89546101a2565b89610f74565b600090601f8311600114610e635793600a969383610e4a999794610dd294610de398600092610e58575b5050600019600383901b1c191690821b1787555b860180546001600160a01b0319166001600160a01b03909216919091179055565b604435600285015560038401610fc8565b610e09610e02610dfd610df46117ee565b600354906110a5565b6110b8565b6064900490565b6008820155610e21608435610e1c611686565b6110c6565b6007820155018054610100600160a81b0319163360081b610100600160a81b0316178155610ba5565b600554604051908152602090f35b013590503880610d9d565b601f19831691610e7889600052602060002090565b92815b818110610ec757509484610dd294610de398948394610e4a9d9b98600a9d9a10610ead575b505050811b018755610db1565b0135600019600384901b60f8161c19169055388080610ea0565b8383013585559386019360209283019201610e7b565b60405162461bcd60e51b815260206004820152601260248201527137bbb7173232b330bab63a1739b2b73232b960711b6044820152606490fd5b346104955760203660031901126104955760206104ee600435610f39816104b6565b611711565b346104955760003660031901126104955760206104ee611452565b346104955760003660031901126104955760206107a4611686565b90601f8111610f8257505050565b600091825260208220906020601f850160051c83019410610fbe575b601f0160051c01915b828110610fb357505050565b818155600101610fa7565b9092508290610f9e565b9092916001600160401b0381116102a357610fed81610fe784546101a2565b84610f74565b6000601f8211600114611027578192939460009261101c575b50508160011b916000199060031b1c1916179055565b013590503880611006565b601f1982169461103c84600052602060002090565b91805b87811061107757508360019596971061105d575b505050811b019055565b0135600019600384901b60f8161c19169055388080611053565b9092602060018192868601358155019401910161103f565b634e487b7160e01b600052601160045260246000fd5b8181029291811591840414171561053057565b906063820180921161053057565b9190820180921161053057565b156110da57565b60405162461bcd60e51b815260206004820152601660248201527564616f2e6e6f6e617574682e64656c656761746f727360501b6044820152606490fd5b60001981019190821161053057565b1561112e57565b60405162461bcd60e51b815260206004820152601160248201527019185bcb9c1c9bdc0b9b9bdd195e1a5cdd607a1b6044820152606490fd5b1561116e57565b60405162461bcd60e51b815260206004820152601060248201526f19185bcb9d9bdd1a5b99cb995b99195960821b6044820152606490fd5b156111ad57565b60405162461bcd60e51b815260206004820152601560248201527419185bcb985b1c9958591e4b98dbdb5c1b195d1959605a1b6044820152606490fd5b9060018060a01b0316600052602052604060002090565b1561120857565b60405162461bcd60e51b815260206004820152601160248201527019185bcb985b1c9958591e4b9d9bdd1959607a1b6044820152606490fd5b1561124857565b60405162461bcd60e51b815260206004820152601260248201527119185bcb9d9bdd195c8b9c995cdd1c9a58dd60721b6044820152606490fd5b1561128957565b60405162461bcd60e51b815260206004820152601360248201527264616f2e6265666f72652e646561646c696e6560681b6044820152606490fd5b60001981146105305760010190565b610af56112df91611118565b50600581016112ee81546112c4565b8091556004541480156113ae575b611304575050565b600a8101805460ff60b01b1916600160b01b17815561136e92611349918161139b575b8161137157805460ff60a81b191691151560a81b60ff60a81b16919091179055565b60018101546001600160a01b03166113686003600284015493016102e6565b90611a6c565b50565b60048401546006850154109150805460ff60a81b191691151560a81b60ff60a81b16919091179055565b6004840154600885015411159150611327565b5081156112fc565b9081602091031261049557516113cb816104b6565b90565b6040513d6000823e3d90fd5b6001600160401b0381116102a357601f01601f191660200190565b156113fc57565b60405162461bcd60e51b81526020600482015260196024820152781bdddb8b9cd8599959dd585c990b98d85b1b0b99985a5b1959603a1b6044820152606490fd5b9081602091031261049557516113cb816105c3565b600054604051634bf9c0ad60e11b8152906020908190839060049082906001600160a01b03165afa9182156108a9576113cb926114c8916000916114e3575b5060405161149e816102a8565b6008815267697353616665282960c01b84820152604051916114bf83610288565b6000835261197f565b9190806114d9575b61084d906113f5565b50815181146114d0565b6114fa9150833d85116108a25761089381836102c3565b38611491565b6040519061150d826102a8565b601582527469735365637572654261736528616464726573732960581b6020830152565b1561153857565b60405162461bcd60e51b815260206004820152601a6024820152791bdddb8b9cd958dd5c9958985cd94b98d85b1b0b99985a5b195960321b6044820152606490fd5b60405190611587826102a8565b601182527069735369676e657228616464726573732960781b6020830152565b156115ae57565b60405162461bcd60e51b81526020600482015260166024820152751bdddb8b9cda59db995c8b98d85b1b0b99985a5b195960521b6044820152606490fd5b6000546001600160a01b0316604051918291634bf9c0ad60e11b835282600460209485935afa9283156108a9576113cb936116489261082092600092611663575b5061164090604051938491878301610535565b61083661157a565b919080611659575b61084d906115a7565b5081518114611650565b61164091925061167f90863d88116108a25761089381836102c3565b919061162d565b60005460405163111ea8c160e21b815290602090829060049082906001600160a01b03165afa80156108a9576113cb916000916116f3575b506040516116cb816102a8565b6005815264616765282960d81b6020820152604051916116ea83610288565b600083526119fd565b61170b915060203d81116108a25761089381836102c3565b386116be565b60005460405163d1f956b160e01b8152916020916001600160a01b039083908590600490829085165afa9384156108a9576000946117c9575b5060405191168282015281815261179c90611764816102a8565b604051611770816102a8565b6018815277697364656c656761746f724e6f646528616464726573732960401b8482015260009461197f565b9190806117bf575b6117ad57505090565b6113cb9250808251830101910161143d565b50808251146117a4565b61179c929194506117e690843d86116108a25761089381836102c3565b93909161174a565b60005460405163d1f956b160e01b815290602090829060049082906001600160a01b03165afa80156108a9576113cb91600091611860575b50604051611833816102a8565b601381527267657464656c656761746f72436f756e74282960681b6020820152604051916116ea83610288565b611878915060203d81116108a25761089381836102c3565b38611826565b3d156118a9573d9061188f826113da565b9161189d60405193846102c3565b82523d6000602084013e565b606090565b600080546040516311be646b60e21b815290602090829060049082906001600160a01b03165afa9081156108a9578284819382938391611961575b505af16118f461187e565b501561192a5760405190815233907fcdcc745fe377b103b45fa0cec23ae3ef93d6fc6a84a01f0d18c40b354dd1d5d890602090a2565b60405162461bcd60e51b815260206004820152600f60248201526e1bdddb8b989d5c9b8b99985a5b1959608a1b6044820152606490fd5b611979915060203d81116108a25761089381836102c3565b386118e9565b803b156119e457600092839263ffffffff60e01b906020815191012016906119d160246040518093602082019586526119c18151809260208686019101610303565b81010360048101845201826102c3565b5191620dbba0fa6119e061187e565b9091565b5050506000906040516119f681610288565b6000815290565b9291611a0b9160009461197f565b9080611a30575b611a195750565b909150602081805181010312610495576020015190565b506020815114611a12565b906020825192015163ffffffff60e01b908181169360048110611a5d57505050565b60040360031b82901b16169150565b9091906001600160a01b03811615611af157600091829184519160208601915af190611a9661187e565b9115611aa0575090565b805160009190600411611aeb57611ab79150611a3b565b815115611ac75750805190602001fd5b604051630870274d60e21b81526001600160e01b0319919091166004820152602490fd5b50611ab7565b60405162461bcd60e51b81526020600482015260126024820152711bdddb8b9a5b9d985b1a590b9d185c99d95d60721b6044820152606490fdfea2646970667358221220f2315d3e648ceea7fe7e23bc5335a91453d04dc9a2c2b4ccc359a665640c3a9964736f6c63430008140033608034620000d157601f6200512638819003918201601f19168301916001600160401b03831184841017620000d657808492602094604052833981010312620000d157516001600160a01b03811690819003620000d15780156200008c5760018060a01b031933816001541617600155600054161760005560016003556040516150399081620000ed8239f35b60405162461bcd60e51b815260206004820152601360248201527f6f776e2e696e76616c69642e68657862617365000000000000000000000000006044820152606490fd5b600080fd5b634e487b7160e01b600052604160045260246000fdfe60806040526004361015610018575b361561001657005b005b60003560e01c80629db65514610347578063033eeffb146103425780630e5fd00b1461033d57806312065fe0146103385780631bb49f02146103335780631c53c2801461032e5780631f185d16146103295780632a687c87146103245780632fefc0bf1461031f578063307673e81461031a57806332ff4eab1461031557806333b59a5b146103105780633a7b55b81461030b5780633b9b7955146103065780633baee0ea14610301578063419cb27b146102fc57806342cc9d57146102f757806344585097146102f25780634f0f4aa9146102ed578063509222cd146102e857806350db85d1146102e357806361ea7208146102de578063629d671e146102d957806365d2fbd3146102d45780636a811244146102cf5780636fb412ab146102ca57806376fe6c45146102c55780637bb98498146102c057806380f85e33146102bb578063849c22ad146102b6578063896c354a146102b15780638da5cb5b146102ac57806395f72f49146102a757806398b3f215146102a2578063a1f7f5391461029d578063a89d693b14610298578063af48452614610293578063b1c490791461028e578063b366335e14610289578063b90306ad14610284578063c54e44b01461027f578063c871372b1461027a578063d1e0bbc614610275578063dcb3fc4a14610270578063e01ad5fd1461026b578063e0a9bc2b14610266578063eb95c66214610261578063eb9e9e2c1461025c578063f3ca712414610257578063fd38093b146102525763fdc10bc90361000e576127b9565b61274b565b61271f565b612574565b612548565b61252d565b61248e565b6122f9565b6122bf565b612242565b6121a6565b6120f3565b612049565b611f1d565b611ef6565b611e2f565b611d49565b611d1d565b611c73565b611c4a565b611c0a565b611bdb565b611ba1565b611af7565b611aa8565b611961565b611488565b611224565b6111e7565b6111af565b6110f7565b6110a4565b610fdb565b610fa4565b610f75565b610f4d565b610b64565b610b13565b6109f4565b61091c565b610872565b6107c7565b610790565b6106e6565b6105f3565b6105bf565b6104ea565b6104b5565b610466565b61040a565b34610405576020366003190112610405576103686103636149b5565b612ae7565b61037133614add565b8015610389575b61038190612b49565b6100166143e7565b50600054604051630536340960e21b8152906001600160a01b03906020908390600490829085165afa90811561040057610381926000926103d0575b501633149050610378565b6103f291925060203d81116103f9575b6103ea8183612863565b810190612b28565b90386103c5565b503d6103e0565b612b3d565b600080fd5b3461040557602036600319011261040557600435600052600b6020526020604060002054604051908152f35b6001600160a01b031690565b6001600160a01b0381160361040557565b6001600160a01b03909116815260200190565b3461040557602036600319011261040557602060043561048581610442565b60018060a01b03809116600052600482526040600020546000526007825260046040600020015416604051908152f35b3461040557600036600319011261040557602047604051908152f35b9081526001600160a01b03909116602082015260400190565b346104055760203660031901126104055760043561050781610442565b60018060a01b038060009216825260046020526040822054825260076020526040600281842001549283815260056020522054169061054b604051928392836104d1565b0390f35b6000526010602052604060002090565b6000526009602052604060002090565b6000526007602052604060002090565b6000526005602052604060002090565b6000526008602052604060002090565b600052600a602052604060002090565b600052600b602052604060002090565b34610405576020366003190112610405576004356000526005602052602060018060a01b0360406000205416604051908152f35b34610405576020806003193601126104055760049081359061061482610442565b80610628610623600054610436565b610436565b604051634bf9c0ad60e11b815294859182905afa9182156104005761066d6106a7936106899261054b966000926106c3575b5061067b90604051938491878301610453565b03601f198101845283612863565b610683614b80565b90614ddd565b9190806106b9575b61069a90614bad565b80825183010191016149a1565b60405190151581529081906020820190565b5081518114610691565b61067b9192506106df90863d88116103f9576103ea8183612863565b919061065a565b34610405576040366003190112610405576107026103636149b5565b61070b33614add565b8015610729575b61071b90612b49565b61001660243560043561475c565b50600054604051630536340960e21b8152906001600160a01b03906020908390600490829085165afa9081156104005761071b92600092610770575b501633149050610712565b61078991925060203d81116103f9576103ea8183612863565b9038610765565b34610405576020366003190112610405576004356000526007602052602060018060a01b0360056040600020015416604051908152f35b346104055760203660031901126104055760043560009033825260046020526107fb6107f6604084205461466f565b6133be565b808252601060205260ff600260408420015460081c1615610837576108226108349161054f565b60026000918281558260018201550155565b80f35b60405162461bcd60e51b81526020600482015260136024820152721b995cdd19590b9c995c4b9b9bdd195e1a5cdd606a1b6044820152606490fd5b346104055760403660031901126104055761088e6103636149b5565b61089733614add565b80156108b5575b6108a790612b49565b6100166024356004356147b0565b50600054604051630536340960e21b8152906001600160a01b03906020908390600490829085165afa908115610400576108a7926000926108fc575b50163314905061089e565b61091591925060203d81116103f9576103ea8183612863565b90386108f1565b34610405576040366003190112610405576109386103636149b5565b61094133614add565b801561095f575b61095190612b49565b610016602435600435614843565b50600054604051630536340960e21b8152906001600160a01b03906020908390600490829085165afa90811561040057610951926000926109a6575b501633149050610948565b6109bf91925060203d81116103f9576103ea8183612863565b903861099b565b60e0810192916000915b600783106109dd57505050565b6001908251815260208091019201920191906109d0565b346104055760203660031901126104055761054b600435610b01610af160405192610a1e84612812565b60e0368537610a3f610a2f8261055f565b6001600052602052604060002090565b548452610a5e610a4e8261055f565b6002600052602052604060002090565b546020850152610a80610a708261055f565b6003600052602052604060002090565b546040850152610aa2610a928261055f565b6004600052602052604060002090565b546060850152610ac4610ab48261055f565b6005600052602052604060002090565b546080850152610ae6610ad68261055f565b6006600052602052604060002090565b5460a085015261055f565b6007600052602052604060002090565b5460c0820152604051918291826109c6565b34610405576000366003190112610405576000546040516001600160a01b039091168152602090f35b604090600319011261040557600435610b5481610442565b90602435610b6181610442565b90565b3461040557610bc36004610b7736610b3c565b9190610b81612ac4565b610b9a610b8c6128b4565b610b946128cc565b33614e5b565b610bad610ba56128b4565b610b946128ef565b6001600160a01b03958587169287168314612917565b610be160009187610bd961062382865416610436565b91161461295d565b610bec8215156132c4565b610bf5856111cd565b54158015610f42575b610c0790613306565b610c1b610c13846111cd565b541515613349565b610c386005610c32610c2c866111cd565b5461056f565b016129e9565b92604092835197610c7860209963880cdc3160e01b8b82015280610c5f8b60248301610453565b0397610c73601f19998a8101845283612863565b614f48565b50610c8c61062388610c32610c2c876111cd565b15610e3557610ccf610ca488610c32610c2c876111cd565b865162e6724f60e21b8c82015290610c7382610cc33360248301610453565b038a8101845283612863565b505b610cda836111cd565b54610ce4896111cd565b55610d0088610cfb610cf5866111cd565b5461057f565b612f78565b610d173388610d11610c2c8c6111cd565b01612f78565b821603610e25575b610d28866111cd565b5495610d386005610c328961056f565b97610d56610d516002610d4a8b61056f565b015461057f565b6129e9565b9581610d656106238754610436565b87516314ac1b5960e21b8152998a9182905afa9182156104005761054b98610dcf9693610e00575b50865163e1430d4f60e01b918101919091526001600160a01b03948516602482015293909216604484015290610c739083606481015b03908101845283612863565b50610dda6001600355565b519283526001600160a01b03938416602084015290921660408201529081906060820190565b610c739350610e1e610dc391833d85116103f9576103ea8183612863565b9350610d8d565b81610e2f826111cd565b55610d1f565b88610e436106238654610436565b865163111ea8c160e21b815298899182905afa80156104005783610e8d916004998791610f25575b50610e7f8c610cc38a519485928301610453565b610e8761338f565b90614e5b565b818116151580610f1b575b610ea3575b50610cd1565b610f1490610edb8751634fb2e45d60e01b8d820152610ed581610ec93360248301610453565b038b8101835282612863565b82614f48565b508651630a3e884b60e41b8c8201526000602482018190526044820181905260648201526007608482015290610c738260a48101610cc3565b5038610e9d565b5080311515610e98565b610f3c91508c8d3d106103f9576103ea8183612863565b38610e6b565b508286168214610bfe565b34610405576020366003190112610405576020610f6b60043561466f565b6040519015158152f35b346104055760203660031901126104055760043560005260076020526020600360406000200154604051908152f35b34610405576020366003190112610405576004356000526007602052602060018060a01b0360046040600020015416604051908152f35b3461040557602036600319011261040557600435806000526007602052604060002054600560205261054b60018060a01b038060406000205416936007602052604060002091600460028401549301541661103a6005610c328461056f565b90600361105c611056600161104e8761056f565b015460ff1690565b9461056f565b0154604080519788526001600160a01b03988916602089015287019490945286166060860152909416608084015292151560a083015260c082019290925290819060e0820190565b34610405576020366003190112610405576004356110c181610442565b60018060a01b031660005260046020526040600020546000526007602052602060ff600160406000200154166040519015158152f35b346104055761110536610b3c565b6111106103636149b5565b61111933614add565b8015611142575b9161112d61113293612b49565b612b93565b9061054b604051928392836104d1565b50600054604051630536340960e21b81526001600160a01b0393916020908290600490829088165afa8015610400576111329461112d9260009261118f575b503391161491935050611120565b6111a891925060203d81116103f9576103ea8183612863565b9038611181565b34610405576000366003190112610405576020600654604051908152f35b6001600160a01b0316600090815260046020526040902090565b346104055760203660031901126104055760043561120481610442565b60018060a01b031660005260046020526020604060002054604051908152f35b3461040557602036600319011261040557600435600161124f61124a8261104e8561056f565b613220565b6112588261054f565b906002908183019260ff8454818160081c168061146e575b611279906137b5565b60101c166113cd57506112988261128f8661056f565b01541515613841565b6000815b6112dd575b50506000906112ca610016946112c56112bf865460ff9060101c1690565b826138d8565b61056f565b0155805462ff0000191662010000179055565b6003806112f4856112ed8961056f565b015461056f565b01548210156113c757856113236113198484611313896112ed8761056f565b01613121565b90549060031b1c90565b14611338575061133290612f69565b8161129c565b839250946113bd866113aa6112ca946113916113826113196100169c61136360009c6112ed8b61056f565b0161137c876113758d6112ed8d61056f565b0154612cf6565b90613121565b91846113138a6112ed8a61056f565b90919082549060031b91821b91600019901b1916179055565b6113b7856112ed8561056f565b0161388b565b94508192506112a1565b506112a1565b8261142e6114286108229661141e8960036114186114689961066d996114026100169f9d6113fa8761056f565b0154156137fa565b0197885480916114118661056f565b015561056f565b0161313e565b5460101c60ff1690565b856138d8565b610c7361144c610d516114456004610c328961056f565b935461057f565b604051630a4ce2c960e11b602082015293849160248301610453565b5061054f565b50808216611270565b908152602081019190915260400190565b346104055760408060031936011261040557600480356114a6612ac4565b6114b761124a600161104e8461056f565b6114d16114ca61062384610c328561056f565b33146134f4565b6114d9612d58565b6114e76005610c328361056f565b60025490845161153561152760209263015042f960e11b84820152806115136024978835898401611477565b0394610c73601f1996878101845283612863565b828082518301019101613bbd565b9486865194878361154b86830198895190612ab7565b9761155b858401998a5190612ab7565b61156b6060850191825190612ab7565b918861157d6080870194855190612ab7565b9761158e60a08801998a5190612ab7565b966115a76115a260c08301998a5190612ab7565b614702565b516118c3575b8251611815575b5050508051611767575b5080516116c6575b50506115d58351825190612ab7565b61160b575b898961054b6101008a6115f28d60e086015190613ccd565b51920151926116016001600355565b5192839283611477565b8461162061062360009a969799989a54610436565b8b516324768d9160e01b815296879182905afa80156104005761054b98610100988c61168e966115f299600095611699575b5090610dc391611676610c73969761166c610d518d61057f565b9251905190612ab7565b915197889463a9059cbb60e01b908601528401613554565b5093829338806115da565b610c739550906116766116bc610dc39493863d88116103f9576103ea8183612863565b9650509091611652565b866116d5610623600054610436565b8d516313b92d3560e31b815293849182905afa91821561040057611730928d928c928a600093611738575b5050610cc3611715610d51610c73949561057f565b9151945163a9059cbb60e01b8c820152948592898401613554565b5083386115c6565b610c739350610d5161175d610cc3938361171594903d106103f9576103ea8183612863565b945050508a611700565b878d611777610623600054610436565b9051635506ee0b60e11b815294859182905afa908115610400578b6117df928f8b908b976000936117e6575b506117d3906117b8610d51610c73959661057f565b9551905195869363a9059cbb60e01b908501528b8401613554565b038c8101845283612863565b50386115be565b610c739350906117b8610d5161180b6117d394863d88116103f9576103ea8183612863565b95505050906117a3565b611823610623600054610436565b90516330125cf560e01b815295869182905afa908115610400578c8f928b61188b948c98600093611894575b5061187f90611864610d51610c73959661057f565b9551905195869363a9059cbb60e01b908501528c8401613554565b038d8101845283612863565b5038888e6115b4565b610c73935090611864610d516118b961187f94863d88116103f9576103ea8183612863565b955050509061184f565b6118d1610623600054610436565b9051636402742760e01b815295869182905afa938415610400578e61192e8f8f8c988f8f968d90600093611934575b50610dc3611914610d51610c73959661057f565b9551885163a9059cbb60e01b8b8201529687938401613554565b506115ad565b610c739350611914610d51611958610dc3938c8d3d106103f9576103ea8183612863565b95505050611900565b3461040557604036600319011261040557602435600435611980612ac4565b61199161124a600161104e8461056f565b6119aa6119a3610623610d518461057f565b33146133be565b6119d16119bb6005610c328461056f565b6119c3613402565b6119cb6128a1565b91614db2565b90826119e7602093848082518301019101613429565b10156119f8575b6100166001600355565b611a91611a9f93611a6a610d51611a60611a52611a30611a1c6005610c328a61056f565b956040519182918b83019190602083019252565b0395611a44601f1997888101845283612863565b611a4c613438565b90614db2565b878082518301019101613462565b979250505061057f565b93610dc3611a766128b4565b604051968793637a937b4560e11b90850152602484016134d2565b6001600160a01b0316614f48565b503880806119ee565b34610405576020366003190112610405576020600435611ac781610442565b60018060a01b03809116600052600482526040600020546000526007825260056040600020015416604051908152f35b3461040557604036600319011261040557611b136103636149b5565b611b1c33614add565b8015611b3a575b611b2c90612b49565b6100166024356004356136e0565b50600054604051630536340960e21b8152906001600160a01b03906020908390600490829085165afa90811561040057611b2c92600092611b81575b501633149050611b23565b611b9a91925060203d81116103f9576103ea8183612863565b9038611b76565b3461040557604036600319011261040557600435600052600860205260406000206024356000526020526020604060002054604051908152f35b346104055760203660031901126104055760043560005260076020526020600260406000200154604051908152f35b346104055760403660031901126104055760043560005260076020526020611c3b6024356003604060002001613121565b90549060031b1c604051908152f35b34610405576000366003190112610405576001546040516001600160a01b039091168152602090f35b3461040557604036600319011261040557611c8f6103636149b5565b611c9833614add565b8015611cb6575b611ca890612b49565b610016602435600435614786565b50600054604051630536340960e21b8152906001600160a01b03906020908390600490829085165afa90811561040057611ca892600092611cfd575b501633149050611c9f565b611d1691925060203d81116103f9576103ea8183612863565b9038611cf2565b3461040557602036600319011261040557600435600052600f6020526020604060002054604051908152f35b346104055760003660031901126104055760005460405163d1f956b160e01b815290602090829060049082906001600160a01b03165afa9081156104005761054b91611dd291600091611de2575b50604051611da48161282d565b601381527267657464656c656761746f72436f756e74282960681b6020820152611dcc6128a1565b91614edb565b6040519081529081906020820190565b611dfa915060203d81116103f9576103ea8183612863565b38611d97565b610100810192916000915b60088310611e1857505050565b600190825181526020809101920192019190611e0b565b346104055760203660031901126104055761054b600435611ee4610af1611e54614686565b92611e70611e618261058f565b60008052602052604060002090565b548452611e7f610a2f8261058f565b546020850152611e91610a4e8261058f565b546040850152611ea3610a708261058f565b546060850152611eb5610a928261058f565b546080850152611ec7610ab48261058f565b5460a0850152611ed9610ad68261058f565b5460c085015261058f565b5460e082015260405191829182611e00565b34610405576020366003190112610405576020610f6b600435611f1881610442565b614add565b3461040557611ff6611f2e36610b3c565b90611f37612ac4565b611f79611f45610b8c6128b4565b611f50610ba56128b4565b906001600160a01b0390611f6990821686831614612917565b610bd96106238260005416610436565b611f92611f8d600161104e610c2c856111cd565b6129a2565b611fe7611fdd611fce611fac6005610c32610c2c876111cd565b60405190611fc68261066d60208201906000602083019252565b611a4c6129f6565b60208082518301019101612a24565b5050501515612a46565b611fef612d12565b3390612fb9565b612004611e6160025461058f565b61200e8154612aa4565b905561201861472e565b6120266005610c328361056f565b9061203081613264565b61203a6001600355565b61054b604051928392836104d1565b34610405576020366003190112610405576120656103636149b5565b61206e33614add565b8015612089575b61207e90612b49565b610016600435612d9b565b506004602061209c610623600054610436565b604051630536340960e21b815292839182905afa80156104005761207e916000916120d5575b506001600160a01b031633149050612075565b6120ed915060203d81116103f9576103ea8183612863565b386120c2565b3461040557602036600319011261040557600054604051630536340960e21b8152906001600160a01b03906020908390600490829085165afa91821561040057600092612186575b503391160361214f57610016600435614ce1565b60405162461bcd60e51b815260206004820152600f60248201526e6f776e2e6e6f6e617574682e44414f60881b6044820152606490fd5b61219f91925060203d81116103f9576103ea8183612863565b903861213b565b34610405576020366003190112610405576004356121c381610442565b803b60006121d082612886565b926121de6040519485612863565b82845260208401903c602d81511061220757602a61054b91015160601c60405191829182610453565b60405162461bcd60e51b81526020600482015260136024820152724e6f742061206d696e696d616c2070726f787960681b6044820152606490fd5b604036600319011261040557600435612259612ac4565b600090808252600760205261227760ff600160408520015416613220565b815260076020526122b660018060a01b036005604084200154166040519062a0e53360e51b6020830152602435602483015260248252610c73826127f2565b50600160035580f35b3461040557604036600319011261040557600435600052600a60205260406000206024356000526020526020604060002054604051908152f35b346104055760c03660031901126104055760243560043561231982610442565b6064359060843590612329612ac4565b61233a61124a600161104e8461056f565b61234e6114ca6106236004610c328561056f565b612356612d58565b61235f826146aa565b612368836146d6565b6123f06123e26123ce61237f6005610c328661056f565b604051634996516b60e11b6020808301919091526001600160a01b039099166024820152604480359082015260648101889052608481019690965260a4803590870152969490819060c4820190565b0396610c73601f1998898101845283612863565b83808251830101910161353e565b9281612403575b50506119ee935061409a565b9081600492612416610623600054610436565b604051635e09dbe760e01b815294859182905afa8015610400576119ee976124659460009261246d575b50610c739192610dc360405195869263a9059cbb60e01b908401523360248401613554565b5038806123f7565b610c73925061248890843d86116103f9576103ea8183612863565b91612440565b346104055760208060031936011261040557600480356124ad81610442565b60005460405163d1f956b160e01b81526001600160a01b03949093909182918591829088165afa9081156104005761054b946106a79460009361250e575b5060405193168184015282526125008261282d565b612508614c7d565b90614e9f565b612526919350823d84116103f9576103ea8183612863565b91386124eb565b34610405576000366003190112610405576020610f6b6149b5565b3461040557602036600319011261040557600435600052600c6020526020604060002054604051908152f35b34610405576040366003190112610405576024356004356125a06107f661259a336111cd565b5461466f565b6125b161124a600161104e8461056f565b6125c76125c2600161104e8561056f565b61356f565b6125d56005610c328461056f565b60048360405161261b611fdd61260d602093806125f9868201906000602083019252565b0397611fc6601f19998a8101845283612863565b838082518301019101612a24565b6126248561054f565b93612675600286019661264b6126466126428a5460ff9060081c1690565b1590565b6135b3565b612669604051998a92630f77309360e31b8785015260248401611477565b03828101895288612863565b81612684610623600054610436565b604051630536340960e21b815295869182905afa93841561040057610016976126ed956126da93610dc3936000926126fe575b5060405163d3a3084960e01b87820152939192610c7392859130602484016135f9565b9160018501558082518301019101613429565b9055805461ff001916610100179055565b610c73925061271990873d89116103f9576103ea8183612863565b916126b7565b3461040557602036600319011261040557600435600052600e6020526020604060002054604051908152f35b34610405576040806003193601126104055760043561276981610442565b60018060a01b031661054b8260008381526004602052818120548152600b602052818120549381526004602052818120548152600a60205281812060243582526020522054925192839283611477565b346104055760003660031901126104055760206127d4614bf2565b604051908152f35b634e487b7160e01b600052604160045260246000fd5b606081019081106001600160401b0382111761280d57604052565b6127dc565b60e081019081106001600160401b0382111761280d57604052565b604081019081106001600160401b0382111761280d57604052565b602081019081106001600160401b0382111761280d57604052565b601f909101601f19168101906001600160401b0382119082101761280d57604052565b6001600160401b03811161280d57601f01601f191660200190565b604051906128ae82612848565b60008252565b6040516128c081612848565b60008152906000368137565b604051906128d98261282d565b60078252666f776e6572282960c81b6020830152565b604051906128fc8261282d565b600c82526b67657448657862617365282960a01b6020830152565b1561291e57565b60405162461bcd60e51b81526020600482015260176024820152766e65737465642e696e76616c69642e696e7374616e636560481b6044820152606490fd5b1561296457565b60405162461bcd60e51b81526020600482015260166024820152756e65737465642e696e76616c69642e6865786261736560501b6044820152606490fd5b156129a957565b60405162461bcd60e51b81526020600482015260186024820152776e65737465642e706172656e742e6e6f742e65786973747360401b6044820152606490fd5b546001600160a01b031690565b60405190612a038261282d565b60128252716765744e6f64654c422875696e743235362960701b6020830152565b9190826080910312610405578151916020810151916060604083015192015190565b15612a4d57565b60405162461bcd60e51b81526020600482015260196024820152786e65737465642e706172656e742e6e6f2e627573696e65737360381b6044820152606490fd5b634e487b7160e01b600052601160045260246000fd5b9060018201809211612ab257565b612a8e565b91908201809211612ab257565b600260035414612ad5576002600355565b604051633ee5aeb560e01b8152600490fd5b15612aee57565b60405162461bcd60e51b81526020600482015260126024820152716f776e2e696e76616c69642e69735361666560701b6044820152606490fd5b908160209103126104055751610b6181610442565b6040513d6000823e3d90fd5b15612b5057565b60405162461bcd60e51b815260206004820152601b60248201527a6f776e2e6e6f6e617574682e44414f6f725365637572656261736560281b6044820152606490fd5b612bf89291612bfe600492612ba6612ac4565b612bc2612bbd612642600161104e610c2c886111cd565b612f25565b612bd5612bd0600654612f69565b600655565b600654958691612be885610cfb8561057f565b82612bf2866111cd565b556111cd565b54613161565b612c1c82612c0b8661056f565b0180546001600160a01b0319169055565b6020612c2c610623600054610436565b60405163e09d394d60e01b815293849182905afa801561040057612c5f612c6a91612ca994600091612cd8575b506130a3565b6005610d118761056f565b612c786005610c328661056f565b610c73612c89610623600054610436565b61066d876040519586936352902c5960e01b602086015260248501612f97565b506000828152600760205260409020600501546001600160a01b031691612ccf81613264565b91906001600355565b612cf0915060203d81116103f9576103ea8183612863565b38612c59565b600019810191908211612ab257565b91908203918211612ab257565b612d1a614bf2565b60025410612d32575b612d306005600254612de4565b565b612d3a614bf2565b806002556000198101908111612ab257612d5390614546565b612d23565b612d60614bf2565b60025410612d75575b612d3060028054612de4565b612d7d614bf2565b806002556000198101908111612ab257612d9690614546565b612d69565b612da3614bf2565b60025410612db8575b612d3090600254612de4565b612dc0614bf2565b90816002556000198201918211612ab257612ddd612d3092614546565b9050612dac565b90612df1611e618361058f565b541580612f1b575b80612f12575b612e07575050565b612e2390612e1d612e1784612cf6565b91612cf6565b90612de4565b612e37611e61612e3283612cf6565b61058f565b54612e44611e618361058f565b55612e54610a2f612e3283612cf6565b54612e61610a2f8361058f565b55612e71610a4e612e3283612cf6565b54612e7e610a4e8361058f565b55612e8e610a70612e3283612cf6565b54612e9b610a708361058f565b55612eab610a92612e3283612cf6565b54612eb8610a928361058f565b55612ec8610ab4612e3283612cf6565b54612ed5610ab48361058f565b55612ee5610ad6612e3283612cf6565b54612ef2610ad68361058f565b55612f0f610af1612f08610af1612e3285612cf6565b549261058f565b55565b50801515612dff565b5060018211612df9565b15612f2c57565b60405162461bcd60e51b81526020600482015260156024820152746e65737465642e616c72656164792e65786973747360581b6044820152606490fd5b6000198114612ab25760010190565b80546001600160a01b0319166001600160a01b03909216919091179055565b6001600160a01b03918216815291166020820152604081019190915260600190565b91613013600492613009612bf895612fde612bbd612642600161104e610c2c8a6111cd565b612fec612bd0600654612f69565b600654968791612fff87610cfb8561057f565b82612bf2886111cd565b83610d118661056f565b6020613023610623600054610436565b60405163e09d394d60e01b815293849182905afa8015610400576130556130609161309f94600091612cd857506130a3565b6005610d118661056f565b61306e6005610c328561056f565b610c7361307f610623600054610436565b61066d866040519586936352902c5960e01b602086015260248501612f97565b5090565b6e5af43d82803e903d91602b57fd5bf390763d602d80600a3d3981f3363d3d373d3d3d363d7300000062ffffff8260881c161760005260781b17602052603760096000f0906001600160a01b038216156130f957565b60405163b06ebf3d60e01b8152600490fd5b634e487b7160e01b600052603260045260246000fd5b80548210156131395760005260206000200190600090565b61310b565b80549190600160401b83101561280d5782611391916001612d3095018155613121565b919091600092808452602091600783526040808620956002948386890155846001988981018a60ff19825416179055558761319b8661059f565b83805282528489858520555b6131b657505050505050509050565b6132036131fd828b8a941461320c575b6131cf8861059f565b81875285528686206131e18154612aa4565b90556131ec886105af565b6131f68154612aa4565b9055612f69565b9561056f565b015493846131a7565b61321b8960036114188b61056f565b6131c6565b1561322757565b60405162461bcd60e51b81526020600482015260156024820152746e65737465642e757365722e6e6f7461637469766560581b6044820152606490fd5b80600052600760205261328160ff60016040600020015416613220565b60005260076020526132c160018060a01b03600560406000200154166040519062a0e53360e51b60208301526001602483015260248252610c73826127f2565b50565b156132cb57565b60405162461bcd60e51b81526020600482015260136024820152726e65737465642e7a65726f2e6164647265737360681b6044820152606490fd5b1561330d57565b60405162461bcd60e51b81526020600482015260146024820152736e65737465642e7461726765742e65786973747360601b6044820152606490fd5b1561335057565b60405162461bcd60e51b81526020600482015260176024820152766e65737465642e736f757263652e6e6f7445786973747360481b6044820152606490fd5b6040519061339c8261282d565b601382527255736572546f496e737428616464726573732960681b6020830152565b156133c557565b60405162461bcd60e51b81526020600482015260156024820152743732b9ba32b21734b73b30b634b21739b2b73232b960591b6044820152606490fd5b6040519061340f8261282d565b600b82526a6d696e74436f756e74282960a81b6020830152565b90816020910312610405575190565b604051906134458261282d565b600e82526d6d696e74732875696e743235362960901b6020830152565b91908260809103126104055781519160208101519160606040830151920151610b6181610442565b60005b83811061349d5750506000910152565b818101518382015260200161348d565b906020916134c68151809281855285808601910161348a565b601f01601f1916010190565b6001600160a01b039091168152604060208201819052610b61929101906134ad565b156134fb57565b60405162461bcd60e51b815260206004820152601b60248201527a6e65737465642e757365722e696e76616c6964696e7374616e636560281b6044820152606490fd5b9190826040910312610405576020825192015190565b6001600160a01b039091168152602081019190915260400190565b1561357657565b60405162461bcd60e51b81526020600482015260156024820152741b995cdd19590b9a5b9d985b1a590b9c185c995b9d605a1b6044820152606490fd5b156135ba57565b60405162461bcd60e51b81526020600482015260176024820152761b995cdd19590b9c995c4b985b1c9958591e595e1a5cdd604a1b6044820152606490fd5b9291613667608091600a9360a08752602460a08801527f547269676765722e6e65737465642e70726f706f73616c2e6d6f7665646f776e60c0880152636c696e6560e01b60e088015260018060a01b03166020870152600060408701526101008060608801528601906134ad565b930152565b604051906136798261282d565b6012825271676574526573756c742875696e743235362960701b6020830152565b5190811515820361040557565b91908260c091031261040557815191602081015191604082015191606081015191610b6160a06136d96080850161369a565b930161369a565b6136fd613709916136f861124a600161104e8461056f565b61054f565b9160018301541461356f565b613717610623600054610436565b906040518092630536340960e21b825281600460209586935afa90811561040057612d309361377261066d60029461377f94600091613798575b5061376a87546040519384918783019190602083019252565b611a4c61366c565b80518101820191016136a7565b50959350505050019060ff801983541691151516179055565b6137af9150843d86116103f9576103ea8183612863565b38613751565b156137bc57565b60405162461bcd60e51b81526020600482015260166024820152751b995cdd19590b9c995c4b9b9bdd185c1c1c9bdd995960521b6044820152606490fd5b1561380157565b60405162461bcd60e51b81526020600482015260186024820152771b995cdd19590b9d5cd95c8b9b9bdd0b99195d1858da195960421b6044820152606490fd5b1561384857565b60405162461bcd60e51b815260206004820152601b60248201527a1b995cdd19590b9d5cd95c8b985b1c99591e4b99195d1858da1959602a1b6044820152606490fd5b80549081156138b557600019918201916138a58383613121565b909182549160031b1b1916905555565b634e487b7160e01b600052603160045260246000fd5b8015612ab2576000190190565b6138ea6138e4826105af565b54612aa4565b600290816138f78461056f565b0154906001938492835b61390f575b50505050505050565b600f8085111580613bb4575b15613bae578590600561393461062382610c328761056f565b613956575b505061394761394f9261056f565b015493612f69565b9285613901565b865b82811115613a1e5750505061394761394f92896000146139dc5761399561397e8661059f565b61398789612cf6565b600052602052604060002090565b546139bd6139b5896139a68561059f565b90600052602052604060002090565b918254612ab7565b90556139c8816105af565b6139d3878254612ab7565b90555b92613939565b6139e861397e8661059f565b54613a016139f9896139a68561059f565b918254612d05565b9055613a0c816105af565b613a17878254612d05565b90556139d6565b90919250613a2f82610c328761056f565b8a85613a3b8a85612d05565b928b604093613a7e613a70865180613a5c60209a8b83019190602083019252565b0395611fc6601f1997888101845283612863565b878082518301019101612a24565b5050898297921580613ba6575b613b9457610c7393613b0f999896938b8997946003613abc613ab6610dc397610c32613b029f61056f565b9a61056f565b015495549251998a968d63393a9f9560e01b908901526024880194919260a0949197969360c0870198875260208701526040860152606085015260808401521515910152565b805181018201910161353e565b908b15613b5a575b808211613b32575050613b2990612f69565b90879291613958565b613b3b90612f69565b613b49816139a68c5461058f565b613b538154612aa4565b9055613b17565b818111613b6c575050613b2990612f69565b80613b7e613b8f926139a68d5461058f565b613b888154612cf6565b90556138cb565b613b5a565b505050505050505050613b2990612f69565b508115613a8b565b50613906565b5081151561391b565b9061012080838303126104055781601f8401121561040557604051928184016001600160401b0381118582101761280d576040528391810192831161040557905b828210613c0b5750505090565b8151815260209182019101613bfe565b60405190613c288261282d565b600f82526e66726565496e74657276616c73282960881b6020830152565b60405190613c538261282d565b601582527467657452616e6b5769746841676556616c7565282960581b6020830152565b60405190613c848261282d565b601382527272616e6b436c617573652875696e743235362960681b6020830152565b908160a0910312610405578051916020820151916040810151916080606083015192015190565b9190613cdd610623600054610436565b9060405163cfbffe5360e01b8152602081600481865afa801561040057613d1e9160009161407b575b50613d0f6128b4565b90613d18613c1b565b90614edb565b600092909190839081906001600160a01b03613d3e6005610c328b61056f565b1661404d575b60206004916040519283809263cfbffe5360e01b82525afa90811561040057613da591613d969160009161402e575b5060405190613d8e8261066d8b602083019190602083019252565b611a4c613c77565b60208082518301019101613ca6565b9492509092509190878894613dbc83600254612d05565b119460009b5b600f8d111580614025575b1561401657888a8e613de66106236005610c328761056f565b613e0a575b5050506002613dfc613e049261056f565b01549c612f69565b9b613dc2565b8015158061400d575b8015614005575b15613deb5791938d9691939603613eef575b5090610c73613ea5939261066d8b613e486005610c328b61056f565b946003613e548b61056f565b015493600254906040519889966325e10feb60e11b60208901526024880194919260c0949197969360e087019887526020870152600060408701526060860152608085015260a08401521515910152565b613eb98a916020808251830101910161353e565b9390613ec5819c612aa4565b80821015613ed7575050888a8e613deb565b806131ec613eea926139a660025461058f565b613ec5565b9250975050818a03613f4b575b50828910878982801593613f1a575b50911597909190610c73613e2c565b92505050848a10159081613f43575b50878982613f3a575b610c73613f0b565b87159250613f32565b905038613f29565b600496506020613f5f610623600054610436565b60405163cfbffe5360e01b815298899182905afa96871561040057613d9661066d8e998d613fa894600092613fe0575b50613d8e90604051938491602083019190602083019252565b919493509150848d11613fbe575b505050613efc565b9350945094509450613fd589959394600254612d05565b119338808080613fb6565b613d8e919250613ffe9060203d6020116103f9576103ea8183612863565b9190613f8f565b506000613e1a565b50821515613e13565b50505050505050505050509050565b50801515613dcd565b614047915060203d6020116103f9576103ea8183612863565b38613d73565b945050602060046140706123e26140686005610c328c61056f565b6119c3613c46565b929096915050613d44565b614094915060203d6020116103f9576103ea8183612863565b38613d06565b909291926140ac610623600054610436565b9060405163cfbffe5360e01b8152602081600481865afa8015610400576140dd9160009161407b5750613d0f6128b4565b6000958693909184916001600160a01b036140fc6005610c328a61056f565b166143b3575b60206004916040519283809263cfbffe5360e01b82525afa9081156104005761414b91613d969160009161402e575060405190613d8e8261066d8b602083019190602083019252565b9b93509091509087889b61416185600254612d05565b119360009a5b600f8c1115806143aa575b1561439a576141886106236005610c328461056f565b6141a9575b600261419b6141a39261056f565b01549b612f69565b9a614167565b8b151580614391575b8015614388575b1561418d578b89829f938c948e0361428d575b50829161066d8b8b610c739460036141f56141ef6005610c326142459d9c61056f565b9861056f565b01549460025491604051998a976325e10feb60e11b60208a015260248901959260c09592989794919860e08801998852602088015260408701526060860152608085015260a08401521515910152565b9b61425a8a9d6020808251830101910161353e565b9190614266819c612aa4565b8082101561427557505061418d565b806131ec614288926139a660025461058f565b614266565b9350505050859650818a036142f4575b5089888d89858d10808015916142be575b50159950919290916142456141cc565b945050505050838a101590816142ec575b50888d898d846142e3575b9361066d6142ae565b881594506142da565b9050386142cf565b600495506020614308610623600054610436565b60405163cfbffe5360e01b815297889182905afa95861561040057613d9661066d89988d61435094600092613fe05750613d8e90604051938491602083019190602083019252565b919493509150848d11614366575b50505061429d565b935093509350935061437d89949293600254612d05565b11923880808061435e565b508815156141b9565b508915156141b2565b5050505050505050505050509050565b50801515614172565b94506020975060046143dd6143cf6140686005610c328b61056f565b8a808251830101910161353e565b9950959050614102565b6002546000198101908111612ab257612d3090614546565b1561440657565b60405162461bcd60e51b81526020600482015260126024820152716e65737465642e696e76616c69642e61676560701b6044820152606490fd5b6040519061444d8261282d565b60188252776765744261746368526f79616c7479436c6175736573282960401b6020830152565b6102a09081818403126104055782601f8201121561040557604080519361449a85612812565b849383019281841161040557935b8385106144b757505050505090565b6060858303126104055782516060916144cf826127f2565b86518252602091828801518382015285880151868201528152019401936144a8565b9060078110156131395760051b0190565b9081606402916064830403612ab257565b81810292918115918404141715612ab257565b8115614530570490565b634e487b7160e01b600052601260045260246000fd5b6145518115156143ff565b61455f610623600054610436565b90604051809263cfbffe5360e01b825281600460209586935afa908115610400576145a79161459991600091614652575b506119c3614440565b838082518301019101614474565b6145bb82600052600c602052604060002090565b5460015b60078111156145cf575050505050565b806145e061463e926139a68761058f565b54801561464c576145f96145f383612cf6565b866144f1565b51878151928315614643576146206146259261461861462b968a614513565b940151614502565b614513565b90614526565b614638826139a68861055f565b55612f69565b6145bf565b50505050612f69565b50612f69565b6146699150853d87116103f9576103ea8183612863565b38614590565b600052600760205260ff6001604060002001541690565b604051906101008083016001600160401b0381118482101761280d57604052368337565b60025480600052600c602052604060002054918201809211612ab257600052600c602052604060002055565b60025480600052600d602052604060002054918201809211612ab257600052600d602052604060002055565b60025480600052600e602052604060002054918201809211612ab257600052600e602052604060002055565b60025480600052600f6020526040600020549060018201809211612ab257600052600f602052604060002055565b9080600052600c602052604060002054918201809211612ab257600052600c602052604060002055565b9080600052600e602052604060002054918201809211612ab257600052600e602052604060002055565b9080600052600f602052604060002054918201809211612ab257600052600f602052604060002055565b604051906147e78261282d565b6014825273676574627573696e6573732875696e743235362960601b6020830152565b604051906148178261282d565b601d82527f67657472616e6b436f756e742875696e743235362c75696e74323536290000006020830152565b6000906148536106238354610436565b91604092835192839163111ea8c160e21b835282600460209485935afa93841561040057839461493a575b505b8581111561489057505050505050565b8451828101828152819003808252601f19916148c1916148b39060200182612863565b6148bb6147da565b87614edb565b6148d86139b584600052600c602052604060002090565b9055835b600881106148f45750506148ef90612f69565b614880565b61493590614928885161491a8161490e85898b8401611477565b03868101835282612863565b61492261480a565b89614edb565b614638826139a68761058f565b6148dc565b614952919450823d84116103f9576103ea8183612863565b923861487e565b1561496057565b60405162461bcd60e51b81526020600482015260196024820152781bdddb8b9cd8599959dd585c990b98d85b1b0b99985a5b1959603a1b6044820152606490fd5b9081602091031261040557610b619061369a565b600054604051634bf9c0ad60e11b8152906020908190839060049082906001600160a01b03165afa91821561040057610b6192614a2b91600091614a46575b50604051614a018161282d565b6008815267697353616665282960c01b8482015260405191614a2283612848565b60008352614ddd565b919080614a3c575b61069a90614959565b5081518114614a33565b614a5d9150833d85116103f9576103ea8183612863565b386149f4565b60405190614a708261282d565b601582527469735365637572654261736528616464726573732960581b6020830152565b15614a9b57565b60405162461bcd60e51b815260206004820152601a6024820152791bdddb8b9cd958dd5c9958985cd94b98d85b1b0b99985a5b195960321b6044820152606490fd5b600054614af2906001600160a01b0316610436565b604051918291634bf9c0ad60e11b835282600460209485935afa92831561040057610b6193614b429261066d92600092614b5d575b50614b3a90604051938491878301610453565b610683614a63565b919080614b53575b61069a90614a94565b5081518114614b4a565b614b3a919250614b7990863d88116103f9576103ea8183612863565b9190614b27565b60405190614b8d8261282d565b601182527069735369676e657228616464726573732960781b6020830152565b15614bb457565b60405162461bcd60e51b81526020600482015260166024820152751bdddb8b9cda59db995c8b98d85b1b0b99985a5b195960521b6044820152606490fd5b60005460405163111ea8c160e21b815290602090829060049082906001600160a01b03165afa801561040057610b6191600091614c5f575b50604051614c378161282d565b6005815264616765282960d81b602082015260405191614c5683612848565b60008352614edb565b614c77915060203d81116103f9576103ea8183612863565b38614c2a565b60405190614c8a8261282d565b6018825277697364656c656761746f724e6f646528616464726573732960401b6020830152565b3d15614cdc573d90614cc282612886565b91614cd06040519384612863565b82523d6000602084013e565b606090565b600080546040516311be646b60e21b815290602090829060049082906001600160a01b03165afa908115610400578284819382938391614d94575b505af1614d27614cb1565b5015614d5d5760405190815233907fcdcc745fe377b103b45fa0cec23ae3ef93d6fc6a84a01f0d18c40b354dd1d5d890602090a2565b60405162461bcd60e51b815260206004820152600f60248201526e1bdddb8b989d5c9b8b99985a5b1959608a1b6044820152606490fd5b614dac915060203d81116103f9576103ea8183612863565b38614d1c565b90614dbd9291614ddd565b9060009015614dca575090565b6040519150614dd882612848565b815290565b803b15614e4257600092839263ffffffff60e01b90602081519101201690614e2f6024604051809360208201958652614e1f815180926020868601910161348a565b8101036004810184520182612863565b5191620dbba0fa614e3e614cb1565b9091565b505050600090604051614e5481612848565b6000815290565b9291614e6991600094614ddd565b9080614e94575b614e775750565b909150602081805181010312610405576020015161043681610442565b506020815114614e70565b9291614ead91600094614ddd565b9080614ed0575b614ebb5750565b610b61919250602080825183010191016149a1565b506020815114614eb4565b9291614ee991600094614ddd565b9080614f0c575b614ef75750565b610b6191925060208082518301019101613429565b506020815114614ef0565b906020825192015163ffffffff60e01b908181169360048110614f3957505050565b60040360031b82901b16169150565b6001600160a01b03811615614fc957600080918351908260208601915af190614f6f614cb1565b9115614f79575090565b805160009190600411614fc357614f909150614f17565b815115614fa05750805190602001fd5b604051630870274d60e21b81526001600160e01b03199091166004820152602490fd5b50614f90565b60405162461bcd60e51b81526020600482015260126024820152711bdddb8b9a5b9d985b1a590b9d185c99d95d60721b6044820152606490fdfea26469706673582212205305b0599b4f864f2d6dd362fb1597ef0e10666cb00d73498028c3d5735083da64736f6c63430008140033","linkReferences":{}},"methodIdentifiers":{"dAOAssembly()":"14837455","daocore()":"14d8d024","nested741()":"45cff900","old741()":"5540c5ac","price()":"a035b1fe"},"id":34}