{"abi":[{"type":"constructor","inputs":[{"name":"_hex","type":"address","internalType":"address"}],"stateMutability":"nonpayable"},{"type":"function","name":"instanceStor","inputs":[],"outputs":[{"name":"","type":"address","internalType":"address"}],"stateMutability":"view"}],"bytecode":{"object":"0x6080346100c5576001600160401b0390601f616b8238819003918201601f1916830191848311848410176100af578084926020946040528339810103126100c557516001600160a01b039190828116908190036100c55760405191616a2990818401908111848210176100af576020928492610159843981520301906000f080156100a3571660018060a01b03196000541617600055604051608e90816100cb8239f35b6040513d6000823e3d90fd5b634e487b7160e01b600052604160045260246000fd5b600080fdfe6080806040526004361015601257600080fd5b600090813560e01c63131c73ad14602857600080fd5b346054578160031936011260545773ffffffffffffffffffffffffffffffffffffffff60209254168152f35b5080fdfea26469706673582212201d626319ad3952e377bdf693ffafee8c948b557a59802fb6dd6860a89956c97364736f6c63430008140033608034620000d157601f62006a2938819003918201601f19168301916001600160401b03831184841017620000d657808492602094604052833981010312620000d157516001600160a01b03811690819003620000d15780156200008c5760018060a01b0319338160015416176001556000541617600055600160035560405161693c9081620000ed8239f35b60405162461bcd60e51b815260206004820152601360248201527f6f776e2e696e76616c69642e68657862617365000000000000000000000000006044820152606490fd5b600080fd5b634e487b7160e01b600052604160045260246000fdfe60806040526004361015610018575b361561001657005b005b60003560e01c806302a085f2146102a8578063043719b4146102a357806309d8da2e1461029e5780630b98f9751461029957806312065fe014610294578063141ca6601461028f578063143ec3b71461028a5780631f185d16146102855780632c2838e814610280578063393a9f951461027b57806339b4d61b146102765780633b9b7955146102715780634a65786c1461026c57806352902c5914610267578063619d5194146102625780636350b2c21461025d5780636924500914610258578063725b6fff1461025357806375b4d78c1461024e5780637bfbfecb14610249578063880cdc31146102445780638da5cb5b1461023f578063932ca2d61461023a578063934209ce146102355780639659867e14610230578063a15315451461022b578063a1f7f53914610226578063a20199ac14610221578063a98bf4f91461021c578063a9bf285b14610217578063af48452614610212578063af640d0f1461020d578063b90306ad14610208578063c54e44b014610203578063c8ba154e146101fe578063c8ef7b1a146101f9578063d3a1a499146101f4578063da021335146101ef578063e01ad5fd146101ea578063e0a9bc2b146101e55763fdc10bc90361000e576114e4565b6114c9565b61142f565b6113d7565b6113ab565b6112c7565b61120e565b6111d6565b61111a565b6110fc565b6110cb565b6110ad565b611081565b611035565b610f77565b610f42565b610f24565b610f06565b610e47565b610e20565b610d6c565b610bb7565b610b99565b610b7b565b610b5d565b610b06565b610a45565b610919565b6108f3565b6108cc565b6108a0565b6107cb565b610705565b6105f5565b6105b8565b61050b565b6104ef565b61044c565b610429565b6103ed565b6102dc565b610140810192916000915b600a83106102c557505050565b6001908251815260208091019201920191906102b8565b60403660031901126103e8576040516102f481611589565b61014036823760ff600454166103d75761031461030f615fbf565b611507565b61031d33616103565b8015610351575b61034d9161033461034192611640565b6024359060043590611f83565b604051918291826102ad565b0390f35b506004906001600160a01b03906020826000541660405194858092630536340960e21b82525afa9283156103d25761034d9361034193610334926000926103a2575b50339116149250509150610324565b6103c491925060203d81116103cb575b6103bc81836115fa565b81019061161c565b9038610393565b503d6103b2565b611634565b600460405163658141c160e01b8152fd5b600080fd5b346103e85760403660031901126103e857600435600052601c602052602061041b60243560406000206116e9565b90546040519160031b1c8152f35b346103e85760003660031901126103e857602060ff600454166040519015158152f35b346103e85760203660031901126103e85761046861030f615fbf565b61047133616103565b801561048c575b61048190611640565b610016600435600555565b5060046001600160a01b036020816000541660405193848092630536340960e21b82525afa9081156103d257610481926000926104cf575b501633149050610478565b6104e891925060203d81116103cb576103bc81836115fa565b90386104c4565b346103e85760003660031901126103e857602047604051908152f35b60203660031901126103e85761052261030f615fbf565b61052b33616103565b8015610555575b61053b90611640565b610543611f34565b61054e600435612dfd565b6001600355005b5060046001600160a01b036020816000541660405193848092630536340960e21b82525afa9081156103d25761053b92600092610598575b501633149050610532565b6105b191925060203d81116103cb576103bc81836115fa565b903861058d565b346103e85760203660031901126103e857600435600052601c6020526020604060002054604051908152f35b6001600160a01b038116036103e857565b346103e8576020806003193601126103e857600490813590610616826105e4565b8061063861062c6000546001600160a01b031690565b6001600160a01b031690565b60405194858092634bf9c0ad60e11b82525afa9182156103d25761068c6106c6936106a89261034d966000926106e2575b5061069a906040519384918783019190916001600160a01b036020820193169052565b03601f1981018452836115fa565b6106a26161ad565b906165d8565b9190806106d8575b6106b9906161e6565b8082518301019101615faa565b60405190151581529081906020820190565b50815181146106b0565b61069a9192506106fe90863d88116103cb576103bc81836115fa565b9190610669565b346103e85760203660031901126103e8576101e0610724600435614acf565b60405190805182526020810151602083015260408101516040830152606081015160608301526080810151608083015260a081015160a083015260c081015160c083015260e081015160e0830152610100808201519083015261012080820151908301526101408082015190830152610160808201519083015261018080820151908301526101a080820151908301526101c08091015190820152f35b801515036103e857565b346103e85760c03660031901126103e85760a4356107e8816107c1565b6107f361030f615fbf565b6107fc33616103565b8015610836575b9061081061082492611640565b60843560643560443560243560043561393c565b60408051928352602083019190915290f35b506001600160a01b039060046020836000541660405192838092630536340960e21b82525afa80156103d2576108249361081092600092610880575b503391161491925050610803565b61089991925060203d81116103cb576103bc81836115fa565b9038610872565b346103e85760203660031901126103e85760043560005260146020526020604060002054604051908152f35b346103e85760003660031901126103e85760206001600160a01b0360005416604051908152f35b346103e85760003660031901126103e857602060ff60045460081c166040519015158152f35b346103e85760603660031901126103e857600435610936816105e4565b602435610942816105e4565b6001600160a01b038092168015808015610a3b575b610a11576109cd57826109776109c294600054166001600160a01b031690565b610997836001600160a01b03166001600160a01b03196000541617600055565b167fe939feee179e631422bcc8f6e6d7d908cb3f8af38f5372f17c77e15aea5c80ee600080a361630a565b610016604435600755565b606460405162461bcd60e51b815260206004820152601360248201527f6f776e2e696e76616c69642e68657862617365000000000000000000000000006044820152fd5b60046040517fa596f2f9000000000000000000000000000000000000000000000000000000008152fd5b5083831615610957565b346103e85760203660031901126103e857600435610a62816107c1565b610a6d61030f615fbf565b610a7633616103565b8015610a9c575b90610a8a61001692611640565b60ff8019600454169115151617600455565b506001600160a01b039060046020836000541660405192838092630536340960e21b82525afa80156103d25761001693610a8a92600092610ae6575b503391161491925050610a7d565b610aff91925060203d81116103cb576103bc81836115fa565b9038610ad8565b346103e85760203660031901126103e8576004356000526016602052608060406000208054906001810154906001600160a01b03600360028301549201541691604051938452602084015260408301526060820152f35b346103e85760003660031901126103e8576020600a54604051908152f35b346103e85760003660031901126103e8576020600854604051908152f35b346103e85760003660031901126103e8576020600554604051908152f35b600080600319360112610d695760ff600454166103d757610bd6611f34565b610be6610be1616231565b600255565b610bfa61062c82546001600160a01b031690565b60405190817f1b4fc17b000000000000000000000000000000000000000000000000000000009182825281600460209586935afa80156103d257610c47918591610d4c575b5034906163cb565b6000805260156020527fa31547ce6245cdb9ecea19cf8c7eb9f5974025bb4075011409251ae855b30aed610c7c348254611ea5565b9055610c95610c8961424f565b50915050600254611742565b81610caa61062c85546001600160a01b031690565b9160046040518094819382525afa9081156103d2577f1517c86fcf2bfb8e3468afcc539b0004955da8027797c497ea51d1f1094ab898928492610d2f575b5050600254604080513381526001600160a01b0393909316602084015260009083015234606083015260808201526103e860a082015260c090a1610d2c6001600355565b80f35b610d459250803d106103cb576103bc81836115fa565b3880610ce8565b610d639150843d86116103cb576103bc81836115fa565b38610c3f565b80fd5b346103e85760203660031901126103e857600435610d89816105e4565b610d9461030f615fbf565b610d9d33616103565b8015610db6575b90610db161001692611640565b611787565b506001600160a01b039060046020836000541660405192838092630536340960e21b82525afa80156103d25761001693610db192600092610e00575b503391161491925050610da4565b610e1991925060203d81116103cb576103bc81836115fa565b9038610df2565b346103e85760003660031901126103e85760206001600160a01b0360015416604051908152f35b60a03660031901126103e857600435610e5f816105e4565b610e6a61030f615fbf565b610e7333616103565b8015610e9c575b90610e8761082492611640565b608435906064359060443590602435906117c9565b506001600160a01b039060046020836000541660405192838092630536340960e21b82525afa80156103d25761082493610e8792600092610ee6575b503391161491925050610e7a565b610eff91925060203d81116103cb576103bc81836115fa565b9038610ed8565b346103e85760003660031901126103e8576020600b54604051908152f35b346103e85760003660031901126103e8576020600654604051908152f35b346103e85760003660031901126103e8576080610f5d61424f565b916040519384526020840152151560408301526060820152f35b346103e85760003660031901126103e857600460206001600160a01b03600054166040519283809263d1f956b160e01b82525afa9081156103d25761034d9161100791600091611017575b50604051610fcf816115a6565b601381527f67657464656c656761746f72436f756e742829000000000000000000000000006020820152611001611cf8565b9161670e565b6040519081529081906020820190565b61102f915060203d81116103cb576103bc81836115fa565b38610fc2565b346103e85760403660031901126103e8576110546024356004356159e3565b60405190600090825b6007831061106a5760e084f35b60019082518152602080910192019201919061105d565b346103e85760203660031901126103e85760043560005260176020526020604060002054604051908152f35b346103e85760003660031901126103e8576020600954604051908152f35b346103e85760203660031901126103e85760206110f26004356110ed816105e4565b616103565b6040519015158152f35b346103e85760003660031901126103e8576020600754604051908152f35b346103e85760203660031901126103e85760046001600160a01b036020816000541660405193848092630536340960e21b82525afa9182156103d2576000926111b6575b5033911603611172576100166004356164b5565b606460405162461bcd60e51b815260206004820152600f60248201527f6f776e2e6e6f6e617574682e44414f00000000000000000000000000000000006044820152fd5b6111cf91925060203d81116103cb576103bc81836115fa565b903861115e565b346103e85760203660031901126103e85760206111fd6004356111f8816105e4565b61688b565b6001600160a01b0360405191168152f35b346103e8576101003660031901126103e85761122b61030f615fbf565b61123433616103565b8015611264575b61124490611640565b61082460e43560c43560a435608435606435604435602435600435613a60565b5060046001600160a01b036020816000541660405193848092630536340960e21b82525afa9081156103d257611244926000926112a7575b50163314905061123b565b6112c091925060203d81116103cb576103bc81836115fa565b903861129c565b346103e85760403660031901126103e8576024356112e4816107c1565b6112ef61030f615fbf565b6112f833616103565b8015611314575b9061130c61001692611640565b60043561168b565b506001600160a01b039060046020836000541660405192838092630536340960e21b82525afa80156103d2576100169361130c9260009261135e575b5033911614919250506112ff565b61137791925060203d81116103cb576103bc81836115fa565b9038611350565b634e487b7160e01b600052603260045260246000fd5b60088110156113a657600c0190600090565b61137e565b346103e85760203660031901126103e85760043560088110156103e857602090600c0154604051908152f35b346103e8576020806003193601126103e8576080906004356000526018815260409081600020549160198252806000205490601a8352806000205491601b845281600020549382519586528501528301526060820152f35b346103e8576020806003193601126103e8576004803561144e816105e4565b6001600160a01b03928084600054166040519485809263d1f956b160e01b82525afa9081156103d25761034d946106c6946000936114aa575b50604051931681840152825261149c826115a6565b6114a46162d1565b906166d2565b6114c2919350823d84116103cb576103bc81836115fa565b9138611487565b346103e85760003660031901126103e85760206110f2615fbf565b346103e85760003660031901126103e85760206114ff616231565b604051908152f35b1561150e57565b606460405162461bcd60e51b815260206004820152601260248201527f6f776e2e696e76616c69642e69735361666500000000000000000000000000006044820152fd5b634e487b7160e01b600052604160045260246000fd5b6060810190811067ffffffffffffffff82111761158457604052565b611552565b610140810190811067ffffffffffffffff82111761158457604052565b6040810190811067ffffffffffffffff82111761158457604052565b6020810190811067ffffffffffffffff82111761158457604052565b60e0810190811067ffffffffffffffff82111761158457604052565b90601f8019910116810190811067ffffffffffffffff82111761158457604052565b908160209103126103e85751611631816105e4565b90565b6040513d6000823e3d90fd5b1561164757565b606460405162461bcd60e51b815260206004820152601b60248201527f6f776e2e6e6f6e617574682e44414f6f725365637572656261736500000000006044820152fd5b611693616231565b9081600255600052601c6020526040600020916000146116da57815480159081156116ce575b506116c3575b5050565b6116cc91611701565b565b600191501615386116b9565b600180835416146116c3575050565b80548210156113a65760005260206000200190600090565b908154916801000000000000000083101561158457826117299160016116cc950181556116e9565b90919082549060031b91821b91600019901b1916179055565b60c8600052601c6020527f922f6af691981b741eb02b3ed3453cc38ce623e8709ce524bd43bdbfc62af09991156116da57815480159081156116ce57506116c3575050565b6001600160a01b0381161561179f576116cc9061630a565b60046040517fb31092f1000000000000000000000000000000000000000000000000000000008152fd5b9092949360049160ff835416611c9f576117e1611f34565b6117f16117ed82616103565b1590565b611c8f57611800610be1616231565b60009461181761062c87546001600160a01b031690565b906040928351809663cfbffe5360e01b94858352828260209485935afa9788156103d2578a98611c70575b5061185c61184e611d0b565b611856611d23565b8a61670e565b978815611c245761187c61186e611d0b565b611876611d5c565b8361670e565b9061188a60029a8b54611dab565b916118bf6118a7611899611d0b565b6118a1611dcb565b8561670e565b926118b0611d0b565b906118b9611e04565b9061670e565b906118d4846000526014602052604060002090565b541091821592611c07575b5050611bdf576118f9906000526014602052604060002090565b8054600101905560018714948515611bd6578261192061062c8d546001600160a01b031690565b918389518094819382525afa9081156103d2576119619161068c918d91611bb9575b506119598c8a519384918883019190602083019252565b6118b9611e3d565b9b8c955b611ae9575b5050879695937f1517c86fcf2bfb8e3468afcc539b0004955da8027797c497ea51d1f1094ab89898611abf9694611a08946119f66119fb9560065415611ad0575b6119be6119b9600654611edd565b600655565b8b54856119c9611caf565b9288845283015289820152606081019e8f526119f16006546000526016602052604060002090565b611eec565b612664565b6001600160a01b03168852565b611a50611a1c88516001600160a01b031690565b6003611a346006546000526016602052604060002090565b01906001600160a01b03166001600160a01b0319825416179055565b88611a81611a5d826127f4565b98611a74611a6961424f565b509150508854611742565b516001600160a01b031690565b9454915195869533879260a09491979695929760c08501986001600160a01b0380921686521660208501526040840152606083015260808201520152565b0390a1611acc6001600355565b9190565b611ada8c54600855565b611ae48c54600955565b6119ab565b909192939450600554918c611afe8484611ea5565b10611b695750887f1517c86fcf2bfb8e3468afcc539b0004955da8027797c497ea51d1f1094ab89899989795611abf97956119f68f9496611b56611b5187611b4c6119fb9a611a089c611ea5565b611ed0565b600555565b955050945094965098819597985061196a565b611bb590875191829162461bcd60e51b8352820160609060208152601360208201527f73746f722e66616b652e6d696e7476616c75650000000000000000000000000060408201520190565b0390fd5b611bd09150853d87116103cb576103bc81836115fa565b38611942565b508b8c95611965565b5085517feb2c7de7000000000000000000000000000000000000000000000000000000008152fd5b8c1091508115611c1a575b5038806118df565b90508a1138611c12565b611bb582885191829162461bcd60e51b8352820160609060208152601560208201527f696e76616c6964206d696e744379636c6544617973000000000000000000000060408201520190565b611c88919850823d84116103cb576103bc81836115fa565b9638611842565b82604051630d419f7360e41b8152fd5b8260405163658141c160e01b8152fd5b604051906080820182811067ffffffffffffffff82111761158457604052565b604051906116cc826115de565b67ffffffffffffffff811161158457601f01601f191660200190565b60405190611d05826115c2565b60008252565b604051611d17816115c2565b60008152906000368137565b60405190611d30826115a6565b600f82527f6d696e744379636c6544617973282900000000000000000000000000000000006020830152565b60405190611d69826115a6565b601282527f6d61784d696e74735065724379636c65282900000000000000000000000000006020830152565b634e487b7160e01b600052601160045260246000fd5b8115611db5570490565b634e487b7160e01b600052601260045260246000fd5b60405190611dd8826115a6565b600c82527f6d696e4d696e74517479282900000000000000000000000000000000000000006020830152565b60405190611e11826115a6565b600c82527f6d61784d696e74517479282900000000000000000000000000000000000000006020830152565b60405190611e4a826115a6565b601982527f636f6d707574654d696e7456616c75652875696e7432353629000000000000006020830152565b90600e8201809211611e8457565b611d95565b6047019081604711611e8457565b9060018201809211611e8457565b91908201809211611e8457565b600019810191908211611e8457565b600119810191908211611e8457565b91908203918211611e8457565b6000198114611e845760010190565b60036001600160a01b0360606116cc948051855560208101516001860155604081015160028601550151169101906001600160a01b03166001600160a01b0319825416179055565b600260035414611f45576002600355565b60046040517f3ee5aeb5000000000000000000000000000000000000000000000000000000008152fd5b60405190611f7c826115de565b60e0368337565b90611f969291611f91611f34565b6120cc565b906001600355565b60405190611fab826115a6565b601082527f65616368636c61696d4379636c652829000000000000000000000000000000006020830152565b60405190611fe4826115a6565b601082527f6d696e436c61696d5065724461792829000000000000000000000000000000006020830152565b6040519061201d826115a6565b601082527f6d6178436c61696d5065724461792829000000000000000000000000000000006020830152565b60405190612056826115a6565b601682527f6d6178476c6f62616c436c61696d5065724461792829000000000000000000006020830152565b6040519061208f826115a6565b601582527f67657477697468647261776e2875696e743235362900000000000000000000006020830152565b90600a8110156113a65760051b0190565b929183811561265e575060025560006120ef61062c82546001600160a01b031690565b6040908151809163cfbffe5360e01b825281600460209384935afa9182156103d257849261263f575b5061212161424f565b50969150506121336002968754611742565b60326121628754600854936121488186611ea5565b8211156126385761215a915084611ea5565b925b83611ed0565b116126305761217090614611565b61218f61218661217e611d0b565b6118a1611f9e565b60095490611ea5565b908554918210156121ac575b5050505050506116cc610be1616231565b6121bf6121b7611d0b565b6118a1611fd7565b926121d36121cb611d0b565b611876612010565b600f6000526015602052926123356123056122d56122a56122756122457f3bda72f6153f13a10a865b9a6397e1123f4aa6a1726e0e1349cd07eb0e24d81554601060005260156020527f778c823f9b5f066b3c9d60b855427fd2999fcc25aebe3320977c1598596fffaf5b5490611ea5565b601160005260156020527fed5e5ecd5cb229fc7c2ed17e5e7cdfdc1d0a81991bd95ffdc4cdf25aca2d2ac361223e565b601260005260156020527f2d1305887a553ebca964114eb55137666ae056a13c7d9c5dcf078bd3a9732a3861223e565b601360005260156020527fa5165e376b84f33a3c944a34b062595f1fb4afde844645ed23ed1e10c257ebe161223e565b601460005260156020527fe06932cbfde2f2475d8c82e797702b1bf34af837520e34a39e7e7b5e28f71d5f61223e565b601560008190526020527ff38242ae41b6250df1acd58d7376889913b9221d9b2e1d2e50fb7d62671fa73361223e565b94851015612345575b505061219b565b61235c600492612353611d0b565b906118b9612049565b928061237261062c8a546001600160a01b031690565b88519485809263ab6e844f60e01b82525afa9081156103d2576123b693899261260d575b508751908101928352916123ae90839060200161068c565b6118b9612082565b10156125e457808211156125dc576123cd91611ed0565b9060015b60078111156124555750507fce9b89faa7d00b5a0dcea74b754372f1c8c1e2788b44e0b6fc99899848f9baf780546101008701527f6b9301c903fb63b5bb3b4ed52f960f66e3a0c33bca0ea2f28cf6e34d2eb058dd80546101208801526015602090815291849055600091909152919091555054600955388080808080808061233e565b61247161246182611e76565b6000526015602052604060002090565b5483612543579061253e91612490826000526015602052604060002090565b61249b828254611ea5565b9055856124aa61246184611e76565b556124bd6124b783611eb2565b8a6120bb565b525b7f1517c86fcf2bfb8e3468afcc539b0004955da8027797c497ea51d1f1094ab8986124ec6124b783611eb2565b518754906125366124fc85611e89565b875193849333859094939260a0926001600160a01b0360c08401971683526000602084015260006040840152606083015260808201520152565b0390a1611edd565b6123d1565b8381111561259d57906125598461253e93611ed0565b938461257a612572846000526015602052604060002090565b918254611ea5565b905561258861246183611e76565b5584936125976124b783611eb2565b526124bf565b6125ab9061253e9294611ed0565b926125c0816000526015602052604060002090565b50846125ce61246183611e76565b55846125976124b783611eb2565b5050816123cd565b600483517f1d63fe21000000000000000000000000000000000000000000000000000000008152fd5b819250612629906123ae923d85116103cb576103bc81836115fa565b9190612396565b505050505050565b509261215c565b816126579293503d84116103cb576103bc81836115fa565b9038612118565b93505050565b916126e4926126d5926001600160a01b039586600154169360025492604051957fc85700fb000000000000000000000000000000000000000000000000000000006020880152602487015260448601526064850152608484015260a483015260a482526126d0826115de565b616796565b6020808251830101910161161c565b1680156126ee5790565b60046040517fb1bdf8b0000000000000000000000000000000000000000000000000000000008152fd5b60405190612725826115a6565b600682527f706f6f6c282900000000000000000000000000000000000000000000000000006020830152565b908160e09103126103e85780519160208201519160408101519160608201519160808101519160c060a083015192015190565b9061271091828102928184041490151715611e8457565b9081606402916064830403611e8457565b81810292918115918404141715611e8457565b91909160008382019384129112908015821691151617611e8457565b81810392916000138015828513169184121617611e8457565b600490602061280e61062c6000546001600160a01b031690565b6040519384809263cfbffe5360e01b82525afa80156103d2576128d96128af6128946128d461289f61288961289961287961286a61288e996116319c6000916128eb575b5061285b611d0b565b90612864612718565b906165ad565b60208082518301019101612751565b9e8f9b969e9498929591506127ac565b6127ac565b936127ac565b612784565b90611dab565b946128bf6128af82600254611ea5565b6000526017602052604060002090565b6128ca8782546127bf565b9055600254611ea5565b611ea5565b6128e48282546127db565b90556127ac565b612903915060203d81116103cb576103bc81836115fa565b38612852565b60405190612916826115a6565b601382527f55736572546f496e7374286164647265737329000000000000000000000000006020830152565b6040519061294f826115a6565b600b82527f6d696e74436f756e7428290000000000000000000000000000000000000000006020830152565b60405190612988826115a6565b600e82527f6d696e74732875696e74323536290000000000000000000000000000000000006020830152565b604051906129c1826115a6565b600b82527f6d696e74656441676528290000000000000000000000000000000000000000006020830152565b604051906129fa826115a6565b600b82527f6d696e74656471747928290000000000000000000000000000000000000000006020830152565b60405190612a33826115a6565b600c82527f6964732875696e743235362900000000000000000000000000000000000000006020830152565b60405190612a6c826115a6565b600982527f6d696e74416d74282900000000000000000000000000000000000000000000006020830152565b604051906080820182811067ffffffffffffffff8211176115845760405260006060838281528260208201528260408201520152565b60405190612adb826115a6565b600a82527f647261776e6167652829000000000000000000000000000000000000000000006020830152565b60405190612b14826115a6565b600c82527f4c53422875696e743235362900000000000000000000000000000000000000006020830152565b60405190612b4d826115a6565b600782527f647261776e2829000000000000000000000000000000000000000000000000006020830152565b91908260c09103126103e85781519160208101519160408201519160608101519160a0608083015192015190565b60405190612bb4826115a6565b601382527f67657452657761726473286164647265737329000000000000000000000000006020830152565b91908260409103126103e8576020825192015190565b60405190612c03826115a6565b600782527f626f6e75732829000000000000000000000000000000000000000000000000006020830152565b60405190612c3c826115a6565b600682527f63616765282900000000000000000000000000000000000000000000000000006020830152565b60405190612c75826115a6565b601982527f67657445666665637469766552616e6b286164647265737329000000000000006020830152565b60405190612cae826115a6565b601f82527f6765746e6f646572616e6b61676528616464726573732c75696e7432353629006020830152565b60405190612ce7826115a6565b601082527f6765744e6f6465286164647265737329000000000000000000000000000000006020830152565b908160a09103126103e8578051916020820151612d2f816105e4565b9160408101519160806060830151612d46816107c1565b920151611631816107c1565b60405190612d5f826115a6565b601582527f67657444656c656761746f7228616464726573732900000000000000000000006020830152565b60405190612d98826115a6565b601482527f697344656c656761746f722861646472657373290000000000000000000000006020830152565b60405190612dd1826115a6565b601a82527f77697468647261776e496e636f6d654f662861646472657373290000000000006020830152565b60045460081c60ff16613939576004906020612e2461062c6000546001600160a01b031690565b6040519384809263111ea8c160e21b82525afa9182156103d257600092613918575b50612e9b612e7f612e8d612e626001546001600160a01b031690565b604080516001600160a01b03909216602083015290928391820190565b03601f1981018352826115fa565b612e95612909565b84616689565b906001600160a01b038216156138f457600581116138ca57612ecc612ebe611d0b565b612ec6612942565b8461670e565b90600654612eda8183611ea5565b8311156138c257612eea91611ea5565b816134ea575b5080600654149081156134e1575b50612f07575050565b612f22612f1d612f15611d0b565b612ec6612ace565b600a55565b600a546008548111613499575b50612f5b612f4c612f3e611d0b565b612f46612b40565b846165ad565b60208082518301019101612b79565b601560209081527f27739e4bb5e6f8b5e4b57a047dca8767cc9b982a011081e086cbb0dfa9de818d969096557f07d4ff730d9753101d832555708a37d38c2c45fce8cacaefc99f06074e93fe0b949094557fb3a65e8276bd33b3e4f7d6081ebd9899187264822358758dca2e2bc37b2a9c27929092557f8191f4eb6b8bafbfe9a5389c8d07d7f5fd81137a7ee653fc4358269845ee1d2e557f25847c9ccf691da811a9f934d6b3b92e6062ef92feb71bf4cb08cbb4fad8d6525560076000527f5d0f48e37dc1225cdee8d6f2a0315d796f55423522fe638d7d95421802dfc00655604080516001600160a01b0384169281019290925261308391613074916130669082908101612e7f565b61306e612ba7565b856165ad565b60208082518301019101612be0565b60156020527f535b9e1ac68faf16e764f210b80ec6320ee232f7656b4f9a2d0a74437eceaaac9190915560686000527f7ee1f11581f85e8bd439e065fc0e6555ccc3142caeda52fdbb7bed5ad7a8306a556130ea611b516130e2611d0b565b612ec6612bf6565b613100612f1d6130f8611d0b565b612ec6612c2f565b61313761313260405161312a81612e7f86602083019190916001600160a01b036020820193169052565b6118a1612c68565b600b55565b60005b600f8111156133a7575061317c61068c6131a29361317461318b94604051938491602083019190916001600160a01b036020820193169052565b612864612cda565b60208082518301019101612d13565b935050505060ff8019600454169115151617600455565b6131b761062c6000546001600160a01b031690565b604051907f6325dd0400000000000000000000000000000000000000000000000000000000808352602083600481855afa9283156103d257600093613386575b5061323e61320d6001546001600160a01b031690565b604080516001600160a01b0383166020820152919590613230908390810161068c565b613238612d52565b90616689565b604051828152602081600481875afa80156103d25761328f9261068c92600092613361575b5061328790604051938491602083019190916001600160a01b036020820193169052565b6114a4612d8b565b6132b6575b5050506132a2600854600955565b6116cc61010061ff00196004541617600455565b60209060046040518094819382525afa80156103d2576133089261068c9260009261333c575b5061330090604051938491602083019190916001600160a01b036020820193169052565b6118b9612dc4565b600560005260156020527fbab719002e4be320868650dc7456e9a1d245e4d5dd64765588e2f21529d871d355388080613294565b61330091925061335a9060203d6020116103cb576103bc81836115fa565b91906132dc565b61328791925061337f9060203d6020116103cb576103bc81836115fa565b9190613263565b6133a091935060203d6020116103cb576103bc81836115fa565b91386131f7565b806133c09161340f575b600b548111156133c557611edd565b61313a565b604080516001600160a01b038516602082015290810182905261340a90613401906133f38160608101612e7f565b6133fb612ca1565b8761670e565b61172983611394565b611edd565b6040517f5329daca0000000000000000000000000000000000000000000000000000000060208201526001600160a01b03841660248201526044810182905261346990613074906134638160648101612e7f565b86616796565b61347d836000526018602052604060002090565b90613492846000526019602052604060002090565b55556133b1565b6008556134c4612e7f6134bc600a54604051928391602083019190602083019252565b611876612b07565b6134da6008546000526017602052604060002090565b5538612f2f565b90501538612efe565b600080527f999d26de3473317ead3eeaf34ca78057f1439db67b6953469c3c96ce9caf6bd75460196020527fd2ac945fcc0096878c763e37d6929b78378c1a2defabde8ba7ee5ed1d6e7a5b2549095909491929091905b60065484811015613865576119b961355891611edd565b613586612e7f613578600654604051928391602083019190602083019252565b61358061297b565b87616689565b61359c610be1613594611d0b565b612ec66129b4565b61364e6135b26135aa611d0b565b612ec66129ed565b986135d76040516135cf81612e7f60208201906000602083019252565b6118a1612a26565b986135f46135ee6135e6611d0b565b6133fb612a5f565b9461688b565b602061360b61062c6000546001600160a01b031690565b6040517fcfaa1f6c0000000000000000000000000000000000000000000000000000000081526001600160a01b0390931660048401529194859081906024820190565b0381845afa9384156103d257600094613844575b506001600160a01b038416156137d2575b506136806117ed84616103565b6137c1578a928484613690612a98565b938285528160208601526002958654604087015283866006546136bd906000526016602052604060002090565b906136c791611eec565b6136d091611ea5565b9e6136da91611ea5565b9c6136e493612664565b6006546136fb906000526016602052604060002090565b6003019061371e91906001600160a01b03166001600160a01b0319825416179055565b613727846127f4565b506006546001149361376d60606137aa937f1517c86fcf2bfb8e3468afcc539b0004955da8027797c497ea51d1f1094ab898976137b2575b01516001600160a01b031690565b9254604080513381526001600160a01b03909516602086015284019490945260608301526080820192909252600060a082015290819060c0820190565b0390a1613541565b6137bc8654600855565b61375f565b6004604051630d419f7360e41b8152fd5b6040517fb771c89600000000000000000000000000000000000000000000000000000000815260006004820152919350602090829060249082905afa9081156103d257600091613825575b509138613673565b61383e915060203d6020116103cb576103bc81836115fa565b3861381d565b61385e91945060203d6020116103cb576103bc81836115fa565b9238613662565b50600080527f999d26de3473317ead3eeaf34ca78057f1439db67b6953469c3c96ce9caf6bd79690965560196020527fd2ac945fcc0096878c763e37d6929b78378c1a2defabde8ba7ee5ed1d6e7a5b29490945593905038612ef0565b505080612eea565b60046040517fc99d37d2000000000000000000000000000000000000000000000000000000008152fd5b505050613902612f1d616231565b61390d600a54600855565b6132a2600a54600955565b61393291925060203d6020116103cb576103bc81836115fa565b9038612e46565b50565b959394909291946000966000968461395657505050505050565b919395965091939650600b5496846000146139be5761397f866000526018602052604060002090565b8054918201809211611e84576139af966139a89261257292556000526019602052604060002090565b9055614043565b600b5490388080808080612630565b85600096929652601860205260406000208054918203918211611e84575560005260196020526040600020938454908103908111611e84576139af9455614043565b60405190613a0d826115a6565b601482527f6c6576656c436c617573652875696e74323536290000000000000000000000006020830152565b908160a09103126103e8578051916020820151916040810151916080606083015192015190565b831515989793969095938980613e91575b80613e88575b613e2e575b5050600b5497613a96876000526018602052604060002090565b613aa1838254611ea5565b9055613ab7876000526019602052604060002090565b613ac2848254611ea5565b90556000805260186020527f999d26de3473317ead3eeaf34ca78057f1439db67b6953469c3c96ce9caf6bd75415159081613e26575b50613b0a575b505050505050600b5490565b8391159485159485613e16575b50506000613b2f61062c82546001600160a01b031690565b604051809163cfbffe5360e01b825281600460209384935afa80156103d25761068c613b8091613b8d948691613df9575b50613b788c6040519384918783019190602083019252565b612864613a00565b8051810182019101613a39565b96919293909760028c1192831593613dca575b505050613bb0575b505050613afe565b613c1a9615613dc157612899613bc9613bcf93866127ac565b9161279b565b955b15613db75750613bc9613be793612899926127ac565b925b613bfd81600052601a602052604060002090565b613c08848254611ea5565b9055600052601b602052604060002090565b613c25838254611ea5565b905560016000819052601c602052613c5f7f6de76108811faf2f94afbe5ac6c98e8393206cd093932de1fbfd61bbeec43a025b5460011690565b148015613d7b575b613d40575b506004600052601c6020526001613ca27fadacb2ae086d090ae1cbb87d66774fa6d708dd14d5bdc5b6c1e455aa2020dfb7613c58565b148015613d04575b613cc9575b50613cbb610c8961424f565b388080808080808080613ba8565b600b6000526015602052613cfc7fcaeae41dfed97dfd8c41876ff591faa3e36cda388621c550caa3321a2a624e5f612572565b905538613caf565b5060c8600052601c6020526001613d3a7f922f6af691981b741eb02b3ed3453cc38ce623e8709ce524bd43bdbfc62af099613c58565b14613caa565b60086000526015602052613d737f2d0e46a571fdfbe57c7c718891a8a12999c102dfffa2b3314ea165dedd1684f5612572565b905538613c6c565b5060c8600052601c6020526001613db17f922f6af691981b741eb02b3ed3453cc38ce623e8709ce524bd43bdbfc62af099613c58565b14613c67565b9250505092613be9565b50508095613bd1565b613dda91929350600a5490611ed0565b10908115613dec575b50388080613ba0565b9050600b54101538613de3565b613e109150843d86116103cb576103bc81836115fa565b38613b60565b613e1f91613ed3565b3882613b17565b905038613af8565b600b5480928110159182613e7d575b505015613e4b575b80613a7c565b83613e6b613e65613e5b84611394565b90549060031b1c90565b87611ed0565b1115613e455797505050505050508190565b101590508138613e3d565b50801515613a77565b50811515613a71565b60405190613ea7826115a6565b601382527f72616e6b436c617573652875696e7432353629000000000000000000000000006020830152565b90613ee961062c6000546001600160a01b031690565b906040928351809363cfbffe5360e01b825281600460209384935afa9384156103d257600094614024575b50600b93613f228554611e97565b60088110613f335750505050505050565b613f9f90613f70613f628951613f5481612e7f868a83019190602083019252565b613f5c613e9a565b866165ad565b858082518301019101612be0565b90861015908180614006575b80613ff4575b15613fa4575050613f9281600b55565b61340a8661172983611394565b613f22565b81613fd5575b50613fcc5761340a613fbb82611394565b8154906000199060031b1b19169055565b61340a81600b55565b9050613feb826000526019602052604060002090565b54101538613faa565b50885461400084611eb2565b14613f82565b508061401c846000526019602052604060002090565b541015613f7c565b8161403c9295503d86116103cb576103bc81836115fa565b9238613f14565b9061405961062c6000546001600160a01b031690565b916040938451809463cfbffe5360e01b825281600460209384935afa9485156103d25760009561419d575b50600b946140928654611e97565b600881106140a4575050505050505050565b6140ef90846140e26140d48b516140c681612e7f878b83019190602083019252565b6140ce613e9a565b876165ad565b868082518301019101612be0565b916140f4575b5050611edd565b614092565b87101590818061417f575b8061416d575b1561412957505061411581600b55565b6141228761172983611394565b38806140e8565b8161414e575b5061414557614140613fbb82611394565b614122565b61414081600b55565b9050614164826000526019602052604060002090565b5410153861412f565b50895461417984611eb2565b14614105565b5080614195846000526019602052604060002090565b5410156140ff565b816141b59296503d87116103cb576103bc81836115fa565b9338614084565b604051906141c9826115a6565b600982527f63617070696e67282900000000000000000000000000000000000000000000006020830152565b908160e09103126103e8578051916020820151614211816107c1565b916040810151614220816107c1565b91606082015161422f816107c1565b91608081015161423e816107c1565b9160c060a0830151612d46816107c1565b6000906004602061426b61062c6000546001600160a01b031690565b6040519283809263cfbffe5360e01b82525afa9081156103d2576142bb916142ac916000916145f3575b5061429e6141bc565b6142a6611cf8565b916165ad565b602080825183010191016141f5565b6000805260186020529396959490929091906142f8867f999d26de3473317ead3eeaf34ca78057f1439db67b6953469c3c96ce9caf6bd7546127ac565b97614301615922565b946145eb575b50614555575b6144ef575b6144de575b50614470575b61438d575b6000805260156020527fa31547ce6245cdb9ecea19cf8c7eb9f5974025bb4075011409251ae855b30aed54614356916127ac565b808410614384576143679084611ed0565b905b8282119183811061437a5750600090565b6116319084611ed0565b50600090614369565b600660005260156020529261435690614468906144626123056144326144026122d57f25847c9ccf691da811a9f934d6b3b92e6062ef92feb71bf4cb08cbb4fad8d6525b54600d60005260156020527fe3e3bb3f660b5aca6f44f8cdafd6456c07cd53888341ab748ffc02d532ccc70e61223e565b600760005260156020527f5d0f48e37dc1225cdee8d6f2a0315d796f55423522fe638d7d95421802dfc00661223e565b600e60005260156020527f39f65be0de5254440eb2b93b160b1af3a4f45fe0571eaea7ef454b27b7f02d1861223e565b90611ea5565b939050614322565b60056000526015602052936144d8906144626122a57fbab719002e4be320868650dc7456e9a1d245e4d5dd64765588e2f21529d871d35b54600c60005260156020527f74c10a04815bbeaf3165dab0bd11b69aae73edf00a48b27ec8c53ac5b61d47fd61223e565b9361431d565b6144e89196611ea5565b9438614317565b60156020527fb3a65e8276bd33b3e4f7d6081ebd9899187264822358758dca2e2bc37b2a9c2754600a600052909761454f9161446290612245907f0cfcac9f3767130657d3b01a9146da544eeb39eb9670066ace5e84da7fc4319f61223e565b96614312565b60156020527f07d4ff730d9753101d832555708a37d38c2c45fce8cacaefc99f06074e93fe0b54600960005290986145e591614462906145b5907f497613c0658032a90a449a944031c57b1d03996c3a6148fe12146c45cf32140061223e565b601060005260156020527f778c823f9b5f066b3c9d60b855427fd2999fcc25aebe3320977c1598596fffaf61223e565b9761430d565b995038614307565b61460b915060203d81116103cb576103bc81836115fa565b38614295565b6116cc9061461e81614acf565b8051600f60005260156020526146537f3bda72f6153f13a10a865b9a6397e1123f4aa6a1726e0e1349cd07eb0e24d815612572565b905560608101516012600052601560205261468d7f2d1305887a553ebca964114eb55137666ae056a13c7d9c5dcf078bd3a9732a38612572565b9055602081810151601060005260159091526146c87f778c823f9b5f066b3c9d60b855427fd2999fcc25aebe3320977c1598596fffaf612572565b9055604081018051601160005260156020526147037fed5e5ecd5cb229fc7c2ed17e5e7cdfdc1d0a81991bd95ffdc4cdf25aca2d2ac3612572565b905560808201516013600052601560205261473d7fa5165e376b84f33a3c944a34b062595f1fb4afde844645ed23ed1e10c257ebe1612572565b905560a0820151601460005260156020526147777fe06932cbfde2f2475d8c82e797702b1bf34af837520e34a39e7e7b5e28f71d5f612572565b905560c0820151601560008190526020526147b17ff38242ae41b6250df1acd58d7376889913b9221d9b2e1d2e50fb7d62671fa733612572565b9055610100820151600960005260156020526147ec7f497613c0658032a90a449a944031c57b1d03996c3a6148fe12146c45cf321400612572565b905561012082018051600a600052601560205290926101c09161482e7f0cfcac9f3767130657d3b01a9146da544eeb39eb9670066ace5e84da7fc4319f612572565b9055610160810151600c60005260156020526148697f74c10a04815bbeaf3165dab0bd11b69aae73edf00a48b27ec8c53ac5b61d47fd612572565b9055610180810151600d60005260156020526148a47fe3e3bb3f660b5aca6f44f8cdafd6456c07cd53888341ab748ffc02d532ccc70e612572565b90556101a0810151600e60005260156020526148df7f39f65be0de5254440eb2b93b160b1af3a4f45fe0571eaea7ef454b27b7f02d18612572565b905501516148f7846000526017602052604060002090565b5551601f600052601560205261492c7fce9b89faa7d00b5a0dcea74b754372f1c8c1e2788b44e0b6fc99899848f9baf7612572565b90555160206000819052601590526149637f6b9301c903fb63b5bb3b4ed52f960f66e3a0c33bca0ea2f28cf6e34d2eb058dd612572565b9055600855565b604051906101e0820182811067ffffffffffffffff82111761158457604052816101c06000918281528260208201528260408201528260608201528260808201528260a08201528260c08201528260e08201528261010082015282610120820152826101408201528261016082015282610180820152826101a08201520152565b604051906149f8826115a6565b600a82527f73687574646f776e2829000000000000000000000000000000000000000000006020830152565b60405190614a31826115a6565b601882527f676574557365724964546f496e73742875696e743235362900000000000000006020830152565b60405190614a6a826115a6565b601182527f696e636f6d654f662861646472657373290000000000000000000000000000006020830152565b60405190614aa3826115a6565b601482527f636f6d70757465546f75722875696e74323536290000000000000000000000006020830152565b90614ad861496a565b91614aee61062c6000546001600160a01b031690565b60409182519163ab6e844f60e01b83526020908184600481845afa9384156103d257600094614f41575b50845163cfbffe5360e01b81528281600481855afa9182156103d25785896004968694600096614f1a575b5090614c7b859287614b65614b566149eb565b614b5e611cf8565b90836166d2565b9b8c92614c11614b73615922565b6060890190815281895260156020527f27739e4bb5e6f8b5e4b57a047dca8767cc9b982a011081e086cbb0dfa9de818d54600860005290929190614c0b90614bdb907f2d0e46a571fdfbe57c7c718891a8a12999c102dfffa2b3314ea165dedd1684f561223e565b600f60005260156020527f3bda72f6153f13a10a865b9a6397e1123f4aa6a1726e0e1349cd07eb0e24d81561223e565b90611ed0565b8752805160156020527f8191f4eb6b8bafbfe9a5389c8d07d7f5fd81137a7ee653fc4358269845ee1d2e54600b600052614c749190614c0b90612275907fcaeae41dfed97dfd8c41876ff591faa3e36cda388621c550caa3321a2a624e5f61223e565b9052615177565b509d94939096926101c087939701526101008201520152600014614f0a57505061068c614cc291614cba6007548b519384918883019190602083019252565b613238614a24565b31878a01525b8651948580927f52b06d640000000000000000000000000000000000000000000000000000000082525afa9283156103d257600093614eeb575b50614d8d614d57614d3b614d1e6001546001600160a01b031690565b88519182918783019190916001600160a01b036020820193169052565b0395614d4f601f19978881018452836115fa565b6118b9614a5d565b60056000526015602052614c0b6122a57fbab719002e4be320868650dc7456e9a1d245e4d5dd64765588e2f21529d871d36144a7565b94608088019586526004600b54600281101580614eae575b614e70575b101580614e0f575b614dd0575b50505050614dc25750565b806000915161016085015252565b614e0193614ded93614df992519485918201906004602083019252565b039081018452836115fa565b6118b9614a96565b60c085015238808080614db7565b5060156020527f5d0f48e37dc1225cdee8d6f2a0315d796f55423522fe638d7d95421802dfc00654600e600052614e6a90612305907f39f65be0de5254440eb2b93b160b1af3a4f45fe0571eaea7ef454b27b7f02d1861223e565b15614db2565b614ea48351614e9681614e8a898201906002602083019252565b038981018352826115fa565b614e9e614a96565b8661670e565b60a08b0152614daa565b5060066000526015602052614ee56122d57f25847c9ccf691da811a9f934d6b3b92e6062ef92feb71bf4cb08cbb4fad8d6526143d1565b15614da5565b614f03919350823d84116103cb576103bc81836115fa565b9138614d02565b8b8a01526101208b015250614cc8565b8592919650614f38614c7b91843d86116103cb576103bc81836115fa565b96919250614b43565b614f59919450823d84116103cb576103bc81836115fa565b9238614b18565b604051906040820182811067ffffffffffffffff8211176115845760405260006020838281520152565b6040519060a0820182811067ffffffffffffffff8211176115845760405281614fb1614f60565b8152614fbb614f60565b6020820152614fc8614f60565b6040820152614fd5614f60565b60608201526080614fe4614f60565b910152565b60405190614ff6826115a6565b601882527f6765744261746368526f79616c7479436c6175736573282900000000000000006020830152565b6102a09081818403126103e85782601f820112156103e8576040805193615048856115de565b84938301928184116103e857935b83851061506557505050505090565b6060858303126103e857825160609161507d82611568565b8651825260209182880151838201528588015186820152815201940193615056565b604051906150ac826115a6565b601f82527f676574526f79616c697479416d6f756e7442617463682875696e7432353629006020830152565b9060e0828203126103e85780601f830112156103e857604051916150fb836115de565b829060e081019283116103e857905b8282106151175750505090565b815181526020918201910161510a565b9060078110156113a65760051b0190565b8181029291600082127f8000000000000000000000000000000000000000000000000000000000000000821416611e84578184051490151715611e8457565b9290600094600094600094600094600094615214615205615196614f8a565b946151a087615618565b8751906020820152526151b2876156f5565b6020880151906020820152526151c787615788565b6040880151906020820152526151dc8761582a565b6060880151906020820152526151f1876158a6565b60808801519060208201525261429e614fe9565b60208082518301019101615022565b91600854600b54905b868110615269575050505050602081510151821191829182158094615257575b939261524857505091565b60800151602001511015929050565b5060206060820151015182111561523d565b61529f61529060405161528881612e7f86602083019190602083019252565b6140ce61509f565b602080825183010191016150d8565b6001905b838211156154fc57505082156152c2575b6152bd90611edd565b61521d565b6152e16152d9826000526017602052604060002090565b54809c6127bf565b9a6152ec8289611ed0565b90600091604089015189518b825181811080845193841093816154f4575b816154d1575b501561540357505050602080835183518082106000146153fb5750935b0151910151808211156153f35750905b808611156153ed575084905b61535281611e97565b8c10156153df57508a5b8181116153cc575b50505b8083116153c4575b8261537991611ed0565b91806153ae575b508161538e575b50506152b4565b9a6153a06153a6926152bd949d615138565b906127bf565b999038615387565b9a6153a0829c6153bd93615138565b9938615380565b91508161536f565b6153d7929450611ed0565b913880615364565b6153e890611e97565b61535c565b90615349565b90509061533d565b90509361532d565b9391929361547b575b5050615419575b50615367565b8051808611156154725750602085915b016154348151611e97565b8c101561546357508a5b81811161544c575b50615413565b61545b92949161446291611ed0565b913880615446565b61546d9051611e97565b61543e565b60209091615429565b808811156154c85750602087915b018d6154958251611e97565b11156154b957508c5b8181111561540c576154b1929650611ed0565b93388061540c565b6154c39051611e97565b61549e565b60209091615489565b905060208601511080156154e7575b1538615310565b50816020850151106154e0565b84915061530a565b909c61551061550a8f611eb2565b88615127565b51511580156155c2575b6155b8578751805184101590816155a9575b508015615582575b156155665761555a615560918f61554d61555391611eb2565b85615127565b5190611ea5565b9d611edd565b906152a3565b9c9d61557c8f9161555361554d61556094611eb2565b9e611edd565b5060208801518051841015908161559a575b50615534565b60209150015183111538615594565b6020915001518311153861552c565b9c61556090611edd565b508d6155d0613e5b82611394565b84101590816155e1575b501561551a565b61560f915060406156066156006155fa613e5b85611394565b93611eb2565b8b615127565b51015190611ea5565b8311158e6155da565b60c8600052601c6020527f922f6af691981b741eb02b3ed3453cc38ce623e8709ce524bd43bdbfc62af099805492919083156156ee57600184166156d657505060c8600052601c602052613e5b6156987f922f6af691981b741eb02b3ed3453cc38ce623e8709ce524bd43bdbfc62af09961569285611ec1565b906116e9565b905460c8600052601c60205260039190911b1c926156927f922f6af691981b741eb02b3ed3453cc38ce623e8709ce524bd43bdbfc62af09991611eb2565b6156926156e39294611eb2565b90549060031b1c9190565b5091508190565b60026000908152601c6020527ff5b6e61a0c14f171ef1c86f003900ef0305e4159fff3317e4fb7c351f2050c8780549193929082156157805760018316615771575050613e5b9060028452601c602052615692604061575981872061569285611ec1565b90549060031b1c9560028152601c6020522091611eb2565b9093506156926156e392611eb2565b509250508190565b60036000818152601c6020527fb0deb225ecd3a242ef7d55f0f81ae3b924e0b6f9da8bc33b306fb32ca5f287f78054919493908215615821576001831661580957505061580190828552601c60205261569260406157eb81882061569285611ec1565b905490861b1c96858152601c6020522091611eb2565b9054911b1c90565b90945061569261581892611eb2565b9054911b1c9190565b50935050508190565b60056000908152601c6020527f0de3fcd0b495fcf96d4f4ab29f8e12012b60a56d458f4c95fdde42b927ce97a080549193929082156157805760018316615771575050613e5b9060058452601c602052615692604061588e81872061569285611ec1565b90549060031b1c9560058152601c6020522091611eb2565b60066000908152601c6020527fb2d730c3da277545f6c9f2c922ea3d0e9fcbd74e29d321b995a837ef61c283f080549193929082156157805760018316615771575050613e5b9060068452601c602052615692604061590a81872061569285611ec1565b90549060031b1c9560068152601c6020522091611eb2565b600090816001815b600f8211156159a3575050606560005260156020527f535b9e1ac68faf16e764f210b80ec6320ee232f7656b4f9a2d0a74437eceaaac548101809111611e845760686000526015602052917f7ee1f11581f85e8bd439e065fc0e6555ccc3142caeda52fdbb7bed5ad7a8306a548101809111611e845790565b9093848252602092601a8452604090818420548101809111611e8457601b9094878552528220548101809111611e84576159dd9094611edd565b9061592a565b9190916159ee611f6f565b928115615e395760018214615d135760028214615be85760038214615afd57615a3d90615a19616231565b90600854615a278282611ea5565b831115615af657615a389250611ea5565b614acf565b9060048114615aa757600514615a505750565b9091506101a0615a5e611ccf565b9160e08101518352610100810151602084015261012081015160408401526101408101516060840152610160810151608084015261018081015160a0840152015160c082015290565b5090915060c0615ab5611ccf565b91805183526020810151602084015260408101516040840152606081015160608401526080810151608084015260a081015160a0840152015160c082015290565b5050614acf565b50509050615b09611ccf565b7fa31547ce6245cdb9ecea19cf8c7eb9f5974025bb4075011409251ae855b30aed5481527fce9b89faa7d00b5a0dcea74b754372f1c8c1e2788b44e0b6fc99899848f9baf7546020808301919091527f6b9301c903fb63b5bb3b4ed52f960f66e3a0c33bca0ea2f28cf6e34d2eb058dd5460408301527f535b9e1ac68faf16e764f210b80ec6320ee232f7656b4f9a2d0a74437eceaaac5460608301526068600090815260159091527f7ee1f11581f85e8bd439e065fc0e6555ccc3142caeda52fdbb7bed5ad7a8306a54608083015260a0820181905260c082015290565b50509050615bf4611ccf565b7f3bda72f6153f13a10a865b9a6397e1123f4aa6a1726e0e1349cd07eb0e24d8155481527f778c823f9b5f066b3c9d60b855427fd2999fcc25aebe3320977c1598596fffaf546020808301919091527fed5e5ecd5cb229fc7c2ed17e5e7cdfdc1d0a81991bd95ffdc4cdf25aca2d2ac35460408301527f2d1305887a553ebca964114eb55137666ae056a13c7d9c5dcf078bd3a9732a385460608301527fa5165e376b84f33a3c944a34b062595f1fb4afde844645ed23ed1e10c257ebe15460808301527fe06932cbfde2f2475d8c82e797702b1bf34af837520e34a39e7e7b5e28f71d5f5460a08301526015600081905290527ff38242ae41b6250df1acd58d7376889913b9221d9b2e1d2e50fb7d62671fa7335b5460c082015290565b50509050615d1f611ccf565b7f2d0e46a571fdfbe57c7c718891a8a12999c102dfffa2b3314ea165dedd1684f55481527f497613c0658032a90a449a944031c57b1d03996c3a6148fe12146c45cf321400546020808301919091527f0cfcac9f3767130657d3b01a9146da544eeb39eb9670066ace5e84da7fc4319f5460408301527fcaeae41dfed97dfd8c41876ff591faa3e36cda388621c550caa3321a2a624e5f5460608301527f74c10a04815bbeaf3165dab0bd11b69aae73edf00a48b27ec8c53ac5b61d47fd5460808301527fe3e3bb3f660b5aca6f44f8cdafd6456c07cd53888341ab748ffc02d532ccc70e5460a0830152600e600052601590527f39f65be0de5254440eb2b93b160b1af3a4f45fe0571eaea7ef454b27b7f02d18615d0a565b50509050615e45611ccf565b7f27739e4bb5e6f8b5e4b57a047dca8767cc9b982a011081e086cbb0dfa9de818d5481527f07d4ff730d9753101d832555708a37d38c2c45fce8cacaefc99f06074e93fe0b546020808301919091527fb3a65e8276bd33b3e4f7d6081ebd9899187264822358758dca2e2bc37b2a9c275460408301527f8191f4eb6b8bafbfe9a5389c8d07d7f5fd81137a7ee653fc4358269845ee1d2e5460608301527fbab719002e4be320868650dc7456e9a1d245e4d5dd64765588e2f21529d871d35460808301527f25847c9ccf691da811a9f934d6b3b92e6062ef92feb71bf4cb08cbb4fad8d6525460a08301526007600052601590527f5d0f48e37dc1225cdee8d6f2a0315d796f55423522fe638d7d95421802dfc006615d0a565b15615f6657565b606460405162461bcd60e51b815260206004820152601960248201527f6f776e2e7361666567756172642e63616c6c2e6661696c6564000000000000006044820152fd5b908160209103126103e85751611631816107c1565b6001600160a01b03600054166040518091634bf9c0ad60e11b825281600460209384935afa9182156103d2576116319261604791600091616062575b50604051616008816115a6565b600881527f6973536166652829000000000000000000000000000000000000000000000000848201526040519161603e836115c2565b600083526165d8565b919080616058575b6106b990615f5f565b508151811461604f565b6160799150833d85116103cb576103bc81836115fa565b38615ffb565b6040519061608c826115a6565b601582527f69735365637572654261736528616464726573732900000000000000000000006020830152565b156160bf57565b606460405162461bcd60e51b815260206004820152601a60248201527f6f776e2e736563757265626173652e63616c6c2e6661696c65640000000000006044820152fd5b6000546001600160a01b0316604051918291634bf9c0ad60e11b835282600460209485935afa9283156103d2576116319361616f9261068c9260009261618a575b50616167906040519384918783019190916001600160a01b036020820193169052565b6106a261607f565b919080616180575b6106b9906160b8565b5081518114616177565b6161679192506161a690863d88116103cb576103bc81836115fa565b9190616144565b604051906161ba826115a6565b601182527f69735369676e65722861646472657373290000000000000000000000000000006020830152565b156161ed57565b606460405162461bcd60e51b815260206004820152601660248201527f6f776e2e7369676e65722e63616c6c2e6661696c6564000000000000000000006044820152fd5b600460206001600160a01b03600054166040519283809263111ea8c160e21b82525afa80156103d257611631916000916162b3575b50604051616273816115a6565b600581527f61676528290000000000000000000000000000000000000000000000000000006020820152604051916162aa836115c2565b6000835261670e565b6162cb915060203d81116103cb576103bc81836115fa565b38616266565b604051906162de826115a6565b601882527f697364656c656761746f724e6f646528616464726573732900000000000000006020830152565b6001600160a01b0380911690811561635757600154826001600160a01b0319821617600155167f8292fce18fa69edf4db7b94ea2e58241df0ae57f97e0a6c9b29067028bf92d76600080a3565b606460405162461bcd60e51b815260206004820152601160248201527f6f776e2e696e76616c69642e6f776e65720000000000000000000000000000006044820152fd5b3d156163c6573d906163ac82611cdc565b916163ba60405193846115fa565b82523d6000602084013e565b606090565b9080156116bf576001600160a01b03821691821561647157600080808481945af16163f461639b565b501561642d576040519081527fcec1f18c3ab8ddaaa107a1591e3c369667eec613626611a8deaedef43069fcdd9080602081015b0390a2565b606460405162461bcd60e51b815260206004820152601360248201527f6f776e2e7472616e736665722e6661696c6564000000000000000000000000006044820152fd5b606460405162461bcd60e51b815260206004820152600e60248201527f6f776e2e696e76616c69642e746f0000000000000000000000000000000000006044820152fd5b6000600460206001600160a01b03835416604051928380927f46f991ac0000000000000000000000000000000000000000000000000000000082525afa9081156103d257828481938293839161658f575b505af161651161639b565b501561654b5760405190815233907fcdcc745fe377b103b45fa0cec23ae3ef93d6fc6a84a01f0d18c40b354dd1d5d8908060208101616428565b606460405162461bcd60e51b815260206004820152600f60248201527f6f776e2e6275726e2e6661696c656400000000000000000000000000000000006044820152fd5b6165a7915060203d81116103cb576103bc81836115fa565b38616506565b906165b892916165d8565b90600090156165c5575090565b60405191506165d3826115c2565b815290565b9190823b15616670577fffffffff00000000000000000000000000000000000000000000000000000000815160208093012016916040519180830193845281519160005b83811061665c575050509181616649602482600097959688970187838201520360048101845201826115fa565b5191620dbba0fa61665861639b565b9091565b81810183015185820160240152820161661c565b505050600090604051616682816115c2565b6000815290565b9291616697916000946165d8565b90806166c7575b6166a55750565b6001600160a01b03919250806020806166c39351830101910161161c565b1690565b50602081511461669e565b92916166e0916000946165d8565b9080616703575b6166ee5750565b61163191925060208082518301019101615faa565b5060208151146166e7565b929161671c916000946165d8565b9080616741575b61672a5750565b9091506020818051810103126103e8576020015190565b506020815114616723565b90602082519201517fffffffff0000000000000000000000000000000000000000000000000000000090818116936004811061678757505050565b60040360031b82901b16169150565b6001600160a01b0381161561684757600080918351908260208601915af1906167bd61639b565b91156167c7575090565b805160009190600411616841576167de915061674c565b8151156167ee5750805190602001fd5b6024907fffffffff00000000000000000000000000000000000000000000000000000000604051917f21c09d34000000000000000000000000000000000000000000000000000000008352166004820152fd5b506167de565b606460405162461bcd60e51b815260206004820152601260248201527f6f776e2e696e76616c69642e74617267657400000000000000000000000000006044820152fd5b803b600061689882611cdc565b926168a660405194856115fa565b82845260208401903c602d8151106168c257602a015160601c90565b606460405162461bcd60e51b815260206004820152601360248201527f4e6f742061206d696e696d616c2070726f7879000000000000000000000000006044820152fdfea2646970667358221220cb70008a998045a6e25a80503d88150c0f099f0d00d0def0fc7d9187db15c27764736f6c63430008140033","linkReferences":{}},"methodIdentifiers":{"instanceStor()":"131c73ad"},"id":69}