{"abi":[{"type":"constructor","inputs":[{"name":"_hex","type":"address","internalType":"address"}],"stateMutability":"nonpayable"},{"type":"function","name":"rule741","inputs":[],"outputs":[{"name":"","type":"address","internalType":"address"}],"stateMutability":"view"},{"type":"function","name":"transferRequest","inputs":[],"outputs":[{"name":"","type":"address","internalType":"address"}],"stateMutability":"view"}],"bytecode":{"object":"0x6080346200012d57601f62006ff238819003918201601f19168301926001600160401b0392909183851183861017620001175781602092849260409788528339810103126200012d57516001600160a01b0390818116908190036200012d57835190614b9391828101928184108685111762000117576200245f823981835260208160009403019083f09384156200010d5782549484166001600160a01b031995861617835585519161225c8084019284841090841117620000f957918391602093620002038439815203019082f0908115620000ee5750169060015416176001555160d09081620001338239f35b8451903d90823e3d90fd5b634e487b7160e01b85526041600452602485fd5b85513d84823e3d90fd5b634e487b7160e01b600052604160045260246000fd5b600080fdfe6080806040526004361015601257600080fd5b600090813560e01c9081630a5b38ab1460685750633da8676f14603457600080fd5b3460655780600319360112606557602073ffffffffffffffffffffffffffffffffffffffff60015416604051908152f35b80fd5b9050346096578160031936011260965773ffffffffffffffffffffffffffffffffffffffff60209254168152f35b5080fdfea264697066735822122088992816a9e490103c74925125436d2ffa2f75221dab2b3f5f8dd8a79e0a431864736f6c6343000814003360803461009757601f61225c38819003918201601f19168301916001600160401b0383118484101761009c5780849260209460405283398101031261009757516001600160a01b038116908190036100975780156100855760018060a01b031933816001541617600155600054161760005560016003556040516121a990816100b38239f35b60405163e6c4247b60e01b8152600490fd5b600080fd5b634e487b7160e01b600052604160045260246000fdfe60806040526004361015610018575b361561001657005b005b60003560e01c806312065fe01461019857806318c864e3146101935780631f185d161461018e5780633676bd1f146101895780633b9b795514610184578063479fa2c31461017f5780634ef260a91461017a5780638da5cb5b146101755780639fb3953b14610170578063a1f7f5391461016b578063ab7e46ae14610166578063ac23334514610161578063af4845261461015c578063b8f1759a14610157578063b90306ad14610152578063c1e6cec21461014d578063c54e44b014610148578063cab3cc8d14610143578063e01ad5fd1461013e578063e0a9bc2b14610139578063e846034a14610134578063e84adc131461012f578063e981bcad1461012a5763fdc10bc90361000e57610f60565b610e85565b610ca6565b610c88565b610c03565b610b69565b610b4b565b610ac5565b610a87565b6109d6565b61097c565b61094b565b610913565b6108b9565b6107c4565b6105fd565b6105d6565b610514565b61042b565b610404565b6103d9565b61028f565b61020e565b346101b45760003660031901126101b457602047604051908152f35b600080fd5b634e487b7160e01b600052603260045260246000fd5b60055481101561020957600560005260021b7f036b6384b5eca791c62761152d0c79bb0604c104a5fb6f4eb0703f3154bb3db00190600090565b6101b9565b346101b45760203660031901126101b4576004356005548110156101b457610235906101cf565b50805460018201546002830154600390930154604080516001600160a01b0394851681529390921660208401529082019290925260ff90911615156060820152608090f35b0390f35b6001600160a01b038116036101b457565b346101b4576020806003193601126101b4576004356102ad8161027e565b6004826102d16102c56000546001600160a01b031690565b6001600160a01b031690565b60405192838092634bf9c0ad60e11b82525afa80156103d4576103399261031d926000926103a1575b5061032b906040519384918783019190916001600160a01b036020820193169052565b03601f1981018452836110a9565b610333611d05565b90611f06565b919080610397575b1561036d57818161035b9261027a94518301019101611bfe565b60405190151581529081906020820190565b60046040517f3204506f000000000000000000000000000000000000000000000000000000008152fd5b5080825114610341565b61032b9192506103c690863d88116103cd575b6103be81836110a9565b810190611112565b91906102fa565b503d6103b4565b61112a565b346101b45760203660031901126101b4576103f2611aa9565b6103fd600435611678565b6001600355005b346101b45760003660031901126101b45760206001600160a01b0360005416604051908152f35b346101b45760203660031901126101b45760043580151580610508575b156104c45761045961045e9161122b565b6101cf565b5080546001600160a01b031661027a61048160018401546001600160a01b031690565b926104956003600283015492015460ff1690565b604080516001600160a01b03958616815295909416602086015292840152901515606083015281906080820190565b606460405162461bcd60e51b815260206004820152601760248201527f70726f706f7365722e696e76616c69642e666f726d69640000000000000000006044820152fd5b50600554811115610448565b346101b45760203660031901126101b4576004356105318161027e565b6001600160a01b038091169060009180835260046020526040832054801515806105ca575b61055e578380f35b60001981019081116105c557610573906101cf565b50508083526004602052826040812055600654680100000000000000008110156105c0578060016105a79201600655610882565b909283549160031b92831b921b19161790553880808380f35b611008565b611215565b50600554811115610556565b346101b45760003660031901126101b45760206001600160a01b0360015416604051908152f35b60803660031901126101b4576004356106158161027e565b61061d611aa9565b6106326102c56000546001600160a01b031690565b6040519163ab6e844f60e01b83526020918284600481845afa9384156103d4576000946107a0575b5082600491604051928380927fde433f170000000000000000000000000000000000000000000000000000000082525afa9081156103d4576106e3916106c191600091610783575b506040519182918683019190916001600160a01b036020820193169052565b03946106d5601f19968781018452836110a9565b6106dd611b8c565b90611f9c565b906001600160a01b0382166106fd575b6100166001600355565b610779937fc107930a00000000000000000000000000000000000000000000000000000000936107686107749360405196879384015260643590604435906024359060248601909493926060926001600160a01b036080840197168352602083015260408201520152565b039081018452836110a9565b6120af565b50388080806106f3565b61079a9150853d87116103cd576103be81836110a9565b386106a2565b60049194506107bc8491823d84116103cd576103be81836110a9565b94915061065a565b346101b45760003660031901126101b457600460206001600160a01b03600054166040519283809263d1f956b160e01b82525afa9081156103d45761027a9161085491600091610864575b5060405161081c81611071565b601381527f67657464656c656761746f72436f756e74282900000000000000000000000000602082015261084e6110e7565b91612029565b6040519081529081906020820190565b61087c915060203d81116103cd576103be81836110a9565b3861080f565b6006548110156102095760066000527ff652222313e28459528d920b65115c16c04f3efc82aaedc97be59f3f377c0d3f0190600090565b346101b45760203660031901126101b4576004356006548110156101b4576001600160a01b0360209160066000527ff652222313e28459528d920b65115c16c04f3efc82aaedc97be59f3f377c0d3f015416604051908152f35b346101b45760203660031901126101b457602061093a6004356109358161027e565b6112a1565b6001600160a01b0360405191168152f35b346101b45760203660031901126101b457602061097260043561096d8161027e565b611c4b565b6040519015158152f35b346101b45760203660031901126101b457600435600654811015610209576001600160a01b0360209160066000527ff652222313e28459528d920b65115c16c04f3efc82aaedc97be59f3f377c0d3f015416604051908152f35b346101b45760203660031901126101b45760046001600160a01b036020610a0782600054166001600160a01b031690565b60405193848092630536340960e21b82525afa9182156103d457600092610a67575b5033911603610a3d57610016600435611da7565b60046040517fea8e4eb5000000000000000000000000000000000000000000000000000000008152fd5b610a8091925060203d81116103cd576103be81836110a9565b9038610a29565b346101b45760203660031901126101b4576001600160a01b03600435610aac8161027e565b1660005260046020526020604060002054604051908152f35b346101b45760203660031901126101b457600435610ae28161027e565b803b6000610aef826110cb565b92610afd60405194856110a9565b82845260208401903c602d815110610b2157602a602091015160601c604051908152f35b60046040517fbaf3f0f7000000000000000000000000000000000000000000000000000000008152fd5b346101b45760003660031901126101b4576020600554604051908152f35b346101b4576020806003193601126101b45760048035610b888161027e565b6001600160a01b03928084600054166040519485809263d1f956b160e01b82525afa9081156103d45761027a9461035b94600093610be4575b506040519316818401528252610bd682611071565b610bde611d3e565b90611fed565b610bfc919350823d84116103cd576103be81836110a9565b9138610bc1565b346101b45760003660031901126101b457610c296102c56000546001600160a01b031690565b6040518091634bf9c0ad60e11b825281600460209485935afa80156103d45761033991600091610c6b575b50610c5d611bc5565b610c656110e7565b91611f06565b610c829150833d85116103cd576103be81836110a9565b38610c54565b346101b45760003660031901126101b4576020600654604051908152f35b346101b4576040806003193601126101b45760043590610cc58261027e565b6001600160a01b03821615610e75576000913383526020916004835280842054610e3257610d1f610cf461101e565b509283906001600160a01b031673ffffffffffffffffffffffffffffffffffffffff19825416179055565b60018201805473ffffffffffffffffffffffffffffffffffffffff19163317815592600490610d4c6110fa565b81610d616102c589546001600160a01b031690565b855194858092630536340960e21b82525afa9283156103d457600294610dda94610dcd9361031d938b92610e11575b506107749192519384917fffa734f00000000000000000000000000000000000000000000000000000000088840152602435903060248501611159565b8051810182019101611206565b910155610e0d610df460055492546001600160a01b031690565b6001600160a01b03166000526004602052604060002090565b5580f35b6107749250610e2c90873d89116103cd576103be81836110a9565b91610d90565b82606491519062461bcd60e51b82526004820152601260248201527f70726f706f7365722e746f2e65786973747300000000000000000000000000006044820152fd5b6004905163e6c4247b60e01b8152fd5b346101b45760403660031901126101b457610e9e611aa9565b610eaf610eaa30611c4b565b611418565b60046020610ec86102c56000546001600160a01b031690565b6040519283809263ab6e844f60e01b82525afa80156103d457610f3791600091610f42575b506040517f33b59a5b00000000000000000000000000000000000000000000000000000000602082015260043560248083019190915235604482015290610774826064810161031d565b506100166001600355565b610f5a915060203d81116103cd576103be81836110a9565b38610eed565b346101b45760003660031901126101b457600460206001600160a01b03600054166040519283809263111ea8c160e21b82525afa9081156103d45761027a9161085491600091610fea575b50604051610fb881611071565b600581527f6167652829000000000000000000000000000000000000000000000000000000602082015261084e6110e7565b611002915060203d81116103cd576103be81836110a9565b38610fab565b634e487b7160e01b600052604160045260246000fd5b600554680100000000000000008110156105c057600181018060055581101561020957600560005260021b7f036b6384b5eca791c62761152d0c79bb0604c104a5fb6f4eb0703f3154bb3db00190600090565b6040810190811067ffffffffffffffff8211176105c057604052565b6020810190811067ffffffffffffffff8211176105c057604052565b90601f8019910116810190811067ffffffffffffffff8211176105c057604052565b67ffffffffffffffff81116105c057601f01601f191660200190565b604051906110f48261108d565b60008252565b6040516111068161108d565b60008152906000368137565b908160209103126101b457516111278161027e565b90565b6040513d6000823e3d90fd5b60005b8381106111495750506000910152565b8181015183820152602001611139565b6000926001600160a01b0360a09396959660c08452602660c08501527f547269676765722e496e7374616e63652e70726f706f73616c2e55736572547260e08501527f616e736665720000000000000000000000000000000000000000000000000000610100850152166020830152836040830152610120806060840152815180918401526111f2816101409360208587019101611136565b601f80199101168201019460808201520152565b908160209103126101b4575190565b634e487b7160e01b600052601160045260246000fd5b6000198101919082116105c557565b6040519061124782611071565b601282527f6765745374617475732875696e743235362900000000000000000000000000006020830152565b519081151582036101b457565b91908260409103126101b457611127602061129a84611273565b9301611273565b6112be906001600160a01b03166000526004602052604060002090565b54801515806113c1575b156113bb576104596112d99161122b565b50600381015460ff166113ae576112fb6102c56000546001600160a01b031690565b6040518091630536340960e21b825281600460209384935afa80156103d45761031d6113579161136494600091611391575b5061134960028701546040519384918783019190602083019252565b61135161123a565b90611edb565b8051810182019101611280565b81929192611389575b506000911561138557546001600160a01b0316905090565b5090565b91503861136d565b6113a89150843d86116103cd576103be81836110a9565b3861132d565b546001600160a01b031690565b50600090565b506005548111156112c8565b156113d457565b606460405162461bcd60e51b815260206004820152601c60248201527f7574696c6974792e62617463682e6c696d69742e6578636565646564000000006044820152fd5b1561141f57565b606460405162461bcd60e51b815260206004820152601760248201527f7574696c6974792e756e7365637572652e6661696c65640000000000000000006044820152fd5b6040519061147082611071565b600f82527f6765744e6f646573436f756e74282900000000000000000000000000000000006020830152565b156114a357565b606460405162461bcd60e51b815260206004820152601360248201527f7574696c6974792e696d706f72742e646f6e65000000000000000000000000006044820152fd5b919082018092116105c557565b60001981146105c55760010190565b6040519061151082611071565b601782527f6765744e6f64654279496e6465782875696e74323536290000000000000000006020830152565b1561154357565b606460405162461bcd60e51b815260206004820152601660248201527f70726f78792e696e76616c69642e696e7374616e6365000000000000000000006044820152fd5b6040519061159482611071565b601382527f496e7374546f55736572286164647265737329000000000000000000000000006020830152565b156115c757565b606460405162461bcd60e51b815260206004820152601260248201527f70726f78792e696e76616c69642e6e6f646500000000000000000000000000006044820152fd5b6040519061161882611071565b601082527f6765744e6f6465286164647265737329000000000000000000000000000000006020830152565b908160a09103126101b45780519160208201516116608161027e565b91604081015191611127608061129a60608501611273565b61168560648211156113cd565b611691610eaa30611c4b565b6000906116a86102c583546001600160a01b031690565b9160409081519163111ea8c160e21b9485845260209060049482818781855afa80156103d4576116f1918691611a92575b506116e26110fa565b906116eb611463565b90612029565b958615611a885783518381888163ab6e844f60e01b968782525afa9081156103d45761173c9161172a918891611a6b57506116e26110fa565b91611736838a1161149c565b826114e7565b96808811611a63575b505b868110611758575050505050505050565b61176c6102c586546001600160a01b031690565b9084519189835284838981845afa9283156103d4578793611a44575b506117bc8651806117a0858983019190602083019252565b03946117b4601f19968781018452836110a9565b6106dd611503565b906001600160a01b036117d2818416151561153c565b87518c815287818c81865afa80156103d457611827918b91611a27575b5089519061181f82611813888d83019190916001600160a01b036020820193169052565b038981018452836110a9565b6106dd611587565b9161183582841615156115c0565b8851938d855288858d81855afa9485156103d4576118926001928c8f988f6118a0958f9192611a02575b5091516001600160a01b039093169183019182529061188a9083906020015b038c81018452836110a9565b61135161160b565b8a8082518301019101611644565b50505093909316926118b38115156115c0565b1480156119f9575b61197c575b506118cb8280611ae4565b866118e06102c58b546001600160a01b031690565b8951948580928a82525afa80156103d45761195695611950948b9261195b575b5089517f50db85d1000000000000000000000000000000000000000000000000000000008a8201526001600160a01b03938416602482015293909216604484015290610774908360648101610768565b506114f4565b611747565b6107749250611976908a3d8c116103cd576103be81836110a9565b91611900565b928c88918a518096819382525afa9283156103d4578a936119d0926119c4928c926119d6575b5061181f908b519384918c83019190916001600160a01b036020820193169052565b038881018452836110a9565b386118c0565b61181f9192506119f2908b3d8d116103cd576103be81836110a9565b91906119a2565b508115156118bb565b61188a9250611a2061187e91833d85116103cd576103be81836110a9565b925061185f565b611a3e9150893d8b116103cd576103be81836110a9565b386117ef565b611a5c919350853d87116103cd576103be81836110a9565b9138611788565b965038611745565b611a829150863d88116103cd576103be81836110a9565b386116d9565b5050505050505050565b611a829150843d86116103cd576103be81836110a9565b600260035414611aba576002600355565b60046040517f3ee5aeb5000000000000000000000000000000000000000000000000000000008152fd5b60055490680100000000000000008210156105c057611b39611b0e836001600395016005556101cf565b509182906001600160a01b031673ffffffffffffffffffffffffffffffffffffffff19825416179055565b60018101805473ffffffffffffffffffffffffffffffffffffffff19166001600160a01b03851617905501600160ff198254161790556001600160a01b0360055491166000526004602052604060002055565b60405190611b9982611071565b601682527f67657455736572546f496e7374286164647265737329000000000000000000006020830152565b60405190611bd282611071565b600882527f69735361666528290000000000000000000000000000000000000000000000006020830152565b908160209103126101b45761112790611273565b60405190611c1f82611071565b601582527f69735365637572654261736528616464726573732900000000000000000000006020830152565b611c606102c56000546001600160a01b031690565b906040518092634bf9c0ad60e11b825281600460209586935afa80156103d457611cbb9261031d92600092611ce2575b50611cb3906040519384918783019190916001600160a01b036020820193169052565b610333611c12565b9080611cd8575b1561036d57816111279282518301019101611bfe565b5081815114611cc2565b611cb3919250611cfe90863d88116103cd576103be81836110a9565b9190611c90565b60405190611d1282611071565b601182527f69735369676e65722861646472657373290000000000000000000000000000006020830152565b60405190611d4b82611071565b601882527f697364656c656761746f724e6f646528616464726573732900000000000000006020830152565b3d15611da2573d90611d88826110cb565b91611d9660405193846110a9565b82523d6000602084013e565b606090565b6000611dbd6102c582546001600160a01b031690565b9060405180927f46f991ac00000000000000000000000000000000000000000000000000000000825281600460209586935afa80156103d45782808681949382948391611ebe575b505af1611e10611d77565b501561036d57600482611e2d6102c584546001600160a01b031690565b604051928380927f5e09dbe70000000000000000000000000000000000000000000000000000000082525afa9081156103d4577fcdcc745fe377b103b45fa0cec23ae3ef93d6fc6a84a01f0d18c40b354dd1d5d8936001600160a01b039392611ea1575b50506040519384521691602090a2565b611eb79250803d106103cd576103be81836110a9565b3880611e91565b611ed59150883d8a116103cd576103be81836110a9565b38611e05565b90611ee69291611f06565b9060009015611ef3575090565b6040519150611f018261108d565b815290565b803b15611f83576000927fffffffff000000000000000000000000000000000000000000000000000000008360208695519101201690611f706024604051809360208201958652611f608151809260208686019101611136565b81010360048101845201826110a9565b5191620dbba0fa611f7f611d77565b9091565b505050600090604051611f958161108d565b6000815290565b9291611faa91600094611f06565b9080611fe2575b611fb85750565b9091506020818051810103126101b45760206001600160a01b03910151611fde8161027e565b1690565b506020815114611fb1565b9291611ffb91600094611f06565b908061201e575b6120095750565b61112791925060208082518301019101611bfe565b506020815114612002565b929161203791600094611f06565b908061205a575b6120455750565b61112791925060208082518301019101611206565b50602081511461203e565b90602082519201517fffffffff000000000000000000000000000000000000000000000000000000009081811693600481106120a057505050565b60040360031b82901b16169150565b6001600160a01b0381161561216257600080918351908260208601915af1906120d6611d77565b91156120e0575090565b80516000919060041161215c576120f79150612065565b8151156121075750805190602001fd5b6040517f21c09d340000000000000000000000000000000000000000000000000000000081527fffffffff00000000000000000000000000000000000000000000000000000000919091166004820152602490fd5b506120f7565b600460405163e6c4247b60e01b8152fdfea2646970667358221220e7eb01d162c0e3a0b81ef14be422fea5a328c62f3bec94703eb851037f627d2b64736f6c6343000814003360803462001af357601f62004b9338819003918201601f19168301916001600160401b0383118484101762001af85780849260209460405283398101031262001af357516001600160a01b0381169081900362001af357801562001ae15760018060a01b031933816001541617600155600054161760005560a760165561010e601755601e601b556001601c556001601d556002601e5561c350601f556102586020556003602155601960225568878678326eac900000602355670de0b6b3a764000060245569021e19e0c9bab24000006025556001602655600360275560016028556007602955600560365560ff196037541660375561025860c06200010562001b4e565b6002815260646020820152600160408201526023606082015260646080820152600160a082015201526002600755606460085560016009556023600a556064600b556001600c55610258600d5560b460606200016062001b97565b60198152600a6020820152605a604082015201526019600e55600a600f55605a60105560b46011556200019262001b97565b600581526001602082015260b460606101689283604082015201526005601255600160135560145560b4601555600060a0620001cd62001b4e565b60038152600160208201526001604082015260016060820152600160808201528260c082015201526003601855630101010165ffffffffffff1960195416176019556200021962001b97565b610258606061014092838152600b6020820152600a60408201520152602a55600b602b55600a602c55610258602d5561025860606200025762001b97565b60d28152600b6020820152600a6040820152015260d2602e55600b602f55600a603055610258603155600760606200028e62001b97565b60038152600160208201526001604082015201526003603255600160335560016034556007603555620003a5620002c462001b0e565b60008082526020808301828152604084018381526060850184815261270f60808701908152948052600490935293517f17ef568e3e12ab5b9c7254a8d58478811de00f9e6eb34345acd53bf8fd09d3ec55517f17ef568e3e12ab5b9c7254a8d58478811de00f9e6eb34345acd53bf8fd09d3ed5591517f17ef568e3e12ab5b9c7254a8d58478811de00f9e6eb34345acd53bf8fd09d3ee5590517f17ef568e3e12ab5b9c7254a8d58478811de00f9e6eb34345acd53bf8fd09d3ef55517f17ef568e3e12ab5b9c7254a8d58478811de00f9e6eb34345acd53bf8fd09d3f055565b6200049a620003b362001b0e565b60078152601960208083019182526000604084018181526060850182815261270f608087019081526001909352600490935293517fabd6e7cb50984ff9c2f3e18a2660c3353dadf4e3291deeb275dae2cd1e44fe055591517fabd6e7cb50984ff9c2f3e18a2660c3353dadf4e3291deeb275dae2cd1e44fe065591517fabd6e7cb50984ff9c2f3e18a2660c3353dadf4e3291deeb275dae2cd1e44fe075590517fabd6e7cb50984ff9c2f3e18a2660c3353dadf4e3291deeb275dae2cd1e44fe0855517fabd6e7cb50984ff9c2f3e18a2660c3353dadf4e3291deeb275dae2cd1e44fe0955565b6200058f620004a862001b0e565b60078152606460208083019182526000604084018181526060850182815261270f608087019081526002909352600490935293517f91da3fd0782e51c6b3986e9e672fd566868e71f3dbc2d6c2cd6fbb3e361af2a75591517f91da3fd0782e51c6b3986e9e672fd566868e71f3dbc2d6c2cd6fbb3e361af2a85591517f91da3fd0782e51c6b3986e9e672fd566868e71f3dbc2d6c2cd6fbb3e361af2a95590517f91da3fd0782e51c6b3986e9e672fd566868e71f3dbc2d6c2cd6fbb3e361af2aa55517f91da3fd0782e51c6b3986e9e672fd566868e71f3dbc2d6c2cd6fbb3e361af2ab55565b620006856200059d62001b0e565b600781526101f46020808301918252600360408401818152600060608601818152601e6080880190815293909152600490935293517f2e174c10e159ea99b867ce3205125c24a42d128804e4070ed6fcc8cc98166aa05591517f2e174c10e159ea99b867ce3205125c24a42d128804e4070ed6fcc8cc98166aa15591517f2e174c10e159ea99b867ce3205125c24a42d128804e4070ed6fcc8cc98166aa25590517f2e174c10e159ea99b867ce3205125c24a42d128804e4070ed6fcc8cc98166aa355517f2e174c10e159ea99b867ce3205125c24a42d128804e4070ed6fcc8cc98166aa455565b6200077b6200069362001b0e565b600781526107d06020808301918252600460408401818152600360608601908152601e6080870190815260008490529290935293517f1a1e6821cde7d0159c0d293177871e09677b4e42307c7db3ba94f8648a5a050f5591517f1a1e6821cde7d0159c0d293177871e09677b4e42307c7db3ba94f8648a5a05105591517f1a1e6821cde7d0159c0d293177871e09677b4e42307c7db3ba94f8648a5a05115590517f1a1e6821cde7d0159c0d293177871e09677b4e42307c7db3ba94f8648a5a051255517f1a1e6821cde7d0159c0d293177871e09677b4e42307c7db3ba94f8648a5a051355565b620008706200078962001b0e565b6007815261138860208083019182526004604084018181526060850182815261270f6080870190815260056000529290935293517f04cde762ef08b6b6c5ded8e8c4c0b3f4e5c9ad7342c88fcc93681b4588b73f055591517f04cde762ef08b6b6c5ded8e8c4c0b3f4e5c9ad7342c88fcc93681b4588b73f065591517f04cde762ef08b6b6c5ded8e8c4c0b3f4e5c9ad7342c88fcc93681b4588b73f075590517f04cde762ef08b6b6c5ded8e8c4c0b3f4e5c9ad7342c88fcc93681b4588b73f0855517f04cde762ef08b6b6c5ded8e8c4c0b3f4e5c9ad7342c88fcc93681b4588b73f0955565b620009656200087e62001b0e565b6007815261271060208083019182526004604084018181526060850182815261270f6080870190815260066000529290935293517fc59312466997bb42aaaf719ece141047820e6b34531e1670dc1852a453648f0f5591517fc59312466997bb42aaaf719ece141047820e6b34531e1670dc1852a453648f105591517fc59312466997bb42aaaf719ece141047820e6b34531e1670dc1852a453648f115590517fc59312466997bb42aaaf719ece141047820e6b34531e1670dc1852a453648f1255517fc59312466997bb42aaaf719ece141047820e6b34531e1670dc1852a453648f1355565b62000a5b6200097362001b0e565b60078082526161a860208084019182526004604085018181526060860182815261270f608088019081526000969096529190925293517fbeb3bad75134cb432e5707980e3245c52c5998a1125ee30f2f0dbf3925b1e5515590517fbeb3bad75134cb432e5707980e3245c52c5998a1125ee30f2f0dbf3925b1e55255517fbeb3bad75134cb432e5707980e3245c52c5998a1125ee30f2f0dbf3925b1e5535590517fbeb3bad75134cb432e5707980e3245c52c5998a1125ee30f2f0dbf3925b1e55455517fbeb3bad75134cb432e5707980e3245c52c5998a1125ee30f2f0dbf3925b1e55555565b62000b4c62000a6962001b0e565b60008082526006602080840182815260016040860181815260056060880190815260808801838152929096529390925293517f3e5fec24aa4dc4e5aee2e025e51e1392c72a2500577559fae9665c6d52bd6a315592517f3e5fec24aa4dc4e5aee2e025e51e1392c72a2500577559fae9665c6d52bd6a3255517f3e5fec24aa4dc4e5aee2e025e51e1392c72a2500577559fae9665c6d52bd6a3355517f3e5fec24aa4dc4e5aee2e025e51e1392c72a2500577559fae9665c6d52bd6a3455517f3e5fec24aa4dc4e5aee2e025e51e1392c72a2500577559fae9665c6d52bd6a3555565b62000c3f62000b5a62001b0e565b600080825260036020808401918252600160408501818152600560608701908152608087019283526002909552600690925293517f8819ef417987f8ae7a81f42cdfb18815282fe989326fbff903d13cf0e03ace295590517f8819ef417987f8ae7a81f42cdfb18815282fe989326fbff903d13cf0e03ace2a55517f8819ef417987f8ae7a81f42cdfb18815282fe989326fbff903d13cf0e03ace2b55517f8819ef417987f8ae7a81f42cdfb18815282fe989326fbff903d13cf0e03ace2c55517f8819ef417987f8ae7a81f42cdfb18815282fe989326fbff903d13cf0e03ace2d55565b62000d3562000c4d62001b0e565b60028152600f6020808301918252600a604084019081526005606085019081526001608086019081526003600052600690935293517f75f96ab15d697e93042dc45b5c896c4b27e89bb6eaf39475c5c371cb2513f7d25591517f75f96ab15d697e93042dc45b5c896c4b27e89bb6eaf39475c5c371cb2513f7d35590517f75f96ab15d697e93042dc45b5c896c4b27e89bb6eaf39475c5c371cb2513f7d45590517f75f96ab15d697e93042dc45b5c896c4b27e89bb6eaf39475c5c371cb2513f7d555517f75f96ab15d697e93042dc45b5c896c4b27e89bb6eaf39475c5c371cb2513f7d655565b62000e2b62000d4362001b0e565b60028152600f6020808301918252600a604084019081526005606085019081526001608086019081526004600052600690935293517fc5069e24aaadb2addc3e52e868fcf3f4f8acf5a87e24300992fd4540c2a87eed5591517fc5069e24aaadb2addc3e52e868fcf3f4f8acf5a87e24300992fd4540c2a87eee5590517fc5069e24aaadb2addc3e52e868fcf3f4f8acf5a87e24300992fd4540c2a87eef5590517fc5069e24aaadb2addc3e52e868fcf3f4f8acf5a87e24300992fd4540c2a87ef055517fc5069e24aaadb2addc3e52e868fcf3f4f8acf5a87e24300992fd4540c2a87ef155565b62000f2162000e3962001b0e565b60028152600f6020808301918252600a60408401908152600560608501818152600160808701908152600092909252600690935293517fbfd358e93f18da3ed276c3afdbdba00b8f0b6008a03476a6a86bd6320ee6938b5591517fbfd358e93f18da3ed276c3afdbdba00b8f0b6008a03476a6a86bd6320ee6938c5590517fbfd358e93f18da3ed276c3afdbdba00b8f0b6008a03476a6a86bd6320ee6938d55517fbfd358e93f18da3ed276c3afdbdba00b8f0b6008a03476a6a86bd6320ee6938e55517fbfd358e93f18da3ed276c3afdbdba00b8f0b6008a03476a6a86bd6320ee6938f55565b6200101562000f2f62001b0e565b60028152604b602080830191825260646040840181815260fa60608601908152608086019283526006600081905290935293517f697b2bd7bb2984c4e0dc14c79c987d37818484a62958b9c45a0e8b962f20650f5591517f697b2bd7bb2984c4e0dc14c79c987d37818484a62958b9c45a0e8b962f2065105591517f697b2bd7bb2984c4e0dc14c79c987d37818484a62958b9c45a0e8b962f2065115590517f697b2bd7bb2984c4e0dc14c79c987d37818484a62958b9c45a0e8b962f20651255517f697b2bd7bb2984c4e0dc14c79c987d37818484a62958b9c45a0e8b962f20651355565b620011096200102362001b0e565b60028152604b602080830191825260646040840181815260fa60608601908152608086019283526007600052600690935293517f4ced6d0d36392b04cc5d8761b1327b3bbba6e1089c77f60a9a9ca18e05e4f00e5591517f4ced6d0d36392b04cc5d8761b1327b3bbba6e1089c77f60a9a9ca18e05e4f00f5591517f4ced6d0d36392b04cc5d8761b1327b3bbba6e1089c77f60a9a9ca18e05e4f0105590517f4ced6d0d36392b04cc5d8761b1327b3bbba6e1089c77f60a9a9ca18e05e4f01155517f4ced6d0d36392b04cc5d8761b1327b3bbba6e1089c77f60a9a9ca18e05e4f01255565b620011fd6200111762001b0e565b60028152604b602080830191825260646040840181815260fa60608601908152608086019283526008600052600690935293517fb8d683c9d414f481826f3e7fe14b3ac6ae8c73450778287390c4bb8cb9f2e80b5591517fb8d683c9d414f481826f3e7fe14b3ac6ae8c73450778287390c4bb8cb9f2e80c5591517fb8d683c9d414f481826f3e7fe14b3ac6ae8c73450778287390c4bb8cb9f2e80d5590517fb8d683c9d414f481826f3e7fe14b3ac6ae8c73450778287390c4bb8cb9f2e80e55517fb8d683c9d414f481826f3e7fe14b3ac6ae8c73450778287390c4bb8cb9f2e80f55565b620012f16200120b62001b0e565b60028152604b602080830191825260646040840181815260fa60608601908152608086019283526009600052600690935293517fca4d0c6c94a9477136dd41a99cc19ecbe441c8f6609efe7c6fa65be007a473235591517fca4d0c6c94a9477136dd41a99cc19ecbe441c8f6609efe7c6fa65be007a473245591517fca4d0c6c94a9477136dd41a99cc19ecbe441c8f6609efe7c6fa65be007a473255590517fca4d0c6c94a9477136dd41a99cc19ecbe441c8f6609efe7c6fa65be007a4732655517fca4d0c6c94a9477136dd41a99cc19ecbe441c8f6609efe7c6fa65be007a4732755565b620013e5620012ff62001b0e565b60028152604b602080830191825260646040840181815260fa6060860190815260808601928352600a600052600690935293517f4da38fc8e544afc56a4c2a17752b8ddb67d8e23ac4583c9029d2e2d1dbe6c9885591517f4da38fc8e544afc56a4c2a17752b8ddb67d8e23ac4583c9029d2e2d1dbe6c9895591517f4da38fc8e544afc56a4c2a17752b8ddb67d8e23ac4583c9029d2e2d1dbe6c98a5590517f4da38fc8e544afc56a4c2a17752b8ddb67d8e23ac4583c9029d2e2d1dbe6c98b55517f4da38fc8e544afc56a4c2a17752b8ddb67d8e23ac4583c9029d2e2d1dbe6c98c55565b620014d9620013f362001b0e565b60028152604b602080830191825260646040840181815260fa6060860190815260808601928352600b600052600690935293517f85291c2e7881182c13e19eca9b58927ebfdc2c5d04882018eeb33d8241d357115591517f85291c2e7881182c13e19eca9b58927ebfdc2c5d04882018eeb33d8241d357125591517f85291c2e7881182c13e19eca9b58927ebfdc2c5d04882018eeb33d8241d357135590517f85291c2e7881182c13e19eca9b58927ebfdc2c5d04882018eeb33d8241d3571455517f85291c2e7881182c13e19eca9b58927ebfdc2c5d04882018eeb33d8241d3571555565b620015cd620014e762001b0e565b60028152604b602080830191825260646040840181815260fa6060860190815260808601928352600c600052600690935293517f0b94fa1b86997cc1f1148bfbe25b674e8cefc7cc6f976aa8d7c7966bd4cca3475591517f0b94fa1b86997cc1f1148bfbe25b674e8cefc7cc6f976aa8d7c7966bd4cca3485591517f0b94fa1b86997cc1f1148bfbe25b674e8cefc7cc6f976aa8d7c7966bd4cca3495590517f0b94fa1b86997cc1f1148bfbe25b674e8cefc7cc6f976aa8d7c7966bd4cca34a55517f0b94fa1b86997cc1f1148bfbe25b674e8cefc7cc6f976aa8d7c7966bd4cca34b55565b620016c1620015db62001b0e565b60028152604b602080830191825260646040840181815260fa6060860190815260808601928352600d600052600690935293517f248457bacb20e239ae314d8db91c0f270e453c28ee138c84f97aea6cfcf9a4995591517f248457bacb20e239ae314d8db91c0f270e453c28ee138c84f97aea6cfcf9a49a5591517f248457bacb20e239ae314d8db91c0f270e453c28ee138c84f97aea6cfcf9a49b5590517f248457bacb20e239ae314d8db91c0f270e453c28ee138c84f97aea6cfcf9a49c55517f248457bacb20e239ae314d8db91c0f270e453c28ee138c84f97aea6cfcf9a49d55565b620017b5620016cf62001b0e565b60028152604b602080830191825260646040840181815260fa6060860190815260808601928352600e600052600690935293517faca6cdb4b5fe0ec50731a73f714dd191dc1911bfeb3f9eeb9e94ed0f6065ef8d5591517faca6cdb4b5fe0ec50731a73f714dd191dc1911bfeb3f9eeb9e94ed0f6065ef8e5591517faca6cdb4b5fe0ec50731a73f714dd191dc1911bfeb3f9eeb9e94ed0f6065ef8f5590517faca6cdb4b5fe0ec50731a73f714dd191dc1911bfeb3f9eeb9e94ed0f6065ef9055517faca6cdb4b5fe0ec50731a73f714dd191dc1911bfeb3f9eeb9e94ed0f6065ef9155565b620018a9620017c362001b0e565b60028152604b602080830191825260646040840181815260fa6060860190815260808601928352600f600052600690935293517ff130046d53bc87538ab17e4752ba5f5082985eecc06ccb932c5a55e8242dd5025591517ff130046d53bc87538ab17e4752ba5f5082985eecc06ccb932c5a55e8242dd5035591517ff130046d53bc87538ab17e4752ba5f5082985eecc06ccb932c5a55e8242dd5045590517ff130046d53bc87538ab17e4752ba5f5082985eecc06ccb932c5a55e8242dd50555517ff130046d53bc87538ab17e4752ba5f5082985eecc06ccb932c5a55e8242dd50655565b620018b362001b2e565b60128152600a6020808301918252602d604084019081526003600052600590915291517fa9bc9a3a348c357ba16b37005d7e6b3236198c0e939f4af8c5f19b8deeb8ebc055517fa9bc9a3a348c357ba16b37005d7e6b3236198c0e939f4af8c5f19b8deeb8ebc155517fa9bc9a3a348c357ba16b37005d7e6b3236198c0e939f4af8c5f19b8deeb8ebc2556200194862001b2e565b60128152600a6020808301918252605a604084019081526005600081905290915291517f458b30c2d72bfd2c6317304a4594ecbafe5f729d3111b65fdc3a33bd48e5432d55517f458b30c2d72bfd2c6317304a4594ecbafe5f729d3111b65fdc3a33bd48e5432e55517f458b30c2d72bfd2c6317304a4594ecbafe5f729d3111b65fdc3a33bd48e5432f55620019dd62001b2e565b60098152600a602080830182815261270f604080860191825260076000908152600580865296517feddb6698d7c569ff62ff64f1f1492bf14a54594835ba0faac91f84b4f5d814605592517feddb6698d7c569ff62ff64f1f1492bf14a54594835ba0faac91f84b4f5d814615590517feddb6698d7c569ff62ff64f1f1492bf14a54594835ba0faac91f84b4f5d8146255600390925260327fc3a24b0501bd2c13a7e57f2db4369ec4c223447539fc0724a9d55ac4a06ebd4d55600490526101f47f83ec6a1f0257b830b5e016457c9cf1435391bf56cc98f369a58a54fe9377246555601092909255601481905560a760165560175551612fc5908162001bce8239f35b60405163e6c4247b60e01b8152600490fd5b600080fd5b634e487b7160e01b600052604160045260246000fd5b6040519060a082016001600160401b0381118382101762001af857604052565b60405190606082016001600160401b0381118382101762001af857604052565b6040519060e082016001600160401b0381118382101762001af8576040528160c06000918281528260208201528260408201528260608201528260808201528260a08201520152565b60405190608082016001600160401b0381118382101762001af8576040526000606083828152826020820152826040820152015256fe60806040526004361015610018575b361561001657005b005b60003560e01c806304ce9f80146104885780630609a0e31461048357806307175c831461047e57806309307c62146104795780630b225f1a146104745780630ea0d2221461046f57806312065fe01461046a57806314be92a51461046557806315a544ed146104605780631605aed91461045b57806316f0115b14610456578063179b570a14610451578063192b48ee1461044c5780631ef6a864146104475780631f185d1614610442578063203bab661461043d57806326c5adae14610438578063298fc460146104335780633688236d1461042e5780633b9b7955146104295780634151331d14610424578063438fe1921461041f57806344ec16bc1461041a5780634b62954f1461041557806353423e8614610410578063541d76671461040b57806354541683146104065780635640dbfc14610401578063592a02a8146103fc5780635962205f146103f75780635a0e9038146103f257806368400cb3146103ed5780636c7deb5d146103e85780636f092c5e146103e35780637687e371146103de57806378ef376f146103d95780637bc908c6146103d4578063840bbc1e146103cf5780638da5cb5b146103ca57806391fc8aa8146103c55780639319d0b5146103c057806395cea094146103bb578063991bf5cc146103b65780639d80ab9b146103b15780639eb8b44e146103ac5780639f70207d146103a7578063a19841dd146103a2578063a1f7f5391461039d578063a88fcea614610398578063aebcd32a14610393578063af0b21d31461038e578063af48452614610389578063b338677514610384578063b49c064c1461037f578063b85f1f8d1461037a578063b90306ad14610375578063c54e44b014610370578063c5a136d41461036b578063dbad649c14610366578063e01ad5fd14610361578063e0a9bc2b1461035c578063e19a5bcf14610357578063eddd0d9c14610352578063f27c35c61461034d578063f2a6bbc714610348578063f4fe8e3c14610343578063f5de7bd21461033e578063f7a9783e14610339578063fbfa77cf14610334578063fc0e74d11461032f5763fdc10bc90361000e5761240f565b6123ec565b6123b2565b61234f565b612298565b6121ea565b61213f565b612095565b611fea565b611f40565b611f25565b611e8b565b611e6d565b611db9565b611d33565b611cac565b611c72565b611c4f565b611c31565b611c00565b611be2565b611b7a565b611b5c565b611aae565b611a74565b611a56565b61187f565b611800565b61170a565b6116ec565b611641565b611623565b6115fc565b611581565b611563565b6114b8565b6113f6565b6113ca565b61131f565b611301565b6112c7565b61125f565b6111b5565b611122565b611104565b611093565b611075565b610fc4565b610f19565b610efb565b610eb8565b610e91565b610e73565b610db1565b610cf0565b610c33565b610b0a565b610a4f565b610982565b6108d1565b610880565b610862565b610844565b610799565b61077d565b610760565b610742565b610691565b610673565b61054f565b3461054a57604036600319011261054a57600080808060243560043560018114610514575b6002146104e2575b50906104de91604051948594859094939260609260808301968352602083015260408201520152565b0390f35b6012546013546014546016549297509095506104de945092501161050c576017545b9290916104b5565b601554610504565b935093505050600e5491600f54601054918060165411156000146105405760026017545b9490506104ad565b6002601154610538565b600080fd5b3461054a57602036600319011261054a5761056f61056b612610565b1590565b6106495761057c33612708565b80156105bd575b1561059357610016600435601b55565b60046040517fea8e4eb5000000000000000000000000000000000000000000000000000000008152fd5b50600460206105e36105d76000546001600160a01b031690565b6001600160a01b031690565b60405192838092630536340960e21b82525afa90811561064457600091610616575b506001600160a01b03163314610583565b610637915060203d811161063d575b61062f8183612577565b810190612599565b38610605565b503d610625565b6125b1565b60046040517f9dc4246e000000000000000000000000000000000000000000000000000000008152fd5b3461054a57600036600319011261054a576020602254604051908152f35b3461054a57604036600319011261054a576106ad61056b612610565b610649576106ba33612708565b80156106d7575b1561059357610016602435600435602455602555565b50600460206106f16105d76000546001600160a01b031690565b60405192838092630536340960e21b82525afa90811561064457600091610724575b506001600160a01b031633146106c1565b61073c915060203d811161063d5761062f8183612577565b38610713565b3461054a57600036600319011261054a576020603654604051908152f35b3461054a57600036600319011261054a5760208054604051908152f35b3461054a57600036600319011261054a57602047604051908152f35b3461054a57602036600319011261054a576107b561056b612610565b610649576107c233612708565b80156107d9575b1561059357610016600435602055565b50600460206107f36105d76000546001600160a01b031690565b60405192838092630536340960e21b82525afa90811561064457600091610826575b506001600160a01b031633146107c9565b61083e915060203d811161063d5761062f8183612577565b38610815565b3461054a57600036600319011261054a576020602554604051908152f35b3461054a57600036600319011261054a576020602454604051908152f35b3461054a57600036600319011261054a5760e0600754600854600954600a54600b5490600c5492600d5494604051968752602087015260408601526060850152608084015260a083015260c0820152f35b3461054a57604036600319011261054a576108ed61056b612610565b610649576108fa33612708565b8015610917575b1561059357610016602435600435601655601755565b50600460206109316105d76000546001600160a01b031690565b60405192838092630536340960e21b82525afa90811561064457600091610964575b506001600160a01b03163314610901565b61097c915060203d811161063d5761062f8183612577565b38610953565b3461054a57602036600319011261054a5761099e61056b612610565b610649576109ab33612708565b80156109c2575b1561059357610016600435612ae2565b50600460206109dc6105d76000546001600160a01b031690565b60405192838092630536340960e21b82525afa90811561064457600091610a0f575b506001600160a01b031633146109b2565b610a27915060203d811161063d5761062f8183612577565b386109fe565b60a090600319011261054a576004359060243590604435906064359060843590565b3461054a57610a5d36610a2d565b92610a6c61056b939293612610565b61064957610a7933612708565b8015610a8e575b156105935761001694612e99565b5060046020610aa86105d76000546001600160a01b031690565b60405192838092630536340960e21b82525afa90811561064457600091610adb575b506001600160a01b03163314610a80565b610af3915060203d811161063d5761062f8183612577565b38610aca565b6001600160a01b0381160361054a57565b3461054a5760208060031936011261054a57600435610b2881610af9565b600482610b406105d76000546001600160a01b031690565b60405192838092634bf9c0ad60e11b82525afa801561064457610ba892610b8c92600092610c10575b50610b9a906040519384918783019190916001600160a01b036020820193169052565b03601f198101845283612577565b610ba261279b565b90612971565b919080610c06575b15610bdc578181610bca926104de945183010191016125fb565b60405190151581529081906020820190565b60046040517f3204506f000000000000000000000000000000000000000000000000000000008152fd5b5080825114610bb0565b610b9a919250610c2c90863d881161063d5761062f8183612577565b9190610b69565b3461054a5760e036600319011261054a57610c4f61056b612610565b61064957610c5c33612708565b8015610c85575b156105935761001660c43560a435608435606435604435602435600435612dbc565b5060046020610c9f6105d76000546001600160a01b031690565b60405192838092630536340960e21b82525afa90811561064457600091610cd2575b506001600160a01b03163314610c63565b610cea915060203d811161063d5761062f8183612577565b38610cc1565b3461054a57602036600319011261054a57600460206001600160a01b0360005416604051928380926369e8d84b60e11b82525afa801561064457610d55610d79916104de93600091610d89575b50610d46612f1e565b90610d4f612f36565b90612a5e565b610d7460043591610d6f610d6a602254612a9c565b612a9c565b612f6f565b612acf565b6040519081529081906020820190565b610da1915060203d811161063d5761062f8183612577565b38610d3d565b8015150361054a57565b3461054a57602036600319011261054a57600435610dce81610da7565b610dd961056b612610565b61064957610de633612708565b8015610e08575b15610593576100169060ff8019603754169115151617603755565b5060046020610e226105d76000546001600160a01b031690565b60405192838092630536340960e21b82525afa90811561064457600091610e55575b506001600160a01b03163314610ded565b610e6d915060203d811161063d5761062f8183612577565b38610e44565b3461054a57600036600319011261054a576020601f54604051908152f35b3461054a57600036600319011261054a5760206001600160a01b0360005416604051908152f35b3461054a57602036600319011261054a57600435600052600560205260606040600020805490600260018201549101549060405192835260208301526040820152f35b3461054a57600036600319011261054a576020601d54604051908152f35b3461054a57602036600319011261054a57610f3561056b612610565b61064957610f4233612708565b8015610f59575b1561059357610016600435601c55565b5060046020610f736105d76000546001600160a01b031690565b60405192838092630536340960e21b82525afa90811561064457600091610fa6575b506001600160a01b03163314610f49565b610fbe915060203d811161063d5761062f8183612577565b38610f95565b3461054a57604036600319011261054a57610fe061056b612610565b61064957610fed33612708565b801561100a575b1561059357610016602435600435601e55601f55565b50600460206110246105d76000546001600160a01b031690565b60405192838092630536340960e21b82525afa90811561064457600091611057575b506001600160a01b03163314610ff4565b61106f915060203d811161063d5761062f8183612577565b38611046565b3461054a57600036600319011261054a576020602154604051908152f35b3461054a57602036600319011261054a57600460206001600160a01b0360005416604051928380926369e8d84b60e11b82525afa8015610644576110e8610d79916104de93600091610d895750610d46612f1e565b6004356000526003602052610d6f610d6a604060002054612a9c565b3461054a57600036600319011261054a576020601c54604051908152f35b3461054a57600036600319011261054a5760e060185460195460405191825260ff9081811615156020840152818160081c1615156040840152818160101c1615156060840152818160181c1615156080840152818160201c16151560a084015260281c16151560c0820152f35b60c090600319011261054a57600435906024359060443590606435906084359060a43590565b3461054a576111c33661118f565b936111d261056b949294612610565b610649576111df33612708565b80156111f4575b156105935761001695612af0565b506004602061120e6105d76000546001600160a01b031690565b60405192838092630536340960e21b82525afa90811561064457600091611241575b506001600160a01b031633146111e6565b611259915060203d811161063d5761062f8183612577565b38611230565b3461054a57602036600319011261054a576004356000526006602052604060002080546104de6001830154926002810154906004600382015491015491604051958695869192608093969594919660a084019784526020840152604083015260608201520152565b3461054a57600036600319011261054a57600e54600f54601054601154604080519485526020850193909352918301526060820152608090f35b3461054a57600036600319011261054a576020602854604051908152f35b3461054a57602036600319011261054a5761133b61056b612610565b6106495761134833612708565b801561135f575b1561059357610016600435602155565b50600460206113796105d76000546001600160a01b031690565b60405192838092630536340960e21b82525afa908115610644576000916113ac575b506001600160a01b0316331461134f565b6113c4915060203d811161063d5761062f8183612577565b3861139b565b3461054a57602036600319011261054a5760043560005260036020526020604060002054604051908152f35b3461054a57602036600319011261054a5760043561141381610da7565b61141e61056b612610565b6106495761142b33612708565b801561144d575b15610593576100169060ff8019601a54169115151617601a55565b50600460206114676105d76000546001600160a01b031690565b60405192838092630536340960e21b82525afa9081156106445760009161149a575b506001600160a01b03163314611432565b6114b2915060203d811161063d5761062f8183612577565b38611489565b3461054a57602036600319011261054a576114d461056b612610565b610649576114e133612708565b80156114f8575b1561059357610016600435602655565b50600460206115126105d76000546001600160a01b031690565b60405192838092630536340960e21b82525afa90811561064457600091611545575b506001600160a01b031633146114e8565b61155d915060203d811161063d5761062f8183612577565b38611534565b3461054a57600036600319011261054a576020602654604051908152f35b3461054a57602036600319011261054a57600460206001600160a01b0360005416604051928380926369e8d84b60e11b82525afa8015610644576115d56115dd916020936000916115e55750610d46612f1e565b600435612acf565b604051908152f35b610da19150843d811161063d5761062f8183612577565b3461054a57600036600319011261054a5760206001600160a01b0360015416604051908152f35b3461054a57600036600319011261054a576020602354604051908152f35b3461054a57602036600319011261054a5761165d61056b612610565b6106495761166a33612708565b8015611681575b1561059357610016600435601d55565b506004602061169b6105d76000546001600160a01b031690565b60405192838092630536340960e21b82525afa908115610644576000916116ce575b506001600160a01b03163314611671565b6116e6915060203d811161063d5761062f8183612577565b386116bd565b3461054a57600036600319011261054a576020602954604051908152f35b3461054a5760e036600319011261054a5760243561172781610da7565b60443561173381610da7565b60643561173f81610da7565b60843561174b81610da7565b60a4359161175883610da7565b60c4359361176585610da7565b61177061056b612610565b6106495761177d33612708565b8015611795575b156105935761001695600435612c0f565b50600460206117af6105d76000546001600160a01b031690565b60405192838092630536340960e21b82525afa908115610644576000916117e2575b506001600160a01b03163314611784565b6117fa915060203d811161063d5761062f8183612577565b386117d1565b3461054a57600036600319011261054a57602a54602b54602c54602d54604080519485526020850193909352918301526060820152608090f35b6102a0810192916000915b6007831061185257505050565b60019060608351918251815260209283810151848301526040809101519082015201920192019190611845565b3461054a57600080600319360112611a5357604090815161189f81612523565b815b60e08110611a2e576104de846118b56125bd565b60016000526005602052906118ee7f1471eb6eb2c5e789fc3de43f8ce62938c7d1836ec861730447e2ada8fd81017b612ef6565b612ef6565b8252600260005260056020526119237f89832631fb3c3307a103ba2c84ab569c64d6182a18893dcd163f0f1c2090733a612ef6565b60208301526119406118e960036000526005602052604060002090565b82820152600460005260056020526119777f3eec716f11ba9e820c81ca75eb978ffb45831ef8b7a53e5e422c26008e1ca6d5612ef6565b6060830152600560008190526020526119af7f458b30c2d72bfd2c6317304a4594ecbafe5f729d3111b65fdc3a33bd48e5432d612ef6565b6080830152600660005260056020526119e77f069400f22b28c6c362558d92f66163cec5671cba50b61abd2eecfcd0eaeac518612ef6565b60a083015260076000526005602052611a1f7feddb6698d7c569ff62ff64f1f1492bf14a54594835ba0faac91f84b4f5d81460612ef6565b60c0830152519182918261183a565b6020908451611a3c816124e6565b8481528483820152848682015281840152016118a1565b80fd5b3461054a57600036600319011261054a576020601654604051908152f35b3461054a57600036600319011261054a57602e54602f54603054603154604080519485526020850193909352918301526060820152608090f35b3461054a57600036600319011261054a57600460206001600160a01b03600054166040519283809263d1f956b160e01b82525afa908115610644576104de91610d7991600091611b3e575b50604051611b068161253f565b601381527f67657464656c656761746f72436f756e742829000000000000000000000000006020820152611b386125e8565b91612a5e565b611b56915060203d811161063d5761062f8183612577565b38611af9565b3461054a57600036600319011261054a576020601e54604051908152f35b3461054a57602036600319011261054a576004356000526004602052604060002080546104de6001830154926002810154906004600382015491015491604051958695869192608093969594919660a084019784526020840152604083015260608201520152565b3461054a57600036600319011261054a576020601b54604051908152f35b3461054a57602036600319011261054a576020611c27600435611c2281610af9565b612708565b6040519015158152f35b3461054a57600036600319011261054a576020602754604051908152f35b3461054a57600036600319011261054a57602060ff603754166040519015158152f35b3461054a57600036600319011261054a57601254601354601454601554604080519485526020850193909352918301526060820152608090f35b3461054a57602036600319011261054a5760046001600160a01b036020611cdd82600054166001600160a01b031690565b60405193848092630536340960e21b82525afa91821561064457600092611d13575b50339116036105935761001660043561283d565b611d2c91925060203d811161063d5761062f8183612577565b9038611cff565b3461054a57602036600319011261054a57600435611d5081610af9565b803b6000611d5d826125cc565b92611d6b6040519485612577565b82845260208401903c602d815110611d8f57602a602091015160601c604051908152f35b60046040517fbaf3f0f7000000000000000000000000000000000000000000000000000000008152fd5b3461054a57608036600319011261054a57611dd561056b612610565b61064957611de233612708565b8015611e02575b1561059357610016606435604435602435600435612d53565b5060046020611e1c6105d76000546001600160a01b031690565b60405192838092630536340960e21b82525afa90811561064457600091611e4f575b506001600160a01b03163314611de9565b611e67915060203d811161063d5761062f8183612577565b38611e3e565b3461054a57600036600319011261054a576020601754604051908152f35b3461054a5760208060031936011261054a5760048035611eaa81610af9565b6001600160a01b03928084600054166040519485809263d1f956b160e01b82525afa908115610644576104de94610bca94600093611f06575b506040519316818401528252611ef88261253f565b611f006127d4565b90612a22565b611f1e919350823d841161063d5761062f8183612577565b9138611ee3565b3461054a57600036600319011261054a576020611c27612610565b3461054a57611f4e36610a2d565b92611f5d61056b939293612610565b61064957611f6a33612708565b8015611f7f575b156105935761001694612e3b565b5060046020611f996105d76000546001600160a01b031690565b60405192838092630536340960e21b82525afa90811561064457600091611fcc575b506001600160a01b03163314611f71565b611fe4915060203d811161063d5761062f8183612577565b38611fbb565b3461054a57602036600319011261054a5761200661056b612610565b6106495761201333612708565b801561202a575b1561059357610016600435602255565b50600460206120446105d76000546001600160a01b031690565b60405192838092630536340960e21b82525afa90811561064457600091612077575b506001600160a01b0316331461201a565b61208f915060203d811161063d5761062f8183612577565b38612066565b3461054a576120a33661118f565b936120b261056b949294612610565b610649576120bf33612708565b80156120d4575b156105935761001695612ba7565b50600460206120ee6105d76000546001600160a01b031690565b60405192838092630536340960e21b82525afa90811561064457600091612121575b506001600160a01b031633146120c6565b612139915060203d811161063d5761062f8183612577565b38612110565b3461054a57602036600319011261054a5761215b61056b612610565b6106495761216833612708565b801561217f575b1561059357610016600435603655565b50600460206121996105d76000546001600160a01b031690565b60405192838092630536340960e21b82525afa908115610644576000916121cc575b506001600160a01b0316331461216f565b6121e4915060203d811161063d5761062f8183612577565b386121bb565b3461054a57604036600319011261054a5761220661056b612610565b6106495761221333612708565b801561222d575b1561059357610016602435600435612da0565b50600460206122476105d76000546001600160a01b031690565b60405192838092630536340960e21b82525afa9081156106445760009161227a575b506001600160a01b0316331461221a565b612292915060203d811161063d5761062f8183612577565b38612269565b3461054a57606036600319011261054a576122b461056b612610565b610649576122c133612708565b80156122e4575b1561059357610016604435602435600435602855602755602955565b50600460206122fe6105d76000546001600160a01b031690565b60405192838092630536340960e21b82525afa90811561064457600091612331575b506001600160a01b031633146122c8565b612349915060203d811161063d5761062f8183612577565b38612320565b3461054a57602036600319011261054a57600460206001600160a01b0360005416604051928380926369e8d84b60e11b82525afa8015610644576123a4610d79916104de93600091610d895750610d46612f1e565b610d6f610d6a600435612a9c565b3461054a57600036600319011261054a57603254603354603454603554604080519485526020850193909352918301526060820152608090f35b3461054a57600036600319011261054a57602060ff601a54166040519015158152f35b3461054a57600036600319011261054a57600460206001600160a01b0360005416604051928380927f447aa3040000000000000000000000000000000000000000000000000000000082525afa908115610644576104de91610d79916000916124b2575b506040516124808161253f565b600581527f61676528290000000000000000000000000000000000000000000000000000006020820152611b386125e8565b6124ca915060203d811161063d5761062f8183612577565b38612473565b634e487b7160e01b600052604160045260246000fd5b6060810190811067ffffffffffffffff82111761250257604052565b6124d0565b60a0810190811067ffffffffffffffff82111761250257604052565b60e0810190811067ffffffffffffffff82111761250257604052565b6040810190811067ffffffffffffffff82111761250257604052565b6020810190811067ffffffffffffffff82111761250257604052565b90601f8019910116810190811067ffffffffffffffff82111761250257604052565b9081602091031261054a57516125ae81610af9565b90565b6040513d6000823e3d90fd5b604051906125ca82612523565b565b67ffffffffffffffff811161250257601f01601f191660200190565b604051906125f58261255b565b60008252565b9081602091031261054a57516125ae81610da7565b6001600160a01b03600054166040518091634bf9c0ad60e11b825281600460209485935afa80156106445761268b916000916126b2575b506040516126548161253f565b600881527f6973536166652829000000000000000000000000000000000000000000000000848201526126856125e8565b91612971565b90806126a8575b15610bdc57816125ae92825183010191016125fb565b5081815114612692565b6126c99150833d851161063d5761062f8183612577565b38612647565b604051906126dc8261253f565b601582527f69735365637572654261736528616464726573732900000000000000000000006020830152565b61271d6105d76000546001600160a01b031690565b906040518092634bf9c0ad60e11b825281600460209586935afa80156106445761268b92610b8c92600092612778575b50612770906040519384918783019190916001600160a01b036020820193169052565b610ba26126cf565b61277091925061279490863d881161063d5761062f8183612577565b919061274d565b604051906127a88261253f565b601182527f69735369676e65722861646472657373290000000000000000000000000000006020830152565b604051906127e18261253f565b601882527f697364656c656761746f724e6f646528616464726573732900000000000000006020830152565b3d15612838573d9061281e826125cc565b9161282c6040519384612577565b82523d6000602084013e565b606090565b60006128536105d782546001600160a01b031690565b9060405180927f46f991ac00000000000000000000000000000000000000000000000000000000825281600460209586935afa80156106445782808681949382948391612954575b505af16128a661280d565b5015610bdc576004826128c36105d784546001600160a01b031690565b604051928380927f5e09dbe70000000000000000000000000000000000000000000000000000000082525afa908115610644577fcdcc745fe377b103b45fa0cec23ae3ef93d6fc6a84a01f0d18c40b354dd1d5d8936001600160a01b039392612937575b50506040519384521691602090a2565b61294d9250803d1061063d5761062f8183612577565b3880612927565b61296b9150883d8a1161063d5761062f8183612577565b3861289b565b9190823b15612a09577fffffffff00000000000000000000000000000000000000000000000000000000815160208093012016916040519180830193845281519160005b8381106129f55750505091816129e260248260009795968897018783820152036004810184520182612577565b5191620dbba0fa6129f161280d565b9091565b8181018301518582016024015282016129b5565b505050600090604051612a1b8161255b565b6000815290565b9291612a3091600094612971565b9080612a53575b612a3e5750565b6125ae919250602080825183010191016125fb565b506020815114612a37565b9291612a6c91600094612971565b9080612a91575b612a7a5750565b90915060208180518101031261054a576020015190565b506020815114612a73565b90670de0b6b3a764000091828102928184041490151715612ab957565b634e487b7160e01b600052601160045260246000fd5b81810292918115918404141715612ab957565b612aeb90612a9c565b602355565b929491949390936010841015612b63576125ca9560405195612b1187612507565b8652602086015260408501526060840152608083015260005260066020526040600020906080600491805184556020810151600185015560408101516002850155606081015160038501550151910155565b606460405162461bcd60e51b815260206004820152600d60248201527f696e76616c6964206c6576656c000000000000000000000000000000000000006044820152fd5b926125ca959294919460405195612bbd87612507565b8652602086015260408501526060840152608083015260005260046020526040600020906080600491805184556020810151600185015560408101516002850155606081015160038501550151910155565b612ce7946125ca9794612c80612cc895612cab9460c09a9660405190612c3482612523565b8282521515928360208301521515948560408301521515958660608301521515978860808301521515998a60a083015215159b8c91015260185560ff8019601954169115151617601955565b6019805462ffff00191660089290921b61ff00169190911791151560101b62ff000016919091179055565b63ff00000060195491151560181b169063ff000000191617601955565b64ff0000000060195491151560201b169064ff00000000191617601955565b65ff000000000060195491151560281b169065ff0000000000191617601955565b15612d0f57565b606460405162461bcd60e51b815260206004820152600c60248201527f696e76616c69642072616e6b00000000000000000000000000000000000000006044820152fd5b91600292939193612d6660088210612d08565b60405194612d73866124e6565b85526020850191825260408501928352600052600560205260406000209351845551600184015551910155565b612dac60088210612d08565b6000526003602052604060002055565b8660c0604051612dcb81612523565b8381528460208201528560408201528660608201528760808201528860a08201520152600755600855600955600a55600b55600c55600d55565b604051906080820182811067ffffffffffffffff8211176125025760405260006060838281528260208201528260408201520152565b600290856060612e49612e05565b858152866020820152876040820152015260018114612e84575b14612e6f575b50505050565b60125560135560145560155538808080612e69565b82600e5583600f558460105585601155612e63565b600290856060612ea7612e05565b858152866020820152876040820152015260018114612ee1575b14612ecc5750505050565b602e55602f5560305560315538808080612e69565b82602a5583602b5584602c5585602d55612ec1565b90604051612f03816124e6565b60406002829480548452600181015460208501520154910152565b604051612f2a8161255b565b60008152906000368137565b60405190612f438261253f565b601282527f6f7a6f6e655072696365496e55534454282900000000000000000000000000006020830152565b8115612f79570490565b634e487b7160e01b600052601260045260246000fdfea26469706673582212207082a1480931bc9884ad4ca2aa5daecd5ad3597cc4236922b44476c65c3956aa64736f6c63430008140033","linkReferences":{}},"methodIdentifiers":{"rule741()":"0a5b38ab","transferRequest()":"3da8676f"},"id":69}