{"abi":[{"type":"constructor","inputs":[{"name":"_hex","type":"address","internalType":"address"}],"stateMutability":"nonpayable"},{"type":"function","name":"instanceStor","inputs":[],"outputs":[{"name":"","type":"address","internalType":"address"}],"stateMutability":"view"}],"bytecode":{"object":"0x6080346100c5576001600160401b0390601f616b5038819003918201601f1916830191848311848410176100af578084926020946040528339810103126100c557516001600160a01b039190828116908190036100c557604051916169f790818401908111848210176100af576020928492610159843981520301906000f080156100a3571660018060a01b03196000541617600055604051608e90816100cb8239f35b6040513d6000823e3d90fd5b634e487b7160e01b600052604160045260246000fd5b600080fdfe6080806040526004361015601257600080fd5b600090813560e01c63131c73ad14602857600080fd5b346054578160031936011260545773ffffffffffffffffffffffffffffffffffffffff60209254168152f35b5080fdfea2646970667358221220e057e0924093808d281d907730a1a21f9bc13d69431568b40a1d651d46d2777e64736f6c63430008140033608034620000d157601f620069f738819003918201601f19168301916001600160401b03831184841017620000d657808492602094604052833981010312620000d157516001600160a01b03811690819003620000d15780156200008c5760018060a01b0319338160015416176001556000541617600055600160035560405161690a9081620000ed8239f35b60405162461bcd60e51b815260206004820152601360248201527f6f776e2e696e76616c69642e68657862617365000000000000000000000000006044820152606490fd5b600080fd5b634e487b7160e01b600052604160045260246000fdfe60806040526004361015610018575b361561001657005b005b60003560e01c806302a085f2146102a8578063043719b4146102a357806309d8da2e1461029e5780630b98f9751461029957806312065fe014610294578063141ca6601461028f578063143ec3b71461028a5780631f185d16146102855780632c2838e814610280578063393a9f951461027b57806339b4d61b146102765780633b9b7955146102715780634a65786c1461026c57806352902c5914610267578063619d5194146102625780636350b2c21461025d5780636924500914610258578063725b6fff1461025357806375b4d78c1461024e5780637bfbfecb14610249578063880cdc31146102445780638da5cb5b1461023f578063932ca2d61461023a578063934209ce146102355780639659867e14610230578063a15315451461022b578063a1f7f53914610226578063a20199ac14610221578063a98bf4f91461021c578063a9bf285b14610217578063af48452614610212578063af640d0f1461020d578063b90306ad14610208578063c54e44b014610203578063c8ba154e146101fe578063c8ef7b1a146101f9578063d3a1a499146101f4578063da021335146101ef578063e01ad5fd146101ea578063e0a9bc2b146101e55763fdc10bc90361000e576114cb565b6114b0565b611416565b6113be565b611392565b6112ae565b6111f5565b6111bd565b611101565b6110e3565b6110b2565b611094565b611068565b61101c565b610f5e565b610f29565b610f0b565b610eed565b610e2e565b610e07565b610d53565b610bb7565b610b99565b610b7b565b610b5d565b610b06565b610a45565b610919565b6108f3565b6108cc565b6108a0565b6107cb565b610705565b6105f5565b6105b8565b61050b565b6104ef565b61044c565b610429565b6103ed565b6102dc565b610140810192916000915b600a83106102c557505050565b6001908251815260208091019201920191906102b8565b60403660031901126103e8576040516102f481611570565b61014036823760ff600454166103d75761031461030f615fa6565b6114ee565b61031d336160ea565b8015610351575b61034d9161033461034192611627565b6024359060043590611f6a565b604051918291826102ad565b0390f35b506004906001600160a01b03906020826000541660405194858092630536340960e21b82525afa9283156103d25761034d9361034193610334926000926103a2575b50339116149250509150610324565b6103c491925060203d81116103cb575b6103bc81836115e1565b810190611603565b9038610393565b503d6103b2565b61161b565b600460405163658141c160e01b8152fd5b600080fd5b346103e85760403660031901126103e857600435600052601c602052602061041b60243560406000206116d0565b90546040519160031b1c8152f35b346103e85760003660031901126103e857602060ff600454166040519015158152f35b346103e85760203660031901126103e85761046861030f615fa6565b610471336160ea565b801561048c575b61048190611627565b610016600435600555565b5060046001600160a01b036020816000541660405193848092630536340960e21b82525afa9081156103d257610481926000926104cf575b501633149050610478565b6104e891925060203d81116103cb576103bc81836115e1565b90386104c4565b346103e85760003660031901126103e857602047604051908152f35b60203660031901126103e85761052261030f615fa6565b61052b336160ea565b8015610555575b61053b90611627565b610543611f1b565b61054e600435612de4565b6001600355005b5060046001600160a01b036020816000541660405193848092630536340960e21b82525afa9081156103d25761053b92600092610598575b501633149050610532565b6105b191925060203d81116103cb576103bc81836115e1565b903861058d565b346103e85760203660031901126103e857600435600052601c6020526020604060002054604051908152f35b6001600160a01b038116036103e857565b346103e8576020806003193601126103e857600490813590610616826105e4565b8061063861062c6000546001600160a01b031690565b6001600160a01b031690565b60405194858092634bf9c0ad60e11b82525afa9182156103d25761068c6106c6936106a89261034d966000926106e2575b5061069a906040519384918783019190916001600160a01b036020820193169052565b03601f1981018452836115e1565b6106a2616194565b906165a6565b9190806106d8575b6106b9906161cd565b8082518301019101615f91565b60405190151581529081906020820190565b50815181146106b0565b61069a9192506106fe90863d88116103cb576103bc81836115e1565b9190610669565b346103e85760203660031901126103e8576101e0610724600435614ab6565b60405190805182526020810151602083015260408101516040830152606081015160608301526080810151608083015260a081015160a083015260c081015160c083015260e081015160e0830152610100808201519083015261012080820151908301526101408082015190830152610160808201519083015261018080820151908301526101a080820151908301526101c08091015190820152f35b801515036103e857565b346103e85760c03660031901126103e85760a4356107e8816107c1565b6107f361030f615fa6565b6107fc336160ea565b8015610836575b9061081061082492611627565b608435606435604435602435600435613923565b60408051928352602083019190915290f35b506001600160a01b039060046020836000541660405192838092630536340960e21b82525afa80156103d2576108249361081092600092610880575b503391161491925050610803565b61089991925060203d81116103cb576103bc81836115e1565b9038610872565b346103e85760203660031901126103e85760043560005260146020526020604060002054604051908152f35b346103e85760003660031901126103e85760206001600160a01b0360005416604051908152f35b346103e85760003660031901126103e857602060ff60045460081c166040519015158152f35b346103e85760603660031901126103e857600435610936816105e4565b602435610942816105e4565b6001600160a01b038092168015808015610a3b575b610a11576109cd57826109776109c294600054166001600160a01b031690565b610997836001600160a01b03166001600160a01b03196000541617600055565b167fe939feee179e631422bcc8f6e6d7d908cb3f8af38f5372f17c77e15aea5c80ee600080a36162f1565b610016604435600755565b606460405162461bcd60e51b815260206004820152601360248201527f6f776e2e696e76616c69642e68657862617365000000000000000000000000006044820152fd5b60046040517fa596f2f9000000000000000000000000000000000000000000000000000000008152fd5b5083831615610957565b346103e85760203660031901126103e857600435610a62816107c1565b610a6d61030f615fa6565b610a76336160ea565b8015610a9c575b90610a8a61001692611627565b60ff8019600454169115151617600455565b506001600160a01b039060046020836000541660405192838092630536340960e21b82525afa80156103d25761001693610a8a92600092610ae6575b503391161491925050610a7d565b610aff91925060203d81116103cb576103bc81836115e1565b9038610ad8565b346103e85760203660031901126103e8576004356000526016602052608060406000208054906001810154906001600160a01b03600360028301549201541691604051938452602084015260408301526060820152f35b346103e85760003660031901126103e8576020600a54604051908152f35b346103e85760003660031901126103e8576020600854604051908152f35b346103e85760003660031901126103e8576020600554604051908152f35b600080600319360112610d505760ff600454166103d757610bd6611f1b565b610be6610be1616218565b600255565b610bfa61062c82546001600160a01b031690565b60405190816311be646b60e21b9182825281600460209586935afa80156103d257610c2e918591610d33575b5034906163b2565b6000805260156020527fa31547ce6245cdb9ecea19cf8c7eb9f5974025bb4075011409251ae855b30aed610c63348254611e8c565b9055610c7c610c70614236565b50915050600254611729565b81610c9161062c85546001600160a01b031690565b9160046040518094819382525afa9081156103d2577f1517c86fcf2bfb8e3468afcc539b0004955da8027797c497ea51d1f1094ab898928492610d16575b5050600254604080513381526001600160a01b0393909316602084015260009083015234606083015260808201526103e860a082015260c090a1610d136001600355565b80f35b610d2c9250803d106103cb576103bc81836115e1565b3880610ccf565b610d4a9150843d86116103cb576103bc81836115e1565b38610c26565b80fd5b346103e85760203660031901126103e857600435610d70816105e4565b610d7b61030f615fa6565b610d84336160ea565b8015610d9d575b90610d9861001692611627565b61176e565b506001600160a01b039060046020836000541660405192838092630536340960e21b82525afa80156103d25761001693610d9892600092610de7575b503391161491925050610d8b565b610e0091925060203d81116103cb576103bc81836115e1565b9038610dd9565b346103e85760003660031901126103e85760206001600160a01b0360015416604051908152f35b60a03660031901126103e857600435610e46816105e4565b610e5161030f615fa6565b610e5a336160ea565b8015610e83575b90610e6e61082492611627565b608435906064359060443590602435906117b0565b506001600160a01b039060046020836000541660405192838092630536340960e21b82525afa80156103d25761082493610e6e92600092610ecd575b503391161491925050610e61565b610ee691925060203d81116103cb576103bc81836115e1565b9038610ebf565b346103e85760003660031901126103e8576020600b54604051908152f35b346103e85760003660031901126103e8576020600654604051908152f35b346103e85760003660031901126103e8576080610f44614236565b916040519384526020840152151560408301526060820152f35b346103e85760003660031901126103e857600460206001600160a01b03600054166040519283809263d1f956b160e01b82525afa9081156103d25761034d91610fee91600091610ffe575b50604051610fb68161158d565b601381527f67657464656c656761746f72436f756e742829000000000000000000000000006020820152610fe8611cdf565b916166dc565b6040519081529081906020820190565b611016915060203d81116103cb576103bc81836115e1565b38610fa9565b346103e85760403660031901126103e85761103b6024356004356159ca565b60405190600090825b600783106110515760e084f35b600190825181526020809101920192019190611044565b346103e85760203660031901126103e85760043560005260176020526020604060002054604051908152f35b346103e85760003660031901126103e8576020600954604051908152f35b346103e85760203660031901126103e85760206110d96004356110d4816105e4565b6160ea565b6040519015158152f35b346103e85760003660031901126103e8576020600754604051908152f35b346103e85760203660031901126103e85760046001600160a01b036020816000541660405193848092630536340960e21b82525afa9182156103d25760009261119d575b50339116036111595761001660043561649c565b606460405162461bcd60e51b815260206004820152600f60248201527f6f776e2e6e6f6e617574682e44414f00000000000000000000000000000000006044820152fd5b6111b691925060203d81116103cb576103bc81836115e1565b9038611145565b346103e85760203660031901126103e85760206111e46004356111df816105e4565b616859565b6001600160a01b0360405191168152f35b346103e8576101003660031901126103e85761121261030f615fa6565b61121b336160ea565b801561124b575b61122b90611627565b61082460e43560c43560a435608435606435604435602435600435613a47565b5060046001600160a01b036020816000541660405193848092630536340960e21b82525afa9081156103d25761122b9260009261128e575b501633149050611222565b6112a791925060203d81116103cb576103bc81836115e1565b9038611283565b346103e85760403660031901126103e8576024356112cb816107c1565b6112d661030f615fa6565b6112df336160ea565b80156112fb575b906112f361001692611627565b600435611672565b506001600160a01b039060046020836000541660405192838092630536340960e21b82525afa80156103d257610016936112f392600092611345575b5033911614919250506112e6565b61135e91925060203d81116103cb576103bc81836115e1565b9038611337565b634e487b7160e01b600052603260045260246000fd5b600881101561138d57600c0190600090565b611365565b346103e85760203660031901126103e85760043560088110156103e857602090600c0154604051908152f35b346103e8576020806003193601126103e8576080906004356000526018815260409081600020549160198252806000205490601a8352806000205491601b845281600020549382519586528501528301526060820152f35b346103e8576020806003193601126103e85760048035611435816105e4565b6001600160a01b03928084600054166040519485809263d1f956b160e01b82525afa9081156103d25761034d946106c694600093611491575b5060405193168184015282526114838261158d565b61148b6162b8565b906166a0565b6114a9919350823d84116103cb576103bc81836115e1565b913861146e565b346103e85760003660031901126103e85760206110d9615fa6565b346103e85760003660031901126103e85760206114e6616218565b604051908152f35b156114f557565b606460405162461bcd60e51b815260206004820152601260248201527f6f776e2e696e76616c69642e69735361666500000000000000000000000000006044820152fd5b634e487b7160e01b600052604160045260246000fd5b6060810190811067ffffffffffffffff82111761156b57604052565b611539565b610140810190811067ffffffffffffffff82111761156b57604052565b6040810190811067ffffffffffffffff82111761156b57604052565b6020810190811067ffffffffffffffff82111761156b57604052565b60e0810190811067ffffffffffffffff82111761156b57604052565b90601f8019910116810190811067ffffffffffffffff82111761156b57604052565b908160209103126103e85751611618816105e4565b90565b6040513d6000823e3d90fd5b1561162e57565b606460405162461bcd60e51b815260206004820152601b60248201527f6f776e2e6e6f6e617574682e44414f6f725365637572656261736500000000006044820152fd5b61167a616218565b9081600255600052601c6020526040600020916000146116c157815480159081156116b5575b506116aa575b5050565b6116b3916116e8565b565b600191501615386116a0565b600180835416146116aa575050565b805482101561138d5760005260206000200190600090565b908154916801000000000000000083101561156b57826117109160016116b3950181556116d0565b90919082549060031b91821b91600019901b1916179055565b60c8600052601c6020527f922f6af691981b741eb02b3ed3453cc38ce623e8709ce524bd43bdbfc62af09991156116c157815480159081156116b557506116aa575050565b6001600160a01b03811615611786576116b3906162f1565b60046040517fb31092f1000000000000000000000000000000000000000000000000000000008152fd5b9092949360049160ff835416611c86576117c8611f1b565b6117d86117d4826160ea565b1590565b611c76576117e7610be1616218565b6000946117fe61062c87546001600160a01b031690565b906040928351809663cfbffe5360e01b94858352828260209485935afa9788156103d2578a98611c57575b50611843611835611cf2565b61183d611d0a565b8a6166dc565b978815611c0b57611863611855611cf2565b61185d611d43565b836166dc565b9061187160029a8b54611d92565b916118a661188e611880611cf2565b611888611db2565b856166dc565b92611897611cf2565b906118a0611deb565b906166dc565b906118bb846000526014602052604060002090565b541091821592611bee575b5050611bc6576118e0906000526014602052604060002090565b8054600101905560018714948515611bbd578261190761062c8d546001600160a01b031690565b918389518094819382525afa9081156103d2576119489161068c918d91611ba0575b506119408c8a519384918883019190602083019252565b6118a0611e24565b9b8c955b611ad0575b5050879695937f1517c86fcf2bfb8e3468afcc539b0004955da8027797c497ea51d1f1094ab89898611aa696946119ef946119dd6119e29560065415611ab7575b6119a56119a0600654611ec4565b600655565b8b54856119b0611c96565b9288845283015289820152606081019e8f526119d86006546000526016602052604060002090565b611ed3565b61264b565b6001600160a01b03168852565b611a37611a0388516001600160a01b031690565b6003611a1b6006546000526016602052604060002090565b01906001600160a01b03166001600160a01b0319825416179055565b88611a68611a44826127db565b98611a5b611a50614236565b509150508854611729565b516001600160a01b031690565b9454915195869533879260a09491979695929760c08501986001600160a01b0380921686521660208501526040840152606083015260808201520152565b0390a1611ab36001600355565b9190565b611ac18c54600855565b611acb8c54600955565b611992565b909192939450600554918c611ae58484611e8c565b10611b505750887f1517c86fcf2bfb8e3468afcc539b0004955da8027797c497ea51d1f1094ab89899989795611aa697956119dd8f9496611b3d611b3887611b336119e29a6119ef9c611e8c565b611eb7565b600555565b9550509450949650988195979850611951565b611b9c90875191829162461bcd60e51b8352820160609060208152601360208201527f73746f722e66616b652e6d696e7476616c75650000000000000000000000000060408201520190565b0390fd5b611bb79150853d87116103cb576103bc81836115e1565b38611929565b508b8c9561194c565b5085517feb2c7de7000000000000000000000000000000000000000000000000000000008152fd5b8c1091508115611c01575b5038806118c6565b90508a1138611bf9565b611b9c82885191829162461bcd60e51b8352820160609060208152601560208201527f696e76616c6964206d696e744379636c6544617973000000000000000000000060408201520190565b611c6f919850823d84116103cb576103bc81836115e1565b9638611829565b82604051630d419f7360e41b8152fd5b8260405163658141c160e01b8152fd5b604051906080820182811067ffffffffffffffff82111761156b57604052565b604051906116b3826115c5565b67ffffffffffffffff811161156b57601f01601f191660200190565b60405190611cec826115a9565b60008252565b604051611cfe816115a9565b60008152906000368137565b60405190611d178261158d565b600f82527f6d696e744379636c6544617973282900000000000000000000000000000000006020830152565b60405190611d508261158d565b601282527f6d61784d696e74735065724379636c65282900000000000000000000000000006020830152565b634e487b7160e01b600052601160045260246000fd5b8115611d9c570490565b634e487b7160e01b600052601260045260246000fd5b60405190611dbf8261158d565b600c82527f6d696e4d696e74517479282900000000000000000000000000000000000000006020830152565b60405190611df88261158d565b600c82527f6d61784d696e74517479282900000000000000000000000000000000000000006020830152565b60405190611e318261158d565b601982527f636f6d707574654d696e7456616c75652875696e7432353629000000000000006020830152565b90600e8201809211611e6b57565b611d7c565b6047019081604711611e6b57565b9060018201809211611e6b57565b91908201809211611e6b57565b600019810191908211611e6b57565b600119810191908211611e6b57565b91908203918211611e6b57565b6000198114611e6b5760010190565b60036001600160a01b0360606116b3948051855560208101516001860155604081015160028601550151169101906001600160a01b03166001600160a01b0319825416179055565b600260035414611f2c576002600355565b60046040517f3ee5aeb5000000000000000000000000000000000000000000000000000000008152fd5b60405190611f63826115c5565b60e0368337565b90611f7d9291611f78611f1b565b6120b3565b906001600355565b60405190611f928261158d565b601082527f65616368636c61696d4379636c652829000000000000000000000000000000006020830152565b60405190611fcb8261158d565b601082527f6d696e436c61696d5065724461792829000000000000000000000000000000006020830152565b604051906120048261158d565b601082527f6d6178436c61696d5065724461792829000000000000000000000000000000006020830152565b6040519061203d8261158d565b601682527f6d6178476c6f62616c436c61696d5065724461792829000000000000000000006020830152565b604051906120768261158d565b601582527f67657477697468647261776e2875696e743235362900000000000000000000006020830152565b90600a81101561138d5760051b0190565b9291838115612645575060025560006120d661062c82546001600160a01b031690565b6040908151809163cfbffe5360e01b825281600460209384935afa9182156103d2578492612626575b50612108614236565b509691505061211a6002968754611729565b603261214987546008549361212f8186611e8c565b82111561261f57612141915084611e8c565b925b83611eb7565b1161261757612157906145f8565b61217661216d612165611cf2565b611888611f85565b60095490611e8c565b90855491821015612193575b5050505050506116b3610be1616218565b6121a661219e611cf2565b611888611fbe565b926121ba6121b2611cf2565b61185d611ff7565b600f60005260156020529261231c6122ec6122bc61228c61225c61222c7f3bda72f6153f13a10a865b9a6397e1123f4aa6a1726e0e1349cd07eb0e24d81554601060005260156020527f778c823f9b5f066b3c9d60b855427fd2999fcc25aebe3320977c1598596fffaf5b5490611e8c565b601160005260156020527fed5e5ecd5cb229fc7c2ed17e5e7cdfdc1d0a81991bd95ffdc4cdf25aca2d2ac3612225565b601260005260156020527f2d1305887a553ebca964114eb55137666ae056a13c7d9c5dcf078bd3a9732a38612225565b601360005260156020527fa5165e376b84f33a3c944a34b062595f1fb4afde844645ed23ed1e10c257ebe1612225565b601460005260156020527fe06932cbfde2f2475d8c82e797702b1bf34af837520e34a39e7e7b5e28f71d5f612225565b601560008190526020527ff38242ae41b6250df1acd58d7376889913b9221d9b2e1d2e50fb7d62671fa733612225565b9485101561232c575b5050612182565b61234360049261233a611cf2565b906118a0612030565b928061235961062c8a546001600160a01b031690565b88519485809263ab6e844f60e01b82525afa9081156103d25761239d9389926125f4575b5087519081019283529161239590839060200161068c565b6118a0612069565b10156125cb57808211156125c3576123b491611eb7565b9060015b600781111561243c5750507fce9b89faa7d00b5a0dcea74b754372f1c8c1e2788b44e0b6fc99899848f9baf780546101008701527f6b9301c903fb63b5bb3b4ed52f960f66e3a0c33bca0ea2f28cf6e34d2eb058dd805461012088015260156020908152918490556000919091529190915550546009553880808080808080612325565b61245861244882611e5d565b6000526015602052604060002090565b548361252a579061252591612477826000526015602052604060002090565b612482828254611e8c565b90558561249161244884611e5d565b556124a461249e83611e99565b8a6120a2565b525b7f1517c86fcf2bfb8e3468afcc539b0004955da8027797c497ea51d1f1094ab8986124d361249e83611e99565b5187549061251d6124e385611e70565b875193849333859094939260a0926001600160a01b0360c08401971683526000602084015260006040840152606083015260808201520152565b0390a1611ec4565b6123b8565b8381111561258457906125408461252593611eb7565b9384612561612559846000526015602052604060002090565b918254611e8c565b905561256f61244883611e5d565b55849361257e61249e83611e99565b526124a6565b612592906125259294611eb7565b926125a7816000526015602052604060002090565b50846125b561244883611e5d565b558461257e61249e83611e99565b5050816123b4565b600483517f1d63fe21000000000000000000000000000000000000000000000000000000008152fd5b81925061261090612395923d85116103cb576103bc81836115e1565b919061237d565b505050505050565b5092612143565b8161263e9293503d84116103cb576103bc81836115e1565b90386120ff565b93505050565b916126cb926126bc926001600160a01b039586600154169360025492604051957fc85700fb000000000000000000000000000000000000000000000000000000006020880152602487015260448601526064850152608484015260a483015260a482526126b7826115c5565b616764565b60208082518301019101611603565b1680156126d55790565b60046040517fb1bdf8b0000000000000000000000000000000000000000000000000000000008152fd5b6040519061270c8261158d565b600682527f706f6f6c282900000000000000000000000000000000000000000000000000006020830152565b908160e09103126103e85780519160208201519160408101519160608201519160808101519160c060a083015192015190565b9061271091828102928184041490151715611e6b57565b9081606402916064830403611e6b57565b81810292918115918404141715611e6b57565b91909160008382019384129112908015821691151617611e6b57565b81810392916000138015828513169184121617611e6b57565b60049060206127f561062c6000546001600160a01b031690565b6040519384809263cfbffe5360e01b82525afa80156103d2576128c061289661287b6128bb612886612870612880612860612851612875996116189c6000916128d2575b50612842611cf2565b9061284b6126ff565b9061657b565b60208082518301019101612738565b9e8f9b969e949892959150612793565b612793565b93612793565b61276b565b90611d92565b946128a661289682600254611e8c565b6000526017602052604060002090565b6128b18782546127a6565b9055600254611e8c565b611e8c565b6128cb8282546127c2565b9055612793565b6128ea915060203d81116103cb576103bc81836115e1565b38612839565b604051906128fd8261158d565b601382527f55736572546f496e7374286164647265737329000000000000000000000000006020830152565b604051906129368261158d565b600b82527f6d696e74436f756e7428290000000000000000000000000000000000000000006020830152565b6040519061296f8261158d565b600e82527f6d696e74732875696e74323536290000000000000000000000000000000000006020830152565b604051906129a88261158d565b600b82527f6d696e74656441676528290000000000000000000000000000000000000000006020830152565b604051906129e18261158d565b600b82527f6d696e74656471747928290000000000000000000000000000000000000000006020830152565b60405190612a1a8261158d565b600c82527f6964732875696e743235362900000000000000000000000000000000000000006020830152565b60405190612a538261158d565b600982527f6d696e74416d74282900000000000000000000000000000000000000000000006020830152565b604051906080820182811067ffffffffffffffff82111761156b5760405260006060838281528260208201528260408201520152565b60405190612ac28261158d565b600a82527f647261776e6167652829000000000000000000000000000000000000000000006020830152565b60405190612afb8261158d565b600c82527f4c53422875696e743235362900000000000000000000000000000000000000006020830152565b60405190612b348261158d565b600782527f647261776e2829000000000000000000000000000000000000000000000000006020830152565b91908260c09103126103e85781519160208101519160408201519160608101519160a0608083015192015190565b60405190612b9b8261158d565b601382527f67657452657761726473286164647265737329000000000000000000000000006020830152565b91908260409103126103e8576020825192015190565b60405190612bea8261158d565b600782527f626f6e75732829000000000000000000000000000000000000000000000000006020830152565b60405190612c238261158d565b600682527f63616765282900000000000000000000000000000000000000000000000000006020830152565b60405190612c5c8261158d565b601982527f67657445666665637469766552616e6b286164647265737329000000000000006020830152565b60405190612c958261158d565b601f82527f6765746e6f646572616e6b61676528616464726573732c75696e7432353629006020830152565b60405190612cce8261158d565b601082527f6765744e6f6465286164647265737329000000000000000000000000000000006020830152565b908160a09103126103e8578051916020820151612d16816105e4565b9160408101519160806060830151612d2d816107c1565b920151611618816107c1565b60405190612d468261158d565b601582527f67657444656c656761746f7228616464726573732900000000000000000000006020830152565b60405190612d7f8261158d565b601482527f697344656c656761746f722861646472657373290000000000000000000000006020830152565b60405190612db88261158d565b601a82527f77697468647261776e496e636f6d654f662861646472657373290000000000006020830152565b60045460081c60ff16613920576004906020612e0b61062c6000546001600160a01b031690565b6040519384809263111ea8c160e21b82525afa9182156103d2576000926138ff575b50612e82612e66612e74612e496001546001600160a01b031690565b604080516001600160a01b03909216602083015290928391820190565b03601f1981018352826115e1565b612e7c6128f0565b84616657565b906001600160a01b038216156138db57600581116138b157612eb3612ea5611cf2565b612ead612929565b846166dc565b90600654612ec18183611e8c565b8311156138a957612ed191611e8c565b816134d1575b5080600654149081156134c8575b50612eee575050565b612f09612f04612efc611cf2565b612ead612ab5565b600a55565b600a546008548111613480575b50612f42612f33612f25611cf2565b612f2d612b27565b8461657b565b60208082518301019101612b60565b601560209081527f27739e4bb5e6f8b5e4b57a047dca8767cc9b982a011081e086cbb0dfa9de818d969096557f07d4ff730d9753101d832555708a37d38c2c45fce8cacaefc99f06074e93fe0b949094557fb3a65e8276bd33b3e4f7d6081ebd9899187264822358758dca2e2bc37b2a9c27929092557f8191f4eb6b8bafbfe9a5389c8d07d7f5fd81137a7ee653fc4358269845ee1d2e557f25847c9ccf691da811a9f934d6b3b92e6062ef92feb71bf4cb08cbb4fad8d6525560076000527f5d0f48e37dc1225cdee8d6f2a0315d796f55423522fe638d7d95421802dfc00655604080516001600160a01b0384169281019290925261306a9161305b9161304d9082908101612e66565b613055612b8e565b8561657b565b60208082518301019101612bc7565b60156020527f535b9e1ac68faf16e764f210b80ec6320ee232f7656b4f9a2d0a74437eceaaac9190915560686000527f7ee1f11581f85e8bd439e065fc0e6555ccc3142caeda52fdbb7bed5ad7a8306a556130d1611b386130c9611cf2565b612ead612bdd565b6130e7612f046130df611cf2565b612ead612c16565b61311e61311960405161311181612e6686602083019190916001600160a01b036020820193169052565b611888612c4f565b600b55565b60005b600f81111561338e575061316361068c6131899361315b61317294604051938491602083019190916001600160a01b036020820193169052565b61284b612cc1565b60208082518301019101612cfa565b935050505060ff8019600454169115151617600455565b61319e61062c6000546001600160a01b031690565b604051907f6325dd0400000000000000000000000000000000000000000000000000000000808352602083600481855afa9283156103d25760009361336d575b506132256131f46001546001600160a01b031690565b604080516001600160a01b0383166020820152919590613217908390810161068c565b61321f612d39565b90616657565b604051828152602081600481875afa80156103d2576132769261068c92600092613348575b5061326e90604051938491602083019190916001600160a01b036020820193169052565b61148b612d72565b61329d575b505050613289600854600955565b6116b361010061ff00196004541617600455565b60209060046040518094819382525afa80156103d2576132ef9261068c92600092613323575b506132e790604051938491602083019190916001600160a01b036020820193169052565b6118a0612dab565b600560005260156020527fbab719002e4be320868650dc7456e9a1d245e4d5dd64765588e2f21529d871d35538808061327b565b6132e79192506133419060203d6020116103cb576103bc81836115e1565b91906132c3565b61326e9192506133669060203d6020116103cb576103bc81836115e1565b919061324a565b61338791935060203d6020116103cb576103bc81836115e1565b91386131de565b806133a7916133f6575b600b548111156133ac57611ec4565b613121565b604080516001600160a01b03851660208201529081018290526133f1906133e8906133da8160608101612e66565b6133e2612c88565b876166dc565b6117108361137b565b611ec4565b6040517f5329daca0000000000000000000000000000000000000000000000000000000060208201526001600160a01b0384166024820152604481018290526134509061305b9061344a8160648101612e66565b86616764565b613464836000526018602052604060002090565b90613479846000526019602052604060002090565b5555613398565b6008556134ab612e666134a3600a54604051928391602083019190602083019252565b61185d612aee565b6134c16008546000526017602052604060002090565b5538612f16565b90501538612ee5565b600080527f999d26de3473317ead3eeaf34ca78057f1439db67b6953469c3c96ce9caf6bd75460196020527fd2ac945fcc0096878c763e37d6929b78378c1a2defabde8ba7ee5ed1d6e7a5b2549095909491929091905b6006548481101561384c576119a061353f91611ec4565b61356d612e6661355f600654604051928391602083019190602083019252565b613567612962565b87616657565b613583610be161357b611cf2565b612ead61299b565b613635613599613591611cf2565b612ead6129d4565b986135be6040516135b681612e6660208201906000602083019252565b611888612a0d565b986135db6135d56135cd611cf2565b6133e2612a46565b94616859565b60206135f261062c6000546001600160a01b031690565b6040517fcfaa1f6c0000000000000000000000000000000000000000000000000000000081526001600160a01b0390931660048401529194859081906024820190565b0381845afa9384156103d25760009461382b575b506001600160a01b038416156137b9575b506136676117d4846160ea565b6137a8578a928484613677612a7f565b938285528160208601526002958654604087015283866006546136a4906000526016602052604060002090565b906136ae91611ed3565b6136b791611e8c565b9e6136c191611e8c565b9c6136cb9361264b565b6006546136e2906000526016602052604060002090565b6003019061370591906001600160a01b03166001600160a01b0319825416179055565b61370e846127db565b50600654600114936137546060613791937f1517c86fcf2bfb8e3468afcc539b0004955da8027797c497ea51d1f1094ab89897613799575b01516001600160a01b031690565b9254604080513381526001600160a01b03909516602086015284019490945260608301526080820192909252600060a082015290819060c0820190565b0390a1613528565b6137a38654600855565b613746565b6004604051630d419f7360e41b8152fd5b6040517fb771c89600000000000000000000000000000000000000000000000000000000815260006004820152919350602090829060249082905afa9081156103d25760009161380c575b50913861365a565b613825915060203d6020116103cb576103bc81836115e1565b38613804565b61384591945060203d6020116103cb576103bc81836115e1565b9238613649565b50600080527f999d26de3473317ead3eeaf34ca78057f1439db67b6953469c3c96ce9caf6bd79690965560196020527fd2ac945fcc0096878c763e37d6929b78378c1a2defabde8ba7ee5ed1d6e7a5b29490945593905038612ed7565b505080612ed1565b60046040517fc99d37d2000000000000000000000000000000000000000000000000000000008152fd5b5050506138e9612f04616218565b6138f4600a54600855565b613289600a54600955565b61391991925060203d6020116103cb576103bc81836115e1565b9038612e2d565b50565b959394909291946000966000968461393d57505050505050565b919395965091939650600b5496846000146139a557613966866000526018602052604060002090565b8054918201809211611e6b576139969661398f9261255992556000526019602052604060002090565b905561402a565b600b5490388080808080612617565b85600096929652601860205260406000208054918203918211611e6b575560005260196020526040600020938454908103908111611e6b57613996945561402a565b604051906139f48261158d565b601482527f6c6576656c436c617573652875696e74323536290000000000000000000000006020830152565b908160a09103126103e8578051916020820151916040810151916080606083015192015190565b831515989793969095938980613e78575b80613e6f575b613e15575b5050600b5497613a7d876000526018602052604060002090565b613a88838254611e8c565b9055613a9e876000526019602052604060002090565b613aa9848254611e8c565b90556000805260186020527f999d26de3473317ead3eeaf34ca78057f1439db67b6953469c3c96ce9caf6bd75415159081613e0d575b50613af1575b505050505050600b5490565b8391159485159485613dfd575b50506000613b1661062c82546001600160a01b031690565b604051809163cfbffe5360e01b825281600460209384935afa80156103d25761068c613b6791613b74948691613de0575b50613b5f8c6040519384918783019190602083019252565b61284b6139e7565b8051810182019101613a20565b96919293909760028c1192831593613db1575b505050613b97575b505050613ae5565b613c019615613da857612880613bb0613bb69386612793565b91612782565b955b15613d9e5750613bb0613bce9361288092612793565b925b613be481600052601a602052604060002090565b613bef848254611e8c565b9055600052601b602052604060002090565b613c0c838254611e8c565b905560016000819052601c602052613c467f6de76108811faf2f94afbe5ac6c98e8393206cd093932de1fbfd61bbeec43a025b5460011690565b148015613d62575b613d27575b506004600052601c6020526001613c897fadacb2ae086d090ae1cbb87d66774fa6d708dd14d5bdc5b6c1e455aa2020dfb7613c3f565b148015613ceb575b613cb0575b50613ca2610c70614236565b388080808080808080613b8f565b600b6000526015602052613ce37fcaeae41dfed97dfd8c41876ff591faa3e36cda388621c550caa3321a2a624e5f612559565b905538613c96565b5060c8600052601c6020526001613d217f922f6af691981b741eb02b3ed3453cc38ce623e8709ce524bd43bdbfc62af099613c3f565b14613c91565b60086000526015602052613d5a7f2d0e46a571fdfbe57c7c718891a8a12999c102dfffa2b3314ea165dedd1684f5612559565b905538613c53565b5060c8600052601c6020526001613d987f922f6af691981b741eb02b3ed3453cc38ce623e8709ce524bd43bdbfc62af099613c3f565b14613c4e565b9250505092613bd0565b50508095613bb8565b613dc191929350600a5490611eb7565b10908115613dd3575b50388080613b87565b9050600b54101538613dca565b613df79150843d86116103cb576103bc81836115e1565b38613b47565b613e0691613eba565b3882613afe565b905038613adf565b600b5480928110159182613e64575b505015613e32575b80613a63565b83613e52613e4c613e428461137b565b90549060031b1c90565b87611eb7565b1115613e2c5797505050505050508190565b101590508138613e24565b50801515613a5e565b50811515613a58565b60405190613e8e8261158d565b601382527f72616e6b436c617573652875696e7432353629000000000000000000000000006020830152565b90613ed061062c6000546001600160a01b031690565b906040928351809363cfbffe5360e01b825281600460209384935afa9384156103d25760009461400b575b50600b93613f098554611e7e565b60088110613f1a5750505050505050565b613f8690613f57613f498951613f3b81612e66868a83019190602083019252565b613f43613e81565b8661657b565b858082518301019101612bc7565b90861015908180613fed575b80613fdb575b15613f8b575050613f7981600b55565b6133f1866117108361137b565b613f09565b81613fbc575b50613fb3576133f1613fa28261137b565b8154906000199060031b1b19169055565b6133f181600b55565b9050613fd2826000526019602052604060002090565b54101538613f91565b508854613fe784611e99565b14613f69565b5080614003846000526019602052604060002090565b541015613f63565b816140239295503d86116103cb576103bc81836115e1565b9238613efb565b9061404061062c6000546001600160a01b031690565b916040938451809463cfbffe5360e01b825281600460209384935afa9485156103d257600095614184575b50600b946140798654611e7e565b6008811061408b575050505050505050565b6140d690846140c96140bb8b516140ad81612e66878b83019190602083019252565b6140b5613e81565b8761657b565b868082518301019101612bc7565b916140db575b5050611ec4565b614079565b871015908180614166575b80614154575b156141105750506140fc81600b55565b614109876117108361137b565b38806140cf565b81614135575b5061412c57614127613fa28261137b565b614109565b61412781600b55565b905061414b826000526019602052604060002090565b54101538614116565b50895461416084611e99565b146140ec565b508061417c846000526019602052604060002090565b5410156140e6565b8161419c9296503d87116103cb576103bc81836115e1565b933861406b565b604051906141b08261158d565b600982527f63617070696e67282900000000000000000000000000000000000000000000006020830152565b908160e09103126103e85780519160208201516141f8816107c1565b916040810151614207816107c1565b916060820151614216816107c1565b916080810151614225816107c1565b9160c060a0830151612d2d816107c1565b6000906004602061425261062c6000546001600160a01b031690565b6040519283809263cfbffe5360e01b82525afa9081156103d2576142a291614293916000916145da575b506142856141a3565b61428d611cdf565b9161657b565b602080825183010191016141dc565b6000805260186020529396959490929091906142df867f999d26de3473317ead3eeaf34ca78057f1439db67b6953469c3c96ce9caf6bd754612793565b976142e8615909565b946145d2575b5061453c575b6144d6575b6144c5575b50614457575b614374575b6000805260156020527fa31547ce6245cdb9ecea19cf8c7eb9f5974025bb4075011409251ae855b30aed5461433d91612793565b80841061436b5761434e9084611eb7565b905b828211918381106143615750600090565b6116189084611eb7565b50600090614350565b600660005260156020529261433d9061444f906144496122ec6144196143e96122bc7f25847c9ccf691da811a9f934d6b3b92e6062ef92feb71bf4cb08cbb4fad8d6525b54600d60005260156020527fe3e3bb3f660b5aca6f44f8cdafd6456c07cd53888341ab748ffc02d532ccc70e612225565b600760005260156020527f5d0f48e37dc1225cdee8d6f2a0315d796f55423522fe638d7d95421802dfc006612225565b600e60005260156020527f39f65be0de5254440eb2b93b160b1af3a4f45fe0571eaea7ef454b27b7f02d18612225565b90611e8c565b939050614309565b60056000526015602052936144bf9061444961228c7fbab719002e4be320868650dc7456e9a1d245e4d5dd64765588e2f21529d871d35b54600c60005260156020527f74c10a04815bbeaf3165dab0bd11b69aae73edf00a48b27ec8c53ac5b61d47fd612225565b93614304565b6144cf9196611e8c565b94386142fe565b60156020527fb3a65e8276bd33b3e4f7d6081ebd9899187264822358758dca2e2bc37b2a9c2754600a6000529097614536916144499061222c907f0cfcac9f3767130657d3b01a9146da544eeb39eb9670066ace5e84da7fc4319f612225565b966142f9565b60156020527f07d4ff730d9753101d832555708a37d38c2c45fce8cacaefc99f06074e93fe0b54600960005290986145cc916144499061459c907f497613c0658032a90a449a944031c57b1d03996c3a6148fe12146c45cf321400612225565b601060005260156020527f778c823f9b5f066b3c9d60b855427fd2999fcc25aebe3320977c1598596fffaf612225565b976142f4565b9950386142ee565b6145f2915060203d81116103cb576103bc81836115e1565b3861427c565b6116b39061460581614ab6565b8051600f600052601560205261463a7f3bda72f6153f13a10a865b9a6397e1123f4aa6a1726e0e1349cd07eb0e24d815612559565b90556060810151601260005260156020526146747f2d1305887a553ebca964114eb55137666ae056a13c7d9c5dcf078bd3a9732a38612559565b9055602081810151601060005260159091526146af7f778c823f9b5f066b3c9d60b855427fd2999fcc25aebe3320977c1598596fffaf612559565b9055604081018051601160005260156020526146ea7fed5e5ecd5cb229fc7c2ed17e5e7cdfdc1d0a81991bd95ffdc4cdf25aca2d2ac3612559565b90556080820151601360005260156020526147247fa5165e376b84f33a3c944a34b062595f1fb4afde844645ed23ed1e10c257ebe1612559565b905560a08201516014600052601560205261475e7fe06932cbfde2f2475d8c82e797702b1bf34af837520e34a39e7e7b5e28f71d5f612559565b905560c0820151601560008190526020526147987ff38242ae41b6250df1acd58d7376889913b9221d9b2e1d2e50fb7d62671fa733612559565b9055610100820151600960005260156020526147d37f497613c0658032a90a449a944031c57b1d03996c3a6148fe12146c45cf321400612559565b905561012082018051600a600052601560205290926101c0916148157f0cfcac9f3767130657d3b01a9146da544eeb39eb9670066ace5e84da7fc4319f612559565b9055610160810151600c60005260156020526148507f74c10a04815bbeaf3165dab0bd11b69aae73edf00a48b27ec8c53ac5b61d47fd612559565b9055610180810151600d600052601560205261488b7fe3e3bb3f660b5aca6f44f8cdafd6456c07cd53888341ab748ffc02d532ccc70e612559565b90556101a0810151600e60005260156020526148c67f39f65be0de5254440eb2b93b160b1af3a4f45fe0571eaea7ef454b27b7f02d18612559565b905501516148de846000526017602052604060002090565b5551601f60005260156020526149137fce9b89faa7d00b5a0dcea74b754372f1c8c1e2788b44e0b6fc99899848f9baf7612559565b905551602060008190526015905261494a7f6b9301c903fb63b5bb3b4ed52f960f66e3a0c33bca0ea2f28cf6e34d2eb058dd612559565b9055600855565b604051906101e0820182811067ffffffffffffffff82111761156b57604052816101c06000918281528260208201528260408201528260608201528260808201528260a08201528260c08201528260e08201528261010082015282610120820152826101408201528261016082015282610180820152826101a08201520152565b604051906149df8261158d565b600a82527f73687574646f776e2829000000000000000000000000000000000000000000006020830152565b60405190614a188261158d565b601882527f676574557365724964546f496e73742875696e743235362900000000000000006020830152565b60405190614a518261158d565b601182527f696e636f6d654f662861646472657373290000000000000000000000000000006020830152565b60405190614a8a8261158d565b601482527f636f6d70757465546f75722875696e74323536290000000000000000000000006020830152565b90614abf614951565b91614ad561062c6000546001600160a01b031690565b60409182519163ab6e844f60e01b83526020908184600481845afa9384156103d257600094614f28575b50845163cfbffe5360e01b81528281600481855afa9182156103d25785896004968694600096614f01575b5090614c62859287614b4c614b3d6149d2565b614b45611cdf565b90836166a0565b9b8c92614bf8614b5a615909565b6060890190815281895260156020527f27739e4bb5e6f8b5e4b57a047dca8767cc9b982a011081e086cbb0dfa9de818d54600860005290929190614bf290614bc2907f2d0e46a571fdfbe57c7c718891a8a12999c102dfffa2b3314ea165dedd1684f5612225565b600f60005260156020527f3bda72f6153f13a10a865b9a6397e1123f4aa6a1726e0e1349cd07eb0e24d815612225565b90611eb7565b8752805160156020527f8191f4eb6b8bafbfe9a5389c8d07d7f5fd81137a7ee653fc4358269845ee1d2e54600b600052614c5b9190614bf29061225c907fcaeae41dfed97dfd8c41876ff591faa3e36cda388621c550caa3321a2a624e5f612225565b905261515e565b509d94939096926101c087939701526101008201520152600014614ef157505061068c614ca991614ca16007548b519384918883019190602083019252565b61321f614a0b565b31878a01525b8651948580927f52b06d640000000000000000000000000000000000000000000000000000000082525afa9283156103d257600093614ed2575b50614d74614d3e614d22614d056001546001600160a01b031690565b88519182918783019190916001600160a01b036020820193169052565b0395614d36601f19978881018452836115e1565b6118a0614a44565b60056000526015602052614bf261228c7fbab719002e4be320868650dc7456e9a1d245e4d5dd64765588e2f21529d871d361448e565b94608088019586526004600b54600281101580614e95575b614e57575b101580614df6575b614db7575b50505050614da95750565b806000915161016085015252565b614de893614dd493614de092519485918201906004602083019252565b039081018452836115e1565b6118a0614a7d565b60c085015238808080614d9e565b5060156020527f5d0f48e37dc1225cdee8d6f2a0315d796f55423522fe638d7d95421802dfc00654600e600052614e51906122ec907f39f65be0de5254440eb2b93b160b1af3a4f45fe0571eaea7ef454b27b7f02d18612225565b15614d99565b614e8b8351614e7d81614e71898201906002602083019252565b038981018352826115e1565b614e85614a7d565b866166dc565b60a08b0152614d91565b5060066000526015602052614ecc6122bc7f25847c9ccf691da811a9f934d6b3b92e6062ef92feb71bf4cb08cbb4fad8d6526143b8565b15614d8c565b614eea919350823d84116103cb576103bc81836115e1565b9138614ce9565b8b8a01526101208b015250614caf565b8592919650614f1f614c6291843d86116103cb576103bc81836115e1565b96919250614b2a565b614f40919450823d84116103cb576103bc81836115e1565b9238614aff565b604051906040820182811067ffffffffffffffff82111761156b5760405260006020838281520152565b6040519060a0820182811067ffffffffffffffff82111761156b5760405281614f98614f47565b8152614fa2614f47565b6020820152614faf614f47565b6040820152614fbc614f47565b60608201526080614fcb614f47565b910152565b60405190614fdd8261158d565b601882527f6765744261746368526f79616c7479436c6175736573282900000000000000006020830152565b6102a09081818403126103e85782601f820112156103e857604080519361502f856115c5565b84938301928184116103e857935b83851061504c57505050505090565b6060858303126103e85782516060916150648261154f565b865182526020918288015183820152858801518682015281520194019361503d565b604051906150938261158d565b601f82527f676574526f79616c697479416d6f756e7442617463682875696e7432353629006020830152565b9060e0828203126103e85780601f830112156103e857604051916150e2836115c5565b829060e081019283116103e857905b8282106150fe5750505090565b81518152602091820191016150f1565b90600781101561138d5760051b0190565b8181029291600082127f8000000000000000000000000000000000000000000000000000000000000000821416611e6b578184051490151715611e6b57565b92906000946000946000946000946000946151fb6151ec61517d614f71565b94615187876155ff565b875190602082015252615199876156dc565b6020880151906020820152526151ae8761576f565b6040880151906020820152526151c387615811565b6060880151906020820152526151d88761588d565b608088015190602082015252614285614fd0565b60208082518301019101615009565b91600854600b54905b86811061525057505050505060208151015182119182918215809461523e575b939261522f57505091565b60800151602001511015929050565b50602060608201510151821115615224565b61528661527760405161526f81612e6686602083019190602083019252565b6140b5615086565b602080825183010191016150bf565b6001905b838211156154e357505082156152a9575b6152a490611ec4565b615204565b6152c86152c0826000526017602052604060002090565b54809c6127a6565b9a6152d38289611eb7565b90600091604089015189518b825181811080845193841093816154db575b816154b8575b50156153ea57505050602080835183518082106000146153e25750935b0151910151808211156153da5750905b808611156153d4575084905b61533981611e7e565b8c10156153c657508a5b8181116153b3575b50505b8083116153ab575b8261536091611eb7565b9180615395575b5081615375575b505061529b565b9a61538761538d926152a4949d61511f565b906127a6565b99903861536e565b9a615387829c6153a49361511f565b9938615367565b915081615356565b6153be929450611eb7565b91388061534b565b6153cf90611e7e565b615343565b90615330565b905090615324565b905093615314565b93919293615462575b5050615400575b5061534e565b8051808611156154595750602085915b0161541b8151611e7e565b8c101561544a57508a5b818111615433575b506153fa565b61544292949161444991611eb7565b91388061542d565b6154549051611e7e565b615425565b60209091615410565b808811156154af5750602087915b018d61547c8251611e7e565b11156154a057508c5b818111156153f357615498929650611eb7565b9338806153f3565b6154aa9051611e7e565b615485565b60209091615470565b905060208601511080156154ce575b15386152f7565b50816020850151106154c7565b8491506152f1565b909c6154f76154f18f611e99565b8861510e565b51511580156155a9575b61559f57875180518410159081615590575b508015615569575b1561554d57615541615547918f61553461553a91611e99565b8561510e565b5190611e8c565b9d611ec4565b9061528a565b9c9d6155638f9161553a61553461554794611e99565b9e611ec4565b50602088015180518410159081615581575b5061551b565b6020915001518311153861557b565b60209150015183111538615513565b9c61554790611ec4565b508d6155b7613e428261137b565b84101590816155c8575b5015615501565b6155f6915060406155ed6155e76155e1613e428561137b565b93611e99565b8b61510e565b51015190611e8c565b8311158e6155c1565b60c8600052601c6020527f922f6af691981b741eb02b3ed3453cc38ce623e8709ce524bd43bdbfc62af099805492919083156156d557600184166156bd57505060c8600052601c602052613e4261567f7f922f6af691981b741eb02b3ed3453cc38ce623e8709ce524bd43bdbfc62af09961567985611ea8565b906116d0565b905460c8600052601c60205260039190911b1c926156797f922f6af691981b741eb02b3ed3453cc38ce623e8709ce524bd43bdbfc62af09991611e99565b6156796156ca9294611e99565b90549060031b1c9190565b5091508190565b60026000908152601c6020527ff5b6e61a0c14f171ef1c86f003900ef0305e4159fff3317e4fb7c351f2050c8780549193929082156157675760018316615758575050613e429060028452601c602052615679604061574081872061567985611ea8565b90549060031b1c9560028152601c6020522091611e99565b9093506156796156ca92611e99565b509250508190565b60036000818152601c6020527fb0deb225ecd3a242ef7d55f0f81ae3b924e0b6f9da8bc33b306fb32ca5f287f7805491949390821561580857600183166157f05750506157e890828552601c60205261567960406157d281882061567985611ea8565b905490861b1c96858152601c6020522091611e99565b9054911b1c90565b9094506156796157ff92611e99565b9054911b1c9190565b50935050508190565b60056000908152601c6020527f0de3fcd0b495fcf96d4f4ab29f8e12012b60a56d458f4c95fdde42b927ce97a080549193929082156157675760018316615758575050613e429060058452601c602052615679604061587581872061567985611ea8565b90549060031b1c9560058152601c6020522091611e99565b60066000908152601c6020527fb2d730c3da277545f6c9f2c922ea3d0e9fcbd74e29d321b995a837ef61c283f080549193929082156157675760018316615758575050613e429060068452601c60205261567960406158f181872061567985611ea8565b90549060031b1c9560068152601c6020522091611e99565b600090816001815b600f82111561598a575050606560005260156020527f535b9e1ac68faf16e764f210b80ec6320ee232f7656b4f9a2d0a74437eceaaac548101809111611e6b5760686000526015602052917f7ee1f11581f85e8bd439e065fc0e6555ccc3142caeda52fdbb7bed5ad7a8306a548101809111611e6b5790565b9093848252602092601a8452604090818420548101809111611e6b57601b9094878552528220548101809111611e6b576159c49094611ec4565b90615911565b9190916159d5611f56565b928115615e205760018214615cfa5760028214615bcf5760038214615ae457615a2490615a00616218565b90600854615a0e8282611e8c565b831115615add57615a1f9250611e8c565b614ab6565b9060048114615a8e57600514615a375750565b9091506101a0615a45611cb6565b9160e08101518352610100810151602084015261012081015160408401526101408101516060840152610160810151608084015261018081015160a0840152015160c082015290565b5090915060c0615a9c611cb6565b91805183526020810151602084015260408101516040840152606081015160608401526080810151608084015260a081015160a0840152015160c082015290565b5050614ab6565b50509050615af0611cb6565b7fa31547ce6245cdb9ecea19cf8c7eb9f5974025bb4075011409251ae855b30aed5481527fce9b89faa7d00b5a0dcea74b754372f1c8c1e2788b44e0b6fc99899848f9baf7546020808301919091527f6b9301c903fb63b5bb3b4ed52f960f66e3a0c33bca0ea2f28cf6e34d2eb058dd5460408301527f535b9e1ac68faf16e764f210b80ec6320ee232f7656b4f9a2d0a74437eceaaac5460608301526068600090815260159091527f7ee1f11581f85e8bd439e065fc0e6555ccc3142caeda52fdbb7bed5ad7a8306a54608083015260a0820181905260c082015290565b50509050615bdb611cb6565b7f3bda72f6153f13a10a865b9a6397e1123f4aa6a1726e0e1349cd07eb0e24d8155481527f778c823f9b5f066b3c9d60b855427fd2999fcc25aebe3320977c1598596fffaf546020808301919091527fed5e5ecd5cb229fc7c2ed17e5e7cdfdc1d0a81991bd95ffdc4cdf25aca2d2ac35460408301527f2d1305887a553ebca964114eb55137666ae056a13c7d9c5dcf078bd3a9732a385460608301527fa5165e376b84f33a3c944a34b062595f1fb4afde844645ed23ed1e10c257ebe15460808301527fe06932cbfde2f2475d8c82e797702b1bf34af837520e34a39e7e7b5e28f71d5f5460a08301526015600081905290527ff38242ae41b6250df1acd58d7376889913b9221d9b2e1d2e50fb7d62671fa7335b5460c082015290565b50509050615d06611cb6565b7f2d0e46a571fdfbe57c7c718891a8a12999c102dfffa2b3314ea165dedd1684f55481527f497613c0658032a90a449a944031c57b1d03996c3a6148fe12146c45cf321400546020808301919091527f0cfcac9f3767130657d3b01a9146da544eeb39eb9670066ace5e84da7fc4319f5460408301527fcaeae41dfed97dfd8c41876ff591faa3e36cda388621c550caa3321a2a624e5f5460608301527f74c10a04815bbeaf3165dab0bd11b69aae73edf00a48b27ec8c53ac5b61d47fd5460808301527fe3e3bb3f660b5aca6f44f8cdafd6456c07cd53888341ab748ffc02d532ccc70e5460a0830152600e600052601590527f39f65be0de5254440eb2b93b160b1af3a4f45fe0571eaea7ef454b27b7f02d18615cf1565b50509050615e2c611cb6565b7f27739e4bb5e6f8b5e4b57a047dca8767cc9b982a011081e086cbb0dfa9de818d5481527f07d4ff730d9753101d832555708a37d38c2c45fce8cacaefc99f06074e93fe0b546020808301919091527fb3a65e8276bd33b3e4f7d6081ebd9899187264822358758dca2e2bc37b2a9c275460408301527f8191f4eb6b8bafbfe9a5389c8d07d7f5fd81137a7ee653fc4358269845ee1d2e5460608301527fbab719002e4be320868650dc7456e9a1d245e4d5dd64765588e2f21529d871d35460808301527f25847c9ccf691da811a9f934d6b3b92e6062ef92feb71bf4cb08cbb4fad8d6525460a08301526007600052601590527f5d0f48e37dc1225cdee8d6f2a0315d796f55423522fe638d7d95421802dfc006615cf1565b15615f4d57565b606460405162461bcd60e51b815260206004820152601960248201527f6f776e2e7361666567756172642e63616c6c2e6661696c6564000000000000006044820152fd5b908160209103126103e85751611618816107c1565b6001600160a01b03600054166040518091634bf9c0ad60e11b825281600460209384935afa9182156103d2576116189261602e91600091616049575b50604051615fef8161158d565b600881527f69735361666528290000000000000000000000000000000000000000000000008482015260405191616025836115a9565b600083526165a6565b91908061603f575b6106b990615f46565b5081518114616036565b6160609150833d85116103cb576103bc81836115e1565b38615fe2565b604051906160738261158d565b601582527f69735365637572654261736528616464726573732900000000000000000000006020830152565b156160a657565b606460405162461bcd60e51b815260206004820152601a60248201527f6f776e2e736563757265626173652e63616c6c2e6661696c65640000000000006044820152fd5b6000546001600160a01b0316604051918291634bf9c0ad60e11b835282600460209485935afa9283156103d257611618936161569261068c92600092616171575b5061614e906040519384918783019190916001600160a01b036020820193169052565b6106a2616066565b919080616167575b6106b99061609f565b508151811461615e565b61614e91925061618d90863d88116103cb576103bc81836115e1565b919061612b565b604051906161a18261158d565b601182527f69735369676e65722861646472657373290000000000000000000000000000006020830152565b156161d457565b606460405162461bcd60e51b815260206004820152601660248201527f6f776e2e7369676e65722e63616c6c2e6661696c6564000000000000000000006044820152fd5b600460206001600160a01b03600054166040519283809263111ea8c160e21b82525afa80156103d2576116189160009161629a575b5060405161625a8161158d565b600581527f6167652829000000000000000000000000000000000000000000000000000000602082015260405191616291836115a9565b600083526166dc565b6162b2915060203d81116103cb576103bc81836115e1565b3861624d565b604051906162c58261158d565b601882527f697364656c656761746f724e6f646528616464726573732900000000000000006020830152565b6001600160a01b0380911690811561633e57600154826001600160a01b0319821617600155167f8292fce18fa69edf4db7b94ea2e58241df0ae57f97e0a6c9b29067028bf92d76600080a3565b606460405162461bcd60e51b815260206004820152601160248201527f6f776e2e696e76616c69642e6f776e65720000000000000000000000000000006044820152fd5b3d156163ad573d9061639382611cc3565b916163a160405193846115e1565b82523d6000602084013e565b606090565b9080156116a6576001600160a01b03821691821561645857600080808481945af16163db616382565b5015616414576040519081527fcec1f18c3ab8ddaaa107a1591e3c369667eec613626611a8deaedef43069fcdd9080602081015b0390a2565b606460405162461bcd60e51b815260206004820152601360248201527f6f776e2e7472616e736665722e6661696c6564000000000000000000000000006044820152fd5b606460405162461bcd60e51b815260206004820152600e60248201527f6f776e2e696e76616c69642e746f0000000000000000000000000000000000006044820152fd5b6000600460206001600160a01b03835416604051928380926311be646b60e21b82525afa9081156103d257828481938293839161655d575b505af16164df616382565b50156165195760405190815233907fcdcc745fe377b103b45fa0cec23ae3ef93d6fc6a84a01f0d18c40b354dd1d5d890806020810161640f565b606460405162461bcd60e51b815260206004820152600f60248201527f6f776e2e6275726e2e6661696c656400000000000000000000000000000000006044820152fd5b616575915060203d81116103cb576103bc81836115e1565b386164d4565b9061658692916165a6565b9060009015616593575090565b60405191506165a1826115a9565b815290565b9190823b1561663e577fffffffff00000000000000000000000000000000000000000000000000000000815160208093012016916040519180830193845281519160005b83811061662a575050509181616617602482600097959688970187838201520360048101845201826115e1565b5191620dbba0fa616626616382565b9091565b8181018301518582016024015282016165ea565b505050600090604051616650816115a9565b6000815290565b9291616665916000946165a6565b9080616695575b6166735750565b6001600160a01b039192508060208061669193518301019101611603565b1690565b50602081511461666c565b92916166ae916000946165a6565b90806166d1575b6166bc5750565b61161891925060208082518301019101615f91565b5060208151146166b5565b92916166ea916000946165a6565b908061670f575b6166f85750565b9091506020818051810103126103e8576020015190565b5060208151146166f1565b90602082519201517fffffffff0000000000000000000000000000000000000000000000000000000090818116936004811061675557505050565b60040360031b82901b16169150565b6001600160a01b0381161561681557600080918351908260208601915af19061678b616382565b9115616795575090565b80516000919060041161680f576167ac915061671a565b8151156167bc5750805190602001fd5b6024907fffffffff00000000000000000000000000000000000000000000000000000000604051917f21c09d34000000000000000000000000000000000000000000000000000000008352166004820152fd5b506167ac565b606460405162461bcd60e51b815260206004820152601260248201527f6f776e2e696e76616c69642e74617267657400000000000000000000000000006044820152fd5b803b600061686682611cc3565b9261687460405194856115e1565b82845260208401903c602d81511061689057602a015160601c90565b606460405162461bcd60e51b815260206004820152601360248201527f4e6f742061206d696e696d616c2070726f7879000000000000000000000000006044820152fdfea2646970667358221220c4d506902c6041b694c13da6403485726057e8173e7468404be472ed4bac9b6764736f6c63430008140033","linkReferences":{}},"methodIdentifiers":{"instanceStor()":"131c73ad"},"id":68}