{"abi":[{"type":"function","name":"_741Rule","inputs":[],"outputs":[{"name":"","type":"address","internalType":"address"}],"stateMutability":"view"},{"type":"function","name":"_transferRequest","inputs":[],"outputs":[{"name":"","type":"address","internalType":"address"}],"stateMutability":"view"},{"type":"function","name":"deploy741Rule","inputs":[{"name":"_hex","type":"address","internalType":"address"}],"outputs":[],"stateMutability":"nonpayable"},{"type":"function","name":"deployTransferRequests","inputs":[{"name":"_hex","type":"address","internalType":"address"}],"outputs":[],"stateMutability":"nonpayable"}],"bytecode":{"object":"0x6080806040523461001657615f00908161001c8239f35b600080fdfe6080604081815260043610156200001557600080fd5b600091823560e01c908163039ba22c146200014d575080633af3e7d714620001245780637cd1c23214620000fa576394285988146200005357600080fd5b34620000f6576020366003190112620000f6576001600160a01b039060043582811690819003620000f2578151906120ea908183019183831067ffffffffffffffff841117620000de57918391602093620001d08439815203019084f0908115620000d55750166bffffffffffffffffffffffff60a01b600154161760015580f35b513d84823e3d90fd5b634e487b7160e01b87526041600452602487fd5b8380fd5b5080fd5b5034620000f65781600319360112620000f65760015490516001600160a01b039091168152602090f35b5034620000f65781600319360112620000f657905490516001600160a01b039091168152602090f35b91905034620001cb576020366003190112620001cb576001600160a01b039160043583811690819003620001c757613c11908183019183831067ffffffffffffffff841117620000de57918391602093620022ba8439815203019084f0908115620000d5575082546001600160a01b031916911617815580f35b8480fd5b8280fdfe60803461007857601f6120ea38819003918201601f19168301916001600160401b0383118484101761007d5780849260209460405283398101031261007857516001600160a01b038116908190036100785760018060a01b03198060015416600155600054161760005560405161205690816100948239f35b600080fd5b634e487b7160e01b600052604160045260246000fdfe60806040526004361015610018575b361561001657005b005b60003560e01c806312065fe0146101a857806313a52c8c146101a357806318c864e31461019e5780631f185d16146101995780633676bd1f14610194578063479fa2c31461018f5780634ef260a91461018a57806351bfd3ae1461018557806376e8217d146101805780638da5cb5b1461017b578063a1f7f53914610176578063ab7e46ae14610171578063ac2333451461016c578063af48452614610167578063b8f1759a14610162578063b90306ad1461015d578063c1e6cec214610158578063c54e44b014610153578063cab3cc8d1461014e578063cb84b34b14610149578063e01ad5fd14610144578063e0a9bc2b1461013f578063e846034a1461013a578063fdc10bc9146101355763ff585caf0361000e57610d8f565b610cfb565b610cdd565b610c46565b610bad565b610b75565b610b57565b610abe565b610a81565b6109e6565b61098b565b61095a565b610921565b6108c6565b6107f6565b6107cd565b610779565b610620565b610560565b6104cd565b6104b1565b6103eb565b61035c565b610263565b346101c45760003660031901126101c457602047604051908152f35b600080fd5b6001600160a01b038116036101c457565b634e487b7160e01b600052604160045260246000fd5b67ffffffffffffffff811161020457604052565b6101da565b6040810190811067ffffffffffffffff82111761020457604052565b6020810190811067ffffffffffffffff82111761020457604052565b90601f8019910116810190811067ffffffffffffffff82111761020457604052565b346101c45760403660031901126101c457600435610280816101c9565b67ffffffffffffffff6024358181116101c457366023820112156101c4578060040135918211610204578160051b90602091604051936102c36020830186610241565b845260246020850191830101913683116101c457602401905b8282106102ed576100168587610e0f565b83809183356102fb816101c9565b8152019101906102dc565b634e487b7160e01b600052603260045260246000fd5b600454811015610357576006906004600052027f8a35acfbc15ff81a39ae7d344fd709f28e8600b4aa8c65c6b64bfe7fe36bd19b0190600090565b610306565b346101c45760203660031901126101c4576004356004548110156101c4576103839061031c565b508054600182015460038301546004840154600590940154604080516001600160a01b03958616815294909316602085015260ff91821615159284019290925260608301939093528281161515608083015260081c909116151560a082015260c090f35b0390f35b346101c4576020806003193601126101c4576004803561040a816101c9565b600054604051634bf9c0ad60e11b81526001600160a01b03949093909182918591829088165afa9081156104ac576103e79461046b9460009361047d575b50604051931681840152825261045d82610209565b61046561124f565b90611d79565b60405190151581529081906020820190565b61049e919350823d84116104a5575b6104968183610241565b81019061115b565b9138610448565b503d61048c565b611173565b346101c45760203660031901126101c4576100166004356114cb565b346101c45760203660031901126101c457600435600019810190811161055b576104f69061031c565b508054600182015460058301546003840154600490940154604080516001600160a01b03958616815294909316602085015260ff80831615159385019390935260089190911c82161515606084015292161515608082015260a081019190915260c090f35b611073565b346101c45760203660031901126101c45760043561057d816101c9565b6001600160a01b0316600081815260036020526040812054909190600019810190811161055b576105af60059161031c565b500161010061ff00198254161790558082526003602052816040812055600554600160401b811015610204576001810180600555811015610357577f036b6384b5eca791c62761152d0c79bb0604c104a5fb6f4eb0703f3154bb3db00180546001600160a01b031916909117905580f35b346101c45760203660031901126101c4576004803561063e816101c9565b60005460209061065e906001600160a01b03165b6001600160a01b031690565b60405163ab6e844f60e01b815293849182905afa9182156104ac576103e7926106cc926106b092600092610754575b50604080516001600160a01b03909216602083015290926106be91849190820190565b03601f198101845283610241565b6106c661193c565b90611df8565b6001600160a01b038116159061070c6106f56106e661196b565b6106ee61123c565b9084611d79565b916106fe611992565b61070661123c565b91611d79565b8290811561072a575b50506040519115158252509081906020820190565b919250908261074c575b5081610744575b50388080610715565b90503861073b565b915038610734565b6106be9192506107729060203d6020116104a5576104968183610241565b919061068d565b346101c45760403660031901126101c457600435600019810190811161055b576107b46107a760209261031c565b50600260243591016108ae565b905460405160039290921b1c6001600160a01b03168152f35b346101c45760003660031901126101c4576001546040516001600160a01b039091168152602090f35b346101c45760003660031901126101c45760005460405163d1f956b160e01b815290602090829060049082906001600160a01b03165afa9081156104ac576103e79161087f9160009161088f575b5060405161085181610209565b601381527267657464656c656761746f72436f756e74282960681b602082015261087961123c565b91611dbc565b6040519081529081906020820190565b6108a8915060203d6020116104a5576104968183610241565b38610844565b80548210156103575760005260206000200190600090565b346101c45760203660031901126101c4576004356005548110156101c45760056000527f036b6384b5eca791c62761152d0c79bb0604c104a5fb6f4eb0703f3154bb3db001546040516001600160a01b039091168152602090f35b346101c45760203660031901126101c4576020610948600435610943816101c9565b6119b6565b6040516001600160a01b039091168152f35b346101c45760203660031901126101c457602061098160043561097c816101c9565b611a44565b6040519015158152f35b346101c45760203660031901126101c4576004356005548110156103575760056000527f036b6384b5eca791c62761152d0c79bb0604c104a5fb6f4eb0703f3154bb3db001546040516001600160a01b039091168152602090f35b346101c45760203660031901126101c45760008054604051630536340960e21b815260048035926001600160a01b0391602091849190829085165afa9081156104ac5784808086610a4582968396898592610a60575b50163314611ae9565b81808215610a57575bf1156104ac5780f35b506108fc610a4e565b610a7a91925060203d6020116104a5576104968183610241565b9089610a3c565b346101c45760203660031901126101c457600435610a9e816101c9565b60018060a01b031660005260036020526020604060002054604051908152f35b346101c45760203660031901126101c457600435610adb816101c9565b803b6000610ae882611220565b92610af66040519485610241565b82845260208401903c602d815110610b1c57602a015160405160609190911c8152602090f35b60405162461bcd60e51b81526020600482015260136024820152724e6f742061206d696e696d616c2070726f787960681b6044820152606490fd5b346101c45760003660031901126101c4576020600454604051908152f35b346101c45760203660031901126101c457600435600019810190811161055b576002610ba260209261031c565b500154604051908152f35b346101c4576020806003193601126101c45760048035610bcc816101c9565b60005460405163d1f956b160e01b81526001600160a01b03949093909182918591829088165afa9081156104ac576103e79461046b94600093610c27575b506040519316818401528252610c1f82610209565b610465611b27565b610c3f919350823d84116104a5576104968183610241565b9138610c0a565b346101c45760003660031901126101c457600054604051634bf9c0ad60e11b815290602090829060049082906001600160a01b03165afa9081156104ac576103e79161046b91600091610cbe575b50604051610ca181610209565b6008815267697353616665282960c01b602082015261070661123c565b610cd7915060203d6020116104a5576104968183610241565b38610c94565b346101c45760003660031901126101c4576020600554604051908152f35b346101c45760003660031901126101c45760005460405163111ea8c160e21b815290602090829060049082906001600160a01b03165afa9081156104ac576103e79161087f91600091610d70575b50604051610d5681610209565b6005815264616765282960d81b602082015261087961123c565b610d89915060203d6020116104a5576104968183610241565b38610d49565b346101c45760203660031901126101c457600054604051630536340960e21b8152906001600160a01b03906020908390600490829085165afa9081156104ac57610de392600092610dee5750163314611ae9565b610016600435611ba9565b610e0891925060203d6020116104a5576104968183610241565b9038610a3c565b6001600160a01b03811615610fa957336000908152600360205260409020610e38905415610fe3565b610e63610e43611024565b5080546001600160a01b0319166001600160a01b03909316929092178255565b6001810180546001600160a01b0319163317815591610e9c90610e8a600284019182611089565b6001546001600160a01b031690611120565b60045460046040519182610ec660209263ff585caf60e01b84840152602483019190602083019252565b03610ed9601f1991828101865285610241565b6000548290610ef0906001600160a01b0316610652565b604051630536340960e21b815294859182905afa9283156104ac57600494610f6394610f5693610f4593600092610f88575b5060405163d3a3084960e01b87820152939192610f5192859130602484016111a2565b03908101845283610241565b611cc2565b8051810182019101611211565b91015560045490546001600160a01b0316600090815260036020526040902055565b55565b610f519250610fa390873d89116104a5576104968183610241565b91610f22565b60405162461bcd60e51b815260206004820152601260248201527137bbb7173232b330bab63a1739b2b73232b960711b6044820152606490fd5b15610fea57565b60405162461bcd60e51b815260206004820152601260248201527170726f706f7365722e746f2e65786973747360701b6044820152606490fd5b600454600160401b811015610204576001810180600455811015610357576006906004600052027f8a35acfbc15ff81a39ae7d344fd709f28e8600b4aa8c65c6b64bfe7fe36bd19b0190600090565b634e487b7160e01b600052601160045260246000fd5b81519167ffffffffffffffff831161020457600160401b83116102045781548383558084106110f5575b506110c8602080920192600052602060002090565b9060005b8481106110da575050505050565b83516001600160a01b031683820155928101926001016110cc565b60008360005284602060002092830192015b8281106111155750506110b3565b818155600101611107565b8054600160401b8110156102045761113d916001820181556108ae565b60018060a09493941b038084549260031b9316831b921b1916179055565b908160209103126101c45751611170816101c9565b90565b6040513d6000823e3d90fd5b60005b8381106111925750506000910152565b8181015183820152602001611182565b929160809060079260a08652600d60a08701526c2ab9b2b9102a3930b739b332b960991b60c087015260018060a01b031660208601526000604086015260e0606086015280518060e087015261120281610100936020858a01910161117f565b601f8019910116850101930152565b908160209103126101c4575190565b67ffffffffffffffff811161020457601f01601f191660200190565b6040519061124982610225565b60008252565b6040519061125c82610209565b601182527069735369676e657228616464726573732960781b6020830152565b1561128357565b60405162461bcd60e51b815260206004820152601760248201527f7574696c6974792e756e7365637572652e6661696c65640000000000000000006044820152606490fd5b6040516112d481610225565b60008152906000368137565b604051906112ed82610209565b600f82526e6765744e6f646573436f756e74282960881b6020830152565b1561131257565b60405162461bcd60e51b81526020600482015260136024820152727574696c6974792e696d706f72742e646f6e6560681b6044820152606490fd5b9190820180921161055b57565b6040519061136782610209565b601782527f6765744e6f64654279496e6465782875696e74323536290000000000000000006020830152565b1561139a57565b60405162461bcd60e51b815260206004820152601660248201527570726f78792e696e76616c69642e696e7374616e636560501b6044820152606490fd5b604051906113e582610209565b6013825272496e7374546f5573657228616464726573732960681b6020830152565b1561140e57565b60405162461bcd60e51b815260206004820152601260248201527170726f78792e696e76616c69642e6e6f646560701b6044820152606490fd5b6040519061145582610209565b601082526f6765744e6f646528616464726573732960801b6020830152565b519081151582036101c457565b908160a09103126101c457805191602082015161149d816101c9565b9160408101519161117060806114b560608501611474565b9301611474565b600019811461055b5760010190565b6114dc6114d730611a44565b61127c565b6000546114f1906001600160a01b0316610652565b91604090815163111ea8c160e21b8152602081600481885afa80156104ac5761153491600091611907575b506115256112c8565b9061152e6112e0565b90611dbc565b93841561192657602060049184519283809263ab6e844f60e01b82525afa9081156104ac57611583916115719160009161190757506115256112c8565b809461157e82881161130b565b61134d565b8481111561190057508392935b6000906000926000925b878711806118f6575b156118ec57878311611669575b600054600491906020906115cc906001600160a01b0316610652565b885163ab6e844f60e01b815293849182905afa9081156104ac5761162e611634926116449460009161164a575b5089516350db85d160e01b60208201526001600160a01b03808a1660248301528a16604482015290610f5182606481016106b0565b506114bc565b9761163f8680611f01565b6114bc565b9661159a565b611663915060203d6020116104a5576104968183610241565b386115f9565b6000549194509250611683906001600160a01b0316610652565b9284519263111ea8c160e21b8452602084600481885afa9384156104ac576000946118cb575b50855160208082018a90528152601f19946116d291906116ca604083610241565b6106c661135a565b936116e76001600160a01b0386161515611393565b865163111ea8c160e21b81526020816004818a5afa80156104ac5761173c916000916118ac575b5088516001600160a01b0388166020820152604084810182529091906117349083610241565b6106c66113d8565b956117516001600160a01b0388161515611407565b875163111ea8c160e21b815295602087600481855afa9081156104ac576117a56117ce926117bf9260019a600092611887575b508c516001600160a01b039091166020820152916117b19083906040820190565b03878101845283610241565b6117b9611448565b90611e53565b60208082518301019101611481565b505050878060a09993991b0316966117e7811515611407565b14801561187e575b6117fb575b50506115b0565b602060049189979497519283809263111ea8c160e21b82525afa9283156104ac5760049361185393610f459360009261185b575b508a516001600160a01b039093166020840152919290916117349184906040820190565b9390386117f4565b61173492506118789060203d6020116104a5576104968183610241565b9161182f565b508515156117ef565b6117b19192506118a59060203d6020116104a5576104968183610241565b9190611784565b6118c5915060203d6020116104a5576104968183610241565b3861170e565b6118e591945060203d6020116104a5576104968183610241565b92386116a9565b5095505050505050565b50868310156115a3565b9293611590565b611920915060203d6020116104a5576104968183610241565b3861151c565b5092505050565b60001981019190821161055b57565b6040519061194982610209565b601382527255736572546f496e737428616464726573732960681b6020830152565b6040519061197882610209565b600b82526a697353757370656e64282960a81b6020830152565b6040519061199f82610209565b600882526769734c6f636b282960c01b6020830152565b60018060a01b0390818116600052600360205260406000205415611a1d576001600160a01b031660009081526003602052604090206119fe906119f9905461192d565b61031c565b5060ff60038201541680611a36575b80611a24575b15611a1d57541690565b5050600090565b5060ff600582015460081c1615611a13565b5060ff600582015416611a0d565b600054604051634bf9c0ad60e11b815291906020906001600160a01b039082908590600490829085165afa9081156104ac5761117094600092611aca575b50604051931682840152818352611a9883610209565b7469735365637572654261736528616464726573732960581b60405192611abe84610209565b60158452830152611d79565b611ae2919250833d85116104a5576104968183610241565b9038611a82565b15611af057565b60405162461bcd60e51b815260206004820152600f60248201526e6f776e2e6e6f6e617574682e44414f60881b6044820152606490fd5b60405190611b3482610209565b6011825270697364656c656761746f724e6f6465282960781b6020830152565b60405190611b6182610209565b6012825271676574526573756c742875696e743235362960701b6020830152565b908160a09103126101c4578051916020820151916040810151916080606083015192015190565b8015611c8f576119f9611bbb9161192d565b50600054611bd1906001600160a01b0316610652565b906040518092630536340960e21b825281600460209384935afa80156104ac57611c3d600592611c306106b0600394611c7098600091611c72575b50611c2860048901546040519384918783019190602083019252565b6117b9611b54565b8051810182019101611b82565b858801805460ff19166004831460ff161790559350611c5b92505050565b101591019060ff801983541691151516179055565b565b611c899150843d86116104a5576104968183610241565b38611c0c565b50565b3d15611cbd573d90611ca382611220565b91611cb16040519384610241565b82523d6000602084013e565b606090565b6001600160a01b03811615611d3f5781600092918360208194519301915af1611ce9611c92565b9015611cf25790565b805115611d0157805190602001fd5b60405162461bcd60e51b81526020600482015260166024820152751bdddb8b9d185c99d95d0b98d85b1b0b99985a5b195960521b6044820152606490fd5b60405162461bcd60e51b81526020600482015260126024820152711bdddb8b9a5b9d985b1a590b9d185c99d95d60721b6044820152606490fd5b9291611d8791600094611f7e565b9080611db1575b611d955750565b9091506020818051810103126101c45760206111709101611474565b506020815114611d8e565b9291611dca91600094611f7e565b9080611ded575b611dd85750565b61117091925060208082518301019101611211565b506020815114611dd1565b9291611e0691600094611f7e565b9080611e31575b611e145750565b9091506020818051810103126101c45760200151610652816101c9565b506020815114611e0d565b90611e4f6020928281519485920161117f565b0190565b919091803b15611eeb576000926020611ecd8594611e846040519463ffffffff60e01b9085815191012016946101f0565b611ebf6040519184830195865260048352611e9e83610209565b604051948593611eb68286019889925192839161117f565b84010190611e3c565b03601f198101835282610241565b51915afa611ed9611c92565b9015611ee25790565b5061117061123c565b505050604051611efa81610225565b6000815290565b60045490600160401b82101561020457611f26610e438360016005950160045561031c565b6001810180546001600160a01b0319166001600160a01b03851617905560038101600160ff1982541617905501600161ffff19825416179055610f856004549160018060a01b03166000526003602052604060002090565b919091803b1561200e576000928392611ffe60405192611fb08151916020928363ffffffff60e01b92012016946101f0565b60405181810194855260048152611fc681610209565b604051938491611fde8484019788925192839161117f565b8201611ff28251809386808501910161117f565b01038084520182610241565b51915afa61200a611c92565b9091565b505050600090604051611efa8161022556fea2646970667358221220a43a2e1b1e76f24ccc69d1529a12ff4fa83972e6ca35d76c8842088864916e2e64736f6c634300081800336080346200155c57601f62003c1138819003918201601f19168301916001600160401b0383118484101762001561578084926020946040528339810103126200155c57516001600160a01b038116908190036200155c5760018060a01b031980600154166001556000541617600055601e60255560026026556103e860275561025860285560036029556019602a5568878678326eac900000602b55670de0b6b3a7640000602c5568056bc75e2d63100000602d556001602e55610140602f5560a0603055600560315561025860c0620000d8620015f7565b6002815260646020820152600160408201526023606082015260646080820152600160a082015201526002600755606460085560016009556023600a556064600b556001600c55610258600d556200012f62001577565b6002815261025860c06103f29283602082015260016040820152600b6060820152600a6080820152600160a082015201526002600e5580600f556001601055600b601155600a601255600160135561025860145561025860c06200019262001577565b60028152836020820152600160408201526044606082015260646080820152600160a0820152015260026015556016556001601755604460185560646019556001601a55610258601b5560786040620001ea6200162c565b60198152600a602082015201526019601c55600a601d556078601e556040620002126200162c565b600a8152600160208201526101689182910152600a601f556001602055602155600160c062000240620015f7565b600481528260208201528260408201528260608201528260808201528260a0820152015260046022556501010101010165ffffffffffff1960235416176023556200028a62001597565b600781526019602080830191825260016000526003905290517fa15bc60c955c405d20d9149c709e2460f1c2d9a497496a7f46004d1772c3054c55517fa15bc60c955c405d20d9149c709e2460f1c2d9a497496a7f46004d1772c3054d55620002f262001597565b600781526064602080830191825260026000526003905290517fc3a24b0501bd2c13a7e57f2db4369ec4c223447539fc0724a9d55ac4a06ebd4d55517fc3a24b0501bd2c13a7e57f2db4369ec4c223447539fc0724a9d55ac4a06ebd4e556200035a62001597565b600781526101f4602080830191825260036000819052905290517fcbc4e5fb02c3d1de23a9f1e014b4d2ee5aeaea9505df5e855c9210bf472495af55517fcbc4e5fb02c3d1de23a9f1e014b4d2ee5aeaea9505df5e855c9210bf472495b055620003c362001597565b600781526107d0602080830191825260046000526003905290517f83ec6a1f0257b830b5e016457c9cf1435391bf56cc98f369a58a54fe9377246555517f83ec6a1f0257b830b5e016457c9cf1435391bf56cc98f369a58a54fe93772466556200042c62001597565b60078152611388602080830191825260056000526003905290517f405aad32e1adbac89bb7f176e338b8fc6e994ca210c9bb7bdca249b46594225055517f405aad32e1adbac89bb7f176e338b8fc6e994ca210c9bb7bdca249b465942251556200049562001597565b60078152612710602080830191825260066000526003905290517fc69056f16cbaa3c616b828e333ab7d3a32310765507f8f58359e99ebb7a885f355517fc69056f16cbaa3c616b828e333ab7d3a32310765507f8f58359e99ebb7a885f455620004fe62001597565b600781526001602082016161a8815260076000526003602052604060002092518355519101556200052e620015b7565b60008082526006602080840182815260016040860181815260056060880190815260808801838152929096529390925293517f3e5fec24aa4dc4e5aee2e025e51e1392c72a2500577559fae9665c6d52bd6a315592517f3e5fec24aa4dc4e5aee2e025e51e1392c72a2500577559fae9665c6d52bd6a3255517f3e5fec24aa4dc4e5aee2e025e51e1392c72a2500577559fae9665c6d52bd6a3355517f3e5fec24aa4dc4e5aee2e025e51e1392c72a2500577559fae9665c6d52bd6a3455517f3e5fec24aa4dc4e5aee2e025e51e1392c72a2500577559fae9665c6d52bd6a355562000619620015b7565b60018082526003602080840191825260408401838152600560608601908152608086019485526002600052600690925293517f8819ef417987f8ae7a81f42cdfb18815282fe989326fbff903d13cf0e03ace295590517f8819ef417987f8ae7a81f42cdfb18815282fe989326fbff903d13cf0e03ace2a5591517f8819ef417987f8ae7a81f42cdfb18815282fe989326fbff903d13cf0e03ace2b5590517f8819ef417987f8ae7a81f42cdfb18815282fe989326fbff903d13cf0e03ace2c55517f8819ef417987f8ae7a81f42cdfb18815282fe989326fbff903d13cf0e03ace2d5562000706620015b7565b60028152600f6020808301918252600a604084019081526005606085019081526001608086019081526003600052600690935293517f75f96ab15d697e93042dc45b5c896c4b27e89bb6eaf39475c5c371cb2513f7d25591517f75f96ab15d697e93042dc45b5c896c4b27e89bb6eaf39475c5c371cb2513f7d35590517f75f96ab15d697e93042dc45b5c896c4b27e89bb6eaf39475c5c371cb2513f7d45590517f75f96ab15d697e93042dc45b5c896c4b27e89bb6eaf39475c5c371cb2513f7d555517f75f96ab15d697e93042dc45b5c896c4b27e89bb6eaf39475c5c371cb2513f7d655620007f6620015b7565b60028152600f6020808301918252600a604084019081526005606085019081526001608086019081526004600052600690935293517fc5069e24aaadb2addc3e52e868fcf3f4f8acf5a87e24300992fd4540c2a87eed5591517fc5069e24aaadb2addc3e52e868fcf3f4f8acf5a87e24300992fd4540c2a87eee5590517fc5069e24aaadb2addc3e52e868fcf3f4f8acf5a87e24300992fd4540c2a87eef5590517fc5069e24aaadb2addc3e52e868fcf3f4f8acf5a87e24300992fd4540c2a87ef055517fc5069e24aaadb2addc3e52e868fcf3f4f8acf5a87e24300992fd4540c2a87ef155620008e6620015b7565b60028152600f6020808301918252600a60408401908152600560608501818152600160808701908152600092909252600690935293517fbfd358e93f18da3ed276c3afdbdba00b8f0b6008a03476a6a86bd6320ee6938b5591517fbfd358e93f18da3ed276c3afdbdba00b8f0b6008a03476a6a86bd6320ee6938c5590517fbfd358e93f18da3ed276c3afdbdba00b8f0b6008a03476a6a86bd6320ee6938d55517fbfd358e93f18da3ed276c3afdbdba00b8f0b6008a03476a6a86bd6320ee6938e55517fbfd358e93f18da3ed276c3afdbdba00b8f0b6008a03476a6a86bd6320ee6938f55620009d6620015b7565b60028152604b602080830191825260646040840181815260fa60608601908152608086019283526006600081905290935293517f697b2bd7bb2984c4e0dc14c79c987d37818484a62958b9c45a0e8b962f20650f5591517f697b2bd7bb2984c4e0dc14c79c987d37818484a62958b9c45a0e8b962f2065105591517f697b2bd7bb2984c4e0dc14c79c987d37818484a62958b9c45a0e8b962f2065115590517f697b2bd7bb2984c4e0dc14c79c987d37818484a62958b9c45a0e8b962f20651255517f697b2bd7bb2984c4e0dc14c79c987d37818484a62958b9c45a0e8b962f2065135562000ac4620015b7565b60028152604b602080830191825260646040840181815260fa60608601908152608086019283526007600052600690935293517f4ced6d0d36392b04cc5d8761b1327b3bbba6e1089c77f60a9a9ca18e05e4f00e5591517f4ced6d0d36392b04cc5d8761b1327b3bbba6e1089c77f60a9a9ca18e05e4f00f5591517f4ced6d0d36392b04cc5d8761b1327b3bbba6e1089c77f60a9a9ca18e05e4f0105590517f4ced6d0d36392b04cc5d8761b1327b3bbba6e1089c77f60a9a9ca18e05e4f01155517f4ced6d0d36392b04cc5d8761b1327b3bbba6e1089c77f60a9a9ca18e05e4f0125562000bb2620015b7565b60028152604b602080830191825260646040840181815260fa60608601908152608086019283526008600052600690935293517fb8d683c9d414f481826f3e7fe14b3ac6ae8c73450778287390c4bb8cb9f2e80b5591517fb8d683c9d414f481826f3e7fe14b3ac6ae8c73450778287390c4bb8cb9f2e80c5591517fb8d683c9d414f481826f3e7fe14b3ac6ae8c73450778287390c4bb8cb9f2e80d5590517fb8d683c9d414f481826f3e7fe14b3ac6ae8c73450778287390c4bb8cb9f2e80e55517fb8d683c9d414f481826f3e7fe14b3ac6ae8c73450778287390c4bb8cb9f2e80f5562000ca0620015b7565b60028152604b602080830191825260646040840181815260fa60608601908152608086019283526009600052600690935293517fca4d0c6c94a9477136dd41a99cc19ecbe441c8f6609efe7c6fa65be007a473235591517fca4d0c6c94a9477136dd41a99cc19ecbe441c8f6609efe7c6fa65be007a473245591517fca4d0c6c94a9477136dd41a99cc19ecbe441c8f6609efe7c6fa65be007a473255590517fca4d0c6c94a9477136dd41a99cc19ecbe441c8f6609efe7c6fa65be007a4732655517fca4d0c6c94a9477136dd41a99cc19ecbe441c8f6609efe7c6fa65be007a473275562000d8e620015b7565b60028152604b602080830191825260646040840181815260fa6060860190815260808601928352600a600052600690935293517f4da38fc8e544afc56a4c2a17752b8ddb67d8e23ac4583c9029d2e2d1dbe6c9885591517f4da38fc8e544afc56a4c2a17752b8ddb67d8e23ac4583c9029d2e2d1dbe6c9895591517f4da38fc8e544afc56a4c2a17752b8ddb67d8e23ac4583c9029d2e2d1dbe6c98a5590517f4da38fc8e544afc56a4c2a17752b8ddb67d8e23ac4583c9029d2e2d1dbe6c98b55517f4da38fc8e544afc56a4c2a17752b8ddb67d8e23ac4583c9029d2e2d1dbe6c98c5562000e7c620015b7565b60028152604b602080830191825260646040840181815260fa6060860190815260808601928352600b600052600690935293517f85291c2e7881182c13e19eca9b58927ebfdc2c5d04882018eeb33d8241d357115591517f85291c2e7881182c13e19eca9b58927ebfdc2c5d04882018eeb33d8241d357125591517f85291c2e7881182c13e19eca9b58927ebfdc2c5d04882018eeb33d8241d357135590517f85291c2e7881182c13e19eca9b58927ebfdc2c5d04882018eeb33d8241d3571455517f85291c2e7881182c13e19eca9b58927ebfdc2c5d04882018eeb33d8241d357155562000f6a620015b7565b60028152604b602080830191825260646040840181815260fa6060860190815260808601928352600c600052600690935293517f0b94fa1b86997cc1f1148bfbe25b674e8cefc7cc6f976aa8d7c7966bd4cca3475591517f0b94fa1b86997cc1f1148bfbe25b674e8cefc7cc6f976aa8d7c7966bd4cca3485591517f0b94fa1b86997cc1f1148bfbe25b674e8cefc7cc6f976aa8d7c7966bd4cca3495590517f0b94fa1b86997cc1f1148bfbe25b674e8cefc7cc6f976aa8d7c7966bd4cca34a55517f0b94fa1b86997cc1f1148bfbe25b674e8cefc7cc6f976aa8d7c7966bd4cca34b5562001058620015b7565b60028152604b602080830191825260646040840181815260fa6060860190815260808601928352600d600052600690935293517f248457bacb20e239ae314d8db91c0f270e453c28ee138c84f97aea6cfcf9a4995591517f248457bacb20e239ae314d8db91c0f270e453c28ee138c84f97aea6cfcf9a49a5591517f248457bacb20e239ae314d8db91c0f270e453c28ee138c84f97aea6cfcf9a49b5590517f248457bacb20e239ae314d8db91c0f270e453c28ee138c84f97aea6cfcf9a49c55517f248457bacb20e239ae314d8db91c0f270e453c28ee138c84f97aea6cfcf9a49d5562001146620015b7565b60028152604b602080830191825260646040840181815260fa6060860190815260808601928352600e600052600690935293517faca6cdb4b5fe0ec50731a73f714dd191dc1911bfeb3f9eeb9e94ed0f6065ef8d5591517faca6cdb4b5fe0ec50731a73f714dd191dc1911bfeb3f9eeb9e94ed0f6065ef8e5591517faca6cdb4b5fe0ec50731a73f714dd191dc1911bfeb3f9eeb9e94ed0f6065ef8f5590517faca6cdb4b5fe0ec50731a73f714dd191dc1911bfeb3f9eeb9e94ed0f6065ef9055517faca6cdb4b5fe0ec50731a73f714dd191dc1911bfeb3f9eeb9e94ed0f6065ef915562001234620015b7565b60028152604b602080830191825260646040840181815260fa6060860190815260808601928352600f600052600690935293517ff130046d53bc87538ab17e4752ba5f5082985eecc06ccb932c5a55e8242dd5025591517ff130046d53bc87538ab17e4752ba5f5082985eecc06ccb932c5a55e8242dd5035591517ff130046d53bc87538ab17e4752ba5f5082985eecc06ccb932c5a55e8242dd5045590517ff130046d53bc87538ab17e4752ba5f5082985eecc06ccb932c5a55e8242dd50555517ff130046d53bc87538ab17e4752ba5f5082985eecc06ccb932c5a55e8242dd50655620013b362001326620015d7565b60128152600a6020808301918252602d604084019081526003600052600490915291517f2e174c10e159ea99b867ce3205125c24a42d128804e4070ed6fcc8cc98166aa055517f2e174c10e159ea99b867ce3205125c24a42d128804e4070ed6fcc8cc98166aa155517f2e174c10e159ea99b867ce3205125c24a42d128804e4070ed6fcc8cc98166aa255565b6200144e620013c1620015d7565b60128152600a6020808301918252605a604084019081526005600052600490915291517f04cde762ef08b6b6c5ded8e8c4c0b3f4e5c9ad7342c88fcc93681b4588b73f0555517f04cde762ef08b6b6c5ded8e8c4c0b3f4e5c9ad7342c88fcc93681b4588b73f0655517f04cde762ef08b6b6c5ded8e8c4c0b3f4e5c9ad7342c88fcc93681b4588b73f0755565b620014ea6200145c620015d7565b60098152600a602080830191825261270f604084019081526007600052600490915291517fbeb3bad75134cb432e5707980e3245c52c5998a1125ee30f2f0dbf3925b1e55155517fbeb3bad75134cb432e5707980e3245c52c5998a1125ee30f2f0dbf3925b1e55255517fbeb3bad75134cb432e5707980e3245c52c5998a1125ee30f2f0dbf3925b1e55355565b60056020526802b5e3af16b18800007f89832631fb3c3307a103ba2c84ab569c64d6182a18893dcd163f0f1c2090733a556004600052683635c9adc5dea000007f3eec716f11ba9e820c81ca75eb978ffb45831ef8b7a53e5e422c26008e1ca6d5556040516125c590816200164c8239f35b600080fd5b634e487b7160e01b600052604160045260246000fd5b6040519060e082016001600160401b038111838210176200156157604052565b60408051919082016001600160401b038111838210176200156157604052565b6040519060a082016001600160401b038111838210176200156157604052565b60405190606082016001600160401b038111838210176200156157604052565b6200160162001577565b9060008083528060208401528060408401528060608401528060808401528060a084015260c0830152565b62001636620015d7565b9060008252600060208301526000604083015256fe60806040526004361015610018575b361561001657005b005b60003560e01c806307175c831461038857806309307c62146103835780630b225f1a1461037e5780630ea0d2221461037957806311df44db1461037457806312065fe01461036f57806314be92a51461036a57806315a544ed146103655780631605aed91461036057806316f0115b1461035b578063192b48ee146103565780631f185d161461035157806326c5adae1461034c578063298fc460146103475780633688236d146103425780633f43be121461033d5780634151331d1461033857806343c06bc4146103335780634b62954f1461032e57806351bfd3ae1461032957806353423e86146103245780635640dbfc1461031f578063592a02a81461031a5780635962205f146103155780635a0e9038146103105780636b81c82f1461030b5780636c7deb5d146103065780636f092c5e146103015780637687e371146102fc57806388ed3bb5146102f75780638da5cb5b146102f257806391fc8aa8146102ed578063991bf5cc146102e85780639ce7ce0f146102e3578063a1f7f539146102de578063a88fcea6146102d9578063a9df70b9146102d4578063ace71f48146102cf578063aebcd32a146102ca578063af0b21d3146102c5578063af484526146102c0578063b49c064c146102bb578063b5939a37146102b6578063b85f1f8d146102b1578063b90306ad146102ac578063c54e44b0146102a7578063c5a136d4146102a2578063e01ad5fd1461029d578063e0a9bc2b14610298578063e2a1f69a14610293578063eddd0d9c1461028e578063f2a6bbc714610289578063f4fe8e3c14610284578063fc0e74d11461027f5763fdc10bc90361000e57611b8c565b611b69565b611abe565b611a16565b61196e565b611916565b6118fb565b611862565b611773565b6116da565b611626565b6115f4565b6115d6565b6115b3565b611582565b611564565b61152f565b611487565b6113d9565b6113bb565b611313565b611255565b61115c565b61113e565b611115565b6110f7565b611032565b611006565b610f5e565b610e81565b610e31565b610dd9565b610d22565b610cb5565b610c97565b610b3e565b610a90565b6109e2565b610995565b610977565b610959565b610894565b6107c7565b610716565b61065d565b610605565b6105e7565b6105c9565b610521565b610505565b6104a9565b61048b565b61046d565b6103ab565b346103a65760003660031901126103a6576020602a54604051908152f35b600080fd5b346103a65760403660031901126103a6576103cc6103c7612333565b611c20565b6103d533612240565b80156103f0575b6103e590611d46565b610016602435602c55565b50600054604051630536340960e21b8152906001600160a01b03906020908390600490829085165afa908115610468576103e592600092610437575b5016331490506103dc565b61045a91925060203d602011610461575b6104528183611d00565b810190611d22565b903861042c565b503d610448565b611d3a565b346103a65760003660031901126103a6576020603154604051908152f35b346103a65760003660031901126103a6576020602854604051908152f35b346103a65760003660031901126103a657600e54600f54601054601154601254601354601454604080519788526020880196909652948601939093526060850191909152608084015260a083015260c082015260e090f35b0390f35b346103a65760003660031901126103a657602047604051908152f35b346103a65760203660031901126103a65761053d6103c7612333565b61054633612240565b8015610561575b61055690611d46565b610016600435602855565b50600054604051630536340960e21b8152906001600160a01b03906020908390600490829085165afa90811561046857610556926000926105a8575b50163314905061054d565b6105c291925060203d602011610461576104528183611d00565b903861059d565b346103a65760003660031901126103a6576020602d54604051908152f35b346103a65760003660031901126103a6576020602c54604051908152f35b346103a65760003660031901126103a657600754600854600954600a54600b54600c54600d54604080519788526020880196909652948601939093526060850191909152608084015260a083015260c082015260e090f35b346103a65760203660031901126103a6576106796103c7612333565b61068233612240565b801561069d575b61069290611d46565b610016600435611dd8565b50600054604051630536340960e21b8152906001600160a01b03906020908390600490829085165afa90811561046857610692926000926106e4575b501633149050610689565b6106fe91925060203d602011610461576104528183611d00565b90386106d9565b6001600160a01b038116036103a657565b346103a6576020806003193601126103a6576004803561073581610705565b600054604051634bf9c0ad60e11b81526001600160a01b03949093909182918591829088165afa9081156104685761050194610796946000936107a8575b50604051931681840152825261078882611cc8565b610790611e15565b906123de565b60405190151581529081906020820190565b6107c0919350823d8411610461576104528183611d00565b9138610773565b346103a65760203660031901126103a6576000546040516369e8d84b60e11b815290602090829060049082906001600160a01b03165afa80156104685761083761085b916105019360009161086b575b506040519061082582611ce4565b60008252610831611e42565b90612422565b6108566004359161085161084c602a54611d92565b611d92565b611e70565b611dc5565b6040519081529081906020820190565b610884915060203d602011610461576104528183611d00565b38610817565b801515036103a657565b346103a65760203660031901126103a6576004356108b18161088a565b6108bc6103c7612333565b6108c533612240565b80156108eb575b906108d961001692611d46565b60ff8019603254169115151617603255565b50600054604051630536340960e21b81526001600160a01b0392916020908290600490829087165afa801561046857610016936108d992600092610938575b5033911614919250506108cc565b61095291925060203d602011610461576104528183611d00565b903861092a565b346103a65760003660031901126103a6576020602754604051908152f35b346103a65760003660031901126103a6576020602e54604051908152f35b346103a65760203660031901126103a65760043560005260046020526040600020805461050160026001840154930154604051938493846040919493926060820195825260208201520152565b346103a65760603660031901126103a6576109fe6103c7612333565b610a0733612240565b8015610a28575b610a1790611d46565b610016604435602435600435611ecb565b50600054604051630536340960e21b8152906001600160a01b03906020908390600490829085165afa90811561046857610a1792600092610a6f575b501633149050610a0e565b610a8991925060203d602011610461576104528183611d00565b9038610a64565b346103a65760403660031901126103a657610aac6103c7612333565b610ab533612240565b8015610ad6575b610ac590611d46565b610016602435600435602655602755565b50600054604051630536340960e21b8152906001600160a01b03906020908390600490829085165afa90811561046857610ac592600092610b1d575b501633149050610abc565b610b3791925060203d602011610461576104528183611d00565b9038610b12565b346103a65760203660031901126103a65760048035610b5c81610705565b600054602090610b7c906001600160a01b03165b6001600160a01b031690565b60405163ab6e844f60e01b815293849182905afa9182156104685761050192610bea92610bce92600092610c72575b50604080516001600160a01b0390921660208301529092610bdc91849190820190565b03601f198101845283611d00565b610be4611f1a565b90612460565b6001600160a01b0381161590610c2a610c13610c04611f49565b610c0c611e02565b90846123de565b91610c1c611f70565b610c24611e02565b916123de565b82908115610c48575b50506040519115158252509081906020820190565b9192509082610c6a575b5081610c62575b50388080610c33565b905038610c59565b915038610c52565b610bdc919250610c909060203d602011610461576104528183611d00565b9190610bab565b346103a65760003660031901126103a6576020602954604051908152f35b346103a65760003660031901126103a65760e060225460235460ff9060405192835281811615156020840152818160081c1615156040840152818160101c1615156060840152818160181c1615156080840152818160201c16151560a084015260281c16151560c0820152f35b346103a65760c03660031901126103a657610d3e6103c7612333565b610d4733612240565b8015610d71575b610d5790611d46565b61001660a435608435606435604435602435600435611f94565b50600054604051630536340960e21b8152906001600160a01b03906020908390600490829085165afa90811561046857610d5792600092610db8575b501633149050610d4e565b610dd291925060203d602011610461576104528183611d00565b9038610dad565b346103a65760203660031901126103a657600435600052600660205260a06040600020805490600181015490600281015460046003830154920154926040519485526020850152604084015260608301526080820152f35b346103a65760003660031901126103a657601c54601d54601e5460408051938452602084019290925290820152606090f35b60809060031901126103a65760043590602435906044359060643590565b346103a657610e8f36610e63565b92610e9e6103c7939293612333565b610ea733612240565b8015610ef1575b90610eba600292611d46565b610ec5604051611c77565b60018114610ee0575b14610ed557005b601f55602055602155005b82601c5583601d5584601e55610ece565b50600054604051630536340960e21b81526001600160a01b0392916020908290600490829087165afa801561046857600293610eba92600092610f3d575b503391161491925050610eae565b610f5791925060203d602011610461576104528183611d00565b9038610f2f565b346103a65760203660031901126103a657610f7a6103c7612333565b610f8333612240565b8015610f9e575b610f9390611d46565b610016600435602955565b50600054604051630536340960e21b8152906001600160a01b03906020908390600490829085165afa90811561046857610f9392600092610fe5575b501633149050610f8a565b610fff91925060203d602011610461576104528183611d00565b9038610fda565b346103a65760203660031901126103a65760043560005260056020526020604060002054604051908152f35b346103a65760203660031901126103a65760043561104f8161088a565b61105a6103c7612333565b61106333612240565b8015611089575b9061107761001692611d46565b60ff8019602454169115151617602455565b50600054604051630536340960e21b81526001600160a01b0392916020908290600490829087165afa80156104685761001693611077926000926110d6575b50339116149192505061106a565b6110f091925060203d602011610461576104528183611d00565b90386110c8565b346103a65760003660031901126103a6576020602f54604051908152f35b346103a65760003660031901126103a6576001546040516001600160a01b039091168152602090f35b346103a65760003660031901126103a6576020602b54604051908152f35b346103a65760e03660031901126103a6576024356111798161088a565b6044356111858161088a565b6064356111918161088a565b60843561119d8161088a565b60a435916111aa8361088a565b60c435936111b78561088a565b6111c26103c7612333565b6111cb33612240565b80156111e7575b956111df61001697611d46565b600435612056565b50600054604051630536340960e21b81526001600160a01b039791602090829060049082908c165afa801561046857610016986111df92600092611234575b5033911614919750506111d2565b61124e91925060203d602011610461576104528183611d00565b9038611226565b346103a6576101003660031901126103a6576112726103c7612333565b61127b33612240565b80156112ab575b61128b90611d46565b61001660e43560c43560a43560843560643560443560243560043561214f565b50600054604051630536340960e21b8152906001600160a01b03906020908390600490829085165afa9081156104685761128b926000926112f2575b501633149050611282565b61130c91925060203d602011610461576104528183611d00565b90386112e7565b346103a65760003660031901126103a65760005460405163d1f956b160e01b815290602090829060049082906001600160a01b03165afa908115610468576105019161085b9160009161139c575b5060405161136e81611cc8565b601381527267657464656c656761746f72436f756e74282960681b6020820152611396611e02565b91612422565b6113b5915060203d602011610461576104528183611d00565b38611361565b346103a65760003660031901126103a6576020602654604051908152f35b346103a65760403660031901126103a6576113f56103c7612333565b6113fe33612240565b801561141f575b61140e90611d46565b610016602435600435602f55603055565b50600054604051630536340960e21b8152906001600160a01b03906020908390600490829085165afa9081156104685761140e92600092611466575b501633149050611405565b61148091925060203d602011610461576104528183611d00565b903861145b565b346103a65760203660031901126103a6576114a36103c7612333565b6114ac33612240565b80156114c7575b6114bc90611d46565b610016600435602e55565b50600054604051630536340960e21b8152906001600160a01b03906020908390600490829085165afa908115610468576114bc9260009261150e575b5016331490506114b3565b61152891925060203d602011610461576104528183611d00565b9038611503565b346103a65760203660031901126103a65760043560005260036020526040806000206001815491015482519182526020820152f35b346103a65760003660031901126103a6576020602554604051908152f35b346103a65760203660031901126103a65760206115a96004356115a481610705565b612240565b6040519015158152f35b346103a65760003660031901126103a657602060ff603254166040519015158152f35b346103a65760003660031901126103a6576020603054604051908152f35b346103a65760003660031901126103a657601f5460208054602154604080519485529284019190915290820152606090f35b346103a65760203660031901126103a657600054604051630536340960e21b8152906001600160a01b03906020908390600490829085165afa918215610468576000926116b9575b5033911603611682576100166004356122e5565b60405162461bcd60e51b815260206004820152600f60248201526e6f776e2e6e6f6e617574682e44414f60881b6044820152606490fd5b6116d391925060203d602011610461576104528183611d00565b903861166e565b346103a65760203660031901126103a6576004356116f781610705565b803b600061170482611de6565b926117126040519485611d00565b82845260208401903c602d81511061173857602a015160405160609190911c8152602090f35b60405162461bcd60e51b81526020600482015260136024820152724e6f742061206d696e696d616c2070726f787960681b6044820152606490fd5b346103a65761178136610e63565b906117906103c7949394612333565b61179933612240565b80156117f5575b926117ac600294611d46565b6117b860088210611e90565b604051946117c586611c77565b85526020850191825260408501928352600052600460205260406000209351845551600184015551910155600080f35b50600054604051630536340960e21b81526001600160a01b0394916020908290600490829089165afa8015610468576002956117ac92600092611841575b5033911614919450506117a0565b61185b91925060203d602011610461576104528183611d00565b9038611833565b346103a6576020806003193601126103a6576004803561188181610705565b60005460405163d1f956b160e01b81526001600160a01b03949093909182918591829088165afa9081156104685761050194610796946000936118dc575b5060405193168184015282526118d482611cc8565b610790612306565b6118f4919350823d8411610461576104528183611d00565b91386118bf565b346103a65760003660031901126103a65760206115a9612333565b346103a65760003660031901126103a657601554601654601754601854601954601a54601b54604080519788526020880196909652948601939093526060850191909152608084015260a083015260c082015260e090f35b346103a65760203660031901126103a65761198a6103c7612333565b61199333612240565b80156119ae575b6119a390611d46565b610016600435602a55565b50600054604051630536340960e21b8152906001600160a01b03906020908390600490829085165afa908115610468576119a3926000926119f5575b50163314905061199a565b611a0f91925060203d602011610461576104528183611d00565b90386119ea565b346103a65760203660031901126103a657611a326103c7612333565b611a3b33612240565b8015611a56575b611a4b90611d46565b610016600435603155565b50600054604051630536340960e21b8152906001600160a01b03906020908390600490829085165afa90811561046857611a4b92600092611a9d575b501633149050611a42565b611ab791925060203d602011610461576104528183611d00565b9038611a92565b346103a65760403660031901126103a657611ada6103c7612333565b611ae333612240565b8015611b01575b611af390611d46565b6100166024356004356123c2565b50600054604051630536340960e21b8152906001600160a01b03906020908390600490829085165afa90811561046857611af392600092611b48575b501633149050611aea565b611b6291925060203d602011610461576104528183611d00565b9038611b3d565b346103a65760003660031901126103a657602060ff602454166040519015158152f35b346103a65760003660031901126103a65760005460405163111ea8c160e21b815290602090829060049082906001600160a01b03165afa908115610468576105019161085b91600091611c01575b50604051611be781611cc8565b6005815264616765282960d81b6020820152611396611e02565b611c1a915060203d602011610461576104528183611d00565b38611bda565b15611c2757565b60405162461bcd60e51b81526020600482015260126024820152716f776e2e696e76616c69642e69735361666560701b6044820152606490fd5b634e487b7160e01b600052604160045260246000fd5b6060810190811067ffffffffffffffff821117611c9357604052565b611c61565b60e0810190811067ffffffffffffffff821117611c9357604052565b67ffffffffffffffff8111611c9357604052565b6040810190811067ffffffffffffffff821117611c9357604052565b6020810190811067ffffffffffffffff821117611c9357604052565b90601f8019910116810190811067ffffffffffffffff821117611c9357604052565b908160209103126103a65751611d3781610705565b90565b6040513d6000823e3d90fd5b15611d4d57565b60405162461bcd60e51b815260206004820152601b60248201527f6f776e2e6e6f6e617574682e44414f6f725365637572656261736500000000006044820152606490fd5b90670de0b6b3a764000091828102928184041490151715611daf57565b634e487b7160e01b600052601160045260246000fd5b81810292918115918404141715611daf57565b611de190611d92565b602b55565b67ffffffffffffffff8111611c9357601f01601f191660200190565b60405190611e0f82611ce4565b60008252565b60405190611e2282611cc8565b601182527069735369676e657228616464726573732960781b6020830152565b60405190611e4f82611cc8565b60128252716f7a6f6e655072696365496e55534454282960701b6020830152565b8115611e7a570490565b634e487b7160e01b600052601260045260246000fd5b15611e9757565b60405162461bcd60e51b815260206004820152600c60248201526b696e76616c69642072616e6b60a01b6044820152606490fd5b91611ed860088410611e90565b60405192604084019284841067ffffffffffffffff851117611c9357600193604052845260208401918252600052600360205260406000209251835551910155565b60405190611f2782611cc8565b601382527255736572546f496e737428616464726573732960681b6020830152565b60405190611f5682611cc8565b600b82526a697353757370656e64282960a81b6020830152565b60405190611f7d82611cc8565b600882526769734c6f636b282960c01b6020830152565b9192939490946010831015612021576040519460a086019486861067ffffffffffffffff871117611c935761201f97611ff096604052875260208701526040860152606085015260808401526000526006602052604060002090565b906080600491805184556020810151600185015560408101516002850155606081015160038501550151910155565b565b60405162461bcd60e51b815260206004820152600d60248201526c1a5b9d985b1a59081b195d995b609a1b6044820152606490fd5b61212e9461201f97946120c761210f956120f29460c09a966040519061207b82611c98565b8282521515928360208301521515948560408301521515958660608301521515978860808301521515998a60a083015215159b8c91015260225560ff8019602354169115151617602355565b6023805462ffff00191660089290921b61ff00169190911791151560101b62ff000016919091179055565b63ff00000060235491151560181b169063ff000000191617602355565b64ff0000000060235491151560201b169064ff00000000191617602355565b65ff000000000060235491151560281b169065ff0000000000191617602355565b9491926003969397949197604051986121678a611c98565b808a528160208b01528260408b01528360608b01528460808b01528560a08b01528660c08b01526001881461221f575b50505050505050600281146121e5575b146121af5750565b8051601555602081015160165560408101516017556060810151601855608081015160195560a0810151601a5560c00151601b55565b8251600e556020830151600f5560408301516010556060830151601155608083015160125560a083015160135560c08301516014556121a7565b600755600855600955600a55600b55600c55600d5538808080808080612197565b600054604051634bf9c0ad60e11b815291906020906001600160a01b039082908590600490829085165afa90811561046857611d37946000926122c6575b5060405193168284015281835261229483611cc8565b7469735365637572654261736528616464726573732960581b604051926122ba84611cc8565b601584528301526123de565b6122de919250833d8511610461576104528183611d00565b903861227e565b6000808080938181156122fd575b8290f11561046857565b506108fc6122f3565b6040519061231382611cc8565b6011825270697364656c656761746f724e6f6465282960781b6020830152565b600054604051634bf9c0ad60e11b815290602090829060049082906001600160a01b03165afa801561046857611d37916000916123a3575b5060405161237881611cc8565b6008815267697353616665282960c01b60208201526040519161239a83611ce4565b600083526123de565b6123bc915060203d602011610461576104528183611d00565b3861236b565b6123ce60088210611e90565b6000526005602052604060002055565b92916123ec916000946124cf565b9080612417575b6123fa5750565b9091506020818051810103126103a65760200151611d378161088a565b5060208151146123f3565b9291612430916000946124cf565b9080612455575b61243e5750565b9091506020818051810103126103a6576020015190565b506020815114612437565b929161246e916000946124cf565b9080612499575b61247c5750565b9091506020818051810103126103a65760200151610b7081610705565b506020815114612475565b9081519160005b8381106124bc575050016000815290565b80602080928401015181850152016124ab565b919091803b156125765760009261253261254085946125026040519463ffffffff60e01b90602081519101201694611cb4565b6040519360208501526004845261251884611cc8565b60405192839161252c6020840180976124a4565b906124a4565b03601f198101835282611d00565b51915afa3d15612570573d61255481611de6565b906125626040519283611d00565b81523d6000602083013e9091565b60609091565b50505060009060405161258881611ce4565b600081529056fea2646970667358221220bc602e397c4c4834c4c34fe8773697c0787ca3829aa9e85a7aee56ed357a080e64736f6c63430008180033a26469706673582212202364a53213d2b79301f4acf3e38136408c7a2a2f4a16a6cf28a0274ac6a4812364736f6c63430008180033","linkReferences":{}},"methodIdentifiers":{"_741Rule()":"3af3e7d7","_transferRequest()":"7cd1c232","deploy741Rule(address)":"039ba22c","deployTransferRequests(address)":"94285988"},"id":31}