{"abi":[{"type":"constructor","inputs":[{"name":"_hex","type":"address","internalType":"address"},{"name":"_price","type":"address","internalType":"address"},{"name":"_old741","type":"address","internalType":"address"}],"stateMutability":"nonpayable"},{"type":"function","name":"dAOAssembly","inputs":[],"outputs":[{"name":"","type":"address","internalType":"address"}],"stateMutability":"view"},{"type":"function","name":"daocore","inputs":[],"outputs":[{"name":"","type":"address","internalType":"address"}],"stateMutability":"view"},{"type":"function","name":"nested741","inputs":[],"outputs":[{"name":"","type":"address","internalType":"address"}],"stateMutability":"view"},{"type":"function","name":"old741","inputs":[],"outputs":[{"name":"","type":"address","internalType":"address"}],"stateMutability":"view"},{"type":"function","name":"price","inputs":[],"outputs":[{"name":"","type":"address","internalType":"address"}],"stateMutability":"view"}],"bytecode":{"object":"0x6080346101b757601f617ab438819003918201601f19168301926001600160401b03929091838511838610176101a15781606092849260409788528339810103126101b75761004d816101bc565b6100648461005d602085016101bc565b93016101bc565b9160018060a01b03199273c0cee8b561cc4f60869776ca5b0b7a295e04f5af846001541617600155855161121a9586820196828810828911176101a15761032c83396001600160a01b039485168088526000979092908190036020019088f0801561018357851686600354161760035587516148c4808201908282108483111761018d5760209183916131f0833985815203019088f08015610183578516866002541617600255875191611caa808401928484109084111761016f579183916020936115468439815203019086f080156101655790838092168560045416176004551683600154161760015516908254161790555161015b90816101d18239f35b86513d87823e3d90fd5b634e487b7160e01b89526041600452602489fd5b88513d89823e3d90fd5b634e487b7160e01b8a52604160045260248afd5b634e487b7160e01b600052604160045260246000fd5b600080fd5b51906001600160a01b03821682036101b75756fe608080604052600436101561001357600080fd5b600090813560e01c90816314837455146100fc5750806314d8d024146100d357806345cff900146100aa5780635540c5ac146100815763a035b1fe1461005857600080fd5b3461007e578060031936011261007e57546040516001600160a01b039091168152602090f35b80fd5b503461007e578060031936011261007e576001546040516001600160a01b039091168152602090f35b503461007e578060031936011261007e576002546040516001600160a01b039091168152602090f35b503461007e578060031936011261007e576004546040516001600160a01b039091168152602090f35b9050346101215781600319360112610121576003546001600160a01b03168152602090f35b5080fdfea264697066735822122010b9c6bf34bd192ec569848853c7c71543a84d6a52759ede41b818b6819ac1d964736f6c634300081400336080346100ca57601f61121a38819003918201601f19168301916001600160401b038311848410176100cf578084926020946040528339810103126100ca57516001600160a01b038116908190036100ca5780156100855760018060a01b0319338160015416176001556000541617600055600060045560405161113490816100e68239f35b60405162461bcd60e51b815260206004820152601360248201527f6f776e2e696e76616c69642e68657862617365000000000000000000000000006044820152606490fd5b600080fd5b634e487b7160e01b600052604160045260246000fdfe60806040526004361015610018575b361561001657005b005b60003560e01c806312065fe0146101085780631f185d161461010357806325924f34146100fe5780633b9b7955146100f957806361b7fbd9146100f45780638da5cb5b146100ef578063a1f7f539146100ea578063af484526146100e5578063b90306ad146100e0578063c54e44b0146100db578063c89b84fd146100d6578063dbac26e9146100d1578063e01ad5fd146100cc578063e0a9bc2b146100c75763fdc10bc90361000e57610988565b6108e6565b610847565b610805565b6106f2565b610659565b610552565b61047d565b6103c6565b61039d565b6102c7565b610294565b610263565b61013a565b3461012457600036600319011261012457602047604051908152f35b600080fd5b6001600160a01b0381160361012457565b34610124576020806003193601126101245760049081359061015b82610129565b600054819061017a906001600160a01b03165b6001600160a01b031690565b604051634bf9c0ad60e11b815294859182905afa91821561025e576101d161020b936101ed9261021d9660009261022b575b506040516001600160a01b0390911685820190815290926101df918491602090910190565b03601f1981018452836109fe565b6101e7610e02565b90610fa6565b919080610221575b6101fe90610e2f565b8082518301019101610d70565b60405190151581529081906020820190565b0390f35b50815181146101f5565b6101df91925061025090863d8811610257575b61024881836109fe565b810190610a20565b91906101ac565b503d61023e565b610a38565b3461012457602036600319011261012457602061028a60043561028581610129565b610b13565b6040519015158152f35b34610124576000366003190112610124576000546040516001600160a01b039091168152602090f35b8015150361012457565b34610124576040366003190112610124576004356102e481610129565b6024356102f0816102bd565b60018060a01b03600092600460208386541660405192838092630536340960e21b82525afa801561025e5761033091869161037f575b5083163314610cc2565b16825260036020526040822060ff1981541660ff8315151617905560001461036c5760045460001981146103675760010160045580f35b610c9e565b6004548015610367576000190160045580f35b610397915060203d81116102575761024881836109fe565b38610326565b34610124576000366003190112610124576001546040516001600160a01b039091168152602090f35b346101245760003660031901126101245760005460405163d1f956b160e01b815290602090829060049082906001600160a01b03165afa90811561025e5761021d9161044f9160009161045f575b50604051610421816109c1565b601381527267657464656c656761746f72436f756e74282960681b6020820152610449610a60565b916110c0565b6040519081529081906020820190565b610477915060203d81116102575761024881836109fe565b38610414565b34610124576020806003193601126101245760049081359061049e82610129565b60005481906104b5906001600160a01b031661016e565b604051634bf9c0ad60e11b815294859182905afa91821561025e576101d161020b936105149261021d9660009261052f575b506040516001600160a01b03909116858201908152909261050c918491602090910190565b6101e7610d85565b919080610525575b6101fe90610db6565b508151811461051c565b61050c91925061054b90863d88116102575761024881836109fe565b91906104e7565b34610124576020806003193601126101245760043560018060a01b0391600092808454169060405191630536340960e21b83528383600481845afa92831561025e5760049385936105ad92899261063a575b50163314610cc2565b6040516311be646b60e21b815292839182905afa91821561025e578480856105ec9582958395849261061d575b50505af16105e6610f38565b50610f68565b60405190815233907fcdcc745fe377b103b45fa0cec23ae3ef93d6fc6a84a01f0d18c40b354dd1d5d890602090a280f35b6106339250803d106102575761024881836109fe565b38806105da565b610652919250853d87116102575761024881836109fe565b90386105a4565b346101245760203660031901126101245760043561067681610129565b803b600061068382610a44565b9261069160405194856109fe565b82845260208401903c602d8151106106b757602a015160405160609190911c8152602090f35b60405162461bcd60e51b81526020600482015260136024820152724e6f742061206d696e696d616c2070726f787960681b6044820152606490fd5b3461012457600080600319360112610802578054610718906001600160a01b031661016e565b60405163cfbffe5360e01b815260209290918383600481845afa801561025e57610758859160049585916107e5575b50610750610a73565b610449610a60565b916040519485809263ab6e844f60e01b82525afa801561025e5761021d9461044f946107bd94926107c2575b506107af906101d1610794610e74565b94604051958693840160209093929193604081019481520152565b6107b7610c65565b906110c0565b610cb4565b8192506107de906107af923d85116102575761024881836109fe565b9190610784565b6107fc9150833d85116102575761024881836109fe565b38610747565b80fd5b346101245760203660031901126101245760043561082281610129565b60018060a01b03166000526003602052602060ff604060002054166040519015158152f35b3461012457602080600319360112610124576004803561086681610129565b60005460405163d1f956b160e01b81526001600160a01b03949093909182918591829088165afa90811561025e5761021d9461020b946000936108c7575b5060405193168184015282526108b9826109c1565b6108c1610eff565b90611084565b6108df919350823d84116102575761024881836109fe565b91386108a4565b3461012457600036600319011261012457600054604051634bf9c0ad60e11b8152906020908190839060049082906001600160a01b03165afa90811561025e5761095061020b9261021d9460009161096b575b50610942610d00565b61094a610a60565b91610fa6565b919080610961575b6101fe90610d24565b5081518114610958565b6109829150833d85116102575761024881836109fe565b38610939565b346101245760003660031901126101245760206109a3610e74565b604051908152f35b634e487b7160e01b600052604160045260246000fd5b6040810190811067ffffffffffffffff8211176109dd57604052565b6109ab565b6020810190811067ffffffffffffffff8211176109dd57604052565b90601f8019910116810190811067ffffffffffffffff8211176109dd57604052565b908160209103126101245751610a3581610129565b90565b6040513d6000823e3d90fd5b67ffffffffffffffff81116109dd57601f01601f191660200190565b60405190610a6d826109e2565b60008252565b60405190610a80826109c1565b600c82526b72616e6b666f7244414f282960a01b6020830152565b60405190610aa8826109c1565b601682527567657455736572546f53746f7228616464726573732960501b6020830152565b60405190610ada826109c1565b600682526572616e6b282960d01b6020830152565b60405190610afc826109c1565b600882526769734c6f636b282960c01b6020830152565b600054610b28906001600160a01b031661016e565b9060405163cfbffe5360e01b81526020908181600481875afa801561025e57610b5f83916004936000916107e55750610750610a73565b946040519283809263ab6e844f60e01b82525afa801561025e57610bb8928492600092610c42575b506040516001600160a01b03909316908301908152610baa9083906020016101d1565b610bb2610a9b565b90611040565b916001600160a01b03831615610c3a57610bfc610be5610bd6610acd565b610bde610a60565b90866110c0565b93610bee610aef565b610bf6610a60565b91611084565b9210159182610c31575b5081610c10575090565b6001600160a01b031660009081526003602052604090205460ff1615905090565b15915038610c06565b505050600090565b819250610c5e90610baa923d85116102575761024881836109fe565b9190610b87565b60405190610c72826109c1565b601d82527f67657472616e6b636f756e742875696e743235362c75696e74323536290000006020830152565b634e487b7160e01b600052601160045260246000fd5b906003820180921161036757565b15610cc957565b60405162461bcd60e51b815260206004820152600f60248201526e6f776e2e6e6f6e617574682e44414f60881b6044820152606490fd5b60405190610d0d826109c1565b6008825267697353616665282960c01b6020830152565b15610d2b57565b60405162461bcd60e51b815260206004820152601960248201527f6f776e2e7361666567756172642e63616c6c2e6661696c6564000000000000006044820152606490fd5b908160209103126101245751610a35816102bd565b60405190610d92826109c1565b601582527469735365637572654261736528616464726573732960581b6020830152565b15610dbd57565b60405162461bcd60e51b815260206004820152601a60248201527f6f776e2e736563757265626173652e63616c6c2e6661696c65640000000000006044820152606490fd5b60405190610e0f826109c1565b601182527069735369676e657228616464726573732960781b6020830152565b15610e3657565b60405162461bcd60e51b81526020600482015260166024820152751bdddb8b9cda59db995c8b98d85b1b0b99985a5b195960521b6044820152606490fd5b60005460405163111ea8c160e21b815290602090829060049082906001600160a01b03165afa801561025e57610a3591600091610ee1575b50604051610eb9816109c1565b6005815264616765282960d81b602082015260405191610ed8836109e2565b600083526110c0565b610ef9915060203d81116102575761024881836109fe565b38610eac565b60405190610f0c826109c1565b601882527f697364656c656761746f724e6f646528616464726573732900000000000000006020830152565b3d15610f63573d90610f4982610a44565b91610f5760405193846109fe565b82523d6000602084013e565b606090565b15610f6f57565b60405162461bcd60e51b815260206004820152600f60248201526e1bdddb8b989d5c9b8b99985a5b1959608a1b6044820152606490fd5b9190823b15611027578051906020918263ffffffff60e01b92012016916040519180830193845281519160005b838110611013575050509181611000602482600097959688970187838201520360048101845201826109fe565b5191620dbba0fa61100f610f38565b9091565b818101830151858201602401528201610fd3565b505050600090604051611039816109e2565b6000815290565b929161104e91600094610fa6565b9080611079575b61105c5750565b909150602081805181010312610124576020015161016e81610129565b506020815114611055565b929161109291600094610fa6565b90806110b5575b6110a05750565b610a3591925060208082518301019101610d70565b506020815114611099565b92916110ce91600094610fa6565b90806110f3575b6110dc5750565b909150602081805181010312610124576020015190565b5060208151146110d556fea264697066735822122050756a2820c283297632e47ac756de6dc1bd53b9aef862877f3349322df3de2a64736f6c634300081400336080346100cf57601f611caa38819003918201601f19168301916001600160401b038311848410176100d4578084926020946040528339810103126100cf57516001600160a01b038116908190036100cf57801561008a5760018060a01b031933816001541617600155600054161760005560006003556001600455604051611bbf90816100eb8239f35b60405162461bcd60e51b815260206004820152601360248201527f6f776e2e696e76616c69642e68657862617365000000000000000000000000006044820152606490fd5b600080fd5b634e487b7160e01b600052604160045260246000fdfe60806040526004361015610018575b361561001657005b005b60003560e01c8063013cf08b1461016857806312065fe0146101635780631f185d161461015e5780633595df1a146101595780633b9b795514610154578063438596321461014f57806365153c4b1461014a5780638da5cb5b1461014557806398e527d314610140578063995e43391461013b578063a1f7f53914610136578063af48452614610131578063b90306ad1461012c578063c54e44b014610127578063c7f758a814610122578063c9d27afe1461011d578063d153356b14610118578063d3a3084914610113578063e01ad5fd1461010e578063e0a9bc2b146101095763fdc10bc90361000e57610fae565b610f93565b610f6c565b610d1e565b610c4e565b610ada565b610a6b565b610994565b6108e1565b6107cd565b6107aa565b610726565b610708565b6106df565b6105e9565b61057b565b610552565b610515565b6104e4565b6104b7565b610403565b6005548110156101a857600b906005600052027f036b6384b5eca791c62761152d0c79bb0604c104a5fb6f4eb0703f3154bb3db00190600090565b634e487b7160e01b600052603260045260246000fd5b90600182811c921680156101ee575b60208310146101d857565b634e487b7160e01b600052602260045260246000fd5b91607f16916101cd565b9060009291805491610209836101be565b91828252600193848116908160001461026b575060011461022b575b50505050565b90919394506000526020928360002092846000945b838610610257575050505001019038808080610225565b805485870183015294019385908201610240565b9294505050602093945060ff191683830152151560051b01019038808080610225565b634e487b7160e01b600052604160045260246000fd5b6020810190811067ffffffffffffffff8211176102c057604052565b61028e565b6040810190811067ffffffffffffffff8211176102c057604052565b90601f8019910116810190811067ffffffffffffffff8211176102c057604052565b9061031e61031792604051938480926101f8565b03836102e1565b565b60005b8381106103335750506000910152565b8181015183820152602001610323565b9060209161035c81518092818552858086019101610320565b601f01601f1916010190565b9892956103bb959e9d9b956103fb99936101809c9661031e9f9a949960408e61039c6103f19d6101a0808452830190610343565b6001600160a01b03909516602082015201528c820360608e0152610343565b60808b019f909f5260a08a015260c089015260e088015261010087015215156101208601526001600160a01b0316610140850152565b1515610160830152565b019015159052565b346104b25760203660031901126104b2576004356005548110156104b25761042a9061016d565b506040519061043d8261031781846101f8565b600181015460028201546001600160a01b039182169390926104ae929061046660038201610303565b9560048201549160058101546006820154600783015491600a6008850154940154956040519b8c9b8c9760ff8a60b01c169b60ff808c60a81c169c8c60081c169b1699610368565b0390f35b600080fd5b346104b25760003660031901126104b257602047604051908152f35b6001600160a01b038116036104b257565b346104b25760203660031901126104b257602061050b600435610506816104d3565b611633565b6040519015158152f35b346104b25760203660031901126104b257600435600019810190811161054d57600561054260209261016d565b500154604051908152f35b6110e5565b346104b25760003660031901126104b2576000546040516001600160a01b039091168152602090f35b346104b25760403660031901126104b25760043560243561059b816104d3565b600019820191821161054d576105d360ff9160096105ba60209561016d565b50019060018060a01b0316600052602052604060002090565b54166040519015158152f35b801515036104b257565b346104b25760403660031901126104b257600435602435610609816105df565b61061233611633565b156106a55760001982019180831161054d576106a06106336100169461016d565b503360009081526009820160205260409020546106539060ff1615611240565b61068c600a8201549161066c60ff8460b01c16156111fc565b61067860ff841661117d565b60076106826116df565b91015411156112c1565b60081c6001600160a01b0316331415611280565b611312565b60405162461bcd60e51b815260206004820152601260248201527137bbb71734b73b30b634b21739b4b3b732b960711b6044820152606490fd5b346104b25760003660031901126104b2576001546040516001600160a01b039091168152602090f35b346104b25760003660031901126104b2576020600554604051908152f35b346104b25760203660031901126104b257600435600019810190811161054d5761074f9061016d565b506004810154600682015460078301546008840154600a9094015460408051948552602085019390935291830152606082019290925260ff60a883901c81161515608083015260b09290921c909116151560a082015260c090f35b346104b25760003660031901126104b25760206107c561184c565b604051908152f35b346104b2576020806003193601126104b2576004908135906107ee826104d3565b60005481906001600160a01b0316604051634bf9c0ad60e11b815294859182905afa9182156108dc5761085361088d9361086f926104ae966000926108a9575b506040516001600160a01b039091168582019081529092610861918491602090910190565b03601f1981018452836102e1565b610869611544565b906119dd565b91908061089f575b61088090611575565b8082518301019101611481565b60405190151581529081906020820190565b5081518114610877565b6108619192506108ce90863d88116108d5575b6108c681836102e1565b8101906113f5565b919061082e565b503d6108bc565b61140d565b346104b25760203660031901126104b257600054604051630536340960e21b8152906001600160a01b03906020908390600490829085165afa9182156108dc57600092610974575b503391160361093d5761001660043561190c565b60405162461bcd60e51b815260206004820152600f60248201526e6f776e2e6e6f6e617574682e44414f60881b6044820152606490fd5b61098d91925060203d81116108d5576108c681836102e1565b9038610929565b346104b25760203660031901126104b2576004356109b1816104d3565b803b60006109be82611419565b926109cc60405194856102e1565b82845260208401903c602d8151106109f257602a015160405160609190911c8152602090f35b60405162461bcd60e51b81526020600482015260136024820152724e6f742061206d696e696d616c2070726f787960681b6044820152606490fd5b93610a466080949796939260a0875260a0870190610343565b6001600160a01b03928316602087015260408601979097521660608401521515910152565b346104b25760203660031901126104b257600435600019810190811161054d57610a949061016d565b5060018060a01b036104ae81600184015416926103176002820154610ac4600a84015493604051938480926101f8565b60405195869560ff85169460081c169286610a2d565b346104b25760403660031901126104b257600435602435610afa816105df565b610b0333611633565b8015610c2b575b610b1390611129565b610c00610bf3610b2a610b258561116e565b61016d565b50600a81015490610b3d60ff831661117d565b610b546007820154610b4d6116df565b11156111bd565b610b6460ff8360b01c16156111fc565b610ba1600982019261068c610b9c610b98610b9133889060018060a01b0316600052602052604060002090565b5460ff1690565b1590565b611240565b60008515610c26575060015b610bbf60ff600484019216825461111c565b9055600085610c185750610bde60ff60066001935b019216825461111c565b90553360009081526020919091526040902090565b805460ff19166001179055565b610c0933611633565b610c0f57005b61001691611312565b60ff6006610bde9293610bd4565b610bad565b50610c34611496565b8015610b0a5750610b13610c473361176a565b9050610b0a565b346104b25760403660031901126104b257610c67611496565b15610cb657333003610c8157600480356003556024359055005b60405162461bcd60e51b815260206004820152600d60248201526c64616f2e66616b652e636f726560981b6044820152606490fd5b60405162461bcd60e51b81526020600482015260126024820152716f776e2e696e76616c69642e69735361666560701b6044820152606490fd5b9181601f840112156104b25782359167ffffffffffffffff83116104b257602083818601950101116104b257565b346104b25760a03660031901126104b25767ffffffffffffffff6004358181116104b257610d50903690600401610cf0565b602435610d5c816104d3565b6064358481116104b257610d74903690600401610cf0565b9390926001600160a01b03831615610f325760055491680100000000000000008310156102c057610dac60019384810160055561016d565b509682116102c057610dc882610dc289546101be565b89610fc9565b600090601f8311600114610eb85793600a969383610e9f999794610e2794610e3898600092610ead575b5050600019600383901b1c191690821b1787555b860180546001600160a01b0319166001600160a01b03909216919091179055565b60443560028501556003840161101d565b610e5e610e57610e52610e4961184c565b600354906110fb565b61110e565b6064900490565b6008820155610e76608435610e716116df565b61111c565b6007820155018054610100600160a81b0319163360081b610100600160a81b0316178155610bf3565b600554604051908152602090f35b013590503880610df2565b601f19831691610ecd89600052602060002090565b92815b818110610f1c57509484610e2794610e3898948394610e9f9d9b98600a9d9a10610f02575b505050811b018755610e06565b0135600019600384901b60f8161c19169055388080610ef5565b8383013585559386019360209283019201610ed0565b60405162461bcd60e51b815260206004820152601260248201527137bbb7173232b330bab63a1739b2b73232b960711b6044820152606490fd5b346104b25760203660031901126104b257602061050b600435610f8e816104d3565b61176a565b346104b25760003660031901126104b257602061050b611496565b346104b25760003660031901126104b25760206107c56116df565b90601f8111610fd757505050565b600091825260208220906020601f850160051c83019410611013575b601f0160051c01915b82811061100857505050565b818155600101610ffc565b9092508290610ff3565b90929167ffffffffffffffff81116102c0576110438161103d84546101be565b84610fc9565b6000601f821160011461107d5781929394600092611072575b50508160011b916000199060031b1c1916179055565b01359050388061105c565b601f1982169461109284600052602060002090565b91805b8781106110cd5750836001959697106110b3575b505050811b019055565b0135600019600384901b60f8161c191690553880806110a9565b90926020600181928686013581550194019101611095565b634e487b7160e01b600052601160045260246000fd5b8181029291811591840414171561054d57565b906063820180921161054d57565b9190820180921161054d57565b1561113057565b60405162461bcd60e51b815260206004820152601660248201527564616f2e6e6f6e617574682e64656c656761746f727360501b6044820152606490fd5b60001981019190821161054d57565b1561118457565b60405162461bcd60e51b815260206004820152601160248201527019185bcb9c1c9bdc0b9b9bdd195e1a5cdd607a1b6044820152606490fd5b156111c457565b60405162461bcd60e51b815260206004820152601060248201526f19185bcb9d9bdd1a5b99cb995b99195960821b6044820152606490fd5b1561120357565b60405162461bcd60e51b815260206004820152601560248201527419185bcb985b1c9958591e4b98dbdb5c1b195d1959605a1b6044820152606490fd5b1561124757565b60405162461bcd60e51b815260206004820152601160248201527019185bcb985b1c9958591e4b9d9bdd1959607a1b6044820152606490fd5b1561128757565b60405162461bcd60e51b815260206004820152601260248201527119185bcb9d9bdd195c8b9c995cdd1c9a58dd60721b6044820152606490fd5b156112c857565b60405162461bcd60e51b815260206004820152601360248201527264616f2e6265666f72652e646561646c696e6560681b6044820152606490fd5b600019811461054d5760010190565b610b2561131e9161116e565b506005810161132d8154611303565b8091556004541480156113ed575b611343575050565b600a8101805460ff60b01b1916600160b01b1781556113ad9261138891816113da575b816113b057805460ff60a81b191691151560a81b60ff60a81b16919091179055565b60018101546001600160a01b03166113a7600360028401549301610303565b90611aca565b50565b60048401546006850154109150805460ff60a81b191691151560a81b60ff60a81b16919091179055565b6004840154600885015411159150611366565b50811561133b565b908160209103126104b2575161140a816104d3565b90565b6040513d6000823e3d90fd5b67ffffffffffffffff81116102c057601f01601f191660200190565b1561143c57565b60405162461bcd60e51b815260206004820152601960248201527f6f776e2e7361666567756172642e63616c6c2e6661696c6564000000000000006044820152606490fd5b908160209103126104b2575161140a816105df565b600054604051634bf9c0ad60e11b8152906020908190839060049082906001600160a01b03165afa9182156108dc5761140a9261150c91600091611527575b506040516114e2816102c5565b6008815267697353616665282960c01b8482015260405191611503836102a4565b600083526119dd565b91908061151d575b61088090611435565b5081518114611514565b61153e9150833d85116108d5576108c681836102e1565b386114d5565b60405190611551826102c5565b601582527469735365637572654261736528616464726573732960581b6020830152565b1561157c57565b60405162461bcd60e51b815260206004820152601a60248201527f6f776e2e736563757265626173652e63616c6c2e6661696c65640000000000006044820152606490fd5b604051906115ce826102c5565b601182527069735369676e657228616464726573732960781b6020830152565b156115f557565b60405162461bcd60e51b81526020600482015260166024820152751bdddb8b9cda59db995c8b98d85b1b0b99985a5b195960521b6044820152606490fd5b6000546001600160a01b0316604051918291634bf9c0ad60e11b835282600460209485935afa9283156108dc5761140a936116a192610853926000926116bc575b506040516001600160a01b039091168582019081529092611699918491602090910190565b6108696115c1565b9190806116b2575b610880906115ee565b50815181146116a9565b6116999192506116d890863d88116108d5576108c681836102e1565b9190611674565b60005460405163111ea8c160e21b815290602090829060049082906001600160a01b03165afa80156108dc5761140a9160009161174c575b50604051611724816102c5565b6005815264616765282960d81b602082015260405191611743836102a4565b60008352611a5b565b611764915060203d81116108d5576108c681836102e1565b38611717565b60005460405163d1f956b160e01b8152916020916001600160a01b039083908590600490829085165afa9384156108dc57600094611827575b506040519116828201528181526117fa906117bd816102c5565b6040516117c9816102c5565b601881527f697364656c656761746f724e6f64652861646472657373290000000000000000848201526000946119dd565b91908061181d575b61180b57505090565b61140a92508082518301019101611481565b5080825114611802565b6117fa9291945061184490843d86116108d5576108c681836102e1565b9390916117a3565b60005460405163d1f956b160e01b815290602090829060049082906001600160a01b03165afa80156108dc5761140a916000916118be575b50604051611891816102c5565b601381527267657464656c656761746f72436f756e74282960681b602082015260405191611743836102a4565b6118d6915060203d81116108d5576108c681836102e1565b38611884565b3d15611907573d906118ed82611419565b916118fb60405193846102e1565b82523d6000602084013e565b606090565b600080546040516311be646b60e21b815290602090829060049082906001600160a01b03165afa9081156108dc5782848193829383916119bf575b505af16119526118dc565b50156119885760405190815233907fcdcc745fe377b103b45fa0cec23ae3ef93d6fc6a84a01f0d18c40b354dd1d5d890602090a2565b60405162461bcd60e51b815260206004820152600f60248201526e1bdddb8b989d5c9b8b99985a5b1959608a1b6044820152606490fd5b6119d7915060203d81116108d5576108c681836102e1565b38611947565b803b15611a4257600092839263ffffffff60e01b90602081519101201690611a2f6024604051809360208201958652611a1f8151809260208686019101610320565b81010360048101845201826102e1565b5191620dbba0fa611a3e6118dc565b9091565b505050600090604051611a54816102a4565b6000815290565b9291611a69916000946119dd565b9080611a8e575b611a775750565b9091506020818051810103126104b2576020015190565b506020815114611a70565b906020825192015163ffffffff60e01b908181169360048110611abb57505050565b60040360031b82901b16169150565b9091906001600160a01b03811615611b4f57600091829184519160208601915af190611af46118dc565b9115611afe575090565b805160009190600411611b4957611b159150611a99565b815115611b255750805190602001fd5b604051630870274d60e21b81526001600160e01b0319919091166004820152602490fd5b50611b15565b60405162461bcd60e51b81526020600482015260126024820152711bdddb8b9a5b9d985b1a590b9d185c99d95d60721b6044820152606490fdfea264697066735822122049c3fdfe4ac8f46cf3e7e20f92bac465391e4491282a86c13792387ce14b70cc64736f6c63430008140033608034620000d157601f620048c438819003918201601f19168301916001600160401b03831184841017620000d657808492602094604052833981010312620000d157516001600160a01b03811690819003620000d15780156200008c5760018060a01b031933816001541617600155600054161760005560016003556040516147d79081620000ed8239f35b60405162461bcd60e51b815260206004820152601360248201527f6f776e2e696e76616c69642e68657862617365000000000000000000000000006044820152606490fd5b600080fd5b634e487b7160e01b600052604160045260246000fdfe60806040526004361015610018575b361561001657005b005b60003560e01c8063033eeffb146103085780630e5fd00b1461030357806312065fe0146102fe5780631bb49f02146102f95780631c53c280146102f45780631f185d16146102ef5780632a687c87146102ea5780632fefc0bf146102e557806332ff4eab146102e05780633a7b55b8146102db5780633b9b7955146102d65780633baee0ea146102d1578063419cb27b146102cc57806342cc9d57146102c757806344585097146102c2578063477968f2146102bd5780634f0f4aa9146102b8578063509222cd146102b357806350db85d1146102ae57806361ea7208146102a9578063629d671e146102a45780636a8112441461029f5780636a9dd2741461029a57806376fe6c451461029557806380f85e3314610290578063849c22ad1461028b578063896c354a146102865780638da5cb5b1461028157806395f72f491461027c57806398b3f21514610277578063a1f7f53914610272578063a87af7691461026d578063a89d693b14610268578063af48452614610263578063b1c490791461025e578063b366335e14610259578063b90306ad14610254578063c54e44b01461024f578063c871372b1461024a578063d1e0bbc614610245578063dcb3fc4a14610240578063e01ad5fd1461023b578063e0a9bc2b14610236578063eb95c66214610231578063f3ca71241461022c578063fd38093b146102275763fdc10bc90361000e5761233e565b6122ce565b6122a2565b612276565b61225b565b6121bc565b611fec565b611fb2565b611f2a565b611e91565b611dde565b611d2b565b611c0a565b611be3565b611ac4565b6119cf565b61190e565b6118e2565b611838565b61180f565b6117cf565b6117a0565b611766565b611717565b611690565b61115f565b611122565b611104565b611041565b610fee565b610f04565b610e5b565b610e24565b610df5565b610dbb565b610928565b6108d7565b61073e565b610659565b610622565b610573565b61044e565b61041a565b6103b5565b610399565b61034a565b3461033457602036600319011261033457600435600052600b6020526020604060002054604051908152f35b600080fd5b6001600160a01b0381160361033457565b3461033457602036600319011261033457602060043561036981610339565b60018060a01b03809116600052600482526040600020546000526007825260046040600020015416604051908152f35b3461033457600036600319011261033457602047604051908152f35b34610334576020366003190112610334576004356103d281610339565b6001600160a01b0390811660009081526004602090815260408083205483526007825280832060020154808452600583529281902054815193845290931690820152f35b0390f35b34610334576020366003190112610334576004356000526005602052602060018060a01b0360406000205416604051908152f35b34610334576020806003193601126103345760049081359061046f82610339565b600054819061048e906001600160a01b03165b6001600160a01b031690565b604051634bf9c0ad60e11b815294859182905afa91821561056e576104e561051f93610501926104169660009261053b575b506040516001600160a01b0390911685820190815290926104f3918491602090910190565b03601f198101845283611656565b6104fb6142fb565b9061455d565b919080610531575b61051290614328565b808251830101910161410f565b60405190151581529081906020820190565b5081518114610509565b6104f391925061056090863d8811610567575b6105588183611656565b81019061256a565b91906104c0565b503d61054e565b61257f565b346103345760403660031901126103345761059461058f614124565b612529565b61059d3361424f565b80156105bb575b6105ad9061258b565b610016602435600435613e08565b50600054604051630536340960e21b8152906001600160a01b03906020908390600490829085165afa90811561056e576105ad92600092610602575b5016331490506105a4565b61061b91925060203d8111610567576105588183611656565b90386105f7565b34610334576020366003190112610334576004356000526007602052602060018060a01b0360056040600020015416604051908152f35b346103345760403660031901126103345761067561058f614124565b61067e3361424f565b801561069c575b61068e9061258b565b610016602435600435613e5c565b50600054604051630536340960e21b8152906001600160a01b03906020908390600490829085165afa90811561056e5761068e926000926106e3575b501633149050610685565b6106fc91925060203d8111610567576105588183611656565b90386106d8565b6020908160408183019282815285518094520193019160005b82811061072a575050505090565b83518552938101939281019260010161071c565b34610334576020366003190112610334576104166004356108c06108b060405192610768846115e5565b6007845260e036602086013761079b61078b826000526009602052604060002090565b6001600052602052604060002090565b546107a585613cd5565b526107cd6107bd826000526009602052604060002090565b6002600052602052604060002090565b546107d785613ce2565b526107ff6107ef826000526009602052604060002090565b6003600052602052604060002090565b5461080985613cf2565b52610831610821826000526009602052604060002090565b6004600052602052604060002090565b5461083b85613d02565b52610863610853826000526009602052604060002090565b6005600052602052604060002090565b5461086d85613d12565b52610895610885826000526009602052604060002090565b6006600052602052604060002090565b5461089f85613d22565b526000526009602052604060002090565b6007600052602052604060002090565b546108ca82613d32565b5260405191829182610703565b34610334576000366003190112610334576000546040516001600160a01b039091168152602090f35b60409060031901126103345760043561091881610339565b9060243561092581610339565b90565b346103345761098761093936610900565b610941612506565b61095a61094c612390565b6109546123a8565b336145f7565b916109a8610971610969612390565b6109546123cb565b6001600160a01b039584871695871686146123f3565b60005486906109a09082166001600160a01b0316610482565b91161461243f565b6109b3831515612d9e565b6001600160a01b038216600090815260046020526040902054158015610db0575b6109dd90612de0565b6001600160a01b0381166000908152600460205260409020610a0190541515612e23565b610a446005610a36610a258460018060a01b03166000526004602052604060002090565b546000526007602052604060002090565b01546001600160a01b031690565b6040805163880cdc3160e01b6020808301919091526001600160a01b03861660248084019190915282529196919592601f1991610a8b91610a86604483611656565b6146e6565b50610ab36104826004610a36610a258860018060a01b03166000526004602052604060002090565b15610c7857610bd095610b1091610a86610ae76004610a36610a258a60018060a01b03166000526004602052604060002090565b8a5162e6724f60e21b948101949094523360248501529183604481015b03908101845283611656565b505b6001600160a01b0383811660009081526004602090815260408083205493881683528083208490559282526005905220610b689085905b80546001600160a01b0319166001600160a01b03909216919091179055565b610bad336004610b8d610a258860018060a01b03166000526004602052604060002090565b0180546001600160a01b0319166001600160a01b03909216919091179055565b821603610c5a575b506001600160a01b0316600090815260046020526040902090565b54610416610bed6005610a36846000526007602052604060002090565b92610c29610c1c6002610c0a866000526007602052604060002090565b01546000526005602052604060002090565b546001600160a01b031690565b90610c346001600355565b519283526001600160a01b03938416602084015290921660408201529081906060820190565b6001600160a01b031660009081526004602052604081205538610bb5565b600054600496908190610c93906001600160a01b0316610482565b895163111ea8c160e21b815298899182905afa96871561056e57610bd097610cf691600091610d93575b5089516001600160a01b038816848201908152909190610ce890839060200103868101845283611656565b610cf0612e6f565b906145f7565b838116151580610d89575b610d0e575b505050610b12565b8851634fb2e45d60e01b83820152336024820152610d8093610a8691610d4890610d42816044810103848101835282611656565b846146e6565b508a5193630a3e884b60e41b9085015283610b0460248201906007606060808401936000815260006020820152600060408201520152565b50388080610d06565b5080311515610d01565b610daa9150833d8511610567576105588183611656565b38610cbd565b5080841683146109d4565b34610334576020366003190112610334576020610deb600435600052600760205260ff6001604060002001541690565b6040519015158152f35b346103345760203660031901126103345760043560005260076020526020600360406000200154604051908152f35b34610334576020366003190112610334576004356000526007602052602060018060a01b0360046040600020015416604051908152f35b3461033457600080600319360112610f0157610e7861058f614124565b610e813361424f565b8015610e9c575b610e919061258b565b610e99613b56565b80f35b508054604051630536340960e21b8152906001600160a01b03906020908390600490829085165afa90811561056e57610e91928492610ee1575b501633149050610e88565b610efa91925060203d8111610567576105588183611656565b9038610ed6565b80fd5b3461033457602036600319011261033457600435806000526007602052604060002054600560205261041660018060a01b0380604060002054169360076020526040600020916004600284015493015416610f6e6005610a36846000526007602052604060002090565b906003610fa6610f956001610f8d876000526007602052604060002090565b015460ff1690565b946000526007602052604060002090565b0154604080519788526001600160a01b03988916602089015287019490945286166060860152909416608084015292151560a083015260c082019290925290819060e0820190565b346103345760203660031901126103345760043561100b81610339565b60018060a01b031660005260046020526040600020546000526007602052602060ff600160406000200154166040519015158152f35b346103345761104f36610900565b61105a61058f614124565b6110633361424f565b8015611097575b9161107761107c9361258b565b6125d7565b604080519283526001600160a01b0391909116602083015290f35b50600054604051630536340960e21b81526001600160a01b0393916020908290600490829088165afa801561056e5761107c94611077926000926110e4575b50339116149193505061106a565b6110fd91925060203d8111610567576105588183611656565b90386110d6565b34610334576000366003190112610334576020600654604051908152f35b346103345760203660031901126103345760043561113f81610339565b60018060a01b031660005260046020526020604060002054604051908152f35b346103345760408060031936011261033457600480359061117e612506565b61119f61119a6001610f8d856000526007602052604060002090565b612cfa565b6111c46111bd61048283610a36866000526007602052604060002090565b3314612e9e565b6111d46111cf61436d565b600255565b6111ed6005610a36846000526007602052604060002090565b906002549284519361124a61123c60209663015042f960e11b8882015280611228602495863587840160209093929193604081019481520152565b0396610a86601f1998898101845283611656565b868082518301019101613577565b9384519561125d818701978851906124f9565b9461126d898801968751906124f9565b9361127e60608901958651906124f9565b9461128f60808a01968751906124f9565b996112a86112a360e08c019c8d51906124f9565b613dae565b8951611506575b805161145d575b5080516113b6575b5084516112ff575b8989610416896112db8a60c08e0151906135f1565b519151926112e96001600355565b5191825260208201929092529081906040820190565b6000549497939594929392849061131e906001600160a01b0316610482565b8b516313b92d3560e31b815293849182905afa97881561056e57610416986112db9760c0968d6113859660009461138f575b509351935163a9059cbb60e01b9181019190915233948101948552602085019390935291929091610a86918490604001610b04565b50948293386112c6565b610a869450906113ae610b0492843d8611610567576105588183611656565b945090611350565b600054839085906113cf906001600160a01b0316610482565b8d51635506ee0b60e11b815292839182905afa91821561056e57611435928d6114299360009261143c575b509151915163a9059cbb60e01b88820152338682019081526020810193909352929091610a8691849160400190565b03888101845283611656565b50386112be565b610a86925061145790893d8b11610567576105588183611656565b916113fa565b600054849086908e90611478906001600160a01b0316610482565b90516330125cf560e01b815292839182905afa91821561056e576114de928e6114d2936000926114e5575b509151915163a9059cbb60e01b89820152338782019081526020810193909352929091610a8691849160400190565b03898101845283611656565b50386112b6565b610a869250611500908a3d8c11610567576105588183611656565b916114a3565b600054849086908e90611521906001600160a01b0316610482565b9051636402742760e01b815292839182905afa801561056e578b61157b918f6115879460009261158d575b509151915163a9059cbb60e01b8a820152338882019081526020810193909352929091610a8691849160400190565b038a8101845283611656565b506112af565b610a8692506115a8908b3d8d11610567576105588183611656565b9161154c565b634e487b7160e01b600052604160045260246000fd5b6060810190811067ffffffffffffffff8211176115e057604052565b6115ae565b610100810190811067ffffffffffffffff8211176115e057604052565b6040810190811067ffffffffffffffff8211176115e057604052565b6020810190811067ffffffffffffffff8211176115e057604052565b60e0810190811067ffffffffffffffff8211176115e057604052565b90601f8019910116810190811067ffffffffffffffff8211176115e057604052565b67ffffffffffffffff81116115e05760051b60200190565b34610334576020806003193601126103345760043567ffffffffffffffff81116103345736602382011215610334578060040135906116ce82611678565b916116dc6040519384611656565b80835260248484019160051b8301019136831161033457602401905b8282106117085761001684613e86565b813581529084019084016116f8565b3461033457602036600319011261033457602060043561173681610339565b60018060a01b03809116600052600482526040600020546000526007825260056040600020015416604051908152f35b3461033457604036600319011261033457600435600052600860205260406000206024356000526020526020604060002054604051908152f35b346103345760203660031901126103345760043560005260076020526020600260406000200154604051908152f35b3461033457604036600319011261033457600435600052600760205260206118006024356003604060002001612bd3565b90549060031b1c604051908152f35b34610334576000366003190112610334576001546040516001600160a01b039091168152602090f35b346103345760403660031901126103345761185461058f614124565b61185d3361424f565b801561187b575b61186d9061258b565b610016602435600435613e32565b50600054604051630536340960e21b8152906001600160a01b03906020908390600490829085165afa90811561056e5761186d926000926118c2575b501633149050611864565b6118db91925060203d8111610567576105588183611656565b90386118b7565b3461033457602036600319011261033457600435600052600f6020526020604060002054604051908152f35b346103345760003660031901126103345760005460405163d1f956b160e01b815290602090829060049082906001600160a01b03165afa90811561056e5761041691611997916000916119a7575b5060405161196981611602565b601381527267657464656c656761746f72436f756e74282960681b602082015261199161237d565b91614677565b6040519081529081906020820190565b6119bf915060203d8111610567576105588183611656565b3861195c565b8015150361033457565b34610334576060366003190112610334576024356119ec81610339565b6044356119f8816119c5565b611a0361058f614124565b611a0c3361424f565b8015611a28575b91611a206100169361258b565b600435613024565b50600054604051630536340960e21b81526001600160a01b0393916020908290600490829088165afa801561056e5761001694611a2092600092611a75575b503391161491935050611a13565b611a8e91925060203d8111610567576105588183611656565b9038611a67565b610100810192916000915b60088310611aad57505050565b600190825181526020809101920192019190611aa0565b3461033457602036600319011261033457610416600435611bd16108b0611ae9613cc0565b92611b10611b01826000526008602052604060002090565b60008052602052604060002090565b548452611b2a61078b826000526008602052604060002090565b546020850152611b476107bd826000526008602052604060002090565b546040850152611b646107ef826000526008602052604060002090565b546060850152611b81610821826000526008602052604060002090565b546080850152611b9e610853826000526008602052604060002090565b5460a0850152611bbb610885826000526008602052604060002090565b5460c08501526000526008602052604060002090565b5460e082015260405191829182611a95565b34610334576020366003190112610334576020610deb600435611c0581610339565b61424f565b3461033457611cb7611c1b36610900565b90611c24612506565b611c6d611c3261094c612390565b611c3d610969612390565b906001600160a01b0390611c56908216868316146123f3565b6000546109a09082166001600160a01b0316610482565b611c99611c946001610f8d610a258560018060a01b03166000526004602052604060002090565b612484565b611ca46111cf61436d565b611cb0600280546127ed565b33906129ef565b611cd0611b016002546000526008602052604060002090565b611cda81546124e6565b9055611ce4613dda565b611cfd6005610a36836000526007602052604060002090565b90611d0781612d3e565b611d116001600355565b604080519182526001600160a01b03929092166020820152f35b3461033457602036600319011261033457611d4761058f614124565b611d503361424f565b8015611d6b575b611d609061258b565b6100166004356127cb565b50600054600490602090611d87906001600160a01b0316610482565b604051630536340960e21b815292839182905afa801561056e57611d6091600091611dc0575b506001600160a01b031633149050611d57565b611dd8915060203d8111610567576105588183611656565b38611dad565b3461033457602036600319011261033457600054604051630536340960e21b8152906001600160a01b03906020908390600490829085165afa91821561056e57600092611e71575b5033911603611e3a57610016600435614461565b60405162461bcd60e51b815260206004820152600f60248201526e6f776e2e6e6f6e617574682e44414f60881b6044820152606490fd5b611e8a91925060203d8111610567576105588183611656565b9038611e26565b3461033457602036600319011261033457600435611eae81610339565b803b6000611ebb82612361565b92611ec96040519485611656565b82845260208401903c602d815110611eef57602a015160405160609190911c8152602090f35b60405162461bcd60e51b81526020600482015260136024820152724e6f742061206d696e696d616c2070726f787960681b6044820152606490fd5b604036600319011261033457600435611f41612506565b611f4961436d565b6002556000908082526007602052611f6a60ff600160408520015416612cfa565b81526007602052611fa960018060a01b036005604084200154166040519062a0e53360e51b6020830152602435602483015260248252610a86826115c4565b50600160035580f35b3461033457604036600319011261033457600435600052600a60205260406000206024356000526020526020604060002054604051908152f35b346103345760c03660031901126103345760243560043561200c82610339565b606435906084359061201c612506565b61203861119a6001610f8d846000526007602052604060002090565b6120576111bd6104826004610a36856000526007602052604060002090565b6120626111cf61436d565b61206e600280546127ed565b61207782613d56565b61208083613d82565b6120ff6120f16112286120a26005610a36866000526007602052604060002090565b604051634996516b60e11b6020808301919091526001600160a01b039099166024820152604480359082015260648101889052608481019690965260a4803590870152969490819060c4820190565b838082518301019101612eea565b928161211c575b50506121129350613808565b6100166001600355565b60005460049291908190612138906001600160a01b0316610482565b604051635e09dbe760e01b815294859182905afa801561056e57612112976121939460009261219b575b5060405163a9059cbb60e01b9381019390935233602484015260448301939093529091610a86908360648101610b04565b503880612106565b610a8692506121b690843d8611610567576105588183611656565b91612162565b346103345760208060031936011261033457600480356121db81610339565b60005460405163d1f956b160e01b81526001600160a01b03949093909182918591829088165afa90811561056e576104169461051f9460009361223c575b50604051931681840152825261222e82611602565b6122366143f8565b9061463b565b612254919350823d8411610567576105588183611656565b9138612219565b34610334576000366003190112610334576020610deb614124565b3461033457602036600319011261033457600435600052600c6020526020604060002054604051908152f35b3461033457602036600319011261033457600435600052600e6020526020604060002054604051908152f35b3461033457604080600319360112610334576004356122ec81610339565b6001600160a01b0316600081815260046020818152848320548352600b815284832054938352908152838220548252600a81528382206024358352815290839020549251918252810191909152604090f35b3461033457600036600319011261033457602061235961436d565b604051908152f35b67ffffffffffffffff81116115e057601f01601f191660200190565b6040519061238a8261161e565b60008252565b60405161239c8161161e565b60008152906000368137565b604051906123b582611602565b60078252666f776e6572282960c81b6020830152565b604051906123d882611602565b600c82526b67657448657862617365282960a01b6020830152565b156123fa57565b60405162461bcd60e51b815260206004820152601760248201527f6e65737465642e696e76616c69642e696e7374616e63650000000000000000006044820152606490fd5b1561244657565b60405162461bcd60e51b81526020600482015260166024820152756e65737465642e696e76616c69642e6865786261736560501b6044820152606490fd5b1561248b57565b60405162461bcd60e51b815260206004820152601860248201527f6e65737465642e706172656e742e6e6f742e65786973747300000000000000006044820152606490fd5b634e487b7160e01b600052601160045260246000fd5b90600182018092116124f457565b6124d0565b919082018092116124f457565b600260035414612517576002600355565b604051633ee5aeb560e01b8152600490fd5b1561253057565b60405162461bcd60e51b81526020600482015260126024820152716f776e2e696e76616c69642e69735361666560701b6044820152606490fd5b90816020910312610334575161092581610339565b6040513d6000823e3d90fd5b1561259257565b60405162461bcd60e51b815260206004820152601b60248201527f6f776e2e6e6f6e617574682e44414f6f725365637572656261736500000000006044820152606490fd5b612684929161268a6004926125ea612506565b61261d6126186126146001610f8d610a258860018060a01b03166000526004602052604060002090565b1590565b61299c565b61263061262b6006546129e0565b600655565b60065495869161264e85610b49856000526005602052604060002090565b6001600160a01b038516600090815260046020526040902083905b556001600160a01b0316600090815260046020526040902090565b54612c31565b6126b3826126a2866000526007602052604060002090565b0180546001600160a01b0319169055565b6000546020906126cb906001600160a01b0316610482565b60405163e09d394d60e01b815293849182905afa801561056e576126fe6127149161277e946000916127ad575b50612b55565b6005610b8d876000526007602052604060002090565b61272d6005610a36866000526007602052604060002090565b600054610a8690612746906001600160a01b0316610482565b6040516352902c5960e01b60208201526001600160a01b039182166024820152931660448401526064830186905282608481016104e5565b506000828152600760205260409020600501546001600160a01b0316916127a481612d3e565b91906001600355565b6127c5915060203d8111610567576105588183611656565b386126f8565b6127dc906127d761436d565b6127ed565b565b6000198101919082116124f457565b90612805611b01836000526008602052604060002090565b541580612992575b80612989575b61281b575050565b6128379061283161282b846127de565b916127de565b906127ed565b612856611b01612846836127de565b6000526008602052604060002090565b5461286e611b01836000526008602052604060002090565b5561287e61078b612846836127de565b5461289661078b836000526008602052604060002090565b556128a66107bd612846836127de565b546128be6107bd836000526008602052604060002090565b556128ce6107ef612846836127de565b546128e66107ef836000526008602052604060002090565b556128f6610821612846836127de565b5461290e610821836000526008602052604060002090565b5561291e610853612846836127de565b54612936610853836000526008602052604060002090565b55612946610885612846836127de565b5461295e610885836000526008602052604060002090565b556129866108b06129746108b0612846856127de565b54926000526008602052604060002090565b55565b50801515612813565b506001821161280d565b156129a357565b60405162461bcd60e51b81526020600482015260156024820152746e65737465642e616c72656164792e65786973747360581b6044820152606490fd5b60001981146124f45760010190565b91612a87600492612a7261268495612a276126186126146001610f8d610a258a60018060a01b03166000526004602052604060002090565b612a3561262b6006546129e0565b600654968791612a5387610b49856000526005602052604060002090565b6001600160a01b03871660009081526004602052604090208390612669565b83610b8d866000526007602052604060002090565b600054602090612a9f906001600160a01b0316610482565b60405163e09d394d60e01b815293849182905afa801561056e57612ad1612ae791612b51946000916127ad5750612b55565b6005610b8d866000526007602052604060002090565b612b006005610a36856000526007602052604060002090565b600054610a8690612b19906001600160a01b0316610482565b6040516352902c5960e01b60208201526001600160a01b039182166024820152931660448401526064830185905282608481016104e5565b5090565b6e5af43d82803e903d91602b57fd5bf390763d602d80600a3d3981f3363d3d373d3d3d363d7300000062ffffff8260881c161760005260781b17602052603760096000f0906001600160a01b03821615612bab57565b60405163b06ebf3d60e01b8152600490fd5b634e487b7160e01b600052603260045260246000fd5b8054821015612beb5760005260206000200190600090565b612bbd565b90815491680100000000000000008310156115e05782612c189160016127dc95018155612bd3565b90919082549060031b91821b91600019901b1916179055565b91906000818152602093600785526040808320926002948386860155806001958681018760ff19825416179055558385905b612c7257505050505050509050565b612ccc612cbb82888a9414612cd5575b878652600a8c528686208187528c52868620612c9e81546124e6565b9055878652600b8c52868620612cb481546124e6565b90556129e0565b956000526007602052604060002090565b01549384612c63565b612cf5856003612cef8b6000526007602052604060002090565b01612bf0565b612c82565b15612d0157565b60405162461bcd60e51b81526020600482015260156024820152746e65737465642e757365722e6e6f7461637469766560581b6044820152606490fd5b806000526007602052612d5b60ff60016040600020015416612cfa565b6000526007602052612d9b60018060a01b03600560406000200154166040519062a0e53360e51b60208301526001602483015260248252610a86826115c4565b50565b15612da557565b60405162461bcd60e51b81526020600482015260136024820152726e65737465642e7a65726f2e6164647265737360681b6044820152606490fd5b15612de757565b60405162461bcd60e51b81526020600482015260146024820152736e65737465642e7461726765742e65786973747360601b6044820152606490fd5b15612e2a57565b60405162461bcd60e51b815260206004820152601760248201527f6e65737465642e736f757263652e6e6f744578697374730000000000000000006044820152606490fd5b60405190612e7c82611602565b601382527255736572546f496e737428616464726573732960681b6020830152565b15612ea557565b60405162461bcd60e51b815260206004820152601b60248201527f6e65737465642e757365722e696e76616c6964696e7374616e636500000000006044820152606490fd5b9190826040910312610334576020825192015190565b15612f0757565b60405162461bcd60e51b815260206004820152601860248201527f6e65737465642e757365722e6e6f742e646574616368656400000000000000006044820152606490fd5b15612f5357565b60405162461bcd60e51b815260206004820152601760248201527f6e65737465642e706172656e742e6e6f746163746976650000000000000000006044820152606490fd5b15612f9f57565b60405162461bcd60e51b815260206004820152601b60248201527f6e65737465642e757365722e616c726564792e646574616368656400000000006044820152606490fd5b805490811561300e5760001991820191612ffe8383612bd3565b909182549160031b1b1916905555565b634e487b7160e01b600052603160045260246000fd5b91909160019261304561119a85610f8d856000526007602052604060002090565b6130506111cf61436d565b826131c3575060029261307a84613071846000526007602052604060002090565b01541515612f98565b6000815b6130a6575b505060006127dc9361309f836000526007602052604060002090565b01556132f4565b6003806130d3876130c1876000526007602052604060002090565b01546000526007602052604060002090565b01548210156131bd578361310d61310384846130fd8b6130c1876000526007602052604060002090565b01612bd3565b90549060031b1c90565b14613122575061311c906129e0565b8161307e565b60009250806131998793612c1861317f61310389613179876131726127dc9f6130c16131b79c613160836130c1896000526007602052604060002090565b01956000526007602052604060002090565b01546127de565b90612bd3565b91846130fd886130c18c6000526007602052604060002090565b6131b1836130c1876000526007602052604060002090565b01612fe4565b93613083565b50613083565b6127dc9350613244906131ed60026131e5856000526007602052604060002090565b015415612f00565b6001600160a01b038116600090815260046020526040902061322a906132259054600052600760205260ff6001604060002001541690565b612f4c565b6001600160a01b0316600090815260046020526040902090565b54600261325b836000526007602052604060002090565b015561327c816003612cef60026130c1846000526007602052604060002090565b6132f4565b6040519061328e82611602565b600e82526d6c766c62732875696e743235362960901b6020830152565b604051906132b882611602565b600f82526e6c766c7174792875696e743235362960881b6020830152565b60ff1660ff81146124f45760010190565b80156124f4576000190190565b6133b160059161331283610a36836000526007602052604060002090565b9060409081519161335360209380613331868201906000602083019252565b0395613345601f1997888101845283611656565b61334d613281565b90614677565b9361339b61336f88610a36866000526007602052604060002090565b83519061339382613387898201906000602083019252565b03858101845283611656565b61334d6132ab565b9260029687916000526007602052604060002090565b0154946001978896875b6133cd575b5050505050505050505050565b600f60ff891611158061356e575b15613569578886888d888c61340161048289610a368a6000526007602052604060002090565b613431575b505050505061342261342a926000526007602052604060002090565b0154976132d6565b96896133bb565b926114d26134aa9693610a869361349c979661345b8c610a368d6000526007602052604060002090565b96549151978895637b058ac160e01b908701528d60248701939095949160809360ff9160a08701988752602087015216604085015260608401521515910152565b888082518301019101612eea565b908c1561351a57908a915b8082116134d357505061342261342a925b92505086888d888c613406565b6134de9192506129e0565b613506816134f78d546000526008602052604060002090565b90600052602052604060002090565b61351081546124e6565b9055908a916134b5565b908a915b81811161353357505061342261342a926134c6565b613550816134f76135619495546000526008602052604060002090565b61355a81546127de565b90556132e7565b908a9161351e565b6133c0565b508015156133db565b9061010080838303126103345781601f84011215610334576040519261359c846115e5565b8391810192831161033457905b8282106135b65750505090565b81518152602091820191016135a9565b604051906135d382611602565b600f82526e66726565496e74657276616c73282960881b6020830152565b6000805492939261360a906001600160a01b0316610482565b90604091825180809263cfbffe5360e01b8252602092839160049586915afa801561056e5761364c9185916137eb575b50613643612390565b9061334d6135c6565b839784965b600f881115806137e2575b156137d657898883898760059461368461048287610a368a6000526007602052604060002090565b6136b6575b50505050505060026136a86136b0926000526007602052604060002090565b0154976129e0565b96613651565b888515968715806137cd575b80156137c6575b6136d5575b5050613689565b926104e561374b9593610a86936136fe6137599997610a368e6000526007602052604060002090565b9560029a8b549151988996630fe4bc4560e11b9088015260248701919260c093969594919660e0840197600085526000602086015260408501526060840152608083015260a08201520152565b878082518301019101612eea565b926137bd575b8c156137ad575b80831161377a57508389878e888e956136ce565b613783906129e0565b61379c816134f784546000526008602052604060002090565b6137a681546124e6565b9055613766565b878310613766579b50819b613766565b9b50819b61375f565b508d6136c9565b508515156136c2565b50505050505050509050565b5080151561365c565b6138029150833d8511610567576105588183611656565b3861363a565b6000549193929091613822906001600160a01b0316610482565b906004602060409384519283809263cfbffe5360e01b82525afa801561056e57613856916000916139f15750613643612390565b6000956000945b600f861115806139e8575b156139de57858486848b87600561389061048282610a368b6000526007602052604060002090565b6138c3575b5050505050505060026138b56138bd926000526007602052604060002090565b0154956129e0565b9461385d565b861515806139d6575b80156139cd575b1561389557926104e561394c9593610a869361390161395b9997610a368d6000526007602052604060002090565b9560029a8b549151988996630fe4bc4560e11b6020890152602488019260c094919796959260e085019885526020850152600060408501526060840152608083015260a08201520152565b60208082518301019101612eea565b919088156139c4575b8a156139b3575b8083116139805750508486848b878b95613895565b613989906129e0565b6139a2816134f784546000526008602052604060002090565b6139ac81546124e6565b905561396b565b6004831061396b579950819961396b565b99508199613964565b508315156138d3565b5060006138cc565b5050505050509050565b50801515613868565b613802915060203d602011610567576105588183611656565b15613a1157565b60405162461bcd60e51b81526020600482015260126024820152716e65737465642e696e76616c69642e61676560701b6044820152606490fd5b60405190613a5882611602565b601882527f6765744261746368526f79616c7479436c6175736573282900000000000000006020830152565b6102a09081818403126103345782601f82011215610334576040805193613aaa8561163a565b849383019281841161033457935b838510613ac757505050505090565b606085830312610334578251606091613adf826115c4565b8651825260209182880151838201528588015186820152815201940193613ab8565b906007811015612beb5760051b0190565b90816064029160648304036124f457565b818102929181159184041417156124f457565b8115613b40570490565b634e487b7160e01b600052601260045260246000fd5b613b616111cf61436d565b613b77600254613b72811515613a0a565b6127de565b600054613b8c906001600160a01b0316610482565b90604051809263cfbffe5360e01b825281600460209586935afa90811561056e57613be291613bd491600091613ca3575b50613bc6613a4b565b613bce61237d565b91614532565b838082518301019101613a84565b613bf682600052600c602052604060002090565b5460015b6007811115613c0a575050505050565b80613c26613c8f926134f7876000526008602052604060002090565b548015613c9d57613c3f613c39836127de565b86613b01565b51878151928315613c9457613c66613c6b92613c5e613c71968a613b23565b940151613b12565b613b23565b90613b36565b613c89826134f7886000526009602052604060002090565b556129e0565b613bfa565b505050506129e0565b506129e0565b613cba9150853d8711610567576105588183611656565b38613bbd565b60405190613ccd826115e5565b610100368337565b805115612beb5760200190565b805160011015612beb5760400190565b805160021015612beb5760600190565b805160031015612beb5760800190565b805160041015612beb5760a00190565b805160051015612beb5760c00190565b805160061015612beb5760e00190565b8051821015612beb5760209160051b010190565b60025480600052600c6020526040600020549182018092116124f457600052600c602052604060002055565b60025480600052600d6020526040600020549182018092116124f457600052600d602052604060002055565b60025480600052600e6020526040600020549182018092116124f457600052600e602052604060002055565b60025480600052600f60205260406000205490600182018092116124f457600052600f602052604060002055565b9080600052600c6020526040600020549182018092116124f457600052600c602052604060002055565b9080600052600e6020526040600020549182018092116124f457600052600e602052604060002055565b9080600052600f6020526040600020549182018092116124f457600052600f602052604060002055565b613e9161058f614124565b613e9a3361424f565b8015613ff3575b613eaa9061258b565b60008054909190613ec3906001600160a01b0316610482565b604092835192839263111ea8c160e21b845283600460209687935afa92831561056e578293613fd4575b50815b8151811015613fcc57613f038183613d42565b518651868101828152819003808252601f1991613f3591613f279060200182611656565b613f2f61405a565b88614677565b613f54613f4c84600052600c602052604060002090565b9182546124f9565b9055845b878960088310613f75575050505050613f70906129e0565b613ef0565b5190810184815260208101839052613fc79291613faf91613fa190829060400103868101835282611656565b613fa961408a565b8a614677565b613c89826134f7876000526008602052604060002090565b613f58565b505050505050565b613fec919350843d8611610567576105588183611656565b9138613eed565b50600054604051630536340960e21b8152906001600160a01b03906020908390600490829085165afa90811561056e57613eaa9260009261403a575b501633149050613ea1565b61405391925060203d8111610567576105588183611656565b903861402f565b6040519061406782611602565b6014825273676574627573696e6573732875696e743235362960601b6020830152565b6040519061409782611602565b601d82527f67657472616e6b436f756e742875696e743235362c75696e74323536290000006020830152565b156140ca57565b60405162461bcd60e51b815260206004820152601960248201527f6f776e2e7361666567756172642e63616c6c2e6661696c6564000000000000006044820152606490fd5b908160209103126103345751610925816119c5565b600054604051634bf9c0ad60e11b8152906020908190839060049082906001600160a01b03165afa91821561056e576109259261419a916000916141b5575b5060405161417081611602565b6008815267697353616665282960c01b84820152604051916141918361161e565b6000835261455d565b9190806141ab575b610512906140c3565b50815181146141a2565b6141cc9150833d8511610567576105588183611656565b38614163565b604051906141df82611602565b601582527469735365637572654261736528616464726573732960581b6020830152565b1561420a57565b60405162461bcd60e51b815260206004820152601a60248201527f6f776e2e736563757265626173652e63616c6c2e6661696c65640000000000006044820152606490fd5b6000546001600160a01b0316604051918291634bf9c0ad60e11b835282600460209485935afa92831561056e57610925936142bd926104e5926000926142d8575b506040516001600160a01b0390911685820190815290926142b5918491602090910190565b6104fb6141d2565b9190806142ce575b61051290614203565b50815181146142c5565b6142b59192506142f490863d8811610567576105588183611656565b9190614290565b6040519061430882611602565b601182527069735369676e657228616464726573732960781b6020830152565b1561432f57565b60405162461bcd60e51b81526020600482015260166024820152751bdddb8b9cda59db995c8b98d85b1b0b99985a5b195960521b6044820152606490fd5b60005460405163111ea8c160e21b815290602090829060049082906001600160a01b03165afa801561056e57610925916000916143da575b506040516143b281611602565b6005815264616765282960d81b6020820152604051916143d18361161e565b60008352614677565b6143f2915060203d8111610567576105588183611656565b386143a5565b6040519061440582611602565b601882527f697364656c656761746f724e6f646528616464726573732900000000000000006020830152565b3d1561445c573d9061444282612361565b916144506040519384611656565b82523d6000602084013e565b606090565b600080546040516311be646b60e21b815290602090829060049082906001600160a01b03165afa90811561056e578284819382938391614514575b505af16144a7614431565b50156144dd5760405190815233907fcdcc745fe377b103b45fa0cec23ae3ef93d6fc6a84a01f0d18c40b354dd1d5d890602090a2565b60405162461bcd60e51b815260206004820152600f60248201526e1bdddb8b989d5c9b8b99985a5b1959608a1b6044820152606490fd5b61452c915060203d8111610567576105588183611656565b3861449c565b9061453d929161455d565b906000901561454a575090565b60405191506145588261161e565b815290565b9190823b156145de578051906020918263ffffffff60e01b92012016916040519180830193845281519160005b8381106145ca5750505091816145b760248260009795968897018783820152036004810184520182611656565b5191620dbba0fa6145c6614431565b9091565b81810183015185820160240152820161458a565b5050506000906040516145f08161161e565b6000815290565b92916146059160009461455d565b9080614630575b6146135750565b909150602081805181010312610334576020015161048281610339565b50602081511461460c565b92916146499160009461455d565b908061466c575b6146575750565b6109259192506020808251830101910161410f565b506020815114614650565b92916146859160009461455d565b90806146aa575b6146935750565b909150602081805181010312610334576020015190565b50602081511461468c565b906020825192015163ffffffff60e01b9081811693600481106146d757505050565b60040360031b82901b16169150565b6001600160a01b0381161561476757600080918351908260208601915af19061470d614431565b9115614717575090565b8051600091906004116147615761472e91506146b5565b81511561473e5750805190602001fd5b604051630870274d60e21b81526001600160e01b03199091166004820152602490fd5b5061472e565b60405162461bcd60e51b81526020600482015260126024820152711bdddb8b9a5b9d985b1a590b9d185c99d95d60721b6044820152606490fdfea264697066735822122072a49705cc3c80e1cbb5102f2c075a27a658def6f30ea766acc9406282ae9cad64736f6c63430008140033","linkReferences":{}},"methodIdentifiers":{"dAOAssembly()":"14837455","daocore()":"14d8d024","nested741()":"45cff900","old741()":"5540c5ac","price()":"a035b1fe"},"id":34}