{"abi":[{"type":"constructor","inputs":[],"stateMutability":"nonpayable"},{"type":"fallback","stateMutability":"payable"},{"type":"receive","stateMutability":"payable"},{"type":"function","name":"addOrc1155","inputs":[{"name":"newAddr","type":"address","internalType":"address"},{"name":"oldAddr","type":"address","internalType":"address"},{"name":"oldAddrV1","type":"address","internalType":"address"}],"outputs":[],"stateMutability":"nonpayable"},{"type":"function","name":"addOrc1155Prime","inputs":[{"name":"params","type":"bytes","internalType":"bytes"},{"name":"oldAddr","type":"address","internalType":"address"}],"outputs":[],"stateMutability":"nonpayable"},{"type":"function","name":"addProposer","inputs":[{"name":"_a","type":"address","internalType":"address"}],"outputs":[],"stateMutability":"nonpayable"},{"type":"function","name":"daoassembly","inputs":[],"outputs":[{"name":"","type":"address","internalType":"address"}],"stateMutability":"view"},{"type":"function","name":"daocore","inputs":[],"outputs":[{"name":"","type":"address","internalType":"address"}],"stateMutability":"view"},{"type":"function","name":"getProposalsCount","inputs":[],"outputs":[{"name":"","type":"uint256","internalType":"uint256"}],"stateMutability":"view"},{"type":"function","name":"importRankBusiness","inputs":[{"name":"frmage","type":"uint256","internalType":"uint256"},{"name":"toage","type":"uint256","internalType":"uint256"}],"outputs":[],"stateMutability":"nonpayable"},{"type":"function","name":"importuser","inputs":[{"name":"limit","type":"uint256","internalType":"uint256"}],"outputs":[],"stateMutability":"nonpayable"},{"type":"function","name":"in741","inputs":[],"outputs":[{"name":"","type":"address","internalType":"address"}],"stateMutability":"view"},{"type":"function","name":"in741Old","inputs":[],"outputs":[{"name":"","type":"address","internalType":"address"}],"stateMutability":"view"},{"type":"function","name":"in741Prime","inputs":[],"outputs":[{"name":"","type":"address","internalType":"address"}],"stateMutability":"view"},{"type":"function","name":"in741PrimeOld","inputs":[],"outputs":[{"name":"","type":"address","internalType":"address"}],"stateMutability":"view"},{"type":"function","name":"in741Primev3Old","inputs":[],"outputs":[{"name":"","type":"address","internalType":"address"}],"stateMutability":"view"},{"type":"function","name":"in741Rule","inputs":[],"outputs":[{"name":"","type":"address","internalType":"address"}],"stateMutability":"view"},{"type":"function","name":"in741RuleOld","inputs":[],"outputs":[{"name":"","type":"address","internalType":"address"}],"stateMutability":"view"},{"type":"function","name":"in741RulePrime","inputs":[],"outputs":[{"name":"","type":"address","internalType":"address"}],"stateMutability":"view"},{"type":"function","name":"in741RulePrimeOld","inputs":[],"outputs":[{"name":"","type":"address","internalType":"address"}],"stateMutability":"view"},{"type":"function","name":"inDEAD","inputs":[],"outputs":[{"name":"","type":"address","internalType":"address"}],"stateMutability":"view"},{"type":"function","name":"inDeployerAService","inputs":[],"outputs":[{"name":"","type":"address","internalType":"address"}],"stateMutability":"view"},{"type":"function","name":"inDeployerAsRoot","inputs":[],"outputs":[{"name":"","type":"address","internalType":"address"}],"stateMutability":"view"},{"type":"function","name":"inImportForgePrimeold","inputs":[],"outputs":[{"name":"","type":"address","internalType":"address"}],"stateMutability":"view"},{"type":"function","name":"inInstance","inputs":[],"outputs":[{"name":"","type":"address","internalType":"address"}],"stateMutability":"view"},{"type":"function","name":"inInstancePrime","inputs":[],"outputs":[{"name":"","type":"address","internalType":"address"}],"stateMutability":"view"},{"type":"function","name":"inInstanceStor","inputs":[],"outputs":[{"name":"","type":"address","internalType":"address"}],"stateMutability":"view"},{"type":"function","name":"inNftFactory","inputs":[],"outputs":[{"name":"","type":"address","internalType":"address"}],"stateMutability":"view"},{"type":"function","name":"inNftProxy","inputs":[],"outputs":[{"name":"","type":"address","internalType":"address"}],"stateMutability":"view"},{"type":"function","name":"inOrc1155","inputs":[{"name":"","type":"uint256","internalType":"uint256"}],"outputs":[{"name":"","type":"address","internalType":"address"}],"stateMutability":"view"},{"type":"function","name":"inOrc1155Old","inputs":[{"name":"","type":"uint256","internalType":"uint256"}],"outputs":[{"name":"","type":"address","internalType":"address"}],"stateMutability":"view"},{"type":"function","name":"inOrc1155OldV1","inputs":[{"name":"","type":"uint256","internalType":"uint256"}],"outputs":[{"name":"","type":"address","internalType":"address"}],"stateMutability":"view"},{"type":"function","name":"inOrc1155Prime","inputs":[{"name":"","type":"uint256","internalType":"uint256"}],"outputs":[{"name":"","type":"address","internalType":"address"}],"stateMutability":"view"},{"type":"function","name":"inOrc1155PrimeOld","inputs":[],"outputs":[{"name":"","type":"address","internalType":"address"}],"stateMutability":"view"},{"type":"function","name":"inOrc1155PrimeOldV1","inputs":[],"outputs":[{"name":"","type":"address","internalType":"address"}],"stateMutability":"view"},{"type":"function","name":"inOrc1155machinebullold","inputs":[],"outputs":[{"name":"","type":"address","internalType":"address"}],"stateMutability":"view"},{"type":"function","name":"inPrice","inputs":[],"outputs":[{"name":"","type":"address","internalType":"address"}],"stateMutability":"view"},{"type":"function","name":"inPrimeData","inputs":[],"outputs":[{"name":"","type":"address","internalType":"address"}],"stateMutability":"view"},{"type":"function","name":"inPrimeProxy","inputs":[],"outputs":[{"name":"","type":"address","internalType":"address"}],"stateMutability":"view"},{"type":"function","name":"inTransferPrimeold","inputs":[],"outputs":[{"name":"","type":"address","internalType":"address"}],"stateMutability":"view"},{"type":"function","name":"inTransferold","inputs":[],"outputs":[{"name":"","type":"address","internalType":"address"}],"stateMutability":"view"},{"type":"function","name":"inTreaseryFactory","inputs":[],"outputs":[{"name":"","type":"address","internalType":"address"}],"stateMutability":"view"},{"type":"function","name":"inTreaseryTVLMining","inputs":[],"outputs":[{"name":"","type":"address","internalType":"address"}],"stateMutability":"view"},{"type":"function","name":"inTreaseryTVLMiningImport","inputs":[],"outputs":[{"name":"","type":"address","internalType":"address"}],"stateMutability":"view"},{"type":"function","name":"inTreaseryTVLMiningPrime","inputs":[],"outputs":[{"name":"","type":"address","internalType":"address"}],"stateMutability":"view"},{"type":"function","name":"inTreaseryTVLReward","inputs":[],"outputs":[{"name":"","type":"address","internalType":"address"}],"stateMutability":"view"},{"type":"function","name":"inTreaseryTVLRoyality","inputs":[],"outputs":[{"name":"","type":"address","internalType":"address"}],"stateMutability":"view"},{"type":"function","name":"inTreaseryTVLTour","inputs":[],"outputs":[{"name":"","type":"address","internalType":"address"}],"stateMutability":"view"},{"type":"function","name":"inTreaseryTVLValidator","inputs":[],"outputs":[{"name":"","type":"address","internalType":"address"}],"stateMutability":"view"},{"type":"function","name":"inblank","inputs":[],"outputs":[{"name":"","type":"address","internalType":"address"}],"stateMutability":"view"},{"type":"function","name":"incointransfer","inputs":[],"outputs":[{"name":"","type":"address","internalType":"address"}],"stateMutability":"view"},{"type":"function","name":"infactoryold","inputs":[],"outputs":[{"name":"","type":"address","internalType":"address"}],"stateMutability":"view"},{"type":"function","name":"infactoryprimeold","inputs":[],"outputs":[{"name":"","type":"address","internalType":"address"}],"stateMutability":"view"},{"type":"function","name":"insafeguard","inputs":[],"outputs":[{"name":"","type":"address","internalType":"address"}],"stateMutability":"view"},{"type":"function","name":"insafeguardOld","inputs":[],"outputs":[{"name":"","type":"address","internalType":"address"}],"stateMutability":"view"},{"type":"function","name":"insafeguardPrime","inputs":[],"outputs":[{"name":"","type":"address","internalType":"address"}],"stateMutability":"view"},{"type":"function","name":"insafeguardPrimeOld","inputs":[],"outputs":[{"name":"","type":"address","internalType":"address"}],"stateMutability":"view"},{"type":"function","name":"invalidator","inputs":[],"outputs":[{"name":"","type":"address","internalType":"address"}],"stateMutability":"view"},{"type":"function","name":"invalidatorOld","inputs":[],"outputs":[{"name":"","type":"address","internalType":"address"}],"stateMutability":"view"},{"type":"function","name":"mapOldORC1155","inputs":[{"name":"","type":"address","internalType":"address"}],"outputs":[{"name":"","type":"address","internalType":"address"}],"stateMutability":"view"},{"type":"function","name":"mapOldORC1155Prime","inputs":[{"name":"","type":"address","internalType":"address"}],"outputs":[{"name":"","type":"address","internalType":"address"}],"stateMutability":"view"},{"type":"function","name":"proposals","inputs":[{"name":"","type":"uint256","internalType":"uint256"}],"outputs":[{"name":"","type":"address","internalType":"address"}],"stateMutability":"view"},{"type":"function","name":"s1","inputs":[],"outputs":[{"name":"","type":"address","internalType":"address"}],"stateMutability":"view"},{"type":"function","name":"s2","inputs":[],"outputs":[{"name":"","type":"address","internalType":"address"}],"stateMutability":"view"},{"type":"function","name":"s3","inputs":[],"outputs":[{"name":"","type":"address","internalType":"address"}],"stateMutability":"view"},{"type":"function","name":"submit","inputs":[{"name":"_hexNFTEngine","type":"address","internalType":"address"},{"name":"_hexDaoCore","type":"address","internalType":"address"},{"name":"_hexRules","type":"address","internalType":"address"},{"name":"_hexUserEngine","type":"address","internalType":"address"},{"name":"_hexInstanceEngine","type":"address","internalType":"address"}],"outputs":[],"stateMutability":"nonpayable"},{"type":"function","name":"testTxnSys","inputs":[],"outputs":[],"stateMutability":"nonpayable"},{"type":"function","name":"update741","inputs":[{"name":"addr","type":"address","internalType":"address"}],"outputs":[],"stateMutability":"nonpayable"},{"type":"function","name":"update741Old","inputs":[{"name":"addr","type":"address","internalType":"address"}],"outputs":[],"stateMutability":"nonpayable"},{"type":"function","name":"update741Prime","inputs":[{"name":"addr","type":"address","internalType":"address"}],"outputs":[],"stateMutability":"nonpayable"},{"type":"function","name":"update741PrimeOld","inputs":[{"name":"addr","type":"address","internalType":"address"}],"outputs":[],"stateMutability":"nonpayable"},{"type":"function","name":"update741Primev3Old","inputs":[{"name":"addr","type":"address","internalType":"address"}],"outputs":[],"stateMutability":"nonpayable"},{"type":"function","name":"update741Rule","inputs":[{"name":"addr","type":"address","internalType":"address"}],"outputs":[],"stateMutability":"nonpayable"},{"type":"function","name":"update741RuleOld","inputs":[{"name":"addr","type":"address","internalType":"address"}],"outputs":[],"stateMutability":"nonpayable"},{"type":"function","name":"update741RulePrime","inputs":[{"name":"addr","type":"address","internalType":"address"}],"outputs":[],"stateMutability":"nonpayable"},{"type":"function","name":"update741RulePrimeOld","inputs":[{"name":"addr","type":"address","internalType":"address"}],"outputs":[],"stateMutability":"nonpayable"},{"type":"function","name":"updateCoinTransfer","inputs":[{"name":"addr","type":"address","internalType":"address"}],"outputs":[],"stateMutability":"nonpayable"},{"type":"function","name":"updateDAOAssembly","inputs":[{"name":"_dao","type":"address","internalType":"address"}],"outputs":[],"stateMutability":"nonpayable"},{"type":"function","name":"updateDAOCore","inputs":[{"name":"_dao","type":"address","internalType":"address"}],"outputs":[],"stateMutability":"nonpayable"},{"type":"function","name":"updateDEAD","inputs":[{"name":"addr","type":"address","internalType":"address"}],"outputs":[],"stateMutability":"nonpayable"},{"type":"function","name":"updateFactoryOld","inputs":[{"name":"addr","type":"address","internalType":"address"}],"outputs":[],"stateMutability":"nonpayable"},{"type":"function","name":"updateFactoryPrimeOld","inputs":[{"name":"addr","type":"address","internalType":"address"}],"outputs":[],"stateMutability":"nonpayable"},{"type":"function","name":"updateImportForgePrimeold","inputs":[{"name":"addr","type":"address","internalType":"address"}],"outputs":[],"stateMutability":"nonpayable"},{"type":"function","name":"updateInTransferOld","inputs":[{"name":"addr","type":"address","internalType":"address"}],"outputs":[],"stateMutability":"nonpayable"},{"type":"function","name":"updateInTransferPrimeOld","inputs":[{"name":"addr","type":"address","internalType":"address"}],"outputs":[],"stateMutability":"nonpayable"},{"type":"function","name":"updateInstance","inputs":[{"name":"addr","type":"address","internalType":"address"}],"outputs":[],"stateMutability":"nonpayable"},{"type":"function","name":"updateInstancePrime","inputs":[{"name":"addr","type":"address","internalType":"address"}],"outputs":[],"stateMutability":"nonpayable"},{"type":"function","name":"updateInstanceStor","inputs":[{"name":"addr","type":"address","internalType":"address"}],"outputs":[],"stateMutability":"nonpayable"},{"type":"function","name":"updateNftProxy","inputs":[{"name":"addr","type":"address","internalType":"address"}],"outputs":[],"stateMutability":"nonpayable"},{"type":"function","name":"updateOrc1155","inputs":[{"name":"_o","type":"address","internalType":"address"},{"name":"oldAddr","type":"address","internalType":"address"},{"name":"idx","type":"uint256","internalType":"uint256"}],"outputs":[],"stateMutability":"nonpayable"},{"type":"function","name":"updateOrc1155MachineBullOld","inputs":[{"name":"addr","type":"address","internalType":"address"}],"outputs":[],"stateMutability":"nonpayable"},{"type":"function","name":"updateOrc1155Prime","inputs":[{"name":"_o","type":"address","internalType":"address"},{"name":"oldAddr","type":"address","internalType":"address"},{"name":"idx","type":"uint256","internalType":"uint256"}],"outputs":[],"stateMutability":"nonpayable"},{"type":"function","name":"updateOrc1155PrimeOld","inputs":[{"name":"addr","type":"address","internalType":"address"}],"outputs":[],"stateMutability":"nonpayable"},{"type":"function","name":"updateOrc1155PrimeOldV1","inputs":[{"name":"addr","type":"address","internalType":"address"}],"outputs":[],"stateMutability":"nonpayable"},{"type":"function","name":"updatePrice","inputs":[{"name":"addr","type":"address","internalType":"address"}],"outputs":[],"stateMutability":"nonpayable"},{"type":"function","name":"updatePrimeData","inputs":[{"name":"addr","type":"address","internalType":"address"}],"outputs":[],"stateMutability":"nonpayable"},{"type":"function","name":"updatePrimeProxy","inputs":[{"name":"addr","type":"address","internalType":"address"}],"outputs":[],"stateMutability":"nonpayable"},{"type":"function","name":"updateProposals","inputs":[{"name":"_a","type":"address","internalType":"address"},{"name":"idx","type":"uint256","internalType":"uint256"}],"outputs":[],"stateMutability":"nonpayable"},{"type":"function","name":"updateSafeguard","inputs":[{"name":"addr","type":"address","internalType":"address"}],"outputs":[],"stateMutability":"nonpayable"},{"type":"function","name":"updateSafeguardOld","inputs":[{"name":"addr","type":"address","internalType":"address"}],"outputs":[],"stateMutability":"nonpayable"},{"type":"function","name":"updateSafeguardPrime","inputs":[{"name":"addr","type":"address","internalType":"address"}],"outputs":[],"stateMutability":"nonpayable"},{"type":"function","name":"updateSafeguardPrimeOld","inputs":[{"name":"addr","type":"address","internalType":"address"}],"outputs":[],"stateMutability":"nonpayable"},{"type":"function","name":"updateTreaseryFactory","inputs":[{"name":"addr","type":"address","internalType":"address"}],"outputs":[],"stateMutability":"nonpayable"},{"type":"function","name":"updateTreaseryTVLMiningImport","inputs":[{"name":"addr","type":"address","internalType":"address"}],"outputs":[],"stateMutability":"nonpayable"},{"type":"function","name":"updateTreaseryTVLValidator","inputs":[{"name":"addr","type":"address","internalType":"address"}],"outputs":[],"stateMutability":"nonpayable"},{"type":"function","name":"updateTreasuryTVLMining","inputs":[{"name":"addr","type":"address","internalType":"address"}],"outputs":[],"stateMutability":"nonpayable"},{"type":"function","name":"updateTreasuryTVLMiningPrime","inputs":[{"name":"addr","type":"address","internalType":"address"}],"outputs":[],"stateMutability":"nonpayable"},{"type":"function","name":"updateTreasuryTVLReward","inputs":[{"name":"addr","type":"address","internalType":"address"}],"outputs":[],"stateMutability":"nonpayable"},{"type":"function","name":"updateTreasuryTVLRoyality","inputs":[{"name":"addr","type":"address","internalType":"address"}],"outputs":[],"stateMutability":"nonpayable"},{"type":"function","name":"updateTreasuryTVLTour","inputs":[{"name":"addr","type":"address","internalType":"address"}],"outputs":[],"stateMutability":"nonpayable"},{"type":"function","name":"updateValidator","inputs":[{"name":"addr","type":"address","internalType":"address"}],"outputs":[],"stateMutability":"nonpayable"},{"type":"function","name":"updateValidatorOld","inputs":[{"name":"addr","type":"address","internalType":"address"}],"outputs":[],"stateMutability":"nonpayable"}],"bytecode":{"object":"0x6080604052346200050b5760018060a01b0319600090808254168255600173376c3a0babd0ce07b78f82fc862a6cb7c82342d282825416178155816002541660025573301cad03ad5f18e71e0bf6d578820c5e836201c9826003541617600355735731f74dd52839d69b2b4427ce1439431f76a2ce8260045416176004556005734a516f5916d53ece27c00ab5e3923872ed19f090838254161781558260065416600655826007541660075582600954166009557360c95eb879eec03a0af4528a16f192e61a198f4083600a541617600a557308ff697696398fac0dcee979bb0f1fb7b7fc380b83600b541617600b5582600c5416600c5582600d5416600d5573f134e58248ab8380e911d36c21e1015e5e84814183600e541617600e5582600f5416600f5573882bf41aa8e3fad0695be39e4434af54786eb24a83601054161760105573c0cee8b561cc4f60869776ca5b0b7a295e04f5af808460115416176011558360125416601255836013541617601355739f33b44587a57758c1413dbab6640f6abea5cef483601454161760145573804f8004e7d361ab2a4335685d7c6893e67af7c1836015541617601555620001b962000510565b9173d03060e8ed7754aeed63e4e56b0457662d8164aa8352602091733dbd81ab6b37360016fbc6c96937c60334aaede48385015273085052532254e12989413f7c84dd32686bce74e19384604082015273284bf1d323c35b47fe1991cde5af634e3a661253606082015273b33443339919b2ae34888890d6c28b5666daaa3f6080820152601a5482601a55808310620004e0575b50601a87528387209083885b848110620004c457505050506200026f62000510565b73b8193c79fc3f1d7dfaa0bae85fe3b1bff0558abb8152736e5aa0e705b69459e1525b2c720e820cf3322f1b8482015273ef8fe7c57b613624c06f5ede5ebd639f6d5108176040820152735f141ba4a79fdc86ec5c8c044f721ce873db91b96060820152737117638c0dc12ffffdddf3630ac4ce5c9705e6ff6080820152601b5482601b5580831062000499575b50601b8752838720875b8381106200047e57505050505073951a7bbd21b4a6f49e62e040b992eed7120fcdd983601c541617601c55732463fc29b8b635c4120c4fe32aadc580d199348083601d541617601d55737e2baf007a3761d33afee572a7e7a08c1499b99d9081848254161790557343a87925ba12b33f0e2a40da70e239775db21169836025541617602555730fda18c5b31b5417478c012837909927361143ab83602a541617602a55730239667fa9f2269e36f32daf2ab391dc1ad9373883602b541617602b5573648565deb50c503ef59860d92942eaece0c3e17283602c541617602c5582602d541617602d5581602e541617602e55736c96f2d0c9a8b7fb472a319b1ecf7e8626c7b2ba81602f541617602f55739bfc2af8a5e49a72bfb58e22312ce07d61fe773981603054161760305573d6c0fe5cbba38d7270f5da5cd455e8cff3607bbf81603154161760315561dead81603454161760345580603554166035553390825416179055604051615ce59081620005478239f35b82516001600160a01b03168282015591850191840162000307565b601b88528383868a2092830192015b828110620004b8575050620002fd565b898155018490620004a8565b82516001600160a01b0316848201559186019185910162000259565b601a88528383868a2092830192015b828110620004ff5750506200024d565b898155018490620004ef565b600080fd5b6040519060a082016001600160401b038111838210176200053057604052565b634e487b7160e01b600052604160045260246000fdfe6040608081526004803610156200001e575b505036156200001c57005b005b60009182803560e01c928363013cf08b1462002e4c578363014519e61462002dfe57836301c0d48b1462002dd3578363050564b31462002cfe57836305abae0d1462002cb0578363069f3e721462002c6257836308a887af1462002c375783630a4c99391462002be95783630c32145a1462002b9b5783631162a5b11462002b4d578363130fba6d1462002aff5783631477e1941462002aab57836314d8d0241462002a805783631654f3311462002a325783631a47ded514620029e45783631b4fc17b14620029b95783631b67970a146200296b57836321c826771462002940578363236b040214620028f257836323db614914620028a457836324768d911462002879578363275424d0146200282b57836330125cf51462002800578363335ab5f214620027b25783633676bd1f146200274857836336c24c4614620026fa57836342ac8f7914620026ac57836343af1d9d1462002681578363447aa3041462002656578363447bf0e2146200262b578363448f3eef14620026005783634588d01014620025b257836345d96de8146200256457836346f991ac14620025395783634b849a5414620024eb578363507aa64f146200249d57836351ffe4c5146200247257836352b06d641462002447578363595e1dd214620024175783635ad64af114620023ec5783635c727e80146200238e5783635e09dbe714620023635783636325dd041462002338578363635b277014620022ea5783636402742714620022bf578363666585841462002271578363677494d814620022465783636b4aefc6146200221c5783636cc014de14620021f15783636fa1659814620021a357836370ee2af8146200215557836374dfe236146200210757836374fad9f914620020b9578363753e7d33146200206b5783638360701d146200201d578363839a47a41462001fcf578363891e91a51462001f805783639669f18f1462001f3257836396e85ced1462001ee457836397f3815a1462001eb957836398e527d31462001e985783639dc969a81462001e6d578363a0449f451462001e1f578363a0b8cbb81462001df4578363a11abe2a146200113b578363a2672aa814620010ed578363a314150f14620010c3578363a5b277f21462001098578363a5d666a9146200106d578363a66bcbe21462001042578363a7acacf81462001017578363a7d7fa501462000fec578363a9d5ae6f1462000f9e578363aa0ddc161462000f73578363ab6e844f1462000f48578363aeb140201462000efa578363af0deb951462000ecf578363af2331901462000ea4578363b03cd4181462000e65578363b113bd201462000c90578363b3a86ab01462000c65578363b771c8961462000c1f578363bb2458961462000bf4578363bd811bce1462000bc9578363c16addd01462000b67578363c5a90db11462000b3c578363c7bb7d4d1462000aee578363cc7cf18e1462000a8d578363cfaa1f6c1462000a4e578363cfacc0101462000a00578363cfbffe5314620009d5578363d1f956b114620009aa578363d3d1b096146200097f578363da1be7d01462000954578363de433f17146200092a578363e09d394d14620008ff578363e0cf4e9e14620008b7578363e1f4cd24146200088c578363e2576819146200083e578363e61dfd581462000813578363e7531fc014620007e8578363e981bcad14620007525750508163ed15cbf71462000713578163ef140ed31462000693578163efed51bb1462000668578163f144dff0146200063957508063f1cdfda314620005eb578063f6065649146200059d5763fc58f353146200054d578062000011565b346200059a5760203660031901126200059a576200056a62002f15565b6006546001600160a01b03919062000586908316331462002fe0565b1660018060a01b0319601254161760125580f35b80fd5b50346200059a5760203660031901126200059a57620005bb62002f15565b6006546001600160a01b039190620005d7908316331462002fe0565b1660018060a01b0319603654161760365580f35b50346200059a5760203660031901126200059a576200060962002f15565b6006546001600160a01b03919062000625908316331462002fe0565b1660018060a01b0319603154161760315580f35b9050346200066457816003193601126200066457602d5490516001600160a01b039091168152602090f35b5080fd5b905034620006645781600319360112620006645760105490516001600160a01b039091168152602090f35b9050346200066457620006d4620006aa3662002fa8565b90620006f38360018060a09896981b03958694620006ce8660065416331462002fe0565b62002edd565b90919082549060031b9160018060a01b03809116831b921b1916179055565b1684526019602052832080546001600160a01b0319169190921617905580f35b9050346200066457602036600319011262000664576020916001600160a01b03908290826200074162002f15565b168152601985522054169051908152f35b819234620007e45780600319360112620007e4576200077062002ea9565b905460039190911b1c6001600160a01b031691823b15620007df578392604484928451958693849263e981bcad60e01b845280359084015260243560248401525af1908115620007d65750620007c35750f35b620007ce9062002f5a565b6200059a5780f35b513d84823e3d90fd5b505050fd5b5050fd5b5090346200066457816003193601126200066457602b5490516001600160a01b039091168152602090f35b509034620006645781600319360112620006645760265490516001600160a01b039091168152602090f35b50346200059a5760203660031901126200059a576200085c62002f15565b6006546001600160a01b03919062000878908316331462002fe0565b1660018060a01b0319602254161760225580f35b5090346200066457816003193601126200066457600f5490516001600160a01b039091168152602090f35b50903462000664573660031901126200059a57620008fc620008d862002f15565b620008ef60018060a01b0360065416331462002fe0565b620006d460243562002e77565b80f35b509034620006645781600319360112620006645760275490516001600160a01b039091168152602090f35b5090346200066457816003193601126200066457905490516001600160a01b039091168152602090f35b509034620006645781600319360112620006645760305490516001600160a01b039091168152602090f35b509034620006645781600319360112620006645760295490516001600160a01b039091168152602090f35b509034620006645781600319360112620006645760075490516001600160a01b039091168152602090f35b5090346200066457816003193601126200066457600d5490516001600160a01b039091168152602090f35b50346200059a5760203660031901126200059a5762000a1e62002f15565b6006546001600160a01b03919062000a3a908316331462002fe0565b1660018060a01b0319600f541617600f5580f35b5090346200066457602036600319011262000664576020916001600160a01b039082908262000a7c62002f15565b168152601885522054169051908152f35b5090346200066457620006d462000aa43662002fa8565b9062000ace8360018060a09896981b0395869462000ac88660065416331462002fe0565b62002ef9565b1684526018602052832080546001600160a01b0319169190921617905580f35b50346200059a5760203660031901126200059a5762000b0c62002f15565b6006546001600160a01b03919062000b28908316331462002fe0565b1660018060a01b0319602e541617602e5580f35b5090346200066457816003193601126200066457602c5490516001600160a01b039091168152602090f35b82903462000bc557602036600319011262000bc55735601a5481101562000bc557601a6000527f057c384a7d1c54f3a1b2e5e67b2617b8224fdfd1ea7234eea573a6ff665ff63e015490516001600160a01b03909116815260209150f35b8280fd5b509034620006645781600319360112620006645760155490516001600160a01b039091168152602090f35b5090346200066457816003193601126200066457600e5490516001600160a01b039091168152602090f35b82903462000bc557602036600319011262000bc55735916016548310156200059a575062000c4f60209262002ef9565b905491519160018060a01b039160031b1c168152f35b5090346200066457816003193601126200066457601d5490516001600160a01b039091168152602090f35b823462000bc5578060031936011262000bc5576001600160401b0390823582811162000e61573660238201121562000e61578084013592831162000e4e5781519385602092601f199562000cec8588601f840116018962002f84565b808852366024828401011162000bc557806024869399989901838901378601015262000d1762002f2c565b908260018060a01b039562000d328760065416331462002fe0565b8660375416898751998a9363165fd13f60e01b85523087860152896024860152805190816044870152835b82811062000e30575050848392601f8383966064809686010152011681010301925af195861562000e2657879662000df0575b5060175490600160401b82101562000ddb57506019929162000dbf87620006d48460018a960160175562002edd565b16865252832080546001600160a01b0319169190921617905580f35b604190634e487b7160e01b6000525260246000fd5b62000e16919650833d851162000e1e575b62000e0d818362002f84565b810190620030fe565b948762000d90565b503d62000e01565b84513d89823e3d90fd5b8181018801519681016064019690965289968d968f95500162000d5d565b634e487b7160e01b855260418452602485fd5b8480fd5b50346200059a5760203660031901126200059a57620008fc62000e8762002f15565b62000e9e60018060a01b0360065416331462002fe0565b6200301f565b509034620006645781600319360112620006645760285490516001600160a01b039091168152602090f35b5090346200066457816003193601126200066457600c5490516001600160a01b039091168152602090f35b50346200059a5760203660031901126200059a5762000f1862002f15565b6006546001600160a01b03919062000f34908316331462002fe0565b1660018060a01b0319601154161760115580f35b509034620006645781600319360112620006645760115490516001600160a01b039091168152602090f35b5090346200066457816003193601126200066457601f5490516001600160a01b039091168152602090f35b50346200059a5760203660031901126200059a5762000fbc62002f15565b6006546001600160a01b03919062000fd8908316331462002fe0565b1660018060a01b0319600c541617600c5580f35b5090346200066457816003193601126200066457600b5490516001600160a01b039091168152602090f35b5090346200066457816003193601126200066457601c5490516001600160a01b039091168152602090f35b509034620006645781600319360112620006645760125490516001600160a01b039091168152602090f35b509034620006645781600319360112620006645760055490516001600160a01b039091168152602090f35b5090346200066457816003193601126200066457602e5490516001600160a01b039091168152602090f35b82903462000bc5578260031936011262000bc5575490516001600160a01b03909116815260209150f35b50346200059a5760203660031901126200059a576200110b62002f15565b6006546001600160a01b03919062001127908316331462002fe0565b1660018060a01b0319602c541617602c5580f35b82903462000bc55760a036600319011262000bc5576200115a62002f15565b916200116562002f2c565b916200117062002f43565b936001600160a01b0393606435858116919082900362001def576084359086821680920362001def5786895416330362001dbb57866009541662001d7c57855163501ad8ff60e11b815297602093918816848a8881845afa998a1562001adc578b9a62001d58575b50602980549a8a166001600160a01b03199b8c161790558751631550316b60e21b815285818981855afa90811562001d2c57908a918d9162001d36575b50168a601354161760135587516245cff960e81b815285818981855afa90811562001d2c57908a918d9162001d0a575b50168a60115416176011558751631483745560e01b815285818981855afa908c821562001cff5787928a94928d929162001cdd575b50168c6007541617600755895192838092630536340960e21b82525afa90811562001adc5789929183918d9162001cbb575b50168a6006541617600655168651630a5b38ab60e01b815284818881855afa908b821562001cb05786928994928c929162001c8e575b50168b600d541617600d55885192838092633da8676f60e01b82525afa90811562001c8457916200131f859288948d9162001c62575b506200301f565b875163131c73ad60e01b815292839182905afa90811562001b2a579087918a9162001c40575b5016876027541617602755845163022ec09560e01b815282818681855afa90811562001b2a579087918a9162001c1e575b50168760265416176026558451639ba540fb60e01b815282818681855afa90811562001b2a579087918a9162001bfc575b501687601e541617601e558451631af2bfe760e31b815282818681855afa90811562001b2a579087918a9162001bda575b501687601f541617601f55845163b85c9faf60e01b815282818681855afa90811562001b2a579087918a9162001bb8575b50168760215416176021558451632510dd9f60e21b815282818681855afa90811562001b2a579087918a9162001b96575b5016876022541617602255845163dabf429d60e01b815282818681855afa90811562001b2a579187849287948c9162001b74575b5016896023541617602355865195868092630294302f60e61b82525afa93841562001b6a57889462001b46575b5060248054881694871694909417845584516001600160401b039290611baa808201908582118383101762001b3457839183916200312083393081520301908af093841562001b2a57879081603296168a87541617865516928651635256382760e11b815282818581885afa90811562001adc579089918c9162001b08575b5016896036541617603655865163d63843cd60e01b815282818581885afa90811562001adc579089918c9162001ae6575b50168960375416176037558651631a1575a560e01b815282818581885afa90811562001adc578b9162001aba575b50601a80541562001aa757806000528984600020541691601b92835415620019cb5790620015b391846000528c8760002054169162003048565b8851631697db0560e01b81529584878781845afa96871562001a9d578d9762001a79575b50815496600197881015620019cb57826000528b8887600020015416845489101562001a2057906200161791856000528d8a896000200154169162003048565b895163378136b960e21b81528d9086818981865afa91821562001a02579162001a57575b50825460021015620019cb57826000528b60028760002001541684546002101562001a2057849392918f95918e620016809360005260028a6000200154169162003048565b8a5163a0f0e54f60e01b815286818981855afa94851562001a02579462001a33575b5081549360039485101562001a2057826000528c8588600020015416845486101562001a0d578f949392620016e98f938a938c95886000528a866000200154169162003048565b8d5163104e8cbd60e11b815292839182905afa93841562001a025793620019de575b508054871015620019cb576000528a8686600020015416908054871015620019cb57906200174792916000528b87876000200154169162003048565b8751906101e0820182811084821117620019b7578952600e82528b84830197876101c09283368c37905b62001947575b508b6200178362002ea9565b905490851b1c16845160051015620019345760c08501528b60115416845160061015620019345760e08501528b601e5416918451600710156200193457826101008601528c601f541685516008101562001921576101208601528c6021541685516009101562001921576101408601528c602254168551600a101562001921576101608601528c602354168551600b101562001921576101808601528c8b54168551600c101562001921576101a08601528c895416918551600d10156200190e5750908c9392918501528c6033541617603355541693898154168a60055416918a5199610fe691828c01968c881090881117620018fc5750509160c093918a99989697959362004cca8b3960a08401958452878401528a83015230606083015260a06080830152518093520193928a5b828110620018e3575050505050039085f0908115620018da57501690600954161760095580f35b513d85823e3d90fd5b84518a16865287965094810194938101938301620018b3565b8f90604190634e487b7160e01b835252fd5b8b9089634e487b7160e01b600052526000fd5b8b838a634e487b7160e01b600052526000fd5b8a8289634e487b7160e01b600052526000fd5b600580821015620019b0578d6200195e8362002ef9565b905490871b1c169086518310156200199d5782901b860188015260001981146200198b5788018862001771565b634e487b7160e01b8f52601188528a8ffd5b8c848b634e487b7160e01b600052526000fd5b5062001777565b88604187634e487b7160e01b600052526000fd5b898988634e487b7160e01b600052526000fd5b620019fa919350863d881162000e1e5762000e0d818362002f84565b918e6200170b565b8c51903d90823e3d90fd5b8b8b8a634e487b7160e01b600052526000fd5b8a8a89634e487b7160e01b600052526000fd5b62001a4f919450863d881162000e1e5762000e0d818362002f84565b928e620016a2565b62001a729150863d881162000e1e5762000e0d818362002f84565b8e6200163b565b62001a95919750853d871162000e1e5762000e0d818362002f84565b958d620015d7565b8a513d8f823e3d90fd5b878786634e487b7160e01b600052526000fd5b62001ad59150833d851162000e1e5762000e0d818362002f84565b8b62001579565b88513d8d823e3d90fd5b62001b019150843d861162000e1e5762000e0d818362002f84565b8c6200154b565b62001b239150843d861162000e1e5762000e0d818362002f84565b8c6200151a565b86513d8b823e3d90fd5b634e487b7160e01b8c5260418552878cfd5b62001b62919450823d841162000e1e5762000e0d818362002f84565b92886200149b565b85513d8a823e3d90fd5b62001b8f9150843d861162000e1e5762000e0d818362002f84565b8c6200146e565b62001bb19150843d861162000e1e5762000e0d818362002f84565b8a6200143a565b62001bd39150843d861162000e1e5762000e0d818362002f84565b8a62001409565b62001bf59150843d861162000e1e5762000e0d818362002f84565b8a620013d8565b62001c179150843d861162000e1e5762000e0d818362002f84565b8a620013a7565b62001c399150843d861162000e1e5762000e0d818362002f84565b8a62001376565b62001c5b9150843d861162000e1e5762000e0d818362002f84565b8a62001345565b62001c7d9150843d861162000e1e5762000e0d818362002f84565b8d62001318565b87513d8c823e3d90fd5b62001ca99150843d861162000e1e5762000e0d818362002f84565b8e620012e2565b8951903d90823e3d90fd5b62001cd69150873d891162000e1e5762000e0d818362002f84565b8d620012ac565b62001cf89150843d861162000e1e5762000e0d818362002f84565b8f6200127a565b8a51903d90823e3d90fd5b62001d259150873d891162000e1e5762000e0d818362002f84565b8d62001245565b89513d8e823e3d90fd5b62001d519150873d891162000e1e5762000e0d818362002f84565b8d62001215565b62001d74919a50853d871162000e1e5762000e0d818362002f84565b988b620011d8565b855162461bcd60e51b815260208187015260196024820152781a195e18985cd94b985b1c9958591e4b9cdd589b5a5d1d1959603a1b6044820152606490fd5b855162461bcd60e51b8152602081870152600e60248201526d139bdd08185d5d1a1bdc9a5e995960921b6044820152606490fd5b600080fd5b509034620006645781600319360112620006645760355490516001600160a01b039091168152602090f35b50346200059a5760203660031901126200059a5762001e3d62002f15565b6006546001600160a01b03919062001e59908316331462002fe0565b1660018060a01b0319600a541617600a5580f35b509034620006645781600319360112620006645760245490516001600160a01b039091168152602090f35b50903462000664578160031936011262000664576020906008549051908152f35b509034620006645781600319360112620006645760095490516001600160a01b039091168152602090f35b50346200059a5760203660031901126200059a5762001f0262002f15565b6006546001600160a01b03919062001f1e908316331462002fe0565b1660018060a01b0319602954161760295580f35b50346200059a5760203660031901126200059a5762001f5062002f15565b6006546001600160a01b03919062001f6c908316331462002fe0565b1660018060a01b0319600b541617600b5580f35b50346200059a5760203660031901126200059a5762001f9e62002f15565b600654906001600160a01b039062001fba828416331462002fe0565b6001600160a01b031990921691161760065580f35b50346200059a5760203660031901126200059a5762001fed62002f15565b6006546001600160a01b03919062002009908316331462002fe0565b1660018060a01b0319602854161760285580f35b50346200059a5760203660031901126200059a576200203b62002f15565b6006546001600160a01b03919062002057908316331462002fe0565b1660018060a01b0319601554161760155580f35b50346200059a5760203660031901126200059a576200208962002f15565b6006546001600160a01b039190620020a5908316331462002fe0565b1660018060a01b0319600d541617600d5580f35b50346200059a5760203660031901126200059a57620020d762002f15565b6006546001600160a01b039190620020f3908316331462002fe0565b1660018060a01b0319602b541617602b5580f35b50346200059a5760203660031901126200059a576200212562002f15565b6006546001600160a01b03919062002141908316331462002fe0565b1660018060a01b0319601054161760105580f35b50346200059a5760203660031901126200059a576200217362002f15565b6006546001600160a01b0391906200218f908316331462002fe0565b1660018060a01b0319601e541617601e5580f35b50346200059a5760203660031901126200059a57620021c162002f15565b6006546001600160a01b039190620021dd908316331462002fe0565b1660018060a01b0319602754161760275580f35b509034620006645781600319360112620006645760035490516001600160a01b039091168152602090f35b50903462000664578160031936011262000664576020805491516001600160a01b03909216825290f35b509034620006645781600319360112620006645760015490516001600160a01b039091168152602090f35b50346200059a5760203660031901126200059a576200228f62002f15565b6006546001600160a01b039190620022ab908316331462002fe0565b1660018060a01b0319601454161760145580f35b509034620006645781600319360112620006645760215490516001600160a01b039091168152602090f35b50346200059a5760203660031901126200059a576200230862002f15565b6006546001600160a01b03919062002324908316331462002fe0565b1660018060a01b0319603254161760325580f35b509034620006645781600319360112620006645760315490516001600160a01b039091168152602090f35b5090346200066457816003193601126200066457601e5490516001600160a01b039091168152602090f35b82903462000bc557602036600319011262000bc55735601b5481101562000bc557601b6000527f3ad8aa4f87544323a9d1e5dd902f40c356527a7955687113db5f9a85ad579dc1015490516001600160a01b03909116815260209150f35b5090346200066457816003193601126200066457602f5490516001600160a01b039091168152602090f35b82903462000bc557602036600319011262000bc55735916017548310156200059a575062000c4f60209262002edd565b509034620006645781600319360112620006645760325490516001600160a01b039091168152602090f35b5090346200066457816003193601126200066457600a5490516001600160a01b039091168152602090f35b50346200059a5760203660031901126200059a57620024bb62002f15565b6006546001600160a01b039190620024d7908316331462002fe0565b1660018060a01b0319600e541617600e5580f35b50346200059a5760203660031901126200059a576200250962002f15565b6006546001600160a01b03919062002525908316331462002fe0565b1660018060a01b0319602454161760245580f35b509034620006645781600319360112620006645760345490516001600160a01b039091168152602090f35b50346200059a5760203660031901126200059a576200258262002f15565b6006546001600160a01b0391906200259e908316331462002fe0565b1660018060a01b0319600754161760075580f35b50346200059a5760203660031901126200059a57620025d062002f15565b6006546001600160a01b039190620025ec908316331462002fe0565b1660018060a01b0319603554161760355580f35b509034620006645781600319360112620006645760025490516001600160a01b039091168152602090f35b509034620006645781600319360112620006645760145490516001600160a01b039091168152602090f35b509034620006645781600319360112620006645760135490516001600160a01b039091168152602090f35b509034620006645781600319360112620006645760365490516001600160a01b039091168152602090f35b50346200059a5760203660031901126200059a57620026ca62002f15565b6006546001600160a01b039190620026e6908316331462002fe0565b1660018060a01b0319602f541617602f5580f35b50346200059a5760203660031901126200059a576200271862002f15565b6006546001600160a01b03919062002734908316331462002fe0565b1660018060a01b0319602054161760205580f35b819234620007e4576020366003190112620007e4576200276762002ea9565b905460039190911b1c6001600160a01b031691823b15620007df5783926024849284519586938492633676bd1f60e01b84528035908401525af1908115620007d65750620007c35750f35b50346200059a5760203660031901126200059a57620027d062002f15565b6006546001600160a01b039190620027ec908316331462002fe0565b1660018060a01b0319602a541617602a5580f35b509034620006645781600319360112620006645760225490516001600160a01b039091168152602090f35b50346200059a5760203660031901126200059a576200284962002f15565b6006546001600160a01b03919062002865908316331462002fe0565b1660018060a01b0319602654161760265580f35b509034620006645781600319360112620006645760235490516001600160a01b039091168152602090f35b50346200059a5760203660031901126200059a57620028c262002f15565b6006546001600160a01b039190620028de908316331462002fe0565b1660018060a01b0319603354161760335580f35b50346200059a5760203660031901126200059a576200291062002f15565b6006546001600160a01b0391906200292c908316331462002fe0565b1660018060a01b0319601354161760135580f35b509034620006645781600319360112620006645760255490516001600160a01b039091168152602090f35b50346200059a5760203660031901126200059a576200298962002f15565b6006546001600160a01b039190620029a5908316331462002fe0565b1660018060a01b0319602354161760235580f35b509034620006645781600319360112620006645760335490516001600160a01b039091168152602090f35b50346200059a5760203660031901126200059a5762002a0262002f15565b6006546001600160a01b03919062002a1e908316331462002fe0565b1660018060a01b0319601c541617601c5580f35b50346200059a5760203660031901126200059a5762002a5062002f15565b6006546001600160a01b03919062002a6c908316331462002fe0565b1660018060a01b0319603054161760305580f35b509034620006645781600319360112620006645760065490516001600160a01b039091168152602090f35b50346200059a5760603660031901126200059a57620008fc62002acd62002f15565b62002ad762002f2c565b62002ae162002f43565b9162002af960018060a01b0360065416331462002fe0565b62003048565b50346200059a5760203660031901126200059a5762002b1d62002f15565b6006546001600160a01b03919062002b39908316331462002fe0565b1660018060a01b0319601f541617601f5580f35b50346200059a5760203660031901126200059a5762002b6b62002f15565b6006546001600160a01b03919062002b87908316331462002fe0565b1660018060a01b0319600954161760095580f35b50346200059a5760203660031901126200059a5762002bb962002f15565b6006546001600160a01b03919062002bd5908316331462002fe0565b1660018060a01b0319601d541617601d5580f35b50346200059a5760203660031901126200059a5762002c0762002f15565b6006546001600160a01b03919062002c23908316331462002fe0565b1660018060a01b0319603454161760345580f35b509034620006645781600319360112620006645760375490516001600160a01b039091168152602090f35b50346200059a5760203660031901126200059a5762002c8062002f15565b6006546001600160a01b03919062002c9c908316331462002fe0565b1660018060a01b0319602d541617602d5580f35b50346200059a5760203660031901126200059a5762002cce62002f15565b6006546001600160a01b03919062002cea908316331462002fe0565b1660018060a01b0319602154161760215580f35b823462000bc5578260031936011262000bc55762002d1b62002ea9565b905460165460039290921b1c6001600160a01b0390811693911562002dc057601685527fd833147d7dc355ba459fc788f669e58cfaf9dc25ddcd0702e87d69c7b5124289548592911690843b1562000bc5576084908385519687948593639fb3953b60e01b855284015260056024840152600a6044840152678ac7230489e8000060648401525af1908115620007d6575062002db5575080f35b620008fc9062002f5a565b634e487b7160e01b855260328252602485fd5b5090346200066457816003193601126200066457602a5490516001600160a01b039091168152602090f35b50346200059a5760203660031901126200059a5762002e1c62002f15565b6006546001600160a01b03919062002e38908316331462002fe0565b1660018060a01b0319602554161760255580f35b82903462000bc557602036600319011262000bc55735916008548310156200059a575062000c4f6020925b60085481101562002e9357600860005260206000200190600090565b634e487b7160e01b600052603260045260246000fd5b6008541562002e9357600860009081527ff3f7a9fe364faab93b216da50a3214154f22a0a2b415b23a84c8169e8b636ee391565b60175481101562002e9357601760005260206000200190600090565b60165481101562002e9357601660005260206000200190600090565b600435906001600160a01b038216820362001def57565b602435906001600160a01b038216820362001def57565b604435906001600160a01b038216820362001def57565b6001600160401b03811162002f6e57604052565b634e487b7160e01b600052604160045260246000fd5b601f909101601f19168101906001600160401b0382119082101762002f6e57604052565b606090600319011262001def576001600160a01b0390600435828116810362001def5791602435908116810362001def579060443590565b1562002fe857565b60405162461bcd60e51b815260206004820152600f60248201526e6f776e2e6e6f6e617574682e44414f60881b6044820152606490fd5b60085490600160401b82101562002f6e57620006d482600162003046940160085562002e77565b565b90601654600160401b81101562002f6e5782620006d482600162003070940160165562002ef9565b6001600160a01b03928391821680620030d7575b501680620030b0575b5016600081815260186020526040902080546001600160a01b0319169091179055565b600090815260186020526040902080546001600160a01b031916828416179055386200308d565b600090815260186020526040902080546001600160a01b0319168484161790553862003084565b9081602091031262001def57516001600160a01b038116810362001def579056fe60803461009757601f611baa38819003918201601f19168301916001600160401b0383118484101761009c5780849260209460405283398101031261009757516001600160a01b038116908190036100975780156100855760018060a01b03193381600154161760015560005416176000556001600255604051611af790816100b38239f35b60405163e6c4247b60e01b8152600490fd5b600080fd5b634e487b7160e01b600052604160045260246000fdfe60806040526004361015610018575b361561001657005b005b60003560e01c80631133b8861461016857806312065fe0146101635780631f185d161461015e5780633b9b7955146101595780636ec35cd5146101545780638da5cb5b1461014f5780638dab13dc1461014a5780639498d88b146101455780639b03bea6146101405780639fb2726b1461013b578063a1f7f53914610136578063ae9568d714610131578063af4845261461012c578063b90306ad14610127578063c54e44b014610122578063d7a83fc61461011d578063e01ad5fd14610118578063e0a9bc2b14610113578063e3d1d5bf1461010e578063f5caf38c146101095763fdc10bc90361000e57610b70565b610b32565b610a92565b610a77565b6109d8565b610999565b61092b565b6108ab565b61087a565b610841565b61078a565b61067a565b610633565b610560565b6104f1565b6104a6565b61038a565b610331565b610205565b6101e9565b6101ab565b6001600160a01b0381160361017e57565b600080fd5b604090600319011261017e5760043561019b8161016d565b906024356101a88161016d565b90565b3461017e57602060ff6101dd6101c036610183565b6001600160a01b0390911660009081526003855260409020610cc5565b54166040519015158152f35b3461017e57600036600319011261017e57602047604051908152f35b3461017e5760208060031936011261017e576004356102238161016d565b600482610239610234600054610c03565b610c03565b604051634bf9c0ad60e11b815292839182905afa80156103195761029292610276926000926102e6575b506102849060405193849187830161031e565b03601f198101845283610d2d565b61028c6117da565b90611992565b9190806102dc575b156102ca5781816102b4926102c69451830101910161166c565b60405190151581529081906020820190565b0390f35b604051633204506f60e01b8152600490fd5b508082511461029a565b61028491925061030b90863d8811610312575b6103038183610d2d565b810190610d50565b9190610263565b503d6102f9565b610d65565b6001600160a01b03909116815260200190565b3461017e57600036600319011261017e576000546040516001600160a01b039091168152602090f35b9181601f8401121561017e578235916001600160401b03831161017e576020808501948460051b01011161017e57565b3461017e57606036600319011261017e5760046001600160401b03813581811161017e576103bb903690840161035a565b9160243581811161017e576103d3903690860161035a565b9160443590811161017e576103eb903690870161035a565b9490936103fd6103f9611681565b1590565b6104955761040a3361175e565b8015610431575b156104205761001696506111e1565b60405163ea8e4eb560e01b81528790fd5b50866020610443610234600054610c03565b604051630536340960e21b815292839182905afa90811561031957600091610477575b506001600160a01b03163314610411565b61048f915060203d8111610312576103038183610d2d565b38610466565b604051634ee2123760e11b81528790fd5b3461017e57600036600319011261017e576001546040516001600160a01b039091168152602090f35b6001600160a01b03918216815291166020820152901515604082015260600190565b3461017e57602036600319011261017e5760043561050e8161016d565b60018060a01b038091166000526006602052806040600020541690600760205260406000205416908060005260036020526102c660ff610552846040600020610cc5565b5416604051938493846104cf565b3461017e57602036600319011261017e5760043561057d8161016d565b6105886103f9611681565b610621576105953361175e565b80156105bc575b156105aa57610016906114e8565b60405163ea8e4eb560e01b8152600490fd5b50600460206105cf610234600054610c03565b604051630536340960e21b815292839182905afa90811561031957600091610603575b506001600160a01b0316331461059c565b61061b915060203d8111610312576103038183610d2d565b386105f2565b604051634ee2123760e11b8152600490fd5b3461017e57602036600319011261017e576004356106508161016d565b60018060a01b031660005260086020526020604060002054604051908152f35b8015150361017e57565b3461017e57608036600319011261017e5760046001600160401b03813581811161017e576106ab903690840161035a565b909160243590811161017e576106c4903690850161035a565b90604435926106d284610670565b6106dd6103f9611681565b610779576106ea3361175e565b8015610715575b156107045761001695506064359461128b565b60405163ea8e4eb560e01b81528690fd5b50856020610727610234600054610c03565b604051630536340960e21b815292839182905afa9081156103195760009161075b575b506001600160a01b031633146106f1565b610773915060203d8111610312576103038183610d2d565b3861074a565b604051634ee2123760e11b81528690fd5b3461017e57600036600319011261017e5760005460405163d1f956b160e01b815290602090829060049082906001600160a01b03165afa908115610319576102c69161081391600091610823575b506040516107e581610cf2565b601381527267657464656c656761746f72436f756e74282960681b602082015261080d610d8c565b91611a65565b6040519081529081906020820190565b61083b915060203d8111610312576103038183610d2d565b386107d8565b3461017e57602061087161085436610183565b6001600160a01b0390911660009081526004845260409020610cc5565b54604051908152f35b3461017e57602036600319011261017e5760206108a160043561089c8161016d565b61175e565b6040519015158152f35b3461017e57602036600319011261017e57600460018060a01b0360206108d48260005416610c03565b604051630536340960e21b815293849182905afa9182156103195760009261090b575b50339116036105aa5761001660043561186b565b61092491925060203d8111610312576103038183610d2d565b90386108f7565b3461017e57602036600319011261017e576004356109488161016d565b803b600061095582610d71565b926109636040519485610d2d565b82845260208401903c602d81511061098757602a602091015160601c604051908152f35b60405163baf3f0f760e01b8152600490fd5b3461017e57602036600319011261017e5760206004356109b88161016d565b60018060a01b038091166000526005825260406000205416604051908152f35b3461017e5760208060031936011261017e57600480356109f78161016d565b60005460405163d1f956b160e01b81526001600160a01b03949093909182918591829088165afa908115610319576102c6946102b494600093610a58575b506040519316818401528252610a4a82610cf2565b610a52611807565b90611a29565b610a70919350823d8411610312576103038183610d2d565b9138610a35565b3461017e57600036600319011261017e5760206108a1611681565b3461017e57610aa036610183565b610aab6103f9611681565b61062157610ab83361175e565b8015610acd575b156105aa576100169161135f565b5060046020610ae0610234600054610c03565b604051630536340960e21b815292839182905afa90811561031957600091610b14575b506001600160a01b03163314610abf565b610b2c915060203d8111610312576103038183610d2d565b38610b03565b3461017e57606036600319011261017e57610016600435610b528161016d565b602435610b5e8161016d565b60443591610b6b83610670565b610e76565b3461017e57600036600319011261017e5760005460405163111ea8c160e21b815290602090829060049082906001600160a01b03165afa908115610319576102c69161081391600091610be5575b50604051610bcb81610cf2565b6005815264616765282960d81b602082015261080d610d8c565b610bfd915060203d8111610312576103038183610d2d565b38610bbe565b6001600160a01b031690565b6001600160a01b0316600090815260036020526040902090565b6001600160a01b0316600090815260056020526040902090565b6001600160a01b0316600090815260066020526040902090565b6001600160a01b0316600090815260076020526040902090565b6001600160a01b0316600090815260046020526040902090565b6001600160a01b0316600090815260086020526040902090565b6001600160a01b0316600090815260096020526040902090565b9060018060a01b0316600052602052604060002090565b634e487b7160e01b600052604160045260246000fd5b604081019081106001600160401b03821117610d0d57604052565b610cdc565b602081019081106001600160401b03821117610d0d57604052565b601f909101601f19168101906001600160401b03821190821017610d0d57604052565b9081602091031261017e57516101a88161016d565b6040513d6000823e3d90fd5b6001600160401b038111610d0d57601f01601f191660200190565b60405190610d9982610d12565b60008252565b60405190610dac82610cf2565b601682527567657455736572546f496e737428616464726573732960501b6020830152565b634e487b7160e01b600052601160045260246000fd5b600019810191908211610df657565b610dd1565b91908203918211610df657565b604051610e1481610d12565b60008152906000368137565b60405190610e2d82610cf2565b601082526f6d61784d61707065644c696d6974282960801b6020830152565b9081602091031261017e575190565b9060018201809211610df657565b91908201809211610df657565b6001600160a01b039392908481161561119f5784831692831561119f57610eb26103f9610eab33610ea685610c0f565b610cc5565b5460ff1690565b61118d57610ec4610234600054610c03565b6040968751809263ab6e844f60e01b825281600460209586935afa801561031957610f1a61023491610f2893600091611170575b508b5190610f0c826102768b8a830161031e565b610f14610d9f565b90611967565b848082518301019101610d50565b1561115f57610f46610f3933610c29565b546001600160a01b031690565b851561108a57166110795780600491610f63610234600054610c03565b895163cfbffe5360e01b815293849182905afa90811561031957610fa2610faf92610fc29460009161105c575b50610f99610e08565b90610f14610e20565b8051810182019101610e4c565b610fbc33610ea685610c77565b54101590565b61104b57600080516020611aa283398151915293949561102f8261100b61104694610fec87610c43565b80546001600160a01b0319166001600160a01b03909216919091179055565b61101833610fec87610c5d565b61102585610fec33610c29565b610ea63391610c77565b6110398154610e5b565b90555192839233846104cf565b0390a2565b855163b111d8ef60e01b8152600490fd5b6110739150833d8511610312576103038183610d2d565b38610f90565b8651632a431ae760e11b8152600490fd5b935093505093949250818116156111595761111c92600080516020611aa2833981519152611107936110be610f3985610c43565b6110f8856110ce610f3982610c5d565b95516001600160a01b03968716815295166020860152600060408601529116929081906060820190565b0390a261111761110782610c43565b80546001600160a01b0319169055565b610c5d565b61112861110733610c29565b61113533610ea683610c77565b5461113d5750565b61114b90610ea63391610c77565b6111558154610de7565b9055565b50505050565b875163d92e233d60e01b8152600490fd5b6111879150863d8811610312576103038183610d2d565b38610ef8565b604051633a3c22ef60e11b8152600490fd5b60405163d92e233d60e01b8152600490fd5b91908110156111c15760051b0190565b634e487b7160e01b600052603260045260246000fd5b356101a88161016d565b93949092919281830361127657600091825b848110611204575050505050505050565b80611270611215600193858c6111b1565b3561121f81610670565b61122a83878c6111b1565b356112348161016d565b848060a01b03168752600360205261125f60408820611254858b8d6111b1565b3590610ea68261016d565b9060ff801983541691151516179055565b016111f3565b6040516001621398b960e31b03198152600490fd5b92918282036112765760005b8281106112a75750505050505050565b851561132d57866112c96112c46112bf84878a6111b1565b6111d7565b610cab565b54036112e15760405163e391354960e01b8152600490fd5b80876112f66112c46112bf600195888b6111b1565b556113028186856111b1565b3561132461131c6113176112bf85898c6111b1565b610c91565b918254610e69565b90555b01611297565b8061133b60019286856111b1565b356113586113506113176112bf85898c6111b1565b918254610dfb565b9055611327565b906001600160a01b0380831690811561119f578216801561119f5703611383575050565b8161142f91611393600094610c91565b5461139d82610c91565b556113b66113ad610f3984610c43565b610fec83610c43565b6113ce6113c5610f3984610c5d565b610fec83610c5d565b6113e681610fec6113e1610f3983610c5d565b610c29565b6113f96113f283610cab565b5491610cab565b558261140482610c91565b556114176111076113e1610f3984610c5d565b61142361110782610c43565b6112c461110782610c5d565b55565b60405190606082016001600160401b03811183821017610d0d5760405260248252636573732960e01b6040837f67657456616c696461746f7244656c656761746f724f6655736572286164647260208201520152565b9081606091031261017e57805161149e8161016d565b91604060208301516114af8161016d565b9201516101a881610670565b604051906114c882610cf2565b6011825270696e636f6d654f6628616464726573732960781b6020830152565b6001600160a01b03908082161561119f57611507610234600054610c03565b6040516318c9774160e21b80825290916020908184600481845afa91821561031957869460009361164d575b50806115756115676040518061154b8b86830161031e565b039661155f601f1998898101845283610d2d565b610f14611432565b828082518301019101611488565b97919990991698169460046040518095819382525afa96871561031957611614610fec966115e389610ea69561162a9c611619998b9960009261162c575b506115d591926115c9604051958692830161031e565b03908101845283610d2d565b6115dd6114bb565b90611a65565b6115ec8a610c91565b556115fa83610fec8b610c43565b61160785610fec8b610c5d565b61125f85610ea685610c0f565b610c77565b6116238154610e5b565b9055610c29565b565b6115d5925061164790843d8611610312576103038183610d2d565b916115b3565b816116659294503d8511610312576103038183610d2d565b9138611533565b9081602091031261017e57516101a881610670565b600054604051634bf9c0ad60e11b81526020918290829060049082906001600160a01b03165afa8015610319576116e991600091611710575b506040516116c781610cf2565b6008815267697353616665282960c01b848201526116e3610d8c565b91611992565b9080611706575b156102ca57816101a8928251830101910161166c565b50818151146116f0565b6117279150833d8511610312576103038183610d2d565b386116ba565b6040519061173a82610cf2565b601582527469735365637572654261736528616464726573732960581b6020830152565b61176c610234600054610c03565b906040518092634bf9c0ad60e11b825281600460209586935afa8015610319576116e992610276926000926117b7575b506117af9060405193849187830161031e565b61028c61172d565b6117af9192506117d390863d8811610312576103038183610d2d565b919061179c565b604051906117e782610cf2565b601182527069735369676e657228616464726573732960781b6020830152565b6040519061181482610cf2565b6018825277697364656c656761746f724e6f646528616464726573732960401b6020830152565b3d15611866573d9061184c82610d71565b9161185a6040519384610d2d565b82523d6000602084013e565b606090565b600061187a6102348254610c03565b9060405180926311be646b60e21b825281600460209586935afa8015610319578280868194938294839161194a575b505af16118b461183b565b50156102ca576004826118ca6102348454610c03565b604051635e09dbe760e01b815292839182905afa908115610319577fcdcc745fe377b103b45fa0cec23ae3ef93d6fc6a84a01f0d18c40b354dd1d5d893611046939261192d575b50506040519384526001600160a01b0316929081906020820190565b6119439250803d10610312576103038183610d2d565b3880611911565b6119619150883d8a11610312576103038183610d2d565b386118a9565b906119729291611992565b906000901561197f575090565b604051915061198d82610d12565b815290565b9190823b15611a10578051906020918263ffffffff60e01b92012016916040519180830193845281519160005b8381106119fc5750505091816119ec60248260009795968897018783820152036004810184520182610d2d565b51915afa6119f861183b565b9091565b8181018301518582016024015282016119bf565b505050600090604051611a2281610d12565b6000815290565b9291611a3791600094611992565b9080611a5a575b611a455750565b6101a89192506020808251830101910161166c565b506020815114611a3e565b9291611a7391600094611992565b9080611a96575b611a815750565b6101a891925060208082518301019101610e4c565b506020815114611a7a56fe73e162dc4d0165c5ab2c676b5ce1e58e8333a5e1b0e75ea3957f2ca0aa8abc2ea264697066735822122056a98afa467f5117e3934693ff60a6e5d3fa30774e36ec6c47f8c52036f0607864736f6c6343000814003360406080815234620001f55762000fe6803803806200001e8162000210565b928339810160a082820312620001f557620000398262000236565b9160206200004981830162000236565b906200005786840162000236565b92620000666060820162000236565b608082015190916001600160401b039190828211620001f557019580601f88011215620001f5578651918211620001fa5760059682881b908580620000ad81850162000210565b809681520192820101928311620001f55785809101915b838310620001da575050506001600160a01b039283169590508515620001c95760018054600080546001600160a01b03191690981788556001600160a81b0319163360ff60a01b191617600160a01b178155978316865260038452888620805460ff199081168a1790915594831686528886208054861689179055821685528785208054851688179055805195855b8781106200016a578951610d9a90816200024c8239f35b8251811015620001b55780821b83018501518416875260028552898720805487168a1790556000198114620001a157880162000153565b634e487b7160e01b87526011600452602487fd5b634e487b7160e01b87526032600452602487fd5b885163e6c4247b60e01b8152600490fd5b8190620001e78462000236565b8152019101908590620000c4565b600080fd5b634e487b7160e01b600052604160045260246000fd5b6040519190601f01601f191682016001600160401b03811183821017620001fa57604052565b51906001600160a01b0382168203620001f55756fe60806040526004361015610018575b361561001657005b005b60003560e01c806312065fe0146101285780631d0c00e4146101235780631f185d161461011e5780633b9b7955146101195780636a276f9d146101145780637df73e271461010f57806384a8d0451461010a5780638da5cb5b14610105578063a1f7f53914610100578063af484526146100fb578063b90306ad146100f6578063c54e44b0146100f1578063dc3163e8146100ec578063e01ad5fd146100e7578063e0a9bc2b146100e2578063ef9eab9d146100dd5763fdc10bc90361000e576108f5565b6108b3565b610835565b610796565b6106f4565b610686565b610606565b61056f565b6104b8565b61048f565b6103ef565b6103ad565b610387565b61035e565b610247565b61018c565b3461014457600036600319011261014457602047604051908152f35b600080fd5b6001600160a01b0381160361014457565b8015150361014457565b60409060031901126101445760043561017c81610149565b906024356101898161015a565b90565b346101445761019a36610164565b60008054604051630536340960e21b8152919392916001600160a01b03916020908290600490829086165afa908115610242578591610214575b508133911603610202576101ff921683526002602052604083209060ff801983541691151516179055565b80f35b60405163ea8e4eb560e01b8152600490fd5b610235915060203d811161023b575b61022d81836109e5565b810190610a08565b386101d4565b503d610223565b610a1d565b34610144576020806003193601126101445760043561026581610149565b60048261027b610276600054610988565b610988565b604051634bf9c0ad60e11b815292839182905afa8015610242576102d4926102b892600092610328575b506102c69060405193849187830161034b565b03601f1981018452836109e5565b6102ce610ac1565b90610c53565b91908061031e575b1561030c5781816102f69261030894518301019101610a7b565b60405191829182901515815260200190565b0390f35b604051633204506f60e01b8152600490fd5b50808251146102dc565b6102c691925061034490863d881161023b5761022d81836109e5565b91906102a5565b6001600160a01b03909116815260200190565b34610144576000366003190112610144576000546040516001600160a01b039091168152602090f35b3461014457600036600319011261014457602060ff60015460a01c166040519015158152f35b34610144576020366003190112610144576004356103ca81610149565b60018060a01b03166000526003602052602060ff604060002054166040519015158152f35b346101445760203660031901126101445760043561040c8161015a565b600460018060a01b0360206104248260005416610988565b604051630536340960e21b815293849182905afa9182156102425760009261046f575b5033911603610202576001805460ff60a01b191691151560a01b60ff60a01b16919091179055005b61048891925060203d811161023b5761022d81836109e5565b9038610447565b34610144576000366003190112610144576001546040516001600160a01b039091168152602090f35b346101445760003660031901126101445760005460405163d1f956b160e01b815290602090829060049082906001600160a01b03165afa908115610242576103089161054191600091610551575b50604051610513816109aa565b601381527267657464656c656761746f72436f756e74282960681b602082015261053b610a44565b91610d26565b6040519081529081906020820190565b610569915060203d811161023b5761022d81836109e5565b38610506565b34610144576020806003193601126101445760043561058d81610149565b60048261059e610276600054610988565b604051634bf9c0ad60e11b815292839182905afa8015610242576102d4926102b8926000926105e3575b506105db9060405193849187830161034b565b6102ce610a90565b6105db9192506105ff90863d881161023b5761022d81836109e5565b91906105c8565b3461014457602036600319011261014457600460018060a01b03602061062f8260005416610988565b604051630536340960e21b815293849182905afa91821561024257600092610666575b503391160361020257610016600435610b52565b61067f91925060203d811161023b5761022d81836109e5565b9038610652565b34610144576020366003190112610144576004356106a381610149565b803b60006106b082610a29565b926106be60405194856109e5565b82845260208401903c602d8151106106e257602a602091015160601c604051908152f35b60405163baf3f0f760e01b8152600490fd5b346101445761070236610164565b60018060a01b03600092600460208386541660405192838092630536340960e21b82525afa908115610242578591610778575b50823391160361020257168252600360205261076081604084209060ff801983541691151516179055565b156107685780f35b6001805460ff60a01b1916905580f35b610790915060203d811161023b5761022d81836109e5565b38610735565b346101445760208060031936011261014457600480356107b581610149565b60005460405163d1f956b160e01b81526001600160a01b03949093909182918591829088165afa90811561024257610308946102f694600093610816575b506040519316818401528252610808826109aa565b610810610aee565b90610cea565b61082e919350823d841161023b5761022d81836109e5565b91386107f3565b3461014457600036600319011261014457610854610276600054610988565b6040518091634bf9c0ad60e11b825281600460209485935afa8015610242576102d491600091610896575b50610888610a57565b610890610a44565b91610c53565b6108ad9150833d851161023b5761022d81836109e5565b3861087f565b34610144576020366003190112610144576004356108d081610149565b60018060a01b03166000526002602052602060ff604060002054166040519015158152f35b346101445760003660031901126101445760005460405163111ea8c160e21b815290602090829060049082906001600160a01b03165afa90811561024257610308916105419160009161096a575b50604051610950816109aa565b6005815264616765282960d81b602082015261053b610a44565b610982915060203d811161023b5761022d81836109e5565b38610943565b6001600160a01b031690565b634e487b7160e01b600052604160045260246000fd5b604081019081106001600160401b038211176109c557604052565b610994565b602081019081106001600160401b038211176109c557604052565b601f909101601f19168101906001600160401b038211908210176109c557604052565b90816020910312610144575161018981610149565b6040513d6000823e3d90fd5b6001600160401b0381116109c557601f01601f191660200190565b60405190610a51826109ca565b60008252565b60405190610a64826109aa565b6008825267697353616665282960c01b6020830152565b9081602091031261014457516101898161015a565b60405190610a9d826109aa565b601582527469735365637572654261736528616464726573732960581b6020830152565b60405190610ace826109aa565b601182527069735369676e657228616464726573732960781b6020830152565b60405190610afb826109aa565b6018825277697364656c656761746f724e6f646528616464726573732960401b6020830152565b3d15610b4d573d90610b3382610a29565b91610b4160405193846109e5565b82523d6000602084013e565b606090565b6000610b616102768254610988565b9060405180926311be646b60e21b825281600460209586935afa80156102425782808681949382948391610c36575b505af1610b9b610b22565b501561030c57600482610bb16102768454610988565b604051635e09dbe760e01b815292839182905afa908115610242577fcdcc745fe377b103b45fa0cec23ae3ef93d6fc6a84a01f0d18c40b354dd1d5d893610c149392610c19575b50506040519384526001600160a01b0316929081906020820190565b0390a2565b610c2f9250803d1061023b5761022d81836109e5565b3880610bf8565b610c4d9150883d8a1161023b5761022d81836109e5565b38610b90565b9190823b15610cd1578051906020918263ffffffff60e01b92012016916040519180830193845281519160005b838110610cbd575050509181610cad602482600097959688970187838201520360048101845201826109e5565b51915afa610cb9610b22565b9091565b818101830151858201602401528201610c80565b505050600090604051610ce3816109ca565b6000815290565b9291610cf891600094610c53565b9080610d1b575b610d065750565b61018991925060208082518301019101610a7b565b506020815114610cff565b9291610d3491600094610c53565b9080610d59575b610d425750565b909150602081805181010312610144576020015190565b506020815114610d3b56fea26469706673582212201b65b1b2c84e717242ef29aa8e2d4847f3a9953fc2e9909a7e182f357626307a64736f6c63430008140033a264697066735822122021d3c94c9bd470b9c356c2a75e81eab4988ad6a72cc5f501a63a9ebeb624a43b64736f6c63430008140033","linkReferences":{}},"methodIdentifiers":{"addOrc1155(address,address,address)":"1477e194","addOrc1155Prime(bytes,address)":"b113bd20","addProposer(address)":"b03cd418","daoassembly()":"d1f956b1","daocore()":"14d8d024","getProposalsCount()":"98e527d3","importRankBusiness(uint256,uint256)":"e981bcad","importuser(uint256)":"3676bd1f","in741()":"ab6e844f","in741Old()":"447aa304","in741Prime()":"a66bcbe2","in741PrimeOld()":"447bf0e2","in741Primev3Old()":"bd811bce","in741Rule()":"cfbffe53","in741RuleOld()":"bb245896","in741RulePrime()":"e1f4cd24","in741RulePrimeOld()":"efed51bb","inDEAD()":"46f991ac","inDeployerAService()":"677494d8","inDeployerAsRoot()":"de433f17","inImportForgePrimeold()":"e7531fc0","inInstance()":"e61dfd58","inInstancePrime()":"af233190","inInstanceStor()":"e09d394d","inNftFactory()":"08a887af","inNftProxy()":"43af1d9d","inOrc1155(uint256)":"b771c896","inOrc1155Old(uint256)":"c16addd0","inOrc1155OldV1(uint256)":"5c727e80","inOrc1155Prime(uint256)":"595e1dd2","inOrc1155PrimeOld()":"a7acacf8","inOrc1155PrimeOldV1()":"b3a86ab0","inOrc1155machinebullold()":"a5b277f2","inPrice()":"d3d1b096","inPrimeData()":"01c0d48b","inPrimeProxy()":"a0b8cbb8","inTransferPrimeold()":"f144dff0","inTransferold()":"c5a90db1","inTreaseryFactory()":"5e09dbe7","inTreaseryTVLMining()":"aa0ddc16","inTreaseryTVLMiningImport()":"21c82677","inTreaseryTVLMiningPrime()":"6b4aefc6","inTreaseryTVLReward()":"64027427","inTreaseryTVLRoyality()":"30125cf5","inTreaseryTVLTour()":"24768d91","inTreaseryTVLValidator()":"9dc969a8","inblank()":"448f3eef","incointransfer()":"1b4fc17b","infactoryold()":"5ad64af1","infactoryprimeold()":"da1be7d0","insafeguard()":"97f3815a","insafeguardOld()":"51ffe4c5","insafeguardPrime()":"af0deb95","insafeguardPrimeOld()":"a7d7fa50","invalidator()":"52b06d64","invalidatorOld()":"6325dd04","mapOldORC1155(address)":"cfaa1f6c","mapOldORC1155Prime(address)":"ed15cbf7","proposals(uint256)":"013cf08b","s1()":"6cc014de","s2()":"a314150f","s3()":"a5d666a9","submit(address,address,address,address,address)":"a11abe2a","testTxnSys()":"050564b3","update741(address)":"aeb14020","update741Old(address)":"236b0402","update741Prime(address)":"fc58f353","update741PrimeOld(address)":"66658584","update741Primev3Old(address)":"8360701d","update741Rule(address)":"753e7d33","update741RuleOld(address)":"507aa64f","update741RulePrime(address)":"cfacc010","update741RulePrimeOld(address)":"74dfe236","updateCoinTransfer(address)":"23db6149","updateDAOAssembly(address)":"45d96de8","updateDAOCore(address)":"891e91a5","updateDEAD(address)":"0a4c9939","updateFactoryOld(address)":"42ac8f79","updateFactoryPrimeOld(address)":"1654f331","updateImportForgePrimeold(address)":"74fad9f9","updateInTransferOld(address)":"a2672aa8","updateInTransferPrimeOld(address)":"069f3e72","updateInstance(address)":"275424d0","updateInstancePrime(address)":"839a47a4","updateInstanceStor(address)":"6fa16598","updateNftProxy(address)":"f6065649","updateOrc1155(address,address,uint256)":"cc7cf18e","updateOrc1155MachineBullOld(address)":"c7bb7d4d","updateOrc1155Prime(address,address,uint256)":"ef140ed3","updateOrc1155PrimeOld(address)":"1a47ded5","updateOrc1155PrimeOldV1(address)":"0c32145a","updatePrice(address)":"96e85ced","updatePrimeData(address)":"335ab5f2","updatePrimeProxy(address)":"4588d010","updateProposals(address,uint256)":"e0cf4e9e","updateSafeguard(address)":"1162a5b1","updateSafeguardOld(address)":"a0449f45","updateSafeguardPrime(address)":"a9d5ae6f","updateSafeguardPrimeOld(address)":"9669f18f","updateTreaseryFactory(address)":"70ee2af8","updateTreaseryTVLMiningImport(address)":"014519e6","updateTreaseryTVLValidator(address)":"4b849a54","updateTreasuryTVLMining(address)":"130fba6d","updateTreasuryTVLMiningPrime(address)":"36c24c46","updateTreasuryTVLReward(address)":"05abae0d","updateTreasuryTVLRoyality(address)":"e2576819","updateTreasuryTVLTour(address)":"1b67970a","updateValidator(address)":"635b2770","updateValidatorOld(address)":"f1cdfda3"},"id":34}