{"abi":[{"type":"constructor","inputs":[{"name":"_hex","type":"address","internalType":"address"},{"name":"_price","type":"address","internalType":"address"},{"name":"_old741","type":"address","internalType":"address"}],"stateMutability":"nonpayable"},{"type":"function","name":"dAOAssembly","inputs":[],"outputs":[{"name":"","type":"address","internalType":"address"}],"stateMutability":"view"},{"type":"function","name":"daocore","inputs":[],"outputs":[{"name":"","type":"address","internalType":"address"}],"stateMutability":"view"},{"type":"function","name":"nested741","inputs":[],"outputs":[{"name":"","type":"address","internalType":"address"}],"stateMutability":"view"},{"type":"function","name":"old741","inputs":[],"outputs":[{"name":"","type":"address","internalType":"address"}],"stateMutability":"view"},{"type":"function","name":"price","inputs":[],"outputs":[{"name":"","type":"address","internalType":"address"}],"stateMutability":"view"}],"bytecode":{"object":"0x6080346101b757601f618daa38819003918201601f19168301926001600160401b03929091838511838610176101a15781606092849260409788528339810103126101b75761004d816101bc565b6100648461005d602085016101bc565b93016101bc565b9160018060a01b03199273c0cee8b561cc4f60869776ca5b0b7a295e04f5af84600154161760015585516113219586820196828810828911176101a15761032583396001600160a01b039485168088526000979092908190036020019088f0801561018357851686600354161760035587516158b4808201908282108483111761018d5760209183916134f6833985815203019088f08015610183578516866002541617600255875191611eb0808401928484109084111761016f579183916020936116468439815203019086f080156101655790838092168560045416176004551683600154161760015516908254161790555161015490816101d18239f35b86513d87823e3d90fd5b634e487b7160e01b89526041600452602489fd5b88513d89823e3d90fd5b634e487b7160e01b8a52604160045260248afd5b634e487b7160e01b600052604160045260246000fd5b600080fd5b51906001600160a01b03821682036101b75756fe608080604052600436101561001357600080fd5b600090813560e01c90816314837455146100f55750806314d8d024146100ce57806345cff900146100a75780635540c5ac146100805763a035b1fe1461005857600080fd5b3461007d578060031936011261007d576001600160a01b036020915416604051908152f35b80fd5b503461007d578060031936011261007d5760206001600160a01b0360015416604051908152f35b503461007d578060031936011261007d5760206001600160a01b0360025416604051908152f35b503461007d578060031936011261007d5760206001600160a01b0360045416604051908152f35b90503461011a578160031936011261011a576020906001600160a01b03600354168152f35b5080fdfea264697066735822122073fe35ee3d6389b2e21106a2230b9f81438e1b39f5a1e23ede0dffd6a1f03c5664736f6c634300081400336080346100ca57601f61132138819003918201601f19168301916001600160401b038311848410176100cf578084926020946040528339810103126100ca57516001600160a01b038116908190036100ca5780156100855760018060a01b0319338160015416176001556000541617600055600060045560405161123b90816100e68239f35b60405162461bcd60e51b815260206004820152601360248201527f6f776e2e696e76616c69642e68657862617365000000000000000000000000006044820152606490fd5b600080fd5b634e487b7160e01b600052604160045260246000fdfe60806040526004361015610018575b361561001657005b005b60003560e01c806312065fe0146101085780631f185d161461010357806325924f34146100fe5780633b9b7955146100f957806361b7fbd9146100f45780638da5cb5b146100ef578063a1f7f539146100ea578063af484526146100e5578063b90306ad146100e0578063c54e44b0146100db578063c89b84fd146100d6578063dbac26e9146100d1578063e01ad5fd146100cc578063e0a9bc2b146100c75763fdc10bc90361000e576109a3565b610904565b61086a565b610827565b610714565b610672565b610552565b610481565b6103c3565b61039c565b6102c5565b610294565b610263565b61013a565b3461012457600036600319011261012457602047604051908152f35b600080fd5b6001600160a01b0381160361012457565b34610124576020806003193601126101245760049081359061015b82610129565b8061017d6101716000546001600160a01b031690565b6001600160a01b031690565b60405194858092634bf9c0ad60e11b82525afa91821561025e576101d161020b936101ed9261021d9660009261022b575b506101df906040519384918783019190916001600160a01b036020820193169052565b03601f198101845283610a19565b6101e7610e98565b90611089565b919080610221575b6101fe90610ed1565b8082518301019101610dff565b60405190151581529081906020820190565b0390f35b50815181146101f5565b6101df91925061025090863d8811610257575b6102488183610a19565b810190610a3b565b91906101ae565b503d61023e565b610a53565b3461012457602036600319011261012457602061028a60043561028581610129565b610b72565b6040519015158152f35b346101245760003660031901126101245760206001600160a01b0360005416604051908152f35b8015150361012457565b34610124576040366003190112610124576004356102e281610129565b6024356102ee816102bb565b6001600160a01b03600092600460208386541660405192838092630536340960e21b82525afa801561025e5761032f91869161037e575b5083163314610d30565b16825260036020526040822060ff1981541660ff8315151617905560001461036b5760045460001981146103665760010160045580f35b610d0c565b6004548015610366576000190160045580f35b610396915060203d8111610257576102488183610a19565b38610325565b346101245760003660031901126101245760206001600160a01b0360015416604051908152f35b3461012457600036600319011261012457600460206001600160a01b03600054166040519283809263d1f956b160e01b82525afa90811561025e5761021d9161045391600091610463575b5060405161041b816109dc565b601381527f67657464656c656761746f72436f756e74282900000000000000000000000000602082015261044d610a7b565b916111c7565b6040519081529081906020820190565b61047b915060203d8111610257576102488183610a19565b3861040e565b3461012457602080600319360112610124576004908135906104a282610129565b806104b86101716000546001600160a01b031690565b60405194858092634bf9c0ad60e11b82525afa91821561025e576101d161020b936105149261021d9660009261052f575b5061050c906040519384918783019190916001600160a01b036020820193169052565b6101e7610e14565b919080610525575b6101fe90610e4d565b508151811461051c565b61050c91925061054b90863d8811610257576102488183610a19565b91906104e9565b3461012457602080600319360112610124576004356001600160a01b0391600092808454169060405191630536340960e21b83528383600481845afa92831561025e5760049385936105ae928992610653575b50163314610d30565b604051928380927f46f991ac0000000000000000000000000000000000000000000000000000000082525afa91821561025e5784808561060595829583958492610636575b50505af16105ff61100e565b5061103e565b60405190815233907fcdcc745fe377b103b45fa0cec23ae3ef93d6fc6a84a01f0d18c40b354dd1d5d890602090a280f35b61064c9250803d10610257576102488183610a19565b38806105f3565b61066b919250853d8711610257576102488183610a19565b90386105a5565b346101245760203660031901126101245760043561068f81610129565b803b600061069c82610a5f565b926106aa6040519485610a19565b82845260208401903c602d8151106106d057602a015160405160609190911c8152602090f35b606460405162461bcd60e51b815260206004820152601360248201527f4e6f742061206d696e696d616c2070726f7879000000000000000000000000006044820152fd5b34610124576000806003193601126108245761073a61017182546001600160a01b031690565b906040519063cfbffe5360e01b82526020928383600481845afa801561025e5761077a85916004958591610807575b50610772610a8e565b61044d610a7b565b916040519485809263ab6e844f60e01b82525afa801561025e5761021d94610453946107df94926107e4575b506107d1906101d16107b6610f1c565b94604051958693840160209093929193604081019481520152565b6107d9610cd3565b906111c7565b610d22565b819250610800906107d1923d8511610257576102488183610a19565b91906107a6565b61081e9150833d8511610257576102488183610a19565b38610769565b80fd5b34610124576020366003190112610124576001600160a01b0360043561084c81610129565b166000526003602052602060ff604060002054166040519015158152f35b3461012457602080600319360112610124576004803561088981610129565b6001600160a01b03928084600054166040519485809263d1f956b160e01b82525afa90811561025e5761021d9461020b946000936108e5575b5060405193168184015282526108d7826109dc565b6108df610fd5565b9061118b565b6108fd919350823d8411610257576102488183610a19565b91386108c2565b34610124576000366003190112610124576001600160a01b03600054166040518091634bf9c0ad60e11b825281600460209384935afa90811561025e5761096b61020b9261021d94600091610986575b5061095d610d7b565b610965610a7b565b91611089565b91908061097c575b6101fe90610db4565b5081518114610973565b61099d9150833d8511610257576102488183610a19565b38610954565b346101245760003660031901126101245760206109be610f1c565b604051908152f35b634e487b7160e01b600052604160045260246000fd5b6040810190811067ffffffffffffffff8211176109f857604052565b6109c6565b6020810190811067ffffffffffffffff8211176109f857604052565b90601f8019910116810190811067ffffffffffffffff8211176109f857604052565b908160209103126101245751610a5081610129565b90565b6040513d6000823e3d90fd5b67ffffffffffffffff81116109f857601f01601f191660200190565b60405190610a88826109fd565b60008252565b60405190610a9b826109dc565b600c82527f72616e6b666f7244414f282900000000000000000000000000000000000000006020830152565b60405190610ad4826109dc565b601682527f67657455736572546f53746f72286164647265737329000000000000000000006020830152565b60405190610b0d826109dc565b600682527f72616e6b282900000000000000000000000000000000000000000000000000006020830152565b60405190610b46826109dc565b600882527f69734c6f636b28290000000000000000000000000000000000000000000000006020830152565b610b876101716000546001600160a01b031690565b9060405163cfbffe5360e01b81526020908181600481875afa801561025e57610bbe83916004936000916108075750610772610a8e565b946040519283809263ab6e844f60e01b82525afa801561025e57610c17928492600092610cb0575b506040516001600160a01b03909316908301908152610c099083906020016101d1565b610c11610ac7565b9061113a565b916001600160a01b03831615610ca857610c5b610c44610c35610b00565b610c3d610a7b565b90866111c7565b93610c4d610b39565b610c55610a7b565b9161118b565b9210159182610c9f575b5081610c6f575090565b610a509150610c94610c9b916001600160a01b03166000526003602052604060002090565b5460ff1690565b1590565b15915038610c65565b505050600090565b819250610ccc90610c09923d8511610257576102488183610a19565b9190610be6565b60405190610ce0826109dc565b601d82527f67657472616e6b636f756e742875696e743235362c75696e74323536290000006020830152565b634e487b7160e01b600052601160045260246000fd5b906003820180921161036657565b15610d3757565b606460405162461bcd60e51b815260206004820152600f60248201527f6f776e2e6e6f6e617574682e44414f00000000000000000000000000000000006044820152fd5b60405190610d88826109dc565b600882527f69735361666528290000000000000000000000000000000000000000000000006020830152565b15610dbb57565b606460405162461bcd60e51b815260206004820152601960248201527f6f776e2e7361666567756172642e63616c6c2e6661696c6564000000000000006044820152fd5b908160209103126101245751610a50816102bb565b60405190610e21826109dc565b601582527f69735365637572654261736528616464726573732900000000000000000000006020830152565b15610e5457565b606460405162461bcd60e51b815260206004820152601a60248201527f6f776e2e736563757265626173652e63616c6c2e6661696c65640000000000006044820152fd5b60405190610ea5826109dc565b601182527f69735369676e65722861646472657373290000000000000000000000000000006020830152565b15610ed857565b606460405162461bcd60e51b815260206004820152601660248201527f6f776e2e7369676e65722e63616c6c2e6661696c6564000000000000000000006044820152fd5b600460206001600160a01b0360005416604051928380927f447aa3040000000000000000000000000000000000000000000000000000000082525afa801561025e57610a5091600091610fb7575b50604051610f77816109dc565b600581527f6167652829000000000000000000000000000000000000000000000000000000602082015260405191610fae836109fd565b600083526111c7565b610fcf915060203d8111610257576102488183610a19565b38610f6a565b60405190610fe2826109dc565b601882527f697364656c656761746f724e6f646528616464726573732900000000000000006020830152565b3d15611039573d9061101f82610a5f565b9161102d6040519384610a19565b82523d6000602084013e565b606090565b1561104557565b606460405162461bcd60e51b815260206004820152600f60248201527f6f776e2e6275726e2e6661696c656400000000000000000000000000000000006044820152fd5b9190823b15611121577fffffffff00000000000000000000000000000000000000000000000000000000815160208093012016916040519180830193845281519160005b83811061110d5750505091816110fa60248260009795968897018783820152036004810184520182610a19565b5191620dbba0fa61110961100e565b9091565b8181018301518582016024015282016110cd565b505050600090604051611133816109fd565b6000815290565b929161114891600094611089565b9080611180575b6111565750565b9091506020818051810103126101245760206001600160a01b0391015161117c81610129565b1690565b50602081511461114f565b929161119991600094611089565b90806111bc575b6111a75750565b610a5091925060208082518301019101610dff565b5060208151146111a0565b92916111d591600094611089565b90806111fa575b6111e35750565b909150602081805181010312610124576020015190565b5060208151146111dc56fea26469706673582212207f7a4ab010501de8da910743fff6ddc1603eae88cabafbeeed4076857fdfb0a764736f6c634300081400336080346100cf57601f611eb038819003918201601f19168301916001600160401b038311848410176100d4578084926020946040528339810103126100cf57516001600160a01b038116908190036100cf57801561008a5760018060a01b031933816001541617600155600054161760005560336003556003600455604051611dc590816100eb8239f35b60405162461bcd60e51b815260206004820152601360248201527f6f776e2e696e76616c69642e68657862617365000000000000000000000000006044820152606490fd5b600080fd5b634e487b7160e01b600052604160045260246000fdfe60806040526004361015610018575b361561001657005b005b60003560e01c8063013cf08b1461016857806312065fe0146101635780631f185d161461015e5780633595df1a146101595780633b9b795514610154578063438596321461014f57806365153c4b1461014a5780638da5cb5b1461014557806398e527d314610140578063995e43391461013b578063a1f7f53914610136578063af48452614610131578063b90306ad1461012c578063c54e44b014610127578063c7f758a814610122578063c9d27afe1461011d578063d153356b14610118578063d3a3084914610113578063e01ad5fd1461010e578063e0a9bc2b146101095763fdc10bc90361000e5761105b565b611040565b611019565b610d89565b610ca0565b610b26565b610ab6565b6109d8565b610903565b6107de565b6107bb565b610737565b610719565b6106f2565b6105e4565b610575565b61054e565b610511565b6104e0565b6104b3565b610402565b6005548110156101a857600b906005600052027f036b6384b5eca791c62761152d0c79bb0604c104a5fb6f4eb0703f3154bb3db00190600090565b634e487b7160e01b600052603260045260246000fd5b90600182811c921680156101ee575b60208310146101d857565b634e487b7160e01b600052602260045260246000fd5b91607f16916101cd565b9060009291805491610209836101be565b91828252600193848116908160001461026b575060011461022b575b50505050565b90919394506000526020928360002092846000945b838610610257575050505001019038808080610225565b805485870183015294019385908201610240565b9294505050602093945060ff191683830152151560051b01019038808080610225565b634e487b7160e01b600052604160045260246000fd5b6020810190811067ffffffffffffffff8211176102c057604052565b61028e565b6040810190811067ffffffffffffffff8211176102c057604052565b90601f8019910116810190811067ffffffffffffffff8211176102c057604052565b9061031e61031792604051938480926101f8565b03836102e1565b565b60005b8381106103335750506000910152565b8181015183820152602001610323565b9060209161035c81518092818552858086019101610320565b601f01601f1916010190565b9892956103ba959e9d9b956103fa99936101809c9661031e9f9a949960408e6001600160a01b036103a46103f09e6101a0808552840190610343565b9516602082015201528c820360608e0152610343565b9e60808b015260a08a015260c089015260e088015261010087015215156101208601526101408501906001600160a01b03169052565b1515610160830152565b019015159052565b346104ae5760203660031901126104ae576004356005548110156104ae576104299061016d565b506040519061043c8261031781846101f8565b6104aa6001600160a01b0392836001840154169360028401549361046260038201610303565b9560048201549160058101546006820154600783015491600a6008850154940154956040519b8c9b8c9760ff8a60b01c169b60ff808c60a81c169c8c60081c169b1699610368565b0390f35b600080fd5b346104ae5760003660031901126104ae57602047604051908152f35b6001600160a01b038116036104ae57565b346104ae5760203660031901126104ae576020610507600435610502816104cf565b611778565b6040519015158152f35b346104ae5760203660031901126104ae57600435600019810190811161054957600561053e60209261016d565b500154604051908152f35b611192565b346104ae5760003660031901126104ae5760206001600160a01b0360005416604051908152f35b346104ae5760403660031901126104ae57600435602435610595816104cf565b6000198201918211610549576105ce60ff9160096105b460209561016d565b5001906001600160a01b0316600052602052604060002090565b54166040519015158152f35b801515036104ae57565b346104ae5760403660031901126104ae57600435602435610604816105da565b61060d33611778565b156106ae57600019820191808311610549576106a961062e6100169461016d565b5061065c60ff6106543360098501906001600160a01b0316600052602052604060002090565b541615611311565b610695600a8201549161067560ff8460b01c16156112c6565b61068160ff8416611230565b600761068b611822565b91015411156113a7565b60081c6001600160a01b031633141561135c565b611401565b606460405162461bcd60e51b815260206004820152601260248201527f6f776e2e696e76616c69642e7369676e657200000000000000000000000000006044820152fd5b346104ae5760003660031901126104ae5760206001600160a01b0360015416604051908152f35b346104ae5760003660031901126104ae576020600554604051908152f35b346104ae5760203660031901126104ae576004356000198101908111610549576107609061016d565b506004810154600682015460078301546008840154600a9094015460408051948552602085019390935291830152606082019290925260ff60a883901c81161515608083015260b09290921c909116151560a082015260c090f35b346104ae5760003660031901126104ae5760206107d66119bc565b604051908152f35b346104ae576020806003193601126104ae576004908135906107ff826104cf565b806108216108156000546001600160a01b031690565b6001600160a01b031690565b60405194858092634bf9c0ad60e11b82525afa9182156108fe576108756108af93610891926104aa966000926108cb575b50610883906040519384918783019190916001600160a01b036020820193169052565b03601f1981018452836102e1565b61088b611670565b90611b77565b9190806108c1575b6108a2906116a9565b808251830101910161159b565b60405190151581529081906020820190565b5081518114610899565b6108839192506108f090863d88116108f7575b6108e881836102e1565b810190611510565b9190610852565b503d6108de565b611528565b346104ae5760203660031901126104ae5760046001600160a01b0360208160005416604051938480927f14d8d0240000000000000000000000000000000000000000000000000000000082525afa9182156108fe576000926109b8575b503391160361097457610016600435611a83565b606460405162461bcd60e51b815260206004820152600f60248201527f6f776e2e6e6f6e617574682e44414f00000000000000000000000000000000006044820152fd5b6109d191925060203d81116108f7576108e881836102e1565b9038610960565b346104ae5760203660031901126104ae576004356109f5816104cf565b803b6000610a0282611534565b92610a1060405194856102e1565b82845260208401903c602d815110610a3657602a015160405160609190911c8152602090f35b606460405162461bcd60e51b815260206004820152601360248201527f4e6f742061206d696e696d616c2070726f7879000000000000000000000000006044820152fd5b93610a936080949796939260a0875260a0870190610343565b966001600160a01b03809316602087015260408601521660608401521515910152565b346104ae5760203660031901126104ae57600435600019810190811161054957610adf9061016d565b506001600160a01b036104aa81600184015416926103176002820154610b10600a84015493604051938480926101f8565b60405195869560ff85169460081c169286610a7a565b346104ae5760403660031901126104ae57600435602435610b46816105da565b610b4f33611778565b8015610c7d575b610b5f906111d6565b610c52610c45610b76610b7185611221565b61016d565b50600a81015490610b8960ff8316611230565b610ba06007820154610b99611822565b111561127b565b610bb060ff8360b01c16156112c6565b610bee6009820192610695610be9610be5610bde3388906001600160a01b0316600052602052604060002090565b5460ff1690565b1590565b611311565b60008515610c78575060015b610c0c60ff60048401921682546111c9565b9055600085610c6a5750610c2b60ff60066001935b01921682546111c9565b9055336001600160a01b0316600052602052604060002090565b805460ff19166001179055565b610c5b33611778565b610c6157005b61001691611401565b60ff6006610c2b9293610c21565b610bfa565b50610c866115b0565b8015610b565750610b5f610c99336118db565b9050610b56565b346104ae5760403660031901126104ae57610cb96115b0565b15610d1757333003610cd357600480356003556024359055005b606460405162461bcd60e51b815260206004820152600d60248201527f64616f2e66616b652e636f7265000000000000000000000000000000000000006044820152fd5b606460405162461bcd60e51b815260206004820152601260248201527f6f776e2e696e76616c69642e69735361666500000000000000000000000000006044820152fd5b9181601f840112156104ae5782359167ffffffffffffffff83116104ae57602083818601950101116104ae57565b346104ae5760a03660031901126104ae5767ffffffffffffffff6004358181116104ae57610dbb903690600401610d5b565b602435610dc7816104cf565b6064358481116104ae57610ddf903690600401610d5b565b9390926001600160a01b03831615610fd55760055491680100000000000000008310156102c057610e1760019384810160055561016d565b509682116102c057610e3382610e2d89546101be565b89611076565b600090601f8311600114610f5b5793600a969383610f42999794610ea694610eb798600092610f50575b5050600019600383901b1c191690821b1787555b8601906001600160a01b03167fffffffffffffffffffffffff0000000000000000000000000000000000000000825416179055565b6044356002850155600384016110ca565b610edd610ed6610ed1610ec86119bc565b600354906111a8565b6111bb565b6064900490565b6008820155610ef5608435610ef0611822565b6111c9565b60078201550180547fffffffffffffffffffffff0000000000000000000000000000000000000000ff163360081b74ffffffffffffffffffffffffffffffffffffffff0016178155610c45565b600554604051908152602090f35b013590503880610e5d565b601f19831691610f7089600052602060002090565b92815b818110610fbf57509484610ea694610eb798948394610f429d9b98600a9d9a10610fa5575b505050811b018755610e71565b0135600019600384901b60f8161c19169055388080610f98565b8383013585559386019360209283019201610f73565b606460405162461bcd60e51b815260206004820152601260248201527f6f776e2e64656661756c742e73656e64657200000000000000000000000000006044820152fd5b346104ae5760203660031901126104ae57602061050760043561103b816104cf565b6118db565b346104ae5760003660031901126104ae5760206105076115b0565b346104ae5760003660031901126104ae5760206107d6611822565b90601f811161108457505050565b600091825260208220906020601f850160051c830194106110c0575b601f0160051c01915b8281106110b557505050565b8181556001016110a9565b90925082906110a0565b90929167ffffffffffffffff81116102c0576110f0816110ea84546101be565b84611076565b6000601f821160011461112a578192939460009261111f575b50508160011b916000199060031b1c1916179055565b013590503880611109565b601f1982169461113f84600052602060002090565b91805b87811061117a575083600195969710611160575b505050811b019055565b0135600019600384901b60f8161c19169055388080611156565b90926020600181928686013581550194019101611142565b634e487b7160e01b600052601160045260246000fd5b8181029291811591840414171561054957565b906063820180921161054957565b9190820180921161054957565b156111dd57565b606460405162461bcd60e51b815260206004820152601660248201527f64616f2e6e6f6e617574682e64656c656761746f7273000000000000000000006044820152fd5b60001981019190821161054957565b1561123757565b606460405162461bcd60e51b815260206004820152601160248201527f64616f2e70726f702e6e6f7465786973740000000000000000000000000000006044820152fd5b1561128257565b606460405162461bcd60e51b815260206004820152601060248201527f64616f2e766f74696e672e656e646564000000000000000000000000000000006044820152fd5b156112cd57565b606460405162461bcd60e51b815260206004820152601560248201527f64616f2e616c72656164792e636f6d706c6574656400000000000000000000006044820152fd5b1561131857565b606460405162461bcd60e51b815260206004820152601160248201527f64616f2e616c72656164792e766f7465640000000000000000000000000000006044820152fd5b1561136357565b606460405162461bcd60e51b815260206004820152601260248201527f64616f2e766f7465722e726573747269637400000000000000000000000000006044820152fd5b156113ae57565b606460405162461bcd60e51b815260206004820152601360248201527f64616f2e6265666f72652e646561646c696e65000000000000000000000000006044820152fd5b60001981146105495760010190565b610b7161140d91611221565b506005810161141c81546113f2565b809155600454148015611508575b611432575050565b6114a96114ce92600a8301611482817601000000000000000000000000000000000000000000007fffffffffffffffffff00ffffffffffffffffffffffffffffffffffffffffffff825416179055565b816114f5575b816114d1579060ff60a81b1960ff60a81b835492151560a81b169116179055565b60018101546001600160a01b03166114c8600360028401549301610303565b90611c95565b50565b60048401546006850154825460ff60a81b1916911160a81b60ff60a81b1617905550565b6004840154600885015411159150611488565b50811561142a565b908160209103126104ae5751611525816104cf565b90565b6040513d6000823e3d90fd5b67ffffffffffffffff81116102c057601f01601f191660200190565b1561155757565b606460405162461bcd60e51b815260206004820152601960248201527f6f776e2e7361666567756172642e63616c6c2e6661696c6564000000000000006044820152fd5b908160209103126104ae5751611525816105da565b6001600160a01b03600054166040518091634bf9c0ad60e11b825281600460209384935afa9182156108fe576115259261163891600091611653575b506040516115f9816102c5565b600881527f6973536166652829000000000000000000000000000000000000000000000000848201526040519161162f836102a4565b60008352611b77565b919080611649575b6108a290611550565b5081518114611640565b61166a9150833d85116108f7576108e881836102e1565b386115ec565b6040519061167d826102c5565b601582527f69735365637572654261736528616464726573732900000000000000000000006020830152565b156116b057565b606460405162461bcd60e51b815260206004820152601a60248201527f6f776e2e736563757265626173652e63616c6c2e6661696c65640000000000006044820152fd5b60405190611701826102c5565b601182527f69735369676e65722861646472657373290000000000000000000000000000006020830152565b1561173457565b606460405162461bcd60e51b815260206004820152601660248201527f6f776e2e7369676e65722e63616c6c2e6661696c6564000000000000000000006044820152fd5b6000546001600160a01b0316604051918291634bf9c0ad60e11b835282600460209485935afa9283156108fe57611525936117e492610875926000926117ff575b506117dc906040519384918783019190916001600160a01b036020820193169052565b61088b6116f4565b9190806117f5575b6108a29061172d565b50815181146117ec565b6117dc91925061181b90863d88116108f7576108e881836102e1565b91906117b9565b600460206001600160a01b0360005416604051928380927f447aa3040000000000000000000000000000000000000000000000000000000082525afa80156108fe57611525916000916118bd575b5060405161187d816102c5565b600581527f61676528290000000000000000000000000000000000000000000000000000006020820152604051916118b4836102a4565b60008352611c0d565b6118d5915060203d81116108f7576108e881836102e1565b38611870565b6001600160a01b039081600054169060405192839263d1f956b160e01b845283600460209586935afa9384156108fe57600094611997575b5060405191168282015281815261196a9061192d816102c5565b604051611939816102c5565b601881527f697364656c656761746f724e6f6465286164647265737329000000000000000084820152600094611b77565b91908061198d575b61197b57505090565b6115259250808251830101910161159b565b5080825114611972565b61196a929194506119b490843d86116108f7576108e881836102e1565b939091611913565b600460206001600160a01b03600054166040519283809263d1f956b160e01b82525afa80156108fe5761152591600091611a35575b506040516119fe816102c5565b601381527f67657464656c656761746f72436f756e742829000000000000000000000000006020820152604051916118b4836102a4565b611a4d915060203d81116108f7576108e881836102e1565b386119f1565b3d15611a7e573d90611a6482611534565b91611a7260405193846102e1565b82523d6000602084013e565b606090565b6000600460206001600160a01b03835416604051928380927f46f991ac0000000000000000000000000000000000000000000000000000000082525afa9081156108fe578284819382938391611b59575b505af1611adf611a53565b5015611b155760405190815233907fcdcc745fe377b103b45fa0cec23ae3ef93d6fc6a84a01f0d18c40b354dd1d5d890602090a2565b606460405162461bcd60e51b815260206004820152600f60248201527f6f776e2e6275726e2e6661696c656400000000000000000000000000000000006044820152fd5b611b71915060203d81116108f7576108e881836102e1565b38611ad4565b803b15611bf4576000927fffffffff000000000000000000000000000000000000000000000000000000008360208695519101201690611be16024604051809360208201958652611bd18151809260208686019101610320565b81010360048101845201826102e1565b5191620dbba0fa611bf0611a53565b9091565b505050600090604051611c06816102a4565b6000815290565b9291611c1b91600094611b77565b9080611c40575b611c295750565b9091506020818051810103126104ae576020015190565b506020815114611c22565b90602082519201517fffffffff00000000000000000000000000000000000000000000000000000000908181169360048110611c8657505050565b60040360031b82901b16169150565b9190916001600160a01b03811615611d4b57600091829184519160208601915af190611cbf611a53565b9115611cc9575090565b805160009190600411611d4557611ce09150611c4b565b815115611cf05750805190602001fd5b6040517f21c09d340000000000000000000000000000000000000000000000000000000081527fffffffff00000000000000000000000000000000000000000000000000000000919091166004820152602490fd5b50611ce0565b606460405162461bcd60e51b815260206004820152601260248201527f6f776e2e696e76616c69642e74617267657400000000000000000000000000006044820152fdfea2646970667358221220b77ead30e81fb9e9ec3c843d81534fb6707afbe1492c47e04582965bc1cb2bf964736f6c63430008140033608034620000d157601f620058b438819003918201601f19168301916001600160401b03831184841017620000d657808492602094604052833981010312620000d157516001600160a01b03811690819003620000d15780156200008c5760018060a01b031933816001541617600155600054161760005560016003556040516157c79081620000ed8239f35b60405162461bcd60e51b815260206004820152601360248201527f6f776e2e696e76616c69642e68657862617365000000000000000000000000006044820152606490fd5b600080fd5b634e487b7160e01b600052604160045260246000fdfe60806040526004361015610018575b361561001657005b005b60003560e01c80629db65514610337578063033eeffb146103325780630e5fd00b1461032d57806312065fe0146103285780631bb49f02146103235780631c53c2801461031e5780631f185d16146103195780632a687c87146103145780632fefc0bf1461030f578063307673e81461030a57806332ff4eab1461030557806333b59a5b146103005780633a7b55b8146102fb5780633b9b7955146102f65780633baee0ea146102f1578063419cb27b146102ec57806342cc9d57146102e757806344585097146102e25780634f0f4aa9146102dd578063509222cd146102d857806350db85d1146102d357806361ea7208146102ce578063629d671e146102c957806365d2fbd3146102c45780636a811244146102bf57806376fe6c45146102ba5780637bb98498146102b557806380f85e33146102b0578063849c22ad146102ab578063896c354a146102a65780638da5cb5b146102a157806395f72f491461029c57806398b3f21514610297578063a1f7f53914610292578063a89d693b1461028d578063af48452614610288578063b1c4907914610283578063b366335e1461027e578063b90306ad14610279578063c54e44b014610274578063c871372b1461026f578063d1e0bbc61461026a578063dcb3fc4a14610265578063e01ad5fd14610260578063e0a9bc2b1461025b578063eb95c66214610256578063eb9e9e2c14610251578063f3ca71241461024c578063fd38093b146102475763fdc10bc90361000e57612cce565b612c5e565b612c32565b6129fb565b6129cf565b6129b4565b61291a565b612711565b6126d7565b612659565b6125b7565b6124fb565b61244b565b6122c9565b6122a2565b612183565b612096565b61206a565b611fc4565b611f9d565b611f5d565b611f2e565b611ef4565b611e4e565b611dfe565b61177b565b611446565b611408565b6113ea565b61132a565b6112d6565b6111e9565b6111b1565b611182565b611148565b610b2d565b610ade565b610972565b61089e565b6107f8565b610727565b6106ef565b610649565b610539565b610504565b61049f565b610483565b610433565b6103f6565b346103f15760203660031901126103f157610358610353615059565b61304f565b6103613361519d565b8015610379575b610371906130bb565b610016614a50565b5060046001600160a01b036020816000541660405193848092630536340960e21b82525afa9081156103ec57610371926000926103bc575b501633149050610368565b6103de91925060203d81116103e5575b6103d68183612d7c565b81019061309a565b90386103b1565b503d6103cc565b6130af565b600080fd5b346103f15760203660031901126103f157600435600052600b6020526020604060002054604051908152f35b6001600160a01b038116036103f157565b346103f15760203660031901126103f157602060043561045281610422565b6001600160a01b03809116600052600482526040600020546000526007825260046040600020015416604051908152f35b346103f15760003660031901126103f157602047604051908152f35b346103f15760203660031901126103f1576004356104bc81610422565b6001600160a01b0390811660009081526004602090815260408083205483526007825280832060020154808452600583529281902054815193845290931690820152f35b0390f35b346103f15760203660031901126103f157600435600052600560205260206001600160a01b0360406000205416604051908152f35b346103f1576020806003193601126103f15760049081359061055a82610422565b8061057c6105706000546001600160a01b031690565b6001600160a01b031690565b60405194858092634bf9c0ad60e11b82525afa9182156103ec576105d061060a936105ec9261050096600092610626575b506105de906040519384918783019190916001600160a01b036020820193169052565b03601f198101845283612d7c565b6105e6615247565b906154f3565b91908061061c575b6105fd90615280565b8082518301019101615045565b60405190151581529081906020820190565b50815181146105f4565b6105de91925061064290863d88116103e5576103d68183612d7c565b91906105ad565b346103f15760403660031901126103f157610665610353615059565b61066e3361519d565b801561068c575b61067e906130bb565b610016602435600435614ddb565b5060046001600160a01b036020816000541660405193848092630536340960e21b82525afa9081156103ec5761067e926000926106cf575b501633149050610675565b6106e891925060203d81116103e5576103d68183612d7c565b90386106c4565b346103f15760203660031901126103f157600435600052600760205260206001600160a01b0360056040600020015416604051908152f35b346103f15760203660031901126103f157600435600090338252600460205261076d6107686040842054600052600760205260ff6001604060002001541690565b613b55565b808252601060205260ff600260408420015460081c16156107b45761079f6107b1916000526010602052604060002090565b60026000918281558260018201550155565b80f35b606460405162461bcd60e51b815260206004820152601360248201527f6e65737465642e7265712e6e6f746578697374000000000000000000000000006044820152fd5b346103f15760403660031901126103f157610814610353615059565b61081d3361519d565b801561083b575b61082d906130bb565b610016602435600435614e2f565b5060046001600160a01b036020816000541660405193848092630536340960e21b82525afa9081156103ec5761082d9260009261087e575b501633149050610824565b61089791925060203d81116103e5576103d68183612d7c565b9038610873565b346103f15760403660031901126103f1576108ba610353615059565b6108c33361519d565b80156108e1575b6108d3906130bb565b610016602435600435614ecb565b5060046001600160a01b036020816000541660405193848092630536340960e21b82525afa9081156103ec576108d392600092610924575b5016331490506108ca565b61093d91925060203d81116103e5576103d68183612d7c565b9038610919565b60e0810192916000915b6007831061095b57505050565b60019082518152602080910192019201919061094e565b346103f15760203660031901126103f157610500600435610acc610abc6040519261099c84612d28565b60e03685376109c86109b8826000526009602052604060002090565b6001600052602052604060002090565b5484526109f26109e2826000526009602052604060002090565b6002600052602052604060002090565b546020850152610a1f610a0f826000526009602052604060002090565b6003600052602052604060002090565b546040850152610a4c610a3c826000526009602052604060002090565b6004600052602052604060002090565b546060850152610a79610a69826000526009602052604060002090565b6005600052602052604060002090565b546080850152610aa6610a96826000526009602052604060002090565b6006600052602052604060002090565b5460a08501526000526009602052604060002090565b6007600052602052604060002090565b5460c082015260405191829182610944565b346103f15760003660031901126103f15760206001600160a01b0360005416604051908152f35b60409060031901126103f157600435610b1d81610422565b90602435610b2a81610422565b90565b346103f157610b8b610b3e36610b05565b610b46613014565b610b5f610b51612dcd565b610b59612de5565b33615589565b610b72610b6a612dcd565b610b59612e1e565b906001600160a01b039485918285169283911614612e57565b610bb060009286610ba8610570828754166001600160a01b031690565b911614612ea2565b610bbb8115156139da565b610bd8836001600160a01b03166000526004602052604060002090565b5415801561113d575b610bea90613a25565b610c12610c0a856001600160a01b03166000526004602052604060002090565b541515613a70565b6004610c586005610c4a610c39886001600160a01b03166000526004602052604060002090565b546000526007602052604060002090565b01546001600160a01b031690565b92604092835197610cc16020997f880cdc31000000000000000000000000000000000000000000000000000000008b82015280610ca88a602483019190916001600160a01b036020820193169052565b0397610cbc601f19998a8101845283612d7c565b61569c565b50610ce961057085610c4a610c398c6001600160a01b03166000526004602052604060002090565b15610fec57610d58610d1585610c4a610c398c6001600160a01b03166000526004602052604060002090565b86517f0399c93c000000000000000000000000000000000000000000000000000000008c82015233602482015290610cbc82604481015b038a8101845283612d7c565b505b610d77886001600160a01b03166000526004602052604060002090565b54610d95886001600160a01b03166000526004602052604060002090565b55610df387610dcb610dba8b6001600160a01b03166000526004602052604060002090565b546000526005602052604060002090565b906001600160a01b031673ffffffffffffffffffffffffffffffffffffffff19825416179055565b610e413385610e18610c398b6001600160a01b03166000526004602052604060002090565b01906001600160a01b031673ffffffffffffffffffffffffffffffffffffffff19825416179055565b871603610fc8575b610e66856001600160a01b03166000526004602052604060002090565b5495610e816005610c4a896000526007602052604060002090565b97610ebd610eb06002610e9e8b6000526007602052604060002090565b01546000526005602052604060002090565b546001600160a01b031690565b9581610ed361057086546001600160a01b031690565b8751968780927f52b06d640000000000000000000000000000000000000000000000000000000082525afa9182156103ec5761050098610f70967fe1430d4f000000000000000000000000000000000000000000000000000000009694610fa1575b508751918201959095526001600160a01b0393841660248201529290931660448301529091610cbc9083606481015b03908101845283612d7c565b50610f7b6001600355565b519283526001600160a01b03938416602084015290921660408201529081906060820190565b610cbc945090610fc0610f6492843d86116103e5576103d68183612d7c565b945090610f35565b80610fe6876001600160a01b03166000526004602052604060002090565b55610e49565b8861100161057085546001600160a01b031690565b86519586809263111ea8c160e21b82525afa80156103ec5788611058916004968691611120575b5087516001600160a01b03909216828d0190815261104a908390602001610d4c565b611052613abb565b90615589565b818116151580611116575b61106e575b50610d5a565b85517f4fb2e45d000000000000000000000000000000000000000000000000000000008b8201523360248201526044888101825261110f92916110bb916110b59082612d7c565b8261569c565b508651907fa3e884b0000000000000000000000000000000000000000000000000000000008c830152610cbc82610d4c60248201906007606060808401936000815260006020820152600060408201520152565b5038611068565b5080311515611063565b61113791508c8d3d106103e5576103d68183612d7c565b38611028565b508385168114610be1565b346103f15760203660031901126103f1576020611178600435600052600760205260ff6001604060002001541690565b6040519015158152f35b346103f15760203660031901126103f15760043560005260076020526020600360406000200154604051908152f35b346103f15760203660031901126103f157600435600052600760205260206001600160a01b0360046040600020015416604051908152f35b346103f15760203660031901126103f15760043580600052600760205260406000205460056020526105006001600160a01b03806040600020541693600760205260406000209160046002840154930154166112546005610c4a846000526007602052604060002090565b90600361128c61127b6001611273876000526007602052604060002090565b015460ff1690565b946000526007602052604060002090565b01549360405197889788939160c09591989796939260e086019986526001600160a01b03938480931660208801526040870152166060850152166080830152151560a08201520152565b346103f15760203660031901126103f1576001600160a01b036004356112fb81610422565b1660005260046020526040600020546000526007602052602060ff600160406000200154166040519015158152f35b346103f15761133836610b05565b611343610353615059565b61134c3361519d565b8015611380575b91611360611365936130bb565b613106565b604080519283526001600160a01b0391909116602083015290f35b506001600160a01b039160046020846000541660405192838092630536340960e21b82525afa80156103ec5761136594611360926000926113ca575b503391161491935050611353565b6113e391925060203d81116103e5576103d68183612d7c565b90386113bc565b346103f15760003660031901126103f1576020600654604051908152f35b346103f15760203660031901126103f1576001600160a01b0360043561142d81610422565b1660005260046020526020604060002054604051908152f35b346103f15760203660031901126103f157600435600161147c61147782611273856000526007602052604060002090565b61392e565b611490826000526010602052604060002090565b906002908183019260ff8454818160081c1680611772575b6114b190613e80565b60101c1661166857506114db826114d2866000526007602052604060002090565b01541515613f16565b6000815b61152b575b505060009061151861001694611508611502865460ff9060101c1690565b82613fae565b6000526007602052604060002090565b0155805462ff0000191662010000179055565b60038061155885611546896000526007602052604060002090565b01546000526007602052604060002090565b01548210156116625785611592611588848461158289611546876000526007602052604060002090565b016137f3565b90549060031b1c90565b146115a757506115a1906135eb565b816114df565b839250946116588661163a611518946116216116076115886100169c6115dd60009c6115468b6000526007602052604060002090565b01611601876115fa8d6115468d6000526007602052604060002090565b0154613303565b906137f3565b91846115828a6115468a6000526007602052604060002090565b90919082549060031b91821b91600019901b1916179055565b61165285611546856000526007602052604060002090565b01613f61565b94508192506114e4565b506114e4565b826116ea6116e461079f966116da8960036116d4611761996105d0996116a86100169f9d6116a0876000526007602052604060002090565b015415613ecb565b0197885480916116c2866000526007602052604060002090565b01556000526007602052604060002090565b01613810565b5460101c60ff1690565b85613fae565b610cbc61171e610eb061170c6004610c4a896000526007602052604060002090565b93546000526005602052604060002090565b6040517f1499c5920000000000000000000000000000000000000000000000000000000060208201526001600160a01b0390911660248201529283906044820190565b506000526010602052604060002090565b508082166114a8565b346103f1576040806003193601126103f15760048035611799613014565b6117b56114776001611273846000526007602052604060002090565b6117da6117d361057084610c4a856000526007602052604060002090565b3314613af4565b6117e2613365565b6117fb6005610c4a836000526007602052604060002090565b60025490845161186f6118616020927f02a085f200000000000000000000000000000000000000000000000000000000848201528061184d602497883589840160209093929193604081019481520152565b0394610cbc601f1996878101845283612d7c565b82808251830101910161434f565b9486865194878361188586830198895190613007565b97611895858401998a5190613007565b6118a56060850191825190613007565b91886118b76080870194855190613007565b976118c860a08801998a5190613007565b966118e16118dc60c08301998a5190613007565b614d81565b51611d22575b8251611c2e575b5050508051611b3c575b508051611a5b575b505061190f8351825190613007565b611951575b89896105006101008a61192c8d60e086015190614459565b519201519261193b6001600355565b5191825260208201929092529081906040820190565b8461196d61057060009a969799989a546001600160a01b031690565b8b51968780927f24768d910000000000000000000000000000000000000000000000000000000082525afa80156103ec5761050098610100988c611a179663a9059cbb60e01b96899661192c9b600097611a22575b50906119f2610f649493926119e8610eb0610cbc9a9b6000526005602052604060002090565b9351905190613007565b92519889958601528401602090939291936001600160a01b0360408201951681520152565b509382933880611914565b610cbc9750610f64949392916119e8610eb0611a4d6119f2948a3d8c116103e5576103d68183612d7c565b9a50505091929394506119c2565b86611a716105706000546001600160a01b031690565b8d51938480927f9dc969a80000000000000000000000000000000000000000000000000000000082525afa9182156103ec57611b05928d928c928a600093611b0d575b5050610d4c611ad4610eb0610cbc94956000526005602052604060002090565b9151945194859263a9059cbb60e01b8d850152898401602090939291936001600160a01b0360408201951681520152565b508338611900565b610cbc9350610eb0611b32610d4c9383611ad494903d106103e5576103d68183612d7c565b945050508a611ab4565b91878d611b546105706000546001600160a01b031690565b9051928380927faa0ddc160000000000000000000000000000000000000000000000000000000082525afa9081156103ec578b611bf6928f8b908b9763a9059cbb60e01b95600094611bfd575b5090611bea91611bc2610eb0610cbc96976000526005602052604060002090565b905191519687948501528b8401602090939291936001600160a01b0360408201951681520152565b038c8101845283612d7c565b50386118f8565b610cbc945090611bc2610eb0611c23611bea9594873d89116103e5576103d68183612d7c565b965050509091611ba1565b611c466105706000979497546001600160a01b031690565b9051928380927f30125cf50000000000000000000000000000000000000000000000000000000082525afa9081156103ec578c8f928b611ce8948c9863a9059cbb60e01b95600094611cf1575b5090611cdc91611cb4610eb0610cbc96976000526005602052604060002090565b905191519687948501528c8401602090939291936001600160a01b0360408201951681520152565b038d8101845283612d7c565b5038888e6118ee565b610cbc945090611cb4610eb0611d17611cdc9594873d89116103e5576103d68183612d7c565b965050509091611c93565b611d376105706000546001600160a01b031690565b9051958680927f640274270000000000000000000000000000000000000000000000000000000082525afa9384156103ec578e611dcb8f8f8c988f8f968d90600093611dd1575b50610f64611d9d610eb0610cbc95966000526005602052604060002090565b9551885163a9059cbb60e01b8b8201526001600160a01b039097169287019283526020830152859160400190565b506118e7565b610cbc9350611d9d610eb0611df5610f64938c8d3d106103e5576103d68183612d7c565b95505050611d7e565b346103f15760203660031901126103f1576020600435611e1d81610422565b6001600160a01b03809116600052600482526040600020546000526007825260056040600020015416604051908152f35b346103f15760403660031901126103f157611e6a610353615059565b611e733361519d565b8015611e91575b611e83906130bb565b610016602435600435613d8e565b5060046001600160a01b036020816000541660405193848092630536340960e21b82525afa9081156103ec57611e8392600092611ed4575b501633149050611e7a565b611eed91925060203d81116103e5576103d68183612d7c565b9038611ec9565b346103f15760403660031901126103f157600435600052600860205260406000206024356000526020526020604060002054604051908152f35b346103f15760203660031901126103f15760043560005260076020526020600260406000200154604051908152f35b346103f15760403660031901126103f15760043560005260076020526020611f8e60243560036040600020016137f3565b90549060031b1c604051908152f35b346103f15760003660031901126103f15760206001600160a01b0360015416604051908152f35b346103f15760403660031901126103f157611fe0610353615059565b611fe93361519d565b8015612007575b611ff9906130bb565b610016602435600435614e05565b5060046001600160a01b036020816000541660405193848092630536340960e21b82525afa9081156103ec57611ff99260009261204a575b501633149050611ff0565b61206391925060203d81116103e5576103d68183612d7c565b903861203f565b346103f15760203660031901126103f157600435600052600f6020526020604060002054604051908152f35b346103f15760003660031901126103f157600460206001600160a01b03600054166040519283809263d1f956b160e01b82525afa9081156103ec576105009161212691600091612136575b506040516120ee81612d44565b601381527f67657464656c656761746f72436f756e742829000000000000000000000000006020820152612120612dba565b91615616565b6040519081529081906020820190565b61214e915060203d81116103e5576103d68183612d7c565b386120e1565b610100810192916000915b6008831061216c57505050565b60019082518152602080910192019201919061215f565b346103f15760203660031901126103f157610500600435612290610abc6121a8614d04565b926121cf6121c0826000526008602052604060002090565b60008052602052604060002090565b5484526121e96109b8826000526008602052604060002090565b5460208501526122066109e2826000526008602052604060002090565b546040850152612223610a0f826000526008602052604060002090565b546060850152612240610a3c826000526008602052604060002090565b54608085015261225d610a69826000526008602052604060002090565b5460a085015261227a610a96826000526008602052604060002090565b5460c08501526000526008602052604060002090565b5460e082015260405191829182612154565b346103f15760203660031901126103f15760206111786004356122c481610422565b61519d565b346103f1576123d76122da36610b05565b906122e3613014565b61232c6122f1610b51612dcd565b6122fc610b6a612dcd565b906123156001600160a01b039182808816911614612e57565b610ba861057082600054166001600160a01b031690565b6123596123546001611273610c39856001600160a01b03166000526004602052604060002090565b612eed565b6123c86123be6123af6123876005610c4a610c39876001600160a01b03166000526004602052604060002090565b604051906123a1826105d060208201906000602083019252565b6123a9612f38565b906154c8565b60208082518301019101612f71565b5050501515612f93565b6123d061331f565b33906135fa565b6123f06121c06002546000526008602052604060002090565b6123fa8154612ff4565b9055612404614dad565b61241d6005610c4a836000526007602052604060002090565b9061242781613979565b6124316001600355565b604080519182526001600160a01b03929092166020820152f35b346103f15760203660031901126103f157612467610353615059565b6124703361519d565b801561248b575b612480906130bb565b6100166004356133a8565b50600460206124a56105706000546001600160a01b031690565b60405192838092630536340960e21b82525afa80156103ec57612480916000916124dd575b506001600160a01b031633149050612477565b6124f5915060203d81116103e5576103d68183612d7c565b386124ca565b346103f15760203660031901126103f15760046001600160a01b036020816000541660405193848092630536340960e21b82525afa9182156103ec57600092612597575b5033911603612553576100166004356153d4565b606460405162461bcd60e51b815260206004820152600f60248201527f6f776e2e6e6f6e617574682e44414f00000000000000000000000000000000006044820152fd5b6125b091925060203d81116103e5576103d68183612d7c565b903861253f565b346103f15760203660031901126103f1576004356125d481610422565b803b60006125e182612d9e565b926125ef6040519485612d7c565b82845260208401903c602d81511061261557602a015160405160609190911c8152602090f35b606460405162461bcd60e51b815260206004820152601360248201527f4e6f742061206d696e696d616c2070726f7879000000000000000000000000006044820152fd5b60403660031901126103f157600435612670613014565b600090808252600760205261268e60ff60016040852001541661392e565b815260076020526126ce6001600160a01b036005604084200154166040519062a0e53360e51b6020830152602435602483015260248252610cbc82612d07565b50600160035580f35b346103f15760403660031901126103f157600435600052600a60205260406000206024356000526020526020604060002054604051908152f35b346103f15760c03660031901126103f15760243560043561273182610422565b6064359060843590612741613014565b61275d6114776001611273846000526007602052604060002090565b61277c6117d36105706004610c4a856000526007602052604060002090565b612784613365565b61278d82614d29565b61279683614d55565b6128436128356128216127b86005610c4a866000526007602052604060002090565b966040519182916020977f932ca2d600000000000000000000000000000000000000000000000000000000898501528960a435926044359060248701919260809396959491966001600160a01b0360a08501981684526020840152604083015260608201520152565b0396610cbc601f1998898101845283612d7c565b838082518301019101613b3f565b929080612861575b5050612857935061478a565b6100166001600355565b6004908261287a6105706000546001600160a01b031690565b604051938480927f5e09dbe70000000000000000000000000000000000000000000000000000000082525afa80156103ec57612857976128ed9463a9059cbb60e01b946000936128f5575b5060405190810194909452336024850152604484019290925290610cbc908360648101610f64565b50388061284b565b610cbc9350612913610f6491833d85116103e5576103d68183612d7c565b93506128c5565b346103f1576020806003193601126103f1576004803561293981610422565b6001600160a01b03928084600054166040519485809263d1f956b160e01b82525afa9081156103ec576105009461060a94600093612995575b50604051931681840152825261298782612d44565b61298f61536b565b906155da565b6129ad919350823d84116103e5576103d68183612d7c565b9138612972565b346103f15760003660031901126103f1576020611178615059565b346103f15760203660031901126103f157600435600052600c6020526020604060002054604051908152f35b346103f15760403660031901126103f15760043560243590612a4e610768612a36336001600160a01b03166000526004602052604060002090565b54600052600760205260ff6001604060002001541690565b612a6a6114776001611273846000526007602052604060002090565b612a8b612a866001611273856000526007602052604060002090565b613ba0565b612aa46005610c4a846000526007602052604060002090565b600483604051612aea6123be612adc60209380612ac8868201906000602083019252565b03976123a1601f19998a8101845283612d7c565b838082518301019101612f71565b612afe856000526010602052604060002090565b93612b6a6002860196612b25612b20612b1c8a5460ff9060081c1690565b1590565b613beb565b6040517f7bb984980000000000000000000000000000000000000000000000000000000085820152602481019190915260448101989098526064828101895288612d7c565b81612b806105706000546001600160a01b031690565b60405195868092630536340960e21b82525afa9384156103ec5761001697612c0095612bed93610f6493600092612c11575b50610cbc91926040519485917fd3a3084900000000000000000000000000000000000000000000000000000000898401523060248401613c59565b9160018501558082518301019101613d00565b9055805461ff001916610100179055565b610cbc9250612c2c90873d89116103e5576103d68183612d7c565b91612bb2565b346103f15760203660031901126103f157600435600052600e6020526020604060002054604051908152f35b346103f1576040806003193601126103f1576001600160a01b03600435612c8481610422565b16600081815260046020818152848320548352600b815284832054938352908152838220548252600a81528382206024358352815290839020549251918252810191909152604090f35b346103f15760003660031901126103f1576020612ce96152cb565b604051908152f35b634e487b7160e01b600052604160045260246000fd5b6060810190811067ffffffffffffffff821117612d2357604052565b612cf1565b60e0810190811067ffffffffffffffff821117612d2357604052565b6040810190811067ffffffffffffffff821117612d2357604052565b6020810190811067ffffffffffffffff821117612d2357604052565b90601f8019910116810190811067ffffffffffffffff821117612d2357604052565b67ffffffffffffffff8111612d2357601f01601f191660200190565b60405190612dc782612d60565b60008252565b604051612dd981612d60565b60008152906000368137565b60405190612df282612d44565b600782527f6f776e65722829000000000000000000000000000000000000000000000000006020830152565b60405190612e2b82612d44565b600c82527f67657448657862617365282900000000000000000000000000000000000000006020830152565b15612e5e57565b606460405162461bcd60e51b815260206004820152601760248201527f6e65737465642e696e76616c69642e696e7374616e63650000000000000000006044820152fd5b15612ea957565b606460405162461bcd60e51b815260206004820152601660248201527f6e65737465642e696e76616c69642e68657862617365000000000000000000006044820152fd5b15612ef457565b606460405162461bcd60e51b815260206004820152601860248201527f6e65737465642e706172656e742e6e6f742e65786973747300000000000000006044820152fd5b60405190612f4582612d44565b601282527f6765744e6f64654c422875696e743235362900000000000000000000000000006020830152565b91908260809103126103f1578151916020810151916060604083015192015190565b15612f9a57565b606460405162461bcd60e51b815260206004820152601960248201527f6e65737465642e706172656e742e6e6f2e627573696e657373000000000000006044820152fd5b634e487b7160e01b600052601160045260246000fd5b906001820180921161300257565b612fde565b9190820180921161300257565b600260035414613025576002600355565b60046040517f3ee5aeb5000000000000000000000000000000000000000000000000000000008152fd5b1561305657565b606460405162461bcd60e51b815260206004820152601260248201527f6f776e2e696e76616c69642e69735361666500000000000000000000000000006044820152fd5b908160209103126103f15751610b2a81610422565b6040513d6000823e3d90fd5b156130c257565b606460405162461bcd60e51b815260206004820152601b60248201527f6f776e2e6e6f6e617574682e44414f6f725365637572656261736500000000006044820152fd5b6131b292916131b8600492613119613014565b613149613144612b1c6001611273610c39886001600160a01b03166000526004602052604060002090565b6135a0565b61315c6131576006546135eb565b600655565b60065495869161317a85610dcb856000526005602052604060002090565b82613198866001600160a01b03166000526004602052604060002090565b556001600160a01b03166000526004602052604060002090565b54613838565b6131ee826131d0866000526007602052604060002090565b0173ffffffffffffffffffffffffffffffffffffffff198154169055565b60206132056105706000546001600160a01b031690565b6040519384809263e09d394d60e01b82525afa80156103ec5761323761324d916132b6946000916132e5575b5061375d565b6005610e18876000526007602052604060002090565b6132666005610c4a866000526007602052604060002090565b610cbc61327e6105706000546001600160a01b031690565b6040516352902c5960e01b60208201526001600160a01b039182166024820152931660448401526064830186905282608481016105d0565b508160005260076020526001600160a01b0360056040600020015416916132dc81613979565b91906001600355565b6132fd915060203d81116103e5576103d68183612d7c565b38613231565b60001981019190821161300257565b9190820391821161300257565b6133276152cb565b6002541061333f575b61333d60056002546133f1565b565b6133476152cb565b8060025560001981019081116130025761336090614bbe565b613330565b61336d6152cb565b60025410613382575b61333d600280546133f1565b61338a6152cb565b806002556000198101908111613002576133a390614bbe565b613376565b6133b06152cb565b600254106133c5575b61333d906002546133f1565b6133cd6152cb565b90816002556000198201918211613002576133ea61333d92614bbe565b90506133b9565b906134096121c0836000526008602052604060002090565b541580613596575b8061358d575b61341f575050565b61343b9061343561342f84613303565b91613303565b906133f1565b61345a6121c061344a83613303565b6000526008602052604060002090565b546134726121c0836000526008602052604060002090565b556134826109b861344a83613303565b5461349a6109b8836000526008602052604060002090565b556134aa6109e261344a83613303565b546134c26109e2836000526008602052604060002090565b556134d2610a0f61344a83613303565b546134ea610a0f836000526008602052604060002090565b556134fa610a3c61344a83613303565b54613512610a3c836000526008602052604060002090565b55613522610a6961344a83613303565b5461353a610a69836000526008602052604060002090565b5561354a610a9661344a83613303565b54613562610a96836000526008602052604060002090565b5561358a610abc613578610abc61344a85613303565b54926000526008602052604060002090565b55565b50801515613417565b5060018211613411565b156135a757565b606460405162461bcd60e51b815260206004820152601560248201527f6e65737465642e616c72656164792e65786973747300000000000000000000006044820152fd5b60001981146130025760010190565b9161369260049261367d6131b295613633613144612b1c6001611273610c398a6001600160a01b03166000526004602052604060002090565b6136416131576006546135eb565b60065496879161365f87610dcb856000526005602052604060002090565b82613198886001600160a01b03166000526004602052604060002090565b83610e18866000526007602052604060002090565b60206136a96105706000546001600160a01b031690565b6040519384809263e09d394d60e01b82525afa80156103ec576136da6136f091613759946000916132e5575061375d565b6005610e18866000526007602052604060002090565b6137096005610c4a856000526007602052604060002090565b610cbc6137216105706000546001600160a01b031690565b6040516352902c5960e01b60208201526001600160a01b039182166024820152931660448401526064830185905282608481016105d0565b5090565b6e5af43d82803e903d91602b57fd5bf390763d602d80600a3d3981f3363d3d373d3d3d363d7300000062ffffff8260881c161760005260781b17602052603760096000f0906001600160a01b038216156137b357565b60046040517fb06ebf3d000000000000000000000000000000000000000000000000000000008152fd5b634e487b7160e01b600052603260045260246000fd5b805482101561380b5760005260206000200190600090565b6137dd565b9081549168010000000000000000831015612d23578261162191600161333d950181556137f3565b919091600092808452602091600783526040808620956002948386890155846001988981018a60ff19825416179055558761387d86600052600a602052604060002090565b83805282528489858520555b61389857505050505050509050565b6139066138f5828b8a941461390f575b6138bc88600052600a602052604060002090565b81875285528686206138ce8154612ff4565b90556138e488600052600b602052604060002090565b6138ee8154612ff4565b90556135eb565b956000526007602052604060002090565b01549384613889565b6139298960036116d48b6000526007602052604060002090565b6138a8565b1561393557565b606460405162461bcd60e51b815260206004820152601560248201527f6e65737465642e757365722e6e6f7461637469766500000000000000000000006044820152fd5b80600052600760205261399660ff6001604060002001541661392e565b60005260076020526139d76001600160a01b03600560406000200154166040519062a0e53360e51b60208301526001602483015260248252610cbc82612d07565b50565b156139e157565b606460405162461bcd60e51b815260206004820152601360248201527f6e65737465642e7a65726f2e61646472657373000000000000000000000000006044820152fd5b15613a2c57565b606460405162461bcd60e51b815260206004820152601460248201527f6e65737465642e7461726765742e6578697374730000000000000000000000006044820152fd5b15613a7757565b606460405162461bcd60e51b815260206004820152601760248201527f6e65737465642e736f757263652e6e6f744578697374730000000000000000006044820152fd5b60405190613ac882612d44565b601382527f55736572546f496e7374286164647265737329000000000000000000000000006020830152565b15613afb57565b606460405162461bcd60e51b815260206004820152601b60248201527f6e65737465642e757365722e696e76616c6964696e7374616e636500000000006044820152fd5b91908260409103126103f1576020825192015190565b15613b5c57565b606460405162461bcd60e51b815260206004820152601560248201527f6e65737465642e696e76616c69642e73656e64657200000000000000000000006044820152fd5b15613ba757565b606460405162461bcd60e51b815260206004820152601560248201527f6e65737465642e696e76616c69642e706172656e7400000000000000000000006044820152fd5b15613bf257565b606460405162461bcd60e51b815260206004820152601760248201527f6e65737465642e7265712e616c726561647965786973740000000000000000006044820152fd5b60005b838110613c495750506000910152565b8181015183820152602001613c39565b92916080906001600160a01b03600a9360a08752602460a08801527f547269676765722e6e65737465642e70726f706f73616c2e6d6f7665646f776e60c08801527f6c696e650000000000000000000000000000000000000000000000000000000060e08801521660208601526000604086015261010080606087015281518091870152613cf181610120936020858a019101613c36565b601f8019910116850101930152565b908160209103126103f1575190565b60405190613d1c82612d44565b601282527f676574526573756c742875696e743235362900000000000000000000000000006020830152565b519081151582036103f157565b91908260c09103126103f157815191602081015191604082015191606081015191610b2a60a0613d8760808501613d48565b9301613d48565b613dc1613dcd91613db16114776001611273846000526007602052604060002090565b6000526010602052604060002090565b91600183015414613ba0565b613de26105706000546001600160a01b031690565b906040518092630536340960e21b825281600460209586935afa9081156103ec5761333d93613e3d6105d0600294613e4a94600091613e63575b50613e3587546040519384918783019190602083019252565b6123a9613d0f565b8051810182019101613d55565b50959350505050019060ff801983541691151516179055565b613e7a9150843d86116103e5576103d68183612d7c565b38613e1c565b15613e8757565b606460405162461bcd60e51b815260206004820152601660248201527f6e65737465642e7265712e6e6f74617070726f766564000000000000000000006044820152fd5b15613ed257565b606460405162461bcd60e51b815260206004820152601860248201527f6e65737465642e757365722e6e6f742e646574616368656400000000000000006044820152fd5b15613f1d57565b606460405162461bcd60e51b815260206004820152601b60248201527f6e65737465642e757365722e616c726564792e646574616368656400000000006044820152fd5b8054908115613f8b5760001991820191613f7b83836137f3565b909182549160031b1b1916905555565b634e487b7160e01b600052603160045260246000fd5b8015613002576000190190565b613fcb613fc582600052600b602052604060002090565b54612ff4565b60029081613fe3846000526007602052604060002090565b0154906001938492835b613ffb575b50505050505050565b600f8085111580614346575b15614340578590600561402b61057082610c4a876000526007602052604060002090565b614058575b5050614049614051926000526007602052604060002090565b0154936135eb565b9285613fed565b865b828111156141625750505061404961405192896000146140ff576140a261408b86600052600a602052604060002090565b61409489613303565b600052602052604060002090565b546140d56140cd896140be85600052600a602052604060002090565b90600052602052604060002090565b918254613007565b90556140eb81600052600b602052604060002090565b6140f6878254613007565b90555b92614030565b61411661408b86600052600a602052604060002090565b5461413a614132896140be85600052600a602052604060002090565b918254613312565b905561415081600052600b602052604060002090565b61415b878254613312565b90556140f9565b8192935061417f8592610c4a886000526007602052604060002090565b6141898983613312565b908c60408c6141cc6141be8351806141aa6020998a83019190602083019252565b03966123a1601f1998898101845283612d7c565b868082518301019101612f71565b50509189821580614338575b614326577f393a9f9500000000000000000000000000000000000000000000000000000000958a958a610cbc9661427e9a968c9661428b9e9f614242614231610f6499610c4a6003946000526007602052604060002090565b9c6000526007602052604060002090565b0154905494519b8c988901526024880194919260a0949197969360c0870198875260208701526040860152606085015260808401521515910152565b8051810182019101613b3f565b908b156142e1575b8082116142ae5750506142a5906135eb565b9087929161405a565b6142b7906135eb565b6142d0816140be8c546000526008602052604060002090565b6142da8154612ff4565b9055614293565b8181116142f35750506142a5906135eb565b80614310614321926140be8d546000526008602052604060002090565b61431a8154613303565b9055613fa1565b6142e1565b50505050505050506142a591506135eb565b5083156141d8565b50613ff2565b50811515614007565b9061012080838303126103f15781601f840112156103f1576040519281840184811067ffffffffffffffff821117612d2357604052839181019283116103f157905b82821061439e5750505090565b8151815260209182019101614391565b604051906143bb82612d44565b600f82527f66726565496e74657276616c73282900000000000000000000000000000000006020830152565b604051906143f482612d44565b601682527f6765744c6576656c496e636f6d654f6e52616e6b2829000000000000000000006020830152565b6040519061442d82612d44565b601582527f67657452616e6b5769746841676556616c7565282900000000000000000000006020830152565b91906144706105706000546001600160a01b031690565b906040519163cfbffe5360e01b92838152602081600481855afa9081156103ec576020916144b89160009161476d575b506144a9612dcd565b906144b26143ae565b90615616565b9360046040518094819382525afa9081156103ec57614503916144f49160009161474e575b506144e66143e7565b6144ee612dba565b916154c8565b60208082518301019101613b3f565b6000916000916000906000926001600160a01b036145306005610c4a8d6000526007602052604060002090565b1661471b575b6000995b600f8b111580614712575b15614705576145666105706005610c4a846000526007602052604060002090565b614592575b600261458461458c926000526007602052604060002090565b01549a6135eb565b9961453a565b81861015806146fb575b6146d9575b86151594856146ba575b5084888a8d801515806146b1575b80156146a9575b6145ce575b5050505061456b565b614660949750610cbc906105d06144f4956145f86005610c4a8d6000526007602052604060002090565b94600361460f8d6000526007602052604060002090565b015493600254906040519889966325e10feb60e11b60208901526024880194919260c0949197969360e087019887526020870152600060408701526060860152608085015260a08401521515910152565b939080965b8082116146755750888a8d6145c5565b61467e906135eb565b614698816140be6002546000526008602052604060002090565b6146a28154612ff4565b9055614665565b5060006145c0565b508215156145b9565b90945086861190816146d0575b501593386145ab565b905015386146c7565b868611156145a157935094508394876146f484600254613312565b11936145a1565b508583101561459c565b5050505050505050509050565b50801515614545565b935090506147466144f461473e6005610c4a8c6000526007602052604060002090565b6144e6614420565b919093614536565b614767915060203d6020116103e5576103d68183612d7c565b386144dd565b6147849150833d85116103e5576103d68183612d7c565b386144a0565b92916000916147a361057084546001600160a01b031690565b916040519263cfbffe5360e01b93848152602081600481855afa9081156103ec576020916147da91889161476d57506144a9612dcd565b9460046040518094819382525afa9081156103ec57614806916144f491879161474e57506144e66143e7565b9094809581928291838b6001600160a01b036148316005610c4a846000526007602052604060002090565b16614a22575b509a5b600f8c111580614a19575b15614a0b576148666105706005610c4a846000526007602052604060002090565b614892575b600261488461488c926000526007602052604060002090565b01549b6135eb565b9a61483a565b8186101580614a01575b6149df575b89151594856149c0575b5086888d878c821515806149b7575b80156149ae575b6148d0575b505050505061486b565b859850916105d0610cbc9261496397946144f49760036149136149026005610c4a8b6000526007602052604060002090565b986000526007602052604060002090565b01549460025491604051998a976325e10feb60e11b60208a015260248901959260c09592989794919860e08801998852602088015260408701526060860152608085015260a08401521515910152565b939080965b80821161497a5750888d89928c6148c6565b614983906135eb565b61499d816140be6002546000526008602052604060002090565b6149a78154612ff4565b9055614968565b508415156148c1565b508315156148ba565b90945089861190816149d6575b501593386148ab565b905015386149cd565b898611156148a157935097508397876149fa84600254613312565b11936148a1565b508583101561489c565b505050505050505050509050565b50801515614845565b6144f4919650614a479294506005610c4a61473e926000526007602052604060002090565b9290948b614837565b60025460001981019081116130025761333d90614bbe565b15614a6f57565b606460405162461bcd60e51b815260206004820152601260248201527f6e65737465642e696e76616c69642e61676500000000000000000000000000006044820152fd5b60405190614ac082612d44565b601882527f6765744261746368526f79616c7479436c6175736573282900000000000000006020830152565b6102a09081818403126103f15782601f820112156103f1576040805193614b1285612d28565b84938301928184116103f157935b838510614b2f57505050505090565b6060858303126103f1578251606091614b4782612d07565b8651825260209182880151838201528588015186820152815201940193614b20565b90600781101561380b5760051b0190565b908160640291606483040361300257565b8181029291811591840414171561300257565b8115614ba8570490565b634e487b7160e01b600052601260045260246000fd5b614bc9811515614a68565b614bde6105706000546001600160a01b031690565b90604051809263cfbffe5360e01b825281600460209586935afa9081156103ec57614c2691614c1891600091614ce7575b506144e6614ab3565b838082518301019101614aec565b614c3a82600052600c602052604060002090565b5460015b6007811115614c4e575050505050565b80614c6a614cd3926140be876000526008602052604060002090565b548015614ce157614c83614c7d83613303565b86614b69565b51878151928315614cd857614caa614caf92614ca2614cb5968a614b8b565b940151614b7a565b614b8b565b90614b9e565b614ccd826140be886000526009602052604060002090565b556135eb565b614c3e565b505050506135eb565b506135eb565b614cfe9150853d87116103e5576103d68183612d7c565b38614c0f565b6040519061010080830183811067ffffffffffffffff821117612d2357604052368337565b60025480600052600c60205260406000205491820180921161300257600052600c602052604060002055565b60025480600052600d60205260406000205491820180921161300257600052600d602052604060002055565b60025480600052600e60205260406000205491820180921161300257600052600e602052604060002055565b60025480600052600f602052604060002054906001820180921161300257600052600f602052604060002055565b9080600052600c60205260406000205491820180921161300257600052600c602052604060002055565b9080600052600e60205260406000205491820180921161300257600052600e602052604060002055565b9080600052600f60205260406000205491820180921161300257600052600f602052604060002055565b60405190614e6682612d44565b601482527f676574627573696e6573732875696e74323536290000000000000000000000006020830152565b60405190614e9f82612d44565b601d82527f67657472616e6b436f756e742875696e743235362c75696e74323536290000006020830152565b600090614ee261057083546001600160a01b031690565b91604092835192839163111ea8c160e21b835282600460209485935afa9384156103ec578394614fdb575b505b85811115614f1f57505050505050565b8451828101828152819003808252601f1991614f5091614f429060200182612d7c565b614f4a614e59565b87615616565b614f676140cd84600052600c602052604060002090565b9055835b60088110614f83575050614f7e906135eb565b614f0f565b865184810184815260208101839052614fd69291614fbe91614fb090829060400103868101835282612d7c565b614fb8614e92565b89615616565b614ccd826140be876000526008602052604060002090565b614f6b565b614ff3919450823d84116103e5576103d68183612d7c565b9238614f0d565b1561500157565b606460405162461bcd60e51b815260206004820152601960248201527f6f776e2e7361666567756172642e63616c6c2e6661696c6564000000000000006044820152fd5b908160209103126103f157610b2a90613d48565b6001600160a01b03600054166040518091634bf9c0ad60e11b825281600460209384935afa9182156103ec57610b2a926150e1916000916150fc575b506040516150a281612d44565b600881527f697353616665282900000000000000000000000000000000000000000000000084820152604051916150d883612d60565b600083526154f3565b9190806150f2575b6105fd90614ffa565b50815181146150e9565b6151139150833d85116103e5576103d68183612d7c565b38615095565b6040519061512682612d44565b601582527f69735365637572654261736528616464726573732900000000000000000000006020830152565b1561515957565b606460405162461bcd60e51b815260206004820152601a60248201527f6f776e2e736563757265626173652e63616c6c2e6661696c65640000000000006044820152fd5b6000546001600160a01b0316604051918291634bf9c0ad60e11b835282600460209485935afa9283156103ec57610b2a93615209926105d092600092615224575b50615201906040519384918783019190916001600160a01b036020820193169052565b6105e6615119565b91908061521a575b6105fd90615152565b5081518114615211565b61520191925061524090863d88116103e5576103d68183612d7c565b91906151de565b6040519061525482612d44565b601182527f69735369676e65722861646472657373290000000000000000000000000000006020830152565b1561528757565b606460405162461bcd60e51b815260206004820152601660248201527f6f776e2e7369676e65722e63616c6c2e6661696c6564000000000000000000006044820152fd5b600460206001600160a01b03600054166040519283809263111ea8c160e21b82525afa80156103ec57610b2a9160009161534d575b5060405161530d81612d44565b600581527f616765282900000000000000000000000000000000000000000000000000000060208201526040519161534483612d60565b60008352615616565b615365915060203d81116103e5576103d68183612d7c565b38615300565b6040519061537882612d44565b601882527f697364656c656761746f724e6f646528616464726573732900000000000000006020830152565b3d156153cf573d906153b582612d9e565b916153c36040519384612d7c565b82523d6000602084013e565b606090565b6000600460206001600160a01b03835416604051928380927f46f991ac0000000000000000000000000000000000000000000000000000000082525afa9081156103ec5782848193829383916154aa575b505af16154306153a4565b50156154665760405190815233907fcdcc745fe377b103b45fa0cec23ae3ef93d6fc6a84a01f0d18c40b354dd1d5d890602090a2565b606460405162461bcd60e51b815260206004820152600f60248201527f6f776e2e6275726e2e6661696c656400000000000000000000000000000000006044820152fd5b6154c2915060203d81116103e5576103d68183612d7c565b38615425565b906154d392916154f3565b90600090156154e0575090565b60405191506154ee82612d60565b815290565b803b15615570576000927fffffffff00000000000000000000000000000000000000000000000000000000836020869551910120169061555d602460405180936020820195865261554d8151809260208686019101613c36565b8101036004810184520182612d7c565b5191620dbba0fa61556c6153a4565b9091565b50505060009060405161558281612d60565b6000815290565b9291615597916000946154f3565b90806155cf575b6155a55750565b9091506020818051810103126103f15760206001600160a01b039101516155cb81610422565b1690565b50602081511461559e565b92916155e8916000946154f3565b908061560b575b6155f65750565b610b2a91925060208082518301019101615045565b5060208151146155ef565b9291615624916000946154f3565b9080615647575b6156325750565b610b2a91925060208082518301019101613d00565b50602081511461562b565b90602082519201517fffffffff0000000000000000000000000000000000000000000000000000000090818116936004811061568d57505050565b60040360031b82901b16169150565b6001600160a01b0381161561574d57600080918351908260208601915af1906156c36153a4565b91156156cd575090565b805160009190600411615747576156e49150615652565b8151156156f45750805190602001fd5b6024907fffffffff00000000000000000000000000000000000000000000000000000000604051917f21c09d34000000000000000000000000000000000000000000000000000000008352166004820152fd5b506156e4565b606460405162461bcd60e51b815260206004820152601260248201527f6f776e2e696e76616c69642e74617267657400000000000000000000000000006044820152fdfea2646970667358221220b56700a05505ea82d4ea05b48c20143cca89f8e385dfddfb7d1db7f93503af6c64736f6c63430008140033","linkReferences":{}},"methodIdentifiers":{"dAOAssembly()":"14837455","daocore()":"14d8d024","nested741()":"45cff900","old741()":"5540c5ac","price()":"a035b1fe"},"id":69}