{"abi":[{"type":"constructor","inputs":[],"stateMutability":"nonpayable"},{"type":"fallback","stateMutability":"payable"},{"type":"receive","stateMutability":"payable"},{"type":"function","name":"addOrc1155","inputs":[{"name":"newAddr","type":"address","internalType":"address"},{"name":"oldAddr","type":"address","internalType":"address"},{"name":"oldAddrV1","type":"address","internalType":"address"}],"outputs":[],"stateMutability":"nonpayable"},{"type":"function","name":"addOrc1155Prime","inputs":[{"name":"params","type":"bytes","internalType":"bytes"},{"name":"oldAddr","type":"address","internalType":"address"}],"outputs":[],"stateMutability":"nonpayable"},{"type":"function","name":"addProposer","inputs":[{"name":"_a","type":"address","internalType":"address"}],"outputs":[],"stateMutability":"nonpayable"},{"type":"function","name":"daoassembly","inputs":[],"outputs":[{"name":"","type":"address","internalType":"address"}],"stateMutability":"view"},{"type":"function","name":"daocore","inputs":[],"outputs":[{"name":"","type":"address","internalType":"address"}],"stateMutability":"view"},{"type":"function","name":"getProposalsCount","inputs":[],"outputs":[{"name":"","type":"uint256","internalType":"uint256"}],"stateMutability":"view"},{"type":"function","name":"importBusiness","inputs":[{"name":"limit","type":"uint256","internalType":"uint256"}],"outputs":[],"stateMutability":"nonpayable"},{"type":"function","name":"importuser","inputs":[{"name":"limit","type":"uint256","internalType":"uint256"}],"outputs":[],"stateMutability":"nonpayable"},{"type":"function","name":"in741","inputs":[],"outputs":[{"name":"","type":"address","internalType":"address"}],"stateMutability":"view"},{"type":"function","name":"in741Old","inputs":[],"outputs":[{"name":"","type":"address","internalType":"address"}],"stateMutability":"view"},{"type":"function","name":"in741Prime","inputs":[],"outputs":[{"name":"","type":"address","internalType":"address"}],"stateMutability":"view"},{"type":"function","name":"in741PrimeOld","inputs":[],"outputs":[{"name":"","type":"address","internalType":"address"}],"stateMutability":"view"},{"type":"function","name":"in741Primev3Old","inputs":[],"outputs":[{"name":"","type":"address","internalType":"address"}],"stateMutability":"view"},{"type":"function","name":"in741Rule","inputs":[],"outputs":[{"name":"","type":"address","internalType":"address"}],"stateMutability":"view"},{"type":"function","name":"in741RuleOld","inputs":[],"outputs":[{"name":"","type":"address","internalType":"address"}],"stateMutability":"view"},{"type":"function","name":"in741RulePrime","inputs":[],"outputs":[{"name":"","type":"address","internalType":"address"}],"stateMutability":"view"},{"type":"function","name":"in741RulePrimeOld","inputs":[],"outputs":[{"name":"","type":"address","internalType":"address"}],"stateMutability":"view"},{"type":"function","name":"inDEAD","inputs":[],"outputs":[{"name":"","type":"address","internalType":"address"}],"stateMutability":"view"},{"type":"function","name":"inDeployerAService","inputs":[],"outputs":[{"name":"","type":"address","internalType":"address"}],"stateMutability":"view"},{"type":"function","name":"inDeployerAsRoot","inputs":[],"outputs":[{"name":"","type":"address","internalType":"address"}],"stateMutability":"view"},{"type":"function","name":"inImportForgePrimeold","inputs":[],"outputs":[{"name":"","type":"address","internalType":"address"}],"stateMutability":"view"},{"type":"function","name":"inInstance","inputs":[],"outputs":[{"name":"","type":"address","internalType":"address"}],"stateMutability":"view"},{"type":"function","name":"inInstancePrime","inputs":[],"outputs":[{"name":"","type":"address","internalType":"address"}],"stateMutability":"view"},{"type":"function","name":"inInstanceStor","inputs":[],"outputs":[{"name":"","type":"address","internalType":"address"}],"stateMutability":"view"},{"type":"function","name":"inNftArchive","inputs":[],"outputs":[{"name":"","type":"address","internalType":"address"}],"stateMutability":"view"},{"type":"function","name":"inNftFactory","inputs":[],"outputs":[{"name":"","type":"address","internalType":"address"}],"stateMutability":"view"},{"type":"function","name":"inOrc1155","inputs":[{"name":"","type":"uint256","internalType":"uint256"}],"outputs":[{"name":"","type":"address","internalType":"address"}],"stateMutability":"view"},{"type":"function","name":"inOrc1155Old","inputs":[{"name":"","type":"uint256","internalType":"uint256"}],"outputs":[{"name":"","type":"address","internalType":"address"}],"stateMutability":"view"},{"type":"function","name":"inOrc1155OldV1","inputs":[{"name":"","type":"uint256","internalType":"uint256"}],"outputs":[{"name":"","type":"address","internalType":"address"}],"stateMutability":"view"},{"type":"function","name":"inOrc1155Prime","inputs":[{"name":"","type":"uint256","internalType":"uint256"}],"outputs":[{"name":"","type":"address","internalType":"address"}],"stateMutability":"view"},{"type":"function","name":"inOrc1155PrimeOld","inputs":[],"outputs":[{"name":"","type":"address","internalType":"address"}],"stateMutability":"view"},{"type":"function","name":"inOrc1155PrimeOldV1","inputs":[],"outputs":[{"name":"","type":"address","internalType":"address"}],"stateMutability":"view"},{"type":"function","name":"inOrc1155machinebullold","inputs":[],"outputs":[{"name":"","type":"address","internalType":"address"}],"stateMutability":"view"},{"type":"function","name":"inPrice","inputs":[],"outputs":[{"name":"","type":"address","internalType":"address"}],"stateMutability":"view"},{"type":"function","name":"inPrimeData","inputs":[],"outputs":[{"name":"","type":"address","internalType":"address"}],"stateMutability":"view"},{"type":"function","name":"inPrimeProxy","inputs":[],"outputs":[{"name":"","type":"address","internalType":"address"}],"stateMutability":"view"},{"type":"function","name":"inTransferPrimeold","inputs":[],"outputs":[{"name":"","type":"address","internalType":"address"}],"stateMutability":"view"},{"type":"function","name":"inTransferold","inputs":[],"outputs":[{"name":"","type":"address","internalType":"address"}],"stateMutability":"view"},{"type":"function","name":"inTreaseryFactory","inputs":[],"outputs":[{"name":"","type":"address","internalType":"address"}],"stateMutability":"view"},{"type":"function","name":"inTreaseryTVLMining","inputs":[],"outputs":[{"name":"","type":"address","internalType":"address"}],"stateMutability":"view"},{"type":"function","name":"inTreaseryTVLMiningImport","inputs":[],"outputs":[{"name":"","type":"address","internalType":"address"}],"stateMutability":"view"},{"type":"function","name":"inTreaseryTVLMiningPrime","inputs":[],"outputs":[{"name":"","type":"address","internalType":"address"}],"stateMutability":"view"},{"type":"function","name":"inTreaseryTVLReward","inputs":[],"outputs":[{"name":"","type":"address","internalType":"address"}],"stateMutability":"view"},{"type":"function","name":"inTreaseryTVLRoyality","inputs":[],"outputs":[{"name":"","type":"address","internalType":"address"}],"stateMutability":"view"},{"type":"function","name":"inTreaseryTVLTour","inputs":[],"outputs":[{"name":"","type":"address","internalType":"address"}],"stateMutability":"view"},{"type":"function","name":"inTreaseryTVLValidator","inputs":[],"outputs":[{"name":"","type":"address","internalType":"address"}],"stateMutability":"view"},{"type":"function","name":"inblank","inputs":[],"outputs":[{"name":"","type":"address","internalType":"address"}],"stateMutability":"view"},{"type":"function","name":"infactoryold","inputs":[],"outputs":[{"name":"","type":"address","internalType":"address"}],"stateMutability":"view"},{"type":"function","name":"infactoryprimeold","inputs":[],"outputs":[{"name":"","type":"address","internalType":"address"}],"stateMutability":"view"},{"type":"function","name":"insafeguard","inputs":[],"outputs":[{"name":"","type":"address","internalType":"address"}],"stateMutability":"view"},{"type":"function","name":"insafeguardOld","inputs":[],"outputs":[{"name":"","type":"address","internalType":"address"}],"stateMutability":"view"},{"type":"function","name":"insafeguardPrime","inputs":[],"outputs":[{"name":"","type":"address","internalType":"address"}],"stateMutability":"view"},{"type":"function","name":"insafeguardPrimeOld","inputs":[],"outputs":[{"name":"","type":"address","internalType":"address"}],"stateMutability":"view"},{"type":"function","name":"invalidator","inputs":[],"outputs":[{"name":"","type":"address","internalType":"address"}],"stateMutability":"view"},{"type":"function","name":"mapOldORC1155","inputs":[{"name":"","type":"address","internalType":"address"}],"outputs":[{"name":"","type":"address","internalType":"address"}],"stateMutability":"view"},{"type":"function","name":"mapOldORC1155Prime","inputs":[{"name":"","type":"address","internalType":"address"}],"outputs":[{"name":"","type":"address","internalType":"address"}],"stateMutability":"view"},{"type":"function","name":"proposals","inputs":[{"name":"","type":"uint256","internalType":"uint256"}],"outputs":[{"name":"","type":"address","internalType":"address"}],"stateMutability":"view"},{"type":"function","name":"s1","inputs":[],"outputs":[{"name":"","type":"address","internalType":"address"}],"stateMutability":"view"},{"type":"function","name":"s2","inputs":[],"outputs":[{"name":"","type":"address","internalType":"address"}],"stateMutability":"view"},{"type":"function","name":"s3","inputs":[],"outputs":[{"name":"","type":"address","internalType":"address"}],"stateMutability":"view"},{"type":"function","name":"submit","inputs":[{"name":"_hexNFTEngine","type":"address","internalType":"address"},{"name":"_hexDaoCore","type":"address","internalType":"address"},{"name":"_hexRules","type":"address","internalType":"address"},{"name":"_hexUserEngine","type":"address","internalType":"address"},{"name":"_hexInstanceEngine","type":"address","internalType":"address"}],"outputs":[],"stateMutability":"nonpayable"},{"type":"function","name":"update741","inputs":[{"name":"addr","type":"address","internalType":"address"}],"outputs":[],"stateMutability":"nonpayable"},{"type":"function","name":"update741Old","inputs":[{"name":"addr","type":"address","internalType":"address"}],"outputs":[],"stateMutability":"nonpayable"},{"type":"function","name":"update741Prime","inputs":[{"name":"addr","type":"address","internalType":"address"}],"outputs":[],"stateMutability":"nonpayable"},{"type":"function","name":"update741PrimeOld","inputs":[{"name":"addr","type":"address","internalType":"address"}],"outputs":[],"stateMutability":"nonpayable"},{"type":"function","name":"update741Primev3Old","inputs":[{"name":"addr","type":"address","internalType":"address"}],"outputs":[],"stateMutability":"nonpayable"},{"type":"function","name":"update741Rule","inputs":[{"name":"addr","type":"address","internalType":"address"}],"outputs":[],"stateMutability":"nonpayable"},{"type":"function","name":"update741RuleOld","inputs":[{"name":"addr","type":"address","internalType":"address"}],"outputs":[],"stateMutability":"nonpayable"},{"type":"function","name":"update741RulePrime","inputs":[{"name":"addr","type":"address","internalType":"address"}],"outputs":[],"stateMutability":"nonpayable"},{"type":"function","name":"update741RulePrimeOld","inputs":[{"name":"addr","type":"address","internalType":"address"}],"outputs":[],"stateMutability":"nonpayable"},{"type":"function","name":"updateDAOAssembly","inputs":[{"name":"_dao","type":"address","internalType":"address"}],"outputs":[],"stateMutability":"nonpayable"},{"type":"function","name":"updateDAOCore","inputs":[{"name":"_dao","type":"address","internalType":"address"}],"outputs":[],"stateMutability":"nonpayable"},{"type":"function","name":"updateDEAD","inputs":[{"name":"addr","type":"address","internalType":"address"}],"outputs":[],"stateMutability":"nonpayable"},{"type":"function","name":"updateFactoryOld","inputs":[{"name":"addr","type":"address","internalType":"address"}],"outputs":[],"stateMutability":"nonpayable"},{"type":"function","name":"updateFactoryPrimeOld","inputs":[{"name":"addr","type":"address","internalType":"address"}],"outputs":[],"stateMutability":"nonpayable"},{"type":"function","name":"updateImportForgePrimeold","inputs":[{"name":"addr","type":"address","internalType":"address"}],"outputs":[],"stateMutability":"nonpayable"},{"type":"function","name":"updateInTransferOld","inputs":[{"name":"addr","type":"address","internalType":"address"}],"outputs":[],"stateMutability":"nonpayable"},{"type":"function","name":"updateInTransferPrimeOld","inputs":[{"name":"addr","type":"address","internalType":"address"}],"outputs":[],"stateMutability":"nonpayable"},{"type":"function","name":"updateInstance","inputs":[{"name":"addr","type":"address","internalType":"address"}],"outputs":[],"stateMutability":"nonpayable"},{"type":"function","name":"updateInstancePrime","inputs":[{"name":"addr","type":"address","internalType":"address"}],"outputs":[],"stateMutability":"nonpayable"},{"type":"function","name":"updateInstanceStor","inputs":[{"name":"addr","type":"address","internalType":"address"}],"outputs":[],"stateMutability":"nonpayable"},{"type":"function","name":"updateNftArchive","inputs":[{"name":"addr","type":"address","internalType":"address"}],"outputs":[],"stateMutability":"nonpayable"},{"type":"function","name":"updateOrc1155","inputs":[{"name":"_o","type":"address","internalType":"address"},{"name":"oldAddr","type":"address","internalType":"address"},{"name":"idx","type":"uint256","internalType":"uint256"}],"outputs":[],"stateMutability":"nonpayable"},{"type":"function","name":"updateOrc1155MachineBullOld","inputs":[{"name":"addr","type":"address","internalType":"address"}],"outputs":[],"stateMutability":"nonpayable"},{"type":"function","name":"updateOrc1155Prime","inputs":[{"name":"_o","type":"address","internalType":"address"},{"name":"oldAddr","type":"address","internalType":"address"},{"name":"idx","type":"uint256","internalType":"uint256"}],"outputs":[],"stateMutability":"nonpayable"},{"type":"function","name":"updateOrc1155PrimeOld","inputs":[{"name":"addr","type":"address","internalType":"address"}],"outputs":[],"stateMutability":"nonpayable"},{"type":"function","name":"updateOrc1155PrimeOldV1","inputs":[{"name":"addr","type":"address","internalType":"address"}],"outputs":[],"stateMutability":"nonpayable"},{"type":"function","name":"updatePrice","inputs":[{"name":"addr","type":"address","internalType":"address"}],"outputs":[],"stateMutability":"nonpayable"},{"type":"function","name":"updatePrimeData","inputs":[{"name":"addr","type":"address","internalType":"address"}],"outputs":[],"stateMutability":"nonpayable"},{"type":"function","name":"updatePrimeProxy","inputs":[{"name":"addr","type":"address","internalType":"address"}],"outputs":[],"stateMutability":"nonpayable"},{"type":"function","name":"updateProposals","inputs":[{"name":"_a","type":"address","internalType":"address"},{"name":"idx","type":"uint256","internalType":"uint256"}],"outputs":[],"stateMutability":"nonpayable"},{"type":"function","name":"updateSafeguard","inputs":[{"name":"addr","type":"address","internalType":"address"}],"outputs":[],"stateMutability":"nonpayable"},{"type":"function","name":"updateSafeguardOld","inputs":[{"name":"addr","type":"address","internalType":"address"}],"outputs":[],"stateMutability":"nonpayable"},{"type":"function","name":"updateSafeguardPrime","inputs":[{"name":"addr","type":"address","internalType":"address"}],"outputs":[],"stateMutability":"nonpayable"},{"type":"function","name":"updateSafeguardPrimeOld","inputs":[{"name":"addr","type":"address","internalType":"address"}],"outputs":[],"stateMutability":"nonpayable"},{"type":"function","name":"updateTreaseryFactory","inputs":[{"name":"addr","type":"address","internalType":"address"}],"outputs":[],"stateMutability":"nonpayable"},{"type":"function","name":"updateTreaseryTVLMiningImport","inputs":[{"name":"addr","type":"address","internalType":"address"}],"outputs":[],"stateMutability":"nonpayable"},{"type":"function","name":"updateTreaseryTVLValidator","inputs":[{"name":"addr","type":"address","internalType":"address"}],"outputs":[],"stateMutability":"nonpayable"},{"type":"function","name":"updateTreasuryTVLMining","inputs":[{"name":"addr","type":"address","internalType":"address"}],"outputs":[],"stateMutability":"nonpayable"},{"type":"function","name":"updateTreasuryTVLMiningPrime","inputs":[{"name":"addr","type":"address","internalType":"address"}],"outputs":[],"stateMutability":"nonpayable"},{"type":"function","name":"updateTreasuryTVLReward","inputs":[{"name":"addr","type":"address","internalType":"address"}],"outputs":[],"stateMutability":"nonpayable"},{"type":"function","name":"updateTreasuryTVLRoyality","inputs":[{"name":"addr","type":"address","internalType":"address"}],"outputs":[],"stateMutability":"nonpayable"},{"type":"function","name":"updateTreasuryTVLTour","inputs":[{"name":"addr","type":"address","internalType":"address"}],"outputs":[],"stateMutability":"nonpayable"},{"type":"function","name":"updateValidator","inputs":[{"name":"addr","type":"address","internalType":"address"}],"outputs":[],"stateMutability":"nonpayable"},{"type":"error","name":"FailedDeployment","inputs":[]},{"type":"error","name":"InsufficientBalance","inputs":[{"name":"balance","type":"uint256","internalType":"uint256"},{"name":"needed","type":"uint256","internalType":"uint256"}]}],"bytecode":{"object":"0x608060405234620004ed5760018060a01b0319600090808254168255600173376c3a0babd0ce07b78f82fc862a6cb7c82342d282825416178155816002541660025573301cad03ad5f18e71e0bf6d578820c5e836201c9826003541617600355735731f74dd52839d69b2b4427ce1439431f76a2ce8260045416176004556005734a516f5916d53ece27c00ab5e3923872ed19f090838254161781558260065416600655826007541660075582600954166009557360c95eb879eec03a0af4528a16f192e61a198f4083600a541617600a557308ff697696398fac0dcee979bb0f1fb7b7fc380b83600b541617600b5582600c5416600c5582600d5416600d5573f134e58248ab8380e911d36c21e1015e5e84814183600e541617600e5582600f5416600f5573882bf41aa8e3fad0695be39e4434af54786eb24a83601054161760105573c0cee8b561cc4f60869776ca5b0b7a295e04f5af808460115416176011558360125416601255836013541617601355739f33b44587a57758c1413dbab6640f6abea5cef483601454161760145573804f8004e7d361ab2a4335685d7c6893e67af7c1836015541617601555620001b9620004f2565b9173d03060e8ed7754aeed63e4e56b0457662d8164aa8352602091733dbd81ab6b37360016fbc6c96937c60334aaede48385015273085052532254e12989413f7c84dd32686bce74e19384604082015273284bf1d323c35b47fe1991cde5af634e3a661253606082015273b33443339919b2ae34888890d6c28b5666daaa3f6080820152601a5482601a55808310620004c2575b50601a87528387209083885b848110620004a657505050506200026f620004f2565b73b8193c79fc3f1d7dfaa0bae85fe3b1bff0558abb8152736e5aa0e705b69459e1525b2c720e820cf3322f1b8482015273ef8fe7c57b613624c06f5ede5ebd639f6d5108176040820152735f141ba4a79fdc86ec5c8c044f721ce873db91b96060820152737117638c0dc12ffffdddf3630ac4ce5c9705e6ff6080820152601b5482601b558083106200047b575b50601b8752838720875b8381106200046057505050505073951a7bbd21b4a6f49e62e040b992eed7120fcdd983601c541617601c55732463fc29b8b635c4120c4fe32aadc580d199348083601d541617601d55737e2baf007a3761d33afee572a7e7a08c1499b99d9081848254161790557343a87925ba12b33f0e2a40da70e239775db21169836025541617602555730fda18c5b31b5417478c012837909927361143ab83602a541617602a55730239667fa9f2269e36f32daf2ab391dc1ad9373883602b541617602b5573648565deb50c503ef59860d92942eaece0c3e17283602c541617602c5582602d541617602d5581602e541617602e55736c96f2d0c9a8b7fb472a319b1ecf7e8626c7b2ba81602f541617602f55739bfc2af8a5e49a72bfb58e22312ce07d61fe773981603054161760305561dead8160325416176032558060335416603355339082541617905560405161417e9081620005298239f35b82516001600160a01b03168282015591850191840162000307565b601b88528383868a2092830192015b8281106200049a575050620002fd565b8981550184906200048a565b82516001600160a01b0316848201559186019185910162000259565b601a88528383868a2092830192015b828110620004e15750506200024d565b898155018490620004d1565b600080fd5b6040519060a082016001600160401b038111838210176200051257604052565b634e487b7160e01b600052604160045260246000fdfe6040608081526004803610156200001e575b505036156200001c57005b005b600091823560e01c918263013cf08b1462002cf7578263014519e61462002ca657826301c0d48b1462002c7b57826305abae0d1462002c2a578263069f3e721462002bd957826308a887af1462002bae5782630a4c99391462002b5d5782630c32145a1462002b0c578263107663861462002abb5782631162a5b11462002a6a578263130fba6d1462002a195782631477e19414620029c557826314d8d024146200299a5782631654f33114620029495782631a47ded514620028f85782631b67970a14620028a757826321c82677146200287c578263236b0402146200282b57826324768d911462002800578263275424d014620027af57826330125cf51462002784578263335ab5f21462002733578383633676bd1f14620026c05750826336c24c46146200266f57826342ac8f79146200261e5782634311742114620025f3578263447aa30414620025c8578263447bf0e2146200259d578263448f3eef14620025725782634588d010146200252157826345d96de814620024d057826346f991ac14620024a55783836349fbed121462002415575082634b849a5414620023c4578263507aa64f146200237357826351ffe4c5146200234857826352b06d64146200231d578263595e1dd214620022ec5782635ad64af114620022c15782635c727e8014620022625782635e09dbe71462002237578263635b277014620021e65782636402742714620021bb57826366658584146200216a578263677494d8146200213f5782636b4aefc614620021155782636cc014de14620020ea5782636fa16598146200209957826370ee2af8146200204857826374dfe2361462001ff757826374fad9f91462001fa6578263753e7d331462001f555782638360701d1462001f04578263839a47a41462001eb3578263891e91a51462001e645782639669f18f1462001e1357826396e85ced1462001dc257826397f3815a1462001d9757826398e527d31462001d765782639dc969a81462001d4b578263a0449f451462001cfa578263a0b8cbb81462001ccf578263a11abe2a1462000fe9578263a2672aa81462000f98578263a314150f1462000f6d578263a5b277f21462000f42578263a5d666a91462000f17578263a66bcbe21462000eec578263a7acacf81462000ec1578263a7d7fa501462000e96578263a9d5ae6f1462000e45578263aa0ddc161462000e1a578263ab6e844f1462000def578263aeb140201462000d9e578263af0deb951462000d73578263af2331901462000d48578263b03cd4181462000d09578263b113bd201462000b32578263b3a86ab01462000b07578263b771c8961462000ac0578263bb2458961462000a95578263bd811bce1462000a6a578263c16addd01462000a0757508163c5a90db114620009dc578163c7bb7d4d146200098b578163cc7cf18e146200092a578163cfaa1f6c14620008eb578163cfacc010146200089a578163cfbffe53146200086f578163d1f956b11462000844578163d3d1b0961462000819578163da1be7d014620007ee578163de433f1714620007c4578163e09d394d1462000799578163e0cf4e9e1462000751578163e1f4cd241462000726578163e257681914620006d5578163e61dfd5814620006aa578163e7531fc0146200067f578163ed15cbf71462000640578163ef140ed314620005c0578163efed51bb1462000595578163f144dff01462000566575063fc58f3531462000513578062000011565b346200056357602036600319011262000563576200053062002e16565b6006546001600160a01b0391906200054c908316331462002ee1565b166001600160601b0360a01b601254161760125580f35b80fd5b9050346200059157816003193601126200059157602d5490516001600160a01b039091168152602090f35b5080fd5b905034620005915781600319360112620005915760105490516001600160a01b039091168152602090f35b905034620005915762000601620005d73662002ea9565b90620006208360018060a09896981b03958694620005fb8660065416331462002ee1565b62002da6565b90919082549060031b9160018060a01b03809116831b921b1916179055565b1684526019602052832091166001600160601b0360a01b82541617905580f35b9050346200059157602036600319011262000591576020916001600160a01b03908290826200066e62002e16565b168152601985522054169051908152f35b9050346200059157816003193601126200059157602b5490516001600160a01b039091168152602090f35b905034620005915781600319360112620005915760265490516001600160a01b039091168152602090f35b8234620005635760203660031901126200056357620006f362002e16565b6006546001600160a01b0391906200070f908316331462002ee1565b166001600160601b0360a01b602254161760225580f35b9050346200059157816003193601126200059157600f5490516001600160a01b039091168152602090f35b90503462000591573660031901126200056357620007966200077262002e16565b6200078960018060a01b0360065416331462002ee1565b6200060160243562002d23565b80f35b905034620005915781600319360112620005915760275490516001600160a01b039091168152602090f35b9050346200059157816003193601126200059157905490516001600160a01b039091168152602090f35b905034620005915781600319360112620005915760305490516001600160a01b039091168152602090f35b905034620005915781600319360112620005915760295490516001600160a01b039091168152602090f35b905034620005915781600319360112620005915760075490516001600160a01b039091168152602090f35b9050346200059157816003193601126200059157600d5490516001600160a01b039091168152602090f35b8234620005635760203660031901126200056357620008b862002e16565b6006546001600160a01b039190620008d4908316331462002ee1565b166001600160601b0360a01b600f541617600f5580f35b9050346200059157602036600319011262000591576020916001600160a01b03908290826200091962002e16565b168152601885522054169051908152f35b905034620005915762000601620009413662002ea9565b906200096b8360018060a09896981b03958694620009658660065416331462002ee1565b62002dde565b1684526018602052832091166001600160601b0360a01b82541617905580f35b8234620005635760203660031901126200056357620009a962002e16565b6006546001600160a01b039190620009c5908316331462002ee1565b166001600160601b0360a01b602e541617602e5580f35b9050346200059157816003193601126200059157602c5490516001600160a01b039091168152602090f35b9091503462000a6657602036600319011262000a665735601a5481101562000a6657601a6000527f057c384a7d1c54f3a1b2e5e67b2617b8224fdfd1ea7234eea573a6ff665ff63e015490516001600160a01b03909116815260209150f35b8280fd5b838234620005915781600319360112620005915760155490516001600160a01b039091168152602090f35b8382346200059157816003193601126200059157600e5490516001600160a01b039091168152602090f35b9091503462000a6657602036600319011262000a6657359160165483101562000563575062000af160209262002dde565b905491519160018060a01b039160031b1c168152f35b8382346200059157816003193601126200059157601d5490516001600160a01b039091168152602090f35b91503462000a66578060031936011262000a665767ffffffffffffffff90823582811162000d05573660238201121562000d05578084013592831162000cf25781519385602092601f199562000b908588601f840116018962002e86565b808852366024828401011162000a6657806024869399989901838901378601015262000bbb62002e2d565b908260018060a01b039562000bd68760065416331462002ee1565b8660355416898751998a9363165fd13f60e01b85523087860152896024860152805190816044870152835b82811062000cd4575050848392601f8383966064809686010152011681010301925af195861562000cca57879662000c94575b5060175490600160401b82101562000c7f57506019929162000c6387620006018460018a960160175562002da6565b16865252832091166001600160601b0360a01b82541617905580f35b604190634e487b7160e01b6000525260246000fd5b62000cba919650833d851162000cc2575b62000cb1818362002e86565b81019062003002565b943862000c34565b503d62000ca5565b84513d89823e3d90fd5b8181018801519681016064019690965289968d968f95500162000c01565b634e487b7160e01b855260418452602485fd5b8480fd5b83346200056357602036600319011262000563576200079662000d2b62002e16565b62000d4260018060a01b0360065416331462002ee1565b62002f20565b838234620005915781600319360112620005915760285490516001600160a01b039091168152602090f35b8382346200059157816003193601126200059157600c5490516001600160a01b039091168152602090f35b833462000563576020366003190112620005635762000dbc62002e16565b6006546001600160a01b03919062000dd8908316331462002ee1565b166001600160601b0360a01b601154161760115580f35b838234620005915781600319360112620005915760115490516001600160a01b039091168152602090f35b8382346200059157816003193601126200059157601f5490516001600160a01b039091168152602090f35b833462000563576020366003190112620005635762000e6362002e16565b6006546001600160a01b03919062000e7f908316331462002ee1565b166001600160601b0360a01b600c541617600c5580f35b8382346200059157816003193601126200059157600b5490516001600160a01b039091168152602090f35b8382346200059157816003193601126200059157601c5490516001600160a01b039091168152602090f35b838234620005915781600319360112620005915760125490516001600160a01b039091168152602090f35b838234620005915781600319360112620005915760055490516001600160a01b039091168152602090f35b8382346200059157816003193601126200059157602e5490516001600160a01b039091168152602090f35b9091503462000a66578260031936011262000a66575490516001600160a01b03909116815260209150f35b833462000563576020366003190112620005635762000fb662002e16565b6006546001600160a01b03919062000fd2908316331462002ee1565b166001600160601b0360a01b602c541617602c5580f35b9091503462000a665760a036600319011262000a66576200100962002e16565b906200101462002e2d565b926200101f62002e44565b926064359360018060a01b039384861680960362001cca576084359185831680930362001cca5785895416330362001c96576009978689541662001c535786169285519763501ad8ff60e11b8952602092838a8681895afa998a1562001a56578c9a62001c2f575b50886001600160601b0360a01b9a168a60295416176029558751631550316b60e21b8152848187818a5afa908d821562001b9a57908b9262001c0d575b50168a60135416176013558751956245cff960e81b875284878781845afa96871562001a16578d9762001be9575b5089601197168b8854161787558c8951631483745560e01b815286818981865afa918215620019a15787928994928e929162001bc7575b50168d60075416176007558a5192838092630536340960e21b82525afa908d821562001b9a578b939284929062001ba5575b50168b6006541617600655168751630a5b38ab60e01b815284818781855afa908d821562001b9a5786928894928d929162001b78575b50168c600d541617600d55895192838092633da8676f60e01b82525afa908c821562001b6d578592879492620011cf929162001b4b575b5062002f20565b885163131c73ad60e01b815292839182905afa90811562001b41579088918c9162001b1f575b5016886027541617602755855163022ec09560e01b815282818581855afa908b821562001b1457849391928695938b929162001af2575b50168a6026541617602655875194858092639ba540fb60e01b82525afa92831562001ae8578a9362001ac4575b508987601e941689855416178085558a763d602d80600a3d3981f3363d3d373d3d3d363d730000008a603762ffffff9383858760881c161787526e5af43d82803e903d91602b57fd5bf396876effffffffffffffffffffffffffffff19809860781b16178952f016801562001ab45760378f8f908f938f94601f541617601f5587878c5487898260881c1617845260781b16178952f016801562001ab45760378f8f908f938f94602154161760215587878c5487898260881c1617845260781b16178952f016801562001ab45760378f8f908f938f94602254161760225587878c5487898260881c1617845260781b16178952f016801562001ab4578c60235416176023558654918260881c16178d5260781b161781528660378a8cf01694851562001aa45787906024968a885416178755169286516382e2d07d60e01b815282818581885afa90811562001a56579089918d9162001a82575b5016896034541617603455865163d63843cd60e01b815282818581885afa90811562001a56579089918d9162001a60575b50168960355416176035558651631a1575a560e01b815282818581885afa90811562001a56578c9162001a34575b50601a541562001a2057887f057c384a7d1c54f3a1b2e5e67b2617b8224fdfd1ea7234eea573a6ff665ff63e541690601b918254156200196957906200148191836000528b7f3ad8aa4f87544323a9d1e5dd902f40c356527a7955687113db5f9a85ad579dc154169162002f49565b8751631697db0560e01b81529483868681845afa95861562001a16578d96620019f2575b50601a549560019687101562001969578a7f057c384a7d1c54f3a1b2e5e67b2617b8224fdfd1ea7234eea573a6ff665ff63f54168354881015620018a757906200151891846000528c7f3ad8aa4f87544323a9d1e5dd902f40c356527a7955687113db5f9a85ad579dc254169162002f49565b885163378136b960e21b81528d9085818881865afa918215620019a15791620019d0575b50601a546002101562001969578a7f057c384a7d1c54f3a1b2e5e67b2617b8224fdfd1ea7234eea573a6ff665ff6405416835460021015620018a7578392918f9491620015b1926000528d7f3ad8aa4f87544323a9d1e5dd902f40c356527a7955687113db5f9a85ad579dc354169162002f49565b895163a0f0e54f60e01b815285818881855afa938415620019a15793620019ac575b50601a5492600393841015620018a7578b7f057c384a7d1c54f3a1b2e5e67b2617b8224fdfd1ea7234eea573a6ff665ff64154168354851015620018bb578f93926200164c89938f938a94876000527f3ad8aa4f87544323a9d1e5dd902f40c356527a7955687113db5f9a85ad579dc454169162002f49565b8c5163104e8cbd60e11b815292839182905afa928315620019a157926200197d575b50601a5486101562001969578a7f057c384a7d1c54f3a1b2e5e67b2617b8224fdfd1ea7234eea573a6ff665ff6425416908054871015620018a75790620016de92916000528b7f3ad8aa4f87544323a9d1e5dd902f40c356527a7955687113db5f9a85ad579dc554169162002f49565b8751906101e082019267ffffffffffffffff93838110858211176200195557908e918b52600e845285840198886101c09384368d37905b620018e3575b508c6200172762002d71565b905490861b1c16855160051015620018cf57908d9160c08701525416845160061015620018bb57908c9160e08601525416835160071015620018a7576101008401528a601f5416835160081015620018a7576101208401528a602154168d84511115620018a7576101408401528a602254168351600a1015620018a7576101608401528a602354168351600b1015620018a7576101808401528a8954168351600c1015620018a7576101a08401528a875416908351600d1015620018a757908b9291840152541693898154168a60055416918a519961112591828c01968c881090881117620018905750509160c093918a999896979593620030248b3960a08401958452878401528a83015230606083015260a06080830152518093520193928b5b82811062001877575050505050039086f09081156200186e5750169082541617905580f35b513d86823e3d90fd5b84518a1686528796509481019493810193830162001849565b9093508f925060419150634e487b7160e01b835252fd5b89603288634e487b7160e01b600052526000fd5b8a603289634e487b7160e01b600052526000fd5b8b60328a634e487b7160e01b600052526000fd5b60058e818310156200194d57620018fa8362002dde565b905490881b1c16908751831015620019395782901b87018901526000198114620019275789018962001715565b508f8b9189634e487b7160e01b835252fd5b8d60328c634e487b7160e01b600052526000fd5b50506200171b565b89604188634e487b7160e01b600052526000fd5b88603287634e487b7160e01b600052526000fd5b62001999919250853d871162000cc25762000cb1818362002e86565b90386200166e565b8b51903d90823e3d90fd5b620019c8919350853d871162000cc25762000cb1818362002e86565b9138620015d3565b620019eb9150853d871162000cc25762000cb1818362002e86565b386200153c565b62001a0e919650843d861162000cc25762000cb1818362002e86565b9438620014a5565b89513d8f823e3d90fd5b86603285634e487b7160e01b600052526000fd5b62001a4f9150833d851162000cc25762000cb1818362002e86565b3862001412565b88513d8e823e3d90fd5b62001a7b9150843d861162000cc25762000cb1818362002e86565b38620013e4565b62001a9d9150843d861162000cc25762000cb1818362002e86565b38620013b3565b865163b06ebf3d60e01b81528390fd5b8a5163b06ebf3d60e01b81528790fd5b8162001ae09294503d851162000cc25762000cb1818362002e86565b913862001259565b86513d8c823e3d90fd5b62001b0d9150843d861162000cc25762000cb1818362002e86565b386200122c565b8851903d90823e3d90fd5b62001b3a9150843d861162000cc25762000cb1818362002e86565b38620011f5565b87513d8d823e3d90fd5b62001b669150843d861162000cc25762000cb1818362002e86565b38620011c8565b8951903d90823e3d90fd5b62001b939150843d861162000cc25762000cb1818362002e86565b3862001191565b8a51903d90823e3d90fd5b62001bc09150873d891162000cc25762000cb1818362002e86565b386200115b565b62001be29150843d861162000cc25762000cb1818362002e86565b3862001129565b62001c05919750853d871162000cc25762000cb1818362002e86565b9538620010f2565b62001c289150863d881162000cc25762000cb1818362002e86565b38620010c4565b62001c4b919a50843d861162000cc25762000cb1818362002e86565b983862001087565b855162461bcd60e51b8152602081850152601960248201527f686578626173652e616c72656164792e7375626d6974746564000000000000006044820152606490fd5b845162461bcd60e51b8152602081840152600e60248201526d139bdd08185d5d1a1bdc9a5e995960921b6044820152606490fd5b600080fd5b838234620005915781600319360112620005915760335490516001600160a01b039091168152602090f35b833462000563576020366003190112620005635762001d1862002e16565b6006546001600160a01b03919062001d34908316331462002ee1565b166001600160601b0360a01b600a541617600a5580f35b838234620005915781600319360112620005915760245490516001600160a01b039091168152602090f35b83823462000591578160031936011262000591576020906008549051908152f35b838234620005915781600319360112620005915760095490516001600160a01b039091168152602090f35b833462000563576020366003190112620005635762001de062002e16565b6006546001600160a01b03919062001dfc908316331462002ee1565b166001600160601b0360a01b602954161760295580f35b833462000563576020366003190112620005635762001e3162002e16565b6006546001600160a01b03919062001e4d908316331462002ee1565b166001600160601b0360a01b600b541617600b5580f35b833462000563576020366003190112620005635762001e8262002e16565b600654906001600160a01b039062001e9e828416331462002ee1565b16906001600160601b0360a01b161760065580f35b833462000563576020366003190112620005635762001ed162002e16565b6006546001600160a01b03919062001eed908316331462002ee1565b166001600160601b0360a01b602854161760285580f35b833462000563576020366003190112620005635762001f2262002e16565b6006546001600160a01b03919062001f3e908316331462002ee1565b166001600160601b0360a01b601554161760155580f35b833462000563576020366003190112620005635762001f7362002e16565b6006546001600160a01b03919062001f8f908316331462002ee1565b166001600160601b0360a01b600d541617600d5580f35b833462000563576020366003190112620005635762001fc462002e16565b6006546001600160a01b03919062001fe0908316331462002ee1565b166001600160601b0360a01b602b541617602b5580f35b83346200056357602036600319011262000563576200201562002e16565b6006546001600160a01b03919062002031908316331462002ee1565b166001600160601b0360a01b601054161760105580f35b83346200056357602036600319011262000563576200206662002e16565b6006546001600160a01b03919062002082908316331462002ee1565b166001600160601b0360a01b601e541617601e5580f35b8334620005635760203660031901126200056357620020b762002e16565b6006546001600160a01b039190620020d3908316331462002ee1565b166001600160601b0360a01b602754161760275580f35b838234620005915781600319360112620005915760035490516001600160a01b039091168152602090f35b83823462000591578160031936011262000591576020805491516001600160a01b03909216825290f35b838234620005915781600319360112620005915760015490516001600160a01b039091168152602090f35b83346200056357602036600319011262000563576200218862002e16565b6006546001600160a01b039190620021a4908316331462002ee1565b166001600160601b0360a01b601454161760145580f35b838234620005915781600319360112620005915760215490516001600160a01b039091168152602090f35b83346200056357602036600319011262000563576200220462002e16565b6006546001600160a01b03919062002220908316331462002ee1565b166001600160601b0360a01b603154161760315580f35b8382346200059157816003193601126200059157601e5490516001600160a01b039091168152602090f35b9091503462000a6657602036600319011262000a665735601b5481101562000a6657601b6000527f3ad8aa4f87544323a9d1e5dd902f40c356527a7955687113db5f9a85ad579dc1015490516001600160a01b03909116815260209150f35b8382346200059157816003193601126200059157602f5490516001600160a01b039091168152602090f35b9091503462000a6657602036600319011262000a6657359160175483101562000563575062000af160209262002da6565b838234620005915781600319360112620005915760315490516001600160a01b039091168152602090f35b8382346200059157816003193601126200059157600a5490516001600160a01b039091168152602090f35b83346200056357602036600319011262000563576200239162002e16565b6006546001600160a01b039190620023ad908316331462002ee1565b166001600160601b0360a01b600e541617600e5580f35b8334620005635760203660031901126200056357620023e262002e16565b6006546001600160a01b039190620023fe908316331462002ee1565b166001600160601b0360a01b602454161760245580f35b92509034620024a1576020366003190112620024a1576200243562002d71565b905460039190911b1c6001600160a01b031691823b156200249c57839260248492845195869384926324fdf68960e11b84528035908401525af1908115620024935750620024805750f35b6200248b9062002e5b565b620005635780f35b513d84823e3d90fd5b505050fd5b5050fd5b838234620005915781600319360112620005915760325490516001600160a01b039091168152602090f35b8334620005635760203660031901126200056357620024ee62002e16565b6006546001600160a01b0391906200250a908316331462002ee1565b166001600160601b0360a01b600754161760075580f35b83346200056357602036600319011262000563576200253f62002e16565b6006546001600160a01b0391906200255b908316331462002ee1565b166001600160601b0360a01b603354161760335580f35b838234620005915781600319360112620005915760025490516001600160a01b039091168152602090f35b838234620005915781600319360112620005915760145490516001600160a01b039091168152602090f35b838234620005915781600319360112620005915760135490516001600160a01b039091168152602090f35b838234620005915781600319360112620005915760345490516001600160a01b039091168152602090f35b83346200056357602036600319011262000563576200263c62002e16565b6006546001600160a01b03919062002658908316331462002ee1565b166001600160601b0360a01b602f541617602f5580f35b83346200056357602036600319011262000563576200268d62002e16565b6006546001600160a01b039190620026a9908316331462002ee1565b166001600160601b0360a01b602054161760205580f35b925034620024a1576020366003190112620024a157620026df62002d71565b905460039190911b1c6001600160a01b0316803b156200249c576024849284519586938492633676bd1f60e01b84528035908401525af190811562002493575062002728575080f35b620007969062002e5b565b83346200056357602036600319011262000563576200275162002e16565b6006546001600160a01b0391906200276d908316331462002ee1565b166001600160601b0360a01b602a541617602a5580f35b838234620005915781600319360112620005915760225490516001600160a01b039091168152602090f35b8334620005635760203660031901126200056357620027cd62002e16565b6006546001600160a01b039190620027e9908316331462002ee1565b166001600160601b0360a01b602654161760265580f35b838234620005915781600319360112620005915760235490516001600160a01b039091168152602090f35b83346200056357602036600319011262000563576200284962002e16565b6006546001600160a01b03919062002865908316331462002ee1565b166001600160601b0360a01b601354161760135580f35b838234620005915781600319360112620005915760255490516001600160a01b039091168152602090f35b8334620005635760203660031901126200056357620028c562002e16565b6006546001600160a01b039190620028e1908316331462002ee1565b166001600160601b0360a01b602354161760235580f35b83346200056357602036600319011262000563576200291662002e16565b6006546001600160a01b03919062002932908316331462002ee1565b166001600160601b0360a01b601c541617601c5580f35b83346200056357602036600319011262000563576200296762002e16565b6006546001600160a01b03919062002983908316331462002ee1565b166001600160601b0360a01b603054161760305580f35b838234620005915781600319360112620005915760065490516001600160a01b039091168152602090f35b833462000563576060366003190112620005635762000796620029e762002e16565b620029f162002e2d565b620029fb62002e44565b9162002a1360018060a01b0360065416331462002ee1565b62002f49565b833462000563576020366003190112620005635762002a3762002e16565b6006546001600160a01b03919062002a53908316331462002ee1565b166001600160601b0360a01b601f541617601f5580f35b833462000563576020366003190112620005635762002a8862002e16565b6006546001600160a01b03919062002aa4908316331462002ee1565b166001600160601b0360a01b600954161760095580f35b833462000563576020366003190112620005635762002ad962002e16565b6006546001600160a01b03919062002af5908316331462002ee1565b166001600160601b0360a01b603454161760345580f35b833462000563576020366003190112620005635762002b2a62002e16565b6006546001600160a01b03919062002b46908316331462002ee1565b166001600160601b0360a01b601d541617601d5580f35b833462000563576020366003190112620005635762002b7b62002e16565b6006546001600160a01b03919062002b97908316331462002ee1565b166001600160601b0360a01b603254161760325580f35b838234620005915781600319360112620005915760355490516001600160a01b039091168152602090f35b833462000563576020366003190112620005635762002bf762002e16565b6006546001600160a01b03919062002c13908316331462002ee1565b166001600160601b0360a01b602d541617602d5580f35b833462000563576020366003190112620005635762002c4862002e16565b6006546001600160a01b03919062002c64908316331462002ee1565b166001600160601b0360a01b602154161760215580f35b8382346200059157816003193601126200059157602a5490516001600160a01b039091168152602090f35b833462000563576020366003190112620005635762002cc462002e16565b6006546001600160a01b03919062002ce0908316331462002ee1565b166001600160601b0360a01b602554161760255580f35b9091503462000a6657602036600319011262000a6657359160085483101562000563575062000af16020925b60085481101562002d5b5760086000527ff3f7a9fe364faab93b216da50a3214154f22a0a2b415b23a84c8169e8b636ee30190600090565b634e487b7160e01b600052603260045260246000fd5b6008541562002d5b5760086000527ff3f7a9fe364faab93b216da50a3214154f22a0a2b415b23a84c8169e8b636ee390600090565b60175481101562002d5b5760176000527fc624b66cc0138b8fabc209247f72d758e1cf3343756d543badbf24212bed8c150190600090565b60165481101562002d5b5760166000527fd833147d7dc355ba459fc788f669e58cfaf9dc25ddcd0702e87d69c7b51242890190600090565b600435906001600160a01b038216820362001cca57565b602435906001600160a01b038216820362001cca57565b604435906001600160a01b038216820362001cca57565b67ffffffffffffffff811162002e7057604052565b634e487b7160e01b600052604160045260246000fd5b90601f8019910116810190811067ffffffffffffffff82111762002e7057604052565b606090600319011262001cca576001600160a01b0390600435828116810362001cca5791602435908116810362001cca579060443590565b1562002ee957565b60405162461bcd60e51b815260206004820152600f60248201526e6f776e2e6e6f6e617574682e44414f60881b6044820152606490fd5b60085490600160401b82101562002e70576200060182600162002f47940160085562002d23565b565b90601654600160401b81101562002e7057826200060182600162002f71940160165562002dde565b6001600160a01b0392839182168062002fda575b50168062002fb2575b50168060005260186020526040600020906001600160601b0360a01b825416179055565b600052601860205260406000208282166001600160601b0360a01b8254161790553862002f8e565b600052601860205260406000208284166001600160601b0360a01b8254161790553862002f85565b9081602091031262001cca57516001600160a01b038116810362001cca579056fe604060808152346200021a5762001125803803806200001e8162000235565b928339810160a0828203126200021a5762000039826200025b565b602090620000498285016200025b565b91620000578686016200025b565b9462000066606082016200025b565b608082015190916001600160401b0391908282116200021a57019580601f880112156200021a5786519182116200021f5760059682881b908580620000ad81850162000235565b8096815201928201019283116200021a5785809101915b838310620001ff575050506001600160a01b039283169790508715620001bb5782908160018060a01b03199760019a338a8d5416178c556000998a54161789558160ff19988c8a60035416176003551689528987528b89208b8982541617905516875289872089878254161790551685528785208785825416179055805195855b8781106200015c578951610eb49081620002718239f35b8251811015620001a75780821b83018501518416875260048552898720805487168a17905560001981146200019357880162000145565b634e487b7160e01b87526011600452602487fd5b634e487b7160e01b87526032600452602487fd5b885162461bcd60e51b815260048101859052601360248201527f6f776e2e696e76616c69642e68657862617365000000000000000000000000006044820152606490fd5b81906200020c846200025b565b8152019101908590620000c4565b600080fd5b634e487b7160e01b600052604160045260246000fd5b6040519190601f01601f191682016001600160401b038111838210176200021f57604052565b51906001600160a01b03821682036200021a5756fe60806040526004361015610018575b361561001657005b005b60003560e01c806312065fe0146101285780631d0c00e4146101235780631f185d161461011e5780633b9b7955146101195780636a276f9d146101145780637df73e271461010f57806384a8d0451461010a5780638da5cb5b14610105578063a1f7f53914610100578063af484526146100fb578063b90306ad146100f6578063c54e44b0146100f1578063dc3163e8146100ec578063e01ad5fd146100e7578063e0a9bc2b146100e2578063ef9eab9d146100dd5763fdc10bc90361000e576109c5565b610983565b6108e1565b610842565b6107bf565b610726565b610627565b610552565b61049b565b610472565b6103dc565b61039a565b610377565b61034e565b61023a565b61018c565b3461014457600036600319011261014457602047604051908152f35b600080fd5b6001600160a01b0381160361014457565b8015150361014457565b60409060031901126101445760043561017c81610149565b906024356101898161015a565b90565b3461014457600461019c36610164565b60008054604051630536340960e21b8152919491936001600160a01b039290916020918691829086165afa93841561023557610204946101e7918791610207575b5083163314610cbe565b1683526004602052604083209060ff801983541691151516179055565b80f35b610228915060203d811161022e575b6102208183610aab565b810190610acd565b386101dd565b503d610216565b610ae2565b34610144576020806003193601126101445760049081359061025b82610149565b600054819061027a906001600160a01b03165b6001600160a01b031690565b604051634bf9c0ad60e11b815294859182905afa918215610235576102d161030b936102ed9261031d9660009261032b575b506040516001600160a01b0390911685820190815290926102df918491602090910190565b03601f198101845283610aab565b6102e7610c1f565b90610d6a565b919080610321575b6102fe90610c4c565b8082518301019101610b8d565b60405190151581529081906020820190565b0390f35b50815181146102f5565b6102df91925061034790863d881161022e576102208183610aab565b91906102ac565b34610144576000366003190112610144576000546040516001600160a01b039091168152602090f35b3461014457600036600319011261014457602060ff600354166040519015158152f35b34610144576020366003190112610144576004356103b781610149565b60018060a01b03166000526005602052602060ff604060002054166040519015158152f35b34610144576020366003190112610144576004356103f98161015a565b600054604051630536340960e21b8152906001600160a01b03906020908390600490829085165afa9081156102355761043d92600092610452575b50163314610cbe565b60ff8019600354169115151617600355600080f35b61046b91925060203d811161022e576102208183610aab565b9038610434565b34610144576000366003190112610144576001546040516001600160a01b039091168152602090f35b346101445760003660031901126101445760005460405163d1f956b160e01b815290602090829060049082906001600160a01b03165afa9081156102355761031d9161052491600091610534575b506040516104f681610a6e565b601381527267657464656c656761746f72436f756e74282960681b602082015261051e610b0a565b91610e40565b6040519081529081906020820190565b61054c915060203d811161022e576102208183610aab565b386104e9565b34610144576020806003193601126101445760049081359061057382610149565b600054819061058a906001600160a01b031661026e565b604051634bf9c0ad60e11b815294859182905afa918215610235576102d161030b936105e99261031d96600092610604575b506040516001600160a01b0390911685820190815290926105e1918491602090910190565b6102e7610ba2565b9190806105fa575b6102fe90610bd3565b50815181146105f1565b6105e191925061062090863d881161022e576102208183610aab565b91906105bc565b34610144576020806003193601126101445760043560018060a01b0391600092808454169060405191630536340960e21b83528383600481845afa92831561023557600493859361068192899261070e5750163314610cbe565b6040516311be646b60e21b815292839182905afa918215610235578480856106c0958295839584926106f1575b50505af16106ba610cfc565b50610d2c565b60405190815233907fcdcc745fe377b103b45fa0cec23ae3ef93d6fc6a84a01f0d18c40b354dd1d5d890602090a280f35b6107079250803d1061022e576102208183610aab565b38806106ae565b61046b919250853d871161022e576102208183610aab565b346101445760203660031901126101445760043561074381610149565b803b600061075082610aee565b9261075e6040519485610aab565b82845260208401903c602d81511061078457602a015160405160609190911c8152602090f35b60405162461bcd60e51b81526020600482015260136024820152724e6f742061206d696e696d616c2070726f787960681b6044820152606490fd5b34610144576107cd36610164565b60018060a01b03600092600460208386541660405192838092630536340960e21b82525afa80156102355761080c918691610207575083163314610cbe565b168252600560205261082d81604084209060ff801983541691151516179055565b156108355780f35b60ff196003541660035580f35b3461014457602080600319360112610144576004803561086181610149565b60005460405163d1f956b160e01b81526001600160a01b03949093909182918591829088165afa9081156102355761031d9461030b946000936108c2575b5060405193168184015282526108b482610a6e565b6108bc610c91565b90610e04565b6108da919350823d841161022e576102208183610aab565b913861089f565b3461014457600036600319011261014457600054604051634bf9c0ad60e11b8152906020908190839060049082906001600160a01b03165afa9081156102355761094b61030b9261031d94600091610966575b5061093d610b1d565b610945610b0a565b91610d6a565b91908061095c575b6102fe90610b41565b5081518114610953565b61097d9150833d851161022e576102208183610aab565b38610934565b34610144576020366003190112610144576004356109a081610149565b60018060a01b03166000526004602052602060ff604060002054166040519015158152f35b346101445760003660031901126101445760005460405163111ea8c160e21b815290602090829060049082906001600160a01b03165afa9081156102355761031d9161052491600091610a3a575b50604051610a2081610a6e565b6005815264616765282960d81b602082015261051e610b0a565b610a52915060203d811161022e576102208183610aab565b38610a13565b634e487b7160e01b600052604160045260246000fd5b6040810190811067ffffffffffffffff821117610a8a57604052565b610a58565b6020810190811067ffffffffffffffff821117610a8a57604052565b90601f8019910116810190811067ffffffffffffffff821117610a8a57604052565b90816020910312610144575161018981610149565b6040513d6000823e3d90fd5b67ffffffffffffffff8111610a8a57601f01601f191660200190565b60405190610b1782610a8f565b60008252565b60405190610b2a82610a6e565b6008825267697353616665282960c01b6020830152565b15610b4857565b60405162461bcd60e51b815260206004820152601960248201527f6f776e2e7361666567756172642e63616c6c2e6661696c6564000000000000006044820152606490fd5b9081602091031261014457516101898161015a565b60405190610baf82610a6e565b601582527469735365637572654261736528616464726573732960581b6020830152565b15610bda57565b60405162461bcd60e51b815260206004820152601a60248201527f6f776e2e736563757265626173652e63616c6c2e6661696c65640000000000006044820152606490fd5b60405190610c2c82610a6e565b601182527069735369676e657228616464726573732960781b6020830152565b15610c5357565b60405162461bcd60e51b81526020600482015260166024820152751bdddb8b9cda59db995c8b98d85b1b0b99985a5b195960521b6044820152606490fd5b60405190610c9e82610a6e565b6011825270697364656c656761746f724e6f6465282960781b6020830152565b15610cc557565b60405162461bcd60e51b815260206004820152600f60248201526e6f776e2e6e6f6e617574682e44414f60881b6044820152606490fd5b3d15610d27573d90610d0d82610aee565b91610d1b6040519384610aab565b82523d6000602084013e565b606090565b15610d3357565b60405162461bcd60e51b815260206004820152600f60248201526e1bdddb8b989d5c9b8b99985a5b1959608a1b6044820152606490fd5b9190823b15610deb578051906020918263ffffffff60e01b92012016916040519180830193845281519160005b838110610dd7575050509181610dc460248260009795968897018783820152036004810184520182610aab565b5191620dbba0fa610dd3610cfc565b9091565b818101830151858201602401528201610d97565b505050600090604051610dfd81610a8f565b6000815290565b9291610e1291600094610d6a565b9080610e35575b610e205750565b61018991925060208082518301019101610b8d565b506020815114610e19565b9291610e4e91600094610d6a565b9080610e73575b610e5c5750565b909150602081805181010312610144576020015190565b506020815114610e5556fea264697066735822122037dc12b29a68a950a16d3b1859eb5bad9a822fb938dbda545a77b0d0ff24e8ea64736f6c63430008140033a264697066735822122011c261281c862e17abe546f2927e3626f83cc36c04baf582bbc5bca2693fb95964736f6c63430008140033","linkReferences":{}},"methodIdentifiers":{"addOrc1155(address,address,address)":"1477e194","addOrc1155Prime(bytes,address)":"b113bd20","addProposer(address)":"b03cd418","daoassembly()":"d1f956b1","daocore()":"14d8d024","getProposalsCount()":"98e527d3","importBusiness(uint256)":"49fbed12","importuser(uint256)":"3676bd1f","in741()":"ab6e844f","in741Old()":"447aa304","in741Prime()":"a66bcbe2","in741PrimeOld()":"447bf0e2","in741Primev3Old()":"bd811bce","in741Rule()":"cfbffe53","in741RuleOld()":"bb245896","in741RulePrime()":"e1f4cd24","in741RulePrimeOld()":"efed51bb","inDEAD()":"46f991ac","inDeployerAService()":"677494d8","inDeployerAsRoot()":"de433f17","inImportForgePrimeold()":"e7531fc0","inInstance()":"e61dfd58","inInstancePrime()":"af233190","inInstanceStor()":"e09d394d","inNftArchive()":"43117421","inNftFactory()":"08a887af","inOrc1155(uint256)":"b771c896","inOrc1155Old(uint256)":"c16addd0","inOrc1155OldV1(uint256)":"5c727e80","inOrc1155Prime(uint256)":"595e1dd2","inOrc1155PrimeOld()":"a7acacf8","inOrc1155PrimeOldV1()":"b3a86ab0","inOrc1155machinebullold()":"a5b277f2","inPrice()":"d3d1b096","inPrimeData()":"01c0d48b","inPrimeProxy()":"a0b8cbb8","inTransferPrimeold()":"f144dff0","inTransferold()":"c5a90db1","inTreaseryFactory()":"5e09dbe7","inTreaseryTVLMining()":"aa0ddc16","inTreaseryTVLMiningImport()":"21c82677","inTreaseryTVLMiningPrime()":"6b4aefc6","inTreaseryTVLReward()":"64027427","inTreaseryTVLRoyality()":"30125cf5","inTreaseryTVLTour()":"24768d91","inTreaseryTVLValidator()":"9dc969a8","inblank()":"448f3eef","infactoryold()":"5ad64af1","infactoryprimeold()":"da1be7d0","insafeguard()":"97f3815a","insafeguardOld()":"51ffe4c5","insafeguardPrime()":"af0deb95","insafeguardPrimeOld()":"a7d7fa50","invalidator()":"52b06d64","mapOldORC1155(address)":"cfaa1f6c","mapOldORC1155Prime(address)":"ed15cbf7","proposals(uint256)":"013cf08b","s1()":"6cc014de","s2()":"a314150f","s3()":"a5d666a9","submit(address,address,address,address,address)":"a11abe2a","update741(address)":"aeb14020","update741Old(address)":"236b0402","update741Prime(address)":"fc58f353","update741PrimeOld(address)":"66658584","update741Primev3Old(address)":"8360701d","update741Rule(address)":"753e7d33","update741RuleOld(address)":"507aa64f","update741RulePrime(address)":"cfacc010","update741RulePrimeOld(address)":"74dfe236","updateDAOAssembly(address)":"45d96de8","updateDAOCore(address)":"891e91a5","updateDEAD(address)":"0a4c9939","updateFactoryOld(address)":"42ac8f79","updateFactoryPrimeOld(address)":"1654f331","updateImportForgePrimeold(address)":"74fad9f9","updateInTransferOld(address)":"a2672aa8","updateInTransferPrimeOld(address)":"069f3e72","updateInstance(address)":"275424d0","updateInstancePrime(address)":"839a47a4","updateInstanceStor(address)":"6fa16598","updateNftArchive(address)":"10766386","updateOrc1155(address,address,uint256)":"cc7cf18e","updateOrc1155MachineBullOld(address)":"c7bb7d4d","updateOrc1155Prime(address,address,uint256)":"ef140ed3","updateOrc1155PrimeOld(address)":"1a47ded5","updateOrc1155PrimeOldV1(address)":"0c32145a","updatePrice(address)":"96e85ced","updatePrimeData(address)":"335ab5f2","updatePrimeProxy(address)":"4588d010","updateProposals(address,uint256)":"e0cf4e9e","updateSafeguard(address)":"1162a5b1","updateSafeguardOld(address)":"a0449f45","updateSafeguardPrime(address)":"a9d5ae6f","updateSafeguardPrimeOld(address)":"9669f18f","updateTreaseryFactory(address)":"70ee2af8","updateTreaseryTVLMiningImport(address)":"014519e6","updateTreaseryTVLValidator(address)":"4b849a54","updateTreasuryTVLMining(address)":"130fba6d","updateTreasuryTVLMiningPrime(address)":"36c24c46","updateTreasuryTVLReward(address)":"05abae0d","updateTreasuryTVLRoyality(address)":"e2576819","updateTreasuryTVLTour(address)":"1b67970a","updateValidator(address)":"635b2770"},"id":33}