{"abi":[{"type":"constructor","inputs":[{"name":"_hex","type":"address","internalType":"address"}],"stateMutability":"nonpayable"},{"type":"function","name":"rule741","inputs":[],"outputs":[{"name":"","type":"address","internalType":"address"}],"stateMutability":"view"},{"type":"function","name":"transferRequest","inputs":[],"outputs":[{"name":"","type":"address","internalType":"address"}],"stateMutability":"view"}],"bytecode":{"object":"0x6080346200012d57601f62006f0838819003918201601f19168301926001600160401b0392909183851183861017620001175781602092849260409788528339810103126200012d57516001600160a01b0390818116908190036200012d57835190614a84918281019281841086851117620001175762002484823981835260208160009403019083f09384156200010d5782549484166001600160a01b03199586161783558551916122818084019284841090841117620000f957918391602093620002038439815203019082f0908115620000ee5750169060015416176001555160d09081620001338239f35b8451903d90823e3d90fd5b634e487b7160e01b85526041600452602485fd5b85513d84823e3d90fd5b634e487b7160e01b600052604160045260246000fd5b600080fdfe6080806040526004361015601257600080fd5b600090813560e01c9081630a5b38ab1460685750633da8676f14603457600080fd5b3460655780600319360112606557602073ffffffffffffffffffffffffffffffffffffffff60015416604051908152f35b80fd5b9050346096578160031936011260965773ffffffffffffffffffffffffffffffffffffffff60209254168152f35b5080fdfea26469706673582212203828804f89375909739569f623929c3b533c45de7ccf51ca617746491e6b57e964736f6c6343000814003360803461009757601f61228138819003918201601f19168301916001600160401b0383118484101761009c5780849260209460405283398101031261009757516001600160a01b038116908190036100975780156100855760018060a01b031933816001541617600155600054161760005560016002556040516121ce90816100b38239f35b60405163e6c4247b60e01b8152600490fd5b600080fd5b634e487b7160e01b600052604160045260246000fdfe60806040526004361015610018575b361561001657005b005b60003560e01c806312065fe01461019857806318c864e3146101935780631f185d161461018e5780633676bd1f146101895780633b9b795514610184578063479fa2c31461017f5780634ef260a91461017a5780638da5cb5b146101755780639932f81e146101705780639fb3953b1461016b578063a1f7f53914610166578063ab7e46ae14610161578063ac2333451461015c578063af48452614610157578063b8f1759a14610152578063b90306ad1461014d578063c1e6cec214610148578063c54e44b014610143578063cab3cc8d1461013e578063e01ad5fd14610139578063e0a9bc2b14610134578063e846034a1461012f578063e981bcad1461012a5763fdc10bc90361000e57610f9b565b610ec0565b610ea2565b610e1d565b610d83565b610d65565b610cdf565b610ca1565b610bf0565b610b96565b610b65565b610b2d565b610ad3565b6109de565b61081c565b6105fd565b6105d6565b610514565b61042b565b610404565b6103d9565b61028f565b61020e565b346101b45760003660031901126101b457602047604051908152f35b600080fd5b634e487b7160e01b600052603260045260246000fd5b60045481101561020957600460005260021b7f8a35acfbc15ff81a39ae7d344fd709f28e8600b4aa8c65c6b64bfe7fe36bd19b0190600090565b6101b9565b346101b45760203660031901126101b4576004356004548110156101b457610235906101cf565b50805460018201546002830154600390930154604080516001600160a01b0394851681529390921660208401529082019290925260ff90911615156060820152608090f35b0390f35b6001600160a01b038116036101b457565b346101b4576020806003193601126101b4576004356102ad8161027e565b6004826102d16102c56000546001600160a01b031690565b6001600160a01b031690565b60405192838092634bf9c0ad60e11b82525afa80156103d4576103399261031d926000926103a1575b5061032b906040519384918783019190916001600160a01b036020820193169052565b03601f1981018452836110e4565b610333611d3e565b90611f3f565b919080610397575b1561036d57818161035b9261027a94518301019101611c37565b60405190151581529081906020820190565b60046040517f3204506f000000000000000000000000000000000000000000000000000000008152fd5b5080825114610341565b61032b9192506103c690863d88116103cd575b6103be81836110e4565b81019061114d565b91906102fa565b503d6103b4565b611165565b346101b45760203660031901126101b4576103f2611ae4565b6103fd6004356116b3565b6001600255005b346101b45760003660031901126101b45760206001600160a01b0360005416604051908152f35b346101b45760203660031901126101b45760043580151580610508575b156104c45761045961045e91611266565b6101cf565b5080546001600160a01b031661027a61048160018401546001600160a01b031690565b926104956003600283015492015460ff1690565b604080516001600160a01b03958616815295909416602086015292840152901515606083015281906080820190565b606460405162461bcd60e51b815260206004820152601760248201527f70726f706f7365722e696e76616c69642e666f726d69640000000000000000006044820152fd5b50600454811115610448565b346101b45760203660031901126101b4576004356105318161027e565b6001600160a01b038091169060009180835260036020526040832054801515806105ca575b61055e578380f35b60001981019081116105c557610573906101cf565b50508083526003602052826040812055600554680100000000000000008110156105c0578060016105a79201600555610a9c565b909283549160031b92831b921b19161790553880808380f35b611043565b611250565b50600454811115610556565b346101b45760003660031901126101b45760206001600160a01b0360015416604051908152f35b346101b45760603660031901126101b45760043561061a8161027e565b6024356106268161027e565b6001600160a01b0391828116156107f2576000928216835260206003815260408420546107ae5760049061068661065b611059565b509384906001600160a01b031673ffffffffffffffffffffffffffffffffffffffff19825416179055565b6106b7600184019485906001600160a01b031673ffffffffffffffffffffffffffffffffffffffff19825416179055565b6106bf611135565b90806106d56102c588546001600160a01b031690565b60405194858092630536340960e21b82525afa9182156103d45761031d61075493610747926002968a9261078b575b50610742906040519384917fffa734f00000000000000000000000000000000000000000000000000000000088840152604435903060248501611194565b6120e5565b8051810182019101611241565b91015561078761076e60045492546001600160a01b031690565b6001600160a01b03166000526003602052604060002090565b5580f35b6107429192506107a790863d88116103cd576103be81836110e4565b9190610704565b6064906040519062461bcd60e51b82526004820152601260248201527f70726f706f7365722e746f2e65786973747300000000000000000000000000006044820152fd5b60046040517fe6c4247b000000000000000000000000000000000000000000000000000000008152fd5b60803660031901126101b4576004356108348161027e565b61083c611ae4565b6108516102c56000546001600160a01b031690565b6040519163ab6e844f60e01b83526020918284600481845afa9384156103d4576000946109ba575b5082600491604051928380927fde433f170000000000000000000000000000000000000000000000000000000082525afa9081156103d457610902916108e09160009161099d575b506040519182918683019190916001600160a01b036020820193169052565b03946108f4601f19968781018452836110e4565b6108fc611bc5565b90611fd2565b906001600160a01b03821661091c575b6100166001600255565b610993937fc107930a00000000000000000000000000000000000000000000000000000000936109876107429360405196879384015260643590604435906024359060248601909493926060926001600160a01b036080840197168352602083015260408201520152565b039081018452836110e4565b5038808080610912565b6109b49150853d87116103cd576103be81836110e4565b386108c1565b60049194506109d68491823d84116103cd576103be81836110e4565b949150610879565b346101b45760003660031901126101b457600460206001600160a01b03600054166040519283809263d1f956b160e01b82525afa9081156103d45761027a91610a6e91600091610a7e575b50604051610a36816110ac565b601381527f67657464656c656761746f72436f756e742829000000000000000000000000006020820152610a68611122565b9161205f565b6040519081529081906020820190565b610a96915060203d81116103cd576103be81836110e4565b38610a29565b6005548110156102095760056000527f036b6384b5eca791c62761152d0c79bb0604c104a5fb6f4eb0703f3154bb3db00190600090565b346101b45760203660031901126101b4576004356005548110156101b4576001600160a01b0360209160056000527f036b6384b5eca791c62761152d0c79bb0604c104a5fb6f4eb0703f3154bb3db0015416604051908152f35b346101b45760203660031901126101b4576020610b54600435610b4f8161027e565b6112dc565b6001600160a01b0360405191168152f35b346101b45760203660031901126101b4576020610b8c600435610b878161027e565b611c84565b6040519015158152f35b346101b45760203660031901126101b457600435600554811015610209576001600160a01b0360209160056000527f036b6384b5eca791c62761152d0c79bb0604c104a5fb6f4eb0703f3154bb3db0015416604051908152f35b346101b45760203660031901126101b45760046001600160a01b036020610c2182600054166001600160a01b031690565b60405193848092630536340960e21b82525afa9182156103d457600092610c81575b5033911603610c5757610016600435611de0565b60046040517fea8e4eb5000000000000000000000000000000000000000000000000000000008152fd5b610c9a91925060203d81116103cd576103be81836110e4565b9038610c43565b346101b45760203660031901126101b4576001600160a01b03600435610cc68161027e565b1660005260036020526020604060002054604051908152f35b346101b45760203660031901126101b457600435610cfc8161027e565b803b6000610d0982611106565b92610d1760405194856110e4565b82845260208401903c602d815110610d3b57602a602091015160601c604051908152f35b60046040517fbaf3f0f7000000000000000000000000000000000000000000000000000000008152fd5b346101b45760003660031901126101b4576020600454604051908152f35b346101b4576020806003193601126101b45760048035610da28161027e565b6001600160a01b03928084600054166040519485809263d1f956b160e01b82525afa9081156103d45761027a9461035b94600093610dfe575b506040519316818401528252610df0826110ac565b610df8611d77565b90612023565b610e16919350823d84116103cd576103be81836110e4565b9138610ddb565b346101b45760003660031901126101b457610e436102c56000546001600160a01b031690565b6040518091634bf9c0ad60e11b825281600460209485935afa80156103d45761033991600091610e85575b50610e77611bfe565b610e7f611122565b91611f3f565b610e9c9150833d85116103cd576103be81836110e4565b38610e6e565b346101b45760003660031901126101b4576020600554604051908152f35b346101b45760403660031901126101b457610ed9611ae4565b610eea610ee530611c84565b611453565b60046020610f036102c56000546001600160a01b031690565b6040519283809263ab6e844f60e01b82525afa80156103d457610f7291600091610f7d575b506040517f33b59a5b00000000000000000000000000000000000000000000000000000000602082015260043560248083019190915235604482015290610742826064810161031d565b506100166001600255565b610f95915060203d81116103cd576103be81836110e4565b38610f28565b346101b45760003660031901126101b457600460206001600160a01b03600054166040519283809263111ea8c160e21b82525afa9081156103d45761027a91610a6e91600091611025575b50604051610ff3816110ac565b600581527f61676528290000000000000000000000000000000000000000000000000000006020820152610a68611122565b61103d915060203d81116103cd576103be81836110e4565b38610fe6565b634e487b7160e01b600052604160045260246000fd5b600454680100000000000000008110156105c057600181018060045581101561020957600460005260021b7f8a35acfbc15ff81a39ae7d344fd709f28e8600b4aa8c65c6b64bfe7fe36bd19b0190600090565b6040810190811067ffffffffffffffff8211176105c057604052565b6020810190811067ffffffffffffffff8211176105c057604052565b90601f8019910116810190811067ffffffffffffffff8211176105c057604052565b67ffffffffffffffff81116105c057601f01601f191660200190565b6040519061112f826110c8565b60008252565b604051611141816110c8565b60008152906000368137565b908160209103126101b457516111628161027e565b90565b6040513d6000823e3d90fd5b60005b8381106111845750506000910152565b8181015183820152602001611174565b6000926001600160a01b0360a09396959660c08452602660c08501527f547269676765722e496e7374616e63652e70726f706f73616c2e55736572547260e08501527f616e7366657200000000000000000000000000000000000000000000000000006101008501521660208301528360408301526101208060608401528151809184015261122d816101409360208587019101611171565b601f80199101168201019460808201520152565b908160209103126101b4575190565b634e487b7160e01b600052601160045260246000fd5b6000198101919082116105c557565b60405190611282826110ac565b601282527f6765745374617475732875696e743235362900000000000000000000000000006020830152565b519081151582036101b457565b91908260409103126101b45761116260206112d5846112ae565b93016112ae565b6112f9906001600160a01b03166000526003602052604060002090565b54801515806113fc575b156113f65761045961131491611266565b50600381015460ff166113e9576113366102c56000546001600160a01b031690565b6040518091630536340960e21b825281600460209384935afa80156103d45761031d6113929161139f946000916113cc575b5061138460028701546040519384918783019190602083019252565b61138c611275565b90611f14565b80518101820191016112bb565b819291926113c4575b50600091156113c057546001600160a01b0316905090565b5090565b9150386113a8565b6113e39150843d86116103cd576103be81836110e4565b38611368565b546001600160a01b031690565b50600090565b50600454811115611303565b1561140f57565b606460405162461bcd60e51b815260206004820152601c60248201527f7574696c6974792e62617463682e6c696d69742e6578636565646564000000006044820152fd5b1561145a57565b606460405162461bcd60e51b815260206004820152601760248201527f7574696c6974792e756e7365637572652e6661696c65640000000000000000006044820152fd5b604051906114ab826110ac565b600f82527f6765744e6f646573436f756e74282900000000000000000000000000000000006020830152565b156114de57565b606460405162461bcd60e51b815260206004820152601360248201527f7574696c6974792e696d706f72742e646f6e65000000000000000000000000006044820152fd5b919082018092116105c557565b60001981146105c55760010190565b6040519061154b826110ac565b601782527f6765744e6f64654279496e6465782875696e74323536290000000000000000006020830152565b1561157e57565b606460405162461bcd60e51b815260206004820152601660248201527f70726f78792e696e76616c69642e696e7374616e6365000000000000000000006044820152fd5b604051906115cf826110ac565b601382527f496e7374546f55736572286164647265737329000000000000000000000000006020830152565b1561160257565b606460405162461bcd60e51b815260206004820152601260248201527f70726f78792e696e76616c69642e6e6f646500000000000000000000000000006044820152fd5b60405190611653826110ac565b601082527f6765744e6f6465286164647265737329000000000000000000000000000000006020830152565b908160a09103126101b457805191602082015161169b8161027e565b9160408101519161116260806112d5606085016112ae565b6116c06064821115611408565b6116cc610ee530611c84565b6000906116e36102c583546001600160a01b031690565b9160409081519163111ea8c160e21b9485845260209060049482818781855afa80156103d45761172c918691611acd575b5061171d611135565b9061172661149e565b9061205f565b958615611ac35783518381888163ab6e844f60e01b968782525afa9081156103d45761177791611765918891611aa6575061171d611135565b91611771838a116114d7565b82611522565b96808811611a9e575b505b868110611793575050505050505050565b6117a76102c586546001600160a01b031690565b9084519189835284838981845afa9283156103d4578793611a7f575b506117f78651806117db858983019190602083019252565b03946117ef601f19968781018452836110e4565b6108fc61153e565b906001600160a01b0361180d8184161515611577565b87518c815287818c81865afa80156103d457611862918b91611a62575b5089519061185a8261184e888d83019190916001600160a01b036020820193169052565b038981018452836110e4565b6108fc6115c2565b9161187082841615156115fb565b8851938d855288858d81855afa9485156103d4576118cd6001928c8f988f6118db958f9192611a3d575b5091516001600160a01b03909316918301918252906118c59083906020015b038c81018452836110e4565b61138c611646565b8a808251830101910161167f565b50505093909316926118ee8115156115fb565b148015611a34575b6119b7575b506119068280611b1d565b8661191b6102c58b546001600160a01b031690565b8951948580928a82525afa80156103d4576119919561198b948b92611996575b5089517f50db85d1000000000000000000000000000000000000000000000000000000008a8201526001600160a01b03938416602482015293909216604484015290610742908360648101610987565b5061152f565b611782565b61074292506119b1908a3d8c116103cd576103be81836110e4565b9161193b565b928c88918a518096819382525afa9283156103d4578a93611a0b926119ff928c92611a11575b5061185a908b519384918c83019190916001600160a01b036020820193169052565b038881018452836110e4565b386118fb565b61185a919250611a2d908b3d8d116103cd576103be81836110e4565b91906119dd565b508115156118f6565b6118c59250611a5b6118b991833d85116103cd576103be81836110e4565b925061189a565b611a799150893d8b116103cd576103be81836110e4565b3861182a565b611a97919350853d87116103cd576103be81836110e4565b91386117c3565b965038611780565b611abd9150863d88116103cd576103be81836110e4565b38611714565b5050505050505050565b611abd9150843d86116103cd576103be81836110e4565b6002805414611af35760028055565b60046040517f3ee5aeb5000000000000000000000000000000000000000000000000000000008152fd5b60045490680100000000000000008210156105c057611b72611b47836001600395016004556101cf565b509182906001600160a01b031673ffffffffffffffffffffffffffffffffffffffff19825416179055565b60018101805473ffffffffffffffffffffffffffffffffffffffff19166001600160a01b03851617905501600160ff198254161790556001600160a01b0360045491166000526003602052604060002055565b60405190611bd2826110ac565b601682527f67657455736572546f496e7374286164647265737329000000000000000000006020830152565b60405190611c0b826110ac565b600882527f69735361666528290000000000000000000000000000000000000000000000006020830152565b908160209103126101b457611162906112ae565b60405190611c58826110ac565b601582527f69735365637572654261736528616464726573732900000000000000000000006020830152565b611c996102c56000546001600160a01b031690565b906040518092634bf9c0ad60e11b825281600460209586935afa80156103d457611cf49261031d92600092611d1b575b50611cec906040519384918783019190916001600160a01b036020820193169052565b610333611c4b565b9080611d11575b1561036d57816111629282518301019101611c37565b5081815114611cfb565b611cec919250611d3790863d88116103cd576103be81836110e4565b9190611cc9565b60405190611d4b826110ac565b601182527f69735369676e65722861646472657373290000000000000000000000000000006020830152565b60405190611d84826110ac565b601882527f697364656c656761746f724e6f646528616464726573732900000000000000006020830152565b3d15611ddb573d90611dc182611106565b91611dcf60405193846110e4565b82523d6000602084013e565b606090565b6000611df66102c582546001600160a01b031690565b9060405180927f46f991ac00000000000000000000000000000000000000000000000000000000825281600460209586935afa80156103d45782808681949382948391611ef7575b505af1611e49611db0565b501561036d57600482611e666102c584546001600160a01b031690565b604051928380927f5e09dbe70000000000000000000000000000000000000000000000000000000082525afa9081156103d4577fcdcc745fe377b103b45fa0cec23ae3ef93d6fc6a84a01f0d18c40b354dd1d5d8936001600160a01b039392611eda575b50506040519384521691602090a2565b611ef09250803d106103cd576103be81836110e4565b3880611eca565b611f0e9150883d8a116103cd576103be81836110e4565b38611e3e565b90611f1f9291611f3f565b9060009015611f2c575090565b6040519150611f3a826110c8565b815290565b803b15611fb9576000927fffffffff000000000000000000000000000000000000000000000000000000008360208695519101201690611fa96024604051809360208201958652611f998151809260208686019101611171565b81010360048101845201826110e4565b51915afa611fb5611db0565b9091565b505050600090604051611fcb816110c8565b6000815290565b9291611fe091600094611f3f565b9080612018575b611fee5750565b9091506020818051810103126101b45760206001600160a01b039101516120148161027e565b1690565b506020815114611fe7565b929161203191600094611f3f565b9080612054575b61203f5750565b61116291925060208082518301019101611c37565b506020815114612038565b929161206d91600094611f3f565b9080612090575b61207b5750565b61116291925060208082518301019101611241565b506020815114612074565b90602082519201517fffffffff000000000000000000000000000000000000000000000000000000009081811693600481106120d657505050565b60040360031b82901b16169150565b6001600160a01b038116156107f257600080918351908260208601915af19061210c611db0565b9115612116575090565b8051600091906004116121925761212d915061209b565b81511561213d5750805190602001fd5b6040517f21c09d340000000000000000000000000000000000000000000000000000000081527fffffffff00000000000000000000000000000000000000000000000000000000919091166004820152602490fd5b5061212d56fea26469706673582212208c8812aa06ac9f8da36c115ffdb07ccff3d5451cfd7bf472636dbdb602500f8b64736f6c6343000814003360803462001ae5576001600160401b0390601f62004a8438819003918201601f19168301918483118484101762001abd5780849260209460405283398101031262001ae557516001600160a01b0381169081900362001ae557801562001ad35760018060a01b031933816001541617600155600054161760005560a760155561010e601655601e601b556001601c556001601d556002601e5561c350601f556102586020556003602155601960225568878678326eac900000602355670de0b6b3a764000060245569021e19e0c9bab24000006025556001602655600360275560016028556007602955600560325560ff196033541660335560405160e081018181108382111762001abd576102589160c0916040526002815260646020820152600160408201526023606082015260646080820152600160a0820152015260026006556064600755600160085560236009556064600a556001600b55610258600c5560b460606200017062001b2a565b60198152600a6020820152605a604082015201526019600d55600a600e55605a600f5560b4601055620001a262001b2a565b600581526001602082015260b460606101689283604082015201526005601155600160125560135560b4601455604051908160c08101109060c08301111762001abd5760a08160c0600193016040526003815260036020820152826040820152826060820152826080820152015260036017556003601855630101010163ffffffff1960195416176019556200023762001b2a565b610258606061014092838152600b6020820152600a60408201520152602a55600b602b55600a602c55610258602d5561025860606200027562001b2a565b60d28152600b6020820152600a6040820152015260d2602e55600b602f55600a6030556102586031556200038d620002ac62001aea565b60008082526020808301828152604084018381526060850184815261270f60808701908152948052600390935293517f3617319a054d772f909f7c479a2cebe5066e836a939412e32403c99029b92eff55517f3617319a054d772f909f7c479a2cebe5066e836a939412e32403c99029b92f005591517f3617319a054d772f909f7c479a2cebe5066e836a939412e32403c99029b92f015590517f3617319a054d772f909f7c479a2cebe5066e836a939412e32403c99029b92f0255517f3617319a054d772f909f7c479a2cebe5066e836a939412e32403c99029b92f0355565b620004826200039b62001aea565b60078152601960208083019182526000604084018181526060850182815261270f608087019081526001909352600390935293517fa15bc60c955c405d20d9149c709e2460f1c2d9a497496a7f46004d1772c3054c5591517fa15bc60c955c405d20d9149c709e2460f1c2d9a497496a7f46004d1772c3054d5591517fa15bc60c955c405d20d9149c709e2460f1c2d9a497496a7f46004d1772c3054e5590517fa15bc60c955c405d20d9149c709e2460f1c2d9a497496a7f46004d1772c3054f55517fa15bc60c955c405d20d9149c709e2460f1c2d9a497496a7f46004d1772c3055055565b620005776200049062001aea565b60078152606460208083019182526000604084018181526060850182815261270f608087019081526002909352600390935293517fc3a24b0501bd2c13a7e57f2db4369ec4c223447539fc0724a9d55ac4a06ebd4d5591517fc3a24b0501bd2c13a7e57f2db4369ec4c223447539fc0724a9d55ac4a06ebd4e5591517fc3a24b0501bd2c13a7e57f2db4369ec4c223447539fc0724a9d55ac4a06ebd4f5590517fc3a24b0501bd2c13a7e57f2db4369ec4c223447539fc0724a9d55ac4a06ebd5055517fc3a24b0501bd2c13a7e57f2db4369ec4c223447539fc0724a9d55ac4a06ebd5155565b6200066b6200058562001aea565b600781526101f46020808301918252600360408401818152600060608601818152601e60808801908152918490529290935293517fcbc4e5fb02c3d1de23a9f1e014b4d2ee5aeaea9505df5e855c9210bf472495af5591517fcbc4e5fb02c3d1de23a9f1e014b4d2ee5aeaea9505df5e855c9210bf472495b05591517fcbc4e5fb02c3d1de23a9f1e014b4d2ee5aeaea9505df5e855c9210bf472495b155517fcbc4e5fb02c3d1de23a9f1e014b4d2ee5aeaea9505df5e855c9210bf472495b255517fcbc4e5fb02c3d1de23a9f1e014b4d2ee5aeaea9505df5e855c9210bf472495b355565b620007606200067962001aea565b600781526107d06020808301918252600460408401818152600360608601818152601e60808801908152600094909452935293517f83ec6a1f0257b830b5e016457c9cf1435391bf56cc98f369a58a54fe937724655591517f83ec6a1f0257b830b5e016457c9cf1435391bf56cc98f369a58a54fe937724665591517f83ec6a1f0257b830b5e016457c9cf1435391bf56cc98f369a58a54fe937724675590517f83ec6a1f0257b830b5e016457c9cf1435391bf56cc98f369a58a54fe9377246855517f83ec6a1f0257b830b5e016457c9cf1435391bf56cc98f369a58a54fe9377246955565b620008556200076e62001aea565b6007815261138860208083019182526004604084018181526060850191825261270f608086019081526005600052600390935293517f405aad32e1adbac89bb7f176e338b8fc6e994ca210c9bb7bdca249b4659422505591517f405aad32e1adbac89bb7f176e338b8fc6e994ca210c9bb7bdca249b4659422515591517f405aad32e1adbac89bb7f176e338b8fc6e994ca210c9bb7bdca249b46594225255517f405aad32e1adbac89bb7f176e338b8fc6e994ca210c9bb7bdca249b46594225355517f405aad32e1adbac89bb7f176e338b8fc6e994ca210c9bb7bdca249b46594225455565b6200094a6200086362001aea565b6007815261271060208083019182526004604084018181526060850191825261270f608086019081526006600052600390935293517fc69056f16cbaa3c616b828e333ab7d3a32310765507f8f58359e99ebb7a885f35591517fc69056f16cbaa3c616b828e333ab7d3a32310765507f8f58359e99ebb7a885f45591517fc69056f16cbaa3c616b828e333ab7d3a32310765507f8f58359e99ebb7a885f555517fc69056f16cbaa3c616b828e333ab7d3a32310765507f8f58359e99ebb7a885f655517fc69056f16cbaa3c616b828e333ab7d3a32310765507f8f58359e99ebb7a885f755565b62000a416200095862001aea565b60078082526161a860208084019182526004604085018181526060860191825261270f60808701908152600095909552600390925293517ff2c49132ed1cee2a7e75bde50d332a2f81f1d01e5456d8a19d1df09bd561dbd25590517ff2c49132ed1cee2a7e75bde50d332a2f81f1d01e5456d8a19d1df09bd561dbd355517ff2c49132ed1cee2a7e75bde50d332a2f81f1d01e5456d8a19d1df09bd561dbd45590517ff2c49132ed1cee2a7e75bde50d332a2f81f1d01e5456d8a19d1df09bd561dbd555517ff2c49132ed1cee2a7e75bde50d332a2f81f1d01e5456d8a19d1df09bd561dbd655565b62000b3162000a4f62001aea565b600080825260066020808401918252600160408501818152600560608701818152608088018481529390965290925293517f1471eb6eb2c5e789fc3de43f8ce62938c7d1836ec861730447e2ada8fd81017b5590517f1471eb6eb2c5e789fc3de43f8ce62938c7d1836ec861730447e2ada8fd81017c55517f1471eb6eb2c5e789fc3de43f8ce62938c7d1836ec861730447e2ada8fd81017d55517f1471eb6eb2c5e789fc3de43f8ce62938c7d1836ec861730447e2ada8fd81017e55517f1471eb6eb2c5e789fc3de43f8ce62938c7d1836ec861730447e2ada8fd81017f55565b62000c2262000b3f62001aea565b60008082526003602080840191825260016040850181815260056060870181815260808801938452600290965290925293517f89832631fb3c3307a103ba2c84ab569c64d6182a18893dcd163f0f1c2090733a5590517f89832631fb3c3307a103ba2c84ab569c64d6182a18893dcd163f0f1c2090733b55517f89832631fb3c3307a103ba2c84ab569c64d6182a18893dcd163f0f1c2090733c55517f89832631fb3c3307a103ba2c84ab569c64d6182a18893dcd163f0f1c2090733d55517f89832631fb3c3307a103ba2c84ab569c64d6182a18893dcd163f0f1c2090733e55565b62000d1662000c3062001aea565b60028152600f6020808301918252600a6040840190815260056060850181815260016080870190815260036000529190935293517fa9bc9a3a348c357ba16b37005d7e6b3236198c0e939f4af8c5f19b8deeb8ebc05591517fa9bc9a3a348c357ba16b37005d7e6b3236198c0e939f4af8c5f19b8deeb8ebc15590517fa9bc9a3a348c357ba16b37005d7e6b3236198c0e939f4af8c5f19b8deeb8ebc255517fa9bc9a3a348c357ba16b37005d7e6b3236198c0e939f4af8c5f19b8deeb8ebc355517fa9bc9a3a348c357ba16b37005d7e6b3236198c0e939f4af8c5f19b8deeb8ebc455565b62000e0a62000d2462001aea565b60028152600f6020808301918252600a6040840190815260056060850181815260016080870190815260046000529190935293517f3eec716f11ba9e820c81ca75eb978ffb45831ef8b7a53e5e422c26008e1ca6d55591517f3eec716f11ba9e820c81ca75eb978ffb45831ef8b7a53e5e422c26008e1ca6d65590517f3eec716f11ba9e820c81ca75eb978ffb45831ef8b7a53e5e422c26008e1ca6d755517f3eec716f11ba9e820c81ca75eb978ffb45831ef8b7a53e5e422c26008e1ca6d855517f3eec716f11ba9e820c81ca75eb978ffb45831ef8b7a53e5e422c26008e1ca6d955565b62000efe62000e1862001aea565b60028152600f6020808301918252600a6040840190815260056060850181815260016080870190815260008390529190935293517f458b30c2d72bfd2c6317304a4594ecbafe5f729d3111b65fdc3a33bd48e5432d5591517f458b30c2d72bfd2c6317304a4594ecbafe5f729d3111b65fdc3a33bd48e5432e5590517f458b30c2d72bfd2c6317304a4594ecbafe5f729d3111b65fdc3a33bd48e5432f55517f458b30c2d72bfd2c6317304a4594ecbafe5f729d3111b65fdc3a33bd48e5433055517f458b30c2d72bfd2c6317304a4594ecbafe5f729d3111b65fdc3a33bd48e5433155565b62000ff262000f0c62001aea565b60028152604b602080830191825260646040840181815260fa60608601908152608086019283526006600052600590935293517f069400f22b28c6c362558d92f66163cec5671cba50b61abd2eecfcd0eaeac5185591517f069400f22b28c6c362558d92f66163cec5671cba50b61abd2eecfcd0eaeac5195591517f069400f22b28c6c362558d92f66163cec5671cba50b61abd2eecfcd0eaeac51a5590517f069400f22b28c6c362558d92f66163cec5671cba50b61abd2eecfcd0eaeac51b55517f069400f22b28c6c362558d92f66163cec5671cba50b61abd2eecfcd0eaeac51c55565b620010e66200100062001aea565b60028152604b602080830191825260646040840181815260fa60608601908152608086019283526007600052600590935293517feddb6698d7c569ff62ff64f1f1492bf14a54594835ba0faac91f84b4f5d814605591517feddb6698d7c569ff62ff64f1f1492bf14a54594835ba0faac91f84b4f5d814615591517feddb6698d7c569ff62ff64f1f1492bf14a54594835ba0faac91f84b4f5d814625590517feddb6698d7c569ff62ff64f1f1492bf14a54594835ba0faac91f84b4f5d8146355517feddb6698d7c569ff62ff64f1f1492bf14a54594835ba0faac91f84b4f5d8146455565b620011da620010f462001aea565b60028152604b602080830191825260646040840181815260fa60608601908152608086019283526008600052600590935293517ffb33122aa9f93cc639ebe80a7bc4784c11e6053dde89c6f4f7e268c6a623da1e5591517ffb33122aa9f93cc639ebe80a7bc4784c11e6053dde89c6f4f7e268c6a623da1f5591517ffb33122aa9f93cc639ebe80a7bc4784c11e6053dde89c6f4f7e268c6a623da205590517ffb33122aa9f93cc639ebe80a7bc4784c11e6053dde89c6f4f7e268c6a623da2155517ffb33122aa9f93cc639ebe80a7bc4784c11e6053dde89c6f4f7e268c6a623da2255565b620012ce620011e862001aea565b60028152604b602080830191825260646040840181815260fa60608601908152608086019283526009600052600590935293517fc0a4a8be475dfebc377ebef2d7c4ff47656f572a08dd92b81017efcdba0febe15591517fc0a4a8be475dfebc377ebef2d7c4ff47656f572a08dd92b81017efcdba0febe25591517fc0a4a8be475dfebc377ebef2d7c4ff47656f572a08dd92b81017efcdba0febe35590517fc0a4a8be475dfebc377ebef2d7c4ff47656f572a08dd92b81017efcdba0febe455517fc0a4a8be475dfebc377ebef2d7c4ff47656f572a08dd92b81017efcdba0febe555565b620013c2620012dc62001aea565b60028152604b602080830191825260646040840181815260fa6060860190815260808601928352600a600052600590935293517fa18b128af1c8fc61ff46f02d146e54546f34d340574cf2cef6a753cba6b6701d5591517fa18b128af1c8fc61ff46f02d146e54546f34d340574cf2cef6a753cba6b6701e5591517fa18b128af1c8fc61ff46f02d146e54546f34d340574cf2cef6a753cba6b6701f5590517fa18b128af1c8fc61ff46f02d146e54546f34d340574cf2cef6a753cba6b6702055517fa18b128af1c8fc61ff46f02d146e54546f34d340574cf2cef6a753cba6b6702155565b620014b6620013d062001aea565b60028152604b602080830191825260646040840181815260fa6060860190815260808601928352600b600052600590935293517f40f28f99a40bc9f6beea1013afdbc3cdcc689eb76b82c4de06c0acf1e1932ed55591517f40f28f99a40bc9f6beea1013afdbc3cdcc689eb76b82c4de06c0acf1e1932ed65591517f40f28f99a40bc9f6beea1013afdbc3cdcc689eb76b82c4de06c0acf1e1932ed75590517f40f28f99a40bc9f6beea1013afdbc3cdcc689eb76b82c4de06c0acf1e1932ed855517f40f28f99a40bc9f6beea1013afdbc3cdcc689eb76b82c4de06c0acf1e1932ed955565b620015aa620014c462001aea565b60028152604b602080830191825260646040840181815260fa6060860190815260808601928352600c600052600590935293517ff907e7e6656fa73566b18c1215272fe9fca2c55c552e62c923e21e000ac4b4e65591517ff907e7e6656fa73566b18c1215272fe9fca2c55c552e62c923e21e000ac4b4e75591517ff907e7e6656fa73566b18c1215272fe9fca2c55c552e62c923e21e000ac4b4e85590517ff907e7e6656fa73566b18c1215272fe9fca2c55c552e62c923e21e000ac4b4e955517ff907e7e6656fa73566b18c1215272fe9fca2c55c552e62c923e21e000ac4b4ea55565b6200169e620015b862001aea565b60028152604b602080830191825260646040840181815260fa6060860190815260808601928352600d600052600590935293517f03145c75015e7a856ecd94c41432ef3cb669d6360af23433588937fefdfac8255591517f03145c75015e7a856ecd94c41432ef3cb669d6360af23433588937fefdfac8265591517f03145c75015e7a856ecd94c41432ef3cb669d6360af23433588937fefdfac8275590517f03145c75015e7a856ecd94c41432ef3cb669d6360af23433588937fefdfac82855517f03145c75015e7a856ecd94c41432ef3cb669d6360af23433588937fefdfac82955565b62001792620016ac62001aea565b60028152604b602080830191825260646040840181815260fa6060860190815260808601928352600e600052600590935293517f783638979e3582b3ffd6d53fc06c949ac31d1ac75a5e2c3531fbe1f91045eb535591517f783638979e3582b3ffd6d53fc06c949ac31d1ac75a5e2c3531fbe1f91045eb545591517f783638979e3582b3ffd6d53fc06c949ac31d1ac75a5e2c3531fbe1f91045eb555590517f783638979e3582b3ffd6d53fc06c949ac31d1ac75a5e2c3531fbe1f91045eb5655517f783638979e3582b3ffd6d53fc06c949ac31d1ac75a5e2c3531fbe1f91045eb5755565b62001886620017a062001aea565b60028152604b602080830191825260646040840181815260fa6060860190815260808601928352600f600052600590935293517f58f00e8ecc6f5419941dd0bafec65a4cc188d31713fb1fe224257460930df8af5591517f58f00e8ecc6f5419941dd0bafec65a4cc188d31713fb1fe224257460930df8b05591517f58f00e8ecc6f5419941dd0bafec65a4cc188d31713fb1fe224257460930df8b15590517f58f00e8ecc6f5419941dd0bafec65a4cc188d31713fb1fe224257460930df8b255517f58f00e8ecc6f5419941dd0bafec65a4cc188d31713fb1fe224257460930df8b355565b6200189062001b0a565b60128152600a6020808301918252602d604084019081526003600052600490915291517f2e174c10e159ea99b867ce3205125c24a42d128804e4070ed6fcc8cc98166aa055517f2e174c10e159ea99b867ce3205125c24a42d128804e4070ed6fcc8cc98166aa155517f2e174c10e159ea99b867ce3205125c24a42d128804e4070ed6fcc8cc98166aa2556200192562001b0a565b60128152600a6020808301918252605a604084019081526005600052600490915291517f04cde762ef08b6b6c5ded8e8c4c0b3f4e5c9ad7342c88fcc93681b4588b73f0555517f04cde762ef08b6b6c5ded8e8c4c0b3f4e5c9ad7342c88fcc93681b4588b73f0655517f04cde762ef08b6b6c5ded8e8c4c0b3f4e5c9ad7342c88fcc93681b4588b73f0755620019ba62001b0a565b60098152600a602080830182815261270f604080860191825260076000908152600480865296517fbeb3bad75134cb432e5707980e3245c52c5998a1125ee30f2f0dbf3925b1e5515592517fbeb3bad75134cb432e5707980e3245c52c5998a1125ee30f2f0dbf3925b1e5525590517fbeb3bad75134cb432e5707980e3245c52c5998a1125ee30f2f0dbf3925b1e55355600290925260327f679795a0195a1b76cdebb7c51d74e058aee92919b8c3389af86ef24535e8a28c55929092526101f47fee60d0579bcffd98e668647d59fec1ff86a7fb340ce572e844f234ae73a6918f556005600f55601381905560a760155560165551612f23908162001b618239f35b634e487b7160e01b600052604160045260246000fd5b60405163e6c4247b60e01b8152600490fd5b600080fd5b6040519060a082016001600160401b0381118382101762001abd57604052565b60405190606082016001600160401b0381118382101762001abd57604052565b60405190608082016001600160401b0381118382101762001abd576040526000606083828152826020820152826040820152015256fe60806040526004361015610018575b361561001657005b005b60003560e01c806304ce9f80146104785780630609a0e31461047357806307175c831461046e57806309307c62146104695780630b225f1a146104645780630ea0d2221461045f57806312065fe01461045a57806314be92a51461045557806315a544ed146104505780631605aed91461044b57806316f0115b14610446578063179b570a14610441578063192b48ee1461043c5780631ef6a864146104375780631f185d1614610432578063203bab661461042d57806326c5adae14610428578063298fc460146104235780633688236d1461041e5780633b9b7955146104195780634151331d14610414578063438fe1921461040f57806344ec16bc1461040a5780634b62954f1461040557806353423e8614610400578063541d7667146103fb57806354541683146103f65780635640dbfc146103f1578063592a02a8146103ec5780635962205f146103e75780635a0e9038146103e257806368400cb3146103dd5780636c7deb5d146103d85780636f092c5e146103d35780637687e371146103ce57806378ef376f146103c95780637bc908c6146103c4578063840bbc1e146103bf5780638da5cb5b146103ba57806391fc8aa8146103b55780639319d0b5146103b057806395cea094146103ab5780639d80ab9b146103a65780639eb8b44e146103a15780639f70207d1461039c578063a19841dd14610397578063a1f7f53914610392578063a88fcea61461038d578063aebcd32a14610388578063af0b21d314610383578063af4845261461037e578063b338677514610379578063b49c064c14610374578063b85f1f8d1461036f578063b90306ad1461036a578063c54e44b014610365578063c5a136d414610360578063dbad649c1461035b578063e01ad5fd14610356578063e0a9bc2b14610351578063e19a5bcf1461034c578063e6a7791914610347578063eddd0d9c14610342578063f27c35c61461033d578063f2a6bbc714610338578063f4fe8e3c14610333578063f5de7bd21461032e578063f7a9783e14610329578063fc0e74d1146103245763fdc10bc90361000e57612398565b612375565b612315565b61225e565b6121b0565b612105565b61205b565b611fb0565b611ed0565b611e26565b611e0b565b611d71565b611d53565b611c9f565b611c19565b611b92565b611b58565b611b35565b611b17565b611ae6565b611ac8565b611a60565b611a42565b611994565b61195a565b61193c565b611765565b6116e6565b6116c8565b61161d565b6115ff565b6115d8565b61155f565b611541565b611496565b6113d4565b6113a8565b6112fd565b6112df565b6112a5565b61123d565b611193565b611112565b6110f4565b611083565b611065565b610fb4565b610f09565b610eeb565b610ea8565b610e81565b610e63565b610da1565b610ce0565b610c23565b610afa565b610a3f565b610972565b6108c1565b610870565b610852565b610834565b610789565b61076d565b610750565b610732565b610681565b610663565b61053f565b3461053a57604036600319011261053a57600080808060243560043560018114610504575b6002146104d2575b50906104ce91604051948594859094939260609260808301968352602083015260408201520152565b0390f35b6011546012546013546015549297509095506104ce94509250116104fc576016545b9290916104a5565b6014546104f4565b935093505050600d5491600e54600f54918060155411156000146105305760026016545b94905061049d565b6002601054610528565b600080fd5b3461053a57602036600319011261053a5761055f61055b612599565b1590565b6106395761056c33612691565b80156105ad575b1561058357610016600435601b55565b60046040517fea8e4eb5000000000000000000000000000000000000000000000000000000008152fd5b50600460206105d36105c76000546001600160a01b031690565b6001600160a01b031690565b60405192838092630536340960e21b82525afa90811561063457600091610606575b506001600160a01b03163314610573565b610627915060203d811161062d575b61061f8183612500565b810190612522565b386105f5565b503d610615565b61253a565b60046040517f9dc4246e000000000000000000000000000000000000000000000000000000008152fd5b3461053a57600036600319011261053a576020602254604051908152f35b3461053a57604036600319011261053a5761069d61055b612599565b610639576106aa33612691565b80156106c7575b1561058357610016602435600435602455602555565b50600460206106e16105c76000546001600160a01b031690565b60405192838092630536340960e21b82525afa90811561063457600091610714575b506001600160a01b031633146106b1565b61072c915060203d811161062d5761061f8183612500565b38610703565b3461053a57600036600319011261053a576020603254604051908152f35b3461053a57600036600319011261053a5760208054604051908152f35b3461053a57600036600319011261053a57602047604051908152f35b3461053a57602036600319011261053a576107a561055b612599565b610639576107b233612691565b80156107c9575b1561058357610016600435602055565b50600460206107e36105c76000546001600160a01b031690565b60405192838092630536340960e21b82525afa90811561063457600091610816575b506001600160a01b031633146107b9565b61082e915060203d811161062d5761061f8183612500565b38610805565b3461053a57600036600319011261053a576020602554604051908152f35b3461053a57600036600319011261053a576020602454604051908152f35b3461053a57600036600319011261053a5760e0600654600754600854600954600a5490600b5492600c5494604051968752602087015260408601526060850152608084015260a083015260c0820152f35b3461053a57604036600319011261053a576108dd61055b612599565b610639576108ea33612691565b8015610907575b1561058357610016602435600435601555601655565b50600460206109216105c76000546001600160a01b031690565b60405192838092630536340960e21b82525afa90811561063457600091610954575b506001600160a01b031633146108f1565b61096c915060203d811161062d5761061f8183612500565b38610943565b3461053a57602036600319011261053a5761098e61055b612599565b6106395761099b33612691565b80156109b2575b1561058357610016600435612a68565b50600460206109cc6105c76000546001600160a01b031690565b60405192838092630536340960e21b82525afa908115610634576000916109ff575b506001600160a01b031633146109a2565b610a17915060203d811161062d5761061f8183612500565b386109ee565b60a090600319011261053a576004359060243590604435906064359060843590565b3461053a57610a4d36610a1d565b92610a5c61055b939293612599565b61063957610a6933612691565b8015610a7e575b156105835761001694612df7565b5060046020610a986105c76000546001600160a01b031690565b60405192838092630536340960e21b82525afa90811561063457600091610acb575b506001600160a01b03163314610a70565b610ae3915060203d811161062d5761061f8183612500565b38610aba565b6001600160a01b0381160361053a57565b3461053a5760208060031936011261053a57600435610b1881610ae9565b600482610b306105c76000546001600160a01b031690565b60405192838092634bf9c0ad60e11b82525afa801561063457610b9892610b7c92600092610c00575b50610b8a906040519384918783019190916001600160a01b036020820193169052565b03601f198101845283612500565b610b92612724565b906128fa565b919080610bf6575b15610bcc578181610bba926104ce94518301019101612584565b60405190151581529081906020820190565b60046040517f3204506f000000000000000000000000000000000000000000000000000000008152fd5b5080825114610ba0565b610b8a919250610c1c90863d881161062d5761061f8183612500565b9190610b59565b3461053a5760e036600319011261053a57610c3f61055b612599565b61063957610c4c33612691565b8015610c75575b156105835761001660c43560a435608435606435604435602435600435612d07565b5060046020610c8f6105c76000546001600160a01b031690565b60405192838092630536340960e21b82525afa90811561063457600091610cc2575b506001600160a01b03163314610c53565b610cda915060203d811161062d5761061f8183612500565b38610cb1565b3461053a57602036600319011261053a57600460206001600160a01b0360005416604051928380926369e8d84b60e11b82525afa801561063457610d45610d69916104ce93600091610d79575b50610d36612e7c565b90610d3f612e94565b906129e4565b610d6460043591610d5f610d5a602254612a22565b612a22565b612ecd565b612a55565b6040519081529081906020820190565b610d91915060203d811161062d5761061f8183612500565b38610d2d565b8015150361053a57565b3461053a57602036600319011261053a57600435610dbe81610d97565b610dc961055b612599565b61063957610dd633612691565b8015610df8575b15610583576100169060ff8019603354169115151617603355565b5060046020610e126105c76000546001600160a01b031690565b60405192838092630536340960e21b82525afa90811561063457600091610e45575b506001600160a01b03163314610ddd565b610e5d915060203d811161062d5761061f8183612500565b38610e34565b3461053a57600036600319011261053a576020601f54604051908152f35b3461053a57600036600319011261053a5760206001600160a01b0360005416604051908152f35b3461053a57602036600319011261053a57600435600052600460205260606040600020805490600260018201549101549060405192835260208301526040820152f35b3461053a57600036600319011261053a576020601d54604051908152f35b3461053a57602036600319011261053a57610f2561055b612599565b61063957610f3233612691565b8015610f49575b1561058357610016600435601c55565b5060046020610f636105c76000546001600160a01b031690565b60405192838092630536340960e21b82525afa90811561063457600091610f96575b506001600160a01b03163314610f39565b610fae915060203d811161062d5761061f8183612500565b38610f85565b3461053a57604036600319011261053a57610fd061055b612599565b61063957610fdd33612691565b8015610ffa575b1561058357610016602435600435601e55601f55565b50600460206110146105c76000546001600160a01b031690565b60405192838092630536340960e21b82525afa90811561063457600091611047575b506001600160a01b03163314610fe4565b61105f915060203d811161062d5761061f8183612500565b38611036565b3461053a57600036600319011261053a576020602154604051908152f35b3461053a57602036600319011261053a57600460206001600160a01b0360005416604051928380926369e8d84b60e11b82525afa8015610634576110d8610d69916104ce93600091610d795750610d36612e7c565b6004356000526002602052610d5f610d5a604060002054612a22565b3461053a57600036600319011261053a576020601c54604051908152f35b3461053a57600036600319011261053a5760c060175460ff60185460195490604051938452602084015281811615156040840152818160081c1615156060840152818160101c161515608084015260181c16151560a0820152f35b60c090600319011261053a57600435906024359060443590606435906084359060a43590565b3461053a576111a13661116d565b936111b061055b949294612599565b610639576111bd33612691565b80156111d2575b156105835761001695612a76565b50600460206111ec6105c76000546001600160a01b031690565b60405192838092630536340960e21b82525afa9081156106345760009161121f575b506001600160a01b031633146111c4565b611237915060203d811161062d5761061f8183612500565b3861120e565b3461053a57602036600319011261053a576004356000526005602052604060002080546104ce6001830154926002810154906004600382015491015491604051958695869192608093969594919660a084019784526020840152604083015260608201520152565b3461053a57600036600319011261053a57600d54600e54600f54601054604080519485526020850193909352918301526060820152608090f35b3461053a57600036600319011261053a576020602854604051908152f35b3461053a57602036600319011261053a5761131961055b612599565b6106395761132633612691565b801561133d575b1561058357610016600435602155565b50600460206113576105c76000546001600160a01b031690565b60405192838092630536340960e21b82525afa9081156106345760009161138a575b506001600160a01b0316331461132d565b6113a2915060203d811161062d5761061f8183612500565b38611379565b3461053a57602036600319011261053a5760043560005260026020526020604060002054604051908152f35b3461053a57602036600319011261053a576004356113f181610d97565b6113fc61055b612599565b6106395761140933612691565b801561142b575b15610583576100169060ff8019601a54169115151617601a55565b50600460206114456105c76000546001600160a01b031690565b60405192838092630536340960e21b82525afa90811561063457600091611478575b506001600160a01b03163314611410565b611490915060203d811161062d5761061f8183612500565b38611467565b3461053a57602036600319011261053a576114b261055b612599565b610639576114bf33612691565b80156114d6575b1561058357610016600435602655565b50600460206114f06105c76000546001600160a01b031690565b60405192838092630536340960e21b82525afa90811561063457600091611523575b506001600160a01b031633146114c6565b61153b915060203d811161062d5761061f8183612500565b38611512565b3461053a57600036600319011261053a576020602654604051908152f35b3461053a57602036600319011261053a57600460206001600160a01b0360005416604051928380926369e8d84b60e11b82525afa908115610634576115c66115be6104ce93670de0b6b3a764000093600091610d795750610d36612e7c565b600435612a55565b04604051918291829190602083019252565b3461053a57600036600319011261053a5760206001600160a01b0360015416604051908152f35b3461053a57600036600319011261053a576020602354604051908152f35b3461053a57602036600319011261053a5761163961055b612599565b6106395761164633612691565b801561165d575b1561058357610016600435601d55565b50600460206116776105c76000546001600160a01b031690565b60405192838092630536340960e21b82525afa908115610634576000916116aa575b506001600160a01b0316331461164d565b6116c2915060203d811161062d5761061f8183612500565b38611699565b3461053a57600036600319011261053a576020602954604051908152f35b3461053a57600036600319011261053a57602a54602b54602c54602d54604080519485526020850193909352918301526060820152608090f35b6102a0810192916000915b6007831061173857505050565b6001906060835191825181526020928381015184830152604080910151908201520192019201919061172b565b3461053a57600080600319360112611939576040908151611785816124ac565b815b60e08110611914576104ce8461179b612546565b60016000526004602052906117d47fabd6e7cb50984ff9c2f3e18a2660c3353dadf4e3291deeb275dae2cd1e44fe05612e54565b612e54565b8252600260005260046020526118097f91da3fd0782e51c6b3986e9e672fd566868e71f3dbc2d6c2cd6fbb3e361af2a7612e54565b60208301526118266117cf60036000526004602052604060002090565b828201526004600081905260205261185d7f1a1e6821cde7d0159c0d293177871e09677b4e42307c7db3ba94f8648a5a050f612e54565b6060830152600560005260046020526118957f04cde762ef08b6b6c5ded8e8c4c0b3f4e5c9ad7342c88fcc93681b4588b73f05612e54565b6080830152600660005260046020526118cd7fc59312466997bb42aaaf719ece141047820e6b34531e1670dc1852a453648f0f612e54565b60a0830152600760005260046020526119057fbeb3bad75134cb432e5707980e3245c52c5998a1125ee30f2f0dbf3925b1e551612e54565b60c08301525191829182611720565b60209084516119228161246f565b848152848382015284868201528184015201611787565b80fd5b3461053a57600036600319011261053a576020601554604051908152f35b3461053a57600036600319011261053a57602e54602f54603054603154604080519485526020850193909352918301526060820152608090f35b3461053a57600036600319011261053a57600460206001600160a01b03600054166040519283809263d1f956b160e01b82525afa908115610634576104ce91610d6991600091611a24575b506040516119ec816124c8565b601381527f67657464656c656761746f72436f756e742829000000000000000000000000006020820152611a1e612571565b916129e4565b611a3c915060203d811161062d5761061f8183612500565b386119df565b3461053a57600036600319011261053a576020601e54604051908152f35b3461053a57602036600319011261053a576004356000526003602052604060002080546104ce6001830154926002810154906004600382015491015491604051958695869192608093969594919660a084019784526020840152604083015260608201520152565b3461053a57600036600319011261053a576020601b54604051908152f35b3461053a57602036600319011261053a576020611b0d600435611b0881610ae9565b612691565b6040519015158152f35b3461053a57600036600319011261053a576020602754604051908152f35b3461053a57600036600319011261053a57602060ff603354166040519015158152f35b3461053a57600036600319011261053a57601154601254601354601454604080519485526020850193909352918301526060820152608090f35b3461053a57602036600319011261053a5760046001600160a01b036020611bc382600054166001600160a01b031690565b60405193848092630536340960e21b82525afa91821561063457600092611bf9575b5033911603610583576100166004356127c6565b611c1291925060203d811161062d5761061f8183612500565b9038611be5565b3461053a57602036600319011261053a57600435611c3681610ae9565b803b6000611c4382612555565b92611c516040519485612500565b82845260208401903c602d815110611c7557602a602091015160601c604051908152f35b60046040517fbaf3f0f7000000000000000000000000000000000000000000000000000000008152fd5b3461053a57608036600319011261053a57611cbb61055b612599565b61063957611cc833612691565b8015611ce8575b1561058357610016606435604435602435600435612c9e565b5060046020611d026105c76000546001600160a01b031690565b60405192838092630536340960e21b82525afa90811561063457600091611d35575b506001600160a01b03163314611ccf565b611d4d915060203d811161062d5761061f8183612500565b38611d24565b3461053a57600036600319011261053a576020601654604051908152f35b3461053a5760208060031936011261053a5760048035611d9081610ae9565b6001600160a01b03928084600054166040519485809263d1f956b160e01b82525afa908115610634576104ce94610bba94600093611dec575b506040519316818401528252611dde826124c8565b611de661275d565b906129a8565b611e04919350823d841161062d5761061f8183612500565b9138611dc9565b3461053a57600036600319011261053a576020611b0d612599565b3461053a57611e3436610a1d565b92611e4361055b939293612599565b61063957611e5033612691565b8015611e65575b156105835761001694612d99565b5060046020611e7f6105c76000546001600160a01b031690565b60405192838092630536340960e21b82525afa90811561063457600091611eb2575b506001600160a01b03163314611e57565b611eca915060203d811161062d5761061f8183612500565b38611ea1565b3461053a5760c036600319011261053a57604435611eed81610d97565b606435611ef981610d97565b608435611f0581610d97565b60a43591611f1283610d97565b611f1d61055b612599565b61063957611f2a33612691565b8015611f45575b156105835761001693602435600435612b95565b5060046020611f5f6105c76000546001600160a01b031690565b60405192838092630536340960e21b82525afa90811561063457600091611f92575b506001600160a01b03163314611f31565b611faa915060203d811161062d5761061f8183612500565b38611f81565b3461053a57602036600319011261053a57611fcc61055b612599565b61063957611fd933612691565b8015611ff0575b1561058357610016600435602255565b506004602061200a6105c76000546001600160a01b031690565b60405192838092630536340960e21b82525afa9081156106345760009161203d575b506001600160a01b03163314611fe0565b612055915060203d811161062d5761061f8183612500565b3861202c565b3461053a576120693661116d565b9361207861055b949294612599565b6106395761208533612691565b801561209a575b156105835761001695612b2d565b50600460206120b46105c76000546001600160a01b031690565b60405192838092630536340960e21b82525afa908115610634576000916120e7575b506001600160a01b0316331461208c565b6120ff915060203d811161062d5761061f8183612500565b386120d6565b3461053a57602036600319011261053a5761212161055b612599565b6106395761212e33612691565b8015612145575b1561058357610016600435603255565b506004602061215f6105c76000546001600160a01b031690565b60405192838092630536340960e21b82525afa90811561063457600091612192575b506001600160a01b03163314612135565b6121aa915060203d811161062d5761061f8183612500565b38612181565b3461053a57604036600319011261053a576121cc61055b612599565b610639576121d933612691565b80156121f3575b1561058357610016602435600435612ceb565b506004602061220d6105c76000546001600160a01b031690565b60405192838092630536340960e21b82525afa90811561063457600091612240575b506001600160a01b031633146121e0565b612258915060203d811161062d5761061f8183612500565b3861222f565b3461053a57606036600319011261053a5761227a61055b612599565b6106395761228733612691565b80156122aa575b1561058357610016604435602435600435602855602755602955565b50600460206122c46105c76000546001600160a01b031690565b60405192838092630536340960e21b82525afa908115610634576000916122f7575b506001600160a01b0316331461228e565b61230f915060203d811161062d5761061f8183612500565b386122e6565b3461053a57602036600319011261053a57600460206001600160a01b0360005416604051928380926369e8d84b60e11b82525afa80156106345761236a610d69916104ce93600091610d795750610d36612e7c565b610d5f600435612a22565b3461053a57600036600319011261053a57602060ff601a54166040519015158152f35b3461053a57600036600319011261053a57600460206001600160a01b0360005416604051928380927f447aa3040000000000000000000000000000000000000000000000000000000082525afa908115610634576104ce91610d699160009161243b575b50604051612409816124c8565b600581527f61676528290000000000000000000000000000000000000000000000000000006020820152611a1e612571565b612453915060203d811161062d5761061f8183612500565b386123fc565b634e487b7160e01b600052604160045260246000fd5b6060810190811067ffffffffffffffff82111761248b57604052565b612459565b60a0810190811067ffffffffffffffff82111761248b57604052565b60e0810190811067ffffffffffffffff82111761248b57604052565b6040810190811067ffffffffffffffff82111761248b57604052565b6020810190811067ffffffffffffffff82111761248b57604052565b90601f8019910116810190811067ffffffffffffffff82111761248b57604052565b9081602091031261053a575161253781610ae9565b90565b6040513d6000823e3d90fd5b60405190612553826124ac565b565b67ffffffffffffffff811161248b57601f01601f191660200190565b6040519061257e826124e4565b60008252565b9081602091031261053a575161253781610d97565b6001600160a01b03600054166040518091634bf9c0ad60e11b825281600460209485935afa8015610634576126149160009161263b575b506040516125dd816124c8565b600881527f69735361666528290000000000000000000000000000000000000000000000008482015261260e612571565b916128fa565b9080612631575b15610bcc57816125379282518301019101612584565b508181511461261b565b6126529150833d851161062d5761061f8183612500565b386125d0565b60405190612665826124c8565b601582527f69735365637572654261736528616464726573732900000000000000000000006020830152565b6126a66105c76000546001600160a01b031690565b906040518092634bf9c0ad60e11b825281600460209586935afa80156106345761261492610b7c92600092612701575b506126f9906040519384918783019190916001600160a01b036020820193169052565b610b92612658565b6126f991925061271d90863d881161062d5761061f8183612500565b91906126d6565b60405190612731826124c8565b601182527f69735369676e65722861646472657373290000000000000000000000000000006020830152565b6040519061276a826124c8565b601882527f697364656c656761746f724e6f646528616464726573732900000000000000006020830152565b3d156127c1573d906127a782612555565b916127b56040519384612500565b82523d6000602084013e565b606090565b60006127dc6105c782546001600160a01b031690565b9060405180927f46f991ac00000000000000000000000000000000000000000000000000000000825281600460209586935afa801561063457828086819493829483916128dd575b505af161282f612796565b5015610bcc5760048261284c6105c784546001600160a01b031690565b604051928380927f5e09dbe70000000000000000000000000000000000000000000000000000000082525afa908115610634577fcdcc745fe377b103b45fa0cec23ae3ef93d6fc6a84a01f0d18c40b354dd1d5d8936001600160a01b0393926128c0575b50506040519384521691602090a2565b6128d69250803d1061062d5761061f8183612500565b38806128b0565b6128f49150883d8a1161062d5761061f8183612500565b38612824565b9190823b1561298f577fffffffff00000000000000000000000000000000000000000000000000000000815160208093012016916040519180830193845281519160005b83811061297b57505050918161296b60248260009795968897018783820152036004810184520182612500565b51915afa612977612796565b9091565b81810183015185820160240152820161293e565b5050506000906040516129a1816124e4565b6000815290565b92916129b6916000946128fa565b90806129d9575b6129c45750565b61253791925060208082518301019101612584565b5060208151146129bd565b92916129f2916000946128fa565b9080612a17575b612a005750565b90915060208180518101031261053a576020015190565b5060208151146129f9565b90670de0b6b3a764000091828102928184041490151715612a3f57565b634e487b7160e01b600052601160045260246000fd5b81810292918115918404141715612a3f57565b612a7190612a22565b602355565b929491949390936010841015612ae9576125539560405195612a9787612490565b8652602086015260408501526060840152608083015260005260056020526040600020906080600491805184556020810151600185015560408101516002850155606081015160038501550151910155565b606460405162461bcd60e51b815260206004820152600d60248201527f696e76616c6964206c6576656c000000000000000000000000000000000000006044820152fd5b92612553959294919460405195612b4387612490565b8652602086015260408501526060840152608083015260005260036020526040600020906080600491805184556020810151600185015560408101516002850155606081015160038501550151910155565b94919293906040519460c086019186831067ffffffffffffffff84111761248b576125539760a097612c3697612c0b956040528282528360208301521515938460408301521515958660608301521515968760808301521515988991015260175560185560ff8019601954169115151617601955565b6019805462ffff00191660089290921b61ff00169190911791151560101b62ff000016919091179055565b63ff00000060195491151560181b169063ff000000191617601955565b15612c5a57565b606460405162461bcd60e51b815260206004820152600c60248201527f696e76616c69642072616e6b00000000000000000000000000000000000000006044820152fd5b91600292939193612cb160088210612c53565b60405194612cbe8661246f565b85526020850191825260408501928352600052600460205260406000209351845551600184015551910155565b612cf760088210612c53565b6000526002602052604060002055565b60405160e0810181811067ffffffffffffffff82111761248b57889160c0916040528381528460208201528560408201528660608201528760808201528860a08201520152600655600755600855600955600a55600b55600c55565b604051906080820182811067ffffffffffffffff82111761248b5760405260006060838281528260208201528260408201520152565b600290856060612da7612d63565b858152866020820152876040820152015260018114612de2575b14612dcd575b50505050565b60115560125560135560145538808080612dc7565b82600d5583600e5584600f5585601055612dc1565b600290856060612e05612d63565b858152866020820152876040820152015260018114612e3f575b14612e2a5750505050565b602e55602f5560305560315538808080612dc7565b82602a5583602b5584602c5585602d55612e1f565b90604051612e618161246f565b60406002829480548452600181015460208501520154910152565b604051612e88816124e4565b60008152906000368137565b60405190612ea1826124c8565b601282527f6f7a6f6e655072696365496e55534454282900000000000000000000000000006020830152565b8115612ed7570490565b634e487b7160e01b600052601260045260246000fdfea26469706673582212208b0ce174c8172c1ea0524bc9e173e03206f242f5ab6fd78ca4297adacd5a43e964736f6c63430008140033","linkReferences":{}},"methodIdentifiers":{"rule741()":"0a5b38ab","transferRequest()":"3da8676f"},"id":69}