{"abi":[{"type":"constructor","inputs":[{"name":"_hex","type":"address","internalType":"address"},{"name":"_price","type":"address","internalType":"address"},{"name":"_old741","type":"address","internalType":"address"}],"stateMutability":"nonpayable"},{"type":"function","name":"dAOAssembly","inputs":[],"outputs":[{"name":"","type":"address","internalType":"address"}],"stateMutability":"view"},{"type":"function","name":"daocore","inputs":[],"outputs":[{"name":"","type":"address","internalType":"address"}],"stateMutability":"view"},{"type":"function","name":"nested741","inputs":[],"outputs":[{"name":"","type":"address","internalType":"address"}],"stateMutability":"view"},{"type":"function","name":"old741","inputs":[],"outputs":[{"name":"","type":"address","internalType":"address"}],"stateMutability":"view"},{"type":"function","name":"price","inputs":[],"outputs":[{"name":"","type":"address","internalType":"address"}],"stateMutability":"view"}],"bytecode":{"object":"0x6080346101b757601f61965b38819003918201601f19168301926001600160401b03929091838511838610176101a15781606092849260409788528339810103126101b75761004d816101bc565b6100648461005d602085016101bc565b93016101bc565b9160018060a01b03199273c0cee8b561cc4f60869776ca5b0b7a295e04f5af846001541617600155855161130a9586820196828810828911176101a15761032583396001600160a01b039485168088526000979092908190036020019088f080156101835785168660035416176003558751615f32808201908282108483111761018d576020918391613729833985815203019088f080156101835785168660025416176002558751916120fa808401928484109084111761016f5791839160209361162f8439815203019086f080156101655790838092168560045416176004551683600154161760015516908254161790555161015490816101d18239f35b86513d87823e3d90fd5b634e487b7160e01b89526041600452602489fd5b88513d89823e3d90fd5b634e487b7160e01b8a52604160045260248afd5b634e487b7160e01b600052604160045260246000fd5b600080fd5b51906001600160a01b03821682036101b75756fe608080604052600436101561001357600080fd5b600090813560e01c90816314837455146100f55750806314d8d024146100ce57806345cff900146100a75780635540c5ac146100805763a035b1fe1461005857600080fd5b3461007d578060031936011261007d576001600160a01b036020915416604051908152f35b80fd5b503461007d578060031936011261007d5760206001600160a01b0360015416604051908152f35b503461007d578060031936011261007d5760206001600160a01b0360025416604051908152f35b503461007d578060031936011261007d5760206001600160a01b0360045416604051908152f35b90503461011a578160031936011261011a576020906001600160a01b03600354168152f35b5080fdfea2646970667358221220bc5620e17ecb5f8dfdb6342fe7cc926eb66a4dd2142bd0f4616dd49bf7952f2d64736f6c634300081400336080346100ca57601f61130a38819003918201601f19168301916001600160401b038311848410176100cf578084926020946040528339810103126100ca57516001600160a01b038116908190036100ca5780156100855760018060a01b0319338160015416176001556000541617600055600060045560405161122490816100e68239f35b60405162461bcd60e51b815260206004820152601360248201527f6f776e2e696e76616c69642e68657862617365000000000000000000000000006044820152606490fd5b600080fd5b634e487b7160e01b600052604160045260246000fdfe60806040526004361015610018575b361561001657005b005b60003560e01c806312065fe0146101085780631f185d161461010357806325924f34146100fe5780633b9b7955146100f957806361b7fbd9146100f45780638da5cb5b146100ef578063a1f7f539146100ea578063af484526146100e5578063b90306ad146100e0578063c54e44b0146100db578063c89b84fd146100d6578063dbac26e9146100d1578063e01ad5fd146100cc578063e0a9bc2b146100c75763fdc10bc90361000e5761099a565b6108fb565b610861565b61081e565b610714565b610672565b610552565b610481565b6103c3565b61039c565b6102c5565b610294565b610263565b61013a565b3461012457600036600319011261012457602047604051908152f35b600080fd5b6001600160a01b0381160361012457565b34610124576020806003193601126101245760049081359061015b82610129565b8061017d6101716000546001600160a01b031690565b6001600160a01b031690565b60405194858092634bf9c0ad60e11b82525afa91821561025e576101d161020b936101ed9261021d9660009261022b575b506101df906040519384918783019190916001600160a01b036020820193169052565b03601f198101845283610a10565b6101e7610e81565b90611072565b919080610221575b6101fe90610eba565b8082518301019101610de8565b60405190151581529081906020820190565b0390f35b50815181146101f5565b6101df91925061025090863d8811610257575b6102488183610a10565b810190610a32565b91906101ae565b503d61023e565b610a4a565b3461012457602036600319011261012457602061028a60043561028581610129565b610b69565b6040519015158152f35b346101245760003660031901126101245760206001600160a01b0360005416604051908152f35b8015150361012457565b34610124576040366003190112610124576004356102e281610129565b6024356102ee816102bb565b6001600160a01b03600092600460208386541660405192838092630536340960e21b82525afa801561025e5761032f91869161037e575b5083163314610d03565b16825260036020526040822060ff1981541660ff8315151617905560001461036b5760045460001981146103665760010160045580f35b610d4e565b6004548015610366576000190160045580f35b610396915060203d8111610257576102488183610a10565b38610325565b346101245760003660031901126101245760206001600160a01b0360015416604051908152f35b3461012457600036600319011261012457600460206001600160a01b03600054166040519283809263d1f956b160e01b82525afa90811561025e5761021d9161045391600091610463575b5060405161041b816109d3565b601381527f67657464656c656761746f72436f756e74282900000000000000000000000000602082015261044d610a72565b916111b0565b6040519081529081906020820190565b61047b915060203d8111610257576102488183610a10565b3861040e565b3461012457602080600319360112610124576004908135906104a282610129565b806104b86101716000546001600160a01b031690565b60405194858092634bf9c0ad60e11b82525afa91821561025e576101d161020b936105149261021d9660009261052f575b5061050c906040519384918783019190916001600160a01b036020820193169052565b6101e7610dfd565b919080610525575b6101fe90610e36565b508151811461051c565b61050c91925061054b90863d8811610257576102488183610a10565b91906104e9565b3461012457602080600319360112610124576004356001600160a01b0391600092808454169060405191630536340960e21b83528383600481845afa92831561025e5760049385936105ae928992610653575b50163314610d03565b604051928380927f46f991ac0000000000000000000000000000000000000000000000000000000082525afa91821561025e5784808561060595829583958492610636575b50505af16105ff610ff7565b50611027565b60405190815233907fcdcc745fe377b103b45fa0cec23ae3ef93d6fc6a84a01f0d18c40b354dd1d5d890602090a280f35b61064c9250803d10610257576102488183610a10565b38806105f3565b61066b919250853d8711610257576102488183610a10565b90386105a5565b346101245760203660031901126101245760043561068f81610129565b803b600061069c82610a56565b926106aa6040519485610a10565b82845260208401903c602d8151106106d057602a015160405160609190911c8152602090f35b606460405162461bcd60e51b815260206004820152601360248201527f4e6f742061206d696e696d616c2070726f7879000000000000000000000000006044820152fd5b346101245760008060031936011261081b5761073a61017182546001600160a01b031690565b906040519163cfbffe5360e01b835260208084600481855afa801561025e57610779829160049686916107fe575b50610771610a85565b61044d610a72565b926040519586809263ab6e844f60e01b82525afa90811561025e5761021d9461045394926107db575b506107cd906101d16107b2610f05565b94604051958693840160209093929193604081019481520152565b6107d5610cca565b906111b0565b8192506107f7906107cd923d8511610257576102488183610a10565b91906107a2565b6108159150833d8511610257576102488183610a10565b38610768565b80fd5b34610124576020366003190112610124576001600160a01b0360043561084381610129565b166000526003602052602060ff604060002054166040519015158152f35b3461012457602080600319360112610124576004803561088081610129565b6001600160a01b03928084600054166040519485809263d1f956b160e01b82525afa90811561025e5761021d9461020b946000936108dc575b5060405193168184015282526108ce826109d3565b6108d6610fbe565b90611174565b6108f4919350823d8411610257576102488183610a10565b91386108b9565b34610124576000366003190112610124576001600160a01b03600054166040518091634bf9c0ad60e11b825281600460209384935afa90811561025e5761096261020b9261021d9460009161097d575b50610954610d64565b61095c610a72565b91611072565b919080610973575b6101fe90610d9d565b508151811461096a565b6109949150833d8511610257576102488183610a10565b3861094b565b346101245760003660031901126101245760206109b5610f05565b604051908152f35b634e487b7160e01b600052604160045260246000fd5b6040810190811067ffffffffffffffff8211176109ef57604052565b6109bd565b6020810190811067ffffffffffffffff8211176109ef57604052565b90601f8019910116810190811067ffffffffffffffff8211176109ef57604052565b908160209103126101245751610a4781610129565b90565b6040513d6000823e3d90fd5b67ffffffffffffffff81116109ef57601f01601f191660200190565b60405190610a7f826109f4565b60008252565b60405190610a92826109d3565b600c82527f72616e6b666f7244414f282900000000000000000000000000000000000000006020830152565b60405190610acb826109d3565b601682527f67657455736572546f53746f72286164647265737329000000000000000000006020830152565b60405190610b04826109d3565b600682527f72616e6b282900000000000000000000000000000000000000000000000000006020830152565b60405190610b3d826109d3565b600882527f69734c6f636b28290000000000000000000000000000000000000000000000006020830152565b610b7e6101716000546001600160a01b031690565b9060405163cfbffe5360e01b81526020908181600481875afa801561025e57610bb583916004936000916107fe5750610771610a85565b946040519283809263ab6e844f60e01b82525afa801561025e57610c0e928492600092610ca7575b506040516001600160a01b03909316908301908152610c009083906020016101d1565b610c08610abe565b90611123565b916001600160a01b03831615610c9f57610c52610c3b610c2c610af7565b610c34610a72565b90866111b0565b93610c44610b30565b610c4c610a72565b91611174565b9210159182610c96575b5081610c66575090565b610a479150610c8b610c92916001600160a01b03166000526003602052604060002090565b5460ff1690565b1590565b15915038610c5c565b505050600090565b819250610cc390610c00923d8511610257576102488183610a10565b9190610bdd565b60405190610cd7826109d3565b601d82527f67657472616e6b636f756e742875696e743235362c75696e74323536290000006020830152565b15610d0a57565b606460405162461bcd60e51b815260206004820152600f60248201527f6f776e2e6e6f6e617574682e44414f00000000000000000000000000000000006044820152fd5b634e487b7160e01b600052601160045260246000fd5b60405190610d71826109d3565b600882527f69735361666528290000000000000000000000000000000000000000000000006020830152565b15610da457565b606460405162461bcd60e51b815260206004820152601960248201527f6f776e2e7361666567756172642e63616c6c2e6661696c6564000000000000006044820152fd5b908160209103126101245751610a47816102bb565b60405190610e0a826109d3565b601582527f69735365637572654261736528616464726573732900000000000000000000006020830152565b15610e3d57565b606460405162461bcd60e51b815260206004820152601a60248201527f6f776e2e736563757265626173652e63616c6c2e6661696c65640000000000006044820152fd5b60405190610e8e826109d3565b601182527f69735369676e65722861646472657373290000000000000000000000000000006020830152565b15610ec157565b606460405162461bcd60e51b815260206004820152601660248201527f6f776e2e7369676e65722e63616c6c2e6661696c6564000000000000000000006044820152fd5b600460206001600160a01b0360005416604051928380927f447aa3040000000000000000000000000000000000000000000000000000000082525afa801561025e57610a4791600091610fa0575b50604051610f60816109d3565b600581527f6167652829000000000000000000000000000000000000000000000000000000602082015260405191610f97836109f4565b600083526111b0565b610fb8915060203d8111610257576102488183610a10565b38610f53565b60405190610fcb826109d3565b601882527f697364656c656761746f724e6f646528616464726573732900000000000000006020830152565b3d15611022573d9061100882610a56565b916110166040519384610a10565b82523d6000602084013e565b606090565b1561102e57565b606460405162461bcd60e51b815260206004820152600f60248201527f6f776e2e6275726e2e6661696c656400000000000000000000000000000000006044820152fd5b9190823b1561110a577fffffffff00000000000000000000000000000000000000000000000000000000815160208093012016916040519180830193845281519160005b8381106110f65750505091816110e360248260009795968897018783820152036004810184520182610a10565b5191620dbba0fa6110f2610ff7565b9091565b8181018301518582016024015282016110b6565b50505060009060405161111c816109f4565b6000815290565b929161113191600094611072565b9080611169575b61113f5750565b9091506020818051810103126101245760206001600160a01b0391015161116581610129565b1690565b506020815114611138565b929161118291600094611072565b90806111a5575b6111905750565b610a4791925060208082518301019101610de8565b506020815114611189565b92916111be91600094611072565b90806111e3575b6111cc5750565b909150602081805181010312610124576020015190565b5060208151146111c556fea2646970667358221220eaef448ad9487daeb65d893b870f1c83da5b3723d4eaf4bb5197f2218f82def664736f6c634300081400336080346100cf57601f6120fa38819003918201601f19168301916001600160401b038311848410176100d4578084926020946040528339810103126100cf57516001600160a01b038116908190036100cf57801561008a5760018060a01b03193381600154161760015560005416176000556033600355600360045560405161200f90816100eb8239f35b60405162461bcd60e51b815260206004820152601360248201527f6f776e2e696e76616c69642e68657862617365000000000000000000000000006044820152606490fd5b600080fd5b634e487b7160e01b600052604160045260246000fdfe60806040526004361015610018575b361561001657005b005b60003560e01c8063013cf08b1461018857806312065fe0146101835780631f185d161461017e5780633b9b7955146101795780634072265b14610174578063438596321461016f5780635c622a0e1461016a57806365153c4b14610165578063709df8d9146101605780638da5cb5b1461015b57806398e527d314610156578063995e433914610151578063a1f7f5391461014c578063af48452614610147578063b90306ad14610142578063c54e44b01461013d578063c7f758a814610138578063c9d27afe14610133578063d153356b1461012e578063e01ad5fd14610129578063e0a9bc2b14610124578063fdc10bc91461011f5763ffa734f00361000e57610f41565b610ef8565b610edd565b610eb6565b610dfb565b610c6d565b610bed565b610b05565b610a30565b61090b565b6108e8565b610864565b610846565b61081f565b6107e0565b610667565b610611565b6105ac565b61056f565b610548565b610517565b6104ea565b610425565b6005548110156101c857600c906005600052027f036b6384b5eca791c62761152d0c79bb0604c104a5fb6f4eb0703f3154bb3db00190600090565b634e487b7160e01b600052603260045260246000fd5b90600182811c9216801561020e575b60208310146101f857565b634e487b7160e01b600052602260045260246000fd5b91607f16916101ed565b9060009291805491610229836101de565b91828252600193848116908160001461028b575060011461024b575b50505050565b90919394506000526020928360002092846000945b838610610277575050505001019038808080610245565b805485870183015294019385908201610260565b9294505050602093945060ff191683830152151560051b01019038808080610245565b634e487b7160e01b600052604160045260246000fd5b6020810190811067ffffffffffffffff8211176102e057604052565b6102ae565b6040810190811067ffffffffffffffff8211176102e057604052565b90601f8019910116810190811067ffffffffffffffff8211176102e057604052565b9061033e6103379260405193848092610218565b0383610301565b565b60005b8381106103535750506000910152565b8181015183820152602001610343565b9060209161037c81518092818552858086019101610340565b601f01601f1916010190565b9b9997959392909e9d9c9a9896949e8c6101c08091528d016103a991610363565b916001600160a01b031660208d015260408c01528a810360608c01526103ce91610363565b9b60808a015260a089015260c088015260e087015261010086015261012085016103f89115159052565b15156101408401526001600160a01b031661016083015215156101808201526101a00161033e9115159052565b346104e55760203660031901126104e5576004356005548110156104e55761044c9061018d565b506040519061045f826103378184610218565b6104e161047660018301546001600160a01b031690565b60028301549061048860038501610323565b946004850154946005810154966006820154916007810154600a6008830154920154936040519a8b9a8b9560ff8860b81c169a60ff8960b01c169a6001600160a01b038a60101c169a60ff808c60081c169b1699610388565b0390f35b600080fd5b346104e55760003660031901126104e557602047604051908152f35b6001600160a01b038116036104e557565b346104e55760203660031901126104e557602061053e60043561053981610506565b6119c2565b6040519015158152f35b346104e55760003660031901126104e55760206001600160a01b0360005416604051908152f35b346104e55760203660031901126104e55760043560001981019081116105a757600561059c60209261018d565b500154604051908152f35b61130e565b346104e55760403660031901126104e5576004356024356105cc81610506565b60001982019182116105a75761060560ff9160096105eb60209561018d565b5001906001600160a01b0316600052602052604060002090565b54166040519015158152f35b346104e55760203660031901126104e55760043560001981019081116105a757600a61063e60409261018d565b50015460ff825191818160b01c161515835260b81c1615156020820152f35b801515036104e557565b346104e55760403660031901126104e5576004356024356106878161065d565b610690336119c2565b1561079c5760056106a86106a38461139d565b61018d565b5061076c61075f600b83016106e96106e46106e06106d93385906001600160a01b0316600052602052604060002090565b5460ff1690565b1590565b611523565b610747600a85015461070160ff8260b81c1615611442565b61071060ff8260081c166113ac565b61071c60ff821661156e565b610733610727611a6c565b600788015411156115b9565b60101c6001600160a01b03163314156114d8565b336001600160a01b0316600052602052604060002090565b805460ff19166001179055565b016107778154611604565b809155600454148015610794575b61078b57005b610016916116d6565b508015610785565b606460405162461bcd60e51b815260206004820152601260248201527f6f776e2e696e76616c69642e7369676e657200000000000000000000000000006044820152fd5b346104e55760403660031901126104e55760043560243561080081610506565b60001982019182116105a75761060560ff91600b6105eb60209561018d565b346104e55760003660031901126104e55760206001600160a01b0360015416604051908152f35b346104e55760003660031901126104e5576020600554604051908152f35b346104e55760203660031901126104e55760043560001981019081116105a75761088d9061018d565b506004810154600682015460078301546008840154600a9094015460408051948552602085019390935291830152606082019290925260ff60b083901c81161515608083015260b89290921c909116151560a082015260c090f35b346104e55760003660031901126104e5576020610903611c06565b604051908152f35b346104e5576020806003193601126104e55760049081359061092c82610506565b8061094e6109426000546001600160a01b031690565b6001600160a01b031690565b60405194858092634bf9c0ad60e11b82525afa918215610a2b576109a26109dc936109be926104e1966000926109f8575b506109b0906040519384918783019190916001600160a01b036020820193169052565b03601f198101845283610301565b6109b86118ba565b90611dc1565b9190806109ee575b6109cf906118f3565b80825183010191016117e5565b60405190151581529081906020820190565b50815181146109c6565b6109b0919250610a1d90863d8811610a24575b610a158183610301565b81019061175a565b919061097f565b503d610a0b565b611772565b346104e55760203660031901126104e55760046001600160a01b0360208160005416604051938480927f14d8d0240000000000000000000000000000000000000000000000000000000082525afa918215610a2b57600092610ae5575b5033911603610aa157610016600435611ccd565b606460405162461bcd60e51b815260206004820152600f60248201527f6f776e2e6e6f6e617574682e44414f00000000000000000000000000000000006044820152fd5b610afe91925060203d8111610a2457610a158183610301565b9038610a8d565b346104e55760203660031901126104e557600435610b2281610506565b803b6000610b2f8261177e565b92610b3d6040519485610301565b82845260208401903c602d815110610b6357602a015160405160609190911c8152602090f35b606460405162461bcd60e51b815260206004820152601360248201527f4e6f742061206d696e696d616c2070726f7879000000000000000000000000006044820152fd5b94919093610bc360a0959897949860c0885260c0880190610363565b976001600160a01b0380931660208801526040870152166060850152151560808401521515910152565b346104e55760203660031901126104e55760043560001981019081116105a757610c169061018d565b506001600160a01b036104e18160018401541691600284015493610c48610c4f600a8301549260405192838092610218565b0382610301565b60405195869560ff84169460ff8560081c169460101c169287610ba7565b346104e55760403660031901126104e557600435602435610c8d8161065d565b610c96336119c2565b8015610dd8575b610ca690611352565b610cb26106a38361139d565b50600a8101906008825493610ccb60ff86841c166113ac565b610ce26007840154610cdb611a6c565b11156113f7565b610cf260ff8660b81c1615611442565b610d256009840195610733610d206106e06106d9338b906001600160a01b0316600052602052604060002090565b61148d565b60008115610dd257506001905b610d4460ff6004860193168354611345565b8255600090610dc55750610d8461075f6001965b610d6a60ff6006880199168954611345565b8855336001600160a01b0316600052602052604060002090565b5491015480911092831593610db9575b505081610dac575b50610da357005b61001690611613565b5460ff1615905038610d9c565b54101591503880610d94565b61075f610d849196610d58565b90610d32565b50610de16117fa565b8015610c9d5750610ca6610df433611b25565b9050610c9d565b346104e55760403660031901126104e557610e146117fa565b15610e7257333003610e2e57600480356003556024359055005b606460405162461bcd60e51b815260206004820152600d60248201527f64616f2e66616b652e636f7265000000000000000000000000000000000000006044820152fd5b606460405162461bcd60e51b815260206004820152601260248201527f6f776e2e696e76616c69642e69735361666500000000000000000000000000006044820152fd5b346104e55760203660031901126104e557602061053e600435610ed881610506565b611b25565b346104e55760003660031901126104e557602061053e6117fa565b346104e55760003660031901126104e5576020610903611a6c565b9181601f840112156104e55782359167ffffffffffffffff83116104e557602083818601950101116104e557565b346104e55760c03660031901126104e55767ffffffffffffffff6004358181116104e557610f73903690600401610f13565b9091602435610f8181610506565b6064358281116104e557610f99903690600401610f13565b9160a43594610fa78661065d565b6001600160a01b038216156111ae5760055490680100000000000000008210156102e057610fdc60019283810160055561018d565b509581116102e057610ff881610ff288546101de565b886111f2565b6000601f8211600114611134579261107b94928261106a93600a99989661111b9c600092611129575b5050600019600383901b1c191690821b1787555b8601906001600160a01b03167fffffffffffffffffffffffff0000000000000000000000000000000000000000825416179055565b604435600285015560038401611246565b6110a161109a61109561108c611c06565b60035490611324565b611337565b6064900490565b60088201556110b96084356110b4611a6c565b611345565b60078201550180543360101b75ffffffffffffffffffffffffffffffffffffffff0000167fffffffffffffffffffff000000000000000000000000000000000000000000ff909116176101001760ff191660ff92151592909216919091179055565b600554604051908152602090f35b013590503880611021565b601f1982169061114988600052602060002090565b91815b81811061119857509383600a9998969361111b9c839461106a9761107b9b991061117e575b505050811b018755611035565b0135600019600384901b60f8161c19169055388080611171565b8b8301358455928501926020928301920161114c565b606460405162461bcd60e51b815260206004820152601260248201527f6f776e2e64656661756c742e73656e64657200000000000000000000000000006044820152fd5b90601f811161120057505050565b600091825260208220906020601f850160051c8301941061123c575b601f0160051c01915b82811061123157505050565b818155600101611225565b909250829061121c565b90929167ffffffffffffffff81116102e05761126c8161126684546101de565b846111f2565b6000601f82116001146112a6578192939460009261129b575b50508160011b916000199060031b1c1916179055565b013590503880611285565b601f198216946112bb84600052602060002090565b91805b8781106112f65750836001959697106112dc575b505050811b019055565b0135600019600384901b60f8161c191690553880806112d2565b909260206001819286860135815501940191016112be565b634e487b7160e01b600052601160045260246000fd5b818102929181159184041417156105a757565b90606382018092116105a757565b919082018092116105a757565b1561135957565b606460405162461bcd60e51b815260206004820152601660248201527f64616f2e6e6f6e617574682e64656c656761746f7273000000000000000000006044820152fd5b6000198101919082116105a757565b156113b357565b606460405162461bcd60e51b815260206004820152601160248201527f64616f2e70726f702e6e6f7465786973740000000000000000000000000000006044820152fd5b156113fe57565b606460405162461bcd60e51b815260206004820152601060248201527f64616f2e766f74696e672e656e646564000000000000000000000000000000006044820152fd5b1561144957565b606460405162461bcd60e51b815260206004820152601560248201527f64616f2e616c72656164792e636f6d706c6574656400000000000000000000006044820152fd5b1561149457565b606460405162461bcd60e51b815260206004820152601160248201527f64616f2e616c72656164792e766f7465640000000000000000000000000000006044820152fd5b156114df57565b606460405162461bcd60e51b815260206004820152601260248201527f64616f2e766f7465722e726573747269637400000000000000000000000000006044820152fd5b1561152a57565b606460405162461bcd60e51b815260206004820152601260248201527f64616f2e616c72656164792e7369676e656400000000000000000000000000006044820152fd5b1561157557565b606460405162461bcd60e51b815260206004820152601360248201527f64616f2e70726f702e6d7573747369676e6564000000000000000000000000006044820152fd5b156115c057565b606460405162461bcd60e51b815260206004820152601360248201527f64616f2e6265666f72652e646561646c696e65000000000000000000000000006044820152fd5b60001981146105a75760010190565b6106a361161f9161139d565b5060ff600a820161163d81600160b81b60ff60b81b19825416179055565b61166f6004840154600885015481101590816116c8575b50825460ff60b01b191690151560b01b60ff60b01b16178255565b5460b01c16806116b3575b6116815750565b8061169960016116b09301546001600160a01b031690565b6116aa600360028401549301610323565b90611edf565b50565b506116c160038201546101de565b151561167a565b905060068501541038611654565b6116e56106a361172b9261139d565b50600a8101805460ff60b81b1916600160b81b178155909280611748575b80611737575b815460ff60b01b191690151560b01b60ff60b01b161781555460b01c60ff1690565b806116b3576116815750565b506004830154600684015410611709565b50600483015460088401541115611703565b908160209103126104e5575161176f81610506565b90565b6040513d6000823e3d90fd5b67ffffffffffffffff81116102e057601f01601f191660200190565b156117a157565b606460405162461bcd60e51b815260206004820152601960248201527f6f776e2e7361666567756172642e63616c6c2e6661696c6564000000000000006044820152fd5b908160209103126104e5575161176f8161065d565b6001600160a01b03600054166040518091634bf9c0ad60e11b825281600460209384935afa918215610a2b5761176f926118829160009161189d575b50604051611843816102e5565b600881527f69735361666528290000000000000000000000000000000000000000000000008482015260405191611879836102c4565b60008352611dc1565b919080611893575b6109cf9061179a565b508151811461188a565b6118b49150833d8511610a2457610a158183610301565b38611836565b604051906118c7826102e5565b601582527f69735365637572654261736528616464726573732900000000000000000000006020830152565b156118fa57565b606460405162461bcd60e51b815260206004820152601a60248201527f6f776e2e736563757265626173652e63616c6c2e6661696c65640000000000006044820152fd5b6040519061194b826102e5565b601182527f69735369676e65722861646472657373290000000000000000000000000000006020830152565b1561197e57565b606460405162461bcd60e51b815260206004820152601660248201527f6f776e2e7369676e65722e63616c6c2e6661696c6564000000000000000000006044820152fd5b6000546001600160a01b0316604051918291634bf9c0ad60e11b835282600460209485935afa928315610a2b5761176f93611a2e926109a292600092611a49575b50611a26906040519384918783019190916001600160a01b036020820193169052565b6109b861193e565b919080611a3f575b6109cf90611977565b5081518114611a36565b611a26919250611a6590863d8811610a2457610a158183610301565b9190611a03565b600460206001600160a01b0360005416604051928380927f447aa3040000000000000000000000000000000000000000000000000000000082525afa8015610a2b5761176f91600091611b07575b50604051611ac7816102e5565b600581527f6167652829000000000000000000000000000000000000000000000000000000602082015260405191611afe836102c4565b60008352611e57565b611b1f915060203d8111610a2457610a158183610301565b38611aba565b6001600160a01b039081600054169060405192839263d1f956b160e01b845283600460209586935afa938415610a2b57600094611be1575b50604051911682820152818152611bb490611b77816102e5565b604051611b83816102e5565b601881527f697364656c656761746f724e6f6465286164647265737329000000000000000084820152600094611dc1565b919080611bd7575b611bc557505090565b61176f925080825183010191016117e5565b5080825114611bbc565b611bb492919450611bfe90843d8611610a2457610a158183610301565b939091611b5d565b600460206001600160a01b03600054166040519283809263d1f956b160e01b82525afa8015610a2b5761176f91600091611c7f575b50604051611c48816102e5565b601381527f67657464656c656761746f72436f756e74282900000000000000000000000000602082015260405191611afe836102c4565b611c97915060203d8111610a2457610a158183610301565b38611c3b565b3d15611cc8573d90611cae8261177e565b91611cbc6040519384610301565b82523d6000602084013e565b606090565b6000600460206001600160a01b03835416604051928380927f46f991ac0000000000000000000000000000000000000000000000000000000082525afa908115610a2b578284819382938391611da3575b505af1611d29611c9d565b5015611d5f5760405190815233907fcdcc745fe377b103b45fa0cec23ae3ef93d6fc6a84a01f0d18c40b354dd1d5d890602090a2565b606460405162461bcd60e51b815260206004820152600f60248201527f6f776e2e6275726e2e6661696c656400000000000000000000000000000000006044820152fd5b611dbb915060203d8111610a2457610a158183610301565b38611d1e565b803b15611e3e576000927fffffffff000000000000000000000000000000000000000000000000000000008360208695519101201690611e2b6024604051809360208201958652611e1b8151809260208686019101610340565b8101036004810184520182610301565b5191620dbba0fa611e3a611c9d565b9091565b505050600090604051611e50816102c4565b6000815290565b9291611e6591600094611dc1565b9080611e8a575b611e735750565b9091506020818051810103126104e5576020015190565b506020815114611e6c565b90602082519201517fffffffff00000000000000000000000000000000000000000000000000000000908181169360048110611ed057505050565b60040360031b82901b16169150565b9190916001600160a01b03811615611f9557600091829184519160208601915af190611f09611c9d565b9115611f13575090565b805160009190600411611f8f57611f2a9150611e95565b815115611f3a5750805190602001fd5b6040517f21c09d340000000000000000000000000000000000000000000000000000000081527fffffffff00000000000000000000000000000000000000000000000000000000919091166004820152602490fd5b50611f2a565b606460405162461bcd60e51b815260206004820152601260248201527f6f776e2e696e76616c69642e74617267657400000000000000000000000000006044820152fdfea264697066735822122077207168870ce1ca9d617f99b8a709d017e2d3446c12fecb53fbcd48abecaff464736f6c63430008140033608034620000d157601f62005f3238819003918201601f19168301916001600160401b03831184841017620000d657808492602094604052833981010312620000d157516001600160a01b03811690819003620000d15780156200008c5760018060a01b03193381600154161760015560005416176000556001600355604051615e459081620000ed8239f35b60405162461bcd60e51b815260206004820152601360248201527f6f776e2e696e76616c69642e68657862617365000000000000000000000000006044820152606490fd5b600080fd5b634e487b7160e01b600052604160045260246000fdfe60806040526004361015610018575b361561001657005b005b60003560e01c80629db65514610357578063033eeffb146103525780630e5fd00b1461034d57806312065fe0146103485780631bb49f02146103435780631c53c2801461033e5780631f185d16146103395780632a687c87146103345780632fefc0bf1461032f578063307673e81461032a57806332ff4eab1461032557806333b59a5b146103205780633a7b55b81461031b5780633b9b7955146103165780633baee0ea14610311578063419cb27b1461030c57806342cc9d571461030757806344585097146103025780634f0f4aa9146102fd578063509222cd146102f857806350db85d1146102f357806361ea7208146102ee578063629d671e146102e957806365d2fbd3146102e45780636a811244146102df5780636fb412ab146102da57806376fe6c45146102d55780637bb98498146102d057806380f85e33146102cb578063849c22ad146102c6578063896c354a146102c15780638da5cb5b146102bc57806395f72f49146102b757806398b3f215146102b2578063a1f7f539146102ad578063a89d693b146102a8578063af484526146102a3578063b1c490791461029e578063b366335e14610299578063b90306ad14610294578063c43792e31461028f578063c54e44b01461028a578063c871372b14610285578063d1e0bbc614610280578063dcb3fc4a1461027b578063e01ad5fd14610276578063e0a9bc2b14610271578063eb95c6621461026c578063eb9e9e2c14610267578063f3ca712414610262578063fd38093b1461025d5763fdc10bc90361000e57612ffe565b612f8e565b612f62565b612d2b565b612cff565b612ce4565b612c4a565b612a4b565b612a11565b612993565b6128f1565b6128c5565b612809565b612759565b6125dd565b6125b6565b612497565b6123aa565b61237e565b6122d8565b6122b1565b612271565b612242565b612208565b612162565b612112565b611f6e565b6118eb565b6114cc565b61148e565b611470565b6113b0565b61135c565b6112c2565b61128a565b61125b565b611221565b610b4d565b610afe565b610992565b6108be565b610818565b610747565b61070f565b610669565b610559565b610524565b6104bf565b6104a3565b610453565b610416565b34610411576020366003190112610411576103786103736156d7565b61337f565b6103813361581b565b8015610399575b610391906133eb565b6100166150ce565b5060046001600160a01b036020816000541660405193848092630536340960e21b82525afa90811561040c57610391926000926103dc575b501633149050610388565b6103fe91925060203d8111610405575b6103f681836130ac565b8101906133ca565b90386103d1565b503d6103ec565b6133df565b600080fd5b3461041157602036600319011261041157600435600052600b6020526020604060002054604051908152f35b6001600160a01b0381160361041157565b3461041157602036600319011261041157602060043561047281610442565b6001600160a01b03809116600052600482526040600020546000526007825260046040600020015416604051908152f35b3461041157600036600319011261041157602047604051908152f35b34610411576020366003190112610411576004356104dc81610442565b6001600160a01b0390811660009081526004602090815260408083205483526007825280832060020154808452600583529281902054815193845290931690820152f35b0390f35b3461041157602036600319011261041157600435600052600560205260206001600160a01b0360406000205416604051908152f35b34610411576020806003193601126104115760049081359061057a82610442565b8061059c6105906000546001600160a01b031690565b6001600160a01b031690565b60405194858092634bf9c0ad60e11b82525afa91821561040c576105f061062a9361060c9261052096600092610646575b506105fe906040519384918783019190916001600160a01b036020820193169052565b03601f1981018452836130ac565b6106066158c5565b90615b71565b91908061063c575b61061d906158fe565b80825183010191016156c3565b60405190151581529081906020820190565b5081518114610614565b6105fe91925061066290863d8811610405576103f681836130ac565b91906105cd565b34610411576040366003190112610411576106856103736156d7565b61068e3361581b565b80156106ac575b61069e906133eb565b610016602435600435615459565b5060046001600160a01b036020816000541660405193848092630536340960e21b82525afa90811561040c5761069e926000926106ef575b501633149050610695565b61070891925060203d8111610405576103f681836130ac565b90386106e4565b3461041157602036600319011261041157600435600052600760205260206001600160a01b0360056040600020015416604051908152f35b3461041157602036600319011261041157600435600090338252600460205261078d6107886040842054600052600760205260ff6001604060002001541690565b61407b565b808252601060205260ff600260408420015460081c16156107d4576107bf6107d1916000526010602052604060002090565b60026000918281558260018201550155565b80f35b606460405162461bcd60e51b815260206004820152601360248201527f6e65737465642e7265712e6e6f746578697374000000000000000000000000006044820152fd5b34610411576040366003190112610411576108346103736156d7565b61083d3361581b565b801561085b575b61084d906133eb565b6100166024356004356154ad565b5060046001600160a01b036020816000541660405193848092630536340960e21b82525afa90811561040c5761084d9260009261089e575b501633149050610844565b6108b791925060203d8111610405576103f681836130ac565b9038610893565b34610411576040366003190112610411576108da6103736156d7565b6108e33361581b565b8015610901575b6108f3906133eb565b610016602435600435615549565b5060046001600160a01b036020816000541660405193848092630536340960e21b82525afa90811561040c576108f392600092610944575b5016331490506108ea565b61095d91925060203d8111610405576103f681836130ac565b9038610939565b60e0810192916000915b6007831061097b57505050565b60019082518152602080910192019201919061096e565b3461041157602036600319011261041157610520600435610aec610adc604051926109bc84613058565b60e03685376109e86109d8826000526009602052604060002090565b6001600052602052604060002090565b548452610a12610a02826000526009602052604060002090565b6002600052602052604060002090565b546020850152610a3f610a2f826000526009602052604060002090565b6003600052602052604060002090565b546040850152610a6c610a5c826000526009602052604060002090565b6004600052602052604060002090565b546060850152610a99610a89826000526009602052604060002090565b6005600052602052604060002090565b546080850152610ac6610ab6826000526009602052604060002090565b6006600052602052604060002090565b5460a08501526000526009602052604060002090565b6007600052602052604060002090565b5460c082015260405191829182610964565b346104115760003660031901126104115760206001600160a01b0360005416604051908152f35b604090600319011261041157600435610b3d81610442565b90602435610b4a81610442565b90565b3461041157610bab610b5e36610b25565b90610b67613344565b610b80610b726130fd565b610b7a613115565b33615c07565b91610b94610b8c6130fd565b610b7a61314e565b6001600160a01b0382811695909485168614613187565b610bd060009185610bc8610590828654166001600160a01b031690565b9116146131d2565b610bdb851515613f61565b610bf8826001600160a01b03166000526004602052604060002090565b54158015611216575b610c0a90613fac565b610c32610c2a846001600160a01b03166000526004602052604060002090565b541515613ff7565b610c766005610c68610c57866001600160a01b03166000526004602052604060002090565b546000526007602052604060002090565b01546001600160a01b031690565b9360409182516020977f880cdc310000000000000000000000000000000000000000000000000000000089830152610ce060249280610cc7898683019190916001600160a01b036020820193169052565b0399610cdb601f199b8c81018452836130ac565b615d1a565b50600493610d0b61059086610c68610c578c6001600160a01b03166000526004602052604060002090565b156110bf57610d7e610d3786610c68610c578c6001600160a01b03166000526004602052604060002090565b87517f0399c93c000000000000000000000000000000000000000000000000000000008d82015233868201908152909190610cdb9083906020015b038d81018452836130ac565b505b610d9d886001600160a01b03166000526004602052604060002090565b54610dbb886001600160a01b03166000526004602052604060002090565b55610e1987610df1610de08b6001600160a01b03166000526004602052604060002090565b546000526005602052604060002090565b906001600160a01b031673ffffffffffffffffffffffffffffffffffffffff19825416179055565b610e673386610e3e610c578b6001600160a01b03166000526004602052604060002090565b01906001600160a01b031673ffffffffffffffffffffffffffffffffffffffff19825416179055565b87161415948561109b575b610e8f816001600160a01b03166000526004602052604060002090565b5497610eaa6005610c688b6000526007602052604060002090565b99610ee6610ed96002610ec78d6000526007602052604060002090565b01546000526005602052604060002090565b546001600160a01b031690565b9715610fe55780610f0161059087546001600160a01b031690565b8851978880926314ac1b5960e21b82525afa92831561040c5761052099610f8a977fe3d1d5bf000000000000000000000000000000000000000000000000000000009795610fbc575b5090610f7e91610cdb95968a5198899586015284019060209093929360408301946001600160a01b03809216845216910152565b039081018452836130ac565b505b610f966001600355565b519283526001600160a01b03938416602084015290921660408201529081906060820190565b610cdb955090610fdc610f7e9392853d8711610405576103f681836130ac565b95509091610f4a565b809250610ffc61059086546001600160a01b031690565b8751968780926314ac1b5960e21b82525afa91821561040c576105209861106e967f9498d88b000000000000000000000000000000000000000000000000000000009694611074575b50610f7e90610cdb9495895197889485015283019190916001600160a01b036020820193169052565b50610f8c565b610cdb945090611093610f7e92843d8611610405576103f681836130ac565b945090611045565b826110b9886001600160a01b03166000526004602052604060002090565b55610e72565b848a6110d561059087546001600160a01b031690565b88519283809263111ea8c160e21b82525afa90811561040c5761112b918a9187916111f9575b5088516001600160a01b03909216828e0190815261111d908390602001610d72565b611125614042565b90615c07565b8181161515806111ef575b611141575b50610d80565b86517f4fb2e45d00000000000000000000000000000000000000000000000000000000818d0152338582019081526111e892916111959161118f908e908390602001039081018352826130ac565b82615d1a565b508751907fa3e884b0000000000000000000000000000000000000000000000000000000008d830152610cdb82610d72888201906007606060808401936000815260006020820152600060408201520152565b503861113b565b5080311515611136565b61121091508d803d10610405576103f681836130ac565b386110fb565b508284168514610c01565b34610411576020366003190112610411576020611251600435600052600760205260ff6001604060002001541690565b6040519015158152f35b346104115760203660031901126104115760043560005260076020526020600360406000200154604051908152f35b3461041157602036600319011261041157600435600052600760205260206001600160a01b0360046040600020015416604051908152f35b346104115760203660031901126104115760c060043580600052600760205260406000208054916002820154916001600160a01b036005816004840154169201541690600361133660ff6001611322876000526007602052604060002090565b015416946000526007602052604060002090565b0154936040519586526020860152604085015260608401521515608083015260a0820152f35b34610411576020366003190112610411576001600160a01b0360043561138181610442565b1660005260046020526040600020546000526007602052602060ff600160406000200154166040519015158152f35b34610411576113be36610b25565b6113c96103736156d7565b6113d23361581b565b8015611406575b916113e66113eb936133eb565b613436565b604080519283526001600160a01b0391909116602083015290f35b506001600160a01b039160046020846000541660405192838092630536340960e21b82525afa801561040c576113eb946113e692600092611450575b5033911614919350506113d9565b61146991925060203d8111610405576103f681836130ac565b9038611442565b34610411576000366003190112610411576020600654604051908152f35b34610411576020366003190112610411576001600160a01b036004356114b381610442565b1660005260046020526020604060002054604051908152f35b3461041157602036600319011261041157600435600161150a611505826114fd856000526007602052604060002090565b015460ff1690565b613eb5565b61151e826000526010602052604060002090565b906002908183019260ff8454818160081c16806118e2575b61153f906144b6565b60101c16611766575061156982611560866000526007602052604060002090565b0154151561454c565b6000815b61163b575b5050806115dd846001600160a01b036115b56005610c686000976115a36100169b6000526007602052604060002090565b01546000526007602052604060002090565b166115f0575b84546115cd9060101c60ff16826145e4565b6000526007602052604060002090565b0155805462ff0000191662010000179055565b6116356116106005610c68866115a3866000526007602052604060002090565b604051636f58dd0f60e11b60208201526000602482015290610cdb82604481016105f0565b506115bb565b600380611656856115a3896000526007602052604060002090565b015482101561176057856116906116868484611680896115a3876000526007602052604060002090565b01613d7a565b90549060031b1c90565b146116a5575061169f90613a2e565b8161156d565b83925094611756866117386115dd9461171f6117056116866100169c6116db60009c6115a38b6000526007602052604060002090565b016116ff876116f88d6115a38d6000526007602052604060002090565b0154613746565b90613d7a565b91846116808a6115a38a6000526007602052604060002090565b90919082549060031b91821b91600019901b1916179055565b611750856115a3856000526007602052604060002090565b01614597565b9450819250611572565b50611572565b8261181261180c6107bf966117d88960036117d2611889996105f0996117a66100169f9d61179e876000526007602052604060002090565b015415614501565b0197885480916117c0866000526007602052604060002090565b01556000526007602052604060002090565b01613d97565b83546001600160a01b036117fb6005610c68846000526007602052604060002090565b1661189a575b505460101c60ff1690565b856145e4565b610cdb611846610ed96118346004610c68896000526007602052604060002090565b93546000526005602052604060002090565b6040517f1499c5920000000000000000000000000000000000000000000000000000000060208201526001600160a01b0390911660248201529283906044820190565b506000526010602052604060002090565b6118b66005610c686118db936000526007602052604060002090565b604051636f58dd0f60e11b60208201526001602482015290610cdb82604481016105f0565b5038611801565b50808216611536565b34610411576040806003193601126104115760048035611909613344565b61192561150560016114fd846000526007602052604060002090565b61194a61194361059084610c68856000526007602052604060002090565b33146141d7565b6119526137a8565b61196b6005610c68836000526007602052604060002090565b6002549084516119df6119d16020927f02a085f20000000000000000000000000000000000000000000000000000000084820152806119bd602497883589840160209093929193604081019481520152565b0394610cdb601f19968781018452836130ac565b828082518301019101614967565b948686519487836119f586830198895190613337565b97611a05858401998a5190613337565b611a156060850191825190613337565b9188611a276080870194855190613337565b97611a3860a08801998a5190613337565b96611a51611a4c60c08301998a5190613337565b6153ff565b51611e92575b8251611daa575b5050508051611cb8575b508051611bcb575b5050611a7f8351825190613337565b611ac1575b89896105206101008a611a9c8d60e086015190614a98565b5192015192611aab6001600355565b5191825260208201929092529081906040820190565b84611add61059060009a969799989a546001600160a01b031690565b8b51968780927f24768d910000000000000000000000000000000000000000000000000000000082525afa801561040c5761052098610100988c611b879663a9059cbb60e01b968996611a9c9b600097611b92575b5090611b62610f7e949392611b58610ed9610cdb9a9b6000526005602052604060002090565b9351905190613337565b92519889958601528401602090939291936001600160a01b0360408201951681520152565b509382933880611a84565b610cdb9750610f7e94939291611b58610ed9611bbd611b62948a3d8c11610405576103f681836130ac565b9a5050509192939450611b32565b86611be16105906000546001600160a01b031690565b8d51938480927f9dc969a80000000000000000000000000000000000000000000000000000000082525afa91821561040c57611c81928d928c928a600093611c89575b5050611c75611c44610ed9610cdb94956000526005602052604060002090565b9151945194859263a9059cbb60e01b8d850152898401602090939291936001600160a01b0360408201951681520152565b038a81018452836130ac565b508338611a70565b610cdb9350610ed9611cae611c759383611c4494903d10610405576103f681836130ac565b945050508a611c24565b91878d611cd06105906000546001600160a01b031690565b9051928380927faa0ddc160000000000000000000000000000000000000000000000000000000082525afa90811561040c578b611d72928f8b908b9763a9059cbb60e01b95600094611d79575b5090611d6691611d3e610ed9610cdb96976000526005602052604060002090565b905191519687948501528b8401602090939291936001600160a01b0360408201951681520152565b038c81018452836130ac565b5038611a68565b610cdb945090611d3e610ed9611d9f611d669594873d8911610405576103f681836130ac565b965050509091611d1d565b611dc26105906000979497546001600160a01b031690565b9051928380927f30125cf50000000000000000000000000000000000000000000000000000000082525afa90811561040c578c8f928b611e58948c9863a9059cbb60e01b95600094611e61575b5090610d7291611e30610ed9610cdb96976000526005602052604060002090565b905191519687948501528c8401602090939291936001600160a01b0360408201951681520152565b5038888e611a5e565b610cdb945090611e30610ed9611e87610d729594873d8911610405576103f681836130ac565b965050509091611e0f565b611ea76105906000546001600160a01b031690565b9051958680927f640274270000000000000000000000000000000000000000000000000000000082525afa93841561040c578e611f3b8f8f8c988f8f968d90600093611f41575b50610f7e611f0d610ed9610cdb95966000526005602052604060002090565b9551885163a9059cbb60e01b8b8201526001600160a01b039097169287019283526020830152859160400190565b50611a57565b610cdb9350611f0d610ed9611f65610f7e938c8d3d10610405576103f681836130ac565b95505050611eee565b3461041157604036600319011261041157600435602435611f8d613344565b611fa961150560016114fd856000526007602052604060002090565b611fcd611fc6610590610ed9856000526005602052604060002090565b331461407b565b611fff611fe96005610c68856000526007602052604060002090565b611ff16140c6565b611ff96130ea565b91615b46565b90806120156020938480825183010191016140ff565b1015612026575b6100166001600355565b826121036001600160a01b03927ff526f68a00000000000000000000000000000000000000000000000000000000946120f76120dc610ed96120c76120b96120976120836005610c686121099f6000526007602052604060002090565b976040519182918983019190602083019252565b03976120ab601f19998a81018452836130ac565b6120b361410e565b90615b46565b858082518301019101614147565b99925050506000526005602052604060002090565b6120e46130fd565b90604051988994850152602484016141b7565b039081018552846130ac565b16615d1a565b5038808061201c565b3461041157602036600319011261041157602060043561213181610442565b6001600160a01b03809116600052600482526040600020546000526007825260056040600020015416604051908152f35b346104115760403660031901126104115761217e6103736156d7565b6121873361581b565b80156121a5575b612197906133eb565b6100166024356004356143c9565b5060046001600160a01b036020816000541660405193848092630536340960e21b82525afa90811561040c57612197926000926121e8575b50163314905061218e565b61220191925060203d8111610405576103f681836130ac565b90386121dd565b3461041157604036600319011261041157600435600052600860205260406000206024356000526020526020604060002054604051908152f35b346104115760203660031901126104115760043560005260076020526020600260406000200154604051908152f35b3461041157604036600319011261041157600435600052600760205260206122a26024356003604060002001613d7a565b90549060031b1c604051908152f35b346104115760003660031901126104115760206001600160a01b0360015416604051908152f35b34610411576040366003190112610411576122f46103736156d7565b6122fd3361581b565b801561231b575b61230d906133eb565b610016602435600435615483565b5060046001600160a01b036020816000541660405193848092630536340960e21b82525afa90811561040c5761230d9260009261235e575b501633149050612304565b61237791925060203d8111610405576103f681836130ac565b9038612353565b3461041157602036600319011261041157600435600052600f6020526020604060002054604051908152f35b3461041157600036600319011261041157600460206001600160a01b03600054166040519283809263d1f956b160e01b82525afa90811561040c576105209161243a9160009161244a575b5060405161240281613074565b601381527f67657464656c656761746f72436f756e7428290000000000000000000000000060208201526124346130ea565b91615c94565b6040519081529081906020820190565b612462915060203d8111610405576103f681836130ac565b386123f5565b610100810192916000915b6008831061248057505050565b600190825181526020809101920192019190612473565b34610411576020366003190112610411576105206004356125a4610adc6124bc615382565b926124e36124d4826000526008602052604060002090565b60008052602052604060002090565b5484526124fd6109d8826000526008602052604060002090565b54602085015261251a610a02826000526008602052604060002090565b546040850152612537610a2f826000526008602052604060002090565b546060850152612554610a5c826000526008602052604060002090565b546080850152612571610a89826000526008602052604060002090565b5460a085015261258e610ab6826000526008602052604060002090565b5460c08501526000526008602052604060002090565b5460e082015260405191829182612468565b346104115760203660031901126104115760206112516004356125d881610442565b61581b565b34610411576126e56125ee36610b25565b906125f7613344565b612640612605610b726130fd565b612610610b8c6130fd565b906126296001600160a01b039182808816911614613187565b610bc861059082600054166001600160a01b031690565b61266d61266860016114fd610c57856001600160a01b03166000526004602052604060002090565b61321d565b6126d66126cc6126bd61269b6005610c68610c57876001600160a01b03166000526004602052604060002090565b604051906126b5826105f060208201906000602083019252565b6120b3613268565b602080825183010191016132a1565b50505015156132c3565b6126de613762565b3390613a3d565b6126fe6124d46002546000526008602052604060002090565b6127088154613324565b905561271261542b565b61272b6005610c68836000526007602052604060002090565b9061273581613f00565b61273f6001600355565b604080519182526001600160a01b03929092166020820152f35b34610411576020366003190112610411576127756103736156d7565b61277e3361581b565b8015612799575b61278e906133eb565b6100166004356137eb565b50600460206127b36105906000546001600160a01b031690565b60405192838092630536340960e21b82525afa801561040c5761278e916000916127eb575b506001600160a01b031633149050612785565b612803915060203d8111610405576103f681836130ac565b386127d8565b346104115760203660031901126104115760046001600160a01b036020816000541660405193848092630536340960e21b82525afa91821561040c576000926128a5575b503391160361286157610016600435615a52565b606460405162461bcd60e51b815260206004820152600f60248201527f6f776e2e6e6f6e617574682e44414f00000000000000000000000000000000006044820152fd5b6128be91925060203d8111610405576103f681836130ac565b903861284d565b3461041157602036600319011261041157600435600052600d6020526020604060002054604051908152f35b346104115760203660031901126104115760043561290e81610442565b803b600061291b826130ce565b9261292960405194856130ac565b82845260208401903c602d81511061294f57602a015160405160609190911c8152602090f35b606460405162461bcd60e51b815260206004820152601360248201527f4e6f742061206d696e696d616c2070726f7879000000000000000000000000006044820152fd5b6040366003190112610411576004356129aa613344565b60009080825260076020526129c860ff600160408520015416613eb5565b81526007602052612a086001600160a01b036005604084200154166040519062a0e53360e51b6020830152602435602483015260248252610cdb82613037565b50600160035580f35b3461041157604036600319011261041157600435600052600a60205260406000206024356000526020526020604060002054604051908152f35b346104115760c036600319011261041157602435600435612a6b82610442565b6064359060843590612a7b613344565b612a9761150560016114fd846000526007602052604060002090565b612ab66119436105906004610c68856000526007602052604060002090565b612abe6137a8565b612ac7826153a7565b612ad0836153d3565b612b7d612b6f612b5b612af26005610c68866000526007602052604060002090565b966040519182916020977f932ca2d600000000000000000000000000000000000000000000000000000000898501528960a435926044359060248701919260809396959491966001600160a01b0360a08501981684526020840152604083015260608201520152565b0396610cdb601f19988981018452836130ac565b838082518301019101614222565b929080612b91575b505061201c9350614ddf565b60049082612baa6105906000546001600160a01b031690565b604051938480927f5e09dbe70000000000000000000000000000000000000000000000000000000082525afa801561040c5761201c97612c1d9463a9059cbb60e01b94600093612c25575b5060405190810194909452336024850152604484019290925290610cdb908360648101610f7e565b503880612b85565b610cdb9350612c43610f7e91833d8511610405576103f681836130ac565b9350612bf5565b34610411576020806003193601126104115760048035612c6981610442565b6001600160a01b03928084600054166040519485809263d1f956b160e01b82525afa90811561040c576105209461062a94600093612cc5575b506040519316818401528252612cb782613074565b612cbf6159e9565b90615c58565b612cdd919350823d8411610405576103f681836130ac565b9138612ca2565b346104115760003660031901126104115760206112516156d7565b3461041157602036600319011261041157600435600052600c6020526020604060002054604051908152f35b346104115760403660031901126104115760043560243590612d7e610788612d66336001600160a01b03166000526004602052604060002090565b54600052600760205260ff6001604060002001541690565b612d9a61150560016114fd846000526007602052604060002090565b612dbb612db660016114fd856000526007602052604060002090565b614238565b612dd46005610c68846000526007602052604060002090565b600483604051612e1a6126cc612e0c60209380612df8868201906000602083019252565b03976126b5601f19998a81018452836130ac565b8380825183010191016132a1565b612e2e856000526010602052604060002090565b93612e9a6002860196612e55612e50612e4c8a5460ff9060081c1690565b1590565b614283565b6040517f7bb9849800000000000000000000000000000000000000000000000000000000858201526024810191909152604481019890985260648281018952886130ac565b81612eb06105906000546001600160a01b031690565b60405195868092630536340960e21b82525afa93841561040c5761001697612f3095612f1d93610f7e93600092612f41575b50610cdb91926040519485917fffa734f0000000000000000000000000000000000000000000000000000000008984015230602484016142ce565b91600185015580825183010191016140ff565b9055805461ff001916610100179055565b610cdb9250612f5c90873d8911610405576103f681836130ac565b91612ee2565b3461041157602036600319011261041157600435600052600e6020526020604060002054604051908152f35b3461041157604080600319360112610411576001600160a01b03600435612fb481610442565b16600081815260046020818152848320548352600b815284832054938352908152838220548252600a81528382206024358352815290839020549251918252810191909152604090f35b34610411576000366003190112610411576020613019615949565b604051908152f35b634e487b7160e01b600052604160045260246000fd5b6060810190811067ffffffffffffffff82111761305357604052565b613021565b60e0810190811067ffffffffffffffff82111761305357604052565b6040810190811067ffffffffffffffff82111761305357604052565b6020810190811067ffffffffffffffff82111761305357604052565b90601f8019910116810190811067ffffffffffffffff82111761305357604052565b67ffffffffffffffff811161305357601f01601f191660200190565b604051906130f782613090565b60008252565b60405161310981613090565b60008152906000368137565b6040519061312282613074565b600782527f6f776e65722829000000000000000000000000000000000000000000000000006020830152565b6040519061315b82613074565b600c82527f67657448657862617365282900000000000000000000000000000000000000006020830152565b1561318e57565b606460405162461bcd60e51b815260206004820152601760248201527f6e65737465642e696e76616c69642e696e7374616e63650000000000000000006044820152fd5b156131d957565b606460405162461bcd60e51b815260206004820152601660248201527f6e65737465642e696e76616c69642e68657862617365000000000000000000006044820152fd5b1561322457565b606460405162461bcd60e51b815260206004820152601860248201527f6e65737465642e706172656e742e6e6f742e65786973747300000000000000006044820152fd5b6040519061327582613074565b601282527f6765744e6f64654c422875696e743235362900000000000000000000000000006020830152565b9190826080910312610411578151916020810151916060604083015192015190565b156132ca57565b606460405162461bcd60e51b815260206004820152601960248201527f6e65737465642e706172656e742e6e6f2e627573696e657373000000000000006044820152fd5b634e487b7160e01b600052601160045260246000fd5b906001820180921161333257565b61330e565b9190820180921161333257565b600260035414613355576002600355565b60046040517f3ee5aeb5000000000000000000000000000000000000000000000000000000008152fd5b1561338657565b606460405162461bcd60e51b815260206004820152601260248201527f6f776e2e696e76616c69642e69735361666500000000000000000000000000006044820152fd5b908160209103126104115751610b4a81610442565b6040513d6000823e3d90fd5b156133f257565b606460405162461bcd60e51b815260206004820152601b60248201527f6f776e2e6e6f6e617574682e44414f6f725365637572656261736500000000006044820152fd5b9190613440613344565b61347061346b612e4c60016114fd610c57866001600160a01b03166000526004602052604060002090565b6139e3565b61348361347e600654613a2e565b600655565b6134da600654936134a283610df1876000526005602052604060002090565b846134c0846001600160a01b03166000526004602052604060002090565b556001600160a01b03166000526004602052604060002090565b54906134e68483613dbf565b61351d60046134ff866000526007602052604060002090565b0173ffffffffffffffffffffffffffffffffffffffff198154169055565b60009161353461059084546001600160a01b031690565b926040918251809563e09d394d60e01b825281600460209384935afa801561040c5761356d613583916004988691613729575b50613ce4565b6005610e3e8b6000526007602052604060002090565b61359c6005610c688a6000526007602052604060002090565b916135eb866135b561059087546001600160a01b031690565b87516352902c5960e01b868201526001600160a01b03918216602482015291166044820152606481018b905280608481016119bd565b50801515806136ff575b6136b3575b508061361061059085546001600160a01b031690565b8551978880926318c9774160e21b82525afa91821561040c57610f7e600596600794613676936001600160a01b039a8892613692575b50610cdb9192895194859163d5ec0ea160e01b89840152602483019190916001600160a01b036020820193169052565b5087835252200154169161368981613f00565b91906001600355565b610cdb92506136ad90873d8911610405576103f681836130ac565b91613646565b6136cf6005610c686136f8936000526007602052604060002090565b8551636f58dd0f60e11b848201526001602482015260448581018252909190610cdb90836130ac565b50386135fa565b506001600160a01b036137216005610c68846000526007602052604060002090565b1615156135f5565b6137409150843d8611610405576103f681836130ac565b38613567565b60001981019190821161333257565b9190820391821161333257565b61376a615949565b60025410613782575b6137806005600254613834565b565b61378a615949565b806002556000198101908111613332576137a39061523c565b613773565b6137b0615949565b600254106137c5575b61378060028054613834565b6137cd615949565b806002556000198101908111613332576137e69061523c565b6137b9565b6137f3615949565b60025410613808575b61378090600254613834565b613810615949565b908160025560001982019182116133325761382d6137809261523c565b90506137fc565b9061384c6124d4836000526008602052604060002090565b5415806139d9575b806139d0575b613862575050565b61387e9061387861387284613746565b91613746565b90613834565b61389d6124d461388d83613746565b6000526008602052604060002090565b546138b56124d4836000526008602052604060002090565b556138c56109d861388d83613746565b546138dd6109d8836000526008602052604060002090565b556138ed610a0261388d83613746565b54613905610a02836000526008602052604060002090565b55613915610a2f61388d83613746565b5461392d610a2f836000526008602052604060002090565b5561393d610a5c61388d83613746565b54613955610a5c836000526008602052604060002090565b55613965610a8961388d83613746565b5461397d610a89836000526008602052604060002090565b5561398d610ab661388d83613746565b546139a5610ab6836000526008602052604060002090565b556139cd610adc6139bb610adc61388d85613746565b54926000526008602052604060002090565b55565b5080151561385a565b5060018211613854565b156139ea57565b606460405162461bcd60e51b815260206004820152601560248201527f6e65737465642e616c72656164792e65786973747300000000000000000000006044820152fd5b60001981146133325760010190565b91613a6961346b612e4c60016114fd610c57866001600160a01b03166000526004602052604060002090565b613a7761347e600654613a2e565b613ad9613ab760065494613a9984610df1886000526005602052604060002090565b856134c0856001600160a01b03166000526004602052604060002090565b5492613ac38585613dbf565b6004610e3e866000526007602052604060002090565b613aee6105906000546001600160a01b031690565b9060405192839263e09d394d60e01b845283600460209687935afa801561040c57613b26613b3c91600495600091613ccd5750613ce4565b6005610e3e886000526007602052604060002090565b613b556005610c68876000526007602052604060002090565b90613bae83613b6f6105906000546001600160a01b031690565b6040516352902c5960e01b898201526001600160a01b0391821660248201529116604482015260648082018990528152601f1993610cdb6084836130ac565b5080151580613ca3575b613c56575b5083613bd46105906000546001600160a01b031690565b604051948580926318c9774160e21b82525afa90811561040c57613c2d9463d5ec0ea160e01b94600093613c31575b50604051908101949094526001600160a01b03909216602484015290610cdb908360448101610f7e565b5090565b610cdb9350613c4f610f7e91833d8511610405576103f681836130ac565b9350613c03565b613c726005610c68613c9c936000526007602052604060002090565b604051636f58dd0f60e11b878201526001602482015260448481018252909190610cdb90836130ac565b5038613bbd565b506001600160a01b03613cc56005610c68846000526007602052604060002090565b161515613bb8565b6137409150873d8911610405576103f681836130ac565b6e5af43d82803e903d91602b57fd5bf390763d602d80600a3d3981f3363d3d373d3d3d363d7300000062ffffff8260881c161760005260781b17602052603760096000f0906001600160a01b03821615613d3a57565b60046040517fb06ebf3d000000000000000000000000000000000000000000000000000000008152fd5b634e487b7160e01b600052603260045260246000fd5b8054821015613d925760005260206000200190600090565b613d64565b9081549168010000000000000000831015613053578261171f91600161378095018155613d7a565b919091600092808452602091600783526040808620956002948386890155846001988981018a60ff198254161790555587613e0486600052600a602052604060002090565b83805282528489858520555b613e1f57505050505050509050565b613e8d613e7c828b8a9414613e96575b613e4388600052600a602052604060002090565b8187528552868620613e558154613324565b9055613e6b88600052600b602052604060002090565b613e758154613324565b9055613a2e565b956000526007602052604060002090565b01549384613e10565b613eb08960036117d28b6000526007602052604060002090565b613e2f565b15613ebc57565b606460405162461bcd60e51b815260206004820152601560248201527f6e65737465642e757365722e6e6f7461637469766500000000000000000000006044820152fd5b806000526007602052613f1d60ff60016040600020015416613eb5565b6000526007602052613f5e6001600160a01b03600560406000200154166040519062a0e53360e51b60208301526001602483015260248252610cdb82613037565b50565b15613f6857565b606460405162461bcd60e51b815260206004820152601360248201527f6e65737465642e7a65726f2e61646472657373000000000000000000000000006044820152fd5b15613fb357565b606460405162461bcd60e51b815260206004820152601460248201527f6e65737465642e7461726765742e6578697374730000000000000000000000006044820152fd5b15613ffe57565b606460405162461bcd60e51b815260206004820152601760248201527f6e65737465642e736f757263652e6e6f744578697374730000000000000000006044820152fd5b6040519061404f82613074565b601382527f55736572546f496e7374286164647265737329000000000000000000000000006020830152565b1561408257565b606460405162461bcd60e51b815260206004820152601560248201527f6e65737465642e696e76616c69642e73656e64657200000000000000000000006044820152fd5b604051906140d382613074565b600b82527f6d696e74436f756e7428290000000000000000000000000000000000000000006020830152565b90816020910312610411575190565b6040519061411b82613074565b600e82527f6d696e74732875696e74323536290000000000000000000000000000000000006020830152565b91908260809103126104115781519160208101519160606040830151920151610b4a81610442565b60005b8381106141825750506000910152565b8181015183820152602001614172565b906020916141ab8151809281855285808601910161416f565b601f01601f1916010190565b6040906001600160a01b03610b4a94931681528160208201520190614192565b156141de57565b606460405162461bcd60e51b815260206004820152601b60248201527f6e65737465642e757365722e696e76616c6964696e7374616e636500000000006044820152fd5b9190826040910312610411576020825192015190565b1561423f57565b606460405162461bcd60e51b815260206004820152601560248201527f6e65737465642e696e76616c69642e706172656e7400000000000000000000006044820152fd5b1561428a57565b606460405162461bcd60e51b815260206004820152601760248201527f6e65737465642e7265712e616c726561647965786973740000000000000000006044820152fd5b929161435660a0916001600160a01b0360009460c08852602460c08901527f547269676765722e6e65737465642e70726f706f73616c2e6d6f7665646f776e60e08901527f6c696e6500000000000000000000000000000000000000000000000000000000610100890152166020870152836040870152610120806060880152860190614192565b93600a60808201520152565b6040519061436f82613074565b601282527f6765745374617475732875696e743235362900000000000000000000000000006020830152565b5190811515820361041157565b919082604091031261041157610b4a60206143c28461439b565b930161439b565b6143fc614408916143ec61150560016114fd846000526007602052604060002090565b6000526010602052604060002090565b91600183015414614238565b61441d6105906000546001600160a01b031690565b906040518092630536340960e21b825281600460209586935afa90811561040c57613780936144786105f060029461448594600091614499575b5061447087546040519384918783019190602083019252565b6120b3614362565b80518101820191016143a8565b5091019060ff801983541691151516179055565b6144b09150843d8611610405576103f681836130ac565b38614457565b156144bd57565b606460405162461bcd60e51b815260206004820152601660248201527f6e65737465642e7265712e6e6f74617070726f766564000000000000000000006044820152fd5b1561450857565b606460405162461bcd60e51b815260206004820152601860248201527f6e65737465642e757365722e6e6f742e646574616368656400000000000000006044820152fd5b1561455357565b606460405162461bcd60e51b815260206004820152601b60248201527f6e65737465642e757365722e616c726564792e646574616368656400000000006044820152fd5b80549081156145c157600019918201916145b18383613d7a565b909182549160031b1b1916905555565b634e487b7160e01b600052603160045260246000fd5b8015613332576000190190565b6146016145fb82600052600b602052604060002090565b54613324565b60029081614619846000526007602052604060002090565b0154906001938492835b614631575b50505050505050565b600f808511158061495e575b15614958578590600561466161059082610c68876000526007602052604060002090565b61468e575b505061467f614687926000526007602052604060002090565b015493613a2e565b9285614623565b865b828111156147985750505061467f6146879289600014614735576146d86146c186600052600a602052604060002090565b6146ca89613746565b600052602052604060002090565b5461470b614703896146f485600052600a602052604060002090565b90600052602052604060002090565b918254613337565b905561472181600052600b602052604060002090565b61472c878254613337565b90555b92614666565b61474c6146c186600052600a602052604060002090565b54614770614768896146f485600052600a602052604060002090565b918254613755565b905561478681600052600b602052604060002090565b614791878254613755565b905561472f565b909192506147b482610c68876000526007602052604060002090565b8a896147c08a85613755565b9260406148016147f38251806147df6020998a83019190602083019252565b03946126b5601f19968781018452836130ac565b8680825183010191016132a1565b5050949091888b841580614950575b61493e57610cdb936148a3999896938b6148406148969a9895610c68610f7e966000526007602052604060002090565b975491519889957f7b058ac1000000000000000000000000000000000000000000000000000000008d8801526024870193909594919260809360a086019786526020860152604085015260608401521515910152565b8051810182019101614222565b908b156148f9575b8082116148c65750506148bd90613a2e565b90879291614690565b6148cf90613a2e565b6148e8816146f48c546000526008602052604060002090565b6148f28154613324565b90556148ab565b81811161490b5750506148bd90613a2e565b80614928614939926146f48d546000526008602052604060002090565b6149328154613746565b90556145d7565b6148f9565b5050505050505050506148bd90613a2e565b508715614810565b50614628565b5081151561463d565b9061012080838303126104115781601f84011215610411576040519281840184811067ffffffffffffffff821117613053576040528391810192831161041157905b8282106149b65750505090565b81518152602091820191016149a9565b604051906149d382613074565b600f82527f66726565496e74657276616c73282900000000000000000000000000000000006020830152565b60405190614a0c82613074565b601582527f67657452616e6b5769746841676556616c7565282900000000000000000000006020830152565b60405190614a4582613074565b601382527f72616e6b436c617573652875696e7432353629000000000000000000000000006020830152565b908160a0910312610411578051916020820151916040810151916080606083015192015190565b91906004906020614ab46105906000546001600160a01b031690565b6040519384809263cfbffe5360e01b82525afa91821561040c57600092614dbe575b50614af0614ae26130fd565b614aea6149c6565b84615c94565b906000809360009060009560009360009260009a5b600f8c111580614db5575b15614da757614b316105906005610c68846000526007602052604060002090565b614b5d575b6002614b4f614b57926000526007602052604060002090565b01549b613a2e565b9a614b05565b8b614b94614b85614b7d6005610c68866000526007602052604060002090565b611ff16149ff565b60208082518301019101614222565b82919215614d5e575b81151580614d55575b8015614d4d575b614bba575b505050614b36565b838b9184959e8e949503614c8b575b5092614c4d92610cdb614c3e936105f08e614bf66005610c68614c539b6000526007602052604060002090565b9460025460405197889563208bffb160e21b60208801526024870193909594919260a09360c08601978652600060208701526040860152606085015260808401521515910152565b602080825183010191016140ff565b91613324565b80821015614c6857509860028c614b57614bb2565b80613e6b614c86926146f46002546000526008602052604060002090565b614c53565b939a50505050838211614cde575b5088888b86841080801591614cb5575b50159992919038614bc9565b8a861015915081614cd6575b5080614cce575b38614ca9565b508715614cc8565b905038614cc1565b93509350935050614d2f614d20604051614d1281614d0487602083019190602083019252565b03601f1981018352826130ac565b614d1a614a38565b86615b46565b60208082518301019101614a71565b949350909591509492614d458593600254613755565b119338614c99565b506000614bad565b508a1515614ba6565b96505099509250935050614d87614d20604051614d1281614d048c602083019190602083019252565b9a9350909591509492828c819b614da088600254613755565b1196614b9d565b505050505050505050509050565b50801515614b10565b614dd891925060203d602011610405576103f681836130ac565b9038614ad6565b929160046000926020614dfc61059086546001600160a01b031690565b6040519384809263cfbffe5360e01b82525afa91821561040c5784926150ad575b50614e29614ae26130fd565b918480809181978294839b5b600f8d1115806150a4575b1561509557614e616105906005610c68846000526007602052604060002090565b614e8d575b6002614e7f614e87926000526007602052604060002090565b01549c613a2e565b9b614e35565b8c614ead614b85614b7d6005610c68866000526007602052604060002090565b829192158061503c575b1580615033575b801561502a575b614ed2575b505050614e66565b8b849e948c928f95968703614f90575b5092610cdb614c3e936105f08e614f589895614f106005610c68614c4d9b6000526007602052604060002090565b956002549060405198899663208bffb160e21b60208901526024880194919260a0949197969360c0870198875260208701526040860152606085015260808401521515910152565b80821015614f6d57509960028d614e87614eca565b80613e6b614f8b926146f46002546000526008602052604060002090565b614f58565b94505050509750838211614fe6575b5087898c8c87851080801591614fbd575b50159a9290939138614ee2565b8b871015915081614fde575b5080614fd6575b38614fb0565b508815614fd0565b905038614fc9565b9350935093505061500c614d20604051614d1281614d0487602083019190602083019252565b9493509095915094926150228593600254613755565b119338614f9f565b508c1515614ec5565b508a1515614ebe565b9750945050935094509850615074614d2060405161506681614d0487602083019190602083019252565b61506e614a38565b8c615b46565b9c93509096915095938d8194829d61508e82600254613755565b1197614eb7565b50505050505050505050509050565b50801515614e40565b6150c791925060203d602011610405576103f681836130ac565b9038614e1d565b6002546000198101908111613332576137809061523c565b156150ed57565b606460405162461bcd60e51b815260206004820152601260248201527f6e65737465642e696e76616c69642e61676500000000000000000000000000006044820152fd5b6040519061513e82613074565b601882527f6765744261746368526f79616c7479436c6175736573282900000000000000006020830152565b6102a09081818403126104115782601f8201121561041157604080519361519085613058565b849383019281841161041157935b8385106151ad57505050505090565b6060858303126104115782516060916151c582613037565b865182526020918288015183820152858801518682015281520194019361519e565b906007811015613d925760051b0190565b908160640291606483040361333257565b8181029291811591840414171561333257565b8115615226570490565b634e487b7160e01b600052601260045260246000fd5b6152478115156150e6565b61525c6105906000546001600160a01b031690565b90604051809263cfbffe5360e01b825281600460209586935afa90811561040c576152a49161529691600091615365575b50611ff1615131565b83808251830101910161516a565b6152b882600052600c602052604060002090565b5460015b60078111156152cc575050505050565b806152e8615351926146f4876000526008602052604060002090565b54801561535f576153016152fb83613746565b866151e7565b518781519283156153565761532861532d92615320615333968a615209565b9401516151f8565b615209565b9061521c565b61534b826146f4886000526009602052604060002090565b55613a2e565b6152bc565b50505050613a2e565b50613a2e565b61537c9150853d8711610405576103f681836130ac565b3861528d565b6040519061010080830183811067ffffffffffffffff82111761305357604052368337565b60025480600052600c60205260406000205491820180921161333257600052600c602052604060002055565b60025480600052600d60205260406000205491820180921161333257600052600d602052604060002055565b60025480600052600e60205260406000205491820180921161333257600052600e602052604060002055565b60025480600052600f602052604060002054906001820180921161333257600052600f602052604060002055565b9080600052600c60205260406000205491820180921161333257600052600c602052604060002055565b9080600052600e60205260406000205491820180921161333257600052600e602052604060002055565b9080600052600f60205260406000205491820180921161333257600052600f602052604060002055565b604051906154e482613074565b601482527f676574627573696e6573732875696e74323536290000000000000000000000006020830152565b6040519061551d82613074565b601d82527f67657472616e6b436f756e742875696e743235362c75696e74323536290000006020830152565b60009061556061059083546001600160a01b031690565b91604092835192839163111ea8c160e21b835282600460209485935afa93841561040c578394615659575b505b8581111561559d57505050505050565b8451828101828152819003808252601f19916155ce916155c090602001826130ac565b6155c86154d7565b87615c94565b6155e561470384600052600c602052604060002090565b9055835b600881106156015750506155fc90613a2e565b61558d565b865184810184815260208101839052615654929161563c9161562e908290604001038681018352826130ac565b615636615510565b89615c94565b61534b826146f4876000526008602052604060002090565b6155e9565b615671919450823d8411610405576103f681836130ac565b923861558b565b1561567f57565b606460405162461bcd60e51b815260206004820152601960248201527f6f776e2e7361666567756172642e63616c6c2e6661696c6564000000000000006044820152fd5b9081602091031261041157610b4a9061439b565b6001600160a01b03600054166040518091634bf9c0ad60e11b825281600460209384935afa91821561040c57610b4a9261575f9160009161577a575b5060405161572081613074565b600881527f6973536166652829000000000000000000000000000000000000000000000000848201526040519161575683613090565b60008352615b71565b919080615770575b61061d90615678565b5081518114615767565b6157919150833d8511610405576103f681836130ac565b38615713565b604051906157a482613074565b601582527f69735365637572654261736528616464726573732900000000000000000000006020830152565b156157d757565b606460405162461bcd60e51b815260206004820152601a60248201527f6f776e2e736563757265626173652e63616c6c2e6661696c65640000000000006044820152fd5b6000546001600160a01b0316604051918291634bf9c0ad60e11b835282600460209485935afa92831561040c57610b4a93615887926105f0926000926158a2575b5061587f906040519384918783019190916001600160a01b036020820193169052565b610606615797565b919080615898575b61061d906157d0565b508151811461588f565b61587f9192506158be90863d8811610405576103f681836130ac565b919061585c565b604051906158d282613074565b601182527f69735369676e65722861646472657373290000000000000000000000000000006020830152565b1561590557565b606460405162461bcd60e51b815260206004820152601660248201527f6f776e2e7369676e65722e63616c6c2e6661696c6564000000000000000000006044820152fd5b600460206001600160a01b03600054166040519283809263111ea8c160e21b82525afa801561040c57610b4a916000916159cb575b5060405161598b81613074565b600581527f61676528290000000000000000000000000000000000000000000000000000006020820152604051916159c283613090565b60008352615c94565b6159e3915060203d8111610405576103f681836130ac565b3861597e565b604051906159f682613074565b601882527f697364656c656761746f724e6f646528616464726573732900000000000000006020830152565b3d15615a4d573d90615a33826130ce565b91615a4160405193846130ac565b82523d6000602084013e565b606090565b6000600460206001600160a01b03835416604051928380927f46f991ac0000000000000000000000000000000000000000000000000000000082525afa90811561040c578284819382938391615b28575b505af1615aae615a22565b5015615ae45760405190815233907fcdcc745fe377b103b45fa0cec23ae3ef93d6fc6a84a01f0d18c40b354dd1d5d890602090a2565b606460405162461bcd60e51b815260206004820152600f60248201527f6f776e2e6275726e2e6661696c656400000000000000000000000000000000006044820152fd5b615b40915060203d8111610405576103f681836130ac565b38615aa3565b90615b519291615b71565b9060009015615b5e575090565b6040519150615b6c82613090565b815290565b803b15615bee576000927fffffffff000000000000000000000000000000000000000000000000000000008360208695519101201690615bdb6024604051809360208201958652615bcb815180926020868601910161416f565b81010360048101845201826130ac565b5191620dbba0fa615bea615a22565b9091565b505050600090604051615c0081613090565b6000815290565b9291615c1591600094615b71565b9080615c4d575b615c235750565b9091506020818051810103126104115760206001600160a01b03910151615c4981610442565b1690565b506020815114615c1c565b9291615c6691600094615b71565b9080615c89575b615c745750565b610b4a919250602080825183010191016156c3565b506020815114615c6d565b9291615ca291600094615b71565b9080615cc5575b615cb05750565b610b4a919250602080825183010191016140ff565b506020815114615ca9565b90602082519201517fffffffff00000000000000000000000000000000000000000000000000000000908181169360048110615d0b57505050565b60040360031b82901b16169150565b6001600160a01b03811615615dcb57600080918351908260208601915af190615d41615a22565b9115615d4b575090565b805160009190600411615dc557615d629150615cd0565b815115615d725750805190602001fd5b6024907fffffffff00000000000000000000000000000000000000000000000000000000604051917f21c09d34000000000000000000000000000000000000000000000000000000008352166004820152fd5b50615d62565b606460405162461bcd60e51b815260206004820152601260248201527f6f776e2e696e76616c69642e74617267657400000000000000000000000000006044820152fdfea26469706673582212207361b4840bef4038da8215feee034c818edea1e4e51529c3a81970b2d483f47364736f6c63430008140033","linkReferences":{}},"methodIdentifiers":{"dAOAssembly()":"14837455","daocore()":"14d8d024","nested741()":"45cff900","old741()":"5540c5ac","price()":"a035b1fe"},"id":69}